{
  "transactions": [
    {
      "hash": "0x05a672970a1f9d3ac70920ca48b208c7ccd2710c2c4b40b3a18d140d62b989ed",
      "transactionType": "CALL",
      "contractName": null,
      "contractAddress": "0x8aafd3ede9adb0ff97c7aebce82a919afb1c8764",
      "function": "sell(uint256)",
      "arguments": [
        "7692760"
      ],
      "transaction": {
        "from": "0xc77f7fed3b5cc8249adc428c5f44c9063b9734b4",
        "to": "0x8aafd3ede9adb0ff97c7aebce82a919afb1c8764",
        "gas": "0x16208",
        "value": "0x0",
        "input": "0xe4849b3200000000000000000000000000000000000000000000000000000000007561d8",
        "nonce": "0xe49",
        "chainId": "0xaa36a7"
      },
      "additionalContracts": [],
      "isFixedGasLimit": false
    }
  ],
  "receipts": [
    {
      "status": "0x1",
      "cumulativeGasUsed": "0x1c411ce",
      "logs": [
        {
          "address": "0x8aafd3ede9adb0ff97c7aebce82a919afb1c8764",
          "topics": [
            "0xddf252ad1be2c89b69c2b068fc378daa952ba7f163c4a11628f55a4df523b3ef",
            "0x000000000000000000000000c77f7fed3b5cc8249adc428c5f44c9063b9734b4",
            "0x0000000000000000000000000000000000000000000000000000000000000000"
          ],
          "data": "0x0000000000000000000000000000000000000000000000000000000000747172",
          "blockHash": "0xbe545f50ecb7cfa694d79fd5b838e7496a71c3e643ba3a871153710ea1b229f2",
          "blockNumber": "0x731389",
          "transactionHash": "0x05a672970a1f9d3ac70920ca48b208c7ccd2710c2c4b40b3a18d140d62b989ed",
          "transactionIndex": "0xd7",
          "logIndex": "0x1d7",
          "removed": false
        },
        {
          "address": "0x8aafd3ede9adb0ff97c7aebce82a919afb1c8764",
          "topics": [
            "0xddf252ad1be2c89b69c2b068fc378daa952ba7f163c4a11628f55a4df523b3ef",
            "0x000000000000000000000000c77f7fed3b5cc8249adc428c5f44c9063b9734b4",
            "0x000000000000000000000000c77f7fed3b5cc8249adc428c5f44c9063b9734b4"
          ],
          "data": "0x000000000000000000000000000000000000000000000000000000000000f066",
          "blockHash": "0xbe545f50ecb7cfa694d79fd5b838e7496a71c3e643ba3a871153710ea1b229f2",
          "blockNumber": "0x731389",
          "transactionHash": "0x05a672970a1f9d3ac70920ca48b208c7ccd2710c2c4b40b3a18d140d62b989ed",
          "transactionIndex": "0xd7",
          "logIndex": "0x1d8",
          "removed": false
        },
        {
          "address": "0x8aafd3ede9adb0ff97c7aebce82a919afb1c8764",
          "topics": [
            "0x4afcb4a87cdbd9974efdb92ee48bc8d7cd0ae4bf217004db3d080cbaee652ca7"
          ],
          "data": "0x00000000000000000000000000000000000000000000000000000000678fe7000000000000000000000000000000000000000000000000000004b3a05822a08c00000000000000000000000000000000000000000000000000000000000027c4",
          "blockHash": "0xbe545f50ecb7cfa694d79fd5b838e7496a71c3e643ba3a871153710ea1b229f2",
          "blockNumber": "0x731389",
          "transactionHash": "0x05a672970a1f9d3ac70920ca48b208c7ccd2710c2c4b40b3a18d140d62b989ed",
          "transactionIndex": "0xd7",
          "logIndex": "0x1d9",
          "removed": false
        }
      ],
      "logsBloom": "0x00000000000000000000000000000000000000000600000000000000000000000000000000000000000000000000000000000000000000004000000000000000000000000000004000000008000000000000000000000000000000000000000000000000020000000000000000000800020000000000000000000010000000000000000000000000000000000000000000000000000000000000010000000000000000000000000000000000000000004000000000000000000000000000000000000002000000800000000000000000000000000000080000000000000020000000000000000000000000000000000000000000000000000000000000000000",
      "type": "0x2",
      "transactionHash": "0x05a672970a1f9d3ac70920ca48b208c7ccd2710c2c4b40b3a18d140d62b989ed",
      "transactionIndex": "0xd7",
      "blockHash": "0xbe545f50ecb7cfa694d79fd5b838e7496a71c3e643ba3a871153710ea1b229f2",
      "blockNumber": "0x731389",
      "gasUsed": "0xf213",
      "effectiveGasPrice": "0x6c332dd5",
      "from": "0xc77f7fed3b5cc8249adc428c5f44c9063b9734b4",
      "to": "0x8aafd3ede9adb0ff97c7aebce82a919afb1c8764",
      "contractAddress": null
    }
  ],
  "libraries": [],
  "pending": [],
  "returns": {},
  "timestamp": 1737484033,
  "chain": 11155111,
  "commit": "51a374b"
}