{
  "transactions": [
    {
      "hash": "0xcf897c3fd930222b1c4464428daac97f59d5f3123f2448f4e739514cf5de6a56",
      "transactionType": "CALL",
      "contractName": null,
      "contractAddress": "0x270e88f8683660553e8ba4eb2ad7c91a1710d769",
      "function": "sell(uint256)",
      "arguments": [
        "709286504557987051656"
      ],
      "transaction": {
        "from": "0xc77f7fed3b5cc8249adc428c5f44c9063b9734b4",
        "to": "0x270e88f8683660553e8ba4eb2ad7c91a1710d769",
        "gas": "0x16fec",
        "value": "0x0",
        "input": "0xe4849b320000000000000000000000000000000000000000000000267353ddef3d4d3888",
        "nonce": "0x8a4",
        "chainId": "0xaa36a7"
      },
      "additionalContracts": [],
      "isFixedGasLimit": false
    }
  ],
  "receipts": [
    {
      "status": "0x1",
      "cumulativeGasUsed": "0x198c940",
      "logs": [
        {
          "address": "0x270e88f8683660553e8ba4eb2ad7c91a1710d769",
          "topics": [
            "0xddf252ad1be2c89b69c2b068fc378daa952ba7f163c4a11628f55a4df523b3ef",
            "0x000000000000000000000000c77f7fed3b5cc8249adc428c5f44c9063b9734b4",
            "0x0000000000000000000000000000000000000000000000000000000000000000"
          ],
          "data": "0x0000000000000000000000000000000000000000000000267353ddef3d4d3888",
          "blockHash": "0xd9e0cbb204f8150e438022a6eae176b7435a71b82095bdecda8db11d848a246d",
          "blockNumber": "0x725602",
          "transactionHash": "0xcf897c3fd930222b1c4464428daac97f59d5f3123f2448f4e739514cf5de6a56",
          "transactionIndex": "0x73",
          "logIndex": "0xc8",
          "removed": false
        },
        {
          "address": "0x270e88f8683660553e8ba4eb2ad7c91a1710d769",
          "topics": [
            "0x4afcb4a87cdbd9974efdb92ee48bc8d7cd0ae4bf217004db3d080cbaee652ca7"
          ],
          "data": "0x000000000000000000000000000000000000000000000000000000006786fa200000000000000000000000000000000000000000000000000004f996878364cf0000000000000000000000000000000000000000000000000dc82551d3f2a09b",
          "blockHash": "0xd9e0cbb204f8150e438022a6eae176b7435a71b82095bdecda8db11d848a246d",
          "blockNumber": "0x725602",
          "transactionHash": "0xcf897c3fd930222b1c4464428daac97f59d5f3123f2448f4e739514cf5de6a56",
          "transactionIndex": "0x73",
          "logIndex": "0xc9",
          "removed": false
        }
      ],
      "logsBloom": "0x00000000000000000000000000000000000000000000000000000000000000000000000000000000000000000000000020000000000000004000000000000000000000000000000000000008000000000000000000000000000000000000000000000000020000000000000000000800020000000000000000000010000000000000000000010000000000000000000000000000000000000000010000000000000000000000000000000000000000004000000000000000000000000000000000000002000000800000000000000000000000000000080000008000000020000000000000000000000000000000000000000000000000000000000000000000",
      "type": "0x2",
      "transactionHash": "0xcf897c3fd930222b1c4464428daac97f59d5f3123f2448f4e739514cf5de6a56",
      "transactionIndex": "0x73",
      "blockHash": "0xd9e0cbb204f8150e438022a6eae176b7435a71b82095bdecda8db11d848a246d",
      "blockNumber": "0x725602",
      "gasUsed": "0xfb93",
      "effectiveGasPrice": "0x828104f1",
      "from": "0xc77f7fed3b5cc8249adc428c5f44c9063b9734b4",
      "to": "0x270e88f8683660553e8ba4eb2ad7c91a1710d769",
      "contractAddress": null
    }
  ],
  "libraries": [],
  "pending": [],
  "returns": {},
  "timestamp": 1736899104,
  "chain": 11155111,
  "commit": "51a374b"
}