{
  "transactions": [
    {
      "hash": "0x08b273a1bf42b334d37f34620ca90fd652807ab9c2d16114f3b209cbc4f40397",
      "transactionType": "CALL",
      "contractName": null,
      "contractAddress": "0x8aafd3ede9adb0ff97c7aebce82a919afb1c8764",
      "function": "sell(uint256)",
      "arguments": [
        "9972922090447562"
      ],
      "transaction": {
        "from": "0xc77f7fed3b5cc8249adc428c5f44c9063b9734b4",
        "to": "0x8aafd3ede9adb0ff97c7aebce82a919afb1c8764",
        "gas": "0x1724d",
        "value": "0x0",
        "input": "0xe4849b3200000000000000000000000000000000000000000000000000236e51de92e2ca",
        "nonce": "0x16e7",
        "chainId": "0xaa36a7"
      },
      "additionalContracts": [],
      "isFixedGasLimit": false
    }
  ],
  "receipts": [
    {
      "status": "0x1",
      "cumulativeGasUsed": "0xf1fdf8",
      "logs": [
        {
          "address": "0x8aafd3ede9adb0ff97c7aebce82a919afb1c8764",
          "topics": [
            "0xddf252ad1be2c89b69c2b068fc378daa952ba7f163c4a11628f55a4df523b3ef",
            "0x000000000000000000000000c77f7fed3b5cc8249adc428c5f44c9063b9734b4",
            "0x0000000000000000000000000000000000000000000000000000000000000000"
          ],
          "data": "0x000000000000000000000000000000000000000000000000002325c1dabec44e",
          "blockHash": "0x6a3a624a93ad0d080101e92f43d59804ff66fc9ed9899385c70035abbe0adc50",
          "blockNumber": "0x731ea6",
          "transactionHash": "0x08b273a1bf42b334d37f34620ca90fd652807ab9c2d16114f3b209cbc4f40397",
          "transactionIndex": "0x5b",
          "logIndex": "0xb5",
          "removed": false
        },
        {
          "address": "0x8aafd3ede9adb0ff97c7aebce82a919afb1c8764",
          "topics": [
            "0xddf252ad1be2c89b69c2b068fc378daa952ba7f163c4a11628f55a4df523b3ef",
            "0x000000000000000000000000c77f7fed3b5cc8249adc428c5f44c9063b9734b4",
            "0x000000000000000000000000c77f7fed3b5cc8249adc428c5f44c9063b9734b4"
          ],
          "data": "0x0000000000000000000000000000000000000000000000000000489003d41e7c",
          "blockHash": "0x6a3a624a93ad0d080101e92f43d59804ff66fc9ed9899385c70035abbe0adc50",
          "blockNumber": "0x731ea6",
          "transactionHash": "0x08b273a1bf42b334d37f34620ca90fd652807ab9c2d16114f3b209cbc4f40397",
          "transactionIndex": "0x5b",
          "logIndex": "0xb6",
          "removed": false
        },
        {
          "address": "0x8aafd3ede9adb0ff97c7aebce82a919afb1c8764",
          "topics": [
            "0x4afcb4a87cdbd9974efdb92ee48bc8d7cd0ae4bf217004db3d080cbaee652ca7"
          ],
          "data": "0x0000000000000000000000000000000000000000000000000000000067906cb00000000000000000000000000000000000000000000000000016bea51030a52c00000000000000000000000000000000000000000000000000003a119ae8b874",
          "blockHash": "0x6a3a624a93ad0d080101e92f43d59804ff66fc9ed9899385c70035abbe0adc50",
          "blockNumber": "0x731ea6",
          "transactionHash": "0x08b273a1bf42b334d37f34620ca90fd652807ab9c2d16114f3b209cbc4f40397",
          "transactionIndex": "0x5b",
          "logIndex": "0xb7",
          "removed": false
        }
      ],
      "logsBloom": "0x00000000000000000000000000000000000000000600000000000000000000000000000000000000000000000000000000000000000000004000000000000000000000000000004000000008000000000000000000000000000000000000000000000000020000000000000000000800020000000000000000000010000000000000000000000000000000000000000000000000000000000000010000000000000000000000000000000000000000004000000000000000000000000000000000000002000000800000000000000000000000000000080000000000000020000000000000000000000000000000000000000000000000000000000000000000",
      "type": "0x2",
      "transactionHash": "0x08b273a1bf42b334d37f34620ca90fd652807ab9c2d16114f3b209cbc4f40397",
      "transactionIndex": "0x5b",
      "blockHash": "0x6a3a624a93ad0d080101e92f43d59804ff66fc9ed9899385c70035abbe0adc50",
      "blockNumber": "0x731ea6",
      "gasUsed": "0xfd33",
      "effectiveGasPrice": "0x46a23668",
      "from": "0xc77f7fed3b5cc8249adc428c5f44c9063b9734b4",
      "to": "0x8aafd3ede9adb0ff97c7aebce82a919afb1c8764",
      "contractAddress": null
    }
  ],
  "libraries": [],
  "pending": [],
  "returns": {},
  "timestamp": 1737518257,
  "chain": 11155111,
  "commit": "1d2fb70"
}