{
  "transactions": [
    {
      "hash": "0x4573ea39135f934bf3d570c570c4c5ee06ffdb6e842686e392be8118016269d2",
      "transactionType": "CALL",
      "contractName": null,
      "contractAddress": "0x8aafd3ede9adb0ff97c7aebce82a919afb1c8764",
      "function": "sell(uint256)",
      "arguments": [
        "745961813541078757616"
      ],
      "transaction": {
        "from": "0xc77f7fed3b5cc8249adc428c5f44c9063b9734b4",
        "to": "0x8aafd3ede9adb0ff97c7aebce82a919afb1c8764",
        "gas": "0x17270",
        "value": "0x0",
        "input": "0xe4849b32000000000000000000000000000000000000000000000028704cbd23fa2cf0f0",
        "nonce": "0xef6",
        "chainId": "0xaa36a7"
      },
      "additionalContracts": [],
      "isFixedGasLimit": false
    }
  ],
  "receipts": [
    {
      "status": "0x1",
      "cumulativeGasUsed": "0x13ccdaf",
      "logs": [
        {
          "address": "0x8aafd3ede9adb0ff97c7aebce82a919afb1c8764",
          "topics": [
            "0xddf252ad1be2c89b69c2b068fc378daa952ba7f163c4a11628f55a4df523b3ef",
            "0x000000000000000000000000c77f7fed3b5cc8249adc428c5f44c9063b9734b4",
            "0x0000000000000000000000000000000000000000000000000000000000000000"
          ],
          "data": "0x0000000000000000000000000000000000000000000000281d7b3a9a7932b9c4",
          "blockHash": "0x8ea9caf4f928ad01c807f2b8732490c05fd9e9d14a7219f446d6749d6c4dd7cb",
          "blockNumber": "0x73146e",
          "transactionHash": "0x4573ea39135f934bf3d570c570c4c5ee06ffdb6e842686e392be8118016269d2",
          "transactionIndex": "0x6c",
          "logIndex": "0xdb",
          "removed": false
        },
        {
          "address": "0x8aafd3ede9adb0ff97c7aebce82a919afb1c8764",
          "topics": [
            "0xddf252ad1be2c89b69c2b068fc378daa952ba7f163c4a11628f55a4df523b3ef",
            "0x000000000000000000000000c77f7fed3b5cc8249adc428c5f44c9063b9734b4",
            "0x000000000000000000000000c77f7fed3b5cc8249adc428c5f44c9063b9734b4"
          ],
          "data": "0x00000000000000000000000000000000000000000000000052d1828980fa372c",
          "blockHash": "0x8ea9caf4f928ad01c807f2b8732490c05fd9e9d14a7219f446d6749d6c4dd7cb",
          "blockNumber": "0x73146e",
          "transactionHash": "0x4573ea39135f934bf3d570c570c4c5ee06ffdb6e842686e392be8118016269d2",
          "transactionIndex": "0x6c",
          "logIndex": "0xdc",
          "removed": false
        },
        {
          "address": "0x8aafd3ede9adb0ff97c7aebce82a919afb1c8764",
          "topics": [
            "0x4afcb4a87cdbd9974efdb92ee48bc8d7cd0ae4bf217004db3d080cbaee652ca7"
          ],
          "data": "0x00000000000000000000000000000000000000000000000000000000678ff1d40000000000000000000000000000000000000000000000000004bb1b4ce0cedf0000000000000000000000000000000000000000000000000dc8346beac87abf",
          "blockHash": "0x8ea9caf4f928ad01c807f2b8732490c05fd9e9d14a7219f446d6749d6c4dd7cb",
          "blockNumber": "0x73146e",
          "transactionHash": "0x4573ea39135f934bf3d570c570c4c5ee06ffdb6e842686e392be8118016269d2",
          "transactionIndex": "0x6c",
          "logIndex": "0xdd",
          "removed": false
        }
      ],
      "logsBloom": "0x00000000000000000000000000000000000000000600000000000000000000000000000000000000000000000000000000000000000000004000000000000000000000000000004000000008000000000000000000000000000000000000000000000000020000000000000000000800020000000000000000000010000000000000000000000000000000000000000000000000000000000000010000000000000000000000000000000000000000004000000000000000000000000000000000000002000000800000000000000000000000000000080000000000000020000000000000000000000000000000000000000000000000000000000000000000",
      "type": "0x2",
      "transactionHash": "0x4573ea39135f934bf3d570c570c4c5ee06ffdb6e842686e392be8118016269d2",
      "transactionIndex": "0x6c",
      "blockHash": "0x8ea9caf4f928ad01c807f2b8732490c05fd9e9d14a7219f446d6749d6c4dd7cb",
      "blockNumber": "0x73146e",
      "gasUsed": "0xfd4b",
      "effectiveGasPrice": "0x9d562218",
      "from": "0xc77f7fed3b5cc8249adc428c5f44c9063b9734b4",
      "to": "0x8aafd3ede9adb0ff97c7aebce82a919afb1c8764",
      "contractAddress": null
    }
  ],
  "libraries": [],
  "pending": [],
  "returns": {},
  "timestamp": 1737486805,
  "chain": 11155111,
  "commit": "51a374b"
}