{
  "transactions": [
    {
      "hash": "0xead7fe295d1c2b169d7f98dd01b3994cdf559d916f48da5c767615bcab522730",
      "transactionType": "CALL",
      "contractName": null,
      "contractAddress": "0x8aafd3ede9adb0ff97c7aebce82a919afb1c8764",
      "function": "sell(uint256)",
      "arguments": [
        "1425692"
      ],
      "transaction": {
        "from": "0xc77f7fed3b5cc8249adc428c5f44c9063b9734b4",
        "to": "0x8aafd3ede9adb0ff97c7aebce82a919afb1c8764",
        "gas": "0x16208",
        "value": "0x0",
        "input": "0xe4849b32000000000000000000000000000000000000000000000000000000000015c11c",
        "nonce": "0x120a",
        "chainId": "0xaa36a7"
      },
      "additionalContracts": [],
      "isFixedGasLimit": false
    }
  ],
  "receipts": [
    {
      "status": "0x1",
      "cumulativeGasUsed": "0x94ea69",
      "logs": [
        {
          "address": "0x8aafd3ede9adb0ff97c7aebce82a919afb1c8764",
          "topics": [
            "0xddf252ad1be2c89b69c2b068fc378daa952ba7f163c4a11628f55a4df523b3ef",
            "0x000000000000000000000000c77f7fed3b5cc8249adc428c5f44c9063b9734b4",
            "0x0000000000000000000000000000000000000000000000000000000000000000"
          ],
          "data": "0x000000000000000000000000000000000000000000000000000000000015948f",
          "blockHash": "0xfa3c45902bc5756d48b3720a9a36c21437bfbe1f8fe652b5b6ce308473bdf180",
          "blockNumber": "0x7318e5",
          "transactionHash": "0xead7fe295d1c2b169d7f98dd01b3994cdf559d916f48da5c767615bcab522730",
          "transactionIndex": "0x7d",
          "logIndex": "0x8f",
          "removed": false
        },
        {
          "address": "0x8aafd3ede9adb0ff97c7aebce82a919afb1c8764",
          "topics": [
            "0xddf252ad1be2c89b69c2b068fc378daa952ba7f163c4a11628f55a4df523b3ef",
            "0x000000000000000000000000c77f7fed3b5cc8249adc428c5f44c9063b9734b4",
            "0x000000000000000000000000c77f7fed3b5cc8249adc428c5f44c9063b9734b4"
          ],
          "data": "0x0000000000000000000000000000000000000000000000000000000000002c8d",
          "blockHash": "0xfa3c45902bc5756d48b3720a9a36c21437bfbe1f8fe652b5b6ce308473bdf180",
          "blockNumber": "0x7318e5",
          "transactionHash": "0xead7fe295d1c2b169d7f98dd01b3994cdf559d916f48da5c767615bcab522730",
          "transactionIndex": "0x7d",
          "logIndex": "0x90",
          "removed": false
        },
        {
          "address": "0x8aafd3ede9adb0ff97c7aebce82a919afb1c8764",
          "topics": [
            "0x4afcb4a87cdbd9974efdb92ee48bc8d7cd0ae4bf217004db3d080cbaee652ca7"
          ],
          "data": "0x000000000000000000000000000000000000000000000000000000006790278c000000000000000000000000000000000000000000000000000531ee962594df0000000000000000000000000000000000000000000000000000000000000824",
          "blockHash": "0xfa3c45902bc5756d48b3720a9a36c21437bfbe1f8fe652b5b6ce308473bdf180",
          "blockNumber": "0x7318e5",
          "transactionHash": "0xead7fe295d1c2b169d7f98dd01b3994cdf559d916f48da5c767615bcab522730",
          "transactionIndex": "0x7d",
          "logIndex": "0x91",
          "removed": false
        }
      ],
      "logsBloom": "0x00000000000000000000000000000000000000000600000000000000000000000000000000000000000000000000000000000000000000004000000000000000000000000000004000000008000000000000000000000000000000000000000000000000020000000000000000000800020000000000000000000010000000000000000000000000000000000000000000000000000000000000010000000000000000000000000000000000000000004000000000000000000000000000000000000002000000800000000000000000000000000000080000000000000020000000000000000000000000000000000000000000000000000000000000000000",
      "type": "0x2",
      "transactionHash": "0xead7fe295d1c2b169d7f98dd01b3994cdf559d916f48da5c767615bcab522730",
      "transactionIndex": "0x7d",
      "blockHash": "0xfa3c45902bc5756d48b3720a9a36c21437bfbe1f8fe652b5b6ce308473bdf180",
      "blockNumber": "0x7318e5",
      "gasUsed": "0xf213",
      "effectiveGasPrice": "0x4be4569d",
      "from": "0xc77f7fed3b5cc8249adc428c5f44c9063b9734b4",
      "to": "0x8aafd3ede9adb0ff97c7aebce82a919afb1c8764",
      "contractAddress": null
    }
  ],
  "libraries": [],
  "pending": [],
  "returns": {},
  "timestamp": 1737500557,
  "chain": 11155111,
  "commit": "1d2fb70"
}