{
  "transactions": [
    {
      "hash": "0x605150068b1bbd157afc3b11a32aba25005c899fae56035e0cb5753cdd180e7d",
      "transactionType": "CALL",
      "contractName": null,
      "contractAddress": "0x8aafd3ede9adb0ff97c7aebce82a919afb1c8764",
      "function": "buy(address)",
      "arguments": [
        "0xC77f7fed3b5Cc8249aDc428c5F44C9063B9734b4"
      ],
      "transaction": {
        "from": "0xc77f7fed3b5cc8249adc428c5f44c9063b9734b4",
        "to": "0x8aafd3ede9adb0ff97c7aebce82a919afb1c8764",
        "gas": "0x156ea",
        "value": "0xde0b6b3a7640000",
        "input": "0xf088d547000000000000000000000000c77f7fed3b5cc8249adc428c5f44c9063b9734b4",
        "nonce": "0x15fa",
        "chainId": "0xaa36a7"
      },
      "additionalContracts": [],
      "isFixedGasLimit": false
    }
  ],
  "receipts": [
    {
      "status": "0x1",
      "cumulativeGasUsed": "0xed3412",
      "logs": [
        {
          "address": "0x8aafd3ede9adb0ff97c7aebce82a919afb1c8764",
          "topics": [
            "0xddf252ad1be2c89b69c2b068fc378daa952ba7f163c4a11628f55a4df523b3ef",
            "0x0000000000000000000000000000000000000000000000000000000000000000",
            "0x000000000000000000000000c77f7fed3b5cc8249adc428c5f44c9063b9734b4"
          ],
          "data": "0x000000000000000000000000000000000000000000000009930e44983f8a56fb",
          "blockHash": "0x48634665a2ff6a170e3dbafccc1bc785aea9f1110c4481b484c30187582044e9",
          "blockNumber": "0x731d8a",
          "transactionHash": "0x605150068b1bbd157afc3b11a32aba25005c899fae56035e0cb5753cdd180e7d",
          "transactionIndex": "0x65",
          "logIndex": "0xc7",
          "removed": false
        },
        {
          "address": "0x8aafd3ede9adb0ff97c7aebce82a919afb1c8764",
          "topics": [
            "0xddf252ad1be2c89b69c2b068fc378daa952ba7f163c4a11628f55a4df523b3ef",
            "0x0000000000000000000000000000000000000000000000000000000000000000",
            "0x000000000000000000000000c77f7fed3b5cc8249adc428c5f44c9063b9734b4"
          ],
          "data": "0x000000000000000000000000000000000000000000000000076f5410e4ae1d62",
          "blockHash": "0x48634665a2ff6a170e3dbafccc1bc785aea9f1110c4481b484c30187582044e9",
          "blockNumber": "0x731d8a",
          "transactionHash": "0x605150068b1bbd157afc3b11a32aba25005c899fae56035e0cb5753cdd180e7d",
          "transactionIndex": "0x65",
          "logIndex": "0xc8",
          "removed": false
        },
        {
          "address": "0x8aafd3ede9adb0ff97c7aebce82a919afb1c8764",
          "topics": [
            "0x4afcb4a87cdbd9974efdb92ee48bc8d7cd0ae4bf217004db3d080cbaee652ca7"
          ],
          "data": "0x0000000000000000000000000000000000000000000000000000000067905f600000000000000000000000000000000000000000000000000013f0bcf15594210000000000000000000000000000000000000000000000000de0b6b3a7640000",
          "blockHash": "0x48634665a2ff6a170e3dbafccc1bc785aea9f1110c4481b484c30187582044e9",
          "blockNumber": "0x731d8a",
          "transactionHash": "0x605150068b1bbd157afc3b11a32aba25005c899fae56035e0cb5753cdd180e7d",
          "transactionIndex": "0x65",
          "logIndex": "0xc9",
          "removed": false
        }
      ],
      "logsBloom": "0x00000000000000000000000000000000000000000600000000000000000000000000000000000000000000000000000000000000000000004000000000000000000000000000004000000008000000000000000000000000000000000000000000000000020000000000000000000800020000000000000000000010000000000000000000000000000000000000000000000000000000000000010000000000000000000000000000000000000000004000000000000000000000000000000000000002000000800000000000000000000000000000080000000000000020000000000000000000000000000000000000000000000000000000000000000000",
      "type": "0x2",
      "transactionHash": "0x605150068b1bbd157afc3b11a32aba25005c899fae56035e0cb5753cdd180e7d",
      "transactionIndex": "0x65",
      "blockHash": "0x48634665a2ff6a170e3dbafccc1bc785aea9f1110c4481b484c30187582044e9",
      "blockNumber": "0x731d8a",
      "gasUsed": "0xf844",
      "effectiveGasPrice": "0x675802b3",
      "from": "0xc77f7fed3b5cc8249adc428c5f44c9063b9734b4",
      "to": "0x8aafd3ede9adb0ff97c7aebce82a919afb1c8764",
      "contractAddress": null
    }
  ],
  "libraries": [],
  "pending": [],
  "returns": {},
  "timestamp": 1737514850,
  "chain": 11155111,
  "commit": "1d2fb70"
}