{
  "transactions": [
    {
      "hash": "0x594fe0f598abb5eef91c68e7d4053747da9b176c625434c23f4267caca4cce6c",
      "transactionType": "CALL",
      "contractName": null,
      "contractAddress": "0x5eb9cc76c3506942c1c0ead70e877dd5e4f00cb0",
      "function": "buy(address)",
      "arguments": [
        "0xC77f7fed3b5Cc8249aDc428c5F44C9063B9734b4"
      ],
      "transaction": {
        "from": "0xc77f7fed3b5cc8249adc428c5f44c9063b9734b4",
        "to": "0x5eb9cc76c3506942c1c0ead70e877dd5e4f00cb0",
        "gas": "0x156c8",
        "value": "0xde0b6b3a7640000",
        "input": "0xf088d547000000000000000000000000c77f7fed3b5cc8249adc428c5f44c9063b9734b4",
        "nonce": "0x17b",
        "chainId": "0xaa36a7"
      },
      "additionalContracts": [],
      "isFixedGasLimit": false
    }
  ],
  "receipts": [
    {
      "status": "0x1",
      "cumulativeGasUsed": "0xd3328d",
      "logs": [
        {
          "address": "0x5eb9cc76c3506942c1c0ead70e877dd5e4f00cb0",
          "topics": [
            "0xddf252ad1be2c89b69c2b068fc378daa952ba7f163c4a11628f55a4df523b3ef",
            "0x0000000000000000000000000000000000000000000000000000000000000000",
            "0x000000000000000000000000c77f7fed3b5cc8249adc428c5f44c9063b9734b4"
          ],
          "data": "0x000000000000000000000000000000000000000000000035a6d16dabb54eb292",
          "blockHash": "0xfe774734ea24fd2d1afd080aef3712a68c9f51950cc6fe0f686d23158f5ecdfb",
          "blockNumber": "0x723c38",
          "transactionHash": "0x594fe0f598abb5eef91c68e7d4053747da9b176c625434c23f4267caca4cce6c",
          "transactionIndex": "0x64",
          "logIndex": "0x110",
          "removed": false
        },
        {
          "address": "0x5eb9cc76c3506942c1c0ead70e877dd5e4f00cb0",
          "topics": [
            "0xddf252ad1be2c89b69c2b068fc378daa952ba7f163c4a11628f55a4df523b3ef",
            "0x0000000000000000000000000000000000000000000000000000000000000000",
            "0x000000000000000000000000c77f7fed3b5cc8249adc428c5f44c9063b9734b4"
          ],
          "data": "0x00000000000000000000000000000000000000000000000029a98e02e5a49f8b",
          "blockHash": "0xfe774734ea24fd2d1afd080aef3712a68c9f51950cc6fe0f686d23158f5ecdfb",
          "blockNumber": "0x723c38",
          "transactionHash": "0x594fe0f598abb5eef91c68e7d4053747da9b176c625434c23f4267caca4cce6c",
          "transactionIndex": "0x64",
          "logIndex": "0x111",
          "removed": false
        },
        {
          "address": "0x5eb9cc76c3506942c1c0ead70e877dd5e4f00cb0",
          "topics": [
            "0x4afcb4a87cdbd9974efdb92ee48bc8d7cd0ae4bf217004db3d080cbaee652ca7"
          ],
          "data": "0x000000000000000000000000000000000000000000000000000000006785c3f400000000000000000000000000000000000000000000000000038dc5bac2e9870000000000000000000000000000000000000000000000000de0b6b3a7640000",
          "blockHash": "0xfe774734ea24fd2d1afd080aef3712a68c9f51950cc6fe0f686d23158f5ecdfb",
          "blockNumber": "0x723c38",
          "transactionHash": "0x594fe0f598abb5eef91c68e7d4053747da9b176c625434c23f4267caca4cce6c",
          "transactionIndex": "0x64",
          "logIndex": "0x112",
          "removed": false
        }
      ],
      "logsBloom": "0x00000000000000000000000000000000000000000000000000000000000000000000000000000000000000000000000000000000000000004000000000000000000000000000000000000008000000000000000000000000000000000000000000000000020000000000000004000800020000000000000000000010000000000000000000000000000000000000000000000000000000000000010000000000000000000000000000000000000000004000000000000000000000000000020000000002000000800000008000000000000000000000080000000000000020000000000000000000000000000000000000000000000000000000000000000000",
      "type": "0x2",
      "transactionHash": "0x594fe0f598abb5eef91c68e7d4053747da9b176c625434c23f4267caca4cce6c",
      "transactionIndex": "0x64",
      "blockHash": "0xfe774734ea24fd2d1afd080aef3712a68c9f51950cc6fe0f686d23158f5ecdfb",
      "blockNumber": "0x723c38",
      "gasUsed": "0xf82c",
      "effectiveGasPrice": "0x1cc86e6a6",
      "from": "0xc77f7fed3b5cc8249adc428c5f44c9063b9734b4",
      "to": "0x5eb9cc76c3506942c1c0ead70e877dd5e4f00cb0",
      "contractAddress": null
    }
  ],
  "libraries": [],
  "pending": [],
  "returns": {},
  "timestamp": 1736819702,
  "chain": 11155111,
  "commit": "51a374b"
}