{
  "transactions": [
    {
      "hash": "0xbcb8fd770d6e49a99f46172c37d1b27eb487e346f1d80284358cd7b09d3587b5",
      "transactionType": "CALL",
      "contractName": null,
      "contractAddress": "0x8aafd3ede9adb0ff97c7aebce82a919afb1c8764",
      "function": "sell(uint256)",
      "arguments": [
        "15024922288126"
      ],
      "transaction": {
        "from": "0xc77f7fed3b5cc8249adc428c5f44c9063b9734b4",
        "to": "0x8aafd3ede9adb0ff97c7aebce82a919afb1c8764",
        "gas": "0x15daa",
        "value": "0x0",
        "input": "0xe4849b3200000000000000000000000000000000000000000000000000000daa4327dffe",
        "nonce": "0xe46",
        "chainId": "0xaa36a7"
      },
      "additionalContracts": [],
      "isFixedGasLimit": false
    }
  ],
  "receipts": [
    {
      "status": "0x1",
      "cumulativeGasUsed": "0xec6a37",
      "logs": [
        {
          "address": "0x8aafd3ede9adb0ff97c7aebce82a919afb1c8764",
          "topics": [
            "0xddf252ad1be2c89b69c2b068fc378daa952ba7f163c4a11628f55a4df523b3ef",
            "0x000000000000000000000000c77f7fed3b5cc8249adc428c5f44c9063b9734b4",
            "0x0000000000000000000000000000000000000000000000000000000000000000"
          ],
          "data": "0x00000000000000000000000000000000000000000000000000000d8e46b6ea7d",
          "blockHash": "0x98a6c2b6b1fc33c533e8e5240b1e6ca7e0b3558d7162aefb3b6c0a0ec47e7758",
          "blockNumber": "0x731385",
          "transactionHash": "0xbcb8fd770d6e49a99f46172c37d1b27eb487e346f1d80284358cd7b09d3587b5",
          "transactionIndex": "0xb1",
          "logIndex": "0xdd",
          "removed": false
        },
        {
          "address": "0x8aafd3ede9adb0ff97c7aebce82a919afb1c8764",
          "topics": [
            "0xddf252ad1be2c89b69c2b068fc378daa952ba7f163c4a11628f55a4df523b3ef",
            "0x000000000000000000000000c77f7fed3b5cc8249adc428c5f44c9063b9734b4",
            "0x000000000000000000000000c77f7fed3b5cc8249adc428c5f44c9063b9734b4"
          ],
          "data": "0x0000000000000000000000000000000000000000000000000000001bfc70f581",
          "blockHash": "0x98a6c2b6b1fc33c533e8e5240b1e6ca7e0b3558d7162aefb3b6c0a0ec47e7758",
          "blockNumber": "0x731385",
          "transactionHash": "0xbcb8fd770d6e49a99f46172c37d1b27eb487e346f1d80284358cd7b09d3587b5",
          "transactionIndex": "0xb1",
          "logIndex": "0xde",
          "removed": false
        },
        {
          "address": "0x8aafd3ede9adb0ff97c7aebce82a919afb1c8764",
          "topics": [
            "0x4afcb4a87cdbd9974efdb92ee48bc8d7cd0ae4bf217004db3d080cbaee652ca7"
          ],
          "data": "0x00000000000000000000000000000000000000000000000000000000678fe6d00000000000000000000000000000000000000000000000000004b3a05822a05700000000000000000000000000000000000000000000000000000004a12dc179",
          "blockHash": "0x98a6c2b6b1fc33c533e8e5240b1e6ca7e0b3558d7162aefb3b6c0a0ec47e7758",
          "blockNumber": "0x731385",
          "transactionHash": "0xbcb8fd770d6e49a99f46172c37d1b27eb487e346f1d80284358cd7b09d3587b5",
          "transactionIndex": "0xb1",
          "logIndex": "0xdf",
          "removed": false
        }
      ],
      "logsBloom": "0x00000000000000000000000000000000000000000600000000000000000000000000000000000000000000000000000000000000000000004000000000000000000000000000004000000008000000000000000000000000000000000000000000000000020000000000000000000800020000000000000000000010000000000000000000000000000000000000000000000000000000000000010000000000000000000000000000000000000000004000000000000000000000000000000000000002000000800000000000000000000000000000080000000000000020000000000000000000000000000000000000000000000000000000000000000000",
      "type": "0x2",
      "transactionHash": "0xbcb8fd770d6e49a99f46172c37d1b27eb487e346f1d80284358cd7b09d3587b5",
      "transactionIndex": "0xb1",
      "blockHash": "0x98a6c2b6b1fc33c533e8e5240b1e6ca7e0b3558d7162aefb3b6c0a0ec47e7758",
      "blockNumber": "0x731385",
      "gasUsed": "0xfd27",
      "effectiveGasPrice": "0x77cc91d7",
      "from": "0xc77f7fed3b5cc8249adc428c5f44c9063b9734b4",
      "to": "0x8aafd3ede9adb0ff97c7aebce82a919afb1c8764",
      "contractAddress": null
    }
  ],
  "libraries": [],
  "pending": [],
  "returns": {},
  "timestamp": 1737483985,
  "chain": 11155111,
  "commit": "51a374b"
}