{
  "transactions": [
    {
      "hash": "0xa369992c63bf2ec8d43758b6e23c3ba2f2a7a5615de157c71476879397e890bc",
      "transactionType": "CALL",
      "contractName": null,
      "contractAddress": "0x8aafd3ede9adb0ff97c7aebce82a919afb1c8764",
      "function": "sell(uint256)",
      "arguments": [
        "683561493069502142083"
      ],
      "transaction": {
        "from": "0xc77f7fed3b5cc8249adc428c5f44c9063b9734b4",
        "to": "0x8aafd3ede9adb0ff97c7aebce82a919afb1c8764",
        "gas": "0x17270",
        "value": "0x0",
        "input": "0xe4849b320000000000000000000000000000000000000000000000250e5244485f50d683",
        "nonce": "0x11d1",
        "chainId": "0xaa36a7"
      },
      "additionalContracts": [],
      "isFixedGasLimit": false
    }
  ],
  "receipts": [
    {
      "status": "0x1",
      "cumulativeGasUsed": "0xe4bfa4",
      "logs": [
        {
          "address": "0x8aafd3ede9adb0ff97c7aebce82a919afb1c8764",
          "topics": [
            "0xddf252ad1be2c89b69c2b068fc378daa952ba7f163c4a11628f55a4df523b3ef",
            "0x000000000000000000000000c77f7fed3b5cc8249adc428c5f44c9063b9734b4",
            "0x0000000000000000000000000000000000000000000000000000000000000000"
          ],
          "data": "0x000000000000000000000000000000000000000000000024c26e47d51af82093",
          "blockHash": "0xdb513576eaa801b21092a9f6fa5bf5fa5db085dc4c8b615a0f7f9a9ad4410afe",
          "blockNumber": "0x7318a5",
          "transactionHash": "0xa369992c63bf2ec8d43758b6e23c3ba2f2a7a5615de157c71476879397e890bc",
          "transactionIndex": "0x80",
          "logIndex": "0x8a",
          "removed": false
        },
        {
          "address": "0x8aafd3ede9adb0ff97c7aebce82a919afb1c8764",
          "topics": [
            "0xddf252ad1be2c89b69c2b068fc378daa952ba7f163c4a11628f55a4df523b3ef",
            "0x000000000000000000000000c77f7fed3b5cc8249adc428c5f44c9063b9734b4",
            "0x000000000000000000000000c77f7fed3b5cc8249adc428c5f44c9063b9734b4"
          ],
          "data": "0x0000000000000000000000000000000000000000000000004be3fc734458b5f0",
          "blockHash": "0xdb513576eaa801b21092a9f6fa5bf5fa5db085dc4c8b615a0f7f9a9ad4410afe",
          "blockNumber": "0x7318a5",
          "transactionHash": "0xa369992c63bf2ec8d43758b6e23c3ba2f2a7a5615de157c71476879397e890bc",
          "transactionIndex": "0x80",
          "logIndex": "0x8b",
          "removed": false
        },
        {
          "address": "0x8aafd3ede9adb0ff97c7aebce82a919afb1c8764",
          "topics": [
            "0x4afcb4a87cdbd9974efdb92ee48bc8d7cd0ae4bf217004db3d080cbaee652ca7"
          ],
          "data": "0x000000000000000000000000000000000000000000000000000000006790248c00000000000000000000000000000000000000000000000000052aa8960808d20000000000000000000000000000000000000000000000000dc8f3373bc87fc8",
          "blockHash": "0xdb513576eaa801b21092a9f6fa5bf5fa5db085dc4c8b615a0f7f9a9ad4410afe",
          "blockNumber": "0x7318a5",
          "transactionHash": "0xa369992c63bf2ec8d43758b6e23c3ba2f2a7a5615de157c71476879397e890bc",
          "transactionIndex": "0x80",
          "logIndex": "0x8c",
          "removed": false
        }
      ],
      "logsBloom": "0x00000000000000000000000000000000000000000600000000000000000000000000000000000000000000000000000000000000000000004000000000000000000000000000004000000008000000000000000000000000000000000000000000000000020000000000000000000800020000000000000000000010000000000000000000000000000000000000000000000000000000000000010000000000000000000000000000000000000000004000000000000000000000000000000000000002000000800000000000000000000000000000080000000000000020000000000000000000000000000000000000000000000000000000000000000000",
      "type": "0x2",
      "transactionHash": "0xa369992c63bf2ec8d43758b6e23c3ba2f2a7a5615de157c71476879397e890bc",
      "transactionIndex": "0x80",
      "blockHash": "0xdb513576eaa801b21092a9f6fa5bf5fa5db085dc4c8b615a0f7f9a9ad4410afe",
      "blockNumber": "0x7318a5",
      "gasUsed": "0xfd4b",
      "effectiveGasPrice": "0x3663e561",
      "from": "0xc77f7fed3b5cc8249adc428c5f44c9063b9734b4",
      "to": "0x8aafd3ede9adb0ff97c7aebce82a919afb1c8764",
      "contractAddress": null
    }
  ],
  "libraries": [],
  "pending": [],
  "returns": {},
  "timestamp": 1737499790,
  "chain": 11155111,
  "commit": "1d2fb70"
}