{
  "transactions": [
    {
      "hash": "0xe1e929e6001a1b56cbffa41a22022ebd86f69edbc5844824338b702096dfbd6b",
      "transactionType": "CALL",
      "contractName": null,
      "contractAddress": "0xd7bc75898e513accccf720a874d44dab5a4b6223",
      "function": "buy(address)",
      "arguments": [
        "0xC77f7fed3b5Cc8249aDc428c5F44C9063B9734b4"
      ],
      "transaction": {
        "from": "0xc77f7fed3b5cc8249adc428c5f44c9063b9734b4",
        "to": "0xd7bc75898e513accccf720a874d44dab5a4b6223",
        "gas": "0x1b30c",
        "value": "0x2386f26fc10000",
        "input": "0xf088d547000000000000000000000000c77f7fed3b5cc8249adc428c5f44c9063b9734b4",
        "nonce": "0xda",
        "chainId": "0xaa36a7"
      },
      "additionalContracts": [],
      "isFixedGasLimit": false
    }
  ],
  "receipts": [
    {
      "status": "0x1",
      "cumulativeGasUsed": "0x772c2b",
      "logs": [
        {
          "address": "0xd7bc75898e513accccf720a874d44dab5a4b6223",
          "topics": [
            "0xddf252ad1be2c89b69c2b068fc378daa952ba7f163c4a11628f55a4df523b3ef",
            "0x0000000000000000000000000000000000000000000000000000000000000000",
            "0x000000000000000000000000c77f7fed3b5cc8249adc428c5f44c9063b9734b4"
          ],
          "data": "0x0000000000000000000000000000000000000000000000008963bb0270fa12cb",
          "blockHash": "0x1e503b8cc44f609b7123b40386bf6b513d34097b6e5a3d05ab66bcae876725b5",
          "blockNumber": "0x72395a",
          "transactionHash": "0xe1e929e6001a1b56cbffa41a22022ebd86f69edbc5844824338b702096dfbd6b",
          "transactionIndex": "0x46",
          "logIndex": "0x67",
          "removed": false
        },
        {
          "address": "0xd7bc75898e513accccf720a874d44dab5a4b6223",
          "topics": [
            "0xddf252ad1be2c89b69c2b068fc378daa952ba7f163c4a11628f55a4df523b3ef",
            "0x0000000000000000000000000000000000000000000000000000000000000000",
            "0x000000000000000000000000c77f7fed3b5cc8249adc428c5f44c9063b9734b4"
          ],
          "data": "0x000000000000000000000000000000000000000000000000006ab00c66a0b584",
          "blockHash": "0x1e503b8cc44f609b7123b40386bf6b513d34097b6e5a3d05ab66bcae876725b5",
          "blockNumber": "0x72395a",
          "transactionHash": "0xe1e929e6001a1b56cbffa41a22022ebd86f69edbc5844824338b702096dfbd6b",
          "transactionIndex": "0x46",
          "logIndex": "0x68",
          "removed": false
        },
        {
          "address": "0xd7bc75898e513accccf720a874d44dab5a4b6223",
          "topics": [
            "0x4afcb4a87cdbd9974efdb92ee48bc8d7cd0ae4bf217004db3d080cbaee652ca7"
          ],
          "data": "0x000000000000000000000000000000000000000000000000000000006785a18000000000000000000000000000000000000000000000000000038d7f897afe02000000000000000000000000000000000000000000000000002386f26fc10000",
          "blockHash": "0x1e503b8cc44f609b7123b40386bf6b513d34097b6e5a3d05ab66bcae876725b5",
          "blockNumber": "0x72395a",
          "transactionHash": "0xe1e929e6001a1b56cbffa41a22022ebd86f69edbc5844824338b702096dfbd6b",
          "transactionIndex": "0x46",
          "logIndex": "0x69",
          "removed": false
        }
      ],
      "logsBloom": "0x00000000000000000000000000000000000000000000000000000000000000000000000000000000000000000000000000000000000000004000000000000000000000000000000000000008000000000000000000000000000000000000000000000000020000000000000000000800020000000000000000000010000000000000000000000000000000000000000000000000000000000000010000000000000000000000000000000000000000004000001000000000000000000000000000000002000000800000000000004000000000000000080000000000000020000000000000000000000000000000000000000000080000000000000000000000",
      "type": "0x2",
      "transactionHash": "0xe1e929e6001a1b56cbffa41a22022ebd86f69edbc5844824338b702096dfbd6b",
      "transactionIndex": "0x46",
      "blockHash": "0x1e503b8cc44f609b7123b40386bf6b513d34097b6e5a3d05ab66bcae876725b5",
      "blockNumber": "0x72395a",
      "gasUsed": "0x13af8",
      "effectiveGasPrice": "0x1c3c7fb3",
      "from": "0xc77f7fed3b5cc8249adc428c5f44c9063b9734b4",
      "to": "0xd7bc75898e513accccf720a874d44dab5a4b6223",
      "contractAddress": null
    }
  ],
  "libraries": [],
  "pending": [],
  "returns": {},
  "timestamp": 1736810881,
  "chain": 11155111,
  "commit": "51a374b"
}