{
  "transactions": [
    {
      "hash": "0xb87d5699b84177bfba3ded61c1ce7b10ea5c0e91023873f413af3aaf376832f0",
      "transactionType": "CALL",
      "contractName": null,
      "contractAddress": "0xbf4a322f1496e5c3d34a9bcdb4c60567b38c7de2",
      "function": "buy(address)",
      "arguments": [
        "0xC77f7fed3b5Cc8249aDc428c5F44C9063B9734b4"
      ],
      "transaction": {
        "from": "0xc77f7fed3b5cc8249adc428c5f44c9063b9734b4",
        "to": "0xbf4a322f1496e5c3d34a9bcdb4c60567b38c7de2",
        "gas": "0x1b309",
        "value": "0xde0b6b3a7640000",
        "input": "0xf088d547000000000000000000000000c77f7fed3b5cc8249adc428c5f44c9063b9734b4",
        "nonce": "0xd54",
        "chainId": "0xaa36a7"
      },
      "additionalContracts": [],
      "isFixedGasLimit": false
    }
  ],
  "receipts": [
    {
      "status": "0x1",
      "cumulativeGasUsed": "0x8f283a",
      "logs": [
        {
          "address": "0xbf4a322f1496e5c3d34a9bcdb4c60567b38c7de2",
          "topics": [
            "0xddf252ad1be2c89b69c2b068fc378daa952ba7f163c4a11628f55a4df523b3ef",
            "0x0000000000000000000000000000000000000000000000000000000000000000",
            "0x000000000000000000000000c77f7fed3b5cc8249adc428c5f44c9063b9734b4"
          ],
          "data": "0x000000000000000000000000000000000000000000000034bc758dd6e12528d9",
          "blockHash": "0x73ed9472ade408ba4c372575b86dbff214deb475bee0a5b7c0d5cb2562a4a46b",
          "blockNumber": "0x725dbb",
          "transactionHash": "0xb87d5699b84177bfba3ded61c1ce7b10ea5c0e91023873f413af3aaf376832f0",
          "transactionIndex": "0x5a",
          "logIndex": "0x82",
          "removed": false
        },
        {
          "address": "0xbf4a322f1496e5c3d34a9bcdb4c60567b38c7de2",
          "topics": [
            "0xddf252ad1be2c89b69c2b068fc378daa952ba7f163c4a11628f55a4df523b3ef",
            "0x0000000000000000000000000000000000000000000000000000000000000000",
            "0x000000000000000000000000c77f7fed3b5cc8249adc428c5f44c9063b9734b4"
          ],
          "data": "0x00000000000000000000000000000000000000000000000028f3912b1ed5f465",
          "blockHash": "0x73ed9472ade408ba4c372575b86dbff214deb475bee0a5b7c0d5cb2562a4a46b",
          "blockNumber": "0x725dbb",
          "transactionHash": "0xb87d5699b84177bfba3ded61c1ce7b10ea5c0e91023873f413af3aaf376832f0",
          "transactionIndex": "0x5a",
          "logIndex": "0x83",
          "removed": false
        },
        {
          "address": "0xbf4a322f1496e5c3d34a9bcdb4c60567b38c7de2",
          "topics": [
            "0x4afcb4a87cdbd9974efdb92ee48bc8d7cd0ae4bf217004db3d080cbaee652ca7"
          ],
          "data": "0x000000000000000000000000000000000000000000000000000000006787573800000000000000000000000000000000000000000000000000039d930c6368330000000000000000000000000000000000000000000000000de0b6b3a7640000",
          "blockHash": "0x73ed9472ade408ba4c372575b86dbff214deb475bee0a5b7c0d5cb2562a4a46b",
          "blockNumber": "0x725dbb",
          "transactionHash": "0xb87d5699b84177bfba3ded61c1ce7b10ea5c0e91023873f413af3aaf376832f0",
          "transactionIndex": "0x5a",
          "logIndex": "0x84",
          "removed": false
        }
      ],
      "logsBloom": "0x00000000000000000000000000000000000000000000000000000000000000000000000000000000000000000000000000000000000000004000000000000000000000000000000000000008000000000000001000000000000000000000000000000000020000000000000000000800020000000000000000000010000000000000000000000000000000000000000000000000000008000000010000000000000000000000000000000000000000004000000000000000000000000000000000000002000000800000000000001000000000000000080000000000000020000000000000000000000000000000000000000000000000000000000000000000",
      "type": "0x2",
      "transactionHash": "0xb87d5699b84177bfba3ded61c1ce7b10ea5c0e91023873f413af3aaf376832f0",
      "transactionIndex": "0x5a",
      "blockHash": "0x73ed9472ade408ba4c372575b86dbff214deb475bee0a5b7c0d5cb2562a4a46b",
      "blockNumber": "0x725dbb",
      "gasUsed": "0x13af6",
      "effectiveGasPrice": "0x3ddf87270",
      "from": "0xc77f7fed3b5cc8249adc428c5f44c9063b9734b4",
      "to": "0xbf4a322f1496e5c3d34a9bcdb4c60567b38c7de2",
      "contractAddress": null
    }
  ],
  "libraries": [],
  "pending": [],
  "returns": {},
  "timestamp": 1736922936,
  "chain": 11155111,
  "commit": "51a374b"
}