{
  "transactions": [
    {
      "hash": "0xb5209491ab11f8974bc8f9767a0fdb8fa8d20ade52e46133dbbd7e4d0228bdfd",
      "transactionType": "CALL",
      "contractName": null,
      "contractAddress": "0xbf4a322f1496e5c3d34a9bcdb4c60567b38c7de2",
      "function": "buy(address)",
      "arguments": [
        "0xC77f7fed3b5Cc8249aDc428c5F44C9063B9734b4"
      ],
      "transaction": {
        "from": "0xc77f7fed3b5cc8249adc428c5f44c9063b9734b4",
        "to": "0xbf4a322f1496e5c3d34a9bcdb4c60567b38c7de2",
        "gas": "0x1b309",
        "value": "0xde0b6b3a7640000",
        "input": "0xf088d547000000000000000000000000c77f7fed3b5cc8249adc428c5f44c9063b9734b4",
        "nonce": "0xbb8",
        "chainId": "0xaa36a7"
      },
      "additionalContracts": [],
      "isFixedGasLimit": false
    }
  ],
  "receipts": [
    {
      "status": "0x1",
      "cumulativeGasUsed": "0x5d156f",
      "logs": [
        {
          "address": "0xbf4a322f1496e5c3d34a9bcdb4c60567b38c7de2",
          "topics": [
            "0xddf252ad1be2c89b69c2b068fc378daa952ba7f163c4a11628f55a4df523b3ef",
            "0x0000000000000000000000000000000000000000000000000000000000000000",
            "0x000000000000000000000000c77f7fed3b5cc8249adc428c5f44c9063b9734b4"
          ],
          "data": "0x00000000000000000000000000000000000000000000003508c37e99a50c992e",
          "blockHash": "0xb8989674578a89ee5f1d220eb38d1ab9960d9a17c25dc2a3df0abbd369ab7750",
          "blockNumber": "0x725bd2",
          "transactionHash": "0xb5209491ab11f8974bc8f9767a0fdb8fa8d20ade52e46133dbbd7e4d0228bdfd",
          "transactionIndex": "0x38",
          "logIndex": "0x41",
          "removed": false
        },
        {
          "address": "0xbf4a322f1496e5c3d34a9bcdb4c60567b38c7de2",
          "topics": [
            "0xddf252ad1be2c89b69c2b068fc378daa952ba7f163c4a11628f55a4df523b3ef",
            "0x0000000000000000000000000000000000000000000000000000000000000000",
            "0x000000000000000000000000c77f7fed3b5cc8249adc428c5f44c9063b9734b4"
          ],
          "data": "0x000000000000000000000000000000000000000000000000292ed1f0841b8eff",
          "blockHash": "0xb8989674578a89ee5f1d220eb38d1ab9960d9a17c25dc2a3df0abbd369ab7750",
          "blockNumber": "0x725bd2",
          "transactionHash": "0xb5209491ab11f8974bc8f9767a0fdb8fa8d20ade52e46133dbbd7e4d0228bdfd",
          "transactionIndex": "0x38",
          "logIndex": "0x42",
          "removed": false
        },
        {
          "address": "0xbf4a322f1496e5c3d34a9bcdb4c60567b38c7de2",
          "topics": [
            "0x4afcb4a87cdbd9974efdb92ee48bc8d7cd0ae4bf217004db3d080cbaee652ca7"
          ],
          "data": "0x00000000000000000000000000000000000000000000000000000000678740340000000000000000000000000000000000000000000000000003985f5dadebdf0000000000000000000000000000000000000000000000000de0b6b3a7640000",
          "blockHash": "0xb8989674578a89ee5f1d220eb38d1ab9960d9a17c25dc2a3df0abbd369ab7750",
          "blockNumber": "0x725bd2",
          "transactionHash": "0xb5209491ab11f8974bc8f9767a0fdb8fa8d20ade52e46133dbbd7e4d0228bdfd",
          "transactionIndex": "0x38",
          "logIndex": "0x43",
          "removed": false
        }
      ],
      "logsBloom": "0x00000000000000000000000000000000000000000000000000000000000000000000000000000000000000000000000000000000000000004000000000000000000000000000000000000008000000000000001000000000000000000000000000000000020000000000000000000800020000000000000000000010000000000000000000000000000000000000000000000000000008000000010000000000000000000000000000000000000000004000000000000000000000000000000000000002000000800000000000001000000000000000080000000000000020000000000000000000000000000000000000000000000000000000000000000000",
      "type": "0x2",
      "transactionHash": "0xb5209491ab11f8974bc8f9767a0fdb8fa8d20ade52e46133dbbd7e4d0228bdfd",
      "transactionIndex": "0x38",
      "blockHash": "0xb8989674578a89ee5f1d220eb38d1ab9960d9a17c25dc2a3df0abbd369ab7750",
      "blockNumber": "0x725bd2",
      "gasUsed": "0x13af6",
      "effectiveGasPrice": "0x64292d68",
      "from": "0xc77f7fed3b5cc8249adc428c5f44c9063b9734b4",
      "to": "0xbf4a322f1496e5c3d34a9bcdb4c60567b38c7de2",
      "contractAddress": null
    }
  ],
  "libraries": [],
  "pending": [],
  "returns": {},
  "timestamp": 1736917045,
  "chain": 11155111,
  "commit": "51a374b"
}