{
  "transactions": [
    {
      "hash": "0x31881630f2866bebb0cb318d2d6e450a175c47553b8e9f0996975559edd76565",
      "transactionType": "CALL",
      "contractName": null,
      "contractAddress": "0x8aafd3ede9adb0ff97c7aebce82a919afb1c8764",
      "function": "sell(uint256)",
      "arguments": [
        "78617888"
      ],
      "transaction": {
        "from": "0xc77f7fed3b5cc8249adc428c5f44c9063b9734b4",
        "to": "0x8aafd3ede9adb0ff97c7aebce82a919afb1c8764",
        "gas": "0x15d88",
        "value": "0x0",
        "input": "0xe4849b320000000000000000000000000000000000000000000000000000000004af9d20",
        "nonce": "0x133a",
        "chainId": "0xaa36a7"
      },
      "additionalContracts": [],
      "isFixedGasLimit": false
    }
  ],
  "receipts": [
    {
      "status": "0x1",
      "cumulativeGasUsed": "0x5c4281",
      "logs": [
        {
          "address": "0x8aafd3ede9adb0ff97c7aebce82a919afb1c8764",
          "topics": [
            "0xddf252ad1be2c89b69c2b068fc378daa952ba7f163c4a11628f55a4df523b3ef",
            "0x000000000000000000000000c77f7fed3b5cc8249adc428c5f44c9063b9734b4",
            "0x0000000000000000000000000000000000000000000000000000000000000000"
          ],
          "data": "0x0000000000000000000000000000000000000000000000000000000004a60451",
          "blockHash": "0xff55f60899481007372870d70cb8f0132a0d0fdfabb7025efe27b4dd13876ae0",
          "blockNumber": "0x731a51",
          "transactionHash": "0x31881630f2866bebb0cb318d2d6e450a175c47553b8e9f0996975559edd76565",
          "transactionIndex": "0x65",
          "logIndex": "0x49",
          "removed": false
        },
        {
          "address": "0x8aafd3ede9adb0ff97c7aebce82a919afb1c8764",
          "topics": [
            "0xddf252ad1be2c89b69c2b068fc378daa952ba7f163c4a11628f55a4df523b3ef",
            "0x000000000000000000000000c77f7fed3b5cc8249adc428c5f44c9063b9734b4",
            "0x000000000000000000000000c77f7fed3b5cc8249adc428c5f44c9063b9734b4"
          ],
          "data": "0x00000000000000000000000000000000000000000000000000000000000998cf",
          "blockHash": "0xff55f60899481007372870d70cb8f0132a0d0fdfabb7025efe27b4dd13876ae0",
          "blockNumber": "0x731a51",
          "transactionHash": "0x31881630f2866bebb0cb318d2d6e450a175c47553b8e9f0996975559edd76565",
          "transactionIndex": "0x65",
          "logIndex": "0x4a",
          "removed": false
        },
        {
          "address": "0x8aafd3ede9adb0ff97c7aebce82a919afb1c8764",
          "topics": [
            "0x4afcb4a87cdbd9974efdb92ee48bc8d7cd0ae4bf217004db3d080cbaee652ca7"
          ],
          "data": "0x000000000000000000000000000000000000000000000000000000006790389c000000000000000000000000000000000000000000000000000bdd61fa15bc4b000000000000000000000000000000000000000000000000000000000004019b",
          "blockHash": "0xff55f60899481007372870d70cb8f0132a0d0fdfabb7025efe27b4dd13876ae0",
          "blockNumber": "0x731a51",
          "transactionHash": "0x31881630f2866bebb0cb318d2d6e450a175c47553b8e9f0996975559edd76565",
          "transactionIndex": "0x65",
          "logIndex": "0x4b",
          "removed": false
        }
      ],
      "logsBloom": "0x00000000000000000000000000000000000000000600000000000000000000000000000000000000000000000000000000000000000000004000000000000000000000000000004000000008000000000000000000000000000000000000000000000000020000000000000000000800020000000000000000000010000000000000000000000000000000000000000000000000000000000000010000000000000000000000000000000000000000004000000000000000000000000000000000000002000000800000000000000000000000000000080000000000000020000000000000000000000000000000000000000000000000000000000000000000",
      "type": "0x2",
      "transactionHash": "0x31881630f2866bebb0cb318d2d6e450a175c47553b8e9f0996975559edd76565",
      "transactionIndex": "0x65",
      "blockHash": "0xff55f60899481007372870d70cb8f0132a0d0fdfabb7025efe27b4dd13876ae0",
      "blockNumber": "0x731a51",
      "gasUsed": "0xfd0f",
      "effectiveGasPrice": "0x3c3e26d1",
      "from": "0xc77f7fed3b5cc8249adc428c5f44c9063b9734b4",
      "to": "0x8aafd3ede9adb0ff97c7aebce82a919afb1c8764",
      "contractAddress": null
    }
  ],
  "libraries": [],
  "pending": [],
  "returns": {},
  "timestamp": 1737504925,
  "chain": 11155111,
  "commit": "1d2fb70"
}