{
  "transactions": [
    {
      "hash": "0x9dc1e631fd7917a0f716e275f5fc9830ccd0f3a20bc1f8fdf7ffe46cc8505024",
      "transactionType": "CALL",
      "contractName": null,
      "contractAddress": "0x229177d919e66b3300c159770ff2db68cec9bdb8",
      "function": "borrow(uint256,uint256)",
      "arguments": [
        "9999999999999990",
        "0"
      ],
      "transaction": {
        "from": "0xc77f7fed3b5cc8249adc428c5f44c9063b9734b4",
        "to": "0x229177d919e66b3300c159770ff2db68cec9bdb8",
        "gas": "0x5dbfc",
        "value": "0x0",
        "input": "0x0ecbcdab000000000000000000000000000000000000000000000000002386f26fc0fff60000000000000000000000000000000000000000000000000000000000000000",
        "nonce": "0x1933",
        "chainId": "0xaa36a7"
      },
      "additionalContracts": [],
      "isFixedGasLimit": false
    }
  ],
  "receipts": [
    {
      "status": "0x1",
      "cumulativeGasUsed": "0x14c939a",
      "logs": [
        {
          "address": "0x229177d919e66b3300c159770ff2db68cec9bdb8",
          "topics": [
            "0xddf252ad1be2c89b69c2b068fc378daa952ba7f163c4a11628f55a4df523b3ef",
            "0x000000000000000000000000c77f7fed3b5cc8249adc428c5f44c9063b9734b4",
            "0x000000000000000000000000229177d919e66b3300c159770ff2db68cec9bdb8"
          ],
          "data": "0x0000000000000000000000000000000000000000000000008ac7230489e7ffff",
          "blockHash": "0xa74904348cbd94f14cb7f30418f3a13a8355bc1eefa7a8c07853f92ca8e763ea",
          "blockNumber": "0x739bd0",
          "transactionHash": "0x9dc1e631fd7917a0f716e275f5fc9830ccd0f3a20bc1f8fdf7ffe46cc8505024",
          "transactionIndex": "0x8c",
          "logIndex": "0x180",
          "removed": false
        },
        {
          "address": "0x229177d919e66b3300c159770ff2db68cec9bdb8",
          "topics": [
            "0x03bbe564cb1b78e43195eeadbde99e5b89b19345862807fcfb59f884e4165e25"
          ],
          "data": "0x00000000000000000000000038818e389773445cd73adbaa37b8b169f458c6e1000000000000000000000000000000000000000000000000000002ba7def2fff",
          "blockHash": "0xa74904348cbd94f14cb7f30418f3a13a8355bc1eefa7a8c07853f92ca8e763ea",
          "blockNumber": "0x739bd0",
          "transactionHash": "0x9dc1e631fd7917a0f716e275f5fc9830ccd0f3a20bc1f8fdf7ffe46cc8505024",
          "transactionIndex": "0x8c",
          "logIndex": "0x181",
          "removed": false
        },
        {
          "address": "0x229177d919e66b3300c159770ff2db68cec9bdb8",
          "topics": [
            "0x03bbe564cb1b78e43195eeadbde99e5b89b19345862807fcfb59f884e4165e25"
          ],
          "data": "0x000000000000000000000000c77f7fed3b5cc8249adc428c5f44c9063b9734b4000000000000000000000000000000000000000000000000002322e710d41ff7",
          "blockHash": "0xa74904348cbd94f14cb7f30418f3a13a8355bc1eefa7a8c07853f92ca8e763ea",
          "blockNumber": "0x739bd0",
          "transactionHash": "0x9dc1e631fd7917a0f716e275f5fc9830ccd0f3a20bc1f8fdf7ffe46cc8505024",
          "transactionIndex": "0x8c",
          "logIndex": "0x182",
          "removed": false
        },
        {
          "address": "0x229177d919e66b3300c159770ff2db68cec9bdb8",
          "topics": [
            "0xaec00f5213a37254bc68a26b0685d1a5b2bf513e1e587c94c7df7f4a62b56c9c"
          ],
          "data": "0x0000000000000000000000000000000000000000000000008ac7230489e7ffff00000000000000000000000000000000000000000000000000232bff5f46bff600000000000000000000000000000000000000000000000000232bff5f46bff60000000000000000000000000000000000000000000000008ac7230489e7ffff",
          "blockHash": "0xa74904348cbd94f14cb7f30418f3a13a8355bc1eefa7a8c07853f92ca8e763ea",
          "blockNumber": "0x739bd0",
          "transactionHash": "0x9dc1e631fd7917a0f716e275f5fc9830ccd0f3a20bc1f8fdf7ffe46cc8505024",
          "transactionIndex": "0x8c",
          "logIndex": "0x183",
          "removed": false
        },
        {
          "address": "0x229177d919e66b3300c159770ff2db68cec9bdb8",
          "topics": [
            "0x4afcb4a87cdbd9974efdb92ee48bc8d7cd0ae4bf217004db3d080cbaee652ca7"
          ],
          "data": "0x00000000000000000000000000000000000000000000000000000000679683f000000000000000000000000000000000000000000000000000038e21a006d7fe000000000000000000000000000000000000000000000000000009184e729fff",
          "blockHash": "0xa74904348cbd94f14cb7f30418f3a13a8355bc1eefa7a8c07853f92ca8e763ea",
          "blockNumber": "0x739bd0",
          "transactionHash": "0x9dc1e631fd7917a0f716e275f5fc9830ccd0f3a20bc1f8fdf7ffe46cc8505024",
          "transactionIndex": "0x8c",
          "logIndex": "0x184",
          "removed": false
        }
      ],
      "logsBloom": "0x00000000000000000000000000008100400000000000000000000000000000000008000000000000000000000000000000002000000000004000000000000000000000000000000000000008000000000000000000000000000000000000000000000000000000000000000000000000020000000000000000000010800000000000002000000000000000000000000000000000000000000000010000000000000002000000000000000410000000004000000000000000000000001000000000000002000000800000000000000000000008000000080000000000000000000000000000000000000000000000000000000000000000000000000000000000",
      "type": "0x2",
      "transactionHash": "0x9dc1e631fd7917a0f716e275f5fc9830ccd0f3a20bc1f8fdf7ffe46cc8505024",
      "transactionIndex": "0x8c",
      "blockHash": "0xa74904348cbd94f14cb7f30418f3a13a8355bc1eefa7a8c07853f92ca8e763ea",
      "blockNumber": "0x739bd0",
      "gasUsed": "0x401a2",
      "effectiveGasPrice": "0x1c72150bb",
      "from": "0xc77f7fed3b5cc8249adc428c5f44c9063b9734b4",
      "to": "0x229177d919e66b3300c159770ff2db68cec9bdb8",
      "contractAddress": null
    }
  ],
  "libraries": [],
  "pending": [],
  "returns": {},
  "timestamp": 1737917426,
  "chain": 11155111,
  "commit": "f5162e9"
}