{
  "transactions": [
    {
      "hash": "0x5591124923a519ab5bcd9e86d51c4773e060398761bb9679fbcf5eed2b11c7af",
      "transactionType": "CALL",
      "contractName": null,
      "contractAddress": "0xbf4a322f1496e5c3d34a9bcdb4c60567b38c7de2",
      "function": "sell(uint256)",
      "arguments": [
        "989037351148476160198"
      ],
      "transaction": {
        "from": "0xc77f7fed3b5cc8249adc428c5f44c9063b9734b4",
        "to": "0xbf4a322f1496e5c3d34a9bcdb4c60567b38c7de2",
        "gas": "0x16fea",
        "value": "0x0",
        "input": "0xe4849b320000000000000000000000000000000000000000000000359da686b99e33d8c6",
        "nonce": "0x97d",
        "chainId": "0xaa36a7"
      },
      "additionalContracts": [],
      "isFixedGasLimit": false
    }
  ],
  "receipts": [
    {
      "status": "0x1",
      "cumulativeGasUsed": "0xc8d56f",
      "logs": [
        {
          "address": "0xbf4a322f1496e5c3d34a9bcdb4c60567b38c7de2",
          "topics": [
            "0xddf252ad1be2c89b69c2b068fc378daa952ba7f163c4a11628f55a4df523b3ef",
            "0x000000000000000000000000c77f7fed3b5cc8249adc428c5f44c9063b9734b4",
            "0x0000000000000000000000000000000000000000000000000000000000000000"
          ],
          "data": "0x0000000000000000000000000000000000000000000000359da686b99e33d8c6",
          "blockHash": "0xeed34bd5ad853475c5c8e3f5a80f4eac15fd1202a812b1658c2b698417a19e6b",
          "blockNumber": "0x72591a",
          "transactionHash": "0x5591124923a519ab5bcd9e86d51c4773e060398761bb9679fbcf5eed2b11c7af",
          "transactionIndex": "0x57",
          "logIndex": "0x70",
          "removed": false
        },
        {
          "address": "0xbf4a322f1496e5c3d34a9bcdb4c60567b38c7de2",
          "topics": [
            "0x4afcb4a87cdbd9974efdb92ee48bc8d7cd0ae4bf217004db3d080cbaee652ca7"
          ],
          "data": "0x0000000000000000000000000000000000000000000000000000000067871f640000000000000000000000000000000000000000000000000003912aaaeb8b4f0000000000000000000000000000000000000000000000000dc7e3f714036a33",
          "blockHash": "0xeed34bd5ad853475c5c8e3f5a80f4eac15fd1202a812b1658c2b698417a19e6b",
          "blockNumber": "0x72591a",
          "transactionHash": "0x5591124923a519ab5bcd9e86d51c4773e060398761bb9679fbcf5eed2b11c7af",
          "transactionIndex": "0x57",
          "logIndex": "0x71",
          "removed": false
        }
      ],
      "logsBloom": "0x00000000000000000000000000000000000000000000000000000000000000000000000000000000000000000000000000000000000000004000000000000000000000000000000000000008000000000000001000000000000000000000000000000000020000000000000000000800020000000000000000000010000000000000000000000000000000000000000000000000000008000000010000000000000000000000000000000000000000004000000000000000000000000000000000000002000000800000000000001000000000000000080000000000000020000000000000000000000000000000000000000000000000000000000000000000",
      "type": "0x2",
      "transactionHash": "0x5591124923a519ab5bcd9e86d51c4773e060398761bb9679fbcf5eed2b11c7af",
      "transactionIndex": "0x57",
      "blockHash": "0xeed34bd5ad853475c5c8e3f5a80f4eac15fd1202a812b1658c2b698417a19e6b",
      "blockNumber": "0x72591a",
      "gasUsed": "0xfb91",
      "effectiveGasPrice": "0xb240d220",
      "from": "0xc77f7fed3b5cc8249adc428c5f44c9063b9734b4",
      "to": "0xbf4a322f1496e5c3d34a9bcdb4c60567b38c7de2",
      "contractAddress": null
    }
  ],
  "libraries": [],
  "pending": [],
  "returns": {},
  "timestamp": 1736908646,
  "chain": 11155111,
  "commit": "51a374b"
}