{
  "transactions": [
    {
      "hash": "0xccef2748f46aaa9a996890745c3184514702cddf2f8725139538dd127c5c6389",
      "transactionType": "CALL",
      "contractName": null,
      "contractAddress": "0xbf4a322f1496e5c3d34a9bcdb4c60567b38c7de2",
      "function": "buy(address)",
      "arguments": [
        "0xC77f7fed3b5Cc8249aDc428c5F44C9063B9734b4"
      ],
      "transaction": {
        "from": "0xc77f7fed3b5cc8249adc428c5f44c9063b9734b4",
        "to": "0xbf4a322f1496e5c3d34a9bcdb4c60567b38c7de2",
        "gas": "0x1b309",
        "value": "0xde0b6b3a7640000",
        "input": "0xf088d547000000000000000000000000c77f7fed3b5cc8249adc428c5f44c9063b9734b4",
        "nonce": "0xb90",
        "chainId": "0xaa36a7"
      },
      "additionalContracts": [],
      "isFixedGasLimit": false
    }
  ],
  "receipts": [
    {
      "status": "0x1",
      "cumulativeGasUsed": "0xa0bbee",
      "logs": [
        {
          "address": "0xbf4a322f1496e5c3d34a9bcdb4c60567b38c7de2",
          "topics": [
            "0xddf252ad1be2c89b69c2b068fc378daa952ba7f163c4a11628f55a4df523b3ef",
            "0x0000000000000000000000000000000000000000000000000000000000000000",
            "0x000000000000000000000000c77f7fed3b5cc8249adc428c5f44c9063b9734b4"
          ],
          "data": "0x0000000000000000000000000000000000000000000000351037c1bd29f6942c",
          "blockHash": "0x0ef4c7aff71a15194496f54962f9784986ed38e0df8387d780c1e7bd4c27565a",
          "blockNumber": "0x725ba1",
          "transactionHash": "0xccef2748f46aaa9a996890745c3184514702cddf2f8725139538dd127c5c6389",
          "transactionIndex": "0x6e",
          "logIndex": "0x7c",
          "removed": false
        },
        {
          "address": "0xbf4a322f1496e5c3d34a9bcdb4c60567b38c7de2",
          "topics": [
            "0xddf252ad1be2c89b69c2b068fc378daa952ba7f163c4a11628f55a4df523b3ef",
            "0x0000000000000000000000000000000000000000000000000000000000000000",
            "0x000000000000000000000000c77f7fed3b5cc8249adc428c5f44c9063b9734b4"
          ],
          "data": "0x00000000000000000000000000000000000000000000000029349bc52f395d74",
          "blockHash": "0x0ef4c7aff71a15194496f54962f9784986ed38e0df8387d780c1e7bd4c27565a",
          "blockNumber": "0x725ba1",
          "transactionHash": "0xccef2748f46aaa9a996890745c3184514702cddf2f8725139538dd127c5c6389",
          "transactionIndex": "0x6e",
          "logIndex": "0x7d",
          "removed": false
        },
        {
          "address": "0xbf4a322f1496e5c3d34a9bcdb4c60567b38c7de2",
          "topics": [
            "0x4afcb4a87cdbd9974efdb92ee48bc8d7cd0ae4bf217004db3d080cbaee652ca7"
          ],
          "data": "0x0000000000000000000000000000000000000000000000000000000067873de8000000000000000000000000000000000000000000000000000397de139a72780000000000000000000000000000000000000000000000000de0b6b3a7640000",
          "blockHash": "0x0ef4c7aff71a15194496f54962f9784986ed38e0df8387d780c1e7bd4c27565a",
          "blockNumber": "0x725ba1",
          "transactionHash": "0xccef2748f46aaa9a996890745c3184514702cddf2f8725139538dd127c5c6389",
          "transactionIndex": "0x6e",
          "logIndex": "0x7e",
          "removed": false
        }
      ],
      "logsBloom": "0x00000000000000000000000000000000000000000000000000000000000000000000000000000000000000000000000000000000000000004000000000000000000000000000000000000008000000000000001000000000000000000000000000000000020000000000000000000800020000000000000000000010000000000000000000000000000000000000000000000000000008000000010000000000000000000000000000000000000000004000000000000000000000000000000000000002000000800000000000001000000000000000080000000000000020000000000000000000000000000000000000000000000000000000000000000000",
      "type": "0x2",
      "transactionHash": "0xccef2748f46aaa9a996890745c3184514702cddf2f8725139538dd127c5c6389",
      "transactionIndex": "0x6e",
      "blockHash": "0x0ef4c7aff71a15194496f54962f9784986ed38e0df8387d780c1e7bd4c27565a",
      "blockNumber": "0x725ba1",
      "gasUsed": "0x13af6",
      "effectiveGasPrice": "0x4f0f8a80",
      "from": "0xc77f7fed3b5cc8249adc428c5f44c9063b9734b4",
      "to": "0xbf4a322f1496e5c3d34a9bcdb4c60567b38c7de2",
      "contractAddress": null
    }
  ],
  "libraries": [],
  "pending": [],
  "returns": {},
  "timestamp": 1736916457,
  "chain": 11155111,
  "commit": "51a374b"
}