{
  "transactions": [
    {
      "hash": "0xa1df3f95a9d541fe99122edb59a6ba4f97d7f1f248188e55e06ac8110793da5b",
      "transactionType": "CALL",
      "contractName": null,
      "contractAddress": "0x8aafd3ede9adb0ff97c7aebce82a919afb1c8764",
      "function": "sell(uint256)",
      "arguments": [
        "141357125334010911261"
      ],
      "transaction": {
        "from": "0xc77f7fed3b5cc8249adc428c5f44c9063b9734b4",
        "to": "0x8aafd3ede9adb0ff97c7aebce82a919afb1c8764",
        "gas": "0x17270",
        "value": "0x0",
        "input": "0xe4849b32000000000000000000000000000000000000000000000007a9b9648c94175a1d",
        "nonce": "0x17ab",
        "chainId": "0xaa36a7"
      },
      "additionalContracts": [],
      "isFixedGasLimit": false
    }
  ],
  "receipts": [
    {
      "status": "0x1",
      "cumulativeGasUsed": "0x221245d",
      "logs": [
        {
          "address": "0x8aafd3ede9adb0ff97c7aebce82a919afb1c8764",
          "topics": [
            "0xddf252ad1be2c89b69c2b068fc378daa952ba7f163c4a11628f55a4df523b3ef",
            "0x000000000000000000000000c77f7fed3b5cc8249adc428c5f44c9063b9734b4",
            "0x0000000000000000000000000000000000000000000000000000000000000000"
          ],
          "data": "0x0000000000000000000000000000000000000000000000079a07c818c40ef923",
          "blockHash": "0xa852c0a3e9732bbb09f07463ee109a366d8aa5854d013bc9e2262acbc8baad48",
          "blockNumber": "0x731f8c",
          "transactionHash": "0xa1df3f95a9d541fe99122edb59a6ba4f97d7f1f248188e55e06ac8110793da5b",
          "transactionIndex": "0x63",
          "logIndex": "0x1109",
          "removed": false
        },
        {
          "address": "0x8aafd3ede9adb0ff97c7aebce82a919afb1c8764",
          "topics": [
            "0xddf252ad1be2c89b69c2b068fc378daa952ba7f163c4a11628f55a4df523b3ef",
            "0x000000000000000000000000c77f7fed3b5cc8249adc428c5f44c9063b9734b4",
            "0x000000000000000000000000c77f7fed3b5cc8249adc428c5f44c9063b9734b4"
          ],
          "data": "0x0000000000000000000000000000000000000000000000000fb19c73d00860fa",
          "blockHash": "0xa852c0a3e9732bbb09f07463ee109a366d8aa5854d013bc9e2262acbc8baad48",
          "blockNumber": "0x731f8c",
          "transactionHash": "0xa1df3f95a9d541fe99122edb59a6ba4f97d7f1f248188e55e06ac8110793da5b",
          "transactionIndex": "0x63",
          "logIndex": "0x110a",
          "removed": false
        },
        {
          "address": "0x8aafd3ede9adb0ff97c7aebce82a919afb1c8764",
          "topics": [
            "0x4afcb4a87cdbd9974efdb92ee48bc8d7cd0ae4bf217004db3d080cbaee652ca7"
          ],
          "data": "0x000000000000000000000000000000000000000000000000000000006790777800000000000000000000000000000000000000000000000000190fdd1d49851d0000000000000000000000000000000000000000000000000dcbb4512fd24fe9",
          "blockHash": "0xa852c0a3e9732bbb09f07463ee109a366d8aa5854d013bc9e2262acbc8baad48",
          "blockNumber": "0x731f8c",
          "transactionHash": "0xa1df3f95a9d541fe99122edb59a6ba4f97d7f1f248188e55e06ac8110793da5b",
          "transactionIndex": "0x63",
          "logIndex": "0x110b",
          "removed": false
        }
      ],
      "logsBloom": "0x00000000000000000000000000000000000000000600000000000000000000000000000000000000000000000000000000000000000000004000000000000000000000000000004000000008000000000000000000000000000000000000000000000000020000000000000000000800020000000000000000000010000000000000000000000000000000000000000000000000000000000000010000000000000000000000000000000000000000004000000000000000000000000000000000000002000000800000000000000000000000000000080000000000000020000000000000000000000000000000000000000000000000000000000000000000",
      "type": "0x2",
      "transactionHash": "0xa1df3f95a9d541fe99122edb59a6ba4f97d7f1f248188e55e06ac8110793da5b",
      "transactionIndex": "0x63",
      "blockHash": "0xa852c0a3e9732bbb09f07463ee109a366d8aa5854d013bc9e2262acbc8baad48",
      "blockNumber": "0x731f8c",
      "gasUsed": "0xfd4b",
      "effectiveGasPrice": "0x38caa82a",
      "from": "0xc77f7fed3b5cc8249adc428c5f44c9063b9734b4",
      "to": "0x8aafd3ede9adb0ff97c7aebce82a919afb1c8764",
      "contractAddress": null
    }
  ],
  "libraries": [],
  "pending": [],
  "returns": {},
  "timestamp": 1737521017,
  "chain": 11155111,
  "commit": "1d2fb70"
}