{
  "transactions": [
    {
      "hash": "0x5f4aa0f3d962ee34d604216fe7f65efec82b5460f986d32c57bca5a1a9d44c50",
      "transactionType": "CALL",
      "contractName": null,
      "contractAddress": "0xbf4a322f1496e5c3d34a9bcdb4c60567b38c7de2",
      "function": "sell(uint256)",
      "arguments": [
        "990187408992859246264"
      ],
      "transaction": {
        "from": "0xc77f7fed3b5cc8249adc428c5f44c9063b9734b4",
        "to": "0xbf4a322f1496e5c3d34a9bcdb4c60567b38c7de2",
        "gas": "0x16fea",
        "value": "0x0",
        "input": "0xe4849b32000000000000000000000000000000000000000000000035ad9c5a3dc3ceceb8",
        "nonce": "0x929",
        "chainId": "0xaa36a7"
      },
      "additionalContracts": [],
      "isFixedGasLimit": false
    }
  ],
  "receipts": [
    {
      "status": "0x1",
      "cumulativeGasUsed": "0x186ae4d",
      "logs": [
        {
          "address": "0xbf4a322f1496e5c3d34a9bcdb4c60567b38c7de2",
          "topics": [
            "0xddf252ad1be2c89b69c2b068fc378daa952ba7f163c4a11628f55a4df523b3ef",
            "0x000000000000000000000000c77f7fed3b5cc8249adc428c5f44c9063b9734b4",
            "0x0000000000000000000000000000000000000000000000000000000000000000"
          ],
          "data": "0x000000000000000000000000000000000000000000000035ad9c5a3dc3ceceb8",
          "blockHash": "0x7ce1d538b9b2b4450f35b78d67393c9b7f47c3ecc9ed1bd09898c5dcd0eae91e",
          "blockNumber": "0x7258b1",
          "transactionHash": "0x5f4aa0f3d962ee34d604216fe7f65efec82b5460f986d32c57bca5a1a9d44c50",
          "transactionIndex": "0x84",
          "logIndex": "0xbc",
          "removed": false
        },
        {
          "address": "0xbf4a322f1496e5c3d34a9bcdb4c60567b38c7de2",
          "topics": [
            "0x4afcb4a87cdbd9974efdb92ee48bc8d7cd0ae4bf217004db3d080cbaee652ca7"
          ],
          "data": "0x0000000000000000000000000000000000000000000000000000000067871a780000000000000000000000000000000000000000000000000003901b293ece290000000000000000000000000000000000000000000000000dc7e3f9c084b046",
          "blockHash": "0x7ce1d538b9b2b4450f35b78d67393c9b7f47c3ecc9ed1bd09898c5dcd0eae91e",
          "blockNumber": "0x7258b1",
          "transactionHash": "0x5f4aa0f3d962ee34d604216fe7f65efec82b5460f986d32c57bca5a1a9d44c50",
          "transactionIndex": "0x84",
          "logIndex": "0xbd",
          "removed": false
        }
      ],
      "logsBloom": "0x00000000000000000000000000000000000000000000000000000000000000000000000000000000000000000000000000000000000000004000000000000000000000000000000000000008000000000000001000000000000000000000000000000000020000000000000000000800020000000000000000000010000000000000000000000000000000000000000000000000000008000000010000000000000000000000000000000000000000004000000000000000000000000000000000000002000000800000000000001000000000000000080000000000000020000000000000000000000000000000000000000000000000000000000000000000",
      "type": "0x2",
      "transactionHash": "0x5f4aa0f3d962ee34d604216fe7f65efec82b5460f986d32c57bca5a1a9d44c50",
      "transactionIndex": "0x84",
      "blockHash": "0x7ce1d538b9b2b4450f35b78d67393c9b7f47c3ecc9ed1bd09898c5dcd0eae91e",
      "blockNumber": "0x7258b1",
      "gasUsed": "0xfb91",
      "effectiveGasPrice": "0x548df8ca",
      "from": "0xc77f7fed3b5cc8249adc428c5f44c9063b9734b4",
      "to": "0xbf4a322f1496e5c3d34a9bcdb4c60567b38c7de2",
      "contractAddress": null
    }
  ],
  "libraries": [],
  "pending": [],
  "returns": {},
  "timestamp": 1736907387,
  "chain": 11155111,
  "commit": "51a374b"
}