{
  "transactions": [
    {
      "hash": "0x2e1f6407d22cad77389da176f8235ea659570fc71f66c8ce115931cf06564502",
      "transactionType": "CALL",
      "contractName": null,
      "contractAddress": "0x270e88f8683660553e8ba4eb2ad7c91a1710d769",
      "function": "buy(address)",
      "arguments": [
        "0xC77f7fed3b5Cc8249aDc428c5F44C9063B9734b4"
      ],
      "transaction": {
        "from": "0xc77f7fed3b5cc8249adc428c5f44c9063b9734b4",
        "to": "0x270e88f8683660553e8ba4eb2ad7c91a1710d769",
        "gas": "0x1b30c",
        "value": "0xde0b6b3a7640000",
        "input": "0xf088d547000000000000000000000000c77f7fed3b5cc8249adc428c5f44c9063b9734b4",
        "nonce": "0x71b",
        "chainId": "0xaa36a7"
      },
      "additionalContracts": [],
      "isFixedGasLimit": false
    }
  ],
  "receipts": [
    {
      "status": "0x1",
      "cumulativeGasUsed": "0xbaf50c",
      "logs": [
        {
          "address": "0x270e88f8683660553e8ba4eb2ad7c91a1710d769",
          "topics": [
            "0xddf252ad1be2c89b69c2b068fc378daa952ba7f163c4a11628f55a4df523b3ef",
            "0x0000000000000000000000000000000000000000000000000000000000000000",
            "0x000000000000000000000000c77f7fed3b5cc8249adc428c5f44c9063b9734b4"
          ],
          "data": "0x00000000000000000000000000000000000000000000002825035ee54d8b118d",
          "blockHash": "0x8541b8a635e33d0b28b9be7b07c2ceccae6f5915c05406fd7e80bf2524c5e749",
          "blockNumber": "0x725435",
          "transactionHash": "0x2e1f6407d22cad77389da176f8235ea659570fc71f66c8ce115931cf06564502",
          "transactionIndex": "0x4e",
          "logIndex": "0x87",
          "removed": false
        },
        {
          "address": "0x270e88f8683660553e8ba4eb2ad7c91a1710d769",
          "topics": [
            "0xddf252ad1be2c89b69c2b068fc378daa952ba7f163c4a11628f55a4df523b3ef",
            "0x0000000000000000000000000000000000000000000000000000000000000000",
            "0x000000000000000000000000c77f7fed3b5cc8249adc428c5f44c9063b9734b4"
          ],
          "data": "0x0000000000000000000000000000000000000000000000001f2c738687fd290f",
          "blockHash": "0x8541b8a635e33d0b28b9be7b07c2ceccae6f5915c05406fd7e80bf2524c5e749",
          "blockNumber": "0x725435",
          "transactionHash": "0x2e1f6407d22cad77389da176f8235ea659570fc71f66c8ce115931cf06564502",
          "transactionIndex": "0x4e",
          "logIndex": "0x88",
          "removed": false
        },
        {
          "address": "0x270e88f8683660553e8ba4eb2ad7c91a1710d769",
          "topics": [
            "0x4afcb4a87cdbd9974efdb92ee48bc8d7cd0ae4bf217004db3d080cbaee652ca7"
          ],
          "data": "0x000000000000000000000000000000000000000000000000000000006786e4840000000000000000000000000000000000000000000000000004bffaa784463b0000000000000000000000000000000000000000000000000de0b6b3a7640000",
          "blockHash": "0x8541b8a635e33d0b28b9be7b07c2ceccae6f5915c05406fd7e80bf2524c5e749",
          "blockNumber": "0x725435",
          "transactionHash": "0x2e1f6407d22cad77389da176f8235ea659570fc71f66c8ce115931cf06564502",
          "transactionIndex": "0x4e",
          "logIndex": "0x89",
          "removed": false
        }
      ],
      "logsBloom": "0x00000000000000000000000000000000000000000000000000000000000000000000000000000000000000000000000020000000000000004000000000000000000000000000000000000008000000000000000000000000000000000000000000000000020000000000000000000800020000000000000000000010000000000000000000010000000000000000000000000000000000000000010000000000000000000000000000000000000000004000000000000000000000000000000000000002000000800000000000000000000000000000080000008000000020000000000000000000000000000000000000000000000000000000000000000000",
      "type": "0x2",
      "transactionHash": "0x2e1f6407d22cad77389da176f8235ea659570fc71f66c8ce115931cf06564502",
      "transactionIndex": "0x4e",
      "blockHash": "0x8541b8a635e33d0b28b9be7b07c2ceccae6f5915c05406fd7e80bf2524c5e749",
      "blockNumber": "0x725435",
      "gasUsed": "0x13af8",
      "effectiveGasPrice": "0x161bb9731",
      "from": "0xc77f7fed3b5cc8249adc428c5f44c9063b9734b4",
      "to": "0x270e88f8683660553e8ba4eb2ad7c91a1710d769",
      "contractAddress": null
    }
  ],
  "libraries": [],
  "pending": [],
  "returns": {},
  "timestamp": 1736893573,
  "chain": 11155111,
  "commit": "51a374b"
}