{
  "transactions": [
    {
      "hash": "0xcbb36d737ccfeea58c202405737d8d75896f3cc33d55d2913859932979f1f02d",
      "transactionType": "CALL",
      "contractName": null,
      "contractAddress": "0x270e88f8683660553e8ba4eb2ad7c91a1710d769",
      "function": "sell(uint256)",
      "arguments": [
        "748735861090799834035"
      ],
      "transaction": {
        "from": "0xc77f7fed3b5cc8249adc428c5f44c9063b9734b4",
        "to": "0x270e88f8683660553e8ba4eb2ad7c91a1710d769",
        "gas": "0x16fec",
        "value": "0x0",
        "input": "0xe4849b3200000000000000000000000000000000000000000000002896cc22b08157d3b3",
        "nonce": "0x6da",
        "chainId": "0xaa36a7"
      },
      "additionalContracts": [],
      "isFixedGasLimit": false
    }
  ],
  "receipts": [
    {
      "status": "0x1",
      "cumulativeGasUsed": "0x208618c",
      "logs": [
        {
          "address": "0x270e88f8683660553e8ba4eb2ad7c91a1710d769",
          "topics": [
            "0xddf252ad1be2c89b69c2b068fc378daa952ba7f163c4a11628f55a4df523b3ef",
            "0x000000000000000000000000c77f7fed3b5cc8249adc428c5f44c9063b9734b4",
            "0x0000000000000000000000000000000000000000000000000000000000000000"
          ],
          "data": "0x00000000000000000000000000000000000000000000002896cc22b08157d3b3",
          "blockHash": "0xd07fb1e92ae4d0f61217d594e6d621f4d9ba03d09ed52f7832b91fb55e94caa6",
          "blockNumber": "0x7253ed",
          "transactionHash": "0xcbb36d737ccfeea58c202405737d8d75896f3cc33d55d2913859932979f1f02d",
          "transactionIndex": "0x6b",
          "logIndex": "0x1b1",
          "removed": false
        },
        {
          "address": "0x270e88f8683660553e8ba4eb2ad7c91a1710d769",
          "topics": [
            "0x4afcb4a87cdbd9974efdb92ee48bc8d7cd0ae4bf217004db3d080cbaee652ca7"
          ],
          "data": "0x000000000000000000000000000000000000000000000000000000006786e1240000000000000000000000000000000000000000000000000004b68029ab69d00000000000000000000000000000000000000000000000000dc829676455b9f7",
          "blockHash": "0xd07fb1e92ae4d0f61217d594e6d621f4d9ba03d09ed52f7832b91fb55e94caa6",
          "blockNumber": "0x7253ed",
          "transactionHash": "0xcbb36d737ccfeea58c202405737d8d75896f3cc33d55d2913859932979f1f02d",
          "transactionIndex": "0x6b",
          "logIndex": "0x1b2",
          "removed": false
        }
      ],
      "logsBloom": "0x00000000000000000000000000000000000000000000000000000000000000000000000000000000000000000000000020000000000000004000000000000000000000000000000000000008000000000000000000000000000000000000000000000000020000000000000000000800020000000000000000000010000000000000000000010000000000000000000000000000000000000000010000000000000000000000000000000000000000004000000000000000000000000000000000000002000000800000000000000000000000000000080000008000000020000000000000000000000000000000000000000000000000000000000000000000",
      "type": "0x2",
      "transactionHash": "0xcbb36d737ccfeea58c202405737d8d75896f3cc33d55d2913859932979f1f02d",
      "transactionIndex": "0x6b",
      "blockHash": "0xd07fb1e92ae4d0f61217d594e6d621f4d9ba03d09ed52f7832b91fb55e94caa6",
      "blockNumber": "0x7253ed",
      "gasUsed": "0xfb93",
      "effectiveGasPrice": "0x1409d92d7",
      "from": "0xc77f7fed3b5cc8249adc428c5f44c9063b9734b4",
      "to": "0x270e88f8683660553e8ba4eb2ad7c91a1710d769",
      "contractAddress": null
    }
  ],
  "libraries": [],
  "pending": [],
  "returns": {},
  "timestamp": 1736892709,
  "chain": 11155111,
  "commit": "51a374b"
}