{
  "transactions": [
    {
      "hash": "0x0fbcc9de11e31d3835fd3b068afd1ee1c0dfc27588969ddf5dbc5eaaf8911c56",
      "transactionType": "CALL",
      "contractName": null,
      "contractAddress": "0x5eb9cc76c3506942c1c0ead70e877dd5e4f00cb0",
      "function": "buy(address)",
      "arguments": [
        "0xC77f7fed3b5Cc8249aDc428c5F44C9063B9734b4"
      ],
      "transaction": {
        "from": "0xc77f7fed3b5cc8249adc428c5f44c9063b9734b4",
        "to": "0x5eb9cc76c3506942c1c0ead70e877dd5e4f00cb0",
        "gas": "0x1b30c",
        "value": "0xde0b6b3a7640000",
        "input": "0xf088d547000000000000000000000000c77f7fed3b5cc8249adc428c5f44c9063b9734b4",
        "nonce": "0x44e",
        "chainId": "0xaa36a7"
      },
      "additionalContracts": [],
      "isFixedGasLimit": false
    }
  ],
  "receipts": [
    {
      "status": "0x1",
      "cumulativeGasUsed": "0xb62dad",
      "logs": [
        {
          "address": "0x5eb9cc76c3506942c1c0ead70e877dd5e4f00cb0",
          "topics": [
            "0xddf252ad1be2c89b69c2b068fc378daa952ba7f163c4a11628f55a4df523b3ef",
            "0x0000000000000000000000000000000000000000000000000000000000000000",
            "0x000000000000000000000000c77f7fed3b5cc8249adc428c5f44c9063b9734b4"
          ],
          "data": "0x00000000000000000000000000000000000000000000003574d6322180fc44de",
          "blockHash": "0x0b77528ec6f3fcf2e48971f6f4ff6d5dce4a9a1eb33a1453b6e6642894515ef3",
          "blockNumber": "0x725070",
          "transactionHash": "0x0fbcc9de11e31d3835fd3b068afd1ee1c0dfc27588969ddf5dbc5eaaf8911c56",
          "transactionIndex": "0x5b",
          "logIndex": "0x82",
          "removed": false
        },
        {
          "address": "0x5eb9cc76c3506942c1c0ead70e877dd5e4f00cb0",
          "topics": [
            "0xddf252ad1be2c89b69c2b068fc378daa952ba7f163c4a11628f55a4df523b3ef",
            "0x0000000000000000000000000000000000000000000000000000000000000000",
            "0x000000000000000000000000c77f7fed3b5cc8249adc428c5f44c9063b9734b4"
          ],
          "data": "0x0000000000000000000000000000000000000000000000002982be13a79e2d2b",
          "blockHash": "0x0b77528ec6f3fcf2e48971f6f4ff6d5dce4a9a1eb33a1453b6e6642894515ef3",
          "blockNumber": "0x725070",
          "transactionHash": "0x0fbcc9de11e31d3835fd3b068afd1ee1c0dfc27588969ddf5dbc5eaaf8911c56",
          "transactionIndex": "0x5b",
          "logIndex": "0x83",
          "removed": false
        },
        {
          "address": "0x5eb9cc76c3506942c1c0ead70e877dd5e4f00cb0",
          "topics": [
            "0x4afcb4a87cdbd9974efdb92ee48bc8d7cd0ae4bf217004db3d080cbaee652ca7"
          ],
          "data": "0x000000000000000000000000000000000000000000000000000000006786b70c000000000000000000000000000000000000000000000000000391185c8ec8130000000000000000000000000000000000000000000000000de0b6b3a7640000",
          "blockHash": "0x0b77528ec6f3fcf2e48971f6f4ff6d5dce4a9a1eb33a1453b6e6642894515ef3",
          "blockNumber": "0x725070",
          "transactionHash": "0x0fbcc9de11e31d3835fd3b068afd1ee1c0dfc27588969ddf5dbc5eaaf8911c56",
          "transactionIndex": "0x5b",
          "logIndex": "0x84",
          "removed": false
        }
      ],
      "logsBloom": "0x00000000000000000000000000000000000000000000000000000000000000000000000000000000000000000000000000000000000000004000000000000000000000000000000000000008000000000000000000000000000000000000000000000000020000000000000004000800020000000000000000000010000000000000000000000000000000000000000000000000000000000000010000000000000000000000000000000000000000004000000000000000000000000000020000000002000000800000008000000000000000000000080000000000000020000000000000000000000000000000000000000000000000000000000000000000",
      "type": "0x2",
      "transactionHash": "0x0fbcc9de11e31d3835fd3b068afd1ee1c0dfc27588969ddf5dbc5eaaf8911c56",
      "transactionIndex": "0x5b",
      "blockHash": "0x0b77528ec6f3fcf2e48971f6f4ff6d5dce4a9a1eb33a1453b6e6642894515ef3",
      "blockNumber": "0x725070",
      "gasUsed": "0x13af8",
      "effectiveGasPrice": "0x247aea37b",
      "from": "0xc77f7fed3b5cc8249adc428c5f44c9063b9734b4",
      "to": "0x5eb9cc76c3506942c1c0ead70e877dd5e4f00cb0",
      "contractAddress": null
    }
  ],
  "libraries": [],
  "pending": [],
  "returns": {},
  "timestamp": 1736881933,
  "chain": 11155111,
  "commit": "51a374b"
}