{
  "transactions": [
    {
      "hash": "0xebbb7ec925f541f67672076f9266ff35b63f9746728df2481bf1b44651c3293d",
      "transactionType": "CALL",
      "contractName": null,
      "contractAddress": "0x270e88f8683660553e8ba4eb2ad7c91a1710d769",
      "function": "buy(address)",
      "arguments": [
        "0xC77f7fed3b5Cc8249aDc428c5F44C9063B9734b4"
      ],
      "transaction": {
        "from": "0xc77f7fed3b5cc8249adc428c5f44c9063b9734b4",
        "to": "0x270e88f8683660553e8ba4eb2ad7c91a1710d769",
        "gas": "0x1b30c",
        "value": "0xde0b6b3a7640000",
        "input": "0xf088d547000000000000000000000000c77f7fed3b5cc8249adc428c5f44c9063b9734b4",
        "nonce": "0x809",
        "chainId": "0xaa36a7"
      },
      "additionalContracts": [],
      "isFixedGasLimit": false
    }
  ],
  "receipts": [
    {
      "status": "0x1",
      "cumulativeGasUsed": "0x8655e3",
      "logs": [
        {
          "address": "0x270e88f8683660553e8ba4eb2ad7c91a1710d769",
          "topics": [
            "0xddf252ad1be2c89b69c2b068fc378daa952ba7f163c4a11628f55a4df523b3ef",
            "0x0000000000000000000000000000000000000000000000000000000000000000",
            "0x000000000000000000000000c77f7fed3b5cc8249adc428c5f44c9063b9734b4"
          ],
          "data": "0x0000000000000000000000000000000000000000000000270690ffa650b6b081",
          "blockHash": "0x08bcb4a28d369f09583c75cb645a0dc1354862b021723ebe12abb8ae4778e567",
          "blockNumber": "0x725549",
          "transactionHash": "0xebbb7ec925f541f67672076f9266ff35b63f9746728df2481bf1b44651c3293d",
          "transactionIndex": "0x49",
          "logIndex": "0x87",
          "removed": false
        },
        {
          "address": "0x270e88f8683660553e8ba4eb2ad7c91a1710d769",
          "topics": [
            "0xddf252ad1be2c89b69c2b068fc378daa952ba7f163c4a11628f55a4df523b3ef",
            "0x0000000000000000000000000000000000000000000000000000000000000000",
            "0x000000000000000000000000c77f7fed3b5cc8249adc428c5f44c9063b9734b4"
          ],
          "data": "0x0000000000000000000000000000000000000000000000001e4e03fd85c91022",
          "blockHash": "0x08bcb4a28d369f09583c75cb645a0dc1354862b021723ebe12abb8ae4778e567",
          "blockNumber": "0x725549",
          "transactionHash": "0xebbb7ec925f541f67672076f9266ff35b63f9746728df2481bf1b44651c3293d",
          "transactionIndex": "0x49",
          "logIndex": "0x88",
          "removed": false
        },
        {
          "address": "0x270e88f8683660553e8ba4eb2ad7c91a1710d769",
          "topics": [
            "0x4afcb4a87cdbd9974efdb92ee48bc8d7cd0ae4bf217004db3d080cbaee652ca7"
          ],
          "data": "0x000000000000000000000000000000000000000000000000000000006786f1740000000000000000000000000000000000000000000000000004e2d72265bc610000000000000000000000000000000000000000000000000de0b6b3a7640000",
          "blockHash": "0x08bcb4a28d369f09583c75cb645a0dc1354862b021723ebe12abb8ae4778e567",
          "blockNumber": "0x725549",
          "transactionHash": "0xebbb7ec925f541f67672076f9266ff35b63f9746728df2481bf1b44651c3293d",
          "transactionIndex": "0x49",
          "logIndex": "0x89",
          "removed": false
        }
      ],
      "logsBloom": "0x00000000000000000000000000000000000000000000000000000000000000000000000000000000000000000000000020000000000000004000000000000000000000000000000000000008000000000000000000000000000000000000000000000000020000000000000000000800020000000000000000000010000000000000000000010000000000000000000000000000000000000000010000000000000000000000000000000000000000004000000000000000000000000000000000000002000000800000000000000000000000000000080000008000000020000000000000000000000000000000000000000000000000000000000000000000",
      "type": "0x2",
      "transactionHash": "0xebbb7ec925f541f67672076f9266ff35b63f9746728df2481bf1b44651c3293d",
      "transactionIndex": "0x49",
      "blockHash": "0x08bcb4a28d369f09583c75cb645a0dc1354862b021723ebe12abb8ae4778e567",
      "blockNumber": "0x725549",
      "gasUsed": "0x13af8",
      "effectiveGasPrice": "0x9536c03a",
      "from": "0xc77f7fed3b5cc8249adc428c5f44c9063b9734b4",
      "to": "0x270e88f8683660553e8ba4eb2ad7c91a1710d769",
      "contractAddress": null
    }
  ],
  "libraries": [],
  "pending": [],
  "returns": {},
  "timestamp": 1736896885,
  "chain": 11155111,
  "commit": "51a374b"
}