{
  "transactions": [
    {
      "hash": "0xb2972779bb59b0f10324d7804b60af9474bb9aee596309f70b01373e9f21d63b",
      "transactionType": "CALL",
      "contractName": null,
      "contractAddress": "0x8aafd3ede9adb0ff97c7aebce82a919afb1c8764",
      "function": "sell(uint256)",
      "arguments": [
        "159528562254212607804"
      ],
      "transaction": {
        "from": "0xc77f7fed3b5cc8249adc428c5f44c9063b9734b4",
        "to": "0x8aafd3ede9adb0ff97c7aebce82a919afb1c8764",
        "gas": "0x17270",
        "value": "0x0",
        "input": "0xe4849b32000000000000000000000000000000000000000000000008a5e74e26d321af3c",
        "nonce": "0x16b8",
        "chainId": "0xaa36a7"
      },
      "additionalContracts": [],
      "isFixedGasLimit": false
    }
  ],
  "receipts": [
    {
      "status": "0x1",
      "cumulativeGasUsed": "0x870a35",
      "logs": [
        {
          "address": "0x8aafd3ede9adb0ff97c7aebce82a919afb1c8764",
          "topics": [
            "0xddf252ad1be2c89b69c2b068fc378daa952ba7f163c4a11628f55a4df523b3ef",
            "0x000000000000000000000000c77f7fed3b5cc8249adc428c5f44c9063b9734b4",
            "0x0000000000000000000000000000000000000000000000000000000000000000"
          ],
          "data": "0x00000000000000000000000000000000000000000000000894313b182d9a3f3e",
          "blockHash": "0xbe8f381b75471fd27cf3d60ffecb689513e6fa31498055df72c74e141ca0607c",
          "blockNumber": "0x731e71",
          "transactionHash": "0xb2972779bb59b0f10324d7804b60af9474bb9aee596309f70b01373e9f21d63b",
          "transactionIndex": "0x5b",
          "logIndex": "0xb5",
          "removed": false
        },
        {
          "address": "0x8aafd3ede9adb0ff97c7aebce82a919afb1c8764",
          "topics": [
            "0xddf252ad1be2c89b69c2b068fc378daa952ba7f163c4a11628f55a4df523b3ef",
            "0x000000000000000000000000c77f7fed3b5cc8249adc428c5f44c9063b9734b4",
            "0x000000000000000000000000c77f7fed3b5cc8249adc428c5f44c9063b9734b4"
          ],
          "data": "0x00000000000000000000000000000000000000000000000011b6130ea5876ffe",
          "blockHash": "0xbe8f381b75471fd27cf3d60ffecb689513e6fa31498055df72c74e141ca0607c",
          "blockNumber": "0x731e71",
          "transactionHash": "0xb2972779bb59b0f10324d7804b60af9474bb9aee596309f70b01373e9f21d63b",
          "transactionIndex": "0x5b",
          "logIndex": "0xb6",
          "removed": false
        },
        {
          "address": "0x8aafd3ede9adb0ff97c7aebce82a919afb1c8764",
          "topics": [
            "0x4afcb4a87cdbd9974efdb92ee48bc8d7cd0ae4bf217004db3d080cbaee652ca7"
          ],
          "data": "0x0000000000000000000000000000000000000000000000000000000067906a34000000000000000000000000000000000000000000000000001637f9384ff3ce0000000000000000000000000000000000000000000000000dcc1d48079fb74b",
          "blockHash": "0xbe8f381b75471fd27cf3d60ffecb689513e6fa31498055df72c74e141ca0607c",
          "blockNumber": "0x731e71",
          "transactionHash": "0xb2972779bb59b0f10324d7804b60af9474bb9aee596309f70b01373e9f21d63b",
          "transactionIndex": "0x5b",
          "logIndex": "0xb7",
          "removed": false
        }
      ],
      "logsBloom": "0x00000000000000000000000000000000000000000600000000000000000000000000000000000000000000000000000000000000000000004000000000000000000000000000004000000008000000000000000000000000000000000000000000000000020000000000000000000800020000000000000000000010000000000000000000000000000000000000000000000000000000000000010000000000000000000000000000000000000000004000000000000000000000000000000000000002000000800000000000000000000000000000080000000000000020000000000000000000000000000000000000000000000000000000000000000000",
      "type": "0x2",
      "transactionHash": "0xb2972779bb59b0f10324d7804b60af9474bb9aee596309f70b01373e9f21d63b",
      "transactionIndex": "0x5b",
      "blockHash": "0xbe8f381b75471fd27cf3d60ffecb689513e6fa31498055df72c74e141ca0607c",
      "blockNumber": "0x731e71",
      "gasUsed": "0xfd4b",
      "effectiveGasPrice": "0x456bb977",
      "from": "0xc77f7fed3b5cc8249adc428c5f44c9063b9734b4",
      "to": "0x8aafd3ede9adb0ff97c7aebce82a919afb1c8764",
      "contractAddress": null
    }
  ],
  "libraries": [],
  "pending": [],
  "returns": {},
  "timestamp": 1737517621,
  "chain": 11155111,
  "commit": "1d2fb70"
}