{
  "transactions": [
    {
      "hash": "0xda7c0ff3e493f379031fce75fb1789d46df6f3e28bfe320407796245c226b488",
      "transactionType": "CALL",
      "contractName": null,
      "contractAddress": "0x5eb9cc76c3506942c1c0ead70e877dd5e4f00cb0",
      "function": "buy(address)",
      "arguments": [
        "0xC77f7fed3b5Cc8249aDc428c5F44C9063B9734b4"
      ],
      "transaction": {
        "from": "0xc77f7fed3b5cc8249adc428c5f44c9063b9734b4",
        "to": "0x5eb9cc76c3506942c1c0ead70e877dd5e4f00cb0",
        "gas": "0x156c8",
        "value": "0xde0b6b3a7640000",
        "input": "0xf088d547000000000000000000000000c77f7fed3b5cc8249adc428c5f44c9063b9734b4",
        "nonce": "0x210",
        "chainId": "0xaa36a7"
      },
      "additionalContracts": [],
      "isFixedGasLimit": false
    }
  ],
  "receipts": [
    {
      "status": "0x1",
      "cumulativeGasUsed": "0xd400f3",
      "logs": [
        {
          "address": "0x5eb9cc76c3506942c1c0ead70e877dd5e4f00cb0",
          "topics": [
            "0xddf252ad1be2c89b69c2b068fc378daa952ba7f163c4a11628f55a4df523b3ef",
            "0x0000000000000000000000000000000000000000000000000000000000000000",
            "0x000000000000000000000000c77f7fed3b5cc8249adc428c5f44c9063b9734b4"
          ],
          "data": "0x00000000000000000000000000000000000000000000003584b67cb1cbcacc51",
          "blockHash": "0xc7ca89499769578c1e976ccd6b93d56e06f0e2f9a89f87681a49f3cfdaced3fe",
          "blockNumber": "0x724b2b",
          "transactionHash": "0xda7c0ff3e493f379031fce75fb1789d46df6f3e28bfe320407796245c226b488",
          "transactionIndex": "0x75",
          "logIndex": "0xf7",
          "removed": false
        },
        {
          "address": "0x5eb9cc76c3506942c1c0ead70e877dd5e4f00cb0",
          "topics": [
            "0xddf252ad1be2c89b69c2b068fc378daa952ba7f163c4a11628f55a4df523b3ef",
            "0x0000000000000000000000000000000000000000000000000000000000000000",
            "0x000000000000000000000000c77f7fed3b5cc8249adc428c5f44c9063b9734b4"
          ],
          "data": "0x000000000000000000000000000000000000000000000000298f12233825eb7b",
          "blockHash": "0xc7ca89499769578c1e976ccd6b93d56e06f0e2f9a89f87681a49f3cfdaced3fe",
          "blockNumber": "0x724b2b",
          "transactionHash": "0xda7c0ff3e493f379031fce75fb1789d46df6f3e28bfe320407796245c226b488",
          "transactionIndex": "0x75",
          "logIndex": "0xf8",
          "removed": false
        },
        {
          "address": "0x5eb9cc76c3506942c1c0ead70e877dd5e4f00cb0",
          "topics": [
            "0x4afcb4a87cdbd9974efdb92ee48bc8d7cd0ae4bf217004db3d080cbaee652ca7"
          ],
          "data": "0x00000000000000000000000000000000000000000000000000000000678677ac000000000000000000000000000000000000000000000000000390097e5a5d090000000000000000000000000000000000000000000000000de0b6b3a7640000",
          "blockHash": "0xc7ca89499769578c1e976ccd6b93d56e06f0e2f9a89f87681a49f3cfdaced3fe",
          "blockNumber": "0x724b2b",
          "transactionHash": "0xda7c0ff3e493f379031fce75fb1789d46df6f3e28bfe320407796245c226b488",
          "transactionIndex": "0x75",
          "logIndex": "0xf9",
          "removed": false
        }
      ],
      "logsBloom": "0x00000000000000000000000000000000000000000000000000000000000000000000000000000000000000000000000000000000000000004000000000000000000000000000000000000008000000000000000000000000000000000000000000000000020000000000000004000800020000000000000000000010000000000000000000000000000000000000000000000000000000000000010000000000000000000000000000000000000000004000000000000000000000000000020000000002000000800000008000000000000000000000080000000000000020000000000000000000000000000000000000000000000000000000000000000000",
      "type": "0x2",
      "transactionHash": "0xda7c0ff3e493f379031fce75fb1789d46df6f3e28bfe320407796245c226b488",
      "transactionIndex": "0x75",
      "blockHash": "0xc7ca89499769578c1e976ccd6b93d56e06f0e2f9a89f87681a49f3cfdaced3fe",
      "blockNumber": "0x724b2b",
      "gasUsed": "0xf82c",
      "effectiveGasPrice": "0x4fa891470",
      "from": "0xc77f7fed3b5cc8249adc428c5f44c9063b9734b4",
      "to": "0x5eb9cc76c3506942c1c0ead70e877dd5e4f00cb0",
      "contractAddress": null
    }
  ],
  "libraries": [],
  "pending": [],
  "returns": {},
  "timestamp": 1736865709,
  "chain": 11155111,
  "commit": "51a374b"
}