{
  "transactions": [
    {
      "hash": "0x6f9aaf07afd5b0693333deb9c61bd2f02519618f12b70ab31fedce9b3ee0585b",
      "transactionType": "CALL",
      "contractName": null,
      "contractAddress": "0x270e88f8683660553e8ba4eb2ad7c91a1710d769",
      "function": "buy(address)",
      "arguments": [
        "0xC77f7fed3b5Cc8249aDc428c5F44C9063B9734b4"
      ],
      "transaction": {
        "from": "0xc77f7fed3b5cc8249adc428c5f44c9063b9734b4",
        "to": "0x270e88f8683660553e8ba4eb2ad7c91a1710d769",
        "gas": "0x1b30c",
        "value": "0xde0b6b3a7640000",
        "input": "0xf088d547000000000000000000000000c77f7fed3b5cc8249adc428c5f44c9063b9734b4",
        "nonce": "0x7e9",
        "chainId": "0xaa36a7"
      },
      "additionalContracts": [],
      "isFixedGasLimit": false
    }
  ],
  "receipts": [
    {
      "status": "0x1",
      "cumulativeGasUsed": "0x143f0c5",
      "logs": [
        {
          "address": "0x270e88f8683660553e8ba4eb2ad7c91a1710d769",
          "topics": [
            "0xddf252ad1be2c89b69c2b068fc378daa952ba7f163c4a11628f55a4df523b3ef",
            "0x0000000000000000000000000000000000000000000000000000000000000000",
            "0x000000000000000000000000c77f7fed3b5cc8249adc428c5f44c9063b9734b4"
          ],
          "data": "0x0000000000000000000000000000000000000000000000272c2649bf180b246e",
          "blockHash": "0x27f34a9d9ff8f31845a4ef2f6f06f783f00b0fe1866e704612004648215453c6",
          "blockNumber": "0x725524",
          "transactionHash": "0x6f9aaf07afd5b0693333deb9c61bd2f02519618f12b70ab31fedce9b3ee0585b",
          "transactionIndex": "0x4f",
          "logIndex": "0x66",
          "removed": false
        },
        {
          "address": "0x270e88f8683660553e8ba4eb2ad7c91a1710d769",
          "topics": [
            "0xddf252ad1be2c89b69c2b068fc378daa952ba7f163c4a11628f55a4df523b3ef",
            "0x0000000000000000000000000000000000000000000000000000000000000000",
            "0x000000000000000000000000c77f7fed3b5cc8249adc428c5f44c9063b9734b4"
          ],
          "data": "0x0000000000000000000000000000000000000000000000001e6b333fefe3d480",
          "blockHash": "0x27f34a9d9ff8f31845a4ef2f6f06f783f00b0fe1866e704612004648215453c6",
          "blockNumber": "0x725524",
          "transactionHash": "0x6f9aaf07afd5b0693333deb9c61bd2f02519618f12b70ab31fedce9b3ee0585b",
          "transactionIndex": "0x4f",
          "logIndex": "0x67",
          "removed": false
        },
        {
          "address": "0x270e88f8683660553e8ba4eb2ad7c91a1710d769",
          "topics": [
            "0x4afcb4a87cdbd9974efdb92ee48bc8d7cd0ae4bf217004db3d080cbaee652ca7"
          ],
          "data": "0x000000000000000000000000000000000000000000000000000000006786efb80000000000000000000000000000000000000000000000000004de272466f2480000000000000000000000000000000000000000000000000de0b6b3a7640000",
          "blockHash": "0x27f34a9d9ff8f31845a4ef2f6f06f783f00b0fe1866e704612004648215453c6",
          "blockNumber": "0x725524",
          "transactionHash": "0x6f9aaf07afd5b0693333deb9c61bd2f02519618f12b70ab31fedce9b3ee0585b",
          "transactionIndex": "0x4f",
          "logIndex": "0x68",
          "removed": false
        }
      ],
      "logsBloom": "0x00000000000000000000000000000000000000000000000000000000000000000000000000000000000000000000000020000000000000004000000000000000000000000000000000000008000000000000000000000000000000000000000000000000020000000000000000000800020000000000000000000010000000000000000000010000000000000000000000000000000000000000010000000000000000000000000000000000000000004000000000000000000000000000000000000002000000800000000000000000000000000000080000008000000020000000000000000000000000000000000000000000000000000000000000000000",
      "type": "0x2",
      "transactionHash": "0x6f9aaf07afd5b0693333deb9c61bd2f02519618f12b70ab31fedce9b3ee0585b",
      "transactionIndex": "0x4f",
      "blockHash": "0x27f34a9d9ff8f31845a4ef2f6f06f783f00b0fe1866e704612004648215453c6",
      "blockNumber": "0x725524",
      "gasUsed": "0x13af8",
      "effectiveGasPrice": "0xa97024d8",
      "from": "0xc77f7fed3b5cc8249adc428c5f44c9063b9734b4",
      "to": "0x270e88f8683660553e8ba4eb2ad7c91a1710d769",
      "contractAddress": null
    }
  ],
  "libraries": [],
  "pending": [],
  "returns": {},
  "timestamp": 1736896442,
  "chain": 11155111,
  "commit": "51a374b"
}