{
  "transactions": [
    {
      "hash": "0x61008499c628dcb7e07865359b9e630499fd168b4a4036328d4614ef388851a1",
      "transactionType": "CALL",
      "contractName": null,
      "contractAddress": "0xbf4a322f1496e5c3d34a9bcdb4c60567b38c7de2",
      "function": "sell(uint256)",
      "arguments": [
        "974777471551234020433"
      ],
      "transaction": {
        "from": "0xc77f7fed3b5cc8249adc428c5f44c9063b9734b4",
        "to": "0xbf4a322f1496e5c3d34a9bcdb4c60567b38c7de2",
        "gas": "0x16fea",
        "value": "0x0",
        "input": "0xe4849b32000000000000000000000000000000000000000000000034d7c141c890be9451",
        "nonce": "0xd9f",
        "chainId": "0xaa36a7"
      },
      "additionalContracts": [],
      "isFixedGasLimit": false
    }
  ],
  "receipts": [
    {
      "status": "0x1",
      "cumulativeGasUsed": "0x9962fa",
      "logs": [
        {
          "address": "0xbf4a322f1496e5c3d34a9bcdb4c60567b38c7de2",
          "topics": [
            "0xddf252ad1be2c89b69c2b068fc378daa952ba7f163c4a11628f55a4df523b3ef",
            "0x000000000000000000000000c77f7fed3b5cc8249adc428c5f44c9063b9734b4",
            "0x0000000000000000000000000000000000000000000000000000000000000000"
          ],
          "data": "0x000000000000000000000000000000000000000000000034d7c141c890be9451",
          "blockHash": "0x5b623126c153fd1a5fde77fada50865e5ff637c9f7e1d374025a2a84cf4c1fb4",
          "blockNumber": "0x726675",
          "transactionHash": "0x61008499c628dcb7e07865359b9e630499fd168b4a4036328d4614ef388851a1",
          "transactionIndex": "0x4b",
          "logIndex": "0x84",
          "removed": false
        },
        {
          "address": "0xbf4a322f1496e5c3d34a9bcdb4c60567b38c7de2",
          "topics": [
            "0x4afcb4a87cdbd9974efdb92ee48bc8d7cd0ae4bf217004db3d080cbaee652ca7"
          ],
          "data": "0x000000000000000000000000000000000000000000000000000000006787c05000000000000000000000000000000000000000000000000000039e865ee2f03c0000000000000000000000000000000000000000000000000dc7e3d5ec769a96",
          "blockHash": "0x5b623126c153fd1a5fde77fada50865e5ff637c9f7e1d374025a2a84cf4c1fb4",
          "blockNumber": "0x726675",
          "transactionHash": "0x61008499c628dcb7e07865359b9e630499fd168b4a4036328d4614ef388851a1",
          "transactionIndex": "0x4b",
          "logIndex": "0x85",
          "removed": false
        }
      ],
      "logsBloom": "0x00000000000000000000000000000000000000000000000000000000000000000000000000000000000000000000000000000000000000004000000000000000000000000000000000000008000000000000001000000000000000000000000000000000020000000000000000000800020000000000000000000010000000000000000000000000000000000000000000000000000008000000010000000000000000000000000000000000000000004000000000000000000000000000000000000002000000800000000000001000000000000000080000000000000020000000000000000000000000000000000000000000000000000000000000000000",
      "type": "0x2",
      "transactionHash": "0x61008499c628dcb7e07865359b9e630499fd168b4a4036328d4614ef388851a1",
      "transactionIndex": "0x4b",
      "blockHash": "0x5b623126c153fd1a5fde77fada50865e5ff637c9f7e1d374025a2a84cf4c1fb4",
      "blockNumber": "0x726675",
      "gasUsed": "0xfb91",
      "effectiveGasPrice": "0x9200a061",
      "from": "0xc77f7fed3b5cc8249adc428c5f44c9063b9734b4",
      "to": "0xbf4a322f1496e5c3d34a9bcdb4c60567b38c7de2",
      "contractAddress": null
    }
  ],
  "libraries": [],
  "pending": [],
  "returns": {},
  "timestamp": 1736949841,
  "chain": 11155111,
  "commit": "51a374b"
}