{
  "transactions": [
    {
      "hash": "0x1df7b515839f1c9f692d92020160b3391ce836aa1a73c05f97d781ab98535d61",
      "transactionType": "CALL",
      "contractName": null,
      "contractAddress": "0x8aafd3ede9adb0ff97c7aebce82a919afb1c8764",
      "function": "sell(uint256)",
      "arguments": [
        "2754427317637"
      ],
      "transaction": {
        "from": "0xc77f7fed3b5cc8249adc428c5f44c9063b9734b4",
        "to": "0x8aafd3ede9adb0ff97c7aebce82a919afb1c8764",
        "gas": "0x15daa",
        "value": "0x0",
        "input": "0xe4849b320000000000000000000000000000000000000000000000000000028150a96d85",
        "nonce": "0x126b",
        "chainId": "0xaa36a7"
      },
      "additionalContracts": [],
      "isFixedGasLimit": false
    }
  ],
  "receipts": [
    {
      "status": "0x1",
      "cumulativeGasUsed": "0x9dbb83",
      "logs": [
        {
          "address": "0x8aafd3ede9adb0ff97c7aebce82a919afb1c8764",
          "topics": [
            "0xddf252ad1be2c89b69c2b068fc378daa952ba7f163c4a11628f55a4df523b3ef",
            "0x000000000000000000000000c77f7fed3b5cc8249adc428c5f44c9063b9734b4",
            "0x0000000000000000000000000000000000000000000000000000000000000000"
          ],
          "data": "0x0000000000000000000000000000000000000000000000000000027c2f3f9fd8",
          "blockHash": "0x2e52ad6b7b150457ddfd94ec66ed7b0f949caa4e34df9d6476cd5f35d9d8bf74",
          "blockNumber": "0x731952",
          "transactionHash": "0x1df7b515839f1c9f692d92020160b3391ce836aa1a73c05f97d781ab98535d61",
          "transactionIndex": "0x68",
          "logIndex": "0x7e",
          "removed": false
        },
        {
          "address": "0x8aafd3ede9adb0ff97c7aebce82a919afb1c8764",
          "topics": [
            "0xddf252ad1be2c89b69c2b068fc378daa952ba7f163c4a11628f55a4df523b3ef",
            "0x000000000000000000000000c77f7fed3b5cc8249adc428c5f44c9063b9734b4",
            "0x000000000000000000000000c77f7fed3b5cc8249adc428c5f44c9063b9734b4"
          ],
          "data": "0x000000000000000000000000000000000000000000000000000000052169cdad",
          "blockHash": "0x2e52ad6b7b150457ddfd94ec66ed7b0f949caa4e34df9d6476cd5f35d9d8bf74",
          "blockNumber": "0x731952",
          "transactionHash": "0x1df7b515839f1c9f692d92020160b3391ce836aa1a73c05f97d781ab98535d61",
          "transactionIndex": "0x68",
          "logIndex": "0x7f",
          "removed": false
        },
        {
          "address": "0x8aafd3ede9adb0ff97c7aebce82a919afb1c8764",
          "topics": [
            "0x4afcb4a87cdbd9974efdb92ee48bc8d7cd0ae4bf217004db3d080cbaee652ca7"
          ],
          "data": "0x0000000000000000000000000000000000000000000000000000000067902ca800000000000000000000000000000000000000000000000000054076affbdcc700000000000000000000000000000000000000000000000000000000f2b1d845",
          "blockHash": "0x2e52ad6b7b150457ddfd94ec66ed7b0f949caa4e34df9d6476cd5f35d9d8bf74",
          "blockNumber": "0x731952",
          "transactionHash": "0x1df7b515839f1c9f692d92020160b3391ce836aa1a73c05f97d781ab98535d61",
          "transactionIndex": "0x68",
          "logIndex": "0x80",
          "removed": false
        }
      ],
      "logsBloom": "0x00000000000000000000000000000000000000000600000000000000000000000000000000000000000000000000000000000000000000004000000000000000000000000000004000000008000000000000000000000000000000000000000000000000020000000000000000000800020000000000000000000010000000000000000000000000000000000000000000000000000000000000010000000000000000000000000000000000000000004000000000000000000000000000000000000002000000800000000000000000000000000000080000000000000020000000000000000000000000000000000000000000000000000000000000000000",
      "type": "0x2",
      "transactionHash": "0x1df7b515839f1c9f692d92020160b3391ce836aa1a73c05f97d781ab98535d61",
      "transactionIndex": "0x68",
      "blockHash": "0x2e52ad6b7b150457ddfd94ec66ed7b0f949caa4e34df9d6476cd5f35d9d8bf74",
      "blockNumber": "0x731952",
      "gasUsed": "0xfd27",
      "effectiveGasPrice": "0x3b5439fd",
      "from": "0xc77f7fed3b5cc8249adc428c5f44c9063b9734b4",
      "to": "0x8aafd3ede9adb0ff97c7aebce82a919afb1c8764",
      "contractAddress": null
    }
  ],
  "libraries": [],
  "pending": [],
  "returns": {},
  "timestamp": 1737501865,
  "chain": 11155111,
  "commit": "1d2fb70"
}