{
  "transactions": [
    {
      "hash": "0xbdf84f1a1cbdad075d4d1f59b5a2f3df54d9bcfd0f5b36a834cbdc4da22eb42d",
      "transactionType": "CALL",
      "contractName": null,
      "contractAddress": "0x8aafd3ede9adb0ff97c7aebce82a919afb1c8764",
      "function": "sell(uint256)",
      "arguments": [
        "9191708989"
      ],
      "transaction": {
        "from": "0xc77f7fed3b5cc8249adc428c5f44c9063b9734b4",
        "to": "0x8aafd3ede9adb0ff97c7aebce82a919afb1c8764",
        "gas": "0x1722a",
        "value": "0x0",
        "input": "0xe4849b320000000000000000000000000000000000000000000000000000000223de593d",
        "nonce": "0x1381",
        "chainId": "0xaa36a7"
      },
      "additionalContracts": [],
      "isFixedGasLimit": false
    }
  ],
  "receipts": [
    {
      "status": "0x1",
      "cumulativeGasUsed": "0xbc4fc6",
      "logs": [
        {
          "address": "0x8aafd3ede9adb0ff97c7aebce82a919afb1c8764",
          "topics": [
            "0xddf252ad1be2c89b69c2b068fc378daa952ba7f163c4a11628f55a4df523b3ef",
            "0x000000000000000000000000c77f7fed3b5cc8249adc428c5f44c9063b9734b4",
            "0x0000000000000000000000000000000000000000000000000000000000000000"
          ],
          "data": "0x000000000000000000000000000000000000000000000000000000021f7c5056",
          "blockHash": "0x80434de388baca79ce7749bc7b6ee73ced9e701db0c7027380376b5d62526999",
          "blockNumber": "0x731aa5",
          "transactionHash": "0xbdf84f1a1cbdad075d4d1f59b5a2f3df54d9bcfd0f5b36a834cbdc4da22eb42d",
          "transactionIndex": "0x89",
          "logIndex": "0x73",
          "removed": false
        },
        {
          "address": "0x8aafd3ede9adb0ff97c7aebce82a919afb1c8764",
          "topics": [
            "0xddf252ad1be2c89b69c2b068fc378daa952ba7f163c4a11628f55a4df523b3ef",
            "0x000000000000000000000000c77f7fed3b5cc8249adc428c5f44c9063b9734b4",
            "0x000000000000000000000000c77f7fed3b5cc8249adc428c5f44c9063b9734b4"
          ],
          "data": "0x00000000000000000000000000000000000000000000000000000000046208e7",
          "blockHash": "0x80434de388baca79ce7749bc7b6ee73ced9e701db0c7027380376b5d62526999",
          "blockNumber": "0x731aa5",
          "transactionHash": "0xbdf84f1a1cbdad075d4d1f59b5a2f3df54d9bcfd0f5b36a834cbdc4da22eb42d",
          "transactionIndex": "0x89",
          "logIndex": "0x74",
          "removed": false
        },
        {
          "address": "0x8aafd3ede9adb0ff97c7aebce82a919afb1c8764",
          "topics": [
            "0x4afcb4a87cdbd9974efdb92ee48bc8d7cd0ae4bf217004db3d080cbaee652ca7"
          ],
          "data": "0x0000000000000000000000000000000000000000000000000000000067903c8c000000000000000000000000000000000000000000000000000cadb4f60e43500000000000000000000000000000000000000000000000000000000001f4864e",
          "blockHash": "0x80434de388baca79ce7749bc7b6ee73ced9e701db0c7027380376b5d62526999",
          "blockNumber": "0x731aa5",
          "transactionHash": "0xbdf84f1a1cbdad075d4d1f59b5a2f3df54d9bcfd0f5b36a834cbdc4da22eb42d",
          "transactionIndex": "0x89",
          "logIndex": "0x75",
          "removed": false
        }
      ],
      "logsBloom": "0x00000000000000000000000000000000000000000600000000000000000000000000000000000000000000000000000000000000000000004000000000000000000000000000004000000008000000000000000000000000000000000000000000000000020000000000000000000800020000000000000000000010000000000000000000000000000000000000000000000000000000000000010000000000000000000000000000000000000000004000000000000000000000000000000000000002000000800000000000000000000000000000080000000000000020000000000000000000000000000000000000000000000000000000000000000000",
      "type": "0x2",
      "transactionHash": "0xbdf84f1a1cbdad075d4d1f59b5a2f3df54d9bcfd0f5b36a834cbdc4da22eb42d",
      "transactionIndex": "0x89",
      "blockHash": "0x80434de388baca79ce7749bc7b6ee73ced9e701db0c7027380376b5d62526999",
      "blockNumber": "0x731aa5",
      "gasUsed": "0xfd1b",
      "effectiveGasPrice": "0x79a1afe9",
      "from": "0xc77f7fed3b5cc8249adc428c5f44c9063b9734b4",
      "to": "0x8aafd3ede9adb0ff97c7aebce82a919afb1c8764",
      "contractAddress": null
    }
  ],
  "libraries": [],
  "pending": [],
  "returns": {},
  "timestamp": 1737505933,
  "chain": 11155111,
  "commit": "1d2fb70"
}