{
  "transactions": [
    {
      "hash": "0xb4b882f8885aa6008bbb65c0fffbd93fc16b5482ec340d4c17dc659374ebedf2",
      "transactionType": "CALL",
      "contractName": null,
      "contractAddress": "0x5eb9cc76c3506942c1c0ead70e877dd5e4f00cb0",
      "function": "buy(address)",
      "arguments": [
        "0xC77f7fed3b5Cc8249aDc428c5F44C9063B9734b4"
      ],
      "transaction": {
        "from": "0xc77f7fed3b5cc8249adc428c5f44c9063b9734b4",
        "to": "0x5eb9cc76c3506942c1c0ead70e877dd5e4f00cb0",
        "gas": "0x156c8",
        "value": "0xde0b6b3a7640000",
        "input": "0xf088d547000000000000000000000000c77f7fed3b5cc8249adc428c5f44c9063b9734b4",
        "nonce": "0x1a7",
        "chainId": "0xaa36a7"
      },
      "additionalContracts": [],
      "isFixedGasLimit": false
    }
  ],
  "receipts": [
    {
      "status": "0x1",
      "cumulativeGasUsed": "0x9fdf91",
      "logs": [
        {
          "address": "0x5eb9cc76c3506942c1c0ead70e877dd5e4f00cb0",
          "topics": [
            "0xddf252ad1be2c89b69c2b068fc378daa952ba7f163c4a11628f55a4df523b3ef",
            "0x0000000000000000000000000000000000000000000000000000000000000000",
            "0x000000000000000000000000c77f7fed3b5cc8249adc428c5f44c9063b9734b4"
          ],
          "data": "0x000000000000000000000000000000000000000000000035a3764715c9aade0f",
          "blockHash": "0x7268b63893cfb608bc234d981764950b130c45d86c99fe950cfcdfc9c25f7743",
          "blockNumber": "0x723c8e",
          "transactionHash": "0xb4b882f8885aa6008bbb65c0fffbd93fc16b5482ec340d4c17dc659374ebedf2",
          "transactionIndex": "0x6d",
          "logIndex": "0xc5",
          "removed": false
        },
        {
          "address": "0x5eb9cc76c3506942c1c0ead70e877dd5e4f00cb0",
          "topics": [
            "0xddf252ad1be2c89b69c2b068fc378daa952ba7f163c4a11628f55a4df523b3ef",
            "0x0000000000000000000000000000000000000000000000000000000000000000",
            "0x000000000000000000000000c77f7fed3b5cc8249adc428c5f44c9063b9734b4"
          ],
          "data": "0x00000000000000000000000000000000000000000000000029a6f2d9fa22ab96",
          "blockHash": "0x7268b63893cfb608bc234d981764950b130c45d86c99fe950cfcdfc9c25f7743",
          "blockNumber": "0x723c8e",
          "transactionHash": "0xb4b882f8885aa6008bbb65c0fffbd93fc16b5482ec340d4c17dc659374ebedf2",
          "transactionIndex": "0x6d",
          "logIndex": "0xc6",
          "removed": false
        },
        {
          "address": "0x5eb9cc76c3506942c1c0ead70e877dd5e4f00cb0",
          "topics": [
            "0x4afcb4a87cdbd9974efdb92ee48bc8d7cd0ae4bf217004db3d080cbaee652ca7"
          ],
          "data": "0x000000000000000000000000000000000000000000000000000000006785c7fc00000000000000000000000000000000000000000000000000038dfea73141560000000000000000000000000000000000000000000000000de0b6b3a7640000",
          "blockHash": "0x7268b63893cfb608bc234d981764950b130c45d86c99fe950cfcdfc9c25f7743",
          "blockNumber": "0x723c8e",
          "transactionHash": "0xb4b882f8885aa6008bbb65c0fffbd93fc16b5482ec340d4c17dc659374ebedf2",
          "transactionIndex": "0x6d",
          "logIndex": "0xc7",
          "removed": false
        }
      ],
      "logsBloom": "0x00000000000000000000000000000000000000000000000000000000000000000000000000000000000000000000000000000000000000004000000000000000000000000000000000000008000000000000000000000000000000000000000000000000020000000000000004000800020000000000000000000010000000000000000000000000000000000000000000000000000000000000010000000000000000000000000000000000000000004000000000000000000000000000020000000002000000800000008000000000000000000000080000000000000020000000000000000000000000000000000000000000000000000000000000000000",
      "type": "0x2",
      "transactionHash": "0xb4b882f8885aa6008bbb65c0fffbd93fc16b5482ec340d4c17dc659374ebedf2",
      "transactionIndex": "0x6d",
      "blockHash": "0x7268b63893cfb608bc234d981764950b130c45d86c99fe950cfcdfc9c25f7743",
      "blockNumber": "0x723c8e",
      "gasUsed": "0xf82c",
      "effectiveGasPrice": "0x1a21edb5e",
      "from": "0xc77f7fed3b5cc8249adc428c5f44c9063b9734b4",
      "to": "0x5eb9cc76c3506942c1c0ead70e877dd5e4f00cb0",
      "contractAddress": null
    }
  ],
  "libraries": [],
  "pending": [],
  "returns": {},
  "timestamp": 1736820732,
  "chain": 11155111,
  "commit": "51a374b"
}