{
  "transactions": [
    {
      "hash": "0x04f107fd3ced04c250f88855e87719169098f13eb459e742e61c42fdbd749993",
      "transactionType": "CALL",
      "contractName": null,
      "contractAddress": "0x5eb9cc76c3506942c1c0ead70e877dd5e4f00cb0",
      "function": "sell(uint256)",
      "arguments": [
        "989144620025578658493"
      ],
      "transaction": {
        "from": "0xc77f7fed3b5cc8249adc428c5f44c9063b9734b4",
        "to": "0x5eb9cc76c3506942c1c0ead70e877dd5e4f00cb0",
        "gas": "0x16fec",
        "value": "0x0",
        "input": "0xe4849b320000000000000000000000000000000000000000000000359f239f33515a1abd",
        "nonce": "0x2e9",
        "chainId": "0xaa36a7"
      },
      "additionalContracts": [],
      "isFixedGasLimit": false
    }
  ],
  "receipts": [
    {
      "status": "0x1",
      "cumulativeGasUsed": "0xb651ea",
      "logs": [
        {
          "address": "0x5eb9cc76c3506942c1c0ead70e877dd5e4f00cb0",
          "topics": [
            "0xddf252ad1be2c89b69c2b068fc378daa952ba7f163c4a11628f55a4df523b3ef",
            "0x000000000000000000000000c77f7fed3b5cc8249adc428c5f44c9063b9734b4",
            "0x0000000000000000000000000000000000000000000000000000000000000000"
          ],
          "data": "0x0000000000000000000000000000000000000000000000359f239f33515a1abd",
          "blockHash": "0x80b33791492a25808eb1b99c282cb8d35b975bb5c56e3655f57025bc0de322e1",
          "blockNumber": "0x724ec7",
          "transactionHash": "0x04f107fd3ced04c250f88855e87719169098f13eb459e742e61c42fdbd749993",
          "transactionIndex": "0x4c",
          "logIndex": "0x77",
          "removed": false
        },
        {
          "address": "0x5eb9cc76c3506942c1c0ead70e877dd5e4f00cb0",
          "topics": [
            "0x4afcb4a87cdbd9974efdb92ee48bc8d7cd0ae4bf217004db3d080cbaee652ca7"
          ],
          "data": "0x000000000000000000000000000000000000000000000000000000006786a3080000000000000000000000000000000000000000000000000003910aed7ec2380000000000000000000000000000000000000000000000000dc7db133236d804",
          "blockHash": "0x80b33791492a25808eb1b99c282cb8d35b975bb5c56e3655f57025bc0de322e1",
          "blockNumber": "0x724ec7",
          "transactionHash": "0x04f107fd3ced04c250f88855e87719169098f13eb459e742e61c42fdbd749993",
          "transactionIndex": "0x4c",
          "logIndex": "0x78",
          "removed": false
        }
      ],
      "logsBloom": "0x00000000000000000000000000000000000000000000000000000000000000000000000000000000000000000000000000000000000000004000000000000000000000000000000000000008000000000000000000000000000000000000000000000000020000000000000004000800020000000000000000000010000000000000000000000000000000000000000000000000000000000000010000000000000000000000000000000000000000004000000000000000000000000000020000000002000000800000008000000000000000000000080000000000000020000000000000000000000000000000000000000000000000000000000000000000",
      "type": "0x2",
      "transactionHash": "0x04f107fd3ced04c250f88855e87719169098f13eb459e742e61c42fdbd749993",
      "transactionIndex": "0x4c",
      "blockHash": "0x80b33791492a25808eb1b99c282cb8d35b975bb5c56e3655f57025bc0de322e1",
      "blockNumber": "0x724ec7",
      "gasUsed": "0xfb93",
      "effectiveGasPrice": "0x4bb1f2509",
      "from": "0xc77f7fed3b5cc8249adc428c5f44c9063b9734b4",
      "to": "0x5eb9cc76c3506942c1c0ead70e877dd5e4f00cb0",
      "contractAddress": null
    }
  ],
  "libraries": [],
  "pending": [],
  "returns": {},
  "timestamp": 1736876810,
  "chain": 11155111,
  "commit": "51a374b"
}