{
  "transactions": [
    {
      "hash": "0xe7a7d3b23992f3d5724e1c95db9ec7568cefa01cf7fcd53b1fa6aa901aade9d0",
      "transactionType": "CALL",
      "contractName": null,
      "contractAddress": "0x8aafd3ede9adb0ff97c7aebce82a919afb1c8764",
      "function": "sell(uint256)",
      "arguments": [
        "749048139607927852977"
      ],
      "transaction": {
        "from": "0xc77f7fed3b5cc8249adc428c5f44c9063b9734b4",
        "to": "0x8aafd3ede9adb0ff97c7aebce82a919afb1c8764",
        "gas": "0x17270",
        "value": "0x0",
        "input": "0xe4849b320000000000000000000000000000000000000000000000289b219258a5be8fb1",
        "nonce": "0xe7e",
        "chainId": "0xaa36a7"
      },
      "additionalContracts": [],
      "isFixedGasLimit": false
    }
  ],
  "receipts": [
    {
      "status": "0x1",
      "cumulativeGasUsed": "0xff652a",
      "logs": [
        {
          "address": "0x8aafd3ede9adb0ff97c7aebce82a919afb1c8764",
          "topics": [
            "0xddf252ad1be2c89b69c2b068fc378daa952ba7f163c4a11628f55a4df523b3ef",
            "0x000000000000000000000000c77f7fed3b5cc8249adc428c5f44c9063b9734b4",
            "0x0000000000000000000000000000000000000000000000000000000000000000"
          ],
          "data": "0x00000000000000000000000000000000000000000000002847f857d4ddc32e4a",
          "blockHash": "0x01b16b2595f6f8489654d91bab4b15312d132fc49acfaf6df26ecd17c3e85b79",
          "blockNumber": "0x7313d8",
          "transactionHash": "0xe7a7d3b23992f3d5724e1c95db9ec7568cefa01cf7fcd53b1fa6aa901aade9d0",
          "transactionIndex": "0xa2",
          "logIndex": "0x11d",
          "removed": false
        },
        {
          "address": "0x8aafd3ede9adb0ff97c7aebce82a919afb1c8764",
          "topics": [
            "0xddf252ad1be2c89b69c2b068fc378daa952ba7f163c4a11628f55a4df523b3ef",
            "0x000000000000000000000000c77f7fed3b5cc8249adc428c5f44c9063b9734b4",
            "0x000000000000000000000000c77f7fed3b5cc8249adc428c5f44c9063b9734b4"
          ],
          "data": "0x00000000000000000000000000000000000000000000000053293a83c7fb6167",
          "blockHash": "0x01b16b2595f6f8489654d91bab4b15312d132fc49acfaf6df26ecd17c3e85b79",
          "blockNumber": "0x7313d8",
          "transactionHash": "0xe7a7d3b23992f3d5724e1c95db9ec7568cefa01cf7fcd53b1fa6aa901aade9d0",
          "transactionIndex": "0xa2",
          "logIndex": "0x11e",
          "removed": false
        },
        {
          "address": "0x8aafd3ede9adb0ff97c7aebce82a919afb1c8764",
          "topics": [
            "0x4afcb4a87cdbd9974efdb92ee48bc8d7cd0ae4bf217004db3d080cbaee652ca7"
          ],
          "data": "0x00000000000000000000000000000000000000000000000000000000678feab40000000000000000000000000000000000000000000000000004b61e40ea16b50000000000000000000000000000000000000000000000000dc834c952fa6581",
          "blockHash": "0x01b16b2595f6f8489654d91bab4b15312d132fc49acfaf6df26ecd17c3e85b79",
          "blockNumber": "0x7313d8",
          "transactionHash": "0xe7a7d3b23992f3d5724e1c95db9ec7568cefa01cf7fcd53b1fa6aa901aade9d0",
          "transactionIndex": "0xa2",
          "logIndex": "0x11f",
          "removed": false
        }
      ],
      "logsBloom": "0x00000000000000000000000000000000000000000600000000000000000000000000000000000000000000000000000000000000000000004000000000000000000000000000004000000008000000000000000000000000000000000000000000000000020000000000000000000800020000000000000000000010000000000000000000000000000000000000000000000000000000000000010000000000000000000000000000000000000000004000000000000000000000000000000000000002000000800000000000000000000000000000080000000000000020000000000000000000000000000000000000000000000000000000000000000000",
      "type": "0x2",
      "transactionHash": "0xe7a7d3b23992f3d5724e1c95db9ec7568cefa01cf7fcd53b1fa6aa901aade9d0",
      "transactionIndex": "0xa2",
      "blockHash": "0x01b16b2595f6f8489654d91bab4b15312d132fc49acfaf6df26ecd17c3e85b79",
      "blockNumber": "0x7313d8",
      "gasUsed": "0xfd4b",
      "effectiveGasPrice": "0x68e1c812",
      "from": "0xc77f7fed3b5cc8249adc428c5f44c9063b9734b4",
      "to": "0x8aafd3ede9adb0ff97c7aebce82a919afb1c8764",
      "contractAddress": null
    }
  ],
  "libraries": [],
  "pending": [],
  "returns": {},
  "timestamp": 1737484982,
  "chain": 11155111,
  "commit": "51a374b"
}