{
  "transactions": [
    {
      "hash": "0x440c6ee8b08bf5def25b0fbd25bccaf0bd783b52908f2203da8221f734f14232",
      "transactionType": "CALL",
      "contractName": null,
      "contractAddress": "0xbf4a322f1496e5c3d34a9bcdb4c60567b38c7de2",
      "function": "buy(address)",
      "arguments": [
        "0xC77f7fed3b5Cc8249aDc428c5F44C9063B9734b4"
      ],
      "transaction": {
        "from": "0xc77f7fed3b5cc8249adc428c5f44c9063b9734b4",
        "to": "0xbf4a322f1496e5c3d34a9bcdb4c60567b38c7de2",
        "gas": "0x1b309",
        "value": "0xde0b6b3a7640000",
        "input": "0xf088d547000000000000000000000000c77f7fed3b5cc8249adc428c5f44c9063b9734b4",
        "nonce": "0x8fa",
        "chainId": "0xaa36a7"
      },
      "additionalContracts": [],
      "isFixedGasLimit": false
    }
  ],
  "receipts": [
    {
      "status": "0x1",
      "cumulativeGasUsed": "0xddd481",
      "logs": [
        {
          "address": "0xbf4a322f1496e5c3d34a9bcdb4c60567b38c7de2",
          "topics": [
            "0xddf252ad1be2c89b69c2b068fc378daa952ba7f163c4a11628f55a4df523b3ef",
            "0x0000000000000000000000000000000000000000000000000000000000000000",
            "0x000000000000000000000000c77f7fed3b5cc8249adc428c5f44c9063b9734b4"
          ],
          "data": "0x0000000000000000000000000000000000000000000000358cc884debc65167d",
          "blockHash": "0x62188a0ee930a3290a46d102b3574dab474f9398d03946e66da1641cbdff55d5",
          "blockNumber": "0x725872",
          "transactionHash": "0x440c6ee8b08bf5def25b0fbd25bccaf0bd783b52908f2203da8221f734f14232",
          "transactionIndex": "0x61",
          "logIndex": "0x80",
          "removed": false
        },
        {
          "address": "0xbf4a322f1496e5c3d34a9bcdb4c60567b38c7de2",
          "topics": [
            "0xddf252ad1be2c89b69c2b068fc378daa952ba7f163c4a11628f55a4df523b3ef",
            "0x0000000000000000000000000000000000000000000000000000000000000000",
            "0x000000000000000000000000c77f7fed3b5cc8249adc428c5f44c9063b9734b4"
          ],
          "data": "0x0000000000000000000000000000000000000000000000002995567b5a3ce44e",
          "blockHash": "0x62188a0ee930a3290a46d102b3574dab474f9398d03946e66da1641cbdff55d5",
          "blockNumber": "0x725872",
          "transactionHash": "0x440c6ee8b08bf5def25b0fbd25bccaf0bd783b52908f2203da8221f734f14232",
          "transactionIndex": "0x61",
          "logIndex": "0x81",
          "removed": false
        },
        {
          "address": "0xbf4a322f1496e5c3d34a9bcdb4c60567b38c7de2",
          "topics": [
            "0x4afcb4a87cdbd9974efdb92ee48bc8d7cd0ae4bf217004db3d080cbaee652ca7"
          ],
          "data": "0x000000000000000000000000000000000000000000000000000000006787178400000000000000000000000000000000000000000000000000038f8257c4d5c00000000000000000000000000000000000000000000000000de0b6b3a7640000",
          "blockHash": "0x62188a0ee930a3290a46d102b3574dab474f9398d03946e66da1641cbdff55d5",
          "blockNumber": "0x725872",
          "transactionHash": "0x440c6ee8b08bf5def25b0fbd25bccaf0bd783b52908f2203da8221f734f14232",
          "transactionIndex": "0x61",
          "logIndex": "0x82",
          "removed": false
        }
      ],
      "logsBloom": "0x00000000000000000000000000000000000000000000000000000000000000000000000000000000000000000000000000000000000000004000000000000000000000000000000000000008000000000000001000000000000000000000000000000000020000000000000000000800020000000000000000000010000000000000000000000000000000000000000000000000000008000000010000000000000000000000000000000000000000004000000000000000000000000000000000000002000000800000000000001000000000000000080000000000000020000000000000000000000000000000000000000000000000000000000000000000",
      "type": "0x2",
      "transactionHash": "0x440c6ee8b08bf5def25b0fbd25bccaf0bd783b52908f2203da8221f734f14232",
      "transactionIndex": "0x61",
      "blockHash": "0x62188a0ee930a3290a46d102b3574dab474f9398d03946e66da1641cbdff55d5",
      "blockNumber": "0x725872",
      "gasUsed": "0x13af6",
      "effectiveGasPrice": "0x258c7648",
      "from": "0xc77f7fed3b5cc8249adc428c5f44c9063b9734b4",
      "to": "0xbf4a322f1496e5c3d34a9bcdb4c60567b38c7de2",
      "contractAddress": null
    }
  ],
  "libraries": [],
  "pending": [],
  "returns": {},
  "timestamp": 1736906630,
  "chain": 11155111,
  "commit": "51a374b"
}