{
  "transactions": [
    {
      "hash": "0x5ffe0b4cb9106524769104438e100694d6ca89e880125f315c400002ece43259",
      "transactionType": "CALL",
      "contractName": null,
      "contractAddress": "0xbf4a322f1496e5c3d34a9bcdb4c60567b38c7de2",
      "function": "sell(uint256)",
      "arguments": [
        "988190210626701271776"
      ],
      "transaction": {
        "from": "0xc77f7fed3b5cc8249adc428c5f44c9063b9734b4",
        "to": "0xbf4a322f1496e5c3d34a9bcdb4c60567b38c7de2",
        "gas": "0x16fea",
        "value": "0x0",
        "input": "0xe4849b3200000000000000000000000000000000000000000000003591e4e0e8aaf8a2e0",
        "nonce": "0x9bb",
        "chainId": "0xaa36a7"
      },
      "additionalContracts": [],
      "isFixedGasLimit": false
    }
  ],
  "receipts": [
    {
      "status": "0x1",
      "cumulativeGasUsed": "0x158aeca",
      "logs": [
        {
          "address": "0xbf4a322f1496e5c3d34a9bcdb4c60567b38c7de2",
          "topics": [
            "0xddf252ad1be2c89b69c2b068fc378daa952ba7f163c4a11628f55a4df523b3ef",
            "0x000000000000000000000000c77f7fed3b5cc8249adc428c5f44c9063b9734b4",
            "0x0000000000000000000000000000000000000000000000000000000000000000"
          ],
          "data": "0x00000000000000000000000000000000000000000000003591e4e0e8aaf8a2e0",
          "blockHash": "0xc02d94108db04fdc2b010ac2f9c5e1e634132600a407c92d6492ad36f5ebde5c",
          "blockNumber": "0x725966",
          "transactionHash": "0x5ffe0b4cb9106524769104438e100694d6ca89e880125f315c400002ece43259",
          "transactionIndex": "0x78",
          "logIndex": "0xcb",
          "removed": false
        },
        {
          "address": "0xbf4a322f1496e5c3d34a9bcdb4c60567b38c7de2",
          "topics": [
            "0x4afcb4a87cdbd9974efdb92ee48bc8d7cd0ae4bf217004db3d080cbaee652ca7"
          ],
          "data": "0x00000000000000000000000000000000000000000000000000000000678722f4000000000000000000000000000000000000000000000000000391f310c0f2060000000000000000000000000000000000000000000000000dc7e3f51bcd02de",
          "blockHash": "0xc02d94108db04fdc2b010ac2f9c5e1e634132600a407c92d6492ad36f5ebde5c",
          "blockNumber": "0x725966",
          "transactionHash": "0x5ffe0b4cb9106524769104438e100694d6ca89e880125f315c400002ece43259",
          "transactionIndex": "0x78",
          "logIndex": "0xcc",
          "removed": false
        }
      ],
      "logsBloom": "0x00000000000000000000000000000000000000000000000000000000000000000000000000000000000000000000000000000000000000004000000000000000000000000000000000000008000000000000001000000000000000000000000000000000020000000000000000000800020000000000000000000010000000000000000000000000000000000000000000000000000008000000010000000000000000000000000000000000000000004000000000000000000000000000000000000002000000800000000000001000000000000000080000000000000020000000000000000000000000000000000000000000000000000000000000000000",
      "type": "0x2",
      "transactionHash": "0x5ffe0b4cb9106524769104438e100694d6ca89e880125f315c400002ece43259",
      "transactionIndex": "0x78",
      "blockHash": "0xc02d94108db04fdc2b010ac2f9c5e1e634132600a407c92d6492ad36f5ebde5c",
      "blockNumber": "0x725966",
      "gasUsed": "0xfb91",
      "effectiveGasPrice": "0x2b58537e9",
      "from": "0xc77f7fed3b5cc8249adc428c5f44c9063b9734b4",
      "to": "0xbf4a322f1496e5c3d34a9bcdb4c60567b38c7de2",
      "contractAddress": null
    }
  ],
  "libraries": [],
  "pending": [],
  "returns": {},
  "timestamp": 1736909557,
  "chain": 11155111,
  "commit": "51a374b"
}