{
  "transactions": [
    {
      "hash": "0x7fefebc268c8c9dd4f4a34342960218b6c1f48d8200f6eb4a43cea22a0f0535f",
      "transactionType": "CALL",
      "contractName": null,
      "contractAddress": "0x5eb9cc76c3506942c1c0ead70e877dd5e4f00cb0",
      "function": "buy(address)",
      "arguments": [
        "0xC77f7fed3b5Cc8249aDc428c5F44C9063B9734b4"
      ],
      "transaction": {
        "from": "0xc77f7fed3b5cc8249adc428c5f44c9063b9734b4",
        "to": "0x5eb9cc76c3506942c1c0ead70e877dd5e4f00cb0",
        "gas": "0x1b30c",
        "value": "0xde0b6b3a7640000",
        "input": "0xf088d547000000000000000000000000c77f7fed3b5cc8249adc428c5f44c9063b9734b4",
        "nonce": "0x434",
        "chainId": "0xaa36a7"
      },
      "additionalContracts": [],
      "isFixedGasLimit": false
    }
  ],
  "receipts": [
    {
      "status": "0x1",
      "cumulativeGasUsed": "0x124b39e",
      "logs": [
        {
          "address": "0x5eb9cc76c3506942c1c0ead70e877dd5e4f00cb0",
          "topics": [
            "0xddf252ad1be2c89b69c2b068fc378daa952ba7f163c4a11628f55a4df523b3ef",
            "0x0000000000000000000000000000000000000000000000000000000000000000",
            "0x000000000000000000000000c77f7fed3b5cc8249adc428c5f44c9063b9734b4"
          ],
          "data": "0x00000000000000000000000000000000000000000000003574e4dedceb94b6fc",
          "blockHash": "0x2694c41af4f4ed973b77f8dbffa02dbfeca229722587185319ece14118b18e96",
          "blockNumber": "0x72504d",
          "transactionHash": "0x7fefebc268c8c9dd4f4a34342960218b6c1f48d8200f6eb4a43cea22a0f0535f",
          "transactionIndex": "0xa1",
          "logIndex": "0x112",
          "removed": false
        },
        {
          "address": "0x5eb9cc76c3506942c1c0ead70e877dd5e4f00cb0",
          "topics": [
            "0xddf252ad1be2c89b69c2b068fc378daa952ba7f163c4a11628f55a4df523b3ef",
            "0x0000000000000000000000000000000000000000000000000000000000000000",
            "0x000000000000000000000000c77f7fed3b5cc8249adc428c5f44c9063b9734b4"
          ],
          "data": "0x0000000000000000000000000000000000000000000000002982c978e2a7ab82",
          "blockHash": "0x2694c41af4f4ed973b77f8dbffa02dbfeca229722587185319ece14118b18e96",
          "blockNumber": "0x72504d",
          "transactionHash": "0x7fefebc268c8c9dd4f4a34342960218b6c1f48d8200f6eb4a43cea22a0f0535f",
          "transactionIndex": "0xa1",
          "logIndex": "0x113",
          "removed": false
        },
        {
          "address": "0x5eb9cc76c3506942c1c0ead70e877dd5e4f00cb0",
          "topics": [
            "0x4afcb4a87cdbd9974efdb92ee48bc8d7cd0ae4bf217004db3d080cbaee652ca7"
          ],
          "data": "0x000000000000000000000000000000000000000000000000000000006786b5680000000000000000000000000000000000000000000000000003911761e5dc0c0000000000000000000000000000000000000000000000000de0b6b3a7640000",
          "blockHash": "0x2694c41af4f4ed973b77f8dbffa02dbfeca229722587185319ece14118b18e96",
          "blockNumber": "0x72504d",
          "transactionHash": "0x7fefebc268c8c9dd4f4a34342960218b6c1f48d8200f6eb4a43cea22a0f0535f",
          "transactionIndex": "0xa1",
          "logIndex": "0x114",
          "removed": false
        }
      ],
      "logsBloom": "0x00000000000000000000000000000000000000000000000000000000000000000000000000000000000000000000000000000000000000004000000000000000000000000000000000000008000000000000000000000000000000000000000000000000020000000000000004000800020000000000000000000010000000000000000000000000000000000000000000000000000000000000010000000000000000000000000000000000000000004000000000000000000000000000020000000002000000800000008000000000000000000000080000000000000020000000000000000000000000000000000000000000000000000000000000000000",
      "type": "0x2",
      "transactionHash": "0x7fefebc268c8c9dd4f4a34342960218b6c1f48d8200f6eb4a43cea22a0f0535f",
      "transactionIndex": "0xa1",
      "blockHash": "0x2694c41af4f4ed973b77f8dbffa02dbfeca229722587185319ece14118b18e96",
      "blockNumber": "0x72504d",
      "gasUsed": "0x13af8",
      "effectiveGasPrice": "0x25c478668",
      "from": "0xc77f7fed3b5cc8249adc428c5f44c9063b9734b4",
      "to": "0x5eb9cc76c3506942c1c0ead70e877dd5e4f00cb0",
      "contractAddress": null
    }
  ],
  "libraries": [],
  "pending": [],
  "returns": {},
  "timestamp": 1736881514,
  "chain": 11155111,
  "commit": "51a374b"
}