{
  "transactions": [
    {
      "hash": "0x55ec598b0308ac3dbe24109cc4b9b0dd334185e75b9785d652f8718008b436d2",
      "transactionType": "CALL",
      "contractName": null,
      "contractAddress": "0x8aafd3ede9adb0ff97c7aebce82a919afb1c8764",
      "function": "sell(uint256)",
      "arguments": [
        "182196674"
      ],
      "transaction": {
        "from": "0xc77f7fed3b5cc8249adc428c5f44c9063b9734b4",
        "to": "0x8aafd3ede9adb0ff97c7aebce82a919afb1c8764",
        "gas": "0x14e6c",
        "value": "0x0",
        "input": "0xe4849b32000000000000000000000000000000000000000000000000000000000adc19c2",
        "nonce": "0x1141",
        "chainId": "0xaa36a7"
      },
      "additionalContracts": [],
      "isFixedGasLimit": false
    }
  ],
  "receipts": [
    {
      "status": "0x1",
      "cumulativeGasUsed": "0xa8f266",
      "logs": [
        {
          "address": "0x8aafd3ede9adb0ff97c7aebce82a919afb1c8764",
          "topics": [
            "0xddf252ad1be2c89b69c2b068fc378daa952ba7f163c4a11628f55a4df523b3ef",
            "0x000000000000000000000000c77f7fed3b5cc8249adc428c5f44c9063b9734b4",
            "0x0000000000000000000000000000000000000000000000000000000000000000"
          ],
          "data": "0x000000000000000000000000000000000000000000000000000000000ac5dc1d",
          "blockHash": "0xb8caffc4d76d7976f7da54d94e8f65cc90d68f44b531dde8b06593aa19c0fd24",
          "blockNumber": "0x7317fa",
          "transactionHash": "0x55ec598b0308ac3dbe24109cc4b9b0dd334185e75b9785d652f8718008b436d2",
          "transactionIndex": "0x7e",
          "logIndex": "0x8d",
          "removed": false
        },
        {
          "address": "0x8aafd3ede9adb0ff97c7aebce82a919afb1c8764",
          "topics": [
            "0xddf252ad1be2c89b69c2b068fc378daa952ba7f163c4a11628f55a4df523b3ef",
            "0x000000000000000000000000c77f7fed3b5cc8249adc428c5f44c9063b9734b4",
            "0x000000000000000000000000c77f7fed3b5cc8249adc428c5f44c9063b9734b4"
          ],
          "data": "0x0000000000000000000000000000000000000000000000000000000000163da5",
          "blockHash": "0xb8caffc4d76d7976f7da54d94e8f65cc90d68f44b531dde8b06593aa19c0fd24",
          "blockNumber": "0x7317fa",
          "transactionHash": "0x55ec598b0308ac3dbe24109cc4b9b0dd334185e75b9785d652f8718008b436d2",
          "transactionIndex": "0x7e",
          "logIndex": "0x8e",
          "removed": false
        },
        {
          "address": "0x8aafd3ede9adb0ff97c7aebce82a919afb1c8764",
          "topics": [
            "0x4afcb4a87cdbd9974efdb92ee48bc8d7cd0ae4bf217004db3d080cbaee652ca7"
          ],
          "data": "0x0000000000000000000000000000000000000000000000000000000067901c7c000000000000000000000000000000000000000000000000000514dfe886f96a000000000000000000000000000000000000000000000000000000000003f9f8",
          "blockHash": "0xb8caffc4d76d7976f7da54d94e8f65cc90d68f44b531dde8b06593aa19c0fd24",
          "blockNumber": "0x7317fa",
          "transactionHash": "0x55ec598b0308ac3dbe24109cc4b9b0dd334185e75b9785d652f8718008b436d2",
          "transactionIndex": "0x7e",
          "logIndex": "0x8f",
          "removed": false
        }
      ],
      "logsBloom": "0x00000000000000000000000000000000000000000600000000000000000000000000000000000000000000000000000000000000000000004000000000000000000000000000004000000008000000000000000000000000000000000000000000000000020000000000000000000800020000000000000000000010000000000000000000000000000000000000000000000000000000000000010000000000000000000000000000000000000000004000000000000000000000000000000000000002000000800000000000000000000000000000080000000000000020000000000000000000000000000000000000000000000000000000000000000000",
      "type": "0x2",
      "transactionHash": "0x55ec598b0308ac3dbe24109cc4b9b0dd334185e75b9785d652f8718008b436d2",
      "transactionIndex": "0x7e",
      "blockHash": "0xb8caffc4d76d7976f7da54d94e8f65cc90d68f44b531dde8b06593aa19c0fd24",
      "blockNumber": "0x7317fa",
      "gasUsed": "0xf21f",
      "effectiveGasPrice": "0x38eec51d",
      "from": "0xc77f7fed3b5cc8249adc428c5f44c9063b9734b4",
      "to": "0x8aafd3ede9adb0ff97c7aebce82a919afb1c8764",
      "contractAddress": null
    }
  ],
  "libraries": [],
  "pending": [],
  "returns": {},
  "timestamp": 1737497725,
  "chain": 11155111,
  "commit": "1d2fb70"
}