{
  "transactions": [
    {
      "hash": "0x1e04e9aea876e3a216cbc498011220da3055c41c122617a42f818e2525356885",
      "transactionType": "CALL",
      "contractName": null,
      "contractAddress": "0x8aafd3ede9adb0ff97c7aebce82a919afb1c8764",
      "function": "sell(uint256)",
      "arguments": [
        "58690152"
      ],
      "transaction": {
        "from": "0xc77f7fed3b5cc8249adc428c5f44c9063b9734b4",
        "to": "0x8aafd3ede9adb0ff97c7aebce82a919afb1c8764",
        "gas": "0x15d88",
        "value": "0x0",
        "input": "0xe4849b3200000000000000000000000000000000000000000000000000000000037f8a68",
        "nonce": "0x1499",
        "chainId": "0xaa36a7"
      },
      "additionalContracts": [],
      "isFixedGasLimit": false
    }
  ],
  "receipts": [
    {
      "status": "0x1",
      "cumulativeGasUsed": "0x10e1f5d",
      "logs": [
        {
          "address": "0x8aafd3ede9adb0ff97c7aebce82a919afb1c8764",
          "topics": [
            "0xddf252ad1be2c89b69c2b068fc378daa952ba7f163c4a11628f55a4df523b3ef",
            "0x000000000000000000000000c77f7fed3b5cc8249adc428c5f44c9063b9734b4",
            "0x0000000000000000000000000000000000000000000000000000000000000000"
          ],
          "data": "0x0000000000000000000000000000000000000000000000000000000003786057",
          "blockHash": "0x21d8aa5c2ebfd7e3c2a6eed67b50abdc974c457403ac60d9b926825a3521be3b",
          "blockNumber": "0x731beb",
          "transactionHash": "0x1e04e9aea876e3a216cbc498011220da3055c41c122617a42f818e2525356885",
          "transactionIndex": "0xa2",
          "logIndex": "0xc9",
          "removed": false
        },
        {
          "address": "0x8aafd3ede9adb0ff97c7aebce82a919afb1c8764",
          "topics": [
            "0xddf252ad1be2c89b69c2b068fc378daa952ba7f163c4a11628f55a4df523b3ef",
            "0x000000000000000000000000c77f7fed3b5cc8249adc428c5f44c9063b9734b4",
            "0x000000000000000000000000c77f7fed3b5cc8249adc428c5f44c9063b9734b4"
          ],
          "data": "0x0000000000000000000000000000000000000000000000000000000000072a11",
          "blockHash": "0x21d8aa5c2ebfd7e3c2a6eed67b50abdc974c457403ac60d9b926825a3521be3b",
          "blockNumber": "0x731beb",
          "transactionHash": "0x1e04e9aea876e3a216cbc498011220da3055c41c122617a42f818e2525356885",
          "transactionIndex": "0xa2",
          "logIndex": "0xca",
          "removed": false
        },
        {
          "address": "0x8aafd3ede9adb0ff97c7aebce82a919afb1c8764",
          "topics": [
            "0x4afcb4a87cdbd9974efdb92ee48bc8d7cd0ae4bf217004db3d080cbaee652ca7"
          ],
          "data": "0x0000000000000000000000000000000000000000000000000000000067904be0000000000000000000000000000000000000000000000000000fdc573e80c956000000000000000000000000000000000000000000000000000000000003ff7f",
          "blockHash": "0x21d8aa5c2ebfd7e3c2a6eed67b50abdc974c457403ac60d9b926825a3521be3b",
          "blockNumber": "0x731beb",
          "transactionHash": "0x1e04e9aea876e3a216cbc498011220da3055c41c122617a42f818e2525356885",
          "transactionIndex": "0xa2",
          "logIndex": "0xcb",
          "removed": false
        }
      ],
      "logsBloom": "0x00000000000000000000000000000000000000000600000000000000000000000000000000000000000000000000000000000000000000004000000000000000000000000000004000000008000000000000000000000000000000000000000000000000020000000000000000000800020000000000000000000010000000000000000000000000000000000000000000000000000000000000010000000000000000000000000000000000000000004000000000000000000000000000000000000002000000800000000000000000000000000000080000000000000020000000000000000000000000000000000000000000000000000000000000000000",
      "type": "0x2",
      "transactionHash": "0x1e04e9aea876e3a216cbc498011220da3055c41c122617a42f818e2525356885",
      "transactionIndex": "0xa2",
      "blockHash": "0x21d8aa5c2ebfd7e3c2a6eed67b50abdc974c457403ac60d9b926825a3521be3b",
      "blockNumber": "0x731beb",
      "gasUsed": "0xfd0f",
      "effectiveGasPrice": "0x100e829b3",
      "from": "0xc77f7fed3b5cc8249adc428c5f44c9063b9734b4",
      "to": "0x8aafd3ede9adb0ff97c7aebce82a919afb1c8764",
      "contractAddress": null
    }
  ],
  "libraries": [],
  "pending": [],
  "returns": {},
  "timestamp": 1737509859,
  "chain": 11155111,
  "commit": "1d2fb70"
}