{
  "transactions": [
    {
      "hash": "0xa85c1f43fa7dd32b4397db103c327f9ce5c08d9ac4ec33ed915a62a447d421dc",
      "transactionType": "CALL",
      "contractName": null,
      "contractAddress": "0xbf4a322f1496e5c3d34a9bcdb4c60567b38c7de2",
      "function": "buy(address)",
      "arguments": [
        "0xC77f7fed3b5Cc8249aDc428c5F44C9063B9734b4"
      ],
      "transaction": {
        "from": "0xc77f7fed3b5cc8249adc428c5f44c9063b9734b4",
        "to": "0xbf4a322f1496e5c3d34a9bcdb4c60567b38c7de2",
        "gas": "0x1b309",
        "value": "0xde0b6b3a7640000",
        "input": "0xf088d547000000000000000000000000c77f7fed3b5cc8249adc428c5f44c9063b9734b4",
        "nonce": "0xdc8",
        "chainId": "0xaa36a7"
      },
      "additionalContracts": [],
      "isFixedGasLimit": false
    }
  ],
  "receipts": [
    {
      "status": "0x1",
      "cumulativeGasUsed": "0x19c6ff0",
      "logs": [
        {
          "address": "0xbf4a322f1496e5c3d34a9bcdb4c60567b38c7de2",
          "topics": [
            "0xddf252ad1be2c89b69c2b068fc378daa952ba7f163c4a11628f55a4df523b3ef",
            "0x0000000000000000000000000000000000000000000000000000000000000000",
            "0x000000000000000000000000c77f7fed3b5cc8249adc428c5f44c9063b9734b4"
          ],
          "data": "0x000000000000000000000000000000000000000000000034a7213f688f9e84d7",
          "blockHash": "0x71e831471c35b20a220f54f69b88c2e52f7e21408b27ce37d21eaf73a46959e1",
          "blockNumber": "0x7266a5",
          "transactionHash": "0xa85c1f43fa7dd32b4397db103c327f9ce5c08d9ac4ec33ed915a62a447d421dc",
          "transactionIndex": "0xa1",
          "logIndex": "0x122",
          "removed": false
        },
        {
          "address": "0xbf4a322f1496e5c3d34a9bcdb4c60567b38c7de2",
          "topics": [
            "0xddf252ad1be2c89b69c2b068fc378daa952ba7f163c4a11628f55a4df523b3ef",
            "0x0000000000000000000000000000000000000000000000000000000000000000",
            "0x000000000000000000000000c77f7fed3b5cc8249adc428c5f44c9063b9734b4"
          ],
          "data": "0x00000000000000000000000000000000000000000000000028e3010de6147ff8",
          "blockHash": "0x71e831471c35b20a220f54f69b88c2e52f7e21408b27ce37d21eaf73a46959e1",
          "blockNumber": "0x7266a5",
          "transactionHash": "0xa85c1f43fa7dd32b4397db103c327f9ce5c08d9ac4ec33ed915a62a447d421dc",
          "transactionIndex": "0xa1",
          "logIndex": "0x123",
          "removed": false
        },
        {
          "address": "0xbf4a322f1496e5c3d34a9bcdb4c60567b38c7de2",
          "topics": [
            "0x4afcb4a87cdbd9974efdb92ee48bc8d7cd0ae4bf217004db3d080cbaee652ca7"
          ],
          "data": "0x000000000000000000000000000000000000000000000000000000006787c2c000000000000000000000000000000000000000000000000000039f09fd20f5c80000000000000000000000000000000000000000000000000de0b6b3a7640000",
          "blockHash": "0x71e831471c35b20a220f54f69b88c2e52f7e21408b27ce37d21eaf73a46959e1",
          "blockNumber": "0x7266a5",
          "transactionHash": "0xa85c1f43fa7dd32b4397db103c327f9ce5c08d9ac4ec33ed915a62a447d421dc",
          "transactionIndex": "0xa1",
          "logIndex": "0x124",
          "removed": false
        }
      ],
      "logsBloom": "0x00000000000000000000000000000000000000000000000000000000000000000000000000000000000000000000000000000000000000004000000000000000000000000000000000000008000000000000001000000000000000000000000000000000020000000000000000000800020000000000000000000010000000000000000000000000000000000000000000000000000008000000010000000000000000000000000000000000000000004000000000000000000000000000000000000002000000800000000000001000000000000000080000000000000020000000000000000000000000000000000000000000000000000000000000000000",
      "type": "0x2",
      "transactionHash": "0xa85c1f43fa7dd32b4397db103c327f9ce5c08d9ac4ec33ed915a62a447d421dc",
      "transactionIndex": "0xa1",
      "blockHash": "0x71e831471c35b20a220f54f69b88c2e52f7e21408b27ce37d21eaf73a46959e1",
      "blockNumber": "0x7266a5",
      "gasUsed": "0x13af6",
      "effectiveGasPrice": "0x105cfbfed",
      "from": "0xc77f7fed3b5cc8249adc428c5f44c9063b9734b4",
      "to": "0xbf4a322f1496e5c3d34a9bcdb4c60567b38c7de2",
      "contractAddress": null
    }
  ],
  "libraries": [],
  "pending": [],
  "returns": {},
  "timestamp": 1736950465,
  "chain": 11155111,
  "commit": "51a374b"
}