{
  "transactions": [
    {
      "hash": "0x3444780df6ed50196d6b404ee95d7c87d590ad7e44d6c742afce5c5f2f1d2ec6",
      "transactionType": "CALL",
      "contractName": null,
      "contractAddress": "0x8aafd3ede9adb0ff97c7aebce82a919afb1c8764",
      "function": "sell(uint256)",
      "arguments": [
        "5674368840856185228"
      ],
      "transaction": {
        "from": "0xc77f7fed3b5cc8249adc428c5f44c9063b9734b4",
        "to": "0x8aafd3ede9adb0ff97c7aebce82a919afb1c8764",
        "gas": "0x15dca",
        "value": "0x0",
        "input": "0xe4849b320000000000000000000000000000000000000000000000004ebf68658bc7298c",
        "nonce": "0x1088",
        "chainId": "0xaa36a7"
      },
      "additionalContracts": [],
      "isFixedGasLimit": false
    }
  ],
  "receipts": [
    {
      "status": "0x1",
      "cumulativeGasUsed": "0xafcc05",
      "logs": [
        {
          "address": "0x8aafd3ede9adb0ff97c7aebce82a919afb1c8764",
          "topics": [
            "0xddf252ad1be2c89b69c2b068fc378daa952ba7f163c4a11628f55a4df523b3ef",
            "0x000000000000000000000000c77f7fed3b5cc8249adc428c5f44c9063b9734b4",
            "0x0000000000000000000000000000000000000000000000000000000000000000"
          ],
          "data": "0x0000000000000000000000000000000000000000000000004e1e21edf31b95c3",
          "blockHash": "0xc74ea55259b238651572fb6b893999048621c07127a566f090a9917a31d87d2e",
          "blockNumber": "0x731714",
          "transactionHash": "0x3444780df6ed50196d6b404ee95d7c87d590ad7e44d6c742afce5c5f2f1d2ec6",
          "transactionIndex": "0x78",
          "logIndex": "0x8c",
          "removed": false
        },
        {
          "address": "0x8aafd3ede9adb0ff97c7aebce82a919afb1c8764",
          "topics": [
            "0xddf252ad1be2c89b69c2b068fc378daa952ba7f163c4a11628f55a4df523b3ef",
            "0x000000000000000000000000c77f7fed3b5cc8249adc428c5f44c9063b9734b4",
            "0x000000000000000000000000c77f7fed3b5cc8249adc428c5f44c9063b9734b4"
          ],
          "data": "0x00000000000000000000000000000000000000000000000000a1467798ab93c9",
          "blockHash": "0xc74ea55259b238651572fb6b893999048621c07127a566f090a9917a31d87d2e",
          "blockNumber": "0x731714",
          "transactionHash": "0x3444780df6ed50196d6b404ee95d7c87d590ad7e44d6c742afce5c5f2f1d2ec6",
          "transactionIndex": "0x78",
          "logIndex": "0x8d",
          "removed": false
        },
        {
          "address": "0x8aafd3ede9adb0ff97c7aebce82a919afb1c8764",
          "topics": [
            "0x4afcb4a87cdbd9974efdb92ee48bc8d7cd0ae4bf217004db3d080cbaee652ca7"
          ],
          "data": "0x00000000000000000000000000000000000000000000000000000000679011b40000000000000000000000000000000000000000000000000004fabae09b71cb000000000000000000000000000000000000000000000000001c413db97dbe70",
          "blockHash": "0xc74ea55259b238651572fb6b893999048621c07127a566f090a9917a31d87d2e",
          "blockNumber": "0x731714",
          "transactionHash": "0x3444780df6ed50196d6b404ee95d7c87d590ad7e44d6c742afce5c5f2f1d2ec6",
          "transactionIndex": "0x78",
          "logIndex": "0x8e",
          "removed": false
        }
      ],
      "logsBloom": "0x00000000000000000000000000000000000000000600000000000000000000000000000000000000000000000000000000000000000000004000000000000000000000000000004000000008000000000000000000000000000000000000000000000000020000000000000000000800020000000000000000000010000000000000000000000000000000000000000000000000000000000000010000000000000000000000000000000000000000004000000000000000000000000000000000000002000000800000000000000000000000000000080000000000000020000000000000000000000000000000000000000000000000000000000000000000",
      "type": "0x2",
      "transactionHash": "0x3444780df6ed50196d6b404ee95d7c87d590ad7e44d6c742afce5c5f2f1d2ec6",
      "transactionIndex": "0x78",
      "blockHash": "0xc74ea55259b238651572fb6b893999048621c07127a566f090a9917a31d87d2e",
      "blockNumber": "0x731714",
      "gasUsed": "0xfd3f",
      "effectiveGasPrice": "0x42c62de8",
      "from": "0xc77f7fed3b5cc8249adc428c5f44c9063b9734b4",
      "to": "0x8aafd3ede9adb0ff97c7aebce82a919afb1c8764",
      "contractAddress": null
    }
  ],
  "libraries": [],
  "pending": [],
  "returns": {},
  "timestamp": 1737494965,
  "chain": 11155111,
  "commit": "1d2fb70"
}