{
  "transactions": [
    {
      "hash": "0xc64313d078b6858932e96a6157bcc3cca9bb7876d3a11892bc50c4a2689dabeb",
      "transactionType": "CALL",
      "contractName": null,
      "contractAddress": "0x8aafd3ede9adb0ff97c7aebce82a919afb1c8764",
      "function": "sell(uint256)",
      "arguments": [
        "150918385766586289451"
      ],
      "transaction": {
        "from": "0xc77f7fed3b5cc8249adc428c5f44c9063b9734b4",
        "to": "0x8aafd3ede9adb0ff97c7aebce82a919afb1c8764",
        "gas": "0x17270",
        "value": "0x0",
        "input": "0xe4849b320000000000000000000000000000000000000000000000082e69d0413cbe8d2b",
        "nonce": "0x1724",
        "chainId": "0xaa36a7"
      },
      "additionalContracts": [],
      "isFixedGasLimit": false
    }
  ],
  "receipts": [
    {
      "status": "0x1",
      "cumulativeGasUsed": "0x7f79ce",
      "logs": [
        {
          "address": "0x8aafd3ede9adb0ff97c7aebce82a919afb1c8764",
          "topics": [
            "0xddf252ad1be2c89b69c2b068fc378daa952ba7f163c4a11628f55a4df523b3ef",
            "0x000000000000000000000000c77f7fed3b5cc8249adc428c5f44c9063b9734b4",
            "0x0000000000000000000000000000000000000000000000000000000000000000"
          ],
          "data": "0x0000000000000000000000000000000000000000000000081da8747a0f33cfa0",
          "blockHash": "0x3abfec3e704bdb70cdf9ab0f00b3cd93cbe75673afab1b840ec3305dcc8ce47d",
          "blockNumber": "0x731eeb",
          "transactionHash": "0xc64313d078b6858932e96a6157bcc3cca9bb7876d3a11892bc50c4a2689dabeb",
          "transactionIndex": "0x61",
          "logIndex": "0xa2",
          "removed": false
        },
        {
          "address": "0x8aafd3ede9adb0ff97c7aebce82a919afb1c8764",
          "topics": [
            "0xddf252ad1be2c89b69c2b068fc378daa952ba7f163c4a11628f55a4df523b3ef",
            "0x000000000000000000000000c77f7fed3b5cc8249adc428c5f44c9063b9734b4",
            "0x000000000000000000000000c77f7fed3b5cc8249adc428c5f44c9063b9734b4"
          ],
          "data": "0x00000000000000000000000000000000000000000000000010c15bc72d8abd8b",
          "blockHash": "0x3abfec3e704bdb70cdf9ab0f00b3cd93cbe75673afab1b840ec3305dcc8ce47d",
          "blockNumber": "0x731eeb",
          "transactionHash": "0xc64313d078b6858932e96a6157bcc3cca9bb7876d3a11892bc50c4a2689dabeb",
          "transactionIndex": "0x61",
          "logIndex": "0xa3",
          "removed": false
        },
        {
          "address": "0x8aafd3ede9adb0ff97c7aebce82a919afb1c8764",
          "topics": [
            "0x4afcb4a87cdbd9974efdb92ee48bc8d7cd0ae4bf217004db3d080cbaee652ca7"
          ],
          "data": "0x0000000000000000000000000000000000000000000000000000000067906fec00000000000000000000000000000000000000000000000000177b05daf601b50000000000000000000000000000000000000000000000000dcbec0fc66fcedf",
          "blockHash": "0x3abfec3e704bdb70cdf9ab0f00b3cd93cbe75673afab1b840ec3305dcc8ce47d",
          "blockNumber": "0x731eeb",
          "transactionHash": "0xc64313d078b6858932e96a6157bcc3cca9bb7876d3a11892bc50c4a2689dabeb",
          "transactionIndex": "0x61",
          "logIndex": "0xa4",
          "removed": false
        }
      ],
      "logsBloom": "0x00000000000000000000000000000000000000000600000000000000000000000000000000000000000000000000000000000000000000004000000000000000000000000000004000000008000000000000000000000000000000000000000000000000020000000000000000000800020000000000000000000010000000000000000000000000000000000000000000000000000000000000010000000000000000000000000000000000000000004000000000000000000000000000000000000002000000800000000000000000000000000000080000000000000020000000000000000000000000000000000000000000000000000000000000000000",
      "type": "0x2",
      "transactionHash": "0xc64313d078b6858932e96a6157bcc3cca9bb7876d3a11892bc50c4a2689dabeb",
      "transactionIndex": "0x61",
      "blockHash": "0x3abfec3e704bdb70cdf9ab0f00b3cd93cbe75673afab1b840ec3305dcc8ce47d",
      "blockNumber": "0x731eeb",
      "gasUsed": "0xfd4b",
      "effectiveGasPrice": "0x47f9430d",
      "from": "0xc77f7fed3b5cc8249adc428c5f44c9063b9734b4",
      "to": "0x8aafd3ede9adb0ff97c7aebce82a919afb1c8764",
      "contractAddress": null
    }
  ],
  "libraries": [],
  "pending": [],
  "returns": {},
  "timestamp": 1737519085,
  "chain": 11155111,
  "commit": "1d2fb70"
}