{
  "transactions": [
    {
      "hash": "0x80dc1a18c493540537de694b91b5353cd5749c4169284a99ea9bcdb6d99b27ce",
      "transactionType": "CALL",
      "contractName": null,
      "contractAddress": "0x8aafd3ede9adb0ff97c7aebce82a919afb1c8764",
      "function": "sell(uint256)",
      "arguments": [
        "1496033"
      ],
      "transaction": {
        "from": "0xc77f7fed3b5cc8249adc428c5f44c9063b9734b4",
        "to": "0x8aafd3ede9adb0ff97c7aebce82a919afb1c8764",
        "gas": "0x16208",
        "value": "0x0",
        "input": "0xe4849b32000000000000000000000000000000000000000000000000000000000016d3e1",
        "nonce": "0x105c",
        "chainId": "0xaa36a7"
      },
      "additionalContracts": [],
      "isFixedGasLimit": false
    }
  ],
  "receipts": [
    {
      "status": "0x1",
      "cumulativeGasUsed": "0x1372956",
      "logs": [
        {
          "address": "0x8aafd3ede9adb0ff97c7aebce82a919afb1c8764",
          "topics": [
            "0xddf252ad1be2c89b69c2b068fc378daa952ba7f163c4a11628f55a4df523b3ef",
            "0x000000000000000000000000c77f7fed3b5cc8249adc428c5f44c9063b9734b4",
            "0x0000000000000000000000000000000000000000000000000000000000000000"
          ],
          "data": "0x000000000000000000000000000000000000000000000000000000000016a521",
          "blockHash": "0x0cd6c40f0ec4681f2b581bdd2aeb7f8d2071135c84d97415afb0106789994e5c",
          "blockNumber": "0x7316e2",
          "transactionHash": "0x80dc1a18c493540537de694b91b5353cd5749c4169284a99ea9bcdb6d99b27ce",
          "transactionIndex": "0xc2",
          "logIndex": "0x121",
          "removed": false
        },
        {
          "address": "0x8aafd3ede9adb0ff97c7aebce82a919afb1c8764",
          "topics": [
            "0xddf252ad1be2c89b69c2b068fc378daa952ba7f163c4a11628f55a4df523b3ef",
            "0x000000000000000000000000c77f7fed3b5cc8249adc428c5f44c9063b9734b4",
            "0x000000000000000000000000c77f7fed3b5cc8249adc428c5f44c9063b9734b4"
          ],
          "data": "0x0000000000000000000000000000000000000000000000000000000000002ec0",
          "blockHash": "0x0cd6c40f0ec4681f2b581bdd2aeb7f8d2071135c84d97415afb0106789994e5c",
          "blockNumber": "0x7316e2",
          "transactionHash": "0x80dc1a18c493540537de694b91b5353cd5749c4169284a99ea9bcdb6d99b27ce",
          "transactionIndex": "0xc2",
          "logIndex": "0x122",
          "removed": false
        },
        {
          "address": "0x8aafd3ede9adb0ff97c7aebce82a919afb1c8764",
          "topics": [
            "0x4afcb4a87cdbd9974efdb92ee48bc8d7cd0ae4bf217004db3d080cbaee652ca7"
          ],
          "data": "0x0000000000000000000000000000000000000000000000000000000067900f500000000000000000000000000000000000000000000000000004f378090ee01c0000000000000000000000000000000000000000000000000000000000000824",
          "blockHash": "0x0cd6c40f0ec4681f2b581bdd2aeb7f8d2071135c84d97415afb0106789994e5c",
          "blockNumber": "0x7316e2",
          "transactionHash": "0x80dc1a18c493540537de694b91b5353cd5749c4169284a99ea9bcdb6d99b27ce",
          "transactionIndex": "0xc2",
          "logIndex": "0x123",
          "removed": false
        }
      ],
      "logsBloom": "0x00000000000000000000000000000000000000000600000000000000000000000000000000000000000000000000000000000000000000004000000000000000000000000000004000000008000000000000000000000000000000000000000000000000020000000000000000000800020000000000000000000010000000000000000000000000000000000000000000000000000000000000010000000000000000000000000000000000000000004000000000000000000000000000000000000002000000800000000000000000000000000000080000000000000020000000000000000000000000000000000000000000000000000000000000000000",
      "type": "0x2",
      "transactionHash": "0x80dc1a18c493540537de694b91b5353cd5749c4169284a99ea9bcdb6d99b27ce",
      "transactionIndex": "0xc2",
      "blockHash": "0x0cd6c40f0ec4681f2b581bdd2aeb7f8d2071135c84d97415afb0106789994e5c",
      "blockNumber": "0x7316e2",
      "gasUsed": "0xf213",
      "effectiveGasPrice": "0x3830d322",
      "from": "0xc77f7fed3b5cc8249adc428c5f44c9063b9734b4",
      "to": "0x8aafd3ede9adb0ff97c7aebce82a919afb1c8764",
      "contractAddress": null
    }
  ],
  "libraries": [],
  "pending": [],
  "returns": {},
  "timestamp": 1737494353,
  "chain": 11155111,
  "commit": "1d2fb70"
}