{
  "transactions": [
    {
      "hash": "0xb72df0db393989d2679e0dd65493091b0636039990aeafbb21bd8f03c8337ce9",
      "transactionType": "CALL",
      "contractName": null,
      "contractAddress": "0xbf4a322f1496e5c3d34a9bcdb4c60567b38c7de2",
      "function": "sell(uint256)",
      "arguments": [
        "984734761254179638403"
      ],
      "transaction": {
        "from": "0xc77f7fed3b5cc8249adc428c5f44c9063b9734b4",
        "to": "0xbf4a322f1496e5c3d34a9bcdb4c60567b38c7de2",
        "gas": "0x16fea",
        "value": "0x0",
        "input": "0xe4849b3200000000000000000000000000000000000000000000003561f0a80326790c83",
        "nonce": "0xab9",
        "chainId": "0xaa36a7"
      },
      "additionalContracts": [],
      "isFixedGasLimit": false
    }
  ],
  "receipts": [
    {
      "status": "0x1",
      "cumulativeGasUsed": "0x1c31fb4",
      "logs": [
        {
          "address": "0xbf4a322f1496e5c3d34a9bcdb4c60567b38c7de2",
          "topics": [
            "0xddf252ad1be2c89b69c2b068fc378daa952ba7f163c4a11628f55a4df523b3ef",
            "0x000000000000000000000000c77f7fed3b5cc8249adc428c5f44c9063b9734b4",
            "0x0000000000000000000000000000000000000000000000000000000000000000"
          ],
          "data": "0x00000000000000000000000000000000000000000000003561f0a80326790c83",
          "blockHash": "0x2abd2b8eaee7d2ab69d249f1a238310134bb3bbc09616a8c89726a5fe1b297af",
          "blockNumber": "0x725aa6",
          "transactionHash": "0xb72df0db393989d2679e0dd65493091b0636039990aeafbb21bd8f03c8337ce9",
          "transactionIndex": "0xd1",
          "logIndex": "0x159",
          "removed": false
        },
        {
          "address": "0xbf4a322f1496e5c3d34a9bcdb4c60567b38c7de2",
          "topics": [
            "0x4afcb4a87cdbd9974efdb92ee48bc8d7cd0ae4bf217004db3d080cbaee652ca7"
          ],
          "data": "0x0000000000000000000000000000000000000000000000000000000067873218000000000000000000000000000000000000000000000000000395280d02fd8a0000000000000000000000000000000000000000000000000dc7e3ed13209326",
          "blockHash": "0x2abd2b8eaee7d2ab69d249f1a238310134bb3bbc09616a8c89726a5fe1b297af",
          "blockNumber": "0x725aa6",
          "transactionHash": "0xb72df0db393989d2679e0dd65493091b0636039990aeafbb21bd8f03c8337ce9",
          "transactionIndex": "0xd1",
          "logIndex": "0x15a",
          "removed": false
        }
      ],
      "logsBloom": "0x00000000000000000000000000000000000000000000000000000000000000000000000000000000000000000000000000000000000000004000000000000000000000000000000000000008000000000000001000000000000000000000000000000000020000000000000000000800020000000000000000000010000000000000000000000000000000000000000000000000000008000000010000000000000000000000000000000000000000004000000000000000000000000000000000000002000000800000000000001000000000000000080000000000000020000000000000000000000000000000000000000000000000000000000000000000",
      "type": "0x2",
      "transactionHash": "0xb72df0db393989d2679e0dd65493091b0636039990aeafbb21bd8f03c8337ce9",
      "transactionIndex": "0xd1",
      "blockHash": "0x2abd2b8eaee7d2ab69d249f1a238310134bb3bbc09616a8c89726a5fe1b297af",
      "blockNumber": "0x725aa6",
      "gasUsed": "0xfb91",
      "effectiveGasPrice": "0x10c25fd6e",
      "from": "0xc77f7fed3b5cc8249adc428c5f44c9063b9734b4",
      "to": "0xbf4a322f1496e5c3d34a9bcdb4c60567b38c7de2",
      "contractAddress": null
    }
  ],
  "libraries": [],
  "pending": [],
  "returns": {},
  "timestamp": 1736913433,
  "chain": 11155111,
  "commit": "51a374b"
}