{
  "transactions": [
    {
      "hash": "0x9f338898b30dd6bce8f05f336c5516cd77300a33d480b6e3a689ce316fc51465",
      "transactionType": "CALL",
      "contractName": null,
      "contractAddress": "0x270e88f8683660553e8ba4eb2ad7c91a1710d769",
      "function": "sell(uint256)",
      "arguments": [
        "952850934056201953205"
      ],
      "transaction": {
        "from": "0xc77f7fed3b5cc8249adc428c5f44c9063b9734b4",
        "to": "0x270e88f8683660553e8ba4eb2ad7c91a1710d769",
        "gas": "0x16fec",
        "value": "0x0",
        "input": "0xe4849b32000000000000000000000000000000000000000000000033a7768c1a7f131fb5",
        "nonce": "0x5db",
        "chainId": "0xaa36a7"
      },
      "additionalContracts": [],
      "isFixedGasLimit": false
    }
  ],
  "receipts": [
    {
      "status": "0x1",
      "cumulativeGasUsed": "0x8b8608",
      "logs": [
        {
          "address": "0x270e88f8683660553e8ba4eb2ad7c91a1710d769",
          "topics": [
            "0xddf252ad1be2c89b69c2b068fc378daa952ba7f163c4a11628f55a4df523b3ef",
            "0x000000000000000000000000c77f7fed3b5cc8249adc428c5f44c9063b9734b4",
            "0x0000000000000000000000000000000000000000000000000000000000000000"
          ],
          "data": "0x000000000000000000000000000000000000000000000033a7768c1a7f131fb5",
          "blockHash": "0x7f694c522ba1dac97692afc8457e1b00997c56ffd583715fff8d0f76eeff3bcf",
          "blockNumber": "0x72529c",
          "transactionHash": "0x9f338898b30dd6bce8f05f336c5516cd77300a33d480b6e3a689ce316fc51465",
          "transactionIndex": "0x4e",
          "logIndex": "0x9b",
          "removed": false
        },
        {
          "address": "0x270e88f8683660553e8ba4eb2ad7c91a1710d769",
          "topics": [
            "0x4afcb4a87cdbd9974efdb92ee48bc8d7cd0ae4bf217004db3d080cbaee652ca7"
          ],
          "data": "0x000000000000000000000000000000000000000000000000000000006786d1580000000000000000000000000000000000000000000000000003b41cc3f2b4b40000000000000000000000000000000000000000000000000dc83e73a1a03053",
          "blockHash": "0x7f694c522ba1dac97692afc8457e1b00997c56ffd583715fff8d0f76eeff3bcf",
          "blockNumber": "0x72529c",
          "transactionHash": "0x9f338898b30dd6bce8f05f336c5516cd77300a33d480b6e3a689ce316fc51465",
          "transactionIndex": "0x4e",
          "logIndex": "0x9c",
          "removed": false
        }
      ],
      "logsBloom": "0x00000000000000000000000000000000000000000000000000000000000000000000000000000000000000000000000020000000000000004000000000000000000000000000000000000008000000000000000000000000000000000000000000000000020000000000000000000800020000000000000000000010000000000000000000010000000000000000000000000000000000000000010000000000000000000000000000000000000000004000000000000000000000000000000000000002000000800000000000000000000000000000080000008000000020000000000000000000000000000000000000000000000000000000000000000000",
      "type": "0x2",
      "transactionHash": "0x9f338898b30dd6bce8f05f336c5516cd77300a33d480b6e3a689ce316fc51465",
      "transactionIndex": "0x4e",
      "blockHash": "0x7f694c522ba1dac97692afc8457e1b00997c56ffd583715fff8d0f76eeff3bcf",
      "blockNumber": "0x72529c",
      "gasUsed": "0xfb93",
      "effectiveGasPrice": "0x373b1add9",
      "from": "0xc77f7fed3b5cc8249adc428c5f44c9063b9734b4",
      "to": "0x270e88f8683660553e8ba4eb2ad7c91a1710d769",
      "contractAddress": null
    }
  ],
  "libraries": [],
  "pending": [],
  "returns": {},
  "timestamp": 1736888665,
  "chain": 11155111,
  "commit": "51a374b"
}