{
  "transactions": [
    {
      "hash": "0x2f609cbac175253b35d89ac09d5b0762cecd0c45df5efdfe9587814816c01293",
      "transactionType": "CALL",
      "contractName": null,
      "contractAddress": "0xbf4a322f1496e5c3d34a9bcdb4c60567b38c7de2",
      "function": "sell(uint256)",
      "arguments": [
        "984138633043769972148"
      ],
      "transaction": {
        "from": "0xc77f7fed3b5cc8249adc428c5f44c9063b9734b4",
        "to": "0xbf4a322f1496e5c3d34a9bcdb4c60567b38c7de2",
        "gas": "0x16fea",
        "value": "0x0",
        "input": "0xe4849b3200000000000000000000000000000000000000000000003559aac890386a55b4",
        "nonce": "0xae5",
        "chainId": "0xaa36a7"
      },
      "additionalContracts": [],
      "isFixedGasLimit": false
    }
  ],
  "receipts": [
    {
      "status": "0x1",
      "cumulativeGasUsed": "0xbf0637",
      "logs": [
        {
          "address": "0xbf4a322f1496e5c3d34a9bcdb4c60567b38c7de2",
          "topics": [
            "0xddf252ad1be2c89b69c2b068fc378daa952ba7f163c4a11628f55a4df523b3ef",
            "0x000000000000000000000000c77f7fed3b5cc8249adc428c5f44c9063b9734b4",
            "0x0000000000000000000000000000000000000000000000000000000000000000"
          ],
          "data": "0x00000000000000000000000000000000000000000000003559aac890386a55b4",
          "blockHash": "0xa15ae09057f6fbb7a4fd06405f158359a4cd6cb234f0406f24c474caa89d07b3",
          "blockNumber": "0x725ad8",
          "transactionHash": "0x2f609cbac175253b35d89ac09d5b0762cecd0c45df5efdfe9587814816c01293",
          "transactionIndex": "0x91",
          "logIndex": "0xc4",
          "removed": false
        },
        {
          "address": "0xbf4a322f1496e5c3d34a9bcdb4c60567b38c7de2",
          "topics": [
            "0x4afcb4a87cdbd9974efdb92ee48bc8d7cd0ae4bf217004db3d080cbaee652ca7"
          ],
          "data": "0x0000000000000000000000000000000000000000000000000000000067873470000000000000000000000000000000000000000000000000000395b644d783de0000000000000000000000000000000000000000000000000dc7e3ebb04fb6f7",
          "blockHash": "0xa15ae09057f6fbb7a4fd06405f158359a4cd6cb234f0406f24c474caa89d07b3",
          "blockNumber": "0x725ad8",
          "transactionHash": "0x2f609cbac175253b35d89ac09d5b0762cecd0c45df5efdfe9587814816c01293",
          "transactionIndex": "0x91",
          "logIndex": "0xc5",
          "removed": false
        }
      ],
      "logsBloom": "0x00000000000000000000000000000000000000000000000000000000000000000000000000000000000000000000000000000000000000004000000000000000000000000000000000000008000000000000001000000000000000000000000000000000020000000000000000000800020000000000000000000010000000000000000000000000000000000000000000000000000008000000010000000000000000000000000000000000000000004000000000000000000000000000000000000002000000800000000000001000000000000000080000000000000020000000000000000000000000000000000000000000000000000000000000000000",
      "type": "0x2",
      "transactionHash": "0x2f609cbac175253b35d89ac09d5b0762cecd0c45df5efdfe9587814816c01293",
      "transactionIndex": "0x91",
      "blockHash": "0xa15ae09057f6fbb7a4fd06405f158359a4cd6cb234f0406f24c474caa89d07b3",
      "blockNumber": "0x725ad8",
      "gasUsed": "0xfb91",
      "effectiveGasPrice": "0xaed41791",
      "from": "0xc77f7fed3b5cc8249adc428c5f44c9063b9734b4",
      "to": "0xbf4a322f1496e5c3d34a9bcdb4c60567b38c7de2",
      "contractAddress": null
    }
  ],
  "libraries": [],
  "pending": [],
  "returns": {},
  "timestamp": 1736914033,
  "chain": 11155111,
  "commit": "51a374b"
}