{
  "transactions": [
    {
      "hash": "0x1b042f80123e41b54035fb21381d7edd90868650b2c88f51e095502d156ba242",
      "transactionType": "CALL",
      "contractName": null,
      "contractAddress": "0xbf4a322f1496e5c3d34a9bcdb4c60567b38c7de2",
      "function": "buy(address)",
      "arguments": [
        "0xC77f7fed3b5Cc8249aDc428c5F44C9063B9734b4"
      ],
      "transaction": {
        "from": "0xc77f7fed3b5cc8249adc428c5f44c9063b9734b4",
        "to": "0xbf4a322f1496e5c3d34a9bcdb4c60567b38c7de2",
        "gas": "0x1b309",
        "value": "0xde0b6b3a7640000",
        "input": "0xf088d547000000000000000000000000c77f7fed3b5cc8249adc428c5f44c9063b9734b4",
        "nonce": "0xdc0",
        "chainId": "0xaa36a7"
      },
      "additionalContracts": [],
      "isFixedGasLimit": false
    }
  ],
  "receipts": [
    {
      "status": "0x1",
      "cumulativeGasUsed": "0x139bb38",
      "logs": [
        {
          "address": "0xbf4a322f1496e5c3d34a9bcdb4c60567b38c7de2",
          "topics": [
            "0xddf252ad1be2c89b69c2b068fc378daa952ba7f163c4a11628f55a4df523b3ef",
            "0x0000000000000000000000000000000000000000000000000000000000000000",
            "0x000000000000000000000000c77f7fed3b5cc8249adc428c5f44c9063b9734b4"
          ],
          "data": "0x000000000000000000000000000000000000000000000034a8994446b5cc64ad",
          "blockHash": "0xfad16ddce4d2085e11b4ac20e28caab2222c9e8b743bf77839f20510fbf11153",
          "blockNumber": "0x72669b",
          "transactionHash": "0x1b042f80123e41b54035fb21381d7edd90868650b2c88f51e095502d156ba242",
          "transactionIndex": "0x73",
          "logIndex": "0x161",
          "removed": false
        },
        {
          "address": "0xbf4a322f1496e5c3d34a9bcdb4c60567b38c7de2",
          "topics": [
            "0xddf252ad1be2c89b69c2b068fc378daa952ba7f163c4a11628f55a4df523b3ef",
            "0x0000000000000000000000000000000000000000000000000000000000000000",
            "0x000000000000000000000000c77f7fed3b5cc8249adc428c5f44c9063b9734b4"
          ],
          "data": "0x00000000000000000000000000000000000000000000000028e4250bbefb1d47",
          "blockHash": "0xfad16ddce4d2085e11b4ac20e28caab2222c9e8b743bf77839f20510fbf11153",
          "blockNumber": "0x72669b",
          "transactionHash": "0x1b042f80123e41b54035fb21381d7edd90868650b2c88f51e095502d156ba242",
          "transactionIndex": "0x73",
          "logIndex": "0x162",
          "removed": false
        },
        {
          "address": "0xbf4a322f1496e5c3d34a9bcdb4c60567b38c7de2",
          "topics": [
            "0x4afcb4a87cdbd9974efdb92ee48bc8d7cd0ae4bf217004db3d080cbaee652ca7"
          ],
          "data": "0x000000000000000000000000000000000000000000000000000000006787c23c00000000000000000000000000000000000000000000000000039ef0217d335b0000000000000000000000000000000000000000000000000de0b6b3a7640000",
          "blockHash": "0xfad16ddce4d2085e11b4ac20e28caab2222c9e8b743bf77839f20510fbf11153",
          "blockNumber": "0x72669b",
          "transactionHash": "0x1b042f80123e41b54035fb21381d7edd90868650b2c88f51e095502d156ba242",
          "transactionIndex": "0x73",
          "logIndex": "0x163",
          "removed": false
        }
      ],
      "logsBloom": "0x00000000000000000000000000000000000000000000000000000000000000000000000000000000000000000000000000000000000000004000000000000000000000000000000000000008000000000000001000000000000000000000000000000000020000000000000000000800020000000000000000000010000000000000000000000000000000000000000000000000000008000000010000000000000000000000000000000000000000004000000000000000000000000000000000000002000000800000000000001000000000000000080000000000000020000000000000000000000000000000000000000000000000000000000000000000",
      "type": "0x2",
      "transactionHash": "0x1b042f80123e41b54035fb21381d7edd90868650b2c88f51e095502d156ba242",
      "transactionIndex": "0x73",
      "blockHash": "0xfad16ddce4d2085e11b4ac20e28caab2222c9e8b743bf77839f20510fbf11153",
      "blockNumber": "0x72669b",
      "gasUsed": "0x13af6",
      "effectiveGasPrice": "0xbf94e66a",
      "from": "0xc77f7fed3b5cc8249adc428c5f44c9063b9734b4",
      "to": "0xbf4a322f1496e5c3d34a9bcdb4c60567b38c7de2",
      "contractAddress": null
    }
  ],
  "libraries": [],
  "pending": [],
  "returns": {},
  "timestamp": 1736950335,
  "chain": 11155111,
  "commit": "51a374b"
}