{
  "transactions": [
    {
      "hash": "0x41ce693d9921ea5722a3994ee67a9daa91b63e5037fb5022ba2f34706fe25fc1",
      "transactionType": "CALL",
      "contractName": null,
      "contractAddress": "0x8aafd3ede9adb0ff97c7aebce82a919afb1c8764",
      "function": "sell(uint256)",
      "arguments": [
        "44342934"
      ],
      "transaction": {
        "from": "0xc77f7fed3b5cc8249adc428c5f44c9063b9734b4",
        "to": "0x8aafd3ede9adb0ff97c7aebce82a919afb1c8764",
        "gas": "0x15d88",
        "value": "0x0",
        "input": "0xe4849b320000000000000000000000000000000000000000000000000000000002a49e96",
        "nonce": "0x1652",
        "chainId": "0xaa36a7"
      },
      "additionalContracts": [],
      "isFixedGasLimit": false
    }
  ],
  "receipts": [
    {
      "status": "0x1",
      "cumulativeGasUsed": "0xe24f12",
      "logs": [
        {
          "address": "0x8aafd3ede9adb0ff97c7aebce82a919afb1c8764",
          "topics": [
            "0xddf252ad1be2c89b69c2b068fc378daa952ba7f163c4a11628f55a4df523b3ef",
            "0x000000000000000000000000c77f7fed3b5cc8249adc428c5f44c9063b9734b4",
            "0x0000000000000000000000000000000000000000000000000000000000000000"
          ],
          "data": "0x00000000000000000000000000000000000000000000000000000000029f34df",
          "blockHash": "0xfc281aa370cf6816774785941861129ae33a0b137a58397194f8a72ecee0c2e9",
          "blockNumber": "0x731df0",
          "transactionHash": "0x41ce693d9921ea5722a3994ee67a9daa91b63e5037fb5022ba2f34706fe25fc1",
          "transactionIndex": "0x90",
          "logIndex": "0xf7",
          "removed": false
        },
        {
          "address": "0x8aafd3ede9adb0ff97c7aebce82a919afb1c8764",
          "topics": [
            "0xddf252ad1be2c89b69c2b068fc378daa952ba7f163c4a11628f55a4df523b3ef",
            "0x000000000000000000000000c77f7fed3b5cc8249adc428c5f44c9063b9734b4",
            "0x000000000000000000000000c77f7fed3b5cc8249adc428c5f44c9063b9734b4"
          ],
          "data": "0x00000000000000000000000000000000000000000000000000000000000569b7",
          "blockHash": "0xfc281aa370cf6816774785941861129ae33a0b137a58397194f8a72ecee0c2e9",
          "blockNumber": "0x731df0",
          "transactionHash": "0x41ce693d9921ea5722a3994ee67a9daa91b63e5037fb5022ba2f34706fe25fc1",
          "transactionIndex": "0x90",
          "logIndex": "0xf8",
          "removed": false
        },
        {
          "address": "0x8aafd3ede9adb0ff97c7aebce82a919afb1c8764",
          "topics": [
            "0x4afcb4a87cdbd9974efdb92ee48bc8d7cd0ae4bf217004db3d080cbaee652ca7"
          ],
          "data": "0x00000000000000000000000000000000000000000000000000000000679064280000000000000000000000000000000000000000000000000014f5e4699ba27a000000000000000000000000000000000000000000000000000000000003fdf1",
          "blockHash": "0xfc281aa370cf6816774785941861129ae33a0b137a58397194f8a72ecee0c2e9",
          "blockNumber": "0x731df0",
          "transactionHash": "0x41ce693d9921ea5722a3994ee67a9daa91b63e5037fb5022ba2f34706fe25fc1",
          "transactionIndex": "0x90",
          "logIndex": "0xf9",
          "removed": false
        }
      ],
      "logsBloom": "0x00000000000000000000000000000000000000000600000000000000000000000000000000000000000000000000000000000000000000004000000000000000000000000000004000000008000000000000000000000000000000000000000000000000020000000000000000000800020000000000000000000010000000000000000000000000000000000000000000000000000000000000010000000000000000000000000000000000000000004000000000000000000000000000000000000002000000800000000000000000000000000000080000000000000020000000000000000000000000000000000000000000000000000000000000000000",
      "type": "0x2",
      "transactionHash": "0x41ce693d9921ea5722a3994ee67a9daa91b63e5037fb5022ba2f34706fe25fc1",
      "transactionIndex": "0x90",
      "blockHash": "0xfc281aa370cf6816774785941861129ae33a0b137a58397194f8a72ecee0c2e9",
      "blockNumber": "0x731df0",
      "gasUsed": "0xfd0f",
      "effectiveGasPrice": "0x4fa73b5a",
      "from": "0xc77f7fed3b5cc8249adc428c5f44c9063b9734b4",
      "to": "0x8aafd3ede9adb0ff97c7aebce82a919afb1c8764",
      "contractAddress": null
    }
  ],
  "libraries": [],
  "pending": [],
  "returns": {},
  "timestamp": 1737516074,
  "chain": 11155111,
  "commit": "1d2fb70"
}