{
  "transactions": [
    {
      "hash": "0xacc2a0324f549946d1fec3520a9bd33a07e7684abed81bd70edf222dafde3fcf",
      "transactionType": "CALL",
      "contractName": null,
      "contractAddress": "0xbf4a322f1496e5c3d34a9bcdb4c60567b38c7de2",
      "function": "sell(uint256)",
      "arguments": [
        "984409510936085816677"
      ],
      "transaction": {
        "from": "0xc77f7fed3b5cc8249adc428c5f44c9063b9734b4",
        "to": "0xbf4a322f1496e5c3d34a9bcdb4c60567b38c7de2",
        "gas": "0x16fea",
        "value": "0x0",
        "input": "0xe4849b320000000000000000000000000000000000000000000000355d6d22923d686565",
        "nonce": "0xad1",
        "chainId": "0xaa36a7"
      },
      "additionalContracts": [],
      "isFixedGasLimit": false
    }
  ],
  "receipts": [
    {
      "status": "0x1",
      "cumulativeGasUsed": "0x6add12",
      "logs": [
        {
          "address": "0xbf4a322f1496e5c3d34a9bcdb4c60567b38c7de2",
          "topics": [
            "0xddf252ad1be2c89b69c2b068fc378daa952ba7f163c4a11628f55a4df523b3ef",
            "0x000000000000000000000000c77f7fed3b5cc8249adc428c5f44c9063b9734b4",
            "0x0000000000000000000000000000000000000000000000000000000000000000"
          ],
          "data": "0x0000000000000000000000000000000000000000000000355d6d22923d686565",
          "blockHash": "0xb431d347b4d0ae8b44c5398d2d58d2bae44a13bdc25b7cb0ce474ff36dc0357d",
          "blockNumber": "0x725ac3",
          "transactionHash": "0xacc2a0324f549946d1fec3520a9bd33a07e7684abed81bd70edf222dafde3fcf",
          "transactionIndex": "0x45",
          "logIndex": "0x53",
          "removed": false
        },
        {
          "address": "0xbf4a322f1496e5c3d34a9bcdb4c60567b38c7de2",
          "topics": [
            "0x4afcb4a87cdbd9974efdb92ee48bc8d7cd0ae4bf217004db3d080cbaee652ca7"
          ],
          "data": "0x0000000000000000000000000000000000000000000000000000000067873374000000000000000000000000000000000000000000000000000395759fd3a75e0000000000000000000000000000000000000000000000000dc7e3ec5189c394",
          "blockHash": "0xb431d347b4d0ae8b44c5398d2d58d2bae44a13bdc25b7cb0ce474ff36dc0357d",
          "blockNumber": "0x725ac3",
          "transactionHash": "0xacc2a0324f549946d1fec3520a9bd33a07e7684abed81bd70edf222dafde3fcf",
          "transactionIndex": "0x45",
          "logIndex": "0x54",
          "removed": false
        }
      ],
      "logsBloom": "0x00000000000000000000000000000000000000000000000000000000000000000000000000000000000000000000000000000000000000004000000000000000000000000000000000000008000000000000001000000000000000000000000000000000020000000000000000000800020000000000000000000010000000000000000000000000000000000000000000000000000008000000010000000000000000000000000000000000000000004000000000000000000000000000000000000002000000800000000000001000000000000000080000000000000020000000000000000000000000000000000000000000000000000000000000000000",
      "type": "0x2",
      "transactionHash": "0xacc2a0324f549946d1fec3520a9bd33a07e7684abed81bd70edf222dafde3fcf",
      "transactionIndex": "0x45",
      "blockHash": "0xb431d347b4d0ae8b44c5398d2d58d2bae44a13bdc25b7cb0ce474ff36dc0357d",
      "blockNumber": "0x725ac3",
      "gasUsed": "0xfb91",
      "effectiveGasPrice": "0xd8f0f428",
      "from": "0xc77f7fed3b5cc8249adc428c5f44c9063b9734b4",
      "to": "0xbf4a322f1496e5c3d34a9bcdb4c60567b38c7de2",
      "contractAddress": null
    }
  ],
  "libraries": [],
  "pending": [],
  "returns": {},
  "timestamp": 1736913781,
  "chain": 11155111,
  "commit": "51a374b"
}