{
  "transactions": [
    {
      "hash": "0x9f58c01d90f5ae7d156e2dc61660ce22eea5c7e3adee11990fcd70a83c421996",
      "transactionType": "CALL",
      "contractName": null,
      "contractAddress": "0xbf4a322f1496e5c3d34a9bcdb4c60567b38c7de2",
      "function": "sell(uint256)",
      "arguments": [
        "973291945131204857335"
      ],
      "transaction": {
        "from": "0xc77f7fed3b5cc8249adc428c5f44c9063b9734b4",
        "to": "0xbf4a322f1496e5c3d34a9bcdb4c60567b38c7de2",
        "gas": "0x16fea",
        "value": "0x0",
        "input": "0xe4849b32000000000000000000000000000000000000000000000034c3239b600672cdf7",
        "nonce": "0xe0f",
        "chainId": "0xaa36a7"
      },
      "additionalContracts": [],
      "isFixedGasLimit": false
    }
  ],
  "receipts": [
    {
      "status": "0x1",
      "cumulativeGasUsed": "0x1418716",
      "logs": [
        {
          "address": "0xbf4a322f1496e5c3d34a9bcdb4c60567b38c7de2",
          "topics": [
            "0xddf252ad1be2c89b69c2b068fc378daa952ba7f163c4a11628f55a4df523b3ef",
            "0x000000000000000000000000c77f7fed3b5cc8249adc428c5f44c9063b9734b4",
            "0x0000000000000000000000000000000000000000000000000000000000000000"
          ],
          "data": "0x000000000000000000000000000000000000000000000034c3239b600672cdf7",
          "blockHash": "0xa8cc0ed020067a2e00e3a32398d583718e48d3eb539aba9cba667010457f7fe9",
          "blockNumber": "0x7266f8",
          "transactionHash": "0x9f58c01d90f5ae7d156e2dc61660ce22eea5c7e3adee11990fcd70a83c421996",
          "transactionIndex": "0xc3",
          "logIndex": "0x15c",
          "removed": false
        },
        {
          "address": "0xbf4a322f1496e5c3d34a9bcdb4c60567b38c7de2",
          "topics": [
            "0x4afcb4a87cdbd9974efdb92ee48bc8d7cd0ae4bf217004db3d080cbaee652ca7"
          ],
          "data": "0x000000000000000000000000000000000000000000000000000000006787c6f800000000000000000000000000000000000000000000000000039ff061da71cd0000000000000000000000000000000000000000000000000dc7e3d27840353b",
          "blockHash": "0xa8cc0ed020067a2e00e3a32398d583718e48d3eb539aba9cba667010457f7fe9",
          "blockNumber": "0x7266f8",
          "transactionHash": "0x9f58c01d90f5ae7d156e2dc61660ce22eea5c7e3adee11990fcd70a83c421996",
          "transactionIndex": "0xc3",
          "logIndex": "0x15d",
          "removed": false
        }
      ],
      "logsBloom": "0x00000000000000000000000000000000000000000000000000000000000000000000000000000000000000000000000000000000000000004000000000000000000000000000000000000008000000000000001000000000000000000000000000000000020000000000000000000800020000000000000000000010000000000000000000000000000000000000000000000000000008000000010000000000000000000000000000000000000000004000000000000000000000000000000000000002000000800000000000001000000000000000080000000000000020000000000000000000000000000000000000000000000000000000000000000000",
      "type": "0x2",
      "transactionHash": "0x9f58c01d90f5ae7d156e2dc61660ce22eea5c7e3adee11990fcd70a83c421996",
      "transactionIndex": "0xc3",
      "blockHash": "0xa8cc0ed020067a2e00e3a32398d583718e48d3eb539aba9cba667010457f7fe9",
      "blockNumber": "0x7266f8",
      "gasUsed": "0xfb91",
      "effectiveGasPrice": "0x370a3e329",
      "from": "0xc77f7fed3b5cc8249adc428c5f44c9063b9734b4",
      "to": "0xbf4a322f1496e5c3d34a9bcdb4c60567b38c7de2",
      "contractAddress": null
    }
  ],
  "libraries": [],
  "pending": [],
  "returns": {},
  "timestamp": 1736951545,
  "chain": 11155111,
  "commit": "51a374b"
}