{
  "transactions": [
    {
      "hash": "0xf78cb8db31cbbf3d4dde8c00252e348da1ab9aa51c6c97b857fdd2319eb05a9e",
      "transactionType": "CALL",
      "contractName": null,
      "contractAddress": "0x8aafd3ede9adb0ff97c7aebce82a919afb1c8764",
      "function": "sell(uint256)",
      "arguments": [
        "12510"
      ],
      "transaction": {
        "from": "0xc77f7fed3b5cc8249adc428c5f44c9063b9734b4",
        "to": "0x8aafd3ede9adb0ff97c7aebce82a919afb1c8764",
        "gas": "0x14e4c",
        "value": "0x0",
        "input": "0xe4849b3200000000000000000000000000000000000000000000000000000000000030de",
        "nonce": "0xf08",
        "chainId": "0xaa36a7"
      },
      "additionalContracts": [],
      "isFixedGasLimit": false
    }
  ],
  "receipts": [
    {
      "status": "0x1",
      "cumulativeGasUsed": "0xc06b2c",
      "logs": [
        {
          "address": "0x8aafd3ede9adb0ff97c7aebce82a919afb1c8764",
          "topics": [
            "0xddf252ad1be2c89b69c2b068fc378daa952ba7f163c4a11628f55a4df523b3ef",
            "0x000000000000000000000000c77f7fed3b5cc8249adc428c5f44c9063b9734b4",
            "0x0000000000000000000000000000000000000000000000000000000000000000"
          ],
          "data": "0x000000000000000000000000000000000000000000000000000000000000307a",
          "blockHash": "0xc48c985162bba75e1b1a0d0f6774ef2d53ec299f756e6c47cb7427fff57b5b75",
          "blockNumber": "0x731480",
          "transactionHash": "0xf78cb8db31cbbf3d4dde8c00252e348da1ab9aa51c6c97b857fdd2319eb05a9e",
          "transactionIndex": "0x8b",
          "logIndex": "0xb7",
          "removed": false
        },
        {
          "address": "0x8aafd3ede9adb0ff97c7aebce82a919afb1c8764",
          "topics": [
            "0xddf252ad1be2c89b69c2b068fc378daa952ba7f163c4a11628f55a4df523b3ef",
            "0x000000000000000000000000c77f7fed3b5cc8249adc428c5f44c9063b9734b4",
            "0x000000000000000000000000c77f7fed3b5cc8249adc428c5f44c9063b9734b4"
          ],
          "data": "0x0000000000000000000000000000000000000000000000000000000000000064",
          "blockHash": "0xc48c985162bba75e1b1a0d0f6774ef2d53ec299f756e6c47cb7427fff57b5b75",
          "blockNumber": "0x731480",
          "transactionHash": "0xf78cb8db31cbbf3d4dde8c00252e348da1ab9aa51c6c97b857fdd2319eb05a9e",
          "transactionIndex": "0x8b",
          "logIndex": "0xb8",
          "removed": false
        },
        {
          "address": "0x8aafd3ede9adb0ff97c7aebce82a919afb1c8764",
          "topics": [
            "0x4afcb4a87cdbd9974efdb92ee48bc8d7cd0ae4bf217004db3d080cbaee652ca7"
          ],
          "data": "0x00000000000000000000000000000000000000000000000000000000678ff2ac0000000000000000000000000000000000000000000000000004bb8653ecee070000000000000000000000000000000000000000000000000000000000000010",
          "blockHash": "0xc48c985162bba75e1b1a0d0f6774ef2d53ec299f756e6c47cb7427fff57b5b75",
          "blockNumber": "0x731480",
          "transactionHash": "0xf78cb8db31cbbf3d4dde8c00252e348da1ab9aa51c6c97b857fdd2319eb05a9e",
          "transactionIndex": "0x8b",
          "logIndex": "0xb9",
          "removed": false
        }
      ],
      "logsBloom": "0x00000000000000000000000000000000000000000600000000000000000000000000000000000000000000000000000000000000000000004000000000000000000000000000004000000008000000000000000000000000000000000000000000000000020000000000000000000800020000000000000000000010000000000000000000000000000000000000000000000000000000000000010000000000000000000000000000000000000000004000000000000000000000000000000000000002000000800000000000000000000000000000080000000000000020000000000000000000000000000000000000000000000000000000000000000000",
      "type": "0x2",
      "transactionHash": "0xf78cb8db31cbbf3d4dde8c00252e348da1ab9aa51c6c97b857fdd2319eb05a9e",
      "transactionIndex": "0x8b",
      "blockHash": "0xc48c985162bba75e1b1a0d0f6774ef2d53ec299f756e6c47cb7427fff57b5b75",
      "blockNumber": "0x731480",
      "gasUsed": "0xf207",
      "effectiveGasPrice": "0x8b8c35c9",
      "from": "0xc77f7fed3b5cc8249adc428c5f44c9063b9734b4",
      "to": "0x8aafd3ede9adb0ff97c7aebce82a919afb1c8764",
      "contractAddress": null
    }
  ],
  "libraries": [],
  "pending": [],
  "returns": {},
  "timestamp": 1737487021,
  "chain": 11155111,
  "commit": "51a374b"
}