{
  "transactions": [
    {
      "hash": "0xe32ecd8338cd2bad390ad46d41c8c0a629e1793c742f772c31fc41c502b2df04",
      "transactionType": "CALL",
      "contractName": null,
      "contractAddress": "0x8aafd3ede9adb0ff97c7aebce82a919afb1c8764",
      "function": "sell(uint256)",
      "arguments": [
        "1502928"
      ],
      "transaction": {
        "from": "0xc77f7fed3b5cc8249adc428c5f44c9063b9734b4",
        "to": "0x8aafd3ede9adb0ff97c7aebce82a919afb1c8764",
        "gas": "0x16208",
        "value": "0x0",
        "input": "0xe4849b32000000000000000000000000000000000000000000000000000000000016eed0",
        "nonce": "0x1034",
        "chainId": "0xaa36a7"
      },
      "additionalContracts": [],
      "isFixedGasLimit": false
    }
  ],
  "receipts": [
    {
      "status": "0x1",
      "cumulativeGasUsed": "0xb73c3e",
      "logs": [
        {
          "address": "0x8aafd3ede9adb0ff97c7aebce82a919afb1c8764",
          "topics": [
            "0xddf252ad1be2c89b69c2b068fc378daa952ba7f163c4a11628f55a4df523b3ef",
            "0x000000000000000000000000c77f7fed3b5cc8249adc428c5f44c9063b9734b4",
            "0x0000000000000000000000000000000000000000000000000000000000000000"
          ],
          "data": "0x000000000000000000000000000000000000000000000000000000000016bfd9",
          "blockHash": "0xe334ab34073ccefebf39246a788f771368e012ea32bc19c93fe55f051fdfaba5",
          "blockNumber": "0x7316b1",
          "transactionHash": "0xe32ecd8338cd2bad390ad46d41c8c0a629e1793c742f772c31fc41c502b2df04",
          "transactionIndex": "0x83",
          "logIndex": "0x99",
          "removed": false
        },
        {
          "address": "0x8aafd3ede9adb0ff97c7aebce82a919afb1c8764",
          "topics": [
            "0xddf252ad1be2c89b69c2b068fc378daa952ba7f163c4a11628f55a4df523b3ef",
            "0x000000000000000000000000c77f7fed3b5cc8249adc428c5f44c9063b9734b4",
            "0x000000000000000000000000c77f7fed3b5cc8249adc428c5f44c9063b9734b4"
          ],
          "data": "0x0000000000000000000000000000000000000000000000000000000000002ef7",
          "blockHash": "0xe334ab34073ccefebf39246a788f771368e012ea32bc19c93fe55f051fdfaba5",
          "blockNumber": "0x7316b1",
          "transactionHash": "0xe32ecd8338cd2bad390ad46d41c8c0a629e1793c742f772c31fc41c502b2df04",
          "transactionIndex": "0x83",
          "logIndex": "0x9a",
          "removed": false
        },
        {
          "address": "0x8aafd3ede9adb0ff97c7aebce82a919afb1c8764",
          "topics": [
            "0x4afcb4a87cdbd9974efdb92ee48bc8d7cd0ae4bf217004db3d080cbaee652ca7"
          ],
          "data": "0x0000000000000000000000000000000000000000000000000000000067900d040000000000000000000000000000000000000000000000000004eda90c28fe090000000000000000000000000000000000000000000000000000000000000824",
          "blockHash": "0xe334ab34073ccefebf39246a788f771368e012ea32bc19c93fe55f051fdfaba5",
          "blockNumber": "0x7316b1",
          "transactionHash": "0xe32ecd8338cd2bad390ad46d41c8c0a629e1793c742f772c31fc41c502b2df04",
          "transactionIndex": "0x83",
          "logIndex": "0x9b",
          "removed": false
        }
      ],
      "logsBloom": "0x00000000000000000000000000000000000000000600000000000000000000000000000000000000000000000000000000000000000000004000000000000000000000000000004000000008000000000000000000000000000000000000000000000000020000000000000000000800020000000000000000000010000000000000000000000000000000000000000000000000000000000000010000000000000000000000000000000000000000004000000000000000000000000000000000000002000000800000000000000000000000000000080000000000000020000000000000000000000000000000000000000000000000000000000000000000",
      "type": "0x2",
      "transactionHash": "0xe32ecd8338cd2bad390ad46d41c8c0a629e1793c742f772c31fc41c502b2df04",
      "transactionIndex": "0x83",
      "blockHash": "0xe334ab34073ccefebf39246a788f771368e012ea32bc19c93fe55f051fdfaba5",
      "blockNumber": "0x7316b1",
      "gasUsed": "0xf213",
      "effectiveGasPrice": "0x4a81d979",
      "from": "0xc77f7fed3b5cc8249adc428c5f44c9063b9734b4",
      "to": "0x8aafd3ede9adb0ff97c7aebce82a919afb1c8764",
      "contractAddress": null
    }
  ],
  "libraries": [],
  "pending": [],
  "returns": {},
  "timestamp": 1737493765,
  "chain": 11155111,
  "commit": "1d2fb70"
}