{
  "transactions": [
    {
      "hash": "0x93704edf8cd99d1e1490e0ff5ce7bf9124a2079d7144ca9bb4cf4338bcaf46b7",
      "transactionType": "CALL",
      "contractName": null,
      "contractAddress": "0x8aafd3ede9adb0ff97c7aebce82a919afb1c8764",
      "function": "sell(uint256)",
      "arguments": [
        "342819545090370"
      ],
      "transaction": {
        "from": "0xc77f7fed3b5cc8249adc428c5f44c9063b9734b4",
        "to": "0x8aafd3ede9adb0ff97c7aebce82a919afb1c8764",
        "gas": "0x1724d",
        "value": "0x0",
        "input": "0xe4849b32000000000000000000000000000000000000000000000000000137cae5350942",
        "nonce": "0x1292",
        "chainId": "0xaa36a7"
      },
      "additionalContracts": [],
      "isFixedGasLimit": false
    }
  ],
  "receipts": [
    {
      "status": "0x1",
      "cumulativeGasUsed": "0x7fe0ae",
      "logs": [
        {
          "address": "0x8aafd3ede9adb0ff97c7aebce82a919afb1c8764",
          "topics": [
            "0xddf252ad1be2c89b69c2b068fc378daa952ba7f163c4a11628f55a4df523b3ef",
            "0x000000000000000000000000c77f7fed3b5cc8249adc428c5f44c9063b9734b4",
            "0x0000000000000000000000000000000000000000000000000000000000000000"
          ],
          "data": "0x0000000000000000000000000000000000000000000000000001354c581c0930",
          "blockHash": "0xbaf4206dc46d85d87beab0dd5980196bd71b14707de3ff3c52c36e7c464fb058",
          "blockNumber": "0x731982",
          "transactionHash": "0x93704edf8cd99d1e1490e0ff5ce7bf9124a2079d7144ca9bb4cf4338bcaf46b7",
          "transactionIndex": "0x72",
          "logIndex": "0x5f",
          "removed": false
        },
        {
          "address": "0x8aafd3ede9adb0ff97c7aebce82a919afb1c8764",
          "topics": [
            "0xddf252ad1be2c89b69c2b068fc378daa952ba7f163c4a11628f55a4df523b3ef",
            "0x000000000000000000000000c77f7fed3b5cc8249adc428c5f44c9063b9734b4",
            "0x000000000000000000000000c77f7fed3b5cc8249adc428c5f44c9063b9734b4"
          ],
          "data": "0x0000000000000000000000000000000000000000000000000000027e8d190012",
          "blockHash": "0xbaf4206dc46d85d87beab0dd5980196bd71b14707de3ff3c52c36e7c464fb058",
          "blockNumber": "0x731982",
          "transactionHash": "0x93704edf8cd99d1e1490e0ff5ce7bf9124a2079d7144ca9bb4cf4338bcaf46b7",
          "transactionIndex": "0x72",
          "logIndex": "0x60",
          "removed": false
        },
        {
          "address": "0x8aafd3ede9adb0ff97c7aebce82a919afb1c8764",
          "topics": [
            "0x4afcb4a87cdbd9974efdb92ee48bc8d7cd0ae4bf217004db3d080cbaee652ca7"
          ],
          "data": "0x0000000000000000000000000000000000000000000000000000000067902ee800000000000000000000000000000000000000000000000000054646dddfc95f0000000000000000000000000000000000000000000000000000007680b2dccc",
          "blockHash": "0xbaf4206dc46d85d87beab0dd5980196bd71b14707de3ff3c52c36e7c464fb058",
          "blockNumber": "0x731982",
          "transactionHash": "0x93704edf8cd99d1e1490e0ff5ce7bf9124a2079d7144ca9bb4cf4338bcaf46b7",
          "transactionIndex": "0x72",
          "logIndex": "0x61",
          "removed": false
        }
      ],
      "logsBloom": "0x00000000000000000000000000000000000000000600000000000000000000000000000000000000000000000000000000000000000000004000000000000000000000000000004000000008000000000000000000000000000000000000000000000000020000000000000000000800020000000000000000000010000000000000000000000000000000000000000000000000000000000000010000000000000000000000000000000000000000004000000000000000000000000000000000000002000000800000000000000000000000000000080000000000000020000000000000000000000000000000000000000000000000000000000000000000",
      "type": "0x2",
      "transactionHash": "0x93704edf8cd99d1e1490e0ff5ce7bf9124a2079d7144ca9bb4cf4338bcaf46b7",
      "transactionIndex": "0x72",
      "blockHash": "0xbaf4206dc46d85d87beab0dd5980196bd71b14707de3ff3c52c36e7c464fb058",
      "blockNumber": "0x731982",
      "gasUsed": "0xfd33",
      "effectiveGasPrice": "0x43c4c6a3",
      "from": "0xc77f7fed3b5cc8249adc428c5f44c9063b9734b4",
      "to": "0x8aafd3ede9adb0ff97c7aebce82a919afb1c8764",
      "contractAddress": null
    }
  ],
  "libraries": [],
  "pending": [],
  "returns": {},
  "timestamp": 1737502443,
  "chain": 11155111,
  "commit": "1d2fb70"
}