{
  "transactions": [
    {
      "hash": "0x51d5796b40d82f245a32d457dd9dfd21f73489d9720acf55f8d76d528f40e9c4",
      "transactionType": "CALL",
      "contractName": null,
      "contractAddress": "0x270e88f8683660553e8ba4eb2ad7c91a1710d769",
      "function": "buy(address)",
      "arguments": [
        "0xC77f7fed3b5Cc8249aDc428c5F44C9063B9734b4"
      ],
      "transaction": {
        "from": "0xc77f7fed3b5cc8249adc428c5f44c9063b9734b4",
        "to": "0x270e88f8683660553e8ba4eb2ad7c91a1710d769",
        "gas": "0x1b30c",
        "value": "0xde0b6b3a7640000",
        "input": "0xf088d547000000000000000000000000c77f7fed3b5cc8249adc428c5f44c9063b9734b4",
        "nonce": "0x5c8",
        "chainId": "0xaa36a7"
      },
      "additionalContracts": [],
      "isFixedGasLimit": false
    }
  ],
  "receipts": [
    {
      "status": "0x1",
      "cumulativeGasUsed": "0x1a96326",
      "logs": [
        {
          "address": "0x270e88f8683660553e8ba4eb2ad7c91a1710d769",
          "topics": [
            "0xddf252ad1be2c89b69c2b068fc378daa952ba7f163c4a11628f55a4df523b3ef",
            "0x0000000000000000000000000000000000000000000000000000000000000000",
            "0x000000000000000000000000c77f7fed3b5cc8249adc428c5f44c9063b9734b4"
          ],
          "data": "0x000000000000000000000000000000000000000000000033a4335fd1ab2489e7",
          "blockHash": "0xc0d148f96000a92f9fdeb6f2951ccdea63e9480b25bece1ae2b6d5ee192e9521",
          "blockNumber": "0x725287",
          "transactionHash": "0x51d5796b40d82f245a32d457dd9dfd21f73489d9720acf55f8d76d528f40e9c4",
          "transactionIndex": "0x6e",
          "logIndex": "0x107",
          "removed": false
        },
        {
          "address": "0x270e88f8683660553e8ba4eb2ad7c91a1710d769",
          "topics": [
            "0xddf252ad1be2c89b69c2b068fc378daa952ba7f163c4a11628f55a4df523b3ef",
            "0x0000000000000000000000000000000000000000000000000000000000000000",
            "0x000000000000000000000000c77f7fed3b5cc8249adc428c5f44c9063b9734b4"
          ],
          "data": "0x0000000000000000000000000000000000000000000000002819efd00663c56e",
          "blockHash": "0xc0d148f96000a92f9fdeb6f2951ccdea63e9480b25bece1ae2b6d5ee192e9521",
          "blockNumber": "0x725287",
          "transactionHash": "0x51d5796b40d82f245a32d457dd9dfd21f73489d9720acf55f8d76d528f40e9c4",
          "transactionIndex": "0x6e",
          "logIndex": "0x108",
          "removed": false
        },
        {
          "address": "0x270e88f8683660553e8ba4eb2ad7c91a1710d769",
          "topics": [
            "0x4afcb4a87cdbd9974efdb92ee48bc8d7cd0ae4bf217004db3d080cbaee652ca7"
          ],
          "data": "0x000000000000000000000000000000000000000000000000000000006786d0440000000000000000000000000000000000000000000000000003b14a7ff8c36d0000000000000000000000000000000000000000000000000de0b6b3a7640000",
          "blockHash": "0xc0d148f96000a92f9fdeb6f2951ccdea63e9480b25bece1ae2b6d5ee192e9521",
          "blockNumber": "0x725287",
          "transactionHash": "0x51d5796b40d82f245a32d457dd9dfd21f73489d9720acf55f8d76d528f40e9c4",
          "transactionIndex": "0x6e",
          "logIndex": "0x109",
          "removed": false
        }
      ],
      "logsBloom": "0x00000000000000000000000000000000000000000000000000000000000000000000000000000000000000000000000020000000000000004000000000000000000000000000000000000008000000000000000000000000000000000000000000000000020000000000000000000800020000000000000000000010000000000000000000010000000000000000000000000000000000000000010000000000000000000000000000000000000000004000000000000000000000000000000000000002000000800000000000000000000000000000080000008000000020000000000000000000000000000000000000000000000000000000000000000000",
      "type": "0x2",
      "transactionHash": "0x51d5796b40d82f245a32d457dd9dfd21f73489d9720acf55f8d76d528f40e9c4",
      "transactionIndex": "0x6e",
      "blockHash": "0xc0d148f96000a92f9fdeb6f2951ccdea63e9480b25bece1ae2b6d5ee192e9521",
      "blockNumber": "0x725287",
      "gasUsed": "0x13af8",
      "effectiveGasPrice": "0x3d33cd60c",
      "from": "0xc77f7fed3b5cc8249adc428c5f44c9063b9734b4",
      "to": "0x270e88f8683660553e8ba4eb2ad7c91a1710d769",
      "contractAddress": null
    }
  ],
  "libraries": [],
  "pending": [],
  "returns": {},
  "timestamp": 1736888390,
  "chain": 11155111,
  "commit": "51a374b"
}