{
  "transactions": [
    {
      "hash": "0xe97b8da2aca31b9d57813eacf3d594d12b217346853e800df80d37939c5d5a49",
      "transactionType": "CALL",
      "contractName": null,
      "contractAddress": "0x5eb9cc76c3506942c1c0ead70e877dd5e4f00cb0",
      "function": "buy(address)",
      "arguments": [
        "0xC77f7fed3b5Cc8249aDc428c5F44C9063B9734b4"
      ],
      "transaction": {
        "from": "0xc77f7fed3b5cc8249adc428c5f44c9063b9734b4",
        "to": "0x5eb9cc76c3506942c1c0ead70e877dd5e4f00cb0",
        "gas": "0x1b30c",
        "value": "0xde0b6b3a7640000",
        "input": "0xf088d547000000000000000000000000c77f7fed3b5cc8249adc428c5f44c9063b9734b4",
        "nonce": "0x2cc",
        "chainId": "0xaa36a7"
      },
      "additionalContracts": [],
      "isFixedGasLimit": false
    }
  ],
  "receipts": [
    {
      "status": "0x1",
      "cumulativeGasUsed": "0xedee08",
      "logs": [
        {
          "address": "0x5eb9cc76c3506942c1c0ead70e877dd5e4f00cb0",
          "topics": [
            "0xddf252ad1be2c89b69c2b068fc378daa952ba7f163c4a11628f55a4df523b3ef",
            "0x0000000000000000000000000000000000000000000000000000000000000000",
            "0x000000000000000000000000c77f7fed3b5cc8249adc428c5f44c9063b9734b4"
          ],
          "data": "0x00000000000000000000000000000000000000000000003575b0126372e980b8",
          "blockHash": "0x5f1475a8d4be5fa1904032ea112ca064664ef25cca410f841ecac09b7d4ade68",
          "blockNumber": "0x724ea8",
          "transactionHash": "0xe97b8da2aca31b9d57813eacf3d594d12b217346853e800df80d37939c5d5a49",
          "transactionIndex": "0x57",
          "logIndex": "0xd2",
          "removed": false
        },
        {
          "address": "0x5eb9cc76c3506942c1c0ead70e877dd5e4f00cb0",
          "topics": [
            "0xddf252ad1be2c89b69c2b068fc378daa952ba7f163c4a11628f55a4df523b3ef",
            "0x0000000000000000000000000000000000000000000000000000000000000000",
            "0x000000000000000000000000c77f7fed3b5cc8249adc428c5f44c9063b9734b4"
          ],
          "data": "0x00000000000000000000000000000000000000000000000029836743d240e587",
          "blockHash": "0x5f1475a8d4be5fa1904032ea112ca064664ef25cca410f841ecac09b7d4ade68",
          "blockNumber": "0x724ea8",
          "transactionHash": "0xe97b8da2aca31b9d57813eacf3d594d12b217346853e800df80d37939c5d5a49",
          "transactionIndex": "0x57",
          "logIndex": "0xd3",
          "removed": false
        },
        {
          "address": "0x5eb9cc76c3506942c1c0ead70e877dd5e4f00cb0",
          "topics": [
            "0x4afcb4a87cdbd9974efdb92ee48bc8d7cd0ae4bf217004db3d080cbaee652ca7"
          ],
          "data": "0x000000000000000000000000000000000000000000000000000000006786a19400000000000000000000000000000000000000000000000000039109d33918090000000000000000000000000000000000000000000000000de0b6b3a7640000",
          "blockHash": "0x5f1475a8d4be5fa1904032ea112ca064664ef25cca410f841ecac09b7d4ade68",
          "blockNumber": "0x724ea8",
          "transactionHash": "0xe97b8da2aca31b9d57813eacf3d594d12b217346853e800df80d37939c5d5a49",
          "transactionIndex": "0x57",
          "logIndex": "0xd4",
          "removed": false
        }
      ],
      "logsBloom": "0x00000000000000000000000000000000000000000000000000000000000000000000000000000000000000000000000000000000000000004000000000000000000000000000000000000008000000000000000000000000000000000000000000000000020000000000000004000800020000000000000000000010000000000000000000000000000000000000000000000000000000000000010000000000000000000000000000000000000000004000000000000000000000000000020000000002000000800000008000000000000000000000080000000000000020000000000000000000000000000000000000000000000000000000000000000000",
      "type": "0x2",
      "transactionHash": "0xe97b8da2aca31b9d57813eacf3d594d12b217346853e800df80d37939c5d5a49",
      "transactionIndex": "0x57",
      "blockHash": "0x5f1475a8d4be5fa1904032ea112ca064664ef25cca410f841ecac09b7d4ade68",
      "blockNumber": "0x724ea8",
      "gasUsed": "0x13af8",
      "effectiveGasPrice": "0x47b492390",
      "from": "0xc77f7fed3b5cc8249adc428c5f44c9063b9734b4",
      "to": "0x5eb9cc76c3506942c1c0ead70e877dd5e4f00cb0",
      "contractAddress": null
    }
  ],
  "libraries": [],
  "pending": [],
  "returns": {},
  "timestamp": 1736876437,
  "chain": 11155111,
  "commit": "51a374b"
}