{
  "transactions": [
    {
      "hash": "0x8cc17780841c7c7f1ede0c7c8175f9612cff267e888e28495c71121273f6241d",
      "transactionType": "CALL",
      "contractName": null,
      "contractAddress": "0x8aafd3ede9adb0ff97c7aebce82a919afb1c8764",
      "function": "sell(uint256)",
      "arguments": [
        "5498725828223377201"
      ],
      "transaction": {
        "from": "0xc77f7fed3b5cc8249adc428c5f44c9063b9734b4",
        "to": "0x8aafd3ede9adb0ff97c7aebce82a919afb1c8764",
        "gas": "0x15dca",
        "value": "0x0",
        "input": "0xe4849b320000000000000000000000000000000000000000000000004c4f6601dc851f31",
        "nonce": "0x11a0",
        "chainId": "0xaa36a7"
      },
      "additionalContracts": [],
      "isFixedGasLimit": false
    }
  ],
  "receipts": [
    {
      "status": "0x1",
      "cumulativeGasUsed": "0xae66e6",
      "logs": [
        {
          "address": "0x8aafd3ede9adb0ff97c7aebce82a919afb1c8764",
          "topics": [
            "0xddf252ad1be2c89b69c2b068fc378daa952ba7f163c4a11628f55a4df523b3ef",
            "0x000000000000000000000000c77f7fed3b5cc8249adc428c5f44c9063b9734b4",
            "0x0000000000000000000000000000000000000000000000000000000000000000"
          ],
          "data": "0x0000000000000000000000000000000000000000000000004bb31d82deda12a8",
          "blockHash": "0x49280bbe0a6de52f9e5d85f967df0add4591400c1d5a86725f721db3a12f0e15",
          "blockNumber": "0x731869",
          "transactionHash": "0x8cc17780841c7c7f1ede0c7c8175f9612cff267e888e28495c71121273f6241d",
          "transactionIndex": "0x88",
          "logIndex": "0xb1",
          "removed": false
        },
        {
          "address": "0x8aafd3ede9adb0ff97c7aebce82a919afb1c8764",
          "topics": [
            "0xddf252ad1be2c89b69c2b068fc378daa952ba7f163c4a11628f55a4df523b3ef",
            "0x000000000000000000000000c77f7fed3b5cc8249adc428c5f44c9063b9734b4",
            "0x000000000000000000000000c77f7fed3b5cc8249adc428c5f44c9063b9734b4"
          ],
          "data": "0x000000000000000000000000000000000000000000000000009c487efdab0c89",
          "blockHash": "0x49280bbe0a6de52f9e5d85f967df0add4591400c1d5a86725f721db3a12f0e15",
          "blockNumber": "0x731869",
          "transactionHash": "0x8cc17780841c7c7f1ede0c7c8175f9612cff267e888e28495c71121273f6241d",
          "transactionIndex": "0x88",
          "logIndex": "0xb2",
          "removed": false
        },
        {
          "address": "0x8aafd3ede9adb0ff97c7aebce82a919afb1c8764",
          "topics": [
            "0x4afcb4a87cdbd9974efdb92ee48bc8d7cd0ae4bf217004db3d080cbaee652ca7"
          ],
          "data": "0x00000000000000000000000000000000000000000000000000000000679021bc00000000000000000000000000000000000000000000000000052366f90a18e9000000000000000000000000000000000000000000000000001c40fd9e06a85e",
          "blockHash": "0x49280bbe0a6de52f9e5d85f967df0add4591400c1d5a86725f721db3a12f0e15",
          "blockNumber": "0x731869",
          "transactionHash": "0x8cc17780841c7c7f1ede0c7c8175f9612cff267e888e28495c71121273f6241d",
          "transactionIndex": "0x88",
          "logIndex": "0xb3",
          "removed": false
        }
      ],
      "logsBloom": "0x00000000000000000000000000000000000000000600000000000000000000000000000000000000000000000000000000000000000000004000000000000000000000000000004000000008000000000000000000000000000000000000000000000000020000000000000000000800020000000000000000000010000000000000000000000000000000000000000000000000000000000000010000000000000000000000000000000000000000004000000000000000000000000000000000000002000000800000000000000000000000000000080000000000000020000000000000000000000000000000000000000000000000000000000000000000",
      "type": "0x2",
      "transactionHash": "0x8cc17780841c7c7f1ede0c7c8175f9612cff267e888e28495c71121273f6241d",
      "transactionIndex": "0x88",
      "blockHash": "0x49280bbe0a6de52f9e5d85f967df0add4591400c1d5a86725f721db3a12f0e15",
      "blockNumber": "0x731869",
      "gasUsed": "0xfd3f",
      "effectiveGasPrice": "0x44594cd1",
      "from": "0xc77f7fed3b5cc8249adc428c5f44c9063b9734b4",
      "to": "0x8aafd3ede9adb0ff97c7aebce82a919afb1c8764",
      "contractAddress": null
    }
  ],
  "libraries": [],
  "pending": [],
  "returns": {},
  "timestamp": 1737499068,
  "chain": 11155111,
  "commit": "1d2fb70"
}