{
  "transactions": [
    {
      "hash": "0xb2862c9dd445deb3acc2f35b57bf7130cf82d9f033a659832f658214d1544176",
      "transactionType": "CALL",
      "contractName": null,
      "contractAddress": "0x270e88f8683660553e8ba4eb2ad7c91a1710d769",
      "function": "sell(uint256)",
      "arguments": [
        "966877982909258167893"
      ],
      "transaction": {
        "from": "0xc77f7fed3b5cc8249adc428c5f44c9063b9734b4",
        "to": "0x270e88f8683660553e8ba4eb2ad7c91a1710d769",
        "gas": "0x16fec",
        "value": "0x0",
        "input": "0xe4849b320000000000000000000000000000000000000000000000346a20a2b7848a7655",
        "nonce": "0x57d",
        "chainId": "0xaa36a7"
      },
      "additionalContracts": [],
      "isFixedGasLimit": false
    }
  ],
  "receipts": [
    {
      "status": "0x1",
      "cumulativeGasUsed": "0xca4be3",
      "logs": [
        {
          "address": "0x270e88f8683660553e8ba4eb2ad7c91a1710d769",
          "topics": [
            "0xddf252ad1be2c89b69c2b068fc378daa952ba7f163c4a11628f55a4df523b3ef",
            "0x000000000000000000000000c77f7fed3b5cc8249adc428c5f44c9063b9734b4",
            "0x0000000000000000000000000000000000000000000000000000000000000000"
          ],
          "data": "0x0000000000000000000000000000000000000000000000346a20a2b7848a7655",
          "blockHash": "0x7d47526992608f7643c5b4165edbc7fd9011a63ac8076b49c08bd6332443ca40",
          "blockNumber": "0x72522a",
          "transactionHash": "0xb2862c9dd445deb3acc2f35b57bf7130cf82d9f033a659832f658214d1544176",
          "transactionIndex": "0x5d",
          "logIndex": "0xe6",
          "removed": false
        },
        {
          "address": "0x270e88f8683660553e8ba4eb2ad7c91a1710d769",
          "topics": [
            "0x4afcb4a87cdbd9974efdb92ee48bc8d7cd0ae4bf217004db3d080cbaee652ca7"
          ],
          "data": "0x000000000000000000000000000000000000000000000000000000006786cbe80000000000000000000000000000000000000000000000000003a65c9da47bd20000000000000000000000000000000000000000000000000dc83fe497d8d60e",
          "blockHash": "0x7d47526992608f7643c5b4165edbc7fd9011a63ac8076b49c08bd6332443ca40",
          "blockNumber": "0x72522a",
          "transactionHash": "0xb2862c9dd445deb3acc2f35b57bf7130cf82d9f033a659832f658214d1544176",
          "transactionIndex": "0x5d",
          "logIndex": "0xe7",
          "removed": false
        }
      ],
      "logsBloom": "0x00000000000000000000000000000000000000000000000000000000000000000000000000000000000000000000000020000000000000004000000000000000000000000000000000000008000000000000000000000000000000000000000000000000020000000000000000000800020000000000000000000010000000000000000000010000000000000000000000000000000000000000010000000000000000000000000000000000000000004000000000000000000000000000000000000002000000800000000000000000000000000000080000008000000020000000000000000000000000000000000000000000000000000000000000000000",
      "type": "0x2",
      "transactionHash": "0xb2862c9dd445deb3acc2f35b57bf7130cf82d9f033a659832f658214d1544176",
      "transactionIndex": "0x5d",
      "blockHash": "0x7d47526992608f7643c5b4165edbc7fd9011a63ac8076b49c08bd6332443ca40",
      "blockNumber": "0x72522a",
      "gasUsed": "0xfb93",
      "effectiveGasPrice": "0x3f4fcf523",
      "from": "0xc77f7fed3b5cc8249adc428c5f44c9063b9734b4",
      "to": "0x270e88f8683660553e8ba4eb2ad7c91a1710d769",
      "contractAddress": null
    }
  ],
  "libraries": [],
  "pending": [],
  "returns": {},
  "timestamp": 1736887272,
  "chain": 11155111,
  "commit": "51a374b"
}