{
  "transactions": [
    {
      "hash": "0x7140f4beea660979f03f2e93284bb8315f07eda6652338fec2ab52cae654a3b8",
      "transactionType": "CALL",
      "contractName": null,
      "contractAddress": "0x8aafd3ede9adb0ff97c7aebce82a919afb1c8764",
      "function": "sell(uint256)",
      "arguments": [
        "1261000100650"
      ],
      "transaction": {
        "from": "0xc77f7fed3b5cc8249adc428c5f44c9063b9734b4",
        "to": "0x8aafd3ede9adb0ff97c7aebce82a919afb1c8764",
        "gas": "0x15daa",
        "value": "0x0",
        "input": "0xe4849b320000000000000000000000000000000000000000000000000000012599768b2a",
        "nonce": "0x131d",
        "chainId": "0xaa36a7"
      },
      "additionalContracts": [],
      "isFixedGasLimit": false
    }
  ],
  "receipts": [
    {
      "status": "0x1",
      "cumulativeGasUsed": "0x886ba2",
      "logs": [
        {
          "address": "0x8aafd3ede9adb0ff97c7aebce82a919afb1c8764",
          "topics": [
            "0xddf252ad1be2c89b69c2b068fc378daa952ba7f163c4a11628f55a4df523b3ef",
            "0x000000000000000000000000c77f7fed3b5cc8249adc428c5f44c9063b9734b4",
            "0x0000000000000000000000000000000000000000000000000000000000000000"
          ],
          "data": "0x00000000000000000000000000000000000000000000000000000123402bde05",
          "blockHash": "0x4f2a178d7df9b4439b524cc3c7eaaee1e11293f8fa590f8dbe35759d1e3acba8",
          "blockNumber": "0x731a2a",
          "transactionHash": "0x7140f4beea660979f03f2e93284bb8315f07eda6652338fec2ab52cae654a3b8",
          "transactionIndex": "0x90",
          "logIndex": "0x86",
          "removed": false
        },
        {
          "address": "0x8aafd3ede9adb0ff97c7aebce82a919afb1c8764",
          "topics": [
            "0xddf252ad1be2c89b69c2b068fc378daa952ba7f163c4a11628f55a4df523b3ef",
            "0x000000000000000000000000c77f7fed3b5cc8249adc428c5f44c9063b9734b4",
            "0x000000000000000000000000c77f7fed3b5cc8249adc428c5f44c9063b9734b4"
          ],
          "data": "0x00000000000000000000000000000000000000000000000000000002594aad25",
          "blockHash": "0x4f2a178d7df9b4439b524cc3c7eaaee1e11293f8fa590f8dbe35759d1e3acba8",
          "blockNumber": "0x731a2a",
          "transactionHash": "0x7140f4beea660979f03f2e93284bb8315f07eda6652338fec2ab52cae654a3b8",
          "transactionIndex": "0x90",
          "logIndex": "0x87",
          "removed": false
        },
        {
          "address": "0x8aafd3ede9adb0ff97c7aebce82a919afb1c8764",
          "topics": [
            "0x4afcb4a87cdbd9974efdb92ee48bc8d7cd0ae4bf217004db3d080cbaee652ca7"
          ],
          "data": "0x00000000000000000000000000000000000000000000000000000000679036c8000000000000000000000000000000000000000000000000000b8f7f09a7bb1a00000000000000000000000000000000000000000000000000000000f4935013",
          "blockHash": "0x4f2a178d7df9b4439b524cc3c7eaaee1e11293f8fa590f8dbe35759d1e3acba8",
          "blockNumber": "0x731a2a",
          "transactionHash": "0x7140f4beea660979f03f2e93284bb8315f07eda6652338fec2ab52cae654a3b8",
          "transactionIndex": "0x90",
          "logIndex": "0x88",
          "removed": false
        }
      ],
      "logsBloom": "0x00000000000000000000000000000000000000000600000000000000000000000000000000000000000000000000000000000000000000004000000000000000000000000000004000000008000000000000000000000000000000000000000000000000020000000000000000000800020000000000000000000010000000000000000000000000000000000000000000000000000000000000010000000000000000000000000000000000000000004000000000000000000000000000000000000002000000800000000000000000000000000000080000000000000020000000000000000000000000000000000000000000000000000000000000000000",
      "type": "0x2",
      "transactionHash": "0x7140f4beea660979f03f2e93284bb8315f07eda6652338fec2ab52cae654a3b8",
      "transactionIndex": "0x90",
      "blockHash": "0x4f2a178d7df9b4439b524cc3c7eaaee1e11293f8fa590f8dbe35759d1e3acba8",
      "blockNumber": "0x731a2a",
      "gasUsed": "0xfd27",
      "effectiveGasPrice": "0x43068aa2",
      "from": "0xc77f7fed3b5cc8249adc428c5f44c9063b9734b4",
      "to": "0x8aafd3ede9adb0ff97c7aebce82a919afb1c8764",
      "contractAddress": null
    }
  ],
  "libraries": [],
  "pending": [],
  "returns": {},
  "timestamp": 1737504457,
  "chain": 11155111,
  "commit": "1d2fb70"
}