{
  "transactions": [
    {
      "hash": "0xcd64bc45257526a8b68dc3d47f6c65371d3f3ca7bb84db7250b35278f3416e07",
      "transactionType": "CALL",
      "contractName": null,
      "contractAddress": "0xd7bc75898e513accccf720a874d44dab5a4b6223",
      "function": "buy(address)",
      "arguments": [
        "0xC77f7fed3b5Cc8249aDc428c5F44C9063B9734b4"
      ],
      "transaction": {
        "from": "0xc77f7fed3b5cc8249adc428c5f44c9063b9734b4",
        "to": "0xd7bc75898e513accccf720a874d44dab5a4b6223",
        "gas": "0x1b30c",
        "value": "0x2386f26fc10000",
        "input": "0xf088d547000000000000000000000000c77f7fed3b5cc8249adc428c5f44c9063b9734b4",
        "nonce": "0x10c",
        "chainId": "0xaa36a7"
      },
      "additionalContracts": [],
      "isFixedGasLimit": false
    }
  ],
  "receipts": [
    {
      "status": "0x1",
      "cumulativeGasUsed": "0x499e04",
      "logs": [
        {
          "address": "0xd7bc75898e513accccf720a874d44dab5a4b6223",
          "topics": [
            "0xddf252ad1be2c89b69c2b068fc378daa952ba7f163c4a11628f55a4df523b3ef",
            "0x0000000000000000000000000000000000000000000000000000000000000000",
            "0x000000000000000000000000c77f7fed3b5cc8249adc428c5f44c9063b9734b4"
          ],
          "data": "0x0000000000000000000000000000000000000000000000008963ba4817cf381a",
          "blockHash": "0x4ff6bb357569bffb504124c17d9c1b44502da627f7526ee379c7a2a1b22f383a",
          "blockNumber": "0x72399f",
          "transactionHash": "0xcd64bc45257526a8b68dc3d47f6c65371d3f3ca7bb84db7250b35278f3416e07",
          "transactionIndex": "0x40",
          "logIndex": "0x4b",
          "removed": false
        },
        {
          "address": "0xd7bc75898e513accccf720a874d44dab5a4b6223",
          "topics": [
            "0xddf252ad1be2c89b69c2b068fc378daa952ba7f163c4a11628f55a4df523b3ef",
            "0x0000000000000000000000000000000000000000000000000000000000000000",
            "0x000000000000000000000000c77f7fed3b5cc8249adc428c5f44c9063b9734b4"
          ],
          "data": "0x000000000000000000000000000000000000000000000000006ab00bd5ec04f4",
          "blockHash": "0x4ff6bb357569bffb504124c17d9c1b44502da627f7526ee379c7a2a1b22f383a",
          "blockNumber": "0x72399f",
          "transactionHash": "0xcd64bc45257526a8b68dc3d47f6c65371d3f3ca7bb84db7250b35278f3416e07",
          "transactionIndex": "0x40",
          "logIndex": "0x4c",
          "removed": false
        },
        {
          "address": "0xd7bc75898e513accccf720a874d44dab5a4b6223",
          "topics": [
            "0x4afcb4a87cdbd9974efdb92ee48bc8d7cd0ae4bf217004db3d080cbaee652ca7"
          ],
          "data": "0x000000000000000000000000000000000000000000000000000000006785a4c800000000000000000000000000000000000000000000000000038d7f8e4c9707000000000000000000000000000000000000000000000000002386f26fc10000",
          "blockHash": "0x4ff6bb357569bffb504124c17d9c1b44502da627f7526ee379c7a2a1b22f383a",
          "blockNumber": "0x72399f",
          "transactionHash": "0xcd64bc45257526a8b68dc3d47f6c65371d3f3ca7bb84db7250b35278f3416e07",
          "transactionIndex": "0x40",
          "logIndex": "0x4d",
          "removed": false
        }
      ],
      "logsBloom": "0x00000000000000000000000000000000000000000000000000000000000000000000000000000000000000000000000000000000000000004000000000000000000000000000000000000008000000000000000000000000000000000000000000000000020000000000000000000800020000000000000000000010000000000000000000000000000000000000000000000000000000000000010000000000000000000000000000000000000000004000001000000000000000000000000000000002000000800000000000004000000000000000080000000000000020000000000000000000000000000000000000000000080000000000000000000000",
      "type": "0x2",
      "transactionHash": "0xcd64bc45257526a8b68dc3d47f6c65371d3f3ca7bb84db7250b35278f3416e07",
      "transactionIndex": "0x40",
      "blockHash": "0x4ff6bb357569bffb504124c17d9c1b44502da627f7526ee379c7a2a1b22f383a",
      "blockNumber": "0x72399f",
      "gasUsed": "0x13af8",
      "effectiveGasPrice": "0x20fd52c02",
      "from": "0xc77f7fed3b5cc8249adc428c5f44c9063b9734b4",
      "to": "0xd7bc75898e513accccf720a874d44dab5a4b6223",
      "contractAddress": null
    }
  ],
  "libraries": [],
  "pending": [],
  "returns": {},
  "timestamp": 1736811721,
  "chain": 11155111,
  "commit": "51a374b"
}