{
  "transactions": [
    {
      "hash": "0xfbbbed8f7ee430dbfd667e3c92c27e8d697815383ecde9fc3688ea196625290f",
      "transactionType": "CALL",
      "contractName": null,
      "contractAddress": "0x8aafd3ede9adb0ff97c7aebce82a919afb1c8764",
      "function": "sell(uint256)",
      "arguments": [
        "183633610"
      ],
      "transaction": {
        "from": "0xc77f7fed3b5cc8249adc428c5f44c9063b9734b4",
        "to": "0x8aafd3ede9adb0ff97c7aebce82a919afb1c8764",
        "gas": "0x14e6c",
        "value": "0x0",
        "input": "0xe4849b32000000000000000000000000000000000000000000000000000000000af206ca",
        "nonce": "0x10fb",
        "chainId": "0xaa36a7"
      },
      "additionalContracts": [],
      "isFixedGasLimit": false
    }
  ],
  "receipts": [
    {
      "status": "0x1",
      "cumulativeGasUsed": "0xbb6cc0",
      "logs": [
        {
          "address": "0x8aafd3ede9adb0ff97c7aebce82a919afb1c8764",
          "topics": [
            "0xddf252ad1be2c89b69c2b068fc378daa952ba7f163c4a11628f55a4df523b3ef",
            "0x000000000000000000000000c77f7fed3b5cc8249adc428c5f44c9063b9734b4",
            "0x0000000000000000000000000000000000000000000000000000000000000000"
          ],
          "data": "0x000000000000000000000000000000000000000000000000000000000adb9c3e",
          "blockHash": "0x73a382d238a0ceed98d747fd93684dd5199018b18484841ae8bc79712a9aaf68",
          "blockNumber": "0x7317a6",
          "transactionHash": "0xfbbbed8f7ee430dbfd667e3c92c27e8d697815383ecde9fc3688ea196625290f",
          "transactionIndex": "0xa2",
          "logIndex": "0xaa",
          "removed": false
        },
        {
          "address": "0x8aafd3ede9adb0ff97c7aebce82a919afb1c8764",
          "topics": [
            "0xddf252ad1be2c89b69c2b068fc378daa952ba7f163c4a11628f55a4df523b3ef",
            "0x000000000000000000000000c77f7fed3b5cc8249adc428c5f44c9063b9734b4",
            "0x000000000000000000000000c77f7fed3b5cc8249adc428c5f44c9063b9734b4"
          ],
          "data": "0x0000000000000000000000000000000000000000000000000000000000166a8c",
          "blockHash": "0x73a382d238a0ceed98d747fd93684dd5199018b18484841ae8bc79712a9aaf68",
          "blockNumber": "0x7317a6",
          "transactionHash": "0xfbbbed8f7ee430dbfd667e3c92c27e8d697815383ecde9fc3688ea196625290f",
          "transactionIndex": "0xa2",
          "logIndex": "0xab",
          "removed": false
        },
        {
          "address": "0x8aafd3ede9adb0ff97c7aebce82a919afb1c8764",
          "topics": [
            "0x4afcb4a87cdbd9974efdb92ee48bc8d7cd0ae4bf217004db3d080cbaee652ca7"
          ],
          "data": "0x000000000000000000000000000000000000000000000000000000006790188c00000000000000000000000000000000000000000000000000050ab4dd0c628e000000000000000000000000000000000000000000000000000000000003f9fb",
          "blockHash": "0x73a382d238a0ceed98d747fd93684dd5199018b18484841ae8bc79712a9aaf68",
          "blockNumber": "0x7317a6",
          "transactionHash": "0xfbbbed8f7ee430dbfd667e3c92c27e8d697815383ecde9fc3688ea196625290f",
          "transactionIndex": "0xa2",
          "logIndex": "0xac",
          "removed": false
        }
      ],
      "logsBloom": "0x00000000000000000000000000000000000000000600000000000000000000000000000000000000000000000000000000000000000000004000000000000000000000000000004000000008000000000000000000000000000000000000000000000000020000000000000000000800020000000000000000000010000000000000000000000000000000000000000000000000000000000000010000000000000000000000000000000000000000004000000000000000000000000000000000000002000000800000000000000000000000000000080000000000000020000000000000000000000000000000000000000000000000000000000000000000",
      "type": "0x2",
      "transactionHash": "0xfbbbed8f7ee430dbfd667e3c92c27e8d697815383ecde9fc3688ea196625290f",
      "transactionIndex": "0xa2",
      "blockHash": "0x73a382d238a0ceed98d747fd93684dd5199018b18484841ae8bc79712a9aaf68",
      "blockNumber": "0x7317a6",
      "gasUsed": "0xf21f",
      "effectiveGasPrice": "0x40d2535c",
      "from": "0xc77f7fed3b5cc8249adc428c5f44c9063b9734b4",
      "to": "0x8aafd3ede9adb0ff97c7aebce82a919afb1c8764",
      "contractAddress": null
    }
  ],
  "libraries": [],
  "pending": [],
  "returns": {},
  "timestamp": 1737496718,
  "chain": 11155111,
  "commit": "1d2fb70"
}