{
  "transactions": [
    {
      "hash": "0x8b23f056d6469357177611df02bf47e2af093d49e7f4a3f7081eb745fc9d28c4",
      "transactionType": "CALL",
      "contractName": null,
      "contractAddress": "0xbf4a322f1496e5c3d34a9bcdb4c60567b38c7de2",
      "function": "sell(uint256)",
      "arguments": [
        "984897467003740214674"
      ],
      "transaction": {
        "from": "0xc77f7fed3b5cc8249adc428c5f44c9063b9734b4",
        "to": "0xbf4a322f1496e5c3d34a9bcdb4c60567b38c7de2",
        "gas": "0x16fea",
        "value": "0x0",
        "input": "0xe4849b320000000000000000000000000000000000000000000000356432b4078bf1d592",
        "nonce": "0xaad",
        "chainId": "0xaa36a7"
      },
      "additionalContracts": [],
      "isFixedGasLimit": false
    }
  ],
  "receipts": [
    {
      "status": "0x1",
      "cumulativeGasUsed": "0x1308c79",
      "logs": [
        {
          "address": "0xbf4a322f1496e5c3d34a9bcdb4c60567b38c7de2",
          "topics": [
            "0xddf252ad1be2c89b69c2b068fc378daa952ba7f163c4a11628f55a4df523b3ef",
            "0x000000000000000000000000c77f7fed3b5cc8249adc428c5f44c9063b9734b4",
            "0x0000000000000000000000000000000000000000000000000000000000000000"
          ],
          "data": "0x0000000000000000000000000000000000000000000000356432b4078bf1d592",
          "blockHash": "0xbd34ccf8eb97d065feabb656bb4db01965b1e192d6eece19914359e470401ce0",
          "blockNumber": "0x725a96",
          "transactionHash": "0x8b23f056d6469357177611df02bf47e2af093d49e7f4a3f7081eb745fc9d28c4",
          "transactionIndex": "0x8b",
          "logIndex": "0xfb",
          "removed": false
        },
        {
          "address": "0xbf4a322f1496e5c3d34a9bcdb4c60567b38c7de2",
          "topics": [
            "0x4afcb4a87cdbd9974efdb92ee48bc8d7cd0ae4bf217004db3d080cbaee652ca7"
          ],
          "data": "0x000000000000000000000000000000000000000000000000000000006787315800000000000000000000000000000000000000000000000000039501439af9540000000000000000000000000000000000000000000000000dc7e3ed73f83e1a",
          "blockHash": "0xbd34ccf8eb97d065feabb656bb4db01965b1e192d6eece19914359e470401ce0",
          "blockNumber": "0x725a96",
          "transactionHash": "0x8b23f056d6469357177611df02bf47e2af093d49e7f4a3f7081eb745fc9d28c4",
          "transactionIndex": "0x8b",
          "logIndex": "0xfc",
          "removed": false
        }
      ],
      "logsBloom": "0x00000000000000000000000000000000000000000000000000000000000000000000000000000000000000000000000000000000000000004000000000000000000000000000000000000008000000000000001000000000000000000000000000000000020000000000000000000800020000000000000000000010000000000000000000000000000000000000000000000000000008000000010000000000000000000000000000000000000000004000000000000000000000000000000000000002000000800000000000001000000000000000080000000000000020000000000000000000000000000000000000000000000000000000000000000000",
      "type": "0x2",
      "transactionHash": "0x8b23f056d6469357177611df02bf47e2af093d49e7f4a3f7081eb745fc9d28c4",
      "transactionIndex": "0x8b",
      "blockHash": "0xbd34ccf8eb97d065feabb656bb4db01965b1e192d6eece19914359e470401ce0",
      "blockNumber": "0x725a96",
      "gasUsed": "0xfb91",
      "effectiveGasPrice": "0x199b2f3f3",
      "from": "0xc77f7fed3b5cc8249adc428c5f44c9063b9734b4",
      "to": "0xbf4a322f1496e5c3d34a9bcdb4c60567b38c7de2",
      "contractAddress": null
    }
  ],
  "libraries": [],
  "pending": [],
  "returns": {},
  "timestamp": 1736913241,
  "chain": 11155111,
  "commit": "51a374b"
}