{
  "transactions": [
    {
      "hash": "0x2674894dd140149d21ed66b5328d2b66efb65ac4ae030e70bad63a6eb418dcb3",
      "transactionType": "CALL",
      "contractName": null,
      "contractAddress": "0x00972455a43df7d89f165c5b82f30c20247bb610",
      "function": "borrow(uint256,uint256)",
      "arguments": [
        "100000659807012953",
        "0"
      ],
      "transaction": {
        "from": "0xc77f7fed3b5cc8249adc428c5f44c9063b9734b4",
        "to": "0x00972455a43df7d89f165c5b82f30c20247bb610",
        "gas": "0x2606a",
        "value": "0x0",
        "input": "0x0ecbcdab00000000000000000000000000000000000000000000000001634611fd1a08590000000000000000000000000000000000000000000000000000000000000000",
        "nonce": "0x1877",
        "chainId": "0xaa36a7"
      },
      "additionalContracts": [],
      "isFixedGasLimit": false
    }
  ],
  "receipts": [
    {
      "status": "0x1",
      "cumulativeGasUsed": "0x2a6bbc",
      "logs": [
        {
          "address": "0x00972455a43df7d89f165c5b82f30c20247bb610",
          "topics": [
            "0xddf252ad1be2c89b69c2b068fc378daa952ba7f163c4a11628f55a4df523b3ef",
            "0x000000000000000000000000c77f7fed3b5cc8249adc428c5f44c9063b9734b4",
            "0x00000000000000000000000000972455a43df7d89f165c5b82f30c20247bb610"
          ],
          "data": "0x000000000000000000000000000000000000000000000002e55023950b5138ee",
          "blockHash": "0xd032dc643b002c68eb3453d9d470174284568e2990343cd45a2eb3fb9cb3f406",
          "blockNumber": "0x737e8f",
          "transactionHash": "0x2674894dd140149d21ed66b5328d2b66efb65ac4ae030e70bad63a6eb418dcb3",
          "transactionIndex": "0x1d",
          "logIndex": "0x2c",
          "removed": false
        },
        {
          "address": "0x00972455a43df7d89f165c5b82f30c20247bb610",
          "topics": [
            "0xddf252ad1be2c89b69c2b068fc378daa952ba7f163c4a11628f55a4df523b3ef",
            "0x00000000000000000000000000972455a43df7d89f165c5b82f30c20247bb610",
            "0x000000000000000000000000c77f7fed3b5cc8249adc428c5f44c9063b9734b4"
          ],
          "data": "0x00000000000000000000000000000000000000000000000000390af65084d61f",
          "blockHash": "0xd032dc643b002c68eb3453d9d470174284568e2990343cd45a2eb3fb9cb3f406",
          "blockNumber": "0x737e8f",
          "transactionHash": "0x2674894dd140149d21ed66b5328d2b66efb65ac4ae030e70bad63a6eb418dcb3",
          "transactionIndex": "0x1d",
          "logIndex": "0x2d",
          "removed": false
        },
        {
          "address": "0x00972455a43df7d89f165c5b82f30c20247bb610",
          "topics": [
            "0xddf252ad1be2c89b69c2b068fc378daa952ba7f163c4a11628f55a4df523b3ef",
            "0x00000000000000000000000000972455a43df7d89f165c5b82f30c20247bb610",
            "0x0000000000000000000000000000000000000000000000000000000000000000"
          ],
          "data": "0x000000000000000000000000000000000000000000000000008519941135f3a0",
          "blockHash": "0xd032dc643b002c68eb3453d9d470174284568e2990343cd45a2eb3fb9cb3f406",
          "blockNumber": "0x737e8f",
          "transactionHash": "0x2674894dd140149d21ed66b5328d2b66efb65ac4ae030e70bad63a6eb418dcb3",
          "transactionIndex": "0x1d",
          "logIndex": "0x2e",
          "removed": false
        },
        {
          "address": "0x00972455a43df7d89f165c5b82f30c20247bb610",
          "topics": [
            "0x03bbe564cb1b78e43195eeadbde99e5b89b19345862807fcfb59f884e4165e25"
          ],
          "data": "0x000000000000000000000000c77f7fed3b5cc8249adc428c5f44c9063b9734b4000000000000000000000000000000000000000000000000015f5e5ae54ceee3",
          "blockHash": "0xd032dc643b002c68eb3453d9d470174284568e2990343cd45a2eb3fb9cb3f406",
          "blockNumber": "0x737e8f",
          "transactionHash": "0x2674894dd140149d21ed66b5328d2b66efb65ac4ae030e70bad63a6eb418dcb3",
          "transactionIndex": "0x1d",
          "logIndex": "0x2f",
          "removed": false
        },
        {
          "address": "0x00972455a43df7d89f165c5b82f30c20247bb610",
          "topics": [
            "0xaec00f5213a37254bc68a26b0685d1a5b2bf513e1e587c94c7df7f4a62b56c9c"
          ],
          "data": "0x0000000000000000000000000000000000000000000000000000000000000000000000000000000000000000000000000000000000000000000000000000000000000000000000000000000000000000000000000000000000000000000000000000000000000000000000000000000000000000000000000000000000000000",
          "blockHash": "0xd032dc643b002c68eb3453d9d470174284568e2990343cd45a2eb3fb9cb3f406",
          "blockNumber": "0x737e8f",
          "transactionHash": "0x2674894dd140149d21ed66b5328d2b66efb65ac4ae030e70bad63a6eb418dcb3",
          "transactionIndex": "0x1d",
          "logIndex": "0x30",
          "removed": false
        },
        {
          "address": "0x00972455a43df7d89f165c5b82f30c20247bb610",
          "topics": [
            "0xaec00f5213a37254bc68a26b0685d1a5b2bf513e1e587c94c7df7f4a62b56c9c"
          ],
          "data": "0x000000000000000000000000000000000000000000000002e60728d3f0e7d25500000000000000000000000000000000000000000000000001600e0bf1a5688700000000000000000000000000000000000000000000000001600e0bf1a56887000000000000000000000000000000000000000000000002e60728d3f0e7d255",
          "blockHash": "0xd032dc643b002c68eb3453d9d470174284568e2990343cd45a2eb3fb9cb3f406",
          "blockNumber": "0x737e8f",
          "transactionHash": "0x2674894dd140149d21ed66b5328d2b66efb65ac4ae030e70bad63a6eb418dcb3",
          "transactionIndex": "0x1d",
          "logIndex": "0x31",
          "removed": false
        },
        {
          "address": "0x00972455a43df7d89f165c5b82f30c20247bb610",
          "topics": [
            "0x4afcb4a87cdbd9974efdb92ee48bc8d7cd0ae4bf217004db3d080cbaee652ca7"
          ],
          "data": "0x00000000000000000000000000000000000000000000000000000000679514700000000000000000000000000000000000000000000000000006a7d3f5a1263e00000000000000000000000000000000000000000000000000005b2031edf042",
          "blockHash": "0xd032dc643b002c68eb3453d9d470174284568e2990343cd45a2eb3fb9cb3f406",
          "blockNumber": "0x737e8f",
          "transactionHash": "0x2674894dd140149d21ed66b5328d2b66efb65ac4ae030e70bad63a6eb418dcb3",
          "transactionIndex": "0x1d",
          "logIndex": "0x32",
          "removed": false
        }
      ],
      "logsBloom": "0x00000000000008000000000000000100400000000000000000000000000000000008000000000000000000000000000000002800000000004400000000000000000000000000000000000008000000000000000000000000000000000000000000000000020000000000000000000800028000000000000000000010000000000000000000000000000000000000000000000000000000000000010000000000000000000000000000000400000000004000000000400000000040001000000000000002000000800000000000000000000000000000080000000000000020000000000000000000000000000000000000000000000000000000000000000000",
      "type": "0x2",
      "transactionHash": "0x2674894dd140149d21ed66b5328d2b66efb65ac4ae030e70bad63a6eb418dcb3",
      "transactionIndex": "0x1d",
      "blockHash": "0xd032dc643b002c68eb3453d9d470174284568e2990343cd45a2eb3fb9cb3f406",
      "blockNumber": "0x737e8f",
      "gasUsed": "0x1a003",
      "effectiveGasPrice": "0x22cb028bf",
      "from": "0xc77f7fed3b5cc8249adc428c5f44c9063b9734b4",
      "to": "0x00972455a43df7d89f165c5b82f30c20247bb610",
      "contractAddress": null
    }
  ],
  "libraries": [],
  "pending": [],
  "returns": {},
  "timestamp": 1737823345,
  "chain": 11155111,
  "commit": "f5162e9"
}