{
  "transactions": [
    {
      "hash": "0xe860bf7ffb074c821b9053a294a1bf03e063a26218153fe5e30f7151103b6126",
      "transactionType": "CALL",
      "contractName": null,
      "contractAddress": "0xbf4a322f1496e5c3d34a9bcdb4c60567b38c7de2",
      "function": "sell(uint256)",
      "arguments": [
        "976054392984704514363"
      ],
      "transaction": {
        "from": "0xc77f7fed3b5cc8249adc428c5f44c9063b9734b4",
        "to": "0xbf4a322f1496e5c3d34a9bcdb4c60567b38c7de2",
        "gas": "0x16fea",
        "value": "0x0",
        "input": "0xe4849b32000000000000000000000000000000000000000000000034e979cb0fd0d5f93b",
        "nonce": "0xd3f",
        "chainId": "0xaa36a7"
      },
      "additionalContracts": [],
      "isFixedGasLimit": false
    }
  ],
  "receipts": [
    {
      "status": "0x1",
      "cumulativeGasUsed": "0xebe8a5",
      "logs": [
        {
          "address": "0xbf4a322f1496e5c3d34a9bcdb4c60567b38c7de2",
          "topics": [
            "0xddf252ad1be2c89b69c2b068fc378daa952ba7f163c4a11628f55a4df523b3ef",
            "0x000000000000000000000000c77f7fed3b5cc8249adc428c5f44c9063b9734b4",
            "0x0000000000000000000000000000000000000000000000000000000000000000"
          ],
          "data": "0x000000000000000000000000000000000000000000000034e979cb0fd0d5f93b",
          "blockHash": "0xa0a9aed529608c479af461f36f12a41d1696114dc72722a6115a8f80e735fa79",
          "blockNumber": "0x725da5",
          "transactionHash": "0xe860bf7ffb074c821b9053a294a1bf03e063a26218153fe5e30f7151103b6126",
          "transactionIndex": "0x6c",
          "logIndex": "0x72",
          "removed": false
        },
        {
          "address": "0xbf4a322f1496e5c3d34a9bcdb4c60567b38c7de2",
          "topics": [
            "0x4afcb4a87cdbd9974efdb92ee48bc8d7cd0ae4bf217004db3d080cbaee652ca7"
          ],
          "data": "0x000000000000000000000000000000000000000000000000000000006787563000000000000000000000000000000000000000000000000000039d501341a3d00000000000000000000000000000000000000000000000000dc7e3d8e481dcf6",
          "blockHash": "0xa0a9aed529608c479af461f36f12a41d1696114dc72722a6115a8f80e735fa79",
          "blockNumber": "0x725da5",
          "transactionHash": "0xe860bf7ffb074c821b9053a294a1bf03e063a26218153fe5e30f7151103b6126",
          "transactionIndex": "0x6c",
          "logIndex": "0x73",
          "removed": false
        }
      ],
      "logsBloom": "0x00000000000000000000000000000000000000000000000000000000000000000000000000000000000000000000000000000000000000004000000000000000000000000000000000000008000000000000001000000000000000000000000000000000020000000000000000000800020000000000000000000010000000000000000000000000000000000000000000000000000008000000010000000000000000000000000000000000000000004000000000000000000000000000000000000002000000800000000000001000000000000000080000000000000020000000000000000000000000000000000000000000000000000000000000000000",
      "type": "0x2",
      "transactionHash": "0xe860bf7ffb074c821b9053a294a1bf03e063a26218153fe5e30f7151103b6126",
      "transactionIndex": "0x6c",
      "blockHash": "0xa0a9aed529608c479af461f36f12a41d1696114dc72722a6115a8f80e735fa79",
      "blockNumber": "0x725da5",
      "gasUsed": "0xfb91",
      "effectiveGasPrice": "0x44023e289",
      "from": "0xc77f7fed3b5cc8249adc428c5f44c9063b9734b4",
      "to": "0xbf4a322f1496e5c3d34a9bcdb4c60567b38c7de2",
      "contractAddress": null
    }
  ],
  "libraries": [],
  "pending": [],
  "returns": {},
  "timestamp": 1736922673,
  "chain": 11155111,
  "commit": "51a374b"
}