{
  "transactions": [
    {
      "hash": "0x1147ad344692d5d43c44589e77c93844e2f7b5ed1fa5ebf038547a42b2694e05",
      "transactionType": "CALL",
      "contractName": null,
      "contractAddress": "0xd7bc75898e513accccf720a874d44dab5a4b6223",
      "function": "buy(address)",
      "arguments": [
        "0xC77f7fed3b5Cc8249aDc428c5F44C9063B9734b4"
      ],
      "transaction": {
        "from": "0xc77f7fed3b5cc8249adc428c5f44c9063b9734b4",
        "to": "0xd7bc75898e513accccf720a874d44dab5a4b6223",
        "gas": "0x1b30c",
        "value": "0x2386f26fc10000",
        "input": "0xf088d547000000000000000000000000c77f7fed3b5cc8249adc428c5f44c9063b9734b4",
        "nonce": "0x10a",
        "chainId": "0xaa36a7"
      },
      "additionalContracts": [],
      "isFixedGasLimit": false
    }
  ],
  "receipts": [
    {
      "status": "0x1",
      "cumulativeGasUsed": "0x68ba4e",
      "logs": [
        {
          "address": "0xd7bc75898e513accccf720a874d44dab5a4b6223",
          "topics": [
            "0xddf252ad1be2c89b69c2b068fc378daa952ba7f163c4a11628f55a4df523b3ef",
            "0x0000000000000000000000000000000000000000000000000000000000000000",
            "0x000000000000000000000000c77f7fed3b5cc8249adc428c5f44c9063b9734b4"
          ],
          "data": "0x0000000000000000000000000000000000000000000000008963ba4f8c04186c",
          "blockHash": "0x2972a68091677708fd378995699c2681e61e12c974f19b326f826d72f6c8aed8",
          "blockNumber": "0x72399d",
          "transactionHash": "0x1147ad344692d5d43c44589e77c93844e2f7b5ed1fa5ebf038547a42b2694e05",
          "transactionIndex": "0x22",
          "logIndex": "0x4d",
          "removed": false
        },
        {
          "address": "0xd7bc75898e513accccf720a874d44dab5a4b6223",
          "topics": [
            "0xddf252ad1be2c89b69c2b068fc378daa952ba7f163c4a11628f55a4df523b3ef",
            "0x0000000000000000000000000000000000000000000000000000000000000000",
            "0x000000000000000000000000c77f7fed3b5cc8249adc428c5f44c9063b9734b4"
          ],
          "data": "0x000000000000000000000000000000000000000000000000006ab00bdbb5ce8b",
          "blockHash": "0x2972a68091677708fd378995699c2681e61e12c974f19b326f826d72f6c8aed8",
          "blockNumber": "0x72399d",
          "transactionHash": "0x1147ad344692d5d43c44589e77c93844e2f7b5ed1fa5ebf038547a42b2694e05",
          "transactionIndex": "0x22",
          "logIndex": "0x4e",
          "removed": false
        },
        {
          "address": "0xd7bc75898e513accccf720a874d44dab5a4b6223",
          "topics": [
            "0x4afcb4a87cdbd9974efdb92ee48bc8d7cd0ae4bf217004db3d080cbaee652ca7"
          ],
          "data": "0x000000000000000000000000000000000000000000000000000000006785a4b000000000000000000000000000000000000000000000000000038d7f8e1b3efc000000000000000000000000000000000000000000000000002386f26fc10000",
          "blockHash": "0x2972a68091677708fd378995699c2681e61e12c974f19b326f826d72f6c8aed8",
          "blockNumber": "0x72399d",
          "transactionHash": "0x1147ad344692d5d43c44589e77c93844e2f7b5ed1fa5ebf038547a42b2694e05",
          "transactionIndex": "0x22",
          "logIndex": "0x4f",
          "removed": false
        }
      ],
      "logsBloom": "0x00000000000000000000000000000000000000000000000000000000000000000000000000000000000000000000000000000000000000004000000000000000000000000000000000000008000000000000000000000000000000000000000000000000020000000000000000000800020000000000000000000010000000000000000000000000000000000000000000000000000000000000010000000000000000000000000000000000000000004000001000000000000000000000000000000002000000800000000000004000000000000000080000000000000020000000000000000000000000000000000000000000080000000000000000000000",
      "type": "0x2",
      "transactionHash": "0x1147ad344692d5d43c44589e77c93844e2f7b5ed1fa5ebf038547a42b2694e05",
      "transactionIndex": "0x22",
      "blockHash": "0x2972a68091677708fd378995699c2681e61e12c974f19b326f826d72f6c8aed8",
      "blockNumber": "0x72399d",
      "gasUsed": "0x13af8",
      "effectiveGasPrice": "0x242035c8a",
      "from": "0xc77f7fed3b5cc8249adc428c5f44c9063b9734b4",
      "to": "0xd7bc75898e513accccf720a874d44dab5a4b6223",
      "contractAddress": null
    }
  ],
  "libraries": [],
  "pending": [],
  "returns": {},
  "timestamp": 1736811698,
  "chain": 11155111,
  "commit": "51a374b"
}