{
  "transactions": [
    {
      "hash": "0x5d191f16a28fbffa5e4777f79db32c914fdbdaadfc4fd81ae6a29d4d722c9e89",
      "transactionType": "CALL",
      "contractName": null,
      "contractAddress": "0x8aafd3ede9adb0ff97c7aebce82a919afb1c8764",
      "function": "sell(uint256)",
      "arguments": [
        "11982"
      ],
      "transaction": {
        "from": "0xc77f7fed3b5cc8249adc428c5f44c9063b9734b4",
        "to": "0x8aafd3ede9adb0ff97c7aebce82a919afb1c8764",
        "gas": "0x14e4c",
        "value": "0x0",
        "input": "0xe4849b320000000000000000000000000000000000000000000000000000000000002ece",
        "nonce": "0x1053",
        "chainId": "0xaa36a7"
      },
      "additionalContracts": [],
      "isFixedGasLimit": false
    }
  ],
  "receipts": [
    {
      "status": "0x1",
      "cumulativeGasUsed": "0x89b3e4",
      "logs": [
        {
          "address": "0x8aafd3ede9adb0ff97c7aebce82a919afb1c8764",
          "topics": [
            "0xddf252ad1be2c89b69c2b068fc378daa952ba7f163c4a11628f55a4df523b3ef",
            "0x000000000000000000000000c77f7fed3b5cc8249adc428c5f44c9063b9734b4",
            "0x0000000000000000000000000000000000000000000000000000000000000000"
          ],
          "data": "0x0000000000000000000000000000000000000000000000000000000000002e6f",
          "blockHash": "0x03747fd118898a28cd43f9b4e6b0459ca670bce2b4321ee0107a6b65177d3aed",
          "blockNumber": "0x7316d5",
          "transactionHash": "0x5d191f16a28fbffa5e4777f79db32c914fdbdaadfc4fd81ae6a29d4d722c9e89",
          "transactionIndex": "0x7a",
          "logIndex": "0xa1",
          "removed": false
        },
        {
          "address": "0x8aafd3ede9adb0ff97c7aebce82a919afb1c8764",
          "topics": [
            "0xddf252ad1be2c89b69c2b068fc378daa952ba7f163c4a11628f55a4df523b3ef",
            "0x000000000000000000000000c77f7fed3b5cc8249adc428c5f44c9063b9734b4",
            "0x000000000000000000000000c77f7fed3b5cc8249adc428c5f44c9063b9734b4"
          ],
          "data": "0x000000000000000000000000000000000000000000000000000000000000005f",
          "blockHash": "0x03747fd118898a28cd43f9b4e6b0459ca670bce2b4321ee0107a6b65177d3aed",
          "blockNumber": "0x7316d5",
          "transactionHash": "0x5d191f16a28fbffa5e4777f79db32c914fdbdaadfc4fd81ae6a29d4d722c9e89",
          "transactionIndex": "0x7a",
          "logIndex": "0xa2",
          "removed": false
        },
        {
          "address": "0x8aafd3ede9adb0ff97c7aebce82a919afb1c8764",
          "topics": [
            "0x4afcb4a87cdbd9974efdb92ee48bc8d7cd0ae4bf217004db3d080cbaee652ca7"
          ],
          "data": "0x0000000000000000000000000000000000000000000000000000000067900eb40000000000000000000000000000000000000000000000000004f20447b436670000000000000000000000000000000000000000000000000000000000000010",
          "blockHash": "0x03747fd118898a28cd43f9b4e6b0459ca670bce2b4321ee0107a6b65177d3aed",
          "blockNumber": "0x7316d5",
          "transactionHash": "0x5d191f16a28fbffa5e4777f79db32c914fdbdaadfc4fd81ae6a29d4d722c9e89",
          "transactionIndex": "0x7a",
          "logIndex": "0xa3",
          "removed": false
        }
      ],
      "logsBloom": "0x00000000000000000000000000000000000000000600000000000000000000000000000000000000000000000000000000000000000000004000000000000000000000000000004000000008000000000000000000000000000000000000000000000000020000000000000000000800020000000000000000000010000000000000000000000000000000000000000000000000000000000000010000000000000000000000000000000000000000004000000000000000000000000000000000000002000000800000000000000000000000000000080000000000000020000000000000000000000000000000000000000000000000000000000000000000",
      "type": "0x2",
      "transactionHash": "0x5d191f16a28fbffa5e4777f79db32c914fdbdaadfc4fd81ae6a29d4d722c9e89",
      "transactionIndex": "0x7a",
      "blockHash": "0x03747fd118898a28cd43f9b4e6b0459ca670bce2b4321ee0107a6b65177d3aed",
      "blockNumber": "0x7316d5",
      "gasUsed": "0xf207",
      "effectiveGasPrice": "0x499ce539",
      "from": "0xc77f7fed3b5cc8249adc428c5f44c9063b9734b4",
      "to": "0x8aafd3ede9adb0ff97c7aebce82a919afb1c8764",
      "contractAddress": null
    }
  ],
  "libraries": [],
  "pending": [],
  "returns": {},
  "timestamp": 1737494196,
  "chain": 11155111,
  "commit": "1d2fb70"
}