{
  "transactions": [
    {
      "hash": "0x8c0f125130ca926b41caa9ba3c2030b71933a1492dc579031db2398fed123cb1",
      "transactionType": "CALL",
      "contractName": null,
      "contractAddress": "0xbf4a322f1496e5c3d34a9bcdb4c60567b38c7de2",
      "function": "sell(uint256)",
      "arguments": [
        "988599936089568396700"
      ],
      "transaction": {
        "from": "0xc77f7fed3b5cc8249adc428c5f44c9063b9734b4",
        "to": "0xbf4a322f1496e5c3d34a9bcdb4c60567b38c7de2",
        "gas": "0x16fea",
        "value": "0x0",
        "input": "0xe4849b320000000000000000000000000000000000000000000000359794840be899459c",
        "nonce": "0x99d",
        "chainId": "0xaa36a7"
      },
      "additionalContracts": [],
      "isFixedGasLimit": false
    }
  ],
  "receipts": [
    {
      "status": "0x1",
      "cumulativeGasUsed": "0x14fc78e",
      "logs": [
        {
          "address": "0xbf4a322f1496e5c3d34a9bcdb4c60567b38c7de2",
          "topics": [
            "0xddf252ad1be2c89b69c2b068fc378daa952ba7f163c4a11628f55a4df523b3ef",
            "0x000000000000000000000000c77f7fed3b5cc8249adc428c5f44c9063b9734b4",
            "0x0000000000000000000000000000000000000000000000000000000000000000"
          ],
          "data": "0x0000000000000000000000000000000000000000000000359794840be899459c",
          "blockHash": "0xdc86212c404db6b231ebc19c49408792291396953c611911e1d06b0e5b6a60bb",
          "blockNumber": "0x725944",
          "transactionHash": "0x8c0f125130ca926b41caa9ba3c2030b71933a1492dc579031db2398fed123cb1",
          "transactionIndex": "0x8e",
          "logIndex": "0x1b5",
          "removed": false
        },
        {
          "address": "0xbf4a322f1496e5c3d34a9bcdb4c60567b38c7de2",
          "topics": [
            "0x4afcb4a87cdbd9974efdb92ee48bc8d7cd0ae4bf217004db3d080cbaee652ca7"
          ],
          "data": "0x000000000000000000000000000000000000000000000000000000006787215c00000000000000000000000000000000000000000000000000039192194876e80000000000000000000000000000000000000000000000000dc7e3f60faaba07",
          "blockHash": "0xdc86212c404db6b231ebc19c49408792291396953c611911e1d06b0e5b6a60bb",
          "blockNumber": "0x725944",
          "transactionHash": "0x8c0f125130ca926b41caa9ba3c2030b71933a1492dc579031db2398fed123cb1",
          "transactionIndex": "0x8e",
          "logIndex": "0x1b6",
          "removed": false
        }
      ],
      "logsBloom": "0x00000000000000000000000000000000000000000000000000000000000000000000000000000000000000000000000000000000000000004000000000000000000000000000000000000008000000000000001000000000000000000000000000000000020000000000000000000800020000000000000000000010000000000000000000000000000000000000000000000000000008000000010000000000000000000000000000000000000000004000000000000000000000000000000000000002000000800000000000001000000000000000080000000000000020000000000000000000000000000000000000000000000000000000000000000000",
      "type": "0x2",
      "transactionHash": "0x8c0f125130ca926b41caa9ba3c2030b71933a1492dc579031db2398fed123cb1",
      "transactionIndex": "0x8e",
      "blockHash": "0xdc86212c404db6b231ebc19c49408792291396953c611911e1d06b0e5b6a60bb",
      "blockNumber": "0x725944",
      "gasUsed": "0xfb91",
      "effectiveGasPrice": "0x2586bec71",
      "from": "0xc77f7fed3b5cc8249adc428c5f44c9063b9734b4",
      "to": "0xbf4a322f1496e5c3d34a9bcdb4c60567b38c7de2",
      "contractAddress": null
    }
  ],
  "libraries": [],
  "pending": [],
  "returns": {},
  "timestamp": 1736909149,
  "chain": 11155111,
  "commit": "51a374b"
}