{
  "transactions": [
    {
      "hash": "0xaa51c20578e074b2a7c238a86e315d75c3469c66d94ccb579bfda386984e37e8",
      "transactionType": "CALL",
      "contractName": null,
      "contractAddress": "0x5eb9cc76c3506942c1c0ead70e877dd5e4f00cb0",
      "function": "sell(uint256)",
      "arguments": [
        "989619703693592770913"
      ],
      "transaction": {
        "from": "0xc77f7fed3b5cc8249adc428c5f44c9063b9734b4",
        "to": "0x5eb9cc76c3506942c1c0ead70e877dd5e4f00cb0",
        "gas": "0x16fec",
        "value": "0x0",
        "input": "0xe4849b32000000000000000000000000000000000000000000000035a5bb754787ec3961",
        "nonce": "0x231",
        "chainId": "0xaa36a7"
      },
      "additionalContracts": [],
      "isFixedGasLimit": false
    }
  ],
  "receipts": [
    {
      "status": "0x1",
      "cumulativeGasUsed": "0xb09682",
      "logs": [
        {
          "address": "0x5eb9cc76c3506942c1c0ead70e877dd5e4f00cb0",
          "topics": [
            "0xddf252ad1be2c89b69c2b068fc378daa952ba7f163c4a11628f55a4df523b3ef",
            "0x000000000000000000000000c77f7fed3b5cc8249adc428c5f44c9063b9734b4",
            "0x0000000000000000000000000000000000000000000000000000000000000000"
          ],
          "data": "0x000000000000000000000000000000000000000000000035a5bb754787ec3961",
          "blockHash": "0xed132404441413f4a34436d901cbae0ed43cdaeae3537b9727b84bbfbd67020e",
          "blockNumber": "0x724de2",
          "transactionHash": "0xaa51c20578e074b2a7c238a86e315d75c3469c66d94ccb579bfda386984e37e8",
          "transactionIndex": "0x79",
          "logIndex": "0xc9",
          "removed": false
        },
        {
          "address": "0x5eb9cc76c3506942c1c0ead70e877dd5e4f00cb0",
          "topics": [
            "0x4afcb4a87cdbd9974efdb92ee48bc8d7cd0ae4bf217004db3d080cbaee652ca7"
          ],
          "data": "0x000000000000000000000000000000000000000000000000000000006786984c0000000000000000000000000000000000000000000000000003909ab671ebb10000000000000000000000000000000000000000000000000dc7db118382a4c6",
          "blockHash": "0xed132404441413f4a34436d901cbae0ed43cdaeae3537b9727b84bbfbd67020e",
          "blockNumber": "0x724de2",
          "transactionHash": "0xaa51c20578e074b2a7c238a86e315d75c3469c66d94ccb579bfda386984e37e8",
          "transactionIndex": "0x79",
          "logIndex": "0xca",
          "removed": false
        }
      ],
      "logsBloom": "0x00000000000000000000000000000000000000000000000000000000000000000000000000000000000000000000000000000000000000004000000000000000000000000000000000000008000000000000000000000000000000000000000000000000020000000000000004000800020000000000000000000010000000000000000000000000000000000000000000000000000000000000010000000000000000000000000000000000000000004000000000000000000000000000020000000002000000800000008000000000000000000000080000000000000020000000000000000000000000000000000000000000000000000000000000000000",
      "type": "0x2",
      "transactionHash": "0xaa51c20578e074b2a7c238a86e315d75c3469c66d94ccb579bfda386984e37e8",
      "transactionIndex": "0x79",
      "blockHash": "0xed132404441413f4a34436d901cbae0ed43cdaeae3537b9727b84bbfbd67020e",
      "blockNumber": "0x724de2",
      "gasUsed": "0xfb93",
      "effectiveGasPrice": "0x400cb7933",
      "from": "0xc77f7fed3b5cc8249adc428c5f44c9063b9734b4",
      "to": "0x5eb9cc76c3506942c1c0ead70e877dd5e4f00cb0",
      "contractAddress": null
    }
  ],
  "libraries": [],
  "pending": [],
  "returns": {},
  "timestamp": 1736874061,
  "chain": 11155111,
  "commit": "51a374b"
}