{
  "transactions": [
    {
      "hash": "0xcd0c3c83c55465b3b073fad4e21aa4a29cf1056ef0dc7bf3d453b18d87be7f26",
      "transactionType": "CALL",
      "contractName": null,
      "contractAddress": "0x8aafd3ede9adb0ff97c7aebce82a919afb1c8764",
      "function": "sell(uint256)",
      "arguments": [
        "337762"
      ],
      "transaction": {
        "from": "0xc77f7fed3b5cc8249adc428c5f44c9063b9734b4",
        "to": "0x8aafd3ede9adb0ff97c7aebce82a919afb1c8764",
        "gas": "0x16208",
        "value": "0x0",
        "input": "0xe4849b320000000000000000000000000000000000000000000000000000000000052762",
        "nonce": "0x16ad",
        "chainId": "0xaa36a7"
      },
      "additionalContracts": [],
      "isFixedGasLimit": false
    }
  ],
  "receipts": [
    {
      "status": "0x1",
      "cumulativeGasUsed": "0xbe9f64",
      "logs": [
        {
          "address": "0x8aafd3ede9adb0ff97c7aebce82a919afb1c8764",
          "topics": [
            "0xddf252ad1be2c89b69c2b068fc378daa952ba7f163c4a11628f55a4df523b3ef",
            "0x000000000000000000000000c77f7fed3b5cc8249adc428c5f44c9063b9734b4",
            "0x0000000000000000000000000000000000000000000000000000000000000000"
          ],
          "data": "0x0000000000000000000000000000000000000000000000000000000000051cd4",
          "blockHash": "0x3cd6b3a6dbdf2965c3900c83de14b7332f75730f637e84e41eed520e22266f83",
          "blockNumber": "0x731e66",
          "transactionHash": "0xcd0c3c83c55465b3b073fad4e21aa4a29cf1056ef0dc7bf3d453b18d87be7f26",
          "transactionIndex": "0x4b",
          "logIndex": "0x6d",
          "removed": false
        },
        {
          "address": "0x8aafd3ede9adb0ff97c7aebce82a919afb1c8764",
          "topics": [
            "0xddf252ad1be2c89b69c2b068fc378daa952ba7f163c4a11628f55a4df523b3ef",
            "0x000000000000000000000000c77f7fed3b5cc8249adc428c5f44c9063b9734b4",
            "0x000000000000000000000000c77f7fed3b5cc8249adc428c5f44c9063b9734b4"
          ],
          "data": "0x0000000000000000000000000000000000000000000000000000000000000a8e",
          "blockHash": "0x3cd6b3a6dbdf2965c3900c83de14b7332f75730f637e84e41eed520e22266f83",
          "blockNumber": "0x731e66",
          "transactionHash": "0xcd0c3c83c55465b3b073fad4e21aa4a29cf1056ef0dc7bf3d453b18d87be7f26",
          "transactionIndex": "0x4b",
          "logIndex": "0x6e",
          "removed": false
        },
        {
          "address": "0x8aafd3ede9adb0ff97c7aebce82a919afb1c8764",
          "topics": [
            "0x4afcb4a87cdbd9974efdb92ee48bc8d7cd0ae4bf217004db3d080cbaee652ca7"
          ],
          "data": "0x00000000000000000000000000000000000000000000000000000000679069b00000000000000000000000000000000000000000000000000016025e9e8e3603000000000000000000000000000000000000000000000000000000000000082c",
          "blockHash": "0x3cd6b3a6dbdf2965c3900c83de14b7332f75730f637e84e41eed520e22266f83",
          "blockNumber": "0x731e66",
          "transactionHash": "0xcd0c3c83c55465b3b073fad4e21aa4a29cf1056ef0dc7bf3d453b18d87be7f26",
          "transactionIndex": "0x4b",
          "logIndex": "0x6f",
          "removed": false
        }
      ],
      "logsBloom": "0x00000000000000000000000000000000000000000600000000000000000000000000000000000000000000000000000000000000000000004000000000000000000000000000004000000008000000000000000000000000000000000000000000000000020000000000000000000800020000000000000000000010000000000000000000000000000000000000000000000000000000000000010000000000000000000000000000000000000000004000000000000000000000000000000000000002000000800000000000000000000000000000080000000000000020000000000000000000000000000000000000000000000000000000000000000000",
      "type": "0x2",
      "transactionHash": "0xcd0c3c83c55465b3b073fad4e21aa4a29cf1056ef0dc7bf3d453b18d87be7f26",
      "transactionIndex": "0x4b",
      "blockHash": "0x3cd6b3a6dbdf2965c3900c83de14b7332f75730f637e84e41eed520e22266f83",
      "blockNumber": "0x731e66",
      "gasUsed": "0xf213",
      "effectiveGasPrice": "0x6799647b",
      "from": "0xc77f7fed3b5cc8249adc428c5f44c9063b9734b4",
      "to": "0x8aafd3ede9adb0ff97c7aebce82a919afb1c8764",
      "contractAddress": null
    }
  ],
  "libraries": [],
  "pending": [],
  "returns": {},
  "timestamp": 1737517490,
  "chain": 11155111,
  "commit": "1d2fb70"
}