{
  "transactions": [
    {
      "hash": "0x396e02bc6319dc85af5cf7ce6af28b828306eeec95065a09dee5b277ea3840c9",
      "transactionType": "CALL",
      "contractName": null,
      "contractAddress": "0x8aafd3ede9adb0ff97c7aebce82a919afb1c8764",
      "function": "sell(uint256)",
      "arguments": [
        "9266758704"
      ],
      "transaction": {
        "from": "0xc77f7fed3b5cc8249adc428c5f44c9063b9734b4",
        "to": "0x8aafd3ede9adb0ff97c7aebce82a919afb1c8764",
        "gas": "0x1722a",
        "value": "0x0",
        "input": "0xe4849b320000000000000000000000000000000000000000000000000000000228578430",
        "nonce": "0x1378",
        "chainId": "0xaa36a7"
      },
      "additionalContracts": [],
      "isFixedGasLimit": false
    }
  ],
  "receipts": [
    {
      "status": "0x1",
      "cumulativeGasUsed": "0xed3331",
      "logs": [
        {
          "address": "0x8aafd3ede9adb0ff97c7aebce82a919afb1c8764",
          "topics": [
            "0xddf252ad1be2c89b69c2b068fc378daa952ba7f163c4a11628f55a4df523b3ef",
            "0x000000000000000000000000c77f7fed3b5cc8249adc428c5f44c9063b9734b4",
            "0x0000000000000000000000000000000000000000000000000000000000000000"
          ],
          "data": "0x0000000000000000000000000000000000000000000000000000000223ec51fb",
          "blockHash": "0x31e7860151bc7c81acb4707e2970abcb993acaef0797f10be257e7ce0584b55e",
          "blockNumber": "0x731a9b",
          "transactionHash": "0x396e02bc6319dc85af5cf7ce6af28b828306eeec95065a09dee5b277ea3840c9",
          "transactionIndex": "0x80",
          "logIndex": "0x67",
          "removed": false
        },
        {
          "address": "0x8aafd3ede9adb0ff97c7aebce82a919afb1c8764",
          "topics": [
            "0xddf252ad1be2c89b69c2b068fc378daa952ba7f163c4a11628f55a4df523b3ef",
            "0x000000000000000000000000c77f7fed3b5cc8249adc428c5f44c9063b9734b4",
            "0x000000000000000000000000c77f7fed3b5cc8249adc428c5f44c9063b9734b4"
          ],
          "data": "0x00000000000000000000000000000000000000000000000000000000046b3235",
          "blockHash": "0x31e7860151bc7c81acb4707e2970abcb993acaef0797f10be257e7ce0584b55e",
          "blockNumber": "0x731a9b",
          "transactionHash": "0x396e02bc6319dc85af5cf7ce6af28b828306eeec95065a09dee5b277ea3840c9",
          "transactionIndex": "0x80",
          "logIndex": "0x68",
          "removed": false
        },
        {
          "address": "0x8aafd3ede9adb0ff97c7aebce82a919afb1c8764",
          "topics": [
            "0x4afcb4a87cdbd9974efdb92ee48bc8d7cd0ae4bf217004db3d080cbaee652ca7"
          ],
          "data": "0x0000000000000000000000000000000000000000000000000000000067903c14000000000000000000000000000000000000000000000000000c939e512572f70000000000000000000000000000000000000000000000000000000001f48e2e",
          "blockHash": "0x31e7860151bc7c81acb4707e2970abcb993acaef0797f10be257e7ce0584b55e",
          "blockNumber": "0x731a9b",
          "transactionHash": "0x396e02bc6319dc85af5cf7ce6af28b828306eeec95065a09dee5b277ea3840c9",
          "transactionIndex": "0x80",
          "logIndex": "0x69",
          "removed": false
        }
      ],
      "logsBloom": "0x00000000000000000000000000000000000000000600000000000000000000000000000000000000000000000000000000000000000000004000000000000000000000000000004000000008000000000000000000000000000000000000000000000000020000000000000000000800020000000000000000000010000000000000000000000000000000000000000000000000000000000000010000000000000000000000000000000000000000004000000000000000000000000000000000000002000000800000000000000000000000000000080000000000000020000000000000000000000000000000000000000000000000000000000000000000",
      "type": "0x2",
      "transactionHash": "0x396e02bc6319dc85af5cf7ce6af28b828306eeec95065a09dee5b277ea3840c9",
      "transactionIndex": "0x80",
      "blockHash": "0x31e7860151bc7c81acb4707e2970abcb993acaef0797f10be257e7ce0584b55e",
      "blockNumber": "0x731a9b",
      "gasUsed": "0xfd1b",
      "effectiveGasPrice": "0x7b146e11",
      "from": "0xc77f7fed3b5cc8249adc428c5f44c9063b9734b4",
      "to": "0x8aafd3ede9adb0ff97c7aebce82a919afb1c8764",
      "contractAddress": null
    }
  ],
  "libraries": [],
  "pending": [],
  "returns": {},
  "timestamp": 1737505814,
  "chain": 11155111,
  "commit": "1d2fb70"
}