{
  "transactions": [
    {
      "hash": "0x094d6d573c3be393d70780d1b2101c1161beb45fcebc574485aaf65707d1dab5",
      "transactionType": "CALL",
      "contractName": null,
      "contractAddress": "0x8aafd3ede9adb0ff97c7aebce82a919afb1c8764",
      "function": "sell(uint256)",
      "arguments": [
        "8697636331"
      ],
      "transaction": {
        "from": "0xc77f7fed3b5cc8249adc428c5f44c9063b9734b4",
        "to": "0x8aafd3ede9adb0ff97c7aebce82a919afb1c8764",
        "gas": "0x1722a",
        "value": "0x0",
        "input": "0xe4849b3200000000000000000000000000000000000000000000000000000002066b65eb",
        "nonce": "0x13c0",
        "chainId": "0xaa36a7"
      },
      "additionalContracts": [],
      "isFixedGasLimit": false
    }
  ],
  "receipts": [
    {
      "status": "0x1",
      "cumulativeGasUsed": "0x53b893",
      "logs": [
        {
          "address": "0x8aafd3ede9adb0ff97c7aebce82a919afb1c8764",
          "topics": [
            "0xddf252ad1be2c89b69c2b068fc378daa952ba7f163c4a11628f55a4df523b3ef",
            "0x000000000000000000000000c77f7fed3b5cc8249adc428c5f44c9063b9734b4",
            "0x0000000000000000000000000000000000000000000000000000000000000000"
          ],
          "data": "0x000000000000000000000000000000000000000000000000000000020245acc9",
          "blockHash": "0x24799a6f59f7b7815bb877aea8be4b9e742a57b7b6c5f9bac599c98bc5a72025",
          "blockNumber": "0x731aeb",
          "transactionHash": "0x094d6d573c3be393d70780d1b2101c1161beb45fcebc574485aaf65707d1dab5",
          "transactionIndex": "0x3c",
          "logIndex": "0x59",
          "removed": false
        },
        {
          "address": "0x8aafd3ede9adb0ff97c7aebce82a919afb1c8764",
          "topics": [
            "0xddf252ad1be2c89b69c2b068fc378daa952ba7f163c4a11628f55a4df523b3ef",
            "0x000000000000000000000000c77f7fed3b5cc8249adc428c5f44c9063b9734b4",
            "0x000000000000000000000000c77f7fed3b5cc8249adc428c5f44c9063b9734b4"
          ],
          "data": "0x000000000000000000000000000000000000000000000000000000000425b922",
          "blockHash": "0x24799a6f59f7b7815bb877aea8be4b9e742a57b7b6c5f9bac599c98bc5a72025",
          "blockNumber": "0x731aeb",
          "transactionHash": "0x094d6d573c3be393d70780d1b2101c1161beb45fcebc574485aaf65707d1dab5",
          "transactionIndex": "0x3c",
          "logIndex": "0x5a",
          "removed": false
        },
        {
          "address": "0x8aafd3ede9adb0ff97c7aebce82a919afb1c8764",
          "topics": [
            "0x4afcb4a87cdbd9974efdb92ee48bc8d7cd0ae4bf217004db3d080cbaee652ca7"
          ],
          "data": "0x0000000000000000000000000000000000000000000000000000000067903fd4000000000000000000000000000000000000000000000000000d64b024d347dd0000000000000000000000000000000000000000000000000000000001f4524a",
          "blockHash": "0x24799a6f59f7b7815bb877aea8be4b9e742a57b7b6c5f9bac599c98bc5a72025",
          "blockNumber": "0x731aeb",
          "transactionHash": "0x094d6d573c3be393d70780d1b2101c1161beb45fcebc574485aaf65707d1dab5",
          "transactionIndex": "0x3c",
          "logIndex": "0x5b",
          "removed": false
        }
      ],
      "logsBloom": "0x00000000000000000000000000000000000000000600000000000000000000000000000000000000000000000000000000000000000000004000000000000000000000000000004000000008000000000000000000000000000000000000000000000000020000000000000000000800020000000000000000000010000000000000000000000000000000000000000000000000000000000000010000000000000000000000000000000000000000004000000000000000000000000000000000000002000000800000000000000000000000000000080000000000000020000000000000000000000000000000000000000000000000000000000000000000",
      "type": "0x2",
      "transactionHash": "0x094d6d573c3be393d70780d1b2101c1161beb45fcebc574485aaf65707d1dab5",
      "transactionIndex": "0x3c",
      "blockHash": "0x24799a6f59f7b7815bb877aea8be4b9e742a57b7b6c5f9bac599c98bc5a72025",
      "blockNumber": "0x731aeb",
      "gasUsed": "0xfd1b",
      "effectiveGasPrice": "0x873a0abc",
      "from": "0xc77f7fed3b5cc8249adc428c5f44c9063b9734b4",
      "to": "0x8aafd3ede9adb0ff97c7aebce82a919afb1c8764",
      "contractAddress": null
    }
  ],
  "libraries": [],
  "pending": [],
  "returns": {},
  "timestamp": 1737506773,
  "chain": 11155111,
  "commit": "1d2fb70"
}