{
  "transactions": [
    {
      "hash": "0x88d6c049cd0282d9b57090ff591b50b23d233e5180c41e5558e96e6e3636416b",
      "transactionType": "CALL",
      "contractName": null,
      "contractAddress": "0x8aafd3ede9adb0ff97c7aebce82a919afb1c8764",
      "function": "sell(uint256)",
      "arguments": [
        "14914382559808879"
      ],
      "transaction": {
        "from": "0xc77f7fed3b5cc8249adc428c5f44c9063b9734b4",
        "to": "0x8aafd3ede9adb0ff97c7aebce82a919afb1c8764",
        "gas": "0x1724d",
        "value": "0x0",
        "input": "0xe4849b320000000000000000000000000000000000000000000000000034fc8d4a858d6f",
        "nonce": "0x145f",
        "chainId": "0xaa36a7"
      },
      "additionalContracts": [],
      "isFixedGasLimit": false
    }
  ],
  "receipts": [
    {
      "status": "0x1",
      "cumulativeGasUsed": "0xe418f6",
      "logs": [
        {
          "address": "0x8aafd3ede9adb0ff97c7aebce82a919afb1c8764",
          "topics": [
            "0xddf252ad1be2c89b69c2b068fc378daa952ba7f163c4a11628f55a4df523b3ef",
            "0x000000000000000000000000c77f7fed3b5cc8249adc428c5f44c9063b9734b4",
            "0x0000000000000000000000000000000000000000000000000000000000000000"
          ],
          "data": "0x0000000000000000000000000000000000000000000000000034900916b9bb68",
          "blockHash": "0x347e2575dc349126204aa8947955c8ba0a90e3369ccef297e6b6935364011356",
          "blockNumber": "0x731ba9",
          "transactionHash": "0x88d6c049cd0282d9b57090ff591b50b23d233e5180c41e5558e96e6e3636416b",
          "transactionIndex": "0x8d",
          "logIndex": "0x7b",
          "removed": false
        },
        {
          "address": "0x8aafd3ede9adb0ff97c7aebce82a919afb1c8764",
          "topics": [
            "0xddf252ad1be2c89b69c2b068fc378daa952ba7f163c4a11628f55a4df523b3ef",
            "0x000000000000000000000000c77f7fed3b5cc8249adc428c5f44c9063b9734b4",
            "0x000000000000000000000000c77f7fed3b5cc8249adc428c5f44c9063b9734b4"
          ],
          "data": "0x00000000000000000000000000000000000000000000000000006c8433cbd207",
          "blockHash": "0x347e2575dc349126204aa8947955c8ba0a90e3369ccef297e6b6935364011356",
          "blockNumber": "0x731ba9",
          "transactionHash": "0x88d6c049cd0282d9b57090ff591b50b23d233e5180c41e5558e96e6e3636416b",
          "transactionIndex": "0x8d",
          "logIndex": "0x7c",
          "removed": false
        },
        {
          "address": "0x8aafd3ede9adb0ff97c7aebce82a919afb1c8764",
          "topics": [
            "0x4afcb4a87cdbd9974efdb92ee48bc8d7cd0ae4bf217004db3d080cbaee652ca7"
          ],
          "data": "0x00000000000000000000000000000000000000000000000000000000679048c8000000000000000000000000000000000000000000000000000f3ddbbce6819e00000000000000000000000000000000000000000000000000003a319c2840c1",
          "blockHash": "0x347e2575dc349126204aa8947955c8ba0a90e3369ccef297e6b6935364011356",
          "blockNumber": "0x731ba9",
          "transactionHash": "0x88d6c049cd0282d9b57090ff591b50b23d233e5180c41e5558e96e6e3636416b",
          "transactionIndex": "0x8d",
          "logIndex": "0x7d",
          "removed": false
        }
      ],
      "logsBloom": "0x00000000000000000000000000000000000000000600000000000000000000000000000000000000000000000000000000000000000000004000000000000000000000000000004000000008000000000000000000000000000000000000000000000000020000000000000000000800020000000000000000000010000000000000000000000000000000000000000000000000000000000000010000000000000000000000000000000000000000004000000000000000000000000000000000000002000000800000000000000000000000000000080000000000000020000000000000000000000000000000000000000000000000000000000000000000",
      "type": "0x2",
      "transactionHash": "0x88d6c049cd0282d9b57090ff591b50b23d233e5180c41e5558e96e6e3636416b",
      "transactionIndex": "0x8d",
      "blockHash": "0x347e2575dc349126204aa8947955c8ba0a90e3369ccef297e6b6935364011356",
      "blockNumber": "0x731ba9",
      "gasUsed": "0xfd33",
      "effectiveGasPrice": "0x1102c4526",
      "from": "0xc77f7fed3b5cc8249adc428c5f44c9063b9734b4",
      "to": "0x8aafd3ede9adb0ff97c7aebce82a919afb1c8764",
      "contractAddress": null
    }
  ],
  "libraries": [],
  "pending": [],
  "returns": {},
  "timestamp": 1737509066,
  "chain": 11155111,
  "commit": "1d2fb70"
}