{
  "transactions": [
    {
      "hash": "0xfbcb2dc5d9a11b8023118ae330f940092c86bbc305f6c8a4ad99464618b9e58e",
      "transactionType": "CALL",
      "contractName": null,
      "contractAddress": "0xbf4a322f1496e5c3d34a9bcdb4c60567b38c7de2",
      "function": "sell(uint256)",
      "arguments": [
        "989064702438933534374"
      ],
      "transaction": {
        "from": "0xc77f7fed3b5cc8249adc428c5f44c9063b9734b4",
        "to": "0xbf4a322f1496e5c3d34a9bcdb4c60567b38c7de2",
        "gas": "0x16fea",
        "value": "0x0",
        "input": "0xe4849b320000000000000000000000000000000000000000000000359e07b2942e1016a6",
        "nonce": "0x97b",
        "chainId": "0xaa36a7"
      },
      "additionalContracts": [],
      "isFixedGasLimit": false
    }
  ],
  "receipts": [
    {
      "status": "0x1",
      "cumulativeGasUsed": "0x15452a2",
      "logs": [
        {
          "address": "0xbf4a322f1496e5c3d34a9bcdb4c60567b38c7de2",
          "topics": [
            "0xddf252ad1be2c89b69c2b068fc378daa952ba7f163c4a11628f55a4df523b3ef",
            "0x000000000000000000000000c77f7fed3b5cc8249adc428c5f44c9063b9734b4",
            "0x0000000000000000000000000000000000000000000000000000000000000000"
          ],
          "data": "0x0000000000000000000000000000000000000000000000359e07b2942e1016a6",
          "blockHash": "0xc3cba0d44ffe4e68192efbeab87a8d5480fb413a08bad87d1755cb9e904f8fa7",
          "blockNumber": "0x725917",
          "transactionHash": "0xfbcb2dc5d9a11b8023118ae330f940092c86bbc305f6c8a4ad99464618b9e58e",
          "transactionIndex": "0x8a",
          "logIndex": "0xbe",
          "removed": false
        },
        {
          "address": "0xbf4a322f1496e5c3d34a9bcdb4c60567b38c7de2",
          "topics": [
            "0x4afcb4a87cdbd9974efdb92ee48bc8d7cd0ae4bf217004db3d080cbaee652ca7"
          ],
          "data": "0x0000000000000000000000000000000000000000000000000000000067871f40000000000000000000000000000000000000000000000000000391243405c9660000000000000000000000000000000000000000000000000dc7e3f7244ae9b5",
          "blockHash": "0xc3cba0d44ffe4e68192efbeab87a8d5480fb413a08bad87d1755cb9e904f8fa7",
          "blockNumber": "0x725917",
          "transactionHash": "0xfbcb2dc5d9a11b8023118ae330f940092c86bbc305f6c8a4ad99464618b9e58e",
          "transactionIndex": "0x8a",
          "logIndex": "0xbf",
          "removed": false
        }
      ],
      "logsBloom": "0x00000000000000000000000000000000000000000000000000000000000000000000000000000000000000000000000000000000000000004000000000000000000000000000000000000008000000000000001000000000000000000000000000000000020000000000000000000800020000000000000000000010000000000000000000000000000000000000000000000000000008000000010000000000000000000000000000000000000000004000000000000000000000000000000000000002000000800000000000001000000000000000080000000000000020000000000000000000000000000000000000000000000000000000000000000000",
      "type": "0x2",
      "transactionHash": "0xfbcb2dc5d9a11b8023118ae330f940092c86bbc305f6c8a4ad99464618b9e58e",
      "transactionIndex": "0x8a",
      "blockHash": "0xc3cba0d44ffe4e68192efbeab87a8d5480fb413a08bad87d1755cb9e904f8fa7",
      "blockNumber": "0x725917",
      "gasUsed": "0xfb91",
      "effectiveGasPrice": "0xa8c63b9b",
      "from": "0xc77f7fed3b5cc8249adc428c5f44c9063b9734b4",
      "to": "0xbf4a322f1496e5c3d34a9bcdb4c60567b38c7de2",
      "contractAddress": null
    }
  ],
  "libraries": [],
  "pending": [],
  "returns": {},
  "timestamp": 1736908611,
  "chain": 11155111,
  "commit": "51a374b"
}