{
  "transactions": [
    {
      "hash": "0x29cb7a1d6148025ec2d4554f357aaf7c40b424a7c31522a5b9dd8eb21e6017f1",
      "transactionType": "CALL",
      "contractName": null,
      "contractAddress": "0x8aafd3ede9adb0ff97c7aebce82a919afb1c8764",
      "function": "sell(uint256)",
      "arguments": [
        "778650042827"
      ],
      "transaction": {
        "from": "0xc77f7fed3b5cc8249adc428c5f44c9063b9734b4",
        "to": "0x8aafd3ede9adb0ff97c7aebce82a919afb1c8764",
        "gas": "0x1722a",
        "value": "0x0",
        "input": "0xe4849b32000000000000000000000000000000000000000000000000000000b54b28c1cb",
        "nonce": "0x158a",
        "chainId": "0xaa36a7"
      },
      "additionalContracts": [],
      "isFixedGasLimit": false
    }
  ],
  "receipts": [
    {
      "status": "0x1",
      "cumulativeGasUsed": "0xf9cec3",
      "logs": [
        {
          "address": "0x8aafd3ede9adb0ff97c7aebce82a919afb1c8764",
          "topics": [
            "0xddf252ad1be2c89b69c2b068fc378daa952ba7f163c4a11628f55a4df523b3ef",
            "0x000000000000000000000000c77f7fed3b5cc8249adc428c5f44c9063b9734b4",
            "0x0000000000000000000000000000000000000000000000000000000000000000"
          ],
          "data": "0x000000000000000000000000000000000000000000000000000000b3d7deb3f5",
          "blockHash": "0xc38402a66c82904ee6fbe6aa08dd4322de931f0c4c6797493d50a32c3fdd31c1",
          "blockNumber": "0x731cf8",
          "transactionHash": "0x29cb7a1d6148025ec2d4554f357aaf7c40b424a7c31522a5b9dd8eb21e6017f1",
          "transactionIndex": "0x83",
          "logIndex": "0xe3",
          "removed": false
        },
        {
          "address": "0x8aafd3ede9adb0ff97c7aebce82a919afb1c8764",
          "topics": [
            "0xddf252ad1be2c89b69c2b068fc378daa952ba7f163c4a11628f55a4df523b3ef",
            "0x000000000000000000000000c77f7fed3b5cc8249adc428c5f44c9063b9734b4",
            "0x000000000000000000000000c77f7fed3b5cc8249adc428c5f44c9063b9734b4"
          ],
          "data": "0x00000000000000000000000000000000000000000000000000000001734a0dd6",
          "blockHash": "0xc38402a66c82904ee6fbe6aa08dd4322de931f0c4c6797493d50a32c3fdd31c1",
          "blockNumber": "0x731cf8",
          "transactionHash": "0x29cb7a1d6148025ec2d4554f357aaf7c40b424a7c31522a5b9dd8eb21e6017f1",
          "transactionIndex": "0x83",
          "logIndex": "0xe4",
          "removed": false
        },
        {
          "address": "0x8aafd3ede9adb0ff97c7aebce82a919afb1c8764",
          "topics": [
            "0x4afcb4a87cdbd9974efdb92ee48bc8d7cd0ae4bf217004db3d080cbaee652ca7"
          ],
          "data": "0x00000000000000000000000000000000000000000000000000000000679058880000000000000000000000000000000000000000000000000012a97bc0d4bc6600000000000000000000000000000000000000000000000000000000f3cb095a",
          "blockHash": "0xc38402a66c82904ee6fbe6aa08dd4322de931f0c4c6797493d50a32c3fdd31c1",
          "blockNumber": "0x731cf8",
          "transactionHash": "0x29cb7a1d6148025ec2d4554f357aaf7c40b424a7c31522a5b9dd8eb21e6017f1",
          "transactionIndex": "0x83",
          "logIndex": "0xe5",
          "removed": false
        }
      ],
      "logsBloom": "0x00000000000000000000000000000000000000000600000000000000000000000000000000000000000000000000000000000000000000004000000000000000000000000000004000000008000000000000000000000000000000000000000000000000020000000000000000000800020000000000000000000010000000000000000000000000000000000000000000000000000000000000010000000000000000000000000000000000000000004000000000000000000000000000000000000002000000800000000000000000000000000000080000000000000020000000000000000000000000000000000000000000000000000000000000000000",
      "type": "0x2",
      "transactionHash": "0x29cb7a1d6148025ec2d4554f357aaf7c40b424a7c31522a5b9dd8eb21e6017f1",
      "transactionIndex": "0x83",
      "blockHash": "0xc38402a66c82904ee6fbe6aa08dd4322de931f0c4c6797493d50a32c3fdd31c1",
      "blockNumber": "0x731cf8",
      "gasUsed": "0xfd1b",
      "effectiveGasPrice": "0x74c4d9c5",
      "from": "0xc77f7fed3b5cc8249adc428c5f44c9063b9734b4",
      "to": "0x8aafd3ede9adb0ff97c7aebce82a919afb1c8764",
      "contractAddress": null
    }
  ],
  "libraries": [],
  "pending": [],
  "returns": {},
  "timestamp": 1737513098,
  "chain": 11155111,
  "commit": "1d2fb70"
}