{
  "transactions": [
    {
      "hash": "0xd06f3f257a303213454ba8d37501f770130f61aec7140629e92dadece94feeff",
      "transactionType": "CALL",
      "contractName": null,
      "contractAddress": "0x8aafd3ede9adb0ff97c7aebce82a919afb1c8764",
      "function": "sell(uint256)",
      "arguments": [
        "824875903501"
      ],
      "transaction": {
        "from": "0xc77f7fed3b5cc8249adc428c5f44c9063b9734b4",
        "to": "0x8aafd3ede9adb0ff97c7aebce82a919afb1c8764",
        "gas": "0x1722a",
        "value": "0x0",
        "input": "0xe4849b32000000000000000000000000000000000000000000000000000000c00e6f6a0d",
        "nonce": "0x1530",
        "chainId": "0xaa36a7"
      },
      "additionalContracts": [],
      "isFixedGasLimit": false
    }
  ],
  "receipts": [
    {
      "status": "0x1",
      "cumulativeGasUsed": "0x1018101",
      "logs": [
        {
          "address": "0x8aafd3ede9adb0ff97c7aebce82a919afb1c8764",
          "topics": [
            "0xddf252ad1be2c89b69c2b068fc378daa952ba7f163c4a11628f55a4df523b3ef",
            "0x000000000000000000000000c77f7fed3b5cc8249adc428c5f44c9063b9734b4",
            "0x0000000000000000000000000000000000000000000000000000000000000000"
          ],
          "data": "0x000000000000000000000000000000000000000000000000000000be851a8e11",
          "blockHash": "0xc393c5eaa005bfc52344be778580466eed7fb69bd7bfe89af3e7f61f7e03fdfe",
          "blockNumber": "0x731c93",
          "transactionHash": "0xd06f3f257a303213454ba8d37501f770130f61aec7140629e92dadece94feeff",
          "transactionIndex": "0xb5",
          "logIndex": "0x118",
          "removed": false
        },
        {
          "address": "0x8aafd3ede9adb0ff97c7aebce82a919afb1c8764",
          "topics": [
            "0xddf252ad1be2c89b69c2b068fc378daa952ba7f163c4a11628f55a4df523b3ef",
            "0x000000000000000000000000c77f7fed3b5cc8249adc428c5f44c9063b9734b4",
            "0x000000000000000000000000c77f7fed3b5cc8249adc428c5f44c9063b9734b4"
          ],
          "data": "0x000000000000000000000000000000000000000000000000000000018954dbfc",
          "blockHash": "0xc393c5eaa005bfc52344be778580466eed7fb69bd7bfe89af3e7f61f7e03fdfe",
          "blockNumber": "0x731c93",
          "transactionHash": "0xd06f3f257a303213454ba8d37501f770130f61aec7140629e92dadece94feeff",
          "transactionIndex": "0xb5",
          "logIndex": "0x119",
          "removed": false
        },
        {
          "address": "0x8aafd3ede9adb0ff97c7aebce82a919afb1c8764",
          "topics": [
            "0x4afcb4a87cdbd9974efdb92ee48bc8d7cd0ae4bf217004db3d080cbaee652ca7"
          ],
          "data": "0x00000000000000000000000000000000000000000000000000000000679053c000000000000000000000000000000000000000000000000000119f2bc1a6acae00000000000000000000000000000000000000000000000000000000f3dea425",
          "blockHash": "0xc393c5eaa005bfc52344be778580466eed7fb69bd7bfe89af3e7f61f7e03fdfe",
          "blockNumber": "0x731c93",
          "transactionHash": "0xd06f3f257a303213454ba8d37501f770130f61aec7140629e92dadece94feeff",
          "transactionIndex": "0xb5",
          "logIndex": "0x11a",
          "removed": false
        }
      ],
      "logsBloom": "0x00000000000000000000000000000000000000000600000000000000000000000000000000000000000000000000000000000000000000004000000000000000000000000000004000000008000000000000000000000000000000000000000000000000020000000000000000000800020000000000000000000010000000000000000000000000000000000000000000000000000000000000010000000000000000000000000000000000000000004000000000000000000000000000000000000002000000800000000000000000000000000000080000000000000020000000000000000000000000000000000000000000000000000000000000000000",
      "type": "0x2",
      "transactionHash": "0xd06f3f257a303213454ba8d37501f770130f61aec7140629e92dadece94feeff",
      "transactionIndex": "0xb5",
      "blockHash": "0xc393c5eaa005bfc52344be778580466eed7fb69bd7bfe89af3e7f61f7e03fdfe",
      "blockNumber": "0x731c93",
      "gasUsed": "0xfd1b",
      "effectiveGasPrice": "0xf2be9859",
      "from": "0xc77f7fed3b5cc8249adc428c5f44c9063b9734b4",
      "to": "0x8aafd3ede9adb0ff97c7aebce82a919afb1c8764",
      "contractAddress": null
    }
  ],
  "libraries": [],
  "pending": [],
  "returns": {},
  "timestamp": 1737511874,
  "chain": 11155111,
  "commit": "1d2fb70"
}