{
  "transactions": [
    {
      "hash": "0x1063a1a370787e818bfcfbda5863db6c4192213aefc3cb7b03874ad5f2042330",
      "transactionType": "CALL",
      "contractName": null,
      "contractAddress": "0x5eb9cc76c3506942c1c0ead70e877dd5e4f00cb0",
      "function": "buy(address)",
      "arguments": [
        "0xC77f7fed3b5Cc8249aDc428c5F44C9063B9734b4"
      ],
      "transaction": {
        "from": "0xc77f7fed3b5cc8249adc428c5f44c9063b9734b4",
        "to": "0x5eb9cc76c3506942c1c0ead70e877dd5e4f00cb0",
        "gas": "0x1b30c",
        "value": "0xde0b6b3a7640000",
        "input": "0xf088d547000000000000000000000000c77f7fed3b5cc8249adc428c5f44c9063b9734b4",
        "nonce": "0x31c",
        "chainId": "0xaa36a7"
      },
      "additionalContracts": [],
      "isFixedGasLimit": false
    }
  ],
  "receipts": [
    {
      "status": "0x1",
      "cumulativeGasUsed": "0x9da38a",
      "logs": [
        {
          "address": "0x5eb9cc76c3506942c1c0ead70e877dd5e4f00cb0",
          "topics": [
            "0xddf252ad1be2c89b69c2b068fc378daa952ba7f163c4a11628f55a4df523b3ef",
            "0x0000000000000000000000000000000000000000000000000000000000000000",
            "0x000000000000000000000000c77f7fed3b5cc8249adc428c5f44c9063b9734b4"
          ],
          "data": "0x0000000000000000000000000000000000000000000000357582e9f8f0ca91ed",
          "blockHash": "0x722d89bdb5d1edc2deb5f04761b6f550fc62eed8385771eb5b23047e90ae636c",
          "blockNumber": "0x724f02",
          "transactionHash": "0x1063a1a370787e818bfcfbda5863db6c4192213aefc3cb7b03874ad5f2042330",
          "transactionIndex": "0x5b",
          "logIndex": "0x7a",
          "removed": false
        },
        {
          "address": "0x5eb9cc76c3506942c1c0ead70e877dd5e4f00cb0",
          "topics": [
            "0xddf252ad1be2c89b69c2b068fc378daa952ba7f163c4a11628f55a4df523b3ef",
            "0x0000000000000000000000000000000000000000000000000000000000000000",
            "0x000000000000000000000000c77f7fed3b5cc8249adc428c5f44c9063b9734b4"
          ],
          "data": "0x00000000000000000000000000000000000000000000000029834432c3901442",
          "blockHash": "0x722d89bdb5d1edc2deb5f04761b6f550fc62eed8385771eb5b23047e90ae636c",
          "blockNumber": "0x724f02",
          "transactionHash": "0x1063a1a370787e818bfcfbda5863db6c4192213aefc3cb7b03874ad5f2042330",
          "transactionIndex": "0x5b",
          "logIndex": "0x7b",
          "removed": false
        },
        {
          "address": "0x5eb9cc76c3506942c1c0ead70e877dd5e4f00cb0",
          "topics": [
            "0x4afcb4a87cdbd9974efdb92ee48bc8d7cd0ae4bf217004db3d080cbaee652ca7"
          ],
          "data": "0x000000000000000000000000000000000000000000000000000000006786a5cc0000000000000000000000000000000000000000000000000003910cd67bee410000000000000000000000000000000000000000000000000de0b6b3a7640000",
          "blockHash": "0x722d89bdb5d1edc2deb5f04761b6f550fc62eed8385771eb5b23047e90ae636c",
          "blockNumber": "0x724f02",
          "transactionHash": "0x1063a1a370787e818bfcfbda5863db6c4192213aefc3cb7b03874ad5f2042330",
          "transactionIndex": "0x5b",
          "logIndex": "0x7c",
          "removed": false
        }
      ],
      "logsBloom": "0x00000000000000000000000000000000000000000000000000000000000000000000000000000000000000000000000000000000000000004000000000000000000000000000000000000008000000000000000000000000000000000000000000000000020000000000000004000800020000000000000000000010000000000000000000000000000000000000000000000000000000000000010000000000000000000000000000000000000000004000000000000000000000000000020000000002000000800000008000000000000000000000080000000000000020000000000000000000000000000000000000000000000000000000000000000000",
      "type": "0x2",
      "transactionHash": "0x1063a1a370787e818bfcfbda5863db6c4192213aefc3cb7b03874ad5f2042330",
      "transactionIndex": "0x5b",
      "blockHash": "0x722d89bdb5d1edc2deb5f04761b6f550fc62eed8385771eb5b23047e90ae636c",
      "blockNumber": "0x724f02",
      "gasUsed": "0x13af8",
      "effectiveGasPrice": "0x6cbbed1d2",
      "from": "0xc77f7fed3b5cc8249adc428c5f44c9063b9734b4",
      "to": "0x5eb9cc76c3506942c1c0ead70e877dd5e4f00cb0",
      "contractAddress": null
    }
  ],
  "libraries": [],
  "pending": [],
  "returns": {},
  "timestamp": 1736877518,
  "chain": 11155111,
  "commit": "51a374b"
}