{
  "transactions": [
    {
      "hash": "0x67a98cae92ffe78fa79c0b7c3685abbd2b0f72a142bde49a92fd211a2ff727d2",
      "transactionType": "CALL",
      "contractName": null,
      "contractAddress": "0xbf4a322f1496e5c3d34a9bcdb4c60567b38c7de2",
      "function": "sell(uint256)",
      "arguments": [
        "981276463513154889773"
      ],
      "transaction": {
        "from": "0xc77f7fed3b5cc8249adc428c5f44c9063b9734b4",
        "to": "0xbf4a322f1496e5c3d34a9bcdb4c60567b38c7de2",
        "gas": "0x16fea",
        "value": "0x0",
        "input": "0xe4849b3200000000000000000000000000000000000000000000003531f2508a2928282d",
        "nonce": "0xbb9",
        "chainId": "0xaa36a7"
      },
      "additionalContracts": [],
      "isFixedGasLimit": false
    }
  ],
  "receipts": [
    {
      "status": "0x1",
      "cumulativeGasUsed": "0x2104240",
      "logs": [
        {
          "address": "0xbf4a322f1496e5c3d34a9bcdb4c60567b38c7de2",
          "topics": [
            "0xddf252ad1be2c89b69c2b068fc378daa952ba7f163c4a11628f55a4df523b3ef",
            "0x000000000000000000000000c77f7fed3b5cc8249adc428c5f44c9063b9734b4",
            "0x0000000000000000000000000000000000000000000000000000000000000000"
          ],
          "data": "0x00000000000000000000000000000000000000000000003531f2508a2928282d",
          "blockHash": "0x2c8470d94954fc69bb9bf43e0df1a89dd875090843e8587d7fd545e9bd0f8491",
          "blockNumber": "0x725bd4",
          "transactionHash": "0x67a98cae92ffe78fa79c0b7c3685abbd2b0f72a142bde49a92fd211a2ff727d2",
          "transactionIndex": "0xc8",
          "logIndex": "0x17d",
          "removed": false
        },
        {
          "address": "0xbf4a322f1496e5c3d34a9bcdb4c60567b38c7de2",
          "topics": [
            "0x4afcb4a87cdbd9974efdb92ee48bc8d7cd0ae4bf217004db3d080cbaee652ca7"
          ],
          "data": "0x000000000000000000000000000000000000000000000000000000006787404c00000000000000000000000000000000000000000000000000039863808aa2550000000000000000000000000000000000000000000000000dc7e3e508bceca9",
          "blockHash": "0x2c8470d94954fc69bb9bf43e0df1a89dd875090843e8587d7fd545e9bd0f8491",
          "blockNumber": "0x725bd4",
          "transactionHash": "0x67a98cae92ffe78fa79c0b7c3685abbd2b0f72a142bde49a92fd211a2ff727d2",
          "transactionIndex": "0xc8",
          "logIndex": "0x17e",
          "removed": false
        }
      ],
      "logsBloom": "0x00000000000000000000000000000000000000000000000000000000000000000000000000000000000000000000000000000000000000004000000000000000000000000000000000000008000000000000001000000000000000000000000000000000020000000000000000000800020000000000000000000010000000000000000000000000000000000000000000000000000008000000010000000000000000000000000000000000000000004000000000000000000000000000000000000002000000800000000000001000000000000000080000000000000020000000000000000000000000000000000000000000000000000000000000000000",
      "type": "0x2",
      "transactionHash": "0x67a98cae92ffe78fa79c0b7c3685abbd2b0f72a142bde49a92fd211a2ff727d2",
      "transactionIndex": "0xc8",
      "blockHash": "0x2c8470d94954fc69bb9bf43e0df1a89dd875090843e8587d7fd545e9bd0f8491",
      "blockNumber": "0x725bd4",
      "gasUsed": "0xfb91",
      "effectiveGasPrice": "0x585205f7",
      "from": "0xc77f7fed3b5cc8249adc428c5f44c9063b9734b4",
      "to": "0xbf4a322f1496e5c3d34a9bcdb4c60567b38c7de2",
      "contractAddress": null
    }
  ],
  "libraries": [],
  "pending": [],
  "returns": {},
  "timestamp": 1736917069,
  "chain": 11155111,
  "commit": "51a374b"
}