{
  "transactions": [
    {
      "hash": "0xd2847136b0997cd3f4166c66edee480c132bf3e317b1e4c867916c6d972fd241",
      "transactionType": "CALL",
      "contractName": null,
      "contractAddress": "0x8aafd3ede9adb0ff97c7aebce82a919afb1c8764",
      "function": "sell(uint256)",
      "arguments": [
        "22325287693"
      ],
      "transaction": {
        "from": "0xc77f7fed3b5cc8249adc428c5f44c9063b9734b4",
        "to": "0x8aafd3ede9adb0ff97c7aebce82a919afb1c8764",
        "gas": "0x1722a",
        "value": "0x0",
        "input": "0xe4849b320000000000000000000000000000000000000000000000000000000532b0db0d",
        "nonce": "0x11f4",
        "chainId": "0xaa36a7"
      },
      "additionalContracts": [],
      "isFixedGasLimit": false
    }
  ],
  "receipts": [
    {
      "status": "0x1",
      "cumulativeGasUsed": "0x7c14d7",
      "logs": [
        {
          "address": "0x8aafd3ede9adb0ff97c7aebce82a919afb1c8764",
          "topics": [
            "0xddf252ad1be2c89b69c2b068fc378daa952ba7f163c4a11628f55a4df523b3ef",
            "0x000000000000000000000000c77f7fed3b5cc8249adc428c5f44c9063b9734b4",
            "0x0000000000000000000000000000000000000000000000000000000000000000"
          ],
          "data": "0x00000000000000000000000000000000000000000000000000000005280b99d0",
          "blockHash": "0x192e4c7041d35987b57038cabf5f8f36d1842d83f1c3b5322d5292dad2ad0fcb",
          "blockNumber": "0x7318cc",
          "transactionHash": "0xd2847136b0997cd3f4166c66edee480c132bf3e317b1e4c867916c6d972fd241",
          "transactionIndex": "0x6c",
          "logIndex": "0x7e",
          "removed": false
        },
        {
          "address": "0x8aafd3ede9adb0ff97c7aebce82a919afb1c8764",
          "topics": [
            "0xddf252ad1be2c89b69c2b068fc378daa952ba7f163c4a11628f55a4df523b3ef",
            "0x000000000000000000000000c77f7fed3b5cc8249adc428c5f44c9063b9734b4",
            "0x000000000000000000000000c77f7fed3b5cc8249adc428c5f44c9063b9734b4"
          ],
          "data": "0x000000000000000000000000000000000000000000000000000000000aa5413d",
          "blockHash": "0x192e4c7041d35987b57038cabf5f8f36d1842d83f1c3b5322d5292dad2ad0fcb",
          "blockNumber": "0x7318cc",
          "transactionHash": "0xd2847136b0997cd3f4166c66edee480c132bf3e317b1e4c867916c6d972fd241",
          "transactionIndex": "0x6c",
          "logIndex": "0x7f",
          "removed": false
        },
        {
          "address": "0x8aafd3ede9adb0ff97c7aebce82a919afb1c8764",
          "topics": [
            "0x4afcb4a87cdbd9974efdb92ee48bc8d7cd0ae4bf217004db3d080cbaee652ca7"
          ],
          "data": "0x000000000000000000000000000000000000000000000000000000006790266000000000000000000000000000000000000000000000000000052f06a062f07a0000000000000000000000000000000000000000000000000000000001f10bb5",
          "blockHash": "0x192e4c7041d35987b57038cabf5f8f36d1842d83f1c3b5322d5292dad2ad0fcb",
          "blockNumber": "0x7318cc",
          "transactionHash": "0xd2847136b0997cd3f4166c66edee480c132bf3e317b1e4c867916c6d972fd241",
          "transactionIndex": "0x6c",
          "logIndex": "0x80",
          "removed": false
        }
      ],
      "logsBloom": "0x00000000000000000000000000000000000000000600000000000000000000000000000000000000000000000000000000000000000000004000000000000000000000000000004000000008000000000000000000000000000000000000000000000000020000000000000000000800020000000000000000000010000000000000000000000000000000000000000000000000000000000000010000000000000000000000000000000000000000004000000000000000000000000000000000000002000000800000000000000000000000000000080000000000000020000000000000000000000000000000000000000000000000000000000000000000",
      "type": "0x2",
      "transactionHash": "0xd2847136b0997cd3f4166c66edee480c132bf3e317b1e4c867916c6d972fd241",
      "transactionIndex": "0x6c",
      "blockHash": "0x192e4c7041d35987b57038cabf5f8f36d1842d83f1c3b5322d5292dad2ad0fcb",
      "blockNumber": "0x7318cc",
      "gasUsed": "0xfd1b",
      "effectiveGasPrice": "0x3febb364",
      "from": "0xc77f7fed3b5cc8249adc428c5f44c9063b9734b4",
      "to": "0x8aafd3ede9adb0ff97c7aebce82a919afb1c8764",
      "contractAddress": null
    }
  ],
  "libraries": [],
  "pending": [],
  "returns": {},
  "timestamp": 1737500257,
  "chain": 11155111,
  "commit": "1d2fb70"
}