{
  "transactions": [
    {
      "hash": "0xff6239e4f745e37c6fbc778db607ca5baa3b1773351e06da44a62d4a6ab2507c",
      "transactionType": "CALL",
      "contractName": null,
      "contractAddress": "0x8aafd3ede9adb0ff97c7aebce82a919afb1c8764",
      "function": "sell(uint256)",
      "arguments": [
        "180982683"
      ],
      "transaction": {
        "from": "0xc77f7fed3b5cc8249adc428c5f44c9063b9734b4",
        "to": "0x8aafd3ede9adb0ff97c7aebce82a919afb1c8764",
        "gas": "0x14e6c",
        "value": "0x0",
        "input": "0xe4849b32000000000000000000000000000000000000000000000000000000000ac9939b",
        "nonce": "0x117d",
        "chainId": "0xaa36a7"
      },
      "additionalContracts": [],
      "isFixedGasLimit": false
    }
  ],
  "receipts": [
    {
      "status": "0x1",
      "cumulativeGasUsed": "0xdf7110",
      "logs": [
        {
          "address": "0x8aafd3ede9adb0ff97c7aebce82a919afb1c8764",
          "topics": [
            "0xddf252ad1be2c89b69c2b068fc378daa952ba7f163c4a11628f55a4df523b3ef",
            "0x000000000000000000000000c77f7fed3b5cc8249adc428c5f44c9063b9734b4",
            "0x0000000000000000000000000000000000000000000000000000000000000000"
          ],
          "data": "0x000000000000000000000000000000000000000000000000000000000ab37be6",
          "blockHash": "0xa67700415479eaf393561a484acadf1a668c6edf4b52b1f8e6e8f9beee079ea2",
          "blockNumber": "0x73183e",
          "transactionHash": "0xff6239e4f745e37c6fbc778db607ca5baa3b1773351e06da44a62d4a6ab2507c",
          "transactionIndex": "0x73",
          "logIndex": "0x7d",
          "removed": false
        },
        {
          "address": "0x8aafd3ede9adb0ff97c7aebce82a919afb1c8764",
          "topics": [
            "0xddf252ad1be2c89b69c2b068fc378daa952ba7f163c4a11628f55a4df523b3ef",
            "0x000000000000000000000000c77f7fed3b5cc8249adc428c5f44c9063b9734b4",
            "0x000000000000000000000000c77f7fed3b5cc8249adc428c5f44c9063b9734b4"
          ],
          "data": "0x00000000000000000000000000000000000000000000000000000000001617b5",
          "blockHash": "0xa67700415479eaf393561a484acadf1a668c6edf4b52b1f8e6e8f9beee079ea2",
          "blockNumber": "0x73183e",
          "transactionHash": "0xff6239e4f745e37c6fbc778db607ca5baa3b1773351e06da44a62d4a6ab2507c",
          "transactionIndex": "0x73",
          "logIndex": "0x7e",
          "removed": false
        },
        {
          "address": "0x8aafd3ede9adb0ff97c7aebce82a919afb1c8764",
          "topics": [
            "0x4afcb4a87cdbd9974efdb92ee48bc8d7cd0ae4bf217004db3d080cbaee652ca7"
          ],
          "data": "0x0000000000000000000000000000000000000000000000000000000067901fac00000000000000000000000000000000000000000000000000051d974b7c8849000000000000000000000000000000000000000000000000000000000003f9f6",
          "blockHash": "0xa67700415479eaf393561a484acadf1a668c6edf4b52b1f8e6e8f9beee079ea2",
          "blockNumber": "0x73183e",
          "transactionHash": "0xff6239e4f745e37c6fbc778db607ca5baa3b1773351e06da44a62d4a6ab2507c",
          "transactionIndex": "0x73",
          "logIndex": "0x7f",
          "removed": false
        }
      ],
      "logsBloom": "0x00000000000000000000000000000000000000000600000000000000000000000000000000000000000000000000000000000000000000004000000000000000000000000000004000000008000000000000000000000000000000000000000000000000020000000000000000000800020000000000000000000010000000000000000000000000000000000000000000000000000000000000010000000000000000000000000000000000000000004000000000000000000000000000000000000002000000800000000000000000000000000000080000000000000020000000000000000000000000000000000000000000000000000000000000000000",
      "type": "0x2",
      "transactionHash": "0xff6239e4f745e37c6fbc778db607ca5baa3b1773351e06da44a62d4a6ab2507c",
      "transactionIndex": "0x73",
      "blockHash": "0xa67700415479eaf393561a484acadf1a668c6edf4b52b1f8e6e8f9beee079ea2",
      "blockNumber": "0x73183e",
      "gasUsed": "0xf21f",
      "effectiveGasPrice": "0x44e7aa7f",
      "from": "0xc77f7fed3b5cc8249adc428c5f44c9063b9734b4",
      "to": "0x8aafd3ede9adb0ff97c7aebce82a919afb1c8764",
      "contractAddress": null
    }
  ],
  "libraries": [],
  "pending": [],
  "returns": {},
  "timestamp": 1737498541,
  "chain": 11155111,
  "commit": "1d2fb70"
}