{
  "transactions": [
    {
      "hash": "0x8090cdffd5d905a2cf8d4e7e5397454fd52fd648d6d5d547ff04945868448356",
      "transactionType": "CALL",
      "contractName": null,
      "contractAddress": "0x8aafd3ede9adb0ff97c7aebce82a919afb1c8764",
      "function": "sell(uint256)",
      "arguments": [
        "10056080461223869"
      ],
      "transaction": {
        "from": "0xc77f7fed3b5cc8249adc428c5f44c9063b9734b4",
        "to": "0x8aafd3ede9adb0ff97c7aebce82a919afb1c8764",
        "gas": "0x1724d",
        "value": "0x0",
        "input": "0xe4849b320000000000000000000000000000000000000000000000000023b9f3afb957bd",
        "nonce": "0xfea",
        "chainId": "0xaa36a7"
      },
      "additionalContracts": [],
      "isFixedGasLimit": false
    }
  ],
  "receipts": [
    {
      "status": "0x1",
      "cumulativeGasUsed": "0xec5151",
      "logs": [
        {
          "address": "0x8aafd3ede9adb0ff97c7aebce82a919afb1c8764",
          "topics": [
            "0xddf252ad1be2c89b69c2b068fc378daa952ba7f163c4a11628f55a4df523b3ef",
            "0x000000000000000000000000c77f7fed3b5cc8249adc428c5f44c9063b9734b4",
            "0x0000000000000000000000000000000000000000000000000000000000000000"
          ],
          "data": "0x000000000000000000000000000000000000000000000000002370c8c6e4ea7f",
          "blockHash": "0x2c039d026d2d1c6d8073681bbe8232d37a0564f33beecbf37bacd7f5536e4b7f",
          "blockNumber": "0x73165c",
          "transactionHash": "0x8090cdffd5d905a2cf8d4e7e5397454fd52fd648d6d5d547ff04945868448356",
          "transactionIndex": "0x7f",
          "logIndex": "0xcf",
          "removed": false
        },
        {
          "address": "0x8aafd3ede9adb0ff97c7aebce82a919afb1c8764",
          "topics": [
            "0xddf252ad1be2c89b69c2b068fc378daa952ba7f163c4a11628f55a4df523b3ef",
            "0x000000000000000000000000c77f7fed3b5cc8249adc428c5f44c9063b9734b4",
            "0x000000000000000000000000c77f7fed3b5cc8249adc428c5f44c9063b9734b4"
          ],
          "data": "0x0000000000000000000000000000000000000000000000000000492ae8d46d3e",
          "blockHash": "0x2c039d026d2d1c6d8073681bbe8232d37a0564f33beecbf37bacd7f5536e4b7f",
          "blockNumber": "0x73165c",
          "transactionHash": "0x8090cdffd5d905a2cf8d4e7e5397454fd52fd648d6d5d547ff04945868448356",
          "transactionIndex": "0x7f",
          "logIndex": "0xd0",
          "removed": false
        },
        {
          "address": "0x8aafd3ede9adb0ff97c7aebce82a919afb1c8764",
          "topics": [
            "0x4afcb4a87cdbd9974efdb92ee48bc8d7cd0ae4bf217004db3d080cbaee652ca7"
          ],
          "data": "0x00000000000000000000000000000000000000000000000000000000679008fc0000000000000000000000000000000000000000000000000004e37f08a46b4000000000000000000000000000000000000000000000000000000c95cc2ad878",
          "blockHash": "0x2c039d026d2d1c6d8073681bbe8232d37a0564f33beecbf37bacd7f5536e4b7f",
          "blockNumber": "0x73165c",
          "transactionHash": "0x8090cdffd5d905a2cf8d4e7e5397454fd52fd648d6d5d547ff04945868448356",
          "transactionIndex": "0x7f",
          "logIndex": "0xd1",
          "removed": false
        }
      ],
      "logsBloom": "0x00000000000000000000000000000000000000000600000000000000000000000000000000000000000000000000000000000000000000004000000000000000000000000000004000000008000000000000000000000000000000000000000000000000020000000000000000000800020000000000000000000010000000000000000000000000000000000000000000000000000000000000010000000000000000000000000000000000000000004000000000000000000000000000000000000002000000800000000000000000000000000000080000000000000020000000000000000000000000000000000000000000000000000000000000000000",
      "type": "0x2",
      "transactionHash": "0x8090cdffd5d905a2cf8d4e7e5397454fd52fd648d6d5d547ff04945868448356",
      "transactionIndex": "0x7f",
      "blockHash": "0x2c039d026d2d1c6d8073681bbe8232d37a0564f33beecbf37bacd7f5536e4b7f",
      "blockNumber": "0x73165c",
      "gasUsed": "0xfd33",
      "effectiveGasPrice": "0x4b98dfd9",
      "from": "0xc77f7fed3b5cc8249adc428c5f44c9063b9734b4",
      "to": "0x8aafd3ede9adb0ff97c7aebce82a919afb1c8764",
      "contractAddress": null
    }
  ],
  "libraries": [],
  "pending": [],
  "returns": {},
  "timestamp": 1737492733,
  "chain": 11155111,
  "commit": "1d2fb70"
}