{
  "transactions": [
    {
      "hash": "0x2a9e705d2b47cea124eb56053c1f2b6f2bec7b2acb5c93e3c995eca622b0f220",
      "transactionType": "CALL",
      "contractName": null,
      "contractAddress": "0x8aafd3ede9adb0ff97c7aebce82a919afb1c8764",
      "function": "sell(uint256)",
      "arguments": [
        "2123446370073719284"
      ],
      "transaction": {
        "from": "0xc77f7fed3b5cc8249adc428c5f44c9063b9734b4",
        "to": "0x8aafd3ede9adb0ff97c7aebce82a919afb1c8764",
        "gas": "0x15dca",
        "value": "0x0",
        "input": "0xe4849b320000000000000000000000000000000000000000000000001d77ff391bd631f4",
        "nonce": "0x13bc",
        "chainId": "0xaa36a7"
      },
      "additionalContracts": [],
      "isFixedGasLimit": false
    }
  ],
  "receipts": [
    {
      "status": "0x1",
      "cumulativeGasUsed": "0xe26a3a",
      "logs": [
        {
          "address": "0x8aafd3ede9adb0ff97c7aebce82a919afb1c8764",
          "topics": [
            "0xddf252ad1be2c89b69c2b068fc378daa952ba7f163c4a11628f55a4df523b3ef",
            "0x000000000000000000000000c77f7fed3b5cc8249adc428c5f44c9063b9734b4",
            "0x0000000000000000000000000000000000000000000000000000000000000000"
          ],
          "data": "0x0000000000000000000000000000000000000000000000001d3ba51e07224e3a",
          "blockHash": "0x06b72ad270c5c70e7f82525a785cf7d71688dcc1106b43b7a61b792f97a6d343",
          "blockNumber": "0x731ae6",
          "transactionHash": "0x2a9e705d2b47cea124eb56053c1f2b6f2bec7b2acb5c93e3c995eca622b0f220",
          "transactionIndex": "0x44",
          "logIndex": "0x70",
          "removed": false
        },
        {
          "address": "0x8aafd3ede9adb0ff97c7aebce82a919afb1c8764",
          "topics": [
            "0xddf252ad1be2c89b69c2b068fc378daa952ba7f163c4a11628f55a4df523b3ef",
            "0x000000000000000000000000c77f7fed3b5cc8249adc428c5f44c9063b9734b4",
            "0x000000000000000000000000c77f7fed3b5cc8249adc428c5f44c9063b9734b4"
          ],
          "data": "0x000000000000000000000000000000000000000000000000003c5a1b14b3e3ba",
          "blockHash": "0x06b72ad270c5c70e7f82525a785cf7d71688dcc1106b43b7a61b792f97a6d343",
          "blockNumber": "0x731ae6",
          "transactionHash": "0x2a9e705d2b47cea124eb56053c1f2b6f2bec7b2acb5c93e3c995eca622b0f220",
          "transactionIndex": "0x44",
          "logIndex": "0x71",
          "removed": false
        },
        {
          "address": "0x8aafd3ede9adb0ff97c7aebce82a919afb1c8764",
          "topics": [
            "0x4afcb4a87cdbd9974efdb92ee48bc8d7cd0ae4bf217004db3d080cbaee652ca7"
          ],
          "data": "0x0000000000000000000000000000000000000000000000000000000067903f98000000000000000000000000000000000000000000000000000d64afd00b7a73000000000000000000000000000000000000000000000000001c704ab7e7f243",
          "blockHash": "0x06b72ad270c5c70e7f82525a785cf7d71688dcc1106b43b7a61b792f97a6d343",
          "blockNumber": "0x731ae6",
          "transactionHash": "0x2a9e705d2b47cea124eb56053c1f2b6f2bec7b2acb5c93e3c995eca622b0f220",
          "transactionIndex": "0x44",
          "logIndex": "0x72",
          "removed": false
        }
      ],
      "logsBloom": "0x00000000000000000000000000000000000000000600000000000000000000000000000000000000000000000000000000000000000000004000000000000000000000000000004000000008000000000000000000000000000000000000000000000000020000000000000000000800020000000000000000000010000000000000000000000000000000000000000000000000000000000000010000000000000000000000000000000000000000004000000000000000000000000000000000000002000000800000000000000000000000000000080000000000000020000000000000000000000000000000000000000000000000000000000000000000",
      "type": "0x2",
      "transactionHash": "0x2a9e705d2b47cea124eb56053c1f2b6f2bec7b2acb5c93e3c995eca622b0f220",
      "transactionIndex": "0x44",
      "blockHash": "0x06b72ad270c5c70e7f82525a785cf7d71688dcc1106b43b7a61b792f97a6d343",
      "blockNumber": "0x731ae6",
      "gasUsed": "0xfd3f",
      "effectiveGasPrice": "0x86318563",
      "from": "0xc77f7fed3b5cc8249adc428c5f44c9063b9734b4",
      "to": "0x8aafd3ede9adb0ff97c7aebce82a919afb1c8764",
      "contractAddress": null
    }
  ],
  "libraries": [],
  "pending": [],
  "returns": {},
  "timestamp": 1737506714,
  "chain": 11155111,
  "commit": "1d2fb70"
}