{
  "transactions": [
    {
      "hash": "0xd58d89de053e4a3d40584e665622edd61b4ea7687229b3f241002545b9ffe28e",
      "transactionType": "CALL",
      "contractName": null,
      "contractAddress": "0x270e88f8683660553e8ba4eb2ad7c91a1710d769",
      "function": "buy(address)",
      "arguments": [
        "0xC77f7fed3b5Cc8249aDc428c5F44C9063B9734b4"
      ],
      "transaction": {
        "from": "0xc77f7fed3b5cc8249adc428c5f44c9063b9734b4",
        "to": "0x270e88f8683660553e8ba4eb2ad7c91a1710d769",
        "gas": "0x1b30c",
        "value": "0xde0b6b3a7640000",
        "input": "0xf088d547000000000000000000000000c77f7fed3b5cc8249adc428c5f44c9063b9734b4",
        "nonce": "0x877",
        "chainId": "0xaa36a7"
      },
      "additionalContracts": [],
      "isFixedGasLimit": false
    }
  ],
  "receipts": [
    {
      "status": "0x1",
      "cumulativeGasUsed": "0x14fabc0",
      "logs": [
        {
          "address": "0x270e88f8683660553e8ba4eb2ad7c91a1710d769",
          "topics": [
            "0xddf252ad1be2c89b69c2b068fc378daa952ba7f163c4a11628f55a4df523b3ef",
            "0x0000000000000000000000000000000000000000000000000000000000000000",
            "0x000000000000000000000000c77f7fed3b5cc8249adc428c5f44c9063b9734b4"
          ],
          "data": "0x000000000000000000000000000000000000000000000026877dbc47c6e7ae8a",
          "blockHash": "0x19347209a3ee2edc8cbae55f0acbaba544c8fd739bf98a68fb2174efacae8c79",
          "blockNumber": "0x7255d0",
          "transactionHash": "0xd58d89de053e4a3d40584e665622edd61b4ea7687229b3f241002545b9ffe28e",
          "transactionIndex": "0x72",
          "logIndex": "0x1be",
          "removed": false
        },
        {
          "address": "0x270e88f8683660553e8ba4eb2ad7c91a1710d769",
          "topics": [
            "0xddf252ad1be2c89b69c2b068fc378daa952ba7f163c4a11628f55a4df523b3ef",
            "0x0000000000000000000000000000000000000000000000000000000000000000",
            "0x000000000000000000000000c77f7fed3b5cc8249adc428c5f44c9063b9734b4"
          ],
          "data": "0x0000000000000000000000000000000000000000000000001deb565ad6d95f0e",
          "blockHash": "0x19347209a3ee2edc8cbae55f0acbaba544c8fd739bf98a68fb2174efacae8c79",
          "blockNumber": "0x7255d0",
          "transactionHash": "0xd58d89de053e4a3d40584e665622edd61b4ea7687229b3f241002545b9ffe28e",
          "transactionIndex": "0x72",
          "logIndex": "0x1bf",
          "removed": false
        },
        {
          "address": "0x270e88f8683660553e8ba4eb2ad7c91a1710d769",
          "topics": [
            "0x4afcb4a87cdbd9974efdb92ee48bc8d7cd0ae4bf217004db3d080cbaee652ca7"
          ],
          "data": "0x000000000000000000000000000000000000000000000000000000006786f7c80000000000000000000000000000000000000000000000000004f2f4402a346c0000000000000000000000000000000000000000000000000de0b6b3a7640000",
          "blockHash": "0x19347209a3ee2edc8cbae55f0acbaba544c8fd739bf98a68fb2174efacae8c79",
          "blockNumber": "0x7255d0",
          "transactionHash": "0xd58d89de053e4a3d40584e665622edd61b4ea7687229b3f241002545b9ffe28e",
          "transactionIndex": "0x72",
          "logIndex": "0x1c0",
          "removed": false
        }
      ],
      "logsBloom": "0x00000000000000000000000000000000000000000000000000000000000000000000000000000000000000000000000020000000000000004000000000000000000000000000000000000008000000000000000000000000000000000000000000000000020000000000000000000800020000000000000000000010000000000000000000010000000000000000000000000000000000000000010000000000000000000000000000000000000000004000000000000000000000000000000000000002000000800000000000000000000000000000080000008000000020000000000000000000000000000000000000000000000000000000000000000000",
      "type": "0x2",
      "transactionHash": "0xd58d89de053e4a3d40584e665622edd61b4ea7687229b3f241002545b9ffe28e",
      "transactionIndex": "0x72",
      "blockHash": "0x19347209a3ee2edc8cbae55f0acbaba544c8fd739bf98a68fb2174efacae8c79",
      "blockNumber": "0x7255d0",
      "gasUsed": "0x13af8",
      "effectiveGasPrice": "0x9e571ac4",
      "from": "0xc77f7fed3b5cc8249adc428c5f44c9063b9734b4",
      "to": "0x270e88f8683660553e8ba4eb2ad7c91a1710d769",
      "contractAddress": null
    }
  ],
  "libraries": [],
  "pending": [],
  "returns": {},
  "timestamp": 1736898505,
  "chain": 11155111,
  "commit": "51a374b"
}