{
  "transactions": [
    {
      "hash": "0xccc6d08769235761700aa4bac3aa93e9638205b8a4ec7129b6bedbbdc5f7d757",
      "transactionType": "CALL",
      "contractName": null,
      "contractAddress": "0x270e88f8683660553e8ba4eb2ad7c91a1710d769",
      "function": "buy(address)",
      "arguments": [
        "0xC77f7fed3b5Cc8249aDc428c5F44C9063B9734b4"
      ],
      "transaction": {
        "from": "0xc77f7fed3b5cc8249adc428c5f44c9063b9734b4",
        "to": "0x270e88f8683660553e8ba4eb2ad7c91a1710d769",
        "gas": "0x1b30c",
        "value": "0xde0b6b3a7640000",
        "input": "0xf088d547000000000000000000000000c77f7fed3b5cc8249adc428c5f44c9063b9734b4",
        "nonce": "0x83b",
        "chainId": "0xaa36a7"
      },
      "additionalContracts": [],
      "isFixedGasLimit": false
    }
  ],
  "receipts": [
    {
      "status": "0x1",
      "cumulativeGasUsed": "0x840eb6",
      "logs": [
        {
          "address": "0x270e88f8683660553e8ba4eb2ad7c91a1710d769",
          "topics": [
            "0xddf252ad1be2c89b69c2b068fc378daa952ba7f163c4a11628f55a4df523b3ef",
            "0x0000000000000000000000000000000000000000000000000000000000000000",
            "0x000000000000000000000000c77f7fed3b5cc8249adc428c5f44c9063b9734b4"
          ],
          "data": "0x000000000000000000000000000000000000000000000026cc66f826d664fcfd",
          "blockHash": "0x90ee57f0b61041ce1a62d014cf5f87bae24a8ade86006909167e02d791442f38",
          "blockNumber": "0x725587",
          "transactionHash": "0xccc6d08769235761700aa4bac3aa93e9638205b8a4ec7129b6bedbbdc5f7d757",
          "transactionIndex": "0x40",
          "logIndex": "0x7e",
          "removed": false
        },
        {
          "address": "0x270e88f8683660553e8ba4eb2ad7c91a1710d769",
          "topics": [
            "0xddf252ad1be2c89b69c2b068fc378daa952ba7f163c4a11628f55a4df523b3ef",
            "0x0000000000000000000000000000000000000000000000000000000000000000",
            "0x000000000000000000000000c77f7fed3b5cc8249adc428c5f44c9063b9734b4"
          ],
          "data": "0x0000000000000000000000000000000000000000000000001e20d95feb37ce23",
          "blockHash": "0x90ee57f0b61041ce1a62d014cf5f87bae24a8ade86006909167e02d791442f38",
          "blockNumber": "0x725587",
          "transactionHash": "0xccc6d08769235761700aa4bac3aa93e9638205b8a4ec7129b6bedbbdc5f7d757",
          "transactionIndex": "0x40",
          "logIndex": "0x7f",
          "removed": false
        },
        {
          "address": "0x270e88f8683660553e8ba4eb2ad7c91a1710d769",
          "topics": [
            "0x4afcb4a87cdbd9974efdb92ee48bc8d7cd0ae4bf217004db3d080cbaee652ca7"
          ],
          "data": "0x000000000000000000000000000000000000000000000000000000006786f45c0000000000000000000000000000000000000000000000000004ea2a28ee7ac20000000000000000000000000000000000000000000000000de0b6b3a7640000",
          "blockHash": "0x90ee57f0b61041ce1a62d014cf5f87bae24a8ade86006909167e02d791442f38",
          "blockNumber": "0x725587",
          "transactionHash": "0xccc6d08769235761700aa4bac3aa93e9638205b8a4ec7129b6bedbbdc5f7d757",
          "transactionIndex": "0x40",
          "logIndex": "0x80",
          "removed": false
        }
      ],
      "logsBloom": "0x00000000000000000000000000000000000000000000000000000000000000000000000000000000000000000000000020000000000000004000000000000000000000000000000000000008000000000000000000000000000000000000000000000000020000000000000000000800020000000000000000000010000000000000000000010000000000000000000000000000000000000000010000000000000000000000000000000000000000004000000000000000000000000000000000000002000000800000000000000000000000000000080000008000000020000000000000000000000000000000000000000000000000000000000000000000",
      "type": "0x2",
      "transactionHash": "0xccc6d08769235761700aa4bac3aa93e9638205b8a4ec7129b6bedbbdc5f7d757",
      "transactionIndex": "0x40",
      "blockHash": "0x90ee57f0b61041ce1a62d014cf5f87bae24a8ade86006909167e02d791442f38",
      "blockNumber": "0x725587",
      "gasUsed": "0x13af8",
      "effectiveGasPrice": "0x7788d2b6",
      "from": "0xc77f7fed3b5cc8249adc428c5f44c9063b9734b4",
      "to": "0x270e88f8683660553e8ba4eb2ad7c91a1710d769",
      "contractAddress": null
    }
  ],
  "libraries": [],
  "pending": [],
  "returns": {},
  "timestamp": 1736897631,
  "chain": 11155111,
  "commit": "51a374b"
}