{
  "transactions": [
    {
      "hash": "0x1bc84d02624f18c34f0be252f9bb683a48a33b1d62467d14772557e7d0466e9e",
      "transactionType": "CALL",
      "contractName": null,
      "contractAddress": "0x5eb9cc76c3506942c1c0ead70e877dd5e4f00cb0",
      "function": "sell(uint256)",
      "arguments": [
        "989094581094040120998"
      ],
      "transaction": {
        "from": "0xc77f7fed3b5cc8249adc428c5f44c9063b9734b4",
        "to": "0x5eb9cc76c3506942c1c0ead70e877dd5e4f00cb0",
        "gas": "0x16fec",
        "value": "0x0",
        "input": "0xe4849b320000000000000000000000000000000000000000000000359e71d90eae0eaea6",
        "nonce": "0x423",
        "chainId": "0xaa36a7"
      },
      "additionalContracts": [],
      "isFixedGasLimit": false
    }
  ],
  "receipts": [
    {
      "status": "0x1",
      "cumulativeGasUsed": "0xe69576",
      "logs": [
        {
          "address": "0x5eb9cc76c3506942c1c0ead70e877dd5e4f00cb0",
          "topics": [
            "0xddf252ad1be2c89b69c2b068fc378daa952ba7f163c4a11628f55a4df523b3ef",
            "0x000000000000000000000000c77f7fed3b5cc8249adc428c5f44c9063b9734b4",
            "0x0000000000000000000000000000000000000000000000000000000000000000"
          ],
          "data": "0x0000000000000000000000000000000000000000000000359e71d90eae0eaea6",
          "blockHash": "0x4cfb911fa3130930053493797aaf51b444b0f4f15af7adc1f5f62712ce087051",
          "blockNumber": "0x725038",
          "transactionHash": "0x1bc84d02624f18c34f0be252f9bb683a48a33b1d62467d14772557e7d0466e9e",
          "transactionIndex": "0x95",
          "logIndex": "0xe0",
          "removed": false
        },
        {
          "address": "0x5eb9cc76c3506942c1c0ead70e877dd5e4f00cb0",
          "topics": [
            "0x4afcb4a87cdbd9974efdb92ee48bc8d7cd0ae4bf217004db3d080cbaee652ca7"
          ],
          "data": "0x000000000000000000000000000000000000000000000000000000006786b46c00000000000000000000000000000000000000000000000000039116c0b1e4a70000000000000000000000000000000000000000000000000dc7db1331ddce59",
          "blockHash": "0x4cfb911fa3130930053493797aaf51b444b0f4f15af7adc1f5f62712ce087051",
          "blockNumber": "0x725038",
          "transactionHash": "0x1bc84d02624f18c34f0be252f9bb683a48a33b1d62467d14772557e7d0466e9e",
          "transactionIndex": "0x95",
          "logIndex": "0xe1",
          "removed": false
        }
      ],
      "logsBloom": "0x00000000000000000000000000000000000000000000000000000000000000000000000000000000000000000000000000000000000000004000000000000000000000000000000000000008000000000000000000000000000000000000000000000000020000000000000004000800020000000000000000000010000000000000000000000000000000000000000000000000000000000000010000000000000000000000000000000000000000004000000000000000000000000000020000000002000000800000008000000000000000000000080000000000000020000000000000000000000000000000000000000000000000000000000000000000",
      "type": "0x2",
      "transactionHash": "0x1bc84d02624f18c34f0be252f9bb683a48a33b1d62467d14772557e7d0466e9e",
      "transactionIndex": "0x95",
      "blockHash": "0x4cfb911fa3130930053493797aaf51b444b0f4f15af7adc1f5f62712ce087051",
      "blockNumber": "0x725038",
      "gasUsed": "0xfb93",
      "effectiveGasPrice": "0x29fa84a9e",
      "from": "0xc77f7fed3b5cc8249adc428c5f44c9063b9734b4",
      "to": "0x5eb9cc76c3506942c1c0ead70e877dd5e4f00cb0",
      "contractAddress": null
    }
  ],
  "libraries": [],
  "pending": [],
  "returns": {},
  "timestamp": 1736881261,
  "chain": 11155111,
  "commit": "51a374b"
}