{
  "transactions": [
    {
      "hash": "0xa2b896d3c1a9cd5efdd1b80d5d97a58d957967407b7bace50080f318ab004ab8",
      "transactionType": "CALL",
      "contractName": null,
      "contractAddress": "0x8aafd3ede9adb0ff97c7aebce82a919afb1c8764",
      "function": "buy(address)",
      "arguments": [
        "0xC77f7fed3b5Cc8249aDc428c5F44C9063B9734b4"
      ],
      "transaction": {
        "from": "0xc77f7fed3b5cc8249adc428c5f44c9063b9734b4",
        "to": "0x8aafd3ede9adb0ff97c7aebce82a919afb1c8764",
        "gas": "0x156ea",
        "value": "0xde0b6b3a7640000",
        "input": "0xf088d547000000000000000000000000c77f7fed3b5cc8249adc428c5f44c9063b9734b4",
        "nonce": "0x1022",
        "chainId": "0xaa36a7"
      },
      "additionalContracts": [],
      "isFixedGasLimit": false
    }
  ],
  "receipts": [
    {
      "status": "0x1",
      "cumulativeGasUsed": "0xdaee78",
      "logs": [
        {
          "address": "0x8aafd3ede9adb0ff97c7aebce82a919afb1c8764",
          "topics": [
            "0xddf252ad1be2c89b69c2b068fc378daa952ba7f163c4a11628f55a4df523b3ef",
            "0x0000000000000000000000000000000000000000000000000000000000000000",
            "0x000000000000000000000000c77f7fed3b5cc8249adc428c5f44c9063b9734b4"
          ],
          "data": "0x000000000000000000000000000000000000000000000026c6e866004a04241d",
          "blockHash": "0x9a45b613b7c4a697003614edec2c2d34f81507f39006e508b6bd4938996daf9f",
          "blockNumber": "0x73169a",
          "transactionHash": "0xa2b896d3c1a9cd5efdd1b80d5d97a58d957967407b7bace50080f318ab004ab8",
          "transactionIndex": "0x7b",
          "logIndex": "0xbc",
          "removed": false
        },
        {
          "address": "0x8aafd3ede9adb0ff97c7aebce82a919afb1c8764",
          "topics": [
            "0xddf252ad1be2c89b69c2b068fc378daa952ba7f163c4a11628f55a4df523b3ef",
            "0x0000000000000000000000000000000000000000000000000000000000000000",
            "0x000000000000000000000000c77f7fed3b5cc8249adc428c5f44c9063b9734b4"
          ],
          "data": "0x0000000000000000000000000000000000000000000000001e1c951fd8b6e6e1",
          "blockHash": "0x9a45b613b7c4a697003614edec2c2d34f81507f39006e508b6bd4938996daf9f",
          "blockNumber": "0x73169a",
          "transactionHash": "0xa2b896d3c1a9cd5efdd1b80d5d97a58d957967407b7bace50080f318ab004ab8",
          "transactionIndex": "0x7b",
          "logIndex": "0xbd",
          "removed": false
        },
        {
          "address": "0x8aafd3ede9adb0ff97c7aebce82a919afb1c8764",
          "topics": [
            "0x4afcb4a87cdbd9974efdb92ee48bc8d7cd0ae4bf217004db3d080cbaee652ca7"
          ],
          "data": "0x0000000000000000000000000000000000000000000000000000000067900be40000000000000000000000000000000000000000000000000004eb2a500ba28c0000000000000000000000000000000000000000000000000de0b6b3a7640000",
          "blockHash": "0x9a45b613b7c4a697003614edec2c2d34f81507f39006e508b6bd4938996daf9f",
          "blockNumber": "0x73169a",
          "transactionHash": "0xa2b896d3c1a9cd5efdd1b80d5d97a58d957967407b7bace50080f318ab004ab8",
          "transactionIndex": "0x7b",
          "logIndex": "0xbe",
          "removed": false
        }
      ],
      "logsBloom": "0x00000000000000000000000000000000000000000600000000000000000000000000000000000000000000000000000000000000000000004000000000000000000000000000004000000008000000000000000000000000000000000000000000000000020000000000000000000800020000000000000000000010000000000000000000000000000000000000000000000000000000000000010000000000000000000000000000000000000000004000000000000000000000000000000000000002000000800000000000000000000000000000080000000000000020000000000000000000000000000000000000000000000000000000000000000000",
      "type": "0x2",
      "transactionHash": "0xa2b896d3c1a9cd5efdd1b80d5d97a58d957967407b7bace50080f318ab004ab8",
      "transactionIndex": "0x7b",
      "blockHash": "0x9a45b613b7c4a697003614edec2c2d34f81507f39006e508b6bd4938996daf9f",
      "blockNumber": "0x73169a",
      "gasUsed": "0xf844",
      "effectiveGasPrice": "0x3db5a91c",
      "from": "0xc77f7fed3b5cc8249adc428c5f44c9063b9734b4",
      "to": "0x8aafd3ede9adb0ff97c7aebce82a919afb1c8764",
      "contractAddress": null
    }
  ],
  "libraries": [],
  "pending": [],
  "returns": {},
  "timestamp": 1737493477,
  "chain": 11155111,
  "commit": "1d2fb70"
}