{
  "transactions": [
    {
      "hash": "0x29d56d7891d5649bb3e173c2c99a5d06e7b2c7a91f6c512c1cf8b64f6275378a",
      "transactionType": "CALL",
      "contractName": null,
      "contractAddress": "0x8aafd3ede9adb0ff97c7aebce82a919afb1c8764",
      "function": "sell(uint256)",
      "arguments": [
        "48208950"
      ],
      "transaction": {
        "from": "0xc77f7fed3b5cc8249adc428c5f44c9063b9734b4",
        "to": "0x8aafd3ede9adb0ff97c7aebce82a919afb1c8764",
        "gas": "0x15d88",
        "value": "0x0",
        "input": "0xe4849b320000000000000000000000000000000000000000000000000000000002df9c36",
        "nonce": "0x15c2",
        "chainId": "0xaa36a7"
      },
      "additionalContracts": [],
      "isFixedGasLimit": false
    }
  ],
  "receipts": [
    {
      "status": "0x1",
      "cumulativeGasUsed": "0x16d2d09",
      "logs": [
        {
          "address": "0x8aafd3ede9adb0ff97c7aebce82a919afb1c8764",
          "topics": [
            "0xddf252ad1be2c89b69c2b068fc378daa952ba7f163c4a11628f55a4df523b3ef",
            "0x000000000000000000000000c77f7fed3b5cc8249adc428c5f44c9063b9734b4",
            "0x0000000000000000000000000000000000000000000000000000000000000000"
          ],
          "data": "0x0000000000000000000000000000000000000000000000000000000002d9b9af",
          "blockHash": "0xdd923a88b3955657b36b74978657e40102b147d9917a71b4a6a6e453f691ab8f",
          "blockNumber": "0x731d3d",
          "transactionHash": "0x29d56d7891d5649bb3e173c2c99a5d06e7b2c7a91f6c512c1cf8b64f6275378a",
          "transactionIndex": "0x87",
          "logIndex": "0xfb",
          "removed": false
        },
        {
          "address": "0x8aafd3ede9adb0ff97c7aebce82a919afb1c8764",
          "topics": [
            "0xddf252ad1be2c89b69c2b068fc378daa952ba7f163c4a11628f55a4df523b3ef",
            "0x000000000000000000000000c77f7fed3b5cc8249adc428c5f44c9063b9734b4",
            "0x000000000000000000000000c77f7fed3b5cc8249adc428c5f44c9063b9734b4"
          ],
          "data": "0x000000000000000000000000000000000000000000000000000000000005e287",
          "blockHash": "0xdd923a88b3955657b36b74978657e40102b147d9917a71b4a6a6e453f691ab8f",
          "blockNumber": "0x731d3d",
          "transactionHash": "0x29d56d7891d5649bb3e173c2c99a5d06e7b2c7a91f6c512c1cf8b64f6275378a",
          "transactionIndex": "0x87",
          "logIndex": "0xfc",
          "removed": false
        },
        {
          "address": "0x8aafd3ede9adb0ff97c7aebce82a919afb1c8764",
          "topics": [
            "0x4afcb4a87cdbd9974efdb92ee48bc8d7cd0ae4bf217004db3d080cbaee652ca7"
          ],
          "data": "0x0000000000000000000000000000000000000000000000000000000067905bc4000000000000000000000000000000000000000000000000001349a165758266000000000000000000000000000000000000000000000000000000000003fe5d",
          "blockHash": "0xdd923a88b3955657b36b74978657e40102b147d9917a71b4a6a6e453f691ab8f",
          "blockNumber": "0x731d3d",
          "transactionHash": "0x29d56d7891d5649bb3e173c2c99a5d06e7b2c7a91f6c512c1cf8b64f6275378a",
          "transactionIndex": "0x87",
          "logIndex": "0xfd",
          "removed": false
        }
      ],
      "logsBloom": "0x00000000000000000000000000000000000000000600000000000000000000000000000000000000000000000000000000000000000000004000000000000000000000000000004000000008000000000000000000000000000000000000000000000000020000000000000000000800020000000000000000000010000000000000000000000000000000000000000000000000000000000000010000000000000000000000000000000000000000004000000000000000000000000000000000000002000000800000000000000000000000000000080000000000000020000000000000000000000000000000000000000000000000000000000000000000",
      "type": "0x2",
      "transactionHash": "0x29d56d7891d5649bb3e173c2c99a5d06e7b2c7a91f6c512c1cf8b64f6275378a",
      "transactionIndex": "0x87",
      "blockHash": "0xdd923a88b3955657b36b74978657e40102b147d9917a71b4a6a6e453f691ab8f",
      "blockNumber": "0x731d3d",
      "gasUsed": "0xfd0f",
      "effectiveGasPrice": "0x51232b77",
      "from": "0xc77f7fed3b5cc8249adc428c5f44c9063b9734b4",
      "to": "0x8aafd3ede9adb0ff97c7aebce82a919afb1c8764",
      "contractAddress": null
    }
  ],
  "libraries": [],
  "pending": [],
  "returns": {},
  "timestamp": 1737513924,
  "chain": 11155111,
  "commit": "1d2fb70"
}