{
  "transactions": [
    {
      "hash": "0xcf51041606616b95c109a5364f9386c5fe0badfdfd20570a73253a422f63733a",
      "transactionType": "CALL",
      "contractName": null,
      "contractAddress": "0xbf4a322f1496e5c3d34a9bcdb4c60567b38c7de2",
      "function": "buy(address)",
      "arguments": [
        "0xC77f7fed3b5Cc8249aDc428c5F44C9063B9734b4"
      ],
      "transaction": {
        "from": "0xc77f7fed3b5cc8249adc428c5f44c9063b9734b4",
        "to": "0xbf4a322f1496e5c3d34a9bcdb4c60567b38c7de2",
        "gas": "0x1b309",
        "value": "0xde0b6b3a7640000",
        "input": "0xf088d547000000000000000000000000c77f7fed3b5cc8249adc428c5f44c9063b9734b4",
        "nonce": "0xc88",
        "chainId": "0xaa36a7"
      },
      "additionalContracts": [],
      "isFixedGasLimit": false
    }
  ],
  "receipts": [
    {
      "status": "0x1",
      "cumulativeGasUsed": "0x181f7b4",
      "logs": [
        {
          "address": "0xbf4a322f1496e5c3d34a9bcdb4c60567b38c7de2",
          "topics": [
            "0xddf252ad1be2c89b69c2b068fc378daa952ba7f163c4a11628f55a4df523b3ef",
            "0x0000000000000000000000000000000000000000000000000000000000000000",
            "0x000000000000000000000000c77f7fed3b5cc8249adc428c5f44c9063b9734b4"
          ],
          "data": "0x000000000000000000000000000000000000000000000034e2222f97ab5e5359",
          "blockHash": "0x6390ca7a939c014d994d5ceda1483cf582d46d718a59608fd8691be9db4ec7a2",
          "blockNumber": "0x725ccb",
          "transactionHash": "0xcf51041606616b95c109a5364f9386c5fe0badfdfd20570a73253a422f63733a",
          "transactionIndex": "0xc6",
          "logIndex": "0x179",
          "removed": false
        },
        {
          "address": "0xbf4a322f1496e5c3d34a9bcdb4c60567b38c7de2",
          "topics": [
            "0xddf252ad1be2c89b69c2b068fc378daa952ba7f163c4a11628f55a4df523b3ef",
            "0x0000000000000000000000000000000000000000000000000000000000000000",
            "0x000000000000000000000000c77f7fed3b5cc8249adc428c5f44c9063b9734b4"
          ],
          "data": "0x0000000000000000000000000000000000000000000000002910d28dd5fb3524",
          "blockHash": "0x6390ca7a939c014d994d5ceda1483cf582d46d718a59608fd8691be9db4ec7a2",
          "blockNumber": "0x725ccb",
          "transactionHash": "0xcf51041606616b95c109a5364f9386c5fe0badfdfd20570a73253a422f63733a",
          "transactionIndex": "0xc6",
          "logIndex": "0x17a",
          "removed": false
        },
        {
          "address": "0xbf4a322f1496e5c3d34a9bcdb4c60567b38c7de2",
          "topics": [
            "0x4afcb4a87cdbd9974efdb92ee48bc8d7cd0ae4bf217004db3d080cbaee652ca7"
          ],
          "data": "0x0000000000000000000000000000000000000000000000000000000067874bf800000000000000000000000000000000000000000000000000039affabd21d040000000000000000000000000000000000000000000000000de0b6b3a7640000",
          "blockHash": "0x6390ca7a939c014d994d5ceda1483cf582d46d718a59608fd8691be9db4ec7a2",
          "blockNumber": "0x725ccb",
          "transactionHash": "0xcf51041606616b95c109a5364f9386c5fe0badfdfd20570a73253a422f63733a",
          "transactionIndex": "0xc6",
          "logIndex": "0x17b",
          "removed": false
        }
      ],
      "logsBloom": "0x00000000000000000000000000000000000000000000000000000000000000000000000000000000000000000000000000000000000000004000000000000000000000000000000000000008000000000000001000000000000000000000000000000000020000000000000000000800020000000000000000000010000000000000000000000000000000000000000000000000000008000000010000000000000000000000000000000000000000004000000000000000000000000000000000000002000000800000000000001000000000000000080000000000000020000000000000000000000000000000000000000000000000000000000000000000",
      "type": "0x2",
      "transactionHash": "0xcf51041606616b95c109a5364f9386c5fe0badfdfd20570a73253a422f63733a",
      "transactionIndex": "0xc6",
      "blockHash": "0x6390ca7a939c014d994d5ceda1483cf582d46d718a59608fd8691be9db4ec7a2",
      "blockNumber": "0x725ccb",
      "gasUsed": "0x13af6",
      "effectiveGasPrice": "0x251d19ce0",
      "from": "0xc77f7fed3b5cc8249adc428c5f44c9063b9734b4",
      "to": "0xbf4a322f1496e5c3d34a9bcdb4c60567b38c7de2",
      "contractAddress": null
    }
  ],
  "libraries": [],
  "pending": [],
  "returns": {},
  "timestamp": 1736920057,
  "chain": 11155111,
  "commit": "51a374b"
}