{
  "transactions": [
    {
      "hash": "0x08c16d29ad8e858a583f21705cbcb10321d2f488917e71df27b731f733d4dfb5",
      "transactionType": "CALL",
      "contractName": null,
      "contractAddress": "0xbf4a322f1496e5c3d34a9bcdb4c60567b38c7de2",
      "function": "sell(uint256)",
      "arguments": [
        "983245792454279275947"
      ],
      "transaction": {
        "from": "0xc77f7fed3b5cc8249adc428c5f44c9063b9734b4",
        "to": "0xbf4a322f1496e5c3d34a9bcdb4c60567b38c7de2",
        "gas": "0x16fea",
        "value": "0x0",
        "input": "0xe4849b320000000000000000000000000000000000000000000000354d46c6c716c5a5ab",
        "nonce": "0xb27",
        "chainId": "0xaa36a7"
      },
      "additionalContracts": [],
      "isFixedGasLimit": false
    }
  ],
  "receipts": [
    {
      "status": "0x1",
      "cumulativeGasUsed": "0x87b05b",
      "logs": [
        {
          "address": "0xbf4a322f1496e5c3d34a9bcdb4c60567b38c7de2",
          "topics": [
            "0xddf252ad1be2c89b69c2b068fc378daa952ba7f163c4a11628f55a4df523b3ef",
            "0x000000000000000000000000c77f7fed3b5cc8249adc428c5f44c9063b9734b4",
            "0x0000000000000000000000000000000000000000000000000000000000000000"
          ],
          "data": "0x0000000000000000000000000000000000000000000000354d46c6c716c5a5ab",
          "blockHash": "0x58c9f0880528b8a2b4650510aeb623419f8a8a113f0c384a34412d822804ae85",
          "blockNumber": "0x725b23",
          "transactionHash": "0x08c16d29ad8e858a583f21705cbcb10321d2f488917e71df27b731f733d4dfb5",
          "transactionIndex": "0x4d",
          "logIndex": "0x63",
          "removed": false
        },
        {
          "address": "0xbf4a322f1496e5c3d34a9bcdb4c60567b38c7de2",
          "topics": [
            "0x4afcb4a87cdbd9974efdb92ee48bc8d7cd0ae4bf217004db3d080cbaee652ca7"
          ],
          "data": "0x00000000000000000000000000000000000000000000000000000000678738000000000000000000000000000000000000000000000000000003968b989b97da0000000000000000000000000000000000000000000000000dc7e3e99ce41974",
          "blockHash": "0x58c9f0880528b8a2b4650510aeb623419f8a8a113f0c384a34412d822804ae85",
          "blockNumber": "0x725b23",
          "transactionHash": "0x08c16d29ad8e858a583f21705cbcb10321d2f488917e71df27b731f733d4dfb5",
          "transactionIndex": "0x4d",
          "logIndex": "0x64",
          "removed": false
        }
      ],
      "logsBloom": "0x00000000000000000000000000000000000000000000000000000000000000000000000000000000000000000000000000000000000000004000000000000000000000000000000000000008000000000000001000000000000000000000000000000000020000000000000000000800020000000000000000000010000000000000000000000000000000000000000000000000000008000000010000000000000000000000000000000000000000004000000000000000000000000000000000000002000000800000000000001000000000000000080000000000000020000000000000000000000000000000000000000000000000000000000000000000",
      "type": "0x2",
      "transactionHash": "0x08c16d29ad8e858a583f21705cbcb10321d2f488917e71df27b731f733d4dfb5",
      "transactionIndex": "0x4d",
      "blockHash": "0x58c9f0880528b8a2b4650510aeb623419f8a8a113f0c384a34412d822804ae85",
      "blockNumber": "0x725b23",
      "gasUsed": "0xfb91",
      "effectiveGasPrice": "0x66078d47",
      "from": "0xc77f7fed3b5cc8249adc428c5f44c9063b9734b4",
      "to": "0xbf4a322f1496e5c3d34a9bcdb4c60567b38c7de2",
      "contractAddress": null
    }
  ],
  "libraries": [],
  "pending": [],
  "returns": {},
  "timestamp": 1736914945,
  "chain": 11155111,
  "commit": "51a374b"
}