{
  "transactions": [
    {
      "hash": "0xb6c315fe598cc7dfb62175822ac68fa34fb79e276277d7d6e296101a11b78e00",
      "transactionType": "CALL",
      "contractName": null,
      "contractAddress": "0xbf4a322f1496e5c3d34a9bcdb4c60567b38c7de2",
      "function": "sell(uint256)",
      "arguments": [
        "977147748214269698029"
      ],
      "transaction": {
        "from": "0xc77f7fed3b5cc8249adc428c5f44c9063b9734b4",
        "to": "0xbf4a322f1496e5c3d34a9bcdb4c60567b38c7de2",
        "gas": "0x16fea",
        "value": "0x0",
        "input": "0xe4849b32000000000000000000000000000000000000000000000034f8a62bd9a8625fed",
        "nonce": "0xced",
        "chainId": "0xaa36a7"
      },
      "additionalContracts": [],
      "isFixedGasLimit": false
    }
  ],
  "receipts": [
    {
      "status": "0x1",
      "cumulativeGasUsed": "0x1173b41",
      "logs": [
        {
          "address": "0xbf4a322f1496e5c3d34a9bcdb4c60567b38c7de2",
          "topics": [
            "0xddf252ad1be2c89b69c2b068fc378daa952ba7f163c4a11628f55a4df523b3ef",
            "0x000000000000000000000000c77f7fed3b5cc8249adc428c5f44c9063b9734b4",
            "0x0000000000000000000000000000000000000000000000000000000000000000"
          ],
          "data": "0x000000000000000000000000000000000000000000000034f8a62bd9a8625fed",
          "blockHash": "0x508111f2bef2c0a034c7d3d341ed9fc981458d51347995cb35f5acff9845aa55",
          "blockNumber": "0x725d3f",
          "transactionHash": "0xb6c315fe598cc7dfb62175822ac68fa34fb79e276277d7d6e296101a11b78e00",
          "transactionIndex": "0x87",
          "logIndex": "0xdc",
          "removed": false
        },
        {
          "address": "0xbf4a322f1496e5c3d34a9bcdb4c60567b38c7de2",
          "topics": [
            "0x4afcb4a87cdbd9974efdb92ee48bc8d7cd0ae4bf217004db3d080cbaee652ca7"
          ],
          "data": "0x000000000000000000000000000000000000000000000000000000006787516800000000000000000000000000000000000000000000000000039c470807a96a0000000000000000000000000000000000000000000000000dc7e3db6f499b48",
          "blockHash": "0x508111f2bef2c0a034c7d3d341ed9fc981458d51347995cb35f5acff9845aa55",
          "blockNumber": "0x725d3f",
          "transactionHash": "0xb6c315fe598cc7dfb62175822ac68fa34fb79e276277d7d6e296101a11b78e00",
          "transactionIndex": "0x87",
          "logIndex": "0xdd",
          "removed": false
        }
      ],
      "logsBloom": "0x00000000000000000000000000000000000000000000000000000000000000000000000000000000000000000000000000000000000000004000000000000000000000000000000000000008000000000000001000000000000000000000000000000000020000000000000000000800020000000000000000000010000000000000000000000000000000000000000000000000000008000000010000000000000000000000000000000000000000004000000000000000000000000000000000000002000000800000000000001000000000000000080000000000000020000000000000000000000000000000000000000000000000000000000000000000",
      "type": "0x2",
      "transactionHash": "0xb6c315fe598cc7dfb62175822ac68fa34fb79e276277d7d6e296101a11b78e00",
      "transactionIndex": "0x87",
      "blockHash": "0x508111f2bef2c0a034c7d3d341ed9fc981458d51347995cb35f5acff9845aa55",
      "blockNumber": "0x725d3f",
      "gasUsed": "0xfb91",
      "effectiveGasPrice": "0x41bf041e6",
      "from": "0xc77f7fed3b5cc8249adc428c5f44c9063b9734b4",
      "to": "0xbf4a322f1496e5c3d34a9bcdb4c60567b38c7de2",
      "contractAddress": null
    }
  ],
  "libraries": [],
  "pending": [],
  "returns": {},
  "timestamp": 1736921450,
  "chain": 11155111,
  "commit": "51a374b"
}