{
  "transactions": [
    {
      "hash": "0xf5e848dc96041b74825ba365f8802e97f76dc4fefc6b58e241461959938038f5",
      "transactionType": "CALL",
      "contractName": null,
      "contractAddress": "0x5eb9cc76c3506942c1c0ead70e877dd5e4f00cb0",
      "function": "sell(uint256)",
      "arguments": [
        "989097768136167392021"
      ],
      "transaction": {
        "from": "0xc77f7fed3b5cc8249adc428c5f44c9063b9734b4",
        "to": "0x5eb9cc76c3506942c1c0ead70e877dd5e4f00cb0",
        "gas": "0x16fec",
        "value": "0x0",
        "input": "0xe4849b320000000000000000000000000000000000000000000000359e7d2ba7bff00315",
        "nonce": "0x40f",
        "chainId": "0xaa36a7"
      },
      "additionalContracts": [],
      "isFixedGasLimit": false
    }
  ],
  "receipts": [
    {
      "status": "0x1",
      "cumulativeGasUsed": "0xe89dd2",
      "logs": [
        {
          "address": "0x5eb9cc76c3506942c1c0ead70e877dd5e4f00cb0",
          "topics": [
            "0xddf252ad1be2c89b69c2b068fc378daa952ba7f163c4a11628f55a4df523b3ef",
            "0x000000000000000000000000c77f7fed3b5cc8249adc428c5f44c9063b9734b4",
            "0x0000000000000000000000000000000000000000000000000000000000000000"
          ],
          "data": "0x0000000000000000000000000000000000000000000000359e7d2ba7bff00315",
          "blockHash": "0x94720854c79313c4c9538fb512dec7c97c7f8bd484c356c8b3dacda8824c3c0d",
          "blockNumber": "0x72501e",
          "transactionHash": "0xf5e848dc96041b74825ba365f8802e97f76dc4fefc6b58e241461959938038f5",
          "transactionIndex": "0x5d",
          "logIndex": "0xcc",
          "removed": false
        },
        {
          "address": "0x5eb9cc76c3506942c1c0ead70e877dd5e4f00cb0",
          "topics": [
            "0x4afcb4a87cdbd9974efdb92ee48bc8d7cd0ae4bf217004db3d080cbaee652ca7"
          ],
          "data": "0x000000000000000000000000000000000000000000000000000000006786b33400000000000000000000000000000000000000000000000000039115ffe12f180000000000000000000000000000000000000000000000000dc7db1331e37a1b",
          "blockHash": "0x94720854c79313c4c9538fb512dec7c97c7f8bd484c356c8b3dacda8824c3c0d",
          "blockNumber": "0x72501e",
          "transactionHash": "0xf5e848dc96041b74825ba365f8802e97f76dc4fefc6b58e241461959938038f5",
          "transactionIndex": "0x5d",
          "logIndex": "0xcd",
          "removed": false
        }
      ],
      "logsBloom": "0x00000000000000000000000000000000000000000000000000000000000000000000000000000000000000000000000000000000000000004000000000000000000000000000000000000008000000000000000000000000000000000000000000000000020000000000000004000800020000000000000000000010000000000000000000000000000000000000000000000000000000000000010000000000000000000000000000000000000000004000000000000000000000000000020000000002000000800000008000000000000000000000080000000000000020000000000000000000000000000000000000000000000000000000000000000000",
      "type": "0x2",
      "transactionHash": "0xf5e848dc96041b74825ba365f8802e97f76dc4fefc6b58e241461959938038f5",
      "transactionIndex": "0x5d",
      "blockHash": "0x94720854c79313c4c9538fb512dec7c97c7f8bd484c356c8b3dacda8824c3c0d",
      "blockNumber": "0x72501e",
      "gasUsed": "0xfb93",
      "effectiveGasPrice": "0x31823a660",
      "from": "0xc77f7fed3b5cc8249adc428c5f44c9063b9734b4",
      "to": "0x5eb9cc76c3506942c1c0ead70e877dd5e4f00cb0",
      "contractAddress": null
    }
  ],
  "libraries": [],
  "pending": [],
  "returns": {},
  "timestamp": 1736880950,
  "chain": 11155111,
  "commit": "51a374b"
}