{
  "transactions": [
    {
      "hash": "0xf3459885788367bb8a2915b6fef1c6c0c099804d2383b4b4a3a5b32255aac2be",
      "transactionType": "CALL",
      "contractName": null,
      "contractAddress": "0x8aafd3ede9adb0ff97c7aebce82a919afb1c8764",
      "function": "sell(uint256)",
      "arguments": [
        "122651166439285"
      ],
      "transaction": {
        "from": "0xc77f7fed3b5cc8249adc428c5f44c9063b9734b4",
        "to": "0x8aafd3ede9adb0ff97c7aebce82a919afb1c8764",
        "gas": "0x15daa",
        "value": "0x0",
        "input": "0xe4849b3200000000000000000000000000000000000000000000000000006f8cf334f775",
        "nonce": "0x143c",
        "chainId": "0xaa36a7"
      },
      "additionalContracts": [],
      "isFixedGasLimit": false
    }
  ],
  "receipts": [
    {
      "status": "0x1",
      "cumulativeGasUsed": "0xf21fe1",
      "logs": [
        {
          "address": "0x8aafd3ede9adb0ff97c7aebce82a919afb1c8764",
          "topics": [
            "0xddf252ad1be2c89b69c2b068fc378daa952ba7f163c4a11628f55a4df523b3ef",
            "0x000000000000000000000000c77f7fed3b5cc8249adc428c5f44c9063b9734b4",
            "0x0000000000000000000000000000000000000000000000000000000000000000"
          ],
          "data": "0x00000000000000000000000000000000000000000000000000006ea87e92c03b",
          "blockHash": "0x53f9fb9776233c45e77fbe8024729dad9b21446660733542b9927f1dea909eaa",
          "blockNumber": "0x731b7e",
          "transactionHash": "0xf3459885788367bb8a2915b6fef1c6c0c099804d2383b4b4a3a5b32255aac2be",
          "transactionIndex": "0x8d",
          "logIndex": "0xaf",
          "removed": false
        },
        {
          "address": "0x8aafd3ede9adb0ff97c7aebce82a919afb1c8764",
          "topics": [
            "0xddf252ad1be2c89b69c2b068fc378daa952ba7f163c4a11628f55a4df523b3ef",
            "0x000000000000000000000000c77f7fed3b5cc8249adc428c5f44c9063b9734b4",
            "0x000000000000000000000000c77f7fed3b5cc8249adc428c5f44c9063b9734b4"
          ],
          "data": "0x000000000000000000000000000000000000000000000000000000e474a2373a",
          "blockHash": "0x53f9fb9776233c45e77fbe8024729dad9b21446660733542b9927f1dea909eaa",
          "blockNumber": "0x731b7e",
          "transactionHash": "0xf3459885788367bb8a2915b6fef1c6c0c099804d2383b4b4a3a5b32255aac2be",
          "transactionIndex": "0x8d",
          "logIndex": "0xb0",
          "removed": false
        },
        {
          "address": "0x8aafd3ede9adb0ff97c7aebce82a919afb1c8764",
          "topics": [
            "0x4afcb4a87cdbd9974efdb92ee48bc8d7cd0ae4bf217004db3d080cbaee652ca7"
          ],
          "data": "0x00000000000000000000000000000000000000000000000000000000679046c4000000000000000000000000000000000000000000000000000ed46770d0a31e0000000000000000000000000000000000000000000000000000007733bfe31e",
          "blockHash": "0x53f9fb9776233c45e77fbe8024729dad9b21446660733542b9927f1dea909eaa",
          "blockNumber": "0x731b7e",
          "transactionHash": "0xf3459885788367bb8a2915b6fef1c6c0c099804d2383b4b4a3a5b32255aac2be",
          "transactionIndex": "0x8d",
          "logIndex": "0xb1",
          "removed": false
        }
      ],
      "logsBloom": "0x00000000000000000000000000000000000000000600000000000000000000000000000000000000000000000000000000000000000000004000000000000000000000000000004000000008000000000000000000000000000000000000000000000000020000000000000000000800020000000000000000000010000000000000000000000000000000000000000000000000000000000000010000000000000000000000000000000000000000004000000000000000000000000000000000000002000000800000000000000000000000000000080000000000000020000000000000000000000000000000000000000000000000000000000000000000",
      "type": "0x2",
      "transactionHash": "0xf3459885788367bb8a2915b6fef1c6c0c099804d2383b4b4a3a5b32255aac2be",
      "transactionIndex": "0x8d",
      "blockHash": "0x53f9fb9776233c45e77fbe8024729dad9b21446660733542b9927f1dea909eaa",
      "blockNumber": "0x731b7e",
      "gasUsed": "0xfd27",
      "effectiveGasPrice": "0x101413bff",
      "from": "0xc77f7fed3b5cc8249adc428c5f44c9063b9734b4",
      "to": "0x8aafd3ede9adb0ff97c7aebce82a919afb1c8764",
      "contractAddress": null
    }
  ],
  "libraries": [],
  "pending": [],
  "returns": {},
  "timestamp": 1737508549,
  "chain": 11155111,
  "commit": "1d2fb70"
}