{
  "transactions": [
    {
      "hash": "0x34ea6487d66aee946eb15e2e9a4ad9c3d7e76778b3e65fe3dfdb065784301512",
      "transactionType": "CALL",
      "contractName": null,
      "contractAddress": "0x8aafd3ede9adb0ff97c7aebce82a919afb1c8764",
      "function": "sell(uint256)",
      "arguments": [
        "981209331514"
      ],
      "transaction": {
        "from": "0xc77f7fed3b5cc8249adc428c5f44c9063b9734b4",
        "to": "0x8aafd3ede9adb0ff97c7aebce82a919afb1c8764",
        "gas": "0x1722a",
        "value": "0x0",
        "input": "0xe4849b32000000000000000000000000000000000000000000000000000000e474a2373a",
        "nonce": "0x143d",
        "chainId": "0xaa36a7"
      },
      "additionalContracts": [],
      "isFixedGasLimit": false
    }
  ],
  "receipts": [
    {
      "status": "0x1",
      "cumulativeGasUsed": "0xb5b8c4",
      "logs": [
        {
          "address": "0x8aafd3ede9adb0ff97c7aebce82a919afb1c8764",
          "topics": [
            "0xddf252ad1be2c89b69c2b068fc378daa952ba7f163c4a11628f55a4df523b3ef",
            "0x000000000000000000000000c77f7fed3b5cc8249adc428c5f44c9063b9734b4",
            "0x0000000000000000000000000000000000000000000000000000000000000000"
          ],
          "data": "0x000000000000000000000000000000000000000000000000000000e2a0c1af9e",
          "blockHash": "0xa21838167d0636fa2cc06448000c46c50b3f23edeb94a5259a009b39b99494e1",
          "blockNumber": "0x731b7f",
          "transactionHash": "0x34ea6487d66aee946eb15e2e9a4ad9c3d7e76778b3e65fe3dfdb065784301512",
          "transactionIndex": "0x8e",
          "logIndex": "0x84",
          "removed": false
        },
        {
          "address": "0x8aafd3ede9adb0ff97c7aebce82a919afb1c8764",
          "topics": [
            "0xddf252ad1be2c89b69c2b068fc378daa952ba7f163c4a11628f55a4df523b3ef",
            "0x000000000000000000000000c77f7fed3b5cc8249adc428c5f44c9063b9734b4",
            "0x000000000000000000000000c77f7fed3b5cc8249adc428c5f44c9063b9734b4"
          ],
          "data": "0x00000000000000000000000000000000000000000000000000000001d3e0879c",
          "blockHash": "0xa21838167d0636fa2cc06448000c46c50b3f23edeb94a5259a009b39b99494e1",
          "blockNumber": "0x731b7f",
          "transactionHash": "0x34ea6487d66aee946eb15e2e9a4ad9c3d7e76778b3e65fe3dfdb065784301512",
          "transactionIndex": "0x8e",
          "logIndex": "0x85",
          "removed": false
        },
        {
          "address": "0x8aafd3ede9adb0ff97c7aebce82a919afb1c8764",
          "topics": [
            "0x4afcb4a87cdbd9974efdb92ee48bc8d7cd0ae4bf217004db3d080cbaee652ca7"
          ],
          "data": "0x00000000000000000000000000000000000000000000000000000000679046d0000000000000000000000000000000000000000000000000000ed46770d2039f00000000000000000000000000000000000000000000000000000000f4204159",
          "blockHash": "0xa21838167d0636fa2cc06448000c46c50b3f23edeb94a5259a009b39b99494e1",
          "blockNumber": "0x731b7f",
          "transactionHash": "0x34ea6487d66aee946eb15e2e9a4ad9c3d7e76778b3e65fe3dfdb065784301512",
          "transactionIndex": "0x8e",
          "logIndex": "0x86",
          "removed": false
        }
      ],
      "logsBloom": "0x00000000000000000000000000000000000000000600000000000000000000000000000000000000000000000000000000000000000000004000000000000000000000000000004000000008000000000000000000000000000000000000000000000000020000000000000000000800020000000000000000000010000000000000000000000000000000000000000000000000000000000000010000000000000000000000000000000000000000004000000000000000000000000000000000000002000000800000000000000000000000000000080000000000000020000000000000000000000000000000000000000000000000000000000000000000",
      "type": "0x2",
      "transactionHash": "0x34ea6487d66aee946eb15e2e9a4ad9c3d7e76778b3e65fe3dfdb065784301512",
      "transactionIndex": "0x8e",
      "blockHash": "0xa21838167d0636fa2cc06448000c46c50b3f23edeb94a5259a009b39b99494e1",
      "blockNumber": "0x731b7f",
      "gasUsed": "0xfd1b",
      "effectiveGasPrice": "0x1057e7b9b",
      "from": "0xc77f7fed3b5cc8249adc428c5f44c9063b9734b4",
      "to": "0x8aafd3ede9adb0ff97c7aebce82a919afb1c8764",
      "contractAddress": null
    }
  ],
  "libraries": [],
  "pending": [],
  "returns": {},
  "timestamp": 1737508561,
  "chain": 11155111,
  "commit": "1d2fb70"
}