{
  "transactions": [
    {
      "hash": "0x876cb3debae2b83933af0383285d7f6d073f7a2c9dcb553747ab57fbece7289d",
      "transactionType": "CALL",
      "contractName": null,
      "contractAddress": "0x8aafd3ede9adb0ff97c7aebce82a919afb1c8764",
      "function": "buy(address)",
      "arguments": [
        "0xC77f7fed3b5Cc8249aDc428c5F44C9063B9734b4"
      ],
      "transaction": {
        "from": "0xc77f7fed3b5cc8249adc428c5f44c9063b9734b4",
        "to": "0x8aafd3ede9adb0ff97c7aebce82a919afb1c8764",
        "gas": "0x156ea",
        "value": "0xde0b6b3a7640000",
        "input": "0xf088d547000000000000000000000000c77f7fed3b5cc8249adc428c5f44c9063b9734b4",
        "nonce": "0x1216",
        "chainId": "0xaa36a7"
      },
      "additionalContracts": [],
      "isFixedGasLimit": false
    }
  ],
  "receipts": [
    {
      "status": "0x1",
      "cumulativeGasUsed": "0x112f635",
      "logs": [
        {
          "address": "0x8aafd3ede9adb0ff97c7aebce82a919afb1c8764",
          "topics": [
            "0xddf252ad1be2c89b69c2b068fc378daa952ba7f163c4a11628f55a4df523b3ef",
            "0x0000000000000000000000000000000000000000000000000000000000000000",
            "0x000000000000000000000000c77f7fed3b5cc8249adc428c5f44c9063b9734b4"
          ],
          "data": "0x000000000000000000000000000000000000000000000024a961ada159a21cf3",
          "blockHash": "0xa788f6a39e80590e3d3c25b512b2385e3e022dfdc90c5c5ea81b2eb044f31d52",
          "blockNumber": "0x7318f2",
          "transactionHash": "0x876cb3debae2b83933af0383285d7f6d073f7a2c9dcb553747ab57fbece7289d",
          "transactionIndex": "0x78",
          "logIndex": "0xd3",
          "removed": false
        },
        {
          "address": "0x8aafd3ede9adb0ff97c7aebce82a919afb1c8764",
          "topics": [
            "0xddf252ad1be2c89b69c2b068fc378daa952ba7f163c4a11628f55a4df523b3ef",
            "0x0000000000000000000000000000000000000000000000000000000000000000",
            "0x000000000000000000000000c77f7fed3b5cc8249adc428c5f44c9063b9734b4"
          ],
          "data": "0x0000000000000000000000000000000000000000000000001c7811a438bdcf8d",
          "blockHash": "0xa788f6a39e80590e3d3c25b512b2385e3e022dfdc90c5c5ea81b2eb044f31d52",
          "blockNumber": "0x7318f2",
          "transactionHash": "0x876cb3debae2b83933af0383285d7f6d073f7a2c9dcb553747ab57fbece7289d",
          "transactionIndex": "0x78",
          "logIndex": "0xd4",
          "removed": false
        },
        {
          "address": "0x8aafd3ede9adb0ff97c7aebce82a919afb1c8764",
          "topics": [
            "0x4afcb4a87cdbd9974efdb92ee48bc8d7cd0ae4bf217004db3d080cbaee652ca7"
          ],
          "data": "0x0000000000000000000000000000000000000000000000000000000067902828000000000000000000000000000000000000000000000000000533cb905fb8810000000000000000000000000000000000000000000000000de0b6b3a7640000",
          "blockHash": "0xa788f6a39e80590e3d3c25b512b2385e3e022dfdc90c5c5ea81b2eb044f31d52",
          "blockNumber": "0x7318f2",
          "transactionHash": "0x876cb3debae2b83933af0383285d7f6d073f7a2c9dcb553747ab57fbece7289d",
          "transactionIndex": "0x78",
          "logIndex": "0xd5",
          "removed": false
        }
      ],
      "logsBloom": "0x00000000000000000000000000000000000000000600000000000000000000000000000000000000000000000000000000000000000000004000000000000000000000000000004000000008000000000000000000000000000000000000000000000000020000000000000000000800020000000000000000000010000000000000000000000000000000000000000000000000000000000000010000000000000000000000000000000000000000004000000000000000000000000000000000000002000000800000000000000000000000000000080000000000000020000000000000000000000000000000000000000000000000000000000000000000",
      "type": "0x2",
      "transactionHash": "0x876cb3debae2b83933af0383285d7f6d073f7a2c9dcb553747ab57fbece7289d",
      "transactionIndex": "0x78",
      "blockHash": "0xa788f6a39e80590e3d3c25b512b2385e3e022dfdc90c5c5ea81b2eb044f31d52",
      "blockNumber": "0x7318f2",
      "gasUsed": "0xf844",
      "effectiveGasPrice": "0x3f3184cb",
      "from": "0xc77f7fed3b5cc8249adc428c5f44c9063b9734b4",
      "to": "0x8aafd3ede9adb0ff97c7aebce82a919afb1c8764",
      "contractAddress": null
    }
  ],
  "libraries": [],
  "pending": [],
  "returns": {},
  "timestamp": 1737500714,
  "chain": 11155111,
  "commit": "1d2fb70"
}