{
  "transactions": [
    {
      "hash": "0x41cbd3ec16d380834d2ce978cd91d21822697e93c658c2d6763b0812a9f0b128",
      "transactionType": "CALL",
      "contractName": null,
      "contractAddress": "0x5eb9cc76c3506942c1c0ead70e877dd5e4f00cb0",
      "function": "buy(address)",
      "arguments": [
        "0xC77f7fed3b5Cc8249aDc428c5F44C9063B9734b4"
      ],
      "transaction": {
        "from": "0xc77f7fed3b5cc8249adc428c5f44c9063b9734b4",
        "to": "0x5eb9cc76c3506942c1c0ead70e877dd5e4f00cb0",
        "gas": "0x156c8",
        "value": "0xde0b6b3a7640000",
        "input": "0xf088d547000000000000000000000000c77f7fed3b5cc8249adc428c5f44c9063b9734b4",
        "nonce": "0x18f",
        "chainId": "0xaa36a7"
      },
      "additionalContracts": [],
      "isFixedGasLimit": false
    }
  ],
  "receipts": [
    {
      "status": "0x1",
      "cumulativeGasUsed": "0x197a7cb",
      "logs": [
        {
          "address": "0x5eb9cc76c3506942c1c0ead70e877dd5e4f00cb0",
          "topics": [
            "0xddf252ad1be2c89b69c2b068fc378daa952ba7f163c4a11628f55a4df523b3ef",
            "0x0000000000000000000000000000000000000000000000000000000000000000",
            "0x000000000000000000000000c77f7fed3b5cc8249adc428c5f44c9063b9734b4"
          ],
          "data": "0x000000000000000000000000000000000000000000000035a3801b579164eedc",
          "blockHash": "0x906aa4046b68c06a3cd32ecd442c5875612129a1e857d1d1f60e6e7a3cea515e",
          "blockNumber": "0x723c74",
          "transactionHash": "0x41cbd3ec16d380834d2ce978cd91d21822697e93c658c2d6763b0812a9f0b128",
          "transactionIndex": "0x95",
          "logIndex": "0x222",
          "removed": false
        },
        {
          "address": "0x5eb9cc76c3506942c1c0ead70e877dd5e4f00cb0",
          "topics": [
            "0xddf252ad1be2c89b69c2b068fc378daa952ba7f163c4a11628f55a4df523b3ef",
            "0x0000000000000000000000000000000000000000000000000000000000000000",
            "0x000000000000000000000000c77f7fed3b5cc8249adc428c5f44c9063b9734b4"
          ],
          "data": "0x00000000000000000000000000000000000000000000000029a6fa7befbae24e",
          "blockHash": "0x906aa4046b68c06a3cd32ecd442c5875612129a1e857d1d1f60e6e7a3cea515e",
          "blockNumber": "0x723c74",
          "transactionHash": "0x41cbd3ec16d380834d2ce978cd91d21822697e93c658c2d6763b0812a9f0b128",
          "transactionIndex": "0x95",
          "logIndex": "0x223",
          "removed": false
        },
        {
          "address": "0x5eb9cc76c3506942c1c0ead70e877dd5e4f00cb0",
          "topics": [
            "0x4afcb4a87cdbd9974efdb92ee48bc8d7cd0ae4bf217004db3d080cbaee652ca7"
          ],
          "data": "0x000000000000000000000000000000000000000000000000000000006785c6c400000000000000000000000000000000000000000000000000038dfe0070fad90000000000000000000000000000000000000000000000000de0b6b3a7640000",
          "blockHash": "0x906aa4046b68c06a3cd32ecd442c5875612129a1e857d1d1f60e6e7a3cea515e",
          "blockNumber": "0x723c74",
          "transactionHash": "0x41cbd3ec16d380834d2ce978cd91d21822697e93c658c2d6763b0812a9f0b128",
          "transactionIndex": "0x95",
          "logIndex": "0x224",
          "removed": false
        }
      ],
      "logsBloom": "0x00000000000000000000000000000000000000000000000000000000000000000000000000000000000000000000000000000000000000004000000000000000000000000000000000000008000000000000000000000000000000000000000000000000020000000000000004000800020000000000000000000010000000000000000000000000000000000000000000000000000000000000010000000000000000000000000000000000000000004000000000000000000000000000020000000002000000800000008000000000000000000000080000000000000020000000000000000000000000000000000000000000000000000000000000000000",
      "type": "0x2",
      "transactionHash": "0x41cbd3ec16d380834d2ce978cd91d21822697e93c658c2d6763b0812a9f0b128",
      "transactionIndex": "0x95",
      "blockHash": "0x906aa4046b68c06a3cd32ecd442c5875612129a1e857d1d1f60e6e7a3cea515e",
      "blockNumber": "0x723c74",
      "gasUsed": "0xf82c",
      "effectiveGasPrice": "0x199337b65",
      "from": "0xc77f7fed3b5cc8249adc428c5f44c9063b9734b4",
      "to": "0x5eb9cc76c3506942c1c0ead70e877dd5e4f00cb0",
      "contractAddress": null
    }
  ],
  "libraries": [],
  "pending": [],
  "returns": {},
  "timestamp": 1736820421,
  "chain": 11155111,
  "commit": "51a374b"
}