{
  "transactions": [
    {
      "hash": "0xdc641e6a5f91b3daf3e3b39900296852a22fdc17e3e8c6f7d933ea83fc4fa653",
      "transactionType": "CALL",
      "contractName": null,
      "contractAddress": "0x5eb9cc76c3506942c1c0ead70e877dd5e4f00cb0",
      "function": "buy(address)",
      "arguments": [
        "0xC77f7fed3b5Cc8249aDc428c5F44C9063B9734b4"
      ],
      "transaction": {
        "from": "0xc77f7fed3b5cc8249adc428c5f44c9063b9734b4",
        "to": "0x5eb9cc76c3506942c1c0ead70e877dd5e4f00cb0",
        "gas": "0x1b30c",
        "value": "0xde0b6b3a7640000",
        "input": "0xf088d547000000000000000000000000c77f7fed3b5cc8249adc428c5f44c9063b9734b4",
        "nonce": "0x3fa",
        "chainId": "0xaa36a7"
      },
      "additionalContracts": [],
      "isFixedGasLimit": false
    }
  ],
  "receipts": [
    {
      "status": "0x1",
      "cumulativeGasUsed": "0xad9200",
      "logs": [
        {
          "address": "0x5eb9cc76c3506942c1c0ead70e877dd5e4f00cb0",
          "topics": [
            "0xddf252ad1be2c89b69c2b068fc378daa952ba7f163c4a11628f55a4df523b3ef",
            "0x0000000000000000000000000000000000000000000000000000000000000000",
            "0x000000000000000000000000c77f7fed3b5cc8249adc428c5f44c9063b9734b4"
          ],
          "data": "0x00000000000000000000000000000000000000000000003575059b60f5b8d4d8",
          "blockHash": "0x3bf0fa11199cd4b5a23ba4416c27291c4f2f2c4ef3198689f7596d875ca06074",
          "blockNumber": "0x725002",
          "transactionHash": "0xdc641e6a5f91b3daf3e3b39900296852a22fdc17e3e8c6f7d933ea83fc4fa653",
          "transactionIndex": "0x69",
          "logIndex": "0xa8",
          "removed": false
        },
        {
          "address": "0x5eb9cc76c3506942c1c0ead70e877dd5e4f00cb0",
          "topics": [
            "0xddf252ad1be2c89b69c2b068fc378daa952ba7f163c4a11628f55a4df523b3ef",
            "0x0000000000000000000000000000000000000000000000000000000000000000",
            "0x000000000000000000000000c77f7fed3b5cc8249adc428c5f44c9063b9734b4"
          ],
          "data": "0x0000000000000000000000000000000000000000000000002982e2e4a4488f97",
          "blockHash": "0x3bf0fa11199cd4b5a23ba4416c27291c4f2f2c4ef3198689f7596d875ca06074",
          "blockNumber": "0x725002",
          "transactionHash": "0xdc641e6a5f91b3daf3e3b39900296852a22fdc17e3e8c6f7d933ea83fc4fa653",
          "transactionIndex": "0x69",
          "logIndex": "0xa9",
          "removed": false
        },
        {
          "address": "0x5eb9cc76c3506942c1c0ead70e877dd5e4f00cb0",
          "topics": [
            "0x4afcb4a87cdbd9974efdb92ee48bc8d7cd0ae4bf217004db3d080cbaee652ca7"
          ],
          "data": "0x000000000000000000000000000000000000000000000000000000006786b1e40000000000000000000000000000000000000000000000000003911532bbcd880000000000000000000000000000000000000000000000000de0b6b3a7640000",
          "blockHash": "0x3bf0fa11199cd4b5a23ba4416c27291c4f2f2c4ef3198689f7596d875ca06074",
          "blockNumber": "0x725002",
          "transactionHash": "0xdc641e6a5f91b3daf3e3b39900296852a22fdc17e3e8c6f7d933ea83fc4fa653",
          "transactionIndex": "0x69",
          "logIndex": "0xaa",
          "removed": false
        }
      ],
      "logsBloom": "0x00000000000000000000000000000000000000000000000000000000000000000000000000000000000000000000000000000000000000004000000000000000000000000000000000000008000000000000000000000000000000000000000000000000020000000000000004000800020000000000000000000010000000000000000000000000000000000000000000000000000000000000010000000000000000000000000000000000000000004000000000000000000000000000020000000002000000800000008000000000000000000000080000000000000020000000000000000000000000000000000000000000000000000000000000000000",
      "type": "0x2",
      "transactionHash": "0xdc641e6a5f91b3daf3e3b39900296852a22fdc17e3e8c6f7d933ea83fc4fa653",
      "transactionIndex": "0x69",
      "blockHash": "0x3bf0fa11199cd4b5a23ba4416c27291c4f2f2c4ef3198689f7596d875ca06074",
      "blockNumber": "0x725002",
      "gasUsed": "0x13af8",
      "effectiveGasPrice": "0x37bc4158b",
      "from": "0xc77f7fed3b5cc8249adc428c5f44c9063b9734b4",
      "to": "0x5eb9cc76c3506942c1c0ead70e877dd5e4f00cb0",
      "contractAddress": null
    }
  ],
  "libraries": [],
  "pending": [],
  "returns": {},
  "timestamp": 1736880614,
  "chain": 11155111,
  "commit": "51a374b"
}