{
  "transactions": [
    {
      "hash": "0x495b0e9624348fa3db441f370eb08226e1db32fabe0483f22e10885af03b93b0",
      "transactionType": "CALL",
      "contractName": null,
      "contractAddress": "0x8aafd3ede9adb0ff97c7aebce82a919afb1c8764",
      "function": "sell(uint256)",
      "arguments": [
        "383585"
      ],
      "transaction": {
        "from": "0xc77f7fed3b5cc8249adc428c5f44c9063b9734b4",
        "to": "0x8aafd3ede9adb0ff97c7aebce82a919afb1c8764",
        "gas": "0x16208",
        "value": "0x0",
        "input": "0xe4849b32000000000000000000000000000000000000000000000000000000000005da61",
        "nonce": "0x15cc",
        "chainId": "0xaa36a7"
      },
      "additionalContracts": [],
      "isFixedGasLimit": false
    }
  ],
  "receipts": [
    {
      "status": "0x1",
      "cumulativeGasUsed": "0x8fb247",
      "logs": [
        {
          "address": "0x8aafd3ede9adb0ff97c7aebce82a919afb1c8764",
          "topics": [
            "0xddf252ad1be2c89b69c2b068fc378daa952ba7f163c4a11628f55a4df523b3ef",
            "0x000000000000000000000000c77f7fed3b5cc8249adc428c5f44c9063b9734b4",
            "0x0000000000000000000000000000000000000000000000000000000000000000"
          ],
          "data": "0x000000000000000000000000000000000000000000000000000000000005ce65",
          "blockHash": "0x31b82441958703950556b9f247c28ad9b882886606a697d4f9353dfd9fcb9d55",
          "blockNumber": "0x731d48",
          "transactionHash": "0x495b0e9624348fa3db441f370eb08226e1db32fabe0483f22e10885af03b93b0",
          "transactionIndex": "0x53",
          "logIndex": "0x85",
          "removed": false
        },
        {
          "address": "0x8aafd3ede9adb0ff97c7aebce82a919afb1c8764",
          "topics": [
            "0xddf252ad1be2c89b69c2b068fc378daa952ba7f163c4a11628f55a4df523b3ef",
            "0x000000000000000000000000c77f7fed3b5cc8249adc428c5f44c9063b9734b4",
            "0x000000000000000000000000c77f7fed3b5cc8249adc428c5f44c9063b9734b4"
          ],
          "data": "0x0000000000000000000000000000000000000000000000000000000000000bfc",
          "blockHash": "0x31b82441958703950556b9f247c28ad9b882886606a697d4f9353dfd9fcb9d55",
          "blockNumber": "0x731d48",
          "transactionHash": "0x495b0e9624348fa3db441f370eb08226e1db32fabe0483f22e10885af03b93b0",
          "transactionIndex": "0x53",
          "logIndex": "0x86",
          "removed": false
        },
        {
          "address": "0x8aafd3ede9adb0ff97c7aebce82a919afb1c8764",
          "topics": [
            "0x4afcb4a87cdbd9974efdb92ee48bc8d7cd0ae4bf217004db3d080cbaee652ca7"
          ],
          "data": "0x0000000000000000000000000000000000000000000000000000000067905c4800000000000000000000000000000000000000000000000000136458b8c6d889000000000000000000000000000000000000000000000000000000000000082d",
          "blockHash": "0x31b82441958703950556b9f247c28ad9b882886606a697d4f9353dfd9fcb9d55",
          "blockNumber": "0x731d48",
          "transactionHash": "0x495b0e9624348fa3db441f370eb08226e1db32fabe0483f22e10885af03b93b0",
          "transactionIndex": "0x53",
          "logIndex": "0x87",
          "removed": false
        }
      ],
      "logsBloom": "0x00000000000000000000000000000000000000000600000000000000000000000000000000000000000000000000000000000000000000004000000000000000000000000000004000000008000000000000000000000000000000000000000000000000020000000000000000000800020000000000000000000010000000000000000000000000000000000000000000000000000000000000010000000000000000000000000000000000000000004000000000000000000000000000000000000002000000800000000000000000000000000000080000000000000020000000000000000000000000000000000000000000000000000000000000000000",
      "type": "0x2",
      "transactionHash": "0x495b0e9624348fa3db441f370eb08226e1db32fabe0483f22e10885af03b93b0",
      "transactionIndex": "0x53",
      "blockHash": "0x31b82441958703950556b9f247c28ad9b882886606a697d4f9353dfd9fcb9d55",
      "blockNumber": "0x731d48",
      "gasUsed": "0xf213",
      "effectiveGasPrice": "0x6aa9e9c5",
      "from": "0xc77f7fed3b5cc8249adc428c5f44c9063b9734b4",
      "to": "0x8aafd3ede9adb0ff97c7aebce82a919afb1c8764",
      "contractAddress": null
    }
  ],
  "libraries": [],
  "pending": [],
  "returns": {},
  "timestamp": 1737514058,
  "chain": 11155111,
  "commit": "1d2fb70"
}