{
  "transactions": [
    {
      "hash": "0x8810f54ffedf8c37fff2504994098bc42f4d4760ce56ec8d8cb7796d1a57109d",
      "transactionType": "CALL",
      "contractName": null,
      "contractAddress": "0x8aafd3ede9adb0ff97c7aebce82a919afb1c8764",
      "function": "sell(uint256)",
      "arguments": [
        "40849088"
      ],
      "transaction": {
        "from": "0xc77f7fed3b5cc8249adc428c5f44c9063b9734b4",
        "to": "0x8aafd3ede9adb0ff97c7aebce82a919afb1c8764",
        "gas": "0x15d88",
        "value": "0x0",
        "input": "0xe4849b3200000000000000000000000000000000000000000000000000000000026f4ec0",
        "nonce": "0x16eb",
        "chainId": "0xaa36a7"
      },
      "additionalContracts": [],
      "isFixedGasLimit": false
    }
  ],
  "receipts": [
    {
      "status": "0x1",
      "cumulativeGasUsed": "0x1474c76",
      "logs": [
        {
          "address": "0x8aafd3ede9adb0ff97c7aebce82a919afb1c8764",
          "topics": [
            "0xddf252ad1be2c89b69c2b068fc378daa952ba7f163c4a11628f55a4df523b3ef",
            "0x000000000000000000000000c77f7fed3b5cc8249adc428c5f44c9063b9734b4",
            "0x0000000000000000000000000000000000000000000000000000000000000000"
          ],
          "data": "0x00000000000000000000000000000000000000000000000000000000026a5238",
          "blockHash": "0x96067f1242760a3d0a65e01371b281bd9a6fc5e34b31d736eb413d35a0b7d85d",
          "blockNumber": "0x731eaa",
          "transactionHash": "0x8810f54ffedf8c37fff2504994098bc42f4d4760ce56ec8d8cb7796d1a57109d",
          "transactionIndex": "0x8b",
          "logIndex": "0x11f",
          "removed": false
        },
        {
          "address": "0x8aafd3ede9adb0ff97c7aebce82a919afb1c8764",
          "topics": [
            "0xddf252ad1be2c89b69c2b068fc378daa952ba7f163c4a11628f55a4df523b3ef",
            "0x000000000000000000000000c77f7fed3b5cc8249adc428c5f44c9063b9734b4",
            "0x000000000000000000000000c77f7fed3b5cc8249adc428c5f44c9063b9734b4"
          ],
          "data": "0x000000000000000000000000000000000000000000000000000000000004fc88",
          "blockHash": "0x96067f1242760a3d0a65e01371b281bd9a6fc5e34b31d736eb413d35a0b7d85d",
          "blockNumber": "0x731eaa",
          "transactionHash": "0x8810f54ffedf8c37fff2504994098bc42f4d4760ce56ec8d8cb7796d1a57109d",
          "transactionIndex": "0x8b",
          "logIndex": "0x120",
          "removed": false
        },
        {
          "address": "0x8aafd3ede9adb0ff97c7aebce82a919afb1c8764",
          "topics": [
            "0x4afcb4a87cdbd9974efdb92ee48bc8d7cd0ae4bf217004db3d080cbaee652ca7"
          ],
          "data": "0x0000000000000000000000000000000000000000000000000000000067906ce00000000000000000000000000000000000000000000000000016bea510ddc00b000000000000000000000000000000000000000000000000000000000003fd8e",
          "blockHash": "0x96067f1242760a3d0a65e01371b281bd9a6fc5e34b31d736eb413d35a0b7d85d",
          "blockNumber": "0x731eaa",
          "transactionHash": "0x8810f54ffedf8c37fff2504994098bc42f4d4760ce56ec8d8cb7796d1a57109d",
          "transactionIndex": "0x8b",
          "logIndex": "0x121",
          "removed": false
        }
      ],
      "logsBloom": "0x00000000000000000000000000000000000000000600000000000000000000000000000000000000000000000000000000000000000000004000000000000000000000000000004000000008000000000000000000000000000000000000000000000000020000000000000000000800020000000000000000000010000000000000000000000000000000000000000000000000000000000000010000000000000000000000000000000000000000004000000000000000000000000000000000000002000000800000000000000000000000000000080000000000000020000000000000000000000000000000000000000000000000000000000000000000",
      "type": "0x2",
      "transactionHash": "0x8810f54ffedf8c37fff2504994098bc42f4d4760ce56ec8d8cb7796d1a57109d",
      "transactionIndex": "0x8b",
      "blockHash": "0x96067f1242760a3d0a65e01371b281bd9a6fc5e34b31d736eb413d35a0b7d85d",
      "blockNumber": "0x731eaa",
      "gasUsed": "0xfd0f",
      "effectiveGasPrice": "0x4360da36",
      "from": "0xc77f7fed3b5cc8249adc428c5f44c9063b9734b4",
      "to": "0x8aafd3ede9adb0ff97c7aebce82a919afb1c8764",
      "contractAddress": null
    }
  ],
  "libraries": [],
  "pending": [],
  "returns": {},
  "timestamp": 1737518306,
  "chain": 11155111,
  "commit": "1d2fb70"
}