{
  "transactions": [
    {
      "hash": "0xc2f0246a59d36d9d4f2e08c7eff2985d6d6be9f11bb0c309adcb7dbb2e1127df",
      "transactionType": "CALL",
      "contractName": null,
      "contractAddress": "0x270e88f8683660553e8ba4eb2ad7c91a1710d769",
      "function": "buy(address)",
      "arguments": [
        "0xC77f7fed3b5Cc8249aDc428c5F44C9063B9734b4"
      ],
      "transaction": {
        "from": "0xc77f7fed3b5cc8249adc428c5f44c9063b9734b4",
        "to": "0x270e88f8683660553e8ba4eb2ad7c91a1710d769",
        "gas": "0x1b30c",
        "value": "0xde0b6b3a7640000",
        "input": "0xf088d547000000000000000000000000c77f7fed3b5cc8249adc428c5f44c9063b9734b4",
        "nonce": "0x6fd",
        "chainId": "0xaa36a7"
      },
      "additionalContracts": [],
      "isFixedGasLimit": false
    }
  ],
  "receipts": [
    {
      "status": "0x1",
      "cumulativeGasUsed": "0xfa7163",
      "logs": [
        {
          "address": "0x270e88f8683660553e8ba4eb2ad7c91a1710d769",
          "topics": [
            "0xddf252ad1be2c89b69c2b068fc378daa952ba7f163c4a11628f55a4df523b3ef",
            "0x0000000000000000000000000000000000000000000000000000000000000000",
            "0x000000000000000000000000c77f7fed3b5cc8249adc428c5f44c9063b9734b4"
          ],
          "data": "0x0000000000000000000000000000000000000000000000284a498c6ba3d32c82",
          "blockHash": "0xcc18fd79597bd66eda3b8f7a7bc22a9601d2a3c9008cf512be1e991f435c57e7",
          "blockNumber": "0x725413",
          "transactionHash": "0xc2f0246a59d36d9d4f2e08c7eff2985d6d6be9f11bb0c309adcb7dbb2e1127df",
          "transactionIndex": "0x3a",
          "logIndex": "0x69",
          "removed": false
        },
        {
          "address": "0x270e88f8683660553e8ba4eb2ad7c91a1710d769",
          "topics": [
            "0xddf252ad1be2c89b69c2b068fc378daa952ba7f163c4a11628f55a4df523b3ef",
            "0x0000000000000000000000000000000000000000000000000000000000000000",
            "0x000000000000000000000000c77f7fed3b5cc8249adc428c5f44c9063b9734b4"
          ],
          "data": "0x0000000000000000000000000000000000000000000000001f49655a21f72eb0",
          "blockHash": "0xcc18fd79597bd66eda3b8f7a7bc22a9601d2a3c9008cf512be1e991f435c57e7",
          "blockNumber": "0x725413",
          "transactionHash": "0xc2f0246a59d36d9d4f2e08c7eff2985d6d6be9f11bb0c309adcb7dbb2e1127df",
          "transactionIndex": "0x3a",
          "logIndex": "0x6a",
          "removed": false
        },
        {
          "address": "0x270e88f8683660553e8ba4eb2ad7c91a1710d769",
          "topics": [
            "0x4afcb4a87cdbd9974efdb92ee48bc8d7cd0ae4bf217004db3d080cbaee652ca7"
          ],
          "data": "0x000000000000000000000000000000000000000000000000000000006786e2ec0000000000000000000000000000000000000000000000000004bb95cc0af3ef0000000000000000000000000000000000000000000000000de0b6b3a7640000",
          "blockHash": "0xcc18fd79597bd66eda3b8f7a7bc22a9601d2a3c9008cf512be1e991f435c57e7",
          "blockNumber": "0x725413",
          "transactionHash": "0xc2f0246a59d36d9d4f2e08c7eff2985d6d6be9f11bb0c309adcb7dbb2e1127df",
          "transactionIndex": "0x3a",
          "logIndex": "0x6b",
          "removed": false
        }
      ],
      "logsBloom": "0x00000000000000000000000000000000000000000000000000000000000000000000000000000000000000000000000020000000000000004000000000000000000000000000000000000008000000000000000000000000000000000000000000000000020000000000000000000800020000000000000000000010000000000000000000010000000000000000000000000000000000000000010000000000000000000000000000000000000000004000000000000000000000000000000000000002000000800000000000000000000000000000080000008000000020000000000000000000000000000000000000000000000000000000000000000000",
      "type": "0x2",
      "transactionHash": "0xc2f0246a59d36d9d4f2e08c7eff2985d6d6be9f11bb0c309adcb7dbb2e1127df",
      "transactionIndex": "0x3a",
      "blockHash": "0xcc18fd79597bd66eda3b8f7a7bc22a9601d2a3c9008cf512be1e991f435c57e7",
      "blockNumber": "0x725413",
      "gasUsed": "0x13af8",
      "effectiveGasPrice": "0x1518bea45",
      "from": "0xc77f7fed3b5cc8249adc428c5f44c9063b9734b4",
      "to": "0x270e88f8683660553e8ba4eb2ad7c91a1710d769",
      "contractAddress": null
    }
  ],
  "libraries": [],
  "pending": [],
  "returns": {},
  "timestamp": 1736893166,
  "chain": 11155111,
  "commit": "51a374b"
}