{
  "transactions": [
    {
      "hash": "0xc441197f2eff1172449ce35670fe9fa84fdbc4e0eb556aeaa02b30e340ea6925",
      "transactionType": "CALL",
      "contractName": null,
      "contractAddress": "0x8aafd3ede9adb0ff97c7aebce82a919afb1c8764",
      "function": "sell(uint256)",
      "arguments": [
        "23189315793"
      ],
      "transaction": {
        "from": "0xc77f7fed3b5cc8249adc428c5f44c9063b9734b4",
        "to": "0x8aafd3ede9adb0ff97c7aebce82a919afb1c8764",
        "gas": "0x1722a",
        "value": "0x0",
        "input": "0xe4849b32000000000000000000000000000000000000000000000000000000056630e0d1",
        "nonce": "0x10a0",
        "chainId": "0xaa36a7"
      },
      "additionalContracts": [],
      "isFixedGasLimit": false
    }
  ],
  "receipts": [
    {
      "status": "0x1",
      "cumulativeGasUsed": "0xdbaceb",
      "logs": [
        {
          "address": "0x8aafd3ede9adb0ff97c7aebce82a919afb1c8764",
          "topics": [
            "0xddf252ad1be2c89b69c2b068fc378daa952ba7f163c4a11628f55a4df523b3ef",
            "0x000000000000000000000000c77f7fed3b5cc8249adc428c5f44c9063b9734b4",
            "0x0000000000000000000000000000000000000000000000000000000000000000"
          ],
          "data": "0x000000000000000000000000000000000000000000000000000000055b2226b3",
          "blockHash": "0x66a32c9b6f0a8519c86df221cf265232b7b6a62c3e241dc7b7f2b190aa14a323",
          "blockNumber": "0x731731",
          "transactionHash": "0xc441197f2eff1172449ce35670fe9fa84fdbc4e0eb556aeaa02b30e340ea6925",
          "transactionIndex": "0x75",
          "logIndex": "0xbd",
          "removed": false
        },
        {
          "address": "0x8aafd3ede9adb0ff97c7aebce82a919afb1c8764",
          "topics": [
            "0xddf252ad1be2c89b69c2b068fc378daa952ba7f163c4a11628f55a4df523b3ef",
            "0x000000000000000000000000c77f7fed3b5cc8249adc428c5f44c9063b9734b4",
            "0x000000000000000000000000c77f7fed3b5cc8249adc428c5f44c9063b9734b4"
          ],
          "data": "0x000000000000000000000000000000000000000000000000000000000b0eba1e",
          "blockHash": "0x66a32c9b6f0a8519c86df221cf265232b7b6a62c3e241dc7b7f2b190aa14a323",
          "blockNumber": "0x731731",
          "transactionHash": "0xc441197f2eff1172449ce35670fe9fa84fdbc4e0eb556aeaa02b30e340ea6925",
          "transactionIndex": "0x75",
          "logIndex": "0xbe",
          "removed": false
        },
        {
          "address": "0x8aafd3ede9adb0ff97c7aebce82a919afb1c8764",
          "topics": [
            "0x4afcb4a87cdbd9974efdb92ee48bc8d7cd0ae4bf217004db3d080cbaee652ca7"
          ],
          "data": "0x00000000000000000000000000000000000000000000000000000000679013100000000000000000000000000000000000000000000000000004fda279f9b3380000000000000000000000000000000000000000000000000000000001f11108",
          "blockHash": "0x66a32c9b6f0a8519c86df221cf265232b7b6a62c3e241dc7b7f2b190aa14a323",
          "blockNumber": "0x731731",
          "transactionHash": "0xc441197f2eff1172449ce35670fe9fa84fdbc4e0eb556aeaa02b30e340ea6925",
          "transactionIndex": "0x75",
          "logIndex": "0xbf",
          "removed": false
        }
      ],
      "logsBloom": "0x00000000000000000000000000000000000000000600000000000000000000000000000000000000000000000000000000000000000000004000000000000000000000000000004000000008000000000000000000000000000000000000000000000000020000000000000000000800020000000000000000000010000000000000000000000000000000000000000000000000000000000000010000000000000000000000000000000000000000004000000000000000000000000000000000000002000000800000000000000000000000000000080000000000000020000000000000000000000000000000000000000000000000000000000000000000",
      "type": "0x2",
      "transactionHash": "0xc441197f2eff1172449ce35670fe9fa84fdbc4e0eb556aeaa02b30e340ea6925",
      "transactionIndex": "0x75",
      "blockHash": "0x66a32c9b6f0a8519c86df221cf265232b7b6a62c3e241dc7b7f2b190aa14a323",
      "blockNumber": "0x731731",
      "gasUsed": "0xfd1b",
      "effectiveGasPrice": "0x42d3d57c",
      "from": "0xc77f7fed3b5cc8249adc428c5f44c9063b9734b4",
      "to": "0x8aafd3ede9adb0ff97c7aebce82a919afb1c8764",
      "contractAddress": null
    }
  ],
  "libraries": [],
  "pending": [],
  "returns": {},
  "timestamp": 1737495314,
  "chain": 11155111,
  "commit": "1d2fb70"
}