{
  "transactions": [
    {
      "hash": "0x77826642d7363e17d82d715ec26cb64c920db8c17b777a3f5f43dfc089ba7d3b",
      "transactionType": "CALL",
      "contractName": null,
      "contractAddress": "0x8aafd3ede9adb0ff97c7aebce82a919afb1c8764",
      "function": "sell(uint256)",
      "arguments": [
        "9404538860465810"
      ],
      "transaction": {
        "from": "0xc77f7fed3b5cc8249adc428c5f44c9063b9734b4",
        "to": "0x8aafd3ede9adb0ff97c7aebce82a919afb1c8764",
        "gas": "0x1724d",
        "value": "0x0",
        "input": "0xe4849b3200000000000000000000000000000000000000000000000000216960d60dee92",
        "nonce": "0x175c",
        "chainId": "0xaa36a7"
      },
      "additionalContracts": [],
      "isFixedGasLimit": false
    }
  ],
  "receipts": [
    {
      "status": "0x1",
      "cumulativeGasUsed": "0x63ee2b",
      "logs": [
        {
          "address": "0x8aafd3ede9adb0ff97c7aebce82a919afb1c8764",
          "topics": [
            "0xddf252ad1be2c89b69c2b068fc378daa952ba7f163c4a11628f55a4df523b3ef",
            "0x000000000000000000000000c77f7fed3b5cc8249adc428c5f44c9063b9734b4",
            "0x0000000000000000000000000000000000000000000000000000000000000000"
          ],
          "data": "0x000000000000000000000000000000000000000000000000002124f384785104",
          "blockHash": "0xbd564da12a3990c49c19e30309c429f599ec648e2be6230a9c4a391357cf686d",
          "blockNumber": "0x731f2f",
          "transactionHash": "0x77826642d7363e17d82d715ec26cb64c920db8c17b777a3f5f43dfc089ba7d3b",
          "transactionIndex": "0x40",
          "logIndex": "0x79",
          "removed": false
        },
        {
          "address": "0x8aafd3ede9adb0ff97c7aebce82a919afb1c8764",
          "topics": [
            "0xddf252ad1be2c89b69c2b068fc378daa952ba7f163c4a11628f55a4df523b3ef",
            "0x000000000000000000000000c77f7fed3b5cc8249adc428c5f44c9063b9734b4",
            "0x000000000000000000000000c77f7fed3b5cc8249adc428c5f44c9063b9734b4"
          ],
          "data": "0x0000000000000000000000000000000000000000000000000000446d51959d8e",
          "blockHash": "0xbd564da12a3990c49c19e30309c429f599ec648e2be6230a9c4a391357cf686d",
          "blockNumber": "0x731f2f",
          "transactionHash": "0x77826642d7363e17d82d715ec26cb64c920db8c17b777a3f5f43dfc089ba7d3b",
          "transactionIndex": "0x40",
          "logIndex": "0x7a",
          "removed": false
        },
        {
          "address": "0x8aafd3ede9adb0ff97c7aebce82a919afb1c8764",
          "topics": [
            "0x4afcb4a87cdbd9974efdb92ee48bc8d7cd0ae4bf217004db3d080cbaee652ca7"
          ],
          "data": "0x000000000000000000000000000000000000000000000000000000006790731c00000000000000000000000000000000000000000000000000181cfd36dbe12700000000000000000000000000000000000000000000000000003a0dd9c2d184",
          "blockHash": "0xbd564da12a3990c49c19e30309c429f599ec648e2be6230a9c4a391357cf686d",
          "blockNumber": "0x731f2f",
          "transactionHash": "0x77826642d7363e17d82d715ec26cb64c920db8c17b777a3f5f43dfc089ba7d3b",
          "transactionIndex": "0x40",
          "logIndex": "0x7b",
          "removed": false
        }
      ],
      "logsBloom": "0x00000000000000000000000000000000000000000600000000000000000000000000000000000000000000000000000000000000000000004000000000000000000000000000004000000008000000000000000000000000000000000000000000000000020000000000000000000800020000000000000000000010000000000000000000000000000000000000000000000000000000000000010000000000000000000000000000000000000000004000000000000000000000000000000000000002000000800000000000000000000000000000080000000000000020000000000000000000000000000000000000000000000000000000000000000000",
      "type": "0x2",
      "transactionHash": "0x77826642d7363e17d82d715ec26cb64c920db8c17b777a3f5f43dfc089ba7d3b",
      "transactionIndex": "0x40",
      "blockHash": "0xbd564da12a3990c49c19e30309c429f599ec648e2be6230a9c4a391357cf686d",
      "blockNumber": "0x731f2f",
      "gasUsed": "0xfd33",
      "effectiveGasPrice": "0x3f08f153",
      "from": "0xc77f7fed3b5cc8249adc428c5f44c9063b9734b4",
      "to": "0x8aafd3ede9adb0ff97c7aebce82a919afb1c8764",
      "contractAddress": null
    }
  ],
  "libraries": [],
  "pending": [],
  "returns": {},
  "timestamp": 1737519901,
  "chain": 11155111,
  "commit": "1d2fb70"
}