{
  "transactions": [
    {
      "hash": "0xb516092cc0fad5622890aa2f43c2be2d3a3460d46ca1c183d3b371c35e085b8b",
      "transactionType": "CALL",
      "contractName": null,
      "contractAddress": "0x8aafd3ede9adb0ff97c7aebce82a919afb1c8764",
      "function": "sell(uint256)",
      "arguments": [
        "11859"
      ],
      "transaction": {
        "from": "0xc77f7fed3b5cc8249adc428c5f44c9063b9734b4",
        "to": "0x8aafd3ede9adb0ff97c7aebce82a919afb1c8764",
        "gas": "0x14e4c",
        "value": "0x0",
        "input": "0xe4849b320000000000000000000000000000000000000000000000000000000000002e53",
        "nonce": "0x10ad",
        "chainId": "0xaa36a7"
      },
      "additionalContracts": [],
      "isFixedGasLimit": false
    }
  ],
  "receipts": [
    {
      "status": "0x1",
      "cumulativeGasUsed": "0x884855",
      "logs": [
        {
          "address": "0x8aafd3ede9adb0ff97c7aebce82a919afb1c8764",
          "topics": [
            "0xddf252ad1be2c89b69c2b068fc378daa952ba7f163c4a11628f55a4df523b3ef",
            "0x000000000000000000000000c77f7fed3b5cc8249adc428c5f44c9063b9734b4",
            "0x0000000000000000000000000000000000000000000000000000000000000000"
          ],
          "data": "0x0000000000000000000000000000000000000000000000000000000000002df5",
          "blockHash": "0xca5853325d04db15952a835b5244ad2bd9c56b8179ce6d80115e2add2c0ef952",
          "blockNumber": "0x731740",
          "transactionHash": "0xb516092cc0fad5622890aa2f43c2be2d3a3460d46ca1c183d3b371c35e085b8b",
          "transactionIndex": "0x5f",
          "logIndex": "0x8a",
          "removed": false
        },
        {
          "address": "0x8aafd3ede9adb0ff97c7aebce82a919afb1c8764",
          "topics": [
            "0xddf252ad1be2c89b69c2b068fc378daa952ba7f163c4a11628f55a4df523b3ef",
            "0x000000000000000000000000c77f7fed3b5cc8249adc428c5f44c9063b9734b4",
            "0x000000000000000000000000c77f7fed3b5cc8249adc428c5f44c9063b9734b4"
          ],
          "data": "0x000000000000000000000000000000000000000000000000000000000000005e",
          "blockHash": "0xca5853325d04db15952a835b5244ad2bd9c56b8179ce6d80115e2add2c0ef952",
          "blockNumber": "0x731740",
          "transactionHash": "0xb516092cc0fad5622890aa2f43c2be2d3a3460d46ca1c183d3b371c35e085b8b",
          "transactionIndex": "0x5f",
          "logIndex": "0x8b",
          "removed": false
        },
        {
          "address": "0x8aafd3ede9adb0ff97c7aebce82a919afb1c8764",
          "topics": [
            "0x4afcb4a87cdbd9974efdb92ee48bc8d7cd0ae4bf217004db3d080cbaee652ca7"
          ],
          "data": "0x00000000000000000000000000000000000000000000000000000000679013c40000000000000000000000000000000000000000000000000004ff16468fa44b0000000000000000000000000000000000000000000000000000000000000010",
          "blockHash": "0xca5853325d04db15952a835b5244ad2bd9c56b8179ce6d80115e2add2c0ef952",
          "blockNumber": "0x731740",
          "transactionHash": "0xb516092cc0fad5622890aa2f43c2be2d3a3460d46ca1c183d3b371c35e085b8b",
          "transactionIndex": "0x5f",
          "logIndex": "0x8c",
          "removed": false
        }
      ],
      "logsBloom": "0x00000000000000000000000000000000000000000600000000000000000000000000000000000000000000000000000000000000000000004000000000000000000000000000004000000008000000000000000000000000000000000000000000000000020000000000000000000800020000000000000000000010000000000000000000000000000000000000000000000000000000000000010000000000000000000000000000000000000000004000000000000000000000000000000000000002000000800000000000000000000000000000080000000000000020000000000000000000000000000000000000000000000000000000000000000000",
      "type": "0x2",
      "transactionHash": "0xb516092cc0fad5622890aa2f43c2be2d3a3460d46ca1c183d3b371c35e085b8b",
      "transactionIndex": "0x5f",
      "blockHash": "0xca5853325d04db15952a835b5244ad2bd9c56b8179ce6d80115e2add2c0ef952",
      "blockNumber": "0x731740",
      "gasUsed": "0xf207",
      "effectiveGasPrice": "0x3f1c806b",
      "from": "0xc77f7fed3b5cc8249adc428c5f44c9063b9734b4",
      "to": "0x8aafd3ede9adb0ff97c7aebce82a919afb1c8764",
      "contractAddress": null
    }
  ],
  "libraries": [],
  "pending": [],
  "returns": {},
  "timestamp": 1737495493,
  "chain": 11155111,
  "commit": "1d2fb70"
}