{
  "transactions": [
    {
      "hash": "0xa0e1e32e0a5e093c2cce5fc7c173888069d19216ebee7de0c98825ef2605a935",
      "transactionType": "CALL",
      "contractName": null,
      "contractAddress": "0x270e88f8683660553e8ba4eb2ad7c91a1710d769",
      "function": "buy(address)",
      "arguments": [
        "0xC77f7fed3b5Cc8249aDc428c5F44C9063B9734b4"
      ],
      "transaction": {
        "from": "0xc77f7fed3b5cc8249adc428c5f44c9063b9734b4",
        "to": "0x270e88f8683660553e8ba4eb2ad7c91a1710d769",
        "gas": "0x1b30c",
        "value": "0xde0b6b3a7640000",
        "input": "0xf088d547000000000000000000000000c77f7fed3b5cc8249adc428c5f44c9063b9734b4",
        "nonce": "0x6d5",
        "chainId": "0xaa36a7"
      },
      "additionalContracts": [],
      "isFixedGasLimit": false
    }
  ],
  "receipts": [
    {
      "status": "0x1",
      "cumulativeGasUsed": "0x2093c4d",
      "logs": [
        {
          "address": "0x270e88f8683660553e8ba4eb2ad7c91a1710d769",
          "topics": [
            "0xddf252ad1be2c89b69c2b068fc378daa952ba7f163c4a11628f55a4df523b3ef",
            "0x0000000000000000000000000000000000000000000000000000000000000000",
            "0x000000000000000000000000c77f7fed3b5cc8249adc428c5f44c9063b9734b4"
          ],
          "data": "0x0000000000000000000000000000000000000000000000287c686939a35d47cc",
          "blockHash": "0xdcd5a7cd3b475569da1f4d36cec16be635e2850643148842349da7b68193e768",
          "blockNumber": "0x7253e6",
          "transactionHash": "0xa0e1e32e0a5e093c2cce5fc7c173888069d19216ebee7de0c98825ef2605a935",
          "transactionIndex": "0x6b",
          "logIndex": "0x289",
          "removed": false
        },
        {
          "address": "0x270e88f8683660553e8ba4eb2ad7c91a1710d769",
          "topics": [
            "0xddf252ad1be2c89b69c2b068fc378daa952ba7f163c4a11628f55a4df523b3ef",
            "0x0000000000000000000000000000000000000000000000000000000000000000",
            "0x000000000000000000000000c77f7fed3b5cc8249adc428c5f44c9063b9734b4"
          ],
          "data": "0x0000000000000000000000000000000000000000000000001f7050f45925094b",
          "blockHash": "0xdcd5a7cd3b475569da1f4d36cec16be635e2850643148842349da7b68193e768",
          "blockNumber": "0x7253e6",
          "transactionHash": "0xa0e1e32e0a5e093c2cce5fc7c173888069d19216ebee7de0c98825ef2605a935",
          "transactionIndex": "0x6b",
          "logIndex": "0x28a",
          "removed": false
        },
        {
          "address": "0x270e88f8683660553e8ba4eb2ad7c91a1710d769",
          "topics": [
            "0x4afcb4a87cdbd9974efdb92ee48bc8d7cd0ae4bf217004db3d080cbaee652ca7"
          ],
          "data": "0x000000000000000000000000000000000000000000000000000000006786e0d00000000000000000000000000000000000000000000000000004b5ba03ca17120000000000000000000000000000000000000000000000000de0b6b3a7640000",
          "blockHash": "0xdcd5a7cd3b475569da1f4d36cec16be635e2850643148842349da7b68193e768",
          "blockNumber": "0x7253e6",
          "transactionHash": "0xa0e1e32e0a5e093c2cce5fc7c173888069d19216ebee7de0c98825ef2605a935",
          "transactionIndex": "0x6b",
          "logIndex": "0x28b",
          "removed": false
        }
      ],
      "logsBloom": "0x00000000000000000000000000000000000000000000000000000000000000000000000000000000000000000000000020000000000000004000000000000000000000000000000000000008000000000000000000000000000000000000000000000000020000000000000000000800020000000000000000000010000000000000000000010000000000000000000000000000000000000000010000000000000000000000000000000000000000004000000000000000000000000000000000000002000000800000000000000000000000000000080000008000000020000000000000000000000000000000000000000000000000000000000000000000",
      "type": "0x2",
      "transactionHash": "0xa0e1e32e0a5e093c2cce5fc7c173888069d19216ebee7de0c98825ef2605a935",
      "transactionIndex": "0x6b",
      "blockHash": "0xdcd5a7cd3b475569da1f4d36cec16be635e2850643148842349da7b68193e768",
      "blockNumber": "0x7253e6",
      "gasUsed": "0x13af8",
      "effectiveGasPrice": "0x139c2e159",
      "from": "0xc77f7fed3b5cc8249adc428c5f44c9063b9734b4",
      "to": "0x270e88f8683660553e8ba4eb2ad7c91a1710d769",
      "contractAddress": null
    }
  ],
  "libraries": [],
  "pending": [],
  "returns": {},
  "timestamp": 1736892626,
  "chain": 11155111,
  "commit": "51a374b"
}