{
  "transactions": [
    {
      "hash": "0x32da97d804f48854d976b61b62ae3ff82dae5d4bc039ba40c68355c711855a82",
      "transactionType": "CALL",
      "contractName": null,
      "contractAddress": "0x8aafd3ede9adb0ff97c7aebce82a919afb1c8764",
      "function": "sell(uint256)",
      "arguments": [
        "169154870645827142014"
      ],
      "transaction": {
        "from": "0xc77f7fed3b5cc8249adc428c5f44c9063b9734b4",
        "to": "0x8aafd3ede9adb0ff97c7aebce82a919afb1c8764",
        "gas": "0x17270",
        "value": "0x0",
        "input": "0xe4849b320000000000000000000000000000000000000000000000092b7ed2a1a7ad817e",
        "nonce": "0x164c",
        "chainId": "0xaa36a7"
      },
      "additionalContracts": [],
      "isFixedGasLimit": false
    }
  ],
  "receipts": [
    {
      "status": "0x1",
      "cumulativeGasUsed": "0x1206800",
      "logs": [
        {
          "address": "0x8aafd3ede9adb0ff97c7aebce82a919afb1c8764",
          "topics": [
            "0xddf252ad1be2c89b69c2b068fc378daa952ba7f163c4a11628f55a4df523b3ef",
            "0x000000000000000000000000c77f7fed3b5cc8249adc428c5f44c9063b9734b4",
            "0x0000000000000000000000000000000000000000000000000000000000000000"
          ],
          "data": "0x00000000000000000000000000000000000000000000000918b726f660b44f4e",
          "blockHash": "0xf40894ea2c63a36ca6722812b0217ec9313c51c213e0881fe3996ab03cf9bdde",
          "blockNumber": "0x731de8",
          "transactionHash": "0x32da97d804f48854d976b61b62ae3ff82dae5d4bc039ba40c68355c711855a82",
          "transactionIndex": "0x7e",
          "logIndex": "0xef",
          "removed": false
        },
        {
          "address": "0x8aafd3ede9adb0ff97c7aebce82a919afb1c8764",
          "topics": [
            "0xddf252ad1be2c89b69c2b068fc378daa952ba7f163c4a11628f55a4df523b3ef",
            "0x000000000000000000000000c77f7fed3b5cc8249adc428c5f44c9063b9734b4",
            "0x000000000000000000000000c77f7fed3b5cc8249adc428c5f44c9063b9734b4"
          ],
          "data": "0x00000000000000000000000000000000000000000000000012c7abab46f93230",
          "blockHash": "0xf40894ea2c63a36ca6722812b0217ec9313c51c213e0881fe3996ab03cf9bdde",
          "blockNumber": "0x731de8",
          "transactionHash": "0x32da97d804f48854d976b61b62ae3ff82dae5d4bc039ba40c68355c711855a82",
          "transactionIndex": "0x7e",
          "logIndex": "0xf0",
          "removed": false
        },
        {
          "address": "0x8aafd3ede9adb0ff97c7aebce82a919afb1c8764",
          "topics": [
            "0x4afcb4a87cdbd9974efdb92ee48bc8d7cd0ae4bf217004db3d080cbaee652ca7"
          ],
          "data": "0x00000000000000000000000000000000000000000000000000000000679063c80000000000000000000000000000000000000000000000000014f5bb209932840000000000000000000000000000000000000000000000000dcc533e3812303c",
          "blockHash": "0xf40894ea2c63a36ca6722812b0217ec9313c51c213e0881fe3996ab03cf9bdde",
          "blockNumber": "0x731de8",
          "transactionHash": "0x32da97d804f48854d976b61b62ae3ff82dae5d4bc039ba40c68355c711855a82",
          "transactionIndex": "0x7e",
          "logIndex": "0xf1",
          "removed": false
        }
      ],
      "logsBloom": "0x00000000000000000000000000000000000000000600000000000000000000000000000000000000000000000000000000000000000000004000000000000000000000000000004000000008000000000000000000000000000000000000000000000000020000000000000000000800020000000000000000000010000000000000000000000000000000000000000000000000000000000000010000000000000000000000000000000000000000004000000000000000000000000000000000000002000000800000000000000000000000000000080000000000000020000000000000000000000000000000000000000000000000000000000000000000",
      "type": "0x2",
      "transactionHash": "0x32da97d804f48854d976b61b62ae3ff82dae5d4bc039ba40c68355c711855a82",
      "transactionIndex": "0x7e",
      "blockHash": "0xf40894ea2c63a36ca6722812b0217ec9313c51c213e0881fe3996ab03cf9bdde",
      "blockNumber": "0x731de8",
      "gasUsed": "0xfd4b",
      "effectiveGasPrice": "0x3f8e2e4c",
      "from": "0xc77f7fed3b5cc8249adc428c5f44c9063b9734b4",
      "to": "0x8aafd3ede9adb0ff97c7aebce82a919afb1c8764",
      "contractAddress": null
    }
  ],
  "libraries": [],
  "pending": [],
  "returns": {},
  "timestamp": 1737515977,
  "chain": 11155111,
  "commit": "1d2fb70"
}