{
  "transactions": [
    {
      "hash": "0xd56e4cb69da5853e1ea8d14bc48b55863a1a6f78a523c285321db3f1cc70a107",
      "transactionType": "CALL",
      "contractName": null,
      "contractAddress": "0x270e88f8683660553e8ba4eb2ad7c91a1710d769",
      "function": "buy(address)",
      "arguments": [
        "0xC77f7fed3b5Cc8249aDc428c5F44C9063B9734b4"
      ],
      "transaction": {
        "from": "0xc77f7fed3b5cc8249adc428c5f44c9063b9734b4",
        "to": "0x270e88f8683660553e8ba4eb2ad7c91a1710d769",
        "gas": "0x1b30c",
        "value": "0xde0b6b3a7640000",
        "input": "0xf088d547000000000000000000000000c77f7fed3b5cc8249adc428c5f44c9063b9734b4",
        "nonce": "0x74f",
        "chainId": "0xaa36a7"
      },
      "additionalContracts": [],
      "isFixedGasLimit": false
    }
  ],
  "receipts": [
    {
      "status": "0x1",
      "cumulativeGasUsed": "0x92f27c",
      "logs": [
        {
          "address": "0x270e88f8683660553e8ba4eb2ad7c91a1710d769",
          "topics": [
            "0xddf252ad1be2c89b69c2b068fc378daa952ba7f163c4a11628f55a4df523b3ef",
            "0x0000000000000000000000000000000000000000000000000000000000000000",
            "0x000000000000000000000000c77f7fed3b5cc8249adc428c5f44c9063b9734b4"
          ],
          "data": "0x000000000000000000000000000000000000000000000027e5099be564dc7df8",
          "blockHash": "0x2c5fbec76c37b3d68d543c05e6134cc5643472751dcce44e710bfa2ca35e0f72",
          "blockNumber": "0x725475",
          "transactionHash": "0xd56e4cb69da5853e1ea8d14bc48b55863a1a6f78a523c285321db3f1cc70a107",
          "transactionIndex": "0x44",
          "logIndex": "0x56",
          "removed": false
        },
        {
          "address": "0x270e88f8683660553e8ba4eb2ad7c91a1710d769",
          "topics": [
            "0xddf252ad1be2c89b69c2b068fc378daa952ba7f163c4a11628f55a4df523b3ef",
            "0x0000000000000000000000000000000000000000000000000000000000000000",
            "0x000000000000000000000000c77f7fed3b5cc8249adc428c5f44c9063b9734b4"
          ],
          "data": "0x0000000000000000000000000000000000000000000000001efac5a288868b16",
          "blockHash": "0x2c5fbec76c37b3d68d543c05e6134cc5643472751dcce44e710bfa2ca35e0f72",
          "blockNumber": "0x725475",
          "transactionHash": "0xd56e4cb69da5853e1ea8d14bc48b55863a1a6f78a523c285321db3f1cc70a107",
          "transactionIndex": "0x44",
          "logIndex": "0x57",
          "removed": false
        },
        {
          "address": "0x270e88f8683660553e8ba4eb2ad7c91a1710d769",
          "topics": [
            "0x4afcb4a87cdbd9974efdb92ee48bc8d7cd0ae4bf217004db3d080cbaee652ca7"
          ],
          "data": "0x000000000000000000000000000000000000000000000000000000006786e7840000000000000000000000000000000000000000000000000004c79872d494e20000000000000000000000000000000000000000000000000de0b6b3a7640000",
          "blockHash": "0x2c5fbec76c37b3d68d543c05e6134cc5643472751dcce44e710bfa2ca35e0f72",
          "blockNumber": "0x725475",
          "transactionHash": "0xd56e4cb69da5853e1ea8d14bc48b55863a1a6f78a523c285321db3f1cc70a107",
          "transactionIndex": "0x44",
          "logIndex": "0x58",
          "removed": false
        }
      ],
      "logsBloom": "0x00000000000000000000000000000000000000000000000000000000000000000000000000000000000000000000000020000000000000004000000000000000000000000000000000000008000000000000000000000000000000000000000000000000020000000000000000000800020000000000000000000010000000000000000000010000000000000000000000000000000000000000010000000000000000000000000000000000000000004000000000000000000000000000000000000002000000800000000000000000000000000000080000008000000020000000000000000000000000000000000000000000000000000000000000000000",
      "type": "0x2",
      "transactionHash": "0xd56e4cb69da5853e1ea8d14bc48b55863a1a6f78a523c285321db3f1cc70a107",
      "transactionIndex": "0x44",
      "blockHash": "0x2c5fbec76c37b3d68d543c05e6134cc5643472751dcce44e710bfa2ca35e0f72",
      "blockNumber": "0x725475",
      "gasUsed": "0x13af8",
      "effectiveGasPrice": "0x14e6299c6",
      "from": "0xc77f7fed3b5cc8249adc428c5f44c9063b9734b4",
      "to": "0x270e88f8683660553e8ba4eb2ad7c91a1710d769",
      "contractAddress": null
    }
  ],
  "libraries": [],
  "pending": [],
  "returns": {},
  "timestamp": 1736894341,
  "chain": 11155111,
  "commit": "51a374b"
}