{
  "transactions": [
    {
      "hash": "0xbe2cef3b5cb26a8c63bd86c37c423a9c7315fae056fe3530323a1c35ecc66483",
      "transactionType": "CALL",
      "contractName": null,
      "contractAddress": "0x270e88f8683660553e8ba4eb2ad7c91a1710d769",
      "function": "buy(address)",
      "arguments": [
        "0xC77f7fed3b5Cc8249aDc428c5F44C9063B9734b4"
      ],
      "transaction": {
        "from": "0xc77f7fed3b5cc8249adc428c5f44c9063b9734b4",
        "to": "0x270e88f8683660553e8ba4eb2ad7c91a1710d769",
        "gas": "0x1b30c",
        "value": "0xde0b6b3a7640000",
        "input": "0xf088d547000000000000000000000000c77f7fed3b5cc8249adc428c5f44c9063b9734b4",
        "nonce": "0x8a7",
        "chainId": "0xaa36a7"
      },
      "additionalContracts": [],
      "isFixedGasLimit": false
    }
  ],
  "receipts": [
    {
      "status": "0x1",
      "cumulativeGasUsed": "0xca67cc",
      "logs": [
        {
          "address": "0x270e88f8683660553e8ba4eb2ad7c91a1710d769",
          "topics": [
            "0xddf252ad1be2c89b69c2b068fc378daa952ba7f163c4a11628f55a4df523b3ef",
            "0x0000000000000000000000000000000000000000000000000000000000000000",
            "0x000000000000000000000000c77f7fed3b5cc8249adc428c5f44c9063b9734b4"
          ],
          "data": "0x000000000000000000000000000000000000000000000026510baa33a7dedf40",
          "blockHash": "0x1708a5a3825a2893fe626f8b255aa6bfb381b5f0d343f63f4692c46ffe387e02",
          "blockNumber": "0x725605",
          "transactionHash": "0xbe2cef3b5cb26a8c63bd86c37c423a9c7315fae056fe3530323a1c35ecc66483",
          "transactionIndex": "0x33",
          "logIndex": "0x11d",
          "removed": false
        },
        {
          "address": "0x270e88f8683660553e8ba4eb2ad7c91a1710d769",
          "topics": [
            "0xddf252ad1be2c89b69c2b068fc378daa952ba7f163c4a11628f55a4df523b3ef",
            "0x0000000000000000000000000000000000000000000000000000000000000000",
            "0x000000000000000000000000c77f7fed3b5cc8249adc428c5f44c9063b9734b4"
          ],
          "data": "0x0000000000000000000000000000000000000000000000001dc10ef7b34274cc",
          "blockHash": "0x1708a5a3825a2893fe626f8b255aa6bfb381b5f0d343f63f4692c46ffe387e02",
          "blockNumber": "0x725605",
          "transactionHash": "0xbe2cef3b5cb26a8c63bd86c37c423a9c7315fae056fe3530323a1c35ecc66483",
          "transactionIndex": "0x33",
          "logIndex": "0x11e",
          "removed": false
        },
        {
          "address": "0x270e88f8683660553e8ba4eb2ad7c91a1710d769",
          "topics": [
            "0x4afcb4a87cdbd9974efdb92ee48bc8d7cd0ae4bf217004db3d080cbaee652ca7"
          ],
          "data": "0x000000000000000000000000000000000000000000000000000000006786fa440000000000000000000000000000000000000000000000000004f9fc5eb255da0000000000000000000000000000000000000000000000000de0b6b3a7640000",
          "blockHash": "0x1708a5a3825a2893fe626f8b255aa6bfb381b5f0d343f63f4692c46ffe387e02",
          "blockNumber": "0x725605",
          "transactionHash": "0xbe2cef3b5cb26a8c63bd86c37c423a9c7315fae056fe3530323a1c35ecc66483",
          "transactionIndex": "0x33",
          "logIndex": "0x11f",
          "removed": false
        }
      ],
      "logsBloom": "0x00000000000000000000000000000000000000000000000000000000000000000000000000000000000000000000000020000000000000004000000000000000000000000000000000000008000000000000000000000000000000000000000000000000020000000000000000000800020000000000000000000010000000000000000000010000000000000000000000000000000000000000010000000000000000000000000000000000000000004000000000000000000000000000000000000002000000800000000000000000000000000000080000008000000020000000000000000000000000000000000000000000000000000000000000000000",
      "type": "0x2",
      "transactionHash": "0xbe2cef3b5cb26a8c63bd86c37c423a9c7315fae056fe3530323a1c35ecc66483",
      "transactionIndex": "0x33",
      "blockHash": "0x1708a5a3825a2893fe626f8b255aa6bfb381b5f0d343f63f4692c46ffe387e02",
      "blockNumber": "0x725605",
      "gasUsed": "0x13af8",
      "effectiveGasPrice": "0x8af2c2cb",
      "from": "0xc77f7fed3b5cc8249adc428c5f44c9063b9734b4",
      "to": "0x270e88f8683660553e8ba4eb2ad7c91a1710d769",
      "contractAddress": null
    }
  ],
  "libraries": [],
  "pending": [],
  "returns": {},
  "timestamp": 1736899141,
  "chain": 11155111,
  "commit": "51a374b"
}