{
  "transactions": [
    {
      "hash": "0x71d670141446ddd0189db6364c02f1f7dc63604889669c045965955f62804389",
      "transactionType": "CALL",
      "contractName": null,
      "contractAddress": "0xbf4a322f1496e5c3d34a9bcdb4c60567b38c7de2",
      "function": "sell(uint256)",
      "arguments": [
        "980603847504394489589"
      ],
      "transaction": {
        "from": "0xc77f7fed3b5cc8249adc428c5f44c9063b9734b4",
        "to": "0xbf4a322f1496e5c3d34a9bcdb4c60567b38c7de2",
        "gas": "0x16fea",
        "value": "0x0",
        "input": "0xe4849b32000000000000000000000000000000000000000000000035289cb3d7e8c08ef5",
        "nonce": "0xbeb",
        "chainId": "0xaa36a7"
      },
      "additionalContracts": [],
      "isFixedGasLimit": false
    }
  ],
  "receipts": [
    {
      "status": "0x1",
      "cumulativeGasUsed": "0x963f74",
      "logs": [
        {
          "address": "0xbf4a322f1496e5c3d34a9bcdb4c60567b38c7de2",
          "topics": [
            "0xddf252ad1be2c89b69c2b068fc378daa952ba7f163c4a11628f55a4df523b3ef",
            "0x000000000000000000000000c77f7fed3b5cc8249adc428c5f44c9063b9734b4",
            "0x0000000000000000000000000000000000000000000000000000000000000000"
          ],
          "data": "0x000000000000000000000000000000000000000000000035289cb3d7e8c08ef5",
          "blockHash": "0x76aa4c3939cc4819fd2699f46762424c2c276eff65a3030160f18982e29dcfaa",
          "blockNumber": "0x725c12",
          "transactionHash": "0x71d670141446ddd0189db6364c02f1f7dc63604889669c045965955f62804389",
          "transactionIndex": "0x50",
          "logIndex": "0x84",
          "removed": false
        },
        {
          "address": "0xbf4a322f1496e5c3d34a9bcdb4c60567b38c7de2",
          "topics": [
            "0x4afcb4a87cdbd9974efdb92ee48bc8d7cd0ae4bf217004db3d080cbaee652ca7"
          ],
          "data": "0x0000000000000000000000000000000000000000000000000000000067874334000000000000000000000000000000000000000000000000000399051d263c670000000000000000000000000000000000000000000000000dc7e3e378647db3",
          "blockHash": "0x76aa4c3939cc4819fd2699f46762424c2c276eff65a3030160f18982e29dcfaa",
          "blockNumber": "0x725c12",
          "transactionHash": "0x71d670141446ddd0189db6364c02f1f7dc63604889669c045965955f62804389",
          "transactionIndex": "0x50",
          "logIndex": "0x85",
          "removed": false
        }
      ],
      "logsBloom": "0x00000000000000000000000000000000000000000000000000000000000000000000000000000000000000000000000000000000000000004000000000000000000000000000000000000008000000000000001000000000000000000000000000000000020000000000000000000800020000000000000000000010000000000000000000000000000000000000000000000000000008000000010000000000000000000000000000000000000000004000000000000000000000000000000000000002000000800000000000001000000000000000080000000000000020000000000000000000000000000000000000000000000000000000000000000000",
      "type": "0x2",
      "transactionHash": "0x71d670141446ddd0189db6364c02f1f7dc63604889669c045965955f62804389",
      "transactionIndex": "0x50",
      "blockHash": "0x76aa4c3939cc4819fd2699f46762424c2c276eff65a3030160f18982e29dcfaa",
      "blockNumber": "0x725c12",
      "gasUsed": "0xfb91",
      "effectiveGasPrice": "0xd257e3f0",
      "from": "0xc77f7fed3b5cc8249adc428c5f44c9063b9734b4",
      "to": "0xbf4a322f1496e5c3d34a9bcdb4c60567b38c7de2",
      "contractAddress": null
    }
  ],
  "libraries": [],
  "pending": [],
  "returns": {},
  "timestamp": 1736917813,
  "chain": 11155111,
  "commit": "51a374b"
}