{
  "transactions": [
    {
      "hash": "0x8b3cd0747a33c6cc8202324b3c9ae899e9e03593484ea3fb4135c8f392810817",
      "transactionType": "CALL",
      "contractName": null,
      "contractAddress": "0x270e88f8683660553e8ba4eb2ad7c91a1710d769",
      "function": "buy(address)",
      "arguments": [
        "0xC77f7fed3b5Cc8249aDc428c5F44C9063B9734b4"
      ],
      "transaction": {
        "from": "0xc77f7fed3b5cc8249adc428c5f44c9063b9734b4",
        "to": "0x270e88f8683660553e8ba4eb2ad7c91a1710d769",
        "gas": "0x1b30c",
        "value": "0xde0b6b3a7640000",
        "input": "0xf088d547000000000000000000000000c77f7fed3b5cc8249adc428c5f44c9063b9734b4",
        "nonce": "0x654",
        "chainId": "0xaa36a7"
      },
      "additionalContracts": [],
      "isFixedGasLimit": false
    }
  ],
  "receipts": [
    {
      "status": "0x1",
      "cumulativeGasUsed": "0x15123bc",
      "logs": [
        {
          "address": "0x270e88f8683660553e8ba4eb2ad7c91a1710d769",
          "topics": [
            "0xddf252ad1be2c89b69c2b068fc378daa952ba7f163c4a11628f55a4df523b3ef",
            "0x0000000000000000000000000000000000000000000000000000000000000000",
            "0x000000000000000000000000c77f7fed3b5cc8249adc428c5f44c9063b9734b4"
          ],
          "data": "0x00000000000000000000000000000000000000000000002c92326675bc089038",
          "blockHash": "0x8c7e6f08ec20390890d28a4cc9cf44d886327432159db6ee35f32d69025cf317",
          "blockNumber": "0x72533f",
          "transactionHash": "0x8b3cd0747a33c6cc8202324b3c9ae899e9e03593484ea3fb4135c8f392810817",
          "transactionIndex": "0x5e",
          "logIndex": "0x9e",
          "removed": false
        },
        {
          "address": "0x270e88f8683660553e8ba4eb2ad7c91a1710d769",
          "topics": [
            "0xddf252ad1be2c89b69c2b068fc378daa952ba7f163c4a11628f55a4df523b3ef",
            "0x0000000000000000000000000000000000000000000000000000000000000000",
            "0x000000000000000000000000c77f7fed3b5cc8249adc428c5f44c9063b9734b4"
          ],
          "data": "0x000000000000000000000000000000000000000000000000229c683607fa7f3e",
          "blockHash": "0x8c7e6f08ec20390890d28a4cc9cf44d886327432159db6ee35f32d69025cf317",
          "blockNumber": "0x72533f",
          "transactionHash": "0x8b3cd0747a33c6cc8202324b3c9ae899e9e03593484ea3fb4135c8f392810817",
          "transactionIndex": "0x5e",
          "logIndex": "0x9f",
          "removed": false
        },
        {
          "address": "0x270e88f8683660553e8ba4eb2ad7c91a1710d769",
          "topics": [
            "0x4afcb4a87cdbd9974efdb92ee48bc8d7cd0ae4bf217004db3d080cbaee652ca7"
          ],
          "data": "0x000000000000000000000000000000000000000000000000000000006786d8fc00000000000000000000000000000000000000000000000000044721136ea0530000000000000000000000000000000000000000000000000de0b6b3a7640000",
          "blockHash": "0x8c7e6f08ec20390890d28a4cc9cf44d886327432159db6ee35f32d69025cf317",
          "blockNumber": "0x72533f",
          "transactionHash": "0x8b3cd0747a33c6cc8202324b3c9ae899e9e03593484ea3fb4135c8f392810817",
          "transactionIndex": "0x5e",
          "logIndex": "0xa0",
          "removed": false
        }
      ],
      "logsBloom": "0x00000000000000000000000000000000000000000000000000000000000000000000000000000000000000000000000020000000000000004000000000000000000000000000000000000008000000000000000000000000000000000000000000000000020000000000000000000800020000000000000000000010000000000000000000010000000000000000000000000000000000000000010000000000000000000000000000000000000000004000000000000000000000000000000000000002000000800000000000000000000000000000080000008000000020000000000000000000000000000000000000000000000000000000000000000000",
      "type": "0x2",
      "transactionHash": "0x8b3cd0747a33c6cc8202324b3c9ae899e9e03593484ea3fb4135c8f392810817",
      "transactionIndex": "0x5e",
      "blockHash": "0x8c7e6f08ec20390890d28a4cc9cf44d886327432159db6ee35f32d69025cf317",
      "blockNumber": "0x72533f",
      "gasUsed": "0x13af8",
      "effectiveGasPrice": "0x199be8a65",
      "from": "0xc77f7fed3b5cc8249adc428c5f44c9063b9734b4",
      "to": "0x270e88f8683660553e8ba4eb2ad7c91a1710d769",
      "contractAddress": null
    }
  ],
  "libraries": [],
  "pending": [],
  "returns": {},
  "timestamp": 1736890622,
  "chain": 11155111,
  "commit": "51a374b"
}