{
  "transactions": [
    {
      "hash": "0x32c5c11c230112e0323a19468dd953e7fa8ba93323d84a5ab92f29daa657d260",
      "transactionType": "CALL",
      "contractName": null,
      "contractAddress": "0x8aafd3ede9adb0ff97c7aebce82a919afb1c8764",
      "function": "sell(uint256)",
      "arguments": [
        "302511484685498186107"
      ],
      "transaction": {
        "from": "0xc77f7fed3b5cc8249adc428c5f44c9063b9734b4",
        "to": "0x8aafd3ede9adb0ff97c7aebce82a919afb1c8764",
        "gas": "0x17270",
        "value": "0x0",
        "input": "0xe4849b320000000000000000000000000000000000000000000000106630b08c0323f97b",
        "nonce": "0x132b",
        "chainId": "0xaa36a7"
      },
      "additionalContracts": [],
      "isFixedGasLimit": false
    }
  ],
  "receipts": [
    {
      "status": "0x1",
      "cumulativeGasUsed": "0xae02ec",
      "logs": [
        {
          "address": "0x8aafd3ede9adb0ff97c7aebce82a919afb1c8764",
          "topics": [
            "0xddf252ad1be2c89b69c2b068fc378daa952ba7f163c4a11628f55a4df523b3ef",
            "0x000000000000000000000000c77f7fed3b5cc8249adc428c5f44c9063b9734b4",
            "0x0000000000000000000000000000000000000000000000000000000000000000"
          ],
          "data": "0x000000000000000000000000000000000000000000000010449acbce79e63f2b",
          "blockHash": "0x674aeefa880f8905816575f59f0deb62747854628fb5306ff8a6fe130d950b99",
          "blockNumber": "0x731a3d",
          "transactionHash": "0x32c5c11c230112e0323a19468dd953e7fa8ba93323d84a5ab92f29daa657d260",
          "transactionIndex": "0x87",
          "logIndex": "0xbf",
          "removed": false
        },
        {
          "address": "0x8aafd3ede9adb0ff97c7aebce82a919afb1c8764",
          "topics": [
            "0xddf252ad1be2c89b69c2b068fc378daa952ba7f163c4a11628f55a4df523b3ef",
            "0x000000000000000000000000c77f7fed3b5cc8249adc428c5f44c9063b9734b4",
            "0x000000000000000000000000c77f7fed3b5cc8249adc428c5f44c9063b9734b4"
          ],
          "data": "0x0000000000000000000000000000000000000000000000002195e4bd893dba50",
          "blockHash": "0x674aeefa880f8905816575f59f0deb62747854628fb5306ff8a6fe130d950b99",
          "blockNumber": "0x731a3d",
          "transactionHash": "0x32c5c11c230112e0323a19468dd953e7fa8ba93323d84a5ab92f29daa657d260",
          "transactionIndex": "0x87",
          "logIndex": "0xc0",
          "removed": false
        },
        {
          "address": "0x8aafd3ede9adb0ff97c7aebce82a919afb1c8764",
          "topics": [
            "0x4afcb4a87cdbd9974efdb92ee48bc8d7cd0ae4bf217004db3d080cbaee652ca7"
          ],
          "data": "0x00000000000000000000000000000000000000000000000000000000679037ac000000000000000000000000000000000000000000000000000bc33e7348656e0000000000000000000000000000000000000000000000000dcedb477644288f",
          "blockHash": "0x674aeefa880f8905816575f59f0deb62747854628fb5306ff8a6fe130d950b99",
          "blockNumber": "0x731a3d",
          "transactionHash": "0x32c5c11c230112e0323a19468dd953e7fa8ba93323d84a5ab92f29daa657d260",
          "transactionIndex": "0x87",
          "logIndex": "0xc1",
          "removed": false
        }
      ],
      "logsBloom": "0x00000000000000000000000000000000000000000600000000000000000000000000000000000000000000000000000000000000000000004000000000000000000000000000004000000008000000000000000000000000000000000000000000000000020000000000000000000800020000000000000000000010000000000000000000000000000000000000000000000000000000000000010000000000000000000000000000000000000000004000000000000000000000000000000000000002000000800000000000000000000000000000080000000000000020000000000000000000000000000000000000000000000000000000000000000000",
      "type": "0x2",
      "transactionHash": "0x32c5c11c230112e0323a19468dd953e7fa8ba93323d84a5ab92f29daa657d260",
      "transactionIndex": "0x87",
      "blockHash": "0x674aeefa880f8905816575f59f0deb62747854628fb5306ff8a6fe130d950b99",
      "blockNumber": "0x731a3d",
      "gasUsed": "0xfd4b",
      "effectiveGasPrice": "0x44ef95c7",
      "from": "0xc77f7fed3b5cc8249adc428c5f44c9063b9734b4",
      "to": "0x8aafd3ede9adb0ff97c7aebce82a919afb1c8764",
      "contractAddress": null
    }
  ],
  "libraries": [],
  "pending": [],
  "returns": {},
  "timestamp": 1737504686,
  "chain": 11155111,
  "commit": "1d2fb70"
}