{
  "transactions": [
    {
      "hash": "0x279e1502e5e9b93f0f6d86bc323f88be9b293efb7534e489936ba7d8fb5887b1",
      "transactionType": "CALL",
      "contractName": null,
      "contractAddress": "0x8aafd3ede9adb0ff97c7aebce82a919afb1c8764",
      "function": "sell(uint256)",
      "arguments": [
        "96787998384823"
      ],
      "transaction": {
        "from": "0xc77f7fed3b5cc8249adc428c5f44c9063b9734b4",
        "to": "0x8aafd3ede9adb0ff97c7aebce82a919afb1c8764",
        "gas": "0x15daa",
        "value": "0x0",
        "input": "0xe4849b3200000000000000000000000000000000000000000000000000005807364322b7",
        "nonce": "0x1592",
        "chainId": "0xaa36a7"
      },
      "additionalContracts": [],
      "isFixedGasLimit": false
    }
  ],
  "receipts": [
    {
      "status": "0x1",
      "cumulativeGasUsed": "0xe420e9",
      "logs": [
        {
          "address": "0x8aafd3ede9adb0ff97c7aebce82a919afb1c8764",
          "topics": [
            "0xddf252ad1be2c89b69c2b068fc378daa952ba7f163c4a11628f55a4df523b3ef",
            "0x000000000000000000000000c77f7fed3b5cc8249adc428c5f44c9063b9734b4",
            "0x0000000000000000000000000000000000000000000000000000000000000000"
          ],
          "data": "0x00000000000000000000000000000000000000000000000000005752ee25ed31",
          "blockHash": "0x14858adfdb5daf4499a440fc3908ae297d396da85c6e523b79e748be64ec525a",
          "blockNumber": "0x731d01",
          "transactionHash": "0x279e1502e5e9b93f0f6d86bc323f88be9b293efb7534e489936ba7d8fb5887b1",
          "transactionIndex": "0x6a",
          "logIndex": "0xeb",
          "removed": false
        },
        {
          "address": "0x8aafd3ede9adb0ff97c7aebce82a919afb1c8764",
          "topics": [
            "0xddf252ad1be2c89b69c2b068fc378daa952ba7f163c4a11628f55a4df523b3ef",
            "0x000000000000000000000000c77f7fed3b5cc8249adc428c5f44c9063b9734b4",
            "0x000000000000000000000000c77f7fed3b5cc8249adc428c5f44c9063b9734b4"
          ],
          "data": "0x000000000000000000000000000000000000000000000000000000b4481d3586",
          "blockHash": "0x14858adfdb5daf4499a440fc3908ae297d396da85c6e523b79e748be64ec525a",
          "blockNumber": "0x731d01",
          "transactionHash": "0x279e1502e5e9b93f0f6d86bc323f88be9b293efb7534e489936ba7d8fb5887b1",
          "transactionIndex": "0x6a",
          "logIndex": "0xec",
          "removed": false
        },
        {
          "address": "0x8aafd3ede9adb0ff97c7aebce82a919afb1c8764",
          "topics": [
            "0x4afcb4a87cdbd9974efdb92ee48bc8d7cd0ae4bf217004db3d080cbaee652ca7"
          ],
          "data": "0x00000000000000000000000000000000000000000000000000000000679058f40000000000000000000000000000000000000000000000000012c4280db9cc6d00000000000000000000000000000000000000000000000000000077093c8647",
          "blockHash": "0x14858adfdb5daf4499a440fc3908ae297d396da85c6e523b79e748be64ec525a",
          "blockNumber": "0x731d01",
          "transactionHash": "0x279e1502e5e9b93f0f6d86bc323f88be9b293efb7534e489936ba7d8fb5887b1",
          "transactionIndex": "0x6a",
          "logIndex": "0xed",
          "removed": false
        }
      ],
      "logsBloom": "0x00000000000000000000000000000000000000000600000000000000000000000000000000000000000000000000000000000000000000004000000000000000000000000000004000000008000000000000000000000000000000000000000000000000020000000000000000000800020000000000000000000010000000000000000000000000000000000000000000000000000000000000010000000000000000000000000000000000000000004000000000000000000000000000000000000002000000800000000000000000000000000000080000000000000020000000000000000000000000000000000000000000000000000000000000000000",
      "type": "0x2",
      "transactionHash": "0x279e1502e5e9b93f0f6d86bc323f88be9b293efb7534e489936ba7d8fb5887b1",
      "transactionIndex": "0x6a",
      "blockHash": "0x14858adfdb5daf4499a440fc3908ae297d396da85c6e523b79e748be64ec525a",
      "blockNumber": "0x731d01",
      "gasUsed": "0xfd27",
      "effectiveGasPrice": "0x72b2b143",
      "from": "0xc77f7fed3b5cc8249adc428c5f44c9063b9734b4",
      "to": "0x8aafd3ede9adb0ff97c7aebce82a919afb1c8764",
      "contractAddress": null
    }
  ],
  "libraries": [],
  "pending": [],
  "returns": {},
  "timestamp": 1737513205,
  "chain": 11155111,
  "commit": "1d2fb70"
}