{
  "transactions": [
    {
      "hash": "0xa208d55a24d9502b8303948f997e6704ad251d914b0e4cd0e971d18db716efa1",
      "transactionType": "CALL",
      "contractName": null,
      "contractAddress": "0x8aafd3ede9adb0ff97c7aebce82a919afb1c8764",
      "function": "sell(uint256)",
      "arguments": [
        "212718204040146152814"
      ],
      "transaction": {
        "from": "0xc77f7fed3b5cc8249adc428c5f44c9063b9734b4",
        "to": "0x8aafd3ede9adb0ff97c7aebce82a919afb1c8764",
        "gas": "0x17270",
        "value": "0x0",
        "input": "0xe4849b3200000000000000000000000000000000000000000000000b880edf8b8ff96d6e",
        "nonce": "0x14db",
        "chainId": "0xaa36a7"
      },
      "additionalContracts": [],
      "isFixedGasLimit": false
    }
  ],
  "receipts": [
    {
      "status": "0x1",
      "cumulativeGasUsed": "0xf8d03b",
      "logs": [
        {
          "address": "0x8aafd3ede9adb0ff97c7aebce82a919afb1c8764",
          "topics": [
            "0xddf252ad1be2c89b69c2b068fc378daa952ba7f163c4a11628f55a4df523b3ef",
            "0x000000000000000000000000c77f7fed3b5cc8249adc428c5f44c9063b9734b4",
            "0x0000000000000000000000000000000000000000000000000000000000000000"
          ],
          "data": "0x00000000000000000000000000000000000000000000000b70710ee8a7660628",
          "blockHash": "0x38a56ab1ab081fc2dd559ffede463cb4433f2ce4ff02b75785d04dd08e9655d9",
          "blockNumber": "0x731c39",
          "transactionHash": "0xa208d55a24d9502b8303948f997e6704ad251d914b0e4cd0e971d18db716efa1",
          "transactionIndex": "0x82",
          "logIndex": "0xb5",
          "removed": false
        },
        {
          "address": "0x8aafd3ede9adb0ff97c7aebce82a919afb1c8764",
          "topics": [
            "0xddf252ad1be2c89b69c2b068fc378daa952ba7f163c4a11628f55a4df523b3ef",
            "0x000000000000000000000000c77f7fed3b5cc8249adc428c5f44c9063b9734b4",
            "0x000000000000000000000000c77f7fed3b5cc8249adc428c5f44c9063b9734b4"
          ],
          "data": "0x000000000000000000000000000000000000000000000000179dd0a2e8936746",
          "blockHash": "0x38a56ab1ab081fc2dd559ffede463cb4433f2ce4ff02b75785d04dd08e9655d9",
          "blockNumber": "0x731c39",
          "transactionHash": "0xa208d55a24d9502b8303948f997e6704ad251d914b0e4cd0e971d18db716efa1",
          "transactionIndex": "0x82",
          "logIndex": "0xb6",
          "removed": false
        },
        {
          "address": "0x8aafd3ede9adb0ff97c7aebce82a919afb1c8764",
          "topics": [
            "0x4afcb4a87cdbd9974efdb92ee48bc8d7cd0ae4bf217004db3d080cbaee652ca7"
          ],
          "data": "0x0000000000000000000000000000000000000000000000000000000067904f880000000000000000000000000000000000000000000000000010b004c3e304cf0000000000000000000000000000000000000000000000000dcd3a3f5c7f0ebf",
          "blockHash": "0x38a56ab1ab081fc2dd559ffede463cb4433f2ce4ff02b75785d04dd08e9655d9",
          "blockNumber": "0x731c39",
          "transactionHash": "0xa208d55a24d9502b8303948f997e6704ad251d914b0e4cd0e971d18db716efa1",
          "transactionIndex": "0x82",
          "logIndex": "0xb7",
          "removed": false
        }
      ],
      "logsBloom": "0x00000000000000000000000000000000000000000600000000000000000000000000000000000000000000000000000000000000000000004000000000000000000000000000004000000008000000000000000000000000000000000000000000000000020000000000000000000800020000000000000000000010000000000000000000000000000000000000000000000000000000000000010000000000000000000000000000000000000000004000000000000000000000000000000000000002000000800000000000000000000000000000080000000000000020000000000000000000000000000000000000000000000000000000000000000000",
      "type": "0x2",
      "transactionHash": "0xa208d55a24d9502b8303948f997e6704ad251d914b0e4cd0e971d18db716efa1",
      "transactionIndex": "0x82",
      "blockHash": "0x38a56ab1ab081fc2dd559ffede463cb4433f2ce4ff02b75785d04dd08e9655d9",
      "blockNumber": "0x731c39",
      "gasUsed": "0xfd4b",
      "effectiveGasPrice": "0x147520f06",
      "from": "0xc77f7fed3b5cc8249adc428c5f44c9063b9734b4",
      "to": "0x8aafd3ede9adb0ff97c7aebce82a919afb1c8764",
      "contractAddress": null
    }
  ],
  "libraries": [],
  "pending": [],
  "returns": {},
  "timestamp": 1737510793,
  "chain": 11155111,
  "commit": "1d2fb70"
}