{
  "transactions": [
    {
      "hash": "0xb483f6c5cb665b8216e6ce0d966e9280daaf07d8e54ad925af1c4864dcccfdfa",
      "transactionType": "CALL",
      "contractName": null,
      "contractAddress": "0x8aafd3ede9adb0ff97c7aebce82a919afb1c8764",
      "function": "sell(uint256)",
      "arguments": [
        "9445997641031313"
      ],
      "transaction": {
        "from": "0xc77f7fed3b5cc8249adc428c5f44c9063b9734b4",
        "to": "0x8aafd3ede9adb0ff97c7aebce82a919afb1c8764",
        "gas": "0x1724d",
        "value": "0x0",
        "input": "0xe4849b3200000000000000000000000000000000000000000000000000218f15b5f15e91",
        "nonce": "0x1753",
        "chainId": "0xaa36a7"
      },
      "additionalContracts": [],
      "isFixedGasLimit": false
    }
  ],
  "receipts": [
    {
      "status": "0x1",
      "cumulativeGasUsed": "0xdb6b68",
      "logs": [
        {
          "address": "0x8aafd3ede9adb0ff97c7aebce82a919afb1c8764",
          "topics": [
            "0xddf252ad1be2c89b69c2b068fc378daa952ba7f163c4a11628f55a4df523b3ef",
            "0x000000000000000000000000c77f7fed3b5cc8249adc428c5f44c9063b9734b4",
            "0x0000000000000000000000000000000000000000000000000000000000000000"
          ],
          "data": "0x00000000000000000000000000000000000000000000000000214a5b2b457457",
          "blockHash": "0x05f2ed893bbf8f1310e87405fd2f775a71cc9b93ac0231cabaada406d4dc0cf5",
          "blockNumber": "0x731f22",
          "transactionHash": "0xb483f6c5cb665b8216e6ce0d966e9280daaf07d8e54ad925af1c4864dcccfdfa",
          "transactionIndex": "0x72",
          "logIndex": "0xee",
          "removed": false
        },
        {
          "address": "0x8aafd3ede9adb0ff97c7aebce82a919afb1c8764",
          "topics": [
            "0xddf252ad1be2c89b69c2b068fc378daa952ba7f163c4a11628f55a4df523b3ef",
            "0x000000000000000000000000c77f7fed3b5cc8249adc428c5f44c9063b9734b4",
            "0x000000000000000000000000c77f7fed3b5cc8249adc428c5f44c9063b9734b4"
          ],
          "data": "0x000000000000000000000000000000000000000000000000000044ba8aabea3a",
          "blockHash": "0x05f2ed893bbf8f1310e87405fd2f775a71cc9b93ac0231cabaada406d4dc0cf5",
          "blockNumber": "0x731f22",
          "transactionHash": "0xb483f6c5cb665b8216e6ce0d966e9280daaf07d8e54ad925af1c4864dcccfdfa",
          "transactionIndex": "0x72",
          "logIndex": "0xef",
          "removed": false
        },
        {
          "address": "0x8aafd3ede9adb0ff97c7aebce82a919afb1c8764",
          "topics": [
            "0x4afcb4a87cdbd9974efdb92ee48bc8d7cd0ae4bf217004db3d080cbaee652ca7"
          ],
          "data": "0x0000000000000000000000000000000000000000000000000000000067907280000000000000000000000000000000000000000000000000001802025859b8cc00000000000000000000000000000000000000000000000000003a0e2002d6cc",
          "blockHash": "0x05f2ed893bbf8f1310e87405fd2f775a71cc9b93ac0231cabaada406d4dc0cf5",
          "blockNumber": "0x731f22",
          "transactionHash": "0xb483f6c5cb665b8216e6ce0d966e9280daaf07d8e54ad925af1c4864dcccfdfa",
          "transactionIndex": "0x72",
          "logIndex": "0xf0",
          "removed": false
        }
      ],
      "logsBloom": "0x00000000000000000000000000000000000000000600000000000000000000000000000000000000000000000000000000000000000000004000000000000000000000000000004000000008000000000000000000000000000000000000000000000000020000000000000000000800020000000000000000000010000000000000000000000000000000000000000000000000000000000000010000000000000000000000000000000000000000004000000000000000000000000000000000000002000000800000000000000000000000000000080000000000000020000000000000000000000000000000000000000000000000000000000000000000",
      "type": "0x2",
      "transactionHash": "0xb483f6c5cb665b8216e6ce0d966e9280daaf07d8e54ad925af1c4864dcccfdfa",
      "transactionIndex": "0x72",
      "blockHash": "0x05f2ed893bbf8f1310e87405fd2f775a71cc9b93ac0231cabaada406d4dc0cf5",
      "blockNumber": "0x731f22",
      "gasUsed": "0xfd33",
      "effectiveGasPrice": "0x480d64ef",
      "from": "0xc77f7fed3b5cc8249adc428c5f44c9063b9734b4",
      "to": "0x8aafd3ede9adb0ff97c7aebce82a919afb1c8764",
      "contractAddress": null
    }
  ],
  "libraries": [],
  "pending": [],
  "returns": {},
  "timestamp": 1737519745,
  "chain": 11155111,
  "commit": "1d2fb70"
}