{
  "transactions": [
    {
      "hash": "0x9c54f08e9d9b4a89aa9f72e7eb070222fb3f298cfcb2d7fc253c63057873b691",
      "transactionType": "CALL",
      "contractName": null,
      "contractAddress": "0x270e88f8683660553e8ba4eb2ad7c91a1710d769",
      "function": "buy(address)",
      "arguments": [
        "0xC77f7fed3b5Cc8249aDc428c5F44C9063B9734b4"
      ],
      "transaction": {
        "from": "0xc77f7fed3b5cc8249adc428c5f44c9063b9734b4",
        "to": "0x270e88f8683660553e8ba4eb2ad7c91a1710d769",
        "gas": "0x1b30c",
        "value": "0xde0b6b3a7640000",
        "input": "0xf088d547000000000000000000000000c77f7fed3b5cc8249adc428c5f44c9063b9734b4",
        "nonce": "0x5e8",
        "chainId": "0xaa36a7"
      },
      "additionalContracts": [],
      "isFixedGasLimit": false
    }
  ],
  "receipts": [
    {
      "status": "0x1",
      "cumulativeGasUsed": "0xbb9969",
      "logs": [
        {
          "address": "0x270e88f8683660553e8ba4eb2ad7c91a1710d769",
          "topics": [
            "0xddf252ad1be2c89b69c2b068fc378daa952ba7f163c4a11628f55a4df523b3ef",
            "0x0000000000000000000000000000000000000000000000000000000000000000",
            "0x000000000000000000000000c77f7fed3b5cc8249adc428c5f44c9063b9734b4"
          ],
          "data": "0x000000000000000000000000000000000000000000000033630c372076790a48",
          "blockHash": "0xbb4b635e4b23f37a89fd118d0be0105cfb65a13ac41c3ad75567d26a771a2af7",
          "blockNumber": "0x7252ad",
          "transactionHash": "0x9c54f08e9d9b4a89aa9f72e7eb070222fb3f298cfcb2d7fc253c63057873b691",
          "transactionIndex": "0x6d",
          "logIndex": "0xdc",
          "removed": false
        },
        {
          "address": "0x270e88f8683660553e8ba4eb2ad7c91a1710d769",
          "topics": [
            "0xddf252ad1be2c89b69c2b068fc378daa952ba7f163c4a11628f55a4df523b3ef",
            "0x0000000000000000000000000000000000000000000000000000000000000000",
            "0x000000000000000000000000c77f7fed3b5cc8249adc428c5f44c9063b9734b4"
          ],
          "data": "0x00000000000000000000000000000000000000000000000027e757e0726aacb7",
          "blockHash": "0xbb4b635e4b23f37a89fd118d0be0105cfb65a13ac41c3ad75567d26a771a2af7",
          "blockNumber": "0x7252ad",
          "transactionHash": "0x9c54f08e9d9b4a89aa9f72e7eb070222fb3f298cfcb2d7fc253c63057873b691",
          "transactionIndex": "0x6d",
          "logIndex": "0xdd",
          "removed": false
        },
        {
          "address": "0x270e88f8683660553e8ba4eb2ad7c91a1710d769",
          "topics": [
            "0x4afcb4a87cdbd9974efdb92ee48bc8d7cd0ae4bf217004db3d080cbaee652ca7"
          ],
          "data": "0x000000000000000000000000000000000000000000000000000000006786d2240000000000000000000000000000000000000000000000000003b5f8e51f3e500000000000000000000000000000000000000000000000000de0b6b3a7640000",
          "blockHash": "0xbb4b635e4b23f37a89fd118d0be0105cfb65a13ac41c3ad75567d26a771a2af7",
          "blockNumber": "0x7252ad",
          "transactionHash": "0x9c54f08e9d9b4a89aa9f72e7eb070222fb3f298cfcb2d7fc253c63057873b691",
          "transactionIndex": "0x6d",
          "logIndex": "0xde",
          "removed": false
        }
      ],
      "logsBloom": "0x00000000000000000000000000000000000000000000000000000000000000000000000000000000000000000000000020000000000000004000000000000000000000000000000000000008000000000000000000000000000000000000000000000000020000000000000000000800020000000000000000000010000000000000000000010000000000000000000000000000000000000000010000000000000000000000000000000000000000004000000000000000000000000000000000000002000000800000000000000000000000000000080000008000000020000000000000000000000000000000000000000000000000000000000000000000",
      "type": "0x2",
      "transactionHash": "0x9c54f08e9d9b4a89aa9f72e7eb070222fb3f298cfcb2d7fc253c63057873b691",
      "transactionIndex": "0x6d",
      "blockHash": "0xbb4b635e4b23f37a89fd118d0be0105cfb65a13ac41c3ad75567d26a771a2af7",
      "blockNumber": "0x7252ad",
      "gasUsed": "0x13af8",
      "effectiveGasPrice": "0x327eec0b7",
      "from": "0xc77f7fed3b5cc8249adc428c5f44c9063b9734b4",
      "to": "0x270e88f8683660553e8ba4eb2ad7c91a1710d769",
      "contractAddress": null
    }
  ],
  "libraries": [],
  "pending": [],
  "returns": {},
  "timestamp": 1736888869,
  "chain": 11155111,
  "commit": "51a374b"
}