{
  "transactions": [
    {
      "hash": "0x78fae527cd5db5963eeb559012bfa708a1aeea35350faa2d0f74f75a4a4eb1bb",
      "transactionType": "CALL",
      "contractName": null,
      "contractAddress": "0xbf4a322f1496e5c3d34a9bcdb4c60567b38c7de2",
      "function": "sell(uint256)",
      "arguments": [
        "976960904481963856576"
      ],
      "transaction": {
        "from": "0xc77f7fed3b5cc8249adc428c5f44c9063b9734b4",
        "to": "0xbf4a322f1496e5c3d34a9bcdb4c60567b38c7de2",
        "gas": "0x16fea",
        "value": "0x0",
        "input": "0xe4849b32000000000000000000000000000000000000000000000034f60e5e7733c952c0",
        "nonce": "0xcfb",
        "chainId": "0xaa36a7"
      },
      "additionalContracts": [],
      "isFixedGasLimit": false
    }
  ],
  "receipts": [
    {
      "status": "0x1",
      "cumulativeGasUsed": "0x1cc8218",
      "logs": [
        {
          "address": "0xbf4a322f1496e5c3d34a9bcdb4c60567b38c7de2",
          "topics": [
            "0xddf252ad1be2c89b69c2b068fc378daa952ba7f163c4a11628f55a4df523b3ef",
            "0x000000000000000000000000c77f7fed3b5cc8249adc428c5f44c9063b9734b4",
            "0x0000000000000000000000000000000000000000000000000000000000000000"
          ],
          "data": "0x000000000000000000000000000000000000000000000034f60e5e7733c952c0",
          "blockHash": "0x14128c098821fdfe9644a1c857d2baeac824fbc0188abc6027988a1e52e7be73",
          "blockNumber": "0x725d50",
          "transactionHash": "0x78fae527cd5db5963eeb559012bfa708a1aeea35350faa2d0f74f75a4a4eb1bb",
          "transactionIndex": "0xc3",
          "logIndex": "0x13b",
          "removed": false
        },
        {
          "address": "0xbf4a322f1496e5c3d34a9bcdb4c60567b38c7de2",
          "topics": [
            "0x4afcb4a87cdbd9974efdb92ee48bc8d7cd0ae4bf217004db3d080cbaee652ca7"
          ],
          "data": "0x000000000000000000000000000000000000000000000000000000006787523400000000000000000000000000000000000000000000000000039c7448620c340000000000000000000000000000000000000000000000000dc7e3db00135fc6",
          "blockHash": "0x14128c098821fdfe9644a1c857d2baeac824fbc0188abc6027988a1e52e7be73",
          "blockNumber": "0x725d50",
          "transactionHash": "0x78fae527cd5db5963eeb559012bfa708a1aeea35350faa2d0f74f75a4a4eb1bb",
          "transactionIndex": "0xc3",
          "logIndex": "0x13c",
          "removed": false
        }
      ],
      "logsBloom": "0x00000000000000000000000000000000000000000000000000000000000000000000000000000000000000000000000000000000000000004000000000000000000000000000000000000008000000000000001000000000000000000000000000000000020000000000000000000800020000000000000000000010000000000000000000000000000000000000000000000000000008000000010000000000000000000000000000000000000000004000000000000000000000000000000000000002000000800000000000001000000000000000080000000000000020000000000000000000000000000000000000000000000000000000000000000000",
      "type": "0x2",
      "transactionHash": "0x78fae527cd5db5963eeb559012bfa708a1aeea35350faa2d0f74f75a4a4eb1bb",
      "transactionIndex": "0xc3",
      "blockHash": "0x14128c098821fdfe9644a1c857d2baeac824fbc0188abc6027988a1e52e7be73",
      "blockNumber": "0x725d50",
      "gasUsed": "0xfb91",
      "effectiveGasPrice": "0x3893c0a5a",
      "from": "0xc77f7fed3b5cc8249adc428c5f44c9063b9734b4",
      "to": "0xbf4a322f1496e5c3d34a9bcdb4c60567b38c7de2",
      "contractAddress": null
    }
  ],
  "libraries": [],
  "pending": [],
  "returns": {},
  "timestamp": 1736921653,
  "chain": 11155111,
  "commit": "51a374b"
}