{
  "transactions": [
    {
      "hash": "0x5dc4f917d14e2ad870d1bbc4a249d6800c7bc783fc031c48f27fcdcefe52fe18",
      "transactionType": "CALL",
      "contractName": null,
      "contractAddress": "0xbf4a322f1496e5c3d34a9bcdb4c60567b38c7de2",
      "function": "sell(uint256)",
      "arguments": [
        "989858548279606224130"
      ],
      "transaction": {
        "from": "0xc77f7fed3b5cc8249adc428c5f44c9063b9734b4",
        "to": "0xbf4a322f1496e5c3d34a9bcdb4c60567b38c7de2",
        "gas": "0x16fea",
        "value": "0x0",
        "input": "0xe4849b32000000000000000000000000000000000000000000000035a90c012a39c7a502",
        "nonce": "0x941",
        "chainId": "0xaa36a7"
      },
      "additionalContracts": [],
      "isFixedGasLimit": false
    }
  ],
  "receipts": [
    {
      "status": "0x1",
      "cumulativeGasUsed": "0x118b8a1",
      "logs": [
        {
          "address": "0xbf4a322f1496e5c3d34a9bcdb4c60567b38c7de2",
          "topics": [
            "0xddf252ad1be2c89b69c2b068fc378daa952ba7f163c4a11628f55a4df523b3ef",
            "0x000000000000000000000000c77f7fed3b5cc8249adc428c5f44c9063b9734b4",
            "0x0000000000000000000000000000000000000000000000000000000000000000"
          ],
          "data": "0x000000000000000000000000000000000000000000000035a90c012a39c7a502",
          "blockHash": "0x8661af9fe01144d1741417e88fbb2182acf2379895966fc82e305278fba81012",
          "blockNumber": "0x7258cc",
          "transactionHash": "0x5dc4f917d14e2ad870d1bbc4a249d6800c7bc783fc031c48f27fcdcefe52fe18",
          "transactionIndex": "0x7a",
          "logIndex": "0x90",
          "removed": false
        },
        {
          "address": "0xbf4a322f1496e5c3d34a9bcdb4c60567b38c7de2",
          "topics": [
            "0x4afcb4a87cdbd9974efdb92ee48bc8d7cd0ae4bf217004db3d080cbaee652ca7"
          ],
          "data": "0x0000000000000000000000000000000000000000000000000000000067871bbc00000000000000000000000000000000000000000000000000039068bc01622a0000000000000000000000000000000000000000000000000dc7e3f8fcc889b3",
          "blockHash": "0x8661af9fe01144d1741417e88fbb2182acf2379895966fc82e305278fba81012",
          "blockNumber": "0x7258cc",
          "transactionHash": "0x5dc4f917d14e2ad870d1bbc4a249d6800c7bc783fc031c48f27fcdcefe52fe18",
          "transactionIndex": "0x7a",
          "logIndex": "0x91",
          "removed": false
        }
      ],
      "logsBloom": "0x00000000000000000000000000000000000000000000000000000000000000000000000000000000000000000000000000000000000000004000000000000000000000000000000000000008000000000000001000000000000000000000000000000000020000000000000000000800020000000000000000000010000000000000000000000000000000000000000000000000000008000000010000000000000000000000000000000000000000004000000000000000000000000000000000000002000000800000000000001000000000000000080000000000000020000000000000000000000000000000000000000000000000000000000000000000",
      "type": "0x2",
      "transactionHash": "0x5dc4f917d14e2ad870d1bbc4a249d6800c7bc783fc031c48f27fcdcefe52fe18",
      "transactionIndex": "0x7a",
      "blockHash": "0x8661af9fe01144d1741417e88fbb2182acf2379895966fc82e305278fba81012",
      "blockNumber": "0x7258cc",
      "gasUsed": "0xfb91",
      "effectiveGasPrice": "0x4db74059",
      "from": "0xc77f7fed3b5cc8249adc428c5f44c9063b9734b4",
      "to": "0xbf4a322f1496e5c3d34a9bcdb4c60567b38c7de2",
      "contractAddress": null
    }
  ],
  "libraries": [],
  "pending": [],
  "returns": {},
  "timestamp": 1736907710,
  "chain": 11155111,
  "commit": "51a374b"
}