{
  "transactions": [
    {
      "hash": "0x427c8d4d9a9f963978037462e71a5c114e638ef38e502ea7b6483a1d6b5c6d6b",
      "transactionType": "CALL",
      "contractName": null,
      "contractAddress": "0x270e88f8683660553e8ba4eb2ad7c91a1710d769",
      "function": "sell(uint256)",
      "arguments": [
        "742962137505137622310"
      ],
      "transaction": {
        "from": "0xc77f7fed3b5cc8249adc428c5f44c9063b9734b4",
        "to": "0x270e88f8683660553e8ba4eb2ad7c91a1710d769",
        "gas": "0x16fec",
        "value": "0x0",
        "input": "0xe4849b3200000000000000000000000000000000000000000000002846abbfadc6a6fd26",
        "nonce": "0x71a",
        "chainId": "0xaa36a7"
      },
      "additionalContracts": [],
      "isFixedGasLimit": false
    }
  ],
  "receipts": [
    {
      "status": "0x1",
      "cumulativeGasUsed": "0x6494ac",
      "logs": [
        {
          "address": "0x270e88f8683660553e8ba4eb2ad7c91a1710d769",
          "topics": [
            "0xddf252ad1be2c89b69c2b068fc378daa952ba7f163c4a11628f55a4df523b3ef",
            "0x000000000000000000000000c77f7fed3b5cc8249adc428c5f44c9063b9734b4",
            "0x0000000000000000000000000000000000000000000000000000000000000000"
          ],
          "data": "0x00000000000000000000000000000000000000000000002846abbfadc6a6fd26",
          "blockHash": "0xdd6ada8e5776045dbc3f6b4b982047f8d0b90eab3f4570ddc022b73e7cccf5ef",
          "blockNumber": "0x725434",
          "transactionHash": "0x427c8d4d9a9f963978037462e71a5c114e638ef38e502ea7b6483a1d6b5c6d6b",
          "transactionIndex": "0x32",
          "logIndex": "0x6e",
          "removed": false
        },
        {
          "address": "0x270e88f8683660553e8ba4eb2ad7c91a1710d769",
          "topics": [
            "0x4afcb4a87cdbd9974efdb92ee48bc8d7cd0ae4bf217004db3d080cbaee652ca7"
          ],
          "data": "0x000000000000000000000000000000000000000000000000000000006786e4780000000000000000000000000000000000000000000000000004bfdfd59f5e0c0000000000000000000000000000000000000000000000000dc828ce7343da42",
          "blockHash": "0xdd6ada8e5776045dbc3f6b4b982047f8d0b90eab3f4570ddc022b73e7cccf5ef",
          "blockNumber": "0x725434",
          "transactionHash": "0x427c8d4d9a9f963978037462e71a5c114e638ef38e502ea7b6483a1d6b5c6d6b",
          "transactionIndex": "0x32",
          "logIndex": "0x6f",
          "removed": false
        }
      ],
      "logsBloom": "0x00000000000000000000000000000000000000000000000000000000000000000000000000000000000000000000000020000000000000004000000000000000000000000000000000000008000000000000000000000000000000000000000000000000020000000000000000000800020000000000000000000010000000000000000000010000000000000000000000000000000000000000010000000000000000000000000000000000000000004000000000000000000000000000000000000002000000800000000000000000000000000000080000008000000020000000000000000000000000000000000000000000000000000000000000000000",
      "type": "0x2",
      "transactionHash": "0x427c8d4d9a9f963978037462e71a5c114e638ef38e502ea7b6483a1d6b5c6d6b",
      "transactionIndex": "0x32",
      "blockHash": "0xdd6ada8e5776045dbc3f6b4b982047f8d0b90eab3f4570ddc022b73e7cccf5ef",
      "blockNumber": "0x725434",
      "gasUsed": "0xfb93",
      "effectiveGasPrice": "0x174682a23",
      "from": "0xc77f7fed3b5cc8249adc428c5f44c9063b9734b4",
      "to": "0x270e88f8683660553e8ba4eb2ad7c91a1710d769",
      "contractAddress": null
    }
  ],
  "libraries": [],
  "pending": [],
  "returns": {},
  "timestamp": 1736893562,
  "chain": 11155111,
  "commit": "51a374b"
}