{
  "transactions": [
    {
      "hash": "0x9ab5f35d909880c8b08f0e103fd3e3afc594d22488c6588c6035087a14146ea6",
      "transactionType": "CALL",
      "contractName": null,
      "contractAddress": "0x8aafd3ede9adb0ff97c7aebce82a919afb1c8764",
      "function": "sell(uint256)",
      "arguments": [
        "7433655653"
      ],
      "transaction": {
        "from": "0xc77f7fed3b5cc8249adc428c5f44c9063b9734b4",
        "to": "0x8aafd3ede9adb0ff97c7aebce82a919afb1c8764",
        "gas": "0x1722a",
        "value": "0x0",
        "input": "0xe4849b3200000000000000000000000000000000000000000000000000000001bb149565",
        "nonce": "0x1486",
        "chainId": "0xaa36a7"
      },
      "additionalContracts": [],
      "isFixedGasLimit": false
    }
  ],
  "receipts": [
    {
      "status": "0x1",
      "cumulativeGasUsed": "0x62dab7",
      "logs": [
        {
          "address": "0x8aafd3ede9adb0ff97c7aebce82a919afb1c8764",
          "topics": [
            "0xddf252ad1be2c89b69c2b068fc378daa952ba7f163c4a11628f55a4df523b3ef",
            "0x000000000000000000000000c77f7fed3b5cc8249adc428c5f44c9063b9734b4",
            "0x0000000000000000000000000000000000000000000000000000000000000000"
          ],
          "data": "0x00000000000000000000000000000000000000000000000000000001b78927a8",
          "blockHash": "0x46ca364f5358e08e1f6f360f275814de67e287be00e3337f5996fbb240182891",
          "blockNumber": "0x731bd5",
          "transactionHash": "0x9ab5f35d909880c8b08f0e103fd3e3afc594d22488c6588c6035087a14146ea6",
          "transactionIndex": "0x41",
          "logIndex": "0x6c",
          "removed": false
        },
        {
          "address": "0x8aafd3ede9adb0ff97c7aebce82a919afb1c8764",
          "topics": [
            "0xddf252ad1be2c89b69c2b068fc378daa952ba7f163c4a11628f55a4df523b3ef",
            "0x000000000000000000000000c77f7fed3b5cc8249adc428c5f44c9063b9734b4",
            "0x000000000000000000000000c77f7fed3b5cc8249adc428c5f44c9063b9734b4"
          ],
          "data": "0x00000000000000000000000000000000000000000000000000000000038b6dbd",
          "blockHash": "0x46ca364f5358e08e1f6f360f275814de67e287be00e3337f5996fbb240182891",
          "blockNumber": "0x731bd5",
          "transactionHash": "0x9ab5f35d909880c8b08f0e103fd3e3afc594d22488c6588c6035087a14146ea6",
          "transactionIndex": "0x41",
          "logIndex": "0x6d",
          "removed": false
        },
        {
          "address": "0x8aafd3ede9adb0ff97c7aebce82a919afb1c8764",
          "topics": [
            "0x4afcb4a87cdbd9974efdb92ee48bc8d7cd0ae4bf217004db3d080cbaee652ca7"
          ],
          "data": "0x0000000000000000000000000000000000000000000000000000000067904ad8000000000000000000000000000000000000000000000000000fa77968ce035c0000000000000000000000000000000000000000000000000000000001f3cbdd",
          "blockHash": "0x46ca364f5358e08e1f6f360f275814de67e287be00e3337f5996fbb240182891",
          "blockNumber": "0x731bd5",
          "transactionHash": "0x9ab5f35d909880c8b08f0e103fd3e3afc594d22488c6588c6035087a14146ea6",
          "transactionIndex": "0x41",
          "logIndex": "0x6e",
          "removed": false
        }
      ],
      "logsBloom": "0x00000000000000000000000000000000000000000600000000000000000000000000000000000000000000000000000000000000000000004000000000000000000000000000004000000008000000000000000000000000000000000000000000000000020000000000000000000800020000000000000000000010000000000000000000000000000000000000000000000000000000000000010000000000000000000000000000000000000000004000000000000000000000000000000000000002000000800000000000000000000000000000080000000000000020000000000000000000000000000000000000000000000000000000000000000000",
      "type": "0x2",
      "transactionHash": "0x9ab5f35d909880c8b08f0e103fd3e3afc594d22488c6588c6035087a14146ea6",
      "transactionIndex": "0x41",
      "blockHash": "0x46ca364f5358e08e1f6f360f275814de67e287be00e3337f5996fbb240182891",
      "blockNumber": "0x731bd5",
      "gasUsed": "0xfd1b",
      "effectiveGasPrice": "0x10915403e",
      "from": "0xc77f7fed3b5cc8249adc428c5f44c9063b9734b4",
      "to": "0x8aafd3ede9adb0ff97c7aebce82a919afb1c8764",
      "contractAddress": null
    }
  ],
  "libraries": [],
  "pending": [],
  "returns": {},
  "timestamp": 1737509593,
  "chain": 11155111,
  "commit": "1d2fb70"
}