{
  "transactions": [
    {
      "hash": "0xbf9f90ebb0f8d2a9fc15add700a36403ded606c9d86b6dfe50efab5cd343622f",
      "transactionType": "CALL",
      "contractName": null,
      "contractAddress": "0x8aafd3ede9adb0ff97c7aebce82a919afb1c8764",
      "function": "sell(uint256)",
      "arguments": [
        "381521"
      ],
      "transaction": {
        "from": "0xc77f7fed3b5cc8249adc428c5f44c9063b9734b4",
        "to": "0x8aafd3ede9adb0ff97c7aebce82a919afb1c8764",
        "gas": "0x16208",
        "value": "0x0",
        "input": "0xe4849b32000000000000000000000000000000000000000000000000000000000005d251",
        "nonce": "0x15d5",
        "chainId": "0xaa36a7"
      },
      "additionalContracts": [],
      "isFixedGasLimit": false
    }
  ],
  "receipts": [
    {
      "status": "0x1",
      "cumulativeGasUsed": "0x119a29f",
      "logs": [
        {
          "address": "0x8aafd3ede9adb0ff97c7aebce82a919afb1c8764",
          "topics": [
            "0xddf252ad1be2c89b69c2b068fc378daa952ba7f163c4a11628f55a4df523b3ef",
            "0x000000000000000000000000c77f7fed3b5cc8249adc428c5f44c9063b9734b4",
            "0x0000000000000000000000000000000000000000000000000000000000000000"
          ],
          "data": "0x000000000000000000000000000000000000000000000000000000000005c665",
          "blockHash": "0x489a66bf7a9ca5cb0ebe8516d786efb72b685127a97f842059fb945c65cf0cd2",
          "blockNumber": "0x731d52",
          "transactionHash": "0xbf9f90ebb0f8d2a9fc15add700a36403ded606c9d86b6dfe50efab5cd343622f",
          "transactionIndex": "0x88",
          "logIndex": "0x117",
          "removed": false
        },
        {
          "address": "0x8aafd3ede9adb0ff97c7aebce82a919afb1c8764",
          "topics": [
            "0xddf252ad1be2c89b69c2b068fc378daa952ba7f163c4a11628f55a4df523b3ef",
            "0x000000000000000000000000c77f7fed3b5cc8249adc428c5f44c9063b9734b4",
            "0x000000000000000000000000c77f7fed3b5cc8249adc428c5f44c9063b9734b4"
          ],
          "data": "0x0000000000000000000000000000000000000000000000000000000000000bec",
          "blockHash": "0x489a66bf7a9ca5cb0ebe8516d786efb72b685127a97f842059fb945c65cf0cd2",
          "blockNumber": "0x731d52",
          "transactionHash": "0xbf9f90ebb0f8d2a9fc15add700a36403ded606c9d86b6dfe50efab5cd343622f",
          "transactionIndex": "0x88",
          "logIndex": "0x118",
          "removed": false
        },
        {
          "address": "0x8aafd3ede9adb0ff97c7aebce82a919afb1c8764",
          "topics": [
            "0x4afcb4a87cdbd9974efdb92ee48bc8d7cd0ae4bf217004db3d080cbaee652ca7"
          ],
          "data": "0x0000000000000000000000000000000000000000000000000000000067905cc000000000000000000000000000000000000000000000000000137f11d47f9989000000000000000000000000000000000000000000000000000000000000082d",
          "blockHash": "0x489a66bf7a9ca5cb0ebe8516d786efb72b685127a97f842059fb945c65cf0cd2",
          "blockNumber": "0x731d52",
          "transactionHash": "0xbf9f90ebb0f8d2a9fc15add700a36403ded606c9d86b6dfe50efab5cd343622f",
          "transactionIndex": "0x88",
          "logIndex": "0x119",
          "removed": false
        }
      ],
      "logsBloom": "0x00000000000000000000000000000000000000000600000000000000000000000000000000000000000000000000000000000000000000004000000000000000000000000000004000000008000000000000000000000000000000000000000000000000020000000000000000000800020000000000000000000010000000000000000000000000000000000000000000000000000000000000010000000000000000000000000000000000000000004000000000000000000000000000000000000002000000800000000000000000000000000000080000000000000020000000000000000000000000000000000000000000000000000000000000000000",
      "type": "0x2",
      "transactionHash": "0xbf9f90ebb0f8d2a9fc15add700a36403ded606c9d86b6dfe50efab5cd343622f",
      "transactionIndex": "0x88",
      "blockHash": "0x489a66bf7a9ca5cb0ebe8516d786efb72b685127a97f842059fb945c65cf0cd2",
      "blockNumber": "0x731d52",
      "gasUsed": "0xf213",
      "effectiveGasPrice": "0x605296de",
      "from": "0xc77f7fed3b5cc8249adc428c5f44c9063b9734b4",
      "to": "0x8aafd3ede9adb0ff97c7aebce82a919afb1c8764",
      "contractAddress": null
    }
  ],
  "libraries": [],
  "pending": [],
  "returns": {},
  "timestamp": 1737514178,
  "chain": 11155111,
  "commit": "1d2fb70"
}