{
  "transactions": [
    {
      "hash": "0x6f65eb0c3da371a0fb8c91f202821c1103a3e04094896e9d7fbddb5a383ae797",
      "transactionType": "CALL",
      "contractName": null,
      "contractAddress": "0x5eb9cc76c3506942c1c0ead70e877dd5e4f00cb0",
      "function": "sell(uint256)",
      "arguments": [
        "989621198253783341226"
      ],
      "transaction": {
        "from": "0xc77f7fed3b5cc8249adc428c5f44c9063b9734b4",
        "to": "0x5eb9cc76c3506942c1c0ead70e877dd5e4f00cb0",
        "gas": "0x16fec",
        "value": "0x0",
        "input": "0xe4849b32000000000000000000000000000000000000000000000035a5c0c492f12d58aa",
        "nonce": "0x227",
        "chainId": "0xaa36a7"
      },
      "additionalContracts": [],
      "isFixedGasLimit": false
    }
  ],
  "receipts": [
    {
      "status": "0x1",
      "cumulativeGasUsed": "0xe49106",
      "logs": [
        {
          "address": "0x5eb9cc76c3506942c1c0ead70e877dd5e4f00cb0",
          "topics": [
            "0xddf252ad1be2c89b69c2b068fc378daa952ba7f163c4a11628f55a4df523b3ef",
            "0x000000000000000000000000c77f7fed3b5cc8249adc428c5f44c9063b9734b4",
            "0x0000000000000000000000000000000000000000000000000000000000000000"
          ],
          "data": "0x000000000000000000000000000000000000000000000035a5c0c492f12d58aa",
          "blockHash": "0x827aa988aab63d9e09964d406bf727127a7261d0b2d30793a92bc4109c39b857",
          "blockNumber": "0x724dd5",
          "transactionHash": "0x6f65eb0c3da371a0fb8c91f202821c1103a3e04094896e9d7fbddb5a383ae797",
          "transactionIndex": "0x74",
          "logIndex": "0x100",
          "removed": false
        },
        {
          "address": "0x5eb9cc76c3506942c1c0ead70e877dd5e4f00cb0",
          "topics": [
            "0x4afcb4a87cdbd9974efdb92ee48bc8d7cd0ae4bf217004db3d080cbaee652ca7"
          ],
          "data": "0x00000000000000000000000000000000000000000000000000000000678697b00000000000000000000000000000000000000000000000000003909a5c1ec9150000000000000000000000000000000000000000000000000dc7db118385229f",
          "blockHash": "0x827aa988aab63d9e09964d406bf727127a7261d0b2d30793a92bc4109c39b857",
          "blockNumber": "0x724dd5",
          "transactionHash": "0x6f65eb0c3da371a0fb8c91f202821c1103a3e04094896e9d7fbddb5a383ae797",
          "transactionIndex": "0x74",
          "logIndex": "0x101",
          "removed": false
        }
      ],
      "logsBloom": "0x00000000000000000000000000000000000000000000000000000000000000000000000000000000000000000000000000000000000000004000000000000000000000000000000000000008000000000000000000000000000000000000000000000000020000000000000004000800020000000000000000000010000000000000000000000000000000000000000000000000000000000000010000000000000000000000000000000000000000004000000000000000000000000000020000000002000000800000008000000000000000000000080000000000000020000000000000000000000000000000000000000000000000000000000000000000",
      "type": "0x2",
      "transactionHash": "0x6f65eb0c3da371a0fb8c91f202821c1103a3e04094896e9d7fbddb5a383ae797",
      "transactionIndex": "0x74",
      "blockHash": "0x827aa988aab63d9e09964d406bf727127a7261d0b2d30793a92bc4109c39b857",
      "blockNumber": "0x724dd5",
      "gasUsed": "0xfb93",
      "effectiveGasPrice": "0x3b6c8b986",
      "from": "0xc77f7fed3b5cc8249adc428c5f44c9063b9734b4",
      "to": "0x5eb9cc76c3506942c1c0ead70e877dd5e4f00cb0",
      "contractAddress": null
    }
  ],
  "libraries": [],
  "pending": [],
  "returns": {},
  "timestamp": 1736873905,
  "chain": 11155111,
  "commit": "51a374b"
}