{
  "transactions": [
    {
      "hash": "0xd72d554b5b7a2aac66c7d39fd26d1caa66ca7ef4a6ef62263da79d881ec1c75e",
      "transactionType": "CALL",
      "contractName": null,
      "contractAddress": "0xbf4a322f1496e5c3d34a9bcdb4c60567b38c7de2",
      "function": "buy(address)",
      "arguments": [
        "0xC77f7fed3b5Cc8249aDc428c5F44C9063B9734b4"
      ],
      "transaction": {
        "from": "0xc77f7fed3b5cc8249adc428c5f44c9063b9734b4",
        "to": "0xbf4a322f1496e5c3d34a9bcdb4c60567b38c7de2",
        "gas": "0x1b309",
        "value": "0xde0b6b3a7640000",
        "input": "0xf088d547000000000000000000000000c77f7fed3b5cc8249adc428c5f44c9063b9734b4",
        "nonce": "0xc08",
        "chainId": "0xaa36a7"
      },
      "additionalContracts": [],
      "isFixedGasLimit": false
    }
  ],
  "receipts": [
    {
      "status": "0x1",
      "cumulativeGasUsed": "0x16ae6b1",
      "logs": [
        {
          "address": "0xbf4a322f1496e5c3d34a9bcdb4c60567b38c7de2",
          "topics": [
            "0xddf252ad1be2c89b69c2b068fc378daa952ba7f163c4a11628f55a4df523b3ef",
            "0x0000000000000000000000000000000000000000000000000000000000000000",
            "0x000000000000000000000000c77f7fed3b5cc8249adc428c5f44c9063b9734b4"
          ],
          "data": "0x000000000000000000000000000000000000000000000034f9e13e8dfce23a8a",
          "blockHash": "0x10d3337f79b0e159e6bf488b66c180eb7f3d62de939c955ae35f6b429aa41d35",
          "blockNumber": "0x725c33",
          "transactionHash": "0xd72d554b5b7a2aac66c7d39fd26d1caa66ca7ef4a6ef62263da79d881ec1c75e",
          "transactionIndex": "0x97",
          "logIndex": "0x132",
          "removed": false
        },
        {
          "address": "0xbf4a322f1496e5c3d34a9bcdb4c60567b38c7de2",
          "topics": [
            "0xddf252ad1be2c89b69c2b068fc378daa952ba7f163c4a11628f55a4df523b3ef",
            "0x0000000000000000000000000000000000000000000000000000000000000000",
            "0x000000000000000000000000c77f7fed3b5cc8249adc428c5f44c9063b9734b4"
          ],
          "data": "0x00000000000000000000000000000000000000000000000029234326791d453c",
          "blockHash": "0x10d3337f79b0e159e6bf488b66c180eb7f3d62de939c955ae35f6b429aa41d35",
          "blockNumber": "0x725c33",
          "transactionHash": "0xd72d554b5b7a2aac66c7d39fd26d1caa66ca7ef4a6ef62263da79d881ec1c75e",
          "transactionIndex": "0x97",
          "logIndex": "0x133",
          "removed": false
        },
        {
          "address": "0xbf4a322f1496e5c3d34a9bcdb4c60567b38c7de2",
          "topics": [
            "0x4afcb4a87cdbd9974efdb92ee48bc8d7cd0ae4bf217004db3d080cbaee652ca7"
          ],
          "data": "0x00000000000000000000000000000000000000000000000000000000678744c000000000000000000000000000000000000000000000000000039961f1dbd3100000000000000000000000000000000000000000000000000de0b6b3a7640000",
          "blockHash": "0x10d3337f79b0e159e6bf488b66c180eb7f3d62de939c955ae35f6b429aa41d35",
          "blockNumber": "0x725c33",
          "transactionHash": "0xd72d554b5b7a2aac66c7d39fd26d1caa66ca7ef4a6ef62263da79d881ec1c75e",
          "transactionIndex": "0x97",
          "logIndex": "0x134",
          "removed": false
        }
      ],
      "logsBloom": "0x00000000000000000000000000000000000000000000000000000000000000000000000000000000000000000000000000000000000000004000000000000000000000000000000000000008000000000000001000000000000000000000000000000000020000000000000000000800020000000000000000000010000000000000000000000000000000000000000000000000000008000000010000000000000000000000000000000000000000004000000000000000000000000000000000000002000000800000000000001000000000000000080000000000000020000000000000000000000000000000000000000000000000000000000000000000",
      "type": "0x2",
      "transactionHash": "0xd72d554b5b7a2aac66c7d39fd26d1caa66ca7ef4a6ef62263da79d881ec1c75e",
      "transactionIndex": "0x97",
      "blockHash": "0x10d3337f79b0e159e6bf488b66c180eb7f3d62de939c955ae35f6b429aa41d35",
      "blockNumber": "0x725c33",
      "gasUsed": "0x13af6",
      "effectiveGasPrice": "0x10e2b9b75",
      "from": "0xc77f7fed3b5cc8249adc428c5f44c9063b9734b4",
      "to": "0xbf4a322f1496e5c3d34a9bcdb4c60567b38c7de2",
      "contractAddress": null
    }
  ],
  "libraries": [],
  "pending": [],
  "returns": {},
  "timestamp": 1736918209,
  "chain": 11155111,
  "commit": "51a374b"
}