{
  "transactions": [
    {
      "hash": "0x55b651fd2b6a86e42f499f83c37bf068fe21be71d364bf4f91c88f29e2f77c2b",
      "transactionType": "CALL",
      "contractName": null,
      "contractAddress": "0x270e88f8683660553e8ba4eb2ad7c91a1710d769",
      "function": "buy(address)",
      "arguments": [
        "0xC77f7fed3b5Cc8249aDc428c5F44C9063B9734b4"
      ],
      "transaction": {
        "from": "0xc77f7fed3b5cc8249adc428c5f44c9063b9734b4",
        "to": "0x270e88f8683660553e8ba4eb2ad7c91a1710d769",
        "gas": "0x1b30c",
        "value": "0xde0b6b3a7640000",
        "input": "0xf088d547000000000000000000000000c77f7fed3b5cc8249adc428c5f44c9063b9734b4",
        "nonce": "0x683",
        "chainId": "0xaa36a7"
      },
      "additionalContracts": [],
      "isFixedGasLimit": false
    }
  ],
  "receipts": [
    {
      "status": "0x1",
      "cumulativeGasUsed": "0x1a49768",
      "logs": [
        {
          "address": "0x270e88f8683660553e8ba4eb2ad7c91a1710d769",
          "topics": [
            "0xddf252ad1be2c89b69c2b068fc378daa952ba7f163c4a11628f55a4df523b3ef",
            "0x0000000000000000000000000000000000000000000000000000000000000000",
            "0x000000000000000000000000c77f7fed3b5cc8249adc428c5f44c9063b9734b4"
          ],
          "data": "0x000000000000000000000000000000000000000000000028e4b09176f0c49b35",
          "blockHash": "0x5cbd8730bc1b30837ff0c7011b38d085c882a9a204acf4b74718b62ddb987139",
          "blockNumber": "0x725382",
          "transactionHash": "0x55b651fd2b6a86e42f499f83c37bf068fe21be71d364bf4f91c88f29e2f77c2b",
          "transactionIndex": "0x57",
          "logIndex": "0x27d",
          "removed": false
        },
        {
          "address": "0x270e88f8683660553e8ba4eb2ad7c91a1710d769",
          "topics": [
            "0xddf252ad1be2c89b69c2b068fc378daa952ba7f163c4a11628f55a4df523b3ef",
            "0x0000000000000000000000000000000000000000000000000000000000000000",
            "0x000000000000000000000000c77f7fed3b5cc8249adc428c5f44c9063b9734b4"
          ],
          "data": "0x0000000000000000000000000000000000000000000000001fc14b6e5f53e52a",
          "blockHash": "0x5cbd8730bc1b30837ff0c7011b38d085c882a9a204acf4b74718b62ddb987139",
          "blockNumber": "0x725382",
          "transactionHash": "0x55b651fd2b6a86e42f499f83c37bf068fe21be71d364bf4f91c88f29e2f77c2b",
          "transactionIndex": "0x57",
          "logIndex": "0x27e",
          "removed": false
        },
        {
          "address": "0x270e88f8683660553e8ba4eb2ad7c91a1710d769",
          "topics": [
            "0x4afcb4a87cdbd9974efdb92ee48bc8d7cd0ae4bf217004db3d080cbaee652ca7"
          ],
          "data": "0x000000000000000000000000000000000000000000000000000000006786dc200000000000000000000000000000000000000000000000000004a9b78f8c76a10000000000000000000000000000000000000000000000000de0b6b3a7640000",
          "blockHash": "0x5cbd8730bc1b30837ff0c7011b38d085c882a9a204acf4b74718b62ddb987139",
          "blockNumber": "0x725382",
          "transactionHash": "0x55b651fd2b6a86e42f499f83c37bf068fe21be71d364bf4f91c88f29e2f77c2b",
          "transactionIndex": "0x57",
          "logIndex": "0x27f",
          "removed": false
        }
      ],
      "logsBloom": "0x00000000000000000000000000000000000000000000000000000000000000000000000000000000000000000000000020000000000000004000000000000000000000000000000000000008000000000000000000000000000000000000000000000000020000000000000000000800020000000000000000000010000000000000000000010000000000000000000000000000000000000000010000000000000000000000000000000000000000004000000000000000000000000000000000000002000000800000000000000000000000000000080000008000000020000000000000000000000000000000000000000000000000000000000000000000",
      "type": "0x2",
      "transactionHash": "0x55b651fd2b6a86e42f499f83c37bf068fe21be71d364bf4f91c88f29e2f77c2b",
      "transactionIndex": "0x57",
      "blockHash": "0x5cbd8730bc1b30837ff0c7011b38d085c882a9a204acf4b74718b62ddb987139",
      "blockNumber": "0x725382",
      "gasUsed": "0x13af8",
      "effectiveGasPrice": "0x20b46c29f",
      "from": "0xc77f7fed3b5cc8249adc428c5f44c9063b9734b4",
      "to": "0x270e88f8683660553e8ba4eb2ad7c91a1710d769",
      "contractAddress": null
    }
  ],
  "libraries": [],
  "pending": [],
  "returns": {},
  "timestamp": 1736891426,
  "chain": 11155111,
  "commit": "51a374b"
}