{
  "transactions": [
    {
      "hash": "0x1b85216473bdc7485f578e9c663f2d08e2ba1569903f70cec89151de833dcdfb",
      "transactionType": "CALL",
      "contractName": null,
      "contractAddress": "0xbf4a322f1496e5c3d34a9bcdb4c60567b38c7de2",
      "function": "sell(uint256)",
      "arguments": [
        "990543921380085725797"
      ],
      "transaction": {
        "from": "0xc77f7fed3b5cc8249adc428c5f44c9063b9734b4",
        "to": "0xbf4a322f1496e5c3d34a9bcdb4c60567b38c7de2",
        "gas": "0x16fea",
        "value": "0x0",
        "input": "0xe4849b32000000000000000000000000000000000000000000000035b28ef05e5a77fa65",
        "nonce": "0x90f",
        "chainId": "0xaa36a7"
      },
      "additionalContracts": [],
      "isFixedGasLimit": false
    }
  ],
  "receipts": [
    {
      "status": "0x1",
      "cumulativeGasUsed": "0x1359bc2",
      "logs": [
        {
          "address": "0xbf4a322f1496e5c3d34a9bcdb4c60567b38c7de2",
          "topics": [
            "0xddf252ad1be2c89b69c2b068fc378daa952ba7f163c4a11628f55a4df523b3ef",
            "0x000000000000000000000000c77f7fed3b5cc8249adc428c5f44c9063b9734b4",
            "0x0000000000000000000000000000000000000000000000000000000000000000"
          ],
          "data": "0x000000000000000000000000000000000000000000000035b28ef05e5a77fa65",
          "blockHash": "0x43ccb64cac69cc07ff898ecd7f2b98c6782fd22c03ceb6fb6e99710819600597",
          "blockNumber": "0x72588b",
          "transactionHash": "0x1b85216473bdc7485f578e9c663f2d08e2ba1569903f70cec89151de833dcdfb",
          "transactionIndex": "0x6f",
          "logIndex": "0x96",
          "removed": false
        },
        {
          "address": "0xbf4a322f1496e5c3d34a9bcdb4c60567b38c7de2",
          "topics": [
            "0x4afcb4a87cdbd9974efdb92ee48bc8d7cd0ae4bf217004db3d080cbaee652ca7"
          ],
          "data": "0x00000000000000000000000000000000000000000000000000000000678718b000000000000000000000000000000000000000000000000000038fc71f97a3660000000000000000000000000000000000000000000000000dc7e3fa94b60aa9",
          "blockHash": "0x43ccb64cac69cc07ff898ecd7f2b98c6782fd22c03ceb6fb6e99710819600597",
          "blockNumber": "0x72588b",
          "transactionHash": "0x1b85216473bdc7485f578e9c663f2d08e2ba1569903f70cec89151de833dcdfb",
          "transactionIndex": "0x6f",
          "logIndex": "0x97",
          "removed": false
        }
      ],
      "logsBloom": "0x00000000000000000000000000000000000000000000000000000000000000000000000000000000000000000000000000000000000000004000000000000000000000000000000000000008000000000000001000000000000000000000000000000000020000000000000000000800020000000000000000000010000000000000000000000000000000000000000000000000000008000000010000000000000000000000000000000000000000004000000000000000000000000000000000000002000000800000000000001000000000000000080000000000000020000000000000000000000000000000000000000000000000000000000000000000",
      "type": "0x2",
      "transactionHash": "0x1b85216473bdc7485f578e9c663f2d08e2ba1569903f70cec89151de833dcdfb",
      "transactionIndex": "0x6f",
      "blockHash": "0x43ccb64cac69cc07ff898ecd7f2b98c6782fd22c03ceb6fb6e99710819600597",
      "blockNumber": "0x72588b",
      "gasUsed": "0xfb91",
      "effectiveGasPrice": "0x336e5a1e",
      "from": "0xc77f7fed3b5cc8249adc428c5f44c9063b9734b4",
      "to": "0xbf4a322f1496e5c3d34a9bcdb4c60567b38c7de2",
      "contractAddress": null
    }
  ],
  "libraries": [],
  "pending": [],
  "returns": {},
  "timestamp": 1736906929,
  "chain": 11155111,
  "commit": "51a374b"
}