{
  "transactions": [
    {
      "hash": "0x1e9cdfa31b226568258146d51de3bec9f5771dc2c4e36c2f8ff9b9544f76df3b",
      "transactionType": "CALL",
      "contractName": null,
      "contractAddress": "0x270e88f8683660553e8ba4eb2ad7c91a1710d769",
      "function": "sell(uint256)",
      "arguments": [
        "739930840213254625314"
      ],
      "transaction": {
        "from": "0xc77f7fed3b5cc8249adc428c5f44c9063b9734b4",
        "to": "0x270e88f8683660553e8ba4eb2ad7c91a1710d769",
        "gas": "0x16fec",
        "value": "0x0",
        "input": "0xe4849b320000000000000000000000000000000000000000000000281c9a6ada335cd822",
        "nonce": "0x73c",
        "chainId": "0xaa36a7"
      },
      "additionalContracts": [],
      "isFixedGasLimit": false
    }
  ],
  "receipts": [
    {
      "status": "0x1",
      "cumulativeGasUsed": "0xf0c49b",
      "logs": [
        {
          "address": "0x270e88f8683660553e8ba4eb2ad7c91a1710d769",
          "topics": [
            "0xddf252ad1be2c89b69c2b068fc378daa952ba7f163c4a11628f55a4df523b3ef",
            "0x000000000000000000000000c77f7fed3b5cc8249adc428c5f44c9063b9734b4",
            "0x0000000000000000000000000000000000000000000000000000000000000000"
          ],
          "data": "0x0000000000000000000000000000000000000000000000281c9a6ada335cd822",
          "blockHash": "0xce17d72bc543633588675fa129e91b180cfb3ebcdd0ba192cdc6bcbadb9254d8",
          "blockNumber": "0x72545d",
          "transactionHash": "0x1e9cdfa31b226568258146d51de3bec9f5771dc2c4e36c2f8ff9b9544f76df3b",
          "transactionIndex": "0x4d",
          "logIndex": "0x7d",
          "removed": false
        },
        {
          "address": "0x270e88f8683660553e8ba4eb2ad7c91a1710d769",
          "topics": [
            "0x4afcb4a87cdbd9974efdb92ee48bc8d7cd0ae4bf217004db3d080cbaee652ca7"
          ],
          "data": "0x000000000000000000000000000000000000000000000000000000006786e6640000000000000000000000000000000000000000000000000004c4dab1505ec90000000000000000000000000000000000000000000000000dc8287e244c011d",
          "blockHash": "0xce17d72bc543633588675fa129e91b180cfb3ebcdd0ba192cdc6bcbadb9254d8",
          "blockNumber": "0x72545d",
          "transactionHash": "0x1e9cdfa31b226568258146d51de3bec9f5771dc2c4e36c2f8ff9b9544f76df3b",
          "transactionIndex": "0x4d",
          "logIndex": "0x7e",
          "removed": false
        }
      ],
      "logsBloom": "0x00000000000000000000000000000000000000000000000000000000000000000000000000000000000000000000000020000000000000004000000000000000000000000000000000000008000000000000000000000000000000000000000000000000020000000000000000000800020000000000000000000010000000000000000000010000000000000000000000000000000000000000010000000000000000000000000000000000000000004000000000000000000000000000000000000002000000800000000000000000000000000000080000008000000020000000000000000000000000000000000000000000000000000000000000000000",
      "type": "0x2",
      "transactionHash": "0x1e9cdfa31b226568258146d51de3bec9f5771dc2c4e36c2f8ff9b9544f76df3b",
      "transactionIndex": "0x4d",
      "blockHash": "0xce17d72bc543633588675fa129e91b180cfb3ebcdd0ba192cdc6bcbadb9254d8",
      "blockNumber": "0x72545d",
      "gasUsed": "0xfb93",
      "effectiveGasPrice": "0x1255e7f87",
      "from": "0xc77f7fed3b5cc8249adc428c5f44c9063b9734b4",
      "to": "0x270e88f8683660553e8ba4eb2ad7c91a1710d769",
      "contractAddress": null
    }
  ],
  "libraries": [],
  "pending": [],
  "returns": {},
  "timestamp": 1736894053,
  "chain": 11155111,
  "commit": "51a374b"
}