{
  "transactions": [
    {
      "hash": "0x62498dfba259fd8ba371459bb086e35a5648206a0e0266f26cd7a84585384746",
      "transactionType": "CALL",
      "contractName": null,
      "contractAddress": "0x5eb9cc76c3506942c1c0ead70e877dd5e4f00cb0",
      "function": "sell(uint256)",
      "arguments": [
        "989158963328063014486"
      ],
      "transaction": {
        "from": "0xc77f7fed3b5cc8249adc428c5f44c9063b9734b4",
        "to": "0x5eb9cc76c3506942c1c0ead70e877dd5e4f00cb0",
        "gas": "0x16fec",
        "value": "0x0",
        "input": "0xe4849b320000000000000000000000000000000000000000000000359f56945baad68656",
        "nonce": "0x28f",
        "chainId": "0xaa36a7"
      },
      "additionalContracts": [],
      "isFixedGasLimit": false
    }
  ],
  "receipts": [
    {
      "status": "0x1",
      "cumulativeGasUsed": "0xfff8b7",
      "logs": [
        {
          "address": "0x5eb9cc76c3506942c1c0ead70e877dd5e4f00cb0",
          "topics": [
            "0xddf252ad1be2c89b69c2b068fc378daa952ba7f163c4a11628f55a4df523b3ef",
            "0x000000000000000000000000c77f7fed3b5cc8249adc428c5f44c9063b9734b4",
            "0x0000000000000000000000000000000000000000000000000000000000000000"
          ],
          "data": "0x0000000000000000000000000000000000000000000000359f56945baad68656",
          "blockHash": "0x648034dd6daaf1c44899a328c473b5c19823f8b5d1098cf9d8c4956760ef0a73",
          "blockNumber": "0x724e5e",
          "transactionHash": "0x62498dfba259fd8ba371459bb086e35a5648206a0e0266f26cd7a84585384746",
          "transactionIndex": "0x7b",
          "logIndex": "0xba",
          "removed": false
        },
        {
          "address": "0x5eb9cc76c3506942c1c0ead70e877dd5e4f00cb0",
          "topics": [
            "0x4afcb4a87cdbd9974efdb92ee48bc8d7cd0ae4bf217004db3d080cbaee652ca7"
          ],
          "data": "0x0000000000000000000000000000000000000000000000000000000067869e1c0000000000000000000000000000000000000000000000000003910789d3913a0000000000000000000000000000000000000000000000000dc7db1332505da8",
          "blockHash": "0x648034dd6daaf1c44899a328c473b5c19823f8b5d1098cf9d8c4956760ef0a73",
          "blockNumber": "0x724e5e",
          "transactionHash": "0x62498dfba259fd8ba371459bb086e35a5648206a0e0266f26cd7a84585384746",
          "transactionIndex": "0x7b",
          "logIndex": "0xbb",
          "removed": false
        }
      ],
      "logsBloom": "0x00000000000000000000000000000000000000000000000000000000000000000000000000000000000000000000000000000000000000004000000000000000000000000000000000000008000000000000000000000000000000000000000000000000020000000000000004000800020000000000000000000010000000000000000000000000000000000000000000000000000000000000010000000000000000000000000000000000000000004000000000000000000000000000020000000002000000800000008000000000000000000000080000000000000020000000000000000000000000000000000000000000000000000000000000000000",
      "type": "0x2",
      "transactionHash": "0x62498dfba259fd8ba371459bb086e35a5648206a0e0266f26cd7a84585384746",
      "transactionIndex": "0x7b",
      "blockHash": "0x648034dd6daaf1c44899a328c473b5c19823f8b5d1098cf9d8c4956760ef0a73",
      "blockNumber": "0x724e5e",
      "gasUsed": "0xfb93",
      "effectiveGasPrice": "0x3fb0f13ec",
      "from": "0xc77f7fed3b5cc8249adc428c5f44c9063b9734b4",
      "to": "0x5eb9cc76c3506942c1c0ead70e877dd5e4f00cb0",
      "contractAddress": null
    }
  ],
  "libraries": [],
  "pending": [],
  "returns": {},
  "timestamp": 1736875551,
  "chain": 11155111,
  "commit": "51a374b"
}