{
  "transactions": [
    {
      "hash": "0x41659ac1aeb8742b6560e0f6abd6ba3bf8320b94b526465b0863503bea4d185a",
      "transactionType": "CALL",
      "contractName": null,
      "contractAddress": "0x8aafd3ede9adb0ff97c7aebce82a919afb1c8764",
      "function": "sell(uint256)",
      "arguments": [
        "345800105801569"
      ],
      "transaction": {
        "from": "0xc77f7fed3b5cc8249adc428c5f44c9063b9734b4",
        "to": "0x8aafd3ede9adb0ff97c7aebce82a919afb1c8764",
        "gas": "0x1724d",
        "value": "0x0",
        "input": "0xe4849b3200000000000000000000000000000000000000000000000000013a80dc783761",
        "nonce": "0x1242",
        "chainId": "0xaa36a7"
      },
      "additionalContracts": [],
      "isFixedGasLimit": false
    }
  ],
  "receipts": [
    {
      "status": "0x1",
      "cumulativeGasUsed": "0x9facae",
      "logs": [
        {
          "address": "0x8aafd3ede9adb0ff97c7aebce82a919afb1c8764",
          "topics": [
            "0xddf252ad1be2c89b69c2b068fc378daa952ba7f163c4a11628f55a4df523b3ef",
            "0x000000000000000000000000c77f7fed3b5cc8249adc428c5f44c9063b9734b4",
            "0x0000000000000000000000000000000000000000000000000000000000000000"
          ],
          "data": "0x000000000000000000000000000000000000000000000000000137fcc2213d15",
          "blockHash": "0xd84450abb56128f7c2e97abf519bfc4c26d5d3f2d3b65e8b756f3faa12bdced5",
          "blockNumber": "0x731922",
          "transactionHash": "0x41659ac1aeb8742b6560e0f6abd6ba3bf8320b94b526465b0863503bea4d185a",
          "transactionIndex": "0x88",
          "logIndex": "0x96",
          "removed": false
        },
        {
          "address": "0x8aafd3ede9adb0ff97c7aebce82a919afb1c8764",
          "topics": [
            "0xddf252ad1be2c89b69c2b068fc378daa952ba7f163c4a11628f55a4df523b3ef",
            "0x000000000000000000000000c77f7fed3b5cc8249adc428c5f44c9063b9734b4",
            "0x000000000000000000000000c77f7fed3b5cc8249adc428c5f44c9063b9734b4"
          ],
          "data": "0x000000000000000000000000000000000000000000000000000002841a56fa4c",
          "blockHash": "0xd84450abb56128f7c2e97abf519bfc4c26d5d3f2d3b65e8b756f3faa12bdced5",
          "blockNumber": "0x731922",
          "transactionHash": "0x41659ac1aeb8742b6560e0f6abd6ba3bf8320b94b526465b0863503bea4d185a",
          "transactionIndex": "0x88",
          "logIndex": "0x97",
          "removed": false
        },
        {
          "address": "0x8aafd3ede9adb0ff97c7aebce82a919afb1c8764",
          "topics": [
            "0x4afcb4a87cdbd9974efdb92ee48bc8d7cd0ae4bf217004db3d080cbaee652ca7"
          ],
          "data": "0x0000000000000000000000000000000000000000000000000000000067902a6800000000000000000000000000000000000000000000000000053aa696539da90000000000000000000000000000000000000000000000000000007680faa3f1",
          "blockHash": "0xd84450abb56128f7c2e97abf519bfc4c26d5d3f2d3b65e8b756f3faa12bdced5",
          "blockNumber": "0x731922",
          "transactionHash": "0x41659ac1aeb8742b6560e0f6abd6ba3bf8320b94b526465b0863503bea4d185a",
          "transactionIndex": "0x88",
          "logIndex": "0x98",
          "removed": false
        }
      ],
      "logsBloom": "0x00000000000000000000000000000000000000000600000000000000000000000000000000000000000000000000000000000000000000004000000000000000000000000000004000000008000000000000000000000000000000000000000000000000020000000000000000000800020000000000000000000010000000000000000000000000000000000000000000000000000000000000010000000000000000000000000000000000000000004000000000000000000000000000000000000002000000800000000000000000000000000000080000000000000020000000000000000000000000000000000000000000000000000000000000000000",
      "type": "0x2",
      "transactionHash": "0x41659ac1aeb8742b6560e0f6abd6ba3bf8320b94b526465b0863503bea4d185a",
      "transactionIndex": "0x88",
      "blockHash": "0xd84450abb56128f7c2e97abf519bfc4c26d5d3f2d3b65e8b756f3faa12bdced5",
      "blockNumber": "0x731922",
      "gasUsed": "0xfd33",
      "effectiveGasPrice": "0x45dedb4f",
      "from": "0xc77f7fed3b5cc8249adc428c5f44c9063b9734b4",
      "to": "0x8aafd3ede9adb0ff97c7aebce82a919afb1c8764",
      "contractAddress": null
    }
  ],
  "libraries": [],
  "pending": [],
  "returns": {},
  "timestamp": 1737501289,
  "chain": 11155111,
  "commit": "1d2fb70"
}