{
  "transactions": [
    {
      "hash": "0x8c33174c767e045f2bde7149ad5a0aac2c570e91751a221f27918e2d9d0c525f",
      "transactionType": "CALL",
      "contractName": null,
      "contractAddress": "0xbf4a322f1496e5c3d34a9bcdb4c60567b38c7de2",
      "function": "sell(uint256)",
      "arguments": [
        "977949317010775758257"
      ],
      "transaction": {
        "from": "0xc77f7fed3b5cc8249adc428c5f44c9063b9734b4",
        "to": "0xbf4a322f1496e5c3d34a9bcdb4c60567b38c7de2",
        "gas": "0x16fea",
        "value": "0x0",
        "input": "0xe4849b3200000000000000000000000000000000000000000000003503c5ea6c7b2a55b1",
        "nonce": "0xcb1",
        "chainId": "0xaa36a7"
      },
      "additionalContracts": [],
      "isFixedGasLimit": false
    }
  ],
  "receipts": [
    {
      "status": "0x1",
      "cumulativeGasUsed": "0xd19cd6",
      "logs": [
        {
          "address": "0xbf4a322f1496e5c3d34a9bcdb4c60567b38c7de2",
          "topics": [
            "0xddf252ad1be2c89b69c2b068fc378daa952ba7f163c4a11628f55a4df523b3ef",
            "0x000000000000000000000000c77f7fed3b5cc8249adc428c5f44c9063b9734b4",
            "0x0000000000000000000000000000000000000000000000000000000000000000"
          ],
          "data": "0x00000000000000000000000000000000000000000000003503c5ea6c7b2a55b1",
          "blockHash": "0xfa7c0788e8431e37cd0bc00f08feaea330ede08044e1e92bbe7e887400c849d8",
          "blockNumber": "0x725cfe",
          "transactionHash": "0x8c33174c767e045f2bde7149ad5a0aac2c570e91751a221f27918e2d9d0c525f",
          "transactionIndex": "0x55",
          "logIndex": "0xc4",
          "removed": false
        },
        {
          "address": "0xbf4a322f1496e5c3d34a9bcdb4c60567b38c7de2",
          "topics": [
            "0x4afcb4a87cdbd9974efdb92ee48bc8d7cd0ae4bf217004db3d080cbaee652ca7"
          ],
          "data": "0x0000000000000000000000000000000000000000000000000000000067874e5c00000000000000000000000000000000000000000000000000039b8518d0a0ea0000000000000000000000000000000000000000000000000dc7e3dd4c64217b",
          "blockHash": "0xfa7c0788e8431e37cd0bc00f08feaea330ede08044e1e92bbe7e887400c849d8",
          "blockNumber": "0x725cfe",
          "transactionHash": "0x8c33174c767e045f2bde7149ad5a0aac2c570e91751a221f27918e2d9d0c525f",
          "transactionIndex": "0x55",
          "logIndex": "0xc5",
          "removed": false
        }
      ],
      "logsBloom": "0x00000000000000000000000000000000000000000000000000000000000000000000000000000000000000000000000000000000000000004000000000000000000000000000000000000008000000000000001000000000000000000000000000000000020000000000000000000800020000000000000000000010000000000000000000000000000000000000000000000000000008000000010000000000000000000000000000000000000000004000000000000000000000000000000000000002000000800000000000001000000000000000080000000000000020000000000000000000000000000000000000000000000000000000000000000000",
      "type": "0x2",
      "transactionHash": "0x8c33174c767e045f2bde7149ad5a0aac2c570e91751a221f27918e2d9d0c525f",
      "transactionIndex": "0x55",
      "blockHash": "0xfa7c0788e8431e37cd0bc00f08feaea330ede08044e1e92bbe7e887400c849d8",
      "blockNumber": "0x725cfe",
      "gasUsed": "0xfb91",
      "effectiveGasPrice": "0x23eb0d6c0",
      "from": "0xc77f7fed3b5cc8249adc428c5f44c9063b9734b4",
      "to": "0xbf4a322f1496e5c3d34a9bcdb4c60567b38c7de2",
      "contractAddress": null
    }
  ],
  "libraries": [],
  "pending": [],
  "returns": {},
  "timestamp": 1736920668,
  "chain": 11155111,
  "commit": "51a374b"
}