{
  "transactions": [
    {
      "hash": "0x9330aa1f00b9b98125c8e4e6d9408f14cea715806e7edc3722227848e1955057",
      "transactionType": "CALL",
      "contractName": null,
      "contractAddress": "0x8aafd3ede9adb0ff97c7aebce82a919afb1c8764",
      "function": "sell(uint256)",
      "arguments": [
        "14813552089805978"
      ],
      "transaction": {
        "from": "0xc77f7fed3b5cc8249adc428c5f44c9063b9734b4",
        "to": "0x8aafd3ede9adb0ff97c7aebce82a919afb1c8764",
        "gas": "0x1724d",
        "value": "0x0",
        "input": "0xe4849b320000000000000000000000000000000000000000000000000034a0d8de2cb49a",
        "nonce": "0x1468",
        "chainId": "0xaa36a7"
      },
      "additionalContracts": [],
      "isFixedGasLimit": false
    }
  ],
  "receipts": [
    {
      "status": "0x1",
      "cumulativeGasUsed": "0xe9b25b",
      "logs": [
        {
          "address": "0x8aafd3ede9adb0ff97c7aebce82a919afb1c8764",
          "topics": [
            "0xddf252ad1be2c89b69c2b068fc378daa952ba7f163c4a11628f55a4df523b3ef",
            "0x000000000000000000000000c77f7fed3b5cc8249adc428c5f44c9063b9734b4",
            "0x0000000000000000000000000000000000000000000000000000000000000000"
          ],
          "data": "0x000000000000000000000000000000000000000000000000003435107a17de2b",
          "blockHash": "0x07f4ebd92b71a1cc49c83f5e4df84066905b825b9f9b6ad224bd9a558a96924c",
          "blockNumber": "0x731bb4",
          "transactionHash": "0x9330aa1f00b9b98125c8e4e6d9408f14cea715806e7edc3722227848e1955057",
          "transactionIndex": "0x91",
          "logIndex": "0x7c",
          "removed": false
        },
        {
          "address": "0x8aafd3ede9adb0ff97c7aebce82a919afb1c8764",
          "topics": [
            "0xddf252ad1be2c89b69c2b068fc378daa952ba7f163c4a11628f55a4df523b3ef",
            "0x000000000000000000000000c77f7fed3b5cc8249adc428c5f44c9063b9734b4",
            "0x000000000000000000000000c77f7fed3b5cc8249adc428c5f44c9063b9734b4"
          ],
          "data": "0x00000000000000000000000000000000000000000000000000006bc86414d66f",
          "blockHash": "0x07f4ebd92b71a1cc49c83f5e4df84066905b825b9f9b6ad224bd9a558a96924c",
          "blockNumber": "0x731bb4",
          "transactionHash": "0x9330aa1f00b9b98125c8e4e6d9408f14cea715806e7edc3722227848e1955057",
          "transactionIndex": "0x91",
          "logIndex": "0x7d",
          "removed": false
        },
        {
          "address": "0x8aafd3ede9adb0ff97c7aebce82a919afb1c8764",
          "topics": [
            "0x4afcb4a87cdbd9974efdb92ee48bc8d7cd0ae4bf217004db3d080cbaee652ca7"
          ],
          "data": "0x000000000000000000000000000000000000000000000000000000006790494c000000000000000000000000000000000000000000000000000f583f57924dc700000000000000000000000000000000000000000000000000003a30f7a7f9fa",
          "blockHash": "0x07f4ebd92b71a1cc49c83f5e4df84066905b825b9f9b6ad224bd9a558a96924c",
          "blockNumber": "0x731bb4",
          "transactionHash": "0x9330aa1f00b9b98125c8e4e6d9408f14cea715806e7edc3722227848e1955057",
          "transactionIndex": "0x91",
          "logIndex": "0x7e",
          "removed": false
        }
      ],
      "logsBloom": "0x00000000000000000000000000000000000000000600000000000000000000000000000000000000000000000000000000000000000000004000000000000000000000000000004000000008000000000000000000000000000000000000000000000000020000000000000000000800020000000000000000000010000000000000000000000000000000000000000000000000000000000000010000000000000000000000000000000000000000004000000000000000000000000000000000000002000000800000000000000000000000000000080000000000000020000000000000000000000000000000000000000000000000000000000000000000",
      "type": "0x2",
      "transactionHash": "0x9330aa1f00b9b98125c8e4e6d9408f14cea715806e7edc3722227848e1955057",
      "transactionIndex": "0x91",
      "blockHash": "0x07f4ebd92b71a1cc49c83f5e4df84066905b825b9f9b6ad224bd9a558a96924c",
      "blockNumber": "0x731bb4",
      "gasUsed": "0xfd33",
      "effectiveGasPrice": "0xfb4a919e",
      "from": "0xc77f7fed3b5cc8249adc428c5f44c9063b9734b4",
      "to": "0x8aafd3ede9adb0ff97c7aebce82a919afb1c8764",
      "contractAddress": null
    }
  ],
  "libraries": [],
  "pending": [],
  "returns": {},
  "timestamp": 1737509198,
  "chain": 11155111,
  "commit": "1d2fb70"
}