{
  "transactions": [
    {
      "hash": "0xe0cb227e789ccd0bb8d821f9688c222fba6f1221ae0a0fba5668ce8407e19012",
      "transactionType": "CALL",
      "contractName": null,
      "contractAddress": "0x8aafd3ede9adb0ff97c7aebce82a919afb1c8764",
      "function": "sell(uint256)",
      "arguments": [
        "1078903763374"
      ],
      "transaction": {
        "from": "0xc77f7fed3b5cc8249adc428c5f44c9063b9734b4",
        "to": "0x8aafd3ede9adb0ff97c7aebce82a919afb1c8764",
        "gas": "0x1722a",
        "value": "0x0",
        "input": "0xe4849b32000000000000000000000000000000000000000000000000000000fb33acf1ae",
        "nonce": "0x13c8",
        "chainId": "0xaa36a7"
      },
      "additionalContracts": [],
      "isFixedGasLimit": false
    }
  ],
  "receipts": [
    {
      "status": "0x1",
      "cumulativeGasUsed": "0x5cf390",
      "logs": [
        {
          "address": "0x8aafd3ede9adb0ff97c7aebce82a919afb1c8764",
          "topics": [
            "0xddf252ad1be2c89b69c2b068fc378daa952ba7f163c4a11628f55a4df523b3ef",
            "0x000000000000000000000000c77f7fed3b5cc8249adc428c5f44c9063b9734b4",
            "0x0000000000000000000000000000000000000000000000000000000000000000"
          ],
          "data": "0x000000000000000000000000000000000000000000000000000000f93136d314",
          "blockHash": "0x1156a635685f647c067a2fa7e55056e8f5313840ca14fa9aab9b66c4e2400977",
          "blockNumber": "0x731af3",
          "transactionHash": "0xe0cb227e789ccd0bb8d821f9688c222fba6f1221ae0a0fba5668ce8407e19012",
          "transactionIndex": "0x50",
          "logIndex": "0x56",
          "removed": false
        },
        {
          "address": "0x8aafd3ede9adb0ff97c7aebce82a919afb1c8764",
          "topics": [
            "0xddf252ad1be2c89b69c2b068fc378daa952ba7f163c4a11628f55a4df523b3ef",
            "0x000000000000000000000000c77f7fed3b5cc8249adc428c5f44c9063b9734b4",
            "0x000000000000000000000000c77f7fed3b5cc8249adc428c5f44c9063b9734b4"
          ],
          "data": "0x0000000000000000000000000000000000000000000000000000000202761e9a",
          "blockHash": "0x1156a635685f647c067a2fa7e55056e8f5313840ca14fa9aab9b66c4e2400977",
          "blockNumber": "0x731af3",
          "transactionHash": "0xe0cb227e789ccd0bb8d821f9688c222fba6f1221ae0a0fba5668ce8407e19012",
          "transactionIndex": "0x50",
          "logIndex": "0x57",
          "removed": false
        },
        {
          "address": "0x8aafd3ede9adb0ff97c7aebce82a919afb1c8764",
          "topics": [
            "0x4afcb4a87cdbd9974efdb92ee48bc8d7cd0ae4bf217004db3d080cbaee652ca7"
          ],
          "data": "0x0000000000000000000000000000000000000000000000000000000067904034000000000000000000000000000000000000000000000000000d7ee0d35c485800000000000000000000000000000000000000000000000000000000f448c180",
          "blockHash": "0x1156a635685f647c067a2fa7e55056e8f5313840ca14fa9aab9b66c4e2400977",
          "blockNumber": "0x731af3",
          "transactionHash": "0xe0cb227e789ccd0bb8d821f9688c222fba6f1221ae0a0fba5668ce8407e19012",
          "transactionIndex": "0x50",
          "logIndex": "0x58",
          "removed": false
        }
      ],
      "logsBloom": "0x00000000000000000000000000000000000000000600000000000000000000000000000000000000000000000000000000000000000000004000000000000000000000000000004000000008000000000000000000000000000000000000000000000000020000000000000000000800020000000000000000000010000000000000000000000000000000000000000000000000000000000000010000000000000000000000000000000000000000004000000000000000000000000000000000000002000000800000000000000000000000000000080000000000000020000000000000000000000000000000000000000000000000000000000000000000",
      "type": "0x2",
      "transactionHash": "0xe0cb227e789ccd0bb8d821f9688c222fba6f1221ae0a0fba5668ce8407e19012",
      "transactionIndex": "0x50",
      "blockHash": "0x1156a635685f647c067a2fa7e55056e8f5313840ca14fa9aab9b66c4e2400977",
      "blockNumber": "0x731af3",
      "gasUsed": "0xfd1b",
      "effectiveGasPrice": "0x883bd3f8",
      "from": "0xc77f7fed3b5cc8249adc428c5f44c9063b9734b4",
      "to": "0x8aafd3ede9adb0ff97c7aebce82a919afb1c8764",
      "contractAddress": null
    }
  ],
  "libraries": [],
  "pending": [],
  "returns": {},
  "timestamp": 1737506869,
  "chain": 11155111,
  "commit": "1d2fb70"
}