{
  "transactions": [
    {
      "hash": "0x37cca4c0bd9b1e3453544e2ba56ca873bb183c8aa21c0ab4e5d953c0aa210ca2",
      "transactionType": "CALL",
      "contractName": null,
      "contractAddress": "0x270e88f8683660553e8ba4eb2ad7c91a1710d769",
      "function": "buy(address)",
      "arguments": [
        "0xC77f7fed3b5Cc8249aDc428c5F44C9063B9734b4"
      ],
      "transaction": {
        "from": "0xc77f7fed3b5cc8249adc428c5f44c9063b9734b4",
        "to": "0x270e88f8683660553e8ba4eb2ad7c91a1710d769",
        "gas": "0x1b30c",
        "value": "0xde0b6b3a7640000",
        "input": "0xf088d547000000000000000000000000c77f7fed3b5cc8249adc428c5f44c9063b9734b4",
        "nonce": "0x596",
        "chainId": "0xaa36a7"
      },
      "additionalContracts": [],
      "isFixedGasLimit": false
    }
  ],
  "receipts": [
    {
      "status": "0x1",
      "cumulativeGasUsed": "0x818b3e",
      "logs": [
        {
          "address": "0x270e88f8683660553e8ba4eb2ad7c91a1710d769",
          "topics": [
            "0xddf252ad1be2c89b69c2b068fc378daa952ba7f163c4a11628f55a4df523b3ef",
            "0x0000000000000000000000000000000000000000000000000000000000000000",
            "0x000000000000000000000000c77f7fed3b5cc8249adc428c5f44c9063b9734b4"
          ],
          "data": "0x0000000000000000000000000000000000000000000000340b4cf48cf1cc9f4e",
          "blockHash": "0x3e39a5138afef840c481ee7dda57dc32b287bed1370a6827e2bfa8028de82c04",
          "blockNumber": "0x72524b",
          "transactionHash": "0x37cca4c0bd9b1e3453544e2ba56ca873bb183c8aa21c0ab4e5d953c0aa210ca2",
          "transactionIndex": "0x3b",
          "logIndex": "0x75",
          "removed": false
        },
        {
          "address": "0x270e88f8683660553e8ba4eb2ad7c91a1710d769",
          "topics": [
            "0xddf252ad1be2c89b69c2b068fc378daa952ba7f163c4a11628f55a4df523b3ef",
            "0x0000000000000000000000000000000000000000000000000000000000000000",
            "0x000000000000000000000000c77f7fed3b5cc8249adc428c5f44c9063b9734b4"
          ],
          "data": "0x0000000000000000000000000000000000000000000000002869ff54195d788b",
          "blockHash": "0x3e39a5138afef840c481ee7dda57dc32b287bed1370a6827e2bfa8028de82c04",
          "blockNumber": "0x72524b",
          "transactionHash": "0x37cca4c0bd9b1e3453544e2ba56ca873bb183c8aa21c0ab4e5d953c0aa210ca2",
          "transactionIndex": "0x3b",
          "logIndex": "0x76",
          "removed": false
        },
        {
          "address": "0x270e88f8683660553e8ba4eb2ad7c91a1710d769",
          "topics": [
            "0x4afcb4a87cdbd9974efdb92ee48bc8d7cd0ae4bf217004db3d080cbaee652ca7"
          ],
          "data": "0x000000000000000000000000000000000000000000000000000000006786cd740000000000000000000000000000000000000000000000000003a9fa12c064f50000000000000000000000000000000000000000000000000de0b6b3a7640000",
          "blockHash": "0x3e39a5138afef840c481ee7dda57dc32b287bed1370a6827e2bfa8028de82c04",
          "blockNumber": "0x72524b",
          "transactionHash": "0x37cca4c0bd9b1e3453544e2ba56ca873bb183c8aa21c0ab4e5d953c0aa210ca2",
          "transactionIndex": "0x3b",
          "logIndex": "0x77",
          "removed": false
        }
      ],
      "logsBloom": "0x00000000000000000000000000000000000000000000000000000000000000000000000000000000000000000000000020000000000000004000000000000000000000000000000000000008000000000000000000000000000000000000000000000000020000000000000000000800020000000000000000000010000000000000000000010000000000000000000000000000000000000000010000000000000000000000000000000000000000004000000000000000000000000000000000000002000000800000000000000000000000000000080000008000000020000000000000000000000000000000000000000000000000000000000000000000",
      "type": "0x2",
      "transactionHash": "0x37cca4c0bd9b1e3453544e2ba56ca873bb183c8aa21c0ab4e5d953c0aa210ca2",
      "transactionIndex": "0x3b",
      "blockHash": "0x3e39a5138afef840c481ee7dda57dc32b287bed1370a6827e2bfa8028de82c04",
      "blockNumber": "0x72524b",
      "gasUsed": "0x13af8",
      "effectiveGasPrice": "0x50f114ec4",
      "from": "0xc77f7fed3b5cc8249adc428c5f44c9063b9734b4",
      "to": "0x270e88f8683660553e8ba4eb2ad7c91a1710d769",
      "contractAddress": null
    }
  ],
  "libraries": [],
  "pending": [],
  "returns": {},
  "timestamp": 1736887670,
  "chain": 11155111,
  "commit": "51a374b"
}