{
  "transactions": [
    {
      "hash": "0x73c2b628a6faa5a4ad7005d188759e1a0902a6a424c651169cf9f6cb7ba5a782",
      "transactionType": "CALL",
      "contractName": null,
      "contractAddress": "0xbf4a322f1496e5c3d34a9bcdb4c60567b38c7de2",
      "function": "sell(uint256)",
      "arguments": [
        "981842174272891318008"
      ],
      "transaction": {
        "from": "0xc77f7fed3b5cc8249adc428c5f44c9063b9734b4",
        "to": "0xbf4a322f1496e5c3d34a9bcdb4c60567b38c7de2",
        "gas": "0x16fea",
        "value": "0x0",
        "input": "0xe4849b3200000000000000000000000000000000000000000000003539cc1f7a78dceef8",
        "nonce": "0xb8f",
        "chainId": "0xaa36a7"
      },
      "additionalContracts": [],
      "isFixedGasLimit": false
    }
  ],
  "receipts": [
    {
      "status": "0x1",
      "cumulativeGasUsed": "0x1198ac1",
      "logs": [
        {
          "address": "0xbf4a322f1496e5c3d34a9bcdb4c60567b38c7de2",
          "topics": [
            "0xddf252ad1be2c89b69c2b068fc378daa952ba7f163c4a11628f55a4df523b3ef",
            "0x000000000000000000000000c77f7fed3b5cc8249adc428c5f44c9063b9734b4",
            "0x0000000000000000000000000000000000000000000000000000000000000000"
          ],
          "data": "0x00000000000000000000000000000000000000000000003539cc1f7a78dceef8",
          "blockHash": "0x587afd54f2908cce53b79fee09f96cdf98da5c5efba65fc44659c2dfb98c58d8",
          "blockNumber": "0x725ba0",
          "transactionHash": "0x73c2b628a6faa5a4ad7005d188759e1a0902a6a424c651169cf9f6cb7ba5a782",
          "transactionIndex": "0x7a",
          "logIndex": "0x89",
          "removed": false
        },
        {
          "address": "0xbf4a322f1496e5c3d34a9bcdb4c60567b38c7de2",
          "topics": [
            "0x4afcb4a87cdbd9974efdb92ee48bc8d7cd0ae4bf217004db3d080cbaee652ca7"
          ],
          "data": "0x0000000000000000000000000000000000000000000000000000000067873ddc000000000000000000000000000000000000000000000000000397dbbf8fd9400000000000000000000000000000000000000000000000000dc7e3e65973bed7",
          "blockHash": "0x587afd54f2908cce53b79fee09f96cdf98da5c5efba65fc44659c2dfb98c58d8",
          "blockNumber": "0x725ba0",
          "transactionHash": "0x73c2b628a6faa5a4ad7005d188759e1a0902a6a424c651169cf9f6cb7ba5a782",
          "transactionIndex": "0x7a",
          "logIndex": "0x8a",
          "removed": false
        }
      ],
      "logsBloom": "0x00000000000000000000000000000000000000000000000000000000000000000000000000000000000000000000000000000000000000004000000000000000000000000000000000000008000000000000001000000000000000000000000000000000020000000000000000000800020000000000000000000010000000000000000000000000000000000000000000000000000008000000010000000000000000000000000000000000000000004000000000000000000000000000000000000002000000800000000000001000000000000000080000000000000020000000000000000000000000000000000000000000000000000000000000000000",
      "type": "0x2",
      "transactionHash": "0x73c2b628a6faa5a4ad7005d188759e1a0902a6a424c651169cf9f6cb7ba5a782",
      "transactionIndex": "0x7a",
      "blockHash": "0x587afd54f2908cce53b79fee09f96cdf98da5c5efba65fc44659c2dfb98c58d8",
      "blockNumber": "0x725ba0",
      "gasUsed": "0xfb91",
      "effectiveGasPrice": "0x4ce30ecd",
      "from": "0xc77f7fed3b5cc8249adc428c5f44c9063b9734b4",
      "to": "0xbf4a322f1496e5c3d34a9bcdb4c60567b38c7de2",
      "contractAddress": null
    }
  ],
  "libraries": [],
  "pending": [],
  "returns": {},
  "timestamp": 1736916446,
  "chain": 11155111,
  "commit": "51a374b"
}