{
  "transactions": [
    {
      "hash": "0x198b85846ec0cbb7438fba07d73476f366e1fd95efc2f9097db4956452f0ce9b",
      "transactionType": "CALL",
      "contractName": null,
      "contractAddress": "0x8aafd3ede9adb0ff97c7aebce82a919afb1c8764",
      "function": "sell(uint256)",
      "arguments": [
        "12051"
      ],
      "transaction": {
        "from": "0xc77f7fed3b5cc8249adc428c5f44c9063b9734b4",
        "to": "0x8aafd3ede9adb0ff97c7aebce82a919afb1c8764",
        "gas": "0x14e4c",
        "value": "0x0",
        "input": "0xe4849b320000000000000000000000000000000000000000000000000000000000002f13",
        "nonce": "0x1021",
        "chainId": "0xaa36a7"
      },
      "additionalContracts": [],
      "isFixedGasLimit": false
    }
  ],
  "receipts": [
    {
      "status": "0x1",
      "cumulativeGasUsed": "0xb5d993",
      "logs": [
        {
          "address": "0x8aafd3ede9adb0ff97c7aebce82a919afb1c8764",
          "topics": [
            "0xddf252ad1be2c89b69c2b068fc378daa952ba7f163c4a11628f55a4df523b3ef",
            "0x000000000000000000000000c77f7fed3b5cc8249adc428c5f44c9063b9734b4",
            "0x0000000000000000000000000000000000000000000000000000000000000000"
          ],
          "data": "0x0000000000000000000000000000000000000000000000000000000000002eb3",
          "blockHash": "0xcc8edc62774a620c528b681f9ba4f7de1f32613ca9e2e7ff5b1b47b46c329837",
          "blockNumber": "0x731699",
          "transactionHash": "0x198b85846ec0cbb7438fba07d73476f366e1fd95efc2f9097db4956452f0ce9b",
          "transactionIndex": "0x70",
          "logIndex": "0x9e",
          "removed": false
        },
        {
          "address": "0x8aafd3ede9adb0ff97c7aebce82a919afb1c8764",
          "topics": [
            "0xddf252ad1be2c89b69c2b068fc378daa952ba7f163c4a11628f55a4df523b3ef",
            "0x000000000000000000000000c77f7fed3b5cc8249adc428c5f44c9063b9734b4",
            "0x000000000000000000000000c77f7fed3b5cc8249adc428c5f44c9063b9734b4"
          ],
          "data": "0x0000000000000000000000000000000000000000000000000000000000000060",
          "blockHash": "0xcc8edc62774a620c528b681f9ba4f7de1f32613ca9e2e7ff5b1b47b46c329837",
          "blockNumber": "0x731699",
          "transactionHash": "0x198b85846ec0cbb7438fba07d73476f366e1fd95efc2f9097db4956452f0ce9b",
          "transactionIndex": "0x70",
          "logIndex": "0x9f",
          "removed": false
        },
        {
          "address": "0x8aafd3ede9adb0ff97c7aebce82a919afb1c8764",
          "topics": [
            "0x4afcb4a87cdbd9974efdb92ee48bc8d7cd0ae4bf217004db3d080cbaee652ca7"
          ],
          "data": "0x0000000000000000000000000000000000000000000000000000000067900bd80000000000000000000000000000000000000000000000000004eac19642c43e0000000000000000000000000000000000000000000000000000000000000010",
          "blockHash": "0xcc8edc62774a620c528b681f9ba4f7de1f32613ca9e2e7ff5b1b47b46c329837",
          "blockNumber": "0x731699",
          "transactionHash": "0x198b85846ec0cbb7438fba07d73476f366e1fd95efc2f9097db4956452f0ce9b",
          "transactionIndex": "0x70",
          "logIndex": "0xa0",
          "removed": false
        }
      ],
      "logsBloom": "0x00000000000000000000000000000000000000000600000000000000000000000000000000000000000000000000000000000000000000004000000000000000000000000000004000000008000000000000000000000000000000000000000000000000020000000000000000000800020000000000000000000010000000000000000000000000000000000000000000000000000000000000010000000000000000000000000000000000000000004000000000000000000000000000000000000002000000800000000000000000000000000000080000000000000020000000000000000000000000000000000000000000000000000000000000000000",
      "type": "0x2",
      "transactionHash": "0x198b85846ec0cbb7438fba07d73476f366e1fd95efc2f9097db4956452f0ce9b",
      "transactionIndex": "0x70",
      "blockHash": "0xcc8edc62774a620c528b681f9ba4f7de1f32613ca9e2e7ff5b1b47b46c329837",
      "blockNumber": "0x731699",
      "gasUsed": "0xf207",
      "effectiveGasPrice": "0x3e2a9881",
      "from": "0xc77f7fed3b5cc8249adc428c5f44c9063b9734b4",
      "to": "0x8aafd3ede9adb0ff97c7aebce82a919afb1c8764",
      "contractAddress": null
    }
  ],
  "libraries": [],
  "pending": [],
  "returns": {},
  "timestamp": 1737493465,
  "chain": 11155111,
  "commit": "1d2fb70"
}