{
  "transactions": [
    {
      "hash": "0x38011f36ae684e03525a03936d68307dc563c082695b145dd1329360394b5f0e",
      "transactionType": "CALL",
      "contractName": null,
      "contractAddress": "0x8aafd3ede9adb0ff97c7aebce82a919afb1c8764",
      "function": "sell(uint256)",
      "arguments": [
        "746218037606724486745"
      ],
      "transaction": {
        "from": "0xc77f7fed3b5cc8249adc428c5f44c9063b9734b4",
        "to": "0x8aafd3ede9adb0ff97c7aebce82a919afb1c8764",
        "gas": "0x17270",
        "value": "0x0",
        "input": "0xe4849b3200000000000000000000000000000000000000000000002873db079219e54659",
        "nonce": "0xeec",
        "chainId": "0xaa36a7"
      },
      "additionalContracts": [],
      "isFixedGasLimit": false
    }
  ],
  "receipts": [
    {
      "status": "0x1",
      "cumulativeGasUsed": "0xb51125",
      "logs": [
        {
          "address": "0x8aafd3ede9adb0ff97c7aebce82a919afb1c8764",
          "topics": [
            "0xddf252ad1be2c89b69c2b068fc378daa952ba7f163c4a11628f55a4df523b3ef",
            "0x000000000000000000000000c77f7fed3b5cc8249adc428c5f44c9063b9734b4",
            "0x0000000000000000000000000000000000000000000000000000000000000000"
          ],
          "data": "0x00000000000000000000000000000000000000000000002821023cc21597aa24",
          "blockHash": "0x626bea278b03c004b1cec876089d911d0661ad85f757688c7018f8256bf1daeb",
          "blockNumber": "0x731463",
          "transactionHash": "0x38011f36ae684e03525a03936d68307dc563c082695b145dd1329360394b5f0e",
          "transactionIndex": "0x71",
          "logIndex": "0xd0",
          "removed": false
        },
        {
          "address": "0x8aafd3ede9adb0ff97c7aebce82a919afb1c8764",
          "topics": [
            "0xddf252ad1be2c89b69c2b068fc378daa952ba7f163c4a11628f55a4df523b3ef",
            "0x000000000000000000000000c77f7fed3b5cc8249adc428c5f44c9063b9734b4",
            "0x000000000000000000000000c77f7fed3b5cc8249adc428c5f44c9063b9734b4"
          ],
          "data": "0x00000000000000000000000000000000000000000000000052d8cad0044d9c35",
          "blockHash": "0x626bea278b03c004b1cec876089d911d0661ad85f757688c7018f8256bf1daeb",
          "blockNumber": "0x731463",
          "transactionHash": "0x38011f36ae684e03525a03936d68307dc563c082695b145dd1329360394b5f0e",
          "transactionIndex": "0x71",
          "logIndex": "0xd1",
          "removed": false
        },
        {
          "address": "0x8aafd3ede9adb0ff97c7aebce82a919afb1c8764",
          "topics": [
            "0x4afcb4a87cdbd9974efdb92ee48bc8d7cd0ae4bf217004db3d080cbaee652ca7"
          ],
          "data": "0x00000000000000000000000000000000000000000000000000000000678ff1500000000000000000000000000000000000000000000000000004bab0e1013e550000000000000000000000000000000000000000000000000dc83473ac0eed51",
          "blockHash": "0x626bea278b03c004b1cec876089d911d0661ad85f757688c7018f8256bf1daeb",
          "blockNumber": "0x731463",
          "transactionHash": "0x38011f36ae684e03525a03936d68307dc563c082695b145dd1329360394b5f0e",
          "transactionIndex": "0x71",
          "logIndex": "0xd2",
          "removed": false
        }
      ],
      "logsBloom": "0x00000000000000000000000000000000000000000600000000000000000000000000000000000000000000000000000000000000000000004000000000000000000000000000004000000008000000000000000000000000000000000000000000000000020000000000000000000800020000000000000000000010000000000000000000000000000000000000000000000000000000000000010000000000000000000000000000000000000000004000000000000000000000000000000000000002000000800000000000000000000000000000080000000000000020000000000000000000000000000000000000000000000000000000000000000000",
      "type": "0x2",
      "transactionHash": "0x38011f36ae684e03525a03936d68307dc563c082695b145dd1329360394b5f0e",
      "transactionIndex": "0x71",
      "blockHash": "0x626bea278b03c004b1cec876089d911d0661ad85f757688c7018f8256bf1daeb",
      "blockNumber": "0x731463",
      "gasUsed": "0xfd4b",
      "effectiveGasPrice": "0xc68a79e0",
      "from": "0xc77f7fed3b5cc8249adc428c5f44c9063b9734b4",
      "to": "0x8aafd3ede9adb0ff97c7aebce82a919afb1c8764",
      "contractAddress": null
    }
  ],
  "libraries": [],
  "pending": [],
  "returns": {},
  "timestamp": 1737486673,
  "chain": 11155111,
  "commit": "51a374b"
}