{
  "transactions": [
    {
      "hash": "0xb64ff6f07fef53dd71c96459fc961d686432dd138360c54a0b8cc74a14238004",
      "transactionType": "CALL",
      "contractName": null,
      "contractAddress": "0xbf4a322f1496e5c3d34a9bcdb4c60567b38c7de2",
      "function": "sell(uint256)",
      "arguments": [
        "983272824432998835717"
      ],
      "transaction": {
        "from": "0xc77f7fed3b5cc8249adc428c5f44c9063b9734b4",
        "to": "0xbf4a322f1496e5c3d34a9bcdb4c60567b38c7de2",
        "gas": "0x16fea",
        "value": "0x0",
        "input": "0xe4849b320000000000000000000000000000000000000000000000354da6d03817ed6605",
        "nonce": "0xb25",
        "chainId": "0xaa36a7"
      },
      "additionalContracts": [],
      "isFixedGasLimit": false
    }
  ],
  "receipts": [
    {
      "status": "0x1",
      "cumulativeGasUsed": "0xb9ce2f",
      "logs": [
        {
          "address": "0xbf4a322f1496e5c3d34a9bcdb4c60567b38c7de2",
          "topics": [
            "0xddf252ad1be2c89b69c2b068fc378daa952ba7f163c4a11628f55a4df523b3ef",
            "0x000000000000000000000000c77f7fed3b5cc8249adc428c5f44c9063b9734b4",
            "0x0000000000000000000000000000000000000000000000000000000000000000"
          ],
          "data": "0x0000000000000000000000000000000000000000000000354da6d03817ed6605",
          "blockHash": "0x8493693c62519086c3443b23cd541f8d8e08e94716e1fc7698dc65b00d0367b0",
          "blockNumber": "0x725b21",
          "transactionHash": "0xb64ff6f07fef53dd71c96459fc961d686432dd138360c54a0b8cc74a14238004",
          "transactionIndex": "0x64",
          "logIndex": "0xc0",
          "removed": false
        },
        {
          "address": "0xbf4a322f1496e5c3d34a9bcdb4c60567b38c7de2",
          "topics": [
            "0x4afcb4a87cdbd9974efdb92ee48bc8d7cd0ae4bf217004db3d080cbaee652ca7"
          ],
          "data": "0x00000000000000000000000000000000000000000000000000000000678737e80000000000000000000000000000000000000000000000000003968521b496a90000000000000000000000000000000000000000000000000dc7e3e9acfb032b",
          "blockHash": "0x8493693c62519086c3443b23cd541f8d8e08e94716e1fc7698dc65b00d0367b0",
          "blockNumber": "0x725b21",
          "transactionHash": "0xb64ff6f07fef53dd71c96459fc961d686432dd138360c54a0b8cc74a14238004",
          "transactionIndex": "0x64",
          "logIndex": "0xc1",
          "removed": false
        }
      ],
      "logsBloom": "0x00000000000000000000000000000000000000000000000000000000000000000000000000000000000000000000000000000000000000004000000000000000000000000000000000000008000000000000001000000000000000000000000000000000020000000000000000000800020000000000000000000010000000000000000000000000000000000000000000000000000008000000010000000000000000000000000000000000000000004000000000000000000000000000000000000002000000800000000000001000000000000000080000000000000020000000000000000000000000000000000000000000000000000000000000000000",
      "type": "0x2",
      "transactionHash": "0xb64ff6f07fef53dd71c96459fc961d686432dd138360c54a0b8cc74a14238004",
      "transactionIndex": "0x64",
      "blockHash": "0x8493693c62519086c3443b23cd541f8d8e08e94716e1fc7698dc65b00d0367b0",
      "blockNumber": "0x725b21",
      "gasUsed": "0xfb91",
      "effectiveGasPrice": "0x69b42cfe",
      "from": "0xc77f7fed3b5cc8249adc428c5f44c9063b9734b4",
      "to": "0xbf4a322f1496e5c3d34a9bcdb4c60567b38c7de2",
      "contractAddress": null
    }
  ],
  "libraries": [],
  "pending": [],
  "returns": {},
  "timestamp": 1736914921,
  "chain": 11155111,
  "commit": "51a374b"
}