{
  "transactions": [
    {
      "hash": "0x7aa82d432c02469a99d4260ba51883ca236cc27e87b09ea6999328042e202c74",
      "transactionType": "CALL",
      "contractName": null,
      "contractAddress": "0x8aafd3ede9adb0ff97c7aebce82a919afb1c8764",
      "function": "sell(uint256)",
      "arguments": [
        "1465766"
      ],
      "transaction": {
        "from": "0xc77f7fed3b5cc8249adc428c5f44c9063b9734b4",
        "to": "0x8aafd3ede9adb0ff97c7aebce82a919afb1c8764",
        "gas": "0x16208",
        "value": "0x0",
        "input": "0xe4849b320000000000000000000000000000000000000000000000000000000000165da6",
        "nonce": "0x1110",
        "chainId": "0xaa36a7"
      },
      "additionalContracts": [],
      "isFixedGasLimit": false
    }
  ],
  "receipts": [
    {
      "status": "0x1",
      "cumulativeGasUsed": "0xda40f8",
      "logs": [
        {
          "address": "0x8aafd3ede9adb0ff97c7aebce82a919afb1c8764",
          "topics": [
            "0xddf252ad1be2c89b69c2b068fc378daa952ba7f163c4a11628f55a4df523b3ef",
            "0x000000000000000000000000c77f7fed3b5cc8249adc428c5f44c9063b9734b4",
            "0x0000000000000000000000000000000000000000000000000000000000000000"
          ],
          "data": "0x0000000000000000000000000000000000000000000000000000000000162fd8",
          "blockHash": "0x69209f33ce2fa53dd370a75ebf7436bad4947a19e19301e2cc9f3749441f94f9",
          "blockNumber": "0x7317c2",
          "transactionHash": "0x7aa82d432c02469a99d4260ba51883ca236cc27e87b09ea6999328042e202c74",
          "transactionIndex": "0xad",
          "logIndex": "0xd1",
          "removed": false
        },
        {
          "address": "0x8aafd3ede9adb0ff97c7aebce82a919afb1c8764",
          "topics": [
            "0xddf252ad1be2c89b69c2b068fc378daa952ba7f163c4a11628f55a4df523b3ef",
            "0x000000000000000000000000c77f7fed3b5cc8249adc428c5f44c9063b9734b4",
            "0x000000000000000000000000c77f7fed3b5cc8249adc428c5f44c9063b9734b4"
          ],
          "data": "0x0000000000000000000000000000000000000000000000000000000000002dce",
          "blockHash": "0x69209f33ce2fa53dd370a75ebf7436bad4947a19e19301e2cc9f3749441f94f9",
          "blockNumber": "0x7317c2",
          "transactionHash": "0x7aa82d432c02469a99d4260ba51883ca236cc27e87b09ea6999328042e202c74",
          "transactionIndex": "0xad",
          "logIndex": "0xd2",
          "removed": false
        },
        {
          "address": "0x8aafd3ede9adb0ff97c7aebce82a919afb1c8764",
          "topics": [
            "0x4afcb4a87cdbd9974efdb92ee48bc8d7cd0ae4bf217004db3d080cbaee652ca7"
          ],
          "data": "0x00000000000000000000000000000000000000000000000000000000679019dc00000000000000000000000000000000000000000000000000050d9c906541880000000000000000000000000000000000000000000000000000000000000824",
          "blockHash": "0x69209f33ce2fa53dd370a75ebf7436bad4947a19e19301e2cc9f3749441f94f9",
          "blockNumber": "0x7317c2",
          "transactionHash": "0x7aa82d432c02469a99d4260ba51883ca236cc27e87b09ea6999328042e202c74",
          "transactionIndex": "0xad",
          "logIndex": "0xd3",
          "removed": false
        }
      ],
      "logsBloom": "0x00000000000000000000000000000000000000000600000000000000000000000000000000000000000000000000000000000000000000004000000000000000000000000000004000000008000000000000000000000000000000000000000000000000020000000000000000000800020000000000000000000010000000000000000000000000000000000000000000000000000000000000010000000000000000000000000000000000000000004000000000000000000000000000000000000002000000800000000000000000000000000000080000000000000020000000000000000000000000000000000000000000000000000000000000000000",
      "type": "0x2",
      "transactionHash": "0x7aa82d432c02469a99d4260ba51883ca236cc27e87b09ea6999328042e202c74",
      "transactionIndex": "0xad",
      "blockHash": "0x69209f33ce2fa53dd370a75ebf7436bad4947a19e19301e2cc9f3749441f94f9",
      "blockNumber": "0x7317c2",
      "gasUsed": "0xf213",
      "effectiveGasPrice": "0x5355d7eb",
      "from": "0xc77f7fed3b5cc8249adc428c5f44c9063b9734b4",
      "to": "0x8aafd3ede9adb0ff97c7aebce82a919afb1c8764",
      "contractAddress": null
    }
  ],
  "libraries": [],
  "pending": [],
  "returns": {},
  "timestamp": 1737497053,
  "chain": 11155111,
  "commit": "1d2fb70"
}