{
  "transactions": [
    {
      "hash": "0xe6655620e5cd7728ec89d5f710a1cc9b81dfaa645b00de7037317be4c6bc5df5",
      "transactionType": "CALL",
      "contractName": null,
      "contractAddress": "0x8aafd3ede9adb0ff97c7aebce82a919afb1c8764",
      "function": "sell(uint256)",
      "arguments": [
        "2338672430065345994"
      ],
      "transaction": {
        "from": "0xc77f7fed3b5cc8249adc428c5f44c9063b9734b4",
        "to": "0x8aafd3ede9adb0ff97c7aebce82a919afb1c8764",
        "gas": "0x15dca",
        "value": "0x0",
        "input": "0xe4849b320000000000000000000000000000000000000000000000002074a22f300b65ca",
        "nonce": "0x1350",
        "chainId": "0xaa36a7"
      },
      "additionalContracts": [],
      "isFixedGasLimit": false
    }
  ],
  "receipts": [
    {
      "status": "0x1",
      "cumulativeGasUsed": "0x923758",
      "logs": [
        {
          "address": "0x8aafd3ede9adb0ff97c7aebce82a919afb1c8764",
          "topics": [
            "0xddf252ad1be2c89b69c2b068fc378daa952ba7f163c4a11628f55a4df523b3ef",
            "0x000000000000000000000000c77f7fed3b5cc8249adc428c5f44c9063b9734b4",
            "0x0000000000000000000000000000000000000000000000000000000000000000"
          ],
          "data": "0x00000000000000000000000000000000000000000000000020322a1a54862fbb",
          "blockHash": "0x6801ebdfdfbd64e7628e989fccc4b54e1f249138f2dd636fece57481c3b192d7",
          "blockNumber": "0x731a6b",
          "transactionHash": "0xe6655620e5cd7728ec89d5f710a1cc9b81dfaa645b00de7037317be4c6bc5df5",
          "transactionIndex": "0x76",
          "logIndex": "0x75",
          "removed": false
        },
        {
          "address": "0x8aafd3ede9adb0ff97c7aebce82a919afb1c8764",
          "topics": [
            "0xddf252ad1be2c89b69c2b068fc378daa952ba7f163c4a11628f55a4df523b3ef",
            "0x000000000000000000000000c77f7fed3b5cc8249adc428c5f44c9063b9734b4",
            "0x000000000000000000000000c77f7fed3b5cc8249adc428c5f44c9063b9734b4"
          ],
          "data": "0x00000000000000000000000000000000000000000000000000427814db85360f",
          "blockHash": "0x6801ebdfdfbd64e7628e989fccc4b54e1f249138f2dd636fece57481c3b192d7",
          "blockNumber": "0x731a6b",
          "transactionHash": "0xe6655620e5cd7728ec89d5f710a1cc9b81dfaa645b00de7037317be4c6bc5df5",
          "transactionIndex": "0x76",
          "logIndex": "0x76",
          "removed": false
        },
        {
          "address": "0x8aafd3ede9adb0ff97c7aebce82a919afb1c8764",
          "topics": [
            "0x4afcb4a87cdbd9974efdb92ee48bc8d7cd0ae4bf217004db3d080cbaee652ca7"
          ],
          "data": "0x00000000000000000000000000000000000000000000000000000000679039d4000000000000000000000000000000000000000000000000000c2b660e785fd0000000000000000000000000000000000000000000000000001c758584b45361",
          "blockHash": "0x6801ebdfdfbd64e7628e989fccc4b54e1f249138f2dd636fece57481c3b192d7",
          "blockNumber": "0x731a6b",
          "transactionHash": "0xe6655620e5cd7728ec89d5f710a1cc9b81dfaa645b00de7037317be4c6bc5df5",
          "transactionIndex": "0x76",
          "logIndex": "0x77",
          "removed": false
        }
      ],
      "logsBloom": "0x00000000000000000000000000000000000000000600000000000000000000000000000000000000000000000000000000000000000000004000000000000000000000000000004000000008000000000000000000000000000000000000000000000000020000000000000000000800020000000000000000000010000000000000000000000000000000000000000000000000000000000000010000000000000000000000000000000000000000004000000000000000000000000000000000000002000000800000000000000000000000000000080000000000000020000000000000000000000000000000000000000000000000000000000000000000",
      "type": "0x2",
      "transactionHash": "0xe6655620e5cd7728ec89d5f710a1cc9b81dfaa645b00de7037317be4c6bc5df5",
      "transactionIndex": "0x76",
      "blockHash": "0x6801ebdfdfbd64e7628e989fccc4b54e1f249138f2dd636fece57481c3b192d7",
      "blockNumber": "0x731a6b",
      "gasUsed": "0xfd3f",
      "effectiveGasPrice": "0x4391604d",
      "from": "0xc77f7fed3b5cc8249adc428c5f44c9063b9734b4",
      "to": "0x8aafd3ede9adb0ff97c7aebce82a919afb1c8764",
      "contractAddress": null
    }
  ],
  "libraries": [],
  "pending": [],
  "returns": {},
  "timestamp": 1737505237,
  "chain": 11155111,
  "commit": "1d2fb70"
}