{
  "transactions": [
    {
      "hash": "0xe6306aa8046fa5adeccf958ea60b0edcc0e80ca116e4f9e136ed959daeec5ce1",
      "transactionType": "CALL",
      "contractName": null,
      "contractAddress": "0x5eb9cc76c3506942c1c0ead70e877dd5e4f00cb0",
      "function": "buy(address)",
      "arguments": [
        "0xC77f7fed3b5Cc8249aDc428c5F44C9063B9734b4"
      ],
      "transaction": {
        "from": "0xc77f7fed3b5cc8249adc428c5f44c9063b9734b4",
        "to": "0x5eb9cc76c3506942c1c0ead70e877dd5e4f00cb0",
        "gas": "0x1b30c",
        "value": "0xde0b6b3a7640000",
        "input": "0xf088d547000000000000000000000000c77f7fed3b5cc8249adc428c5f44c9063b9734b4",
        "nonce": "0x2ee",
        "chainId": "0xaa36a7"
      },
      "additionalContracts": [],
      "isFixedGasLimit": false
    }
  ],
  "receipts": [
    {
      "status": "0x1",
      "cumulativeGasUsed": "0x1104983",
      "logs": [
        {
          "address": "0x5eb9cc76c3506942c1c0ead70e877dd5e4f00cb0",
          "topics": [
            "0xddf252ad1be2c89b69c2b068fc378daa952ba7f163c4a11628f55a4df523b3ef",
            "0x0000000000000000000000000000000000000000000000000000000000000000",
            "0x000000000000000000000000c77f7fed3b5cc8249adc428c5f44c9063b9734b4"
          ],
          "data": "0x000000000000000000000000000000000000000000000035759ce12cdc6f17ff",
          "blockHash": "0xfe0ee8fa2dd2bf9643fc5849318d200d6fbc6255221ceef6a3a31e347f7e63cd",
          "blockNumber": "0x724ece",
          "transactionHash": "0xe6306aa8046fa5adeccf958ea60b0edcc0e80ca116e4f9e136ed959daeec5ce1",
          "transactionIndex": "0x78",
          "logIndex": "0x9a",
          "removed": false
        },
        {
          "address": "0x5eb9cc76c3506942c1c0ead70e877dd5e4f00cb0",
          "topics": [
            "0xddf252ad1be2c89b69c2b068fc378daa952ba7f163c4a11628f55a4df523b3ef",
            "0x0000000000000000000000000000000000000000000000000000000000000000",
            "0x000000000000000000000000c77f7fed3b5cc8249adc428c5f44c9063b9734b4"
          ],
          "data": "0x0000000000000000000000000000000000000000000000002983585c8b2bd89f",
          "blockHash": "0xfe0ee8fa2dd2bf9643fc5849318d200d6fbc6255221ceef6a3a31e347f7e63cd",
          "blockNumber": "0x724ece",
          "transactionHash": "0xe6306aa8046fa5adeccf958ea60b0edcc0e80ca116e4f9e136ed959daeec5ce1",
          "transactionIndex": "0x78",
          "logIndex": "0x9b",
          "removed": false
        },
        {
          "address": "0x5eb9cc76c3506942c1c0ead70e877dd5e4f00cb0",
          "topics": [
            "0x4afcb4a87cdbd9974efdb92ee48bc8d7cd0ae4bf217004db3d080cbaee652ca7"
          ],
          "data": "0x000000000000000000000000000000000000000000000000000000006786a35c0000000000000000000000000000000000000000000000000003910b1b024cae0000000000000000000000000000000000000000000000000de0b6b3a7640000",
          "blockHash": "0xfe0ee8fa2dd2bf9643fc5849318d200d6fbc6255221ceef6a3a31e347f7e63cd",
          "blockNumber": "0x724ece",
          "transactionHash": "0xe6306aa8046fa5adeccf958ea60b0edcc0e80ca116e4f9e136ed959daeec5ce1",
          "transactionIndex": "0x78",
          "logIndex": "0x9c",
          "removed": false
        }
      ],
      "logsBloom": "0x00000000000000000000000000000000000000000000000000000000000000000000000000000000000000000000000000000000000000004000000000000000000000000000000000000008000000000000000000000000000000000000000000000000020000000000000004000800020000000000000000000010000000000000000000000000000000000000000000000000000000000000010000000000000000000000000000000000000000004000000000000000000000000000020000000002000000800000008000000000000000000000080000000000000020000000000000000000000000000000000000000000000000000000000000000000",
      "type": "0x2",
      "transactionHash": "0xe6306aa8046fa5adeccf958ea60b0edcc0e80ca116e4f9e136ed959daeec5ce1",
      "transactionIndex": "0x78",
      "blockHash": "0xfe0ee8fa2dd2bf9643fc5849318d200d6fbc6255221ceef6a3a31e347f7e63cd",
      "blockNumber": "0x724ece",
      "gasUsed": "0x13af8",
      "effectiveGasPrice": "0x5977a2a17",
      "from": "0xc77f7fed3b5cc8249adc428c5f44c9063b9734b4",
      "to": "0x5eb9cc76c3506942c1c0ead70e877dd5e4f00cb0",
      "contractAddress": null
    }
  ],
  "libraries": [],
  "pending": [],
  "returns": {},
  "timestamp": 1736876894,
  "chain": 11155111,
  "commit": "51a374b"
}