{
  "transactions": [
    {
      "hash": "0xc406b0446cc6f0070dc8694c6ddb7da70b5fdaa1f698351f7eea1ab8e7f5fac5",
      "transactionType": "CALL",
      "contractName": null,
      "contractAddress": "0x8aafd3ede9adb0ff97c7aebce82a919afb1c8764",
      "function": "sell(uint256)",
      "arguments": [
        "81292563841213"
      ],
      "transaction": {
        "from": "0xc77f7fed3b5cc8249adc428c5f44c9063b9734b4",
        "to": "0x8aafd3ede9adb0ff97c7aebce82a919afb1c8764",
        "gas": "0x1722a",
        "value": "0x0",
        "input": "0xe4849b32000000000000000000000000000000000000000000000000000049ef666400bd",
        "nonce": "0x16c4",
        "chainId": "0xaa36a7"
      },
      "additionalContracts": [],
      "isFixedGasLimit": false
    }
  ],
  "receipts": [
    {
      "status": "0x1",
      "cumulativeGasUsed": "0x846c08",
      "logs": [
        {
          "address": "0x8aafd3ede9adb0ff97c7aebce82a919afb1c8764",
          "topics": [
            "0xddf252ad1be2c89b69c2b068fc378daa952ba7f163c4a11628f55a4df523b3ef",
            "0x000000000000000000000000c77f7fed3b5cc8249adc428c5f44c9063b9734b4",
            "0x0000000000000000000000000000000000000000000000000000000000000000"
          ],
          "data": "0x00000000000000000000000000000000000000000000000000004957fb1354b4",
          "blockHash": "0x4e8151210bf27ec07b3413d3b63a3210754e5e318a4a0d89f05908edc36f69ff",
          "blockNumber": "0x731e7e",
          "transactionHash": "0xc406b0446cc6f0070dc8694c6ddb7da70b5fdaa1f698351f7eea1ab8e7f5fac5",
          "transactionIndex": "0x4f",
          "logIndex": "0x66",
          "removed": false
        },
        {
          "address": "0x8aafd3ede9adb0ff97c7aebce82a919afb1c8764",
          "topics": [
            "0xddf252ad1be2c89b69c2b068fc378daa952ba7f163c4a11628f55a4df523b3ef",
            "0x000000000000000000000000c77f7fed3b5cc8249adc428c5f44c9063b9734b4",
            "0x000000000000000000000000c77f7fed3b5cc8249adc428c5f44c9063b9734b4"
          ],
          "data": "0x000000000000000000000000000000000000000000000000000000976b50ac09",
          "blockHash": "0x4e8151210bf27ec07b3413d3b63a3210754e5e318a4a0d89f05908edc36f69ff",
          "blockNumber": "0x731e7e",
          "transactionHash": "0xc406b0446cc6f0070dc8694c6ddb7da70b5fdaa1f698351f7eea1ab8e7f5fac5",
          "transactionIndex": "0x4f",
          "logIndex": "0x67",
          "removed": false
        },
        {
          "address": "0x8aafd3ede9adb0ff97c7aebce82a919afb1c8764",
          "topics": [
            "0x4afcb4a87cdbd9974efdb92ee48bc8d7cd0ae4bf217004db3d080cbaee652ca7"
          ],
          "data": "0x0000000000000000000000000000000000000000000000000000000067906ad000000000000000000000000000000000000000000000000000165306960eb59d00000000000000000000000000000000000000000000000000000076ef4f904c",
          "blockHash": "0x4e8151210bf27ec07b3413d3b63a3210754e5e318a4a0d89f05908edc36f69ff",
          "blockNumber": "0x731e7e",
          "transactionHash": "0xc406b0446cc6f0070dc8694c6ddb7da70b5fdaa1f698351f7eea1ab8e7f5fac5",
          "transactionIndex": "0x4f",
          "logIndex": "0x68",
          "removed": false
        }
      ],
      "logsBloom": "0x00000000000000000000000000000000000000000600000000000000000000000000000000000000000000000000000000000000000000004000000000000000000000000000004000000008000000000000000000000000000000000000000000000000020000000000000000000800020000000000000000000010000000000000000000000000000000000000000000000000000000000000010000000000000000000000000000000000000000004000000000000000000000000000000000000002000000800000000000000000000000000000080000000000000020000000000000000000000000000000000000000000000000000000000000000000",
      "type": "0x2",
      "transactionHash": "0xc406b0446cc6f0070dc8694c6ddb7da70b5fdaa1f698351f7eea1ab8e7f5fac5",
      "transactionIndex": "0x4f",
      "blockHash": "0x4e8151210bf27ec07b3413d3b63a3210754e5e318a4a0d89f05908edc36f69ff",
      "blockNumber": "0x731e7e",
      "gasUsed": "0xfd1b",
      "effectiveGasPrice": "0x4613e4b0",
      "from": "0xc77f7fed3b5cc8249adc428c5f44c9063b9734b4",
      "to": "0x8aafd3ede9adb0ff97c7aebce82a919afb1c8764",
      "contractAddress": null
    }
  ],
  "libraries": [],
  "pending": [],
  "returns": {},
  "timestamp": 1737517778,
  "chain": 11155111,
  "commit": "1d2fb70"
}