{
  "transactions": [
    {
      "hash": "0xa0b912325f48ae508ab23cd2264cab91d55fe940c84ba8c671dc3bfde91126c7",
      "transactionType": "CALL",
      "contractName": null,
      "contractAddress": "0x270e88f8683660553e8ba4eb2ad7c91a1710d769",
      "function": "sell(uint256)",
      "arguments": [
        "719048136978580447630"
      ],
      "transaction": {
        "from": "0xc77f7fed3b5cc8249adc428c5f44c9063b9734b4",
        "to": "0x270e88f8683660553e8ba4eb2ad7c91a1710d769",
        "gas": "0x16fec",
        "value": "0x0",
        "input": "0xe4849b32000000000000000000000000000000000000000000000026facc26e6d6b5218e",
        "nonce": "0x82e",
        "chainId": "0xaa36a7"
      },
      "additionalContracts": [],
      "isFixedGasLimit": false
    }
  ],
  "receipts": [
    {
      "status": "0x1",
      "cumulativeGasUsed": "0x5e05ed",
      "logs": [
        {
          "address": "0x270e88f8683660553e8ba4eb2ad7c91a1710d769",
          "topics": [
            "0xddf252ad1be2c89b69c2b068fc378daa952ba7f163c4a11628f55a4df523b3ef",
            "0x000000000000000000000000c77f7fed3b5cc8249adc428c5f44c9063b9734b4",
            "0x0000000000000000000000000000000000000000000000000000000000000000"
          ],
          "data": "0x000000000000000000000000000000000000000000000026facc26e6d6b5218e",
          "blockHash": "0x6d312b0837bd1bc7af6968abb6c2661877715d1d7ec2cd0d0868d300c08091d4",
          "blockNumber": "0x725577",
          "transactionHash": "0xa0b912325f48ae508ab23cd2264cab91d55fe940c84ba8c671dc3bfde91126c7",
          "transactionIndex": "0x32",
          "logIndex": "0x56",
          "removed": false
        },
        {
          "address": "0x270e88f8683660553e8ba4eb2ad7c91a1710d769",
          "topics": [
            "0x4afcb4a87cdbd9974efdb92ee48bc8d7cd0ae4bf217004db3d080cbaee652ca7"
          ],
          "data": "0x000000000000000000000000000000000000000000000000000000006786f39c0000000000000000000000000000000000000000000000000004e84d51b2700a0000000000000000000000000000000000000000000000000dc82654ad21be0b",
          "blockHash": "0x6d312b0837bd1bc7af6968abb6c2661877715d1d7ec2cd0d0868d300c08091d4",
          "blockNumber": "0x725577",
          "transactionHash": "0xa0b912325f48ae508ab23cd2264cab91d55fe940c84ba8c671dc3bfde91126c7",
          "transactionIndex": "0x32",
          "logIndex": "0x57",
          "removed": false
        }
      ],
      "logsBloom": "0x00000000000000000000000000000000000000000000000000000000000000000000000000000000000000000000000020000000000000004000000000000000000000000000000000000008000000000000000000000000000000000000000000000000020000000000000000000800020000000000000000000010000000000000000000010000000000000000000000000000000000000000010000000000000000000000000000000000000000004000000000000000000000000000000000000002000000800000000000000000000000000000080000008000000020000000000000000000000000000000000000000000000000000000000000000000",
      "type": "0x2",
      "transactionHash": "0xa0b912325f48ae508ab23cd2264cab91d55fe940c84ba8c671dc3bfde91126c7",
      "transactionIndex": "0x32",
      "blockHash": "0x6d312b0837bd1bc7af6968abb6c2661877715d1d7ec2cd0d0868d300c08091d4",
      "blockNumber": "0x725577",
      "gasUsed": "0xfb93",
      "effectiveGasPrice": "0x88dbd81d",
      "from": "0xc77f7fed3b5cc8249adc428c5f44c9063b9734b4",
      "to": "0x270e88f8683660553e8ba4eb2ad7c91a1710d769",
      "contractAddress": null
    }
  ],
  "libraries": [],
  "pending": [],
  "returns": {},
  "timestamp": 1736897437,
  "chain": 11155111,
  "commit": "51a374b"
}