{
  "transactions": [
    {
      "hash": "0x60c75260c870f43b5f65e00432e0e459ec2a99d7f3446d965fc7559e5225d96c",
      "transactionType": "CALL",
      "contractName": null,
      "contractAddress": "0xc35ac92a931c0a4a53ecc09338b9ed77044b1053",
      "function": "borrow(uint256,uint256)",
      "arguments": [
        "109899999999982",
        "0"
      ],
      "transaction": {
        "from": "0xc77f7fed3b5cc8249adc428c5f44c9063b9734b4",
        "to": "0xc35ac92a931c0a4a53ecc09338b9ed77044b1053",
        "gas": "0x50cad",
        "value": "0x0",
        "input": "0x0ecbcdab000000000000000000000000000000000000000000000000000063f41675f7ee0000000000000000000000000000000000000000000000000000000000000000",
        "nonce": "0x188b",
        "chainId": "0xaa36a7"
      },
      "additionalContracts": [],
      "isFixedGasLimit": false
    }
  ],
  "receipts": [
    {
      "status": "0x1",
      "cumulativeGasUsed": "0x8a0d75",
      "logs": [
        {
          "address": "0xc35ac92a931c0a4a53ecc09338b9ed77044b1053",
          "topics": [
            "0xddf252ad1be2c89b69c2b068fc378daa952ba7f163c4a11628f55a4df523b3ef",
            "0x000000000000000000000000c77f7fed3b5cc8249adc428c5f44c9063b9734b4",
            "0x000000000000000000000000c35ac92a931c0a4a53ecc09338b9ed77044b1053"
          ],
          "data": "0x000000000000000000000000000000000000000000000000008da12355c36a8e",
          "blockHash": "0x36c9bc507f576965692f3da6d0312fb18b2a9ccd09f42fa5135eb37fceb9bcf8",
          "blockNumber": "0x737f34",
          "transactionHash": "0x60c75260c870f43b5f65e00432e0e459ec2a99d7f3446d965fc7559e5225d96c",
          "transactionIndex": "0x58",
          "logIndex": "0x88",
          "removed": false
        },
        {
          "address": "0xc35ac92a931c0a4a53ecc09338b9ed77044b1053",
          "topics": [
            "0xddf252ad1be2c89b69c2b068fc378daa952ba7f163c4a11628f55a4df523b3ef",
            "0x000000000000000000000000c35ac92a931c0a4a53ecc09338b9ed77044b1053",
            "0x000000000000000000000000c77f7fed3b5cc8249adc428c5f44c9063b9734b4"
          ],
          "data": "0x00000000000000000000000000000000000000000000000000000ae08c56ddd8",
          "blockHash": "0x36c9bc507f576965692f3da6d0312fb18b2a9ccd09f42fa5135eb37fceb9bcf8",
          "blockNumber": "0x737f34",
          "transactionHash": "0x60c75260c870f43b5f65e00432e0e459ec2a99d7f3446d965fc7559e5225d96c",
          "transactionIndex": "0x58",
          "logIndex": "0x89",
          "removed": false
        },
        {
          "address": "0xc35ac92a931c0a4a53ecc09338b9ed77044b1053",
          "topics": [
            "0xddf252ad1be2c89b69c2b068fc378daa952ba7f163c4a11628f55a4df523b3ef",
            "0x000000000000000000000000c35ac92a931c0a4a53ecc09338b9ed77044b1053",
            "0x0000000000000000000000000000000000000000000000000000000000000000"
          ],
          "data": "0x0000000000000000000000000000000000000000000000000000196147755afb",
          "blockHash": "0x36c9bc507f576965692f3da6d0312fb18b2a9ccd09f42fa5135eb37fceb9bcf8",
          "blockNumber": "0x737f34",
          "transactionHash": "0x60c75260c870f43b5f65e00432e0e459ec2a99d7f3446d965fc7559e5225d96c",
          "transactionIndex": "0x58",
          "logIndex": "0x8a",
          "removed": false
        },
        {
          "address": "0xc35ac92a931c0a4a53ecc09338b9ed77044b1053",
          "topics": [
            "0x03bbe564cb1b78e43195eeadbde99e5b89b19345862807fcfb59f884e4165e25"
          ],
          "data": "0x000000000000000000000000c77f7fed3b5cc8249adc428c5f44c9063b9734b4000000000000000000000000000000000000000000000000000062dadfe947af",
          "blockHash": "0x36c9bc507f576965692f3da6d0312fb18b2a9ccd09f42fa5135eb37fceb9bcf8",
          "blockNumber": "0x737f34",
          "transactionHash": "0x60c75260c870f43b5f65e00432e0e459ec2a99d7f3446d965fc7559e5225d96c",
          "transactionIndex": "0x58",
          "logIndex": "0x8b",
          "removed": false
        },
        {
          "address": "0xc35ac92a931c0a4a53ecc09338b9ed77044b1053",
          "topics": [
            "0xaec00f5213a37254bc68a26b0685d1a5b2bf513e1e587c94c7df7f4a62b56c9c"
          ],
          "data": "0x000000000000000000000000000000000000000000000000008d7ce181f731bb000000000000000000000000000000000000000000000000000062dadfe947af000000000000000000000000000000000000000000000000000062dadfe947af000000000000000000000000000000000000000000000000008d7ce181f731bb",
          "blockHash": "0x36c9bc507f576965692f3da6d0312fb18b2a9ccd09f42fa5135eb37fceb9bcf8",
          "blockNumber": "0x737f34",
          "transactionHash": "0x60c75260c870f43b5f65e00432e0e459ec2a99d7f3446d965fc7559e5225d96c",
          "transactionIndex": "0x58",
          "logIndex": "0x8c",
          "removed": false
        },
        {
          "address": "0xc35ac92a931c0a4a53ecc09338b9ed77044b1053",
          "topics": [
            "0x4afcb4a87cdbd9974efdb92ee48bc8d7cd0ae4bf217004db3d080cbaee652ca7"
          ],
          "data": "0x0000000000000000000000000000000000000000000000000000000067951c980000000000000000000000000000000000000000000000000009cd0bc9d6aaa800000000000000000000000000000000000000000000000000000019968ceaff",
          "blockHash": "0x36c9bc507f576965692f3da6d0312fb18b2a9ccd09f42fa5135eb37fceb9bcf8",
          "blockNumber": "0x737f34",
          "transactionHash": "0x60c75260c870f43b5f65e00432e0e459ec2a99d7f3446d965fc7559e5225d96c",
          "transactionIndex": "0x58",
          "logIndex": "0x8d",
          "removed": false
        }
      ],
      "logsBloom": "0x00000000000000008000000000000100400000000000000000000000000000002008000000000000000000000000000000002000000000004000000800000000000000000000000000000008000000000000000000000000000000000000100000000000020000000000000000000800020000000000000000000010000000000000000000000000000000000000010000000000000000000000010080000000000000000000000000000400000000004000000000000000000000001000000000000002000000800000000000000000000000000000080000000000000020000000000000000000000000000000000000000000000000000000000000000000",
      "type": "0x2",
      "transactionHash": "0x60c75260c870f43b5f65e00432e0e459ec2a99d7f3446d965fc7559e5225d96c",
      "transactionIndex": "0x58",
      "blockHash": "0x36c9bc507f576965692f3da6d0312fb18b2a9ccd09f42fa5135eb37fceb9bcf8",
      "blockNumber": "0x737f34",
      "gasUsed": "0x373e2",
      "effectiveGasPrice": "0x49d8ad0ea",
      "from": "0xc77f7fed3b5cc8249adc428c5f44c9063b9734b4",
      "to": "0xc35ac92a931c0a4a53ecc09338b9ed77044b1053",
      "contractAddress": null
    }
  ],
  "libraries": [],
  "pending": [],
  "returns": {},
  "timestamp": 1737825434,
  "chain": 11155111,
  "commit": "f5162e9"
}