{
  "transactions": [
    {
      "hash": "0xb5f54e4c70fefef3c00d7ce45bd117cadd7231caa50f3b86dcad9607436e2874",
      "transactionType": "CALL",
      "contractName": null,
      "contractAddress": "0x5eb9cc76c3506942c1c0ead70e877dd5e4f00cb0",
      "function": "buy(address)",
      "arguments": [
        "0xC77f7fed3b5Cc8249aDc428c5F44C9063B9734b4"
      ],
      "transaction": {
        "from": "0xc77f7fed3b5cc8249adc428c5f44c9063b9734b4",
        "to": "0x5eb9cc76c3506942c1c0ead70e877dd5e4f00cb0",
        "gas": "0x156c8",
        "value": "0xde0b6b3a7640000",
        "input": "0xf088d547000000000000000000000000c77f7fed3b5cc8249adc428c5f44c9063b9734b4",
        "nonce": "0x139",
        "chainId": "0xaa36a7"
      },
      "additionalContracts": [],
      "isFixedGasLimit": false
    }
  ],
  "receipts": [
    {
      "status": "0x1",
      "cumulativeGasUsed": "0x9fc4c8",
      "logs": [
        {
          "address": "0x5eb9cc76c3506942c1c0ead70e877dd5e4f00cb0",
          "topics": [
            "0xddf252ad1be2c89b69c2b068fc378daa952ba7f163c4a11628f55a4df523b3ef",
            "0x0000000000000000000000000000000000000000000000000000000000000000",
            "0x000000000000000000000000c77f7fed3b5cc8249adc428c5f44c9063b9734b4"
          ],
          "data": "0x000000000000000000000000000000000000000000000035aafb8aa66de9522c",
          "blockHash": "0x5c4ecd88c6121f62e07f6e8f558339f6cced2e7804cdd50f6a3518d708380c7a",
          "blockNumber": "0x723b20",
          "transactionHash": "0xb5f54e4c70fefef3c00d7ce45bd117cadd7231caa50f3b86dcad9607436e2874",
          "transactionIndex": "0x5c",
          "logIndex": "0x7c",
          "removed": false
        },
        {
          "address": "0x5eb9cc76c3506942c1c0ead70e877dd5e4f00cb0",
          "topics": [
            "0xddf252ad1be2c89b69c2b068fc378daa952ba7f163c4a11628f55a4df523b3ef",
            "0x0000000000000000000000000000000000000000000000000000000000000000",
            "0x000000000000000000000000c77f7fed3b5cc8249adc428c5f44c9063b9734b4"
          ],
          "data": "0x00000000000000000000000000000000000000000000000029acc9e273f59678",
          "blockHash": "0x5c4ecd88c6121f62e07f6e8f558339f6cced2e7804cdd50f6a3518d708380c7a",
          "blockNumber": "0x723b20",
          "transactionHash": "0xb5f54e4c70fefef3c00d7ce45bd117cadd7231caa50f3b86dcad9607436e2874",
          "transactionIndex": "0x5c",
          "logIndex": "0x7d",
          "removed": false
        },
        {
          "address": "0x5eb9cc76c3506942c1c0ead70e877dd5e4f00cb0",
          "topics": [
            "0x4afcb4a87cdbd9974efdb92ee48bc8d7cd0ae4bf217004db3d080cbaee652ca7"
          ],
          "data": "0x000000000000000000000000000000000000000000000000000000006785b6d400000000000000000000000000000000000000000000000000038d7f225bb1660000000000000000000000000000000000000000000000000de0b6b3a7640000",
          "blockHash": "0x5c4ecd88c6121f62e07f6e8f558339f6cced2e7804cdd50f6a3518d708380c7a",
          "blockNumber": "0x723b20",
          "transactionHash": "0xb5f54e4c70fefef3c00d7ce45bd117cadd7231caa50f3b86dcad9607436e2874",
          "transactionIndex": "0x5c",
          "logIndex": "0x7e",
          "removed": false
        }
      ],
      "logsBloom": "0x00000000000000000000000000000000000000000000000000000000000000000000000000000000000000000000000000000000000000004000000000000000000000000000000000000008000000000000000000000000000000000000000000000000020000000000000004000800020000000000000000000010000000000000000000000000000000000000000000000000000000000000010000000000000000000000000000000000000000004000000000000000000000000000020000000002000000800000008000000000000000000000080000000000000020000000000000000000000000000000000000000000000000000000000000000000",
      "type": "0x2",
      "transactionHash": "0xb5f54e4c70fefef3c00d7ce45bd117cadd7231caa50f3b86dcad9607436e2874",
      "transactionIndex": "0x5c",
      "blockHash": "0x5c4ecd88c6121f62e07f6e8f558339f6cced2e7804cdd50f6a3518d708380c7a",
      "blockNumber": "0x723b20",
      "gasUsed": "0xf82c",
      "effectiveGasPrice": "0x4cc6b5b6b",
      "from": "0xc77f7fed3b5cc8249adc428c5f44c9063b9734b4",
      "to": "0x5eb9cc76c3506942c1c0ead70e877dd5e4f00cb0",
      "contractAddress": null
    }
  ],
  "libraries": [],
  "pending": [],
  "returns": {},
  "timestamp": 1736816341,
  "chain": 11155111,
  "commit": "51a374b"
}