{
  "transactions": [
    {
      "hash": "0xa2f934d6ec6e3099e29f61b9817099ae7acfe8f12e34eafafb8ada13e607ad62",
      "transactionType": "CALL",
      "contractName": null,
      "contractAddress": "0xd7bc75898e513accccf720a874d44dab5a4b6223",
      "function": "sell(uint256)",
      "arguments": [
        "9929992485785163772"
      ],
      "transaction": {
        "from": "0xc77f7fed3b5cc8249adc428c5f44c9063b9734b4",
        "to": "0xd7bc75898e513accccf720a874d44dab5a4b6223",
        "gas": "0x15b6b",
        "value": "0x0",
        "input": "0xe4849b3200000000000000000000000000000000000000000000000089ce6b8df185d7fc",
        "nonce": "0xb9",
        "chainId": "0xaa36a7"
      },
      "additionalContracts": [],
      "isFixedGasLimit": false
    }
  ],
  "receipts": [
    {
      "status": "0x1",
      "cumulativeGasUsed": "0x21d41a8",
      "logs": [
        {
          "address": "0xd7bc75898e513accccf720a874d44dab5a4b6223",
          "topics": [
            "0xddf252ad1be2c89b69c2b068fc378daa952ba7f163c4a11628f55a4df523b3ef",
            "0x000000000000000000000000c77f7fed3b5cc8249adc428c5f44c9063b9734b4",
            "0x0000000000000000000000000000000000000000000000000000000000000000"
          ],
          "data": "0x00000000000000000000000000000000000000000000000089ce6b8df185d7fc",
          "blockHash": "0xe9e501541bd9cd53e2553a8d66548766d38f6dd7d08204908cfdb33b10855af2",
          "blockNumber": "0x723934",
          "transactionHash": "0xa2f934d6ec6e3099e29f61b9817099ae7acfe8f12e34eafafb8ada13e607ad62",
          "transactionIndex": "0x45",
          "logIndex": "0x2f0",
          "removed": false
        },
        {
          "address": "0xd7bc75898e513accccf720a874d44dab5a4b6223",
          "topics": [
            "0x4afcb4a87cdbd9974efdb92ee48bc8d7cd0ae4bf217004db3d080cbaee652ca7"
          ],
          "data": "0x0000000000000000000000000000000000000000000000000000000067859fb800000000000000000000000000000000000000000000000000038d7f8653b3990000000000000000000000000000000000000000000000000023474f493d2798",
          "blockHash": "0xe9e501541bd9cd53e2553a8d66548766d38f6dd7d08204908cfdb33b10855af2",
          "blockNumber": "0x723934",
          "transactionHash": "0xa2f934d6ec6e3099e29f61b9817099ae7acfe8f12e34eafafb8ada13e607ad62",
          "transactionIndex": "0x45",
          "logIndex": "0x2f1",
          "removed": false
        }
      ],
      "logsBloom": "0x00000000000000000000000000000000000000000000000000000000000000000000000000000000000000000000000000000000000000004000000000000000000000000000000000000008000000000000000000000000000000000000000000000000020000000000000000000800020000000000000000000010000000000000000000000000000000000000000000000000000000000000010000000000000000000000000000000000000000004000001000000000000000000000000000000002000000800000000000004000000000000000080000000000000020000000000000000000000000000000000000000000080000000000000000000000",
      "type": "0x2",
      "transactionHash": "0xa2f934d6ec6e3099e29f61b9817099ae7acfe8f12e34eafafb8ada13e607ad62",
      "transactionIndex": "0x45",
      "blockHash": "0xe9e501541bd9cd53e2553a8d66548766d38f6dd7d08204908cfdb33b10855af2",
      "blockNumber": "0x723934",
      "gasUsed": "0xfb87",
      "effectiveGasPrice": "0x6b1d0fd",
      "from": "0xc77f7fed3b5cc8249adc428c5f44c9063b9734b4",
      "to": "0xd7bc75898e513accccf720a874d44dab5a4b6223",
      "contractAddress": null
    }
  ],
  "libraries": [],
  "pending": [],
  "returns": {},
  "timestamp": 1736810425,
  "chain": 11155111,
  "commit": "51a374b"
}