{
  "transactions": [
    {
      "hash": "0x1f245f0d6a8543b3b319b5d6edfd33b25492d3496daffeef8ffce9289a608809",
      "transactionType": "CALL",
      "contractName": null,
      "contractAddress": "0x8aafd3ede9adb0ff97c7aebce82a919afb1c8764",
      "function": "sell(uint256)",
      "arguments": [
        "6264351394"
      ],
      "transaction": {
        "from": "0xc77f7fed3b5cc8249adc428c5f44c9063b9734b4",
        "to": "0x8aafd3ede9adb0ff97c7aebce82a919afb1c8764",
        "gas": "0x1722a",
        "value": "0x0",
        "input": "0xe4849b320000000000000000000000000000000000000000000000000000000175626aa2",
        "nonce": "0x1582",
        "chainId": "0xaa36a7"
      },
      "additionalContracts": [],
      "isFixedGasLimit": false
    }
  ],
  "receipts": [
    {
      "status": "0x1",
      "cumulativeGasUsed": "0xedcae6",
      "logs": [
        {
          "address": "0x8aafd3ede9adb0ff97c7aebce82a919afb1c8764",
          "topics": [
            "0xddf252ad1be2c89b69c2b068fc378daa952ba7f163c4a11628f55a4df523b3ef",
            "0x000000000000000000000000c77f7fed3b5cc8249adc428c5f44c9063b9734b4",
            "0x0000000000000000000000000000000000000000000000000000000000000000"
          ],
          "data": "0x000000000000000000000000000000000000000000000000000000017265b9a7",
          "blockHash": "0xa7ba1e361da21a4dee38c938afccd8fe01021e1eb2cd30267621910dd43a3a2f",
          "blockNumber": "0x731ced",
          "transactionHash": "0x1f245f0d6a8543b3b319b5d6edfd33b25492d3496daffeef8ffce9289a608809",
          "transactionIndex": "0x5c",
          "logIndex": "0xc0",
          "removed": false
        },
        {
          "address": "0x8aafd3ede9adb0ff97c7aebce82a919afb1c8764",
          "topics": [
            "0xddf252ad1be2c89b69c2b068fc378daa952ba7f163c4a11628f55a4df523b3ef",
            "0x000000000000000000000000c77f7fed3b5cc8249adc428c5f44c9063b9734b4",
            "0x000000000000000000000000c77f7fed3b5cc8249adc428c5f44c9063b9734b4"
          ],
          "data": "0x0000000000000000000000000000000000000000000000000000000002fcb0fb",
          "blockHash": "0xa7ba1e361da21a4dee38c938afccd8fe01021e1eb2cd30267621910dd43a3a2f",
          "blockNumber": "0x731ced",
          "transactionHash": "0x1f245f0d6a8543b3b319b5d6edfd33b25492d3496daffeef8ffce9289a608809",
          "transactionIndex": "0x5c",
          "logIndex": "0xc1",
          "removed": false
        },
        {
          "address": "0x8aafd3ede9adb0ff97c7aebce82a919afb1c8764",
          "topics": [
            "0x4afcb4a87cdbd9974efdb92ee48bc8d7cd0ae4bf217004db3d080cbaee652ca7"
          ],
          "data": "0x000000000000000000000000000000000000000000000000000000006790580400000000000000000000000000000000000000000000000000128ed158d0bcb60000000000000000000000000000000000000000000000000000000001f34da0",
          "blockHash": "0xa7ba1e361da21a4dee38c938afccd8fe01021e1eb2cd30267621910dd43a3a2f",
          "blockNumber": "0x731ced",
          "transactionHash": "0x1f245f0d6a8543b3b319b5d6edfd33b25492d3496daffeef8ffce9289a608809",
          "transactionIndex": "0x5c",
          "logIndex": "0xc2",
          "removed": false
        }
      ],
      "logsBloom": "0x00000000000000000000000000000000000000000600000000000000000000000000000000000000000000000000000000000000000000004000000000000000000000000000004000000008000000000000000000000000000000000000000000000000020000000000000000000800020000000000000000000010000000000000000000000000000000000000000000000000000000000000010000000000000000000000000000000000000000004000000000000000000000000000000000000002000000800000000000000000000000000000080000000000000020000000000000000000000000000000000000000000000000000000000000000000",
      "type": "0x2",
      "transactionHash": "0x1f245f0d6a8543b3b319b5d6edfd33b25492d3496daffeef8ffce9289a608809",
      "transactionIndex": "0x5c",
      "blockHash": "0xa7ba1e361da21a4dee38c938afccd8fe01021e1eb2cd30267621910dd43a3a2f",
      "blockNumber": "0x731ced",
      "gasUsed": "0xfd1b",
      "effectiveGasPrice": "0x744c5d44",
      "from": "0xc77f7fed3b5cc8249adc428c5f44c9063b9734b4",
      "to": "0x8aafd3ede9adb0ff97c7aebce82a919afb1c8764",
      "contractAddress": null
    }
  ],
  "libraries": [],
  "pending": [],
  "returns": {},
  "timestamp": 1737512965,
  "chain": 11155111,
  "commit": "1d2fb70"
}