{
  "transactions": [
    {
      "hash": "0x4ed9c9a76631eed2ee13c3f0ce502e8c4947d3ca9d8e1e4a17321edc76a8d1d6",
      "transactionType": "CALL",
      "contractName": null,
      "contractAddress": "0xbf4a322f1496e5c3d34a9bcdb4c60567b38c7de2",
      "function": "sell(uint256)",
      "arguments": [
        "977201145261964828579"
      ],
      "transaction": {
        "from": "0xc77f7fed3b5cc8249adc428c5f44c9063b9734b4",
        "to": "0xbf4a322f1496e5c3d34a9bcdb4c60567b38c7de2",
        "gas": "0x16fea",
        "value": "0x0",
        "input": "0xe4849b32000000000000000000000000000000000000000000000034f963e02ea44e9fa3",
        "nonce": "0xce9",
        "chainId": "0xaa36a7"
      },
      "additionalContracts": [],
      "isFixedGasLimit": false
    }
  ],
  "receipts": [
    {
      "status": "0x1",
      "cumulativeGasUsed": "0xb64831",
      "logs": [
        {
          "address": "0xbf4a322f1496e5c3d34a9bcdb4c60567b38c7de2",
          "topics": [
            "0xddf252ad1be2c89b69c2b068fc378daa952ba7f163c4a11628f55a4df523b3ef",
            "0x000000000000000000000000c77f7fed3b5cc8249adc428c5f44c9063b9734b4",
            "0x0000000000000000000000000000000000000000000000000000000000000000"
          ],
          "data": "0x000000000000000000000000000000000000000000000034f963e02ea44e9fa3",
          "blockHash": "0xc42abd021827aee6b7f4a6d000374816f104146dde0aa04c378662a2c9dee0e3",
          "blockNumber": "0x725d3a",
          "transactionHash": "0x4ed9c9a76631eed2ee13c3f0ce502e8c4947d3ca9d8e1e4a17321edc76a8d1d6",
          "transactionIndex": "0x67",
          "logIndex": "0xae",
          "removed": false
        },
        {
          "address": "0xbf4a322f1496e5c3d34a9bcdb4c60567b38c7de2",
          "topics": [
            "0x4afcb4a87cdbd9974efdb92ee48bc8d7cd0ae4bf217004db3d080cbaee652ca7"
          ],
          "data": "0x000000000000000000000000000000000000000000000000000000006787512c00000000000000000000000000000000000000000000000000039c3a1a3708260000000000000000000000000000000000000000000000000dc7e3db8f11f4a8",
          "blockHash": "0xc42abd021827aee6b7f4a6d000374816f104146dde0aa04c378662a2c9dee0e3",
          "blockNumber": "0x725d3a",
          "transactionHash": "0x4ed9c9a76631eed2ee13c3f0ce502e8c4947d3ca9d8e1e4a17321edc76a8d1d6",
          "transactionIndex": "0x67",
          "logIndex": "0xaf",
          "removed": false
        }
      ],
      "logsBloom": "0x00000000000000000000000000000000000000000000000000000000000000000000000000000000000000000000000000000000000000004000000000000000000000000000000000000008000000000000001000000000000000000000000000000000020000000000000000000800020000000000000000000010000000000000000000000000000000000000000000000000000008000000010000000000000000000000000000000000000000004000000000000000000000000000000000000002000000800000000000001000000000000000080000000000000020000000000000000000000000000000000000000000000000000000000000000000",
      "type": "0x2",
      "transactionHash": "0x4ed9c9a76631eed2ee13c3f0ce502e8c4947d3ca9d8e1e4a17321edc76a8d1d6",
      "transactionIndex": "0x67",
      "blockHash": "0xc42abd021827aee6b7f4a6d000374816f104146dde0aa04c378662a2c9dee0e3",
      "blockNumber": "0x725d3a",
      "gasUsed": "0xfb91",
      "effectiveGasPrice": "0x479d1839c",
      "from": "0xc77f7fed3b5cc8249adc428c5f44c9063b9734b4",
      "to": "0xbf4a322f1496e5c3d34a9bcdb4c60567b38c7de2",
      "contractAddress": null
    }
  ],
  "libraries": [],
  "pending": [],
  "returns": {},
  "timestamp": 1736921389,
  "chain": 11155111,
  "commit": "51a374b"
}