{
  "transactions": [
    {
      "hash": "0xe27ffb3ddd076558db3ef08da6439a8a1b3e97b640250727c90678b992ecb3d3",
      "transactionType": "CALL",
      "contractName": null,
      "contractAddress": "0xbf4a322f1496e5c3d34a9bcdb4c60567b38c7de2",
      "function": "sell(uint256)",
      "arguments": [
        "986963068927318897461"
      ],
      "transaction": {
        "from": "0xc77f7fed3b5cc8249adc428c5f44c9063b9734b4",
        "to": "0xbf4a322f1496e5c3d34a9bcdb4c60567b38c7de2",
        "gas": "0x16fea",
        "value": "0x0",
        "input": "0xe4849b3200000000000000000000000000000000000000000000003580dd3208f2373335",
        "nonce": "0xa15",
        "chainId": "0xaa36a7"
      },
      "additionalContracts": [],
      "isFixedGasLimit": false
    }
  ],
  "receipts": [
    {
      "status": "0x1",
      "cumulativeGasUsed": "0xd47e91",
      "logs": [
        {
          "address": "0xbf4a322f1496e5c3d34a9bcdb4c60567b38c7de2",
          "topics": [
            "0xddf252ad1be2c89b69c2b068fc378daa952ba7f163c4a11628f55a4df523b3ef",
            "0x000000000000000000000000c77f7fed3b5cc8249adc428c5f44c9063b9734b4",
            "0x0000000000000000000000000000000000000000000000000000000000000000"
          ],
          "data": "0x00000000000000000000000000000000000000000000003580dd3208f2373335",
          "blockHash": "0x91532fbcdb7268f82f2ece8b25a9406f47439952fa519b739611d87b76a17c7d",
          "blockNumber": "0x7259d4",
          "transactionHash": "0xe27ffb3ddd076558db3ef08da6439a8a1b3e97b640250727c90678b992ecb3d3",
          "transactionIndex": "0x42",
          "logIndex": "0x87",
          "removed": false
        },
        {
          "address": "0xbf4a322f1496e5c3d34a9bcdb4c60567b38c7de2",
          "topics": [
            "0x4afcb4a87cdbd9974efdb92ee48bc8d7cd0ae4bf217004db3d080cbaee652ca7"
          ],
          "data": "0x000000000000000000000000000000000000000000000000000000006787283400000000000000000000000000000000000000000000000000039315f73252350000000000000000000000000000000000000000000000000dc7e3f2416973c3",
          "blockHash": "0x91532fbcdb7268f82f2ece8b25a9406f47439952fa519b739611d87b76a17c7d",
          "blockNumber": "0x7259d4",
          "transactionHash": "0xe27ffb3ddd076558db3ef08da6439a8a1b3e97b640250727c90678b992ecb3d3",
          "transactionIndex": "0x42",
          "logIndex": "0x88",
          "removed": false
        }
      ],
      "logsBloom": "0x00000000000000000000000000000000000000000000000000000000000000000000000000000000000000000000000000000000000000004000000000000000000000000000000000000008000000000000001000000000000000000000000000000000020000000000000000000800020000000000000000000010000000000000000000000000000000000000000000000000000008000000010000000000000000000000000000000000000000004000000000000000000000000000000000000002000000800000000000001000000000000000080000000000000020000000000000000000000000000000000000000000000000000000000000000000",
      "type": "0x2",
      "transactionHash": "0xe27ffb3ddd076558db3ef08da6439a8a1b3e97b640250727c90678b992ecb3d3",
      "transactionIndex": "0x42",
      "blockHash": "0x91532fbcdb7268f82f2ece8b25a9406f47439952fa519b739611d87b76a17c7d",
      "blockNumber": "0x7259d4",
      "gasUsed": "0xfb91",
      "effectiveGasPrice": "0x495bbd3dc",
      "from": "0xc77f7fed3b5cc8249adc428c5f44c9063b9734b4",
      "to": "0xbf4a322f1496e5c3d34a9bcdb4c60567b38c7de2",
      "contractAddress": null
    }
  ],
  "libraries": [],
  "pending": [],
  "returns": {},
  "timestamp": 1736910901,
  "chain": 11155111,
  "commit": "51a374b"
}