{
  "transactions": [
    {
      "hash": "0xc9c40c515e984e2d3db86b79016c2c538bdfaba0d9db18efff25199c1b06f415",
      "transactionType": "CALL",
      "contractName": null,
      "contractAddress": "0x5eb9cc76c3506942c1c0ead70e877dd5e4f00cb0",
      "function": "sell(uint256)",
      "arguments": [
        "989079602271148698727"
      ],
      "transaction": {
        "from": "0xc77f7fed3b5cc8249adc428c5f44c9063b9734b4",
        "to": "0x5eb9cc76c3506942c1c0ead70e877dd5e4f00cb0",
        "gas": "0x16fec",
        "value": "0x0",
        "input": "0xe4849b320000000000000000000000000000000000000000000000359e3ca1e5b475ec67",
        "nonce": "0x481",
        "chainId": "0xaa36a7"
      },
      "additionalContracts": [],
      "isFixedGasLimit": false
    }
  ],
  "receipts": [
    {
      "status": "0x1",
      "cumulativeGasUsed": "0xfcf3e0",
      "logs": [
        {
          "address": "0x5eb9cc76c3506942c1c0ead70e877dd5e4f00cb0",
          "topics": [
            "0xddf252ad1be2c89b69c2b068fc378daa952ba7f163c4a11628f55a4df523b3ef",
            "0x000000000000000000000000c77f7fed3b5cc8249adc428c5f44c9063b9734b4",
            "0x0000000000000000000000000000000000000000000000000000000000000000"
          ],
          "data": "0x0000000000000000000000000000000000000000000000359e3ca1e5b475ec67",
          "blockHash": "0x161a64a8bdae4e60e2a2be47bf623fbfa714a58f07854653c4ae484b7518bc27",
          "blockNumber": "0x7250af",
          "transactionHash": "0xc9c40c515e984e2d3db86b79016c2c538bdfaba0d9db18efff25199c1b06f415",
          "transactionIndex": "0x6a",
          "logIndex": "0xae",
          "removed": false
        },
        {
          "address": "0x5eb9cc76c3506942c1c0ead70e877dd5e4f00cb0",
          "topics": [
            "0x4afcb4a87cdbd9974efdb92ee48bc8d7cd0ae4bf217004db3d080cbaee652ca7"
          ],
          "data": "0x000000000000000000000000000000000000000000000000000000006786ba000000000000000000000000000000000000000000000000000003911a4aed39fb0000000000000000000000000000000000000000000000000dc7db1331c32737",
          "blockHash": "0x161a64a8bdae4e60e2a2be47bf623fbfa714a58f07854653c4ae484b7518bc27",
          "blockNumber": "0x7250af",
          "transactionHash": "0xc9c40c515e984e2d3db86b79016c2c538bdfaba0d9db18efff25199c1b06f415",
          "transactionIndex": "0x6a",
          "logIndex": "0xaf",
          "removed": false
        }
      ],
      "logsBloom": "0x00000000000000000000000000000000000000000000000000000000000000000000000000000000000000000000000000000000000000004000000000000000000000000000000000000008000000000000000000000000000000000000000000000000020000000000000004000800020000000000000000000010000000000000000000000000000000000000000000000000000000000000010000000000000000000000000000000000000000004000000000000000000000000000020000000002000000800000008000000000000000000000080000000000000020000000000000000000000000000000000000000000000000000000000000000000",
      "type": "0x2",
      "transactionHash": "0xc9c40c515e984e2d3db86b79016c2c538bdfaba0d9db18efff25199c1b06f415",
      "transactionIndex": "0x6a",
      "blockHash": "0x161a64a8bdae4e60e2a2be47bf623fbfa714a58f07854653c4ae484b7518bc27",
      "blockNumber": "0x7250af",
      "gasUsed": "0xfb93",
      "effectiveGasPrice": "0x1d5047152",
      "from": "0xc77f7fed3b5cc8249adc428c5f44c9063b9734b4",
      "to": "0x5eb9cc76c3506942c1c0ead70e877dd5e4f00cb0",
      "contractAddress": null
    }
  ],
  "libraries": [],
  "pending": [],
  "returns": {},
  "timestamp": 1736882689,
  "chain": 11155111,
  "commit": "51a374b"
}