{
  "transactions": [
    {
      "hash": "0xd079e25830ce826ccf7de4d5a13a373df286876fe3bb5734dc2f02152b28a798",
      "transactionType": "CALL",
      "contractName": null,
      "contractAddress": "0x8aafd3ede9adb0ff97c7aebce82a919afb1c8764",
      "function": "sell(uint256)",
      "arguments": [
        "5397261280808489980"
      ],
      "transaction": {
        "from": "0xc77f7fed3b5cc8249adc428c5f44c9063b9734b4",
        "to": "0x8aafd3ede9adb0ff97c7aebce82a919afb1c8764",
        "gas": "0x15dca",
        "value": "0x0",
        "input": "0xe4849b320000000000000000000000000000000000000000000000004ae6ec89fa8f53fc",
        "nonce": "0x124a",
        "chainId": "0xaa36a7"
      },
      "additionalContracts": [],
      "isFixedGasLimit": false
    }
  ],
  "receipts": [
    {
      "status": "0x1",
      "cumulativeGasUsed": "0xd0c33e",
      "logs": [
        {
          "address": "0x8aafd3ede9adb0ff97c7aebce82a919afb1c8764",
          "topics": [
            "0xddf252ad1be2c89b69c2b068fc378daa952ba7f163c4a11628f55a4df523b3ef",
            "0x000000000000000000000000c77f7fed3b5cc8249adc428c5f44c9063b9734b4",
            "0x0000000000000000000000000000000000000000000000000000000000000000"
          ],
          "data": "0x0000000000000000000000000000000000000000000000004a4d864b6f56e2ad",
          "blockHash": "0x0c240ef12e75b131c086d33aa16670a666ca1d79ed154971e276fdb5dcfe5b05",
          "blockNumber": "0x73192c",
          "transactionHash": "0xd079e25830ce826ccf7de4d5a13a373df286876fe3bb5734dc2f02152b28a798",
          "transactionIndex": "0x90",
          "logIndex": "0x111",
          "removed": false
        },
        {
          "address": "0x8aafd3ede9adb0ff97c7aebce82a919afb1c8764",
          "topics": [
            "0xddf252ad1be2c89b69c2b068fc378daa952ba7f163c4a11628f55a4df523b3ef",
            "0x000000000000000000000000c77f7fed3b5cc8249adc428c5f44c9063b9734b4",
            "0x000000000000000000000000c77f7fed3b5cc8249adc428c5f44c9063b9734b4"
          ],
          "data": "0x0000000000000000000000000000000000000000000000000099663e8b38714f",
          "blockHash": "0x0c240ef12e75b131c086d33aa16670a666ca1d79ed154971e276fdb5dcfe5b05",
          "blockNumber": "0x73192c",
          "transactionHash": "0xd079e25830ce826ccf7de4d5a13a373df286876fe3bb5734dc2f02152b28a798",
          "transactionIndex": "0x90",
          "logIndex": "0x112",
          "removed": false
        },
        {
          "address": "0x8aafd3ede9adb0ff97c7aebce82a919afb1c8764",
          "topics": [
            "0x4afcb4a87cdbd9974efdb92ee48bc8d7cd0ae4bf217004db3d080cbaee652ca7"
          ],
          "data": "0x0000000000000000000000000000000000000000000000000000000067902ae000000000000000000000000000000000000000000000000000053c1a9674a021000000000000000000000000000000000000000000000000001c40d88fb2aa34",
          "blockHash": "0x0c240ef12e75b131c086d33aa16670a666ca1d79ed154971e276fdb5dcfe5b05",
          "blockNumber": "0x73192c",
          "transactionHash": "0xd079e25830ce826ccf7de4d5a13a373df286876fe3bb5734dc2f02152b28a798",
          "transactionIndex": "0x90",
          "logIndex": "0x113",
          "removed": false
        }
      ],
      "logsBloom": "0x00000000000000000000000000000000000000000600000000000000000000000000000000000000000000000000000000000000000000004000000000000000000000000000004000000008000000000000000000000000000000000000000000000000020000000000000000000800020000000000000000000010000000000000000000000000000000000000000000000000000000000000010000000000000000000000000000000000000000004000000000000000000000000000000000000002000000800000000000000000000000000000080000000000000020000000000000000000000000000000000000000000000000000000000000000000",
      "type": "0x2",
      "transactionHash": "0xd079e25830ce826ccf7de4d5a13a373df286876fe3bb5734dc2f02152b28a798",
      "transactionIndex": "0x90",
      "blockHash": "0x0c240ef12e75b131c086d33aa16670a666ca1d79ed154971e276fdb5dcfe5b05",
      "blockNumber": "0x73192c",
      "gasUsed": "0xfd3f",
      "effectiveGasPrice": "0x3a4fb940",
      "from": "0xc77f7fed3b5cc8249adc428c5f44c9063b9734b4",
      "to": "0x8aafd3ede9adb0ff97c7aebce82a919afb1c8764",
      "contractAddress": null
    }
  ],
  "libraries": [],
  "pending": [],
  "returns": {},
  "timestamp": 1737501410,
  "chain": 11155111,
  "commit": "1d2fb70"
}