{
  "transactions": [
    {
      "hash": "0xe27aa0e5aa5a72d4be41047e899af04d9787f1f5b2d38d199a8c33ea61eda714",
      "transactionType": "CALL",
      "contractName": null,
      "contractAddress": "0x8aafd3ede9adb0ff97c7aebce82a919afb1c8764",
      "function": "sell(uint256)",
      "arguments": [
        "865886827195"
      ],
      "transaction": {
        "from": "0xc77f7fed3b5cc8249adc428c5f44c9063b9734b4",
        "to": "0x8aafd3ede9adb0ff97c7aebce82a919afb1c8764",
        "gas": "0x1722a",
        "value": "0x0",
        "input": "0xe4849b32000000000000000000000000000000000000000000000000000000c99ae072bb",
        "nonce": "0x14e8",
        "chainId": "0xaa36a7"
      },
      "additionalContracts": [],
      "isFixedGasLimit": false
    }
  ],
  "receipts": [
    {
      "status": "0x1",
      "cumulativeGasUsed": "0x1bf91b4",
      "logs": [
        {
          "address": "0x8aafd3ede9adb0ff97c7aebce82a919afb1c8764",
          "topics": [
            "0xddf252ad1be2c89b69c2b068fc378daa952ba7f163c4a11628f55a4df523b3ef",
            "0x000000000000000000000000c77f7fed3b5cc8249adc428c5f44c9063b9734b4",
            "0x0000000000000000000000000000000000000000000000000000000000000000"
          ],
          "data": "0x000000000000000000000000000000000000000000000000000000c7fdfd5f62",
          "blockHash": "0x02132456d49ec6e8a1e400ce0ad71148b75e1fc44e62771400d3c9c5b897d4fc",
          "blockNumber": "0x731c48",
          "transactionHash": "0xe27aa0e5aa5a72d4be41047e899af04d9787f1f5b2d38d199a8c33ea61eda714",
          "transactionIndex": "0xb8",
          "logIndex": "0x176",
          "removed": false
        },
        {
          "address": "0x8aafd3ede9adb0ff97c7aebce82a919afb1c8764",
          "topics": [
            "0xddf252ad1be2c89b69c2b068fc378daa952ba7f163c4a11628f55a4df523b3ef",
            "0x000000000000000000000000c77f7fed3b5cc8249adc428c5f44c9063b9734b4",
            "0x000000000000000000000000c77f7fed3b5cc8249adc428c5f44c9063b9734b4"
          ],
          "data": "0x000000000000000000000000000000000000000000000000000000019ce31359",
          "blockHash": "0x02132456d49ec6e8a1e400ce0ad71148b75e1fc44e62771400d3c9c5b897d4fc",
          "blockNumber": "0x731c48",
          "transactionHash": "0xe27aa0e5aa5a72d4be41047e899af04d9787f1f5b2d38d199a8c33ea61eda714",
          "transactionIndex": "0xb8",
          "logIndex": "0x177",
          "removed": false
        },
        {
          "address": "0x8aafd3ede9adb0ff97c7aebce82a919afb1c8764",
          "topics": [
            "0x4afcb4a87cdbd9974efdb92ee48bc8d7cd0ae4bf217004db3d080cbaee652ca7"
          ],
          "data": "0x000000000000000000000000000000000000000000000000000000006790503c0000000000000000000000000000000000000000000000000010cab353bae3ce00000000000000000000000000000000000000000000000000000000f3eff44d",
          "blockHash": "0x02132456d49ec6e8a1e400ce0ad71148b75e1fc44e62771400d3c9c5b897d4fc",
          "blockNumber": "0x731c48",
          "transactionHash": "0xe27aa0e5aa5a72d4be41047e899af04d9787f1f5b2d38d199a8c33ea61eda714",
          "transactionIndex": "0xb8",
          "logIndex": "0x178",
          "removed": false
        }
      ],
      "logsBloom": "0x00000000000000000000000000000000000000000600000000000000000000000000000000000000000000000000000000000000000000004000000000000000000000000000004000000008000000000000000000000000000000000000000000000000020000000000000000000800020000000000000000000010000000000000000000000000000000000000000000000000000000000000010000000000000000000000000000000000000000004000000000000000000000000000000000000002000000800000000000000000000000000000080000000000000020000000000000000000000000000000000000000000000000000000000000000000",
      "type": "0x2",
      "transactionHash": "0xe27aa0e5aa5a72d4be41047e899af04d9787f1f5b2d38d199a8c33ea61eda714",
      "transactionIndex": "0xb8",
      "blockHash": "0x02132456d49ec6e8a1e400ce0ad71148b75e1fc44e62771400d3c9c5b897d4fc",
      "blockNumber": "0x731c48",
      "gasUsed": "0xfd1b",
      "effectiveGasPrice": "0x13ad2e535",
      "from": "0xc77f7fed3b5cc8249adc428c5f44c9063b9734b4",
      "to": "0x8aafd3ede9adb0ff97c7aebce82a919afb1c8764",
      "contractAddress": null
    }
  ],
  "libraries": [],
  "pending": [],
  "returns": {},
  "timestamp": 1737510974,
  "chain": 11155111,
  "commit": "1d2fb70"
}