{
  "transactions": [
    {
      "hash": "0xd73a69f9125e24d8a63f86dee381aed9cc8513c5b3e18457854421f1a18a9a5c",
      "transactionType": "CALL",
      "contractName": null,
      "contractAddress": "0xbf4a322f1496e5c3d34a9bcdb4c60567b38c7de2",
      "function": "sell(uint256)",
      "arguments": [
        "981357239430746735335"
      ],
      "transaction": {
        "from": "0xc77f7fed3b5cc8249adc428c5f44c9063b9734b4",
        "to": "0xbf4a322f1496e5c3d34a9bcdb4c60567b38c7de2",
        "gas": "0x16fea",
        "value": "0x0",
        "input": "0xe4849b32000000000000000000000000000000000000000000000035331149cf0ba002e7",
        "nonce": "0xbb3",
        "chainId": "0xaa36a7"
      },
      "additionalContracts": [],
      "isFixedGasLimit": false
    }
  ],
  "receipts": [
    {
      "status": "0x1",
      "cumulativeGasUsed": "0x6462b6",
      "logs": [
        {
          "address": "0xbf4a322f1496e5c3d34a9bcdb4c60567b38c7de2",
          "topics": [
            "0xddf252ad1be2c89b69c2b068fc378daa952ba7f163c4a11628f55a4df523b3ef",
            "0x000000000000000000000000c77f7fed3b5cc8249adc428c5f44c9063b9734b4",
            "0x0000000000000000000000000000000000000000000000000000000000000000"
          ],
          "data": "0x000000000000000000000000000000000000000000000035331149cf0ba002e7",
          "blockHash": "0x76d6fcec861fa5aa8625aa53e2dce60f1f63d5ffaf0d376b8b4728c197cfcb7b",
          "blockNumber": "0x725bcd",
          "transactionHash": "0xd73a69f9125e24d8a63f86dee381aed9cc8513c5b3e18457854421f1a18a9a5c",
          "transactionIndex": "0x42",
          "logIndex": "0x59",
          "removed": false
        },
        {
          "address": "0xbf4a322f1496e5c3d34a9bcdb4c60567b38c7de2",
          "topics": [
            "0x4afcb4a87cdbd9974efdb92ee48bc8d7cd0ae4bf217004db3d080cbaee652ca7"
          ],
          "data": "0x0000000000000000000000000000000000000000000000000000000067873ff8000000000000000000000000000000000000000000000000000398501bd45d840000000000000000000000000000000000000000000000000dc7e3e538d0f846",
          "blockHash": "0x76d6fcec861fa5aa8625aa53e2dce60f1f63d5ffaf0d376b8b4728c197cfcb7b",
          "blockNumber": "0x725bcd",
          "transactionHash": "0xd73a69f9125e24d8a63f86dee381aed9cc8513c5b3e18457854421f1a18a9a5c",
          "transactionIndex": "0x42",
          "logIndex": "0x5a",
          "removed": false
        }
      ],
      "logsBloom": "0x00000000000000000000000000000000000000000000000000000000000000000000000000000000000000000000000000000000000000004000000000000000000000000000000000000008000000000000001000000000000000000000000000000000020000000000000000000800020000000000000000000010000000000000000000000000000000000000000000000000000008000000010000000000000000000000000000000000000000004000000000000000000000000000000000000002000000800000000000001000000000000000080000000000000020000000000000000000000000000000000000000000000000000000000000000000",
      "type": "0x2",
      "transactionHash": "0xd73a69f9125e24d8a63f86dee381aed9cc8513c5b3e18457854421f1a18a9a5c",
      "transactionIndex": "0x42",
      "blockHash": "0x76d6fcec861fa5aa8625aa53e2dce60f1f63d5ffaf0d376b8b4728c197cfcb7b",
      "blockNumber": "0x725bcd",
      "gasUsed": "0xfb91",
      "effectiveGasPrice": "0x5c621e20",
      "from": "0xc77f7fed3b5cc8249adc428c5f44c9063b9734b4",
      "to": "0xbf4a322f1496e5c3d34a9bcdb4c60567b38c7de2",
      "contractAddress": null
    }
  ],
  "libraries": [],
  "pending": [],
  "returns": {},
  "timestamp": 1736916986,
  "chain": 11155111,
  "commit": "51a374b"
}