{
  "transactions": [
    {
      "hash": "0x87a5f219fc84e9b08d0c144a76416659773e213cd75089df33a5af73b08c06c6",
      "transactionType": "CALL",
      "contractName": null,
      "contractAddress": "0x8aafd3ede9adb0ff97c7aebce82a919afb1c8764",
      "function": "sell(uint256)",
      "arguments": [
        "3060714261964"
      ],
      "transaction": {
        "from": "0xc77f7fed3b5cc8249adc428c5f44c9063b9734b4",
        "to": "0x8aafd3ede9adb0ff97c7aebce82a919afb1c8764",
        "gas": "0x15daa",
        "value": "0x0",
        "input": "0xe4849b32000000000000000000000000000000000000000000000000000002c8a0c94dcc",
        "nonce": "0xec8",
        "chainId": "0xaa36a7"
      },
      "additionalContracts": [],
      "isFixedGasLimit": false
    }
  ],
  "receipts": [
    {
      "status": "0x1",
      "cumulativeGasUsed": "0xe76037",
      "logs": [
        {
          "address": "0x8aafd3ede9adb0ff97c7aebce82a919afb1c8764",
          "topics": [
            "0xddf252ad1be2c89b69c2b068fc378daa952ba7f163c4a11628f55a4df523b3ef",
            "0x000000000000000000000000c77f7fed3b5cc8249adc428c5f44c9063b9734b4",
            "0x0000000000000000000000000000000000000000000000000000000000000000"
          ],
          "data": "0x000000000000000000000000000000000000000000000000000002c2ed52f51d",
          "blockHash": "0x0395c2656f5edc2b4fc1d10d1d8c180f85456864169ede49ede95a5e6562de5e",
          "blockNumber": "0x731433",
          "transactionHash": "0x87a5f219fc84e9b08d0c144a76416659773e213cd75089df33a5af73b08c06c6",
          "transactionIndex": "0x8f",
          "logIndex": "0x9d",
          "removed": false
        },
        {
          "address": "0x8aafd3ede9adb0ff97c7aebce82a919afb1c8764",
          "topics": [
            "0xddf252ad1be2c89b69c2b068fc378daa952ba7f163c4a11628f55a4df523b3ef",
            "0x000000000000000000000000c77f7fed3b5cc8249adc428c5f44c9063b9734b4",
            "0x000000000000000000000000c77f7fed3b5cc8249adc428c5f44c9063b9734b4"
          ],
          "data": "0x00000000000000000000000000000000000000000000000000000005b37658af",
          "blockHash": "0x0395c2656f5edc2b4fc1d10d1d8c180f85456864169ede49ede95a5e6562de5e",
          "blockNumber": "0x731433",
          "transactionHash": "0x87a5f219fc84e9b08d0c144a76416659773e213cd75089df33a5af73b08c06c6",
          "transactionIndex": "0x8f",
          "logIndex": "0x9e",
          "removed": false
        },
        {
          "address": "0x8aafd3ede9adb0ff97c7aebce82a919afb1c8764",
          "topics": [
            "0x4afcb4a87cdbd9974efdb92ee48bc8d7cd0ae4bf217004db3d080cbaee652ca7"
          ],
          "data": "0x00000000000000000000000000000000000000000000000000000000678fef100000000000000000000000000000000000000000000000000004b907cd07452500000000000000000000000000000000000000000000000000000000f28408c6",
          "blockHash": "0x0395c2656f5edc2b4fc1d10d1d8c180f85456864169ede49ede95a5e6562de5e",
          "blockNumber": "0x731433",
          "transactionHash": "0x87a5f219fc84e9b08d0c144a76416659773e213cd75089df33a5af73b08c06c6",
          "transactionIndex": "0x8f",
          "logIndex": "0x9f",
          "removed": false
        }
      ],
      "logsBloom": "0x00000000000000000000000000000000000000000600000000000000000000000000000000000000000000000000000000000000000000004000000000000000000000000000004000000008000000000000000000000000000000000000000000000000020000000000000000000800020000000000000000000010000000000000000000000000000000000000000000000000000000000000010000000000000000000000000000000000000000004000000000000000000000000000000000000002000000800000000000000000000000000000080000000000000020000000000000000000000000000000000000000000000000000000000000000000",
      "type": "0x2",
      "transactionHash": "0x87a5f219fc84e9b08d0c144a76416659773e213cd75089df33a5af73b08c06c6",
      "transactionIndex": "0x8f",
      "blockHash": "0x0395c2656f5edc2b4fc1d10d1d8c180f85456864169ede49ede95a5e6562de5e",
      "blockNumber": "0x731433",
      "gasUsed": "0xfd27",
      "effectiveGasPrice": "0x9d0c88e4",
      "from": "0xc77f7fed3b5cc8249adc428c5f44c9063b9734b4",
      "to": "0x8aafd3ede9adb0ff97c7aebce82a919afb1c8764",
      "contractAddress": null
    }
  ],
  "libraries": [],
  "pending": [],
  "returns": {},
  "timestamp": 1737486096,
  "chain": 11155111,
  "commit": "51a374b"
}