{
  "transactions": [
    {
      "hash": "0x18e5c7f64c3efd7911cd990f979e6c4d2f3d385ca7960695eddc2a5f554eb648",
      "transactionType": "CALL",
      "contractName": null,
      "contractAddress": "0x8aafd3ede9adb0ff97c7aebce82a919afb1c8764",
      "function": "sell(uint256)",
      "arguments": [
        "12471"
      ],
      "transaction": {
        "from": "0xc77f7fed3b5cc8249adc428c5f44c9063b9734b4",
        "to": "0x8aafd3ede9adb0ff97c7aebce82a919afb1c8764",
        "gas": "0x14e4c",
        "value": "0x0",
        "input": "0xe4849b3200000000000000000000000000000000000000000000000000000000000030b7",
        "nonce": "0xf29",
        "chainId": "0xaa36a7"
      },
      "additionalContracts": [],
      "isFixedGasLimit": false
    }
  ],
  "receipts": [
    {
      "status": "0x1",
      "cumulativeGasUsed": "0x8695e9",
      "logs": [
        {
          "address": "0x8aafd3ede9adb0ff97c7aebce82a919afb1c8764",
          "topics": [
            "0xddf252ad1be2c89b69c2b068fc378daa952ba7f163c4a11628f55a4df523b3ef",
            "0x000000000000000000000000c77f7fed3b5cc8249adc428c5f44c9063b9734b4",
            "0x0000000000000000000000000000000000000000000000000000000000000000"
          ],
          "data": "0x0000000000000000000000000000000000000000000000000000000000003054",
          "blockHash": "0xda806a6f55e4710c01cd81d99583fbfdf9412b646085bdd7816192505c5fed3b",
          "blockNumber": "0x73157c",
          "transactionHash": "0x18e5c7f64c3efd7911cd990f979e6c4d2f3d385ca7960695eddc2a5f554eb648",
          "transactionIndex": "0x79",
          "logIndex": "0x86",
          "removed": false
        },
        {
          "address": "0x8aafd3ede9adb0ff97c7aebce82a919afb1c8764",
          "topics": [
            "0xddf252ad1be2c89b69c2b068fc378daa952ba7f163c4a11628f55a4df523b3ef",
            "0x000000000000000000000000c77f7fed3b5cc8249adc428c5f44c9063b9734b4",
            "0x000000000000000000000000c77f7fed3b5cc8249adc428c5f44c9063b9734b4"
          ],
          "data": "0x0000000000000000000000000000000000000000000000000000000000000063",
          "blockHash": "0xda806a6f55e4710c01cd81d99583fbfdf9412b646085bdd7816192505c5fed3b",
          "blockNumber": "0x73157c",
          "transactionHash": "0x18e5c7f64c3efd7911cd990f979e6c4d2f3d385ca7960695eddc2a5f554eb648",
          "transactionIndex": "0x79",
          "logIndex": "0x87",
          "removed": false
        },
        {
          "address": "0x8aafd3ede9adb0ff97c7aebce82a919afb1c8764",
          "topics": [
            "0x4afcb4a87cdbd9974efdb92ee48bc8d7cd0ae4bf217004db3d080cbaee652ca7"
          ],
          "data": "0x00000000000000000000000000000000000000000000000000000000678ffe7c0000000000000000000000000000000000000000000000000004bf37e45fcac10000000000000000000000000000000000000000000000000000000000000010",
          "blockHash": "0xda806a6f55e4710c01cd81d99583fbfdf9412b646085bdd7816192505c5fed3b",
          "blockNumber": "0x73157c",
          "transactionHash": "0x18e5c7f64c3efd7911cd990f979e6c4d2f3d385ca7960695eddc2a5f554eb648",
          "transactionIndex": "0x79",
          "logIndex": "0x88",
          "removed": false
        }
      ],
      "logsBloom": "0x00000000000000000000000000000000000000000600000000000000000000000000000000000000000000000000000000000000000000004000000000000000000000000000004000000008000000000000000000000000000000000000000000000000020000000000000000000800020000000000000000000010000000000000000000000000000000000000000000000000000000000000010000000000000000000000000000000000000000004000000000000000000000000000000000000002000000800000000000000000000000000000080000000000000020000000000000000000000000000000000000000000000000000000000000000000",
      "type": "0x2",
      "transactionHash": "0x18e5c7f64c3efd7911cd990f979e6c4d2f3d385ca7960695eddc2a5f554eb648",
      "transactionIndex": "0x79",
      "blockHash": "0xda806a6f55e4710c01cd81d99583fbfdf9412b646085bdd7816192505c5fed3b",
      "blockNumber": "0x73157c",
      "gasUsed": "0xf207",
      "effectiveGasPrice": "0x763fa447",
      "from": "0xc77f7fed3b5cc8249adc428c5f44c9063b9734b4",
      "to": "0x8aafd3ede9adb0ff97c7aebce82a919afb1c8764",
      "contractAddress": null
    }
  ],
  "libraries": [],
  "pending": [],
  "returns": {},
  "timestamp": 1737490045,
  "chain": 11155111,
  "commit": "1d2fb70"
}