{
  "transactions": [
    {
      "hash": "0x38703224f1f364bdd943f533a41fdf2b154befdbf7989bb6450d0426fd4ef028",
      "transactionType": "CALL",
      "contractName": null,
      "contractAddress": "0x5eb9cc76c3506942c1c0ead70e877dd5e4f00cb0",
      "function": "buy(address)",
      "arguments": [
        "0xC77f7fed3b5Cc8249aDc428c5F44C9063B9734b4"
      ],
      "transaction": {
        "from": "0xc77f7fed3b5cc8249adc428c5f44c9063b9734b4",
        "to": "0x5eb9cc76c3506942c1c0ead70e877dd5e4f00cb0",
        "gas": "0x1b30c",
        "value": "0xde0b6b3a7640000",
        "input": "0xf088d547000000000000000000000000c77f7fed3b5cc8249adc428c5f44c9063b9734b4",
        "nonce": "0x22e",
        "chainId": "0xaa36a7"
      },
      "additionalContracts": [],
      "isFixedGasLimit": false
    }
  ],
  "receipts": [
    {
      "status": "0x1",
      "cumulativeGasUsed": "0xb97c0a",
      "logs": [
        {
          "address": "0x5eb9cc76c3506942c1c0ead70e877dd5e4f00cb0",
          "topics": [
            "0xddf252ad1be2c89b69c2b068fc378daa952ba7f163c4a11628f55a4df523b3ef",
            "0x0000000000000000000000000000000000000000000000000000000000000000",
            "0x000000000000000000000000c77f7fed3b5cc8249adc428c5f44c9063b9734b4"
          ],
          "data": "0x0000000000000000000000000000000000000000000000357c340ea027113213",
          "blockHash": "0x3cc4bb29611012ac5df97ca96cad3cae70082896ef32a082993d25dfbf67734f",
          "blockNumber": "0x724ddd",
          "transactionHash": "0x38703224f1f364bdd943f533a41fdf2b154befdbf7989bb6450d0426fd4ef028",
          "transactionIndex": "0x58",
          "logIndex": "0xd4",
          "removed": false
        },
        {
          "address": "0x5eb9cc76c3506942c1c0ead70e877dd5e4f00cb0",
          "topics": [
            "0xddf252ad1be2c89b69c2b068fc378daa952ba7f163c4a11628f55a4df523b3ef",
            "0x0000000000000000000000000000000000000000000000000000000000000000",
            "0x000000000000000000000000c77f7fed3b5cc8249adc428c5f44c9063b9734b4"
          ],
          "data": "0x000000000000000000000000000000000000000000000000298876832d2e477b",
          "blockHash": "0x3cc4bb29611012ac5df97ca96cad3cae70082896ef32a082993d25dfbf67734f",
          "blockNumber": "0x724ddd",
          "transactionHash": "0x38703224f1f364bdd943f533a41fdf2b154befdbf7989bb6450d0426fd4ef028",
          "transactionIndex": "0x58",
          "logIndex": "0xd5",
          "removed": false
        },
        {
          "address": "0x5eb9cc76c3506942c1c0ead70e877dd5e4f00cb0",
          "topics": [
            "0x4afcb4a87cdbd9974efdb92ee48bc8d7cd0ae4bf217004db3d080cbaee652ca7"
          ],
          "data": "0x00000000000000000000000000000000000000000000000000000000678698100000000000000000000000000000000000000000000000000003909a98d3cb6e0000000000000000000000000000000000000000000000000de0b6b3a7640000",
          "blockHash": "0x3cc4bb29611012ac5df97ca96cad3cae70082896ef32a082993d25dfbf67734f",
          "blockNumber": "0x724ddd",
          "transactionHash": "0x38703224f1f364bdd943f533a41fdf2b154befdbf7989bb6450d0426fd4ef028",
          "transactionIndex": "0x58",
          "logIndex": "0xd6",
          "removed": false
        }
      ],
      "logsBloom": "0x00000000000000000000000000000000000000000000000000000000000000000000000000000000000000000000000000000000000000004000000000000000000000000000000000000008000000000000000000000000000000000000000000000000020000000000000004000800020000000000000000000010000000000000000000000000000000000000000000000000000000000000010000000000000000000000000000000000000000004000000000000000000000000000020000000002000000800000008000000000000000000000080000000000000020000000000000000000000000000000000000000000000000000000000000000000",
      "type": "0x2",
      "transactionHash": "0x38703224f1f364bdd943f533a41fdf2b154befdbf7989bb6450d0426fd4ef028",
      "transactionIndex": "0x58",
      "blockHash": "0x3cc4bb29611012ac5df97ca96cad3cae70082896ef32a082993d25dfbf67734f",
      "blockNumber": "0x724ddd",
      "gasUsed": "0x13af8",
      "effectiveGasPrice": "0x43054fa7d",
      "from": "0xc77f7fed3b5cc8249adc428c5f44c9063b9734b4",
      "to": "0x5eb9cc76c3506942c1c0ead70e877dd5e4f00cb0",
      "contractAddress": null
    }
  ],
  "libraries": [],
  "pending": [],
  "returns": {},
  "timestamp": 1736874001,
  "chain": 11155111,
  "commit": "51a374b"
}