{
  "transactions": [
    {
      "hash": "0x2aac65a9fbb8ae8b4dc4e24e2fad086106aa882f9118b3f048793254786d02ef",
      "transactionType": "CALL",
      "contractName": null,
      "contractAddress": "0x270e88f8683660553e8ba4eb2ad7c91a1710d769",
      "function": "sell(uint256)",
      "arguments": [
        "734991563144714014409"
      ],
      "transaction": {
        "from": "0xc77f7fed3b5cc8249adc428c5f44c9063b9734b4",
        "to": "0x270e88f8683660553e8ba4eb2ad7c91a1710d769",
        "gas": "0x16fec",
        "value": "0x0",
        "input": "0xe4849b32000000000000000000000000000000000000000000000027d80e948725c44ec9",
        "nonce": "0x774",
        "chainId": "0xaa36a7"
      },
      "additionalContracts": [],
      "isFixedGasLimit": false
    }
  ],
  "receipts": [
    {
      "status": "0x1",
      "cumulativeGasUsed": "0xbc20ca",
      "logs": [
        {
          "address": "0x270e88f8683660553e8ba4eb2ad7c91a1710d769",
          "topics": [
            "0xddf252ad1be2c89b69c2b068fc378daa952ba7f163c4a11628f55a4df523b3ef",
            "0x000000000000000000000000c77f7fed3b5cc8249adc428c5f44c9063b9734b4",
            "0x0000000000000000000000000000000000000000000000000000000000000000"
          ],
          "data": "0x000000000000000000000000000000000000000000000027d80e948725c44ec9",
          "blockHash": "0x3ddad56b4308894343574e279b0a447d40b19eb99a0eca912edc61a2b66f615f",
          "blockNumber": "0x7254a3",
          "transactionHash": "0x2aac65a9fbb8ae8b4dc4e24e2fad086106aa882f9118b3f048793254786d02ef",
          "transactionIndex": "0x33",
          "logIndex": "0x5c",
          "removed": false
        },
        {
          "address": "0x270e88f8683660553e8ba4eb2ad7c91a1710d769",
          "topics": [
            "0x4afcb4a87cdbd9974efdb92ee48bc8d7cd0ae4bf217004db3d080cbaee652ca7"
          ],
          "data": "0x000000000000000000000000000000000000000000000000000000006786e9ac0000000000000000000000000000000000000000000000000004cd0e81f9e8510000000000000000000000000000000000000000000000000dc827fb44911682",
          "blockHash": "0x3ddad56b4308894343574e279b0a447d40b19eb99a0eca912edc61a2b66f615f",
          "blockNumber": "0x7254a3",
          "transactionHash": "0x2aac65a9fbb8ae8b4dc4e24e2fad086106aa882f9118b3f048793254786d02ef",
          "transactionIndex": "0x33",
          "logIndex": "0x5d",
          "removed": false
        }
      ],
      "logsBloom": "0x00000000000000000000000000000000000000000000000000000000000000000000000000000000000000000000000020000000000000004000000000000000000000000000000000000008000000000000000000000000000000000000000000000000020000000000000000000800020000000000000000000010000000000000000000010000000000000000000000000000000000000000010000000000000000000000000000000000000000004000000000000000000000000000000000000002000000800000000000000000000000000000080000008000000020000000000000000000000000000000000000000000000000000000000000000000",
      "type": "0x2",
      "transactionHash": "0x2aac65a9fbb8ae8b4dc4e24e2fad086106aa882f9118b3f048793254786d02ef",
      "transactionIndex": "0x33",
      "blockHash": "0x3ddad56b4308894343574e279b0a447d40b19eb99a0eca912edc61a2b66f615f",
      "blockNumber": "0x7254a3",
      "gasUsed": "0xfb93",
      "effectiveGasPrice": "0x12ac76873",
      "from": "0xc77f7fed3b5cc8249adc428c5f44c9063b9734b4",
      "to": "0x270e88f8683660553e8ba4eb2ad7c91a1710d769",
      "contractAddress": null
    }
  ],
  "libraries": [],
  "pending": [],
  "returns": {},
  "timestamp": 1736894894,
  "chain": 11155111,
  "commit": "51a374b"
}