{
  "transactions": [
    {
      "hash": "0xbe0111768a2f6853257ed635bc6e18b48d483c23cd8a7cbc5d02112679670097",
      "transactionType": "CALL",
      "contractName": null,
      "contractAddress": "0xbf4a322f1496e5c3d34a9bcdb4c60567b38c7de2",
      "function": "buy(address)",
      "arguments": [
        "0xC77f7fed3b5Cc8249aDc428c5F44C9063B9734b4"
      ],
      "transaction": {
        "from": "0xc77f7fed3b5cc8249adc428c5f44c9063b9734b4",
        "to": "0xbf4a322f1496e5c3d34a9bcdb4c60567b38c7de2",
        "gas": "0x1b309",
        "value": "0xde0b6b3a7640000",
        "input": "0xf088d547000000000000000000000000c77f7fed3b5cc8249adc428c5f44c9063b9734b4",
        "nonce": "0xccc",
        "chainId": "0xaa36a7"
      },
      "additionalContracts": [],
      "isFixedGasLimit": false
    }
  ],
  "receipts": [
    {
      "status": "0x1",
      "cumulativeGasUsed": "0x17fc533",
      "logs": [
        {
          "address": "0xbf4a322f1496e5c3d34a9bcdb4c60567b38c7de2",
          "topics": [
            "0xddf252ad1be2c89b69c2b068fc378daa952ba7f163c4a11628f55a4df523b3ef",
            "0x0000000000000000000000000000000000000000000000000000000000000000",
            "0x000000000000000000000000c77f7fed3b5cc8249adc428c5f44c9063b9734b4"
          ],
          "data": "0x000000000000000000000000000000000000000000000034d58d55b006887fb2",
          "blockHash": "0x9b847c73ef12832d0e5f56515a5bda7eb5c6ebea85e203f5a540196705edf9b7",
          "blockNumber": "0x725d1c",
          "transactionHash": "0xbe0111768a2f6853257ed635bc6e18b48d483c23cd8a7cbc5d02112679670097",
          "transactionIndex": "0xb3",
          "logIndex": "0xed",
          "removed": false
        },
        {
          "address": "0xbf4a322f1496e5c3d34a9bcdb4c60567b38c7de2",
          "topics": [
            "0xddf252ad1be2c89b69c2b068fc378daa952ba7f163c4a11628f55a4df523b3ef",
            "0x0000000000000000000000000000000000000000000000000000000000000000",
            "0x000000000000000000000000c77f7fed3b5cc8249adc428c5f44c9063b9734b4"
          ],
          "data": "0x00000000000000000000000000000000000000000000000029070d74072203c1",
          "blockHash": "0x9b847c73ef12832d0e5f56515a5bda7eb5c6ebea85e203f5a540196705edf9b7",
          "blockNumber": "0x725d1c",
          "transactionHash": "0xbe0111768a2f6853257ed635bc6e18b48d483c23cd8a7cbc5d02112679670097",
          "transactionIndex": "0xb3",
          "logIndex": "0xee",
          "removed": false
        },
        {
          "address": "0xbf4a322f1496e5c3d34a9bcdb4c60567b38c7de2",
          "topics": [
            "0x4afcb4a87cdbd9974efdb92ee48bc8d7cd0ae4bf217004db3d080cbaee652ca7"
          ],
          "data": "0x0000000000000000000000000000000000000000000000000000000067874fc400000000000000000000000000000000000000000000000000039bdb76a6904b0000000000000000000000000000000000000000000000000de0b6b3a7640000",
          "blockHash": "0x9b847c73ef12832d0e5f56515a5bda7eb5c6ebea85e203f5a540196705edf9b7",
          "blockNumber": "0x725d1c",
          "transactionHash": "0xbe0111768a2f6853257ed635bc6e18b48d483c23cd8a7cbc5d02112679670097",
          "transactionIndex": "0xb3",
          "logIndex": "0xef",
          "removed": false
        }
      ],
      "logsBloom": "0x00000000000000000000000000000000000000000000000000000000000000000000000000000000000000000000000000000000000000004000000000000000000000000000000000000008000000000000001000000000000000000000000000000000020000000000000000000800020000000000000000000010000000000000000000000000000000000000000000000000000008000000010000000000000000000000000000000000000000004000000000000000000000000000000000000002000000800000000000001000000000000000080000000000000020000000000000000000000000000000000000000000000000000000000000000000",
      "type": "0x2",
      "transactionHash": "0xbe0111768a2f6853257ed635bc6e18b48d483c23cd8a7cbc5d02112679670097",
      "transactionIndex": "0xb3",
      "blockHash": "0x9b847c73ef12832d0e5f56515a5bda7eb5c6ebea85e203f5a540196705edf9b7",
      "blockNumber": "0x725d1c",
      "gasUsed": "0x13af6",
      "effectiveGasPrice": "0x3cf75bc76",
      "from": "0xc77f7fed3b5cc8249adc428c5f44c9063b9734b4",
      "to": "0xbf4a322f1496e5c3d34a9bcdb4c60567b38c7de2",
      "contractAddress": null
    }
  ],
  "libraries": [],
  "pending": [],
  "returns": {},
  "timestamp": 1736921029,
  "chain": 11155111,
  "commit": "51a374b"
}