{
  "transactions": [
    {
      "hash": "0x7d89695ae923cd340b8c9b1491695ad12bd6b583abcac0f775e444d4e84e0385",
      "transactionType": "CALL",
      "contractName": null,
      "contractAddress": "0x5eb9cc76c3506942c1c0ead70e877dd5e4f00cb0",
      "function": "buy(address)",
      "arguments": [
        "0xC77f7fed3b5Cc8249aDc428c5F44C9063B9734b4"
      ],
      "transaction": {
        "from": "0xc77f7fed3b5cc8249adc428c5f44c9063b9734b4",
        "to": "0x5eb9cc76c3506942c1c0ead70e877dd5e4f00cb0",
        "gas": "0x156c8",
        "value": "0xde0b6b3a7640000",
        "input": "0xf088d547000000000000000000000000c77f7fed3b5cc8249adc428c5f44c9063b9734b4",
        "nonce": "0x16a",
        "chainId": "0xaa36a7"
      },
      "additionalContracts": [],
      "isFixedGasLimit": false
    }
  ],
  "receipts": [
    {
      "status": "0x1",
      "cumulativeGasUsed": "0x74d283",
      "logs": [
        {
          "address": "0x5eb9cc76c3506942c1c0ead70e877dd5e4f00cb0",
          "topics": [
            "0xddf252ad1be2c89b69c2b068fc378daa952ba7f163c4a11628f55a4df523b3ef",
            "0x0000000000000000000000000000000000000000000000000000000000000000",
            "0x000000000000000000000000c77f7fed3b5cc8249adc428c5f44c9063b9734b4"
          ],
          "data": "0x000000000000000000000000000000000000000000000035a6d82a879daa7e0d",
          "blockHash": "0x3e8052f375ee37fe20dfbffca5836e4d8b985203d9e4d5890291d33fff109eeb",
          "blockNumber": "0x723c26",
          "transactionHash": "0x7d89695ae923cd340b8c9b1491695ad12bd6b583abcac0f775e444d4e84e0385",
          "transactionIndex": "0x46",
          "logIndex": "0x67",
          "removed": false
        },
        {
          "address": "0x5eb9cc76c3506942c1c0ead70e877dd5e4f00cb0",
          "topics": [
            "0xddf252ad1be2c89b69c2b068fc378daa952ba7f163c4a11628f55a4df523b3ef",
            "0x0000000000000000000000000000000000000000000000000000000000000000",
            "0x000000000000000000000000c77f7fed3b5cc8249adc428c5f44c9063b9734b4"
          ],
          "data": "0x00000000000000000000000000000000000000000000000029a9933e4f143bbd",
          "blockHash": "0x3e8052f375ee37fe20dfbffca5836e4d8b985203d9e4d5890291d33fff109eeb",
          "blockNumber": "0x723c26",
          "transactionHash": "0x7d89695ae923cd340b8c9b1491695ad12bd6b583abcac0f775e444d4e84e0385",
          "transactionIndex": "0x46",
          "logIndex": "0x68",
          "removed": false
        },
        {
          "address": "0x5eb9cc76c3506942c1c0ead70e877dd5e4f00cb0",
          "topics": [
            "0x4afcb4a87cdbd9974efdb92ee48bc8d7cd0ae4bf217004db3d080cbaee652ca7"
          ],
          "data": "0x000000000000000000000000000000000000000000000000000000006785c31c00000000000000000000000000000000000000000000000000038dc54882f3d50000000000000000000000000000000000000000000000000de0b6b3a7640000",
          "blockHash": "0x3e8052f375ee37fe20dfbffca5836e4d8b985203d9e4d5890291d33fff109eeb",
          "blockNumber": "0x723c26",
          "transactionHash": "0x7d89695ae923cd340b8c9b1491695ad12bd6b583abcac0f775e444d4e84e0385",
          "transactionIndex": "0x46",
          "logIndex": "0x69",
          "removed": false
        }
      ],
      "logsBloom": "0x00000000000000000000000000000000000000000000000000000000000000000000000000000000000000000000000000000000000000004000000000000000000000000000000000000008000000000000000000000000000000000000000000000000020000000000000004000800020000000000000000000010000000000000000000000000000000000000000000000000000000000000010000000000000000000000000000000000000000004000000000000000000000000000020000000002000000800000008000000000000000000000080000000000000020000000000000000000000000000000000000000000000000000000000000000000",
      "type": "0x2",
      "transactionHash": "0x7d89695ae923cd340b8c9b1491695ad12bd6b583abcac0f775e444d4e84e0385",
      "transactionIndex": "0x46",
      "blockHash": "0x3e8052f375ee37fe20dfbffca5836e4d8b985203d9e4d5890291d33fff109eeb",
      "blockNumber": "0x723c26",
      "gasUsed": "0xf82c",
      "effectiveGasPrice": "0x2271dc361",
      "from": "0xc77f7fed3b5cc8249adc428c5f44c9063b9734b4",
      "to": "0x5eb9cc76c3506942c1c0ead70e877dd5e4f00cb0",
      "contractAddress": null
    }
  ],
  "libraries": [],
  "pending": [],
  "returns": {},
  "timestamp": 1736819485,
  "chain": 11155111,
  "commit": "51a374b"
}