{
  "transactions": [
    {
      "hash": "0x0f60554ffe8d4cd8a57e96816bd675150fc274cc63471dd1045e6bef9d70b97a",
      "transactionType": "CALL",
      "contractName": null,
      "contractAddress": "0xbf4a322f1496e5c3d34a9bcdb4c60567b38c7de2",
      "function": "sell(uint256)",
      "arguments": [
        "981976963439705930978"
      ],
      "transaction": {
        "from": "0xc77f7fed3b5cc8249adc428c5f44c9063b9734b4",
        "to": "0xbf4a322f1496e5c3d34a9bcdb4c60567b38c7de2",
        "gas": "0x16fea",
        "value": "0x0",
        "input": "0xe4849b320000000000000000000000000000000000000000000000353baafd82f06b3ce2",
        "nonce": "0xb85",
        "chainId": "0xaa36a7"
      },
      "additionalContracts": [],
      "isFixedGasLimit": false
    }
  ],
  "receipts": [
    {
      "status": "0x1",
      "cumulativeGasUsed": "0x92773e",
      "logs": [
        {
          "address": "0xbf4a322f1496e5c3d34a9bcdb4c60567b38c7de2",
          "topics": [
            "0xddf252ad1be2c89b69c2b068fc378daa952ba7f163c4a11628f55a4df523b3ef",
            "0x000000000000000000000000c77f7fed3b5cc8249adc428c5f44c9063b9734b4",
            "0x0000000000000000000000000000000000000000000000000000000000000000"
          ],
          "data": "0x0000000000000000000000000000000000000000000000353baafd82f06b3ce2",
          "blockHash": "0x7de01143dc65315cb644d6a4e3e9ea3f0fa097a020a76aed826c4d86f455f570",
          "blockNumber": "0x725b94",
          "transactionHash": "0x0f60554ffe8d4cd8a57e96816bd675150fc274cc63471dd1045e6bef9d70b97a",
          "transactionIndex": "0x36",
          "logIndex": "0x3e",
          "removed": false
        },
        {
          "address": "0xbf4a322f1496e5c3d34a9bcdb4c60567b38c7de2",
          "topics": [
            "0x4afcb4a87cdbd9974efdb92ee48bc8d7cd0ae4bf217004db3d080cbaee652ca7"
          ],
          "data": "0x0000000000000000000000000000000000000000000000000000000067873d4c000000000000000000000000000000000000000000000000000397bb6d0b5f430000000000000000000000000000000000000000000000000dc7e3e6a9ade6af",
          "blockHash": "0x7de01143dc65315cb644d6a4e3e9ea3f0fa097a020a76aed826c4d86f455f570",
          "blockNumber": "0x725b94",
          "transactionHash": "0x0f60554ffe8d4cd8a57e96816bd675150fc274cc63471dd1045e6bef9d70b97a",
          "transactionIndex": "0x36",
          "logIndex": "0x3f",
          "removed": false
        }
      ],
      "logsBloom": "0x00000000000000000000000000000000000000000000000000000000000000000000000000000000000000000000000000000000000000004000000000000000000000000000000000000008000000000000001000000000000000000000000000000000020000000000000000000800020000000000000000000010000000000000000000000000000000000000000000000000000008000000010000000000000000000000000000000000000000004000000000000000000000000000000000000002000000800000000000001000000000000000080000000000000020000000000000000000000000000000000000000000000000000000000000000000",
      "type": "0x2",
      "transactionHash": "0x0f60554ffe8d4cd8a57e96816bd675150fc274cc63471dd1045e6bef9d70b97a",
      "transactionIndex": "0x36",
      "blockHash": "0x7de01143dc65315cb644d6a4e3e9ea3f0fa097a020a76aed826c4d86f455f570",
      "blockNumber": "0x725b94",
      "gasUsed": "0xfb91",
      "effectiveGasPrice": "0x455a2352",
      "from": "0xc77f7fed3b5cc8249adc428c5f44c9063b9734b4",
      "to": "0xbf4a322f1496e5c3d34a9bcdb4c60567b38c7de2",
      "contractAddress": null
    }
  ],
  "libraries": [],
  "pending": [],
  "returns": {},
  "timestamp": 1736916301,
  "chain": 11155111,
  "commit": "51a374b"
}