{
  "transactions": [
    {
      "hash": "0x514332e60d3df4d49f2cfb9e53e5bf8aae90bd32600c5fd2059171f7685f142b",
      "transactionType": "CALL",
      "contractName": null,
      "contractAddress": "0xbf4a322f1496e5c3d34a9bcdb4c60567b38c7de2",
      "function": "sell(uint256)",
      "arguments": [
        "989803759391651948609"
      ],
      "transaction": {
        "from": "0xc77f7fed3b5cc8249adc428c5f44c9063b9734b4",
        "to": "0xbf4a322f1496e5c3d34a9bcdb4c60567b38c7de2",
        "gas": "0x16fea",
        "value": "0x0",
        "input": "0xe4849b32000000000000000000000000000000000000000000000035a8495af62da06841",
        "nonce": "0x945",
        "chainId": "0xaa36a7"
      },
      "additionalContracts": [],
      "isFixedGasLimit": false
    }
  ],
  "receipts": [
    {
      "status": "0x1",
      "cumulativeGasUsed": "0xfcb327",
      "logs": [
        {
          "address": "0xbf4a322f1496e5c3d34a9bcdb4c60567b38c7de2",
          "topics": [
            "0xddf252ad1be2c89b69c2b068fc378daa952ba7f163c4a11628f55a4df523b3ef",
            "0x000000000000000000000000c77f7fed3b5cc8249adc428c5f44c9063b9734b4",
            "0x0000000000000000000000000000000000000000000000000000000000000000"
          ],
          "data": "0x000000000000000000000000000000000000000000000035a8495af62da06841",
          "blockHash": "0x5276b24611f27634d1f089dcbc19d56724b80d4cd2938c287d24901624131194",
          "blockNumber": "0x7258d0",
          "transactionHash": "0x514332e60d3df4d49f2cfb9e53e5bf8aae90bd32600c5fd2059171f7685f142b",
          "transactionIndex": "0x65",
          "logIndex": "0x93",
          "removed": false
        },
        {
          "address": "0xbf4a322f1496e5c3d34a9bcdb4c60567b38c7de2",
          "topics": [
            "0x4afcb4a87cdbd9974efdb92ee48bc8d7cd0ae4bf217004db3d080cbaee652ca7"
          ],
          "data": "0x0000000000000000000000000000000000000000000000000000000067871bec00000000000000000000000000000000000000000000000000039075a9cc8ffb0000000000000000000000000000000000000000000000000dc7e3f8dc2c68e9",
          "blockHash": "0x5276b24611f27634d1f089dcbc19d56724b80d4cd2938c287d24901624131194",
          "blockNumber": "0x7258d0",
          "transactionHash": "0x514332e60d3df4d49f2cfb9e53e5bf8aae90bd32600c5fd2059171f7685f142b",
          "transactionIndex": "0x65",
          "logIndex": "0x94",
          "removed": false
        }
      ],
      "logsBloom": "0x00000000000000000000000000000000000000000000000000000000000000000000000000000000000000000000000000000000000000004000000000000000000000000000000000000008000000000000001000000000000000000000000000000000020000000000000000000800020000000000000000000010000000000000000000000000000000000000000000000000000008000000010000000000000000000000000000000000000000004000000000000000000000000000000000000002000000800000000000001000000000000000080000000000000020000000000000000000000000000000000000000000000000000000000000000000",
      "type": "0x2",
      "transactionHash": "0x514332e60d3df4d49f2cfb9e53e5bf8aae90bd32600c5fd2059171f7685f142b",
      "transactionIndex": "0x65",
      "blockHash": "0x5276b24611f27634d1f089dcbc19d56724b80d4cd2938c287d24901624131194",
      "blockNumber": "0x7258d0",
      "gasUsed": "0xfb91",
      "effectiveGasPrice": "0x5a7343d1",
      "from": "0xc77f7fed3b5cc8249adc428c5f44c9063b9734b4",
      "to": "0xbf4a322f1496e5c3d34a9bcdb4c60567b38c7de2",
      "contractAddress": null
    }
  ],
  "libraries": [],
  "pending": [],
  "returns": {},
  "timestamp": 1736907757,
  "chain": 11155111,
  "commit": "51a374b"
}