{
  "transactions": [
    {
      "hash": "0xceb7ca1286d9a45242bc9e4cffafecb816285827c96eab7134414670d308dc0e",
      "transactionType": "CALL",
      "contractName": null,
      "contractAddress": "0x8aafd3ede9adb0ff97c7aebce82a919afb1c8764",
      "function": "sell(uint256)",
      "arguments": [
        "11113"
      ],
      "transaction": {
        "from": "0xc77f7fed3b5cc8249adc428c5f44c9063b9734b4",
        "to": "0x8aafd3ede9adb0ff97c7aebce82a919afb1c8764",
        "gas": "0x14e4c",
        "value": "0x0",
        "input": "0xe4849b320000000000000000000000000000000000000000000000000000000000002b69",
        "nonce": "0x12fb",
        "chainId": "0xaa36a7"
      },
      "additionalContracts": [],
      "isFixedGasLimit": false
    }
  ],
  "receipts": [
    {
      "status": "0x1",
      "cumulativeGasUsed": "0x20f5a0f",
      "logs": [
        {
          "address": "0x8aafd3ede9adb0ff97c7aebce82a919afb1c8764",
          "topics": [
            "0xddf252ad1be2c89b69c2b068fc378daa952ba7f163c4a11628f55a4df523b3ef",
            "0x000000000000000000000000c77f7fed3b5cc8249adc428c5f44c9063b9734b4",
            "0x0000000000000000000000000000000000000000000000000000000000000000"
          ],
          "data": "0x0000000000000000000000000000000000000000000000000000000000002b11",
          "blockHash": "0x785e981484593fcf3f9004dcf5979ee88985a1894df7522121df0dfc0eb62deb",
          "blockNumber": "0x731a02",
          "transactionHash": "0xceb7ca1286d9a45242bc9e4cffafecb816285827c96eab7134414670d308dc0e",
          "transactionIndex": "0x59",
          "logIndex": "0x1113",
          "removed": false
        },
        {
          "address": "0x8aafd3ede9adb0ff97c7aebce82a919afb1c8764",
          "topics": [
            "0xddf252ad1be2c89b69c2b068fc378daa952ba7f163c4a11628f55a4df523b3ef",
            "0x000000000000000000000000c77f7fed3b5cc8249adc428c5f44c9063b9734b4",
            "0x000000000000000000000000c77f7fed3b5cc8249adc428c5f44c9063b9734b4"
          ],
          "data": "0x0000000000000000000000000000000000000000000000000000000000000058",
          "blockHash": "0x785e981484593fcf3f9004dcf5979ee88985a1894df7522121df0dfc0eb62deb",
          "blockNumber": "0x731a02",
          "transactionHash": "0xceb7ca1286d9a45242bc9e4cffafecb816285827c96eab7134414670d308dc0e",
          "transactionIndex": "0x59",
          "logIndex": "0x1114",
          "removed": false
        },
        {
          "address": "0x8aafd3ede9adb0ff97c7aebce82a919afb1c8764",
          "topics": [
            "0x4afcb4a87cdbd9974efdb92ee48bc8d7cd0ae4bf217004db3d080cbaee652ca7"
          ],
          "data": "0x00000000000000000000000000000000000000000000000000000000679034e8000000000000000000000000000000000000000000000000000554cfa80ab84a0000000000000000000000000000000000000000000000000000000000000010",
          "blockHash": "0x785e981484593fcf3f9004dcf5979ee88985a1894df7522121df0dfc0eb62deb",
          "blockNumber": "0x731a02",
          "transactionHash": "0xceb7ca1286d9a45242bc9e4cffafecb816285827c96eab7134414670d308dc0e",
          "transactionIndex": "0x59",
          "logIndex": "0x1115",
          "removed": false
        }
      ],
      "logsBloom": "0x00000000000000000000000000000000000000000600000000000000000000000000000000000000000000000000000000000000000000004000000000000000000000000000004000000008000000000000000000000000000000000000000000000000020000000000000000000800020000000000000000000010000000000000000000000000000000000000000000000000000000000000010000000000000000000000000000000000000000004000000000000000000000000000000000000002000000800000000000000000000000000000080000000000000020000000000000000000000000000000000000000000000000000000000000000000",
      "type": "0x2",
      "transactionHash": "0xceb7ca1286d9a45242bc9e4cffafecb816285827c96eab7134414670d308dc0e",
      "transactionIndex": "0x59",
      "blockHash": "0x785e981484593fcf3f9004dcf5979ee88985a1894df7522121df0dfc0eb62deb",
      "blockNumber": "0x731a02",
      "gasUsed": "0xf207",
      "effectiveGasPrice": "0x45c3da4f",
      "from": "0xc77f7fed3b5cc8249adc428c5f44c9063b9734b4",
      "to": "0x8aafd3ede9adb0ff97c7aebce82a919afb1c8764",
      "contractAddress": null
    }
  ],
  "libraries": [],
  "pending": [],
  "returns": {},
  "timestamp": 1737503977,
  "chain": 11155111,
  "commit": "1d2fb70"
}