{
  "transactions": [
    {
      "hash": "0x721da9f11c1c82a1bb568bfc9546326e770e3361e6651ffe2a8fc6cca505432d",
      "transactionType": "CALL",
      "contractName": null,
      "contractAddress": "0x8aafd3ede9adb0ff97c7aebce82a919afb1c8764",
      "function": "sell(uint256)",
      "arguments": [
        "5656434886"
      ],
      "transaction": {
        "from": "0xc77f7fed3b5cc8249adc428c5f44c9063b9734b4",
        "to": "0x8aafd3ede9adb0ff97c7aebce82a919afb1c8764",
        "gas": "0x1722a",
        "value": "0x0",
        "input": "0xe4849b3200000000000000000000000000000000000000000000000000000001512658c6",
        "nonce": "0x162d",
        "chainId": "0xaa36a7"
      },
      "additionalContracts": [],
      "isFixedGasLimit": false
    }
  ],
  "receipts": [
    {
      "status": "0x1",
      "cumulativeGasUsed": "0x11ced06",
      "logs": [
        {
          "address": "0x8aafd3ede9adb0ff97c7aebce82a919afb1c8764",
          "topics": [
            "0xddf252ad1be2c89b69c2b068fc378daa952ba7f163c4a11628f55a4df523b3ef",
            "0x000000000000000000000000c77f7fed3b5cc8249adc428c5f44c9063b9734b4",
            "0x0000000000000000000000000000000000000000000000000000000000000000"
          ],
          "data": "0x000000000000000000000000000000000000000000000000000000014e73dd2f",
          "blockHash": "0x6a638b3451e5301ab6c6213268445830f7ea43d168a3e1afc68b91c5fa5d07c3",
          "blockNumber": "0x731dc5",
          "transactionHash": "0x721da9f11c1c82a1bb568bfc9546326e770e3361e6651ffe2a8fc6cca505432d",
          "transactionIndex": "0x8f",
          "logIndex": "0x13d",
          "removed": false
        },
        {
          "address": "0x8aafd3ede9adb0ff97c7aebce82a919afb1c8764",
          "topics": [
            "0xddf252ad1be2c89b69c2b068fc378daa952ba7f163c4a11628f55a4df523b3ef",
            "0x000000000000000000000000c77f7fed3b5cc8249adc428c5f44c9063b9734b4",
            "0x000000000000000000000000c77f7fed3b5cc8249adc428c5f44c9063b9734b4"
          ],
          "data": "0x0000000000000000000000000000000000000000000000000000000002b27b97",
          "blockHash": "0x6a638b3451e5301ab6c6213268445830f7ea43d168a3e1afc68b91c5fa5d07c3",
          "blockNumber": "0x731dc5",
          "transactionHash": "0x721da9f11c1c82a1bb568bfc9546326e770e3361e6651ffe2a8fc6cca505432d",
          "transactionIndex": "0x8f",
          "logIndex": "0x13e",
          "removed": false
        },
        {
          "address": "0x8aafd3ede9adb0ff97c7aebce82a919afb1c8764",
          "topics": [
            "0x4afcb4a87cdbd9974efdb92ee48bc8d7cd0ae4bf217004db3d080cbaee652ca7"
          ],
          "data": "0x000000000000000000000000000000000000000000000000000000006790622400000000000000000000000000000000000000000000000000148aabbc5df5af0000000000000000000000000000000000000000000000000000000001f30b37",
          "blockHash": "0x6a638b3451e5301ab6c6213268445830f7ea43d168a3e1afc68b91c5fa5d07c3",
          "blockNumber": "0x731dc5",
          "transactionHash": "0x721da9f11c1c82a1bb568bfc9546326e770e3361e6651ffe2a8fc6cca505432d",
          "transactionIndex": "0x8f",
          "logIndex": "0x13f",
          "removed": false
        }
      ],
      "logsBloom": "0x00000000000000000000000000000000000000000600000000000000000000000000000000000000000000000000000000000000000000004000000000000000000000000000004000000008000000000000000000000000000000000000000000000000020000000000000000000800020000000000000000000010000000000000000000000000000000000000000000000000000000000000010000000000000000000000000000000000000000004000000000000000000000000000000000000002000000800000000000000000000000000000080000000000000020000000000000000000000000000000000000000000000000000000000000000000",
      "type": "0x2",
      "transactionHash": "0x721da9f11c1c82a1bb568bfc9546326e770e3361e6651ffe2a8fc6cca505432d",
      "transactionIndex": "0x8f",
      "blockHash": "0x6a638b3451e5301ab6c6213268445830f7ea43d168a3e1afc68b91c5fa5d07c3",
      "blockNumber": "0x731dc5",
      "gasUsed": "0xfd1b",
      "effectiveGasPrice": "0x55d58037",
      "from": "0xc77f7fed3b5cc8249adc428c5f44c9063b9734b4",
      "to": "0x8aafd3ede9adb0ff97c7aebce82a919afb1c8764",
      "contractAddress": null
    }
  ],
  "libraries": [],
  "pending": [],
  "returns": {},
  "timestamp": 1737515558,
  "chain": 11155111,
  "commit": "1d2fb70"
}