{
  "transactions": [
    {
      "hash": "0x093d6b4c100b9af2f63fe1e6885e15ee61d60756a8dd001b4f66da6bcbae5cf0",
      "transactionType": "CALL",
      "contractName": null,
      "contractAddress": "0x8aafd3ede9adb0ff97c7aebce82a919afb1c8764",
      "function": "sell(uint256)",
      "arguments": [
        "194611204"
      ],
      "transaction": {
        "from": "0xc77f7fed3b5cc8249adc428c5f44c9063b9734b4",
        "to": "0x8aafd3ede9adb0ff97c7aebce82a919afb1c8764",
        "gas": "0x14e6c",
        "value": "0x0",
        "input": "0xe4849b32000000000000000000000000000000000000000000000000000000000b998804",
        "nonce": "0xf59",
        "chainId": "0xaa36a7"
      },
      "additionalContracts": [],
      "isFixedGasLimit": false
    }
  ],
  "receipts": [
    {
      "status": "0x1",
      "cumulativeGasUsed": "0xe8aadd",
      "logs": [
        {
          "address": "0x8aafd3ede9adb0ff97c7aebce82a919afb1c8764",
          "topics": [
            "0xddf252ad1be2c89b69c2b068fc378daa952ba7f163c4a11628f55a4df523b3ef",
            "0x000000000000000000000000c77f7fed3b5cc8249adc428c5f44c9063b9734b4",
            "0x0000000000000000000000000000000000000000000000000000000000000000"
          ],
          "data": "0x000000000000000000000000000000000000000000000000000000000b81c66b",
          "blockHash": "0x13ddb43b1e7a7236ad5c37dfc0a4ac465d932da136fb09b61b0b9d86e5dc2835",
          "blockNumber": "0x7315b6",
          "transactionHash": "0x093d6b4c100b9af2f63fe1e6885e15ee61d60756a8dd001b4f66da6bcbae5cf0",
          "transactionIndex": "0x89",
          "logIndex": "0xd0",
          "removed": false
        },
        {
          "address": "0x8aafd3ede9adb0ff97c7aebce82a919afb1c8764",
          "topics": [
            "0xddf252ad1be2c89b69c2b068fc378daa952ba7f163c4a11628f55a4df523b3ef",
            "0x000000000000000000000000c77f7fed3b5cc8249adc428c5f44c9063b9734b4",
            "0x000000000000000000000000c77f7fed3b5cc8249adc428c5f44c9063b9734b4"
          ],
          "data": "0x000000000000000000000000000000000000000000000000000000000017c199",
          "blockHash": "0x13ddb43b1e7a7236ad5c37dfc0a4ac465d932da136fb09b61b0b9d86e5dc2835",
          "blockNumber": "0x7315b6",
          "transactionHash": "0x093d6b4c100b9af2f63fe1e6885e15ee61d60756a8dd001b4f66da6bcbae5cf0",
          "transactionIndex": "0x89",
          "logIndex": "0xd1",
          "removed": false
        },
        {
          "address": "0x8aafd3ede9adb0ff97c7aebce82a919afb1c8764",
          "topics": [
            "0x4afcb4a87cdbd9974efdb92ee48bc8d7cd0ae4bf217004db3d080cbaee652ca7"
          ],
          "data": "0x00000000000000000000000000000000000000000000000000000000679001340000000000000000000000000000000000000000000000000004c0db9f45614f000000000000000000000000000000000000000000000000000000000003f91b",
          "blockHash": "0x13ddb43b1e7a7236ad5c37dfc0a4ac465d932da136fb09b61b0b9d86e5dc2835",
          "blockNumber": "0x7315b6",
          "transactionHash": "0x093d6b4c100b9af2f63fe1e6885e15ee61d60756a8dd001b4f66da6bcbae5cf0",
          "transactionIndex": "0x89",
          "logIndex": "0xd2",
          "removed": false
        }
      ],
      "logsBloom": "0x00000000000000000000000000000000000000000600000000000000000000000000000000000000000000000000000000000000000000004000000000000000000000000000004000000008000000000000000000000000000000000000000000000000020000000000000000000800020000000000000000000010000000000000000000000000000000000000000000000000000000000000010000000000000000000000000000000000000000004000000000000000000000000000000000000002000000800000000000000000000000000000080000000000000020000000000000000000000000000000000000000000000000000000000000000000",
      "type": "0x2",
      "transactionHash": "0x093d6b4c100b9af2f63fe1e6885e15ee61d60756a8dd001b4f66da6bcbae5cf0",
      "transactionIndex": "0x89",
      "blockHash": "0x13ddb43b1e7a7236ad5c37dfc0a4ac465d932da136fb09b61b0b9d86e5dc2835",
      "blockNumber": "0x7315b6",
      "gasUsed": "0xf21f",
      "effectiveGasPrice": "0x7938aa47",
      "from": "0xc77f7fed3b5cc8249adc428c5f44c9063b9734b4",
      "to": "0x8aafd3ede9adb0ff97c7aebce82a919afb1c8764",
      "contractAddress": null
    }
  ],
  "libraries": [],
  "pending": [],
  "returns": {},
  "timestamp": 1737490741,
  "chain": 11155111,
  "commit": "1d2fb70"
}