{
  "transactions": [
    {
      "hash": "0x08a00264e581ceeb99b79d8f0b5514681fd2e63cca46a219a253e9a4672f7707",
      "transactionType": "CALL",
      "contractName": null,
      "contractAddress": "0x8aafd3ede9adb0ff97c7aebce82a919afb1c8764",
      "function": "sell(uint256)",
      "arguments": [
        "12465"
      ],
      "transaction": {
        "from": "0xc77f7fed3b5cc8249adc428c5f44c9063b9734b4",
        "to": "0x8aafd3ede9adb0ff97c7aebce82a919afb1c8764",
        "gas": "0x14e4c",
        "value": "0x0",
        "input": "0xe4849b3200000000000000000000000000000000000000000000000000000000000030b1",
        "nonce": "0xf3d",
        "chainId": "0xaa36a7"
      },
      "additionalContracts": [],
      "isFixedGasLimit": false
    }
  ],
  "receipts": [
    {
      "status": "0x1",
      "cumulativeGasUsed": "0xb26c1b",
      "logs": [
        {
          "address": "0x8aafd3ede9adb0ff97c7aebce82a919afb1c8764",
          "topics": [
            "0xddf252ad1be2c89b69c2b068fc378daa952ba7f163c4a11628f55a4df523b3ef",
            "0x000000000000000000000000c77f7fed3b5cc8249adc428c5f44c9063b9734b4",
            "0x0000000000000000000000000000000000000000000000000000000000000000"
          ],
          "data": "0x000000000000000000000000000000000000000000000000000000000000304e",
          "blockHash": "0xa638969cdafb44cacfecf424f2a567f92c5a3c9a296a23664b3fdddf5e85a847",
          "blockNumber": "0x731597",
          "transactionHash": "0x08a00264e581ceeb99b79d8f0b5514681fd2e63cca46a219a253e9a4672f7707",
          "transactionIndex": "0x80",
          "logIndex": "0xb6",
          "removed": false
        },
        {
          "address": "0x8aafd3ede9adb0ff97c7aebce82a919afb1c8764",
          "topics": [
            "0xddf252ad1be2c89b69c2b068fc378daa952ba7f163c4a11628f55a4df523b3ef",
            "0x000000000000000000000000c77f7fed3b5cc8249adc428c5f44c9063b9734b4",
            "0x000000000000000000000000c77f7fed3b5cc8249adc428c5f44c9063b9734b4"
          ],
          "data": "0x0000000000000000000000000000000000000000000000000000000000000063",
          "blockHash": "0xa638969cdafb44cacfecf424f2a567f92c5a3c9a296a23664b3fdddf5e85a847",
          "blockNumber": "0x731597",
          "transactionHash": "0x08a00264e581ceeb99b79d8f0b5514681fd2e63cca46a219a253e9a4672f7707",
          "transactionIndex": "0x80",
          "logIndex": "0xb7",
          "removed": false
        },
        {
          "address": "0x8aafd3ede9adb0ff97c7aebce82a919afb1c8764",
          "topics": [
            "0x4afcb4a87cdbd9974efdb92ee48bc8d7cd0ae4bf217004db3d080cbaee652ca7"
          ],
          "data": "0x00000000000000000000000000000000000000000000000000000000678fffc00000000000000000000000000000000000000000000000000004bfdfc8ad5b5a0000000000000000000000000000000000000000000000000000000000000010",
          "blockHash": "0xa638969cdafb44cacfecf424f2a567f92c5a3c9a296a23664b3fdddf5e85a847",
          "blockNumber": "0x731597",
          "transactionHash": "0x08a00264e581ceeb99b79d8f0b5514681fd2e63cca46a219a253e9a4672f7707",
          "transactionIndex": "0x80",
          "logIndex": "0xb8",
          "removed": false
        }
      ],
      "logsBloom": "0x00000000000000000000000000000000000000000600000000000000000000000000000000000000000000000000000000000000000000004000000000000000000000000000004000000008000000000000000000000000000000000000000000000000020000000000000000000800020000000000000000000010000000000000000000000000000000000000000000000000000000000000010000000000000000000000000000000000000000004000000000000000000000000000000000000002000000800000000000000000000000000000080000000000000020000000000000000000000000000000000000000000000000000000000000000000",
      "type": "0x2",
      "transactionHash": "0x08a00264e581ceeb99b79d8f0b5514681fd2e63cca46a219a253e9a4672f7707",
      "transactionIndex": "0x80",
      "blockHash": "0xa638969cdafb44cacfecf424f2a567f92c5a3c9a296a23664b3fdddf5e85a847",
      "blockNumber": "0x731597",
      "gasUsed": "0xf207",
      "effectiveGasPrice": "0x5ff58971",
      "from": "0xc77f7fed3b5cc8249adc428c5f44c9063b9734b4",
      "to": "0x8aafd3ede9adb0ff97c7aebce82a919afb1c8764",
      "contractAddress": null
    }
  ],
  "libraries": [],
  "pending": [],
  "returns": {},
  "timestamp": 1737490369,
  "chain": 11155111,
  "commit": "1d2fb70"
}