{
  "transactions": [
    {
      "hash": "0x773abeff5c44c157ec204c7beecc1f68ef0c26dc3a5dc8c8bf6edd130a14a201",
      "transactionType": "CALL",
      "contractName": null,
      "contractAddress": "0x270e88f8683660553e8ba4eb2ad7c91a1710d769",
      "function": "buy(address)",
      "arguments": [
        "0xC77f7fed3b5Cc8249aDc428c5F44C9063B9734b4"
      ],
      "transaction": {
        "from": "0xc77f7fed3b5cc8249adc428c5f44c9063b9734b4",
        "to": "0x270e88f8683660553e8ba4eb2ad7c91a1710d769",
        "gas": "0x1b30c",
        "value": "0xde0b6b3a7640000",
        "input": "0xf088d547000000000000000000000000c77f7fed3b5cc8249adc428c5f44c9063b9734b4",
        "nonce": "0x749",
        "chainId": "0xaa36a7"
      },
      "additionalContracts": [],
      "isFixedGasLimit": false
    }
  ],
  "receipts": [
    {
      "status": "0x1",
      "cumulativeGasUsed": "0x5e202d",
      "logs": [
        {
          "address": "0x270e88f8683660553e8ba4eb2ad7c91a1710d769",
          "topics": [
            "0xddf252ad1be2c89b69c2b068fc378daa952ba7f163c4a11628f55a4df523b3ef",
            "0x0000000000000000000000000000000000000000000000000000000000000000",
            "0x000000000000000000000000c77f7fed3b5cc8249adc428c5f44c9063b9734b4"
          ],
          "data": "0x000000000000000000000000000000000000000000000027ec60f58517ccaa8d",
          "blockHash": "0x96fd30f4528bea89eca3055a37f188e2a5778c3bb30718644f1e4b3240f79484",
          "blockNumber": "0x72546c",
          "transactionHash": "0x773abeff5c44c157ec204c7beecc1f68ef0c26dc3a5dc8c8bf6edd130a14a201",
          "transactionIndex": "0x42",
          "logIndex": "0x67",
          "removed": false
        },
        {
          "address": "0x270e88f8683660553e8ba4eb2ad7c91a1710d769",
          "topics": [
            "0xddf252ad1be2c89b69c2b068fc378daa952ba7f163c4a11628f55a4df523b3ef",
            "0x0000000000000000000000000000000000000000000000000000000000000000",
            "0x000000000000000000000000c77f7fed3b5cc8249adc428c5f44c9063b9734b4"
          ],
          "data": "0x0000000000000000000000000000000000000000000000001f007903ac44c4fb",
          "blockHash": "0x96fd30f4528bea89eca3055a37f188e2a5778c3bb30718644f1e4b3240f79484",
          "blockNumber": "0x72546c",
          "transactionHash": "0x773abeff5c44c157ec204c7beecc1f68ef0c26dc3a5dc8c8bf6edd130a14a201",
          "transactionIndex": "0x42",
          "logIndex": "0x68",
          "removed": false
        },
        {
          "address": "0x270e88f8683660553e8ba4eb2ad7c91a1710d769",
          "topics": [
            "0x4afcb4a87cdbd9974efdb92ee48bc8d7cd0ae4bf217004db3d080cbaee652ca7"
          ],
          "data": "0x000000000000000000000000000000000000000000000000000000006786e7180000000000000000000000000000000000000000000000000004c6b77839d6ad0000000000000000000000000000000000000000000000000de0b6b3a7640000",
          "blockHash": "0x96fd30f4528bea89eca3055a37f188e2a5778c3bb30718644f1e4b3240f79484",
          "blockNumber": "0x72546c",
          "transactionHash": "0x773abeff5c44c157ec204c7beecc1f68ef0c26dc3a5dc8c8bf6edd130a14a201",
          "transactionIndex": "0x42",
          "logIndex": "0x69",
          "removed": false
        }
      ],
      "logsBloom": "0x00000000000000000000000000000000000000000000000000000000000000000000000000000000000000000000000020000000000000004000000000000000000000000000000000000008000000000000000000000000000000000000000000000000020000000000000000000800020000000000000000000010000000000000000000010000000000000000000000000000000000000000010000000000000000000000000000000000000000004000000000000000000000000000000000000002000000800000000000000000000000000000080000008000000020000000000000000000000000000000000000000000000000000000000000000000",
      "type": "0x2",
      "transactionHash": "0x773abeff5c44c157ec204c7beecc1f68ef0c26dc3a5dc8c8bf6edd130a14a201",
      "transactionIndex": "0x42",
      "blockHash": "0x96fd30f4528bea89eca3055a37f188e2a5778c3bb30718644f1e4b3240f79484",
      "blockNumber": "0x72546c",
      "gasUsed": "0x13af8",
      "effectiveGasPrice": "0x14165de39",
      "from": "0xc77f7fed3b5cc8249adc428c5f44c9063b9734b4",
      "to": "0x270e88f8683660553e8ba4eb2ad7c91a1710d769",
      "contractAddress": null
    }
  ],
  "libraries": [],
  "pending": [],
  "returns": {},
  "timestamp": 1736894233,
  "chain": 11155111,
  "commit": "51a374b"
}