{
  "transactions": [
    {
      "hash": "0x811b5d716723340f465a41d9f74deae700f84425610249837652f34e9c8310e6",
      "transactionType": "CALL",
      "contractName": null,
      "contractAddress": "0x8aafd3ede9adb0ff97c7aebce82a919afb1c8764",
      "function": "sell(uint256)",
      "arguments": [
        "2928658066473"
      ],
      "transaction": {
        "from": "0xc77f7fed3b5cc8249adc428c5f44c9063b9734b4",
        "to": "0x8aafd3ede9adb0ff97c7aebce82a919afb1c8764",
        "gas": "0x15daa",
        "value": "0x0",
        "input": "0xe4849b32000000000000000000000000000000000000000000000000000002a9e19fac29",
        "nonce": "0x1045",
        "chainId": "0xaa36a7"
      },
      "additionalContracts": [],
      "isFixedGasLimit": false
    }
  ],
  "receipts": [
    {
      "status": "0x1",
      "cumulativeGasUsed": "0xadcfc7",
      "logs": [
        {
          "address": "0x8aafd3ede9adb0ff97c7aebce82a919afb1c8764",
          "topics": [
            "0xddf252ad1be2c89b69c2b068fc378daa952ba7f163c4a11628f55a4df523b3ef",
            "0x000000000000000000000000c77f7fed3b5cc8249adc428c5f44c9063b9734b4",
            "0x0000000000000000000000000000000000000000000000000000000000000000"
          ],
          "data": "0x000000000000000000000000000000000000000000000000000002a46d217796",
          "blockHash": "0xea4778f7cf8af610ba8f20f7ed5f0e419f8c873d972c6cb78f786ab1d1a411e1",
          "blockNumber": "0x7316c5",
          "transactionHash": "0x811b5d716723340f465a41d9f74deae700f84425610249837652f34e9c8310e6",
          "transactionIndex": "0x7e",
          "logIndex": "0xa6",
          "removed": false
        },
        {
          "address": "0x8aafd3ede9adb0ff97c7aebce82a919afb1c8764",
          "topics": [
            "0xddf252ad1be2c89b69c2b068fc378daa952ba7f163c4a11628f55a4df523b3ef",
            "0x000000000000000000000000c77f7fed3b5cc8249adc428c5f44c9063b9734b4",
            "0x000000000000000000000000c77f7fed3b5cc8249adc428c5f44c9063b9734b4"
          ],
          "data": "0x00000000000000000000000000000000000000000000000000000005747e3493",
          "blockHash": "0xea4778f7cf8af610ba8f20f7ed5f0e419f8c873d972c6cb78f786ab1d1a411e1",
          "blockNumber": "0x7316c5",
          "transactionHash": "0x811b5d716723340f465a41d9f74deae700f84425610249837652f34e9c8310e6",
          "transactionIndex": "0x7e",
          "logIndex": "0xa7",
          "removed": false
        },
        {
          "address": "0x8aafd3ede9adb0ff97c7aebce82a919afb1c8764",
          "topics": [
            "0x4afcb4a87cdbd9974efdb92ee48bc8d7cd0ae4bf217004db3d080cbaee652ca7"
          ],
          "data": "0x0000000000000000000000000000000000000000000000000000000067900df40000000000000000000000000000000000000000000000000004f09087c47b7c00000000000000000000000000000000000000000000000000000000f2b60999",
          "blockHash": "0xea4778f7cf8af610ba8f20f7ed5f0e419f8c873d972c6cb78f786ab1d1a411e1",
          "blockNumber": "0x7316c5",
          "transactionHash": "0x811b5d716723340f465a41d9f74deae700f84425610249837652f34e9c8310e6",
          "transactionIndex": "0x7e",
          "logIndex": "0xa8",
          "removed": false
        }
      ],
      "logsBloom": "0x00000000000000000000000000000000000000000600000000000000000000000000000000000000000000000000000000000000000000004000000000000000000000000000004000000008000000000000000000000000000000000000000000000000020000000000000000000800020000000000000000000010000000000000000000000000000000000000000000000000000000000000010000000000000000000000000000000000000000004000000000000000000000000000000000000002000000800000000000000000000000000000080000000000000020000000000000000000000000000000000000000000000000000000000000000000",
      "type": "0x2",
      "transactionHash": "0x811b5d716723340f465a41d9f74deae700f84425610249837652f34e9c8310e6",
      "transactionIndex": "0x7e",
      "blockHash": "0xea4778f7cf8af610ba8f20f7ed5f0e419f8c873d972c6cb78f786ab1d1a411e1",
      "blockNumber": "0x7316c5",
      "gasUsed": "0xfd27",
      "effectiveGasPrice": "0x41f185c2",
      "from": "0xc77f7fed3b5cc8249adc428c5f44c9063b9734b4",
      "to": "0x8aafd3ede9adb0ff97c7aebce82a919afb1c8764",
      "contractAddress": null
    }
  ],
  "libraries": [],
  "pending": [],
  "returns": {},
  "timestamp": 1737494005,
  "chain": 11155111,
  "commit": "1d2fb70"
}