{
  "transactions": [
    {
      "hash": "0x435ab7d2ad23f146a390b678c92e2fad94ef43f6a5015d997e55f8a921965e54",
      "transactionType": "CALL",
      "contractName": null,
      "contractAddress": "0x270e88f8683660553e8ba4eb2ad7c91a1710d769",
      "function": "sell(uint256)",
      "arguments": [
        "948167920248120099171"
      ],
      "transaction": {
        "from": "0xc77f7fed3b5cc8249adc428c5f44c9063b9734b4",
        "to": "0x270e88f8683660553e8ba4eb2ad7c91a1710d769",
        "gas": "0x16fec",
        "value": "0x0",
        "input": "0xe4849b32000000000000000000000000000000000000000000000033667923db521b4163",
        "nonce": "0x5fb",
        "chainId": "0xaa36a7"
      },
      "additionalContracts": [],
      "isFixedGasLimit": false
    }
  ],
  "receipts": [
    {
      "status": "0x1",
      "cumulativeGasUsed": "0x15be781",
      "logs": [
        {
          "address": "0x270e88f8683660553e8ba4eb2ad7c91a1710d769",
          "topics": [
            "0xddf252ad1be2c89b69c2b068fc378daa952ba7f163c4a11628f55a4df523b3ef",
            "0x000000000000000000000000c77f7fed3b5cc8249adc428c5f44c9063b9734b4",
            "0x0000000000000000000000000000000000000000000000000000000000000000"
          ],
          "data": "0x000000000000000000000000000000000000000000000033667923db521b4163",
          "blockHash": "0x92dfe863c5129e2ccfa9c81fc8a228ba82b3a07434621088aefadf0346acdb56",
          "blockNumber": "0x7252c2",
          "transactionHash": "0x435ab7d2ad23f146a390b678c92e2fad94ef43f6a5015d997e55f8a921965e54",
          "transactionIndex": "0x5e",
          "logIndex": "0xc4",
          "removed": false
        },
        {
          "address": "0x270e88f8683660553e8ba4eb2ad7c91a1710d769",
          "topics": [
            "0x4afcb4a87cdbd9974efdb92ee48bc8d7cd0ae4bf217004db3d080cbaee652ca7"
          ],
          "data": "0x000000000000000000000000000000000000000000000000000000006786d3200000000000000000000000000000000000000000000000000003b8cb2dc688e20000000000000000000000000000000000000000000000000dc83df869d7474a",
          "blockHash": "0x92dfe863c5129e2ccfa9c81fc8a228ba82b3a07434621088aefadf0346acdb56",
          "blockNumber": "0x7252c2",
          "transactionHash": "0x435ab7d2ad23f146a390b678c92e2fad94ef43f6a5015d997e55f8a921965e54",
          "transactionIndex": "0x5e",
          "logIndex": "0xc5",
          "removed": false
        }
      ],
      "logsBloom": "0x00000000000000000000000000000000000000000000000000000000000000000000000000000000000000000000000020000000000000004000000000000000000000000000000000000008000000000000000000000000000000000000000000000000020000000000000000000800020000000000000000000010000000000000000000010000000000000000000000000000000000000000010000000000000000000000000000000000000000004000000000000000000000000000000000000002000000800000000000000000000000000000080000008000000020000000000000000000000000000000000000000000000000000000000000000000",
      "type": "0x2",
      "transactionHash": "0x435ab7d2ad23f146a390b678c92e2fad94ef43f6a5015d997e55f8a921965e54",
      "transactionIndex": "0x5e",
      "blockHash": "0x92dfe863c5129e2ccfa9c81fc8a228ba82b3a07434621088aefadf0346acdb56",
      "blockNumber": "0x7252c2",
      "gasUsed": "0xfb93",
      "effectiveGasPrice": "0x2a2f96644",
      "from": "0xc77f7fed3b5cc8249adc428c5f44c9063b9734b4",
      "to": "0x270e88f8683660553e8ba4eb2ad7c91a1710d769",
      "contractAddress": null
    }
  ],
  "libraries": [],
  "pending": [],
  "returns": {},
  "timestamp": 1736889121,
  "chain": 11155111,
  "commit": "51a374b"
}