{
  "transactions": [
    {
      "hash": "0x9d99d654772c003141a754eb1b3fa5b2db7180d5300e355530d71280c77cd187",
      "transactionType": "CALL",
      "contractName": null,
      "contractAddress": "0x8aafd3ede9adb0ff97c7aebce82a919afb1c8764",
      "function": "sell(uint256)",
      "arguments": [
        "1487392964738652893"
      ],
      "transaction": {
        "from": "0xc77f7fed3b5cc8249adc428c5f44c9063b9734b4",
        "to": "0x8aafd3ede9adb0ff97c7aebce82a919afb1c8764",
        "gas": "0x15dca",
        "value": "0x0",
        "input": "0xe4849b3200000000000000000000000000000000000000000000000014a4480558a99add",
        "nonce": "0x15ab",
        "chainId": "0xaa36a7"
      },
      "additionalContracts": [],
      "isFixedGasLimit": false
    }
  ],
  "receipts": [
    {
      "status": "0x1",
      "cumulativeGasUsed": "0x887214",
      "logs": [
        {
          "address": "0x8aafd3ede9adb0ff97c7aebce82a919afb1c8764",
          "topics": [
            "0xddf252ad1be2c89b69c2b068fc378daa952ba7f163c4a11628f55a4df523b3ef",
            "0x000000000000000000000000c77f7fed3b5cc8249adc428c5f44c9063b9734b4",
            "0x0000000000000000000000000000000000000000000000000000000000000000"
          ],
          "data": "0x000000000000000000000000000000000000000000000000147a01d00e39a7f6",
          "blockHash": "0xb1cc8f2bd76b485aa5078a8600e80d5e49348d897af0154dd8af02d567be4f50",
          "blockNumber": "0x731d23",
          "transactionHash": "0x9d99d654772c003141a754eb1b3fa5b2db7180d5300e355530d71280c77cd187",
          "transactionIndex": "0x54",
          "logIndex": "0xab",
          "removed": false
        },
        {
          "address": "0x8aafd3ede9adb0ff97c7aebce82a919afb1c8764",
          "topics": [
            "0xddf252ad1be2c89b69c2b068fc378daa952ba7f163c4a11628f55a4df523b3ef",
            "0x000000000000000000000000c77f7fed3b5cc8249adc428c5f44c9063b9734b4",
            "0x000000000000000000000000c77f7fed3b5cc8249adc428c5f44c9063b9734b4"
          ],
          "data": "0x000000000000000000000000000000000000000000000000002a46354a6ff2e7",
          "blockHash": "0xb1cc8f2bd76b485aa5078a8600e80d5e49348d897af0154dd8af02d567be4f50",
          "blockNumber": "0x731d23",
          "transactionHash": "0x9d99d654772c003141a754eb1b3fa5b2db7180d5300e355530d71280c77cd187",
          "transactionIndex": "0x54",
          "logIndex": "0xac",
          "removed": false
        },
        {
          "address": "0x8aafd3ede9adb0ff97c7aebce82a919afb1c8764",
          "topics": [
            "0x4afcb4a87cdbd9974efdb92ee48bc8d7cd0ae4bf217004db3d080cbaee652ca7"
          ],
          "data": "0x0000000000000000000000000000000000000000000000000000000067905a8c00000000000000000000000000000000000000000000000000131437d326f52c000000000000000000000000000000000000000000000000001c6083765e47a1",
          "blockHash": "0xb1cc8f2bd76b485aa5078a8600e80d5e49348d897af0154dd8af02d567be4f50",
          "blockNumber": "0x731d23",
          "transactionHash": "0x9d99d654772c003141a754eb1b3fa5b2db7180d5300e355530d71280c77cd187",
          "transactionIndex": "0x54",
          "logIndex": "0xad",
          "removed": false
        }
      ],
      "logsBloom": "0x00000000000000000000000000000000000000000600000000000000000000000000000000000000000000000000000000000000000000004000000000000000000000000000004000000008000000000000000000000000000000000000000000000000020000000000000000000800020000000000000000000010000000000000000000000000000000000000000000000000000000000000010000000000000000000000000000000000000000004000000000000000000000000000000000000002000000800000000000000000000000000000080000000000000020000000000000000000000000000000000000000000000000000000000000000000",
      "type": "0x2",
      "transactionHash": "0x9d99d654772c003141a754eb1b3fa5b2db7180d5300e355530d71280c77cd187",
      "transactionIndex": "0x54",
      "blockHash": "0xb1cc8f2bd76b485aa5078a8600e80d5e49348d897af0154dd8af02d567be4f50",
      "blockNumber": "0x731d23",
      "gasUsed": "0xfd3f",
      "effectiveGasPrice": "0x4dcd2b39",
      "from": "0xc77f7fed3b5cc8249adc428c5f44c9063b9734b4",
      "to": "0x8aafd3ede9adb0ff97c7aebce82a919afb1c8764",
      "contractAddress": null
    }
  ],
  "libraries": [],
  "pending": [],
  "returns": {},
  "timestamp": 1737513613,
  "chain": 11155111,
  "commit": "1d2fb70"
}