{
  "transactions": [
    {
      "hash": "0x52588ee3ac097e14685ec2a4bfde0f99c78de340fa0c5e056c8b0eed133e4cf2",
      "transactionType": "CALL",
      "contractName": null,
      "contractAddress": "0x5eb9cc76c3506942c1c0ead70e877dd5e4f00cb0",
      "function": "buy(address)",
      "arguments": [
        "0xC77f7fed3b5Cc8249aDc428c5F44C9063B9734b4"
      ],
      "transaction": {
        "from": "0xc77f7fed3b5cc8249adc428c5f44c9063b9734b4",
        "to": "0x5eb9cc76c3506942c1c0ead70e877dd5e4f00cb0",
        "gas": "0x1b30c",
        "value": "0xde0b6b3a7640000",
        "input": "0xf088d547000000000000000000000000c77f7fed3b5cc8249adc428c5f44c9063b9734b4",
        "nonce": "0x418",
        "chainId": "0xaa36a7"
      },
      "additionalContracts": [],
      "isFixedGasLimit": false
    }
  ],
  "receipts": [
    {
      "status": "0x1",
      "cumulativeGasUsed": "0xd10d43",
      "logs": [
        {
          "address": "0x5eb9cc76c3506942c1c0ead70e877dd5e4f00cb0",
          "topics": [
            "0xddf252ad1be2c89b69c2b068fc378daa952ba7f163c4a11628f55a4df523b3ef",
            "0x0000000000000000000000000000000000000000000000000000000000000000",
            "0x000000000000000000000000c77f7fed3b5cc8249adc428c5f44c9063b9734b4"
          ],
          "data": "0x00000000000000000000000000000000000000000000003574f4ac9c12486c7d",
          "blockHash": "0xbeb2c4c77c68690b8eec62789bba34fddda2c6a39e036a8dc3bc9bbac18293d7",
          "blockNumber": "0x72502c",
          "transactionHash": "0x52588ee3ac097e14685ec2a4bfde0f99c78de340fa0c5e056c8b0eed133e4cf2",
          "transactionIndex": "0x58",
          "logIndex": "0xd2",
          "removed": false
        },
        {
          "address": "0x5eb9cc76c3506942c1c0ead70e877dd5e4f00cb0",
          "topics": [
            "0xddf252ad1be2c89b69c2b068fc378daa952ba7f163c4a11628f55a4df523b3ef",
            "0x0000000000000000000000000000000000000000000000000000000000000000",
            "0x000000000000000000000000c77f7fed3b5cc8249adc428c5f44c9063b9734b4"
          ],
          "data": "0x0000000000000000000000000000000000000000000000002982d5be8bb11b3c",
          "blockHash": "0xbeb2c4c77c68690b8eec62789bba34fddda2c6a39e036a8dc3bc9bbac18293d7",
          "blockNumber": "0x72502c",
          "transactionHash": "0x52588ee3ac097e14685ec2a4bfde0f99c78de340fa0c5e056c8b0eed133e4cf2",
          "transactionIndex": "0x58",
          "logIndex": "0xd3",
          "removed": false
        },
        {
          "address": "0x5eb9cc76c3506942c1c0ead70e877dd5e4f00cb0",
          "topics": [
            "0x4afcb4a87cdbd9974efdb92ee48bc8d7cd0ae4bf217004db3d080cbaee652ca7"
          ],
          "data": "0x000000000000000000000000000000000000000000000000000000006786b3dc0000000000000000000000000000000000000000000000000003911653f4ddde0000000000000000000000000000000000000000000000000de0b6b3a7640000",
          "blockHash": "0xbeb2c4c77c68690b8eec62789bba34fddda2c6a39e036a8dc3bc9bbac18293d7",
          "blockNumber": "0x72502c",
          "transactionHash": "0x52588ee3ac097e14685ec2a4bfde0f99c78de340fa0c5e056c8b0eed133e4cf2",
          "transactionIndex": "0x58",
          "logIndex": "0xd4",
          "removed": false
        }
      ],
      "logsBloom": "0x00000000000000000000000000000000000000000000000000000000000000000000000000000000000000000000000000000000000000004000000000000000000000000000000000000008000000000000000000000000000000000000000000000000020000000000000004000800020000000000000000000010000000000000000000000000000000000000000000000000000000000000010000000000000000000000000000000000000000004000000000000000000000000000020000000002000000800000008000000000000000000000080000000000000020000000000000000000000000000000000000000000000000000000000000000000",
      "type": "0x2",
      "transactionHash": "0x52588ee3ac097e14685ec2a4bfde0f99c78de340fa0c5e056c8b0eed133e4cf2",
      "transactionIndex": "0x58",
      "blockHash": "0xbeb2c4c77c68690b8eec62789bba34fddda2c6a39e036a8dc3bc9bbac18293d7",
      "blockNumber": "0x72502c",
      "gasUsed": "0x13af8",
      "effectiveGasPrice": "0x3272fcecf",
      "from": "0xc77f7fed3b5cc8249adc428c5f44c9063b9734b4",
      "to": "0x5eb9cc76c3506942c1c0ead70e877dd5e4f00cb0",
      "contractAddress": null
    }
  ],
  "libraries": [],
  "pending": [],
  "returns": {},
  "timestamp": 1736881117,
  "chain": 11155111,
  "commit": "51a374b"
}