{
  "transactions": [
    {
      "hash": "0x38bf6e4c27eccc45f90e64880fdf8f6005fb5cd292b67436f9a24a6431ddc418",
      "transactionType": "CALL",
      "contractName": null,
      "contractAddress": "0xa8da6256f4ee8b6ef1e5366b8547e8929372ea81",
      "function": "leverage(uint256,uint256)",
      "arguments": [
        "10000000000000000000",
        "0"
      ],
      "transaction": {
        "from": "0xc77f7fed3b5cc8249adc428c5f44c9063b9734b4",
        "to": "0xa8da6256f4ee8b6ef1e5366b8547e8929372ea81",
        "gas": "0x5d67c",
        "value": "0x186cc6acd4b0000",
        "input": "0x5e96263c0000000000000000000000000000000000000000000000008ac7230489e800000000000000000000000000000000000000000000000000000000000000000000",
        "nonce": "0x17f0",
        "chainId": "0xaa36a7"
      },
      "additionalContracts": [],
      "isFixedGasLimit": false
    }
  ],
  "receipts": [
    {
      "status": "0x1",
      "cumulativeGasUsed": "0xfd1b61",
      "logs": [
        {
          "address": "0xa8da6256f4ee8b6ef1e5366b8547e8929372ea81",
          "topics": [
            "0xddf252ad1be2c89b69c2b068fc378daa952ba7f163c4a11628f55a4df523b3ef",
            "0x0000000000000000000000000000000000000000000000000000000000000000",
            "0x000000000000000000000000a8da6256f4ee8b6ef1e5366b8547e8929372ea81"
          ],
          "data": "0x00000000000000000000000000000000000000000000003da6019813434e0b78",
          "blockHash": "0xd5c54bb4f25d409dd476c1eb699b8f514d4950ea3c1e9fd8f0d038029362e22c",
          "blockNumber": "0x734b56",
          "transactionHash": "0x38bf6e4c27eccc45f90e64880fdf8f6005fb5cd292b67436f9a24a6431ddc418",
          "transactionIndex": "0x7e",
          "logIndex": "0x8a",
          "removed": false
        },
        {
          "address": "0xa8da6256f4ee8b6ef1e5366b8547e8929372ea81",
          "topics": [
            "0xddf252ad1be2c89b69c2b068fc378daa952ba7f163c4a11628f55a4df523b3ef",
            "0x0000000000000000000000000000000000000000000000000000000000000000",
            "0x000000000000000000000000c77f7fed3b5cc8249adc428c5f44c9063b9734b4"
          ],
          "data": "0x00000000000000000000000000000000000000000000000034b66c6abd933aad",
          "blockHash": "0xd5c54bb4f25d409dd476c1eb699b8f514d4950ea3c1e9fd8f0d038029362e22c",
          "blockNumber": "0x734b56",
          "transactionHash": "0x38bf6e4c27eccc45f90e64880fdf8f6005fb5cd292b67436f9a24a6431ddc418",
          "transactionIndex": "0x7e",
          "logIndex": "0x8b",
          "removed": false
        },
        {
          "address": "0xa8da6256f4ee8b6ef1e5366b8547e8929372ea81",
          "topics": [
            "0xaec00f5213a37254bc68a26b0685d1a5b2bf513e1e587c94c7df7f4a62b56c9c"
          ],
          "data": "0x00000000000000000000000000000000000000000000003da6019813434e0b7800000000000000000000000000000000000000000000000089405699bc9d000000000000000000000000000000000000000000000000000089405699bc9d000000000000000000000000000000000000000000000000003da6019813434e0b78",
          "blockHash": "0xd5c54bb4f25d409dd476c1eb699b8f514d4950ea3c1e9fd8f0d038029362e22c",
          "blockNumber": "0x734b56",
          "transactionHash": "0x38bf6e4c27eccc45f90e64880fdf8f6005fb5cd292b67436f9a24a6431ddc418",
          "transactionIndex": "0x7e",
          "logIndex": "0x8c",
          "removed": false
        },
        {
          "address": "0xa8da6256f4ee8b6ef1e5366b8547e8929372ea81",
          "topics": [
            "0x4afcb4a87cdbd9974efdb92ee48bc8d7cd0ae4bf217004db3d080cbaee652ca7"
          ],
          "data": "0x0000000000000000000000000000000000000000000000000000000067929480000000000000000000000000000000000000000000000000001ee5997d536f700000000000000000000000000000000000000000000000008ac7230489e80000",
          "blockHash": "0xd5c54bb4f25d409dd476c1eb699b8f514d4950ea3c1e9fd8f0d038029362e22c",
          "blockNumber": "0x734b56",
          "transactionHash": "0x38bf6e4c27eccc45f90e64880fdf8f6005fb5cd292b67436f9a24a6431ddc418",
          "transactionIndex": "0x7e",
          "logIndex": "0x8d",
          "removed": false
        }
      ],
      "logsBloom": "0x00000000000000000000000000000000400000000000000000000000000000000200000000000000000000000000000000000000000000004000000000000000000000000000000000000008000000000000000000000000000000000000000000000000020000040000000000000800020000000010000000000010000000000000000000000000000000000000000000000000000000000000010200000000000000000000000000000400000000004000000000000000000000001000000000000002000000800000000000000000000000000000080000000000000020000040000000000000000000000000040000000000000000000000000000000000",
      "type": "0x2",
      "transactionHash": "0x38bf6e4c27eccc45f90e64880fdf8f6005fb5cd292b67436f9a24a6431ddc418",
      "transactionIndex": "0x7e",
      "blockHash": "0xd5c54bb4f25d409dd476c1eb699b8f514d4950ea3c1e9fd8f0d038029362e22c",
      "blockNumber": "0x734b56",
      "gasUsed": "0x439fc",
      "effectiveGasPrice": "0x2bdadf41c",
      "from": "0xc77f7fed3b5cc8249adc428c5f44c9063b9734b4",
      "to": "0xa8da6256f4ee8b6ef1e5366b8547e8929372ea81",
      "contractAddress": null
    }
  ],
  "libraries": [],
  "pending": [],
  "returns": {},
  "timestamp": 1737659523,
  "chain": 11155111,
  "commit": "f5162e9"
}