{
  "transactions": [
    {
      "hash": "0x68ea23eb84acbe31d8135205a89291ffb536bbb431c02247d439bef032490a7d",
      "transactionType": "CALL",
      "contractName": null,
      "contractAddress": "0x5eb9cc76c3506942c1c0ead70e877dd5e4f00cb0",
      "function": "buy(address)",
      "arguments": [
        "0xC77f7fed3b5Cc8249aDc428c5F44C9063B9734b4"
      ],
      "transaction": {
        "from": "0xc77f7fed3b5cc8249adc428c5f44c9063b9734b4",
        "to": "0x5eb9cc76c3506942c1c0ead70e877dd5e4f00cb0",
        "gas": "0x156c8",
        "value": "0xde0b6b3a7640000",
        "input": "0xf088d547000000000000000000000000c77f7fed3b5cc8249adc428c5f44c9063b9734b4",
        "nonce": "0x12d",
        "chainId": "0xaa36a7"
      },
      "additionalContracts": [],
      "isFixedGasLimit": false
    }
  ],
  "receipts": [
    {
      "status": "0x1",
      "cumulativeGasUsed": "0x81dc1f",
      "logs": [
        {
          "address": "0x5eb9cc76c3506942c1c0ead70e877dd5e4f00cb0",
          "topics": [
            "0xddf252ad1be2c89b69c2b068fc378daa952ba7f163c4a11628f55a4df523b3ef",
            "0x0000000000000000000000000000000000000000000000000000000000000000",
            "0x000000000000000000000000c77f7fed3b5cc8249adc428c5f44c9063b9734b4"
          ],
          "data": "0x000000000000000000000000000000000000000000000035ab00766c9f47f853",
          "blockHash": "0x88dea5be5f17bac9938c2826bab7e6e24fa5c1c11451fc16c0b1bde3626c529a",
          "blockNumber": "0x723b0e",
          "transactionHash": "0x68ea23eb84acbe31d8135205a89291ffb536bbb431c02247d439bef032490a7d",
          "transactionIndex": "0x4e",
          "logIndex": "0x73",
          "removed": false
        },
        {
          "address": "0x5eb9cc76c3506942c1c0ead70e877dd5e4f00cb0",
          "topics": [
            "0xddf252ad1be2c89b69c2b068fc378daa952ba7f163c4a11628f55a4df523b3ef",
            "0x0000000000000000000000000000000000000000000000000000000000000000",
            "0x000000000000000000000000c77f7fed3b5cc8249adc428c5f44c9063b9734b4"
          ],
          "data": "0x00000000000000000000000000000000000000000000000029accdb4b5e99f04",
          "blockHash": "0x88dea5be5f17bac9938c2826bab7e6e24fa5c1c11451fc16c0b1bde3626c529a",
          "blockNumber": "0x723b0e",
          "transactionHash": "0x68ea23eb84acbe31d8135205a89291ffb536bbb431c02247d439bef032490a7d",
          "transactionIndex": "0x4e",
          "logIndex": "0x74",
          "removed": false
        },
        {
          "address": "0x5eb9cc76c3506942c1c0ead70e877dd5e4f00cb0",
          "topics": [
            "0x4afcb4a87cdbd9974efdb92ee48bc8d7cd0ae4bf217004db3d080cbaee652ca7"
          ],
          "data": "0x000000000000000000000000000000000000000000000000000000006785b5fc00000000000000000000000000000000000000000000000000038d7ecef6ff590000000000000000000000000000000000000000000000000de0b6b3a7640000",
          "blockHash": "0x88dea5be5f17bac9938c2826bab7e6e24fa5c1c11451fc16c0b1bde3626c529a",
          "blockNumber": "0x723b0e",
          "transactionHash": "0x68ea23eb84acbe31d8135205a89291ffb536bbb431c02247d439bef032490a7d",
          "transactionIndex": "0x4e",
          "logIndex": "0x75",
          "removed": false
        }
      ],
      "logsBloom": "0x00000000000000000000000000000000000000000000000000000000000000000000000000000000000000000000000000000000000000004000000000000000000000000000000000000008000000000000000000000000000000000000000000000000020000000000000004000800020000000000000000000010000000000000000000000000000000000000000000000000000000000000010000000000000000000000000000000000000000004000000000000000000000000000020000000002000000800000008000000000000000000000080000000000000020000000000000000000000000000000000000000000000000000000000000000000",
      "type": "0x2",
      "transactionHash": "0x68ea23eb84acbe31d8135205a89291ffb536bbb431c02247d439bef032490a7d",
      "transactionIndex": "0x4e",
      "blockHash": "0x88dea5be5f17bac9938c2826bab7e6e24fa5c1c11451fc16c0b1bde3626c529a",
      "blockNumber": "0x723b0e",
      "gasUsed": "0xf82c",
      "effectiveGasPrice": "0x320a50495",
      "from": "0xc77f7fed3b5cc8249adc428c5f44c9063b9734b4",
      "to": "0x5eb9cc76c3506942c1c0ead70e877dd5e4f00cb0",
      "contractAddress": null
    }
  ],
  "libraries": [],
  "pending": [],
  "returns": {},
  "timestamp": 1736816124,
  "chain": 11155111,
  "commit": "51a374b"
}