{
  "transactions": [
    {
      "hash": "0x57cd474c89eb8a522ceea31fc152d38c2bf8afa35803cb280162d24cbd08e1ea",
      "transactionType": "CALL",
      "contractName": null,
      "contractAddress": "0x5eb9cc76c3506942c1c0ead70e877dd5e4f00cb0",
      "function": "buy(address)",
      "arguments": [
        "0xC77f7fed3b5Cc8249aDc428c5F44C9063B9734b4"
      ],
      "transaction": {
        "from": "0xc77f7fed3b5cc8249adc428c5f44c9063b9734b4",
        "to": "0x5eb9cc76c3506942c1c0ead70e877dd5e4f00cb0",
        "gas": "0x1b30c",
        "value": "0xde0b6b3a7640000",
        "input": "0xf088d547000000000000000000000000c77f7fed3b5cc8249adc428c5f44c9063b9734b4",
        "nonce": "0x488",
        "chainId": "0xaa36a7"
      },
      "additionalContracts": [],
      "isFixedGasLimit": false
    }
  ],
  "receipts": [
    {
      "status": "0x1",
      "cumulativeGasUsed": "0x8cb27e",
      "logs": [
        {
          "address": "0x5eb9cc76c3506942c1c0ead70e877dd5e4f00cb0",
          "topics": [
            "0xddf252ad1be2c89b69c2b068fc378daa952ba7f163c4a11628f55a4df523b3ef",
            "0x0000000000000000000000000000000000000000000000000000000000000000",
            "0x000000000000000000000000c77f7fed3b5cc8249adc428c5f44c9063b9734b4"
          ],
          "data": "0x00000000000000000000000000000000000000000000003574b575d787fdf1cc",
          "blockHash": "0xe8015f186f41c6e3cef7492d1dfd1864a8b3e32c7a0a75f7bfb16c0c31030667",
          "blockNumber": "0x7250b9",
          "transactionHash": "0x57cd474c89eb8a522ceea31fc152d38c2bf8afa35803cb280162d24cbd08e1ea",
          "transactionIndex": "0x38",
          "logIndex": "0x79",
          "removed": false
        },
        {
          "address": "0x5eb9cc76c3506942c1c0ead70e877dd5e4f00cb0",
          "topics": [
            "0xddf252ad1be2c89b69c2b068fc378daa952ba7f163c4a11628f55a4df523b3ef",
            "0x0000000000000000000000000000000000000000000000000000000000000000",
            "0x000000000000000000000000c77f7fed3b5cc8249adc428c5f44c9063b9734b4"
          ],
          "data": "0x0000000000000000000000000000000000000000000000002982a4a813149466",
          "blockHash": "0xe8015f186f41c6e3cef7492d1dfd1864a8b3e32c7a0a75f7bfb16c0c31030667",
          "blockNumber": "0x7250b9",
          "transactionHash": "0x57cd474c89eb8a522ceea31fc152d38c2bf8afa35803cb280162d24cbd08e1ea",
          "transactionIndex": "0x38",
          "logIndex": "0x7a",
          "removed": false
        },
        {
          "address": "0x5eb9cc76c3506942c1c0ead70e877dd5e4f00cb0",
          "topics": [
            "0x4afcb4a87cdbd9974efdb92ee48bc8d7cd0ae4bf217004db3d080cbaee652ca7"
          ],
          "data": "0x000000000000000000000000000000000000000000000000000000006786ba780000000000000000000000000000000000000000000000000003911a8bb8d6990000000000000000000000000000000000000000000000000de0b6b3a7640000",
          "blockHash": "0xe8015f186f41c6e3cef7492d1dfd1864a8b3e32c7a0a75f7bfb16c0c31030667",
          "blockNumber": "0x7250b9",
          "transactionHash": "0x57cd474c89eb8a522ceea31fc152d38c2bf8afa35803cb280162d24cbd08e1ea",
          "transactionIndex": "0x38",
          "logIndex": "0x7b",
          "removed": false
        }
      ],
      "logsBloom": "0x00000000000000000000000000000000000000000000000000000000000000000000000000000000000000000000000000000000000000004000000000000000000000000000000000000008000000000000000000000000000000000000000000000000020000000000000004000800020000000000000000000010000000000000000000000000000000000000000000000000000000000000010000000000000000000000000000000000000000004000000000000000000000000000020000000002000000800000008000000000000000000000080000000000000020000000000000000000000000000000000000000000000000000000000000000000",
      "type": "0x2",
      "transactionHash": "0x57cd474c89eb8a522ceea31fc152d38c2bf8afa35803cb280162d24cbd08e1ea",
      "transactionIndex": "0x38",
      "blockHash": "0xe8015f186f41c6e3cef7492d1dfd1864a8b3e32c7a0a75f7bfb16c0c31030667",
      "blockNumber": "0x7250b9",
      "gasUsed": "0x13af8",
      "effectiveGasPrice": "0x24715f687",
      "from": "0xc77f7fed3b5cc8249adc428c5f44c9063b9734b4",
      "to": "0x5eb9cc76c3506942c1c0ead70e877dd5e4f00cb0",
      "contractAddress": null
    }
  ],
  "libraries": [],
  "pending": [],
  "returns": {},
  "timestamp": 1736882810,
  "chain": 11155111,
  "commit": "51a374b"
}