{
  "transactions": [
    {
      "hash": "0xedbfa97cd42f3c8e16853ab016c79d4fa58fb8a2f6dc9bd98bd90513cce0be29",
      "transactionType": "CALL",
      "contractName": null,
      "contractAddress": "0x8aafd3ede9adb0ff97c7aebce82a919afb1c8764",
      "function": "sell(uint256)",
      "arguments": [
        "695025156193608181708"
      ],
      "transaction": {
        "from": "0xc77f7fed3b5cc8249adc428c5f44c9063b9734b4",
        "to": "0x8aafd3ede9adb0ff97c7aebce82a919afb1c8764",
        "gas": "0x17270",
        "value": "0x0",
        "input": "0xe4849b32000000000000000000000000000000000000000000000025ad6961283066a7cc",
        "nonce": "0x113b",
        "chainId": "0xaa36a7"
      },
      "additionalContracts": [],
      "isFixedGasLimit": false
    }
  ],
  "receipts": [
    {
      "status": "0x1",
      "cumulativeGasUsed": "0xdaa886",
      "logs": [
        {
          "address": "0x8aafd3ede9adb0ff97c7aebce82a919afb1c8764",
          "topics": [
            "0xddf252ad1be2c89b69c2b068fc378daa952ba7f163c4a11628f55a4df523b3ef",
            "0x000000000000000000000000c77f7fed3b5cc8249adc428c5f44c9063b9734b4",
            "0x0000000000000000000000000000000000000000000000000000000000000000"
          ],
          "data": "0x000000000000000000000000000000000000000000000025603f9394695b981f",
          "blockHash": "0x9949a541f4af7292061087af1b9cb2d5e0c8c700ccf45593859e5d2097537a08",
          "blockNumber": "0x7317f4",
          "transactionHash": "0xedbfa97cd42f3c8e16853ab016c79d4fa58fb8a2f6dc9bd98bd90513cce0be29",
          "transactionIndex": "0x98",
          "logIndex": "0xea",
          "removed": false
        },
        {
          "address": "0x8aafd3ede9adb0ff97c7aebce82a919afb1c8764",
          "topics": [
            "0xddf252ad1be2c89b69c2b068fc378daa952ba7f163c4a11628f55a4df523b3ef",
            "0x000000000000000000000000c77f7fed3b5cc8249adc428c5f44c9063b9734b4",
            "0x000000000000000000000000c77f7fed3b5cc8249adc428c5f44c9063b9734b4"
          ],
          "data": "0x0000000000000000000000000000000000000000000000004d29cd93c70b0fad",
          "blockHash": "0x9949a541f4af7292061087af1b9cb2d5e0c8c700ccf45593859e5d2097537a08",
          "blockNumber": "0x7317f4",
          "transactionHash": "0xedbfa97cd42f3c8e16853ab016c79d4fa58fb8a2f6dc9bd98bd90513cce0be29",
          "transactionIndex": "0x98",
          "logIndex": "0xeb",
          "removed": false
        },
        {
          "address": "0x8aafd3ede9adb0ff97c7aebce82a919afb1c8764",
          "topics": [
            "0x4afcb4a87cdbd9974efdb92ee48bc8d7cd0ae4bf217004db3d080cbaee652ca7"
          ],
          "data": "0x0000000000000000000000000000000000000000000000000000000067901c34000000000000000000000000000000000000000000000000000514ddc512a9be0000000000000000000000000000000000000000000000000dc8f7b49043f622",
          "blockHash": "0x9949a541f4af7292061087af1b9cb2d5e0c8c700ccf45593859e5d2097537a08",
          "blockNumber": "0x7317f4",
          "transactionHash": "0xedbfa97cd42f3c8e16853ab016c79d4fa58fb8a2f6dc9bd98bd90513cce0be29",
          "transactionIndex": "0x98",
          "logIndex": "0xec",
          "removed": false
        }
      ],
      "logsBloom": "0x00000000000000000000000000000000000000000600000000000000000000000000000000000000000000000000000000000000000000004000000000000000000000000000004000000008000000000000000000000000000000000000000000000000020000000000000000000800020000000000000000000010000000000000000000000000000000000000000000000000000000000000010000000000000000000000000000000000000000004000000000000000000000000000000000000002000000800000000000000000000000000000080000000000000020000000000000000000000000000000000000000000000000000000000000000000",
      "type": "0x2",
      "transactionHash": "0xedbfa97cd42f3c8e16853ab016c79d4fa58fb8a2f6dc9bd98bd90513cce0be29",
      "transactionIndex": "0x98",
      "blockHash": "0x9949a541f4af7292061087af1b9cb2d5e0c8c700ccf45593859e5d2097537a08",
      "blockNumber": "0x7317f4",
      "gasUsed": "0xfd4b",
      "effectiveGasPrice": "0x3f3d6e19",
      "from": "0xc77f7fed3b5cc8249adc428c5f44c9063b9734b4",
      "to": "0x8aafd3ede9adb0ff97c7aebce82a919afb1c8764",
      "contractAddress": null
    }
  ],
  "libraries": [],
  "pending": [],
  "returns": {},
  "timestamp": 1737497652,
  "chain": 11155111,
  "commit": "1d2fb70"
}