{
  "transactions": [
    {
      "hash": "0xb0f7c59e0ccd87778a3a7d60bb0a6b76bdd9aff073004d3d7efba862afdc6a8e",
      "transactionType": "CALL",
      "contractName": null,
      "contractAddress": "0x270e88f8683660553e8ba4eb2ad7c91a1710d769",
      "function": "sell(uint256)",
      "arguments": [
        "824715753214243755668"
      ],
      "transaction": {
        "from": "0xc77f7fed3b5cc8249adc428c5f44c9063b9734b4",
        "to": "0x270e88f8683660553e8ba4eb2ad7c91a1710d769",
        "gas": "0x16fec",
        "value": "0x0",
        "input": "0xe4849b3200000000000000000000000000000000000000000000002cb53af0045bb7d694",
        "nonce": "0x651",
        "chainId": "0xaa36a7"
      },
      "additionalContracts": [],
      "isFixedGasLimit": false
    }
  ],
  "receipts": [
    {
      "status": "0x1",
      "cumulativeGasUsed": "0x1353416",
      "logs": [
        {
          "address": "0x270e88f8683660553e8ba4eb2ad7c91a1710d769",
          "topics": [
            "0xddf252ad1be2c89b69c2b068fc378daa952ba7f163c4a11628f55a4df523b3ef",
            "0x000000000000000000000000c77f7fed3b5cc8249adc428c5f44c9063b9734b4",
            "0x0000000000000000000000000000000000000000000000000000000000000000"
          ],
          "data": "0x00000000000000000000000000000000000000000000002cb53af0045bb7d694",
          "blockHash": "0xf524cbd70ed4955c28c7dba74abb60aaed72e18ba2da2f5a732f7d8b626f14eb",
          "blockNumber": "0x72533c",
          "transactionHash": "0xb0f7c59e0ccd87778a3a7d60bb0a6b76bdd9aff073004d3d7efba862afdc6a8e",
          "transactionIndex": "0x43",
          "logIndex": "0xc6",
          "removed": false
        },
        {
          "address": "0x270e88f8683660553e8ba4eb2ad7c91a1710d769",
          "topics": [
            "0x4afcb4a87cdbd9974efdb92ee48bc8d7cd0ae4bf217004db3d080cbaee652ca7"
          ],
          "data": "0x000000000000000000000000000000000000000000000000000000006786d8d80000000000000000000000000000000000000000000000000004471a09fc3eaa0000000000000000000000000000000000000000000000000dc7e0f9674d8df9",
          "blockHash": "0xf524cbd70ed4955c28c7dba74abb60aaed72e18ba2da2f5a732f7d8b626f14eb",
          "blockNumber": "0x72533c",
          "transactionHash": "0xb0f7c59e0ccd87778a3a7d60bb0a6b76bdd9aff073004d3d7efba862afdc6a8e",
          "transactionIndex": "0x43",
          "logIndex": "0xc7",
          "removed": false
        }
      ],
      "logsBloom": "0x00000000000000000000000000000000000000000000000000000000000000000000000000000000000000000000000020000000000000004000000000000000000000000000000000000008000000000000000000000000000000000000000000000000020000000000000000000800020000000000000000000010000000000000000000010000000000000000000000000000000000000000010000000000000000000000000000000000000000004000000000000000000000000000000000000002000000800000000000000000000000000000080000008000000020000000000000000000000000000000000000000000000000000000000000000000",
      "type": "0x2",
      "transactionHash": "0xb0f7c59e0ccd87778a3a7d60bb0a6b76bdd9aff073004d3d7efba862afdc6a8e",
      "transactionIndex": "0x43",
      "blockHash": "0xf524cbd70ed4955c28c7dba74abb60aaed72e18ba2da2f5a732f7d8b626f14eb",
      "blockNumber": "0x72533c",
      "gasUsed": "0xfb93",
      "effectiveGasPrice": "0x1a181dc6e",
      "from": "0xc77f7fed3b5cc8249adc428c5f44c9063b9734b4",
      "to": "0x270e88f8683660553e8ba4eb2ad7c91a1710d769",
      "contractAddress": null
    }
  ],
  "libraries": [],
  "pending": [],
  "returns": {},
  "timestamp": 1736890586,
  "chain": 11155111,
  "commit": "51a374b"
}