{
  "transactions": [
    {
      "hash": "0xce4ca79f7cfa8fce53f323a17e6717f571a281d128cb79e21cb2eab82b0437b9",
      "transactionType": "CALL",
      "contractName": null,
      "contractAddress": "0x8aafd3ede9adb0ff97c7aebce82a919afb1c8764",
      "function": "buy(address)",
      "arguments": [
        "0xC77f7fed3b5Cc8249aDc428c5F44C9063B9734b4"
      ],
      "transaction": {
        "from": "0xc77f7fed3b5cc8249adc428c5f44c9063b9734b4",
        "to": "0x8aafd3ede9adb0ff97c7aebce82a919afb1c8764",
        "gas": "0x156ea",
        "value": "0xde0b6b3a7640000",
        "input": "0xf088d547000000000000000000000000c77f7fed3b5cc8249adc428c5f44c9063b9734b4",
        "nonce": "0x16ff",
        "chainId": "0xaa36a7"
      },
      "additionalContracts": [],
      "isFixedGasLimit": false
    }
  ],
  "receipts": [
    {
      "status": "0x1",
      "cumulativeGasUsed": "0x931d3a",
      "logs": [
        {
          "address": "0x8aafd3ede9adb0ff97c7aebce82a919afb1c8764",
          "topics": [
            "0xddf252ad1be2c89b69c2b068fc378daa952ba7f163c4a11628f55a4df523b3ef",
            "0x0000000000000000000000000000000000000000000000000000000000000000",
            "0x000000000000000000000000c77f7fed3b5cc8249adc428c5f44c9063b9734b4"
          ],
          "data": "0x0000000000000000000000000000000000000000000000084e5d7a3c3d5960cf",
          "blockHash": "0x7b98fa520d225a9516df24b45375bd869fbd4f5c442f12e660e6e7bc8f403f37",
          "blockNumber": "0x731ec3",
          "transactionHash": "0xce4ca79f7cfa8fce53f323a17e6717f571a281d128cb79e21cb2eab82b0437b9",
          "transactionIndex": "0x59",
          "logIndex": "0x90",
          "removed": false
        },
        {
          "address": "0x8aafd3ede9adb0ff97c7aebce82a919afb1c8764",
          "topics": [
            "0xddf252ad1be2c89b69c2b068fc378daa952ba7f163c4a11628f55a4df523b3ef",
            "0x0000000000000000000000000000000000000000000000000000000000000000",
            "0x000000000000000000000000c77f7fed3b5cc8249adc428c5f44c9063b9734b4"
          ],
          "data": "0x000000000000000000000000000000000000000000000000067331efdc27a82c",
          "blockHash": "0x7b98fa520d225a9516df24b45375bd869fbd4f5c442f12e660e6e7bc8f403f37",
          "blockNumber": "0x731ec3",
          "transactionHash": "0xce4ca79f7cfa8fce53f323a17e6717f571a281d128cb79e21cb2eab82b0437b9",
          "transactionIndex": "0x59",
          "logIndex": "0x91",
          "removed": false
        },
        {
          "address": "0x8aafd3ede9adb0ff97c7aebce82a919afb1c8764",
          "topics": [
            "0x4afcb4a87cdbd9974efdb92ee48bc8d7cd0ae4bf217004db3d080cbaee652ca7"
          ],
          "data": "0x0000000000000000000000000000000000000000000000000000000067906e0c0000000000000000000000000000000000000000000000000016fb5d537bb2f10000000000000000000000000000000000000000000000000de0b6b3a7640000",
          "blockHash": "0x7b98fa520d225a9516df24b45375bd869fbd4f5c442f12e660e6e7bc8f403f37",
          "blockNumber": "0x731ec3",
          "transactionHash": "0xce4ca79f7cfa8fce53f323a17e6717f571a281d128cb79e21cb2eab82b0437b9",
          "transactionIndex": "0x59",
          "logIndex": "0x92",
          "removed": false
        }
      ],
      "logsBloom": "0x00000000000000000000000000000000000000000600000000000000000000000000000000000000000000000000000000000000000000004000000000000000000000000000004000000008000000000000000000000000000000000000000000000000020000000000000000000800020000000000000000000010000000000000000000000000000000000000000000000000000000000000010000000000000000000000000000000000000000004000000000000000000000000000000000000002000000800000000000000000000000000000080000000000000020000000000000000000000000000000000000000000000000000000000000000000",
      "type": "0x2",
      "transactionHash": "0xce4ca79f7cfa8fce53f323a17e6717f571a281d128cb79e21cb2eab82b0437b9",
      "transactionIndex": "0x59",
      "blockHash": "0x7b98fa520d225a9516df24b45375bd869fbd4f5c442f12e660e6e7bc8f403f37",
      "blockNumber": "0x731ec3",
      "gasUsed": "0xf844",
      "effectiveGasPrice": "0x7ba969c4",
      "from": "0xc77f7fed3b5cc8249adc428c5f44c9063b9734b4",
      "to": "0x8aafd3ede9adb0ff97c7aebce82a919afb1c8764",
      "contractAddress": null
    }
  ],
  "libraries": [],
  "pending": [],
  "returns": {},
  "timestamp": 1737518605,
  "chain": 11155111,
  "commit": "1d2fb70"
}