{
  "transactions": [
    {
      "hash": "0xa00b2c8e5debc2ec53692884c1ed5264fe4306363727e7521c6b4b1fd57cf5af",
      "transactionType": "CALL",
      "contractName": null,
      "contractAddress": "0x8aafd3ede9adb0ff97c7aebce82a919afb1c8764",
      "function": "sell(uint256)",
      "arguments": [
        "1387739"
      ],
      "transaction": {
        "from": "0xc77f7fed3b5cc8249adc428c5f44c9063b9734b4",
        "to": "0x8aafd3ede9adb0ff97c7aebce82a919afb1c8764",
        "gas": "0x16208",
        "value": "0x0",
        "input": "0xe4849b320000000000000000000000000000000000000000000000000000000000152cdb",
        "nonce": "0x1304",
        "chainId": "0xaa36a7"
      },
      "additionalContracts": [],
      "isFixedGasLimit": false
    }
  ],
  "receipts": [
    {
      "status": "0x1",
      "cumulativeGasUsed": "0x9a80c2",
      "logs": [
        {
          "address": "0x8aafd3ede9adb0ff97c7aebce82a919afb1c8764",
          "topics": [
            "0xddf252ad1be2c89b69c2b068fc378daa952ba7f163c4a11628f55a4df523b3ef",
            "0x000000000000000000000000c77f7fed3b5cc8249adc428c5f44c9063b9734b4",
            "0x0000000000000000000000000000000000000000000000000000000000000000"
          ],
          "data": "0x000000000000000000000000000000000000000000000000000000000015017e",
          "blockHash": "0xe8f7e3d3d4c7472b3345bb5780e5e190b48fd28dba16bb0981977c8acdd06ca5",
          "blockNumber": "0x731a0d",
          "transactionHash": "0xa00b2c8e5debc2ec53692884c1ed5264fe4306363727e7521c6b4b1fd57cf5af",
          "transactionIndex": "0x89",
          "logIndex": "0x92",
          "removed": false
        },
        {
          "address": "0x8aafd3ede9adb0ff97c7aebce82a919afb1c8764",
          "topics": [
            "0xddf252ad1be2c89b69c2b068fc378daa952ba7f163c4a11628f55a4df523b3ef",
            "0x000000000000000000000000c77f7fed3b5cc8249adc428c5f44c9063b9734b4",
            "0x000000000000000000000000c77f7fed3b5cc8249adc428c5f44c9063b9734b4"
          ],
          "data": "0x0000000000000000000000000000000000000000000000000000000000002b5d",
          "blockHash": "0xe8f7e3d3d4c7472b3345bb5780e5e190b48fd28dba16bb0981977c8acdd06ca5",
          "blockNumber": "0x731a0d",
          "transactionHash": "0xa00b2c8e5debc2ec53692884c1ed5264fe4306363727e7521c6b4b1fd57cf5af",
          "transactionIndex": "0x89",
          "logIndex": "0x93",
          "removed": false
        },
        {
          "address": "0x8aafd3ede9adb0ff97c7aebce82a919afb1c8764",
          "topics": [
            "0x4afcb4a87cdbd9974efdb92ee48bc8d7cd0ae4bf217004db3d080cbaee652ca7"
          ],
          "data": "0x000000000000000000000000000000000000000000000000000000006790356c000000000000000000000000000000000000000000000000000b41bece9ee666000000000000000000000000000000000000000000000000000000000000112d",
          "blockHash": "0xe8f7e3d3d4c7472b3345bb5780e5e190b48fd28dba16bb0981977c8acdd06ca5",
          "blockNumber": "0x731a0d",
          "transactionHash": "0xa00b2c8e5debc2ec53692884c1ed5264fe4306363727e7521c6b4b1fd57cf5af",
          "transactionIndex": "0x89",
          "logIndex": "0x94",
          "removed": false
        }
      ],
      "logsBloom": "0x00000000000000000000000000000000000000000600000000000000000000000000000000000000000000000000000000000000000000004000000000000000000000000000004000000008000000000000000000000000000000000000000000000000020000000000000000000800020000000000000000000010000000000000000000000000000000000000000000000000000000000000010000000000000000000000000000000000000000004000000000000000000000000000000000000002000000800000000000000000000000000000080000000000000020000000000000000000000000000000000000000000000000000000000000000000",
      "type": "0x2",
      "transactionHash": "0xa00b2c8e5debc2ec53692884c1ed5264fe4306363727e7521c6b4b1fd57cf5af",
      "transactionIndex": "0x89",
      "blockHash": "0xe8f7e3d3d4c7472b3345bb5780e5e190b48fd28dba16bb0981977c8acdd06ca5",
      "blockNumber": "0x731a0d",
      "gasUsed": "0xf213",
      "effectiveGasPrice": "0x3dbe92b9",
      "from": "0xc77f7fed3b5cc8249adc428c5f44c9063b9734b4",
      "to": "0x8aafd3ede9adb0ff97c7aebce82a919afb1c8764",
      "contractAddress": null
    }
  ],
  "libraries": [],
  "pending": [],
  "returns": {},
  "timestamp": 1737504109,
  "chain": 11155111,
  "commit": "1d2fb70"
}