{
  "transactions": [
    {
      "hash": "0x1e3f31617e32fa305ab837139195504717e4c2254a66a62d7c4ef05569f2ed5b",
      "transactionType": "CALL",
      "contractName": null,
      "contractAddress": "0x270e88f8683660553e8ba4eb2ad7c91a1710d769",
      "function": "sell(uint256)",
      "arguments": [
        "725991066195728451011"
      ],
      "transaction": {
        "from": "0xc77f7fed3b5cc8249adc428c5f44c9063b9734b4",
        "to": "0x270e88f8683660553e8ba4eb2ad7c91a1710d769",
        "gas": "0x16fec",
        "value": "0x0",
        "input": "0xe4849b320000000000000000000000000000000000000000000000275b26643d4f7ec5c3",
        "nonce": "0x7dc",
        "chainId": "0xaa36a7"
      },
      "additionalContracts": [],
      "isFixedGasLimit": false
    }
  ],
  "receipts": [
    {
      "status": "0x1",
      "cumulativeGasUsed": "0x10444cb",
      "logs": [
        {
          "address": "0x270e88f8683660553e8ba4eb2ad7c91a1710d769",
          "topics": [
            "0xddf252ad1be2c89b69c2b068fc378daa952ba7f163c4a11628f55a4df523b3ef",
            "0x000000000000000000000000c77f7fed3b5cc8249adc428c5f44c9063b9734b4",
            "0x0000000000000000000000000000000000000000000000000000000000000000"
          ],
          "data": "0x0000000000000000000000000000000000000000000000275b26643d4f7ec5c3",
          "blockHash": "0xffda96b0480aa6eb2f948fa3073339c7de8672cafa8a352aeb327a0a0992381f",
          "blockNumber": "0x725515",
          "transactionHash": "0x1e3f31617e32fa305ab837139195504717e4c2254a66a62d7c4ef05569f2ed5b",
          "transactionIndex": "0x3f",
          "logIndex": "0x66",
          "removed": false
        },
        {
          "address": "0x270e88f8683660553e8ba4eb2ad7c91a1710d769",
          "topics": [
            "0x4afcb4a87cdbd9974efdb92ee48bc8d7cd0ae4bf217004db3d080cbaee652ca7"
          ],
          "data": "0x000000000000000000000000000000000000000000000000000000006786ef040000000000000000000000000000000000000000000000000004dc4a5298826e0000000000000000000000000000000000000000000000000dc8270cbb102043",
          "blockHash": "0xffda96b0480aa6eb2f948fa3073339c7de8672cafa8a352aeb327a0a0992381f",
          "blockNumber": "0x725515",
          "transactionHash": "0x1e3f31617e32fa305ab837139195504717e4c2254a66a62d7c4ef05569f2ed5b",
          "transactionIndex": "0x3f",
          "logIndex": "0x67",
          "removed": false
        }
      ],
      "logsBloom": "0x00000000000000000000000000000000000000000000000000000000000000000000000000000000000000000000000020000000000000004000000000000000000000000000000000000008000000000000000000000000000000000000000000000000020000000000000000000800020000000000000000000010000000000000000000010000000000000000000000000000000000000000010000000000000000000000000000000000000000004000000000000000000000000000000000000002000000800000000000000000000000000000080000008000000020000000000000000000000000000000000000000000000000000000000000000000",
      "type": "0x2",
      "transactionHash": "0x1e3f31617e32fa305ab837139195504717e4c2254a66a62d7c4ef05569f2ed5b",
      "transactionIndex": "0x3f",
      "blockHash": "0xffda96b0480aa6eb2f948fa3073339c7de8672cafa8a352aeb327a0a0992381f",
      "blockNumber": "0x725515",
      "gasUsed": "0xfb93",
      "effectiveGasPrice": "0xb27d0c23",
      "from": "0xc77f7fed3b5cc8249adc428c5f44c9063b9734b4",
      "to": "0x270e88f8683660553e8ba4eb2ad7c91a1710d769",
      "contractAddress": null
    }
  ],
  "libraries": [],
  "pending": [],
  "returns": {},
  "timestamp": 1736896261,
  "chain": 11155111,
  "commit": "51a374b"
}