{
  "transactions": [
    {
      "hash": "0x08325b25d0608594917462056b6b50ad56c43fddf09786afc9757760e3922a4d",
      "transactionType": "CALL",
      "contractName": null,
      "contractAddress": "0x8aafd3ede9adb0ff97c7aebce82a919afb1c8764",
      "function": "sell(uint256)",
      "arguments": [
        "2866046199784"
      ],
      "transaction": {
        "from": "0xc77f7fed3b5cc8249adc428c5f44c9063b9734b4",
        "to": "0x8aafd3ede9adb0ff97c7aebce82a919afb1c8764",
        "gas": "0x15daa",
        "value": "0x0",
        "input": "0xe4849b320000000000000000000000000000000000000000000000000000029b4daa67e8",
        "nonce": "0x1103",
        "chainId": "0xaa36a7"
      },
      "additionalContracts": [],
      "isFixedGasLimit": false
    }
  ],
  "receipts": [
    {
      "status": "0x1",
      "cumulativeGasUsed": "0xb5fd8a",
      "logs": [
        {
          "address": "0x8aafd3ede9adb0ff97c7aebce82a919afb1c8764",
          "topics": [
            "0xddf252ad1be2c89b69c2b068fc378daa952ba7f163c4a11628f55a4df523b3ef",
            "0x000000000000000000000000c77f7fed3b5cc8249adc428c5f44c9063b9734b4",
            "0x0000000000000000000000000000000000000000000000000000000000000000"
          ],
          "data": "0x00000000000000000000000000000000000000000000000000000295f707402a",
          "blockHash": "0xdd7c9599d1ff1699c7cc6bc8ea9dc8d051e3ace08fc28ac2160219898c054ca9",
          "blockNumber": "0x7317b2",
          "transactionHash": "0x08325b25d0608594917462056b6b50ad56c43fddf09786afc9757760e3922a4d",
          "transactionIndex": "0x9d",
          "logIndex": "0xa9",
          "removed": false
        },
        {
          "address": "0x8aafd3ede9adb0ff97c7aebce82a919afb1c8764",
          "topics": [
            "0xddf252ad1be2c89b69c2b068fc378daa952ba7f163c4a11628f55a4df523b3ef",
            "0x000000000000000000000000c77f7fed3b5cc8249adc428c5f44c9063b9734b4",
            "0x000000000000000000000000c77f7fed3b5cc8249adc428c5f44c9063b9734b4"
          ],
          "data": "0x0000000000000000000000000000000000000000000000000000000556a327be",
          "blockHash": "0xdd7c9599d1ff1699c7cc6bc8ea9dc8d051e3ace08fc28ac2160219898c054ca9",
          "blockNumber": "0x7317b2",
          "transactionHash": "0x08325b25d0608594917462056b6b50ad56c43fddf09786afc9757760e3922a4d",
          "transactionIndex": "0x9d",
          "logIndex": "0xaa",
          "removed": false
        },
        {
          "address": "0x8aafd3ede9adb0ff97c7aebce82a919afb1c8764",
          "topics": [
            "0x4afcb4a87cdbd9974efdb92ee48bc8d7cd0ae4bf217004db3d080cbaee652ca7"
          ],
          "data": "0x000000000000000000000000000000000000000000000000000000006790191c00000000000000000000000000000000000000000000000000050c28b60a432600000000000000000000000000000000000000000000000000000000f2b48812",
          "blockHash": "0xdd7c9599d1ff1699c7cc6bc8ea9dc8d051e3ace08fc28ac2160219898c054ca9",
          "blockNumber": "0x7317b2",
          "transactionHash": "0x08325b25d0608594917462056b6b50ad56c43fddf09786afc9757760e3922a4d",
          "transactionIndex": "0x9d",
          "logIndex": "0xab",
          "removed": false
        }
      ],
      "logsBloom": "0x00000000000000000000000000000000000000000600000000000000000000000000000000000000000000000000000000000000000000004000000000000000000000000000004000000008000000000000000000000000000000000000000000000000020000000000000000000800020000000000000000000010000000000000000000000000000000000000000000000000000000000000010000000000000000000000000000000000000000004000000000000000000000000000000000000002000000800000000000000000000000000000080000000000000020000000000000000000000000000000000000000000000000000000000000000000",
      "type": "0x2",
      "transactionHash": "0x08325b25d0608594917462056b6b50ad56c43fddf09786afc9757760e3922a4d",
      "transactionIndex": "0x9d",
      "blockHash": "0xdd7c9599d1ff1699c7cc6bc8ea9dc8d051e3ace08fc28ac2160219898c054ca9",
      "blockNumber": "0x7317b2",
      "gasUsed": "0xfd27",
      "effectiveGasPrice": "0x3f233af1",
      "from": "0xc77f7fed3b5cc8249adc428c5f44c9063b9734b4",
      "to": "0x8aafd3ede9adb0ff97c7aebce82a919afb1c8764",
      "contractAddress": null
    }
  ],
  "libraries": [],
  "pending": [],
  "returns": {},
  "timestamp": 1737496861,
  "chain": 11155111,
  "commit": "1d2fb70"
}