{
  "transactions": [
    {
      "hash": "0xf95d928ae8b7c748ddc79732417659827131a6f0af4a64554fb2821682f9e8ea",
      "transactionType": "CALL",
      "contractName": null,
      "contractAddress": "0x8aafd3ede9adb0ff97c7aebce82a919afb1c8764",
      "function": "sell(uint256)",
      "arguments": [
        "626624411459"
      ],
      "transaction": {
        "from": "0xc77f7fed3b5cc8249adc428c5f44c9063b9734b4",
        "to": "0x8aafd3ede9adb0ff97c7aebce82a919afb1c8764",
        "gas": "0x1722a",
        "value": "0x0",
        "input": "0xe4849b3200000000000000000000000000000000000000000000000000000091e5b9b743",
        "nonce": "0x170d",
        "chainId": "0xaa36a7"
      },
      "additionalContracts": [],
      "isFixedGasLimit": false
    }
  ],
  "receipts": [
    {
      "status": "0x1",
      "cumulativeGasUsed": "0x71a610",
      "logs": [
        {
          "address": "0x8aafd3ede9adb0ff97c7aebce82a919afb1c8764",
          "topics": [
            "0xddf252ad1be2c89b69c2b068fc378daa952ba7f163c4a11628f55a4df523b3ef",
            "0x000000000000000000000000c77f7fed3b5cc8249adc428c5f44c9063b9734b4",
            "0x0000000000000000000000000000000000000000000000000000000000000000"
          ],
          "data": "0x00000000000000000000000000000000000000000000000000000090baed7a68",
          "blockHash": "0x800d57a4ba4ed64436fc004c07f8584ad90cc076072db66b54ec54b7127e5513",
          "blockNumber": "0x731ed2",
          "transactionHash": "0xf95d928ae8b7c748ddc79732417659827131a6f0af4a64554fb2821682f9e8ea",
          "transactionIndex": "0x41",
          "logIndex": "0x59",
          "removed": false
        },
        {
          "address": "0x8aafd3ede9adb0ff97c7aebce82a919afb1c8764",
          "topics": [
            "0xddf252ad1be2c89b69c2b068fc378daa952ba7f163c4a11628f55a4df523b3ef",
            "0x000000000000000000000000c77f7fed3b5cc8249adc428c5f44c9063b9734b4",
            "0x000000000000000000000000c77f7fed3b5cc8249adc428c5f44c9063b9734b4"
          ],
          "data": "0x000000000000000000000000000000000000000000000000000000012acc3cdb",
          "blockHash": "0x800d57a4ba4ed64436fc004c07f8584ad90cc076072db66b54ec54b7127e5513",
          "blockNumber": "0x731ed2",
          "transactionHash": "0xf95d928ae8b7c748ddc79732417659827131a6f0af4a64554fb2821682f9e8ea",
          "transactionIndex": "0x41",
          "logIndex": "0x5a",
          "removed": false
        },
        {
          "address": "0x8aafd3ede9adb0ff97c7aebce82a919afb1c8764",
          "topics": [
            "0x4afcb4a87cdbd9974efdb92ee48bc8d7cd0ae4bf217004db3d080cbaee652ca7"
          ],
          "data": "0x0000000000000000000000000000000000000000000000000000000067906ec000000000000000000000000000000000000000000000000000172a599dc10ebc00000000000000000000000000000000000000000000000000000000f389d910",
          "blockHash": "0x800d57a4ba4ed64436fc004c07f8584ad90cc076072db66b54ec54b7127e5513",
          "blockNumber": "0x731ed2",
          "transactionHash": "0xf95d928ae8b7c748ddc79732417659827131a6f0af4a64554fb2821682f9e8ea",
          "transactionIndex": "0x41",
          "logIndex": "0x5b",
          "removed": false
        }
      ],
      "logsBloom": "0x00000000000000000000000000000000000000000600000000000000000000000000000000000000000000000000000000000000000000004000000000000000000000000000004000000008000000000000000000000000000000000000000000000000020000000000000000000800020000000000000000000010000000000000000000000000000000000000000000000000000000000000010000000000000000000000000000000000000000004000000000000000000000000000000000000002000000800000000000000000000000000000080000000000000020000000000000000000000000000000000000000000000000000000000000000000",
      "type": "0x2",
      "transactionHash": "0xf95d928ae8b7c748ddc79732417659827131a6f0af4a64554fb2821682f9e8ea",
      "transactionIndex": "0x41",
      "blockHash": "0x800d57a4ba4ed64436fc004c07f8584ad90cc076072db66b54ec54b7127e5513",
      "blockNumber": "0x731ed2",
      "gasUsed": "0xfd1b",
      "effectiveGasPrice": "0x419ff9c7",
      "from": "0xc77f7fed3b5cc8249adc428c5f44c9063b9734b4",
      "to": "0x8aafd3ede9adb0ff97c7aebce82a919afb1c8764",
      "contractAddress": null
    }
  ],
  "libraries": [],
  "pending": [],
  "returns": {},
  "timestamp": 1737518785,
  "chain": 11155111,
  "commit": "1d2fb70"
}