{
  "transactions": [
    {
      "hash": "0x3cf2c97a377bdb597ca5ba549d75d98d6d007cc5fff11cd19d44c2d3dfad62e5",
      "transactionType": "CALL",
      "contractName": null,
      "contractAddress": "0x5eb9cc76c3506942c1c0ead70e877dd5e4f00cb0",
      "function": "buy(address)",
      "arguments": [
        "0xC77f7fed3b5Cc8249aDc428c5F44C9063B9734b4"
      ],
      "transaction": {
        "from": "0xc77f7fed3b5cc8249adc428c5f44c9063b9734b4",
        "to": "0x5eb9cc76c3506942c1c0ead70e877dd5e4f00cb0",
        "gas": "0x1b30c",
        "value": "0xde0b6b3a7640000",
        "input": "0xf088d547000000000000000000000000c77f7fed3b5cc8249adc428c5f44c9063b9734b4",
        "nonce": "0x256",
        "chainId": "0xaa36a7"
      },
      "additionalContracts": [],
      "isFixedGasLimit": false
    }
  ],
  "receipts": [
    {
      "status": "0x1",
      "cumulativeGasUsed": "0xd2cda4",
      "logs": [
        {
          "address": "0x5eb9cc76c3506942c1c0ead70e877dd5e4f00cb0",
          "topics": [
            "0xddf252ad1be2c89b69c2b068fc378daa952ba7f163c4a11628f55a4df523b3ef",
            "0x0000000000000000000000000000000000000000000000000000000000000000",
            "0x000000000000000000000000c77f7fed3b5cc8249adc428c5f44c9063b9734b4"
          ],
          "data": "0x0000000000000000000000000000000000000000000000357c1ee1ed88cc9476",
          "blockHash": "0x3bd992d80b247d06d123df62e2be386a51bd5d56cd740268c8866ac2ce2600fa",
          "blockNumber": "0x724e11",
          "transactionHash": "0x3cf2c97a377bdb597ca5ba549d75d98d6d007cc5fff11cd19d44c2d3dfad62e5",
          "transactionIndex": "0x5e",
          "logIndex": "0xd6",
          "removed": false
        },
        {
          "address": "0x5eb9cc76c3506942c1c0ead70e877dd5e4f00cb0",
          "topics": [
            "0xddf252ad1be2c89b69c2b068fc378daa952ba7f163c4a11628f55a4df523b3ef",
            "0x0000000000000000000000000000000000000000000000000000000000000000",
            "0x000000000000000000000000c77f7fed3b5cc8249adc428c5f44c9063b9734b4"
          ],
          "data": "0x00000000000000000000000000000000000000000000000029886611d1de97c4",
          "blockHash": "0x3bd992d80b247d06d123df62e2be386a51bd5d56cd740268c8866ac2ce2600fa",
          "blockNumber": "0x724e11",
          "transactionHash": "0x3cf2c97a377bdb597ca5ba549d75d98d6d007cc5fff11cd19d44c2d3dfad62e5",
          "transactionIndex": "0x5e",
          "logIndex": "0xd7",
          "removed": false
        },
        {
          "address": "0x5eb9cc76c3506942c1c0ead70e877dd5e4f00cb0",
          "topics": [
            "0x4afcb4a87cdbd9974efdb92ee48bc8d7cd0ae4bf217004db3d080cbaee652ca7"
          ],
          "data": "0x0000000000000000000000000000000000000000000000000000000067869a800000000000000000000000000000000000000000000000000003909c022055db0000000000000000000000000000000000000000000000000de0b6b3a7640000",
          "blockHash": "0x3bd992d80b247d06d123df62e2be386a51bd5d56cd740268c8866ac2ce2600fa",
          "blockNumber": "0x724e11",
          "transactionHash": "0x3cf2c97a377bdb597ca5ba549d75d98d6d007cc5fff11cd19d44c2d3dfad62e5",
          "transactionIndex": "0x5e",
          "logIndex": "0xd8",
          "removed": false
        }
      ],
      "logsBloom": "0x00000000000000000000000000000000000000000000000000000000000000000000000000000000000000000000000000000000000000004000000000000000000000000000000000000008000000000000000000000000000000000000000000000000020000000000000004000800020000000000000000000010000000000000000000000000000000000000000000000000000000000000010000000000000000000000000000000000000000004000000000000000000000000000020000000002000000800000008000000000000000000000080000000000000020000000000000000000000000000000000000000000000000000000000000000000",
      "type": "0x2",
      "transactionHash": "0x3cf2c97a377bdb597ca5ba549d75d98d6d007cc5fff11cd19d44c2d3dfad62e5",
      "transactionIndex": "0x5e",
      "blockHash": "0x3bd992d80b247d06d123df62e2be386a51bd5d56cd740268c8866ac2ce2600fa",
      "blockNumber": "0x724e11",
      "gasUsed": "0x13af8",
      "effectiveGasPrice": "0x33869a944",
      "from": "0xc77f7fed3b5cc8249adc428c5f44c9063b9734b4",
      "to": "0x5eb9cc76c3506942c1c0ead70e877dd5e4f00cb0",
      "contractAddress": null
    }
  ],
  "libraries": [],
  "pending": [],
  "returns": {},
  "timestamp": 1736874625,
  "chain": 11155111,
  "commit": "51a374b"
}