{
  "transactions": [
    {
      "hash": "0xa2c01aa4d6177e6d5acbfc4292491b4eb5e13daf3d36797e8b3a1ad62d8dac97",
      "transactionType": "CALL",
      "contractName": null,
      "contractAddress": "0x8aafd3ede9adb0ff97c7aebce82a919afb1c8764",
      "function": "sell(uint256)",
      "arguments": [
        "43366392263502705"
      ],
      "transaction": {
        "from": "0xc77f7fed3b5cc8249adc428c5f44c9063b9734b4",
        "to": "0x8aafd3ede9adb0ff97c7aebce82a919afb1c8764",
        "gas": "0x1724d",
        "value": "0x0",
        "input": "0xe4849b32000000000000000000000000000000000000000000000000009a1181060e6b71",
        "nonce": "0x1223",
        "chainId": "0xaa36a7"
      },
      "additionalContracts": [],
      "isFixedGasLimit": false
    }
  ],
  "receipts": [
    {
      "status": "0x1",
      "cumulativeGasUsed": "0x1433725",
      "logs": [
        {
          "address": "0x8aafd3ede9adb0ff97c7aebce82a919afb1c8764",
          "topics": [
            "0xddf252ad1be2c89b69c2b068fc378daa952ba7f163c4a11628f55a4df523b3ef",
            "0x000000000000000000000000c77f7fed3b5cc8249adc428c5f44c9063b9734b4",
            "0x0000000000000000000000000000000000000000000000000000000000000000"
          ],
          "data": "0x0000000000000000000000000000000000000000000000000098d5f8d2ced0fc",
          "blockHash": "0xd3455fb76bb41aa552123d1171a950aad44c96cd47953af9e596e54b42e2a7e9",
          "blockNumber": "0x731900",
          "transactionHash": "0xa2c01aa4d6177e6d5acbfc4292491b4eb5e13daf3d36797e8b3a1ad62d8dac97",
          "transactionIndex": "0x8c",
          "logIndex": "0x87",
          "removed": false
        },
        {
          "address": "0x8aafd3ede9adb0ff97c7aebce82a919afb1c8764",
          "topics": [
            "0xddf252ad1be2c89b69c2b068fc378daa952ba7f163c4a11628f55a4df523b3ef",
            "0x000000000000000000000000c77f7fed3b5cc8249adc428c5f44c9063b9734b4",
            "0x000000000000000000000000c77f7fed3b5cc8249adc428c5f44c9063b9734b4"
          ],
          "data": "0x00000000000000000000000000000000000000000000000000013b88333f9a75",
          "blockHash": "0xd3455fb76bb41aa552123d1171a950aad44c96cd47953af9e596e54b42e2a7e9",
          "blockNumber": "0x731900",
          "transactionHash": "0xa2c01aa4d6177e6d5acbfc4292491b4eb5e13daf3d36797e8b3a1ad62d8dac97",
          "transactionIndex": "0x8c",
          "logIndex": "0x88",
          "removed": false
        },
        {
          "address": "0x8aafd3ede9adb0ff97c7aebce82a919afb1c8764",
          "topics": [
            "0x4afcb4a87cdbd9974efdb92ee48bc8d7cd0ae4bf217004db3d080cbaee652ca7"
          ],
          "data": "0x00000000000000000000000000000000000000000000000000000000679028d00000000000000000000000000000000000000000000000000005364a906da1d5000000000000000000000000000000000000000000000000000039dd077e06cd",
          "blockHash": "0xd3455fb76bb41aa552123d1171a950aad44c96cd47953af9e596e54b42e2a7e9",
          "blockNumber": "0x731900",
          "transactionHash": "0xa2c01aa4d6177e6d5acbfc4292491b4eb5e13daf3d36797e8b3a1ad62d8dac97",
          "transactionIndex": "0x8c",
          "logIndex": "0x89",
          "removed": false
        }
      ],
      "logsBloom": "0x00000000000000000000000000000000000000000600000000000000000000000000000000000000000000000000000000000000000000004000000000000000000000000000004000000008000000000000000000000000000000000000000000000000020000000000000000000800020000000000000000000010000000000000000000000000000000000000000000000000000000000000010000000000000000000000000000000000000000004000000000000000000000000000000000000002000000800000000000000000000000000000080000000000000020000000000000000000000000000000000000000000000000000000000000000000",
      "type": "0x2",
      "transactionHash": "0xa2c01aa4d6177e6d5acbfc4292491b4eb5e13daf3d36797e8b3a1ad62d8dac97",
      "transactionIndex": "0x8c",
      "blockHash": "0xd3455fb76bb41aa552123d1171a950aad44c96cd47953af9e596e54b42e2a7e9",
      "blockNumber": "0x731900",
      "gasUsed": "0xfd33",
      "effectiveGasPrice": "0x5c847d90",
      "from": "0xc77f7fed3b5cc8249adc428c5f44c9063b9734b4",
      "to": "0x8aafd3ede9adb0ff97c7aebce82a919afb1c8764",
      "contractAddress": null
    }
  ],
  "libraries": [],
  "pending": [],
  "returns": {},
  "timestamp": 1737500882,
  "chain": 11155111,
  "commit": "1d2fb70"
}