{
  "transactions": [
    {
      "hash": "0x7dbb2902c2160b6a13f1a62f8702542ad972b0356598798006232690cef6a9e8",
      "transactionType": "CALL",
      "contractName": null,
      "contractAddress": "0x5eb9cc76c3506942c1c0ead70e877dd5e4f00cb0",
      "function": "sell(uint256)",
      "arguments": [
        "989152269735138219409"
      ],
      "transaction": {
        "from": "0xc77f7fed3b5cc8249adc428c5f44c9063b9734b4",
        "to": "0x5eb9cc76c3506942c1c0ead70e877dd5e4f00cb0",
        "gas": "0x16fec",
        "value": "0x0",
        "input": "0xe4849b320000000000000000000000000000000000000000000000359f3ecc921e48d591",
        "nonce": "0x2b9",
        "chainId": "0xaa36a7"
      },
      "additionalContracts": [],
      "isFixedGasLimit": false
    }
  ],
  "receipts": [
    {
      "status": "0x1",
      "cumulativeGasUsed": "0xe96d1b",
      "logs": [
        {
          "address": "0x5eb9cc76c3506942c1c0ead70e877dd5e4f00cb0",
          "topics": [
            "0xddf252ad1be2c89b69c2b068fc378daa952ba7f163c4a11628f55a4df523b3ef",
            "0x000000000000000000000000c77f7fed3b5cc8249adc428c5f44c9063b9734b4",
            "0x0000000000000000000000000000000000000000000000000000000000000000"
          ],
          "data": "0x0000000000000000000000000000000000000000000000359f3ecc921e48d591",
          "blockHash": "0xdd72b5812b3743e6ea55e39b3fd786b31742ef572898b3ae2d0efb62167dd8fe",
          "blockNumber": "0x724e94",
          "transactionHash": "0x7dbb2902c2160b6a13f1a62f8702542ad972b0356598798006232690cef6a9e8",
          "transactionIndex": "0x5c",
          "logIndex": "0xb1",
          "removed": false
        },
        {
          "address": "0x5eb9cc76c3506942c1c0ead70e877dd5e4f00cb0",
          "topics": [
            "0x4afcb4a87cdbd9974efdb92ee48bc8d7cd0ae4bf217004db3d080cbaee652ca7"
          ],
          "data": "0x000000000000000000000000000000000000000000000000000000006786a0a4000000000000000000000000000000000000000000000000000391091ebd0e7d0000000000000000000000000000000000000000000000000dc7db133244749a",
          "blockHash": "0xdd72b5812b3743e6ea55e39b3fd786b31742ef572898b3ae2d0efb62167dd8fe",
          "blockNumber": "0x724e94",
          "transactionHash": "0x7dbb2902c2160b6a13f1a62f8702542ad972b0356598798006232690cef6a9e8",
          "transactionIndex": "0x5c",
          "logIndex": "0xb2",
          "removed": false
        }
      ],
      "logsBloom": "0x00000000000000000000000000000000000000000000000000000000000000000000000000000000000000000000000000000000000000004000000000000000000000000000000000000008000000000000000000000000000000000000000000000000020000000000000004000800020000000000000000000010000000000000000000000000000000000000000000000000000000000000010000000000000000000000000000000000000000004000000000000000000000000000020000000002000000800000008000000000000000000000080000000000000020000000000000000000000000000000000000000000000000000000000000000000",
      "type": "0x2",
      "transactionHash": "0x7dbb2902c2160b6a13f1a62f8702542ad972b0356598798006232690cef6a9e8",
      "transactionIndex": "0x5c",
      "blockHash": "0xdd72b5812b3743e6ea55e39b3fd786b31742ef572898b3ae2d0efb62167dd8fe",
      "blockNumber": "0x724e94",
      "gasUsed": "0xfb93",
      "effectiveGasPrice": "0x476b4411b",
      "from": "0xc77f7fed3b5cc8249adc428c5f44c9063b9734b4",
      "to": "0x5eb9cc76c3506942c1c0ead70e877dd5e4f00cb0",
      "contractAddress": null
    }
  ],
  "libraries": [],
  "pending": [],
  "returns": {},
  "timestamp": 1736876197,
  "chain": 11155111,
  "commit": "51a374b"
}