{
  "transactions": [
    {
      "hash": "0x87c659431549a7bcf51ff5377edeb8236b6ebdbe68d476712c7af5695b3d1e6c",
      "transactionType": "CALL",
      "contractName": null,
      "contractAddress": "0xbf4a322f1496e5c3d34a9bcdb4c60567b38c7de2",
      "function": "sell(uint256)",
      "arguments": [
        "973875004622547207121"
      ],
      "transaction": {
        "from": "0xc77f7fed3b5cc8249adc428c5f44c9063b9734b4",
        "to": "0xbf4a322f1496e5c3d34a9bcdb4c60567b38c7de2",
        "gas": "0x16fea",
        "value": "0x0",
        "input": "0xe4849b32000000000000000000000000000000000000000000000034cb3b0ce4aed443d1",
        "nonce": "0xde3",
        "chainId": "0xaa36a7"
      },
      "additionalContracts": [],
      "isFixedGasLimit": false
    }
  ],
  "receipts": [
    {
      "status": "0x1",
      "cumulativeGasUsed": "0x114bfa0",
      "logs": [
        {
          "address": "0xbf4a322f1496e5c3d34a9bcdb4c60567b38c7de2",
          "topics": [
            "0xddf252ad1be2c89b69c2b068fc378daa952ba7f163c4a11628f55a4df523b3ef",
            "0x000000000000000000000000c77f7fed3b5cc8249adc428c5f44c9063b9734b4",
            "0x0000000000000000000000000000000000000000000000000000000000000000"
          ],
          "data": "0x000000000000000000000000000000000000000000000034cb3b0ce4aed443d1",
          "blockHash": "0x0f3b181357315013f6f0bb310f10d9ae9d6c286d0900ade7994f3d665422a4f1",
          "blockNumber": "0x7266c2",
          "transactionHash": "0x87c659431549a7bcf51ff5377edeb8236b6ebdbe68d476712c7af5695b3d1e6c",
          "transactionIndex": "0x4d",
          "logIndex": "0x8f",
          "removed": false
        },
        {
          "address": "0xbf4a322f1496e5c3d34a9bcdb4c60567b38c7de2",
          "topics": [
            "0x4afcb4a87cdbd9974efdb92ee48bc8d7cd0ae4bf217004db3d080cbaee652ca7"
          ],
          "data": "0x000000000000000000000000000000000000000000000000000000006787c41c00000000000000000000000000000000000000000000000000039f6229d280980000000000000000000000000000000000000000000000000dc7e3d3d34c8698",
          "blockHash": "0x0f3b181357315013f6f0bb310f10d9ae9d6c286d0900ade7994f3d665422a4f1",
          "blockNumber": "0x7266c2",
          "transactionHash": "0x87c659431549a7bcf51ff5377edeb8236b6ebdbe68d476712c7af5695b3d1e6c",
          "transactionIndex": "0x4d",
          "logIndex": "0x90",
          "removed": false
        }
      ],
      "logsBloom": "0x00000000000000000000000000000000000000000000000000000000000000000000000000000000000000000000000000000000000000004000000000000000000000000000000000000008000000000000001000000000000000000000000000000000020000000000000000000800020000000000000000000010000000000000000000000000000000000000000000000000000008000000010000000000000000000000000000000000000000004000000000000000000000000000000000000002000000800000000000001000000000000000080000000000000020000000000000000000000000000000000000000000000000000000000000000000",
      "type": "0x2",
      "transactionHash": "0x87c659431549a7bcf51ff5377edeb8236b6ebdbe68d476712c7af5695b3d1e6c",
      "transactionIndex": "0x4d",
      "blockHash": "0x0f3b181357315013f6f0bb310f10d9ae9d6c286d0900ade7994f3d665422a4f1",
      "blockNumber": "0x7266c2",
      "gasUsed": "0xfb91",
      "effectiveGasPrice": "0x23ed6ea68",
      "from": "0xc77f7fed3b5cc8249adc428c5f44c9063b9734b4",
      "to": "0xbf4a322f1496e5c3d34a9bcdb4c60567b38c7de2",
      "contractAddress": null
    }
  ],
  "libraries": [],
  "pending": [],
  "returns": {},
  "timestamp": 1736950813,
  "chain": 11155111,
  "commit": "51a374b"
}