{
  "transactions": [
    {
      "hash": "0x14fc15ef7d65e7d77bef3a04b503e6f150ec0bc277dcdd5a3fcde7ae609ffc77",
      "transactionType": "CALL",
      "contractName": null,
      "contractAddress": "0xbf4a322f1496e5c3d34a9bcdb4c60567b38c7de2",
      "function": "sell(uint256)",
      "arguments": [
        "980899684940896370276"
      ],
      "transaction": {
        "from": "0xc77f7fed3b5cc8249adc428c5f44c9063b9734b4",
        "to": "0xbf4a322f1496e5c3d34a9bcdb4c60567b38c7de2",
        "gas": "0x16fea",
        "value": "0x0",
        "input": "0xe4849b320000000000000000000000000000000000000000000000352cb7ba6caab57e64",
        "nonce": "0xbd5",
        "chainId": "0xaa36a7"
      },
      "additionalContracts": [],
      "isFixedGasLimit": false
    }
  ],
  "receipts": [
    {
      "status": "0x1",
      "cumulativeGasUsed": "0x147e6cb",
      "logs": [
        {
          "address": "0xbf4a322f1496e5c3d34a9bcdb4c60567b38c7de2",
          "topics": [
            "0xddf252ad1be2c89b69c2b068fc378daa952ba7f163c4a11628f55a4df523b3ef",
            "0x000000000000000000000000c77f7fed3b5cc8249adc428c5f44c9063b9734b4",
            "0x0000000000000000000000000000000000000000000000000000000000000000"
          ],
          "data": "0x0000000000000000000000000000000000000000000000352cb7ba6caab57e64",
          "blockHash": "0xea27b401c9c9c00cd4d51af8e8ee1790555458546c86470b0a92a448e0cb4c35",
          "blockNumber": "0x725bf8",
          "transactionHash": "0x14fc15ef7d65e7d77bef3a04b503e6f150ec0bc277dcdd5a3fcde7ae609ffc77",
          "transactionIndex": "0x75",
          "logIndex": "0xd1",
          "removed": false
        },
        {
          "address": "0xbf4a322f1496e5c3d34a9bcdb4c60567b38c7de2",
          "topics": [
            "0x4afcb4a87cdbd9974efdb92ee48bc8d7cd0ae4bf217004db3d080cbaee652ca7"
          ],
          "data": "0x00000000000000000000000000000000000000000000000000000000678741fc000000000000000000000000000000000000000000000000000398be01333ebb0000000000000000000000000000000000000000000000000dc7e3e4287a1d86",
          "blockHash": "0xea27b401c9c9c00cd4d51af8e8ee1790555458546c86470b0a92a448e0cb4c35",
          "blockNumber": "0x725bf8",
          "transactionHash": "0x14fc15ef7d65e7d77bef3a04b503e6f150ec0bc277dcdd5a3fcde7ae609ffc77",
          "transactionIndex": "0x75",
          "logIndex": "0xd2",
          "removed": false
        }
      ],
      "logsBloom": "0x00000000000000000000000000000000000000000000000000000000000000000000000000000000000000000000000000000000000000004000000000000000000000000000000000000008000000000000001000000000000000000000000000000000020000000000000000000800020000000000000000000010000000000000000000000000000000000000000000000000000008000000010000000000000000000000000000000000000000004000000000000000000000000000000000000002000000800000000000001000000000000000080000000000000020000000000000000000000000000000000000000000000000000000000000000000",
      "type": "0x2",
      "transactionHash": "0x14fc15ef7d65e7d77bef3a04b503e6f150ec0bc277dcdd5a3fcde7ae609ffc77",
      "transactionIndex": "0x75",
      "blockHash": "0xea27b401c9c9c00cd4d51af8e8ee1790555458546c86470b0a92a448e0cb4c35",
      "blockNumber": "0x725bf8",
      "gasUsed": "0xfb91",
      "effectiveGasPrice": "0x8356b610",
      "from": "0xc77f7fed3b5cc8249adc428c5f44c9063b9734b4",
      "to": "0xbf4a322f1496e5c3d34a9bcdb4c60567b38c7de2",
      "contractAddress": null
    }
  ],
  "libraries": [],
  "pending": [],
  "returns": {},
  "timestamp": 1736917501,
  "chain": 11155111,
  "commit": "51a374b"
}