{
  "transactions": [
    {
      "hash": "0xdd683649fbf43ed862c83120cb61af9cd5fe574bbad26dc6e32c4968696843c2",
      "transactionType": "CALL",
      "contractName": null,
      "contractAddress": "0xbf4a322f1496e5c3d34a9bcdb4c60567b38c7de2",
      "function": "sell(uint256)",
      "arguments": [
        "982192703081411207732"
      ],
      "transaction": {
        "from": "0xc77f7fed3b5cc8249adc428c5f44c9063b9734b4",
        "to": "0xbf4a322f1496e5c3d34a9bcdb4c60567b38c7de2",
        "gas": "0x16fea",
        "value": "0x0",
        "input": "0xe4849b320000000000000000000000000000000000000000000000353ea97392943b6234",
        "nonce": "0xb75",
        "chainId": "0xaa36a7"
      },
      "additionalContracts": [],
      "isFixedGasLimit": false
    }
  ],
  "receipts": [
    {
      "status": "0x1",
      "cumulativeGasUsed": "0xd9aab1",
      "logs": [
        {
          "address": "0xbf4a322f1496e5c3d34a9bcdb4c60567b38c7de2",
          "topics": [
            "0xddf252ad1be2c89b69c2b068fc378daa952ba7f163c4a11628f55a4df523b3ef",
            "0x000000000000000000000000c77f7fed3b5cc8249adc428c5f44c9063b9734b4",
            "0x0000000000000000000000000000000000000000000000000000000000000000"
          ],
          "data": "0x0000000000000000000000000000000000000000000000353ea97392943b6234",
          "blockHash": "0x41bbcd3f27cbcc0d86ca73359ef36eaac4d85a4c75f001b108df0982f92b9af6",
          "blockNumber": "0x725b82",
          "transactionHash": "0xdd683649fbf43ed862c83120cb61af9cd5fe574bbad26dc6e32c4968696843c2",
          "transactionIndex": "0x60",
          "logIndex": "0x8c",
          "removed": false
        },
        {
          "address": "0xbf4a322f1496e5c3d34a9bcdb4c60567b38c7de2",
          "topics": [
            "0x4afcb4a87cdbd9974efdb92ee48bc8d7cd0ae4bf217004db3d080cbaee652ca7"
          ],
          "data": "0x0000000000000000000000000000000000000000000000000000000067873c7400000000000000000000000000000000000000000000000000039787b5d14fc70000000000000000000000000000000000000000000000000dc7e3e72a16a99a",
          "blockHash": "0x41bbcd3f27cbcc0d86ca73359ef36eaac4d85a4c75f001b108df0982f92b9af6",
          "blockNumber": "0x725b82",
          "transactionHash": "0xdd683649fbf43ed862c83120cb61af9cd5fe574bbad26dc6e32c4968696843c2",
          "transactionIndex": "0x60",
          "logIndex": "0x8d",
          "removed": false
        }
      ],
      "logsBloom": "0x00000000000000000000000000000000000000000000000000000000000000000000000000000000000000000000000000000000000000004000000000000000000000000000000000000008000000000000001000000000000000000000000000000000020000000000000000000800020000000000000000000010000000000000000000000000000000000000000000000000000008000000010000000000000000000000000000000000000000004000000000000000000000000000000000000002000000800000000000001000000000000000080000000000000020000000000000000000000000000000000000000000000000000000000000000000",
      "type": "0x2",
      "transactionHash": "0xdd683649fbf43ed862c83120cb61af9cd5fe574bbad26dc6e32c4968696843c2",
      "transactionIndex": "0x60",
      "blockHash": "0x41bbcd3f27cbcc0d86ca73359ef36eaac4d85a4c75f001b108df0982f92b9af6",
      "blockNumber": "0x725b82",
      "gasUsed": "0xfb91",
      "effectiveGasPrice": "0x3f766a19",
      "from": "0xc77f7fed3b5cc8249adc428c5f44c9063b9734b4",
      "to": "0xbf4a322f1496e5c3d34a9bcdb4c60567b38c7de2",
      "contractAddress": null
    }
  ],
  "libraries": [],
  "pending": [],
  "returns": {},
  "timestamp": 1736916085,
  "chain": 11155111,
  "commit": "51a374b"
}