{
  "transactions": [
    {
      "hash": "0x8438d5b3715ca14e0fcb5327130abe0b9846901841a0d55a98113052e682f05b",
      "transactionType": "CALL",
      "contractName": null,
      "contractAddress": "0x8aafd3ede9adb0ff97c7aebce82a919afb1c8764",
      "function": "sell(uint256)",
      "arguments": [
        "677599879117229774354"
      ],
      "transaction": {
        "from": "0xc77f7fed3b5cc8249adc428c5f44c9063b9734b4",
        "to": "0x8aafd3ede9adb0ff97c7aebce82a919afb1c8764",
        "gas": "0x17270",
        "value": "0x0",
        "input": "0xe4849b32000000000000000000000000000000000000000000000024bb965bfaa61bd612",
        "nonce": "0x1221",
        "chainId": "0xaa36a7"
      },
      "additionalContracts": [],
      "isFixedGasLimit": false
    }
  ],
  "receipts": [
    {
      "status": "0x1",
      "cumulativeGasUsed": "0x1c7ce53",
      "logs": [
        {
          "address": "0x8aafd3ede9adb0ff97c7aebce82a919afb1c8764",
          "topics": [
            "0xddf252ad1be2c89b69c2b068fc378daa952ba7f163c4a11628f55a4df523b3ef",
            "0x000000000000000000000000c77f7fed3b5cc8249adc428c5f44c9063b9734b4",
            "0x0000000000000000000000000000000000000000000000000000000000000000"
          ],
          "data": "0x000000000000000000000000000000000000000000000024705bcffab1115fa0",
          "blockHash": "0x7409426732a63f644d9bab3681309b1071d90d1fb3fcc35092e3992dd0cf2718",
          "blockNumber": "0x7318fe",
          "transactionHash": "0x8438d5b3715ca14e0fcb5327130abe0b9846901841a0d55a98113052e682f05b",
          "transactionIndex": "0xaa",
          "logIndex": "0xea",
          "removed": false
        },
        {
          "address": "0x8aafd3ede9adb0ff97c7aebce82a919afb1c8764",
          "topics": [
            "0xddf252ad1be2c89b69c2b068fc378daa952ba7f163c4a11628f55a4df523b3ef",
            "0x000000000000000000000000c77f7fed3b5cc8249adc428c5f44c9063b9734b4",
            "0x000000000000000000000000c77f7fed3b5cc8249adc428c5f44c9063b9734b4"
          ],
          "data": "0x0000000000000000000000000000000000000000000000004b3a8bfff50a7672",
          "blockHash": "0x7409426732a63f644d9bab3681309b1071d90d1fb3fcc35092e3992dd0cf2718",
          "blockNumber": "0x7318fe",
          "transactionHash": "0x8438d5b3715ca14e0fcb5327130abe0b9846901841a0d55a98113052e682f05b",
          "transactionIndex": "0xaa",
          "logIndex": "0xeb",
          "removed": false
        },
        {
          "address": "0x8aafd3ede9adb0ff97c7aebce82a919afb1c8764",
          "topics": [
            "0x4afcb4a87cdbd9974efdb92ee48bc8d7cd0ae4bf217004db3d080cbaee652ca7"
          ],
          "data": "0x00000000000000000000000000000000000000000000000000000000679028b8000000000000000000000000000000000000000000000000000536486d0621f30000000000000000000000000000000000000000000000000dc8f0e0dc10f800",
          "blockHash": "0x7409426732a63f644d9bab3681309b1071d90d1fb3fcc35092e3992dd0cf2718",
          "blockNumber": "0x7318fe",
          "transactionHash": "0x8438d5b3715ca14e0fcb5327130abe0b9846901841a0d55a98113052e682f05b",
          "transactionIndex": "0xaa",
          "logIndex": "0xec",
          "removed": false
        }
      ],
      "logsBloom": "0x00000000000000000000000000000000000000000600000000000000000000000000000000000000000000000000000000000000000000004000000000000000000000000000004000000008000000000000000000000000000000000000000000000000020000000000000000000800020000000000000000000010000000000000000000000000000000000000000000000000000000000000010000000000000000000000000000000000000000004000000000000000000000000000000000000002000000800000000000000000000000000000080000000000000020000000000000000000000000000000000000000000000000000000000000000000",
      "type": "0x2",
      "transactionHash": "0x8438d5b3715ca14e0fcb5327130abe0b9846901841a0d55a98113052e682f05b",
      "transactionIndex": "0xaa",
      "blockHash": "0x7409426732a63f644d9bab3681309b1071d90d1fb3fcc35092e3992dd0cf2718",
      "blockNumber": "0x7318fe",
      "gasUsed": "0xfd4b",
      "effectiveGasPrice": "0x4c553457",
      "from": "0xc77f7fed3b5cc8249adc428c5f44c9063b9734b4",
      "to": "0x8aafd3ede9adb0ff97c7aebce82a919afb1c8764",
      "contractAddress": null
    }
  ],
  "libraries": [],
  "pending": [],
  "returns": {},
  "timestamp": 1737500857,
  "chain": 11155111,
  "commit": "1d2fb70"
}