{
  "transactions": [
    {
      "hash": "0xb3aa57865278dda4586eab3be873a3b11e729f07cbe895fc758e6f8a8ba4ed99",
      "transactionType": "CALL",
      "contractName": null,
      "contractAddress": "0x8aafd3ede9adb0ff97c7aebce82a919afb1c8764",
      "function": "sell(uint256)",
      "arguments": [
        "15659315185890740"
      ],
      "transaction": {
        "from": "0xc77f7fed3b5cc8249adc428c5f44c9063b9734b4",
        "to": "0x8aafd3ede9adb0ff97c7aebce82a919afb1c8764",
        "gas": "0x1724d",
        "value": "0x0",
        "input": "0xe4849b320000000000000000000000000000000000000000000000000037a2106f14b5b4",
        "nonce": "0x1420",
        "chainId": "0xaa36a7"
      },
      "additionalContracts": [],
      "isFixedGasLimit": false
    }
  ],
  "receipts": [
    {
      "status": "0x1",
      "cumulativeGasUsed": "0x11270fc",
      "logs": [
        {
          "address": "0x8aafd3ede9adb0ff97c7aebce82a919afb1c8764",
          "topics": [
            "0xddf252ad1be2c89b69c2b068fc378daa952ba7f163c4a11628f55a4df523b3ef",
            "0x000000000000000000000000c77f7fed3b5cc8249adc428c5f44c9063b9734b4",
            "0x0000000000000000000000000000000000000000000000000000000000000000"
          ],
          "data": "0x00000000000000000000000000000000000000000000000000373020afba6e9f",
          "blockHash": "0x891fbbe82cb9d71c0c3529b6063eb2f49b0557b0b6793548e5d2a6b28e397658",
          "blockNumber": "0x731b5c",
          "transactionHash": "0xb3aa57865278dda4586eab3be873a3b11e729f07cbe895fc758e6f8a8ba4ed99",
          "transactionIndex": "0xb6",
          "logIndex": "0xeb",
          "removed": false
        },
        {
          "address": "0x8aafd3ede9adb0ff97c7aebce82a919afb1c8764",
          "topics": [
            "0xddf252ad1be2c89b69c2b068fc378daa952ba7f163c4a11628f55a4df523b3ef",
            "0x000000000000000000000000c77f7fed3b5cc8249adc428c5f44c9063b9734b4",
            "0x000000000000000000000000c77f7fed3b5cc8249adc428c5f44c9063b9734b4"
          ],
          "data": "0x000000000000000000000000000000000000000000000000000071efbf5a4715",
          "blockHash": "0x891fbbe82cb9d71c0c3529b6063eb2f49b0557b0b6793548e5d2a6b28e397658",
          "blockNumber": "0x731b5c",
          "transactionHash": "0xb3aa57865278dda4586eab3be873a3b11e729f07cbe895fc758e6f8a8ba4ed99",
          "transactionIndex": "0xb6",
          "logIndex": "0xec",
          "removed": false
        },
        {
          "address": "0x8aafd3ede9adb0ff97c7aebce82a919afb1c8764",
          "topics": [
            "0x4afcb4a87cdbd9974efdb92ee48bc8d7cd0ae4bf217004db3d080cbaee652ca7"
          ],
          "data": "0x0000000000000000000000000000000000000000000000000000000067904520000000000000000000000000000000000000000000000000000e856c65ee522300000000000000000000000000000000000000000000000000003a365850d2ca",
          "blockHash": "0x891fbbe82cb9d71c0c3529b6063eb2f49b0557b0b6793548e5d2a6b28e397658",
          "blockNumber": "0x731b5c",
          "transactionHash": "0xb3aa57865278dda4586eab3be873a3b11e729f07cbe895fc758e6f8a8ba4ed99",
          "transactionIndex": "0xb6",
          "logIndex": "0xed",
          "removed": false
        }
      ],
      "logsBloom": "0x00000000000000000000000000000000000000000600000000000000000000000000000000000000000000000000000000000000000000004000000000000000000000000000004000000008000000000000000000000000000000000000000000000000020000000000000000000800020000000000000000000010000000000000000000000000000000000000000000000000000000000000010000000000000000000000000000000000000000004000000000000000000000000000000000000002000000800000000000000000000000000000080000000000000020000000000000000000000000000000000000000000000000000000000000000000",
      "type": "0x2",
      "transactionHash": "0xb3aa57865278dda4586eab3be873a3b11e729f07cbe895fc758e6f8a8ba4ed99",
      "transactionIndex": "0xb6",
      "blockHash": "0x891fbbe82cb9d71c0c3529b6063eb2f49b0557b0b6793548e5d2a6b28e397658",
      "blockNumber": "0x731b5c",
      "gasUsed": "0xfd33",
      "effectiveGasPrice": "0xf59a2006",
      "from": "0xc77f7fed3b5cc8249adc428c5f44c9063b9734b4",
      "to": "0x8aafd3ede9adb0ff97c7aebce82a919afb1c8764",
      "contractAddress": null
    }
  ],
  "libraries": [],
  "pending": [],
  "returns": {},
  "timestamp": 1737508128,
  "chain": 11155111,
  "commit": "1d2fb70"
}