{
  "transactions": [
    {
      "hash": "0x904b41ef8dadfa6ae8b48698332b1f6ca6a7de0cd1e21882b0ed31bae0a9c799",
      "transactionType": "CALL",
      "contractName": null,
      "contractAddress": "0x8aafd3ede9adb0ff97c7aebce82a919afb1c8764",
      "function": "sell(uint256)",
      "arguments": [
        "1552704"
      ],
      "transaction": {
        "from": "0xc77f7fed3b5cc8249adc428c5f44c9063b9734b4",
        "to": "0x8aafd3ede9adb0ff97c7aebce82a919afb1c8764",
        "gas": "0x16208",
        "value": "0x0",
        "input": "0xe4849b32000000000000000000000000000000000000000000000000000000000017b140",
        "nonce": "0xfbe",
        "chainId": "0xaa36a7"
      },
      "additionalContracts": [],
      "isFixedGasLimit": false
    }
  ],
  "receipts": [
    {
      "status": "0x1",
      "cumulativeGasUsed": "0x10042c6",
      "logs": [
        {
          "address": "0x8aafd3ede9adb0ff97c7aebce82a919afb1c8764",
          "topics": [
            "0xddf252ad1be2c89b69c2b068fc378daa952ba7f163c4a11628f55a4df523b3ef",
            "0x000000000000000000000000c77f7fed3b5cc8249adc428c5f44c9063b9734b4",
            "0x0000000000000000000000000000000000000000000000000000000000000000"
          ],
          "data": "0x00000000000000000000000000000000000000000000000000000000001780bb",
          "blockHash": "0x66040e003e23cda3f8fe34cde4eee19324239dd9813f75d622d56ced2369aa0b",
          "blockNumber": "0x73162a",
          "transactionHash": "0x904b41ef8dadfa6ae8b48698332b1f6ca6a7de0cd1e21882b0ed31bae0a9c799",
          "transactionIndex": "0x98",
          "logIndex": "0x12a",
          "removed": false
        },
        {
          "address": "0x8aafd3ede9adb0ff97c7aebce82a919afb1c8764",
          "topics": [
            "0xddf252ad1be2c89b69c2b068fc378daa952ba7f163c4a11628f55a4df523b3ef",
            "0x000000000000000000000000c77f7fed3b5cc8249adc428c5f44c9063b9734b4",
            "0x000000000000000000000000c77f7fed3b5cc8249adc428c5f44c9063b9734b4"
          ],
          "data": "0x0000000000000000000000000000000000000000000000000000000000003085",
          "blockHash": "0x66040e003e23cda3f8fe34cde4eee19324239dd9813f75d622d56ced2369aa0b",
          "blockNumber": "0x73162a",
          "transactionHash": "0x904b41ef8dadfa6ae8b48698332b1f6ca6a7de0cd1e21882b0ed31bae0a9c799",
          "transactionIndex": "0x98",
          "logIndex": "0x12b",
          "removed": false
        },
        {
          "address": "0x8aafd3ede9adb0ff97c7aebce82a919afb1c8764",
          "topics": [
            "0x4afcb4a87cdbd9974efdb92ee48bc8d7cd0ae4bf217004db3d080cbaee652ca7"
          ],
          "data": "0x00000000000000000000000000000000000000000000000000000000679006a40000000000000000000000000000000000000000000000000004c42316747ebe0000000000000000000000000000000000000000000000000000000000000823",
          "blockHash": "0x66040e003e23cda3f8fe34cde4eee19324239dd9813f75d622d56ced2369aa0b",
          "blockNumber": "0x73162a",
          "transactionHash": "0x904b41ef8dadfa6ae8b48698332b1f6ca6a7de0cd1e21882b0ed31bae0a9c799",
          "transactionIndex": "0x98",
          "logIndex": "0x12c",
          "removed": false
        }
      ],
      "logsBloom": "0x00000000000000000000000000000000000000000600000000000000000000000000000000000000000000000000000000000000000000004000000000000000000000000000004000000008000000000000000000000000000000000000000000000000020000000000000000000800020000000000000000000010000000000000000000000000000000000000000000000000000000000000010000000000000000000000000000000000000000004000000000000000000000000000000000000002000000800000000000000000000000000000080000000000000020000000000000000000000000000000000000000000000000000000000000000000",
      "type": "0x2",
      "transactionHash": "0x904b41ef8dadfa6ae8b48698332b1f6ca6a7de0cd1e21882b0ed31bae0a9c799",
      "transactionIndex": "0x98",
      "blockHash": "0x66040e003e23cda3f8fe34cde4eee19324239dd9813f75d622d56ced2369aa0b",
      "blockNumber": "0x73162a",
      "gasUsed": "0xf213",
      "effectiveGasPrice": "0x61fb8333",
      "from": "0xc77f7fed3b5cc8249adc428c5f44c9063b9734b4",
      "to": "0x8aafd3ede9adb0ff97c7aebce82a919afb1c8764",
      "contractAddress": null
    }
  ],
  "libraries": [],
  "pending": [],
  "returns": {},
  "timestamp": 1737492134,
  "chain": 11155111,
  "commit": "1d2fb70"
}