{
  "transactions": [
    {
      "hash": "0x934ea7803475925d4f961760f955c0e02356f8920c81e09b082e40fab28aded2",
      "transactionType": "CALL",
      "contractName": null,
      "contractAddress": "0xbf4a322f1496e5c3d34a9bcdb4c60567b38c7de2",
      "function": "sell(uint256)",
      "arguments": [
        "979422279644827271598"
      ],
      "transaction": {
        "from": "0xc77f7fed3b5cc8249adc428c5f44c9063b9734b4",
        "to": "0xbf4a322f1496e5c3d34a9bcdb4c60567b38c7de2",
        "gas": "0x16fea",
        "value": "0x0",
        "input": "0xe4849b320000000000000000000000000000000000000000000000351836ee22a53ac1ae",
        "nonce": "0xc43",
        "chainId": "0xaa36a7"
      },
      "additionalContracts": [],
      "isFixedGasLimit": false
    }
  ],
  "receipts": [
    {
      "status": "0x1",
      "cumulativeGasUsed": "0x692370",
      "logs": [
        {
          "address": "0xbf4a322f1496e5c3d34a9bcdb4c60567b38c7de2",
          "topics": [
            "0xddf252ad1be2c89b69c2b068fc378daa952ba7f163c4a11628f55a4df523b3ef",
            "0x000000000000000000000000c77f7fed3b5cc8249adc428c5f44c9063b9734b4",
            "0x0000000000000000000000000000000000000000000000000000000000000000"
          ],
          "data": "0x0000000000000000000000000000000000000000000000351836ee22a53ac1ae",
          "blockHash": "0x6a416529083a03cea52d8ec3f5fec9ee45b635185b9ae1840a7711a330351226",
          "blockNumber": "0x725c79",
          "transactionHash": "0x934ea7803475925d4f961760f955c0e02356f8920c81e09b082e40fab28aded2",
          "transactionIndex": "0x35",
          "logIndex": "0x37",
          "removed": false
        },
        {
          "address": "0xbf4a322f1496e5c3d34a9bcdb4c60567b38c7de2",
          "topics": [
            "0x4afcb4a87cdbd9974efdb92ee48bc8d7cd0ae4bf217004db3d080cbaee652ca7"
          ],
          "data": "0x000000000000000000000000000000000000000000000000000000006787480800000000000000000000000000000000000000000000000000039a218cf9336e0000000000000000000000000000000000000000000000000dc7e3e0b91d1ff9",
          "blockHash": "0x6a416529083a03cea52d8ec3f5fec9ee45b635185b9ae1840a7711a330351226",
          "blockNumber": "0x725c79",
          "transactionHash": "0x934ea7803475925d4f961760f955c0e02356f8920c81e09b082e40fab28aded2",
          "transactionIndex": "0x35",
          "logIndex": "0x38",
          "removed": false
        }
      ],
      "logsBloom": "0x00000000000000000000000000000000000000000000000000000000000000000000000000000000000000000000000000000000000000004000000000000000000000000000000000000008000000000000001000000000000000000000000000000000020000000000000000000800020000000000000000000010000000000000000000000000000000000000000000000000000008000000010000000000000000000000000000000000000000004000000000000000000000000000000000000002000000800000000000001000000000000000080000000000000020000000000000000000000000000000000000000000000000000000000000000000",
      "type": "0x2",
      "transactionHash": "0x934ea7803475925d4f961760f955c0e02356f8920c81e09b082e40fab28aded2",
      "transactionIndex": "0x35",
      "blockHash": "0x6a416529083a03cea52d8ec3f5fec9ee45b635185b9ae1840a7711a330351226",
      "blockNumber": "0x725c79",
      "gasUsed": "0xfb91",
      "effectiveGasPrice": "0x1cfe76982",
      "from": "0xc77f7fed3b5cc8249adc428c5f44c9063b9734b4",
      "to": "0xbf4a322f1496e5c3d34a9bcdb4c60567b38c7de2",
      "contractAddress": null
    }
  ],
  "libraries": [],
  "pending": [],
  "returns": {},
  "timestamp": 1736919050,
  "chain": 11155111,
  "commit": "51a374b"
}