{
  "transactions": [
    {
      "hash": "0xc0f012ead03dbfe5c2c1ebc746f2125495e28decbeec26aee921fcd48d5fa1a1",
      "transactionType": "CALL",
      "contractName": null,
      "contractAddress": "0x5eb9cc76c3506942c1c0ead70e877dd5e4f00cb0",
      "function": "sell(uint256)",
      "arguments": [
        "989140157749642495252"
      ],
      "transaction": {
        "from": "0xc77f7fed3b5cc8249adc428c5f44c9063b9734b4",
        "to": "0x5eb9cc76c3506942c1c0ead70e877dd5e4f00cb0",
        "gas": "0x16fec",
        "value": "0x0",
        "input": "0xe4849b320000000000000000000000000000000000000000000000359f13c4c8bd498514",
        "nonce": "0x305",
        "chainId": "0xaa36a7"
      },
      "additionalContracts": [],
      "isFixedGasLimit": false
    }
  ],
  "receipts": [
    {
      "status": "0x1",
      "cumulativeGasUsed": "0x91a8ce",
      "logs": [
        {
          "address": "0x5eb9cc76c3506942c1c0ead70e877dd5e4f00cb0",
          "topics": [
            "0xddf252ad1be2c89b69c2b068fc378daa952ba7f163c4a11628f55a4df523b3ef",
            "0x000000000000000000000000c77f7fed3b5cc8249adc428c5f44c9063b9734b4",
            "0x0000000000000000000000000000000000000000000000000000000000000000"
          ],
          "data": "0x0000000000000000000000000000000000000000000000359f13c4c8bd498514",
          "blockHash": "0xfe51edcc3af37991b806a313a88b8d9d66de514d0f9305119797af93e0224e04",
          "blockNumber": "0x724ee8",
          "transactionHash": "0xc0f012ead03dbfe5c2c1ebc746f2125495e28decbeec26aee921fcd48d5fa1a1",
          "transactionIndex": "0x52",
          "logIndex": "0x73",
          "removed": false
        },
        {
          "address": "0x5eb9cc76c3506942c1c0ead70e877dd5e4f00cb0",
          "topics": [
            "0x4afcb4a87cdbd9974efdb92ee48bc8d7cd0ae4bf217004db3d080cbaee652ca7"
          ],
          "data": "0x000000000000000000000000000000000000000000000000000000006786a4940000000000000000000000000000000000000000000000000003910bfb6fc0650000000000000000000000000000000000000000000000000dc7db13322ee75d",
          "blockHash": "0xfe51edcc3af37991b806a313a88b8d9d66de514d0f9305119797af93e0224e04",
          "blockNumber": "0x724ee8",
          "transactionHash": "0xc0f012ead03dbfe5c2c1ebc746f2125495e28decbeec26aee921fcd48d5fa1a1",
          "transactionIndex": "0x52",
          "logIndex": "0x74",
          "removed": false
        }
      ],
      "logsBloom": "0x00000000000000000000000000000000000000000000000000000000000000000000000000000000000000000000000000000000000000004000000000000000000000000000000000000008000000000000000000000000000000000000000000000000020000000000000004000800020000000000000000000010000000000000000000000000000000000000000000000000000000000000010000000000000000000000000000000000000000004000000000000000000000000000020000000002000000800000008000000000000000000000080000000000000020000000000000000000000000000000000000000000000000000000000000000000",
      "type": "0x2",
      "transactionHash": "0xc0f012ead03dbfe5c2c1ebc746f2125495e28decbeec26aee921fcd48d5fa1a1",
      "transactionIndex": "0x52",
      "blockHash": "0xfe51edcc3af37991b806a313a88b8d9d66de514d0f9305119797af93e0224e04",
      "blockNumber": "0x724ee8",
      "gasUsed": "0xfb93",
      "effectiveGasPrice": "0x674716551",
      "from": "0xc77f7fed3b5cc8249adc428c5f44c9063b9734b4",
      "to": "0x5eb9cc76c3506942c1c0ead70e877dd5e4f00cb0",
      "contractAddress": null
    }
  ],
  "libraries": [],
  "pending": [],
  "returns": {},
  "timestamp": 1736877205,
  "chain": 11155111,
  "commit": "51a374b"
}