{
  "transactions": [
    {
      "hash": "0xb28d29c1635975bc78e30d9e0347d4f0e6056b7b278852eb5d7919aab9404bd1",
      "transactionType": "CALL",
      "contractName": null,
      "contractAddress": "0x8aafd3ede9adb0ff97c7aebce82a919afb1c8764",
      "function": "sell(uint256)",
      "arguments": [
        "5432644584152672748"
      ],
      "transaction": {
        "from": "0xc77f7fed3b5cc8249adc428c5f44c9063b9734b4",
        "to": "0x8aafd3ede9adb0ff97c7aebce82a919afb1c8764",
        "gas": "0x15dca",
        "value": "0x0",
        "input": "0xe4849b320000000000000000000000000000000000000000000000004b64a177455ea9ec",
        "nonce": "0x120e",
        "chainId": "0xaa36a7"
      },
      "additionalContracts": [],
      "isFixedGasLimit": false
    }
  ],
  "receipts": [
    {
      "status": "0x1",
      "cumulativeGasUsed": "0xc33ca9",
      "logs": [
        {
          "address": "0x8aafd3ede9adb0ff97c7aebce82a919afb1c8764",
          "topics": [
            "0xddf252ad1be2c89b69c2b068fc378daa952ba7f163c4a11628f55a4df523b3ef",
            "0x000000000000000000000000c77f7fed3b5cc8249adc428c5f44c9063b9734b4",
            "0x0000000000000000000000000000000000000000000000000000000000000000"
          ],
          "data": "0x0000000000000000000000000000000000000000000000004aca39c63055b6e7",
          "blockHash": "0xa1ebe378b7a9ae1511f1138e906233abf0541d87c26709017d586dd072d70545",
          "blockNumber": "0x7318e9",
          "transactionHash": "0xb28d29c1635975bc78e30d9e0347d4f0e6056b7b278852eb5d7919aab9404bd1",
          "transactionIndex": "0x6f",
          "logIndex": "0xda",
          "removed": false
        },
        {
          "address": "0x8aafd3ede9adb0ff97c7aebce82a919afb1c8764",
          "topics": [
            "0xddf252ad1be2c89b69c2b068fc378daa952ba7f163c4a11628f55a4df523b3ef",
            "0x000000000000000000000000c77f7fed3b5cc8249adc428c5f44c9063b9734b4",
            "0x000000000000000000000000c77f7fed3b5cc8249adc428c5f44c9063b9734b4"
          ],
          "data": "0x000000000000000000000000000000000000000000000000009a67b11508f305",
          "blockHash": "0xa1ebe378b7a9ae1511f1138e906233abf0541d87c26709017d586dd072d70545",
          "blockNumber": "0x7318e9",
          "transactionHash": "0xb28d29c1635975bc78e30d9e0347d4f0e6056b7b278852eb5d7919aab9404bd1",
          "transactionIndex": "0x6f",
          "logIndex": "0xdb",
          "removed": false
        },
        {
          "address": "0x8aafd3ede9adb0ff97c7aebce82a919afb1c8764",
          "topics": [
            "0x4afcb4a87cdbd9974efdb92ee48bc8d7cd0ae4bf217004db3d080cbaee652ca7"
          ],
          "data": "0x00000000000000000000000000000000000000000000000000000000679027bc000000000000000000000000000000000000000000000000000533628e95d4dd000000000000000000000000000000000000000000000000001c40e57c4fbb99",
          "blockHash": "0xa1ebe378b7a9ae1511f1138e906233abf0541d87c26709017d586dd072d70545",
          "blockNumber": "0x7318e9",
          "transactionHash": "0xb28d29c1635975bc78e30d9e0347d4f0e6056b7b278852eb5d7919aab9404bd1",
          "transactionIndex": "0x6f",
          "logIndex": "0xdc",
          "removed": false
        }
      ],
      "logsBloom": "0x00000000000000000000000000000000000000000600000000000000000000000000000000000000000000000000000000000000000000004000000000000000000000000000004000000008000000000000000000000000000000000000000000000000020000000000000000000800020000000000000000000010000000000000000000000000000000000000000000000000000000000000010000000000000000000000000000000000000000004000000000000000000000000000000000000002000000800000000000000000000000000000080000000000000020000000000000000000000000000000000000000000000000000000000000000000",
      "type": "0x2",
      "transactionHash": "0xb28d29c1635975bc78e30d9e0347d4f0e6056b7b278852eb5d7919aab9404bd1",
      "transactionIndex": "0x6f",
      "blockHash": "0xa1ebe378b7a9ae1511f1138e906233abf0541d87c26709017d586dd072d70545",
      "blockNumber": "0x7318e9",
      "gasUsed": "0xfd3f",
      "effectiveGasPrice": "0x4324bc7a",
      "from": "0xc77f7fed3b5cc8249adc428c5f44c9063b9734b4",
      "to": "0x8aafd3ede9adb0ff97c7aebce82a919afb1c8764",
      "contractAddress": null
    }
  ],
  "libraries": [],
  "pending": [],
  "returns": {},
  "timestamp": 1737500605,
  "chain": 11155111,
  "commit": "1d2fb70"
}