{
  "transactions": [
    {
      "hash": "0x06d6e56a00282392a3fc41b0e5166ff8cee6136f5e71d1b0b2e00d6465775a8d",
      "transactionType": "CALL",
      "contractName": null,
      "contractAddress": "0x8aafd3ede9adb0ff97c7aebce82a919afb1c8764",
      "function": "sell(uint256)",
      "arguments": [
        "2156607432675356524"
      ],
      "transaction": {
        "from": "0xc77f7fed3b5cc8249adc428c5f44c9063b9734b4",
        "to": "0x8aafd3ede9adb0ff97c7aebce82a919afb1c8764",
        "gas": "0x15dca",
        "value": "0x0",
        "input": "0xe4849b320000000000000000000000000000000000000000000000001dedcf08a894ef6c",
        "nonce": "0x13aa",
        "chainId": "0xaa36a7"
      },
      "additionalContracts": [],
      "isFixedGasLimit": false
    }
  ],
  "receipts": [
    {
      "status": "0x1",
      "cumulativeGasUsed": "0xb8688e",
      "logs": [
        {
          "address": "0x8aafd3ede9adb0ff97c7aebce82a919afb1c8764",
          "topics": [
            "0xddf252ad1be2c89b69c2b068fc378daa952ba7f163c4a11628f55a4df523b3ef",
            "0x000000000000000000000000c77f7fed3b5cc8249adc428c5f44c9063b9734b4",
            "0x0000000000000000000000000000000000000000000000000000000000000000"
          ],
          "data": "0x0000000000000000000000000000000000000000000000001db083a649066e88",
          "blockHash": "0xafeefe19b97eefe39ca34a872dfaeea21611d78ed2ea3e41c46aa888154bef64",
          "blockNumber": "0x731ad2",
          "transactionHash": "0x06d6e56a00282392a3fc41b0e5166ff8cee6136f5e71d1b0b2e00d6465775a8d",
          "transactionIndex": "0x40",
          "logIndex": "0x43",
          "removed": false
        },
        {
          "address": "0x8aafd3ede9adb0ff97c7aebce82a919afb1c8764",
          "topics": [
            "0xddf252ad1be2c89b69c2b068fc378daa952ba7f163c4a11628f55a4df523b3ef",
            "0x000000000000000000000000c77f7fed3b5cc8249adc428c5f44c9063b9734b4",
            "0x000000000000000000000000c77f7fed3b5cc8249adc428c5f44c9063b9734b4"
          ],
          "data": "0x000000000000000000000000000000000000000000000000003d4b625f8e80e4",
          "blockHash": "0xafeefe19b97eefe39ca34a872dfaeea21611d78ed2ea3e41c46aa888154bef64",
          "blockNumber": "0x731ad2",
          "transactionHash": "0x06d6e56a00282392a3fc41b0e5166ff8cee6136f5e71d1b0b2e00d6465775a8d",
          "transactionIndex": "0x40",
          "logIndex": "0x44",
          "removed": false
        },
        {
          "address": "0x8aafd3ede9adb0ff97c7aebce82a919afb1c8764",
          "topics": [
            "0x4afcb4a87cdbd9974efdb92ee48bc8d7cd0ae4bf217004db3d080cbaee652ca7"
          ],
          "data": "0x0000000000000000000000000000000000000000000000000000000067903ea8000000000000000000000000000000000000000000000000000d3057de72903d000000000000000000000000000000000000000000000000001c7119d89cc852",
          "blockHash": "0xafeefe19b97eefe39ca34a872dfaeea21611d78ed2ea3e41c46aa888154bef64",
          "blockNumber": "0x731ad2",
          "transactionHash": "0x06d6e56a00282392a3fc41b0e5166ff8cee6136f5e71d1b0b2e00d6465775a8d",
          "transactionIndex": "0x40",
          "logIndex": "0x45",
          "removed": false
        }
      ],
      "logsBloom": "0x00000000000000000000000000000000000000000600000000000000000000000000000000000000000000000000000000000000000000004000000000000000000000000000004000000008000000000000000000000000000000000000000000000000020000000000000000000800020000000000000000000010000000000000000000000000000000000000000000000000000000000000010000000000000000000000000000000000000000004000000000000000000000000000000000000002000000800000000000000000000000000000080000000000000020000000000000000000000000000000000000000000000000000000000000000000",
      "type": "0x2",
      "transactionHash": "0x06d6e56a00282392a3fc41b0e5166ff8cee6136f5e71d1b0b2e00d6465775a8d",
      "transactionIndex": "0x40",
      "blockHash": "0xafeefe19b97eefe39ca34a872dfaeea21611d78ed2ea3e41c46aa888154bef64",
      "blockNumber": "0x731ad2",
      "gasUsed": "0xfd3f",
      "effectiveGasPrice": "0x88d93fd6",
      "from": "0xc77f7fed3b5cc8249adc428c5f44c9063b9734b4",
      "to": "0x8aafd3ede9adb0ff97c7aebce82a919afb1c8764",
      "contractAddress": null
    }
  ],
  "libraries": [],
  "pending": [],
  "returns": {},
  "timestamp": 1737506473,
  "chain": 11155111,
  "commit": "1d2fb70"
}