{
  "transactions": [
    {
      "hash": "0xa0c1cf8510775bbb3421cfbdb36c934bfef3915dfe4747547268a52860e3aa55",
      "transactionType": "CALL",
      "contractName": null,
      "contractAddress": "0x5eb9cc76c3506942c1c0ead70e877dd5e4f00cb0",
      "function": "sell(uint256)",
      "arguments": [
        "989083745304432417893"
      ],
      "transaction": {
        "from": "0xc77f7fed3b5cc8249adc428c5f44c9063b9734b4",
        "to": "0x5eb9cc76c3506942c1c0ead70e877dd5e4f00cb0",
        "gas": "0x16fec",
        "value": "0x0",
        "input": "0xe4849b320000000000000000000000000000000000000000000000359e4b59f6cfa11c65",
        "nonce": "0x467",
        "chainId": "0xaa36a7"
      },
      "additionalContracts": [],
      "isFixedGasLimit": false
    }
  ],
  "receipts": [
    {
      "status": "0x1",
      "cumulativeGasUsed": "0xcf3510",
      "logs": [
        {
          "address": "0x5eb9cc76c3506942c1c0ead70e877dd5e4f00cb0",
          "topics": [
            "0xddf252ad1be2c89b69c2b068fc378daa952ba7f163c4a11628f55a4df523b3ef",
            "0x000000000000000000000000c77f7fed3b5cc8249adc428c5f44c9063b9734b4",
            "0x0000000000000000000000000000000000000000000000000000000000000000"
          ],
          "data": "0x0000000000000000000000000000000000000000000000359e4b59f6cfa11c65",
          "blockHash": "0xc96bc49899e54ba6a6b015c59b21d365247ac7823ddb02eecf344609ef2be986",
          "blockNumber": "0x72508d",
          "transactionHash": "0xa0c1cf8510775bbb3421cfbdb36c934bfef3915dfe4747547268a52860e3aa55",
          "transactionIndex": "0x76",
          "logIndex": "0xd3",
          "removed": false
        },
        {
          "address": "0x5eb9cc76c3506942c1c0ead70e877dd5e4f00cb0",
          "topics": [
            "0x4afcb4a87cdbd9974efdb92ee48bc8d7cd0ae4bf217004db3d080cbaee652ca7"
          ],
          "data": "0x000000000000000000000000000000000000000000000000000000006786b8680000000000000000000000000000000000000000000000000003911950444df40000000000000000000000000000000000000000000000000dc7db1331ca8672",
          "blockHash": "0xc96bc49899e54ba6a6b015c59b21d365247ac7823ddb02eecf344609ef2be986",
          "blockNumber": "0x72508d",
          "transactionHash": "0xa0c1cf8510775bbb3421cfbdb36c934bfef3915dfe4747547268a52860e3aa55",
          "transactionIndex": "0x76",
          "logIndex": "0xd4",
          "removed": false
        }
      ],
      "logsBloom": "0x00000000000000000000000000000000000000000000000000000000000000000000000000000000000000000000000000000000000000004000000000000000000000000000000000000008000000000000000000000000000000000000000000000000020000000000000004000800020000000000000000000010000000000000000000000000000000000000000000000000000000000000010000000000000000000000000000000000000000004000000000000000000000000000020000000002000000800000008000000000000000000000080000000000000020000000000000000000000000000000000000000000000000000000000000000000",
      "type": "0x2",
      "transactionHash": "0xa0c1cf8510775bbb3421cfbdb36c934bfef3915dfe4747547268a52860e3aa55",
      "transactionIndex": "0x76",
      "blockHash": "0xc96bc49899e54ba6a6b015c59b21d365247ac7823ddb02eecf344609ef2be986",
      "blockNumber": "0x72508d",
      "gasUsed": "0xfb93",
      "effectiveGasPrice": "0x1cad19618",
      "from": "0xc77f7fed3b5cc8249adc428c5f44c9063b9734b4",
      "to": "0x5eb9cc76c3506942c1c0ead70e877dd5e4f00cb0",
      "contractAddress": null
    }
  ],
  "libraries": [],
  "pending": [],
  "returns": {},
  "timestamp": 1736882283,
  "chain": 11155111,
  "commit": "51a374b"
}