{
  "transactions": [
    {
      "hash": "0xb1d9ef8bb65fd3a0eb769757f7b5718674c8b4661745af9e3a7cd91abf791110",
      "transactionType": "CALL",
      "contractName": null,
      "contractAddress": "0x270e88f8683660553e8ba4eb2ad7c91a1710d769",
      "function": "buy(address)",
      "arguments": [
        "0xC77f7fed3b5Cc8249aDc428c5F44C9063B9734b4"
      ],
      "transaction": {
        "from": "0xc77f7fed3b5cc8249adc428c5f44c9063b9734b4",
        "to": "0x270e88f8683660553e8ba4eb2ad7c91a1710d769",
        "gas": "0x1b30c",
        "value": "0xde0b6b3a7640000",
        "input": "0xf088d547000000000000000000000000c77f7fed3b5cc8249adc428c5f44c9063b9734b4",
        "nonce": "0x711",
        "chainId": "0xaa36a7"
      },
      "additionalContracts": [],
      "isFixedGasLimit": false
    }
  ],
  "receipts": [
    {
      "status": "0x1",
      "cumulativeGasUsed": "0x7bf97f",
      "logs": [
        {
          "address": "0x270e88f8683660553e8ba4eb2ad7c91a1710d769",
          "topics": [
            "0xddf252ad1be2c89b69c2b068fc378daa952ba7f163c4a11628f55a4df523b3ef",
            "0x0000000000000000000000000000000000000000000000000000000000000000",
            "0x000000000000000000000000c77f7fed3b5cc8249adc428c5f44c9063b9734b4"
          ],
          "data": "0x000000000000000000000000000000000000000000000028316870de58954de9",
          "blockHash": "0xe860aa8eefd1d869f8245b7d8f1e0f1c786bff47659c5b092909a7de398ab8d7",
          "blockNumber": "0x725428",
          "transactionHash": "0xb1d9ef8bb65fd3a0eb769757f7b5718674c8b4661745af9e3a7cd91abf791110",
          "transactionIndex": "0x46",
          "logIndex": "0x63",
          "removed": false
        },
        {
          "address": "0x270e88f8683660553e8ba4eb2ad7c91a1710d769",
          "topics": [
            "0xddf252ad1be2c89b69c2b068fc378daa952ba7f163c4a11628f55a4df523b3ef",
            "0x0000000000000000000000000000000000000000000000000000000000000000",
            "0x000000000000000000000000c77f7fed3b5cc8249adc428c5f44c9063b9734b4"
          ],
          "data": "0x0000000000000000000000000000000000000000000000001f361385d3a62852",
          "blockHash": "0xe860aa8eefd1d869f8245b7d8f1e0f1c786bff47659c5b092909a7de398ab8d7",
          "blockNumber": "0x725428",
          "transactionHash": "0xb1d9ef8bb65fd3a0eb769757f7b5718674c8b4661745af9e3a7cd91abf791110",
          "transactionIndex": "0x46",
          "logIndex": "0x64",
          "removed": false
        },
        {
          "address": "0x270e88f8683660553e8ba4eb2ad7c91a1710d769",
          "topics": [
            "0x4afcb4a87cdbd9974efdb92ee48bc8d7cd0ae4bf217004db3d080cbaee652ca7"
          ],
          "data": "0x000000000000000000000000000000000000000000000000000000006786e3e80000000000000000000000000000000000000000000000000004be83b330f4350000000000000000000000000000000000000000000000000de0b6b3a7640000",
          "blockHash": "0xe860aa8eefd1d869f8245b7d8f1e0f1c786bff47659c5b092909a7de398ab8d7",
          "blockNumber": "0x725428",
          "transactionHash": "0xb1d9ef8bb65fd3a0eb769757f7b5718674c8b4661745af9e3a7cd91abf791110",
          "transactionIndex": "0x46",
          "logIndex": "0x65",
          "removed": false
        }
      ],
      "logsBloom": "0x00000000000000000000000000000000000000000000000000000000000000000000000000000000000000000000000020000000000000004000000000000000000000000000000000000008000000000000000000000000000000000000000000000000020000000000000000000800020000000000000000000010000000000000000000010000000000000000000000000000000000000000010000000000000000000000000000000000000000004000000000000000000000000000000000000002000000800000000000000000000000000000080000008000000020000000000000000000000000000000000000000000000000000000000000000000",
      "type": "0x2",
      "transactionHash": "0xb1d9ef8bb65fd3a0eb769757f7b5718674c8b4661745af9e3a7cd91abf791110",
      "transactionIndex": "0x46",
      "blockHash": "0xe860aa8eefd1d869f8245b7d8f1e0f1c786bff47659c5b092909a7de398ab8d7",
      "blockNumber": "0x725428",
      "gasUsed": "0x13af8",
      "effectiveGasPrice": "0x139880ba6",
      "from": "0xc77f7fed3b5cc8249adc428c5f44c9063b9734b4",
      "to": "0x270e88f8683660553e8ba4eb2ad7c91a1710d769",
      "contractAddress": null
    }
  ],
  "libraries": [],
  "pending": [],
  "returns": {},
  "timestamp": 1736893418,
  "chain": 11155111,
  "commit": "51a374b"
}