{
  "transactions": [
    {
      "hash": "0x2a9bae2e2eb0f3396f80d7d531e1478287d5fed6e220386b8f780bf23e2c0560",
      "transactionType": "CALL",
      "contractName": null,
      "contractAddress": "0x8aafd3ede9adb0ff97c7aebce82a919afb1c8764",
      "function": "sell(uint256)",
      "arguments": [
        "115385159630343"
      ],
      "transaction": {
        "from": "0xc77f7fed3b5cc8249adc428c5f44c9063b9734b4",
        "to": "0x8aafd3ede9adb0ff97c7aebce82a919afb1c8764",
        "gas": "0x15daa",
        "value": "0x0",
        "input": "0xe4849b32000000000000000000000000000000000000000000000000000068f13373be07",
        "nonce": "0x148d",
        "chainId": "0xaa36a7"
      },
      "additionalContracts": [],
      "isFixedGasLimit": false
    }
  ],
  "receipts": [
    {
      "status": "0x1",
      "cumulativeGasUsed": "0x84a067",
      "logs": [
        {
          "address": "0x8aafd3ede9adb0ff97c7aebce82a919afb1c8764",
          "topics": [
            "0xddf252ad1be2c89b69c2b068fc378daa952ba7f163c4a11628f55a4df523b3ef",
            "0x000000000000000000000000c77f7fed3b5cc8249adc428c5f44c9063b9734b4",
            "0x0000000000000000000000000000000000000000000000000000000000000000"
          ],
          "data": "0x0000000000000000000000000000000000000000000000000000681a47853f95",
          "blockHash": "0x23c07c8e560d0b4716dd1dd2c95566a62f57e4a6bb39db8835036260c4c3d108",
          "blockNumber": "0x731bdd",
          "transactionHash": "0x2a9bae2e2eb0f3396f80d7d531e1478287d5fed6e220386b8f780bf23e2c0560",
          "transactionIndex": "0x81",
          "logIndex": "0x82",
          "removed": false
        },
        {
          "address": "0x8aafd3ede9adb0ff97c7aebce82a919afb1c8764",
          "topics": [
            "0xddf252ad1be2c89b69c2b068fc378daa952ba7f163c4a11628f55a4df523b3ef",
            "0x000000000000000000000000c77f7fed3b5cc8249adc428c5f44c9063b9734b4",
            "0x000000000000000000000000c77f7fed3b5cc8249adc428c5f44c9063b9734b4"
          ],
          "data": "0x000000000000000000000000000000000000000000000000000000d6ebee7e72",
          "blockHash": "0x23c07c8e560d0b4716dd1dd2c95566a62f57e4a6bb39db8835036260c4c3d108",
          "blockNumber": "0x731bdd",
          "transactionHash": "0x2a9bae2e2eb0f3396f80d7d531e1478287d5fed6e220386b8f780bf23e2c0560",
          "transactionIndex": "0x81",
          "logIndex": "0x83",
          "removed": false
        },
        {
          "address": "0x8aafd3ede9adb0ff97c7aebce82a919afb1c8764",
          "topics": [
            "0x4afcb4a87cdbd9974efdb92ee48bc8d7cd0ae4bf217004db3d080cbaee652ca7"
          ],
          "data": "0x0000000000000000000000000000000000000000000000000000000067904b38000000000000000000000000000000000000000000000000000fc1e718ef4cb70000000000000000000000000000000000000000000000000000007727e54636",
          "blockHash": "0x23c07c8e560d0b4716dd1dd2c95566a62f57e4a6bb39db8835036260c4c3d108",
          "blockNumber": "0x731bdd",
          "transactionHash": "0x2a9bae2e2eb0f3396f80d7d531e1478287d5fed6e220386b8f780bf23e2c0560",
          "transactionIndex": "0x81",
          "logIndex": "0x84",
          "removed": false
        }
      ],
      "logsBloom": "0x00000000000000000000000000000000000000000600000000000000000000000000000000000000000000000000000000000000000000004000000000000000000000000000004000000008000000000000000000000000000000000000000000000000020000000000000000000800020000000000000000000010000000000000000000000000000000000000000000000000000000000000010000000000000000000000000000000000000000004000000000000000000000000000000000000002000000800000000000000000000000000000080000000000000020000000000000000000000000000000000000000000000000000000000000000000",
      "type": "0x2",
      "transactionHash": "0x2a9bae2e2eb0f3396f80d7d531e1478287d5fed6e220386b8f780bf23e2c0560",
      "transactionIndex": "0x81",
      "blockHash": "0x23c07c8e560d0b4716dd1dd2c95566a62f57e4a6bb39db8835036260c4c3d108",
      "blockNumber": "0x731bdd",
      "gasUsed": "0xfd27",
      "effectiveGasPrice": "0x119750b9d",
      "from": "0xc77f7fed3b5cc8249adc428c5f44c9063b9734b4",
      "to": "0x8aafd3ede9adb0ff97c7aebce82a919afb1c8764",
      "contractAddress": null
    }
  ],
  "libraries": [],
  "pending": [],
  "returns": {},
  "timestamp": 1737509689,
  "chain": 11155111,
  "commit": "1d2fb70"
}