{
  "transactions": [
    {
      "hash": "0x469f88579f224c6c99b0c477888893e81709d0a7f3d499a3b3f40556e911189e",
      "transactionType": "CALL",
      "contractName": null,
      "contractAddress": "0xb12775fcd4cc13f62eabae1ccc402441a1971b84",
      "function": "borrow(uint256,uint256)",
      "arguments": [
        "9999999999999990",
        "0"
      ],
      "transaction": {
        "from": "0xc77f7fed3b5cc8249adc428c5f44c9063b9734b4",
        "to": "0xb12775fcd4cc13f62eabae1ccc402441a1971b84",
        "gas": "0x57f15",
        "value": "0x0",
        "input": "0x0ecbcdab000000000000000000000000000000000000000000000000002386f26fc0fff60000000000000000000000000000000000000000000000000000000000000000",
        "nonce": "0x189d",
        "chainId": "0xaa36a7"
      },
      "additionalContracts": [],
      "isFixedGasLimit": false
    }
  ],
  "receipts": [
    {
      "status": "0x1",
      "cumulativeGasUsed": "0xaba389",
      "logs": [
        {
          "address": "0xb12775fcd4cc13f62eabae1ccc402441a1971b84",
          "topics": [
            "0xddf252ad1be2c89b69c2b068fc378daa952ba7f163c4a11628f55a4df523b3ef",
            "0x000000000000000000000000c77f7fed3b5cc8249adc428c5f44c9063b9734b4",
            "0x000000000000000000000000b12775fcd4cc13f62eabae1ccc402441a1971b84"
          ],
          "data": "0x0000000000000000000000000000000000000000000000008ac7230489e7ffff",
          "blockHash": "0x4a1ac9970a459193456878294f6e21b5c22ffd05b9e132923aaf4b05fbfb3a43",
          "blockNumber": "0x7382a3",
          "transactionHash": "0x469f88579f224c6c99b0c477888893e81709d0a7f3d499a3b3f40556e911189e",
          "transactionIndex": "0x5f",
          "logIndex": "0xb6",
          "removed": false
        },
        {
          "address": "0xb12775fcd4cc13f62eabae1ccc402441a1971b84",
          "topics": [
            "0xddf252ad1be2c89b69c2b068fc378daa952ba7f163c4a11628f55a4df523b3ef",
            "0x000000000000000000000000b12775fcd4cc13f62eabae1ccc402441a1971b84",
            "0x000000000000000000000000c77f7fed3b5cc8249adc428c5f44c9063b9734b4"
          ],
          "data": "0x000000000000000000000000000000000000000000000000000aa87bee537ed6",
          "blockHash": "0x4a1ac9970a459193456878294f6e21b5c22ffd05b9e132923aaf4b05fbfb3a43",
          "blockNumber": "0x7382a3",
          "transactionHash": "0x469f88579f224c6c99b0c477888893e81709d0a7f3d499a3b3f40556e911189e",
          "transactionIndex": "0x5f",
          "logIndex": "0xb7",
          "removed": false
        },
        {
          "address": "0xb12775fcd4cc13f62eabae1ccc402441a1971b84",
          "topics": [
            "0xddf252ad1be2c89b69c2b068fc378daa952ba7f163c4a11628f55a4df523b3ef",
            "0x000000000000000000000000b12775fcd4cc13f62eabae1ccc402441a1971b84",
            "0x0000000000000000000000000000000000000000000000000000000000000000"
          ],
          "data": "0x0000000000000000000000000000000000000000000000000018de76816d7d4b",
          "blockHash": "0x4a1ac9970a459193456878294f6e21b5c22ffd05b9e132923aaf4b05fbfb3a43",
          "blockNumber": "0x7382a3",
          "transactionHash": "0x469f88579f224c6c99b0c477888893e81709d0a7f3d499a3b3f40556e911189e",
          "transactionIndex": "0x5f",
          "logIndex": "0xb8",
          "removed": false
        },
        {
          "address": "0xb12775fcd4cc13f62eabae1ccc402441a1971b84",
          "topics": [
            "0x03bbe564cb1b78e43195eeadbde99e5b89b19345862807fcfb59f884e4165e25"
          ],
          "data": "0x000000000000000000000000c77f7fed3b5cc8249adc428c5f44c9063b9734b4000000000000000000000000000000000000000000000000002322fe594b07f7",
          "blockHash": "0x4a1ac9970a459193456878294f6e21b5c22ffd05b9e132923aaf4b05fbfb3a43",
          "blockNumber": "0x7382a3",
          "transactionHash": "0x469f88579f224c6c99b0c477888893e81709d0a7f3d499a3b3f40556e911189e",
          "transactionIndex": "0x5f",
          "logIndex": "0xb9",
          "removed": false
        },
        {
          "address": "0xb12775fcd4cc13f62eabae1ccc402441a1971b84",
          "topics": [
            "0xaec00f5213a37254bc68a26b0685d1a5b2bf513e1e587c94c7df7f4a62b56c9c"
          ],
          "data": "0x0000000000000000000000000000000000000000000000008aa39c121a2703de000000000000000000000000000000000000000000000000002322fe594b07f7000000000000000000000000000000000000000000000000002322fe594b07f70000000000000000000000000000000000000000000000008aa39c121a2703de",
          "blockHash": "0x4a1ac9970a459193456878294f6e21b5c22ffd05b9e132923aaf4b05fbfb3a43",
          "blockNumber": "0x7382a3",
          "transactionHash": "0x469f88579f224c6c99b0c477888893e81709d0a7f3d499a3b3f40556e911189e",
          "transactionIndex": "0x5f",
          "logIndex": "0xba",
          "removed": false
        },
        {
          "address": "0xb12775fcd4cc13f62eabae1ccc402441a1971b84",
          "topics": [
            "0x4afcb4a87cdbd9974efdb92ee48bc8d7cd0ae4bf217004db3d080cbaee652ca7"
          ],
          "data": "0x000000000000000000000000000000000000000000000000000000006795481800000000000000000000000000000000000000000000000000038e21bd40e347000000000000000000000000000000000000000000000000000009184e729fff",
          "blockHash": "0x4a1ac9970a459193456878294f6e21b5c22ffd05b9e132923aaf4b05fbfb3a43",
          "blockNumber": "0x7382a3",
          "transactionHash": "0x469f88579f224c6c99b0c477888893e81709d0a7f3d499a3b3f40556e911189e",
          "transactionIndex": "0x5f",
          "logIndex": "0xbb",
          "removed": false
        }
      ],
      "logsBloom": "0x00000000000000000000800000000100400000000000000000000000000000000008000000000000000000000000000000002000000000004000000000000000000000000000000000000008000000000000000000000200000000000000000000000000020000000000000000000800020000000000000000000010000000000000000000000000000000000000000000002000000000000000010000000000000000000000000000000400000000004000000000000000000000001000000000000002000000810000000000000000000000200000080000000000000020000000000000000000000000000000000000000000000000000000000100000000",
      "type": "0x2",
      "transactionHash": "0x469f88579f224c6c99b0c477888893e81709d0a7f3d499a3b3f40556e911189e",
      "transactionIndex": "0x5f",
      "blockHash": "0x4a1ac9970a459193456878294f6e21b5c22ffd05b9e132923aaf4b05fbfb3a43",
      "blockNumber": "0x7382a3",
      "gasUsed": "0x3fab4",
      "effectiveGasPrice": "0xa968dfad",
      "from": "0xc77f7fed3b5cc8249adc428c5f44c9063b9734b4",
      "to": "0xb12775fcd4cc13f62eabae1ccc402441a1971b84",
      "contractAddress": null
    }
  ],
  "libraries": [],
  "pending": [],
  "returns": {},
  "timestamp": 1737836570,
  "chain": 11155111,
  "commit": "f5162e9"
}