{
  "transactions": [
    {
      "hash": "0xd8dea429eae085f3c773f0d93ec1b17eb35e6bf2871e83f9e451f2a790051886",
      "transactionType": "CALL",
      "contractName": null,
      "contractAddress": "0x8aafd3ede9adb0ff97c7aebce82a919afb1c8764",
      "function": "sell(uint256)",
      "arguments": [
        "607220213626"
      ],
      "transaction": {
        "from": "0xc77f7fed3b5cc8249adc428c5f44c9063b9734b4",
        "to": "0x8aafd3ede9adb0ff97c7aebce82a919afb1c8764",
        "gas": "0x1722a",
        "value": "0x0",
        "input": "0xe4849b320000000000000000000000000000000000000000000000000000008d6125277a",
        "nonce": "0x174c",
        "chainId": "0xaa36a7"
      },
      "additionalContracts": [],
      "isFixedGasLimit": false
    }
  ],
  "receipts": [
    {
      "status": "0x1",
      "cumulativeGasUsed": "0x8b5537",
      "logs": [
        {
          "address": "0x8aafd3ede9adb0ff97c7aebce82a919afb1c8764",
          "topics": [
            "0xddf252ad1be2c89b69c2b068fc378daa952ba7f163c4a11628f55a4df523b3ef",
            "0x000000000000000000000000c77f7fed3b5cc8249adc428c5f44c9063b9734b4",
            "0x0000000000000000000000000000000000000000000000000000000000000000"
          ],
          "data": "0x0000000000000000000000000000000000000000000000000000008c3f9997cd",
          "blockHash": "0xdd9af51294e873c025a29907368596057d7b12f959b8cec0535717e5476c7bdb",
          "blockNumber": "0x731f1b",
          "transactionHash": "0xd8dea429eae085f3c773f0d93ec1b17eb35e6bf2871e83f9e451f2a790051886",
          "transactionIndex": "0x6f",
          "logIndex": "0xc6",
          "removed": false
        },
        {
          "address": "0x8aafd3ede9adb0ff97c7aebce82a919afb1c8764",
          "topics": [
            "0xddf252ad1be2c89b69c2b068fc378daa952ba7f163c4a11628f55a4df523b3ef",
            "0x000000000000000000000000c77f7fed3b5cc8249adc428c5f44c9063b9734b4",
            "0x000000000000000000000000c77f7fed3b5cc8249adc428c5f44c9063b9734b4"
          ],
          "data": "0x00000000000000000000000000000000000000000000000000000001218b8fad",
          "blockHash": "0xdd9af51294e873c025a29907368596057d7b12f959b8cec0535717e5476c7bdb",
          "blockNumber": "0x731f1b",
          "transactionHash": "0xd8dea429eae085f3c773f0d93ec1b17eb35e6bf2871e83f9e451f2a790051886",
          "transactionIndex": "0x6f",
          "logIndex": "0xc7",
          "removed": false
        },
        {
          "address": "0x8aafd3ede9adb0ff97c7aebce82a919afb1c8764",
          "topics": [
            "0x4afcb4a87cdbd9974efdb92ee48bc8d7cd0ae4bf217004db3d080cbaee652ca7"
          ],
          "data": "0x000000000000000000000000000000000000000000000000000000006790722c0000000000000000000000000000000000000000000000000017e708bda0cc0700000000000000000000000000000000000000000000000000000000f38171b9",
          "blockHash": "0xdd9af51294e873c025a29907368596057d7b12f959b8cec0535717e5476c7bdb",
          "blockNumber": "0x731f1b",
          "transactionHash": "0xd8dea429eae085f3c773f0d93ec1b17eb35e6bf2871e83f9e451f2a790051886",
          "transactionIndex": "0x6f",
          "logIndex": "0xc8",
          "removed": false
        }
      ],
      "logsBloom": "0x00000000000000000000000000000000000000000600000000000000000000000000000000000000000000000000000000000000000000004000000000000000000000000000004000000008000000000000000000000000000000000000000000000000020000000000000000000800020000000000000000000010000000000000000000000000000000000000000000000000000000000000010000000000000000000000000000000000000000004000000000000000000000000000000000000002000000800000000000000000000000000000080000000000000020000000000000000000000000000000000000000000000000000000000000000000",
      "type": "0x2",
      "transactionHash": "0xd8dea429eae085f3c773f0d93ec1b17eb35e6bf2871e83f9e451f2a790051886",
      "transactionIndex": "0x6f",
      "blockHash": "0xdd9af51294e873c025a29907368596057d7b12f959b8cec0535717e5476c7bdb",
      "blockNumber": "0x731f1b",
      "gasUsed": "0xfd1b",
      "effectiveGasPrice": "0x445f1f58",
      "from": "0xc77f7fed3b5cc8249adc428c5f44c9063b9734b4",
      "to": "0x8aafd3ede9adb0ff97c7aebce82a919afb1c8764",
      "contractAddress": null
    }
  ],
  "libraries": [],
  "pending": [],
  "returns": {},
  "timestamp": 1737519662,
  "chain": 11155111,
  "commit": "1d2fb70"
}