{
  "transactions": [
    {
      "hash": "0x036861a3fa09890149ee9c98d29e4cd5baccef40dded0044e1f0ac4967308b5c",
      "transactionType": "CALL",
      "contractName": null,
      "contractAddress": "0xc9b66b529920fd1bee7c4a4aa4dbade7aac2d8ee",
      "function": "borrow(uint256,uint256)",
      "arguments": [
        "9999999999999990",
        "0"
      ],
      "transaction": {
        "from": "0xc77f7fed3b5cc8249adc428c5f44c9063b9734b4",
        "to": "0xc9b66b529920fd1bee7c4a4aa4dbade7aac2d8ee",
        "gas": "0x58931",
        "value": "0x0",
        "input": "0x0ecbcdab000000000000000000000000000000000000000000000000002386f26fc0fff60000000000000000000000000000000000000000000000000000000000000000",
        "nonce": "0x1904",
        "chainId": "0xaa36a7"
      },
      "additionalContracts": [],
      "isFixedGasLimit": false
    }
  ],
  "receipts": [
    {
      "status": "0x1",
      "cumulativeGasUsed": "0xd862fb",
      "logs": [
        {
          "address": "0xc9b66b529920fd1bee7c4a4aa4dbade7aac2d8ee",
          "topics": [
            "0xddf252ad1be2c89b69c2b068fc378daa952ba7f163c4a11628f55a4df523b3ef",
            "0x000000000000000000000000c77f7fed3b5cc8249adc428c5f44c9063b9734b4",
            "0x000000000000000000000000c9b66b529920fd1bee7c4a4aa4dbade7aac2d8ee"
          ],
          "data": "0x0000000000000000000000000000000000000000000000008ac7230489e7ffff",
          "blockHash": "0x09460802c7e2c3ebfb81956100f474ac4a87d534bea61d6ac1e9b45092dbd972",
          "blockNumber": "0x7398bd",
          "transactionHash": "0x036861a3fa09890149ee9c98d29e4cd5baccef40dded0044e1f0ac4967308b5c",
          "transactionIndex": "0xb0",
          "logIndex": "0xe5",
          "removed": false
        },
        {
          "address": "0xc9b66b529920fd1bee7c4a4aa4dbade7aac2d8ee",
          "topics": [
            "0x03bbe564cb1b78e43195eeadbde99e5b89b19345862807fcfb59f884e4165e25"
          ],
          "data": "0x00000000000000000000000038818e389773445cd73adbaa37b8b169f458c6e1000000000000000000000000000000000000000000000000000002bb30ed607a",
          "blockHash": "0x09460802c7e2c3ebfb81956100f474ac4a87d534bea61d6ac1e9b45092dbd972",
          "blockNumber": "0x7398bd",
          "transactionHash": "0x036861a3fa09890149ee9c98d29e4cd5baccef40dded0044e1f0ac4967308b5c",
          "transactionIndex": "0xb0",
          "logIndex": "0xe6",
          "removed": false
        },
        {
          "address": "0xc9b66b529920fd1bee7c4a4aa4dbade7aac2d8ee",
          "topics": [
            "0x03bbe564cb1b78e43195eeadbde99e5b89b19345862807fcfb59f884e4165e25"
          ],
          "data": "0x000000000000000000000000c77f7fed3b5cc8249adc428c5f44c9063b9734b4000000000000000000000000000000000000000000000000002319e60ad867f8",
          "blockHash": "0x09460802c7e2c3ebfb81956100f474ac4a87d534bea61d6ac1e9b45092dbd972",
          "blockNumber": "0x7398bd",
          "transactionHash": "0x036861a3fa09890149ee9c98d29e4cd5baccef40dded0044e1f0ac4967308b5c",
          "transactionIndex": "0xb0",
          "logIndex": "0xe7",
          "removed": false
        },
        {
          "address": "0xc9b66b529920fd1bee7c4a4aa4dbade7aac2d8ee",
          "topics": [
            "0xaec00f5213a37254bc68a26b0685d1a5b2bf513e1e587c94c7df7f4a62b56c9c"
          ],
          "data": "0x0000000000000000000000000000000000000000000000008ac7230489e7ffff000000000000000000000000000000000000000000000000002322fe594b07f7000000000000000000000000000000000000000000000000002322fe594b07f70000000000000000000000000000000000000000000000008ac7230489e7ffff",
          "blockHash": "0x09460802c7e2c3ebfb81956100f474ac4a87d534bea61d6ac1e9b45092dbd972",
          "blockNumber": "0x7398bd",
          "transactionHash": "0x036861a3fa09890149ee9c98d29e4cd5baccef40dded0044e1f0ac4967308b5c",
          "transactionIndex": "0xb0",
          "logIndex": "0xe8",
          "removed": false
        },
        {
          "address": "0xc9b66b529920fd1bee7c4a4aa4dbade7aac2d8ee",
          "topics": [
            "0x4afcb4a87cdbd9974efdb92ee48bc8d7cd0ae4bf217004db3d080cbaee652ca7"
          ],
          "data": "0x0000000000000000000000000000000000000000000000000000000067965d9800000000000000000000000000000000000000000000000000038e218e209ff2000000000000000000000000000000000000000000000000000009184e729fff",
          "blockHash": "0x09460802c7e2c3ebfb81956100f474ac4a87d534bea61d6ac1e9b45092dbd972",
          "blockNumber": "0x7398bd",
          "transactionHash": "0x036861a3fa09890149ee9c98d29e4cd5baccef40dded0044e1f0ac4967308b5c",
          "transactionIndex": "0xb0",
          "logIndex": "0xe9",
          "removed": false
        }
      ],
      "logsBloom": "0x00000000000000000000000000000100400000000000000000000000000000000008000000000000000000000000000000002000000000004000000000000000020000000000000000000008000000000000000000000000000000000000000000000000000000000000000000000000020000000000000440000010000000000000000000200000000000000000000000000000000000000000010000000200000000000000000000000400000000004000000000000000000000001000000000000002000000800000000000000000000000000000080000000000000000000000000000000000000000000000000000000000000000000000000040000000",
      "type": "0x2",
      "transactionHash": "0x036861a3fa09890149ee9c98d29e4cd5baccef40dded0044e1f0ac4967308b5c",
      "transactionIndex": "0xb0",
      "blockHash": "0x09460802c7e2c3ebfb81956100f474ac4a87d534bea61d6ac1e9b45092dbd972",
      "blockNumber": "0x7398bd",
      "gasUsed": "0x40206",
      "effectiveGasPrice": "0x2ef16a2cf",
      "from": "0xc77f7fed3b5cc8249adc428c5f44c9063b9734b4",
      "to": "0xc9b66b529920fd1bee7c4a4aa4dbade7aac2d8ee",
      "contractAddress": null
    }
  ],
  "libraries": [],
  "pending": [],
  "returns": {},
  "timestamp": 1737907611,
  "chain": 11155111,
  "commit": "f5162e9"
}