{
  "transactions": [
    {
      "hash": "0x00d719679866c5bcbaa3c1d1c7f31072c9f8bfe8332a9454f4f91ce1244a2974",
      "transactionType": "CALL",
      "contractName": null,
      "contractAddress": "0x8aafd3ede9adb0ff97c7aebce82a919afb1c8764",
      "function": "sell(uint256)",
      "arguments": [
        "378976322670820"
      ],
      "transaction": {
        "from": "0xc77f7fed3b5cc8249adc428c5f44c9063b9734b4",
        "to": "0x8aafd3ede9adb0ff97c7aebce82a919afb1c8764",
        "gas": "0x1724d",
        "value": "0x0",
        "input": "0xe4849b32000000000000000000000000000000000000000000000000000158ad4d1750e4",
        "nonce": "0xfc4",
        "chainId": "0xaa36a7"
      },
      "additionalContracts": [],
      "isFixedGasLimit": false
    }
  ],
  "receipts": [
    {
      "status": "0x1",
      "cumulativeGasUsed": "0x989d33",
      "logs": [
        {
          "address": "0x8aafd3ede9adb0ff97c7aebce82a919afb1c8764",
          "topics": [
            "0xddf252ad1be2c89b69c2b068fc378daa952ba7f163c4a11628f55a4df523b3ef",
            "0x000000000000000000000000c77f7fed3b5cc8249adc428c5f44c9063b9734b4",
            "0x0000000000000000000000000000000000000000000000000000000000000000"
          ],
          "data": "0x000000000000000000000000000000000000000000000000000155eb67192d6e",
          "blockHash": "0x348f5cbcc0a741e2be0652675776ebea280664181789a759b13efd5f8436e260",
          "blockNumber": "0x731630",
          "transactionHash": "0x00d719679866c5bcbaa3c1d1c7f31072c9f8bfe8332a9454f4f91ce1244a2974",
          "transactionIndex": "0x74",
          "logIndex": "0x91",
          "removed": false
        },
        {
          "address": "0x8aafd3ede9adb0ff97c7aebce82a919afb1c8764",
          "topics": [
            "0xddf252ad1be2c89b69c2b068fc378daa952ba7f163c4a11628f55a4df523b3ef",
            "0x000000000000000000000000c77f7fed3b5cc8249adc428c5f44c9063b9734b4",
            "0x000000000000000000000000c77f7fed3b5cc8249adc428c5f44c9063b9734b4"
          ],
          "data": "0x000000000000000000000000000000000000000000000000000002c1e5fe2376",
          "blockHash": "0x348f5cbcc0a741e2be0652675776ebea280664181789a759b13efd5f8436e260",
          "blockNumber": "0x731630",
          "transactionHash": "0x00d719679866c5bcbaa3c1d1c7f31072c9f8bfe8332a9454f4f91ce1244a2974",
          "transactionIndex": "0x74",
          "logIndex": "0x92",
          "removed": false
        },
        {
          "address": "0x8aafd3ede9adb0ff97c7aebce82a919afb1c8764",
          "topics": [
            "0x4afcb4a87cdbd9974efdb92ee48bc8d7cd0ae4bf217004db3d080cbaee652ca7"
          ],
          "data": "0x00000000000000000000000000000000000000000000000000000000679006ec0000000000000000000000000000000000000000000000000004c47708e004d0000000000000000000000000000000000000000000000000000000766830ea9c",
          "blockHash": "0x348f5cbcc0a741e2be0652675776ebea280664181789a759b13efd5f8436e260",
          "blockNumber": "0x731630",
          "transactionHash": "0x00d719679866c5bcbaa3c1d1c7f31072c9f8bfe8332a9454f4f91ce1244a2974",
          "transactionIndex": "0x74",
          "logIndex": "0x93",
          "removed": false
        }
      ],
      "logsBloom": "0x00000000000000000000000000000000000000000600000000000000000000000000000000000000000000000000000000000000000000004000000000000000000000000000004000000008000000000000000000000000000000000000000000000000020000000000000000000800020000000000000000000010000000000000000000000000000000000000000000000000000000000000010000000000000000000000000000000000000000004000000000000000000000000000000000000002000000800000000000000000000000000000080000000000000020000000000000000000000000000000000000000000000000000000000000000000",
      "type": "0x2",
      "transactionHash": "0x00d719679866c5bcbaa3c1d1c7f31072c9f8bfe8332a9454f4f91ce1244a2974",
      "transactionIndex": "0x74",
      "blockHash": "0x348f5cbcc0a741e2be0652675776ebea280664181789a759b13efd5f8436e260",
      "blockNumber": "0x731630",
      "gasUsed": "0xfd33",
      "effectiveGasPrice": "0x5bca7226",
      "from": "0xc77f7fed3b5cc8249adc428c5f44c9063b9734b4",
      "to": "0x8aafd3ede9adb0ff97c7aebce82a919afb1c8764",
      "contractAddress": null
    }
  ],
  "libraries": [],
  "pending": [],
  "returns": {},
  "timestamp": 1737492206,
  "chain": 11155111,
  "commit": "1d2fb70"
}