{
  "transactions": [
    {
      "hash": "0xd5f2de18f94b73d0358a50cae8fe62475e1ae41968c3b62b3e4268e00329ccb0",
      "transactionType": "CALL",
      "contractName": null,
      "contractAddress": "0x5eb9cc76c3506942c1c0ead70e877dd5e4f00cb0",
      "function": "sell(uint256)",
      "arguments": [
        "989120078006146327114"
      ],
      "transaction": {
        "from": "0xc77f7fed3b5cc8249adc428c5f44c9063b9734b4",
        "to": "0x5eb9cc76c3506942c1c0ead70e877dd5e4f00cb0",
        "gas": "0x16fec",
        "value": "0x0",
        "input": "0xe4849b320000000000000000000000000000000000000000000000359ecc6e5d2304624a",
        "nonce": "0x383",
        "chainId": "0xaa36a7"
      },
      "additionalContracts": [],
      "isFixedGasLimit": false
    }
  ],
  "receipts": [
    {
      "status": "0x1",
      "cumulativeGasUsed": "0xdfe891",
      "logs": [
        {
          "address": "0x5eb9cc76c3506942c1c0ead70e877dd5e4f00cb0",
          "topics": [
            "0xddf252ad1be2c89b69c2b068fc378daa952ba7f163c4a11628f55a4df523b3ef",
            "0x000000000000000000000000c77f7fed3b5cc8249adc428c5f44c9063b9734b4",
            "0x0000000000000000000000000000000000000000000000000000000000000000"
          ],
          "data": "0x0000000000000000000000000000000000000000000000359ecc6e5d2304624a",
          "blockHash": "0xfa766ee09c67b276c194a64d514ce10bbead9bd7ce80218e9d0012dc83498f3d",
          "blockNumber": "0x724f7d",
          "transactionHash": "0xd5f2de18f94b73d0358a50cae8fe62475e1ae41968c3b62b3e4268e00329ccb0",
          "transactionIndex": "0x5c",
          "logIndex": "0x7b",
          "removed": false
        },
        {
          "address": "0x5eb9cc76c3506942c1c0ead70e877dd5e4f00cb0",
          "topics": [
            "0x4afcb4a87cdbd9974efdb92ee48bc8d7cd0ae4bf217004db3d080cbaee652ca7"
          ],
          "data": "0x000000000000000000000000000000000000000000000000000000006786ab9000000000000000000000000000000000000000000000000000039110ba2c38320000000000000000000000000000000000000000000000000dc7db13320b2cab",
          "blockHash": "0xfa766ee09c67b276c194a64d514ce10bbead9bd7ce80218e9d0012dc83498f3d",
          "blockNumber": "0x724f7d",
          "transactionHash": "0xd5f2de18f94b73d0358a50cae8fe62475e1ae41968c3b62b3e4268e00329ccb0",
          "transactionIndex": "0x5c",
          "logIndex": "0x7c",
          "removed": false
        }
      ],
      "logsBloom": "0x00000000000000000000000000000000000000000000000000000000000000000000000000000000000000000000000000000000000000004000000000000000000000000000000000000008000000000000000000000000000000000000000000000000020000000000000004000800020000000000000000000010000000000000000000000000000000000000000000000000000000000000010000000000000000000000000000000000000000004000000000000000000000000000020000000002000000800000008000000000000000000000080000000000000020000000000000000000000000000000000000000000000000000000000000000000",
      "type": "0x2",
      "transactionHash": "0xd5f2de18f94b73d0358a50cae8fe62475e1ae41968c3b62b3e4268e00329ccb0",
      "transactionIndex": "0x5c",
      "blockHash": "0xfa766ee09c67b276c194a64d514ce10bbead9bd7ce80218e9d0012dc83498f3d",
      "blockNumber": "0x724f7d",
      "gasUsed": "0xfb93",
      "effectiveGasPrice": "0x5a5e5d0cc",
      "from": "0xc77f7fed3b5cc8249adc428c5f44c9063b9734b4",
      "to": "0x5eb9cc76c3506942c1c0ead70e877dd5e4f00cb0",
      "contractAddress": null
    }
  ],
  "libraries": [],
  "pending": [],
  "returns": {},
  "timestamp": 1736878992,
  "chain": 11155111,
  "commit": "51a374b"
}