{
  "transactions": [
    {
      "hash": "0xc3d2d1d766d193c2ff696d42d6d87d7be4c456de98c389fed9509212986d5279",
      "transactionType": "CALL",
      "contractName": null,
      "contractAddress": "0xbf4a322f1496e5c3d34a9bcdb4c60567b38c7de2",
      "function": "sell(uint256)",
      "arguments": [
        "988135606217424904132"
      ],
      "transaction": {
        "from": "0xc77f7fed3b5cc8249adc428c5f44c9063b9734b4",
        "to": "0xbf4a322f1496e5c3d34a9bcdb4c60567b38c7de2",
        "gas": "0x16fea",
        "value": "0x0",
        "input": "0xe4849b320000000000000000000000000000000000000000000000359122e27ce8e21fc4",
        "nonce": "0x9bf",
        "chainId": "0xaa36a7"
      },
      "additionalContracts": [],
      "isFixedGasLimit": false
    }
  ],
  "receipts": [
    {
      "status": "0x1",
      "cumulativeGasUsed": "0x10dafd2",
      "logs": [
        {
          "address": "0xbf4a322f1496e5c3d34a9bcdb4c60567b38c7de2",
          "topics": [
            "0xddf252ad1be2c89b69c2b068fc378daa952ba7f163c4a11628f55a4df523b3ef",
            "0x000000000000000000000000c77f7fed3b5cc8249adc428c5f44c9063b9734b4",
            "0x0000000000000000000000000000000000000000000000000000000000000000"
          ],
          "data": "0x0000000000000000000000000000000000000000000000359122e27ce8e21fc4",
          "blockHash": "0xeadda5c57ee7a4f3538d9b37417ebc4b8fa1dfb53d49b0b2f74d8f183ed87c65",
          "blockNumber": "0x72596b",
          "transactionHash": "0xc3d2d1d766d193c2ff696d42d6d87d7be4c456de98c389fed9509212986d5279",
          "transactionIndex": "0x97",
          "logIndex": "0xf1",
          "removed": false
        },
        {
          "address": "0xbf4a322f1496e5c3d34a9bcdb4c60567b38c7de2",
          "topics": [
            "0x4afcb4a87cdbd9974efdb92ee48bc8d7cd0ae4bf217004db3d080cbaee652ca7"
          ],
          "data": "0x0000000000000000000000000000000000000000000000000000000067872330000000000000000000000000000000000000000000000000000391fffe8cd7c40000000000000000000000000000000000000000000000000dc7e3f4fb4cf3c7",
          "blockHash": "0xeadda5c57ee7a4f3538d9b37417ebc4b8fa1dfb53d49b0b2f74d8f183ed87c65",
          "blockNumber": "0x72596b",
          "transactionHash": "0xc3d2d1d766d193c2ff696d42d6d87d7be4c456de98c389fed9509212986d5279",
          "transactionIndex": "0x97",
          "logIndex": "0xf2",
          "removed": false
        }
      ],
      "logsBloom": "0x00000000000000000000000000000000000000000000000000000000000000000000000000000000000000000000000000000000000000004000000000000000000000000000000000000008000000000000001000000000000000000000000000000000020000000000000000000800020000000000000000000010000000000000000000000000000000000000000000000000000008000000010000000000000000000000000000000000000000004000000000000000000000000000000000000002000000800000000000001000000000000000080000000000000020000000000000000000000000000000000000000000000000000000000000000000",
      "type": "0x2",
      "transactionHash": "0xc3d2d1d766d193c2ff696d42d6d87d7be4c456de98c389fed9509212986d5279",
      "transactionIndex": "0x97",
      "blockHash": "0xeadda5c57ee7a4f3538d9b37417ebc4b8fa1dfb53d49b0b2f74d8f183ed87c65",
      "blockNumber": "0x72596b",
      "gasUsed": "0xfb91",
      "effectiveGasPrice": "0x28b3f1bc9",
      "from": "0xc77f7fed3b5cc8249adc428c5f44c9063b9734b4",
      "to": "0xbf4a322f1496e5c3d34a9bcdb4c60567b38c7de2",
      "contractAddress": null
    }
  ],
  "libraries": [],
  "pending": [],
  "returns": {},
  "timestamp": 1736909618,
  "chain": 11155111,
  "commit": "51a374b"
}