{
  "transactions": [
    {
      "hash": "0x726042b40d8010a1cb69466acfefc59ee7c95c5b288b456f05f26ac0005eed89",
      "transactionType": "CALL",
      "contractName": null,
      "contractAddress": "0x8aafd3ede9adb0ff97c7aebce82a919afb1c8764",
      "function": "sell(uint256)",
      "arguments": [
        "6229200342"
      ],
      "transaction": {
        "from": "0xc77f7fed3b5cc8249adc428c5f44c9063b9734b4",
        "to": "0x8aafd3ede9adb0ff97c7aebce82a919afb1c8764",
        "gas": "0x1722a",
        "value": "0x0",
        "input": "0xe4849b3200000000000000000000000000000000000000000000000000000001734a0dd6",
        "nonce": "0x158b",
        "chainId": "0xaa36a7"
      },
      "additionalContracts": [],
      "isFixedGasLimit": false
    }
  ],
  "receipts": [
    {
      "status": "0x1",
      "cumulativeGasUsed": "0xa52ce5",
      "logs": [
        {
          "address": "0x8aafd3ede9adb0ff97c7aebce82a919afb1c8764",
          "topics": [
            "0xddf252ad1be2c89b69c2b068fc378daa952ba7f163c4a11628f55a4df523b3ef",
            "0x000000000000000000000000c77f7fed3b5cc8249adc428c5f44c9063b9734b4",
            "0x0000000000000000000000000000000000000000000000000000000000000000"
          ],
          "data": "0x000000000000000000000000000000000000000000000000000000017051a754",
          "blockHash": "0x35ce6bae38da4f7e2be8cab8b8e504bd6d87beaa01077a54550af7fe5ba9d16e",
          "blockNumber": "0x731cf9",
          "transactionHash": "0x726042b40d8010a1cb69466acfefc59ee7c95c5b288b456f05f26ac0005eed89",
          "transactionIndex": "0x6c",
          "logIndex": "0xa0",
          "removed": false
        },
        {
          "address": "0x8aafd3ede9adb0ff97c7aebce82a919afb1c8764",
          "topics": [
            "0xddf252ad1be2c89b69c2b068fc378daa952ba7f163c4a11628f55a4df523b3ef",
            "0x000000000000000000000000c77f7fed3b5cc8249adc428c5f44c9063b9734b4",
            "0x000000000000000000000000c77f7fed3b5cc8249adc428c5f44c9063b9734b4"
          ],
          "data": "0x0000000000000000000000000000000000000000000000000000000002f86682",
          "blockHash": "0x35ce6bae38da4f7e2be8cab8b8e504bd6d87beaa01077a54550af7fe5ba9d16e",
          "blockNumber": "0x731cf9",
          "transactionHash": "0x726042b40d8010a1cb69466acfefc59ee7c95c5b288b456f05f26ac0005eed89",
          "transactionIndex": "0x6c",
          "logIndex": "0xa1",
          "removed": false
        },
        {
          "address": "0x8aafd3ede9adb0ff97c7aebce82a919afb1c8764",
          "topics": [
            "0x4afcb4a87cdbd9974efdb92ee48bc8d7cd0ae4bf217004db3d080cbaee652ca7"
          ],
          "data": "0x00000000000000000000000000000000000000000000000000000000679058940000000000000000000000000000000000000000000000000012a97bc0d4bf370000000000000000000000000000000000000000000000000000000001f349cd",
          "blockHash": "0x35ce6bae38da4f7e2be8cab8b8e504bd6d87beaa01077a54550af7fe5ba9d16e",
          "blockNumber": "0x731cf9",
          "transactionHash": "0x726042b40d8010a1cb69466acfefc59ee7c95c5b288b456f05f26ac0005eed89",
          "transactionIndex": "0x6c",
          "logIndex": "0xa2",
          "removed": false
        }
      ],
      "logsBloom": "0x00000000000000000000000000000000000000000600000000000000000000000000000000000000000000000000000000000000000000004000000000000000000000000000004000000008000000000000000000000000000000000000000000000000020000000000000000000800020000000000000000000010000000000000000000000000000000000000000000000000000000000000010000000000000000000000000000000000000000004000000000000000000000000000000000000002000000800000000000000000000000000000080000000000000020000000000000000000000000000000000000000000000000000000000000000000",
      "type": "0x2",
      "transactionHash": "0x726042b40d8010a1cb69466acfefc59ee7c95c5b288b456f05f26ac0005eed89",
      "transactionIndex": "0x6c",
      "blockHash": "0x35ce6bae38da4f7e2be8cab8b8e504bd6d87beaa01077a54550af7fe5ba9d16e",
      "blockNumber": "0x731cf9",
      "gasUsed": "0xfd1b",
      "effectiveGasPrice": "0x75de6dd0",
      "from": "0xc77f7fed3b5cc8249adc428c5f44c9063b9734b4",
      "to": "0x8aafd3ede9adb0ff97c7aebce82a919afb1c8764",
      "contractAddress": null
    }
  ],
  "libraries": [],
  "pending": [],
  "returns": {},
  "timestamp": 1737513108,
  "chain": 11155111,
  "commit": "1d2fb70"
}