{
  "transactions": [
    {
      "hash": "0x816d6b047dcec509e9a77386467f41a0c7bf2785a62bfb4c6db72236664c8056",
      "transactionType": "CALL",
      "contractName": null,
      "contractAddress": "0x5eb9cc76c3506942c1c0ead70e877dd5e4f00cb0",
      "function": "sell(uint256)",
      "arguments": [
        "989616116767553518880"
      ],
      "transaction": {
        "from": "0xc77f7fed3b5cc8249adc428c5f44c9063b9734b4",
        "to": "0x5eb9cc76c3506942c1c0ead70e877dd5e4f00cb0",
        "gas": "0x16fec",
        "value": "0x0",
        "input": "0xe4849b32000000000000000000000000000000000000000000000035a5aeb6fd3b847d20",
        "nonce": "0x249",
        "chainId": "0xaa36a7"
      },
      "additionalContracts": [],
      "isFixedGasLimit": false
    }
  ],
  "receipts": [
    {
      "status": "0x1",
      "cumulativeGasUsed": "0xb38a7f",
      "logs": [
        {
          "address": "0x5eb9cc76c3506942c1c0ead70e877dd5e4f00cb0",
          "topics": [
            "0xddf252ad1be2c89b69c2b068fc378daa952ba7f163c4a11628f55a4df523b3ef",
            "0x000000000000000000000000c77f7fed3b5cc8249adc428c5f44c9063b9734b4",
            "0x0000000000000000000000000000000000000000000000000000000000000000"
          ],
          "data": "0x000000000000000000000000000000000000000000000035a5aeb6fd3b847d20",
          "blockHash": "0xd1ae5dee88f537fe3cd54e14e79a5aca362140c2d5db3117f1f011222b8792ec",
          "blockNumber": "0x724e02",
          "transactionHash": "0x816d6b047dcec509e9a77386467f41a0c7bf2785a62bfb4c6db72236664c8056",
          "transactionIndex": "0x53",
          "logIndex": "0xa0",
          "removed": false
        },
        {
          "address": "0x5eb9cc76c3506942c1c0ead70e877dd5e4f00cb0",
          "topics": [
            "0x4afcb4a87cdbd9974efdb92ee48bc8d7cd0ae4bf217004db3d080cbaee652ca7"
          ],
          "data": "0x00000000000000000000000000000000000000000000000000000000678699cc0000000000000000000000000000000000000000000000000003909b8f3971f20000000000000000000000000000000000000000000000000dc7db11837ca9f4",
          "blockHash": "0xd1ae5dee88f537fe3cd54e14e79a5aca362140c2d5db3117f1f011222b8792ec",
          "blockNumber": "0x724e02",
          "transactionHash": "0x816d6b047dcec509e9a77386467f41a0c7bf2785a62bfb4c6db72236664c8056",
          "transactionIndex": "0x53",
          "logIndex": "0xa1",
          "removed": false
        }
      ],
      "logsBloom": "0x00000000000000000000000000000000000000000000000000000000000000000000000000000000000000000000000000000000000000004000000000000000000000000000000000000008000000000000000000000000000000000000000000000000020000000000000004000800020000000000000000000010000000000000000000000000000000000000000000000000000000000000010000000000000000000000000000000000000000004000000000000000000000000000020000000002000000800000008000000000000000000000080000000000000020000000000000000000000000000000000000000000000000000000000000000000",
      "type": "0x2",
      "transactionHash": "0x816d6b047dcec509e9a77386467f41a0c7bf2785a62bfb4c6db72236664c8056",
      "transactionIndex": "0x53",
      "blockHash": "0xd1ae5dee88f537fe3cd54e14e79a5aca362140c2d5db3117f1f011222b8792ec",
      "blockNumber": "0x724e02",
      "gasUsed": "0xfb93",
      "effectiveGasPrice": "0x3afde3d1a",
      "from": "0xc77f7fed3b5cc8249adc428c5f44c9063b9734b4",
      "to": "0x5eb9cc76c3506942c1c0ead70e877dd5e4f00cb0",
      "contractAddress": null
    }
  ],
  "libraries": [],
  "pending": [],
  "returns": {},
  "timestamp": 1736874445,
  "chain": 11155111,
  "commit": "51a374b"
}