{
  "transactions": [
    {
      "hash": "0xffe1e39c79d39edfe330fbfbacf604a2e69cb1f3da39e389f56265fb5e4416d0",
      "transactionType": "CALL",
      "contractName": null,
      "contractAddress": "0xbf4a322f1496e5c3d34a9bcdb4c60567b38c7de2",
      "function": "buy(address)",
      "arguments": [
        "0xC77f7fed3b5Cc8249aDc428c5F44C9063B9734b4"
      ],
      "transaction": {
        "from": "0xc77f7fed3b5cc8249adc428c5f44c9063b9734b4",
        "to": "0xbf4a322f1496e5c3d34a9bcdb4c60567b38c7de2",
        "gas": "0x1b309",
        "value": "0xde0b6b3a7640000",
        "input": "0xf088d547000000000000000000000000c77f7fed3b5cc8249adc428c5f44c9063b9734b4",
        "nonce": "0xc94",
        "chainId": "0xaa36a7"
      },
      "additionalContracts": [],
      "isFixedGasLimit": false
    }
  ],
  "receipts": [
    {
      "status": "0x1",
      "cumulativeGasUsed": "0xb17d55",
      "logs": [
        {
          "address": "0xbf4a322f1496e5c3d34a9bcdb4c60567b38c7de2",
          "topics": [
            "0xddf252ad1be2c89b69c2b068fc378daa952ba7f163c4a11628f55a4df523b3ef",
            "0x0000000000000000000000000000000000000000000000000000000000000000",
            "0x000000000000000000000000c77f7fed3b5cc8249adc428c5f44c9063b9734b4"
          ],
          "data": "0x000000000000000000000000000000000000000000000034dfe95d7c0cd27092",
          "blockHash": "0x1aa9c5fa53cf1199c34ec0219ea1b32e94619b8ee555fac7f8852d0f80a75169",
          "blockNumber": "0x725cdb",
          "transactionHash": "0xffe1e39c79d39edfe330fbfbacf604a2e69cb1f3da39e389f56265fb5e4416d0",
          "transactionIndex": "0x56",
          "logIndex": "0x98",
          "removed": false
        },
        {
          "address": "0xbf4a322f1496e5c3d34a9bcdb4c60567b38c7de2",
          "topics": [
            "0xddf252ad1be2c89b69c2b068fc378daa952ba7f163c4a11628f55a4df523b3ef",
            "0x0000000000000000000000000000000000000000000000000000000000000000",
            "0x000000000000000000000000c77f7fed3b5cc8249adc428c5f44c9063b9734b4"
          ],
          "data": "0x000000000000000000000000000000000000000000000000290f18d868779a75",
          "blockHash": "0x1aa9c5fa53cf1199c34ec0219ea1b32e94619b8ee555fac7f8852d0f80a75169",
          "blockNumber": "0x725cdb",
          "transactionHash": "0xffe1e39c79d39edfe330fbfbacf604a2e69cb1f3da39e389f56265fb5e4416d0",
          "transactionIndex": "0x56",
          "logIndex": "0x99",
          "removed": false
        },
        {
          "address": "0xbf4a322f1496e5c3d34a9bcdb4c60567b38c7de2",
          "topics": [
            "0x4afcb4a87cdbd9974efdb92ee48bc8d7cd0ae4bf217004db3d080cbaee652ca7"
          ],
          "data": "0x0000000000000000000000000000000000000000000000000000000067874cb800000000000000000000000000000000000000000000000000039b2675426a300000000000000000000000000000000000000000000000000de0b6b3a7640000",
          "blockHash": "0x1aa9c5fa53cf1199c34ec0219ea1b32e94619b8ee555fac7f8852d0f80a75169",
          "blockNumber": "0x725cdb",
          "transactionHash": "0xffe1e39c79d39edfe330fbfbacf604a2e69cb1f3da39e389f56265fb5e4416d0",
          "transactionIndex": "0x56",
          "logIndex": "0x9a",
          "removed": false
        }
      ],
      "logsBloom": "0x00000000000000000000000000000000000000000000000000000000000000000000000000000000000000000000000000000000000000004000000000000000000000000000000000000008000000000000001000000000000000000000000000000000020000000000000000000800020000000000000000000010000000000000000000000000000000000000000000000000000008000000010000000000000000000000000000000000000000004000000000000000000000000000000000000002000000800000000000001000000000000000080000000000000020000000000000000000000000000000000000000000000000000000000000000000",
      "type": "0x2",
      "transactionHash": "0xffe1e39c79d39edfe330fbfbacf604a2e69cb1f3da39e389f56265fb5e4416d0",
      "transactionIndex": "0x56",
      "blockHash": "0x1aa9c5fa53cf1199c34ec0219ea1b32e94619b8ee555fac7f8852d0f80a75169",
      "blockNumber": "0x725cdb",
      "gasUsed": "0x13af6",
      "effectiveGasPrice": "0x27693f970",
      "from": "0xc77f7fed3b5cc8249adc428c5f44c9063b9734b4",
      "to": "0xbf4a322f1496e5c3d34a9bcdb4c60567b38c7de2",
      "contractAddress": null
    }
  ],
  "libraries": [],
  "pending": [],
  "returns": {},
  "timestamp": 1736920249,
  "chain": 11155111,
  "commit": "51a374b"
}