{
  "transactions": [
    {
      "hash": "0x833bb920208cf0754311e707d319c0dbe25dc37a391eabf982483a64d55fcb8d",
      "transactionType": "CALL",
      "contractName": null,
      "contractAddress": "0xbf4a322f1496e5c3d34a9bcdb4c60567b38c7de2",
      "function": "buy(address)",
      "arguments": [
        "0xC77f7fed3b5Cc8249aDc428c5F44C9063B9734b4"
      ],
      "transaction": {
        "from": "0xc77f7fed3b5cc8249adc428c5f44c9063b9734b4",
        "to": "0xbf4a322f1496e5c3d34a9bcdb4c60567b38c7de2",
        "gas": "0x1b309",
        "value": "0xde0b6b3a7640000",
        "input": "0xf088d547000000000000000000000000c77f7fed3b5cc8249adc428c5f44c9063b9734b4",
        "nonce": "0xc06",
        "chainId": "0xaa36a7"
      },
      "additionalContracts": [],
      "isFixedGasLimit": false
    }
  ],
  "receipts": [
    {
      "status": "0x1",
      "cumulativeGasUsed": "0x18ff388",
      "logs": [
        {
          "address": "0xbf4a322f1496e5c3d34a9bcdb4c60567b38c7de2",
          "topics": [
            "0xddf252ad1be2c89b69c2b068fc378daa952ba7f163c4a11628f55a4df523b3ef",
            "0x0000000000000000000000000000000000000000000000000000000000000000",
            "0x000000000000000000000000c77f7fed3b5cc8249adc428c5f44c9063b9734b4"
          ],
          "data": "0x000000000000000000000000000000000000000000000034fa406618c1384bc7",
          "blockHash": "0x8ffe83270af174e4516379c3aec00f51b95a20187648e5d2d7ba5c2e4839fc40",
          "blockNumber": "0x725c30",
          "transactionHash": "0x833bb920208cf0754311e707d319c0dbe25dc37a391eabf982483a64d55fcb8d",
          "transactionIndex": "0x84",
          "logIndex": "0xcb",
          "removed": false
        },
        {
          "address": "0xbf4a322f1496e5c3d34a9bcdb4c60567b38c7de2",
          "topics": [
            "0xddf252ad1be2c89b69c2b068fc378daa952ba7f163c4a11628f55a4df523b3ef",
            "0x0000000000000000000000000000000000000000000000000000000000000000",
            "0x000000000000000000000000c77f7fed3b5cc8249adc428c5f44c9063b9734b4"
          ],
          "data": "0x00000000000000000000000000000000000000000000000029238d0a7d0890aa",
          "blockHash": "0x8ffe83270af174e4516379c3aec00f51b95a20187648e5d2d7ba5c2e4839fc40",
          "blockNumber": "0x725c30",
          "transactionHash": "0x833bb920208cf0754311e707d319c0dbe25dc37a391eabf982483a64d55fcb8d",
          "transactionIndex": "0x84",
          "logIndex": "0xcc",
          "removed": false
        },
        {
          "address": "0xbf4a322f1496e5c3d34a9bcdb4c60567b38c7de2",
          "topics": [
            "0x4afcb4a87cdbd9974efdb92ee48bc8d7cd0ae4bf217004db3d080cbaee652ca7"
          ],
          "data": "0x000000000000000000000000000000000000000000000000000000006787449c0000000000000000000000000000000000000000000000000003995b7af429fb0000000000000000000000000000000000000000000000000de0b6b3a7640000",
          "blockHash": "0x8ffe83270af174e4516379c3aec00f51b95a20187648e5d2d7ba5c2e4839fc40",
          "blockNumber": "0x725c30",
          "transactionHash": "0x833bb920208cf0754311e707d319c0dbe25dc37a391eabf982483a64d55fcb8d",
          "transactionIndex": "0x84",
          "logIndex": "0xcd",
          "removed": false
        }
      ],
      "logsBloom": "0x00000000000000000000000000000000000000000000000000000000000000000000000000000000000000000000000000000000000000004000000000000000000000000000000000000008000000000000001000000000000000000000000000000000020000000000000000000800020000000000000000000010000000000000000000000000000000000000000000000000000008000000010000000000000000000000000000000000000000004000000000000000000000000000000000000002000000800000000000001000000000000000080000000000000020000000000000000000000000000000000000000000000000000000000000000000",
      "type": "0x2",
      "transactionHash": "0x833bb920208cf0754311e707d319c0dbe25dc37a391eabf982483a64d55fcb8d",
      "transactionIndex": "0x84",
      "blockHash": "0x8ffe83270af174e4516379c3aec00f51b95a20187648e5d2d7ba5c2e4839fc40",
      "blockNumber": "0x725c30",
      "gasUsed": "0x13af6",
      "effectiveGasPrice": "0xf0c394a9",
      "from": "0xc77f7fed3b5cc8249adc428c5f44c9063b9734b4",
      "to": "0xbf4a322f1496e5c3d34a9bcdb4c60567b38c7de2",
      "contractAddress": null
    }
  ],
  "libraries": [],
  "pending": [],
  "returns": {},
  "timestamp": 1736918175,
  "chain": 11155111,
  "commit": "51a374b"
}