{
  "transactions": [
    {
      "hash": "0xcdd95b7a6ff462fb4d0a6b92c067539b729f45ee1de361d0ef1e6469638a11da",
      "transactionType": "CALL",
      "contractName": null,
      "contractAddress": "0x8aafd3ede9adb0ff97c7aebce82a919afb1c8764",
      "function": "sell(uint256)",
      "arguments": [
        "5153987506"
      ],
      "transaction": {
        "from": "0xc77f7fed3b5cc8249adc428c5f44c9063b9734b4",
        "to": "0x8aafd3ede9adb0ff97c7aebce82a919afb1c8764",
        "gas": "0x1722a",
        "value": "0x0",
        "input": "0xe4849b320000000000000000000000000000000000000000000000000000000133339bb2",
        "nonce": "0x16d8",
        "chainId": "0xaa36a7"
      },
      "additionalContracts": [],
      "isFixedGasLimit": false
    }
  ],
  "receipts": [
    {
      "status": "0x1",
      "cumulativeGasUsed": "0xfd72b9",
      "logs": [
        {
          "address": "0x8aafd3ede9adb0ff97c7aebce82a919afb1c8764",
          "topics": [
            "0xddf252ad1be2c89b69c2b068fc378daa952ba7f163c4a11628f55a4df523b3ef",
            "0x000000000000000000000000c77f7fed3b5cc8249adc428c5f44c9063b9734b4",
            "0x0000000000000000000000000000000000000000000000000000000000000000"
          ],
          "data": "0x0000000000000000000000000000000000000000000000000000000130be7596",
          "blockHash": "0x5da915b5121c21eff64161e388ae57330ebe8b5729f854cae98ac38c4cf1f3f0",
          "blockNumber": "0x731e94",
          "transactionHash": "0xcdd95b7a6ff462fb4d0a6b92c067539b729f45ee1de361d0ef1e6469638a11da",
          "transactionIndex": "0x60",
          "logIndex": "0x85",
          "removed": false
        },
        {
          "address": "0x8aafd3ede9adb0ff97c7aebce82a919afb1c8764",
          "topics": [
            "0xddf252ad1be2c89b69c2b068fc378daa952ba7f163c4a11628f55a4df523b3ef",
            "0x000000000000000000000000c77f7fed3b5cc8249adc428c5f44c9063b9734b4",
            "0x000000000000000000000000c77f7fed3b5cc8249adc428c5f44c9063b9734b4"
          ],
          "data": "0x000000000000000000000000000000000000000000000000000000000275261c",
          "blockHash": "0x5da915b5121c21eff64161e388ae57330ebe8b5729f854cae98ac38c4cf1f3f0",
          "blockNumber": "0x731e94",
          "transactionHash": "0xcdd95b7a6ff462fb4d0a6b92c067539b729f45ee1de361d0ef1e6469638a11da",
          "transactionIndex": "0x60",
          "logIndex": "0x86",
          "removed": false
        },
        {
          "address": "0x8aafd3ede9adb0ff97c7aebce82a919afb1c8764",
          "topics": [
            "0x4afcb4a87cdbd9974efdb92ee48bc8d7cd0ae4bf217004db3d080cbaee652ca7"
          ],
          "data": "0x0000000000000000000000000000000000000000000000000000000067906bd8000000000000000000000000000000000000000000000000001688d30679c64a0000000000000000000000000000000000000000000000000000000001f2d3e4",
          "blockHash": "0x5da915b5121c21eff64161e388ae57330ebe8b5729f854cae98ac38c4cf1f3f0",
          "blockNumber": "0x731e94",
          "transactionHash": "0xcdd95b7a6ff462fb4d0a6b92c067539b729f45ee1de361d0ef1e6469638a11da",
          "transactionIndex": "0x60",
          "logIndex": "0x87",
          "removed": false
        }
      ],
      "logsBloom": "0x00000000000000000000000000000000000000000600000000000000000000000000000000000000000000000000000000000000000000004000000000000000000000000000004000000008000000000000000000000000000000000000000000000000020000000000000000000800020000000000000000000010000000000000000000000000000000000000000000000000000000000000010000000000000000000000000000000000000000004000000000000000000000000000000000000002000000800000000000000000000000000000080000000000000020000000000000000000000000000000000000000000000000000000000000000000",
      "type": "0x2",
      "transactionHash": "0xcdd95b7a6ff462fb4d0a6b92c067539b729f45ee1de361d0ef1e6469638a11da",
      "transactionIndex": "0x60",
      "blockHash": "0x5da915b5121c21eff64161e388ae57330ebe8b5729f854cae98ac38c4cf1f3f0",
      "blockNumber": "0x731e94",
      "gasUsed": "0xfd1b",
      "effectiveGasPrice": "0x47ae4003",
      "from": "0xc77f7fed3b5cc8249adc428c5f44c9063b9734b4",
      "to": "0x8aafd3ede9adb0ff97c7aebce82a919afb1c8764",
      "contractAddress": null
    }
  ],
  "libraries": [],
  "pending": [],
  "returns": {},
  "timestamp": 1737518042,
  "chain": 11155111,
  "commit": "1d2fb70"
}