{
  "transactions": [
    {
      "hash": "0xe518eaaa0e1982bfadd6cee9827659368e15118b268500a994294e03f9e7a99b",
      "transactionType": "CALL",
      "contractName": null,
      "contractAddress": "0x5eb9cc76c3506942c1c0ead70e877dd5e4f00cb0",
      "function": "buy(address)",
      "arguments": [
        "0xC77f7fed3b5Cc8249aDc428c5F44C9063B9734b4"
      ],
      "transaction": {
        "from": "0xc77f7fed3b5cc8249adc428c5f44c9063b9734b4",
        "to": "0x5eb9cc76c3506942c1c0ead70e877dd5e4f00cb0",
        "gas": "0x156c8",
        "value": "0xde0b6b3a7640000",
        "input": "0xf088d547000000000000000000000000c77f7fed3b5cc8249adc428c5f44c9063b9734b4",
        "nonce": "0x171",
        "chainId": "0xaa36a7"
      },
      "additionalContracts": [],
      "isFixedGasLimit": false
    }
  ],
  "receipts": [
    {
      "status": "0x1",
      "cumulativeGasUsed": "0xbca126",
      "logs": [
        {
          "address": "0x5eb9cc76c3506942c1c0ead70e877dd5e4f00cb0",
          "topics": [
            "0xddf252ad1be2c89b69c2b068fc378daa952ba7f163c4a11628f55a4df523b3ef",
            "0x0000000000000000000000000000000000000000000000000000000000000000",
            "0x000000000000000000000000c77f7fed3b5cc8249adc428c5f44c9063b9734b4"
          ],
          "data": "0x000000000000000000000000000000000000000000000035a6d5643c6f672e0a",
          "blockHash": "0x363c09d395a02ab1d7e97815610ce5df229a16b0aacd3d4d43a522e1ff3afb67",
          "blockNumber": "0x723c2e",
          "transactionHash": "0xe518eaaa0e1982bfadd6cee9827659368e15118b268500a994294e03f9e7a99b",
          "transactionIndex": "0x71",
          "logIndex": "0xa0",
          "removed": false
        },
        {
          "address": "0x5eb9cc76c3506942c1c0ead70e877dd5e4f00cb0",
          "topics": [
            "0xddf252ad1be2c89b69c2b068fc378daa952ba7f163c4a11628f55a4df523b3ef",
            "0x0000000000000000000000000000000000000000000000000000000000000000",
            "0x000000000000000000000000c77f7fed3b5cc8249adc428c5f44c9063b9734b4"
          ],
          "data": "0x00000000000000000000000000000000000000000000000029a99116bddbdcca",
          "blockHash": "0x363c09d395a02ab1d7e97815610ce5df229a16b0aacd3d4d43a522e1ff3afb67",
          "blockNumber": "0x723c2e",
          "transactionHash": "0xe518eaaa0e1982bfadd6cee9827659368e15118b268500a994294e03f9e7a99b",
          "transactionIndex": "0x71",
          "logIndex": "0xa1",
          "removed": false
        },
        {
          "address": "0x5eb9cc76c3506942c1c0ead70e877dd5e4f00cb0",
          "topics": [
            "0x4afcb4a87cdbd9974efdb92ee48bc8d7cd0ae4bf217004db3d080cbaee652ca7"
          ],
          "data": "0x000000000000000000000000000000000000000000000000000000006785c37c00000000000000000000000000000000000000000000000000038dc5778f317c0000000000000000000000000000000000000000000000000de0b6b3a7640000",
          "blockHash": "0x363c09d395a02ab1d7e97815610ce5df229a16b0aacd3d4d43a522e1ff3afb67",
          "blockNumber": "0x723c2e",
          "transactionHash": "0xe518eaaa0e1982bfadd6cee9827659368e15118b268500a994294e03f9e7a99b",
          "transactionIndex": "0x71",
          "logIndex": "0xa2",
          "removed": false
        }
      ],
      "logsBloom": "0x00000000000000000000000000000000000000000000000000000000000000000000000000000000000000000000000000000000000000004000000000000000000000000000000000000008000000000000000000000000000000000000000000000000020000000000000004000800020000000000000000000010000000000000000000000000000000000000000000000000000000000000010000000000000000000000000000000000000000004000000000000000000000000000020000000002000000800000008000000000000000000000080000000000000020000000000000000000000000000000000000000000000000000000000000000000",
      "type": "0x2",
      "transactionHash": "0xe518eaaa0e1982bfadd6cee9827659368e15118b268500a994294e03f9e7a99b",
      "transactionIndex": "0x71",
      "blockHash": "0x363c09d395a02ab1d7e97815610ce5df229a16b0aacd3d4d43a522e1ff3afb67",
      "blockNumber": "0x723c2e",
      "gasUsed": "0xf82c",
      "effectiveGasPrice": "0x1fa9e561c",
      "from": "0xc77f7fed3b5cc8249adc428c5f44c9063b9734b4",
      "to": "0x5eb9cc76c3506942c1c0ead70e877dd5e4f00cb0",
      "contractAddress": null
    }
  ],
  "libraries": [],
  "pending": [],
  "returns": {},
  "timestamp": 1736819581,
  "chain": 11155111,
  "commit": "51a374b"
}