{
  "transactions": [
    {
      "hash": "0xc9b73e2cb8797c97f2529fab8897af45c19f4353fec7b8602076ba1ebeacb648",
      "transactionType": "CALL",
      "contractName": null,
      "contractAddress": "0x8aafd3ede9adb0ff97c7aebce82a919afb1c8764",
      "function": "sell(uint256)",
      "arguments": [
        "194296967"
      ],
      "transaction": {
        "from": "0xc77f7fed3b5cc8249adc428c5f44c9063b9734b4",
        "to": "0x8aafd3ede9adb0ff97c7aebce82a919afb1c8764",
        "gas": "0x14e6c",
        "value": "0x0",
        "input": "0xe4849b32000000000000000000000000000000000000000000000000000000000b94bc87",
        "nonce": "0xf95",
        "chainId": "0xaa36a7"
      },
      "additionalContracts": [],
      "isFixedGasLimit": false
    }
  ],
  "receipts": [
    {
      "status": "0x1",
      "cumulativeGasUsed": "0x8e9d15",
      "logs": [
        {
          "address": "0x8aafd3ede9adb0ff97c7aebce82a919afb1c8764",
          "topics": [
            "0xddf252ad1be2c89b69c2b068fc378daa952ba7f163c4a11628f55a4df523b3ef",
            "0x000000000000000000000000c77f7fed3b5cc8249adc428c5f44c9063b9734b4",
            "0x0000000000000000000000000000000000000000000000000000000000000000"
          ],
          "data": "0x000000000000000000000000000000000000000000000000000000000b7d04c0",
          "blockHash": "0x1e2e56b3ba7c6fab48deb0df155e6ee5b666c446a6624c2a0560dbf8d21f9b87",
          "blockNumber": "0x7315fa",
          "transactionHash": "0xc9b73e2cb8797c97f2529fab8897af45c19f4353fec7b8602076ba1ebeacb648",
          "transactionIndex": "0x72",
          "logIndex": "0x8e",
          "removed": false
        },
        {
          "address": "0x8aafd3ede9adb0ff97c7aebce82a919afb1c8764",
          "topics": [
            "0xddf252ad1be2c89b69c2b068fc378daa952ba7f163c4a11628f55a4df523b3ef",
            "0x000000000000000000000000c77f7fed3b5cc8249adc428c5f44c9063b9734b4",
            "0x000000000000000000000000c77f7fed3b5cc8249adc428c5f44c9063b9734b4"
          ],
          "data": "0x000000000000000000000000000000000000000000000000000000000017b7c7",
          "blockHash": "0x1e2e56b3ba7c6fab48deb0df155e6ee5b666c446a6624c2a0560dbf8d21f9b87",
          "blockNumber": "0x7315fa",
          "transactionHash": "0xc9b73e2cb8797c97f2529fab8897af45c19f4353fec7b8602076ba1ebeacb648",
          "transactionIndex": "0x72",
          "logIndex": "0x8f",
          "removed": false
        },
        {
          "address": "0x8aafd3ede9adb0ff97c7aebce82a919afb1c8764",
          "topics": [
            "0x4afcb4a87cdbd9974efdb92ee48bc8d7cd0ae4bf217004db3d080cbaee652ca7"
          ],
          "data": "0x00000000000000000000000000000000000000000000000000000000679004640000000000000000000000000000000000000000000000000004c2d34cf59c23000000000000000000000000000000000000000000000000000000000003f91b",
          "blockHash": "0x1e2e56b3ba7c6fab48deb0df155e6ee5b666c446a6624c2a0560dbf8d21f9b87",
          "blockNumber": "0x7315fa",
          "transactionHash": "0xc9b73e2cb8797c97f2529fab8897af45c19f4353fec7b8602076ba1ebeacb648",
          "transactionIndex": "0x72",
          "logIndex": "0x90",
          "removed": false
        }
      ],
      "logsBloom": "0x00000000000000000000000000000000000000000600000000000000000000000000000000000000000000000000000000000000000000004000000000000000000000000000004000000008000000000000000000000000000000000000000000000000020000000000000000000800020000000000000000000010000000000000000000000000000000000000000000000000000000000000010000000000000000000000000000000000000000004000000000000000000000000000000000000002000000800000000000000000000000000000080000000000000020000000000000000000000000000000000000000000000000000000000000000000",
      "type": "0x2",
      "transactionHash": "0xc9b73e2cb8797c97f2529fab8897af45c19f4353fec7b8602076ba1ebeacb648",
      "transactionIndex": "0x72",
      "blockHash": "0x1e2e56b3ba7c6fab48deb0df155e6ee5b666c446a6624c2a0560dbf8d21f9b87",
      "blockNumber": "0x7315fa",
      "gasUsed": "0xf21f",
      "effectiveGasPrice": "0x7bf9dac8",
      "from": "0xc77f7fed3b5cc8249adc428c5f44c9063b9734b4",
      "to": "0x8aafd3ede9adb0ff97c7aebce82a919afb1c8764",
      "contractAddress": null
    }
  ],
  "libraries": [],
  "pending": [],
  "returns": {},
  "timestamp": 1737491557,
  "chain": 11155111,
  "commit": "1d2fb70"
}