{
  "transactions": [
    {
      "hash": "0x4b30c2aa63f802946a00c036df6f2fc2d0ef8eb0af481fb3184e63f183fca127",
      "transactionType": "CALL",
      "contractName": null,
      "contractAddress": "0x270e88f8683660553e8ba4eb2ad7c91a1710d769",
      "function": "buy(address)",
      "arguments": [
        "0xC77f7fed3b5Cc8249aDc428c5F44C9063B9734b4"
      ],
      "transaction": {
        "from": "0xc77f7fed3b5cc8249adc428c5f44c9063b9734b4",
        "to": "0x270e88f8683660553e8ba4eb2ad7c91a1710d769",
        "gas": "0x1b30c",
        "value": "0xde0b6b3a7640000",
        "input": "0xf088d547000000000000000000000000c77f7fed3b5cc8249adc428c5f44c9063b9734b4",
        "nonce": "0x544",
        "chainId": "0xaa36a7"
      },
      "additionalContracts": [],
      "isFixedGasLimit": false
    }
  ],
  "receipts": [
    {
      "status": "0x1",
      "cumulativeGasUsed": "0xc264d7",
      "logs": [
        {
          "address": "0x270e88f8683660553e8ba4eb2ad7c91a1710d769",
          "topics": [
            "0xddf252ad1be2c89b69c2b068fc378daa952ba7f163c4a11628f55a4df523b3ef",
            "0x0000000000000000000000000000000000000000000000000000000000000000",
            "0x000000000000000000000000c77f7fed3b5cc8249adc428c5f44c9063b9734b4"
          ],
          "data": "0x000000000000000000000000000000000000000000000034b7e695044645d633",
          "blockHash": "0x5d2fd97939b80fe9e8568efa72fcf9a6dd101d901429e2ef207b6a8df0d3fc1e",
          "blockNumber": "0x7251e1",
          "transactionHash": "0x4b30c2aa63f802946a00c036df6f2fc2d0ef8eb0af481fb3184e63f183fca127",
          "transactionIndex": "0x45",
          "logIndex": "0x9a",
          "removed": false
        },
        {
          "address": "0x270e88f8683660553e8ba4eb2ad7c91a1710d769",
          "topics": [
            "0xddf252ad1be2c89b69c2b068fc378daa952ba7f163c4a11628f55a4df523b3ef",
            "0x0000000000000000000000000000000000000000000000000000000000000000",
            "0x000000000000000000000000c77f7fed3b5cc8249adc428c5f44c9063b9734b4"
          ],
          "data": "0x00000000000000000000000000000000000000000000000028f006f99353da32",
          "blockHash": "0x5d2fd97939b80fe9e8568efa72fcf9a6dd101d901429e2ef207b6a8df0d3fc1e",
          "blockNumber": "0x7251e1",
          "transactionHash": "0x4b30c2aa63f802946a00c036df6f2fc2d0ef8eb0af481fb3184e63f183fca127",
          "transactionIndex": "0x45",
          "logIndex": "0x9b",
          "removed": false
        },
        {
          "address": "0x270e88f8683660553e8ba4eb2ad7c91a1710d769",
          "topics": [
            "0x4afcb4a87cdbd9974efdb92ee48bc8d7cd0ae4bf217004db3d080cbaee652ca7"
          ],
          "data": "0x000000000000000000000000000000000000000000000000000000006786c87c00000000000000000000000000000000000000000000000000039dfb7852c5860000000000000000000000000000000000000000000000000de0b6b3a7640000",
          "blockHash": "0x5d2fd97939b80fe9e8568efa72fcf9a6dd101d901429e2ef207b6a8df0d3fc1e",
          "blockNumber": "0x7251e1",
          "transactionHash": "0x4b30c2aa63f802946a00c036df6f2fc2d0ef8eb0af481fb3184e63f183fca127",
          "transactionIndex": "0x45",
          "logIndex": "0x9c",
          "removed": false
        }
      ],
      "logsBloom": "0x00000000000000000000000000000000000000000000000000000000000000000000000000000000000000000000000020000000000000004000000000000000000000000000000000000008000000000000000000000000000000000000000000000000020000000000000000000800020000000000000000000010000000000000000000010000000000000000000000000000000000000000010000000000000000000000000000000000000000004000000000000000000000000000000000000002000000800000000000000000000000000000080000008000000020000000000000000000000000000000000000000000000000000000000000000000",
      "type": "0x2",
      "transactionHash": "0x4b30c2aa63f802946a00c036df6f2fc2d0ef8eb0af481fb3184e63f183fca127",
      "transactionIndex": "0x45",
      "blockHash": "0x5d2fd97939b80fe9e8568efa72fcf9a6dd101d901429e2ef207b6a8df0d3fc1e",
      "blockNumber": "0x7251e1",
      "gasUsed": "0x13af8",
      "effectiveGasPrice": "0x407ec6319",
      "from": "0xc77f7fed3b5cc8249adc428c5f44c9063b9734b4",
      "to": "0x270e88f8683660553e8ba4eb2ad7c91a1710d769",
      "contractAddress": null
    }
  ],
  "libraries": [],
  "pending": [],
  "returns": {},
  "timestamp": 1736886398,
  "chain": 11155111,
  "commit": "51a374b"
}