{
  "transactions": [
    {
      "hash": "0x1e32569ea54aaf3be6d8442faa20fd12c4367dfa86a7e7cc1c706b53ffe61594",
      "transactionType": "CALL",
      "contractName": null,
      "contractAddress": "0x8aafd3ede9adb0ff97c7aebce82a919afb1c8764",
      "function": "sell(uint256)",
      "arguments": [
        "163406191293113261679"
      ],
      "transaction": {
        "from": "0xc77f7fed3b5cc8249adc428c5f44c9063b9734b4",
        "to": "0x8aafd3ede9adb0ff97c7aebce82a919afb1c8764",
        "gas": "0x17270",
        "value": "0x0",
        "input": "0xe4849b32000000000000000000000000000000000000000000000008dbb76937cd8b5e6f",
        "nonce": "0x168b",
        "chainId": "0xaa36a7"
      },
      "additionalContracts": [],
      "isFixedGasLimit": false
    }
  ],
  "receipts": [
    {
      "status": "0x1",
      "cumulativeGasUsed": "0xb7d726",
      "logs": [
        {
          "address": "0x8aafd3ede9adb0ff97c7aebce82a919afb1c8764",
          "topics": [
            "0xddf252ad1be2c89b69c2b068fc378daa952ba7f163c4a11628f55a4df523b3ef",
            "0x000000000000000000000000c77f7fed3b5cc8249adc428c5f44c9063b9734b4",
            "0x0000000000000000000000000000000000000000000000000000000000000000"
          ],
          "data": "0x000000000000000000000000000000000000000000000008c99320b23c8a4102",
          "blockHash": "0x9ba96aec14b3ca356b2a973b027b6e46244d64f1fe9b8f558ad0891a06e54c32",
          "blockNumber": "0x731e40",
          "transactionHash": "0x1e32569ea54aaf3be6d8442faa20fd12c4367dfa86a7e7cc1c706b53ffe61594",
          "transactionIndex": "0x65",
          "logIndex": "0x77",
          "removed": false
        },
        {
          "address": "0x8aafd3ede9adb0ff97c7aebce82a919afb1c8764",
          "topics": [
            "0xddf252ad1be2c89b69c2b068fc378daa952ba7f163c4a11628f55a4df523b3ef",
            "0x000000000000000000000000c77f7fed3b5cc8249adc428c5f44c9063b9734b4",
            "0x000000000000000000000000c77f7fed3b5cc8249adc428c5f44c9063b9734b4"
          ],
          "data": "0x0000000000000000000000000000000000000000000000001224488591011d6d",
          "blockHash": "0x9ba96aec14b3ca356b2a973b027b6e46244d64f1fe9b8f558ad0891a06e54c32",
          "blockNumber": "0x731e40",
          "transactionHash": "0x1e32569ea54aaf3be6d8442faa20fd12c4367dfa86a7e7cc1c706b53ffe61594",
          "transactionIndex": "0x65",
          "logIndex": "0x78",
          "removed": false
        },
        {
          "address": "0x8aafd3ede9adb0ff97c7aebce82a919afb1c8764",
          "topics": [
            "0x4afcb4a87cdbd9974efdb92ee48bc8d7cd0ae4bf217004db3d080cbaee652ca7"
          ],
          "data": "0x00000000000000000000000000000000000000000000000000000000679067e80000000000000000000000000000000000000000000000000015b19a788fa8130000000000000000000000000000000000000000000000000dcc3326d11288c2",
          "blockHash": "0x9ba96aec14b3ca356b2a973b027b6e46244d64f1fe9b8f558ad0891a06e54c32",
          "blockNumber": "0x731e40",
          "transactionHash": "0x1e32569ea54aaf3be6d8442faa20fd12c4367dfa86a7e7cc1c706b53ffe61594",
          "transactionIndex": "0x65",
          "logIndex": "0x79",
          "removed": false
        }
      ],
      "logsBloom": "0x00000000000000000000000000000000000000000600000000000000000000000000000000000000000000000000000000000000000000004000000000000000000000000000004000000008000000000000000000000000000000000000000000000000020000000000000000000800020000000000000000000010000000000000000000000000000000000000000000000000000000000000010000000000000000000000000000000000000000004000000000000000000000000000000000000002000000800000000000000000000000000000080000000000000020000000000000000000000000000000000000000000000000000000000000000000",
      "type": "0x2",
      "transactionHash": "0x1e32569ea54aaf3be6d8442faa20fd12c4367dfa86a7e7cc1c706b53ffe61594",
      "transactionIndex": "0x65",
      "blockHash": "0x9ba96aec14b3ca356b2a973b027b6e46244d64f1fe9b8f558ad0891a06e54c32",
      "blockNumber": "0x731e40",
      "gasUsed": "0xfd4b",
      "effectiveGasPrice": "0x4828ed56",
      "from": "0xc77f7fed3b5cc8249adc428c5f44c9063b9734b4",
      "to": "0x8aafd3ede9adb0ff97c7aebce82a919afb1c8764",
      "contractAddress": null
    }
  ],
  "libraries": [],
  "pending": [],
  "returns": {},
  "timestamp": 1737517032,
  "chain": 11155111,
  "commit": "1d2fb70"
}