{
  "transactions": [
    {
      "hash": "0xb79edc397b234d5eaa806ac99f0dbd410841d1dde1e7880929313f175126cf83",
      "transactionType": "CALL",
      "contractName": null,
      "contractAddress": "0x270e88f8683660553e8ba4eb2ad7c91a1710d769",
      "function": "buy(address)",
      "arguments": [
        "0xC77f7fed3b5Cc8249aDc428c5F44C9063B9734b4"
      ],
      "transaction": {
        "from": "0xc77f7fed3b5cc8249adc428c5f44c9063b9734b4",
        "to": "0x270e88f8683660553e8ba4eb2ad7c91a1710d769",
        "gas": "0x1b30c",
        "value": "0xde0b6b3a7640000",
        "input": "0xf088d547000000000000000000000000c77f7fed3b5cc8249adc428c5f44c9063b9734b4",
        "nonce": "0x530",
        "chainId": "0xaa36a7"
      },
      "additionalContracts": [],
      "isFixedGasLimit": false
    }
  ],
  "receipts": [
    {
      "status": "0x1",
      "cumulativeGasUsed": "0x8a922f",
      "logs": [
        {
          "address": "0x270e88f8683660553e8ba4eb2ad7c91a1710d769",
          "topics": [
            "0xddf252ad1be2c89b69c2b068fc378daa952ba7f163c4a11628f55a4df523b3ef",
            "0x0000000000000000000000000000000000000000000000000000000000000000",
            "0x000000000000000000000000c77f7fed3b5cc8249adc428c5f44c9063b9734b4"
          ],
          "data": "0x000000000000000000000000000000000000000000000034e2ad48b8f0309a56",
          "blockHash": "0x8cdd1e6691a3abb119365698ec983bf06eb17f989a81328fb1eb8613592d52b0",
          "blockNumber": "0x7251ca",
          "transactionHash": "0xb79edc397b234d5eaa806ac99f0dbd410841d1dde1e7880929313f175126cf83",
          "transactionIndex": "0x4c",
          "logIndex": "0x80",
          "removed": false
        },
        {
          "address": "0x270e88f8683660553e8ba4eb2ad7c91a1710d769",
          "topics": [
            "0xddf252ad1be2c89b69c2b068fc378daa952ba7f163c4a11628f55a4df523b3ef",
            "0x0000000000000000000000000000000000000000000000000000000000000000",
            "0x000000000000000000000000c77f7fed3b5cc8249adc428c5f44c9063b9734b4"
          ],
          "data": "0x00000000000000000000000000000000000000000000000029113e918a36c4d2",
          "blockHash": "0x8cdd1e6691a3abb119365698ec983bf06eb17f989a81328fb1eb8613592d52b0",
          "blockNumber": "0x7251ca",
          "transactionHash": "0xb79edc397b234d5eaa806ac99f0dbd410841d1dde1e7880929313f175126cf83",
          "transactionIndex": "0x4c",
          "logIndex": "0x81",
          "removed": false
        },
        {
          "address": "0x270e88f8683660553e8ba4eb2ad7c91a1710d769",
          "topics": [
            "0x4afcb4a87cdbd9974efdb92ee48bc8d7cd0ae4bf217004db3d080cbaee652ca7"
          ],
          "data": "0x000000000000000000000000000000000000000000000000000000006786c75c00000000000000000000000000000000000000000000000000039b0e93801bf00000000000000000000000000000000000000000000000000de0b6b3a7640000",
          "blockHash": "0x8cdd1e6691a3abb119365698ec983bf06eb17f989a81328fb1eb8613592d52b0",
          "blockNumber": "0x7251ca",
          "transactionHash": "0xb79edc397b234d5eaa806ac99f0dbd410841d1dde1e7880929313f175126cf83",
          "transactionIndex": "0x4c",
          "logIndex": "0x82",
          "removed": false
        }
      ],
      "logsBloom": "0x00000000000000000000000000000000000000000000000000000000000000000000000000000000000000000000000020000000000000004000000000000000000000000000000000000008000000000000000000000000000000000000000000000000020000000000000000000800020000000000000000000010000000000000000000010000000000000000000000000000000000000000010000000000000000000000000000000000000000004000000000000000000000000000000000000002000000800000000000000000000000000000080000008000000020000000000000000000000000000000000000000000000000000000000000000000",
      "type": "0x2",
      "transactionHash": "0xb79edc397b234d5eaa806ac99f0dbd410841d1dde1e7880929313f175126cf83",
      "transactionIndex": "0x4c",
      "blockHash": "0x8cdd1e6691a3abb119365698ec983bf06eb17f989a81328fb1eb8613592d52b0",
      "blockNumber": "0x7251ca",
      "gasUsed": "0x13af8",
      "effectiveGasPrice": "0x45836086b",
      "from": "0xc77f7fed3b5cc8249adc428c5f44c9063b9734b4",
      "to": "0x270e88f8683660553e8ba4eb2ad7c91a1710d769",
      "contractAddress": null
    }
  ],
  "libraries": [],
  "pending": [],
  "returns": {},
  "timestamp": 1736886110,
  "chain": 11155111,
  "commit": "51a374b"
}