{
  "transactions": [
    {
      "hash": "0x67bcdbaae160f728a69f224361b14ebef8b75cca64aaaac6181df51ce42f7609",
      "transactionType": "CALL",
      "contractName": null,
      "contractAddress": "0x270e88f8683660553e8ba4eb2ad7c91a1710d769",
      "function": "buy(address)",
      "arguments": [
        "0xC77f7fed3b5Cc8249aDc428c5F44C9063B9734b4"
      ],
      "transaction": {
        "from": "0xc77f7fed3b5cc8249adc428c5f44c9063b9734b4",
        "to": "0x270e88f8683660553e8ba4eb2ad7c91a1710d769",
        "gas": "0x1b30c",
        "value": "0xde0b6b3a7640000",
        "input": "0xf088d547000000000000000000000000c77f7fed3b5cc8249adc428c5f44c9063b9734b4",
        "nonce": "0x58c",
        "chainId": "0xaa36a7"
      },
      "additionalContracts": [],
      "isFixedGasLimit": false
    }
  ],
  "receipts": [
    {
      "status": "0x1",
      "cumulativeGasUsed": "0x9c143a",
      "logs": [
        {
          "address": "0x270e88f8683660553e8ba4eb2ad7c91a1710d769",
          "topics": [
            "0xddf252ad1be2c89b69c2b068fc378daa952ba7f163c4a11628f55a4df523b3ef",
            "0x0000000000000000000000000000000000000000000000000000000000000000",
            "0x000000000000000000000000c77f7fed3b5cc8249adc428c5f44c9063b9734b4"
          ],
          "data": "0x000000000000000000000000000000000000000000000034201d02b1ecac67ea",
          "blockHash": "0xaab5c094946bfe3087046379beaf675642a90442efea9012b021bc532d85d2e3",
          "blockNumber": "0x72523f",
          "transactionHash": "0x67bcdbaae160f728a69f224361b14ebef8b75cca64aaaac6181df51ce42f7609",
          "transactionIndex": "0x44",
          "logIndex": "0xd2",
          "removed": false
        },
        {
          "address": "0x270e88f8683660553e8ba4eb2ad7c91a1710d769",
          "topics": [
            "0xddf252ad1be2c89b69c2b068fc378daa952ba7f163c4a11628f55a4df523b3ef",
            "0x0000000000000000000000000000000000000000000000000000000000000000",
            "0x000000000000000000000000c77f7fed3b5cc8249adc428c5f44c9063b9734b4"
          ],
          "data": "0x000000000000000000000000000000000000000000000000287a28bec26e9eb6",
          "blockHash": "0xaab5c094946bfe3087046379beaf675642a90442efea9012b021bc532d85d2e3",
          "blockNumber": "0x72523f",
          "transactionHash": "0x67bcdbaae160f728a69f224361b14ebef8b75cca64aaaac6181df51ce42f7609",
          "transactionIndex": "0x44",
          "logIndex": "0xd3",
          "removed": false
        },
        {
          "address": "0x270e88f8683660553e8ba4eb2ad7c91a1710d769",
          "topics": [
            "0x4afcb4a87cdbd9974efdb92ee48bc8d7cd0ae4bf217004db3d080cbaee652ca7"
          ],
          "data": "0x000000000000000000000000000000000000000000000000000000006786cce40000000000000000000000000000000000000000000000000003a88398fe3d0d0000000000000000000000000000000000000000000000000de0b6b3a7640000",
          "blockHash": "0xaab5c094946bfe3087046379beaf675642a90442efea9012b021bc532d85d2e3",
          "blockNumber": "0x72523f",
          "transactionHash": "0x67bcdbaae160f728a69f224361b14ebef8b75cca64aaaac6181df51ce42f7609",
          "transactionIndex": "0x44",
          "logIndex": "0xd4",
          "removed": false
        }
      ],
      "logsBloom": "0x00000000000000000000000000000000000000000000000000000000000000000000000000000000000000000000000020000000000000004000000000000000000000000000000000000008000000000000000000000000000000000000000000000000020000000000000000000800020000000000000000000010000000000000000000010000000000000000000000000000000000000000010000000000000000000000000000000000000000004000000000000000000000000000000000000002000000800000000000000000000000000000080000008000000020000000000000000000000000000000000000000000000000000000000000000000",
      "type": "0x2",
      "transactionHash": "0x67bcdbaae160f728a69f224361b14ebef8b75cca64aaaac6181df51ce42f7609",
      "transactionIndex": "0x44",
      "blockHash": "0xaab5c094946bfe3087046379beaf675642a90442efea9012b021bc532d85d2e3",
      "blockNumber": "0x72523f",
      "gasUsed": "0x13af8",
      "effectiveGasPrice": "0x4305533b4",
      "from": "0xc77f7fed3b5cc8249adc428c5f44c9063b9734b4",
      "to": "0x270e88f8683660553e8ba4eb2ad7c91a1710d769",
      "contractAddress": null
    }
  ],
  "libraries": [],
  "pending": [],
  "returns": {},
  "timestamp": 1736887526,
  "chain": 11155111,
  "commit": "51a374b"
}