{
  "transactions": [
    {
      "hash": "0x07dbe2851a0a5bc93582182412edf1ea8e7556a6ecb75ef58b1758c81a975038",
      "transactionType": "CALL",
      "contractName": null,
      "contractAddress": "0x270e88f8683660553e8ba4eb2ad7c91a1710d769",
      "function": "sell(uint256)",
      "arguments": [
        "737452948995345500578"
      ],
      "transaction": {
        "from": "0xc77f7fed3b5cc8249adc428c5f44c9063b9734b4",
        "to": "0x270e88f8683660553e8ba4eb2ad7c91a1710d769",
        "gas": "0x16fec",
        "value": "0x0",
        "input": "0xe4849b32000000000000000000000000000000000000000000000027fa372deb07d449a2",
        "nonce": "0x758",
        "chainId": "0xaa36a7"
      },
      "additionalContracts": [],
      "isFixedGasLimit": false
    }
  ],
  "receipts": [
    {
      "status": "0x1",
      "cumulativeGasUsed": "0x913cbf",
      "logs": [
        {
          "address": "0x270e88f8683660553e8ba4eb2ad7c91a1710d769",
          "topics": [
            "0xddf252ad1be2c89b69c2b068fc378daa952ba7f163c4a11628f55a4df523b3ef",
            "0x000000000000000000000000c77f7fed3b5cc8249adc428c5f44c9063b9734b4",
            "0x0000000000000000000000000000000000000000000000000000000000000000"
          ],
          "data": "0x000000000000000000000000000000000000000000000027fa372deb07d449a2",
          "blockHash": "0x98330da0cb83eb7fdafe2d2b5d59f95bd695a8327b85dd0b5c7f815266fb4138",
          "blockNumber": "0x72547f",
          "transactionHash": "0x07dbe2851a0a5bc93582182412edf1ea8e7556a6ecb75ef58b1758c81a975038",
          "transactionIndex": "0x3c",
          "logIndex": "0x66",
          "removed": false
        },
        {
          "address": "0x270e88f8683660553e8ba4eb2ad7c91a1710d769",
          "topics": [
            "0x4afcb4a87cdbd9974efdb92ee48bc8d7cd0ae4bf217004db3d080cbaee652ca7"
          ],
          "data": "0x000000000000000000000000000000000000000000000000000000006786e7fc0000000000000000000000000000000000000000000000000004c8f497b730900000000000000000000000000000000000000000000000000dc8283c7d224c87",
          "blockHash": "0x98330da0cb83eb7fdafe2d2b5d59f95bd695a8327b85dd0b5c7f815266fb4138",
          "blockNumber": "0x72547f",
          "transactionHash": "0x07dbe2851a0a5bc93582182412edf1ea8e7556a6ecb75ef58b1758c81a975038",
          "transactionIndex": "0x3c",
          "logIndex": "0x67",
          "removed": false
        }
      ],
      "logsBloom": "0x00000000000000000000000000000000000000000000000000000000000000000000000000000000000000000000000020000000000000004000000000000000000000000000000000000008000000000000000000000000000000000000000000000000020000000000000000000800020000000000000000000010000000000000000000010000000000000000000000000000000000000000010000000000000000000000000000000000000000004000000000000000000000000000000000000002000000800000000000000000000000000000080000008000000020000000000000000000000000000000000000000000000000000000000000000000",
      "type": "0x2",
      "transactionHash": "0x07dbe2851a0a5bc93582182412edf1ea8e7556a6ecb75ef58b1758c81a975038",
      "transactionIndex": "0x3c",
      "blockHash": "0x98330da0cb83eb7fdafe2d2b5d59f95bd695a8327b85dd0b5c7f815266fb4138",
      "blockNumber": "0x72547f",
      "gasUsed": "0xfb93",
      "effectiveGasPrice": "0x142b876f9",
      "from": "0xc77f7fed3b5cc8249adc428c5f44c9063b9734b4",
      "to": "0x270e88f8683660553e8ba4eb2ad7c91a1710d769",
      "contractAddress": null
    }
  ],
  "libraries": [],
  "pending": [],
  "returns": {},
  "timestamp": 1736894462,
  "chain": 11155111,
  "commit": "51a374b"
}