{
  "transactions": [
    {
      "hash": "0xca25fb0e1c22622c29ebd4d769b491ffdcc6c89a9997cfcfe8969b60a77fb72f",
      "transactionType": "CALL",
      "contractName": null,
      "contractAddress": "0xbf4a322f1496e5c3d34a9bcdb4c60567b38c7de2",
      "function": "sell(uint256)",
      "arguments": [
        "973106572548890693201"
      ],
      "transaction": {
        "from": "0xc77f7fed3b5cc8249adc428c5f44c9063b9734b4",
        "to": "0xbf4a322f1496e5c3d34a9bcdb4c60567b38c7de2",
        "gas": "0x16fea",
        "value": "0x0",
        "input": "0xe4849b32000000000000000000000000000000000000000000000034c09107fe5e840e51",
        "nonce": "0xe1d",
        "chainId": "0xaa36a7"
      },
      "additionalContracts": [],
      "isFixedGasLimit": false
    }
  ],
  "receipts": [
    {
      "status": "0x1",
      "cumulativeGasUsed": "0x14f66d2",
      "logs": [
        {
          "address": "0xbf4a322f1496e5c3d34a9bcdb4c60567b38c7de2",
          "topics": [
            "0xddf252ad1be2c89b69c2b068fc378daa952ba7f163c4a11628f55a4df523b3ef",
            "0x000000000000000000000000c77f7fed3b5cc8249adc428c5f44c9063b9734b4",
            "0x0000000000000000000000000000000000000000000000000000000000000000"
          ],
          "data": "0x000000000000000000000000000000000000000000000034c09107fe5e840e51",
          "blockHash": "0xea512b61d161c0f0073ff56e432dbeefe0c26853dc34b9f7406c8bba32e14043",
          "blockNumber": "0x726707",
          "transactionHash": "0xca25fb0e1c22622c29ebd4d769b491ffdcc6c89a9997cfcfe8969b60a77fb72f",
          "transactionIndex": "0x8c",
          "logIndex": "0x153",
          "removed": false
        },
        {
          "address": "0xbf4a322f1496e5c3d34a9bcdb4c60567b38c7de2",
          "topics": [
            "0x4afcb4a87cdbd9974efdb92ee48bc8d7cd0ae4bf217004db3d080cbaee652ca7"
          ],
          "data": "0x000000000000000000000000000000000000000000000000000000006787c7c40000000000000000000000000000000000000000000000000003a01da23aa4410000000000000000000000000000000000000000000000000dc7e3d209e9d47f",
          "blockHash": "0xea512b61d161c0f0073ff56e432dbeefe0c26853dc34b9f7406c8bba32e14043",
          "blockNumber": "0x726707",
          "transactionHash": "0xca25fb0e1c22622c29ebd4d769b491ffdcc6c89a9997cfcfe8969b60a77fb72f",
          "transactionIndex": "0x8c",
          "logIndex": "0x154",
          "removed": false
        }
      ],
      "logsBloom": "0x00000000000000000000000000000000000000000000000000000000000000000000000000000000000000000000000000000000000000004000000000000000000000000000000000000008000000000000001000000000000000000000000000000000020000000000000000000800020000000000000000000010000000000000000000000000000000000000000000000000000008000000010000000000000000000000000000000000000000004000000000000000000000000000000000000002000000800000000000001000000000000000080000000000000020000000000000000000000000000000000000000000000000000000000000000000",
      "type": "0x2",
      "transactionHash": "0xca25fb0e1c22622c29ebd4d769b491ffdcc6c89a9997cfcfe8969b60a77fb72f",
      "transactionIndex": "0x8c",
      "blockHash": "0xea512b61d161c0f0073ff56e432dbeefe0c26853dc34b9f7406c8bba32e14043",
      "blockNumber": "0x726707",
      "gasUsed": "0xfb91",
      "effectiveGasPrice": "0x3aa8fe8ec",
      "from": "0xc77f7fed3b5cc8249adc428c5f44c9063b9734b4",
      "to": "0xbf4a322f1496e5c3d34a9bcdb4c60567b38c7de2",
      "contractAddress": null
    }
  ],
  "libraries": [],
  "pending": [],
  "returns": {},
  "timestamp": 1736951748,
  "chain": 11155111,
  "commit": "51a374b"
}