{
  "transactions": [
    {
      "hash": "0x129f0d823b112f488dd9057f82c9f7b6bed41da4f5f7e8133e532d152435e2a5",
      "transactionType": "CALL",
      "contractName": null,
      "contractAddress": "0xbf4a322f1496e5c3d34a9bcdb4c60567b38c7de2",
      "function": "sell(uint256)",
      "arguments": [
        "988436005149931498743"
      ],
      "transaction": {
        "from": "0xc77f7fed3b5cc8249adc428c5f44c9063b9734b4",
        "to": "0xbf4a322f1496e5c3d34a9bcdb4c60567b38c7de2",
        "gas": "0x16fea",
        "value": "0x0",
        "input": "0xe4849b32000000000000000000000000000000000000000000000035954e1db9b7d86cf7",
        "nonce": "0x9a9",
        "chainId": "0xaa36a7"
      },
      "additionalContracts": [],
      "isFixedGasLimit": false
    }
  ],
  "receipts": [
    {
      "status": "0x1",
      "cumulativeGasUsed": "0x16edb44",
      "logs": [
        {
          "address": "0xbf4a322f1496e5c3d34a9bcdb4c60567b38c7de2",
          "topics": [
            "0xddf252ad1be2c89b69c2b068fc378daa952ba7f163c4a11628f55a4df523b3ef",
            "0x000000000000000000000000c77f7fed3b5cc8249adc428c5f44c9063b9734b4",
            "0x0000000000000000000000000000000000000000000000000000000000000000"
          ],
          "data": "0x000000000000000000000000000000000000000000000035954e1db9b7d86cf7",
          "blockHash": "0x9b8d40897a900382e8d09c39d60e16f9487d08b2c169f41e858c4cf6a9de60b4",
          "blockNumber": "0x725952",
          "transactionHash": "0x129f0d823b112f488dd9057f82c9f7b6bed41da4f5f7e8133e532d152435e2a5",
          "transactionIndex": "0x94",
          "logIndex": "0x12f",
          "removed": false
        },
        {
          "address": "0xbf4a322f1496e5c3d34a9bcdb4c60567b38c7de2",
          "topics": [
            "0x4afcb4a87cdbd9974efdb92ee48bc8d7cd0ae4bf217004db3d080cbaee652ca7"
          ],
          "data": "0x0000000000000000000000000000000000000000000000000000000067872204000000000000000000000000000000000000000000000000000391b8e2abb2b20000000000000000000000000000000000000000000000000dc7e3f5ae18a3b7",
          "blockHash": "0x9b8d40897a900382e8d09c39d60e16f9487d08b2c169f41e858c4cf6a9de60b4",
          "blockNumber": "0x725952",
          "transactionHash": "0x129f0d823b112f488dd9057f82c9f7b6bed41da4f5f7e8133e532d152435e2a5",
          "transactionIndex": "0x94",
          "logIndex": "0x130",
          "removed": false
        }
      ],
      "logsBloom": "0x00000000000000000000000000000000000000000000000000000000000000000000000000000000000000000000000000000000000000004000000000000000000000000000000000000008000000000000001000000000000000000000000000000000020000000000000000000800020000000000000000000010000000000000000000000000000000000000000000000000000008000000010000000000000000000000000000000000000000004000000000000000000000000000000000000002000000800000000000001000000000000000080000000000000020000000000000000000000000000000000000000000000000000000000000000000",
      "type": "0x2",
      "transactionHash": "0x129f0d823b112f488dd9057f82c9f7b6bed41da4f5f7e8133e532d152435e2a5",
      "transactionIndex": "0x94",
      "blockHash": "0x9b8d40897a900382e8d09c39d60e16f9487d08b2c169f41e858c4cf6a9de60b4",
      "blockNumber": "0x725952",
      "gasUsed": "0xfb91",
      "effectiveGasPrice": "0x1b1edd61f",
      "from": "0xc77f7fed3b5cc8249adc428c5f44c9063b9734b4",
      "to": "0xbf4a322f1496e5c3d34a9bcdb4c60567b38c7de2",
      "contractAddress": null
    }
  ],
  "libraries": [],
  "pending": [],
  "returns": {},
  "timestamp": 1736909317,
  "chain": 11155111,
  "commit": "51a374b"
}