{
  "transactions": [
    {
      "hash": "0x2e2cd4ffeac8bd87f00eefac748337cc9a082062f227f1a6b0228423ea1f3dc7",
      "transactionType": "CALL",
      "contractName": null,
      "contractAddress": "0x8aafd3ede9adb0ff97c7aebce82a919afb1c8764",
      "function": "sell(uint256)",
      "arguments": [
        "40660279"
      ],
      "transaction": {
        "from": "0xc77f7fed3b5cc8249adc428c5f44c9063b9734b4",
        "to": "0x8aafd3ede9adb0ff97c7aebce82a919afb1c8764",
        "gas": "0x15d88",
        "value": "0x0",
        "input": "0xe4849b3200000000000000000000000000000000000000000000000000000000026c6d37",
        "nonce": "0x16f4",
        "chainId": "0xaa36a7"
      },
      "additionalContracts": [],
      "isFixedGasLimit": false
    }
  ],
  "receipts": [
    {
      "status": "0x1",
      "cumulativeGasUsed": "0x7f1361",
      "logs": [
        {
          "address": "0x8aafd3ede9adb0ff97c7aebce82a919afb1c8764",
          "topics": [
            "0xddf252ad1be2c89b69c2b068fc378daa952ba7f163c4a11628f55a4df523b3ef",
            "0x000000000000000000000000c77f7fed3b5cc8249adc428c5f44c9063b9734b4",
            "0x0000000000000000000000000000000000000000000000000000000000000000"
          ],
          "data": "0x0000000000000000000000000000000000000000000000000000000002677695",
          "blockHash": "0xabb2d34255941425ba6e7758a7cb442180a986b6926b00e07fe545bd25b595df",
          "blockNumber": "0x731eb6",
          "transactionHash": "0x2e2cd4ffeac8bd87f00eefac748337cc9a082062f227f1a6b0228423ea1f3dc7",
          "transactionIndex": "0x4c",
          "logIndex": "0x55",
          "removed": false
        },
        {
          "address": "0x8aafd3ede9adb0ff97c7aebce82a919afb1c8764",
          "topics": [
            "0xddf252ad1be2c89b69c2b068fc378daa952ba7f163c4a11628f55a4df523b3ef",
            "0x000000000000000000000000c77f7fed3b5cc8249adc428c5f44c9063b9734b4",
            "0x000000000000000000000000c77f7fed3b5cc8249adc428c5f44c9063b9734b4"
          ],
          "data": "0x000000000000000000000000000000000000000000000000000000000004f6a2",
          "blockHash": "0xabb2d34255941425ba6e7758a7cb442180a986b6926b00e07fe545bd25b595df",
          "blockNumber": "0x731eb6",
          "transactionHash": "0x2e2cd4ffeac8bd87f00eefac748337cc9a082062f227f1a6b0228423ea1f3dc7",
          "transactionIndex": "0x4c",
          "logIndex": "0x56",
          "removed": false
        },
        {
          "address": "0x8aafd3ede9adb0ff97c7aebce82a919afb1c8764",
          "topics": [
            "0x4afcb4a87cdbd9974efdb92ee48bc8d7cd0ae4bf217004db3d080cbaee652ca7"
          ],
          "data": "0x0000000000000000000000000000000000000000000000000000000067906d700000000000000000000000000000000000000000000000000016d990290ac7a2000000000000000000000000000000000000000000000000000000000003fd89",
          "blockHash": "0xabb2d34255941425ba6e7758a7cb442180a986b6926b00e07fe545bd25b595df",
          "blockNumber": "0x731eb6",
          "transactionHash": "0x2e2cd4ffeac8bd87f00eefac748337cc9a082062f227f1a6b0228423ea1f3dc7",
          "transactionIndex": "0x4c",
          "logIndex": "0x57",
          "removed": false
        }
      ],
      "logsBloom": "0x00000000000000000000000000000000000000000600000000000000000000000000000000000000000000000000000000000000000000004000000000000000000000000000004000000008000000000000000000000000000000000000000000000000020000000000000000000800020000000000000000000010000000000000000000000000000000000000000000000000000000000000010000000000000000000000000000000000000000004000000000000000000000000000000000000002000000800000000000000000000000000000080000000000000020000000000000000000000000000000000000000000000000000000000000000000",
      "type": "0x2",
      "transactionHash": "0x2e2cd4ffeac8bd87f00eefac748337cc9a082062f227f1a6b0228423ea1f3dc7",
      "transactionIndex": "0x4c",
      "blockHash": "0xabb2d34255941425ba6e7758a7cb442180a986b6926b00e07fe545bd25b595df",
      "blockNumber": "0x731eb6",
      "gasUsed": "0xfd0f",
      "effectiveGasPrice": "0x4819f899",
      "from": "0xc77f7fed3b5cc8249adc428c5f44c9063b9734b4",
      "to": "0x8aafd3ede9adb0ff97c7aebce82a919afb1c8764",
      "contractAddress": null
    }
  ],
  "libraries": [],
  "pending": [],
  "returns": {},
  "timestamp": 1737518449,
  "chain": 11155111,
  "commit": "1d2fb70"
}