{
  "transactions": [
    {
      "hash": "0xd5d05aec15b1e5848981a1f91de51ebd25657475c3a1341ef578e3bbaa0573ec",
      "transactionType": "CALL",
      "contractName": null,
      "contractAddress": "0xbf4a322f1496e5c3d34a9bcdb4c60567b38c7de2",
      "function": "sell(uint256)",
      "arguments": [
        "982462510943299592954"
      ],
      "transaction": {
        "from": "0xc77f7fed3b5cc8249adc428c5f44c9063b9734b4",
        "to": "0xbf4a322f1496e5c3d34a9bcdb4c60567b38c7de2",
        "gas": "0x15b68",
        "value": "0x0",
        "input": "0xe4849b3200000000000000000000000000000000000000000000003542680064b9b262fa",
        "nonce": "0xb61",
        "chainId": "0xaa36a7"
      },
      "additionalContracts": [],
      "isFixedGasLimit": false
    }
  ],
  "receipts": [
    {
      "status": "0x1",
      "cumulativeGasUsed": "0x157486d",
      "logs": [
        {
          "address": "0xbf4a322f1496e5c3d34a9bcdb4c60567b38c7de2",
          "topics": [
            "0xddf252ad1be2c89b69c2b068fc378daa952ba7f163c4a11628f55a4df523b3ef",
            "0x000000000000000000000000c77f7fed3b5cc8249adc428c5f44c9063b9734b4",
            "0x0000000000000000000000000000000000000000000000000000000000000000"
          ],
          "data": "0x00000000000000000000000000000000000000000000003542680064b9b262fa",
          "blockHash": "0x0ccde42867cf41a01572fa92b7abd266cc9eb28b667ab0f910d62c77c6268831",
          "blockNumber": "0x725b6b",
          "transactionHash": "0xd5d05aec15b1e5848981a1f91de51ebd25657475c3a1341ef578e3bbaa0573ec",
          "transactionIndex": "0x82",
          "logIndex": "0xf0",
          "removed": false
        },
        {
          "address": "0xbf4a322f1496e5c3d34a9bcdb4c60567b38c7de2",
          "topics": [
            "0x4afcb4a87cdbd9974efdb92ee48bc8d7cd0ae4bf217004db3d080cbaee652ca7"
          ],
          "data": "0x0000000000000000000000000000000000000000000000000000000067873b600000000000000000000000000000000000000000000000000003974710c942400000000000000000000000000000000000000000000000000dc7e3e7caade601",
          "blockHash": "0x0ccde42867cf41a01572fa92b7abd266cc9eb28b667ab0f910d62c77c6268831",
          "blockNumber": "0x725b6b",
          "transactionHash": "0xd5d05aec15b1e5848981a1f91de51ebd25657475c3a1341ef578e3bbaa0573ec",
          "transactionIndex": "0x82",
          "logIndex": "0xf1",
          "removed": false
        }
      ],
      "logsBloom": "0x00000000000000000000000000000000000000000000000000000000000000000000000000000000000000000000000000000000000000004000000000000000000000000000000000000008000000000000001000000000000000000000000000000000020000000000000000000800020000000000000000000010000000000000000000000000000000000000000000000000000008000000010000000000000000000000000000000000000000004000000000000000000000000000000000000002000000800000000000001000000000000000080000000000000020000000000000000000000000000000000000000000000000000000000000000000",
      "type": "0x2",
      "transactionHash": "0xd5d05aec15b1e5848981a1f91de51ebd25657475c3a1341ef578e3bbaa0573ec",
      "transactionIndex": "0x82",
      "blockHash": "0x0ccde42867cf41a01572fa92b7abd266cc9eb28b667ab0f910d62c77c6268831",
      "blockNumber": "0x725b6b",
      "gasUsed": "0xfb85",
      "effectiveGasPrice": "0x3becd980",
      "from": "0xc77f7fed3b5cc8249adc428c5f44c9063b9734b4",
      "to": "0xbf4a322f1496e5c3d34a9bcdb4c60567b38c7de2",
      "contractAddress": null
    }
  ],
  "libraries": [],
  "pending": [],
  "returns": {},
  "timestamp": 1736915811,
  "chain": 11155111,
  "commit": "51a374b"
}