{
  "transactions": [
    {
      "hash": "0xa94d400ecade3c1dcbacc38b84bd6771589adaff63c215ff2bcb057a790065cb",
      "transactionType": "CALL",
      "contractName": null,
      "contractAddress": "0xbf4a322f1496e5c3d34a9bcdb4c60567b38c7de2",
      "function": "sell(uint256)",
      "arguments": [
        "977468218040383432638"
      ],
      "transaction": {
        "from": "0xc77f7fed3b5cc8249adc428c5f44c9063b9734b4",
        "to": "0xbf4a322f1496e5c3d34a9bcdb4c60567b38c7de2",
        "gas": "0x16fea",
        "value": "0x0",
        "input": "0xe4849b32000000000000000000000000000000000000000000000034fd18b5758b1fe7be",
        "nonce": "0xcd5",
        "chainId": "0xaa36a7"
      },
      "additionalContracts": [],
      "isFixedGasLimit": false
    }
  ],
  "receipts": [
    {
      "status": "0x1",
      "cumulativeGasUsed": "0x1343463",
      "logs": [
        {
          "address": "0xbf4a322f1496e5c3d34a9bcdb4c60567b38c7de2",
          "topics": [
            "0xddf252ad1be2c89b69c2b068fc378daa952ba7f163c4a11628f55a4df523b3ef",
            "0x000000000000000000000000c77f7fed3b5cc8249adc428c5f44c9063b9734b4",
            "0x0000000000000000000000000000000000000000000000000000000000000000"
          ],
          "data": "0x000000000000000000000000000000000000000000000034fd18b5758b1fe7be",
          "blockHash": "0x2bc41e1bd338ef909d961a4b79fe204ec216baf532fdd2338e95d9c729160a9d",
          "blockNumber": "0x725d26",
          "transactionHash": "0xa94d400ecade3c1dcbacc38b84bd6771589adaff63c215ff2bcb057a790065cb",
          "transactionIndex": "0x8d",
          "logIndex": "0xa4",
          "removed": false
        },
        {
          "address": "0xbf4a322f1496e5c3d34a9bcdb4c60567b38c7de2",
          "topics": [
            "0x4afcb4a87cdbd9974efdb92ee48bc8d7cd0ae4bf217004db3d080cbaee652ca7"
          ],
          "data": "0x000000000000000000000000000000000000000000000000000000006787503c00000000000000000000000000000000000000000000000000039bf975243a250000000000000000000000000000000000000000000000000dc7e3dc2e090584",
          "blockHash": "0x2bc41e1bd338ef909d961a4b79fe204ec216baf532fdd2338e95d9c729160a9d",
          "blockNumber": "0x725d26",
          "transactionHash": "0xa94d400ecade3c1dcbacc38b84bd6771589adaff63c215ff2bcb057a790065cb",
          "transactionIndex": "0x8d",
          "logIndex": "0xa5",
          "removed": false
        }
      ],
      "logsBloom": "0x00000000000000000000000000000000000000000000000000000000000000000000000000000000000000000000000000000000000000004000000000000000000000000000000000000008000000000000001000000000000000000000000000000000020000000000000000000800020000000000000000000010000000000000000000000000000000000000000000000000000008000000010000000000000000000000000000000000000000004000000000000000000000000000000000000002000000800000000000001000000000000000080000000000000020000000000000000000000000000000000000000000000000000000000000000000",
      "type": "0x2",
      "transactionHash": "0xa94d400ecade3c1dcbacc38b84bd6771589adaff63c215ff2bcb057a790065cb",
      "transactionIndex": "0x8d",
      "blockHash": "0x2bc41e1bd338ef909d961a4b79fe204ec216baf532fdd2338e95d9c729160a9d",
      "blockNumber": "0x725d26",
      "gasUsed": "0xfb91",
      "effectiveGasPrice": "0x5ab198cd6",
      "from": "0xc77f7fed3b5cc8249adc428c5f44c9063b9734b4",
      "to": "0xbf4a322f1496e5c3d34a9bcdb4c60567b38c7de2",
      "contractAddress": null
    }
  ],
  "libraries": [],
  "pending": [],
  "returns": {},
  "timestamp": 1736921149,
  "chain": 11155111,
  "commit": "51a374b"
}