{
  "transactions": [
    {
      "hash": "0xb76be6f0bff814db25ecc24fcedb5fefa51190c947c2c0cb299da3682367aac6",
      "transactionType": "CALL",
      "contractName": null,
      "contractAddress": "0x8aafd3ede9adb0ff97c7aebce82a919afb1c8764",
      "function": "sell(uint256)",
      "arguments": [
        "2319139715568741844"
      ],
      "transaction": {
        "from": "0xc77f7fed3b5cc8249adc428c5f44c9063b9734b4",
        "to": "0x8aafd3ede9adb0ff97c7aebce82a919afb1c8764",
        "gas": "0x15dca",
        "value": "0x0",
        "input": "0xe4849b32000000000000000000000000000000000000000000000000202f3d48b2f9add4",
        "nonce": "0x1359",
        "chainId": "0xaa36a7"
      },
      "additionalContracts": [],
      "isFixedGasLimit": false
    }
  ],
  "receipts": [
    {
      "status": "0x1",
      "cumulativeGasUsed": "0xa6c3bd",
      "logs": [
        {
          "address": "0x8aafd3ede9adb0ff97c7aebce82a919afb1c8764",
          "topics": [
            "0xddf252ad1be2c89b69c2b068fc378daa952ba7f163c4a11628f55a4df523b3ef",
            "0x000000000000000000000000c77f7fed3b5cc8249adc428c5f44c9063b9734b4",
            "0x0000000000000000000000000000000000000000000000000000000000000000"
          ],
          "data": "0x0000000000000000000000000000000000000000000000001fed53525b870aa6",
          "blockHash": "0x6462814d1666d361bd4db2e53cb95b68dcfdb9a9123bac8fd630c415d77096cd",
          "blockNumber": "0x731a76",
          "transactionHash": "0xb76be6f0bff814db25ecc24fcedb5fefa51190c947c2c0cb299da3682367aac6",
          "transactionIndex": "0x8d",
          "logIndex": "0x8b",
          "removed": false
        },
        {
          "address": "0x8aafd3ede9adb0ff97c7aebce82a919afb1c8764",
          "topics": [
            "0xddf252ad1be2c89b69c2b068fc378daa952ba7f163c4a11628f55a4df523b3ef",
            "0x000000000000000000000000c77f7fed3b5cc8249adc428c5f44c9063b9734b4",
            "0x000000000000000000000000c77f7fed3b5cc8249adc428c5f44c9063b9734b4"
          ],
          "data": "0x0000000000000000000000000000000000000000000000000041e9f65772a32e",
          "blockHash": "0x6462814d1666d361bd4db2e53cb95b68dcfdb9a9123bac8fd630c415d77096cd",
          "blockNumber": "0x731a76",
          "transactionHash": "0xb76be6f0bff814db25ecc24fcedb5fefa51190c947c2c0cb299da3682367aac6",
          "transactionIndex": "0x8d",
          "logIndex": "0x8c",
          "removed": false
        },
        {
          "address": "0x8aafd3ede9adb0ff97c7aebce82a919afb1c8764",
          "topics": [
            "0x4afcb4a87cdbd9974efdb92ee48bc8d7cd0ae4bf217004db3d080cbaee652ca7"
          ],
          "data": "0x0000000000000000000000000000000000000000000000000000000067903a58000000000000000000000000000000000000000000000000000c456ec2b16027000000000000000000000000000000000000000000000000001c750c8bad8de4",
          "blockHash": "0x6462814d1666d361bd4db2e53cb95b68dcfdb9a9123bac8fd630c415d77096cd",
          "blockNumber": "0x731a76",
          "transactionHash": "0xb76be6f0bff814db25ecc24fcedb5fefa51190c947c2c0cb299da3682367aac6",
          "transactionIndex": "0x8d",
          "logIndex": "0x8d",
          "removed": false
        }
      ],
      "logsBloom": "0x00000000000000000000000000000000000000000600000000000000000000000000000000000000000000000000000000000000000000004000000000000000000000000000004000000008000000000000000000000000000000000000000000000000020000000000000000000800020000000000000000000010000000000000000000000000000000000000000000000000000000000000010000000000000000000000000000000000000000004000000000000000000000000000000000000002000000800000000000000000000000000000080000000000000020000000000000000000000000000000000000000000000000000000000000000000",
      "type": "0x2",
      "transactionHash": "0xb76be6f0bff814db25ecc24fcedb5fefa51190c947c2c0cb299da3682367aac6",
      "transactionIndex": "0x8d",
      "blockHash": "0x6462814d1666d361bd4db2e53cb95b68dcfdb9a9123bac8fd630c415d77096cd",
      "blockNumber": "0x731a76",
      "gasUsed": "0xfd3f",
      "effectiveGasPrice": "0x3e303585",
      "from": "0xc77f7fed3b5cc8249adc428c5f44c9063b9734b4",
      "to": "0x8aafd3ede9adb0ff97c7aebce82a919afb1c8764",
      "contractAddress": null
    }
  ],
  "libraries": [],
  "pending": [],
  "returns": {},
  "timestamp": 1737505370,
  "chain": 11155111,
  "commit": "1d2fb70"
}