{
  "transactions": [
    {
      "hash": "0x079082e1272b6a2528729bac20492b19be9e957f97d35783f466bfbc0ae11869",
      "transactionType": "CALL",
      "contractName": null,
      "contractAddress": "0x270e88f8683660553e8ba4eb2ad7c91a1710d769",
      "function": "sell(uint256)",
      "arguments": [
        "988866420955249927200"
      ],
      "transaction": {
        "from": "0xc77f7fed3b5cc8249adc428c5f44c9063b9734b4",
        "to": "0x270e88f8683660553e8ba4eb2ad7c91a1710d769",
        "gas": "0x16fec",
        "value": "0x0",
        "input": "0xe4849b320000000000000000000000000000000000000000000000359b47429eb5906420",
        "nonce": "0x4ef",
        "chainId": "0xaa36a7"
      },
      "additionalContracts": [],
      "isFixedGasLimit": false
    }
  ],
  "receipts": [
    {
      "status": "0x1",
      "cumulativeGasUsed": "0x19ac8a2",
      "logs": [
        {
          "address": "0x270e88f8683660553e8ba4eb2ad7c91a1710d769",
          "topics": [
            "0xddf252ad1be2c89b69c2b068fc378daa952ba7f163c4a11628f55a4df523b3ef",
            "0x000000000000000000000000c77f7fed3b5cc8249adc428c5f44c9063b9734b4",
            "0x0000000000000000000000000000000000000000000000000000000000000000"
          ],
          "data": "0x0000000000000000000000000000000000000000000000359b47429eb5906420",
          "blockHash": "0xc8fb075b0687b968f45bc348b5f4215944691b9aa5cc4b5219bf9e26a37cf479",
          "blockNumber": "0x725180",
          "transactionHash": "0x079082e1272b6a2528729bac20492b19be9e957f97d35783f466bfbc0ae11869",
          "transactionIndex": "0x7d",
          "logIndex": "0xe0",
          "removed": false
        },
        {
          "address": "0x270e88f8683660553e8ba4eb2ad7c91a1710d769",
          "topics": [
            "0x4afcb4a87cdbd9974efdb92ee48bc8d7cd0ae4bf217004db3d080cbaee652ca7"
          ],
          "data": "0x000000000000000000000000000000000000000000000000000000006786c3e4000000000000000000000000000000000000000000000000000391977e9f986b0000000000000000000000000000000000000000000000000dc84226a0664071",
          "blockHash": "0xc8fb075b0687b968f45bc348b5f4215944691b9aa5cc4b5219bf9e26a37cf479",
          "blockNumber": "0x725180",
          "transactionHash": "0x079082e1272b6a2528729bac20492b19be9e957f97d35783f466bfbc0ae11869",
          "transactionIndex": "0x7d",
          "logIndex": "0xe1",
          "removed": false
        }
      ],
      "logsBloom": "0x00000000000000000000000000000000000000000000000000000000000000000000000000000000000000000000000020000000000000004000000000000000000000000000000000000008000000000000000000000000000000000000000000000000020000000000000000000800020000000000000000000010000000000000000000010000000000000000000000000000000000000000010000000000000000000000000000000000000000004000000000000000000000000000000000000002000000800000000000000000000000000000080000008000000020000000000000000000000000000000000000000000000000000000000000000000",
      "type": "0x2",
      "transactionHash": "0x079082e1272b6a2528729bac20492b19be9e957f97d35783f466bfbc0ae11869",
      "transactionIndex": "0x7d",
      "blockHash": "0xc8fb075b0687b968f45bc348b5f4215944691b9aa5cc4b5219bf9e26a37cf479",
      "blockNumber": "0x725180",
      "gasUsed": "0xfb93",
      "effectiveGasPrice": "0x41c6dc91b",
      "from": "0xc77f7fed3b5cc8249adc428c5f44c9063b9734b4",
      "to": "0x270e88f8683660553e8ba4eb2ad7c91a1710d769",
      "contractAddress": null
    }
  ],
  "libraries": [],
  "pending": [],
  "returns": {},
  "timestamp": 1736885221,
  "chain": 11155111,
  "commit": "51a374b"
}