{
  "transactions": [
    {
      "hash": "0x2be96f1578341de29649f78ab6d9c4210263c235abc72ed3e356125a30c116fc",
      "transactionType": "CALL",
      "contractName": null,
      "contractAddress": "0x8aafd3ede9adb0ff97c7aebce82a919afb1c8764",
      "function": "sell(uint256)",
      "arguments": [
        "1432252063499479889"
      ],
      "transaction": {
        "from": "0xc77f7fed3b5cc8249adc428c5f44c9063b9734b4",
        "to": "0x8aafd3ede9adb0ff97c7aebce82a919afb1c8764",
        "gas": "0x15dca",
        "value": "0x0",
        "input": "0xe4849b3200000000000000000000000000000000000000000000000013e061a9d1b4eb51",
        "nonce": "0x15ea",
        "chainId": "0xaa36a7"
      },
      "additionalContracts": [],
      "isFixedGasLimit": false
    }
  ],
  "receipts": [
    {
      "status": "0x1",
      "cumulativeGasUsed": "0xb04835",
      "logs": [
        {
          "address": "0x8aafd3ede9adb0ff97c7aebce82a919afb1c8764",
          "topics": [
            "0xddf252ad1be2c89b69c2b068fc378daa952ba7f163c4a11628f55a4df523b3ef",
            "0x000000000000000000000000c77f7fed3b5cc8249adc428c5f44c9063b9734b4",
            "0x0000000000000000000000000000000000000000000000000000000000000000"
          ],
          "data": "0x00000000000000000000000000000000000000000000000013b7aca875eac492",
          "blockHash": "0xc5b4d4913c4effa529cd6c6171001be008a2e6981b5185f925491e2f83b5282c",
          "blockNumber": "0x731d6d",
          "transactionHash": "0x2be96f1578341de29649f78ab6d9c4210263c235abc72ed3e356125a30c116fc",
          "transactionIndex": "0x63",
          "logIndex": "0xbc",
          "removed": false
        },
        {
          "address": "0x8aafd3ede9adb0ff97c7aebce82a919afb1c8764",
          "topics": [
            "0xddf252ad1be2c89b69c2b068fc378daa952ba7f163c4a11628f55a4df523b3ef",
            "0x000000000000000000000000c77f7fed3b5cc8249adc428c5f44c9063b9734b4",
            "0x000000000000000000000000c77f7fed3b5cc8249adc428c5f44c9063b9734b4"
          ],
          "data": "0x0000000000000000000000000000000000000000000000000028b5015bca26bf",
          "blockHash": "0xc5b4d4913c4effa529cd6c6171001be008a2e6981b5185f925491e2f83b5282c",
          "blockNumber": "0x731d6d",
          "transactionHash": "0x2be96f1578341de29649f78ab6d9c4210263c235abc72ed3e356125a30c116fc",
          "transactionIndex": "0x63",
          "logIndex": "0xbd",
          "removed": false
        },
        {
          "address": "0x8aafd3ede9adb0ff97c7aebce82a919afb1c8764",
          "topics": [
            "0x4afcb4a87cdbd9974efdb92ee48bc8d7cd0ae4bf217004db3d080cbaee652ca7"
          ],
          "data": "0x0000000000000000000000000000000000000000000000000000000067905e040000000000000000000000000000000000000000000000000013cf475f14126a000000000000000000000000000000000000000000000000001c5f1ecd8082a3",
          "blockHash": "0xc5b4d4913c4effa529cd6c6171001be008a2e6981b5185f925491e2f83b5282c",
          "blockNumber": "0x731d6d",
          "transactionHash": "0x2be96f1578341de29649f78ab6d9c4210263c235abc72ed3e356125a30c116fc",
          "transactionIndex": "0x63",
          "logIndex": "0xbe",
          "removed": false
        }
      ],
      "logsBloom": "0x00000000000000000000000000000000000000000600000000000000000000000000000000000000000000000000000000000000000000004000000000000000000000000000004000000008000000000000000000000000000000000000000000000000020000000000000000000800020000000000000000000010000000000000000000000000000000000000000000000000000000000000010000000000000000000000000000000000000000004000000000000000000000000000000000000002000000800000000000000000000000000000080000000000000020000000000000000000000000000000000000000000000000000000000000000000",
      "type": "0x2",
      "transactionHash": "0x2be96f1578341de29649f78ab6d9c4210263c235abc72ed3e356125a30c116fc",
      "transactionIndex": "0x63",
      "blockHash": "0xc5b4d4913c4effa529cd6c6171001be008a2e6981b5185f925491e2f83b5282c",
      "blockNumber": "0x731d6d",
      "gasUsed": "0xfd3f",
      "effectiveGasPrice": "0x5db9c856",
      "from": "0xc77f7fed3b5cc8249adc428c5f44c9063b9734b4",
      "to": "0x8aafd3ede9adb0ff97c7aebce82a919afb1c8764",
      "contractAddress": null
    }
  ],
  "libraries": [],
  "pending": [],
  "returns": {},
  "timestamp": 1737514501,
  "chain": 11155111,
  "commit": "1d2fb70"
}