{
  "transactions": [
    {
      "hash": "0x0ccb169343aec722768d6360252727362559f5a7cd4cbf693e08be82cd3e600f",
      "transactionType": "CALL",
      "contractName": null,
      "contractAddress": "0x8aafd3ede9adb0ff97c7aebce82a919afb1c8764",
      "function": "buy(address)",
      "arguments": [
        "0xC77f7fed3b5Cc8249aDc428c5F44C9063B9734b4"
      ],
      "transaction": {
        "from": "0xc77f7fed3b5cc8249adc428c5f44c9063b9734b4",
        "to": "0x8aafd3ede9adb0ff97c7aebce82a919afb1c8764",
        "gas": "0x156ea",
        "value": "0xde0b6b3a7640000",
        "input": "0xf088d547000000000000000000000000c77f7fed3b5cc8249adc428c5f44c9063b9734b4",
        "nonce": "0x1534",
        "chainId": "0xaa36a7"
      },
      "additionalContracts": [],
      "isFixedGasLimit": false
    }
  ],
  "receipts": [
    {
      "status": "0x1",
      "cumulativeGasUsed": "0x1399ed4",
      "logs": [
        {
          "address": "0x8aafd3ede9adb0ff97c7aebce82a919afb1c8764",
          "topics": [
            "0xddf252ad1be2c89b69c2b068fc378daa952ba7f163c4a11628f55a4df523b3ef",
            "0x0000000000000000000000000000000000000000000000000000000000000000",
            "0x000000000000000000000000c77f7fed3b5cc8249adc428c5f44c9063b9734b4"
          ],
          "data": "0x00000000000000000000000000000000000000000000000ad1ea0dee87cb5bbd",
          "blockHash": "0xaf2d4669f2d2eb8694257daee0a57cac76b0ff524fb7904032ab67f7af721bd9",
          "blockNumber": "0x731c98",
          "transactionHash": "0x0ccb169343aec722768d6360252727362559f5a7cd4cbf693e08be82cd3e600f",
          "transactionIndex": "0x72",
          "logIndex": "0xba",
          "removed": false
        },
        {
          "address": "0x8aafd3ede9adb0ff97c7aebce82a919afb1c8764",
          "topics": [
            "0xddf252ad1be2c89b69c2b068fc378daa952ba7f163c4a11628f55a4df523b3ef",
            "0x0000000000000000000000000000000000000000000000000000000000000000",
            "0x000000000000000000000000c77f7fed3b5cc8249adc428c5f44c9063b9734b4"
          ],
          "data": "0x0000000000000000000000000000000000000000000000000866eed39567cf7b",
          "blockHash": "0xaf2d4669f2d2eb8694257daee0a57cac76b0ff524fb7904032ab67f7af721bd9",
          "blockNumber": "0x731c98",
          "transactionHash": "0x0ccb169343aec722768d6360252727362559f5a7cd4cbf693e08be82cd3e600f",
          "transactionIndex": "0x72",
          "logIndex": "0xbb",
          "removed": false
        },
        {
          "address": "0x8aafd3ede9adb0ff97c7aebce82a919afb1c8764",
          "topics": [
            "0x4afcb4a87cdbd9974efdb92ee48bc8d7cd0ae4bf217004db3d080cbaee652ca7"
          ],
          "data": "0x00000000000000000000000000000000000000000000000000000000679053fc0000000000000000000000000000000000000000000000000011a5b82f37f1c20000000000000000000000000000000000000000000000000de0b6b3a7640000",
          "blockHash": "0xaf2d4669f2d2eb8694257daee0a57cac76b0ff524fb7904032ab67f7af721bd9",
          "blockNumber": "0x731c98",
          "transactionHash": "0x0ccb169343aec722768d6360252727362559f5a7cd4cbf693e08be82cd3e600f",
          "transactionIndex": "0x72",
          "logIndex": "0xbc",
          "removed": false
        }
      ],
      "logsBloom": "0x00000000000000000000000000000000000000000600000000000000000000000000000000000000000000000000000000000000000000004000000000000000000000000000004000000008000000000000000000000000000000000000000000000000020000000000000000000800020000000000000000000010000000000000000000000000000000000000000000000000000000000000010000000000000000000000000000000000000000004000000000000000000000000000000000000002000000800000000000000000000000000000080000000000000020000000000000000000000000000000000000000000000000000000000000000000",
      "type": "0x2",
      "transactionHash": "0x0ccb169343aec722768d6360252727362559f5a7cd4cbf693e08be82cd3e600f",
      "transactionIndex": "0x72",
      "blockHash": "0xaf2d4669f2d2eb8694257daee0a57cac76b0ff524fb7904032ab67f7af721bd9",
      "blockNumber": "0x731c98",
      "gasUsed": "0xf844",
      "effectiveGasPrice": "0xdc028dcf",
      "from": "0xc77f7fed3b5cc8249adc428c5f44c9063b9734b4",
      "to": "0x8aafd3ede9adb0ff97c7aebce82a919afb1c8764",
      "contractAddress": null
    }
  ],
  "libraries": [],
  "pending": [],
  "returns": {},
  "timestamp": 1737511934,
  "chain": 11155111,
  "commit": "1d2fb70"
}