{
  "transactions": [
    {
      "hash": "0x7b2ca76dbd4d391879a8e083b7252ff42ab03406e665a58f34c48141911c2135",
      "transactionType": "CALL",
      "contractName": null,
      "contractAddress": "0xbf4a322f1496e5c3d34a9bcdb4c60567b38c7de2",
      "function": "sell(uint256)",
      "arguments": [
        "986391444942403087074"
      ],
      "transaction": {
        "from": "0xc77f7fed3b5cc8249adc428c5f44c9063b9734b4",
        "to": "0xbf4a322f1496e5c3d34a9bcdb4c60567b38c7de2",
        "gas": "0x16fea",
        "value": "0x0",
        "input": "0xe4849b3200000000000000000000000000000000000000000000003578ee610c9c372ae2",
        "nonce": "0xa3f",
        "chainId": "0xaa36a7"
      },
      "additionalContracts": [],
      "isFixedGasLimit": false
    }
  ],
  "receipts": [
    {
      "status": "0x1",
      "cumulativeGasUsed": "0xe8f042",
      "logs": [
        {
          "address": "0xbf4a322f1496e5c3d34a9bcdb4c60567b38c7de2",
          "topics": [
            "0xddf252ad1be2c89b69c2b068fc378daa952ba7f163c4a11628f55a4df523b3ef",
            "0x000000000000000000000000c77f7fed3b5cc8249adc428c5f44c9063b9734b4",
            "0x0000000000000000000000000000000000000000000000000000000000000000"
          ],
          "data": "0x00000000000000000000000000000000000000000000003578ee610c9c372ae2",
          "blockHash": "0xf824a3cc1298b5cdfb8f7ae0000ddd2bbeb949fbb0fff37331609fa8a8c7e636",
          "blockNumber": "0x725a16",
          "transactionHash": "0x7b2ca76dbd4d391879a8e083b7252ff42ab03406e665a58f34c48141911c2135",
          "transactionIndex": "0x65",
          "logIndex": "0xa6",
          "removed": false
        },
        {
          "address": "0xbf4a322f1496e5c3d34a9bcdb4c60567b38c7de2",
          "topics": [
            "0x4afcb4a87cdbd9974efdb92ee48bc8d7cd0ae4bf217004db3d080cbaee652ca7"
          ],
          "data": "0x0000000000000000000000000000000000000000000000000000000067872b580000000000000000000000000000000000000000000000000003939db815f6700000000000000000000000000000000000000000000000000dc7e3f0ed2ee44f",
          "blockHash": "0xf824a3cc1298b5cdfb8f7ae0000ddd2bbeb949fbb0fff37331609fa8a8c7e636",
          "blockNumber": "0x725a16",
          "transactionHash": "0x7b2ca76dbd4d391879a8e083b7252ff42ab03406e665a58f34c48141911c2135",
          "transactionIndex": "0x65",
          "logIndex": "0xa7",
          "removed": false
        }
      ],
      "logsBloom": "0x00000000000000000000000000000000000000000000000000000000000000000000000000000000000000000000000000000000000000004000000000000000000000000000000000000008000000000000001000000000000000000000000000000000020000000000000000000800020000000000000000000010000000000000000000000000000000000000000000000000000008000000010000000000000000000000000000000000000000004000000000000000000000000000000000000002000000800000000000001000000000000000080000000000000020000000000000000000000000000000000000000000000000000000000000000000",
      "type": "0x2",
      "transactionHash": "0x7b2ca76dbd4d391879a8e083b7252ff42ab03406e665a58f34c48141911c2135",
      "transactionIndex": "0x65",
      "blockHash": "0xf824a3cc1298b5cdfb8f7ae0000ddd2bbeb949fbb0fff37331609fa8a8c7e636",
      "blockNumber": "0x725a16",
      "gasUsed": "0xfb91",
      "effectiveGasPrice": "0x65cd84125",
      "from": "0xc77f7fed3b5cc8249adc428c5f44c9063b9734b4",
      "to": "0xbf4a322f1496e5c3d34a9bcdb4c60567b38c7de2",
      "contractAddress": null
    }
  ],
  "libraries": [],
  "pending": [],
  "returns": {},
  "timestamp": 1736911705,
  "chain": 11155111,
  "commit": "51a374b"
}