{
  "transactions": [
    {
      "hash": "0x218793e2d55262b9e5bbfd49351d9d1a20c2b7675ae76d074bb504c8f34981ad",
      "transactionType": "CALL",
      "contractName": null,
      "contractAddress": "0xbf4a322f1496e5c3d34a9bcdb4c60567b38c7de2",
      "function": "buy(address)",
      "arguments": [
        "0xC77f7fed3b5Cc8249aDc428c5F44C9063B9734b4"
      ],
      "transaction": {
        "from": "0xc77f7fed3b5cc8249adc428c5f44c9063b9734b4",
        "to": "0xbf4a322f1496e5c3d34a9bcdb4c60567b38c7de2",
        "gas": "0x1b309",
        "value": "0xde0b6b3a7640000",
        "input": "0xf088d547000000000000000000000000c77f7fed3b5cc8249adc428c5f44c9063b9734b4",
        "nonce": "0x8ec",
        "chainId": "0xaa36a7"
      },
      "additionalContracts": [],
      "isFixedGasLimit": false
    }
  ],
  "receipts": [
    {
      "status": "0x1",
      "cumulativeGasUsed": "0xc63e05",
      "logs": [
        {
          "address": "0xbf4a322f1496e5c3d34a9bcdb4c60567b38c7de2",
          "topics": [
            "0xddf252ad1be2c89b69c2b068fc378daa952ba7f163c4a11628f55a4df523b3ef",
            "0x0000000000000000000000000000000000000000000000000000000000000000",
            "0x000000000000000000000000c77f7fed3b5cc8249adc428c5f44c9063b9734b4"
          ],
          "data": "0x0000000000000000000000000000000000000000000000358f7137d8b773d8e7",
          "blockHash": "0x2ddde43dbe128fe4ff33d27123bbd74b174c37f60f83f83dfad0d24550f7617f",
          "blockNumber": "0x725863",
          "transactionHash": "0x218793e2d55262b9e5bbfd49351d9d1a20c2b7675ae76d074bb504c8f34981ad",
          "transactionIndex": "0x66",
          "logIndex": "0x8a",
          "removed": false
        },
        {
          "address": "0xbf4a322f1496e5c3d34a9bcdb4c60567b38c7de2",
          "topics": [
            "0xddf252ad1be2c89b69c2b068fc378daa952ba7f163c4a11628f55a4df523b3ef",
            "0x0000000000000000000000000000000000000000000000000000000000000000",
            "0x000000000000000000000000c77f7fed3b5cc8249adc428c5f44c9063b9734b4"
          ],
          "data": "0x0000000000000000000000000000000000000000000000002997671164456e8f",
          "blockHash": "0x2ddde43dbe128fe4ff33d27123bbd74b174c37f60f83f83dfad0d24550f7617f",
          "blockNumber": "0x725863",
          "transactionHash": "0x218793e2d55262b9e5bbfd49351d9d1a20c2b7675ae76d074bb504c8f34981ad",
          "transactionIndex": "0x66",
          "logIndex": "0x8b",
          "removed": false
        },
        {
          "address": "0xbf4a322f1496e5c3d34a9bcdb4c60567b38c7de2",
          "topics": [
            "0x4afcb4a87cdbd9974efdb92ee48bc8d7cd0ae4bf217004db3d080cbaee652ca7"
          ],
          "data": "0x00000000000000000000000000000000000000000000000000000000678716d000000000000000000000000000000000000000000000000000038f55177f57470000000000000000000000000000000000000000000000000de0b6b3a7640000",
          "blockHash": "0x2ddde43dbe128fe4ff33d27123bbd74b174c37f60f83f83dfad0d24550f7617f",
          "blockNumber": "0x725863",
          "transactionHash": "0x218793e2d55262b9e5bbfd49351d9d1a20c2b7675ae76d074bb504c8f34981ad",
          "transactionIndex": "0x66",
          "logIndex": "0x8c",
          "removed": false
        }
      ],
      "logsBloom": "0x00000000000000000000000000000000000000000000000000000000000000000000000000000000000000000000000000000000000000004000000000000000000000000000000000000008000000000000001000000000000000000000000000000000020000000000000000000800020000000000000000000010000000000000000000000000000000000000000000000000000008000000010000000000000000000000000000000000000000004000000000000000000000000000000000000002000000800000000000001000000000000000080000000000000020000000000000000000000000000000000000000000000000000000000000000000",
      "type": "0x2",
      "transactionHash": "0x218793e2d55262b9e5bbfd49351d9d1a20c2b7675ae76d074bb504c8f34981ad",
      "transactionIndex": "0x66",
      "blockHash": "0x2ddde43dbe128fe4ff33d27123bbd74b174c37f60f83f83dfad0d24550f7617f",
      "blockNumber": "0x725863",
      "gasUsed": "0x13af6",
      "effectiveGasPrice": "0x249f4ce4",
      "from": "0xc77f7fed3b5cc8249adc428c5f44c9063b9734b4",
      "to": "0xbf4a322f1496e5c3d34a9bcdb4c60567b38c7de2",
      "contractAddress": null
    }
  ],
  "libraries": [],
  "pending": [],
  "returns": {},
  "timestamp": 1736906448,
  "chain": 11155111,
  "commit": "51a374b"
}