{
  "transactions": [
    {
      "hash": "0x0c596fdb97d122ecc67c017a7c3d5aab821332a4f4c95ef44f064e00c947acf6",
      "transactionType": "CALL",
      "contractName": null,
      "contractAddress": "0x5eb9cc76c3506942c1c0ead70e877dd5e4f00cb0",
      "function": "sell(uint256)",
      "arguments": [
        "989141113948239515524"
      ],
      "transaction": {
        "from": "0xc77f7fed3b5cc8249adc428c5f44c9063b9734b4",
        "to": "0x5eb9cc76c3506942c1c0ead70e877dd5e4f00cb0",
        "gas": "0x16fec",
        "value": "0x0",
        "input": "0xe4849b320000000000000000000000000000000000000000000000359f172a7112ff4f84",
        "nonce": "0x2ff",
        "chainId": "0xaa36a7"
      },
      "additionalContracts": [],
      "isFixedGasLimit": false
    }
  ],
  "receipts": [
    {
      "status": "0x1",
      "cumulativeGasUsed": "0xb4db2c",
      "logs": [
        {
          "address": "0x5eb9cc76c3506942c1c0ead70e877dd5e4f00cb0",
          "topics": [
            "0xddf252ad1be2c89b69c2b068fc378daa952ba7f163c4a11628f55a4df523b3ef",
            "0x000000000000000000000000c77f7fed3b5cc8249adc428c5f44c9063b9734b4",
            "0x0000000000000000000000000000000000000000000000000000000000000000"
          ],
          "data": "0x0000000000000000000000000000000000000000000000359f172a7112ff4f84",
          "blockHash": "0x36ad1528c29f7ad7286edfc778432e2580c4882f5657b20f2cacb3b308fe3522",
          "blockNumber": "0x724ee0",
          "transactionHash": "0x0c596fdb97d122ecc67c017a7c3d5aab821332a4f4c95ef44f064e00c947acf6",
          "transactionIndex": "0x68",
          "logIndex": "0x72",
          "removed": false
        },
        {
          "address": "0x5eb9cc76c3506942c1c0ead70e877dd5e4f00cb0",
          "topics": [
            "0x4afcb4a87cdbd9974efdb92ee48bc8d7cd0ae4bf217004db3d080cbaee652ca7"
          ],
          "data": "0x000000000000000000000000000000000000000000000000000000006786a4340000000000000000000000000000000000000000000000000003910bc19789ee0000000000000000000000000000000000000000000000000dc7db1332309aee",
          "blockHash": "0x36ad1528c29f7ad7286edfc778432e2580c4882f5657b20f2cacb3b308fe3522",
          "blockNumber": "0x724ee0",
          "transactionHash": "0x0c596fdb97d122ecc67c017a7c3d5aab821332a4f4c95ef44f064e00c947acf6",
          "transactionIndex": "0x68",
          "logIndex": "0x73",
          "removed": false
        }
      ],
      "logsBloom": "0x00000000000000000000000000000000000000000000000000000000000000000000000000000000000000000000000000000000000000004000000000000000000000000000000000000008000000000000000000000000000000000000000000000000020000000000000004000800020000000000000000000010000000000000000000000000000000000000000000000000000000000000010000000000000000000000000000000000000000004000000000000000000000000000020000000002000000800000008000000000000000000000080000000000000020000000000000000000000000000000000000000000000000000000000000000000",
      "type": "0x2",
      "transactionHash": "0x0c596fdb97d122ecc67c017a7c3d5aab821332a4f4c95ef44f064e00c947acf6",
      "transactionIndex": "0x68",
      "blockHash": "0x36ad1528c29f7ad7286edfc778432e2580c4882f5657b20f2cacb3b308fe3522",
      "blockNumber": "0x724ee0",
      "gasUsed": "0xfb93",
      "effectiveGasPrice": "0x6c36cd835",
      "from": "0xc77f7fed3b5cc8249adc428c5f44c9063b9734b4",
      "to": "0x5eb9cc76c3506942c1c0ead70e877dd5e4f00cb0",
      "contractAddress": null
    }
  ],
  "libraries": [],
  "pending": [],
  "returns": {},
  "timestamp": 1736877109,
  "chain": 11155111,
  "commit": "51a374b"
}