{
  "transactions": [
    {
      "hash": "0xa9c75dc6997d72f5d2a4e3c51ab1c9298d925773edeef30abd51063b66cf9444",
      "transactionType": "CALL",
      "contractName": null,
      "contractAddress": "0xbf4a322f1496e5c3d34a9bcdb4c60567b38c7de2",
      "function": "sell(uint256)",
      "arguments": [
        "983164705433062923819"
      ],
      "transaction": {
        "from": "0xc77f7fed3b5cc8249adc428c5f44c9063b9734b4",
        "to": "0xbf4a322f1496e5c3d34a9bcdb4c60567b38c7de2",
        "gas": "0x16fea",
        "value": "0x0",
        "input": "0xe4849b320000000000000000000000000000000000000000000000354c26b28fbf46de2b",
        "nonce": "0xb2d",
        "chainId": "0xaa36a7"
      },
      "additionalContracts": [],
      "isFixedGasLimit": false
    }
  ],
  "receipts": [
    {
      "status": "0x1",
      "cumulativeGasUsed": "0x9d53f1",
      "logs": [
        {
          "address": "0xbf4a322f1496e5c3d34a9bcdb4c60567b38c7de2",
          "topics": [
            "0xddf252ad1be2c89b69c2b068fc378daa952ba7f163c4a11628f55a4df523b3ef",
            "0x000000000000000000000000c77f7fed3b5cc8249adc428c5f44c9063b9734b4",
            "0x0000000000000000000000000000000000000000000000000000000000000000"
          ],
          "data": "0x0000000000000000000000000000000000000000000000354c26b28fbf46de2b",
          "blockHash": "0x81527cce22a90e4960df5b69f2a84e1af659842a359deea9050be5317c680e92",
          "blockNumber": "0x725b2a",
          "transactionHash": "0xa9c75dc6997d72f5d2a4e3c51ab1c9298d925773edeef30abd51063b66cf9444",
          "transactionIndex": "0x48",
          "logIndex": "0x8b",
          "removed": false
        },
        {
          "address": "0xbf4a322f1496e5c3d34a9bcdb4c60567b38c7de2",
          "topics": [
            "0x4afcb4a87cdbd9974efdb92ee48bc8d7cd0ae4bf217004db3d080cbaee652ca7"
          ],
          "data": "0x00000000000000000000000000000000000000000000000000000000678738540000000000000000000000000000000000000000000000000003969efd50a45d0000000000000000000000000000000000000000000000000dc7e3e96ca0b791",
          "blockHash": "0x81527cce22a90e4960df5b69f2a84e1af659842a359deea9050be5317c680e92",
          "blockNumber": "0x725b2a",
          "transactionHash": "0xa9c75dc6997d72f5d2a4e3c51ab1c9298d925773edeef30abd51063b66cf9444",
          "transactionIndex": "0x48",
          "logIndex": "0x8c",
          "removed": false
        }
      ],
      "logsBloom": "0x00000000000000000000000000000000000000000000000000000000000000000000000000000000000000000000000000000000000000004000000000000000000000000000000000000008000000000000001000000000000000000000000000000000020000000000000000000800020000000000000000000010000000000000000000000000000000000000000000000000000008000000010000000000000000000000000000000000000000004000000000000000000000000000000000000002000000800000000000001000000000000000080000000000000020000000000000000000000000000000000000000000000000000000000000000000",
      "type": "0x2",
      "transactionHash": "0xa9c75dc6997d72f5d2a4e3c51ab1c9298d925773edeef30abd51063b66cf9444",
      "transactionIndex": "0x48",
      "blockHash": "0x81527cce22a90e4960df5b69f2a84e1af659842a359deea9050be5317c680e92",
      "blockNumber": "0x725b2a",
      "gasUsed": "0xfb91",
      "effectiveGasPrice": "0x5da07fb0",
      "from": "0xc77f7fed3b5cc8249adc428c5f44c9063b9734b4",
      "to": "0xbf4a322f1496e5c3d34a9bcdb4c60567b38c7de2",
      "contractAddress": null
    }
  ],
  "libraries": [],
  "pending": [],
  "returns": {},
  "timestamp": 1736915029,
  "chain": 11155111,
  "commit": "51a374b"
}