{
  "transactions": [
    {
      "hash": "0x8f04e2432da10cb6568e7a8f61b6ce802fb49bcf08fe6610bb426b783aa19259",
      "transactionType": "CALL",
      "contractName": null,
      "contractAddress": "0xbf4a322f1496e5c3d34a9bcdb4c60567b38c7de2",
      "function": "buy(address)",
      "arguments": [
        "0xC77f7fed3b5Cc8249aDc428c5F44C9063B9734b4"
      ],
      "transaction": {
        "from": "0xc77f7fed3b5cc8249adc428c5f44c9063b9734b4",
        "to": "0xbf4a322f1496e5c3d34a9bcdb4c60567b38c7de2",
        "gas": "0x1b309",
        "value": "0xde0b6b3a7640000",
        "input": "0xf088d547000000000000000000000000c77f7fed3b5cc8249adc428c5f44c9063b9734b4",
        "nonce": "0xd52",
        "chainId": "0xaa36a7"
      },
      "additionalContracts": [],
      "isFixedGasLimit": false
    }
  ],
  "receipts": [
    {
      "status": "0x1",
      "cumulativeGasUsed": "0xae47fe",
      "logs": [
        {
          "address": "0xbf4a322f1496e5c3d34a9bcdb4c60567b38c7de2",
          "topics": [
            "0xddf252ad1be2c89b69c2b068fc378daa952ba7f163c4a11628f55a4df523b3ef",
            "0x0000000000000000000000000000000000000000000000000000000000000000",
            "0x000000000000000000000000c77f7fed3b5cc8249adc428c5f44c9063b9734b4"
          ],
          "data": "0x000000000000000000000000000000000000000000000034bcd3d949a8b9834a",
          "blockHash": "0x6b2b712a79a911a78b1357181e0a09a3a2f04d7db4c31b52af2c16046bdf499b",
          "blockNumber": "0x725db9",
          "transactionHash": "0x8f04e2432da10cb6568e7a8f61b6ce802fb49bcf08fe6610bb426b783aa19259",
          "transactionIndex": "0x59",
          "logIndex": "0xcf",
          "removed": false
        },
        {
          "address": "0xbf4a322f1496e5c3d34a9bcdb4c60567b38c7de2",
          "topics": [
            "0xddf252ad1be2c89b69c2b068fc378daa952ba7f163c4a11628f55a4df523b3ef",
            "0x0000000000000000000000000000000000000000000000000000000000000000",
            "0x000000000000000000000000c77f7fed3b5cc8249adc428c5f44c9063b9734b4"
          ],
          "data": "0x00000000000000000000000000000000000000000000000028f3da6439ba11a7",
          "blockHash": "0x6b2b712a79a911a78b1357181e0a09a3a2f04d7db4c31b52af2c16046bdf499b",
          "blockNumber": "0x725db9",
          "transactionHash": "0x8f04e2432da10cb6568e7a8f61b6ce802fb49bcf08fe6610bb426b783aa19259",
          "transactionIndex": "0x59",
          "logIndex": "0xd0",
          "removed": false
        },
        {
          "address": "0xbf4a322f1496e5c3d34a9bcdb4c60567b38c7de2",
          "topics": [
            "0x4afcb4a87cdbd9974efdb92ee48bc8d7cd0ae4bf217004db3d080cbaee652ca7"
          ],
          "data": "0x000000000000000000000000000000000000000000000000000000006787572000000000000000000000000000000000000000000000000000039d8c957aca630000000000000000000000000000000000000000000000000de0b6b3a7640000",
          "blockHash": "0x6b2b712a79a911a78b1357181e0a09a3a2f04d7db4c31b52af2c16046bdf499b",
          "blockNumber": "0x725db9",
          "transactionHash": "0x8f04e2432da10cb6568e7a8f61b6ce802fb49bcf08fe6610bb426b783aa19259",
          "transactionIndex": "0x59",
          "logIndex": "0xd1",
          "removed": false
        }
      ],
      "logsBloom": "0x00000000000000000000000000000000000000000000000000000000000000000000000000000000000000000000000000000000000000004000000000000000000000000000000000000008000000000000001000000000000000000000000000000000020000000000000000000800020000000000000000000010000000000000000000000000000000000000000000000000000008000000010000000000000000000000000000000000000000004000000000000000000000000000000000000002000000800000000000001000000000000000080000000000000020000000000000000000000000000000000000000000000000000000000000000000",
      "type": "0x2",
      "transactionHash": "0x8f04e2432da10cb6568e7a8f61b6ce802fb49bcf08fe6610bb426b783aa19259",
      "transactionIndex": "0x59",
      "blockHash": "0x6b2b712a79a911a78b1357181e0a09a3a2f04d7db4c31b52af2c16046bdf499b",
      "blockNumber": "0x725db9",
      "gasUsed": "0x13af6",
      "effectiveGasPrice": "0x411822abe",
      "from": "0xc77f7fed3b5cc8249adc428c5f44c9063b9734b4",
      "to": "0xbf4a322f1496e5c3d34a9bcdb4c60567b38c7de2",
      "contractAddress": null
    }
  ],
  "libraries": [],
  "pending": [],
  "returns": {},
  "timestamp": 1736922913,
  "chain": 11155111,
  "commit": "51a374b"
}