{
  "transactions": [
    {
      "hash": "0xa6c689d1a5040cc3a04420675442e02fb99b95042c016e81a0815d7702c353d4",
      "transactionType": "CALL",
      "contractName": null,
      "contractAddress": "0x8aafd3ede9adb0ff97c7aebce82a919afb1c8764",
      "function": "sell(uint256)",
      "arguments": [
        "108911720468554"
      ],
      "transaction": {
        "from": "0xc77f7fed3b5cc8249adc428c5f44c9063b9734b4",
        "to": "0x8aafd3ede9adb0ff97c7aebce82a919afb1c8764",
        "gas": "0x15daa",
        "value": "0x0",
        "input": "0xe4849b320000000000000000000000000000000000000000000000000000630dfc69104a",
        "nonce": "0x14de",
        "chainId": "0xaa36a7"
      },
      "additionalContracts": [],
      "isFixedGasLimit": false
    }
  ],
  "receipts": [
    {
      "status": "0x1",
      "cumulativeGasUsed": "0x1239e60",
      "logs": [
        {
          "address": "0x8aafd3ede9adb0ff97c7aebce82a919afb1c8764",
          "topics": [
            "0xddf252ad1be2c89b69c2b068fc378daa952ba7f163c4a11628f55a4df523b3ef",
            "0x000000000000000000000000c77f7fed3b5cc8249adc428c5f44c9063b9734b4",
            "0x0000000000000000000000000000000000000000000000000000000000000000"
          ],
          "data": "0x000000000000000000000000000000000000000000000000000062431f414fa6",
          "blockHash": "0x6b1a214c4bdb12e35b340f07c044c2f95c6c9e8b369b012915f97629cef780f7",
          "blockNumber": "0x731c3c",
          "transactionHash": "0xa6c689d1a5040cc3a04420675442e02fb99b95042c016e81a0815d7702c353d4",
          "transactionIndex": "0x75",
          "logIndex": "0x115",
          "removed": false
        },
        {
          "address": "0x8aafd3ede9adb0ff97c7aebce82a919afb1c8764",
          "topics": [
            "0xddf252ad1be2c89b69c2b068fc378daa952ba7f163c4a11628f55a4df523b3ef",
            "0x000000000000000000000000c77f7fed3b5cc8249adc428c5f44c9063b9734b4",
            "0x000000000000000000000000c77f7fed3b5cc8249adc428c5f44c9063b9734b4"
          ],
          "data": "0x000000000000000000000000000000000000000000000000000000cadd27c0a4",
          "blockHash": "0x6b1a214c4bdb12e35b340f07c044c2f95c6c9e8b369b012915f97629cef780f7",
          "blockNumber": "0x731c3c",
          "transactionHash": "0xa6c689d1a5040cc3a04420675442e02fb99b95042c016e81a0815d7702c353d4",
          "transactionIndex": "0x75",
          "logIndex": "0x116",
          "removed": false
        },
        {
          "address": "0x8aafd3ede9adb0ff97c7aebce82a919afb1c8764",
          "topics": [
            "0x4afcb4a87cdbd9974efdb92ee48bc8d7cd0ae4bf217004db3d080cbaee652ca7"
          ],
          "data": "0x0000000000000000000000000000000000000000000000000000000067904fac0000000000000000000000000000000000000000000000000010b02e199f7ae3000000000000000000000000000000000000000000000000000000771d46e8ac",
          "blockHash": "0x6b1a214c4bdb12e35b340f07c044c2f95c6c9e8b369b012915f97629cef780f7",
          "blockNumber": "0x731c3c",
          "transactionHash": "0xa6c689d1a5040cc3a04420675442e02fb99b95042c016e81a0815d7702c353d4",
          "transactionIndex": "0x75",
          "logIndex": "0x117",
          "removed": false
        }
      ],
      "logsBloom": "0x00000000000000000000000000000000000000000600000000000000000000000000000000000000000000000000000000000000000000004000000000000000000000000000004000000008000000000000000000000000000000000000000000000000020000000000000000000800020000000000000000000010000000000000000000000000000000000000000000000000000000000000010000000000000000000000000000000000000000004000000000000000000000000000000000000002000000800000000000000000000000000000080000000000000020000000000000000000000000000000000000000000000000000000000000000000",
      "type": "0x2",
      "transactionHash": "0xa6c689d1a5040cc3a04420675442e02fb99b95042c016e81a0815d7702c353d4",
      "transactionIndex": "0x75",
      "blockHash": "0x6b1a214c4bdb12e35b340f07c044c2f95c6c9e8b369b012915f97629cef780f7",
      "blockNumber": "0x731c3c",
      "gasUsed": "0xfd27",
      "effectiveGasPrice": "0x14b00ddb7",
      "from": "0xc77f7fed3b5cc8249adc428c5f44c9063b9734b4",
      "to": "0x8aafd3ede9adb0ff97c7aebce82a919afb1c8764",
      "contractAddress": null
    }
  ],
  "libraries": [],
  "pending": [],
  "returns": {},
  "timestamp": 1737510828,
  "chain": 11155111,
  "commit": "1d2fb70"
}