{
  "transactions": [
    {
      "hash": "0xfc92132d37bd240f54c0b93e479d884cd4c8cfedc285439c1212dacb23010828",
      "transactionType": "CALL",
      "contractName": null,
      "contractAddress": "0x8aafd3ede9adb0ff97c7aebce82a919afb1c8764",
      "function": "buy(address)",
      "arguments": [
        "0xC77f7fed3b5Cc8249aDc428c5F44C9063B9734b4"
      ],
      "transaction": {
        "from": "0xc77f7fed3b5cc8249adc428c5f44c9063b9734b4",
        "to": "0x8aafd3ede9adb0ff97c7aebce82a919afb1c8764",
        "gas": "0x156ea",
        "value": "0xde0b6b3a7640000",
        "input": "0xf088d547000000000000000000000000c77f7fed3b5cc8249adc428c5f44c9063b9734b4",
        "nonce": "0x1519",
        "chainId": "0xaa36a7"
      },
      "additionalContracts": [],
      "isFixedGasLimit": false
    }
  ],
  "receipts": [
    {
      "status": "0x1",
      "cumulativeGasUsed": "0xea774c",
      "logs": [
        {
          "address": "0x8aafd3ede9adb0ff97c7aebce82a919afb1c8764",
          "topics": [
            "0xddf252ad1be2c89b69c2b068fc378daa952ba7f163c4a11628f55a4df523b3ef",
            "0x0000000000000000000000000000000000000000000000000000000000000000",
            "0x000000000000000000000000c77f7fed3b5cc8249adc428c5f44c9063b9734b4"
          ],
          "data": "0x00000000000000000000000000000000000000000000000b03c19135b94513dc",
          "blockHash": "0x45cf4e066119c579a9b7122a1bc9bf03474e2605a2d53713ad47473fcb916785",
          "blockNumber": "0x731c7b",
          "transactionHash": "0xfc92132d37bd240f54c0b93e479d884cd4c8cfedc285439c1212dacb23010828",
          "transactionIndex": "0x8d",
          "logIndex": "0xf7",
          "removed": false
        },
        {
          "address": "0x8aafd3ede9adb0ff97c7aebce82a919afb1c8764",
          "topics": [
            "0xddf252ad1be2c89b69c2b068fc378daa952ba7f163c4a11628f55a4df523b3ef",
            "0x0000000000000000000000000000000000000000000000000000000000000000",
            "0x000000000000000000000000c77f7fed3b5cc8249adc428c5f44c9063b9734b4"
          ],
          "data": "0x000000000000000000000000000000000000000000000000088da305fea6d695",
          "blockHash": "0x45cf4e066119c579a9b7122a1bc9bf03474e2605a2d53713ad47473fcb916785",
          "blockNumber": "0x731c7b",
          "transactionHash": "0xfc92132d37bd240f54c0b93e479d884cd4c8cfedc285439c1212dacb23010828",
          "transactionIndex": "0x8d",
          "logIndex": "0xf8",
          "removed": false
        },
        {
          "address": "0x8aafd3ede9adb0ff97c7aebce82a919afb1c8764",
          "topics": [
            "0x4afcb4a87cdbd9974efdb92ee48bc8d7cd0ae4bf217004db3d080cbaee652ca7"
          ],
          "data": "0x00000000000000000000000000000000000000000000000000000000679052a0000000000000000000000000000000000000000000000000001155f4c2207d3d0000000000000000000000000000000000000000000000000de0b6b3a7640000",
          "blockHash": "0x45cf4e066119c579a9b7122a1bc9bf03474e2605a2d53713ad47473fcb916785",
          "blockNumber": "0x731c7b",
          "transactionHash": "0xfc92132d37bd240f54c0b93e479d884cd4c8cfedc285439c1212dacb23010828",
          "transactionIndex": "0x8d",
          "logIndex": "0xf9",
          "removed": false
        }
      ],
      "logsBloom": "0x00000000000000000000000000000000000000000600000000000000000000000000000000000000000000000000000000000000000000004000000000000000000000000000004000000008000000000000000000000000000000000000000000000000020000000000000000000800020000000000000000000010000000000000000000000000000000000000000000000000000000000000010000000000000000000000000000000000000000004000000000000000000000000000000000000002000000800000000000000000000000000000080000000000000020000000000000000000000000000000000000000000000000000000000000000000",
      "type": "0x2",
      "transactionHash": "0xfc92132d37bd240f54c0b93e479d884cd4c8cfedc285439c1212dacb23010828",
      "transactionIndex": "0x8d",
      "blockHash": "0x45cf4e066119c579a9b7122a1bc9bf03474e2605a2d53713ad47473fcb916785",
      "blockNumber": "0x731c7b",
      "gasUsed": "0xf844",
      "effectiveGasPrice": "0x166d5f51d",
      "from": "0xc77f7fed3b5cc8249adc428c5f44c9063b9734b4",
      "to": "0x8aafd3ede9adb0ff97c7aebce82a919afb1c8764",
      "contractAddress": null
    }
  ],
  "libraries": [],
  "pending": [],
  "returns": {},
  "timestamp": 1737511586,
  "chain": 11155111,
  "commit": "1d2fb70"
}