{
  "transactions": [
    {
      "hash": "0x5e6e84f24195004c378eaf588c2991eeac73d3532fcb1cfdbc77fe880620ab38",
      "transactionType": "CALL",
      "contractName": null,
      "contractAddress": "0x8aafd3ede9adb0ff97c7aebce82a919afb1c8764",
      "function": "sell(uint256)",
      "arguments": [
        "696354877239"
      ],
      "transaction": {
        "from": "0xc77f7fed3b5cc8249adc428c5f44c9063b9734b4",
        "to": "0x8aafd3ede9adb0ff97c7aebce82a919afb1c8764",
        "gas": "0x1722a",
        "value": "0x0",
        "input": "0xe4849b32000000000000000000000000000000000000000000000000000000a221fc2f37",
        "nonce": "0x1647",
        "chainId": "0xaa36a7"
      },
      "additionalContracts": [],
      "isFixedGasLimit": false
    }
  ],
  "receipts": [
    {
      "status": "0x1",
      "cumulativeGasUsed": "0xe362fe",
      "logs": [
        {
          "address": "0x8aafd3ede9adb0ff97c7aebce82a919afb1c8764",
          "topics": [
            "0xddf252ad1be2c89b69c2b068fc378daa952ba7f163c4a11628f55a4df523b3ef",
            "0x000000000000000000000000c77f7fed3b5cc8249adc428c5f44c9063b9734b4",
            "0x0000000000000000000000000000000000000000000000000000000000000000"
          ],
          "data": "0x000000000000000000000000000000000000000000000000000000a0d5efed4e",
          "blockHash": "0x973e2a2bac4c66d38d7023e5535f7a2b268d896893ce5963b3ce2699906bcd7a",
          "blockNumber": "0x731de0",
          "transactionHash": "0x5e6e84f24195004c378eaf588c2991eeac73d3532fcb1cfdbc77fe880620ab38",
          "transactionIndex": "0x6b",
          "logIndex": "0xb0",
          "removed": false
        },
        {
          "address": "0x8aafd3ede9adb0ff97c7aebce82a919afb1c8764",
          "topics": [
            "0xddf252ad1be2c89b69c2b068fc378daa952ba7f163c4a11628f55a4df523b3ef",
            "0x000000000000000000000000c77f7fed3b5cc8249adc428c5f44c9063b9734b4",
            "0x000000000000000000000000c77f7fed3b5cc8249adc428c5f44c9063b9734b4"
          ],
          "data": "0x000000000000000000000000000000000000000000000000000000014c0c41e9",
          "blockHash": "0x973e2a2bac4c66d38d7023e5535f7a2b268d896893ce5963b3ce2699906bcd7a",
          "blockNumber": "0x731de0",
          "transactionHash": "0x5e6e84f24195004c378eaf588c2991eeac73d3532fcb1cfdbc77fe880620ab38",
          "transactionIndex": "0x6b",
          "logIndex": "0xb1",
          "removed": false
        },
        {
          "address": "0x8aafd3ede9adb0ff97c7aebce82a919afb1c8764",
          "topics": [
            "0x4afcb4a87cdbd9974efdb92ee48bc8d7cd0ae4bf217004db3d080cbaee652ca7"
          ],
          "data": "0x00000000000000000000000000000000000000000000000000000000679063680000000000000000000000000000000000000000000000000014db13d970b1a700000000000000000000000000000000000000000000000000000000f3a7e37b",
          "blockHash": "0x973e2a2bac4c66d38d7023e5535f7a2b268d896893ce5963b3ce2699906bcd7a",
          "blockNumber": "0x731de0",
          "transactionHash": "0x5e6e84f24195004c378eaf588c2991eeac73d3532fcb1cfdbc77fe880620ab38",
          "transactionIndex": "0x6b",
          "logIndex": "0xb2",
          "removed": false
        }
      ],
      "logsBloom": "0x00000000000000000000000000000000000000000600000000000000000000000000000000000000000000000000000000000000000000004000000000000000000000000000004000000008000000000000000000000000000000000000000000000000020000000000000000000800020000000000000000000010000000000000000000000000000000000000000000000000000000000000010000000000000000000000000000000000000000004000000000000000000000000000000000000002000000800000000000000000000000000000080000000000000020000000000000000000000000000000000000000000000000000000000000000000",
      "type": "0x2",
      "transactionHash": "0x5e6e84f24195004c378eaf588c2991eeac73d3532fcb1cfdbc77fe880620ab38",
      "transactionIndex": "0x6b",
      "blockHash": "0x973e2a2bac4c66d38d7023e5535f7a2b268d896893ce5963b3ce2699906bcd7a",
      "blockNumber": "0x731de0",
      "gasUsed": "0xfd1b",
      "effectiveGasPrice": "0x46fda56e",
      "from": "0xc77f7fed3b5cc8249adc428c5f44c9063b9734b4",
      "to": "0x8aafd3ede9adb0ff97c7aebce82a919afb1c8764",
      "contractAddress": null
    }
  ],
  "libraries": [],
  "pending": [],
  "returns": {},
  "timestamp": 1737515881,
  "chain": 11155111,
  "commit": "1d2fb70"
}