{
  "transactions": [
    {
      "hash": "0xe10aee419077e14c69f38f428e6f3dae8dfa0c136ddb9b6e30ff44b29328724a",
      "transactionType": "CALL",
      "contractName": null,
      "contractAddress": "0x5eb9cc76c3506942c1c0ead70e877dd5e4f00cb0",
      "function": "buy(address)",
      "arguments": [
        "0xC77f7fed3b5Cc8249aDc428c5F44C9063B9734b4"
      ],
      "transaction": {
        "from": "0xc77f7fed3b5cc8249adc428c5f44c9063b9734b4",
        "to": "0x5eb9cc76c3506942c1c0ead70e877dd5e4f00cb0",
        "gas": "0x156c8",
        "value": "0xde0b6b3a7640000",
        "input": "0xf088d547000000000000000000000000c77f7fed3b5cc8249adc428c5f44c9063b9734b4",
        "nonce": "0x135",
        "chainId": "0xaa36a7"
      },
      "additionalContracts": [],
      "isFixedGasLimit": false
    }
  ],
  "receipts": [
    {
      "status": "0x1",
      "cumulativeGasUsed": "0x12ca73a",
      "logs": [
        {
          "address": "0x5eb9cc76c3506942c1c0ead70e877dd5e4f00cb0",
          "topics": [
            "0xddf252ad1be2c89b69c2b068fc378daa952ba7f163c4a11628f55a4df523b3ef",
            "0x0000000000000000000000000000000000000000000000000000000000000000",
            "0x000000000000000000000000c77f7fed3b5cc8249adc428c5f44c9063b9734b4"
          ],
          "data": "0x000000000000000000000000000000000000000000000035aafd2e8bf1ea746a",
          "blockHash": "0xd91f1b6c7c5117be9f2be9bbed86fb1337acb05a754b30902a5a6ddf66fd2fd7",
          "blockNumber": "0x723b18",
          "transactionHash": "0xe10aee419077e14c69f38f428e6f3dae8dfa0c136ddb9b6e30ff44b29328724a",
          "transactionIndex": "0x3f",
          "logIndex": "0x1b9",
          "removed": false
        },
        {
          "address": "0x5eb9cc76c3506942c1c0ead70e877dd5e4f00cb0",
          "topics": [
            "0xddf252ad1be2c89b69c2b068fc378daa952ba7f163c4a11628f55a4df523b3ef",
            "0x0000000000000000000000000000000000000000000000000000000000000000",
            "0x000000000000000000000000c77f7fed3b5cc8249adc428c5f44c9063b9734b4"
          ],
          "data": "0x00000000000000000000000000000000000000000000000029accb2884573f86",
          "blockHash": "0xd91f1b6c7c5117be9f2be9bbed86fb1337acb05a754b30902a5a6ddf66fd2fd7",
          "blockNumber": "0x723b18",
          "transactionHash": "0xe10aee419077e14c69f38f428e6f3dae8dfa0c136ddb9b6e30ff44b29328724a",
          "transactionIndex": "0x3f",
          "logIndex": "0x1ba",
          "removed": false
        },
        {
          "address": "0x5eb9cc76c3506942c1c0ead70e877dd5e4f00cb0",
          "topics": [
            "0x4afcb4a87cdbd9974efdb92ee48bc8d7cd0ae4bf217004db3d080cbaee652ca7"
          ],
          "data": "0x000000000000000000000000000000000000000000000000000000006785b67400000000000000000000000000000000000000000000000000038d7f068fee9f0000000000000000000000000000000000000000000000000de0b6b3a7640000",
          "blockHash": "0xd91f1b6c7c5117be9f2be9bbed86fb1337acb05a754b30902a5a6ddf66fd2fd7",
          "blockNumber": "0x723b18",
          "transactionHash": "0xe10aee419077e14c69f38f428e6f3dae8dfa0c136ddb9b6e30ff44b29328724a",
          "transactionIndex": "0x3f",
          "logIndex": "0x1bb",
          "removed": false
        }
      ],
      "logsBloom": "0x00000000000000000000000000000000000000000000000000000000000000000000000000000000000000000000000000000000000000004000000000000000000000000000000000000008000000000000000000000000000000000000000000000000020000000000000004000800020000000000000000000010000000000000000000000000000000000000000000000000000000000000010000000000000000000000000000000000000000004000000000000000000000000000020000000002000000800000008000000000000000000000080000000000000020000000000000000000000000000000000000000000000000000000000000000000",
      "type": "0x2",
      "transactionHash": "0xe10aee419077e14c69f38f428e6f3dae8dfa0c136ddb9b6e30ff44b29328724a",
      "transactionIndex": "0x3f",
      "blockHash": "0xd91f1b6c7c5117be9f2be9bbed86fb1337acb05a754b30902a5a6ddf66fd2fd7",
      "blockNumber": "0x723b18",
      "gasUsed": "0xf82c",
      "effectiveGasPrice": "0x3322d8379",
      "from": "0xc77f7fed3b5cc8249adc428c5f44c9063b9734b4",
      "to": "0x5eb9cc76c3506942c1c0ead70e877dd5e4f00cb0",
      "contractAddress": null
    }
  ],
  "libraries": [],
  "pending": [],
  "returns": {},
  "timestamp": 1736816245,
  "chain": 11155111,
  "commit": "51a374b"
}