{
  "transactions": [
    {
      "hash": "0x26babd9fb0b717bd5bbc96895c95df27ce3ce941a6185e5daae342c6a76be63d",
      "transactionType": "CALL",
      "contractName": null,
      "contractAddress": "0x9a940ef65f8bf33332aa4faea921454828f0c80a",
      "function": "buy(address)",
      "arguments": [
        "0xF66076775AD1f36dd12C1f1b10C21d1aadf0D6dE"
      ],
      "transaction": {
        "from": "0xf66076775ad1f36dd12c1f1b10c21d1aadf0d6de",
        "to": "0x9a940ef65f8bf33332aa4faea921454828f0c80a",
        "gas": "0x14787",
        "value": "0x2386f26fc10000",
        "input": "0xf088d547000000000000000000000000f66076775ad1f36dd12c1f1b10c21d1aadf0d6de",
        "nonce": "0x6e",
        "chainId": "0xaa36a7"
      },
      "additionalContracts": [],
      "isFixedGasLimit": false
    }
  ],
  "receipts": [
    {
      "status": "0x1",
      "cumulativeGasUsed": "0x12029d8",
      "logs": [
        {
          "address": "0x9a940ef65f8bf33332aa4faea921454828f0c80a",
          "topics": [
            "0xddf252ad1be2c89b69c2b068fc378daa952ba7f163c4a11628f55a4df523b3ef",
            "0x0000000000000000000000000000000000000000000000000000000000000000",
            "0x000000000000000000000000f66076775ad1f36dd12c1f1b10c21d1aadf0d6de"
          ],
          "data": "0x0000000000000000000000000000000000000000000000003e0052db3fb6718d",
          "blockHash": "0x99f22991d31e6589ef26daad6ab4a480bf6dcfbd5ecc91e977fba06956cac8d7",
          "blockNumber": "0x73d4d3",
          "transactionHash": "0x26babd9fb0b717bd5bbc96895c95df27ce3ce941a6185e5daae342c6a76be63d",
          "transactionIndex": "0x9c",
          "logIndex": "0x124",
          "removed": false
        },
        {
          "address": "0x9a940ef65f8bf33332aa4faea921454828f0c80a",
          "topics": [
            "0x4afcb4a87cdbd9974efdb92ee48bc8d7cd0ae4bf217004db3d080cbaee652ca7"
          ],
          "data": "0x0000000000000000000000000000000000000000000000000000000067993d640000000000000000000000000000000000000000000000000007df8f7846ce4e000000000000000000000000000000000000000000000000002386f26fc10000",
          "blockHash": "0x99f22991d31e6589ef26daad6ab4a480bf6dcfbd5ecc91e977fba06956cac8d7",
          "blockNumber": "0x73d4d3",
          "transactionHash": "0x26babd9fb0b717bd5bbc96895c95df27ce3ce941a6185e5daae342c6a76be63d",
          "transactionIndex": "0x9c",
          "logIndex": "0x125",
          "removed": false
        }
      ],
      "logsBloom": "0x80000000000000040000000000000000000000000000000000000000000000000000000000000000000000000000000000000000000000004000000000000000000000000000000000000008000000000000000000000000000000000000000000000000020000000000800000000800220000000000000000000010000000000000000000000000000000000000000000000000000000000000000000000000000000000000000000000000000000004000000000000000000000000000000000000002000000000000000000000000000000000000000000000020000020000000000000000000000000200000000000000000000000000000000000000000",
      "type": "0x2",
      "transactionHash": "0x26babd9fb0b717bd5bbc96895c95df27ce3ce941a6185e5daae342c6a76be63d",
      "transactionIndex": "0x9c",
      "blockHash": "0x99f22991d31e6589ef26daad6ab4a480bf6dcfbd5ecc91e977fba06956cac8d7",
      "blockNumber": "0x73d4d3",
      "gasUsed": "0xed20",
      "effectiveGasPrice": "0x3b0779b8",
      "from": "0xf66076775ad1f36dd12c1f1b10c21d1aadf0d6de",
      "to": "0x9a940ef65f8bf33332aa4faea921454828f0c80a",
      "contractAddress": null
    }
  ],
  "libraries": [],
  "pending": [],
  "returns": {},
  "timestamp": 1738095973,
  "chain": 11155111,
  "commit": "b9c1499"
}