{
  "transactions": [
    {
      "hash": "0xfd84da5e3e544cf197e5dd28098219bd867eed9222c70e26128afcfdfe09a9a5",
      "transactionType": "CALL",
      "contractName": null,
      "contractAddress": "0x8aafd3ede9adb0ff97c7aebce82a919afb1c8764",
      "function": "sell(uint256)",
      "arguments": [
        "1463262151216754615"
      ],
      "transaction": {
        "from": "0xc77f7fed3b5cc8249adc428c5f44c9063b9734b4",
        "to": "0x8aafd3ede9adb0ff97c7aebce82a919afb1c8764",
        "gas": "0x15dca",
        "value": "0x0",
        "input": "0xe4849b32000000000000000000000000000000000000000000000000144e8d2c808c6fb7",
        "nonce": "0x15c6",
        "chainId": "0xaa36a7"
      },
      "additionalContracts": [],
      "isFixedGasLimit": false
    }
  ],
  "receipts": [
    {
      "status": "0x1",
      "cumulativeGasUsed": "0x1093e6c",
      "logs": [
        {
          "address": "0x8aafd3ede9adb0ff97c7aebce82a919afb1c8764",
          "topics": [
            "0xddf252ad1be2c89b69c2b068fc378daa952ba7f163c4a11628f55a4df523b3ef",
            "0x000000000000000000000000c77f7fed3b5cc8249adc428c5f44c9063b9734b4",
            "0x0000000000000000000000000000000000000000000000000000000000000000"
          ],
          "data": "0x0000000000000000000000000000000000000000000000001424f68a5aa7fc23",
          "blockHash": "0x624c92bf988c1609b7afa9bddc29b98e291c48c42104472b52ac5dceb0ecd39a",
          "blockNumber": "0x731d41",
          "transactionHash": "0xfd84da5e3e544cf197e5dd28098219bd867eed9222c70e26128afcfdfe09a9a5",
          "transactionIndex": "0x60",
          "logIndex": "0x84",
          "removed": false
        },
        {
          "address": "0x8aafd3ede9adb0ff97c7aebce82a919afb1c8764",
          "topics": [
            "0xddf252ad1be2c89b69c2b068fc378daa952ba7f163c4a11628f55a4df523b3ef",
            "0x000000000000000000000000c77f7fed3b5cc8249adc428c5f44c9063b9734b4",
            "0x000000000000000000000000c77f7fed3b5cc8249adc428c5f44c9063b9734b4"
          ],
          "data": "0x000000000000000000000000000000000000000000000000002996a225e47394",
          "blockHash": "0x624c92bf988c1609b7afa9bddc29b98e291c48c42104472b52ac5dceb0ecd39a",
          "blockNumber": "0x731d41",
          "transactionHash": "0xfd84da5e3e544cf197e5dd28098219bd867eed9222c70e26128afcfdfe09a9a5",
          "transactionIndex": "0x60",
          "logIndex": "0x85",
          "removed": false
        },
        {
          "address": "0x8aafd3ede9adb0ff97c7aebce82a919afb1c8764",
          "topics": [
            "0x4afcb4a87cdbd9974efdb92ee48bc8d7cd0ae4bf217004db3d080cbaee652ca7"
          ],
          "data": "0x0000000000000000000000000000000000000000000000000000000067905bf4000000000000000000000000000000000000000000000000001364586430360b000000000000000000000000000000000000000000000000001c5fe784c39f4c",
          "blockHash": "0x624c92bf988c1609b7afa9bddc29b98e291c48c42104472b52ac5dceb0ecd39a",
          "blockNumber": "0x731d41",
          "transactionHash": "0xfd84da5e3e544cf197e5dd28098219bd867eed9222c70e26128afcfdfe09a9a5",
          "transactionIndex": "0x60",
          "logIndex": "0x86",
          "removed": false
        }
      ],
      "logsBloom": "0x00000000000000000000000000000000000000000600000000000000000000000000000000000000000000000000000000000000000000004000000000000000000000000000004000000008000000000000000000000000000000000000000000000000020000000000000000000800020000000000000000000010000000000000000000000000000000000000000000000000000000000000010000000000000000000000000000000000000000004000000000000000000000000000000000000002000000800000000000000000000000000000080000000000000020000000000000000000000000000000000000000000000000000000000000000000",
      "type": "0x2",
      "transactionHash": "0xfd84da5e3e544cf197e5dd28098219bd867eed9222c70e26128afcfdfe09a9a5",
      "transactionIndex": "0x60",
      "blockHash": "0x624c92bf988c1609b7afa9bddc29b98e291c48c42104472b52ac5dceb0ecd39a",
      "blockNumber": "0x731d41",
      "gasUsed": "0xfd3f",
      "effectiveGasPrice": "0x695eab4c",
      "from": "0xc77f7fed3b5cc8249adc428c5f44c9063b9734b4",
      "to": "0x8aafd3ede9adb0ff97c7aebce82a919afb1c8764",
      "contractAddress": null
    }
  ],
  "libraries": [],
  "pending": [],
  "returns": {},
  "timestamp": 1737513972,
  "chain": 11155111,
  "commit": "1d2fb70"
}