{
  "transactions": [
    {
      "hash": "0xcd092d247b6d14c9d4ae4c72c29e829c5700714df55fa7453f369e54b8ff79a0",
      "transactionType": "CALL",
      "contractName": null,
      "contractAddress": "0x270e88f8683660553e8ba4eb2ad7c91a1710d769",
      "function": "buy(address)",
      "arguments": [
        "0xC77f7fed3b5Cc8249aDc428c5F44C9063B9734b4"
      ],
      "transaction": {
        "from": "0xc77f7fed3b5cc8249adc428c5f44c9063b9734b4",
        "to": "0x270e88f8683660553e8ba4eb2ad7c91a1710d769",
        "gas": "0x1b30c",
        "value": "0xde0b6b3a7640000",
        "input": "0xf088d547000000000000000000000000c77f7fed3b5cc8249adc428c5f44c9063b9734b4",
        "nonce": "0x69b",
        "chainId": "0xaa36a7"
      },
      "additionalContracts": [],
      "isFixedGasLimit": false
    }
  ],
  "receipts": [
    {
      "status": "0x1",
      "cumulativeGasUsed": "0x60c70d",
      "logs": [
        {
          "address": "0x270e88f8683660553e8ba4eb2ad7c91a1710d769",
          "topics": [
            "0xddf252ad1be2c89b69c2b068fc378daa952ba7f163c4a11628f55a4df523b3ef",
            "0x0000000000000000000000000000000000000000000000000000000000000000",
            "0x000000000000000000000000c77f7fed3b5cc8249adc428c5f44c9063b9734b4"
          ],
          "data": "0x000000000000000000000000000000000000000000000028c5f3bcc9d9ace9e5",
          "blockHash": "0x0d9c7fb9714da9bf2b317dd40c006c49e28c3562e971f58bba8d16627ffaea0b",
          "blockNumber": "0x72539f",
          "transactionHash": "0xcd092d247b6d14c9d4ae4c72c29e829c5700714df55fa7453f369e54b8ff79a0",
          "transactionIndex": "0x34",
          "logIndex": "0x77",
          "removed": false
        },
        {
          "address": "0x270e88f8683660553e8ba4eb2ad7c91a1710d769",
          "topics": [
            "0xddf252ad1be2c89b69c2b068fc378daa952ba7f163c4a11628f55a4df523b3ef",
            "0x0000000000000000000000000000000000000000000000000000000000000000",
            "0x000000000000000000000000c77f7fed3b5cc8249adc428c5f44c9063b9734b4"
          ],
          "data": "0x0000000000000000000000000000000000000000000000001fa96d040177c6df",
          "blockHash": "0x0d9c7fb9714da9bf2b317dd40c006c49e28c3562e971f58bba8d16627ffaea0b",
          "blockNumber": "0x72539f",
          "transactionHash": "0xcd092d247b6d14c9d4ae4c72c29e829c5700714df55fa7453f369e54b8ff79a0",
          "transactionIndex": "0x34",
          "logIndex": "0x78",
          "removed": false
        },
        {
          "address": "0x270e88f8683660553e8ba4eb2ad7c91a1710d769",
          "topics": [
            "0x4afcb4a87cdbd9974efdb92ee48bc8d7cd0ae4bf217004db3d080cbaee652ca7"
          ],
          "data": "0x000000000000000000000000000000000000000000000000000000006786dd7c0000000000000000000000000000000000000000000000000004ad3b631208160000000000000000000000000000000000000000000000000de0b6b3a7640000",
          "blockHash": "0x0d9c7fb9714da9bf2b317dd40c006c49e28c3562e971f58bba8d16627ffaea0b",
          "blockNumber": "0x72539f",
          "transactionHash": "0xcd092d247b6d14c9d4ae4c72c29e829c5700714df55fa7453f369e54b8ff79a0",
          "transactionIndex": "0x34",
          "logIndex": "0x79",
          "removed": false
        }
      ],
      "logsBloom": "0x00000000000000000000000000000000000000000000000000000000000000000000000000000000000000000000000020000000000000004000000000000000000000000000000000000008000000000000000000000000000000000000000000000000020000000000000000000800020000000000000000000010000000000000000000010000000000000000000000000000000000000000010000000000000000000000000000000000000000004000000000000000000000000000000000000002000000800000000000000000000000000000080000008000000020000000000000000000000000000000000000000000000000000000000000000000",
      "type": "0x2",
      "transactionHash": "0xcd092d247b6d14c9d4ae4c72c29e829c5700714df55fa7453f369e54b8ff79a0",
      "transactionIndex": "0x34",
      "blockHash": "0x0d9c7fb9714da9bf2b317dd40c006c49e28c3562e971f58bba8d16627ffaea0b",
      "blockNumber": "0x72539f",
      "gasUsed": "0x13af8",
      "effectiveGasPrice": "0x1d7e2c4b3",
      "from": "0xc77f7fed3b5cc8249adc428c5f44c9063b9734b4",
      "to": "0x270e88f8683660553e8ba4eb2ad7c91a1710d769",
      "contractAddress": null
    }
  ],
  "libraries": [],
  "pending": [],
  "returns": {},
  "timestamp": 1736891774,
  "chain": 11155111,
  "commit": "51a374b"
}