{
  "transactions": [
    {
      "hash": "0xdb1edde61783fc0dd05bc43c722586c1bff88a400fbc30ceacca62a3fcf2a787",
      "transactionType": "CALL",
      "contractName": null,
      "contractAddress": "0x8aafd3ede9adb0ff97c7aebce82a919afb1c8764",
      "function": "sell(uint256)",
      "arguments": [
        "19193820397502281"
      ],
      "transaction": {
        "from": "0xc77f7fed3b5cc8249adc428c5f44c9063b9734b4",
        "to": "0x8aafd3ede9adb0ff97c7aebce82a919afb1c8764",
        "gas": "0x1724d",
        "value": "0x0",
        "input": "0xe4849b32000000000000000000000000000000000000000000000000004430ad8eacff49",
        "nonce": "0x1336",
        "chainId": "0xaa36a7"
      },
      "additionalContracts": [],
      "isFixedGasLimit": false
    }
  ],
  "receipts": [
    {
      "status": "0x1",
      "cumulativeGasUsed": "0x864adf",
      "logs": [
        {
          "address": "0x8aafd3ede9adb0ff97c7aebce82a919afb1c8764",
          "topics": [
            "0xddf252ad1be2c89b69c2b068fc378daa952ba7f163c4a11628f55a4df523b3ef",
            "0x000000000000000000000000c77f7fed3b5cc8249adc428c5f44c9063b9734b4",
            "0x0000000000000000000000000000000000000000000000000000000000000000"
          ],
          "data": "0x0000000000000000000000000000000000000000000000000043a50647e70157",
          "blockHash": "0x61445d1048d732eba99b59f990a759f2fa22fe3ac56787514a0c5e64608eb56a",
          "blockNumber": "0x731a4b",
          "transactionHash": "0xdb1edde61783fc0dd05bc43c722586c1bff88a400fbc30ceacca62a3fcf2a787",
          "transactionIndex": "0x77",
          "logIndex": "0x7d",
          "removed": false
        },
        {
          "address": "0x8aafd3ede9adb0ff97c7aebce82a919afb1c8764",
          "topics": [
            "0xddf252ad1be2c89b69c2b068fc378daa952ba7f163c4a11628f55a4df523b3ef",
            "0x000000000000000000000000c77f7fed3b5cc8249adc428c5f44c9063b9734b4",
            "0x000000000000000000000000c77f7fed3b5cc8249adc428c5f44c9063b9734b4"
          ],
          "data": "0x00000000000000000000000000000000000000000000000000008ba746c5fdf2",
          "blockHash": "0x61445d1048d732eba99b59f990a759f2fa22fe3ac56787514a0c5e64608eb56a",
          "blockNumber": "0x731a4b",
          "transactionHash": "0xdb1edde61783fc0dd05bc43c722586c1bff88a400fbc30ceacca62a3fcf2a787",
          "transactionIndex": "0x77",
          "logIndex": "0x7e",
          "removed": false
        },
        {
          "address": "0x8aafd3ede9adb0ff97c7aebce82a919afb1c8764",
          "topics": [
            "0x4afcb4a87cdbd9974efdb92ee48bc8d7cd0ae4bf217004db3d080cbaee652ca7"
          ],
          "data": "0x0000000000000000000000000000000000000000000000000000000067903854000000000000000000000000000000000000000000000000000bdd61f967f1c000000000000000000000000000000000000000000000000000003a4c88390eac",
          "blockHash": "0x61445d1048d732eba99b59f990a759f2fa22fe3ac56787514a0c5e64608eb56a",
          "blockNumber": "0x731a4b",
          "transactionHash": "0xdb1edde61783fc0dd05bc43c722586c1bff88a400fbc30ceacca62a3fcf2a787",
          "transactionIndex": "0x77",
          "logIndex": "0x7f",
          "removed": false
        }
      ],
      "logsBloom": "0x00000000000000000000000000000000000000000600000000000000000000000000000000000000000000000000000000000000000000004000000000000000000000000000004000000008000000000000000000000000000000000000000000000000020000000000000000000800020000000000000000000010000000000000000000000000000000000000000000000000000000000000010000000000000000000000000000000000000000004000000000000000000000000000000000000002000000800000000000000000000000000000080000000000000020000000000000000000000000000000000000000000000000000000000000000000",
      "type": "0x2",
      "transactionHash": "0xdb1edde61783fc0dd05bc43c722586c1bff88a400fbc30ceacca62a3fcf2a787",
      "transactionIndex": "0x77",
      "blockHash": "0x61445d1048d732eba99b59f990a759f2fa22fe3ac56787514a0c5e64608eb56a",
      "blockNumber": "0x731a4b",
      "gasUsed": "0xfd33",
      "effectiveGasPrice": "0x4c45f874",
      "from": "0xc77f7fed3b5cc8249adc428c5f44c9063b9734b4",
      "to": "0x8aafd3ede9adb0ff97c7aebce82a919afb1c8764",
      "contractAddress": null
    }
  ],
  "libraries": [],
  "pending": [],
  "returns": {},
  "timestamp": 1737504854,
  "chain": 11155111,
  "commit": "1d2fb70"
}