{
  "transactions": [
    {
      "hash": "0x8e53ed2622c17ce6f19b9c36b92444ce821121e26a219faba9d6a5be9fb76fb7",
      "transactionType": "CALL",
      "contractName": null,
      "contractAddress": "0x270e88f8683660553e8ba4eb2ad7c91a1710d769",
      "function": "buy(address)",
      "arguments": [
        "0xC77f7fed3b5Cc8249aDc428c5F44C9063B9734b4"
      ],
      "transaction": {
        "from": "0xc77f7fed3b5cc8249adc428c5f44c9063b9734b4",
        "to": "0x270e88f8683660553e8ba4eb2ad7c91a1710d769",
        "gas": "0x1b30c",
        "value": "0xde0b6b3a7640000",
        "input": "0xf088d547000000000000000000000000c77f7fed3b5cc8249adc428c5f44c9063b9734b4",
        "nonce": "0x5a8",
        "chainId": "0xaa36a7"
      },
      "additionalContracts": [],
      "isFixedGasLimit": false
    }
  ],
  "receipts": [
    {
      "status": "0x1",
      "cumulativeGasUsed": "0x63ff62",
      "logs": [
        {
          "address": "0x270e88f8683660553e8ba4eb2ad7c91a1710d769",
          "topics": [
            "0xddf252ad1be2c89b69c2b068fc378daa952ba7f163c4a11628f55a4df523b3ef",
            "0x0000000000000000000000000000000000000000000000000000000000000000",
            "0x000000000000000000000000c77f7fed3b5cc8249adc428c5f44c9063b9734b4"
          ],
          "data": "0x000000000000000000000000000000000000000000000033e6001b1fdd391072",
          "blockHash": "0xe788ec096aefddb30f04d2645e3a5eb754a82b1d25b0b29f4a1b389e9d8f07f8",
          "blockNumber": "0x725262",
          "transactionHash": "0x8e53ed2622c17ce6f19b9c36b92444ce821121e26a219faba9d6a5be9fb76fb7",
          "transactionIndex": "0x44",
          "logIndex": "0x5f",
          "removed": false
        },
        {
          "address": "0x270e88f8683660553e8ba4eb2ad7c91a1710d769",
          "topics": [
            "0xddf252ad1be2c89b69c2b068fc378daa952ba7f163c4a11628f55a4df523b3ef",
            "0x0000000000000000000000000000000000000000000000000000000000000000",
            "0x000000000000000000000000c77f7fed3b5cc8249adc428c5f44c9063b9734b4"
          ],
          "data": "0x000000000000000000000000000000000000000000000000284d08524103c0bf",
          "blockHash": "0xe788ec096aefddb30f04d2645e3a5eb754a82b1d25b0b29f4a1b389e9d8f07f8",
          "blockNumber": "0x725262",
          "transactionHash": "0x8e53ed2622c17ce6f19b9c36b92444ce821121e26a219faba9d6a5be9fb76fb7",
          "transactionIndex": "0x44",
          "logIndex": "0x60",
          "removed": false
        },
        {
          "address": "0x270e88f8683660553e8ba4eb2ad7c91a1710d769",
          "topics": [
            "0x4afcb4a87cdbd9974efdb92ee48bc8d7cd0ae4bf217004db3d080cbaee652ca7"
          ],
          "data": "0x000000000000000000000000000000000000000000000000000000006786ce880000000000000000000000000000000000000000000000000003ac9c23361f6b0000000000000000000000000000000000000000000000000de0b6b3a7640000",
          "blockHash": "0xe788ec096aefddb30f04d2645e3a5eb754a82b1d25b0b29f4a1b389e9d8f07f8",
          "blockNumber": "0x725262",
          "transactionHash": "0x8e53ed2622c17ce6f19b9c36b92444ce821121e26a219faba9d6a5be9fb76fb7",
          "transactionIndex": "0x44",
          "logIndex": "0x61",
          "removed": false
        }
      ],
      "logsBloom": "0x00000000000000000000000000000000000000000000000000000000000000000000000000000000000000000000000020000000000000004000000000000000000000000000000000000008000000000000000000000000000000000000000000000000020000000000000000000800020000000000000000000010000000000000000000010000000000000000000000000000000000000000010000000000000000000000000000000000000000004000000000000000000000000000000000000002000000800000000000000000000000000000080000008000000020000000000000000000000000000000000000000000000000000000000000000000",
      "type": "0x2",
      "transactionHash": "0x8e53ed2622c17ce6f19b9c36b92444ce821121e26a219faba9d6a5be9fb76fb7",
      "transactionIndex": "0x44",
      "blockHash": "0xe788ec096aefddb30f04d2645e3a5eb754a82b1d25b0b29f4a1b389e9d8f07f8",
      "blockNumber": "0x725262",
      "gasUsed": "0x13af8",
      "effectiveGasPrice": "0x4b7bc1f43",
      "from": "0xc77f7fed3b5cc8249adc428c5f44c9063b9734b4",
      "to": "0x270e88f8683660553e8ba4eb2ad7c91a1710d769",
      "contractAddress": null
    }
  ],
  "libraries": [],
  "pending": [],
  "returns": {},
  "timestamp": 1736887944,
  "chain": 11155111,
  "commit": "51a374b"
}