{
  "transactions": [
    {
      "hash": "0xb3e34e14c92bf85b53701a43b7bdb5b5b25b8f84a417b7b8aa48aa2ac2cbf46a",
      "transactionType": "CALL",
      "contractName": null,
      "contractAddress": "0xbf4a322f1496e5c3d34a9bcdb4c60567b38c7de2",
      "function": "sell(uint256)",
      "arguments": [
        "973928044664208442335"
      ],
      "transaction": {
        "from": "0xc77f7fed3b5cc8249adc428c5f44c9063b9734b4",
        "to": "0xbf4a322f1496e5c3d34a9bcdb4c60567b38c7de2",
        "gas": "0x16fea",
        "value": "0x0",
        "input": "0xe4849b32000000000000000000000000000000000000000000000034cbf77c87b8eb43df",
        "nonce": "0xddf",
        "chainId": "0xaa36a7"
      },
      "additionalContracts": [],
      "isFixedGasLimit": false
    }
  ],
  "receipts": [
    {
      "status": "0x1",
      "cumulativeGasUsed": "0xc29a3e",
      "logs": [
        {
          "address": "0xbf4a322f1496e5c3d34a9bcdb4c60567b38c7de2",
          "topics": [
            "0xddf252ad1be2c89b69c2b068fc378daa952ba7f163c4a11628f55a4df523b3ef",
            "0x000000000000000000000000c77f7fed3b5cc8249adc428c5f44c9063b9734b4",
            "0x0000000000000000000000000000000000000000000000000000000000000000"
          ],
          "data": "0x000000000000000000000000000000000000000000000034cbf77c87b8eb43df",
          "blockHash": "0x1af39601841871541b51c943ccc660855d179722e0eb89f358052df29516af6c",
          "blockNumber": "0x7266be",
          "transactionHash": "0xb3e34e14c92bf85b53701a43b7bdb5b5b25b8f84a417b7b8aa48aa2ac2cbf46a",
          "transactionIndex": "0x56",
          "logIndex": "0x91",
          "removed": false
        },
        {
          "address": "0xbf4a322f1496e5c3d34a9bcdb4c60567b38c7de2",
          "topics": [
            "0x4afcb4a87cdbd9974efdb92ee48bc8d7cd0ae4bf217004db3d080cbaee652ca7"
          ],
          "data": "0x000000000000000000000000000000000000000000000000000000006787c3ec00000000000000000000000000000000000000000000000000039f553c0076770000000000000000000000000000000000000000000000000dc7e3d3f2de8d48",
          "blockHash": "0x1af39601841871541b51c943ccc660855d179722e0eb89f358052df29516af6c",
          "blockNumber": "0x7266be",
          "transactionHash": "0xb3e34e14c92bf85b53701a43b7bdb5b5b25b8f84a417b7b8aa48aa2ac2cbf46a",
          "transactionIndex": "0x56",
          "logIndex": "0x92",
          "removed": false
        }
      ],
      "logsBloom": "0x00000000000000000000000000000000000000000000000000000000000000000000000000000000000000000000000000000000000000004000000000000000000000000000000000000008000000000000001000000000000000000000000000000000020000000000000000000800020000000000000000000010000000000000000000000000000000000000000000000000000008000000010000000000000000000000000000000000000000004000000000000000000000000000000000000002000000800000000000001000000000000000080000000000000020000000000000000000000000000000000000000000000000000000000000000000",
      "type": "0x2",
      "transactionHash": "0xb3e34e14c92bf85b53701a43b7bdb5b5b25b8f84a417b7b8aa48aa2ac2cbf46a",
      "transactionIndex": "0x56",
      "blockHash": "0x1af39601841871541b51c943ccc660855d179722e0eb89f358052df29516af6c",
      "blockNumber": "0x7266be",
      "gasUsed": "0xfb91",
      "effectiveGasPrice": "0x1e1b75607",
      "from": "0xc77f7fed3b5cc8249adc428c5f44c9063b9734b4",
      "to": "0xbf4a322f1496e5c3d34a9bcdb4c60567b38c7de2",
      "contractAddress": null
    }
  ],
  "libraries": [],
  "pending": [],
  "returns": {},
  "timestamp": 1736950765,
  "chain": 11155111,
  "commit": "51a374b"
}