{
  "transactions": [
    {
      "hash": "0x1b98bc9efcede95f9c0bb14a201448c48b36dec86648a1aa36b6b7a44ec21e3f",
      "transactionType": "CALL",
      "contractName": null,
      "contractAddress": "0x270e88f8683660553e8ba4eb2ad7c91a1710d769",
      "function": "sell(uint256)",
      "arguments": [
        "990134917650425560053"
      ],
      "transaction": {
        "from": "0xc77f7fed3b5cc8249adc428c5f44c9063b9734b4",
        "to": "0x270e88f8683660553e8ba4eb2ad7c91a1710d769",
        "gas": "0x16fec",
        "value": "0x0",
        "input": "0xe4849b32000000000000000000000000000000000000000000000035ace1dda4b843bbf5",
        "nonce": "0x4e7",
        "chainId": "0xaa36a7"
      },
      "additionalContracts": [],
      "isFixedGasLimit": false
    }
  ],
  "receipts": [
    {
      "status": "0x1",
      "cumulativeGasUsed": "0x9468a4",
      "logs": [
        {
          "address": "0x270e88f8683660553e8ba4eb2ad7c91a1710d769",
          "topics": [
            "0xddf252ad1be2c89b69c2b068fc378daa952ba7f163c4a11628f55a4df523b3ef",
            "0x000000000000000000000000c77f7fed3b5cc8249adc428c5f44c9063b9734b4",
            "0x0000000000000000000000000000000000000000000000000000000000000000"
          ],
          "data": "0x000000000000000000000000000000000000000000000035ace1dda4b843bbf5",
          "blockHash": "0x4ce7048779507a5dd8e7eaebaa734f599fcc4410d2cd953010a66d8f550ac4fb",
          "blockNumber": "0x725176",
          "transactionHash": "0x1b98bc9efcede95f9c0bb14a201448c48b36dec86648a1aa36b6b7a44ec21e3f",
          "transactionIndex": "0x44",
          "logIndex": "0x93",
          "removed": false
        },
        {
          "address": "0x270e88f8683660553e8ba4eb2ad7c91a1710d769",
          "topics": [
            "0x4afcb4a87cdbd9974efdb92ee48bc8d7cd0ae4bf217004db3d080cbaee652ca7"
          ],
          "data": "0x000000000000000000000000000000000000000000000000000000006786c36c0000000000000000000000000000000000000000000000000003906bf57128120000000000000000000000000000000000000000000000000dc84247f5cd4565",
          "blockHash": "0x4ce7048779507a5dd8e7eaebaa734f599fcc4410d2cd953010a66d8f550ac4fb",
          "blockNumber": "0x725176",
          "transactionHash": "0x1b98bc9efcede95f9c0bb14a201448c48b36dec86648a1aa36b6b7a44ec21e3f",
          "transactionIndex": "0x44",
          "logIndex": "0x94",
          "removed": false
        }
      ],
      "logsBloom": "0x00000000000000000000000000000000000000000000000000000000000000000000000000000000000000000000000020000000000000004000000000000000000000000000000000000008000000000000000000000000000000000000000000000000020000000000000000000800020000000000000000000010000000000000000000010000000000000000000000000000000000000000010000000000000000000000000000000000000000004000000000000000000000000000000000000002000000800000000000000000000000000000080000008000000020000000000000000000000000000000000000000000000000000000000000000000",
      "type": "0x2",
      "transactionHash": "0x1b98bc9efcede95f9c0bb14a201448c48b36dec86648a1aa36b6b7a44ec21e3f",
      "transactionIndex": "0x44",
      "blockHash": "0x4ce7048779507a5dd8e7eaebaa734f599fcc4410d2cd953010a66d8f550ac4fb",
      "blockNumber": "0x725176",
      "gasUsed": "0xfb93",
      "effectiveGasPrice": "0x46709d02b",
      "from": "0xc77f7fed3b5cc8249adc428c5f44c9063b9734b4",
      "to": "0x270e88f8683660553e8ba4eb2ad7c91a1710d769",
      "contractAddress": null
    }
  ],
  "libraries": [],
  "pending": [],
  "returns": {},
  "timestamp": 1736885101,
  "chain": 11155111,
  "commit": "51a374b"
}