{
  "transactions": [
    {
      "hash": "0x38754486cc02f360f2f6a46bf88bf58f2423414f5936f09bb4d8d717095f5bdb",
      "transactionType": "CALL",
      "contractName": null,
      "contractAddress": "0x8aafd3ede9adb0ff97c7aebce82a919afb1c8764",
      "function": "sell(uint256)",
      "arguments": [
        "185303647"
      ],
      "transaction": {
        "from": "0xc77f7fed3b5cc8249adc428c5f44c9063b9734b4",
        "to": "0x8aafd3ede9adb0ff97c7aebce82a919afb1c8764",
        "gas": "0x14e6c",
        "value": "0x0",
        "input": "0xe4849b32000000000000000000000000000000000000000000000000000000000b0b825f",
        "nonce": "0x10ab",
        "chainId": "0xaa36a7"
      },
      "additionalContracts": [],
      "isFixedGasLimit": false
    }
  ],
  "receipts": [
    {
      "status": "0x1",
      "cumulativeGasUsed": "0x88b980",
      "logs": [
        {
          "address": "0x8aafd3ede9adb0ff97c7aebce82a919afb1c8764",
          "topics": [
            "0xddf252ad1be2c89b69c2b068fc378daa952ba7f163c4a11628f55a4df523b3ef",
            "0x000000000000000000000000c77f7fed3b5cc8249adc428c5f44c9063b9734b4",
            "0x0000000000000000000000000000000000000000000000000000000000000000"
          ],
          "data": "0x000000000000000000000000000000000000000000000000000000000af4e3a2",
          "blockHash": "0x5690a4f524cead45c004038619079185c0ca094869ee01ec48e563036c628ceb",
          "blockNumber": "0x73173e",
          "transactionHash": "0x38754486cc02f360f2f6a46bf88bf58f2423414f5936f09bb4d8d717095f5bdb",
          "transactionIndex": "0x5b",
          "logIndex": "0x81",
          "removed": false
        },
        {
          "address": "0x8aafd3ede9adb0ff97c7aebce82a919afb1c8764",
          "topics": [
            "0xddf252ad1be2c89b69c2b068fc378daa952ba7f163c4a11628f55a4df523b3ef",
            "0x000000000000000000000000c77f7fed3b5cc8249adc428c5f44c9063b9734b4",
            "0x000000000000000000000000c77f7fed3b5cc8249adc428c5f44c9063b9734b4"
          ],
          "data": "0x0000000000000000000000000000000000000000000000000000000000169ebd",
          "blockHash": "0x5690a4f524cead45c004038619079185c0ca094869ee01ec48e563036c628ceb",
          "blockNumber": "0x73173e",
          "transactionHash": "0x38754486cc02f360f2f6a46bf88bf58f2423414f5936f09bb4d8d717095f5bdb",
          "transactionIndex": "0x5b",
          "logIndex": "0x82",
          "removed": false
        },
        {
          "address": "0x8aafd3ede9adb0ff97c7aebce82a919afb1c8764",
          "topics": [
            "0x4afcb4a87cdbd9974efdb92ee48bc8d7cd0ae4bf217004db3d080cbaee652ca7"
          ],
          "data": "0x00000000000000000000000000000000000000000000000000000000679013ac0000000000000000000000000000000000000000000000000004ff16468fa44b000000000000000000000000000000000000000000000000000000000003f9fd",
          "blockHash": "0x5690a4f524cead45c004038619079185c0ca094869ee01ec48e563036c628ceb",
          "blockNumber": "0x73173e",
          "transactionHash": "0x38754486cc02f360f2f6a46bf88bf58f2423414f5936f09bb4d8d717095f5bdb",
          "transactionIndex": "0x5b",
          "logIndex": "0x83",
          "removed": false
        }
      ],
      "logsBloom": "0x00000000000000000000000000000000000000000600000000000000000000000000000000000000000000000000000000000000000000004000000000000000000000000000004000000008000000000000000000000000000000000000000000000000020000000000000000000800020000000000000000000010000000000000000000000000000000000000000000000000000000000000010000000000000000000000000000000000000000004000000000000000000000000000000000000002000000800000000000000000000000000000080000000000000020000000000000000000000000000000000000000000000000000000000000000000",
      "type": "0x2",
      "transactionHash": "0x38754486cc02f360f2f6a46bf88bf58f2423414f5936f09bb4d8d717095f5bdb",
      "transactionIndex": "0x5b",
      "blockHash": "0x5690a4f524cead45c004038619079185c0ca094869ee01ec48e563036c628ceb",
      "blockNumber": "0x73173e",
      "gasUsed": "0xf21f",
      "effectiveGasPrice": "0x4282ff28",
      "from": "0xc77f7fed3b5cc8249adc428c5f44c9063b9734b4",
      "to": "0x8aafd3ede9adb0ff97c7aebce82a919afb1c8764",
      "contractAddress": null
    }
  ],
  "libraries": [],
  "pending": [],
  "returns": {},
  "timestamp": 1737495470,
  "chain": 11155111,
  "commit": "1d2fb70"
}