{
  "transactions": [
    {
      "hash": "0x6a106ccd7dad9398020956c2bbc8b63ba9bc91c70c9fc130557ba836e0d979eb",
      "transactionType": "CALL",
      "contractName": null,
      "contractAddress": "0xbf4a322f1496e5c3d34a9bcdb4c60567b38c7de2",
      "function": "buy(address)",
      "arguments": [
        "0xC77f7fed3b5Cc8249aDc428c5F44C9063B9734b4"
      ],
      "transaction": {
        "from": "0xc77f7fed3b5cc8249adc428c5f44c9063b9734b4",
        "to": "0xbf4a322f1496e5c3d34a9bcdb4c60567b38c7de2",
        "gas": "0x1b309",
        "value": "0xde0b6b3a7640000",
        "input": "0xf088d547000000000000000000000000c77f7fed3b5cc8249adc428c5f44c9063b9734b4",
        "nonce": "0xe2e",
        "chainId": "0xaa36a7"
      },
      "additionalContracts": [],
      "isFixedGasLimit": false
    }
  ],
  "receipts": [
    {
      "status": "0x1",
      "cumulativeGasUsed": "0x155cb86",
      "logs": [
        {
          "address": "0xbf4a322f1496e5c3d34a9bcdb4c60567b38c7de2",
          "topics": [
            "0xddf252ad1be2c89b69c2b068fc378daa952ba7f163c4a11628f55a4df523b3ef",
            "0x0000000000000000000000000000000000000000000000000000000000000000",
            "0x000000000000000000000000c77f7fed3b5cc8249adc428c5f44c9063b9734b4"
          ],
          "data": "0x000000000000000000000000000000000000000000000034946e2d17b1e3c369",
          "blockHash": "0x123dc114de860f1e79ff14e68a5b57d422e8eab8e6fec2334fecd599ce03a0b4",
          "blockNumber": "0x72671e",
          "transactionHash": "0x6a106ccd7dad9398020956c2bbc8b63ba9bc91c70c9fc130557ba836e0d979eb",
          "transactionIndex": "0x6a",
          "logIndex": "0x8a",
          "removed": false
        },
        {
          "address": "0xbf4a322f1496e5c3d34a9bcdb4c60567b38c7de2",
          "topics": [
            "0xddf252ad1be2c89b69c2b068fc378daa952ba7f163c4a11628f55a4df523b3ef",
            "0x0000000000000000000000000000000000000000000000000000000000000000",
            "0x000000000000000000000000c77f7fed3b5cc8249adc428c5f44c9063b9734b4"
          ],
          "data": "0x00000000000000000000000000000000000000000000000028d47bbaddfdd948",
          "blockHash": "0x123dc114de860f1e79ff14e68a5b57d422e8eab8e6fec2334fecd599ce03a0b4",
          "blockNumber": "0x72671e",
          "transactionHash": "0x6a106ccd7dad9398020956c2bbc8b63ba9bc91c70c9fc130557ba836e0d979eb",
          "transactionIndex": "0x6a",
          "logIndex": "0x8b",
          "removed": false
        },
        {
          "address": "0xbf4a322f1496e5c3d34a9bcdb4c60567b38c7de2",
          "topics": [
            "0x4afcb4a87cdbd9974efdb92ee48bc8d7cd0ae4bf217004db3d080cbaee652ca7"
          ],
          "data": "0x000000000000000000000000000000000000000000000000000000006787c8d80000000000000000000000000000000000000000000000000003a053ad90e6c20000000000000000000000000000000000000000000000000de0b6b3a7640000",
          "blockHash": "0x123dc114de860f1e79ff14e68a5b57d422e8eab8e6fec2334fecd599ce03a0b4",
          "blockNumber": "0x72671e",
          "transactionHash": "0x6a106ccd7dad9398020956c2bbc8b63ba9bc91c70c9fc130557ba836e0d979eb",
          "transactionIndex": "0x6a",
          "logIndex": "0x8c",
          "removed": false
        }
      ],
      "logsBloom": "0x00000000000000000000000000000000000000000000000000000000000000000000000000000000000000000000000000000000000000004000000000000000000000000000000000000008000000000000001000000000000000000000000000000000020000000000000000000800020000000000000000000010000000000000000000000000000000000000000000000000000008000000010000000000000000000000000000000000000000004000000000000000000000000000000000000002000000800000000000001000000000000000080000000000000020000000000000000000000000000000000000000000000000000000000000000000",
      "type": "0x2",
      "transactionHash": "0x6a106ccd7dad9398020956c2bbc8b63ba9bc91c70c9fc130557ba836e0d979eb",
      "transactionIndex": "0x6a",
      "blockHash": "0x123dc114de860f1e79ff14e68a5b57d422e8eab8e6fec2334fecd599ce03a0b4",
      "blockNumber": "0x72671e",
      "gasUsed": "0x13af6",
      "effectiveGasPrice": "0x8a23c3503",
      "from": "0xc77f7fed3b5cc8249adc428c5f44c9063b9734b4",
      "to": "0xbf4a322f1496e5c3d34a9bcdb4c60567b38c7de2",
      "contractAddress": null
    }
  ],
  "libraries": [],
  "pending": [],
  "returns": {},
  "timestamp": 1736952025,
  "chain": 11155111,
  "commit": "51a374b"
}