{
  "transactions": [
    {
      "hash": "0x74fcfaff04e96d2fe5c8c3a7721603e7af9de26b8f6c1bbb26e17778ef8ba3ce",
      "transactionType": "CALL",
      "contractName": null,
      "contractAddress": "0x270e88f8683660553e8ba4eb2ad7c91a1710d769",
      "function": "buy(address)",
      "arguments": [
        "0xC77f7fed3b5Cc8249aDc428c5F44C9063B9734b4"
      ],
      "transaction": {
        "from": "0xc77f7fed3b5cc8249adc428c5f44c9063b9734b4",
        "to": "0x270e88f8683660553e8ba4eb2ad7c91a1710d769",
        "gas": "0x1b30c",
        "value": "0xde0b6b3a7640000",
        "input": "0xf088d547000000000000000000000000c77f7fed3b5cc8249adc428c5f44c9063b9734b4",
        "nonce": "0x53e",
        "chainId": "0xaa36a7"
      },
      "additionalContracts": [],
      "isFixedGasLimit": false
    }
  ],
  "receipts": [
    {
      "status": "0x1",
      "cumulativeGasUsed": "0xd0ea08",
      "logs": [
        {
          "address": "0x270e88f8683660553e8ba4eb2ad7c91a1710d769",
          "topics": [
            "0xddf252ad1be2c89b69c2b068fc378daa952ba7f163c4a11628f55a4df523b3ef",
            "0x0000000000000000000000000000000000000000000000000000000000000000",
            "0x000000000000000000000000c77f7fed3b5cc8249adc428c5f44c9063b9734b4"
          ],
          "data": "0x000000000000000000000000000000000000000000000034c4b48a5aa699cac1",
          "blockHash": "0x4b45ee2b2f79ca68742a82619296b108d20578ddb7010c55a9c158360ff3bf9e",
          "blockNumber": "0x7251db",
          "transactionHash": "0x74fcfaff04e96d2fe5c8c3a7721603e7af9de26b8f6c1bbb26e17778ef8ba3ce",
          "transactionIndex": "0x5b",
          "logIndex": "0xaa",
          "removed": false
        },
        {
          "address": "0x270e88f8683660553e8ba4eb2ad7c91a1710d769",
          "topics": [
            "0xddf252ad1be2c89b69c2b068fc378daa952ba7f163c4a11628f55a4df523b3ef",
            "0x0000000000000000000000000000000000000000000000000000000000000000",
            "0x000000000000000000000000c77f7fed3b5cc8249adc428c5f44c9063b9734b4"
          ],
          "data": "0x00000000000000000000000000000000000000000000000028f9f86bdf1d489f",
          "blockHash": "0x4b45ee2b2f79ca68742a82619296b108d20578ddb7010c55a9c158360ff3bf9e",
          "blockNumber": "0x7251db",
          "transactionHash": "0x74fcfaff04e96d2fe5c8c3a7721603e7af9de26b8f6c1bbb26e17778ef8ba3ce",
          "transactionIndex": "0x5b",
          "logIndex": "0xab",
          "removed": false
        },
        {
          "address": "0x270e88f8683660553e8ba4eb2ad7c91a1710d769",
          "topics": [
            "0x4afcb4a87cdbd9974efdb92ee48bc8d7cd0ae4bf217004db3d080cbaee652ca7"
          ],
          "data": "0x000000000000000000000000000000000000000000000000000000006786c83400000000000000000000000000000000000000000000000000039d1acceaca570000000000000000000000000000000000000000000000000de0b6b3a7640000",
          "blockHash": "0x4b45ee2b2f79ca68742a82619296b108d20578ddb7010c55a9c158360ff3bf9e",
          "blockNumber": "0x7251db",
          "transactionHash": "0x74fcfaff04e96d2fe5c8c3a7721603e7af9de26b8f6c1bbb26e17778ef8ba3ce",
          "transactionIndex": "0x5b",
          "logIndex": "0xac",
          "removed": false
        }
      ],
      "logsBloom": "0x00000000000000000000000000000000000000000000000000000000000000000000000000000000000000000000000020000000000000004000000000000000000000000000000000000008000000000000000000000000000000000000000000000000020000000000000000000800020000000000000000000010000000000000000000010000000000000000000000000000000000000000010000000000000000000000000000000000000000004000000000000000000000000000000000000002000000800000000000000000000000000000080000008000000020000000000000000000000000000000000000000000000000000000000000000000",
      "type": "0x2",
      "transactionHash": "0x74fcfaff04e96d2fe5c8c3a7721603e7af9de26b8f6c1bbb26e17778ef8ba3ce",
      "transactionIndex": "0x5b",
      "blockHash": "0x4b45ee2b2f79ca68742a82619296b108d20578ddb7010c55a9c158360ff3bf9e",
      "blockNumber": "0x7251db",
      "gasUsed": "0x13af8",
      "effectiveGasPrice": "0x4450619c6",
      "from": "0xc77f7fed3b5cc8249adc428c5f44c9063b9734b4",
      "to": "0x270e88f8683660553e8ba4eb2ad7c91a1710d769",
      "contractAddress": null
    }
  ],
  "libraries": [],
  "pending": [],
  "returns": {},
  "timestamp": 1736886325,
  "chain": 11155111,
  "commit": "51a374b"
}