{
  "transactions": [
    {
      "hash": "0x3b55f38d7fed99a2796008c34a7128bbd911cac79152ff11bc056f884b33b6b3",
      "transactionType": "CALL",
      "contractName": null,
      "contractAddress": "0x8aafd3ede9adb0ff97c7aebce82a919afb1c8764",
      "function": "sell(uint256)",
      "arguments": [
        "1002196171897"
      ],
      "transaction": {
        "from": "0xc77f7fed3b5cc8249adc428c5f44c9063b9734b4",
        "to": "0x8aafd3ede9adb0ff97c7aebce82a919afb1c8764",
        "gas": "0x1722a",
        "value": "0x0",
        "input": "0xe4849b32000000000000000000000000000000000000000000000000000000e9578bfc79",
        "nonce": "0x1422",
        "chainId": "0xaa36a7"
      },
      "additionalContracts": [],
      "isFixedGasLimit": false
    }
  ],
  "receipts": [
    {
      "status": "0x1",
      "cumulativeGasUsed": "0x11a6419",
      "logs": [
        {
          "address": "0x8aafd3ede9adb0ff97c7aebce82a919afb1c8764",
          "topics": [
            "0xddf252ad1be2c89b69c2b068fc378daa952ba7f163c4a11628f55a4df523b3ef",
            "0x000000000000000000000000c77f7fed3b5cc8249adc428c5f44c9063b9734b4",
            "0x0000000000000000000000000000000000000000000000000000000000000000"
          ],
          "data": "0x000000000000000000000000000000000000000000000000000000e779a9961a",
          "blockHash": "0x475776b1918da1d41f135b88bd88102b363dcf4f4bd71cba4a35640ba794a080",
          "blockNumber": "0x731b5e",
          "transactionHash": "0x3b55f38d7fed99a2796008c34a7128bbd911cac79152ff11bc056f884b33b6b3",
          "transactionIndex": "0xb0",
          "logIndex": "0xa9",
          "removed": false
        },
        {
          "address": "0x8aafd3ede9adb0ff97c7aebce82a919afb1c8764",
          "topics": [
            "0xddf252ad1be2c89b69c2b068fc378daa952ba7f163c4a11628f55a4df523b3ef",
            "0x000000000000000000000000c77f7fed3b5cc8249adc428c5f44c9063b9734b4",
            "0x000000000000000000000000c77f7fed3b5cc8249adc428c5f44c9063b9734b4"
          ],
          "data": "0x00000000000000000000000000000000000000000000000000000001dde2665f",
          "blockHash": "0x475776b1918da1d41f135b88bd88102b363dcf4f4bd71cba4a35640ba794a080",
          "blockNumber": "0x731b5e",
          "transactionHash": "0x3b55f38d7fed99a2796008c34a7128bbd911cac79152ff11bc056f884b33b6b3",
          "transactionIndex": "0xb0",
          "logIndex": "0xaa",
          "removed": false
        },
        {
          "address": "0x8aafd3ede9adb0ff97c7aebce82a919afb1c8764",
          "topics": [
            "0x4afcb4a87cdbd9974efdb92ee48bc8d7cd0ae4bf217004db3d080cbaee652ca7"
          ],
          "data": "0x0000000000000000000000000000000000000000000000000000000067904538000000000000000000000000000000000000000000000000000e856c669bd7b100000000000000000000000000000000000000000000000000000000f428fca6",
          "blockHash": "0x475776b1918da1d41f135b88bd88102b363dcf4f4bd71cba4a35640ba794a080",
          "blockNumber": "0x731b5e",
          "transactionHash": "0x3b55f38d7fed99a2796008c34a7128bbd911cac79152ff11bc056f884b33b6b3",
          "transactionIndex": "0xb0",
          "logIndex": "0xab",
          "removed": false
        }
      ],
      "logsBloom": "0x00000000000000000000000000000000000000000600000000000000000000000000000000000000000000000000000000000000000000004000000000000000000000000000004000000008000000000000000000000000000000000000000000000000020000000000000000000800020000000000000000000010000000000000000000000000000000000000000000000000000000000000010000000000000000000000000000000000000000004000000000000000000000000000000000000002000000800000000000000000000000000000080000000000000020000000000000000000000000000000000000000000000000000000000000000000",
      "type": "0x2",
      "transactionHash": "0x3b55f38d7fed99a2796008c34a7128bbd911cac79152ff11bc056f884b33b6b3",
      "transactionIndex": "0xb0",
      "blockHash": "0x475776b1918da1d41f135b88bd88102b363dcf4f4bd71cba4a35640ba794a080",
      "blockNumber": "0x731b5e",
      "gasUsed": "0xfd1b",
      "effectiveGasPrice": "0xf55298b5",
      "from": "0xc77f7fed3b5cc8249adc428c5f44c9063b9734b4",
      "to": "0x8aafd3ede9adb0ff97c7aebce82a919afb1c8764",
      "contractAddress": null
    }
  ],
  "libraries": [],
  "pending": [],
  "returns": {},
  "timestamp": 1737508154,
  "chain": 11155111,
  "commit": "1d2fb70"
}