{
  "transactions": [
    {
      "hash": "0x71787ec2b403506f0ebc8a550114f21b73c8229257cf2368c643a63ad7498dd1",
      "transactionType": "CALL",
      "contractName": null,
      "contractAddress": "0x270e88f8683660553e8ba4eb2ad7c91a1710d769",
      "function": "sell(uint256)",
      "arguments": [
        "724966682380080129918"
      ],
      "transaction": {
        "from": "0xc77f7fed3b5cc8249adc428c5f44c9063b9734b4",
        "to": "0x270e88f8683660553e8ba4eb2ad7c91a1710d769",
        "gas": "0x16fec",
        "value": "0x0",
        "input": "0xe4849b320000000000000000000000000000000000000000000000274cef0c962a1e277e",
        "nonce": "0x7e8",
        "chainId": "0xaa36a7"
      },
      "additionalContracts": [],
      "isFixedGasLimit": false
    }
  ],
  "receipts": [
    {
      "status": "0x1",
      "cumulativeGasUsed": "0x4ca21d",
      "logs": [
        {
          "address": "0x270e88f8683660553e8ba4eb2ad7c91a1710d769",
          "topics": [
            "0xddf252ad1be2c89b69c2b068fc378daa952ba7f163c4a11628f55a4df523b3ef",
            "0x000000000000000000000000c77f7fed3b5cc8249adc428c5f44c9063b9734b4",
            "0x0000000000000000000000000000000000000000000000000000000000000000"
          ],
          "data": "0x0000000000000000000000000000000000000000000000274cef0c962a1e277e",
          "blockHash": "0xcf7d8db3c01878d8a87d71d40b742d3ac84c27e729ad3e73fc09ecbc9ab06f15",
          "blockNumber": "0x725523",
          "transactionHash": "0x71787ec2b403506f0ebc8a550114f21b73c8229257cf2368c643a63ad7498dd1",
          "transactionIndex": "0x39",
          "logIndex": "0x4c",
          "removed": false
        },
        {
          "address": "0x270e88f8683660553e8ba4eb2ad7c91a1710d769",
          "topics": [
            "0x4afcb4a87cdbd9974efdb92ee48bc8d7cd0ae4bf217004db3d080cbaee652ca7"
          ],
          "data": "0x000000000000000000000000000000000000000000000000000000006786efac0000000000000000000000000000000000000000000000000004de0c507969550000000000000000000000000000000000000000000000000dc826f193cc403d",
          "blockHash": "0xcf7d8db3c01878d8a87d71d40b742d3ac84c27e729ad3e73fc09ecbc9ab06f15",
          "blockNumber": "0x725523",
          "transactionHash": "0x71787ec2b403506f0ebc8a550114f21b73c8229257cf2368c643a63ad7498dd1",
          "transactionIndex": "0x39",
          "logIndex": "0x4d",
          "removed": false
        }
      ],
      "logsBloom": "0x00000000000000000000000000000000000000000000000000000000000000000000000000000000000000000000000020000000000000004000000000000000000000000000000000000008000000000000000000000000000000000000000000000000020000000000000000000800020000000000000000000010000000000000000000010000000000000000000000000000000000000000010000000000000000000000000000000000000000004000000000000000000000000000000000000002000000800000000000000000000000000000080000008000000020000000000000000000000000000000000000000000000000000000000000000000",
      "type": "0x2",
      "transactionHash": "0x71787ec2b403506f0ebc8a550114f21b73c8229257cf2368c643a63ad7498dd1",
      "transactionIndex": "0x39",
      "blockHash": "0xcf7d8db3c01878d8a87d71d40b742d3ac84c27e729ad3e73fc09ecbc9ab06f15",
      "blockNumber": "0x725523",
      "gasUsed": "0xfb93",
      "effectiveGasPrice": "0xb675cdba",
      "from": "0xc77f7fed3b5cc8249adc428c5f44c9063b9734b4",
      "to": "0x270e88f8683660553e8ba4eb2ad7c91a1710d769",
      "contractAddress": null
    }
  ],
  "libraries": [],
  "pending": [],
  "returns": {},
  "timestamp": 1736896429,
  "chain": 11155111,
  "commit": "51a374b"
}