{
  "transactions": [
    {
      "hash": "0xba733d67f099f5d8579517c042b32b940f5785e9f2e65bc1693ecdd49b7cbc1d",
      "transactionType": "CALL",
      "contractName": null,
      "contractAddress": "0xbf4a322f1496e5c3d34a9bcdb4c60567b38c7de2",
      "function": "sell(uint256)",
      "arguments": [
        "977655255840788526717"
      ],
      "transaction": {
        "from": "0xc77f7fed3b5cc8249adc428c5f44c9063b9734b4",
        "to": "0xbf4a322f1496e5c3d34a9bcdb4c60567b38c7de2",
        "gas": "0x16fea",
        "value": "0x0",
        "input": "0xe4849b32000000000000000000000000000000000000000000000034ffb13358ffd7367d",
        "nonce": "0xcc7",
        "chainId": "0xaa36a7"
      },
      "additionalContracts": [],
      "isFixedGasLimit": false
    }
  ],
  "receipts": [
    {
      "status": "0x1",
      "cumulativeGasUsed": "0x14ebc10",
      "logs": [
        {
          "address": "0xbf4a322f1496e5c3d34a9bcdb4c60567b38c7de2",
          "topics": [
            "0xddf252ad1be2c89b69c2b068fc378daa952ba7f163c4a11628f55a4df523b3ef",
            "0x000000000000000000000000c77f7fed3b5cc8249adc428c5f44c9063b9734b4",
            "0x0000000000000000000000000000000000000000000000000000000000000000"
          ],
          "data": "0x000000000000000000000000000000000000000000000034ffb13358ffd7367d",
          "blockHash": "0x62a1dbbf3a1c061ea376908ea70b01affc23b3915afaa6adc933a73eef03facf",
          "blockNumber": "0x725d17",
          "transactionHash": "0xba733d67f099f5d8579517c042b32b940f5785e9f2e65bc1693ecdd49b7cbc1d",
          "transactionIndex": "0xa9",
          "logIndex": "0x107",
          "removed": false
        },
        {
          "address": "0xbf4a322f1496e5c3d34a9bcdb4c60567b38c7de2",
          "topics": [
            "0x4afcb4a87cdbd9974efdb92ee48bc8d7cd0ae4bf217004db3d080cbaee652ca7"
          ],
          "data": "0x0000000000000000000000000000000000000000000000000000000067874f8800000000000000000000000000000000000000000000000000039bcc34ca9b290000000000000000000000000000000000000000000000000dc7e3dc9d5cc8a0",
          "blockHash": "0x62a1dbbf3a1c061ea376908ea70b01affc23b3915afaa6adc933a73eef03facf",
          "blockNumber": "0x725d17",
          "transactionHash": "0xba733d67f099f5d8579517c042b32b940f5785e9f2e65bc1693ecdd49b7cbc1d",
          "transactionIndex": "0xa9",
          "logIndex": "0x108",
          "removed": false
        }
      ],
      "logsBloom": "0x00000000000000000000000000000000000000000000000000000000000000000000000000000000000000000000000000000000000000004000000000000000000000000000000000000008000000000000001000000000000000000000000000000000020000000000000000000800020000000000000000000010000000000000000000000000000000000000000000000000000008000000010000000000000000000000000000000000000000004000000000000000000000000000000000000002000000800000000000001000000000000000080000000000000020000000000000000000000000000000000000000000000000000000000000000000",
      "type": "0x2",
      "transactionHash": "0xba733d67f099f5d8579517c042b32b940f5785e9f2e65bc1693ecdd49b7cbc1d",
      "transactionIndex": "0xa9",
      "blockHash": "0x62a1dbbf3a1c061ea376908ea70b01affc23b3915afaa6adc933a73eef03facf",
      "blockNumber": "0x725d17",
      "gasUsed": "0xfb91",
      "effectiveGasPrice": "0x31c9fa86c",
      "from": "0xc77f7fed3b5cc8249adc428c5f44c9063b9734b4",
      "to": "0xbf4a322f1496e5c3d34a9bcdb4c60567b38c7de2",
      "contractAddress": null
    }
  ],
  "libraries": [],
  "pending": [],
  "returns": {},
  "timestamp": 1736920969,
  "chain": 11155111,
  "commit": "51a374b"
}