{
  "transactions": [
    {
      "hash": "0xabffb7177523c1db447181ec882f1122f7ee9a544851b579eeb0ab77c075e8c3",
      "transactionType": "CALL",
      "contractName": null,
      "contractAddress": "0x5eb9cc76c3506942c1c0ead70e877dd5e4f00cb0",
      "function": "buy(address)",
      "arguments": [
        "0xC77f7fed3b5Cc8249aDc428c5F44C9063B9734b4"
      ],
      "transaction": {
        "from": "0xc77f7fed3b5cc8249adc428c5f44c9063b9734b4",
        "to": "0x5eb9cc76c3506942c1c0ead70e877dd5e4f00cb0",
        "gas": "0x1b30c",
        "value": "0xde0b6b3a7640000",
        "input": "0xf088d547000000000000000000000000c77f7fed3b5cc8249adc428c5f44c9063b9734b4",
        "nonce": "0x2b4",
        "chainId": "0xaa36a7"
      },
      "additionalContracts": [],
      "isFixedGasLimit": false
    }
  ],
  "receipts": [
    {
      "status": "0x1",
      "cumulativeGasUsed": "0xa03dd3",
      "logs": [
        {
          "address": "0x5eb9cc76c3506942c1c0ead70e877dd5e4f00cb0",
          "topics": [
            "0xddf252ad1be2c89b69c2b068fc378daa952ba7f163c4a11628f55a4df523b3ef",
            "0x0000000000000000000000000000000000000000000000000000000000000000",
            "0x000000000000000000000000c77f7fed3b5cc8249adc428c5f44c9063b9734b4"
          ],
          "data": "0x00000000000000000000000000000000000000000000003575bd9e924738bc71",
          "blockHash": "0xa943906f89e07a392ba083cd10abff860c79cfd742bc4710271eb9c2293b3e08",
          "blockNumber": "0x724e8f",
          "transactionHash": "0xabffb7177523c1db447181ec882f1122f7ee9a544851b579eeb0ab77c075e8c3",
          "transactionIndex": "0x4c",
          "logIndex": "0x7a",
          "removed": false
        },
        {
          "address": "0x5eb9cc76c3506942c1c0ead70e877dd5e4f00cb0",
          "topics": [
            "0xddf252ad1be2c89b69c2b068fc378daa952ba7f163c4a11628f55a4df523b3ef",
            "0x0000000000000000000000000000000000000000000000000000000000000000",
            "0x000000000000000000000000c77f7fed3b5cc8249adc428c5f44c9063b9734b4"
          ],
          "data": "0x000000000000000000000000000000000000000000000000298371c8fbd026b7",
          "blockHash": "0xa943906f89e07a392ba083cd10abff860c79cfd742bc4710271eb9c2293b3e08",
          "blockNumber": "0x724e8f",
          "transactionHash": "0xabffb7177523c1db447181ec882f1122f7ee9a544851b579eeb0ab77c075e8c3",
          "transactionIndex": "0x4c",
          "logIndex": "0x7b",
          "removed": false
        },
        {
          "address": "0x5eb9cc76c3506942c1c0ead70e877dd5e4f00cb0",
          "topics": [
            "0x4afcb4a87cdbd9974efdb92ee48bc8d7cd0ae4bf217004db3d080cbaee652ca7"
          ],
          "data": "0x000000000000000000000000000000000000000000000000000000006786a06800000000000000000000000000000000000000000000000000039108ebd83e2c0000000000000000000000000000000000000000000000000de0b6b3a7640000",
          "blockHash": "0xa943906f89e07a392ba083cd10abff860c79cfd742bc4710271eb9c2293b3e08",
          "blockNumber": "0x724e8f",
          "transactionHash": "0xabffb7177523c1db447181ec882f1122f7ee9a544851b579eeb0ab77c075e8c3",
          "transactionIndex": "0x4c",
          "logIndex": "0x7c",
          "removed": false
        }
      ],
      "logsBloom": "0x00000000000000000000000000000000000000000000000000000000000000000000000000000000000000000000000000000000000000004000000000000000000000000000000000000008000000000000000000000000000000000000000000000000020000000000000004000800020000000000000000000010000000000000000000000000000000000000000000000000000000000000010000000000000000000000000000000000000000004000000000000000000000000000020000000002000000800000008000000000000000000000080000000000000020000000000000000000000000000000000000000000000000000000000000000000",
      "type": "0x2",
      "transactionHash": "0xabffb7177523c1db447181ec882f1122f7ee9a544851b579eeb0ab77c075e8c3",
      "transactionIndex": "0x4c",
      "blockHash": "0xa943906f89e07a392ba083cd10abff860c79cfd742bc4710271eb9c2293b3e08",
      "blockNumber": "0x724e8f",
      "gasUsed": "0x13af8",
      "effectiveGasPrice": "0x46a370849",
      "from": "0xc77f7fed3b5cc8249adc428c5f44c9063b9734b4",
      "to": "0x5eb9cc76c3506942c1c0ead70e877dd5e4f00cb0",
      "contractAddress": null
    }
  ],
  "libraries": [],
  "pending": [],
  "returns": {},
  "timestamp": 1736876137,
  "chain": 11155111,
  "commit": "51a374b"
}