{
  "transactions": [
    {
      "hash": "0xf22b5a3cb8723737830114f84f5a67c0d644b89a7478fcf1ed4f2f6053e2ec04",
      "transactionType": "CALL",
      "contractName": null,
      "contractAddress": "0xbf4a322f1496e5c3d34a9bcdb4c60567b38c7de2",
      "function": "buy(address)",
      "arguments": [
        "0xC77f7fed3b5Cc8249aDc428c5F44C9063B9734b4"
      ],
      "transaction": {
        "from": "0xc77f7fed3b5cc8249adc428c5f44c9063b9734b4",
        "to": "0xbf4a322f1496e5c3d34a9bcdb4c60567b38c7de2",
        "gas": "0x1b309",
        "value": "0xde0b6b3a7640000",
        "input": "0xf088d547000000000000000000000000c77f7fed3b5cc8249adc428c5f44c9063b9734b4",
        "nonce": "0x9fc",
        "chainId": "0xaa36a7"
      },
      "additionalContracts": [],
      "isFixedGasLimit": false
    }
  ],
  "receipts": [
    {
      "status": "0x1",
      "cumulativeGasUsed": "0x8bae8b",
      "logs": [
        {
          "address": "0xbf4a322f1496e5c3d34a9bcdb4c60567b38c7de2",
          "topics": [
            "0xddf252ad1be2c89b69c2b068fc378daa952ba7f163c4a11628f55a4df523b3ef",
            "0x0000000000000000000000000000000000000000000000000000000000000000",
            "0x000000000000000000000000c77f7fed3b5cc8249adc428c5f44c9063b9734b4"
          ],
          "data": "0x0000000000000000000000000000000000000000000000355bf74a0ef2ebf487",
          "blockHash": "0xef0086dfd5db146b6527f67d643a7c2354e1a7d83477f737c146e255301f1405",
          "blockNumber": "0x7259b3",
          "transactionHash": "0xf22b5a3cb8723737830114f84f5a67c0d644b89a7478fcf1ed4f2f6053e2ec04",
          "transactionIndex": "0x59",
          "logIndex": "0x9c",
          "removed": false
        },
        {
          "address": "0xbf4a322f1496e5c3d34a9bcdb4c60567b38c7de2",
          "topics": [
            "0xddf252ad1be2c89b69c2b068fc378daa952ba7f163c4a11628f55a4df523b3ef",
            "0x0000000000000000000000000000000000000000000000000000000000000000",
            "0x000000000000000000000000c77f7fed3b5cc8249adc428c5f44c9063b9734b4"
          ],
          "data": "0x000000000000000000000000000000000000000000000000296f6df4e8eba9f4",
          "blockHash": "0xef0086dfd5db146b6527f67d643a7c2354e1a7d83477f737c146e255301f1405",
          "blockNumber": "0x7259b3",
          "transactionHash": "0xf22b5a3cb8723737830114f84f5a67c0d644b89a7478fcf1ed4f2f6053e2ec04",
          "transactionIndex": "0x59",
          "logIndex": "0x9d",
          "removed": false
        },
        {
          "address": "0xbf4a322f1496e5c3d34a9bcdb4c60567b38c7de2",
          "topics": [
            "0x4afcb4a87cdbd9974efdb92ee48bc8d7cd0ae4bf217004db3d080cbaee652ca7"
          ],
          "data": "0x00000000000000000000000000000000000000000000000000000000678726a8000000000000000000000000000000000000000000000000000392c4418b87820000000000000000000000000000000000000000000000000de0b6b3a7640000",
          "blockHash": "0xef0086dfd5db146b6527f67d643a7c2354e1a7d83477f737c146e255301f1405",
          "blockNumber": "0x7259b3",
          "transactionHash": "0xf22b5a3cb8723737830114f84f5a67c0d644b89a7478fcf1ed4f2f6053e2ec04",
          "transactionIndex": "0x59",
          "logIndex": "0x9e",
          "removed": false
        }
      ],
      "logsBloom": "0x00000000000000000000000000000000000000000000000000000000000000000000000000000000000000000000000000000000000000004000000000000000000000000000000000000008000000000000001000000000000000000000000000000000020000000000000000000800020000000000000000000010000000000000000000000000000000000000000000000000000008000000010000000000000000000000000000000000000000004000000000000000000000000000000000000002000000800000000000001000000000000000080000000000000020000000000000000000000000000000000000000000000000000000000000000000",
      "type": "0x2",
      "transactionHash": "0xf22b5a3cb8723737830114f84f5a67c0d644b89a7478fcf1ed4f2f6053e2ec04",
      "transactionIndex": "0x59",
      "blockHash": "0xef0086dfd5db146b6527f67d643a7c2354e1a7d83477f737c146e255301f1405",
      "blockNumber": "0x7259b3",
      "gasUsed": "0x13af6",
      "effectiveGasPrice": "0x3446fdb50",
      "from": "0xc77f7fed3b5cc8249adc428c5f44c9063b9734b4",
      "to": "0xbf4a322f1496e5c3d34a9bcdb4c60567b38c7de2",
      "contractAddress": null
    }
  ],
  "libraries": [],
  "pending": [],
  "returns": {},
  "timestamp": 1736910505,
  "chain": 11155111,
  "commit": "51a374b"
}