{
  "transactions": [
    {
      "hash": "0xb5651db81361872612be384251e91b3d21ae2789e939c2657dfa7650ef8d6ec0",
      "transactionType": "CALL",
      "contractName": null,
      "contractAddress": "0x8aafd3ede9adb0ff97c7aebce82a919afb1c8764",
      "function": "buy(address)",
      "arguments": [
        "0xC77f7fed3b5Cc8249aDc428c5F44C9063B9734b4"
      ],
      "transaction": {
        "from": "0xc77f7fed3b5cc8249adc428c5f44c9063b9734b4",
        "to": "0x8aafd3ede9adb0ff97c7aebce82a919afb1c8764",
        "gas": "0x156ea",
        "value": "0xde0b6b3a7640000",
        "input": "0xf088d547000000000000000000000000c77f7fed3b5cc8249adc428c5f44c9063b9734b4",
        "nonce": "0x14e3",
        "chainId": "0xaa36a7"
      },
      "additionalContracts": [],
      "isFixedGasLimit": false
    }
  ],
  "receipts": [
    {
      "status": "0x1",
      "cumulativeGasUsed": "0xde3db6",
      "logs": [
        {
          "address": "0x8aafd3ede9adb0ff97c7aebce82a919afb1c8764",
          "topics": [
            "0xddf252ad1be2c89b69c2b068fc378daa952ba7f163c4a11628f55a4df523b3ef",
            "0x0000000000000000000000000000000000000000000000000000000000000000",
            "0x000000000000000000000000c77f7fed3b5cc8249adc428c5f44c9063b9734b4"
          ],
          "data": "0x00000000000000000000000000000000000000000000000b6cddd83c58aae583",
          "blockHash": "0xa5ff746d82bf620a170dbd9f32829403d879931e7bd99d5497b86948d46ea495",
          "blockNumber": "0x731c41",
          "transactionHash": "0xb5651db81361872612be384251e91b3d21ae2789e939c2657dfa7650ef8d6ec0",
          "transactionIndex": "0x75",
          "logIndex": "0xac",
          "removed": false
        },
        {
          "address": "0x8aafd3ede9adb0ff97c7aebce82a919afb1c8764",
          "topics": [
            "0xddf252ad1be2c89b69c2b068fc378daa952ba7f163c4a11628f55a4df523b3ef",
            "0x0000000000000000000000000000000000000000000000000000000000000000",
            "0x000000000000000000000000c77f7fed3b5cc8249adc428c5f44c9063b9734b4"
          ],
          "data": "0x00000000000000000000000000000000000000000000000008df4237fc1b5308",
          "blockHash": "0xa5ff746d82bf620a170dbd9f32829403d879931e7bd99d5497b86948d46ea495",
          "blockNumber": "0x731c41",
          "transactionHash": "0xb5651db81361872612be384251e91b3d21ae2789e939c2657dfa7650ef8d6ec0",
          "transactionIndex": "0x75",
          "logIndex": "0xad",
          "removed": false
        },
        {
          "address": "0x8aafd3ede9adb0ff97c7aebce82a919afb1c8764",
          "topics": [
            "0x4afcb4a87cdbd9974efdb92ee48bc8d7cd0ae4bf217004db3d080cbaee652ca7"
          ],
          "data": "0x0000000000000000000000000000000000000000000000000000000067904fe80000000000000000000000000000000000000000000000000010b6a76d94b0a60000000000000000000000000000000000000000000000000de0b6b3a7640000",
          "blockHash": "0xa5ff746d82bf620a170dbd9f32829403d879931e7bd99d5497b86948d46ea495",
          "blockNumber": "0x731c41",
          "transactionHash": "0xb5651db81361872612be384251e91b3d21ae2789e939c2657dfa7650ef8d6ec0",
          "transactionIndex": "0x75",
          "logIndex": "0xae",
          "removed": false
        }
      ],
      "logsBloom": "0x00000000000000000000000000000000000000000600000000000000000000000000000000000000000000000000000000000000000000004000000000000000000000000000004000000008000000000000000000000000000000000000000000000000020000000000000000000800020000000000000000000010000000000000000000000000000000000000000000000000000000000000010000000000000000000000000000000000000000004000000000000000000000000000000000000002000000800000000000000000000000000000080000000000000020000000000000000000000000000000000000000000000000000000000000000000",
      "type": "0x2",
      "transactionHash": "0xb5651db81361872612be384251e91b3d21ae2789e939c2657dfa7650ef8d6ec0",
      "transactionIndex": "0x75",
      "blockHash": "0xa5ff746d82bf620a170dbd9f32829403d879931e7bd99d5497b86948d46ea495",
      "blockNumber": "0x731c41",
      "gasUsed": "0xf844",
      "effectiveGasPrice": "0x1576bddf0",
      "from": "0xc77f7fed3b5cc8249adc428c5f44c9063b9734b4",
      "to": "0x8aafd3ede9adb0ff97c7aebce82a919afb1c8764",
      "contractAddress": null
    }
  ],
  "libraries": [],
  "pending": [],
  "returns": {},
  "timestamp": 1737510888,
  "chain": 11155111,
  "commit": "1d2fb70"
}