{
  "transactions": [
    {
      "hash": "0x99ddb60992cbc264f1e45f3ed0a9b4cb5708b343985ce4c35964af604f529970",
      "transactionType": "CALL",
      "contractName": null,
      "contractAddress": "0xbf4a322f1496e5c3d34a9bcdb4c60567b38c7de2",
      "function": "buy(address)",
      "arguments": [
        "0xC77f7fed3b5Cc8249aDc428c5F44C9063B9734b4"
      ],
      "transaction": {
        "from": "0xc77f7fed3b5cc8249adc428c5f44c9063b9734b4",
        "to": "0xbf4a322f1496e5c3d34a9bcdb4c60567b38c7de2",
        "gas": "0x1b309",
        "value": "0xde0b6b3a7640000",
        "input": "0xf088d547000000000000000000000000c77f7fed3b5cc8249adc428c5f44c9063b9734b4",
        "nonce": "0xa1e",
        "chainId": "0xaa36a7"
      },
      "additionalContracts": [],
      "isFixedGasLimit": false
    }
  ],
  "receipts": [
    {
      "status": "0x1",
      "cumulativeGasUsed": "0xfd49ac",
      "logs": [
        {
          "address": "0xbf4a322f1496e5c3d34a9bcdb4c60567b38c7de2",
          "topics": [
            "0xddf252ad1be2c89b69c2b068fc378daa952ba7f163c4a11628f55a4df523b3ef",
            "0x0000000000000000000000000000000000000000000000000000000000000000",
            "0x000000000000000000000000c77f7fed3b5cc8249adc428c5f44c9063b9734b4"
          ],
          "data": "0x000000000000000000000000000000000000000000000035558f001805560bcd",
          "blockHash": "0x7593f1b28f5d61adc00a7b07a4a84d0910b973b956b0cdc50717bda016e28edf",
          "blockNumber": "0x7259de",
          "transactionHash": "0x99ddb60992cbc264f1e45f3ed0a9b4cb5708b343985ce4c35964af604f529970",
          "transactionIndex": "0x49",
          "logIndex": "0x67",
          "removed": false
        },
        {
          "address": "0xbf4a322f1496e5c3d34a9bcdb4c60567b38c7de2",
          "topics": [
            "0xddf252ad1be2c89b69c2b068fc378daa952ba7f163c4a11628f55a4df523b3ef",
            "0x0000000000000000000000000000000000000000000000000000000000000000",
            "0x000000000000000000000000c77f7fed3b5cc8249adc428c5f44c9063b9734b4"
          ],
          "data": "0x000000000000000000000000000000000000000000000000296a743764a5b19f",
          "blockHash": "0x7593f1b28f5d61adc00a7b07a4a84d0910b973b956b0cdc50717bda016e28edf",
          "blockNumber": "0x7259de",
          "transactionHash": "0x99ddb60992cbc264f1e45f3ed0a9b4cb5708b343985ce4c35964af604f529970",
          "transactionIndex": "0x49",
          "logIndex": "0x68",
          "removed": false
        },
        {
          "address": "0xbf4a322f1496e5c3d34a9bcdb4c60567b38c7de2",
          "topics": [
            "0x4afcb4a87cdbd9974efdb92ee48bc8d7cd0ae4bf217004db3d080cbaee652ca7"
          ],
          "data": "0x00000000000000000000000000000000000000000000000000000000678728ac0000000000000000000000000000000000000000000000000003933226d4b3b50000000000000000000000000000000000000000000000000de0b6b3a7640000",
          "blockHash": "0x7593f1b28f5d61adc00a7b07a4a84d0910b973b956b0cdc50717bda016e28edf",
          "blockNumber": "0x7259de",
          "transactionHash": "0x99ddb60992cbc264f1e45f3ed0a9b4cb5708b343985ce4c35964af604f529970",
          "transactionIndex": "0x49",
          "logIndex": "0x69",
          "removed": false
        }
      ],
      "logsBloom": "0x00000000000000000000000000000000000000000000000000000000000000000000000000000000000000000000000000000000000000004000000000000000000000000000000000000008000000000000001000000000000000000000000000000000020000000000000000000800020000000000000000000010000000000000000000000000000000000000000000000000000008000000010000000000000000000000000000000000000000004000000000000000000000000000000000000002000000800000000000001000000000000000080000000000000020000000000000000000000000000000000000000000000000000000000000000000",
      "type": "0x2",
      "transactionHash": "0x99ddb60992cbc264f1e45f3ed0a9b4cb5708b343985ce4c35964af604f529970",
      "transactionIndex": "0x49",
      "blockHash": "0x7593f1b28f5d61adc00a7b07a4a84d0910b973b956b0cdc50717bda016e28edf",
      "blockNumber": "0x7259de",
      "gasUsed": "0x13af6",
      "effectiveGasPrice": "0x74e16d36e",
      "from": "0xc77f7fed3b5cc8249adc428c5f44c9063b9734b4",
      "to": "0xbf4a322f1496e5c3d34a9bcdb4c60567b38c7de2",
      "contractAddress": null
    }
  ],
  "libraries": [],
  "pending": [],
  "returns": {},
  "timestamp": 1736911021,
  "chain": 11155111,
  "commit": "51a374b"
}