{
  "transactions": [
    {
      "hash": "0x49527afcdeba7beb45402c93df7307b904ac1ae129cba75a03b8d467a9fdffe0",
      "transactionType": "CALL",
      "contractName": null,
      "contractAddress": "0x8aafd3ede9adb0ff97c7aebce82a919afb1c8764",
      "function": "sell(uint256)",
      "arguments": [
        "358255774973015"
      ],
      "transaction": {
        "from": "0xc77f7fed3b5cc8249adc428c5f44c9063b9734b4",
        "to": "0x8aafd3ede9adb0ff97c7aebce82a919afb1c8764",
        "gas": "0x1724d",
        "value": "0x0",
        "input": "0xe4849b32000000000000000000000000000000000000000000000000000145d4ec34bc57",
        "nonce": "0x1102",
        "chainId": "0xaa36a7"
      },
      "additionalContracts": [],
      "isFixedGasLimit": false
    }
  ],
  "receipts": [
    {
      "status": "0x1",
      "cumulativeGasUsed": "0x1007ad9",
      "logs": [
        {
          "address": "0x8aafd3ede9adb0ff97c7aebce82a919afb1c8764",
          "topics": [
            "0xddf252ad1be2c89b69c2b068fc378daa952ba7f163c4a11628f55a4df523b3ef",
            "0x000000000000000000000000c77f7fed3b5cc8249adc428c5f44c9063b9734b4",
            "0x0000000000000000000000000000000000000000000000000000000000000000"
          ],
          "data": "0x000000000000000000000000000000000000000000000000000143399e8a546f",
          "blockHash": "0x27a9bb684000812df87f65eee37dc36bfdabbf20a10a4cf65c96887d352c9382",
          "blockNumber": "0x7317b1",
          "transactionHash": "0x49527afcdeba7beb45402c93df7307b904ac1ae129cba75a03b8d467a9fdffe0",
          "transactionIndex": "0x8e",
          "logIndex": "0xd2",
          "removed": false
        },
        {
          "address": "0x8aafd3ede9adb0ff97c7aebce82a919afb1c8764",
          "topics": [
            "0xddf252ad1be2c89b69c2b068fc378daa952ba7f163c4a11628f55a4df523b3ef",
            "0x000000000000000000000000c77f7fed3b5cc8249adc428c5f44c9063b9734b4",
            "0x000000000000000000000000c77f7fed3b5cc8249adc428c5f44c9063b9734b4"
          ],
          "data": "0x0000000000000000000000000000000000000000000000000000029b4daa67e8",
          "blockHash": "0x27a9bb684000812df87f65eee37dc36bfdabbf20a10a4cf65c96887d352c9382",
          "blockNumber": "0x7317b1",
          "transactionHash": "0x49527afcdeba7beb45402c93df7307b904ac1ae129cba75a03b8d467a9fdffe0",
          "transactionIndex": "0x8e",
          "logIndex": "0xd3",
          "removed": false
        },
        {
          "address": "0x8aafd3ede9adb0ff97c7aebce82a919afb1c8764",
          "topics": [
            "0x4afcb4a87cdbd9974efdb92ee48bc8d7cd0ae4bf217004db3d080cbaee652ca7"
          ],
          "data": "0x000000000000000000000000000000000000000000000000000000006790191000000000000000000000000000000000000000000000000000050c28b60a30ed0000000000000000000000000000000000000000000000000000007682267029",
          "blockHash": "0x27a9bb684000812df87f65eee37dc36bfdabbf20a10a4cf65c96887d352c9382",
          "blockNumber": "0x7317b1",
          "transactionHash": "0x49527afcdeba7beb45402c93df7307b904ac1ae129cba75a03b8d467a9fdffe0",
          "transactionIndex": "0x8e",
          "logIndex": "0xd4",
          "removed": false
        }
      ],
      "logsBloom": "0x00000000000000000000000000000000000000000600000000000000000000000000000000000000000000000000000000000000000000004000000000000000000000000000004000000008000000000000000000000000000000000000000000000000020000000000000000000800020000000000000000000010000000000000000000000000000000000000000000000000000000000000010000000000000000000000000000000000000000004000000000000000000000000000000000000002000000800000000000000000000000000000080000000000000020000000000000000000000000000000000000000000000000000000000000000000",
      "type": "0x2",
      "transactionHash": "0x49527afcdeba7beb45402c93df7307b904ac1ae129cba75a03b8d467a9fdffe0",
      "transactionIndex": "0x8e",
      "blockHash": "0x27a9bb684000812df87f65eee37dc36bfdabbf20a10a4cf65c96887d352c9382",
      "blockNumber": "0x7317b1",
      "gasUsed": "0xfd33",
      "effectiveGasPrice": "0x3c462b9c",
      "from": "0xc77f7fed3b5cc8249adc428c5f44c9063b9734b4",
      "to": "0x8aafd3ede9adb0ff97c7aebce82a919afb1c8764",
      "contractAddress": null
    }
  ],
  "libraries": [],
  "pending": [],
  "returns": {},
  "timestamp": 1737496849,
  "chain": 11155111,
  "commit": "1d2fb70"
}