{
  "transactions": [
    {
      "hash": "0x652965368e47da476f807dd4a699dac6d44a18e1eeda5d68582fbc391c6b562c",
      "transactionType": "CALL",
      "contractName": null,
      "contractAddress": "0xbf4a322f1496e5c3d34a9bcdb4c60567b38c7de2",
      "function": "sell(uint256)",
      "arguments": [
        "980926588102671554167"
      ],
      "transaction": {
        "from": "0xc77f7fed3b5cc8249adc428c5f44c9063b9734b4",
        "to": "0xbf4a322f1496e5c3d34a9bcdb4c60567b38c7de2",
        "gas": "0x16fea",
        "value": "0x0",
        "input": "0xe4849b320000000000000000000000000000000000000000000000352d174eb523a75677",
        "nonce": "0xbd3",
        "chainId": "0xaa36a7"
      },
      "additionalContracts": [],
      "isFixedGasLimit": false
    }
  ],
  "receipts": [
    {
      "status": "0x1",
      "cumulativeGasUsed": "0xce8e83",
      "logs": [
        {
          "address": "0xbf4a322f1496e5c3d34a9bcdb4c60567b38c7de2",
          "topics": [
            "0xddf252ad1be2c89b69c2b068fc378daa952ba7f163c4a11628f55a4df523b3ef",
            "0x000000000000000000000000c77f7fed3b5cc8249adc428c5f44c9063b9734b4",
            "0x0000000000000000000000000000000000000000000000000000000000000000"
          ],
          "data": "0x0000000000000000000000000000000000000000000000352d174eb523a75677",
          "blockHash": "0x7f5d79620452ee40d95d816e785ad5b121306fe6e0199992071d65ac693b4961",
          "blockNumber": "0x725bf5",
          "transactionHash": "0x652965368e47da476f807dd4a699dac6d44a18e1eeda5d68582fbc391c6b562c",
          "transactionIndex": "0x7a",
          "logIndex": "0xa5",
          "removed": false
        },
        {
          "address": "0xbf4a322f1496e5c3d34a9bcdb4c60567b38c7de2",
          "topics": [
            "0x4afcb4a87cdbd9974efdb92ee48bc8d7cd0ae4bf217004db3d080cbaee652ca7"
          ],
          "data": "0x00000000000000000000000000000000000000000000000000000000678741d8000000000000000000000000000000000000000000000000000398b78a4bbc330000000000000000000000000000000000000000000000000dc7e3e4387d6d7c",
          "blockHash": "0x7f5d79620452ee40d95d816e785ad5b121306fe6e0199992071d65ac693b4961",
          "blockNumber": "0x725bf5",
          "transactionHash": "0x652965368e47da476f807dd4a699dac6d44a18e1eeda5d68582fbc391c6b562c",
          "transactionIndex": "0x7a",
          "logIndex": "0xa6",
          "removed": false
        }
      ],
      "logsBloom": "0x00000000000000000000000000000000000000000000000000000000000000000000000000000000000000000000000000000000000000004000000000000000000000000000000000000008000000000000001000000000000000000000000000000000020000000000000000000800020000000000000000000010000000000000000000000000000000000000000000000000000008000000010000000000000000000000000000000000000000004000000000000000000000000000000000000002000000800000000000001000000000000000080000000000000020000000000000000000000000000000000000000000000000000000000000000000",
      "type": "0x2",
      "transactionHash": "0x652965368e47da476f807dd4a699dac6d44a18e1eeda5d68582fbc391c6b562c",
      "transactionIndex": "0x7a",
      "blockHash": "0x7f5d79620452ee40d95d816e785ad5b121306fe6e0199992071d65ac693b4961",
      "blockNumber": "0x725bf5",
      "gasUsed": "0xfb91",
      "effectiveGasPrice": "0x89ae29cb",
      "from": "0xc77f7fed3b5cc8249adc428c5f44c9063b9734b4",
      "to": "0xbf4a322f1496e5c3d34a9bcdb4c60567b38c7de2",
      "contractAddress": null
    }
  ],
  "libraries": [],
  "pending": [],
  "returns": {},
  "timestamp": 1736917466,
  "chain": 11155111,
  "commit": "51a374b"
}