{
  "transactions": [
    {
      "hash": "0xb1c79a350a47b81ed27fbd58cfaac8433e388618c49d5ac71dd0cbed7aeae1fa",
      "transactionType": "CALL",
      "contractName": null,
      "contractAddress": "0x270e88f8683660553e8ba4eb2ad7c91a1710d769",
      "function": "buy(address)",
      "arguments": [
        "0xC77f7fed3b5Cc8249aDc428c5F44C9063B9734b4"
      ],
      "transaction": {
        "from": "0xc77f7fed3b5cc8249adc428c5f44c9063b9734b4",
        "to": "0x270e88f8683660553e8ba4eb2ad7c91a1710d769",
        "gas": "0x1b30c",
        "value": "0xde0b6b3a7640000",
        "input": "0xf088d547000000000000000000000000c77f7fed3b5cc8249adc428c5f44c9063b9734b4",
        "nonce": "0x5ee",
        "chainId": "0xaa36a7"
      },
      "additionalContracts": [],
      "isFixedGasLimit": false
    }
  ],
  "receipts": [
    {
      "status": "0x1",
      "cumulativeGasUsed": "0x8ed5d2",
      "logs": [
        {
          "address": "0x270e88f8683660553e8ba4eb2ad7c91a1710d769",
          "topics": [
            "0xddf252ad1be2c89b69c2b068fc378daa952ba7f163c4a11628f55a4df523b3ef",
            "0x0000000000000000000000000000000000000000000000000000000000000000",
            "0x000000000000000000000000c77f7fed3b5cc8249adc428c5f44c9063b9734b4"
          ],
          "data": "0x00000000000000000000000000000000000000000000003356e71bb9e5d68ba6",
          "blockHash": "0xccd4cda673c17d1d0676d283381f0684154f027a4cabe8e89a5634b8c5e41c57",
          "blockNumber": "0x7252b4",
          "transactionHash": "0xb1c79a350a47b81ed27fbd58cfaac8433e388618c49d5ac71dd0cbed7aeae1fa",
          "transactionIndex": "0x64",
          "logIndex": "0xaa",
          "removed": false
        },
        {
          "address": "0x270e88f8683660553e8ba4eb2ad7c91a1710d769",
          "topics": [
            "0xddf252ad1be2c89b69c2b068fc378daa952ba7f163c4a11628f55a4df523b3ef",
            "0x0000000000000000000000000000000000000000000000000000000000000000",
            "0x000000000000000000000000c77f7fed3b5cc8249adc428c5f44c9063b9734b4"
          ],
          "data": "0x00000000000000000000000000000000000000000000000027dde98c90b299f1",
          "blockHash": "0xccd4cda673c17d1d0676d283381f0684154f027a4cabe8e89a5634b8c5e41c57",
          "blockNumber": "0x7252b4",
          "transactionHash": "0xb1c79a350a47b81ed27fbd58cfaac8433e388618c49d5ac71dd0cbed7aeae1fa",
          "transactionIndex": "0x64",
          "logIndex": "0xab",
          "removed": false
        },
        {
          "address": "0x270e88f8683660553e8ba4eb2ad7c91a1710d769",
          "topics": [
            "0x4afcb4a87cdbd9974efdb92ee48bc8d7cd0ae4bf217004db3d080cbaee652ca7"
          ],
          "data": "0x000000000000000000000000000000000000000000000000000000006786d2780000000000000000000000000000000000000000000000000003b6d99903e2be0000000000000000000000000000000000000000000000000de0b6b3a7640000",
          "blockHash": "0xccd4cda673c17d1d0676d283381f0684154f027a4cabe8e89a5634b8c5e41c57",
          "blockNumber": "0x7252b4",
          "transactionHash": "0xb1c79a350a47b81ed27fbd58cfaac8433e388618c49d5ac71dd0cbed7aeae1fa",
          "transactionIndex": "0x64",
          "logIndex": "0xac",
          "removed": false
        }
      ],
      "logsBloom": "0x00000000000000000000000000000000000000000000000000000000000000000000000000000000000000000000000020000000000000004000000000000000000000000000000000000008000000000000000000000000000000000000000000000000020000000000000000000800020000000000000000000010000000000000000000010000000000000000000000000000000000000000010000000000000000000000000000000000000000004000000000000000000000000000000000000002000000800000000000000000000000000000080000008000000020000000000000000000000000000000000000000000000000000000000000000000",
      "type": "0x2",
      "transactionHash": "0xb1c79a350a47b81ed27fbd58cfaac8433e388618c49d5ac71dd0cbed7aeae1fa",
      "transactionIndex": "0x64",
      "blockHash": "0xccd4cda673c17d1d0676d283381f0684154f027a4cabe8e89a5634b8c5e41c57",
      "blockNumber": "0x7252b4",
      "gasUsed": "0x13af8",
      "effectiveGasPrice": "0x2db35e540",
      "from": "0xc77f7fed3b5cc8249adc428c5f44c9063b9734b4",
      "to": "0x270e88f8683660553e8ba4eb2ad7c91a1710d769",
      "contractAddress": null
    }
  ],
  "libraries": [],
  "pending": [],
  "returns": {},
  "timestamp": 1736888953,
  "chain": 11155111,
  "commit": "51a374b"
}