{
  "transactions": [
    {
      "hash": "0x8e5c553f28ecc5668ea20fa6a47a8881f35df983262c790c1f315d79aa92694e",
      "transactionType": "CALL",
      "contractName": null,
      "contractAddress": "0x8aafd3ede9adb0ff97c7aebce82a919afb1c8764",
      "function": "sell(uint256)",
      "arguments": [
        "363159605814795"
      ],
      "transaction": {
        "from": "0xc77f7fed3b5cc8249adc428c5f44c9063b9734b4",
        "to": "0x8aafd3ede9adb0ff97c7aebce82a919afb1c8764",
        "gas": "0x1724d",
        "value": "0x0",
        "input": "0xe4849b3200000000000000000000000000000000000000000000000000014a4aaf4d260b",
        "nonce": "0x108a",
        "chainId": "0xaa36a7"
      },
      "additionalContracts": [],
      "isFixedGasLimit": false
    }
  ],
  "receipts": [
    {
      "status": "0x1",
      "cumulativeGasUsed": "0xc89552",
      "logs": [
        {
          "address": "0x8aafd3ede9adb0ff97c7aebce82a919afb1c8764",
          "topics": [
            "0xddf252ad1be2c89b69c2b068fc378daa952ba7f163c4a11628f55a4df523b3ef",
            "0x000000000000000000000000c77f7fed3b5cc8249adc428c5f44c9063b9734b4",
            "0x0000000000000000000000000000000000000000000000000000000000000000"
          ],
          "data": "0x000000000000000000000000000000000000000000000000000147a63f4e9455",
          "blockHash": "0xf0d50ef0d04c405bbdef055577eb662e7e6b425ed39953d2d8e5ed6dd53c8d80",
          "blockNumber": "0x731716",
          "transactionHash": "0x8e5c553f28ecc5668ea20fa6a47a8881f35df983262c790c1f315d79aa92694e",
          "transactionIndex": "0x79",
          "logIndex": "0x8f",
          "removed": false
        },
        {
          "address": "0x8aafd3ede9adb0ff97c7aebce82a919afb1c8764",
          "topics": [
            "0xddf252ad1be2c89b69c2b068fc378daa952ba7f163c4a11628f55a4df523b3ef",
            "0x000000000000000000000000c77f7fed3b5cc8249adc428c5f44c9063b9734b4",
            "0x000000000000000000000000c77f7fed3b5cc8249adc428c5f44c9063b9734b4"
          ],
          "data": "0x000000000000000000000000000000000000000000000000000002a46ffe91b6",
          "blockHash": "0xf0d50ef0d04c405bbdef055577eb662e7e6b425ed39953d2d8e5ed6dd53c8d80",
          "blockNumber": "0x731716",
          "transactionHash": "0x8e5c553f28ecc5668ea20fa6a47a8881f35df983262c790c1f315d79aa92694e",
          "transactionIndex": "0x79",
          "logIndex": "0x90",
          "removed": false
        },
        {
          "address": "0x8aafd3ede9adb0ff97c7aebce82a919afb1c8764",
          "topics": [
            "0x4afcb4a87cdbd9974efdb92ee48bc8d7cd0ae4bf217004db3d080cbaee652ca7"
          ],
          "data": "0x00000000000000000000000000000000000000000000000000000000679011cc0000000000000000000000000000000000000000000000000004fabae4fc985200000000000000000000000000000000000000000000000000000076829c6612",
          "blockHash": "0xf0d50ef0d04c405bbdef055577eb662e7e6b425ed39953d2d8e5ed6dd53c8d80",
          "blockNumber": "0x731716",
          "transactionHash": "0x8e5c553f28ecc5668ea20fa6a47a8881f35df983262c790c1f315d79aa92694e",
          "transactionIndex": "0x79",
          "logIndex": "0x91",
          "removed": false
        }
      ],
      "logsBloom": "0x00000000000000000000000000000000000000000600000000000000000000000000000000000000000000000000000000000000000000004000000000000000000000000000004000000008000000000000000000000000000000000000000000000000020000000000000000000800020000000000000000000010000000000000000000000000000000000000000000000000000000000000010000000000000000000000000000000000000000004000000000000000000000000000000000000002000000800000000000000000000000000000080000000000000020000000000000000000000000000000000000000000000000000000000000000000",
      "type": "0x2",
      "transactionHash": "0x8e5c553f28ecc5668ea20fa6a47a8881f35df983262c790c1f315d79aa92694e",
      "transactionIndex": "0x79",
      "blockHash": "0xf0d50ef0d04c405bbdef055577eb662e7e6b425ed39953d2d8e5ed6dd53c8d80",
      "blockNumber": "0x731716",
      "gasUsed": "0xfd33",
      "effectiveGasPrice": "0x429d585f",
      "from": "0xc77f7fed3b5cc8249adc428c5f44c9063b9734b4",
      "to": "0x8aafd3ede9adb0ff97c7aebce82a919afb1c8764",
      "contractAddress": null
    }
  ],
  "libraries": [],
  "pending": [],
  "returns": {},
  "timestamp": 1737494990,
  "chain": 11155111,
  "commit": "1d2fb70"
}