{
  "transactions": [
    {
      "hash": "0xacac52afe3abbeadaab6b8d069e9d3c1b0efc275b402c019d60b66b42497feb9",
      "transactionType": "CALL",
      "contractName": null,
      "contractAddress": "0x270e88f8683660553e8ba4eb2ad7c91a1710d769",
      "function": "sell(uint256)",
      "arguments": [
        "731156624629049795782"
      ],
      "transaction": {
        "from": "0xc77f7fed3b5cc8249adc428c5f44c9063b9734b4",
        "to": "0x270e88f8683660553e8ba4eb2ad7c91a1710d769",
        "gas": "0x16fec",
        "value": "0x0",
        "input": "0xe4849b32000000000000000000000000000000000000000000000027a2d624442c2324c6",
        "nonce": "0x7a0",
        "chainId": "0xaa36a7"
      },
      "additionalContracts": [],
      "isFixedGasLimit": false
    }
  ],
  "receipts": [
    {
      "status": "0x1",
      "cumulativeGasUsed": "0xa8a39d",
      "logs": [
        {
          "address": "0x270e88f8683660553e8ba4eb2ad7c91a1710d769",
          "topics": [
            "0xddf252ad1be2c89b69c2b068fc378daa952ba7f163c4a11628f55a4df523b3ef",
            "0x000000000000000000000000c77f7fed3b5cc8249adc428c5f44c9063b9734b4",
            "0x0000000000000000000000000000000000000000000000000000000000000000"
          ],
          "data": "0x000000000000000000000000000000000000000000000027a2d624442c2324c6",
          "blockHash": "0xc83723ba66f5c32b47ee6ff882926f413dfb2ab746c782ff01767504d54e3ce1",
          "blockNumber": "0x7254d4",
          "transactionHash": "0xacac52afe3abbeadaab6b8d069e9d3c1b0efc275b402c019d60b66b42497feb9",
          "transactionIndex": "0x6b",
          "logIndex": "0x9c",
          "removed": false
        },
        {
          "address": "0x270e88f8683660553e8ba4eb2ad7c91a1710d769",
          "topics": [
            "0x4afcb4a87cdbd9974efdb92ee48bc8d7cd0ae4bf217004db3d080cbaee652ca7"
          ],
          "data": "0x000000000000000000000000000000000000000000000000000000006786ebf80000000000000000000000000000000000000000000000000004d380678cd5e20000000000000000000000000000000000000000000000000dc82795a3f1a9ff",
          "blockHash": "0xc83723ba66f5c32b47ee6ff882926f413dfb2ab746c782ff01767504d54e3ce1",
          "blockNumber": "0x7254d4",
          "transactionHash": "0xacac52afe3abbeadaab6b8d069e9d3c1b0efc275b402c019d60b66b42497feb9",
          "transactionIndex": "0x6b",
          "logIndex": "0x9d",
          "removed": false
        }
      ],
      "logsBloom": "0x00000000000000000000000000000000000000000000000000000000000000000000000000000000000000000000000020000000000000004000000000000000000000000000000000000008000000000000000000000000000000000000000000000000020000000000000000000800020000000000000000000010000000000000000000010000000000000000000000000000000000000000010000000000000000000000000000000000000000004000000000000000000000000000000000000002000000800000000000000000000000000000080000008000000020000000000000000000000000000000000000000000000000000000000000000000",
      "type": "0x2",
      "transactionHash": "0xacac52afe3abbeadaab6b8d069e9d3c1b0efc275b402c019d60b66b42497feb9",
      "transactionIndex": "0x6b",
      "blockHash": "0xc83723ba66f5c32b47ee6ff882926f413dfb2ab746c782ff01767504d54e3ce1",
      "blockNumber": "0x7254d4",
      "gasUsed": "0xfb93",
      "effectiveGasPrice": "0xdb3a2eff",
      "from": "0xc77f7fed3b5cc8249adc428c5f44c9063b9734b4",
      "to": "0x270e88f8683660553e8ba4eb2ad7c91a1710d769",
      "contractAddress": null
    }
  ],
  "libraries": [],
  "pending": [],
  "returns": {},
  "timestamp": 1736895481,
  "chain": 11155111,
  "commit": "51a374b"
}