{
  "transactions": [
    {
      "hash": "0x02455ad32e99a3a3fdbf3a7942b923f0efaf39c45da363d96a40892220108d8c",
      "transactionType": "CALL",
      "contractName": null,
      "contractAddress": "0xbf4a322f1496e5c3d34a9bcdb4c60567b38c7de2",
      "function": "sell(uint256)",
      "arguments": [
        "980953492739866729952"
      ],
      "transaction": {
        "from": "0xc77f7fed3b5cc8249adc428c5f44c9063b9734b4",
        "to": "0xbf4a322f1496e5c3d34a9bcdb4c60567b38c7de2",
        "gas": "0x16fea",
        "value": "0x0",
        "input": "0xe4849b320000000000000000000000000000000000000000000000352d76e455227b9de0",
        "nonce": "0xbd1",
        "chainId": "0xaa36a7"
      },
      "additionalContracts": [],
      "isFixedGasLimit": false
    }
  ],
  "receipts": [
    {
      "status": "0x1",
      "cumulativeGasUsed": "0xecebd2",
      "logs": [
        {
          "address": "0xbf4a322f1496e5c3d34a9bcdb4c60567b38c7de2",
          "topics": [
            "0xddf252ad1be2c89b69c2b068fc378daa952ba7f163c4a11628f55a4df523b3ef",
            "0x000000000000000000000000c77f7fed3b5cc8249adc428c5f44c9063b9734b4",
            "0x0000000000000000000000000000000000000000000000000000000000000000"
          ],
          "data": "0x0000000000000000000000000000000000000000000000352d76e455227b9de0",
          "blockHash": "0x9c51a14bef5aed5a6651fb01c8db3f6572d13cfb9387888342266fcbae5d812c",
          "blockNumber": "0x725bf3",
          "transactionHash": "0x02455ad32e99a3a3fdbf3a7942b923f0efaf39c45da363d96a40892220108d8c",
          "transactionIndex": "0x7c",
          "logIndex": "0xe5",
          "removed": false
        },
        {
          "address": "0xbf4a322f1496e5c3d34a9bcdb4c60567b38c7de2",
          "topics": [
            "0x4afcb4a87cdbd9974efdb92ee48bc8d7cd0ae4bf217004db3d080cbaee652ca7"
          ],
          "data": "0x00000000000000000000000000000000000000000000000000000000678741c0000000000000000000000000000000000000000000000000000398b113643b280000000000000000000000000000000000000000000000000dc7e3e44880f6ec",
          "blockHash": "0x9c51a14bef5aed5a6651fb01c8db3f6572d13cfb9387888342266fcbae5d812c",
          "blockNumber": "0x725bf3",
          "transactionHash": "0x02455ad32e99a3a3fdbf3a7942b923f0efaf39c45da363d96a40892220108d8c",
          "transactionIndex": "0x7c",
          "logIndex": "0xe6",
          "removed": false
        }
      ],
      "logsBloom": "0x00000000000000000000000000000000000000000000000000000000000000000000000000000000000000000000000000000000000000004000000000000000000000000000000000000008000000000000001000000000000000000000000000000000020000000000000000000800020000000000000000000010000000000000000000000000000000000000000000000000000008000000010000000000000000000000000000000000000000004000000000000000000000000000000000000002000000800000000000001000000000000000080000000000000020000000000000000000000000000000000000000000000000000000000000000000",
      "type": "0x2",
      "transactionHash": "0x02455ad32e99a3a3fdbf3a7942b923f0efaf39c45da363d96a40892220108d8c",
      "transactionIndex": "0x7c",
      "blockHash": "0x9c51a14bef5aed5a6651fb01c8db3f6572d13cfb9387888342266fcbae5d812c",
      "blockNumber": "0x725bf3",
      "gasUsed": "0xfb91",
      "effectiveGasPrice": "0x8d362443",
      "from": "0xc77f7fed3b5cc8249adc428c5f44c9063b9734b4",
      "to": "0xbf4a322f1496e5c3d34a9bcdb4c60567b38c7de2",
      "contractAddress": null
    }
  ],
  "libraries": [],
  "pending": [],
  "returns": {},
  "timestamp": 1736917440,
  "chain": 11155111,
  "commit": "51a374b"
}