{
  "transactions": [
    {
      "hash": "0x99ff23fd0912de1513ec757dfeae023cfd0a6a3f6a3595099d43261f1319a7a6",
      "transactionType": "CALL",
      "contractName": null,
      "contractAddress": "0x8aafd3ede9adb0ff97c7aebce82a919afb1c8764",
      "function": "buy(address)",
      "arguments": [
        "0xC77f7fed3b5Cc8249aDc428c5F44C9063B9734b4"
      ],
      "transaction": {
        "from": "0xc77f7fed3b5cc8249adc428c5f44c9063b9734b4",
        "to": "0x8aafd3ede9adb0ff97c7aebce82a919afb1c8764",
        "gas": "0x156ea",
        "value": "0xde0b6b3a7640000",
        "input": "0xf088d547000000000000000000000000c77f7fed3b5cc8249adc428c5f44c9063b9734b4",
        "nonce": "0x1345",
        "chainId": "0xaa36a7"
      },
      "additionalContracts": [],
      "isFixedGasLimit": false
    }
  ],
  "receipts": [
    {
      "status": "0x1",
      "cumulativeGasUsed": "0xcb7bf5",
      "logs": [
        {
          "address": "0x8aafd3ede9adb0ff97c7aebce82a919afb1c8764",
          "topics": [
            "0xddf252ad1be2c89b69c2b068fc378daa952ba7f163c4a11628f55a4df523b3ef",
            "0x0000000000000000000000000000000000000000000000000000000000000000",
            "0x000000000000000000000000c77f7fed3b5cc8249adc428c5f44c9063b9734b4"
          ],
          "data": "0x00000000000000000000000000000000000000000000000fef04789664e96548",
          "blockHash": "0x0124c148b43a084944c97b5e5fa3f2cb5165edef4fabf264b78196351759c68d",
          "blockNumber": "0x731a5e",
          "transactionHash": "0x99ff23fd0912de1513ec757dfeae023cfd0a6a3f6a3595099d43261f1319a7a6",
          "transactionIndex": "0x7b",
          "logIndex": "0xa8",
          "removed": false
        },
        {
          "address": "0x8aafd3ede9adb0ff97c7aebce82a919afb1c8764",
          "topics": [
            "0xddf252ad1be2c89b69c2b068fc378daa952ba7f163c4a11628f55a4df523b3ef",
            "0x0000000000000000000000000000000000000000000000000000000000000000",
            "0x000000000000000000000000c77f7fed3b5cc8249adc428c5f44c9063b9734b4"
          ],
          "data": "0x0000000000000000000000000000000000000000000000000c5f7f06b90b2700",
          "blockHash": "0x0124c148b43a084944c97b5e5fa3f2cb5165edef4fabf264b78196351759c68d",
          "blockNumber": "0x731a5e",
          "transactionHash": "0x99ff23fd0912de1513ec757dfeae023cfd0a6a3f6a3595099d43261f1319a7a6",
          "transactionIndex": "0x7b",
          "logIndex": "0xa9",
          "removed": false
        },
        {
          "address": "0x8aafd3ede9adb0ff97c7aebce82a919afb1c8764",
          "topics": [
            "0x4afcb4a87cdbd9974efdb92ee48bc8d7cd0ae4bf217004db3d080cbaee652ca7"
          ],
          "data": "0x0000000000000000000000000000000000000000000000000000000067903938000000000000000000000000000000000000000000000000000bfd5778f936110000000000000000000000000000000000000000000000000de0b6b3a7640000",
          "blockHash": "0x0124c148b43a084944c97b5e5fa3f2cb5165edef4fabf264b78196351759c68d",
          "blockNumber": "0x731a5e",
          "transactionHash": "0x99ff23fd0912de1513ec757dfeae023cfd0a6a3f6a3595099d43261f1319a7a6",
          "transactionIndex": "0x7b",
          "logIndex": "0xaa",
          "removed": false
        }
      ],
      "logsBloom": "0x00000000000000000000000000000000000000000600000000000000000000000000000000000000000000000000000000000000000000004000000000000000000000000000004000000008000000000000000000000000000000000000000000000000020000000000000000000800020000000000000000000010000000000000000000000000000000000000000000000000000000000000010000000000000000000000000000000000000000004000000000000000000000000000000000000002000000800000000000000000000000000000080000000000000020000000000000000000000000000000000000000000000000000000000000000000",
      "type": "0x2",
      "transactionHash": "0x99ff23fd0912de1513ec757dfeae023cfd0a6a3f6a3595099d43261f1319a7a6",
      "transactionIndex": "0x7b",
      "blockHash": "0x0124c148b43a084944c97b5e5fa3f2cb5165edef4fabf264b78196351759c68d",
      "blockNumber": "0x731a5e",
      "gasUsed": "0xf844",
      "effectiveGasPrice": "0x41c01ead",
      "from": "0xc77f7fed3b5cc8249adc428c5f44c9063b9734b4",
      "to": "0x8aafd3ede9adb0ff97c7aebce82a919afb1c8764",
      "contractAddress": null
    }
  ],
  "libraries": [],
  "pending": [],
  "returns": {},
  "timestamp": 1737505082,
  "chain": 11155111,
  "commit": "1d2fb70"
}