{
  "transactions": [
    {
      "hash": "0x7231d183a98c40c7cb54f6992724e2ce144fcd0ed562a01c777e36a4e909b39d",
      "transactionType": "CALL",
      "contractName": null,
      "contractAddress": "0x270e88f8683660553e8ba4eb2ad7c91a1710d769",
      "function": "sell(uint256)",
      "arguments": [
        "718545317141619485321"
      ],
      "transaction": {
        "from": "0xc77f7fed3b5cc8249adc428c5f44c9063b9734b4",
        "to": "0x270e88f8683660553e8ba4eb2ad7c91a1710d769",
        "gas": "0x16fec",
        "value": "0x0",
        "input": "0xe4849b32000000000000000000000000000000000000000000000026f3d1c6ec8ea12a89",
        "nonce": "0x834",
        "chainId": "0xaa36a7"
      },
      "additionalContracts": [],
      "isFixedGasLimit": false
    }
  ],
  "receipts": [
    {
      "status": "0x1",
      "cumulativeGasUsed": "0x760e09",
      "logs": [
        {
          "address": "0x270e88f8683660553e8ba4eb2ad7c91a1710d769",
          "topics": [
            "0xddf252ad1be2c89b69c2b068fc378daa952ba7f163c4a11628f55a4df523b3ef",
            "0x000000000000000000000000c77f7fed3b5cc8249adc428c5f44c9063b9734b4",
            "0x0000000000000000000000000000000000000000000000000000000000000000"
          ],
          "data": "0x000000000000000000000000000000000000000000000026f3d1c6ec8ea12a89",
          "blockHash": "0xe3ff2689fb287c707f9007c157258629bb88978943236e48f95407e2c336802c",
          "blockNumber": "0x72557f",
          "transactionHash": "0x7231d183a98c40c7cb54f6992724e2ce144fcd0ed562a01c777e36a4e909b39d",
          "transactionIndex": "0x42",
          "logIndex": "0x58",
          "removed": false
        },
        {
          "address": "0x270e88f8683660553e8ba4eb2ad7c91a1710d769",
          "topics": [
            "0x4afcb4a87cdbd9974efdb92ee48bc8d7cd0ae4bf217004db3d080cbaee652ca7"
          ],
          "data": "0x000000000000000000000000000000000000000000000000000000006786f3fc0000000000000000000000000000000000000000000000000004e92e52dff2c40000000000000000000000000000000000000000000000000dc8264758585ff4",
          "blockHash": "0xe3ff2689fb287c707f9007c157258629bb88978943236e48f95407e2c336802c",
          "blockNumber": "0x72557f",
          "transactionHash": "0x7231d183a98c40c7cb54f6992724e2ce144fcd0ed562a01c777e36a4e909b39d",
          "transactionIndex": "0x42",
          "logIndex": "0x59",
          "removed": false
        }
      ],
      "logsBloom": "0x00000000000000000000000000000000000000000000000000000000000000000000000000000000000000000000000020000000000000004000000000000000000000000000000000000008000000000000000000000000000000000000000000000000020000000000000000000800020000000000000000000010000000000000000000010000000000000000000000000000000000000000010000000000000000000000000000000000000000004000000000000000000000000000000000000002000000800000000000000000000000000000080000008000000020000000000000000000000000000000000000000000000000000000000000000000",
      "type": "0x2",
      "transactionHash": "0x7231d183a98c40c7cb54f6992724e2ce144fcd0ed562a01c777e36a4e909b39d",
      "transactionIndex": "0x42",
      "blockHash": "0xe3ff2689fb287c707f9007c157258629bb88978943236e48f95407e2c336802c",
      "blockNumber": "0x72557f",
      "gasUsed": "0xfb93",
      "effectiveGasPrice": "0x73bfafb4",
      "from": "0xc77f7fed3b5cc8249adc428c5f44c9063b9734b4",
      "to": "0x270e88f8683660553e8ba4eb2ad7c91a1710d769",
      "contractAddress": null
    }
  ],
  "libraries": [],
  "pending": [],
  "returns": {},
  "timestamp": 1736897532,
  "chain": 11155111,
  "commit": "51a374b"
}