{
  "transactions": [
    {
      "hash": "0x8367c2ff59600f995d95d0ecab4f98abef965c25af71d4bca6a4ebe28477aa12",
      "transactionType": "CALL",
      "contractName": null,
      "contractAddress": "0x270e88f8683660553e8ba4eb2ad7c91a1710d769",
      "function": "buy(address)",
      "arguments": [
        "0xC77f7fed3b5Cc8249aDc428c5F44C9063B9734b4"
      ],
      "transaction": {
        "from": "0xc77f7fed3b5cc8249adc428c5f44c9063b9734b4",
        "to": "0x270e88f8683660553e8ba4eb2ad7c91a1710d769",
        "gas": "0x1b30c",
        "value": "0xde0b6b3a7640000",
        "input": "0xf088d547000000000000000000000000c77f7fed3b5cc8249adc428c5f44c9063b9734b4",
        "nonce": "0x89b",
        "chainId": "0xaa36a7"
      },
      "additionalContracts": [],
      "isFixedGasLimit": false
    }
  ],
  "receipts": [
    {
      "status": "0x1",
      "cumulativeGasUsed": "0x13cdf79",
      "logs": [
        {
          "address": "0x270e88f8683660553e8ba4eb2ad7c91a1710d769",
          "topics": [
            "0xddf252ad1be2c89b69c2b068fc378daa952ba7f163c4a11628f55a4df523b3ef",
            "0x0000000000000000000000000000000000000000000000000000000000000000",
            "0x000000000000000000000000c77f7fed3b5cc8249adc428c5f44c9063b9734b4"
          ],
          "data": "0x0000000000000000000000000000000000000000000000265e99c447d2a83354",
          "blockHash": "0x312276d8924e85208598ec30562b923cbeed84a5c5dba663c265737378aeb14a",
          "blockNumber": "0x7255f9",
          "transactionHash": "0x8367c2ff59600f995d95d0ecab4f98abef965c25af71d4bca6a4ebe28477aa12",
          "transactionIndex": "0x79",
          "logIndex": "0xdc",
          "removed": false
        },
        {
          "address": "0x270e88f8683660553e8ba4eb2ad7c91a1710d769",
          "topics": [
            "0xddf252ad1be2c89b69c2b068fc378daa952ba7f163c4a11628f55a4df523b3ef",
            "0x0000000000000000000000000000000000000000000000000000000000000000",
            "0x000000000000000000000000c77f7fed3b5cc8249adc428c5f44c9063b9734b4"
          ],
          "data": "0x0000000000000000000000000000000000000000000000001dcb959ebb5554be",
          "blockHash": "0x312276d8924e85208598ec30562b923cbeed84a5c5dba663c265737378aeb14a",
          "blockNumber": "0x7255f9",
          "transactionHash": "0x8367c2ff59600f995d95d0ecab4f98abef965c25af71d4bca6a4ebe28477aa12",
          "transactionIndex": "0x79",
          "logIndex": "0xdd",
          "removed": false
        },
        {
          "address": "0x270e88f8683660553e8ba4eb2ad7c91a1710d769",
          "topics": [
            "0x4afcb4a87cdbd9974efdb92ee48bc8d7cd0ae4bf217004db3d080cbaee652ca7"
          ],
          "data": "0x000000000000000000000000000000000000000000000000000000006786f9b40000000000000000000000000000000000000000000000000004f83a561353e10000000000000000000000000000000000000000000000000de0b6b3a7640000",
          "blockHash": "0x312276d8924e85208598ec30562b923cbeed84a5c5dba663c265737378aeb14a",
          "blockNumber": "0x7255f9",
          "transactionHash": "0x8367c2ff59600f995d95d0ecab4f98abef965c25af71d4bca6a4ebe28477aa12",
          "transactionIndex": "0x79",
          "logIndex": "0xde",
          "removed": false
        }
      ],
      "logsBloom": "0x00000000000000000000000000000000000000000000000000000000000000000000000000000000000000000000000020000000000000004000000000000000000000000000000000000008000000000000000000000000000000000000000000000000020000000000000000000800020000000000000000000010000000000000000000010000000000000000000000000000000000000000010000000000000000000000000000000000000000004000000000000000000000000000000000000002000000800000000000000000000000000000080000008000000020000000000000000000000000000000000000000000000000000000000000000000",
      "type": "0x2",
      "transactionHash": "0x8367c2ff59600f995d95d0ecab4f98abef965c25af71d4bca6a4ebe28477aa12",
      "transactionIndex": "0x79",
      "blockHash": "0x312276d8924e85208598ec30562b923cbeed84a5c5dba663c265737378aeb14a",
      "blockNumber": "0x7255f9",
      "gasUsed": "0x13af8",
      "effectiveGasPrice": "0x8cbce0d9",
      "from": "0xc77f7fed3b5cc8249adc428c5f44c9063b9734b4",
      "to": "0x270e88f8683660553e8ba4eb2ad7c91a1710d769",
      "contractAddress": null
    }
  ],
  "libraries": [],
  "pending": [],
  "returns": {},
  "timestamp": 1736898997,
  "chain": 11155111,
  "commit": "51a374b"
}