{
  "transactions": [
    {
      "hash": "0x0517f492ec8e46471a806967ce81a4b98b7b374f41ad45868661f0795bce1768",
      "transactionType": "CALL",
      "contractName": null,
      "contractAddress": "0xbf4a322f1496e5c3d34a9bcdb4c60567b38c7de2",
      "function": "sell(uint256)",
      "arguments": [
        "979046922995285776759"
      ],
      "transaction": {
        "from": "0xc77f7fed3b5cc8249adc428c5f44c9063b9734b4",
        "to": "0xbf4a322f1496e5c3d34a9bcdb4c60567b38c7de2",
        "gas": "0x16fea",
        "value": "0x0",
        "input": "0xe4849b3200000000000000000000000000000000000000000000003513016540553a5977",
        "nonce": "0xc5f",
        "chainId": "0xaa36a7"
      },
      "additionalContracts": [],
      "isFixedGasLimit": false
    }
  ],
  "receipts": [
    {
      "status": "0x1",
      "cumulativeGasUsed": "0x6b02a7",
      "logs": [
        {
          "address": "0xbf4a322f1496e5c3d34a9bcdb4c60567b38c7de2",
          "topics": [
            "0xddf252ad1be2c89b69c2b068fc378daa952ba7f163c4a11628f55a4df523b3ef",
            "0x000000000000000000000000c77f7fed3b5cc8249adc428c5f44c9063b9734b4",
            "0x0000000000000000000000000000000000000000000000000000000000000000"
          ],
          "data": "0x00000000000000000000000000000000000000000000003513016540553a5977",
          "blockHash": "0xf43782adec61085100c66950464169f047d39e3ddb7880a0f0a4f79c1fa9c758",
          "blockNumber": "0x725c98",
          "transactionHash": "0x0517f492ec8e46471a806967ce81a4b98b7b374f41ad45868661f0795bce1768",
          "transactionIndex": "0x43",
          "logIndex": "0x5b",
          "removed": false
        },
        {
          "address": "0xbf4a322f1496e5c3d34a9bcdb4c60567b38c7de2",
          "topics": [
            "0x4afcb4a87cdbd9974efdb92ee48bc8d7cd0ae4bf217004db3d080cbaee652ca7"
          ],
          "data": "0x000000000000000000000000000000000000000000000000000000006787499400000000000000000000000000000000000000000000000000039a7c0da7664f0000000000000000000000000000000000000000000000000dc7e3dfd9b2acd4",
          "blockHash": "0xf43782adec61085100c66950464169f047d39e3ddb7880a0f0a4f79c1fa9c758",
          "blockNumber": "0x725c98",
          "transactionHash": "0x0517f492ec8e46471a806967ce81a4b98b7b374f41ad45868661f0795bce1768",
          "transactionIndex": "0x43",
          "logIndex": "0x5c",
          "removed": false
        }
      ],
      "logsBloom": "0x00000000000000000000000000000000000000000000000000000000000000000000000000000000000000000000000000000000000000004000000000000000000000000000000000000008000000000000001000000000000000000000000000000000020000000000000000000800020000000000000000000010000000000000000000000000000000000000000000000000000008000000010000000000000000000000000000000000000000004000000000000000000000000000000000000002000000800000000000001000000000000000080000000000000020000000000000000000000000000000000000000000000000000000000000000000",
      "type": "0x2",
      "transactionHash": "0x0517f492ec8e46471a806967ce81a4b98b7b374f41ad45868661f0795bce1768",
      "transactionIndex": "0x43",
      "blockHash": "0xf43782adec61085100c66950464169f047d39e3ddb7880a0f0a4f79c1fa9c758",
      "blockNumber": "0x725c98",
      "gasUsed": "0xfb91",
      "effectiveGasPrice": "0x270357373",
      "from": "0xc77f7fed3b5cc8249adc428c5f44c9063b9734b4",
      "to": "0xbf4a322f1496e5c3d34a9bcdb4c60567b38c7de2",
      "contractAddress": null
    }
  ],
  "libraries": [],
  "pending": [],
  "returns": {},
  "timestamp": 1736919446,
  "chain": 11155111,
  "commit": "51a374b"
}