{
  "transactions": [
    {
      "hash": "0xa096ff93503f853e0937f170ecd22f7bae70a86656bfadfa2acc27fb466ff8e3",
      "transactionType": "CALL",
      "contractName": null,
      "contractAddress": "0x8aafd3ede9adb0ff97c7aebce82a919afb1c8764",
      "function": "sell(uint256)",
      "arguments": [
        "427402"
      ],
      "transaction": {
        "from": "0xc77f7fed3b5cc8249adc428c5f44c9063b9734b4",
        "to": "0x8aafd3ede9adb0ff97c7aebce82a919afb1c8764",
        "gas": "0x16208",
        "value": "0x0",
        "input": "0xe4849b32000000000000000000000000000000000000000000000000000000000006858a",
        "nonce": "0x1521",
        "chainId": "0xaa36a7"
      },
      "additionalContracts": [],
      "isFixedGasLimit": false
    }
  ],
  "receipts": [
    {
      "status": "0x1",
      "cumulativeGasUsed": "0xa31e8e",
      "logs": [
        {
          "address": "0x8aafd3ede9adb0ff97c7aebce82a919afb1c8764",
          "topics": [
            "0xddf252ad1be2c89b69c2b068fc378daa952ba7f163c4a11628f55a4df523b3ef",
            "0x000000000000000000000000c77f7fed3b5cc8249adc428c5f44c9063b9734b4",
            "0x0000000000000000000000000000000000000000000000000000000000000000"
          ],
          "data": "0x000000000000000000000000000000000000000000000000000000000006782f",
          "blockHash": "0x04149d7052583798bae5e4dc8c0f9ccfa3b766c39c35082e069ad2094dcfcf10",
          "blockNumber": "0x731c83",
          "transactionHash": "0xa096ff93503f853e0937f170ecd22f7bae70a86656bfadfa2acc27fb466ff8e3",
          "transactionIndex": "0x76",
          "logIndex": "0x86",
          "removed": false
        },
        {
          "address": "0x8aafd3ede9adb0ff97c7aebce82a919afb1c8764",
          "topics": [
            "0xddf252ad1be2c89b69c2b068fc378daa952ba7f163c4a11628f55a4df523b3ef",
            "0x000000000000000000000000c77f7fed3b5cc8249adc428c5f44c9063b9734b4",
            "0x000000000000000000000000c77f7fed3b5cc8249adc428c5f44c9063b9734b4"
          ],
          "data": "0x0000000000000000000000000000000000000000000000000000000000000d5b",
          "blockHash": "0x04149d7052583798bae5e4dc8c0f9ccfa3b766c39c35082e069ad2094dcfcf10",
          "blockNumber": "0x731c83",
          "transactionHash": "0xa096ff93503f853e0937f170ecd22f7bae70a86656bfadfa2acc27fb466ff8e3",
          "transactionIndex": "0x76",
          "logIndex": "0x87",
          "removed": false
        },
        {
          "address": "0x8aafd3ede9adb0ff97c7aebce82a919afb1c8764",
          "topics": [
            "0x4afcb4a87cdbd9974efdb92ee48bc8d7cd0ae4bf217004db3d080cbaee652ca7"
          ],
          "data": "0x000000000000000000000000000000000000000000000000000000006790530000000000000000000000000000000000000000000000000000116a00d47228b4000000000000000000000000000000000000000000000000000000000000082e",
          "blockHash": "0x04149d7052583798bae5e4dc8c0f9ccfa3b766c39c35082e069ad2094dcfcf10",
          "blockNumber": "0x731c83",
          "transactionHash": "0xa096ff93503f853e0937f170ecd22f7bae70a86656bfadfa2acc27fb466ff8e3",
          "transactionIndex": "0x76",
          "logIndex": "0x88",
          "removed": false
        }
      ],
      "logsBloom": "0x00000000000000000000000000000000000000000600000000000000000000000000000000000000000000000000000000000000000000004000000000000000000000000000004000000008000000000000000000000000000000000000000000000000020000000000000000000800020000000000000000000010000000000000000000000000000000000000000000000000000000000000010000000000000000000000000000000000000000004000000000000000000000000000000000000002000000800000000000000000000000000000080000000000000020000000000000000000000000000000000000000000000000000000000000000000",
      "type": "0x2",
      "transactionHash": "0xa096ff93503f853e0937f170ecd22f7bae70a86656bfadfa2acc27fb466ff8e3",
      "transactionIndex": "0x76",
      "blockHash": "0x04149d7052583798bae5e4dc8c0f9ccfa3b766c39c35082e069ad2094dcfcf10",
      "blockNumber": "0x731c83",
      "gasUsed": "0xf213",
      "effectiveGasPrice": "0x14cc657f9",
      "from": "0xc77f7fed3b5cc8249adc428c5f44c9063b9734b4",
      "to": "0x8aafd3ede9adb0ff97c7aebce82a919afb1c8764",
      "contractAddress": null
    }
  ],
  "libraries": [],
  "pending": [],
  "returns": {},
  "timestamp": 1737511682,
  "chain": 11155111,
  "commit": "1d2fb70"
}