{
  "transactions": [
    {
      "hash": "0x082a059b42447655eb41f9cbbac94ef844481dad2ae7c8ab98f074233c10b3b0",
      "transactionType": "CALL",
      "contractName": null,
      "contractAddress": "0x5eb9cc76c3506942c1c0ead70e877dd5e4f00cb0",
      "function": "sell(uint256)",
      "arguments": [
        "989615220040106501191"
      ],
      "transaction": {
        "from": "0xc77f7fed3b5cc8249adc428c5f44c9063b9734b4",
        "to": "0x5eb9cc76c3506942c1c0ead70e877dd5e4f00cb0",
        "gas": "0x16fec",
        "value": "0x0",
        "input": "0xe4849b32000000000000000000000000000000000000000000000035a5ab876b9a93e447",
        "nonce": "0x24f",
        "chainId": "0xaa36a7"
      },
      "additionalContracts": [],
      "isFixedGasLimit": false
    }
  ],
  "receipts": [
    {
      "status": "0x1",
      "cumulativeGasUsed": "0xea8d76",
      "logs": [
        {
          "address": "0x5eb9cc76c3506942c1c0ead70e877dd5e4f00cb0",
          "topics": [
            "0xddf252ad1be2c89b69c2b068fc378daa952ba7f163c4a11628f55a4df523b3ef",
            "0x000000000000000000000000c77f7fed3b5cc8249adc428c5f44c9063b9734b4",
            "0x0000000000000000000000000000000000000000000000000000000000000000"
          ],
          "data": "0x000000000000000000000000000000000000000000000035a5ab876b9a93e447",
          "blockHash": "0x8440af7084bff8bbf248c4cee9b1be8097f98cdaf5432e6f59c23d41fbe8299f",
          "blockNumber": "0x724e08",
          "transactionHash": "0x082a059b42447655eb41f9cbbac94ef844481dad2ae7c8ab98f074233c10b3b0",
          "transactionIndex": "0x77",
          "logIndex": "0x11a",
          "removed": false
        },
        {
          "address": "0x5eb9cc76c3506942c1c0ead70e877dd5e4f00cb0",
          "topics": [
            "0x4afcb4a87cdbd9974efdb92ee48bc8d7cd0ae4bf217004db3d080cbaee652ca7"
          ],
          "data": "0x0000000000000000000000000000000000000000000000000000000067869a140000000000000000000000000000000000000000000000000003909bc56b53820000000000000000000000000000000000000000000000000dc7db11837b2b40",
          "blockHash": "0x8440af7084bff8bbf248c4cee9b1be8097f98cdaf5432e6f59c23d41fbe8299f",
          "blockNumber": "0x724e08",
          "transactionHash": "0x082a059b42447655eb41f9cbbac94ef844481dad2ae7c8ab98f074233c10b3b0",
          "transactionIndex": "0x77",
          "logIndex": "0x11b",
          "removed": false
        }
      ],
      "logsBloom": "0x00000000000000000000000000000000000000000000000000000000000000000000000000000000000000000000000000000000000000004000000000000000000000000000000000000008000000000000000000000000000000000000000000000000020000000000000004000800020000000000000000000010000000000000000000000000000000000000000000000000000000000000010000000000000000000000000000000000000000004000000000000000000000000000020000000002000000800000008000000000000000000000080000000000000020000000000000000000000000000000000000000000000000000000000000000000",
      "type": "0x2",
      "transactionHash": "0x082a059b42447655eb41f9cbbac94ef844481dad2ae7c8ab98f074233c10b3b0",
      "transactionIndex": "0x77",
      "blockHash": "0x8440af7084bff8bbf248c4cee9b1be8097f98cdaf5432e6f59c23d41fbe8299f",
      "blockNumber": "0x724e08",
      "gasUsed": "0xfb93",
      "effectiveGasPrice": "0x35f967fd9",
      "from": "0xc77f7fed3b5cc8249adc428c5f44c9063b9734b4",
      "to": "0x5eb9cc76c3506942c1c0ead70e877dd5e4f00cb0",
      "contractAddress": null
    }
  ],
  "libraries": [],
  "pending": [],
  "returns": {},
  "timestamp": 1736874517,
  "chain": 11155111,
  "commit": "51a374b"
}