{
  "transactions": [
    {
      "hash": "0xf8239c425d1610916c5c5df29442d02cd76b298f717976cb178623d30fc2176e",
      "transactionType": "CALL",
      "contractName": null,
      "contractAddress": "0x8aafd3ede9adb0ff97c7aebce82a919afb1c8764",
      "function": "sell(uint256)",
      "arguments": [
        "199025419777929789649"
      ],
      "transaction": {
        "from": "0xc77f7fed3b5cc8249adc428c5f44c9063b9734b4",
        "to": "0x8aafd3ede9adb0ff97c7aebce82a919afb1c8764",
        "gas": "0x17270",
        "value": "0x0",
        "input": "0xe4849b3200000000000000000000000000000000000000000000000aca0854ce608240d1",
        "nonce": "0x153e",
        "chainId": "0xaa36a7"
      },
      "additionalContracts": [],
      "isFixedGasLimit": false
    }
  ],
  "receipts": [
    {
      "status": "0x1",
      "cumulativeGasUsed": "0x83d095",
      "logs": [
        {
          "address": "0x8aafd3ede9adb0ff97c7aebce82a919afb1c8764",
          "topics": [
            "0xddf252ad1be2c89b69c2b068fc378daa952ba7f163c4a11628f55a4df523b3ef",
            "0x000000000000000000000000c77f7fed3b5cc8249adc428c5f44c9063b9734b4",
            "0x0000000000000000000000000000000000000000000000000000000000000000"
          ],
          "data": "0x00000000000000000000000000000000000000000000000ab3efb049a76aaee4",
          "blockHash": "0x7057b6607795fc7a7548786be78eb0b3313f125dbfe016c9ab512d884fd62849",
          "blockNumber": "0x731ca2",
          "transactionHash": "0xf8239c425d1610916c5c5df29442d02cd76b298f717976cb178623d30fc2176e",
          "transactionIndex": "0x60",
          "logIndex": "0xa3",
          "removed": false
        },
        {
          "address": "0x8aafd3ede9adb0ff97c7aebce82a919afb1c8764",
          "topics": [
            "0xddf252ad1be2c89b69c2b068fc378daa952ba7f163c4a11628f55a4df523b3ef",
            "0x000000000000000000000000c77f7fed3b5cc8249adc428c5f44c9063b9734b4",
            "0x000000000000000000000000c77f7fed3b5cc8249adc428c5f44c9063b9734b4"
          ],
          "data": "0x0000000000000000000000000000000000000000000000001618a484b91791ed",
          "blockHash": "0x7057b6607795fc7a7548786be78eb0b3313f125dbfe016c9ab512d884fd62849",
          "blockNumber": "0x731ca2",
          "transactionHash": "0xf8239c425d1610916c5c5df29442d02cd76b298f717976cb178623d30fc2176e",
          "transactionIndex": "0x60",
          "logIndex": "0xa4",
          "removed": false
        },
        {
          "address": "0x8aafd3ede9adb0ff97c7aebce82a919afb1c8764",
          "topics": [
            "0x4afcb4a87cdbd9974efdb92ee48bc8d7cd0ae4bf217004db3d080cbaee652ca7"
          ],
          "data": "0x00000000000000000000000000000000000000000000000000000000679054740000000000000000000000000000000000000000000000000011d435a66f8f1b0000000000000000000000000000000000000000000000000dccf3df7ae579e4",
          "blockHash": "0x7057b6607795fc7a7548786be78eb0b3313f125dbfe016c9ab512d884fd62849",
          "blockNumber": "0x731ca2",
          "transactionHash": "0xf8239c425d1610916c5c5df29442d02cd76b298f717976cb178623d30fc2176e",
          "transactionIndex": "0x60",
          "logIndex": "0xa5",
          "removed": false
        }
      ],
      "logsBloom": "0x00000000000000000000000000000000000000000600000000000000000000000000000000000000000000000000000000000000000000004000000000000000000000000000004000000008000000000000000000000000000000000000000000000000020000000000000000000800020000000000000000000010000000000000000000000000000000000000000000000000000000000000010000000000000000000000000000000000000000004000000000000000000000000000000000000002000000800000000000000000000000000000080000000000000020000000000000000000000000000000000000000000000000000000000000000000",
      "type": "0x2",
      "transactionHash": "0xf8239c425d1610916c5c5df29442d02cd76b298f717976cb178623d30fc2176e",
      "transactionIndex": "0x60",
      "blockHash": "0x7057b6607795fc7a7548786be78eb0b3313f125dbfe016c9ab512d884fd62849",
      "blockNumber": "0x731ca2",
      "gasUsed": "0xfd4b",
      "effectiveGasPrice": "0xfae5feaa",
      "from": "0xc77f7fed3b5cc8249adc428c5f44c9063b9734b4",
      "to": "0x8aafd3ede9adb0ff97c7aebce82a919afb1c8764",
      "contractAddress": null
    }
  ],
  "libraries": [],
  "pending": [],
  "returns": {},
  "timestamp": 1737512053,
  "chain": 11155111,
  "commit": "1d2fb70"
}