{
  "transactions": [
    {
      "hash": "0x2db9da3e3c9006701dd6d905aee823d1535b9ddc8ba5933118f3af43b345c0d8",
      "transactionType": "CALL",
      "contractName": null,
      "contractAddress": "0x270e88f8683660553e8ba4eb2ad7c91a1710d769",
      "function": "buy(address)",
      "arguments": [
        "0xC77f7fed3b5Cc8249aDc428c5F44C9063B9734b4"
      ],
      "transaction": {
        "from": "0xc77f7fed3b5cc8249adc428c5f44c9063b9734b4",
        "to": "0x270e88f8683660553e8ba4eb2ad7c91a1710d769",
        "gas": "0x1b30c",
        "value": "0xde0b6b3a7640000",
        "input": "0xf088d547000000000000000000000000c77f7fed3b5cc8249adc428c5f44c9063b9734b4",
        "nonce": "0x4f8",
        "chainId": "0xaa36a7"
      },
      "additionalContracts": [],
      "isFixedGasLimit": false
    }
  ],
  "receipts": [
    {
      "status": "0x1",
      "cumulativeGasUsed": "0xa7a5d5",
      "logs": [
        {
          "address": "0x270e88f8683660553e8ba4eb2ad7c91a1710d769",
          "topics": [
            "0xddf252ad1be2c89b69c2b068fc378daa952ba7f163c4a11628f55a4df523b3ef",
            "0x0000000000000000000000000000000000000000000000000000000000000000",
            "0x000000000000000000000000c77f7fed3b5cc8249adc428c5f44c9063b9734b4"
          ],
          "data": "0x0000000000000000000000000000000000000000000000355be6ca33b0074903",
          "blockHash": "0x4b81057f15edd495ed2023c00d8cfe9df283ab0b8f683f2db13f73fce17676e8",
          "blockNumber": "0x72518a",
          "transactionHash": "0x2db9da3e3c9006701dd6d905aee823d1535b9ddc8ba5933118f3af43b345c0d8",
          "transactionIndex": "0x48",
          "logIndex": "0x80",
          "removed": false
        },
        {
          "address": "0x270e88f8683660553e8ba4eb2ad7c91a1710d769",
          "topics": [
            "0xddf252ad1be2c89b69c2b068fc378daa952ba7f163c4a11628f55a4df523b3ef",
            "0x0000000000000000000000000000000000000000000000000000000000000000",
            "0x000000000000000000000000c77f7fed3b5cc8249adc428c5f44c9063b9734b4"
          ],
          "data": "0x000000000000000000000000000000000000000000000000296f6124f0f2ec06",
          "blockHash": "0x4b81057f15edd495ed2023c00d8cfe9df283ab0b8f683f2db13f73fce17676e8",
          "blockNumber": "0x72518a",
          "transactionHash": "0x2db9da3e3c9006701dd6d905aee823d1535b9ddc8ba5933118f3af43b345c0d8",
          "transactionIndex": "0x48",
          "logIndex": "0x81",
          "removed": false
        },
        {
          "address": "0x270e88f8683660553e8ba4eb2ad7c91a1710d769",
          "topics": [
            "0x4afcb4a87cdbd9974efdb92ee48bc8d7cd0ae4bf217004db3d080cbaee652ca7"
          ],
          "data": "0x000000000000000000000000000000000000000000000000000000006786c45c000000000000000000000000000000000000000000000000000392ddbebbeaa10000000000000000000000000000000000000000000000000de0b6b3a7640000",
          "blockHash": "0x4b81057f15edd495ed2023c00d8cfe9df283ab0b8f683f2db13f73fce17676e8",
          "blockNumber": "0x72518a",
          "transactionHash": "0x2db9da3e3c9006701dd6d905aee823d1535b9ddc8ba5933118f3af43b345c0d8",
          "transactionIndex": "0x48",
          "logIndex": "0x82",
          "removed": false
        }
      ],
      "logsBloom": "0x00000000000000000000000000000000000000000000000000000000000000000000000000000000000000000000000020000000000000004000000000000000000000000000000000000008000000000000000000000000000000000000000000000000020000000000000000000800020000000000000000000010000000000000000000010000000000000000000000000000000000000000010000000000000000000000000000000000000000004000000000000000000000000000000000000002000000800000000000000000000000000000080000008000000020000000000000000000000000000000000000000000000000000000000000000000",
      "type": "0x2",
      "transactionHash": "0x2db9da3e3c9006701dd6d905aee823d1535b9ddc8ba5933118f3af43b345c0d8",
      "transactionIndex": "0x48",
      "blockHash": "0x4b81057f15edd495ed2023c00d8cfe9df283ab0b8f683f2db13f73fce17676e8",
      "blockNumber": "0x72518a",
      "gasUsed": "0x13af8",
      "effectiveGasPrice": "0x46ba1185a",
      "from": "0xc77f7fed3b5cc8249adc428c5f44c9063b9734b4",
      "to": "0x270e88f8683660553e8ba4eb2ad7c91a1710d769",
      "contractAddress": null
    }
  ],
  "libraries": [],
  "pending": [],
  "returns": {},
  "timestamp": 1736885341,
  "chain": 11155111,
  "commit": "51a374b"
}