{
  "transactions": [
    {
      "hash": "0x0fae43bc3b8a14c8db9e1b0e0c6b62e7eacff72ceedfc8677d2a8bf3393fec42",
      "transactionType": "CALL",
      "contractName": null,
      "contractAddress": "0x8aafd3ede9adb0ff97c7aebce82a919afb1c8764",
      "function": "sell(uint256)",
      "arguments": [
        "2226032118369373066"
      ],
      "transaction": {
        "from": "0xc77f7fed3b5cc8249adc428c5f44c9063b9734b4",
        "to": "0x8aafd3ede9adb0ff97c7aebce82a919afb1c8764",
        "gas": "0x15dca",
        "value": "0x0",
        "input": "0xe4849b320000000000000000000000000000000000000000000000001ee4746aea044b8a",
        "nonce": "0x1386",
        "chainId": "0xaa36a7"
      },
      "additionalContracts": [],
      "isFixedGasLimit": false
    }
  ],
  "receipts": [
    {
      "status": "0x1",
      "cumulativeGasUsed": "0xcbff1f",
      "logs": [
        {
          "address": "0x8aafd3ede9adb0ff97c7aebce82a919afb1c8764",
          "topics": [
            "0xddf252ad1be2c89b69c2b068fc378daa952ba7f163c4a11628f55a4df523b3ef",
            "0x000000000000000000000000c77f7fed3b5cc8249adc428c5f44c9063b9734b4",
            "0x0000000000000000000000000000000000000000000000000000000000000000"
          ],
          "data": "0x0000000000000000000000000000000000000000000000001ea52fe6fc9fe8a2",
          "blockHash": "0xc326552bd31e15b8fc96d09c11e9643691580af331ccc1327d22b0c2cfa61351",
          "blockNumber": "0x731aaa",
          "transactionHash": "0x0fae43bc3b8a14c8db9e1b0e0c6b62e7eacff72ceedfc8677d2a8bf3393fec42",
          "transactionIndex": "0x8a",
          "logIndex": "0x89",
          "removed": false
        },
        {
          "address": "0x8aafd3ede9adb0ff97c7aebce82a919afb1c8764",
          "topics": [
            "0xddf252ad1be2c89b69c2b068fc378daa952ba7f163c4a11628f55a4df523b3ef",
            "0x000000000000000000000000c77f7fed3b5cc8249adc428c5f44c9063b9734b4",
            "0x000000000000000000000000c77f7fed3b5cc8249adc428c5f44c9063b9734b4"
          ],
          "data": "0x000000000000000000000000000000000000000000000000003f4483ed6462e8",
          "blockHash": "0xc326552bd31e15b8fc96d09c11e9643691580af331ccc1327d22b0c2cfa61351",
          "blockNumber": "0x731aaa",
          "transactionHash": "0x0fae43bc3b8a14c8db9e1b0e0c6b62e7eacff72ceedfc8677d2a8bf3393fec42",
          "transactionIndex": "0x8a",
          "logIndex": "0x8a",
          "removed": false
        },
        {
          "address": "0x8aafd3ede9adb0ff97c7aebce82a919afb1c8764",
          "topics": [
            "0x4afcb4a87cdbd9974efdb92ee48bc8d7cd0ae4bf217004db3d080cbaee652ca7"
          ],
          "data": "0x0000000000000000000000000000000000000000000000000000000067903cc8000000000000000000000000000000000000000000000000000cc7cea8cc887c000000000000000000000000000000000000000000000000001c72ca769c55a3",
          "blockHash": "0xc326552bd31e15b8fc96d09c11e9643691580af331ccc1327d22b0c2cfa61351",
          "blockNumber": "0x731aaa",
          "transactionHash": "0x0fae43bc3b8a14c8db9e1b0e0c6b62e7eacff72ceedfc8677d2a8bf3393fec42",
          "transactionIndex": "0x8a",
          "logIndex": "0x8b",
          "removed": false
        }
      ],
      "logsBloom": "0x00000000000000000000000000000000000000000600000000000000000000000000000000000000000000000000000000000000000000004000000000000000000000000000004000000008000000000000000000000000000000000000000000000000020000000000000000000800020000000000000000000010000000000000000000000000000000000000000000000000000000000000010000000000000000000000000000000000000000004000000000000000000000000000000000000002000000800000000000000000000000000000080000000000000020000000000000000000000000000000000000000000000000000000000000000000",
      "type": "0x2",
      "transactionHash": "0x0fae43bc3b8a14c8db9e1b0e0c6b62e7eacff72ceedfc8677d2a8bf3393fec42",
      "transactionIndex": "0x8a",
      "blockHash": "0xc326552bd31e15b8fc96d09c11e9643691580af331ccc1327d22b0c2cfa61351",
      "blockNumber": "0x731aaa",
      "gasUsed": "0xfd3f",
      "effectiveGasPrice": "0x64099b82",
      "from": "0xc77f7fed3b5cc8249adc428c5f44c9063b9734b4",
      "to": "0x8aafd3ede9adb0ff97c7aebce82a919afb1c8764",
      "contractAddress": null
    }
  ],
  "libraries": [],
  "pending": [],
  "returns": {},
  "timestamp": 1737505993,
  "chain": 11155111,
  "commit": "1d2fb70"
}