{
  "transactions": [
    {
      "hash": "0xe9c36e524d6839b519250598ffafd202350e9047e5a3e84bee32b00d757c767a",
      "transactionType": "CALL",
      "contractName": null,
      "contractAddress": "0xbf4a322f1496e5c3d34a9bcdb4c60567b38c7de2",
      "function": "sell(uint256)",
      "arguments": [
        "987835389774142343779"
      ],
      "transaction": {
        "from": "0xc77f7fed3b5cc8249adc428c5f44c9063b9734b4",
        "to": "0xbf4a322f1496e5c3d34a9bcdb4c60567b38c7de2",
        "gas": "0x16fea",
        "value": "0x0",
        "input": "0xe4849b320000000000000000000000000000000000000000000000358cf84d392f4b8a63",
        "nonce": "0x9d5",
        "chainId": "0xaa36a7"
      },
      "additionalContracts": [],
      "isFixedGasLimit": false
    }
  ],
  "receipts": [
    {
      "status": "0x1",
      "cumulativeGasUsed": "0xa5b3e7",
      "logs": [
        {
          "address": "0xbf4a322f1496e5c3d34a9bcdb4c60567b38c7de2",
          "topics": [
            "0xddf252ad1be2c89b69c2b068fc378daa952ba7f163c4a11628f55a4df523b3ef",
            "0x000000000000000000000000c77f7fed3b5cc8249adc428c5f44c9063b9734b4",
            "0x0000000000000000000000000000000000000000000000000000000000000000"
          ],
          "data": "0x0000000000000000000000000000000000000000000000358cf84d392f4b8a63",
          "blockHash": "0x07d4e75969f0493505230040f723bdcd8011eb1d29abb5a566d373ff73a78dc2",
          "blockNumber": "0x725987",
          "transactionHash": "0xe9c36e524d6839b519250598ffafd202350e9047e5a3e84bee32b00d757c767a",
          "transactionIndex": "0x69",
          "logIndex": "0x99",
          "removed": false
        },
        {
          "address": "0xbf4a322f1496e5c3d34a9bcdb4c60567b38c7de2",
          "topics": [
            "0x4afcb4a87cdbd9974efdb92ee48bc8d7cd0ae4bf217004db3d080cbaee652ca7"
          ],
          "data": "0x000000000000000000000000000000000000000000000000000000006787248c000000000000000000000000000000000000000000000000000392471a6eb2f00000000000000000000000000000000000000000000000000dc7e3f4489d0815",
          "blockHash": "0x07d4e75969f0493505230040f723bdcd8011eb1d29abb5a566d373ff73a78dc2",
          "blockNumber": "0x725987",
          "transactionHash": "0xe9c36e524d6839b519250598ffafd202350e9047e5a3e84bee32b00d757c767a",
          "transactionIndex": "0x69",
          "logIndex": "0x9a",
          "removed": false
        }
      ],
      "logsBloom": "0x00000000000000000000000000000000000000000000000000000000000000000000000000000000000000000000000000000000000000004000000000000000000000000000000000000008000000000000001000000000000000000000000000000000020000000000000000000800020000000000000000000010000000000000000000000000000000000000000000000000000008000000010000000000000000000000000000000000000000004000000000000000000000000000000000000002000000800000000000001000000000000000080000000000000020000000000000000000000000000000000000000000000000000000000000000000",
      "type": "0x2",
      "transactionHash": "0xe9c36e524d6839b519250598ffafd202350e9047e5a3e84bee32b00d757c767a",
      "transactionIndex": "0x69",
      "blockHash": "0x07d4e75969f0493505230040f723bdcd8011eb1d29abb5a566d373ff73a78dc2",
      "blockNumber": "0x725987",
      "gasUsed": "0xfb91",
      "effectiveGasPrice": "0x2b67ec771",
      "from": "0xc77f7fed3b5cc8249adc428c5f44c9063b9734b4",
      "to": "0xbf4a322f1496e5c3d34a9bcdb4c60567b38c7de2",
      "contractAddress": null
    }
  ],
  "libraries": [],
  "pending": [],
  "returns": {},
  "timestamp": 1736909965,
  "chain": 11155111,
  "commit": "51a374b"
}