{
  "transactions": [
    {
      "hash": "0x379efd4b2d938237f547f2f391ff9b9f370c02014179d243edf3fb1f6d3c9fde",
      "transactionType": "CALL",
      "contractName": null,
      "contractAddress": "0x8aafd3ede9adb0ff97c7aebce82a919afb1c8764",
      "function": "sell(uint256)",
      "arguments": [
        "367656"
      ],
      "transaction": {
        "from": "0xc77f7fed3b5cc8249adc428c5f44c9063b9734b4",
        "to": "0x8aafd3ede9adb0ff97c7aebce82a919afb1c8764",
        "gas": "0x16208",
        "value": "0x0",
        "input": "0xe4849b320000000000000000000000000000000000000000000000000000000000059c28",
        "nonce": "0x1614",
        "chainId": "0xaa36a7"
      },
      "additionalContracts": [],
      "isFixedGasLimit": false
    }
  ],
  "receipts": [
    {
      "status": "0x1",
      "cumulativeGasUsed": "0x97cf5c",
      "logs": [
        {
          "address": "0x8aafd3ede9adb0ff97c7aebce82a919afb1c8764",
          "topics": [
            "0xddf252ad1be2c89b69c2b068fc378daa952ba7f163c4a11628f55a4df523b3ef",
            "0x000000000000000000000000c77f7fed3b5cc8249adc428c5f44c9063b9734b4",
            "0x0000000000000000000000000000000000000000000000000000000000000000"
          ],
          "data": "0x00000000000000000000000000000000000000000000000000000000000590ab",
          "blockHash": "0x128b9d821a34421957172e901f1b62284850d8790e9fc885b9a07ddfcb451a8e",
          "blockNumber": "0x731da9",
          "transactionHash": "0x379efd4b2d938237f547f2f391ff9b9f370c02014179d243edf3fb1f6d3c9fde",
          "transactionIndex": "0x52",
          "logIndex": "0xcb",
          "removed": false
        },
        {
          "address": "0x8aafd3ede9adb0ff97c7aebce82a919afb1c8764",
          "topics": [
            "0xddf252ad1be2c89b69c2b068fc378daa952ba7f163c4a11628f55a4df523b3ef",
            "0x000000000000000000000000c77f7fed3b5cc8249adc428c5f44c9063b9734b4",
            "0x000000000000000000000000c77f7fed3b5cc8249adc428c5f44c9063b9734b4"
          ],
          "data": "0x0000000000000000000000000000000000000000000000000000000000000b7d",
          "blockHash": "0x128b9d821a34421957172e901f1b62284850d8790e9fc885b9a07ddfcb451a8e",
          "blockNumber": "0x731da9",
          "transactionHash": "0x379efd4b2d938237f547f2f391ff9b9f370c02014179d243edf3fb1f6d3c9fde",
          "transactionIndex": "0x52",
          "logIndex": "0xcc",
          "removed": false
        },
        {
          "address": "0x8aafd3ede9adb0ff97c7aebce82a919afb1c8764",
          "topics": [
            "0x4afcb4a87cdbd9974efdb92ee48bc8d7cd0ae4bf217004db3d080cbaee652ca7"
          ],
          "data": "0x00000000000000000000000000000000000000000000000000000000679060d400000000000000000000000000000000000000000000000000143a5242fdf06c000000000000000000000000000000000000000000000000000000000000082d",
          "blockHash": "0x128b9d821a34421957172e901f1b62284850d8790e9fc885b9a07ddfcb451a8e",
          "blockNumber": "0x731da9",
          "transactionHash": "0x379efd4b2d938237f547f2f391ff9b9f370c02014179d243edf3fb1f6d3c9fde",
          "transactionIndex": "0x52",
          "logIndex": "0xcd",
          "removed": false
        }
      ],
      "logsBloom": "0x00000000000000000000000000000000000000000600000000000000000000000000000000000000000000000000000000000000000000004000000000000000000000000000004000000008000000000000000000000000000000000000000000000000020000000000000000000800020000000000000000000010000000000000000000000000000000000000000000000000000000000000010000000000000000000000000000000000000000004000000000000000000000000000000000000002000000800000000000000000000000000000080000000000000020000000000000000000000000000000000000000000000000000000000000000000",
      "type": "0x2",
      "transactionHash": "0x379efd4b2d938237f547f2f391ff9b9f370c02014179d243edf3fb1f6d3c9fde",
      "transactionIndex": "0x52",
      "blockHash": "0x128b9d821a34421957172e901f1b62284850d8790e9fc885b9a07ddfcb451a8e",
      "blockNumber": "0x731da9",
      "gasUsed": "0xf213",
      "effectiveGasPrice": "0x7b695f8f",
      "from": "0xc77f7fed3b5cc8249adc428c5f44c9063b9734b4",
      "to": "0x8aafd3ede9adb0ff97c7aebce82a919afb1c8764",
      "contractAddress": null
    }
  ],
  "libraries": [],
  "pending": [],
  "returns": {},
  "timestamp": 1737515221,
  "chain": 11155111,
  "commit": "1d2fb70"
}