{
  "transactions": [
    {
      "hash": "0x234b5ee9df5a23900b446a70f3f2052a2dbad8b0b5b2cfc101918a5d22ba5243",
      "transactionType": "CALL",
      "contractName": null,
      "contractAddress": "0xbf4a322f1496e5c3d34a9bcdb4c60567b38c7de2",
      "function": "sell(uint256)",
      "arguments": [
        "985548827893629491985"
      ],
      "transaction": {
        "from": "0xc77f7fed3b5cc8249adc428c5f44c9063b9734b4",
        "to": "0xbf4a322f1496e5c3d34a9bcdb4c60567b38c7de2",
        "gas": "0x16fea",
        "value": "0x0",
        "input": "0xe4849b320000000000000000000000000000000000000000000000356d3ccd4eca609b11",
        "nonce": "0xa7d",
        "chainId": "0xaa36a7"
      },
      "additionalContracts": [],
      "isFixedGasLimit": false
    }
  ],
  "receipts": [
    {
      "status": "0x1",
      "cumulativeGasUsed": "0x8993db",
      "logs": [
        {
          "address": "0xbf4a322f1496e5c3d34a9bcdb4c60567b38c7de2",
          "topics": [
            "0xddf252ad1be2c89b69c2b068fc378daa952ba7f163c4a11628f55a4df523b3ef",
            "0x000000000000000000000000c77f7fed3b5cc8249adc428c5f44c9063b9734b4",
            "0x0000000000000000000000000000000000000000000000000000000000000000"
          ],
          "data": "0x0000000000000000000000000000000000000000000000356d3ccd4eca609b11",
          "blockHash": "0x39a404a39ed36a231ea86cf5cbeccd71daf40ae7da791f66d591ebe20f1fd5a3",
          "blockNumber": "0x725a5c",
          "transactionHash": "0x234b5ee9df5a23900b446a70f3f2052a2dbad8b0b5b2cfc101918a5d22ba5243",
          "transactionIndex": "0x4e",
          "logIndex": "0xa1",
          "removed": false
        },
        {
          "address": "0xbf4a322f1496e5c3d34a9bcdb4c60567b38c7de2",
          "topics": [
            "0x4afcb4a87cdbd9974efdb92ee48bc8d7cd0ae4bf217004db3d080cbaee652ca7"
          ],
          "data": "0x0000000000000000000000000000000000000000000000000000000067872ea0000000000000000000000000000000000000000000000000000394661dfd02eb0000000000000000000000000000000000000000000000000dc7e3eef7a8c1eb",
          "blockHash": "0x39a404a39ed36a231ea86cf5cbeccd71daf40ae7da791f66d591ebe20f1fd5a3",
          "blockNumber": "0x725a5c",
          "transactionHash": "0x234b5ee9df5a23900b446a70f3f2052a2dbad8b0b5b2cfc101918a5d22ba5243",
          "transactionIndex": "0x4e",
          "logIndex": "0xa2",
          "removed": false
        }
      ],
      "logsBloom": "0x00000000000000000000000000000000000000000000000000000000000000000000000000000000000000000000000000000000000000004000000000000000000000000000000000000008000000000000001000000000000000000000000000000000020000000000000000000800020000000000000000000010000000000000000000000000000000000000000000000000000008000000010000000000000000000000000000000000000000004000000000000000000000000000000000000002000000800000000000001000000000000000080000000000000020000000000000000000000000000000000000000000000000000000000000000000",
      "type": "0x2",
      "transactionHash": "0x234b5ee9df5a23900b446a70f3f2052a2dbad8b0b5b2cfc101918a5d22ba5243",
      "transactionIndex": "0x4e",
      "blockHash": "0x39a404a39ed36a231ea86cf5cbeccd71daf40ae7da791f66d591ebe20f1fd5a3",
      "blockNumber": "0x725a5c",
      "gasUsed": "0xfb91",
      "effectiveGasPrice": "0x2dc65440b",
      "from": "0xc77f7fed3b5cc8249adc428c5f44c9063b9734b4",
      "to": "0xbf4a322f1496e5c3d34a9bcdb4c60567b38c7de2",
      "contractAddress": null
    }
  ],
  "libraries": [],
  "pending": [],
  "returns": {},
  "timestamp": 1736912546,
  "chain": 11155111,
  "commit": "51a374b"
}