{
  "transactions": [
    {
      "hash": "0x2f917f5d22385c80555d6b01efb323c4433e7df806cd41111ac4c1eca235a99d",
      "transactionType": "CALL",
      "contractName": null,
      "contractAddress": "0x8aafd3ede9adb0ff97c7aebce82a919afb1c8764",
      "function": "sell(uint256)",
      "arguments": [
        "1554794"
      ],
      "transaction": {
        "from": "0xc77f7fed3b5cc8249adc428c5f44c9063b9734b4",
        "to": "0x8aafd3ede9adb0ff97c7aebce82a919afb1c8764",
        "gas": "0x16208",
        "value": "0x0",
        "input": "0xe4849b32000000000000000000000000000000000000000000000000000000000017b96a",
        "nonce": "0xf8c",
        "chainId": "0xaa36a7"
      },
      "additionalContracts": [],
      "isFixedGasLimit": false
    }
  ],
  "receipts": [
    {
      "status": "0x1",
      "cumulativeGasUsed": "0xc20323",
      "logs": [
        {
          "address": "0x8aafd3ede9adb0ff97c7aebce82a919afb1c8764",
          "topics": [
            "0xddf252ad1be2c89b69c2b068fc378daa952ba7f163c4a11628f55a4df523b3ef",
            "0x000000000000000000000000c77f7fed3b5cc8249adc428c5f44c9063b9734b4",
            "0x0000000000000000000000000000000000000000000000000000000000000000"
          ],
          "data": "0x00000000000000000000000000000000000000000000000000000000001788d4",
          "blockHash": "0x38ba7e703eb9c4f789331b76ec73c298b774db0f0519e366ea955ac894c6b9f0",
          "blockNumber": "0x7315f1",
          "transactionHash": "0x2f917f5d22385c80555d6b01efb323c4433e7df806cd41111ac4c1eca235a99d",
          "transactionIndex": "0x8b",
          "logIndex": "0x9f",
          "removed": false
        },
        {
          "address": "0x8aafd3ede9adb0ff97c7aebce82a919afb1c8764",
          "topics": [
            "0xddf252ad1be2c89b69c2b068fc378daa952ba7f163c4a11628f55a4df523b3ef",
            "0x000000000000000000000000c77f7fed3b5cc8249adc428c5f44c9063b9734b4",
            "0x000000000000000000000000c77f7fed3b5cc8249adc428c5f44c9063b9734b4"
          ],
          "data": "0x0000000000000000000000000000000000000000000000000000000000003096",
          "blockHash": "0x38ba7e703eb9c4f789331b76ec73c298b774db0f0519e366ea955ac894c6b9f0",
          "blockNumber": "0x7315f1",
          "transactionHash": "0x2f917f5d22385c80555d6b01efb323c4433e7df806cd41111ac4c1eca235a99d",
          "transactionIndex": "0x8b",
          "logIndex": "0xa0",
          "removed": false
        },
        {
          "address": "0x8aafd3ede9adb0ff97c7aebce82a919afb1c8764",
          "topics": [
            "0x4afcb4a87cdbd9974efdb92ee48bc8d7cd0ae4bf217004db3d080cbaee652ca7"
          ],
          "data": "0x00000000000000000000000000000000000000000000000000000000679003f80000000000000000000000000000000000000000000000000004c27f5aa1b8390000000000000000000000000000000000000000000000000000000000000823",
          "blockHash": "0x38ba7e703eb9c4f789331b76ec73c298b774db0f0519e366ea955ac894c6b9f0",
          "blockNumber": "0x7315f1",
          "transactionHash": "0x2f917f5d22385c80555d6b01efb323c4433e7df806cd41111ac4c1eca235a99d",
          "transactionIndex": "0x8b",
          "logIndex": "0xa1",
          "removed": false
        }
      ],
      "logsBloom": "0x00000000000000000000000000000000000000000600000000000000000000000000000000000000000000000000000000000000000000004000000000000000000000000000004000000008000000000000000000000000000000000000000000000000020000000000000000000800020000000000000000000010000000000000000000000000000000000000000000000000000000000000010000000000000000000000000000000000000000004000000000000000000000000000000000000002000000800000000000000000000000000000080000000000000020000000000000000000000000000000000000000000000000000000000000000000",
      "type": "0x2",
      "transactionHash": "0x2f917f5d22385c80555d6b01efb323c4433e7df806cd41111ac4c1eca235a99d",
      "transactionIndex": "0x8b",
      "blockHash": "0x38ba7e703eb9c4f789331b76ec73c298b774db0f0519e366ea955ac894c6b9f0",
      "blockNumber": "0x7315f1",
      "gasUsed": "0xf213",
      "effectiveGasPrice": "0x67728d04",
      "from": "0xc77f7fed3b5cc8249adc428c5f44c9063b9734b4",
      "to": "0x8aafd3ede9adb0ff97c7aebce82a919afb1c8764",
      "contractAddress": null
    }
  ],
  "libraries": [],
  "pending": [],
  "returns": {},
  "timestamp": 1737491449,
  "chain": 11155111,
  "commit": "1d2fb70"
}