{
  "transactions": [
    {
      "hash": "0x93932518e3880c465e102cca768883ea4d1bdf134990c495e0fa0f679cedd2b1",
      "transactionType": "CALL",
      "contractName": null,
      "contractAddress": "0x270e88f8683660553e8ba4eb2ad7c91a1710d769",
      "function": "buy(address)",
      "arguments": [
        "0xC77f7fed3b5Cc8249aDc428c5F44C9063B9734b4"
      ],
      "transaction": {
        "from": "0xc77f7fed3b5cc8249adc428c5f44c9063b9734b4",
        "to": "0x270e88f8683660553e8ba4eb2ad7c91a1710d769",
        "gas": "0x1b30c",
        "value": "0xde0b6b3a7640000",
        "input": "0xf088d547000000000000000000000000c77f7fed3b5cc8249adc428c5f44c9063b9734b4",
        "nonce": "0x871",
        "chainId": "0xaa36a7"
      },
      "additionalContracts": [],
      "isFixedGasLimit": false
    }
  ],
  "receipts": [
    {
      "status": "0x1",
      "cumulativeGasUsed": "0x1a2ac75",
      "logs": [
        {
          "address": "0x270e88f8683660553e8ba4eb2ad7c91a1710d769",
          "topics": [
            "0xddf252ad1be2c89b69c2b068fc378daa952ba7f163c4a11628f55a4df523b3ef",
            "0x0000000000000000000000000000000000000000000000000000000000000000",
            "0x000000000000000000000000c77f7fed3b5cc8249adc428c5f44c9063b9734b4"
          ],
          "data": "0x0000000000000000000000000000000000000000000000268e56dbc6c0ea7d49",
          "blockHash": "0x1cc03668d12b1c6905be354595e90b1afcef4e8ffd4a959bfb2980912e748837",
          "blockNumber": "0x7255c8",
          "transactionHash": "0x93932518e3880c465e102cca768883ea4d1bdf134990c495e0fa0f679cedd2b1",
          "transactionIndex": "0x56",
          "logIndex": "0x5d",
          "removed": false
        },
        {
          "address": "0x270e88f8683660553e8ba4eb2ad7c91a1710d769",
          "topics": [
            "0xddf252ad1be2c89b69c2b068fc378daa952ba7f163c4a11628f55a4df523b3ef",
            "0x0000000000000000000000000000000000000000000000000000000000000000",
            "0x000000000000000000000000c77f7fed3b5cc8249adc428c5f44c9063b9734b4"
          ],
          "data": "0x0000000000000000000000000000000000000000000000001df0a7b6f4d61261",
          "blockHash": "0x1cc03668d12b1c6905be354595e90b1afcef4e8ffd4a959bfb2980912e748837",
          "blockNumber": "0x7255c8",
          "transactionHash": "0x93932518e3880c465e102cca768883ea4d1bdf134990c495e0fa0f679cedd2b1",
          "transactionIndex": "0x56",
          "logIndex": "0x5e",
          "removed": false
        },
        {
          "address": "0x270e88f8683660553e8ba4eb2ad7c91a1710d769",
          "topics": [
            "0x4afcb4a87cdbd9974efdb92ee48bc8d7cd0ae4bf217004db3d080cbaee652ca7"
          ],
          "data": "0x000000000000000000000000000000000000000000000000000000006786f7680000000000000000000000000000000000000000000000000004f2133d17867b0000000000000000000000000000000000000000000000000de0b6b3a7640000",
          "blockHash": "0x1cc03668d12b1c6905be354595e90b1afcef4e8ffd4a959bfb2980912e748837",
          "blockNumber": "0x7255c8",
          "transactionHash": "0x93932518e3880c465e102cca768883ea4d1bdf134990c495e0fa0f679cedd2b1",
          "transactionIndex": "0x56",
          "logIndex": "0x5f",
          "removed": false
        }
      ],
      "logsBloom": "0x00000000000000000000000000000000000000000000000000000000000000000000000000000000000000000000000020000000000000004000000000000000000000000000000000000008000000000000000000000000000000000000000000000000020000000000000000000800020000000000000000000010000000000000000000010000000000000000000000000000000000000000010000000000000000000000000000000000000000004000000000000000000000000000000000000002000000800000000000000000000000000000080000008000000020000000000000000000000000000000000000000000000000000000000000000000",
      "type": "0x2",
      "transactionHash": "0x93932518e3880c465e102cca768883ea4d1bdf134990c495e0fa0f679cedd2b1",
      "transactionIndex": "0x56",
      "blockHash": "0x1cc03668d12b1c6905be354595e90b1afcef4e8ffd4a959bfb2980912e748837",
      "blockNumber": "0x7255c8",
      "gasUsed": "0x13af8",
      "effectiveGasPrice": "0x9fd8f38f",
      "from": "0xc77f7fed3b5cc8249adc428c5f44c9063b9734b4",
      "to": "0x270e88f8683660553e8ba4eb2ad7c91a1710d769",
      "contractAddress": null
    }
  ],
  "libraries": [],
  "pending": [],
  "returns": {},
  "timestamp": 1736898411,
  "chain": 11155111,
  "commit": "51a374b"
}