{
  "transactions": [
    {
      "hash": "0xff9b2ae015b864741695fa5a9f17de37c9b4ec04cee70591ee9556a45f98f1f2",
      "transactionType": "CALL",
      "contractName": null,
      "contractAddress": "0xbf4a322f1496e5c3d34a9bcdb4c60567b38c7de2",
      "function": "buy(address)",
      "arguments": [
        "0xC77f7fed3b5Cc8249aDc428c5F44C9063B9734b4"
      ],
      "transaction": {
        "from": "0xc77f7fed3b5cc8249adc428c5f44c9063b9734b4",
        "to": "0xbf4a322f1496e5c3d34a9bcdb4c60567b38c7de2",
        "gas": "0x1b309",
        "value": "0xde0b6b3a7640000",
        "input": "0xf088d547000000000000000000000000c77f7fed3b5cc8249adc428c5f44c9063b9734b4",
        "nonce": "0xb2a",
        "chainId": "0xaa36a7"
      },
      "additionalContracts": [],
      "isFixedGasLimit": false
    }
  ],
  "receipts": [
    {
      "status": "0x1",
      "cumulativeGasUsed": "0x20d2d9d",
      "logs": [
        {
          "address": "0xbf4a322f1496e5c3d34a9bcdb4c60567b38c7de2",
          "topics": [
            "0xddf252ad1be2c89b69c2b068fc378daa952ba7f163c4a11628f55a4df523b3ef",
            "0x0000000000000000000000000000000000000000000000000000000000000000",
            "0x000000000000000000000000c77f7fed3b5cc8249adc428c5f44c9063b9734b4"
          ],
          "data": "0x000000000000000000000000000000000000000000000035234352230f8ce464",
          "blockHash": "0xc6a3fcfa2a6d5ba395c3cc7086e4e8a9268542572cb816831969986b5a49a2e6",
          "blockNumber": "0x725b27",
          "transactionHash": "0xff9b2ae015b864741695fa5a9f17de37c9b4ec04cee70591ee9556a45f98f1f2",
          "transactionIndex": "0xf5",
          "logIndex": "0x18c",
          "removed": false
        },
        {
          "address": "0xbf4a322f1496e5c3d34a9bcdb4c60567b38c7de2",
          "topics": [
            "0xddf252ad1be2c89b69c2b068fc378daa952ba7f163c4a11628f55a4df523b3ef",
            "0x0000000000000000000000000000000000000000000000000000000000000000",
            "0x000000000000000000000000c77f7fed3b5cc8249adc428c5f44c9063b9734b4"
          ],
          "data": "0x000000000000000000000000000000000000000000000000294365cfe2327b96",
          "blockHash": "0xc6a3fcfa2a6d5ba395c3cc7086e4e8a9268542572cb816831969986b5a49a2e6",
          "blockNumber": "0x725b27",
          "transactionHash": "0xff9b2ae015b864741695fa5a9f17de37c9b4ec04cee70591ee9556a45f98f1f2",
          "transactionIndex": "0xf5",
          "logIndex": "0x18d",
          "removed": false
        },
        {
          "address": "0xbf4a322f1496e5c3d34a9bcdb4c60567b38c7de2",
          "topics": [
            "0x4afcb4a87cdbd9974efdb92ee48bc8d7cd0ae4bf217004db3d080cbaee652ca7"
          ],
          "data": "0x000000000000000000000000000000000000000000000000000000006787383000000000000000000000000000000000000000000000000000039694638ce6e70000000000000000000000000000000000000000000000000de0b6b3a7640000",
          "blockHash": "0xc6a3fcfa2a6d5ba395c3cc7086e4e8a9268542572cb816831969986b5a49a2e6",
          "blockNumber": "0x725b27",
          "transactionHash": "0xff9b2ae015b864741695fa5a9f17de37c9b4ec04cee70591ee9556a45f98f1f2",
          "transactionIndex": "0xf5",
          "logIndex": "0x18e",
          "removed": false
        }
      ],
      "logsBloom": "0x00000000000000000000000000000000000000000000000000000000000000000000000000000000000000000000000000000000000000004000000000000000000000000000000000000008000000000000001000000000000000000000000000000000020000000000000000000800020000000000000000000010000000000000000000000000000000000000000000000000000008000000010000000000000000000000000000000000000000004000000000000000000000000000000000000002000000800000000000001000000000000000080000000000000020000000000000000000000000000000000000000000000000000000000000000000",
      "type": "0x2",
      "transactionHash": "0xff9b2ae015b864741695fa5a9f17de37c9b4ec04cee70591ee9556a45f98f1f2",
      "transactionIndex": "0xf5",
      "blockHash": "0xc6a3fcfa2a6d5ba395c3cc7086e4e8a9268542572cb816831969986b5a49a2e6",
      "blockNumber": "0x725b27",
      "gasUsed": "0x13af6",
      "effectiveGasPrice": "0x56a1baf3",
      "from": "0xc77f7fed3b5cc8249adc428c5f44c9063b9734b4",
      "to": "0xbf4a322f1496e5c3d34a9bcdb4c60567b38c7de2",
      "contractAddress": null
    }
  ],
  "libraries": [],
  "pending": [],
  "returns": {},
  "timestamp": 1736914992,
  "chain": 11155111,
  "commit": "51a374b"
}