{
  "transactions": [
    {
      "hash": "0x6bb129da0808560b0e8451f2ed84b546b4ac796a3492bdcb4f9dd841ab2a955a",
      "transactionType": "CALL",
      "contractName": null,
      "contractAddress": "0xd7bc75898e513accccf720a874d44dab5a4b6223",
      "function": "sell(uint256)",
      "arguments": [
        "9929992196781559961"
      ],
      "transaction": {
        "from": "0xc77f7fed3b5cc8249adc428c5f44c9063b9734b4",
        "to": "0xd7bc75898e513accccf720a874d44dab5a4b6223",
        "gas": "0x15b6b",
        "value": "0x0",
        "input": "0xe4849b3200000000000000000000000000000000000000000000000089ce6b4aa790d099",
        "nonce": "0xcb",
        "chainId": "0xaa36a7"
      },
      "additionalContracts": [],
      "isFixedGasLimit": false
    }
  ],
  "receipts": [
    {
      "status": "0x1",
      "cumulativeGasUsed": "0x217b3c2",
      "logs": [
        {
          "address": "0xd7bc75898e513accccf720a874d44dab5a4b6223",
          "topics": [
            "0xddf252ad1be2c89b69c2b068fc378daa952ba7f163c4a11628f55a4df523b3ef",
            "0x000000000000000000000000c77f7fed3b5cc8249adc428c5f44c9063b9734b4",
            "0x0000000000000000000000000000000000000000000000000000000000000000"
          ],
          "data": "0x00000000000000000000000000000000000000000000000089ce6b4aa790d099",
          "blockHash": "0x77de76f4db89049326581ab316803ac0c3b606aadaa937fd429085d334054fb5",
          "blockNumber": "0x72394a",
          "transactionHash": "0x6bb129da0808560b0e8451f2ed84b546b4ac796a3492bdcb4f9dd841ab2a955a",
          "transactionIndex": "0x6c",
          "logIndex": "0x2ef",
          "removed": false
        },
        {
          "address": "0xd7bc75898e513accccf720a874d44dab5a4b6223",
          "topics": [
            "0x4afcb4a87cdbd9974efdb92ee48bc8d7cd0ae4bf217004db3d080cbaee652ca7"
          ],
          "data": "0x000000000000000000000000000000000000000000000000000000006785a0c000000000000000000000000000000000000000000000000000038d7f880fcbf70000000000000000000000000000000000000000000000000023474f493d2798",
          "blockHash": "0x77de76f4db89049326581ab316803ac0c3b606aadaa937fd429085d334054fb5",
          "blockNumber": "0x72394a",
          "transactionHash": "0x6bb129da0808560b0e8451f2ed84b546b4ac796a3492bdcb4f9dd841ab2a955a",
          "transactionIndex": "0x6c",
          "logIndex": "0x2f0",
          "removed": false
        }
      ],
      "logsBloom": "0x00000000000000000000000000000000000000000000000000000000000000000000000000000000000000000000000000000000000000004000000000000000000000000000000000000008000000000000000000000000000000000000000000000000020000000000000000000800020000000000000000000010000000000000000000000000000000000000000000000000000000000000010000000000000000000000000000000000000000004000001000000000000000000000000000000002000000800000000000004000000000000000080000000000000020000000000000000000000000000000000000000000080000000000000000000000",
      "type": "0x2",
      "transactionHash": "0x6bb129da0808560b0e8451f2ed84b546b4ac796a3492bdcb4f9dd841ab2a955a",
      "transactionIndex": "0x6c",
      "blockHash": "0x77de76f4db89049326581ab316803ac0c3b606aadaa937fd429085d334054fb5",
      "blockNumber": "0x72394a",
      "gasUsed": "0xfb87",
      "effectiveGasPrice": "0x23853de9",
      "from": "0xc77f7fed3b5cc8249adc428c5f44c9063b9734b4",
      "to": "0xd7bc75898e513accccf720a874d44dab5a4b6223",
      "contractAddress": null
    }
  ],
  "libraries": [],
  "pending": [],
  "returns": {},
  "timestamp": 1736810690,
  "chain": 11155111,
  "commit": "51a374b"
}