{
  "transactions": [
    {
      "hash": "0xa60fc148f945d3f36540c560a3773a824f00fdf8c4ad22f6d1e7518a57434b35",
      "transactionType": "CALL",
      "contractName": null,
      "contractAddress": "0x5eb9cc76c3506942c1c0ead70e877dd5e4f00cb0",
      "function": "buy(address)",
      "arguments": [
        "0xC77f7fed3b5Cc8249aDc428c5F44C9063B9734b4"
      ],
      "transaction": {
        "from": "0xc77f7fed3b5cc8249adc428c5f44c9063b9734b4",
        "to": "0x5eb9cc76c3506942c1c0ead70e877dd5e4f00cb0",
        "gas": "0x1b30c",
        "value": "0xde0b6b3a7640000",
        "input": "0xf088d547000000000000000000000000c77f7fed3b5cc8249adc428c5f44c9063b9734b4",
        "nonce": "0x334",
        "chainId": "0xaa36a7"
      },
      "additionalContracts": [],
      "isFixedGasLimit": false
    }
  ],
  "receipts": [
    {
      "status": "0x1",
      "cumulativeGasUsed": "0xb5905e",
      "logs": [
        {
          "address": "0x5eb9cc76c3506942c1c0ead70e877dd5e4f00cb0",
          "topics": [
            "0xddf252ad1be2c89b69c2b068fc378daa952ba7f163c4a11628f55a4df523b3ef",
            "0x0000000000000000000000000000000000000000000000000000000000000000",
            "0x000000000000000000000000c77f7fed3b5cc8249adc428c5f44c9063b9734b4"
          ],
          "data": "0x00000000000000000000000000000000000000000000003575755de7dd59898b",
          "blockHash": "0x3004b695a985f0e489d678c7fe478ecc9f8d177d767f94776e9b2e612800bbb1",
          "blockNumber": "0x724f21",
          "transactionHash": "0xa60fc148f945d3f36540c560a3773a824f00fdf8c4ad22f6d1e7518a57434b35",
          "transactionIndex": "0x4a",
          "logIndex": "0x63",
          "removed": false
        },
        {
          "address": "0x5eb9cc76c3506942c1c0ead70e877dd5e4f00cb0",
          "topics": [
            "0xddf252ad1be2c89b69c2b068fc378daa952ba7f163c4a11628f55a4df523b3ef",
            "0x0000000000000000000000000000000000000000000000000000000000000000",
            "0x000000000000000000000000c77f7fed3b5cc8249adc428c5f44c9063b9734b4"
          ],
          "data": "0x000000000000000000000000000000000000000000000000298339adb11b9511",
          "blockHash": "0x3004b695a985f0e489d678c7fe478ecc9f8d177d767f94776e9b2e612800bbb1",
          "blockNumber": "0x724f21",
          "transactionHash": "0xa60fc148f945d3f36540c560a3773a824f00fdf8c4ad22f6d1e7518a57434b35",
          "transactionIndex": "0x4a",
          "logIndex": "0x64",
          "removed": false
        },
        {
          "address": "0x5eb9cc76c3506942c1c0ead70e877dd5e4f00cb0",
          "topics": [
            "0x4afcb4a87cdbd9974efdb92ee48bc8d7cd0ae4bf217004db3d080cbaee652ca7"
          ],
          "data": "0x000000000000000000000000000000000000000000000000000000006786a7400000000000000000000000000000000000000000000000000003910dbddcc81f0000000000000000000000000000000000000000000000000de0b6b3a7640000",
          "blockHash": "0x3004b695a985f0e489d678c7fe478ecc9f8d177d767f94776e9b2e612800bbb1",
          "blockNumber": "0x724f21",
          "transactionHash": "0xa60fc148f945d3f36540c560a3773a824f00fdf8c4ad22f6d1e7518a57434b35",
          "transactionIndex": "0x4a",
          "logIndex": "0x65",
          "removed": false
        }
      ],
      "logsBloom": "0x00000000000000000000000000000000000000000000000000000000000000000000000000000000000000000000000000000000000000004000000000000000000000000000000000000008000000000000000000000000000000000000000000000000020000000000000004000800020000000000000000000010000000000000000000000000000000000000000000000000000000000000010000000000000000000000000000000000000000004000000000000000000000000000020000000002000000800000008000000000000000000000080000000000000020000000000000000000000000000000000000000000000000000000000000000000",
      "type": "0x2",
      "transactionHash": "0xa60fc148f945d3f36540c560a3773a824f00fdf8c4ad22f6d1e7518a57434b35",
      "transactionIndex": "0x4a",
      "blockHash": "0x3004b695a985f0e489d678c7fe478ecc9f8d177d767f94776e9b2e612800bbb1",
      "blockNumber": "0x724f21",
      "gasUsed": "0x13af8",
      "effectiveGasPrice": "0x66e5ac7e4",
      "from": "0xc77f7fed3b5cc8249adc428c5f44c9063b9734b4",
      "to": "0x5eb9cc76c3506942c1c0ead70e877dd5e4f00cb0",
      "contractAddress": null
    }
  ],
  "libraries": [],
  "pending": [],
  "returns": {},
  "timestamp": 1736877889,
  "chain": 11155111,
  "commit": "51a374b"
}