{
  "transactions": [
    {
      "hash": "0xb74c9b8d393a572371cd4dfb49e353edc56a908a19bb915110895cf2e47f4530",
      "transactionType": "CALL",
      "contractName": null,
      "contractAddress": "0x8aafd3ede9adb0ff97c7aebce82a919afb1c8764",
      "function": "sell(uint256)",
      "arguments": [
        "69581090"
      ],
      "transaction": {
        "from": "0xc77f7fed3b5cc8249adc428c5f44c9063b9734b4",
        "to": "0x8aafd3ede9adb0ff97c7aebce82a919afb1c8764",
        "gas": "0x15d88",
        "value": "0x0",
        "input": "0xe4849b32000000000000000000000000000000000000000000000000000000000425b922",
        "nonce": "0x13c1",
        "chainId": "0xaa36a7"
      },
      "additionalContracts": [],
      "isFixedGasLimit": false
    }
  ],
  "receipts": [
    {
      "status": "0x1",
      "cumulativeGasUsed": "0x1588660",
      "logs": [
        {
          "address": "0x8aafd3ede9adb0ff97c7aebce82a919afb1c8764",
          "topics": [
            "0xddf252ad1be2c89b69c2b068fc378daa952ba7f163c4a11628f55a4df523b3ef",
            "0x000000000000000000000000c77f7fed3b5cc8249adc428c5f44c9063b9734b4",
            "0x0000000000000000000000000000000000000000000000000000000000000000"
          ],
          "data": "0x00000000000000000000000000000000000000000000000000000000041d3aba",
          "blockHash": "0xfd32053de4bac1389f52c200d714a7464aabd02b3f03682281b8b365f9b53678",
          "blockNumber": "0x731aec",
          "transactionHash": "0xb74c9b8d393a572371cd4dfb49e353edc56a908a19bb915110895cf2e47f4530",
          "transactionIndex": "0xa5",
          "logIndex": "0xbe",
          "removed": false
        },
        {
          "address": "0x8aafd3ede9adb0ff97c7aebce82a919afb1c8764",
          "topics": [
            "0xddf252ad1be2c89b69c2b068fc378daa952ba7f163c4a11628f55a4df523b3ef",
            "0x000000000000000000000000c77f7fed3b5cc8249adc428c5f44c9063b9734b4",
            "0x000000000000000000000000c77f7fed3b5cc8249adc428c5f44c9063b9734b4"
          ],
          "data": "0x0000000000000000000000000000000000000000000000000000000000087e68",
          "blockHash": "0xfd32053de4bac1389f52c200d714a7464aabd02b3f03682281b8b365f9b53678",
          "blockNumber": "0x731aec",
          "transactionHash": "0xb74c9b8d393a572371cd4dfb49e353edc56a908a19bb915110895cf2e47f4530",
          "transactionIndex": "0xa5",
          "logIndex": "0xbf",
          "removed": false
        },
        {
          "address": "0x8aafd3ede9adb0ff97c7aebce82a919afb1c8764",
          "topics": [
            "0x4afcb4a87cdbd9974efdb92ee48bc8d7cd0ae4bf217004db3d080cbaee652ca7"
          ],
          "data": "0x0000000000000000000000000000000000000000000000000000000067903fe0000000000000000000000000000000000000000000000000000d64b024d347e300000000000000000000000000000000000000000000000000000000000400a8",
          "blockHash": "0xfd32053de4bac1389f52c200d714a7464aabd02b3f03682281b8b365f9b53678",
          "blockNumber": "0x731aec",
          "transactionHash": "0xb74c9b8d393a572371cd4dfb49e353edc56a908a19bb915110895cf2e47f4530",
          "transactionIndex": "0xa5",
          "logIndex": "0xc0",
          "removed": false
        }
      ],
      "logsBloom": "0x00000000000000000000000000000000000000000600000000000000000000000000000000000000000000000000000000000000000000004000000000000000000000000000004000000008000000000000000000000000000000000000000000000000020000000000000000000800020000000000000000000010000000000000000000000000000000000000000000000000000000000000010000000000000000000000000000000000000000004000000000000000000000000000000000000002000000800000000000000000000000000000080000000000000020000000000000000000000000000000000000000000000000000000000000000000",
      "type": "0x2",
      "transactionHash": "0xb74c9b8d393a572371cd4dfb49e353edc56a908a19bb915110895cf2e47f4530",
      "transactionIndex": "0xa5",
      "blockHash": "0xfd32053de4bac1389f52c200d714a7464aabd02b3f03682281b8b365f9b53678",
      "blockNumber": "0x731aec",
      "gasUsed": "0xfd0f",
      "effectiveGasPrice": "0x8273fa28",
      "from": "0xc77f7fed3b5cc8249adc428c5f44c9063b9734b4",
      "to": "0x8aafd3ede9adb0ff97c7aebce82a919afb1c8764",
      "contractAddress": null
    }
  ],
  "libraries": [],
  "pending": [],
  "returns": {},
  "timestamp": 1737506785,
  "chain": 11155111,
  "commit": "1d2fb70"
}