{
  "transactions": [
    {
      "hash": "0xa39af8f21f3c5e382c27ac8368c955f460f5a017790b074be0609a5eaa4616b3",
      "transactionType": "CALL",
      "contractName": null,
      "contractAddress": "0x8aafd3ede9adb0ff97c7aebce82a919afb1c8764",
      "function": "sell(uint256)",
      "arguments": [
        "5585175551765070839"
      ],
      "transaction": {
        "from": "0xc77f7fed3b5cc8249adc428c5f44c9063b9734b4",
        "to": "0x8aafd3ede9adb0ff97c7aebce82a919afb1c8764",
        "gas": "0x15dca",
        "value": "0x0",
        "input": "0xe4849b320000000000000000000000000000000000000000000000004d828792a32743f7",
        "nonce": "0x1114",
        "chainId": "0xaa36a7"
      },
      "additionalContracts": [],
      "isFixedGasLimit": false
    }
  ],
  "receipts": [
    {
      "status": "0x1",
      "cumulativeGasUsed": "0xa38191",
      "logs": [
        {
          "address": "0x8aafd3ede9adb0ff97c7aebce82a919afb1c8764",
          "topics": [
            "0xddf252ad1be2c89b69c2b068fc378daa952ba7f163c4a11628f55a4df523b3ef",
            "0x000000000000000000000000c77f7fed3b5cc8249adc428c5f44c9063b9734b4",
            "0x0000000000000000000000000000000000000000000000000000000000000000"
          ],
          "data": "0x0000000000000000000000000000000000000000000000004ce3ca127cfbf181",
          "blockHash": "0x8d136314ad9549d5f55390b03dc98448e4c1931eb4a7f5567d444d1540f2445a",
          "blockNumber": "0x7317c6",
          "transactionHash": "0xa39af8f21f3c5e382c27ac8368c955f460f5a017790b074be0609a5eaa4616b3",
          "transactionIndex": "0x88",
          "logIndex": "0x8c",
          "removed": false
        },
        {
          "address": "0x8aafd3ede9adb0ff97c7aebce82a919afb1c8764",
          "topics": [
            "0xddf252ad1be2c89b69c2b068fc378daa952ba7f163c4a11628f55a4df523b3ef",
            "0x000000000000000000000000c77f7fed3b5cc8249adc428c5f44c9063b9734b4",
            "0x000000000000000000000000c77f7fed3b5cc8249adc428c5f44c9063b9734b4"
          ],
          "data": "0x000000000000000000000000000000000000000000000000009ebd80262b5276",
          "blockHash": "0x8d136314ad9549d5f55390b03dc98448e4c1931eb4a7f5567d444d1540f2445a",
          "blockNumber": "0x7317c6",
          "transactionHash": "0xa39af8f21f3c5e382c27ac8368c955f460f5a017790b074be0609a5eaa4616b3",
          "transactionIndex": "0x88",
          "logIndex": "0x8d",
          "removed": false
        },
        {
          "address": "0x8aafd3ede9adb0ff97c7aebce82a919afb1c8764",
          "topics": [
            "0x4afcb4a87cdbd9974efdb92ee48bc8d7cd0ae4bf217004db3d080cbaee652ca7"
          ],
          "data": "0x0000000000000000000000000000000000000000000000000000000067901a0c00000000000000000000000000000000000000000000000000050f1067bb6ad8000000000000000000000000000000000000000000000000001c411d2d2ec077",
          "blockHash": "0x8d136314ad9549d5f55390b03dc98448e4c1931eb4a7f5567d444d1540f2445a",
          "blockNumber": "0x7317c6",
          "transactionHash": "0xa39af8f21f3c5e382c27ac8368c955f460f5a017790b074be0609a5eaa4616b3",
          "transactionIndex": "0x88",
          "logIndex": "0x8e",
          "removed": false
        }
      ],
      "logsBloom": "0x00000000000000000000000000000000000000000600000000000000000000000000000000000000000000000000000000000000000000004000000000000000000000000000004000000008000000000000000000000000000000000000000000000000020000000000000000000800020000000000000000000010000000000000000000000000000000000000000000000000000000000000010000000000000000000000000000000000000000004000000000000000000000000000000000000002000000800000000000000000000000000000080000000000000020000000000000000000000000000000000000000000000000000000000000000000",
      "type": "0x2",
      "transactionHash": "0xa39af8f21f3c5e382c27ac8368c955f460f5a017790b074be0609a5eaa4616b3",
      "transactionIndex": "0x88",
      "blockHash": "0x8d136314ad9549d5f55390b03dc98448e4c1931eb4a7f5567d444d1540f2445a",
      "blockNumber": "0x7317c6",
      "gasUsed": "0xfd3f",
      "effectiveGasPrice": "0x40a423ed",
      "from": "0xc77f7fed3b5cc8249adc428c5f44c9063b9734b4",
      "to": "0x8aafd3ede9adb0ff97c7aebce82a919afb1c8764",
      "contractAddress": null
    }
  ],
  "libraries": [],
  "pending": [],
  "returns": {},
  "timestamp": 1737497102,
  "chain": 11155111,
  "commit": "1d2fb70"
}