{
  "transactions": [
    {
      "hash": "0x214dfe6a5bf6e12c148c83a3bd44f5c6610739dc3160a1949af0ef4f1da1fdb7",
      "transactionType": "CALL",
      "contractName": null,
      "contractAddress": "0x5eb9cc76c3506942c1c0ead70e877dd5e4f00cb0",
      "function": "sell(uint256)",
      "arguments": [
        "989129002235940846276"
      ],
      "transaction": {
        "from": "0xc77f7fed3b5cc8249adc428c5f44c9063b9734b4",
        "to": "0x5eb9cc76c3506942c1c0ead70e877dd5e4f00cb0",
        "gas": "0x16fec",
        "value": "0x0",
        "input": "0xe4849b320000000000000000000000000000000000000000000000359eec22e74dd03ac4",
        "nonce": "0x34b",
        "chainId": "0xaa36a7"
      },
      "additionalContracts": [],
      "isFixedGasLimit": false
    }
  ],
  "receipts": [
    {
      "status": "0x1",
      "cumulativeGasUsed": "0xa6fca9",
      "logs": [
        {
          "address": "0x5eb9cc76c3506942c1c0ead70e877dd5e4f00cb0",
          "topics": [
            "0xddf252ad1be2c89b69c2b068fc378daa952ba7f163c4a11628f55a4df523b3ef",
            "0x000000000000000000000000c77f7fed3b5cc8249adc428c5f44c9063b9734b4",
            "0x0000000000000000000000000000000000000000000000000000000000000000"
          ],
          "data": "0x0000000000000000000000000000000000000000000000359eec22e74dd03ac4",
          "blockHash": "0x2d3a5507f0ee6736d95dd012c6ffe5f088638603580bd0a030d67073ceec1e45",
          "blockNumber": "0x724f3c",
          "transactionHash": "0x214dfe6a5bf6e12c148c83a3bd44f5c6610739dc3160a1949af0ef4f1da1fdb7",
          "transactionIndex": "0x57",
          "logIndex": "0x76",
          "removed": false
        },
        {
          "address": "0x5eb9cc76c3506942c1c0ead70e877dd5e4f00cb0",
          "topics": [
            "0x4afcb4a87cdbd9974efdb92ee48bc8d7cd0ae4bf217004db3d080cbaee652ca7"
          ],
          "data": "0x000000000000000000000000000000000000000000000000000000006786a8840000000000000000000000000000000000000000000000000003910e9e4a3bd70000000000000000000000000000000000000000000000000dc7db13321b0dd2",
          "blockHash": "0x2d3a5507f0ee6736d95dd012c6ffe5f088638603580bd0a030d67073ceec1e45",
          "blockNumber": "0x724f3c",
          "transactionHash": "0x214dfe6a5bf6e12c148c83a3bd44f5c6610739dc3160a1949af0ef4f1da1fdb7",
          "transactionIndex": "0x57",
          "logIndex": "0x77",
          "removed": false
        }
      ],
      "logsBloom": "0x00000000000000000000000000000000000000000000000000000000000000000000000000000000000000000000000000000000000000004000000000000000000000000000000000000008000000000000000000000000000000000000000000000000020000000000000004000800020000000000000000000010000000000000000000000000000000000000000000000000000000000000010000000000000000000000000000000000000000004000000000000000000000000000020000000002000000800000008000000000000000000000080000000000000020000000000000000000000000000000000000000000000000000000000000000000",
      "type": "0x2",
      "transactionHash": "0x214dfe6a5bf6e12c148c83a3bd44f5c6610739dc3160a1949af0ef4f1da1fdb7",
      "transactionIndex": "0x57",
      "blockHash": "0x2d3a5507f0ee6736d95dd012c6ffe5f088638603580bd0a030d67073ceec1e45",
      "blockNumber": "0x724f3c",
      "gasUsed": "0xfb93",
      "effectiveGasPrice": "0x5a60e2cd3",
      "from": "0xc77f7fed3b5cc8249adc428c5f44c9063b9734b4",
      "to": "0x5eb9cc76c3506942c1c0ead70e877dd5e4f00cb0",
      "contractAddress": null
    }
  ],
  "libraries": [],
  "pending": [],
  "returns": {},
  "timestamp": 1736878214,
  "chain": 11155111,
  "commit": "51a374b"
}