{
  "transactions": [
    {
      "hash": "0xfeb753c54cf66e5ecda0fd215a80d397651ff5eb81018a7314288f34bfe2ce33",
      "transactionType": "CALL",
      "contractName": null,
      "contractAddress": "0x5eb9cc76c3506942c1c0ead70e877dd5e4f00cb0",
      "function": "buy(address)",
      "arguments": [
        "0xC77f7fed3b5Cc8249aDc428c5F44C9063B9734b4"
      ],
      "transaction": {
        "from": "0xc77f7fed3b5cc8249adc428c5f44c9063b9734b4",
        "to": "0x5eb9cc76c3506942c1c0ead70e877dd5e4f00cb0",
        "gas": "0x1b30c",
        "value": "0xde0b6b3a7640000",
        "input": "0xf088d547000000000000000000000000c77f7fed3b5cc8249adc428c5f44c9063b9734b4",
        "nonce": "0x2fa",
        "chainId": "0xaa36a7"
      },
      "additionalContracts": [],
      "isFixedGasLimit": false
    }
  ],
  "receipts": [
    {
      "status": "0x1",
      "cumulativeGasUsed": "0xe803ca",
      "logs": [
        {
          "address": "0x5eb9cc76c3506942c1c0ead70e877dd5e4f00cb0",
          "topics": [
            "0xddf252ad1be2c89b69c2b068fc378daa952ba7f163c4a11628f55a4df523b3ef",
            "0x0000000000000000000000000000000000000000000000000000000000000000",
            "0x000000000000000000000000c77f7fed3b5cc8249adc428c5f44c9063b9734b4"
          ],
          "data": "0x00000000000000000000000000000000000000000000003575961b1ce2853c26",
          "blockHash": "0xed44d50c2dfb114e529420af789f230e00e0985b58c92311f2f11f4cfddf3316",
          "blockNumber": "0x724edb",
          "transactionHash": "0xfeb753c54cf66e5ecda0fd215a80d397651ff5eb81018a7314288f34bfe2ce33",
          "transactionIndex": "0x7f",
          "logIndex": "0xa5",
          "removed": false
        },
        {
          "address": "0x5eb9cc76c3506942c1c0ead70e877dd5e4f00cb0",
          "topics": [
            "0xddf252ad1be2c89b69c2b068fc378daa952ba7f163c4a11628f55a4df523b3ef",
            "0x0000000000000000000000000000000000000000000000000000000000000000",
            "0x000000000000000000000000c77f7fed3b5cc8249adc428c5f44c9063b9734b4"
          ],
          "data": "0x00000000000000000000000000000000000000000000000029835319fc2aed59",
          "blockHash": "0xed44d50c2dfb114e529420af789f230e00e0985b58c92311f2f11f4cfddf3316",
          "blockNumber": "0x724edb",
          "transactionHash": "0xfeb753c54cf66e5ecda0fd215a80d397651ff5eb81018a7314288f34bfe2ce33",
          "transactionIndex": "0x7f",
          "logIndex": "0xa6",
          "removed": false
        },
        {
          "address": "0x5eb9cc76c3506942c1c0ead70e877dd5e4f00cb0",
          "topics": [
            "0x4afcb4a87cdbd9974efdb92ee48bc8d7cd0ae4bf217004db3d080cbaee652ca7"
          ],
          "data": "0x000000000000000000000000000000000000000000000000000000006786a3f80000000000000000000000000000000000000000000000000003910b8eb2b99c0000000000000000000000000000000000000000000000000de0b6b3a7640000",
          "blockHash": "0xed44d50c2dfb114e529420af789f230e00e0985b58c92311f2f11f4cfddf3316",
          "blockNumber": "0x724edb",
          "transactionHash": "0xfeb753c54cf66e5ecda0fd215a80d397651ff5eb81018a7314288f34bfe2ce33",
          "transactionIndex": "0x7f",
          "logIndex": "0xa7",
          "removed": false
        }
      ],
      "logsBloom": "0x00000000000000000000000000000000000000000000000000000000000000000000000000000000000000000000000000000000000000004000000000000000000000000000000000000008000000000000000000000000000000000000000000000000020000000000000004000800020000000000000000000010000000000000000000000000000000000000000000000000000000000000010000000000000000000000000000000000000000004000000000000000000000000000020000000002000000800000008000000000000000000000080000000000000020000000000000000000000000000000000000000000000000000000000000000000",
      "type": "0x2",
      "transactionHash": "0xfeb753c54cf66e5ecda0fd215a80d397651ff5eb81018a7314288f34bfe2ce33",
      "transactionIndex": "0x7f",
      "blockHash": "0xed44d50c2dfb114e529420af789f230e00e0985b58c92311f2f11f4cfddf3316",
      "blockNumber": "0x724edb",
      "gasUsed": "0x13af8",
      "effectiveGasPrice": "0x6d3c23bc8",
      "from": "0xc77f7fed3b5cc8249adc428c5f44c9063b9734b4",
      "to": "0x5eb9cc76c3506942c1c0ead70e877dd5e4f00cb0",
      "contractAddress": null
    }
  ],
  "libraries": [],
  "pending": [],
  "returns": {},
  "timestamp": 1736877048,
  "chain": 11155111,
  "commit": "51a374b"
}