{
  "transactions": [
    {
      "hash": "0x0420d7a6ccdb6c336f2da9f21fb6c1d666a39966f6ed9c6ab6191aac1b81f2c2",
      "transactionType": "CALL",
      "contractName": null,
      "contractAddress": "0x8aafd3ede9adb0ff97c7aebce82a919afb1c8764",
      "function": "sell(uint256)",
      "arguments": [
        "3070218267991"
      ],
      "transaction": {
        "from": "0xc77f7fed3b5cc8249adc428c5f44c9063b9734b4",
        "to": "0x8aafd3ede9adb0ff97c7aebce82a919afb1c8764",
        "gas": "0x15daa",
        "value": "0x0",
        "input": "0xe4849b32000000000000000000000000000000000000000000000000000002cad744ed57",
        "nonce": "0xe6e",
        "chainId": "0xaa36a7"
      },
      "additionalContracts": [],
      "isFixedGasLimit": false
    }
  ],
  "receipts": [
    {
      "status": "0x1",
      "cumulativeGasUsed": "0xb39bd6",
      "logs": [
        {
          "address": "0x8aafd3ede9adb0ff97c7aebce82a919afb1c8764",
          "topics": [
            "0xddf252ad1be2c89b69c2b068fc378daa952ba7f163c4a11628f55a4df523b3ef",
            "0x000000000000000000000000c77f7fed3b5cc8249adc428c5f44c9063b9734b4",
            "0x0000000000000000000000000000000000000000000000000000000000000000"
          ],
          "data": "0x000000000000000000000000000000000000000000000000000002c51f466c78",
          "blockHash": "0xfc3ffea055eb89b166a4da6c954d5682d728df3e6d7fb3a6eb0057b8268e18c7",
          "blockNumber": "0x7313c5",
          "transactionHash": "0x0420d7a6ccdb6c336f2da9f21fb6c1d666a39966f6ed9c6ab6191aac1b81f2c2",
          "transactionIndex": "0x8d",
          "logIndex": "0xe3",
          "removed": false
        },
        {
          "address": "0x8aafd3ede9adb0ff97c7aebce82a919afb1c8764",
          "topics": [
            "0xddf252ad1be2c89b69c2b068fc378daa952ba7f163c4a11628f55a4df523b3ef",
            "0x000000000000000000000000c77f7fed3b5cc8249adc428c5f44c9063b9734b4",
            "0x000000000000000000000000c77f7fed3b5cc8249adc428c5f44c9063b9734b4"
          ],
          "data": "0x00000000000000000000000000000000000000000000000000000005b7fe80df",
          "blockHash": "0xfc3ffea055eb89b166a4da6c954d5682d728df3e6d7fb3a6eb0057b8268e18c7",
          "blockNumber": "0x7313c5",
          "transactionHash": "0x0420d7a6ccdb6c336f2da9f21fb6c1d666a39966f6ed9c6ab6191aac1b81f2c2",
          "transactionIndex": "0x8d",
          "logIndex": "0xe4",
          "removed": false
        },
        {
          "address": "0x8aafd3ede9adb0ff97c7aebce82a919afb1c8764",
          "topics": [
            "0x4afcb4a87cdbd9974efdb92ee48bc8d7cd0ae4bf217004db3d080cbaee652ca7"
          ],
          "data": "0x00000000000000000000000000000000000000000000000000000000678fe9d00000000000000000000000000000000000000000000000000004b54a054237e900000000000000000000000000000000000000000000000000000000f28419ac",
          "blockHash": "0xfc3ffea055eb89b166a4da6c954d5682d728df3e6d7fb3a6eb0057b8268e18c7",
          "blockNumber": "0x7313c5",
          "transactionHash": "0x0420d7a6ccdb6c336f2da9f21fb6c1d666a39966f6ed9c6ab6191aac1b81f2c2",
          "transactionIndex": "0x8d",
          "logIndex": "0xe5",
          "removed": false
        }
      ],
      "logsBloom": "0x00000000000000000000000000000000000000000600000000000000000000000000000000000000000000000000000000000000000000004000000000000000000000000000004000000008000000000000000000000000000000000000000000000000020000000000000000000800020000000000000000000010000000000000000000000000000000000000000000000000000000000000010000000000000000000000000000000000000000004000000000000000000000000000000000000002000000800000000000000000000000000000080000000000000020000000000000000000000000000000000000000000000000000000000000000000",
      "type": "0x2",
      "transactionHash": "0x0420d7a6ccdb6c336f2da9f21fb6c1d666a39966f6ed9c6ab6191aac1b81f2c2",
      "transactionIndex": "0x8d",
      "blockHash": "0xfc3ffea055eb89b166a4da6c954d5682d728df3e6d7fb3a6eb0057b8268e18c7",
      "blockNumber": "0x7313c5",
      "gasUsed": "0xfd27",
      "effectiveGasPrice": "0x6bd4ede6",
      "from": "0xc77f7fed3b5cc8249adc428c5f44c9063b9734b4",
      "to": "0x8aafd3ede9adb0ff97c7aebce82a919afb1c8764",
      "contractAddress": null
    }
  ],
  "libraries": [],
  "pending": [],
  "returns": {},
  "timestamp": 1737484755,
  "chain": 11155111,
  "commit": "51a374b"
}