{
  "transactions": [
    {
      "hash": "0x27e9037c9a500b3dca609ada92ed38274a09bc862dc4bff8c2c7759c34e80ae3",
      "transactionType": "CALL",
      "contractName": null,
      "contractAddress": "0x8aafd3ede9adb0ff97c7aebce82a919afb1c8764",
      "function": "sell(uint256)",
      "arguments": [
        "1417938"
      ],
      "transaction": {
        "from": "0xc77f7fed3b5cc8249adc428c5f44c9063b9734b4",
        "to": "0x8aafd3ede9adb0ff97c7aebce82a919afb1c8764",
        "gas": "0x16208",
        "value": "0x0",
        "input": "0xe4849b32000000000000000000000000000000000000000000000000000000000015a2d2",
        "nonce": "0x123c",
        "chainId": "0xaa36a7"
      },
      "additionalContracts": [],
      "isFixedGasLimit": false
    }
  ],
  "receipts": [
    {
      "status": "0x1",
      "cumulativeGasUsed": "0xb782cd",
      "logs": [
        {
          "address": "0x8aafd3ede9adb0ff97c7aebce82a919afb1c8764",
          "topics": [
            "0xddf252ad1be2c89b69c2b068fc378daa952ba7f163c4a11628f55a4df523b3ef",
            "0x000000000000000000000000c77f7fed3b5cc8249adc428c5f44c9063b9734b4",
            "0x0000000000000000000000000000000000000000000000000000000000000000"
          ],
          "data": "0x0000000000000000000000000000000000000000000000000000000000157683",
          "blockHash": "0x9957eed5d336a2b1e4c3d9d06c3dc9fb6a4cfc334b93889ef8a736110396006c",
          "blockNumber": "0x73191c",
          "transactionHash": "0x27e9037c9a500b3dca609ada92ed38274a09bc862dc4bff8c2c7759c34e80ae3",
          "transactionIndex": "0x6d",
          "logIndex": "0x81",
          "removed": false
        },
        {
          "address": "0x8aafd3ede9adb0ff97c7aebce82a919afb1c8764",
          "topics": [
            "0xddf252ad1be2c89b69c2b068fc378daa952ba7f163c4a11628f55a4df523b3ef",
            "0x000000000000000000000000c77f7fed3b5cc8249adc428c5f44c9063b9734b4",
            "0x000000000000000000000000c77f7fed3b5cc8249adc428c5f44c9063b9734b4"
          ],
          "data": "0x0000000000000000000000000000000000000000000000000000000000002c4f",
          "blockHash": "0x9957eed5d336a2b1e4c3d9d06c3dc9fb6a4cfc334b93889ef8a736110396006c",
          "blockNumber": "0x73191c",
          "transactionHash": "0x27e9037c9a500b3dca609ada92ed38274a09bc862dc4bff8c2c7759c34e80ae3",
          "transactionIndex": "0x6d",
          "logIndex": "0x82",
          "removed": false
        },
        {
          "address": "0x8aafd3ede9adb0ff97c7aebce82a919afb1c8764",
          "topics": [
            "0x4afcb4a87cdbd9974efdb92ee48bc8d7cd0ae4bf217004db3d080cbaee652ca7"
          ],
          "data": "0x0000000000000000000000000000000000000000000000000000000067902a2000000000000000000000000000000000000000000000000000053932931801b30000000000000000000000000000000000000000000000000000000000000824",
          "blockHash": "0x9957eed5d336a2b1e4c3d9d06c3dc9fb6a4cfc334b93889ef8a736110396006c",
          "blockNumber": "0x73191c",
          "transactionHash": "0x27e9037c9a500b3dca609ada92ed38274a09bc862dc4bff8c2c7759c34e80ae3",
          "transactionIndex": "0x6d",
          "logIndex": "0x83",
          "removed": false
        }
      ],
      "logsBloom": "0x00000000000000000000000000000000000000000600000000000000000000000000000000000000000000000000000000000000000000004000000000000000000000000000004000000008000000000000000000000000000000000000000000000000020000000000000000000800020000000000000000000010000000000000000000000000000000000000000000000000000000000000010000000000000000000000000000000000000000004000000000000000000000000000000000000002000000800000000000000000000000000000080000000000000020000000000000000000000000000000000000000000000000000000000000000000",
      "type": "0x2",
      "transactionHash": "0x27e9037c9a500b3dca609ada92ed38274a09bc862dc4bff8c2c7759c34e80ae3",
      "transactionIndex": "0x6d",
      "blockHash": "0x9957eed5d336a2b1e4c3d9d06c3dc9fb6a4cfc334b93889ef8a736110396006c",
      "blockNumber": "0x73191c",
      "gasUsed": "0xf213",
      "effectiveGasPrice": "0x45c5bdb1",
      "from": "0xc77f7fed3b5cc8249adc428c5f44c9063b9734b4",
      "to": "0x8aafd3ede9adb0ff97c7aebce82a919afb1c8764",
      "contractAddress": null
    }
  ],
  "libraries": [],
  "pending": [],
  "returns": {},
  "timestamp": 1737501217,
  "chain": 11155111,
  "commit": "1d2fb70"
}