{
  "transactions": [
    {
      "hash": "0x0721136aeedd697eeb92475fcd3202e89a363bb091839e4ebee989f2dc3431cc",
      "transactionType": "CALL",
      "contractName": null,
      "contractAddress": "0x5eb9cc76c3506942c1c0ead70e877dd5e4f00cb0",
      "function": "buy(address)",
      "arguments": [
        "0xC77f7fed3b5Cc8249aDc428c5F44C9063B9734b4"
      ],
      "transaction": {
        "from": "0xc77f7fed3b5cc8249adc428c5f44c9063b9734b4",
        "to": "0x5eb9cc76c3506942c1c0ead70e877dd5e4f00cb0",
        "gas": "0x156c8",
        "value": "0xde0b6b3a7640000",
        "input": "0xf088d547000000000000000000000000c77f7fed3b5cc8249adc428c5f44c9063b9734b4",
        "nonce": "0x1cd",
        "chainId": "0xaa36a7"
      },
      "additionalContracts": [],
      "isFixedGasLimit": false
    }
  ],
  "receipts": [
    {
      "status": "0x1",
      "cumulativeGasUsed": "0x8afabb",
      "logs": [
        {
          "address": "0x5eb9cc76c3506942c1c0ead70e877dd5e4f00cb0",
          "topics": [
            "0xddf252ad1be2c89b69c2b068fc378daa952ba7f163c4a11628f55a4df523b3ef",
            "0x0000000000000000000000000000000000000000000000000000000000000000",
            "0x000000000000000000000000c77f7fed3b5cc8249adc428c5f44c9063b9734b4"
          ],
          "data": "0x000000000000000000000000000000000000000000000035a366b914d0d126df",
          "blockHash": "0xa9cae84fdd821b5fb60bdec44a01849e5307512f902921f9740aa96e8c92c9ac",
          "blockNumber": "0x723cbc",
          "transactionHash": "0x0721136aeedd697eeb92475fcd3202e89a363bb091839e4ebee989f2dc3431cc",
          "transactionIndex": "0x5c",
          "logIndex": "0x88",
          "removed": false
        },
        {
          "address": "0x5eb9cc76c3506942c1c0ead70e877dd5e4f00cb0",
          "topics": [
            "0xddf252ad1be2c89b69c2b068fc378daa952ba7f163c4a11628f55a4df523b3ef",
            "0x0000000000000000000000000000000000000000000000000000000000000000",
            "0x000000000000000000000000c77f7fed3b5cc8249adc428c5f44c9063b9734b4"
          ],
          "data": "0x00000000000000000000000000000000000000000000000029a6e6c5d0b8a456",
          "blockHash": "0xa9cae84fdd821b5fb60bdec44a01849e5307512f902921f9740aa96e8c92c9ac",
          "blockNumber": "0x723cbc",
          "transactionHash": "0x0721136aeedd697eeb92475fcd3202e89a363bb091839e4ebee989f2dc3431cc",
          "transactionIndex": "0x5c",
          "logIndex": "0x89",
          "removed": false
        },
        {
          "address": "0x5eb9cc76c3506942c1c0ead70e877dd5e4f00cb0",
          "topics": [
            "0x4afcb4a87cdbd9974efdb92ee48bc8d7cd0ae4bf217004db3d080cbaee652ca7"
          ],
          "data": "0x000000000000000000000000000000000000000000000000000000006785ca2400000000000000000000000000000000000000000000000000038dffaf1466750000000000000000000000000000000000000000000000000de0b6b3a7640000",
          "blockHash": "0xa9cae84fdd821b5fb60bdec44a01849e5307512f902921f9740aa96e8c92c9ac",
          "blockNumber": "0x723cbc",
          "transactionHash": "0x0721136aeedd697eeb92475fcd3202e89a363bb091839e4ebee989f2dc3431cc",
          "transactionIndex": "0x5c",
          "logIndex": "0x8a",
          "removed": false
        }
      ],
      "logsBloom": "0x00000000000000000000000000000000000000000000000000000000000000000000000000000000000000000000000000000000000000004000000000000000000000000000000000000008000000000000000000000000000000000000000000000000020000000000000004000800020000000000000000000010000000000000000000000000000000000000000000000000000000000000010000000000000000000000000000000000000000004000000000000000000000000000020000000002000000800000008000000000000000000000080000000000000020000000000000000000000000000000000000000000000000000000000000000000",
      "type": "0x2",
      "transactionHash": "0x0721136aeedd697eeb92475fcd3202e89a363bb091839e4ebee989f2dc3431cc",
      "transactionIndex": "0x5c",
      "blockHash": "0xa9cae84fdd821b5fb60bdec44a01849e5307512f902921f9740aa96e8c92c9ac",
      "blockNumber": "0x723cbc",
      "gasUsed": "0xf82c",
      "effectiveGasPrice": "0x1d06580b7",
      "from": "0xc77f7fed3b5cc8249adc428c5f44c9063b9734b4",
      "to": "0x5eb9cc76c3506942c1c0ead70e877dd5e4f00cb0",
      "contractAddress": null
    }
  ],
  "libraries": [],
  "pending": [],
  "returns": {},
  "timestamp": 1736821285,
  "chain": 11155111,
  "commit": "51a374b"
}