{
  "transactions": [
    {
      "hash": "0x8507a6e9cf8d0b066c478446b8b18ead62b7df65e9b6aefd80073efddc994556",
      "transactionType": "CALL",
      "contractName": null,
      "contractAddress": "0xbf4a322f1496e5c3d34a9bcdb4c60567b38c7de2",
      "function": "buy(address)",
      "arguments": [
        "0xC77f7fed3b5Cc8249aDc428c5F44C9063B9734b4"
      ],
      "transaction": {
        "from": "0xc77f7fed3b5cc8249adc428c5f44c9063b9734b4",
        "to": "0xbf4a322f1496e5c3d34a9bcdb4c60567b38c7de2",
        "gas": "0x1b309",
        "value": "0xde0b6b3a7640000",
        "input": "0xf088d547000000000000000000000000c77f7fed3b5cc8249adc428c5f44c9063b9734b4",
        "nonce": "0xbdc",
        "chainId": "0xaa36a7"
      },
      "additionalContracts": [],
      "isFixedGasLimit": false
    }
  ],
  "receipts": [
    {
      "status": "0x1",
      "cumulativeGasUsed": "0x11d5a96",
      "logs": [
        {
          "address": "0xbf4a322f1496e5c3d34a9bcdb4c60567b38c7de2",
          "topics": [
            "0xddf252ad1be2c89b69c2b068fc378daa952ba7f163c4a11628f55a4df523b3ef",
            "0x0000000000000000000000000000000000000000000000000000000000000000",
            "0x000000000000000000000000c77f7fed3b5cc8249adc428c5f44c9063b9734b4"
          ],
          "data": "0x000000000000000000000000000000000000000000000035020fd90708ca3562",
          "blockHash": "0x4a1107f1d255736faf8d56dbc7bd8a4fbab929fd7e057f1768ce58c42818c83f",
          "blockNumber": "0x725bff",
          "transactionHash": "0x8507a6e9cf8d0b066c478446b8b18ead62b7df65e9b6aefd80073efddc994556",
          "transactionIndex": "0x8a",
          "logIndex": "0x115",
          "removed": false
        },
        {
          "address": "0xbf4a322f1496e5c3d34a9bcdb4c60567b38c7de2",
          "topics": [
            "0xddf252ad1be2c89b69c2b068fc378daa952ba7f163c4a11628f55a4df523b3ef",
            "0x0000000000000000000000000000000000000000000000000000000000000000",
            "0x000000000000000000000000c77f7fed3b5cc8249adc428c5f44c9063b9734b4"
          ],
          "data": "0x00000000000000000000000000000000000000000000000029299dae6858a42a",
          "blockHash": "0x4a1107f1d255736faf8d56dbc7bd8a4fbab929fd7e057f1768ce58c42818c83f",
          "blockNumber": "0x725bff",
          "transactionHash": "0x8507a6e9cf8d0b066c478446b8b18ead62b7df65e9b6aefd80073efddc994556",
          "transactionIndex": "0x8a",
          "logIndex": "0x116",
          "removed": false
        },
        {
          "address": "0xbf4a322f1496e5c3d34a9bcdb4c60567b38c7de2",
          "topics": [
            "0x4afcb4a87cdbd9974efdb92ee48bc8d7cd0ae4bf217004db3d080cbaee652ca7"
          ],
          "data": "0x0000000000000000000000000000000000000000000000000000000067874250000000000000000000000000000000000000000000000000000398d3b9f4a18c0000000000000000000000000000000000000000000000000de0b6b3a7640000",
          "blockHash": "0x4a1107f1d255736faf8d56dbc7bd8a4fbab929fd7e057f1768ce58c42818c83f",
          "blockNumber": "0x725bff",
          "transactionHash": "0x8507a6e9cf8d0b066c478446b8b18ead62b7df65e9b6aefd80073efddc994556",
          "transactionIndex": "0x8a",
          "logIndex": "0x117",
          "removed": false
        }
      ],
      "logsBloom": "0x00000000000000000000000000000000000000000000000000000000000000000000000000000000000000000000000000000000000000004000000000000000000000000000000000000008000000000000001000000000000000000000000000000000020000000000000000000800020000000000000000000010000000000000000000000000000000000000000000000000000008000000010000000000000000000000000000000000000000004000000000000000000000000000000000000002000000800000000000001000000000000000080000000000000020000000000000000000000000000000000000000000000000000000000000000000",
      "type": "0x2",
      "transactionHash": "0x8507a6e9cf8d0b066c478446b8b18ead62b7df65e9b6aefd80073efddc994556",
      "transactionIndex": "0x8a",
      "blockHash": "0x4a1107f1d255736faf8d56dbc7bd8a4fbab929fd7e057f1768ce58c42818c83f",
      "blockNumber": "0x725bff",
      "gasUsed": "0x13af6",
      "effectiveGasPrice": "0x99afc1c1",
      "from": "0xc77f7fed3b5cc8249adc428c5f44c9063b9734b4",
      "to": "0xbf4a322f1496e5c3d34a9bcdb4c60567b38c7de2",
      "contractAddress": null
    }
  ],
  "libraries": [],
  "pending": [],
  "returns": {},
  "timestamp": 1736917585,
  "chain": 11155111,
  "commit": "51a374b"
}