{
  "transactions": [
    {
      "hash": "0x040fd30394ccdce00360375455b2532b158d683969ba604ce725fc9c275f2cab",
      "transactionType": "CALL",
      "contractName": null,
      "contractAddress": "0xbf4a322f1496e5c3d34a9bcdb4c60567b38c7de2",
      "function": "sell(uint256)",
      "arguments": [
        "990516488238481711310"
      ],
      "transaction": {
        "from": "0xc77f7fed3b5cc8249adc428c5f44c9063b9734b4",
        "to": "0xbf4a322f1496e5c3d34a9bcdb4c60567b38c7de2",
        "gas": "0x16fea",
        "value": "0x0",
        "input": "0xe4849b32000000000000000000000000000000000000000000000035b22d7a125616a0ce",
        "nonce": "0x911",
        "chainId": "0xaa36a7"
      },
      "additionalContracts": [],
      "isFixedGasLimit": false
    }
  ],
  "receipts": [
    {
      "status": "0x1",
      "cumulativeGasUsed": "0xdcd666",
      "logs": [
        {
          "address": "0xbf4a322f1496e5c3d34a9bcdb4c60567b38c7de2",
          "topics": [
            "0xddf252ad1be2c89b69c2b068fc378daa952ba7f163c4a11628f55a4df523b3ef",
            "0x000000000000000000000000c77f7fed3b5cc8249adc428c5f44c9063b9734b4",
            "0x0000000000000000000000000000000000000000000000000000000000000000"
          ],
          "data": "0x000000000000000000000000000000000000000000000035b22d7a125616a0ce",
          "blockHash": "0x62c219467e53eed8e5067892e0f14069d98ef64852acdf533bfa375fad14975f",
          "blockNumber": "0x72588f",
          "transactionHash": "0x040fd30394ccdce00360375455b2532b158d683969ba604ce725fc9c275f2cab",
          "transactionIndex": "0x5c",
          "logIndex": "0x76",
          "removed": false
        },
        {
          "address": "0xbf4a322f1496e5c3d34a9bcdb4c60567b38c7de2",
          "topics": [
            "0x4afcb4a87cdbd9974efdb92ee48bc8d7cd0ae4bf217004db3d080cbaee652ca7"
          ],
          "data": "0x00000000000000000000000000000000000000000000000000000000678718e000000000000000000000000000000000000000000000000000038fcd967d13c50000000000000000000000000000000000000000000000000dc7e3fa846216f2",
          "blockHash": "0x62c219467e53eed8e5067892e0f14069d98ef64852acdf533bfa375fad14975f",
          "blockNumber": "0x72588f",
          "transactionHash": "0x040fd30394ccdce00360375455b2532b158d683969ba604ce725fc9c275f2cab",
          "transactionIndex": "0x5c",
          "logIndex": "0x77",
          "removed": false
        }
      ],
      "logsBloom": "0x00000000000000000000000000000000000000000000000000000000000000000000000000000000000000000000000000000000000000004000000000000000000000000000000000000008000000000000001000000000000000000000000000000000020000000000000000000800020000000000000000000010000000000000000000000000000000000000000000000000000008000000010000000000000000000000000000000000000000004000000000000000000000000000000000000002000000800000000000001000000000000000080000000000000020000000000000000000000000000000000000000000000000000000000000000000",
      "type": "0x2",
      "transactionHash": "0x040fd30394ccdce00360375455b2532b158d683969ba604ce725fc9c275f2cab",
      "transactionIndex": "0x5c",
      "blockHash": "0x62c219467e53eed8e5067892e0f14069d98ef64852acdf533bfa375fad14975f",
      "blockNumber": "0x72588f",
      "gasUsed": "0xfb91",
      "effectiveGasPrice": "0x3837936b",
      "from": "0xc77f7fed3b5cc8249adc428c5f44c9063b9734b4",
      "to": "0xbf4a322f1496e5c3d34a9bcdb4c60567b38c7de2",
      "contractAddress": null
    }
  ],
  "libraries": [],
  "pending": [],
  "returns": {},
  "timestamp": 1736906978,
  "chain": 11155111,
  "commit": "51a374b"
}