{
  "transactions": [
    {
      "hash": "0xb4b38991725fec21a0e6a2f64b7207d0aaeb582a552fee978aa072aa2d773a05",
      "transactionType": "CALL",
      "contractName": null,
      "contractAddress": "0x8aafd3ede9adb0ff97c7aebce82a919afb1c8764",
      "function": "sell(uint256)",
      "arguments": [
        "12424"
      ],
      "transaction": {
        "from": "0xc77f7fed3b5cc8249adc428c5f44c9063b9734b4",
        "to": "0x8aafd3ede9adb0ff97c7aebce82a919afb1c8764",
        "gas": "0x14e4c",
        "value": "0x0",
        "input": "0xe4849b320000000000000000000000000000000000000000000000000000000000003088",
        "nonce": "0xfb5",
        "chainId": "0xaa36a7"
      },
      "additionalContracts": [],
      "isFixedGasLimit": false
    }
  ],
  "receipts": [
    {
      "status": "0x1",
      "cumulativeGasUsed": "0x205a882",
      "logs": [
        {
          "address": "0x8aafd3ede9adb0ff97c7aebce82a919afb1c8764",
          "topics": [
            "0xddf252ad1be2c89b69c2b068fc378daa952ba7f163c4a11628f55a4df523b3ef",
            "0x000000000000000000000000c77f7fed3b5cc8249adc428c5f44c9063b9734b4",
            "0x0000000000000000000000000000000000000000000000000000000000000000"
          ],
          "data": "0x0000000000000000000000000000000000000000000000000000000000003025",
          "blockHash": "0xbc994a4680bee07c171aa98a6726a6e5201c8caeccb62fef363302b182a37285",
          "blockNumber": "0x731620",
          "transactionHash": "0xb4b38991725fec21a0e6a2f64b7207d0aaeb582a552fee978aa072aa2d773a05",
          "transactionIndex": "0x95",
          "logIndex": "0x27e3",
          "removed": false
        },
        {
          "address": "0x8aafd3ede9adb0ff97c7aebce82a919afb1c8764",
          "topics": [
            "0xddf252ad1be2c89b69c2b068fc378daa952ba7f163c4a11628f55a4df523b3ef",
            "0x000000000000000000000000c77f7fed3b5cc8249adc428c5f44c9063b9734b4",
            "0x000000000000000000000000c77f7fed3b5cc8249adc428c5f44c9063b9734b4"
          ],
          "data": "0x0000000000000000000000000000000000000000000000000000000000000063",
          "blockHash": "0xbc994a4680bee07c171aa98a6726a6e5201c8caeccb62fef363302b182a37285",
          "blockNumber": "0x731620",
          "transactionHash": "0xb4b38991725fec21a0e6a2f64b7207d0aaeb582a552fee978aa072aa2d773a05",
          "transactionIndex": "0x95",
          "logIndex": "0x27e4",
          "removed": false
        },
        {
          "address": "0x8aafd3ede9adb0ff97c7aebce82a919afb1c8764",
          "topics": [
            "0x4afcb4a87cdbd9974efdb92ee48bc8d7cd0ae4bf217004db3d080cbaee652ca7"
          ],
          "data": "0x000000000000000000000000000000000000000000000000000000006790062c0000000000000000000000000000000000000000000000000004c3cf240dae220000000000000000000000000000000000000000000000000000000000000010",
          "blockHash": "0xbc994a4680bee07c171aa98a6726a6e5201c8caeccb62fef363302b182a37285",
          "blockNumber": "0x731620",
          "transactionHash": "0xb4b38991725fec21a0e6a2f64b7207d0aaeb582a552fee978aa072aa2d773a05",
          "transactionIndex": "0x95",
          "logIndex": "0x27e5",
          "removed": false
        }
      ],
      "logsBloom": "0x00000000000000000000000000000000000000000600000000000000000000000000000000000000000000000000000000000000000000004000000000000000000000000000004000000008000000000000000000000000000000000000000000000000020000000000000000000800020000000000000000000010000000000000000000000000000000000000000000000000000000000000010000000000000000000000000000000000000000004000000000000000000000000000000000000002000000800000000000000000000000000000080000000000000020000000000000000000000000000000000000000000000000000000000000000000",
      "type": "0x2",
      "transactionHash": "0xb4b38991725fec21a0e6a2f64b7207d0aaeb582a552fee978aa072aa2d773a05",
      "transactionIndex": "0x95",
      "blockHash": "0xbc994a4680bee07c171aa98a6726a6e5201c8caeccb62fef363302b182a37285",
      "blockNumber": "0x731620",
      "gasUsed": "0xf207",
      "effectiveGasPrice": "0x60527c12",
      "from": "0xc77f7fed3b5cc8249adc428c5f44c9063b9734b4",
      "to": "0x8aafd3ede9adb0ff97c7aebce82a919afb1c8764",
      "contractAddress": null
    }
  ],
  "libraries": [],
  "pending": [],
  "returns": {},
  "timestamp": 1737492013,
  "chain": 11155111,
  "commit": "1d2fb70"
}