{
  "transactions": [
    {
      "hash": "0xaae07375ee72efa75c977c0bcff91dcaa47c80347dd7f7ff21413c6157e9d8f1",
      "transactionType": "CALL",
      "contractName": null,
      "contractAddress": "0x8aafd3ede9adb0ff97c7aebce82a919afb1c8764",
      "function": "sell(uint256)",
      "arguments": [
        "348069547124299"
      ],
      "transaction": {
        "from": "0xc77f7fed3b5cc8249adc428c5f44c9063b9734b4",
        "to": "0x8aafd3ede9adb0ff97c7aebce82a919afb1c8764",
        "gas": "0x1724d",
        "value": "0x0",
        "input": "0xe4849b3200000000000000000000000000000000000000000000000000013c9141b6a64b",
        "nonce": "0x1206",
        "chainId": "0xaa36a7"
      },
      "additionalContracts": [],
      "isFixedGasLimit": false
    }
  ],
  "receipts": [
    {
      "status": "0x1",
      "cumulativeGasUsed": "0x128145b",
      "logs": [
        {
          "address": "0x8aafd3ede9adb0ff97c7aebce82a919afb1c8764",
          "topics": [
            "0xddf252ad1be2c89b69c2b068fc378daa952ba7f163c4a11628f55a4df523b3ef",
            "0x000000000000000000000000c77f7fed3b5cc8249adc428c5f44c9063b9734b4",
            "0x0000000000000000000000000000000000000000000000000000000000000000"
          ],
          "data": "0x00000000000000000000000000000000000000000000000000013a08ed3842a9",
          "blockHash": "0x70736407920d350aa2a682bab1acf4b791dcfb5ef46b15256050c302b201ad02",
          "blockNumber": "0x7318e1",
          "transactionHash": "0xaae07375ee72efa75c977c0bcff91dcaa47c80347dd7f7ff21413c6157e9d8f1",
          "transactionIndex": "0x85",
          "logIndex": "0xcb",
          "removed": false
        },
        {
          "address": "0x8aafd3ede9adb0ff97c7aebce82a919afb1c8764",
          "topics": [
            "0xddf252ad1be2c89b69c2b068fc378daa952ba7f163c4a11628f55a4df523b3ef",
            "0x000000000000000000000000c77f7fed3b5cc8249adc428c5f44c9063b9734b4",
            "0x000000000000000000000000c77f7fed3b5cc8249adc428c5f44c9063b9734b4"
          ],
          "data": "0x00000000000000000000000000000000000000000000000000000288547e63a2",
          "blockHash": "0x70736407920d350aa2a682bab1acf4b791dcfb5ef46b15256050c302b201ad02",
          "blockNumber": "0x7318e1",
          "transactionHash": "0xaae07375ee72efa75c977c0bcff91dcaa47c80347dd7f7ff21413c6157e9d8f1",
          "transactionIndex": "0x85",
          "logIndex": "0xcc",
          "removed": false
        },
        {
          "address": "0x8aafd3ede9adb0ff97c7aebce82a919afb1c8764",
          "topics": [
            "0x4afcb4a87cdbd9974efdb92ee48bc8d7cd0ae4bf217004db3d080cbaee652ca7"
          ],
          "data": "0x000000000000000000000000000000000000000000000000000000006790275c000000000000000000000000000000000000000000000000000531ee96258281000000000000000000000000000000000000000000000000000000768131487f",
          "blockHash": "0x70736407920d350aa2a682bab1acf4b791dcfb5ef46b15256050c302b201ad02",
          "blockNumber": "0x7318e1",
          "transactionHash": "0xaae07375ee72efa75c977c0bcff91dcaa47c80347dd7f7ff21413c6157e9d8f1",
          "transactionIndex": "0x85",
          "logIndex": "0xcd",
          "removed": false
        }
      ],
      "logsBloom": "0x00000000000000000000000000000000000000000600000000000000000000000000000000000000000000000000000000000000000000004000000000000000000000000000004000000008000000000000000000000000000000000000000000000000020000000000000000000800020000000000000000000010000000000000000000000000000000000000000000000000000000000000010000000000000000000000000000000000000000004000000000000000000000000000000000000002000000800000000000000000000000000000080000000000000020000000000000000000000000000000000000000000000000000000000000000000",
      "type": "0x2",
      "transactionHash": "0xaae07375ee72efa75c977c0bcff91dcaa47c80347dd7f7ff21413c6157e9d8f1",
      "transactionIndex": "0x85",
      "blockHash": "0x70736407920d350aa2a682bab1acf4b791dcfb5ef46b15256050c302b201ad02",
      "blockNumber": "0x7318e1",
      "gasUsed": "0xfd33",
      "effectiveGasPrice": "0x3a6bd536",
      "from": "0xc77f7fed3b5cc8249adc428c5f44c9063b9734b4",
      "to": "0x8aafd3ede9adb0ff97c7aebce82a919afb1c8764",
      "contractAddress": null
    }
  ],
  "libraries": [],
  "pending": [],
  "returns": {},
  "timestamp": 1737500510,
  "chain": 11155111,
  "commit": "1d2fb70"
}