{
  "transactions": [
    {
      "hash": "0x800132f4a16113c314de125cbd38426838450fd7972e165bfe992760de4f22f9",
      "transactionType": "CALL",
      "contractName": null,
      "contractAddress": "0x8aafd3ede9adb0ff97c7aebce82a919afb1c8764",
      "function": "sell(uint256)",
      "arguments": [
        "184673858"
      ],
      "transaction": {
        "from": "0xc77f7fed3b5cc8249adc428c5f44c9063b9734b4",
        "to": "0x8aafd3ede9adb0ff97c7aebce82a919afb1c8764",
        "gas": "0x14e6c",
        "value": "0x0",
        "input": "0xe4849b32000000000000000000000000000000000000000000000000000000000b01e642",
        "nonce": "0x10c9",
        "chainId": "0xaa36a7"
      },
      "additionalContracts": [],
      "isFixedGasLimit": false
    }
  ],
  "receipts": [
    {
      "status": "0x1",
      "cumulativeGasUsed": "0x98d86d",
      "logs": [
        {
          "address": "0x8aafd3ede9adb0ff97c7aebce82a919afb1c8764",
          "topics": [
            "0xddf252ad1be2c89b69c2b068fc378daa952ba7f163c4a11628f55a4df523b3ef",
            "0x000000000000000000000000c77f7fed3b5cc8249adc428c5f44c9063b9734b4",
            "0x0000000000000000000000000000000000000000000000000000000000000000"
          ],
          "data": "0x000000000000000000000000000000000000000000000000000000000aeb5b34",
          "blockHash": "0x1d1f8282af2894868c3fadb3c9d234099e90e6386c26e4c301df44d7256b59c6",
          "blockNumber": "0x731766",
          "transactionHash": "0x800132f4a16113c314de125cbd38426838450fd7972e165bfe992760de4f22f9",
          "transactionIndex": "0x73",
          "logIndex": "0x96",
          "removed": false
        },
        {
          "address": "0x8aafd3ede9adb0ff97c7aebce82a919afb1c8764",
          "topics": [
            "0xddf252ad1be2c89b69c2b068fc378daa952ba7f163c4a11628f55a4df523b3ef",
            "0x000000000000000000000000c77f7fed3b5cc8249adc428c5f44c9063b9734b4",
            "0x000000000000000000000000c77f7fed3b5cc8249adc428c5f44c9063b9734b4"
          ],
          "data": "0x0000000000000000000000000000000000000000000000000000000000168b0e",
          "blockHash": "0x1d1f8282af2894868c3fadb3c9d234099e90e6386c26e4c301df44d7256b59c6",
          "blockNumber": "0x731766",
          "transactionHash": "0x800132f4a16113c314de125cbd38426838450fd7972e165bfe992760de4f22f9",
          "transactionIndex": "0x73",
          "logIndex": "0x97",
          "removed": false
        },
        {
          "address": "0x8aafd3ede9adb0ff97c7aebce82a919afb1c8764",
          "topics": [
            "0x4afcb4a87cdbd9974efdb92ee48bc8d7cd0ae4bf217004db3d080cbaee652ca7"
          ],
          "data": "0x000000000000000000000000000000000000000000000000000000006790158c00000000000000000000000000000000000000000000000000050371b4a5f2f6000000000000000000000000000000000000000000000000000000000003f9fc",
          "blockHash": "0x1d1f8282af2894868c3fadb3c9d234099e90e6386c26e4c301df44d7256b59c6",
          "blockNumber": "0x731766",
          "transactionHash": "0x800132f4a16113c314de125cbd38426838450fd7972e165bfe992760de4f22f9",
          "transactionIndex": "0x73",
          "logIndex": "0x98",
          "removed": false
        }
      ],
      "logsBloom": "0x00000000000000000000000000000000000000000600000000000000000000000000000000000000000000000000000000000000000000004000000000000000000000000000004000000008000000000000000000000000000000000000000000000000020000000000000000000800020000000000000000000010000000000000000000000000000000000000000000000000000000000000010000000000000000000000000000000000000000004000000000000000000000000000000000000002000000800000000000000000000000000000080000000000000020000000000000000000000000000000000000000000000000000000000000000000",
      "type": "0x2",
      "transactionHash": "0x800132f4a16113c314de125cbd38426838450fd7972e165bfe992760de4f22f9",
      "transactionIndex": "0x73",
      "blockHash": "0x1d1f8282af2894868c3fadb3c9d234099e90e6386c26e4c301df44d7256b59c6",
      "blockNumber": "0x731766",
      "gasUsed": "0xf21f",
      "effectiveGasPrice": "0x4a18d87b",
      "from": "0xc77f7fed3b5cc8249adc428c5f44c9063b9734b4",
      "to": "0x8aafd3ede9adb0ff97c7aebce82a919afb1c8764",
      "contractAddress": null
    }
  ],
  "libraries": [],
  "pending": [],
  "returns": {},
  "timestamp": 1737495950,
  "chain": 11155111,
  "commit": "1d2fb70"
}