{
  "transactions": [
    {
      "hash": "0xbffe762fba5fb8269a462c9101cff336cde1da601e3edb2ce226d813ab8bbe56",
      "transactionType": "CALL",
      "contractName": null,
      "contractAddress": "0xbf4a322f1496e5c3d34a9bcdb4c60567b38c7de2",
      "function": "buy(address)",
      "arguments": [
        "0xC77f7fed3b5Cc8249aDc428c5F44C9063B9734b4"
      ],
      "transaction": {
        "from": "0xc77f7fed3b5cc8249adc428c5f44c9063b9734b4",
        "to": "0xbf4a322f1496e5c3d34a9bcdb4c60567b38c7de2",
        "gas": "0x1b309",
        "value": "0xde0b6b3a7640000",
        "input": "0xf088d547000000000000000000000000c77f7fed3b5cc8249adc428c5f44c9063b9734b4",
        "nonce": "0xa2a",
        "chainId": "0xaa36a7"
      },
      "additionalContracts": [],
      "isFixedGasLimit": false
    }
  ],
  "receipts": [
    {
      "status": "0x1",
      "cumulativeGasUsed": "0xf3da58",
      "logs": [
        {
          "address": "0xbf4a322f1496e5c3d34a9bcdb4c60567b38c7de2",
          "topics": [
            "0xddf252ad1be2c89b69c2b068fc378daa952ba7f163c4a11628f55a4df523b3ef",
            "0x0000000000000000000000000000000000000000000000000000000000000000",
            "0x000000000000000000000000c77f7fed3b5cc8249adc428c5f44c9063b9734b4"
          ],
          "data": "0x000000000000000000000000000000000000000000000035534c712dcf9df77d",
          "blockHash": "0x76bfccf4eb177678d21d2a3190d29dcc1a219c082779e205cd561eb38a910fde",
          "blockNumber": "0x7259f2",
          "transactionHash": "0xbffe762fba5fb8269a462c9101cff336cde1da601e3edb2ce226d813ab8bbe56",
          "transactionIndex": "0x7d",
          "logIndex": "0xa8",
          "removed": false
        },
        {
          "address": "0xbf4a322f1496e5c3d34a9bcdb4c60567b38c7de2",
          "topics": [
            "0xddf252ad1be2c89b69c2b068fc378daa952ba7f163c4a11628f55a4df523b3ef",
            "0x0000000000000000000000000000000000000000000000000000000000000000",
            "0x000000000000000000000000c77f7fed3b5cc8249adc428c5f44c9063b9734b4"
          ],
          "data": "0x0000000000000000000000000000000000000000000000002968b2f2373859cd",
          "blockHash": "0x76bfccf4eb177678d21d2a3190d29dcc1a219c082779e205cd561eb38a910fde",
          "blockNumber": "0x7259f2",
          "transactionHash": "0xbffe762fba5fb8269a462c9101cff336cde1da601e3edb2ce226d813ab8bbe56",
          "transactionIndex": "0x7d",
          "logIndex": "0xa9",
          "removed": false
        },
        {
          "address": "0xbf4a322f1496e5c3d34a9bcdb4c60567b38c7de2",
          "topics": [
            "0x4afcb4a87cdbd9974efdb92ee48bc8d7cd0ae4bf217004db3d080cbaee652ca7"
          ],
          "data": "0x00000000000000000000000000000000000000000000000000000000678729a800000000000000000000000000000000000000000000000000039358f03a39f50000000000000000000000000000000000000000000000000de0b6b3a7640000",
          "blockHash": "0x76bfccf4eb177678d21d2a3190d29dcc1a219c082779e205cd561eb38a910fde",
          "blockNumber": "0x7259f2",
          "transactionHash": "0xbffe762fba5fb8269a462c9101cff336cde1da601e3edb2ce226d813ab8bbe56",
          "transactionIndex": "0x7d",
          "logIndex": "0xaa",
          "removed": false
        }
      ],
      "logsBloom": "0x00000000000000000000000000000000000000000000000000000000000000000000000000000000000000000000000000000000000000004000000000000000000000000000000000000008000000000000001000000000000000000000000000000000020000000000000000000800020000000000000000000010000000000000000000000000000000000000000000000000000008000000010000000000000000000000000000000000000000004000000000000000000000000000000000000002000000800000000000001000000000000000080000000000000020000000000000000000000000000000000000000000000000000000000000000000",
      "type": "0x2",
      "transactionHash": "0xbffe762fba5fb8269a462c9101cff336cde1da601e3edb2ce226d813ab8bbe56",
      "transactionIndex": "0x7d",
      "blockHash": "0x76bfccf4eb177678d21d2a3190d29dcc1a219c082779e205cd561eb38a910fde",
      "blockNumber": "0x7259f2",
      "gasUsed": "0x13af6",
      "effectiveGasPrice": "0x70bcd25c1",
      "from": "0xc77f7fed3b5cc8249adc428c5f44c9063b9734b4",
      "to": "0xbf4a322f1496e5c3d34a9bcdb4c60567b38c7de2",
      "contractAddress": null
    }
  ],
  "libraries": [],
  "pending": [],
  "returns": {},
  "timestamp": 1736911273,
  "chain": 11155111,
  "commit": "51a374b"
}