{
  "transactions": [
    {
      "hash": "0xc09c66e780610e145536ab0144285a71953d82b89149ace33514484f0bb13787",
      "transactionType": "CALL",
      "contractName": null,
      "contractAddress": "0x270e88f8683660553e8ba4eb2ad7c91a1710d769",
      "function": "sell(uint256)",
      "arguments": [
        "972666081409734903212"
      ],
      "transaction": {
        "from": "0xc77f7fed3b5cc8249adc428c5f44c9063b9734b4",
        "to": "0x270e88f8683660553e8ba4eb2ad7c91a1710d769",
        "gas": "0x16fec",
        "value": "0x0",
        "input": "0xe4849b32000000000000000000000000000000000000000000000034ba7417a2ea6d85ac",
        "nonce": "0x557",
        "chainId": "0xaa36a7"
      },
      "additionalContracts": [],
      "isFixedGasLimit": false
    }
  ],
  "receipts": [
    {
      "status": "0x1",
      "cumulativeGasUsed": "0x1461d6d",
      "logs": [
        {
          "address": "0x270e88f8683660553e8ba4eb2ad7c91a1710d769",
          "topics": [
            "0xddf252ad1be2c89b69c2b068fc378daa952ba7f163c4a11628f55a4df523b3ef",
            "0x000000000000000000000000c77f7fed3b5cc8249adc428c5f44c9063b9734b4",
            "0x0000000000000000000000000000000000000000000000000000000000000000"
          ],
          "data": "0x000000000000000000000000000000000000000000000034ba7417a2ea6d85ac",
          "blockHash": "0xd43899d85f17cccd2275c1833abc5d8ed0bd08cfaaa8a3c0987e55b11c325a0c",
          "blockNumber": "0x7251fa",
          "transactionHash": "0xc09c66e780610e145536ab0144285a71953d82b89149ace33514484f0bb13787",
          "transactionIndex": "0x4e",
          "logIndex": "0x93",
          "removed": false
        },
        {
          "address": "0x270e88f8683660553e8ba4eb2ad7c91a1710d769",
          "topics": [
            "0x4afcb4a87cdbd9974efdb92ee48bc8d7cd0ae4bf217004db3d080cbaee652ca7"
          ],
          "data": "0x000000000000000000000000000000000000000000000000000000006786c9a80000000000000000000000000000000000000000000000000003a0cda88446bb0000000000000000000000000000000000000000000000000dc8407cca9db402",
          "blockHash": "0xd43899d85f17cccd2275c1833abc5d8ed0bd08cfaaa8a3c0987e55b11c325a0c",
          "blockNumber": "0x7251fa",
          "transactionHash": "0xc09c66e780610e145536ab0144285a71953d82b89149ace33514484f0bb13787",
          "transactionIndex": "0x4e",
          "logIndex": "0x94",
          "removed": false
        }
      ],
      "logsBloom": "0x00000000000000000000000000000000000000000000000000000000000000000000000000000000000000000000000020000000000000004000000000000000000000000000000000000008000000000000000000000000000000000000000000000000020000000000000000000800020000000000000000000010000000000000000000010000000000000000000000000000000000000000010000000000000000000000000000000000000000004000000000000000000000000000000000000002000000800000000000000000000000000000080000008000000020000000000000000000000000000000000000000000000000000000000000000000",
      "type": "0x2",
      "transactionHash": "0xc09c66e780610e145536ab0144285a71953d82b89149ace33514484f0bb13787",
      "transactionIndex": "0x4e",
      "blockHash": "0xd43899d85f17cccd2275c1833abc5d8ed0bd08cfaaa8a3c0987e55b11c325a0c",
      "blockNumber": "0x7251fa",
      "gasUsed": "0xfb93",
      "effectiveGasPrice": "0x41a42fa7d",
      "from": "0xc77f7fed3b5cc8249adc428c5f44c9063b9734b4",
      "to": "0x270e88f8683660553e8ba4eb2ad7c91a1710d769",
      "contractAddress": null
    }
  ],
  "libraries": [],
  "pending": [],
  "returns": {},
  "timestamp": 1736886697,
  "chain": 11155111,
  "commit": "51a374b"
}