{
  "transactions": [
    {
      "hash": "0x7deacccf5fd2d9c6df24dae73870cdac4b07068b55be0dfd0e5129cec2dba1d7",
      "transactionType": "CALL",
      "contractName": null,
      "contractAddress": "0xbf4a322f1496e5c3d34a9bcdb4c60567b38c7de2",
      "function": "buy(address)",
      "arguments": [
        "0xC77f7fed3b5Cc8249aDc428c5F44C9063B9734b4"
      ],
      "transaction": {
        "from": "0xc77f7fed3b5cc8249adc428c5f44c9063b9734b4",
        "to": "0xbf4a322f1496e5c3d34a9bcdb4c60567b38c7de2",
        "gas": "0x1b309",
        "value": "0xde0b6b3a7640000",
        "input": "0xf088d547000000000000000000000000c77f7fed3b5cc8249adc428c5f44c9063b9734b4",
        "nonce": "0x8cd",
        "chainId": "0xaa36a7"
      },
      "additionalContracts": [],
      "isFixedGasLimit": false
    }
  ],
  "receipts": [
    {
      "status": "0x1",
      "cumulativeGasUsed": "0x149e72f",
      "logs": [
        {
          "address": "0xbf4a322f1496e5c3d34a9bcdb4c60567b38c7de2",
          "topics": [
            "0xddf252ad1be2c89b69c2b068fc378daa952ba7f163c4a11628f55a4df523b3ef",
            "0x0000000000000000000000000000000000000000000000000000000000000000",
            "0x000000000000000000000000c77f7fed3b5cc8249adc428c5f44c9063b9734b4"
          ],
          "data": "0x000000000000000000000000000000000000000000000035a9acb55f41f2eb4e",
          "blockHash": "0x7ba6a1793b999ece26cb98bd9b11a1e578f81ea75a7189eac0526ca1d5d47493",
          "blockNumber": "0x725839",
          "transactionHash": "0x7deacccf5fd2d9c6df24dae73870cdac4b07068b55be0dfd0e5129cec2dba1d7",
          "transactionIndex": "0x86",
          "logIndex": "0xd8",
          "removed": false
        },
        {
          "address": "0xbf4a322f1496e5c3d34a9bcdb4c60567b38c7de2",
          "topics": [
            "0xddf252ad1be2c89b69c2b068fc378daa952ba7f163c4a11628f55a4df523b3ef",
            "0x0000000000000000000000000000000000000000000000000000000000000000",
            "0x000000000000000000000000c77f7fed3b5cc8249adc428c5f44c9063b9734b4"
          ],
          "data": "0x00000000000000000000000000000000000000000000000029abc5e0101288f6",
          "blockHash": "0x7ba6a1793b999ece26cb98bd9b11a1e578f81ea75a7189eac0526ca1d5d47493",
          "blockNumber": "0x725839",
          "transactionHash": "0x7deacccf5fd2d9c6df24dae73870cdac4b07068b55be0dfd0e5129cec2dba1d7",
          "transactionIndex": "0x86",
          "logIndex": "0xd9",
          "removed": false
        },
        {
          "address": "0xbf4a322f1496e5c3d34a9bcdb4c60567b38c7de2",
          "topics": [
            "0x4afcb4a87cdbd9974efdb92ee48bc8d7cd0ae4bf217004db3d080cbaee652ca7"
          ],
          "data": "0x00000000000000000000000000000000000000000000000000000000678714cc00000000000000000000000000000000000000000000000000038d97fc3942700000000000000000000000000000000000000000000000000de0b6b3a7640000",
          "blockHash": "0x7ba6a1793b999ece26cb98bd9b11a1e578f81ea75a7189eac0526ca1d5d47493",
          "blockNumber": "0x725839",
          "transactionHash": "0x7deacccf5fd2d9c6df24dae73870cdac4b07068b55be0dfd0e5129cec2dba1d7",
          "transactionIndex": "0x86",
          "logIndex": "0xda",
          "removed": false
        }
      ],
      "logsBloom": "0x00000000000000000000000000000000000000000000000000000000000000000000000000000000000000000000000000000000000000004000000000000000000000000000000000000008000000000000001000000000000000000000000000000000020000000000000000000800020000000000000000000010000000000000000000000000000000000000000000000000000008000000010000000000000000000000000000000000000000004000000000000000000000000000000000000002000000800000000000001000000000000000080000000000000020000000000000000000000000000000000000000000000000000000000000000000",
      "type": "0x2",
      "transactionHash": "0x7deacccf5fd2d9c6df24dae73870cdac4b07068b55be0dfd0e5129cec2dba1d7",
      "transactionIndex": "0x86",
      "blockHash": "0x7ba6a1793b999ece26cb98bd9b11a1e578f81ea75a7189eac0526ca1d5d47493",
      "blockNumber": "0x725839",
      "gasUsed": "0x13af6",
      "effectiveGasPrice": "0x24a5f6d4",
      "from": "0xc77f7fed3b5cc8249adc428c5f44c9063b9734b4",
      "to": "0xbf4a322f1496e5c3d34a9bcdb4c60567b38c7de2",
      "contractAddress": null
    }
  ],
  "libraries": [],
  "pending": [],
  "returns": {},
  "timestamp": 1736905933,
  "chain": 11155111,
  "commit": "51a374b"
}