{
  "transactions": [
    {
      "hash": "0xaf20ba50d07daa4caef358ae34f77e7bee875f19e3882ff868e6f66d350317db",
      "transactionType": "CALL",
      "contractName": null,
      "contractAddress": "0xbf4a322f1496e5c3d34a9bcdb4c60567b38c7de2",
      "function": "buy(address)",
      "arguments": [
        "0xC77f7fed3b5Cc8249aDc428c5F44C9063B9734b4"
      ],
      "transaction": {
        "from": "0xc77f7fed3b5cc8249adc428c5f44c9063b9734b4",
        "to": "0xbf4a322f1496e5c3d34a9bcdb4c60567b38c7de2",
        "gas": "0x1b309",
        "value": "0xde0b6b3a7640000",
        "input": "0xf088d547000000000000000000000000c77f7fed3b5cc8249adc428c5f44c9063b9734b4",
        "nonce": "0xbcc",
        "chainId": "0xaa36a7"
      },
      "additionalContracts": [],
      "isFixedGasLimit": false
    }
  ],
  "receipts": [
    {
      "status": "0x1",
      "cumulativeGasUsed": "0x219e951",
      "logs": [
        {
          "address": "0xbf4a322f1496e5c3d34a9bcdb4c60567b38c7de2",
          "topics": [
            "0xddf252ad1be2c89b69c2b068fc378daa952ba7f163c4a11628f55a4df523b3ef",
            "0x0000000000000000000000000000000000000000000000000000000000000000",
            "0x000000000000000000000000c77f7fed3b5cc8249adc428c5f44c9063b9734b4"
          ],
          "data": "0x000000000000000000000000000000000000000000000035050a25f995f1c3e8",
          "blockHash": "0xd71dd17021252f3b9c16a6e5eb0c32b7d2c9aaa6da9a6b4703cddc43b997630e",
          "blockNumber": "0x725bec",
          "transactionHash": "0xaf20ba50d07daa4caef358ae34f77e7bee875f19e3882ff868e6f66d350317db",
          "transactionIndex": "0xef",
          "logIndex": "0x167",
          "removed": false
        },
        {
          "address": "0xbf4a322f1496e5c3d34a9bcdb4c60567b38c7de2",
          "topics": [
            "0xddf252ad1be2c89b69c2b068fc378daa952ba7f163c4a11628f55a4df523b3ef",
            "0x0000000000000000000000000000000000000000000000000000000000000000",
            "0x000000000000000000000000c77f7fed3b5cc8249adc428c5f44c9063b9734b4"
          ],
          "data": "0x000000000000000000000000000000000000000000000000292beda238c8dc9a",
          "blockHash": "0xd71dd17021252f3b9c16a6e5eb0c32b7d2c9aaa6da9a6b4703cddc43b997630e",
          "blockNumber": "0x725bec",
          "transactionHash": "0xaf20ba50d07daa4caef358ae34f77e7bee875f19e3882ff868e6f66d350317db",
          "transactionIndex": "0xef",
          "logIndex": "0x168",
          "removed": false
        },
        {
          "address": "0xbf4a322f1496e5c3d34a9bcdb4c60567b38c7de2",
          "topics": [
            "0x4afcb4a87cdbd9974efdb92ee48bc8d7cd0ae4bf217004db3d080cbaee652ca7"
          ],
          "data": "0x000000000000000000000000000000000000000000000000000000006787416c000000000000000000000000000000000000000000000000000398a002b8873e0000000000000000000000000000000000000000000000000de0b6b3a7640000",
          "blockHash": "0xd71dd17021252f3b9c16a6e5eb0c32b7d2c9aaa6da9a6b4703cddc43b997630e",
          "blockNumber": "0x725bec",
          "transactionHash": "0xaf20ba50d07daa4caef358ae34f77e7bee875f19e3882ff868e6f66d350317db",
          "transactionIndex": "0xef",
          "logIndex": "0x169",
          "removed": false
        }
      ],
      "logsBloom": "0x00000000000000000000000000000000000000000000000000000000000000000000000000000000000000000000000000000000000000004000000000000000000000000000000000000008000000000000001000000000000000000000000000000000020000000000000000000800020000000000000000000010000000000000000000000000000000000000000000000000000008000000010000000000000000000000000000000000000000004000000000000000000000000000000000000002000000800000000000001000000000000000080000000000000020000000000000000000000000000000000000000000000000000000000000000000",
      "type": "0x2",
      "transactionHash": "0xaf20ba50d07daa4caef358ae34f77e7bee875f19e3882ff868e6f66d350317db",
      "transactionIndex": "0xef",
      "blockHash": "0xd71dd17021252f3b9c16a6e5eb0c32b7d2c9aaa6da9a6b4703cddc43b997630e",
      "blockNumber": "0x725bec",
      "gasUsed": "0x13af6",
      "effectiveGasPrice": "0x745f61b2",
      "from": "0xc77f7fed3b5cc8249adc428c5f44c9063b9734b4",
      "to": "0xbf4a322f1496e5c3d34a9bcdb4c60567b38c7de2",
      "contractAddress": null
    }
  ],
  "libraries": [],
  "pending": [],
  "returns": {},
  "timestamp": 1736917357,
  "chain": 11155111,
  "commit": "51a374b"
}