{
  "transactions": [
    {
      "hash": "0x1843ced0141623c52f0f703570e03a8a1e2cac1955e3edecadb7de4b33e91e21",
      "transactionType": "CALL",
      "contractName": null,
      "contractAddress": "0x8aafd3ede9adb0ff97c7aebce82a919afb1c8764",
      "function": "sell(uint256)",
      "arguments": [
        "2781514027086"
      ],
      "transaction": {
        "from": "0xc77f7fed3b5cc8249adc428c5f44c9063b9734b4",
        "to": "0x8aafd3ede9adb0ff97c7aebce82a919afb1c8764",
        "gas": "0x15daa",
        "value": "0x0",
        "input": "0xe4849b32000000000000000000000000000000000000000000000000000002879f27d04e",
        "nonce": "0x1211",
        "chainId": "0xaa36a7"
      },
      "additionalContracts": [],
      "isFixedGasLimit": false
    }
  ],
  "receipts": [
    {
      "status": "0x1",
      "cumulativeGasUsed": "0x219619a",
      "logs": [
        {
          "address": "0x8aafd3ede9adb0ff97c7aebce82a919afb1c8764",
          "topics": [
            "0xddf252ad1be2c89b69c2b068fc378daa952ba7f163c4a11628f55a4df523b3ef",
            "0x000000000000000000000000c77f7fed3b5cc8249adc428c5f44c9063b9734b4",
            "0x0000000000000000000000000000000000000000000000000000000000000000"
          ],
          "data": "0x0000000000000000000000000000000000000000000000000000028270d386f6",
          "blockHash": "0x8cfe99e58b78e30cb58c42f98a2a2b8f3cc3e52bad0175fa29bf5ecdfb7afbf3",
          "blockNumber": "0x7318ec",
          "transactionHash": "0x1843ced0141623c52f0f703570e03a8a1e2cac1955e3edecadb7de4b33e91e21",
          "transactionIndex": "0x61",
          "logIndex": "0x10fc",
          "removed": false
        },
        {
          "address": "0x8aafd3ede9adb0ff97c7aebce82a919afb1c8764",
          "topics": [
            "0xddf252ad1be2c89b69c2b068fc378daa952ba7f163c4a11628f55a4df523b3ef",
            "0x000000000000000000000000c77f7fed3b5cc8249adc428c5f44c9063b9734b4",
            "0x000000000000000000000000c77f7fed3b5cc8249adc428c5f44c9063b9734b4"
          ],
          "data": "0x000000000000000000000000000000000000000000000000000000052e544958",
          "blockHash": "0x8cfe99e58b78e30cb58c42f98a2a2b8f3cc3e52bad0175fa29bf5ecdfb7afbf3",
          "blockNumber": "0x7318ec",
          "transactionHash": "0x1843ced0141623c52f0f703570e03a8a1e2cac1955e3edecadb7de4b33e91e21",
          "transactionIndex": "0x61",
          "logIndex": "0x10fd",
          "removed": false
        },
        {
          "address": "0x8aafd3ede9adb0ff97c7aebce82a919afb1c8764",
          "topics": [
            "0x4afcb4a87cdbd9974efdb92ee48bc8d7cd0ae4bf217004db3d080cbaee652ca7"
          ],
          "data": "0x00000000000000000000000000000000000000000000000000000000679027e00000000000000000000000000000000000000000000000000005336292f6ffdc00000000000000000000000000000000000000000000000000000000f2b27f3e",
          "blockHash": "0x8cfe99e58b78e30cb58c42f98a2a2b8f3cc3e52bad0175fa29bf5ecdfb7afbf3",
          "blockNumber": "0x7318ec",
          "transactionHash": "0x1843ced0141623c52f0f703570e03a8a1e2cac1955e3edecadb7de4b33e91e21",
          "transactionIndex": "0x61",
          "logIndex": "0x10fe",
          "removed": false
        }
      ],
      "logsBloom": "0x00000000000000000000000000000000000000000600000000000000000000000000000000000000000000000000000000000000000000004000000000000000000000000000004000000008000000000000000000000000000000000000000000000000020000000000000000000800020000000000000000000010000000000000000000000000000000000000000000000000000000000000010000000000000000000000000000000000000000004000000000000000000000000000000000000002000000800000000000000000000000000000080000000000000020000000000000000000000000000000000000000000000000000000000000000000",
      "type": "0x2",
      "transactionHash": "0x1843ced0141623c52f0f703570e03a8a1e2cac1955e3edecadb7de4b33e91e21",
      "transactionIndex": "0x61",
      "blockHash": "0x8cfe99e58b78e30cb58c42f98a2a2b8f3cc3e52bad0175fa29bf5ecdfb7afbf3",
      "blockNumber": "0x7318ec",
      "gasUsed": "0xfd27",
      "effectiveGasPrice": "0x3c9ee05b",
      "from": "0xc77f7fed3b5cc8249adc428c5f44c9063b9734b4",
      "to": "0x8aafd3ede9adb0ff97c7aebce82a919afb1c8764",
      "contractAddress": null
    }
  ],
  "libraries": [],
  "pending": [],
  "returns": {},
  "timestamp": 1737500641,
  "chain": 11155111,
  "commit": "1d2fb70"
}