{
  "transactions": [
    {
      "hash": "0xd5617bd33426d5b1c299defb23ad30c20daf87cb982a917f62d358e68981ead2",
      "transactionType": "CALL",
      "contractName": null,
      "contractAddress": "0xbf4a322f1496e5c3d34a9bcdb4c60567b38c7de2",
      "function": "sell(uint256)",
      "arguments": [
        "984788990532065200007"
      ],
      "transaction": {
        "from": "0xc77f7fed3b5cc8249adc428c5f44c9063b9734b4",
        "to": "0xbf4a322f1496e5c3d34a9bcdb4c60567b38c7de2",
        "gas": "0x16fea",
        "value": "0x0",
        "input": "0xe4849b3200000000000000000000000000000000000000000000003562b15140d3448787",
        "nonce": "0xab5",
        "chainId": "0xaa36a7"
      },
      "additionalContracts": [],
      "isFixedGasLimit": false
    }
  ],
  "receipts": [
    {
      "status": "0x1",
      "cumulativeGasUsed": "0x1645357",
      "logs": [
        {
          "address": "0xbf4a322f1496e5c3d34a9bcdb4c60567b38c7de2",
          "topics": [
            "0xddf252ad1be2c89b69c2b068fc378daa952ba7f163c4a11628f55a4df523b3ef",
            "0x000000000000000000000000c77f7fed3b5cc8249adc428c5f44c9063b9734b4",
            "0x0000000000000000000000000000000000000000000000000000000000000000"
          ],
          "data": "0x00000000000000000000000000000000000000000000003562b15140d3448787",
          "blockHash": "0x4a74fbbe40e4226cb0687f3c81f9c4cf2ea69b3e1cf0b9a60b90b3bd3de459dd",
          "blockNumber": "0x725aa0",
          "transactionHash": "0xd5617bd33426d5b1c299defb23ad30c20daf87cb982a917f62d358e68981ead2",
          "transactionIndex": "0xbb",
          "logIndex": "0xf0",
          "removed": false
        },
        {
          "address": "0xbf4a322f1496e5c3d34a9bcdb4c60567b38c7de2",
          "topics": [
            "0x4afcb4a87cdbd9974efdb92ee48bc8d7cd0ae4bf217004db3d080cbaee652ca7"
          ],
          "data": "0x00000000000000000000000000000000000000000000000000000000678731d00000000000000000000000000000000000000000000000000003951b1f35a0d30000000000000000000000000000000000000000000000000dc7e3ed33678e2e",
          "blockHash": "0x4a74fbbe40e4226cb0687f3c81f9c4cf2ea69b3e1cf0b9a60b90b3bd3de459dd",
          "blockNumber": "0x725aa0",
          "transactionHash": "0xd5617bd33426d5b1c299defb23ad30c20daf87cb982a917f62d358e68981ead2",
          "transactionIndex": "0xbb",
          "logIndex": "0xf1",
          "removed": false
        }
      ],
      "logsBloom": "0x00000000000000000000000000000000000000000000000000000000000000000000000000000000000000000000000000000000000000004000000000000000000000000000000000000008000000000000001000000000000000000000000000000000020000000000000000000800020000000000000000000010000000000000000000000000000000000000000000000000000008000000010000000000000000000000000000000000000000004000000000000000000000000000000000000002000000800000000000001000000000000000080000000000000020000000000000000000000000000000000000000000000000000000000000000000",
      "type": "0x2",
      "transactionHash": "0xd5617bd33426d5b1c299defb23ad30c20daf87cb982a917f62d358e68981ead2",
      "transactionIndex": "0xbb",
      "blockHash": "0x4a74fbbe40e4226cb0687f3c81f9c4cf2ea69b3e1cf0b9a60b90b3bd3de459dd",
      "blockNumber": "0x725aa0",
      "gasUsed": "0xfb91",
      "effectiveGasPrice": "0x14b8c1f2b",
      "from": "0xc77f7fed3b5cc8249adc428c5f44c9063b9734b4",
      "to": "0xbf4a322f1496e5c3d34a9bcdb4c60567b38c7de2",
      "contractAddress": null
    }
  ],
  "libraries": [],
  "pending": [],
  "returns": {},
  "timestamp": 1736913361,
  "chain": 11155111,
  "commit": "51a374b"
}