{
  "transactions": [
    {
      "hash": "0x1bf98e04c4491992a9a46535e43a1d6e3ddc9d15779927b3e3cd7bf69bbb231d",
      "transactionType": "CALL",
      "contractName": null,
      "contractAddress": "0x270e88f8683660553e8ba4eb2ad7c91a1710d769",
      "function": "buy(address)",
      "arguments": [
        "0xC77f7fed3b5Cc8249aDc428c5F44C9063B9734b4"
      ],
      "transaction": {
        "from": "0xc77f7fed3b5cc8249adc428c5f44c9063b9734b4",
        "to": "0x270e88f8683660553e8ba4eb2ad7c91a1710d769",
        "gas": "0x1b30c",
        "value": "0xde0b6b3a7640000",
        "input": "0xf088d547000000000000000000000000c77f7fed3b5cc8249adc428c5f44c9063b9734b4",
        "nonce": "0x502",
        "chainId": "0xaa36a7"
      },
      "additionalContracts": [],
      "isFixedGasLimit": false
    }
  ],
  "receipts": [
    {
      "status": "0x1",
      "cumulativeGasUsed": "0x110959c",
      "logs": [
        {
          "address": "0x270e88f8683660553e8ba4eb2ad7c91a1710d769",
          "topics": [
            "0xddf252ad1be2c89b69c2b068fc378daa952ba7f163c4a11628f55a4df523b3ef",
            "0x0000000000000000000000000000000000000000000000000000000000000000",
            "0x000000000000000000000000c77f7fed3b5cc8249adc428c5f44c9063b9734b4"
          ],
          "data": "0x000000000000000000000000000000000000000000000035461883a398b1b7fb",
          "blockHash": "0xe160e1c6e1dd52b07b3aab1c87b5400c799a5ee477ff2d54506a129167d03943",
          "blockNumber": "0x725196",
          "transactionHash": "0x1bf98e04c4491992a9a46535e43a1d6e3ddc9d15779927b3e3cd7bf69bbb231d",
          "transactionIndex": "0x62",
          "logIndex": "0xa2",
          "removed": false
        },
        {
          "address": "0x270e88f8683660553e8ba4eb2ad7c91a1710d769",
          "topics": [
            "0xddf252ad1be2c89b69c2b068fc378daa952ba7f163c4a11628f55a4df523b3ef",
            "0x0000000000000000000000000000000000000000000000000000000000000000",
            "0x000000000000000000000000c77f7fed3b5cc8249adc428c5f44c9063b9734b4"
          ],
          "data": "0x000000000000000000000000000000000000000000000000295e72511db31e5e",
          "blockHash": "0xe160e1c6e1dd52b07b3aab1c87b5400c799a5ee477ff2d54506a129167d03943",
          "blockNumber": "0x725196",
          "transactionHash": "0x1bf98e04c4491992a9a46535e43a1d6e3ddc9d15779927b3e3cd7bf69bbb231d",
          "transactionIndex": "0x62",
          "logIndex": "0xa3",
          "removed": false
        },
        {
          "address": "0x270e88f8683660553e8ba4eb2ad7c91a1710d769",
          "topics": [
            "0x4afcb4a87cdbd9974efdb92ee48bc8d7cd0ae4bf217004db3d080cbaee652ca7"
          ],
          "data": "0x000000000000000000000000000000000000000000000000000000006786c4ec000000000000000000000000000000000000000000000000000394542be011da0000000000000000000000000000000000000000000000000de0b6b3a7640000",
          "blockHash": "0xe160e1c6e1dd52b07b3aab1c87b5400c799a5ee477ff2d54506a129167d03943",
          "blockNumber": "0x725196",
          "transactionHash": "0x1bf98e04c4491992a9a46535e43a1d6e3ddc9d15779927b3e3cd7bf69bbb231d",
          "transactionIndex": "0x62",
          "logIndex": "0xa4",
          "removed": false
        }
      ],
      "logsBloom": "0x00000000000000000000000000000000000000000000000000000000000000000000000000000000000000000000000020000000000000004000000000000000000000000000000000000008000000000000000000000000000000000000000000000000020000000000000000000800020000000000000000000010000000000000000000010000000000000000000000000000000000000000010000000000000000000000000000000000000000004000000000000000000000000000000000000002000000800000000000000000000000000000080000008000000020000000000000000000000000000000000000000000000000000000000000000000",
      "type": "0x2",
      "transactionHash": "0x1bf98e04c4491992a9a46535e43a1d6e3ddc9d15779927b3e3cd7bf69bbb231d",
      "transactionIndex": "0x62",
      "blockHash": "0xe160e1c6e1dd52b07b3aab1c87b5400c799a5ee477ff2d54506a129167d03943",
      "blockNumber": "0x725196",
      "gasUsed": "0x13af8",
      "effectiveGasPrice": "0x4aa3d1fbd",
      "from": "0xc77f7fed3b5cc8249adc428c5f44c9063b9734b4",
      "to": "0x270e88f8683660553e8ba4eb2ad7c91a1710d769",
      "contractAddress": null
    }
  ],
  "libraries": [],
  "pending": [],
  "returns": {},
  "timestamp": 1736885485,
  "chain": 11155111,
  "commit": "51a374b"
}