{
  "transactions": [
    {
      "hash": "0x5b3fca7ece08a38ccf3716e494faf3132fa2a9f0129a95d267effe9d54b18b92",
      "transactionType": "CALL",
      "contractName": null,
      "contractAddress": "0x8aafd3ede9adb0ff97c7aebce82a919afb1c8764",
      "function": "sell(uint256)",
      "arguments": [
        "94158106489059"
      ],
      "transaction": {
        "from": "0xc77f7fed3b5cc8249adc428c5f44c9063b9734b4",
        "to": "0x8aafd3ede9adb0ff97c7aebce82a919afb1c8764",
        "gas": "0x15daa",
        "value": "0x0",
        "input": "0xe4849b32000000000000000000000000000000000000000000000000000055a2e47d70e3",
        "nonce": "0x15bf",
        "chainId": "0xaa36a7"
      },
      "additionalContracts": [],
      "isFixedGasLimit": false
    }
  ],
  "receipts": [
    {
      "status": "0x1",
      "cumulativeGasUsed": "0x1097315",
      "logs": [
        {
          "address": "0x8aafd3ede9adb0ff97c7aebce82a919afb1c8764",
          "topics": [
            "0xddf252ad1be2c89b69c2b068fc378daa952ba7f163c4a11628f55a4df523b3ef",
            "0x000000000000000000000000c77f7fed3b5cc8249adc428c5f44c9063b9734b4",
            "0x0000000000000000000000000000000000000000000000000000000000000000"
          ],
          "data": "0x000000000000000000000000000000000000000000000000000054f38267f51b",
          "blockHash": "0x6b00b6cea3c3ab3f9736e5691c092954af73d0289fe091c26ff38c3818ffc9bc",
          "blockNumber": "0x731d39",
          "transactionHash": "0x5b3fca7ece08a38ccf3716e494faf3132fa2a9f0129a95d267effe9d54b18b92",
          "transactionIndex": "0x5f",
          "logIndex": "0xaa",
          "removed": false
        },
        {
          "address": "0x8aafd3ede9adb0ff97c7aebce82a919afb1c8764",
          "topics": [
            "0xddf252ad1be2c89b69c2b068fc378daa952ba7f163c4a11628f55a4df523b3ef",
            "0x000000000000000000000000c77f7fed3b5cc8249adc428c5f44c9063b9734b4",
            "0x000000000000000000000000c77f7fed3b5cc8249adc428c5f44c9063b9734b4"
          ],
          "data": "0x000000000000000000000000000000000000000000000000000000af62157bc8",
          "blockHash": "0x6b00b6cea3c3ab3f9736e5691c092954af73d0289fe091c26ff38c3818ffc9bc",
          "blockNumber": "0x731d39",
          "transactionHash": "0x5b3fca7ece08a38ccf3716e494faf3132fa2a9f0129a95d267effe9d54b18b92",
          "transactionIndex": "0x5f",
          "logIndex": "0xab",
          "removed": false
        },
        {
          "address": "0x8aafd3ede9adb0ff97c7aebce82a919afb1c8764",
          "topics": [
            "0x4afcb4a87cdbd9974efdb92ee48bc8d7cd0ae4bf217004db3d080cbaee652ca7"
          ],
          "data": "0x0000000000000000000000000000000000000000000000000000000067905b94000000000000000000000000000000000000000000000000001349a165741f9a0000000000000000000000000000000000000000000000000000007704dc963a",
          "blockHash": "0x6b00b6cea3c3ab3f9736e5691c092954af73d0289fe091c26ff38c3818ffc9bc",
          "blockNumber": "0x731d39",
          "transactionHash": "0x5b3fca7ece08a38ccf3716e494faf3132fa2a9f0129a95d267effe9d54b18b92",
          "transactionIndex": "0x5f",
          "logIndex": "0xac",
          "removed": false
        }
      ],
      "logsBloom": "0x00000000000000000000000000000000000000000600000000000000000000000000000000000000000000000000000000000000000000004000000000000000000000000000004000000008000000000000000000000000000000000000000000000000020000000000000000000800020000000000000000000010000000000000000000000000000000000000000000000000000000000000010000000000000000000000000000000000000000004000000000000000000000000000000000000002000000800000000000000000000000000000080000000000000020000000000000000000000000000000000000000000000000000000000000000000",
      "type": "0x2",
      "transactionHash": "0x5b3fca7ece08a38ccf3716e494faf3132fa2a9f0129a95d267effe9d54b18b92",
      "transactionIndex": "0x5f",
      "blockHash": "0x6b00b6cea3c3ab3f9736e5691c092954af73d0289fe091c26ff38c3818ffc9bc",
      "blockNumber": "0x731d39",
      "gasUsed": "0xfd27",
      "effectiveGasPrice": "0x4971fcf7",
      "from": "0xc77f7fed3b5cc8249adc428c5f44c9063b9734b4",
      "to": "0x8aafd3ede9adb0ff97c7aebce82a919afb1c8764",
      "contractAddress": null
    }
  ],
  "libraries": [],
  "pending": [],
  "returns": {},
  "timestamp": 1737513876,
  "chain": 11155111,
  "commit": "1d2fb70"
}