{
  "transactions": [
    {
      "hash": "0x7e928550e73c50912fc56a558e3a79e40bcf9e45b4237a9f90d09e9b51edb31b",
      "transactionType": "CALL",
      "contractName": null,
      "contractAddress": "0xbf4a322f1496e5c3d34a9bcdb4c60567b38c7de2",
      "function": "sell(uint256)",
      "arguments": [
        "980496314482186681601"
      ],
      "transaction": {
        "from": "0xc77f7fed3b5cc8249adc428c5f44c9063b9734b4",
        "to": "0xbf4a322f1496e5c3d34a9bcdb4c60567b38c7de2",
        "gas": "0x16fea",
        "value": "0x0",
        "input": "0xe4849b32000000000000000000000000000000000000000000000035271eab21226e7d01",
        "nonce": "0xbf3",
        "chainId": "0xaa36a7"
      },
      "additionalContracts": [],
      "isFixedGasLimit": false
    }
  ],
  "receipts": [
    {
      "status": "0x1",
      "cumulativeGasUsed": "0x10c865f",
      "logs": [
        {
          "address": "0xbf4a322f1496e5c3d34a9bcdb4c60567b38c7de2",
          "topics": [
            "0xddf252ad1be2c89b69c2b068fc378daa952ba7f163c4a11628f55a4df523b3ef",
            "0x000000000000000000000000c77f7fed3b5cc8249adc428c5f44c9063b9734b4",
            "0x0000000000000000000000000000000000000000000000000000000000000000"
          ],
          "data": "0x000000000000000000000000000000000000000000000035271eab21226e7d01",
          "blockHash": "0xd8c1549db40ce2d8d66f1ea581da5265e90de5dd17db597e6d7f48f7bf11b35d",
          "blockNumber": "0x725c1a",
          "transactionHash": "0x7e928550e73c50912fc56a558e3a79e40bcf9e45b4237a9f90d09e9b51edb31b",
          "transactionIndex": "0x54",
          "logIndex": "0xa9",
          "removed": false
        },
        {
          "address": "0xbf4a322f1496e5c3d34a9bcdb4c60567b38c7de2",
          "topics": [
            "0x4afcb4a87cdbd9974efdb92ee48bc8d7cd0ae4bf217004db3d080cbaee652ca7"
          ],
          "data": "0x00000000000000000000000000000000000000000000000000000000678743940000000000000000000000000000000000000000000000000003991ef8c496920000000000000000000000000000000000000000000000000dc7e3e338635b74",
          "blockHash": "0xd8c1549db40ce2d8d66f1ea581da5265e90de5dd17db597e6d7f48f7bf11b35d",
          "blockNumber": "0x725c1a",
          "transactionHash": "0x7e928550e73c50912fc56a558e3a79e40bcf9e45b4237a9f90d09e9b51edb31b",
          "transactionIndex": "0x54",
          "logIndex": "0xaa",
          "removed": false
        }
      ],
      "logsBloom": "0x00000000000000000000000000000000000000000000000000000000000000000000000000000000000000000000000000000000000000004000000000000000000000000000000000000008000000000000001000000000000000000000000000000000020000000000000000000800020000000000000000000010000000000000000000000000000000000000000000000000000008000000010000000000000000000000000000000000000000004000000000000000000000000000000000000002000000800000000000001000000000000000080000000000000020000000000000000000000000000000000000000000000000000000000000000000",
      "type": "0x2",
      "transactionHash": "0x7e928550e73c50912fc56a558e3a79e40bcf9e45b4237a9f90d09e9b51edb31b",
      "transactionIndex": "0x54",
      "blockHash": "0xd8c1549db40ce2d8d66f1ea581da5265e90de5dd17db597e6d7f48f7bf11b35d",
      "blockNumber": "0x725c1a",
      "gasUsed": "0xfb91",
      "effectiveGasPrice": "0xd5ca06dc",
      "from": "0xc77f7fed3b5cc8249adc428c5f44c9063b9734b4",
      "to": "0xbf4a322f1496e5c3d34a9bcdb4c60567b38c7de2",
      "contractAddress": null
    }
  ],
  "libraries": [],
  "pending": [],
  "returns": {},
  "timestamp": 1736917910,
  "chain": 11155111,
  "commit": "51a374b"
}