{
  "transactions": [
    {
      "hash": "0x4f074fb59e4f8a48804a28d96ccfa43ece162e139920c7139dfcecfdb4f5429e",
      "transactionType": "CALL",
      "contractName": null,
      "contractAddress": "0x8cb944409af8543dcb0c461c9b0e9edd9c590692",
      "function": "borrowMore(uint256)",
      "arguments": [
        "7049552379981451"
      ],
      "transaction": {
        "from": "0xf66076775ad1f36dd12c1f1b10c21d1aadf0d6de",
        "to": "0x8cb944409af8543dcb0c461c9b0e9edd9c590692",
        "gas": "0x1db10",
        "value": "0x0",
        "input": "0x9d0bf2e900000000000000000000000000000000000000000000000000190b87d16f2e8b",
        "nonce": "0x43",
        "chainId": "0xaa36a7"
      },
      "additionalContracts": [],
      "isFixedGasLimit": false
    }
  ],
  "receipts": [
    {
      "status": "0x1",
      "cumulativeGasUsed": "0x1b03fa2",
      "logs": [
        {
          "address": "0x8cb944409af8543dcb0c461c9b0e9edd9c590692",
          "topics": [
            "0x03bbe564cb1b78e43195eeadbde99e5b89b19345862807fcfb59f884e4165e25"
          ],
          "data": "0x00000000000000000000000038818e389773445cd73adbaa37b8b169f458c6e1000000000000000000000000000000000000000000000000000001ec67d1d34a",
          "blockHash": "0xa68ca5952eb65d3b05ee504bf9494d7cc414420a47e0dad9206ea6b2562915df",
          "blockNumber": "0x73d05f",
          "transactionHash": "0x4f074fb59e4f8a48804a28d96ccfa43ece162e139920c7139dfcecfdb4f5429e",
          "transactionIndex": "0x7a",
          "logIndex": "0xae",
          "removed": false
        },
        {
          "address": "0x8cb944409af8543dcb0c461c9b0e9edd9c590692",
          "topics": [
            "0x03bbe564cb1b78e43195eeadbde99e5b89b19345862807fcfb59f884e4165e25"
          ],
          "data": "0x000000000000000000000000f66076775ad1f36dd12c1f1b10c21d1aadf0d6de0000000000000000000000000000000000000000000000000019051e775e6e3e",
          "blockHash": "0xa68ca5952eb65d3b05ee504bf9494d7cc414420a47e0dad9206ea6b2562915df",
          "blockNumber": "0x73d05f",
          "transactionHash": "0x4f074fb59e4f8a48804a28d96ccfa43ece162e139920c7139dfcecfdb4f5429e",
          "transactionIndex": "0x7a",
          "logIndex": "0xaf",
          "removed": false
        },
        {
          "address": "0x8cb944409af8543dcb0c461c9b0e9edd9c590692",
          "topics": [
            "0xaec00f5213a37254bc68a26b0685d1a5b2bf513e1e587c94c7df7f4a62b56c9c"
          ],
          "data": "0x0000000000000000000000000000000000000000000000055de6a779bbad81f90000000000000000000000000000000000000000000000000178e8607b09b6020000000000000000000000000000000000000000000000000f0f0db1c13ce602000000000000000000000000000000000000000000000036e468f2094bb49980",
          "blockHash": "0xa68ca5952eb65d3b05ee504bf9494d7cc414420a47e0dad9206ea6b2562915df",
          "blockNumber": "0x73d05f",
          "transactionHash": "0x4f074fb59e4f8a48804a28d96ccfa43ece162e139920c7139dfcecfdb4f5429e",
          "transactionIndex": "0x7a",
          "logIndex": "0xb0",
          "removed": false
        },
        {
          "address": "0x8cb944409af8543dcb0c461c9b0e9edd9c590692",
          "topics": [
            "0x4afcb4a87cdbd9974efdb92ee48bc8d7cd0ae4bf217004db3d080cbaee652ca7"
          ],
          "data": "0x00000000000000000000000000000000000000000000000000000000679907dc0000000000000000000000000000000000000000000000000003d87aad48a958000000000000000000000000000000000000000000000000000006695a10c04d",
          "blockHash": "0xa68ca5952eb65d3b05ee504bf9494d7cc414420a47e0dad9206ea6b2562915df",
          "blockNumber": "0x73d05f",
          "transactionHash": "0x4f074fb59e4f8a48804a28d96ccfa43ece162e139920c7139dfcecfdb4f5429e",
          "transactionIndex": "0x7a",
          "logIndex": "0xb1",
          "removed": false
        }
      ],
      "logsBloom": "0x00000000000000000000000000000100400000000000000000000000000000000008000000000000000000000000000000002000000000004000000000010000000000000000000000000000000000000000000000000000000000000000000000000000000000000000000000000000020000000000000008000000000000000000000000000000000000000000000000000000000000000000000000000000000000000000000000000400000000004000000000000000000000001000000000000000000000000000000000000000000000000000000000000000000000000000000000000000000000000000000000000000000400000000000000000000",
      "type": "0x2",
      "transactionHash": "0x4f074fb59e4f8a48804a28d96ccfa43ece162e139920c7139dfcecfdb4f5429e",
      "transactionIndex": "0x7a",
      "blockHash": "0xa68ca5952eb65d3b05ee504bf9494d7cc414420a47e0dad9206ea6b2562915df",
      "blockNumber": "0x73d05f",
      "gasUsed": "0x157f0",
      "effectiveGasPrice": "0x593e72fa",
      "from": "0xf66076775ad1f36dd12c1f1b10c21d1aadf0d6de",
      "to": "0x8cb944409af8543dcb0c461c9b0e9edd9c590692",
      "contractAddress": null
    }
  ],
  "libraries": [],
  "pending": [],
  "returns": {},
  "timestamp": 1738082269,
  "chain": 11155111,
  "commit": "f5162e9"
}