{
  "transactions": [
    {
      "hash": "0xd58c9dcaba36a3cc3836acfb8b6c3a13f430d9052e284c993ef02c4e3cfca15c",
      "transactionType": "CALL",
      "contractName": null,
      "contractAddress": "0x270e88f8683660553e8ba4eb2ad7c91a1710d769",
      "function": "sell(uint256)",
      "arguments": [
        "974815996722653586507"
      ],
      "transaction": {
        "from": "0xc77f7fed3b5cc8249adc428c5f44c9063b9734b4",
        "to": "0x270e88f8683660553e8ba4eb2ad7c91a1710d769",
        "gas": "0x16fec",
        "value": "0x0",
        "input": "0xe4849b32000000000000000000000000000000000000000000000034d84a2039061e644b",
        "nonce": "0x549",
        "chainId": "0xaa36a7"
      },
      "additionalContracts": [],
      "isFixedGasLimit": false
    }
  ],
  "receipts": [
    {
      "status": "0x1",
      "cumulativeGasUsed": "0x10540b",
      "logs": [
        {
          "address": "0x270e88f8683660553e8ba4eb2ad7c91a1710d769",
          "topics": [
            "0xddf252ad1be2c89b69c2b068fc378daa952ba7f163c4a11628f55a4df523b3ef",
            "0x000000000000000000000000c77f7fed3b5cc8249adc428c5f44c9063b9734b4",
            "0x0000000000000000000000000000000000000000000000000000000000000000"
          ],
          "data": "0x000000000000000000000000000000000000000000000034d84a2039061e644b",
          "blockHash": "0xa0db01a78d30bd1c7f30b80685fee1ea6d9ea76746f414781566aa9e0fcd05fa",
          "blockNumber": "0x7251e7",
          "transactionHash": "0xd58c9dcaba36a3cc3836acfb8b6c3a13f430d9052e284c993ef02c4e3cfca15c",
          "transactionIndex": "0xb",
          "logIndex": "0xa",
          "removed": false
        },
        {
          "address": "0x270e88f8683660553e8ba4eb2ad7c91a1710d769",
          "topics": [
            "0x4afcb4a87cdbd9974efdb92ee48bc8d7cd0ae4bf217004db3d080cbaee652ca7"
          ],
          "data": "0x000000000000000000000000000000000000000000000000000000006786c8c400000000000000000000000000000000000000000000000000039ec16c3c40ab0000000000000000000000000000000000000000000000000dc840b550f48915",
          "blockHash": "0xa0db01a78d30bd1c7f30b80685fee1ea6d9ea76746f414781566aa9e0fcd05fa",
          "blockNumber": "0x7251e7",
          "transactionHash": "0xd58c9dcaba36a3cc3836acfb8b6c3a13f430d9052e284c993ef02c4e3cfca15c",
          "transactionIndex": "0xb",
          "logIndex": "0xb",
          "removed": false
        }
      ],
      "logsBloom": "0x00000000000000000000000000000000000000000000000000000000000000000000000000000000000000000000000020000000000000004000000000000000000000000000000000000008000000000000000000000000000000000000000000000000020000000000000000000800020000000000000000000010000000000000000000010000000000000000000000000000000000000000010000000000000000000000000000000000000000004000000000000000000000000000000000000002000000800000000000000000000000000000080000008000000020000000000000000000000000000000000000000000000000000000000000000000",
      "type": "0x2",
      "transactionHash": "0xd58c9dcaba36a3cc3836acfb8b6c3a13f430d9052e284c993ef02c4e3cfca15c",
      "transactionIndex": "0xb",
      "blockHash": "0xa0db01a78d30bd1c7f30b80685fee1ea6d9ea76746f414781566aa9e0fcd05fa",
      "blockNumber": "0x7251e7",
      "gasUsed": "0xfb93",
      "effectiveGasPrice": "0x41797a9b1",
      "from": "0xc77f7fed3b5cc8249adc428c5f44c9063b9734b4",
      "to": "0x270e88f8683660553e8ba4eb2ad7c91a1710d769",
      "contractAddress": null
    }
  ],
  "libraries": [],
  "pending": [],
  "returns": {},
  "timestamp": 1736886468,
  "chain": 11155111,
  "commit": "51a374b"
}