{
  "transactions": [
    {
      "hash": "0x16d80f804e4901fc639c5b68ce92f57e171fa51a0e1350aa6d1499a21ffab32f",
      "transactionType": "CALL",
      "contractName": null,
      "contractAddress": "0xbf4a322f1496e5c3d34a9bcdb4c60567b38c7de2",
      "function": "buy(address)",
      "arguments": [
        "0xC77f7fed3b5Cc8249aDc428c5F44C9063B9734b4"
      ],
      "transaction": {
        "from": "0xc77f7fed3b5cc8249adc428c5f44c9063b9734b4",
        "to": "0xbf4a322f1496e5c3d34a9bcdb4c60567b38c7de2",
        "gas": "0x1b309",
        "value": "0xde0b6b3a7640000",
        "input": "0xf088d547000000000000000000000000c77f7fed3b5cc8249adc428c5f44c9063b9734b4",
        "nonce": "0xa62",
        "chainId": "0xaa36a7"
      },
      "additionalContracts": [],
      "isFixedGasLimit": false
    }
  ],
  "receipts": [
    {
      "status": "0x1",
      "cumulativeGasUsed": "0x1344d16",
      "logs": [
        {
          "address": "0xbf4a322f1496e5c3d34a9bcdb4c60567b38c7de2",
          "topics": [
            "0xddf252ad1be2c89b69c2b068fc378daa952ba7f163c4a11628f55a4df523b3ef",
            "0x0000000000000000000000000000000000000000000000000000000000000000",
            "0x000000000000000000000000c77f7fed3b5cc8249adc428c5f44c9063b9734b4"
          ],
          "data": "0x00000000000000000000000000000000000000000000003548c3088e958bb55e",
          "blockHash": "0x786c1961370da45d1f71e740501239d08a26e59895068d6f529f0dcca612b47e",
          "blockNumber": "0x725a3e",
          "transactionHash": "0x16d80f804e4901fc639c5b68ce92f57e171fa51a0e1350aa6d1499a21ffab32f",
          "transactionIndex": "0x85",
          "logIndex": "0x160",
          "removed": false
        },
        {
          "address": "0xbf4a322f1496e5c3d34a9bcdb4c60567b38c7de2",
          "topics": [
            "0xddf252ad1be2c89b69c2b068fc378daa952ba7f163c4a11628f55a4df523b3ef",
            "0x0000000000000000000000000000000000000000000000000000000000000000",
            "0x000000000000000000000000c77f7fed3b5cc8249adc428c5f44c9063b9734b4"
          ],
          "data": "0x00000000000000000000000000000000000000000000000029608450f980eeb2",
          "blockHash": "0x786c1961370da45d1f71e740501239d08a26e59895068d6f529f0dcca612b47e",
          "blockNumber": "0x725a3e",
          "transactionHash": "0x16d80f804e4901fc639c5b68ce92f57e171fa51a0e1350aa6d1499a21ffab32f",
          "transactionIndex": "0x85",
          "logIndex": "0x161",
          "removed": false
        },
        {
          "address": "0xbf4a322f1496e5c3d34a9bcdb4c60567b38c7de2",
          "topics": [
            "0x4afcb4a87cdbd9974efdb92ee48bc8d7cd0ae4bf217004db3d080cbaee652ca7"
          ],
          "data": "0x0000000000000000000000000000000000000000000000000000000067872d380000000000000000000000000000000000000000000000000003940df16c21130000000000000000000000000000000000000000000000000de0b6b3a7640000",
          "blockHash": "0x786c1961370da45d1f71e740501239d08a26e59895068d6f529f0dcca612b47e",
          "blockNumber": "0x725a3e",
          "transactionHash": "0x16d80f804e4901fc639c5b68ce92f57e171fa51a0e1350aa6d1499a21ffab32f",
          "transactionIndex": "0x85",
          "logIndex": "0x162",
          "removed": false
        }
      ],
      "logsBloom": "0x00000000000000000000000000000000000000000000000000000000000000000000000000000000000000000000000000000000000000004000000000000000000000000000000000000008000000000000001000000000000000000000000000000000020000000000000000000800020000000000000000000010000000000000000000000000000000000000000000000000000008000000010000000000000000000000000000000000000000004000000000000000000000000000000000000002000000800000000000001000000000000000080000000000000020000000000000000000000000000000000000000000000000000000000000000000",
      "type": "0x2",
      "transactionHash": "0x16d80f804e4901fc639c5b68ce92f57e171fa51a0e1350aa6d1499a21ffab32f",
      "transactionIndex": "0x85",
      "blockHash": "0x786c1961370da45d1f71e740501239d08a26e59895068d6f529f0dcca612b47e",
      "blockNumber": "0x725a3e",
      "gasUsed": "0x13af6",
      "effectiveGasPrice": "0x418d50755",
      "from": "0xc77f7fed3b5cc8249adc428c5f44c9063b9734b4",
      "to": "0xbf4a322f1496e5c3d34a9bcdb4c60567b38c7de2",
      "contractAddress": null
    }
  ],
  "libraries": [],
  "pending": [],
  "returns": {},
  "timestamp": 1736912188,
  "chain": 11155111,
  "commit": "51a374b"
}