{
  "transactions": [
    {
      "hash": "0xad9b17fc269f6c8379961205d41e5d8dbe682f418303c943337c73a1fbbf93fe",
      "transactionType": "CALL",
      "contractName": null,
      "contractAddress": "0x8aafd3ede9adb0ff97c7aebce82a919afb1c8764",
      "function": "sell(uint256)",
      "arguments": [
        "1104183005529"
      ],
      "transaction": {
        "from": "0xc77f7fed3b5cc8249adc428c5f44c9063b9734b4",
        "to": "0x8aafd3ede9adb0ff97c7aebce82a919afb1c8764",
        "gas": "0x15daa",
        "value": "0x0",
        "input": "0xe4849b3200000000000000000000000000000000000000000000000000000101166f9159",
        "nonce": "0x13ad",
        "chainId": "0xaa36a7"
      },
      "additionalContracts": [],
      "isFixedGasLimit": false
    }
  ],
  "receipts": [
    {
      "status": "0x1",
      "cumulativeGasUsed": "0x13d330f",
      "logs": [
        {
          "address": "0x8aafd3ede9adb0ff97c7aebce82a919afb1c8764",
          "topics": [
            "0xddf252ad1be2c89b69c2b068fc378daa952ba7f163c4a11628f55a4df523b3ef",
            "0x000000000000000000000000c77f7fed3b5cc8249adc428c5f44c9063b9734b4",
            "0x0000000000000000000000000000000000000000000000000000000000000000"
          ],
          "data": "0x000000000000000000000000000000000000000000000000000000ff07eb9a6d",
          "blockHash": "0xf27a130d5acdd3304cdcfe521a759a24affbd054de0a4fe98ff3ef8cf2b096a5",
          "blockNumber": "0x731ad5",
          "transactionHash": "0xad9b17fc269f6c8379961205d41e5d8dbe682f418303c943337c73a1fbbf93fe",
          "transactionIndex": "0xac",
          "logIndex": "0x90",
          "removed": false
        },
        {
          "address": "0x8aafd3ede9adb0ff97c7aebce82a919afb1c8764",
          "topics": [
            "0xddf252ad1be2c89b69c2b068fc378daa952ba7f163c4a11628f55a4df523b3ef",
            "0x000000000000000000000000c77f7fed3b5cc8249adc428c5f44c9063b9734b4",
            "0x000000000000000000000000c77f7fed3b5cc8249adc428c5f44c9063b9734b4"
          ],
          "data": "0x000000000000000000000000000000000000000000000000000000020e83f6ec",
          "blockHash": "0xf27a130d5acdd3304cdcfe521a759a24affbd054de0a4fe98ff3ef8cf2b096a5",
          "blockNumber": "0x731ad5",
          "transactionHash": "0xad9b17fc269f6c8379961205d41e5d8dbe682f418303c943337c73a1fbbf93fe",
          "transactionIndex": "0xac",
          "logIndex": "0x91",
          "removed": false
        },
        {
          "address": "0x8aafd3ede9adb0ff97c7aebce82a919afb1c8764",
          "topics": [
            "0x4afcb4a87cdbd9974efdb92ee48bc8d7cd0ae4bf217004db3d080cbaee652ca7"
          ],
          "data": "0x0000000000000000000000000000000000000000000000000000000067903ecc000000000000000000000000000000000000000000000000000d3058333cc85c00000000000000000000000000000000000000000000000000000000f4532d40",
          "blockHash": "0xf27a130d5acdd3304cdcfe521a759a24affbd054de0a4fe98ff3ef8cf2b096a5",
          "blockNumber": "0x731ad5",
          "transactionHash": "0xad9b17fc269f6c8379961205d41e5d8dbe682f418303c943337c73a1fbbf93fe",
          "transactionIndex": "0xac",
          "logIndex": "0x92",
          "removed": false
        }
      ],
      "logsBloom": "0x00000000000000000000000000000000000000000600000000000000000000000000000000000000000000000000000000000000000000004000000000000000000000000000004000000008000000000000000000000000000000000000000000000000020000000000000000000800020000000000000000000010000000000000000000000000000000000000000000000000000000000000010000000000000000000000000000000000000000004000000000000000000000000000000000000002000000800000000000000000000000000000080000000000000020000000000000000000000000000000000000000000000000000000000000000000",
      "type": "0x2",
      "transactionHash": "0xad9b17fc269f6c8379961205d41e5d8dbe682f418303c943337c73a1fbbf93fe",
      "transactionIndex": "0xac",
      "blockHash": "0xf27a130d5acdd3304cdcfe521a759a24affbd054de0a4fe98ff3ef8cf2b096a5",
      "blockNumber": "0x731ad5",
      "gasUsed": "0xfd27",
      "effectiveGasPrice": "0x88a068d6",
      "from": "0xc77f7fed3b5cc8249adc428c5f44c9063b9734b4",
      "to": "0x8aafd3ede9adb0ff97c7aebce82a919afb1c8764",
      "contractAddress": null
    }
  ],
  "libraries": [],
  "pending": [],
  "returns": {},
  "timestamp": 1737506510,
  "chain": 11155111,
  "commit": "1d2fb70"
}