{
  "transactions": [
    {
      "hash": "0xd8e2c06c6a9dd1a84f02e24ba7e540f38e90ebc34511faca669953917d381371",
      "transactionType": "CALL",
      "contractName": null,
      "contractAddress": "0x8aafd3ede9adb0ff97c7aebce82a919afb1c8764",
      "function": "sell(uint256)",
      "arguments": [
        "1723256151641384911"
      ],
      "transaction": {
        "from": "0xc77f7fed3b5cc8249adc428c5f44c9063b9734b4",
        "to": "0x8aafd3ede9adb0ff97c7aebce82a919afb1c8764",
        "gas": "0x15dca",
        "value": "0x0",
        "input": "0xe4849b3200000000000000000000000000000000000000000000000017ea3c56f79767cf",
        "nonce": "0x14ca",
        "chainId": "0xaa36a7"
      },
      "additionalContracts": [],
      "isFixedGasLimit": false
    }
  ],
  "receipts": [
    {
      "status": "0x1",
      "cumulativeGasUsed": "0xd588c7",
      "logs": [
        {
          "address": "0x8aafd3ede9adb0ff97c7aebce82a919afb1c8764",
          "topics": [
            "0xddf252ad1be2c89b69c2b068fc378daa952ba7f163c4a11628f55a4df523b3ef",
            "0x000000000000000000000000c77f7fed3b5cc8249adc428c5f44c9063b9734b4",
            "0x0000000000000000000000000000000000000000000000000000000000000000"
          ],
          "data": "0x00000000000000000000000000000000000000000000000017b942004162fe88",
          "blockHash": "0xab2e5e6d1f0a45e438388e9707279740f932a608529a4015dbcf6ac5921ba501",
          "blockNumber": "0x731c28",
          "transactionHash": "0xd8e2c06c6a9dd1a84f02e24ba7e540f38e90ebc34511faca669953917d381371",
          "transactionIndex": "0x7d",
          "logIndex": "0x9d",
          "removed": false
        },
        {
          "address": "0x8aafd3ede9adb0ff97c7aebce82a919afb1c8764",
          "topics": [
            "0xddf252ad1be2c89b69c2b068fc378daa952ba7f163c4a11628f55a4df523b3ef",
            "0x000000000000000000000000c77f7fed3b5cc8249adc428c5f44c9063b9734b4",
            "0x000000000000000000000000c77f7fed3b5cc8249adc428c5f44c9063b9734b4"
          ],
          "data": "0x0000000000000000000000000000000000000000000000000030fa56b6346947",
          "blockHash": "0xab2e5e6d1f0a45e438388e9707279740f932a608529a4015dbcf6ac5921ba501",
          "blockNumber": "0x731c28",
          "transactionHash": "0xd8e2c06c6a9dd1a84f02e24ba7e540f38e90ebc34511faca669953917d381371",
          "transactionIndex": "0x7d",
          "logIndex": "0x9e",
          "removed": false
        },
        {
          "address": "0x8aafd3ede9adb0ff97c7aebce82a919afb1c8764",
          "topics": [
            "0x4afcb4a87cdbd9974efdb92ee48bc8d7cd0ae4bf217004db3d080cbaee652ca7"
          ],
          "data": "0x0000000000000000000000000000000000000000000000000000000067904ebc00000000000000000000000000000000000000000000000000107b2a18948887000000000000000000000000000000000000000000000000001c666ccef33a90",
          "blockHash": "0xab2e5e6d1f0a45e438388e9707279740f932a608529a4015dbcf6ac5921ba501",
          "blockNumber": "0x731c28",
          "transactionHash": "0xd8e2c06c6a9dd1a84f02e24ba7e540f38e90ebc34511faca669953917d381371",
          "transactionIndex": "0x7d",
          "logIndex": "0x9f",
          "removed": false
        }
      ],
      "logsBloom": "0x00000000000000000000000000000000000000000600000000000000000000000000000000000000000000000000000000000000000000004000000000000000000000000000004000000008000000000000000000000000000000000000000000000000020000000000000000000800020000000000000000000010000000000000000000000000000000000000000000000000000000000000010000000000000000000000000000000000000000004000000000000000000000000000000000000002000000800000000000000000000000000000080000000000000020000000000000000000000000000000000000000000000000000000000000000000",
      "type": "0x2",
      "transactionHash": "0xd8e2c06c6a9dd1a84f02e24ba7e540f38e90ebc34511faca669953917d381371",
      "transactionIndex": "0x7d",
      "blockHash": "0xab2e5e6d1f0a45e438388e9707279740f932a608529a4015dbcf6ac5921ba501",
      "blockNumber": "0x731c28",
      "gasUsed": "0xfd3f",
      "effectiveGasPrice": "0x112154442",
      "from": "0xc77f7fed3b5cc8249adc428c5f44c9063b9734b4",
      "to": "0x8aafd3ede9adb0ff97c7aebce82a919afb1c8764",
      "contractAddress": null
    }
  ],
  "libraries": [],
  "pending": [],
  "returns": {},
  "timestamp": 1737510589,
  "chain": 11155111,
  "commit": "1d2fb70"
}