{
  "transactions": [
    {
      "hash": "0x2c21d1e8e42ffbdaf864823251834d2524b17f16dfc34d37a4a51842fbd4b841",
      "transactionType": "CALL",
      "contractName": null,
      "contractAddress": "0x270e88f8683660553e8ba4eb2ad7c91a1710d769",
      "function": "sell(uint256)",
      "arguments": [
        "982259631585717929270"
      ],
      "transaction": {
        "from": "0xc77f7fed3b5cc8249adc428c5f44c9063b9734b4",
        "to": "0x270e88f8683660553e8ba4eb2ad7c91a1710d769",
        "gas": "0x16fec",
        "value": "0x0",
        "input": "0xe4849b320000000000000000000000000000000000000000000000353f973ab150c84536",
        "nonce": "0x519",
        "chainId": "0xaa36a7"
      },
      "additionalContracts": [],
      "isFixedGasLimit": false
    }
  ],
  "receipts": [
    {
      "status": "0x1",
      "cumulativeGasUsed": "0xd62dca",
      "logs": [
        {
          "address": "0x270e88f8683660553e8ba4eb2ad7c91a1710d769",
          "topics": [
            "0xddf252ad1be2c89b69c2b068fc378daa952ba7f163c4a11628f55a4df523b3ef",
            "0x000000000000000000000000c77f7fed3b5cc8249adc428c5f44c9063b9734b4",
            "0x0000000000000000000000000000000000000000000000000000000000000000"
          ],
          "data": "0x0000000000000000000000000000000000000000000000353f973ab150c84536",
          "blockHash": "0x7b9a9d1ad7fb0946c72897c93354bca297535a7af697f0245a1f801f261558df",
          "blockNumber": "0x7251b1",
          "transactionHash": "0x2c21d1e8e42ffbdaf864823251834d2524b17f16dfc34d37a4a51842fbd4b841",
          "transactionIndex": "0x40",
          "logIndex": "0xb1",
          "removed": false
        },
        {
          "address": "0x270e88f8683660553e8ba4eb2ad7c91a1710d769",
          "topics": [
            "0x4afcb4a87cdbd9974efdb92ee48bc8d7cd0ae4bf217004db3d080cbaee652ca7"
          ],
          "data": "0x000000000000000000000000000000000000000000000000000000006786c630000000000000000000000000000000000000000000000000000397bc17fed5fc0000000000000000000000000000000000000000000000000dc84178fd9d70f0",
          "blockHash": "0x7b9a9d1ad7fb0946c72897c93354bca297535a7af697f0245a1f801f261558df",
          "blockNumber": "0x7251b1",
          "transactionHash": "0x2c21d1e8e42ffbdaf864823251834d2524b17f16dfc34d37a4a51842fbd4b841",
          "transactionIndex": "0x40",
          "logIndex": "0xb2",
          "removed": false
        }
      ],
      "logsBloom": "0x00000000000000000000000000000000000000000000000000000000000000000000000000000000000000000000000020000000000000004000000000000000000000000000000000000008000000000000000000000000000000000000000000000000020000000000000000000800020000000000000000000010000000000000000000010000000000000000000000000000000000000000010000000000000000000000000000000000000000004000000000000000000000000000000000000002000000800000000000000000000000000000080000008000000020000000000000000000000000000000000000000000000000000000000000000000",
      "type": "0x2",
      "transactionHash": "0x2c21d1e8e42ffbdaf864823251834d2524b17f16dfc34d37a4a51842fbd4b841",
      "transactionIndex": "0x40",
      "blockHash": "0x7b9a9d1ad7fb0946c72897c93354bca297535a7af697f0245a1f801f261558df",
      "blockNumber": "0x7251b1",
      "gasUsed": "0xfb93",
      "effectiveGasPrice": "0x41647a681",
      "from": "0xc77f7fed3b5cc8249adc428c5f44c9063b9734b4",
      "to": "0x270e88f8683660553e8ba4eb2ad7c91a1710d769",
      "contractAddress": null
    }
  ],
  "libraries": [],
  "pending": [],
  "returns": {},
  "timestamp": 1736885810,
  "chain": 11155111,
  "commit": "51a374b"
}