{
  "transactions": [
    {
      "hash": "0xf7ae0d2f5797b29180f168ec6c4f420138fbeb08e2ab931f02404009d8fc7749",
      "transactionType": "CALL",
      "contractName": null,
      "contractAddress": "0x270e88f8683660553e8ba4eb2ad7c91a1710d769",
      "function": "buy(address)",
      "arguments": [
        "0xC77f7fed3b5Cc8249aDc428c5F44C9063B9734b4"
      ],
      "transaction": {
        "from": "0xc77f7fed3b5cc8249adc428c5f44c9063b9734b4",
        "to": "0x270e88f8683660553e8ba4eb2ad7c91a1710d769",
        "gas": "0x1b30c",
        "value": "0xde0b6b3a7640000",
        "input": "0xf088d547000000000000000000000000c77f7fed3b5cc8249adc428c5f44c9063b9734b4",
        "nonce": "0x68f",
        "chainId": "0xaa36a7"
      },
      "additionalContracts": [],
      "isFixedGasLimit": false
    }
  ],
  "receipts": [
    {
      "status": "0x1",
      "cumulativeGasUsed": "0x152757d",
      "logs": [
        {
          "address": "0x270e88f8683660553e8ba4eb2ad7c91a1710d769",
          "topics": [
            "0xddf252ad1be2c89b69c2b068fc378daa952ba7f163c4a11628f55a4df523b3ef",
            "0x0000000000000000000000000000000000000000000000000000000000000000",
            "0x000000000000000000000000c77f7fed3b5cc8249adc428c5f44c9063b9734b4"
          ],
          "data": "0x000000000000000000000000000000000000000000000028d54c618ba684c34b",
          "blockHash": "0xccc76d7a722ab61158511aa9bcbdcf28f1e29a2a30dc30fb92955d36cf42d6ea",
          "blockNumber": "0x725393",
          "transactionHash": "0xf7ae0d2f5797b29180f168ec6c4f420138fbeb08e2ab931f02404009d8fc7749",
          "transactionIndex": "0x62",
          "logIndex": "0x1b2",
          "removed": false
        },
        {
          "address": "0x270e88f8683660553e8ba4eb2ad7c91a1710d769",
          "topics": [
            "0xddf252ad1be2c89b69c2b068fc378daa952ba7f163c4a11628f55a4df523b3ef",
            "0x0000000000000000000000000000000000000000000000000000000000000000",
            "0x000000000000000000000000c77f7fed3b5cc8249adc428c5f44c9063b9734b4"
          ],
          "data": "0x0000000000000000000000000000000000000000000000001fb557bdcc06e500",
          "blockHash": "0xccc76d7a722ab61158511aa9bcbdcf28f1e29a2a30dc30fb92955d36cf42d6ea",
          "blockNumber": "0x725393",
          "transactionHash": "0xf7ae0d2f5797b29180f168ec6c4f420138fbeb08e2ab931f02404009d8fc7749",
          "transactionIndex": "0x62",
          "logIndex": "0x1b3",
          "removed": false
        },
        {
          "address": "0x270e88f8683660553e8ba4eb2ad7c91a1710d769",
          "topics": [
            "0x4afcb4a87cdbd9974efdb92ee48bc8d7cd0ae4bf217004db3d080cbaee652ca7"
          ],
          "data": "0x000000000000000000000000000000000000000000000000000000006786dcec0000000000000000000000000000000000000000000000000004ab7978f016e00000000000000000000000000000000000000000000000000de0b6b3a7640000",
          "blockHash": "0xccc76d7a722ab61158511aa9bcbdcf28f1e29a2a30dc30fb92955d36cf42d6ea",
          "blockNumber": "0x725393",
          "transactionHash": "0xf7ae0d2f5797b29180f168ec6c4f420138fbeb08e2ab931f02404009d8fc7749",
          "transactionIndex": "0x62",
          "logIndex": "0x1b4",
          "removed": false
        }
      ],
      "logsBloom": "0x00000000000000000000000000000000000000000000000000000000000000000000000000000000000000000000000020000000000000004000000000000000000000000000000000000008000000000000000000000000000000000000000000000000020000000000000000000800020000000000000000000010000000000000000000010000000000000000000000000000000000000000010000000000000000000000000000000000000000004000000000000000000000000000000000000002000000800000000000000000000000000000080000008000000020000000000000000000000000000000000000000000000000000000000000000000",
      "type": "0x2",
      "transactionHash": "0xf7ae0d2f5797b29180f168ec6c4f420138fbeb08e2ab931f02404009d8fc7749",
      "transactionIndex": "0x62",
      "blockHash": "0xccc76d7a722ab61158511aa9bcbdcf28f1e29a2a30dc30fb92955d36cf42d6ea",
      "blockNumber": "0x725393",
      "gasUsed": "0x13af8",
      "effectiveGasPrice": "0x1dcbd4019",
      "from": "0xc77f7fed3b5cc8249adc428c5f44c9063b9734b4",
      "to": "0x270e88f8683660553e8ba4eb2ad7c91a1710d769",
      "contractAddress": null
    }
  ],
  "libraries": [],
  "pending": [],
  "returns": {},
  "timestamp": 1736891629,
  "chain": 11155111,
  "commit": "51a374b"
}