{
  "transactions": [
    {
      "hash": "0x8eb3f7dabeb0463f2eebb1131f8e7f9ca320ad8ca9f7943e4a91569c50a857e1",
      "transactionType": "CALL",
      "contractName": null,
      "contractAddress": "0xbf4a322f1496e5c3d34a9bcdb4c60567b38c7de2",
      "function": "buy(address)",
      "arguments": [
        "0xC77f7fed3b5Cc8249aDc428c5F44C9063B9734b4"
      ],
      "transaction": {
        "from": "0xc77f7fed3b5cc8249adc428c5f44c9063b9734b4",
        "to": "0xbf4a322f1496e5c3d34a9bcdb4c60567b38c7de2",
        "gas": "0x1b309",
        "value": "0xde0b6b3a7640000",
        "input": "0xf088d547000000000000000000000000c77f7fed3b5cc8249adc428c5f44c9063b9734b4",
        "nonce": "0xdc4",
        "chainId": "0xaa36a7"
      },
      "additionalContracts": [],
      "isFixedGasLimit": false
    }
  ],
  "receipts": [
    {
      "status": "0x1",
      "cumulativeGasUsed": "0xd0dfbd",
      "logs": [
        {
          "address": "0xbf4a322f1496e5c3d34a9bcdb4c60567b38c7de2",
          "topics": [
            "0xddf252ad1be2c89b69c2b068fc378daa952ba7f163c4a11628f55a4df523b3ef",
            "0x0000000000000000000000000000000000000000000000000000000000000000",
            "0x000000000000000000000000c77f7fed3b5cc8249adc428c5f44c9063b9734b4"
          ],
          "data": "0x000000000000000000000000000000000000000000000034a7dd3f38817bf111",
          "blockHash": "0xc9626bc04b77f7cc5a08c97b7626996d2a80613e2b8a29b90c2d6bf33bfe1268",
          "blockNumber": "0x7266a0",
          "transactionHash": "0x8eb3f7dabeb0463f2eebb1131f8e7f9ca320ad8ca9f7943e4a91569c50a857e1",
          "transactionIndex": "0x49",
          "logIndex": "0x63",
          "removed": false
        },
        {
          "address": "0xbf4a322f1496e5c3d34a9bcdb4c60567b38c7de2",
          "topics": [
            "0xddf252ad1be2c89b69c2b068fc378daa952ba7f163c4a11628f55a4df523b3ef",
            "0x0000000000000000000000000000000000000000000000000000000000000000",
            "0x000000000000000000000000c77f7fed3b5cc8249adc428c5f44c9063b9734b4"
          ],
          "data": "0x00000000000000000000000000000000000000000000000028e3930ac9601572",
          "blockHash": "0xc9626bc04b77f7cc5a08c97b7626996d2a80613e2b8a29b90c2d6bf33bfe1268",
          "blockNumber": "0x7266a0",
          "transactionHash": "0x8eb3f7dabeb0463f2eebb1131f8e7f9ca320ad8ca9f7943e4a91569c50a857e1",
          "transactionIndex": "0x49",
          "logIndex": "0x64",
          "removed": false
        },
        {
          "address": "0xbf4a322f1496e5c3d34a9bcdb4c60567b38c7de2",
          "topics": [
            "0x4afcb4a87cdbd9974efdb92ee48bc8d7cd0ae4bf217004db3d080cbaee652ca7"
          ],
          "data": "0x000000000000000000000000000000000000000000000000000000006787c28400000000000000000000000000000000000000000000000000039efd0f4f11a50000000000000000000000000000000000000000000000000de0b6b3a7640000",
          "blockHash": "0xc9626bc04b77f7cc5a08c97b7626996d2a80613e2b8a29b90c2d6bf33bfe1268",
          "blockNumber": "0x7266a0",
          "transactionHash": "0x8eb3f7dabeb0463f2eebb1131f8e7f9ca320ad8ca9f7943e4a91569c50a857e1",
          "transactionIndex": "0x49",
          "logIndex": "0x65",
          "removed": false
        }
      ],
      "logsBloom": "0x00000000000000000000000000000000000000000000000000000000000000000000000000000000000000000000000000000000000000004000000000000000000000000000000000000008000000000000001000000000000000000000000000000000020000000000000000000800020000000000000000000010000000000000000000000000000000000000000000000000000008000000010000000000000000000000000000000000000000004000000000000000000000000000000000000002000000800000000000001000000000000000080000000000000020000000000000000000000000000000000000000000000000000000000000000000",
      "type": "0x2",
      "transactionHash": "0x8eb3f7dabeb0463f2eebb1131f8e7f9ca320ad8ca9f7943e4a91569c50a857e1",
      "transactionIndex": "0x49",
      "blockHash": "0xc9626bc04b77f7cc5a08c97b7626996d2a80613e2b8a29b90c2d6bf33bfe1268",
      "blockNumber": "0x7266a0",
      "gasUsed": "0x13af6",
      "effectiveGasPrice": "0xfab0d944",
      "from": "0xc77f7fed3b5cc8249adc428c5f44c9063b9734b4",
      "to": "0xbf4a322f1496e5c3d34a9bcdb4c60567b38c7de2",
      "contractAddress": null
    }
  ],
  "libraries": [],
  "pending": [],
  "returns": {},
  "timestamp": 1736950406,
  "chain": 11155111,
  "commit": "51a374b"
}