{
  "transactions": [
    {
      "hash": "0x60f6f272bcbecbbe49b144eb84ae264a13be409606cc5ca711c4ba65dc3a06cc",
      "transactionType": "CALL",
      "contractName": null,
      "contractAddress": "0x8aafd3ede9adb0ff97c7aebce82a919afb1c8764",
      "function": "sell(uint256)",
      "arguments": [
        "363574285660191"
      ],
      "transaction": {
        "from": "0xc77f7fed3b5cc8249adc428c5f44c9063b9734b4",
        "to": "0x8aafd3ede9adb0ff97c7aebce82a919afb1c8764",
        "gas": "0x1724d",
        "value": "0x0",
        "input": "0xe4849b3200000000000000000000000000000000000000000000000000014aab3c25701f",
        "nonce": "0x1080",
        "chainId": "0xaa36a7"
      },
      "additionalContracts": [],
      "isFixedGasLimit": false
    }
  ],
  "receipts": [
    {
      "status": "0x1",
      "cumulativeGasUsed": "0xb8e0dd",
      "logs": [
        {
          "address": "0x8aafd3ede9adb0ff97c7aebce82a919afb1c8764",
          "topics": [
            "0xddf252ad1be2c89b69c2b068fc378daa952ba7f163c4a11628f55a4df523b3ef",
            "0x000000000000000000000000c77f7fed3b5cc8249adc428c5f44c9063b9734b4",
            "0x0000000000000000000000000000000000000000000000000000000000000000"
          ],
          "data": "0x00000000000000000000000000000000000000000000000000014806066ac53e",
          "blockHash": "0x918008b207819bf16f9d12924fb2ea02569f1ad6346f5e782b45cfd6440b69a1",
          "blockNumber": "0x73170a",
          "transactionHash": "0x60f6f272bcbecbbe49b144eb84ae264a13be409606cc5ca711c4ba65dc3a06cc",
          "transactionIndex": "0x85",
          "logIndex": "0xdd",
          "removed": false
        },
        {
          "address": "0x8aafd3ede9adb0ff97c7aebce82a919afb1c8764",
          "topics": [
            "0xddf252ad1be2c89b69c2b068fc378daa952ba7f163c4a11628f55a4df523b3ef",
            "0x000000000000000000000000c77f7fed3b5cc8249adc428c5f44c9063b9734b4",
            "0x000000000000000000000000c77f7fed3b5cc8249adc428c5f44c9063b9734b4"
          ],
          "data": "0x000000000000000000000000000000000000000000000000000002a535baaae1",
          "blockHash": "0x918008b207819bf16f9d12924fb2ea02569f1ad6346f5e782b45cfd6440b69a1",
          "blockNumber": "0x73170a",
          "transactionHash": "0x60f6f272bcbecbbe49b144eb84ae264a13be409606cc5ca711c4ba65dc3a06cc",
          "transactionIndex": "0x85",
          "logIndex": "0xde",
          "removed": false
        },
        {
          "address": "0x8aafd3ede9adb0ff97c7aebce82a919afb1c8764",
          "topics": [
            "0x4afcb4a87cdbd9974efdb92ee48bc8d7cd0ae4bf217004db3d080cbaee652ca7"
          ],
          "data": "0x00000000000000000000000000000000000000000000000000000000679011300000000000000000000000000000000000000000000000000004f9471c970c610000000000000000000000000000000000000000000000000000007682a65f36",
          "blockHash": "0x918008b207819bf16f9d12924fb2ea02569f1ad6346f5e782b45cfd6440b69a1",
          "blockNumber": "0x73170a",
          "transactionHash": "0x60f6f272bcbecbbe49b144eb84ae264a13be409606cc5ca711c4ba65dc3a06cc",
          "transactionIndex": "0x85",
          "logIndex": "0xdf",
          "removed": false
        }
      ],
      "logsBloom": "0x00000000000000000000000000000000000000000600000000000000000000000000000000000000000000000000000000000000000000004000000000000000000000000000004000000008000000000000000000000000000000000000000000000000020000000000000000000800020000000000000000000010000000000000000000000000000000000000000000000000000000000000010000000000000000000000000000000000000000004000000000000000000000000000000000000002000000800000000000000000000000000000080000000000000020000000000000000000000000000000000000000000000000000000000000000000",
      "type": "0x2",
      "transactionHash": "0x60f6f272bcbecbbe49b144eb84ae264a13be409606cc5ca711c4ba65dc3a06cc",
      "transactionIndex": "0x85",
      "blockHash": "0x918008b207819bf16f9d12924fb2ea02569f1ad6346f5e782b45cfd6440b69a1",
      "blockNumber": "0x73170a",
      "gasUsed": "0xfd33",
      "effectiveGasPrice": "0x4338b448",
      "from": "0xc77f7fed3b5cc8249adc428c5f44c9063b9734b4",
      "to": "0x8aafd3ede9adb0ff97c7aebce82a919afb1c8764",
      "contractAddress": null
    }
  ],
  "libraries": [],
  "pending": [],
  "returns": {},
  "timestamp": 1737494834,
  "chain": 11155111,
  "commit": "1d2fb70"
}