{
  "transactions": [
    {
      "hash": "0x49890b8d13a4f37fd44d334153414198f256c1bdf02b0b6e0637083a82fb9e13",
      "transactionType": "CALL",
      "contractName": null,
      "contractAddress": "0xbf4a322f1496e5c3d34a9bcdb4c60567b38c7de2",
      "function": "sell(uint256)",
      "arguments": [
        "975974487416604110253"
      ],
      "transaction": {
        "from": "0xc77f7fed3b5cc8249adc428c5f44c9063b9734b4",
        "to": "0xbf4a322f1496e5c3d34a9bcdb4c60567b38c7de2",
        "gas": "0x16fea",
        "value": "0x0",
        "input": "0xe4849b32000000000000000000000000000000000000000000000034e85de95ef6a2adad",
        "nonce": "0xd45",
        "chainId": "0xaa36a7"
      },
      "additionalContracts": [],
      "isFixedGasLimit": false
    }
  ],
  "receipts": [
    {
      "status": "0x1",
      "cumulativeGasUsed": "0xd1c087",
      "logs": [
        {
          "address": "0xbf4a322f1496e5c3d34a9bcdb4c60567b38c7de2",
          "topics": [
            "0xddf252ad1be2c89b69c2b068fc378daa952ba7f163c4a11628f55a4df523b3ef",
            "0x000000000000000000000000c77f7fed3b5cc8249adc428c5f44c9063b9734b4",
            "0x0000000000000000000000000000000000000000000000000000000000000000"
          ],
          "data": "0x000000000000000000000000000000000000000000000034e85de95ef6a2adad",
          "blockHash": "0xa31c1382b29f6f66e8dc07385d39285addc50196c1fb69f4825fd078111121fe",
          "blockNumber": "0x725dac",
          "transactionHash": "0x49890b8d13a4f37fd44d334153414198f256c1bdf02b0b6e0637083a82fb9e13",
          "transactionIndex": "0x60",
          "logIndex": "0xba",
          "removed": false
        },
        {
          "address": "0xbf4a322f1496e5c3d34a9bcdb4c60567b38c7de2",
          "topics": [
            "0x4afcb4a87cdbd9974efdb92ee48bc8d7cd0ae4bf217004db3d080cbaee652ca7"
          ],
          "data": "0x000000000000000000000000000000000000000000000000000000006787568400000000000000000000000000000000000000000000000000039d6377fb558f0000000000000000000000000000000000000000000000000dc7e3d8b4f24031",
          "blockHash": "0xa31c1382b29f6f66e8dc07385d39285addc50196c1fb69f4825fd078111121fe",
          "blockNumber": "0x725dac",
          "transactionHash": "0x49890b8d13a4f37fd44d334153414198f256c1bdf02b0b6e0637083a82fb9e13",
          "transactionIndex": "0x60",
          "logIndex": "0xbb",
          "removed": false
        }
      ],
      "logsBloom": "0x00000000000000000000000000000000000000000000000000000000000000000000000000000000000000000000000000000000000000004000000000000000000000000000000000000008000000000000001000000000000000000000000000000000020000000000000000000800020000000000000000000010000000000000000000000000000000000000000000000000000008000000010000000000000000000000000000000000000000004000000000000000000000000000000000000002000000800000000000001000000000000000080000000000000020000000000000000000000000000000000000000000000000000000000000000000",
      "type": "0x2",
      "transactionHash": "0x49890b8d13a4f37fd44d334153414198f256c1bdf02b0b6e0637083a82fb9e13",
      "transactionIndex": "0x60",
      "blockHash": "0xa31c1382b29f6f66e8dc07385d39285addc50196c1fb69f4825fd078111121fe",
      "blockNumber": "0x725dac",
      "gasUsed": "0xfb91",
      "effectiveGasPrice": "0x52252c711",
      "from": "0xc77f7fed3b5cc8249adc428c5f44c9063b9734b4",
      "to": "0xbf4a322f1496e5c3d34a9bcdb4c60567b38c7de2",
      "contractAddress": null
    }
  ],
  "libraries": [],
  "pending": [],
  "returns": {},
  "timestamp": 1736922756,
  "chain": 11155111,
  "commit": "51a374b"
}