{
  "transactions": [
    {
      "hash": "0x249598cdbbf415d54f2662beabdb72a31c44028b09ac72d15445b0710d340987",
      "transactionType": "CALL",
      "contractName": null,
      "contractAddress": "0x270e88f8683660553e8ba4eb2ad7c91a1710d769",
      "function": "sell(uint256)",
      "arguments": [
        "749281741784057239539"
      ],
      "transaction": {
        "from": "0xc77f7fed3b5cc8249adc428c5f44c9063b9734b4",
        "to": "0x270e88f8683660553e8ba4eb2ad7c91a1710d769",
        "gas": "0x16fec",
        "value": "0x0",
        "input": "0xe4849b320000000000000000000000000000000000000000000000289e5f7e49acb1d7f3",
        "nonce": "0x6d4",
        "chainId": "0xaa36a7"
      },
      "additionalContracts": [],
      "isFixedGasLimit": false
    }
  ],
  "receipts": [
    {
      "status": "0x1",
      "cumulativeGasUsed": "0x9e9546",
      "logs": [
        {
          "address": "0x270e88f8683660553e8ba4eb2ad7c91a1710d769",
          "topics": [
            "0xddf252ad1be2c89b69c2b068fc378daa952ba7f163c4a11628f55a4df523b3ef",
            "0x000000000000000000000000c77f7fed3b5cc8249adc428c5f44c9063b9734b4",
            "0x0000000000000000000000000000000000000000000000000000000000000000"
          ],
          "data": "0x0000000000000000000000000000000000000000000000289e5f7e49acb1d7f3",
          "blockHash": "0x47785bbdef59ab5428a1f0cd4ca23701088a933461c337a0ea5702008e3144ff",
          "blockNumber": "0x7253e5",
          "transactionHash": "0x249598cdbbf415d54f2662beabdb72a31c44028b09ac72d15445b0710d340987",
          "transactionIndex": "0x4d",
          "logIndex": "0x95",
          "removed": false
        },
        {
          "address": "0x270e88f8683660553e8ba4eb2ad7c91a1710d769",
          "topics": [
            "0x4afcb4a87cdbd9974efdb92ee48bc8d7cd0ae4bf217004db3d080cbaee652ca7"
          ],
          "data": "0x000000000000000000000000000000000000000000000000000000006786e0c40000000000000000000000000000000000000000000000000004b59f329bf10a0000000000000000000000000000000000000000000000000dc82975d9b43114",
          "blockHash": "0x47785bbdef59ab5428a1f0cd4ca23701088a933461c337a0ea5702008e3144ff",
          "blockNumber": "0x7253e5",
          "transactionHash": "0x249598cdbbf415d54f2662beabdb72a31c44028b09ac72d15445b0710d340987",
          "transactionIndex": "0x4d",
          "logIndex": "0x96",
          "removed": false
        }
      ],
      "logsBloom": "0x00000000000000000000000000000000000000000000000000000000000000000000000000000000000000000000000020000000000000004000000000000000000000000000000000000008000000000000000000000000000000000000000000000000020000000000000000000800020000000000000000000010000000000000000000010000000000000000000000000000000000000000010000000000000000000000000000000000000000004000000000000000000000000000000000000002000000800000000000000000000000000000080000008000000020000000000000000000000000000000000000000000000000000000000000000000",
      "type": "0x2",
      "transactionHash": "0x249598cdbbf415d54f2662beabdb72a31c44028b09ac72d15445b0710d340987",
      "transactionIndex": "0x4d",
      "blockHash": "0x47785bbdef59ab5428a1f0cd4ca23701088a933461c337a0ea5702008e3144ff",
      "blockNumber": "0x7253e5",
      "gasUsed": "0xfb93",
      "effectiveGasPrice": "0x14486ebb5",
      "from": "0xc77f7fed3b5cc8249adc428c5f44c9063b9734b4",
      "to": "0x270e88f8683660553e8ba4eb2ad7c91a1710d769",
      "contractAddress": null
    }
  ],
  "libraries": [],
  "pending": [],
  "returns": {},
  "timestamp": 1736892615,
  "chain": 11155111,
  "commit": "51a374b"
}