{
  "transactions": [
    {
      "hash": "0xee16bf2ef66ccd6c3dfa20cc97faaaa77418aa7bcd1720cef037add6462480b1",
      "transactionType": "CALL",
      "contractName": null,
      "contractAddress": "0xbf4a322f1496e5c3d34a9bcdb4c60567b38c7de2",
      "function": "buy(address)",
      "arguments": [
        "0xC77f7fed3b5Cc8249aDc428c5F44C9063B9734b4"
      ],
      "transaction": {
        "from": "0xc77f7fed3b5cc8249adc428c5f44c9063b9734b4",
        "to": "0xbf4a322f1496e5c3d34a9bcdb4c60567b38c7de2",
        "gas": "0x1b309",
        "value": "0xde0b6b3a7640000",
        "input": "0xf088d547000000000000000000000000c77f7fed3b5cc8249adc428c5f44c9063b9734b4",
        "nonce": "0xc9c",
        "chainId": "0xaa36a7"
      },
      "additionalContracts": [],
      "isFixedGasLimit": false
    }
  ],
  "receipts": [
    {
      "status": "0x1",
      "cumulativeGasUsed": "0x6268ec",
      "logs": [
        {
          "address": "0xbf4a322f1496e5c3d34a9bcdb4c60567b38c7de2",
          "topics": [
            "0xddf252ad1be2c89b69c2b068fc378daa952ba7f163c4a11628f55a4df523b3ef",
            "0x0000000000000000000000000000000000000000000000000000000000000000",
            "0x000000000000000000000000c77f7fed3b5cc8249adc428c5f44c9063b9734b4"
          ],
          "data": "0x000000000000000000000000000000000000000000000034de6e414aaae2f0ee",
          "blockHash": "0x203b2b95dc76faf36de328d97f7ca8fc6b00ab95faf191d0b4b33793fd19d235",
          "blockNumber": "0x725ce5",
          "transactionHash": "0xee16bf2ef66ccd6c3dfa20cc97faaaa77418aa7bcd1720cef037add6462480b1",
          "transactionIndex": "0x42",
          "logIndex": "0x4b",
          "removed": false
        },
        {
          "address": "0xbf4a322f1496e5c3d34a9bcdb4c60567b38c7de2",
          "topics": [
            "0xddf252ad1be2c89b69c2b068fc378daa952ba7f163c4a11628f55a4df523b3ef",
            "0x0000000000000000000000000000000000000000000000000000000000000000",
            "0x000000000000000000000000c77f7fed3b5cc8249adc428c5f44c9063b9734b4"
          ],
          "data": "0x000000000000000000000000000000000000000000000000290df27411e1b465",
          "blockHash": "0x203b2b95dc76faf36de328d97f7ca8fc6b00ab95faf191d0b4b33793fd19d235",
          "blockNumber": "0x725ce5",
          "transactionHash": "0xee16bf2ef66ccd6c3dfa20cc97faaaa77418aa7bcd1720cef037add6462480b1",
          "transactionIndex": "0x42",
          "logIndex": "0x4c",
          "removed": false
        },
        {
          "address": "0xbf4a322f1496e5c3d34a9bcdb4c60567b38c7de2",
          "topics": [
            "0x4afcb4a87cdbd9974efdb92ee48bc8d7cd0ae4bf217004db3d080cbaee652ca7"
          ],
          "data": "0x0000000000000000000000000000000000000000000000000000000067874d3000000000000000000000000000000000000000000000000000039b4050e2bb250000000000000000000000000000000000000000000000000de0b6b3a7640000",
          "blockHash": "0x203b2b95dc76faf36de328d97f7ca8fc6b00ab95faf191d0b4b33793fd19d235",
          "blockNumber": "0x725ce5",
          "transactionHash": "0xee16bf2ef66ccd6c3dfa20cc97faaaa77418aa7bcd1720cef037add6462480b1",
          "transactionIndex": "0x42",
          "logIndex": "0x4d",
          "removed": false
        }
      ],
      "logsBloom": "0x00000000000000000000000000000000000000000000000000000000000000000000000000000000000000000000000000000000000000004000000000000000000000000000000000000008000000000000001000000000000000000000000000000000020000000000000000000800020000000000000000000010000000000000000000000000000000000000000000000000000008000000010000000000000000000000000000000000000000004000000000000000000000000000000000000002000000800000000000001000000000000000080000000000000020000000000000000000000000000000000000000000000000000000000000000000",
      "type": "0x2",
      "transactionHash": "0xee16bf2ef66ccd6c3dfa20cc97faaaa77418aa7bcd1720cef037add6462480b1",
      "transactionIndex": "0x42",
      "blockHash": "0x203b2b95dc76faf36de328d97f7ca8fc6b00ab95faf191d0b4b33793fd19d235",
      "blockNumber": "0x725ce5",
      "gasUsed": "0x13af6",
      "effectiveGasPrice": "0x2a92cf527",
      "from": "0xc77f7fed3b5cc8249adc428c5f44c9063b9734b4",
      "to": "0xbf4a322f1496e5c3d34a9bcdb4c60567b38c7de2",
      "contractAddress": null
    }
  ],
  "libraries": [],
  "pending": [],
  "returns": {},
  "timestamp": 1736920369,
  "chain": 11155111,
  "commit": "51a374b"
}