{
  "transactions": [
    {
      "hash": "0xe960782ae7abdebe33051582139a7a817519778b5b99cba21c75719e2cd4a8fb",
      "transactionType": "CALL",
      "contractName": null,
      "contractAddress": "0x8aafd3ede9adb0ff97c7aebce82a919afb1c8764",
      "function": "sell(uint256)",
      "arguments": [
        "38520991"
      ],
      "transaction": {
        "from": "0xc77f7fed3b5cc8249adc428c5f44c9063b9734b4",
        "to": "0x8aafd3ede9adb0ff97c7aebce82a919afb1c8764",
        "gas": "0x15d88",
        "value": "0x0",
        "input": "0xe4849b3200000000000000000000000000000000000000000000000000000000024bc89f",
        "nonce": "0x1760",
        "chainId": "0xaa36a7"
      },
      "additionalContracts": [],
      "isFixedGasLimit": false
    }
  ],
  "receipts": [
    {
      "status": "0x1",
      "cumulativeGasUsed": "0xbb9973",
      "logs": [
        {
          "address": "0x8aafd3ede9adb0ff97c7aebce82a919afb1c8764",
          "topics": [
            "0xddf252ad1be2c89b69c2b068fc378daa952ba7f163c4a11628f55a4df523b3ef",
            "0x000000000000000000000000c77f7fed3b5cc8249adc428c5f44c9063b9734b4",
            "0x0000000000000000000000000000000000000000000000000000000000000000"
          ],
          "data": "0x00000000000000000000000000000000000000000000000000000000024714d8",
          "blockHash": "0xf8bd06de5d36fcbe5daf9dd156ade6d852ce277f933909fa023f8e1f8fb4773a",
          "blockNumber": "0x731f35",
          "transactionHash": "0xe960782ae7abdebe33051582139a7a817519778b5b99cba21c75719e2cd4a8fb",
          "transactionIndex": "0x62",
          "logIndex": "0xbf",
          "removed": false
        },
        {
          "address": "0x8aafd3ede9adb0ff97c7aebce82a919afb1c8764",
          "topics": [
            "0xddf252ad1be2c89b69c2b068fc378daa952ba7f163c4a11628f55a4df523b3ef",
            "0x000000000000000000000000c77f7fed3b5cc8249adc428c5f44c9063b9734b4",
            "0x000000000000000000000000c77f7fed3b5cc8249adc428c5f44c9063b9734b4"
          ],
          "data": "0x000000000000000000000000000000000000000000000000000000000004b3c7",
          "blockHash": "0xf8bd06de5d36fcbe5daf9dd156ade6d852ce277f933909fa023f8e1f8fb4773a",
          "blockNumber": "0x731f35",
          "transactionHash": "0xe960782ae7abdebe33051582139a7a817519778b5b99cba21c75719e2cd4a8fb",
          "transactionIndex": "0x62",
          "logIndex": "0xc0",
          "removed": false
        },
        {
          "address": "0x8aafd3ede9adb0ff97c7aebce82a919afb1c8764",
          "topics": [
            "0x4afcb4a87cdbd9974efdb92ee48bc8d7cd0ae4bf217004db3d080cbaee652ca7"
          ],
          "data": "0x000000000000000000000000000000000000000000000000000000006790736400000000000000000000000000000000000000000000000000181cfd3788f0d5000000000000000000000000000000000000000000000000000000000003fd4c",
          "blockHash": "0xf8bd06de5d36fcbe5daf9dd156ade6d852ce277f933909fa023f8e1f8fb4773a",
          "blockNumber": "0x731f35",
          "transactionHash": "0xe960782ae7abdebe33051582139a7a817519778b5b99cba21c75719e2cd4a8fb",
          "transactionIndex": "0x62",
          "logIndex": "0xc1",
          "removed": false
        }
      ],
      "logsBloom": "0x00000000000000000000000000000000000000000600000000000000000000000000000000000000000000000000000000000000000000004000000000000000000000000000004000000008000000000000000000000000000000000000000000000000020000000000000000000800020000000000000000000010000000000000000000000000000000000000000000000000000000000000010000000000000000000000000000000000000000004000000000000000000000000000000000000002000000800000000000000000000000000000080000000000000020000000000000000000000000000000000000000000000000000000000000000000",
      "type": "0x2",
      "transactionHash": "0xe960782ae7abdebe33051582139a7a817519778b5b99cba21c75719e2cd4a8fb",
      "transactionIndex": "0x62",
      "blockHash": "0xf8bd06de5d36fcbe5daf9dd156ade6d852ce277f933909fa023f8e1f8fb4773a",
      "blockNumber": "0x731f35",
      "gasUsed": "0xfd0f",
      "effectiveGasPrice": "0x422b6255",
      "from": "0xc77f7fed3b5cc8249adc428c5f44c9063b9734b4",
      "to": "0x8aafd3ede9adb0ff97c7aebce82a919afb1c8764",
      "contractAddress": null
    }
  ],
  "libraries": [],
  "pending": [],
  "returns": {},
  "timestamp": 1737519973,
  "chain": 11155111,
  "commit": "1d2fb70"
}