{
  "transactions": [
    {
      "hash": "0xfcf56c60fe6dea6a304a547f44632023e6c4ba007bf8ae6068c6ca1b202553c6",
      "transactionType": "CALL",
      "contractName": null,
      "contractAddress": "0x270e88f8683660553e8ba4eb2ad7c91a1710d769",
      "function": "sell(uint256)",
      "arguments": [
        "737629391895858520925"
      ],
      "transaction": {
        "from": "0xc77f7fed3b5cc8249adc428c5f44c9063b9734b4",
        "to": "0x270e88f8683660553e8ba4eb2ad7c91a1710d769",
        "gas": "0x16fec",
        "value": "0x0",
        "input": "0xe4849b32000000000000000000000000000000000000000000000027fcaa07cd200c235d",
        "nonce": "0x756",
        "chainId": "0xaa36a7"
      },
      "additionalContracts": [],
      "isFixedGasLimit": false
    }
  ],
  "receipts": [
    {
      "status": "0x1",
      "cumulativeGasUsed": "0x1473365",
      "logs": [
        {
          "address": "0x270e88f8683660553e8ba4eb2ad7c91a1710d769",
          "topics": [
            "0xddf252ad1be2c89b69c2b068fc378daa952ba7f163c4a11628f55a4df523b3ef",
            "0x000000000000000000000000c77f7fed3b5cc8249adc428c5f44c9063b9734b4",
            "0x0000000000000000000000000000000000000000000000000000000000000000"
          ],
          "data": "0x000000000000000000000000000000000000000000000027fcaa07cd200c235d",
          "blockHash": "0x97e7ad77a20dcf6f0b4cae1d6ab912d02d6ceb23fbdedaf9f383b66cec740f10",
          "blockNumber": "0x72547d",
          "transactionHash": "0xfcf56c60fe6dea6a304a547f44632023e6c4ba007bf8ae6068c6ca1b202553c6",
          "transactionIndex": "0x5e",
          "logIndex": "0x81",
          "removed": false
        },
        {
          "address": "0x270e88f8683660553e8ba4eb2ad7c91a1710d769",
          "topics": [
            "0x4afcb4a87cdbd9974efdb92ee48bc8d7cd0ae4bf217004db3d080cbaee652ca7"
          ],
          "data": "0x000000000000000000000000000000000000000000000000000000006786e7e40000000000000000000000000000000000000000000000000004c8a9996a6f510000000000000000000000000000000000000000000000000dc8284129f706c1",
          "blockHash": "0x97e7ad77a20dcf6f0b4cae1d6ab912d02d6ceb23fbdedaf9f383b66cec740f10",
          "blockNumber": "0x72547d",
          "transactionHash": "0xfcf56c60fe6dea6a304a547f44632023e6c4ba007bf8ae6068c6ca1b202553c6",
          "transactionIndex": "0x5e",
          "logIndex": "0x82",
          "removed": false
        }
      ],
      "logsBloom": "0x00000000000000000000000000000000000000000000000000000000000000000000000000000000000000000000000020000000000000004000000000000000000000000000000000000008000000000000000000000000000000000000000000000000020000000000000000000800020000000000000000000010000000000000000000010000000000000000000000000000000000000000010000000000000000000000000000000000000000004000000000000000000000000000000000000002000000800000000000000000000000000000080000008000000020000000000000000000000000000000000000000000000000000000000000000000",
      "type": "0x2",
      "transactionHash": "0xfcf56c60fe6dea6a304a547f44632023e6c4ba007bf8ae6068c6ca1b202553c6",
      "transactionIndex": "0x5e",
      "blockHash": "0x97e7ad77a20dcf6f0b4cae1d6ab912d02d6ceb23fbdedaf9f383b66cec740f10",
      "blockNumber": "0x72547d",
      "gasUsed": "0xfb93",
      "effectiveGasPrice": "0x12c3d24b6",
      "from": "0xc77f7fed3b5cc8249adc428c5f44c9063b9734b4",
      "to": "0x270e88f8683660553e8ba4eb2ad7c91a1710d769",
      "contractAddress": null
    }
  ],
  "libraries": [],
  "pending": [],
  "returns": {},
  "timestamp": 1736894437,
  "chain": 11155111,
  "commit": "51a374b"
}