{
  "transactions": [
    {
      "hash": "0x48507d298d0aa0a27fa7bc585fcf07c4543a2ca73bd17e60ec5d7ddae15b74a3",
      "transactionType": "CALL",
      "contractName": null,
      "contractAddress": "0x8aafd3ede9adb0ff97c7aebce82a919afb1c8764",
      "function": "sell(uint256)",
      "arguments": [
        "22572698027"
      ],
      "transaction": {
        "from": "0xc77f7fed3b5cc8249adc428c5f44c9063b9734b4",
        "to": "0x8aafd3ede9adb0ff97c7aebce82a919afb1c8764",
        "gas": "0x1722a",
        "value": "0x0",
        "input": "0xe4849b3200000000000000000000000000000000000000000000000000000005417009ab",
        "nonce": "0x1190",
        "chainId": "0xaa36a7"
      },
      "additionalContracts": [],
      "isFixedGasLimit": false
    }
  ],
  "receipts": [
    {
      "status": "0x1",
      "cumulativeGasUsed": "0xcf7c88",
      "logs": [
        {
          "address": "0x8aafd3ede9adb0ff97c7aebce82a919afb1c8764",
          "topics": [
            "0xddf252ad1be2c89b69c2b068fc378daa952ba7f163c4a11628f55a4df523b3ef",
            "0x000000000000000000000000c77f7fed3b5cc8249adc428c5f44c9063b9734b4",
            "0x0000000000000000000000000000000000000000000000000000000000000000"
          ],
          "data": "0x0000000000000000000000000000000000000000000000000000000536ac94db",
          "blockHash": "0x3f68d2e57a04660637cd4715978c20ddec151fa6aa2228084865485159cd0780",
          "blockNumber": "0x731855",
          "transactionHash": "0x48507d298d0aa0a27fa7bc585fcf07c4543a2ca73bd17e60ec5d7ddae15b74a3",
          "transactionIndex": "0xa8",
          "logIndex": "0xac",
          "removed": false
        },
        {
          "address": "0x8aafd3ede9adb0ff97c7aebce82a919afb1c8764",
          "topics": [
            "0xddf252ad1be2c89b69c2b068fc378daa952ba7f163c4a11628f55a4df523b3ef",
            "0x000000000000000000000000c77f7fed3b5cc8249adc428c5f44c9063b9734b4",
            "0x000000000000000000000000c77f7fed3b5cc8249adc428c5f44c9063b9734b4"
          ],
          "data": "0x000000000000000000000000000000000000000000000000000000000ac374d0",
          "blockHash": "0x3f68d2e57a04660637cd4715978c20ddec151fa6aa2228084865485159cd0780",
          "blockNumber": "0x731855",
          "transactionHash": "0x48507d298d0aa0a27fa7bc585fcf07c4543a2ca73bd17e60ec5d7ddae15b74a3",
          "transactionIndex": "0xa8",
          "logIndex": "0xad",
          "removed": false
        },
        {
          "address": "0x8aafd3ede9adb0ff97c7aebce82a919afb1c8764",
          "topics": [
            "0x4afcb4a87cdbd9974efdb92ee48bc8d7cd0ae4bf217004db3d080cbaee652ca7"
          ],
          "data": "0x00000000000000000000000000000000000000000000000000000000679020cc0000000000000000000000000000000000000000000000000005207f21ce18fb0000000000000000000000000000000000000000000000000000000001f10d3b",
          "blockHash": "0x3f68d2e57a04660637cd4715978c20ddec151fa6aa2228084865485159cd0780",
          "blockNumber": "0x731855",
          "transactionHash": "0x48507d298d0aa0a27fa7bc585fcf07c4543a2ca73bd17e60ec5d7ddae15b74a3",
          "transactionIndex": "0xa8",
          "logIndex": "0xae",
          "removed": false
        }
      ],
      "logsBloom": "0x00000000000000000000000000000000000000000600000000000000000000000000000000000000000000000000000000000000000000004000000000000000000000000000004000000008000000000000000000000000000000000000000000000000020000000000000000000800020000000000000000000010000000000000000000000000000000000000000000000000000000000000010000000000000000000000000000000000000000004000000000000000000000000000000000000002000000800000000000000000000000000000080000000000000020000000000000000000000000000000000000000000000000000000000000000000",
      "type": "0x2",
      "transactionHash": "0x48507d298d0aa0a27fa7bc585fcf07c4543a2ca73bd17e60ec5d7ddae15b74a3",
      "transactionIndex": "0xa8",
      "blockHash": "0x3f68d2e57a04660637cd4715978c20ddec151fa6aa2228084865485159cd0780",
      "blockNumber": "0x731855",
      "gasUsed": "0xfd1b",
      "effectiveGasPrice": "0x394f7f4a",
      "from": "0xc77f7fed3b5cc8249adc428c5f44c9063b9734b4",
      "to": "0x8aafd3ede9adb0ff97c7aebce82a919afb1c8764",
      "contractAddress": null
    }
  ],
  "libraries": [],
  "pending": [],
  "returns": {},
  "timestamp": 1737498829,
  "chain": 11155111,
  "commit": "1d2fb70"
}