{
  "transactions": [
    {
      "hash": "0x249c6ed80e6fb455555171ef3a2fb4256d4ac14ee418353bd8df29a24e51fdc7",
      "transactionType": "CALL",
      "contractName": null,
      "contractAddress": "0x5eb9cc76c3506942c1c0ead70e877dd5e4f00cb0",
      "function": "buy(address)",
      "arguments": [
        "0xC77f7fed3b5Cc8249aDc428c5F44C9063B9734b4"
      ],
      "transaction": {
        "from": "0xc77f7fed3b5cc8249adc428c5f44c9063b9734b4",
        "to": "0x5eb9cc76c3506942c1c0ead70e877dd5e4f00cb0",
        "gas": "0x1b30c",
        "value": "0xde0b6b3a7640000",
        "input": "0xf088d547000000000000000000000000c77f7fed3b5cc8249adc428c5f44c9063b9734b4",
        "nonce": "0x39a",
        "chainId": "0xaa36a7"
      },
      "additionalContracts": [],
      "isFixedGasLimit": false
    }
  ],
  "receipts": [
    {
      "status": "0x1",
      "cumulativeGasUsed": "0x12cfc57",
      "logs": [
        {
          "address": "0x5eb9cc76c3506942c1c0ead70e877dd5e4f00cb0",
          "topics": [
            "0xddf252ad1be2c89b69c2b068fc378daa952ba7f163c4a11628f55a4df523b3ef",
            "0x0000000000000000000000000000000000000000000000000000000000000000",
            "0x000000000000000000000000c77f7fed3b5cc8249adc428c5f44c9063b9734b4"
          ],
          "data": "0x000000000000000000000000000000000000000000000035753bcaebe3a4adf4",
          "blockHash": "0xff4eb548c4cf604abc5e7690c2fbcab06672dbf7711a7dfec650c71fcbe5ec2b",
          "blockNumber": "0x724f96",
          "transactionHash": "0x249c6ed80e6fb455555171ef3a2fb4256d4ac14ee418353bd8df29a24e51fdc7",
          "transactionIndex": "0xb2",
          "logIndex": "0x13b",
          "removed": false
        },
        {
          "address": "0x5eb9cc76c3506942c1c0ead70e877dd5e4f00cb0",
          "topics": [
            "0xddf252ad1be2c89b69c2b068fc378daa952ba7f163c4a11628f55a4df523b3ef",
            "0x0000000000000000000000000000000000000000000000000000000000000000",
            "0x000000000000000000000000c77f7fed3b5cc8249adc428c5f44c9063b9734b4"
          ],
          "data": "0x00000000000000000000000000000000000000000000000029830cf85e27774c",
          "blockHash": "0xff4eb548c4cf604abc5e7690c2fbcab06672dbf7711a7dfec650c71fcbe5ec2b",
          "blockNumber": "0x724f96",
          "transactionHash": "0x249c6ed80e6fb455555171ef3a2fb4256d4ac14ee418353bd8df29a24e51fdc7",
          "transactionIndex": "0xb2",
          "logIndex": "0x13c",
          "removed": false
        },
        {
          "address": "0x5eb9cc76c3506942c1c0ead70e877dd5e4f00cb0",
          "topics": [
            "0x4afcb4a87cdbd9974efdb92ee48bc8d7cd0ae4bf217004db3d080cbaee652ca7"
          ],
          "data": "0x000000000000000000000000000000000000000000000000000000006786acbc000000000000000000000000000000000000000000000000000391119538660e0000000000000000000000000000000000000000000000000de0b6b3a7640000",
          "blockHash": "0xff4eb548c4cf604abc5e7690c2fbcab06672dbf7711a7dfec650c71fcbe5ec2b",
          "blockNumber": "0x724f96",
          "transactionHash": "0x249c6ed80e6fb455555171ef3a2fb4256d4ac14ee418353bd8df29a24e51fdc7",
          "transactionIndex": "0xb2",
          "logIndex": "0x13d",
          "removed": false
        }
      ],
      "logsBloom": "0x00000000000000000000000000000000000000000000000000000000000000000000000000000000000000000000000000000000000000004000000000000000000000000000000000000008000000000000000000000000000000000000000000000000020000000000000004000800020000000000000000000010000000000000000000000000000000000000000000000000000000000000010000000000000000000000000000000000000000004000000000000000000000000000020000000002000000800000008000000000000000000000080000000000000020000000000000000000000000000000000000000000000000000000000000000000",
      "type": "0x2",
      "transactionHash": "0x249c6ed80e6fb455555171ef3a2fb4256d4ac14ee418353bd8df29a24e51fdc7",
      "transactionIndex": "0xb2",
      "blockHash": "0xff4eb548c4cf604abc5e7690c2fbcab06672dbf7711a7dfec650c71fcbe5ec2b",
      "blockNumber": "0x724f96",
      "gasUsed": "0x13af8",
      "effectiveGasPrice": "0x4fbfd22e4",
      "from": "0xc77f7fed3b5cc8249adc428c5f44c9063b9734b4",
      "to": "0x5eb9cc76c3506942c1c0ead70e877dd5e4f00cb0",
      "contractAddress": null
    }
  ],
  "libraries": [],
  "pending": [],
  "returns": {},
  "timestamp": 1736879293,
  "chain": 11155111,
  "commit": "51a374b"
}