{
  "transactions": [
    {
      "hash": "0x0be6694a77d95ee321dec0835e2231338da845aabdfdfaddecd47c7a4531dbbd",
      "transactionType": "CALL",
      "contractName": null,
      "contractAddress": "0x270e88f8683660553e8ba4eb2ad7c91a1710d769",
      "function": "buy(address)",
      "arguments": [
        "0xC77f7fed3b5Cc8249aDc428c5F44C9063B9734b4"
      ],
      "transaction": {
        "from": "0xc77f7fed3b5cc8249adc428c5f44c9063b9734b4",
        "to": "0x270e88f8683660553e8ba4eb2ad7c91a1710d769",
        "gas": "0x1b30c",
        "value": "0xde0b6b3a7640000",
        "input": "0xf088d547000000000000000000000000c77f7fed3b5cc8249adc428c5f44c9063b9734b4",
        "nonce": "0x5fc",
        "chainId": "0xaa36a7"
      },
      "additionalContracts": [],
      "isFixedGasLimit": false
    }
  ],
  "receipts": [
    {
      "status": "0x1",
      "cumulativeGasUsed": "0x928e15",
      "logs": [
        {
          "address": "0x270e88f8683660553e8ba4eb2ad7c91a1710d769",
          "topics": [
            "0xddf252ad1be2c89b69c2b068fc378daa952ba7f163c4a11628f55a4df523b3ef",
            "0x0000000000000000000000000000000000000000000000000000000000000000",
            "0x000000000000000000000000c77f7fed3b5cc8249adc428c5f44c9063b9734b4"
          ],
          "data": "0x0000000000000000000000000000000000000000000000333aa6bdcec4be4087",
          "blockHash": "0x8f8487f22eba2b846aae5280a2b2cdc725cc1c89d5650770ef8a2d25a370af0c",
          "blockNumber": "0x7252c3",
          "transactionHash": "0x0be6694a77d95ee321dec0835e2231338da845aabdfdfaddecd47c7a4531dbbd",
          "transactionIndex": "0x59",
          "logIndex": "0xc0",
          "removed": false
        },
        {
          "address": "0x270e88f8683660553e8ba4eb2ad7c91a1710d769",
          "topics": [
            "0xddf252ad1be2c89b69c2b068fc378daa952ba7f163c4a11628f55a4df523b3ef",
            "0x0000000000000000000000000000000000000000000000000000000000000000",
            "0x000000000000000000000000c77f7fed3b5cc8249adc428c5f44c9063b9734b4"
          ],
          "data": "0x00000000000000000000000000000000000000000000000027c7f95e9878a90b",
          "blockHash": "0x8f8487f22eba2b846aae5280a2b2cdc725cc1c89d5650770ef8a2d25a370af0c",
          "blockNumber": "0x7252c3",
          "transactionHash": "0x0be6694a77d95ee321dec0835e2231338da845aabdfdfaddecd47c7a4531dbbd",
          "transactionIndex": "0x59",
          "logIndex": "0xc1",
          "removed": false
        },
        {
          "address": "0x270e88f8683660553e8ba4eb2ad7c91a1710d769",
          "topics": [
            "0x4afcb4a87cdbd9974efdb92ee48bc8d7cd0ae4bf217004db3d080cbaee652ca7"
          ],
          "data": "0x000000000000000000000000000000000000000000000000000000006786d32c0000000000000000000000000000000000000000000000000003b8e5e890c5280000000000000000000000000000000000000000000000000de0b6b3a7640000",
          "blockHash": "0x8f8487f22eba2b846aae5280a2b2cdc725cc1c89d5650770ef8a2d25a370af0c",
          "blockNumber": "0x7252c3",
          "transactionHash": "0x0be6694a77d95ee321dec0835e2231338da845aabdfdfaddecd47c7a4531dbbd",
          "transactionIndex": "0x59",
          "logIndex": "0xc2",
          "removed": false
        }
      ],
      "logsBloom": "0x00000000000000000000000000000000000000000000000000000000000000000000000000000000000000000000000020000000000000004000000000000000000000000000000000000008000000000000000000000000000000000000000000000000020000000000000000000800020000000000000000000010000000000000000000010000000000000000000000000000000000000000010000000000000000000000000000000000000000004000000000000000000000000000000000000002000000800000000000000000000000000000080000008000000020000000000000000000000000000000000000000000000000000000000000000000",
      "type": "0x2",
      "transactionHash": "0x0be6694a77d95ee321dec0835e2231338da845aabdfdfaddecd47c7a4531dbbd",
      "transactionIndex": "0x59",
      "blockHash": "0x8f8487f22eba2b846aae5280a2b2cdc725cc1c89d5650770ef8a2d25a370af0c",
      "blockNumber": "0x7252c3",
      "gasUsed": "0x13af8",
      "effectiveGasPrice": "0x2d240f86a",
      "from": "0xc77f7fed3b5cc8249adc428c5f44c9063b9734b4",
      "to": "0x270e88f8683660553e8ba4eb2ad7c91a1710d769",
      "contractAddress": null
    }
  ],
  "libraries": [],
  "pending": [],
  "returns": {},
  "timestamp": 1736889132,
  "chain": 11155111,
  "commit": "51a374b"
}