{
  "transactions": [
    {
      "hash": "0x67dbd30d7d4d271eef1879a258a7481d94ce053aa8fca903b74322ca98a418a7",
      "transactionType": "CALL",
      "contractName": null,
      "contractAddress": "0x8aafd3ede9adb0ff97c7aebce82a919afb1c8764",
      "function": "sell(uint256)",
      "arguments": [
        "1661318"
      ],
      "transaction": {
        "from": "0xc77f7fed3b5cc8249adc428c5f44c9063b9734b4",
        "to": "0x8aafd3ede9adb0ff97c7aebce82a919afb1c8764",
        "gas": "0x16208",
        "value": "0x0",
        "input": "0xe4849b320000000000000000000000000000000000000000000000000000000000195986",
        "nonce": "0xf1e",
        "chainId": "0xaa36a7"
      },
      "additionalContracts": [],
      "isFixedGasLimit": false
    }
  ],
  "receipts": [
    {
      "status": "0x1",
      "cumulativeGasUsed": "0xa697db",
      "logs": [
        {
          "address": "0x8aafd3ede9adb0ff97c7aebce82a919afb1c8764",
          "topics": [
            "0xddf252ad1be2c89b69c2b068fc378daa952ba7f163c4a11628f55a4df523b3ef",
            "0x000000000000000000000000c77f7fed3b5cc8249adc428c5f44c9063b9734b4",
            "0x0000000000000000000000000000000000000000000000000000000000000000"
          ],
          "data": "0x000000000000000000000000000000000000000000000000000000000019259c",
          "blockHash": "0xce7c616fcedf5326eee6597b3ff02336ba47f32f2c8bd3229f81067d88f9cc5b",
          "blockNumber": "0x73156f",
          "transactionHash": "0x67dbd30d7d4d271eef1879a258a7481d94ce053aa8fca903b74322ca98a418a7",
          "transactionIndex": "0x72",
          "logIndex": "0xc6",
          "removed": false
        },
        {
          "address": "0x8aafd3ede9adb0ff97c7aebce82a919afb1c8764",
          "topics": [
            "0xddf252ad1be2c89b69c2b068fc378daa952ba7f163c4a11628f55a4df523b3ef",
            "0x000000000000000000000000c77f7fed3b5cc8249adc428c5f44c9063b9734b4",
            "0x000000000000000000000000c77f7fed3b5cc8249adc428c5f44c9063b9734b4"
          ],
          "data": "0x00000000000000000000000000000000000000000000000000000000000033ea",
          "blockHash": "0xce7c616fcedf5326eee6597b3ff02336ba47f32f2c8bd3229f81067d88f9cc5b",
          "blockNumber": "0x73156f",
          "transactionHash": "0x67dbd30d7d4d271eef1879a258a7481d94ce053aa8fca903b74322ca98a418a7",
          "transactionIndex": "0x72",
          "logIndex": "0xc7",
          "removed": false
        },
        {
          "address": "0x8aafd3ede9adb0ff97c7aebce82a919afb1c8764",
          "topics": [
            "0x4afcb4a87cdbd9974efdb92ee48bc8d7cd0ae4bf217004db3d080cbaee652ca7"
          ],
          "data": "0x00000000000000000000000000000000000000000000000000000000678ffde00000000000000000000000000000000000000000000000000004bee3f240270400000000000000000000000000000000000000000000000000000000000008ab",
          "blockHash": "0xce7c616fcedf5326eee6597b3ff02336ba47f32f2c8bd3229f81067d88f9cc5b",
          "blockNumber": "0x73156f",
          "transactionHash": "0x67dbd30d7d4d271eef1879a258a7481d94ce053aa8fca903b74322ca98a418a7",
          "transactionIndex": "0x72",
          "logIndex": "0xc8",
          "removed": false
        }
      ],
      "logsBloom": "0x00000000000000000000000000000000000000000600000000000000000000000000000000000000000000000000000000000000000000004000000000000000000000000000004000000008000000000000000000000000000000000000000000000000020000000000000000000800020000000000000000000010000000000000000000000000000000000000000000000000000000000000010000000000000000000000000000000000000000004000000000000000000000000000000000000002000000800000000000000000000000000000080000000000000020000000000000000000000000000000000000000000000000000000000000000000",
      "type": "0x2",
      "transactionHash": "0x67dbd30d7d4d271eef1879a258a7481d94ce053aa8fca903b74322ca98a418a7",
      "transactionIndex": "0x72",
      "blockHash": "0xce7c616fcedf5326eee6597b3ff02336ba47f32f2c8bd3229f81067d88f9cc5b",
      "blockNumber": "0x73156f",
      "gasUsed": "0xf213",
      "effectiveGasPrice": "0x9648287d",
      "from": "0xc77f7fed3b5cc8249adc428c5f44c9063b9734b4",
      "to": "0x8aafd3ede9adb0ff97c7aebce82a919afb1c8764",
      "contractAddress": null
    }
  ],
  "libraries": [],
  "pending": [],
  "returns": {},
  "timestamp": 1737489889,
  "chain": 11155111,
  "commit": "1d2fb70"
}