{
  "transactions": [
    {
      "hash": "0xdc0361558f934af5bec7b99633607794a3205d1aee30e2e4bd62b1aa489aede4",
      "transactionType": "CALL",
      "contractName": null,
      "contractAddress": "0x8aafd3ede9adb0ff97c7aebce82a919afb1c8764",
      "function": "sell(uint256)",
      "arguments": [
        "194716175"
      ],
      "transaction": {
        "from": "0xc77f7fed3b5cc8249adc428c5f44c9063b9734b4",
        "to": "0x8aafd3ede9adb0ff97c7aebce82a919afb1c8764",
        "gas": "0x14e6c",
        "value": "0x0",
        "input": "0xe4849b32000000000000000000000000000000000000000000000000000000000b9b220f",
        "nonce": "0xf45",
        "chainId": "0xaa36a7"
      },
      "additionalContracts": [],
      "isFixedGasLimit": false
    }
  ],
  "receipts": [
    {
      "status": "0x1",
      "cumulativeGasUsed": "0x132d95f",
      "logs": [
        {
          "address": "0x8aafd3ede9adb0ff97c7aebce82a919afb1c8764",
          "topics": [
            "0xddf252ad1be2c89b69c2b068fc378daa952ba7f163c4a11628f55a4df523b3ef",
            "0x000000000000000000000000c77f7fed3b5cc8249adc428c5f44c9063b9734b4",
            "0x0000000000000000000000000000000000000000000000000000000000000000"
          ],
          "data": "0x000000000000000000000000000000000000000000000000000000000b835d2e",
          "blockHash": "0xc32ee20b5192640045b728c56c986875f1b1dbdea993c7ef06d3b76165bfbbba",
          "blockNumber": "0x7315a0",
          "transactionHash": "0xdc0361558f934af5bec7b99633607794a3205d1aee30e2e4bd62b1aa489aede4",
          "transactionIndex": "0x95",
          "logIndex": "0x119",
          "removed": false
        },
        {
          "address": "0x8aafd3ede9adb0ff97c7aebce82a919afb1c8764",
          "topics": [
            "0xddf252ad1be2c89b69c2b068fc378daa952ba7f163c4a11628f55a4df523b3ef",
            "0x000000000000000000000000c77f7fed3b5cc8249adc428c5f44c9063b9734b4",
            "0x000000000000000000000000c77f7fed3b5cc8249adc428c5f44c9063b9734b4"
          ],
          "data": "0x000000000000000000000000000000000000000000000000000000000017c4e1",
          "blockHash": "0xc32ee20b5192640045b728c56c986875f1b1dbdea993c7ef06d3b76165bfbbba",
          "blockNumber": "0x7315a0",
          "transactionHash": "0xdc0361558f934af5bec7b99633607794a3205d1aee30e2e4bd62b1aa489aede4",
          "transactionIndex": "0x95",
          "logIndex": "0x11a",
          "removed": false
        },
        {
          "address": "0x8aafd3ede9adb0ff97c7aebce82a919afb1c8764",
          "topics": [
            "0x4afcb4a87cdbd9974efdb92ee48bc8d7cd0ae4bf217004db3d080cbaee652ca7"
          ],
          "data": "0x000000000000000000000000000000000000000000000000000000006790002c0000000000000000000000000000000000000000000000000004c033badb46e9000000000000000000000000000000000000000000000000000000000003f91b",
          "blockHash": "0xc32ee20b5192640045b728c56c986875f1b1dbdea993c7ef06d3b76165bfbbba",
          "blockNumber": "0x7315a0",
          "transactionHash": "0xdc0361558f934af5bec7b99633607794a3205d1aee30e2e4bd62b1aa489aede4",
          "transactionIndex": "0x95",
          "logIndex": "0x11b",
          "removed": false
        }
      ],
      "logsBloom": "0x00000000000000000000000000000000000000000600000000000000000000000000000000000000000000000000000000000000000000004000000000000000000000000000004000000008000000000000000000000000000000000000000000000000020000000000000000000800020000000000000000000010000000000000000000000000000000000000000000000000000000000000010000000000000000000000000000000000000000004000000000000000000000000000000000000002000000800000000000000000000000000000080000000000000020000000000000000000000000000000000000000000000000000000000000000000",
      "type": "0x2",
      "transactionHash": "0xdc0361558f934af5bec7b99633607794a3205d1aee30e2e4bd62b1aa489aede4",
      "transactionIndex": "0x95",
      "blockHash": "0xc32ee20b5192640045b728c56c986875f1b1dbdea993c7ef06d3b76165bfbbba",
      "blockNumber": "0x7315a0",
      "gasUsed": "0xf21f",
      "effectiveGasPrice": "0x68f14e70",
      "from": "0xc77f7fed3b5cc8249adc428c5f44c9063b9734b4",
      "to": "0x8aafd3ede9adb0ff97c7aebce82a919afb1c8764",
      "contractAddress": null
    }
  ],
  "libraries": [],
  "pending": [],
  "returns": {},
  "timestamp": 1737490478,
  "chain": 11155111,
  "commit": "1d2fb70"
}