{
  "transactions": [
    {
      "hash": "0x116ffbdb1400a3ddac45e603c33aeaa6dda2553eac46085dcee35395e0b4235d",
      "transactionType": "CALL",
      "contractName": null,
      "contractAddress": "0x8aafd3ede9adb0ff97c7aebce82a919afb1c8764",
      "function": "sell(uint256)",
      "arguments": [
        "24443676706"
      ],
      "transaction": {
        "from": "0xc77f7fed3b5cc8249adc428c5f44c9063b9734b4",
        "to": "0x8aafd3ede9adb0ff97c7aebce82a919afb1c8764",
        "gas": "0x1722a",
        "value": "0x0",
        "input": "0xe4849b3200000000000000000000000000000000000000000000000000000005b0f4e822",
        "nonce": "0xefb",
        "chainId": "0xaa36a7"
      },
      "additionalContracts": [],
      "isFixedGasLimit": false
    }
  ],
  "receipts": [
    {
      "status": "0x1",
      "cumulativeGasUsed": "0xa2e012",
      "logs": [
        {
          "address": "0x8aafd3ede9adb0ff97c7aebce82a919afb1c8764",
          "topics": [
            "0xddf252ad1be2c89b69c2b068fc378daa952ba7f163c4a11628f55a4df523b3ef",
            "0x000000000000000000000000c77f7fed3b5cc8249adc428c5f44c9063b9734b4",
            "0x0000000000000000000000000000000000000000000000000000000000000000"
          ],
          "data": "0x00000000000000000000000000000000000000000000000000000005a54d0f3d",
          "blockHash": "0x6eb9524a69a321e426f2fc040e1a3fe4e3f7f8740a46ce06244ce7b68f0ea142",
          "blockNumber": "0x731473",
          "transactionHash": "0x116ffbdb1400a3ddac45e603c33aeaa6dda2553eac46085dcee35395e0b4235d",
          "transactionIndex": "0x72",
          "logIndex": "0xbf",
          "removed": false
        },
        {
          "address": "0x8aafd3ede9adb0ff97c7aebce82a919afb1c8764",
          "topics": [
            "0xddf252ad1be2c89b69c2b068fc378daa952ba7f163c4a11628f55a4df523b3ef",
            "0x000000000000000000000000c77f7fed3b5cc8249adc428c5f44c9063b9734b4",
            "0x000000000000000000000000c77f7fed3b5cc8249adc428c5f44c9063b9734b4"
          ],
          "data": "0x000000000000000000000000000000000000000000000000000000000ba7d8e5",
          "blockHash": "0x6eb9524a69a321e426f2fc040e1a3fe4e3f7f8740a46ce06244ce7b68f0ea142",
          "blockNumber": "0x731473",
          "transactionHash": "0x116ffbdb1400a3ddac45e603c33aeaa6dda2553eac46085dcee35395e0b4235d",
          "transactionIndex": "0x72",
          "logIndex": "0xc0",
          "removed": false
        },
        {
          "address": "0x8aafd3ede9adb0ff97c7aebce82a919afb1c8764",
          "topics": [
            "0x4afcb4a87cdbd9974efdb92ee48bc8d7cd0ae4bf217004db3d080cbaee652ca7"
          ],
          "data": "0x00000000000000000000000000000000000000000000000000000000678ff2100000000000000000000000000000000000000000000000000004bb1be803a3d60000000000000000000000000000000000000000000000000000000001f0ac07",
          "blockHash": "0x6eb9524a69a321e426f2fc040e1a3fe4e3f7f8740a46ce06244ce7b68f0ea142",
          "blockNumber": "0x731473",
          "transactionHash": "0x116ffbdb1400a3ddac45e603c33aeaa6dda2553eac46085dcee35395e0b4235d",
          "transactionIndex": "0x72",
          "logIndex": "0xc1",
          "removed": false
        }
      ],
      "logsBloom": "0x00000000000000000000000000000000000000000600000000000000000000000000000000000000000000000000000000000000000000004000000000000000000000000000004000000008000000000000000000000000000000000000000000000000020000000000000000000800020000000000000000000010000000000000000000000000000000000000000000000000000000000000010000000000000000000000000000000000000000004000000000000000000000000000000000000002000000800000000000000000000000000000080000000000000020000000000000000000000000000000000000000000000000000000000000000000",
      "type": "0x2",
      "transactionHash": "0x116ffbdb1400a3ddac45e603c33aeaa6dda2553eac46085dcee35395e0b4235d",
      "transactionIndex": "0x72",
      "blockHash": "0x6eb9524a69a321e426f2fc040e1a3fe4e3f7f8740a46ce06244ce7b68f0ea142",
      "blockNumber": "0x731473",
      "gasUsed": "0xfd1b",
      "effectiveGasPrice": "0x92c42217",
      "from": "0xc77f7fed3b5cc8249adc428c5f44c9063b9734b4",
      "to": "0x8aafd3ede9adb0ff97c7aebce82a919afb1c8764",
      "contractAddress": null
    }
  ],
  "libraries": [],
  "pending": [],
  "returns": {},
  "timestamp": 1737486865,
  "chain": 11155111,
  "commit": "51a374b"
}