{
  "transactions": [
    {
      "hash": "0x7ac6c81d27d3d89c24f487c094ce3116f23a293f78ddb2d8054717bb81db6417",
      "transactionType": "CALL",
      "contractName": null,
      "contractAddress": "0x5eb9cc76c3506942c1c0ead70e877dd5e4f00cb0",
      "function": "sell(uint256)",
      "arguments": [
        "989119121848219450678"
      ],
      "transaction": {
        "from": "0xc77f7fed3b5cc8249adc428c5f44c9063b9734b4",
        "to": "0x5eb9cc76c3506942c1c0ead70e877dd5e4f00cb0",
        "gas": "0x16fec",
        "value": "0x0",
        "input": "0xe4849b320000000000000000000000000000000000000000000000359ec908be456fbd36",
        "nonce": "0x389",
        "chainId": "0xaa36a7"
      },
      "additionalContracts": [],
      "isFixedGasLimit": false
    }
  ],
  "receipts": [
    {
      "status": "0x1",
      "cumulativeGasUsed": "0xfd1d83",
      "logs": [
        {
          "address": "0x5eb9cc76c3506942c1c0ead70e877dd5e4f00cb0",
          "topics": [
            "0xddf252ad1be2c89b69c2b068fc378daa952ba7f163c4a11628f55a4df523b3ef",
            "0x000000000000000000000000c77f7fed3b5cc8249adc428c5f44c9063b9734b4",
            "0x0000000000000000000000000000000000000000000000000000000000000000"
          ],
          "data": "0x0000000000000000000000000000000000000000000000359ec908be456fbd36",
          "blockHash": "0x92ca5b622799cd772eb8f3a313eda4e784906641a76ff25b12ae79e1264cbec0",
          "blockNumber": "0x724f83",
          "transactionHash": "0x7ac6c81d27d3d89c24f487c094ce3116f23a293f78ddb2d8054717bb81db6417",
          "transactionIndex": "0x84",
          "logIndex": "0xb7",
          "removed": false
        },
        {
          "address": "0x5eb9cc76c3506942c1c0ead70e877dd5e4f00cb0",
          "topics": [
            "0x4afcb4a87cdbd9974efdb92ee48bc8d7cd0ae4bf217004db3d080cbaee652ca7"
          ],
          "data": "0x000000000000000000000000000000000000000000000000000000006786abd800000000000000000000000000000000000000000000000000039110f4046ea90000000000000000000000000000000000000000000000000dc7db133209791f",
          "blockHash": "0x92ca5b622799cd772eb8f3a313eda4e784906641a76ff25b12ae79e1264cbec0",
          "blockNumber": "0x724f83",
          "transactionHash": "0x7ac6c81d27d3d89c24f487c094ce3116f23a293f78ddb2d8054717bb81db6417",
          "transactionIndex": "0x84",
          "logIndex": "0xb8",
          "removed": false
        }
      ],
      "logsBloom": "0x00000000000000000000000000000000000000000000000000000000000000000000000000000000000000000000000000000000000000004000000000000000000000000000000000000008000000000000000000000000000000000000000000000000020000000000000004000800020000000000000000000010000000000000000000000000000000000000000000000000000000000000010000000000000000000000000000000000000000004000000000000000000000000000020000000002000000800000008000000000000000000000080000000000000020000000000000000000000000000000000000000000000000000000000000000000",
      "type": "0x2",
      "transactionHash": "0x7ac6c81d27d3d89c24f487c094ce3116f23a293f78ddb2d8054717bb81db6417",
      "transactionIndex": "0x84",
      "blockHash": "0x92ca5b622799cd772eb8f3a313eda4e784906641a76ff25b12ae79e1264cbec0",
      "blockNumber": "0x724f83",
      "gasUsed": "0xfb93",
      "effectiveGasPrice": "0x57802b38b",
      "from": "0xc77f7fed3b5cc8249adc428c5f44c9063b9734b4",
      "to": "0x5eb9cc76c3506942c1c0ead70e877dd5e4f00cb0",
      "contractAddress": null
    }
  ],
  "libraries": [],
  "pending": [],
  "returns": {},
  "timestamp": 1736879064,
  "chain": 11155111,
  "commit": "51a374b"
}