{
  "transactions": [
    {
      "hash": "0x21b3fd2d3119fa44a54dbff270b25fdc1bd4c9a1456cddc0409213ab82cd06d9",
      "transactionType": "CALL",
      "contractName": null,
      "contractAddress": "0x270e88f8683660553e8ba4eb2ad7c91a1710d769",
      "function": "buy(address)",
      "arguments": [
        "0xC77f7fed3b5Cc8249aDc428c5F44C9063B9734b4"
      ],
      "transaction": {
        "from": "0xc77f7fed3b5cc8249adc428c5f44c9063b9734b4",
        "to": "0x270e88f8683660553e8ba4eb2ad7c91a1710d769",
        "gas": "0x1b30c",
        "value": "0xde0b6b3a7640000",
        "input": "0xf088d547000000000000000000000000c77f7fed3b5cc8249adc428c5f44c9063b9734b4",
        "nonce": "0x6bf",
        "chainId": "0xaa36a7"
      },
      "additionalContracts": [],
      "isFixedGasLimit": false
    }
  ],
  "receipts": [
    {
      "status": "0x1",
      "cumulativeGasUsed": "0x16b195b",
      "logs": [
        {
          "address": "0x270e88f8683660553e8ba4eb2ad7c91a1710d769",
          "topics": [
            "0xddf252ad1be2c89b69c2b068fc378daa952ba7f163c4a11628f55a4df523b3ef",
            "0x0000000000000000000000000000000000000000000000000000000000000000",
            "0x000000000000000000000000c77f7fed3b5cc8249adc428c5f44c9063b9734b4"
          ],
          "data": "0x000000000000000000000000000000000000000000000028982e9060acdb78b7",
          "blockHash": "0x1d936052a5d8d88d47060dc38e88a2a68e72222a0a12c7a81c5892eefa4d1906",
          "blockNumber": "0x7253cc",
          "transactionHash": "0x21b3fd2d3119fa44a54dbff270b25fdc1bd4c9a1456cddc0409213ab82cd06d9",
          "transactionIndex": "0x3b",
          "logIndex": "0x221",
          "removed": false
        },
        {
          "address": "0x270e88f8683660553e8ba4eb2ad7c91a1710d769",
          "topics": [
            "0xddf252ad1be2c89b69c2b068fc378daa952ba7f163c4a11628f55a4df523b3ef",
            "0x0000000000000000000000000000000000000000000000000000000000000000",
            "0x000000000000000000000000c77f7fed3b5cc8249adc428c5f44c9063b9734b4"
          ],
          "data": "0x0000000000000000000000000000000000000000000000001f85e23b13ae7240",
          "blockHash": "0x1d936052a5d8d88d47060dc38e88a2a68e72222a0a12c7a81c5892eefa4d1906",
          "blockNumber": "0x7253cc",
          "transactionHash": "0x21b3fd2d3119fa44a54dbff270b25fdc1bd4c9a1456cddc0409213ab82cd06d9",
          "transactionIndex": "0x3b",
          "logIndex": "0x222",
          "removed": false
        },
        {
          "address": "0x270e88f8683660553e8ba4eb2ad7c91a1710d769",
          "topics": [
            "0x4afcb4a87cdbd9974efdb92ee48bc8d7cd0ae4bf217004db3d080cbaee652ca7"
          ],
          "data": "0x000000000000000000000000000000000000000000000000000000006786df980000000000000000000000000000000000000000000000000004b28125e844230000000000000000000000000000000000000000000000000de0b6b3a7640000",
          "blockHash": "0x1d936052a5d8d88d47060dc38e88a2a68e72222a0a12c7a81c5892eefa4d1906",
          "blockNumber": "0x7253cc",
          "transactionHash": "0x21b3fd2d3119fa44a54dbff270b25fdc1bd4c9a1456cddc0409213ab82cd06d9",
          "transactionIndex": "0x3b",
          "logIndex": "0x223",
          "removed": false
        }
      ],
      "logsBloom": "0x00000000000000000000000000000000000000000000000000000000000000000000000000000000000000000000000020000000000000004000000000000000000000000000000000000008000000000000000000000000000000000000000000000000020000000000000000000800020000000000000000000010000000000000000000010000000000000000000000000000000000000000010000000000000000000000000000000000000000004000000000000000000000000000000000000002000000800000000000000000000000000000080000008000000020000000000000000000000000000000000000000000000000000000000000000000",
      "type": "0x2",
      "transactionHash": "0x21b3fd2d3119fa44a54dbff270b25fdc1bd4c9a1456cddc0409213ab82cd06d9",
      "transactionIndex": "0x3b",
      "blockHash": "0x1d936052a5d8d88d47060dc38e88a2a68e72222a0a12c7a81c5892eefa4d1906",
      "blockNumber": "0x7253cc",
      "gasUsed": "0x13af8",
      "effectiveGasPrice": "0x161545943",
      "from": "0xc77f7fed3b5cc8249adc428c5f44c9063b9734b4",
      "to": "0x270e88f8683660553e8ba4eb2ad7c91a1710d769",
      "contractAddress": null
    }
  ],
  "libraries": [],
  "pending": [],
  "returns": {},
  "timestamp": 1736892314,
  "chain": 11155111,
  "commit": "51a374b"
}