{
  "transactions": [
    {
      "hash": "0x66a21532819ea94b204522d81aaf1c2bab845abdcfa9359b5dfd129d6db0e862",
      "transactionType": "CALL",
      "contractName": null,
      "contractAddress": "0xbf4a322f1496e5c3d34a9bcdb4c60567b38c7de2",
      "function": "buy(address)",
      "arguments": [
        "0xC77f7fed3b5Cc8249aDc428c5F44C9063B9734b4"
      ],
      "transaction": {
        "from": "0xc77f7fed3b5cc8249adc428c5f44c9063b9734b4",
        "to": "0xbf4a322f1496e5c3d34a9bcdb4c60567b38c7de2",
        "gas": "0x1b309",
        "value": "0xde0b6b3a7640000",
        "input": "0xf088d547000000000000000000000000c77f7fed3b5cc8249adc428c5f44c9063b9734b4",
        "nonce": "0xd46",
        "chainId": "0xaa36a7"
      },
      "additionalContracts": [],
      "isFixedGasLimit": false
    }
  ],
  "receipts": [
    {
      "status": "0x1",
      "cumulativeGasUsed": "0xe32a3a",
      "logs": [
        {
          "address": "0xbf4a322f1496e5c3d34a9bcdb4c60567b38c7de2",
          "topics": [
            "0xddf252ad1be2c89b69c2b068fc378daa952ba7f163c4a11628f55a4df523b3ef",
            "0x0000000000000000000000000000000000000000000000000000000000000000",
            "0x000000000000000000000000c77f7fed3b5cc8249adc428c5f44c9063b9734b4"
          ],
          "data": "0x000000000000000000000000000000000000000000000034bf09b9a3145608a4",
          "blockHash": "0xd145dbbb380a322afb3fe76cfd71f0580996bc5c3c43e7bd4ec8181cacc3208c",
          "blockNumber": "0x725dad",
          "transactionHash": "0x66a21532819ea94b204522d81aaf1c2bab845abdcfa9359b5dfd129d6db0e862",
          "transactionIndex": "0x6a",
          "logIndex": "0xaf",
          "removed": false
        },
        {
          "address": "0xbf4a322f1496e5c3d34a9bcdb4c60567b38c7de2",
          "topics": [
            "0xddf252ad1be2c89b69c2b068fc378daa952ba7f163c4a11628f55a4df523b3ef",
            "0x0000000000000000000000000000000000000000000000000000000000000000",
            "0x000000000000000000000000c77f7fed3b5cc8249adc428c5f44c9063b9734b4"
          ],
          "data": "0x00000000000000000000000000000000000000000000000028f591d05582f1a3",
          "blockHash": "0xd145dbbb380a322afb3fe76cfd71f0580996bc5c3c43e7bd4ec8181cacc3208c",
          "blockNumber": "0x725dad",
          "transactionHash": "0x66a21532819ea94b204522d81aaf1c2bab845abdcfa9359b5dfd129d6db0e862",
          "transactionIndex": "0x6a",
          "logIndex": "0xb0",
          "removed": false
        },
        {
          "address": "0xbf4a322f1496e5c3d34a9bcdb4c60567b38c7de2",
          "topics": [
            "0x4afcb4a87cdbd9974efdb92ee48bc8d7cd0ae4bf217004db3d080cbaee652ca7"
          ],
          "data": "0x000000000000000000000000000000000000000000000000000000006787569000000000000000000000000000000000000000000000000000039d65cc0736550000000000000000000000000000000000000000000000000de0b6b3a7640000",
          "blockHash": "0xd145dbbb380a322afb3fe76cfd71f0580996bc5c3c43e7bd4ec8181cacc3208c",
          "blockNumber": "0x725dad",
          "transactionHash": "0x66a21532819ea94b204522d81aaf1c2bab845abdcfa9359b5dfd129d6db0e862",
          "transactionIndex": "0x6a",
          "logIndex": "0xb1",
          "removed": false
        }
      ],
      "logsBloom": "0x00000000000000000000000000000000000000000000000000000000000000000000000000000000000000000000000000000000000000004000000000000000000000000000000000000008000000000000001000000000000000000000000000000000020000000000000000000800020000000000000000000010000000000000000000000000000000000000000000000000000008000000010000000000000000000000000000000000000000004000000000000000000000000000000000000002000000800000000000001000000000000000080000000000000020000000000000000000000000000000000000000000000000000000000000000000",
      "type": "0x2",
      "transactionHash": "0x66a21532819ea94b204522d81aaf1c2bab845abdcfa9359b5dfd129d6db0e862",
      "transactionIndex": "0x6a",
      "blockHash": "0xd145dbbb380a322afb3fe76cfd71f0580996bc5c3c43e7bd4ec8181cacc3208c",
      "blockNumber": "0x725dad",
      "gasUsed": "0x13af6",
      "effectiveGasPrice": "0x53fd149c4",
      "from": "0xc77f7fed3b5cc8249adc428c5f44c9063b9734b4",
      "to": "0xbf4a322f1496e5c3d34a9bcdb4c60567b38c7de2",
      "contractAddress": null
    }
  ],
  "libraries": [],
  "pending": [],
  "returns": {},
  "timestamp": 1736922769,
  "chain": 11155111,
  "commit": "51a374b"
}