{
  "transactions": [
    {
      "hash": "0x139a511648a889c6a070ba03c4e2b13ab40d78e0beaf41e4f9f9db5bd11ae9ee",
      "transactionType": "CALL",
      "contractName": null,
      "contractAddress": "0x8aafd3ede9adb0ff97c7aebce82a919afb1c8764",
      "function": "sell(uint256)",
      "arguments": [
        "693474642463107264547"
      ],
      "transaction": {
        "from": "0xc77f7fed3b5cc8249adc428c5f44c9063b9734b4",
        "to": "0x8aafd3ede9adb0ff97c7aebce82a919afb1c8764",
        "gas": "0x17270",
        "value": "0x0",
        "input": "0xe4849b3200000000000000000000000000000000000000000000002597e4d92252873023",
        "nonce": "0x114f",
        "chainId": "0xaa36a7"
      },
      "additionalContracts": [],
      "isFixedGasLimit": false
    }
  ],
  "receipts": [
    {
      "status": "0x1",
      "cumulativeGasUsed": "0xcf9b42",
      "logs": [
        {
          "address": "0x8aafd3ede9adb0ff97c7aebce82a919afb1c8764",
          "topics": [
            "0xddf252ad1be2c89b69c2b068fc378daa952ba7f163c4a11628f55a4df523b3ef",
            "0x000000000000000000000000c77f7fed3b5cc8249adc428c5f44c9063b9734b4",
            "0x0000000000000000000000000000000000000000000000000000000000000000"
          ],
          "data": "0x0000000000000000000000000000000000000000000000254ae71d076c7dea1f",
          "blockHash": "0x1b4b5b3ddcdb2fbbf80c095b2de7ac55d0ef247aa537ca7b2e3d41de0813436a",
          "blockNumber": "0x731808",
          "transactionHash": "0x139a511648a889c6a070ba03c4e2b13ab40d78e0beaf41e4f9f9db5bd11ae9ee",
          "transactionIndex": "0xa1",
          "logIndex": "0xd9",
          "removed": false
        },
        {
          "address": "0x8aafd3ede9adb0ff97c7aebce82a919afb1c8764",
          "topics": [
            "0xddf252ad1be2c89b69c2b068fc378daa952ba7f163c4a11628f55a4df523b3ef",
            "0x000000000000000000000000c77f7fed3b5cc8249adc428c5f44c9063b9734b4",
            "0x000000000000000000000000c77f7fed3b5cc8249adc428c5f44c9063b9734b4"
          ],
          "data": "0x0000000000000000000000000000000000000000000000004cfdbc1ae6094604",
          "blockHash": "0x1b4b5b3ddcdb2fbbf80c095b2de7ac55d0ef247aa537ca7b2e3d41de0813436a",
          "blockNumber": "0x731808",
          "transactionHash": "0x139a511648a889c6a070ba03c4e2b13ab40d78e0beaf41e4f9f9db5bd11ae9ee",
          "transactionIndex": "0xa1",
          "logIndex": "0xda",
          "removed": false
        },
        {
          "address": "0x8aafd3ede9adb0ff97c7aebce82a919afb1c8764",
          "topics": [
            "0x4afcb4a87cdbd9974efdb92ee48bc8d7cd0ae4bf217004db3d080cbaee652ca7"
          ],
          "data": "0x0000000000000000000000000000000000000000000000000000000067901d24000000000000000000000000000000000000000000000000000517c58b5f38cd0000000000000000000000000000000000000000000000000dc8f71935e50898",
          "blockHash": "0x1b4b5b3ddcdb2fbbf80c095b2de7ac55d0ef247aa537ca7b2e3d41de0813436a",
          "blockNumber": "0x731808",
          "transactionHash": "0x139a511648a889c6a070ba03c4e2b13ab40d78e0beaf41e4f9f9db5bd11ae9ee",
          "transactionIndex": "0xa1",
          "logIndex": "0xdb",
          "removed": false
        }
      ],
      "logsBloom": "0x00000000000000000000000000000000000000000600000000000000000000000000000000000000000000000000000000000000000000004000000000000000000000000000004000000008000000000000000000000000000000000000000000000000020000000000000000000800020000000000000000000010000000000000000000000000000000000000000000000000000000000000010000000000000000000000000000000000000000004000000000000000000000000000000000000002000000800000000000000000000000000000080000000000000020000000000000000000000000000000000000000000000000000000000000000000",
      "type": "0x2",
      "transactionHash": "0x139a511648a889c6a070ba03c4e2b13ab40d78e0beaf41e4f9f9db5bd11ae9ee",
      "transactionIndex": "0xa1",
      "blockHash": "0x1b4b5b3ddcdb2fbbf80c095b2de7ac55d0ef247aa537ca7b2e3d41de0813436a",
      "blockNumber": "0x731808",
      "gasUsed": "0xfd4b",
      "effectiveGasPrice": "0x3ce00a88",
      "from": "0xc77f7fed3b5cc8249adc428c5f44c9063b9734b4",
      "to": "0x8aafd3ede9adb0ff97c7aebce82a919afb1c8764",
      "contractAddress": null
    }
  ],
  "libraries": [],
  "pending": [],
  "returns": {},
  "timestamp": 1737497893,
  "chain": 11155111,
  "commit": "1d2fb70"
}