{
  "transactions": [
    {
      "hash": "0x2b17d5608451b217e682ac63e1658c909e16aa6f40e92207b2c02f20bfd3e4d3",
      "transactionType": "CALL",
      "contractName": null,
      "contractAddress": "0x8aafd3ede9adb0ff97c7aebce82a919afb1c8764",
      "function": "sell(uint256)",
      "arguments": [
        "48472508"
      ],
      "transaction": {
        "from": "0xc77f7fed3b5cc8249adc428c5f44c9063b9734b4",
        "to": "0x8aafd3ede9adb0ff97c7aebce82a919afb1c8764",
        "gas": "0x15d88",
        "value": "0x0",
        "input": "0xe4849b320000000000000000000000000000000000000000000000000000000002e3a1bc",
        "nonce": "0x15b9",
        "chainId": "0xaa36a7"
      },
      "additionalContracts": [],
      "isFixedGasLimit": false
    }
  ],
  "receipts": [
    {
      "status": "0x1",
      "cumulativeGasUsed": "0xdbc0c4",
      "logs": [
        {
          "address": "0x8aafd3ede9adb0ff97c7aebce82a919afb1c8764",
          "topics": [
            "0xddf252ad1be2c89b69c2b068fc378daa952ba7f163c4a11628f55a4df523b3ef",
            "0x000000000000000000000000c77f7fed3b5cc8249adc428c5f44c9063b9734b4",
            "0x0000000000000000000000000000000000000000000000000000000000000000"
          ],
          "data": "0x0000000000000000000000000000000000000000000000000000000002ddb6f8",
          "blockHash": "0xa3f155bc0f7a89f522577d65effe5f3bf3e340f9eec25645235b6002e555801b",
          "blockNumber": "0x731d32",
          "transactionHash": "0x2b17d5608451b217e682ac63e1658c909e16aa6f40e92207b2c02f20bfd3e4d3",
          "transactionIndex": "0x5d",
          "logIndex": "0xa8",
          "removed": false
        },
        {
          "address": "0x8aafd3ede9adb0ff97c7aebce82a919afb1c8764",
          "topics": [
            "0xddf252ad1be2c89b69c2b068fc378daa952ba7f163c4a11628f55a4df523b3ef",
            "0x000000000000000000000000c77f7fed3b5cc8249adc428c5f44c9063b9734b4",
            "0x000000000000000000000000c77f7fed3b5cc8249adc428c5f44c9063b9734b4"
          ],
          "data": "0x000000000000000000000000000000000000000000000000000000000005eac4",
          "blockHash": "0xa3f155bc0f7a89f522577d65effe5f3bf3e340f9eec25645235b6002e555801b",
          "blockNumber": "0x731d32",
          "transactionHash": "0x2b17d5608451b217e682ac63e1658c909e16aa6f40e92207b2c02f20bfd3e4d3",
          "transactionIndex": "0x5d",
          "logIndex": "0xa9",
          "removed": false
        },
        {
          "address": "0x8aafd3ede9adb0ff97c7aebce82a919afb1c8764",
          "topics": [
            "0x4afcb4a87cdbd9974efdb92ee48bc8d7cd0ae4bf217004db3d080cbaee652ca7"
          ],
          "data": "0x0000000000000000000000000000000000000000000000000000000067905b4000000000000000000000000000000000000000000000000000132eebde75ffe6000000000000000000000000000000000000000000000000000000000003fe64",
          "blockHash": "0xa3f155bc0f7a89f522577d65effe5f3bf3e340f9eec25645235b6002e555801b",
          "blockNumber": "0x731d32",
          "transactionHash": "0x2b17d5608451b217e682ac63e1658c909e16aa6f40e92207b2c02f20bfd3e4d3",
          "transactionIndex": "0x5d",
          "logIndex": "0xaa",
          "removed": false
        }
      ],
      "logsBloom": "0x00000000000000000000000000000000000000000600000000000000000000000000000000000000000000000000000000000000000000004000000000000000000000000000004000000008000000000000000000000000000000000000000000000000020000000000000000000800020000000000000000000010000000000000000000000000000000000000000000000000000000000000010000000000000000000000000000000000000000004000000000000000000000000000000000000002000000800000000000000000000000000000080000000000000020000000000000000000000000000000000000000000000000000000000000000000",
      "type": "0x2",
      "transactionHash": "0x2b17d5608451b217e682ac63e1658c909e16aa6f40e92207b2c02f20bfd3e4d3",
      "transactionIndex": "0x5d",
      "blockHash": "0xa3f155bc0f7a89f522577d65effe5f3bf3e340f9eec25645235b6002e555801b",
      "blockNumber": "0x731d32",
      "gasUsed": "0xfd0f",
      "effectiveGasPrice": "0x4fe6d41f",
      "from": "0xc77f7fed3b5cc8249adc428c5f44c9063b9734b4",
      "to": "0x8aafd3ede9adb0ff97c7aebce82a919afb1c8764",
      "contractAddress": null
    }
  ],
  "libraries": [],
  "pending": [],
  "returns": {},
  "timestamp": 1737513793,
  "chain": 11155111,
  "commit": "1d2fb70"
}