{
  "transactions": [
    {
      "hash": "0x475ef0f7c42de70b73935d481f1ff3f11815e1e6bf9a7d1028973616e0549cbf",
      "transactionType": "CALL",
      "contractName": null,
      "contractAddress": "0x270e88f8683660553e8ba4eb2ad7c91a1710d769",
      "function": "sell(uint256)",
      "arguments": [
        "949918660978572600727"
      ],
      "transaction": {
        "from": "0xc77f7fed3b5cc8249adc428c5f44c9063b9734b4",
        "to": "0x270e88f8683660553e8ba4eb2ad7c91a1710d769",
        "gas": "0x16fec",
        "value": "0x0",
        "input": "0xe4849b320000000000000000000000000000000000000000000000337ec5054676892597",
        "nonce": "0x5ef",
        "chainId": "0xaa36a7"
      },
      "additionalContracts": [],
      "isFixedGasLimit": false
    }
  ],
  "receipts": [
    {
      "status": "0x1",
      "cumulativeGasUsed": "0x18c5ab8",
      "logs": [
        {
          "address": "0x270e88f8683660553e8ba4eb2ad7c91a1710d769",
          "topics": [
            "0xddf252ad1be2c89b69c2b068fc378daa952ba7f163c4a11628f55a4df523b3ef",
            "0x000000000000000000000000c77f7fed3b5cc8249adc428c5f44c9063b9734b4",
            "0x0000000000000000000000000000000000000000000000000000000000000000"
          ],
          "data": "0x0000000000000000000000000000000000000000000000337ec5054676892597",
          "blockHash": "0x0bf44e852aa62c9cc27f6a14fe0118630ab04d2dd25a65647fae0846db9f2f80",
          "blockNumber": "0x7252b5",
          "transactionHash": "0x475ef0f7c42de70b73935d481f1ff3f11815e1e6bf9a7d1028973616e0549cbf",
          "transactionIndex": "0x78",
          "logIndex": "0xe7",
          "removed": false
        },
        {
          "address": "0x270e88f8683660553e8ba4eb2ad7c91a1710d769",
          "topics": [
            "0x4afcb4a87cdbd9974efdb92ee48bc8d7cd0ae4bf217004db3d080cbaee652ca7"
          ],
          "data": "0x000000000000000000000000000000000000000000000000000000006786d2840000000000000000000000000000000000000000000000000003b709c51e14520000000000000000000000000000000000000000000000000dc83e267b06808a",
          "blockHash": "0x0bf44e852aa62c9cc27f6a14fe0118630ab04d2dd25a65647fae0846db9f2f80",
          "blockNumber": "0x7252b5",
          "transactionHash": "0x475ef0f7c42de70b73935d481f1ff3f11815e1e6bf9a7d1028973616e0549cbf",
          "transactionIndex": "0x78",
          "logIndex": "0xe8",
          "removed": false
        }
      ],
      "logsBloom": "0x00000000000000000000000000000000000000000000000000000000000000000000000000000000000000000000000020000000000000004000000000000000000000000000000000000008000000000000000000000000000000000000000000000000020000000000000000000800020000000000000000000010000000000000000000010000000000000000000000000000000000000000010000000000000000000000000000000000000000004000000000000000000000000000000000000002000000800000000000000000000000000000080000008000000020000000000000000000000000000000000000000000000000000000000000000000",
      "type": "0x2",
      "transactionHash": "0x475ef0f7c42de70b73935d481f1ff3f11815e1e6bf9a7d1028973616e0549cbf",
      "transactionIndex": "0x78",
      "blockHash": "0x0bf44e852aa62c9cc27f6a14fe0118630ab04d2dd25a65647fae0846db9f2f80",
      "blockNumber": "0x7252b5",
      "gasUsed": "0xfb93",
      "effectiveGasPrice": "0x2c8d7111e",
      "from": "0xc77f7fed3b5cc8249adc428c5f44c9063b9734b4",
      "to": "0x270e88f8683660553e8ba4eb2ad7c91a1710d769",
      "contractAddress": null
    }
  ],
  "libraries": [],
  "pending": [],
  "returns": {},
  "timestamp": 1736888966,
  "chain": 11155111,
  "commit": "51a374b"
}