{
  "transactions": [
    {
      "hash": "0xcc884c7649a0eb42bd143d8f4b934e2819c2c3bbd8e9690f0cac101fce3eb539",
      "transactionType": "CALL",
      "contractName": null,
      "contractAddress": "0x270e88f8683660553e8ba4eb2ad7c91a1710d769",
      "function": "buy(address)",
      "arguments": [
        "0xC77f7fed3b5Cc8249aDc428c5F44C9063B9734b4"
      ],
      "transaction": {
        "from": "0xc77f7fed3b5cc8249adc428c5f44c9063b9734b4",
        "to": "0x270e88f8683660553e8ba4eb2ad7c91a1710d769",
        "gas": "0x1b30c",
        "value": "0xde0b6b3a7640000",
        "input": "0xf088d547000000000000000000000000c77f7fed3b5cc8249adc428c5f44c9063b9734b4",
        "nonce": "0x632",
        "chainId": "0xaa36a7"
      },
      "additionalContracts": [],
      "isFixedGasLimit": false
    }
  ],
  "receipts": [
    {
      "status": "0x1",
      "cumulativeGasUsed": "0x676010",
      "logs": [
        {
          "address": "0x270e88f8683660553e8ba4eb2ad7c91a1710d769",
          "topics": [
            "0xddf252ad1be2c89b69c2b068fc378daa952ba7f163c4a11628f55a4df523b3ef",
            "0x0000000000000000000000000000000000000000000000000000000000000000",
            "0x000000000000000000000000c77f7fed3b5cc8249adc428c5f44c9063b9734b4"
          ],
          "data": "0x000000000000000000000000000000000000000000000032cece8cf71b55ec55",
          "blockHash": "0x40a7574ae0887b28d6de339be5d6084af68487fdacb15ec2e9fb6490b662f498",
          "blockNumber": "0x725303",
          "transactionHash": "0xcc884c7649a0eb42bd143d8f4b934e2819c2c3bbd8e9690f0cac101fce3eb539",
          "transactionIndex": "0x45",
          "logIndex": "0x78",
          "removed": false
        },
        {
          "address": "0x270e88f8683660553e8ba4eb2ad7c91a1710d769",
          "topics": [
            "0xddf252ad1be2c89b69c2b068fc378daa952ba7f163c4a11628f55a4df523b3ef",
            "0x0000000000000000000000000000000000000000000000000000000000000000",
            "0x000000000000000000000000c77f7fed3b5cc8249adc428c5f44c9063b9734b4"
          ],
          "data": "0x00000000000000000000000000000000000000000000000027743aaaeb537f50",
          "blockHash": "0x40a7574ae0887b28d6de339be5d6084af68487fdacb15ec2e9fb6490b662f498",
          "blockNumber": "0x725303",
          "transactionHash": "0xcc884c7649a0eb42bd143d8f4b934e2819c2c3bbd8e9690f0cac101fce3eb539",
          "transactionIndex": "0x45",
          "logIndex": "0x79",
          "removed": false
        },
        {
          "address": "0x270e88f8683660553e8ba4eb2ad7c91a1710d769",
          "topics": [
            "0x4afcb4a87cdbd9974efdb92ee48bc8d7cd0ae4bf217004db3d080cbaee652ca7"
          ],
          "data": "0x000000000000000000000000000000000000000000000000000000006786d62c0000000000000000000000000000000000000000000000000003c0cc4eb908460000000000000000000000000000000000000000000000000de0b6b3a7640000",
          "blockHash": "0x40a7574ae0887b28d6de339be5d6084af68487fdacb15ec2e9fb6490b662f498",
          "blockNumber": "0x725303",
          "transactionHash": "0xcc884c7649a0eb42bd143d8f4b934e2819c2c3bbd8e9690f0cac101fce3eb539",
          "transactionIndex": "0x45",
          "logIndex": "0x7a",
          "removed": false
        }
      ],
      "logsBloom": "0x00000000000000000000000000000000000000000000000000000000000000000000000000000000000000000000000020000000000000004000000000000000000000000000000000000008000000000000000000000000000000000000000000000000020000000000000000000800020000000000000000000010000000000000000000010000000000000000000000000000000000000000010000000000000000000000000000000000000000004000000000000000000000000000000000000002000000800000000000000000000000000000080000008000000020000000000000000000000000000000000000000000000000000000000000000000",
      "type": "0x2",
      "transactionHash": "0xcc884c7649a0eb42bd143d8f4b934e2819c2c3bbd8e9690f0cac101fce3eb539",
      "transactionIndex": "0x45",
      "blockHash": "0x40a7574ae0887b28d6de339be5d6084af68487fdacb15ec2e9fb6490b662f498",
      "blockNumber": "0x725303",
      "gasUsed": "0x13af8",
      "effectiveGasPrice": "0x2a88ee5ca",
      "from": "0xc77f7fed3b5cc8249adc428c5f44c9063b9734b4",
      "to": "0x270e88f8683660553e8ba4eb2ad7c91a1710d769",
      "contractAddress": null
    }
  ],
  "libraries": [],
  "pending": [],
  "returns": {},
  "timestamp": 1736889901,
  "chain": 11155111,
  "commit": "51a374b"
}