{
  "transactions": [
    {
      "hash": "0x07bd9eeaf8edb0a431dcdbb3e766f37a6a5e84d029b685acd5e225aea334eec7",
      "transactionType": "CALL",
      "contractName": null,
      "contractAddress": "0xbf4a322f1496e5c3d34a9bcdb4c60567b38c7de2",
      "function": "buy(address)",
      "arguments": [
        "0xC77f7fed3b5Cc8249aDc428c5F44C9063B9734b4"
      ],
      "transaction": {
        "from": "0xc77f7fed3b5cc8249adc428c5f44c9063b9734b4",
        "to": "0xbf4a322f1496e5c3d34a9bcdb4c60567b38c7de2",
        "gas": "0x1b309",
        "value": "0xde0b6b3a7640000",
        "input": "0xf088d547000000000000000000000000c77f7fed3b5cc8249adc428c5f44c9063b9734b4",
        "nonce": "0x9ec",
        "chainId": "0xaa36a7"
      },
      "additionalContracts": [],
      "isFixedGasLimit": false
    }
  ],
  "receipts": [
    {
      "status": "0x1",
      "cumulativeGasUsed": "0x64959b",
      "logs": [
        {
          "address": "0xbf4a322f1496e5c3d34a9bcdb4c60567b38c7de2",
          "topics": [
            "0xddf252ad1be2c89b69c2b068fc378daa952ba7f163c4a11628f55a4df523b3ef",
            "0x0000000000000000000000000000000000000000000000000000000000000000",
            "0x000000000000000000000000c77f7fed3b5cc8249adc428c5f44c9063b9734b4"
          ],
          "data": "0x0000000000000000000000000000000000000000000000355efbb8ff96af66bc",
          "blockHash": "0xf841b86067370c070c42a4eeeb331f94c30b39223b1457c6c94c1237320f92bd",
          "blockNumber": "0x7259a1",
          "transactionHash": "0x07bd9eeaf8edb0a431dcdbb3e766f37a6a5e84d029b685acd5e225aea334eec7",
          "transactionIndex": "0x4f",
          "logIndex": "0x57",
          "removed": false
        },
        {
          "address": "0xbf4a322f1496e5c3d34a9bcdb4c60567b38c7de2",
          "topics": [
            "0xddf252ad1be2c89b69c2b068fc378daa952ba7f163c4a11628f55a4df523b3ef",
            "0x0000000000000000000000000000000000000000000000000000000000000000",
            "0x000000000000000000000000c77f7fed3b5cc8249adc428c5f44c9063b9734b4"
          ],
          "data": "0x0000000000000000000000000000000000000000000000002971c5c70c38b8d8",
          "blockHash": "0xf841b86067370c070c42a4eeeb331f94c30b39223b1457c6c94c1237320f92bd",
          "blockNumber": "0x7259a1",
          "transactionHash": "0x07bd9eeaf8edb0a431dcdbb3e766f37a6a5e84d029b685acd5e225aea334eec7",
          "transactionIndex": "0x4f",
          "logIndex": "0x58",
          "removed": false
        },
        {
          "address": "0xbf4a322f1496e5c3d34a9bcdb4c60567b38c7de2",
          "topics": [
            "0x4afcb4a87cdbd9974efdb92ee48bc8d7cd0ae4bf217004db3d080cbaee652ca7"
          ],
          "data": "0x00000000000000000000000000000000000000000000000000000000678725c4000000000000000000000000000000000000000000000000000392908a5a9f830000000000000000000000000000000000000000000000000de0b6b3a7640000",
          "blockHash": "0xf841b86067370c070c42a4eeeb331f94c30b39223b1457c6c94c1237320f92bd",
          "blockNumber": "0x7259a1",
          "transactionHash": "0x07bd9eeaf8edb0a431dcdbb3e766f37a6a5e84d029b685acd5e225aea334eec7",
          "transactionIndex": "0x4f",
          "logIndex": "0x59",
          "removed": false
        }
      ],
      "logsBloom": "0x00000000000000000000000000000000000000000000000000000000000000000000000000000000000000000000000000000000000000004000000000000000000000000000000000000008000000000000001000000000000000000000000000000000020000000000000000000800020000000000000000000010000000000000000000000000000000000000000000000000000008000000010000000000000000000000000000000000000000004000000000000000000000000000000000000002000000800000000000001000000000000000080000000000000020000000000000000000000000000000000000000000000000000000000000000000",
      "type": "0x2",
      "transactionHash": "0x07bd9eeaf8edb0a431dcdbb3e766f37a6a5e84d029b685acd5e225aea334eec7",
      "transactionIndex": "0x4f",
      "blockHash": "0xf841b86067370c070c42a4eeeb331f94c30b39223b1457c6c94c1237320f92bd",
      "blockNumber": "0x7259a1",
      "gasUsed": "0x13af6",
      "effectiveGasPrice": "0x27004111b",
      "from": "0xc77f7fed3b5cc8249adc428c5f44c9063b9734b4",
      "to": "0xbf4a322f1496e5c3d34a9bcdb4c60567b38c7de2",
      "contractAddress": null
    }
  ],
  "libraries": [],
  "pending": [],
  "returns": {},
  "timestamp": 1736910278,
  "chain": 11155111,
  "commit": "51a374b"
}