{
  "transactions": [
    {
      "hash": "0x83317477f2d866d9474b72dd0e6a19d500b00f6346ac7c1a72ebf51f512d1240",
      "transactionType": "CALL",
      "contractName": null,
      "contractAddress": "0x8aafd3ede9adb0ff97c7aebce82a919afb1c8764",
      "function": "sell(uint256)",
      "arguments": [
        "15885595310163078"
      ],
      "transaction": {
        "from": "0xc77f7fed3b5cc8249adc428c5f44c9063b9734b4",
        "to": "0x8aafd3ede9adb0ff97c7aebce82a919afb1c8764",
        "gas": "0x1724d",
        "value": "0x0",
        "input": "0xe4849b3200000000000000000000000000000000000000000000000000386fdd61820486",
        "nonce": "0x140e",
        "chainId": "0xaa36a7"
      },
      "additionalContracts": [],
      "isFixedGasLimit": false
    }
  ],
  "receipts": [
    {
      "status": "0x1",
      "cumulativeGasUsed": "0x11d675b",
      "logs": [
        {
          "address": "0x8aafd3ede9adb0ff97c7aebce82a919afb1c8764",
          "topics": [
            "0xddf252ad1be2c89b69c2b068fc378daa952ba7f163c4a11628f55a4df523b3ef",
            "0x000000000000000000000000c77f7fed3b5cc8249adc428c5f44c9063b9734b4",
            "0x0000000000000000000000000000000000000000000000000000000000000000"
          ],
          "data": "0x0000000000000000000000000000000000000000000000000037fc48276241ee",
          "blockHash": "0x366e53d039f19c329336817df082375e7f0686353330c1752030297509f7c676",
          "blockNumber": "0x731b48",
          "transactionHash": "0x83317477f2d866d9474b72dd0e6a19d500b00f6346ac7c1a72ebf51f512d1240",
          "transactionIndex": "0xa3",
          "logIndex": "0x72",
          "removed": false
        },
        {
          "address": "0x8aafd3ede9adb0ff97c7aebce82a919afb1c8764",
          "topics": [
            "0xddf252ad1be2c89b69c2b068fc378daa952ba7f163c4a11628f55a4df523b3ef",
            "0x000000000000000000000000c77f7fed3b5cc8249adc428c5f44c9063b9734b4",
            "0x000000000000000000000000c77f7fed3b5cc8249adc428c5f44c9063b9734b4"
          ],
          "data": "0x000000000000000000000000000000000000000000000000000073953a1fc298",
          "blockHash": "0x366e53d039f19c329336817df082375e7f0686353330c1752030297509f7c676",
          "blockNumber": "0x731b48",
          "transactionHash": "0x83317477f2d866d9474b72dd0e6a19d500b00f6346ac7c1a72ebf51f512d1240",
          "transactionIndex": "0xa3",
          "logIndex": "0x73",
          "removed": false
        },
        {
          "address": "0x8aafd3ede9adb0ff97c7aebce82a919afb1c8764",
          "topics": [
            "0x4afcb4a87cdbd9974efdb92ee48bc8d7cd0ae4bf217004db3d080cbaee652ca7"
          ],
          "data": "0x0000000000000000000000000000000000000000000000000000000067904430000000000000000000000000000000000000000000000000000e50d2e23d166100000000000000000000000000000000000000000000000000003a37c76e6f7e",
          "blockHash": "0x366e53d039f19c329336817df082375e7f0686353330c1752030297509f7c676",
          "blockNumber": "0x731b48",
          "transactionHash": "0x83317477f2d866d9474b72dd0e6a19d500b00f6346ac7c1a72ebf51f512d1240",
          "transactionIndex": "0xa3",
          "logIndex": "0x74",
          "removed": false
        }
      ],
      "logsBloom": "0x00000000000000000000000000000000000000000600000000000000000000000000000000000000000000000000000000000000000000004000000000000000000000000000004000000008000000000000000000000000000000000000000000000000020000000000000000000800020000000000000000000010000000000000000000000000000000000000000000000000000000000000010000000000000000000000000000000000000000004000000000000000000000000000000000000002000000800000000000000000000000000000080000000000000020000000000000000000000000000000000000000000000000000000000000000000",
      "type": "0x2",
      "transactionHash": "0x83317477f2d866d9474b72dd0e6a19d500b00f6346ac7c1a72ebf51f512d1240",
      "transactionIndex": "0xa3",
      "blockHash": "0x366e53d039f19c329336817df082375e7f0686353330c1752030297509f7c676",
      "blockNumber": "0x731b48",
      "gasUsed": "0xfd33",
      "effectiveGasPrice": "0xcadb02c3",
      "from": "0xc77f7fed3b5cc8249adc428c5f44c9063b9734b4",
      "to": "0x8aafd3ede9adb0ff97c7aebce82a919afb1c8764",
      "contractAddress": null
    }
  ],
  "libraries": [],
  "pending": [],
  "returns": {},
  "timestamp": 1737507888,
  "chain": 11155111,
  "commit": "1d2fb70"
}