{
  "transactions": [
    {
      "hash": "0x541bb433c24ba99b356ba391419b50600d0846785c936317012be9f751527f65",
      "transactionType": "CALL",
      "contractName": null,
      "contractAddress": "0xbf4a322f1496e5c3d34a9bcdb4c60567b38c7de2",
      "function": "sell(uint256)",
      "arguments": [
        "985141626441111903575"
      ],
      "transaction": {
        "from": "0xc77f7fed3b5cc8249adc428c5f44c9063b9734b4",
        "to": "0xbf4a322f1496e5c3d34a9bcdb4c60567b38c7de2",
        "gas": "0x16fea",
        "value": "0x0",
        "input": "0xe4849b32000000000000000000000000000000000000000000000035679621be810b1d57",
        "nonce": "0xa9b",
        "chainId": "0xaa36a7"
      },
      "additionalContracts": [],
      "isFixedGasLimit": false
    }
  ],
  "receipts": [
    {
      "status": "0x1",
      "cumulativeGasUsed": "0xb50951",
      "logs": [
        {
          "address": "0xbf4a322f1496e5c3d34a9bcdb4c60567b38c7de2",
          "topics": [
            "0xddf252ad1be2c89b69c2b068fc378daa952ba7f163c4a11628f55a4df523b3ef",
            "0x000000000000000000000000c77f7fed3b5cc8249adc428c5f44c9063b9734b4",
            "0x0000000000000000000000000000000000000000000000000000000000000000"
          ],
          "data": "0x000000000000000000000000000000000000000000000035679621be810b1d57",
          "blockHash": "0x099edc8169e3277e7af7f8a50951094983a99f2b23174441819c23f020fe667e",
          "blockNumber": "0x725a83",
          "transactionHash": "0x541bb433c24ba99b356ba391419b50600d0846785c936317012be9f751527f65",
          "transactionIndex": "0x52",
          "logIndex": "0x6f",
          "removed": false
        },
        {
          "address": "0xbf4a322f1496e5c3d34a9bcdb4c60567b38c7de2",
          "topics": [
            "0x4afcb4a87cdbd9974efdb92ee48bc8d7cd0ae4bf217004db3d080cbaee652ca7"
          ],
          "data": "0x0000000000000000000000000000000000000000000000000000000067873074000000000000000000000000000000000000000000000000000394c7157f57f10000000000000000000000000000000000000000000000000dc7e3ee054b156a",
          "blockHash": "0x099edc8169e3277e7af7f8a50951094983a99f2b23174441819c23f020fe667e",
          "blockNumber": "0x725a83",
          "transactionHash": "0x541bb433c24ba99b356ba391419b50600d0846785c936317012be9f751527f65",
          "transactionIndex": "0x52",
          "logIndex": "0x70",
          "removed": false
        }
      ],
      "logsBloom": "0x00000000000000000000000000000000000000000000000000000000000000000000000000000000000000000000000000000000000000004000000000000000000000000000000000000008000000000000001000000000000000000000000000000000020000000000000000000800020000000000000000000010000000000000000000000000000000000000000000000000000008000000010000000000000000000000000000000000000000004000000000000000000000000000000000000002000000800000000000001000000000000000080000000000000020000000000000000000000000000000000000000000000000000000000000000000",
      "type": "0x2",
      "transactionHash": "0x541bb433c24ba99b356ba391419b50600d0846785c936317012be9f751527f65",
      "transactionIndex": "0x52",
      "blockHash": "0x099edc8169e3277e7af7f8a50951094983a99f2b23174441819c23f020fe667e",
      "blockNumber": "0x725a83",
      "gasUsed": "0xfb91",
      "effectiveGasPrice": "0x1c5764dea",
      "from": "0xc77f7fed3b5cc8249adc428c5f44c9063b9734b4",
      "to": "0xbf4a322f1496e5c3d34a9bcdb4c60567b38c7de2",
      "contractAddress": null
    }
  ],
  "libraries": [],
  "pending": [],
  "returns": {},
  "timestamp": 1736913014,
  "chain": 11155111,
  "commit": "51a374b"
}