{
  "transactions": [
    {
      "hash": "0xbf786da402bb0fb5ef6a436ebef34b822b6c431bf4d48a284d83e4f97a00b0bd",
      "transactionType": "CALL",
      "contractName": null,
      "contractAddress": "0xbf4a322f1496e5c3d34a9bcdb4c60567b38c7de2",
      "function": "sell(uint256)",
      "arguments": [
        "984545005794004740549"
      ],
      "transaction": {
        "from": "0xc77f7fed3b5cc8249adc428c5f44c9063b9734b4",
        "to": "0xbf4a322f1496e5c3d34a9bcdb4c60567b38c7de2",
        "gas": "0x16fea",
        "value": "0x0",
        "input": "0xe4849b320000000000000000000000000000000000000000000000355f4e826d388ea9c5",
        "nonce": "0xac7",
        "chainId": "0xaa36a7"
      },
      "additionalContracts": [],
      "isFixedGasLimit": false
    }
  ],
  "receipts": [
    {
      "status": "0x1",
      "cumulativeGasUsed": "0xab933a",
      "logs": [
        {
          "address": "0xbf4a322f1496e5c3d34a9bcdb4c60567b38c7de2",
          "topics": [
            "0xddf252ad1be2c89b69c2b068fc378daa952ba7f163c4a11628f55a4df523b3ef",
            "0x000000000000000000000000c77f7fed3b5cc8249adc428c5f44c9063b9734b4",
            "0x0000000000000000000000000000000000000000000000000000000000000000"
          ],
          "data": "0x0000000000000000000000000000000000000000000000355f4e826d388ea9c5",
          "blockHash": "0x0858cc1ff4616ce3cf5a3bce06584930ef27dcdd95c69fc6e71dcc38d32bd825",
          "blockNumber": "0x725ab7",
          "transactionHash": "0xbf786da402bb0fb5ef6a436ebef34b822b6c431bf4d48a284d83e4f97a00b0bd",
          "transactionIndex": "0x5f",
          "logIndex": "0x99",
          "removed": false
        },
        {
          "address": "0xbf4a322f1496e5c3d34a9bcdb4c60567b38c7de2",
          "topics": [
            "0x4afcb4a87cdbd9974efdb92ee48bc8d7cd0ae4bf217004db3d080cbaee652ca7"
          ],
          "data": "0x00000000000000000000000000000000000000000000000000000000678732e4000000000000000000000000000000000000000000000000000395554d51f1200000000000000000000000000000000000000000000000000dc7e3eca22f4bc6",
          "blockHash": "0x0858cc1ff4616ce3cf5a3bce06584930ef27dcdd95c69fc6e71dcc38d32bd825",
          "blockNumber": "0x725ab7",
          "transactionHash": "0xbf786da402bb0fb5ef6a436ebef34b822b6c431bf4d48a284d83e4f97a00b0bd",
          "transactionIndex": "0x5f",
          "logIndex": "0x9a",
          "removed": false
        }
      ],
      "logsBloom": "0x00000000000000000000000000000000000000000000000000000000000000000000000000000000000000000000000000000000000000004000000000000000000000000000000000000008000000000000001000000000000000000000000000000000020000000000000000000800020000000000000000000010000000000000000000000000000000000000000000000000000008000000010000000000000000000000000000000000000000004000000000000000000000000000000000000002000000800000000000001000000000000000080000000000000020000000000000000000000000000000000000000000000000000000000000000000",
      "type": "0x2",
      "transactionHash": "0xbf786da402bb0fb5ef6a436ebef34b822b6c431bf4d48a284d83e4f97a00b0bd",
      "transactionIndex": "0x5f",
      "blockHash": "0x0858cc1ff4616ce3cf5a3bce06584930ef27dcdd95c69fc6e71dcc38d32bd825",
      "blockNumber": "0x725ab7",
      "gasUsed": "0xfb91",
      "effectiveGasPrice": "0xfd47554b",
      "from": "0xc77f7fed3b5cc8249adc428c5f44c9063b9734b4",
      "to": "0xbf4a322f1496e5c3d34a9bcdb4c60567b38c7de2",
      "contractAddress": null
    }
  ],
  "libraries": [],
  "pending": [],
  "returns": {},
  "timestamp": 1736913637,
  "chain": 11155111,
  "commit": "51a374b"
}