{
  "transactions": [
    {
      "hash": "0xe1298f3e479865c729fc34b9fe03c86cb3b1386de41af387f03ad0e0175c09bd",
      "transactionType": "CALL",
      "contractName": null,
      "contractAddress": "0x8aafd3ede9adb0ff97c7aebce82a919afb1c8764",
      "function": "sell(uint256)",
      "arguments": [
        "116150869591979"
      ],
      "transaction": {
        "from": "0xc77f7fed3b5cc8249adc428c5f44c9063b9734b4",
        "to": "0x8aafd3ede9adb0ff97c7aebce82a919afb1c8764",
        "gas": "0x15daa",
        "value": "0x0",
        "input": "0xe4849b32000000000000000000000000000000000000000000000000000069a37b5287ab",
        "nonce": "0x1484",
        "chainId": "0xaa36a7"
      },
      "additionalContracts": [],
      "isFixedGasLimit": false
    }
  ],
  "receipts": [
    {
      "status": "0x1",
      "cumulativeGasUsed": "0xdd3865",
      "logs": [
        {
          "address": "0x8aafd3ede9adb0ff97c7aebce82a919afb1c8764",
          "topics": [
            "0xddf252ad1be2c89b69c2b068fc378daa952ba7f163c4a11628f55a4df523b3ef",
            "0x000000000000000000000000c77f7fed3b5cc8249adc428c5f44c9063b9734b4",
            "0x0000000000000000000000000000000000000000000000000000000000000000"
          ],
          "data": "0x000000000000000000000000000000000000000000000000000068cb224594ec",
          "blockHash": "0xf97b6ffb02762ff969d5827615e3c0395a80e4f1ddc9e2b545735915472b7ecd",
          "blockNumber": "0x731bd2",
          "transactionHash": "0xe1298f3e479865c729fc34b9fe03c86cb3b1386de41af387f03ad0e0175c09bd",
          "transactionIndex": "0x68",
          "logIndex": "0x9d",
          "removed": false
        },
        {
          "address": "0x8aafd3ede9adb0ff97c7aebce82a919afb1c8764",
          "topics": [
            "0xddf252ad1be2c89b69c2b068fc378daa952ba7f163c4a11628f55a4df523b3ef",
            "0x000000000000000000000000c77f7fed3b5cc8249adc428c5f44c9063b9734b4",
            "0x000000000000000000000000c77f7fed3b5cc8249adc428c5f44c9063b9734b4"
          ],
          "data": "0x000000000000000000000000000000000000000000000000000000d8590cf2bf",
          "blockHash": "0xf97b6ffb02762ff969d5827615e3c0395a80e4f1ddc9e2b545735915472b7ecd",
          "blockNumber": "0x731bd2",
          "transactionHash": "0xe1298f3e479865c729fc34b9fe03c86cb3b1386de41af387f03ad0e0175c09bd",
          "transactionIndex": "0x68",
          "logIndex": "0x9e",
          "removed": false
        },
        {
          "address": "0x8aafd3ede9adb0ff97c7aebce82a919afb1c8764",
          "topics": [
            "0x4afcb4a87cdbd9974efdb92ee48bc8d7cd0ae4bf217004db3d080cbaee652ca7"
          ],
          "data": "0x0000000000000000000000000000000000000000000000000000000067904ab4000000000000000000000000000000000000000000000000000fa77968cca029000000000000000000000000000000000000000000000000000000772925e266",
          "blockHash": "0xf97b6ffb02762ff969d5827615e3c0395a80e4f1ddc9e2b545735915472b7ecd",
          "blockNumber": "0x731bd2",
          "transactionHash": "0xe1298f3e479865c729fc34b9fe03c86cb3b1386de41af387f03ad0e0175c09bd",
          "transactionIndex": "0x68",
          "logIndex": "0x9f",
          "removed": false
        }
      ],
      "logsBloom": "0x00000000000000000000000000000000000000000600000000000000000000000000000000000000000000000000000000000000000000004000000000000000000000000000004000000008000000000000000000000000000000000000000000000000020000000000000000000800020000000000000000000010000000000000000000000000000000000000000000000000000000000000010000000000000000000000000000000000000000004000000000000000000000000000000000000002000000800000000000000000000000000000080000000000000020000000000000000000000000000000000000000000000000000000000000000000",
      "type": "0x2",
      "transactionHash": "0xe1298f3e479865c729fc34b9fe03c86cb3b1386de41af387f03ad0e0175c09bd",
      "transactionIndex": "0x68",
      "blockHash": "0xf97b6ffb02762ff969d5827615e3c0395a80e4f1ddc9e2b545735915472b7ecd",
      "blockNumber": "0x731bd2",
      "gasUsed": "0xfd27",
      "effectiveGasPrice": "0x10270270c",
      "from": "0xc77f7fed3b5cc8249adc428c5f44c9063b9734b4",
      "to": "0x8aafd3ede9adb0ff97c7aebce82a919afb1c8764",
      "contractAddress": null
    }
  ],
  "libraries": [],
  "pending": [],
  "returns": {},
  "timestamp": 1737509559,
  "chain": 11155111,
  "commit": "1d2fb70"
}