{
  "transactions": [
    {
      "hash": "0xabf062e26496955d9fb20c3ca1112a3312ea6f9a0b82dd7335ea84a192be4254",
      "transactionType": "CALL",
      "contractName": null,
      "contractAddress": "0x8aafd3ede9adb0ff97c7aebce82a919afb1c8764",
      "function": "sell(uint256)",
      "arguments": [
        "1187399534371"
      ],
      "transaction": {
        "from": "0xc77f7fed3b5cc8249adc428c5f44c9063b9734b4",
        "to": "0x8aafd3ede9adb0ff97c7aebce82a919afb1c8764",
        "gas": "0x15daa",
        "value": "0x0",
        "input": "0xe4849b320000000000000000000000000000000000000000000000000000011476870723",
        "nonce": "0x135c",
        "chainId": "0xaa36a7"
      },
      "additionalContracts": [],
      "isFixedGasLimit": false
    }
  ],
  "receipts": [
    {
      "status": "0x1",
      "cumulativeGasUsed": "0xc081e2",
      "logs": [
        {
          "address": "0x8aafd3ede9adb0ff97c7aebce82a919afb1c8764",
          "topics": [
            "0xddf252ad1be2c89b69c2b068fc378daa952ba7f163c4a11628f55a4df523b3ef",
            "0x000000000000000000000000c77f7fed3b5cc8249adc428c5f44c9063b9734b4",
            "0x0000000000000000000000000000000000000000000000000000000000000000"
          ],
          "data": "0x000000000000000000000000000000000000000000000000000001124054cbb1",
          "blockHash": "0x20a4c30294b9b1c9f84db2ea67400b65f2aba4f7741cf289dc7142ff1f120b0a",
          "blockNumber": "0x731a7a",
          "transactionHash": "0xabf062e26496955d9fb20c3ca1112a3312ea6f9a0b82dd7335ea84a192be4254",
          "transactionIndex": "0x8c",
          "logIndex": "0x99",
          "removed": false
        },
        {
          "address": "0x8aafd3ede9adb0ff97c7aebce82a919afb1c8764",
          "topics": [
            "0xddf252ad1be2c89b69c2b068fc378daa952ba7f163c4a11628f55a4df523b3ef",
            "0x000000000000000000000000c77f7fed3b5cc8249adc428c5f44c9063b9734b4",
            "0x000000000000000000000000c77f7fed3b5cc8249adc428c5f44c9063b9734b4"
          ],
          "data": "0x0000000000000000000000000000000000000000000000000000000236323b72",
          "blockHash": "0x20a4c30294b9b1c9f84db2ea67400b65f2aba4f7741cf289dc7142ff1f120b0a",
          "blockNumber": "0x731a7a",
          "transactionHash": "0xabf062e26496955d9fb20c3ca1112a3312ea6f9a0b82dd7335ea84a192be4254",
          "transactionIndex": "0x8c",
          "logIndex": "0x9a",
          "removed": false
        },
        {
          "address": "0x8aafd3ede9adb0ff97c7aebce82a919afb1c8764",
          "topics": [
            "0x4afcb4a87cdbd9974efdb92ee48bc8d7cd0ae4bf217004db3d080cbaee652ca7"
          ],
          "data": "0x0000000000000000000000000000000000000000000000000000000067903a88000000000000000000000000000000000000000000000000000c456f1787712d00000000000000000000000000000000000000000000000000000000f4755156",
          "blockHash": "0x20a4c30294b9b1c9f84db2ea67400b65f2aba4f7741cf289dc7142ff1f120b0a",
          "blockNumber": "0x731a7a",
          "transactionHash": "0xabf062e26496955d9fb20c3ca1112a3312ea6f9a0b82dd7335ea84a192be4254",
          "transactionIndex": "0x8c",
          "logIndex": "0x9b",
          "removed": false
        }
      ],
      "logsBloom": "0x00000000000000000000000000000000000000000600000000000000000000000000000000000000000000000000000000000000000000004000000000000000000000000000004000000008000000000000000000000000000000000000000000000000020000000000000000000800020000000000000000000010000000000000000000000000000000000000000000000000000000000000010000000000000000000000000000000000000000004000000000000000000000000000000000000002000000800000000000000000000000000000080000000000000020000000000000000000000000000000000000000000000000000000000000000000",
      "type": "0x2",
      "transactionHash": "0xabf062e26496955d9fb20c3ca1112a3312ea6f9a0b82dd7335ea84a192be4254",
      "transactionIndex": "0x8c",
      "blockHash": "0x20a4c30294b9b1c9f84db2ea67400b65f2aba4f7741cf289dc7142ff1f120b0a",
      "blockNumber": "0x731a7a",
      "gasUsed": "0xfd27",
      "effectiveGasPrice": "0x434ed127",
      "from": "0xc77f7fed3b5cc8249adc428c5f44c9063b9734b4",
      "to": "0x8aafd3ede9adb0ff97c7aebce82a919afb1c8764",
      "contractAddress": null
    }
  ],
  "libraries": [],
  "pending": [],
  "returns": {},
  "timestamp": 1737505419,
  "chain": 11155111,
  "commit": "1d2fb70"
}