{
  "transactions": [
    {
      "hash": "0x6a4b300bd0b22a5bcb6c672143b0521e7857761315334d5ad4c75e151a587977",
      "transactionType": "CALL",
      "contractName": null,
      "contractAddress": "0xbf4a322f1496e5c3d34a9bcdb4c60567b38c7de2",
      "function": "sell(uint256)",
      "arguments": [
        "973662902200155562362"
      ],
      "transaction": {
        "from": "0xc77f7fed3b5cc8249adc428c5f44c9063b9734b4",
        "to": "0xbf4a322f1496e5c3d34a9bcdb4c60567b38c7de2",
        "gas": "0x16fea",
        "value": "0x0",
        "input": "0xe4849b32000000000000000000000000000000000000000000000034c84982dd282ce17a",
        "nonce": "0xdf3",
        "chainId": "0xaa36a7"
      },
      "additionalContracts": [],
      "isFixedGasLimit": false
    }
  ],
  "receipts": [
    {
      "status": "0x1",
      "cumulativeGasUsed": "0x126ebfc",
      "logs": [
        {
          "address": "0xbf4a322f1496e5c3d34a9bcdb4c60567b38c7de2",
          "topics": [
            "0xddf252ad1be2c89b69c2b068fc378daa952ba7f163c4a11628f55a4df523b3ef",
            "0x000000000000000000000000c77f7fed3b5cc8249adc428c5f44c9063b9734b4",
            "0x0000000000000000000000000000000000000000000000000000000000000000"
          ],
          "data": "0x000000000000000000000000000000000000000000000034c84982dd282ce17a",
          "blockHash": "0xba6bb69dc7395eabec2b193804687c449809640dccdcedf41159f155003b9e73",
          "blockNumber": "0x7266d6",
          "transactionHash": "0x6a4b300bd0b22a5bcb6c672143b0521e7857761315334d5ad4c75e151a587977",
          "transactionIndex": "0x80",
          "logIndex": "0xd6",
          "removed": false
        },
        {
          "address": "0xbf4a322f1496e5c3d34a9bcdb4c60567b38c7de2",
          "topics": [
            "0x4afcb4a87cdbd9974efdb92ee48bc8d7cd0ae4bf217004db3d080cbaee652ca7"
          ],
          "data": "0x000000000000000000000000000000000000000000000000000000006787c53c00000000000000000000000000000000000000000000000000039f95e11ae3920000000000000000000000000000000000000000000000000dc7e3d3550d3539",
          "blockHash": "0xba6bb69dc7395eabec2b193804687c449809640dccdcedf41159f155003b9e73",
          "blockNumber": "0x7266d6",
          "transactionHash": "0x6a4b300bd0b22a5bcb6c672143b0521e7857761315334d5ad4c75e151a587977",
          "transactionIndex": "0x80",
          "logIndex": "0xd7",
          "removed": false
        }
      ],
      "logsBloom": "0x00000000000000000000000000000000000000000000000000000000000000000000000000000000000000000000000000000000000000004000000000000000000000000000000000000008000000000000001000000000000000000000000000000000020000000000000000000800020000000000000000000010000000000000000000000000000000000000000000000000000008000000010000000000000000000000000000000000000000004000000000000000000000000000000000000002000000800000000000001000000000000000080000000000000020000000000000000000000000000000000000000000000000000000000000000000",
      "type": "0x2",
      "transactionHash": "0x6a4b300bd0b22a5bcb6c672143b0521e7857761315334d5ad4c75e151a587977",
      "transactionIndex": "0x80",
      "blockHash": "0xba6bb69dc7395eabec2b193804687c449809640dccdcedf41159f155003b9e73",
      "blockNumber": "0x7266d6",
      "gasUsed": "0xfb91",
      "effectiveGasPrice": "0x311e96dc4",
      "from": "0xc77f7fed3b5cc8249adc428c5f44c9063b9734b4",
      "to": "0xbf4a322f1496e5c3d34a9bcdb4c60567b38c7de2",
      "contractAddress": null
    }
  ],
  "libraries": [],
  "pending": [],
  "returns": {},
  "timestamp": 1736951101,
  "chain": 11155111,
  "commit": "51a374b"
}