{
  "transactions": [
    {
      "hash": "0xfd144cf3479a9ae431600bbf2d14ae0fa3f47aac958010deab7797bfcfe6ceae",
      "transactionType": "CALL",
      "contractName": null,
      "contractAddress": "0x8aafd3ede9adb0ff97c7aebce82a919afb1c8764",
      "function": "sell(uint256)",
      "arguments": [
        "150241776169893551417"
      ],
      "transaction": {
        "from": "0xc77f7fed3b5cc8249adc428c5f44c9063b9734b4",
        "to": "0x8aafd3ede9adb0ff97c7aebce82a919afb1c8764",
        "gas": "0x17270",
        "value": "0x0",
        "input": "0xe4849b32000000000000000000000000000000000000000000000008250603695640dd39",
        "nonce": "0x172d",
        "chainId": "0xaa36a7"
      },
      "additionalContracts": [],
      "isFixedGasLimit": false
    }
  ],
  "receipts": [
    {
      "status": "0x1",
      "cumulativeGasUsed": "0xaba6d7",
      "logs": [
        {
          "address": "0x8aafd3ede9adb0ff97c7aebce82a919afb1c8764",
          "topics": [
            "0xddf252ad1be2c89b69c2b068fc378daa952ba7f163c4a11628f55a4df523b3ef",
            "0x000000000000000000000000c77f7fed3b5cc8249adc428c5f44c9063b9734b4",
            "0x0000000000000000000000000000000000000000000000000000000000000000"
          ],
          "data": "0x0000000000000000000000000000000000000000000000081457e29dbe02e7be",
          "blockHash": "0x2ef29557329edf64906ec02092f0b86f05fee44d251765f6b3a3e73d64c8a7db",
          "blockNumber": "0x731ef6",
          "transactionHash": "0xfd144cf3479a9ae431600bbf2d14ae0fa3f47aac958010deab7797bfcfe6ceae",
          "transactionIndex": "0x6a",
          "logIndex": "0x8a",
          "removed": false
        },
        {
          "address": "0x8aafd3ede9adb0ff97c7aebce82a919afb1c8764",
          "topics": [
            "0xddf252ad1be2c89b69c2b068fc378daa952ba7f163c4a11628f55a4df523b3ef",
            "0x000000000000000000000000c77f7fed3b5cc8249adc428c5f44c9063b9734b4",
            "0x000000000000000000000000c77f7fed3b5cc8249adc428c5f44c9063b9734b4"
          ],
          "data": "0x00000000000000000000000000000000000000000000000010ae20cb983df57b",
          "blockHash": "0x2ef29557329edf64906ec02092f0b86f05fee44d251765f6b3a3e73d64c8a7db",
          "blockNumber": "0x731ef6",
          "transactionHash": "0xfd144cf3479a9ae431600bbf2d14ae0fa3f47aac958010deab7797bfcfe6ceae",
          "transactionIndex": "0x6a",
          "logIndex": "0x8b",
          "removed": false
        },
        {
          "address": "0x8aafd3ede9adb0ff97c7aebce82a919afb1c8764",
          "topics": [
            "0x4afcb4a87cdbd9974efdb92ee48bc8d7cd0ae4bf217004db3d080cbaee652ca7"
          ],
          "data": "0x0000000000000000000000000000000000000000000000000000000067907070000000000000000000000000000000000000000000000000001795fa5257a3af0000000000000000000000000000000000000000000000000dcbe827a3c89561",
          "blockHash": "0x2ef29557329edf64906ec02092f0b86f05fee44d251765f6b3a3e73d64c8a7db",
          "blockNumber": "0x731ef6",
          "transactionHash": "0xfd144cf3479a9ae431600bbf2d14ae0fa3f47aac958010deab7797bfcfe6ceae",
          "transactionIndex": "0x6a",
          "logIndex": "0x8c",
          "removed": false
        }
      ],
      "logsBloom": "0x00000000000000000000000000000000000000000600000000000000000000000000000000000000000000000000000000000000000000004000000000000000000000000000004000000008000000000000000000000000000000000000000000000000020000000000000000000800020000000000000000000010000000000000000000000000000000000000000000000000000000000000010000000000000000000000000000000000000000004000000000000000000000000000000000000002000000800000000000000000000000000000080000000000000020000000000000000000000000000000000000000000000000000000000000000000",
      "type": "0x2",
      "transactionHash": "0xfd144cf3479a9ae431600bbf2d14ae0fa3f47aac958010deab7797bfcfe6ceae",
      "transactionIndex": "0x6a",
      "blockHash": "0x2ef29557329edf64906ec02092f0b86f05fee44d251765f6b3a3e73d64c8a7db",
      "blockNumber": "0x731ef6",
      "gasUsed": "0xfd4b",
      "effectiveGasPrice": "0x3e97fbe9",
      "from": "0xc77f7fed3b5cc8249adc428c5f44c9063b9734b4",
      "to": "0x8aafd3ede9adb0ff97c7aebce82a919afb1c8764",
      "contractAddress": null
    }
  ],
  "libraries": [],
  "pending": [],
  "returns": {},
  "timestamp": 1737519217,
  "chain": 11155111,
  "commit": "1d2fb70"
}