{
  "transactions": [
    {
      "hash": "0x82647b02faace426983771bba1a9eb505f785f8f144e16e5b9de502c193f4df0",
      "transactionType": "CALL",
      "contractName": null,
      "contractAddress": "0x8aafd3ede9adb0ff97c7aebce82a919afb1c8764",
      "function": "sell(uint256)",
      "arguments": [
        "2790660961694"
      ],
      "transaction": {
        "from": "0xc77f7fed3b5cc8249adc428c5f44c9063b9734b4",
        "to": "0x8aafd3ede9adb0ff97c7aebce82a919afb1c8764",
        "gas": "0x15daa",
        "value": "0x0",
        "input": "0xe4849b3200000000000000000000000000000000000000000000000000000289c05af59e",
        "nonce": "0x11f3",
        "chainId": "0xaa36a7"
      },
      "additionalContracts": [],
      "isFixedGasLimit": false
    }
  ],
  "receipts": [
    {
      "status": "0x1",
      "cumulativeGasUsed": "0x8bd0d5",
      "logs": [
        {
          "address": "0x8aafd3ede9adb0ff97c7aebce82a919afb1c8764",
          "topics": [
            "0xddf252ad1be2c89b69c2b068fc378daa952ba7f163c4a11628f55a4df523b3ef",
            "0x000000000000000000000000c77f7fed3b5cc8249adc428c5f44c9063b9734b4",
            "0x0000000000000000000000000000000000000000000000000000000000000000"
          ],
          "data": "0x000000000000000000000000000000000000000000000000000002848daa1a91",
          "blockHash": "0x2655e45f7843626f654aa646da6c273298f5736db648c7489a2e623e46bffe5d",
          "blockNumber": "0x7318cb",
          "transactionHash": "0x82647b02faace426983771bba1a9eb505f785f8f144e16e5b9de502c193f4df0",
          "transactionIndex": "0x66",
          "logIndex": "0x93",
          "removed": false
        },
        {
          "address": "0x8aafd3ede9adb0ff97c7aebce82a919afb1c8764",
          "topics": [
            "0xddf252ad1be2c89b69c2b068fc378daa952ba7f163c4a11628f55a4df523b3ef",
            "0x000000000000000000000000c77f7fed3b5cc8249adc428c5f44c9063b9734b4",
            "0x000000000000000000000000c77f7fed3b5cc8249adc428c5f44c9063b9734b4"
          ],
          "data": "0x0000000000000000000000000000000000000000000000000000000532b0db0d",
          "blockHash": "0x2655e45f7843626f654aa646da6c273298f5736db648c7489a2e623e46bffe5d",
          "blockNumber": "0x7318cb",
          "transactionHash": "0x82647b02faace426983771bba1a9eb505f785f8f144e16e5b9de502c193f4df0",
          "transactionIndex": "0x66",
          "logIndex": "0x94",
          "removed": false
        },
        {
          "address": "0x8aafd3ede9adb0ff97c7aebce82a919afb1c8764",
          "topics": [
            "0x4afcb4a87cdbd9974efdb92ee48bc8d7cd0ae4bf217004db3d080cbaee652ca7"
          ],
          "data": "0x000000000000000000000000000000000000000000000000000000006790265400000000000000000000000000000000000000000000000000052f06a062f05400000000000000000000000000000000000000000000000000000000f2b2b79e",
          "blockHash": "0x2655e45f7843626f654aa646da6c273298f5736db648c7489a2e623e46bffe5d",
          "blockNumber": "0x7318cb",
          "transactionHash": "0x82647b02faace426983771bba1a9eb505f785f8f144e16e5b9de502c193f4df0",
          "transactionIndex": "0x66",
          "logIndex": "0x95",
          "removed": false
        }
      ],
      "logsBloom": "0x00000000000000000000000000000000000000000600000000000000000000000000000000000000000000000000000000000000000000004000000000000000000000000000004000000008000000000000000000000000000000000000000000000000020000000000000000000800020000000000000000000010000000000000000000000000000000000000000000000000000000000000010000000000000000000000000000000000000000004000000000000000000000000000000000000002000000800000000000000000000000000000080000000000000020000000000000000000000000000000000000000000000000000000000000000000",
      "type": "0x2",
      "transactionHash": "0x82647b02faace426983771bba1a9eb505f785f8f144e16e5b9de502c193f4df0",
      "transactionIndex": "0x66",
      "blockHash": "0x2655e45f7843626f654aa646da6c273298f5736db648c7489a2e623e46bffe5d",
      "blockNumber": "0x7318cb",
      "gasUsed": "0xfd27",
      "effectiveGasPrice": "0x456c3b5b",
      "from": "0xc77f7fed3b5cc8249adc428c5f44c9063b9734b4",
      "to": "0x8aafd3ede9adb0ff97c7aebce82a919afb1c8764",
      "contractAddress": null
    }
  ],
  "libraries": [],
  "pending": [],
  "returns": {},
  "timestamp": 1737500246,
  "chain": 11155111,
  "commit": "1d2fb70"
}