{
  "transactions": [
    {
      "hash": "0xf8ce61c3a744732b20810937062856b7254159e0f2f866771679caaf90ceee95",
      "transactionType": "CALL",
      "contractName": null,
      "contractAddress": "0x8aafd3ede9adb0ff97c7aebce82a919afb1c8764",
      "function": "sell(uint256)",
      "arguments": [
        "714367497557"
      ],
      "transaction": {
        "from": "0xc77f7fed3b5cc8249adc428c5f44c9063b9734b4",
        "to": "0x8aafd3ede9adb0ff97c7aebce82a919afb1c8764",
        "gas": "0x1722a",
        "value": "0x0",
        "input": "0xe4849b32000000000000000000000000000000000000000000000000000000a6539ef555",
        "nonce": "0x161a",
        "chainId": "0xaa36a7"
      },
      "additionalContracts": [],
      "isFixedGasLimit": false
    }
  ],
  "receipts": [
    {
      "status": "0x1",
      "cumulativeGasUsed": "0x1315a3c",
      "logs": [
        {
          "address": "0x8aafd3ede9adb0ff97c7aebce82a919afb1c8764",
          "topics": [
            "0xddf252ad1be2c89b69c2b068fc378daa952ba7f163c4a11628f55a4df523b3ef",
            "0x000000000000000000000000c77f7fed3b5cc8249adc428c5f44c9063b9734b4",
            "0x0000000000000000000000000000000000000000000000000000000000000000"
          ],
          "data": "0x000000000000000000000000000000000000000000000000000000a4fefbe509",
          "blockHash": "0x947310b8addf1a894fe390e6fa047b9a16994b9ef6bf0b52fe7a7a7cf10ce46d",
          "blockNumber": "0x731db0",
          "transactionHash": "0xf8ce61c3a744732b20810937062856b7254159e0f2f866771679caaf90ceee95",
          "transactionIndex": "0x56",
          "logIndex": "0x96",
          "removed": false
        },
        {
          "address": "0x8aafd3ede9adb0ff97c7aebce82a919afb1c8764",
          "topics": [
            "0xddf252ad1be2c89b69c2b068fc378daa952ba7f163c4a11628f55a4df523b3ef",
            "0x000000000000000000000000c77f7fed3b5cc8249adc428c5f44c9063b9734b4",
            "0x000000000000000000000000c77f7fed3b5cc8249adc428c5f44c9063b9734b4"
          ],
          "data": "0x0000000000000000000000000000000000000000000000000000000154a3104c",
          "blockHash": "0x947310b8addf1a894fe390e6fa047b9a16994b9ef6bf0b52fe7a7a7cf10ce46d",
          "blockNumber": "0x731db0",
          "transactionHash": "0xf8ce61c3a744732b20810937062856b7254159e0f2f866771679caaf90ceee95",
          "transactionIndex": "0x56",
          "logIndex": "0x97",
          "removed": false
        },
        {
          "address": "0x8aafd3ede9adb0ff97c7aebce82a919afb1c8764",
          "topics": [
            "0x4afcb4a87cdbd9974efdb92ee48bc8d7cd0ae4bf217004db3d080cbaee652ca7"
          ],
          "data": "0x0000000000000000000000000000000000000000000000000000000067906128000000000000000000000000000000000000000000000000001455191aabf5e800000000000000000000000000000000000000000000000000000000f3af9c01",
          "blockHash": "0x947310b8addf1a894fe390e6fa047b9a16994b9ef6bf0b52fe7a7a7cf10ce46d",
          "blockNumber": "0x731db0",
          "transactionHash": "0xf8ce61c3a744732b20810937062856b7254159e0f2f866771679caaf90ceee95",
          "transactionIndex": "0x56",
          "logIndex": "0x98",
          "removed": false
        }
      ],
      "logsBloom": "0x00000000000000000000000000000000000000000600000000000000000000000000000000000000000000000000000000000000000000004000000000000000000000000000004000000008000000000000000000000000000000000000000000000000020000000000000000000800020000000000000000000010000000000000000000000000000000000000000000000000000000000000010000000000000000000000000000000000000000004000000000000000000000000000000000000002000000800000000000000000000000000000080000000000000020000000000000000000000000000000000000000000000000000000000000000000",
      "type": "0x2",
      "transactionHash": "0xf8ce61c3a744732b20810937062856b7254159e0f2f866771679caaf90ceee95",
      "transactionIndex": "0x56",
      "blockHash": "0x947310b8addf1a894fe390e6fa047b9a16994b9ef6bf0b52fe7a7a7cf10ce46d",
      "blockNumber": "0x731db0",
      "gasUsed": "0xfd1b",
      "effectiveGasPrice": "0x6e0f0a28",
      "from": "0xc77f7fed3b5cc8249adc428c5f44c9063b9734b4",
      "to": "0x8aafd3ede9adb0ff97c7aebce82a919afb1c8764",
      "contractAddress": null
    }
  ],
  "libraries": [],
  "pending": [],
  "returns": {},
  "timestamp": 1737515306,
  "chain": 11155111,
  "commit": "1d2fb70"
}