{
  "transactions": [
    {
      "hash": "0xccf71d4167ea3a8343f9af51b0a3b0412f051d832224c874ceb93d2e1d579a32",
      "transactionType": "CALL",
      "contractName": null,
      "contractAddress": "0x8aafd3ede9adb0ff97c7aebce82a919afb1c8764",
      "function": "sell(uint256)",
      "arguments": [
        "1454321"
      ],
      "transaction": {
        "from": "0xc77f7fed3b5cc8249adc428c5f44c9063b9734b4",
        "to": "0x8aafd3ede9adb0ff97c7aebce82a919afb1c8764",
        "gas": "0x16208",
        "value": "0x0",
        "input": "0xe4849b3200000000000000000000000000000000000000000000000000000000001630f1",
        "nonce": "0x1156",
        "chainId": "0xaa36a7"
      },
      "additionalContracts": [],
      "isFixedGasLimit": false
    }
  ],
  "receipts": [
    {
      "status": "0x1",
      "cumulativeGasUsed": "0xf91901",
      "logs": [
        {
          "address": "0x8aafd3ede9adb0ff97c7aebce82a919afb1c8764",
          "topics": [
            "0xddf252ad1be2c89b69c2b068fc378daa952ba7f163c4a11628f55a4df523b3ef",
            "0x000000000000000000000000c77f7fed3b5cc8249adc428c5f44c9063b9734b4",
            "0x0000000000000000000000000000000000000000000000000000000000000000"
          ],
          "data": "0x000000000000000000000000000000000000000000000000000000000016037f",
          "blockHash": "0x769a16b70b9535ef1b02cb54e927dbf2c3ad5fa55b33c648ae9f4b2f5c031dce",
          "blockNumber": "0x731812",
          "transactionHash": "0xccf71d4167ea3a8343f9af51b0a3b0412f051d832224c874ceb93d2e1d579a32",
          "transactionIndex": "0x91",
          "logIndex": "0xa9",
          "removed": false
        },
        {
          "address": "0x8aafd3ede9adb0ff97c7aebce82a919afb1c8764",
          "topics": [
            "0xddf252ad1be2c89b69c2b068fc378daa952ba7f163c4a11628f55a4df523b3ef",
            "0x000000000000000000000000c77f7fed3b5cc8249adc428c5f44c9063b9734b4",
            "0x000000000000000000000000c77f7fed3b5cc8249adc428c5f44c9063b9734b4"
          ],
          "data": "0x0000000000000000000000000000000000000000000000000000000000002d72",
          "blockHash": "0x769a16b70b9535ef1b02cb54e927dbf2c3ad5fa55b33c648ae9f4b2f5c031dce",
          "blockNumber": "0x731812",
          "transactionHash": "0xccf71d4167ea3a8343f9af51b0a3b0412f051d832224c874ceb93d2e1d579a32",
          "transactionIndex": "0x91",
          "logIndex": "0xaa",
          "removed": false
        },
        {
          "address": "0x8aafd3ede9adb0ff97c7aebce82a919afb1c8764",
          "topics": [
            "0x4afcb4a87cdbd9974efdb92ee48bc8d7cd0ae4bf217004db3d080cbaee652ca7"
          ],
          "data": "0x0000000000000000000000000000000000000000000000000000000067901d9c000000000000000000000000000000000000000000000000000517c7aed330f90000000000000000000000000000000000000000000000000000000000000824",
          "blockHash": "0x769a16b70b9535ef1b02cb54e927dbf2c3ad5fa55b33c648ae9f4b2f5c031dce",
          "blockNumber": "0x731812",
          "transactionHash": "0xccf71d4167ea3a8343f9af51b0a3b0412f051d832224c874ceb93d2e1d579a32",
          "transactionIndex": "0x91",
          "logIndex": "0xab",
          "removed": false
        }
      ],
      "logsBloom": "0x00000000000000000000000000000000000000000600000000000000000000000000000000000000000000000000000000000000000000004000000000000000000000000000004000000008000000000000000000000000000000000000000000000000020000000000000000000800020000000000000000000010000000000000000000000000000000000000000000000000000000000000010000000000000000000000000000000000000000004000000000000000000000000000000000000002000000800000000000000000000000000000080000000000000020000000000000000000000000000000000000000000000000000000000000000000",
      "type": "0x2",
      "transactionHash": "0xccf71d4167ea3a8343f9af51b0a3b0412f051d832224c874ceb93d2e1d579a32",
      "transactionIndex": "0x91",
      "blockHash": "0x769a16b70b9535ef1b02cb54e927dbf2c3ad5fa55b33c648ae9f4b2f5c031dce",
      "blockNumber": "0x731812",
      "gasUsed": "0xf213",
      "effectiveGasPrice": "0x4104ba15",
      "from": "0xc77f7fed3b5cc8249adc428c5f44c9063b9734b4",
      "to": "0x8aafd3ede9adb0ff97c7aebce82a919afb1c8764",
      "contractAddress": null
    }
  ],
  "libraries": [],
  "pending": [],
  "returns": {},
  "timestamp": 1737498013,
  "chain": 11155111,
  "commit": "1d2fb70"
}