{
  "transactions": [
    {
      "hash": "0x286031752830cb066cda415a5b255bdb352bbc6b682d63f8e001eba1f55a3e8b",
      "transactionType": "CALL",
      "contractName": null,
      "contractAddress": "0x270e88f8683660553e8ba4eb2ad7c91a1710d769",
      "function": "buy(address)",
      "arguments": [
        "0xC77f7fed3b5Cc8249aDc428c5F44C9063B9734b4"
      ],
      "transaction": {
        "from": "0xc77f7fed3b5cc8249adc428c5f44c9063b9734b4",
        "to": "0x270e88f8683660553e8ba4eb2ad7c91a1710d769",
        "gas": "0x1b30c",
        "value": "0xde0b6b3a7640000",
        "input": "0xf088d547000000000000000000000000c77f7fed3b5cc8249adc428c5f44c9063b9734b4",
        "nonce": "0x74b",
        "chainId": "0xaa36a7"
      },
      "additionalContracts": [],
      "isFixedGasLimit": false
    }
  ],
  "receipts": [
    {
      "status": "0x1",
      "cumulativeGasUsed": "0xab53ac",
      "logs": [
        {
          "address": "0x270e88f8683660553e8ba4eb2ad7c91a1710d769",
          "topics": [
            "0xddf252ad1be2c89b69c2b068fc378daa952ba7f163c4a11628f55a4df523b3ef",
            "0x0000000000000000000000000000000000000000000000000000000000000000",
            "0x000000000000000000000000c77f7fed3b5cc8249adc428c5f44c9063b9734b4"
          ],
          "data": "0x000000000000000000000000000000000000000000000027e9ee35a508f67ebd",
          "blockHash": "0x0a430253bb4d7b582af82ffb42a97752da505facca13d21d67ac5d89955076d3",
          "blockNumber": "0x72546f",
          "transactionHash": "0x286031752830cb066cda415a5b255bdb352bbc6b682d63f8e001eba1f55a3e8b",
          "transactionIndex": "0x3d",
          "logIndex": "0x65",
          "removed": false
        },
        {
          "address": "0x270e88f8683660553e8ba4eb2ad7c91a1710d769",
          "topics": [
            "0xddf252ad1be2c89b69c2b068fc378daa952ba7f163c4a11628f55a4df523b3ef",
            "0x0000000000000000000000000000000000000000000000000000000000000000",
            "0x000000000000000000000000c77f7fed3b5cc8249adc428c5f44c9063b9734b4"
          ],
          "data": "0x0000000000000000000000000000000000000000000000001efe92526cc9deba",
          "blockHash": "0x0a430253bb4d7b582af82ffb42a97752da505facca13d21d67ac5d89955076d3",
          "blockNumber": "0x72546f",
          "transactionHash": "0x286031752830cb066cda415a5b255bdb352bbc6b682d63f8e001eba1f55a3e8b",
          "transactionIndex": "0x3d",
          "logIndex": "0x66",
          "removed": false
        },
        {
          "address": "0x270e88f8683660553e8ba4eb2ad7c91a1710d769",
          "topics": [
            "0x4afcb4a87cdbd9974efdb92ee48bc8d7cd0ae4bf217004db3d080cbaee652ca7"
          ],
          "data": "0x000000000000000000000000000000000000000000000000000000006786e73c0000000000000000000000000000000000000000000000000004c70276685da80000000000000000000000000000000000000000000000000de0b6b3a7640000",
          "blockHash": "0x0a430253bb4d7b582af82ffb42a97752da505facca13d21d67ac5d89955076d3",
          "blockNumber": "0x72546f",
          "transactionHash": "0x286031752830cb066cda415a5b255bdb352bbc6b682d63f8e001eba1f55a3e8b",
          "transactionIndex": "0x3d",
          "logIndex": "0x67",
          "removed": false
        }
      ],
      "logsBloom": "0x00000000000000000000000000000000000000000000000000000000000000000000000000000000000000000000000020000000000000004000000000000000000000000000000000000008000000000000000000000000000000000000000000000000020000000000000000000800020000000000000000000010000000000000000000010000000000000000000000000000000000000000010000000000000000000000000000000000000000004000000000000000000000000000000000000002000000800000000000000000000000000000080000008000000020000000000000000000000000000000000000000000000000000000000000000000",
      "type": "0x2",
      "transactionHash": "0x286031752830cb066cda415a5b255bdb352bbc6b682d63f8e001eba1f55a3e8b",
      "transactionIndex": "0x3d",
      "blockHash": "0x0a430253bb4d7b582af82ffb42a97752da505facca13d21d67ac5d89955076d3",
      "blockNumber": "0x72546f",
      "gasUsed": "0x13af8",
      "effectiveGasPrice": "0x14c686a5d",
      "from": "0xc77f7fed3b5cc8249adc428c5f44c9063b9734b4",
      "to": "0x270e88f8683660553e8ba4eb2ad7c91a1710d769",
      "contractAddress": null
    }
  ],
  "libraries": [],
  "pending": [],
  "returns": {},
  "timestamp": 1736894269,
  "chain": 11155111,
  "commit": "51a374b"
}