{
  "transactions": [
    {
      "hash": "0x1cf7174b0497430c8cd7f3c037baab79b833966d0906c7de9915ff5db0d44cd1",
      "transactionType": "CALL",
      "contractName": null,
      "contractAddress": "0x8aafd3ede9adb0ff97c7aebce82a919afb1c8764",
      "function": "sell(uint256)",
      "arguments": [
        "186951246663524274665"
      ],
      "transaction": {
        "from": "0xc77f7fed3b5cc8249adc428c5f44c9063b9734b4",
        "to": "0x8aafd3ede9adb0ff97c7aebce82a919afb1c8764",
        "gas": "0x17270",
        "value": "0x0",
        "input": "0xe4849b3200000000000000000000000000000000000000000000000a227840548fcbd1e9",
        "nonce": "0x15a1",
        "chainId": "0xaa36a7"
      },
      "additionalContracts": [],
      "isFixedGasLimit": false
    }
  ],
  "receipts": [
    {
      "status": "0x1",
      "cumulativeGasUsed": "0xab0a02",
      "logs": [
        {
          "address": "0x8aafd3ede9adb0ff97c7aebce82a919afb1c8764",
          "topics": [
            "0xddf252ad1be2c89b69c2b068fc378daa952ba7f163c4a11628f55a4df523b3ef",
            "0x000000000000000000000000c77f7fed3b5cc8249adc428c5f44c9063b9734b4",
            "0x0000000000000000000000000000000000000000000000000000000000000000"
          ],
          "data": "0x00000000000000000000000000000000000000000000000a0db6c6fbd23ad454",
          "blockHash": "0x750ecbae9d3291634808449a8a3399bb42a6666a5f8c2b2dfaa8ff7a19cf57c9",
          "blockNumber": "0x731d14",
          "transactionHash": "0x1cf7174b0497430c8cd7f3c037baab79b833966d0906c7de9915ff5db0d44cd1",
          "transactionIndex": "0x58",
          "logIndex": "0xb3",
          "removed": false
        },
        {
          "address": "0x8aafd3ede9adb0ff97c7aebce82a919afb1c8764",
          "topics": [
            "0xddf252ad1be2c89b69c2b068fc378daa952ba7f163c4a11628f55a4df523b3ef",
            "0x000000000000000000000000c77f7fed3b5cc8249adc428c5f44c9063b9734b4",
            "0x000000000000000000000000c77f7fed3b5cc8249adc428c5f44c9063b9734b4"
          ],
          "data": "0x00000000000000000000000000000000000000000000000014c17958bd90fd95",
          "blockHash": "0x750ecbae9d3291634808449a8a3399bb42a6666a5f8c2b2dfaa8ff7a19cf57c9",
          "blockNumber": "0x731d14",
          "transactionHash": "0x1cf7174b0497430c8cd7f3c037baab79b833966d0906c7de9915ff5db0d44cd1",
          "transactionIndex": "0x58",
          "logIndex": "0xb4",
          "removed": false
        },
        {
          "address": "0x8aafd3ede9adb0ff97c7aebce82a919afb1c8764",
          "topics": [
            "0x4afcb4a87cdbd9974efdb92ee48bc8d7cd0ae4bf217004db3d080cbaee652ca7"
          ],
          "data": "0x00000000000000000000000000000000000000000000000000000000679059d80000000000000000000000000000000000000000000000000012f95cf71819380000000000000000000000000000000000000000000000000dccb426307cb5e2",
          "blockHash": "0x750ecbae9d3291634808449a8a3399bb42a6666a5f8c2b2dfaa8ff7a19cf57c9",
          "blockNumber": "0x731d14",
          "transactionHash": "0x1cf7174b0497430c8cd7f3c037baab79b833966d0906c7de9915ff5db0d44cd1",
          "transactionIndex": "0x58",
          "logIndex": "0xb5",
          "removed": false
        }
      ],
      "logsBloom": "0x00000000000000000000000000000000000000000600000000000000000000000000000000000000000000000000000000000000000000004000000000000000000000000000004000000008000000000000000000000000000000000000000000000000020000000000000000000800020000000000000000000010000000000000000000000000000000000000000000000000000000000000010000000000000000000000000000000000000000004000000000000000000000000000000000000002000000800000000000000000000000000000080000000000000020000000000000000000000000000000000000000000000000000000000000000000",
      "type": "0x2",
      "transactionHash": "0x1cf7174b0497430c8cd7f3c037baab79b833966d0906c7de9915ff5db0d44cd1",
      "transactionIndex": "0x58",
      "blockHash": "0x750ecbae9d3291634808449a8a3399bb42a6666a5f8c2b2dfaa8ff7a19cf57c9",
      "blockNumber": "0x731d14",
      "gasUsed": "0xfd4b",
      "effectiveGasPrice": "0x55937c2e",
      "from": "0xc77f7fed3b5cc8249adc428c5f44c9063b9734b4",
      "to": "0x8aafd3ede9adb0ff97c7aebce82a919afb1c8764",
      "contractAddress": null
    }
  ],
  "libraries": [],
  "pending": [],
  "returns": {},
  "timestamp": 1737513434,
  "chain": 11155111,
  "commit": "1d2fb70"
}