{
  "transactions": [
    {
      "hash": "0x70191810aab6b8ed365aede68989191e220b00aee9566d9a8d2a154d894b60ca",
      "transactionType": "CALL",
      "contractName": null,
      "contractAddress": "0x5eb9cc76c3506942c1c0ead70e877dd5e4f00cb0",
      "function": "sell(uint256)",
      "arguments": [
        "989152588475604247510"
      ],
      "transaction": {
        "from": "0xc77f7fed3b5cc8249adc428c5f44c9063b9734b4",
        "to": "0x5eb9cc76c3506942c1c0ead70e877dd5e4f00cb0",
        "gas": "0x16fec",
        "value": "0x0",
        "input": "0xe4849b320000000000000000000000000000000000000000000000359f3fee76aa89a3d6",
        "nonce": "0x2b7",
        "chainId": "0xaa36a7"
      },
      "additionalContracts": [],
      "isFixedGasLimit": false
    }
  ],
  "receipts": [
    {
      "status": "0x1",
      "cumulativeGasUsed": "0xd2bdbb",
      "logs": [
        {
          "address": "0x5eb9cc76c3506942c1c0ead70e877dd5e4f00cb0",
          "topics": [
            "0xddf252ad1be2c89b69c2b068fc378daa952ba7f163c4a11628f55a4df523b3ef",
            "0x000000000000000000000000c77f7fed3b5cc8249adc428c5f44c9063b9734b4",
            "0x0000000000000000000000000000000000000000000000000000000000000000"
          ],
          "data": "0x0000000000000000000000000000000000000000000000359f3fee76aa89a3d6",
          "blockHash": "0xa314dc90ab0ca8b12b0576ee6ce92ecc3ec4714bfe4dde589356ca376a76a8b1",
          "blockNumber": "0x724e92",
          "transactionHash": "0x70191810aab6b8ed365aede68989191e220b00aee9566d9a8d2a154d894b60ca",
          "transactionIndex": "0x55",
          "logIndex": "0xab",
          "removed": false
        },
        {
          "address": "0x5eb9cc76c3506942c1c0ead70e877dd5e4f00cb0",
          "topics": [
            "0x4afcb4a87cdbd9974efdb92ee48bc8d7cd0ae4bf217004db3d080cbaee652ca7"
          ],
          "data": "0x000000000000000000000000000000000000000000000000000000006786a08c000000000000000000000000000000000000000000000000000391090b74fc550000000000000000000000000000000000000000000000000dc7db13324505cb",
          "blockHash": "0xa314dc90ab0ca8b12b0576ee6ce92ecc3ec4714bfe4dde589356ca376a76a8b1",
          "blockNumber": "0x724e92",
          "transactionHash": "0x70191810aab6b8ed365aede68989191e220b00aee9566d9a8d2a154d894b60ca",
          "transactionIndex": "0x55",
          "logIndex": "0xac",
          "removed": false
        }
      ],
      "logsBloom": "0x00000000000000000000000000000000000000000000000000000000000000000000000000000000000000000000000000000000000000004000000000000000000000000000000000000008000000000000000000000000000000000000000000000000020000000000000004000800020000000000000000000010000000000000000000000000000000000000000000000000000000000000010000000000000000000000000000000000000000004000000000000000000000000000020000000002000000800000008000000000000000000000080000000000000020000000000000000000000000000000000000000000000000000000000000000000",
      "type": "0x2",
      "transactionHash": "0x70191810aab6b8ed365aede68989191e220b00aee9566d9a8d2a154d894b60ca",
      "transactionIndex": "0x55",
      "blockHash": "0xa314dc90ab0ca8b12b0576ee6ce92ecc3ec4714bfe4dde589356ca376a76a8b1",
      "blockNumber": "0x724e92",
      "gasUsed": "0xfb93",
      "effectiveGasPrice": "0x4611aa3b0",
      "from": "0xc77f7fed3b5cc8249adc428c5f44c9063b9734b4",
      "to": "0x5eb9cc76c3506942c1c0ead70e877dd5e4f00cb0",
      "contractAddress": null
    }
  ],
  "libraries": [],
  "pending": [],
  "returns": {},
  "timestamp": 1736876174,
  "chain": 11155111,
  "commit": "51a374b"
}