{
  "transactions": [
    {
      "hash": "0xdffaff290178581d7424bbe96720dbbfbebe80511d78cdc63ec77c650c44fd56",
      "transactionType": "CALL",
      "contractName": null,
      "contractAddress": "0x270e88f8683660553e8ba4eb2ad7c91a1710d769",
      "function": "buy(address)",
      "arguments": [
        "0xC77f7fed3b5Cc8249aDc428c5F44C9063B9734b4"
      ],
      "transaction": {
        "from": "0xc77f7fed3b5cc8249adc428c5f44c9063b9734b4",
        "to": "0x270e88f8683660553e8ba4eb2ad7c91a1710d769",
        "gas": "0x1b30c",
        "value": "0xde0b6b3a7640000",
        "input": "0xf088d547000000000000000000000000c77f7fed3b5cc8249adc428c5f44c9063b9734b4",
        "nonce": "0x526",
        "chainId": "0xaa36a7"
      },
      "additionalContracts": [],
      "isFixedGasLimit": false
    }
  ],
  "receipts": [
    {
      "status": "0x1",
      "cumulativeGasUsed": "0x651e24",
      "logs": [
        {
          "address": "0x270e88f8683660553e8ba4eb2ad7c91a1710d769",
          "topics": [
            "0xddf252ad1be2c89b69c2b068fc378daa952ba7f163c4a11628f55a4df523b3ef",
            "0x0000000000000000000000000000000000000000000000000000000000000000",
            "0x000000000000000000000000c77f7fed3b5cc8249adc428c5f44c9063b9734b4"
          ],
          "data": "0x000000000000000000000000000000000000000000000034f82aa256a9d9c8ac",
          "blockHash": "0x35b1bedcce266027fec634c3d2f5d13fc2f4e4e0d6065fb8bb9395f74b99e834",
          "blockNumber": "0x7251c0",
          "transactionHash": "0xdffaff290178581d7424bbe96720dbbfbebe80511d78cdc63ec77c650c44fd56",
          "transactionIndex": "0x46",
          "logIndex": "0x60",
          "removed": false
        },
        {
          "address": "0x270e88f8683660553e8ba4eb2ad7c91a1710d769",
          "topics": [
            "0xddf252ad1be2c89b69c2b068fc378daa952ba7f163c4a11628f55a4df523b3ef",
            "0x0000000000000000000000000000000000000000000000000000000000000000",
            "0x000000000000000000000000c77f7fed3b5cc8249adc428c5f44c9063b9734b4"
          ],
          "data": "0x0000000000000000000000000000000000000000000000002921ee8df304e08f",
          "blockHash": "0x35b1bedcce266027fec634c3d2f5d13fc2f4e4e0d6065fb8bb9395f74b99e834",
          "blockNumber": "0x7251c0",
          "transactionHash": "0xdffaff290178581d7424bbe96720dbbfbebe80511d78cdc63ec77c650c44fd56",
          "transactionIndex": "0x46",
          "logIndex": "0x61",
          "removed": false
        },
        {
          "address": "0x270e88f8683660553e8ba4eb2ad7c91a1710d769",
          "topics": [
            "0x4afcb4a87cdbd9974efdb92ee48bc8d7cd0ae4bf217004db3d080cbaee652ca7"
          ],
          "data": "0x000000000000000000000000000000000000000000000000000000006786c6e40000000000000000000000000000000000000000000000000003999822601ab90000000000000000000000000000000000000000000000000de0b6b3a7640000",
          "blockHash": "0x35b1bedcce266027fec634c3d2f5d13fc2f4e4e0d6065fb8bb9395f74b99e834",
          "blockNumber": "0x7251c0",
          "transactionHash": "0xdffaff290178581d7424bbe96720dbbfbebe80511d78cdc63ec77c650c44fd56",
          "transactionIndex": "0x46",
          "logIndex": "0x62",
          "removed": false
        }
      ],
      "logsBloom": "0x00000000000000000000000000000000000000000000000000000000000000000000000000000000000000000000000020000000000000004000000000000000000000000000000000000008000000000000000000000000000000000000000000000000020000000000000000000800020000000000000000000010000000000000000000010000000000000000000000000000000000000000010000000000000000000000000000000000000000004000000000000000000000000000000000000002000000800000000000000000000000000000080000008000000020000000000000000000000000000000000000000000000000000000000000000000",
      "type": "0x2",
      "transactionHash": "0xdffaff290178581d7424bbe96720dbbfbebe80511d78cdc63ec77c650c44fd56",
      "transactionIndex": "0x46",
      "blockHash": "0x35b1bedcce266027fec634c3d2f5d13fc2f4e4e0d6065fb8bb9395f74b99e834",
      "blockNumber": "0x7251c0",
      "gasUsed": "0x13af8",
      "effectiveGasPrice": "0x47b2dfa47",
      "from": "0xc77f7fed3b5cc8249adc428c5f44c9063b9734b4",
      "to": "0x270e88f8683660553e8ba4eb2ad7c91a1710d769",
      "contractAddress": null
    }
  ],
  "libraries": [],
  "pending": [],
  "returns": {},
  "timestamp": 1736885989,
  "chain": 11155111,
  "commit": "51a374b"
}