{
  "transactions": [
    {
      "hash": "0xe1c55fb9ee07f460c5adf84ea1690afe21337de0b83ef8c83f493583524796da",
      "transactionType": "CALL",
      "contractName": null,
      "contractAddress": "0x270e88f8683660553e8ba4eb2ad7c91a1710d769",
      "function": "buy(address)",
      "arguments": [
        "0xC77f7fed3b5Cc8249aDc428c5F44C9063B9734b4"
      ],
      "transaction": {
        "from": "0xc77f7fed3b5cc8249adc428c5f44c9063b9734b4",
        "to": "0x270e88f8683660553e8ba4eb2ad7c91a1710d769",
        "gas": "0x1b30c",
        "value": "0xde0b6b3a7640000",
        "input": "0xf088d547000000000000000000000000c77f7fed3b5cc8249adc428c5f44c9063b9734b4",
        "nonce": "0x72d",
        "chainId": "0xaa36a7"
      },
      "additionalContracts": [],
      "isFixedGasLimit": false
    }
  ],
  "receipts": [
    {
      "status": "0x1",
      "cumulativeGasUsed": "0x93c60f",
      "logs": [
        {
          "address": "0x270e88f8683660553e8ba4eb2ad7c91a1710d769",
          "topics": [
            "0xddf252ad1be2c89b69c2b068fc378daa952ba7f163c4a11628f55a4df523b3ef",
            "0x0000000000000000000000000000000000000000000000000000000000000000",
            "0x000000000000000000000000c77f7fed3b5cc8249adc428c5f44c9063b9734b4"
          ],
          "data": "0x0000000000000000000000000000000000000000000000280ec7069ecdd8c243",
          "blockHash": "0x1836919cae3f0390b2168848dee402052fad580c0b53ea24d1ddbae503cf3247",
          "blockNumber": "0x72544e",
          "transactionHash": "0xe1c55fb9ee07f460c5adf84ea1690afe21337de0b83ef8c83f493583524796da",
          "transactionIndex": "0x2c",
          "logIndex": "0x56",
          "removed": false
        },
        {
          "address": "0x270e88f8683660553e8ba4eb2ad7c91a1710d769",
          "topics": [
            "0xddf252ad1be2c89b69c2b068fc378daa952ba7f163c4a11628f55a4df523b3ef",
            "0x0000000000000000000000000000000000000000000000000000000000000000",
            "0x000000000000000000000000c77f7fed3b5cc8249adc428c5f44c9063b9734b4"
          ],
          "data": "0x0000000000000000000000000000000000000000000000001f1b2f39c047e197",
          "blockHash": "0x1836919cae3f0390b2168848dee402052fad580c0b53ea24d1ddbae503cf3247",
          "blockNumber": "0x72544e",
          "transactionHash": "0xe1c55fb9ee07f460c5adf84ea1690afe21337de0b83ef8c83f493583524796da",
          "transactionIndex": "0x2c",
          "logIndex": "0x57",
          "removed": false
        },
        {
          "address": "0x270e88f8683660553e8ba4eb2ad7c91a1710d769",
          "topics": [
            "0x4afcb4a87cdbd9974efdb92ee48bc8d7cd0ae4bf217004db3d080cbaee652ca7"
          ],
          "data": "0x000000000000000000000000000000000000000000000000000000006786e5b00000000000000000000000000000000000000000000000000004c29d93c285c50000000000000000000000000000000000000000000000000de0b6b3a7640000",
          "blockHash": "0x1836919cae3f0390b2168848dee402052fad580c0b53ea24d1ddbae503cf3247",
          "blockNumber": "0x72544e",
          "transactionHash": "0xe1c55fb9ee07f460c5adf84ea1690afe21337de0b83ef8c83f493583524796da",
          "transactionIndex": "0x2c",
          "logIndex": "0x58",
          "removed": false
        }
      ],
      "logsBloom": "0x00000000000000000000000000000000000000000000000000000000000000000000000000000000000000000000000020000000000000004000000000000000000000000000000000000008000000000000000000000000000000000000000000000000020000000000000000000800020000000000000000000010000000000000000000010000000000000000000000000000000000000000010000000000000000000000000000000000000000004000000000000000000000000000000000000002000000800000000000000000000000000000080000008000000020000000000000000000000000000000000000000000000000000000000000000000",
      "type": "0x2",
      "transactionHash": "0xe1c55fb9ee07f460c5adf84ea1690afe21337de0b83ef8c83f493583524796da",
      "transactionIndex": "0x2c",
      "blockHash": "0x1836919cae3f0390b2168848dee402052fad580c0b53ea24d1ddbae503cf3247",
      "blockNumber": "0x72544e",
      "gasUsed": "0x13af8",
      "effectiveGasPrice": "0x15d219583",
      "from": "0xc77f7fed3b5cc8249adc428c5f44c9063b9734b4",
      "to": "0x270e88f8683660553e8ba4eb2ad7c91a1710d769",
      "contractAddress": null
    }
  ],
  "libraries": [],
  "pending": [],
  "returns": {},
  "timestamp": 1736893873,
  "chain": 11155111,
  "commit": "51a374b"
}