{
  "transactions": [
    {
      "hash": "0x9b095ea39488bd826dc8982d7d2b595774673629b2c73b505150e4d6f621551d",
      "transactionType": "CALL",
      "contractName": null,
      "contractAddress": "0x270e88f8683660553e8ba4eb2ad7c91a1710d769",
      "function": "sell(uint256)",
      "arguments": [
        "981635001896208796623"
      ],
      "transaction": {
        "from": "0xc77f7fed3b5cc8249adc428c5f44c9063b9734b4",
        "to": "0x270e88f8683660553e8ba4eb2ad7c91a1710d769",
        "gas": "0x16fec",
        "value": "0x0",
        "input": "0xe4849b3200000000000000000000000000000000000000000000003536ec194ca96d8bcf",
        "nonce": "0x51d",
        "chainId": "0xaa36a7"
      },
      "additionalContracts": [],
      "isFixedGasLimit": false
    }
  ],
  "receipts": [
    {
      "status": "0x1",
      "cumulativeGasUsed": "0x1207fd0",
      "logs": [
        {
          "address": "0x270e88f8683660553e8ba4eb2ad7c91a1710d769",
          "topics": [
            "0xddf252ad1be2c89b69c2b068fc378daa952ba7f163c4a11628f55a4df523b3ef",
            "0x000000000000000000000000c77f7fed3b5cc8249adc428c5f44c9063b9734b4",
            "0x0000000000000000000000000000000000000000000000000000000000000000"
          ],
          "data": "0x00000000000000000000000000000000000000000000003536ec194ca96d8bcf",
          "blockHash": "0xc683d0f80b53e8b4e0c11aaed50268f85815e5f061f18a581101f122fb98483b",
          "blockNumber": "0x7251b6",
          "transactionHash": "0x9b095ea39488bd826dc8982d7d2b595774673629b2c73b505150e4d6f621551d",
          "transactionIndex": "0x63",
          "logIndex": "0x8c",
          "removed": false
        },
        {
          "address": "0x270e88f8683660553e8ba4eb2ad7c91a1710d769",
          "topics": [
            "0x4afcb4a87cdbd9974efdb92ee48bc8d7cd0ae4bf217004db3d080cbaee652ca7"
          ],
          "data": "0x000000000000000000000000000000000000000000000000000000006786c66c00000000000000000000000000000000000000000000000000039851de4225050000000000000000000000000000000000000000000000000dc841689294476f",
          "blockHash": "0xc683d0f80b53e8b4e0c11aaed50268f85815e5f061f18a581101f122fb98483b",
          "blockNumber": "0x7251b6",
          "transactionHash": "0x9b095ea39488bd826dc8982d7d2b595774673629b2c73b505150e4d6f621551d",
          "transactionIndex": "0x63",
          "logIndex": "0x8d",
          "removed": false
        }
      ],
      "logsBloom": "0x00000000000000000000000000000000000000000000000000000000000000000000000000000000000000000000000020000000000000004000000000000000000000000000000000000008000000000000000000000000000000000000000000000000020000000000000000000800020000000000000000000010000000000000000000010000000000000000000000000000000000000000010000000000000000000000000000000000000000004000000000000000000000000000000000000002000000800000000000000000000000000000080000008000000020000000000000000000000000000000000000000000000000000000000000000000",
      "type": "0x2",
      "transactionHash": "0x9b095ea39488bd826dc8982d7d2b595774673629b2c73b505150e4d6f621551d",
      "transactionIndex": "0x63",
      "blockHash": "0xc683d0f80b53e8b4e0c11aaed50268f85815e5f061f18a581101f122fb98483b",
      "blockNumber": "0x7251b6",
      "gasUsed": "0xfb93",
      "effectiveGasPrice": "0x4091c3fe7",
      "from": "0xc77f7fed3b5cc8249adc428c5f44c9063b9734b4",
      "to": "0x270e88f8683660553e8ba4eb2ad7c91a1710d769",
      "contractAddress": null
    }
  ],
  "libraries": [],
  "pending": [],
  "returns": {},
  "timestamp": 1736885869,
  "chain": 11155111,
  "commit": "51a374b"
}