{
  "transactions": [
    {
      "hash": "0x85a269fac766ca8051747ef800ffa7dbf90056104ad033c922705413bca3a7f2",
      "transactionType": "CALL",
      "contractName": null,
      "contractAddress": "0x8aafd3ede9adb0ff97c7aebce82a919afb1c8764",
      "function": "sell(uint256)",
      "arguments": [
        "57930664"
      ],
      "transaction": {
        "from": "0xc77f7fed3b5cc8249adc428c5f44c9063b9734b4",
        "to": "0x8aafd3ede9adb0ff97c7aebce82a919afb1c8764",
        "gas": "0x15d88",
        "value": "0x0",
        "input": "0xe4849b32000000000000000000000000000000000000000000000000000000000373f3a8",
        "nonce": "0x14ab",
        "chainId": "0xaa36a7"
      },
      "additionalContracts": [],
      "isFixedGasLimit": false
    }
  ],
  "receipts": [
    {
      "status": "0x1",
      "cumulativeGasUsed": "0x14f3d6e",
      "logs": [
        {
          "address": "0x8aafd3ede9adb0ff97c7aebce82a919afb1c8764",
          "topics": [
            "0xddf252ad1be2c89b69c2b068fc378daa952ba7f163c4a11628f55a4df523b3ef",
            "0x000000000000000000000000c77f7fed3b5cc8249adc428c5f44c9063b9734b4",
            "0x0000000000000000000000000000000000000000000000000000000000000000"
          ],
          "data": "0x00000000000000000000000000000000000000000000000000000000036ce153",
          "blockHash": "0xa22633e587f85908dfb7bdeafa34cd5d06e44314ec382e3d833f9934d24c51d3",
          "blockNumber": "0x731c01",
          "transactionHash": "0x85a269fac766ca8051747ef800ffa7dbf90056104ad033c922705413bca3a7f2",
          "transactionIndex": "0xb1",
          "logIndex": "0x15a",
          "removed": false
        },
        {
          "address": "0x8aafd3ede9adb0ff97c7aebce82a919afb1c8764",
          "topics": [
            "0xddf252ad1be2c89b69c2b068fc378daa952ba7f163c4a11628f55a4df523b3ef",
            "0x000000000000000000000000c77f7fed3b5cc8249adc428c5f44c9063b9734b4",
            "0x000000000000000000000000c77f7fed3b5cc8249adc428c5f44c9063b9734b4"
          ],
          "data": "0x0000000000000000000000000000000000000000000000000000000000071255",
          "blockHash": "0xa22633e587f85908dfb7bdeafa34cd5d06e44314ec382e3d833f9934d24c51d3",
          "blockNumber": "0x731c01",
          "transactionHash": "0x85a269fac766ca8051747ef800ffa7dbf90056104ad033c922705413bca3a7f2",
          "transactionIndex": "0xb1",
          "logIndex": "0x15b",
          "removed": false
        },
        {
          "address": "0x8aafd3ede9adb0ff97c7aebce82a919afb1c8764",
          "topics": [
            "0x4afcb4a87cdbd9974efdb92ee48bc8d7cd0ae4bf217004db3d080cbaee652ca7"
          ],
          "data": "0x0000000000000000000000000000000000000000000000000000000067904ce80000000000000000000000000000000000000000000000000010113ed13ba5fd000000000000000000000000000000000000000000000000000000000003ff6a",
          "blockHash": "0xa22633e587f85908dfb7bdeafa34cd5d06e44314ec382e3d833f9934d24c51d3",
          "blockNumber": "0x731c01",
          "transactionHash": "0x85a269fac766ca8051747ef800ffa7dbf90056104ad033c922705413bca3a7f2",
          "transactionIndex": "0xb1",
          "logIndex": "0x15c",
          "removed": false
        }
      ],
      "logsBloom": "0x00000000000000000000000000000000000000000600000000000000000000000000000000000000000000000000000000000000000000004000000000000000000000000000004000000008000000000000000000000000000000000000000000000000020000000000000000000800020000000000000000000010000000000000000000000000000000000000000000000000000000000000010000000000000000000000000000000000000000004000000000000000000000000000000000000002000000800000000000000000000000000000080000000000000020000000000000000000000000000000000000000000000000000000000000000000",
      "type": "0x2",
      "transactionHash": "0x85a269fac766ca8051747ef800ffa7dbf90056104ad033c922705413bca3a7f2",
      "transactionIndex": "0xb1",
      "blockHash": "0xa22633e587f85908dfb7bdeafa34cd5d06e44314ec382e3d833f9934d24c51d3",
      "blockNumber": "0x731c01",
      "gasUsed": "0xfd0f",
      "effectiveGasPrice": "0x1003cf30b",
      "from": "0xc77f7fed3b5cc8249adc428c5f44c9063b9734b4",
      "to": "0x8aafd3ede9adb0ff97c7aebce82a919afb1c8764",
      "contractAddress": null
    }
  ],
  "libraries": [],
  "pending": [],
  "returns": {},
  "timestamp": 1737510122,
  "chain": 11155111,
  "commit": "1d2fb70"
}