{
  "transactions": [
    {
      "hash": "0xea150f5b0b2e3042a8105210d27feff5568a9c5c02f06f834a0c306ec9194930",
      "transactionType": "CALL",
      "contractName": null,
      "contractAddress": "0x5eb9cc76c3506942c1c0ead70e877dd5e4f00cb0",
      "function": "buy(address)",
      "arguments": [
        "0xC77f7fed3b5Cc8249aDc428c5F44C9063B9734b4"
      ],
      "transaction": {
        "from": "0xc77f7fed3b5cc8249adc428c5f44c9063b9734b4",
        "to": "0x5eb9cc76c3506942c1c0ead70e877dd5e4f00cb0",
        "gas": "0x156c8",
        "value": "0xde0b6b3a7640000",
        "input": "0xf088d547000000000000000000000000c77f7fed3b5cc8249adc428c5f44c9063b9734b4",
        "nonce": "0x13e",
        "chainId": "0xaa36a7"
      },
      "additionalContracts": [],
      "isFixedGasLimit": false
    }
  ],
  "receipts": [
    {
      "status": "0x1",
      "cumulativeGasUsed": "0xa11306",
      "logs": [
        {
          "address": "0x5eb9cc76c3506942c1c0ead70e877dd5e4f00cb0",
          "topics": [
            "0xddf252ad1be2c89b69c2b068fc378daa952ba7f163c4a11628f55a4df523b3ef",
            "0x0000000000000000000000000000000000000000000000000000000000000000",
            "0x000000000000000000000000c77f7fed3b5cc8249adc428c5f44c9063b9734b4"
          ],
          "data": "0x000000000000000000000000000000000000000000000035aaf97dd1adecacb7",
          "blockHash": "0xeb3019bafbf7e6f5dc4c9c0332b875f160aafebeaffb18348bdb734ee6373d4f",
          "blockNumber": "0x723b28",
          "transactionHash": "0xea150f5b0b2e3042a8105210d27feff5568a9c5c02f06f834a0c306ec9194930",
          "transactionIndex": "0x21",
          "logIndex": "0x2c",
          "removed": false
        },
        {
          "address": "0x5eb9cc76c3506942c1c0ead70e877dd5e4f00cb0",
          "topics": [
            "0xddf252ad1be2c89b69c2b068fc378daa952ba7f163c4a11628f55a4df523b3ef",
            "0x0000000000000000000000000000000000000000000000000000000000000000",
            "0x000000000000000000000000c77f7fed3b5cc8249adc428c5f44c9063b9734b4"
          ],
          "data": "0x00000000000000000000000000000000000000000000000029acc84ae75c2f94",
          "blockHash": "0xeb3019bafbf7e6f5dc4c9c0332b875f160aafebeaffb18348bdb734ee6373d4f",
          "blockNumber": "0x723b28",
          "transactionHash": "0xea150f5b0b2e3042a8105210d27feff5568a9c5c02f06f834a0c306ec9194930",
          "transactionIndex": "0x21",
          "logIndex": "0x2d",
          "removed": false
        },
        {
          "address": "0x5eb9cc76c3506942c1c0ead70e877dd5e4f00cb0",
          "topics": [
            "0x4afcb4a87cdbd9974efdb92ee48bc8d7cd0ae4bf217004db3d080cbaee652ca7"
          ],
          "data": "0x000000000000000000000000000000000000000000000000000000006785b73400000000000000000000000000000000000000000000000000038d7f4519bb590000000000000000000000000000000000000000000000000de0b6b3a7640000",
          "blockHash": "0xeb3019bafbf7e6f5dc4c9c0332b875f160aafebeaffb18348bdb734ee6373d4f",
          "blockNumber": "0x723b28",
          "transactionHash": "0xea150f5b0b2e3042a8105210d27feff5568a9c5c02f06f834a0c306ec9194930",
          "transactionIndex": "0x21",
          "logIndex": "0x2e",
          "removed": false
        }
      ],
      "logsBloom": "0x00000000000000000000000000000000000000000000000000000000000000000000000000000000000000000000000000000000000000004000000000000000000000000000000000000008000000000000000000000000000000000000000000000000020000000000000004000800020000000000000000000010000000000000000000000000000000000000000000000000000000000000010000000000000000000000000000000000000000004000000000000000000000000000020000000002000000800000008000000000000000000000080000000000000020000000000000000000000000000000000000000000000000000000000000000000",
      "type": "0x2",
      "transactionHash": "0xea150f5b0b2e3042a8105210d27feff5568a9c5c02f06f834a0c306ec9194930",
      "transactionIndex": "0x21",
      "blockHash": "0xeb3019bafbf7e6f5dc4c9c0332b875f160aafebeaffb18348bdb734ee6373d4f",
      "blockNumber": "0x723b28",
      "gasUsed": "0xf82c",
      "effectiveGasPrice": "0x447ee1903",
      "from": "0xc77f7fed3b5cc8249adc428c5f44c9063b9734b4",
      "to": "0x5eb9cc76c3506942c1c0ead70e877dd5e4f00cb0",
      "contractAddress": null
    }
  ],
  "libraries": [],
  "pending": [],
  "returns": {},
  "timestamp": 1736816437,
  "chain": 11155111,
  "commit": "51a374b"
}