{
  "transactions": [
    {
      "hash": "0x26045fe9b297aedf65ad7ac000ce4176f7960e1e691d253082981ddf716a754c",
      "transactionType": "CALL",
      "contractName": null,
      "contractAddress": "0x5eb9cc76c3506942c1c0ead70e877dd5e4f00cb0",
      "function": "sell(uint256)",
      "arguments": [
        "989081514436043703448"
      ],
      "transaction": {
        "from": "0xc77f7fed3b5cc8249adc428c5f44c9063b9734b4",
        "to": "0x5eb9cc76c3506942c1c0ead70e877dd5e4f00cb0",
        "gas": "0x15b6b",
        "value": "0x0",
        "input": "0xe4849b320000000000000000000000000000000000000000000000359e436d0049c78498",
        "nonce": "0x475",
        "chainId": "0xaa36a7"
      },
      "additionalContracts": [],
      "isFixedGasLimit": false
    }
  ],
  "receipts": [
    {
      "status": "0x1",
      "cumulativeGasUsed": "0x12ac7da",
      "logs": [
        {
          "address": "0x5eb9cc76c3506942c1c0ead70e877dd5e4f00cb0",
          "topics": [
            "0xddf252ad1be2c89b69c2b068fc378daa952ba7f163c4a11628f55a4df523b3ef",
            "0x000000000000000000000000c77f7fed3b5cc8249adc428c5f44c9063b9734b4",
            "0x0000000000000000000000000000000000000000000000000000000000000000"
          ],
          "data": "0x0000000000000000000000000000000000000000000000359e436d0049c78498",
          "blockHash": "0xb1292fd378055283d5a8d33e0bb92018f4bc48c19d0e8c54204352b7149a6904",
          "blockNumber": "0x7250a1",
          "transactionHash": "0x26045fe9b297aedf65ad7ac000ce4176f7960e1e691d253082981ddf716a754c",
          "transactionIndex": "0x5e",
          "logIndex": "0x86",
          "removed": false
        },
        {
          "address": "0x5eb9cc76c3506942c1c0ead70e877dd5e4f00cb0",
          "topics": [
            "0x4afcb4a87cdbd9974efdb92ee48bc8d7cd0ae4bf217004db3d080cbaee652ca7"
          ],
          "data": "0x000000000000000000000000000000000000000000000000000000006786b95800000000000000000000000000000000000000000000000000039119d73ccd0b0000000000000000000000000000000000000000000000000dc7db1331c68e3e",
          "blockHash": "0xb1292fd378055283d5a8d33e0bb92018f4bc48c19d0e8c54204352b7149a6904",
          "blockNumber": "0x7250a1",
          "transactionHash": "0x26045fe9b297aedf65ad7ac000ce4176f7960e1e691d253082981ddf716a754c",
          "transactionIndex": "0x5e",
          "logIndex": "0x87",
          "removed": false
        }
      ],
      "logsBloom": "0x00000000000000000000000000000000000000000000000000000000000000000000000000000000000000000000000000000000000000004000000000000000000000000000000000000008000000000000000000000000000000000000000000000000020000000000000004000800020000000000000000000010000000000000000000000000000000000000000000000000000000000000010000000000000000000000000000000000000000004000000000000000000000000000020000000002000000800000008000000000000000000000080000000000000020000000000000000000000000000000000000000000000000000000000000000000",
      "type": "0x2",
      "transactionHash": "0x26045fe9b297aedf65ad7ac000ce4176f7960e1e691d253082981ddf716a754c",
      "transactionIndex": "0x5e",
      "blockHash": "0xb1292fd378055283d5a8d33e0bb92018f4bc48c19d0e8c54204352b7149a6904",
      "blockNumber": "0x7250a1",
      "gasUsed": "0xfb87",
      "effectiveGasPrice": "0x1db9b5ce5",
      "from": "0xc77f7fed3b5cc8249adc428c5f44c9063b9734b4",
      "to": "0x5eb9cc76c3506942c1c0ead70e877dd5e4f00cb0",
      "contractAddress": null
    }
  ],
  "libraries": [],
  "pending": [],
  "returns": {},
  "timestamp": 1736882521,
  "chain": 11155111,
  "commit": "51a374b"
}