{
  "transactions": [
    {
      "hash": "0x00223de9d61f6db22057f5a974c2ec20ac54c9b2a7a5e882f1275072fcf2c092",
      "transactionType": "CALL",
      "contractName": null,
      "contractAddress": "0x270e88f8683660553e8ba4eb2ad7c91a1710d769",
      "function": "buy(address)",
      "arguments": [
        "0xC77f7fed3b5Cc8249aDc428c5F44C9063B9734b4"
      ],
      "transaction": {
        "from": "0xc77f7fed3b5cc8249adc428c5f44c9063b9734b4",
        "to": "0x270e88f8683660553e8ba4eb2ad7c91a1710d769",
        "gas": "0x1b30c",
        "value": "0xde0b6b3a7640000",
        "input": "0xf088d547000000000000000000000000c77f7fed3b5cc8249adc428c5f44c9063b9734b4",
        "nonce": "0x699",
        "chainId": "0xaa36a7"
      },
      "additionalContracts": [],
      "isFixedGasLimit": false
    }
  ],
  "receipts": [
    {
      "status": "0x1",
      "cumulativeGasUsed": "0xd6a1ff",
      "logs": [
        {
          "address": "0x270e88f8683660553e8ba4eb2ad7c91a1710d769",
          "topics": [
            "0xddf252ad1be2c89b69c2b068fc378daa952ba7f163c4a11628f55a4df523b3ef",
            "0x0000000000000000000000000000000000000000000000000000000000000000",
            "0x000000000000000000000000c77f7fed3b5cc8249adc428c5f44c9063b9734b4"
          ],
          "data": "0x000000000000000000000000000000000000000000000028c881b63edadd42fe",
          "blockHash": "0xba9800140df202de72c3a009cc14943041b5078252db456de58cb856e7c36c48",
          "blockNumber": "0x72539d",
          "transactionHash": "0x00223de9d61f6db22057f5a974c2ec20ac54c9b2a7a5e882f1275072fcf2c092",
          "transactionIndex": "0x4d",
          "logIndex": "0x75",
          "removed": false
        },
        {
          "address": "0x270e88f8683660553e8ba4eb2ad7c91a1710d769",
          "topics": [
            "0xddf252ad1be2c89b69c2b068fc378daa952ba7f163c4a11628f55a4df523b3ef",
            "0x0000000000000000000000000000000000000000000000000000000000000000",
            "0x000000000000000000000000c77f7fed3b5cc8249adc428c5f44c9063b9734b4"
          ],
          "data": "0x0000000000000000000000000000000000000000000000001fab68d95f290b0d",
          "blockHash": "0xba9800140df202de72c3a009cc14943041b5078252db456de58cb856e7c36c48",
          "blockNumber": "0x72539d",
          "transactionHash": "0x00223de9d61f6db22057f5a974c2ec20ac54c9b2a7a5e882f1275072fcf2c092",
          "transactionIndex": "0x4d",
          "logIndex": "0x76",
          "removed": false
        },
        {
          "address": "0x270e88f8683660553e8ba4eb2ad7c91a1710d769",
          "topics": [
            "0x4afcb4a87cdbd9974efdb92ee48bc8d7cd0ae4bf217004db3d080cbaee652ca7"
          ],
          "data": "0x000000000000000000000000000000000000000000000000000000006786dd640000000000000000000000000000000000000000000000000004acf066a9d9220000000000000000000000000000000000000000000000000de0b6b3a7640000",
          "blockHash": "0xba9800140df202de72c3a009cc14943041b5078252db456de58cb856e7c36c48",
          "blockNumber": "0x72539d",
          "transactionHash": "0x00223de9d61f6db22057f5a974c2ec20ac54c9b2a7a5e882f1275072fcf2c092",
          "transactionIndex": "0x4d",
          "logIndex": "0x77",
          "removed": false
        }
      ],
      "logsBloom": "0x00000000000000000000000000000000000000000000000000000000000000000000000000000000000000000000000020000000000000004000000000000000000000000000000000000008000000000000000000000000000000000000000000000000020000000000000000000800020000000000000000000010000000000000000000010000000000000000000000000000000000000000010000000000000000000000000000000000000000004000000000000000000000000000000000000002000000800000000000000000000000000000080000008000000020000000000000000000000000000000000000000000000000000000000000000000",
      "type": "0x2",
      "transactionHash": "0x00223de9d61f6db22057f5a974c2ec20ac54c9b2a7a5e882f1275072fcf2c092",
      "transactionIndex": "0x4d",
      "blockHash": "0xba9800140df202de72c3a009cc14943041b5078252db456de58cb856e7c36c48",
      "blockNumber": "0x72539d",
      "gasUsed": "0x13af8",
      "effectiveGasPrice": "0x1d037904c",
      "from": "0xc77f7fed3b5cc8249adc428c5f44c9063b9734b4",
      "to": "0x270e88f8683660553e8ba4eb2ad7c91a1710d769",
      "contractAddress": null
    }
  ],
  "libraries": [],
  "pending": [],
  "returns": {},
  "timestamp": 1736891750,
  "chain": 11155111,
  "commit": "51a374b"
}