{
  "transactions": [
    {
      "hash": "0xb64d587d6ca276917ca449e21e07d427c80c4a857f5790f4c0a29249e94b6378",
      "transactionType": "CALL",
      "contractName": null,
      "contractAddress": "0x8aafd3ede9adb0ff97c7aebce82a919afb1c8764",
      "function": "sell(uint256)",
      "arguments": [
        "106256381346491"
      ],
      "transaction": {
        "from": "0xc77f7fed3b5cc8249adc428c5f44c9063b9734b4",
        "to": "0x8aafd3ede9adb0ff97c7aebce82a919afb1c8764",
        "gas": "0x15daa",
        "value": "0x0",
        "input": "0xe4849b32000000000000000000000000000000000000000000000000000060a3bddd82bb",
        "nonce": "0x1502",
        "chainId": "0xaa36a7"
      },
      "additionalContracts": [],
      "isFixedGasLimit": false
    }
  ],
  "receipts": [
    {
      "status": "0x1",
      "cumulativeGasUsed": "0x1028891",
      "logs": [
        {
          "address": "0x8aafd3ede9adb0ff97c7aebce82a919afb1c8764",
          "topics": [
            "0xddf252ad1be2c89b69c2b068fc378daa952ba7f163c4a11628f55a4df523b3ef",
            "0x000000000000000000000000c77f7fed3b5cc8249adc428c5f44c9063b9734b4",
            "0x0000000000000000000000000000000000000000000000000000000000000000"
          ],
          "data": "0x00000000000000000000000000000000000000000000000000005fddd2dfd5a8",
          "blockHash": "0x5ac567429314d1c3ac4b5cee5f58da97dccf908adf43e1f813974097b8f4c8e9",
          "blockNumber": "0x731c64",
          "transactionHash": "0xb64d587d6ca276917ca449e21e07d427c80c4a857f5790f4c0a29249e94b6378",
          "transactionIndex": "0xaa",
          "logIndex": "0x106",
          "removed": false
        },
        {
          "address": "0x8aafd3ede9adb0ff97c7aebce82a919afb1c8764",
          "topics": [
            "0xddf252ad1be2c89b69c2b068fc378daa952ba7f163c4a11628f55a4df523b3ef",
            "0x000000000000000000000000c77f7fed3b5cc8249adc428c5f44c9063b9734b4",
            "0x000000000000000000000000c77f7fed3b5cc8249adc428c5f44c9063b9734b4"
          ],
          "data": "0x000000000000000000000000000000000000000000000000000000c5eafdad13",
          "blockHash": "0x5ac567429314d1c3ac4b5cee5f58da97dccf908adf43e1f813974097b8f4c8e9",
          "blockNumber": "0x731c64",
          "transactionHash": "0xb64d587d6ca276917ca449e21e07d427c80c4a857f5790f4c0a29249e94b6378",
          "transactionIndex": "0xaa",
          "logIndex": "0x107",
          "removed": false
        },
        {
          "address": "0x8aafd3ede9adb0ff97c7aebce82a919afb1c8764",
          "topics": [
            "0x4afcb4a87cdbd9974efdb92ee48bc8d7cd0ae4bf217004db3d080cbaee652ca7"
          ],
          "data": "0x000000000000000000000000000000000000000000000000000000006790518c00000000000000000000000000000000000000000000000000111a505080e3c90000000000000000000000000000000000000000000000000000007718e7b671",
          "blockHash": "0x5ac567429314d1c3ac4b5cee5f58da97dccf908adf43e1f813974097b8f4c8e9",
          "blockNumber": "0x731c64",
          "transactionHash": "0xb64d587d6ca276917ca449e21e07d427c80c4a857f5790f4c0a29249e94b6378",
          "transactionIndex": "0xaa",
          "logIndex": "0x108",
          "removed": false
        }
      ],
      "logsBloom": "0x00000000000000000000000000000000000000000600000000000000000000000000000000000000000000000000000000000000000000004000000000000000000000000000004000000008000000000000000000000000000000000000000000000000020000000000000000000800020000000000000000000010000000000000000000000000000000000000000000000000000000000000010000000000000000000000000000000000000000004000000000000000000000000000000000000002000000800000000000000000000000000000080000000000000020000000000000000000000000000000000000000000000000000000000000000000",
      "type": "0x2",
      "transactionHash": "0xb64d587d6ca276917ca449e21e07d427c80c4a857f5790f4c0a29249e94b6378",
      "transactionIndex": "0xaa",
      "blockHash": "0x5ac567429314d1c3ac4b5cee5f58da97dccf908adf43e1f813974097b8f4c8e9",
      "blockNumber": "0x731c64",
      "gasUsed": "0xfd27",
      "effectiveGasPrice": "0x18226541d",
      "from": "0xc77f7fed3b5cc8249adc428c5f44c9063b9734b4",
      "to": "0x8aafd3ede9adb0ff97c7aebce82a919afb1c8764",
      "contractAddress": null
    }
  ],
  "libraries": [],
  "pending": [],
  "returns": {},
  "timestamp": 1737511310,
  "chain": 11155111,
  "commit": "1d2fb70"
}