{
  "transactions": [
    {
      "hash": "0xe0c6e3525cae6487e0c234f6a5441b6e5eed398735d630bd8828b704deaa42cc",
      "transactionType": "CALL",
      "contractName": null,
      "contractAddress": "0x270e88f8683660553e8ba4eb2ad7c91a1710d769",
      "function": "sell(uint256)",
      "arguments": [
        "956393580098156320922"
      ],
      "transaction": {
        "from": "0xc77f7fed3b5cc8249adc428c5f44c9063b9734b4",
        "to": "0x270e88f8683660553e8ba4eb2ad7c91a1710d769",
        "gas": "0x16fec",
        "value": "0x0",
        "input": "0xe4849b32000000000000000000000000000000000000000000000033d8a08de8aeb5589a",
        "nonce": "0x5c3",
        "chainId": "0xaa36a7"
      },
      "additionalContracts": [],
      "isFixedGasLimit": false
    }
  ],
  "receipts": [
    {
      "status": "0x1",
      "cumulativeGasUsed": "0xac1ba0",
      "logs": [
        {
          "address": "0x270e88f8683660553e8ba4eb2ad7c91a1710d769",
          "topics": [
            "0xddf252ad1be2c89b69c2b068fc378daa952ba7f163c4a11628f55a4df523b3ef",
            "0x000000000000000000000000c77f7fed3b5cc8249adc428c5f44c9063b9734b4",
            "0x0000000000000000000000000000000000000000000000000000000000000000"
          ],
          "data": "0x000000000000000000000000000000000000000000000033d8a08de8aeb5589a",
          "blockHash": "0x938931f55e17ce36387269073f34d3efab1b95ea955d5d74fb71d3802fd3998f",
          "blockNumber": "0x725282",
          "transactionHash": "0xe0c6e3525cae6487e0c234f6a5441b6e5eed398735d630bd8828b704deaa42cc",
          "transactionIndex": "0x51",
          "logIndex": "0x77",
          "removed": false
        },
        {
          "address": "0x270e88f8683660553e8ba4eb2ad7c91a1710d769",
          "topics": [
            "0x4afcb4a87cdbd9974efdb92ee48bc8d7cd0ae4bf217004db3d080cbaee652ca7"
          ],
          "data": "0x000000000000000000000000000000000000000000000000000000006786d0080000000000000000000000000000000000000000000000000003b099fa0c8d880000000000000000000000000000000000000000000000000dc83ed0d4ea6ff9",
          "blockHash": "0x938931f55e17ce36387269073f34d3efab1b95ea955d5d74fb71d3802fd3998f",
          "blockNumber": "0x725282",
          "transactionHash": "0xe0c6e3525cae6487e0c234f6a5441b6e5eed398735d630bd8828b704deaa42cc",
          "transactionIndex": "0x51",
          "logIndex": "0x78",
          "removed": false
        }
      ],
      "logsBloom": "0x00000000000000000000000000000000000000000000000000000000000000000000000000000000000000000000000020000000000000004000000000000000000000000000000000000008000000000000000000000000000000000000000000000000020000000000000000000800020000000000000000000010000000000000000000010000000000000000000000000000000000000000010000000000000000000000000000000000000000004000000000000000000000000000000000000002000000800000000000000000000000000000080000008000000020000000000000000000000000000000000000000000000000000000000000000000",
      "type": "0x2",
      "transactionHash": "0xe0c6e3525cae6487e0c234f6a5441b6e5eed398735d630bd8828b704deaa42cc",
      "transactionIndex": "0x51",
      "blockHash": "0x938931f55e17ce36387269073f34d3efab1b95ea955d5d74fb71d3802fd3998f",
      "blockNumber": "0x725282",
      "gasUsed": "0xfb93",
      "effectiveGasPrice": "0x427df3efb",
      "from": "0xc77f7fed3b5cc8249adc428c5f44c9063b9734b4",
      "to": "0x270e88f8683660553e8ba4eb2ad7c91a1710d769",
      "contractAddress": null
    }
  ],
  "libraries": [],
  "pending": [],
  "returns": {},
  "timestamp": 1736888329,
  "chain": 11155111,
  "commit": "51a374b"
}