{
  "transactions": [
    {
      "hash": "0x18e7627299cc368ee54fdac652780d012541ca718dba833ddcc273d17a1b9a56",
      "transactionType": "CALL",
      "contractName": null,
      "contractAddress": "0xbf4a322f1496e5c3d34a9bcdb4c60567b38c7de2",
      "function": "sell(uint256)",
      "arguments": [
        "977121051878143741815"
      ],
      "transaction": {
        "from": "0xc77f7fed3b5cc8249adc428c5f44c9063b9734b4",
        "to": "0xbf4a322f1496e5c3d34a9bcdb4c60567b38c7de2",
        "gas": "0x16fea",
        "value": "0x0",
        "input": "0xe4849b32000000000000000000000000000000000000000000000034f84753ac88cacf77",
        "nonce": "0xcef",
        "chainId": "0xaa36a7"
      },
      "additionalContracts": [],
      "isFixedGasLimit": false
    }
  ],
  "receipts": [
    {
      "status": "0x1",
      "cumulativeGasUsed": "0xa1effb",
      "logs": [
        {
          "address": "0xbf4a322f1496e5c3d34a9bcdb4c60567b38c7de2",
          "topics": [
            "0xddf252ad1be2c89b69c2b068fc378daa952ba7f163c4a11628f55a4df523b3ef",
            "0x000000000000000000000000c77f7fed3b5cc8249adc428c5f44c9063b9734b4",
            "0x0000000000000000000000000000000000000000000000000000000000000000"
          ],
          "data": "0x000000000000000000000000000000000000000000000034f84753ac88cacf77",
          "blockHash": "0xb176ff87bfdc79892017c3300a4bc9364bcebee22bff6544d35148b285421637",
          "blockNumber": "0x725d41",
          "transactionHash": "0x18e7627299cc368ee54fdac652780d012541ca718dba833ddcc273d17a1b9a56",
          "transactionIndex": "0x5d",
          "logIndex": "0xa6",
          "removed": false
        },
        {
          "address": "0xbf4a322f1496e5c3d34a9bcdb4c60567b38c7de2",
          "topics": [
            "0x4afcb4a87cdbd9974efdb92ee48bc8d7cd0ae4bf217004db3d080cbaee652ca7"
          ],
          "data": "0x000000000000000000000000000000000000000000000000000000006787518000000000000000000000000000000000000000000000000000039c4d7eeffc410000000000000000000000000000000000000000000000000dc7e3db5f65c3d0",
          "blockHash": "0xb176ff87bfdc79892017c3300a4bc9364bcebee22bff6544d35148b285421637",
          "blockNumber": "0x725d41",
          "transactionHash": "0x18e7627299cc368ee54fdac652780d012541ca718dba833ddcc273d17a1b9a56",
          "transactionIndex": "0x5d",
          "logIndex": "0xa7",
          "removed": false
        }
      ],
      "logsBloom": "0x00000000000000000000000000000000000000000000000000000000000000000000000000000000000000000000000000000000000000004000000000000000000000000000000000000008000000000000001000000000000000000000000000000000020000000000000000000800020000000000000000000010000000000000000000000000000000000000000000000000000008000000010000000000000000000000000000000000000000004000000000000000000000000000000000000002000000800000000000001000000000000000080000000000000020000000000000000000000000000000000000000000000000000000000000000000",
      "type": "0x2",
      "transactionHash": "0x18e7627299cc368ee54fdac652780d012541ca718dba833ddcc273d17a1b9a56",
      "transactionIndex": "0x5d",
      "blockHash": "0xb176ff87bfdc79892017c3300a4bc9364bcebee22bff6544d35148b285421637",
      "blockNumber": "0x725d41",
      "gasUsed": "0xfb91",
      "effectiveGasPrice": "0x4119109fd",
      "from": "0xc77f7fed3b5cc8249adc428c5f44c9063b9734b4",
      "to": "0xbf4a322f1496e5c3d34a9bcdb4c60567b38c7de2",
      "contractAddress": null
    }
  ],
  "libraries": [],
  "pending": [],
  "returns": {},
  "timestamp": 1736921473,
  "chain": 11155111,
  "commit": "51a374b"
}