{
  "transactions": [
    {
      "hash": "0x0b232fa8a40e8776df8e1180366b4533845be25b3b83817e016f051c3b84340e",
      "transactionType": "CALL",
      "contractName": null,
      "contractAddress": "0x8aafd3ede9adb0ff97c7aebce82a919afb1c8764",
      "function": "sell(uint256)",
      "arguments": [
        "40103962"
      ],
      "transaction": {
        "from": "0xc77f7fed3b5cc8249adc428c5f44c9063b9734b4",
        "to": "0x8aafd3ede9adb0ff97c7aebce82a919afb1c8764",
        "gas": "0x15d88",
        "value": "0x0",
        "input": "0xe4849b32000000000000000000000000000000000000000000000000000000000263f01a",
        "nonce": "0x170f",
        "chainId": "0xaa36a7"
      },
      "additionalContracts": [],
      "isFixedGasLimit": false
    }
  ],
  "receipts": [
    {
      "status": "0x1",
      "cumulativeGasUsed": "0x90a941",
      "logs": [
        {
          "address": "0x8aafd3ede9adb0ff97c7aebce82a919afb1c8764",
          "topics": [
            "0xddf252ad1be2c89b69c2b068fc378daa952ba7f163c4a11628f55a4df523b3ef",
            "0x000000000000000000000000c77f7fed3b5cc8249adc428c5f44c9063b9734b4",
            "0x0000000000000000000000000000000000000000000000000000000000000000"
          ],
          "data": "0x00000000000000000000000000000000000000000000000000000000025f0adb",
          "blockHash": "0xa1ee097a433c131d87a7d654eefd69d51d436ce9ce73aeea7758e6e9ea7fe5ff",
          "blockNumber": "0x731ed4",
          "transactionHash": "0x0b232fa8a40e8776df8e1180366b4533845be25b3b83817e016f051c3b84340e",
          "transactionIndex": "0x5a",
          "logIndex": "0x90",
          "removed": false
        },
        {
          "address": "0x8aafd3ede9adb0ff97c7aebce82a919afb1c8764",
          "topics": [
            "0xddf252ad1be2c89b69c2b068fc378daa952ba7f163c4a11628f55a4df523b3ef",
            "0x000000000000000000000000c77f7fed3b5cc8249adc428c5f44c9063b9734b4",
            "0x000000000000000000000000c77f7fed3b5cc8249adc428c5f44c9063b9734b4"
          ],
          "data": "0x000000000000000000000000000000000000000000000000000000000004e53f",
          "blockHash": "0xa1ee097a433c131d87a7d654eefd69d51d436ce9ce73aeea7758e6e9ea7fe5ff",
          "blockNumber": "0x731ed4",
          "transactionHash": "0x0b232fa8a40e8776df8e1180366b4533845be25b3b83817e016f051c3b84340e",
          "transactionIndex": "0x5a",
          "logIndex": "0x91",
          "removed": false
        },
        {
          "address": "0x8aafd3ede9adb0ff97c7aebce82a919afb1c8764",
          "topics": [
            "0x4afcb4a87cdbd9974efdb92ee48bc8d7cd0ae4bf217004db3d080cbaee652ca7"
          ],
          "data": "0x0000000000000000000000000000000000000000000000000000000067906ed800000000000000000000000000000000000000000000000000172a599dc11192000000000000000000000000000000000000000000000000000000000003fd79",
          "blockHash": "0xa1ee097a433c131d87a7d654eefd69d51d436ce9ce73aeea7758e6e9ea7fe5ff",
          "blockNumber": "0x731ed4",
          "transactionHash": "0x0b232fa8a40e8776df8e1180366b4533845be25b3b83817e016f051c3b84340e",
          "transactionIndex": "0x5a",
          "logIndex": "0x92",
          "removed": false
        }
      ],
      "logsBloom": "0x00000000000000000000000000000000000000000600000000000000000000000000000000000000000000000000000000000000000000004000000000000000000000000000004000000008000000000000000000000000000000000000000000000000020000000000000000000800020000000000000000000010000000000000000000000000000000000000000000000000000000000000010000000000000000000000000000000000000000004000000000000000000000000000000000000002000000800000000000000000000000000000080000000000000020000000000000000000000000000000000000000000000000000000000000000000",
      "type": "0x2",
      "transactionHash": "0x0b232fa8a40e8776df8e1180366b4533845be25b3b83817e016f051c3b84340e",
      "transactionIndex": "0x5a",
      "blockHash": "0xa1ee097a433c131d87a7d654eefd69d51d436ce9ce73aeea7758e6e9ea7fe5ff",
      "blockNumber": "0x731ed4",
      "gasUsed": "0xfd0f",
      "effectiveGasPrice": "0x3f3cc2a0",
      "from": "0xc77f7fed3b5cc8249adc428c5f44c9063b9734b4",
      "to": "0x8aafd3ede9adb0ff97c7aebce82a919afb1c8764",
      "contractAddress": null
    }
  ],
  "libraries": [],
  "pending": [],
  "returns": {},
  "timestamp": 1737518809,
  "chain": 11155111,
  "commit": "1d2fb70"
}