{
  "transactions": [
    {
      "hash": "0xf5a717c42fb20f42ccf9ba51c82cda93f5aadcb4bd35e8dd5fd06ef6da9cce78",
      "transactionType": "CALL",
      "contractName": null,
      "contractAddress": "0x8aafd3ede9adb0ff97c7aebce82a919afb1c8764",
      "function": "sell(uint256)",
      "arguments": [
        "47741556066629040"
      ],
      "transaction": {
        "from": "0xc77f7fed3b5cc8249adc428c5f44c9063b9734b4",
        "to": "0x8aafd3ede9adb0ff97c7aebce82a919afb1c8764",
        "gas": "0x1724d",
        "value": "0x0",
        "input": "0xe4849b3200000000000000000000000000000000000000000000000000a99cb13a6035b0",
        "nonce": "0xef8",
        "chainId": "0xaa36a7"
      },
      "additionalContracts": [],
      "isFixedGasLimit": false
    }
  ],
  "receipts": [
    {
      "status": "0x1",
      "cumulativeGasUsed": "0x7363a4",
      "logs": [
        {
          "address": "0x8aafd3ede9adb0ff97c7aebce82a919afb1c8764",
          "topics": [
            "0xddf252ad1be2c89b69c2b068fc378daa952ba7f163c4a11628f55a4df523b3ef",
            "0x000000000000000000000000c77f7fed3b5cc8249adc428c5f44c9063b9734b4",
            "0x0000000000000000000000000000000000000000000000000000000000000000"
          ],
          "data": "0x00000000000000000000000000000000000000000000000000a84153a673eb88",
          "blockHash": "0x5d6657374ddeb38ddf463394c2b5f9c9312e5dd95c51068ba9f4b2b462e4f7a5",
          "blockNumber": "0x731470",
          "transactionHash": "0xf5a717c42fb20f42ccf9ba51c82cda93f5aadcb4bd35e8dd5fd06ef6da9cce78",
          "transactionIndex": "0x60",
          "logIndex": "0x8c",
          "removed": false
        },
        {
          "address": "0x8aafd3ede9adb0ff97c7aebce82a919afb1c8764",
          "topics": [
            "0xddf252ad1be2c89b69c2b068fc378daa952ba7f163c4a11628f55a4df523b3ef",
            "0x000000000000000000000000c77f7fed3b5cc8249adc428c5f44c9063b9734b4",
            "0x000000000000000000000000c77f7fed3b5cc8249adc428c5f44c9063b9734b4"
          ],
          "data": "0x00000000000000000000000000000000000000000000000000015b5d93ec4a28",
          "blockHash": "0x5d6657374ddeb38ddf463394c2b5f9c9312e5dd95c51068ba9f4b2b462e4f7a5",
          "blockNumber": "0x731470",
          "transactionHash": "0xf5a717c42fb20f42ccf9ba51c82cda93f5aadcb4bd35e8dd5fd06ef6da9cce78",
          "transactionIndex": "0x60",
          "logIndex": "0x8d",
          "removed": false
        },
        {
          "address": "0x8aafd3ede9adb0ff97c7aebce82a919afb1c8764",
          "topics": [
            "0x4afcb4a87cdbd9974efdb92ee48bc8d7cd0ae4bf217004db3d080cbaee652ca7"
          ],
          "data": "0x00000000000000000000000000000000000000000000000000000000678ff1ec0000000000000000000000000000000000000000000000000004bb1be8011925000000000000000000000000000000000000000000000000000039d1fa722ac3",
          "blockHash": "0x5d6657374ddeb38ddf463394c2b5f9c9312e5dd95c51068ba9f4b2b462e4f7a5",
          "blockNumber": "0x731470",
          "transactionHash": "0xf5a717c42fb20f42ccf9ba51c82cda93f5aadcb4bd35e8dd5fd06ef6da9cce78",
          "transactionIndex": "0x60",
          "logIndex": "0x8e",
          "removed": false
        }
      ],
      "logsBloom": "0x00000000000000000000000000000000000000000600000000000000000000000000000000000000000000000000000000000000000000004000000000000000000000000000004000000008000000000000000000000000000000000000000000000000020000000000000000000800020000000000000000000010000000000000000000000000000000000000000000000000000000000000010000000000000000000000000000000000000000004000000000000000000000000000000000000002000000800000000000000000000000000000080000000000000020000000000000000000000000000000000000000000000000000000000000000000",
      "type": "0x2",
      "transactionHash": "0xf5a717c42fb20f42ccf9ba51c82cda93f5aadcb4bd35e8dd5fd06ef6da9cce78",
      "transactionIndex": "0x60",
      "blockHash": "0x5d6657374ddeb38ddf463394c2b5f9c9312e5dd95c51068ba9f4b2b462e4f7a5",
      "blockNumber": "0x731470",
      "gasUsed": "0xfd33",
      "effectiveGasPrice": "0x9cdb8931",
      "from": "0xc77f7fed3b5cc8249adc428c5f44c9063b9734b4",
      "to": "0x8aafd3ede9adb0ff97c7aebce82a919afb1c8764",
      "contractAddress": null
    }
  ],
  "libraries": [],
  "pending": [],
  "returns": {},
  "timestamp": 1737486830,
  "chain": 11155111,
  "commit": "51a374b"
}