{
  "transactions": [
    {
      "hash": "0xc2f70099ff5ee53bdbe201c41175e0e08e72ded000d014a8b11f1b92cfa9e2a8",
      "transactionType": "CALL",
      "contractName": null,
      "contractAddress": "0x8aafd3ede9adb0ff97c7aebce82a919afb1c8764",
      "function": "sell(uint256)",
      "arguments": [
        "1462478"
      ],
      "transaction": {
        "from": "0xc77f7fed3b5cc8249adc428c5f44c9063b9734b4",
        "to": "0x8aafd3ede9adb0ff97c7aebce82a919afb1c8764",
        "gas": "0x16208",
        "value": "0x0",
        "input": "0xe4849b3200000000000000000000000000000000000000000000000000000000001650ce",
        "nonce": "0x1124",
        "chainId": "0xaa36a7"
      },
      "additionalContracts": [],
      "isFixedGasLimit": false
    }
  ],
  "receipts": [
    {
      "status": "0x1",
      "cumulativeGasUsed": "0xc1711c",
      "logs": [
        {
          "address": "0x8aafd3ede9adb0ff97c7aebce82a919afb1c8764",
          "topics": [
            "0xddf252ad1be2c89b69c2b068fc378daa952ba7f163c4a11628f55a4df523b3ef",
            "0x000000000000000000000000c77f7fed3b5cc8249adc428c5f44c9063b9734b4",
            "0x0000000000000000000000000000000000000000000000000000000000000000"
          ],
          "data": "0x000000000000000000000000000000000000000000000000000000000016231b",
          "blockHash": "0xb91e8ef1dc6497a14dcd3445008ec82455e0f8fbbb74a605b2dd44c97d964311",
          "blockNumber": "0x7317d9",
          "transactionHash": "0xc2f70099ff5ee53bdbe201c41175e0e08e72ded000d014a8b11f1b92cfa9e2a8",
          "transactionIndex": "0x7c",
          "logIndex": "0x7c",
          "removed": false
        },
        {
          "address": "0x8aafd3ede9adb0ff97c7aebce82a919afb1c8764",
          "topics": [
            "0xddf252ad1be2c89b69c2b068fc378daa952ba7f163c4a11628f55a4df523b3ef",
            "0x000000000000000000000000c77f7fed3b5cc8249adc428c5f44c9063b9734b4",
            "0x000000000000000000000000c77f7fed3b5cc8249adc428c5f44c9063b9734b4"
          ],
          "data": "0x0000000000000000000000000000000000000000000000000000000000002db3",
          "blockHash": "0xb91e8ef1dc6497a14dcd3445008ec82455e0f8fbbb74a605b2dd44c97d964311",
          "blockNumber": "0x7317d9",
          "transactionHash": "0xc2f70099ff5ee53bdbe201c41175e0e08e72ded000d014a8b11f1b92cfa9e2a8",
          "transactionIndex": "0x7c",
          "logIndex": "0x7d",
          "removed": false
        },
        {
          "address": "0x8aafd3ede9adb0ff97c7aebce82a919afb1c8764",
          "topics": [
            "0x4afcb4a87cdbd9974efdb92ee48bc8d7cd0ae4bf217004db3d080cbaee652ca7"
          ],
          "data": "0x0000000000000000000000000000000000000000000000000000000067901af000000000000000000000000000000000000000000000000000051084492f9cb60000000000000000000000000000000000000000000000000000000000000824",
          "blockHash": "0xb91e8ef1dc6497a14dcd3445008ec82455e0f8fbbb74a605b2dd44c97d964311",
          "blockNumber": "0x7317d9",
          "transactionHash": "0xc2f70099ff5ee53bdbe201c41175e0e08e72ded000d014a8b11f1b92cfa9e2a8",
          "transactionIndex": "0x7c",
          "logIndex": "0x7e",
          "removed": false
        }
      ],
      "logsBloom": "0x00000000000000000000000000000000000000000600000000000000000000000000000000000000000000000000000000000000000000004000000000000000000000000000004000000008000000000000000000000000000000000000000000000000020000000000000000000800020000000000000000000010000000000000000000000000000000000000000000000000000000000000010000000000000000000000000000000000000000004000000000000000000000000000000000000002000000800000000000000000000000000000080000000000000020000000000000000000000000000000000000000000000000000000000000000000",
      "type": "0x2",
      "transactionHash": "0xc2f70099ff5ee53bdbe201c41175e0e08e72ded000d014a8b11f1b92cfa9e2a8",
      "transactionIndex": "0x7c",
      "blockHash": "0xb91e8ef1dc6497a14dcd3445008ec82455e0f8fbbb74a605b2dd44c97d964311",
      "blockNumber": "0x7317d9",
      "gasUsed": "0xf213",
      "effectiveGasPrice": "0x466358cc",
      "from": "0xc77f7fed3b5cc8249adc428c5f44c9063b9734b4",
      "to": "0x8aafd3ede9adb0ff97c7aebce82a919afb1c8764",
      "contractAddress": null
    }
  ],
  "libraries": [],
  "pending": [],
  "returns": {},
  "timestamp": 1737497329,
  "chain": 11155111,
  "commit": "1d2fb70"
}