{
  "transactions": [
    {
      "hash": "0x1539b786c158628051b212aac77a3eb50c545deae507db575cbb20fc61ebde09",
      "transactionType": "CALL",
      "contractName": null,
      "contractAddress": "0x5eb9cc76c3506942c1c0ead70e877dd5e4f00cb0",
      "function": "buy(address)",
      "arguments": [
        "0xC77f7fed3b5Cc8249aDc428c5F44C9063B9734b4"
      ],
      "transaction": {
        "from": "0xc77f7fed3b5cc8249adc428c5f44c9063b9734b4",
        "to": "0x5eb9cc76c3506942c1c0ead70e877dd5e4f00cb0",
        "gas": "0x156c8",
        "value": "0xde0b6b3a7640000",
        "input": "0xf088d547000000000000000000000000c77f7fed3b5cc8249adc428c5f44c9063b9734b4",
        "nonce": "0x21a",
        "chainId": "0xaa36a7"
      },
      "additionalContracts": [],
      "isFixedGasLimit": false
    }
  ],
  "receipts": [
    {
      "status": "0x1",
      "cumulativeGasUsed": "0xfeaac8",
      "logs": [
        {
          "address": "0x5eb9cc76c3506942c1c0ead70e877dd5e4f00cb0",
          "topics": [
            "0xddf252ad1be2c89b69c2b068fc378daa952ba7f163c4a11628f55a4df523b3ef",
            "0x0000000000000000000000000000000000000000000000000000000000000000",
            "0x000000000000000000000000c77f7fed3b5cc8249adc428c5f44c9063b9734b4"
          ],
          "data": "0x0000000000000000000000000000000000000000000000357c432cb9fc83f884",
          "blockHash": "0x06be7218184d3cea0b09c3ee8be819d34a28de28b99e00fe3d89fa04b6ccbc26",
          "blockNumber": "0x724dab",
          "transactionHash": "0x1539b786c158628051b212aac77a3eb50c545deae507db575cbb20fc61ebde09",
          "transactionIndex": "0x6a",
          "logIndex": "0xab",
          "removed": false
        },
        {
          "address": "0x5eb9cc76c3506942c1c0ead70e877dd5e4f00cb0",
          "topics": [
            "0xddf252ad1be2c89b69c2b068fc378daa952ba7f163c4a11628f55a4df523b3ef",
            "0x0000000000000000000000000000000000000000000000000000000000000000",
            "0x000000000000000000000000c77f7fed3b5cc8249adc428c5f44c9063b9734b4"
          ],
          "data": "0x00000000000000000000000000000000000000000000000029888240711d6b5d",
          "blockHash": "0x06be7218184d3cea0b09c3ee8be819d34a28de28b99e00fe3d89fa04b6ccbc26",
          "blockNumber": "0x724dab",
          "transactionHash": "0x1539b786c158628051b212aac77a3eb50c545deae507db575cbb20fc61ebde09",
          "transactionIndex": "0x6a",
          "logIndex": "0xac",
          "removed": false
        },
        {
          "address": "0x5eb9cc76c3506942c1c0ead70e877dd5e4f00cb0",
          "topics": [
            "0x4afcb4a87cdbd9974efdb92ee48bc8d7cd0ae4bf217004db3d080cbaee652ca7"
          ],
          "data": "0x00000000000000000000000000000000000000000000000000000000678695b80000000000000000000000000000000000000000000000000003909996e17bd20000000000000000000000000000000000000000000000000de0b6b3a7640000",
          "blockHash": "0x06be7218184d3cea0b09c3ee8be819d34a28de28b99e00fe3d89fa04b6ccbc26",
          "blockNumber": "0x724dab",
          "transactionHash": "0x1539b786c158628051b212aac77a3eb50c545deae507db575cbb20fc61ebde09",
          "transactionIndex": "0x6a",
          "logIndex": "0xad",
          "removed": false
        }
      ],
      "logsBloom": "0x00000000000000000000000000000000000000000000000000000000000000000000000000000000000000000000000000000000000000004000000000000000000000000000000000000008000000000000000000000000000000000000000000000000020000000000000004000800020000000000000000000010000000000000000000000000000000000000000000000000000000000000010000000000000000000000000000000000000000004000000000000000000000000000020000000002000000800000008000000000000000000000080000000000000020000000000000000000000000000000000000000000000000000000000000000000",
      "type": "0x2",
      "transactionHash": "0x1539b786c158628051b212aac77a3eb50c545deae507db575cbb20fc61ebde09",
      "transactionIndex": "0x6a",
      "blockHash": "0x06be7218184d3cea0b09c3ee8be819d34a28de28b99e00fe3d89fa04b6ccbc26",
      "blockNumber": "0x724dab",
      "gasUsed": "0xf82c",
      "effectiveGasPrice": "0x40cc02650",
      "from": "0xc77f7fed3b5cc8249adc428c5f44c9063b9734b4",
      "to": "0x5eb9cc76c3506942c1c0ead70e877dd5e4f00cb0",
      "contractAddress": null
    }
  ],
  "libraries": [],
  "pending": [],
  "returns": {},
  "timestamp": 1736873402,
  "chain": 11155111,
  "commit": "51a374b"
}