{
  "transactions": [
    {
      "hash": "0x2b7f7b73dfa3d24055dc9d0a4a533ec14b069e19a330f18bb27d937c5851a933",
      "transactionType": "CALL",
      "contractName": null,
      "contractAddress": "0xbf4a322f1496e5c3d34a9bcdb4c60567b38c7de2",
      "function": "sell(uint256)",
      "arguments": [
        "977361371417201403412"
      ],
      "transaction": {
        "from": "0xc77f7fed3b5cc8249adc428c5f44c9063b9734b4",
        "to": "0xbf4a322f1496e5c3d34a9bcdb4c60567b38c7de2",
        "gas": "0x16fea",
        "value": "0x0",
        "input": "0xe4849b32000000000000000000000000000000000000000000000034fb9d1d057ee8e614",
        "nonce": "0xcdd",
        "chainId": "0xaa36a7"
      },
      "additionalContracts": [],
      "isFixedGasLimit": false
    }
  ],
  "receipts": [
    {
      "status": "0x1",
      "cumulativeGasUsed": "0xb20051",
      "logs": [
        {
          "address": "0xbf4a322f1496e5c3d34a9bcdb4c60567b38c7de2",
          "topics": [
            "0xddf252ad1be2c89b69c2b068fc378daa952ba7f163c4a11628f55a4df523b3ef",
            "0x000000000000000000000000c77f7fed3b5cc8249adc428c5f44c9063b9734b4",
            "0x0000000000000000000000000000000000000000000000000000000000000000"
          ],
          "data": "0x000000000000000000000000000000000000000000000034fb9d1d057ee8e614",
          "blockHash": "0x0cd92ceb35d40c750973b957ef55cbd65cf3db209614c29be3b609531b4b63cf",
          "blockNumber": "0x725d2e",
          "transactionHash": "0x2b7f7b73dfa3d24055dc9d0a4a533ec14b069e19a330f18bb27d937c5851a933",
          "transactionIndex": "0x5b",
          "logIndex": "0xcc",
          "removed": false
        },
        {
          "address": "0xbf4a322f1496e5c3d34a9bcdb4c60567b38c7de2",
          "topics": [
            "0x4afcb4a87cdbd9974efdb92ee48bc8d7cd0ae4bf217004db3d080cbaee652ca7"
          ],
          "data": "0x000000000000000000000000000000000000000000000000000000006787509c00000000000000000000000000000000000000000000000000039c1350c547ad0000000000000000000000000000000000000000000000000dc7e3dbee7054a1",
          "blockHash": "0x0cd92ceb35d40c750973b957ef55cbd65cf3db209614c29be3b609531b4b63cf",
          "blockNumber": "0x725d2e",
          "transactionHash": "0x2b7f7b73dfa3d24055dc9d0a4a533ec14b069e19a330f18bb27d937c5851a933",
          "transactionIndex": "0x5b",
          "logIndex": "0xcd",
          "removed": false
        }
      ],
      "logsBloom": "0x00000000000000000000000000000000000000000000000000000000000000000000000000000000000000000000000000000000000000004000000000000000000000000000000000000008000000000000001000000000000000000000000000000000020000000000000000000800020000000000000000000010000000000000000000000000000000000000000000000000000008000000010000000000000000000000000000000000000000004000000000000000000000000000000000000002000000800000000000001000000000000000080000000000000020000000000000000000000000000000000000000000000000000000000000000000",
      "type": "0x2",
      "transactionHash": "0x2b7f7b73dfa3d24055dc9d0a4a533ec14b069e19a330f18bb27d937c5851a933",
      "transactionIndex": "0x5b",
      "blockHash": "0x0cd92ceb35d40c750973b957ef55cbd65cf3db209614c29be3b609531b4b63cf",
      "blockNumber": "0x725d2e",
      "gasUsed": "0xfb91",
      "effectiveGasPrice": "0x53ff904ff",
      "from": "0xc77f7fed3b5cc8249adc428c5f44c9063b9734b4",
      "to": "0xbf4a322f1496e5c3d34a9bcdb4c60567b38c7de2",
      "contractAddress": null
    }
  ],
  "libraries": [],
  "pending": [],
  "returns": {},
  "timestamp": 1736921246,
  "chain": 11155111,
  "commit": "51a374b"
}