{
  "transactions": [
    {
      "hash": "0xbb9c74d7d6a34354c8163fda04f15926521f8d2da3f509342d4ff49ad23aba56",
      "transactionType": "CALL",
      "contractName": null,
      "contractAddress": "0xbf4a322f1496e5c3d34a9bcdb4c60567b38c7de2",
      "function": "sell(uint256)",
      "arguments": [
        "987399036735455256857"
      ],
      "transaction": {
        "from": "0xc77f7fed3b5cc8249adc428c5f44c9063b9734b4",
        "to": "0xbf4a322f1496e5c3d34a9bcdb4c60567b38c7de2",
        "gas": "0x16fea",
        "value": "0x0",
        "input": "0xe4849b3200000000000000000000000000000000000000000000003586ea107253b06119",
        "nonce": "0x9f5",
        "chainId": "0xaa36a7"
      },
      "additionalContracts": [],
      "isFixedGasLimit": false
    }
  ],
  "receipts": [
    {
      "status": "0x1",
      "cumulativeGasUsed": "0x88442a",
      "logs": [
        {
          "address": "0xbf4a322f1496e5c3d34a9bcdb4c60567b38c7de2",
          "topics": [
            "0xddf252ad1be2c89b69c2b068fc378daa952ba7f163c4a11628f55a4df523b3ef",
            "0x000000000000000000000000c77f7fed3b5cc8249adc428c5f44c9063b9734b4",
            "0x0000000000000000000000000000000000000000000000000000000000000000"
          ],
          "data": "0x00000000000000000000000000000000000000000000003586ea107253b06119",
          "blockHash": "0x03946cc12b3fb65cfc0b5b3d994fd0d40e813bbabfc0fc6cc20eda849e7d2e03",
          "blockNumber": "0x7259ab",
          "transactionHash": "0xbb9c74d7d6a34354c8163fda04f15926521f8d2da3f509342d4ff49ad23aba56",
          "transactionIndex": "0x51",
          "logIndex": "0x77",
          "removed": false
        },
        {
          "address": "0xbf4a322f1496e5c3d34a9bcdb4c60567b38c7de2",
          "topics": [
            "0x4afcb4a87cdbd9974efdb92ee48bc8d7cd0ae4bf217004db3d080cbaee652ca7"
          ],
          "data": "0x000000000000000000000000000000000000000000000000000000006787263c000000000000000000000000000000000000000000000000000392ae88cfc2390000000000000000000000000000000000000000000000000dc7e3f344e5ef3c",
          "blockHash": "0x03946cc12b3fb65cfc0b5b3d994fd0d40e813bbabfc0fc6cc20eda849e7d2e03",
          "blockNumber": "0x7259ab",
          "transactionHash": "0xbb9c74d7d6a34354c8163fda04f15926521f8d2da3f509342d4ff49ad23aba56",
          "transactionIndex": "0x51",
          "logIndex": "0x78",
          "removed": false
        }
      ],
      "logsBloom": "0x00000000000000000000000000000000000000000000000000000000000000000000000000000000000000000000000000000000000000004000000000000000000000000000000000000008000000000000001000000000000000000000000000000000020000000000000000000800020000000000000000000010000000000000000000000000000000000000000000000000000008000000010000000000000000000000000000000000000000004000000000000000000000000000000000000002000000800000000000001000000000000000080000000000000020000000000000000000000000000000000000000000000000000000000000000000",
      "type": "0x2",
      "transactionHash": "0xbb9c74d7d6a34354c8163fda04f15926521f8d2da3f509342d4ff49ad23aba56",
      "transactionIndex": "0x51",
      "blockHash": "0x03946cc12b3fb65cfc0b5b3d994fd0d40e813bbabfc0fc6cc20eda849e7d2e03",
      "blockNumber": "0x7259ab",
      "gasUsed": "0xfb91",
      "effectiveGasPrice": "0x2bdd01785",
      "from": "0xc77f7fed3b5cc8249adc428c5f44c9063b9734b4",
      "to": "0xbf4a322f1496e5c3d34a9bcdb4c60567b38c7de2",
      "contractAddress": null
    }
  ],
  "libraries": [],
  "pending": [],
  "returns": {},
  "timestamp": 1736910398,
  "chain": 11155111,
  "commit": "51a374b"
}