{
  "transactions": [
    {
      "hash": "0xfd96ce4a6322f2436d19f55229d7a5bb84d5286cdeec31aeac21605234838a26",
      "transactionType": "CALL",
      "contractName": null,
      "contractAddress": "0x5eb9cc76c3506942c1c0ead70e877dd5e4f00cb0",
      "function": "sell(uint256)",
      "arguments": [
        "989611633146569479194"
      ],
      "transaction": {
        "from": "0xc77f7fed3b5cc8249adc428c5f44c9063b9734b4",
        "to": "0x5eb9cc76c3506942c1c0ead70e877dd5e4f00cb0",
        "gas": "0x16fec",
        "value": "0x0",
        "input": "0xe4849b32000000000000000000000000000000000000000000000035a59ec928df74d41a",
        "nonce": "0x267",
        "chainId": "0xaa36a7"
      },
      "additionalContracts": [],
      "isFixedGasLimit": false
    }
  ],
  "receipts": [
    {
      "status": "0x1",
      "cumulativeGasUsed": "0x13e13b9",
      "logs": [
        {
          "address": "0x5eb9cc76c3506942c1c0ead70e877dd5e4f00cb0",
          "topics": [
            "0xddf252ad1be2c89b69c2b068fc378daa952ba7f163c4a11628f55a4df523b3ef",
            "0x000000000000000000000000c77f7fed3b5cc8249adc428c5f44c9063b9734b4",
            "0x0000000000000000000000000000000000000000000000000000000000000000"
          ],
          "data": "0x000000000000000000000000000000000000000000000035a59ec928df74d41a",
          "blockHash": "0x0aa3dd02800fe6efd85b6d6abba9b612c403f1cf8367acaa16fae512c2c098e2",
          "blockNumber": "0x724e29",
          "transactionHash": "0xfd96ce4a6322f2436d19f55229d7a5bb84d5286cdeec31aeac21605234838a26",
          "transactionIndex": "0xab",
          "logIndex": "0x118",
          "removed": false
        },
        {
          "address": "0x5eb9cc76c3506942c1c0ead70e877dd5e4f00cb0",
          "topics": [
            "0x4afcb4a87cdbd9974efdb92ee48bc8d7cd0ae4bf217004db3d080cbaee652ca7"
          ],
          "data": "0x0000000000000000000000000000000000000000000000000000000067869ba00000000000000000000000000000000000000000000000000003909c9e32d9c40000000000000000000000000000000000000000000000000dc7db1183753071",
          "blockHash": "0x0aa3dd02800fe6efd85b6d6abba9b612c403f1cf8367acaa16fae512c2c098e2",
          "blockNumber": "0x724e29",
          "transactionHash": "0xfd96ce4a6322f2436d19f55229d7a5bb84d5286cdeec31aeac21605234838a26",
          "transactionIndex": "0xab",
          "logIndex": "0x119",
          "removed": false
        }
      ],
      "logsBloom": "0x00000000000000000000000000000000000000000000000000000000000000000000000000000000000000000000000000000000000000004000000000000000000000000000000000000008000000000000000000000000000000000000000000000000020000000000000004000800020000000000000000000010000000000000000000000000000000000000000000000000000000000000010000000000000000000000000000000000000000004000000000000000000000000000020000000002000000800000008000000000000000000000080000000000000020000000000000000000000000000000000000000000000000000000000000000000",
      "type": "0x2",
      "transactionHash": "0xfd96ce4a6322f2436d19f55229d7a5bb84d5286cdeec31aeac21605234838a26",
      "transactionIndex": "0xab",
      "blockHash": "0x0aa3dd02800fe6efd85b6d6abba9b612c403f1cf8367acaa16fae512c2c098e2",
      "blockNumber": "0x724e29",
      "gasUsed": "0xfb93",
      "effectiveGasPrice": "0x362148712",
      "from": "0xc77f7fed3b5cc8249adc428c5f44c9063b9734b4",
      "to": "0x5eb9cc76c3506942c1c0ead70e877dd5e4f00cb0",
      "contractAddress": null
    }
  ],
  "libraries": [],
  "pending": [],
  "returns": {},
  "timestamp": 1736874914,
  "chain": 11155111,
  "commit": "51a374b"
}