{
  "transactions": [
    {
      "hash": "0x2e0e2f9299bde09bf8f1224f019ee4c853d50cf99af23fc25ad2cde20aaec586",
      "transactionType": "CALL",
      "contractName": null,
      "contractAddress": "0x3b71253dcecbaf453f48043c75f311253fd0ad31",
      "function": "buy(address)",
      "arguments": [
        "0xC77f7fed3b5Cc8249aDc428c5F44C9063B9734b4"
      ],
      "transaction": {
        "from": "0xc77f7fed3b5cc8249adc428c5f44c9063b9734b4",
        "to": "0x3b71253dcecbaf453f48043c75f311253fd0ad31",
        "gas": "0x1b30c",
        "value": "0xde0b6b3a7640000",
        "input": "0xf088d547000000000000000000000000c77f7fed3b5cc8249adc428c5f44c9063b9734b4",
        "nonce": "0x4c8",
        "chainId": "0xaa36a7"
      },
      "additionalContracts": [],
      "isFixedGasLimit": false
    }
  ],
  "receipts": [
    {
      "status": "0x1",
      "cumulativeGasUsed": "0xc88179",
      "logs": [
        {
          "address": "0x3b71253dcecbaf453f48043c75f311253fd0ad31",
          "topics": [
            "0xddf252ad1be2c89b69c2b068fc378daa952ba7f163c4a11628f55a4df523b3ef",
            "0x0000000000000000000000000000000000000000000000000000000000000000",
            "0x000000000000000000000000c77f7fed3b5cc8249adc428c5f44c9063b9734b4"
          ],
          "data": "0x00000000000000000000000000000000000000000000d19b12bcb670f32409fd",
          "blockHash": "0xabc844739bd4b6baddb4db2b83c7837e1665a9f32eec06c27a6dc98a7aad6ca6",
          "blockNumber": "0x725119",
          "transactionHash": "0x2e0e2f9299bde09bf8f1224f019ee4c853d50cf99af23fc25ad2cde20aaec586",
          "transactionIndex": "0x65",
          "logIndex": "0xd7",
          "removed": false
        },
        {
          "address": "0x3b71253dcecbaf453f48043c75f311253fd0ad31",
          "topics": [
            "0xddf252ad1be2c89b69c2b068fc378daa952ba7f163c4a11628f55a4df523b3ef",
            "0x0000000000000000000000000000000000000000000000000000000000000000",
            "0x000000000000000000000000c77f7fed3b5cc8249adc428c5f44c9063b9734b4"
          ],
          "data": "0x0000000000000000000000000000000000000000000000a2c419c360c7c75c36",
          "blockHash": "0xabc844739bd4b6baddb4db2b83c7837e1665a9f32eec06c27a6dc98a7aad6ca6",
          "blockNumber": "0x725119",
          "transactionHash": "0x2e0e2f9299bde09bf8f1224f019ee4c853d50cf99af23fc25ad2cde20aaec586",
          "transactionIndex": "0x65",
          "logIndex": "0xd8",
          "removed": false
        },
        {
          "address": "0x3b71253dcecbaf453f48043c75f311253fd0ad31",
          "topics": [
            "0x4afcb4a87cdbd9974efdb92ee48bc8d7cd0ae4bf217004db3d080cbaee652ca7"
          ],
          "data": "0x000000000000000000000000000000000000000000000000000000006786bf10000000000000000000000000000000000000000000000000000000e8e568252a0000000000000000000000000000000000000000000000000de0b6b3a7640000",
          "blockHash": "0xabc844739bd4b6baddb4db2b83c7837e1665a9f32eec06c27a6dc98a7aad6ca6",
          "blockNumber": "0x725119",
          "transactionHash": "0x2e0e2f9299bde09bf8f1224f019ee4c853d50cf99af23fc25ad2cde20aaec586",
          "transactionIndex": "0x65",
          "logIndex": "0xd9",
          "removed": false
        }
      ],
      "logsBloom": "0x00000000000000000000000000000000000000000000000000000000000000000000000000000000000000000000000000000000000000004000020000000000000000000000000000000008000000000000000000000000000000000000000000000000020000000000000000000800020000000000000000000010002000000000000000000000000000000000000000000000000000000000010000000000000000000000000000000000000000004000000000000000000000000000000000000002000000800000000000000000000000000000080000000000000020000000000000000000008000000000000000000000000000000000000000000000",
      "type": "0x2",
      "transactionHash": "0x2e0e2f9299bde09bf8f1224f019ee4c853d50cf99af23fc25ad2cde20aaec586",
      "transactionIndex": "0x65",
      "blockHash": "0xabc844739bd4b6baddb4db2b83c7837e1665a9f32eec06c27a6dc98a7aad6ca6",
      "blockNumber": "0x725119",
      "gasUsed": "0x13af8",
      "effectiveGasPrice": "0x28f6462c1",
      "from": "0xc77f7fed3b5cc8249adc428c5f44c9063b9734b4",
      "to": "0x3b71253dcecbaf453f48043c75f311253fd0ad31",
      "contractAddress": null
    }
  ],
  "libraries": [],
  "pending": [],
  "returns": {},
  "timestamp": 1736883985,
  "chain": 11155111,
  "commit": "51a374b"
}