{
  "transactions": [
    {
      "hash": "0xe4a69bb32a3d2bccc02c1e0648457ba259182c8316ea5e4a284bdd46c82c1bb7",
      "transactionType": "CALL",
      "contractName": null,
      "contractAddress": "0x8aafd3ede9adb0ff97c7aebce82a919afb1c8764",
      "function": "sell(uint256)",
      "arguments": [
        "152289655825128681420"
      ],
      "transaction": {
        "from": "0xc77f7fed3b5cc8249adc428c5f44c9063b9734b4",
        "to": "0x8aafd3ede9adb0ff97c7aebce82a919afb1c8764",
        "gas": "0x17270",
        "value": "0x0",
        "input": "0xe4849b3200000000000000000000000000000000000000000000000841718b1b974aefcc",
        "nonce": "0x1712",
        "chainId": "0xaa36a7"
      },
      "additionalContracts": [],
      "isFixedGasLimit": false
    }
  ],
  "receipts": [
    {
      "status": "0x1",
      "cumulativeGasUsed": "0xdfa693",
      "logs": [
        {
          "address": "0x8aafd3ede9adb0ff97c7aebce82a919afb1c8764",
          "topics": [
            "0xddf252ad1be2c89b69c2b068fc378daa952ba7f163c4a11628f55a4df523b3ef",
            "0x000000000000000000000000c77f7fed3b5cc8249adc428c5f44c9063b9734b4",
            "0x0000000000000000000000000000000000000000000000000000000000000000"
          ],
          "data": "0x00000000000000000000000000000000000000000000000830893606e3e80881",
          "blockHash": "0x2af79163652f56327168b7ab85ded7cedbecd36bdf4e072fae59ff16a3dfede3",
          "blockNumber": "0x731ed7",
          "transactionHash": "0xe4a69bb32a3d2bccc02c1e0648457ba259182c8316ea5e4a284bdd46c82c1bb7",
          "transactionIndex": "0x77",
          "logIndex": "0x103",
          "removed": false
        },
        {
          "address": "0x8aafd3ede9adb0ff97c7aebce82a919afb1c8764",
          "topics": [
            "0xddf252ad1be2c89b69c2b068fc378daa952ba7f163c4a11628f55a4df523b3ef",
            "0x000000000000000000000000c77f7fed3b5cc8249adc428c5f44c9063b9734b4",
            "0x000000000000000000000000c77f7fed3b5cc8249adc428c5f44c9063b9734b4"
          ],
          "data": "0x00000000000000000000000000000000000000000000000010e85514b362e74b",
          "blockHash": "0x2af79163652f56327168b7ab85ded7cedbecd36bdf4e072fae59ff16a3dfede3",
          "blockNumber": "0x731ed7",
          "transactionHash": "0xe4a69bb32a3d2bccc02c1e0648457ba259182c8316ea5e4a284bdd46c82c1bb7",
          "transactionIndex": "0x77",
          "logIndex": "0x104",
          "removed": false
        },
        {
          "address": "0x8aafd3ede9adb0ff97c7aebce82a919afb1c8764",
          "topics": [
            "0x4afcb4a87cdbd9974efdb92ee48bc8d7cd0ae4bf217004db3d080cbaee652ca7"
          ],
          "data": "0x0000000000000000000000000000000000000000000000000000000067906efc00000000000000000000000000000000000000000000000000174520dc0fcd900000000000000000000000000000000000000000000000000dcbf3f63c20ac33",
          "blockHash": "0x2af79163652f56327168b7ab85ded7cedbecd36bdf4e072fae59ff16a3dfede3",
          "blockNumber": "0x731ed7",
          "transactionHash": "0xe4a69bb32a3d2bccc02c1e0648457ba259182c8316ea5e4a284bdd46c82c1bb7",
          "transactionIndex": "0x77",
          "logIndex": "0x105",
          "removed": false
        }
      ],
      "logsBloom": "0x00000000000000000000000000000000000000000600000000000000000000000000000000000000000000000000000000000000000000004000000000000000000000000000004000000008000000000000000000000000000000000000000000000000020000000000000000000800020000000000000000000010000000000000000000000000000000000000000000000000000000000000010000000000000000000000000000000000000000004000000000000000000000000000000000000002000000800000000000000000000000000000080000000000000020000000000000000000000000000000000000000000000000000000000000000000",
      "type": "0x2",
      "transactionHash": "0xe4a69bb32a3d2bccc02c1e0648457ba259182c8316ea5e4a284bdd46c82c1bb7",
      "transactionIndex": "0x77",
      "blockHash": "0x2af79163652f56327168b7ab85ded7cedbecd36bdf4e072fae59ff16a3dfede3",
      "blockNumber": "0x731ed7",
      "gasUsed": "0xfd4b",
      "effectiveGasPrice": "0x3aa62705",
      "from": "0xc77f7fed3b5cc8249adc428c5f44c9063b9734b4",
      "to": "0x8aafd3ede9adb0ff97c7aebce82a919afb1c8764",
      "contractAddress": null
    }
  ],
  "libraries": [],
  "pending": [],
  "returns": {},
  "timestamp": 1737518845,
  "chain": 11155111,
  "commit": "1d2fb70"
}