{
  "transactions": [
    {
      "hash": "0x362e2ce8fd7535883f231155cb9b063ab6df7d4324b3e29e463a1f5946f04a2b",
      "transactionType": "CALL",
      "contractName": null,
      "contractAddress": "0x5eb9cc76c3506942c1c0ead70e877dd5e4f00cb0",
      "function": "buy(address)",
      "arguments": [
        "0xC77f7fed3b5Cc8249aDc428c5F44C9063B9734b4"
      ],
      "transaction": {
        "from": "0xc77f7fed3b5cc8249adc428c5f44c9063b9734b4",
        "to": "0x5eb9cc76c3506942c1c0ead70e877dd5e4f00cb0",
        "gas": "0x1b30c",
        "value": "0xde0b6b3a7640000",
        "input": "0xf088d547000000000000000000000000c77f7fed3b5cc8249adc428c5f44c9063b9734b4",
        "nonce": "0x270",
        "chainId": "0xaa36a7"
      },
      "additionalContracts": [],
      "isFixedGasLimit": false
    }
  ],
  "receipts": [
    {
      "status": "0x1",
      "cumulativeGasUsed": "0xa241bd",
      "logs": [
        {
          "address": "0x5eb9cc76c3506942c1c0ead70e877dd5e4f00cb0",
          "topics": [
            "0xddf252ad1be2c89b69c2b068fc378daa952ba7f163c4a11628f55a4df523b3ef",
            "0x0000000000000000000000000000000000000000000000000000000000000000",
            "0x000000000000000000000000c77f7fed3b5cc8249adc428c5f44c9063b9734b4"
          ],
          "data": "0x0000000000000000000000000000000000000000000000357c111e826c555740",
          "blockHash": "0x45787d0cdffdb4d0927b0686761965b0bced3f5b2a13377bd623d69d0de73993",
          "blockNumber": "0x724e37",
          "transactionHash": "0x362e2ce8fd7535883f231155cb9b063ab6df7d4324b3e29e463a1f5946f04a2b",
          "transactionIndex": "0x48",
          "logIndex": "0x8e",
          "removed": false
        },
        {
          "address": "0x5eb9cc76c3506942c1c0ead70e877dd5e4f00cb0",
          "topics": [
            "0xddf252ad1be2c89b69c2b068fc378daa952ba7f163c4a11628f55a4df523b3ef",
            "0x0000000000000000000000000000000000000000000000000000000000000000",
            "0x000000000000000000000000c77f7fed3b5cc8249adc428c5f44c9063b9734b4"
          ],
          "data": "0x00000000000000000000000000000000000000000000000029885b61c3e612fa",
          "blockHash": "0x45787d0cdffdb4d0927b0686761965b0bced3f5b2a13377bd623d69d0de73993",
          "blockNumber": "0x724e37",
          "transactionHash": "0x362e2ce8fd7535883f231155cb9b063ab6df7d4324b3e29e463a1f5946f04a2b",
          "transactionIndex": "0x48",
          "logIndex": "0x8f",
          "removed": false
        },
        {
          "address": "0x5eb9cc76c3506942c1c0ead70e877dd5e4f00cb0",
          "topics": [
            "0x4afcb4a87cdbd9974efdb92ee48bc8d7cd0ae4bf217004db3d080cbaee652ca7"
          ],
          "data": "0x0000000000000000000000000000000000000000000000000000000067869c480000000000000000000000000000000000000000000000000003909cecf87ca20000000000000000000000000000000000000000000000000de0b6b3a7640000",
          "blockHash": "0x45787d0cdffdb4d0927b0686761965b0bced3f5b2a13377bd623d69d0de73993",
          "blockNumber": "0x724e37",
          "transactionHash": "0x362e2ce8fd7535883f231155cb9b063ab6df7d4324b3e29e463a1f5946f04a2b",
          "transactionIndex": "0x48",
          "logIndex": "0x90",
          "removed": false
        }
      ],
      "logsBloom": "0x00000000000000000000000000000000000000000000000000000000000000000000000000000000000000000000000000000000000000004000000000000000000000000000000000000008000000000000000000000000000000000000000000000000020000000000000004000800020000000000000000000010000000000000000000000000000000000000000000000000000000000000010000000000000000000000000000000000000000004000000000000000000000000000020000000002000000800000008000000000000000000000080000000000000020000000000000000000000000000000000000000000000000000000000000000000",
      "type": "0x2",
      "transactionHash": "0x362e2ce8fd7535883f231155cb9b063ab6df7d4324b3e29e463a1f5946f04a2b",
      "transactionIndex": "0x48",
      "blockHash": "0x45787d0cdffdb4d0927b0686761965b0bced3f5b2a13377bd623d69d0de73993",
      "blockNumber": "0x724e37",
      "gasUsed": "0x13af8",
      "effectiveGasPrice": "0x3490b931b",
      "from": "0xc77f7fed3b5cc8249adc428c5f44c9063b9734b4",
      "to": "0x5eb9cc76c3506942c1c0ead70e877dd5e4f00cb0",
      "contractAddress": null
    }
  ],
  "libraries": [],
  "pending": [],
  "returns": {},
  "timestamp": 1736875081,
  "chain": 11155111,
  "commit": "51a374b"
}