{
  "transactions": [
    {
      "hash": "0xbf0488cd6f17e860472d4b8bbfa67d35ece917b63170702117d99ea80f38dcb0",
      "transactionType": "CALL",
      "contractName": null,
      "contractAddress": "0x8aafd3ede9adb0ff97c7aebce82a919afb1c8764",
      "function": "sell(uint256)",
      "arguments": [
        "148906220095424105061"
      ],
      "transaction": {
        "from": "0xc77f7fed3b5cc8249adc428c5f44c9063b9734b4",
        "to": "0x8aafd3ede9adb0ff97c7aebce82a919afb1c8764",
        "gas": "0x17270",
        "value": "0x0",
        "input": "0xe4849b32000000000000000000000000000000000000000000000008127d2a3ce1e30a65",
        "nonce": "0x173f",
        "chainId": "0xaa36a7"
      },
      "additionalContracts": [],
      "isFixedGasLimit": false
    }
  ],
  "receipts": [
    {
      "status": "0x1",
      "cumulativeGasUsed": "0xb3030d",
      "logs": [
        {
          "address": "0x8aafd3ede9adb0ff97c7aebce82a919afb1c8764",
          "topics": [
            "0xddf252ad1be2c89b69c2b068fc378daa952ba7f163c4a11628f55a4df523b3ef",
            "0x000000000000000000000000c77f7fed3b5cc8249adc428c5f44c9063b9734b4",
            "0x0000000000000000000000000000000000000000000000000000000000000000"
          ],
          "data": "0x00000000000000000000000000000000000000000000000801f4fee454d0d71d",
          "blockHash": "0x9193a73da7a1073f625340b75fadea41c8642c7d94e95d4b25262f4de3f64caa",
          "blockNumber": "0x731f0a",
          "transactionHash": "0xbf0488cd6f17e860472d4b8bbfa67d35ece917b63170702117d99ea80f38dcb0",
          "transactionIndex": "0x65",
          "logIndex": "0xa6",
          "removed": false
        },
        {
          "address": "0x8aafd3ede9adb0ff97c7aebce82a919afb1c8764",
          "topics": [
            "0xddf252ad1be2c89b69c2b068fc378daa952ba7f163c4a11628f55a4df523b3ef",
            "0x000000000000000000000000c77f7fed3b5cc8249adc428c5f44c9063b9734b4",
            "0x000000000000000000000000c77f7fed3b5cc8249adc428c5f44c9063b9734b4"
          ],
          "data": "0x00000000000000000000000000000000000000000000000010882b588d123348",
          "blockHash": "0x9193a73da7a1073f625340b75fadea41c8642c7d94e95d4b25262f4de3f64caa",
          "blockNumber": "0x731f0a",
          "transactionHash": "0xbf0488cd6f17e860472d4b8bbfa67d35ece917b63170702117d99ea80f38dcb0",
          "transactionIndex": "0x65",
          "logIndex": "0xa7",
          "removed": false
        },
        {
          "address": "0x8aafd3ede9adb0ff97c7aebce82a919afb1c8764",
          "topics": [
            "0x4afcb4a87cdbd9974efdb92ee48bc8d7cd0ae4bf217004db3d080cbaee652ca7"
          ],
          "data": "0x00000000000000000000000000000000000000000000000000000000679071600000000000000000000000000000000000000000000000000017cbe724b05fe00000000000000000000000000000000000000000000000000dcbe06d29952217",
          "blockHash": "0x9193a73da7a1073f625340b75fadea41c8642c7d94e95d4b25262f4de3f64caa",
          "blockNumber": "0x731f0a",
          "transactionHash": "0xbf0488cd6f17e860472d4b8bbfa67d35ece917b63170702117d99ea80f38dcb0",
          "transactionIndex": "0x65",
          "logIndex": "0xa8",
          "removed": false
        }
      ],
      "logsBloom": "0x00000000000000000000000000000000000000000600000000000000000000000000000000000000000000000000000000000000000000004000000000000000000000000000004000000008000000000000000000000000000000000000000000000000020000000000000000000800020000000000000000000010000000000000000000000000000000000000000000000000000000000000010000000000000000000000000000000000000000004000000000000000000000000000000000000002000000800000000000000000000000000000080000000000000020000000000000000000000000000000000000000000000000000000000000000000",
      "type": "0x2",
      "transactionHash": "0xbf0488cd6f17e860472d4b8bbfa67d35ece917b63170702117d99ea80f38dcb0",
      "transactionIndex": "0x65",
      "blockHash": "0x9193a73da7a1073f625340b75fadea41c8642c7d94e95d4b25262f4de3f64caa",
      "blockNumber": "0x731f0a",
      "gasUsed": "0xfd4b",
      "effectiveGasPrice": "0x39cfd27d",
      "from": "0xc77f7fed3b5cc8249adc428c5f44c9063b9734b4",
      "to": "0x8aafd3ede9adb0ff97c7aebce82a919afb1c8764",
      "contractAddress": null
    }
  ],
  "libraries": [],
  "pending": [],
  "returns": {},
  "timestamp": 1737519457,
  "chain": 11155111,
  "commit": "1d2fb70"
}