{
  "transactions": [
    {
      "hash": "0x59ce7bc633f55892964d4491ad43a30e69d409c897e7aaba382107d7bdcd2a6f",
      "transactionType": "CALL",
      "contractName": null,
      "contractAddress": "0xbf4a322f1496e5c3d34a9bcdb4c60567b38c7de2",
      "function": "buy(address)",
      "arguments": [
        "0xC77f7fed3b5Cc8249aDc428c5F44C9063B9734b4"
      ],
      "transaction": {
        "from": "0xc77f7fed3b5cc8249adc428c5f44c9063b9734b4",
        "to": "0xbf4a322f1496e5c3d34a9bcdb4c60567b38c7de2",
        "gas": "0x1b309",
        "value": "0xde0b6b3a7640000",
        "input": "0xf088d547000000000000000000000000c77f7fed3b5cc8249adc428c5f44c9063b9734b4",
        "nonce": "0xba6",
        "chainId": "0xaa36a7"
      },
      "additionalContracts": [],
      "isFixedGasLimit": false
    }
  ],
  "receipts": [
    {
      "status": "0x1",
      "cumulativeGasUsed": "0xabe3dd",
      "logs": [
        {
          "address": "0xbf4a322f1496e5c3d34a9bcdb4c60567b38c7de2",
          "topics": [
            "0xddf252ad1be2c89b69c2b068fc378daa952ba7f163c4a11628f55a4df523b3ef",
            "0x0000000000000000000000000000000000000000000000000000000000000000",
            "0x000000000000000000000000c77f7fed3b5cc8249adc428c5f44c9063b9734b4"
          ],
          "data": "0x0000000000000000000000000000000000000000000000350c1df41104eabb03",
          "blockHash": "0x96fa627763c9568654e1810976d050aee083ce4ea19a62acba06df360a73a688",
          "blockNumber": "0x725bbc",
          "transactionHash": "0x59ce7bc633f55892964d4491ad43a30e69d409c897e7aaba382107d7bdcd2a6f",
          "transactionIndex": "0x4e",
          "logIndex": "0x8c",
          "removed": false
        },
        {
          "address": "0xbf4a322f1496e5c3d34a9bcdb4c60567b38c7de2",
          "topics": [
            "0xddf252ad1be2c89b69c2b068fc378daa952ba7f163c4a11628f55a4df523b3ef",
            "0x0000000000000000000000000000000000000000000000000000000000000000",
            "0x000000000000000000000000c77f7fed3b5cc8249adc428c5f44c9063b9734b4"
          ],
          "data": "0x00000000000000000000000000000000000000000000000029316c8fe594e9de",
          "blockHash": "0x96fa627763c9568654e1810976d050aee083ce4ea19a62acba06df360a73a688",
          "blockNumber": "0x725bbc",
          "transactionHash": "0x59ce7bc633f55892964d4491ad43a30e69d409c897e7aaba382107d7bdcd2a6f",
          "transactionIndex": "0x4e",
          "logIndex": "0x8d",
          "removed": false
        },
        {
          "address": "0xbf4a322f1496e5c3d34a9bcdb4c60567b38c7de2",
          "topics": [
            "0x4afcb4a87cdbd9974efdb92ee48bc8d7cd0ae4bf217004db3d080cbaee652ca7"
          ],
          "data": "0x0000000000000000000000000000000000000000000000000000000067873f2c000000000000000000000000000000000000000000000000000398252f8b45550000000000000000000000000000000000000000000000000de0b6b3a7640000",
          "blockHash": "0x96fa627763c9568654e1810976d050aee083ce4ea19a62acba06df360a73a688",
          "blockNumber": "0x725bbc",
          "transactionHash": "0x59ce7bc633f55892964d4491ad43a30e69d409c897e7aaba382107d7bdcd2a6f",
          "transactionIndex": "0x4e",
          "logIndex": "0x8e",
          "removed": false
        }
      ],
      "logsBloom": "0x00000000000000000000000000000000000000000000000000000000000000000000000000000000000000000000000000000000000000004000000000000000000000000000000000000008000000000000001000000000000000000000000000000000020000000000000000000800020000000000000000000010000000000000000000000000000000000000000000000000000008000000010000000000000000000000000000000000000000004000000000000000000000000000000000000002000000800000000000001000000000000000080000000000000020000000000000000000000000000000000000000000000000000000000000000000",
      "type": "0x2",
      "transactionHash": "0x59ce7bc633f55892964d4491ad43a30e69d409c897e7aaba382107d7bdcd2a6f",
      "transactionIndex": "0x4e",
      "blockHash": "0x96fa627763c9568654e1810976d050aee083ce4ea19a62acba06df360a73a688",
      "blockNumber": "0x725bbc",
      "gasUsed": "0x13af6",
      "effectiveGasPrice": "0x560c8e25",
      "from": "0xc77f7fed3b5cc8249adc428c5f44c9063b9734b4",
      "to": "0xbf4a322f1496e5c3d34a9bcdb4c60567b38c7de2",
      "contractAddress": null
    }
  ],
  "libraries": [],
  "pending": [],
  "returns": {},
  "timestamp": 1736916781,
  "chain": 11155111,
  "commit": "51a374b"
}