{
  "transactions": [
    {
      "hash": "0x04d31cdf270b64bd80e7d5600d4652173ee4e99b35128df6fe122e9979cc6795",
      "transactionType": "CALL",
      "contractName": null,
      "contractAddress": "0xbf4a322f1496e5c3d34a9bcdb4c60567b38c7de2",
      "function": "sell(uint256)",
      "arguments": [
        "975681612205271658146"
      ],
      "transaction": {
        "from": "0xc77f7fed3b5cc8249adc428c5f44c9063b9734b4",
        "to": "0xbf4a322f1496e5c3d34a9bcdb4c60567b38c7de2",
        "gas": "0x16fea",
        "value": "0x0",
        "input": "0xe4849b32000000000000000000000000000000000000000000000034e44d68eaffa5aea2",
        "nonce": "0xd5b",
        "chainId": "0xaa36a7"
      },
      "additionalContracts": [],
      "isFixedGasLimit": false
    }
  ],
  "receipts": [
    {
      "status": "0x1",
      "cumulativeGasUsed": "0xee7416",
      "logs": [
        {
          "address": "0xbf4a322f1496e5c3d34a9bcdb4c60567b38c7de2",
          "topics": [
            "0xddf252ad1be2c89b69c2b068fc378daa952ba7f163c4a11628f55a4df523b3ef",
            "0x000000000000000000000000c77f7fed3b5cc8249adc428c5f44c9063b9734b4",
            "0x0000000000000000000000000000000000000000000000000000000000000000"
          ],
          "data": "0x000000000000000000000000000000000000000000000034e44d68eaffa5aea2",
          "blockHash": "0xb91f2975c48663cc08188d4f905f8db461bf177ce29cdee0922318fc12e82dc1",
          "blockNumber": "0x725dc3",
          "transactionHash": "0x04d31cdf270b64bd80e7d5600d4652173ee4e99b35128df6fe122e9979cc6795",
          "transactionIndex": "0x5b",
          "logIndex": "0x9b",
          "removed": false
        },
        {
          "address": "0xbf4a322f1496e5c3d34a9bcdb4c60567b38c7de2",
          "topics": [
            "0x4afcb4a87cdbd9974efdb92ee48bc8d7cd0ae4bf217004db3d080cbaee652ca7"
          ],
          "data": "0x000000000000000000000000000000000000000000000000000000006787579800000000000000000000000000000000000000000000000000039daa93f9fd000000000000000000000000000000000000000000000000000dc7e3d8069f5c83",
          "blockHash": "0xb91f2975c48663cc08188d4f905f8db461bf177ce29cdee0922318fc12e82dc1",
          "blockNumber": "0x725dc3",
          "transactionHash": "0x04d31cdf270b64bd80e7d5600d4652173ee4e99b35128df6fe122e9979cc6795",
          "transactionIndex": "0x5b",
          "logIndex": "0x9c",
          "removed": false
        }
      ],
      "logsBloom": "0x00000000000000000000000000000000000000000000000000000000000000000000000000000000000000000000000000000000000000004000000000000000000000000000000000000008000000000000001000000000000000000000000000000000020000000000000000000800020000000000000000000010000000000000000000000000000000000000000000000000000008000000010000000000000000000000000000000000000000004000000000000000000000000000000000000002000000800000000000001000000000000000080000000000000020000000000000000000000000000000000000000000000000000000000000000000",
      "type": "0x2",
      "transactionHash": "0x04d31cdf270b64bd80e7d5600d4652173ee4e99b35128df6fe122e9979cc6795",
      "transactionIndex": "0x5b",
      "blockHash": "0xb91f2975c48663cc08188d4f905f8db461bf177ce29cdee0922318fc12e82dc1",
      "blockNumber": "0x725dc3",
      "gasUsed": "0xfb91",
      "effectiveGasPrice": "0x35164b462",
      "from": "0xc77f7fed3b5cc8249adc428c5f44c9063b9734b4",
      "to": "0xbf4a322f1496e5c3d34a9bcdb4c60567b38c7de2",
      "contractAddress": null
    }
  ],
  "libraries": [],
  "pending": [],
  "returns": {},
  "timestamp": 1736923033,
  "chain": 11155111,
  "commit": "51a374b"
}