{
  "transactions": [
    {
      "hash": "0xe04baca169a7e2be9f8acf12e4a3faf5351a1cf61933574a74f781f087160d01",
      "transactionType": "CALL",
      "contractName": null,
      "contractAddress": "0x8aafd3ede9adb0ff97c7aebce82a919afb1c8764",
      "function": "sell(uint256)",
      "arguments": [
        "5627618938"
      ],
      "transaction": {
        "from": "0xc77f7fed3b5cc8249adc428c5f44c9063b9734b4",
        "to": "0x8aafd3ede9adb0ff97c7aebce82a919afb1c8764",
        "gas": "0x1722a",
        "value": "0x0",
        "input": "0xe4849b32000000000000000000000000000000000000000000000000000000014f6ea67a",
        "nonce": "0x1636",
        "chainId": "0xaa36a7"
      },
      "additionalContracts": [],
      "isFixedGasLimit": false
    }
  ],
  "receipts": [
    {
      "status": "0x1",
      "cumulativeGasUsed": "0x12b6a17",
      "logs": [
        {
          "address": "0x8aafd3ede9adb0ff97c7aebce82a919afb1c8764",
          "topics": [
            "0xddf252ad1be2c89b69c2b068fc378daa952ba7f163c4a11628f55a4df523b3ef",
            "0x000000000000000000000000c77f7fed3b5cc8249adc428c5f44c9063b9734b4",
            "0x0000000000000000000000000000000000000000000000000000000000000000"
          ],
          "data": "0x000000000000000000000000000000000000000000000000000000014cbfaf63",
          "blockHash": "0xcb1cedc31c941e8a25507370e986b8d149b38f329cb1f795e7ea42f5e4d27102",
          "blockNumber": "0x731dce",
          "transactionHash": "0xe04baca169a7e2be9f8acf12e4a3faf5351a1cf61933574a74f781f087160d01",
          "transactionIndex": "0x7e",
          "logIndex": "0xa1",
          "removed": false
        },
        {
          "address": "0x8aafd3ede9adb0ff97c7aebce82a919afb1c8764",
          "topics": [
            "0xddf252ad1be2c89b69c2b068fc378daa952ba7f163c4a11628f55a4df523b3ef",
            "0x000000000000000000000000c77f7fed3b5cc8249adc428c5f44c9063b9734b4",
            "0x000000000000000000000000c77f7fed3b5cc8249adc428c5f44c9063b9734b4"
          ],
          "data": "0x0000000000000000000000000000000000000000000000000000000002aef717",
          "blockHash": "0xcb1cedc31c941e8a25507370e986b8d149b38f329cb1f795e7ea42f5e4d27102",
          "blockNumber": "0x731dce",
          "transactionHash": "0xe04baca169a7e2be9f8acf12e4a3faf5351a1cf61933574a74f781f087160d01",
          "transactionIndex": "0x7e",
          "logIndex": "0xa2",
          "removed": false
        },
        {
          "address": "0x8aafd3ede9adb0ff97c7aebce82a919afb1c8764",
          "topics": [
            "0x4afcb4a87cdbd9974efdb92ee48bc8d7cd0ae4bf217004db3d080cbaee652ca7"
          ],
          "data": "0x00000000000000000000000000000000000000000000000000000000679062900000000000000000000000000000000000000000000000000014a5777f80158c0000000000000000000000000000000000000000000000000000000001f3080d",
          "blockHash": "0xcb1cedc31c941e8a25507370e986b8d149b38f329cb1f795e7ea42f5e4d27102",
          "blockNumber": "0x731dce",
          "transactionHash": "0xe04baca169a7e2be9f8acf12e4a3faf5351a1cf61933574a74f781f087160d01",
          "transactionIndex": "0x7e",
          "logIndex": "0xa3",
          "removed": false
        }
      ],
      "logsBloom": "0x00000000000000000000000000000000000000000600000000000000000000000000000000000000000000000000000000000000000000004000000000000000000000000000004000000008000000000000000000000000000000000000000000000000020000000000000000000800020000000000000000000010000000000000000000000000000000000000000000000000000000000000010000000000000000000000000000000000000000004000000000000000000000000000000000000002000000800000000000000000000000000000080000000000000020000000000000000000000000000000000000000000000000000000000000000000",
      "type": "0x2",
      "transactionHash": "0xe04baca169a7e2be9f8acf12e4a3faf5351a1cf61933574a74f781f087160d01",
      "transactionIndex": "0x7e",
      "blockHash": "0xcb1cedc31c941e8a25507370e986b8d149b38f329cb1f795e7ea42f5e4d27102",
      "blockNumber": "0x731dce",
      "gasUsed": "0xfd1b",
      "effectiveGasPrice": "0x53e5446c",
      "from": "0xc77f7fed3b5cc8249adc428c5f44c9063b9734b4",
      "to": "0x8aafd3ede9adb0ff97c7aebce82a919afb1c8764",
      "contractAddress": null
    }
  ],
  "libraries": [],
  "pending": [],
  "returns": {},
  "timestamp": 1737515666,
  "chain": 11155111,
  "commit": "1d2fb70"
}