{
  "transactions": [
    {
      "hash": "0xf3c5ec2e3f55289accfa259a9c7e7517fb8e0d7307e762549ac1ac88e6211740",
      "transactionType": "CALL",
      "contractName": null,
      "contractAddress": "0xbf4a322f1496e5c3d34a9bcdb4c60567b38c7de2",
      "function": "buy(address)",
      "arguments": [
        "0xC77f7fed3b5Cc8249aDc428c5F44C9063B9734b4"
      ],
      "transaction": {
        "from": "0xc77f7fed3b5cc8249adc428c5f44c9063b9734b4",
        "to": "0xbf4a322f1496e5c3d34a9bcdb4c60567b38c7de2",
        "gas": "0x1b309",
        "value": "0xde0b6b3a7640000",
        "input": "0xf088d547000000000000000000000000c77f7fed3b5cc8249adc428c5f44c9063b9734b4",
        "nonce": "0xc44",
        "chainId": "0xaa36a7"
      },
      "additionalContracts": [],
      "isFixedGasLimit": false
    }
  ],
  "receipts": [
    {
      "status": "0x1",
      "cumulativeGasUsed": "0xc4834e",
      "logs": [
        {
          "address": "0xbf4a322f1496e5c3d34a9bcdb4c60567b38c7de2",
          "topics": [
            "0xddf252ad1be2c89b69c2b068fc378daa952ba7f163c4a11628f55a4df523b3ef",
            "0x0000000000000000000000000000000000000000000000000000000000000000",
            "0x000000000000000000000000c77f7fed3b5cc8249adc428c5f44c9063b9734b4"
          ],
          "data": "0x000000000000000000000000000000000000000000000034eebd0882d36c9c61",
          "blockHash": "0x00c75dbb2157963551acb2354c6dbbcd508e5e745e4ea6cc2df0e8cd12cec706",
          "blockNumber": "0x725c7a",
          "transactionHash": "0xf3c5ec2e3f55289accfa259a9c7e7517fb8e0d7307e762549ac1ac88e6211740",
          "transactionIndex": "0x44",
          "logIndex": "0x65",
          "removed": false
        },
        {
          "address": "0xbf4a322f1496e5c3d34a9bcdb4c60567b38c7de2",
          "topics": [
            "0xddf252ad1be2c89b69c2b068fc378daa952ba7f163c4a11628f55a4df523b3ef",
            "0x0000000000000000000000000000000000000000000000000000000000000000",
            "0x000000000000000000000000c77f7fed3b5cc8249adc428c5f44c9063b9734b4"
          ],
          "data": "0x000000000000000000000000000000000000000000000000291a9c4fa266b132",
          "blockHash": "0x00c75dbb2157963551acb2354c6dbbcd508e5e745e4ea6cc2df0e8cd12cec706",
          "blockNumber": "0x725c7a",
          "transactionHash": "0xf3c5ec2e3f55289accfa259a9c7e7517fb8e0d7307e762549ac1ac88e6211740",
          "transactionIndex": "0x44",
          "logIndex": "0x66",
          "removed": false
        },
        {
          "address": "0xbf4a322f1496e5c3d34a9bcdb4c60567b38c7de2",
          "topics": [
            "0x4afcb4a87cdbd9974efdb92ee48bc8d7cd0ae4bf217004db3d080cbaee652ca7"
          ],
          "data": "0x000000000000000000000000000000000000000000000000000000006787481400000000000000000000000000000000000000000000000000039a23e10453bc0000000000000000000000000000000000000000000000000de0b6b3a7640000",
          "blockHash": "0x00c75dbb2157963551acb2354c6dbbcd508e5e745e4ea6cc2df0e8cd12cec706",
          "blockNumber": "0x725c7a",
          "transactionHash": "0xf3c5ec2e3f55289accfa259a9c7e7517fb8e0d7307e762549ac1ac88e6211740",
          "transactionIndex": "0x44",
          "logIndex": "0x67",
          "removed": false
        }
      ],
      "logsBloom": "0x00000000000000000000000000000000000000000000000000000000000000000000000000000000000000000000000000000000000000004000000000000000000000000000000000000008000000000000001000000000000000000000000000000000020000000000000000000800020000000000000000000010000000000000000000000000000000000000000000000000000008000000010000000000000000000000000000000000000000004000000000000000000000000000000000000002000000800000000000001000000000000000080000000000000020000000000000000000000000000000000000000000000000000000000000000000",
      "type": "0x2",
      "transactionHash": "0xf3c5ec2e3f55289accfa259a9c7e7517fb8e0d7307e762549ac1ac88e6211740",
      "transactionIndex": "0x44",
      "blockHash": "0x00c75dbb2157963551acb2354c6dbbcd508e5e745e4ea6cc2df0e8cd12cec706",
      "blockNumber": "0x725c7a",
      "gasUsed": "0x13af6",
      "effectiveGasPrice": "0x1e4549446",
      "from": "0xc77f7fed3b5cc8249adc428c5f44c9063b9734b4",
      "to": "0xbf4a322f1496e5c3d34a9bcdb4c60567b38c7de2",
      "contractAddress": null
    }
  ],
  "libraries": [],
  "pending": [],
  "returns": {},
  "timestamp": 1736919061,
  "chain": 11155111,
  "commit": "51a374b"
}