{
  "transactions": [
    {
      "hash": "0xbc947e4b8f642ddcbcbe7938ad03b49c239b499b2bc5268ed310f45c50cd6b2d",
      "transactionType": "CALL",
      "contractName": null,
      "contractAddress": "0x8aafd3ede9adb0ff97c7aebce82a919afb1c8764",
      "function": "sell(uint256)",
      "arguments": [
        "195549413"
      ],
      "transaction": {
        "from": "0xc77f7fed3b5cc8249adc428c5f44c9063b9734b4",
        "to": "0x8aafd3ede9adb0ff97c7aebce82a919afb1c8764",
        "gas": "0x14e6c",
        "value": "0x0",
        "input": "0xe4849b32000000000000000000000000000000000000000000000000000000000ba7d8e5",
        "nonce": "0xefc",
        "chainId": "0xaa36a7"
      },
      "additionalContracts": [],
      "isFixedGasLimit": false
    }
  ],
  "receipts": [
    {
      "status": "0x1",
      "cumulativeGasUsed": "0xcf0658",
      "logs": [
        {
          "address": "0x8aafd3ede9adb0ff97c7aebce82a919afb1c8764",
          "topics": [
            "0xddf252ad1be2c89b69c2b068fc378daa952ba7f163c4a11628f55a4df523b3ef",
            "0x000000000000000000000000c77f7fed3b5cc8249adc428c5f44c9063b9734b4",
            "0x0000000000000000000000000000000000000000000000000000000000000000"
          ],
          "data": "0x000000000000000000000000000000000000000000000000000000000b8ff9fa",
          "blockHash": "0x6806bea9d2f572fab8d166590ff4efb2f7bb5208ef737ed92dea9398574d1e38",
          "blockNumber": "0x731474",
          "transactionHash": "0xbc947e4b8f642ddcbcbe7938ad03b49c239b499b2bc5268ed310f45c50cd6b2d",
          "transactionIndex": "0x7d",
          "logIndex": "0x109",
          "removed": false
        },
        {
          "address": "0x8aafd3ede9adb0ff97c7aebce82a919afb1c8764",
          "topics": [
            "0xddf252ad1be2c89b69c2b068fc378daa952ba7f163c4a11628f55a4df523b3ef",
            "0x000000000000000000000000c77f7fed3b5cc8249adc428c5f44c9063b9734b4",
            "0x000000000000000000000000c77f7fed3b5cc8249adc428c5f44c9063b9734b4"
          ],
          "data": "0x000000000000000000000000000000000000000000000000000000000017deeb",
          "blockHash": "0x6806bea9d2f572fab8d166590ff4efb2f7bb5208ef737ed92dea9398574d1e38",
          "blockNumber": "0x731474",
          "transactionHash": "0xbc947e4b8f642ddcbcbe7938ad03b49c239b499b2bc5268ed310f45c50cd6b2d",
          "transactionIndex": "0x7d",
          "logIndex": "0x10a",
          "removed": false
        },
        {
          "address": "0x8aafd3ede9adb0ff97c7aebce82a919afb1c8764",
          "topics": [
            "0x4afcb4a87cdbd9974efdb92ee48bc8d7cd0ae4bf217004db3d080cbaee652ca7"
          ],
          "data": "0x00000000000000000000000000000000000000000000000000000000678ff21c0000000000000000000000000000000000000000000000000004bb1be803a3d6000000000000000000000000000000000000000000000000000000000003f92f",
          "blockHash": "0x6806bea9d2f572fab8d166590ff4efb2f7bb5208ef737ed92dea9398574d1e38",
          "blockNumber": "0x731474",
          "transactionHash": "0xbc947e4b8f642ddcbcbe7938ad03b49c239b499b2bc5268ed310f45c50cd6b2d",
          "transactionIndex": "0x7d",
          "logIndex": "0x10b",
          "removed": false
        }
      ],
      "logsBloom": "0x00000000000000000000000000000000000000000600000000000000000000000000000000000000000000000000000000000000000000004000000000000000000000000000004000000008000000000000000000000000000000000000000000000000020000000000000000000800020000000000000000000010000000000000000000000000000000000000000000000000000000000000010000000000000000000000000000000000000000004000000000000000000000000000000000000002000000800000000000000000000000000000080000000000000020000000000000000000000000000000000000000000000000000000000000000000",
      "type": "0x2",
      "transactionHash": "0xbc947e4b8f642ddcbcbe7938ad03b49c239b499b2bc5268ed310f45c50cd6b2d",
      "transactionIndex": "0x7d",
      "blockHash": "0x6806bea9d2f572fab8d166590ff4efb2f7bb5208ef737ed92dea9398574d1e38",
      "blockNumber": "0x731474",
      "gasUsed": "0xf21f",
      "effectiveGasPrice": "0x8de063a4",
      "from": "0xc77f7fed3b5cc8249adc428c5f44c9063b9734b4",
      "to": "0x8aafd3ede9adb0ff97c7aebce82a919afb1c8764",
      "contractAddress": null
    }
  ],
  "libraries": [],
  "pending": [],
  "returns": {},
  "timestamp": 1737486877,
  "chain": 11155111,
  "commit": "51a374b"
}