{
  "transactions": [
    {
      "hash": "0x218c6e07c0ff5dfb4f59d85c3ff46c8d72d8f8e285692507445c40ba03e4513c",
      "transactionType": "CALL",
      "contractName": null,
      "contractAddress": "0x5eb9cc76c3506942c1c0ead70e877dd5e4f00cb0",
      "function": "buy(address)",
      "arguments": [
        "0xC77f7fed3b5Cc8249aDc428c5F44C9063B9734b4"
      ],
      "transaction": {
        "from": "0xc77f7fed3b5cc8249adc428c5f44c9063b9734b4",
        "to": "0x5eb9cc76c3506942c1c0ead70e877dd5e4f00cb0",
        "gas": "0x1b30c",
        "value": "0xde0b6b3a7640000",
        "input": "0xf088d547000000000000000000000000c77f7fed3b5cc8249adc428c5f44c9063b9734b4",
        "nonce": "0x222",
        "chainId": "0xaa36a7"
      },
      "additionalContracts": [],
      "isFixedGasLimit": false
    }
  ],
  "receipts": [
    {
      "status": "0x1",
      "cumulativeGasUsed": "0x110ce11",
      "logs": [
        {
          "address": "0x5eb9cc76c3506942c1c0ead70e877dd5e4f00cb0",
          "topics": [
            "0xddf252ad1be2c89b69c2b068fc378daa952ba7f163c4a11628f55a4df523b3ef",
            "0x0000000000000000000000000000000000000000000000000000000000000000",
            "0x000000000000000000000000c77f7fed3b5cc8249adc428c5f44c9063b9734b4"
          ],
          "data": "0x0000000000000000000000000000000000000000000000357c3a68d901e7ed2b",
          "blockHash": "0x599f06d5eab6e58e535ad85d7d2a4306172661461a46587a0de9124214c1ddb8",
          "blockNumber": "0x724dce",
          "transactionHash": "0x218c6e07c0ff5dfb4f59d85c3ff46c8d72d8f8e285692507445c40ba03e4513c",
          "transactionIndex": "0x67",
          "logIndex": "0xaa",
          "removed": false
        },
        {
          "address": "0x5eb9cc76c3506942c1c0ead70e877dd5e4f00cb0",
          "topics": [
            "0xddf252ad1be2c89b69c2b068fc378daa952ba7f163c4a11628f55a4df523b3ef",
            "0x0000000000000000000000000000000000000000000000000000000000000000",
            "0x000000000000000000000000c77f7fed3b5cc8249adc428c5f44c9063b9734b4"
          ],
          "data": "0x00000000000000000000000000000000000000000000000029887b71fe501ca4",
          "blockHash": "0x599f06d5eab6e58e535ad85d7d2a4306172661461a46587a0de9124214c1ddb8",
          "blockNumber": "0x724dce",
          "transactionHash": "0x218c6e07c0ff5dfb4f59d85c3ff46c8d72d8f8e285692507445c40ba03e4513c",
          "transactionIndex": "0x67",
          "logIndex": "0xab",
          "removed": false
        },
        {
          "address": "0x5eb9cc76c3506942c1c0ead70e877dd5e4f00cb0",
          "topics": [
            "0x4afcb4a87cdbd9974efdb92ee48bc8d7cd0ae4bf217004db3d080cbaee652ca7"
          ],
          "data": "0x000000000000000000000000000000000000000000000000000000006786975c0000000000000000000000000000000000000000000000000003909a2c70084d0000000000000000000000000000000000000000000000000de0b6b3a7640000",
          "blockHash": "0x599f06d5eab6e58e535ad85d7d2a4306172661461a46587a0de9124214c1ddb8",
          "blockNumber": "0x724dce",
          "transactionHash": "0x218c6e07c0ff5dfb4f59d85c3ff46c8d72d8f8e285692507445c40ba03e4513c",
          "transactionIndex": "0x67",
          "logIndex": "0xac",
          "removed": false
        }
      ],
      "logsBloom": "0x00000000000000000000000000000000000000000000000000000000000000000000000000000000000000000000000000000000000000004000000000000000000000000000000000000008000000000000000000000000000000000000000000000000020000000000000004000800020000000000000000000010000000000000000000000000000000000000000000000000000000000000010000000000000000000000000000000000000000004000000000000000000000000000020000000002000000800000008000000000000000000000080000000000000020000000000000000000000000000000000000000000000000000000000000000000",
      "type": "0x2",
      "transactionHash": "0x218c6e07c0ff5dfb4f59d85c3ff46c8d72d8f8e285692507445c40ba03e4513c",
      "transactionIndex": "0x67",
      "blockHash": "0x599f06d5eab6e58e535ad85d7d2a4306172661461a46587a0de9124214c1ddb8",
      "blockNumber": "0x724dce",
      "gasUsed": "0x13af8",
      "effectiveGasPrice": "0x3da97a53a",
      "from": "0xc77f7fed3b5cc8249adc428c5f44c9063b9734b4",
      "to": "0x5eb9cc76c3506942c1c0ead70e877dd5e4f00cb0",
      "contractAddress": null
    }
  ],
  "libraries": [],
  "pending": [],
  "returns": {},
  "timestamp": 1736873822,
  "chain": 11155111,
  "commit": "51a374b"
}