{
  "transactions": [
    {
      "hash": "0xfe2ca0dfb07f092269052723acda26ff17d7fa1013df350e80aa06dc27a0fb11",
      "transactionType": "CALL",
      "contractName": null,
      "contractAddress": "0x8aafd3ede9adb0ff97c7aebce82a919afb1c8764",
      "function": "buy(address)",
      "arguments": [
        "0xC77f7fed3b5Cc8249aDc428c5F44C9063B9734b4"
      ],
      "transaction": {
        "from": "0xc77f7fed3b5cc8249adc428c5f44c9063b9734b4",
        "to": "0x8aafd3ede9adb0ff97c7aebce82a919afb1c8764",
        "gas": "0x156ea",
        "value": "0xde0b6b3a7640000",
        "input": "0xf088d547000000000000000000000000c77f7fed3b5cc8249adc428c5f44c9063b9734b4",
        "nonce": "0x1036",
        "chainId": "0xaa36a7"
      },
      "additionalContracts": [],
      "isFixedGasLimit": false
    }
  ],
  "receipts": [
    {
      "status": "0x1",
      "cumulativeGasUsed": "0x143a2d6",
      "logs": [
        {
          "address": "0x8aafd3ede9adb0ff97c7aebce82a919afb1c8764",
          "topics": [
            "0xddf252ad1be2c89b69c2b068fc378daa952ba7f163c4a11628f55a4df523b3ef",
            "0x0000000000000000000000000000000000000000000000000000000000000000",
            "0x000000000000000000000000c77f7fed3b5cc8249adc428c5f44c9063b9734b4"
          ],
          "data": "0x000000000000000000000000000000000000000000000026b00ec10cae499189",
          "blockHash": "0x01400aa5fbebed61c2534c7c0377ba6e1418fb0de110e22cd13a9f000c052cf1",
          "blockNumber": "0x7316b4",
          "transactionHash": "0xfe2ca0dfb07f092269052723acda26ff17d7fa1013df350e80aa06dc27a0fb11",
          "transactionIndex": "0xb4",
          "logIndex": "0xe6",
          "removed": false
        },
        {
          "address": "0x8aafd3ede9adb0ff97c7aebce82a919afb1c8764",
          "topics": [
            "0xddf252ad1be2c89b69c2b068fc378daa952ba7f163c4a11628f55a4df523b3ef",
            "0x0000000000000000000000000000000000000000000000000000000000000000",
            "0x000000000000000000000000c77f7fed3b5cc8249adc428c5f44c9063b9734b4"
          ],
          "data": "0x0000000000000000000000000000000000000000000000001e0ad6ad10d7f9b3",
          "blockHash": "0x01400aa5fbebed61c2534c7c0377ba6e1418fb0de110e22cd13a9f000c052cf1",
          "blockNumber": "0x7316b4",
          "transactionHash": "0xfe2ca0dfb07f092269052723acda26ff17d7fa1013df350e80aa06dc27a0fb11",
          "transactionIndex": "0xb4",
          "logIndex": "0xe7",
          "removed": false
        },
        {
          "address": "0x8aafd3ede9adb0ff97c7aebce82a919afb1c8764",
          "topics": [
            "0x4afcb4a87cdbd9974efdb92ee48bc8d7cd0ae4bf217004db3d080cbaee652ca7"
          ],
          "data": "0x0000000000000000000000000000000000000000000000000000000067900d280000000000000000000000000000000000000000000000000004ee11c8ca96c00000000000000000000000000000000000000000000000000de0b6b3a7640000",
          "blockHash": "0x01400aa5fbebed61c2534c7c0377ba6e1418fb0de110e22cd13a9f000c052cf1",
          "blockNumber": "0x7316b4",
          "transactionHash": "0xfe2ca0dfb07f092269052723acda26ff17d7fa1013df350e80aa06dc27a0fb11",
          "transactionIndex": "0xb4",
          "logIndex": "0xe8",
          "removed": false
        }
      ],
      "logsBloom": "0x00000000000000000000000000000000000000000600000000000000000000000000000000000000000000000000000000000000000000004000000000000000000000000000004000000008000000000000000000000000000000000000000000000000020000000000000000000800020000000000000000000010000000000000000000000000000000000000000000000000000000000000010000000000000000000000000000000000000000004000000000000000000000000000000000000002000000800000000000000000000000000000080000000000000020000000000000000000000000000000000000000000000000000000000000000000",
      "type": "0x2",
      "transactionHash": "0xfe2ca0dfb07f092269052723acda26ff17d7fa1013df350e80aa06dc27a0fb11",
      "transactionIndex": "0xb4",
      "blockHash": "0x01400aa5fbebed61c2534c7c0377ba6e1418fb0de110e22cd13a9f000c052cf1",
      "blockNumber": "0x7316b4",
      "gasUsed": "0xf844",
      "effectiveGasPrice": "0x4be814ee",
      "from": "0xc77f7fed3b5cc8249adc428c5f44c9063b9734b4",
      "to": "0x8aafd3ede9adb0ff97c7aebce82a919afb1c8764",
      "contractAddress": null
    }
  ],
  "libraries": [],
  "pending": [],
  "returns": {},
  "timestamp": 1737493802,
  "chain": 11155111,
  "commit": "1d2fb70"
}