{
  "transactions": [
    {
      "hash": "0x786169546b26645adbd9b2187640115bb9736bbc6dc05c3a6238d7b7ccec0175",
      "transactionType": "CALL",
      "contractName": null,
      "contractAddress": "0x8aafd3ede9adb0ff97c7aebce82a919afb1c8764",
      "function": "buy(address)",
      "arguments": [
        "0xC77f7fed3b5Cc8249aDc428c5F44C9063B9734b4"
      ],
      "transaction": {
        "from": "0xc77f7fed3b5cc8249adc428c5f44c9063b9734b4",
        "to": "0x8aafd3ede9adb0ff97c7aebce82a919afb1c8764",
        "gas": "0x156ea",
        "value": "0xde0b6b3a7640000",
        "input": "0xf088d547000000000000000000000000c77f7fed3b5cc8249adc428c5f44c9063b9734b4",
        "nonce": "0x1360",
        "chainId": "0xaa36a7"
      },
      "additionalContracts": [],
      "isFixedGasLimit": false
    }
  ],
  "receipts": [
    {
      "status": "0x1",
      "cumulativeGasUsed": "0x10bcbee",
      "logs": [
        {
          "address": "0x8aafd3ede9adb0ff97c7aebce82a919afb1c8764",
          "topics": [
            "0xddf252ad1be2c89b69c2b068fc378daa952ba7f163c4a11628f55a4df523b3ef",
            "0x0000000000000000000000000000000000000000000000000000000000000000",
            "0x000000000000000000000000c77f7fed3b5cc8249adc428c5f44c9063b9734b4"
          ],
          "data": "0x00000000000000000000000000000000000000000000000f89a9017c89ed7dbb",
          "blockHash": "0xe3f1584926b939af17a481b0557b9179c80280c13dd105086aaa826abda8f83c",
          "blockNumber": "0x731a7f",
          "transactionHash": "0x786169546b26645adbd9b2187640115bb9736bbc6dc05c3a6238d7b7ccec0175",
          "transactionIndex": "0x98",
          "logIndex": "0xbd",
          "removed": false
        },
        {
          "address": "0x8aafd3ede9adb0ff97c7aebce82a919afb1c8764",
          "topics": [
            "0xddf252ad1be2c89b69c2b068fc378daa952ba7f163c4a11628f55a4df523b3ef",
            "0x0000000000000000000000000000000000000000000000000000000000000000",
            "0x000000000000000000000000c77f7fed3b5cc8249adc428c5f44c9063b9734b4"
          ],
          "data": "0x0000000000000000000000000000000000000000000000000c10c9ef3763a4a0",
          "blockHash": "0xe3f1584926b939af17a481b0557b9179c80280c13dd105086aaa826abda8f83c",
          "blockNumber": "0x731a7f",
          "transactionHash": "0x786169546b26645adbd9b2187640115bb9736bbc6dc05c3a6238d7b7ccec0175",
          "transactionIndex": "0x98",
          "logIndex": "0xbe",
          "removed": false
        },
        {
          "address": "0x8aafd3ede9adb0ff97c7aebce82a919afb1c8764",
          "topics": [
            "0x4afcb4a87cdbd9974efdb92ee48bc8d7cd0ae4bf217004db3d080cbaee652ca7"
          ],
          "data": "0x0000000000000000000000000000000000000000000000000000000067903ac4000000000000000000000000000000000000000000000000000c4b7158243d660000000000000000000000000000000000000000000000000de0b6b3a7640000",
          "blockHash": "0xe3f1584926b939af17a481b0557b9179c80280c13dd105086aaa826abda8f83c",
          "blockNumber": "0x731a7f",
          "transactionHash": "0x786169546b26645adbd9b2187640115bb9736bbc6dc05c3a6238d7b7ccec0175",
          "transactionIndex": "0x98",
          "logIndex": "0xbf",
          "removed": false
        }
      ],
      "logsBloom": "0x00000000000000000000000000000000000000000600000000000000000000000000000000000000000000000000000000000000000000004000000000000000000000000000004000000008000000000000000000000000000000000000000000000000020000000000000000000800020000000000000000000010000000000000000000000000000000000000000000000000000000000000010000000000000000000000000000000000000000004000000000000000000000000000000000000002000000800000000000000000000000000000080000000000000020000000000000000000000000000000000000000000000000000000000000000000",
      "type": "0x2",
      "transactionHash": "0x786169546b26645adbd9b2187640115bb9736bbc6dc05c3a6238d7b7ccec0175",
      "transactionIndex": "0x98",
      "blockHash": "0xe3f1584926b939af17a481b0557b9179c80280c13dd105086aaa826abda8f83c",
      "blockNumber": "0x731a7f",
      "gasUsed": "0xf844",
      "effectiveGasPrice": "0x434f255a",
      "from": "0xc77f7fed3b5cc8249adc428c5f44c9063b9734b4",
      "to": "0x8aafd3ede9adb0ff97c7aebce82a919afb1c8764",
      "contractAddress": null
    }
  ],
  "libraries": [],
  "pending": [],
  "returns": {},
  "timestamp": 1737505477,
  "chain": 11155111,
  "commit": "1d2fb70"
}