{
  "transactions": [
    {
      "hash": "0xbd0b0a79e5d2dedb31f5ce511625556747fc7ae41929d4815a1d474c4388c9e7",
      "transactionType": "CALL",
      "contractName": null,
      "contractAddress": "0x270e88f8683660553e8ba4eb2ad7c91a1710d769",
      "function": "sell(uint256)",
      "arguments": [
        "743678989083510273595"
      ],
      "transaction": {
        "from": "0xc77f7fed3b5cc8249adc428c5f44c9063b9734b4",
        "to": "0x270e88f8683660553e8ba4eb2ad7c91a1710d769",
        "gas": "0x16fec",
        "value": "0x0",
        "input": "0xe4849b32000000000000000000000000000000000000000000000028509e84642c3b763b",
        "nonce": "0x712",
        "chainId": "0xaa36a7"
      },
      "additionalContracts": [],
      "isFixedGasLimit": false
    }
  ],
  "receipts": [
    {
      "status": "0x1",
      "cumulativeGasUsed": "0x15e0261",
      "logs": [
        {
          "address": "0x270e88f8683660553e8ba4eb2ad7c91a1710d769",
          "topics": [
            "0xddf252ad1be2c89b69c2b068fc378daa952ba7f163c4a11628f55a4df523b3ef",
            "0x000000000000000000000000c77f7fed3b5cc8249adc428c5f44c9063b9734b4",
            "0x0000000000000000000000000000000000000000000000000000000000000000"
          ],
          "data": "0x000000000000000000000000000000000000000000000028509e84642c3b763b",
          "blockHash": "0x2135b3ae07aac7734d6450fc0d28c95776964bad5a215cf0d6791d44efdb945c",
          "blockNumber": "0x725429",
          "transactionHash": "0xbd0b0a79e5d2dedb31f5ce511625556747fc7ae41929d4815a1d474c4388c9e7",
          "transactionIndex": "0xc3",
          "logIndex": "0x126",
          "removed": false
        },
        {
          "address": "0x270e88f8683660553e8ba4eb2ad7c91a1710d769",
          "topics": [
            "0x4afcb4a87cdbd9974efdb92ee48bc8d7cd0ae4bf217004db3d080cbaee652ca7"
          ],
          "data": "0x000000000000000000000000000000000000000000000000000000006786e3f40000000000000000000000000000000000000000000000000004beb3df00cdfd0000000000000000000000000000000000000000000000000dc828e170d201e2",
          "blockHash": "0x2135b3ae07aac7734d6450fc0d28c95776964bad5a215cf0d6791d44efdb945c",
          "blockNumber": "0x725429",
          "transactionHash": "0xbd0b0a79e5d2dedb31f5ce511625556747fc7ae41929d4815a1d474c4388c9e7",
          "transactionIndex": "0xc3",
          "logIndex": "0x127",
          "removed": false
        }
      ],
      "logsBloom": "0x00000000000000000000000000000000000000000000000000000000000000000000000000000000000000000000000020000000000000004000000000000000000000000000000000000008000000000000000000000000000000000000000000000000020000000000000000000800020000000000000000000010000000000000000000010000000000000000000000000000000000000000010000000000000000000000000000000000000000004000000000000000000000000000000000000002000000800000000000000000000000000000080000008000000020000000000000000000000000000000000000000000000000000000000000000000",
      "type": "0x2",
      "transactionHash": "0xbd0b0a79e5d2dedb31f5ce511625556747fc7ae41929d4815a1d474c4388c9e7",
      "transactionIndex": "0xc3",
      "blockHash": "0x2135b3ae07aac7734d6450fc0d28c95776964bad5a215cf0d6791d44efdb945c",
      "blockNumber": "0x725429",
      "gasUsed": "0xfb93",
      "effectiveGasPrice": "0x1271c5749",
      "from": "0xc77f7fed3b5cc8249adc428c5f44c9063b9734b4",
      "to": "0x270e88f8683660553e8ba4eb2ad7c91a1710d769",
      "contractAddress": null
    }
  ],
  "libraries": [],
  "pending": [],
  "returns": {},
  "timestamp": 1736893430,
  "chain": 11155111,
  "commit": "51a374b"
}