{
  "transactions": [
    {
      "hash": "0x0ecfc273ab7a3611553173a2351235382531c2cf6f834b9c89137919dc4077d4",
      "transactionType": "CALL",
      "contractName": null,
      "contractAddress": "0x270e88f8683660553e8ba4eb2ad7c91a1710d769",
      "function": "sell(uint256)",
      "arguments": [
        "709613074301961837416"
      ],
      "transaction": {
        "from": "0xc77f7fed3b5cc8249adc428c5f44c9063b9734b4",
        "to": "0x270e88f8683660553e8ba4eb2ad7c91a1710d769",
        "gas": "0x16fec",
        "value": "0x0",
        "input": "0xe4849b3200000000000000000000000000000000000000000000002677dc1362ed4f1b68",
        "nonce": "0x8a0",
        "chainId": "0xaa36a7"
      },
      "additionalContracts": [],
      "isFixedGasLimit": false
    }
  ],
  "receipts": [
    {
      "status": "0x1",
      "cumulativeGasUsed": "0x182620b",
      "logs": [
        {
          "address": "0x270e88f8683660553e8ba4eb2ad7c91a1710d769",
          "topics": [
            "0xddf252ad1be2c89b69c2b068fc378daa952ba7f163c4a11628f55a4df523b3ef",
            "0x000000000000000000000000c77f7fed3b5cc8249adc428c5f44c9063b9734b4",
            "0x0000000000000000000000000000000000000000000000000000000000000000"
          ],
          "data": "0x00000000000000000000000000000000000000000000002677dc1362ed4f1b68",
          "blockHash": "0xca0d19d7f56c04fd9e7a2dbc922e1ff8e3721159dbdb703b3cb2597b0d7add7a",
          "blockNumber": "0x7255fe",
          "transactionHash": "0x0ecfc273ab7a3611553173a2351235382531c2cf6f834b9c89137919dc4077d4",
          "transactionIndex": "0x5b",
          "logIndex": "0xb1",
          "removed": false
        },
        {
          "address": "0x270e88f8683660553e8ba4eb2ad7c91a1710d769",
          "topics": [
            "0x4afcb4a87cdbd9974efdb92ee48bc8d7cd0ae4bf217004db3d080cbaee652ca7"
          ],
          "data": "0x000000000000000000000000000000000000000000000000000000006786f9f00000000000000000000000000000000000000000000000000004f90084a3d64f0000000000000000000000000000000000000000000000000dc8255a7d27d1ba",
          "blockHash": "0xca0d19d7f56c04fd9e7a2dbc922e1ff8e3721159dbdb703b3cb2597b0d7add7a",
          "blockNumber": "0x7255fe",
          "transactionHash": "0x0ecfc273ab7a3611553173a2351235382531c2cf6f834b9c89137919dc4077d4",
          "transactionIndex": "0x5b",
          "logIndex": "0xb2",
          "removed": false
        }
      ],
      "logsBloom": "0x00000000000000000000000000000000000000000000000000000000000000000000000000000000000000000000000020000000000000004000000000000000000000000000000000000008000000000000000000000000000000000000000000000000020000000000000000000800020000000000000000000010000000000000000000010000000000000000000000000000000000000000010000000000000000000000000000000000000000004000000000000000000000000000000000000002000000800000000000000000000000000000080000008000000020000000000000000000000000000000000000000000000000000000000000000000",
      "type": "0x2",
      "transactionHash": "0x0ecfc273ab7a3611553173a2351235382531c2cf6f834b9c89137919dc4077d4",
      "transactionIndex": "0x5b",
      "blockHash": "0xca0d19d7f56c04fd9e7a2dbc922e1ff8e3721159dbdb703b3cb2597b0d7add7a",
      "blockNumber": "0x7255fe",
      "gasUsed": "0xfb93",
      "effectiveGasPrice": "0x892a0475",
      "from": "0xc77f7fed3b5cc8249adc428c5f44c9063b9734b4",
      "to": "0x270e88f8683660553e8ba4eb2ad7c91a1710d769",
      "contractAddress": null
    }
  ],
  "libraries": [],
  "pending": [],
  "returns": {},
  "timestamp": 1736899058,
  "chain": 11155111,
  "commit": "51a374b"
}