{
  "transactions": [
    {
      "hash": "0x4b0a17c3474f92703c61aeb67777baf7d1169ea42e651b6d03dd8685d1f1bd46",
      "transactionType": "CALL",
      "contractName": null,
      "contractAddress": "0x270e88f8683660553e8ba4eb2ad7c91a1710d769",
      "function": "sell(uint256)",
      "arguments": [
        "741710959891959705569"
      ],
      "transaction": {
        "from": "0xc77f7fed3b5cc8249adc428c5f44c9063b9734b4",
        "to": "0x270e88f8683660553e8ba4eb2ad7c91a1710d769",
        "gas": "0x16fec",
        "value": "0x0",
        "input": "0xe4849b32000000000000000000000000000000000000000000000028354eac44c642efe1",
        "nonce": "0x728",
        "chainId": "0xaa36a7"
      },
      "additionalContracts": [],
      "isFixedGasLimit": false
    }
  ],
  "receipts": [
    {
      "status": "0x1",
      "cumulativeGasUsed": "0x15b968b",
      "logs": [
        {
          "address": "0x270e88f8683660553e8ba4eb2ad7c91a1710d769",
          "topics": [
            "0xddf252ad1be2c89b69c2b068fc378daa952ba7f163c4a11628f55a4df523b3ef",
            "0x000000000000000000000000c77f7fed3b5cc8249adc428c5f44c9063b9734b4",
            "0x0000000000000000000000000000000000000000000000000000000000000000"
          ],
          "data": "0x000000000000000000000000000000000000000000000028354eac44c642efe1",
          "blockHash": "0xf91461152d3c871debcb43dc1f4be8459b784c7d55baf9c70d07cb1c72be02fd",
          "blockNumber": "0x725447",
          "transactionHash": "0x4b0a17c3474f92703c61aeb67777baf7d1169ea42e651b6d03dd8685d1f1bd46",
          "transactionIndex": "0x46",
          "logIndex": "0x78",
          "removed": false
        },
        {
          "address": "0x270e88f8683660553e8ba4eb2ad7c91a1710d769",
          "topics": [
            "0x4afcb4a87cdbd9974efdb92ee48bc8d7cd0ae4bf217004db3d080cbaee652ca7"
          ],
          "data": "0x000000000000000000000000000000000000000000000000000000006786e55c0000000000000000000000000000000000000000000000000004c1ecc5f9ad500000000000000000000000000000000000000000000000000dc828ad4dbbf0a7",
          "blockHash": "0xf91461152d3c871debcb43dc1f4be8459b784c7d55baf9c70d07cb1c72be02fd",
          "blockNumber": "0x725447",
          "transactionHash": "0x4b0a17c3474f92703c61aeb67777baf7d1169ea42e651b6d03dd8685d1f1bd46",
          "transactionIndex": "0x46",
          "logIndex": "0x79",
          "removed": false
        }
      ],
      "logsBloom": "0x00000000000000000000000000000000000000000000000000000000000000000000000000000000000000000000000020000000000000004000000000000000000000000000000000000008000000000000000000000000000000000000000000000000020000000000000000000800020000000000000000000010000000000000000000010000000000000000000000000000000000000000010000000000000000000000000000000000000000004000000000000000000000000000000000000002000000800000000000000000000000000000080000008000000020000000000000000000000000000000000000000000000000000000000000000000",
      "type": "0x2",
      "transactionHash": "0x4b0a17c3474f92703c61aeb67777baf7d1169ea42e651b6d03dd8685d1f1bd46",
      "transactionIndex": "0x46",
      "blockHash": "0xf91461152d3c871debcb43dc1f4be8459b784c7d55baf9c70d07cb1c72be02fd",
      "blockNumber": "0x725447",
      "gasUsed": "0xfb93",
      "effectiveGasPrice": "0x13f351ebc",
      "from": "0xc77f7fed3b5cc8249adc428c5f44c9063b9734b4",
      "to": "0x270e88f8683660553e8ba4eb2ad7c91a1710d769",
      "contractAddress": null
    }
  ],
  "libraries": [],
  "pending": [],
  "returns": {},
  "timestamp": 1736893789,
  "chain": 11155111,
  "commit": "51a374b"
}