{
  "transactions": [
    {
      "hash": "0x8b1038481e3a8252746536141c17ddcf6c70017a969de578aae482847a115153",
      "transactionType": "CALL",
      "contractName": null,
      "contractAddress": "0x270e88f8683660553e8ba4eb2ad7c91a1710d769",
      "function": "sell(uint256)",
      "arguments": [
        "824594022841800435632"
      ],
      "transaction": {
        "from": "0xc77f7fed3b5cc8249adc428c5f44c9063b9734b4",
        "to": "0x270e88f8683660553e8ba4eb2ad7c91a1710d769",
        "gas": "0x16fec",
        "value": "0x0",
        "input": "0xe4849b3200000000000000000000000000000000000000000000002cb38a76e363dba7b0",
        "nonce": "0x661",
        "chainId": "0xaa36a7"
      },
      "additionalContracts": [],
      "isFixedGasLimit": false
    }
  ],
  "receipts": [
    {
      "status": "0x1",
      "cumulativeGasUsed": "0xbcbaf5",
      "logs": [
        {
          "address": "0x270e88f8683660553e8ba4eb2ad7c91a1710d769",
          "topics": [
            "0xddf252ad1be2c89b69c2b068fc378daa952ba7f163c4a11628f55a4df523b3ef",
            "0x000000000000000000000000c77f7fed3b5cc8249adc428c5f44c9063b9734b4",
            "0x0000000000000000000000000000000000000000000000000000000000000000"
          ],
          "data": "0x00000000000000000000000000000000000000000000002cb38a76e363dba7b0",
          "blockHash": "0x64729ba3085ba67fb136b4cc898b3a7c70186fe4351a195e2313346340af15cb",
          "blockNumber": "0x725356",
          "transactionHash": "0x8b1038481e3a8252746536141c17ddcf6c70017a969de578aae482847a115153",
          "transactionIndex": "0x46",
          "logIndex": "0x6a",
          "removed": false
        },
        {
          "address": "0x270e88f8683660553e8ba4eb2ad7c91a1710d769",
          "topics": [
            "0x4afcb4a87cdbd9974efdb92ee48bc8d7cd0ae4bf217004db3d080cbaee652ca7"
          ],
          "data": "0x000000000000000000000000000000000000000000000000000000006786da10000000000000000000000000000000000000000000000000000447436c997afc0000000000000000000000000000000000000000000000000dc7e0f92d4719d1",
          "blockHash": "0x64729ba3085ba67fb136b4cc898b3a7c70186fe4351a195e2313346340af15cb",
          "blockNumber": "0x725356",
          "transactionHash": "0x8b1038481e3a8252746536141c17ddcf6c70017a969de578aae482847a115153",
          "transactionIndex": "0x46",
          "logIndex": "0x6b",
          "removed": false
        }
      ],
      "logsBloom": "0x00000000000000000000000000000000000000000000000000000000000000000000000000000000000000000000000020000000000000004000000000000000000000000000000000000008000000000000000000000000000000000000000000000000020000000000000000000800020000000000000000000010000000000000000000010000000000000000000000000000000000000000010000000000000000000000000000000000000000004000000000000000000000000000000000000002000000800000000000000000000000000000080000008000000020000000000000000000000000000000000000000000000000000000000000000000",
      "type": "0x2",
      "transactionHash": "0x8b1038481e3a8252746536141c17ddcf6c70017a969de578aae482847a115153",
      "transactionIndex": "0x46",
      "blockHash": "0x64729ba3085ba67fb136b4cc898b3a7c70186fe4351a195e2313346340af15cb",
      "blockNumber": "0x725356",
      "gasUsed": "0xfb93",
      "effectiveGasPrice": "0x371c43127",
      "from": "0xc77f7fed3b5cc8249adc428c5f44c9063b9734b4",
      "to": "0x270e88f8683660553e8ba4eb2ad7c91a1710d769",
      "contractAddress": null
    }
  ],
  "libraries": [],
  "pending": [],
  "returns": {},
  "timestamp": 1736890898,
  "chain": 11155111,
  "commit": "51a374b"
}