{
  "transactions": [
    {
      "hash": "0x436235724506382f2253bdf6e86905985f940cbfff7dbb16b3d9b894f1228984",
      "transactionType": "CALL",
      "contractName": null,
      "contractAddress": "0x5eb9cc76c3506942c1c0ead70e877dd5e4f00cb0",
      "function": "buy(address)",
      "arguments": [
        "0xC77f7fed3b5Cc8249aDc428c5F44C9063B9734b4"
      ],
      "transaction": {
        "from": "0xc77f7fed3b5cc8249adc428c5f44c9063b9734b4",
        "to": "0x5eb9cc76c3506942c1c0ead70e877dd5e4f00cb0",
        "gas": "0x156c8",
        "value": "0xde0b6b3a7640000",
        "input": "0xf088d547000000000000000000000000c77f7fed3b5cc8249adc428c5f44c9063b9734b4",
        "nonce": "0x1fe",
        "chainId": "0xaa36a7"
      },
      "additionalContracts": [],
      "isFixedGasLimit": false
    }
  ],
  "receipts": [
    {
      "status": "0x1",
      "cumulativeGasUsed": "0x1a923a6",
      "logs": [
        {
          "address": "0x5eb9cc76c3506942c1c0ead70e877dd5e4f00cb0",
          "topics": [
            "0xddf252ad1be2c89b69c2b068fc378daa952ba7f163c4a11628f55a4df523b3ef",
            "0x0000000000000000000000000000000000000000000000000000000000000000",
            "0x000000000000000000000000c77f7fed3b5cc8249adc428c5f44c9063b9734b4"
          ],
          "data": "0x00000000000000000000000000000000000000000000003584bdd332737c4458",
          "blockHash": "0x6718ccde78364ede9979d49e867b499999f7e8814fdbdebc9bcfa4cf931c4c44",
          "blockNumber": "0x724b19",
          "transactionHash": "0x436235724506382f2253bdf6e86905985f940cbfff7dbb16b3d9b894f1228984",
          "transactionIndex": "0xe8",
          "logIndex": "0x169",
          "removed": false
        },
        {
          "address": "0x5eb9cc76c3506942c1c0ead70e877dd5e4f00cb0",
          "topics": [
            "0xddf252ad1be2c89b69c2b068fc378daa952ba7f163c4a11628f55a4df523b3ef",
            "0x0000000000000000000000000000000000000000000000000000000000000000",
            "0x000000000000000000000000c77f7fed3b5cc8249adc428c5f44c9063b9734b4"
          ],
          "data": "0x000000000000000000000000000000000000000000000000298f17d5f0cdd90d",
          "blockHash": "0x6718ccde78364ede9979d49e867b499999f7e8814fdbdebc9bcfa4cf931c4c44",
          "blockNumber": "0x724b19",
          "transactionHash": "0x436235724506382f2253bdf6e86905985f940cbfff7dbb16b3d9b894f1228984",
          "transactionIndex": "0xe8",
          "logIndex": "0x16a",
          "removed": false
        },
        {
          "address": "0x5eb9cc76c3506942c1c0ead70e877dd5e4f00cb0",
          "topics": [
            "0x4afcb4a87cdbd9974efdb92ee48bc8d7cd0ae4bf217004db3d080cbaee652ca7"
          ],
          "data": "0x00000000000000000000000000000000000000000000000000000000678676d400000000000000000000000000000000000000000000000000039009014e5a090000000000000000000000000000000000000000000000000de0b6b3a7640000",
          "blockHash": "0x6718ccde78364ede9979d49e867b499999f7e8814fdbdebc9bcfa4cf931c4c44",
          "blockNumber": "0x724b19",
          "transactionHash": "0x436235724506382f2253bdf6e86905985f940cbfff7dbb16b3d9b894f1228984",
          "transactionIndex": "0xe8",
          "logIndex": "0x16b",
          "removed": false
        }
      ],
      "logsBloom": "0x00000000000000000000000000000000000000000000000000000000000000000000000000000000000000000000000000000000000000004000000000000000000000000000000000000008000000000000000000000000000000000000000000000000020000000000000004000800020000000000000000000010000000000000000000000000000000000000000000000000000000000000010000000000000000000000000000000000000000004000000000000000000000000000020000000002000000800000008000000000000000000000080000000000000020000000000000000000000000000000000000000000000000000000000000000000",
      "type": "0x2",
      "transactionHash": "0x436235724506382f2253bdf6e86905985f940cbfff7dbb16b3d9b894f1228984",
      "transactionIndex": "0xe8",
      "blockHash": "0x6718ccde78364ede9979d49e867b499999f7e8814fdbdebc9bcfa4cf931c4c44",
      "blockNumber": "0x724b19",
      "gasUsed": "0xf82c",
      "effectiveGasPrice": "0x4f3007376",
      "from": "0xc77f7fed3b5cc8249adc428c5f44c9063b9734b4",
      "to": "0x5eb9cc76c3506942c1c0ead70e877dd5e4f00cb0",
      "contractAddress": null
    }
  ],
  "libraries": [],
  "pending": [],
  "returns": {},
  "timestamp": 1736865493,
  "chain": 11155111,
  "commit": "51a374b"
}