{
  "transactions": [
    {
      "hash": "0xcfd32d613aed3cb35c17e8a65fc4d7fae89c7ab5bfaafee24fe35fbe78b12ad5",
      "transactionType": "CALL",
      "contractName": null,
      "contractAddress": "0x270e88f8683660553e8ba4eb2ad7c91a1710d769",
      "function": "buy(address)",
      "arguments": [
        "0xC77f7fed3b5Cc8249aDc428c5F44C9063B9734b4"
      ],
      "transaction": {
        "from": "0xc77f7fed3b5cc8249adc428c5f44c9063b9734b4",
        "to": "0x270e88f8683660553e8ba4eb2ad7c91a1710d769",
        "gas": "0x1b30c",
        "value": "0xde0b6b3a7640000",
        "input": "0xf088d547000000000000000000000000c77f7fed3b5cc8249adc428c5f44c9063b9734b4",
        "nonce": "0x510",
        "chainId": "0xaa36a7"
      },
      "additionalContracts": [],
      "isFixedGasLimit": false
    }
  ],
  "receipts": [
    {
      "status": "0x1",
      "cumulativeGasUsed": "0x126ad3a",
      "logs": [
        {
          "address": "0x270e88f8683660553e8ba4eb2ad7c91a1710d769",
          "topics": [
            "0xddf252ad1be2c89b69c2b068fc378daa952ba7f163c4a11628f55a4df523b3ef",
            "0x0000000000000000000000000000000000000000000000000000000000000000",
            "0x000000000000000000000000c77f7fed3b5cc8249adc428c5f44c9063b9734b4"
          ],
          "data": "0x00000000000000000000000000000000000000000000003527af1e4f2bcd2b3c",
          "blockHash": "0xc1af91adae49598832a1a888bc357c02ae0e19a75f483c1874b3acfa0e991f38",
          "blockNumber": "0x7251a7",
          "transactionHash": "0xcfd32d613aed3cb35c17e8a65fc4d7fae89c7ab5bfaafee24fe35fbe78b12ad5",
          "transactionIndex": "0x49",
          "logIndex": "0x6d",
          "removed": false
        },
        {
          "address": "0x270e88f8683660553e8ba4eb2ad7c91a1710d769",
          "topics": [
            "0xddf252ad1be2c89b69c2b068fc378daa952ba7f163c4a11628f55a4df523b3ef",
            "0x0000000000000000000000000000000000000000000000000000000000000000",
            "0x000000000000000000000000c77f7fed3b5cc8249adc428c5f44c9063b9734b4"
          ],
          "data": "0x0000000000000000000000000000000000000000000000002946d4b102a816f6",
          "blockHash": "0xc1af91adae49598832a1a888bc357c02ae0e19a75f483c1874b3acfa0e991f38",
          "blockNumber": "0x7251a7",
          "transactionHash": "0xcfd32d613aed3cb35c17e8a65fc4d7fae89c7ab5bfaafee24fe35fbe78b12ad5",
          "transactionIndex": "0x49",
          "logIndex": "0x6e",
          "removed": false
        },
        {
          "address": "0x270e88f8683660553e8ba4eb2ad7c91a1710d769",
          "topics": [
            "0x4afcb4a87cdbd9974efdb92ee48bc8d7cd0ae4bf217004db3d080cbaee652ca7"
          ],
          "data": "0x000000000000000000000000000000000000000000000000000000006786c5b8000000000000000000000000000000000000000000000000000396605fbc4b200000000000000000000000000000000000000000000000000de0b6b3a7640000",
          "blockHash": "0xc1af91adae49598832a1a888bc357c02ae0e19a75f483c1874b3acfa0e991f38",
          "blockNumber": "0x7251a7",
          "transactionHash": "0xcfd32d613aed3cb35c17e8a65fc4d7fae89c7ab5bfaafee24fe35fbe78b12ad5",
          "transactionIndex": "0x49",
          "logIndex": "0x6f",
          "removed": false
        }
      ],
      "logsBloom": "0x00000000000000000000000000000000000000000000000000000000000000000000000000000000000000000000000020000000000000004000000000000000000000000000000000000008000000000000000000000000000000000000000000000000020000000000000000000800020000000000000000000010000000000000000000010000000000000000000000000000000000000000010000000000000000000000000000000000000000004000000000000000000000000000000000000002000000800000000000000000000000000000080000008000000020000000000000000000000000000000000000000000000000000000000000000000",
      "type": "0x2",
      "transactionHash": "0xcfd32d613aed3cb35c17e8a65fc4d7fae89c7ab5bfaafee24fe35fbe78b12ad5",
      "transactionIndex": "0x49",
      "blockHash": "0xc1af91adae49598832a1a888bc357c02ae0e19a75f483c1874b3acfa0e991f38",
      "blockNumber": "0x7251a7",
      "gasUsed": "0x13af8",
      "effectiveGasPrice": "0x45f89597b",
      "from": "0xc77f7fed3b5cc8249adc428c5f44c9063b9734b4",
      "to": "0x270e88f8683660553e8ba4eb2ad7c91a1710d769",
      "contractAddress": null
    }
  ],
  "libraries": [],
  "pending": [],
  "returns": {},
  "timestamp": 1736885689,
  "chain": 11155111,
  "commit": "51a374b"
}