{
  "transactions": [
    {
      "hash": "0x2958e8338590ba722f596992b352be032607720e760e100cd8a991c40460e9ad",
      "transactionType": "CALL",
      "contractName": null,
      "contractAddress": "0x8aafd3ede9adb0ff97c7aebce82a919afb1c8764",
      "function": "sell(uint256)",
      "arguments": [
        "156553730944204235329"
      ],
      "transaction": {
        "from": "0xc77f7fed3b5cc8249adc428c5f44c9063b9734b4",
        "to": "0x8aafd3ede9adb0ff97c7aebce82a919afb1c8764",
        "gas": "0x17270",
        "value": "0x0",
        "input": "0xe4849b320000000000000000000000000000000000000000000000087c9e94d6275f6241",
        "nonce": "0x16dc",
        "chainId": "0xaa36a7"
      },
      "additionalContracts": [],
      "isFixedGasLimit": false
    }
  ],
  "receipts": [
    {
      "status": "0x1",
      "cumulativeGasUsed": "0xba6441",
      "logs": [
        {
          "address": "0x8aafd3ede9adb0ff97c7aebce82a919afb1c8764",
          "topics": [
            "0xddf252ad1be2c89b69c2b068fc378daa952ba7f163c4a11628f55a4df523b3ef",
            "0x000000000000000000000000c77f7fed3b5cc8249adc428c5f44c9063b9734b4",
            "0x0000000000000000000000000000000000000000000000000000000000000000"
          ],
          "data": "0x0000000000000000000000000000000000000000000000086b3d0e869dd773e7",
          "blockHash": "0xe58204522fd530ca501b90cc8aa7cd1d748688110bed6654e6bfbf13c3ab2b6d",
          "blockNumber": "0x731e99",
          "transactionHash": "0x2958e8338590ba722f596992b352be032607720e760e100cd8a991c40460e9ad",
          "transactionIndex": "0x5e",
          "logIndex": "0xca",
          "removed": false
        },
        {
          "address": "0x8aafd3ede9adb0ff97c7aebce82a919afb1c8764",
          "topics": [
            "0xddf252ad1be2c89b69c2b068fc378daa952ba7f163c4a11628f55a4df523b3ef",
            "0x000000000000000000000000c77f7fed3b5cc8249adc428c5f44c9063b9734b4",
            "0x000000000000000000000000c77f7fed3b5cc8249adc428c5f44c9063b9734b4"
          ],
          "data": "0x0000000000000000000000000000000000000000000000001161864f8987ee5a",
          "blockHash": "0xe58204522fd530ca501b90cc8aa7cd1d748688110bed6654e6bfbf13c3ab2b6d",
          "blockNumber": "0x731e99",
          "transactionHash": "0x2958e8338590ba722f596992b352be032607720e760e100cd8a991c40460e9ad",
          "transactionIndex": "0x5e",
          "logIndex": "0xcb",
          "removed": false
        },
        {
          "address": "0x8aafd3ede9adb0ff97c7aebce82a919afb1c8764",
          "topics": [
            "0x4afcb4a87cdbd9974efdb92ee48bc8d7cd0ae4bf217004db3d080cbaee652ca7"
          ],
          "data": "0x0000000000000000000000000000000000000000000000000000000067906c140000000000000000000000000000000000000000000000000016a39214813dba0000000000000000000000000000000000000000000000000dcc0c610d4e631b",
          "blockHash": "0xe58204522fd530ca501b90cc8aa7cd1d748688110bed6654e6bfbf13c3ab2b6d",
          "blockNumber": "0x731e99",
          "transactionHash": "0x2958e8338590ba722f596992b352be032607720e760e100cd8a991c40460e9ad",
          "transactionIndex": "0x5e",
          "logIndex": "0xcc",
          "removed": false
        }
      ],
      "logsBloom": "0x00000000000000000000000000000000000000000600000000000000000000000000000000000000000000000000000000000000000000004000000000000000000000000000004000000008000000000000000000000000000000000000000000000000020000000000000000000800020000000000000000000010000000000000000000000000000000000000000000000000000000000000010000000000000000000000000000000000000000004000000000000000000000000000000000000002000000800000000000000000000000000000080000000000000020000000000000000000000000000000000000000000000000000000000000000000",
      "type": "0x2",
      "transactionHash": "0x2958e8338590ba722f596992b352be032607720e760e100cd8a991c40460e9ad",
      "transactionIndex": "0x5e",
      "blockHash": "0xe58204522fd530ca501b90cc8aa7cd1d748688110bed6654e6bfbf13c3ab2b6d",
      "blockNumber": "0x731e99",
      "gasUsed": "0xfd4b",
      "effectiveGasPrice": "0x4963e088",
      "from": "0xc77f7fed3b5cc8249adc428c5f44c9063b9734b4",
      "to": "0x8aafd3ede9adb0ff97c7aebce82a919afb1c8764",
      "contractAddress": null
    }
  ],
  "libraries": [],
  "pending": [],
  "returns": {},
  "timestamp": 1737518102,
  "chain": 11155111,
  "commit": "1d2fb70"
}