{
  "transactions": [
    {
      "hash": "0x1c54f085896b5afdfe51685554b596077298386c82d5cb3e858bda96b58ceb18",
      "transactionType": "CALL",
      "contractName": null,
      "contractAddress": "0x270e88f8683660553e8ba4eb2ad7c91a1710d769",
      "function": "sell(uint256)",
      "arguments": [
        "943530588520052997608"
      ],
      "transaction": {
        "from": "0xc77f7fed3b5cc8249adc428c5f44c9063b9734b4",
        "to": "0x270e88f8683660553e8ba4eb2ad7c91a1710d769",
        "gas": "0x16fec",
        "value": "0x0",
        "input": "0xe4849b32000000000000000000000000000000000000000000000033261e07383d04bde8",
        "nonce": "0x61b",
        "chainId": "0xaa36a7"
      },
      "additionalContracts": [],
      "isFixedGasLimit": false
    }
  ],
  "receipts": [
    {
      "status": "0x1",
      "cumulativeGasUsed": "0xaa3c6e",
      "logs": [
        {
          "address": "0x270e88f8683660553e8ba4eb2ad7c91a1710d769",
          "topics": [
            "0xddf252ad1be2c89b69c2b068fc378daa952ba7f163c4a11628f55a4df523b3ef",
            "0x000000000000000000000000c77f7fed3b5cc8249adc428c5f44c9063b9734b4",
            "0x0000000000000000000000000000000000000000000000000000000000000000"
          ],
          "data": "0x000000000000000000000000000000000000000000000033261e07383d04bde8",
          "blockHash": "0x4a3f4e419d1596dbbf0f457a5cbb70abd2f534376d0d8fbda8f240dd8113f26c",
          "blockNumber": "0x7252e8",
          "transactionHash": "0x1c54f085896b5afdfe51685554b596077298386c82d5cb3e858bda96b58ceb18",
          "transactionIndex": "0x4d",
          "logIndex": "0xc9",
          "removed": false
        },
        {
          "address": "0x270e88f8683660553e8ba4eb2ad7c91a1710d769",
          "topics": [
            "0x4afcb4a87cdbd9974efdb92ee48bc8d7cd0ae4bf217004db3d080cbaee652ca7"
          ],
          "data": "0x000000000000000000000000000000000000000000000000000000006786d4e80000000000000000000000000000000000000000000000000003bd799fddf63c0000000000000000000000000000000000000000000000000dc83d7e60fbdcb2",
          "blockHash": "0x4a3f4e419d1596dbbf0f457a5cbb70abd2f534376d0d8fbda8f240dd8113f26c",
          "blockNumber": "0x7252e8",
          "transactionHash": "0x1c54f085896b5afdfe51685554b596077298386c82d5cb3e858bda96b58ceb18",
          "transactionIndex": "0x4d",
          "logIndex": "0xca",
          "removed": false
        }
      ],
      "logsBloom": "0x00000000000000000000000000000000000000000000000000000000000000000000000000000000000000000000000020000000000000004000000000000000000000000000000000000008000000000000000000000000000000000000000000000000020000000000000000000800020000000000000000000010000000000000000000010000000000000000000000000000000000000000010000000000000000000000000000000000000000004000000000000000000000000000000000000002000000800000000000000000000000000000080000008000000020000000000000000000000000000000000000000000000000000000000000000000",
      "type": "0x2",
      "transactionHash": "0x1c54f085896b5afdfe51685554b596077298386c82d5cb3e858bda96b58ceb18",
      "transactionIndex": "0x4d",
      "blockHash": "0x4a3f4e419d1596dbbf0f457a5cbb70abd2f534376d0d8fbda8f240dd8113f26c",
      "blockNumber": "0x7252e8",
      "gasUsed": "0xfb93",
      "effectiveGasPrice": "0x297d5b1ce",
      "from": "0xc77f7fed3b5cc8249adc428c5f44c9063b9734b4",
      "to": "0x270e88f8683660553e8ba4eb2ad7c91a1710d769",
      "contractAddress": null
    }
  ],
  "libraries": [],
  "pending": [],
  "returns": {},
  "timestamp": 1736889577,
  "chain": 11155111,
  "commit": "51a374b"
}