{
  "transactions": [
    {
      "hash": "0xa690d6e88bef4b7ea62c951c6a26047e3a140cc599b0b3b71a3c6837faf8296f",
      "transactionType": "CALL",
      "contractName": null,
      "contractAddress": "0x8aafd3ede9adb0ff97c7aebce82a919afb1c8764",
      "function": "sell(uint256)",
      "arguments": [
        "1428818"
      ],
      "transaction": {
        "from": "0xc77f7fed3b5cc8249adc428c5f44c9063b9734b4",
        "to": "0x8aafd3ede9adb0ff97c7aebce82a919afb1c8764",
        "gas": "0x16208",
        "value": "0x0",
        "input": "0xe4849b32000000000000000000000000000000000000000000000000000000000015cd52",
        "nonce": "0x11f6",
        "chainId": "0xaa36a7"
      },
      "additionalContracts": [],
      "isFixedGasLimit": false
    }
  ],
  "receipts": [
    {
      "status": "0x1",
      "cumulativeGasUsed": "0x2177176",
      "logs": [
        {
          "address": "0x8aafd3ede9adb0ff97c7aebce82a919afb1c8764",
          "topics": [
            "0xddf252ad1be2c89b69c2b068fc378daa952ba7f163c4a11628f55a4df523b3ef",
            "0x000000000000000000000000c77f7fed3b5cc8249adc428c5f44c9063b9734b4",
            "0x0000000000000000000000000000000000000000000000000000000000000000"
          ],
          "data": "0x000000000000000000000000000000000000000000000000000000000015a0ac",
          "blockHash": "0xb09c2277f85445f5ed8028e5f87c08d8495c3f1db79b70acf76852718a4bbec8",
          "blockNumber": "0x7318cf",
          "transactionHash": "0xa690d6e88bef4b7ea62c951c6a26047e3a140cc599b0b3b71a3c6837faf8296f",
          "transactionIndex": "0x66",
          "logIndex": "0x10ea",
          "removed": false
        },
        {
          "address": "0x8aafd3ede9adb0ff97c7aebce82a919afb1c8764",
          "topics": [
            "0xddf252ad1be2c89b69c2b068fc378daa952ba7f163c4a11628f55a4df523b3ef",
            "0x000000000000000000000000c77f7fed3b5cc8249adc428c5f44c9063b9734b4",
            "0x000000000000000000000000c77f7fed3b5cc8249adc428c5f44c9063b9734b4"
          ],
          "data": "0x0000000000000000000000000000000000000000000000000000000000002ca6",
          "blockHash": "0xb09c2277f85445f5ed8028e5f87c08d8495c3f1db79b70acf76852718a4bbec8",
          "blockNumber": "0x7318cf",
          "transactionHash": "0xa690d6e88bef4b7ea62c951c6a26047e3a140cc599b0b3b71a3c6837faf8296f",
          "transactionIndex": "0x66",
          "logIndex": "0x10eb",
          "removed": false
        },
        {
          "address": "0x8aafd3ede9adb0ff97c7aebce82a919afb1c8764",
          "topics": [
            "0x4afcb4a87cdbd9974efdb92ee48bc8d7cd0ae4bf217004db3d080cbaee652ca7"
          ],
          "data": "0x000000000000000000000000000000000000000000000000000000006790268400000000000000000000000000000000000000000000000000052f06a062f07a0000000000000000000000000000000000000000000000000000000000000824",
          "blockHash": "0xb09c2277f85445f5ed8028e5f87c08d8495c3f1db79b70acf76852718a4bbec8",
          "blockNumber": "0x7318cf",
          "transactionHash": "0xa690d6e88bef4b7ea62c951c6a26047e3a140cc599b0b3b71a3c6837faf8296f",
          "transactionIndex": "0x66",
          "logIndex": "0x10ec",
          "removed": false
        }
      ],
      "logsBloom": "0x00000000000000000000000000000000000000000600000000000000000000000000000000000000000000000000000000000000000000004000000000000000000000000000004000000008000000000000000000000000000000000000000000000000020000000000000000000800020000000000000000000010000000000000000000000000000000000000000000000000000000000000010000000000000000000000000000000000000000004000000000000000000000000000000000000002000000800000000000000000000000000000080000000000000020000000000000000000000000000000000000000000000000000000000000000000",
      "type": "0x2",
      "transactionHash": "0xa690d6e88bef4b7ea62c951c6a26047e3a140cc599b0b3b71a3c6837faf8296f",
      "transactionIndex": "0x66",
      "blockHash": "0xb09c2277f85445f5ed8028e5f87c08d8495c3f1db79b70acf76852718a4bbec8",
      "blockNumber": "0x7318cf",
      "gasUsed": "0xf213",
      "effectiveGasPrice": "0x433b33a3",
      "from": "0xc77f7fed3b5cc8249adc428c5f44c9063b9734b4",
      "to": "0x8aafd3ede9adb0ff97c7aebce82a919afb1c8764",
      "contractAddress": null
    }
  ],
  "libraries": [],
  "pending": [],
  "returns": {},
  "timestamp": 1737500293,
  "chain": 11155111,
  "commit": "1d2fb70"
}