{
  "transactions": [
    {
      "hash": "0xcb0934d7de39642d42b3234ec1fba5131bb76c159aef8e17c0945892578f75f6",
      "transactionType": "CALL",
      "contractName": null,
      "contractAddress": "0x270e88f8683660553e8ba4eb2ad7c91a1710d769",
      "function": "sell(uint256)",
      "arguments": [
        "743141221087500768173"
      ],
      "transaction": {
        "from": "0xc77f7fed3b5cc8249adc428c5f44c9063b9734b4",
        "to": "0x270e88f8683660553e8ba4eb2ad7c91a1710d769",
        "gas": "0x16fec",
        "value": "0x0",
        "input": "0xe4849b320000000000000000000000000000000000000000000000284927fb3f868313ad",
        "nonce": "0x718",
        "chainId": "0xaa36a7"
      },
      "additionalContracts": [],
      "isFixedGasLimit": false
    }
  ],
  "receipts": [
    {
      "status": "0x1",
      "cumulativeGasUsed": "0x1fa96bb",
      "logs": [
        {
          "address": "0x270e88f8683660553e8ba4eb2ad7c91a1710d769",
          "topics": [
            "0xddf252ad1be2c89b69c2b068fc378daa952ba7f163c4a11628f55a4df523b3ef",
            "0x000000000000000000000000c77f7fed3b5cc8249adc428c5f44c9063b9734b4",
            "0x0000000000000000000000000000000000000000000000000000000000000000"
          ],
          "data": "0x0000000000000000000000000000000000000000000000284927fb3f868313ad",
          "blockHash": "0xbc2626db4230e4a09a53ca651881ceef2ccd990bd2252af4cbd17efefeb15d73",
          "blockNumber": "0x725432",
          "transactionHash": "0xcb0934d7de39642d42b3234ec1fba5131bb76c159aef8e17c0945892578f75f6",
          "transactionIndex": "0x5c",
          "logIndex": "0x2f7",
          "removed": false
        },
        {
          "address": "0x270e88f8683660553e8ba4eb2ad7c91a1710d769",
          "topics": [
            "0x4afcb4a87cdbd9974efdb92ee48bc8d7cd0ae4bf217004db3d080cbaee652ca7"
          ],
          "data": "0x000000000000000000000000000000000000000000000000000000006786e4600000000000000000000000000000000000000000000000000004bf94d7f00c690000000000000000000000000000000000000000000000000dc828d331c9a39b",
          "blockHash": "0xbc2626db4230e4a09a53ca651881ceef2ccd990bd2252af4cbd17efefeb15d73",
          "blockNumber": "0x725432",
          "transactionHash": "0xcb0934d7de39642d42b3234ec1fba5131bb76c159aef8e17c0945892578f75f6",
          "transactionIndex": "0x5c",
          "logIndex": "0x2f8",
          "removed": false
        }
      ],
      "logsBloom": "0x00000000000000000000000000000000000000000000000000000000000000000000000000000000000000000000000020000000000000004000000000000000000000000000000000000008000000000000000000000000000000000000000000000000020000000000000000000800020000000000000000000010000000000000000000010000000000000000000000000000000000000000010000000000000000000000000000000000000000004000000000000000000000000000000000000002000000800000000000000000000000000000080000008000000020000000000000000000000000000000000000000000000000000000000000000000",
      "type": "0x2",
      "transactionHash": "0xcb0934d7de39642d42b3234ec1fba5131bb76c159aef8e17c0945892578f75f6",
      "transactionIndex": "0x5c",
      "blockHash": "0xbc2626db4230e4a09a53ca651881ceef2ccd990bd2252af4cbd17efefeb15d73",
      "blockNumber": "0x725432",
      "gasUsed": "0xfb93",
      "effectiveGasPrice": "0x148fe9f5b",
      "from": "0xc77f7fed3b5cc8249adc428c5f44c9063b9734b4",
      "to": "0x270e88f8683660553e8ba4eb2ad7c91a1710d769",
      "contractAddress": null
    }
  ],
  "libraries": [],
  "pending": [],
  "returns": {},
  "timestamp": 1736893537,
  "chain": 11155111,
  "commit": "51a374b"
}