{
  "transactions": [
    {
      "hash": "0x684843f692277bd13b779d321e536988fb82cb12bd7343a37bd22c7bb98c04d8",
      "transactionType": "CALL",
      "contractName": null,
      "contractAddress": "0x270e88f8683660553e8ba4eb2ad7c91a1710d769",
      "function": "buy(address)",
      "arguments": [
        "0xC77f7fed3b5Cc8249aDc428c5F44C9063B9734b4"
      ],
      "transaction": {
        "from": "0xc77f7fed3b5cc8249adc428c5f44c9063b9734b4",
        "to": "0x270e88f8683660553e8ba4eb2ad7c91a1710d769",
        "gas": "0x1b30c",
        "value": "0xde0b6b3a7640000",
        "input": "0xf088d547000000000000000000000000c77f7fed3b5cc8249adc428c5f44c9063b9734b4",
        "nonce": "0x7cf",
        "chainId": "0xaa36a7"
      },
      "additionalContracts": [],
      "isFixedGasLimit": false
    }
  ],
  "receipts": [
    {
      "status": "0x1",
      "cumulativeGasUsed": "0x975035",
      "logs": [
        {
          "address": "0x270e88f8683660553e8ba4eb2ad7c91a1710d769",
          "topics": [
            "0xddf252ad1be2c89b69c2b068fc378daa952ba7f163c4a11628f55a4df523b3ef",
            "0x0000000000000000000000000000000000000000000000000000000000000000",
            "0x000000000000000000000000c77f7fed3b5cc8249adc428c5f44c9063b9734b4"
          ],
          "data": "0x0000000000000000000000000000000000000000000000274ae4efe0374fe3cc",
          "blockHash": "0x28e31a70d74f7aa0c9ef7d58b3334355360f36d5d31f75f03ed9b5d3eb488be2",
          "blockNumber": "0x725507",
          "transactionHash": "0x684843f692277bd13b779d321e536988fb82cb12bd7343a37bd22c7bb98c04d8",
          "transactionIndex": "0x34",
          "logIndex": "0x3b",
          "removed": false
        },
        {
          "address": "0x270e88f8683660553e8ba4eb2ad7c91a1710d769",
          "topics": [
            "0xddf252ad1be2c89b69c2b068fc378daa952ba7f163c4a11628f55a4df523b3ef",
            "0x0000000000000000000000000000000000000000000000000000000000000000",
            "0x000000000000000000000000c77f7fed3b5cc8249adc428c5f44c9063b9734b4"
          ],
          "data": "0x0000000000000000000000000000000000000000000000001e831313be791629",
          "blockHash": "0x28e31a70d74f7aa0c9ef7d58b3334355360f36d5d31f75f03ed9b5d3eb488be2",
          "blockNumber": "0x725507",
          "transactionHash": "0x684843f692277bd13b779d321e536988fb82cb12bd7343a37bd22c7bb98c04d8",
          "transactionIndex": "0x34",
          "logIndex": "0x3c",
          "removed": false
        },
        {
          "address": "0x270e88f8683660553e8ba4eb2ad7c91a1710d769",
          "topics": [
            "0x4afcb4a87cdbd9974efdb92ee48bc8d7cd0ae4bf217004db3d080cbaee652ca7"
          ],
          "data": "0x000000000000000000000000000000000000000000000000000000006786ee5c0000000000000000000000000000000000000000000000000004da58299db7750000000000000000000000000000000000000000000000000de0b6b3a7640000",
          "blockHash": "0x28e31a70d74f7aa0c9ef7d58b3334355360f36d5d31f75f03ed9b5d3eb488be2",
          "blockNumber": "0x725507",
          "transactionHash": "0x684843f692277bd13b779d321e536988fb82cb12bd7343a37bd22c7bb98c04d8",
          "transactionIndex": "0x34",
          "logIndex": "0x3d",
          "removed": false
        }
      ],
      "logsBloom": "0x00000000000000000000000000000000000000000000000000000000000000000000000000000000000000000000000020000000000000004000000000000000000000000000000000000008000000000000000000000000000000000000000000000000020000000000000000000800020000000000000000000010000000000000000000010000000000000000000000000000000000000000010000000000000000000000000000000000000000004000000000000000000000000000000000000002000000800000000000000000000000000000080000008000000020000000000000000000000000000000000000000000000000000000000000000000",
      "type": "0x2",
      "transactionHash": "0x684843f692277bd13b779d321e536988fb82cb12bd7343a37bd22c7bb98c04d8",
      "transactionIndex": "0x34",
      "blockHash": "0x28e31a70d74f7aa0c9ef7d58b3334355360f36d5d31f75f03ed9b5d3eb488be2",
      "blockNumber": "0x725507",
      "gasUsed": "0x13af8",
      "effectiveGasPrice": "0xbeaa85fc",
      "from": "0xc77f7fed3b5cc8249adc428c5f44c9063b9734b4",
      "to": "0x270e88f8683660553e8ba4eb2ad7c91a1710d769",
      "contractAddress": null
    }
  ],
  "libraries": [],
  "pending": [],
  "returns": {},
  "timestamp": 1736896094,
  "chain": 11155111,
  "commit": "51a374b"
}