{
  "transactions": [
    {
      "hash": "0x404706c43e8c860e75b0678ab370d25670866be10748cb734d6d0285d7454fc7",
      "transactionType": "CALL",
      "contractName": null,
      "contractAddress": "0xbf4a322f1496e5c3d34a9bcdb4c60567b38c7de2",
      "function": "buy(address)",
      "arguments": [
        "0xC77f7fed3b5Cc8249aDc428c5F44C9063B9734b4"
      ],
      "transaction": {
        "from": "0xc77f7fed3b5cc8249adc428c5f44c9063b9734b4",
        "to": "0xbf4a322f1496e5c3d34a9bcdb4c60567b38c7de2",
        "gas": "0x1b309",
        "value": "0xde0b6b3a7640000",
        "input": "0xf088d547000000000000000000000000c77f7fed3b5cc8249adc428c5f44c9063b9734b4",
        "nonce": "0xdaa",
        "chainId": "0xaa36a7"
      },
      "additionalContracts": [],
      "isFixedGasLimit": false
    }
  ],
  "receipts": [
    {
      "status": "0x1",
      "cumulativeGasUsed": "0xbe4c75",
      "logs": [
        {
          "address": "0xbf4a322f1496e5c3d34a9bcdb4c60567b38c7de2",
          "topics": [
            "0xddf252ad1be2c89b69c2b068fc378daa952ba7f163c4a11628f55a4df523b3ef",
            "0x0000000000000000000000000000000000000000000000000000000000000000",
            "0x000000000000000000000000c77f7fed3b5cc8249adc428c5f44c9063b9734b4"
          ],
          "data": "0x000000000000000000000000000000000000000000000034aca3bdd786f4ac45",
          "blockHash": "0xdd5ca82afc8e0e907b213afc0f49cd4509662931d647909ad3491037fd6ad695",
          "blockNumber": "0x726680",
          "transactionHash": "0x404706c43e8c860e75b0678ab370d25670866be10748cb734d6d0285d7454fc7",
          "transactionIndex": "0x6f",
          "logIndex": "0xa7",
          "removed": false
        },
        {
          "address": "0xbf4a322f1496e5c3d34a9bcdb4c60567b38c7de2",
          "topics": [
            "0xddf252ad1be2c89b69c2b068fc378daa952ba7f163c4a11628f55a4df523b3ef",
            "0x0000000000000000000000000000000000000000000000000000000000000000",
            "0x000000000000000000000000c77f7fed3b5cc8249adc428c5f44c9063b9734b4"
          ],
          "data": "0x00000000000000000000000000000000000000000000000028e74859d4b8b7f8",
          "blockHash": "0xdd5ca82afc8e0e907b213afc0f49cd4509662931d647909ad3491037fd6ad695",
          "blockNumber": "0x726680",
          "transactionHash": "0x404706c43e8c860e75b0678ab370d25670866be10748cb734d6d0285d7454fc7",
          "transactionIndex": "0x6f",
          "logIndex": "0xa8",
          "removed": false
        },
        {
          "address": "0xbf4a322f1496e5c3d34a9bcdb4c60567b38c7de2",
          "topics": [
            "0x4afcb4a87cdbd9974efdb92ee48bc8d7cd0ae4bf217004db3d080cbaee652ca7"
          ],
          "data": "0x000000000000000000000000000000000000000000000000000000006787c0e000000000000000000000000000000000000000000000000000039ea9057b556d0000000000000000000000000000000000000000000000000de0b6b3a7640000",
          "blockHash": "0xdd5ca82afc8e0e907b213afc0f49cd4509662931d647909ad3491037fd6ad695",
          "blockNumber": "0x726680",
          "transactionHash": "0x404706c43e8c860e75b0678ab370d25670866be10748cb734d6d0285d7454fc7",
          "transactionIndex": "0x6f",
          "logIndex": "0xa9",
          "removed": false
        }
      ],
      "logsBloom": "0x00000000000000000000000000000000000000000000000000000000000000000000000000000000000000000000000000000000000000004000000000000000000000000000000000000008000000000000001000000000000000000000000000000000020000000000000000000800020000000000000000000010000000000000000000000000000000000000000000000000000008000000010000000000000000000000000000000000000000004000000000000000000000000000000000000002000000800000000000001000000000000000080000000000000020000000000000000000000000000000000000000000000000000000000000000000",
      "type": "0x2",
      "transactionHash": "0x404706c43e8c860e75b0678ab370d25670866be10748cb734d6d0285d7454fc7",
      "transactionIndex": "0x6f",
      "blockHash": "0xdd5ca82afc8e0e907b213afc0f49cd4509662931d647909ad3491037fd6ad695",
      "blockNumber": "0x726680",
      "gasUsed": "0x13af6",
      "effectiveGasPrice": "0x8bc35a5b",
      "from": "0xc77f7fed3b5cc8249adc428c5f44c9063b9734b4",
      "to": "0xbf4a322f1496e5c3d34a9bcdb4c60567b38c7de2",
      "contractAddress": null
    }
  ],
  "libraries": [],
  "pending": [],
  "returns": {},
  "timestamp": 1736949985,
  "chain": 11155111,
  "commit": "51a374b"
}