{
  "transactions": [
    {
      "hash": "0x8acb8f4e5a8109b2b12acf3498c5cb34f78a4952bf04dc22d044b8a51d9d76b7",
      "transactionType": "CALL",
      "contractName": null,
      "contractAddress": "0x8aafd3ede9adb0ff97c7aebce82a919afb1c8764",
      "function": "buy(address)",
      "arguments": [
        "0xC77f7fed3b5Cc8249aDc428c5F44C9063B9734b4"
      ],
      "transaction": {
        "from": "0xc77f7fed3b5cc8249adc428c5f44c9063b9734b4",
        "to": "0x8aafd3ede9adb0ff97c7aebce82a919afb1c8764",
        "gas": "0x156ea",
        "value": "0xde0b6b3a7640000",
        "input": "0xf088d547000000000000000000000000c77f7fed3b5cc8249adc428c5f44c9063b9734b4",
        "nonce": "0x13e7",
        "chainId": "0xaa36a7"
      },
      "additionalContracts": [],
      "isFixedGasLimit": false
    }
  ],
  "receipts": [
    {
      "status": "0x1",
      "cumulativeGasUsed": "0xf191ac",
      "logs": [
        {
          "address": "0x8aafd3ede9adb0ff97c7aebce82a919afb1c8764",
          "topics": [
            "0xddf252ad1be2c89b69c2b068fc378daa952ba7f163c4a11628f55a4df523b3ef",
            "0x0000000000000000000000000000000000000000000000000000000000000000",
            "0x000000000000000000000000c77f7fed3b5cc8249adc428c5f44c9063b9734b4"
          ],
          "data": "0x00000000000000000000000000000000000000000000000dd04a71a38d59aa98",
          "blockHash": "0x496262072311e87332af366f1e7bb206fc610b1752494ddf9415afa3b1b28ac0",
          "blockNumber": "0x731b17",
          "transactionHash": "0x8acb8f4e5a8109b2b12acf3498c5cb34f78a4952bf04dc22d044b8a51d9d76b7",
          "transactionIndex": "0x90",
          "logIndex": "0xb9",
          "removed": false
        },
        {
          "address": "0x8aafd3ede9adb0ff97c7aebce82a919afb1c8764",
          "topics": [
            "0xddf252ad1be2c89b69c2b068fc378daa952ba7f163c4a11628f55a4df523b3ef",
            "0x0000000000000000000000000000000000000000000000000000000000000000",
            "0x000000000000000000000000c77f7fed3b5cc8249adc428c5f44c9063b9734b4"
          ],
          "data": "0x0000000000000000000000000000000000000000000000000aba0ce8b5fb810a",
          "blockHash": "0x496262072311e87332af366f1e7bb206fc610b1752494ddf9415afa3b1b28ac0",
          "blockNumber": "0x731b17",
          "transactionHash": "0x8acb8f4e5a8109b2b12acf3498c5cb34f78a4952bf04dc22d044b8a51d9d76b7",
          "transactionIndex": "0x90",
          "logIndex": "0xba",
          "removed": false
        },
        {
          "address": "0x8aafd3ede9adb0ff97c7aebce82a919afb1c8764",
          "topics": [
            "0x4afcb4a87cdbd9974efdb92ee48bc8d7cd0ae4bf217004db3d080cbaee652ca7"
          ],
          "data": "0x00000000000000000000000000000000000000000000000000000000679041e4000000000000000000000000000000000000000000000000000dd3b753442d9d0000000000000000000000000000000000000000000000000de0b6b3a7640000",
          "blockHash": "0x496262072311e87332af366f1e7bb206fc610b1752494ddf9415afa3b1b28ac0",
          "blockNumber": "0x731b17",
          "transactionHash": "0x8acb8f4e5a8109b2b12acf3498c5cb34f78a4952bf04dc22d044b8a51d9d76b7",
          "transactionIndex": "0x90",
          "logIndex": "0xbb",
          "removed": false
        }
      ],
      "logsBloom": "0x00000000000000000000000000000000000000000600000000000000000000000000000000000000000000000000000000000000000000004000000000000000000000000000004000000008000000000000000000000000000000000000000000000000020000000000000000000800020000000000000000000010000000000000000000000000000000000000000000000000000000000000010000000000000000000000000000000000000000004000000000000000000000000000000000000002000000800000000000000000000000000000080000000000000020000000000000000000000000000000000000000000000000000000000000000000",
      "type": "0x2",
      "transactionHash": "0x8acb8f4e5a8109b2b12acf3498c5cb34f78a4952bf04dc22d044b8a51d9d76b7",
      "transactionIndex": "0x90",
      "blockHash": "0x496262072311e87332af366f1e7bb206fc610b1752494ddf9415afa3b1b28ac0",
      "blockNumber": "0x731b17",
      "gasUsed": "0xf844",
      "effectiveGasPrice": "0x8fceae62",
      "from": "0xc77f7fed3b5cc8249adc428c5f44c9063b9734b4",
      "to": "0x8aafd3ede9adb0ff97c7aebce82a919afb1c8764",
      "contractAddress": null
    }
  ],
  "libraries": [],
  "pending": [],
  "returns": {},
  "timestamp": 1737507301,
  "chain": 11155111,
  "commit": "1d2fb70"
}