{
  "transactions": [
    {
      "hash": "0x94b2e60781a5efcc59e79ea36aed7d3383f2bdd4ec6652cff613c8c06a97b82a",
      "transactionType": "CALL",
      "contractName": null,
      "contractAddress": "0x5eb9cc76c3506942c1c0ead70e877dd5e4f00cb0",
      "function": "sell(uint256)",
      "arguments": [
        "989118165692141155492"
      ],
      "transaction": {
        "from": "0xc77f7fed3b5cc8249adc428c5f44c9063b9734b4",
        "to": "0x5eb9cc76c3506942c1c0ead70e877dd5e4f00cb0",
        "gas": "0x16fec",
        "value": "0x0",
        "input": "0xe4849b320000000000000000000000000000000000000000000000359ec5a31fd60a34a4",
        "nonce": "0x38f",
        "chainId": "0xaa36a7"
      },
      "additionalContracts": [],
      "isFixedGasLimit": false
    }
  ],
  "receipts": [
    {
      "status": "0x1",
      "cumulativeGasUsed": "0xa1522b",
      "logs": [
        {
          "address": "0x5eb9cc76c3506942c1c0ead70e877dd5e4f00cb0",
          "topics": [
            "0xddf252ad1be2c89b69c2b068fc378daa952ba7f163c4a11628f55a4df523b3ef",
            "0x000000000000000000000000c77f7fed3b5cc8249adc428c5f44c9063b9734b4",
            "0x0000000000000000000000000000000000000000000000000000000000000000"
          ],
          "data": "0x0000000000000000000000000000000000000000000000359ec5a31fd60a34a4",
          "blockHash": "0x3e9d786175ffb43ebd698e9a0c0c6567ca1abf3e0ce10785afd47f51ee6b3bbe",
          "blockNumber": "0x724f8a",
          "transactionHash": "0x94b2e60781a5efcc59e79ea36aed7d3383f2bdd4ec6652cff613c8c06a97b82a",
          "transactionIndex": "0x5d",
          "logIndex": "0x72",
          "removed": false
        },
        {
          "address": "0x5eb9cc76c3506942c1c0ead70e877dd5e4f00cb0",
          "topics": [
            "0x4afcb4a87cdbd9974efdb92ee48bc8d7cd0ae4bf217004db3d080cbaee652ca7"
          ],
          "data": "0x000000000000000000000000000000000000000000000000000000006786ac2c000000000000000000000000000000000000000000000000000391112ddca5210000000000000000000000000000000000000000000000000dc7db133207c593",
          "blockHash": "0x3e9d786175ffb43ebd698e9a0c0c6567ca1abf3e0ce10785afd47f51ee6b3bbe",
          "blockNumber": "0x724f8a",
          "transactionHash": "0x94b2e60781a5efcc59e79ea36aed7d3383f2bdd4ec6652cff613c8c06a97b82a",
          "transactionIndex": "0x5d",
          "logIndex": "0x73",
          "removed": false
        }
      ],
      "logsBloom": "0x00000000000000000000000000000000000000000000000000000000000000000000000000000000000000000000000000000000000000004000000000000000000000000000000000000008000000000000000000000000000000000000000000000000020000000000000004000800020000000000000000000010000000000000000000000000000000000000000000000000000000000000010000000000000000000000000000000000000000004000000000000000000000000000020000000002000000800000008000000000000000000000080000000000000020000000000000000000000000000000000000000000000000000000000000000000",
      "type": "0x2",
      "transactionHash": "0x94b2e60781a5efcc59e79ea36aed7d3383f2bdd4ec6652cff613c8c06a97b82a",
      "transactionIndex": "0x5d",
      "blockHash": "0x3e9d786175ffb43ebd698e9a0c0c6567ca1abf3e0ce10785afd47f51ee6b3bbe",
      "blockNumber": "0x724f8a",
      "gasUsed": "0xfb93",
      "effectiveGasPrice": "0x577185055",
      "from": "0xc77f7fed3b5cc8249adc428c5f44c9063b9734b4",
      "to": "0x5eb9cc76c3506942c1c0ead70e877dd5e4f00cb0",
      "contractAddress": null
    }
  ],
  "libraries": [],
  "pending": [],
  "returns": {},
  "timestamp": 1736879149,
  "chain": 11155111,
  "commit": "51a374b"
}