{
  "transactions": [
    {
      "hash": "0x940e023c7443b8a8ce7aa42eaa841fce1a1e5f8f38b9edfa29696ae12c66be4d",
      "transactionType": "CALL",
      "contractName": null,
      "contractAddress": "0xbf4a322f1496e5c3d34a9bcdb4c60567b38c7de2",
      "function": "sell(uint256)",
      "arguments": [
        "975229332371756592008"
      ],
      "transaction": {
        "from": "0xc77f7fed3b5cc8249adc428c5f44c9063b9734b4",
        "to": "0xbf4a322f1496e5c3d34a9bcdb4c60567b38c7de2",
        "gas": "0x16fea",
        "value": "0x0",
        "input": "0xe4849b32000000000000000000000000000000000000000000000034de0696ce3fe8ab88",
        "nonce": "0xd7d",
        "chainId": "0xaa36a7"
      },
      "additionalContracts": [],
      "isFixedGasLimit": false
    }
  ],
  "receipts": [
    {
      "status": "0x1",
      "cumulativeGasUsed": "0x113e895",
      "logs": [
        {
          "address": "0xbf4a322f1496e5c3d34a9bcdb4c60567b38c7de2",
          "topics": [
            "0xddf252ad1be2c89b69c2b068fc378daa952ba7f163c4a11628f55a4df523b3ef",
            "0x000000000000000000000000c77f7fed3b5cc8249adc428c5f44c9063b9734b4",
            "0x0000000000000000000000000000000000000000000000000000000000000000"
          ],
          "data": "0x000000000000000000000000000000000000000000000034de0696ce3fe8ab88",
          "blockHash": "0x28f2f4ce699d89fb0d0a51c039daff4e23f6d0f6b1a451b5264bd813f8e40067",
          "blockNumber": "0x72664c",
          "transactionHash": "0x940e023c7443b8a8ce7aa42eaa841fce1a1e5f8f38b9edfa29696ae12c66be4d",
          "transactionIndex": "0x88",
          "logIndex": "0xaf",
          "removed": false
        },
        {
          "address": "0xbf4a322f1496e5c3d34a9bcdb4c60567b38c7de2",
          "topics": [
            "0x4afcb4a87cdbd9974efdb92ee48bc8d7cd0ae4bf217004db3d080cbaee652ca7"
          ],
          "data": "0x000000000000000000000000000000000000000000000000000000006787be4000000000000000000000000000000000000000000000000000039e18796da2c80000000000000000000000000000000000000000000000000dc7e3d6f96b1a7e",
          "blockHash": "0x28f2f4ce699d89fb0d0a51c039daff4e23f6d0f6b1a451b5264bd813f8e40067",
          "blockNumber": "0x72664c",
          "transactionHash": "0x940e023c7443b8a8ce7aa42eaa841fce1a1e5f8f38b9edfa29696ae12c66be4d",
          "transactionIndex": "0x88",
          "logIndex": "0xb0",
          "removed": false
        }
      ],
      "logsBloom": "0x00000000000000000000000000000000000000000000000000000000000000000000000000000000000000000000000000000000000000004000000000000000000000000000000000000008000000000000001000000000000000000000000000000000020000000000000000000800020000000000000000000010000000000000000000000000000000000000000000000000000008000000010000000000000000000000000000000000000000004000000000000000000000000000000000000002000000800000000000001000000000000000080000000000000020000000000000000000000000000000000000000000000000000000000000000000",
      "type": "0x2",
      "transactionHash": "0x940e023c7443b8a8ce7aa42eaa841fce1a1e5f8f38b9edfa29696ae12c66be4d",
      "transactionIndex": "0x88",
      "blockHash": "0x28f2f4ce699d89fb0d0a51c039daff4e23f6d0f6b1a451b5264bd813f8e40067",
      "blockNumber": "0x72664c",
      "gasUsed": "0xfb91",
      "effectiveGasPrice": "0x8956fd99",
      "from": "0xc77f7fed3b5cc8249adc428c5f44c9063b9734b4",
      "to": "0xbf4a322f1496e5c3d34a9bcdb4c60567b38c7de2",
      "contractAddress": null
    }
  ],
  "libraries": [],
  "pending": [],
  "returns": {},
  "timestamp": 1736949314,
  "chain": 11155111,
  "commit": "51a374b"
}