{
  "transactions": [
    {
      "hash": "0x581147ea3fb10f75011b3c6b2204e4d180fe036902dda2103422450267570535",
      "transactionType": "CALL",
      "contractName": null,
      "contractAddress": "0x5eb9cc76c3506942c1c0ead70e877dd5e4f00cb0",
      "function": "sell(uint256)",
      "arguments": [
        "989099999077876854469"
      ],
      "transaction": {
        "from": "0xc77f7fed3b5cc8249adc428c5f44c9063b9734b4",
        "to": "0x5eb9cc76c3506942c1c0ead70e877dd5e4f00cb0",
        "gas": "0x16fec",
        "value": "0x0",
        "input": "0xe4849b320000000000000000000000000000000000000000000000359e8518af580b6ec5",
        "nonce": "0x401",
        "chainId": "0xaa36a7"
      },
      "additionalContracts": [],
      "isFixedGasLimit": false
    }
  ],
  "receipts": [
    {
      "status": "0x1",
      "cumulativeGasUsed": "0xdb08b6",
      "logs": [
        {
          "address": "0x5eb9cc76c3506942c1c0ead70e877dd5e4f00cb0",
          "topics": [
            "0xddf252ad1be2c89b69c2b068fc378daa952ba7f163c4a11628f55a4df523b3ef",
            "0x000000000000000000000000c77f7fed3b5cc8249adc428c5f44c9063b9734b4",
            "0x0000000000000000000000000000000000000000000000000000000000000000"
          ],
          "data": "0x0000000000000000000000000000000000000000000000359e8518af580b6ec5",
          "blockHash": "0x9e4053edb7bcd74e276b017a8ef93ec9bff23794ba2116cbd8cb2d0ec3a66fef",
          "blockNumber": "0x72500b",
          "transactionHash": "0x581147ea3fb10f75011b3c6b2204e4d180fe036902dda2103422450267570535",
          "transactionIndex": "0x65",
          "logIndex": "0x98",
          "removed": false
        },
        {
          "address": "0x5eb9cc76c3506942c1c0ead70e877dd5e4f00cb0",
          "topics": [
            "0x4afcb4a87cdbd9974efdb92ee48bc8d7cd0ae4bf217004db3d080cbaee652ca7"
          ],
          "data": "0x000000000000000000000000000000000000000000000000000000006786b2500000000000000000000000000000000000000000000000000003911578e8b0010000000000000000000000000000000000000000000000000dc7db1331e77257",
          "blockHash": "0x9e4053edb7bcd74e276b017a8ef93ec9bff23794ba2116cbd8cb2d0ec3a66fef",
          "blockNumber": "0x72500b",
          "transactionHash": "0x581147ea3fb10f75011b3c6b2204e4d180fe036902dda2103422450267570535",
          "transactionIndex": "0x65",
          "logIndex": "0x99",
          "removed": false
        }
      ],
      "logsBloom": "0x00000000000000000000000000000000000000000000000000000000000000000000000000000000000000000000000000000000000000004000000000000000000000000000000000000008000000000000000000000000000000000000000000000000020000000000000004000800020000000000000000000010000000000000000000000000000000000000000000000000000000000000010000000000000000000000000000000000000000004000000000000000000000000000020000000002000000800000008000000000000000000000080000000000000020000000000000000000000000000000000000000000000000000000000000000000",
      "type": "0x2",
      "transactionHash": "0x581147ea3fb10f75011b3c6b2204e4d180fe036902dda2103422450267570535",
      "transactionIndex": "0x65",
      "blockHash": "0x9e4053edb7bcd74e276b017a8ef93ec9bff23794ba2116cbd8cb2d0ec3a66fef",
      "blockNumber": "0x72500b",
      "gasUsed": "0xfb93",
      "effectiveGasPrice": "0x3756ba7c8",
      "from": "0xc77f7fed3b5cc8249adc428c5f44c9063b9734b4",
      "to": "0x5eb9cc76c3506942c1c0ead70e877dd5e4f00cb0",
      "contractAddress": null
    }
  ],
  "libraries": [],
  "pending": [],
  "returns": {},
  "timestamp": 1736880722,
  "chain": 11155111,
  "commit": "51a374b"
}