{
  "transactions": [
    {
      "hash": "0x5056776bcf4401bfaf68c0732d647f34f3299af4a72becd4d8ea06019f290ca6",
      "transactionType": "CALL",
      "contractName": null,
      "contractAddress": "0x8aafd3ede9adb0ff97c7aebce82a919afb1c8764",
      "function": "sell(uint256)",
      "arguments": [
        "42628807"
      ],
      "transaction": {
        "from": "0xc77f7fed3b5cc8249adc428c5f44c9063b9734b4",
        "to": "0x8aafd3ede9adb0ff97c7aebce82a919afb1c8764",
        "gas": "0x15d88",
        "value": "0x0",
        "input": "0xe4849b3200000000000000000000000000000000000000000000000000000000028a76c7",
        "nonce": "0x169a",
        "chainId": "0xaa36a7"
      },
      "additionalContracts": [],
      "isFixedGasLimit": false
    }
  ],
  "receipts": [
    {
      "status": "0x1",
      "cumulativeGasUsed": "0xf5873f",
      "logs": [
        {
          "address": "0x8aafd3ede9adb0ff97c7aebce82a919afb1c8764",
          "topics": [
            "0xddf252ad1be2c89b69c2b068fc378daa952ba7f163c4a11628f55a4df523b3ef",
            "0x000000000000000000000000c77f7fed3b5cc8249adc428c5f44c9063b9734b4",
            "0x0000000000000000000000000000000000000000000000000000000000000000"
          ],
          "data": "0x00000000000000000000000000000000000000000000000000000000028542a1",
          "blockHash": "0x4de06830a406975e5d1469e3025e92ad9f0eb9e42d83a20efb46ce82895389bb",
          "blockNumber": "0x731e50",
          "transactionHash": "0x5056776bcf4401bfaf68c0732d647f34f3299af4a72becd4d8ea06019f290ca6",
          "transactionIndex": "0x8a",
          "logIndex": "0x13a",
          "removed": false
        },
        {
          "address": "0x8aafd3ede9adb0ff97c7aebce82a919afb1c8764",
          "topics": [
            "0xddf252ad1be2c89b69c2b068fc378daa952ba7f163c4a11628f55a4df523b3ef",
            "0x000000000000000000000000c77f7fed3b5cc8249adc428c5f44c9063b9734b4",
            "0x000000000000000000000000c77f7fed3b5cc8249adc428c5f44c9063b9734b4"
          ],
          "data": "0x0000000000000000000000000000000000000000000000000000000000053426",
          "blockHash": "0x4de06830a406975e5d1469e3025e92ad9f0eb9e42d83a20efb46ce82895389bb",
          "blockNumber": "0x731e50",
          "transactionHash": "0x5056776bcf4401bfaf68c0732d647f34f3299af4a72becd4d8ea06019f290ca6",
          "transactionIndex": "0x8a",
          "logIndex": "0x13b",
          "removed": false
        },
        {
          "address": "0x8aafd3ede9adb0ff97c7aebce82a919afb1c8764",
          "topics": [
            "0x4afcb4a87cdbd9974efdb92ee48bc8d7cd0ae4bf217004db3d080cbaee652ca7"
          ],
          "data": "0x00000000000000000000000000000000000000000000000000000000679068a80000000000000000000000000000000000000000000000000015cca090b9dda4000000000000000000000000000000000000000000000000000000000003fdc0",
          "blockHash": "0x4de06830a406975e5d1469e3025e92ad9f0eb9e42d83a20efb46ce82895389bb",
          "blockNumber": "0x731e50",
          "transactionHash": "0x5056776bcf4401bfaf68c0732d647f34f3299af4a72becd4d8ea06019f290ca6",
          "transactionIndex": "0x8a",
          "logIndex": "0x13c",
          "removed": false
        }
      ],
      "logsBloom": "0x00000000000000000000000000000000000000000600000000000000000000000000000000000000000000000000000000000000000000004000000000000000000000000000004000000008000000000000000000000000000000000000000000000000020000000000000000000800020000000000000000000010000000000000000000000000000000000000000000000000000000000000010000000000000000000000000000000000000000004000000000000000000000000000000000000002000000800000000000000000000000000000080000000000000020000000000000000000000000000000000000000000000000000000000000000000",
      "type": "0x2",
      "transactionHash": "0x5056776bcf4401bfaf68c0732d647f34f3299af4a72becd4d8ea06019f290ca6",
      "transactionIndex": "0x8a",
      "blockHash": "0x4de06830a406975e5d1469e3025e92ad9f0eb9e42d83a20efb46ce82895389bb",
      "blockNumber": "0x731e50",
      "gasUsed": "0xfd0f",
      "effectiveGasPrice": "0x58a2bca3",
      "from": "0xc77f7fed3b5cc8249adc428c5f44c9063b9734b4",
      "to": "0x8aafd3ede9adb0ff97c7aebce82a919afb1c8764",
      "contractAddress": null
    }
  ],
  "libraries": [],
  "pending": [],
  "returns": {},
  "timestamp": 1737517226,
  "chain": 11155111,
  "commit": "1d2fb70"
}