{
  "transactions": [
    {
      "hash": "0x1701b5c59a5a2e6cf1bde9c3d6a39a7410fa9ff873025851439f7526aa879d9a",
      "transactionType": "CALL",
      "contractName": null,
      "contractAddress": "0x270e88f8683660553e8ba4eb2ad7c91a1710d769",
      "function": "sell(uint256)",
      "arguments": [
        "747827821491602902665"
      ],
      "transaction": {
        "from": "0xc77f7fed3b5cc8249adc428c5f44c9063b9734b4",
        "to": "0x270e88f8683660553e8ba4eb2ad7c91a1710d769",
        "gas": "0x16fec",
        "value": "0x0",
        "input": "0xe4849b320000000000000000000000000000000000000000000000288a32217c2938ce89",
        "nonce": "0x6e4",
        "chainId": "0xaa36a7"
      },
      "additionalContracts": [],
      "isFixedGasLimit": false
    }
  ],
  "receipts": [
    {
      "status": "0x1",
      "cumulativeGasUsed": "0xc1abe6",
      "logs": [
        {
          "address": "0x270e88f8683660553e8ba4eb2ad7c91a1710d769",
          "topics": [
            "0xddf252ad1be2c89b69c2b068fc378daa952ba7f163c4a11628f55a4df523b3ef",
            "0x000000000000000000000000c77f7fed3b5cc8249adc428c5f44c9063b9734b4",
            "0x0000000000000000000000000000000000000000000000000000000000000000"
          ],
          "data": "0x0000000000000000000000000000000000000000000000288a32217c2938ce89",
          "blockHash": "0xb211624a03bf755c0a22e876291b6e1c5e79c8a27a62cf00bd5a4c7c6e8d4732",
          "blockNumber": "0x7253f7",
          "transactionHash": "0x1701b5c59a5a2e6cf1bde9c3d6a39a7410fa9ff873025851439f7526aa879d9a",
          "transactionIndex": "0x4c",
          "logIndex": "0x64",
          "removed": false
        },
        {
          "address": "0x270e88f8683660553e8ba4eb2ad7c91a1710d769",
          "topics": [
            "0x4afcb4a87cdbd9974efdb92ee48bc8d7cd0ae4bf217004db3d080cbaee652ca7"
          ],
          "data": "0x000000000000000000000000000000000000000000000000000000006786e19c0000000000000000000000000000000000000000000000000004b7f71b2d08cb0000000000000000000000000000000000000000000000000dc8294f572ef889",
          "blockHash": "0xb211624a03bf755c0a22e876291b6e1c5e79c8a27a62cf00bd5a4c7c6e8d4732",
          "blockNumber": "0x7253f7",
          "transactionHash": "0x1701b5c59a5a2e6cf1bde9c3d6a39a7410fa9ff873025851439f7526aa879d9a",
          "transactionIndex": "0x4c",
          "logIndex": "0x65",
          "removed": false
        }
      ],
      "logsBloom": "0x00000000000000000000000000000000000000000000000000000000000000000000000000000000000000000000000020000000000000004000000000000000000000000000000000000008000000000000000000000000000000000000000000000000020000000000000000000800020000000000000000000010000000000000000000010000000000000000000000000000000000000000010000000000000000000000000000000000000000004000000000000000000000000000000000000002000000800000000000000000000000000000080000008000000020000000000000000000000000000000000000000000000000000000000000000000",
      "type": "0x2",
      "transactionHash": "0x1701b5c59a5a2e6cf1bde9c3d6a39a7410fa9ff873025851439f7526aa879d9a",
      "transactionIndex": "0x4c",
      "blockHash": "0xb211624a03bf755c0a22e876291b6e1c5e79c8a27a62cf00bd5a4c7c6e8d4732",
      "blockNumber": "0x7253f7",
      "gasUsed": "0xfb93",
      "effectiveGasPrice": "0x160378a49",
      "from": "0xc77f7fed3b5cc8249adc428c5f44c9063b9734b4",
      "to": "0x270e88f8683660553e8ba4eb2ad7c91a1710d769",
      "contractAddress": null
    }
  ],
  "libraries": [],
  "pending": [],
  "returns": {},
  "timestamp": 1736892830,
  "chain": 11155111,
  "commit": "51a374b"
}