{
  "transactions": [
    {
      "hash": "0x65bb115d5ae7186542a204ee3430e9cbf658cb57c8d2b722f584d03b8aacb3ee",
      "transactionType": "CALL",
      "contractName": null,
      "contractAddress": "0x5eb9cc76c3506942c1c0ead70e877dd5e4f00cb0",
      "function": "sell(uint256)",
      "arguments": [
        "989139839017187644136"
      ],
      "transaction": {
        "from": "0xc77f7fed3b5cc8249adc428c5f44c9063b9734b4",
        "to": "0x5eb9cc76c3506942c1c0ead70e877dd5e4f00cb0",
        "gas": "0x16fec",
        "value": "0x0",
        "input": "0xe4849b320000000000000000000000000000000000000000000000359f12a2e60e8992e8",
        "nonce": "0x307",
        "chainId": "0xaa36a7"
      },
      "additionalContracts": [],
      "isFixedGasLimit": false
    }
  ],
  "receipts": [
    {
      "status": "0x1",
      "cumulativeGasUsed": "0xc62211",
      "logs": [
        {
          "address": "0x5eb9cc76c3506942c1c0ead70e877dd5e4f00cb0",
          "topics": [
            "0xddf252ad1be2c89b69c2b068fc378daa952ba7f163c4a11628f55a4df523b3ef",
            "0x000000000000000000000000c77f7fed3b5cc8249adc428c5f44c9063b9734b4",
            "0x0000000000000000000000000000000000000000000000000000000000000000"
          ],
          "data": "0x0000000000000000000000000000000000000000000000359f12a2e60e8992e8",
          "blockHash": "0x97b45659bd34b14e23b3d316f64a413efd289a10fbf22c7f81264f87802f2b67",
          "blockNumber": "0x724eea",
          "transactionHash": "0x65bb115d5ae7186542a204ee3430e9cbf658cb57c8d2b722f584d03b8aacb3ee",
          "transactionIndex": "0x6b",
          "logIndex": "0x9a",
          "removed": false
        },
        {
          "address": "0x5eb9cc76c3506942c1c0ead70e877dd5e4f00cb0",
          "topics": [
            "0x4afcb4a87cdbd9974efdb92ee48bc8d7cd0ae4bf217004db3d080cbaee652ca7"
          ],
          "data": "0x000000000000000000000000000000000000000000000000000000006786a4ac0000000000000000000000000000000000000000000000000003910c0eb7d28d0000000000000000000000000000000000000000000000000dc7db13322e562d",
          "blockHash": "0x97b45659bd34b14e23b3d316f64a413efd289a10fbf22c7f81264f87802f2b67",
          "blockNumber": "0x724eea",
          "transactionHash": "0x65bb115d5ae7186542a204ee3430e9cbf658cb57c8d2b722f584d03b8aacb3ee",
          "transactionIndex": "0x6b",
          "logIndex": "0x9b",
          "removed": false
        }
      ],
      "logsBloom": "0x00000000000000000000000000000000000000000000000000000000000000000000000000000000000000000000000000000000000000004000000000000000000000000000000000000008000000000000000000000000000000000000000000000000020000000000000004000800020000000000000000000010000000000000000000000000000000000000000000000000000000000000010000000000000000000000000000000000000000004000000000000000000000000000020000000002000000800000008000000000000000000000080000000000000020000000000000000000000000000000000000000000000000000000000000000000",
      "type": "0x2",
      "transactionHash": "0x65bb115d5ae7186542a204ee3430e9cbf658cb57c8d2b722f584d03b8aacb3ee",
      "transactionIndex": "0x6b",
      "blockHash": "0x97b45659bd34b14e23b3d316f64a413efd289a10fbf22c7f81264f87802f2b67",
      "blockNumber": "0x724eea",
      "gasUsed": "0xfb93",
      "effectiveGasPrice": "0x64f5e6893",
      "from": "0xc77f7fed3b5cc8249adc428c5f44c9063b9734b4",
      "to": "0x5eb9cc76c3506942c1c0ead70e877dd5e4f00cb0",
      "contractAddress": null
    }
  ],
  "libraries": [],
  "pending": [],
  "returns": {},
  "timestamp": 1736877229,
  "chain": 11155111,
  "commit": "51a374b"
}