{
  "transactions": [
    {
      "hash": "0xbdb4b4f8222b5da7fb33c7d65c8dcb8904017f1712f013a5c7af51b6bb57b440",
      "transactionType": "CALL",
      "contractName": null,
      "contractAddress": "0x270e88f8683660553e8ba4eb2ad7c91a1710d769",
      "function": "sell(uint256)",
      "arguments": [
        "717708841735760061387"
      ],
      "transaction": {
        "from": "0xc77f7fed3b5cc8249adc428c5f44c9063b9734b4",
        "to": "0x270e88f8683660553e8ba4eb2ad7c91a1710d769",
        "gas": "0x16fec",
        "value": "0x0",
        "input": "0xe4849b32000000000000000000000000000000000000000000000026e83604f9690723cb",
        "nonce": "0x83e",
        "chainId": "0xaa36a7"
      },
      "additionalContracts": [],
      "isFixedGasLimit": false
    }
  ],
  "receipts": [
    {
      "status": "0x1",
      "cumulativeGasUsed": "0x81565a",
      "logs": [
        {
          "address": "0x270e88f8683660553e8ba4eb2ad7c91a1710d769",
          "topics": [
            "0xddf252ad1be2c89b69c2b068fc378daa952ba7f163c4a11628f55a4df523b3ef",
            "0x000000000000000000000000c77f7fed3b5cc8249adc428c5f44c9063b9734b4",
            "0x0000000000000000000000000000000000000000000000000000000000000000"
          ],
          "data": "0x000000000000000000000000000000000000000000000026e83604f9690723cb",
          "blockHash": "0x03e8bc0df8dd4463ca723fd2e733c352818dacf16b6a59d5a4bf7031ab7dcae5",
          "blockNumber": "0x72558b",
          "transactionHash": "0xbdb4b4f8222b5da7fb33c7d65c8dcb8904017f1712f013a5c7af51b6bb57b440",
          "transactionIndex": "0x4d",
          "logIndex": "0x68",
          "removed": false
        },
        {
          "address": "0x270e88f8683660553e8ba4eb2ad7c91a1710d769",
          "topics": [
            "0x4afcb4a87cdbd9974efdb92ee48bc8d7cd0ae4bf217004db3d080cbaee652ca7"
          ],
          "data": "0x000000000000000000000000000000000000000000000000000000006786f48c0000000000000000000000000000000000000000000000000004eaa5553635c20000000000000000000000000000000000000000000000000dc826312ad08993",
          "blockHash": "0x03e8bc0df8dd4463ca723fd2e733c352818dacf16b6a59d5a4bf7031ab7dcae5",
          "blockNumber": "0x72558b",
          "transactionHash": "0xbdb4b4f8222b5da7fb33c7d65c8dcb8904017f1712f013a5c7af51b6bb57b440",
          "transactionIndex": "0x4d",
          "logIndex": "0x69",
          "removed": false
        }
      ],
      "logsBloom": "0x00000000000000000000000000000000000000000000000000000000000000000000000000000000000000000000000020000000000000004000000000000000000000000000000000000008000000000000000000000000000000000000000000000000020000000000000000000800020000000000000000000010000000000000000000010000000000000000000000000000000000000000010000000000000000000000000000000000000000004000000000000000000000000000000000000002000000800000000000000000000000000000080000008000000020000000000000000000000000000000000000000000000000000000000000000000",
      "type": "0x2",
      "transactionHash": "0xbdb4b4f8222b5da7fb33c7d65c8dcb8904017f1712f013a5c7af51b6bb57b440",
      "transactionIndex": "0x4d",
      "blockHash": "0x03e8bc0df8dd4463ca723fd2e733c352818dacf16b6a59d5a4bf7031ab7dcae5",
      "blockNumber": "0x72558b",
      "gasUsed": "0xfb93",
      "effectiveGasPrice": "0x74ae1956",
      "from": "0xc77f7fed3b5cc8249adc428c5f44c9063b9734b4",
      "to": "0x270e88f8683660553e8ba4eb2ad7c91a1710d769",
      "contractAddress": null
    }
  ],
  "libraries": [],
  "pending": [],
  "returns": {},
  "timestamp": 1736897676,
  "chain": 11155111,
  "commit": "51a374b"
}