{
  "transactions": [
    {
      "hash": "0x9c17bae8dcde5fd8c9dfde7b8f64b6cf5bc6a2093242388476b07c7ba0c9a710",
      "transactionType": "CALL",
      "contractName": null,
      "contractAddress": "0x8aafd3ede9adb0ff97c7aebce82a919afb1c8764",
      "function": "sell(uint256)",
      "arguments": [
        "43413723075487442"
      ],
      "transaction": {
        "from": "0xc77f7fed3b5cc8249adc428c5f44c9063b9734b4",
        "to": "0x8aafd3ede9adb0ff97c7aebce82a919afb1c8764",
        "gas": "0x1724d",
        "value": "0x0",
        "input": "0xe4849b32000000000000000000000000000000000000000000000000009a3c8d164aa6d2",
        "nonce": "0x1219",
        "chainId": "0xaa36a7"
      },
      "additionalContracts": [],
      "isFixedGasLimit": false
    }
  ],
  "receipts": [
    {
      "status": "0x1",
      "cumulativeGasUsed": "0x86ee0f",
      "logs": [
        {
          "address": "0x8aafd3ede9adb0ff97c7aebce82a919afb1c8764",
          "topics": [
            "0xddf252ad1be2c89b69c2b068fc378daa952ba7f163c4a11628f55a4df523b3ef",
            "0x000000000000000000000000c77f7fed3b5cc8249adc428c5f44c9063b9734b4",
            "0x0000000000000000000000000000000000000000000000000000000000000000"
          ],
          "data": "0x000000000000000000000000000000000000000000000000009900acb9f409d7",
          "blockHash": "0x09ba92d6f1f2a76d6194415f15581387a1516ece3b3680314288860636b8f142",
          "blockNumber": "0x7318f5",
          "transactionHash": "0x9c17bae8dcde5fd8c9dfde7b8f64b6cf5bc6a2093242388476b07c7ba0c9a710",
          "transactionIndex": "0x68",
          "logIndex": "0x81",
          "removed": false
        },
        {
          "address": "0x8aafd3ede9adb0ff97c7aebce82a919afb1c8764",
          "topics": [
            "0xddf252ad1be2c89b69c2b068fc378daa952ba7f163c4a11628f55a4df523b3ef",
            "0x000000000000000000000000c77f7fed3b5cc8249adc428c5f44c9063b9734b4",
            "0x000000000000000000000000c77f7fed3b5cc8249adc428c5f44c9063b9734b4"
          ],
          "data": "0x00000000000000000000000000000000000000000000000000013be05c569cfb",
          "blockHash": "0x09ba92d6f1f2a76d6194415f15581387a1516ece3b3680314288860636b8f142",
          "blockNumber": "0x7318f5",
          "transactionHash": "0x9c17bae8dcde5fd8c9dfde7b8f64b6cf5bc6a2093242388476b07c7ba0c9a710",
          "transactionIndex": "0x68",
          "logIndex": "0x82",
          "removed": false
        },
        {
          "address": "0x8aafd3ede9adb0ff97c7aebce82a919afb1c8764",
          "topics": [
            "0x4afcb4a87cdbd9974efdb92ee48bc8d7cd0ae4bf217004db3d080cbaee652ca7"
          ],
          "data": "0x000000000000000000000000000000000000000000000000000000006790284c000000000000000000000000000000000000000000000000000534d6910943ec000000000000000000000000000000000000000000000000000039dd0bf192da",
          "blockHash": "0x09ba92d6f1f2a76d6194415f15581387a1516ece3b3680314288860636b8f142",
          "blockNumber": "0x7318f5",
          "transactionHash": "0x9c17bae8dcde5fd8c9dfde7b8f64b6cf5bc6a2093242388476b07c7ba0c9a710",
          "transactionIndex": "0x68",
          "logIndex": "0x83",
          "removed": false
        }
      ],
      "logsBloom": "0x00000000000000000000000000000000000000000600000000000000000000000000000000000000000000000000000000000000000000004000000000000000000000000000004000000008000000000000000000000000000000000000000000000000020000000000000000000800020000000000000000000010000000000000000000000000000000000000000000000000000000000000010000000000000000000000000000000000000000004000000000000000000000000000000000000002000000800000000000000000000000000000080000000000000020000000000000000000000000000000000000000000000000000000000000000000",
      "type": "0x2",
      "transactionHash": "0x9c17bae8dcde5fd8c9dfde7b8f64b6cf5bc6a2093242388476b07c7ba0c9a710",
      "transactionIndex": "0x68",
      "blockHash": "0x09ba92d6f1f2a76d6194415f15581387a1516ece3b3680314288860636b8f142",
      "blockNumber": "0x7318f5",
      "gasUsed": "0xfd33",
      "effectiveGasPrice": "0x4feeb226",
      "from": "0xc77f7fed3b5cc8249adc428c5f44c9063b9734b4",
      "to": "0x8aafd3ede9adb0ff97c7aebce82a919afb1c8764",
      "contractAddress": null
    }
  ],
  "libraries": [],
  "pending": [],
  "returns": {},
  "timestamp": 1737500749,
  "chain": 11155111,
  "commit": "1d2fb70"
}