{
  "transactions": [
    {
      "hash": "0x64d0b83866154cfa0110171f1c8d88617b4aeb47a8a80813c9192d6f8fa0e9df",
      "transactionType": "CALL",
      "contractName": null,
      "contractAddress": "0x8aafd3ede9adb0ff97c7aebce82a919afb1c8764",
      "function": "sell(uint256)",
      "arguments": [
        "1457573"
      ],
      "transaction": {
        "from": "0xc77f7fed3b5cc8249adc428c5f44c9063b9734b4",
        "to": "0x8aafd3ede9adb0ff97c7aebce82a919afb1c8764",
        "gas": "0x16208",
        "value": "0x0",
        "input": "0xe4849b320000000000000000000000000000000000000000000000000000000000163da5",
        "nonce": "0x1142",
        "chainId": "0xaa36a7"
      },
      "additionalContracts": [],
      "isFixedGasLimit": false
    }
  ],
  "receipts": [
    {
      "status": "0x1",
      "cumulativeGasUsed": "0x12ca0d5",
      "logs": [
        {
          "address": "0x8aafd3ede9adb0ff97c7aebce82a919afb1c8764",
          "topics": [
            "0xddf252ad1be2c89b69c2b068fc378daa952ba7f163c4a11628f55a4df523b3ef",
            "0x000000000000000000000000c77f7fed3b5cc8249adc428c5f44c9063b9734b4",
            "0x0000000000000000000000000000000000000000000000000000000000000000"
          ],
          "data": "0x0000000000000000000000000000000000000000000000000000000000161019",
          "blockHash": "0xb05a4a411353389403955b6d0c983230ae4591038e11855707a682f63d122391",
          "blockNumber": "0x7317fb",
          "transactionHash": "0x64d0b83866154cfa0110171f1c8d88617b4aeb47a8a80813c9192d6f8fa0e9df",
          "transactionIndex": "0xa3",
          "logIndex": "0x11f",
          "removed": false
        },
        {
          "address": "0x8aafd3ede9adb0ff97c7aebce82a919afb1c8764",
          "topics": [
            "0xddf252ad1be2c89b69c2b068fc378daa952ba7f163c4a11628f55a4df523b3ef",
            "0x000000000000000000000000c77f7fed3b5cc8249adc428c5f44c9063b9734b4",
            "0x000000000000000000000000c77f7fed3b5cc8249adc428c5f44c9063b9734b4"
          ],
          "data": "0x0000000000000000000000000000000000000000000000000000000000002d8c",
          "blockHash": "0xb05a4a411353389403955b6d0c983230ae4591038e11855707a682f63d122391",
          "blockNumber": "0x7317fb",
          "transactionHash": "0x64d0b83866154cfa0110171f1c8d88617b4aeb47a8a80813c9192d6f8fa0e9df",
          "transactionIndex": "0xa3",
          "logIndex": "0x120",
          "removed": false
        },
        {
          "address": "0x8aafd3ede9adb0ff97c7aebce82a919afb1c8764",
          "topics": [
            "0x4afcb4a87cdbd9974efdb92ee48bc8d7cd0ae4bf217004db3d080cbaee652ca7"
          ],
          "data": "0x0000000000000000000000000000000000000000000000000000000067901c88000000000000000000000000000000000000000000000000000514dfe886f96a0000000000000000000000000000000000000000000000000000000000000824",
          "blockHash": "0xb05a4a411353389403955b6d0c983230ae4591038e11855707a682f63d122391",
          "blockNumber": "0x7317fb",
          "transactionHash": "0x64d0b83866154cfa0110171f1c8d88617b4aeb47a8a80813c9192d6f8fa0e9df",
          "transactionIndex": "0xa3",
          "logIndex": "0x121",
          "removed": false
        }
      ],
      "logsBloom": "0x00000000000000000000000000000000000000000600000000000000000000000000000000000000000000000000000000000000000000004000000000000000000000000000004000000008000000000000000000000000000000000000000000000000020000000000000000000800020000000000000000000010000000000000000000000000000000000000000000000000000000000000010000000000000000000000000000000000000000004000000000000000000000000000000000000002000000800000000000000000000000000000080000000000000020000000000000000000000000000000000000000000000000000000000000000000",
      "type": "0x2",
      "transactionHash": "0x64d0b83866154cfa0110171f1c8d88617b4aeb47a8a80813c9192d6f8fa0e9df",
      "transactionIndex": "0xa3",
      "blockHash": "0xb05a4a411353389403955b6d0c983230ae4591038e11855707a682f63d122391",
      "blockNumber": "0x7317fb",
      "gasUsed": "0xf213",
      "effectiveGasPrice": "0x36e84025",
      "from": "0xc77f7fed3b5cc8249adc428c5f44c9063b9734b4",
      "to": "0x8aafd3ede9adb0ff97c7aebce82a919afb1c8764",
      "contractAddress": null
    }
  ],
  "libraries": [],
  "pending": [],
  "returns": {},
  "timestamp": 1737497738,
  "chain": 11155111,
  "commit": "1d2fb70"
}