{
  "transactions": [
    {
      "hash": "0x6463ee3e2e85acaa698a2d9fc8972ec31ad57b29d9ae4d614dc7c727734d5342",
      "transactionType": "CALL",
      "contractName": null,
      "contractAddress": "0xbf4a322f1496e5c3d34a9bcdb4c60567b38c7de2",
      "function": "sell(uint256)",
      "arguments": [
        "972894804592460371859"
      ],
      "transaction": {
        "from": "0xc77f7fed3b5cc8249adc428c5f44c9063b9734b4",
        "to": "0xbf4a322f1496e5c3d34a9bcdb4c60567b38c7de2",
        "gas": "0x16fea",
        "value": "0x0",
        "input": "0xe4849b32000000000000000000000000000000000000000000000034bda0ae28c4ad1793",
        "nonce": "0xe2d",
        "chainId": "0xaa36a7"
      },
      "additionalContracts": [],
      "isFixedGasLimit": false
    }
  ],
  "receipts": [
    {
      "status": "0x1",
      "cumulativeGasUsed": "0x16bc7f5",
      "logs": [
        {
          "address": "0xbf4a322f1496e5c3d34a9bcdb4c60567b38c7de2",
          "topics": [
            "0xddf252ad1be2c89b69c2b068fc378daa952ba7f163c4a11628f55a4df523b3ef",
            "0x000000000000000000000000c77f7fed3b5cc8249adc428c5f44c9063b9734b4",
            "0x0000000000000000000000000000000000000000000000000000000000000000"
          ],
          "data": "0x000000000000000000000000000000000000000000000034bda0ae28c4ad1793",
          "blockHash": "0x36a2b66a95e92ce6dd419ac2e8f6618ae01b25ea248f39cb9b3fd2b48e576e96",
          "blockNumber": "0x72671c",
          "transactionHash": "0x6463ee3e2e85acaa698a2d9fc8972ec31ad57b29d9ae4d614dc7c727734d5342",
          "transactionIndex": "0x6a",
          "logIndex": "0x74",
          "removed": false
        },
        {
          "address": "0xbf4a322f1496e5c3d34a9bcdb4c60567b38c7de2",
          "topics": [
            "0x4afcb4a87cdbd9974efdb92ee48bc8d7cd0ae4bf217004db3d080cbaee652ca7"
          ],
          "data": "0x000000000000000000000000000000000000000000000000000000006787c8c00000000000000000000000000000000000000000000000000003a05159845a100000000000000000000000000000000000000000000000000dc7e3d18bdd67ea",
          "blockHash": "0x36a2b66a95e92ce6dd419ac2e8f6618ae01b25ea248f39cb9b3fd2b48e576e96",
          "blockNumber": "0x72671c",
          "transactionHash": "0x6463ee3e2e85acaa698a2d9fc8972ec31ad57b29d9ae4d614dc7c727734d5342",
          "transactionIndex": "0x6a",
          "logIndex": "0x75",
          "removed": false
        }
      ],
      "logsBloom": "0x00000000000000000000000000000000000000000000000000000000000000000000000000000000000000000000000000000000000000004000000000000000000000000000000000000008000000000000001000000000000000000000000000000000020000000000000000000800020000000000000000000010000000000000000000000000000000000000000000000000000008000000010000000000000000000000000000000000000000004000000000000000000000000000000000000002000000800000000000001000000000000000080000000000000020000000000000000000000000000000000000000000000000000000000000000000",
      "type": "0x2",
      "transactionHash": "0x6463ee3e2e85acaa698a2d9fc8972ec31ad57b29d9ae4d614dc7c727734d5342",
      "transactionIndex": "0x6a",
      "blockHash": "0x36a2b66a95e92ce6dd419ac2e8f6618ae01b25ea248f39cb9b3fd2b48e576e96",
      "blockNumber": "0x72671c",
      "gasUsed": "0xfb91",
      "effectiveGasPrice": "0x7c8b816fa",
      "from": "0xc77f7fed3b5cc8249adc428c5f44c9063b9734b4",
      "to": "0xbf4a322f1496e5c3d34a9bcdb4c60567b38c7de2",
      "contractAddress": null
    }
  ],
  "libraries": [],
  "pending": [],
  "returns": {},
  "timestamp": 1736952001,
  "chain": 11155111,
  "commit": "51a374b"
}