{
  "transactions": [
    {
      "hash": "0xc827aafc6ef73a7004be99a81df89abd9a58e326d12becf2813b325bb42dc0e8",
      "transactionType": "CALL",
      "contractName": null,
      "contractAddress": "0x5eb9cc76c3506942c1c0ead70e877dd5e4f00cb0",
      "function": "buy(address)",
      "arguments": [
        "0xC77f7fed3b5Cc8249aDc428c5F44C9063B9734b4"
      ],
      "transaction": {
        "from": "0xc77f7fed3b5cc8249adc428c5f44c9063b9734b4",
        "to": "0x5eb9cc76c3506942c1c0ead70e877dd5e4f00cb0",
        "gas": "0x1b30c",
        "value": "0xde0b6b3a7640000",
        "input": "0xf088d547000000000000000000000000c77f7fed3b5cc8249adc428c5f44c9063b9734b4",
        "nonce": "0x386",
        "chainId": "0xaa36a7"
      },
      "additionalContracts": [],
      "isFixedGasLimit": false
    }
  ],
  "receipts": [
    {
      "status": "0x1",
      "cumulativeGasUsed": "0xa6a83e",
      "logs": [
        {
          "address": "0x5eb9cc76c3506942c1c0ead70e877dd5e4f00cb0",
          "topics": [
            "0xddf252ad1be2c89b69c2b068fc378daa952ba7f163c4a11628f55a4df523b3ef",
            "0x0000000000000000000000000000000000000000000000000000000000000000",
            "0x000000000000000000000000c77f7fed3b5cc8249adc428c5f44c9063b9734b4"
          ],
          "data": "0x000000000000000000000000000000000000000000000035754714e15370a9ea",
          "blockHash": "0xa9526fa87728b32e79038b688d009299e0b5fb62cadb8156cf14e707994ded01",
          "blockNumber": "0x724f80",
          "transactionHash": "0xc827aafc6ef73a7004be99a81df89abd9a58e326d12becf2813b325bb42dc0e8",
          "transactionIndex": "0x60",
          "logIndex": "0x70",
          "removed": false
        },
        {
          "address": "0x5eb9cc76c3506942c1c0ead70e877dd5e4f00cb0",
          "topics": [
            "0xddf252ad1be2c89b69c2b068fc378daa952ba7f163c4a11628f55a4df523b3ef",
            "0x0000000000000000000000000000000000000000000000000000000000000000",
            "0x000000000000000000000000c77f7fed3b5cc8249adc428c5f44c9063b9734b4"
          ],
          "data": "0x000000000000000000000000000000000000000000000000298315bc84f27f03",
          "blockHash": "0xa9526fa87728b32e79038b688d009299e0b5fb62cadb8156cf14e707994ded01",
          "blockNumber": "0x724f80",
          "transactionHash": "0xc827aafc6ef73a7004be99a81df89abd9a58e326d12becf2813b325bb42dc0e8",
          "transactionIndex": "0x60",
          "logIndex": "0x71",
          "removed": false
        },
        {
          "address": "0x5eb9cc76c3506942c1c0ead70e877dd5e4f00cb0",
          "topics": [
            "0x4afcb4a87cdbd9974efdb92ee48bc8d7cd0ae4bf217004db3d080cbaee652ca7"
          ],
          "data": "0x000000000000000000000000000000000000000000000000000000006786abb400000000000000000000000000000000000000000000000000039110d467b0800000000000000000000000000000000000000000000000000de0b6b3a7640000",
          "blockHash": "0xa9526fa87728b32e79038b688d009299e0b5fb62cadb8156cf14e707994ded01",
          "blockNumber": "0x724f80",
          "transactionHash": "0xc827aafc6ef73a7004be99a81df89abd9a58e326d12becf2813b325bb42dc0e8",
          "transactionIndex": "0x60",
          "logIndex": "0x72",
          "removed": false
        }
      ],
      "logsBloom": "0x00000000000000000000000000000000000000000000000000000000000000000000000000000000000000000000000000000000000000004000000000000000000000000000000000000008000000000000000000000000000000000000000000000000020000000000000004000800020000000000000000000010000000000000000000000000000000000000000000000000000000000000010000000000000000000000000000000000000000004000000000000000000000000000020000000002000000800000008000000000000000000000080000000000000020000000000000000000000000000000000000000000000000000000000000000000",
      "type": "0x2",
      "transactionHash": "0xc827aafc6ef73a7004be99a81df89abd9a58e326d12becf2813b325bb42dc0e8",
      "transactionIndex": "0x60",
      "blockHash": "0xa9526fa87728b32e79038b688d009299e0b5fb62cadb8156cf14e707994ded01",
      "blockNumber": "0x724f80",
      "gasUsed": "0x13af8",
      "effectiveGasPrice": "0x5c4fb7f7b",
      "from": "0xc77f7fed3b5cc8249adc428c5f44c9063b9734b4",
      "to": "0x5eb9cc76c3506942c1c0ead70e877dd5e4f00cb0",
      "contractAddress": null
    }
  ],
  "libraries": [],
  "pending": [],
  "returns": {},
  "timestamp": 1736879028,
  "chain": 11155111,
  "commit": "51a374b"
}