{
  "transactions": [
    {
      "hash": "0xd98a17ecada8388b4a4abe21946cd88a5063a4358806af1f11659c6b76c8a4ce",
      "transactionType": "CALL",
      "contractName": null,
      "contractAddress": "0x8aafd3ede9adb0ff97c7aebce82a919afb1c8764",
      "function": "sell(uint256)",
      "arguments": [
        "1538059401871543602"
      ],
      "transaction": {
        "from": "0xc77f7fed3b5cc8249adc428c5f44c9063b9734b4",
        "to": "0x8aafd3ede9adb0ff97c7aebce82a919afb1c8764",
        "gas": "0x1724d",
        "value": "0x0",
        "input": "0xe4849b32000000000000000000000000000000000000000000000000155848e08400cd32",
        "nonce": "0x1575",
        "chainId": "0xaa36a7"
      },
      "additionalContracts": [],
      "isFixedGasLimit": false
    }
  ],
  "receipts": [
    {
      "status": "0x1",
      "cumulativeGasUsed": "0x10284b0",
      "logs": [
        {
          "address": "0x8aafd3ede9adb0ff97c7aebce82a919afb1c8764",
          "topics": [
            "0xddf252ad1be2c89b69c2b068fc378daa952ba7f163c4a11628f55a4df523b3ef",
            "0x000000000000000000000000c77f7fed3b5cc8249adc428c5f44c9063b9734b4",
            "0x0000000000000000000000000000000000000000000000000000000000000000"
          ],
          "data": "0x000000000000000000000000000000000000000000000000152c9205a1aac776",
          "blockHash": "0xdf9fd6635c3ba500746cff6be29d2160544a83b5d623c3d429ef857e75f8232b",
          "blockNumber": "0x731cdf",
          "transactionHash": "0xd98a17ecada8388b4a4abe21946cd88a5063a4358806af1f11659c6b76c8a4ce",
          "transactionIndex": "0x88",
          "logIndex": "0xae",
          "removed": false
        },
        {
          "address": "0x8aafd3ede9adb0ff97c7aebce82a919afb1c8764",
          "topics": [
            "0xddf252ad1be2c89b69c2b068fc378daa952ba7f163c4a11628f55a4df523b3ef",
            "0x000000000000000000000000c77f7fed3b5cc8249adc428c5f44c9063b9734b4",
            "0x000000000000000000000000c77f7fed3b5cc8249adc428c5f44c9063b9734b4"
          ],
          "data": "0x000000000000000000000000000000000000000000000000002bb6dae25605bc",
          "blockHash": "0xdf9fd6635c3ba500746cff6be29d2160544a83b5d623c3d429ef857e75f8232b",
          "blockNumber": "0x731cdf",
          "transactionHash": "0xd98a17ecada8388b4a4abe21946cd88a5063a4358806af1f11659c6b76c8a4ce",
          "transactionIndex": "0x88",
          "logIndex": "0xaf",
          "removed": false
        },
        {
          "address": "0x8aafd3ede9adb0ff97c7aebce82a919afb1c8764",
          "topics": [
            "0x4afcb4a87cdbd9974efdb92ee48bc8d7cd0ae4bf217004db3d080cbaee652ca7"
          ],
          "data": "0x000000000000000000000000000000000000000000000000000000006790575c00000000000000000000000000000000000000000000000000127428855abce2000000000000000000000000000000000000000000000000001c61ca338de1b0",
          "blockHash": "0xdf9fd6635c3ba500746cff6be29d2160544a83b5d623c3d429ef857e75f8232b",
          "blockNumber": "0x731cdf",
          "transactionHash": "0xd98a17ecada8388b4a4abe21946cd88a5063a4358806af1f11659c6b76c8a4ce",
          "transactionIndex": "0x88",
          "logIndex": "0xb0",
          "removed": false
        }
      ],
      "logsBloom": "0x00000000000000000000000000000000000000000600000000000000000000000000000000000000000000000000000000000000000000004000000000000000000000000000004000000008000000000000000000000000000000000000000000000000020000000000000000000800020000000000000000000010000000000000000000000000000000000000000000000000000000000000010000000000000000000000000000000000000000004000000000000000000000000000000000000002000000800000000000000000000000000000080000000000000020000000000000000000000000000000000000000000000000000000000000000000",
      "type": "0x2",
      "transactionHash": "0xd98a17ecada8388b4a4abe21946cd88a5063a4358806af1f11659c6b76c8a4ce",
      "transactionIndex": "0x88",
      "blockHash": "0xdf9fd6635c3ba500746cff6be29d2160544a83b5d623c3d429ef857e75f8232b",
      "blockNumber": "0x731cdf",
      "gasUsed": "0xfd33",
      "effectiveGasPrice": "0x73753525",
      "from": "0xc77f7fed3b5cc8249adc428c5f44c9063b9734b4",
      "to": "0x8aafd3ede9adb0ff97c7aebce82a919afb1c8764",
      "contractAddress": null
    }
  ],
  "libraries": [],
  "pending": [],
  "returns": {},
  "timestamp": 1737512797,
  "chain": 11155111,
  "commit": "1d2fb70"
}