{
  "transactions": [
    {
      "hash": "0xe26caf9c93fd970c7641e262b622a74789f2e4d7ce8d5a31489bae6d82d6aca8",
      "transactionType": "CALL",
      "contractName": null,
      "contractAddress": "0x00972455a43df7d89f165c5b82f30c20247bb610",
      "function": "buy(address)",
      "arguments": [
        "0xC77f7fed3b5Cc8249aDc428c5F44C9063B9734b4"
      ],
      "transaction": {
        "from": "0xc77f7fed3b5cc8249adc428c5f44c9063b9734b4",
        "to": "0x00972455a43df7d89f165c5b82f30c20247bb610",
        "gas": "0x16aab",
        "value": "0x38d7ea4c68000",
        "input": "0xf088d547000000000000000000000000c77f7fed3b5cc8249adc428c5f44c9063b9734b4",
        "nonce": "0x1871",
        "chainId": "0xaa36a7"
      },
      "additionalContracts": [],
      "isFixedGasLimit": false
    }
  ],
  "receipts": [
    {
      "status": "0x1",
      "cumulativeGasUsed": "0xfe405b",
      "logs": [
        {
          "address": "0x00972455a43df7d89f165c5b82f30c20247bb610",
          "topics": [
            "0xddf252ad1be2c89b69c2b068fc378daa952ba7f163c4a11628f55a4df523b3ef",
            "0x0000000000000000000000000000000000000000000000000000000000000000",
            "0x000000000000000000000000c77f7fed3b5cc8249adc428c5f44c9063b9734b4"
          ],
          "data": "0x0000000000000000000000000000000000000000000000000db8837053c75cce",
          "blockHash": "0x02c36f51784cdad27e8394b88dd9141ff0ddbb17ffb1dcea9418c6487fe4f5af",
          "blockNumber": "0x737e4f",
          "transactionHash": "0xe26caf9c93fd970c7641e262b622a74789f2e4d7ce8d5a31489bae6d82d6aca8",
          "transactionIndex": "0x54",
          "logIndex": "0x135",
          "removed": false
        },
        {
          "address": "0x00972455a43df7d89f165c5b82f30c20247bb610",
          "topics": [
            "0xddf252ad1be2c89b69c2b068fc378daa952ba7f163c4a11628f55a4df523b3ef",
            "0x0000000000000000000000000000000000000000000000000000000000000000",
            "0x000000000000000000000000c77f7fed3b5cc8249adc428c5f44c9063b9734b4"
          ],
          "data": "0x000000000000000000000000000000000000000000000000000aa7962454f7a7",
          "blockHash": "0x02c36f51784cdad27e8394b88dd9141ff0ddbb17ffb1dcea9418c6487fe4f5af",
          "blockNumber": "0x737e4f",
          "transactionHash": "0xe26caf9c93fd970c7641e262b622a74789f2e4d7ce8d5a31489bae6d82d6aca8",
          "transactionIndex": "0x54",
          "logIndex": "0x136",
          "removed": false
        },
        {
          "address": "0x00972455a43df7d89f165c5b82f30c20247bb610",
          "topics": [
            "0x4afcb4a87cdbd9974efdb92ee48bc8d7cd0ae4bf217004db3d080cbaee652ca7"
          ],
          "data": "0x000000000000000000000000000000000000000000000000000000006795116400000000000000000000000000000000000000000000000000038f3c6cd6a56800000000000000000000000000000000000000000000000000038d7ea4c68000",
          "blockHash": "0x02c36f51784cdad27e8394b88dd9141ff0ddbb17ffb1dcea9418c6487fe4f5af",
          "blockNumber": "0x737e4f",
          "transactionHash": "0xe26caf9c93fd970c7641e262b622a74789f2e4d7ce8d5a31489bae6d82d6aca8",
          "transactionIndex": "0x54",
          "logIndex": "0x137",
          "removed": false
        }
      ],
      "logsBloom": "0x00000000000000000000000000000000000000000000000000000000000000000000000000000000000000000000000000000000000000004400000000000000000000000000000000000008000000000000000000000000000000000000000000000000020000000000000000000800020000000000000000000010000000000000000000000000000000000000000000000000000000000000010000000000000000000000000000000000000000004000000000400000000040000000000000000002000000800000000000000000000000000000080000000000000020000000000000000000000000000000000000000000000000000000000000000000",
      "type": "0x2",
      "transactionHash": "0xe26caf9c93fd970c7641e262b622a74789f2e4d7ce8d5a31489bae6d82d6aca8",
      "transactionIndex": "0x54",
      "blockHash": "0x02c36f51784cdad27e8394b88dd9141ff0ddbb17ffb1dcea9418c6487fe4f5af",
      "blockNumber": "0x737e4f",
      "gasUsed": "0xf7fb",
      "effectiveGasPrice": "0x1fe9ffc3d",
      "from": "0xc77f7fed3b5cc8249adc428c5f44c9063b9734b4",
      "to": "0x00972455a43df7d89f165c5b82f30c20247bb610",
      "contractAddress": null
    }
  ],
  "libraries": [],
  "pending": [],
  "returns": {},
  "timestamp": 1737822566,
  "chain": 11155111,
  "commit": "f5162e9"
}