{
  "transactions": [
    {
      "hash": "0x84e820bf88e199c203804639a61dad88317e3007f66e633f6367b7e084915d98",
      "transactionType": "CALL",
      "contractName": null,
      "contractAddress": "0x5eb9cc76c3506942c1c0ead70e877dd5e4f00cb0",
      "function": "buy(address)",
      "arguments": [
        "0xC77f7fed3b5Cc8249aDc428c5F44C9063B9734b4"
      ],
      "transaction": {
        "from": "0xc77f7fed3b5cc8249adc428c5f44c9063b9734b4",
        "to": "0x5eb9cc76c3506942c1c0ead70e877dd5e4f00cb0",
        "gas": "0x1b30c",
        "value": "0xde0b6b3a7640000",
        "input": "0xf088d547000000000000000000000000c77f7fed3b5cc8249adc428c5f44c9063b9734b4",
        "nonce": "0x2e0",
        "chainId": "0xaa36a7"
      },
      "additionalContracts": [],
      "isFixedGasLimit": false
    }
  ],
  "receipts": [
    {
      "status": "0x1",
      "cumulativeGasUsed": "0xd33c53",
      "logs": [
        {
          "address": "0x5eb9cc76c3506942c1c0ead70e877dd5e4f00cb0",
          "topics": [
            "0xddf252ad1be2c89b69c2b068fc378daa952ba7f163c4a11628f55a4df523b3ef",
            "0x0000000000000000000000000000000000000000000000000000000000000000",
            "0x000000000000000000000000c77f7fed3b5cc8249adc428c5f44c9063b9734b4"
          ],
          "data": "0x00000000000000000000000000000000000000000000003575a4c841ab65ec2e",
          "blockHash": "0x5b6cd9328aeb95b3bf282777e5680361c882aa108b87630d9db3bd7289fd6a4b",
          "blockNumber": "0x724ebd",
          "transactionHash": "0x84e820bf88e199c203804639a61dad88317e3007f66e633f6367b7e084915d98",
          "transactionIndex": "0x4e",
          "logIndex": "0x8e",
          "removed": false
        },
        {
          "address": "0x5eb9cc76c3506942c1c0ead70e877dd5e4f00cb0",
          "topics": [
            "0xddf252ad1be2c89b69c2b068fc378daa952ba7f163c4a11628f55a4df523b3ef",
            "0x0000000000000000000000000000000000000000000000000000000000000000",
            "0x000000000000000000000000c77f7fed3b5cc8249adc428c5f44c9063b9734b4"
          ],
          "data": "0x00000000000000000000000000000000000000000000000029835e7f8906def1",
          "blockHash": "0x5b6cd9328aeb95b3bf282777e5680361c882aa108b87630d9db3bd7289fd6a4b",
          "blockNumber": "0x724ebd",
          "transactionHash": "0x84e820bf88e199c203804639a61dad88317e3007f66e633f6367b7e084915d98",
          "transactionIndex": "0x4e",
          "logIndex": "0x8f",
          "removed": false
        },
        {
          "address": "0x5eb9cc76c3506942c1c0ead70e877dd5e4f00cb0",
          "topics": [
            "0x4afcb4a87cdbd9974efdb92ee48bc8d7cd0ae4bf217004db3d080cbaee652ca7"
          ],
          "data": "0x000000000000000000000000000000000000000000000000000000006786a2900000000000000000000000000000000000000000000000000003910a9409cd970000000000000000000000000000000000000000000000000de0b6b3a7640000",
          "blockHash": "0x5b6cd9328aeb95b3bf282777e5680361c882aa108b87630d9db3bd7289fd6a4b",
          "blockNumber": "0x724ebd",
          "transactionHash": "0x84e820bf88e199c203804639a61dad88317e3007f66e633f6367b7e084915d98",
          "transactionIndex": "0x4e",
          "logIndex": "0x90",
          "removed": false
        }
      ],
      "logsBloom": "0x00000000000000000000000000000000000000000000000000000000000000000000000000000000000000000000000000000000000000004000000000000000000000000000000000000008000000000000000000000000000000000000000000000000020000000000000004000800020000000000000000000010000000000000000000000000000000000000000000000000000000000000010000000000000000000000000000000000000000004000000000000000000000000000020000000002000000800000008000000000000000000000080000000000000020000000000000000000000000000000000000000000000000000000000000000000",
      "type": "0x2",
      "transactionHash": "0x84e820bf88e199c203804639a61dad88317e3007f66e633f6367b7e084915d98",
      "transactionIndex": "0x4e",
      "blockHash": "0x5b6cd9328aeb95b3bf282777e5680361c882aa108b87630d9db3bd7289fd6a4b",
      "blockNumber": "0x724ebd",
      "gasUsed": "0x13af8",
      "effectiveGasPrice": "0x496c37034",
      "from": "0xc77f7fed3b5cc8249adc428c5f44c9063b9734b4",
      "to": "0x5eb9cc76c3506942c1c0ead70e877dd5e4f00cb0",
      "contractAddress": null
    }
  ],
  "libraries": [],
  "pending": [],
  "returns": {},
  "timestamp": 1736876688,
  "chain": 11155111,
  "commit": "51a374b"
}