{
  "transactions": [
    {
      "hash": "0x6a3b454e9ccda843b49074aab35e9e779f0be46941a1b89209e7ba506995a5ef",
      "transactionType": "CALL",
      "contractName": null,
      "contractAddress": "0x8aafd3ede9adb0ff97c7aebce82a919afb1c8764",
      "function": "buy(address)",
      "arguments": [
        "0xC77f7fed3b5Cc8249aDc428c5F44C9063B9734b4"
      ],
      "transaction": {
        "from": "0xc77f7fed3b5cc8249adc428c5f44c9063b9734b4",
        "to": "0x8aafd3ede9adb0ff97c7aebce82a919afb1c8764",
        "gas": "0x156ea",
        "value": "0xde0b6b3a7640000",
        "input": "0xf088d547000000000000000000000000c77f7fed3b5cc8249adc428c5f44c9063b9734b4",
        "nonce": "0x1112",
        "chainId": "0xaa36a7"
      },
      "additionalContracts": [],
      "isFixedGasLimit": false
    }
  ],
  "receipts": [
    {
      "status": "0x1",
      "cumulativeGasUsed": "0xc6c636",
      "logs": [
        {
          "address": "0x8aafd3ede9adb0ff97c7aebce82a919afb1c8764",
          "topics": [
            "0xddf252ad1be2c89b69c2b068fc378daa952ba7f163c4a11628f55a4df523b3ef",
            "0x0000000000000000000000000000000000000000000000000000000000000000",
            "0x000000000000000000000000c77f7fed3b5cc8249adc428c5f44c9063b9734b4"
          ],
          "data": "0x000000000000000000000000000000000000000000000025bb6f5128bfe284df",
          "blockHash": "0xf83c953cabfdb437161b93e9dfa4f66aa9da36b58a969708aca05ea645ecfc69",
          "blockNumber": "0x7317c4",
          "transactionHash": "0x6a3b454e9ccda843b49074aab35e9e779f0be46941a1b89209e7ba506995a5ef",
          "transactionIndex": "0x9b",
          "logIndex": "0x9b",
          "removed": false
        },
        {
          "address": "0x8aafd3ede9adb0ff97c7aebce82a919afb1c8764",
          "topics": [
            "0xddf252ad1be2c89b69c2b068fc378daa952ba7f163c4a11628f55a4df523b3ef",
            "0x0000000000000000000000000000000000000000000000000000000000000000",
            "0x000000000000000000000000c77f7fed3b5cc8249adc428c5f44c9063b9734b4"
          ],
          "data": "0x0000000000000000000000000000000000000000000000001d4ce170ea49aa70",
          "blockHash": "0xf83c953cabfdb437161b93e9dfa4f66aa9da36b58a969708aca05ea645ecfc69",
          "blockNumber": "0x7317c4",
          "transactionHash": "0x6a3b454e9ccda843b49074aab35e9e779f0be46941a1b89209e7ba506995a5ef",
          "transactionIndex": "0x9b",
          "logIndex": "0x9c",
          "removed": false
        },
        {
          "address": "0x8aafd3ede9adb0ff97c7aebce82a919afb1c8764",
          "topics": [
            "0x4afcb4a87cdbd9974efdb92ee48bc8d7cd0ae4bf217004db3d080cbaee652ca7"
          ],
          "data": "0x00000000000000000000000000000000000000000000000000000000679019f400000000000000000000000000000000000000000000000000050e056b89f7b90000000000000000000000000000000000000000000000000de0b6b3a7640000",
          "blockHash": "0xf83c953cabfdb437161b93e9dfa4f66aa9da36b58a969708aca05ea645ecfc69",
          "blockNumber": "0x7317c4",
          "transactionHash": "0x6a3b454e9ccda843b49074aab35e9e779f0be46941a1b89209e7ba506995a5ef",
          "transactionIndex": "0x9b",
          "logIndex": "0x9d",
          "removed": false
        }
      ],
      "logsBloom": "0x00000000000000000000000000000000000000000600000000000000000000000000000000000000000000000000000000000000000000004000000000000000000000000000004000000008000000000000000000000000000000000000000000000000020000000000000000000800020000000000000000000010000000000000000000000000000000000000000000000000000000000000010000000000000000000000000000000000000000004000000000000000000000000000000000000002000000800000000000000000000000000000080000000000000020000000000000000000000000000000000000000000000000000000000000000000",
      "type": "0x2",
      "transactionHash": "0x6a3b454e9ccda843b49074aab35e9e779f0be46941a1b89209e7ba506995a5ef",
      "transactionIndex": "0x9b",
      "blockHash": "0xf83c953cabfdb437161b93e9dfa4f66aa9da36b58a969708aca05ea645ecfc69",
      "blockNumber": "0x7317c4",
      "gasUsed": "0xf844",
      "effectiveGasPrice": "0x545dd8c1",
      "from": "0xc77f7fed3b5cc8249adc428c5f44c9063b9734b4",
      "to": "0x8aafd3ede9adb0ff97c7aebce82a919afb1c8764",
      "contractAddress": null
    }
  ],
  "libraries": [],
  "pending": [],
  "returns": {},
  "timestamp": 1737497078,
  "chain": 11155111,
  "commit": "1d2fb70"
}