{
  "transactions": [
    {
      "hash": "0xc6fa16ab2243dbf877b253bacc4bf77d76631bcc19480b650778db8d5abc11dd",
      "transactionType": "CALL",
      "contractName": null,
      "contractAddress": "0x5eb9cc76c3506942c1c0ead70e877dd5e4f00cb0",
      "function": "sell(uint256)",
      "arguments": [
        "989619105870780535008"
      ],
      "transaction": {
        "from": "0xc77f7fed3b5cc8249adc428c5f44c9063b9734b4",
        "to": "0x5eb9cc76c3506942c1c0ead70e877dd5e4f00cb0",
        "gas": "0x16fec",
        "value": "0x0",
        "input": "0xe4849b32000000000000000000000000000000000000000000000035a5b955900f8f90e0",
        "nonce": "0x235",
        "chainId": "0xaa36a7"
      },
      "additionalContracts": [],
      "isFixedGasLimit": false
    }
  ],
  "receipts": [
    {
      "status": "0x1",
      "cumulativeGasUsed": "0xabd042",
      "logs": [
        {
          "address": "0x5eb9cc76c3506942c1c0ead70e877dd5e4f00cb0",
          "topics": [
            "0xddf252ad1be2c89b69c2b068fc378daa952ba7f163c4a11628f55a4df523b3ef",
            "0x000000000000000000000000c77f7fed3b5cc8249adc428c5f44c9063b9734b4",
            "0x0000000000000000000000000000000000000000000000000000000000000000"
          ],
          "data": "0x000000000000000000000000000000000000000000000035a5b955900f8f90e0",
          "blockHash": "0x9f8bad64db2ce9585a49351013bba69950f1ea80b59d15b927d00f6dcce09d46",
          "blockNumber": "0x724de9",
          "transactionHash": "0xc6fa16ab2243dbf877b253bacc4bf77d76631bcc19480b650778db8d5abc11dd",
          "transactionIndex": "0x60",
          "logIndex": "0xb4",
          "removed": false
        },
        {
          "address": "0x5eb9cc76c3506942c1c0ead70e877dd5e4f00cb0",
          "topics": [
            "0x4afcb4a87cdbd9974efdb92ee48bc8d7cd0ae4bf217004db3d080cbaee652ca7"
          ],
          "data": "0x00000000000000000000000000000000000000000000000000000000678698a00000000000000000000000000000000000000000000000000003909ada932cbc0000000000000000000000000000000000000000000000000dc7db118381a5a3",
          "blockHash": "0x9f8bad64db2ce9585a49351013bba69950f1ea80b59d15b927d00f6dcce09d46",
          "blockNumber": "0x724de9",
          "transactionHash": "0xc6fa16ab2243dbf877b253bacc4bf77d76631bcc19480b650778db8d5abc11dd",
          "transactionIndex": "0x60",
          "logIndex": "0xb5",
          "removed": false
        }
      ],
      "logsBloom": "0x00000000000000000000000000000000000000000000000000000000000000000000000000000000000000000000000000000000000000004000000000000000000000000000000000000008000000000000000000000000000000000000000000000000020000000000000004000800020000000000000000000010000000000000000000000000000000000000000000000000000000000000010000000000000000000000000000000000000000004000000000000000000000000000020000000002000000800000008000000000000000000000080000000000000020000000000000000000000000000000000000000000000000000000000000000000",
      "type": "0x2",
      "transactionHash": "0xc6fa16ab2243dbf877b253bacc4bf77d76631bcc19480b650778db8d5abc11dd",
      "transactionIndex": "0x60",
      "blockHash": "0x9f8bad64db2ce9585a49351013bba69950f1ea80b59d15b927d00f6dcce09d46",
      "blockNumber": "0x724de9",
      "gasUsed": "0xfb93",
      "effectiveGasPrice": "0x44140f92f",
      "from": "0xc77f7fed3b5cc8249adc428c5f44c9063b9734b4",
      "to": "0x5eb9cc76c3506942c1c0ead70e877dd5e4f00cb0",
      "contractAddress": null
    }
  ],
  "libraries": [],
  "pending": [],
  "returns": {},
  "timestamp": 1736874146,
  "chain": 11155111,
  "commit": "51a374b"
}