{
  "transactions": [
    {
      "hash": "0x80aa6fb3ddf20f3553181c605f0ef8e0ae0ce6f7494941a6437c20e0be0bd27f",
      "transactionType": "CALL",
      "contractName": null,
      "contractAddress": "0xbf4a322f1496e5c3d34a9bcdb4c60567b38c7de2",
      "function": "sell(uint256)",
      "arguments": [
        "989310932127529967467"
      ],
      "transaction": {
        "from": "0xc77f7fed3b5cc8249adc428c5f44c9063b9734b4",
        "to": "0xbf4a322f1496e5c3d34a9bcdb4c60567b38c7de2",
        "gas": "0x16fea",
        "value": "0x0",
        "input": "0xe4849b32000000000000000000000000000000000000000000000035a1727b2d10021f6b",
        "nonce": "0x969",
        "chainId": "0xaa36a7"
      },
      "additionalContracts": [],
      "isFixedGasLimit": false
    }
  ],
  "receipts": [
    {
      "status": "0x1",
      "cumulativeGasUsed": "0x13fefdf",
      "logs": [
        {
          "address": "0xbf4a322f1496e5c3d34a9bcdb4c60567b38c7de2",
          "topics": [
            "0xddf252ad1be2c89b69c2b068fc378daa952ba7f163c4a11628f55a4df523b3ef",
            "0x000000000000000000000000c77f7fed3b5cc8249adc428c5f44c9063b9734b4",
            "0x0000000000000000000000000000000000000000000000000000000000000000"
          ],
          "data": "0x000000000000000000000000000000000000000000000035a1727b2d10021f6b",
          "blockHash": "0x53518861afc083f46cf5ab3ce2d5cb56b524760a032c1f79a934309911459369",
          "blockNumber": "0x725900",
          "transactionHash": "0x80aa6fb3ddf20f3553181c605f0ef8e0ae0ce6f7494941a6437c20e0be0bd27f",
          "transactionIndex": "0x7b",
          "logIndex": "0xc0",
          "removed": false
        },
        {
          "address": "0xbf4a322f1496e5c3d34a9bcdb4c60567b38c7de2",
          "topics": [
            "0x4afcb4a87cdbd9974efdb92ee48bc8d7cd0ae4bf217004db3d080cbaee652ca7"
          ],
          "data": "0x0000000000000000000000000000000000000000000000000000000067871e2c000000000000000000000000000000000000000000000000000390ea05f23c0b0000000000000000000000000000000000000000000000000dc7e3f7b6d8c0e1",
          "blockHash": "0x53518861afc083f46cf5ab3ce2d5cb56b524760a032c1f79a934309911459369",
          "blockNumber": "0x725900",
          "transactionHash": "0x80aa6fb3ddf20f3553181c605f0ef8e0ae0ce6f7494941a6437c20e0be0bd27f",
          "transactionIndex": "0x7b",
          "logIndex": "0xc1",
          "removed": false
        }
      ],
      "logsBloom": "0x00000000000000000000000000000000000000000000000000000000000000000000000000000000000000000000000000000000000000004000000000000000000000000000000000000008000000000000001000000000000000000000000000000000020000000000000000000800020000000000000000000010000000000000000000000000000000000000000000000000000008000000010000000000000000000000000000000000000000004000000000000000000000000000000000000002000000800000000000001000000000000000080000000000000020000000000000000000000000000000000000000000000000000000000000000000",
      "type": "0x2",
      "transactionHash": "0x80aa6fb3ddf20f3553181c605f0ef8e0ae0ce6f7494941a6437c20e0be0bd27f",
      "transactionIndex": "0x7b",
      "blockHash": "0x53518861afc083f46cf5ab3ce2d5cb56b524760a032c1f79a934309911459369",
      "blockNumber": "0x725900",
      "gasUsed": "0xfb91",
      "effectiveGasPrice": "0xa096073c",
      "from": "0xc77f7fed3b5cc8249adc428c5f44c9063b9734b4",
      "to": "0xbf4a322f1496e5c3d34a9bcdb4c60567b38c7de2",
      "contractAddress": null
    }
  ],
  "libraries": [],
  "pending": [],
  "returns": {},
  "timestamp": 1736908334,
  "chain": 11155111,
  "commit": "51a374b"
}