{
  "transactions": [
    {
      "hash": "0xbcf01b44b6de40e9f4920c5d3299a7c45b9f16759b8d84b55a5ed5e066ddf19b",
      "transactionType": "CALL",
      "contractName": null,
      "contractAddress": "0x5eb9cc76c3506942c1c0ead70e877dd5e4f00cb0",
      "function": "buy(address)",
      "arguments": [
        "0xC77f7fed3b5Cc8249aDc428c5F44C9063B9734b4"
      ],
      "transaction": {
        "from": "0xc77f7fed3b5cc8249adc428c5f44c9063b9734b4",
        "to": "0x5eb9cc76c3506942c1c0ead70e877dd5e4f00cb0",
        "gas": "0x156c8",
        "value": "0xde0b6b3a7640000",
        "input": "0xf088d547000000000000000000000000c77f7fed3b5cc8249adc428c5f44c9063b9734b4",
        "nonce": "0x13a",
        "chainId": "0xaa36a7"
      },
      "additionalContracts": [],
      "isFixedGasLimit": false
    }
  ],
  "receipts": [
    {
      "status": "0x1",
      "cumulativeGasUsed": "0x361001",
      "logs": [
        {
          "address": "0x5eb9cc76c3506942c1c0ead70e877dd5e4f00cb0",
          "topics": [
            "0xddf252ad1be2c89b69c2b068fc378daa952ba7f163c4a11628f55a4df523b3ef",
            "0x0000000000000000000000000000000000000000000000000000000000000000",
            "0x000000000000000000000000c77f7fed3b5cc8249adc428c5f44c9063b9734b4"
          ],
          "data": "0x000000000000000000000000000000000000000000000035aafb21ae2d7b155f",
          "blockHash": "0x78fee7dd26722d3d324d80659b3ebc3041cda41416ec8d665acf25691a39d0d9",
          "blockNumber": "0x723b21",
          "transactionHash": "0xbcf01b44b6de40e9f4920c5d3299a7c45b9f16759b8d84b55a5ed5e066ddf19b",
          "transactionIndex": "0x1e",
          "logIndex": "0x30",
          "removed": false
        },
        {
          "address": "0x5eb9cc76c3506942c1c0ead70e877dd5e4f00cb0",
          "topics": [
            "0xddf252ad1be2c89b69c2b068fc378daa952ba7f163c4a11628f55a4df523b3ef",
            "0x0000000000000000000000000000000000000000000000000000000000000000",
            "0x000000000000000000000000c77f7fed3b5cc8249adc428c5f44c9063b9734b4"
          ],
          "data": "0x00000000000000000000000000000000000000000000000029acc990f0bd41ec",
          "blockHash": "0x78fee7dd26722d3d324d80659b3ebc3041cda41416ec8d665acf25691a39d0d9",
          "blockNumber": "0x723b21",
          "transactionHash": "0xbcf01b44b6de40e9f4920c5d3299a7c45b9f16759b8d84b55a5ed5e066ddf19b",
          "transactionIndex": "0x1e",
          "logIndex": "0x31",
          "removed": false
        },
        {
          "address": "0x5eb9cc76c3506942c1c0ead70e877dd5e4f00cb0",
          "topics": [
            "0x4afcb4a87cdbd9974efdb92ee48bc8d7cd0ae4bf217004db3d080cbaee652ca7"
          ],
          "data": "0x000000000000000000000000000000000000000000000000000000006785b6e000000000000000000000000000000000000000000000000000038d7f294e8f410000000000000000000000000000000000000000000000000de0b6b3a7640000",
          "blockHash": "0x78fee7dd26722d3d324d80659b3ebc3041cda41416ec8d665acf25691a39d0d9",
          "blockNumber": "0x723b21",
          "transactionHash": "0xbcf01b44b6de40e9f4920c5d3299a7c45b9f16759b8d84b55a5ed5e066ddf19b",
          "transactionIndex": "0x1e",
          "logIndex": "0x32",
          "removed": false
        }
      ],
      "logsBloom": "0x00000000000000000000000000000000000000000000000000000000000000000000000000000000000000000000000000000000000000004000000000000000000000000000000000000008000000000000000000000000000000000000000000000000020000000000000004000800020000000000000000000010000000000000000000000000000000000000000000000000000000000000010000000000000000000000000000000000000000004000000000000000000000000000020000000002000000800000008000000000000000000000080000000000000020000000000000000000000000000000000000000000000000000000000000000000",
      "type": "0x2",
      "transactionHash": "0xbcf01b44b6de40e9f4920c5d3299a7c45b9f16759b8d84b55a5ed5e066ddf19b",
      "transactionIndex": "0x1e",
      "blockHash": "0x78fee7dd26722d3d324d80659b3ebc3041cda41416ec8d665acf25691a39d0d9",
      "blockNumber": "0x723b21",
      "gasUsed": "0xf82c",
      "effectiveGasPrice": "0x4b8cf269a",
      "from": "0xc77f7fed3b5cc8249adc428c5f44c9063b9734b4",
      "to": "0x5eb9cc76c3506942c1c0ead70e877dd5e4f00cb0",
      "contractAddress": null
    }
  ],
  "libraries": [],
  "pending": [],
  "returns": {},
  "timestamp": 1736816353,
  "chain": 11155111,
  "commit": "51a374b"
}