{
  "transactions": [
    {
      "hash": "0x66afb08fb49bfd6ab24cd92042138d6200a275e02e813b59d8ea6dd5ed40ec78",
      "transactionType": "CALL",
      "contractName": null,
      "contractAddress": "0xbf4a322f1496e5c3d34a9bcdb4c60567b38c7de2",
      "function": "buy(address)",
      "arguments": [
        "0xC77f7fed3b5Cc8249aDc428c5F44C9063B9734b4"
      ],
      "transaction": {
        "from": "0xc77f7fed3b5cc8249adc428c5f44c9063b9734b4",
        "to": "0xbf4a322f1496e5c3d34a9bcdb4c60567b38c7de2",
        "gas": "0x1b309",
        "value": "0xde0b6b3a7640000",
        "input": "0xf088d547000000000000000000000000c77f7fed3b5cc8249adc428c5f44c9063b9734b4",
        "nonce": "0xc76",
        "chainId": "0xaa36a7"
      },
      "additionalContracts": [],
      "isFixedGasLimit": false
    }
  ],
  "receipts": [
    {
      "status": "0x1",
      "cumulativeGasUsed": "0x7ec11c",
      "logs": [
        {
          "address": "0xbf4a322f1496e5c3d34a9bcdb4c60567b38c7de2",
          "topics": [
            "0xddf252ad1be2c89b69c2b068fc378daa952ba7f163c4a11628f55a4df523b3ef",
            "0x0000000000000000000000000000000000000000000000000000000000000000",
            "0x000000000000000000000000c77f7fed3b5cc8249adc428c5f44c9063b9734b4"
          ],
          "data": "0x000000000000000000000000000000000000000000000034e577c4647ef77099",
          "blockHash": "0x99879386c2739a612f0234d00738f06a47f6ac4a59e362a719965da0ae87ee88",
          "blockNumber": "0x725cb5",
          "transactionHash": "0x66afb08fb49bfd6ab24cd92042138d6200a275e02e813b59d8ea6dd5ed40ec78",
          "transactionIndex": "0x3c",
          "logIndex": "0x4b",
          "removed": false
        },
        {
          "address": "0xbf4a322f1496e5c3d34a9bcdb4c60567b38c7de2",
          "topics": [
            "0xddf252ad1be2c89b69c2b068fc378daa952ba7f163c4a11628f55a4df523b3ef",
            "0x0000000000000000000000000000000000000000000000000000000000000000",
            "0x000000000000000000000000c77f7fed3b5cc8249adc428c5f44c9063b9734b4"
          ],
          "data": "0x0000000000000000000000000000000000000000000000002913696395b078f3",
          "blockHash": "0x99879386c2739a612f0234d00738f06a47f6ac4a59e362a719965da0ae87ee88",
          "blockNumber": "0x725cb5",
          "transactionHash": "0x66afb08fb49bfd6ab24cd92042138d6200a275e02e813b59d8ea6dd5ed40ec78",
          "transactionIndex": "0x3c",
          "logIndex": "0x4c",
          "removed": false
        },
        {
          "address": "0xbf4a322f1496e5c3d34a9bcdb4c60567b38c7de2",
          "topics": [
            "0x4afcb4a87cdbd9974efdb92ee48bc8d7cd0ae4bf217004db3d080cbaee652ca7"
          ],
          "data": "0x0000000000000000000000000000000000000000000000000000000067874af000000000000000000000000000000000000000000000000000039ac57daa0ce00000000000000000000000000000000000000000000000000de0b6b3a7640000",
          "blockHash": "0x99879386c2739a612f0234d00738f06a47f6ac4a59e362a719965da0ae87ee88",
          "blockNumber": "0x725cb5",
          "transactionHash": "0x66afb08fb49bfd6ab24cd92042138d6200a275e02e813b59d8ea6dd5ed40ec78",
          "transactionIndex": "0x3c",
          "logIndex": "0x4d",
          "removed": false
        }
      ],
      "logsBloom": "0x00000000000000000000000000000000000000000000000000000000000000000000000000000000000000000000000000000000000000004000000000000000000000000000000000000008000000000000001000000000000000000000000000000000020000000000000000000800020000000000000000000010000000000000000000000000000000000000000000000000000008000000010000000000000000000000000000000000000000004000000000000000000000000000000000000002000000800000000000001000000000000000080000000000000020000000000000000000000000000000000000000000000000000000000000000000",
      "type": "0x2",
      "transactionHash": "0x66afb08fb49bfd6ab24cd92042138d6200a275e02e813b59d8ea6dd5ed40ec78",
      "transactionIndex": "0x3c",
      "blockHash": "0x99879386c2739a612f0234d00738f06a47f6ac4a59e362a719965da0ae87ee88",
      "blockNumber": "0x725cb5",
      "gasUsed": "0x13af6",
      "effectiveGasPrice": "0x262a2fb8e",
      "from": "0xc77f7fed3b5cc8249adc428c5f44c9063b9734b4",
      "to": "0xbf4a322f1496e5c3d34a9bcdb4c60567b38c7de2",
      "contractAddress": null
    }
  ],
  "libraries": [],
  "pending": [],
  "returns": {},
  "timestamp": 1736919794,
  "chain": 11155111,
  "commit": "51a374b"
}