{
  "transactions": [
    {
      "hash": "0x97f085038645ab9b5cf850bc97fdc1be57799ce3891a08cbebc43238d10528d9",
      "transactionType": "CALL",
      "contractName": null,
      "contractAddress": "0x8aafd3ede9adb0ff97c7aebce82a919afb1c8764",
      "function": "buy(address)",
      "arguments": [
        "0xC77f7fed3b5Cc8249aDc428c5F44C9063B9734b4"
      ],
      "transaction": {
        "from": "0xc77f7fed3b5cc8249adc428c5f44c9063b9734b4",
        "to": "0x8aafd3ede9adb0ff97c7aebce82a919afb1c8764",
        "gas": "0x156ea",
        "value": "0xde0b6b3a7640000",
        "input": "0xf088d547000000000000000000000000c77f7fed3b5cc8249adc428c5f44c9063b9734b4",
        "nonce": "0x16ed",
        "chainId": "0xaa36a7"
      },
      "additionalContracts": [],
      "isFixedGasLimit": false
    }
  ],
  "receipts": [
    {
      "status": "0x1",
      "cumulativeGasUsed": "0x755fa7",
      "logs": [
        {
          "address": "0x8aafd3ede9adb0ff97c7aebce82a919afb1c8764",
          "topics": [
            "0xddf252ad1be2c89b69c2b068fc378daa952ba7f163c4a11628f55a4df523b3ef",
            "0x0000000000000000000000000000000000000000000000000000000000000000",
            "0x000000000000000000000000c77f7fed3b5cc8249adc428c5f44c9063b9734b4"
          ],
          "data": "0x0000000000000000000000000000000000000000000000086207145d923c9797",
          "blockHash": "0x783e90379657221ab3ac301edb56fe92624300f848ea2e3e38c16c12fa05491f",
          "blockNumber": "0x731eac",
          "transactionHash": "0x97f085038645ab9b5cf850bc97fdc1be57799ce3891a08cbebc43238d10528d9",
          "transactionIndex": "0x4a",
          "logIndex": "0x96",
          "removed": false
        },
        {
          "address": "0x8aafd3ede9adb0ff97c7aebce82a919afb1c8764",
          "topics": [
            "0xddf252ad1be2c89b69c2b068fc378daa952ba7f163c4a11628f55a4df523b3ef",
            "0x0000000000000000000000000000000000000000000000000000000000000000",
            "0x000000000000000000000000c77f7fed3b5cc8249adc428c5f44c9063b9734b4"
          ],
          "data": "0x000000000000000000000000000000000000000000000000068276b35e3dbb5d",
          "blockHash": "0x783e90379657221ab3ac301edb56fe92624300f848ea2e3e38c16c12fa05491f",
          "blockNumber": "0x731eac",
          "transactionHash": "0x97f085038645ab9b5cf850bc97fdc1be57799ce3891a08cbebc43238d10528d9",
          "transactionIndex": "0x4a",
          "logIndex": "0x97",
          "removed": false
        },
        {
          "address": "0x8aafd3ede9adb0ff97c7aebce82a919afb1c8764",
          "topics": [
            "0x4afcb4a87cdbd9974efdb92ee48bc8d7cd0ae4bf217004db3d080cbaee652ca7"
          ],
          "data": "0x0000000000000000000000000000000000000000000000000000000067906cf80000000000000000000000000000000000000000000000000016c5831173cb8c0000000000000000000000000000000000000000000000000de0b6b3a7640000",
          "blockHash": "0x783e90379657221ab3ac301edb56fe92624300f848ea2e3e38c16c12fa05491f",
          "blockNumber": "0x731eac",
          "transactionHash": "0x97f085038645ab9b5cf850bc97fdc1be57799ce3891a08cbebc43238d10528d9",
          "transactionIndex": "0x4a",
          "logIndex": "0x98",
          "removed": false
        }
      ],
      "logsBloom": "0x00000000000000000000000000000000000000000600000000000000000000000000000000000000000000000000000000000000000000004000000000000000000000000000004000000008000000000000000000000000000000000000000000000000020000000000000000000800020000000000000000000010000000000000000000000000000000000000000000000000000000000000010000000000000000000000000000000000000000004000000000000000000000000000000000000002000000800000000000000000000000000000080000000000000020000000000000000000000000000000000000000000000000000000000000000000",
      "type": "0x2",
      "transactionHash": "0x97f085038645ab9b5cf850bc97fdc1be57799ce3891a08cbebc43238d10528d9",
      "transactionIndex": "0x4a",
      "blockHash": "0x783e90379657221ab3ac301edb56fe92624300f848ea2e3e38c16c12fa05491f",
      "blockNumber": "0x731eac",
      "gasUsed": "0xf844",
      "effectiveGasPrice": "0x49b24837",
      "from": "0xc77f7fed3b5cc8249adc428c5f44c9063b9734b4",
      "to": "0x8aafd3ede9adb0ff97c7aebce82a919afb1c8764",
      "contractAddress": null
    }
  ],
  "libraries": [],
  "pending": [],
  "returns": {},
  "timestamp": 1737518329,
  "chain": 11155111,
  "commit": "1d2fb70"
}