{
  "transactions": [
    {
      "hash": "0xd0678926b35336058788b6127bca7bb4117539840f547e76dfffa1ae7865c5c5",
      "transactionType": "CALL",
      "contractName": null,
      "contractAddress": "0x5eb9cc76c3506942c1c0ead70e877dd5e4f00cb0",
      "function": "buy(address)",
      "arguments": [
        "0xC77f7fed3b5Cc8249aDc428c5F44C9063B9734b4"
      ],
      "transaction": {
        "from": "0xc77f7fed3b5cc8249adc428c5f44c9063b9734b4",
        "to": "0x5eb9cc76c3506942c1c0ead70e877dd5e4f00cb0",
        "gas": "0x156c8",
        "value": "0xde0b6b3a7640000",
        "input": "0xf088d547000000000000000000000000c77f7fed3b5cc8249adc428c5f44c9063b9734b4",
        "nonce": "0x1b6",
        "chainId": "0xaa36a7"
      },
      "additionalContracts": [],
      "isFixedGasLimit": false
    }
  ],
  "receipts": [
    {
      "status": "0x1",
      "cumulativeGasUsed": "0xcb4633",
      "logs": [
        {
          "address": "0x5eb9cc76c3506942c1c0ead70e877dd5e4f00cb0",
          "topics": [
            "0xddf252ad1be2c89b69c2b068fc378daa952ba7f163c4a11628f55a4df523b3ef",
            "0x0000000000000000000000000000000000000000000000000000000000000000",
            "0x000000000000000000000000c77f7fed3b5cc8249adc428c5f44c9063b9734b4"
          ],
          "data": "0x000000000000000000000000000000000000000000000035a37022f0455a61d9",
          "blockHash": "0xcd6d0a40b38f4bd80a5fd6bf3fe91c47935fbdbe13195db3b8570030dde4310a",
          "blockNumber": "0x723ca1",
          "transactionHash": "0xd0678926b35336058788b6127bca7bb4117539840f547e76dfffa1ae7865c5c5",
          "transactionIndex": "0x67",
          "logIndex": "0xa2",
          "removed": false
        },
        {
          "address": "0x5eb9cc76c3506942c1c0ead70e877dd5e4f00cb0",
          "topics": [
            "0xddf252ad1be2c89b69c2b068fc378daa952ba7f163c4a11628f55a4df523b3ef",
            "0x0000000000000000000000000000000000000000000000000000000000000000",
            "0x000000000000000000000000c77f7fed3b5cc8249adc428c5f44c9063b9734b4"
          ],
          "data": "0x00000000000000000000000000000000000000000000000029a6ee1526d3d14d",
          "blockHash": "0xcd6d0a40b38f4bd80a5fd6bf3fe91c47935fbdbe13195db3b8570030dde4310a",
          "blockNumber": "0x723ca1",
          "transactionHash": "0xd0678926b35336058788b6127bca7bb4117539840f547e76dfffa1ae7865c5c5",
          "transactionIndex": "0x67",
          "logIndex": "0xa3",
          "removed": false
        },
        {
          "address": "0x5eb9cc76c3506942c1c0ead70e877dd5e4f00cb0",
          "topics": [
            "0x4afcb4a87cdbd9974efdb92ee48bc8d7cd0ae4bf217004db3d080cbaee652ca7"
          ],
          "data": "0x000000000000000000000000000000000000000000000000000000006785c8e000000000000000000000000000000000000000000000000000038dff0f60d3ec0000000000000000000000000000000000000000000000000de0b6b3a7640000",
          "blockHash": "0xcd6d0a40b38f4bd80a5fd6bf3fe91c47935fbdbe13195db3b8570030dde4310a",
          "blockNumber": "0x723ca1",
          "transactionHash": "0xd0678926b35336058788b6127bca7bb4117539840f547e76dfffa1ae7865c5c5",
          "transactionIndex": "0x67",
          "logIndex": "0xa4",
          "removed": false
        }
      ],
      "logsBloom": "0x00000000000000000000000000000000000000000000000000000000000000000000000000000000000000000000000000000000000000004000000000000000000000000000000000000008000000000000000000000000000000000000000000000000020000000000000004000800020000000000000000000010000000000000000000000000000000000000000000000000000000000000010000000000000000000000000000000000000000004000000000000000000000000000020000000002000000800000008000000000000000000000080000000000000020000000000000000000000000000000000000000000000000000000000000000000",
      "type": "0x2",
      "transactionHash": "0xd0678926b35336058788b6127bca7bb4117539840f547e76dfffa1ae7865c5c5",
      "transactionIndex": "0x67",
      "blockHash": "0xcd6d0a40b38f4bd80a5fd6bf3fe91c47935fbdbe13195db3b8570030dde4310a",
      "blockNumber": "0x723ca1",
      "gasUsed": "0xf82c",
      "effectiveGasPrice": "0x1df0ce7f2",
      "from": "0xc77f7fed3b5cc8249adc428c5f44c9063b9734b4",
      "to": "0x5eb9cc76c3506942c1c0ead70e877dd5e4f00cb0",
      "contractAddress": null
    }
  ],
  "libraries": [],
  "pending": [],
  "returns": {},
  "timestamp": 1736820961,
  "chain": 11155111,
  "commit": "51a374b"
}