{
  "transactions": [
    {
      "hash": "0xab61dc43281159fe16a87b2b8446bc96358f5aa79f01d25085648ec356177af9",
      "transactionType": "CALL",
      "contractName": null,
      "contractAddress": "0xbf4a322f1496e5c3d34a9bcdb4c60567b38c7de2",
      "function": "buy(address)",
      "arguments": [
        "0xC77f7fed3b5Cc8249aDc428c5F44C9063B9734b4"
      ],
      "transaction": {
        "from": "0xc77f7fed3b5cc8249adc428c5f44c9063b9734b4",
        "to": "0xbf4a322f1496e5c3d34a9bcdb4c60567b38c7de2",
        "gas": "0x1b309",
        "value": "0xde0b6b3a7640000",
        "input": "0xf088d547000000000000000000000000c77f7fed3b5cc8249adc428c5f44c9063b9734b4",
        "nonce": "0xc04",
        "chainId": "0xaa36a7"
      },
      "additionalContracts": [],
      "isFixedGasLimit": false
    }
  ],
  "receipts": [
    {
      "status": "0x1",
      "cumulativeGasUsed": "0x12c56ab",
      "logs": [
        {
          "address": "0xbf4a322f1496e5c3d34a9bcdb4c60567b38c7de2",
          "topics": [
            "0xddf252ad1be2c89b69c2b068fc378daa952ba7f163c4a11628f55a4df523b3ef",
            "0x0000000000000000000000000000000000000000000000000000000000000000",
            "0x000000000000000000000000c77f7fed3b5cc8249adc428c5f44c9063b9734b4"
          ],
          "data": "0x000000000000000000000000000000000000000000000034fa9f8ef94644df05",
          "blockHash": "0x305a07f284a99a6f8ba87711913f753c6810a5e63fe3746dda07a2ad1e5bdf7d",
          "blockNumber": "0x725c2e",
          "transactionHash": "0xab61dc43281159fe16a87b2b8446bc96358f5aa79f01d25085648ec356177af9",
          "transactionIndex": "0x56",
          "logIndex": "0xa3",
          "removed": false
        },
        {
          "address": "0xbf4a322f1496e5c3d34a9bcdb4c60567b38c7de2",
          "topics": [
            "0xddf252ad1be2c89b69c2b068fc378daa952ba7f163c4a11628f55a4df523b3ef",
            "0x0000000000000000000000000000000000000000000000000000000000000000",
            "0x000000000000000000000000c77f7fed3b5cc8249adc428c5f44c9063b9734b4"
          ],
          "data": "0x0000000000000000000000000000000000000000000000002923d6ef8a55d45e",
          "blockHash": "0x305a07f284a99a6f8ba87711913f753c6810a5e63fe3746dda07a2ad1e5bdf7d",
          "blockNumber": "0x725c2e",
          "transactionHash": "0xab61dc43281159fe16a87b2b8446bc96358f5aa79f01d25085648ec356177af9",
          "transactionIndex": "0x56",
          "logIndex": "0xa4",
          "removed": false
        },
        {
          "address": "0xbf4a322f1496e5c3d34a9bcdb4c60567b38c7de2",
          "topics": [
            "0x4afcb4a87cdbd9974efdb92ee48bc8d7cd0ae4bf217004db3d080cbaee652ca7"
          ],
          "data": "0x000000000000000000000000000000000000000000000000000000006787448400000000000000000000000000000000000000000000000000039955040c82620000000000000000000000000000000000000000000000000de0b6b3a7640000",
          "blockHash": "0x305a07f284a99a6f8ba87711913f753c6810a5e63fe3746dda07a2ad1e5bdf7d",
          "blockNumber": "0x725c2e",
          "transactionHash": "0xab61dc43281159fe16a87b2b8446bc96358f5aa79f01d25085648ec356177af9",
          "transactionIndex": "0x56",
          "logIndex": "0xa5",
          "removed": false
        }
      ],
      "logsBloom": "0x00000000000000000000000000000000000000000000000000000000000000000000000000000000000000000000000000000000000000004000000000000000000000000000000000000008000000000000001000000000000000000000000000000000020000000000000000000800020000000000000000000010000000000000000000000000000000000000000000000000000008000000010000000000000000000000000000000000000000004000000000000000000000000000000000000002000000800000000000001000000000000000080000000000000020000000000000000000000000000000000000000000000000000000000000000000",
      "type": "0x2",
      "transactionHash": "0xab61dc43281159fe16a87b2b8446bc96358f5aa79f01d25085648ec356177af9",
      "transactionIndex": "0x56",
      "blockHash": "0x305a07f284a99a6f8ba87711913f753c6810a5e63fe3746dda07a2ad1e5bdf7d",
      "blockNumber": "0x725c2e",
      "gasUsed": "0x13af6",
      "effectiveGasPrice": "0xf2b26cb2",
      "from": "0xc77f7fed3b5cc8249adc428c5f44c9063b9734b4",
      "to": "0xbf4a322f1496e5c3d34a9bcdb4c60567b38c7de2",
      "contractAddress": null
    }
  ],
  "libraries": [],
  "pending": [],
  "returns": {},
  "timestamp": 1736918149,
  "chain": 11155111,
  "commit": "51a374b"
}