{
  "transactions": [
    {
      "hash": "0x689ce1bc38e3fd820df45727a2a91012987f800755dd4fa3e673f913594fe21d",
      "transactionType": "CALL",
      "contractName": null,
      "contractAddress": "0xbf4a322f1496e5c3d34a9bcdb4c60567b38c7de2",
      "function": "buy(address)",
      "arguments": [
        "0xC77f7fed3b5Cc8249aDc428c5F44C9063B9734b4"
      ],
      "transaction": {
        "from": "0xc77f7fed3b5cc8249adc428c5f44c9063b9734b4",
        "to": "0xbf4a322f1496e5c3d34a9bcdb4c60567b38c7de2",
        "gas": "0x1b309",
        "value": "0xde0b6b3a7640000",
        "input": "0xf088d547000000000000000000000000c77f7fed3b5cc8249adc428c5f44c9063b9734b4",
        "nonce": "0x984",
        "chainId": "0xaa36a7"
      },
      "additionalContracts": [],
      "isFixedGasLimit": false
    }
  ],
  "receipts": [
    {
      "status": "0x1",
      "cumulativeGasUsed": "0xec4e83",
      "logs": [
        {
          "address": "0xbf4a322f1496e5c3d34a9bcdb4c60567b38c7de2",
          "topics": [
            "0xddf252ad1be2c89b69c2b068fc378daa952ba7f163c4a11628f55a4df523b3ef",
            "0x0000000000000000000000000000000000000000000000000000000000000000",
            "0x000000000000000000000000c77f7fed3b5cc8249adc428c5f44c9063b9734b4"
          ],
          "data": "0x00000000000000000000000000000000000000000000003572a0ddfbc5d6d4da",
          "blockHash": "0x76c5ba925c246d75a72cdfe0aa8b28974a155d0340a8fd492959bc498c3d918f",
          "blockNumber": "0x725924",
          "transactionHash": "0x689ce1bc38e3fd820df45727a2a91012987f800755dd4fa3e673f913594fe21d",
          "transactionIndex": "0x7b",
          "logIndex": "0xb6",
          "removed": false
        },
        {
          "address": "0xbf4a322f1496e5c3d34a9bcdb4c60567b38c7de2",
          "topics": [
            "0xddf252ad1be2c89b69c2b068fc378daa952ba7f163c4a11628f55a4df523b3ef",
            "0x0000000000000000000000000000000000000000000000000000000000000000",
            "0x000000000000000000000000c77f7fed3b5cc8249adc428c5f44c9063b9734b4"
          ],
          "data": "0x000000000000000000000000000000000000000000000000298107146af4480e",
          "blockHash": "0x76c5ba925c246d75a72cdfe0aa8b28974a155d0340a8fd492959bc498c3d918f",
          "blockNumber": "0x725924",
          "transactionHash": "0x689ce1bc38e3fd820df45727a2a91012987f800755dd4fa3e673f913594fe21d",
          "transactionIndex": "0x7b",
          "logIndex": "0xb7",
          "removed": false
        },
        {
          "address": "0xbf4a322f1496e5c3d34a9bcdb4c60567b38c7de2",
          "topics": [
            "0x4afcb4a87cdbd9974efdb92ee48bc8d7cd0ae4bf217004db3d080cbaee652ca7"
          ],
          "data": "0x0000000000000000000000000000000000000000000000000000000067871fdc0000000000000000000000000000000000000000000000000003914063a5e63c0000000000000000000000000000000000000000000000000de0b6b3a7640000",
          "blockHash": "0x76c5ba925c246d75a72cdfe0aa8b28974a155d0340a8fd492959bc498c3d918f",
          "blockNumber": "0x725924",
          "transactionHash": "0x689ce1bc38e3fd820df45727a2a91012987f800755dd4fa3e673f913594fe21d",
          "transactionIndex": "0x7b",
          "logIndex": "0xb8",
          "removed": false
        }
      ],
      "logsBloom": "0x00000000000000000000000000000000000000000000000000000000000000000000000000000000000000000000000000000000000000004000000000000000000000000000000000000008000000000000001000000000000000000000000000000000020000000000000000000800020000000000000000000010000000000000000000000000000000000000000000000000000008000000010000000000000000000000000000000000000000004000000000000000000000000000000000000002000000800000000000001000000000000000080000000000000020000000000000000000000000000000000000000000000000000000000000000000",
      "type": "0x2",
      "transactionHash": "0x689ce1bc38e3fd820df45727a2a91012987f800755dd4fa3e673f913594fe21d",
      "transactionIndex": "0x7b",
      "blockHash": "0x76c5ba925c246d75a72cdfe0aa8b28974a155d0340a8fd492959bc498c3d918f",
      "blockNumber": "0x725924",
      "gasUsed": "0x13af6",
      "effectiveGasPrice": "0xaa1e06b0",
      "from": "0xc77f7fed3b5cc8249adc428c5f44c9063b9734b4",
      "to": "0xbf4a322f1496e5c3d34a9bcdb4c60567b38c7de2",
      "contractAddress": null
    }
  ],
  "libraries": [],
  "pending": [],
  "returns": {},
  "timestamp": 1736908765,
  "chain": 11155111,
  "commit": "51a374b"
}