{
  "transactions": [
    {
      "hash": "0x5c2c42a81dcc090fe7fafae5c492f0e845aaf7273a327ffbbb74c6505c006781",
      "transactionType": "CALL",
      "contractName": null,
      "contractAddress": "0xbf4a322f1496e5c3d34a9bcdb4c60567b38c7de2",
      "function": "sell(uint256)",
      "arguments": [
        "988709253587020565152"
      ],
      "transaction": {
        "from": "0xc77f7fed3b5cc8249adc428c5f44c9063b9734b4",
        "to": "0xbf4a322f1496e5c3d34a9bcdb4c60567b38c7de2",
        "gas": "0x16fea",
        "value": "0x0",
        "input": "0xe4849b320000000000000000000000000000000000000000000000359918e3bb33f84aa0",
        "nonce": "0x995",
        "chainId": "0xaa36a7"
      },
      "additionalContracts": [],
      "isFixedGasLimit": false
    }
  ],
  "receipts": [
    {
      "status": "0x1",
      "cumulativeGasUsed": "0x17cb74b",
      "logs": [
        {
          "address": "0xbf4a322f1496e5c3d34a9bcdb4c60567b38c7de2",
          "topics": [
            "0xddf252ad1be2c89b69c2b068fc378daa952ba7f163c4a11628f55a4df523b3ef",
            "0x000000000000000000000000c77f7fed3b5cc8249adc428c5f44c9063b9734b4",
            "0x0000000000000000000000000000000000000000000000000000000000000000"
          ],
          "data": "0x0000000000000000000000000000000000000000000000359918e3bb33f84aa0",
          "blockHash": "0x1dad1af875b713fd4b9b1e09bf21933396d4149c532e35854011fa8e8183d4c3",
          "blockNumber": "0x72593c",
          "transactionHash": "0x5c2c42a81dcc090fe7fafae5c492f0e845aaf7273a327ffbbb74c6505c006781",
          "transactionIndex": "0xc5",
          "logIndex": "0xf0",
          "removed": false
        },
        {
          "address": "0xbf4a322f1496e5c3d34a9bcdb4c60567b38c7de2",
          "topics": [
            "0x4afcb4a87cdbd9974efdb92ee48bc8d7cd0ae4bf217004db3d080cbaee652ca7"
          ],
          "data": "0x00000000000000000000000000000000000000000000000000000000678720fc000000000000000000000000000000000000000000000000000391783db117d70000000000000000000000000000000000000000000000000dc7e3f650bb6168",
          "blockHash": "0x1dad1af875b713fd4b9b1e09bf21933396d4149c532e35854011fa8e8183d4c3",
          "blockNumber": "0x72593c",
          "transactionHash": "0x5c2c42a81dcc090fe7fafae5c492f0e845aaf7273a327ffbbb74c6505c006781",
          "transactionIndex": "0xc5",
          "logIndex": "0xf1",
          "removed": false
        }
      ],
      "logsBloom": "0x00000000000000000000000000000000000000000000000000000000000000000000000000000000000000000000000000000000000000004000000000000000000000000000000000000008000000000000001000000000000000000000000000000000020000000000000000000800020000000000000000000010000000000000000000000000000000000000000000000000000008000000010000000000000000000000000000000000000000004000000000000000000000000000000000000002000000800000000000001000000000000000080000000000000020000000000000000000000000000000000000000000000000000000000000000000",
      "type": "0x2",
      "transactionHash": "0x5c2c42a81dcc090fe7fafae5c492f0e845aaf7273a327ffbbb74c6505c006781",
      "transactionIndex": "0xc5",
      "blockHash": "0x1dad1af875b713fd4b9b1e09bf21933396d4149c532e35854011fa8e8183d4c3",
      "blockNumber": "0x72593c",
      "gasUsed": "0xfb91",
      "effectiveGasPrice": "0x23a59991a",
      "from": "0xc77f7fed3b5cc8249adc428c5f44c9063b9734b4",
      "to": "0xbf4a322f1496e5c3d34a9bcdb4c60567b38c7de2",
      "contractAddress": null
    }
  ],
  "libraries": [],
  "pending": [],
  "returns": {},
  "timestamp": 1736909053,
  "chain": 11155111,
  "commit": "51a374b"
}