{
  "transactions": [
    {
      "hash": "0x3b4958f91204ae644b477c88146a624530b88d9b9be47f35872845466258cc73",
      "transactionType": "CALL",
      "contractName": null,
      "contractAddress": "0x8aafd3ede9adb0ff97c7aebce82a919afb1c8764",
      "function": "sell(uint256)",
      "arguments": [
        "56467657"
      ],
      "transaction": {
        "from": "0xc77f7fed3b5cc8249adc428c5f44c9063b9734b4",
        "to": "0x8aafd3ede9adb0ff97c7aebce82a919afb1c8764",
        "gas": "0x15d88",
        "value": "0x0",
        "input": "0xe4849b3200000000000000000000000000000000000000000000000000000000035da0c9",
        "nonce": "0x14cf",
        "chainId": "0xaa36a7"
      },
      "additionalContracts": [],
      "isFixedGasLimit": false
    }
  ],
  "receipts": [
    {
      "status": "0x1",
      "cumulativeGasUsed": "0x12d234c",
      "logs": [
        {
          "address": "0x8aafd3ede9adb0ff97c7aebce82a919afb1c8764",
          "topics": [
            "0xddf252ad1be2c89b69c2b068fc378daa952ba7f163c4a11628f55a4df523b3ef",
            "0x000000000000000000000000c77f7fed3b5cc8249adc428c5f44c9063b9734b4",
            "0x0000000000000000000000000000000000000000000000000000000000000000"
          ],
          "data": "0x000000000000000000000000000000000000000000000000000000000356bc2c",
          "blockHash": "0x566e1a85e42ecd7acb832e4d63448f1565262cbdbd35e6064d205b6f23d23e4a",
          "blockNumber": "0x731c2d",
          "transactionHash": "0x3b4958f91204ae644b477c88146a624530b88d9b9be47f35872845466258cc73",
          "transactionIndex": "0x80",
          "logIndex": "0xe6",
          "removed": false
        },
        {
          "address": "0x8aafd3ede9adb0ff97c7aebce82a919afb1c8764",
          "topics": [
            "0xddf252ad1be2c89b69c2b068fc378daa952ba7f163c4a11628f55a4df523b3ef",
            "0x000000000000000000000000c77f7fed3b5cc8249adc428c5f44c9063b9734b4",
            "0x000000000000000000000000c77f7fed3b5cc8249adc428c5f44c9063b9734b4"
          ],
          "data": "0x000000000000000000000000000000000000000000000000000000000006e49d",
          "blockHash": "0x566e1a85e42ecd7acb832e4d63448f1565262cbdbd35e6064d205b6f23d23e4a",
          "blockNumber": "0x731c2d",
          "transactionHash": "0x3b4958f91204ae644b477c88146a624530b88d9b9be47f35872845466258cc73",
          "transactionIndex": "0x80",
          "logIndex": "0xe7",
          "removed": false
        },
        {
          "address": "0x8aafd3ede9adb0ff97c7aebce82a919afb1c8764",
          "topics": [
            "0x4afcb4a87cdbd9974efdb92ee48bc8d7cd0ae4bf217004db3d080cbaee652ca7"
          ],
          "data": "0x0000000000000000000000000000000000000000000000000000000067904ef800000000000000000000000000000000000000000000000000107b2a6d3ebb0e000000000000000000000000000000000000000000000000000000000003ff42",
          "blockHash": "0x566e1a85e42ecd7acb832e4d63448f1565262cbdbd35e6064d205b6f23d23e4a",
          "blockNumber": "0x731c2d",
          "transactionHash": "0x3b4958f91204ae644b477c88146a624530b88d9b9be47f35872845466258cc73",
          "transactionIndex": "0x80",
          "logIndex": "0xe8",
          "removed": false
        }
      ],
      "logsBloom": "0x00000000000000000000000000000000000000000600000000000000000000000000000000000000000000000000000000000000000000004000000000000000000000000000004000000008000000000000000000000000000000000000000000000000020000000000000000000800020000000000000000000010000000000000000000000000000000000000000000000000000000000000010000000000000000000000000000000000000000004000000000000000000000000000000000000002000000800000000000000000000000000000080000000000000020000000000000000000000000000000000000000000000000000000000000000000",
      "type": "0x2",
      "transactionHash": "0x3b4958f91204ae644b477c88146a624530b88d9b9be47f35872845466258cc73",
      "transactionIndex": "0x80",
      "blockHash": "0x566e1a85e42ecd7acb832e4d63448f1565262cbdbd35e6064d205b6f23d23e4a",
      "blockNumber": "0x731c2d",
      "gasUsed": "0xfd0f",
      "effectiveGasPrice": "0x12e97e72e",
      "from": "0xc77f7fed3b5cc8249adc428c5f44c9063b9734b4",
      "to": "0x8aafd3ede9adb0ff97c7aebce82a919afb1c8764",
      "contractAddress": null
    }
  ],
  "libraries": [],
  "pending": [],
  "returns": {},
  "timestamp": 1737510650,
  "chain": 11155111,
  "commit": "1d2fb70"
}