{
  "transactions": [
    {
      "hash": "0x5860df17464c0c203de3e90cd366bc2d0fbe95a7416a54f35725b7ceefff459a",
      "transactionType": "CALL",
      "contractName": null,
      "contractAddress": "0x8aafd3ede9adb0ff97c7aebce82a919afb1c8764",
      "function": "sell(uint256)",
      "arguments": [
        "666695963968971905393"
      ],
      "transaction": {
        "from": "0xc77f7fed3b5cc8249adc428c5f44c9063b9734b4",
        "to": "0x8aafd3ede9adb0ff97c7aebce82a919afb1c8764",
        "gas": "0x17270",
        "value": "0x0",
        "input": "0xe4849b320000000000000000000000000000000000000000000000242443deec55329971",
        "nonce": "0x12b7",
        "chainId": "0xaa36a7"
      },
      "additionalContracts": [],
      "isFixedGasLimit": false
    }
  ],
  "receipts": [
    {
      "status": "0x1",
      "cumulativeGasUsed": "0x9a4ff1",
      "logs": [
        {
          "address": "0x8aafd3ede9adb0ff97c7aebce82a919afb1c8764",
          "topics": [
            "0xddf252ad1be2c89b69c2b068fc378daa952ba7f163c4a11628f55a4df523b3ef",
            "0x000000000000000000000000c77f7fed3b5cc8249adc428c5f44c9063b9734b4",
            "0x0000000000000000000000000000000000000000000000000000000000000000"
          ],
          "data": "0x000000000000000000000000000000000000000000000023da3f3b5908bd7566",
          "blockHash": "0x23609a539b26c11bc4a1de231b9fc83600e135ce5adfb4676c4f77a418d525ef",
          "blockNumber": "0x7319ae",
          "transactionHash": "0x5860df17464c0c203de3e90cd366bc2d0fbe95a7416a54f35725b7ceefff459a",
          "transactionIndex": "0x71",
          "logIndex": "0x93",
          "removed": false
        },
        {
          "address": "0x8aafd3ede9adb0ff97c7aebce82a919afb1c8764",
          "topics": [
            "0xddf252ad1be2c89b69c2b068fc378daa952ba7f163c4a11628f55a4df523b3ef",
            "0x000000000000000000000000c77f7fed3b5cc8249adc428c5f44c9063b9734b4",
            "0x000000000000000000000000c77f7fed3b5cc8249adc428c5f44c9063b9734b4"
          ],
          "data": "0x0000000000000000000000000000000000000000000000004a04a3934c75240b",
          "blockHash": "0x23609a539b26c11bc4a1de231b9fc83600e135ce5adfb4676c4f77a418d525ef",
          "blockNumber": "0x7319ae",
          "transactionHash": "0x5860df17464c0c203de3e90cd366bc2d0fbe95a7416a54f35725b7ceefff459a",
          "transactionIndex": "0x71",
          "logIndex": "0x94",
          "removed": false
        },
        {
          "address": "0x8aafd3ede9adb0ff97c7aebce82a919afb1c8764",
          "topics": [
            "0x4afcb4a87cdbd9974efdb92ee48bc8d7cd0ae4bf217004db3d080cbaee652ca7"
          ],
          "data": "0x00000000000000000000000000000000000000000000000000000000679030f800000000000000000000000000000000000000000000000000054c14fc673b770000000000000000000000000000000000000000000000000dc8ec993b20129f",
          "blockHash": "0x23609a539b26c11bc4a1de231b9fc83600e135ce5adfb4676c4f77a418d525ef",
          "blockNumber": "0x7319ae",
          "transactionHash": "0x5860df17464c0c203de3e90cd366bc2d0fbe95a7416a54f35725b7ceefff459a",
          "transactionIndex": "0x71",
          "logIndex": "0x95",
          "removed": false
        }
      ],
      "logsBloom": "0x00000000000000000000000000000000000000000600000000000000000000000000000000000000000000000000000000000000000000004000000000000000000000000000004000000008000000000000000000000000000000000000000000000000020000000000000000000800020000000000000000000010000000000000000000000000000000000000000000000000000000000000010000000000000000000000000000000000000000004000000000000000000000000000000000000002000000800000000000000000000000000000080000000000000020000000000000000000000000000000000000000000000000000000000000000000",
      "type": "0x2",
      "transactionHash": "0x5860df17464c0c203de3e90cd366bc2d0fbe95a7416a54f35725b7ceefff459a",
      "transactionIndex": "0x71",
      "blockHash": "0x23609a539b26c11bc4a1de231b9fc83600e135ce5adfb4676c4f77a418d525ef",
      "blockNumber": "0x7319ae",
      "gasUsed": "0xfd4b",
      "effectiveGasPrice": "0x44c558a3",
      "from": "0xc77f7fed3b5cc8249adc428c5f44c9063b9734b4",
      "to": "0x8aafd3ede9adb0ff97c7aebce82a919afb1c8764",
      "contractAddress": null
    }
  ],
  "libraries": [],
  "pending": [],
  "returns": {},
  "timestamp": 1737502970,
  "chain": 11155111,
  "commit": "1d2fb70"
}