{
  "transactions": [
    {
      "hash": "0xd278820d71a3a1e4cbb353207b6170ded1e5e9693610d65f165ec2402b76c242",
      "transactionType": "CALL",
      "contractName": null,
      "contractAddress": "0x270e88f8683660553e8ba4eb2ad7c91a1710d769",
      "function": "sell(uint256)",
      "arguments": [
        "743858417705735887160"
      ],
      "transaction": {
        "from": "0xc77f7fed3b5cc8249adc428c5f44c9063b9734b4",
        "to": "0x270e88f8683660553e8ba4eb2ad7c91a1710d769",
        "gas": "0x16fec",
        "value": "0x0",
        "input": "0xe4849b32000000000000000000000000000000000000000000000028531bf9c5c6871938",
        "nonce": "0x710",
        "chainId": "0xaa36a7"
      },
      "additionalContracts": [],
      "isFixedGasLimit": false
    }
  ],
  "receipts": [
    {
      "status": "0x1",
      "cumulativeGasUsed": "0x11400c8",
      "logs": [
        {
          "address": "0x270e88f8683660553e8ba4eb2ad7c91a1710d769",
          "topics": [
            "0xddf252ad1be2c89b69c2b068fc378daa952ba7f163c4a11628f55a4df523b3ef",
            "0x000000000000000000000000c77f7fed3b5cc8249adc428c5f44c9063b9734b4",
            "0x0000000000000000000000000000000000000000000000000000000000000000"
          ],
          "data": "0x000000000000000000000000000000000000000000000028531bf9c5c6871938",
          "blockHash": "0x41ad5365eb6af8b2775c1fc7621e6453660a38adeb5a777a37023ba19de5ca11",
          "blockNumber": "0x725427",
          "transactionHash": "0xd278820d71a3a1e4cbb353207b6170ded1e5e9693610d65f165ec2402b76c242",
          "transactionIndex": "0x47",
          "logIndex": "0x89",
          "removed": false
        },
        {
          "address": "0x270e88f8683660553e8ba4eb2ad7c91a1710d769",
          "topics": [
            "0x4afcb4a87cdbd9974efdb92ee48bc8d7cd0ae4bf217004db3d080cbaee652ca7"
          ],
          "data": "0x000000000000000000000000000000000000000000000000000000006786e3dc0000000000000000000000000000000000000000000000000004be68e165f8170000000000000000000000000000000000000000000000000dc828e631a77beb",
          "blockHash": "0x41ad5365eb6af8b2775c1fc7621e6453660a38adeb5a777a37023ba19de5ca11",
          "blockNumber": "0x725427",
          "transactionHash": "0xd278820d71a3a1e4cbb353207b6170ded1e5e9693610d65f165ec2402b76c242",
          "transactionIndex": "0x47",
          "logIndex": "0x8a",
          "removed": false
        }
      ],
      "logsBloom": "0x00000000000000000000000000000000000000000000000000000000000000000000000000000000000000000000000020000000000000004000000000000000000000000000000000000008000000000000000000000000000000000000000000000000020000000000000000000800020000000000000000000010000000000000000000010000000000000000000000000000000000000000010000000000000000000000000000000000000000004000000000000000000000000000000000000002000000800000000000000000000000000000080000008000000020000000000000000000000000000000000000000000000000000000000000000000",
      "type": "0x2",
      "transactionHash": "0xd278820d71a3a1e4cbb353207b6170ded1e5e9693610d65f165ec2402b76c242",
      "transactionIndex": "0x47",
      "blockHash": "0x41ad5365eb6af8b2775c1fc7621e6453660a38adeb5a777a37023ba19de5ca11",
      "blockNumber": "0x725427",
      "gasUsed": "0xfb93",
      "effectiveGasPrice": "0x1367ce494",
      "from": "0xc77f7fed3b5cc8249adc428c5f44c9063b9734b4",
      "to": "0x270e88f8683660553e8ba4eb2ad7c91a1710d769",
      "contractAddress": null
    }
  ],
  "libraries": [],
  "pending": [],
  "returns": {},
  "timestamp": 1736893405,
  "chain": 11155111,
  "commit": "51a374b"
}