{
  "transactions": [
    {
      "hash": "0x2011f022649c4c311dea887cd38415f270373810d362e5e3cb8a03e288d2b628",
      "transactionType": "CALL",
      "contractName": null,
      "contractAddress": "0x8aafd3ede9adb0ff97c7aebce82a919afb1c8764",
      "function": "buy(address)",
      "arguments": [
        "0xC77f7fed3b5Cc8249aDc428c5F44C9063B9734b4"
      ],
      "transaction": {
        "from": "0xc77f7fed3b5cc8249adc428c5f44c9063b9734b4",
        "to": "0x8aafd3ede9adb0ff97c7aebce82a919afb1c8764",
        "gas": "0x156ea",
        "value": "0xde0b6b3a7640000",
        "input": "0xf088d547000000000000000000000000c77f7fed3b5cc8249adc428c5f44c9063b9734b4",
        "nonce": "0x1090",
        "chainId": "0xaa36a7"
      },
      "additionalContracts": [],
      "isFixedGasLimit": false
    }
  ],
  "receipts": [
    {
      "status": "0x1",
      "cumulativeGasUsed": "0xaebbd3",
      "logs": [
        {
          "address": "0x8aafd3ede9adb0ff97c7aebce82a919afb1c8764",
          "topics": [
            "0xddf252ad1be2c89b69c2b068fc378daa952ba7f163c4a11628f55a4df523b3ef",
            "0x0000000000000000000000000000000000000000000000000000000000000000",
            "0x000000000000000000000000c77f7fed3b5cc8249adc428c5f44c9063b9734b4"
          ],
          "data": "0x0000000000000000000000000000000000000000000000264a8315a4cd384424",
          "blockHash": "0xed15945e175ae5afeca0396e47423c5dee726fe8d24e96798afbd3218b7ed75a",
          "blockNumber": "0x73171d",
          "transactionHash": "0x2011f022649c4c311dea887cd38415f270373810d362e5e3cb8a03e288d2b628",
          "transactionIndex": "0x7d",
          "logIndex": "0x84",
          "removed": false
        },
        {
          "address": "0x8aafd3ede9adb0ff97c7aebce82a919afb1c8764",
          "topics": [
            "0xddf252ad1be2c89b69c2b068fc378daa952ba7f163c4a11628f55a4df523b3ef",
            "0x0000000000000000000000000000000000000000000000000000000000000000",
            "0x000000000000000000000000c77f7fed3b5cc8249adc428c5f44c9063b9734b4"
          ],
          "data": "0x0000000000000000000000000000000000000000000000001dbbfc26e44969d2",
          "blockHash": "0xed15945e175ae5afeca0396e47423c5dee726fe8d24e96798afbd3218b7ed75a",
          "blockNumber": "0x73171d",
          "transactionHash": "0x2011f022649c4c311dea887cd38415f270373810d362e5e3cb8a03e288d2b628",
          "transactionIndex": "0x7d",
          "logIndex": "0x85",
          "removed": false
        },
        {
          "address": "0x8aafd3ede9adb0ff97c7aebce82a919afb1c8764",
          "topics": [
            "0x4afcb4a87cdbd9974efdb92ee48bc8d7cd0ae4bf217004db3d080cbaee652ca7"
          ],
          "data": "0x00000000000000000000000000000000000000000000000000000000679012200000000000000000000000000000000000000000000000000004fb23ae4695dc0000000000000000000000000000000000000000000000000de0b6b3a7640000",
          "blockHash": "0xed15945e175ae5afeca0396e47423c5dee726fe8d24e96798afbd3218b7ed75a",
          "blockNumber": "0x73171d",
          "transactionHash": "0x2011f022649c4c311dea887cd38415f270373810d362e5e3cb8a03e288d2b628",
          "transactionIndex": "0x7d",
          "logIndex": "0x86",
          "removed": false
        }
      ],
      "logsBloom": "0x00000000000000000000000000000000000000000600000000000000000000000000000000000000000000000000000000000000000000004000000000000000000000000000004000000008000000000000000000000000000000000000000000000000020000000000000000000800020000000000000000000010000000000000000000000000000000000000000000000000000000000000010000000000000000000000000000000000000000004000000000000000000000000000000000000002000000800000000000000000000000000000080000000000000020000000000000000000000000000000000000000000000000000000000000000000",
      "type": "0x2",
      "transactionHash": "0x2011f022649c4c311dea887cd38415f270373810d362e5e3cb8a03e288d2b628",
      "transactionIndex": "0x7d",
      "blockHash": "0xed15945e175ae5afeca0396e47423c5dee726fe8d24e96798afbd3218b7ed75a",
      "blockNumber": "0x73171d",
      "gasUsed": "0xf844",
      "effectiveGasPrice": "0x44847c7c",
      "from": "0xc77f7fed3b5cc8249adc428c5f44c9063b9734b4",
      "to": "0x8aafd3ede9adb0ff97c7aebce82a919afb1c8764",
      "contractAddress": null
    }
  ],
  "libraries": [],
  "pending": [],
  "returns": {},
  "timestamp": 1737495074,
  "chain": 11155111,
  "commit": "1d2fb70"
}