{
  "transactions": [
    {
      "hash": "0x635af2aee87710cddb295cd61d1278a17f557f3e9e5b95e97b1bf56f64c5d78c",
      "transactionType": "CALL",
      "contractName": null,
      "contractAddress": "0x8aafd3ede9adb0ff97c7aebce82a919afb1c8764",
      "function": "sell(uint256)",
      "arguments": [
        "3065987003420"
      ],
      "transaction": {
        "from": "0xc77f7fed3b5cc8249adc428c5f44c9063b9734b4",
        "to": "0x8aafd3ede9adb0ff97c7aebce82a919afb1c8764",
        "gas": "0x15daa",
        "value": "0x0",
        "input": "0xe4849b32000000000000000000000000000000000000000000000000000002c9db10f41c",
        "nonce": "0xe96",
        "chainId": "0xaa36a7"
      },
      "additionalContracts": [],
      "isFixedGasLimit": false
    }
  ],
  "receipts": [
    {
      "status": "0x1",
      "cumulativeGasUsed": "0xe2df2f",
      "logs": [
        {
          "address": "0x8aafd3ede9adb0ff97c7aebce82a919afb1c8764",
          "topics": [
            "0xddf252ad1be2c89b69c2b068fc378daa952ba7f163c4a11628f55a4df523b3ef",
            "0x000000000000000000000000c77f7fed3b5cc8249adc428c5f44c9063b9734b4",
            "0x0000000000000000000000000000000000000000000000000000000000000000"
          ],
          "data": "0x000000000000000000000000000000000000000000000000000002c42516f641",
          "blockHash": "0x1f11af2852f11c7840fc562b8af485363f358224c4ae7c3214e26f5c01a25b8d",
          "blockNumber": "0x7313f3",
          "transactionHash": "0x635af2aee87710cddb295cd61d1278a17f557f3e9e5b95e97b1bf56f64c5d78c",
          "transactionIndex": "0xa6",
          "logIndex": "0xf7",
          "removed": false
        },
        {
          "address": "0x8aafd3ede9adb0ff97c7aebce82a919afb1c8764",
          "topics": [
            "0xddf252ad1be2c89b69c2b068fc378daa952ba7f163c4a11628f55a4df523b3ef",
            "0x000000000000000000000000c77f7fed3b5cc8249adc428c5f44c9063b9734b4",
            "0x000000000000000000000000c77f7fed3b5cc8249adc428c5f44c9063b9734b4"
          ],
          "data": "0x00000000000000000000000000000000000000000000000000000005b5f9fddb",
          "blockHash": "0x1f11af2852f11c7840fc562b8af485363f358224c4ae7c3214e26f5c01a25b8d",
          "blockNumber": "0x7313f3",
          "transactionHash": "0x635af2aee87710cddb295cd61d1278a17f557f3e9e5b95e97b1bf56f64c5d78c",
          "transactionIndex": "0xa6",
          "logIndex": "0xf8",
          "removed": false
        },
        {
          "address": "0x8aafd3ede9adb0ff97c7aebce82a919afb1c8764",
          "topics": [
            "0x4afcb4a87cdbd9974efdb92ee48bc8d7cd0ae4bf217004db3d080cbaee652ca7"
          ],
          "data": "0x00000000000000000000000000000000000000000000000000000000678fec100000000000000000000000000000000000000000000000000004b6f3b2fef88500000000000000000000000000000000000000000000000000000000f2841226",
          "blockHash": "0x1f11af2852f11c7840fc562b8af485363f358224c4ae7c3214e26f5c01a25b8d",
          "blockNumber": "0x7313f3",
          "transactionHash": "0x635af2aee87710cddb295cd61d1278a17f557f3e9e5b95e97b1bf56f64c5d78c",
          "transactionIndex": "0xa6",
          "logIndex": "0xf9",
          "removed": false
        }
      ],
      "logsBloom": "0x00000000000000000000000000000000000000000600000000000000000000000000000000000000000000000000000000000000000000004000000000000000000000000000004000000008000000000000000000000000000000000000000000000000020000000000000000000800020000000000000000000010000000000000000000000000000000000000000000000000000000000000010000000000000000000000000000000000000000004000000000000000000000000000000000000002000000800000000000000000000000000000080000000000000020000000000000000000000000000000000000000000000000000000000000000000",
      "type": "0x2",
      "transactionHash": "0x635af2aee87710cddb295cd61d1278a17f557f3e9e5b95e97b1bf56f64c5d78c",
      "transactionIndex": "0xa6",
      "blockHash": "0x1f11af2852f11c7840fc562b8af485363f358224c4ae7c3214e26f5c01a25b8d",
      "blockNumber": "0x7313f3",
      "gasUsed": "0xfd27",
      "effectiveGasPrice": "0x92a1dece",
      "from": "0xc77f7fed3b5cc8249adc428c5f44c9063b9734b4",
      "to": "0x8aafd3ede9adb0ff97c7aebce82a919afb1c8764",
      "contractAddress": null
    }
  ],
  "libraries": [],
  "pending": [],
  "returns": {},
  "timestamp": 1737485331,
  "chain": 11155111,
  "commit": "51a374b"
}