{
  "transactions": [
    {
      "hash": "0xb8c0de62bead3d3c89fa403c3dacf61e71aa58145bfd6f0823ddc0e84101691b",
      "transactionType": "CALL",
      "contractName": null,
      "contractAddress": "0x8aafd3ede9adb0ff97c7aebce82a919afb1c8764",
      "function": "sell(uint256)",
      "arguments": [
        "384042284237983"
      ],
      "transaction": {
        "from": "0xc77f7fed3b5cc8249adc428c5f44c9063b9734b4",
        "to": "0x8aafd3ede9adb0ff97c7aebce82a919afb1c8764",
        "gas": "0x1724d",
        "value": "0x0",
        "input": "0xe4849b3200000000000000000000000000000000000000000000000000015d48cfee449f",
        "nonce": "0xe59",
        "chainId": "0xaa36a7"
      },
      "additionalContracts": [],
      "isFixedGasLimit": false
    }
  ],
  "receipts": [
    {
      "status": "0x1",
      "cumulativeGasUsed": "0xca38ce",
      "logs": [
        {
          "address": "0x8aafd3ede9adb0ff97c7aebce82a919afb1c8764",
          "topics": [
            "0xddf252ad1be2c89b69c2b068fc378daa952ba7f163c4a11628f55a4df523b3ef",
            "0x000000000000000000000000c77f7fed3b5cc8249adc428c5f44c9063b9734b4",
            "0x0000000000000000000000000000000000000000000000000000000000000000"
          ],
          "data": "0x00000000000000000000000000000000000000000000000000015a7d7a4c9e30",
          "blockHash": "0x64bbedf49a6282a81859c35aab3b949a033133087866d772ec59e9cfc3ace7f6",
          "blockNumber": "0x7313ab",
          "transactionHash": "0xb8c0de62bead3d3c89fa403c3dacf61e71aa58145bfd6f0823ddc0e84101691b",
          "transactionIndex": "0x8e",
          "logIndex": "0x9f",
          "removed": false
        },
        {
          "address": "0x8aafd3ede9adb0ff97c7aebce82a919afb1c8764",
          "topics": [
            "0xddf252ad1be2c89b69c2b068fc378daa952ba7f163c4a11628f55a4df523b3ef",
            "0x000000000000000000000000c77f7fed3b5cc8249adc428c5f44c9063b9734b4",
            "0x000000000000000000000000c77f7fed3b5cc8249adc428c5f44c9063b9734b4"
          ],
          "data": "0x000000000000000000000000000000000000000000000000000002cb55a1a66f",
          "blockHash": "0x64bbedf49a6282a81859c35aab3b949a033133087866d772ec59e9cfc3ace7f6",
          "blockNumber": "0x7313ab",
          "transactionHash": "0xb8c0de62bead3d3c89fa403c3dacf61e71aa58145bfd6f0823ddc0e84101691b",
          "transactionIndex": "0x8e",
          "logIndex": "0xa0",
          "removed": false
        },
        {
          "address": "0x8aafd3ede9adb0ff97c7aebce82a919afb1c8764",
          "topics": [
            "0x4afcb4a87cdbd9974efdb92ee48bc8d7cd0ae4bf217004db3d080cbaee652ca7"
          ],
          "data": "0x00000000000000000000000000000000000000000000000000000000678fe8980000000000000000000000000000000000000000000000000004b4752e9ebb0f000000000000000000000000000000000000000000000000000000766a826061",
          "blockHash": "0x64bbedf49a6282a81859c35aab3b949a033133087866d772ec59e9cfc3ace7f6",
          "blockNumber": "0x7313ab",
          "transactionHash": "0xb8c0de62bead3d3c89fa403c3dacf61e71aa58145bfd6f0823ddc0e84101691b",
          "transactionIndex": "0x8e",
          "logIndex": "0xa1",
          "removed": false
        }
      ],
      "logsBloom": "0x00000000000000000000000000000000000000000600000000000000000000000000000000000000000000000000000000000000000000004000000000000000000000000000004000000008000000000000000000000000000000000000000000000000020000000000000000000800020000000000000000000010000000000000000000000000000000000000000000000000000000000000010000000000000000000000000000000000000000004000000000000000000000000000000000000002000000800000000000000000000000000000080000000000000020000000000000000000000000000000000000000000000000000000000000000000",
      "type": "0x2",
      "transactionHash": "0xb8c0de62bead3d3c89fa403c3dacf61e71aa58145bfd6f0823ddc0e84101691b",
      "transactionIndex": "0x8e",
      "blockHash": "0x64bbedf49a6282a81859c35aab3b949a033133087866d772ec59e9cfc3ace7f6",
      "blockNumber": "0x7313ab",
      "gasUsed": "0xfd33",
      "effectiveGasPrice": "0x8003a13b",
      "from": "0xc77f7fed3b5cc8249adc428c5f44c9063b9734b4",
      "to": "0x8aafd3ede9adb0ff97c7aebce82a919afb1c8764",
      "contractAddress": null
    }
  ],
  "libraries": [],
  "pending": [],
  "returns": {},
  "timestamp": 1737484441,
  "chain": 11155111,
  "commit": "51a374b"
}