{
  "transactions": [
    {
      "hash": "0xbe30aa7dbc59f28114fa3ee1e142196d4379980a5f78fa6cc435339260facfde",
      "transactionType": "CALL",
      "contractName": null,
      "contractAddress": "0x5eb9cc76c3506942c1c0ead70e877dd5e4f00cb0",
      "function": "sell(uint256)",
      "arguments": [
        "989094899797328622995"
      ],
      "transaction": {
        "from": "0xc77f7fed3b5cc8249adc428c5f44c9063b9734b4",
        "to": "0x5eb9cc76c3506942c1c0ead70e877dd5e4f00cb0",
        "gas": "0x16fec",
        "value": "0x0",
        "input": "0xe4849b320000000000000000000000000000000000000000000000359e72faea925b7593",
        "nonce": "0x421",
        "chainId": "0xaa36a7"
      },
      "additionalContracts": [],
      "isFixedGasLimit": false
    }
  ],
  "receipts": [
    {
      "status": "0x1",
      "cumulativeGasUsed": "0xb629f4",
      "logs": [
        {
          "address": "0x5eb9cc76c3506942c1c0ead70e877dd5e4f00cb0",
          "topics": [
            "0xddf252ad1be2c89b69c2b068fc378daa952ba7f163c4a11628f55a4df523b3ef",
            "0x000000000000000000000000c77f7fed3b5cc8249adc428c5f44c9063b9734b4",
            "0x0000000000000000000000000000000000000000000000000000000000000000"
          ],
          "data": "0x0000000000000000000000000000000000000000000000359e72faea925b7593",
          "blockHash": "0x8720a06b7dc7fc80883bbf0954c3b97d968b81d84626a254e607bdac63cf8e1f",
          "blockNumber": "0x725036",
          "transactionHash": "0xbe30aa7dbc59f28114fa3ee1e142196d4379980a5f78fa6cc435339260facfde",
          "transactionIndex": "0x64",
          "logIndex": "0x8b",
          "removed": false
        },
        {
          "address": "0x5eb9cc76c3506942c1c0ead70e877dd5e4f00cb0",
          "topics": [
            "0x4afcb4a87cdbd9974efdb92ee48bc8d7cd0ae4bf217004db3d080cbaee652ca7"
          ],
          "data": "0x000000000000000000000000000000000000000000000000000000006786b45400000000000000000000000000000000000000000000000000039116ad69d27f0000000000000000000000000000000000000000000000000dc7db1331de5f86",
          "blockHash": "0x8720a06b7dc7fc80883bbf0954c3b97d968b81d84626a254e607bdac63cf8e1f",
          "blockNumber": "0x725036",
          "transactionHash": "0xbe30aa7dbc59f28114fa3ee1e142196d4379980a5f78fa6cc435339260facfde",
          "transactionIndex": "0x64",
          "logIndex": "0x8c",
          "removed": false
        }
      ],
      "logsBloom": "0x00000000000000000000000000000000000000000000000000000000000000000000000000000000000000000000000000000000000000004000000000000000000000000000000000000008000000000000000000000000000000000000000000000000020000000000000004000800020000000000000000000010000000000000000000000000000000000000000000000000000000000000010000000000000000000000000000000000000000004000000000000000000000000000020000000002000000800000008000000000000000000000080000000000000020000000000000000000000000000000000000000000000000000000000000000000",
      "type": "0x2",
      "transactionHash": "0xbe30aa7dbc59f28114fa3ee1e142196d4379980a5f78fa6cc435339260facfde",
      "transactionIndex": "0x64",
      "blockHash": "0x8720a06b7dc7fc80883bbf0954c3b97d968b81d84626a254e607bdac63cf8e1f",
      "blockNumber": "0x725036",
      "gasUsed": "0xfb93",
      "effectiveGasPrice": "0x2abfdf49c",
      "from": "0xc77f7fed3b5cc8249adc428c5f44c9063b9734b4",
      "to": "0x5eb9cc76c3506942c1c0ead70e877dd5e4f00cb0",
      "contractAddress": null
    }
  ],
  "libraries": [],
  "pending": [],
  "returns": {},
  "timestamp": 1736881237,
  "chain": 11155111,
  "commit": "51a374b"
}