{
  "transactions": [
    {
      "hash": "0x9297a77e0db62f3b6f5acc68bf68723346061004d0ea24e96f058296501d268b",
      "transactionType": "CALL",
      "contractName": null,
      "contractAddress": "0x8aafd3ede9adb0ff97c7aebce82a919afb1c8764",
      "function": "sell(uint256)",
      "arguments": [
        "22825617807"
      ],
      "transaction": {
        "from": "0xc77f7fed3b5cc8249adc428c5f44c9063b9734b4",
        "to": "0x8aafd3ede9adb0ff97c7aebce82a919afb1c8764",
        "gas": "0x1722a",
        "value": "0x0",
        "input": "0xe4849b32000000000000000000000000000000000000000000000000000000055083498f",
        "nonce": "0x112c",
        "chainId": "0xaa36a7"
      },
      "additionalContracts": [],
      "isFixedGasLimit": false
    }
  ],
  "receipts": [
    {
      "status": "0x1",
      "cumulativeGasUsed": "0xec4db2",
      "logs": [
        {
          "address": "0x8aafd3ede9adb0ff97c7aebce82a919afb1c8764",
          "topics": [
            "0xddf252ad1be2c89b69c2b068fc378daa952ba7f163c4a11628f55a4df523b3ef",
            "0x000000000000000000000000c77f7fed3b5cc8249adc428c5f44c9063b9734b4",
            "0x0000000000000000000000000000000000000000000000000000000000000000"
          ],
          "data": "0x0000000000000000000000000000000000000000000000000000000545a0f501",
          "blockHash": "0x193fb40fb42cd18507198ff8919a28c9472eeae73f2162bdf9224f9787415d69",
          "blockNumber": "0x7317e3",
          "transactionHash": "0x9297a77e0db62f3b6f5acc68bf68723346061004d0ea24e96f058296501d268b",
          "transactionIndex": "0x9d",
          "logIndex": "0xc8",
          "removed": false
        },
        {
          "address": "0x8aafd3ede9adb0ff97c7aebce82a919afb1c8764",
          "topics": [
            "0xddf252ad1be2c89b69c2b068fc378daa952ba7f163c4a11628f55a4df523b3ef",
            "0x000000000000000000000000c77f7fed3b5cc8249adc428c5f44c9063b9734b4",
            "0x000000000000000000000000c77f7fed3b5cc8249adc428c5f44c9063b9734b4"
          ],
          "data": "0x000000000000000000000000000000000000000000000000000000000ae2548e",
          "blockHash": "0x193fb40fb42cd18507198ff8919a28c9472eeae73f2162bdf9224f9787415d69",
          "blockNumber": "0x7317e3",
          "transactionHash": "0x9297a77e0db62f3b6f5acc68bf68723346061004d0ea24e96f058296501d268b",
          "transactionIndex": "0x9d",
          "logIndex": "0xc9",
          "removed": false
        },
        {
          "address": "0x8aafd3ede9adb0ff97c7aebce82a919afb1c8764",
          "topics": [
            "0x4afcb4a87cdbd9974efdb92ee48bc8d7cd0ae4bf217004db3d080cbaee652ca7"
          ],
          "data": "0x0000000000000000000000000000000000000000000000000000000067901b68000000000000000000000000000000000000000000000000000511f8279d7e460000000000000000000000000000000000000000000000000000000001f10eca",
          "blockHash": "0x193fb40fb42cd18507198ff8919a28c9472eeae73f2162bdf9224f9787415d69",
          "blockNumber": "0x7317e3",
          "transactionHash": "0x9297a77e0db62f3b6f5acc68bf68723346061004d0ea24e96f058296501d268b",
          "transactionIndex": "0x9d",
          "logIndex": "0xca",
          "removed": false
        }
      ],
      "logsBloom": "0x00000000000000000000000000000000000000000600000000000000000000000000000000000000000000000000000000000000000000004000000000000000000000000000004000000008000000000000000000000000000000000000000000000000020000000000000000000800020000000000000000000010000000000000000000000000000000000000000000000000000000000000010000000000000000000000000000000000000000004000000000000000000000000000000000000002000000800000000000000000000000000000080000000000000020000000000000000000000000000000000000000000000000000000000000000000",
      "type": "0x2",
      "transactionHash": "0x9297a77e0db62f3b6f5acc68bf68723346061004d0ea24e96f058296501d268b",
      "transactionIndex": "0x9d",
      "blockHash": "0x193fb40fb42cd18507198ff8919a28c9472eeae73f2162bdf9224f9787415d69",
      "blockNumber": "0x7317e3",
      "gasUsed": "0xfd1b",
      "effectiveGasPrice": "0x43a264cc",
      "from": "0xc77f7fed3b5cc8249adc428c5f44c9063b9734b4",
      "to": "0x8aafd3ede9adb0ff97c7aebce82a919afb1c8764",
      "contractAddress": null
    }
  ],
  "libraries": [],
  "pending": [],
  "returns": {},
  "timestamp": 1737497449,
  "chain": 11155111,
  "commit": "1d2fb70"
}