{
  "transactions": [
    {
      "hash": "0xb21ba270bdf09919a0f9409e23aded2f5429f3b422a729b8b89fe64b4925c2d9",
      "transactionType": "CALL",
      "contractName": null,
      "contractAddress": "0x8aafd3ede9adb0ff97c7aebce82a919afb1c8764",
      "function": "sell(uint256)",
      "arguments": [
        "13043274873184880"
      ],
      "transaction": {
        "from": "0xc77f7fed3b5cc8249adc428c5f44c9063b9734b4",
        "to": "0x8aafd3ede9adb0ff97c7aebce82a919afb1c8764",
        "gas": "0x1724d",
        "value": "0x0",
        "input": "0xe4849b32000000000000000000000000000000000000000000000000002e56ca15862270",
        "nonce": "0x151c",
        "chainId": "0xaa36a7"
      },
      "additionalContracts": [],
      "isFixedGasLimit": false
    }
  ],
  "receipts": [
    {
      "status": "0x1",
      "cumulativeGasUsed": "0x890667",
      "logs": [
        {
          "address": "0x8aafd3ede9adb0ff97c7aebce82a919afb1c8764",
          "topics": [
            "0xddf252ad1be2c89b69c2b068fc378daa952ba7f163c4a11628f55a4df523b3ef",
            "0x000000000000000000000000c77f7fed3b5cc8249adc428c5f44c9063b9734b4",
            "0x0000000000000000000000000000000000000000000000000000000000000000"
          ],
          "data": "0x000000000000000000000000000000000000000000000000002df7e317665769",
          "blockHash": "0xf22ad73b8e5b2ecc4335a018b9c3139df0dd3a97e19601148fcbccb5f40cd55a",
          "blockNumber": "0x731c7e",
          "transactionHash": "0xb21ba270bdf09919a0f9409e23aded2f5429f3b422a729b8b89fe64b4925c2d9",
          "transactionIndex": "0x5e",
          "logIndex": "0x9a",
          "removed": false
        },
        {
          "address": "0x8aafd3ede9adb0ff97c7aebce82a919afb1c8764",
          "topics": [
            "0xddf252ad1be2c89b69c2b068fc378daa952ba7f163c4a11628f55a4df523b3ef",
            "0x000000000000000000000000c77f7fed3b5cc8249adc428c5f44c9063b9734b4",
            "0x000000000000000000000000c77f7fed3b5cc8249adc428c5f44c9063b9734b4"
          ],
          "data": "0x00000000000000000000000000000000000000000000000000005ee6fe1fcb07",
          "blockHash": "0xf22ad73b8e5b2ecc4335a018b9c3139df0dd3a97e19601148fcbccb5f40cd55a",
          "blockNumber": "0x731c7e",
          "transactionHash": "0xb21ba270bdf09919a0f9409e23aded2f5429f3b422a729b8b89fe64b4925c2d9",
          "transactionIndex": "0x5e",
          "logIndex": "0x9b",
          "removed": false
        },
        {
          "address": "0x8aafd3ede9adb0ff97c7aebce82a919afb1c8764",
          "topics": [
            "0x4afcb4a87cdbd9974efdb92ee48bc8d7cd0ae4bf217004db3d080cbaee652ca7"
          ],
          "data": "0x00000000000000000000000000000000000000000000000000000000679052c400000000000000000000000000000000000000000000000000116a00d3c4d22c00000000000000000000000000000000000000000000000000003a259e2d0347",
          "blockHash": "0xf22ad73b8e5b2ecc4335a018b9c3139df0dd3a97e19601148fcbccb5f40cd55a",
          "blockNumber": "0x731c7e",
          "transactionHash": "0xb21ba270bdf09919a0f9409e23aded2f5429f3b422a729b8b89fe64b4925c2d9",
          "transactionIndex": "0x5e",
          "logIndex": "0x9c",
          "removed": false
        }
      ],
      "logsBloom": "0x00000000000000000000000000000000000000000600000000000000000000000000000000000000000000000000000000000000000000004000000000000000000000000000004000000008000000000000000000000000000000000000000000000000020000000000000000000800020000000000000000000010000000000000000000000000000000000000000000000000000000000000010000000000000000000000000000000000000000004000000000000000000000000000000000000002000000800000000000000000000000000000080000000000000020000000000000000000000000000000000000000000000000000000000000000000",
      "type": "0x2",
      "transactionHash": "0xb21ba270bdf09919a0f9409e23aded2f5429f3b422a729b8b89fe64b4925c2d9",
      "transactionIndex": "0x5e",
      "blockHash": "0xf22ad73b8e5b2ecc4335a018b9c3139df0dd3a97e19601148fcbccb5f40cd55a",
      "blockNumber": "0x731c7e",
      "gasUsed": "0xfd33",
      "effectiveGasPrice": "0x16e76dbd3",
      "from": "0xc77f7fed3b5cc8249adc428c5f44c9063b9734b4",
      "to": "0x8aafd3ede9adb0ff97c7aebce82a919afb1c8764",
      "contractAddress": null
    }
  ],
  "libraries": [],
  "pending": [],
  "returns": {},
  "timestamp": 1737511621,
  "chain": 11155111,
  "commit": "1d2fb70"
}