{
  "transactions": [
    {
      "hash": "0x7d57dd0145f470b7505c61667215618ac714568b9cb7cc47928d7e2390df3d05",
      "transactionType": "CALL",
      "contractName": null,
      "contractAddress": "0x270e88f8683660553e8ba4eb2ad7c91a1710d769",
      "function": "buy(address)",
      "arguments": [
        "0xC77f7fed3b5Cc8249aDc428c5F44C9063B9734b4"
      ],
      "transaction": {
        "from": "0xc77f7fed3b5cc8249adc428c5f44c9063b9734b4",
        "to": "0x270e88f8683660553e8ba4eb2ad7c91a1710d769",
        "gas": "0x1b30c",
        "value": "0xde0b6b3a7640000",
        "input": "0xf088d547000000000000000000000000c77f7fed3b5cc8249adc428c5f44c9063b9734b4",
        "nonce": "0x576",
        "chainId": "0xaa36a7"
      },
      "additionalContracts": [],
      "isFixedGasLimit": false
    }
  ],
  "receipts": [
    {
      "status": "0x1",
      "cumulativeGasUsed": "0x6569ce",
      "logs": [
        {
          "address": "0x270e88f8683660553e8ba4eb2ad7c91a1710d769",
          "topics": [
            "0xddf252ad1be2c89b69c2b068fc378daa952ba7f163c4a11628f55a4df523b3ef",
            "0x0000000000000000000000000000000000000000000000000000000000000000",
            "0x000000000000000000000000c77f7fed3b5cc8249adc428c5f44c9063b9734b4"
          ],
          "data": "0x0000000000000000000000000000000000000000000000344e215d28af9b623b",
          "blockHash": "0x54eb6de10a9601a19b574675400d5877350c7b78d93956cc8e3adba8f8bbe0e1",
          "blockNumber": "0x725220",
          "transactionHash": "0x7d57dd0145f470b7505c61667215618ac714568b9cb7cc47928d7e2390df3d05",
          "transactionIndex": "0x46",
          "logIndex": "0x5f",
          "removed": false
        },
        {
          "address": "0x270e88f8683660553e8ba4eb2ad7c91a1710d769",
          "topics": [
            "0xddf252ad1be2c89b69c2b068fc378daa952ba7f163c4a11628f55a4df523b3ef",
            "0x0000000000000000000000000000000000000000000000000000000000000000",
            "0x000000000000000000000000c77f7fed3b5cc8249adc428c5f44c9063b9734b4"
          ],
          "data": "0x000000000000000000000000000000000000000000000000289de497646b12ed",
          "blockHash": "0x54eb6de10a9601a19b574675400d5877350c7b78d93956cc8e3adba8f8bbe0e1",
          "blockNumber": "0x725220",
          "transactionHash": "0x7d57dd0145f470b7505c61667215618ac714568b9cb7cc47928d7e2390df3d05",
          "transactionIndex": "0x46",
          "logIndex": "0x60",
          "removed": false
        },
        {
          "address": "0x270e88f8683660553e8ba4eb2ad7c91a1710d769",
          "topics": [
            "0x4afcb4a87cdbd9974efdb92ee48bc8d7cd0ae4bf217004db3d080cbaee652ca7"
          ],
          "data": "0x000000000000000000000000000000000000000000000000000000006786cb700000000000000000000000000000000000000000000000000003a54bc343f99c0000000000000000000000000000000000000000000000000de0b6b3a7640000",
          "blockHash": "0x54eb6de10a9601a19b574675400d5877350c7b78d93956cc8e3adba8f8bbe0e1",
          "blockNumber": "0x725220",
          "transactionHash": "0x7d57dd0145f470b7505c61667215618ac714568b9cb7cc47928d7e2390df3d05",
          "transactionIndex": "0x46",
          "logIndex": "0x61",
          "removed": false
        }
      ],
      "logsBloom": "0x00000000000000000000000000000000000000000000000000000000000000000000000000000000000000000000000020000000000000004000000000000000000000000000000000000008000000000000000000000000000000000000000000000000020000000000000000000800020000000000000000000010000000000000000000010000000000000000000000000000000000000000010000000000000000000000000000000000000000004000000000000000000000000000000000000002000000800000000000000000000000000000080000008000000020000000000000000000000000000000000000000000000000000000000000000000",
      "type": "0x2",
      "transactionHash": "0x7d57dd0145f470b7505c61667215618ac714568b9cb7cc47928d7e2390df3d05",
      "transactionIndex": "0x46",
      "blockHash": "0x54eb6de10a9601a19b574675400d5877350c7b78d93956cc8e3adba8f8bbe0e1",
      "blockNumber": "0x725220",
      "gasUsed": "0x13af8",
      "effectiveGasPrice": "0x46cce4e25",
      "from": "0xc77f7fed3b5cc8249adc428c5f44c9063b9734b4",
      "to": "0x270e88f8683660553e8ba4eb2ad7c91a1710d769",
      "contractAddress": null
    }
  ],
  "libraries": [],
  "pending": [],
  "returns": {},
  "timestamp": 1736887154,
  "chain": 11155111,
  "commit": "51a374b"
}