{
  "transactions": [
    {
      "hash": "0x7ed129a51e192ec13e3384a5306a4505c2a37b4db35986a02e0261ed4c539c24",
      "transactionType": "CALL",
      "contractName": null,
      "contractAddress": "0x5eb9cc76c3506942c1c0ead70e877dd5e4f00cb0",
      "function": "sell(uint256)",
      "arguments": [
        "989085020090887091116"
      ],
      "transaction": {
        "from": "0xc77f7fed3b5cc8249adc428c5f44c9063b9734b4",
        "to": "0x5eb9cc76c3506942c1c0ead70e877dd5e4f00cb0",
        "gas": "0x16fec",
        "value": "0x0",
        "input": "0xe4849b320000000000000000000000000000000000000000000000359e4fe160296cb3ac",
        "nonce": "0x45f",
        "chainId": "0xaa36a7"
      },
      "additionalContracts": [],
      "isFixedGasLimit": false
    }
  ],
  "receipts": [
    {
      "status": "0x1",
      "cumulativeGasUsed": "0x8c0e1a",
      "logs": [
        {
          "address": "0x5eb9cc76c3506942c1c0ead70e877dd5e4f00cb0",
          "topics": [
            "0xddf252ad1be2c89b69c2b068fc378daa952ba7f163c4a11628f55a4df523b3ef",
            "0x000000000000000000000000c77f7fed3b5cc8249adc428c5f44c9063b9734b4",
            "0x0000000000000000000000000000000000000000000000000000000000000000"
          ],
          "data": "0x0000000000000000000000000000000000000000000000359e4fe160296cb3ac",
          "blockHash": "0xeaaf3e2663e738bda818726928795a2f03aa7c3d7ed018b0ef7296762c08d158",
          "blockNumber": "0x725083",
          "transactionHash": "0x7ed129a51e192ec13e3384a5306a4505c2a37b4db35986a02e0261ed4c539c24",
          "transactionIndex": "0x51",
          "logIndex": "0x96",
          "removed": false
        },
        {
          "address": "0x5eb9cc76c3506942c1c0ead70e877dd5e4f00cb0",
          "topics": [
            "0x4afcb4a87cdbd9974efdb92ee48bc8d7cd0ae4bf217004db3d080cbaee652ca7"
          ],
          "data": "0x000000000000000000000000000000000000000000000000000000006786b7f000000000000000000000000000000000000000000000000000039119032405540000000000000000000000000000000000000000000000000dc7db1331cccb22",
          "blockHash": "0xeaaf3e2663e738bda818726928795a2f03aa7c3d7ed018b0ef7296762c08d158",
          "blockNumber": "0x725083",
          "transactionHash": "0x7ed129a51e192ec13e3384a5306a4505c2a37b4db35986a02e0261ed4c539c24",
          "transactionIndex": "0x51",
          "logIndex": "0x97",
          "removed": false
        }
      ],
      "logsBloom": "0x00000000000000000000000000000000000000000000000000000000000000000000000000000000000000000000000000000000000000004000000000000000000000000000000000000008000000000000000000000000000000000000000000000000020000000000000004000800020000000000000000000010000000000000000000000000000000000000000000000000000000000000010000000000000000000000000000000000000000004000000000000000000000000000020000000002000000800000008000000000000000000000080000000000000020000000000000000000000000000000000000000000000000000000000000000000",
      "type": "0x2",
      "transactionHash": "0x7ed129a51e192ec13e3384a5306a4505c2a37b4db35986a02e0261ed4c539c24",
      "transactionIndex": "0x51",
      "blockHash": "0xeaaf3e2663e738bda818726928795a2f03aa7c3d7ed018b0ef7296762c08d158",
      "blockNumber": "0x725083",
      "gasUsed": "0xfb93",
      "effectiveGasPrice": "0x204a7b4b4",
      "from": "0xc77f7fed3b5cc8249adc428c5f44c9063b9734b4",
      "to": "0x5eb9cc76c3506942c1c0ead70e877dd5e4f00cb0",
      "contractAddress": null
    }
  ],
  "libraries": [],
  "pending": [],
  "returns": {},
  "timestamp": 1736882162,
  "chain": 11155111,
  "commit": "51a374b"
}