{
  "transactions": [
    {
      "hash": "0xea84d6f13383ae3804877c9d72b3791548cf88528e7e328b2d7902bfc3bf6335",
      "transactionType": "CALL",
      "contractName": null,
      "contractAddress": "0x8aafd3ede9adb0ff97c7aebce82a919afb1c8764",
      "function": "sell(uint256)",
      "arguments": [
        "305163749674871836857"
      ],
      "transaction": {
        "from": "0xc77f7fed3b5cc8249adc428c5f44c9063b9734b4",
        "to": "0x8aafd3ede9adb0ff97c7aebce82a919afb1c8764",
        "gas": "0x17270",
        "value": "0x0",
        "input": "0xe4849b320000000000000000000000000000000000000000000000108aff6d80a0f650b9",
        "nonce": "0x1322",
        "chainId": "0xaa36a7"
      },
      "additionalContracts": [],
      "isFixedGasLimit": false
    }
  ],
  "receipts": [
    {
      "status": "0x1",
      "cumulativeGasUsed": "0xa12df5",
      "logs": [
        {
          "address": "0x8aafd3ede9adb0ff97c7aebce82a919afb1c8764",
          "topics": [
            "0xddf252ad1be2c89b69c2b068fc378daa952ba7f163c4a11628f55a4df523b3ef",
            "0x000000000000000000000000c77f7fed3b5cc8249adc428c5f44c9063b9734b4",
            "0x0000000000000000000000000000000000000000000000000000000000000000"
          ],
          "data": "0x000000000000000000000000000000000000000000000010691e26fe9362efd3",
          "blockHash": "0x0f59667e7fed97fd8a51affdeb23214b26e1bbad9d071184ec5097ce0a611fb5",
          "blockNumber": "0x731a31",
          "transactionHash": "0xea84d6f13383ae3804877c9d72b3791548cf88528e7e328b2d7902bfc3bf6335",
          "transactionIndex": "0x90",
          "logIndex": "0xb7",
          "removed": false
        },
        {
          "address": "0x8aafd3ede9adb0ff97c7aebce82a919afb1c8764",
          "topics": [
            "0xddf252ad1be2c89b69c2b068fc378daa952ba7f163c4a11628f55a4df523b3ef",
            "0x000000000000000000000000c77f7fed3b5cc8249adc428c5f44c9063b9734b4",
            "0x000000000000000000000000c77f7fed3b5cc8249adc428c5f44c9063b9734b4"
          ],
          "data": "0x00000000000000000000000000000000000000000000000021e146820d9360e6",
          "blockHash": "0x0f59667e7fed97fd8a51affdeb23214b26e1bbad9d071184ec5097ce0a611fb5",
          "blockNumber": "0x731a31",
          "transactionHash": "0xea84d6f13383ae3804877c9d72b3791548cf88528e7e328b2d7902bfc3bf6335",
          "transactionIndex": "0x90",
          "logIndex": "0xb8",
          "removed": false
        },
        {
          "address": "0x8aafd3ede9adb0ff97c7aebce82a919afb1c8764",
          "topics": [
            "0x4afcb4a87cdbd9974efdb92ee48bc8d7cd0ae4bf217004db3d080cbaee652ca7"
          ],
          "data": "0x000000000000000000000000000000000000000000000000000000006790371c000000000000000000000000000000000000000000000000000ba9481e7dad200000000000000000000000000000000000000000000000000dcee68a242f0668",
          "blockHash": "0x0f59667e7fed97fd8a51affdeb23214b26e1bbad9d071184ec5097ce0a611fb5",
          "blockNumber": "0x731a31",
          "transactionHash": "0xea84d6f13383ae3804877c9d72b3791548cf88528e7e328b2d7902bfc3bf6335",
          "transactionIndex": "0x90",
          "logIndex": "0xb9",
          "removed": false
        }
      ],
      "logsBloom": "0x00000000000000000000000000000000000000000600000000000000000000000000000000000000000000000000000000000000000000004000000000000000000000000000004000000008000000000000000000000000000000000000000000000000020000000000000000000800020000000000000000000010000000000000000000000000000000000000000000000000000000000000010000000000000000000000000000000000000000004000000000000000000000000000000000000002000000800000000000000000000000000000080000000000000020000000000000000000000000000000000000000000000000000000000000000000",
      "type": "0x2",
      "transactionHash": "0xea84d6f13383ae3804877c9d72b3791548cf88528e7e328b2d7902bfc3bf6335",
      "transactionIndex": "0x90",
      "blockHash": "0x0f59667e7fed97fd8a51affdeb23214b26e1bbad9d071184ec5097ce0a611fb5",
      "blockNumber": "0x731a31",
      "gasUsed": "0xfd4b",
      "effectiveGasPrice": "0x485b5cbe",
      "from": "0xc77f7fed3b5cc8249adc428c5f44c9063b9734b4",
      "to": "0x8aafd3ede9adb0ff97c7aebce82a919afb1c8764",
      "contractAddress": null
    }
  ],
  "libraries": [],
  "pending": [],
  "returns": {},
  "timestamp": 1737504541,
  "chain": 11155111,
  "commit": "1d2fb70"
}