{
  "transactions": [
    {
      "hash": "0xa282e5ae895eeff5baab78942257afb35d01e2fd985875cab4c22206e5305641",
      "transactionType": "CALL",
      "contractName": null,
      "contractAddress": "0x8aafd3ede9adb0ff97c7aebce82a919afb1c8764",
      "function": "sell(uint256)",
      "arguments": [
        "24587194983"
      ],
      "transaction": {
        "from": "0xc77f7fed3b5cc8249adc428c5f44c9063b9734b4",
        "to": "0x8aafd3ede9adb0ff97c7aebce82a919afb1c8764",
        "gas": "0x1722a",
        "value": "0x0",
        "input": "0xe4849b3200000000000000000000000000000000000000000000000000000005b982d267",
        "nonce": "0xe51",
        "chainId": "0xaa36a7"
      },
      "additionalContracts": [],
      "isFixedGasLimit": false
    }
  ],
  "receipts": [
    {
      "status": "0x1",
      "cumulativeGasUsed": "0xdfd6a9",
      "logs": [
        {
          "address": "0x8aafd3ede9adb0ff97c7aebce82a919afb1c8764",
          "topics": [
            "0xddf252ad1be2c89b69c2b068fc378daa952ba7f163c4a11628f55a4df523b3ef",
            "0x000000000000000000000000c77f7fed3b5cc8249adc428c5f44c9063b9734b4",
            "0x0000000000000000000000000000000000000000000000000000000000000000"
          ],
          "data": "0x00000000000000000000000000000000000000000000000000000005adc97490",
          "blockHash": "0xcccde9e46019b384bf68f866adc6dbbbd39ce8a228273904030508a0bbd47d74",
          "blockNumber": "0x7313a3",
          "transactionHash": "0xa282e5ae895eeff5baab78942257afb35d01e2fd985875cab4c22206e5305641",
          "transactionIndex": "0x96",
          "logIndex": "0x11e",
          "removed": false
        },
        {
          "address": "0x8aafd3ede9adb0ff97c7aebce82a919afb1c8764",
          "topics": [
            "0xddf252ad1be2c89b69c2b068fc378daa952ba7f163c4a11628f55a4df523b3ef",
            "0x000000000000000000000000c77f7fed3b5cc8249adc428c5f44c9063b9734b4",
            "0x000000000000000000000000c77f7fed3b5cc8249adc428c5f44c9063b9734b4"
          ],
          "data": "0x000000000000000000000000000000000000000000000000000000000bb95dd7",
          "blockHash": "0xcccde9e46019b384bf68f866adc6dbbbd39ce8a228273904030508a0bbd47d74",
          "blockNumber": "0x7313a3",
          "transactionHash": "0xa282e5ae895eeff5baab78942257afb35d01e2fd985875cab4c22206e5305641",
          "transactionIndex": "0x96",
          "logIndex": "0x11f",
          "removed": false
        },
        {
          "address": "0x8aafd3ede9adb0ff97c7aebce82a919afb1c8764",
          "topics": [
            "0x4afcb4a87cdbd9974efdb92ee48bc8d7cd0ae4bf217004db3d080cbaee652ca7"
          ],
          "data": "0x00000000000000000000000000000000000000000000000000000000678fe8380000000000000000000000000000000000000000000000000004b40ac35bc48e0000000000000000000000000000000000000000000000000000000001f0ac48",
          "blockHash": "0xcccde9e46019b384bf68f866adc6dbbbd39ce8a228273904030508a0bbd47d74",
          "blockNumber": "0x7313a3",
          "transactionHash": "0xa282e5ae895eeff5baab78942257afb35d01e2fd985875cab4c22206e5305641",
          "transactionIndex": "0x96",
          "logIndex": "0x120",
          "removed": false
        }
      ],
      "logsBloom": "0x00000000000000000000000000000000000000000600000000000000000000000000000000000000000000000000000000000000000000004000000000000000000000000000004000000008000000000000000000000000000000000000000000000000020000000000000000000800020000000000000000000010000000000000000000000000000000000000000000000000000000000000010000000000000000000000000000000000000000004000000000000000000000000000000000000002000000800000000000000000000000000000080000000000000020000000000000000000000000000000000000000000000000000000000000000000",
      "type": "0x2",
      "transactionHash": "0xa282e5ae895eeff5baab78942257afb35d01e2fd985875cab4c22206e5305641",
      "transactionIndex": "0x96",
      "blockHash": "0xcccde9e46019b384bf68f866adc6dbbbd39ce8a228273904030508a0bbd47d74",
      "blockNumber": "0x7313a3",
      "gasUsed": "0xfd1b",
      "effectiveGasPrice": "0x7fdba3d3",
      "from": "0xc77f7fed3b5cc8249adc428c5f44c9063b9734b4",
      "to": "0x8aafd3ede9adb0ff97c7aebce82a919afb1c8764",
      "contractAddress": null
    }
  ],
  "libraries": [],
  "pending": [],
  "returns": {},
  "timestamp": 1737484345,
  "chain": 11155111,
  "commit": "51a374b"
}