{
  "transactions": [
    {
      "hash": "0x00fd35d608aa1b225f73cd5b1a310273e2aa46f5c1dd2b05e068e718570d3373",
      "transactionType": "CALL",
      "contractName": null,
      "contractAddress": "0xbf4a322f1496e5c3d34a9bcdb4c60567b38c7de2",
      "function": "sell(uint256)",
      "arguments": [
        "984599214178916823795"
      ],
      "transaction": {
        "from": "0xc77f7fed3b5cc8249adc428c5f44c9063b9734b4",
        "to": "0xbf4a322f1496e5c3d34a9bcdb4c60567b38c7de2",
        "gas": "0x16fea",
        "value": "0x0",
        "input": "0xe4849b32000000000000000000000000000000000000000000000035600f18aa5f16f2f3",
        "nonce": "0xac3",
        "chainId": "0xaa36a7"
      },
      "additionalContracts": [],
      "isFixedGasLimit": false
    }
  ],
  "receipts": [
    {
      "status": "0x1",
      "cumulativeGasUsed": "0x14f85e6",
      "logs": [
        {
          "address": "0xbf4a322f1496e5c3d34a9bcdb4c60567b38c7de2",
          "topics": [
            "0xddf252ad1be2c89b69c2b068fc378daa952ba7f163c4a11628f55a4df523b3ef",
            "0x000000000000000000000000c77f7fed3b5cc8249adc428c5f44c9063b9734b4",
            "0x0000000000000000000000000000000000000000000000000000000000000000"
          ],
          "data": "0x000000000000000000000000000000000000000000000035600f18aa5f16f2f3",
          "blockHash": "0x97207174d6e997acfbb8a05ab9e1e93ec8293efc732d69e6884f3f0a22f1367b",
          "blockNumber": "0x725ab3",
          "transactionHash": "0x00fd35d608aa1b225f73cd5b1a310273e2aa46f5c1dd2b05e068e718570d3373",
          "transactionIndex": "0x58",
          "logIndex": "0xb2",
          "removed": false
        },
        {
          "address": "0xbf4a322f1496e5c3d34a9bcdb4c60567b38c7de2",
          "topics": [
            "0x4afcb4a87cdbd9974efdb92ee48bc8d7cd0ae4bf217004db3d080cbaee652ca7"
          ],
          "data": "0x00000000000000000000000000000000000000000000000000000000678732b4000000000000000000000000000000000000000000000000000395485f847f7d0000000000000000000000000000000000000000000000000dc7e3ecc27318fa",
          "blockHash": "0x97207174d6e997acfbb8a05ab9e1e93ec8293efc732d69e6884f3f0a22f1367b",
          "blockNumber": "0x725ab3",
          "transactionHash": "0x00fd35d608aa1b225f73cd5b1a310273e2aa46f5c1dd2b05e068e718570d3373",
          "transactionIndex": "0x58",
          "logIndex": "0xb3",
          "removed": false
        }
      ],
      "logsBloom": "0x00000000000000000000000000000000000000000000000000000000000000000000000000000000000000000000000000000000000000004000000000000000000000000000000000000008000000000000001000000000000000000000000000000000020000000000000000000800020000000000000000000010000000000000000000000000000000000000000000000000000008000000010000000000000000000000000000000000000000004000000000000000000000000000000000000002000000800000000000001000000000000000080000000000000020000000000000000000000000000000000000000000000000000000000000000000",
      "type": "0x2",
      "transactionHash": "0x00fd35d608aa1b225f73cd5b1a310273e2aa46f5c1dd2b05e068e718570d3373",
      "transactionIndex": "0x58",
      "blockHash": "0x97207174d6e997acfbb8a05ab9e1e93ec8293efc732d69e6884f3f0a22f1367b",
      "blockNumber": "0x725ab3",
      "gasUsed": "0xfb91",
      "effectiveGasPrice": "0xed9c425e",
      "from": "0xc77f7fed3b5cc8249adc428c5f44c9063b9734b4",
      "to": "0xbf4a322f1496e5c3d34a9bcdb4c60567b38c7de2",
      "contractAddress": null
    }
  ],
  "libraries": [],
  "pending": [],
  "returns": {},
  "timestamp": 1736913589,
  "chain": 11155111,
  "commit": "51a374b"
}