{
  "transactions": [
    {
      "hash": "0x631bd065f0f0f334a843f53de78e0720e4d83511fdece4d43c9150f81c69e633",
      "transactionType": "CALL",
      "contractName": null,
      "contractAddress": "0x8aafd3ede9adb0ff97c7aebce82a919afb1c8764",
      "function": "sell(uint256)",
      "arguments": [
        "714183356330308267588"
      ],
      "transaction": {
        "from": "0xc77f7fed3b5cc8249adc428c5f44c9063b9734b4",
        "to": "0x8aafd3ede9adb0ff97c7aebce82a919afb1c8764",
        "gas": "0x17270",
        "value": "0x0",
        "input": "0xe4849b32000000000000000000000000000000000000000000000026b748faad443fee44",
        "nonce": "0x104b",
        "chainId": "0xaa36a7"
      },
      "additionalContracts": [],
      "isFixedGasLimit": false
    }
  ],
  "receipts": [
    {
      "status": "0x1",
      "cumulativeGasUsed": "0xb7f069",
      "logs": [
        {
          "address": "0x8aafd3ede9adb0ff97c7aebce82a919afb1c8764",
          "topics": [
            "0xddf252ad1be2c89b69c2b068fc378daa952ba7f163c4a11628f55a4df523b3ef",
            "0x000000000000000000000000c77f7fed3b5cc8249adc428c5f44c9063b9734b4",
            "0x0000000000000000000000000000000000000000000000000000000000000000"
          ],
          "data": "0x00000000000000000000000000000000000000000000002667feaad8efbc58e8",
          "blockHash": "0x5161ed5944535399a7b757b870e28b3820c183f05bb14b77209137783f2caf75",
          "blockNumber": "0x7316cc",
          "transactionHash": "0x631bd065f0f0f334a843f53de78e0720e4d83511fdece4d43c9150f81c69e633",
          "transactionIndex": "0x8f",
          "logIndex": "0xb2",
          "removed": false
        },
        {
          "address": "0x8aafd3ede9adb0ff97c7aebce82a919afb1c8764",
          "topics": [
            "0xddf252ad1be2c89b69c2b068fc378daa952ba7f163c4a11628f55a4df523b3ef",
            "0x000000000000000000000000c77f7fed3b5cc8249adc428c5f44c9063b9734b4",
            "0x000000000000000000000000c77f7fed3b5cc8249adc428c5f44c9063b9734b4"
          ],
          "data": "0x0000000000000000000000000000000000000000000000004f4a4fd45483955c",
          "blockHash": "0x5161ed5944535399a7b757b870e28b3820c183f05bb14b77209137783f2caf75",
          "blockNumber": "0x7316cc",
          "transactionHash": "0x631bd065f0f0f334a843f53de78e0720e4d83511fdece4d43c9150f81c69e633",
          "transactionIndex": "0x8f",
          "logIndex": "0xb3",
          "removed": false
        },
        {
          "address": "0x8aafd3ede9adb0ff97c7aebce82a919afb1c8764",
          "topics": [
            "0x4afcb4a87cdbd9974efdb92ee48bc8d7cd0ae4bf217004db3d080cbaee652ca7"
          ],
          "data": "0x0000000000000000000000000000000000000000000000000000000067900e480000000000000000000000000000000000000000000000000004f202243badf90000000000000000000000000000000000000000000000000dc8ff318e002836",
          "blockHash": "0x5161ed5944535399a7b757b870e28b3820c183f05bb14b77209137783f2caf75",
          "blockNumber": "0x7316cc",
          "transactionHash": "0x631bd065f0f0f334a843f53de78e0720e4d83511fdece4d43c9150f81c69e633",
          "transactionIndex": "0x8f",
          "logIndex": "0xb4",
          "removed": false
        }
      ],
      "logsBloom": "0x00000000000000000000000000000000000000000600000000000000000000000000000000000000000000000000000000000000000000004000000000000000000000000000004000000008000000000000000000000000000000000000000000000000020000000000000000000800020000000000000000000010000000000000000000000000000000000000000000000000000000000000010000000000000000000000000000000000000000004000000000000000000000000000000000000002000000800000000000000000000000000000080000000000000020000000000000000000000000000000000000000000000000000000000000000000",
      "type": "0x2",
      "transactionHash": "0x631bd065f0f0f334a843f53de78e0720e4d83511fdece4d43c9150f81c69e633",
      "transactionIndex": "0x8f",
      "blockHash": "0x5161ed5944535399a7b757b870e28b3820c183f05bb14b77209137783f2caf75",
      "blockNumber": "0x7316cc",
      "gasUsed": "0xfd4b",
      "effectiveGasPrice": "0x3eefb0f7",
      "from": "0xc77f7fed3b5cc8249adc428c5f44c9063b9734b4",
      "to": "0x8aafd3ede9adb0ff97c7aebce82a919afb1c8764",
      "contractAddress": null
    }
  ],
  "libraries": [],
  "pending": [],
  "returns": {},
  "timestamp": 1737494090,
  "chain": 11155111,
  "commit": "1d2fb70"
}