{
  "transactions": [
    {
      "hash": "0x2db46f053609aa9ef426c93571cb57e50f96e75353af4ce79146b395eee9307f",
      "transactionType": "CALL",
      "contractName": null,
      "contractAddress": "0x8aafd3ede9adb0ff97c7aebce82a919afb1c8764",
      "function": "sell(uint256)",
      "arguments": [
        "18709379440522767"
      ],
      "transaction": {
        "from": "0xc77f7fed3b5cc8249adc428c5f44c9063b9734b4",
        "to": "0x8aafd3ede9adb0ff97c7aebce82a919afb1c8764",
        "gas": "0x1724d",
        "value": "0x0",
        "input": "0xe4849b3200000000000000000000000000000000000000000000000000427814db85360f",
        "nonce": "0x1351",
        "chainId": "0xaa36a7"
      },
      "additionalContracts": [],
      "isFixedGasLimit": false
    }
  ],
  "receipts": [
    {
      "status": "0x1",
      "cumulativeGasUsed": "0xa9668e",
      "logs": [
        {
          "address": "0x8aafd3ede9adb0ff97c7aebce82a919afb1c8764",
          "topics": [
            "0xddf252ad1be2c89b69c2b068fc378daa952ba7f163c4a11628f55a4df523b3ef",
            "0x000000000000000000000000c77f7fed3b5cc8249adc428c5f44c9063b9734b4",
            "0x0000000000000000000000000000000000000000000000000000000000000000"
          ],
          "data": "0x0000000000000000000000000000000000000000000000000041eff3ec3239b9",
          "blockHash": "0x90086150619cd8ce54e9e9b602354a7f4053d5c69ac9f13e3a74da45b8bfa01a",
          "blockNumber": "0x731a6c",
          "transactionHash": "0x2db46f053609aa9ef426c93571cb57e50f96e75353af4ce79146b395eee9307f",
          "transactionIndex": "0x84",
          "logIndex": "0x7f",
          "removed": false
        },
        {
          "address": "0x8aafd3ede9adb0ff97c7aebce82a919afb1c8764",
          "topics": [
            "0xddf252ad1be2c89b69c2b068fc378daa952ba7f163c4a11628f55a4df523b3ef",
            "0x000000000000000000000000c77f7fed3b5cc8249adc428c5f44c9063b9734b4",
            "0x000000000000000000000000c77f7fed3b5cc8249adc428c5f44c9063b9734b4"
          ],
          "data": "0x00000000000000000000000000000000000000000000000000008820ef52fc56",
          "blockHash": "0x90086150619cd8ce54e9e9b602354a7f4053d5c69ac9f13e3a74da45b8bfa01a",
          "blockNumber": "0x731a6c",
          "transactionHash": "0x2db46f053609aa9ef426c93571cb57e50f96e75353af4ce79146b395eee9307f",
          "transactionIndex": "0x84",
          "logIndex": "0x80",
          "removed": false
        },
        {
          "address": "0x8aafd3ede9adb0ff97c7aebce82a919afb1c8764",
          "topics": [
            "0x4afcb4a87cdbd9974efdb92ee48bc8d7cd0ae4bf217004db3d080cbaee652ca7"
          ],
          "data": "0x00000000000000000000000000000000000000000000000000000000679039e0000000000000000000000000000000000000000000000000000c2b6662a21d2800000000000000000000000000000000000000000000000000003a4984572e84",
          "blockHash": "0x90086150619cd8ce54e9e9b602354a7f4053d5c69ac9f13e3a74da45b8bfa01a",
          "blockNumber": "0x731a6c",
          "transactionHash": "0x2db46f053609aa9ef426c93571cb57e50f96e75353af4ce79146b395eee9307f",
          "transactionIndex": "0x84",
          "logIndex": "0x81",
          "removed": false
        }
      ],
      "logsBloom": "0x00000000000000000000000000000000000000000600000000000000000000000000000000000000000000000000000000000000000000004000000000000000000000000000004000000008000000000000000000000000000000000000000000000000020000000000000000000800020000000000000000000010000000000000000000000000000000000000000000000000000000000000010000000000000000000000000000000000000000004000000000000000000000000000000000000002000000800000000000000000000000000000080000000000000020000000000000000000000000000000000000000000000000000000000000000000",
      "type": "0x2",
      "transactionHash": "0x2db46f053609aa9ef426c93571cb57e50f96e75353af4ce79146b395eee9307f",
      "transactionIndex": "0x84",
      "blockHash": "0x90086150619cd8ce54e9e9b602354a7f4053d5c69ac9f13e3a74da45b8bfa01a",
      "blockNumber": "0x731a6c",
      "gasUsed": "0xfd33",
      "effectiveGasPrice": "0x40e7557c",
      "from": "0xc77f7fed3b5cc8249adc428c5f44c9063b9734b4",
      "to": "0x8aafd3ede9adb0ff97c7aebce82a919afb1c8764",
      "contractAddress": null
    }
  ],
  "libraries": [],
  "pending": [],
  "returns": {},
  "timestamp": 1737505249,
  "chain": 11155111,
  "commit": "1d2fb70"
}