{
  "transactions": [
    {
      "hash": "0x6650bed3d020c7c16cc0d98ba438caa0cb83a410ca2d072ae6d85c235395909c",
      "transactionType": "CALL",
      "contractName": null,
      "contractAddress": "0x270e88f8683660553e8ba4eb2ad7c91a1710d769",
      "function": "sell(uint256)",
      "arguments": [
        "722249042727034016137"
      ],
      "transaction": {
        "from": "0xc77f7fed3b5cc8249adc428c5f44c9063b9734b4",
        "to": "0x270e88f8683660553e8ba4eb2ad7c91a1710d769",
        "gas": "0x16fec",
        "value": "0x0",
        "input": "0xe4849b3200000000000000000000000000000000000000000000002727380db886c9d189",
        "nonce": "0x808",
        "chainId": "0xaa36a7"
      },
      "additionalContracts": [],
      "isFixedGasLimit": false
    }
  ],
  "receipts": [
    {
      "status": "0x1",
      "cumulativeGasUsed": "0x11ad9a5",
      "logs": [
        {
          "address": "0x270e88f8683660553e8ba4eb2ad7c91a1710d769",
          "topics": [
            "0xddf252ad1be2c89b69c2b068fc378daa952ba7f163c4a11628f55a4df523b3ef",
            "0x000000000000000000000000c77f7fed3b5cc8249adc428c5f44c9063b9734b4",
            "0x0000000000000000000000000000000000000000000000000000000000000000"
          ],
          "data": "0x00000000000000000000000000000000000000000000002727380db886c9d189",
          "blockHash": "0x518e6fc99161ac763c239fccf9bf9605355ee184047d7e49329666dfa4a7f96a",
          "blockNumber": "0x725548",
          "transactionHash": "0x6650bed3d020c7c16cc0d98ba438caa0cb83a410ca2d072ae6d85c235395909c",
          "transactionIndex": "0x4c",
          "logIndex": "0x5e",
          "removed": false
        },
        {
          "address": "0x270e88f8683660553e8ba4eb2ad7c91a1710d769",
          "topics": [
            "0x4afcb4a87cdbd9974efdb92ee48bc8d7cd0ae4bf217004db3d080cbaee652ca7"
          ],
          "data": "0x000000000000000000000000000000000000000000000000000000006786f1680000000000000000000000000000000000000000000000000004e2bc4e298c9f0000000000000000000000000000000000000000000000000dc826a9894c6559",
          "blockHash": "0x518e6fc99161ac763c239fccf9bf9605355ee184047d7e49329666dfa4a7f96a",
          "blockNumber": "0x725548",
          "transactionHash": "0x6650bed3d020c7c16cc0d98ba438caa0cb83a410ca2d072ae6d85c235395909c",
          "transactionIndex": "0x4c",
          "logIndex": "0x5f",
          "removed": false
        }
      ],
      "logsBloom": "0x00000000000000000000000000000000000000000000000000000000000000000000000000000000000000000000000020000000000000004000000000000000000000000000000000000008000000000000000000000000000000000000000000000000020000000000000000000800020000000000000000000010000000000000000000010000000000000000000000000000000000000000010000000000000000000000000000000000000000004000000000000000000000000000000000000002000000800000000000000000000000000000080000008000000020000000000000000000000000000000000000000000000000000000000000000000",
      "type": "0x2",
      "transactionHash": "0x6650bed3d020c7c16cc0d98ba438caa0cb83a410ca2d072ae6d85c235395909c",
      "transactionIndex": "0x4c",
      "blockHash": "0x518e6fc99161ac763c239fccf9bf9605355ee184047d7e49329666dfa4a7f96a",
      "blockNumber": "0x725548",
      "gasUsed": "0xfb93",
      "effectiveGasPrice": "0x87dffdea",
      "from": "0xc77f7fed3b5cc8249adc428c5f44c9063b9734b4",
      "to": "0x270e88f8683660553e8ba4eb2ad7c91a1710d769",
      "contractAddress": null
    }
  ],
  "libraries": [],
  "pending": [],
  "returns": {},
  "timestamp": 1736896873,
  "chain": 11155111,
  "commit": "51a374b"
}