{
  "transactions": [
    {
      "hash": "0xc5bea1f67133ee5b04ddac9619aaadb38700ec9c31f4d6039a0c6f3dfd0d338f",
      "transactionType": "CALL",
      "contractName": null,
      "contractAddress": "0x8aafd3ede9adb0ff97c7aebce82a919afb1c8764",
      "function": "sell(uint256)",
      "arguments": [
        "382457735597017"
      ],
      "transaction": {
        "from": "0xc77f7fed3b5cc8249adc428c5f44c9063b9734b4",
        "to": "0x8aafd3ede9adb0ff97c7aebce82a919afb1c8764",
        "gas": "0x1724d",
        "value": "0x0",
        "input": "0xe4849b3200000000000000000000000000000000000000000000000000015bd7e178cbd9",
        "nonce": "0xed1",
        "chainId": "0xaa36a7"
      },
      "additionalContracts": [],
      "isFixedGasLimit": false
    }
  ],
  "receipts": [
    {
      "status": "0x1",
      "cumulativeGasUsed": "0x10bee42",
      "logs": [
        {
          "address": "0x8aafd3ede9adb0ff97c7aebce82a919afb1c8764",
          "topics": [
            "0xddf252ad1be2c89b69c2b068fc378daa952ba7f163c4a11628f55a4df523b3ef",
            "0x000000000000000000000000c77f7fed3b5cc8249adc428c5f44c9063b9734b4",
            "0x0000000000000000000000000000000000000000000000000000000000000000"
          ],
          "data": "0x0000000000000000000000000000000000000000000000000001590f7f697e71",
          "blockHash": "0x29db3c2d45d2f1f3374539e13318d2898d31e8a7a8cf934f668b39375d48da90",
          "blockNumber": "0x73143d",
          "transactionHash": "0xc5bea1f67133ee5b04ddac9619aaadb38700ec9c31f4d6039a0c6f3dfd0d338f",
          "transactionIndex": "0x83",
          "logIndex": "0xa0",
          "removed": false
        },
        {
          "address": "0x8aafd3ede9adb0ff97c7aebce82a919afb1c8764",
          "topics": [
            "0xddf252ad1be2c89b69c2b068fc378daa952ba7f163c4a11628f55a4df523b3ef",
            "0x000000000000000000000000c77f7fed3b5cc8249adc428c5f44c9063b9734b4",
            "0x000000000000000000000000c77f7fed3b5cc8249adc428c5f44c9063b9734b4"
          ],
          "data": "0x000000000000000000000000000000000000000000000000000002c8620f4d68",
          "blockHash": "0x29db3c2d45d2f1f3374539e13318d2898d31e8a7a8cf934f668b39375d48da90",
          "blockNumber": "0x73143d",
          "transactionHash": "0xc5bea1f67133ee5b04ddac9619aaadb38700ec9c31f4d6039a0c6f3dfd0d338f",
          "transactionIndex": "0x83",
          "logIndex": "0xa1",
          "removed": false
        },
        {
          "address": "0x8aafd3ede9adb0ff97c7aebce82a919afb1c8764",
          "topics": [
            "0x4afcb4a87cdbd9974efdb92ee48bc8d7cd0ae4bf217004db3d080cbaee652ca7"
          ],
          "data": "0x00000000000000000000000000000000000000000000000000000000678fef880000000000000000000000000000000000000000000000000004b97238bfd31d000000000000000000000000000000000000000000000000000000766a775ed1",
          "blockHash": "0x29db3c2d45d2f1f3374539e13318d2898d31e8a7a8cf934f668b39375d48da90",
          "blockNumber": "0x73143d",
          "transactionHash": "0xc5bea1f67133ee5b04ddac9619aaadb38700ec9c31f4d6039a0c6f3dfd0d338f",
          "transactionIndex": "0x83",
          "logIndex": "0xa2",
          "removed": false
        }
      ],
      "logsBloom": "0x00000000000000000000000000000000000000000600000000000000000000000000000000000000000000000000000000000000000000004000000000000000000000000000004000000008000000000000000000000000000000000000000000000000020000000000000000000800020000000000000000000010000000000000000000000000000000000000000000000000000000000000010000000000000000000000000000000000000000004000000000000000000000000000000000000002000000800000000000000000000000000000080000000000000020000000000000000000000000000000000000000000000000000000000000000000",
      "type": "0x2",
      "transactionHash": "0xc5bea1f67133ee5b04ddac9619aaadb38700ec9c31f4d6039a0c6f3dfd0d338f",
      "transactionIndex": "0x83",
      "blockHash": "0x29db3c2d45d2f1f3374539e13318d2898d31e8a7a8cf934f668b39375d48da90",
      "blockNumber": "0x73143d",
      "gasUsed": "0xfd33",
      "effectiveGasPrice": "0x9dd40fa4",
      "from": "0xc77f7fed3b5cc8249adc428c5f44c9063b9734b4",
      "to": "0x8aafd3ede9adb0ff97c7aebce82a919afb1c8764",
      "contractAddress": null
    }
  ],
  "libraries": [],
  "pending": [],
  "returns": {},
  "timestamp": 1737486217,
  "chain": 11155111,
  "commit": "51a374b"
}