{
  "transactions": [
    {
      "hash": "0xd53db2a24c0fe96730e53cd52908071258e60de0d417cc03edc9452f0cf861ca",
      "transactionType": "CALL",
      "contractName": null,
      "contractAddress": "0x270e88f8683660553e8ba4eb2ad7c91a1710d769",
      "function": "sell(uint256)",
      "arguments": [
        "982885054444363023976"
      ],
      "transaction": {
        "from": "0xc77f7fed3b5cc8249adc428c5f44c9063b9734b4",
        "to": "0x270e88f8683660553e8ba4eb2ad7c91a1710d769",
        "gas": "0x16fec",
        "value": "0x0",
        "input": "0xe4849b3200000000000000000000000000000000000000000000003548452d780cbb8668",
        "nonce": "0x515",
        "chainId": "0xaa36a7"
      },
      "additionalContracts": [],
      "isFixedGasLimit": false
    }
  ],
  "receipts": [
    {
      "status": "0x1",
      "cumulativeGasUsed": "0xb2081e",
      "logs": [
        {
          "address": "0x270e88f8683660553e8ba4eb2ad7c91a1710d769",
          "topics": [
            "0xddf252ad1be2c89b69c2b068fc378daa952ba7f163c4a11628f55a4df523b3ef",
            "0x000000000000000000000000c77f7fed3b5cc8249adc428c5f44c9063b9734b4",
            "0x0000000000000000000000000000000000000000000000000000000000000000"
          ],
          "data": "0x00000000000000000000000000000000000000000000003548452d780cbb8668",
          "blockHash": "0x9b33195d7519cb53f786d2fe0ff7ca81255114faae34d7d55ad79a1760e1cf20",
          "blockNumber": "0x7251ac",
          "transactionHash": "0xd53db2a24c0fe96730e53cd52908071258e60de0d417cc03edc9452f0cf861ca",
          "transactionIndex": "0x61",
          "logIndex": "0xe7",
          "removed": false
        },
        {
          "address": "0x270e88f8683660553e8ba4eb2ad7c91a1710d769",
          "topics": [
            "0x4afcb4a87cdbd9974efdb92ee48bc8d7cd0ae4bf217004db3d080cbaee652ca7"
          ],
          "data": "0x000000000000000000000000000000000000000000000000000000006786c5f40000000000000000000000000000000000000000000000000003972651def4ae0000000000000000000000000000000000000000000000000dc841896de6d1e9",
          "blockHash": "0x9b33195d7519cb53f786d2fe0ff7ca81255114faae34d7d55ad79a1760e1cf20",
          "blockNumber": "0x7251ac",
          "transactionHash": "0xd53db2a24c0fe96730e53cd52908071258e60de0d417cc03edc9452f0cf861ca",
          "transactionIndex": "0x61",
          "logIndex": "0xe8",
          "removed": false
        }
      ],
      "logsBloom": "0x00000000000000000000000000000000000000000000000000000000000000000000000000000000000000000000000020000000000000004000000000000000000000000000000000000008000000000000000000000000000000000000000000000000020000000000000000000800020000000000000000000010000000000000000000010000000000000000000000000000000000000000010000000000000000000000000000000000000000004000000000000000000000000000000000000002000000800000000000000000000000000000080000008000000020000000000000000000000000000000000000000000000000000000000000000000",
      "type": "0x2",
      "transactionHash": "0xd53db2a24c0fe96730e53cd52908071258e60de0d417cc03edc9452f0cf861ca",
      "transactionIndex": "0x61",
      "blockHash": "0x9b33195d7519cb53f786d2fe0ff7ca81255114faae34d7d55ad79a1760e1cf20",
      "blockNumber": "0x7251ac",
      "gasUsed": "0xfb93",
      "effectiveGasPrice": "0x4029a90c0",
      "from": "0xc77f7fed3b5cc8249adc428c5f44c9063b9734b4",
      "to": "0x270e88f8683660553e8ba4eb2ad7c91a1710d769",
      "contractAddress": null
    }
  ],
  "libraries": [],
  "pending": [],
  "returns": {},
  "timestamp": 1736885750,
  "chain": 11155111,
  "commit": "51a374b"
}