{
  "transactions": [
    {
      "hash": "0x870c6809b72ab1ec35a0d51cc3564892ce0983bbd772b59249bdec58a6f2618b",
      "transactionType": "CALL",
      "contractName": null,
      "contractAddress": "0x5eb9cc76c3506942c1c0ead70e877dd5e4f00cb0",
      "function": "sell(uint256)",
      "arguments": [
        "989145257496856147073"
      ],
      "transaction": {
        "from": "0xc77f7fed3b5cc8249adc428c5f44c9063b9734b4",
        "to": "0x5eb9cc76c3506942c1c0ead70e877dd5e4f00cb0",
        "gas": "0x16fec",
        "value": "0x0",
        "input": "0xe4849b320000000000000000000000000000000000000000000000359f25e2fa2a66b481",
        "nonce": "0x2e5",
        "chainId": "0xaa36a7"
      },
      "additionalContracts": [],
      "isFixedGasLimit": false
    }
  ],
  "receipts": [
    {
      "status": "0x1",
      "cumulativeGasUsed": "0x10f5c47",
      "logs": [
        {
          "address": "0x5eb9cc76c3506942c1c0ead70e877dd5e4f00cb0",
          "topics": [
            "0xddf252ad1be2c89b69c2b068fc378daa952ba7f163c4a11628f55a4df523b3ef",
            "0x000000000000000000000000c77f7fed3b5cc8249adc428c5f44c9063b9734b4",
            "0x0000000000000000000000000000000000000000000000000000000000000000"
          ],
          "data": "0x0000000000000000000000000000000000000000000000359f25e2fa2a66b481",
          "blockHash": "0x90a613aaa028da7891cdecc7bb4fd548f0d7128e886268c59c6230fe9bc0ea16",
          "blockNumber": "0x724ec2",
          "transactionHash": "0x870c6809b72ab1ec35a0d51cc3564892ce0983bbd772b59249bdec58a6f2618b",
          "transactionIndex": "0x86",
          "logIndex": "0xc6",
          "removed": false
        },
        {
          "address": "0x5eb9cc76c3506942c1c0ead70e877dd5e4f00cb0",
          "topics": [
            "0x4afcb4a87cdbd9974efdb92ee48bc8d7cd0ae4bf217004db3d080cbaee652ca7"
          ],
          "data": "0x000000000000000000000000000000000000000000000000000000006786a2cc0000000000000000000000000000000000000000000000000003910ac6ee9de80000000000000000000000000000000000000000000000000dc7db133237fa65",
          "blockHash": "0x90a613aaa028da7891cdecc7bb4fd548f0d7128e886268c59c6230fe9bc0ea16",
          "blockNumber": "0x724ec2",
          "transactionHash": "0x870c6809b72ab1ec35a0d51cc3564892ce0983bbd772b59249bdec58a6f2618b",
          "transactionIndex": "0x86",
          "logIndex": "0xc7",
          "removed": false
        }
      ],
      "logsBloom": "0x00000000000000000000000000000000000000000000000000000000000000000000000000000000000000000000000000000000000000004000000000000000000000000000000000000008000000000000000000000000000000000000000000000000020000000000000004000800020000000000000000000010000000000000000000000000000000000000000000000000000000000000010000000000000000000000000000000000000000004000000000000000000000000000020000000002000000800000008000000000000000000000080000000000000020000000000000000000000000000000000000000000000000000000000000000000",
      "type": "0x2",
      "transactionHash": "0x870c6809b72ab1ec35a0d51cc3564892ce0983bbd772b59249bdec58a6f2618b",
      "transactionIndex": "0x86",
      "blockHash": "0x90a613aaa028da7891cdecc7bb4fd548f0d7128e886268c59c6230fe9bc0ea16",
      "blockNumber": "0x724ec2",
      "gasUsed": "0xfb93",
      "effectiveGasPrice": "0x48b773a8d",
      "from": "0xc77f7fed3b5cc8249adc428c5f44c9063b9734b4",
      "to": "0x5eb9cc76c3506942c1c0ead70e877dd5e4f00cb0",
      "contractAddress": null
    }
  ],
  "libraries": [],
  "pending": [],
  "returns": {},
  "timestamp": 1736876750,
  "chain": 11155111,
  "commit": "51a374b"
}