{
  "transactions": [
    {
      "hash": "0x8370ff3d133ff25f69632fc659d76c14387b37488d38318777b3e7e033de8f63",
      "transactionType": "CALL",
      "contractName": null,
      "contractAddress": "0x270e88f8683660553e8ba4eb2ad7c91a1710d769",
      "function": "sell(uint256)",
      "arguments": [
        "948459263309808862138"
      ],
      "transaction": {
        "from": "0xc77f7fed3b5cc8249adc428c5f44c9063b9734b4",
        "to": "0x270e88f8683660553e8ba4eb2ad7c91a1710d769",
        "gas": "0x16fec",
        "value": "0x0",
        "input": "0xe4849b320000000000000000000000000000000000000000000000336a8432d3e5d703ba",
        "nonce": "0x5f9",
        "chainId": "0xaa36a7"
      },
      "additionalContracts": [],
      "isFixedGasLimit": false
    }
  ],
  "receipts": [
    {
      "status": "0x1",
      "cumulativeGasUsed": "0x9c94f9",
      "logs": [
        {
          "address": "0x270e88f8683660553e8ba4eb2ad7c91a1710d769",
          "topics": [
            "0xddf252ad1be2c89b69c2b068fc378daa952ba7f163c4a11628f55a4df523b3ef",
            "0x000000000000000000000000c77f7fed3b5cc8249adc428c5f44c9063b9734b4",
            "0x0000000000000000000000000000000000000000000000000000000000000000"
          ],
          "data": "0x0000000000000000000000000000000000000000000000336a8432d3e5d703ba",
          "blockHash": "0x55c948a26229a1f26c38a726deb5315a41032d2f9786d67d701f55d36cda2cf9",
          "blockNumber": "0x7252c0",
          "transactionHash": "0x8370ff3d133ff25f69632fc659d76c14387b37488d38318777b3e7e033de8f63",
          "transactionIndex": "0x61",
          "logIndex": "0xc4",
          "removed": false
        },
        {
          "address": "0x270e88f8683660553e8ba4eb2ad7c91a1710d769",
          "topics": [
            "0x4afcb4a87cdbd9974efdb92ee48bc8d7cd0ae4bf217004db3d080cbaee652ca7"
          ],
          "data": "0x000000000000000000000000000000000000000000000000000000006786d3080000000000000000000000000000000000000000000000000003b88046eb1a670000000000000000000000000000000000000000000000000dc83e0014683fb2",
          "blockHash": "0x55c948a26229a1f26c38a726deb5315a41032d2f9786d67d701f55d36cda2cf9",
          "blockNumber": "0x7252c0",
          "transactionHash": "0x8370ff3d133ff25f69632fc659d76c14387b37488d38318777b3e7e033de8f63",
          "transactionIndex": "0x61",
          "logIndex": "0xc5",
          "removed": false
        }
      ],
      "logsBloom": "0x00000000000000000000000000000000000000000000000000000000000000000000000000000000000000000000000020000000000000004000000000000000000000000000000000000008000000000000000000000000000000000000000000000000020000000000000000000800020000000000000000000010000000000000000000010000000000000000000000000000000000000000010000000000000000000000000000000000000000004000000000000000000000000000000000000002000000800000000000000000000000000000080000008000000020000000000000000000000000000000000000000000000000000000000000000000",
      "type": "0x2",
      "transactionHash": "0x8370ff3d133ff25f69632fc659d76c14387b37488d38318777b3e7e033de8f63",
      "transactionIndex": "0x61",
      "blockHash": "0x55c948a26229a1f26c38a726deb5315a41032d2f9786d67d701f55d36cda2cf9",
      "blockNumber": "0x7252c0",
      "gasUsed": "0xfb93",
      "effectiveGasPrice": "0x2de431ec3",
      "from": "0xc77f7fed3b5cc8249adc428c5f44c9063b9734b4",
      "to": "0x270e88f8683660553e8ba4eb2ad7c91a1710d769",
      "contractAddress": null
    }
  ],
  "libraries": [],
  "pending": [],
  "returns": {},
  "timestamp": 1736889099,
  "chain": 11155111,
  "commit": "51a374b"
}