{
  "transactions": [
    {
      "hash": "0xac25c6b0a1c6a03217bbfdefec815d134ec249b12308587ae77e5a0fd5e9c7c4",
      "transactionType": "CALL",
      "contractName": null,
      "contractAddress": "0x270e88f8683660553e8ba4eb2ad7c91a1710d769",
      "function": "buy(address)",
      "arguments": [
        "0xC77f7fed3b5Cc8249aDc428c5F44C9063B9734b4"
      ],
      "transaction": {
        "from": "0xc77f7fed3b5cc8249adc428c5f44c9063b9734b4",
        "to": "0x270e88f8683660553e8ba4eb2ad7c91a1710d769",
        "gas": "0x1b30c",
        "value": "0xde0b6b3a7640000",
        "input": "0xf088d547000000000000000000000000c77f7fed3b5cc8249adc428c5f44c9063b9734b4",
        "nonce": "0x552",
        "chainId": "0xaa36a7"
      },
      "additionalContracts": [],
      "isFixedGasLimit": false
    }
  ],
  "receipts": [
    {
      "status": "0x1",
      "cumulativeGasUsed": "0x666aeb",
      "logs": [
        {
          "address": "0x270e88f8683660553e8ba4eb2ad7c91a1710d769",
          "topics": [
            "0xddf252ad1be2c89b69c2b068fc378daa952ba7f163c4a11628f55a4df523b3ef",
            "0x0000000000000000000000000000000000000000000000000000000000000000",
            "0x000000000000000000000000c77f7fed3b5cc8249adc428c5f44c9063b9734b4"
          ],
          "data": "0x0000000000000000000000000000000000000000000000349a1e0ecc47f579af",
          "blockHash": "0x5d825b7ca0ed12df3a6264e9eb2e54a7a1726bbeb0b37abdfdecfe2f5081b319",
          "blockNumber": "0x7251f2",
          "transactionHash": "0xac25c6b0a1c6a03217bbfdefec815d134ec249b12308587ae77e5a0fd5e9c7c4",
          "transactionIndex": "0x45",
          "logIndex": "0x57",
          "removed": false
        },
        {
          "address": "0x270e88f8683660553e8ba4eb2ad7c91a1710d769",
          "topics": [
            "0xddf252ad1be2c89b69c2b068fc378daa952ba7f163c4a11628f55a4df523b3ef",
            "0x0000000000000000000000000000000000000000000000000000000000000000",
            "0x000000000000000000000000c77f7fed3b5cc8249adc428c5f44c9063b9734b4"
          ],
          "data": "0x00000000000000000000000000000000000000000000000028d8e6458f7332ae",
          "blockHash": "0x5d825b7ca0ed12df3a6264e9eb2e54a7a1726bbeb0b37abdfdecfe2f5081b319",
          "blockNumber": "0x7251f2",
          "transactionHash": "0xac25c6b0a1c6a03217bbfdefec815d134ec249b12308587ae77e5a0fd5e9c7c4",
          "transactionIndex": "0x45",
          "logIndex": "0x58",
          "removed": false
        },
        {
          "address": "0x270e88f8683660553e8ba4eb2ad7c91a1710d769",
          "topics": [
            "0x4afcb4a87cdbd9974efdb92ee48bc8d7cd0ae4bf217004db3d080cbaee652ca7"
          ],
          "data": "0x000000000000000000000000000000000000000000000000000000006786c9480000000000000000000000000000000000000000000000000003a007b42197ee0000000000000000000000000000000000000000000000000de0b6b3a7640000",
          "blockHash": "0x5d825b7ca0ed12df3a6264e9eb2e54a7a1726bbeb0b37abdfdecfe2f5081b319",
          "blockNumber": "0x7251f2",
          "transactionHash": "0xac25c6b0a1c6a03217bbfdefec815d134ec249b12308587ae77e5a0fd5e9c7c4",
          "transactionIndex": "0x45",
          "logIndex": "0x59",
          "removed": false
        }
      ],
      "logsBloom": "0x00000000000000000000000000000000000000000000000000000000000000000000000000000000000000000000000020000000000000004000000000000000000000000000000000000008000000000000000000000000000000000000000000000000020000000000000000000800020000000000000000000010000000000000000000010000000000000000000000000000000000000000010000000000000000000000000000000000000000004000000000000000000000000000000000000002000000800000000000000000000000000000080000008000000020000000000000000000000000000000000000000000000000000000000000000000",
      "type": "0x2",
      "transactionHash": "0xac25c6b0a1c6a03217bbfdefec815d134ec249b12308587ae77e5a0fd5e9c7c4",
      "transactionIndex": "0x45",
      "blockHash": "0x5d825b7ca0ed12df3a6264e9eb2e54a7a1726bbeb0b37abdfdecfe2f5081b319",
      "blockNumber": "0x7251f2",
      "gasUsed": "0x13af8",
      "effectiveGasPrice": "0x461f91c2b",
      "from": "0xc77f7fed3b5cc8249adc428c5f44c9063b9734b4",
      "to": "0x270e88f8683660553e8ba4eb2ad7c91a1710d769",
      "contractAddress": null
    }
  ],
  "libraries": [],
  "pending": [],
  "returns": {},
  "timestamp": 1736886601,
  "chain": 11155111,
  "commit": "51a374b"
}