{
  "transactions": [
    {
      "hash": "0xf37b8034495be8ec77d82331d3105c5b38538c0b21ce7f6f43972769bfbd8c9e",
      "transactionType": "CALL",
      "contractName": null,
      "contractAddress": "0x270e88f8683660553e8ba4eb2ad7c91a1710d769",
      "function": "sell(uint256)",
      "arguments": [
        "965366198775200066149"
      ],
      "transaction": {
        "from": "0xc77f7fed3b5cc8249adc428c5f44c9063b9734b4",
        "to": "0x270e88f8683660553e8ba4eb2ad7c91a1710d769",
        "gas": "0x16fec",
        "value": "0x0",
        "input": "0xe4849b320000000000000000000000000000000000000000000000345525b30e84efaa65",
        "nonce": "0x587",
        "chainId": "0xaa36a7"
      },
      "additionalContracts": [],
      "isFixedGasLimit": false
    }
  ],
  "receipts": [
    {
      "status": "0x1",
      "cumulativeGasUsed": "0x1b80264",
      "logs": [
        {
          "address": "0x270e88f8683660553e8ba4eb2ad7c91a1710d769",
          "topics": [
            "0xddf252ad1be2c89b69c2b068fc378daa952ba7f163c4a11628f55a4df523b3ef",
            "0x000000000000000000000000c77f7fed3b5cc8249adc428c5f44c9063b9734b4",
            "0x0000000000000000000000000000000000000000000000000000000000000000"
          ],
          "data": "0x0000000000000000000000000000000000000000000000345525b30e84efaa65",
          "blockHash": "0x21d05e837df0b1a37409242ac8677d185bcc38e76104234e06121d1305e04c0a",
          "blockNumber": "0x725236",
          "transactionHash": "0xf37b8034495be8ec77d82331d3105c5b38538c0b21ce7f6f43972769bfbd8c9e",
          "transactionIndex": "0x70",
          "logIndex": "0x105",
          "removed": false
        },
        {
          "address": "0x270e88f8683660553e8ba4eb2ad7c91a1710d769",
          "topics": [
            "0x4afcb4a87cdbd9974efdb92ee48bc8d7cd0ae4bf217004db3d080cbaee652ca7"
          ],
          "data": "0x000000000000000000000000000000000000000000000000000000006786cc780000000000000000000000000000000000000000000000000003a7d3160ffbed0000000000000000000000000000000000000000000000000dc83fbcd6016b16",
          "blockHash": "0x21d05e837df0b1a37409242ac8677d185bcc38e76104234e06121d1305e04c0a",
          "blockNumber": "0x725236",
          "transactionHash": "0xf37b8034495be8ec77d82331d3105c5b38538c0b21ce7f6f43972769bfbd8c9e",
          "transactionIndex": "0x70",
          "logIndex": "0x106",
          "removed": false
        }
      ],
      "logsBloom": "0x00000000000000000000000000000000000000000000000000000000000000000000000000000000000000000000000020000000000000004000000000000000000000000000000000000008000000000000000000000000000000000000000000000000020000000000000000000800020000000000000000000010000000000000000000010000000000000000000000000000000000000000010000000000000000000000000000000000000000004000000000000000000000000000000000000002000000800000000000000000000000000000080000008000000020000000000000000000000000000000000000000000000000000000000000000000",
      "type": "0x2",
      "transactionHash": "0xf37b8034495be8ec77d82331d3105c5b38538c0b21ce7f6f43972769bfbd8c9e",
      "transactionIndex": "0x70",
      "blockHash": "0x21d05e837df0b1a37409242ac8677d185bcc38e76104234e06121d1305e04c0a",
      "blockNumber": "0x725236",
      "gasUsed": "0xfb93",
      "effectiveGasPrice": "0x3ba1e2b71",
      "from": "0xc77f7fed3b5cc8249adc428c5f44c9063b9734b4",
      "to": "0x270e88f8683660553e8ba4eb2ad7c91a1710d769",
      "contractAddress": null
    }
  ],
  "libraries": [],
  "pending": [],
  "returns": {},
  "timestamp": 1736887419,
  "chain": 11155111,
  "commit": "51a374b"
}