{
  "transactions": [
    {
      "hash": "0x111ee1b862bb3e06af28ee1dd93862751aab2a07063585ee8cbcb64d4171aa8c",
      "transactionType": "CALL",
      "contractName": null,
      "contractAddress": "0x5eb9cc76c3506942c1c0ead70e877dd5e4f00cb0",
      "function": "sell(uint256)",
      "arguments": [
        "989615817858223945011"
      ],
      "transaction": {
        "from": "0xc77f7fed3b5cc8249adc428c5f44c9063b9734b4",
        "to": "0x5eb9cc76c3506942c1c0ead70e877dd5e4f00cb0",
        "gas": "0x16fec",
        "value": "0x0",
        "input": "0xe4849b32000000000000000000000000000000000000000000000035a5ada721fb1bb533",
        "nonce": "0x24b",
        "chainId": "0xaa36a7"
      },
      "additionalContracts": [],
      "isFixedGasLimit": false
    }
  ],
  "receipts": [
    {
      "status": "0x1",
      "cumulativeGasUsed": "0xc7dd9c",
      "logs": [
        {
          "address": "0x5eb9cc76c3506942c1c0ead70e877dd5e4f00cb0",
          "topics": [
            "0xddf252ad1be2c89b69c2b068fc378daa952ba7f163c4a11628f55a4df523b3ef",
            "0x000000000000000000000000c77f7fed3b5cc8249adc428c5f44c9063b9734b4",
            "0x0000000000000000000000000000000000000000000000000000000000000000"
          ],
          "data": "0x000000000000000000000000000000000000000000000035a5ada721fb1bb533",
          "blockHash": "0xb23db34a62368ac73cfa6371e37240a82c3e9e0666d454b494ca61834c6174c3",
          "blockNumber": "0x724e04",
          "transactionHash": "0x111ee1b862bb3e06af28ee1dd93862751aab2a07063585ee8cbcb64d4171aa8c",
          "transactionIndex": "0x6c",
          "logIndex": "0x9f",
          "removed": false
        },
        {
          "address": "0x5eb9cc76c3506942c1c0ead70e877dd5e4f00cb0",
          "topics": [
            "0x4afcb4a87cdbd9974efdb92ee48bc8d7cd0ae4bf217004db3d080cbaee652ca7"
          ],
          "data": "0x00000000000000000000000000000000000000000000000000000000678699e40000000000000000000000000000000000000000000000000003909ba14a12770000000000000000000000000000000000000000000000000dc7db11837c2a63",
          "blockHash": "0xb23db34a62368ac73cfa6371e37240a82c3e9e0666d454b494ca61834c6174c3",
          "blockNumber": "0x724e04",
          "transactionHash": "0x111ee1b862bb3e06af28ee1dd93862751aab2a07063585ee8cbcb64d4171aa8c",
          "transactionIndex": "0x6c",
          "logIndex": "0xa0",
          "removed": false
        }
      ],
      "logsBloom": "0x00000000000000000000000000000000000000000000000000000000000000000000000000000000000000000000000000000000000000004000000000000000000000000000000000000008000000000000000000000000000000000000000000000000020000000000000004000800020000000000000000000010000000000000000000000000000000000000000000000000000000000000010000000000000000000000000000000000000000004000000000000000000000000000020000000002000000800000008000000000000000000000080000000000000020000000000000000000000000000000000000000000000000000000000000000000",
      "type": "0x2",
      "transactionHash": "0x111ee1b862bb3e06af28ee1dd93862751aab2a07063585ee8cbcb64d4171aa8c",
      "transactionIndex": "0x6c",
      "blockHash": "0xb23db34a62368ac73cfa6371e37240a82c3e9e0666d454b494ca61834c6174c3",
      "blockNumber": "0x724e04",
      "gasUsed": "0xfb93",
      "effectiveGasPrice": "0x38331791f",
      "from": "0xc77f7fed3b5cc8249adc428c5f44c9063b9734b4",
      "to": "0x5eb9cc76c3506942c1c0ead70e877dd5e4f00cb0",
      "contractAddress": null
    }
  ],
  "libraries": [],
  "pending": [],
  "returns": {},
  "timestamp": 1736874469,
  "chain": 11155111,
  "commit": "51a374b"
}