{
  "transactions": [
    {
      "hash": "0x489965d027668fced931f6b8dcd0e1254e0c9f00a989189933217ad95462da2c",
      "transactionType": "CALL",
      "contractName": null,
      "contractAddress": "0xbf4a322f1496e5c3d34a9bcdb4c60567b38c7de2",
      "function": "sell(uint256)",
      "arguments": [
        "974804040010952821169"
      ],
      "transaction": {
        "from": "0xc77f7fed3b5cc8249adc428c5f44c9063b9734b4",
        "to": "0xbf4a322f1496e5c3d34a9bcdb4c60567b38c7de2",
        "gas": "0x16fea",
        "value": "0x0",
        "input": "0xe4849b32000000000000000000000000000000000000000000000034d81fa5a8248349b1",
        "nonce": "0xd9d",
        "chainId": "0xaa36a7"
      },
      "additionalContracts": [],
      "isFixedGasLimit": false
    }
  ],
  "receipts": [
    {
      "status": "0x1",
      "cumulativeGasUsed": "0x72b386",
      "logs": [
        {
          "address": "0xbf4a322f1496e5c3d34a9bcdb4c60567b38c7de2",
          "topics": [
            "0xddf252ad1be2c89b69c2b068fc378daa952ba7f163c4a11628f55a4df523b3ef",
            "0x000000000000000000000000c77f7fed3b5cc8249adc428c5f44c9063b9734b4",
            "0x0000000000000000000000000000000000000000000000000000000000000000"
          ],
          "data": "0x000000000000000000000000000000000000000000000034d81fa5a8248349b1",
          "blockHash": "0x6e3c721fe23af37ee448cc4df8fe5542fd2054402e6d0cf97a255c268a33fa14",
          "blockNumber": "0x726673",
          "transactionHash": "0x489965d027668fced931f6b8dcd0e1254e0c9f00a989189933217ad95462da2c",
          "transactionIndex": "0x45",
          "logIndex": "0x5f",
          "removed": false
        },
        {
          "address": "0xbf4a322f1496e5c3d34a9bcdb4c60567b38c7de2",
          "topics": [
            "0x4afcb4a87cdbd9974efdb92ee48bc8d7cd0ae4bf217004db3d080cbaee652ca7"
          ],
          "data": "0x000000000000000000000000000000000000000000000000000000006787c02c00000000000000000000000000000000000000000000000000039e7fe7fa1c320000000000000000000000000000000000000000000000000dc7e3d5fc46fccf",
          "blockHash": "0x6e3c721fe23af37ee448cc4df8fe5542fd2054402e6d0cf97a255c268a33fa14",
          "blockNumber": "0x726673",
          "transactionHash": "0x489965d027668fced931f6b8dcd0e1254e0c9f00a989189933217ad95462da2c",
          "transactionIndex": "0x45",
          "logIndex": "0x60",
          "removed": false
        }
      ],
      "logsBloom": "0x00000000000000000000000000000000000000000000000000000000000000000000000000000000000000000000000000000000000000004000000000000000000000000000000000000008000000000000001000000000000000000000000000000000020000000000000000000800020000000000000000000010000000000000000000000000000000000000000000000000000008000000010000000000000000000000000000000000000000004000000000000000000000000000000000000002000000800000000000001000000000000000080000000000000020000000000000000000000000000000000000000000000000000000000000000000",
      "type": "0x2",
      "transactionHash": "0x489965d027668fced931f6b8dcd0e1254e0c9f00a989189933217ad95462da2c",
      "transactionIndex": "0x45",
      "blockHash": "0x6e3c721fe23af37ee448cc4df8fe5542fd2054402e6d0cf97a255c268a33fa14",
      "blockNumber": "0x726673",
      "gasUsed": "0xfb91",
      "effectiveGasPrice": "0x953b7267",
      "from": "0xc77f7fed3b5cc8249adc428c5f44c9063b9734b4",
      "to": "0xbf4a322f1496e5c3d34a9bcdb4c60567b38c7de2",
      "contractAddress": null
    }
  ],
  "libraries": [],
  "pending": [],
  "returns": {},
  "timestamp": 1736949805,
  "chain": 11155111,
  "commit": "51a374b"
}