{
  "transactions": [
    {
      "hash": "0xb5132f4868532cc1db9883b7904c6434fc16ed9f92d0ef4a4df7004c982dca5b",
      "transactionType": "CALL",
      "contractName": null,
      "contractAddress": "0x8aafd3ede9adb0ff97c7aebce82a919afb1c8764",
      "function": "sell(uint256)",
      "arguments": [
        "1405703"
      ],
      "transaction": {
        "from": "0xc77f7fed3b5cc8249adc428c5f44c9063b9734b4",
        "to": "0x8aafd3ede9adb0ff97c7aebce82a919afb1c8764",
        "gas": "0x16208",
        "value": "0x0",
        "input": "0xe4849b320000000000000000000000000000000000000000000000000000000000157307",
        "nonce": "0x128c",
        "chainId": "0xaa36a7"
      },
      "additionalContracts": [],
      "isFixedGasLimit": false
    }
  ],
  "receipts": [
    {
      "status": "0x1",
      "cumulativeGasUsed": "0x957dbc",
      "logs": [
        {
          "address": "0x8aafd3ede9adb0ff97c7aebce82a919afb1c8764",
          "topics": [
            "0xddf252ad1be2c89b69c2b068fc378daa952ba7f163c4a11628f55a4df523b3ef",
            "0x000000000000000000000000c77f7fed3b5cc8249adc428c5f44c9063b9734b4",
            "0x0000000000000000000000000000000000000000000000000000000000000000"
          ],
          "data": "0x000000000000000000000000000000000000000000000000000000000015471a",
          "blockHash": "0x2cc3b834ed5d8cfb61ae45dcf6874f351fc1b54c37df5ae96504a34c445d1725",
          "blockNumber": "0x73197a",
          "transactionHash": "0xb5132f4868532cc1db9883b7904c6434fc16ed9f92d0ef4a4df7004c982dca5b",
          "transactionIndex": "0x6b",
          "logIndex": "0x9c",
          "removed": false
        },
        {
          "address": "0x8aafd3ede9adb0ff97c7aebce82a919afb1c8764",
          "topics": [
            "0xddf252ad1be2c89b69c2b068fc378daa952ba7f163c4a11628f55a4df523b3ef",
            "0x000000000000000000000000c77f7fed3b5cc8249adc428c5f44c9063b9734b4",
            "0x000000000000000000000000c77f7fed3b5cc8249adc428c5f44c9063b9734b4"
          ],
          "data": "0x0000000000000000000000000000000000000000000000000000000000002bed",
          "blockHash": "0x2cc3b834ed5d8cfb61ae45dcf6874f351fc1b54c37df5ae96504a34c445d1725",
          "blockNumber": "0x73197a",
          "transactionHash": "0xb5132f4868532cc1db9883b7904c6434fc16ed9f92d0ef4a4df7004c982dca5b",
          "transactionIndex": "0x6b",
          "logIndex": "0x9d",
          "removed": false
        },
        {
          "address": "0x8aafd3ede9adb0ff97c7aebce82a919afb1c8764",
          "topics": [
            "0x4afcb4a87cdbd9974efdb92ee48bc8d7cd0ae4bf217004db3d080cbaee652ca7"
          ],
          "data": "0x0000000000000000000000000000000000000000000000000000000067902e88000000000000000000000000000000000000000000000000000544d2d08393ec0000000000000000000000000000000000000000000000000000000000000824",
          "blockHash": "0x2cc3b834ed5d8cfb61ae45dcf6874f351fc1b54c37df5ae96504a34c445d1725",
          "blockNumber": "0x73197a",
          "transactionHash": "0xb5132f4868532cc1db9883b7904c6434fc16ed9f92d0ef4a4df7004c982dca5b",
          "transactionIndex": "0x6b",
          "logIndex": "0x9e",
          "removed": false
        }
      ],
      "logsBloom": "0x00000000000000000000000000000000000000000600000000000000000000000000000000000000000000000000000000000000000000004000000000000000000000000000004000000008000000000000000000000000000000000000000000000000020000000000000000000800020000000000000000000010000000000000000000000000000000000000000000000000000000000000010000000000000000000000000000000000000000004000000000000000000000000000000000000002000000800000000000000000000000000000080000000000000020000000000000000000000000000000000000000000000000000000000000000000",
      "type": "0x2",
      "transactionHash": "0xb5132f4868532cc1db9883b7904c6434fc16ed9f92d0ef4a4df7004c982dca5b",
      "transactionIndex": "0x6b",
      "blockHash": "0x2cc3b834ed5d8cfb61ae45dcf6874f351fc1b54c37df5ae96504a34c445d1725",
      "blockNumber": "0x73197a",
      "gasUsed": "0xf213",
      "effectiveGasPrice": "0x41986dce",
      "from": "0xc77f7fed3b5cc8249adc428c5f44c9063b9734b4",
      "to": "0x8aafd3ede9adb0ff97c7aebce82a919afb1c8764",
      "contractAddress": null
    }
  ],
  "libraries": [],
  "pending": [],
  "returns": {},
  "timestamp": 1737502345,
  "chain": 11155111,
  "commit": "1d2fb70"
}