{
  "transactions": [
    {
      "hash": "0x9af0931c73893ce9b525a083201e51c163e06a5cae8187729bc596d2601009f5",
      "transactionType": "CALL",
      "contractName": null,
      "contractAddress": "0xbf4a322f1496e5c3d34a9bcdb4c60567b38c7de2",
      "function": "buy(address)",
      "arguments": [
        "0xC77f7fed3b5Cc8249aDc428c5F44C9063B9734b4"
      ],
      "transaction": {
        "from": "0xc77f7fed3b5cc8249adc428c5f44c9063b9734b4",
        "to": "0xbf4a322f1496e5c3d34a9bcdb4c60567b38c7de2",
        "gas": "0x1b309",
        "value": "0xde0b6b3a7640000",
        "input": "0xf088d547000000000000000000000000c77f7fed3b5cc8249adc428c5f44c9063b9734b4",
        "nonce": "0xbf4",
        "chainId": "0xaa36a7"
      },
      "additionalContracts": [],
      "isFixedGasLimit": false
    }
  ],
  "receipts": [
    {
      "status": "0x1",
      "cumulativeGasUsed": "0xba78c9",
      "logs": [
        {
          "address": "0xbf4a322f1496e5c3d34a9bcdb4c60567b38c7de2",
          "topics": [
            "0xddf252ad1be2c89b69c2b068fc378daa952ba7f163c4a11628f55a4df523b3ef",
            "0x0000000000000000000000000000000000000000000000000000000000000000",
            "0x000000000000000000000000c77f7fed3b5cc8249adc428c5f44c9063b9734b4"
          ],
          "data": "0x000000000000000000000000000000000000000000000034fd99060fe76801f0",
          "blockHash": "0x3599255da1d9ef6392809bbfe051d1bfe1b3c6e1acee0f8e2c134f9f69cf4160",
          "blockNumber": "0x725c1b",
          "transactionHash": "0x9af0931c73893ce9b525a083201e51c163e06a5cae8187729bc596d2601009f5",
          "transactionIndex": "0x5d",
          "logIndex": "0x79",
          "removed": false
        },
        {
          "address": "0xbf4a322f1496e5c3d34a9bcdb4c60567b38c7de2",
          "topics": [
            "0xddf252ad1be2c89b69c2b068fc378daa952ba7f163c4a11628f55a4df523b3ef",
            "0x0000000000000000000000000000000000000000000000000000000000000000",
            "0x000000000000000000000000c77f7fed3b5cc8249adc428c5f44c9063b9734b4"
          ],
          "data": "0x0000000000000000000000000000000000000000000000002926263d492511a0",
          "blockHash": "0x3599255da1d9ef6392809bbfe051d1bfe1b3c6e1acee0f8e2c134f9f69cf4160",
          "blockNumber": "0x725c1b",
          "transactionHash": "0x9af0931c73893ce9b525a083201e51c163e06a5cae8187729bc596d2601009f5",
          "transactionIndex": "0x5d",
          "logIndex": "0x7a",
          "removed": false
        },
        {
          "address": "0xbf4a322f1496e5c3d34a9bcdb4c60567b38c7de2",
          "topics": [
            "0x4afcb4a87cdbd9974efdb92ee48bc8d7cd0ae4bf217004db3d080cbaee652ca7"
          ],
          "data": "0x00000000000000000000000000000000000000000000000000000000678743a0000000000000000000000000000000000000000000000000000399214ccf7aeb0000000000000000000000000000000000000000000000000de0b6b3a7640000",
          "blockHash": "0x3599255da1d9ef6392809bbfe051d1bfe1b3c6e1acee0f8e2c134f9f69cf4160",
          "blockNumber": "0x725c1b",
          "transactionHash": "0x9af0931c73893ce9b525a083201e51c163e06a5cae8187729bc596d2601009f5",
          "transactionIndex": "0x5d",
          "logIndex": "0x7b",
          "removed": false
        }
      ],
      "logsBloom": "0x00000000000000000000000000000000000000000000000000000000000000000000000000000000000000000000000000000000000000004000000000000000000000000000000000000008000000000000001000000000000000000000000000000000020000000000000000000800020000000000000000000010000000000000000000000000000000000000000000000000000008000000010000000000000000000000000000000000000000004000000000000000000000000000000000000002000000800000000000001000000000000000080000000000000020000000000000000000000000000000000000000000000000000000000000000000",
      "type": "0x2",
      "transactionHash": "0x9af0931c73893ce9b525a083201e51c163e06a5cae8187729bc596d2601009f5",
      "transactionIndex": "0x5d",
      "blockHash": "0x3599255da1d9ef6392809bbfe051d1bfe1b3c6e1acee0f8e2c134f9f69cf4160",
      "blockNumber": "0x725c1b",
      "gasUsed": "0x13af6",
      "effectiveGasPrice": "0xd6734f05",
      "from": "0xc77f7fed3b5cc8249adc428c5f44c9063b9734b4",
      "to": "0xbf4a322f1496e5c3d34a9bcdb4c60567b38c7de2",
      "contractAddress": null
    }
  ],
  "libraries": [],
  "pending": [],
  "returns": {},
  "timestamp": 1736917921,
  "chain": 11155111,
  "commit": "51a374b"
}