{
  "transactions": [
    {
      "hash": "0x245eb14cb374f27b96854766556da7a839bfa9e4493030b91bce1400cf47c19f",
      "transactionType": "CALL",
      "contractName": null,
      "contractAddress": "0x270e88f8683660553e8ba4eb2ad7c91a1710d769",
      "function": "sell(uint256)",
      "arguments": [
        "977594138827137296316"
      ],
      "transaction": {
        "from": "0xc77f7fed3b5cc8249adc428c5f44c9063b9734b4",
        "to": "0x270e88f8683660553e8ba4eb2ad7c91a1710d769",
        "gas": "0x16fec",
        "value": "0x0",
        "input": "0xe4849b32000000000000000000000000000000000000000000000034fed811bf5f6d27bc",
        "nonce": "0x537",
        "chainId": "0xaa36a7"
      },
      "additionalContracts": [],
      "isFixedGasLimit": false
    }
  ],
  "receipts": [
    {
      "status": "0x1",
      "cumulativeGasUsed": "0x6a62a6",
      "logs": [
        {
          "address": "0x270e88f8683660553e8ba4eb2ad7c91a1710d769",
          "topics": [
            "0xddf252ad1be2c89b69c2b068fc378daa952ba7f163c4a11628f55a4df523b3ef",
            "0x000000000000000000000000c77f7fed3b5cc8249adc428c5f44c9063b9734b4",
            "0x0000000000000000000000000000000000000000000000000000000000000000"
          ],
          "data": "0x000000000000000000000000000000000000000000000034fed811bf5f6d27bc",
          "blockHash": "0xcd3b4259b18031cae7c9c537301e840cd229313170f71b6b2e92a822a2c32131",
          "blockNumber": "0x7251d2",
          "transactionHash": "0x245eb14cb374f27b96854766556da7a839bfa9e4493030b91bce1400cf47c19f",
          "transactionIndex": "0x44",
          "logIndex": "0x65",
          "removed": false
        },
        {
          "address": "0x270e88f8683660553e8ba4eb2ad7c91a1710d769",
          "topics": [
            "0x4afcb4a87cdbd9974efdb92ee48bc8d7cd0ae4bf217004db3d080cbaee652ca7"
          ],
          "data": "0x000000000000000000000000000000000000000000000000000000006786c7bc00000000000000000000000000000000000000000000000000039c1f6a542e460000000000000000000000000000000000000000000000000dc840fe5a294a69",
          "blockHash": "0xcd3b4259b18031cae7c9c537301e840cd229313170f71b6b2e92a822a2c32131",
          "blockNumber": "0x7251d2",
          "transactionHash": "0x245eb14cb374f27b96854766556da7a839bfa9e4493030b91bce1400cf47c19f",
          "transactionIndex": "0x44",
          "logIndex": "0x66",
          "removed": false
        }
      ],
      "logsBloom": "0x00000000000000000000000000000000000000000000000000000000000000000000000000000000000000000000000020000000000000004000000000000000000000000000000000000008000000000000000000000000000000000000000000000000020000000000000000000800020000000000000000000010000000000000000000010000000000000000000000000000000000000000010000000000000000000000000000000000000000004000000000000000000000000000000000000002000000800000000000000000000000000000080000008000000020000000000000000000000000000000000000000000000000000000000000000000",
      "type": "0x2",
      "transactionHash": "0x245eb14cb374f27b96854766556da7a839bfa9e4493030b91bce1400cf47c19f",
      "transactionIndex": "0x44",
      "blockHash": "0xcd3b4259b18031cae7c9c537301e840cd229313170f71b6b2e92a822a2c32131",
      "blockNumber": "0x7251d2",
      "gasUsed": "0xfb93",
      "effectiveGasPrice": "0x425ad4711",
      "from": "0xc77f7fed3b5cc8249adc428c5f44c9063b9734b4",
      "to": "0x270e88f8683660553e8ba4eb2ad7c91a1710d769",
      "contractAddress": null
    }
  ],
  "libraries": [],
  "pending": [],
  "returns": {},
  "timestamp": 1736886205,
  "chain": 11155111,
  "commit": "51a374b"
}