{
  "transactions": [
    {
      "hash": "0xb158458ff3215006f3749de2310a28f70a2716730017ff9fc04b6a2034fde9d0",
      "transactionType": "CALL",
      "contractName": null,
      "contractAddress": "0xbf4a322f1496e5c3d34a9bcdb4c60567b38c7de2",
      "function": "sell(uint256)",
      "arguments": [
        "988026415495975899182"
      ],
      "transaction": {
        "from": "0xc77f7fed3b5cc8249adc428c5f44c9063b9734b4",
        "to": "0xbf4a322f1496e5c3d34a9bcdb4c60567b38c7de2",
        "gas": "0x16fea",
        "value": "0x0",
        "input": "0xe4849b320000000000000000000000000000000000000000000000358f9ef61af425902e",
        "nonce": "0x9c7",
        "chainId": "0xaa36a7"
      },
      "additionalContracts": [],
      "isFixedGasLimit": false
    }
  ],
  "receipts": [
    {
      "status": "0x1",
      "cumulativeGasUsed": "0x1372839",
      "logs": [
        {
          "address": "0xbf4a322f1496e5c3d34a9bcdb4c60567b38c7de2",
          "topics": [
            "0xddf252ad1be2c89b69c2b068fc378daa952ba7f163c4a11628f55a4df523b3ef",
            "0x000000000000000000000000c77f7fed3b5cc8249adc428c5f44c9063b9734b4",
            "0x0000000000000000000000000000000000000000000000000000000000000000"
          ],
          "data": "0x0000000000000000000000000000000000000000000000358f9ef61af425902e",
          "blockHash": "0xa225ace3161a906e71ca5a5e5d4023270b13b27612261a033100f01f5f7b946e",
          "blockNumber": "0x725973",
          "transactionHash": "0xb158458ff3215006f3749de2310a28f70a2716730017ff9fc04b6a2034fde9d0",
          "transactionIndex": "0xad",
          "logIndex": "0x13b",
          "removed": false
        },
        {
          "address": "0xbf4a322f1496e5c3d34a9bcdb4c60567b38c7de2",
          "topics": [
            "0x4afcb4a87cdbd9974efdb92ee48bc8d7cd0ae4bf217004db3d080cbaee652ca7"
          ],
          "data": "0x000000000000000000000000000000000000000000000000000000006787239c00000000000000000000000000000000000000000000000000039219da24b5500000000000000000000000000000000000000000000000000dc7e3f4ba4f9684",
          "blockHash": "0xa225ace3161a906e71ca5a5e5d4023270b13b27612261a033100f01f5f7b946e",
          "blockNumber": "0x725973",
          "transactionHash": "0xb158458ff3215006f3749de2310a28f70a2716730017ff9fc04b6a2034fde9d0",
          "transactionIndex": "0xad",
          "logIndex": "0x13c",
          "removed": false
        }
      ],
      "logsBloom": "0x00000000000000000000000000000000000000000000000000000000000000000000000000000000000000000000000000000000000000004000000000000000000000000000000000000008000000000000001000000000000000000000000000000000020000000000000000000800020000000000000000000010000000000000000000000000000000000000000000000000000008000000010000000000000000000000000000000000000000004000000000000000000000000000000000000002000000800000000000001000000000000000080000000000000020000000000000000000000000000000000000000000000000000000000000000000",
      "type": "0x2",
      "transactionHash": "0xb158458ff3215006f3749de2310a28f70a2716730017ff9fc04b6a2034fde9d0",
      "transactionIndex": "0xad",
      "blockHash": "0xa225ace3161a906e71ca5a5e5d4023270b13b27612261a033100f01f5f7b946e",
      "blockNumber": "0x725973",
      "gasUsed": "0xfb91",
      "effectiveGasPrice": "0x2d69e018b",
      "from": "0xc77f7fed3b5cc8249adc428c5f44c9063b9734b4",
      "to": "0xbf4a322f1496e5c3d34a9bcdb4c60567b38c7de2",
      "contractAddress": null
    }
  ],
  "libraries": [],
  "pending": [],
  "returns": {},
  "timestamp": 1736909726,
  "chain": 11155111,
  "commit": "51a374b"
}