{
  "transactions": [
    {
      "hash": "0x161ef6aea434b0df55b8615ec0e16dcd0f6cc307c5b7553a76c2bf7bd896cfaa",
      "transactionType": "CALL",
      "contractName": null,
      "contractAddress": "0x8aafd3ede9adb0ff97c7aebce82a919afb1c8764",
      "function": "sell(uint256)",
      "arguments": [
        "44984462278254696"
      ],
      "transaction": {
        "from": "0xc77f7fed3b5cc8249adc428c5f44c9063b9734b4",
        "to": "0x8aafd3ede9adb0ff97c7aebce82a919afb1c8764",
        "gas": "0x1724d",
        "value": "0x0",
        "input": "0xe4849b32000000000000000000000000000000000000000000000000009fd1214e81e068",
        "nonce": "0x10d9",
        "chainId": "0xaa36a7"
      },
      "additionalContracts": [],
      "isFixedGasLimit": false
    }
  ],
  "receipts": [
    {
      "status": "0x1",
      "cumulativeGasUsed": "0x220efd1",
      "logs": [
        {
          "address": "0x8aafd3ede9adb0ff97c7aebce82a919afb1c8764",
          "topics": [
            "0xddf252ad1be2c89b69c2b068fc378daa952ba7f163c4a11628f55a4df523b3ef",
            "0x000000000000000000000000c77f7fed3b5cc8249adc428c5f44c9063b9734b4",
            "0x0000000000000000000000000000000000000000000000000000000000000000"
          ],
          "data": "0x000000000000000000000000000000000000000000000000009e89d33759ecf3",
          "blockHash": "0xb91bf9563ab6fc1781516af43edd0b377956943dc55c7782bef85abb97f73f8b",
          "blockNumber": "0x73177a",
          "transactionHash": "0x161ef6aea434b0df55b8615ec0e16dcd0f6cc307c5b7553a76c2bf7bd896cfaa",
          "transactionIndex": "0x65",
          "logIndex": "0x110e",
          "removed": false
        },
        {
          "address": "0x8aafd3ede9adb0ff97c7aebce82a919afb1c8764",
          "topics": [
            "0xddf252ad1be2c89b69c2b068fc378daa952ba7f163c4a11628f55a4df523b3ef",
            "0x000000000000000000000000c77f7fed3b5cc8249adc428c5f44c9063b9734b4",
            "0x000000000000000000000000c77f7fed3b5cc8249adc428c5f44c9063b9734b4"
          ],
          "data": "0x0000000000000000000000000000000000000000000000000001474e1727f375",
          "blockHash": "0xb91bf9563ab6fc1781516af43edd0b377956943dc55c7782bef85abb97f73f8b",
          "blockNumber": "0x73177a",
          "transactionHash": "0x161ef6aea434b0df55b8615ec0e16dcd0f6cc307c5b7553a76c2bf7bd896cfaa",
          "transactionIndex": "0x65",
          "logIndex": "0x110f",
          "removed": false
        },
        {
          "address": "0x8aafd3ede9adb0ff97c7aebce82a919afb1c8764",
          "topics": [
            "0x4afcb4a87cdbd9974efdb92ee48bc8d7cd0ae4bf217004db3d080cbaee652ca7"
          ],
          "data": "0x000000000000000000000000000000000000000000000000000000006790167c000000000000000000000000000000000000000000000000000506595a3ff431000000000000000000000000000000000000000000000000000039dd9f9a257a",
          "blockHash": "0xb91bf9563ab6fc1781516af43edd0b377956943dc55c7782bef85abb97f73f8b",
          "blockNumber": "0x73177a",
          "transactionHash": "0x161ef6aea434b0df55b8615ec0e16dcd0f6cc307c5b7553a76c2bf7bd896cfaa",
          "transactionIndex": "0x65",
          "logIndex": "0x1110",
          "removed": false
        }
      ],
      "logsBloom": "0x00000000000000000000000000000000000000000600000000000000000000000000000000000000000000000000000000000000000000004000000000000000000000000000004000000008000000000000000000000000000000000000000000000000020000000000000000000800020000000000000000000010000000000000000000000000000000000000000000000000000000000000010000000000000000000000000000000000000000004000000000000000000000000000000000000002000000800000000000000000000000000000080000000000000020000000000000000000000000000000000000000000000000000000000000000000",
      "type": "0x2",
      "transactionHash": "0x161ef6aea434b0df55b8615ec0e16dcd0f6cc307c5b7553a76c2bf7bd896cfaa",
      "transactionIndex": "0x65",
      "blockHash": "0xb91bf9563ab6fc1781516af43edd0b377956943dc55c7782bef85abb97f73f8b",
      "blockNumber": "0x73177a",
      "gasUsed": "0xfd33",
      "effectiveGasPrice": "0x3951b9c6",
      "from": "0xc77f7fed3b5cc8249adc428c5f44c9063b9734b4",
      "to": "0x8aafd3ede9adb0ff97c7aebce82a919afb1c8764",
      "contractAddress": null
    }
  ],
  "libraries": [],
  "pending": [],
  "returns": {},
  "timestamp": 1737496189,
  "chain": 11155111,
  "commit": "1d2fb70"
}