{
  "transactions": [
    {
      "hash": "0x0e7fad9cd6b28289112b34201cc1bf0fd811fd80b03788b7f0fd845749425161",
      "transactionType": "CALL",
      "contractName": null,
      "contractAddress": "0x8aafd3ede9adb0ff97c7aebce82a919afb1c8764",
      "function": "sell(uint256)",
      "arguments": [
        "8252574445"
      ],
      "transaction": {
        "from": "0xc77f7fed3b5cc8249adc428c5f44c9063b9734b4",
        "to": "0x8aafd3ede9adb0ff97c7aebce82a919afb1c8764",
        "gas": "0x1722a",
        "value": "0x0",
        "input": "0xe4849b3200000000000000000000000000000000000000000000000000000001ebe44aed",
        "nonce": "0x13ff",
        "chainId": "0xaa36a7"
      },
      "additionalContracts": [],
      "isFixedGasLimit": false
    }
  ],
  "receipts": [
    {
      "status": "0x1",
      "cumulativeGasUsed": "0x18a0acc",
      "logs": [
        {
          "address": "0x8aafd3ede9adb0ff97c7aebce82a919afb1c8764",
          "topics": [
            "0xddf252ad1be2c89b69c2b068fc378daa952ba7f163c4a11628f55a4df523b3ef",
            "0x000000000000000000000000c77f7fed3b5cc8249adc428c5f44c9063b9734b4",
            "0x0000000000000000000000000000000000000000000000000000000000000000"
          ],
          "data": "0x00000000000000000000000000000000000000000000000000000001e7f4e5fa",
          "blockHash": "0x2ef02610d72c3e66bbb7ecd6604ef6776124294d705c1c7cc5f459cceec5f407",
          "blockNumber": "0x731b35",
          "transactionHash": "0x0e7fad9cd6b28289112b34201cc1bf0fd811fd80b03788b7f0fd845749425161",
          "transactionIndex": "0xf9",
          "logIndex": "0x103",
          "removed": false
        },
        {
          "address": "0x8aafd3ede9adb0ff97c7aebce82a919afb1c8764",
          "topics": [
            "0xddf252ad1be2c89b69c2b068fc378daa952ba7f163c4a11628f55a4df523b3ef",
            "0x000000000000000000000000c77f7fed3b5cc8249adc428c5f44c9063b9734b4",
            "0x000000000000000000000000c77f7fed3b5cc8249adc428c5f44c9063b9734b4"
          ],
          "data": "0x0000000000000000000000000000000000000000000000000000000003ef64f3",
          "blockHash": "0x2ef02610d72c3e66bbb7ecd6604ef6776124294d705c1c7cc5f459cceec5f407",
          "blockNumber": "0x731b35",
          "transactionHash": "0x0e7fad9cd6b28289112b34201cc1bf0fd811fd80b03788b7f0fd845749425161",
          "transactionIndex": "0xf9",
          "logIndex": "0x104",
          "removed": false
        },
        {
          "address": "0x8aafd3ede9adb0ff97c7aebce82a919afb1c8764",
          "topics": [
            "0x4afcb4a87cdbd9974efdb92ee48bc8d7cd0ae4bf217004db3d080cbaee652ca7"
          ],
          "data": "0x000000000000000000000000000000000000000000000000000000006790434c000000000000000000000000000000000000000000000000000e1c44b93a1df90000000000000000000000000000000000000000000000000000000001f4232f",
          "blockHash": "0x2ef02610d72c3e66bbb7ecd6604ef6776124294d705c1c7cc5f459cceec5f407",
          "blockNumber": "0x731b35",
          "transactionHash": "0x0e7fad9cd6b28289112b34201cc1bf0fd811fd80b03788b7f0fd845749425161",
          "transactionIndex": "0xf9",
          "logIndex": "0x105",
          "removed": false
        }
      ],
      "logsBloom": "0x00000000000000000000000000000000000000000600000000000000000000000000000000000000000000000000000000000000000000004000000000000000000000000000004000000008000000000000000000000000000000000000000000000000020000000000000000000800020000000000000000000010000000000000000000000000000000000000000000000000000000000000010000000000000000000000000000000000000000004000000000000000000000000000000000000002000000800000000000000000000000000000080000000000000020000000000000000000000000000000000000000000000000000000000000000000",
      "type": "0x2",
      "transactionHash": "0x0e7fad9cd6b28289112b34201cc1bf0fd811fd80b03788b7f0fd845749425161",
      "transactionIndex": "0xf9",
      "blockHash": "0x2ef02610d72c3e66bbb7ecd6604ef6776124294d705c1c7cc5f459cceec5f407",
      "blockNumber": "0x731b35",
      "gasUsed": "0xfd1b",
      "effectiveGasPrice": "0xaadf6310",
      "from": "0xc77f7fed3b5cc8249adc428c5f44c9063b9734b4",
      "to": "0x8aafd3ede9adb0ff97c7aebce82a919afb1c8764",
      "contractAddress": null
    }
  ],
  "libraries": [],
  "pending": [],
  "returns": {},
  "timestamp": 1737507661,
  "chain": 11155111,
  "commit": "1d2fb70"
}