{
  "transactions": [
    {
      "hash": "0x314591b429b0cf778b92db1fcf2076bb5eaae6d1f0ddb8e3ccc641a4f5462bd9",
      "transactionType": "CALL",
      "contractName": null,
      "contractAddress": "0x8aafd3ede9adb0ff97c7aebce82a919afb1c8764",
      "function": "sell(uint256)",
      "arguments": [
        "70667712"
      ],
      "transaction": {
        "from": "0xc77f7fed3b5cc8249adc428c5f44c9063b9734b4",
        "to": "0x8aafd3ede9adb0ff97c7aebce82a919afb1c8764",
        "gas": "0x15d88",
        "value": "0x0",
        "input": "0xe4849b320000000000000000000000000000000000000000000000000000000004364dc0",
        "nonce": "0x13af",
        "chainId": "0xaa36a7"
      },
      "additionalContracts": [],
      "isFixedGasLimit": false
    }
  ],
  "receipts": [
    {
      "status": "0x1",
      "cumulativeGasUsed": "0xfc04f9",
      "logs": [
        {
          "address": "0x8aafd3ede9adb0ff97c7aebce82a919afb1c8764",
          "topics": [
            "0xddf252ad1be2c89b69c2b068fc378daa952ba7f163c4a11628f55a4df523b3ef",
            "0x000000000000000000000000c77f7fed3b5cc8249adc428c5f44c9063b9734b4",
            "0x0000000000000000000000000000000000000000000000000000000000000000"
          ],
          "data": "0x00000000000000000000000000000000000000000000000000000000042dad63",
          "blockHash": "0x7695877e9b17a51cf9dc3b535facbc15d3331c54517efd316cfa409cf80b82cb",
          "blockNumber": "0x731ad7",
          "transactionHash": "0x314591b429b0cf778b92db1fcf2076bb5eaae6d1f0ddb8e3ccc641a4f5462bd9",
          "transactionIndex": "0x88",
          "logIndex": "0xb3",
          "removed": false
        },
        {
          "address": "0x8aafd3ede9adb0ff97c7aebce82a919afb1c8764",
          "topics": [
            "0xddf252ad1be2c89b69c2b068fc378daa952ba7f163c4a11628f55a4df523b3ef",
            "0x000000000000000000000000c77f7fed3b5cc8249adc428c5f44c9063b9734b4",
            "0x000000000000000000000000c77f7fed3b5cc8249adc428c5f44c9063b9734b4"
          ],
          "data": "0x000000000000000000000000000000000000000000000000000000000008a05d",
          "blockHash": "0x7695877e9b17a51cf9dc3b535facbc15d3331c54517efd316cfa409cf80b82cb",
          "blockNumber": "0x731ad7",
          "transactionHash": "0x314591b429b0cf778b92db1fcf2076bb5eaae6d1f0ddb8e3ccc641a4f5462bd9",
          "transactionIndex": "0x88",
          "logIndex": "0xb4",
          "removed": false
        },
        {
          "address": "0x8aafd3ede9adb0ff97c7aebce82a919afb1c8764",
          "topics": [
            "0x4afcb4a87cdbd9974efdb92ee48bc8d7cd0ae4bf217004db3d080cbaee652ca7"
          ],
          "data": "0x0000000000000000000000000000000000000000000000000000000067903ee4000000000000000000000000000000000000000000000000000d3058333ccb3400000000000000000000000000000000000000000000000000000000000400c5",
          "blockHash": "0x7695877e9b17a51cf9dc3b535facbc15d3331c54517efd316cfa409cf80b82cb",
          "blockNumber": "0x731ad7",
          "transactionHash": "0x314591b429b0cf778b92db1fcf2076bb5eaae6d1f0ddb8e3ccc641a4f5462bd9",
          "transactionIndex": "0x88",
          "logIndex": "0xb5",
          "removed": false
        }
      ],
      "logsBloom": "0x00000000000000000000000000000000000000000600000000000000000000000000000000000000000000000000000000000000000000004000000000000000000000000000004000000008000000000000000000000000000000000000000000000000020000000000000000000800020000000000000000000010000000000000000000000000000000000000000000000000000000000000010000000000000000000000000000000000000000004000000000000000000000000000000000000002000000800000000000000000000000000000080000000000000020000000000000000000000000000000000000000000000000000000000000000000",
      "type": "0x2",
      "transactionHash": "0x314591b429b0cf778b92db1fcf2076bb5eaae6d1f0ddb8e3ccc641a4f5462bd9",
      "transactionIndex": "0x88",
      "blockHash": "0x7695877e9b17a51cf9dc3b535facbc15d3331c54517efd316cfa409cf80b82cb",
      "blockNumber": "0x731ad7",
      "gasUsed": "0xfd0f",
      "effectiveGasPrice": "0x88e8a6a0",
      "from": "0xc77f7fed3b5cc8249adc428c5f44c9063b9734b4",
      "to": "0x8aafd3ede9adb0ff97c7aebce82a919afb1c8764",
      "contractAddress": null
    }
  ],
  "libraries": [],
  "pending": [],
  "returns": {},
  "timestamp": 1737506533,
  "chain": 11155111,
  "commit": "1d2fb70"
}