{
  "transactions": [
    {
      "hash": "0xd0ff61a574ada9262f71be757b948fca8d144e4efa03a657f9de6a5aa93d7599",
      "transactionType": "CALL",
      "contractName": null,
      "contractAddress": "0x5eb9cc76c3506942c1c0ead70e877dd5e4f00cb0",
      "function": "sell(uint256)",
      "arguments": [
        "989621796079123565007"
      ],
      "transaction": {
        "from": "0xc77f7fed3b5cc8249adc428c5f44c9063b9734b4",
        "to": "0x5eb9cc76c3506942c1c0ead70e877dd5e4f00cb0",
        "gas": "0x15b6b",
        "value": "0x0",
        "input": "0xe4849b32000000000000000000000000000000000000000000000035a5c2e44b003809cf",
        "nonce": "0x223",
        "chainId": "0xaa36a7"
      },
      "additionalContracts": [],
      "isFixedGasLimit": false
    }
  ],
  "receipts": [
    {
      "status": "0x1",
      "cumulativeGasUsed": "0x1297e0f",
      "logs": [
        {
          "address": "0x5eb9cc76c3506942c1c0ead70e877dd5e4f00cb0",
          "topics": [
            "0xddf252ad1be2c89b69c2b068fc378daa952ba7f163c4a11628f55a4df523b3ef",
            "0x000000000000000000000000c77f7fed3b5cc8249adc428c5f44c9063b9734b4",
            "0x0000000000000000000000000000000000000000000000000000000000000000"
          ],
          "data": "0x000000000000000000000000000000000000000000000035a5c2e44b003809cf",
          "blockHash": "0x1a4fdc3f87a20272e476584d2e66dfcbf9d67599bb59abd329086ac562748f21",
          "blockNumber": "0x724dd1",
          "transactionHash": "0xd0ff61a574ada9262f71be757b948fca8d144e4efa03a657f9de6a5aa93d7599",
          "transactionIndex": "0x94",
          "logIndex": "0x145",
          "removed": false
        },
        {
          "address": "0x5eb9cc76c3506942c1c0ead70e877dd5e4f00cb0",
          "topics": [
            "0x4afcb4a87cdbd9974efdb92ee48bc8d7cd0ae4bf217004db3d080cbaee652ca7"
          ],
          "data": "0x00000000000000000000000000000000000000000000000000000000678697800000000000000000000000000000000000000000000000000003909a37fd880b0000000000000000000000000000000000000000000000000dc7db11838621c2",
          "blockHash": "0x1a4fdc3f87a20272e476584d2e66dfcbf9d67599bb59abd329086ac562748f21",
          "blockNumber": "0x724dd1",
          "transactionHash": "0xd0ff61a574ada9262f71be757b948fca8d144e4efa03a657f9de6a5aa93d7599",
          "transactionIndex": "0x94",
          "logIndex": "0x146",
          "removed": false
        }
      ],
      "logsBloom": "0x00000000000000000000000000000000000000000000000000000000000000000000000000000000000000000000000000000000000000004000000000000000000000000000000000000008000000000000000000000000000000000000000000000000020000000000000004000800020000000000000000000010000000000000000000000000000000000000000000000000000000000000010000000000000000000000000000000000000000004000000000000000000000000000020000000002000000800000008000000000000000000000080000000000000020000000000000000000000000000000000000000000000000000000000000000000",
      "type": "0x2",
      "transactionHash": "0xd0ff61a574ada9262f71be757b948fca8d144e4efa03a657f9de6a5aa93d7599",
      "transactionIndex": "0x94",
      "blockHash": "0x1a4fdc3f87a20272e476584d2e66dfcbf9d67599bb59abd329086ac562748f21",
      "blockNumber": "0x724dd1",
      "gasUsed": "0xfb87",
      "effectiveGasPrice": "0x3e0775fa2",
      "from": "0xc77f7fed3b5cc8249adc428c5f44c9063b9734b4",
      "to": "0x5eb9cc76c3506942c1c0ead70e877dd5e4f00cb0",
      "contractAddress": null
    }
  ],
  "libraries": [],
  "pending": [],
  "returns": {},
  "timestamp": 1736873856,
  "chain": 11155111,
  "commit": "51a374b"
}