{
  "transactions": [
    {
      "hash": "0x48583eeeecff4f7134c151fa7457051a6baaf8cc463a3df32e674c2e58ac5c13",
      "transactionType": "CALL",
      "contractName": null,
      "contractAddress": "0xbf4a322f1496e5c3d34a9bcdb4c60567b38c7de2",
      "function": "sell(uint256)",
      "arguments": [
        "987889961015928602246"
      ],
      "transaction": {
        "from": "0xc77f7fed3b5cc8249adc428c5f44c9063b9734b4",
        "to": "0xbf4a322f1496e5c3d34a9bcdb4c60567b38c7de2",
        "gas": "0x16fea",
        "value": "0x0",
        "input": "0xe4849b320000000000000000000000000000000000000000000000358dba2d7a88eabe86",
        "nonce": "0x9d1",
        "chainId": "0xaa36a7"
      },
      "additionalContracts": [],
      "isFixedGasLimit": false
    }
  ],
  "receipts": [
    {
      "status": "0x1",
      "cumulativeGasUsed": "0x8c5f56",
      "logs": [
        {
          "address": "0xbf4a322f1496e5c3d34a9bcdb4c60567b38c7de2",
          "topics": [
            "0xddf252ad1be2c89b69c2b068fc378daa952ba7f163c4a11628f55a4df523b3ef",
            "0x000000000000000000000000c77f7fed3b5cc8249adc428c5f44c9063b9734b4",
            "0x0000000000000000000000000000000000000000000000000000000000000000"
          ],
          "data": "0x0000000000000000000000000000000000000000000000358dba2d7a88eabe86",
          "blockHash": "0x1b6f4aeb497e73e9f839fc9a0c887420b1819ecb3cb1ce7d39ec82ed26f6777c",
          "blockNumber": "0x725981",
          "transactionHash": "0x48583eeeecff4f7134c151fa7457051a6baaf8cc463a3df32e674c2e58ac5c13",
          "transactionIndex": "0x58",
          "logIndex": "0x8b",
          "removed": false
        },
        {
          "address": "0xbf4a322f1496e5c3d34a9bcdb4c60567b38c7de2",
          "topics": [
            "0x4afcb4a87cdbd9974efdb92ee48bc8d7cd0ae4bf217004db3d080cbaee652ca7"
          ],
          "data": "0x00000000000000000000000000000000000000000000000000000000678724440000000000000000000000000000000000000000000000000003923a2ca2ac180000000000000000000000000000000000000000000000000dc7e3f469180b3f",
          "blockHash": "0x1b6f4aeb497e73e9f839fc9a0c887420b1819ecb3cb1ce7d39ec82ed26f6777c",
          "blockNumber": "0x725981",
          "transactionHash": "0x48583eeeecff4f7134c151fa7457051a6baaf8cc463a3df32e674c2e58ac5c13",
          "transactionIndex": "0x58",
          "logIndex": "0x8c",
          "removed": false
        }
      ],
      "logsBloom": "0x00000000000000000000000000000000000000000000000000000000000000000000000000000000000000000000000000000000000000004000000000000000000000000000000000000008000000000000001000000000000000000000000000000000020000000000000000000800020000000000000000000010000000000000000000000000000000000000000000000000000008000000010000000000000000000000000000000000000000004000000000000000000000000000000000000002000000800000000000001000000000000000080000000000000020000000000000000000000000000000000000000000000000000000000000000000",
      "type": "0x2",
      "transactionHash": "0x48583eeeecff4f7134c151fa7457051a6baaf8cc463a3df32e674c2e58ac5c13",
      "transactionIndex": "0x58",
      "blockHash": "0x1b6f4aeb497e73e9f839fc9a0c887420b1819ecb3cb1ce7d39ec82ed26f6777c",
      "blockNumber": "0x725981",
      "gasUsed": "0xfb91",
      "effectiveGasPrice": "0x2fd2636ac",
      "from": "0xc77f7fed3b5cc8249adc428c5f44c9063b9734b4",
      "to": "0xbf4a322f1496e5c3d34a9bcdb4c60567b38c7de2",
      "contractAddress": null
    }
  ],
  "libraries": [],
  "pending": [],
  "returns": {},
  "timestamp": 1736909893,
  "chain": 11155111,
  "commit": "51a374b"
}