{
  "transactions": [
    {
      "hash": "0x43ae9a5a824c57dbdf0f6550b440ba676ed267dc646307d77dcb7f123d8c4ac3",
      "transactionType": "CALL",
      "contractName": null,
      "contractAddress": "0xbf4a322f1496e5c3d34a9bcdb4c60567b38c7de2",
      "function": "buy(address)",
      "arguments": [
        "0xC77f7fed3b5Cc8249aDc428c5F44C9063B9734b4"
      ],
      "transaction": {
        "from": "0xc77f7fed3b5cc8249adc428c5f44c9063b9734b4",
        "to": "0xbf4a322f1496e5c3d34a9bcdb4c60567b38c7de2",
        "gas": "0x1b309",
        "value": "0xde0b6b3a7640000",
        "input": "0xf088d547000000000000000000000000c77f7fed3b5cc8249adc428c5f44c9063b9734b4",
        "nonce": "0xbae",
        "chainId": "0xaa36a7"
      },
      "additionalContracts": [],
      "isFixedGasLimit": false
    }
  ],
  "receipts": [
    {
      "status": "0x1",
      "cumulativeGasUsed": "0xc3b35a",
      "logs": [
        {
          "address": "0xbf4a322f1496e5c3d34a9bcdb4c60567b38c7de2",
          "topics": [
            "0xddf252ad1be2c89b69c2b068fc378daa952ba7f163c4a11628f55a4df523b3ef",
            "0x0000000000000000000000000000000000000000000000000000000000000000",
            "0x000000000000000000000000c77f7fed3b5cc8249adc428c5f44c9063b9734b4"
          ],
          "data": "0x0000000000000000000000000000000000000000000000350aa05d20cee07ebd",
          "blockHash": "0x440e3c16851372512d2399ede7f9fdf5111196fbf16651aa9757bb9a501e97ac",
          "blockNumber": "0x725bc6",
          "transactionHash": "0x43ae9a5a824c57dbdf0f6550b440ba676ed267dc646307d77dcb7f123d8c4ac3",
          "transactionIndex": "0x40",
          "logIndex": "0x5d",
          "removed": false
        },
        {
          "address": "0xbf4a322f1496e5c3d34a9bcdb4c60567b38c7de2",
          "topics": [
            "0xddf252ad1be2c89b69c2b068fc378daa952ba7f163c4a11628f55a4df523b3ef",
            "0x0000000000000000000000000000000000000000000000000000000000000000",
            "0x000000000000000000000000c77f7fed3b5cc8249adc428c5f44c9063b9734b4"
          ],
          "data": "0x0000000000000000000000000000000000000000000000002930443ea838182d",
          "blockHash": "0x440e3c16851372512d2399ede7f9fdf5111196fbf16651aa9757bb9a501e97ac",
          "blockNumber": "0x725bc6",
          "transactionHash": "0x43ae9a5a824c57dbdf0f6550b440ba676ed267dc646307d77dcb7f123d8c4ac3",
          "transactionIndex": "0x40",
          "logIndex": "0x5e",
          "removed": false
        },
        {
          "address": "0xbf4a322f1496e5c3d34a9bcdb4c60567b38c7de2",
          "topics": [
            "0x4afcb4a87cdbd9974efdb92ee48bc8d7cd0ae4bf217004db3d080cbaee652ca7"
          ],
          "data": "0x0000000000000000000000000000000000000000000000000000000067873fa40000000000000000000000000000000000000000000000000003983f0b28d5d60000000000000000000000000000000000000000000000000de0b6b3a7640000",
          "blockHash": "0x440e3c16851372512d2399ede7f9fdf5111196fbf16651aa9757bb9a501e97ac",
          "blockNumber": "0x725bc6",
          "transactionHash": "0x43ae9a5a824c57dbdf0f6550b440ba676ed267dc646307d77dcb7f123d8c4ac3",
          "transactionIndex": "0x40",
          "logIndex": "0x5f",
          "removed": false
        }
      ],
      "logsBloom": "0x00000000000000000000000000000000000000000000000000000000000000000000000000000000000000000000000000000000000000004000000000000000000000000000000000000008000000000000001000000000000000000000000000000000020000000000000000000800020000000000000000000010000000000000000000000000000000000000000000000000000008000000010000000000000000000000000000000000000000004000000000000000000000000000000000000002000000800000000000001000000000000000080000000000000020000000000000000000000000000000000000000000000000000000000000000000",
      "type": "0x2",
      "transactionHash": "0x43ae9a5a824c57dbdf0f6550b440ba676ed267dc646307d77dcb7f123d8c4ac3",
      "transactionIndex": "0x40",
      "blockHash": "0x440e3c16851372512d2399ede7f9fdf5111196fbf16651aa9757bb9a501e97ac",
      "blockNumber": "0x725bc6",
      "gasUsed": "0x13af6",
      "effectiveGasPrice": "0x5bbd3e27",
      "from": "0xc77f7fed3b5cc8249adc428c5f44c9063b9734b4",
      "to": "0xbf4a322f1496e5c3d34a9bcdb4c60567b38c7de2",
      "contractAddress": null
    }
  ],
  "libraries": [],
  "pending": [],
  "returns": {},
  "timestamp": 1736916901,
  "chain": 11155111,
  "commit": "51a374b"
}