{
  "transactions": [
    {
      "hash": "0x67e977015359634acaf8defae91a8257e70598d7203c3ce691c07615af160b17",
      "transactionType": "CALL",
      "contractName": null,
      "contractAddress": "0x270e88f8683660553e8ba4eb2ad7c91a1710d769",
      "function": "buy(address)",
      "arguments": [
        "0xC77f7fed3b5Cc8249aDc428c5F44C9063B9734b4"
      ],
      "transaction": {
        "from": "0xc77f7fed3b5cc8249adc428c5f44c9063b9734b4",
        "to": "0x270e88f8683660553e8ba4eb2ad7c91a1710d769",
        "gas": "0x1b30c",
        "value": "0xde0b6b3a7640000",
        "input": "0xf088d547000000000000000000000000c77f7fed3b5cc8249adc428c5f44c9063b9734b4",
        "nonce": "0x60a",
        "chainId": "0xaa36a7"
      },
      "additionalContracts": [],
      "isFixedGasLimit": false
    }
  ],
  "receipts": [
    {
      "status": "0x1",
      "cumulativeGasUsed": "0x95d044",
      "logs": [
        {
          "address": "0x270e88f8683660553e8ba4eb2ad7c91a1710d769",
          "topics": [
            "0xddf252ad1be2c89b69c2b068fc378daa952ba7f163c4a11628f55a4df523b3ef",
            "0x0000000000000000000000000000000000000000000000000000000000000000",
            "0x000000000000000000000000c77f7fed3b5cc8249adc428c5f44c9063b9734b4"
          ],
          "data": "0x0000000000000000000000000000000000000000000000331e8550e3df1bd9f4",
          "blockHash": "0x1cd9b9304f4596f28cd771d7cb3e0a8400a11c179a708ca2498dde21f7d5c329",
          "blockNumber": "0x7252d4",
          "transactionHash": "0x67e977015359634acaf8defae91a8257e70598d7203c3ce691c07615af160b17",
          "transactionIndex": "0x59",
          "logIndex": "0x9c",
          "removed": false
        },
        {
          "address": "0x270e88f8683660553e8ba4eb2ad7c91a1710d769",
          "topics": [
            "0xddf252ad1be2c89b69c2b068fc378daa952ba7f163c4a11628f55a4df523b3ef",
            "0x0000000000000000000000000000000000000000000000000000000000000000",
            "0x000000000000000000000000c77f7fed3b5cc8249adc428c5f44c9063b9734b4"
          ],
          "data": "0x00000000000000000000000000000000000000000000000027b221378da81275",
          "blockHash": "0x1cd9b9304f4596f28cd771d7cb3e0a8400a11c179a708ca2498dde21f7d5c329",
          "blockNumber": "0x7252d4",
          "transactionHash": "0x67e977015359634acaf8defae91a8257e70598d7203c3ce691c07615af160b17",
          "transactionIndex": "0x59",
          "logIndex": "0x9d",
          "removed": false
        },
        {
          "address": "0x270e88f8683660553e8ba4eb2ad7c91a1710d769",
          "topics": [
            "0x4afcb4a87cdbd9974efdb92ee48bc8d7cd0ae4bf217004db3d080cbaee652ca7"
          ],
          "data": "0x000000000000000000000000000000000000000000000000000000006786d3f80000000000000000000000000000000000000000000000000003baf239b257a40000000000000000000000000000000000000000000000000de0b6b3a7640000",
          "blockHash": "0x1cd9b9304f4596f28cd771d7cb3e0a8400a11c179a708ca2498dde21f7d5c329",
          "blockNumber": "0x7252d4",
          "transactionHash": "0x67e977015359634acaf8defae91a8257e70598d7203c3ce691c07615af160b17",
          "transactionIndex": "0x59",
          "logIndex": "0x9e",
          "removed": false
        }
      ],
      "logsBloom": "0x00000000000000000000000000000000000000000000000000000000000000000000000000000000000000000000000020000000000000004000000000000000000000000000000000000008000000000000000000000000000000000000000000000000020000000000000000000800020000000000000000000010000000000000000000010000000000000000000000000000000000000000010000000000000000000000000000000000000000004000000000000000000000000000000000000002000000800000000000000000000000000000080000008000000020000000000000000000000000000000000000000000000000000000000000000000",
      "type": "0x2",
      "transactionHash": "0x67e977015359634acaf8defae91a8257e70598d7203c3ce691c07615af160b17",
      "transactionIndex": "0x59",
      "blockHash": "0x1cd9b9304f4596f28cd771d7cb3e0a8400a11c179a708ca2498dde21f7d5c329",
      "blockNumber": "0x7252d4",
      "gasUsed": "0x13af8",
      "effectiveGasPrice": "0x2d054c00d",
      "from": "0xc77f7fed3b5cc8249adc428c5f44c9063b9734b4",
      "to": "0x270e88f8683660553e8ba4eb2ad7c91a1710d769",
      "contractAddress": null
    }
  ],
  "libraries": [],
  "pending": [],
  "returns": {},
  "timestamp": 1736889337,
  "chain": 11155111,
  "commit": "51a374b"
}