{
  "transactions": [
    {
      "hash": "0xbf1e85d34f8ff49e43b9ee5184d2c2033dca742f49461718e62ff0b023511308",
      "transactionType": "CALL",
      "contractName": null,
      "contractAddress": "0x8aafd3ede9adb0ff97c7aebce82a919afb1c8764",
      "function": "sell(uint256)",
      "arguments": [
        "757382947697"
      ],
      "transaction": {
        "from": "0xc77f7fed3b5cc8249adc428c5f44c9063b9734b4",
        "to": "0x8aafd3ede9adb0ff97c7aebce82a919afb1c8764",
        "gas": "0x1722a",
        "value": "0x0",
        "input": "0xe4849b32000000000000000000000000000000000000000000000000000000b0578aa371",
        "nonce": "0x15b7",
        "chainId": "0xaa36a7"
      },
      "additionalContracts": [],
      "isFixedGasLimit": false
    }
  ],
  "receipts": [
    {
      "status": "0x1",
      "cumulativeGasUsed": "0x1623e79",
      "logs": [
        {
          "address": "0x8aafd3ede9adb0ff97c7aebce82a919afb1c8764",
          "topics": [
            "0xddf252ad1be2c89b69c2b068fc378daa952ba7f163c4a11628f55a4df523b3ef",
            "0x000000000000000000000000c77f7fed3b5cc8249adc428c5f44c9063b9734b4",
            "0x0000000000000000000000000000000000000000000000000000000000000000"
          ],
          "data": "0x000000000000000000000000000000000000000000000000000000aeee64aa54",
          "blockHash": "0xb5a82619fb54881453017138dcbd217e5878060039ea09b91497e7250841fcb3",
          "blockNumber": "0x731d30",
          "transactionHash": "0xbf1e85d34f8ff49e43b9ee5184d2c2033dca742f49461718e62ff0b023511308",
          "transactionIndex": "0x75",
          "logIndex": "0xd1",
          "removed": false
        },
        {
          "address": "0x8aafd3ede9adb0ff97c7aebce82a919afb1c8764",
          "topics": [
            "0xddf252ad1be2c89b69c2b068fc378daa952ba7f163c4a11628f55a4df523b3ef",
            "0x000000000000000000000000c77f7fed3b5cc8249adc428c5f44c9063b9734b4",
            "0x000000000000000000000000c77f7fed3b5cc8249adc428c5f44c9063b9734b4"
          ],
          "data": "0x000000000000000000000000000000000000000000000000000000016925f91d",
          "blockHash": "0xb5a82619fb54881453017138dcbd217e5878060039ea09b91497e7250841fcb3",
          "blockNumber": "0x731d30",
          "transactionHash": "0xbf1e85d34f8ff49e43b9ee5184d2c2033dca742f49461718e62ff0b023511308",
          "transactionIndex": "0x75",
          "logIndex": "0xd2",
          "removed": false
        },
        {
          "address": "0x8aafd3ede9adb0ff97c7aebce82a919afb1c8764",
          "topics": [
            "0x4afcb4a87cdbd9974efdb92ee48bc8d7cd0ae4bf217004db3d080cbaee652ca7"
          ],
          "data": "0x0000000000000000000000000000000000000000000000000000000067905b2800000000000000000000000000000000000000000000000000132eebde75fd1000000000000000000000000000000000000000000000000000000000f3c1fbf0",
          "blockHash": "0xb5a82619fb54881453017138dcbd217e5878060039ea09b91497e7250841fcb3",
          "blockNumber": "0x731d30",
          "transactionHash": "0xbf1e85d34f8ff49e43b9ee5184d2c2033dca742f49461718e62ff0b023511308",
          "transactionIndex": "0x75",
          "logIndex": "0xd3",
          "removed": false
        }
      ],
      "logsBloom": "0x00000000000000000000000000000000000000000600000000000000000000000000000000000000000000000000000000000000000000004000000000000000000000000000004000000008000000000000000000000000000000000000000000000000020000000000000000000800020000000000000000000010000000000000000000000000000000000000000000000000000000000000010000000000000000000000000000000000000000004000000000000000000000000000000000000002000000800000000000000000000000000000080000000000000020000000000000000000000000000000000000000000000000000000000000000000",
      "type": "0x2",
      "transactionHash": "0xbf1e85d34f8ff49e43b9ee5184d2c2033dca742f49461718e62ff0b023511308",
      "transactionIndex": "0x75",
      "blockHash": "0xb5a82619fb54881453017138dcbd217e5878060039ea09b91497e7250841fcb3",
      "blockNumber": "0x731d30",
      "gasUsed": "0xfd1b",
      "effectiveGasPrice": "0x4bca65b3",
      "from": "0xc77f7fed3b5cc8249adc428c5f44c9063b9734b4",
      "to": "0x8aafd3ede9adb0ff97c7aebce82a919afb1c8764",
      "contractAddress": null
    }
  ],
  "libraries": [],
  "pending": [],
  "returns": {},
  "timestamp": 1737513769,
  "chain": 11155111,
  "commit": "1d2fb70"
}