{
  "transactions": [
    {
      "hash": "0x66e56d33e6aa9ec60bc7c1a37e067abc42fefe78722d0027c8c2aacfda5c0324",
      "transactionType": "CALL",
      "contractName": null,
      "contractAddress": "0x8aafd3ede9adb0ff97c7aebce82a919afb1c8764",
      "function": "sell(uint256)",
      "arguments": [
        "3034256991263"
      ],
      "transaction": {
        "from": "0xc77f7fed3b5cc8249adc428c5f44c9063b9734b4",
        "to": "0x8aafd3ede9adb0ff97c7aebce82a919afb1c8764",
        "gas": "0x15daa",
        "value": "0x0",
        "input": "0xe4849b32000000000000000000000000000000000000000000000000000002c277cf641f",
        "nonce": "0xfa7",
        "chainId": "0xaa36a7"
      },
      "additionalContracts": [],
      "isFixedGasLimit": false
    }
  ],
  "receipts": [
    {
      "status": "0x1",
      "cumulativeGasUsed": "0xc760b7",
      "logs": [
        {
          "address": "0x8aafd3ede9adb0ff97c7aebce82a919afb1c8764",
          "topics": [
            "0xddf252ad1be2c89b69c2b068fc378daa952ba7f163c4a11628f55a4df523b3ef",
            "0x000000000000000000000000c77f7fed3b5cc8249adc428c5f44c9063b9734b4",
            "0x0000000000000000000000000000000000000000000000000000000000000000"
          ],
          "data": "0x000000000000000000000000000000000000000000000000000002bcd0f6b125",
          "blockHash": "0x86f5c587225b153903f218a638788ef87d907a95318513a03263d2d10915b013",
          "blockNumber": "0x731610",
          "transactionHash": "0x66e56d33e6aa9ec60bc7c1a37e067abc42fefe78722d0027c8c2aacfda5c0324",
          "transactionIndex": "0x81",
          "logIndex": "0xb2",
          "removed": false
        },
        {
          "address": "0x8aafd3ede9adb0ff97c7aebce82a919afb1c8764",
          "topics": [
            "0xddf252ad1be2c89b69c2b068fc378daa952ba7f163c4a11628f55a4df523b3ef",
            "0x000000000000000000000000c77f7fed3b5cc8249adc428c5f44c9063b9734b4",
            "0x000000000000000000000000c77f7fed3b5cc8249adc428c5f44c9063b9734b4"
          ],
          "data": "0x00000000000000000000000000000000000000000000000000000005a6d8b2fa",
          "blockHash": "0x86f5c587225b153903f218a638788ef87d907a95318513a03263d2d10915b013",
          "blockNumber": "0x731610",
          "transactionHash": "0x66e56d33e6aa9ec60bc7c1a37e067abc42fefe78722d0027c8c2aacfda5c0324",
          "transactionIndex": "0x81",
          "logIndex": "0xb3",
          "removed": false
        },
        {
          "address": "0x8aafd3ede9adb0ff97c7aebce82a919afb1c8764",
          "topics": [
            "0x4afcb4a87cdbd9974efdb92ee48bc8d7cd0ae4bf217004db3d080cbaee652ca7"
          ],
          "data": "0x000000000000000000000000000000000000000000000000000000006790056c0000000000000000000000000000000000000000000000000004c37b31ab97b400000000000000000000000000000000000000000000000000000000f27f6179",
          "blockHash": "0x86f5c587225b153903f218a638788ef87d907a95318513a03263d2d10915b013",
          "blockNumber": "0x731610",
          "transactionHash": "0x66e56d33e6aa9ec60bc7c1a37e067abc42fefe78722d0027c8c2aacfda5c0324",
          "transactionIndex": "0x81",
          "logIndex": "0xb4",
          "removed": false
        }
      ],
      "logsBloom": "0x00000000000000000000000000000000000000000600000000000000000000000000000000000000000000000000000000000000000000004000000000000000000000000000004000000008000000000000000000000000000000000000000000000000020000000000000000000800020000000000000000000010000000000000000000000000000000000000000000000000000000000000010000000000000000000000000000000000000000004000000000000000000000000000000000000002000000800000000000000000000000000000080000000000000020000000000000000000000000000000000000000000000000000000000000000000",
      "type": "0x2",
      "transactionHash": "0x66e56d33e6aa9ec60bc7c1a37e067abc42fefe78722d0027c8c2aacfda5c0324",
      "transactionIndex": "0x81",
      "blockHash": "0x86f5c587225b153903f218a638788ef87d907a95318513a03263d2d10915b013",
      "blockNumber": "0x731610",
      "gasUsed": "0xfd27",
      "effectiveGasPrice": "0x562a5885",
      "from": "0xc77f7fed3b5cc8249adc428c5f44c9063b9734b4",
      "to": "0x8aafd3ede9adb0ff97c7aebce82a919afb1c8764",
      "contractAddress": null
    }
  ],
  "libraries": [],
  "pending": [],
  "returns": {},
  "timestamp": 1737491821,
  "chain": 11155111,
  "commit": "1d2fb70"
}