{
  "transactions": [
    {
      "hash": "0xfb31862c9b26ff785c326271ba9b267f0e3eb21b6feab240b53b2c5825778659",
      "transactionType": "CALL",
      "contractName": null,
      "contractAddress": "0x8aafd3ede9adb0ff97c7aebce82a919afb1c8764",
      "function": "sell(uint256)",
      "arguments": [
        "76923789398985"
      ],
      "transaction": {
        "from": "0xc77f7fed3b5cc8249adc428c5f44c9063b9734b4",
        "to": "0x8aafd3ede9adb0ff97c7aebce82a919afb1c8764",
        "gas": "0x15daa",
        "value": "0x0",
        "input": "0xe4849b32000000000000000000000000000000000000000000000000000045f6372453c9",
        "nonce": "0x1730",
        "chainId": "0xaa36a7"
      },
      "additionalContracts": [],
      "isFixedGasLimit": false
    }
  ],
  "receipts": [
    {
      "status": "0x1",
      "cumulativeGasUsed": "0x157d2dd",
      "logs": [
        {
          "address": "0x8aafd3ede9adb0ff97c7aebce82a919afb1c8764",
          "topics": [
            "0xddf252ad1be2c89b69c2b068fc378daa952ba7f163c4a11628f55a4df523b3ef",
            "0x000000000000000000000000c77f7fed3b5cc8249adc428c5f44c9063b9734b4",
            "0x0000000000000000000000000000000000000000000000000000000000000000"
          ],
          "data": "0x00000000000000000000000000000000000000000000000000004566ef055112",
          "blockHash": "0x52a54f61e2813a38a6f4e5e085d7cca6d8301b3641c6c3f4f9e2ecc069415a62",
          "blockNumber": "0x731efb",
          "transactionHash": "0xfb31862c9b26ff785c326271ba9b267f0e3eb21b6feab240b53b2c5825778659",
          "transactionIndex": "0x81",
          "logIndex": "0xa4",
          "removed": false
        },
        {
          "address": "0x8aafd3ede9adb0ff97c7aebce82a919afb1c8764",
          "topics": [
            "0xddf252ad1be2c89b69c2b068fc378daa952ba7f163c4a11628f55a4df523b3ef",
            "0x000000000000000000000000c77f7fed3b5cc8249adc428c5f44c9063b9734b4",
            "0x000000000000000000000000c77f7fed3b5cc8249adc428c5f44c9063b9734b4"
          ],
          "data": "0x0000000000000000000000000000000000000000000000000000008f481f02b7",
          "blockHash": "0x52a54f61e2813a38a6f4e5e085d7cca6d8301b3641c6c3f4f9e2ecc069415a62",
          "blockNumber": "0x731efb",
          "transactionHash": "0xfb31862c9b26ff785c326271ba9b267f0e3eb21b6feab240b53b2c5825778659",
          "transactionIndex": "0x81",
          "logIndex": "0xa5",
          "removed": false
        },
        {
          "address": "0x8aafd3ede9adb0ff97c7aebce82a919afb1c8764",
          "topics": [
            "0x4afcb4a87cdbd9974efdb92ee48bc8d7cd0ae4bf217004db3d080cbaee652ca7"
          ],
          "data": "0x00000000000000000000000000000000000000000000000000000000679070ac0000000000000000000000000000000000000000000000000017962395bcf68e00000000000000000000000000000000000000000000000000000076e7ef1bec",
          "blockHash": "0x52a54f61e2813a38a6f4e5e085d7cca6d8301b3641c6c3f4f9e2ecc069415a62",
          "blockNumber": "0x731efb",
          "transactionHash": "0xfb31862c9b26ff785c326271ba9b267f0e3eb21b6feab240b53b2c5825778659",
          "transactionIndex": "0x81",
          "logIndex": "0xa6",
          "removed": false
        }
      ],
      "logsBloom": "0x00000000000000000000000000000000000000000600000000000000000000000000000000000000000000000000000000000000000000004000000000000000000000000000004000000008000000000000000000000000000000000000000000000000020000000000000000000800020000000000000000000010000000000000000000000000000000000000000000000000000000000000010000000000000000000000000000000000000000004000000000000000000000000000000000000002000000800000000000000000000000000000080000000000000020000000000000000000000000000000000000000000000000000000000000000000",
      "type": "0x2",
      "transactionHash": "0xfb31862c9b26ff785c326271ba9b267f0e3eb21b6feab240b53b2c5825778659",
      "transactionIndex": "0x81",
      "blockHash": "0x52a54f61e2813a38a6f4e5e085d7cca6d8301b3641c6c3f4f9e2ecc069415a62",
      "blockNumber": "0x731efb",
      "gasUsed": "0xfd27",
      "effectiveGasPrice": "0x3af15945",
      "from": "0xc77f7fed3b5cc8249adc428c5f44c9063b9734b4",
      "to": "0x8aafd3ede9adb0ff97c7aebce82a919afb1c8764",
      "contractAddress": null
    }
  ],
  "libraries": [],
  "pending": [],
  "returns": {},
  "timestamp": 1737519276,
  "chain": 11155111,
  "commit": "1d2fb70"
}