{
  "transactions": [
    {
      "hash": "0xae70495380743d936117915f7af12d78e2b7b56a1aef9223492853b8d2a2e8c0",
      "transactionType": "CALL",
      "contractName": null,
      "contractAddress": "0x8aafd3ede9adb0ff97c7aebce82a919afb1c8764",
      "function": "sell(uint256)",
      "arguments": [
        "194506345"
      ],
      "transaction": {
        "from": "0xc77f7fed3b5cc8249adc428c5f44c9063b9734b4",
        "to": "0x8aafd3ede9adb0ff97c7aebce82a919afb1c8764",
        "gas": "0x14e6c",
        "value": "0x0",
        "input": "0xe4849b32000000000000000000000000000000000000000000000000000000000b97ee69",
        "nonce": "0xf6d",
        "chainId": "0xaa36a7"
      },
      "additionalContracts": [],
      "isFixedGasLimit": false
    }
  ],
  "receipts": [
    {
      "status": "0x1",
      "cumulativeGasUsed": "0xebafaa",
      "logs": [
        {
          "address": "0x8aafd3ede9adb0ff97c7aebce82a919afb1c8764",
          "topics": [
            "0xddf252ad1be2c89b69c2b068fc378daa952ba7f163c4a11628f55a4df523b3ef",
            "0x000000000000000000000000c77f7fed3b5cc8249adc428c5f44c9063b9734b4",
            "0x0000000000000000000000000000000000000000000000000000000000000000"
          ],
          "data": "0x000000000000000000000000000000000000000000000000000000000b803017",
          "blockHash": "0x8fd46525be9c2baa46c071a2d616c559db3378e77a5f60792ad04eab1c461988",
          "blockNumber": "0x7315cd",
          "transactionHash": "0xae70495380743d936117915f7af12d78e2b7b56a1aef9223492853b8d2a2e8c0",
          "transactionIndex": "0x88",
          "logIndex": "0x8c",
          "removed": false
        },
        {
          "address": "0x8aafd3ede9adb0ff97c7aebce82a919afb1c8764",
          "topics": [
            "0xddf252ad1be2c89b69c2b068fc378daa952ba7f163c4a11628f55a4df523b3ef",
            "0x000000000000000000000000c77f7fed3b5cc8249adc428c5f44c9063b9734b4",
            "0x000000000000000000000000c77f7fed3b5cc8249adc428c5f44c9063b9734b4"
          ],
          "data": "0x000000000000000000000000000000000000000000000000000000000017be52",
          "blockHash": "0x8fd46525be9c2baa46c071a2d616c559db3378e77a5f60792ad04eab1c461988",
          "blockNumber": "0x7315cd",
          "transactionHash": "0xae70495380743d936117915f7af12d78e2b7b56a1aef9223492853b8d2a2e8c0",
          "transactionIndex": "0x88",
          "logIndex": "0x8d",
          "removed": false
        },
        {
          "address": "0x8aafd3ede9adb0ff97c7aebce82a919afb1c8764",
          "topics": [
            "0x4afcb4a87cdbd9974efdb92ee48bc8d7cd0ae4bf217004db3d080cbaee652ca7"
          ],
          "data": "0x00000000000000000000000000000000000000000000000000000000679002480000000000000000000000000000000000000000000000000004c18383c27bc3000000000000000000000000000000000000000000000000000000000003f91b",
          "blockHash": "0x8fd46525be9c2baa46c071a2d616c559db3378e77a5f60792ad04eab1c461988",
          "blockNumber": "0x7315cd",
          "transactionHash": "0xae70495380743d936117915f7af12d78e2b7b56a1aef9223492853b8d2a2e8c0",
          "transactionIndex": "0x88",
          "logIndex": "0x8e",
          "removed": false
        }
      ],
      "logsBloom": "0x00000000000000000000000000000000000000000600000000000000000000000000000000000000000000000000000000000000000000004000000000000000000000000000004000000008000000000000000000000000000000000000000000000000020000000000000000000800020000000000000000000010000000000000000000000000000000000000000000000000000000000000010000000000000000000000000000000000000000004000000000000000000000000000000000000002000000800000000000000000000000000000080000000000000020000000000000000000000000000000000000000000000000000000000000000000",
      "type": "0x2",
      "transactionHash": "0xae70495380743d936117915f7af12d78e2b7b56a1aef9223492853b8d2a2e8c0",
      "transactionIndex": "0x88",
      "blockHash": "0x8fd46525be9c2baa46c071a2d616c559db3378e77a5f60792ad04eab1c461988",
      "blockNumber": "0x7315cd",
      "gasUsed": "0xf21f",
      "effectiveGasPrice": "0x667ec6c2",
      "from": "0xc77f7fed3b5cc8249adc428c5f44c9063b9734b4",
      "to": "0x8aafd3ede9adb0ff97c7aebce82a919afb1c8764",
      "contractAddress": null
    }
  ],
  "libraries": [],
  "pending": [],
  "returns": {},
  "timestamp": 1737491017,
  "chain": 11155111,
  "commit": "1d2fb70"
}