{
  "transactions": [
    {
      "hash": "0x64926b8ae7c373c9562cf66eb8cb8d8247ac6a26d616eae29eb870dcefaa17e3",
      "transactionType": "CALL",
      "contractName": null,
      "contractAddress": "0xd7bc75898e513accccf720a874d44dab5a4b6223",
      "function": "buy(address)",
      "arguments": [
        "0xC77f7fed3b5Cc8249aDc428c5F44C9063B9734b4"
      ],
      "transaction": {
        "from": "0xc77f7fed3b5cc8249adc428c5f44c9063b9734b4",
        "to": "0xd7bc75898e513accccf720a874d44dab5a4b6223",
        "gas": "0x1b30c",
        "value": "0x2386f26fc10000",
        "input": "0xf088d547000000000000000000000000c77f7fed3b5cc8249adc428c5f44c9063b9734b4",
        "nonce": "0x100",
        "chainId": "0xaa36a7"
      },
      "additionalContracts": [],
      "isFixedGasLimit": false
    }
  ],
  "receipts": [
    {
      "status": "0x1",
      "cumulativeGasUsed": "0x167f95",
      "logs": [
        {
          "address": "0xd7bc75898e513accccf720a874d44dab5a4b6223",
          "topics": [
            "0xddf252ad1be2c89b69c2b068fc378daa952ba7f163c4a11628f55a4df523b3ef",
            "0x0000000000000000000000000000000000000000000000000000000000000000",
            "0x000000000000000000000000c77f7fed3b5cc8249adc428c5f44c9063b9734b4"
          ],
          "data": "0x0000000000000000000000000000000000000000000000008963ba74d10c862a",
          "blockHash": "0x57544df16fe1fda850ee560c351f0b66c0140c2cf97334192dacd0b57679566a",
          "blockNumber": "0x723993",
          "transactionHash": "0x64926b8ae7c373c9562cf66eb8cb8d8247ac6a26d616eae29eb870dcefaa17e3",
          "transactionIndex": "0xe",
          "logIndex": "0x1d",
          "removed": false
        },
        {
          "address": "0xd7bc75898e513accccf720a874d44dab5a4b6223",
          "topics": [
            "0xddf252ad1be2c89b69c2b068fc378daa952ba7f163c4a11628f55a4df523b3ef",
            "0x0000000000000000000000000000000000000000000000000000000000000000",
            "0x000000000000000000000000c77f7fed3b5cc8249adc428c5f44c9063b9734b4"
          ],
          "data": "0x000000000000000000000000000000000000000000000000006ab00bf8a6be8c",
          "blockHash": "0x57544df16fe1fda850ee560c351f0b66c0140c2cf97334192dacd0b57679566a",
          "blockNumber": "0x723993",
          "transactionHash": "0x64926b8ae7c373c9562cf66eb8cb8d8247ac6a26d616eae29eb870dcefaa17e3",
          "transactionIndex": "0xe",
          "logIndex": "0x1e",
          "removed": false
        },
        {
          "address": "0xd7bc75898e513accccf720a874d44dab5a4b6223",
          "topics": [
            "0x4afcb4a87cdbd9974efdb92ee48bc8d7cd0ae4bf217004db3d080cbaee652ca7"
          ],
          "data": "0x000000000000000000000000000000000000000000000000000000006785a43800000000000000000000000000000000000000000000000000038d7f8d2486c8000000000000000000000000000000000000000000000000002386f26fc10000",
          "blockHash": "0x57544df16fe1fda850ee560c351f0b66c0140c2cf97334192dacd0b57679566a",
          "blockNumber": "0x723993",
          "transactionHash": "0x64926b8ae7c373c9562cf66eb8cb8d8247ac6a26d616eae29eb870dcefaa17e3",
          "transactionIndex": "0xe",
          "logIndex": "0x1f",
          "removed": false
        }
      ],
      "logsBloom": "0x00000000000000000000000000000000000000000000000000000000000000000000000000000000000000000000000000000000000000004000000000000000000000000000000000000008000000000000000000000000000000000000000000000000020000000000000000000800020000000000000000000010000000000000000000000000000000000000000000000000000000000000010000000000000000000000000000000000000000004000001000000000000000000000000000000002000000800000000000004000000000000000080000000000000020000000000000000000000000000000000000000000080000000000000000000000",
      "type": "0x2",
      "transactionHash": "0x64926b8ae7c373c9562cf66eb8cb8d8247ac6a26d616eae29eb870dcefaa17e3",
      "transactionIndex": "0xe",
      "blockHash": "0x57544df16fe1fda850ee560c351f0b66c0140c2cf97334192dacd0b57679566a",
      "blockNumber": "0x723993",
      "gasUsed": "0x13af8",
      "effectiveGasPrice": "0x2d77c9801",
      "from": "0xc77f7fed3b5cc8249adc428c5f44c9063b9734b4",
      "to": "0xd7bc75898e513accccf720a874d44dab5a4b6223",
      "contractAddress": null
    }
  ],
  "libraries": [],
  "pending": [],
  "returns": {},
  "timestamp": 1736811578,
  "chain": 11155111,
  "commit": "51a374b"
}