{
  "transactions": [
    {
      "hash": "0x8458627487e0239c63ec6ba8e175fa8e90f845e4c6f2b47953d0fbf357500275",
      "transactionType": "CALL",
      "contractName": null,
      "contractAddress": "0x8aafd3ede9adb0ff97c7aebce82a919afb1c8764",
      "function": "sell(uint256)",
      "arguments": [
        "10307700048522582"
      ],
      "transaction": {
        "from": "0xc77f7fed3b5cc8249adc428c5f44c9063b9734b4",
        "to": "0x8aafd3ede9adb0ff97c7aebce82a919afb1c8764",
        "gas": "0x1724d",
        "value": "0x0",
        "input": "0xe4849b3200000000000000000000000000000000000000000000000000249ecc6fd7ed56",
        "nonce": "0x16a8",
        "chainId": "0xaa36a7"
      },
      "additionalContracts": [],
      "isFixedGasLimit": false
    }
  ],
  "receipts": [
    {
      "status": "0x1",
      "cumulativeGasUsed": "0xd54ee4",
      "logs": [
        {
          "address": "0x8aafd3ede9adb0ff97c7aebce82a919afb1c8764",
          "topics": [
            "0xddf252ad1be2c89b69c2b068fc378daa952ba7f163c4a11628f55a4df523b3ef",
            "0x000000000000000000000000c77f7fed3b5cc8249adc428c5f44c9063b9734b4",
            "0x0000000000000000000000000000000000000000000000000000000000000000"
          ],
          "data": "0x000000000000000000000000000000000000000000000000002453ccd971d902",
          "blockHash": "0x875e34b30dfbcda456f42e6936a2051a034df7de46c1636b3dae2290d2335c12",
          "blockNumber": "0x731e60",
          "transactionHash": "0x8458627487e0239c63ec6ba8e175fa8e90f845e4c6f2b47953d0fbf357500275",
          "transactionIndex": "0x61",
          "logIndex": "0x7e",
          "removed": false
        },
        {
          "address": "0x8aafd3ede9adb0ff97c7aebce82a919afb1c8764",
          "topics": [
            "0xddf252ad1be2c89b69c2b068fc378daa952ba7f163c4a11628f55a4df523b3ef",
            "0x000000000000000000000000c77f7fed3b5cc8249adc428c5f44c9063b9734b4",
            "0x000000000000000000000000c77f7fed3b5cc8249adc428c5f44c9063b9734b4"
          ],
          "data": "0x00000000000000000000000000000000000000000000000000004aff96661454",
          "blockHash": "0x875e34b30dfbcda456f42e6936a2051a034df7de46c1636b3dae2290d2335c12",
          "blockNumber": "0x731e60",
          "transactionHash": "0x8458627487e0239c63ec6ba8e175fa8e90f845e4c6f2b47953d0fbf357500275",
          "transactionIndex": "0x61",
          "logIndex": "0x7f",
          "removed": false
        },
        {
          "address": "0x8aafd3ede9adb0ff97c7aebce82a919afb1c8764",
          "topics": [
            "0x4afcb4a87cdbd9974efdb92ee48bc8d7cd0ae4bf217004db3d080cbaee652ca7"
          ],
          "data": "0x00000000000000000000000000000000000000000000000000000000679069680000000000000000000000000000000000000000000000000016025e9de1149200000000000000000000000000000000000000000000000000003a13cf150c76",
          "blockHash": "0x875e34b30dfbcda456f42e6936a2051a034df7de46c1636b3dae2290d2335c12",
          "blockNumber": "0x731e60",
          "transactionHash": "0x8458627487e0239c63ec6ba8e175fa8e90f845e4c6f2b47953d0fbf357500275",
          "transactionIndex": "0x61",
          "logIndex": "0x80",
          "removed": false
        }
      ],
      "logsBloom": "0x00000000000000000000000000000000000000000600000000000000000000000000000000000000000000000000000000000000000000004000000000000000000000000000004000000008000000000000000000000000000000000000000000000000020000000000000000000800020000000000000000000010000000000000000000000000000000000000000000000000000000000000010000000000000000000000000000000000000000004000000000000000000000000000000000000002000000800000000000000000000000000000080000000000000020000000000000000000000000000000000000000000000000000000000000000000",
      "type": "0x2",
      "transactionHash": "0x8458627487e0239c63ec6ba8e175fa8e90f845e4c6f2b47953d0fbf357500275",
      "transactionIndex": "0x61",
      "blockHash": "0x875e34b30dfbcda456f42e6936a2051a034df7de46c1636b3dae2290d2335c12",
      "blockNumber": "0x731e60",
      "gasUsed": "0xfd33",
      "effectiveGasPrice": "0x45a66595",
      "from": "0xc77f7fed3b5cc8249adc428c5f44c9063b9734b4",
      "to": "0x8aafd3ede9adb0ff97c7aebce82a919afb1c8764",
      "contractAddress": null
    }
  ],
  "libraries": [],
  "pending": [],
  "returns": {},
  "timestamp": 1737517418,
  "chain": 11155111,
  "commit": "1d2fb70"
}