{
  "transactions": [
    {
      "hash": "0x6f0c54dd1bd7d45dd47efc87f68ee64b107b45abe0ee80a6bf80c1e84e83615e",
      "transactionType": "CALL",
      "contractName": null,
      "contractAddress": "0x270e88f8683660553e8ba4eb2ad7c91a1710d769",
      "function": "sell(uint256)",
      "arguments": [
        "714216764663802142046"
      ],
      "transaction": {
        "from": "0xc77f7fed3b5cc8249adc428c5f44c9063b9734b4",
        "to": "0x270e88f8683660553e8ba4eb2ad7c91a1710d769",
        "gas": "0x16fec",
        "value": "0x0",
        "input": "0xe4849b32000000000000000000000000000000000000000000000026b7bfab610eb09d5e",
        "nonce": "0x868",
        "chainId": "0xaa36a7"
      },
      "additionalContracts": [],
      "isFixedGasLimit": false
    }
  ],
  "receipts": [
    {
      "status": "0x1",
      "cumulativeGasUsed": "0x45d4a8",
      "logs": [
        {
          "address": "0x270e88f8683660553e8ba4eb2ad7c91a1710d769",
          "topics": [
            "0xddf252ad1be2c89b69c2b068fc378daa952ba7f163c4a11628f55a4df523b3ef",
            "0x000000000000000000000000c77f7fed3b5cc8249adc428c5f44c9063b9734b4",
            "0x0000000000000000000000000000000000000000000000000000000000000000"
          ],
          "data": "0x000000000000000000000000000000000000000000000026b7bfab610eb09d5e",
          "blockHash": "0x8ac1bf53dbc0b5b0852a2e6c055359f2b594cfce9eabeb3845eae68eb4b65669",
          "blockNumber": "0x7255bf",
          "transactionHash": "0x6f0c54dd1bd7d45dd47efc87f68ee64b107b45abe0ee80a6bf80c1e84e83615e",
          "transactionIndex": "0x2b",
          "logIndex": "0x41",
          "removed": false
        },
        {
          "address": "0x270e88f8683660553e8ba4eb2ad7c91a1710d769",
          "topics": [
            "0x4afcb4a87cdbd9974efdb92ee48bc8d7cd0ae4bf217004db3d080cbaee652ca7"
          ],
          "data": "0x000000000000000000000000000000000000000000000000000000006786f6fc0000000000000000000000000000000000000000000000000004f0cc641c088f0000000000000000000000000000000000000000000000000dc825d492d8330f",
          "blockHash": "0x8ac1bf53dbc0b5b0852a2e6c055359f2b594cfce9eabeb3845eae68eb4b65669",
          "blockNumber": "0x7255bf",
          "transactionHash": "0x6f0c54dd1bd7d45dd47efc87f68ee64b107b45abe0ee80a6bf80c1e84e83615e",
          "transactionIndex": "0x2b",
          "logIndex": "0x42",
          "removed": false
        }
      ],
      "logsBloom": "0x00000000000000000000000000000000000000000000000000000000000000000000000000000000000000000000000020000000000000004000000000000000000000000000000000000008000000000000000000000000000000000000000000000000020000000000000000000800020000000000000000000010000000000000000000010000000000000000000000000000000000000000010000000000000000000000000000000000000000004000000000000000000000000000000000000002000000800000000000000000000000000000080000008000000020000000000000000000000000000000000000000000000000000000000000000000",
      "type": "0x2",
      "transactionHash": "0x6f0c54dd1bd7d45dd47efc87f68ee64b107b45abe0ee80a6bf80c1e84e83615e",
      "transactionIndex": "0x2b",
      "blockHash": "0x8ac1bf53dbc0b5b0852a2e6c055359f2b594cfce9eabeb3845eae68eb4b65669",
      "blockNumber": "0x7255bf",
      "gasUsed": "0xfb93",
      "effectiveGasPrice": "0xa14dd89b",
      "from": "0xc77f7fed3b5cc8249adc428c5f44c9063b9734b4",
      "to": "0x270e88f8683660553e8ba4eb2ad7c91a1710d769",
      "contractAddress": null
    }
  ],
  "libraries": [],
  "pending": [],
  "returns": {},
  "timestamp": 1736898300,
  "chain": 11155111,
  "commit": "51a374b"
}