{
  "transactions": [
    {
      "hash": "0x73be013271708db5c1411319fca8cdcb304d796777a2437cfca1cb6c6205b1f2",
      "transactionType": "CALL",
      "contractName": null,
      "contractAddress": "0x8aafd3ede9adb0ff97c7aebce82a919afb1c8764",
      "function": "sell(uint256)",
      "arguments": [
        "1339779744227018945"
      ],
      "transaction": {
        "from": "0xc77f7fed3b5cc8249adc428c5f44c9063b9734b4",
        "to": "0x8aafd3ede9adb0ff97c7aebce82a919afb1c8764",
        "gas": "0x15dca",
        "value": "0x0",
        "input": "0xe4849b320000000000000000000000000000000000000000000000001297da9433ea48c1",
        "nonce": "0x165f",
        "chainId": "0xaa36a7"
      },
      "additionalContracts": [],
      "isFixedGasLimit": false
    }
  ],
  "receipts": [
    {
      "status": "0x1",
      "cumulativeGasUsed": "0xc921a8",
      "logs": [
        {
          "address": "0x8aafd3ede9adb0ff97c7aebce82a919afb1c8764",
          "topics": [
            "0xddf252ad1be2c89b69c2b068fc378daa952ba7f163c4a11628f55a4df523b3ef",
            "0x000000000000000000000000c77f7fed3b5cc8249adc428c5f44c9063b9734b4",
            "0x0000000000000000000000000000000000000000000000000000000000000000"
          ],
          "data": "0x0000000000000000000000000000000000000000000000001271c665f60f526a",
          "blockHash": "0x92b02b121c85b13065570410fa300824c07a27c3651cb3835c7b47b2d412a5e1",
          "blockNumber": "0x731e03",
          "transactionHash": "0x73be013271708db5c1411319fca8cdcb304d796777a2437cfca1cb6c6205b1f2",
          "transactionIndex": "0x60",
          "logIndex": "0x7b",
          "removed": false
        },
        {
          "address": "0x8aafd3ede9adb0ff97c7aebce82a919afb1c8764",
          "topics": [
            "0xddf252ad1be2c89b69c2b068fc378daa952ba7f163c4a11628f55a4df523b3ef",
            "0x000000000000000000000000c77f7fed3b5cc8249adc428c5f44c9063b9734b4",
            "0x000000000000000000000000c77f7fed3b5cc8249adc428c5f44c9063b9734b4"
          ],
          "data": "0x0000000000000000000000000000000000000000000000000026142e3ddaf657",
          "blockHash": "0x92b02b121c85b13065570410fa300824c07a27c3651cb3835c7b47b2d412a5e1",
          "blockNumber": "0x731e03",
          "transactionHash": "0x73be013271708db5c1411319fca8cdcb304d796777a2437cfca1cb6c6205b1f2",
          "transactionIndex": "0x60",
          "logIndex": "0x7c",
          "removed": false
        },
        {
          "address": "0x8aafd3ede9adb0ff97c7aebce82a919afb1c8764",
          "topics": [
            "0x4afcb4a87cdbd9974efdb92ee48bc8d7cd0ae4bf217004db3d080cbaee652ca7"
          ],
          "data": "0x000000000000000000000000000000000000000000000000000000006790650c00000000000000000000000000000000000000000000000000152b89eb7ba364000000000000000000000000000000000000000000000000001c5cc61f117f5b",
          "blockHash": "0x92b02b121c85b13065570410fa300824c07a27c3651cb3835c7b47b2d412a5e1",
          "blockNumber": "0x731e03",
          "transactionHash": "0x73be013271708db5c1411319fca8cdcb304d796777a2437cfca1cb6c6205b1f2",
          "transactionIndex": "0x60",
          "logIndex": "0x7d",
          "removed": false
        }
      ],
      "logsBloom": "0x00000000000000000000000000000000000000000600000000000000000000000000000000000000000000000000000000000000000000004000000000000000000000000000004000000008000000000000000000000000000000000000000000000000020000000000000000000800020000000000000000000010000000000000000000000000000000000000000000000000000000000000010000000000000000000000000000000000000000004000000000000000000000000000000000000002000000800000000000000000000000000000080000000000000020000000000000000000000000000000000000000000000000000000000000000000",
      "type": "0x2",
      "transactionHash": "0x73be013271708db5c1411319fca8cdcb304d796777a2437cfca1cb6c6205b1f2",
      "transactionIndex": "0x60",
      "blockHash": "0x92b02b121c85b13065570410fa300824c07a27c3651cb3835c7b47b2d412a5e1",
      "blockNumber": "0x731e03",
      "gasUsed": "0xfd3f",
      "effectiveGasPrice": "0x47dc0021",
      "from": "0xc77f7fed3b5cc8249adc428c5f44c9063b9734b4",
      "to": "0x8aafd3ede9adb0ff97c7aebce82a919afb1c8764",
      "contractAddress": null
    }
  ],
  "libraries": [],
  "pending": [],
  "returns": {},
  "timestamp": 1737516301,
  "chain": 11155111,
  "commit": "1d2fb70"
}