{
  "transactions": [
    {
      "hash": "0x3dbc1c62e60d726320cc5574b337238f2e82de550e917a93d852e250a0e5e99c",
      "transactionType": "CALL",
      "contractName": null,
      "contractAddress": "0x8aafd3ede9adb0ff97c7aebce82a919afb1c8764",
      "function": "buy(address)",
      "arguments": [
        "0xC77f7fed3b5Cc8249aDc428c5F44C9063B9734b4"
      ],
      "transaction": {
        "from": "0xc77f7fed3b5cc8249adc428c5f44c9063b9734b4",
        "to": "0x8aafd3ede9adb0ff97c7aebce82a919afb1c8764",
        "gas": "0x156ea",
        "value": "0xde0b6b3a7640000",
        "input": "0xf088d547000000000000000000000000c77f7fed3b5cc8249adc428c5f44c9063b9734b4",
        "nonce": "0x15f1",
        "chainId": "0xaa36a7"
      },
      "additionalContracts": [],
      "isFixedGasLimit": false
    }
  ],
  "receipts": [
    {
      "status": "0x1",
      "cumulativeGasUsed": "0x16259b7",
      "logs": [
        {
          "address": "0x8aafd3ede9adb0ff97c7aebce82a919afb1c8764",
          "topics": [
            "0xddf252ad1be2c89b69c2b068fc378daa952ba7f163c4a11628f55a4df523b3ef",
            "0x0000000000000000000000000000000000000000000000000000000000000000",
            "0x000000000000000000000000c77f7fed3b5cc8249adc428c5f44c9063b9734b4"
          ],
          "data": "0x0000000000000000000000000000000000000000000000099ffc17e0dcb7d1a5",
          "blockHash": "0x28dda4c23e51ca6578ec63b57a725ae9c326723438ddaa9ccce8b3c24faa7c0e",
          "blockNumber": "0x731d75",
          "transactionHash": "0x3dbc1c62e60d726320cc5574b337238f2e82de550e917a93d852e250a0e5e99c",
          "transactionIndex": "0x8c",
          "logIndex": "0xf1",
          "removed": false
        },
        {
          "address": "0x8aafd3ede9adb0ff97c7aebce82a919afb1c8764",
          "topics": [
            "0xddf252ad1be2c89b69c2b068fc378daa952ba7f163c4a11628f55a4df523b3ef",
            "0x0000000000000000000000000000000000000000000000000000000000000000",
            "0x000000000000000000000000c77f7fed3b5cc8249adc428c5f44c9063b9734b4"
          ],
          "data": "0x00000000000000000000000000000000000000000000000007795e421ce385e1",
          "blockHash": "0x28dda4c23e51ca6578ec63b57a725ae9c326723438ddaa9ccce8b3c24faa7c0e",
          "blockNumber": "0x731d75",
          "transactionHash": "0x3dbc1c62e60d726320cc5574b337238f2e82de550e917a93d852e250a0e5e99c",
          "transactionIndex": "0x8c",
          "logIndex": "0xf2",
          "removed": false
        },
        {
          "address": "0x8aafd3ede9adb0ff97c7aebce82a919afb1c8764",
          "topics": [
            "0x4afcb4a87cdbd9974efdb92ee48bc8d7cd0ae4bf217004db3d080cbaee652ca7"
          ],
          "data": "0x0000000000000000000000000000000000000000000000000000000067905e640000000000000000000000000000000000000000000000000013d5fb29a36de50000000000000000000000000000000000000000000000000de0b6b3a7640000",
          "blockHash": "0x28dda4c23e51ca6578ec63b57a725ae9c326723438ddaa9ccce8b3c24faa7c0e",
          "blockNumber": "0x731d75",
          "transactionHash": "0x3dbc1c62e60d726320cc5574b337238f2e82de550e917a93d852e250a0e5e99c",
          "transactionIndex": "0x8c",
          "logIndex": "0xf3",
          "removed": false
        }
      ],
      "logsBloom": "0x00000000000000000000000000000000000000000600000000000000000000000000000000000000000000000000000000000000000000004000000000000000000000000000004000000008000000000000000000000000000000000000000000000000020000000000000000000800020000000000000000000010000000000000000000000000000000000000000000000000000000000000010000000000000000000000000000000000000000004000000000000000000000000000000000000002000000800000000000000000000000000000080000000000000020000000000000000000000000000000000000000000000000000000000000000000",
      "type": "0x2",
      "transactionHash": "0x3dbc1c62e60d726320cc5574b337238f2e82de550e917a93d852e250a0e5e99c",
      "transactionIndex": "0x8c",
      "blockHash": "0x28dda4c23e51ca6578ec63b57a725ae9c326723438ddaa9ccce8b3c24faa7c0e",
      "blockNumber": "0x731d75",
      "gasUsed": "0xf844",
      "effectiveGasPrice": "0x690df5aa",
      "from": "0xc77f7fed3b5cc8249adc428c5f44c9063b9734b4",
      "to": "0x8aafd3ede9adb0ff97c7aebce82a919afb1c8764",
      "contractAddress": null
    }
  ],
  "libraries": [],
  "pending": [],
  "returns": {},
  "timestamp": 1737514597,
  "chain": 11155111,
  "commit": "1d2fb70"
}