{
  "transactions": [
    {
      "hash": "0x233e5270a0519f0b236c908649ca0d0a526f94d50c5c5e6e36fca5479e3ed835",
      "transactionType": "CALL",
      "contractName": null,
      "contractAddress": "0x8aafd3ede9adb0ff97c7aebce82a919afb1c8764",
      "function": "sell(uint256)",
      "arguments": [
        "44431938502051600"
      ],
      "transaction": {
        "from": "0xc77f7fed3b5cc8249adc428c5f44c9063b9734b4",
        "to": "0x8aafd3ede9adb0ff97c7aebce82a919afb1c8764",
        "gas": "0x1724d",
        "value": "0x0",
        "input": "0xe4849b32000000000000000000000000000000000000000000000000009dda9cd718c710",
        "nonce": "0x1147",
        "chainId": "0xaa36a7"
      },
      "additionalContracts": [],
      "isFixedGasLimit": false
    }
  ],
  "receipts": [
    {
      "status": "0x1",
      "cumulativeGasUsed": "0x2224fb3",
      "logs": [
        {
          "address": "0x8aafd3ede9adb0ff97c7aebce82a919afb1c8764",
          "topics": [
            "0xddf252ad1be2c89b69c2b068fc378daa952ba7f163c4a11628f55a4df523b3ef",
            "0x000000000000000000000000c77f7fed3b5cc8249adc428c5f44c9063b9734b4",
            "0x0000000000000000000000000000000000000000000000000000000000000000"
          ],
          "data": "0x000000000000000000000000000000000000000000000000009c9753e7ced9f4",
          "blockHash": "0x75ab45766181c41f5ff142e7c95c740fa3278b916a5f2292ab564e8b5480c78c",
          "blockNumber": "0x731800",
          "transactionHash": "0x233e5270a0519f0b236c908649ca0d0a526f94d50c5c5e6e36fca5479e3ed835",
          "transactionIndex": "0x81",
          "logIndex": "0x110e",
          "removed": false
        },
        {
          "address": "0x8aafd3ede9adb0ff97c7aebce82a919afb1c8764",
          "topics": [
            "0xddf252ad1be2c89b69c2b068fc378daa952ba7f163c4a11628f55a4df523b3ef",
            "0x000000000000000000000000c77f7fed3b5cc8249adc428c5f44c9063b9734b4",
            "0x000000000000000000000000c77f7fed3b5cc8249adc428c5f44c9063b9734b4"
          ],
          "data": "0x00000000000000000000000000000000000000000000000000014348ef49ed1c",
          "blockHash": "0x75ab45766181c41f5ff142e7c95c740fa3278b916a5f2292ab564e8b5480c78c",
          "blockNumber": "0x731800",
          "transactionHash": "0x233e5270a0519f0b236c908649ca0d0a526f94d50c5c5e6e36fca5479e3ed835",
          "transactionIndex": "0x81",
          "logIndex": "0x110f",
          "removed": false
        },
        {
          "address": "0x8aafd3ede9adb0ff97c7aebce82a919afb1c8764",
          "topics": [
            "0x4afcb4a87cdbd9974efdb92ee48bc8d7cd0ae4bf217004db3d080cbaee652ca7"
          ],
          "data": "0x0000000000000000000000000000000000000000000000000000000067901cc400000000000000000000000000000000000000000000000000051653caf82302000000000000000000000000000000000000000000000000000039dd6bad2379",
          "blockHash": "0x75ab45766181c41f5ff142e7c95c740fa3278b916a5f2292ab564e8b5480c78c",
          "blockNumber": "0x731800",
          "transactionHash": "0x233e5270a0519f0b236c908649ca0d0a526f94d50c5c5e6e36fca5479e3ed835",
          "transactionIndex": "0x81",
          "logIndex": "0x1110",
          "removed": false
        }
      ],
      "logsBloom": "0x00000000000000000000000000000000000000000600000000000000000000000000000000000000000000000000000000000000000000004000000000000000000000000000004000000008000000000000000000000000000000000000000000000000020000000000000000000800020000000000000000000010000000000000000000000000000000000000000000000000000000000000010000000000000000000000000000000000000000004000000000000000000000000000000000000002000000800000000000000000000000000000080000000000000020000000000000000000000000000000000000000000000000000000000000000000",
      "type": "0x2",
      "transactionHash": "0x233e5270a0519f0b236c908649ca0d0a526f94d50c5c5e6e36fca5479e3ed835",
      "transactionIndex": "0x81",
      "blockHash": "0x75ab45766181c41f5ff142e7c95c740fa3278b916a5f2292ab564e8b5480c78c",
      "blockNumber": "0x731800",
      "gasUsed": "0xfd33",
      "effectiveGasPrice": "0x35d8703e",
      "from": "0xc77f7fed3b5cc8249adc428c5f44c9063b9734b4",
      "to": "0x8aafd3ede9adb0ff97c7aebce82a919afb1c8764",
      "contractAddress": null
    }
  ],
  "libraries": [],
  "pending": [],
  "returns": {},
  "timestamp": 1737497797,
  "chain": 11155111,
  "commit": "1d2fb70"
}