{
  "transactions": [
    {
      "hash": "0x94606b61efca2c1ca0f13ecc30870075191d1bffb1c1b85d0695d1bcb8ced7dc",
      "transactionType": "CALL",
      "contractName": null,
      "contractAddress": "0x8aafd3ede9adb0ff97c7aebce82a919afb1c8764",
      "function": "sell(uint256)",
      "arguments": [
        "5373925808091524688"
      ],
      "transaction": {
        "from": "0xc77f7fed3b5cc8249adc428c5f44c9063b9734b4",
        "to": "0x8aafd3ede9adb0ff97c7aebce82a919afb1c8764",
        "gas": "0x15dca",
        "value": "0x0",
        "input": "0xe4849b320000000000000000000000000000000000000000000000004a94050cd8996e50",
        "nonce": "0x1272",
        "chainId": "0xaa36a7"
      },
      "additionalContracts": [],
      "isFixedGasLimit": false
    }
  ],
  "receipts": [
    {
      "status": "0x1",
      "cumulativeGasUsed": "0xbf2bf8",
      "logs": [
        {
          "address": "0x8aafd3ede9adb0ff97c7aebce82a919afb1c8764",
          "topics": [
            "0xddf252ad1be2c89b69c2b068fc378daa952ba7f163c4a11628f55a4df523b3ef",
            "0x000000000000000000000000c77f7fed3b5cc8249adc428c5f44c9063b9734b4",
            "0x0000000000000000000000000000000000000000000000000000000000000000"
          ],
          "data": "0x00000000000000000000000000000000000000000000000049fb489801dfe22b",
          "blockHash": "0xae94d7a85f3ff52da0d3a984aef258a15cb17a968020270a71293cac3b6f09fa",
          "blockNumber": "0x73195b",
          "transactionHash": "0x94606b61efca2c1ca0f13ecc30870075191d1bffb1c1b85d0695d1bcb8ced7dc",
          "transactionIndex": "0x8b",
          "logIndex": "0x9b",
          "removed": false
        },
        {
          "address": "0x8aafd3ede9adb0ff97c7aebce82a919afb1c8764",
          "topics": [
            "0xddf252ad1be2c89b69c2b068fc378daa952ba7f163c4a11628f55a4df523b3ef",
            "0x000000000000000000000000c77f7fed3b5cc8249adc428c5f44c9063b9734b4",
            "0x000000000000000000000000c77f7fed3b5cc8249adc428c5f44c9063b9734b4"
          ],
          "data": "0x0000000000000000000000000000000000000000000000000098bc74d6b98c25",
          "blockHash": "0xae94d7a85f3ff52da0d3a984aef258a15cb17a968020270a71293cac3b6f09fa",
          "blockNumber": "0x73195b",
          "transactionHash": "0x94606b61efca2c1ca0f13ecc30870075191d1bffb1c1b85d0695d1bcb8ced7dc",
          "transactionIndex": "0x8b",
          "logIndex": "0x9c",
          "removed": false
        },
        {
          "address": "0x8aafd3ede9adb0ff97c7aebce82a919afb1c8764",
          "topics": [
            "0x4afcb4a87cdbd9974efdb92ee48bc8d7cd0ae4bf217004db3d080cbaee652ca7"
          ],
          "data": "0x0000000000000000000000000000000000000000000000000000000067902d14000000000000000000000000000000000000000000000000000541eab52fc335000000000000000000000000000000000000000000000000001c40d0095d5f68",
          "blockHash": "0xae94d7a85f3ff52da0d3a984aef258a15cb17a968020270a71293cac3b6f09fa",
          "blockNumber": "0x73195b",
          "transactionHash": "0x94606b61efca2c1ca0f13ecc30870075191d1bffb1c1b85d0695d1bcb8ced7dc",
          "transactionIndex": "0x8b",
          "logIndex": "0x9d",
          "removed": false
        }
      ],
      "logsBloom": "0x00000000000000000000000000000000000000000600000000000000000000000000000000000000000000000000000000000000000000004000000000000000000000000000004000000008000000000000000000000000000000000000000000000000020000000000000000000800020000000000000000000010000000000000000000000000000000000000000000000000000000000000010000000000000000000000000000000000000000004000000000000000000000000000000000000002000000800000000000000000000000000000080000000000000020000000000000000000000000000000000000000000000000000000000000000000",
      "type": "0x2",
      "transactionHash": "0x94606b61efca2c1ca0f13ecc30870075191d1bffb1c1b85d0695d1bcb8ced7dc",
      "transactionIndex": "0x8b",
      "blockHash": "0xae94d7a85f3ff52da0d3a984aef258a15cb17a968020270a71293cac3b6f09fa",
      "blockNumber": "0x73195b",
      "gasUsed": "0xfd3f",
      "effectiveGasPrice": "0x418c7196",
      "from": "0xc77f7fed3b5cc8249adc428c5f44c9063b9734b4",
      "to": "0x8aafd3ede9adb0ff97c7aebce82a919afb1c8764",
      "contractAddress": null
    }
  ],
  "libraries": [],
  "pending": [],
  "returns": {},
  "timestamp": 1737501973,
  "chain": 11155111,
  "commit": "1d2fb70"
}