{
  "transactions": [
    {
      "hash": "0x9baacbbd67acf7bdfa400fcecafaa702d17384182574993e9ca14929b1280c91",
      "transactionType": "CALL",
      "contractName": null,
      "contractAddress": "0x5eb9cc76c3506942c1c0ead70e877dd5e4f00cb0",
      "function": "sell(uint256)",
      "arguments": [
        "989115297234997703820"
      ],
      "transaction": {
        "from": "0xc77f7fed3b5cc8249adc428c5f44c9063b9734b4",
        "to": "0x5eb9cc76c3506942c1c0ead70e877dd5e4f00cb0",
        "gas": "0x16fec",
        "value": "0x0",
        "input": "0xe4849b320000000000000000000000000000000000000000000000359ebb72471cf3748c",
        "nonce": "0x3a1",
        "chainId": "0xaa36a7"
      },
      "additionalContracts": [],
      "isFixedGasLimit": false
    }
  ],
  "receipts": [
    {
      "status": "0x1",
      "cumulativeGasUsed": "0x1f6ea14",
      "logs": [
        {
          "address": "0x5eb9cc76c3506942c1c0ead70e877dd5e4f00cb0",
          "topics": [
            "0xddf252ad1be2c89b69c2b068fc378daa952ba7f163c4a11628f55a4df523b3ef",
            "0x000000000000000000000000c77f7fed3b5cc8249adc428c5f44c9063b9734b4",
            "0x0000000000000000000000000000000000000000000000000000000000000000"
          ],
          "data": "0x0000000000000000000000000000000000000000000000359ebb72471cf3748c",
          "blockHash": "0xa3061d96dc8567522809cabbc4679d14dd27f339d0bbe65e65fbce6b0030cc1f",
          "blockNumber": "0x724f9e",
          "transactionHash": "0x9baacbbd67acf7bdfa400fcecafaa702d17384182574993e9ca14929b1280c91",
          "transactionIndex": "0x138",
          "logIndex": "0x1d8",
          "removed": false
        },
        {
          "address": "0x5eb9cc76c3506942c1c0ead70e877dd5e4f00cb0",
          "topics": [
            "0x4afcb4a87cdbd9974efdb92ee48bc8d7cd0ae4bf217004db3d080cbaee652ca7"
          ],
          "data": "0x000000000000000000000000000000000000000000000000000000006786ad2800000000000000000000000000000000000000000000000000039111db6548880000000000000000000000000000000000000000000000000dc7db133202aaf0",
          "blockHash": "0xa3061d96dc8567522809cabbc4679d14dd27f339d0bbe65e65fbce6b0030cc1f",
          "blockNumber": "0x724f9e",
          "transactionHash": "0x9baacbbd67acf7bdfa400fcecafaa702d17384182574993e9ca14929b1280c91",
          "transactionIndex": "0x138",
          "logIndex": "0x1d9",
          "removed": false
        }
      ],
      "logsBloom": "0x00000000000000000000000000000000000000000000000000000000000000000000000000000000000000000000000000000000000000004000000000000000000000000000000000000008000000000000000000000000000000000000000000000000020000000000000004000800020000000000000000000010000000000000000000000000000000000000000000000000000000000000010000000000000000000000000000000000000000004000000000000000000000000000020000000002000000800000008000000000000000000000080000000000000020000000000000000000000000000000000000000000000000000000000000000000",
      "type": "0x2",
      "transactionHash": "0x9baacbbd67acf7bdfa400fcecafaa702d17384182574993e9ca14929b1280c91",
      "transactionIndex": "0x138",
      "blockHash": "0xa3061d96dc8567522809cabbc4679d14dd27f339d0bbe65e65fbce6b0030cc1f",
      "blockNumber": "0x724f9e",
      "gasUsed": "0xfb93",
      "effectiveGasPrice": "0x4da718c17",
      "from": "0xc77f7fed3b5cc8249adc428c5f44c9063b9734b4",
      "to": "0x5eb9cc76c3506942c1c0ead70e877dd5e4f00cb0",
      "contractAddress": null
    }
  ],
  "libraries": [],
  "pending": [],
  "returns": {},
  "timestamp": 1736879403,
  "chain": 11155111,
  "commit": "51a374b"
}