{
  "transactions": [
    {
      "hash": "0x3ed06f8d3d2fe8722cadc39d0621f42854ce23cec9964692b22f394c94a21bac",
      "transactionType": "CALL",
      "contractName": null,
      "contractAddress": "0x8aafd3ede9adb0ff97c7aebce82a919afb1c8764",
      "function": "sell(uint256)",
      "arguments": [
        "11480"
      ],
      "transaction": {
        "from": "0xc77f7fed3b5cc8249adc428c5f44c9063b9734b4",
        "to": "0x8aafd3ede9adb0ff97c7aebce82a919afb1c8764",
        "gas": "0x14e4c",
        "value": "0x0",
        "input": "0xe4849b320000000000000000000000000000000000000000000000000000000000002cd8",
        "nonce": "0x11cf",
        "chainId": "0xaa36a7"
      },
      "additionalContracts": [],
      "isFixedGasLimit": false
    }
  ],
  "receipts": [
    {
      "status": "0x1",
      "cumulativeGasUsed": "0xc9404f",
      "logs": [
        {
          "address": "0x8aafd3ede9adb0ff97c7aebce82a919afb1c8764",
          "topics": [
            "0xddf252ad1be2c89b69c2b068fc378daa952ba7f163c4a11628f55a4df523b3ef",
            "0x000000000000000000000000c77f7fed3b5cc8249adc428c5f44c9063b9734b4",
            "0x0000000000000000000000000000000000000000000000000000000000000000"
          ],
          "data": "0x0000000000000000000000000000000000000000000000000000000000002c7d",
          "blockHash": "0x37acbb232fc255c5bcede05c72093abcb3f8bed3f960752aa2dbac2127fd0a1b",
          "blockNumber": "0x7318a3",
          "transactionHash": "0x3ed06f8d3d2fe8722cadc39d0621f42854ce23cec9964692b22f394c94a21bac",
          "transactionIndex": "0x96",
          "logIndex": "0xa2",
          "removed": false
        },
        {
          "address": "0x8aafd3ede9adb0ff97c7aebce82a919afb1c8764",
          "topics": [
            "0xddf252ad1be2c89b69c2b068fc378daa952ba7f163c4a11628f55a4df523b3ef",
            "0x000000000000000000000000c77f7fed3b5cc8249adc428c5f44c9063b9734b4",
            "0x000000000000000000000000c77f7fed3b5cc8249adc428c5f44c9063b9734b4"
          ],
          "data": "0x000000000000000000000000000000000000000000000000000000000000005b",
          "blockHash": "0x37acbb232fc255c5bcede05c72093abcb3f8bed3f960752aa2dbac2127fd0a1b",
          "blockNumber": "0x7318a3",
          "transactionHash": "0x3ed06f8d3d2fe8722cadc39d0621f42854ce23cec9964692b22f394c94a21bac",
          "transactionIndex": "0x96",
          "logIndex": "0xa3",
          "removed": false
        },
        {
          "address": "0x8aafd3ede9adb0ff97c7aebce82a919afb1c8764",
          "topics": [
            "0x4afcb4a87cdbd9974efdb92ee48bc8d7cd0ae4bf217004db3d080cbaee652ca7"
          ],
          "data": "0x000000000000000000000000000000000000000000000000000000006790247400000000000000000000000000000000000000000000000000052936c471c75b0000000000000000000000000000000000000000000000000000000000000010",
          "blockHash": "0x37acbb232fc255c5bcede05c72093abcb3f8bed3f960752aa2dbac2127fd0a1b",
          "blockNumber": "0x7318a3",
          "transactionHash": "0x3ed06f8d3d2fe8722cadc39d0621f42854ce23cec9964692b22f394c94a21bac",
          "transactionIndex": "0x96",
          "logIndex": "0xa4",
          "removed": false
        }
      ],
      "logsBloom": "0x00000000000000000000000000000000000000000600000000000000000000000000000000000000000000000000000000000000000000004000000000000000000000000000004000000008000000000000000000000000000000000000000000000000020000000000000000000800020000000000000000000010000000000000000000000000000000000000000000000000000000000000010000000000000000000000000000000000000000004000000000000000000000000000000000000002000000800000000000000000000000000000080000000000000020000000000000000000000000000000000000000000000000000000000000000000",
      "type": "0x2",
      "transactionHash": "0x3ed06f8d3d2fe8722cadc39d0621f42854ce23cec9964692b22f394c94a21bac",
      "transactionIndex": "0x96",
      "blockHash": "0x37acbb232fc255c5bcede05c72093abcb3f8bed3f960752aa2dbac2127fd0a1b",
      "blockNumber": "0x7318a3",
      "gasUsed": "0xf207",
      "effectiveGasPrice": "0x3606cd1a",
      "from": "0xc77f7fed3b5cc8249adc428c5f44c9063b9734b4",
      "to": "0x8aafd3ede9adb0ff97c7aebce82a919afb1c8764",
      "contractAddress": null
    }
  ],
  "libraries": [],
  "pending": [],
  "returns": {},
  "timestamp": 1737499766,
  "chain": 11155111,
  "commit": "1d2fb70"
}