{
  "transactions": [
    {
      "hash": "0x01ec73eadff998b85ca05bbac07867bf9640780c9b35e5b750d98583e5d0157a",
      "transactionType": "CALL",
      "contractName": null,
      "contractAddress": "0x270e88f8683660553e8ba4eb2ad7c91a1710d769",
      "function": "buy(address)",
      "arguments": [
        "0xC77f7fed3b5Cc8249aDc428c5F44C9063B9734b4"
      ],
      "transaction": {
        "from": "0xc77f7fed3b5cc8249adc428c5f44c9063b9734b4",
        "to": "0x270e88f8683660553e8ba4eb2ad7c91a1710d769",
        "gas": "0x1b30c",
        "value": "0xde0b6b3a7640000",
        "input": "0xf088d547000000000000000000000000c77f7fed3b5cc8249adc428c5f44c9063b9734b4",
        "nonce": "0x875",
        "chainId": "0xaa36a7"
      },
      "additionalContracts": [],
      "isFixedGasLimit": false
    }
  ],
  "receipts": [
    {
      "status": "0x1",
      "cumulativeGasUsed": "0x51f808",
      "logs": [
        {
          "address": "0x270e88f8683660553e8ba4eb2ad7c91a1710d769",
          "topics": [
            "0xddf252ad1be2c89b69c2b068fc378daa952ba7f163c4a11628f55a4df523b3ef",
            "0x0000000000000000000000000000000000000000000000000000000000000000",
            "0x000000000000000000000000c77f7fed3b5cc8249adc428c5f44c9063b9734b4"
          ],
          "data": "0x00000000000000000000000000000000000000000000002689c5d70b4ab846db",
          "blockHash": "0x56f8cab7b10797cdf1f6bc9a345d47b422bc2e0ec551697ad04ee4d1aa30bd79",
          "blockNumber": "0x7255cd",
          "transactionHash": "0x01ec73eadff998b85ca05bbac07867bf9640780c9b35e5b750d98583e5d0157a",
          "transactionIndex": "0x2f",
          "logIndex": "0x4c",
          "removed": false
        },
        {
          "address": "0x270e88f8683660553e8ba4eb2ad7c91a1710d769",
          "topics": [
            "0xddf252ad1be2c89b69c2b068fc378daa952ba7f163c4a11628f55a4df523b3ef",
            "0x0000000000000000000000000000000000000000000000000000000000000000",
            "0x000000000000000000000000c77f7fed3b5cc8249adc428c5f44c9063b9734b4"
          ],
          "data": "0x0000000000000000000000000000000000000000000000001ded1bee93e86c9e",
          "blockHash": "0x56f8cab7b10797cdf1f6bc9a345d47b422bc2e0ec551697ad04ee4d1aa30bd79",
          "blockNumber": "0x7255cd",
          "transactionHash": "0x01ec73eadff998b85ca05bbac07867bf9640780c9b35e5b750d98583e5d0157a",
          "transactionIndex": "0x2f",
          "logIndex": "0x4d",
          "removed": false
        },
        {
          "address": "0x270e88f8683660553e8ba4eb2ad7c91a1710d769",
          "topics": [
            "0x4afcb4a87cdbd9974efdb92ee48bc8d7cd0ae4bf217004db3d080cbaee652ca7"
          ],
          "data": "0x000000000000000000000000000000000000000000000000000000006786f7a40000000000000000000000000000000000000000000000000004f2a93f1f42c10000000000000000000000000000000000000000000000000de0b6b3a7640000",
          "blockHash": "0x56f8cab7b10797cdf1f6bc9a345d47b422bc2e0ec551697ad04ee4d1aa30bd79",
          "blockNumber": "0x7255cd",
          "transactionHash": "0x01ec73eadff998b85ca05bbac07867bf9640780c9b35e5b750d98583e5d0157a",
          "transactionIndex": "0x2f",
          "logIndex": "0x4e",
          "removed": false
        }
      ],
      "logsBloom": "0x00000000000000000000000000000000000000000000000000000000000000000000000000000000000000000000000020000000000000004000000000000000000000000000000000000008000000000000000000000000000000000000000000000000020000000000000000000800020000000000000000000010000000000000000000010000000000000000000000000000000000000000010000000000000000000000000000000000000000004000000000000000000000000000000000000002000000800000000000000000000000000000080000008000000020000000000000000000000000000000000000000000000000000000000000000000",
      "type": "0x2",
      "transactionHash": "0x01ec73eadff998b85ca05bbac07867bf9640780c9b35e5b750d98583e5d0157a",
      "transactionIndex": "0x2f",
      "blockHash": "0x56f8cab7b10797cdf1f6bc9a345d47b422bc2e0ec551697ad04ee4d1aa30bd79",
      "blockNumber": "0x7255cd",
      "gasUsed": "0x13af8",
      "effectiveGasPrice": "0xab3972bd",
      "from": "0xc77f7fed3b5cc8249adc428c5f44c9063b9734b4",
      "to": "0x270e88f8683660553e8ba4eb2ad7c91a1710d769",
      "contractAddress": null
    }
  ],
  "libraries": [],
  "pending": [],
  "returns": {},
  "timestamp": 1736898470,
  "chain": 11155111,
  "commit": "51a374b"
}