{
  "transactions": [
    {
      "hash": "0x002771d7e0241614884707141907c2bc6d7cd38c697821d7f63be97dc8f9514b",
      "transactionType": "CALL",
      "contractName": null,
      "contractAddress": "0x8aafd3ede9adb0ff97c7aebce82a919afb1c8764",
      "function": "sell(uint256)",
      "arguments": [
        "2955841477870"
      ],
      "transaction": {
        "from": "0xc77f7fed3b5cc8249adc428c5f44c9063b9734b4",
        "to": "0x8aafd3ede9adb0ff97c7aebce82a919afb1c8764",
        "gas": "0x15daa",
        "value": "0x0",
        "input": "0xe4849b32000000000000000000000000000000000000000000000000000002b035e19cee",
        "nonce": "0xff5",
        "chainId": "0xaa36a7"
      },
      "additionalContracts": [],
      "isFixedGasLimit": false
    }
  ],
  "receipts": [
    {
      "status": "0x1",
      "cumulativeGasUsed": "0x9db559",
      "logs": [
        {
          "address": "0x8aafd3ede9adb0ff97c7aebce82a919afb1c8764",
          "topics": [
            "0xddf252ad1be2c89b69c2b068fc378daa952ba7f163c4a11628f55a4df523b3ef",
            "0x000000000000000000000000c77f7fed3b5cc8249adc428c5f44c9063b9734b4",
            "0x0000000000000000000000000000000000000000000000000000000000000000"
          ],
          "data": "0x000000000000000000000000000000000000000000000000000002aab46d1ec0",
          "blockHash": "0x714c78ee36f9169ac2a89d347af0f67257ee2f32786390c3f265a640331841e1",
          "blockNumber": "0x73166a",
          "transactionHash": "0x002771d7e0241614884707141907c2bc6d7cd38c697821d7f63be97dc8f9514b",
          "transactionIndex": "0x7d",
          "logIndex": "0x9b",
          "removed": false
        },
        {
          "address": "0x8aafd3ede9adb0ff97c7aebce82a919afb1c8764",
          "topics": [
            "0xddf252ad1be2c89b69c2b068fc378daa952ba7f163c4a11628f55a4df523b3ef",
            "0x000000000000000000000000c77f7fed3b5cc8249adc428c5f44c9063b9734b4",
            "0x000000000000000000000000c77f7fed3b5cc8249adc428c5f44c9063b9734b4"
          ],
          "data": "0x0000000000000000000000000000000000000000000000000000000581747e2e",
          "blockHash": "0x714c78ee36f9169ac2a89d347af0f67257ee2f32786390c3f265a640331841e1",
          "blockNumber": "0x73166a",
          "transactionHash": "0x002771d7e0241614884707141907c2bc6d7cd38c697821d7f63be97dc8f9514b",
          "transactionIndex": "0x7d",
          "logIndex": "0x9c",
          "removed": false
        },
        {
          "address": "0x8aafd3ede9adb0ff97c7aebce82a919afb1c8764",
          "topics": [
            "0x4afcb4a87cdbd9974efdb92ee48bc8d7cd0ae4bf217004db3d080cbaee652ca7"
          ],
          "data": "0x00000000000000000000000000000000000000000000000000000000679009a40000000000000000000000000000000000000000000000000004e4f2bbafc50200000000000000000000000000000000000000000000000000000000f2b6b0e9",
          "blockHash": "0x714c78ee36f9169ac2a89d347af0f67257ee2f32786390c3f265a640331841e1",
          "blockNumber": "0x73166a",
          "transactionHash": "0x002771d7e0241614884707141907c2bc6d7cd38c697821d7f63be97dc8f9514b",
          "transactionIndex": "0x7d",
          "logIndex": "0x9d",
          "removed": false
        }
      ],
      "logsBloom": "0x00000000000000000000000000000000000000000600000000000000000000000000000000000000000000000000000000000000000000004000000000000000000000000000004000000008000000000000000000000000000000000000000000000000020000000000000000000800020000000000000000000010000000000000000000000000000000000000000000000000000000000000010000000000000000000000000000000000000000004000000000000000000000000000000000000002000000800000000000000000000000000000080000000000000020000000000000000000000000000000000000000000000000000000000000000000",
      "type": "0x2",
      "transactionHash": "0x002771d7e0241614884707141907c2bc6d7cd38c697821d7f63be97dc8f9514b",
      "transactionIndex": "0x7d",
      "blockHash": "0x714c78ee36f9169ac2a89d347af0f67257ee2f32786390c3f265a640331841e1",
      "blockNumber": "0x73166a",
      "gasUsed": "0xfd27",
      "effectiveGasPrice": "0x4b3e87bd",
      "from": "0xc77f7fed3b5cc8249adc428c5f44c9063b9734b4",
      "to": "0x8aafd3ede9adb0ff97c7aebce82a919afb1c8764",
      "contractAddress": null
    }
  ],
  "libraries": [],
  "pending": [],
  "returns": {},
  "timestamp": 1737492902,
  "chain": 11155111,
  "commit": "1d2fb70"
}