{
  "transactions": [
    {
      "hash": "0xc9423632989fd5738996edc2e9a52e2f6fd71e383f3b65faef914a308e929de2",
      "transactionType": "CALL",
      "contractName": null,
      "contractAddress": "0x8aafd3ede9adb0ff97c7aebce82a919afb1c8764",
      "function": "sell(uint256)",
      "arguments": [
        "679080573019084093519"
      ],
      "transaction": {
        "from": "0xc77f7fed3b5cc8249adc428c5f44c9063b9734b4",
        "to": "0x8aafd3ede9adb0ff97c7aebce82a919afb1c8764",
        "gas": "0x17270",
        "value": "0x0",
        "input": "0xe4849b32000000000000000000000000000000000000000000000024d022d73cdf38f84f",
        "nonce": "0x120d",
        "chainId": "0xaa36a7"
      },
      "additionalContracts": [],
      "isFixedGasLimit": false
    }
  ],
  "receipts": [
    {
      "status": "0x1",
      "cumulativeGasUsed": "0xc26f25",
      "logs": [
        {
          "address": "0x8aafd3ede9adb0ff97c7aebce82a919afb1c8764",
          "topics": [
            "0xddf252ad1be2c89b69c2b068fc378daa952ba7f163c4a11628f55a4df523b3ef",
            "0x000000000000000000000000c77f7fed3b5cc8249adc428c5f44c9063b9734b4",
            "0x0000000000000000000000000000000000000000000000000000000000000000"
          ],
          "data": "0x00000000000000000000000000000000000000000000002484be35c599da4e63",
          "blockHash": "0x0b9b108549e78e7f6dd8202dd08d9c9feef142f08e927bca71c22b600416e225",
          "blockNumber": "0x7318e8",
          "transactionHash": "0xc9423632989fd5738996edc2e9a52e2f6fd71e383f3b65faef914a308e929de2",
          "transactionIndex": "0x5e",
          "logIndex": "0x8e",
          "removed": false
        },
        {
          "address": "0x8aafd3ede9adb0ff97c7aebce82a919afb1c8764",
          "topics": [
            "0xddf252ad1be2c89b69c2b068fc378daa952ba7f163c4a11628f55a4df523b3ef",
            "0x000000000000000000000000c77f7fed3b5cc8249adc428c5f44c9063b9734b4",
            "0x000000000000000000000000c77f7fed3b5cc8249adc428c5f44c9063b9734b4"
          ],
          "data": "0x0000000000000000000000000000000000000000000000004b64a177455ea9ec",
          "blockHash": "0x0b9b108549e78e7f6dd8202dd08d9c9feef142f08e927bca71c22b600416e225",
          "blockNumber": "0x7318e8",
          "transactionHash": "0xc9423632989fd5738996edc2e9a52e2f6fd71e383f3b65faef914a308e929de2",
          "transactionIndex": "0x5e",
          "logIndex": "0x8f",
          "removed": false
        },
        {
          "address": "0x8aafd3ede9adb0ff97c7aebce82a919afb1c8764",
          "topics": [
            "0x4afcb4a87cdbd9974efdb92ee48bc8d7cd0ae4bf217004db3d080cbaee652ca7"
          ],
          "data": "0x00000000000000000000000000000000000000000000000000000000679027b0000000000000000000000000000000000000000000000000000533606f86345e0000000000000000000000000000000000000000000000000dc8f175857e793b",
          "blockHash": "0x0b9b108549e78e7f6dd8202dd08d9c9feef142f08e927bca71c22b600416e225",
          "blockNumber": "0x7318e8",
          "transactionHash": "0xc9423632989fd5738996edc2e9a52e2f6fd71e383f3b65faef914a308e929de2",
          "transactionIndex": "0x5e",
          "logIndex": "0x90",
          "removed": false
        }
      ],
      "logsBloom": "0x00000000000000000000000000000000000000000600000000000000000000000000000000000000000000000000000000000000000000004000000000000000000000000000004000000008000000000000000000000000000000000000000000000000020000000000000000000800020000000000000000000010000000000000000000000000000000000000000000000000000000000000010000000000000000000000000000000000000000004000000000000000000000000000000000000002000000800000000000000000000000000000080000000000000020000000000000000000000000000000000000000000000000000000000000000000",
      "type": "0x2",
      "transactionHash": "0xc9423632989fd5738996edc2e9a52e2f6fd71e383f3b65faef914a308e929de2",
      "transactionIndex": "0x5e",
      "blockHash": "0x0b9b108549e78e7f6dd8202dd08d9c9feef142f08e927bca71c22b600416e225",
      "blockNumber": "0x7318e8",
      "gasUsed": "0xfd4b",
      "effectiveGasPrice": "0x443dda8f",
      "from": "0xc77f7fed3b5cc8249adc428c5f44c9063b9734b4",
      "to": "0x8aafd3ede9adb0ff97c7aebce82a919afb1c8764",
      "contractAddress": null
    }
  ],
  "libraries": [],
  "pending": [],
  "returns": {},
  "timestamp": 1737500594,
  "chain": 11155111,
  "commit": "1d2fb70"
}