{
  "transactions": [
    {
      "hash": "0xf0919d3c56b617717aa1cd3a7a17a0799403be4e7b9824288b86e2a78d75de25",
      "transactionType": "CALL",
      "contractName": null,
      "contractAddress": "0x270e88f8683660553e8ba4eb2ad7c91a1710d769",
      "function": "sell(uint256)",
      "arguments": [
        "959365914408090533285"
      ],
      "transaction": {
        "from": "0xc77f7fed3b5cc8249adc428c5f44c9063b9734b4",
        "to": "0x270e88f8683660553e8ba4eb2ad7c91a1710d769",
        "gas": "0x16fec",
        "value": "0x0",
        "input": "0xe4849b3200000000000000000000000000000000000000000000003401e06837380afda5",
        "nonce": "0x5af",
        "chainId": "0xaa36a7"
      },
      "additionalContracts": [],
      "isFixedGasLimit": false
    }
  ],
  "receipts": [
    {
      "status": "0x1",
      "cumulativeGasUsed": "0x908d32",
      "logs": [
        {
          "address": "0x270e88f8683660553e8ba4eb2ad7c91a1710d769",
          "topics": [
            "0xddf252ad1be2c89b69c2b068fc378daa952ba7f163c4a11628f55a4df523b3ef",
            "0x000000000000000000000000c77f7fed3b5cc8249adc428c5f44c9063b9734b4",
            "0x0000000000000000000000000000000000000000000000000000000000000000"
          ],
          "data": "0x00000000000000000000000000000000000000000000003401e06837380afda5",
          "blockHash": "0x7bcecb17823ed5a7e98f45a28b9960710a138ebc73caa1e1dbe7637bd69d8a51",
          "blockNumber": "0x725269",
          "transactionHash": "0xf0919d3c56b617717aa1cd3a7a17a0799403be4e7b9824288b86e2a78d75de25",
          "transactionIndex": "0x5e",
          "logIndex": "0xc3",
          "removed": false
        },
        {
          "address": "0x270e88f8683660553e8ba4eb2ad7c91a1710d769",
          "topics": [
            "0x4afcb4a87cdbd9974efdb92ee48bc8d7cd0ae4bf217004db3d080cbaee652ca7"
          ],
          "data": "0x000000000000000000000000000000000000000000000000000000006786cedc0000000000000000000000000000000000000000000000000003adad0013a2df0000000000000000000000000000000000000000000000000dc83f1f05161410",
          "blockHash": "0x7bcecb17823ed5a7e98f45a28b9960710a138ebc73caa1e1dbe7637bd69d8a51",
          "blockNumber": "0x725269",
          "transactionHash": "0xf0919d3c56b617717aa1cd3a7a17a0799403be4e7b9824288b86e2a78d75de25",
          "transactionIndex": "0x5e",
          "logIndex": "0xc4",
          "removed": false
        }
      ],
      "logsBloom": "0x00000000000000000000000000000000000000000000000000000000000000000000000000000000000000000000000020000000000000004000000000000000000000000000000000000008000000000000000000000000000000000000000000000000020000000000000000000800020000000000000000000010000000000000000000010000000000000000000000000000000000000000010000000000000000000000000000000000000000004000000000000000000000000000000000000002000000800000000000000000000000000000080000008000000020000000000000000000000000000000000000000000000000000000000000000000",
      "type": "0x2",
      "transactionHash": "0xf0919d3c56b617717aa1cd3a7a17a0799403be4e7b9824288b86e2a78d75de25",
      "transactionIndex": "0x5e",
      "blockHash": "0x7bcecb17823ed5a7e98f45a28b9960710a138ebc73caa1e1dbe7637bd69d8a51",
      "blockNumber": "0x725269",
      "gasUsed": "0xfb93",
      "effectiveGasPrice": "0x487618ec5",
      "from": "0xc77f7fed3b5cc8249adc428c5f44c9063b9734b4",
      "to": "0x270e88f8683660553e8ba4eb2ad7c91a1710d769",
      "contractAddress": null
    }
  ],
  "libraries": [],
  "pending": [],
  "returns": {},
  "timestamp": 1736888029,
  "chain": 11155111,
  "commit": "51a374b"
}