{
  "transactions": [
    {
      "hash": "0x4aa4bc9e9694357f48e16d3f42e2f959c53f58edeedf4718be5b225ac790701f",
      "transactionType": "CALL",
      "contractName": null,
      "contractAddress": "0x5eb9cc76c3506942c1c0ead70e877dd5e4f00cb0",
      "function": "buy(address)",
      "arguments": [
        "0xC77f7fed3b5Cc8249aDc428c5F44C9063B9734b4"
      ],
      "transaction": {
        "from": "0xc77f7fed3b5cc8249adc428c5f44c9063b9734b4",
        "to": "0x5eb9cc76c3506942c1c0ead70e877dd5e4f00cb0",
        "gas": "0x156c8",
        "value": "0xde0b6b3a7640000",
        "input": "0xf088d547000000000000000000000000c77f7fed3b5cc8249adc428c5f44c9063b9734b4",
        "nonce": "0x131",
        "chainId": "0xaa36a7"
      },
      "additionalContracts": [],
      "isFixedGasLimit": false
    }
  ],
  "receipts": [
    {
      "status": "0x1",
      "cumulativeGasUsed": "0x4632f8",
      "logs": [
        {
          "address": "0x5eb9cc76c3506942c1c0ead70e877dd5e4f00cb0",
          "topics": [
            "0xddf252ad1be2c89b69c2b068fc378daa952ba7f163c4a11628f55a4df523b3ef",
            "0x0000000000000000000000000000000000000000000000000000000000000000",
            "0x000000000000000000000000c77f7fed3b5cc8249adc428c5f44c9063b9734b4"
          ],
          "data": "0x000000000000000000000000000000000000000000000035aafed278acf4eb1c",
          "blockHash": "0x333d81a377c0189fcaee52f0a1bbbeba4ac8817e41f6a6521f015c906492c57c",
          "blockNumber": "0x723b13",
          "transactionHash": "0x4aa4bc9e9694357f48e16d3f42e2f959c53f58edeedf4718be5b225ac790701f",
          "transactionIndex": "0x3a",
          "logIndex": "0x49",
          "removed": false
        },
        {
          "address": "0x5eb9cc76c3506942c1c0ead70e877dd5e4f00cb0",
          "topics": [
            "0xddf252ad1be2c89b69c2b068fc378daa952ba7f163c4a11628f55a4df523b3ef",
            "0x0000000000000000000000000000000000000000000000000000000000000000",
            "0x000000000000000000000000c77f7fed3b5cc8249adc428c5f44c9063b9734b4"
          ],
          "data": "0x00000000000000000000000000000000000000000000000029accc6e9a5331ff",
          "blockHash": "0x333d81a377c0189fcaee52f0a1bbbeba4ac8817e41f6a6521f015c906492c57c",
          "blockNumber": "0x723b13",
          "transactionHash": "0x4aa4bc9e9694357f48e16d3f42e2f959c53f58edeedf4718be5b225ac790701f",
          "transactionIndex": "0x3a",
          "logIndex": "0x4a",
          "removed": false
        },
        {
          "address": "0x5eb9cc76c3506942c1c0ead70e877dd5e4f00cb0",
          "topics": [
            "0x4afcb4a87cdbd9974efdb92ee48bc8d7cd0ae4bf217004db3d080cbaee652ca7"
          ],
          "data": "0x000000000000000000000000000000000000000000000000000000006785b63800000000000000000000000000000000000000000000000000038d7eeac3b3470000000000000000000000000000000000000000000000000de0b6b3a7640000",
          "blockHash": "0x333d81a377c0189fcaee52f0a1bbbeba4ac8817e41f6a6521f015c906492c57c",
          "blockNumber": "0x723b13",
          "transactionHash": "0x4aa4bc9e9694357f48e16d3f42e2f959c53f58edeedf4718be5b225ac790701f",
          "transactionIndex": "0x3a",
          "logIndex": "0x4b",
          "removed": false
        }
      ],
      "logsBloom": "0x00000000000000000000000000000000000000000000000000000000000000000000000000000000000000000000000000000000000000004000000000000000000000000000000000000008000000000000000000000000000000000000000000000000020000000000000004000800020000000000000000000010000000000000000000000000000000000000000000000000000000000000010000000000000000000000000000000000000000004000000000000000000000000000020000000002000000800000008000000000000000000000080000000000000020000000000000000000000000000000000000000000000000000000000000000000",
      "type": "0x2",
      "transactionHash": "0x4aa4bc9e9694357f48e16d3f42e2f959c53f58edeedf4718be5b225ac790701f",
      "transactionIndex": "0x3a",
      "blockHash": "0x333d81a377c0189fcaee52f0a1bbbeba4ac8817e41f6a6521f015c906492c57c",
      "blockNumber": "0x723b13",
      "gasUsed": "0xf82c",
      "effectiveGasPrice": "0x31b4bdd23",
      "from": "0xc77f7fed3b5cc8249adc428c5f44c9063b9734b4",
      "to": "0x5eb9cc76c3506942c1c0ead70e877dd5e4f00cb0",
      "contractAddress": null
    }
  ],
  "libraries": [],
  "pending": [],
  "returns": {},
  "timestamp": 1736816185,
  "chain": 11155111,
  "commit": "51a374b"
}