{
  "transactions": [
    {
      "hash": "0xcd0384447bbe97fcf6f2842c20f8945cf4448ebc9ffeeefcaba1c691198b20ea",
      "transactionType": "CALL",
      "contractName": null,
      "contractAddress": "0xbf4a322f1496e5c3d34a9bcdb4c60567b38c7de2",
      "function": "sell(uint256)",
      "arguments": [
        "989721587428079956402"
      ],
      "transaction": {
        "from": "0xc77f7fed3b5cc8249adc428c5f44c9063b9734b4",
        "to": "0xbf4a322f1496e5c3d34a9bcdb4c60567b38c7de2",
        "gas": "0x16fea",
        "value": "0x0",
        "input": "0xe4849b32000000000000000000000000000000000000000000000035a7256bff026bf1b2",
        "nonce": "0x94b",
        "chainId": "0xaa36a7"
      },
      "additionalContracts": [],
      "isFixedGasLimit": false
    }
  ],
  "receipts": [
    {
      "status": "0x1",
      "cumulativeGasUsed": "0x830128",
      "logs": [
        {
          "address": "0xbf4a322f1496e5c3d34a9bcdb4c60567b38c7de2",
          "topics": [
            "0xddf252ad1be2c89b69c2b068fc378daa952ba7f163c4a11628f55a4df523b3ef",
            "0x000000000000000000000000c77f7fed3b5cc8249adc428c5f44c9063b9734b4",
            "0x0000000000000000000000000000000000000000000000000000000000000000"
          ],
          "data": "0x000000000000000000000000000000000000000000000035a7256bff026bf1b2",
          "blockHash": "0x778a2c459c5026d642cfe1c65bf836f0ece33aebc1fffd9370dd0b2b693eba04",
          "blockNumber": "0x7258d7",
          "transactionHash": "0xcd0384447bbe97fcf6f2842c20f8945cf4448ebc9ffeeefcaba1c691198b20ea",
          "transactionIndex": "0x48",
          "logIndex": "0x67",
          "removed": false
        },
        {
          "address": "0xbf4a322f1496e5c3d34a9bcdb4c60567b38c7de2",
          "topics": [
            "0x4afcb4a87cdbd9974efdb92ee48bc8d7cd0ae4bf217004db3d080cbaee652ca7"
          ],
          "data": "0x0000000000000000000000000000000000000000000000000000000067871c40000000000000000000000000000000000000000000000000000390890e7d60070000000000000000000000000000000000000000000000000dc7e3f8ab43f289",
          "blockHash": "0x778a2c459c5026d642cfe1c65bf836f0ece33aebc1fffd9370dd0b2b693eba04",
          "blockNumber": "0x7258d7",
          "transactionHash": "0xcd0384447bbe97fcf6f2842c20f8945cf4448ebc9ffeeefcaba1c691198b20ea",
          "transactionIndex": "0x48",
          "logIndex": "0x68",
          "removed": false
        }
      ],
      "logsBloom": "0x00000000000000000000000000000000000000000000000000000000000000000000000000000000000000000000000000000000000000004000000000000000000000000000000000000008000000000000001000000000000000000000000000000000020000000000000000000800020000000000000000000010000000000000000000000000000000000000000000000000000008000000010000000000000000000000000000000000000000004000000000000000000000000000000000000002000000800000000000001000000000000000080000000000000020000000000000000000000000000000000000000000000000000000000000000000",
      "type": "0x2",
      "transactionHash": "0xcd0384447bbe97fcf6f2842c20f8945cf4448ebc9ffeeefcaba1c691198b20ea",
      "transactionIndex": "0x48",
      "blockHash": "0x778a2c459c5026d642cfe1c65bf836f0ece33aebc1fffd9370dd0b2b693eba04",
      "blockNumber": "0x7258d7",
      "gasUsed": "0xfb91",
      "effectiveGasPrice": "0x71ca9967",
      "from": "0xc77f7fed3b5cc8249adc428c5f44c9063b9734b4",
      "to": "0xbf4a322f1496e5c3d34a9bcdb4c60567b38c7de2",
      "contractAddress": null
    }
  ],
  "libraries": [],
  "pending": [],
  "returns": {},
  "timestamp": 1736907842,
  "chain": 11155111,
  "commit": "51a374b"
}