{
  "transactions": [
    {
      "hash": "0x1c538637aaf3385d94f06c565772b66a869fa211d69118c593d63d2afd095447",
      "transactionType": "CALL",
      "contractName": null,
      "contractAddress": "0xd7bc75898e513accccf720a874d44dab5a4b6223",
      "function": "buy(address)",
      "arguments": [
        "0xC77f7fed3b5Cc8249aDc428c5F44C9063B9734b4"
      ],
      "transaction": {
        "from": "0xc77f7fed3b5cc8249adc428c5f44c9063b9734b4",
        "to": "0xd7bc75898e513accccf720a874d44dab5a4b6223",
        "gas": "0x1b30c",
        "value": "0x16345785d8a0000",
        "input": "0xf088d547000000000000000000000000c77f7fed3b5cc8249adc428c5f44c9063b9734b4",
        "nonce": "0x77",
        "chainId": "0xaa36a7"
      },
      "additionalContracts": [],
      "isFixedGasLimit": false
    },
    {
      "hash": "0x0df21c6fe7a0109e6327f1551089024f62581e091a67b36b65a7ffbe0af42903",
      "transactionType": "CALL",
      "contractName": null,
      "contractAddress": "0xd7bc75898e513accccf720a874d44dab5a4b6223",
      "function": "sell(uint256)",
      "arguments": [
        "99300264638665730629"
      ],
      "transaction": {
        "from": "0xc77f7fed3b5cc8249adc428c5f44c9063b9734b4",
        "to": "0xd7bc75898e513accccf720a874d44dab5a4b6223",
        "gas": "0x16fec",
        "value": "0x0",
        "input": "0xe4849b3200000000000000000000000000000000000000000000000562116892d1f42a45",
        "nonce": "0x78",
        "chainId": "0xaa36a7"
      },
      "additionalContracts": [],
      "isFixedGasLimit": false
    }
  ],
  "receipts": [
    {
      "status": "0x1",
      "cumulativeGasUsed": "0xd2dd3b",
      "logs": [
        {
          "address": "0xd7bc75898e513accccf720a874d44dab5a4b6223",
          "topics": [
            "0xddf252ad1be2c89b69c2b068fc378daa952ba7f163c4a11628f55a4df523b3ef",
            "0x0000000000000000000000000000000000000000000000000000000000000000",
            "0x000000000000000000000000c77f7fed3b5cc8249adc428c5f44c9063b9734b4"
          ],
          "data": "0x0000000000000000000000000000000000000000000000055de68723b8c4f7c4",
          "blockHash": "0x358538c8c61066564cbc4532aa6d258a5fd51c8db7be5ed03f1524bbf734a2cb",
          "blockNumber": "0x7238a1",
          "transactionHash": "0x1c538637aaf3385d94f06c565772b66a869fa211d69118c593d63d2afd095447",
          "transactionIndex": "0x52",
          "logIndex": "0xa1",
          "removed": false
        },
        {
          "address": "0xd7bc75898e513accccf720a874d44dab5a4b6223",
          "topics": [
            "0xddf252ad1be2c89b69c2b068fc378daa952ba7f163c4a11628f55a4df523b3ef",
            "0x0000000000000000000000000000000000000000000000000000000000000000",
            "0x000000000000000000000000c77f7fed3b5cc8249adc428c5f44c9063b9734b4"
          ],
          "data": "0x000000000000000000000000000000000000000000000000042ae16f192f3281",
          "blockHash": "0x358538c8c61066564cbc4532aa6d258a5fd51c8db7be5ed03f1524bbf734a2cb",
          "blockNumber": "0x7238a1",
          "transactionHash": "0x1c538637aaf3385d94f06c565772b66a869fa211d69118c593d63d2afd095447",
          "transactionIndex": "0x52",
          "logIndex": "0xa2",
          "removed": false
        },
        {
          "address": "0xd7bc75898e513accccf720a874d44dab5a4b6223",
          "topics": [
            "0x4afcb4a87cdbd9974efdb92ee48bc8d7cd0ae4bf217004db3d080cbaee652ca7"
          ],
          "data": "0x00000000000000000000000000000000000000000000000000000000678598d400000000000000000000000000000000000000000000000000038d7ebae0521c000000000000000000000000000000000000000000000000016345785d8a0000",
          "blockHash": "0x358538c8c61066564cbc4532aa6d258a5fd51c8db7be5ed03f1524bbf734a2cb",
          "blockNumber": "0x7238a1",
          "transactionHash": "0x1c538637aaf3385d94f06c565772b66a869fa211d69118c593d63d2afd095447",
          "transactionIndex": "0x52",
          "logIndex": "0xa3",
          "removed": false
        }
      ],
      "logsBloom": "0x00000000000000000000000000000000000000000000000000000000000000000000000000000000000000000000000000000000000000004000000000000000000000000000000000000008000000000000000000000000000000000000000000000000020000000000000000000800020000000000000000000010000000000000000000000000000000000000000000000000000000000000010000000000000000000000000000000000000000004000001000000000000000000000000000000002000000800000000000004000000000000000080000000000000020000000000000000000000000000000000000000000080000000000000000000000",
      "type": "0x2",
      "transactionHash": "0x1c538637aaf3385d94f06c565772b66a869fa211d69118c593d63d2afd095447",
      "transactionIndex": "0x52",
      "blockHash": "0x358538c8c61066564cbc4532aa6d258a5fd51c8db7be5ed03f1524bbf734a2cb",
      "blockNumber": "0x7238a1",
      "gasUsed": "0x13af8",
      "effectiveGasPrice": "0x21591ef",
      "from": "0xc77f7fed3b5cc8249adc428c5f44c9063b9734b4",
      "to": "0xd7bc75898e513accccf720a874d44dab5a4b6223",
      "contractAddress": null
    },
    {
      "status": "0x1",
      "cumulativeGasUsed": "0xd3d8ce",
      "logs": [
        {
          "address": "0xd7bc75898e513accccf720a874d44dab5a4b6223",
          "topics": [
            "0xddf252ad1be2c89b69c2b068fc378daa952ba7f163c4a11628f55a4df523b3ef",
            "0x000000000000000000000000c77f7fed3b5cc8249adc428c5f44c9063b9734b4",
            "0x0000000000000000000000000000000000000000000000000000000000000000"
          ],
          "data": "0x00000000000000000000000000000000000000000000000562116892d1f42a45",
          "blockHash": "0x358538c8c61066564cbc4532aa6d258a5fd51c8db7be5ed03f1524bbf734a2cb",
          "blockNumber": "0x7238a1",
          "transactionHash": "0x0df21c6fe7a0109e6327f1551089024f62581e091a67b36b65a7ffbe0af42903",
          "transactionIndex": "0x53",
          "logIndex": "0xa4",
          "removed": false
        },
        {
          "address": "0xd7bc75898e513accccf720a874d44dab5a4b6223",
          "topics": [
            "0x4afcb4a87cdbd9974efdb92ee48bc8d7cd0ae4bf217004db3d080cbaee652ca7"
          ],
          "data": "0x00000000000000000000000000000000000000000000000000000000678598d400000000000000000000000000000000000000000000000000038d7ebc1bfce40000000000000000000000000000000000000000000000000160c9191a82ed19",
          "blockHash": "0x358538c8c61066564cbc4532aa6d258a5fd51c8db7be5ed03f1524bbf734a2cb",
          "blockNumber": "0x7238a1",
          "transactionHash": "0x0df21c6fe7a0109e6327f1551089024f62581e091a67b36b65a7ffbe0af42903",
          "transactionIndex": "0x53",
          "logIndex": "0xa5",
          "removed": false
        }
      ],
      "logsBloom": "0x00000000000000000000000000000000000000000000000000000000000000000000000000000000000000000000000000000000000000004000000000000000000000000000000000000008000000000000000000000000000000000000000000000000020000000000000000000800020000000000000000000010000000000000000000000000000000000000000000000000000000000000010000000000000000000000000000000000000000004000001000000000000000000000000000000002000000800000000000004000000000000000080000000000000020000000000000000000000000000000000000000000080000000000000000000000",
      "type": "0x2",
      "transactionHash": "0x0df21c6fe7a0109e6327f1551089024f62581e091a67b36b65a7ffbe0af42903",
      "transactionIndex": "0x53",
      "blockHash": "0x358538c8c61066564cbc4532aa6d258a5fd51c8db7be5ed03f1524bbf734a2cb",
      "blockNumber": "0x7238a1",
      "gasUsed": "0xfb93",
      "effectiveGasPrice": "0x21591ef",
      "from": "0xc77f7fed3b5cc8249adc428c5f44c9063b9734b4",
      "to": "0xd7bc75898e513accccf720a874d44dab5a4b6223",
      "contractAddress": null
    }
  ],
  "libraries": [],
  "pending": [],
  "returns": {},
  "timestamp": 1736808660,
  "chain": 11155111,
  "commit": "51a374b"
}