{
  "transactions": [
    {
      "hash": "0x5f3f8bbdce9ff1f3af1302da8923685f34251b98fad986892fb1de7f07ca2250",
      "transactionType": "CALL",
      "contractName": null,
      "contractAddress": "0x8aafd3ede9adb0ff97c7aebce82a919afb1c8764",
      "function": "sell(uint256)",
      "arguments": [
        "12418"
      ],
      "transaction": {
        "from": "0xc77f7fed3b5cc8249adc428c5f44c9063b9734b4",
        "to": "0x8aafd3ede9adb0ff97c7aebce82a919afb1c8764",
        "gas": "0x14e4c",
        "value": "0x0",
        "input": "0xe4849b320000000000000000000000000000000000000000000000000000000000003082",
        "nonce": "0xfc9",
        "chainId": "0xaa36a7"
      },
      "additionalContracts": [],
      "isFixedGasLimit": false
    }
  ],
  "receipts": [
    {
      "status": "0x1",
      "cumulativeGasUsed": "0x13c588b",
      "logs": [
        {
          "address": "0x8aafd3ede9adb0ff97c7aebce82a919afb1c8764",
          "topics": [
            "0xddf252ad1be2c89b69c2b068fc378daa952ba7f163c4a11628f55a4df523b3ef",
            "0x000000000000000000000000c77f7fed3b5cc8249adc428c5f44c9063b9734b4",
            "0x0000000000000000000000000000000000000000000000000000000000000000"
          ],
          "data": "0x000000000000000000000000000000000000000000000000000000000000301f",
          "blockHash": "0x4927973bfeab7f95fd12438bd95cc48b295d942213920d1ea7f1732808637474",
          "blockNumber": "0x731636",
          "transactionHash": "0x5f3f8bbdce9ff1f3af1302da8923685f34251b98fad986892fb1de7f07ca2250",
          "transactionIndex": "0xe4",
          "logIndex": "0x172",
          "removed": false
        },
        {
          "address": "0x8aafd3ede9adb0ff97c7aebce82a919afb1c8764",
          "topics": [
            "0xddf252ad1be2c89b69c2b068fc378daa952ba7f163c4a11628f55a4df523b3ef",
            "0x000000000000000000000000c77f7fed3b5cc8249adc428c5f44c9063b9734b4",
            "0x000000000000000000000000c77f7fed3b5cc8249adc428c5f44c9063b9734b4"
          ],
          "data": "0x0000000000000000000000000000000000000000000000000000000000000063",
          "blockHash": "0x4927973bfeab7f95fd12438bd95cc48b295d942213920d1ea7f1732808637474",
          "blockNumber": "0x731636",
          "transactionHash": "0x5f3f8bbdce9ff1f3af1302da8923685f34251b98fad986892fb1de7f07ca2250",
          "transactionIndex": "0xe4",
          "logIndex": "0x173",
          "removed": false
        },
        {
          "address": "0x8aafd3ede9adb0ff97c7aebce82a919afb1c8764",
          "topics": [
            "0x4afcb4a87cdbd9974efdb92ee48bc8d7cd0ae4bf217004db3d080cbaee652ca7"
          ],
          "data": "0x00000000000000000000000000000000000000000000000000000000679007340000000000000000000000000000000000000000000000000004c47708e008ea0000000000000000000000000000000000000000000000000000000000000010",
          "blockHash": "0x4927973bfeab7f95fd12438bd95cc48b295d942213920d1ea7f1732808637474",
          "blockNumber": "0x731636",
          "transactionHash": "0x5f3f8bbdce9ff1f3af1302da8923685f34251b98fad986892fb1de7f07ca2250",
          "transactionIndex": "0xe4",
          "logIndex": "0x174",
          "removed": false
        }
      ],
      "logsBloom": "0x00000000000000000000000000000000000000000600000000000000000000000000000000000000000000000000000000000000000000004000000000000000000000000000004000000008000000000000000000000000000000000000000000000000020000000000000000000800020000000000000000000010000000000000000000000000000000000000000000000000000000000000010000000000000000000000000000000000000000004000000000000000000000000000000000000002000000800000000000000000000000000000080000000000000020000000000000000000000000000000000000000000000000000000000000000000",
      "type": "0x2",
      "transactionHash": "0x5f3f8bbdce9ff1f3af1302da8923685f34251b98fad986892fb1de7f07ca2250",
      "transactionIndex": "0xe4",
      "blockHash": "0x4927973bfeab7f95fd12438bd95cc48b295d942213920d1ea7f1732808637474",
      "blockNumber": "0x731636",
      "gasUsed": "0xf207",
      "effectiveGasPrice": "0x50a74184",
      "from": "0xc77f7fed3b5cc8249adc428c5f44c9063b9734b4",
      "to": "0x8aafd3ede9adb0ff97c7aebce82a919afb1c8764",
      "contractAddress": null
    }
  ],
  "libraries": [],
  "pending": [],
  "returns": {},
  "timestamp": 1737492277,
  "chain": 11155111,
  "commit": "1d2fb70"
}