{
  "transactions": [
    {
      "hash": "0x4cd981210933d1219d8aca8e797e63b3e581fb03e34b4f17616c733ea3693ec7",
      "transactionType": "CALL",
      "contractName": null,
      "contractAddress": "0xbf4a322f1496e5c3d34a9bcdb4c60567b38c7de2",
      "function": "buy(address)",
      "arguments": [
        "0xC77f7fed3b5Cc8249aDc428c5F44C9063B9734b4"
      ],
      "transaction": {
        "from": "0xc77f7fed3b5cc8249adc428c5f44c9063b9734b4",
        "to": "0xbf4a322f1496e5c3d34a9bcdb4c60567b38c7de2",
        "gas": "0x1b309",
        "value": "0xde0b6b3a7640000",
        "input": "0xf088d547000000000000000000000000c77f7fed3b5cc8249adc428c5f44c9063b9734b4",
        "nonce": "0x9ac",
        "chainId": "0xaa36a7"
      },
      "additionalContracts": [],
      "isFixedGasLimit": false
    }
  ],
  "receipts": [
    {
      "status": "0x1",
      "cumulativeGasUsed": "0xab97b1",
      "logs": [
        {
          "address": "0xbf4a322f1496e5c3d34a9bcdb4c60567b38c7de2",
          "topics": [
            "0xddf252ad1be2c89b69c2b068fc378daa952ba7f163c4a11628f55a4df523b3ef",
            "0x0000000000000000000000000000000000000000000000000000000000000000",
            "0x000000000000000000000000c77f7fed3b5cc8249adc428c5f44c9063b9734b4"
          ],
          "data": "0x0000000000000000000000000000000000000000000000356b10dee3ff124f56",
          "blockHash": "0x4b6d393856c235c7e3730fda32401323a6cbf3d22de99c49b2913a7bd70244a9",
          "blockNumber": "0x725955",
          "transactionHash": "0x4cd981210933d1219d8aca8e797e63b3e581fb03e34b4f17616c733ea3693ec7",
          "transactionIndex": "0x5b",
          "logIndex": "0x8d",
          "removed": false
        },
        {
          "address": "0xbf4a322f1496e5c3d34a9bcdb4c60567b38c7de2",
          "topics": [
            "0xddf252ad1be2c89b69c2b068fc378daa952ba7f163c4a11628f55a4df523b3ef",
            "0x0000000000000000000000000000000000000000000000000000000000000000",
            "0x000000000000000000000000c77f7fed3b5cc8249adc428c5f44c9063b9734b4"
          ],
          "data": "0x000000000000000000000000000000000000000000000000297b27b6648ef014",
          "blockHash": "0x4b6d393856c235c7e3730fda32401323a6cbf3d22de99c49b2913a7bd70244a9",
          "blockNumber": "0x725955",
          "transactionHash": "0x4cd981210933d1219d8aca8e797e63b3e581fb03e34b4f17616c733ea3693ec7",
          "transactionIndex": "0x5b",
          "logIndex": "0x8e",
          "removed": false
        },
        {
          "address": "0xbf4a322f1496e5c3d34a9bcdb4c60567b38c7de2",
          "topics": [
            "0x4afcb4a87cdbd9974efdb92ee48bc8d7cd0ae4bf217004db3d080cbaee652ca7"
          ],
          "data": "0x0000000000000000000000000000000000000000000000000000000067872228000000000000000000000000000000000000000000000000000391c1ad9ac1ec0000000000000000000000000000000000000000000000000de0b6b3a7640000",
          "blockHash": "0x4b6d393856c235c7e3730fda32401323a6cbf3d22de99c49b2913a7bd70244a9",
          "blockNumber": "0x725955",
          "transactionHash": "0x4cd981210933d1219d8aca8e797e63b3e581fb03e34b4f17616c733ea3693ec7",
          "transactionIndex": "0x5b",
          "logIndex": "0x8f",
          "removed": false
        }
      ],
      "logsBloom": "0x00000000000000000000000000000000000000000000000000000000000000000000000000000000000000000000000000000000000000004000000000000000000000000000000000000008000000000000001000000000000000000000000000000000020000000000000000000800020000000000000000000010000000000000000000000000000000000000000000000000000008000000010000000000000000000000000000000000000000004000000000000000000000000000000000000002000000800000000000001000000000000000080000000000000020000000000000000000000000000000000000000000000000000000000000000000",
      "type": "0x2",
      "transactionHash": "0x4cd981210933d1219d8aca8e797e63b3e581fb03e34b4f17616c733ea3693ec7",
      "transactionIndex": "0x5b",
      "blockHash": "0x4b6d393856c235c7e3730fda32401323a6cbf3d22de99c49b2913a7bd70244a9",
      "blockNumber": "0x725955",
      "gasUsed": "0x13af6",
      "effectiveGasPrice": "0x224d13a5e",
      "from": "0xc77f7fed3b5cc8249adc428c5f44c9063b9734b4",
      "to": "0xbf4a322f1496e5c3d34a9bcdb4c60567b38c7de2",
      "contractAddress": null
    }
  ],
  "libraries": [],
  "pending": [],
  "returns": {},
  "timestamp": 1736909354,
  "chain": 11155111,
  "commit": "51a374b"
}