{
  "transactions": [
    {
      "hash": "0x83011fc32dd7b8efa8fd4953ffd0f6ec73030eea82e117c5c23a6949859fbfc4",
      "transactionType": "CALL",
      "contractName": null,
      "contractAddress": "0x8aafd3ede9adb0ff97c7aebce82a919afb1c8764",
      "function": "sell(uint256)",
      "arguments": [
        "11832"
      ],
      "transaction": {
        "from": "0xc77f7fed3b5cc8249adc428c5f44c9063b9734b4",
        "to": "0x8aafd3ede9adb0ff97c7aebce82a919afb1c8764",
        "gas": "0x14e4c",
        "value": "0x0",
        "input": "0xe4849b320000000000000000000000000000000000000000000000000000000000002e38",
        "nonce": "0x10c1",
        "chainId": "0xaa36a7"
      },
      "additionalContracts": [],
      "isFixedGasLimit": false
    }
  ],
  "receipts": [
    {
      "status": "0x1",
      "cumulativeGasUsed": "0xb437a8",
      "logs": [
        {
          "address": "0x8aafd3ede9adb0ff97c7aebce82a919afb1c8764",
          "topics": [
            "0xddf252ad1be2c89b69c2b068fc378daa952ba7f163c4a11628f55a4df523b3ef",
            "0x000000000000000000000000c77f7fed3b5cc8249adc428c5f44c9063b9734b4",
            "0x0000000000000000000000000000000000000000000000000000000000000000"
          ],
          "data": "0x0000000000000000000000000000000000000000000000000000000000002dda",
          "blockHash": "0x6db69af475c827c63465be5225151a219584b2ab1c90324144e945f5d8dd0a2a",
          "blockNumber": "0x731759",
          "transactionHash": "0x83011fc32dd7b8efa8fd4953ffd0f6ec73030eea82e117c5c23a6949859fbfc4",
          "transactionIndex": "0x7e",
          "logIndex": "0xcd",
          "removed": false
        },
        {
          "address": "0x8aafd3ede9adb0ff97c7aebce82a919afb1c8764",
          "topics": [
            "0xddf252ad1be2c89b69c2b068fc378daa952ba7f163c4a11628f55a4df523b3ef",
            "0x000000000000000000000000c77f7fed3b5cc8249adc428c5f44c9063b9734b4",
            "0x000000000000000000000000c77f7fed3b5cc8249adc428c5f44c9063b9734b4"
          ],
          "data": "0x000000000000000000000000000000000000000000000000000000000000005e",
          "blockHash": "0x6db69af475c827c63465be5225151a219584b2ab1c90324144e945f5d8dd0a2a",
          "blockNumber": "0x731759",
          "transactionHash": "0x83011fc32dd7b8efa8fd4953ffd0f6ec73030eea82e117c5c23a6949859fbfc4",
          "transactionIndex": "0x7e",
          "logIndex": "0xce",
          "removed": false
        },
        {
          "address": "0x8aafd3ede9adb0ff97c7aebce82a919afb1c8764",
          "topics": [
            "0x4afcb4a87cdbd9974efdb92ee48bc8d7cd0ae4bf217004db3d080cbaee652ca7"
          ],
          "data": "0x00000000000000000000000000000000000000000000000000000000679014f0000000000000000000000000000000000000000000000000000501fde3e688050000000000000000000000000000000000000000000000000000000000000010",
          "blockHash": "0x6db69af475c827c63465be5225151a219584b2ab1c90324144e945f5d8dd0a2a",
          "blockNumber": "0x731759",
          "transactionHash": "0x83011fc32dd7b8efa8fd4953ffd0f6ec73030eea82e117c5c23a6949859fbfc4",
          "transactionIndex": "0x7e",
          "logIndex": "0xcf",
          "removed": false
        }
      ],
      "logsBloom": "0x00000000000000000000000000000000000000000600000000000000000000000000000000000000000000000000000000000000000000004000000000000000000000000000004000000008000000000000000000000000000000000000000000000000020000000000000000000800020000000000000000000010000000000000000000000000000000000000000000000000000000000000010000000000000000000000000000000000000000004000000000000000000000000000000000000002000000800000000000000000000000000000080000000000000020000000000000000000000000000000000000000000000000000000000000000000",
      "type": "0x2",
      "transactionHash": "0x83011fc32dd7b8efa8fd4953ffd0f6ec73030eea82e117c5c23a6949859fbfc4",
      "transactionIndex": "0x7e",
      "blockHash": "0x6db69af475c827c63465be5225151a219584b2ab1c90324144e945f5d8dd0a2a",
      "blockNumber": "0x731759",
      "gasUsed": "0xf207",
      "effectiveGasPrice": "0x3bf8ae61",
      "from": "0xc77f7fed3b5cc8249adc428c5f44c9063b9734b4",
      "to": "0x8aafd3ede9adb0ff97c7aebce82a919afb1c8764",
      "contractAddress": null
    }
  ],
  "libraries": [],
  "pending": [],
  "returns": {},
  "timestamp": 1737495794,
  "chain": 11155111,
  "commit": "1d2fb70"
}