{
  "transactions": [
    {
      "hash": "0x77f25c9b771ba6d9874f0866409a7778ea512c650bbc6c792236f3e6e954df6c",
      "transactionType": "CALL",
      "contractName": null,
      "contractAddress": "0xbf4a322f1496e5c3d34a9bcdb4c60567b38c7de2",
      "function": "buy(address)",
      "arguments": [
        "0xC77f7fed3b5Cc8249aDc428c5F44C9063B9734b4"
      ],
      "transaction": {
        "from": "0xc77f7fed3b5cc8249adc428c5f44c9063b9734b4",
        "to": "0xbf4a322f1496e5c3d34a9bcdb4c60567b38c7de2",
        "gas": "0x1b309",
        "value": "0xde0b6b3a7640000",
        "input": "0xf088d547000000000000000000000000c77f7fed3b5cc8249adc428c5f44c9063b9734b4",
        "nonce": "0xc32",
        "chainId": "0xaa36a7"
      },
      "additionalContracts": [],
      "isFixedGasLimit": false
    }
  ],
  "receipts": [
    {
      "status": "0x1",
      "cumulativeGasUsed": "0x144f7b8",
      "logs": [
        {
          "address": "0xbf4a322f1496e5c3d34a9bcdb4c60567b38c7de2",
          "topics": [
            "0xddf252ad1be2c89b69c2b068fc378daa952ba7f163c4a11628f55a4df523b3ef",
            "0x0000000000000000000000000000000000000000000000000000000000000000",
            "0x000000000000000000000000c77f7fed3b5cc8249adc428c5f44c9063b9734b4"
          ],
          "data": "0x000000000000000000000000000000000000000000000034f214345b0fb57b4a",
          "blockHash": "0x370dc72f26a10d457cc5ddac8ca454b2b4eedc467ec89386ddda0fa182db7292",
          "blockNumber": "0x725c65",
          "transactionHash": "0x77f25c9b771ba6d9874f0866409a7778ea512c650bbc6c792236f3e6e954df6c",
          "transactionIndex": "0xa4",
          "logIndex": "0x163",
          "removed": false
        },
        {
          "address": "0xbf4a322f1496e5c3d34a9bcdb4c60567b38c7de2",
          "topics": [
            "0xddf252ad1be2c89b69c2b068fc378daa952ba7f163c4a11628f55a4df523b3ef",
            "0x0000000000000000000000000000000000000000000000000000000000000000",
            "0x000000000000000000000000c77f7fed3b5cc8249adc428c5f44c9063b9734b4"
          ],
          "data": "0x000000000000000000000000000000000000000000000000291d3461779c50c2",
          "blockHash": "0x370dc72f26a10d457cc5ddac8ca454b2b4eedc467ec89386ddda0fa182db7292",
          "blockNumber": "0x725c65",
          "transactionHash": "0x77f25c9b771ba6d9874f0866409a7778ea512c650bbc6c792236f3e6e954df6c",
          "transactionIndex": "0xa4",
          "logIndex": "0x164",
          "removed": false
        },
        {
          "address": "0xbf4a322f1496e5c3d34a9bcdb4c60567b38c7de2",
          "topics": [
            "0x4afcb4a87cdbd9974efdb92ee48bc8d7cd0ae4bf217004db3d080cbaee652ca7"
          ],
          "data": "0x0000000000000000000000000000000000000000000000000000000067874718000000000000000000000000000000000000000000000000000399e9b2de07b70000000000000000000000000000000000000000000000000de0b6b3a7640000",
          "blockHash": "0x370dc72f26a10d457cc5ddac8ca454b2b4eedc467ec89386ddda0fa182db7292",
          "blockNumber": "0x725c65",
          "transactionHash": "0x77f25c9b771ba6d9874f0866409a7778ea512c650bbc6c792236f3e6e954df6c",
          "transactionIndex": "0xa4",
          "logIndex": "0x165",
          "removed": false
        }
      ],
      "logsBloom": "0x00000000000000000000000000000000000000000000000000000000000000000000000000000000000000000000000000000000000000004000000000000000000000000000000000000008000000000000001000000000000000000000000000000000020000000000000000000800020000000000000000000010000000000000000000000000000000000000000000000000000008000000010000000000000000000000000000000000000000004000000000000000000000000000000000000002000000800000000000001000000000000000080000000000000020000000000000000000000000000000000000000000000000000000000000000000",
      "type": "0x2",
      "transactionHash": "0x77f25c9b771ba6d9874f0866409a7778ea512c650bbc6c792236f3e6e954df6c",
      "transactionIndex": "0xa4",
      "blockHash": "0x370dc72f26a10d457cc5ddac8ca454b2b4eedc467ec89386ddda0fa182db7292",
      "blockNumber": "0x725c65",
      "gasUsed": "0x13af6",
      "effectiveGasPrice": "0x19331a1ea",
      "from": "0xc77f7fed3b5cc8249adc428c5f44c9063b9734b4",
      "to": "0xbf4a322f1496e5c3d34a9bcdb4c60567b38c7de2",
      "contractAddress": null
    }
  ],
  "libraries": [],
  "pending": [],
  "returns": {},
  "timestamp": 1736918809,
  "chain": 11155111,
  "commit": "51a374b"
}