{
  "transactions": [
    {
      "hash": "0xb2eb28e85fe4d8e96b348787d5723f8b59b3b57a99697bb9fdd4be6f937aadd7",
      "transactionType": "CALL",
      "contractName": null,
      "contractAddress": "0x270e88f8683660553e8ba4eb2ad7c91a1710d769",
      "function": "sell(uint256)",
      "arguments": [
        "751290117602941261845"
      ],
      "transaction": {
        "from": "0xc77f7fed3b5cc8249adc428c5f44c9063b9734b4",
        "to": "0x270e88f8683660553e8ba4eb2ad7c91a1710d769",
        "gas": "0x16fec",
        "value": "0x0",
        "input": "0xe4849b32000000000000000000000000000000000000000000000028ba3ead7448c2d815",
        "nonce": "0x6be",
        "chainId": "0xaa36a7"
      },
      "additionalContracts": [],
      "isFixedGasLimit": false
    }
  ],
  "receipts": [
    {
      "status": "0x1",
      "cumulativeGasUsed": "0x81911c",
      "logs": [
        {
          "address": "0x270e88f8683660553e8ba4eb2ad7c91a1710d769",
          "topics": [
            "0xddf252ad1be2c89b69c2b068fc378daa952ba7f163c4a11628f55a4df523b3ef",
            "0x000000000000000000000000c77f7fed3b5cc8249adc428c5f44c9063b9734b4",
            "0x0000000000000000000000000000000000000000000000000000000000000000"
          ],
          "data": "0x000000000000000000000000000000000000000000000028ba3ead7448c2d815",
          "blockHash": "0xf338607927267c73f76bf949a0e692ad280c17d0b09b476f541fd0b58ef2daa0",
          "blockNumber": "0x7253cb",
          "transactionHash": "0xb2eb28e85fe4d8e96b348787d5723f8b59b3b57a99697bb9fdd4be6f937aadd7",
          "transactionIndex": "0x43",
          "logIndex": "0x70",
          "removed": false
        },
        {
          "address": "0x270e88f8683660553e8ba4eb2ad7c91a1710d769",
          "topics": [
            "0x4afcb4a87cdbd9974efdb92ee48bc8d7cd0ae4bf217004db3d080cbaee652ca7"
          ],
          "data": "0x000000000000000000000000000000000000000000000000000000006786df8c0000000000000000000000000000000000000000000000000004b26654f430b60000000000000000000000000000000000000000000000000dc829ab0b03f18f",
          "blockHash": "0xf338607927267c73f76bf949a0e692ad280c17d0b09b476f541fd0b58ef2daa0",
          "blockNumber": "0x7253cb",
          "transactionHash": "0xb2eb28e85fe4d8e96b348787d5723f8b59b3b57a99697bb9fdd4be6f937aadd7",
          "transactionIndex": "0x43",
          "logIndex": "0x71",
          "removed": false
        }
      ],
      "logsBloom": "0x00000000000000000000000000000000000000000000000000000000000000000000000000000000000000000000000020000000000000004000000000000000000000000000000000000008000000000000000000000000000000000000000000000000020000000000000000000800020000000000000000000010000000000000000000010000000000000000000000000000000000000000010000000000000000000000000000000000000000004000000000000000000000000000000000000002000000800000000000000000000000000000080000008000000020000000000000000000000000000000000000000000000000000000000000000000",
      "type": "0x2",
      "transactionHash": "0xb2eb28e85fe4d8e96b348787d5723f8b59b3b57a99697bb9fdd4be6f937aadd7",
      "transactionIndex": "0x43",
      "blockHash": "0xf338607927267c73f76bf949a0e692ad280c17d0b09b476f541fd0b58ef2daa0",
      "blockNumber": "0x7253cb",
      "gasUsed": "0xfb93",
      "effectiveGasPrice": "0x16f909011",
      "from": "0xc77f7fed3b5cc8249adc428c5f44c9063b9734b4",
      "to": "0x270e88f8683660553e8ba4eb2ad7c91a1710d769",
      "contractAddress": null
    }
  ],
  "libraries": [],
  "pending": [],
  "returns": {},
  "timestamp": 1736892301,
  "chain": 11155111,
  "commit": "51a374b"
}