{
  "transactions": [
    {
      "hash": "0xbf8a21f5a116cf8d32eae19056d3dc2567d6fa2af878a30db7c14eac68721303",
      "transactionType": "CALL",
      "contractName": null,
      "contractAddress": "0x8aafd3ede9adb0ff97c7aebce82a919afb1c8764",
      "function": "sell(uint256)",
      "arguments": [
        "195683794"
      ],
      "transaction": {
        "from": "0xc77f7fed3b5cc8249adc428c5f44c9063b9734b4",
        "to": "0x8aafd3ede9adb0ff97c7aebce82a919afb1c8764",
        "gas": "0x14e6c",
        "value": "0x0",
        "input": "0xe4849b32000000000000000000000000000000000000000000000000000000000ba9e5d2",
        "nonce": "0xee8",
        "chainId": "0xaa36a7"
      },
      "additionalContracts": [],
      "isFixedGasLimit": false
    }
  ],
  "receipts": [
    {
      "status": "0x1",
      "cumulativeGasUsed": "0x11712e6",
      "logs": [
        {
          "address": "0x8aafd3ede9adb0ff97c7aebce82a919afb1c8764",
          "topics": [
            "0xddf252ad1be2c89b69c2b068fc378daa952ba7f163c4a11628f55a4df523b3ef",
            "0x000000000000000000000000c77f7fed3b5cc8249adc428c5f44c9063b9734b4",
            "0x0000000000000000000000000000000000000000000000000000000000000000"
          ],
          "data": "0x000000000000000000000000000000000000000000000000000000000b9202b4",
          "blockHash": "0x02af1ecb82f3d3c22336a1b7086f06b390b98011ba0c94d45ec4cd94ed32bfac",
          "blockNumber": "0x73145f",
          "transactionHash": "0xbf8a21f5a116cf8d32eae19056d3dc2567d6fa2af878a30db7c14eac68721303",
          "transactionIndex": "0x7d",
          "logIndex": "0xb9",
          "removed": false
        },
        {
          "address": "0x8aafd3ede9adb0ff97c7aebce82a919afb1c8764",
          "topics": [
            "0xddf252ad1be2c89b69c2b068fc378daa952ba7f163c4a11628f55a4df523b3ef",
            "0x000000000000000000000000c77f7fed3b5cc8249adc428c5f44c9063b9734b4",
            "0x000000000000000000000000c77f7fed3b5cc8249adc428c5f44c9063b9734b4"
          ],
          "data": "0x000000000000000000000000000000000000000000000000000000000017e31e",
          "blockHash": "0x02af1ecb82f3d3c22336a1b7086f06b390b98011ba0c94d45ec4cd94ed32bfac",
          "blockNumber": "0x73145f",
          "transactionHash": "0xbf8a21f5a116cf8d32eae19056d3dc2567d6fa2af878a30db7c14eac68721303",
          "transactionIndex": "0x7d",
          "logIndex": "0xba",
          "removed": false
        },
        {
          "address": "0x8aafd3ede9adb0ff97c7aebce82a919afb1c8764",
          "topics": [
            "0x4afcb4a87cdbd9974efdb92ee48bc8d7cd0ae4bf217004db3d080cbaee652ca7"
          ],
          "data": "0x00000000000000000000000000000000000000000000000000000000678ff1200000000000000000000000000000000000000000000000000004ba47104e41a8000000000000000000000000000000000000000000000000000000000003f92f",
          "blockHash": "0x02af1ecb82f3d3c22336a1b7086f06b390b98011ba0c94d45ec4cd94ed32bfac",
          "blockNumber": "0x73145f",
          "transactionHash": "0xbf8a21f5a116cf8d32eae19056d3dc2567d6fa2af878a30db7c14eac68721303",
          "transactionIndex": "0x7d",
          "logIndex": "0xbb",
          "removed": false
        }
      ],
      "logsBloom": "0x00000000000000000000000000000000000000000600000000000000000000000000000000000000000000000000000000000000000000004000000000000000000000000000004000000008000000000000000000000000000000000000000000000000020000000000000000000800020000000000000000000010000000000000000000000000000000000000000000000000000000000000010000000000000000000000000000000000000000004000000000000000000000000000000000000002000000800000000000000000000000000000080000000000000020000000000000000000000000000000000000000000000000000000000000000000",
      "type": "0x2",
      "transactionHash": "0xbf8a21f5a116cf8d32eae19056d3dc2567d6fa2af878a30db7c14eac68721303",
      "transactionIndex": "0x7d",
      "blockHash": "0x02af1ecb82f3d3c22336a1b7086f06b390b98011ba0c94d45ec4cd94ed32bfac",
      "blockNumber": "0x73145f",
      "gasUsed": "0xf21f",
      "effectiveGasPrice": "0xc2e7d0f5",
      "from": "0xc77f7fed3b5cc8249adc428c5f44c9063b9734b4",
      "to": "0x8aafd3ede9adb0ff97c7aebce82a919afb1c8764",
      "contractAddress": null
    }
  ],
  "libraries": [],
  "pending": [],
  "returns": {},
  "timestamp": 1737486625,
  "chain": 11155111,
  "commit": "51a374b"
}