{
  "transactions": [
    {
      "hash": "0xb007a8a2f7d2f920c013f238648fb291cf2f3510dcf964789acdccd0abcad2a9",
      "transactionType": "CALL",
      "contractName": null,
      "contractAddress": "0x8aafd3ede9adb0ff97c7aebce82a919afb1c8764",
      "function": "sell(uint256)",
      "arguments": [
        "12571"
      ],
      "transaction": {
        "from": "0xc77f7fed3b5cc8249adc428c5f44c9063b9734b4",
        "to": "0x8aafd3ede9adb0ff97c7aebce82a919afb1c8764",
        "gas": "0x14e4c",
        "value": "0x0",
        "input": "0xe4849b32000000000000000000000000000000000000000000000000000000000000311b",
        "nonce": "0xe7c",
        "chainId": "0xaa36a7"
      },
      "additionalContracts": [],
      "isFixedGasLimit": false
    }
  ],
  "receipts": [
    {
      "status": "0x1",
      "cumulativeGasUsed": "0xa803c1",
      "logs": [
        {
          "address": "0x8aafd3ede9adb0ff97c7aebce82a919afb1c8764",
          "topics": [
            "0xddf252ad1be2c89b69c2b068fc378daa952ba7f163c4a11628f55a4df523b3ef",
            "0x000000000000000000000000c77f7fed3b5cc8249adc428c5f44c9063b9734b4",
            "0x0000000000000000000000000000000000000000000000000000000000000000"
          ],
          "data": "0x00000000000000000000000000000000000000000000000000000000000030b7",
          "blockHash": "0x6ce0aeed8269a001972c288e7e4fb406839e991979c4d157b90797c8d22df0aa",
          "blockNumber": "0x7313d6",
          "transactionHash": "0xb007a8a2f7d2f920c013f238648fb291cf2f3510dcf964789acdccd0abcad2a9",
          "transactionIndex": "0x8f",
          "logIndex": "0xa1",
          "removed": false
        },
        {
          "address": "0x8aafd3ede9adb0ff97c7aebce82a919afb1c8764",
          "topics": [
            "0xddf252ad1be2c89b69c2b068fc378daa952ba7f163c4a11628f55a4df523b3ef",
            "0x000000000000000000000000c77f7fed3b5cc8249adc428c5f44c9063b9734b4",
            "0x000000000000000000000000c77f7fed3b5cc8249adc428c5f44c9063b9734b4"
          ],
          "data": "0x0000000000000000000000000000000000000000000000000000000000000064",
          "blockHash": "0x6ce0aeed8269a001972c288e7e4fb406839e991979c4d157b90797c8d22df0aa",
          "blockNumber": "0x7313d6",
          "transactionHash": "0xb007a8a2f7d2f920c013f238648fb291cf2f3510dcf964789acdccd0abcad2a9",
          "transactionIndex": "0x8f",
          "logIndex": "0xa2",
          "removed": false
        },
        {
          "address": "0x8aafd3ede9adb0ff97c7aebce82a919afb1c8764",
          "topics": [
            "0x4afcb4a87cdbd9974efdb92ee48bc8d7cd0ae4bf217004db3d080cbaee652ca7"
          ],
          "data": "0x00000000000000000000000000000000000000000000000000000000678fea9c0000000000000000000000000000000000000000000000000004b5b470a2b0820000000000000000000000000000000000000000000000000000000000000010",
          "blockHash": "0x6ce0aeed8269a001972c288e7e4fb406839e991979c4d157b90797c8d22df0aa",
          "blockNumber": "0x7313d6",
          "transactionHash": "0xb007a8a2f7d2f920c013f238648fb291cf2f3510dcf964789acdccd0abcad2a9",
          "transactionIndex": "0x8f",
          "logIndex": "0xa3",
          "removed": false
        }
      ],
      "logsBloom": "0x00000000000000000000000000000000000000000600000000000000000000000000000000000000000000000000000000000000000000004000000000000000000000000000004000000008000000000000000000000000000000000000000000000000020000000000000000000800020000000000000000000010000000000000000000000000000000000000000000000000000000000000010000000000000000000000000000000000000000004000000000000000000000000000000000000002000000800000000000000000000000000000080000000000000020000000000000000000000000000000000000000000000000000000000000000000",
      "type": "0x2",
      "transactionHash": "0xb007a8a2f7d2f920c013f238648fb291cf2f3510dcf964789acdccd0abcad2a9",
      "transactionIndex": "0x8f",
      "blockHash": "0x6ce0aeed8269a001972c288e7e4fb406839e991979c4d157b90797c8d22df0aa",
      "blockNumber": "0x7313d6",
      "gasUsed": "0xf207",
      "effectiveGasPrice": "0x679fa4c5",
      "from": "0xc77f7fed3b5cc8249adc428c5f44c9063b9734b4",
      "to": "0x8aafd3ede9adb0ff97c7aebce82a919afb1c8764",
      "contractAddress": null
    }
  ],
  "libraries": [],
  "pending": [],
  "returns": {},
  "timestamp": 1737484956,
  "chain": 11155111,
  "commit": "51a374b"
}