{
  "transactions": [
    {
      "hash": "0x75cc6262d0f09147df7c26398d3fcc5c4d5beea10763a20e8e94840bf3cc9bd5",
      "transactionType": "CALL",
      "contractName": null,
      "contractAddress": "0x270e88f8683660553e8ba4eb2ad7c91a1710d769",
      "function": "sell(uint256)",
      "arguments": [
        "975432000056988381285"
      ],
      "transaction": {
        "from": "0xc77f7fed3b5cc8249adc428c5f44c9063b9734b4",
        "to": "0x270e88f8683660553e8ba4eb2ad7c91a1710d769",
        "gas": "0x16fec",
        "value": "0x0",
        "input": "0xe4849b32000000000000000000000000000000000000000000000034e0d69bfdd999b065",
        "nonce": "0x545",
        "chainId": "0xaa36a7"
      },
      "additionalContracts": [],
      "isFixedGasLimit": false
    }
  ],
  "receipts": [
    {
      "status": "0x1",
      "cumulativeGasUsed": "0x13d5d61",
      "logs": [
        {
          "address": "0x270e88f8683660553e8ba4eb2ad7c91a1710d769",
          "topics": [
            "0xddf252ad1be2c89b69c2b068fc378daa952ba7f163c4a11628f55a4df523b3ef",
            "0x000000000000000000000000c77f7fed3b5cc8249adc428c5f44c9063b9734b4",
            "0x0000000000000000000000000000000000000000000000000000000000000000"
          ],
          "data": "0x000000000000000000000000000000000000000000000034e0d69bfdd999b065",
          "blockHash": "0xb1ef37abcaad676f1da40aab2ca66f78d10cca9f7ecdef5744b4c5fd24e7216e",
          "blockNumber": "0x7251e2",
          "transactionHash": "0x75cc6262d0f09147df7c26398d3fcc5c4d5beea10763a20e8e94840bf3cc9bd5",
          "transactionIndex": "0x5f",
          "logIndex": "0xac",
          "removed": false
        },
        {
          "address": "0x270e88f8683660553e8ba4eb2ad7c91a1710d769",
          "topics": [
            "0x4afcb4a87cdbd9974efdb92ee48bc8d7cd0ae4bf217004db3d080cbaee652ca7"
          ],
          "data": "0x000000000000000000000000000000000000000000000000000000006786c88800000000000000000000000000000000000000000000000000039e2ba47620850000000000000000000000000000000000000000000000000dc840c582df92ea",
          "blockHash": "0xb1ef37abcaad676f1da40aab2ca66f78d10cca9f7ecdef5744b4c5fd24e7216e",
          "blockNumber": "0x7251e2",
          "transactionHash": "0x75cc6262d0f09147df7c26398d3fcc5c4d5beea10763a20e8e94840bf3cc9bd5",
          "transactionIndex": "0x5f",
          "logIndex": "0xad",
          "removed": false
        }
      ],
      "logsBloom": "0x00000000000000000000000000000000000000000000000000000000000000000000000000000000000000000000000020000000000000004000000000000000000000000000000000000008000000000000000000000000000000000000000000000000020000000000000000000800020000000000000000000010000000000000000000010000000000000000000000000000000000000000010000000000000000000000000000000000000000004000000000000000000000000000000000000002000000800000000000000000000000000000080000008000000020000000000000000000000000000000000000000000000000000000000000000000",
      "type": "0x2",
      "transactionHash": "0x75cc6262d0f09147df7c26398d3fcc5c4d5beea10763a20e8e94840bf3cc9bd5",
      "transactionIndex": "0x5f",
      "blockHash": "0xb1ef37abcaad676f1da40aab2ca66f78d10cca9f7ecdef5744b4c5fd24e7216e",
      "blockNumber": "0x7251e2",
      "gasUsed": "0xfb93",
      "effectiveGasPrice": "0x3f6e3a5c6",
      "from": "0xc77f7fed3b5cc8249adc428c5f44c9063b9734b4",
      "to": "0x270e88f8683660553e8ba4eb2ad7c91a1710d769",
      "contractAddress": null
    }
  ],
  "libraries": [],
  "pending": [],
  "returns": {},
  "timestamp": 1736886410,
  "chain": 11155111,
  "commit": "51a374b"
}