{
  "transactions": [
    {
      "hash": "0x473a6a38af9d0d5143940c1f6d4c072aeb608f0c4cb6d6683c50d9a8f7b22925",
      "transactionType": "CALL",
      "contractName": null,
      "contractAddress": "0x8aafd3ede9adb0ff97c7aebce82a919afb1c8764",
      "function": "sell(uint256)",
      "arguments": [
        "3668193917999664707789"
      ],
      "transaction": {
        "from": "0xc77f7fed3b5cc8249adc428c5f44c9063b9734b4",
        "to": "0x8aafd3ede9adb0ff97c7aebce82a919afb1c8764",
        "gas": "0x17270",
        "value": "0x0",
        "input": "0xe4849b320000000000000000000000000000000000000000000000c6da6ab57f1261b8cd",
        "nonce": "0xe42",
        "chainId": "0xaa36a7"
      },
      "additionalContracts": [],
      "isFixedGasLimit": false
    }
  ],
  "receipts": [
    {
      "status": "0x1",
      "cumulativeGasUsed": "0x2ab57f",
      "logs": [
        {
          "address": "0x8aafd3ede9adb0ff97c7aebce82a919afb1c8764",
          "topics": [
            "0xddf252ad1be2c89b69c2b068fc378daa952ba7f163c4a11628f55a4df523b3ef",
            "0x000000000000000000000000c77f7fed3b5cc8249adc428c5f44c9063b9734b4",
            "0x0000000000000000000000000000000000000000000000000000000000000000"
          ],
          "data": "0x0000000000000000000000000000000000000000000000c5432a5e07456f46af",
          "blockHash": "0x81b3d098d2a36bd9b992dce694bd90de818a224ab789d279bc3b69ab0108b934",
          "blockNumber": "0x731381",
          "transactionHash": "0x473a6a38af9d0d5143940c1f6d4c072aeb608f0c4cb6d6683c50d9a8f7b22925",
          "transactionIndex": "0x18",
          "logIndex": "0x2a",
          "removed": false
        },
        {
          "address": "0x8aafd3ede9adb0ff97c7aebce82a919afb1c8764",
          "topics": [
            "0xddf252ad1be2c89b69c2b068fc378daa952ba7f163c4a11628f55a4df523b3ef",
            "0x000000000000000000000000c77f7fed3b5cc8249adc428c5f44c9063b9734b4",
            "0x000000000000000000000000c77f7fed3b5cc8249adc428c5f44c9063b9734b4"
          ],
          "data": "0x00000000000000000000000000000000000000000000000197405777ccf2721e",
          "blockHash": "0x81b3d098d2a36bd9b992dce694bd90de818a224ab789d279bc3b69ab0108b934",
          "blockNumber": "0x731381",
          "transactionHash": "0x473a6a38af9d0d5143940c1f6d4c072aeb608f0c4cb6d6683c50d9a8f7b22925",
          "transactionIndex": "0x18",
          "logIndex": "0x2b",
          "removed": false
        },
        {
          "address": "0x8aafd3ede9adb0ff97c7aebce82a919afb1c8764",
          "topics": [
            "0x4afcb4a87cdbd9974efdb92ee48bc8d7cd0ae4bf217004db3d080cbaee652ca7"
          ],
          "data": "0x00000000000000000000000000000000000000000000000000000000678fe6a00000000000000000000000000000000000000000000000000004b39d61fd99dd0000000000000000000000000000000000000000000000004349efa4b424fdaf",
          "blockHash": "0x81b3d098d2a36bd9b992dce694bd90de818a224ab789d279bc3b69ab0108b934",
          "blockNumber": "0x731381",
          "transactionHash": "0x473a6a38af9d0d5143940c1f6d4c072aeb608f0c4cb6d6683c50d9a8f7b22925",
          "transactionIndex": "0x18",
          "logIndex": "0x2c",
          "removed": false
        }
      ],
      "logsBloom": "0x00000000000000000000000000000000000000000600000000000000000000000000000000000000000000000000000000000000000000004000000000000000000000000000004000000008000000000000000000000000000000000000000000000000020000000000000000000800020000000000000000000010000000000000000000000000000000000000000000000000000000000000010000000000000000000000000000000000000000004000000000000000000000000000000000000002000000800000000000000000000000000000080000000000000020000000000000000000000000000000000000000000000000000000000000000000",
      "type": "0x2",
      "transactionHash": "0x473a6a38af9d0d5143940c1f6d4c072aeb608f0c4cb6d6683c50d9a8f7b22925",
      "transactionIndex": "0x18",
      "blockHash": "0x81b3d098d2a36bd9b992dce694bd90de818a224ab789d279bc3b69ab0108b934",
      "blockNumber": "0x731381",
      "gasUsed": "0xfd4b",
      "effectiveGasPrice": "0x72f333d8",
      "from": "0xc77f7fed3b5cc8249adc428c5f44c9063b9734b4",
      "to": "0x8aafd3ede9adb0ff97c7aebce82a919afb1c8764",
      "contractAddress": null
    }
  ],
  "libraries": [],
  "pending": [],
  "returns": {},
  "timestamp": 1737483937,
  "chain": 11155111,
  "commit": "51a374b"
}