{
  "transactions": [
    {
      "hash": "0xb2e2dd61de8c1d9ce1e70434df875867d2982c909df1d584b08ee862357d8b8b",
      "transactionType": "CALL",
      "contractName": null,
      "contractAddress": "0xbf4a322f1496e5c3d34a9bcdb4c60567b38c7de2",
      "function": "buy(address)",
      "arguments": [
        "0xC77f7fed3b5Cc8249aDc428c5F44C9063B9734b4"
      ],
      "transaction": {
        "from": "0xc77f7fed3b5cc8249adc428c5f44c9063b9734b4",
        "to": "0xbf4a322f1496e5c3d34a9bcdb4c60567b38c7de2",
        "gas": "0x1b309",
        "value": "0xde0b6b3a7640000",
        "input": "0xf088d547000000000000000000000000c77f7fed3b5cc8249adc428c5f44c9063b9734b4",
        "nonce": "0xae8",
        "chainId": "0xaa36a7"
      },
      "additionalContracts": [],
      "isFixedGasLimit": false
    }
  ],
  "receipts": [
    {
      "status": "0x1",
      "cumulativeGasUsed": "0xb7d080",
      "logs": [
        {
          "address": "0xbf4a322f1496e5c3d34a9bcdb4c60567b38c7de2",
          "topics": [
            "0xddf252ad1be2c89b69c2b068fc378daa952ba7f163c4a11628f55a4df523b3ef",
            "0x0000000000000000000000000000000000000000000000000000000000000000",
            "0x000000000000000000000000c77f7fed3b5cc8249adc428c5f44c9063b9734b4"
          ],
          "data": "0x0000000000000000000000000000000000000000000000352f9d63297f11b2ab",
          "blockHash": "0xcad061dc31d619dfd05d992df3cd225650faa38f7abef8543765eef45104fb00",
          "blockNumber": "0x725adb",
          "transactionHash": "0xb2e2dd61de8c1d9ce1e70434df875867d2982c909df1d584b08ee862357d8b8b",
          "transactionIndex": "0x83",
          "logIndex": "0x95",
          "removed": false
        },
        {
          "address": "0xbf4a322f1496e5c3d34a9bcdb4c60567b38c7de2",
          "topics": [
            "0xddf252ad1be2c89b69c2b068fc378daa952ba7f163c4a11628f55a4df523b3ef",
            "0x0000000000000000000000000000000000000000000000000000000000000000",
            "0x000000000000000000000000c77f7fed3b5cc8249adc428c5f44c9063b9734b4"
          ],
          "data": "0x000000000000000000000000000000000000000000000000294cfd43b92173d1",
          "blockHash": "0xcad061dc31d619dfd05d992df3cd225650faa38f7abef8543765eef45104fb00",
          "blockNumber": "0x725adb",
          "transactionHash": "0xb2e2dd61de8c1d9ce1e70434df875867d2982c909df1d584b08ee862357d8b8b",
          "transactionIndex": "0x83",
          "logIndex": "0x96",
          "removed": false
        },
        {
          "address": "0xbf4a322f1496e5c3d34a9bcdb4c60567b38c7de2",
          "topics": [
            "0x4afcb4a87cdbd9974efdb92ee48bc8d7cd0ae4bf217004db3d080cbaee652ca7"
          ],
          "data": "0x0000000000000000000000000000000000000000000000000000000067873494000000000000000000000000000000000000000000000000000395bf0fc86fdd0000000000000000000000000000000000000000000000000de0b6b3a7640000",
          "blockHash": "0xcad061dc31d619dfd05d992df3cd225650faa38f7abef8543765eef45104fb00",
          "blockNumber": "0x725adb",
          "transactionHash": "0xb2e2dd61de8c1d9ce1e70434df875867d2982c909df1d584b08ee862357d8b8b",
          "transactionIndex": "0x83",
          "logIndex": "0x97",
          "removed": false
        }
      ],
      "logsBloom": "0x00000000000000000000000000000000000000000000000000000000000000000000000000000000000000000000000000000000000000004000000000000000000000000000000000000008000000000000001000000000000000000000000000000000020000000000000000000800020000000000000000000010000000000000000000000000000000000000000000000000000008000000010000000000000000000000000000000000000000004000000000000000000000000000000000000002000000800000000000001000000000000000080000000000000020000000000000000000000000000000000000000000000000000000000000000000",
      "type": "0x2",
      "transactionHash": "0xb2e2dd61de8c1d9ce1e70434df875867d2982c909df1d584b08ee862357d8b8b",
      "transactionIndex": "0x83",
      "blockHash": "0xcad061dc31d619dfd05d992df3cd225650faa38f7abef8543765eef45104fb00",
      "blockNumber": "0x725adb",
      "gasUsed": "0x13af6",
      "effectiveGasPrice": "0xa3c240e7",
      "from": "0xc77f7fed3b5cc8249adc428c5f44c9063b9734b4",
      "to": "0xbf4a322f1496e5c3d34a9bcdb4c60567b38c7de2",
      "contractAddress": null
    }
  ],
  "libraries": [],
  "pending": [],
  "returns": {},
  "timestamp": 1736914069,
  "chain": 11155111,
  "commit": "51a374b"
}