{
  "transactions": [
    {
      "hash": "0x888a85777b5612a348ba89ab5d610ac82fe76c4bf8c700cf81de67183b95611b",
      "transactionType": "CALL",
      "contractName": null,
      "contractAddress": "0x270e88f8683660553e8ba4eb2ad7c91a1710d769",
      "function": "sell(uint256)",
      "arguments": [
        "953734139591482877601"
      ],
      "transaction": {
        "from": "0xc77f7fed3b5cc8249adc428c5f44c9063b9734b4",
        "to": "0x270e88f8683660553e8ba4eb2ad7c91a1710d769",
        "gas": "0x16fec",
        "value": "0x0",
        "input": "0xe4849b32000000000000000000000000000000000000000000000033b3b852dbc12726a1",
        "nonce": "0x5d5",
        "chainId": "0xaa36a7"
      },
      "additionalContracts": [],
      "isFixedGasLimit": false
    }
  ],
  "receipts": [
    {
      "status": "0x1",
      "cumulativeGasUsed": "0x88966d",
      "logs": [
        {
          "address": "0x270e88f8683660553e8ba4eb2ad7c91a1710d769",
          "topics": [
            "0xddf252ad1be2c89b69c2b068fc378daa952ba7f163c4a11628f55a4df523b3ef",
            "0x000000000000000000000000c77f7fed3b5cc8249adc428c5f44c9063b9734b4",
            "0x0000000000000000000000000000000000000000000000000000000000000000"
          ],
          "data": "0x000000000000000000000000000000000000000000000033b3b852dbc12726a1",
          "blockHash": "0x4dd6483491b0acfa779ff23d971cdb03720f8305298acecd876d433ebda5e1aa",
          "blockNumber": "0x725296",
          "transactionHash": "0x888a85777b5612a348ba89ab5d610ac82fe76c4bf8c700cf81de67183b95611b",
          "transactionIndex": "0x52",
          "logIndex": "0x73",
          "removed": false
        },
        {
          "address": "0x270e88f8683660553e8ba4eb2ad7c91a1710d769",
          "topics": [
            "0x4afcb4a87cdbd9974efdb92ee48bc8d7cd0ae4bf217004db3d080cbaee652ca7"
          ],
          "data": "0x000000000000000000000000000000000000000000000000000000006786d1100000000000000000000000000000000000000000000000000003b33c11082d7c0000000000000000000000000000000000000000000000000dc83e8ade2ac5a0",
          "blockHash": "0x4dd6483491b0acfa779ff23d971cdb03720f8305298acecd876d433ebda5e1aa",
          "blockNumber": "0x725296",
          "transactionHash": "0x888a85777b5612a348ba89ab5d610ac82fe76c4bf8c700cf81de67183b95611b",
          "transactionIndex": "0x52",
          "logIndex": "0x74",
          "removed": false
        }
      ],
      "logsBloom": "0x00000000000000000000000000000000000000000000000000000000000000000000000000000000000000000000000020000000000000004000000000000000000000000000000000000008000000000000000000000000000000000000000000000000020000000000000000000800020000000000000000000010000000000000000000010000000000000000000000000000000000000000010000000000000000000000000000000000000000004000000000000000000000000000000000000002000000800000000000000000000000000000080000008000000020000000000000000000000000000000000000000000000000000000000000000000",
      "type": "0x2",
      "transactionHash": "0x888a85777b5612a348ba89ab5d610ac82fe76c4bf8c700cf81de67183b95611b",
      "transactionIndex": "0x52",
      "blockHash": "0x4dd6483491b0acfa779ff23d971cdb03720f8305298acecd876d433ebda5e1aa",
      "blockNumber": "0x725296",
      "gasUsed": "0xfb93",
      "effectiveGasPrice": "0x3aaa9e1ed",
      "from": "0xc77f7fed3b5cc8249adc428c5f44c9063b9734b4",
      "to": "0x270e88f8683660553e8ba4eb2ad7c91a1710d769",
      "contractAddress": null
    }
  ],
  "libraries": [],
  "pending": [],
  "returns": {},
  "timestamp": 1736888593,
  "chain": 11155111,
  "commit": "51a374b"
}