{
  "transactions": [
    {
      "hash": "0xdeede8a306405b0f2d61d29e2828c342f3eac59702710b554b63e49914fe221e",
      "transactionType": "CALL",
      "contractName": null,
      "contractAddress": "0xbf4a322f1496e5c3d34a9bcdb4c60567b38c7de2",
      "function": "buy(address)",
      "arguments": [
        "0xC77f7fed3b5Cc8249aDc428c5F44C9063B9734b4"
      ],
      "transaction": {
        "from": "0xc77f7fed3b5cc8249adc428c5f44c9063b9734b4",
        "to": "0xbf4a322f1496e5c3d34a9bcdb4c60567b38c7de2",
        "gas": "0x1b309",
        "value": "0xde0b6b3a7640000",
        "input": "0xf088d547000000000000000000000000c77f7fed3b5cc8249adc428c5f44c9063b9734b4",
        "nonce": "0xaca",
        "chainId": "0xaa36a7"
      },
      "additionalContracts": [],
      "isFixedGasLimit": false
    }
  ],
  "receipts": [
    {
      "status": "0x1",
      "cumulativeGasUsed": "0xab383a",
      "logs": [
        {
          "address": "0xbf4a322f1496e5c3d34a9bcdb4c60567b38c7de2",
          "topics": [
            "0xddf252ad1be2c89b69c2b068fc378daa952ba7f163c4a11628f55a4df523b3ef",
            "0x0000000000000000000000000000000000000000000000000000000000000000",
            "0x000000000000000000000000c77f7fed3b5cc8249adc428c5f44c9063b9734b4"
          ],
          "data": "0x000000000000000000000000000000000000000000000035353c96c2e293c38d",
          "blockHash": "0x0ae64eb4db5cd4da5c7161ab4d1fb8db28ef073a69172386104507b3f0c21c0a",
          "blockNumber": "0x725aba",
          "transactionHash": "0xdeede8a306405b0f2d61d29e2828c342f3eac59702710b554b63e49914fe221e",
          "transactionIndex": "0x79",
          "logIndex": "0xa5",
          "removed": false
        },
        {
          "address": "0xbf4a322f1496e5c3d34a9bcdb4c60567b38c7de2",
          "topics": [
            "0xddf252ad1be2c89b69c2b068fc378daa952ba7f163c4a11628f55a4df523b3ef",
            "0x0000000000000000000000000000000000000000000000000000000000000000",
            "0x000000000000000000000000c77f7fed3b5cc8249adc428c5f44c9063b9734b4"
          ],
          "data": "0x00000000000000000000000000000000000000000000000029515ada8880cb34",
          "blockHash": "0x0ae64eb4db5cd4da5c7161ab4d1fb8db28ef073a69172386104507b3f0c21c0a",
          "blockNumber": "0x725aba",
          "transactionHash": "0xdeede8a306405b0f2d61d29e2828c342f3eac59702710b554b63e49914fe221e",
          "transactionIndex": "0x79",
          "logIndex": "0xa6",
          "removed": false
        },
        {
          "address": "0xbf4a322f1496e5c3d34a9bcdb4c60567b38c7de2",
          "topics": [
            "0x4afcb4a87cdbd9974efdb92ee48bc8d7cd0ae4bf217004db3d080cbaee652ca7"
          ],
          "data": "0x00000000000000000000000000000000000000000000000000000000678733080000000000000000000000000000000000000000000000000003955e1842b0090000000000000000000000000000000000000000000000000de0b6b3a7640000",
          "blockHash": "0x0ae64eb4db5cd4da5c7161ab4d1fb8db28ef073a69172386104507b3f0c21c0a",
          "blockNumber": "0x725aba",
          "transactionHash": "0xdeede8a306405b0f2d61d29e2828c342f3eac59702710b554b63e49914fe221e",
          "transactionIndex": "0x79",
          "logIndex": "0xa7",
          "removed": false
        }
      ],
      "logsBloom": "0x00000000000000000000000000000000000000000000000000000000000000000000000000000000000000000000000000000000000000004000000000000000000000000000000000000008000000000000001000000000000000000000000000000000020000000000000000000800020000000000000000000010000000000000000000000000000000000000000000000000000008000000010000000000000000000000000000000000000000004000000000000000000000000000000000000002000000800000000000001000000000000000080000000000000020000000000000000000000000000000000000000000000000000000000000000000",
      "type": "0x2",
      "transactionHash": "0xdeede8a306405b0f2d61d29e2828c342f3eac59702710b554b63e49914fe221e",
      "transactionIndex": "0x79",
      "blockHash": "0x0ae64eb4db5cd4da5c7161ab4d1fb8db28ef073a69172386104507b3f0c21c0a",
      "blockNumber": "0x725aba",
      "gasUsed": "0x13af6",
      "effectiveGasPrice": "0xe3d2f3b3",
      "from": "0xc77f7fed3b5cc8249adc428c5f44c9063b9734b4",
      "to": "0xbf4a322f1496e5c3d34a9bcdb4c60567b38c7de2",
      "contractAddress": null
    }
  ],
  "libraries": [],
  "pending": [],
  "returns": {},
  "timestamp": 1736913674,
  "chain": 11155111,
  "commit": "51a374b"
}