{
  "transactions": [
    {
      "hash": "0x78d23b0baadb266ca937580b9419ed86ba50518fb099a876b0a1a7c4e12e9580",
      "transactionType": "CALL",
      "contractName": null,
      "contractAddress": "0x8aafd3ede9adb0ff97c7aebce82a919afb1c8764",
      "function": "sell(uint256)",
      "arguments": [
        "176092800"
      ],
      "transaction": {
        "from": "0xc77f7fed3b5cc8249adc428c5f44c9063b9734b4",
        "to": "0x8aafd3ede9adb0ff97c7aebce82a919afb1c8764",
        "gas": "0x14e6c",
        "value": "0x0",
        "input": "0xe4849b32000000000000000000000000000000000000000000000000000000000a7ef680",
        "nonce": "0x1277",
        "chainId": "0xaa36a7"
      },
      "additionalContracts": [],
      "isFixedGasLimit": false
    }
  ],
  "receipts": [
    {
      "status": "0x1",
      "cumulativeGasUsed": "0x11e49bf",
      "logs": [
        {
          "address": "0x8aafd3ede9adb0ff97c7aebce82a919afb1c8764",
          "topics": [
            "0xddf252ad1be2c89b69c2b068fc378daa952ba7f163c4a11628f55a4df523b3ef",
            "0x000000000000000000000000c77f7fed3b5cc8249adc428c5f44c9063b9734b4",
            "0x0000000000000000000000000000000000000000000000000000000000000000"
          ],
          "data": "0x000000000000000000000000000000000000000000000000000000000a69779a",
          "blockHash": "0x58683aa4e93072a99abbceba2a5a367b0e112d942d71f8b8924d3621bdb9617e",
          "blockNumber": "0x731961",
          "transactionHash": "0x78d23b0baadb266ca937580b9419ed86ba50518fb099a876b0a1a7c4e12e9580",
          "transactionIndex": "0x86",
          "logIndex": "0x8d",
          "removed": false
        },
        {
          "address": "0x8aafd3ede9adb0ff97c7aebce82a919afb1c8764",
          "topics": [
            "0xddf252ad1be2c89b69c2b068fc378daa952ba7f163c4a11628f55a4df523b3ef",
            "0x000000000000000000000000c77f7fed3b5cc8249adc428c5f44c9063b9734b4",
            "0x000000000000000000000000c77f7fed3b5cc8249adc428c5f44c9063b9734b4"
          ],
          "data": "0x0000000000000000000000000000000000000000000000000000000000157ee6",
          "blockHash": "0x58683aa4e93072a99abbceba2a5a367b0e112d942d71f8b8924d3621bdb9617e",
          "blockNumber": "0x731961",
          "transactionHash": "0x78d23b0baadb266ca937580b9419ed86ba50518fb099a876b0a1a7c4e12e9580",
          "transactionIndex": "0x86",
          "logIndex": "0x8e",
          "removed": false
        },
        {
          "address": "0x8aafd3ede9adb0ff97c7aebce82a919afb1c8764",
          "topics": [
            "0x4afcb4a87cdbd9974efdb92ee48bc8d7cd0ae4bf217004db3d080cbaee652ca7"
          ],
          "data": "0x0000000000000000000000000000000000000000000000000000000067902d5c000000000000000000000000000000000000000000000000000541eab990eb01000000000000000000000000000000000000000000000000000000000003f9ef",
          "blockHash": "0x58683aa4e93072a99abbceba2a5a367b0e112d942d71f8b8924d3621bdb9617e",
          "blockNumber": "0x731961",
          "transactionHash": "0x78d23b0baadb266ca937580b9419ed86ba50518fb099a876b0a1a7c4e12e9580",
          "transactionIndex": "0x86",
          "logIndex": "0x8f",
          "removed": false
        }
      ],
      "logsBloom": "0x00000000000000000000000000000000000000000600000000000000000000000000000000000000000000000000000000000000000000004000000000000000000000000000004000000008000000000000000000000000000000000000000000000000020000000000000000000800020000000000000000000010000000000000000000000000000000000000000000000000000000000000010000000000000000000000000000000000000000004000000000000000000000000000000000000002000000800000000000000000000000000000080000000000000020000000000000000000000000000000000000000000000000000000000000000000",
      "type": "0x2",
      "transactionHash": "0x78d23b0baadb266ca937580b9419ed86ba50518fb099a876b0a1a7c4e12e9580",
      "transactionIndex": "0x86",
      "blockHash": "0x58683aa4e93072a99abbceba2a5a367b0e112d942d71f8b8924d3621bdb9617e",
      "blockNumber": "0x731961",
      "gasUsed": "0xf21f",
      "effectiveGasPrice": "0x390d2ed2",
      "from": "0xc77f7fed3b5cc8249adc428c5f44c9063b9734b4",
      "to": "0x8aafd3ede9adb0ff97c7aebce82a919afb1c8764",
      "contractAddress": null
    }
  ],
  "libraries": [],
  "pending": [],
  "returns": {},
  "timestamp": 1737502045,
  "chain": 11155111,
  "commit": "1d2fb70"
}