{
  "transactions": [
    {
      "hash": "0x8588e86c1aa4ed86c7bc16df698d649ee1fdf9aedbaad7a8454469b3431f2a37",
      "transactionType": "CALL",
      "contractName": null,
      "contractAddress": "0x8aafd3ede9adb0ff97c7aebce82a919afb1c8764",
      "function": "sell(uint256)",
      "arguments": [
        "383380466004294"
      ],
      "transaction": {
        "from": "0xc77f7fed3b5cc8249adc428c5f44c9063b9734b4",
        "to": "0x8aafd3ede9adb0ff97c7aebce82a919afb1c8764",
        "gas": "0x1724d",
        "value": "0x0",
        "input": "0xe4849b3200000000000000000000000000000000000000000000000000015caeb87d7146",
        "nonce": "0xe8b",
        "chainId": "0xaa36a7"
      },
      "additionalContracts": [],
      "isFixedGasLimit": false
    }
  ],
  "receipts": [
    {
      "status": "0x1",
      "cumulativeGasUsed": "0xc28467",
      "logs": [
        {
          "address": "0x8aafd3ede9adb0ff97c7aebce82a919afb1c8764",
          "topics": [
            "0xddf252ad1be2c89b69c2b068fc378daa952ba7f163c4a11628f55a4df523b3ef",
            "0x000000000000000000000000c77f7fed3b5cc8249adc428c5f44c9063b9734b4",
            "0x0000000000000000000000000000000000000000000000000000000000000000"
          ],
          "data": "0x000000000000000000000000000000000000000000000000000159e49e7026a4",
          "blockHash": "0x136908da7e5dfdcf33b7f03522f0955581b1b7b51b68e7505f5efe1f33e8f558",
          "blockNumber": "0x7313e8",
          "transactionHash": "0x8588e86c1aa4ed86c7bc16df698d649ee1fdf9aedbaad7a8454469b3431f2a37",
          "transactionIndex": "0x92",
          "logIndex": "0xad",
          "removed": false
        },
        {
          "address": "0x8aafd3ede9adb0ff97c7aebce82a919afb1c8764",
          "topics": [
            "0xddf252ad1be2c89b69c2b068fc378daa952ba7f163c4a11628f55a4df523b3ef",
            "0x000000000000000000000000c77f7fed3b5cc8249adc428c5f44c9063b9734b4",
            "0x000000000000000000000000c77f7fed3b5cc8249adc428c5f44c9063b9734b4"
          ],
          "data": "0x000000000000000000000000000000000000000000000000000002ca1a0d4aa2",
          "blockHash": "0x136908da7e5dfdcf33b7f03522f0955581b1b7b51b68e7505f5efe1f33e8f558",
          "blockNumber": "0x7313e8",
          "transactionHash": "0x8588e86c1aa4ed86c7bc16df698d649ee1fdf9aedbaad7a8454469b3431f2a37",
          "transactionIndex": "0x92",
          "logIndex": "0xae",
          "removed": false
        },
        {
          "address": "0x8aafd3ede9adb0ff97c7aebce82a919afb1c8764",
          "topics": [
            "0x4afcb4a87cdbd9974efdb92ee48bc8d7cd0ae4bf217004db3d080cbaee652ca7"
          ],
          "data": "0x00000000000000000000000000000000000000000000000000000000678feb740000000000000000000000000000000000000000000000000004b68947810d50000000000000000000000000000000000000000000000000000000766a7dc794",
          "blockHash": "0x136908da7e5dfdcf33b7f03522f0955581b1b7b51b68e7505f5efe1f33e8f558",
          "blockNumber": "0x7313e8",
          "transactionHash": "0x8588e86c1aa4ed86c7bc16df698d649ee1fdf9aedbaad7a8454469b3431f2a37",
          "transactionIndex": "0x92",
          "logIndex": "0xaf",
          "removed": false
        }
      ],
      "logsBloom": "0x00000000000000000000000000000000000000000600000000000000000000000000000000000000000000000000000000000000000000004000000000000000000000000000004000000008000000000000000000000000000000000000000000000000020000000000000000000800020000000000000000000010000000000000000000000000000000000000000000000000000000000000010000000000000000000000000000000000000000004000000000000000000000000000000000000002000000800000000000000000000000000000080000000000000020000000000000000000000000000000000000000000000000000000000000000000",
      "type": "0x2",
      "transactionHash": "0x8588e86c1aa4ed86c7bc16df698d649ee1fdf9aedbaad7a8454469b3431f2a37",
      "transactionIndex": "0x92",
      "blockHash": "0x136908da7e5dfdcf33b7f03522f0955581b1b7b51b68e7505f5efe1f33e8f558",
      "blockNumber": "0x7313e8",
      "gasUsed": "0xfd33",
      "effectiveGasPrice": "0x79da6c95",
      "from": "0xc77f7fed3b5cc8249adc428c5f44c9063b9734b4",
      "to": "0x8aafd3ede9adb0ff97c7aebce82a919afb1c8764",
      "contractAddress": null
    }
  ],
  "libraries": [],
  "pending": [],
  "returns": {},
  "timestamp": 1737485173,
  "chain": 11155111,
  "commit": "51a374b"
}