{
  "transactions": [
    {
      "hash": "0x1a688718bba186a9623dabcc592f75bc407011d99b3f500a26d098545cadcfc6",
      "transactionType": "CALL",
      "contractName": null,
      "contractAddress": "0xbf4a322f1496e5c3d34a9bcdb4c60567b38c7de2",
      "function": "sell(uint256)",
      "arguments": [
        "981815220878676324768"
      ],
      "transaction": {
        "from": "0xc77f7fed3b5cc8249adc428c5f44c9063b9734b4",
        "to": "0xbf4a322f1496e5c3d34a9bcdb4c60567b38c7de2",
        "gas": "0x16fea",
        "value": "0x0",
        "input": "0xe4849b32000000000000000000000000000000000000000000000035396c5d82592ff1a0",
        "nonce": "0xb91",
        "chainId": "0xaa36a7"
      },
      "additionalContracts": [],
      "isFixedGasLimit": false
    }
  ],
  "receipts": [
    {
      "status": "0x1",
      "cumulativeGasUsed": "0x9c825e",
      "logs": [
        {
          "address": "0xbf4a322f1496e5c3d34a9bcdb4c60567b38c7de2",
          "topics": [
            "0xddf252ad1be2c89b69c2b068fc378daa952ba7f163c4a11628f55a4df523b3ef",
            "0x000000000000000000000000c77f7fed3b5cc8249adc428c5f44c9063b9734b4",
            "0x0000000000000000000000000000000000000000000000000000000000000000"
          ],
          "data": "0x000000000000000000000000000000000000000000000035396c5d82592ff1a0",
          "blockHash": "0xf5b64ccb0f31395810c26937f62fe524ae5f7d9bdf7bc889fd8c2b346e18cccd",
          "blockNumber": "0x725ba2",
          "transactionHash": "0x1a688718bba186a9623dabcc592f75bc407011d99b3f500a26d098545cadcfc6",
          "transactionIndex": "0x49",
          "logIndex": "0x56",
          "removed": false
        },
        {
          "address": "0xbf4a322f1496e5c3d34a9bcdb4c60567b38c7de2",
          "topics": [
            "0x4afcb4a87cdbd9974efdb92ee48bc8d7cd0ae4bf217004db3d080cbaee652ca7"
          ],
          "data": "0x0000000000000000000000000000000000000000000000000000000067873df4000000000000000000000000000000000000000000000000000397e23677294f0000000000000000000000000000000000000000000000000dc7e3e64968ca30",
          "blockHash": "0xf5b64ccb0f31395810c26937f62fe524ae5f7d9bdf7bc889fd8c2b346e18cccd",
          "blockNumber": "0x725ba2",
          "transactionHash": "0x1a688718bba186a9623dabcc592f75bc407011d99b3f500a26d098545cadcfc6",
          "transactionIndex": "0x49",
          "logIndex": "0x57",
          "removed": false
        }
      ],
      "logsBloom": "0x00000000000000000000000000000000000000000000000000000000000000000000000000000000000000000000000000000000000000004000000000000000000000000000000000000008000000000000001000000000000000000000000000000000020000000000000000000800020000000000000000000010000000000000000000000000000000000000000000000000000008000000010000000000000000000000000000000000000000004000000000000000000000000000000000000002000000800000000000001000000000000000080000000000000020000000000000000000000000000000000000000000000000000000000000000000",
      "type": "0x2",
      "transactionHash": "0x1a688718bba186a9623dabcc592f75bc407011d99b3f500a26d098545cadcfc6",
      "transactionIndex": "0x49",
      "blockHash": "0xf5b64ccb0f31395810c26937f62fe524ae5f7d9bdf7bc889fd8c2b346e18cccd",
      "blockNumber": "0x725ba2",
      "gasUsed": "0xfb91",
      "effectiveGasPrice": "0x4d8cec50",
      "from": "0xc77f7fed3b5cc8249adc428c5f44c9063b9734b4",
      "to": "0xbf4a322f1496e5c3d34a9bcdb4c60567b38c7de2",
      "contractAddress": null
    }
  ],
  "libraries": [],
  "pending": [],
  "returns": {},
  "timestamp": 1736916468,
  "chain": 11155111,
  "commit": "51a374b"
}