{
  "transactions": [
    {
      "hash": "0xef4a3b2170bc914930e4d165b26d3c6232e2d6477688a9a39850b96e020dad25",
      "transactionType": "CALL",
      "contractName": null,
      "contractAddress": "0x8aafd3ede9adb0ff97c7aebce82a919afb1c8764",
      "function": "sell(uint256)",
      "arguments": [
        "1140502204394127674"
      ],
      "transaction": {
        "from": "0xc77f7fed3b5cc8249adc428c5f44c9063b9734b4",
        "to": "0x8aafd3ede9adb0ff97c7aebce82a919afb1c8764",
        "gas": "0x15dca",
        "value": "0x0",
        "input": "0xe4849b320000000000000000000000000000000000000000000000000fd3e0b65676413a",
        "nonce": "0x179a",
        "chainId": "0xaa36a7"
      },
      "additionalContracts": [],
      "isFixedGasLimit": false
    }
  ],
  "receipts": [
    {
      "status": "0x1",
      "cumulativeGasUsed": "0xa3f685",
      "logs": [
        {
          "address": "0x8aafd3ede9adb0ff97c7aebce82a919afb1c8764",
          "topics": [
            "0xddf252ad1be2c89b69c2b068fc378daa952ba7f163c4a11628f55a4df523b3ef",
            "0x000000000000000000000000c77f7fed3b5cc8249adc428c5f44c9063b9734b4",
            "0x0000000000000000000000000000000000000000000000000000000000000000"
          ],
          "data": "0x0000000000000000000000000000000000000000000000000fb376777064ecbd",
          "blockHash": "0xb7bda266f8ddfe3acdf415d6b22e2a3eba6989f88b125ad8f39cbbef5766d187",
          "blockNumber": "0x731f79",
          "transactionHash": "0xef4a3b2170bc914930e4d165b26d3c6232e2d6477688a9a39850b96e020dad25",
          "transactionIndex": "0x4d",
          "logIndex": "0x9e",
          "removed": false
        },
        {
          "address": "0x8aafd3ede9adb0ff97c7aebce82a919afb1c8764",
          "topics": [
            "0xddf252ad1be2c89b69c2b068fc378daa952ba7f163c4a11628f55a4df523b3ef",
            "0x000000000000000000000000c77f7fed3b5cc8249adc428c5f44c9063b9734b4",
            "0x000000000000000000000000c77f7fed3b5cc8249adc428c5f44c9063b9734b4"
          ],
          "data": "0x00000000000000000000000000000000000000000000000000206a3ee611547d",
          "blockHash": "0xb7bda266f8ddfe3acdf415d6b22e2a3eba6989f88b125ad8f39cbbef5766d187",
          "blockNumber": "0x731f79",
          "transactionHash": "0xef4a3b2170bc914930e4d165b26d3c6232e2d6477688a9a39850b96e020dad25",
          "transactionIndex": "0x4d",
          "logIndex": "0x9f",
          "removed": false
        },
        {
          "address": "0x8aafd3ede9adb0ff97c7aebce82a919afb1c8764",
          "topics": [
            "0x4afcb4a87cdbd9974efdb92ee48bc8d7cd0ae4bf217004db3d080cbaee652ca7"
          ],
          "data": "0x00000000000000000000000000000000000000000000000000000000679076940000000000000000000000000000000000000000000000000018d9fb8f40b2cd000000000000000000000000000000000000000000000000001c57ac4487431f",
          "blockHash": "0xb7bda266f8ddfe3acdf415d6b22e2a3eba6989f88b125ad8f39cbbef5766d187",
          "blockNumber": "0x731f79",
          "transactionHash": "0xef4a3b2170bc914930e4d165b26d3c6232e2d6477688a9a39850b96e020dad25",
          "transactionIndex": "0x4d",
          "logIndex": "0xa0",
          "removed": false
        }
      ],
      "logsBloom": "0x00000000000000000000000000000000000000000600000000000000000000000000000000000000000000000000000000000000000000004000000000000000000000000000004000000008000000000000000000000000000000000000000000000000020000000000000000000800020000000000000000000010000000000000000000000000000000000000000000000000000000000000010000000000000000000000000000000000000000004000000000000000000000000000000000000002000000800000000000000000000000000000080000000000000020000000000000000000000000000000000000000000000000000000000000000000",
      "type": "0x2",
      "transactionHash": "0xef4a3b2170bc914930e4d165b26d3c6232e2d6477688a9a39850b96e020dad25",
      "transactionIndex": "0x4d",
      "blockHash": "0xb7bda266f8ddfe3acdf415d6b22e2a3eba6989f88b125ad8f39cbbef5766d187",
      "blockNumber": "0x731f79",
      "gasUsed": "0xfd3f",
      "effectiveGasPrice": "0x4b38c7eb",
      "from": "0xc77f7fed3b5cc8249adc428c5f44c9063b9734b4",
      "to": "0x8aafd3ede9adb0ff97c7aebce82a919afb1c8764",
      "contractAddress": null
    }
  ],
  "libraries": [],
  "pending": [],
  "returns": {},
  "timestamp": 1737520789,
  "chain": 11155111,
  "commit": "1d2fb70"
}