{
  "transactions": [
    {
      "hash": "0x6eca865c39b20832327d939895b827be339705ff5c5103bd8dfffd2bc48d1838",
      "transactionType": "CALL",
      "contractName": null,
      "contractAddress": "0xbf4a322f1496e5c3d34a9bcdb4c60567b38c7de2",
      "function": "buy(address)",
      "arguments": [
        "0xC77f7fed3b5Cc8249aDc428c5F44C9063B9734b4"
      ],
      "transaction": {
        "from": "0xc77f7fed3b5cc8249adc428c5f44c9063b9734b4",
        "to": "0xbf4a322f1496e5c3d34a9bcdb4c60567b38c7de2",
        "gas": "0x1b309",
        "value": "0xde0b6b3a7640000",
        "input": "0xf088d547000000000000000000000000c77f7fed3b5cc8249adc428c5f44c9063b9734b4",
        "nonce": "0xc46",
        "chainId": "0xaa36a7"
      },
      "additionalContracts": [],
      "isFixedGasLimit": false
    }
  ],
  "receipts": [
    {
      "status": "0x1",
      "cumulativeGasUsed": "0x568c87",
      "logs": [
        {
          "address": "0xbf4a322f1496e5c3d34a9bcdb4c60567b38c7de2",
          "topics": [
            "0xddf252ad1be2c89b69c2b068fc378daa952ba7f163c4a11628f55a4df523b3ef",
            "0x0000000000000000000000000000000000000000000000000000000000000000",
            "0x000000000000000000000000c77f7fed3b5cc8249adc428c5f44c9063b9734b4"
          ],
          "data": "0x000000000000000000000000000000000000000000000034ee5e0a4c7ac5f3aa",
          "blockHash": "0x528efd84712c9697e7e54b11194befd3aa0483527c5ec97e11167421f67f9f4c",
          "blockNumber": "0x725c7d",
          "transactionHash": "0x6eca865c39b20832327d939895b827be339705ff5c5103bd8dfffd2bc48d1838",
          "transactionIndex": "0x36",
          "logIndex": "0x48",
          "removed": false
        },
        {
          "address": "0xbf4a322f1496e5c3d34a9bcdb4c60567b38c7de2",
          "topics": [
            "0xddf252ad1be2c89b69c2b068fc378daa952ba7f163c4a11628f55a4df523b3ef",
            "0x0000000000000000000000000000000000000000000000000000000000000000",
            "0x000000000000000000000000c77f7fed3b5cc8249adc428c5f44c9063b9734b4"
          ],
          "data": "0x000000000000000000000000000000000000000000000000291a528bb68a1fe8",
          "blockHash": "0x528efd84712c9697e7e54b11194befd3aa0483527c5ec97e11167421f67f9f4c",
          "blockNumber": "0x725c7d",
          "transactionHash": "0x6eca865c39b20832327d939895b827be339705ff5c5103bd8dfffd2bc48d1838",
          "transactionIndex": "0x36",
          "logIndex": "0x49",
          "removed": false
        },
        {
          "address": "0xbf4a322f1496e5c3d34a9bcdb4c60567b38c7de2",
          "topics": [
            "0x4afcb4a87cdbd9974efdb92ee48bc8d7cd0ae4bf217004db3d080cbaee652ca7"
          ],
          "data": "0x000000000000000000000000000000000000000000000000000000006787483800000000000000000000000000000000000000000000000000039a2a57ec2ab00000000000000000000000000000000000000000000000000de0b6b3a7640000",
          "blockHash": "0x528efd84712c9697e7e54b11194befd3aa0483527c5ec97e11167421f67f9f4c",
          "blockNumber": "0x725c7d",
          "transactionHash": "0x6eca865c39b20832327d939895b827be339705ff5c5103bd8dfffd2bc48d1838",
          "transactionIndex": "0x36",
          "logIndex": "0x4a",
          "removed": false
        }
      ],
      "logsBloom": "0x00000000000000000000000000000000000000000000000000000000000000000000000000000000000000000000000000000000000000004000000000000000000000000000000000000008000000000000001000000000000000000000000000000000020000000000000000000800020000000000000000000010000000000000000000000000000000000000000000000000000008000000010000000000000000000000000000000000000000004000000000000000000000000000000000000002000000800000000000001000000000000000080000000000000020000000000000000000000000000000000000000000000000000000000000000000",
      "type": "0x2",
      "transactionHash": "0x6eca865c39b20832327d939895b827be339705ff5c5103bd8dfffd2bc48d1838",
      "transactionIndex": "0x36",
      "blockHash": "0x528efd84712c9697e7e54b11194befd3aa0483527c5ec97e11167421f67f9f4c",
      "blockNumber": "0x725c7d",
      "gasUsed": "0x13af6",
      "effectiveGasPrice": "0x1fdf8d618",
      "from": "0xc77f7fed3b5cc8249adc428c5f44c9063b9734b4",
      "to": "0xbf4a322f1496e5c3d34a9bcdb4c60567b38c7de2",
      "contractAddress": null
    }
  ],
  "libraries": [],
  "pending": [],
  "returns": {},
  "timestamp": 1736919097,
  "chain": 11155111,
  "commit": "51a374b"
}