{
  "transactions": [
    {
      "hash": "0x7dc59a0b73793ee7ea0708659452c8568b27f65e5fa639522929363099acb19e",
      "transactionType": "CALL",
      "contractName": null,
      "contractAddress": "0x5eb9cc76c3506942c1c0ead70e877dd5e4f00cb0",
      "function": "sell(uint256)",
      "arguments": [
        "989131552045460133195"
      ],
      "transaction": {
        "from": "0xc77f7fed3b5cc8249adc428c5f44c9063b9734b4",
        "to": "0x5eb9cc76c3506942c1c0ead70e877dd5e4f00cb0",
        "gas": "0x16fec",
        "value": "0x0",
        "input": "0xe4849b320000000000000000000000000000000000000000000000359ef531f11874954b",
        "nonce": "0x33b",
        "chainId": "0xaa36a7"
      },
      "additionalContracts": [],
      "isFixedGasLimit": false
    }
  ],
  "receipts": [
    {
      "status": "0x1",
      "cumulativeGasUsed": "0xf9941d",
      "logs": [
        {
          "address": "0x5eb9cc76c3506942c1c0ead70e877dd5e4f00cb0",
          "topics": [
            "0xddf252ad1be2c89b69c2b068fc378daa952ba7f163c4a11628f55a4df523b3ef",
            "0x000000000000000000000000c77f7fed3b5cc8249adc428c5f44c9063b9734b4",
            "0x0000000000000000000000000000000000000000000000000000000000000000"
          ],
          "data": "0x0000000000000000000000000000000000000000000000359ef531f11874954b",
          "blockHash": "0x776ceed8edbfcebcab3021ed38517ee534e0da92f1e79e25f2413794ed91a4fa",
          "blockNumber": "0x724f28",
          "transactionHash": "0x7dc59a0b73793ee7ea0708659452c8568b27f65e5fa639522929363099acb19e",
          "transactionIndex": "0x79",
          "logIndex": "0xa7",
          "removed": false
        },
        {
          "address": "0x5eb9cc76c3506942c1c0ead70e877dd5e4f00cb0",
          "topics": [
            "0x4afcb4a87cdbd9974efdb92ee48bc8d7cd0ae4bf217004db3d080cbaee652ca7"
          ],
          "data": "0x000000000000000000000000000000000000000000000000000000006786a7940000000000000000000000000000000000000000000000000003910e0409aa980000000000000000000000000000000000000000000000000dc7db13321f974e",
          "blockHash": "0x776ceed8edbfcebcab3021ed38517ee534e0da92f1e79e25f2413794ed91a4fa",
          "blockNumber": "0x724f28",
          "transactionHash": "0x7dc59a0b73793ee7ea0708659452c8568b27f65e5fa639522929363099acb19e",
          "transactionIndex": "0x79",
          "logIndex": "0xa8",
          "removed": false
        }
      ],
      "logsBloom": "0x00000000000000000000000000000000000000000000000000000000000000000000000000000000000000000000000000000000000000004000000000000000000000000000000000000008000000000000000000000000000000000000000000000000020000000000000004000800020000000000000000000010000000000000000000000000000000000000000000000000000000000000010000000000000000000000000000000000000000004000000000000000000000000000020000000002000000800000008000000000000000000000080000000000000020000000000000000000000000000000000000000000000000000000000000000000",
      "type": "0x2",
      "transactionHash": "0x7dc59a0b73793ee7ea0708659452c8568b27f65e5fa639522929363099acb19e",
      "transactionIndex": "0x79",
      "blockHash": "0x776ceed8edbfcebcab3021ed38517ee534e0da92f1e79e25f2413794ed91a4fa",
      "blockNumber": "0x724f28",
      "gasUsed": "0xfb93",
      "effectiveGasPrice": "0x61fbb84e5",
      "from": "0xc77f7fed3b5cc8249adc428c5f44c9063b9734b4",
      "to": "0x5eb9cc76c3506942c1c0ead70e877dd5e4f00cb0",
      "contractAddress": null
    }
  ],
  "libraries": [],
  "pending": [],
  "returns": {},
  "timestamp": 1736877974,
  "chain": 11155111,
  "commit": "51a374b"
}