{
  "transactions": [
    {
      "hash": "0x75ec90ada8929aff1d7ab71ae514609c7a2c653cdf64a7230b77851ae29becb9",
      "transactionType": "CALL",
      "contractName": null,
      "contractAddress": "0x8aafd3ede9adb0ff97c7aebce82a919afb1c8764",
      "function": "sell(uint256)",
      "arguments": [
        "150945666808853"
      ],
      "transaction": {
        "from": "0xc77f7fed3b5cc8249adc428c5f44c9063b9734b4",
        "to": "0x8aafd3ede9adb0ff97c7aebce82a919afb1c8764",
        "gas": "0x15daa",
        "value": "0x0",
        "input": "0xe4849b3200000000000000000000000000000000000000000000000000008948c6d9bc15",
        "nonce": "0x1349",
        "chainId": "0xaa36a7"
      },
      "additionalContracts": [],
      "isFixedGasLimit": false
    }
  ],
  "receipts": [
    {
      "status": "0x1",
      "cumulativeGasUsed": "0xa66308",
      "logs": [
        {
          "address": "0x8aafd3ede9adb0ff97c7aebce82a919afb1c8764",
          "topics": [
            "0xddf252ad1be2c89b69c2b068fc378daa952ba7f163c4a11628f55a4df523b3ef",
            "0x000000000000000000000000c77f7fed3b5cc8249adc428c5f44c9063b9734b4",
            "0x0000000000000000000000000000000000000000000000000000000000000000"
          ],
          "data": "0x0000000000000000000000000000000000000000000000000000882f9e59044f",
          "blockHash": "0x01ed4b116646ae84737e9ad9169f53795e21f96f7783aadb60403ca902dd6d47",
          "blockNumber": "0x731a62",
          "transactionHash": "0x75ec90ada8929aff1d7ab71ae514609c7a2c653cdf64a7230b77851ae29becb9",
          "transactionIndex": "0x71",
          "logIndex": "0xc2",
          "removed": false
        },
        {
          "address": "0x8aafd3ede9adb0ff97c7aebce82a919afb1c8764",
          "topics": [
            "0xddf252ad1be2c89b69c2b068fc378daa952ba7f163c4a11628f55a4df523b3ef",
            "0x000000000000000000000000c77f7fed3b5cc8249adc428c5f44c9063b9734b4",
            "0x000000000000000000000000c77f7fed3b5cc8249adc428c5f44c9063b9734b4"
          ],
          "data": "0x000000000000000000000000000000000000000000000000000001192880b7c6",
          "blockHash": "0x01ed4b116646ae84737e9ad9169f53795e21f96f7783aadb60403ca902dd6d47",
          "blockNumber": "0x731a62",
          "transactionHash": "0x75ec90ada8929aff1d7ab71ae514609c7a2c653cdf64a7230b77851ae29becb9",
          "transactionIndex": "0x71",
          "logIndex": "0xc3",
          "removed": false
        },
        {
          "address": "0x8aafd3ede9adb0ff97c7aebce82a919afb1c8764",
          "topics": [
            "0x4afcb4a87cdbd9974efdb92ee48bc8d7cd0ae4bf217004db3d080cbaee652ca7"
          ],
          "data": "0x0000000000000000000000000000000000000000000000000000000067903968000000000000000000000000000000000000000000000000000c116145ac8fa200000000000000000000000000000000000000000000000000000077614e45ce",
          "blockHash": "0x01ed4b116646ae84737e9ad9169f53795e21f96f7783aadb60403ca902dd6d47",
          "blockNumber": "0x731a62",
          "transactionHash": "0x75ec90ada8929aff1d7ab71ae514609c7a2c653cdf64a7230b77851ae29becb9",
          "transactionIndex": "0x71",
          "logIndex": "0xc4",
          "removed": false
        }
      ],
      "logsBloom": "0x00000000000000000000000000000000000000000600000000000000000000000000000000000000000000000000000000000000000000004000000000000000000000000000004000000008000000000000000000000000000000000000000000000000020000000000000000000800020000000000000000000010000000000000000000000000000000000000000000000000000000000000010000000000000000000000000000000000000000004000000000000000000000000000000000000002000000800000000000000000000000000000080000000000000020000000000000000000000000000000000000000000000000000000000000000000",
      "type": "0x2",
      "transactionHash": "0x75ec90ada8929aff1d7ab71ae514609c7a2c653cdf64a7230b77851ae29becb9",
      "transactionIndex": "0x71",
      "blockHash": "0x01ed4b116646ae84737e9ad9169f53795e21f96f7783aadb60403ca902dd6d47",
      "blockNumber": "0x731a62",
      "gasUsed": "0xfd27",
      "effectiveGasPrice": "0x3d82a5ad",
      "from": "0xc77f7fed3b5cc8249adc428c5f44c9063b9734b4",
      "to": "0x8aafd3ede9adb0ff97c7aebce82a919afb1c8764",
      "contractAddress": null
    }
  ],
  "libraries": [],
  "pending": [],
  "returns": {},
  "timestamp": 1737505129,
  "chain": 11155111,
  "commit": "1d2fb70"
}