{
  "transactions": [
    {
      "hash": "0x4b612e67214751255b7a8930a624f2fccec42e2b1b290d53f267c3826e5ac6ac",
      "transactionType": "CALL",
      "contractName": null,
      "contractAddress": "0x8aafd3ede9adb0ff97c7aebce82a919afb1c8764",
      "function": "sell(uint256)",
      "arguments": [
        "37531991"
      ],
      "transaction": {
        "from": "0xc77f7fed3b5cc8249adc428c5f44c9063b9734b4",
        "to": "0x8aafd3ede9adb0ff97c7aebce82a919afb1c8764",
        "gas": "0x15d88",
        "value": "0x0",
        "input": "0xe4849b3200000000000000000000000000000000000000000000000000000000023cb157",
        "nonce": "0x1796",
        "chainId": "0xaa36a7"
      },
      "additionalContracts": [],
      "isFixedGasLimit": false
    }
  ],
  "receipts": [
    {
      "status": "0x1",
      "cumulativeGasUsed": "0xbfc785",
      "logs": [
        {
          "address": "0x8aafd3ede9adb0ff97c7aebce82a919afb1c8764",
          "topics": [
            "0xddf252ad1be2c89b69c2b068fc378daa952ba7f163c4a11628f55a4df523b3ef",
            "0x000000000000000000000000c77f7fed3b5cc8249adc428c5f44c9063b9734b4",
            "0x0000000000000000000000000000000000000000000000000000000000000000"
          ],
          "data": "0x0000000000000000000000000000000000000000000000000000000002381c78",
          "blockHash": "0x0cee269f706c3b8c9b98f6db78ed2323fb8ec8d674cbdc3e7c17f5122e04c806",
          "blockNumber": "0x731f74",
          "transactionHash": "0x4b612e67214751255b7a8930a624f2fccec42e2b1b290d53f267c3826e5ac6ac",
          "transactionIndex": "0x78",
          "logIndex": "0xb2",
          "removed": false
        },
        {
          "address": "0x8aafd3ede9adb0ff97c7aebce82a919afb1c8764",
          "topics": [
            "0xddf252ad1be2c89b69c2b068fc378daa952ba7f163c4a11628f55a4df523b3ef",
            "0x000000000000000000000000c77f7fed3b5cc8249adc428c5f44c9063b9734b4",
            "0x000000000000000000000000c77f7fed3b5cc8249adc428c5f44c9063b9734b4"
          ],
          "data": "0x00000000000000000000000000000000000000000000000000000000000494df",
          "blockHash": "0x0cee269f706c3b8c9b98f6db78ed2323fb8ec8d674cbdc3e7c17f5122e04c806",
          "blockNumber": "0x731f74",
          "transactionHash": "0x4b612e67214751255b7a8930a624f2fccec42e2b1b290d53f267c3826e5ac6ac",
          "transactionIndex": "0x78",
          "logIndex": "0xb3",
          "removed": false
        },
        {
          "address": "0x8aafd3ede9adb0ff97c7aebce82a919afb1c8764",
          "topics": [
            "0x4afcb4a87cdbd9974efdb92ee48bc8d7cd0ae4bf217004db3d080cbaee652ca7"
          ],
          "data": "0x00000000000000000000000000000000000000000000000000000000679076580000000000000000000000000000000000000000000000000018bef86f461c30000000000000000000000000000000000000000000000000000000000003fd30",
          "blockHash": "0x0cee269f706c3b8c9b98f6db78ed2323fb8ec8d674cbdc3e7c17f5122e04c806",
          "blockNumber": "0x731f74",
          "transactionHash": "0x4b612e67214751255b7a8930a624f2fccec42e2b1b290d53f267c3826e5ac6ac",
          "transactionIndex": "0x78",
          "logIndex": "0xb4",
          "removed": false
        }
      ],
      "logsBloom": "0x00000000000000000000000000000000000000000600000000000000000000000000000000000000000000000000000000000000000000004000000000000000000000000000004000000008000000000000000000000000000000000000000000000000020000000000000000000800020000000000000000000010000000000000000000000000000000000000000000000000000000000000010000000000000000000000000000000000000000004000000000000000000000000000000000000002000000800000000000000000000000000000080000000000000020000000000000000000000000000000000000000000000000000000000000000000",
      "type": "0x2",
      "transactionHash": "0x4b612e67214751255b7a8930a624f2fccec42e2b1b290d53f267c3826e5ac6ac",
      "transactionIndex": "0x78",
      "blockHash": "0x0cee269f706c3b8c9b98f6db78ed2323fb8ec8d674cbdc3e7c17f5122e04c806",
      "blockNumber": "0x731f74",
      "gasUsed": "0xfd0f",
      "effectiveGasPrice": "0x4e2b4c25",
      "from": "0xc77f7fed3b5cc8249adc428c5f44c9063b9734b4",
      "to": "0x8aafd3ede9adb0ff97c7aebce82a919afb1c8764",
      "contractAddress": null
    }
  ],
  "libraries": [],
  "pending": [],
  "returns": {},
  "timestamp": 1737520728,
  "chain": 11155111,
  "commit": "1d2fb70"
}