{
  "transactions": [
    {
      "hash": "0x0dc910516731878504f4d66619fe981abad053e2e7b79bef8ca45163160d7474",
      "transactionType": "CALL",
      "contractName": null,
      "contractAddress": "0x5eb9cc76c3506942c1c0ead70e877dd5e4f00cb0",
      "function": "buy(address)",
      "arguments": [
        "0xC77f7fed3b5Cc8249aDc428c5F44C9063B9734b4"
      ],
      "transaction": {
        "from": "0xc77f7fed3b5cc8249adc428c5f44c9063b9734b4",
        "to": "0x5eb9cc76c3506942c1c0ead70e877dd5e4f00cb0",
        "gas": "0x156c8",
        "value": "0xde0b6b3a7640000",
        "input": "0xf088d547000000000000000000000000c77f7fed3b5cc8249adc428c5f44c9063b9734b4",
        "nonce": "0x149",
        "chainId": "0xaa36a7"
      },
      "additionalContracts": [],
      "isFixedGasLimit": false
    }
  ],
  "receipts": [
    {
      "status": "0x1",
      "cumulativeGasUsed": "0x42e1b8",
      "logs": [
        {
          "address": "0x5eb9cc76c3506942c1c0ead70e877dd5e4f00cb0",
          "topics": [
            "0xddf252ad1be2c89b69c2b068fc378daa952ba7f163c4a11628f55a4df523b3ef",
            "0x0000000000000000000000000000000000000000000000000000000000000000",
            "0x000000000000000000000000c77f7fed3b5cc8249adc428c5f44c9063b9734b4"
          ],
          "data": "0x000000000000000000000000000000000000000000000035aaf4fb587f515dc7",
          "blockHash": "0x3168864f100e97d7249315a423aa31a687051ec97be9b2c0712afbab9d690b0e",
          "blockNumber": "0x723b39",
          "transactionHash": "0x0dc910516731878504f4d66619fe981abad053e2e7b79bef8ca45163160d7474",
          "transactionIndex": "0x26",
          "logIndex": "0x30",
          "removed": false
        },
        {
          "address": "0x5eb9cc76c3506942c1c0ead70e877dd5e4f00cb0",
          "topics": [
            "0xddf252ad1be2c89b69c2b068fc378daa952ba7f163c4a11628f55a4df523b3ef",
            "0x0000000000000000000000000000000000000000000000000000000000000000",
            "0x000000000000000000000000c77f7fed3b5cc8249adc428c5f44c9063b9734b4"
          ],
          "data": "0x00000000000000000000000000000000000000000000000029acc4ca6a71fa5e",
          "blockHash": "0x3168864f100e97d7249315a423aa31a687051ec97be9b2c0712afbab9d690b0e",
          "blockNumber": "0x723b39",
          "transactionHash": "0x0dc910516731878504f4d66619fe981abad053e2e7b79bef8ca45163160d7474",
          "transactionIndex": "0x26",
          "logIndex": "0x31",
          "removed": false
        },
        {
          "address": "0x5eb9cc76c3506942c1c0ead70e877dd5e4f00cb0",
          "topics": [
            "0x4afcb4a87cdbd9974efdb92ee48bc8d7cd0ae4bf217004db3d080cbaee652ca7"
          ],
          "data": "0x000000000000000000000000000000000000000000000000000000006785b80000000000000000000000000000000000000000000000000000038d7f918607280000000000000000000000000000000000000000000000000de0b6b3a7640000",
          "blockHash": "0x3168864f100e97d7249315a423aa31a687051ec97be9b2c0712afbab9d690b0e",
          "blockNumber": "0x723b39",
          "transactionHash": "0x0dc910516731878504f4d66619fe981abad053e2e7b79bef8ca45163160d7474",
          "transactionIndex": "0x26",
          "logIndex": "0x32",
          "removed": false
        }
      ],
      "logsBloom": "0x00000000000000000000000000000000000000000000000000000000000000000000000000000000000000000000000000000000000000004000000000000000000000000000000000000008000000000000000000000000000000000000000000000000020000000000000004000800020000000000000000000010000000000000000000000000000000000000000000000000000000000000010000000000000000000000000000000000000000004000000000000000000000000000020000000002000000800000008000000000000000000000080000000000000020000000000000000000000000000000000000000000000000000000000000000000",
      "type": "0x2",
      "transactionHash": "0x0dc910516731878504f4d66619fe981abad053e2e7b79bef8ca45163160d7474",
      "transactionIndex": "0x26",
      "blockHash": "0x3168864f100e97d7249315a423aa31a687051ec97be9b2c0712afbab9d690b0e",
      "blockNumber": "0x723b39",
      "gasUsed": "0xf82c",
      "effectiveGasPrice": "0x4722a8589",
      "from": "0xc77f7fed3b5cc8249adc428c5f44c9063b9734b4",
      "to": "0x5eb9cc76c3506942c1c0ead70e877dd5e4f00cb0",
      "contractAddress": null
    }
  ],
  "libraries": [],
  "pending": [],
  "returns": {},
  "timestamp": 1736816641,
  "chain": 11155111,
  "commit": "51a374b"
}