{
  "transactions": [
    {
      "hash": "0x67bfdc1ebbdcd7b7de729a5f5e0bdd556c2f7c0dd04da8477c5f8b67b8e2b35b",
      "transactionType": "CALL",
      "contractName": null,
      "contractAddress": "0x5eb9cc76c3506942c1c0ead70e877dd5e4f00cb0",
      "function": "buy(address)",
      "arguments": [
        "0xC77f7fed3b5Cc8249aDc428c5F44C9063B9734b4"
      ],
      "transaction": {
        "from": "0xc77f7fed3b5cc8249adc428c5f44c9063b9734b4",
        "to": "0x5eb9cc76c3506942c1c0ead70e877dd5e4f00cb0",
        "gas": "0x1b30c",
        "value": "0xde0b6b3a7640000",
        "input": "0xf088d547000000000000000000000000c77f7fed3b5cc8249adc428c5f44c9063b9734b4",
        "nonce": "0x3ee",
        "chainId": "0xaa36a7"
      },
      "additionalContracts": [],
      "isFixedGasLimit": false
    }
  ],
  "receipts": [
    {
      "status": "0x1",
      "cumulativeGasUsed": "0xa91400",
      "logs": [
        {
          "address": "0x5eb9cc76c3506942c1c0ead70e877dd5e4f00cb0",
          "topics": [
            "0xddf252ad1be2c89b69c2b068fc378daa952ba7f163c4a11628f55a4df523b3ef",
            "0x0000000000000000000000000000000000000000000000000000000000000000",
            "0x000000000000000000000000c77f7fed3b5cc8249adc428c5f44c9063b9734b4"
          ],
          "data": "0x000000000000000000000000000000000000000000000035750c614c519bd628",
          "blockHash": "0xe55feba5a7bf8dba2dd19a72c2a02413543394c9ed83ff5216485100a0ed199f",
          "blockNumber": "0x724ff4",
          "transactionHash": "0x67bfdc1ebbdcd7b7de729a5f5e0bdd556c2f7c0dd04da8477c5f8b67b8e2b35b",
          "transactionIndex": "0x43",
          "logIndex": "0x97",
          "removed": false
        },
        {
          "address": "0x5eb9cc76c3506942c1c0ead70e877dd5e4f00cb0",
          "topics": [
            "0xddf252ad1be2c89b69c2b068fc378daa952ba7f163c4a11628f55a4df523b3ef",
            "0x0000000000000000000000000000000000000000000000000000000000000000",
            "0x000000000000000000000000c77f7fed3b5cc8249adc428c5f44c9063b9734b4"
          ],
          "data": "0x0000000000000000000000000000000000000000000000002982e82716da3a78",
          "blockHash": "0xe55feba5a7bf8dba2dd19a72c2a02413543394c9ed83ff5216485100a0ed199f",
          "blockNumber": "0x724ff4",
          "transactionHash": "0x67bfdc1ebbdcd7b7de729a5f5e0bdd556c2f7c0dd04da8477c5f8b67b8e2b35b",
          "transactionIndex": "0x43",
          "logIndex": "0x98",
          "removed": false
        },
        {
          "address": "0x5eb9cc76c3506942c1c0ead70e877dd5e4f00cb0",
          "topics": [
            "0x4afcb4a87cdbd9974efdb92ee48bc8d7cd0ae4bf217004db3d080cbaee652ca7"
          ],
          "data": "0x000000000000000000000000000000000000000000000000000000006786b13c00000000000000000000000000000000000000000000000000039114bf0b60990000000000000000000000000000000000000000000000000de0b6b3a7640000",
          "blockHash": "0xe55feba5a7bf8dba2dd19a72c2a02413543394c9ed83ff5216485100a0ed199f",
          "blockNumber": "0x724ff4",
          "transactionHash": "0x67bfdc1ebbdcd7b7de729a5f5e0bdd556c2f7c0dd04da8477c5f8b67b8e2b35b",
          "transactionIndex": "0x43",
          "logIndex": "0x99",
          "removed": false
        }
      ],
      "logsBloom": "0x00000000000000000000000000000000000000000000000000000000000000000000000000000000000000000000000000000000000000004000000000000000000000000000000000000008000000000000000000000000000000000000000000000000020000000000000004000800020000000000000000000010000000000000000000000000000000000000000000000000000000000000010000000000000000000000000000000000000000004000000000000000000000000000020000000002000000800000008000000000000000000000080000000000000020000000000000000000000000000000000000000000000000000000000000000000",
      "type": "0x2",
      "transactionHash": "0x67bfdc1ebbdcd7b7de729a5f5e0bdd556c2f7c0dd04da8477c5f8b67b8e2b35b",
      "transactionIndex": "0x43",
      "blockHash": "0xe55feba5a7bf8dba2dd19a72c2a02413543394c9ed83ff5216485100a0ed199f",
      "blockNumber": "0x724ff4",
      "gasUsed": "0x13af8",
      "effectiveGasPrice": "0x393ea3762",
      "from": "0xc77f7fed3b5cc8249adc428c5f44c9063b9734b4",
      "to": "0x5eb9cc76c3506942c1c0ead70e877dd5e4f00cb0",
      "contractAddress": null
    }
  ],
  "libraries": [],
  "pending": [],
  "returns": {},
  "timestamp": 1736880444,
  "chain": 11155111,
  "commit": "51a374b"
}