{
  "transactions": [
    {
      "hash": "0x2d089fea1c0d5a182354d5a2a03079bd5b9fb9c99471a6d323fc2abebd81493a",
      "transactionType": "CALL",
      "contractName": null,
      "contractAddress": "0x8aafd3ede9adb0ff97c7aebce82a919afb1c8764",
      "function": "sell(uint256)",
      "arguments": [
        "47525311387610817"
      ],
      "transaction": {
        "from": "0xc77f7fed3b5cc8249adc428c5f44c9063b9734b4",
        "to": "0x8aafd3ede9adb0ff97c7aebce82a919afb1c8764",
        "gas": "0x1724d",
        "value": "0x0",
        "input": "0xe4849b3200000000000000000000000000000000000000000000000000a8d804d7192ec1",
        "nonce": "0xf4b",
        "chainId": "0xaa36a7"
      },
      "additionalContracts": [],
      "isFixedGasLimit": false
    }
  ],
  "receipts": [
    {
      "status": "0x1",
      "cumulativeGasUsed": "0xdacb4c",
      "logs": [
        {
          "address": "0x8aafd3ede9adb0ff97c7aebce82a919afb1c8764",
          "topics": [
            "0xddf252ad1be2c89b69c2b068fc378daa952ba7f163c4a11628f55a4df523b3ef",
            "0x000000000000000000000000c77f7fed3b5cc8249adc428c5f44c9063b9734b4",
            "0x0000000000000000000000000000000000000000000000000000000000000000"
          ],
          "data": "0x00000000000000000000000000000000000000000000000000a77e3a0cac6feb",
          "blockHash": "0x65d575d2c5ed07754f16283c651c65fa208ec309cdfc51debbb7161df9e2e0ab",
          "blockNumber": "0x7315a6",
          "transactionHash": "0x2d089fea1c0d5a182354d5a2a03079bd5b9fb9c99471a6d323fc2abebd81493a",
          "transactionIndex": "0x8d",
          "logIndex": "0xd9",
          "removed": false
        },
        {
          "address": "0x8aafd3ede9adb0ff97c7aebce82a919afb1c8764",
          "topics": [
            "0xddf252ad1be2c89b69c2b068fc378daa952ba7f163c4a11628f55a4df523b3ef",
            "0x000000000000000000000000c77f7fed3b5cc8249adc428c5f44c9063b9734b4",
            "0x000000000000000000000000c77f7fed3b5cc8249adc428c5f44c9063b9734b4"
          ],
          "data": "0x000000000000000000000000000000000000000000000000000159caca6cbed6",
          "blockHash": "0x65d575d2c5ed07754f16283c651c65fa208ec309cdfc51debbb7161df9e2e0ab",
          "blockNumber": "0x7315a6",
          "transactionHash": "0x2d089fea1c0d5a182354d5a2a03079bd5b9fb9c99471a6d323fc2abebd81493a",
          "transactionIndex": "0x8d",
          "logIndex": "0xda",
          "removed": false
        },
        {
          "address": "0x8aafd3ede9adb0ff97c7aebce82a919afb1c8764",
          "topics": [
            "0x4afcb4a87cdbd9974efdb92ee48bc8d7cd0ae4bf217004db3d080cbaee652ca7"
          ],
          "data": "0x00000000000000000000000000000000000000000000000000000000679000740000000000000000000000000000000000000000000000000004c087ad0bf300000000000000000000000000000000000000000000000000000039d0e31f4731",
          "blockHash": "0x65d575d2c5ed07754f16283c651c65fa208ec309cdfc51debbb7161df9e2e0ab",
          "blockNumber": "0x7315a6",
          "transactionHash": "0x2d089fea1c0d5a182354d5a2a03079bd5b9fb9c99471a6d323fc2abebd81493a",
          "transactionIndex": "0x8d",
          "logIndex": "0xdb",
          "removed": false
        }
      ],
      "logsBloom": "0x00000000000000000000000000000000000000000600000000000000000000000000000000000000000000000000000000000000000000004000000000000000000000000000004000000008000000000000000000000000000000000000000000000000020000000000000000000800020000000000000000000010000000000000000000000000000000000000000000000000000000000000010000000000000000000000000000000000000000004000000000000000000000000000000000000002000000800000000000000000000000000000080000000000000020000000000000000000000000000000000000000000000000000000000000000000",
      "type": "0x2",
      "transactionHash": "0x2d089fea1c0d5a182354d5a2a03079bd5b9fb9c99471a6d323fc2abebd81493a",
      "transactionIndex": "0x8d",
      "blockHash": "0x65d575d2c5ed07754f16283c651c65fa208ec309cdfc51debbb7161df9e2e0ab",
      "blockNumber": "0x7315a6",
      "gasUsed": "0xfd33",
      "effectiveGasPrice": "0x7204eb9f",
      "from": "0xc77f7fed3b5cc8249adc428c5f44c9063b9734b4",
      "to": "0x8aafd3ede9adb0ff97c7aebce82a919afb1c8764",
      "contractAddress": null
    }
  ],
  "libraries": [],
  "pending": [],
  "returns": {},
  "timestamp": 1737490548,
  "chain": 11155111,
  "commit": "1d2fb70"
}