{
  "transactions": [
    {
      "hash": "0x69059cdf088c7ff39382f310e09293b47e38824ed96f554c957f2fe61f9288f1",
      "transactionType": "CALL",
      "contractName": null,
      "contractAddress": "0x8aafd3ede9adb0ff97c7aebce82a919afb1c8764",
      "function": "sell(uint256)",
      "arguments": [
        "379895206928605"
      ],
      "transaction": {
        "from": "0xc77f7fed3b5cc8249adc428c5f44c9063b9734b4",
        "to": "0x8aafd3ede9adb0ff97c7aebce82a919afb1c8764",
        "gas": "0x1724d",
        "value": "0x0",
        "input": "0xe4849b32000000000000000000000000000000000000000000000000000159833edc60dd",
        "nonce": "0xf6a",
        "chainId": "0xaa36a7"
      },
      "additionalContracts": [],
      "isFixedGasLimit": false
    }
  ],
  "receipts": [
    {
      "status": "0x1",
      "cumulativeGasUsed": "0x1232ba1",
      "logs": [
        {
          "address": "0x8aafd3ede9adb0ff97c7aebce82a919afb1c8764",
          "topics": [
            "0xddf252ad1be2c89b69c2b068fc378daa952ba7f163c4a11628f55a4df523b3ef",
            "0x000000000000000000000000c77f7fed3b5cc8249adc428c5f44c9063b9734b4",
            "0x0000000000000000000000000000000000000000000000000000000000000000"
          ],
          "data": "0x000000000000000000000000000000000000000000000000000156bfa2b5c059",
          "blockHash": "0x0fe0847c77972475436d1d289f54a087f437f2ee37c0fa1d6ff3b248246076a6",
          "blockNumber": "0x7315ca",
          "transactionHash": "0x69059cdf088c7ff39382f310e09293b47e38824ed96f554c957f2fe61f9288f1",
          "transactionIndex": "0xa3",
          "logIndex": "0x101",
          "removed": false
        },
        {
          "address": "0x8aafd3ede9adb0ff97c7aebce82a919afb1c8764",
          "topics": [
            "0xddf252ad1be2c89b69c2b068fc378daa952ba7f163c4a11628f55a4df523b3ef",
            "0x000000000000000000000000c77f7fed3b5cc8249adc428c5f44c9063b9734b4",
            "0x000000000000000000000000c77f7fed3b5cc8249adc428c5f44c9063b9734b4"
          ],
          "data": "0x000000000000000000000000000000000000000000000000000002c39c26a084",
          "blockHash": "0x0fe0847c77972475436d1d289f54a087f437f2ee37c0fa1d6ff3b248246076a6",
          "blockNumber": "0x7315ca",
          "transactionHash": "0x69059cdf088c7ff39382f310e09293b47e38824ed96f554c957f2fe61f9288f1",
          "transactionIndex": "0xa3",
          "logIndex": "0x102",
          "removed": false
        },
        {
          "address": "0x8aafd3ede9adb0ff97c7aebce82a919afb1c8764",
          "topics": [
            "0x4afcb4a87cdbd9974efdb92ee48bc8d7cd0ae4bf217004db3d080cbaee652ca7"
          ],
          "data": "0x00000000000000000000000000000000000000000000000000000000679002240000000000000000000000000000000000000000000000000004c18383c277a9000000000000000000000000000000000000000000000000000000766835f49f",
          "blockHash": "0x0fe0847c77972475436d1d289f54a087f437f2ee37c0fa1d6ff3b248246076a6",
          "blockNumber": "0x7315ca",
          "transactionHash": "0x69059cdf088c7ff39382f310e09293b47e38824ed96f554c957f2fe61f9288f1",
          "transactionIndex": "0xa3",
          "logIndex": "0x103",
          "removed": false
        }
      ],
      "logsBloom": "0x00000000000000000000000000000000000000000600000000000000000000000000000000000000000000000000000000000000000000004000000000000000000000000000004000000008000000000000000000000000000000000000000000000000020000000000000000000800020000000000000000000010000000000000000000000000000000000000000000000000000000000000010000000000000000000000000000000000000000004000000000000000000000000000000000000002000000800000000000000000000000000000080000000000000020000000000000000000000000000000000000000000000000000000000000000000",
      "type": "0x2",
      "transactionHash": "0x69059cdf088c7ff39382f310e09293b47e38824ed96f554c957f2fe61f9288f1",
      "transactionIndex": "0xa3",
      "blockHash": "0x0fe0847c77972475436d1d289f54a087f437f2ee37c0fa1d6ff3b248246076a6",
      "blockNumber": "0x7315ca",
      "gasUsed": "0xfd33",
      "effectiveGasPrice": "0x60b24105",
      "from": "0xc77f7fed3b5cc8249adc428c5f44c9063b9734b4",
      "to": "0x8aafd3ede9adb0ff97c7aebce82a919afb1c8764",
      "contractAddress": null
    }
  ],
  "libraries": [],
  "pending": [],
  "returns": {},
  "timestamp": 1737490982,
  "chain": 11155111,
  "commit": "1d2fb70"
}