{
  "transactions": [
    {
      "hash": "0x486439dca67d556d735c4334e64a77fee15fa34d923c070a3ad930238deea72f",
      "transactionType": "CALL",
      "contractName": null,
      "contractAddress": "0x8aafd3ede9adb0ff97c7aebce82a919afb1c8764",
      "function": "sell(uint256)",
      "arguments": [
        "44933669293605009"
      ],
      "transaction": {
        "from": "0xc77f7fed3b5cc8249adc428c5f44c9063b9734b4",
        "to": "0x8aafd3ede9adb0ff97c7aebce82a919afb1c8764",
        "gas": "0x1724d",
        "value": "0x0",
        "input": "0xe4849b32000000000000000000000000000000000000000000000000009fa2ef24b34091",
        "nonce": "0x10e3",
        "chainId": "0xaa36a7"
      },
      "additionalContracts": [],
      "isFixedGasLimit": false
    }
  ],
  "receipts": [
    {
      "status": "0x1",
      "cumulativeGasUsed": "0xb9393b",
      "logs": [
        {
          "address": "0x8aafd3ede9adb0ff97c7aebce82a919afb1c8764",
          "topics": [
            "0xddf252ad1be2c89b69c2b068fc378daa952ba7f163c4a11628f55a4df523b3ef",
            "0x000000000000000000000000c77f7fed3b5cc8249adc428c5f44c9063b9734b4",
            "0x0000000000000000000000000000000000000000000000000000000000000000"
          ],
          "data": "0x000000000000000000000000000000000000000000000000009e5bffa986cf69",
          "blockHash": "0xa9d71708ff1c4af7d942d1fbb68608bd57a695b0c5b8091b6e9cb461e94902a1",
          "blockNumber": "0x731786",
          "transactionHash": "0x486439dca67d556d735c4334e64a77fee15fa34d923c070a3ad930238deea72f",
          "transactionIndex": "0x75",
          "logIndex": "0x96",
          "removed": false
        },
        {
          "address": "0x8aafd3ede9adb0ff97c7aebce82a919afb1c8764",
          "topics": [
            "0xddf252ad1be2c89b69c2b068fc378daa952ba7f163c4a11628f55a4df523b3ef",
            "0x000000000000000000000000c77f7fed3b5cc8249adc428c5f44c9063b9734b4",
            "0x000000000000000000000000c77f7fed3b5cc8249adc428c5f44c9063b9734b4"
          ],
          "data": "0x000000000000000000000000000000000000000000000000000146ef7b2c7128",
          "blockHash": "0xa9d71708ff1c4af7d942d1fbb68608bd57a695b0c5b8091b6e9cb461e94902a1",
          "blockNumber": "0x731786",
          "transactionHash": "0x486439dca67d556d735c4334e64a77fee15fa34d923c070a3ad930238deea72f",
          "transactionIndex": "0x75",
          "logIndex": "0x97",
          "removed": false
        },
        {
          "address": "0x8aafd3ede9adb0ff97c7aebce82a919afb1c8764",
          "topics": [
            "0x4afcb4a87cdbd9974efdb92ee48bc8d7cd0ae4bf217004db3d080cbaee652ca7"
          ],
          "data": "0x000000000000000000000000000000000000000000000000000000006790170c000000000000000000000000000000000000000000000000000507cd2f21fec3000000000000000000000000000000000000000000000000000039dd9ad44d41",
          "blockHash": "0xa9d71708ff1c4af7d942d1fbb68608bd57a695b0c5b8091b6e9cb461e94902a1",
          "blockNumber": "0x731786",
          "transactionHash": "0x486439dca67d556d735c4334e64a77fee15fa34d923c070a3ad930238deea72f",
          "transactionIndex": "0x75",
          "logIndex": "0x98",
          "removed": false
        }
      ],
      "logsBloom": "0x00000000000000000000000000000000000000000600000000000000000000000000000000000000000000000000000000000000000000004000000000000000000000000000004000000008000000000000000000000000000000000000000000000000020000000000000000000800020000000000000000000010000000000000000000000000000000000000000000000000000000000000010000000000000000000000000000000000000000004000000000000000000000000000000000000002000000800000000000000000000000000000080000000000000020000000000000000000000000000000000000000000000000000000000000000000",
      "type": "0x2",
      "transactionHash": "0x486439dca67d556d735c4334e64a77fee15fa34d923c070a3ad930238deea72f",
      "transactionIndex": "0x75",
      "blockHash": "0xa9d71708ff1c4af7d942d1fbb68608bd57a695b0c5b8091b6e9cb461e94902a1",
      "blockNumber": "0x731786",
      "gasUsed": "0xfd33",
      "effectiveGasPrice": "0x38fbcce8",
      "from": "0xc77f7fed3b5cc8249adc428c5f44c9063b9734b4",
      "to": "0x8aafd3ede9adb0ff97c7aebce82a919afb1c8764",
      "contractAddress": null
    }
  ],
  "libraries": [],
  "pending": [],
  "returns": {},
  "timestamp": 1737496334,
  "chain": 11155111,
  "commit": "1d2fb70"
}