{
  "transactions": [
    {
      "hash": "0xf5c1c01d1bf0fb17362e2a3ffaaa4df98d11e71942aea552ad8f1478156f6f80",
      "transactionType": "CALL",
      "contractName": null,
      "contractAddress": "0x270e88f8683660553e8ba4eb2ad7c91a1710d769",
      "function": "sell(uint256)",
      "arguments": [
        "727533069899157504754"
      ],
      "transaction": {
        "from": "0xc77f7fed3b5cc8249adc428c5f44c9063b9734b4",
        "to": "0x270e88f8683660553e8ba4eb2ad7c91a1710d769",
        "gas": "0x16fec",
        "value": "0x0",
        "input": "0xe4849b32000000000000000000000000000000000000000000000027708cb07018b882f2",
        "nonce": "0x7ca",
        "chainId": "0xaa36a7"
      },
      "additionalContracts": [],
      "isFixedGasLimit": false
    }
  ],
  "receipts": [
    {
      "status": "0x1",
      "cumulativeGasUsed": "0x167c187",
      "logs": [
        {
          "address": "0x270e88f8683660553e8ba4eb2ad7c91a1710d769",
          "topics": [
            "0xddf252ad1be2c89b69c2b068fc378daa952ba7f163c4a11628f55a4df523b3ef",
            "0x000000000000000000000000c77f7fed3b5cc8249adc428c5f44c9063b9734b4",
            "0x0000000000000000000000000000000000000000000000000000000000000000"
          ],
          "data": "0x000000000000000000000000000000000000000000000027708cb07018b882f2",
          "blockHash": "0x5890ff7cfb877d296af490311dd5f1e280f8c95ea7619e7daba9e431667945e3",
          "blockNumber": "0x725502",
          "transactionHash": "0xf5c1c01d1bf0fb17362e2a3ffaaa4df98d11e71942aea552ad8f1478156f6f80",
          "transactionIndex": "0x5b",
          "logIndex": "0x9e",
          "removed": false
        },
        {
          "address": "0x270e88f8683660553e8ba4eb2ad7c91a1710d769",
          "topics": [
            "0x4afcb4a87cdbd9974efdb92ee48bc8d7cd0ae4bf217004db3d080cbaee652ca7"
          ],
          "data": "0x000000000000000000000000000000000000000000000000000000006786ee200000000000000000000000000000000000000000000000000004d9a757112ec40000000000000000000000000000000000000000000000000dc827359a5a0830",
          "blockHash": "0x5890ff7cfb877d296af490311dd5f1e280f8c95ea7619e7daba9e431667945e3",
          "blockNumber": "0x725502",
          "transactionHash": "0xf5c1c01d1bf0fb17362e2a3ffaaa4df98d11e71942aea552ad8f1478156f6f80",
          "transactionIndex": "0x5b",
          "logIndex": "0x9f",
          "removed": false
        }
      ],
      "logsBloom": "0x00000000000000000000000000000000000000000000000000000000000000000000000000000000000000000000000020000000000000004000000000000000000000000000000000000008000000000000000000000000000000000000000000000000020000000000000000000800020000000000000000000010000000000000000000010000000000000000000000000000000000000000010000000000000000000000000000000000000000004000000000000000000000000000000000000002000000800000000000000000000000000000080000008000000020000000000000000000000000000000000000000000000000000000000000000000",
      "type": "0x2",
      "transactionHash": "0xf5c1c01d1bf0fb17362e2a3ffaaa4df98d11e71942aea552ad8f1478156f6f80",
      "transactionIndex": "0x5b",
      "blockHash": "0x5890ff7cfb877d296af490311dd5f1e280f8c95ea7619e7daba9e431667945e3",
      "blockNumber": "0x725502",
      "gasUsed": "0xfb93",
      "effectiveGasPrice": "0xba7caa80",
      "from": "0xc77f7fed3b5cc8249adc428c5f44c9063b9734b4",
      "to": "0x270e88f8683660553e8ba4eb2ad7c91a1710d769",
      "contractAddress": null
    }
  ],
  "libraries": [],
  "pending": [],
  "returns": {},
  "timestamp": 1736896034,
  "chain": 11155111,
  "commit": "51a374b"
}