{
  "transactions": [
    {
      "hash": "0xb30e21cbbeaf45c0063a1cd4f4dec6f770c5533c173c57e7108fa0ca26038a41",
      "transactionType": "CALL",
      "contractName": null,
      "contractAddress": "0x270e88f8683660553e8ba4eb2ad7c91a1710d769",
      "function": "buy(address)",
      "arguments": [
        "0xC77f7fed3b5Cc8249aDc428c5F44C9063B9734b4"
      ],
      "transaction": {
        "from": "0xc77f7fed3b5cc8249adc428c5f44c9063b9734b4",
        "to": "0x270e88f8683660553e8ba4eb2ad7c91a1710d769",
        "gas": "0x1b30c",
        "value": "0xde0b6b3a7640000",
        "input": "0xf088d547000000000000000000000000c77f7fed3b5cc8249adc428c5f44c9063b9734b4",
        "nonce": "0x4ee",
        "chainId": "0xaa36a7"
      },
      "additionalContracts": [],
      "isFixedGasLimit": false
    }
  ],
  "receipts": [
    {
      "status": "0x1",
      "cumulativeGasUsed": "0x87c879",
      "logs": [
        {
          "address": "0x270e88f8683660553e8ba4eb2ad7c91a1710d769",
          "topics": [
            "0xddf252ad1be2c89b69c2b068fc378daa952ba7f163c4a11628f55a4df523b3ef",
            "0x0000000000000000000000000000000000000000000000000000000000000000",
            "0x000000000000000000000000c77f7fed3b5cc8249adc428c5f44c9063b9734b4"
          ],
          "data": "0x00000000000000000000000000000000000000000000003571c6e4cdcf8bd9ed",
          "blockHash": "0x977f2240bc677cb2c96ff255cbe6ca7e2e34343afb75ba04fc761f36acda8985",
          "blockNumber": "0x72517f",
          "transactionHash": "0xb30e21cbbeaf45c0063a1cd4f4dec6f770c5533c173c57e7108fa0ca26038a41",
          "transactionIndex": "0x4b",
          "logIndex": "0x77",
          "removed": false
        },
        {
          "address": "0x270e88f8683660553e8ba4eb2ad7c91a1710d769",
          "topics": [
            "0xddf252ad1be2c89b69c2b068fc378daa952ba7f163c4a11628f55a4df523b3ef",
            "0x0000000000000000000000000000000000000000000000000000000000000000",
            "0x000000000000000000000000c77f7fed3b5cc8249adc428c5f44c9063b9734b4"
          ],
          "data": "0x00000000000000000000000000000000000000000000000029805dd0e6048a33",
          "blockHash": "0x977f2240bc677cb2c96ff255cbe6ca7e2e34343afb75ba04fc761f36acda8985",
          "blockNumber": "0x72517f",
          "transactionHash": "0xb30e21cbbeaf45c0063a1cd4f4dec6f770c5533c173c57e7108fa0ca26038a41",
          "transactionIndex": "0x4b",
          "logIndex": "0x78",
          "removed": false
        },
        {
          "address": "0x270e88f8683660553e8ba4eb2ad7c91a1710d769",
          "topics": [
            "0x4afcb4a87cdbd9974efdb92ee48bc8d7cd0ae4bf217004db3d080cbaee652ca7"
          ],
          "data": "0x000000000000000000000000000000000000000000000000000000006786c3d80000000000000000000000000000000000000000000000000003916752776b310000000000000000000000000000000000000000000000000de0b6b3a7640000",
          "blockHash": "0x977f2240bc677cb2c96ff255cbe6ca7e2e34343afb75ba04fc761f36acda8985",
          "blockNumber": "0x72517f",
          "transactionHash": "0xb30e21cbbeaf45c0063a1cd4f4dec6f770c5533c173c57e7108fa0ca26038a41",
          "transactionIndex": "0x4b",
          "logIndex": "0x79",
          "removed": false
        }
      ],
      "logsBloom": "0x00000000000000000000000000000000000000000000000000000000000000000000000000000000000000000000000020000000000000004000000000000000000000000000000000000008000000000000000000000000000000000000000000000000020000000000000000000800020000000000000000000010000000000000000000010000000000000000000000000000000000000000010000000000000000000000000000000000000000004000000000000000000000000000000000000002000000800000000000000000000000000000080000008000000020000000000000000000000000000000000000000000000000000000000000000000",
      "type": "0x2",
      "transactionHash": "0xb30e21cbbeaf45c0063a1cd4f4dec6f770c5533c173c57e7108fa0ca26038a41",
      "transactionIndex": "0x4b",
      "blockHash": "0x977f2240bc677cb2c96ff255cbe6ca7e2e34343afb75ba04fc761f36acda8985",
      "blockNumber": "0x72517f",
      "gasUsed": "0x13af8",
      "effectiveGasPrice": "0x43b5de9f4",
      "from": "0xc77f7fed3b5cc8249adc428c5f44c9063b9734b4",
      "to": "0x270e88f8683660553e8ba4eb2ad7c91a1710d769",
      "contractAddress": null
    }
  ],
  "libraries": [],
  "pending": [],
  "returns": {},
  "timestamp": 1736885209,
  "chain": 11155111,
  "commit": "51a374b"
}