{
  "transactions": [
    {
      "hash": "0x26fdceeed371d40b6e806f87ca6c9ea81b396d22e8ba16a0145bb7f5ee921ca7",
      "transactionType": "CALL",
      "contractName": null,
      "contractAddress": "0x8aafd3ede9adb0ff97c7aebce82a919afb1c8764",
      "function": "sell(uint256)",
      "arguments": [
        "2918591917974"
      ],
      "transaction": {
        "from": "0xc77f7fed3b5cc8249adc428c5f44c9063b9734b4",
        "to": "0x8aafd3ede9adb0ff97c7aebce82a919afb1c8764",
        "gas": "0x15daa",
        "value": "0x0",
        "input": "0xe4849b32000000000000000000000000000000000000000000000000000002a789a26f96",
        "nonce": "0x1063",
        "chainId": "0xaa36a7"
      },
      "additionalContracts": [],
      "isFixedGasLimit": false
    }
  ],
  "receipts": [
    {
      "status": "0x1",
      "cumulativeGasUsed": "0xab7904",
      "logs": [
        {
          "address": "0x8aafd3ede9adb0ff97c7aebce82a919afb1c8764",
          "topics": [
            "0xddf252ad1be2c89b69c2b068fc378daa952ba7f163c4a11628f55a4df523b3ef",
            "0x000000000000000000000000c77f7fed3b5cc8249adc428c5f44c9063b9734b4",
            "0x0000000000000000000000000000000000000000000000000000000000000000"
          ],
          "data": "0x000000000000000000000000000000000000000000000000000002a219f10227",
          "blockHash": "0x9f743ca22b923ec079c77d0bf2415960c090cf278b84e147995269f3814c65b5",
          "blockNumber": "0x7316e9",
          "transactionHash": "0x26fdceeed371d40b6e806f87ca6c9ea81b396d22e8ba16a0145bb7f5ee921ca7",
          "transactionIndex": "0x74",
          "logIndex": "0xbe",
          "removed": false
        },
        {
          "address": "0x8aafd3ede9adb0ff97c7aebce82a919afb1c8764",
          "topics": [
            "0xddf252ad1be2c89b69c2b068fc378daa952ba7f163c4a11628f55a4df523b3ef",
            "0x000000000000000000000000c77f7fed3b5cc8249adc428c5f44c9063b9734b4",
            "0x000000000000000000000000c77f7fed3b5cc8249adc428c5f44c9063b9734b4"
          ],
          "data": "0x000000000000000000000000000000000000000000000000000000056fb16d6f",
          "blockHash": "0x9f743ca22b923ec079c77d0bf2415960c090cf278b84e147995269f3814c65b5",
          "blockNumber": "0x7316e9",
          "transactionHash": "0x26fdceeed371d40b6e806f87ca6c9ea81b396d22e8ba16a0145bb7f5ee921ca7",
          "transactionIndex": "0x74",
          "logIndex": "0xbf",
          "removed": false
        },
        {
          "address": "0x8aafd3ede9adb0ff97c7aebce82a919afb1c8764",
          "topics": [
            "0x4afcb4a87cdbd9974efdb92ee48bc8d7cd0ae4bf217004db3d080cbaee652ca7"
          ],
          "data": "0x0000000000000000000000000000000000000000000000000000000067900fa40000000000000000000000000000000000000000000000000004f4ebcbd3aea200000000000000000000000000000000000000000000000000000000f2b5cba1",
          "blockHash": "0x9f743ca22b923ec079c77d0bf2415960c090cf278b84e147995269f3814c65b5",
          "blockNumber": "0x7316e9",
          "transactionHash": "0x26fdceeed371d40b6e806f87ca6c9ea81b396d22e8ba16a0145bb7f5ee921ca7",
          "transactionIndex": "0x74",
          "logIndex": "0xc0",
          "removed": false
        }
      ],
      "logsBloom": "0x00000000000000000000000000000000000000000600000000000000000000000000000000000000000000000000000000000000000000004000000000000000000000000000004000000008000000000000000000000000000000000000000000000000020000000000000000000800020000000000000000000010000000000000000000000000000000000000000000000000000000000000010000000000000000000000000000000000000000004000000000000000000000000000000000000002000000800000000000000000000000000000080000000000000020000000000000000000000000000000000000000000000000000000000000000000",
      "type": "0x2",
      "transactionHash": "0x26fdceeed371d40b6e806f87ca6c9ea81b396d22e8ba16a0145bb7f5ee921ca7",
      "transactionIndex": "0x74",
      "blockHash": "0x9f743ca22b923ec079c77d0bf2415960c090cf278b84e147995269f3814c65b5",
      "blockNumber": "0x7316e9",
      "gasUsed": "0xfd27",
      "effectiveGasPrice": "0x3ec25208",
      "from": "0xc77f7fed3b5cc8249adc428c5f44c9063b9734b4",
      "to": "0x8aafd3ede9adb0ff97c7aebce82a919afb1c8764",
      "contractAddress": null
    }
  ],
  "libraries": [],
  "pending": [],
  "returns": {},
  "timestamp": 1737494438,
  "chain": 11155111,
  "commit": "1d2fb70"
}