{
  "transactions": [
    {
      "hash": "0x04df34ad5850bc932cd0d3afd72ac6e271e5d9fef2f4d640590ce6d5badf8ffa",
      "transactionType": "CALL",
      "contractName": null,
      "contractAddress": "0xbf4a322f1496e5c3d34a9bcdb4c60567b38c7de2",
      "function": "sell(uint256)",
      "arguments": [
        "973450892123323204862"
      ],
      "transaction": {
        "from": "0xc77f7fed3b5cc8249adc428c5f44c9063b9734b4",
        "to": "0xbf4a322f1496e5c3d34a9bcdb4c60567b38c7de2",
        "gas": "0x16fea",
        "value": "0x0",
        "input": "0xe4849b32000000000000000000000000000000000000000000000034c5584cd281c784fe",
        "nonce": "0xe03",
        "chainId": "0xaa36a7"
      },
      "additionalContracts": [],
      "isFixedGasLimit": false
    }
  ],
  "receipts": [
    {
      "status": "0x1",
      "cumulativeGasUsed": "0xe14468",
      "logs": [
        {
          "address": "0xbf4a322f1496e5c3d34a9bcdb4c60567b38c7de2",
          "topics": [
            "0xddf252ad1be2c89b69c2b068fc378daa952ba7f163c4a11628f55a4df523b3ef",
            "0x000000000000000000000000c77f7fed3b5cc8249adc428c5f44c9063b9734b4",
            "0x0000000000000000000000000000000000000000000000000000000000000000"
          ],
          "data": "0x000000000000000000000000000000000000000000000034c5584cd281c784fe",
          "blockHash": "0x0ff518c0cef7083aeb2a51fbf9169f23c9e0c1a43072cf74ed197af420abf1db",
          "blockNumber": "0x7266ea",
          "transactionHash": "0x04df34ad5850bc932cd0d3afd72ac6e271e5d9fef2f4d640590ce6d5badf8ffa",
          "transactionIndex": "0x63",
          "logIndex": "0xa7",
          "removed": false
        },
        {
          "address": "0xbf4a322f1496e5c3d34a9bcdb4c60567b38c7de2",
          "topics": [
            "0x4afcb4a87cdbd9974efdb92ee48bc8d7cd0ae4bf217004db3d080cbaee652ca7"
          ],
          "data": "0x000000000000000000000000000000000000000000000000000000006787c64400000000000000000000000000000000000000000000000000039fc99863a4130000000000000000000000000000000000000000000000000dc7e3d2d6dbf113",
          "blockHash": "0x0ff518c0cef7083aeb2a51fbf9169f23c9e0c1a43072cf74ed197af420abf1db",
          "blockNumber": "0x7266ea",
          "transactionHash": "0x04df34ad5850bc932cd0d3afd72ac6e271e5d9fef2f4d640590ce6d5badf8ffa",
          "transactionIndex": "0x63",
          "logIndex": "0xa8",
          "removed": false
        }
      ],
      "logsBloom": "0x00000000000000000000000000000000000000000000000000000000000000000000000000000000000000000000000000000000000000004000000000000000000000000000000000000008000000000000001000000000000000000000000000000000020000000000000000000800020000000000000000000010000000000000000000000000000000000000000000000000000008000000010000000000000000000000000000000000000000004000000000000000000000000000000000000002000000800000000000001000000000000000080000000000000020000000000000000000000000000000000000000000000000000000000000000000",
      "type": "0x2",
      "transactionHash": "0x04df34ad5850bc932cd0d3afd72ac6e271e5d9fef2f4d640590ce6d5badf8ffa",
      "transactionIndex": "0x63",
      "blockHash": "0x0ff518c0cef7083aeb2a51fbf9169f23c9e0c1a43072cf74ed197af420abf1db",
      "blockNumber": "0x7266ea",
      "gasUsed": "0xfb91",
      "effectiveGasPrice": "0x371a186f8",
      "from": "0xc77f7fed3b5cc8249adc428c5f44c9063b9734b4",
      "to": "0xbf4a322f1496e5c3d34a9bcdb4c60567b38c7de2",
      "contractAddress": null
    }
  ],
  "libraries": [],
  "pending": [],
  "returns": {},
  "timestamp": 1736951365,
  "chain": 11155111,
  "commit": "51a374b"
}