{
  "transactions": [
    {
      "hash": "0x81a8c2a4612e7e74d6ad495779cc9b7404377d5a8d64ae619922c8c58b45f3e7",
      "transactionType": "CALL",
      "contractName": null,
      "contractAddress": "0x5eb9cc76c3506942c1c0ead70e877dd5e4f00cb0",
      "function": "buy(address)",
      "arguments": [
        "0xC77f7fed3b5Cc8249aDc428c5F44C9063B9734b4"
      ],
      "transaction": {
        "from": "0xc77f7fed3b5cc8249adc428c5f44c9063b9734b4",
        "to": "0x5eb9cc76c3506942c1c0ead70e877dd5e4f00cb0",
        "gas": "0x156c8",
        "value": "0xde0b6b3a7640000",
        "input": "0xf088d547000000000000000000000000c77f7fed3b5cc8249adc428c5f44c9063b9734b4",
        "nonce": "0x1ca",
        "chainId": "0xaa36a7"
      },
      "additionalContracts": [],
      "isFixedGasLimit": false
    }
  ],
  "receipts": [
    {
      "status": "0x1",
      "cumulativeGasUsed": "0x8912c3",
      "logs": [
        {
          "address": "0x5eb9cc76c3506942c1c0ead70e877dd5e4f00cb0",
          "topics": [
            "0xddf252ad1be2c89b69c2b068fc378daa952ba7f163c4a11628f55a4df523b3ef",
            "0x0000000000000000000000000000000000000000000000000000000000000000",
            "0x000000000000000000000000c77f7fed3b5cc8249adc428c5f44c9063b9734b4"
          ],
          "data": "0x000000000000000000000000000000000000000000000035a367f35b9c2ace19",
          "blockHash": "0x5efa623b58f5427b4ee86c5cca777b6ef54ac8f5beaf3cf37eb8372dcf68fe50",
          "blockNumber": "0x723cb8",
          "transactionHash": "0x81a8c2a4612e7e74d6ad495779cc9b7404377d5a8d64ae619922c8c58b45f3e7",
          "transactionIndex": "0x43",
          "logIndex": "0xb5",
          "removed": false
        },
        {
          "address": "0x5eb9cc76c3506942c1c0ead70e877dd5e4f00cb0",
          "topics": [
            "0xddf252ad1be2c89b69c2b068fc378daa952ba7f163c4a11628f55a4df523b3ef",
            "0x0000000000000000000000000000000000000000000000000000000000000000",
            "0x000000000000000000000000c77f7fed3b5cc8249adc428c5f44c9063b9734b4"
          ],
          "data": "0x00000000000000000000000000000000000000000000000029a6e7b9dc9d0552",
          "blockHash": "0x5efa623b58f5427b4ee86c5cca777b6ef54ac8f5beaf3cf37eb8372dcf68fe50",
          "blockNumber": "0x723cb8",
          "transactionHash": "0x81a8c2a4612e7e74d6ad495779cc9b7404377d5a8d64ae619922c8c58b45f3e7",
          "transactionIndex": "0x43",
          "logIndex": "0xb6",
          "removed": false
        },
        {
          "address": "0x5eb9cc76c3506942c1c0ead70e877dd5e4f00cb0",
          "topics": [
            "0x4afcb4a87cdbd9974efdb92ee48bc8d7cd0ae4bf217004db3d080cbaee652ca7"
          ],
          "data": "0x000000000000000000000000000000000000000000000000000000006785c9f400000000000000000000000000000000000000000000000000038dff9a40a4320000000000000000000000000000000000000000000000000de0b6b3a7640000",
          "blockHash": "0x5efa623b58f5427b4ee86c5cca777b6ef54ac8f5beaf3cf37eb8372dcf68fe50",
          "blockNumber": "0x723cb8",
          "transactionHash": "0x81a8c2a4612e7e74d6ad495779cc9b7404377d5a8d64ae619922c8c58b45f3e7",
          "transactionIndex": "0x43",
          "logIndex": "0xb7",
          "removed": false
        }
      ],
      "logsBloom": "0x00000000000000000000000000000000000000000000000000000000000000000000000000000000000000000000000000000000000000004000000000000000000000000000000000000008000000000000000000000000000000000000000000000000020000000000000004000800020000000000000000000010000000000000000000000000000000000000000000000000000000000000010000000000000000000000000000000000000000004000000000000000000000000000020000000002000000800000008000000000000000000000080000000000000020000000000000000000000000000000000000000000000000000000000000000000",
      "type": "0x2",
      "transactionHash": "0x81a8c2a4612e7e74d6ad495779cc9b7404377d5a8d64ae619922c8c58b45f3e7",
      "transactionIndex": "0x43",
      "blockHash": "0x5efa623b58f5427b4ee86c5cca777b6ef54ac8f5beaf3cf37eb8372dcf68fe50",
      "blockNumber": "0x723cb8",
      "gasUsed": "0xf82c",
      "effectiveGasPrice": "0x1c70ac7b7",
      "from": "0xc77f7fed3b5cc8249adc428c5f44c9063b9734b4",
      "to": "0x5eb9cc76c3506942c1c0ead70e877dd5e4f00cb0",
      "contractAddress": null
    }
  ],
  "libraries": [],
  "pending": [],
  "returns": {},
  "timestamp": 1736821237,
  "chain": 11155111,
  "commit": "51a374b"
}