{
  "transactions": [
    {
      "hash": "0x0d8f1f095164d23791419e66210e6b287187dec0b5655a3c8bed09fb639a4335",
      "transactionType": "CALL",
      "contractName": null,
      "contractAddress": "0x8aafd3ede9adb0ff97c7aebce82a919afb1c8764",
      "function": "sell(uint256)",
      "arguments": [
        "719970394413552069844"
      ],
      "transaction": {
        "from": "0xc77f7fed3b5cc8249adc428c5f44c9063b9734b4",
        "to": "0x8aafd3ede9adb0ff97c7aebce82a919afb1c8764",
        "gas": "0x17270",
        "value": "0x0",
        "input": "0xe4849b320000000000000000000000000000000000000000000000270798ab2709a76cd4",
        "nonce": "0x1005",
        "chainId": "0xaa36a7"
      },
      "additionalContracts": [],
      "isFixedGasLimit": false
    }
  ],
  "receipts": [
    {
      "status": "0x1",
      "cumulativeGasUsed": "0x9c7bcf",
      "logs": [
        {
          "address": "0x8aafd3ede9adb0ff97c7aebce82a919afb1c8764",
          "topics": [
            "0xddf252ad1be2c89b69c2b068fc378daa952ba7f163c4a11628f55a4df523b3ef",
            "0x000000000000000000000000c77f7fed3b5cc8249adc428c5f44c9063b9734b4",
            "0x0000000000000000000000000000000000000000000000000000000000000000"
          ],
          "data": "0x000000000000000000000000000000000000000000000026b7a9e1144b1cdea6",
          "blockHash": "0x1d1c4dd6003a88aa4558d5e849ab26e20a26c744a47643e1fe531f0557935fed",
          "blockNumber": "0x73167a",
          "transactionHash": "0x0d8f1f095164d23791419e66210e6b287187dec0b5655a3c8bed09fb639a4335",
          "transactionIndex": "0x6c",
          "logIndex": "0x9b",
          "removed": false
        },
        {
          "address": "0x8aafd3ede9adb0ff97c7aebce82a919afb1c8764",
          "topics": [
            "0xddf252ad1be2c89b69c2b068fc378daa952ba7f163c4a11628f55a4df523b3ef",
            "0x000000000000000000000000c77f7fed3b5cc8249adc428c5f44c9063b9734b4",
            "0x000000000000000000000000c77f7fed3b5cc8249adc428c5f44c9063b9734b4"
          ],
          "data": "0x0000000000000000000000000000000000000000000000004feeca12be8a8e2e",
          "blockHash": "0x1d1c4dd6003a88aa4558d5e849ab26e20a26c744a47643e1fe531f0557935fed",
          "blockNumber": "0x73167a",
          "transactionHash": "0x0d8f1f095164d23791419e66210e6b287187dec0b5655a3c8bed09fb639a4335",
          "transactionIndex": "0x6c",
          "logIndex": "0x9c",
          "removed": false
        },
        {
          "address": "0x8aafd3ede9adb0ff97c7aebce82a919afb1c8764",
          "topics": [
            "0x4afcb4a87cdbd9974efdb92ee48bc8d7cd0ae4bf217004db3d080cbaee652ca7"
          ],
          "data": "0x0000000000000000000000000000000000000000000000000000000067900a640000000000000000000000000000000000000000000000000004e7d8029e67160000000000000000000000000000000000000000000000000dc90173af10889b",
          "blockHash": "0x1d1c4dd6003a88aa4558d5e849ab26e20a26c744a47643e1fe531f0557935fed",
          "blockNumber": "0x73167a",
          "transactionHash": "0x0d8f1f095164d23791419e66210e6b287187dec0b5655a3c8bed09fb639a4335",
          "transactionIndex": "0x6c",
          "logIndex": "0x9d",
          "removed": false
        }
      ],
      "logsBloom": "0x00000000000000000000000000000000000000000600000000000000000000000000000000000000000000000000000000000000000000004000000000000000000000000000004000000008000000000000000000000000000000000000000000000000020000000000000000000800020000000000000000000010000000000000000000000000000000000000000000000000000000000000010000000000000000000000000000000000000000004000000000000000000000000000000000000002000000800000000000000000000000000000080000000000000020000000000000000000000000000000000000000000000000000000000000000000",
      "type": "0x2",
      "transactionHash": "0x0d8f1f095164d23791419e66210e6b287187dec0b5655a3c8bed09fb639a4335",
      "transactionIndex": "0x6c",
      "blockHash": "0x1d1c4dd6003a88aa4558d5e849ab26e20a26c744a47643e1fe531f0557935fed",
      "blockNumber": "0x73167a",
      "gasUsed": "0xfd4b",
      "effectiveGasPrice": "0x3f7b386c",
      "from": "0xc77f7fed3b5cc8249adc428c5f44c9063b9734b4",
      "to": "0x8aafd3ede9adb0ff97c7aebce82a919afb1c8764",
      "contractAddress": null
    }
  ],
  "libraries": [],
  "pending": [],
  "returns": {},
  "timestamp": 1737493093,
  "chain": 11155111,
  "commit": "1d2fb70"
}