{
  "transactions": [
    {
      "hash": "0x30ce85d1d6f4788205390a8268012f407606e923ae3c65d1e6866c856dbc4014",
      "transactionType": "CALL",
      "contractName": null,
      "contractAddress": "0x8aafd3ede9adb0ff97c7aebce82a919afb1c8764",
      "function": "sell(uint256)",
      "arguments": [
        "17388536564154911"
      ],
      "transaction": {
        "from": "0xc77f7fed3b5cc8249adc428c5f44c9063b9734b4",
        "to": "0x8aafd3ede9adb0ff97c7aebce82a919afb1c8764",
        "gas": "0x1724d",
        "value": "0x0",
        "input": "0xe4849b32000000000000000000000000000000000000000000000000003dc6c82912021f",
        "nonce": "0x13a2",
        "chainId": "0xaa36a7"
      },
      "additionalContracts": [],
      "isFixedGasLimit": false
    }
  ],
  "receipts": [
    {
      "status": "0x1",
      "cumulativeGasUsed": "0xae23e0",
      "logs": [
        {
          "address": "0x8aafd3ede9adb0ff97c7aebce82a919afb1c8764",
          "topics": [
            "0xddf252ad1be2c89b69c2b068fc378daa952ba7f163c4a11628f55a4df523b3ef",
            "0x000000000000000000000000c77f7fed3b5cc8249adc428c5f44c9063b9734b4",
            "0x0000000000000000000000000000000000000000000000000000000000000000"
          ],
          "data": "0x000000000000000000000000000000000000000000000000003d48437cb5b448",
          "blockHash": "0x519420810373e47dcd6bebc75a252fbc56afa3055bd1a189dd1b0a56bc383ada",
          "blockNumber": "0x731ac8",
          "transactionHash": "0x30ce85d1d6f4788205390a8268012f407606e923ae3c65d1e6866c856dbc4014",
          "transactionIndex": "0x57",
          "logIndex": "0x5b",
          "removed": false
        },
        {
          "address": "0x8aafd3ede9adb0ff97c7aebce82a919afb1c8764",
          "topics": [
            "0xddf252ad1be2c89b69c2b068fc378daa952ba7f163c4a11628f55a4df523b3ef",
            "0x000000000000000000000000c77f7fed3b5cc8249adc428c5f44c9063b9734b4",
            "0x000000000000000000000000c77f7fed3b5cc8249adc428c5f44c9063b9734b4"
          ],
          "data": "0x00000000000000000000000000000000000000000000000000007e84ac5c4dd7",
          "blockHash": "0x519420810373e47dcd6bebc75a252fbc56afa3055bd1a189dd1b0a56bc383ada",
          "blockNumber": "0x731ac8",
          "transactionHash": "0x30ce85d1d6f4788205390a8268012f407606e923ae3c65d1e6866c856dbc4014",
          "transactionIndex": "0x57",
          "logIndex": "0x5c",
          "removed": false
        },
        {
          "address": "0x8aafd3ede9adb0ff97c7aebce82a919afb1c8764",
          "topics": [
            "0x4afcb4a87cdbd9974efdb92ee48bc8d7cd0ae4bf217004db3d080cbaee652ca7"
          ],
          "data": "0x0000000000000000000000000000000000000000000000000000000067903e30000000000000000000000000000000000000000000000000000d1631018a431500000000000000000000000000000000000000000000000000003a4141610772",
          "blockHash": "0x519420810373e47dcd6bebc75a252fbc56afa3055bd1a189dd1b0a56bc383ada",
          "blockNumber": "0x731ac8",
          "transactionHash": "0x30ce85d1d6f4788205390a8268012f407606e923ae3c65d1e6866c856dbc4014",
          "transactionIndex": "0x57",
          "logIndex": "0x5d",
          "removed": false
        }
      ],
      "logsBloom": "0x00000000000000000000000000000000000000000600000000000000000000000000000000000000000000000000000000000000000000004000000000000000000000000000004000000008000000000000000000000000000000000000000000000000020000000000000000000800020000000000000000000010000000000000000000000000000000000000000000000000000000000000010000000000000000000000000000000000000000004000000000000000000000000000000000000002000000800000000000000000000000000000080000000000000020000000000000000000000000000000000000000000000000000000000000000000",
      "type": "0x2",
      "transactionHash": "0x30ce85d1d6f4788205390a8268012f407606e923ae3c65d1e6866c856dbc4014",
      "transactionIndex": "0x57",
      "blockHash": "0x519420810373e47dcd6bebc75a252fbc56afa3055bd1a189dd1b0a56bc383ada",
      "blockNumber": "0x731ac8",
      "gasUsed": "0xfd33",
      "effectiveGasPrice": "0x871d0f0c",
      "from": "0xc77f7fed3b5cc8249adc428c5f44c9063b9734b4",
      "to": "0x8aafd3ede9adb0ff97c7aebce82a919afb1c8764",
      "contractAddress": null
    }
  ],
  "libraries": [],
  "pending": [],
  "returns": {},
  "timestamp": 1737506353,
  "chain": 11155111,
  "commit": "1d2fb70"
}