{
  "transactions": [
    {
      "hash": "0xc559928229d64e97d32cd1ed980cd2682cffb20477cd506fe4d1d44463ad3ad2",
      "transactionType": "CALL",
      "contractName": null,
      "contractAddress": "0x8aafd3ede9adb0ff97c7aebce82a919afb1c8764",
      "function": "sell(uint256)",
      "arguments": [
        "1474050"
      ],
      "transaction": {
        "from": "0xc77f7fed3b5cc8249adc428c5f44c9063b9734b4",
        "to": "0x8aafd3ede9adb0ff97c7aebce82a919afb1c8764",
        "gas": "0x16208",
        "value": "0x0",
        "input": "0xe4849b320000000000000000000000000000000000000000000000000000000000167e02",
        "nonce": "0x10de",
        "chainId": "0xaa36a7"
      },
      "additionalContracts": [],
      "isFixedGasLimit": false
    }
  ],
  "receipts": [
    {
      "status": "0x1",
      "cumulativeGasUsed": "0xa36823",
      "logs": [
        {
          "address": "0x8aafd3ede9adb0ff97c7aebce82a919afb1c8764",
          "topics": [
            "0xddf252ad1be2c89b69c2b068fc378daa952ba7f163c4a11628f55a4df523b3ef",
            "0x000000000000000000000000c77f7fed3b5cc8249adc428c5f44c9063b9734b4",
            "0x0000000000000000000000000000000000000000000000000000000000000000"
          ],
          "data": "0x0000000000000000000000000000000000000000000000000000000000164ff2",
          "blockHash": "0x30efbdbfeca56433b64d6beeafc0babfd83744d1ab7fbc4d6495d11816ff7e8b",
          "blockNumber": "0x73177f",
          "transactionHash": "0xc559928229d64e97d32cd1ed980cd2682cffb20477cd506fe4d1d44463ad3ad2",
          "transactionIndex": "0x7e",
          "logIndex": "0xa7",
          "removed": false
        },
        {
          "address": "0x8aafd3ede9adb0ff97c7aebce82a919afb1c8764",
          "topics": [
            "0xddf252ad1be2c89b69c2b068fc378daa952ba7f163c4a11628f55a4df523b3ef",
            "0x000000000000000000000000c77f7fed3b5cc8249adc428c5f44c9063b9734b4",
            "0x000000000000000000000000c77f7fed3b5cc8249adc428c5f44c9063b9734b4"
          ],
          "data": "0x0000000000000000000000000000000000000000000000000000000000002e10",
          "blockHash": "0x30efbdbfeca56433b64d6beeafc0babfd83744d1ab7fbc4d6495d11816ff7e8b",
          "blockNumber": "0x73177f",
          "transactionHash": "0xc559928229d64e97d32cd1ed980cd2682cffb20477cd506fe4d1d44463ad3ad2",
          "transactionIndex": "0x7e",
          "logIndex": "0xa8",
          "removed": false
        },
        {
          "address": "0x8aafd3ede9adb0ff97c7aebce82a919afb1c8764",
          "topics": [
            "0x4afcb4a87cdbd9974efdb92ee48bc8d7cd0ae4bf217004db3d080cbaee652ca7"
          ],
          "data": "0x00000000000000000000000000000000000000000000000000000000679016b8000000000000000000000000000000000000000000000000000506595a48ec6e0000000000000000000000000000000000000000000000000000000000000824",
          "blockHash": "0x30efbdbfeca56433b64d6beeafc0babfd83744d1ab7fbc4d6495d11816ff7e8b",
          "blockNumber": "0x73177f",
          "transactionHash": "0xc559928229d64e97d32cd1ed980cd2682cffb20477cd506fe4d1d44463ad3ad2",
          "transactionIndex": "0x7e",
          "logIndex": "0xa9",
          "removed": false
        }
      ],
      "logsBloom": "0x00000000000000000000000000000000000000000600000000000000000000000000000000000000000000000000000000000000000000004000000000000000000000000000004000000008000000000000000000000000000000000000000000000000020000000000000000000800020000000000000000000010000000000000000000000000000000000000000000000000000000000000010000000000000000000000000000000000000000004000000000000000000000000000000000000002000000800000000000000000000000000000080000000000000020000000000000000000000000000000000000000000000000000000000000000000",
      "type": "0x2",
      "transactionHash": "0xc559928229d64e97d32cd1ed980cd2682cffb20477cd506fe4d1d44463ad3ad2",
      "transactionIndex": "0x7e",
      "blockHash": "0x30efbdbfeca56433b64d6beeafc0babfd83744d1ab7fbc4d6495d11816ff7e8b",
      "blockNumber": "0x73177f",
      "gasUsed": "0xf213",
      "effectiveGasPrice": "0x3d165f24",
      "from": "0xc77f7fed3b5cc8249adc428c5f44c9063b9734b4",
      "to": "0x8aafd3ede9adb0ff97c7aebce82a919afb1c8764",
      "contractAddress": null
    }
  ],
  "libraries": [],
  "pending": [],
  "returns": {},
  "timestamp": 1737496249,
  "chain": 11155111,
  "commit": "1d2fb70"
}