{
  "transactions": [
    {
      "hash": "0x9335eebfc9ae01d06fec6f4108676a100a0f647caf3710d030eb37ea686d5a91",
      "transactionType": "CALL",
      "contractName": null,
      "contractAddress": "0x8aafd3ede9adb0ff97c7aebce82a919afb1c8764",
      "function": "sell(uint256)",
      "arguments": [
        "41039621"
      ],
      "transaction": {
        "from": "0xc77f7fed3b5cc8249adc428c5f44c9063b9734b4",
        "to": "0x8aafd3ede9adb0ff97c7aebce82a919afb1c8764",
        "gas": "0x15d88",
        "value": "0x0",
        "input": "0xe4849b320000000000000000000000000000000000000000000000000000000002723705",
        "nonce": "0x16e2",
        "chainId": "0xaa36a7"
      },
      "additionalContracts": [],
      "isFixedGasLimit": false
    }
  ],
  "receipts": [
    {
      "status": "0x1",
      "cumulativeGasUsed": "0x13be4e1",
      "logs": [
        {
          "address": "0x8aafd3ede9adb0ff97c7aebce82a919afb1c8764",
          "topics": [
            "0xddf252ad1be2c89b69c2b068fc378daa952ba7f163c4a11628f55a4df523b3ef",
            "0x000000000000000000000000c77f7fed3b5cc8249adc428c5f44c9063b9734b4",
            "0x0000000000000000000000000000000000000000000000000000000000000000"
          ],
          "data": "0x00000000000000000000000000000000000000000000000000000000026d3489",
          "blockHash": "0x855566caedc0cf90dddfde8ec264a4bf79992d837917adef4898feb9e35c79f7",
          "blockNumber": "0x731ea0",
          "transactionHash": "0x9335eebfc9ae01d06fec6f4108676a100a0f647caf3710d030eb37ea686d5a91",
          "transactionIndex": "0x61",
          "logIndex": "0xb0",
          "removed": false
        },
        {
          "address": "0x8aafd3ede9adb0ff97c7aebce82a919afb1c8764",
          "topics": [
            "0xddf252ad1be2c89b69c2b068fc378daa952ba7f163c4a11628f55a4df523b3ef",
            "0x000000000000000000000000c77f7fed3b5cc8249adc428c5f44c9063b9734b4",
            "0x000000000000000000000000c77f7fed3b5cc8249adc428c5f44c9063b9734b4"
          ],
          "data": "0x000000000000000000000000000000000000000000000000000000000005027c",
          "blockHash": "0x855566caedc0cf90dddfde8ec264a4bf79992d837917adef4898feb9e35c79f7",
          "blockNumber": "0x731ea0",
          "transactionHash": "0x9335eebfc9ae01d06fec6f4108676a100a0f647caf3710d030eb37ea686d5a91",
          "transactionIndex": "0x61",
          "logIndex": "0xb1",
          "removed": false
        },
        {
          "address": "0x8aafd3ede9adb0ff97c7aebce82a919afb1c8764",
          "topics": [
            "0x4afcb4a87cdbd9974efdb92ee48bc8d7cd0ae4bf217004db3d080cbaee652ca7"
          ],
          "data": "0x0000000000000000000000000000000000000000000000000000000067906c680000000000000000000000000000000000000000000000000016a3bb59c892b9000000000000000000000000000000000000000000000000000000000003fd93",
          "blockHash": "0x855566caedc0cf90dddfde8ec264a4bf79992d837917adef4898feb9e35c79f7",
          "blockNumber": "0x731ea0",
          "transactionHash": "0x9335eebfc9ae01d06fec6f4108676a100a0f647caf3710d030eb37ea686d5a91",
          "transactionIndex": "0x61",
          "logIndex": "0xb2",
          "removed": false
        }
      ],
      "logsBloom": "0x00000000000000000000000000000000000000000600000000000000000000000000000000000000000000000000000000000000000000004000000000000000000000000000004000000008000000000000000000000000000000000000000000000000020000000000000000000800020000000000000000000010000000000000000000000000000000000000000000000000000000000000010000000000000000000000000000000000000000004000000000000000000000000000000000000002000000800000000000000000000000000000080000000000000020000000000000000000000000000000000000000000000000000000000000000000",
      "type": "0x2",
      "transactionHash": "0x9335eebfc9ae01d06fec6f4108676a100a0f647caf3710d030eb37ea686d5a91",
      "transactionIndex": "0x61",
      "blockHash": "0x855566caedc0cf90dddfde8ec264a4bf79992d837917adef4898feb9e35c79f7",
      "blockNumber": "0x731ea0",
      "gasUsed": "0xfd0f",
      "effectiveGasPrice": "0x4247ad06",
      "from": "0xc77f7fed3b5cc8249adc428c5f44c9063b9734b4",
      "to": "0x8aafd3ede9adb0ff97c7aebce82a919afb1c8764",
      "contractAddress": null
    }
  ],
  "libraries": [],
  "pending": [],
  "returns": {},
  "timestamp": 1737518185,
  "chain": 11155111,
  "commit": "1d2fb70"
}