{
  "transactions": [
    {
      "hash": "0x743ff65e55aad643a8585e36c75d1fb731b56ed74b8d8a920f7422b4f0abf6ed",
      "transactionType": "CALL",
      "contractName": null,
      "contractAddress": "0x270e88f8683660553e8ba4eb2ad7c91a1710d769",
      "function": "sell(uint256)",
      "arguments": [
        "940941914782825466779"
      ],
      "transaction": {
        "from": "0xc77f7fed3b5cc8249adc428c5f44c9063b9734b4",
        "to": "0x270e88f8683660553e8ba4eb2ad7c91a1710d769",
        "gas": "0x16fec",
        "value": "0x0",
        "input": "0xe4849b320000000000000000000000000000000000000000000000330231362bca304b9b",
        "nonce": "0x62d",
        "chainId": "0xaa36a7"
      },
      "additionalContracts": [],
      "isFixedGasLimit": false
    }
  ],
  "receipts": [
    {
      "status": "0x1",
      "cumulativeGasUsed": "0x4861ce",
      "logs": [
        {
          "address": "0x270e88f8683660553e8ba4eb2ad7c91a1710d769",
          "topics": [
            "0xddf252ad1be2c89b69c2b068fc378daa952ba7f163c4a11628f55a4df523b3ef",
            "0x000000000000000000000000c77f7fed3b5cc8249adc428c5f44c9063b9734b4",
            "0x0000000000000000000000000000000000000000000000000000000000000000"
          ],
          "data": "0x0000000000000000000000000000000000000000000000330231362bca304b9b",
          "blockHash": "0x87210ba2a3d44b941ec48b32fb8e03b40d10ad252f27a2a2aa95d8dba4c516fa",
          "blockNumber": "0x7252fe",
          "transactionHash": "0x743ff65e55aad643a8585e36c75d1fb731b56ed74b8d8a920f7422b4f0abf6ed",
          "transactionIndex": "0x30",
          "logIndex": "0x5f",
          "removed": false
        },
        {
          "address": "0x270e88f8683660553e8ba4eb2ad7c91a1710d769",
          "topics": [
            "0x4afcb4a87cdbd9974efdb92ee48bc8d7cd0ae4bf217004db3d080cbaee652ca7"
          ],
          "data": "0x000000000000000000000000000000000000000000000000000000006786d5f00000000000000000000000000000000000000000000000000003c01bc3a53a1a0000000000000000000000000000000000000000000000000dc83d3a3f7e6264",
          "blockHash": "0x87210ba2a3d44b941ec48b32fb8e03b40d10ad252f27a2a2aa95d8dba4c516fa",
          "blockNumber": "0x7252fe",
          "transactionHash": "0x743ff65e55aad643a8585e36c75d1fb731b56ed74b8d8a920f7422b4f0abf6ed",
          "transactionIndex": "0x30",
          "logIndex": "0x60",
          "removed": false
        }
      ],
      "logsBloom": "0x00000000000000000000000000000000000000000000000000000000000000000000000000000000000000000000000020000000000000004000000000000000000000000000000000000008000000000000000000000000000000000000000000000000020000000000000000000800020000000000000000000010000000000000000000010000000000000000000000000000000000000000010000000000000000000000000000000000000000004000000000000000000000000000000000000002000000800000000000000000000000000000080000008000000020000000000000000000000000000000000000000000000000000000000000000000",
      "type": "0x2",
      "transactionHash": "0x743ff65e55aad643a8585e36c75d1fb731b56ed74b8d8a920f7422b4f0abf6ed",
      "transactionIndex": "0x30",
      "blockHash": "0x87210ba2a3d44b941ec48b32fb8e03b40d10ad252f27a2a2aa95d8dba4c516fa",
      "blockNumber": "0x7252fe",
      "gasUsed": "0xfb93",
      "effectiveGasPrice": "0x2e1d38810",
      "from": "0xc77f7fed3b5cc8249adc428c5f44c9063b9734b4",
      "to": "0x270e88f8683660553e8ba4eb2ad7c91a1710d769",
      "contractAddress": null
    }
  ],
  "libraries": [],
  "pending": [],
  "returns": {},
  "timestamp": 1736889841,
  "chain": 11155111,
  "commit": "51a374b"
}