{
  "transactions": [
    {
      "hash": "0x72ff9655a38242dc7383e1961dfbb79d2e934decd069acae40b7e957588e5e50",
      "transactionType": "CALL",
      "contractName": null,
      "contractAddress": "0x8aafd3ede9adb0ff97c7aebce82a919afb1c8764",
      "function": "sell(uint256)",
      "arguments": [
        "50699421470809479"
      ],
      "transaction": {
        "from": "0xc77f7fed3b5cc8249adc428c5f44c9063b9734b4",
        "to": "0x8aafd3ede9adb0ff97c7aebce82a919afb1c8764",
        "gas": "0x1724d",
        "value": "0x0",
        "input": "0xe4849b3200000000000000000000000000000000000000000000000000b41edaef15dd87",
        "nonce": "0xf19",
        "chainId": "0xaa36a7"
      },
      "additionalContracts": [],
      "isFixedGasLimit": false
    }
  ],
  "receipts": [
    {
      "status": "0x1",
      "cumulativeGasUsed": "0xd03842",
      "logs": [
        {
          "address": "0x8aafd3ede9adb0ff97c7aebce82a919afb1c8764",
          "topics": [
            "0xddf252ad1be2c89b69c2b068fc378daa952ba7f163c4a11628f55a4df523b3ef",
            "0x000000000000000000000000c77f7fed3b5cc8249adc428c5f44c9063b9734b4",
            "0x0000000000000000000000000000000000000000000000000000000000000000"
          ],
          "data": "0x00000000000000000000000000000000000000000000000000b2adf7e7075abc",
          "blockHash": "0x3f6634c58f85541662599990f0001d3dda9ea31a074729cc7b541263e014d631",
          "blockNumber": "0x73156a",
          "transactionHash": "0x72ff9655a38242dc7383e1961dfbb79d2e934decd069acae40b7e957588e5e50",
          "transactionIndex": "0x7a",
          "logIndex": "0xbd",
          "removed": false
        },
        {
          "address": "0x8aafd3ede9adb0ff97c7aebce82a919afb1c8764",
          "topics": [
            "0xddf252ad1be2c89b69c2b068fc378daa952ba7f163c4a11628f55a4df523b3ef",
            "0x000000000000000000000000c77f7fed3b5cc8249adc428c5f44c9063b9734b4",
            "0x000000000000000000000000c77f7fed3b5cc8249adc428c5f44c9063b9734b4"
          ],
          "data": "0x000000000000000000000000000000000000000000000000000170e3080e82cb",
          "blockHash": "0x3f6634c58f85541662599990f0001d3dda9ea31a074729cc7b541263e014d631",
          "blockNumber": "0x73156a",
          "transactionHash": "0x72ff9655a38242dc7383e1961dfbb79d2e934decd069acae40b7e957588e5e50",
          "transactionIndex": "0x7a",
          "logIndex": "0xbe",
          "removed": false
        },
        {
          "address": "0x8aafd3ede9adb0ff97c7aebce82a919afb1c8764",
          "topics": [
            "0x4afcb4a87cdbd9974efdb92ee48bc8d7cd0ae4bf217004db3d080cbaee652ca7"
          ],
          "data": "0x00000000000000000000000000000000000000000000000000000000678ffda40000000000000000000000000000000000000000000000000004bee3f23e04b900000000000000000000000000000000000000000000000000003d982023769d",
          "blockHash": "0x3f6634c58f85541662599990f0001d3dda9ea31a074729cc7b541263e014d631",
          "blockNumber": "0x73156a",
          "transactionHash": "0x72ff9655a38242dc7383e1961dfbb79d2e934decd069acae40b7e957588e5e50",
          "transactionIndex": "0x7a",
          "logIndex": "0xbf",
          "removed": false
        }
      ],
      "logsBloom": "0x00000000000000000000000000000000000000000600000000000000000000000000000000000000000000000000000000000000000000004000000000000000000000000000004000000008000000000000000000000000000000000000000000000000020000000000000000000800020000000000000000000010000000000000000000000000000000000000000000000000000000000000010000000000000000000000000000000000000000004000000000000000000000000000000000000002000000800000000000000000000000000000080000000000000020000000000000000000000000000000000000000000000000000000000000000000",
      "type": "0x2",
      "transactionHash": "0x72ff9655a38242dc7383e1961dfbb79d2e934decd069acae40b7e957588e5e50",
      "transactionIndex": "0x7a",
      "blockHash": "0x3f6634c58f85541662599990f0001d3dda9ea31a074729cc7b541263e014d631",
      "blockNumber": "0x73156a",
      "gasUsed": "0xfd33",
      "effectiveGasPrice": "0x8b81866c",
      "from": "0xc77f7fed3b5cc8249adc428c5f44c9063b9734b4",
      "to": "0x8aafd3ede9adb0ff97c7aebce82a919afb1c8764",
      "contractAddress": null
    }
  ],
  "libraries": [],
  "pending": [],
  "returns": {},
  "timestamp": 1737489828,
  "chain": 11155111,
  "commit": "1d2fb70"
}