{
  "transactions": [
    {
      "hash": "0x98d66a0bb45725491c82d4e4ffc881a65375be5207e8547a380a9d5d10d7ce4f",
      "transactionType": "CALL",
      "contractName": null,
      "contractAddress": "0x5eb9cc76c3506942c1c0ead70e877dd5e4f00cb0",
      "function": "buy(address)",
      "arguments": [
        "0xC77f7fed3b5Cc8249aDc428c5F44C9063B9734b4"
      ],
      "transaction": {
        "from": "0xc77f7fed3b5cc8249adc428c5f44c9063b9734b4",
        "to": "0x5eb9cc76c3506942c1c0ead70e877dd5e4f00cb0",
        "gas": "0x1b30c",
        "value": "0xde0b6b3a7640000",
        "input": "0xf088d547000000000000000000000000c77f7fed3b5cc8249adc428c5f44c9063b9734b4",
        "nonce": "0x248",
        "chainId": "0xaa36a7"
      },
      "additionalContracts": [],
      "isFixedGasLimit": false
    }
  ],
  "receipts": [
    {
      "status": "0x1",
      "cumulativeGasUsed": "0xcd5d8a",
      "logs": [
        {
          "address": "0x5eb9cc76c3506942c1c0ead70e877dd5e4f00cb0",
          "topics": [
            "0xddf252ad1be2c89b69c2b068fc378daa952ba7f163c4a11628f55a4df523b3ef",
            "0x0000000000000000000000000000000000000000000000000000000000000000",
            "0x000000000000000000000000c77f7fed3b5cc8249adc428c5f44c9063b9734b4"
          ],
          "data": "0x0000000000000000000000000000000000000000000000357c264b2a24c520a1",
          "blockHash": "0xc4869273a488b4377275f223fa284643716e19020dbedd3b622430be24237dbb",
          "blockNumber": "0x724e01",
          "transactionHash": "0x98d66a0bb45725491c82d4e4ffc881a65375be5207e8547a380a9d5d10d7ce4f",
          "transactionIndex": "0x6c",
          "logIndex": "0xce",
          "removed": false
        },
        {
          "address": "0x5eb9cc76c3506942c1c0ead70e877dd5e4f00cb0",
          "topics": [
            "0xddf252ad1be2c89b69c2b068fc378daa952ba7f163c4a11628f55a4df523b3ef",
            "0x0000000000000000000000000000000000000000000000000000000000000000",
            "0x000000000000000000000000c77f7fed3b5cc8249adc428c5f44c9063b9734b4"
          ],
          "data": "0x00000000000000000000000000000000000000000000000029886bd316bf5c7f",
          "blockHash": "0xc4869273a488b4377275f223fa284643716e19020dbedd3b622430be24237dbb",
          "blockNumber": "0x724e01",
          "transactionHash": "0x98d66a0bb45725491c82d4e4ffc881a65375be5207e8547a380a9d5d10d7ce4f",
          "transactionIndex": "0x6c",
          "logIndex": "0xcf",
          "removed": false
        },
        {
          "address": "0x5eb9cc76c3506942c1c0ead70e877dd5e4f00cb0",
          "topics": [
            "0x4afcb4a87cdbd9974efdb92ee48bc8d7cd0ae4bf217004db3d080cbaee652ca7"
          ],
          "data": "0x00000000000000000000000000000000000000000000000000000000678699c00000000000000000000000000000000000000000000000000003909b83abf2340000000000000000000000000000000000000000000000000de0b6b3a7640000",
          "blockHash": "0xc4869273a488b4377275f223fa284643716e19020dbedd3b622430be24237dbb",
          "blockNumber": "0x724e01",
          "transactionHash": "0x98d66a0bb45725491c82d4e4ffc881a65375be5207e8547a380a9d5d10d7ce4f",
          "transactionIndex": "0x6c",
          "logIndex": "0xd0",
          "removed": false
        }
      ],
      "logsBloom": "0x00000000000000000000000000000000000000000000000000000000000000000000000000000000000000000000000000000000000000004000000000000000000000000000000000000008000000000000000000000000000000000000000000000000020000000000000004000800020000000000000000000010000000000000000000000000000000000000000000000000000000000000010000000000000000000000000000000000000000004000000000000000000000000000020000000002000000800000008000000000000000000000080000000000000020000000000000000000000000000000000000000000000000000000000000000000",
      "type": "0x2",
      "transactionHash": "0x98d66a0bb45725491c82d4e4ffc881a65375be5207e8547a380a9d5d10d7ce4f",
      "transactionIndex": "0x6c",
      "blockHash": "0xc4869273a488b4377275f223fa284643716e19020dbedd3b622430be24237dbb",
      "blockNumber": "0x724e01",
      "gasUsed": "0x13af8",
      "effectiveGasPrice": "0x387de14e8",
      "from": "0xc77f7fed3b5cc8249adc428c5f44c9063b9734b4",
      "to": "0x5eb9cc76c3506942c1c0ead70e877dd5e4f00cb0",
      "contractAddress": null
    }
  ],
  "libraries": [],
  "pending": [],
  "returns": {},
  "timestamp": 1736874433,
  "chain": 11155111,
  "commit": "51a374b"
}