{
  "transactions": [
    {
      "hash": "0xb025e0d8c5fabf132bb187d76a17d283f3062cfa62c9ae65a7594e8704499ecb",
      "transactionType": "CALL",
      "contractName": null,
      "contractAddress": "0x8aafd3ede9adb0ff97c7aebce82a919afb1c8764",
      "function": "sell(uint256)",
      "arguments": [
        "13962417242430030"
      ],
      "transaction": {
        "from": "0xc77f7fed3b5cc8249adc428c5f44c9063b9734b4",
        "to": "0x8aafd3ede9adb0ff97c7aebce82a919afb1c8764",
        "gas": "0x1724d",
        "value": "0x0",
        "input": "0xe4849b3200000000000000000000000000000000000000000000000000319abe97f0da4e",
        "nonce": "0x14b9",
        "chainId": "0xaa36a7"
      },
      "additionalContracts": [],
      "isFixedGasLimit": false
    }
  ],
  "receipts": [
    {
      "status": "0x1",
      "cumulativeGasUsed": "0x5de01b",
      "logs": [
        {
          "address": "0x8aafd3ede9adb0ff97c7aebce82a919afb1c8764",
          "topics": [
            "0xddf252ad1be2c89b69c2b068fc378daa952ba7f163c4a11628f55a4df523b3ef",
            "0x000000000000000000000000c77f7fed3b5cc8249adc428c5f44c9063b9734b4",
            "0x0000000000000000000000000000000000000000000000000000000000000000"
          ],
          "data": "0x000000000000000000000000000000000000000000000000003135279094d05e",
          "blockHash": "0xdc6c4550374b95f84116c021329cf6301b3a0a183634edd291af5db3efef4e14",
          "blockNumber": "0x731c13",
          "transactionHash": "0xb025e0d8c5fabf132bb187d76a17d283f3062cfa62c9ae65a7594e8704499ecb",
          "transactionIndex": "0x4c",
          "logIndex": "0x59",
          "removed": false
        },
        {
          "address": "0x8aafd3ede9adb0ff97c7aebce82a919afb1c8764",
          "topics": [
            "0xddf252ad1be2c89b69c2b068fc378daa952ba7f163c4a11628f55a4df523b3ef",
            "0x000000000000000000000000c77f7fed3b5cc8249adc428c5f44c9063b9734b4",
            "0x000000000000000000000000c77f7fed3b5cc8249adc428c5f44c9063b9734b4"
          ],
          "data": "0x00000000000000000000000000000000000000000000000000006597075c09f0",
          "blockHash": "0xdc6c4550374b95f84116c021329cf6301b3a0a183634edd291af5db3efef4e14",
          "blockNumber": "0x731c13",
          "transactionHash": "0xb025e0d8c5fabf132bb187d76a17d283f3062cfa62c9ae65a7594e8704499ecb",
          "transactionIndex": "0x4c",
          "logIndex": "0x5a",
          "removed": false
        },
        {
          "address": "0x8aafd3ede9adb0ff97c7aebce82a919afb1c8764",
          "topics": [
            "0x4afcb4a87cdbd9974efdb92ee48bc8d7cd0ae4bf217004db3d080cbaee652ca7"
          ],
          "data": "0x0000000000000000000000000000000000000000000000000000000067904dc00000000000000000000000000000000000000000000000000010462fefd6d7cf00000000000000000000000000000000000000000000000000003a2b86e1248a",
          "blockHash": "0xdc6c4550374b95f84116c021329cf6301b3a0a183634edd291af5db3efef4e14",
          "blockNumber": "0x731c13",
          "transactionHash": "0xb025e0d8c5fabf132bb187d76a17d283f3062cfa62c9ae65a7594e8704499ecb",
          "transactionIndex": "0x4c",
          "logIndex": "0x5b",
          "removed": false
        }
      ],
      "logsBloom": "0x00000000000000000000000000000000000000000600000000000000000000000000000000000000000000000000000000000000000000004000000000000000000000000000004000000008000000000000000000000000000000000000000000000000020000000000000000000800020000000000000000000010000000000000000000000000000000000000000000000000000000000000010000000000000000000000000000000000000000004000000000000000000000000000000000000002000000800000000000000000000000000000080000000000000020000000000000000000000000000000000000000000000000000000000000000000",
      "type": "0x2",
      "transactionHash": "0xb025e0d8c5fabf132bb187d76a17d283f3062cfa62c9ae65a7594e8704499ecb",
      "transactionIndex": "0x4c",
      "blockHash": "0xdc6c4550374b95f84116c021329cf6301b3a0a183634edd291af5db3efef4e14",
      "blockNumber": "0x731c13",
      "gasUsed": "0xfd33",
      "effectiveGasPrice": "0x109b1f6c8",
      "from": "0xc77f7fed3b5cc8249adc428c5f44c9063b9734b4",
      "to": "0x8aafd3ede9adb0ff97c7aebce82a919afb1c8764",
      "contractAddress": null
    }
  ],
  "libraries": [],
  "pending": [],
  "returns": {},
  "timestamp": 1737510338,
  "chain": 11155111,
  "commit": "1d2fb70"
}