{
  "transactions": [
    {
      "hash": "0x581feb71be49dadb553064c35b53e2c70eab83b0e3cc6ab0fc62d4f882d5cb80",
      "transactionType": "CALL",
      "contractName": null,
      "contractAddress": "0x270e88f8683660553e8ba4eb2ad7c91a1710d769",
      "function": "sell(uint256)",
      "arguments": [
        "719887732408355982803"
      ],
      "transaction": {
        "from": "0xc77f7fed3b5cc8249adc428c5f44c9063b9734b4",
        "to": "0x270e88f8683660553e8ba4eb2ad7c91a1710d769",
        "gas": "0x16fec",
        "value": "0x0",
        "input": "0xe4849b320000000000000000000000000000000000000000000000270672fe7f29850dd3",
        "nonce": "0x824",
        "chainId": "0xaa36a7"
      },
      "additionalContracts": [],
      "isFixedGasLimit": false
    }
  ],
  "receipts": [
    {
      "status": "0x1",
      "cumulativeGasUsed": "0x965ad5",
      "logs": [
        {
          "address": "0x270e88f8683660553e8ba4eb2ad7c91a1710d769",
          "topics": [
            "0xddf252ad1be2c89b69c2b068fc378daa952ba7f163c4a11628f55a4df523b3ef",
            "0x000000000000000000000000c77f7fed3b5cc8249adc428c5f44c9063b9734b4",
            "0x0000000000000000000000000000000000000000000000000000000000000000"
          ],
          "data": "0x0000000000000000000000000000000000000000000000270672fe7f29850dd3",
          "blockHash": "0x658511f97801b81e90974e07c9cdb187f5ad183fe5ab182ebb7d34e408f9e325",
          "blockNumber": "0x72556b",
          "transactionHash": "0x581feb71be49dadb553064c35b53e2c70eab83b0e3cc6ab0fc62d4f882d5cb80",
          "transactionIndex": "0x4e",
          "logIndex": "0xaf",
          "removed": false
        },
        {
          "address": "0x270e88f8683660553e8ba4eb2ad7c91a1710d769",
          "topics": [
            "0x4afcb4a87cdbd9974efdb92ee48bc8d7cd0ae4bf217004db3d080cbaee652ca7"
          ],
          "data": "0x000000000000000000000000000000000000000000000000000000006786f30c0000000000000000000000000000000000000000000000000004e6d6501bdad80000000000000000000000000000000000000000000000000dc8266aef967547",
          "blockHash": "0x658511f97801b81e90974e07c9cdb187f5ad183fe5ab182ebb7d34e408f9e325",
          "blockNumber": "0x72556b",
          "transactionHash": "0x581feb71be49dadb553064c35b53e2c70eab83b0e3cc6ab0fc62d4f882d5cb80",
          "transactionIndex": "0x4e",
          "logIndex": "0xb0",
          "removed": false
        }
      ],
      "logsBloom": "0x00000000000000000000000000000000000000000000000000000000000000000000000000000000000000000000000020000000000000004000000000000000000000000000000000000008000000000000000000000000000000000000000000000000020000000000000000000800020000000000000000000010000000000000000000010000000000000000000000000000000000000000010000000000000000000000000000000000000000004000000000000000000000000000000000000002000000800000000000000000000000000000080000008000000020000000000000000000000000000000000000000000000000000000000000000000",
      "type": "0x2",
      "transactionHash": "0x581feb71be49dadb553064c35b53e2c70eab83b0e3cc6ab0fc62d4f882d5cb80",
      "transactionIndex": "0x4e",
      "blockHash": "0x658511f97801b81e90974e07c9cdb187f5ad183fe5ab182ebb7d34e408f9e325",
      "blockNumber": "0x72556b",
      "gasUsed": "0xfb93",
      "effectiveGasPrice": "0x8dc2d0da",
      "from": "0xc77f7fed3b5cc8249adc428c5f44c9063b9734b4",
      "to": "0x270e88f8683660553e8ba4eb2ad7c91a1710d769",
      "contractAddress": null
    }
  ],
  "libraries": [],
  "pending": [],
  "returns": {},
  "timestamp": 1736897293,
  "chain": 11155111,
  "commit": "51a374b"
}