{
  "transactions": [
    {
      "hash": "0x29df4923becc0d4ad20d9d458890298d4499cbb47b0f4215a8e8be26a8b10748",
      "transactionType": "CALL",
      "contractName": null,
      "contractAddress": "0x5eb9cc76c3506942c1c0ead70e877dd5e4f00cb0",
      "function": "buy(address)",
      "arguments": [
        "0xC77f7fed3b5Cc8249aDc428c5F44C9063B9734b4"
      ],
      "transaction": {
        "from": "0xc77f7fed3b5cc8249adc428c5f44c9063b9734b4",
        "to": "0x5eb9cc76c3506942c1c0ead70e877dd5e4f00cb0",
        "gas": "0x156c8",
        "value": "0xde0b6b3a7640000",
        "input": "0xf088d547000000000000000000000000c77f7fed3b5cc8249adc428c5f44c9063b9734b4",
        "nonce": "0x164",
        "chainId": "0xaa36a7"
      },
      "additionalContracts": [],
      "isFixedGasLimit": false
    }
  ],
  "receipts": [
    {
      "status": "0x1",
      "cumulativeGasUsed": "0x896a25",
      "logs": [
        {
          "address": "0x5eb9cc76c3506942c1c0ead70e877dd5e4f00cb0",
          "topics": [
            "0xddf252ad1be2c89b69c2b068fc378daa952ba7f163c4a11628f55a4df523b3ef",
            "0x0000000000000000000000000000000000000000000000000000000000000000",
            "0x000000000000000000000000c77f7fed3b5cc8249adc428c5f44c9063b9734b4"
          ],
          "data": "0x000000000000000000000000000000000000000000000035a6da8b6ac7aa1efb",
          "blockHash": "0xfb4c29af8622cf093e04b25c82c17c9ef01536ffdf4a2822786d3652f605f565",
          "blockNumber": "0x723c1e",
          "transactionHash": "0x29df4923becc0d4ad20d9d458890298d4499cbb47b0f4215a8e8be26a8b10748",
          "transactionIndex": "0x5f",
          "logIndex": "0x92",
          "removed": false
        },
        {
          "address": "0x5eb9cc76c3506942c1c0ead70e877dd5e4f00cb0",
          "topics": [
            "0xddf252ad1be2c89b69c2b068fc378daa952ba7f163c4a11628f55a4df523b3ef",
            "0x0000000000000000000000000000000000000000000000000000000000000000",
            "0x000000000000000000000000c77f7fed3b5cc8249adc428c5f44c9063b9734b4"
          ],
          "data": "0x00000000000000000000000000000000000000000000000029a995172175f781",
          "blockHash": "0xfb4c29af8622cf093e04b25c82c17c9ef01536ffdf4a2822786d3652f605f565",
          "blockNumber": "0x723c1e",
          "transactionHash": "0x29df4923becc0d4ad20d9d458890298d4499cbb47b0f4215a8e8be26a8b10748",
          "transactionIndex": "0x5f",
          "logIndex": "0x93",
          "removed": false
        },
        {
          "address": "0x5eb9cc76c3506942c1c0ead70e877dd5e4f00cb0",
          "topics": [
            "0x4afcb4a87cdbd9974efdb92ee48bc8d7cd0ae4bf217004db3d080cbaee652ca7"
          ],
          "data": "0x000000000000000000000000000000000000000000000000000000006785c2bc00000000000000000000000000000000000000000000000000038dc5202e3e6c0000000000000000000000000000000000000000000000000de0b6b3a7640000",
          "blockHash": "0xfb4c29af8622cf093e04b25c82c17c9ef01536ffdf4a2822786d3652f605f565",
          "blockNumber": "0x723c1e",
          "transactionHash": "0x29df4923becc0d4ad20d9d458890298d4499cbb47b0f4215a8e8be26a8b10748",
          "transactionIndex": "0x5f",
          "logIndex": "0x94",
          "removed": false
        }
      ],
      "logsBloom": "0x00000000000000000000000000000000000000000000000000000000000000000000000000000000000000000000000000000000000000004000000000000000000000000000000000000008000000000000000000000000000000000000000000000000020000000000000004000800020000000000000000000010000000000000000000000000000000000000000000000000000000000000010000000000000000000000000000000000000000004000000000000000000000000000020000000002000000800000008000000000000000000000080000000000000020000000000000000000000000000000000000000000000000000000000000000000",
      "type": "0x2",
      "transactionHash": "0x29df4923becc0d4ad20d9d458890298d4499cbb47b0f4215a8e8be26a8b10748",
      "transactionIndex": "0x5f",
      "blockHash": "0xfb4c29af8622cf093e04b25c82c17c9ef01536ffdf4a2822786d3652f605f565",
      "blockNumber": "0x723c1e",
      "gasUsed": "0xf82c",
      "effectiveGasPrice": "0x2249cfade",
      "from": "0xc77f7fed3b5cc8249adc428c5f44c9063b9734b4",
      "to": "0x5eb9cc76c3506942c1c0ead70e877dd5e4f00cb0",
      "contractAddress": null
    }
  ],
  "libraries": [],
  "pending": [],
  "returns": {},
  "timestamp": 1736819389,
  "chain": 11155111,
  "commit": "51a374b"
}