{
  "transactions": [
    {
      "hash": "0x965ff6c97f5d96a95427ae3627fbfc9e8b2cd7760d8e04dbea4f9f89e30f51c3",
      "transactionType": "CALL",
      "contractName": null,
      "contractAddress": "0x8aafd3ede9adb0ff97c7aebce82a919afb1c8764",
      "function": "sell(uint256)",
      "arguments": [
        "2778478276831"
      ],
      "transaction": {
        "from": "0xc77f7fed3b5cc8249adc428c5f44c9063b9734b4",
        "to": "0x8aafd3ede9adb0ff97c7aebce82a919afb1c8764",
        "gas": "0x15daa",
        "value": "0x0",
        "input": "0xe4849b3200000000000000000000000000000000000000000000000000000286ea35f0df",
        "nonce": "0x121b",
        "chainId": "0xaa36a7"
      },
      "additionalContracts": [],
      "isFixedGasLimit": false
    }
  ],
  "receipts": [
    {
      "status": "0x1",
      "cumulativeGasUsed": "0x74cb06",
      "logs": [
        {
          "address": "0x8aafd3ede9adb0ff97c7aebce82a919afb1c8764",
          "topics": [
            "0xddf252ad1be2c89b69c2b068fc378daa952ba7f163c4a11628f55a4df523b3ef",
            "0x000000000000000000000000c77f7fed3b5cc8249adc428c5f44c9063b9734b4",
            "0x0000000000000000000000000000000000000000000000000000000000000000"
          ],
          "data": "0x00000000000000000000000000000000000000000000000000000281bd543ab9",
          "blockHash": "0x8580f35e65ffd25ddcb3edf85a7c72aa0da83ff8aa2ebe0483cf600eb5c511b8",
          "blockNumber": "0x7318f7",
          "transactionHash": "0x965ff6c97f5d96a95427ae3627fbfc9e8b2cd7760d8e04dbea4f9f89e30f51c3",
          "transactionIndex": "0x6e",
          "logIndex": "0x7e",
          "removed": false
        },
        {
          "address": "0x8aafd3ede9adb0ff97c7aebce82a919afb1c8764",
          "topics": [
            "0xddf252ad1be2c89b69c2b068fc378daa952ba7f163c4a11628f55a4df523b3ef",
            "0x000000000000000000000000c77f7fed3b5cc8249adc428c5f44c9063b9734b4",
            "0x000000000000000000000000c77f7fed3b5cc8249adc428c5f44c9063b9734b4"
          ],
          "data": "0x000000000000000000000000000000000000000000000000000000052ce1b626",
          "blockHash": "0x8580f35e65ffd25ddcb3edf85a7c72aa0da83ff8aa2ebe0483cf600eb5c511b8",
          "blockNumber": "0x7318f7",
          "transactionHash": "0x965ff6c97f5d96a95427ae3627fbfc9e8b2cd7760d8e04dbea4f9f89e30f51c3",
          "transactionIndex": "0x6e",
          "logIndex": "0x7f",
          "removed": false
        },
        {
          "address": "0x8aafd3ede9adb0ff97c7aebce82a919afb1c8764",
          "topics": [
            "0x4afcb4a87cdbd9974efdb92ee48bc8d7cd0ae4bf217004db3d080cbaee652ca7"
          ],
          "data": "0x0000000000000000000000000000000000000000000000000000000067902864000000000000000000000000000000000000000000000000000534d691123bed00000000000000000000000000000000000000000000000000000000f2b26c88",
          "blockHash": "0x8580f35e65ffd25ddcb3edf85a7c72aa0da83ff8aa2ebe0483cf600eb5c511b8",
          "blockNumber": "0x7318f7",
          "transactionHash": "0x965ff6c97f5d96a95427ae3627fbfc9e8b2cd7760d8e04dbea4f9f89e30f51c3",
          "transactionIndex": "0x6e",
          "logIndex": "0x80",
          "removed": false
        }
      ],
      "logsBloom": "0x00000000000000000000000000000000000000000600000000000000000000000000000000000000000000000000000000000000000000004000000000000000000000000000004000000008000000000000000000000000000000000000000000000000020000000000000000000800020000000000000000000010000000000000000000000000000000000000000000000000000000000000010000000000000000000000000000000000000000004000000000000000000000000000000000000002000000800000000000000000000000000000080000000000000020000000000000000000000000000000000000000000000000000000000000000000",
      "type": "0x2",
      "transactionHash": "0x965ff6c97f5d96a95427ae3627fbfc9e8b2cd7760d8e04dbea4f9f89e30f51c3",
      "transactionIndex": "0x6e",
      "blockHash": "0x8580f35e65ffd25ddcb3edf85a7c72aa0da83ff8aa2ebe0483cf600eb5c511b8",
      "blockNumber": "0x7318f7",
      "gasUsed": "0xfd27",
      "effectiveGasPrice": "0x48ce6a6c",
      "from": "0xc77f7fed3b5cc8249adc428c5f44c9063b9734b4",
      "to": "0x8aafd3ede9adb0ff97c7aebce82a919afb1c8764",
      "contractAddress": null
    }
  ],
  "libraries": [],
  "pending": [],
  "returns": {},
  "timestamp": 1737500773,
  "chain": 11155111,
  "commit": "1d2fb70"
}