{
  "transactions": [
    {
      "hash": "0xc9a2f9d16019e337d1ff722f3274549b005b225cb7c38d0ee76b1855cd9a2b2b",
      "transactionType": "CALL",
      "contractName": null,
      "contractAddress": "0xbf4a322f1496e5c3d34a9bcdb4c60567b38c7de2",
      "function": "sell(uint256)",
      "arguments": [
        "976160954092470085051"
      ],
      "transaction": {
        "from": "0xc77f7fed3b5cc8249adc428c5f44c9063b9734b4",
        "to": "0xbf4a322f1496e5c3d34a9bcdb4c60567b38c7de2",
        "gas": "0x16fea",
        "value": "0x0",
        "input": "0xe4849b32000000000000000000000000000000000000000000000034eaf45fd3201325bb",
        "nonce": "0xd37",
        "chainId": "0xaa36a7"
      },
      "additionalContracts": [],
      "isFixedGasLimit": false
    }
  ],
  "receipts": [
    {
      "status": "0x1",
      "cumulativeGasUsed": "0x13885ff",
      "logs": [
        {
          "address": "0xbf4a322f1496e5c3d34a9bcdb4c60567b38c7de2",
          "topics": [
            "0xddf252ad1be2c89b69c2b068fc378daa952ba7f163c4a11628f55a4df523b3ef",
            "0x000000000000000000000000c77f7fed3b5cc8249adc428c5f44c9063b9734b4",
            "0x0000000000000000000000000000000000000000000000000000000000000000"
          ],
          "data": "0x000000000000000000000000000000000000000000000034eaf45fd3201325bb",
          "blockHash": "0xb363837664a4ee8aac0061df3f58913aaa17fdb5a64def885d529820040c8028",
          "blockNumber": "0x725d9b",
          "transactionHash": "0xc9a2f9d16019e337d1ff722f3274549b005b225cb7c38d0ee76b1855cd9a2b2b",
          "transactionIndex": "0x89",
          "logIndex": "0xbe",
          "removed": false
        },
        {
          "address": "0xbf4a322f1496e5c3d34a9bcdb4c60567b38c7de2",
          "topics": [
            "0x4afcb4a87cdbd9974efdb92ee48bc8d7cd0ae4bf217004db3d080cbaee652ca7"
          ],
          "data": "0x00000000000000000000000000000000000000000000000000000000678755b800000000000000000000000000000000000000000000000000039d36379f760b0000000000000000000000000000000000000000000000000dc7e3d923ef1c09",
          "blockHash": "0xb363837664a4ee8aac0061df3f58913aaa17fdb5a64def885d529820040c8028",
          "blockNumber": "0x725d9b",
          "transactionHash": "0xc9a2f9d16019e337d1ff722f3274549b005b225cb7c38d0ee76b1855cd9a2b2b",
          "transactionIndex": "0x89",
          "logIndex": "0xbf",
          "removed": false
        }
      ],
      "logsBloom": "0x00000000000000000000000000000000000000000000000000000000000000000000000000000000000000000000000000000000000000004000000000000000000000000000000000000008000000000000001000000000000000000000000000000000020000000000000000000800020000000000000000000010000000000000000000000000000000000000000000000000000008000000010000000000000000000000000000000000000000004000000000000000000000000000000000000002000000800000000000001000000000000000080000000000000020000000000000000000000000000000000000000000000000000000000000000000",
      "type": "0x2",
      "transactionHash": "0xc9a2f9d16019e337d1ff722f3274549b005b225cb7c38d0ee76b1855cd9a2b2b",
      "transactionIndex": "0x89",
      "blockHash": "0xb363837664a4ee8aac0061df3f58913aaa17fdb5a64def885d529820040c8028",
      "blockNumber": "0x725d9b",
      "gasUsed": "0xfb91",
      "effectiveGasPrice": "0x347284c6c",
      "from": "0xc77f7fed3b5cc8249adc428c5f44c9063b9734b4",
      "to": "0xbf4a322f1496e5c3d34a9bcdb4c60567b38c7de2",
      "contractAddress": null
    }
  ],
  "libraries": [],
  "pending": [],
  "returns": {},
  "timestamp": 1736922553,
  "chain": 11155111,
  "commit": "51a374b"
}