{
  "transactions": [
    {
      "hash": "0xeb1abf2c073c585c7bd239ce23b7ae8afbd21feaaa305233baf34b367b1b7592",
      "transactionType": "CALL",
      "contractName": null,
      "contractAddress": "0x8aafd3ede9adb0ff97c7aebce82a919afb1c8764",
      "function": "sell(uint256)",
      "arguments": [
        "77972303782465"
      ],
      "transaction": {
        "from": "0xc77f7fed3b5cc8249adc428c5f44c9063b9734b4",
        "to": "0x8aafd3ede9adb0ff97c7aebce82a919afb1c8764",
        "gas": "0x15daa",
        "value": "0x0",
        "input": "0xe4849b32000000000000000000000000000000000000000000000000000046ea57782241",
        "nonce": "0x1715",
        "chainId": "0xaa36a7"
      },
      "additionalContracts": [],
      "isFixedGasLimit": false
    }
  ],
  "receipts": [
    {
      "status": "0x1",
      "cumulativeGasUsed": "0xfd4182",
      "logs": [
        {
          "address": "0x8aafd3ede9adb0ff97c7aebce82a919afb1c8764",
          "topics": [
            "0xddf252ad1be2c89b69c2b068fc378daa952ba7f163c4a11628f55a4df523b3ef",
            "0x000000000000000000000000c77f7fed3b5cc8249adc428c5f44c9063b9734b4",
            "0x0000000000000000000000000000000000000000000000000000000000000000"
          ],
          "data": "0x000000000000000000000000000000000000000000000000000046591b60a50e",
          "blockHash": "0x28a94a883a0fbff3fa715efc4c9737918e6499de612c08dd44436eacb41810c6",
          "blockNumber": "0x731eda",
          "transactionHash": "0xeb1abf2c073c585c7bd239ce23b7ae8afbd21feaaa305233baf34b367b1b7592",
          "transactionIndex": "0x94",
          "logIndex": "0xee",
          "removed": false
        },
        {
          "address": "0x8aafd3ede9adb0ff97c7aebce82a919afb1c8764",
          "topics": [
            "0xddf252ad1be2c89b69c2b068fc378daa952ba7f163c4a11628f55a4df523b3ef",
            "0x000000000000000000000000c77f7fed3b5cc8249adc428c5f44c9063b9734b4",
            "0x000000000000000000000000c77f7fed3b5cc8249adc428c5f44c9063b9734b4"
          ],
          "data": "0x000000000000000000000000000000000000000000000000000000913c177d33",
          "blockHash": "0x28a94a883a0fbff3fa715efc4c9737918e6499de612c08dd44436eacb41810c6",
          "blockNumber": "0x731eda",
          "transactionHash": "0xeb1abf2c073c585c7bd239ce23b7ae8afbd21feaaa305233baf34b367b1b7592",
          "transactionIndex": "0x94",
          "logIndex": "0xef",
          "removed": false
        },
        {
          "address": "0x8aafd3ede9adb0ff97c7aebce82a919afb1c8764",
          "topics": [
            "0x4afcb4a87cdbd9974efdb92ee48bc8d7cd0ae4bf217004db3d080cbaee652ca7"
          ],
          "data": "0x0000000000000000000000000000000000000000000000000000000067906f200000000000000000000000000000000000000000000000000017454a20113a0b00000000000000000000000000000000000000000000000000000076e9b50f4e",
          "blockHash": "0x28a94a883a0fbff3fa715efc4c9737918e6499de612c08dd44436eacb41810c6",
          "blockNumber": "0x731eda",
          "transactionHash": "0xeb1abf2c073c585c7bd239ce23b7ae8afbd21feaaa305233baf34b367b1b7592",
          "transactionIndex": "0x94",
          "logIndex": "0xf0",
          "removed": false
        }
      ],
      "logsBloom": "0x00000000000000000000000000000000000000000600000000000000000000000000000000000000000000000000000000000000000000004000000000000000000000000000004000000008000000000000000000000000000000000000000000000000020000000000000000000800020000000000000000000010000000000000000000000000000000000000000000000000000000000000010000000000000000000000000000000000000000004000000000000000000000000000000000000002000000800000000000000000000000000000080000000000000020000000000000000000000000000000000000000000000000000000000000000000",
      "type": "0x2",
      "transactionHash": "0xeb1abf2c073c585c7bd239ce23b7ae8afbd21feaaa305233baf34b367b1b7592",
      "transactionIndex": "0x94",
      "blockHash": "0x28a94a883a0fbff3fa715efc4c9737918e6499de612c08dd44436eacb41810c6",
      "blockNumber": "0x731eda",
      "gasUsed": "0xfd27",
      "effectiveGasPrice": "0x3a244fd1",
      "from": "0xc77f7fed3b5cc8249adc428c5f44c9063b9734b4",
      "to": "0x8aafd3ede9adb0ff97c7aebce82a919afb1c8764",
      "contractAddress": null
    }
  ],
  "libraries": [],
  "pending": [],
  "returns": {},
  "timestamp": 1737518881,
  "chain": 11155111,
  "commit": "1d2fb70"
}