{
  "transactions": [
    {
      "hash": "0xb9706dbde358da0e69540651c47577f07707f364dc9c01df3b526c537dd29d15",
      "transactionType": "CALL",
      "contractName": null,
      "contractAddress": "0x3b71253dcecbaf453f48043c75f311253fd0ad31",
      "function": "buy(address)",
      "arguments": [
        "0xC77f7fed3b5Cc8249aDc428c5F44C9063B9734b4"
      ],
      "transaction": {
        "from": "0xc77f7fed3b5cc8249adc428c5f44c9063b9734b4",
        "to": "0x3b71253dcecbaf453f48043c75f311253fd0ad31",
        "gas": "0x1b30c",
        "value": "0xde0b6b3a7640000",
        "input": "0xf088d547000000000000000000000000c77f7fed3b5cc8249adc428c5f44c9063b9734b4",
        "nonce": "0x4ce",
        "chainId": "0xaa36a7"
      },
      "additionalContracts": [],
      "isFixedGasLimit": false
    }
  ],
  "receipts": [
    {
      "status": "0x1",
      "cumulativeGasUsed": "0xa08688",
      "logs": [
        {
          "address": "0x3b71253dcecbaf453f48043c75f311253fd0ad31",
          "topics": [
            "0xddf252ad1be2c89b69c2b068fc378daa952ba7f163c4a11628f55a4df523b3ef",
            "0x0000000000000000000000000000000000000000000000000000000000000000",
            "0x000000000000000000000000c77f7fed3b5cc8249adc428c5f44c9063b9734b4"
          ],
          "data": "0x00000000000000000000000000000000000000000000d1675bc582636b7e1946",
          "blockHash": "0x546b6c26c6044f7c66409c453b4c591a9b9f1d1ebfaba06492a2e91cb9d55757",
          "blockNumber": "0x72511f",
          "transactionHash": "0xb9706dbde358da0e69540651c47577f07707f364dc9c01df3b526c537dd29d15",
          "transactionIndex": "0x4f",
          "logIndex": "0x8c",
          "removed": false
        },
        {
          "address": "0x3b71253dcecbaf453f48043c75f311253fd0ad31",
          "topics": [
            "0xddf252ad1be2c89b69c2b068fc378daa952ba7f163c4a11628f55a4df523b3ef",
            "0x0000000000000000000000000000000000000000000000000000000000000000",
            "0x000000000000000000000000c77f7fed3b5cc8249adc428c5f44c9063b9734b4"
          ],
          "data": "0x0000000000000000000000000000000000000000000000a29bf1413a74ca67d6",
          "blockHash": "0x546b6c26c6044f7c66409c453b4c591a9b9f1d1ebfaba06492a2e91cb9d55757",
          "blockNumber": "0x72511f",
          "transactionHash": "0xb9706dbde358da0e69540651c47577f07707f364dc9c01df3b526c537dd29d15",
          "transactionIndex": "0x4f",
          "logIndex": "0x8d",
          "removed": false
        },
        {
          "address": "0x3b71253dcecbaf453f48043c75f311253fd0ad31",
          "topics": [
            "0x4afcb4a87cdbd9974efdb92ee48bc8d7cd0ae4bf217004db3d080cbaee652ca7"
          ],
          "data": "0x000000000000000000000000000000000000000000000000000000006786bf58000000000000000000000000000000000000000000000000000000e91eeab0790000000000000000000000000000000000000000000000000de0b6b3a7640000",
          "blockHash": "0x546b6c26c6044f7c66409c453b4c591a9b9f1d1ebfaba06492a2e91cb9d55757",
          "blockNumber": "0x72511f",
          "transactionHash": "0xb9706dbde358da0e69540651c47577f07707f364dc9c01df3b526c537dd29d15",
          "transactionIndex": "0x4f",
          "logIndex": "0x8e",
          "removed": false
        }
      ],
      "logsBloom": "0x00000000000000000000000000000000000000000000000000000000000000000000000000000000000000000000000000000000000000004000020000000000000000000000000000000008000000000000000000000000000000000000000000000000020000000000000000000800020000000000000000000010002000000000000000000000000000000000000000000000000000000000010000000000000000000000000000000000000000004000000000000000000000000000000000000002000000800000000000000000000000000000080000000000000020000000000000000000008000000000000000000000000000000000000000000000",
      "type": "0x2",
      "transactionHash": "0xb9706dbde358da0e69540651c47577f07707f364dc9c01df3b526c537dd29d15",
      "transactionIndex": "0x4f",
      "blockHash": "0x546b6c26c6044f7c66409c453b4c591a9b9f1d1ebfaba06492a2e91cb9d55757",
      "blockNumber": "0x72511f",
      "gasUsed": "0x13af8",
      "effectiveGasPrice": "0x2d8928def",
      "from": "0xc77f7fed3b5cc8249adc428c5f44c9063b9734b4",
      "to": "0x3b71253dcecbaf453f48043c75f311253fd0ad31",
      "contractAddress": null
    }
  ],
  "libraries": [],
  "pending": [],
  "returns": {},
  "timestamp": 1736884058,
  "chain": 11155111,
  "commit": "51a374b"
}