{
  "transactions": [
    {
      "hash": "0x6e565478321e48ce23806c535f33636a04c70187256675c63560f79bdaef51a7",
      "transactionType": "CALL",
      "contractName": null,
      "contractAddress": "0xbf4a322f1496e5c3d34a9bcdb4c60567b38c7de2",
      "function": "sell(uint256)",
      "arguments": [
        "976427458660581420774"
      ],
      "transaction": {
        "from": "0xc77f7fed3b5cc8249adc428c5f44c9063b9734b4",
        "to": "0xbf4a322f1496e5c3d34a9bcdb4c60567b38c7de2",
        "gas": "0x16fea",
        "value": "0x0",
        "input": "0xe4849b32000000000000000000000000000000000000000000000034eea73051415eaee6",
        "nonce": "0xd23",
        "chainId": "0xaa36a7"
      },
      "additionalContracts": [],
      "isFixedGasLimit": false
    }
  ],
  "receipts": [
    {
      "status": "0x1",
      "cumulativeGasUsed": "0x8184ec",
      "logs": [
        {
          "address": "0xbf4a322f1496e5c3d34a9bcdb4c60567b38c7de2",
          "topics": [
            "0xddf252ad1be2c89b69c2b068fc378daa952ba7f163c4a11628f55a4df523b3ef",
            "0x000000000000000000000000c77f7fed3b5cc8249adc428c5f44c9063b9734b4",
            "0x0000000000000000000000000000000000000000000000000000000000000000"
          ],
          "data": "0x000000000000000000000000000000000000000000000034eea73051415eaee6",
          "blockHash": "0x943af48d72bff476f802980f61e17967012a8e44277f1ee6f7f315fae278ea9a",
          "blockNumber": "0x725d84",
          "transactionHash": "0x6e565478321e48ce23806c535f33636a04c70187256675c63560f79bdaef51a7",
          "transactionIndex": "0x58",
          "logIndex": "0x7a",
          "removed": false
        },
        {
          "address": "0xbf4a322f1496e5c3d34a9bcdb4c60567b38c7de2",
          "topics": [
            "0x4afcb4a87cdbd9974efdb92ee48bc8d7cd0ae4bf217004db3d080cbaee652ca7"
          ],
          "data": "0x00000000000000000000000000000000000000000000000000000000678754a400000000000000000000000000000000000000000000000000039cf5928a6a710000000000000000000000000000000000000000000000000dc7e3d9c28fb725",
          "blockHash": "0x943af48d72bff476f802980f61e17967012a8e44277f1ee6f7f315fae278ea9a",
          "blockNumber": "0x725d84",
          "transactionHash": "0x6e565478321e48ce23806c535f33636a04c70187256675c63560f79bdaef51a7",
          "transactionIndex": "0x58",
          "logIndex": "0x7b",
          "removed": false
        }
      ],
      "logsBloom": "0x00000000000000000000000000000000000000000000000000000000000000000000000000000000000000000000000000000000000000004000000000000000000000000000000000000008000000000000001000000000000000000000000000000000020000000000000000000800020000000000000000000010000000000000000000000000000000000000000000000000000008000000010000000000000000000000000000000000000000004000000000000000000000000000000000000002000000800000000000001000000000000000080000000000000020000000000000000000000000000000000000000000000000000000000000000000",
      "type": "0x2",
      "transactionHash": "0x6e565478321e48ce23806c535f33636a04c70187256675c63560f79bdaef51a7",
      "transactionIndex": "0x58",
      "blockHash": "0x943af48d72bff476f802980f61e17967012a8e44277f1ee6f7f315fae278ea9a",
      "blockNumber": "0x725d84",
      "gasUsed": "0xfb91",
      "effectiveGasPrice": "0x240b40ae8",
      "from": "0xc77f7fed3b5cc8249adc428c5f44c9063b9734b4",
      "to": "0xbf4a322f1496e5c3d34a9bcdb4c60567b38c7de2",
      "contractAddress": null
    }
  ],
  "libraries": [],
  "pending": [],
  "returns": {},
  "timestamp": 1736922276,
  "chain": 11155111,
  "commit": "51a374b"
}