{
  "transactions": [
    {
      "hash": "0xb038817c37a46823b1eb8edc64f24169ec99baa8678a31adeda9f3e21aa628f6",
      "transactionType": "CALL",
      "contractName": null,
      "contractAddress": "0xbf4a322f1496e5c3d34a9bcdb4c60567b38c7de2",
      "function": "buy(address)",
      "arguments": [
        "0xC77f7fed3b5Cc8249aDc428c5F44C9063B9734b4"
      ],
      "transaction": {
        "from": "0xc77f7fed3b5cc8249adc428c5f44c9063b9734b4",
        "to": "0xbf4a322f1496e5c3d34a9bcdb4c60567b38c7de2",
        "gas": "0x1b309",
        "value": "0xde0b6b3a7640000",
        "input": "0xf088d547000000000000000000000000c77f7fed3b5cc8249adc428c5f44c9063b9734b4",
        "nonce": "0xe04",
        "chainId": "0xaa36a7"
      },
      "additionalContracts": [],
      "isFixedGasLimit": false
    }
  ],
  "receipts": [
    {
      "status": "0x1",
      "cumulativeGasUsed": "0xd64717",
      "logs": [
        {
          "address": "0xbf4a322f1496e5c3d34a9bcdb4c60567b38c7de2",
          "topics": [
            "0xddf252ad1be2c89b69c2b068fc378daa952ba7f163c4a11628f55a4df523b3ef",
            "0x0000000000000000000000000000000000000000000000000000000000000000",
            "0x000000000000000000000000c77f7fed3b5cc8249adc428c5f44c9063b9734b4"
          ],
          "data": "0x0000000000000000000000000000000000000000000000349c1fb6d38b8e9b9f",
          "blockHash": "0x1b363f05f782ac47551bb2a4b7b16352c999ff3724f063f1fe7c6e15fd8c5830",
          "blockNumber": "0x7266eb",
          "transactionHash": "0xb038817c37a46823b1eb8edc64f24169ec99baa8678a31adeda9f3e21aa628f6",
          "transactionIndex": "0x6c",
          "logIndex": "0xbd",
          "removed": false
        },
        {
          "address": "0xbf4a322f1496e5c3d34a9bcdb4c60567b38c7de2",
          "topics": [
            "0xddf252ad1be2c89b69c2b068fc378daa952ba7f163c4a11628f55a4df523b3ef",
            "0x0000000000000000000000000000000000000000000000000000000000000000",
            "0x000000000000000000000000c77f7fed3b5cc8249adc428c5f44c9063b9734b4"
          ],
          "data": "0x00000000000000000000000000000000000000000000000028da7524b631c607",
          "blockHash": "0x1b363f05f782ac47551bb2a4b7b16352c999ff3724f063f1fe7c6e15fd8c5830",
          "blockNumber": "0x7266eb",
          "transactionHash": "0xb038817c37a46823b1eb8edc64f24169ec99baa8678a31adeda9f3e21aa628f6",
          "transactionIndex": "0x6c",
          "logIndex": "0xbe",
          "removed": false
        },
        {
          "address": "0xbf4a322f1496e5c3d34a9bcdb4c60567b38c7de2",
          "topics": [
            "0x4afcb4a87cdbd9974efdb92ee48bc8d7cd0ae4bf217004db3d080cbaee652ca7"
          ],
          "data": "0x000000000000000000000000000000000000000000000000000000006787c65000000000000000000000000000000000000000000000000000039fcbec7011bb0000000000000000000000000000000000000000000000000de0b6b3a7640000",
          "blockHash": "0x1b363f05f782ac47551bb2a4b7b16352c999ff3724f063f1fe7c6e15fd8c5830",
          "blockNumber": "0x7266eb",
          "transactionHash": "0xb038817c37a46823b1eb8edc64f24169ec99baa8678a31adeda9f3e21aa628f6",
          "transactionIndex": "0x6c",
          "logIndex": "0xbf",
          "removed": false
        }
      ],
      "logsBloom": "0x00000000000000000000000000000000000000000000000000000000000000000000000000000000000000000000000000000000000000004000000000000000000000000000000000000008000000000000001000000000000000000000000000000000020000000000000000000800020000000000000000000010000000000000000000000000000000000000000000000000000008000000010000000000000000000000000000000000000000004000000000000000000000000000000000000002000000800000000000001000000000000000080000000000000020000000000000000000000000000000000000000000000000000000000000000000",
      "type": "0x2",
      "transactionHash": "0xb038817c37a46823b1eb8edc64f24169ec99baa8678a31adeda9f3e21aa628f6",
      "transactionIndex": "0x6c",
      "blockHash": "0x1b363f05f782ac47551bb2a4b7b16352c999ff3724f063f1fe7c6e15fd8c5830",
      "blockNumber": "0x7266eb",
      "gasUsed": "0x13af6",
      "effectiveGasPrice": "0x3735d83f2",
      "from": "0xc77f7fed3b5cc8249adc428c5f44c9063b9734b4",
      "to": "0xbf4a322f1496e5c3d34a9bcdb4c60567b38c7de2",
      "contractAddress": null
    }
  ],
  "libraries": [],
  "pending": [],
  "returns": {},
  "timestamp": 1736951377,
  "chain": 11155111,
  "commit": "51a374b"
}