{
  "transactions": [
    {
      "hash": "0x0494a811619b1dcbf08a6ace9ad410f0aeed8a0bb096b92b04884906f2efe57a",
      "transactionType": "CALL",
      "contractName": null,
      "contractAddress": "0x8aafd3ede9adb0ff97c7aebce82a919afb1c8764",
      "function": "sell(uint256)",
      "arguments": [
        "1158344838060"
      ],
      "transaction": {
        "from": "0xc77f7fed3b5cc8249adc428c5f44c9063b9734b4",
        "to": "0x8aafd3ede9adb0ff97c7aebce82a919afb1c8764",
        "gas": "0x15daa",
        "value": "0x0",
        "input": "0xe4849b320000000000000000000000000000000000000000000000000000010db2bb8bac",
        "nonce": "0x1377",
        "chainId": "0xaa36a7"
      },
      "additionalContracts": [],
      "isFixedGasLimit": false
    }
  ],
  "receipts": [
    {
      "status": "0x1",
      "cumulativeGasUsed": "0xe9d881",
      "logs": [
        {
          "address": "0x8aafd3ede9adb0ff97c7aebce82a919afb1c8764",
          "topics": [
            "0xddf252ad1be2c89b69c2b068fc378daa952ba7f163c4a11628f55a4df523b3ef",
            "0x000000000000000000000000c77f7fed3b5cc8249adc428c5f44c9063b9734b4",
            "0x0000000000000000000000000000000000000000000000000000000000000000"
          ],
          "data": "0x0000000000000000000000000000000000000000000000000000010b8a64077c",
          "blockHash": "0x16d443c5ca78be431c55a97a6bd408856564e3c6a7a3c1c162886ce63c95414a",
          "blockNumber": "0x731a9a",
          "transactionHash": "0x0494a811619b1dcbf08a6ace9ad410f0aeed8a0bb096b92b04884906f2efe57a",
          "transactionIndex": "0x8f",
          "logIndex": "0x9f",
          "removed": false
        },
        {
          "address": "0x8aafd3ede9adb0ff97c7aebce82a919afb1c8764",
          "topics": [
            "0xddf252ad1be2c89b69c2b068fc378daa952ba7f163c4a11628f55a4df523b3ef",
            "0x000000000000000000000000c77f7fed3b5cc8249adc428c5f44c9063b9734b4",
            "0x000000000000000000000000c77f7fed3b5cc8249adc428c5f44c9063b9734b4"
          ],
          "data": "0x0000000000000000000000000000000000000000000000000000000228578430",
          "blockHash": "0x16d443c5ca78be431c55a97a6bd408856564e3c6a7a3c1c162886ce63c95414a",
          "blockNumber": "0x731a9a",
          "transactionHash": "0x0494a811619b1dcbf08a6ace9ad410f0aeed8a0bb096b92b04884906f2efe57a",
          "transactionIndex": "0x8f",
          "logIndex": "0xa0",
          "removed": false
        },
        {
          "address": "0x8aafd3ede9adb0ff97c7aebce82a919afb1c8764",
          "topics": [
            "0x4afcb4a87cdbd9974efdb92ee48bc8d7cd0ae4bf217004db3d080cbaee652ca7"
          ],
          "data": "0x0000000000000000000000000000000000000000000000000000000067903c08000000000000000000000000000000000000000000000000000c939e5125702400000000000000000000000000000000000000000000000000000000f4696cf0",
          "blockHash": "0x16d443c5ca78be431c55a97a6bd408856564e3c6a7a3c1c162886ce63c95414a",
          "blockNumber": "0x731a9a",
          "transactionHash": "0x0494a811619b1dcbf08a6ace9ad410f0aeed8a0bb096b92b04884906f2efe57a",
          "transactionIndex": "0x8f",
          "logIndex": "0xa1",
          "removed": false
        }
      ],
      "logsBloom": "0x00000000000000000000000000000000000000000600000000000000000000000000000000000000000000000000000000000000000000004000000000000000000000000000004000000008000000000000000000000000000000000000000000000000020000000000000000000800020000000000000000000010000000000000000000000000000000000000000000000000000000000000010000000000000000000000000000000000000000004000000000000000000000000000000000000002000000800000000000000000000000000000080000000000000020000000000000000000000000000000000000000000000000000000000000000000",
      "type": "0x2",
      "transactionHash": "0x0494a811619b1dcbf08a6ace9ad410f0aeed8a0bb096b92b04884906f2efe57a",
      "transactionIndex": "0x8f",
      "blockHash": "0x16d443c5ca78be431c55a97a6bd408856564e3c6a7a3c1c162886ce63c95414a",
      "blockNumber": "0x731a9a",
      "gasUsed": "0xfd27",
      "effectiveGasPrice": "0x7b10b482",
      "from": "0xc77f7fed3b5cc8249adc428c5f44c9063b9734b4",
      "to": "0x8aafd3ede9adb0ff97c7aebce82a919afb1c8764",
      "contractAddress": null
    }
  ],
  "libraries": [],
  "pending": [],
  "returns": {},
  "timestamp": 1737505801,
  "chain": 11155111,
  "commit": "1d2fb70"
}