{
  "transactions": [
    {
      "hash": "0xba230c8f5bc6b2931fa72e613c5d06295c13dfcfe211845d32f1efda67c25a84",
      "transactionType": "CALL",
      "contractName": null,
      "contractAddress": "0x5eb9cc76c3506942c1c0ead70e877dd5e4f00cb0",
      "function": "buy(address)",
      "arguments": [
        "0xC77f7fed3b5Cc8249aDc428c5F44C9063B9734b4"
      ],
      "transaction": {
        "from": "0xc77f7fed3b5cc8249adc428c5f44c9063b9734b4",
        "to": "0x5eb9cc76c3506942c1c0ead70e877dd5e4f00cb0",
        "gas": "0x156c8",
        "value": "0xde0b6b3a7640000",
        "input": "0xf088d547000000000000000000000000c77f7fed3b5cc8249adc428c5f44c9063b9734b4",
        "nonce": "0x16f",
        "chainId": "0xaa36a7"
      },
      "additionalContracts": [],
      "isFixedGasLimit": false
    }
  ],
  "receipts": [
    {
      "status": "0x1",
      "cumulativeGasUsed": "0x1bf986d",
      "logs": [
        {
          "address": "0x5eb9cc76c3506942c1c0ead70e877dd5e4f00cb0",
          "topics": [
            "0xddf252ad1be2c89b69c2b068fc378daa952ba7f163c4a11628f55a4df523b3ef",
            "0x0000000000000000000000000000000000000000000000000000000000000000",
            "0x000000000000000000000000c77f7fed3b5cc8249adc428c5f44c9063b9734b4"
          ],
          "data": "0x000000000000000000000000000000000000000000000035a6d62f2b3c9e6beb",
          "blockHash": "0xfe33e39532ae693a4212642efdfb49c9d29c83ca7fd975522e9fd8194b3bda2d",
          "blockNumber": "0x723c2c",
          "transactionHash": "0xba230c8f5bc6b2931fa72e613c5d06295c13dfcfe211845d32f1efda67c25a84",
          "transactionIndex": "0xd4",
          "logIndex": "0x1db",
          "removed": false
        },
        {
          "address": "0x5eb9cc76c3506942c1c0ead70e877dd5e4f00cb0",
          "topics": [
            "0xddf252ad1be2c89b69c2b068fc378daa952ba7f163c4a11628f55a4df523b3ef",
            "0x0000000000000000000000000000000000000000000000000000000000000000",
            "0x000000000000000000000000c77f7fed3b5cc8249adc428c5f44c9063b9734b4"
          ],
          "data": "0x00000000000000000000000000000000000000000000000029a991b4536da74a",
          "blockHash": "0xfe33e39532ae693a4212642efdfb49c9d29c83ca7fd975522e9fd8194b3bda2d",
          "blockNumber": "0x723c2c",
          "transactionHash": "0xba230c8f5bc6b2931fa72e613c5d06295c13dfcfe211845d32f1efda67c25a84",
          "transactionIndex": "0xd4",
          "logIndex": "0x1dc",
          "removed": false
        },
        {
          "address": "0x5eb9cc76c3506942c1c0ead70e877dd5e4f00cb0",
          "topics": [
            "0x4afcb4a87cdbd9974efdb92ee48bc8d7cd0ae4bf217004db3d080cbaee652ca7"
          ],
          "data": "0x000000000000000000000000000000000000000000000000000000006785c36400000000000000000000000000000000000000000000000000038dc56a1e1e880000000000000000000000000000000000000000000000000de0b6b3a7640000",
          "blockHash": "0xfe33e39532ae693a4212642efdfb49c9d29c83ca7fd975522e9fd8194b3bda2d",
          "blockNumber": "0x723c2c",
          "transactionHash": "0xba230c8f5bc6b2931fa72e613c5d06295c13dfcfe211845d32f1efda67c25a84",
          "transactionIndex": "0xd4",
          "logIndex": "0x1dd",
          "removed": false
        }
      ],
      "logsBloom": "0x00000000000000000000000000000000000000000000000000000000000000000000000000000000000000000000000000000000000000004000000000000000000000000000000000000008000000000000000000000000000000000000000000000000020000000000000004000800020000000000000000000010000000000000000000000000000000000000000000000000000000000000010000000000000000000000000000000000000000004000000000000000000000000000020000000002000000800000008000000000000000000000080000000000000020000000000000000000000000000000000000000000000000000000000000000000",
      "type": "0x2",
      "transactionHash": "0xba230c8f5bc6b2931fa72e613c5d06295c13dfcfe211845d32f1efda67c25a84",
      "transactionIndex": "0xd4",
      "blockHash": "0xfe33e39532ae693a4212642efdfb49c9d29c83ca7fd975522e9fd8194b3bda2d",
      "blockNumber": "0x723c2c",
      "gasUsed": "0xf82c",
      "effectiveGasPrice": "0x1d2db1f98",
      "from": "0xc77f7fed3b5cc8249adc428c5f44c9063b9734b4",
      "to": "0x5eb9cc76c3506942c1c0ead70e877dd5e4f00cb0",
      "contractAddress": null
    }
  ],
  "libraries": [],
  "pending": [],
  "returns": {},
  "timestamp": 1736819558,
  "chain": 11155111,
  "commit": "51a374b"
}