{
  "transactions": [
    {
      "hash": "0xf3d4c56f1f8969bf268c49c398580c251e67b5b770579cfc657cfb8dbdb23b6f",
      "transactionType": "CALL",
      "contractName": null,
      "contractAddress": "0x270e88f8683660553e8ba4eb2ad7c91a1710d769",
      "function": "buy(address)",
      "arguments": [
        "0xC77f7fed3b5Cc8249aDc428c5F44C9063B9734b4"
      ],
      "transaction": {
        "from": "0xc77f7fed3b5cc8249adc428c5f44c9063b9734b4",
        "to": "0x270e88f8683660553e8ba4eb2ad7c91a1710d769",
        "gas": "0x1b30c",
        "value": "0xde0b6b3a7640000",
        "input": "0xf088d547000000000000000000000000c77f7fed3b5cc8249adc428c5f44c9063b9734b4",
        "nonce": "0x87f",
        "chainId": "0xaa36a7"
      },
      "additionalContracts": [],
      "isFixedGasLimit": false
    }
  ],
  "receipts": [
    {
      "status": "0x1",
      "cumulativeGasUsed": "0x17b788b",
      "logs": [
        {
          "address": "0x270e88f8683660553e8ba4eb2ad7c91a1710d769",
          "topics": [
            "0xddf252ad1be2c89b69c2b068fc378daa952ba7f163c4a11628f55a4df523b3ef",
            "0x0000000000000000000000000000000000000000000000000000000000000000",
            "0x000000000000000000000000c77f7fed3b5cc8249adc428c5f44c9063b9734b4"
          ],
          "data": "0x0000000000000000000000000000000000000000000000267e6002cb7eda89ba",
          "blockHash": "0xdb8b77a11ae545e339b13e930e18e28e58f8deb57b371643e5a8099dc2df1732",
          "blockNumber": "0x7255da",
          "transactionHash": "0xf3d4c56f1f8969bf268c49c398580c251e67b5b770579cfc657cfb8dbdb23b6f",
          "transactionIndex": "0x39",
          "logIndex": "0x17f",
          "removed": false
        },
        {
          "address": "0x270e88f8683660553e8ba4eb2ad7c91a1710d769",
          "topics": [
            "0xddf252ad1be2c89b69c2b068fc378daa952ba7f163c4a11628f55a4df523b3ef",
            "0x0000000000000000000000000000000000000000000000000000000000000000",
            "0x000000000000000000000000c77f7fed3b5cc8249adc428c5f44c9063b9734b4"
          ],
          "data": "0x0000000000000000000000000000000000000000000000001de442235c020f87",
          "blockHash": "0xdb8b77a11ae545e339b13e930e18e28e58f8deb57b371643e5a8099dc2df1732",
          "blockNumber": "0x7255da",
          "transactionHash": "0xf3d4c56f1f8969bf268c49c398580c251e67b5b770579cfc657cfb8dbdb23b6f",
          "transactionIndex": "0x39",
          "logIndex": "0x180",
          "removed": false
        },
        {
          "address": "0x270e88f8683660553e8ba4eb2ad7c91a1710d769",
          "topics": [
            "0x4afcb4a87cdbd9974efdb92ee48bc8d7cd0ae4bf217004db3d080cbaee652ca7"
          ],
          "data": "0x000000000000000000000000000000000000000000000000000000006786f8400000000000000000000000000000000000000000000000000004f42044851b230000000000000000000000000000000000000000000000000de0b6b3a7640000",
          "blockHash": "0xdb8b77a11ae545e339b13e930e18e28e58f8deb57b371643e5a8099dc2df1732",
          "blockNumber": "0x7255da",
          "transactionHash": "0xf3d4c56f1f8969bf268c49c398580c251e67b5b770579cfc657cfb8dbdb23b6f",
          "transactionIndex": "0x39",
          "logIndex": "0x181",
          "removed": false
        }
      ],
      "logsBloom": "0x00000000000000000000000000000000000000000000000000000000000000000000000000000000000000000000000020000000000000004000000000000000000000000000000000000008000000000000000000000000000000000000000000000000020000000000000000000800020000000000000000000010000000000000000000010000000000000000000000000000000000000000010000000000000000000000000000000000000000004000000000000000000000000000000000000002000000800000000000000000000000000000080000008000000020000000000000000000000000000000000000000000000000000000000000000000",
      "type": "0x2",
      "transactionHash": "0xf3d4c56f1f8969bf268c49c398580c251e67b5b770579cfc657cfb8dbdb23b6f",
      "transactionIndex": "0x39",
      "blockHash": "0xdb8b77a11ae545e339b13e930e18e28e58f8deb57b371643e5a8099dc2df1732",
      "blockNumber": "0x7255da",
      "gasUsed": "0x13af8",
      "effectiveGasPrice": "0xb588bed7",
      "from": "0xc77f7fed3b5cc8249adc428c5f44c9063b9734b4",
      "to": "0x270e88f8683660553e8ba4eb2ad7c91a1710d769",
      "contractAddress": null
    }
  ],
  "libraries": [],
  "pending": [],
  "returns": {},
  "timestamp": 1736898625,
  "chain": 11155111,
  "commit": "51a374b"
}