{
  "transactions": [
    {
      "hash": "0x6c61ecd968ee1aabaf2ebc00ced6fd91053a285ee75b296b6e9bf1c6df132ba1",
      "transactionType": "CALL",
      "contractName": null,
      "contractAddress": "0x8aafd3ede9adb0ff97c7aebce82a919afb1c8764",
      "function": "sell(uint256)",
      "arguments": [
        "1449471"
      ],
      "transaction": {
        "from": "0xc77f7fed3b5cc8249adc428c5f44c9063b9734b4",
        "to": "0x8aafd3ede9adb0ff97c7aebce82a919afb1c8764",
        "gas": "0x16208",
        "value": "0x0",
        "input": "0xe4849b320000000000000000000000000000000000000000000000000000000000161dff",
        "nonce": "0x1174",
        "chainId": "0xaa36a7"
      },
      "additionalContracts": [],
      "isFixedGasLimit": false
    }
  ],
  "receipts": [
    {
      "status": "0x1",
      "cumulativeGasUsed": "0x1116f96",
      "logs": [
        {
          "address": "0x8aafd3ede9adb0ff97c7aebce82a919afb1c8764",
          "topics": [
            "0xddf252ad1be2c89b69c2b068fc378daa952ba7f163c4a11628f55a4df523b3ef",
            "0x000000000000000000000000c77f7fed3b5cc8249adc428c5f44c9063b9734b4",
            "0x0000000000000000000000000000000000000000000000000000000000000000"
          ],
          "data": "0x000000000000000000000000000000000000000000000000000000000015f0b4",
          "blockHash": "0x3b18a3d0a6e6aa1743238577f474e53327a99d62d91c1c685741a32b9c044e87",
          "blockNumber": "0x731834",
          "transactionHash": "0x6c61ecd968ee1aabaf2ebc00ced6fd91053a285ee75b296b6e9bf1c6df132ba1",
          "transactionIndex": "0xa5",
          "logIndex": "0x10f",
          "removed": false
        },
        {
          "address": "0x8aafd3ede9adb0ff97c7aebce82a919afb1c8764",
          "topics": [
            "0xddf252ad1be2c89b69c2b068fc378daa952ba7f163c4a11628f55a4df523b3ef",
            "0x000000000000000000000000c77f7fed3b5cc8249adc428c5f44c9063b9734b4",
            "0x000000000000000000000000c77f7fed3b5cc8249adc428c5f44c9063b9734b4"
          ],
          "data": "0x0000000000000000000000000000000000000000000000000000000000002d4b",
          "blockHash": "0x3b18a3d0a6e6aa1743238577f474e53327a99d62d91c1c685741a32b9c044e87",
          "blockNumber": "0x731834",
          "transactionHash": "0x6c61ecd968ee1aabaf2ebc00ced6fd91053a285ee75b296b6e9bf1c6df132ba1",
          "transactionIndex": "0xa5",
          "logIndex": "0x110",
          "removed": false
        },
        {
          "address": "0x8aafd3ede9adb0ff97c7aebce82a919afb1c8764",
          "topics": [
            "0x4afcb4a87cdbd9974efdb92ee48bc8d7cd0ae4bf217004db3d080cbaee652ca7"
          ],
          "data": "0x0000000000000000000000000000000000000000000000000000000067901f3400000000000000000000000000000000000000000000000000051c236251e4e20000000000000000000000000000000000000000000000000000000000000824",
          "blockHash": "0x3b18a3d0a6e6aa1743238577f474e53327a99d62d91c1c685741a32b9c044e87",
          "blockNumber": "0x731834",
          "transactionHash": "0x6c61ecd968ee1aabaf2ebc00ced6fd91053a285ee75b296b6e9bf1c6df132ba1",
          "transactionIndex": "0xa5",
          "logIndex": "0x111",
          "removed": false
        }
      ],
      "logsBloom": "0x00000000000000000000000000000000000000000600000000000000000000000000000000000000000000000000000000000000000000004000000000000000000000000000004000000008000000000000000000000000000000000000000000000000020000000000000000000800020000000000000000000010000000000000000000000000000000000000000000000000000000000000010000000000000000000000000000000000000000004000000000000000000000000000000000000002000000800000000000000000000000000000080000000000000020000000000000000000000000000000000000000000000000000000000000000000",
      "type": "0x2",
      "transactionHash": "0x6c61ecd968ee1aabaf2ebc00ced6fd91053a285ee75b296b6e9bf1c6df132ba1",
      "transactionIndex": "0xa5",
      "blockHash": "0x3b18a3d0a6e6aa1743238577f474e53327a99d62d91c1c685741a32b9c044e87",
      "blockNumber": "0x731834",
      "gasUsed": "0xf213",
      "effectiveGasPrice": "0x3c2e7463",
      "from": "0xc77f7fed3b5cc8249adc428c5f44c9063b9734b4",
      "to": "0x8aafd3ede9adb0ff97c7aebce82a919afb1c8764",
      "contractAddress": null
    }
  ],
  "libraries": [],
  "pending": [],
  "returns": {},
  "timestamp": 1737498421,
  "chain": 11155111,
  "commit": "1d2fb70"
}