{
  "transactions": [
    {
      "hash": "0x7d1192578ae2c3312a6ef0f873cd3daf231bf73567d38ef5424b5c59e5666f59",
      "transactionType": "CALL",
      "contractName": null,
      "contractAddress": "0x5eb9cc76c3506942c1c0ead70e877dd5e4f00cb0",
      "function": "sell(uint256)",
      "arguments": [
        "989612230960353317867"
      ],
      "transaction": {
        "from": "0xc77f7fed3b5cc8249adc428c5f44c9063b9734b4",
        "to": "0x5eb9cc76c3506942c1c0ead70e877dd5e4f00cb0",
        "gas": "0x16fec",
        "value": "0x0",
        "input": "0xe4849b32000000000000000000000000000000000000000000000035a5a0e8de3daf13eb",
        "nonce": "0x263",
        "chainId": "0xaa36a7"
      },
      "additionalContracts": [],
      "isFixedGasLimit": false
    }
  ],
  "receipts": [
    {
      "status": "0x1",
      "cumulativeGasUsed": "0xa984bb",
      "logs": [
        {
          "address": "0x5eb9cc76c3506942c1c0ead70e877dd5e4f00cb0",
          "topics": [
            "0xddf252ad1be2c89b69c2b068fc378daa952ba7f163c4a11628f55a4df523b3ef",
            "0x000000000000000000000000c77f7fed3b5cc8249adc428c5f44c9063b9734b4",
            "0x0000000000000000000000000000000000000000000000000000000000000000"
          ],
          "data": "0x000000000000000000000000000000000000000000000035a5a0e8de3daf13eb",
          "blockHash": "0xb71c62b7bf149eb5e18b3c4bb29560b9f18088de9a137ec8ac26f18b765f0a7a",
          "blockNumber": "0x724e23",
          "transactionHash": "0x7d1192578ae2c3312a6ef0f873cd3daf231bf73567d38ef5424b5c59e5666f59",
          "transactionIndex": "0x48",
          "logIndex": "0x7a",
          "removed": false
        },
        {
          "address": "0x5eb9cc76c3506942c1c0ead70e877dd5e4f00cb0",
          "topics": [
            "0x4afcb4a87cdbd9974efdb92ee48bc8d7cd0ae4bf217004db3d080cbaee652ca7"
          ],
          "data": "0x0000000000000000000000000000000000000000000000000000000067869b580000000000000000000000000000000000000000000000000003909c7a1198b90000000000000000000000000000000000000000000000000dc7db1183762f93",
          "blockHash": "0xb71c62b7bf149eb5e18b3c4bb29560b9f18088de9a137ec8ac26f18b765f0a7a",
          "blockNumber": "0x724e23",
          "transactionHash": "0x7d1192578ae2c3312a6ef0f873cd3daf231bf73567d38ef5424b5c59e5666f59",
          "transactionIndex": "0x48",
          "logIndex": "0x7b",
          "removed": false
        }
      ],
      "logsBloom": "0x00000000000000000000000000000000000000000000000000000000000000000000000000000000000000000000000000000000000000004000000000000000000000000000000000000008000000000000000000000000000000000000000000000000020000000000000004000800020000000000000000000010000000000000000000000000000000000000000000000000000000000000010000000000000000000000000000000000000000004000000000000000000000000000020000000002000000800000008000000000000000000000080000000000000020000000000000000000000000000000000000000000000000000000000000000000",
      "type": "0x2",
      "transactionHash": "0x7d1192578ae2c3312a6ef0f873cd3daf231bf73567d38ef5424b5c59e5666f59",
      "transactionIndex": "0x48",
      "blockHash": "0xb71c62b7bf149eb5e18b3c4bb29560b9f18088de9a137ec8ac26f18b765f0a7a",
      "blockNumber": "0x724e23",
      "gasUsed": "0xfb93",
      "effectiveGasPrice": "0x391fbefb7",
      "from": "0xc77f7fed3b5cc8249adc428c5f44c9063b9734b4",
      "to": "0x5eb9cc76c3506942c1c0ead70e877dd5e4f00cb0",
      "contractAddress": null
    }
  ],
  "libraries": [],
  "pending": [],
  "returns": {},
  "timestamp": 1736874841,
  "chain": 11155111,
  "commit": "51a374b"
}