{
  "transactions": [
    {
      "hash": "0x06b0efb0ccd7b7360055ea480d9701ed06a8879baa0d5a8f415ee1c0fecf6e99",
      "transactionType": "CALL",
      "contractName": null,
      "contractAddress": "0xbf4a322f1496e5c3d34a9bcdb4c60567b38c7de2",
      "function": "sell(uint256)",
      "arguments": [
        "982759470808503727671"
      ],
      "transaction": {
        "from": "0xc77f7fed3b5cc8249adc428c5f44c9063b9734b4",
        "to": "0xbf4a322f1496e5c3d34a9bcdb4c60567b38c7de2",
        "gas": "0x16fea",
        "value": "0x0",
        "input": "0xe4849b32000000000000000000000000000000000000000000000035468703d147bcb637",
        "nonce": "0xb4b",
        "chainId": "0xaa36a7"
      },
      "additionalContracts": [],
      "isFixedGasLimit": false
    }
  ],
  "receipts": [
    {
      "status": "0x1",
      "cumulativeGasUsed": "0xc0bbdb",
      "logs": [
        {
          "address": "0xbf4a322f1496e5c3d34a9bcdb4c60567b38c7de2",
          "topics": [
            "0xddf252ad1be2c89b69c2b068fc378daa952ba7f163c4a11628f55a4df523b3ef",
            "0x000000000000000000000000c77f7fed3b5cc8249adc428c5f44c9063b9734b4",
            "0x0000000000000000000000000000000000000000000000000000000000000000"
          ],
          "data": "0x000000000000000000000000000000000000000000000035468703d147bcb637",
          "blockHash": "0x42db9691d57db0c9d8d40ec3d4facd43778d770256ccf03ef0cb41aa69974bce",
          "blockNumber": "0x725b51",
          "transactionHash": "0x06b0efb0ccd7b7360055ea480d9701ed06a8879baa0d5a8f415ee1c0fecf6e99",
          "transactionIndex": "0x4e",
          "logIndex": "0x71",
          "removed": false
        },
        {
          "address": "0xbf4a322f1496e5c3d34a9bcdb4c60567b38c7de2",
          "topics": [
            "0x4afcb4a87cdbd9974efdb92ee48bc8d7cd0ae4bf217004db3d080cbaee652ca7"
          ],
          "data": "0x0000000000000000000000000000000000000000000000000000000067873a28000000000000000000000000000000000000000000000000000396fff4daac030000000000000000000000000000000000000000000000000dc7e3e87b6e4f61",
          "blockHash": "0x42db9691d57db0c9d8d40ec3d4facd43778d770256ccf03ef0cb41aa69974bce",
          "blockNumber": "0x725b51",
          "transactionHash": "0x06b0efb0ccd7b7360055ea480d9701ed06a8879baa0d5a8f415ee1c0fecf6e99",
          "transactionIndex": "0x4e",
          "logIndex": "0x72",
          "removed": false
        }
      ],
      "logsBloom": "0x00000000000000000000000000000000000000000000000000000000000000000000000000000000000000000000000000000000000000004000000000000000000000000000000000000008000000000000001000000000000000000000000000000000020000000000000000000800020000000000000000000010000000000000000000000000000000000000000000000000000008000000010000000000000000000000000000000000000000004000000000000000000000000000000000000002000000800000000000001000000000000000080000000000000020000000000000000000000000000000000000000000000000000000000000000000",
      "type": "0x2",
      "transactionHash": "0x06b0efb0ccd7b7360055ea480d9701ed06a8879baa0d5a8f415ee1c0fecf6e99",
      "transactionIndex": "0x4e",
      "blockHash": "0x42db9691d57db0c9d8d40ec3d4facd43778d770256ccf03ef0cb41aa69974bce",
      "blockNumber": "0x725b51",
      "gasUsed": "0xfb91",
      "effectiveGasPrice": "0x4a0cc100",
      "from": "0xc77f7fed3b5cc8249adc428c5f44c9063b9734b4",
      "to": "0xbf4a322f1496e5c3d34a9bcdb4c60567b38c7de2",
      "contractAddress": null
    }
  ],
  "libraries": [],
  "pending": [],
  "returns": {},
  "timestamp": 1736915498,
  "chain": 11155111,
  "commit": "51a374b"
}