{
  "transactions": [
    {
      "hash": "0x1ee9f84a187cc42c9d7f6902bea860fe8bee9f7db127c9077a5edc7e5cc3e53a",
      "transactionType": "CALL",
      "contractName": null,
      "contractAddress": "0x8aafd3ede9adb0ff97c7aebce82a919afb1c8764",
      "function": "buy(address)",
      "arguments": [
        "0xC77f7fed3b5Cc8249aDc428c5F44C9063B9734b4"
      ],
      "transaction": {
        "from": "0xc77f7fed3b5cc8249adc428c5f44c9063b9734b4",
        "to": "0x8aafd3ede9adb0ff97c7aebce82a919afb1c8764",
        "gas": "0x156ea",
        "value": "0xde0b6b3a7640000",
        "input": "0xf088d547000000000000000000000000c77f7fed3b5cc8249adc428c5f44c9063b9734b4",
        "nonce": "0x15a0",
        "chainId": "0xaa36a7"
      },
      "additionalContracts": [],
      "isFixedGasLimit": false
    }
  ],
  "receipts": [
    {
      "status": "0x1",
      "cumulativeGasUsed": "0xa60dc1",
      "logs": [
        {
          "address": "0x8aafd3ede9adb0ff97c7aebce82a919afb1c8764",
          "topics": [
            "0xddf252ad1be2c89b69c2b068fc378daa952ba7f163c4a11628f55a4df523b3ef",
            "0x0000000000000000000000000000000000000000000000000000000000000000",
            "0x000000000000000000000000c77f7fed3b5cc8249adc428c5f44c9063b9734b4"
          ],
          "data": "0x00000000000000000000000000000000000000000000000a1a9fa659fd0e3535",
          "blockHash": "0x8449048af7182bbfead8c3d87bf150491f1c6734463b898bae945e77ef2e30a4",
          "blockNumber": "0x731d13",
          "transactionHash": "0x1ee9f84a187cc42c9d7f6902bea860fe8bee9f7db127c9077a5edc7e5cc3e53a",
          "transactionIndex": "0x84",
          "logIndex": "0xb1",
          "removed": false
        },
        {
          "address": "0x8aafd3ede9adb0ff97c7aebce82a919afb1c8764",
          "topics": [
            "0xddf252ad1be2c89b69c2b068fc378daa952ba7f163c4a11628f55a4df523b3ef",
            "0x0000000000000000000000000000000000000000000000000000000000000000",
            "0x000000000000000000000000c77f7fed3b5cc8249adc428c5f44c9063b9734b4"
          ],
          "data": "0x00000000000000000000000000000000000000000000000007d899fa92bd9063",
          "blockHash": "0x8449048af7182bbfead8c3d87bf150491f1c6734463b898bae945e77ef2e30a4",
          "blockNumber": "0x731d13",
          "transactionHash": "0x1ee9f84a187cc42c9d7f6902bea860fe8bee9f7db127c9077a5edc7e5cc3e53a",
          "transactionIndex": "0x84",
          "logIndex": "0xb2",
          "removed": false
        },
        {
          "address": "0x8aafd3ede9adb0ff97c7aebce82a919afb1c8764",
          "topics": [
            "0x4afcb4a87cdbd9974efdb92ee48bc8d7cd0ae4bf217004db3d080cbaee652ca7"
          ],
          "data": "0x00000000000000000000000000000000000000000000000000000000679059cc0000000000000000000000000000000000000000000000000012e579d438721d0000000000000000000000000000000000000000000000000de0b6b3a7640000",
          "blockHash": "0x8449048af7182bbfead8c3d87bf150491f1c6734463b898bae945e77ef2e30a4",
          "blockNumber": "0x731d13",
          "transactionHash": "0x1ee9f84a187cc42c9d7f6902bea860fe8bee9f7db127c9077a5edc7e5cc3e53a",
          "transactionIndex": "0x84",
          "logIndex": "0xb3",
          "removed": false
        }
      ],
      "logsBloom": "0x00000000000000000000000000000000000000000600000000000000000000000000000000000000000000000000000000000000000000004000000000000000000000000000004000000008000000000000000000000000000000000000000000000000020000000000000000000800020000000000000000000010000000000000000000000000000000000000000000000000000000000000010000000000000000000000000000000000000000004000000000000000000000000000000000000002000000800000000000000000000000000000080000000000000020000000000000000000000000000000000000000000000000000000000000000000",
      "type": "0x2",
      "transactionHash": "0x1ee9f84a187cc42c9d7f6902bea860fe8bee9f7db127c9077a5edc7e5cc3e53a",
      "transactionIndex": "0x84",
      "blockHash": "0x8449048af7182bbfead8c3d87bf150491f1c6734463b898bae945e77ef2e30a4",
      "blockNumber": "0x731d13",
      "gasUsed": "0xf844",
      "effectiveGasPrice": "0x57d7740b",
      "from": "0xc77f7fed3b5cc8249adc428c5f44c9063b9734b4",
      "to": "0x8aafd3ede9adb0ff97c7aebce82a919afb1c8764",
      "contractAddress": null
    }
  ],
  "libraries": [],
  "pending": [],
  "returns": {},
  "timestamp": 1737513422,
  "chain": 11155111,
  "commit": "1d2fb70"
}