{
  "transactions": [
    {
      "hash": "0x244ecf811dfd291a958314462e092114fc48029b574a5a794a39f8ce43677e84",
      "transactionType": "CALL",
      "contractName": null,
      "contractAddress": "0xd7bc75898e513accccf720a874d44dab5a4b6223",
      "function": "buy(address)",
      "arguments": [
        "0xC77f7fed3b5Cc8249aDc428c5F44C9063B9734b4"
      ],
      "transaction": {
        "from": "0xc77f7fed3b5cc8249adc428c5f44c9063b9734b4",
        "to": "0xd7bc75898e513accccf720a874d44dab5a4b6223",
        "gas": "0x1b30c",
        "value": "0x2386f26fc10000",
        "input": "0xf088d547000000000000000000000000c77f7fed3b5cc8249adc428c5f44c9063b9734b4",
        "nonce": "0xfa",
        "chainId": "0xaa36a7"
      },
      "additionalContracts": [],
      "isFixedGasLimit": false
    }
  ],
  "receipts": [
    {
      "status": "0x1",
      "cumulativeGasUsed": "0x21a5f83",
      "logs": [
        {
          "address": "0xd7bc75898e513accccf720a874d44dab5a4b6223",
          "topics": [
            "0xddf252ad1be2c89b69c2b068fc378daa952ba7f163c4a11628f55a4df523b3ef",
            "0x0000000000000000000000000000000000000000000000000000000000000000",
            "0x000000000000000000000000c77f7fed3b5cc8249adc428c5f44c9063b9734b4"
          ],
          "data": "0x0000000000000000000000000000000000000000000000008963ba8b2dab381e",
          "blockHash": "0xb53e746f5e4cf6511a9d7e14561cecd5510d7957672c4a1a4a37f7415448dbd7",
          "blockNumber": "0x72398c",
          "transactionHash": "0x244ecf811dfd291a958314462e092114fc48029b574a5a794a39f8ce43677e84",
          "transactionIndex": "0x1f",
          "logIndex": "0x340",
          "removed": false
        },
        {
          "address": "0xd7bc75898e513accccf720a874d44dab5a4b6223",
          "topics": [
            "0xddf252ad1be2c89b69c2b068fc378daa952ba7f163c4a11628f55a4df523b3ef",
            "0x0000000000000000000000000000000000000000000000000000000000000000",
            "0x000000000000000000000000c77f7fed3b5cc8249adc428c5f44c9063b9734b4"
          ],
          "data": "0x000000000000000000000000000000000000000000000000006ab00c0a041b61",
          "blockHash": "0xb53e746f5e4cf6511a9d7e14561cecd5510d7957672c4a1a4a37f7415448dbd7",
          "blockNumber": "0x72398c",
          "transactionHash": "0x244ecf811dfd291a958314462e092114fc48029b574a5a794a39f8ce43677e84",
          "transactionIndex": "0x1f",
          "logIndex": "0x341",
          "removed": false
        },
        {
          "address": "0xd7bc75898e513accccf720a874d44dab5a4b6223",
          "topics": [
            "0x4afcb4a87cdbd9974efdb92ee48bc8d7cd0ae4bf217004db3d080cbaee652ca7"
          ],
          "data": "0x000000000000000000000000000000000000000000000000000000006785a3e400000000000000000000000000000000000000000000000000038d7f8c907ea9000000000000000000000000000000000000000000000000002386f26fc10000",
          "blockHash": "0xb53e746f5e4cf6511a9d7e14561cecd5510d7957672c4a1a4a37f7415448dbd7",
          "blockNumber": "0x72398c",
          "transactionHash": "0x244ecf811dfd291a958314462e092114fc48029b574a5a794a39f8ce43677e84",
          "transactionIndex": "0x1f",
          "logIndex": "0x342",
          "removed": false
        }
      ],
      "logsBloom": "0x00000000000000000000000000000000000000000000000000000000000000000000000000000000000000000000000000000000000000004000000000000000000000000000000000000008000000000000000000000000000000000000000000000000020000000000000000000800020000000000000000000010000000000000000000000000000000000000000000000000000000000000010000000000000000000000000000000000000000004000001000000000000000000000000000000002000000800000000000004000000000000000080000000000000020000000000000000000000000000000000000000000080000000000000000000000",
      "type": "0x2",
      "transactionHash": "0x244ecf811dfd291a958314462e092114fc48029b574a5a794a39f8ce43677e84",
      "transactionIndex": "0x1f",
      "blockHash": "0xb53e746f5e4cf6511a9d7e14561cecd5510d7957672c4a1a4a37f7415448dbd7",
      "blockNumber": "0x72398c",
      "gasUsed": "0x13af8",
      "effectiveGasPrice": "0x11ffe68c2",
      "from": "0xc77f7fed3b5cc8249adc428c5f44c9063b9734b4",
      "to": "0xd7bc75898e513accccf720a874d44dab5a4b6223",
      "contractAddress": null
    }
  ],
  "libraries": [],
  "pending": [],
  "returns": {},
  "timestamp": 1736811493,
  "chain": 11155111,
  "commit": "51a374b"
}