{
  "transactions": [
    {
      "hash": "0x4d3f9b3cc936fee15ef4d6a658d777c2f7b8599e50c14f0ab287e07678cf371d",
      "transactionType": "CALL",
      "contractName": null,
      "contractAddress": "0x270e88f8683660553e8ba4eb2ad7c91a1710d769",
      "function": "sell(uint256)",
      "arguments": [
        "758684751071766008141"
      ],
      "transaction": {
        "from": "0xc77f7fed3b5cc8249adc428c5f44c9063b9734b4",
        "to": "0x270e88f8683660553e8ba4eb2ad7c91a1710d769",
        "gas": "0x16fec",
        "value": "0x0",
        "input": "0xe4849b3200000000000000000000000000000000000000000000002920ddb16a6a46514d",
        "nonce": "0x66e",
        "chainId": "0xaa36a7"
      },
      "additionalContracts": [],
      "isFixedGasLimit": false
    }
  ],
  "receipts": [
    {
      "status": "0x1",
      "cumulativeGasUsed": "0x90a225",
      "logs": [
        {
          "address": "0x270e88f8683660553e8ba4eb2ad7c91a1710d769",
          "topics": [
            "0xddf252ad1be2c89b69c2b068fc378daa952ba7f163c4a11628f55a4df523b3ef",
            "0x000000000000000000000000c77f7fed3b5cc8249adc428c5f44c9063b9734b4",
            "0x0000000000000000000000000000000000000000000000000000000000000000"
          ],
          "data": "0x00000000000000000000000000000000000000000000002920ddb16a6a46514d",
          "blockHash": "0xbc016bd4e0da57778c703b38f66648f1f5785385d5a57241460effc152650bd8",
          "blockNumber": "0x725368",
          "transactionHash": "0x4d3f9b3cc936fee15ef4d6a658d777c2f7b8599e50c14f0ab287e07678cf371d",
          "transactionIndex": "0x41",
          "logIndex": "0x70",
          "removed": false
        },
        {
          "address": "0x270e88f8683660553e8ba4eb2ad7c91a1710d769",
          "topics": [
            "0x4afcb4a87cdbd9974efdb92ee48bc8d7cd0ae4bf217004db3d080cbaee652ca7"
          ],
          "data": "0x000000000000000000000000000000000000000000000000000000006786dae80000000000000000000000000000000000000000000000000004a6aee6c5e36f0000000000000000000000000000000000000000000000000dc82a6edccc664d",
          "blockHash": "0xbc016bd4e0da57778c703b38f66648f1f5785385d5a57241460effc152650bd8",
          "blockNumber": "0x725368",
          "transactionHash": "0x4d3f9b3cc936fee15ef4d6a658d777c2f7b8599e50c14f0ab287e07678cf371d",
          "transactionIndex": "0x41",
          "logIndex": "0x71",
          "removed": false
        }
      ],
      "logsBloom": "0x00000000000000000000000000000000000000000000000000000000000000000000000000000000000000000000000020000000000000004000000000000000000000000000000000000008000000000000000000000000000000000000000000000000020000000000000000000800020000000000000000000010000000000000000000010000000000000000000000000000000000000000010000000000000000000000000000000000000000004000000000000000000000000000000000000002000000800000000000000000000000000000080000008000000020000000000000000000000000000000000000000000000000000000000000000000",
      "type": "0x2",
      "transactionHash": "0x4d3f9b3cc936fee15ef4d6a658d777c2f7b8599e50c14f0ab287e07678cf371d",
      "transactionIndex": "0x41",
      "blockHash": "0xbc016bd4e0da57778c703b38f66648f1f5785385d5a57241460effc152650bd8",
      "blockNumber": "0x725368",
      "gasUsed": "0xfb93",
      "effectiveGasPrice": "0x2b398f27d",
      "from": "0xc77f7fed3b5cc8249adc428c5f44c9063b9734b4",
      "to": "0x270e88f8683660553e8ba4eb2ad7c91a1710d769",
      "contractAddress": null
    }
  ],
  "libraries": [],
  "pending": [],
  "returns": {},
  "timestamp": 1736891114,
  "chain": 11155111,
  "commit": "51a374b"
}