{
  "transactions": [
    {
      "hash": "0xe8227f5b3e555a5ef8afe81dde6c7e024453db56c29368e990c5bf979703341d",
      "transactionType": "CALL",
      "contractName": null,
      "contractAddress": "0x8aafd3ede9adb0ff97c7aebce82a919afb1c8764",
      "function": "sell(uint256)",
      "arguments": [
        "47486900866075645"
      ],
      "transaction": {
        "from": "0xc77f7fed3b5cc8249adc428c5f44c9063b9734b4",
        "to": "0x8aafd3ede9adb0ff97c7aebce82a919afb1c8764",
        "gas": "0x1724d",
        "value": "0x0",
        "input": "0xe4849b3200000000000000000000000000000000000000000000000000a8b515b19b4bfd",
        "nonce": "0xf69",
        "chainId": "0xaa36a7"
      },
      "additionalContracts": [],
      "isFixedGasLimit": false
    }
  ],
  "receipts": [
    {
      "status": "0x1",
      "cumulativeGasUsed": "0xb9e73a",
      "logs": [
        {
          "address": "0x8aafd3ede9adb0ff97c7aebce82a919afb1c8764",
          "topics": [
            "0xddf252ad1be2c89b69c2b068fc378daa952ba7f163c4a11628f55a4df523b3ef",
            "0x000000000000000000000000c77f7fed3b5cc8249adc428c5f44c9063b9734b4",
            "0x0000000000000000000000000000000000000000000000000000000000000000"
          ],
          "data": "0x00000000000000000000000000000000000000000000000000a75b9272beeb20",
          "blockHash": "0x0d34bfa89b6c1a6e3b5fd33e6a1738283ef3063fe001a3d1acc3966848f45420",
          "blockNumber": "0x7315c9",
          "transactionHash": "0xe8227f5b3e555a5ef8afe81dde6c7e024453db56c29368e990c5bf979703341d",
          "transactionIndex": "0x89",
          "logIndex": "0xb9",
          "removed": false
        },
        {
          "address": "0x8aafd3ede9adb0ff97c7aebce82a919afb1c8764",
          "topics": [
            "0xddf252ad1be2c89b69c2b068fc378daa952ba7f163c4a11628f55a4df523b3ef",
            "0x000000000000000000000000c77f7fed3b5cc8249adc428c5f44c9063b9734b4",
            "0x000000000000000000000000c77f7fed3b5cc8249adc428c5f44c9063b9734b4"
          ],
          "data": "0x000000000000000000000000000000000000000000000000000159833edc60dd",
          "blockHash": "0x0d34bfa89b6c1a6e3b5fd33e6a1738283ef3063fe001a3d1acc3966848f45420",
          "blockNumber": "0x7315c9",
          "transactionHash": "0xe8227f5b3e555a5ef8afe81dde6c7e024453db56c29368e990c5bf979703341d",
          "transactionIndex": "0x89",
          "logIndex": "0xba",
          "removed": false
        },
        {
          "address": "0x8aafd3ede9adb0ff97c7aebce82a919afb1c8764",
          "topics": [
            "0x4afcb4a87cdbd9974efdb92ee48bc8d7cd0ae4bf217004db3d080cbaee652ca7"
          ],
          "data": "0x00000000000000000000000000000000000000000000000000000000679002180000000000000000000000000000000000000000000000000004c18383c07afb000000000000000000000000000000000000000000000000000039d0e24ca637",
          "blockHash": "0x0d34bfa89b6c1a6e3b5fd33e6a1738283ef3063fe001a3d1acc3966848f45420",
          "blockNumber": "0x7315c9",
          "transactionHash": "0xe8227f5b3e555a5ef8afe81dde6c7e024453db56c29368e990c5bf979703341d",
          "transactionIndex": "0x89",
          "logIndex": "0xbb",
          "removed": false
        }
      ],
      "logsBloom": "0x00000000000000000000000000000000000000000600000000000000000000000000000000000000000000000000000000000000000000004000000000000000000000000000004000000008000000000000000000000000000000000000000000000000020000000000000000000800020000000000000000000010000000000000000000000000000000000000000000000000000000000000010000000000000000000000000000000000000000004000000000000000000000000000000000000002000000800000000000000000000000000000080000000000000020000000000000000000000000000000000000000000000000000000000000000000",
      "type": "0x2",
      "transactionHash": "0xe8227f5b3e555a5ef8afe81dde6c7e024453db56c29368e990c5bf979703341d",
      "transactionIndex": "0x89",
      "blockHash": "0x0d34bfa89b6c1a6e3b5fd33e6a1738283ef3063fe001a3d1acc3966848f45420",
      "blockNumber": "0x7315c9",
      "gasUsed": "0xfd33",
      "effectiveGasPrice": "0x5e286be2",
      "from": "0xc77f7fed3b5cc8249adc428c5f44c9063b9734b4",
      "to": "0x8aafd3ede9adb0ff97c7aebce82a919afb1c8764",
      "contractAddress": null
    }
  ],
  "libraries": [],
  "pending": [],
  "returns": {},
  "timestamp": 1737490969,
  "chain": 11155111,
  "commit": "1d2fb70"
}