{
  "transactions": [
    {
      "hash": "0xf5b3ada965f5496df99faa249b090878625ea6158bde0e1d064b333afee52a7e",
      "transactionType": "CALL",
      "contractName": null,
      "contractAddress": "0x5eb9cc76c3506942c1c0ead70e877dd5e4f00cb0",
      "function": "sell(uint256)",
      "arguments": [
        "989124221378524305777"
      ],
      "transaction": {
        "from": "0xc77f7fed3b5cc8249adc428c5f44c9063b9734b4",
        "to": "0x5eb9cc76c3506942c1c0ead70e877dd5e4f00cb0",
        "gas": "0x16fec",
        "value": "0x0",
        "input": "0xe4849b320000000000000000000000000000000000000000000000359edb26bd31c75971",
        "nonce": "0x369",
        "chainId": "0xaa36a7"
      },
      "additionalContracts": [],
      "isFixedGasLimit": false
    }
  ],
  "receipts": [
    {
      "status": "0x1",
      "cumulativeGasUsed": "0x1172567",
      "logs": [
        {
          "address": "0x5eb9cc76c3506942c1c0ead70e877dd5e4f00cb0",
          "topics": [
            "0xddf252ad1be2c89b69c2b068fc378daa952ba7f163c4a11628f55a4df523b3ef",
            "0x000000000000000000000000c77f7fed3b5cc8249adc428c5f44c9063b9734b4",
            "0x0000000000000000000000000000000000000000000000000000000000000000"
          ],
          "data": "0x0000000000000000000000000000000000000000000000359edb26bd31c75971",
          "blockHash": "0x8737fb690974428dc2dc091343bba355a4616db243e3f3af3e57b4386f7a15cc",
          "blockNumber": "0x724f5f",
          "transactionHash": "0xf5b3ada965f5496df99faa249b090878625ea6158bde0e1d064b333afee52a7e",
          "transactionIndex": "0x50",
          "logIndex": "0x74",
          "removed": false
        },
        {
          "address": "0x5eb9cc76c3506942c1c0ead70e877dd5e4f00cb0",
          "topics": [
            "0x4afcb4a87cdbd9974efdb92ee48bc8d7cd0ae4bf217004db3d080cbaee652ca7"
          ],
          "data": "0x000000000000000000000000000000000000000000000000000000006786aa280000000000000000000000000000000000000000000000000003910fbf834c2c0000000000000000000000000000000000000000000000000dc7db1332128c0d",
          "blockHash": "0x8737fb690974428dc2dc091343bba355a4616db243e3f3af3e57b4386f7a15cc",
          "blockNumber": "0x724f5f",
          "transactionHash": "0xf5b3ada965f5496df99faa249b090878625ea6158bde0e1d064b333afee52a7e",
          "transactionIndex": "0x50",
          "logIndex": "0x75",
          "removed": false
        }
      ],
      "logsBloom": "0x00000000000000000000000000000000000000000000000000000000000000000000000000000000000000000000000000000000000000004000000000000000000000000000000000000008000000000000000000000000000000000000000000000000020000000000000004000800020000000000000000000010000000000000000000000000000000000000000000000000000000000000010000000000000000000000000000000000000000004000000000000000000000000000020000000002000000800000008000000000000000000000080000000000000020000000000000000000000000000000000000000000000000000000000000000000",
      "type": "0x2",
      "transactionHash": "0xf5b3ada965f5496df99faa249b090878625ea6158bde0e1d064b333afee52a7e",
      "transactionIndex": "0x50",
      "blockHash": "0x8737fb690974428dc2dc091343bba355a4616db243e3f3af3e57b4386f7a15cc",
      "blockNumber": "0x724f5f",
      "gasUsed": "0xfb93",
      "effectiveGasPrice": "0x59601aca6",
      "from": "0xc77f7fed3b5cc8249adc428c5f44c9063b9734b4",
      "to": "0x5eb9cc76c3506942c1c0ead70e877dd5e4f00cb0",
      "contractAddress": null
    }
  ],
  "libraries": [],
  "pending": [],
  "returns": {},
  "timestamp": 1736878632,
  "chain": 11155111,
  "commit": "51a374b"
}