{
  "transactions": [
    {
      "hash": "0x280344a55ad0af8d91cc83c30dcd25704a226033ba4eb1c2cd77b222f17f3122",
      "transactionType": "CALL",
      "contractName": null,
      "contractAddress": "0x8aafd3ede9adb0ff97c7aebce82a919afb1c8764",
      "function": "sell(uint256)",
      "arguments": [
        "5420799032937838194"
      ],
      "transaction": {
        "from": "0xc77f7fed3b5cc8249adc428c5f44c9063b9734b4",
        "to": "0x8aafd3ede9adb0ff97c7aebce82a919afb1c8764",
        "gas": "0x15dca",
        "value": "0x0",
        "input": "0xe4849b320000000000000000000000000000000000000000000000004b3a8bfff50a7672",
        "nonce": "0x1222",
        "chainId": "0xaa36a7"
      },
      "additionalContracts": [],
      "isFixedGasLimit": false
    }
  ],
  "receipts": [
    {
      "status": "0x1",
      "cumulativeGasUsed": "0x1df7e0d",
      "logs": [
        {
          "address": "0x8aafd3ede9adb0ff97c7aebce82a919afb1c8764",
          "topics": [
            "0xddf252ad1be2c89b69c2b068fc378daa952ba7f163c4a11628f55a4df523b3ef",
            "0x000000000000000000000000c77f7fed3b5cc8249adc428c5f44c9063b9734b4",
            "0x0000000000000000000000000000000000000000000000000000000000000000"
          ],
          "data": "0x0000000000000000000000000000000000000000000000004aa07a7eeefc0b01",
          "blockHash": "0x4f4a4b3e0267a356e2753096f3646375beb38caeaa2e008ca1978842831a585f",
          "blockNumber": "0x7318ff",
          "transactionHash": "0x280344a55ad0af8d91cc83c30dcd25704a226033ba4eb1c2cd77b222f17f3122",
          "transactionIndex": "0x7f",
          "logIndex": "0x8e",
          "removed": false
        },
        {
          "address": "0x8aafd3ede9adb0ff97c7aebce82a919afb1c8764",
          "topics": [
            "0xddf252ad1be2c89b69c2b068fc378daa952ba7f163c4a11628f55a4df523b3ef",
            "0x000000000000000000000000c77f7fed3b5cc8249adc428c5f44c9063b9734b4",
            "0x000000000000000000000000c77f7fed3b5cc8249adc428c5f44c9063b9734b4"
          ],
          "data": "0x000000000000000000000000000000000000000000000000009a1181060e6b71",
          "blockHash": "0x4f4a4b3e0267a356e2753096f3646375beb38caeaa2e008ca1978842831a585f",
          "blockNumber": "0x7318ff",
          "transactionHash": "0x280344a55ad0af8d91cc83c30dcd25704a226033ba4eb1c2cd77b222f17f3122",
          "transactionIndex": "0x7f",
          "logIndex": "0x8f",
          "removed": false
        },
        {
          "address": "0x8aafd3ede9adb0ff97c7aebce82a919afb1c8764",
          "topics": [
            "0x4afcb4a87cdbd9974efdb92ee48bc8d7cd0ae4bf217004db3d080cbaee652ca7"
          ],
          "data": "0x00000000000000000000000000000000000000000000000000000000679028c40000000000000000000000000000000000000000000000000005364a8c156f84000000000000000000000000000000000000000000000000001c40e128b7ef4e",
          "blockHash": "0x4f4a4b3e0267a356e2753096f3646375beb38caeaa2e008ca1978842831a585f",
          "blockNumber": "0x7318ff",
          "transactionHash": "0x280344a55ad0af8d91cc83c30dcd25704a226033ba4eb1c2cd77b222f17f3122",
          "transactionIndex": "0x7f",
          "logIndex": "0x90",
          "removed": false
        }
      ],
      "logsBloom": "0x00000000000000000000000000000000000000000600000000000000000000000000000000000000000000000000000000000000000000004000000000000000000000000000004000000008000000000000000000000000000000000000000000000000020000000000000000000800020000000000000000000010000000000000000000000000000000000000000000000000000000000000010000000000000000000000000000000000000000004000000000000000000000000000000000000002000000800000000000000000000000000000080000000000000020000000000000000000000000000000000000000000000000000000000000000000",
      "type": "0x2",
      "transactionHash": "0x280344a55ad0af8d91cc83c30dcd25704a226033ba4eb1c2cd77b222f17f3122",
      "transactionIndex": "0x7f",
      "blockHash": "0x4f4a4b3e0267a356e2753096f3646375beb38caeaa2e008ca1978842831a585f",
      "blockNumber": "0x7318ff",
      "gasUsed": "0xfd3f",
      "effectiveGasPrice": "0x54a29a98",
      "from": "0xc77f7fed3b5cc8249adc428c5f44c9063b9734b4",
      "to": "0x8aafd3ede9adb0ff97c7aebce82a919afb1c8764",
      "contractAddress": null
    }
  ],
  "libraries": [],
  "pending": [],
  "returns": {},
  "timestamp": 1737500869,
  "chain": 11155111,
  "commit": "1d2fb70"
}