{
  "transactions": [
    {
      "hash": "0x0780d413e26c2a0c303f894e4f6c0bb9f1a407aaf33b6e330970ee064a99bfb2",
      "transactionType": "CALL",
      "contractName": null,
      "contractAddress": "0xbf4a322f1496e5c3d34a9bcdb4c60567b38c7de2",
      "function": "sell(uint256)",
      "arguments": [
        "984274053357801168933"
      ],
      "transaction": {
        "from": "0xc77f7fed3b5cc8249adc428c5f44c9063b9734b4",
        "to": "0xbf4a322f1496e5c3d34a9bcdb4c60567b38c7de2",
        "gas": "0x16fea",
        "value": "0x0",
        "input": "0xe4849b320000000000000000000000000000000000000000000000355b8be49f199de025",
        "nonce": "0xadb",
        "chainId": "0xaa36a7"
      },
      "additionalContracts": [],
      "isFixedGasLimit": false
    }
  ],
  "receipts": [
    {
      "status": "0x1",
      "cumulativeGasUsed": "0xe246a9",
      "logs": [
        {
          "address": "0xbf4a322f1496e5c3d34a9bcdb4c60567b38c7de2",
          "topics": [
            "0xddf252ad1be2c89b69c2b068fc378daa952ba7f163c4a11628f55a4df523b3ef",
            "0x000000000000000000000000c77f7fed3b5cc8249adc428c5f44c9063b9734b4",
            "0x0000000000000000000000000000000000000000000000000000000000000000"
          ],
          "data": "0x0000000000000000000000000000000000000000000000355b8be49f199de025",
          "blockHash": "0x2e2be756e5521cfdd3ea3541c3001c984b86638705bfc61253afe2fe18493c5b",
          "blockNumber": "0x725ace",
          "transactionHash": "0x0780d413e26c2a0c303f894e4f6c0bb9f1a407aaf33b6e330970ee064a99bfb2",
          "transactionIndex": "0x64",
          "logIndex": "0xb2",
          "removed": false
        },
        {
          "address": "0xbf4a322f1496e5c3d34a9bcdb4c60567b38c7de2",
          "topics": [
            "0x4afcb4a87cdbd9974efdb92ee48bc8d7cd0ae4bf217004db3d080cbaee652ca7"
          ],
          "data": "0x00000000000000000000000000000000000000000000000000000000678733f800000000000000000000000000000000000000000000000000039595f25582f40000000000000000000000000000000000000000000000000dc7e3ec00e9e783",
          "blockHash": "0x2e2be756e5521cfdd3ea3541c3001c984b86638705bfc61253afe2fe18493c5b",
          "blockNumber": "0x725ace",
          "transactionHash": "0x0780d413e26c2a0c303f894e4f6c0bb9f1a407aaf33b6e330970ee064a99bfb2",
          "transactionIndex": "0x64",
          "logIndex": "0xb3",
          "removed": false
        }
      ],
      "logsBloom": "0x00000000000000000000000000000000000000000000000000000000000000000000000000000000000000000000000000000000000000004000000000000000000000000000000000000008000000000000001000000000000000000000000000000000020000000000000000000800020000000000000000000010000000000000000000000000000000000000000000000000000008000000010000000000000000000000000000000000000000004000000000000000000000000000000000000002000000800000000000001000000000000000080000000000000020000000000000000000000000000000000000000000000000000000000000000000",
      "type": "0x2",
      "transactionHash": "0x0780d413e26c2a0c303f894e4f6c0bb9f1a407aaf33b6e330970ee064a99bfb2",
      "transactionIndex": "0x64",
      "blockHash": "0x2e2be756e5521cfdd3ea3541c3001c984b86638705bfc61253afe2fe18493c5b",
      "blockNumber": "0x725ace",
      "gasUsed": "0xfb91",
      "effectiveGasPrice": "0xd52e4cfb",
      "from": "0xc77f7fed3b5cc8249adc428c5f44c9063b9734b4",
      "to": "0xbf4a322f1496e5c3d34a9bcdb4c60567b38c7de2",
      "contractAddress": null
    }
  ],
  "libraries": [],
  "pending": [],
  "returns": {},
  "timestamp": 1736913913,
  "chain": 11155111,
  "commit": "51a374b"
}