{
  "transactions": [
    {
      "hash": "0x05889332a4ee3b193303a0def4f834b3593ae3525d18b6973c662e75c44c98f9",
      "transactionType": "CALL",
      "contractName": null,
      "contractAddress": "0x8aafd3ede9adb0ff97c7aebce82a919afb1c8764",
      "function": "sell(uint256)",
      "arguments": [
        "81423353"
      ],
      "transaction": {
        "from": "0xc77f7fed3b5cc8249adc428c5f44c9063b9734b4",
        "to": "0x8aafd3ede9adb0ff97c7aebce82a919afb1c8764",
        "gas": "0x15d88",
        "value": "0x0",
        "input": "0xe4849b320000000000000000000000000000000000000000000000000000000004da6bf9",
        "nonce": "0x1316",
        "chainId": "0xaa36a7"
      },
      "additionalContracts": [],
      "isFixedGasLimit": false
    }
  ],
  "receipts": [
    {
      "status": "0x1",
      "cumulativeGasUsed": "0x9ae0be",
      "logs": [
        {
          "address": "0x8aafd3ede9adb0ff97c7aebce82a919afb1c8764",
          "topics": [
            "0xddf252ad1be2c89b69c2b068fc378daa952ba7f163c4a11628f55a4df523b3ef",
            "0x000000000000000000000000c77f7fed3b5cc8249adc428c5f44c9063b9734b4",
            "0x0000000000000000000000000000000000000000000000000000000000000000"
          ],
          "data": "0x0000000000000000000000000000000000000000000000000000000004d07b7f",
          "blockHash": "0xb4bbf1f57ed7414c43936afbece11fde8cec26c4aca70ff888ebc04fa2c7b8b4",
          "blockNumber": "0x731a23",
          "transactionHash": "0x05889332a4ee3b193303a0def4f834b3593ae3525d18b6973c662e75c44c98f9",
          "transactionIndex": "0x8e",
          "logIndex": "0x98",
          "removed": false
        },
        {
          "address": "0x8aafd3ede9adb0ff97c7aebce82a919afb1c8764",
          "topics": [
            "0xddf252ad1be2c89b69c2b068fc378daa952ba7f163c4a11628f55a4df523b3ef",
            "0x000000000000000000000000c77f7fed3b5cc8249adc428c5f44c9063b9734b4",
            "0x000000000000000000000000c77f7fed3b5cc8249adc428c5f44c9063b9734b4"
          ],
          "data": "0x000000000000000000000000000000000000000000000000000000000009f07a",
          "blockHash": "0xb4bbf1f57ed7414c43936afbece11fde8cec26c4aca70ff888ebc04fa2c7b8b4",
          "blockNumber": "0x731a23",
          "transactionHash": "0x05889332a4ee3b193303a0def4f834b3593ae3525d18b6973c662e75c44c98f9",
          "transactionIndex": "0x8e",
          "logIndex": "0x99",
          "removed": false
        },
        {
          "address": "0x8aafd3ede9adb0ff97c7aebce82a919afb1c8764",
          "topics": [
            "0x4afcb4a87cdbd9974efdb92ee48bc8d7cd0ae4bf217004db3d080cbaee652ca7"
          ],
          "data": "0x0000000000000000000000000000000000000000000000000000000067903674000000000000000000000000000000000000000000000000000b75905fec08ba00000000000000000000000000000000000000000000000000000000000401e6",
          "blockHash": "0xb4bbf1f57ed7414c43936afbece11fde8cec26c4aca70ff888ebc04fa2c7b8b4",
          "blockNumber": "0x731a23",
          "transactionHash": "0x05889332a4ee3b193303a0def4f834b3593ae3525d18b6973c662e75c44c98f9",
          "transactionIndex": "0x8e",
          "logIndex": "0x9a",
          "removed": false
        }
      ],
      "logsBloom": "0x00000000000000000000000000000000000000000600000000000000000000000000000000000000000000000000000000000000000000004000000000000000000000000000004000000008000000000000000000000000000000000000000000000000020000000000000000000800020000000000000000000010000000000000000000000000000000000000000000000000000000000000010000000000000000000000000000000000000000004000000000000000000000000000000000000002000000800000000000000000000000000000080000000000000020000000000000000000000000000000000000000000000000000000000000000000",
      "type": "0x2",
      "transactionHash": "0x05889332a4ee3b193303a0def4f834b3593ae3525d18b6973c662e75c44c98f9",
      "transactionIndex": "0x8e",
      "blockHash": "0xb4bbf1f57ed7414c43936afbece11fde8cec26c4aca70ff888ebc04fa2c7b8b4",
      "blockNumber": "0x731a23",
      "gasUsed": "0xfd0f",
      "effectiveGasPrice": "0x48bdbb79",
      "from": "0xc77f7fed3b5cc8249adc428c5f44c9063b9734b4",
      "to": "0x8aafd3ede9adb0ff97c7aebce82a919afb1c8764",
      "contractAddress": null
    }
  ],
  "libraries": [],
  "pending": [],
  "returns": {},
  "timestamp": 1737504374,
  "chain": 11155111,
  "commit": "1d2fb70"
}