{
  "transactions": [
    {
      "hash": "0xef1c51b8b9b5234ca70c2526fbfafe347eef8a9ed5f85f7451acb7ab2d31953a",
      "transactionType": "CALL",
      "contractName": null,
      "contractAddress": "0x270e88f8683660553e8ba4eb2ad7c91a1710d769",
      "function": "buy(address)",
      "arguments": [
        "0xC77f7fed3b5Cc8249aDc428c5F44C9063B9734b4"
      ],
      "transaction": {
        "from": "0xc77f7fed3b5cc8249adc428c5f44c9063b9734b4",
        "to": "0x270e88f8683660553e8ba4eb2ad7c91a1710d769",
        "gas": "0x1b30c",
        "value": "0xde0b6b3a7640000",
        "input": "0xf088d547000000000000000000000000c77f7fed3b5cc8249adc428c5f44c9063b9734b4",
        "nonce": "0x5dc",
        "chainId": "0xaa36a7"
      },
      "additionalContracts": [],
      "isFixedGasLimit": false
    }
  ],
  "receipts": [
    {
      "status": "0x1",
      "cumulativeGasUsed": "0xb56718",
      "logs": [
        {
          "address": "0x270e88f8683660553e8ba4eb2ad7c91a1710d769",
          "topics": [
            "0xddf252ad1be2c89b69c2b068fc378daa952ba7f163c4a11628f55a4df523b3ef",
            "0x0000000000000000000000000000000000000000000000000000000000000000",
            "0x000000000000000000000000c77f7fed3b5cc8249adc428c5f44c9063b9734b4"
          ],
          "data": "0x0000000000000000000000000000000000000000000000337b67a6e037035d04",
          "blockHash": "0xbfebf9b37b98735105b8f91e559ec910c33916244674b9ee41673a07e98dae76",
          "blockNumber": "0x72529d",
          "transactionHash": "0xef1c51b8b9b5234ca70c2526fbfafe347eef8a9ed5f85f7451acb7ab2d31953a",
          "transactionIndex": "0x4c",
          "logIndex": "0xa2",
          "removed": false
        },
        {
          "address": "0x270e88f8683660553e8ba4eb2ad7c91a1710d769",
          "topics": [
            "0xddf252ad1be2c89b69c2b068fc378daa952ba7f163c4a11628f55a4df523b3ef",
            "0x0000000000000000000000000000000000000000000000000000000000000000",
            "0x000000000000000000000000c77f7fed3b5cc8249adc428c5f44c9063b9734b4"
          ],
          "data": "0x00000000000000000000000000000000000000000000000027fa41e7e89f52ed",
          "blockHash": "0xbfebf9b37b98735105b8f91e559ec910c33916244674b9ee41673a07e98dae76",
          "blockNumber": "0x72529d",
          "transactionHash": "0xef1c51b8b9b5234ca70c2526fbfafe347eef8a9ed5f85f7451acb7ab2d31953a",
          "transactionIndex": "0x4c",
          "logIndex": "0xa3",
          "removed": false
        },
        {
          "address": "0x270e88f8683660553e8ba4eb2ad7c91a1710d769",
          "topics": [
            "0x4afcb4a87cdbd9974efdb92ee48bc8d7cd0ae4bf217004db3d080cbaee652ca7"
          ],
          "data": "0x000000000000000000000000000000000000000000000000000000006786d1640000000000000000000000000000000000000000000000000003b4377e366f920000000000000000000000000000000000000000000000000de0b6b3a7640000",
          "blockHash": "0xbfebf9b37b98735105b8f91e559ec910c33916244674b9ee41673a07e98dae76",
          "blockNumber": "0x72529d",
          "transactionHash": "0xef1c51b8b9b5234ca70c2526fbfafe347eef8a9ed5f85f7451acb7ab2d31953a",
          "transactionIndex": "0x4c",
          "logIndex": "0xa4",
          "removed": false
        }
      ],
      "logsBloom": "0x00000000000000000000000000000000000000000000000000000000000000000000000000000000000000000000000020000000000000004000000000000000000000000000000000000008000000000000000000000000000000000000000000000000020000000000000000000800020000000000000000000010000000000000000000010000000000000000000000000000000000000000010000000000000000000000000000000000000000004000000000000000000000000000000000000002000000800000000000000000000000000000080000008000000020000000000000000000000000000000000000000000000000000000000000000000",
      "type": "0x2",
      "transactionHash": "0xef1c51b8b9b5234ca70c2526fbfafe347eef8a9ed5f85f7451acb7ab2d31953a",
      "transactionIndex": "0x4c",
      "blockHash": "0xbfebf9b37b98735105b8f91e559ec910c33916244674b9ee41673a07e98dae76",
      "blockNumber": "0x72529d",
      "gasUsed": "0x13af8",
      "effectiveGasPrice": "0x357973afb",
      "from": "0xc77f7fed3b5cc8249adc428c5f44c9063b9734b4",
      "to": "0x270e88f8683660553e8ba4eb2ad7c91a1710d769",
      "contractAddress": null
    }
  ],
  "libraries": [],
  "pending": [],
  "returns": {},
  "timestamp": 1736888677,
  "chain": 11155111,
  "commit": "51a374b"
}