{
  "transactions": [
    {
      "hash": "0xaa7dac65047ac40a9a03cefbc806d498e2d12eaf73c6f40fd94d6954c63f5e43",
      "transactionType": "CALL",
      "contractName": null,
      "contractAddress": "0x8aafd3ede9adb0ff97c7aebce82a919afb1c8764",
      "function": "sell(uint256)",
      "arguments": [
        "8973463862"
      ],
      "transaction": {
        "from": "0xc77f7fed3b5cc8249adc428c5f44c9063b9734b4",
        "to": "0x8aafd3ede9adb0ff97c7aebce82a919afb1c8764",
        "gas": "0x1722a",
        "value": "0x0",
        "input": "0xe4849b320000000000000000000000000000000000000000000000000000000216dc3136",
        "nonce": "0x139c",
        "chainId": "0xaa36a7"
      },
      "additionalContracts": [],
      "isFixedGasLimit": false
    }
  ],
  "receipts": [
    {
      "status": "0x1",
      "cumulativeGasUsed": "0x68d04a",
      "logs": [
        {
          "address": "0x8aafd3ede9adb0ff97c7aebce82a919afb1c8764",
          "topics": [
            "0xddf252ad1be2c89b69c2b068fc378daa952ba7f163c4a11628f55a4df523b3ef",
            "0x000000000000000000000000c77f7fed3b5cc8249adc428c5f44c9063b9734b4",
            "0x0000000000000000000000000000000000000000000000000000000000000000"
          ],
          "data": "0x000000000000000000000000000000000000000000000000000000021294cc78",
          "blockHash": "0x0408a5fd518cad13a191bf0a43f9689ad7633c20e8890f83ed4cae6580ade529",
          "blockNumber": "0x731ac2",
          "transactionHash": "0xaa7dac65047ac40a9a03cefbc806d498e2d12eaf73c6f40fd94d6954c63f5e43",
          "transactionIndex": "0x34",
          "logIndex": "0x2a",
          "removed": false
        },
        {
          "address": "0x8aafd3ede9adb0ff97c7aebce82a919afb1c8764",
          "topics": [
            "0xddf252ad1be2c89b69c2b068fc378daa952ba7f163c4a11628f55a4df523b3ef",
            "0x000000000000000000000000c77f7fed3b5cc8249adc428c5f44c9063b9734b4",
            "0x000000000000000000000000c77f7fed3b5cc8249adc428c5f44c9063b9734b4"
          ],
          "data": "0x00000000000000000000000000000000000000000000000000000000044764be",
          "blockHash": "0x0408a5fd518cad13a191bf0a43f9689ad7633c20e8890f83ed4cae6580ade529",
          "blockNumber": "0x731ac2",
          "transactionHash": "0xaa7dac65047ac40a9a03cefbc806d498e2d12eaf73c6f40fd94d6954c63f5e43",
          "transactionIndex": "0x34",
          "logIndex": "0x2b",
          "removed": false
        },
        {
          "address": "0x8aafd3ede9adb0ff97c7aebce82a919afb1c8764",
          "topics": [
            "0x4afcb4a87cdbd9974efdb92ee48bc8d7cd0ae4bf217004db3d080cbaee652ca7"
          ],
          "data": "0x0000000000000000000000000000000000000000000000000000000067903de8000000000000000000000000000000000000000000000000000cfc0d0d51bcde0000000000000000000000000000000000000000000000000000000001f46f5d",
          "blockHash": "0x0408a5fd518cad13a191bf0a43f9689ad7633c20e8890f83ed4cae6580ade529",
          "blockNumber": "0x731ac2",
          "transactionHash": "0xaa7dac65047ac40a9a03cefbc806d498e2d12eaf73c6f40fd94d6954c63f5e43",
          "transactionIndex": "0x34",
          "logIndex": "0x2c",
          "removed": false
        }
      ],
      "logsBloom": "0x00000000000000000000000000000000000000000600000000000000000000000000000000000000000000000000000000000000000000004000000000000000000000000000004000000008000000000000000000000000000000000000000000000000020000000000000000000800020000000000000000000010000000000000000000000000000000000000000000000000000000000000010000000000000000000000000000000000000000004000000000000000000000000000000000000002000000800000000000000000000000000000080000000000000020000000000000000000000000000000000000000000000000000000000000000000",
      "type": "0x2",
      "transactionHash": "0xaa7dac65047ac40a9a03cefbc806d498e2d12eaf73c6f40fd94d6954c63f5e43",
      "transactionIndex": "0x34",
      "blockHash": "0x0408a5fd518cad13a191bf0a43f9689ad7633c20e8890f83ed4cae6580ade529",
      "blockNumber": "0x731ac2",
      "gasUsed": "0xfd1b",
      "effectiveGasPrice": "0x875b03b4",
      "from": "0xc77f7fed3b5cc8249adc428c5f44c9063b9734b4",
      "to": "0x8aafd3ede9adb0ff97c7aebce82a919afb1c8764",
      "contractAddress": null
    }
  ],
  "libraries": [],
  "pending": [],
  "returns": {},
  "timestamp": 1737506280,
  "chain": 11155111,
  "commit": "1d2fb70"
}