{
  "transactions": [
    {
      "hash": "0xb7aae46ab58f5e82586c6d977d189f36ce08cc9851ff0427f13e4651a75f30b4",
      "transactionType": "CALL",
      "contractName": null,
      "contractAddress": "0x270e88f8683660553e8ba4eb2ad7c91a1710d769",
      "function": "sell(uint256)",
      "arguments": [
        "742783140027452373660"
      ],
      "transaction": {
        "from": "0xc77f7fed3b5cc8249adc428c5f44c9063b9734b4",
        "to": "0x270e88f8683660553e8ba4eb2ad7c91a1710d769",
        "gas": "0x16fec",
        "value": "0x0",
        "input": "0xe4849b32000000000000000000000000000000000000000000000028442fd26bd5883a9c",
        "nonce": "0x71c",
        "chainId": "0xaa36a7"
      },
      "additionalContracts": [],
      "isFixedGasLimit": false
    }
  ],
  "receipts": [
    {
      "status": "0x1",
      "cumulativeGasUsed": "0x208f845",
      "logs": [
        {
          "address": "0x270e88f8683660553e8ba4eb2ad7c91a1710d769",
          "topics": [
            "0xddf252ad1be2c89b69c2b068fc378daa952ba7f163c4a11628f55a4df523b3ef",
            "0x000000000000000000000000c77f7fed3b5cc8249adc428c5f44c9063b9734b4",
            "0x0000000000000000000000000000000000000000000000000000000000000000"
          ],
          "data": "0x000000000000000000000000000000000000000000000028442fd26bd5883a9c",
          "blockHash": "0x5be0c8b6ba1cd63a13d1c6ca01a82716377f8d68ac9990937f9ea6f5524d646e",
          "blockNumber": "0x725436",
          "transactionHash": "0xb7aae46ab58f5e82586c6d977d189f36ce08cc9851ff0427f13e4651a75f30b4",
          "transactionIndex": "0x42",
          "logIndex": "0x195",
          "removed": false
        },
        {
          "address": "0x270e88f8683660553e8ba4eb2ad7c91a1710d769",
          "topics": [
            "0x4afcb4a87cdbd9974efdb92ee48bc8d7cd0ae4bf217004db3d080cbaee652ca7"
          ],
          "data": "0x000000000000000000000000000000000000000000000000000000006786e4900000000000000000000000000000000000000000000000000004c02ad353cd100000000000000000000000000000000000000000000000000dc828c9b551b9c0",
          "blockHash": "0x5be0c8b6ba1cd63a13d1c6ca01a82716377f8d68ac9990937f9ea6f5524d646e",
          "blockNumber": "0x725436",
          "transactionHash": "0xb7aae46ab58f5e82586c6d977d189f36ce08cc9851ff0427f13e4651a75f30b4",
          "transactionIndex": "0x42",
          "logIndex": "0x196",
          "removed": false
        }
      ],
      "logsBloom": "0x00000000000000000000000000000000000000000000000000000000000000000000000000000000000000000000000020000000000000004000000000000000000000000000000000000008000000000000000000000000000000000000000000000000020000000000000000000800020000000000000000000010000000000000000000010000000000000000000000000000000000000000010000000000000000000000000000000000000000004000000000000000000000000000000000000002000000800000000000000000000000000000080000008000000020000000000000000000000000000000000000000000000000000000000000000000",
      "type": "0x2",
      "transactionHash": "0xb7aae46ab58f5e82586c6d977d189f36ce08cc9851ff0427f13e4651a75f30b4",
      "transactionIndex": "0x42",
      "blockHash": "0x5be0c8b6ba1cd63a13d1c6ca01a82716377f8d68ac9990937f9ea6f5524d646e",
      "blockNumber": "0x725436",
      "gasUsed": "0xfb93",
      "effectiveGasPrice": "0x15761035e",
      "from": "0xc77f7fed3b5cc8249adc428c5f44c9063b9734b4",
      "to": "0x270e88f8683660553e8ba4eb2ad7c91a1710d769",
      "contractAddress": null
    }
  ],
  "libraries": [],
  "pending": [],
  "returns": {},
  "timestamp": 1736893585,
  "chain": 11155111,
  "commit": "51a374b"
}