{
  "transactions": [
    {
      "hash": "0x2346e6ce1068faafa9206ca33b1c6d5e1743047295ed96959417b87119537c4e",
      "transactionType": "CALL",
      "contractName": null,
      "contractAddress": "0x5eb9cc76c3506942c1c0ead70e877dd5e4f00cb0",
      "function": "buy(address)",
      "arguments": [
        "0xC77f7fed3b5Cc8249aDc428c5F44C9063B9734b4"
      ],
      "transaction": {
        "from": "0xc77f7fed3b5cc8249adc428c5f44c9063b9734b4",
        "to": "0x5eb9cc76c3506942c1c0ead70e877dd5e4f00cb0",
        "gas": "0x156c8",
        "value": "0xde0b6b3a7640000",
        "input": "0xf088d547000000000000000000000000c77f7fed3b5cc8249adc428c5f44c9063b9734b4",
        "nonce": "0x1f9",
        "chainId": "0xaa36a7"
      },
      "additionalContracts": [],
      "isFixedGasLimit": false
    }
  ],
  "receipts": [
    {
      "status": "0x1",
      "cumulativeGasUsed": "0xd7eb6e",
      "logs": [
        {
          "address": "0x5eb9cc76c3506942c1c0ead70e877dd5e4f00cb0",
          "topics": [
            "0xddf252ad1be2c89b69c2b068fc378daa952ba7f163c4a11628f55a4df523b3ef",
            "0x0000000000000000000000000000000000000000000000000000000000000000",
            "0x000000000000000000000000c77f7fed3b5cc8249adc428c5f44c9063b9734b4"
          ],
          "data": "0x00000000000000000000000000000000000000000000003584bfdd1a8e5d47e3",
          "blockHash": "0x0b45740fb774ed43c7a99494cc78f8e16619863aa2d9b338342e05e4cf37ab09",
          "blockNumber": "0x724b11",
          "transactionHash": "0x2346e6ce1068faafa9206ca33b1c6d5e1743047295ed96959417b87119537c4e",
          "transactionIndex": "0x75",
          "logIndex": "0xcb",
          "removed": false
        },
        {
          "address": "0x5eb9cc76c3506942c1c0ead70e877dd5e4f00cb0",
          "topics": [
            "0xddf252ad1be2c89b69c2b068fc378daa952ba7f163c4a11628f55a4df523b3ef",
            "0x0000000000000000000000000000000000000000000000000000000000000000",
            "0x000000000000000000000000c77f7fed3b5cc8249adc428c5f44c9063b9734b4"
          ],
          "data": "0x000000000000000000000000000000000000000000000000298f196b380e12fe",
          "blockHash": "0x0b45740fb774ed43c7a99494cc78f8e16619863aa2d9b338342e05e4cf37ab09",
          "blockNumber": "0x724b11",
          "transactionHash": "0x2346e6ce1068faafa9206ca33b1c6d5e1743047295ed96959417b87119537c4e",
          "transactionIndex": "0x75",
          "logIndex": "0xcc",
          "removed": false
        },
        {
          "address": "0x5eb9cc76c3506942c1c0ead70e877dd5e4f00cb0",
          "topics": [
            "0x4afcb4a87cdbd9974efdb92ee48bc8d7cd0ae4bf217004db3d080cbaee652ca7"
          ],
          "data": "0x000000000000000000000000000000000000000000000000000000006786767400000000000000000000000000000000000000000000000000039008de90706f0000000000000000000000000000000000000000000000000de0b6b3a7640000",
          "blockHash": "0x0b45740fb774ed43c7a99494cc78f8e16619863aa2d9b338342e05e4cf37ab09",
          "blockNumber": "0x724b11",
          "transactionHash": "0x2346e6ce1068faafa9206ca33b1c6d5e1743047295ed96959417b87119537c4e",
          "transactionIndex": "0x75",
          "logIndex": "0xcd",
          "removed": false
        }
      ],
      "logsBloom": "0x00000000000000000000000000000000000000000000000000000000000000000000000000000000000000000000000000000000000000004000000000000000000000000000000000000008000000000000000000000000000000000000000000000000020000000000000004000800020000000000000000000010000000000000000000000000000000000000000000000000000000000000010000000000000000000000000000000000000000004000000000000000000000000000020000000002000000800000008000000000000000000000080000000000000020000000000000000000000000000000000000000000000000000000000000000000",
      "type": "0x2",
      "transactionHash": "0x2346e6ce1068faafa9206ca33b1c6d5e1743047295ed96959417b87119537c4e",
      "transactionIndex": "0x75",
      "blockHash": "0x0b45740fb774ed43c7a99494cc78f8e16619863aa2d9b338342e05e4cf37ab09",
      "blockNumber": "0x724b11",
      "gasUsed": "0xf82c",
      "effectiveGasPrice": "0x4fea5cd70",
      "from": "0xc77f7fed3b5cc8249adc428c5f44c9063b9734b4",
      "to": "0x5eb9cc76c3506942c1c0ead70e877dd5e4f00cb0",
      "contractAddress": null
    }
  ],
  "libraries": [],
  "pending": [],
  "returns": {},
  "timestamp": 1736865399,
  "chain": 11155111,
  "commit": "51a374b"
}