{
  "transactions": [
    {
      "hash": "0x6a06b0899fbad1f904a06cc96b96af6333b8fbcfc73fd72af95bb1faed548187",
      "transactionType": "CALL",
      "contractName": null,
      "contractAddress": "0x270e88f8683660553e8ba4eb2ad7c91a1710d769",
      "function": "sell(uint256)",
      "arguments": [
        "708960234636247651340"
      ],
      "transaction": {
        "from": "0xc77f7fed3b5cc8249adc428c5f44c9063b9734b4",
        "to": "0x270e88f8683660553e8ba4eb2ad7c91a1710d769",
        "gas": "0x16fec",
        "value": "0x0",
        "input": "0xe4849b320000000000000000000000000000000000000000000000266eccb92b5b21540c",
        "nonce": "0x8a8",
        "chainId": "0xaa36a7"
      },
      "additionalContracts": [],
      "isFixedGasLimit": false
    }
  ],
  "receipts": [
    {
      "status": "0x1",
      "cumulativeGasUsed": "0x1616473",
      "logs": [
        {
          "address": "0x270e88f8683660553e8ba4eb2ad7c91a1710d769",
          "topics": [
            "0xddf252ad1be2c89b69c2b068fc378daa952ba7f163c4a11628f55a4df523b3ef",
            "0x000000000000000000000000c77f7fed3b5cc8249adc428c5f44c9063b9734b4",
            "0x0000000000000000000000000000000000000000000000000000000000000000"
          ],
          "data": "0x0000000000000000000000000000000000000000000000266eccb92b5b21540c",
          "blockHash": "0xbde5e1c9d0a23a505bd9b8bd0c2c40c177f1047d3b4c13e071fcac65872bc5b8",
          "blockNumber": "0x725606",
          "transactionHash": "0x6a06b0899fbad1f904a06cc96b96af6333b8fbcfc73fd72af95bb1faed548187",
          "transactionIndex": "0x4f",
          "logIndex": "0x130",
          "removed": false
        },
        {
          "address": "0x270e88f8683660553e8ba4eb2ad7c91a1710d769",
          "topics": [
            "0x4afcb4a87cdbd9974efdb92ee48bc8d7cd0ae4bf217004db3d080cbaee652ca7"
          ],
          "data": "0x000000000000000000000000000000000000000000000000000000006786fa500000000000000000000000000000000000000000000000000004fa2c8a759f120000000000000000000000000000000000000000000000000dc825492cc073fe",
          "blockHash": "0xbde5e1c9d0a23a505bd9b8bd0c2c40c177f1047d3b4c13e071fcac65872bc5b8",
          "blockNumber": "0x725606",
          "transactionHash": "0x6a06b0899fbad1f904a06cc96b96af6333b8fbcfc73fd72af95bb1faed548187",
          "transactionIndex": "0x4f",
          "logIndex": "0x131",
          "removed": false
        }
      ],
      "logsBloom": "0x00000000000000000000000000000000000000000000000000000000000000000000000000000000000000000000000020000000000000004000000000000000000000000000000000000008000000000000000000000000000000000000000000000000020000000000000000000800020000000000000000000010000000000000000000010000000000000000000000000000000000000000010000000000000000000000000000000000000000004000000000000000000000000000000000000002000000800000000000000000000000000000080000008000000020000000000000000000000000000000000000000000000000000000000000000000",
      "type": "0x2",
      "transactionHash": "0x6a06b0899fbad1f904a06cc96b96af6333b8fbcfc73fd72af95bb1faed548187",
      "transactionIndex": "0x4f",
      "blockHash": "0xbde5e1c9d0a23a505bd9b8bd0c2c40c177f1047d3b4c13e071fcac65872bc5b8",
      "blockNumber": "0x725606",
      "gasUsed": "0xfb93",
      "effectiveGasPrice": "0x83c4fcc4",
      "from": "0xc77f7fed3b5cc8249adc428c5f44c9063b9734b4",
      "to": "0x270e88f8683660553e8ba4eb2ad7c91a1710d769",
      "contractAddress": null
    }
  ],
  "libraries": [],
  "pending": [],
  "returns": {},
  "timestamp": 1736899153,
  "chain": 11155111,
  "commit": "51a374b"
}