{
  "transactions": [
    {
      "hash": "0xfcbd1e0c98553786cc6b0574037af75f6a675b4c6798c8607bef93ff00d9c404",
      "transactionType": "CALL",
      "contractName": null,
      "contractAddress": "0x8aafd3ede9adb0ff97c7aebce82a919afb1c8764",
      "function": "sell(uint256)",
      "arguments": [
        "1482429"
      ],
      "transaction": {
        "from": "0xc77f7fed3b5cc8249adc428c5f44c9063b9734b4",
        "to": "0x8aafd3ede9adb0ff97c7aebce82a919afb1c8764",
        "gas": "0x16208",
        "value": "0x0",
        "input": "0xe4849b320000000000000000000000000000000000000000000000000000000000169ebd",
        "nonce": "0x10ac",
        "chainId": "0xaa36a7"
      },
      "additionalContracts": [],
      "isFixedGasLimit": false
    }
  ],
  "receipts": [
    {
      "status": "0x1",
      "cumulativeGasUsed": "0xb3546d",
      "logs": [
        {
          "address": "0x8aafd3ede9adb0ff97c7aebce82a919afb1c8764",
          "topics": [
            "0xddf252ad1be2c89b69c2b068fc378daa952ba7f163c4a11628f55a4df523b3ef",
            "0x000000000000000000000000c77f7fed3b5cc8249adc428c5f44c9063b9734b4",
            "0x0000000000000000000000000000000000000000000000000000000000000000"
          ],
          "data": "0x000000000000000000000000000000000000000000000000000000000016706a",
          "blockHash": "0x5f9de0e8abf6d66f3b42edc04d5db859daebcdb36566156d5d169ade33a09b23",
          "blockNumber": "0x73173f",
          "transactionHash": "0xfcbd1e0c98553786cc6b0574037af75f6a675b4c6798c8607bef93ff00d9c404",
          "transactionIndex": "0x7d",
          "logIndex": "0xd6",
          "removed": false
        },
        {
          "address": "0x8aafd3ede9adb0ff97c7aebce82a919afb1c8764",
          "topics": [
            "0xddf252ad1be2c89b69c2b068fc378daa952ba7f163c4a11628f55a4df523b3ef",
            "0x000000000000000000000000c77f7fed3b5cc8249adc428c5f44c9063b9734b4",
            "0x000000000000000000000000c77f7fed3b5cc8249adc428c5f44c9063b9734b4"
          ],
          "data": "0x0000000000000000000000000000000000000000000000000000000000002e53",
          "blockHash": "0x5f9de0e8abf6d66f3b42edc04d5db859daebcdb36566156d5d169ade33a09b23",
          "blockNumber": "0x73173f",
          "transactionHash": "0xfcbd1e0c98553786cc6b0574037af75f6a675b4c6798c8607bef93ff00d9c404",
          "transactionIndex": "0x7d",
          "logIndex": "0xd7",
          "removed": false
        },
        {
          "address": "0x8aafd3ede9adb0ff97c7aebce82a919afb1c8764",
          "topics": [
            "0x4afcb4a87cdbd9974efdb92ee48bc8d7cd0ae4bf217004db3d080cbaee652ca7"
          ],
          "data": "0x00000000000000000000000000000000000000000000000000000000679013b80000000000000000000000000000000000000000000000000004ff16468fa44b0000000000000000000000000000000000000000000000000000000000000824",
          "blockHash": "0x5f9de0e8abf6d66f3b42edc04d5db859daebcdb36566156d5d169ade33a09b23",
          "blockNumber": "0x73173f",
          "transactionHash": "0xfcbd1e0c98553786cc6b0574037af75f6a675b4c6798c8607bef93ff00d9c404",
          "transactionIndex": "0x7d",
          "logIndex": "0xd8",
          "removed": false
        }
      ],
      "logsBloom": "0x00000000000000000000000000000000000000000600000000000000000000000000000000000000000000000000000000000000000000004000000000000000000000000000004000000008000000000000000000000000000000000000000000000000020000000000000000000800020000000000000000000010000000000000000000000000000000000000000000000000000000000000010000000000000000000000000000000000000000004000000000000000000000000000000000000002000000800000000000000000000000000000080000000000000020000000000000000000000000000000000000000000000000000000000000000000",
      "type": "0x2",
      "transactionHash": "0xfcbd1e0c98553786cc6b0574037af75f6a675b4c6798c8607bef93ff00d9c404",
      "transactionIndex": "0x7d",
      "blockHash": "0x5f9de0e8abf6d66f3b42edc04d5db859daebcdb36566156d5d169ade33a09b23",
      "blockNumber": "0x73173f",
      "gasUsed": "0xf213",
      "effectiveGasPrice": "0x4123c7d8",
      "from": "0xc77f7fed3b5cc8249adc428c5f44c9063b9734b4",
      "to": "0x8aafd3ede9adb0ff97c7aebce82a919afb1c8764",
      "contractAddress": null
    }
  ],
  "libraries": [],
  "pending": [],
  "returns": {},
  "timestamp": 1737495482,
  "chain": 11155111,
  "commit": "1d2fb70"
}