{
  "transactions": [
    {
      "hash": "0xaa72da628d832549f2122874fbf0d79399b5e97ea0d952a9a8cfbaeb8bb2050e",
      "transactionType": "CALL",
      "contractName": null,
      "contractAddress": "0x8aafd3ede9adb0ff97c7aebce82a919afb1c8764",
      "function": "sell(uint256)",
      "arguments": [
        "676125588572146427281"
      ],
      "transaction": {
        "from": "0xc77f7fed3b5cc8249adc428c5f44c9063b9734b4",
        "to": "0x8aafd3ede9adb0ff97c7aebce82a919afb1c8764",
        "gas": "0x17270",
        "value": "0x0",
        "input": "0xe4849b32000000000000000000000000000000000000000000000024a720a08a1ab2e591",
        "nonce": "0x1235",
        "chainId": "0xaa36a7"
      },
      "additionalContracts": [],
      "isFixedGasLimit": false
    }
  ],
  "receipts": [
    {
      "status": "0x1",
      "cumulativeGasUsed": "0x8c4b2e",
      "logs": [
        {
          "address": "0x8aafd3ede9adb0ff97c7aebce82a919afb1c8764",
          "topics": [
            "0xddf252ad1be2c89b69c2b068fc378daa952ba7f163c4a11628f55a4df523b3ef",
            "0x000000000000000000000000c77f7fed3b5cc8249adc428c5f44c9063b9734b4",
            "0x0000000000000000000000000000000000000000000000000000000000000000"
          ],
          "data": "0x0000000000000000000000000000000000000000000000245c0ffb6a478a8db7",
          "blockHash": "0xac9e137704c242fa974bdbd088b127ec246d99b61825c0e7495aadfe626dfd7c",
          "blockNumber": "0x731914",
          "transactionHash": "0xaa72da628d832549f2122874fbf0d79399b5e97ea0d952a9a8cfbaeb8bb2050e",
          "transactionIndex": "0x74",
          "logIndex": "0xa3",
          "removed": false
        },
        {
          "address": "0x8aafd3ede9adb0ff97c7aebce82a919afb1c8764",
          "topics": [
            "0xddf252ad1be2c89b69c2b068fc378daa952ba7f163c4a11628f55a4df523b3ef",
            "0x000000000000000000000000c77f7fed3b5cc8249adc428c5f44c9063b9734b4",
            "0x000000000000000000000000c77f7fed3b5cc8249adc428c5f44c9063b9734b4"
          ],
          "data": "0x0000000000000000000000000000000000000000000000004b10a51fd32857da",
          "blockHash": "0xac9e137704c242fa974bdbd088b127ec246d99b61825c0e7495aadfe626dfd7c",
          "blockNumber": "0x731914",
          "transactionHash": "0xaa72da628d832549f2122874fbf0d79399b5e97ea0d952a9a8cfbaeb8bb2050e",
          "transactionIndex": "0x74",
          "logIndex": "0xa4",
          "removed": false
        },
        {
          "address": "0x8aafd3ede9adb0ff97c7aebce82a919afb1c8764",
          "topics": [
            "0x4afcb4a87cdbd9974efdb92ee48bc8d7cd0ae4bf217004db3d080cbaee652ca7"
          ],
          "data": "0x00000000000000000000000000000000000000000000000000000000679029c0000000000000000000000000000000000000000000000000000539306fa7dceb0000000000000000000000000000000000000000000000000dc8f04cd000ccb7",
          "blockHash": "0xac9e137704c242fa974bdbd088b127ec246d99b61825c0e7495aadfe626dfd7c",
          "blockNumber": "0x731914",
          "transactionHash": "0xaa72da628d832549f2122874fbf0d79399b5e97ea0d952a9a8cfbaeb8bb2050e",
          "transactionIndex": "0x74",
          "logIndex": "0xa5",
          "removed": false
        }
      ],
      "logsBloom": "0x00000000000000000000000000000000000000000600000000000000000000000000000000000000000000000000000000000000000000004000000000000000000000000000004000000008000000000000000000000000000000000000000000000000020000000000000000000800020000000000000000000010000000000000000000000000000000000000000000000000000000000000010000000000000000000000000000000000000000004000000000000000000000000000000000000002000000800000000000000000000000000000080000000000000020000000000000000000000000000000000000000000000000000000000000000000",
      "type": "0x2",
      "transactionHash": "0xaa72da628d832549f2122874fbf0d79399b5e97ea0d952a9a8cfbaeb8bb2050e",
      "transactionIndex": "0x74",
      "blockHash": "0xac9e137704c242fa974bdbd088b127ec246d99b61825c0e7495aadfe626dfd7c",
      "blockNumber": "0x731914",
      "gasUsed": "0xfd4b",
      "effectiveGasPrice": "0x3c73062a",
      "from": "0xc77f7fed3b5cc8249adc428c5f44c9063b9734b4",
      "to": "0x8aafd3ede9adb0ff97c7aebce82a919afb1c8764",
      "contractAddress": null
    }
  ],
  "libraries": [],
  "pending": [],
  "returns": {},
  "timestamp": 1737501121,
  "chain": 11155111,
  "commit": "1d2fb70"
}