{
  "transactions": [
    {
      "hash": "0xb1778bb776aa12dae543bd44ec352515c8e9c51aaa7d34ad93137550f2c9408f",
      "transactionType": "CALL",
      "contractName": null,
      "contractAddress": "0x270e88f8683660553e8ba4eb2ad7c91a1710d769",
      "function": "buy(address)",
      "arguments": [
        "0xC77f7fed3b5Cc8249aDc428c5F44C9063B9734b4"
      ],
      "transaction": {
        "from": "0xc77f7fed3b5cc8249adc428c5f44c9063b9734b4",
        "to": "0x270e88f8683660553e8ba4eb2ad7c91a1710d769",
        "gas": "0x1b30c",
        "value": "0xde0b6b3a7640000",
        "input": "0xf088d547000000000000000000000000c77f7fed3b5cc8249adc428c5f44c9063b9734b4",
        "nonce": "0x4fe",
        "chainId": "0xaa36a7"
      },
      "additionalContracts": [],
      "isFixedGasLimit": false
    }
  ],
  "receipts": [
    {
      "status": "0x1",
      "cumulativeGasUsed": "0xdbacf1",
      "logs": [
        {
          "address": "0x270e88f8683660553e8ba4eb2ad7c91a1710d769",
          "topics": [
            "0xddf252ad1be2c89b69c2b068fc378daa952ba7f163c4a11628f55a4df523b3ef",
            "0x0000000000000000000000000000000000000000000000000000000000000000",
            "0x000000000000000000000000c77f7fed3b5cc8249adc428c5f44c9063b9734b4"
          ],
          "data": "0x0000000000000000000000000000000000000000000000354ecf4a5f642a2e67",
          "blockHash": "0x51f1b61be1fe9fadb6618eac3e5ee13ab19f66b750027f430f688cdd37f725dd",
          "blockNumber": "0x725190",
          "transactionHash": "0xb1778bb776aa12dae543bd44ec352515c8e9c51aaa7d34ad93137550f2c9408f",
          "transactionIndex": "0x60",
          "logIndex": "0xa4",
          "removed": false
        },
        {
          "address": "0x270e88f8683660553e8ba4eb2ad7c91a1710d769",
          "topics": [
            "0xddf252ad1be2c89b69c2b068fc378daa952ba7f163c4a11628f55a4df523b3ef",
            "0x0000000000000000000000000000000000000000000000000000000000000000",
            "0x000000000000000000000000c77f7fed3b5cc8249adc428c5f44c9063b9734b4"
          ],
          "data": "0x000000000000000000000000000000000000000000000000296536973b67e56d",
          "blockHash": "0x51f1b61be1fe9fadb6618eac3e5ee13ab19f66b750027f430f688cdd37f725dd",
          "blockNumber": "0x725190",
          "transactionHash": "0xb1778bb776aa12dae543bd44ec352515c8e9c51aaa7d34ad93137550f2c9408f",
          "transactionIndex": "0x60",
          "logIndex": "0xa5",
          "removed": false
        },
        {
          "address": "0x270e88f8683660553e8ba4eb2ad7c91a1710d769",
          "topics": [
            "0x4afcb4a87cdbd9974efdb92ee48bc8d7cd0ae4bf217004db3d080cbaee652ca7"
          ],
          "data": "0x000000000000000000000000000000000000000000000000000000006786c4a4000000000000000000000000000000000000000000000000000393be66839d5a0000000000000000000000000000000000000000000000000de0b6b3a7640000",
          "blockHash": "0x51f1b61be1fe9fadb6618eac3e5ee13ab19f66b750027f430f688cdd37f725dd",
          "blockNumber": "0x725190",
          "transactionHash": "0xb1778bb776aa12dae543bd44ec352515c8e9c51aaa7d34ad93137550f2c9408f",
          "transactionIndex": "0x60",
          "logIndex": "0xa6",
          "removed": false
        }
      ],
      "logsBloom": "0x00000000000000000000000000000000000000000000000000000000000000000000000000000000000000000000000020000000000000004000000000000000000000000000000000000008000000000000000000000000000000000000000000000000020000000000000000000800020000000000000000000010000000000000000000010000000000000000000000000000000000000000010000000000000000000000000000000000000000004000000000000000000000000000000000000002000000800000000000000000000000000000080000008000000020000000000000000000000000000000000000000000000000000000000000000000",
      "type": "0x2",
      "transactionHash": "0xb1778bb776aa12dae543bd44ec352515c8e9c51aaa7d34ad93137550f2c9408f",
      "transactionIndex": "0x60",
      "blockHash": "0x51f1b61be1fe9fadb6618eac3e5ee13ab19f66b750027f430f688cdd37f725dd",
      "blockNumber": "0x725190",
      "gasUsed": "0x13af8",
      "effectiveGasPrice": "0x4ba46a35b",
      "from": "0xc77f7fed3b5cc8249adc428c5f44c9063b9734b4",
      "to": "0x270e88f8683660553e8ba4eb2ad7c91a1710d769",
      "contractAddress": null
    }
  ],
  "libraries": [],
  "pending": [],
  "returns": {},
  "timestamp": 1736885414,
  "chain": 11155111,
  "commit": "51a374b"
}