{
  "transactions": [
    {
      "hash": "0x108d9af2e7d08c89fef7cfafb2e10688f2b9de30e521468b4ced0ab568ad0bfb",
      "transactionType": "CALL",
      "contractName": null,
      "contractAddress": "0xbf4a322f1496e5c3d34a9bcdb4c60567b38c7de2",
      "function": "sell(uint256)",
      "arguments": [
        "987917248897336186633"
      ],
      "transaction": {
        "from": "0xc77f7fed3b5cc8249adc428c5f44c9063b9734b4",
        "to": "0xbf4a322f1496e5c3d34a9bcdb4c60567b38c7de2",
        "gas": "0x16fea",
        "value": "0x0",
        "input": "0xe4849b320000000000000000000000000000000000000000000000358e1b1fa986e39709",
        "nonce": "0x9cf",
        "chainId": "0xaa36a7"
      },
      "additionalContracts": [],
      "isFixedGasLimit": false
    }
  ],
  "receipts": [
    {
      "status": "0x1",
      "cumulativeGasUsed": "0xb5ae12",
      "logs": [
        {
          "address": "0xbf4a322f1496e5c3d34a9bcdb4c60567b38c7de2",
          "topics": [
            "0xddf252ad1be2c89b69c2b068fc378daa952ba7f163c4a11628f55a4df523b3ef",
            "0x000000000000000000000000c77f7fed3b5cc8249adc428c5f44c9063b9734b4",
            "0x0000000000000000000000000000000000000000000000000000000000000000"
          ],
          "data": "0x0000000000000000000000000000000000000000000000358e1b1fa986e39709",
          "blockHash": "0xd7cdd70c20bfc756fc30942e7df3f679e076337918aabfc95bd388558f7daebc",
          "blockNumber": "0x72597d",
          "transactionHash": "0x108d9af2e7d08c89fef7cfafb2e10688f2b9de30e521468b4ced0ab568ad0bfb",
          "transactionIndex": "0x68",
          "logIndex": "0x93",
          "removed": false
        },
        {
          "address": "0xbf4a322f1496e5c3d34a9bcdb4c60567b38c7de2",
          "topics": [
            "0x4afcb4a87cdbd9974efdb92ee48bc8d7cd0ae4bf217004db3d080cbaee652ca7"
          ],
          "data": "0x000000000000000000000000000000000000000000000000000000006787241400000000000000000000000000000000000000000000000000039233b5bcaaee0000000000000000000000000000000000000000000000000dc7e3f47955e4e0",
          "blockHash": "0xd7cdd70c20bfc756fc30942e7df3f679e076337918aabfc95bd388558f7daebc",
          "blockNumber": "0x72597d",
          "transactionHash": "0x108d9af2e7d08c89fef7cfafb2e10688f2b9de30e521468b4ced0ab568ad0bfb",
          "transactionIndex": "0x68",
          "logIndex": "0x94",
          "removed": false
        }
      ],
      "logsBloom": "0x00000000000000000000000000000000000000000000000000000000000000000000000000000000000000000000000000000000000000004000000000000000000000000000000000000008000000000000001000000000000000000000000000000000020000000000000000000800020000000000000000000010000000000000000000000000000000000000000000000000000008000000010000000000000000000000000000000000000000004000000000000000000000000000000000000002000000800000000000001000000000000000080000000000000020000000000000000000000000000000000000000000000000000000000000000000",
      "type": "0x2",
      "transactionHash": "0x108d9af2e7d08c89fef7cfafb2e10688f2b9de30e521468b4ced0ab568ad0bfb",
      "transactionIndex": "0x68",
      "blockHash": "0xd7cdd70c20bfc756fc30942e7df3f679e076337918aabfc95bd388558f7daebc",
      "blockNumber": "0x72597d",
      "gasUsed": "0xfb91",
      "effectiveGasPrice": "0x2bf882451",
      "from": "0xc77f7fed3b5cc8249adc428c5f44c9063b9734b4",
      "to": "0xbf4a322f1496e5c3d34a9bcdb4c60567b38c7de2",
      "contractAddress": null
    }
  ],
  "libraries": [],
  "pending": [],
  "returns": {},
  "timestamp": 1736909847,
  "chain": 11155111,
  "commit": "51a374b"
}