{
  "transactions": [
    {
      "hash": "0x6711e33c1a0b96c6003f9324ff3fde27a268b4a3c3e7dd79af4c04b5521dd623",
      "transactionType": "CALL",
      "contractName": null,
      "contractAddress": "0x8aafd3ede9adb0ff97c7aebce82a919afb1c8764",
      "function": "buy(address)",
      "arguments": [
        "0xC77f7fed3b5Cc8249aDc428c5F44C9063B9734b4"
      ],
      "transaction": {
        "from": "0xc77f7fed3b5cc8249adc428c5f44c9063b9734b4",
        "to": "0x8aafd3ede9adb0ff97c7aebce82a919afb1c8764",
        "gas": "0x156ea",
        "value": "0xde0b6b3a7640000",
        "input": "0xf088d547000000000000000000000000c77f7fed3b5cc8249adc428c5f44c9063b9734b4",
        "nonce": "0x10ea",
        "chainId": "0xaa36a7"
      },
      "additionalContracts": [],
      "isFixedGasLimit": false
    }
  ],
  "receipts": [
    {
      "status": "0x1",
      "cumulativeGasUsed": "0xa35f19",
      "logs": [
        {
          "address": "0x8aafd3ede9adb0ff97c7aebce82a919afb1c8764",
          "topics": [
            "0xddf252ad1be2c89b69c2b068fc378daa952ba7f163c4a11628f55a4df523b3ef",
            "0x0000000000000000000000000000000000000000000000000000000000000000",
            "0x000000000000000000000000c77f7fed3b5cc8249adc428c5f44c9063b9734b4"
          ],
          "data": "0x000000000000000000000000000000000000000000000025e703bb71a069f6a4",
          "blockHash": "0x97721daceb528308b014c14d888118477f4021c308c680089336d371ad73c4dd",
          "blockNumber": "0x73178e",
          "transactionHash": "0x6711e33c1a0b96c6003f9324ff3fde27a268b4a3c3e7dd79af4c04b5521dd623",
          "transactionIndex": "0x73",
          "logIndex": "0xa4",
          "removed": false
        },
        {
          "address": "0x8aafd3ede9adb0ff97c7aebce82a919afb1c8764",
          "topics": [
            "0xddf252ad1be2c89b69c2b068fc378daa952ba7f163c4a11628f55a4df523b3ef",
            "0x0000000000000000000000000000000000000000000000000000000000000000",
            "0x000000000000000000000000c77f7fed3b5cc8249adc428c5f44c9063b9734b4"
          ],
          "data": "0x0000000000000000000000000000000000000000000000001d6eb8c72b20469a",
          "blockHash": "0x97721daceb528308b014c14d888118477f4021c308c680089336d371ad73c4dd",
          "blockNumber": "0x73178e",
          "transactionHash": "0x6711e33c1a0b96c6003f9324ff3fde27a268b4a3c3e7dd79af4c04b5521dd623",
          "transactionIndex": "0x73",
          "logIndex": "0xa5",
          "removed": false
        },
        {
          "address": "0x8aafd3ede9adb0ff97c7aebce82a919afb1c8764",
          "topics": [
            "0x4afcb4a87cdbd9974efdb92ee48bc8d7cd0ae4bf217004db3d080cbaee652ca7"
          ],
          "data": "0x000000000000000000000000000000000000000000000000000000006790176c0000000000000000000000000000000000000000000000000005083604ded1a70000000000000000000000000000000000000000000000000de0b6b3a7640000",
          "blockHash": "0x97721daceb528308b014c14d888118477f4021c308c680089336d371ad73c4dd",
          "blockNumber": "0x73178e",
          "transactionHash": "0x6711e33c1a0b96c6003f9324ff3fde27a268b4a3c3e7dd79af4c04b5521dd623",
          "transactionIndex": "0x73",
          "logIndex": "0xa6",
          "removed": false
        }
      ],
      "logsBloom": "0x00000000000000000000000000000000000000000600000000000000000000000000000000000000000000000000000000000000000000004000000000000000000000000000004000000008000000000000000000000000000000000000000000000000020000000000000000000800020000000000000000000010000000000000000000000000000000000000000000000000000000000000010000000000000000000000000000000000000000004000000000000000000000000000000000000002000000800000000000000000000000000000080000000000000020000000000000000000000000000000000000000000000000000000000000000000",
      "type": "0x2",
      "transactionHash": "0x6711e33c1a0b96c6003f9324ff3fde27a268b4a3c3e7dd79af4c04b5521dd623",
      "transactionIndex": "0x73",
      "blockHash": "0x97721daceb528308b014c14d888118477f4021c308c680089336d371ad73c4dd",
      "blockNumber": "0x73178e",
      "gasUsed": "0xf844",
      "effectiveGasPrice": "0x4a4a87e0",
      "from": "0xc77f7fed3b5cc8249adc428c5f44c9063b9734b4",
      "to": "0x8aafd3ede9adb0ff97c7aebce82a919afb1c8764",
      "contractAddress": null
    }
  ],
  "libraries": [],
  "pending": [],
  "returns": {},
  "timestamp": 1737496429,
  "chain": 11155111,
  "commit": "1d2fb70"
}