{
  "transactions": [
    {
      "hash": "0x53ae66447db1668cb79ca37efa903faad010a14af1d99f0a70e63180a50e5e15",
      "transactionType": "CALL",
      "contractName": null,
      "contractAddress": "0x5eb9cc76c3506942c1c0ead70e877dd5e4f00cb0",
      "function": "buy(address)",
      "arguments": [
        "0xC77f7fed3b5Cc8249aDc428c5F44C9063B9734b4"
      ],
      "transaction": {
        "from": "0xc77f7fed3b5cc8249adc428c5f44c9063b9734b4",
        "to": "0x5eb9cc76c3506942c1c0ead70e877dd5e4f00cb0",
        "gas": "0x156c8",
        "value": "0xde0b6b3a7640000",
        "input": "0xf088d547000000000000000000000000c77f7fed3b5cc8249adc428c5f44c9063b9734b4",
        "nonce": "0x208",
        "chainId": "0xaa36a7"
      },
      "additionalContracts": [],
      "isFixedGasLimit": false
    }
  ],
  "receipts": [
    {
      "status": "0x1",
      "cumulativeGasUsed": "0x8d2c57",
      "logs": [
        {
          "address": "0x5eb9cc76c3506942c1c0ead70e877dd5e4f00cb0",
          "topics": [
            "0xddf252ad1be2c89b69c2b068fc378daa952ba7f163c4a11628f55a4df523b3ef",
            "0x0000000000000000000000000000000000000000000000000000000000000000",
            "0x000000000000000000000000c77f7fed3b5cc8249adc428c5f44c9063b9734b4"
          ],
          "data": "0x00000000000000000000000000000000000000000000003584b9bf83c453e9b3",
          "blockHash": "0x306cf97e5a6189e4fd8b86d0343411c59a05333b71190c098ab0da8ce9ff0ee9",
          "blockNumber": "0x724b23",
          "transactionHash": "0x53ae66447db1668cb79ca37efa903faad010a14af1d99f0a70e63180a50e5e15",
          "transactionIndex": "0x4c",
          "logIndex": "0x6b",
          "removed": false
        },
        {
          "address": "0x5eb9cc76c3506942c1c0ead70e877dd5e4f00cb0",
          "topics": [
            "0xddf252ad1be2c89b69c2b068fc378daa952ba7f163c4a11628f55a4df523b3ef",
            "0x0000000000000000000000000000000000000000000000000000000000000000",
            "0x000000000000000000000000c77f7fed3b5cc8249adc428c5f44c9063b9734b4"
          ],
          "data": "0x000000000000000000000000000000000000000000000000298f14ab7c5613bb",
          "blockHash": "0x306cf97e5a6189e4fd8b86d0343411c59a05333b71190c098ab0da8ce9ff0ee9",
          "blockNumber": "0x724b23",
          "transactionHash": "0x53ae66447db1668cb79ca37efa903faad010a14af1d99f0a70e63180a50e5e15",
          "transactionIndex": "0x4c",
          "logIndex": "0x6c",
          "removed": false
        },
        {
          "address": "0x5eb9cc76c3506942c1c0ead70e877dd5e4f00cb0",
          "topics": [
            "0x4afcb4a87cdbd9974efdb92ee48bc8d7cd0ae4bf217004db3d080cbaee652ca7"
          ],
          "data": "0x000000000000000000000000000000000000000000000000000000006786774c0000000000000000000000000000000000000000000000000003900946c7f9de0000000000000000000000000000000000000000000000000de0b6b3a7640000",
          "blockHash": "0x306cf97e5a6189e4fd8b86d0343411c59a05333b71190c098ab0da8ce9ff0ee9",
          "blockNumber": "0x724b23",
          "transactionHash": "0x53ae66447db1668cb79ca37efa903faad010a14af1d99f0a70e63180a50e5e15",
          "transactionIndex": "0x4c",
          "logIndex": "0x6d",
          "removed": false
        }
      ],
      "logsBloom": "0x00000000000000000000000000000000000000000000000000000000000000000000000000000000000000000000000000000000000000004000000000000000000000000000000000000008000000000000000000000000000000000000000000000000020000000000000004000800020000000000000000000010000000000000000000000000000000000000000000000000000000000000010000000000000000000000000000000000000000004000000000000000000000000000020000000002000000800000008000000000000000000000080000000000000020000000000000000000000000000000000000000000000000000000000000000000",
      "type": "0x2",
      "transactionHash": "0x53ae66447db1668cb79ca37efa903faad010a14af1d99f0a70e63180a50e5e15",
      "transactionIndex": "0x4c",
      "blockHash": "0x306cf97e5a6189e4fd8b86d0343411c59a05333b71190c098ab0da8ce9ff0ee9",
      "blockNumber": "0x724b23",
      "gasUsed": "0xf82c",
      "effectiveGasPrice": "0x59109d702",
      "from": "0xc77f7fed3b5cc8249adc428c5f44c9063b9734b4",
      "to": "0x5eb9cc76c3506942c1c0ead70e877dd5e4f00cb0",
      "contractAddress": null
    }
  ],
  "libraries": [],
  "pending": [],
  "returns": {},
  "timestamp": 1736865613,
  "chain": 11155111,
  "commit": "51a374b"
}