{
  "transactions": [
    {
      "hash": "0x47440c994691a1c2761da6bfa355af1c29a40e15409ab4d532ddbe2cfc88576e",
      "transactionType": "CALL",
      "contractName": null,
      "contractAddress": "0xbf4a322f1496e5c3d34a9bcdb4c60567b38c7de2",
      "function": "buy(address)",
      "arguments": [
        "0xC77f7fed3b5Cc8249aDc428c5F44C9063B9734b4"
      ],
      "transaction": {
        "from": "0xc77f7fed3b5cc8249adc428c5f44c9063b9734b4",
        "to": "0xbf4a322f1496e5c3d34a9bcdb4c60567b38c7de2",
        "gas": "0x1b309",
        "value": "0xde0b6b3a7640000",
        "input": "0xf088d547000000000000000000000000c77f7fed3b5cc8249adc428c5f44c9063b9734b4",
        "nonce": "0xcc6",
        "chainId": "0xaa36a7"
      },
      "additionalContracts": [],
      "isFixedGasLimit": false
    }
  ],
  "receipts": [
    {
      "status": "0x1",
      "cumulativeGasUsed": "0x13572ce",
      "logs": [
        {
          "address": "0xbf4a322f1496e5c3d34a9bcdb4c60567b38c7de2",
          "topics": [
            "0xddf252ad1be2c89b69c2b068fc378daa952ba7f163c4a11628f55a4df523b3ef",
            "0x0000000000000000000000000000000000000000000000000000000000000000",
            "0x000000000000000000000000c77f7fed3b5cc8249adc428c5f44c9063b9734b4"
          ],
          "data": "0x000000000000000000000000000000000000000000000034d6a94965616378b8",
          "blockHash": "0xcbbb4f639e4d1ab742a54b335d6a316fcbaacdc7f4ea3c5e5353d9a22a5172c0",
          "blockNumber": "0x725d16",
          "transactionHash": "0x47440c994691a1c2761da6bfa355af1c29a40e15409ab4d532ddbe2cfc88576e",
          "transactionIndex": "0x9f",
          "logIndex": "0xe6",
          "removed": false
        },
        {
          "address": "0xbf4a322f1496e5c3d34a9bcdb4c60567b38c7de2",
          "topics": [
            "0xddf252ad1be2c89b69c2b068fc378daa952ba7f163c4a11628f55a4df523b3ef",
            "0x0000000000000000000000000000000000000000000000000000000000000000",
            "0x000000000000000000000000c77f7fed3b5cc8249adc428c5f44c9063b9734b4"
          ],
          "data": "0x0000000000000000000000000000000000000000000000002907e9f39e73bdc5",
          "blockHash": "0xcbbb4f639e4d1ab742a54b335d6a316fcbaacdc7f4ea3c5e5353d9a22a5172c0",
          "blockNumber": "0x725d16",
          "transactionHash": "0x47440c994691a1c2761da6bfa355af1c29a40e15409ab4d532ddbe2cfc88576e",
          "transactionIndex": "0x9f",
          "logIndex": "0xe7",
          "removed": false
        },
        {
          "address": "0xbf4a322f1496e5c3d34a9bcdb4c60567b38c7de2",
          "topics": [
            "0x4afcb4a87cdbd9974efdb92ee48bc8d7cd0ae4bf217004db3d080cbaee652ca7"
          ],
          "data": "0x0000000000000000000000000000000000000000000000000000000067874f7c00000000000000000000000000000000000000000000000000039bc811ede73a0000000000000000000000000000000000000000000000000de0b6b3a7640000",
          "blockHash": "0xcbbb4f639e4d1ab742a54b335d6a316fcbaacdc7f4ea3c5e5353d9a22a5172c0",
          "blockNumber": "0x725d16",
          "transactionHash": "0x47440c994691a1c2761da6bfa355af1c29a40e15409ab4d532ddbe2cfc88576e",
          "transactionIndex": "0x9f",
          "logIndex": "0xe8",
          "removed": false
        }
      ],
      "logsBloom": "0x00000000000000000000000000000000000000000000000000000000000000000000000000000000000000000000000000000000000000004000000000000000000000000000000000000008000000000000001000000000000000000000000000000000020000000000000000000800020000000000000000000010000000000000000000000000000000000000000000000000000008000000010000000000000000000000000000000000000000004000000000000000000000000000000000000002000000800000000000001000000000000000080000000000000020000000000000000000000000000000000000000000000000000000000000000000",
      "type": "0x2",
      "transactionHash": "0x47440c994691a1c2761da6bfa355af1c29a40e15409ab4d532ddbe2cfc88576e",
      "transactionIndex": "0x9f",
      "blockHash": "0xcbbb4f639e4d1ab742a54b335d6a316fcbaacdc7f4ea3c5e5353d9a22a5172c0",
      "blockNumber": "0x725d16",
      "gasUsed": "0x13af6",
      "effectiveGasPrice": "0x2f9059c65",
      "from": "0xc77f7fed3b5cc8249adc428c5f44c9063b9734b4",
      "to": "0xbf4a322f1496e5c3d34a9bcdb4c60567b38c7de2",
      "contractAddress": null
    }
  ],
  "libraries": [],
  "pending": [],
  "returns": {},
  "timestamp": 1736920958,
  "chain": 11155111,
  "commit": "51a374b"
}