{
  "transactions": [
    {
      "hash": "0x6b73980fcda84f118ffb78d3ba3d0d5095f5a30d2a3d8c5aa42389882e0cb614",
      "transactionType": "CALL",
      "contractName": null,
      "contractAddress": "0x8aafd3ede9adb0ff97c7aebce82a919afb1c8764",
      "function": "sell(uint256)",
      "arguments": [
        "745158381201"
      ],
      "transaction": {
        "from": "0xc77f7fed3b5cc8249adc428c5f44c9063b9734b4",
        "to": "0x8aafd3ede9adb0ff97c7aebce82a919afb1c8764",
        "gas": "0x1722a",
        "value": "0x0",
        "input": "0xe4849b32000000000000000000000000000000000000000000000000000000ad7ee68e91",
        "nonce": "0x15d2",
        "chainId": "0xaa36a7"
      },
      "additionalContracts": [],
      "isFixedGasLimit": false
    }
  ],
  "receipts": [
    {
      "status": "0x1",
      "cumulativeGasUsed": "0x79bca8",
      "logs": [
        {
          "address": "0x8aafd3ede9adb0ff97c7aebce82a919afb1c8764",
          "topics": [
            "0xddf252ad1be2c89b69c2b068fc378daa952ba7f163c4a11628f55a4df523b3ef",
            "0x000000000000000000000000c77f7fed3b5cc8249adc428c5f44c9063b9734b4",
            "0x0000000000000000000000000000000000000000000000000000000000000000"
          ],
          "data": "0x000000000000000000000000000000000000000000000000000000ac1b94d728",
          "blockHash": "0x269ebb14ed8c2a31e51a992f44e5f1c0207e45ad3fc3b908630a5b24de5fa15c",
          "blockNumber": "0x731d4e",
          "transactionHash": "0x6b73980fcda84f118ffb78d3ba3d0d5095f5a30d2a3d8c5aa42389882e0cb614",
          "transactionIndex": "0x54",
          "logIndex": "0x7a",
          "removed": false
        },
        {
          "address": "0x8aafd3ede9adb0ff97c7aebce82a919afb1c8764",
          "topics": [
            "0xddf252ad1be2c89b69c2b068fc378daa952ba7f163c4a11628f55a4df523b3ef",
            "0x000000000000000000000000c77f7fed3b5cc8249adc428c5f44c9063b9734b4",
            "0x000000000000000000000000c77f7fed3b5cc8249adc428c5f44c9063b9734b4"
          ],
          "data": "0x000000000000000000000000000000000000000000000000000000016351b769",
          "blockHash": "0x269ebb14ed8c2a31e51a992f44e5f1c0207e45ad3fc3b908630a5b24de5fa15c",
          "blockNumber": "0x731d4e",
          "transactionHash": "0x6b73980fcda84f118ffb78d3ba3d0d5095f5a30d2a3d8c5aa42389882e0cb614",
          "transactionIndex": "0x54",
          "logIndex": "0x7b",
          "removed": false
        },
        {
          "address": "0x8aafd3ede9adb0ff97c7aebce82a919afb1c8764",
          "topics": [
            "0x4afcb4a87cdbd9974efdb92ee48bc8d7cd0ae4bf217004db3d080cbaee652ca7"
          ],
          "data": "0x0000000000000000000000000000000000000000000000000000000067905c9000000000000000000000000000000000000000000000000000137f11d47f96b200000000000000000000000000000000000000000000000000000000f3bcc56a",
          "blockHash": "0x269ebb14ed8c2a31e51a992f44e5f1c0207e45ad3fc3b908630a5b24de5fa15c",
          "blockNumber": "0x731d4e",
          "transactionHash": "0x6b73980fcda84f118ffb78d3ba3d0d5095f5a30d2a3d8c5aa42389882e0cb614",
          "transactionIndex": "0x54",
          "logIndex": "0x7c",
          "removed": false
        }
      ],
      "logsBloom": "0x00000000000000000000000000000000000000000600000000000000000000000000000000000000000000000000000000000000000000004000000000000000000000000000004000000008000000000000000000000000000000000000000000000000020000000000000000000800020000000000000000000010000000000000000000000000000000000000000000000000000000000000010000000000000000000000000000000000000000004000000000000000000000000000000000000002000000800000000000000000000000000000080000000000000020000000000000000000000000000000000000000000000000000000000000000000",
      "type": "0x2",
      "transactionHash": "0x6b73980fcda84f118ffb78d3ba3d0d5095f5a30d2a3d8c5aa42389882e0cb614",
      "transactionIndex": "0x54",
      "blockHash": "0x269ebb14ed8c2a31e51a992f44e5f1c0207e45ad3fc3b908630a5b24de5fa15c",
      "blockNumber": "0x731d4e",
      "gasUsed": "0xfd1b",
      "effectiveGasPrice": "0x68e75502",
      "from": "0xc77f7fed3b5cc8249adc428c5f44c9063b9734b4",
      "to": "0x8aafd3ede9adb0ff97c7aebce82a919afb1c8764",
      "contractAddress": null
    }
  ],
  "libraries": [],
  "pending": [],
  "returns": {},
  "timestamp": 1737514129,
  "chain": 11155111,
  "commit": "1d2fb70"
}