{
  "transactions": [
    {
      "hash": "0x9daf27160d9ab4b121bbf832b367a99716f1da0891bd1b0b6a7f43fc7d541e4f",
      "transactionType": "CALL",
      "contractName": null,
      "contractAddress": "0xbf4a322f1496e5c3d34a9bcdb4c60567b38c7de2",
      "function": "buy(address)",
      "arguments": [
        "0xC77f7fed3b5Cc8249aDc428c5F44C9063B9734b4"
      ],
      "transaction": {
        "from": "0xc77f7fed3b5cc8249adc428c5f44c9063b9734b4",
        "to": "0xbf4a322f1496e5c3d34a9bcdb4c60567b38c7de2",
        "gas": "0x1b309",
        "value": "0xde0b6b3a7640000",
        "input": "0xf088d547000000000000000000000000c77f7fed3b5cc8249adc428c5f44c9063b9734b4",
        "nonce": "0xe02",
        "chainId": "0xaa36a7"
      },
      "additionalContracts": [],
      "isFixedGasLimit": false
    }
  ],
  "receipts": [
    {
      "status": "0x1",
      "cumulativeGasUsed": "0xb55857",
      "logs": [
        {
          "address": "0xbf4a322f1496e5c3d34a9bcdb4c60567b38c7de2",
          "topics": [
            "0xddf252ad1be2c89b69c2b068fc378daa952ba7f163c4a11628f55a4df523b3ef",
            "0x0000000000000000000000000000000000000000000000000000000000000000",
            "0x000000000000000000000000c77f7fed3b5cc8249adc428c5f44c9063b9734b4"
          ],
          "data": "0x0000000000000000000000000000000000000000000000349c7d8ece5b04ac45",
          "blockHash": "0x4267a32b00929e96d32ac8f046aebc886bf8b99946fb59cd897416c40f81c238",
          "blockNumber": "0x7266e9",
          "transactionHash": "0x9daf27160d9ab4b121bbf832b367a99716f1da0891bd1b0b6a7f43fc7d541e4f",
          "transactionIndex": "0x3b",
          "logIndex": "0x65",
          "removed": false
        },
        {
          "address": "0xbf4a322f1496e5c3d34a9bcdb4c60567b38c7de2",
          "topics": [
            "0xddf252ad1be2c89b69c2b068fc378daa952ba7f163c4a11628f55a4df523b3ef",
            "0x0000000000000000000000000000000000000000000000000000000000000000",
            "0x000000000000000000000000c77f7fed3b5cc8249adc428c5f44c9063b9734b4"
          ],
          "data": "0x00000000000000000000000000000000000000000000000028dabe0426c2d8b9",
          "blockHash": "0x4267a32b00929e96d32ac8f046aebc886bf8b99946fb59cd897416c40f81c238",
          "blockNumber": "0x7266e9",
          "transactionHash": "0x9daf27160d9ab4b121bbf832b367a99716f1da0891bd1b0b6a7f43fc7d541e4f",
          "transactionIndex": "0x3b",
          "logIndex": "0x66",
          "removed": false
        },
        {
          "address": "0xbf4a322f1496e5c3d34a9bcdb4c60567b38c7de2",
          "topics": [
            "0x4afcb4a87cdbd9974efdb92ee48bc8d7cd0ae4bf217004db3d080cbaee652ca7"
          ],
          "data": "0x000000000000000000000000000000000000000000000000000000006787c63800000000000000000000000000000000000000000000000000039fc57586f3130000000000000000000000000000000000000000000000000de0b6b3a7640000",
          "blockHash": "0x4267a32b00929e96d32ac8f046aebc886bf8b99946fb59cd897416c40f81c238",
          "blockNumber": "0x7266e9",
          "transactionHash": "0x9daf27160d9ab4b121bbf832b367a99716f1da0891bd1b0b6a7f43fc7d541e4f",
          "transactionIndex": "0x3b",
          "logIndex": "0x67",
          "removed": false
        }
      ],
      "logsBloom": "0x00000000000000000000000000000000000000000000000000000000000000000000000000000000000000000000000000000000000000004000000000000000000000000000000000000008000000000000001000000000000000000000000000000000020000000000000000000800020000000000000000000010000000000000000000000000000000000000000000000000000008000000010000000000000000000000000000000000000000004000000000000000000000000000000000000002000000800000000000001000000000000000080000000000000020000000000000000000000000000000000000000000000000000000000000000000",
      "type": "0x2",
      "transactionHash": "0x9daf27160d9ab4b121bbf832b367a99716f1da0891bd1b0b6a7f43fc7d541e4f",
      "transactionIndex": "0x3b",
      "blockHash": "0x4267a32b00929e96d32ac8f046aebc886bf8b99946fb59cd897416c40f81c238",
      "blockNumber": "0x7266e9",
      "gasUsed": "0x13af6",
      "effectiveGasPrice": "0x39576bafb",
      "from": "0xc77f7fed3b5cc8249adc428c5f44c9063b9734b4",
      "to": "0xbf4a322f1496e5c3d34a9bcdb4c60567b38c7de2",
      "contractAddress": null
    }
  ],
  "libraries": [],
  "pending": [],
  "returns": {},
  "timestamp": 1736951354,
  "chain": 11155111,
  "commit": "51a374b"
}