{
  "transactions": [
    {
      "hash": "0x7ecbf103cfd92ca9be03c9b13bfc363ab3dcd1356cbc08734e8237d81b3e2d62",
      "transactionType": "CALL",
      "contractName": null,
      "contractAddress": "0xd40b4069bc749de67bffd768cf3d1c516ded837b",
      "function": "borrowMore(uint256)",
      "arguments": [
        "67128929999999932"
      ],
      "transaction": {
        "from": "0xc77f7fed3b5cc8249adc428c5f44c9063b9734b4",
        "to": "0xd40b4069bc749de67bffd768cf3d1c516ded837b",
        "gas": "0x1db7c",
        "value": "0x0",
        "input": "0x9d0bf2e900000000000000000000000000000000000000000000000000ee7d67facd53bc",
        "nonce": "0x192b",
        "chainId": "0xaa36a7"
      },
      "additionalContracts": [],
      "isFixedGasLimit": false
    }
  ],
  "receipts": [
    {
      "status": "0x1",
      "cumulativeGasUsed": "0x811416",
      "logs": [
        {
          "address": "0xd40b4069bc749de67bffd768cf3d1c516ded837b",
          "topics": [
            "0x03bbe564cb1b78e43195eeadbde99e5b89b19345862807fcfb59f884e4165e25"
          ],
          "data": "0x00000000000000000000000038818e389773445cd73adbaa37b8b169f458c6e100000000000000000000000000000000000000000000000000001250e6cedbbf",
          "blockHash": "0xff4c83d0429e204c431d2f20d6d2e176262e2b8b64ca7e3871228974dd79c79a",
          "blockNumber": "0x739b7a",
          "transactionHash": "0x7ecbf103cfd92ca9be03c9b13bfc363ab3dcd1356cbc08734e8237d81b3e2d62",
          "transactionIndex": "0x44",
          "logIndex": "0x87",
          "removed": false
        },
        {
          "address": "0xd40b4069bc749de67bffd768cf3d1c516ded837b",
          "topics": [
            "0x03bbe564cb1b78e43195eeadbde99e5b89b19345862807fcfb59f884e4165e25"
          ],
          "data": "0x000000000000000000000000c77f7fed3b5cc8249adc428c5f44c9063b9734b40000000000000000000000000000000000000000000000000001cb70d0689080",
          "blockHash": "0xff4c83d0429e204c431d2f20d6d2e176262e2b8b64ca7e3871228974dd79c79a",
          "blockNumber": "0x739b7a",
          "transactionHash": "0x7ecbf103cfd92ca9be03c9b13bfc363ab3dcd1356cbc08734e8237d81b3e2d62",
          "transactionIndex": "0x44",
          "logIndex": "0x88",
          "removed": false
        },
        {
          "address": "0xd40b4069bc749de67bffd768cf3d1c516ded837b",
          "topics": [
            "0xaec00f5213a37254bc68a26b0685d1a5b2bf513e1e587c94c7df7f4a62b56c9c"
          ],
          "data": "0x0000000000000000000000000000000000000000000000008ac7230489e7ffff0000000000000000000000000000000000000000000000000111a9675a1413b200000000000000000000000000000000000000000000000088ef1e941813f3b200000000000000000000000000000000000000000000003daa0a4a6e9eaaa9ae",
          "blockHash": "0xff4c83d0429e204c431d2f20d6d2e176262e2b8b64ca7e3871228974dd79c79a",
          "blockNumber": "0x739b7a",
          "transactionHash": "0x7ecbf103cfd92ca9be03c9b13bfc363ab3dcd1356cbc08734e8237d81b3e2d62",
          "transactionIndex": "0x44",
          "logIndex": "0x89",
          "removed": false
        },
        {
          "address": "0xd40b4069bc749de67bffd768cf3d1c516ded837b",
          "topics": [
            "0x4afcb4a87cdbd9974efdb92ee48bc8d7cd0ae4bf217004db3d080cbaee652ca7"
          ],
          "data": "0x0000000000000000000000000000000000000000000000000000000067967fc4000000000000000000000000000000000000000000000000001f5e2886e35a5200000000000000000000000000000000000000000000000000003d0dac06dc7f",
          "blockHash": "0xff4c83d0429e204c431d2f20d6d2e176262e2b8b64ca7e3871228974dd79c79a",
          "blockNumber": "0x739b7a",
          "transactionHash": "0x7ecbf103cfd92ca9be03c9b13bfc363ab3dcd1356cbc08734e8237d81b3e2d62",
          "transactionIndex": "0x44",
          "logIndex": "0x8a",
          "removed": false
        }
      ],
      "logsBloom": "0x00000000000000000000000000000100400000000000000000000000000000000008000000000000000000000000000000002000000000004000000000000000000000000000000000000000000000000000000000000000000000000000000000000000000000000000000000000000020000000000000000000000000000000000000000000000000000000000000000010000000000000000000000000000000000000000000000000400000400004000000000000000000000001000000000000000000000000000000000000000000000000000000000000000000000000000000000000000000000000000000000000000000000000000200000000000",
      "type": "0x2",
      "transactionHash": "0x7ecbf103cfd92ca9be03c9b13bfc363ab3dcd1356cbc08734e8237d81b3e2d62",
      "transactionIndex": "0x44",
      "blockHash": "0xff4c83d0429e204c431d2f20d6d2e176262e2b8b64ca7e3871228974dd79c79a",
      "blockNumber": "0x739b7a",
      "gasUsed": "0x1583f",
      "effectiveGasPrice": "0x25efec102",
      "from": "0xc77f7fed3b5cc8249adc428c5f44c9063b9734b4",
      "to": "0xd40b4069bc749de67bffd768cf3d1c516ded837b",
      "contractAddress": null
    }
  ],
  "libraries": [],
  "pending": [],
  "returns": {},
  "timestamp": 1737916356,
  "chain": 11155111,
  "commit": "f5162e9"
}