{
  "transactions": [
    {
      "hash": "0xc0c494a72cad9639a08130c92d89adb2ff5d38ecd3fc6dedf1d69ee15175e08a",
      "transactionType": "CALL",
      "contractName": null,
      "contractAddress": "0xbf4a322f1496e5c3d34a9bcdb4c60567b38c7de2",
      "function": "buy(address)",
      "arguments": [
        "0xC77f7fed3b5Cc8249aDc428c5F44C9063B9734b4"
      ],
      "transaction": {
        "from": "0xc77f7fed3b5cc8249adc428c5f44c9063b9734b4",
        "to": "0xbf4a322f1496e5c3d34a9bcdb4c60567b38c7de2",
        "gas": "0x1b309",
        "value": "0xde0b6b3a7640000",
        "input": "0xf088d547000000000000000000000000c77f7fed3b5cc8249adc428c5f44c9063b9734b4",
        "nonce": "0x940",
        "chainId": "0xaa36a7"
      },
      "additionalContracts": [],
      "isFixedGasLimit": false
    }
  ],
  "receipts": [
    {
      "status": "0x1",
      "cumulativeGasUsed": "0x9a2ba3",
      "logs": [
        {
          "address": "0xbf4a322f1496e5c3d34a9bcdb4c60567b38c7de2",
          "topics": [
            "0xddf252ad1be2c89b69c2b068fc378daa952ba7f163c4a11628f55a4df523b3ef",
            "0x0000000000000000000000000000000000000000000000000000000000000000",
            "0x000000000000000000000000c77f7fed3b5cc8249adc428c5f44c9063b9734b4"
          ],
          "data": "0x0000000000000000000000000000000000000000000000357f80fa8ac93b689f",
          "blockHash": "0xdf7a99b379fd49782e312fa11221c3a8792ae9a7a5d12898ed86a3fa24505ec7",
          "blockNumber": "0x7258cb",
          "transactionHash": "0xc0c494a72cad9639a08130c92d89adb2ff5d38ecd3fc6dedf1d69ee15175e08a",
          "transactionIndex": "0x81",
          "logIndex": "0xb0",
          "removed": false
        },
        {
          "address": "0xbf4a322f1496e5c3d34a9bcdb4c60567b38c7de2",
          "topics": [
            "0xddf252ad1be2c89b69c2b068fc378daa952ba7f163c4a11628f55a4df523b3ef",
            "0x0000000000000000000000000000000000000000000000000000000000000000",
            "0x000000000000000000000000c77f7fed3b5cc8249adc428c5f44c9063b9734b4"
          ],
          "data": "0x000000000000000000000000000000000000000000000000298b069f708c3c63",
          "blockHash": "0xdf7a99b379fd49782e312fa11221c3a8792ae9a7a5d12898ed86a3fa24505ec7",
          "blockNumber": "0x7258cb",
          "transactionHash": "0xc0c494a72cad9639a08130c92d89adb2ff5d38ecd3fc6dedf1d69ee15175e08a",
          "transactionIndex": "0x81",
          "logIndex": "0xb1",
          "removed": false
        },
        {
          "address": "0xbf4a322f1496e5c3d34a9bcdb4c60567b38c7de2",
          "topics": [
            "0x4afcb4a87cdbd9974efdb92ee48bc8d7cd0ae4bf217004db3d080cbaee652ca7"
          ],
          "data": "0x0000000000000000000000000000000000000000000000000000000067871bb0000000000000000000000000000000000000000000000000000390649924a5b70000000000000000000000000000000000000000000000000de0b6b3a7640000",
          "blockHash": "0xdf7a99b379fd49782e312fa11221c3a8792ae9a7a5d12898ed86a3fa24505ec7",
          "blockNumber": "0x7258cb",
          "transactionHash": "0xc0c494a72cad9639a08130c92d89adb2ff5d38ecd3fc6dedf1d69ee15175e08a",
          "transactionIndex": "0x81",
          "logIndex": "0xb2",
          "removed": false
        }
      ],
      "logsBloom": "0x00000000000000000000000000000000000000000000000000000000000000000000000000000000000000000000000000000000000000004000000000000000000000000000000000000008000000000000001000000000000000000000000000000000020000000000000000000800020000000000000000000010000000000000000000000000000000000000000000000000000008000000010000000000000000000000000000000000000000004000000000000000000000000000000000000002000000800000000000001000000000000000080000000000000020000000000000000000000000000000000000000000000000000000000000000000",
      "type": "0x2",
      "transactionHash": "0xc0c494a72cad9639a08130c92d89adb2ff5d38ecd3fc6dedf1d69ee15175e08a",
      "transactionIndex": "0x81",
      "blockHash": "0xdf7a99b379fd49782e312fa11221c3a8792ae9a7a5d12898ed86a3fa24505ec7",
      "blockNumber": "0x7258cb",
      "gasUsed": "0x13af6",
      "effectiveGasPrice": "0x50bb27e2",
      "from": "0xc77f7fed3b5cc8249adc428c5f44c9063b9734b4",
      "to": "0xbf4a322f1496e5c3d34a9bcdb4c60567b38c7de2",
      "contractAddress": null
    }
  ],
  "libraries": [],
  "pending": [],
  "returns": {},
  "timestamp": 1736907697,
  "chain": 11155111,
  "commit": "51a374b"
}