{
  "transactions": [
    {
      "hash": "0xbcc7e8e0770a16272310e90adce088d4d4393510ac0888e73b121b53dcca2d72",
      "transactionType": "CALL",
      "contractName": null,
      "contractAddress": "0x8aafd3ede9adb0ff97c7aebce82a919afb1c8764",
      "function": "sell(uint256)",
      "arguments": [
        "2843644064131"
      ],
      "transaction": {
        "from": "0xc77f7fed3b5cc8249adc428c5f44c9063b9734b4",
        "to": "0x8aafd3ede9adb0ff97c7aebce82a919afb1c8764",
        "gas": "0x15daa",
        "value": "0x0",
        "input": "0xe4849b32000000000000000000000000000000000000000000000000000002961664f183",
        "nonce": "0x1149",
        "chainId": "0xaa36a7"
      },
      "additionalContracts": [],
      "isFixedGasLimit": false
    }
  ],
  "receipts": [
    {
      "status": "0x1",
      "cumulativeGasUsed": "0x90e5cf",
      "logs": [
        {
          "address": "0x8aafd3ede9adb0ff97c7aebce82a919afb1c8764",
          "topics": [
            "0xddf252ad1be2c89b69c2b068fc378daa952ba7f163c4a11628f55a4df523b3ef",
            "0x000000000000000000000000c77f7fed3b5cc8249adc428c5f44c9063b9734b4",
            "0x0000000000000000000000000000000000000000000000000000000000000000"
          ],
          "data": "0x00000000000000000000000000000000000000000000000000000290ca706c82",
          "blockHash": "0x5499e2018773bb51b8d4be883f348348cf29c3f1f8c8202f2c79512fda1df5f8",
          "blockNumber": "0x731802",
          "transactionHash": "0xbcc7e8e0770a16272310e90adce088d4d4393510ac0888e73b121b53dcca2d72",
          "transactionIndex": "0x85",
          "logIndex": "0x8e",
          "removed": false
        },
        {
          "address": "0x8aafd3ede9adb0ff97c7aebce82a919afb1c8764",
          "topics": [
            "0xddf252ad1be2c89b69c2b068fc378daa952ba7f163c4a11628f55a4df523b3ef",
            "0x000000000000000000000000c77f7fed3b5cc8249adc428c5f44c9063b9734b4",
            "0x000000000000000000000000c77f7fed3b5cc8249adc428c5f44c9063b9734b4"
          ],
          "data": "0x000000000000000000000000000000000000000000000000000000054bf48501",
          "blockHash": "0x5499e2018773bb51b8d4be883f348348cf29c3f1f8c8202f2c79512fda1df5f8",
          "blockNumber": "0x731802",
          "transactionHash": "0xbcc7e8e0770a16272310e90adce088d4d4393510ac0888e73b121b53dcca2d72",
          "transactionIndex": "0x85",
          "logIndex": "0x8f",
          "removed": false
        },
        {
          "address": "0x8aafd3ede9adb0ff97c7aebce82a919afb1c8764",
          "topics": [
            "0x4afcb4a87cdbd9974efdb92ee48bc8d7cd0ae4bf217004db3d080cbaee652ca7"
          ],
          "data": "0x0000000000000000000000000000000000000000000000000000000067901cdc00000000000000000000000000000000000000000000000000051653cb011b1100000000000000000000000000000000000000000000000000000000f2b3fe15",
          "blockHash": "0x5499e2018773bb51b8d4be883f348348cf29c3f1f8c8202f2c79512fda1df5f8",
          "blockNumber": "0x731802",
          "transactionHash": "0xbcc7e8e0770a16272310e90adce088d4d4393510ac0888e73b121b53dcca2d72",
          "transactionIndex": "0x85",
          "logIndex": "0x90",
          "removed": false
        }
      ],
      "logsBloom": "0x00000000000000000000000000000000000000000600000000000000000000000000000000000000000000000000000000000000000000004000000000000000000000000000004000000008000000000000000000000000000000000000000000000000020000000000000000000800020000000000000000000010000000000000000000000000000000000000000000000000000000000000010000000000000000000000000000000000000000004000000000000000000000000000000000000002000000800000000000000000000000000000080000000000000020000000000000000000000000000000000000000000000000000000000000000000",
      "type": "0x2",
      "transactionHash": "0xbcc7e8e0770a16272310e90adce088d4d4393510ac0888e73b121b53dcca2d72",
      "transactionIndex": "0x85",
      "blockHash": "0x5499e2018773bb51b8d4be883f348348cf29c3f1f8c8202f2c79512fda1df5f8",
      "blockNumber": "0x731802",
      "gasUsed": "0xfd27",
      "effectiveGasPrice": "0x3b6d3340",
      "from": "0xc77f7fed3b5cc8249adc428c5f44c9063b9734b4",
      "to": "0x8aafd3ede9adb0ff97c7aebce82a919afb1c8764",
      "contractAddress": null
    }
  ],
  "libraries": [],
  "pending": [],
  "returns": {},
  "timestamp": 1737497821,
  "chain": 11155111,
  "commit": "1d2fb70"
}