{
  "transactions": [
    {
      "hash": "0x3e362a63e4a9736d25eaf5dd01c8009ee618535a3ff8f02bf72193e95e045cd3",
      "transactionType": "CALL",
      "contractName": null,
      "contractAddress": "0x8aafd3ede9adb0ff97c7aebce82a919afb1c8764",
      "function": "sell(uint256)",
      "arguments": [
        "1712435164653653247"
      ],
      "transaction": {
        "from": "0xc77f7fed3b5cc8249adc428c5f44c9063b9734b4",
        "to": "0x8aafd3ede9adb0ff97c7aebce82a919afb1c8764",
        "gas": "0x15dca",
        "value": "0x0",
        "input": "0xe4849b3200000000000000000000000000000000000000000000000017c3cab59a118cff",
        "nonce": "0x14d3",
        "chainId": "0xaa36a7"
      },
      "additionalContracts": [],
      "isFixedGasLimit": false
    }
  ],
  "receipts": [
    {
      "status": "0x1",
      "cumulativeGasUsed": "0xecf15c",
      "logs": [
        {
          "address": "0x8aafd3ede9adb0ff97c7aebce82a919afb1c8764",
          "topics": [
            "0xddf252ad1be2c89b69c2b068fc378daa952ba7f163c4a11628f55a4df523b3ef",
            "0x000000000000000000000000c77f7fed3b5cc8249adc428c5f44c9063b9734b4",
            "0x0000000000000000000000000000000000000000000000000000000000000000"
          ],
          "data": "0x00000000000000000000000000000000000000000000000017931f1a8c8c4a56",
          "blockHash": "0x01fbb938b193e498386066b4f131d96a34918ede41e879c0fcd91fc23f73911c",
          "blockNumber": "0x731c31",
          "transactionHash": "0x3e362a63e4a9736d25eaf5dd01c8009ee618535a3ff8f02bf72193e95e045cd3",
          "transactionIndex": "0x6b",
          "logIndex": "0x89",
          "removed": false
        },
        {
          "address": "0x8aafd3ede9adb0ff97c7aebce82a919afb1c8764",
          "topics": [
            "0xddf252ad1be2c89b69c2b068fc378daa952ba7f163c4a11628f55a4df523b3ef",
            "0x000000000000000000000000c77f7fed3b5cc8249adc428c5f44c9063b9734b4",
            "0x000000000000000000000000c77f7fed3b5cc8249adc428c5f44c9063b9734b4"
          ],
          "data": "0x0000000000000000000000000000000000000000000000000030ab9b0d8542a9",
          "blockHash": "0x01fbb938b193e498386066b4f131d96a34918ede41e879c0fcd91fc23f73911c",
          "blockNumber": "0x731c31",
          "transactionHash": "0x3e362a63e4a9736d25eaf5dd01c8009ee618535a3ff8f02bf72193e95e045cd3",
          "transactionIndex": "0x6b",
          "logIndex": "0x8a",
          "removed": false
        },
        {
          "address": "0x8aafd3ede9adb0ff97c7aebce82a919afb1c8764",
          "topics": [
            "0x4afcb4a87cdbd9974efdb92ee48bc8d7cd0ae4bf217004db3d080cbaee652ca7"
          ],
          "data": "0x0000000000000000000000000000000000000000000000000000000067904f28000000000000000000000000000000000000000000000000001095aacba13e30000000000000000000000000000000000000000000000000001c6627cc6fad36",
          "blockHash": "0x01fbb938b193e498386066b4f131d96a34918ede41e879c0fcd91fc23f73911c",
          "blockNumber": "0x731c31",
          "transactionHash": "0x3e362a63e4a9736d25eaf5dd01c8009ee618535a3ff8f02bf72193e95e045cd3",
          "transactionIndex": "0x6b",
          "logIndex": "0x8b",
          "removed": false
        }
      ],
      "logsBloom": "0x00000000000000000000000000000000000000000600000000000000000000000000000000000000000000000000000000000000000000004000000000000000000000000000004000000008000000000000000000000000000000000000000000000000020000000000000000000800020000000000000000000010000000000000000000000000000000000000000000000000000000000000010000000000000000000000000000000000000000004000000000000000000000000000000000000002000000800000000000000000000000000000080000000000000020000000000000000000000000000000000000000000000000000000000000000000",
      "type": "0x2",
      "transactionHash": "0x3e362a63e4a9736d25eaf5dd01c8009ee618535a3ff8f02bf72193e95e045cd3",
      "transactionIndex": "0x6b",
      "blockHash": "0x01fbb938b193e498386066b4f131d96a34918ede41e879c0fcd91fc23f73911c",
      "blockNumber": "0x731c31",
      "gasUsed": "0xfd3f",
      "effectiveGasPrice": "0x1416d3090",
      "from": "0xc77f7fed3b5cc8249adc428c5f44c9063b9734b4",
      "to": "0x8aafd3ede9adb0ff97c7aebce82a919afb1c8764",
      "contractAddress": null
    }
  ],
  "libraries": [],
  "pending": [],
  "returns": {},
  "timestamp": 1737510698,
  "chain": 11155111,
  "commit": "1d2fb70"
}