{
  "transactions": [
    {
      "hash": "0x930b28246cc135da4d13680f402d3d049d15d4ae4dbf3999fd0dda7e109e50d2",
      "transactionType": "CALL",
      "contractName": null,
      "contractAddress": "0x8aafd3ede9adb0ff97c7aebce82a919afb1c8764",
      "function": "sell(uint256)",
      "arguments": [
        "43684586"
      ],
      "transaction": {
        "from": "0xc77f7fed3b5cc8249adc428c5f44c9063b9734b4",
        "to": "0x8aafd3ede9adb0ff97c7aebce82a919afb1c8764",
        "gas": "0x15d88",
        "value": "0x0",
        "input": "0xe4849b3200000000000000000000000000000000000000000000000000000000029a92ea",
        "nonce": "0x166d",
        "chainId": "0xaa36a7"
      },
      "additionalContracts": [],
      "isFixedGasLimit": false
    }
  ],
  "receipts": [
    {
      "status": "0x1",
      "cumulativeGasUsed": "0xe1f3a5",
      "logs": [
        {
          "address": "0x8aafd3ede9adb0ff97c7aebce82a919afb1c8764",
          "topics": [
            "0xddf252ad1be2c89b69c2b068fc378daa952ba7f163c4a11628f55a4df523b3ef",
            "0x000000000000000000000000c77f7fed3b5cc8249adc428c5f44c9063b9734b4",
            "0x0000000000000000000000000000000000000000000000000000000000000000"
          ],
          "data": "0x0000000000000000000000000000000000000000000000000000000002953dc6",
          "blockHash": "0x0dfe93a7be4fb96ff748a1ce2fbd36aa3198c1d0aaf13abb38b37416fdb70997",
          "blockNumber": "0x731e1c",
          "transactionHash": "0x930b28246cc135da4d13680f402d3d049d15d4ae4dbf3999fd0dda7e109e50d2",
          "transactionIndex": "0x95",
          "logIndex": "0xf9",
          "removed": false
        },
        {
          "address": "0x8aafd3ede9adb0ff97c7aebce82a919afb1c8764",
          "topics": [
            "0xddf252ad1be2c89b69c2b068fc378daa952ba7f163c4a11628f55a4df523b3ef",
            "0x000000000000000000000000c77f7fed3b5cc8249adc428c5f44c9063b9734b4",
            "0x000000000000000000000000c77f7fed3b5cc8249adc428c5f44c9063b9734b4"
          ],
          "data": "0x0000000000000000000000000000000000000000000000000000000000055524",
          "blockHash": "0x0dfe93a7be4fb96ff748a1ce2fbd36aa3198c1d0aaf13abb38b37416fdb70997",
          "blockNumber": "0x731e1c",
          "transactionHash": "0x930b28246cc135da4d13680f402d3d049d15d4ae4dbf3999fd0dda7e109e50d2",
          "transactionIndex": "0x95",
          "logIndex": "0xfa",
          "removed": false
        },
        {
          "address": "0x8aafd3ede9adb0ff97c7aebce82a919afb1c8764",
          "topics": [
            "0x4afcb4a87cdbd9974efdb92ee48bc8d7cd0ae4bf217004db3d080cbaee652ca7"
          ],
          "data": "0x00000000000000000000000000000000000000000000000000000000679066380000000000000000000000000000000000000000000000000015465f7fe309c4000000000000000000000000000000000000000000000000000000000003fdde",
          "blockHash": "0x0dfe93a7be4fb96ff748a1ce2fbd36aa3198c1d0aaf13abb38b37416fdb70997",
          "blockNumber": "0x731e1c",
          "transactionHash": "0x930b28246cc135da4d13680f402d3d049d15d4ae4dbf3999fd0dda7e109e50d2",
          "transactionIndex": "0x95",
          "logIndex": "0xfb",
          "removed": false
        }
      ],
      "logsBloom": "0x00000000000000000000000000000000000000000600000000000000000000000000000000000000000000000000000000000000000000004000000000000000000000000000004000000008000000000000000000000000000000000000000000000000020000000000000000000800020000000000000000000010000000000000000000000000000000000000000000000000000000000000010000000000000000000000000000000000000000004000000000000000000000000000000000000002000000800000000000000000000000000000080000000000000020000000000000000000000000000000000000000000000000000000000000000000",
      "type": "0x2",
      "transactionHash": "0x930b28246cc135da4d13680f402d3d049d15d4ae4dbf3999fd0dda7e109e50d2",
      "transactionIndex": "0x95",
      "blockHash": "0x0dfe93a7be4fb96ff748a1ce2fbd36aa3198c1d0aaf13abb38b37416fdb70997",
      "blockNumber": "0x731e1c",
      "gasUsed": "0xfd0f",
      "effectiveGasPrice": "0x3c08b163",
      "from": "0xc77f7fed3b5cc8249adc428c5f44c9063b9734b4",
      "to": "0x8aafd3ede9adb0ff97c7aebce82a919afb1c8764",
      "contractAddress": null
    }
  ],
  "libraries": [],
  "pending": [],
  "returns": {},
  "timestamp": 1737516601,
  "chain": 11155111,
  "commit": "1d2fb70"
}