{
  "transactions": [
    {
      "hash": "0x83b09f1ec2c6ad206d4735dc534ea94f3ca4c23dd92b1b871ac713e50ca164f9",
      "transactionType": "CALL",
      "contractName": null,
      "contractAddress": "0x8aafd3ede9adb0ff97c7aebce82a919afb1c8764",
      "function": "sell(uint256)",
      "arguments": [
        "346931138108021"
      ],
      "transaction": {
        "from": "0xc77f7fed3b5cc8249adc428c5f44c9063b9734b4",
        "to": "0x8aafd3ede9adb0ff97c7aebce82a919afb1c8764",
        "gas": "0x1724d",
        "value": "0x0",
        "input": "0xe4849b3200000000000000000000000000000000000000000000000000013b88333f9a75",
        "nonce": "0x1224",
        "chainId": "0xaa36a7"
      },
      "additionalContracts": [],
      "isFixedGasLimit": false
    }
  ],
  "receipts": [
    {
      "status": "0x1",
      "cumulativeGasUsed": "0xa8025d",
      "logs": [
        {
          "address": "0x8aafd3ede9adb0ff97c7aebce82a919afb1c8764",
          "topics": [
            "0xddf252ad1be2c89b69c2b068fc378daa952ba7f163c4a11628f55a4df523b3ef",
            "0x000000000000000000000000c77f7fed3b5cc8249adc428c5f44c9063b9734b4",
            "0x0000000000000000000000000000000000000000000000000000000000000000"
          ],
          "data": "0x00000000000000000000000000000000000000000000000000013901fd972895",
          "blockHash": "0xcf5ab0a146350302d583e3405eb76e2d383c348d6bbe4459e5ce8e59b68f4154",
          "blockNumber": "0x731901",
          "transactionHash": "0x83b09f1ec2c6ad206d4735dc534ea94f3ca4c23dd92b1b871ac713e50ca164f9",
          "transactionIndex": "0x75",
          "logIndex": "0x75",
          "removed": false
        },
        {
          "address": "0x8aafd3ede9adb0ff97c7aebce82a919afb1c8764",
          "topics": [
            "0xddf252ad1be2c89b69c2b068fc378daa952ba7f163c4a11628f55a4df523b3ef",
            "0x000000000000000000000000c77f7fed3b5cc8249adc428c5f44c9063b9734b4",
            "0x000000000000000000000000c77f7fed3b5cc8249adc428c5f44c9063b9734b4"
          ],
          "data": "0x0000000000000000000000000000000000000000000000000000028635a871e0",
          "blockHash": "0xcf5ab0a146350302d583e3405eb76e2d383c348d6bbe4459e5ce8e59b68f4154",
          "blockNumber": "0x731901",
          "transactionHash": "0x83b09f1ec2c6ad206d4735dc534ea94f3ca4c23dd92b1b871ac713e50ca164f9",
          "transactionIndex": "0x75",
          "logIndex": "0x76",
          "removed": false
        },
        {
          "address": "0x8aafd3ede9adb0ff97c7aebce82a919afb1c8764",
          "topics": [
            "0x4afcb4a87cdbd9974efdb92ee48bc8d7cd0ae4bf217004db3d080cbaee652ca7"
          ],
          "data": "0x00000000000000000000000000000000000000000000000000000000679028dc0000000000000000000000000000000000000000000000000005364a9076879d000000000000000000000000000000000000000000000000000000768115dfc2",
          "blockHash": "0xcf5ab0a146350302d583e3405eb76e2d383c348d6bbe4459e5ce8e59b68f4154",
          "blockNumber": "0x731901",
          "transactionHash": "0x83b09f1ec2c6ad206d4735dc534ea94f3ca4c23dd92b1b871ac713e50ca164f9",
          "transactionIndex": "0x75",
          "logIndex": "0x77",
          "removed": false
        }
      ],
      "logsBloom": "0x00000000000000000000000000000000000000000600000000000000000000000000000000000000000000000000000000000000000000004000000000000000000000000000004000000008000000000000000000000000000000000000000000000000020000000000000000000800020000000000000000000010000000000000000000000000000000000000000000000000000000000000010000000000000000000000000000000000000000004000000000000000000000000000000000000002000000800000000000000000000000000000080000000000000020000000000000000000000000000000000000000000000000000000000000000000",
      "type": "0x2",
      "transactionHash": "0x83b09f1ec2c6ad206d4735dc534ea94f3ca4c23dd92b1b871ac713e50ca164f9",
      "transactionIndex": "0x75",
      "blockHash": "0xcf5ab0a146350302d583e3405eb76e2d383c348d6bbe4459e5ce8e59b68f4154",
      "blockNumber": "0x731901",
      "gasUsed": "0xfd33",
      "effectiveGasPrice": "0x5f55c6b9",
      "from": "0xc77f7fed3b5cc8249adc428c5f44c9063b9734b4",
      "to": "0x8aafd3ede9adb0ff97c7aebce82a919afb1c8764",
      "contractAddress": null
    }
  ],
  "libraries": [],
  "pending": [],
  "returns": {},
  "timestamp": 1737500894,
  "chain": 11155111,
  "commit": "1d2fb70"
}