{
  "transactions": [
    {
      "hash": "0xa1259b1039397960456afcf19a365b0209871ce8996576e54f8f8938298262f5",
      "transactionType": "CALL",
      "contractName": null,
      "contractAddress": "0xf2036fb9ab82c46a7b9be2c4463941d8fc3e47a0",
      "function": "buy(address)",
      "arguments": [
        "0xC77f7fed3b5Cc8249aDc428c5F44C9063B9734b4"
      ],
      "transaction": {
        "from": "0xc77f7fed3b5cc8249adc428c5f44c9063b9734b4",
        "to": "0xf2036fb9ab82c46a7b9be2c4463941d8fc3e47a0",
        "gas": "0x1b2c8",
        "value": "0xde0b6b3a7640000",
        "input": "0xf088d547000000000000000000000000c77f7fed3b5cc8249adc428c5f44c9063b9734b4",
        "nonce": "0x185f",
        "chainId": "0xaa36a7"
      },
      "additionalContracts": [],
      "isFixedGasLimit": false
    }
  ],
  "receipts": [
    {
      "status": "0x1",
      "cumulativeGasUsed": "0x420abd",
      "logs": [
        {
          "address": "0xf2036fb9ab82c46a7b9be2c4463941d8fc3e47a0",
          "topics": [
            "0xddf252ad1be2c89b69c2b068fc378daa952ba7f163c4a11628f55a4df523b3ef",
            "0x0000000000000000000000000000000000000000000000000000000000000000",
            "0x000000000000000000000000c77f7fed3b5cc8249adc428c5f44c9063b9734b4"
          ],
          "data": "0x000000000000000000000000000000000000000000000035ab028ac154c71b30",
          "blockHash": "0xa6e09d622409887f9e0c08f587912a64dfaa6f833b98f76999e4c8c9aade0824",
          "blockNumber": "0x7363e5",
          "transactionHash": "0xa1259b1039397960456afcf19a365b0209871ce8996576e54f8f8938298262f5",
          "transactionIndex": "0x3d",
          "logIndex": "0x55",
          "removed": false
        },
        {
          "address": "0xf2036fb9ab82c46a7b9be2c4463941d8fc3e47a0",
          "topics": [
            "0xddf252ad1be2c89b69c2b068fc378daa952ba7f163c4a11628f55a4df523b3ef",
            "0x0000000000000000000000000000000000000000000000000000000000000000",
            "0x000000000000000000000000c77f7fed3b5cc8249adc428c5f44c9063b9734b4"
          ],
          "data": "0x00000000000000000000000000000000000000000000000029accf52156cec36",
          "blockHash": "0xa6e09d622409887f9e0c08f587912a64dfaa6f833b98f76999e4c8c9aade0824",
          "blockNumber": "0x7363e5",
          "transactionHash": "0xa1259b1039397960456afcf19a365b0209871ce8996576e54f8f8938298262f5",
          "transactionIndex": "0x3d",
          "logIndex": "0x56",
          "removed": false
        },
        {
          "address": "0xf2036fb9ab82c46a7b9be2c4463941d8fc3e47a0",
          "topics": [
            "0x4afcb4a87cdbd9974efdb92ee48bc8d7cd0ae4bf217004db3d080cbaee652ca7"
          ],
          "data": "0x000000000000000000000000000000000000000000000000000000006793c53c000000000000000000000000000000000000000000000000000393d6e1a1f5be0000000000000000000000000000000000000000000000000de0b6b3a7640000",
          "blockHash": "0xa6e09d622409887f9e0c08f587912a64dfaa6f833b98f76999e4c8c9aade0824",
          "blockNumber": "0x7363e5",
          "transactionHash": "0xa1259b1039397960456afcf19a365b0209871ce8996576e54f8f8938298262f5",
          "transactionIndex": "0x3d",
          "logIndex": "0x57",
          "removed": false
        }
      ],
      "logsBloom": "0x00000000000000000000000000000000000000000000000000000000000000000000000000000000000000000000000000000000000000004000000000000000000000000000000000000008080000000000000000000000000000000000000000000000020000000000000000000800020000000000000000000010000000000000000000000000000000000000000000000000000000000000010000000000000000000000000000000000000000004000000000000000000000000000000000000002000000800000000000000000000000004000080000000000000020000000000000000000000000000000000000000000000000001000000000000000",
      "type": "0x2",
      "transactionHash": "0xa1259b1039397960456afcf19a365b0209871ce8996576e54f8f8938298262f5",
      "transactionIndex": "0x3d",
      "blockHash": "0xa6e09d622409887f9e0c08f587912a64dfaa6f833b98f76999e4c8c9aade0824",
      "blockNumber": "0x7363e5",
      "gasUsed": "0x13ac7",
      "effectiveGasPrice": "0x10fe37e045",
      "from": "0xc77f7fed3b5cc8249adc428c5f44c9063b9734b4",
      "to": "0xf2036fb9ab82c46a7b9be2c4463941d8fc3e47a0",
      "contractAddress": null
    }
  ],
  "libraries": [],
  "pending": [],
  "returns": {},
  "timestamp": 1737737533,
  "chain": 11155111,
  "commit": "f5162e9"
}