{
  "transactions": [
    {
      "hash": "0x4a2c5e5c829aa741f36cf19aacde9932210f42099a7897d1d9a0682e4c2a285a",
      "transactionType": "CALL",
      "contractName": null,
      "contractAddress": "0xbf4a322f1496e5c3d34a9bcdb4c60567b38c7de2",
      "function": "sell(uint256)",
      "arguments": [
        "983110654846812532671"
      ],
      "transaction": {
        "from": "0xc77f7fed3b5cc8249adc428c5f44c9063b9734b4",
        "to": "0xbf4a322f1496e5c3d34a9bcdb4c60567b38c7de2",
        "gas": "0x16fea",
        "value": "0x0",
        "input": "0xe4849b320000000000000000000000000000000000000000000000354b66abd6f5ebafbf",
        "nonce": "0xb31",
        "chainId": "0xaa36a7"
      },
      "additionalContracts": [],
      "isFixedGasLimit": false
    }
  ],
  "receipts": [
    {
      "status": "0x1",
      "cumulativeGasUsed": "0xd88e73",
      "logs": [
        {
          "address": "0xbf4a322f1496e5c3d34a9bcdb4c60567b38c7de2",
          "topics": [
            "0xddf252ad1be2c89b69c2b068fc378daa952ba7f163c4a11628f55a4df523b3ef",
            "0x000000000000000000000000c77f7fed3b5cc8249adc428c5f44c9063b9734b4",
            "0x0000000000000000000000000000000000000000000000000000000000000000"
          ],
          "data": "0x0000000000000000000000000000000000000000000000354b66abd6f5ebafbf",
          "blockHash": "0x32fcfeaa9adf97134a151bedea011075d3d594ed884d74db29aec2f0b3d774c2",
          "blockNumber": "0x725b30",
          "transactionHash": "0x4a2c5e5c829aa741f36cf19aacde9932210f42099a7897d1d9a0682e4c2a285a",
          "transactionIndex": "0x6e",
          "logIndex": "0xc2",
          "removed": false
        },
        {
          "address": "0xbf4a322f1496e5c3d34a9bcdb4c60567b38c7de2",
          "topics": [
            "0x4afcb4a87cdbd9974efdb92ee48bc8d7cd0ae4bf217004db3d080cbaee652ca7"
          ],
          "data": "0x000000000000000000000000000000000000000000000000000000006787389c000000000000000000000000000000000000000000000000000396abeb1eb4270000000000000000000000000000000000000000000000000dc7e3e94c74ecfb",
          "blockHash": "0x32fcfeaa9adf97134a151bedea011075d3d594ed884d74db29aec2f0b3d774c2",
          "blockNumber": "0x725b30",
          "transactionHash": "0x4a2c5e5c829aa741f36cf19aacde9932210f42099a7897d1d9a0682e4c2a285a",
          "transactionIndex": "0x6e",
          "logIndex": "0xc3",
          "removed": false
        }
      ],
      "logsBloom": "0x00000000000000000000000000000000000000000000000000000000000000000000000000000000000000000000000000000000000000004000000000000000000000000000000000000008000000000000001000000000000000000000000000000000020000000000000000000800020000000000000000000010000000000000000000000000000000000000000000000000000008000000010000000000000000000000000000000000000000004000000000000000000000000000000000000002000000800000000000001000000000000000080000000000000020000000000000000000000000000000000000000000000000000000000000000000",
      "type": "0x2",
      "transactionHash": "0x4a2c5e5c829aa741f36cf19aacde9932210f42099a7897d1d9a0682e4c2a285a",
      "transactionIndex": "0x6e",
      "blockHash": "0x32fcfeaa9adf97134a151bedea011075d3d594ed884d74db29aec2f0b3d774c2",
      "blockNumber": "0x725b30",
      "gasUsed": "0xfb91",
      "effectiveGasPrice": "0x59ab8a21",
      "from": "0xc77f7fed3b5cc8249adc428c5f44c9063b9734b4",
      "to": "0xbf4a322f1496e5c3d34a9bcdb4c60567b38c7de2",
      "contractAddress": null
    }
  ],
  "libraries": [],
  "pending": [],
  "returns": {},
  "timestamp": 1736915103,
  "chain": 11155111,
  "commit": "51a374b"
}