{
  "transactions": [
    {
      "hash": "0xed59527f8d48dde07e2fd928d2c29d1adee614e32112e3418d73bcdd476654da",
      "transactionType": "CALL",
      "contractName": null,
      "contractAddress": "0x5eb9cc76c3506942c1c0ead70e877dd5e4f00cb0",
      "function": "buy(address)",
      "arguments": [
        "0xC77f7fed3b5Cc8249aDc428c5F44C9063B9734b4"
      ],
      "transaction": {
        "from": "0xc77f7fed3b5cc8249adc428c5f44c9063b9734b4",
        "to": "0x5eb9cc76c3506942c1c0ead70e877dd5e4f00cb0",
        "gas": "0x1b30c",
        "value": "0xde0b6b3a7640000",
        "input": "0xf088d547000000000000000000000000c77f7fed3b5cc8249adc428c5f44c9063b9734b4",
        "nonce": "0x31a",
        "chainId": "0xaa36a7"
      },
      "additionalContracts": [],
      "isFixedGasLimit": false
    }
  ],
  "receipts": [
    {
      "status": "0x1",
      "cumulativeGasUsed": "0xa3cc2f",
      "logs": [
        {
          "address": "0x5eb9cc76c3506942c1c0ead70e877dd5e4f00cb0",
          "topics": [
            "0xddf252ad1be2c89b69c2b068fc378daa952ba7f163c4a11628f55a4df523b3ef",
            "0x0000000000000000000000000000000000000000000000000000000000000000",
            "0x000000000000000000000000c77f7fed3b5cc8249adc428c5f44c9063b9734b4"
          ],
          "data": "0x00000000000000000000000000000000000000000000003575840afaac6b2c32",
          "blockHash": "0x1e4a9b2b7e35c5937fd90741dd79028e05298a30973dad9af86c5de788237c0e",
          "blockNumber": "0x724f00",
          "transactionHash": "0xed59527f8d48dde07e2fd928d2c29d1adee614e32112e3418d73bcdd476654da",
          "transactionIndex": "0x58",
          "logIndex": "0x70",
          "removed": false
        },
        {
          "address": "0x5eb9cc76c3506942c1c0ead70e877dd5e4f00cb0",
          "topics": [
            "0xddf252ad1be2c89b69c2b068fc378daa952ba7f163c4a11628f55a4df523b3ef",
            "0x0000000000000000000000000000000000000000000000000000000000000000",
            "0x000000000000000000000000c77f7fed3b5cc8249adc428c5f44c9063b9734b4"
          ],
          "data": "0x0000000000000000000000000000000000000000000000002983451330021084",
          "blockHash": "0x1e4a9b2b7e35c5937fd90741dd79028e05298a30973dad9af86c5de788237c0e",
          "blockNumber": "0x724f00",
          "transactionHash": "0xed59527f8d48dde07e2fd928d2c29d1adee614e32112e3418d73bcdd476654da",
          "transactionIndex": "0x58",
          "logIndex": "0x71",
          "removed": false
        },
        {
          "address": "0x5eb9cc76c3506942c1c0ead70e877dd5e4f00cb0",
          "topics": [
            "0x4afcb4a87cdbd9974efdb92ee48bc8d7cd0ae4bf217004db3d080cbaee652ca7"
          ],
          "data": "0x000000000000000000000000000000000000000000000000000000006786a5b40000000000000000000000000000000000000000000000000003910cc333dc190000000000000000000000000000000000000000000000000de0b6b3a7640000",
          "blockHash": "0x1e4a9b2b7e35c5937fd90741dd79028e05298a30973dad9af86c5de788237c0e",
          "blockNumber": "0x724f00",
          "transactionHash": "0xed59527f8d48dde07e2fd928d2c29d1adee614e32112e3418d73bcdd476654da",
          "transactionIndex": "0x58",
          "logIndex": "0x72",
          "removed": false
        }
      ],
      "logsBloom": "0x00000000000000000000000000000000000000000000000000000000000000000000000000000000000000000000000000000000000000004000000000000000000000000000000000000008000000000000000000000000000000000000000000000000020000000000000004000800020000000000000000000010000000000000000000000000000000000000000000000000000000000000010000000000000000000000000000000000000000004000000000000000000000000000020000000002000000800000008000000000000000000000080000000000000020000000000000000000000000000000000000000000000000000000000000000000",
      "type": "0x2",
      "transactionHash": "0xed59527f8d48dde07e2fd928d2c29d1adee614e32112e3418d73bcdd476654da",
      "transactionIndex": "0x58",
      "blockHash": "0x1e4a9b2b7e35c5937fd90741dd79028e05298a30973dad9af86c5de788237c0e",
      "blockNumber": "0x724f00",
      "gasUsed": "0x13af8",
      "effectiveGasPrice": "0x6cbe4def4",
      "from": "0xc77f7fed3b5cc8249adc428c5f44c9063b9734b4",
      "to": "0x5eb9cc76c3506942c1c0ead70e877dd5e4f00cb0",
      "contractAddress": null
    }
  ],
  "libraries": [],
  "pending": [],
  "returns": {},
  "timestamp": 1736877493,
  "chain": 11155111,
  "commit": "51a374b"
}