{
  "transactions": [
    {
      "hash": "0xab7708874d888f795f94cea768d8f3e37ed96dd1cc88735b49c503f324d3fda0",
      "transactionType": "CALL",
      "contractName": null,
      "contractAddress": "0x270e88f8683660553e8ba4eb2ad7c91a1710d769",
      "function": "sell(uint256)",
      "arguments": [
        "992362612846775150982"
      ],
      "transaction": {
        "from": "0xc77f7fed3b5cc8249adc428c5f44c9063b9734b4",
        "to": "0x270e88f8683660553e8ba4eb2ad7c91a1710d769",
        "gas": "0x16fec",
        "value": "0x0",
        "input": "0xe4849b32000000000000000000000000000000000000000000000035cbcc3a9f2686a986",
        "nonce": "0x4d9",
        "chainId": "0xaa36a7"
      },
      "additionalContracts": [],
      "isFixedGasLimit": false
    }
  ],
  "receipts": [
    {
      "status": "0x1",
      "cumulativeGasUsed": "0xdfb681",
      "logs": [
        {
          "address": "0x270e88f8683660553e8ba4eb2ad7c91a1710d769",
          "topics": [
            "0xddf252ad1be2c89b69c2b068fc378daa952ba7f163c4a11628f55a4df523b3ef",
            "0x000000000000000000000000c77f7fed3b5cc8249adc428c5f44c9063b9734b4",
            "0x0000000000000000000000000000000000000000000000000000000000000000"
          ],
          "data": "0x000000000000000000000000000000000000000000000035cbcc3a9f2686a986",
          "blockHash": "0x7b452d1f064127a2a7d35e36f9e9261058abeeea4f984a940dccc80a446f508c",
          "blockNumber": "0x72515e",
          "transactionHash": "0xab7708874d888f795f94cea768d8f3e37ed96dd1cc88735b49c503f324d3fda0",
          "transactionIndex": "0x64",
          "logIndex": "0xf5",
          "removed": false
        },
        {
          "address": "0x270e88f8683660553e8ba4eb2ad7c91a1710d769",
          "topics": [
            "0x4afcb4a87cdbd9974efdb92ee48bc8d7cd0ae4bf217004db3d080cbaee652ca7"
          ],
          "data": "0x000000000000000000000000000000000000000000000000000000006786c24c00000000000000000000000000000000000000000000000000038e5fc6ba7dcf0000000000000000000000000000000000000000000000000dc842827f0b3667",
          "blockHash": "0x7b452d1f064127a2a7d35e36f9e9261058abeeea4f984a940dccc80a446f508c",
          "blockNumber": "0x72515e",
          "transactionHash": "0xab7708874d888f795f94cea768d8f3e37ed96dd1cc88735b49c503f324d3fda0",
          "transactionIndex": "0x64",
          "logIndex": "0xf6",
          "removed": false
        }
      ],
      "logsBloom": "0x00000000000000000000000000000000000000000000000000000000000000000000000000000000000000000000000020000000000000004000000000000000000000000000000000000008000000000000000000000000000000000000000000000000020000000000000000000800020000000000000000000010000000000000000000010000000000000000000000000000000000000000010000000000000000000000000000000000000000004000000000000000000000000000000000000002000000800000000000000000000000000000080000008000000020000000000000000000000000000000000000000000000000000000000000000000",
      "type": "0x2",
      "transactionHash": "0xab7708874d888f795f94cea768d8f3e37ed96dd1cc88735b49c503f324d3fda0",
      "transactionIndex": "0x64",
      "blockHash": "0x7b452d1f064127a2a7d35e36f9e9261058abeeea4f984a940dccc80a446f508c",
      "blockNumber": "0x72515e",
      "gasUsed": "0xfb93",
      "effectiveGasPrice": "0x3cf180410",
      "from": "0xc77f7fed3b5cc8249adc428c5f44c9063b9734b4",
      "to": "0x270e88f8683660553e8ba4eb2ad7c91a1710d769",
      "contractAddress": null
    }
  ],
  "libraries": [],
  "pending": [],
  "returns": {},
  "timestamp": 1736884814,
  "chain": 11155111,
  "commit": "51a374b"
}