{
  "transactions": [
    {
      "hash": "0x9f35d4ca5cd20416a2462c8e8d021da5481d48ca65b67ba9350774f7120e7ec4",
      "transactionType": "CALL",
      "contractName": null,
      "contractAddress": "0x8aafd3ede9adb0ff97c7aebce82a919afb1c8764",
      "function": "sell(uint256)",
      "arguments": [
        "1436692"
      ],
      "transaction": {
        "from": "0xc77f7fed3b5cc8249adc428c5f44c9063b9734b4",
        "to": "0x8aafd3ede9adb0ff97c7aebce82a919afb1c8764",
        "gas": "0x16208",
        "value": "0x0",
        "input": "0xe4849b32000000000000000000000000000000000000000000000000000000000015ec14",
        "nonce": "0x11c4",
        "chainId": "0xaa36a7"
      },
      "additionalContracts": [],
      "isFixedGasLimit": false
    }
  ],
  "receipts": [
    {
      "status": "0x1",
      "cumulativeGasUsed": "0xb80579",
      "logs": [
        {
          "address": "0x8aafd3ede9adb0ff97c7aebce82a919afb1c8764",
          "topics": [
            "0xddf252ad1be2c89b69c2b068fc378daa952ba7f163c4a11628f55a4df523b3ef",
            "0x000000000000000000000000c77f7fed3b5cc8249adc428c5f44c9063b9734b4",
            "0x0000000000000000000000000000000000000000000000000000000000000000"
          ],
          "data": "0x000000000000000000000000000000000000000000000000000000000015bf2f",
          "blockHash": "0x00c3e646b2b17a407b610d9b9239cf1d56ddd51a4c138b2b67c99695dcb175dd",
          "blockNumber": "0x731895",
          "transactionHash": "0x9f35d4ca5cd20416a2462c8e8d021da5481d48ca65b67ba9350774f7120e7ec4",
          "transactionIndex": "0x8a",
          "logIndex": "0x9f",
          "removed": false
        },
        {
          "address": "0x8aafd3ede9adb0ff97c7aebce82a919afb1c8764",
          "topics": [
            "0xddf252ad1be2c89b69c2b068fc378daa952ba7f163c4a11628f55a4df523b3ef",
            "0x000000000000000000000000c77f7fed3b5cc8249adc428c5f44c9063b9734b4",
            "0x000000000000000000000000c77f7fed3b5cc8249adc428c5f44c9063b9734b4"
          ],
          "data": "0x0000000000000000000000000000000000000000000000000000000000002ce5",
          "blockHash": "0x00c3e646b2b17a407b610d9b9239cf1d56ddd51a4c138b2b67c99695dcb175dd",
          "blockNumber": "0x731895",
          "transactionHash": "0x9f35d4ca5cd20416a2462c8e8d021da5481d48ca65b67ba9350774f7120e7ec4",
          "transactionIndex": "0x8a",
          "logIndex": "0xa0",
          "removed": false
        },
        {
          "address": "0x8aafd3ede9adb0ff97c7aebce82a919afb1c8764",
          "topics": [
            "0x4afcb4a87cdbd9974efdb92ee48bc8d7cd0ae4bf217004db3d080cbaee652ca7"
          ],
          "data": "0x00000000000000000000000000000000000000000000000000000000679023cc000000000000000000000000000000000000000000000000000527c2d0b8672a0000000000000000000000000000000000000000000000000000000000000824",
          "blockHash": "0x00c3e646b2b17a407b610d9b9239cf1d56ddd51a4c138b2b67c99695dcb175dd",
          "blockNumber": "0x731895",
          "transactionHash": "0x9f35d4ca5cd20416a2462c8e8d021da5481d48ca65b67ba9350774f7120e7ec4",
          "transactionIndex": "0x8a",
          "logIndex": "0xa1",
          "removed": false
        }
      ],
      "logsBloom": "0x00000000000000000000000000000000000000000600000000000000000000000000000000000000000000000000000000000000000000004000000000000000000000000000004000000008000000000000000000000000000000000000000000000000020000000000000000000800020000000000000000000010000000000000000000000000000000000000000000000000000000000000010000000000000000000000000000000000000000004000000000000000000000000000000000000002000000800000000000000000000000000000080000000000000020000000000000000000000000000000000000000000000000000000000000000000",
      "type": "0x2",
      "transactionHash": "0x9f35d4ca5cd20416a2462c8e8d021da5481d48ca65b67ba9350774f7120e7ec4",
      "transactionIndex": "0x8a",
      "blockHash": "0x00c3e646b2b17a407b610d9b9239cf1d56ddd51a4c138b2b67c99695dcb175dd",
      "blockNumber": "0x731895",
      "gasUsed": "0xf213",
      "effectiveGasPrice": "0x48c790a4",
      "from": "0xc77f7fed3b5cc8249adc428c5f44c9063b9734b4",
      "to": "0x8aafd3ede9adb0ff97c7aebce82a919afb1c8764",
      "contractAddress": null
    }
  ],
  "libraries": [],
  "pending": [],
  "returns": {},
  "timestamp": 1737499598,
  "chain": 11155111,
  "commit": "1d2fb70"
}