{
  "transactions": [
    {
      "hash": "0xac2bbd4689a73f81d91ce3ced719bc8690cf234cdf0aeadb877da8e74fe00ff4",
      "transactionType": "CALL",
      "contractName": null,
      "contractAddress": "0x8aafd3ede9adb0ff97c7aebce82a919afb1c8764",
      "function": "sell(uint256)",
      "arguments": [
        "703452367313"
      ],
      "transaction": {
        "from": "0xc77f7fed3b5cc8249adc428c5f44c9063b9734b4",
        "to": "0x8aafd3ede9adb0ff97c7aebce82a919afb1c8764",
        "gas": "0x1722a",
        "value": "0x0",
        "input": "0xe4849b32000000000000000000000000000000000000000000000000000000a3c90749d1",
        "nonce": "0x1635",
        "chainId": "0xaa36a7"
      },
      "additionalContracts": [],
      "isFixedGasLimit": false
    }
  ],
  "receipts": [
    {
      "status": "0x1",
      "cumulativeGasUsed": "0x7d450a",
      "logs": [
        {
          "address": "0x8aafd3ede9adb0ff97c7aebce82a919afb1c8764",
          "topics": [
            "0xddf252ad1be2c89b69c2b068fc378daa952ba7f163c4a11628f55a4df523b3ef",
            "0x000000000000000000000000c77f7fed3b5cc8249adc428c5f44c9063b9734b4",
            "0x0000000000000000000000000000000000000000000000000000000000000000"
          ],
          "data": "0x000000000000000000000000000000000000000000000000000000a27998a357",
          "blockHash": "0xc5516e6eb3263ba961ee5adcdeaef7c304a4cc6d6fbbf9469a89f0cb7d37f57d",
          "blockNumber": "0x731dcd",
          "transactionHash": "0xac2bbd4689a73f81d91ce3ced719bc8690cf234cdf0aeadb877da8e74fe00ff4",
          "transactionIndex": "0x70",
          "logIndex": "0x70",
          "removed": false
        },
        {
          "address": "0x8aafd3ede9adb0ff97c7aebce82a919afb1c8764",
          "topics": [
            "0xddf252ad1be2c89b69c2b068fc378daa952ba7f163c4a11628f55a4df523b3ef",
            "0x000000000000000000000000c77f7fed3b5cc8249adc428c5f44c9063b9734b4",
            "0x000000000000000000000000c77f7fed3b5cc8249adc428c5f44c9063b9734b4"
          ],
          "data": "0x000000000000000000000000000000000000000000000000000000014f6ea67a",
          "blockHash": "0xc5516e6eb3263ba961ee5adcdeaef7c304a4cc6d6fbbf9469a89f0cb7d37f57d",
          "blockNumber": "0x731dcd",
          "transactionHash": "0xac2bbd4689a73f81d91ce3ced719bc8690cf234cdf0aeadb877da8e74fe00ff4",
          "transactionIndex": "0x70",
          "logIndex": "0x71",
          "removed": false
        },
        {
          "address": "0x8aafd3ede9adb0ff97c7aebce82a919afb1c8764",
          "topics": [
            "0x4afcb4a87cdbd9974efdb92ee48bc8d7cd0ae4bf217004db3d080cbaee652ca7"
          ],
          "data": "0x00000000000000000000000000000000000000000000000000000000679062840000000000000000000000000000000000000000000000000014a5777f8012bb00000000000000000000000000000000000000000000000000000000f3aaeec5",
          "blockHash": "0xc5516e6eb3263ba961ee5adcdeaef7c304a4cc6d6fbbf9469a89f0cb7d37f57d",
          "blockNumber": "0x731dcd",
          "transactionHash": "0xac2bbd4689a73f81d91ce3ced719bc8690cf234cdf0aeadb877da8e74fe00ff4",
          "transactionIndex": "0x70",
          "logIndex": "0x72",
          "removed": false
        }
      ],
      "logsBloom": "0x00000000000000000000000000000000000000000600000000000000000000000000000000000000000000000000000000000000000000004000000000000000000000000000004000000008000000000000000000000000000000000000000000000000020000000000000000000800020000000000000000000010000000000000000000000000000000000000000000000000000000000000010000000000000000000000000000000000000000004000000000000000000000000000000000000002000000800000000000000000000000000000080000000000000020000000000000000000000000000000000000000000000000000000000000000000",
      "type": "0x2",
      "transactionHash": "0xac2bbd4689a73f81d91ce3ced719bc8690cf234cdf0aeadb877da8e74fe00ff4",
      "transactionIndex": "0x70",
      "blockHash": "0xc5516e6eb3263ba961ee5adcdeaef7c304a4cc6d6fbbf9469a89f0cb7d37f57d",
      "blockNumber": "0x731dcd",
      "gasUsed": "0xfd1b",
      "effectiveGasPrice": "0x577f74da",
      "from": "0xc77f7fed3b5cc8249adc428c5f44c9063b9734b4",
      "to": "0x8aafd3ede9adb0ff97c7aebce82a919afb1c8764",
      "contractAddress": null
    }
  ],
  "libraries": [],
  "pending": [],
  "returns": {},
  "timestamp": 1737515653,
  "chain": 11155111,
  "commit": "1d2fb70"
}