{
  "transactions": [
    {
      "hash": "0x2b8a25c2bde287d6717a19422940a5763c915dcfd296423aae6c5ac9bae4ed84",
      "transactionType": "CALL",
      "contractName": null,
      "contractAddress": "0xd7bc75898e513accccf720a874d44dab5a4b6223",
      "function": "buy(address)",
      "arguments": [
        "0xC77f7fed3b5Cc8249aDc428c5F44C9063B9734b4"
      ],
      "transaction": {
        "from": "0xc77f7fed3b5cc8249adc428c5f44c9063b9734b4",
        "to": "0xd7bc75898e513accccf720a874d44dab5a4b6223",
        "gas": "0x1b30c",
        "value": "0x16345785d8a0000",
        "input": "0xf088d547000000000000000000000000c77f7fed3b5cc8249adc428c5f44c9063b9734b4",
        "nonce": "0x6b",
        "chainId": "0xaa36a7"
      },
      "additionalContracts": [],
      "isFixedGasLimit": false
    },
    {
      "hash": "0xbb7755143217d1c06b78e6359919e4c553617f3e05cb48ac39c784e2feb9c41d",
      "transactionType": "CALL",
      "contractName": null,
      "contractAddress": "0xd7bc75898e513accccf720a874d44dab5a4b6223",
      "function": "sell(uint256)",
      "arguments": [
        "99300283912367172301"
      ],
      "transaction": {
        "from": "0xc77f7fed3b5cc8249adc428c5f44c9063b9734b4",
        "to": "0xd7bc75898e513accccf720a874d44dab5a4b6223",
        "gas": "0x16fec",
        "value": "0x0",
        "input": "0xe4849b3200000000000000000000000000000000000000000000000562117a1a5414eacd",
        "nonce": "0x6c",
        "chainId": "0xaa36a7"
      },
      "additionalContracts": [],
      "isFixedGasLimit": false
    }
  ],
  "receipts": [
    {
      "status": "0x1",
      "cumulativeGasUsed": "0xc286c4",
      "logs": [
        {
          "address": "0xd7bc75898e513accccf720a874d44dab5a4b6223",
          "topics": [
            "0xddf252ad1be2c89b69c2b068fc378daa952ba7f163c4a11628f55a4df523b3ef",
            "0x0000000000000000000000000000000000000000000000000000000000000000",
            "0x000000000000000000000000c77f7fed3b5cc8249adc428c5f44c9063b9734b4"
          ],
          "data": "0x0000000000000000000000000000000000000000000000055de6989da8bb7d5c",
          "blockHash": "0x3e5ddac3a6a9dd9f7d85cd735b4cd370fe80ed3a7a992aeebcdc53817eaf07dc",
          "blockNumber": "0x72389a",
          "transactionHash": "0x2b8a25c2bde287d6717a19422940a5763c915dcfd296423aae6c5ac9bae4ed84",
          "transactionIndex": "0x71",
          "logIndex": "0xb8",
          "removed": false
        },
        {
          "address": "0xd7bc75898e513accccf720a874d44dab5a4b6223",
          "topics": [
            "0xddf252ad1be2c89b69c2b068fc378daa952ba7f163c4a11628f55a4df523b3ef",
            "0x0000000000000000000000000000000000000000000000000000000000000000",
            "0x000000000000000000000000c77f7fed3b5cc8249adc428c5f44c9063b9734b4"
          ],
          "data": "0x000000000000000000000000000000000000000000000000042ae17cab596d71",
          "blockHash": "0x3e5ddac3a6a9dd9f7d85cd735b4cd370fe80ed3a7a992aeebcdc53817eaf07dc",
          "blockNumber": "0x72389a",
          "transactionHash": "0x2b8a25c2bde287d6717a19422940a5763c915dcfd296423aae6c5ac9bae4ed84",
          "transactionIndex": "0x71",
          "logIndex": "0xb9",
          "removed": false
        },
        {
          "address": "0xd7bc75898e513accccf720a874d44dab5a4b6223",
          "topics": [
            "0x4afcb4a87cdbd9974efdb92ee48bc8d7cd0ae4bf217004db3d080cbaee652ca7"
          ],
          "data": "0x000000000000000000000000000000000000000000000000000000006785988000000000000000000000000000000000000000000000000000038d7eaf4ea9bd000000000000000000000000000000000000000000000000016345785d8a0000",
          "blockHash": "0x3e5ddac3a6a9dd9f7d85cd735b4cd370fe80ed3a7a992aeebcdc53817eaf07dc",
          "blockNumber": "0x72389a",
          "transactionHash": "0x2b8a25c2bde287d6717a19422940a5763c915dcfd296423aae6c5ac9bae4ed84",
          "transactionIndex": "0x71",
          "logIndex": "0xba",
          "removed": false
        }
      ],
      "logsBloom": "0x00000000000000000000000000000000000000000000000000000000000000000000000000000000000000000000000000000000000000004000000000000000000000000000000000000008000000000000000000000000000000000000000000000000020000000000000000000800020000000000000000000010000000000000000000000000000000000000000000000000000000000000010000000000000000000000000000000000000000004000001000000000000000000000000000000002000000800000000000004000000000000000080000000000000020000000000000000000000000000000000000000000080000000000000000000000",
      "type": "0x2",
      "transactionHash": "0x2b8a25c2bde287d6717a19422940a5763c915dcfd296423aae6c5ac9bae4ed84",
      "transactionIndex": "0x71",
      "blockHash": "0x3e5ddac3a6a9dd9f7d85cd735b4cd370fe80ed3a7a992aeebcdc53817eaf07dc",
      "blockNumber": "0x72389a",
      "gasUsed": "0x13af8",
      "effectiveGasPrice": "0x22215cf",
      "from": "0xc77f7fed3b5cc8249adc428c5f44c9063b9734b4",
      "to": "0xd7bc75898e513accccf720a874d44dab5a4b6223",
      "contractAddress": null
    },
    {
      "status": "0x1",
      "cumulativeGasUsed": "0xc38257",
      "logs": [
        {
          "address": "0xd7bc75898e513accccf720a874d44dab5a4b6223",
          "topics": [
            "0xddf252ad1be2c89b69c2b068fc378daa952ba7f163c4a11628f55a4df523b3ef",
            "0x000000000000000000000000c77f7fed3b5cc8249adc428c5f44c9063b9734b4",
            "0x0000000000000000000000000000000000000000000000000000000000000000"
          ],
          "data": "0x00000000000000000000000000000000000000000000000562117a1a5414eacd",
          "blockHash": "0x3e5ddac3a6a9dd9f7d85cd735b4cd370fe80ed3a7a992aeebcdc53817eaf07dc",
          "blockNumber": "0x72389a",
          "transactionHash": "0xbb7755143217d1c06b78e6359919e4c553617f3e05cb48ac39c784e2feb9c41d",
          "transactionIndex": "0x72",
          "logIndex": "0xbb",
          "removed": false
        },
        {
          "address": "0xd7bc75898e513accccf720a874d44dab5a4b6223",
          "topics": [
            "0x4afcb4a87cdbd9974efdb92ee48bc8d7cd0ae4bf217004db3d080cbaee652ca7"
          ],
          "data": "0x000000000000000000000000000000000000000000000000000000006785988000000000000000000000000000000000000000000000000000038d7eb08a54850000000000000000000000000000000000000000000000000160c9191a82edfa",
          "blockHash": "0x3e5ddac3a6a9dd9f7d85cd735b4cd370fe80ed3a7a992aeebcdc53817eaf07dc",
          "blockNumber": "0x72389a",
          "transactionHash": "0xbb7755143217d1c06b78e6359919e4c553617f3e05cb48ac39c784e2feb9c41d",
          "transactionIndex": "0x72",
          "logIndex": "0xbc",
          "removed": false
        }
      ],
      "logsBloom": "0x00000000000000000000000000000000000000000000000000000000000000000000000000000000000000000000000000000000000000004000000000000000000000000000000000000008000000000000000000000000000000000000000000000000020000000000000000000800020000000000000000000010000000000000000000000000000000000000000000000000000000000000010000000000000000000000000000000000000000004000001000000000000000000000000000000002000000800000000000004000000000000000080000000000000020000000000000000000000000000000000000000000080000000000000000000000",
      "type": "0x2",
      "transactionHash": "0xbb7755143217d1c06b78e6359919e4c553617f3e05cb48ac39c784e2feb9c41d",
      "transactionIndex": "0x72",
      "blockHash": "0x3e5ddac3a6a9dd9f7d85cd735b4cd370fe80ed3a7a992aeebcdc53817eaf07dc",
      "blockNumber": "0x72389a",
      "gasUsed": "0xfb93",
      "effectiveGasPrice": "0x22215cf",
      "from": "0xc77f7fed3b5cc8249adc428c5f44c9063b9734b4",
      "to": "0xd7bc75898e513accccf720a874d44dab5a4b6223",
      "contractAddress": null
    }
  ],
  "libraries": [],
  "pending": [],
  "returns": {},
  "timestamp": 1736808576,
  "chain": 11155111,
  "commit": "51a374b"
}