{
  "transactions": [
    {
      "hash": "0xb96d26faf07dad02429ac78cc5ca8ea2c572a00758189a39c7e1223b28a396e7",
      "transactionType": "CALL",
      "contractName": null,
      "contractAddress": "0x270e88f8683660553e8ba4eb2ad7c91a1710d769",
      "function": "sell(uint256)",
      "arguments": [
        "956986576688148151651"
      ],
      "transaction": {
        "from": "0xc77f7fed3b5cc8249adc428c5f44c9063b9734b4",
        "to": "0x270e88f8683660553e8ba4eb2ad7c91a1710d769",
        "gas": "0x16fec",
        "value": "0x0",
        "input": "0xe4849b32000000000000000000000000000000000000000000000033e0db4d2a6a307d63",
        "nonce": "0x5bf",
        "chainId": "0xaa36a7"
      },
      "additionalContracts": [],
      "isFixedGasLimit": false
    }
  ],
  "receipts": [
    {
      "status": "0x1",
      "cumulativeGasUsed": "0xd798f7",
      "logs": [
        {
          "address": "0x270e88f8683660553e8ba4eb2ad7c91a1710d769",
          "topics": [
            "0xddf252ad1be2c89b69c2b068fc378daa952ba7f163c4a11628f55a4df523b3ef",
            "0x000000000000000000000000c77f7fed3b5cc8249adc428c5f44c9063b9734b4",
            "0x0000000000000000000000000000000000000000000000000000000000000000"
          ],
          "data": "0x000000000000000000000000000000000000000000000033e0db4d2a6a307d63",
          "blockHash": "0xc04b92f4dfc9c3f3194779dd719d8579e20d1b34356650674b1909a9013aafe4",
          "blockNumber": "0x72527e",
          "transactionHash": "0xb96d26faf07dad02429ac78cc5ca8ea2c572a00758189a39c7e1223b28a396e7",
          "transactionIndex": "0x59",
          "logIndex": "0x96",
          "removed": false
        },
        {
          "address": "0x270e88f8683660553e8ba4eb2ad7c91a1710d769",
          "topics": [
            "0x4afcb4a87cdbd9974efdb92ee48bc8d7cd0ae4bf217004db3d080cbaee652ca7"
          ],
          "data": "0x000000000000000000000000000000000000000000000000000000006786cfd80000000000000000000000000000000000000000000000000003b0042e30f69f0000000000000000000000000000000000000000000000000dc83ee06e6799f4",
          "blockHash": "0xc04b92f4dfc9c3f3194779dd719d8579e20d1b34356650674b1909a9013aafe4",
          "blockNumber": "0x72527e",
          "transactionHash": "0xb96d26faf07dad02429ac78cc5ca8ea2c572a00758189a39c7e1223b28a396e7",
          "transactionIndex": "0x59",
          "logIndex": "0x97",
          "removed": false
        }
      ],
      "logsBloom": "0x00000000000000000000000000000000000000000000000000000000000000000000000000000000000000000000000020000000000000004000000000000000000000000000000000000008000000000000000000000000000000000000000000000000020000000000000000000800020000000000000000000010000000000000000000010000000000000000000000000000000000000000010000000000000000000000000000000000000000004000000000000000000000000000000000000002000000800000000000000000000000000000080000008000000020000000000000000000000000000000000000000000000000000000000000000000",
      "type": "0x2",
      "transactionHash": "0xb96d26faf07dad02429ac78cc5ca8ea2c572a00758189a39c7e1223b28a396e7",
      "transactionIndex": "0x59",
      "blockHash": "0xc04b92f4dfc9c3f3194779dd719d8579e20d1b34356650674b1909a9013aafe4",
      "blockNumber": "0x72527e",
      "gasUsed": "0xfb93",
      "effectiveGasPrice": "0x41aa07938",
      "from": "0xc77f7fed3b5cc8249adc428c5f44c9063b9734b4",
      "to": "0x270e88f8683660553e8ba4eb2ad7c91a1710d769",
      "contractAddress": null
    }
  ],
  "libraries": [],
  "pending": [],
  "returns": {},
  "timestamp": 1736888281,
  "chain": 11155111,
  "commit": "51a374b"
}