{
  "transactions": [
    {
      "hash": "0x5f5740af41c9109514f74b4d4ce767ee967c9eb0a92d5fdedd79bdf02ce6e77b",
      "transactionType": "CALL",
      "contractName": null,
      "contractAddress": "0x8aafd3ede9adb0ff97c7aebce82a919afb1c8764",
      "function": "sell(uint256)",
      "arguments": [
        "699886046196"
      ],
      "transaction": {
        "from": "0xc77f7fed3b5cc8249adc428c5f44c9063b9734b4",
        "to": "0x8aafd3ede9adb0ff97c7aebce82a919afb1c8764",
        "gas": "0x1722a",
        "value": "0x0",
        "input": "0xe4849b32000000000000000000000000000000000000000000000000000000a2f4758bf4",
        "nonce": "0x163e",
        "chainId": "0xaa36a7"
      },
      "additionalContracts": [],
      "isFixedGasLimit": false
    }
  ],
  "receipts": [
    {
      "status": "0x1",
      "cumulativeGasUsed": "0x8c2412",
      "logs": [
        {
          "address": "0x8aafd3ede9adb0ff97c7aebce82a919afb1c8764",
          "topics": [
            "0xddf252ad1be2c89b69c2b068fc378daa952ba7f163c4a11628f55a4df523b3ef",
            "0x000000000000000000000000c77f7fed3b5cc8249adc428c5f44c9063b9734b4",
            "0x0000000000000000000000000000000000000000000000000000000000000000"
          ],
          "data": "0x000000000000000000000000000000000000000000000000000000a1a6ba3d03",
          "blockHash": "0x61c04ae1782677441f0da470b9f112d72ca68cede8aeb9fc2fdb5404ee255442",
          "blockNumber": "0x731dd7",
          "transactionHash": "0x5f5740af41c9109514f74b4d4ce767ee967c9eb0a92d5fdedd79bdf02ce6e77b",
          "transactionIndex": "0x63",
          "logIndex": "0x6f",
          "removed": false
        },
        {
          "address": "0x8aafd3ede9adb0ff97c7aebce82a919afb1c8764",
          "topics": [
            "0xddf252ad1be2c89b69c2b068fc378daa952ba7f163c4a11628f55a4df523b3ef",
            "0x000000000000000000000000c77f7fed3b5cc8249adc428c5f44c9063b9734b4",
            "0x000000000000000000000000c77f7fed3b5cc8249adc428c5f44c9063b9734b4"
          ],
          "data": "0x000000000000000000000000000000000000000000000000000000014dbb4ef1",
          "blockHash": "0x61c04ae1782677441f0da470b9f112d72ca68cede8aeb9fc2fdb5404ee255442",
          "blockNumber": "0x731dd7",
          "transactionHash": "0x5f5740af41c9109514f74b4d4ce767ee967c9eb0a92d5fdedd79bdf02ce6e77b",
          "transactionIndex": "0x63",
          "logIndex": "0x70",
          "removed": false
        },
        {
          "address": "0x8aafd3ede9adb0ff97c7aebce82a919afb1c8764",
          "topics": [
            "0x4afcb4a87cdbd9974efdb92ee48bc8d7cd0ae4bf217004db3d080cbaee652ca7"
          ],
          "data": "0x00000000000000000000000000000000000000000000000000000000679062fc0000000000000000000000000000000000000000000000000014c044dfa3459100000000000000000000000000000000000000000000000000000000f3a96746",
          "blockHash": "0x61c04ae1782677441f0da470b9f112d72ca68cede8aeb9fc2fdb5404ee255442",
          "blockNumber": "0x731dd7",
          "transactionHash": "0x5f5740af41c9109514f74b4d4ce767ee967c9eb0a92d5fdedd79bdf02ce6e77b",
          "transactionIndex": "0x63",
          "logIndex": "0x71",
          "removed": false
        }
      ],
      "logsBloom": "0x00000000000000000000000000000000000000000600000000000000000000000000000000000000000000000000000000000000000000004000000000000000000000000000004000000008000000000000000000000000000000000000000000000000020000000000000000000800020000000000000000000010000000000000000000000000000000000000000000000000000000000000010000000000000000000000000000000000000000004000000000000000000000000000000000000002000000800000000000000000000000000000080000000000000020000000000000000000000000000000000000000000000000000000000000000000",
      "type": "0x2",
      "transactionHash": "0x5f5740af41c9109514f74b4d4ce767ee967c9eb0a92d5fdedd79bdf02ce6e77b",
      "transactionIndex": "0x63",
      "blockHash": "0x61c04ae1782677441f0da470b9f112d72ca68cede8aeb9fc2fdb5404ee255442",
      "blockNumber": "0x731dd7",
      "gasUsed": "0xfd1b",
      "effectiveGasPrice": "0x4e053c24",
      "from": "0xc77f7fed3b5cc8249adc428c5f44c9063b9734b4",
      "to": "0x8aafd3ede9adb0ff97c7aebce82a919afb1c8764",
      "contractAddress": null
    }
  ],
  "libraries": [],
  "pending": [],
  "returns": {},
  "timestamp": 1737515773,
  "chain": 11155111,
  "commit": "1d2fb70"
}