{
  "transactions": [
    {
      "hash": "0xd0ea2752a8ae137d766cd24a6ccfe632bc5868bf3b97d2e89e94de8ebb7ec5c9",
      "transactionType": "CALL",
      "contractName": null,
      "contractAddress": "0x270e88f8683660553e8ba4eb2ad7c91a1710d769",
      "function": "sell(uint256)",
      "arguments": [
        "954914289987684277718"
      ],
      "transaction": {
        "from": "0xc77f7fed3b5cc8249adc428c5f44c9063b9734b4",
        "to": "0x270e88f8683660553e8ba4eb2ad7c91a1710d769",
        "gas": "0x16fec",
        "value": "0x0",
        "input": "0xe4849b32000000000000000000000000000000000000000000000033c4190f641c461dd6",
        "nonce": "0x5cd",
        "chainId": "0xaa36a7"
      },
      "additionalContracts": [],
      "isFixedGasLimit": false
    }
  ],
  "receipts": [
    {
      "status": "0x1",
      "cumulativeGasUsed": "0xaf7f6e",
      "logs": [
        {
          "address": "0x270e88f8683660553e8ba4eb2ad7c91a1710d769",
          "topics": [
            "0xddf252ad1be2c89b69c2b068fc378daa952ba7f163c4a11628f55a4df523b3ef",
            "0x000000000000000000000000c77f7fed3b5cc8249adc428c5f44c9063b9734b4",
            "0x0000000000000000000000000000000000000000000000000000000000000000"
          ],
          "data": "0x000000000000000000000000000000000000000000000033c4190f641c461dd6",
          "blockHash": "0x7461df014112a515d4be4ee0e29c5521dcc261b012d1ef0693cd11c6f66d4cc2",
          "blockNumber": "0x72528c",
          "transactionHash": "0xd0ea2752a8ae137d766cd24a6ccfe632bc5868bf3b97d2e89e94de8ebb7ec5c9",
          "transactionIndex": "0x68",
          "logIndex": "0xba",
          "removed": false
        },
        {
          "address": "0x270e88f8683660553e8ba4eb2ad7c91a1710d769",
          "topics": [
            "0x4afcb4a87cdbd9974efdb92ee48bc8d7cd0ae4bf217004db3d080cbaee652ca7"
          ],
          "data": "0x000000000000000000000000000000000000000000000000000000006786d0800000000000000000000000000000000000000000000000000003b210784487940000000000000000000000000000000000000000000000000dc83ea9ea6a03c7",
          "blockHash": "0x7461df014112a515d4be4ee0e29c5521dcc261b012d1ef0693cd11c6f66d4cc2",
          "blockNumber": "0x72528c",
          "transactionHash": "0xd0ea2752a8ae137d766cd24a6ccfe632bc5868bf3b97d2e89e94de8ebb7ec5c9",
          "transactionIndex": "0x68",
          "logIndex": "0xbb",
          "removed": false
        }
      ],
      "logsBloom": "0x00000000000000000000000000000000000000000000000000000000000000000000000000000000000000000000000020000000000000004000000000000000000000000000000000000008000000000000000000000000000000000000000000000000020000000000000000000800020000000000000000000010000000000000000000010000000000000000000000000000000000000000010000000000000000000000000000000000000000004000000000000000000000000000000000000002000000800000000000000000000000000000080000008000000020000000000000000000000000000000000000000000000000000000000000000000",
      "type": "0x2",
      "transactionHash": "0xd0ea2752a8ae137d766cd24a6ccfe632bc5868bf3b97d2e89e94de8ebb7ec5c9",
      "transactionIndex": "0x68",
      "blockHash": "0x7461df014112a515d4be4ee0e29c5521dcc261b012d1ef0693cd11c6f66d4cc2",
      "blockNumber": "0x72528c",
      "gasUsed": "0xfb93",
      "effectiveGasPrice": "0x3deab1d3b",
      "from": "0xc77f7fed3b5cc8249adc428c5f44c9063b9734b4",
      "to": "0x270e88f8683660553e8ba4eb2ad7c91a1710d769",
      "contractAddress": null
    }
  ],
  "libraries": [],
  "pending": [],
  "returns": {},
  "timestamp": 1736888450,
  "chain": 11155111,
  "commit": "51a374b"
}