{
  "transactions": [
    {
      "hash": "0x2c35aeb462c05c84393c4ebbc350525896a4412fd15642f1c99ebee13a6e98ae",
      "transactionType": "CALL",
      "contractName": null,
      "contractAddress": "0x5eb9cc76c3506942c1c0ead70e877dd5e4f00cb0",
      "function": "sell(uint256)",
      "arguments": [
        "989614921131318630912"
      ],
      "transaction": {
        "from": "0xc77f7fed3b5cc8249adc428c5f44c9063b9734b4",
        "to": "0x5eb9cc76c3506942c1c0ead70e877dd5e4f00cb0",
        "gas": "0x15b6b",
        "value": "0x0",
        "input": "0xe4849b32000000000000000000000000000000000000000000000035a5aa77907a74da00",
        "nonce": "0x251",
        "chainId": "0xaa36a7"
      },
      "additionalContracts": [],
      "isFixedGasLimit": false
    }
  ],
  "receipts": [
    {
      "status": "0x1",
      "cumulativeGasUsed": "0xc87a5c",
      "logs": [
        {
          "address": "0x5eb9cc76c3506942c1c0ead70e877dd5e4f00cb0",
          "topics": [
            "0xddf252ad1be2c89b69c2b068fc378daa952ba7f163c4a11628f55a4df523b3ef",
            "0x000000000000000000000000c77f7fed3b5cc8249adc428c5f44c9063b9734b4",
            "0x0000000000000000000000000000000000000000000000000000000000000000"
          ],
          "data": "0x000000000000000000000000000000000000000000000035a5aa77907a74da00",
          "blockHash": "0xfa7ecdac1db955c3d62b349b991d4e48a83f2bbb7ade77506b85b65d1d693f2e",
          "blockNumber": "0x724e0a",
          "transactionHash": "0x2c35aeb462c05c84393c4ebbc350525896a4412fd15642f1c99ebee13a6e98ae",
          "transactionIndex": "0x67",
          "logIndex": "0xc4",
          "removed": false
        },
        {
          "address": "0x5eb9cc76c3506942c1c0ead70e877dd5e4f00cb0",
          "topics": [
            "0x4afcb4a87cdbd9974efdb92ee48bc8d7cd0ae4bf217004db3d080cbaee652ca7"
          ],
          "data": "0x0000000000000000000000000000000000000000000000000000000067869a2c0000000000000000000000000000000000000000000000000003909bd77bf4080000000000000000000000000000000000000000000000000dc7db11837aabaf",
          "blockHash": "0xfa7ecdac1db955c3d62b349b991d4e48a83f2bbb7ade77506b85b65d1d693f2e",
          "blockNumber": "0x724e0a",
          "transactionHash": "0x2c35aeb462c05c84393c4ebbc350525896a4412fd15642f1c99ebee13a6e98ae",
          "transactionIndex": "0x67",
          "logIndex": "0xc5",
          "removed": false
        }
      ],
      "logsBloom": "0x00000000000000000000000000000000000000000000000000000000000000000000000000000000000000000000000000000000000000004000000000000000000000000000000000000008000000000000000000000000000000000000000000000000020000000000000004000800020000000000000000000010000000000000000000000000000000000000000000000000000000000000010000000000000000000000000000000000000000004000000000000000000000000000020000000002000000800000008000000000000000000000080000000000000020000000000000000000000000000000000000000000000000000000000000000000",
      "type": "0x2",
      "transactionHash": "0x2c35aeb462c05c84393c4ebbc350525896a4412fd15642f1c99ebee13a6e98ae",
      "transactionIndex": "0x67",
      "blockHash": "0xfa7ecdac1db955c3d62b349b991d4e48a83f2bbb7ade77506b85b65d1d693f2e",
      "blockNumber": "0x724e0a",
      "gasUsed": "0xfb87",
      "effectiveGasPrice": "0x35bc2294e",
      "from": "0xc77f7fed3b5cc8249adc428c5f44c9063b9734b4",
      "to": "0x5eb9cc76c3506942c1c0ead70e877dd5e4f00cb0",
      "contractAddress": null
    }
  ],
  "libraries": [],
  "pending": [],
  "returns": {},
  "timestamp": 1736874542,
  "chain": 11155111,
  "commit": "51a374b"
}