{
  "transactions": [
    {
      "hash": "0x120971a10e28c821466fbb42f6e56f48c5d85a0020ba2a6d5fbccff992eb49b2",
      "transactionType": "CALL",
      "contractName": null,
      "contractAddress": "0x270e88f8683660553e8ba4eb2ad7c91a1710d769",
      "function": "buy(address)",
      "arguments": [
        "0xC77f7fed3b5Cc8249aDc428c5F44C9063B9734b4"
      ],
      "transaction": {
        "from": "0xc77f7fed3b5cc8249adc428c5f44c9063b9734b4",
        "to": "0x270e88f8683660553e8ba4eb2ad7c91a1710d769",
        "gas": "0x1b30c",
        "value": "0xde0b6b3a7640000",
        "input": "0xf088d547000000000000000000000000c77f7fed3b5cc8249adc428c5f44c9063b9734b4",
        "nonce": "0x773",
        "chainId": "0xaa36a7"
      },
      "additionalContracts": [],
      "isFixedGasLimit": false
    }
  ],
  "receipts": [
    {
      "status": "0x1",
      "cumulativeGasUsed": "0x56618f",
      "logs": [
        {
          "address": "0x270e88f8683660553e8ba4eb2ad7c91a1710d769",
          "topics": [
            "0xddf252ad1be2c89b69c2b068fc378daa952ba7f163c4a11628f55a4df523b3ef",
            "0x0000000000000000000000000000000000000000000000000000000000000000",
            "0x000000000000000000000000c77f7fed3b5cc8249adc428c5f44c9063b9734b4"
          ],
          "data": "0x000000000000000000000000000000000000000000000027b935d76cd7a15324",
          "blockHash": "0x9f84f6b7d8e4d6b3b54c412a4ffbf9eb7de4b4ceabced21452f36508b0dea254",
          "blockNumber": "0x7254a2",
          "transactionHash": "0x120971a10e28c821466fbb42f6e56f48c5d85a0020ba2a6d5fbccff992eb49b2",
          "transactionIndex": "0x33",
          "logIndex": "0x6a",
          "removed": false
        },
        {
          "address": "0x270e88f8683660553e8ba4eb2ad7c91a1710d769",
          "topics": [
            "0xddf252ad1be2c89b69c2b068fc378daa952ba7f163c4a11628f55a4df523b3ef",
            "0x0000000000000000000000000000000000000000000000000000000000000000",
            "0x000000000000000000000000c77f7fed3b5cc8249adc428c5f44c9063b9734b4"
          ],
          "data": "0x0000000000000000000000000000000000000000000000001ed8bd1a4e22fba5",
          "blockHash": "0x9f84f6b7d8e4d6b3b54c412a4ffbf9eb7de4b4ceabced21452f36508b0dea254",
          "blockNumber": "0x7254a2",
          "transactionHash": "0x120971a10e28c821466fbb42f6e56f48c5d85a0020ba2a6d5fbccff992eb49b2",
          "transactionIndex": "0x33",
          "logIndex": "0x6b",
          "removed": false
        },
        {
          "address": "0x270e88f8683660553e8ba4eb2ad7c91a1710d769",
          "topics": [
            "0x4afcb4a87cdbd9974efdb92ee48bc8d7cd0ae4bf217004db3d080cbaee652ca7"
          ],
          "data": "0x000000000000000000000000000000000000000000000000000000006786e9a00000000000000000000000000000000000000000000000000004ccde562d330c0000000000000000000000000000000000000000000000000de0b6b3a7640000",
          "blockHash": "0x9f84f6b7d8e4d6b3b54c412a4ffbf9eb7de4b4ceabced21452f36508b0dea254",
          "blockNumber": "0x7254a2",
          "transactionHash": "0x120971a10e28c821466fbb42f6e56f48c5d85a0020ba2a6d5fbccff992eb49b2",
          "transactionIndex": "0x33",
          "logIndex": "0x6c",
          "removed": false
        }
      ],
      "logsBloom": "0x00000000000000000000000000000000000000000000000000000000000000000000000000000000000000000000000020000000000000004000000000000000000000000000000000000008000000000000000000000000000000000000000000000000020000000000000000000800020000000000000000000010000000000000000000010000000000000000000000000000000000000000010000000000000000000000000000000000000000004000000000000000000000000000000000000002000000800000000000000000000000000000080000008000000020000000000000000000000000000000000000000000000000000000000000000000",
      "type": "0x2",
      "transactionHash": "0x120971a10e28c821466fbb42f6e56f48c5d85a0020ba2a6d5fbccff992eb49b2",
      "transactionIndex": "0x33",
      "blockHash": "0x9f84f6b7d8e4d6b3b54c412a4ffbf9eb7de4b4ceabced21452f36508b0dea254",
      "blockNumber": "0x7254a2",
      "gasUsed": "0x13af8",
      "effectiveGasPrice": "0x1360487a2",
      "from": "0xc77f7fed3b5cc8249adc428c5f44c9063b9734b4",
      "to": "0x270e88f8683660553e8ba4eb2ad7c91a1710d769",
      "contractAddress": null
    }
  ],
  "libraries": [],
  "pending": [],
  "returns": {},
  "timestamp": 1736894881,
  "chain": 11155111,
  "commit": "51a374b"
}