{
  "transactions": [
    {
      "hash": "0x2e966564e915b9d60a17a3a12d0fc87669b141396811c66e4f5e3bd5660e1a03",
      "transactionType": "CALL",
      "contractName": null,
      "contractAddress": "0x270e88f8683660553e8ba4eb2ad7c91a1710d769",
      "function": "sell(uint256)",
      "arguments": [
        "732720626105848294185"
      ],
      "transaction": {
        "from": "0xc77f7fed3b5cc8249adc428c5f44c9063b9734b4",
        "to": "0x270e88f8683660553e8ba4eb2ad7c91a1710d769",
        "gas": "0x16fec",
        "value": "0x0",
        "input": "0xe4849b32000000000000000000000000000000000000000000000027b88a9752b0e5eb29",
        "nonce": "0x78e",
        "chainId": "0xaa36a7"
      },
      "additionalContracts": [],
      "isFixedGasLimit": false
    }
  ],
  "receipts": [
    {
      "status": "0x1",
      "cumulativeGasUsed": "0x4d63df",
      "logs": [
        {
          "address": "0x270e88f8683660553e8ba4eb2ad7c91a1710d769",
          "topics": [
            "0xddf252ad1be2c89b69c2b068fc378daa952ba7f163c4a11628f55a4df523b3ef",
            "0x000000000000000000000000c77f7fed3b5cc8249adc428c5f44c9063b9734b4",
            "0x0000000000000000000000000000000000000000000000000000000000000000"
          ],
          "data": "0x000000000000000000000000000000000000000000000027b88a9752b0e5eb29",
          "blockHash": "0xc1ac8da857e287fab40181e708c5330c3b31464ca40c49a9c15491898aa9d9b7",
          "blockNumber": "0x7254bf",
          "transactionHash": "0x2e966564e915b9d60a17a3a12d0fc87669b141396811c66e4f5e3bd5660e1a03",
          "transactionIndex": "0x3c",
          "logIndex": "0x60",
          "removed": false
        },
        {
          "address": "0x270e88f8683660553e8ba4eb2ad7c91a1710d769",
          "topics": [
            "0x4afcb4a87cdbd9974efdb92ee48bc8d7cd0ae4bf217004db3d080cbaee652ca7"
          ],
          "data": "0x000000000000000000000000000000000000000000000000000000006786eafc0000000000000000000000000000000000000000000000000004d0dd71390b630000000000000000000000000000000000000000000000000dc827bf16b09946",
          "blockHash": "0xc1ac8da857e287fab40181e708c5330c3b31464ca40c49a9c15491898aa9d9b7",
          "blockNumber": "0x7254bf",
          "transactionHash": "0x2e966564e915b9d60a17a3a12d0fc87669b141396811c66e4f5e3bd5660e1a03",
          "transactionIndex": "0x3c",
          "logIndex": "0x61",
          "removed": false
        }
      ],
      "logsBloom": "0x00000000000000000000000000000000000000000000000000000000000000000000000000000000000000000000000020000000000000004000000000000000000000000000000000000008000000000000000000000000000000000000000000000000020000000000000000000800020000000000000000000010000000000000000000010000000000000000000000000000000000000000010000000000000000000000000000000000000000004000000000000000000000000000000000000002000000800000000000000000000000000000080000008000000020000000000000000000000000000000000000000000000000000000000000000000",
      "type": "0x2",
      "transactionHash": "0x2e966564e915b9d60a17a3a12d0fc87669b141396811c66e4f5e3bd5660e1a03",
      "transactionIndex": "0x3c",
      "blockHash": "0xc1ac8da857e287fab40181e708c5330c3b31464ca40c49a9c15491898aa9d9b7",
      "blockNumber": "0x7254bf",
      "gasUsed": "0xfb93",
      "effectiveGasPrice": "0x107f80267",
      "from": "0xc77f7fed3b5cc8249adc428c5f44c9063b9734b4",
      "to": "0x270e88f8683660553e8ba4eb2ad7c91a1710d769",
      "contractAddress": null
    }
  ],
  "libraries": [],
  "pending": [],
  "returns": {},
  "timestamp": 1736895228,
  "chain": 11155111,
  "commit": "51a374b"
}