{
  "transactions": [
    {
      "hash": "0x4666c106a9553423bc02f5d612e2a13b25dd097a38298d5371d1f2810157ee0f",
      "transactionType": "CALL",
      "contractName": null,
      "contractAddress": "0x5eb9cc76c3506942c1c0ead70e877dd5e4f00cb0",
      "function": "buy(address)",
      "arguments": [
        "0xC77f7fed3b5Cc8249aDc428c5F44C9063B9734b4"
      ],
      "transaction": {
        "from": "0xc77f7fed3b5cc8249adc428c5f44c9063b9734b4",
        "to": "0x5eb9cc76c3506942c1c0ead70e877dd5e4f00cb0",
        "gas": "0x156c8",
        "value": "0xde0b6b3a7640000",
        "input": "0xf088d547000000000000000000000000c77f7fed3b5cc8249adc428c5f44c9063b9734b4",
        "nonce": "0x137",
        "chainId": "0xaa36a7"
      },
      "additionalContracts": [],
      "isFixedGasLimit": false
    }
  ],
  "receipts": [
    {
      "status": "0x1",
      "cumulativeGasUsed": "0x1076968",
      "logs": [
        {
          "address": "0x5eb9cc76c3506942c1c0ead70e877dd5e4f00cb0",
          "topics": [
            "0xddf252ad1be2c89b69c2b068fc378daa952ba7f163c4a11628f55a4df523b3ef",
            "0x0000000000000000000000000000000000000000000000000000000000000000",
            "0x000000000000000000000000c77f7fed3b5cc8249adc428c5f44c9063b9734b4"
          ],
          "data": "0x000000000000000000000000000000000000000000000035aafc5c98490cacbd",
          "blockHash": "0xed0593080d8b657c1da766944fd86a0109f88ad5f258bfaaacb6a67ff6e2d0a2",
          "blockNumber": "0x723b1a",
          "transactionHash": "0x4666c106a9553423bc02f5d612e2a13b25dd097a38298d5371d1f2810157ee0f",
          "transactionIndex": "0x56",
          "logIndex": "0x90",
          "removed": false
        },
        {
          "address": "0x5eb9cc76c3506942c1c0ead70e877dd5e4f00cb0",
          "topics": [
            "0xddf252ad1be2c89b69c2b068fc378daa952ba7f163c4a11628f55a4df523b3ef",
            "0x0000000000000000000000000000000000000000000000000000000000000000",
            "0x000000000000000000000000c77f7fed3b5cc8249adc428c5f44c9063b9734b4"
          ],
          "data": "0x00000000000000000000000000000000000000000000000029acca857b7324e3",
          "blockHash": "0xed0593080d8b657c1da766944fd86a0109f88ad5f258bfaaacb6a67ff6e2d0a2",
          "blockNumber": "0x723b1a",
          "transactionHash": "0x4666c106a9553423bc02f5d612e2a13b25dd097a38298d5371d1f2810157ee0f",
          "transactionIndex": "0x56",
          "logIndex": "0x91",
          "removed": false
        },
        {
          "address": "0x5eb9cc76c3506942c1c0ead70e877dd5e4f00cb0",
          "topics": [
            "0x4afcb4a87cdbd9974efdb92ee48bc8d7cd0ae4bf217004db3d080cbaee652ca7"
          ],
          "data": "0x000000000000000000000000000000000000000000000000000000006785b68c00000000000000000000000000000000000000000000000000038d7f1475df140000000000000000000000000000000000000000000000000de0b6b3a7640000",
          "blockHash": "0xed0593080d8b657c1da766944fd86a0109f88ad5f258bfaaacb6a67ff6e2d0a2",
          "blockNumber": "0x723b1a",
          "transactionHash": "0x4666c106a9553423bc02f5d612e2a13b25dd097a38298d5371d1f2810157ee0f",
          "transactionIndex": "0x56",
          "logIndex": "0x92",
          "removed": false
        }
      ],
      "logsBloom": "0x00000000000000000000000000000000000000000000000000000000000000000000000000000000000000000000000000000000000000004000000000000000000000000000000000000008000000000000000000000000000000000000000000000000020000000000000004000800020000000000000000000010000000000000000000000000000000000000000000000000000000000000010000000000000000000000000000000000000000004000000000000000000000000000020000000002000000800000008000000000000000000000080000000000000020000000000000000000000000000000000000000000000000000000000000000000",
      "type": "0x2",
      "transactionHash": "0x4666c106a9553423bc02f5d612e2a13b25dd097a38298d5371d1f2810157ee0f",
      "transactionIndex": "0x56",
      "blockHash": "0xed0593080d8b657c1da766944fd86a0109f88ad5f258bfaaacb6a67ff6e2d0a2",
      "blockNumber": "0x723b1a",
      "gasUsed": "0xf82c",
      "effectiveGasPrice": "0x31637fad8",
      "from": "0xc77f7fed3b5cc8249adc428c5f44c9063b9734b4",
      "to": "0x5eb9cc76c3506942c1c0ead70e877dd5e4f00cb0",
      "contractAddress": null
    }
  ],
  "libraries": [],
  "pending": [],
  "returns": {},
  "timestamp": 1736816268,
  "chain": 11155111,
  "commit": "51a374b"
}