{
  "transactions": [
    {
      "hash": "0x3d5ffe1816a03435d48d890af13394b4f45364b07d1750adc8f00d849babbe57",
      "transactionType": "CALL",
      "contractName": null,
      "contractAddress": "0x8aafd3ede9adb0ff97c7aebce82a919afb1c8764",
      "function": "sell(uint256)",
      "arguments": [
        "383777283498930"
      ],
      "transaction": {
        "from": "0xc77f7fed3b5cc8249adc428c5f44c9063b9734b4",
        "to": "0x8aafd3ede9adb0ff97c7aebce82a919afb1c8764",
        "gas": "0x1724d",
        "value": "0x0",
        "input": "0xe4849b3200000000000000000000000000000000000000000000000000015d0b1ca7e3b2",
        "nonce": "0xe6d",
        "chainId": "0xaa36a7"
      },
      "additionalContracts": [],
      "isFixedGasLimit": false
    }
  ],
  "receipts": [
    {
      "status": "0x1",
      "cumulativeGasUsed": "0x978473",
      "logs": [
        {
          "address": "0x8aafd3ede9adb0ff97c7aebce82a919afb1c8764",
          "topics": [
            "0xddf252ad1be2c89b69c2b068fc378daa952ba7f163c4a11628f55a4df523b3ef",
            "0x000000000000000000000000c77f7fed3b5cc8249adc428c5f44c9063b9734b4",
            "0x0000000000000000000000000000000000000000000000000000000000000000"
          ],
          "data": "0x00000000000000000000000000000000000000000000000000015a404562f65b",
          "blockHash": "0xa1a923f70f647c73a0eda46f9481d945b3e07c5b60e9cc37d0942510c0e445e5",
          "blockNumber": "0x7313c4",
          "transactionHash": "0x3d5ffe1816a03435d48d890af13394b4f45364b07d1750adc8f00d849babbe57",
          "transactionIndex": "0x8e",
          "logIndex": "0x94",
          "removed": false
        },
        {
          "address": "0x8aafd3ede9adb0ff97c7aebce82a919afb1c8764",
          "topics": [
            "0xddf252ad1be2c89b69c2b068fc378daa952ba7f163c4a11628f55a4df523b3ef",
            "0x000000000000000000000000c77f7fed3b5cc8249adc428c5f44c9063b9734b4",
            "0x000000000000000000000000c77f7fed3b5cc8249adc428c5f44c9063b9734b4"
          ],
          "data": "0x000000000000000000000000000000000000000000000000000002cad744ed57",
          "blockHash": "0xa1a923f70f647c73a0eda46f9481d945b3e07c5b60e9cc37d0942510c0e445e5",
          "blockNumber": "0x7313c4",
          "transactionHash": "0x3d5ffe1816a03435d48d890af13394b4f45364b07d1750adc8f00d849babbe57",
          "transactionIndex": "0x8e",
          "logIndex": "0x95",
          "removed": false
        },
        {
          "address": "0x8aafd3ede9adb0ff97c7aebce82a919afb1c8764",
          "topics": [
            "0x4afcb4a87cdbd9974efdb92ee48bc8d7cd0ae4bf217004db3d080cbaee652ca7"
          ],
          "data": "0x00000000000000000000000000000000000000000000000000000000678fe9c40000000000000000000000000000000000000000000000000004b54a054232bf000000000000000000000000000000000000000000000000000000766a80892c",
          "blockHash": "0xa1a923f70f647c73a0eda46f9481d945b3e07c5b60e9cc37d0942510c0e445e5",
          "blockNumber": "0x7313c4",
          "transactionHash": "0x3d5ffe1816a03435d48d890af13394b4f45364b07d1750adc8f00d849babbe57",
          "transactionIndex": "0x8e",
          "logIndex": "0x96",
          "removed": false
        }
      ],
      "logsBloom": "0x00000000000000000000000000000000000000000600000000000000000000000000000000000000000000000000000000000000000000004000000000000000000000000000004000000008000000000000000000000000000000000000000000000000020000000000000000000800020000000000000000000010000000000000000000000000000000000000000000000000000000000000010000000000000000000000000000000000000000004000000000000000000000000000000000000002000000800000000000000000000000000000080000000000000020000000000000000000000000000000000000000000000000000000000000000000",
      "type": "0x2",
      "transactionHash": "0x3d5ffe1816a03435d48d890af13394b4f45364b07d1750adc8f00d849babbe57",
      "transactionIndex": "0x8e",
      "blockHash": "0xa1a923f70f647c73a0eda46f9481d945b3e07c5b60e9cc37d0942510c0e445e5",
      "blockNumber": "0x7313c4",
      "gasUsed": "0xfd33",
      "effectiveGasPrice": "0x6f9e1136",
      "from": "0xc77f7fed3b5cc8249adc428c5f44c9063b9734b4",
      "to": "0x8aafd3ede9adb0ff97c7aebce82a919afb1c8764",
      "contractAddress": null
    }
  ],
  "libraries": [],
  "pending": [],
  "returns": {},
  "timestamp": 1737484740,
  "chain": 11155111,
  "commit": "51a374b"
}