{
  "transactions": [
    {
      "hash": "0x72f5ead224abc4d13640ac7088ee5b3efc9167628819ba460593fd007483b145",
      "transactionType": "CALL",
      "contractName": null,
      "contractAddress": "0x5eb9cc76c3506942c1c0ead70e877dd5e4f00cb0",
      "function": "buy(address)",
      "arguments": [
        "0xC77f7fed3b5Cc8249aDc428c5F44C9063B9734b4"
      ],
      "transaction": {
        "from": "0xc77f7fed3b5cc8249adc428c5f44c9063b9734b4",
        "to": "0x5eb9cc76c3506942c1c0ead70e877dd5e4f00cb0",
        "gas": "0x1b30c",
        "value": "0xde0b6b3a7640000",
        "input": "0xf088d547000000000000000000000000c77f7fed3b5cc8249adc428c5f44c9063b9734b4",
        "nonce": "0x336",
        "chainId": "0xaa36a7"
      },
      "additionalContracts": [],
      "isFixedGasLimit": false
    }
  ],
  "receipts": [
    {
      "status": "0x1",
      "cumulativeGasUsed": "0xbac395",
      "logs": [
        {
          "address": "0x5eb9cc76c3506942c1c0ead70e877dd5e4f00cb0",
          "topics": [
            "0xddf252ad1be2c89b69c2b068fc378daa952ba7f163c4a11628f55a4df523b3ef",
            "0x0000000000000000000000000000000000000000000000000000000000000000",
            "0x000000000000000000000000c77f7fed3b5cc8249adc428c5f44c9063b9734b4"
          ],
          "data": "0x00000000000000000000000000000000000000000000003575743ce6c06735a0",
          "blockHash": "0xd5830288e92efb53229c7439077448fec15a2dab716431794adb3203cd550ba6",
          "blockNumber": "0x724f23",
          "transactionHash": "0x72f5ead224abc4d13640ac7088ee5b3efc9167628819ba460593fd007483b145",
          "transactionIndex": "0x54",
          "logIndex": "0x83",
          "removed": false
        },
        {
          "address": "0x5eb9cc76c3506942c1c0ead70e877dd5e4f00cb0",
          "topics": [
            "0xddf252ad1be2c89b69c2b068fc378daa952ba7f163c4a11628f55a4df523b3ef",
            "0x0000000000000000000000000000000000000000000000000000000000000000",
            "0x000000000000000000000000c77f7fed3b5cc8249adc428c5f44c9063b9734b4"
          ],
          "data": "0x000000000000000000000000000000000000000000000000298338cd4524d164",
          "blockHash": "0xd5830288e92efb53229c7439077448fec15a2dab716431794adb3203cd550ba6",
          "blockNumber": "0x724f23",
          "transactionHash": "0x72f5ead224abc4d13640ac7088ee5b3efc9167628819ba460593fd007483b145",
          "transactionIndex": "0x54",
          "logIndex": "0x84",
          "removed": false
        },
        {
          "address": "0x5eb9cc76c3506942c1c0ead70e877dd5e4f00cb0",
          "topics": [
            "0x4afcb4a87cdbd9974efdb92ee48bc8d7cd0ae4bf217004db3d080cbaee652ca7"
          ],
          "data": "0x000000000000000000000000000000000000000000000000000000006786a7580000000000000000000000000000000000000000000000000003910dd124da470000000000000000000000000000000000000000000000000de0b6b3a7640000",
          "blockHash": "0xd5830288e92efb53229c7439077448fec15a2dab716431794adb3203cd550ba6",
          "blockNumber": "0x724f23",
          "transactionHash": "0x72f5ead224abc4d13640ac7088ee5b3efc9167628819ba460593fd007483b145",
          "transactionIndex": "0x54",
          "logIndex": "0x85",
          "removed": false
        }
      ],
      "logsBloom": "0x00000000000000000000000000000000000000000000000000000000000000000000000000000000000000000000000000000000000000004000000000000000000000000000000000000008000000000000000000000000000000000000000000000000020000000000000004000800020000000000000000000010000000000000000000000000000000000000000000000000000000000000010000000000000000000000000000000000000000004000000000000000000000000000020000000002000000800000008000000000000000000000080000000000000020000000000000000000000000000000000000000000000000000000000000000000",
      "type": "0x2",
      "transactionHash": "0x72f5ead224abc4d13640ac7088ee5b3efc9167628819ba460593fd007483b145",
      "transactionIndex": "0x54",
      "blockHash": "0xd5830288e92efb53229c7439077448fec15a2dab716431794adb3203cd550ba6",
      "blockNumber": "0x724f23",
      "gasUsed": "0x13af8",
      "effectiveGasPrice": "0x650410052",
      "from": "0xc77f7fed3b5cc8249adc428c5f44c9063b9734b4",
      "to": "0x5eb9cc76c3506942c1c0ead70e877dd5e4f00cb0",
      "contractAddress": null
    }
  ],
  "libraries": [],
  "pending": [],
  "returns": {},
  "timestamp": 1736877914,
  "chain": 11155111,
  "commit": "51a374b"
}