{
  "transactions": [
    {
      "hash": "0x3ed7536071f5b028d681c87ba823cb816ced3158f932afc3670df73cd93eb1ce",
      "transactionType": "CALL",
      "contractName": null,
      "contractAddress": "0x8aafd3ede9adb0ff97c7aebce82a919afb1c8764",
      "function": "sell(uint256)",
      "arguments": [
        "49008147"
      ],
      "transaction": {
        "from": "0xc77f7fed3b5cc8249adc428c5f44c9063b9734b4",
        "to": "0x8aafd3ede9adb0ff97c7aebce82a919afb1c8764",
        "gas": "0x15d88",
        "value": "0x0",
        "input": "0xe4849b320000000000000000000000000000000000000000000000000000000002ebce13",
        "nonce": "0x15a7",
        "chainId": "0xaa36a7"
      },
      "additionalContracts": [],
      "isFixedGasLimit": false
    }
  ],
  "receipts": [
    {
      "status": "0x1",
      "cumulativeGasUsed": "0xf45e21",
      "logs": [
        {
          "address": "0x8aafd3ede9adb0ff97c7aebce82a919afb1c8764",
          "topics": [
            "0xddf252ad1be2c89b69c2b068fc378daa952ba7f163c4a11628f55a4df523b3ef",
            "0x000000000000000000000000c77f7fed3b5cc8249adc428c5f44c9063b9734b4",
            "0x0000000000000000000000000000000000000000000000000000000000000000"
          ],
          "data": "0x0000000000000000000000000000000000000000000000000000000002e5d292",
          "blockHash": "0x76218a0ef20609e118e28cb4266ccdffc48b3854d948ecd4f0a0da3e65bd8618",
          "blockNumber": "0x731d1d",
          "transactionHash": "0x3ed7536071f5b028d681c87ba823cb816ced3158f932afc3670df73cd93eb1ce",
          "transactionIndex": "0xa7",
          "logIndex": "0x12d",
          "removed": false
        },
        {
          "address": "0x8aafd3ede9adb0ff97c7aebce82a919afb1c8764",
          "topics": [
            "0xddf252ad1be2c89b69c2b068fc378daa952ba7f163c4a11628f55a4df523b3ef",
            "0x000000000000000000000000c77f7fed3b5cc8249adc428c5f44c9063b9734b4",
            "0x000000000000000000000000c77f7fed3b5cc8249adc428c5f44c9063b9734b4"
          ],
          "data": "0x000000000000000000000000000000000000000000000000000000000005fb81",
          "blockHash": "0x76218a0ef20609e118e28cb4266ccdffc48b3854d948ecd4f0a0da3e65bd8618",
          "blockNumber": "0x731d1d",
          "transactionHash": "0x3ed7536071f5b028d681c87ba823cb816ced3158f932afc3670df73cd93eb1ce",
          "transactionIndex": "0xa7",
          "logIndex": "0x12e",
          "removed": false
        },
        {
          "address": "0x8aafd3ede9adb0ff97c7aebce82a919afb1c8764",
          "topics": [
            "0x4afcb4a87cdbd9974efdb92ee48bc8d7cd0ae4bf217004db3d080cbaee652ca7"
          ],
          "data": "0x0000000000000000000000000000000000000000000000000000000067905a440000000000000000000000000000000000000000000000000012f9864555c788000000000000000000000000000000000000000000000000000000000003fe73",
          "blockHash": "0x76218a0ef20609e118e28cb4266ccdffc48b3854d948ecd4f0a0da3e65bd8618",
          "blockNumber": "0x731d1d",
          "transactionHash": "0x3ed7536071f5b028d681c87ba823cb816ced3158f932afc3670df73cd93eb1ce",
          "transactionIndex": "0xa7",
          "logIndex": "0x12f",
          "removed": false
        }
      ],
      "logsBloom": "0x00000000000000000000000000000000000000000600000000000000000000000000000000000000000000000000000000000000000000004000000000000000000000000000004000000008000000000000000000000000000000000000000000000000020000000000000000000800020000000000000000000010000000000000000000000000000000000000000000000000000000000000010000000000000000000000000000000000000000004000000000000000000000000000000000000002000000800000000000000000000000000000080000000000000020000000000000000000000000000000000000000000000000000000000000000000",
      "type": "0x2",
      "transactionHash": "0x3ed7536071f5b028d681c87ba823cb816ced3158f932afc3670df73cd93eb1ce",
      "transactionIndex": "0xa7",
      "blockHash": "0x76218a0ef20609e118e28cb4266ccdffc48b3854d948ecd4f0a0da3e65bd8618",
      "blockNumber": "0x731d1d",
      "gasUsed": "0xfd0f",
      "effectiveGasPrice": "0x495425d8",
      "from": "0xc77f7fed3b5cc8249adc428c5f44c9063b9734b4",
      "to": "0x8aafd3ede9adb0ff97c7aebce82a919afb1c8764",
      "contractAddress": null
    }
  ],
  "libraries": [],
  "pending": [],
  "returns": {},
  "timestamp": 1737513542,
  "chain": 11155111,
  "commit": "1d2fb70"
}