{
  "transactions": [
    {
      "hash": "0xf02cfd487a68bd66ea4fbb3b1f4f2d3eaae0896286fa37461216cb6005a56be9",
      "transactionType": "CALL",
      "contractName": null,
      "contractAddress": "0x270e88f8683660553e8ba4eb2ad7c91a1710d769",
      "function": "sell(uint256)",
      "arguments": [
        "736220203208862472066"
      ],
      "transaction": {
        "from": "0xc77f7fed3b5cc8249adc428c5f44c9063b9734b4",
        "to": "0x270e88f8683660553e8ba4eb2ad7c91a1710d769",
        "gas": "0x16fec",
        "value": "0x0",
        "input": "0xe4849b32000000000000000000000000000000000000000000000027e91b96281a261782",
        "nonce": "0x766",
        "chainId": "0xaa36a7"
      },
      "additionalContracts": [],
      "isFixedGasLimit": false
    }
  ],
  "receipts": [
    {
      "status": "0x1",
      "cumulativeGasUsed": "0x1f9a171",
      "logs": [
        {
          "address": "0x270e88f8683660553e8ba4eb2ad7c91a1710d769",
          "topics": [
            "0xddf252ad1be2c89b69c2b068fc378daa952ba7f163c4a11628f55a4df523b3ef",
            "0x000000000000000000000000c77f7fed3b5cc8249adc428c5f44c9063b9734b4",
            "0x0000000000000000000000000000000000000000000000000000000000000000"
          ],
          "data": "0x000000000000000000000000000000000000000000000027e91b96281a261782",
          "blockHash": "0x873eee7dd7b8f69ce01d75885b49c0590b09b35fd636b6c6d4c8e37a82286255",
          "blockNumber": "0x72548f",
          "transactionHash": "0xf02cfd487a68bd66ea4fbb3b1f4f2d3eaae0896286fa37461216cb6005a56be9",
          "transactionIndex": "0x42",
          "logIndex": "0x2df",
          "removed": false
        },
        {
          "address": "0x270e88f8683660553e8ba4eb2ad7c91a1710d769",
          "topics": [
            "0x4afcb4a87cdbd9974efdb92ee48bc8d7cd0ae4bf217004db3d080cbaee652ca7"
          ],
          "data": "0x000000000000000000000000000000000000000000000000000000006786e8bc0000000000000000000000000000000000000000000000000004cb018c5d77e80000000000000000000000000000000000000000000000000dc8281bd31819dc",
          "blockHash": "0x873eee7dd7b8f69ce01d75885b49c0590b09b35fd636b6c6d4c8e37a82286255",
          "blockNumber": "0x72548f",
          "transactionHash": "0xf02cfd487a68bd66ea4fbb3b1f4f2d3eaae0896286fa37461216cb6005a56be9",
          "transactionIndex": "0x42",
          "logIndex": "0x2e0",
          "removed": false
        }
      ],
      "logsBloom": "0x00000000000000000000000000000000000000000000000000000000000000000000000000000000000000000000000020000000000000004000000000000000000000000000000000000008000000000000000000000000000000000000000000000000020000000000000000000800020000000000000000000010000000000000000000010000000000000000000000000000000000000000010000000000000000000000000000000000000000004000000000000000000000000000000000000002000000800000000000000000000000000000080000008000000020000000000000000000000000000000000000000000000000000000000000000000",
      "type": "0x2",
      "transactionHash": "0xf02cfd487a68bd66ea4fbb3b1f4f2d3eaae0896286fa37461216cb6005a56be9",
      "transactionIndex": "0x42",
      "blockHash": "0x873eee7dd7b8f69ce01d75885b49c0590b09b35fd636b6c6d4c8e37a82286255",
      "blockNumber": "0x72548f",
      "gasUsed": "0xfb93",
      "effectiveGasPrice": "0x133c6d1dc",
      "from": "0xc77f7fed3b5cc8249adc428c5f44c9063b9734b4",
      "to": "0x270e88f8683660553e8ba4eb2ad7c91a1710d769",
      "contractAddress": null
    }
  ],
  "libraries": [],
  "pending": [],
  "returns": {},
  "timestamp": 1736894655,
  "chain": 11155111,
  "commit": "51a374b"
}