{
  "transactions": [
    {
      "hash": "0x9a0da52d6fdef14e49a793c1ddff01204fb09b70b91dfd9aa649897b431e5c59",
      "transactionType": "CALL",
      "contractName": null,
      "contractAddress": "0xbf4a322f1496e5c3d34a9bcdb4c60567b38c7de2",
      "function": "sell(uint256)",
      "arguments": [
        "982543482202303344381"
      ],
      "transaction": {
        "from": "0xc77f7fed3b5cc8249adc428c5f44c9063b9734b4",
        "to": "0xbf4a322f1496e5c3d34a9bcdb4c60567b38c7de2",
        "gas": "0x16fea",
        "value": "0x0",
        "input": "0xe4849b320000000000000000000000000000000000000000000000354387ab5313a1aefd",
        "nonce": "0xb5b",
        "chainId": "0xaa36a7"
      },
      "additionalContracts": [],
      "isFixedGasLimit": false
    }
  ],
  "receipts": [
    {
      "status": "0x1",
      "cumulativeGasUsed": "0xa96b39",
      "logs": [
        {
          "address": "0xbf4a322f1496e5c3d34a9bcdb4c60567b38c7de2",
          "topics": [
            "0xddf252ad1be2c89b69c2b068fc378daa952ba7f163c4a11628f55a4df523b3ef",
            "0x000000000000000000000000c77f7fed3b5cc8249adc428c5f44c9063b9734b4",
            "0x0000000000000000000000000000000000000000000000000000000000000000"
          ],
          "data": "0x0000000000000000000000000000000000000000000000354387ab5313a1aefd",
          "blockHash": "0xfab3edc2d4c1b2f8983fd1f9ed41d585a4450ee7bf8c5b466c56f9442cafb27f",
          "blockNumber": "0x725b63",
          "transactionHash": "0x9a0da52d6fdef14e49a793c1ddff01204fb09b70b91dfd9aa649897b431e5c59",
          "transactionIndex": "0x43",
          "logIndex": "0x66",
          "removed": false
        },
        {
          "address": "0xbf4a322f1496e5c3d34a9bcdb4c60567b38c7de2",
          "topics": [
            "0x4afcb4a87cdbd9974efdb92ee48bc8d7cd0ae4bf217004db3d080cbaee652ca7"
          ],
          "data": "0x0000000000000000000000000000000000000000000000000000000067873b0000000000000000000000000000000000000000000000000000039733ac13c1990000000000000000000000000000000000000000000000000dc7e3e7fadfaaab",
          "blockHash": "0xfab3edc2d4c1b2f8983fd1f9ed41d585a4450ee7bf8c5b466c56f9442cafb27f",
          "blockNumber": "0x725b63",
          "transactionHash": "0x9a0da52d6fdef14e49a793c1ddff01204fb09b70b91dfd9aa649897b431e5c59",
          "transactionIndex": "0x43",
          "logIndex": "0x67",
          "removed": false
        }
      ],
      "logsBloom": "0x00000000000000000000000000000000000000000000000000000000000000000000000000000000000000000000000000000000000000004000000000000000000000000000000000000008000000000000001000000000000000000000000000000000020000000000000000000800020000000000000000000010000000000000000000000000000000000000000000000000000008000000010000000000000000000000000000000000000000004000000000000000000000000000000000000002000000800000000000001000000000000000080000000000000020000000000000000000000000000000000000000000000000000000000000000000",
      "type": "0x2",
      "transactionHash": "0x9a0da52d6fdef14e49a793c1ddff01204fb09b70b91dfd9aa649897b431e5c59",
      "transactionIndex": "0x43",
      "blockHash": "0xfab3edc2d4c1b2f8983fd1f9ed41d585a4450ee7bf8c5b466c56f9442cafb27f",
      "blockNumber": "0x725b63",
      "gasUsed": "0xfb91",
      "effectiveGasPrice": "0x4039719e",
      "from": "0xc77f7fed3b5cc8249adc428c5f44c9063b9734b4",
      "to": "0xbf4a322f1496e5c3d34a9bcdb4c60567b38c7de2",
      "contractAddress": null
    }
  ],
  "libraries": [],
  "pending": [],
  "returns": {},
  "timestamp": 1736915712,
  "chain": 11155111,
  "commit": "51a374b"
}