{
  "transactions": [
    {
      "hash": "0xd7545068d5639fff654bbd19231a89fc38237eb97f2b988382e1878d901a0607",
      "transactionType": "CALL",
      "contractName": null,
      "contractAddress": "0x8aafd3ede9adb0ff97c7aebce82a919afb1c8764",
      "function": "sell(uint256)",
      "arguments": [
        "178994701"
      ],
      "transaction": {
        "from": "0xc77f7fed3b5cc8249adc428c5f44c9063b9734b4",
        "to": "0x8aafd3ede9adb0ff97c7aebce82a919afb1c8764",
        "gas": "0x15d88",
        "value": "0x0",
        "input": "0xe4849b32000000000000000000000000000000000000000000000000000000000aab3e0d",
        "nonce": "0x11e1",
        "chainId": "0xaa36a7"
      },
      "additionalContracts": [],
      "isFixedGasLimit": false
    }
  ],
  "receipts": [
    {
      "status": "0x1",
      "cumulativeGasUsed": "0xafb2d1",
      "logs": [
        {
          "address": "0x8aafd3ede9adb0ff97c7aebce82a919afb1c8764",
          "topics": [
            "0xddf252ad1be2c89b69c2b068fc378daa952ba7f163c4a11628f55a4df523b3ef",
            "0x000000000000000000000000c77f7fed3b5cc8249adc428c5f44c9063b9734b4",
            "0x0000000000000000000000000000000000000000000000000000000000000000"
          ],
          "data": "0x000000000000000000000000000000000000000000000000000000000a956478",
          "blockHash": "0xb4124b3445128db310e6248e8ff8e7e4d3df7403eea47ba4eec12e543b2f899d",
          "blockNumber": "0x7318b7",
          "transactionHash": "0xd7545068d5639fff654bbd19231a89fc38237eb97f2b988382e1878d901a0607",
          "transactionIndex": "0x7c",
          "logIndex": "0x90",
          "removed": false
        },
        {
          "address": "0x8aafd3ede9adb0ff97c7aebce82a919afb1c8764",
          "topics": [
            "0xddf252ad1be2c89b69c2b068fc378daa952ba7f163c4a11628f55a4df523b3ef",
            "0x000000000000000000000000c77f7fed3b5cc8249adc428c5f44c9063b9734b4",
            "0x000000000000000000000000c77f7fed3b5cc8249adc428c5f44c9063b9734b4"
          ],
          "data": "0x000000000000000000000000000000000000000000000000000000000015d995",
          "blockHash": "0xb4124b3445128db310e6248e8ff8e7e4d3df7403eea47ba4eec12e543b2f899d",
          "blockNumber": "0x7318b7",
          "transactionHash": "0xd7545068d5639fff654bbd19231a89fc38237eb97f2b988382e1878d901a0607",
          "transactionIndex": "0x7c",
          "logIndex": "0x91",
          "removed": false
        },
        {
          "address": "0x8aafd3ede9adb0ff97c7aebce82a919afb1c8764",
          "topics": [
            "0x4afcb4a87cdbd9974efdb92ee48bc8d7cd0ae4bf217004db3d080cbaee652ca7"
          ],
          "data": "0x000000000000000000000000000000000000000000000000000000006790256400000000000000000000000000000000000000000000000000052c1eafcfd27f000000000000000000000000000000000000000000000000000000000003f9f3",
          "blockHash": "0xb4124b3445128db310e6248e8ff8e7e4d3df7403eea47ba4eec12e543b2f899d",
          "blockNumber": "0x7318b7",
          "transactionHash": "0xd7545068d5639fff654bbd19231a89fc38237eb97f2b988382e1878d901a0607",
          "transactionIndex": "0x7c",
          "logIndex": "0x92",
          "removed": false
        }
      ],
      "logsBloom": "0x00000000000000000000000000000000000000000600000000000000000000000000000000000000000000000000000000000000000000004000000000000000000000000000004000000008000000000000000000000000000000000000000000000000020000000000000000000800020000000000000000000010000000000000000000000000000000000000000000000000000000000000010000000000000000000000000000000000000000004000000000000000000000000000000000000002000000800000000000000000000000000000080000000000000020000000000000000000000000000000000000000000000000000000000000000000",
      "type": "0x2",
      "transactionHash": "0xd7545068d5639fff654bbd19231a89fc38237eb97f2b988382e1878d901a0607",
      "transactionIndex": "0x7c",
      "blockHash": "0xb4124b3445128db310e6248e8ff8e7e4d3df7403eea47ba4eec12e543b2f899d",
      "blockNumber": "0x7318b7",
      "gasUsed": "0xfd0f",
      "effectiveGasPrice": "0x486f557b",
      "from": "0xc77f7fed3b5cc8249adc428c5f44c9063b9734b4",
      "to": "0x8aafd3ede9adb0ff97c7aebce82a919afb1c8764",
      "contractAddress": null
    }
  ],
  "libraries": [],
  "pending": [],
  "returns": {},
  "timestamp": 1737500006,
  "chain": 11155111,
  "commit": "1d2fb70"
}