{
  "transactions": [
    {
      "hash": "0xbad7b9fcdce091e0cc62657f0dbe9a71135f7531e817a71aea1b65e9ca259da8",
      "transactionType": "CALL",
      "contractName": null,
      "contractAddress": "0x270e88f8683660553e8ba4eb2ad7c91a1710d769",
      "function": "buy(address)",
      "arguments": [
        "0xC77f7fed3b5Cc8249aDc428c5F44C9063B9734b4"
      ],
      "transaction": {
        "from": "0xc77f7fed3b5cc8249adc428c5f44c9063b9734b4",
        "to": "0x270e88f8683660553e8ba4eb2ad7c91a1710d769",
        "gas": "0x1b30c",
        "value": "0xde0b6b3a7640000",
        "input": "0xf088d547000000000000000000000000c77f7fed3b5cc8249adc428c5f44c9063b9734b4",
        "nonce": "0x819",
        "chainId": "0xaa36a7"
      },
      "additionalContracts": [],
      "isFixedGasLimit": false
    }
  ],
  "receipts": [
    {
      "status": "0x1",
      "cumulativeGasUsed": "0x8f9c51",
      "logs": [
        {
          "address": "0x270e88f8683660553e8ba4eb2ad7c91a1710d769",
          "topics": [
            "0xddf252ad1be2c89b69c2b068fc378daa952ba7f163c4a11628f55a4df523b3ef",
            "0x0000000000000000000000000000000000000000000000000000000000000000",
            "0x000000000000000000000000c77f7fed3b5cc8249adc428c5f44c9063b9734b4"
          ],
          "data": "0x000000000000000000000000000000000000000000000026f3e14a669345741d",
          "blockHash": "0xa3235751ceeab8e95ac4f64b2775d6246e20dc1e548c44774e5f11c37ea3585c",
          "blockNumber": "0x72555d",
          "transactionHash": "0xbad7b9fcdce091e0cc62657f0dbe9a71135f7531e817a71aea1b65e9ca259da8",
          "transactionIndex": "0x5b",
          "logIndex": "0x6c",
          "removed": false
        },
        {
          "address": "0x270e88f8683660553e8ba4eb2ad7c91a1710d769",
          "topics": [
            "0xddf252ad1be2c89b69c2b068fc378daa952ba7f163c4a11628f55a4df523b3ef",
            "0x0000000000000000000000000000000000000000000000000000000000000000",
            "0x000000000000000000000000c77f7fed3b5cc8249adc428c5f44c9063b9734b4"
          ],
          "data": "0x0000000000000000000000000000000000000000000000001e3f81472389ce04",
          "blockHash": "0xa3235751ceeab8e95ac4f64b2775d6246e20dc1e548c44774e5f11c37ea3585c",
          "blockNumber": "0x72555d",
          "transactionHash": "0xbad7b9fcdce091e0cc62657f0dbe9a71135f7531e817a71aea1b65e9ca259da8",
          "transactionIndex": "0x5b",
          "logIndex": "0x6d",
          "removed": false
        },
        {
          "address": "0x270e88f8683660553e8ba4eb2ad7c91a1710d769",
          "topics": [
            "0x4afcb4a87cdbd9974efdb92ee48bc8d7cd0ae4bf217004db3d080cbaee652ca7"
          ],
          "data": "0x000000000000000000000000000000000000000000000000000000006786f2640000000000000000000000000000000000000000000000000004e52f2335e2210000000000000000000000000000000000000000000000000de0b6b3a7640000",
          "blockHash": "0xa3235751ceeab8e95ac4f64b2775d6246e20dc1e548c44774e5f11c37ea3585c",
          "blockNumber": "0x72555d",
          "transactionHash": "0xbad7b9fcdce091e0cc62657f0dbe9a71135f7531e817a71aea1b65e9ca259da8",
          "transactionIndex": "0x5b",
          "logIndex": "0x6e",
          "removed": false
        }
      ],
      "logsBloom": "0x00000000000000000000000000000000000000000000000000000000000000000000000000000000000000000000000020000000000000004000000000000000000000000000000000000008000000000000000000000000000000000000000000000000020000000000000000000800020000000000000000000010000000000000000000010000000000000000000000000000000000000000010000000000000000000000000000000000000000004000000000000000000000000000000000000002000000800000000000000000000000000000080000008000000020000000000000000000000000000000000000000000000000000000000000000000",
      "type": "0x2",
      "transactionHash": "0xbad7b9fcdce091e0cc62657f0dbe9a71135f7531e817a71aea1b65e9ca259da8",
      "transactionIndex": "0x5b",
      "blockHash": "0xa3235751ceeab8e95ac4f64b2775d6246e20dc1e548c44774e5f11c37ea3585c",
      "blockNumber": "0x72555d",
      "gasUsed": "0x13af8",
      "effectiveGasPrice": "0x8bd2ba66",
      "from": "0xc77f7fed3b5cc8249adc428c5f44c9063b9734b4",
      "to": "0x270e88f8683660553e8ba4eb2ad7c91a1710d769",
      "contractAddress": null
    }
  ],
  "libraries": [],
  "pending": [],
  "returns": {},
  "timestamp": 1736897125,
  "chain": 11155111,
  "commit": "51a374b"
}