{
  "transactions": [
    {
      "hash": "0x07d7aa173ef40516a3358176e00ff60fed7e069379b2d68837e9b3735aca30ac",
      "transactionType": "CALL",
      "contractName": null,
      "contractAddress": "0x8aafd3ede9adb0ff97c7aebce82a919afb1c8764",
      "function": "sell(uint256)",
      "arguments": [
        "5403126653149526930"
      ],
      "transaction": {
        "from": "0xc77f7fed3b5cc8249adc428c5f44c9063b9734b4",
        "to": "0x8aafd3ede9adb0ff97c7aebce82a919afb1c8764",
        "gas": "0x15dca",
        "value": "0x0",
        "input": "0xe4849b320000000000000000000000000000000000000000000000004afbc310656c3b92",
        "nonce": "0x1240",
        "chainId": "0xaa36a7"
      },
      "additionalContracts": [],
      "isFixedGasLimit": false
    }
  ],
  "receipts": [
    {
      "status": "0x1",
      "cumulativeGasUsed": "0x220025f",
      "logs": [
        {
          "address": "0x8aafd3ede9adb0ff97c7aebce82a919afb1c8764",
          "topics": [
            "0xddf252ad1be2c89b69c2b068fc378daa952ba7f163c4a11628f55a4df523b3ef",
            "0x000000000000000000000000c77f7fed3b5cc8249adc428c5f44c9063b9734b4",
            "0x0000000000000000000000000000000000000000000000000000000000000000"
          ],
          "data": "0x0000000000000000000000000000000000000000000000004a623224beb930db",
          "blockHash": "0xd359f76997c7ba7edaecca1ed7ad2e1869447939d535d128fb45690b3ad3ded0",
          "blockNumber": "0x731920",
          "transactionHash": "0x07d7aa173ef40516a3358176e00ff60fed7e069379b2d68837e9b3735aca30ac",
          "transactionIndex": "0x75",
          "logIndex": "0x1115",
          "removed": false
        },
        {
          "address": "0x8aafd3ede9adb0ff97c7aebce82a919afb1c8764",
          "topics": [
            "0xddf252ad1be2c89b69c2b068fc378daa952ba7f163c4a11628f55a4df523b3ef",
            "0x000000000000000000000000c77f7fed3b5cc8249adc428c5f44c9063b9734b4",
            "0x000000000000000000000000c77f7fed3b5cc8249adc428c5f44c9063b9734b4"
          ],
          "data": "0x000000000000000000000000000000000000000000000000009990eba6b30ab7",
          "blockHash": "0xd359f76997c7ba7edaecca1ed7ad2e1869447939d535d128fb45690b3ad3ded0",
          "blockNumber": "0x731920",
          "transactionHash": "0x07d7aa173ef40516a3358176e00ff60fed7e069379b2d68837e9b3735aca30ac",
          "transactionIndex": "0x75",
          "logIndex": "0x1116",
          "removed": false
        },
        {
          "address": "0x8aafd3ede9adb0ff97c7aebce82a919afb1c8764",
          "topics": [
            "0x4afcb4a87cdbd9974efdb92ee48bc8d7cd0ae4bf217004db3d080cbaee652ca7"
          ],
          "data": "0x0000000000000000000000000000000000000000000000000000000067902a5000000000000000000000000000000000000000000000000000053aa691f28692000000000000000000000000000000000000000000000000001c40dab43119c8",
          "blockHash": "0xd359f76997c7ba7edaecca1ed7ad2e1869447939d535d128fb45690b3ad3ded0",
          "blockNumber": "0x731920",
          "transactionHash": "0x07d7aa173ef40516a3358176e00ff60fed7e069379b2d68837e9b3735aca30ac",
          "transactionIndex": "0x75",
          "logIndex": "0x1117",
          "removed": false
        }
      ],
      "logsBloom": "0x00000000000000000000000000000000000000000600000000000000000000000000000000000000000000000000000000000000000000004000000000000000000000000000004000000008000000000000000000000000000000000000000000000000020000000000000000000800020000000000000000000010000000000000000000000000000000000000000000000000000000000000010000000000000000000000000000000000000000004000000000000000000000000000000000000002000000800000000000000000000000000000080000000000000020000000000000000000000000000000000000000000000000000000000000000000",
      "type": "0x2",
      "transactionHash": "0x07d7aa173ef40516a3358176e00ff60fed7e069379b2d68837e9b3735aca30ac",
      "transactionIndex": "0x75",
      "blockHash": "0xd359f76997c7ba7edaecca1ed7ad2e1869447939d535d128fb45690b3ad3ded0",
      "blockNumber": "0x731920",
      "gasUsed": "0xfd3f",
      "effectiveGasPrice": "0x3f6fc3cf",
      "from": "0xc77f7fed3b5cc8249adc428c5f44c9063b9734b4",
      "to": "0x8aafd3ede9adb0ff97c7aebce82a919afb1c8764",
      "contractAddress": null
    }
  ],
  "libraries": [],
  "pending": [],
  "returns": {},
  "timestamp": 1737501266,
  "chain": 11155111,
  "commit": "1d2fb70"
}