{
  "transactions": [
    {
      "hash": "0x93f085c491185ca41230b8c335e87b07b6ad2f5107dd975c80098e8ab7a932f9",
      "transactionType": "CALL",
      "contractName": null,
      "contractAddress": "0xfbadd1869dac5d0ae1c71944e4ebe559a4e174f7",
      "function": "borrow(uint256,uint256)",
      "arguments": [
        "19932885906040268",
        "0"
      ],
      "transaction": {
        "from": "0xf66076775ad1f36dd12c1f1b10c21d1aadf0d6de",
        "to": "0xfbadd1869dac5d0ae1c71944e4ebe559a4e174f7",
        "gas": "0x52ca3",
        "value": "0x0",
        "input": "0x0ecbcdab0000000000000000000000000000000000000000000000000046d0daa7c725cc0000000000000000000000000000000000000000000000000000000000000000",
        "nonce": "0x4a",
        "chainId": "0xaa36a7"
      },
      "additionalContracts": [],
      "isFixedGasLimit": false
    }
  ],
  "receipts": [
    {
      "status": "0x1",
      "cumulativeGasUsed": "0xe73003",
      "logs": [
        {
          "address": "0xfbadd1869dac5d0ae1c71944e4ebe559a4e174f7",
          "topics": [
            "0xddf252ad1be2c89b69c2b068fc378daa952ba7f163c4a11628f55a4df523b3ef",
            "0x000000000000000000000000f66076775ad1f36dd12c1f1b10c21d1aadf0d6de",
            "0x000000000000000000000000fbadd1869dac5d0ae1c71944e4ebe559a4e174f7"
          ],
          "data": "0x00000000000000000000000000000000000000000000000112c7bb1858bc4b92",
          "blockHash": "0x77e97c14bbe50f59b49b9b087ff30f843048808a47ea10c2a599987620634395",
          "blockNumber": "0x73d0bd",
          "transactionHash": "0x93f085c491185ca41230b8c335e87b07b6ad2f5107dd975c80098e8ab7a932f9",
          "transactionIndex": "0x6c",
          "logIndex": "0x9c",
          "removed": false
        },
        {
          "address": "0xfbadd1869dac5d0ae1c71944e4ebe559a4e174f7",
          "topics": [
            "0x03bbe564cb1b78e43195eeadbde99e5b89b19345862807fcfb59f884e4165e25"
          ],
          "data": "0x000000000000000000000000f66076775ad1f36dd12c1f1b10c21d1aadf0d6de0000000000000000000000000000000000000000000000000046096fcd5b3aa1",
          "blockHash": "0x77e97c14bbe50f59b49b9b087ff30f843048808a47ea10c2a599987620634395",
          "blockNumber": "0x73d0bd",
          "transactionHash": "0x93f085c491185ca41230b8c335e87b07b6ad2f5107dd975c80098e8ab7a932f9",
          "transactionIndex": "0x6c",
          "logIndex": "0x9d",
          "removed": false
        },
        {
          "address": "0xfbadd1869dac5d0ae1c71944e4ebe559a4e174f7",
          "topics": [
            "0x03bbe564cb1b78e43195eeadbde99e5b89b19345862807fcfb59f884e4165e25"
          ],
          "data": "0x00000000000000000000000038818e389773445cd73adbaa37b8b169f458c6e1000000000000000000000000000000000000000000000000000005704bc66f24",
          "blockHash": "0x77e97c14bbe50f59b49b9b087ff30f843048808a47ea10c2a599987620634395",
          "blockNumber": "0x73d0bd",
          "transactionHash": "0x93f085c491185ca41230b8c335e87b07b6ad2f5107dd975c80098e8ab7a932f9",
          "transactionIndex": "0x6c",
          "logIndex": "0x9e",
          "removed": false
        },
        {
          "address": "0xfbadd1869dac5d0ae1c71944e4ebe559a4e174f7",
          "topics": [
            "0xaec00f5213a37254bc68a26b0685d1a5b2bf513e1e587c94c7df7f4a62b56c9c"
          ],
          "data": "0x00000000000000000000000000000000000000000000000112c7bb1858bc4b9200000000000000000000000000000000000000000000000000461b90c9f0ad1900000000000000000000000000000000000000000000000000461b90c9f0ad1900000000000000000000000000000000000000000000000112c7bb1858bc4b92",
          "blockHash": "0x77e97c14bbe50f59b49b9b087ff30f843048808a47ea10c2a599987620634395",
          "blockNumber": "0x73d0bd",
          "transactionHash": "0x93f085c491185ca41230b8c335e87b07b6ad2f5107dd975c80098e8ab7a932f9",
          "transactionIndex": "0x6c",
          "logIndex": "0x9f",
          "removed": false
        },
        {
          "address": "0xfbadd1869dac5d0ae1c71944e4ebe559a4e174f7",
          "topics": [
            "0x4afcb4a87cdbd9974efdb92ee48bc8d7cd0ae4bf217004db3d080cbaee652ca7"
          ],
          "data": "0x0000000000000000000000000000000000000000000000000000000067990c50000000000000000000000000000000000000000000000000000394064829d6df00000000000000000000000000000000000000000000000000001220fc957278",
          "blockHash": "0x77e97c14bbe50f59b49b9b087ff30f843048808a47ea10c2a599987620634395",
          "blockNumber": "0x73d0bd",
          "transactionHash": "0x93f085c491185ca41230b8c335e87b07b6ad2f5107dd975c80098e8ab7a932f9",
          "transactionIndex": "0x6c",
          "logIndex": "0xa0",
          "removed": false
        }
      ],
      "logsBloom": "0x00000000000000040000000100000100400040000000000000000000000000000008000000000000000000000000000000012000000000004000000000000000000000000000000000000008000000000000000000000000000000000000000000000000000000000000000000000000220000000000000000000010000000000000000000000000000000000000008000000000000000000000000000000000000000000000000000000400000000004000000000000000000000001000000000000002000000000000000000000000000000000000000000000020000000000002000000002000000000000000000000000000000000000000000000000000",
      "type": "0x2",
      "transactionHash": "0x93f085c491185ca41230b8c335e87b07b6ad2f5107dd975c80098e8ab7a932f9",
      "transactionIndex": "0x6c",
      "blockHash": "0x77e97c14bbe50f59b49b9b087ff30f843048808a47ea10c2a599987620634395",
      "blockNumber": "0x73d0bd",
      "gasUsed": "0x3bf04",
      "effectiveGasPrice": "0x57cdc86e",
      "from": "0xf66076775ad1f36dd12c1f1b10c21d1aadf0d6de",
      "to": "0xfbadd1869dac5d0ae1c71944e4ebe559a4e174f7",
      "contractAddress": null
    }
  ],
  "libraries": [],
  "pending": [],
  "returns": {},
  "timestamp": 1738083410,
  "chain": 11155111,
  "commit": "f5162e9"
}