{
  "transactions": [
    {
      "hash": "0xaecc33d3d007d2422972cddc4f89fc93394a47ecb23b792ffd8efc990081bb8b",
      "transactionType": "CALL",
      "contractName": null,
      "contractAddress": "0x8aafd3ede9adb0ff97c7aebce82a919afb1c8764",
      "function": "sell(uint256)",
      "arguments": [
        "47840115029088784"
      ],
      "transaction": {
        "from": "0xc77f7fed3b5cc8249adc428c5f44c9063b9734b4",
        "to": "0x8aafd3ede9adb0ff97c7aebce82a919afb1c8764",
        "gas": "0x1724d",
        "value": "0x0",
        "input": "0xe4849b3200000000000000000000000000000000000000000000000000a9f654c6529a10",
        "nonce": "0xebc",
        "chainId": "0xaa36a7"
      },
      "additionalContracts": [],
      "isFixedGasLimit": false
    }
  ],
  "receipts": [
    {
      "status": "0x1",
      "cumulativeGasUsed": "0x9c56bd",
      "logs": [
        {
          "address": "0x8aafd3ede9adb0ff97c7aebce82a919afb1c8764",
          "topics": [
            "0xddf252ad1be2c89b69c2b068fc378daa952ba7f163c4a11628f55a4df523b3ef",
            "0x000000000000000000000000c77f7fed3b5cc8249adc428c5f44c9063b9734b4",
            "0x0000000000000000000000000000000000000000000000000000000000000000"
          ],
          "data": "0x00000000000000000000000000000000000000000000000000a89a3f9dd2f70a",
          "blockHash": "0xc228a7f29198c3abd503233c056cabbbcdf4c684cdf749897c75a04b355e6333",
          "blockNumber": "0x731421",
          "transactionHash": "0xaecc33d3d007d2422972cddc4f89fc93394a47ecb23b792ffd8efc990081bb8b",
          "transactionIndex": "0x7f",
          "logIndex": "0x95",
          "removed": false
        },
        {
          "address": "0x8aafd3ede9adb0ff97c7aebce82a919afb1c8764",
          "topics": [
            "0xddf252ad1be2c89b69c2b068fc378daa952ba7f163c4a11628f55a4df523b3ef",
            "0x000000000000000000000000c77f7fed3b5cc8249adc428c5f44c9063b9734b4",
            "0x000000000000000000000000c77f7fed3b5cc8249adc428c5f44c9063b9734b4"
          ],
          "data": "0x00000000000000000000000000000000000000000000000000015c15287fa306",
          "blockHash": "0xc228a7f29198c3abd503233c056cabbbcdf4c684cdf749897c75a04b355e6333",
          "blockNumber": "0x731421",
          "transactionHash": "0xaecc33d3d007d2422972cddc4f89fc93394a47ecb23b792ffd8efc990081bb8b",
          "transactionIndex": "0x7f",
          "logIndex": "0x96",
          "removed": false
        },
        {
          "address": "0x8aafd3ede9adb0ff97c7aebce82a919afb1c8764",
          "topics": [
            "0x4afcb4a87cdbd9974efdb92ee48bc8d7cd0ae4bf217004db3d080cbaee652ca7"
          ],
          "data": "0x00000000000000000000000000000000000000000000000000000000678fee380000000000000000000000000000000000000000000000000004b89d6155eaa4000000000000000000000000000000000000000000000000000039d1fd1eba9e",
          "blockHash": "0xc228a7f29198c3abd503233c056cabbbcdf4c684cdf749897c75a04b355e6333",
          "blockNumber": "0x731421",
          "transactionHash": "0xaecc33d3d007d2422972cddc4f89fc93394a47ecb23b792ffd8efc990081bb8b",
          "transactionIndex": "0x7f",
          "logIndex": "0x97",
          "removed": false
        }
      ],
      "logsBloom": "0x00000000000000000000000000000000000000000600000000000000000000000000000000000000000000000000000000000000000000004000000000000000000000000000004000000008000000000000000000000000000000000000000000000000020000000000000000000800020000000000000000000010000000000000000000000000000000000000000000000000000000000000010000000000000000000000000000000000000000004000000000000000000000000000000000000002000000800000000000000000000000000000080000000000000020000000000000000000000000000000000000000000000000000000000000000000",
      "type": "0x2",
      "transactionHash": "0xaecc33d3d007d2422972cddc4f89fc93394a47ecb23b792ffd8efc990081bb8b",
      "transactionIndex": "0x7f",
      "blockHash": "0xc228a7f29198c3abd503233c056cabbbcdf4c684cdf749897c75a04b355e6333",
      "blockNumber": "0x731421",
      "gasUsed": "0xfd33",
      "effectiveGasPrice": "0xbf505a6e",
      "from": "0xc77f7fed3b5cc8249adc428c5f44c9063b9734b4",
      "to": "0x8aafd3ede9adb0ff97c7aebce82a919afb1c8764",
      "contractAddress": null
    }
  ],
  "libraries": [],
  "pending": [],
  "returns": {},
  "timestamp": 1737485881,
  "chain": 11155111,
  "commit": "51a374b"
}