{
  "transactions": [
    {
      "hash": "0xc8fe2cea3850cb680bbffc99e3038e9a06e586dff7be631df214dfd0e8500fc2",
      "transactionType": "CALL",
      "contractName": null,
      "contractAddress": "0xbf4a322f1496e5c3d34a9bcdb4c60567b38c7de2",
      "function": "buy(address)",
      "arguments": [
        "0xC77f7fed3b5Cc8249aDc428c5F44C9063B9734b4"
      ],
      "transaction": {
        "from": "0xc77f7fed3b5cc8249adc428c5f44c9063b9734b4",
        "to": "0xbf4a322f1496e5c3d34a9bcdb4c60567b38c7de2",
        "gas": "0x1b309",
        "value": "0xde0b6b3a7640000",
        "input": "0xf088d547000000000000000000000000c77f7fed3b5cc8249adc428c5f44c9063b9734b4",
        "nonce": "0x9a2",
        "chainId": "0xaa36a7"
      },
      "additionalContracts": [],
      "isFixedGasLimit": false
    }
  ],
  "receipts": [
    {
      "status": "0x1",
      "cumulativeGasUsed": "0x9dcbb9",
      "logs": [
        {
          "address": "0xbf4a322f1496e5c3d34a9bcdb4c60567b38c7de2",
          "topics": [
            "0xddf252ad1be2c89b69c2b068fc378daa952ba7f163c4a11628f55a4df523b3ef",
            "0x0000000000000000000000000000000000000000000000000000000000000000",
            "0x000000000000000000000000c77f7fed3b5cc8249adc428c5f44c9063b9734b4"
          ],
          "data": "0x0000000000000000000000000000000000000000000000356cf4ab4ec991fc7b",
          "blockHash": "0x15de8da8ab0a0b306cd03dc6d05e01eb53e7c9cfe93e826342043e6a502e7c49",
          "blockNumber": "0x725949",
          "transactionHash": "0xc8fe2cea3850cb680bbffc99e3038e9a06e586dff7be631df214dfd0e8500fc2",
          "transactionIndex": "0x79",
          "logIndex": "0x8c",
          "removed": false
        },
        {
          "address": "0xbf4a322f1496e5c3d34a9bcdb4c60567b38c7de2",
          "topics": [
            "0xddf252ad1be2c89b69c2b068fc378daa952ba7f163c4a11628f55a4df523b3ef",
            "0x0000000000000000000000000000000000000000000000000000000000000000",
            "0x000000000000000000000000c77f7fed3b5cc8249adc428c5f44c9063b9734b4"
          ],
          "data": "0x000000000000000000000000000000000000000000000000297c9f6604f1ca24",
          "blockHash": "0x15de8da8ab0a0b306cd03dc6d05e01eb53e7c9cfe93e826342043e6a502e7c49",
          "blockNumber": "0x725949",
          "transactionHash": "0xc8fe2cea3850cb680bbffc99e3038e9a06e586dff7be631df214dfd0e8500fc2",
          "transactionIndex": "0x79",
          "logIndex": "0x8d",
          "removed": false
        },
        {
          "address": "0xbf4a322f1496e5c3d34a9bcdb4c60567b38c7de2",
          "topics": [
            "0x4afcb4a87cdbd9974efdb92ee48bc8d7cd0ae4bf217004db3d080cbaee652ca7"
          ],
          "data": "0x0000000000000000000000000000000000000000000000000000000067872198000000000000000000000000000000000000000000000000000391a15b1d52820000000000000000000000000000000000000000000000000de0b6b3a7640000",
          "blockHash": "0x15de8da8ab0a0b306cd03dc6d05e01eb53e7c9cfe93e826342043e6a502e7c49",
          "blockNumber": "0x725949",
          "transactionHash": "0xc8fe2cea3850cb680bbffc99e3038e9a06e586dff7be631df214dfd0e8500fc2",
          "transactionIndex": "0x79",
          "logIndex": "0x8e",
          "removed": false
        }
      ],
      "logsBloom": "0x00000000000000000000000000000000000000000000000000000000000000000000000000000000000000000000000000000000000000004000000000000000000000000000000000000008000000000000001000000000000000000000000000000000020000000000000000000800020000000000000000000010000000000000000000000000000000000000000000000000000008000000010000000000000000000000000000000000000000004000000000000000000000000000000000000002000000800000000000001000000000000000080000000000000020000000000000000000000000000000000000000000000000000000000000000000",
      "type": "0x2",
      "transactionHash": "0xc8fe2cea3850cb680bbffc99e3038e9a06e586dff7be631df214dfd0e8500fc2",
      "transactionIndex": "0x79",
      "blockHash": "0x15de8da8ab0a0b306cd03dc6d05e01eb53e7c9cfe93e826342043e6a502e7c49",
      "blockNumber": "0x725949",
      "gasUsed": "0x13af6",
      "effectiveGasPrice": "0x24cd17a73",
      "from": "0xc77f7fed3b5cc8249adc428c5f44c9063b9734b4",
      "to": "0xbf4a322f1496e5c3d34a9bcdb4c60567b38c7de2",
      "contractAddress": null
    }
  ],
  "libraries": [],
  "pending": [],
  "returns": {},
  "timestamp": 1736909211,
  "chain": 11155111,
  "commit": "51a374b"
}