{
  "transactions": [
    {
      "hash": "0xdb16c908bf81a74aecbe9175308a141dbae867ce491ebeb4d10c613c168eb0e0",
      "transactionType": "CALL",
      "contractName": null,
      "contractAddress": "0x8aafd3ede9adb0ff97c7aebce82a919afb1c8764",
      "function": "sell(uint256)",
      "arguments": [
        "6970350109"
      ],
      "transaction": {
        "from": "0xc77f7fed3b5cc8249adc428c5f44c9063b9734b4",
        "to": "0x8aafd3ede9adb0ff97c7aebce82a919afb1c8764",
        "gas": "0x1722a",
        "value": "0x0",
        "input": "0xe4849b32000000000000000000000000000000000000000000000000000000019f771a1d",
        "nonce": "0x14e0",
        "chainId": "0xaa36a7"
      },
      "additionalContracts": [],
      "isFixedGasLimit": false
    }
  ],
  "receipts": [
    {
      "status": "0x1",
      "cumulativeGasUsed": "0xbf4ed4",
      "logs": [
        {
          "address": "0x8aafd3ede9adb0ff97c7aebce82a919afb1c8764",
          "topics": [
            "0xddf252ad1be2c89b69c2b068fc378daa952ba7f163c4a11628f55a4df523b3ef",
            "0x000000000000000000000000c77f7fed3b5cc8249adc428c5f44c9063b9734b4",
            "0x0000000000000000000000000000000000000000000000000000000000000000"
          ],
          "data": "0x000000000000000000000000000000000000000000000000000000019c243aad",
          "blockHash": "0x01a3faa4f1049105f9375e3190f948048bd7de821d24eb8b9c2e1c241796ed2a",
          "blockNumber": "0x731c3e",
          "transactionHash": "0xdb16c908bf81a74aecbe9175308a141dbae867ce491ebeb4d10c613c168eb0e0",
          "transactionIndex": "0x57",
          "logIndex": "0x84",
          "removed": false
        },
        {
          "address": "0x8aafd3ede9adb0ff97c7aebce82a919afb1c8764",
          "topics": [
            "0xddf252ad1be2c89b69c2b068fc378daa952ba7f163c4a11628f55a4df523b3ef",
            "0x000000000000000000000000c77f7fed3b5cc8249adc428c5f44c9063b9734b4",
            "0x000000000000000000000000c77f7fed3b5cc8249adc428c5f44c9063b9734b4"
          ],
          "data": "0x000000000000000000000000000000000000000000000000000000000352df70",
          "blockHash": "0x01a3faa4f1049105f9375e3190f948048bd7de821d24eb8b9c2e1c241796ed2a",
          "blockNumber": "0x731c3e",
          "transactionHash": "0xdb16c908bf81a74aecbe9175308a141dbae867ce491ebeb4d10c613c168eb0e0",
          "transactionIndex": "0x57",
          "logIndex": "0x85",
          "removed": false
        },
        {
          "address": "0x8aafd3ede9adb0ff97c7aebce82a919afb1c8764",
          "topics": [
            "0x4afcb4a87cdbd9974efdb92ee48bc8d7cd0ae4bf217004db3d080cbaee652ca7"
          ],
          "data": "0x0000000000000000000000000000000000000000000000000000000067904fc40000000000000000000000000000000000000000000000000010b02e19a0ddf20000000000000000000000000000000000000000000000000000000001f39a12",
          "blockHash": "0x01a3faa4f1049105f9375e3190f948048bd7de821d24eb8b9c2e1c241796ed2a",
          "blockNumber": "0x731c3e",
          "transactionHash": "0xdb16c908bf81a74aecbe9175308a141dbae867ce491ebeb4d10c613c168eb0e0",
          "transactionIndex": "0x57",
          "logIndex": "0x86",
          "removed": false
        }
      ],
      "logsBloom": "0x00000000000000000000000000000000000000000600000000000000000000000000000000000000000000000000000000000000000000004000000000000000000000000000004000000008000000000000000000000000000000000000000000000000020000000000000000000800020000000000000000000010000000000000000000000000000000000000000000000000000000000000010000000000000000000000000000000000000000004000000000000000000000000000000000000002000000800000000000000000000000000000080000000000000020000000000000000000000000000000000000000000000000000000000000000000",
      "type": "0x2",
      "transactionHash": "0xdb16c908bf81a74aecbe9175308a141dbae867ce491ebeb4d10c613c168eb0e0",
      "transactionIndex": "0x57",
      "blockHash": "0x01a3faa4f1049105f9375e3190f948048bd7de821d24eb8b9c2e1c241796ed2a",
      "blockNumber": "0x731c3e",
      "gasUsed": "0xfd1b",
      "effectiveGasPrice": "0x15a5289ae",
      "from": "0xc77f7fed3b5cc8249adc428c5f44c9063b9734b4",
      "to": "0x8aafd3ede9adb0ff97c7aebce82a919afb1c8764",
      "contractAddress": null
    }
  ],
  "libraries": [],
  "pending": [],
  "returns": {},
  "timestamp": 1737510855,
  "chain": 11155111,
  "commit": "1d2fb70"
}