{
  "transactions": [
    {
      "hash": "0x9100570cff29ee1cbb1b2fdb6c6556dca205733c0bb58e8c15a600ea0aceabb6",
      "transactionType": "CALL",
      "contractName": null,
      "contractAddress": "0x8aafd3ede9adb0ff97c7aebce82a919afb1c8764",
      "function": "sell(uint256)",
      "arguments": [
        "22374337629"
      ],
      "transaction": {
        "from": "0xc77f7fed3b5cc8249adc428c5f44c9063b9734b4",
        "to": "0x8aafd3ede9adb0ff97c7aebce82a919afb1c8764",
        "gas": "0x1722a",
        "value": "0x0",
        "input": "0xe4849b3200000000000000000000000000000000000000000000000000000005359d4c5d",
        "nonce": "0x11e0",
        "chainId": "0xaa36a7"
      },
      "additionalContracts": [],
      "isFixedGasLimit": false
    }
  ],
  "receipts": [
    {
      "status": "0x1",
      "cumulativeGasUsed": "0x151724c",
      "logs": [
        {
          "address": "0x8aafd3ede9adb0ff97c7aebce82a919afb1c8764",
          "topics": [
            "0xddf252ad1be2c89b69c2b068fc378daa952ba7f163c4a11628f55a4df523b3ef",
            "0x000000000000000000000000c77f7fed3b5cc8249adc428c5f44c9063b9734b4",
            "0x0000000000000000000000000000000000000000000000000000000000000000"
          ],
          "data": "0x000000000000000000000000000000000000000000000000000000052af20e50",
          "blockHash": "0x977a3b1e1ba83f67498c751b8d2fece17bed02eec6283e9f880cab3b829214bf",
          "blockNumber": "0x7318b6",
          "transactionHash": "0x9100570cff29ee1cbb1b2fdb6c6556dca205733c0bb58e8c15a600ea0aceabb6",
          "transactionIndex": "0x94",
          "logIndex": "0xa6",
          "removed": false
        },
        {
          "address": "0x8aafd3ede9adb0ff97c7aebce82a919afb1c8764",
          "topics": [
            "0xddf252ad1be2c89b69c2b068fc378daa952ba7f163c4a11628f55a4df523b3ef",
            "0x000000000000000000000000c77f7fed3b5cc8249adc428c5f44c9063b9734b4",
            "0x000000000000000000000000c77f7fed3b5cc8249adc428c5f44c9063b9734b4"
          ],
          "data": "0x000000000000000000000000000000000000000000000000000000000aab3e0d",
          "blockHash": "0x977a3b1e1ba83f67498c751b8d2fece17bed02eec6283e9f880cab3b829214bf",
          "blockNumber": "0x7318b6",
          "transactionHash": "0x9100570cff29ee1cbb1b2fdb6c6556dca205733c0bb58e8c15a600ea0aceabb6",
          "transactionIndex": "0x94",
          "logIndex": "0xa7",
          "removed": false
        },
        {
          "address": "0x8aafd3ede9adb0ff97c7aebce82a919afb1c8764",
          "topics": [
            "0x4afcb4a87cdbd9974efdb92ee48bc8d7cd0ae4bf217004db3d080cbaee652ca7"
          ],
          "data": "0x000000000000000000000000000000000000000000000000000000006790255800000000000000000000000000000000000000000000000000052c1eafcfd27e0000000000000000000000000000000000000000000000000000000001f10c02",
          "blockHash": "0x977a3b1e1ba83f67498c751b8d2fece17bed02eec6283e9f880cab3b829214bf",
          "blockNumber": "0x7318b6",
          "transactionHash": "0x9100570cff29ee1cbb1b2fdb6c6556dca205733c0bb58e8c15a600ea0aceabb6",
          "transactionIndex": "0x94",
          "logIndex": "0xa8",
          "removed": false
        }
      ],
      "logsBloom": "0x00000000000000000000000000000000000000000600000000000000000000000000000000000000000000000000000000000000000000004000000000000000000000000000004000000008000000000000000000000000000000000000000000000000020000000000000000000800020000000000000000000010000000000000000000000000000000000000000000000000000000000000010000000000000000000000000000000000000000004000000000000000000000000000000000000002000000800000000000000000000000000000080000000000000020000000000000000000000000000000000000000000000000000000000000000000",
      "type": "0x2",
      "transactionHash": "0x9100570cff29ee1cbb1b2fdb6c6556dca205733c0bb58e8c15a600ea0aceabb6",
      "transactionIndex": "0x94",
      "blockHash": "0x977a3b1e1ba83f67498c751b8d2fece17bed02eec6283e9f880cab3b829214bf",
      "blockNumber": "0x7318b6",
      "gasUsed": "0xfd1b",
      "effectiveGasPrice": "0x418c07ca",
      "from": "0xc77f7fed3b5cc8249adc428c5f44c9063b9734b4",
      "to": "0x8aafd3ede9adb0ff97c7aebce82a919afb1c8764",
      "contractAddress": null
    }
  ],
  "libraries": [],
  "pending": [],
  "returns": {},
  "timestamp": 1737499994,
  "chain": 11155111,
  "commit": "1d2fb70"
}