{
  "transactions": [
    {
      "hash": "0x99409b286a039b6d28073c268ed748f403988f427a583579c98c8d6cb4e88f53",
      "transactionType": "CALL",
      "contractName": null,
      "contractAddress": "0x8aafd3ede9adb0ff97c7aebce82a919afb1c8764",
      "function": "sell(uint256)",
      "arguments": [
        "1218317246601029451"
      ],
      "transaction": {
        "from": "0xc77f7fed3b5cc8249adc428c5f44c9063b9734b4",
        "to": "0x8aafd3ede9adb0ff97c7aebce82a919afb1c8764",
        "gas": "0x15dca",
        "value": "0x0",
        "input": "0xe4849b3200000000000000000000000000000000000000000000000010e85514b362e74b",
        "nonce": "0x1713",
        "chainId": "0xaa36a7"
      },
      "additionalContracts": [],
      "isFixedGasLimit": false
    }
  ],
  "receipts": [
    {
      "status": "0x1",
      "cumulativeGasUsed": "0x9be855",
      "logs": [
        {
          "address": "0x8aafd3ede9adb0ff97c7aebce82a919afb1c8764",
          "topics": [
            "0xddf252ad1be2c89b69c2b068fc378daa952ba7f163c4a11628f55a4df523b3ef",
            "0x000000000000000000000000c77f7fed3b5cc8249adc428c5f44c9063b9734b4",
            "0x0000000000000000000000000000000000000000000000000000000000000000"
          ],
          "data": "0x00000000000000000000000000000000000000000000000010c5b4a7fdba2d20",
          "blockHash": "0x309641218371ed14fd321fdf1c1b77eff6d2e4f13f30e888fb45b119ba7805fb",
          "blockNumber": "0x731ed8",
          "transactionHash": "0x99409b286a039b6d28073c268ed748f403988f427a583579c98c8d6cb4e88f53",
          "transactionIndex": "0x4c",
          "logIndex": "0x90",
          "removed": false
        },
        {
          "address": "0x8aafd3ede9adb0ff97c7aebce82a919afb1c8764",
          "topics": [
            "0xddf252ad1be2c89b69c2b068fc378daa952ba7f163c4a11628f55a4df523b3ef",
            "0x000000000000000000000000c77f7fed3b5cc8249adc428c5f44c9063b9734b4",
            "0x000000000000000000000000c77f7fed3b5cc8249adc428c5f44c9063b9734b4"
          ],
          "data": "0x0000000000000000000000000000000000000000000000000022a06cb5a8ba2b",
          "blockHash": "0x309641218371ed14fd321fdf1c1b77eff6d2e4f13f30e888fb45b119ba7805fb",
          "blockNumber": "0x731ed8",
          "transactionHash": "0x99409b286a039b6d28073c268ed748f403988f427a583579c98c8d6cb4e88f53",
          "transactionIndex": "0x4c",
          "logIndex": "0x91",
          "removed": false
        },
        {
          "address": "0x8aafd3ede9adb0ff97c7aebce82a919afb1c8764",
          "topics": [
            "0x4afcb4a87cdbd9974efdb92ee48bc8d7cd0ae4bf217004db3d080cbaee652ca7"
          ],
          "data": "0x0000000000000000000000000000000000000000000000000000000067906f0800000000000000000000000000000000000000000000000000174549cb8eac00000000000000000000000000000000000000000000000000001c59ac1684eab7",
          "blockHash": "0x309641218371ed14fd321fdf1c1b77eff6d2e4f13f30e888fb45b119ba7805fb",
          "blockNumber": "0x731ed8",
          "transactionHash": "0x99409b286a039b6d28073c268ed748f403988f427a583579c98c8d6cb4e88f53",
          "transactionIndex": "0x4c",
          "logIndex": "0x92",
          "removed": false
        }
      ],
      "logsBloom": "0x00000000000000000000000000000000000000000600000000000000000000000000000000000000000000000000000000000000000000004000000000000000000000000000004000000008000000000000000000000000000000000000000000000000020000000000000000000800020000000000000000000010000000000000000000000000000000000000000000000000000000000000010000000000000000000000000000000000000000004000000000000000000000000000000000000002000000800000000000000000000000000000080000000000000020000000000000000000000000000000000000000000000000000000000000000000",
      "type": "0x2",
      "transactionHash": "0x99409b286a039b6d28073c268ed748f403988f427a583579c98c8d6cb4e88f53",
      "transactionIndex": "0x4c",
      "blockHash": "0x309641218371ed14fd321fdf1c1b77eff6d2e4f13f30e888fb45b119ba7805fb",
      "blockNumber": "0x731ed8",
      "gasUsed": "0xfd3f",
      "effectiveGasPrice": "0x3b666250",
      "from": "0xc77f7fed3b5cc8249adc428c5f44c9063b9734b4",
      "to": "0x8aafd3ede9adb0ff97c7aebce82a919afb1c8764",
      "contractAddress": null
    }
  ],
  "libraries": [],
  "pending": [],
  "returns": {},
  "timestamp": 1737518856,
  "chain": 11155111,
  "commit": "1d2fb70"
}