{
  "transactions": [
    {
      "hash": "0x3dfa89161759479cbb2f01f2e51fa5cd375ee0152863b5a5f1f3bc59052c0364",
      "transactionType": "CALL",
      "contractName": null,
      "contractAddress": "0x5eb9cc76c3506942c1c0ead70e877dd5e4f00cb0",
      "function": "buy(address)",
      "arguments": [
        "0xC77f7fed3b5Cc8249aDc428c5F44C9063B9734b4"
      ],
      "transaction": {
        "from": "0xc77f7fed3b5cc8249adc428c5f44c9063b9734b4",
        "to": "0x5eb9cc76c3506942c1c0ead70e877dd5e4f00cb0",
        "gas": "0x156c8",
        "value": "0xde0b6b3a7640000",
        "input": "0xf088d547000000000000000000000000c77f7fed3b5cc8249adc428c5f44c9063b9734b4",
        "nonce": "0x1aa",
        "chainId": "0xaa36a7"
      },
      "additionalContracts": [],
      "isFixedGasLimit": false
    }
  ],
  "receipts": [
    {
      "status": "0x1",
      "cumulativeGasUsed": "0xd124cb",
      "logs": [
        {
          "address": "0x5eb9cc76c3506942c1c0ead70e877dd5e4f00cb0",
          "topics": [
            "0xddf252ad1be2c89b69c2b068fc378daa952ba7f163c4a11628f55a4df523b3ef",
            "0x0000000000000000000000000000000000000000000000000000000000000000",
            "0x000000000000000000000000c77f7fed3b5cc8249adc428c5f44c9063b9734b4"
          ],
          "data": "0x000000000000000000000000000000000000000000000035a3750c9fc9e379db",
          "blockHash": "0xeeeebbcc2760bc552b6fc6aa5d3f038f1a98bdad35e3cdd7d6d72a533b641350",
          "blockNumber": "0x723c91",
          "transactionHash": "0x3dfa89161759479cbb2f01f2e51fa5cd375ee0152863b5a5f1f3bc59052c0364",
          "transactionIndex": "0x70",
          "logIndex": "0xbb",
          "removed": false
        },
        {
          "address": "0x5eb9cc76c3506942c1c0ead70e877dd5e4f00cb0",
          "topics": [
            "0xddf252ad1be2c89b69c2b068fc378daa952ba7f163c4a11628f55a4df523b3ef",
            "0x0000000000000000000000000000000000000000000000000000000000000000",
            "0x000000000000000000000000c77f7fed3b5cc8249adc428c5f44c9063b9734b4"
          ],
          "data": "0x00000000000000000000000000000000000000000000000029a6f1e5c9965203",
          "blockHash": "0xeeeebbcc2760bc552b6fc6aa5d3f038f1a98bdad35e3cdd7d6d72a533b641350",
          "blockNumber": "0x723c91",
          "transactionHash": "0x3dfa89161759479cbb2f01f2e51fa5cd375ee0152863b5a5f1f3bc59052c0364",
          "transactionIndex": "0x70",
          "logIndex": "0xbc",
          "removed": false
        },
        {
          "address": "0x5eb9cc76c3506942c1c0ead70e877dd5e4f00cb0",
          "topics": [
            "0x4afcb4a87cdbd9974efdb92ee48bc8d7cd0ae4bf217004db3d080cbaee652ca7"
          ],
          "data": "0x000000000000000000000000000000000000000000000000000000006785c82000000000000000000000000000000000000000000000000000038dfebc0819490000000000000000000000000000000000000000000000000de0b6b3a7640000",
          "blockHash": "0xeeeebbcc2760bc552b6fc6aa5d3f038f1a98bdad35e3cdd7d6d72a533b641350",
          "blockNumber": "0x723c91",
          "transactionHash": "0x3dfa89161759479cbb2f01f2e51fa5cd375ee0152863b5a5f1f3bc59052c0364",
          "transactionIndex": "0x70",
          "logIndex": "0xbd",
          "removed": false
        }
      ],
      "logsBloom": "0x00000000000000000000000000000000000000000000000000000000000000000000000000000000000000000000000000000000000000004000000000000000000000000000000000000008000000000000000000000000000000000000000000000000020000000000000004000800020000000000000000000010000000000000000000000000000000000000000000000000000000000000010000000000000000000000000000000000000000004000000000000000000000000000020000000002000000800000008000000000000000000000080000000000000020000000000000000000000000000000000000000000000000000000000000000000",
      "type": "0x2",
      "transactionHash": "0x3dfa89161759479cbb2f01f2e51fa5cd375ee0152863b5a5f1f3bc59052c0364",
      "transactionIndex": "0x70",
      "blockHash": "0xeeeebbcc2760bc552b6fc6aa5d3f038f1a98bdad35e3cdd7d6d72a533b641350",
      "blockNumber": "0x723c91",
      "gasUsed": "0xf82c",
      "effectiveGasPrice": "0x1b570f7df",
      "from": "0xc77f7fed3b5cc8249adc428c5f44c9063b9734b4",
      "to": "0x5eb9cc76c3506942c1c0ead70e877dd5e4f00cb0",
      "contractAddress": null
    }
  ],
  "libraries": [],
  "pending": [],
  "returns": {},
  "timestamp": 1736820769,
  "chain": 11155111,
  "commit": "51a374b"
}