{
  "transactions": [
    {
      "hash": "0x4f4911b0b1b5f27102d67fb5139da7fcc8e383b2525dfec590391ee508abab8a",
      "transactionType": "CALL",
      "contractName": null,
      "contractAddress": "0x8aafd3ede9adb0ff97c7aebce82a919afb1c8764",
      "function": "sell(uint256)",
      "arguments": [
        "544084"
      ],
      "transaction": {
        "from": "0xc77f7fed3b5cc8249adc428c5f44c9063b9734b4",
        "to": "0x8aafd3ede9adb0ff97c7aebce82a919afb1c8764",
        "gas": "0x16208",
        "value": "0x0",
        "input": "0xe4849b320000000000000000000000000000000000000000000000000000000000084d54",
        "nonce": "0x13dd",
        "chainId": "0xaa36a7"
      },
      "additionalContracts": [],
      "isFixedGasLimit": false
    }
  ],
  "receipts": [
    {
      "status": "0x1",
      "cumulativeGasUsed": "0x119acf7",
      "logs": [
        {
          "address": "0x8aafd3ede9adb0ff97c7aebce82a919afb1c8764",
          "topics": [
            "0xddf252ad1be2c89b69c2b068fc378daa952ba7f163c4a11628f55a4df523b3ef",
            "0x000000000000000000000000c77f7fed3b5cc8249adc428c5f44c9063b9734b4",
            "0x0000000000000000000000000000000000000000000000000000000000000000"
          ],
          "data": "0x0000000000000000000000000000000000000000000000000000000000083c54",
          "blockHash": "0x79c81ff7c434ee8bace0efc2492b71b4daff6b901dc4ab34ce936336d1459963",
          "blockNumber": "0x731b0c",
          "transactionHash": "0x4f4911b0b1b5f27102d67fb5139da7fcc8e383b2525dfec590391ee508abab8a",
          "transactionIndex": "0x9d",
          "logIndex": "0x90",
          "removed": false
        },
        {
          "address": "0x8aafd3ede9adb0ff97c7aebce82a919afb1c8764",
          "topics": [
            "0xddf252ad1be2c89b69c2b068fc378daa952ba7f163c4a11628f55a4df523b3ef",
            "0x000000000000000000000000c77f7fed3b5cc8249adc428c5f44c9063b9734b4",
            "0x000000000000000000000000c77f7fed3b5cc8249adc428c5f44c9063b9734b4"
          ],
          "data": "0x0000000000000000000000000000000000000000000000000000000000001100",
          "blockHash": "0x79c81ff7c434ee8bace0efc2492b71b4daff6b901dc4ab34ce936336d1459963",
          "blockNumber": "0x731b0c",
          "transactionHash": "0x4f4911b0b1b5f27102d67fb5139da7fcc8e383b2525dfec590391ee508abab8a",
          "transactionIndex": "0x9d",
          "logIndex": "0x91",
          "removed": false
        },
        {
          "address": "0x8aafd3ede9adb0ff97c7aebce82a919afb1c8764",
          "topics": [
            "0x4afcb4a87cdbd9974efdb92ee48bc8d7cd0ae4bf217004db3d080cbaee652ca7"
          ],
          "data": "0x0000000000000000000000000000000000000000000000000000000067904160000000000000000000000000000000000000000000000000000db34b6fe92eb10000000000000000000000000000000000000000000000000000000000000832",
          "blockHash": "0x79c81ff7c434ee8bace0efc2492b71b4daff6b901dc4ab34ce936336d1459963",
          "blockNumber": "0x731b0c",
          "transactionHash": "0x4f4911b0b1b5f27102d67fb5139da7fcc8e383b2525dfec590391ee508abab8a",
          "transactionIndex": "0x9d",
          "logIndex": "0x92",
          "removed": false
        }
      ],
      "logsBloom": "0x00000000000000000000000000000000000000000600000000000000000000000000000000000000000000000000000000000000000000004000000000000000000000000000004000000008000000000000000000000000000000000000000000000000020000000000000000000800020000000000000000000010000000000000000000000000000000000000000000000000000000000000010000000000000000000000000000000000000000004000000000000000000000000000000000000002000000800000000000000000000000000000080000000000000020000000000000000000000000000000000000000000000000000000000000000000",
      "type": "0x2",
      "transactionHash": "0x4f4911b0b1b5f27102d67fb5139da7fcc8e383b2525dfec590391ee508abab8a",
      "transactionIndex": "0x9d",
      "blockHash": "0x79c81ff7c434ee8bace0efc2492b71b4daff6b901dc4ab34ce936336d1459963",
      "blockNumber": "0x731b0c",
      "gasUsed": "0xf213",
      "effectiveGasPrice": "0x8b5a0c2d",
      "from": "0xc77f7fed3b5cc8249adc428c5f44c9063b9734b4",
      "to": "0x8aafd3ede9adb0ff97c7aebce82a919afb1c8764",
      "contractAddress": null
    }
  ],
  "libraries": [],
  "pending": [],
  "returns": {},
  "timestamp": 1737507169,
  "chain": 11155111,
  "commit": "1d2fb70"
}