{
  "transactions": [
    {
      "hash": "0x20ad8491c62497f629059b2bb4d75e951a59c2931f1581827c19001ba0c91fd5",
      "transactionType": "CALL",
      "contractName": null,
      "contractAddress": "0x270e88f8683660553e8ba4eb2ad7c91a1710d769",
      "function": "buy(address)",
      "arguments": [
        "0xC77f7fed3b5Cc8249aDc428c5F44C9063B9734b4"
      ],
      "transaction": {
        "from": "0xc77f7fed3b5cc8249adc428c5f44c9063b9734b4",
        "to": "0x270e88f8683660553e8ba4eb2ad7c91a1710d769",
        "gas": "0x1b30c",
        "value": "0xde0b6b3a7640000",
        "input": "0xf088d547000000000000000000000000c77f7fed3b5cc8249adc428c5f44c9063b9734b4",
        "nonce": "0x62c",
        "chainId": "0xaa36a7"
      },
      "additionalContracts": [],
      "isFixedGasLimit": false
    }
  ],
  "receipts": [
    {
      "status": "0x1",
      "cumulativeGasUsed": "0x176cdf2",
      "logs": [
        {
          "address": "0x270e88f8683660553e8ba4eb2ad7c91a1710d769",
          "topics": [
            "0xddf252ad1be2c89b69c2b068fc378daa952ba7f163c4a11628f55a4df523b3ef",
            "0x0000000000000000000000000000000000000000000000000000000000000000",
            "0x000000000000000000000000c77f7fed3b5cc8249adc428c5f44c9063b9734b4"
          ],
          "data": "0x000000000000000000000000000000000000000000000032dab3bece4c5e3e8b",
          "blockHash": "0x45ed79ff01df877f2b0070ab8dd01b3a2bc6fe4f55c1099f5f333842d610eb83",
          "blockNumber": "0x7252fd",
          "transactionHash": "0x20ad8491c62497f629059b2bb4d75e951a59c2931f1581827c19001ba0c91fd5",
          "transactionIndex": "0x65",
          "logIndex": "0xde",
          "removed": false
        },
        {
          "address": "0x270e88f8683660553e8ba4eb2ad7c91a1710d769",
          "topics": [
            "0xddf252ad1be2c89b69c2b068fc378daa952ba7f163c4a11628f55a4df523b3ef",
            "0x0000000000000000000000000000000000000000000000000000000000000000",
            "0x000000000000000000000000c77f7fed3b5cc8249adc428c5f44c9063b9734b4"
          ],
          "data": "0x000000000000000000000000000000000000000000000000277d775d7dd20d10",
          "blockHash": "0x45ed79ff01df877f2b0070ab8dd01b3a2bc6fe4f55c1099f5f333842d610eb83",
          "blockNumber": "0x7252fd",
          "transactionHash": "0x20ad8491c62497f629059b2bb4d75e951a59c2931f1581827c19001ba0c91fd5",
          "transactionIndex": "0x65",
          "logIndex": "0xdf",
          "removed": false
        },
        {
          "address": "0x270e88f8683660553e8ba4eb2ad7c91a1710d769",
          "topics": [
            "0x4afcb4a87cdbd9974efdb92ee48bc8d7cd0ae4bf217004db3d080cbaee652ca7"
          ],
          "data": "0x000000000000000000000000000000000000000000000000000000006786d5e40000000000000000000000000000000000000000000000000003bfeb978e42380000000000000000000000000000000000000000000000000de0b6b3a7640000",
          "blockHash": "0x45ed79ff01df877f2b0070ab8dd01b3a2bc6fe4f55c1099f5f333842d610eb83",
          "blockNumber": "0x7252fd",
          "transactionHash": "0x20ad8491c62497f629059b2bb4d75e951a59c2931f1581827c19001ba0c91fd5",
          "transactionIndex": "0x65",
          "logIndex": "0xe0",
          "removed": false
        }
      ],
      "logsBloom": "0x00000000000000000000000000000000000000000000000000000000000000000000000000000000000000000000000020000000000000004000000000000000000000000000000000000008000000000000000000000000000000000000000000000000020000000000000000000800020000000000000000000010000000000000000000010000000000000000000000000000000000000000010000000000000000000000000000000000000000004000000000000000000000000000000000000002000000800000000000000000000000000000080000008000000020000000000000000000000000000000000000000000000000000000000000000000",
      "type": "0x2",
      "transactionHash": "0x20ad8491c62497f629059b2bb4d75e951a59c2931f1581827c19001ba0c91fd5",
      "transactionIndex": "0x65",
      "blockHash": "0x45ed79ff01df877f2b0070ab8dd01b3a2bc6fe4f55c1099f5f333842d610eb83",
      "blockNumber": "0x7252fd",
      "gasUsed": "0x13af8",
      "effectiveGasPrice": "0x2aa26a785",
      "from": "0xc77f7fed3b5cc8249adc428c5f44c9063b9734b4",
      "to": "0x270e88f8683660553e8ba4eb2ad7c91a1710d769",
      "contractAddress": null
    }
  ],
  "libraries": [],
  "pending": [],
  "returns": {},
  "timestamp": 1736889829,
  "chain": 11155111,
  "commit": "51a374b"
}