{
  "transactions": [
    {
      "hash": "0xbefcd9595cd8d982442de849d5d94d989b15deb078f86ffa90c99c7331fa2c6c",
      "transactionType": "CALL",
      "contractName": null,
      "contractAddress": "0xbf4a322f1496e5c3d34a9bcdb4c60567b38c7de2",
      "function": "sell(uint256)",
      "arguments": [
        "986418650120992699925"
      ],
      "transaction": {
        "from": "0xc77f7fed3b5cc8249adc428c5f44c9063b9734b4",
        "to": "0xbf4a322f1496e5c3d34a9bcdb4c60567b38c7de2",
        "gas": "0x16fea",
        "value": "0x0",
        "input": "0xe4849b32000000000000000000000000000000000000000000000035794f0803da19b615",
        "nonce": "0xa3d",
        "chainId": "0xaa36a7"
      },
      "additionalContracts": [],
      "isFixedGasLimit": false
    }
  ],
  "receipts": [
    {
      "status": "0x1",
      "cumulativeGasUsed": "0xf5ee38",
      "logs": [
        {
          "address": "0xbf4a322f1496e5c3d34a9bcdb4c60567b38c7de2",
          "topics": [
            "0xddf252ad1be2c89b69c2b068fc378daa952ba7f163c4a11628f55a4df523b3ef",
            "0x000000000000000000000000c77f7fed3b5cc8249adc428c5f44c9063b9734b4",
            "0x0000000000000000000000000000000000000000000000000000000000000000"
          ],
          "data": "0x000000000000000000000000000000000000000000000035794f0803da19b615",
          "blockHash": "0xfc12e7496428a117832761dfccc61c6d39b3b71244e90839ce5097d9eab3589c",
          "blockNumber": "0x725a14",
          "transactionHash": "0xbefcd9595cd8d982442de849d5d94d989b15deb078f86ffa90c99c7331fa2c6c",
          "transactionIndex": "0x68",
          "logIndex": "0xa0",
          "removed": false
        },
        {
          "address": "0xbf4a322f1496e5c3d34a9bcdb4c60567b38c7de2",
          "topics": [
            "0x4afcb4a87cdbd9974efdb92ee48bc8d7cd0ae4bf217004db3d080cbaee652ca7"
          ],
          "data": "0x0000000000000000000000000000000000000000000000000000000067872b4000000000000000000000000000000000000000000000000000039397412fa2a90000000000000000000000000000000000000000000000000dc7e3f0fd602886",
          "blockHash": "0xfc12e7496428a117832761dfccc61c6d39b3b71244e90839ce5097d9eab3589c",
          "blockNumber": "0x725a14",
          "transactionHash": "0xbefcd9595cd8d982442de849d5d94d989b15deb078f86ffa90c99c7331fa2c6c",
          "transactionIndex": "0x68",
          "logIndex": "0xa1",
          "removed": false
        }
      ],
      "logsBloom": "0x00000000000000000000000000000000000000000000000000000000000000000000000000000000000000000000000000000000000000004000000000000000000000000000000000000008000000000000001000000000000000000000000000000000020000000000000000000800020000000000000000000010000000000000000000000000000000000000000000000000000008000000010000000000000000000000000000000000000000004000000000000000000000000000000000000002000000800000000000001000000000000000080000000000000020000000000000000000000000000000000000000000000000000000000000000000",
      "type": "0x2",
      "transactionHash": "0xbefcd9595cd8d982442de849d5d94d989b15deb078f86ffa90c99c7331fa2c6c",
      "transactionIndex": "0x68",
      "blockHash": "0xfc12e7496428a117832761dfccc61c6d39b3b71244e90839ce5097d9eab3589c",
      "blockNumber": "0x725a14",
      "gasUsed": "0xfb91",
      "effectiveGasPrice": "0x6151d3e30",
      "from": "0xc77f7fed3b5cc8249adc428c5f44c9063b9734b4",
      "to": "0xbf4a322f1496e5c3d34a9bcdb4c60567b38c7de2",
      "contractAddress": null
    }
  ],
  "libraries": [],
  "pending": [],
  "returns": {},
  "timestamp": 1736911681,
  "chain": 11155111,
  "commit": "51a374b"
}