{
  "transactions": [
    {
      "hash": "0x723ca8054e51963fdc3442bc26705f505f34801ee4e14d4f043cdcae73af0ca3",
      "transactionType": "CALL",
      "contractName": null,
      "contractAddress": "0xce96eeb408b3de046b90c1479507e72f22c77128",
      "function": "buy(address)",
      "arguments": [
        "0xC77f7fed3b5Cc8249aDc428c5F44C9063B9734b4"
      ],
      "transaction": {
        "from": "0xc77f7fed3b5cc8249adc428c5f44c9063b9734b4",
        "to": "0xce96eeb408b3de046b90c1479507e72f22c77128",
        "gas": "0x1bf57",
        "value": "0xde0b6b3a7640000",
        "input": "0xf088d547000000000000000000000000c77f7fed3b5cc8249adc428c5f44c9063b9734b4",
        "nonce": "0x1811",
        "chainId": "0xaa36a7"
      },
      "additionalContracts": [],
      "isFixedGasLimit": false
    }
  ],
  "receipts": [
    {
      "status": "0x1",
      "cumulativeGasUsed": "0xf139e2",
      "logs": [
        {
          "address": "0xce96eeb408b3de046b90c1479507e72f22c77128",
          "topics": [
            "0xddf252ad1be2c89b69c2b068fc378daa952ba7f163c4a11628f55a4df523b3ef",
            "0x0000000000000000000000000000000000000000000000000000000000000000",
            "0x000000000000000000000000c77f7fed3b5cc8249adc428c5f44c9063b9734b4"
          ],
          "data": "0x000000000000000000000000000000000000000000000035ab028ac154c71b30",
          "blockHash": "0xc62a778eda8bfd632e3c50e85321f25855c4c659ce3a633d4d5709c39e8d15d6",
          "blockNumber": "0x734c90",
          "transactionHash": "0x723ca8054e51963fdc3442bc26705f505f34801ee4e14d4f043cdcae73af0ca3",
          "transactionIndex": "0xae",
          "logIndex": "0xfe",
          "removed": false
        },
        {
          "address": "0xce96eeb408b3de046b90c1479507e72f22c77128",
          "topics": [
            "0xddf252ad1be2c89b69c2b068fc378daa952ba7f163c4a11628f55a4df523b3ef",
            "0x0000000000000000000000000000000000000000000000000000000000000000",
            "0x000000000000000000000000c77f7fed3b5cc8249adc428c5f44c9063b9734b4"
          ],
          "data": "0x00000000000000000000000000000000000000000000000029accf52156cec36",
          "blockHash": "0xc62a778eda8bfd632e3c50e85321f25855c4c659ce3a633d4d5709c39e8d15d6",
          "blockNumber": "0x734c90",
          "transactionHash": "0x723ca8054e51963fdc3442bc26705f505f34801ee4e14d4f043cdcae73af0ca3",
          "transactionIndex": "0xae",
          "logIndex": "0xff",
          "removed": false
        },
        {
          "address": "0xce96eeb408b3de046b90c1479507e72f22c77128",
          "topics": [
            "0x4afcb4a87cdbd9974efdb92ee48bc8d7cd0ae4bf217004db3d080cbaee652ca7"
          ],
          "data": "0x000000000000000000000000000000000000000000000000000000006792a3e0000000000000000000000000000000000000000000000000000393d6e1a1f5be0000000000000000000000000000000000000000000000000de0b6b3a7640000",
          "blockHash": "0xc62a778eda8bfd632e3c50e85321f25855c4c659ce3a633d4d5709c39e8d15d6",
          "blockNumber": "0x734c90",
          "transactionHash": "0x723ca8054e51963fdc3442bc26705f505f34801ee4e14d4f043cdcae73af0ca3",
          "transactionIndex": "0xae",
          "logIndex": "0x100",
          "removed": false
        }
      ],
      "logsBloom": "0x00000000000000000000000000000000000000000000000000000000000000000000800000000000000000000000000000000000020000004000000000000000000000000000000000000008000000000000000000000000000000000000000000000000020000000000000000000800020000000000000000000010000000000000000000000000000000000000000000000000000000000000010000000000000000000000000000000000000000004000000040000000000000000000000000000002000000800000000000000000000000000000080000000000000020000000000000000000000000000000000000000000000000000000000000000000",
      "type": "0x2",
      "transactionHash": "0x723ca8054e51963fdc3442bc26705f505f34801ee4e14d4f043cdcae73af0ca3",
      "transactionIndex": "0xae",
      "blockHash": "0xc62a778eda8bfd632e3c50e85321f25855c4c659ce3a633d4d5709c39e8d15d6",
      "blockNumber": "0x734c90",
      "gasUsed": "0x143df",
      "effectiveGasPrice": "0xd45ce5d4",
      "from": "0xc77f7fed3b5cc8249adc428c5f44c9063b9734b4",
      "to": "0xce96eeb408b3de046b90c1479507e72f22c77128",
      "contractAddress": null
    }
  ],
  "libraries": [],
  "pending": [],
  "returns": {},
  "timestamp": 1737663458,
  "chain": 11155111,
  "commit": "f5162e9"
}