{
  "transactions": [
    {
      "hash": "0xba9de9944265a9a8df3e1c8484cb3d715a5041736e265ddcce81397a1e9f9d4b",
      "transactionType": "CALL",
      "contractName": null,
      "contractAddress": "0xbf4a322f1496e5c3d34a9bcdb4c60567b38c7de2",
      "function": "buy(address)",
      "arguments": [
        "0xC77f7fed3b5Cc8249aDc428c5F44C9063B9734b4"
      ],
      "transaction": {
        "from": "0xc77f7fed3b5cc8249adc428c5f44c9063b9734b4",
        "to": "0xbf4a322f1496e5c3d34a9bcdb4c60567b38c7de2",
        "gas": "0x1b309",
        "value": "0xde0b6b3a7640000",
        "input": "0xf088d547000000000000000000000000c77f7fed3b5cc8249adc428c5f44c9063b9734b4",
        "nonce": "0xdd4",
        "chainId": "0xaa36a7"
      },
      "additionalContracts": [],
      "isFixedGasLimit": false
    }
  ],
  "receipts": [
    {
      "status": "0x1",
      "cumulativeGasUsed": "0x12539b7",
      "logs": [
        {
          "address": "0xbf4a322f1496e5c3d34a9bcdb4c60567b38c7de2",
          "topics": [
            "0xddf252ad1be2c89b69c2b068fc378daa952ba7f163c4a11628f55a4df523b3ef",
            "0x0000000000000000000000000000000000000000000000000000000000000000",
            "0x000000000000000000000000c77f7fed3b5cc8249adc428c5f44c9063b9734b4"
          ],
          "data": "0x000000000000000000000000000000000000000000000034a4ed5f6c17712c64",
          "blockHash": "0x8f426eadfc27ff9eab29a6ab934ac0ec3b57c64c8b73608aa7dd5513cc57df5a",
          "blockNumber": "0x7266b2",
          "transactionHash": "0xba9de9944265a9a8df3e1c8484cb3d715a5041736e265ddcce81397a1e9f9d4b",
          "transactionIndex": "0x4e",
          "logIndex": "0x77",
          "removed": false
        },
        {
          "address": "0xbf4a322f1496e5c3d34a9bcdb4c60567b38c7de2",
          "topics": [
            "0xddf252ad1be2c89b69c2b068fc378daa952ba7f163c4a11628f55a4df523b3ef",
            "0x0000000000000000000000000000000000000000000000000000000000000000",
            "0x000000000000000000000000c77f7fed3b5cc8249adc428c5f44c9063b9734b4"
          ],
          "data": "0x00000000000000000000000000000000000000000000000028e14b2fa85a9399",
          "blockHash": "0x8f426eadfc27ff9eab29a6ab934ac0ec3b57c64c8b73608aa7dd5513cc57df5a",
          "blockNumber": "0x7266b2",
          "transactionHash": "0xba9de9944265a9a8df3e1c8484cb3d715a5041736e265ddcce81397a1e9f9d4b",
          "transactionIndex": "0x4e",
          "logIndex": "0x78",
          "removed": false
        },
        {
          "address": "0xbf4a322f1496e5c3d34a9bcdb4c60567b38c7de2",
          "topics": [
            "0x4afcb4a87cdbd9974efdb92ee48bc8d7cd0ae4bf217004db3d080cbaee652ca7"
          ],
          "data": "0x000000000000000000000000000000000000000000000000000000006787c35c00000000000000000000000000000000000000000000000000039f30c696c54f0000000000000000000000000000000000000000000000000de0b6b3a7640000",
          "blockHash": "0x8f426eadfc27ff9eab29a6ab934ac0ec3b57c64c8b73608aa7dd5513cc57df5a",
          "blockNumber": "0x7266b2",
          "transactionHash": "0xba9de9944265a9a8df3e1c8484cb3d715a5041736e265ddcce81397a1e9f9d4b",
          "transactionIndex": "0x4e",
          "logIndex": "0x79",
          "removed": false
        }
      ],
      "logsBloom": "0x00000000000000000000000000000000000000000000000000000000000000000000000000000000000000000000000000000000000000004000000000000000000000000000000000000008000000000000001000000000000000000000000000000000020000000000000000000800020000000000000000000010000000000000000000000000000000000000000000000000000008000000010000000000000000000000000000000000000000004000000000000000000000000000000000000002000000800000000000001000000000000000080000000000000020000000000000000000000000000000000000000000000000000000000000000000",
      "type": "0x2",
      "transactionHash": "0xba9de9944265a9a8df3e1c8484cb3d715a5041736e265ddcce81397a1e9f9d4b",
      "transactionIndex": "0x4e",
      "blockHash": "0x8f426eadfc27ff9eab29a6ab934ac0ec3b57c64c8b73608aa7dd5513cc57df5a",
      "blockNumber": "0x7266b2",
      "gasUsed": "0x13af6",
      "effectiveGasPrice": "0x1b4a1e77d",
      "from": "0xc77f7fed3b5cc8249adc428c5f44c9063b9734b4",
      "to": "0xbf4a322f1496e5c3d34a9bcdb4c60567b38c7de2",
      "contractAddress": null
    }
  ],
  "libraries": [],
  "pending": [],
  "returns": {},
  "timestamp": 1736950622,
  "chain": 11155111,
  "commit": "51a374b"
}