{
  "transactions": [
    {
      "hash": "0xc48b8fb251e3969f4fd9eb43322f928bee5b03a64742dbbbd0e3d7443b952d07",
      "transactionType": "CALL",
      "contractName": null,
      "contractAddress": "0x270e88f8683660553e8ba4eb2ad7c91a1710d769",
      "function": "buy(address)",
      "arguments": [
        "0xC77f7fed3b5Cc8249aDc428c5F44C9063B9734b4"
      ],
      "transaction": {
        "from": "0xc77f7fed3b5cc8249adc428c5f44c9063b9734b4",
        "to": "0x270e88f8683660553e8ba4eb2ad7c91a1710d769",
        "gas": "0x1b30c",
        "value": "0xde0b6b3a7640000",
        "input": "0xf088d547000000000000000000000000c77f7fed3b5cc8249adc428c5f44c9063b9734b4",
        "nonce": "0x52a",
        "chainId": "0xaa36a7"
      },
      "additionalContracts": [],
      "isFixedGasLimit": false
    }
  ],
  "receipts": [
    {
      "status": "0x1",
      "cumulativeGasUsed": "0xd07553",
      "logs": [
        {
          "address": "0x270e88f8683660553e8ba4eb2ad7c91a1710d769",
          "topics": [
            "0xddf252ad1be2c89b69c2b068fc378daa952ba7f163c4a11628f55a4df523b3ef",
            "0x0000000000000000000000000000000000000000000000000000000000000000",
            "0x000000000000000000000000c77f7fed3b5cc8249adc428c5f44c9063b9734b4"
          ],
          "data": "0x000000000000000000000000000000000000000000000034ef900171fe7ed900",
          "blockHash": "0xdebeef48ef4026c054424f4498a5d77b05190cedaeb31c5c75fa603a8953e105",
          "blockNumber": "0x7251c4",
          "transactionHash": "0xc48b8fb251e3969f4fd9eb43322f928bee5b03a64742dbbbd0e3d7443b952d07",
          "transactionIndex": "0x58",
          "logIndex": "0xa1",
          "removed": false
        },
        {
          "address": "0x270e88f8683660553e8ba4eb2ad7c91a1710d769",
          "topics": [
            "0xddf252ad1be2c89b69c2b068fc378daa952ba7f163c4a11628f55a4df523b3ef",
            "0x0000000000000000000000000000000000000000000000000000000000000000",
            "0x000000000000000000000000c77f7fed3b5cc8249adc428c5f44c9063b9734b4"
          ],
          "data": "0x000000000000000000000000000000000000000000000000291b40236a00070e",
          "blockHash": "0xdebeef48ef4026c054424f4498a5d77b05190cedaeb31c5c75fa603a8953e105",
          "blockNumber": "0x7251c4",
          "transactionHash": "0xc48b8fb251e3969f4fd9eb43322f928bee5b03a64742dbbbd0e3d7443b952d07",
          "transactionIndex": "0x58",
          "logIndex": "0xa2",
          "removed": false
        },
        {
          "address": "0x270e88f8683660553e8ba4eb2ad7c91a1710d769",
          "topics": [
            "0x4afcb4a87cdbd9974efdb92ee48bc8d7cd0ae4bf217004db3d080cbaee652ca7"
          ],
          "data": "0x000000000000000000000000000000000000000000000000000000006786c71400000000000000000000000000000000000000000000000000039a2de91f4a040000000000000000000000000000000000000000000000000de0b6b3a7640000",
          "blockHash": "0xdebeef48ef4026c054424f4498a5d77b05190cedaeb31c5c75fa603a8953e105",
          "blockNumber": "0x7251c4",
          "transactionHash": "0xc48b8fb251e3969f4fd9eb43322f928bee5b03a64742dbbbd0e3d7443b952d07",
          "transactionIndex": "0x58",
          "logIndex": "0xa3",
          "removed": false
        }
      ],
      "logsBloom": "0x00000000000000000000000000000000000000000000000000000000000000000000000000000000000000000000000020000000000000004000000000000000000000000000000000000008000000000000000000000000000000000000000000000000020000000000000000000800020000000000000000000010000000000000000000010000000000000000000000000000000000000000010000000000000000000000000000000000000000004000000000000000000000000000000000000002000000800000000000000000000000000000080000008000000020000000000000000000000000000000000000000000000000000000000000000000",
      "type": "0x2",
      "transactionHash": "0xc48b8fb251e3969f4fd9eb43322f928bee5b03a64742dbbbd0e3d7443b952d07",
      "transactionIndex": "0x58",
      "blockHash": "0xdebeef48ef4026c054424f4498a5d77b05190cedaeb31c5c75fa603a8953e105",
      "blockNumber": "0x7251c4",
      "gasUsed": "0x13af8",
      "effectiveGasPrice": "0x46f22c9ef",
      "from": "0xc77f7fed3b5cc8249adc428c5f44c9063b9734b4",
      "to": "0x270e88f8683660553e8ba4eb2ad7c91a1710d769",
      "contractAddress": null
    }
  ],
  "libraries": [],
  "pending": [],
  "returns": {},
  "timestamp": 1736886037,
  "chain": 11155111,
  "commit": "51a374b"
}