{
  "transactions": [
    {
      "hash": "0x3d7cbd9b39fb8c15886ac4b43c9f8f51086efe5fce66b2ab091f9b82bfc0c900",
      "transactionType": "CALL",
      "contractName": null,
      "contractAddress": "0xbf4a322f1496e5c3d34a9bcdb4c60567b38c7de2",
      "function": "buy(address)",
      "arguments": [
        "0xC77f7fed3b5Cc8249aDc428c5F44C9063B9734b4"
      ],
      "transaction": {
        "from": "0xc77f7fed3b5cc8249adc428c5f44c9063b9734b4",
        "to": "0xbf4a322f1496e5c3d34a9bcdb4c60567b38c7de2",
        "gas": "0x1b309",
        "value": "0xde0b6b3a7640000",
        "input": "0xf088d547000000000000000000000000c77f7fed3b5cc8249adc428c5f44c9063b9734b4",
        "nonce": "0xb76",
        "chainId": "0xaa36a7"
      },
      "additionalContracts": [],
      "isFixedGasLimit": false
    }
  ],
  "receipts": [
    {
      "status": "0x1",
      "cumulativeGasUsed": "0x219a866",
      "logs": [
        {
          "address": "0xbf4a322f1496e5c3d34a9bcdb4c60567b38c7de2",
          "topics": [
            "0xddf252ad1be2c89b69c2b068fc378daa952ba7f163c4a11628f55a4df523b3ef",
            "0x0000000000000000000000000000000000000000000000000000000000000000",
            "0x000000000000000000000000c77f7fed3b5cc8249adc428c5f44c9063b9734b4"
          ],
          "data": "0x00000000000000000000000000000000000000000000003515114044b665a770",
          "blockHash": "0x264ebfb3d46af35ff467618b3ab68982afbb23df92a7897bbe063989a5835deb",
          "blockNumber": "0x725b83",
          "transactionHash": "0x3d7cbd9b39fb8c15886ac4b43c9f8f51086efe5fce66b2ab091f9b82bfc0c900",
          "transactionIndex": "0x83",
          "logIndex": "0x126",
          "removed": false
        },
        {
          "address": "0xbf4a322f1496e5c3d34a9bcdb4c60567b38c7de2",
          "topics": [
            "0xddf252ad1be2c89b69c2b068fc378daa952ba7f163c4a11628f55a4df523b3ef",
            "0x0000000000000000000000000000000000000000000000000000000000000000",
            "0x000000000000000000000000c77f7fed3b5cc8249adc428c5f44c9063b9734b4"
          ],
          "data": "0x00000000000000000000000000000000000000000000000029385fd538312306",
          "blockHash": "0x264ebfb3d46af35ff467618b3ab68982afbb23df92a7897bbe063989a5835deb",
          "blockNumber": "0x725b83",
          "transactionHash": "0x3d7cbd9b39fb8c15886ac4b43c9f8f51086efe5fce66b2ab091f9b82bfc0c900",
          "transactionIndex": "0x83",
          "logIndex": "0x127",
          "removed": false
        },
        {
          "address": "0xbf4a322f1496e5c3d34a9bcdb4c60567b38c7de2",
          "topics": [
            "0x4afcb4a87cdbd9974efdb92ee48bc8d7cd0ae4bf217004db3d080cbaee652ca7"
          ],
          "data": "0x0000000000000000000000000000000000000000000000000000000067873c800000000000000000000000000000000000000000000000000003978a09dbd56d0000000000000000000000000000000000000000000000000de0b6b3a7640000",
          "blockHash": "0x264ebfb3d46af35ff467618b3ab68982afbb23df92a7897bbe063989a5835deb",
          "blockNumber": "0x725b83",
          "transactionHash": "0x3d7cbd9b39fb8c15886ac4b43c9f8f51086efe5fce66b2ab091f9b82bfc0c900",
          "transactionIndex": "0x83",
          "logIndex": "0x128",
          "removed": false
        }
      ],
      "logsBloom": "0x00000000000000000000000000000000000000000000000000000000000000000000000000000000000000000000000000000000000000004000000000000000000000000000000000000008000000000000001000000000000000000000000000000000020000000000000000000800020000000000000000000010000000000000000000000000000000000000000000000000000008000000010000000000000000000000000000000000000000004000000000000000000000000000000000000002000000800000000000001000000000000000080000000000000020000000000000000000000000000000000000000000000000000000000000000000",
      "type": "0x2",
      "transactionHash": "0x3d7cbd9b39fb8c15886ac4b43c9f8f51086efe5fce66b2ab091f9b82bfc0c900",
      "transactionIndex": "0x83",
      "blockHash": "0x264ebfb3d46af35ff467618b3ab68982afbb23df92a7897bbe063989a5835deb",
      "blockNumber": "0x725b83",
      "gasUsed": "0x13af6",
      "effectiveGasPrice": "0x3ef7a1ba",
      "from": "0xc77f7fed3b5cc8249adc428c5f44c9063b9734b4",
      "to": "0xbf4a322f1496e5c3d34a9bcdb4c60567b38c7de2",
      "contractAddress": null
    }
  ],
  "libraries": [],
  "pending": [],
  "returns": {},
  "timestamp": 1736916098,
  "chain": 11155111,
  "commit": "51a374b"
}