{
  "transactions": [
    {
      "hash": "0x816bca38efe22e7009311e38765d01b7e879d885b0c6db7d0c0565998951b377",
      "transactionType": "CALL",
      "contractName": null,
      "contractAddress": "0x8aafd3ede9adb0ff97c7aebce82a919afb1c8764",
      "function": "sell(uint256)",
      "arguments": [
        "184907946215297176766"
      ],
      "transaction": {
        "from": "0xc77f7fed3b5cc8249adc428c5f44c9063b9734b4",
        "to": "0x8aafd3ede9adb0ff97c7aebce82a919afb1c8764",
        "gas": "0x17270",
        "value": "0x0",
        "input": "0xe4849b3200000000000000000000000000000000000000000000000a061cfd6605d2d4be",
        "nonce": "0x15b3",
        "chainId": "0xaa36a7"
      },
      "additionalContracts": [],
      "isFixedGasLimit": false
    }
  ],
  "receipts": [
    {
      "status": "0x1",
      "cumulativeGasUsed": "0xd171dd",
      "logs": [
        {
          "address": "0x8aafd3ede9adb0ff97c7aebce82a919afb1c8764",
          "topics": [
            "0xddf252ad1be2c89b69c2b068fc378daa952ba7f163c4a11628f55a4df523b3ef",
            "0x000000000000000000000000c77f7fed3b5cc8249adc428c5f44c9063b9734b4",
            "0x0000000000000000000000000000000000000000000000000000000000000000"
          ],
          "data": "0x000000000000000000000000000000000000000000000009f1959704f3584ff8",
          "blockHash": "0xa55f1c5052a601af6f2ebf9e0579166745bf05df0d23e2e708948af378d49ce5",
          "blockNumber": "0x731d2c",
          "transactionHash": "0x816bca38efe22e7009311e38765d01b7e879d885b0c6db7d0c0565998951b377",
          "transactionIndex": "0x77",
          "logIndex": "0xf2",
          "removed": false
        },
        {
          "address": "0x8aafd3ede9adb0ff97c7aebce82a919afb1c8764",
          "topics": [
            "0xddf252ad1be2c89b69c2b068fc378daa952ba7f163c4a11628f55a4df523b3ef",
            "0x000000000000000000000000c77f7fed3b5cc8249adc428c5f44c9063b9734b4",
            "0x000000000000000000000000c77f7fed3b5cc8249adc428c5f44c9063b9734b4"
          ],
          "data": "0x00000000000000000000000000000000000000000000000014876661127a84c6",
          "blockHash": "0xa55f1c5052a601af6f2ebf9e0579166745bf05df0d23e2e708948af378d49ce5",
          "blockNumber": "0x731d2c",
          "transactionHash": "0x816bca38efe22e7009311e38765d01b7e879d885b0c6db7d0c0565998951b377",
          "transactionIndex": "0x77",
          "logIndex": "0xf3",
          "removed": false
        },
        {
          "address": "0x8aafd3ede9adb0ff97c7aebce82a919afb1c8764",
          "topics": [
            "0x4afcb4a87cdbd9974efdb92ee48bc8d7cd0ae4bf217004db3d080cbaee652ca7"
          ],
          "data": "0x0000000000000000000000000000000000000000000000000000000067905af800000000000000000000000000000000000000000000000000132ec290d1871b0000000000000000000000000000000000000000000000000dcca934c2a800c3",
          "blockHash": "0xa55f1c5052a601af6f2ebf9e0579166745bf05df0d23e2e708948af378d49ce5",
          "blockNumber": "0x731d2c",
          "transactionHash": "0x816bca38efe22e7009311e38765d01b7e879d885b0c6db7d0c0565998951b377",
          "transactionIndex": "0x77",
          "logIndex": "0xf4",
          "removed": false
        }
      ],
      "logsBloom": "0x00000000000000000000000000000000000000000600000000000000000000000000000000000000000000000000000000000000000000004000000000000000000000000000004000000008000000000000000000000000000000000000000000000000020000000000000000000800020000000000000000000010000000000000000000000000000000000000000000000000000000000000010000000000000000000000000000000000000000004000000000000000000000000000000000000002000000800000000000000000000000000000080000000000000020000000000000000000000000000000000000000000000000000000000000000000",
      "type": "0x2",
      "transactionHash": "0x816bca38efe22e7009311e38765d01b7e879d885b0c6db7d0c0565998951b377",
      "transactionIndex": "0x77",
      "blockHash": "0xa55f1c5052a601af6f2ebf9e0579166745bf05df0d23e2e708948af378d49ce5",
      "blockNumber": "0x731d2c",
      "gasUsed": "0xfd4b",
      "effectiveGasPrice": "0x46d836e5",
      "from": "0xc77f7fed3b5cc8249adc428c5f44c9063b9734b4",
      "to": "0x8aafd3ede9adb0ff97c7aebce82a919afb1c8764",
      "contractAddress": null
    }
  ],
  "libraries": [],
  "pending": [],
  "returns": {},
  "timestamp": 1737513720,
  "chain": 11155111,
  "commit": "1d2fb70"
}