{
  "transactions": [
    {
      "hash": "0xfc6aa987f5f00817a4c6d07a9282628186ffa446807c4d2cc3fe73e181501e03",
      "transactionType": "CALL",
      "contractName": null,
      "contractAddress": "0x5eb9cc76c3506942c1c0ead70e877dd5e4f00cb0",
      "function": "sell(uint256)",
      "arguments": [
        "989151950994877609875"
      ],
      "transaction": {
        "from": "0xc77f7fed3b5cc8249adc428c5f44c9063b9734b4",
        "to": "0x5eb9cc76c3506942c1c0ead70e877dd5e4f00cb0",
        "gas": "0x16fec",
        "value": "0x0",
        "input": "0xe4849b320000000000000000000000000000000000000000000000359f3daaad9e467793",
        "nonce": "0x2bb",
        "chainId": "0xaa36a7"
      },
      "additionalContracts": [],
      "isFixedGasLimit": false
    }
  ],
  "receipts": [
    {
      "status": "0x1",
      "cumulativeGasUsed": "0x9df268",
      "logs": [
        {
          "address": "0x5eb9cc76c3506942c1c0ead70e877dd5e4f00cb0",
          "topics": [
            "0xddf252ad1be2c89b69c2b068fc378daa952ba7f163c4a11628f55a4df523b3ef",
            "0x000000000000000000000000c77f7fed3b5cc8249adc428c5f44c9063b9734b4",
            "0x0000000000000000000000000000000000000000000000000000000000000000"
          ],
          "data": "0x0000000000000000000000000000000000000000000000359f3daaad9e467793",
          "blockHash": "0x6f6e8208ff15fbba6e5f00c0cd303b1fe631442eb59563d580a66d459783e0b0",
          "blockNumber": "0x724e96",
          "transactionHash": "0xfc6aa987f5f00817a4c6d07a9282628186ffa446807c4d2cc3fe73e181501e03",
          "transactionIndex": "0x48",
          "logIndex": "0x8d",
          "removed": false
        },
        {
          "address": "0x5eb9cc76c3506942c1c0ead70e877dd5e4f00cb0",
          "topics": [
            "0x4afcb4a87cdbd9974efdb92ee48bc8d7cd0ae4bf217004db3d080cbaee652ca7"
          ],
          "data": "0x000000000000000000000000000000000000000000000000000000006786a0bc00000000000000000000000000000000000000000000000000039109320520a50000000000000000000000000000000000000000000000000dc7db133243e368",
          "blockHash": "0x6f6e8208ff15fbba6e5f00c0cd303b1fe631442eb59563d580a66d459783e0b0",
          "blockNumber": "0x724e96",
          "transactionHash": "0xfc6aa987f5f00817a4c6d07a9282628186ffa446807c4d2cc3fe73e181501e03",
          "transactionIndex": "0x48",
          "logIndex": "0x8e",
          "removed": false
        }
      ],
      "logsBloom": "0x00000000000000000000000000000000000000000000000000000000000000000000000000000000000000000000000000000000000000004000000000000000000000000000000000000008000000000000000000000000000000000000000000000000020000000000000004000800020000000000000000000010000000000000000000000000000000000000000000000000000000000000010000000000000000000000000000000000000000004000000000000000000000000000020000000002000000800000008000000000000000000000080000000000000020000000000000000000000000000000000000000000000000000000000000000000",
      "type": "0x2",
      "transactionHash": "0xfc6aa987f5f00817a4c6d07a9282628186ffa446807c4d2cc3fe73e181501e03",
      "transactionIndex": "0x48",
      "blockHash": "0x6f6e8208ff15fbba6e5f00c0cd303b1fe631442eb59563d580a66d459783e0b0",
      "blockNumber": "0x724e96",
      "gasUsed": "0xfb93",
      "effectiveGasPrice": "0x4953ebf64",
      "from": "0xc77f7fed3b5cc8249adc428c5f44c9063b9734b4",
      "to": "0x5eb9cc76c3506942c1c0ead70e877dd5e4f00cb0",
      "contractAddress": null
    }
  ],
  "libraries": [],
  "pending": [],
  "returns": {},
  "timestamp": 1736876221,
  "chain": 11155111,
  "commit": "51a374b"
}