{
  "transactions": [
    {
      "hash": "0x0d63f10df3dd6f5e919d2eb3ccff275cf99cb6831039a8a89c7a66fdd615708b",
      "transactionType": "CALL",
      "contractName": null,
      "contractAddress": "0xd7bc75898e513accccf720a874d44dab5a4b6223",
      "function": "sell(uint256)",
      "arguments": [
        "9929993160126971418"
      ],
      "transaction": {
        "from": "0xc77f7fed3b5cc8249adc428c5f44c9063b9734b4",
        "to": "0xd7bc75898e513accccf720a874d44dab5a4b6223",
        "gas": "0x15b6b",
        "value": "0x0",
        "input": "0xe4849b3200000000000000000000000000000000000000000000000089ce6c2af36d3e1a",
        "nonce": "0x8f",
        "chainId": "0xaa36a7"
      },
      "additionalContracts": [],
      "isFixedGasLimit": false
    }
  ],
  "receipts": [
    {
      "status": "0x1",
      "cumulativeGasUsed": "0x8fc34a",
      "logs": [
        {
          "address": "0xd7bc75898e513accccf720a874d44dab5a4b6223",
          "topics": [
            "0xddf252ad1be2c89b69c2b068fc378daa952ba7f163c4a11628f55a4df523b3ef",
            "0x000000000000000000000000c77f7fed3b5cc8249adc428c5f44c9063b9734b4",
            "0x0000000000000000000000000000000000000000000000000000000000000000"
          ],
          "data": "0x00000000000000000000000000000000000000000000000089ce6c2af36d3e1a",
          "blockHash": "0xf364eef1bdb244a396747bf7d1e36be536b4e0974236e1d34afb2e049d64072c",
          "blockNumber": "0x7238ff",
          "transactionHash": "0x0d63f10df3dd6f5e919d2eb3ccff275cf99cb6831039a8a89c7a66fdd615708b",
          "transactionIndex": "0x5a",
          "logIndex": "0x89",
          "removed": false
        },
        {
          "address": "0xd7bc75898e513accccf720a874d44dab5a4b6223",
          "topics": [
            "0x4afcb4a87cdbd9974efdb92ee48bc8d7cd0ae4bf217004db3d080cbaee652ca7"
          ],
          "data": "0x0000000000000000000000000000000000000000000000000000000067859d3c00000000000000000000000000000000000000000000000000038d7f82477abe0000000000000000000000000000000000000000000000000023474f493d2799",
          "blockHash": "0xf364eef1bdb244a396747bf7d1e36be536b4e0974236e1d34afb2e049d64072c",
          "blockNumber": "0x7238ff",
          "transactionHash": "0x0d63f10df3dd6f5e919d2eb3ccff275cf99cb6831039a8a89c7a66fdd615708b",
          "transactionIndex": "0x5a",
          "logIndex": "0x8a",
          "removed": false
        }
      ],
      "logsBloom": "0x00000000000000000000000000000000000000000000000000000000000000000000000000000000000000000000000000000000000000004000000000000000000000000000000000000008000000000000000000000000000000000000000000000000020000000000000000000800020000000000000000000010000000000000000000000000000000000000000000000000000000000000010000000000000000000000000000000000000000004000001000000000000000000000000000000002000000800000000000004000000000000000080000000000000020000000000000000000000000000000000000000000080000000000000000000000",
      "type": "0x2",
      "transactionHash": "0x0d63f10df3dd6f5e919d2eb3ccff275cf99cb6831039a8a89c7a66fdd615708b",
      "transactionIndex": "0x5a",
      "blockHash": "0xf364eef1bdb244a396747bf7d1e36be536b4e0974236e1d34afb2e049d64072c",
      "blockNumber": "0x7238ff",
      "gasUsed": "0xfb87",
      "effectiveGasPrice": "0xbd6be1",
      "from": "0xc77f7fed3b5cc8249adc428c5f44c9063b9734b4",
      "to": "0xd7bc75898e513accccf720a874d44dab5a4b6223",
      "contractAddress": null
    }
  ],
  "libraries": [],
  "pending": [],
  "returns": {},
  "timestamp": 1736809789,
  "chain": 11155111,
  "commit": "51a374b"
}