{
  "transactions": [
    {
      "hash": "0xc7f366abc07d26573a30914bfdfc68f89574d245a4445f1c5e1fab4f6b18dbeb",
      "transactionType": "CALL",
      "contractName": null,
      "contractAddress": "0x270e88f8683660553e8ba4eb2ad7c91a1710d769",
      "function": "buy(address)",
      "arguments": [
        "0xC77f7fed3b5Cc8249aDc428c5F44C9063B9734b4"
      ],
      "transaction": {
        "from": "0xc77f7fed3b5cc8249adc428c5f44c9063b9734b4",
        "to": "0x270e88f8683660553e8ba4eb2ad7c91a1710d769",
        "gas": "0x1b30c",
        "value": "0xde0b6b3a7640000",
        "input": "0xf088d547000000000000000000000000c77f7fed3b5cc8249adc428c5f44c9063b9734b4",
        "nonce": "0x56a",
        "chainId": "0xaa36a7"
      },
      "additionalContracts": [],
      "isFixedGasLimit": false
    }
  ],
  "receipts": [
    {
      "status": "0x1",
      "cumulativeGasUsed": "0x121d4b5",
      "logs": [
        {
          "address": "0x270e88f8683660553e8ba4eb2ad7c91a1710d769",
          "topics": [
            "0xddf252ad1be2c89b69c2b068fc378daa952ba7f163c4a11628f55a4df523b3ef",
            "0x0000000000000000000000000000000000000000000000000000000000000000",
            "0x000000000000000000000000c77f7fed3b5cc8249adc428c5f44c9063b9734b4"
          ],
          "data": "0x000000000000000000000000000000000000000000000034675d39869cd15051",
          "blockHash": "0x0a3363892b3c9ac0e90695e30b1f140dcdbc1a689f124733db264315a6e45ec3",
          "blockNumber": "0x725211",
          "transactionHash": "0xc7f366abc07d26573a30914bfdfc68f89574d245a4445f1c5e1fab4f6b18dbeb",
          "transactionIndex": "0x56",
          "logIndex": "0xa8",
          "removed": false
        },
        {
          "address": "0x270e88f8683660553e8ba4eb2ad7c91a1710d769",
          "topics": [
            "0xddf252ad1be2c89b69c2b068fc378daa952ba7f163c4a11628f55a4df523b3ef",
            "0x0000000000000000000000000000000000000000000000000000000000000000",
            "0x000000000000000000000000c77f7fed3b5cc8249adc428c5f44c9063b9734b4"
          ],
          "data": "0x00000000000000000000000000000000000000000000000028b17ce4c57f775b",
          "blockHash": "0x0a3363892b3c9ac0e90695e30b1f140dcdbc1a689f124733db264315a6e45ec3",
          "blockNumber": "0x725211",
          "transactionHash": "0xc7f366abc07d26573a30914bfdfc68f89574d245a4445f1c5e1fab4f6b18dbeb",
          "transactionIndex": "0x56",
          "logIndex": "0xa9",
          "removed": false
        },
        {
          "address": "0x270e88f8683660553e8ba4eb2ad7c91a1710d769",
          "topics": [
            "0x4afcb4a87cdbd9974efdb92ee48bc8d7cd0ae4bf217004db3d080cbaee652ca7"
          ],
          "data": "0x000000000000000000000000000000000000000000000000000000006786cabc0000000000000000000000000000000000000000000000000003a38a67abf27f0000000000000000000000000000000000000000000000000de0b6b3a7640000",
          "blockHash": "0x0a3363892b3c9ac0e90695e30b1f140dcdbc1a689f124733db264315a6e45ec3",
          "blockNumber": "0x725211",
          "transactionHash": "0xc7f366abc07d26573a30914bfdfc68f89574d245a4445f1c5e1fab4f6b18dbeb",
          "transactionIndex": "0x56",
          "logIndex": "0xaa",
          "removed": false
        }
      ],
      "logsBloom": "0x00000000000000000000000000000000000000000000000000000000000000000000000000000000000000000000000020000000000000004000000000000000000000000000000000000008000000000000000000000000000000000000000000000000020000000000000000000800020000000000000000000010000000000000000000010000000000000000000000000000000000000000010000000000000000000000000000000000000000004000000000000000000000000000000000000002000000800000000000000000000000000000080000008000000020000000000000000000000000000000000000000000000000000000000000000000",
      "type": "0x2",
      "transactionHash": "0xc7f366abc07d26573a30914bfdfc68f89574d245a4445f1c5e1fab4f6b18dbeb",
      "transactionIndex": "0x56",
      "blockHash": "0x0a3363892b3c9ac0e90695e30b1f140dcdbc1a689f124733db264315a6e45ec3",
      "blockNumber": "0x725211",
      "gasUsed": "0x13af8",
      "effectiveGasPrice": "0x4a0555bf4",
      "from": "0xc77f7fed3b5cc8249adc428c5f44c9063b9734b4",
      "to": "0x270e88f8683660553e8ba4eb2ad7c91a1710d769",
      "contractAddress": null
    }
  ],
  "libraries": [],
  "pending": [],
  "returns": {},
  "timestamp": 1736886973,
  "chain": 11155111,
  "commit": "51a374b"
}