{
  "transactions": [
    {
      "hash": "0x3c7607cc135e016568aac5c8a941cb8ba7065a97588c9aa4895c21f284ac942a",
      "transactionType": "CALL",
      "contractName": null,
      "contractAddress": "0x5eb9cc76c3506942c1c0ead70e877dd5e4f00cb0",
      "function": "buy(address)",
      "arguments": [
        "0xC77f7fed3b5Cc8249aDc428c5F44C9063B9734b4"
      ],
      "transaction": {
        "from": "0xc77f7fed3b5cc8249adc428c5f44c9063b9734b4",
        "to": "0x5eb9cc76c3506942c1c0ead70e877dd5e4f00cb0",
        "gas": "0x156c8",
        "value": "0xde0b6b3a7640000",
        "input": "0xf088d547000000000000000000000000c77f7fed3b5cc8249adc428c5f44c9063b9734b4",
        "nonce": "0x1b0",
        "chainId": "0xaa36a7"
      },
      "additionalContracts": [],
      "isFixedGasLimit": false
    }
  ],
  "receipts": [
    {
      "status": "0x1",
      "cumulativeGasUsed": "0x7becdf",
      "logs": [
        {
          "address": "0x5eb9cc76c3506942c1c0ead70e877dd5e4f00cb0",
          "topics": [
            "0xddf252ad1be2c89b69c2b068fc378daa952ba7f163c4a11628f55a4df523b3ef",
            "0x0000000000000000000000000000000000000000000000000000000000000000",
            "0x000000000000000000000000c77f7fed3b5cc8249adc428c5f44c9063b9734b4"
          ],
          "data": "0x000000000000000000000000000000000000000000000035a37297bfef500213",
          "blockHash": "0xe3293adbbbc3957a706cffdc52034bd05df06cbcabfe76dfc5dd06f3f643a9e4",
          "blockNumber": "0x723c9a",
          "transactionHash": "0x3c7607cc135e016568aac5c8a941cb8ba7065a97588c9aa4895c21f284ac942a",
          "transactionIndex": "0x51",
          "logIndex": "0x81",
          "removed": false
        },
        {
          "address": "0x5eb9cc76c3506942c1c0ead70e877dd5e4f00cb0",
          "topics": [
            "0xddf252ad1be2c89b69c2b068fc378daa952ba7f163c4a11628f55a4df523b3ef",
            "0x0000000000000000000000000000000000000000000000000000000000000000",
            "0x000000000000000000000000c77f7fed3b5cc8249adc428c5f44c9063b9734b4"
          ],
          "data": "0x00000000000000000000000000000000000000000000000029a6effd71ebd9d4",
          "blockHash": "0xe3293adbbbc3957a706cffdc52034bd05df06cbcabfe76dfc5dd06f3f643a9e4",
          "blockNumber": "0x723c9a",
          "transactionHash": "0x3c7607cc135e016568aac5c8a941cb8ba7065a97588c9aa4895c21f284ac942a",
          "transactionIndex": "0x51",
          "logIndex": "0x82",
          "removed": false
        },
        {
          "address": "0x5eb9cc76c3506942c1c0ead70e877dd5e4f00cb0",
          "topics": [
            "0x4afcb4a87cdbd9974efdb92ee48bc8d7cd0ae4bf217004db3d080cbaee652ca7"
          ],
          "data": "0x000000000000000000000000000000000000000000000000000000006785c88c00000000000000000000000000000000000000000000000000038dfee5b4fe070000000000000000000000000000000000000000000000000de0b6b3a7640000",
          "blockHash": "0xe3293adbbbc3957a706cffdc52034bd05df06cbcabfe76dfc5dd06f3f643a9e4",
          "blockNumber": "0x723c9a",
          "transactionHash": "0x3c7607cc135e016568aac5c8a941cb8ba7065a97588c9aa4895c21f284ac942a",
          "transactionIndex": "0x51",
          "logIndex": "0x83",
          "removed": false
        }
      ],
      "logsBloom": "0x00000000000000000000000000000000000000000000000000000000000000000000000000000000000000000000000000000000000000004000000000000000000000000000000000000008000000000000000000000000000000000000000000000000020000000000000004000800020000000000000000000010000000000000000000000000000000000000000000000000000000000000010000000000000000000000000000000000000000004000000000000000000000000000020000000002000000800000008000000000000000000000080000000000000020000000000000000000000000000000000000000000000000000000000000000000",
      "type": "0x2",
      "transactionHash": "0x3c7607cc135e016568aac5c8a941cb8ba7065a97588c9aa4895c21f284ac942a",
      "transactionIndex": "0x51",
      "blockHash": "0xe3293adbbbc3957a706cffdc52034bd05df06cbcabfe76dfc5dd06f3f643a9e4",
      "blockNumber": "0x723c9a",
      "gasUsed": "0xf82c",
      "effectiveGasPrice": "0x1e4209723",
      "from": "0xc77f7fed3b5cc8249adc428c5f44c9063b9734b4",
      "to": "0x5eb9cc76c3506942c1c0ead70e877dd5e4f00cb0",
      "contractAddress": null
    }
  ],
  "libraries": [],
  "pending": [],
  "returns": {},
  "timestamp": 1736820878,
  "chain": 11155111,
  "commit": "51a374b"
}