{
  "transactions": [
    {
      "hash": "0x3b9991804138ed28ddec5ead06f647c3b1fb3f393d1d5dc9445a510fca48572b",
      "transactionType": "CALL",
      "contractName": null,
      "contractAddress": "0x8aafd3ede9adb0ff97c7aebce82a919afb1c8764",
      "function": "sell(uint256)",
      "arguments": [
        "298975"
      ],
      "transaction": {
        "from": "0xc77f7fed3b5cc8249adc428c5f44c9063b9734b4",
        "to": "0x8aafd3ede9adb0ff97c7aebce82a919afb1c8764",
        "gas": "0x16208",
        "value": "0x0",
        "input": "0xe4849b320000000000000000000000000000000000000000000000000000000000048fdf",
        "nonce": "0x17a0",
        "chainId": "0xaa36a7"
      },
      "additionalContracts": [],
      "isFixedGasLimit": false
    }
  ],
  "receipts": [
    {
      "status": "0x1",
      "cumulativeGasUsed": "0xc883cc",
      "logs": [
        {
          "address": "0x8aafd3ede9adb0ff97c7aebce82a919afb1c8764",
          "topics": [
            "0xddf252ad1be2c89b69c2b068fc378daa952ba7f163c4a11628f55a4df523b3ef",
            "0x000000000000000000000000c77f7fed3b5cc8249adc428c5f44c9063b9734b4",
            "0x0000000000000000000000000000000000000000000000000000000000000000"
          ],
          "data": "0x0000000000000000000000000000000000000000000000000000000000048688",
          "blockHash": "0xccc1f8a22fb3afa751679dda3917d4bc87edf7b1c571cf30db48a1dcd2c69bb3",
          "blockNumber": "0x731f7f",
          "transactionHash": "0x3b9991804138ed28ddec5ead06f647c3b1fb3f393d1d5dc9445a510fca48572b",
          "transactionIndex": "0x4c",
          "logIndex": "0x7d",
          "removed": false
        },
        {
          "address": "0x8aafd3ede9adb0ff97c7aebce82a919afb1c8764",
          "topics": [
            "0xddf252ad1be2c89b69c2b068fc378daa952ba7f163c4a11628f55a4df523b3ef",
            "0x000000000000000000000000c77f7fed3b5cc8249adc428c5f44c9063b9734b4",
            "0x000000000000000000000000c77f7fed3b5cc8249adc428c5f44c9063b9734b4"
          ],
          "data": "0x0000000000000000000000000000000000000000000000000000000000000957",
          "blockHash": "0xccc1f8a22fb3afa751679dda3917d4bc87edf7b1c571cf30db48a1dcd2c69bb3",
          "blockNumber": "0x731f7f",
          "transactionHash": "0x3b9991804138ed28ddec5ead06f647c3b1fb3f393d1d5dc9445a510fca48572b",
          "transactionIndex": "0x4c",
          "logIndex": "0x7e",
          "removed": false
        },
        {
          "address": "0x8aafd3ede9adb0ff97c7aebce82a919afb1c8764",
          "topics": [
            "0x4afcb4a87cdbd9974efdb92ee48bc8d7cd0ae4bf217004db3d080cbaee652ca7"
          ],
          "data": "0x00000000000000000000000000000000000000000000000000000000679076dc0000000000000000000000000000000000000000000000000018d9fbe3bea414000000000000000000000000000000000000000000000000000000000000082b",
          "blockHash": "0xccc1f8a22fb3afa751679dda3917d4bc87edf7b1c571cf30db48a1dcd2c69bb3",
          "blockNumber": "0x731f7f",
          "transactionHash": "0x3b9991804138ed28ddec5ead06f647c3b1fb3f393d1d5dc9445a510fca48572b",
          "transactionIndex": "0x4c",
          "logIndex": "0x7f",
          "removed": false
        }
      ],
      "logsBloom": "0x00000000000000000000000000000000000000000600000000000000000000000000000000000000000000000000000000000000000000004000000000000000000000000000004000000008000000000000000000000000000000000000000000000000020000000000000000000800020000000000000000000010000000000000000000000000000000000000000000000000000000000000010000000000000000000000000000000000000000004000000000000000000000000000000000000002000000800000000000000000000000000000080000000000000020000000000000000000000000000000000000000000000000000000000000000000",
      "type": "0x2",
      "transactionHash": "0x3b9991804138ed28ddec5ead06f647c3b1fb3f393d1d5dc9445a510fca48572b",
      "transactionIndex": "0x4c",
      "blockHash": "0xccc1f8a22fb3afa751679dda3917d4bc87edf7b1c571cf30db48a1dcd2c69bb3",
      "blockNumber": "0x731f7f",
      "gasUsed": "0xf213",
      "effectiveGasPrice": "0x47dc0d37",
      "from": "0xc77f7fed3b5cc8249adc428c5f44c9063b9734b4",
      "to": "0x8aafd3ede9adb0ff97c7aebce82a919afb1c8764",
      "contractAddress": null
    }
  ],
  "libraries": [],
  "pending": [],
  "returns": {},
  "timestamp": 1737520861,
  "chain": 11155111,
  "commit": "1d2fb70"
}