{
  "transactions": [
    {
      "hash": "0x33d65ad0158e63024789a11d578838ff436f51a51116e31397770d8f1e18d292",
      "transactionType": "CALL",
      "contractName": null,
      "contractAddress": "0x5eb9cc76c3506942c1c0ead70e877dd5e4f00cb0",
      "function": "sell(uint256)",
      "arguments": [
        "989110516510063075676"
      ],
      "transaction": {
        "from": "0xc77f7fed3b5cc8249adc428c5f44c9063b9734b4",
        "to": "0x5eb9cc76c3506942c1c0ead70e877dd5e4f00cb0",
        "gas": "0x16fec",
        "value": "0x0",
        "input": "0xe4849b320000000000000000000000000000000000000000000000359eaa763bd974215c",
        "nonce": "0x3bf",
        "chainId": "0xaa36a7"
      },
      "additionalContracts": [],
      "isFixedGasLimit": false
    }
  ],
  "receipts": [
    {
      "status": "0x1",
      "cumulativeGasUsed": "0xafd4fe",
      "logs": [
        {
          "address": "0x5eb9cc76c3506942c1c0ead70e877dd5e4f00cb0",
          "topics": [
            "0xddf252ad1be2c89b69c2b068fc378daa952ba7f163c4a11628f55a4df523b3ef",
            "0x000000000000000000000000c77f7fed3b5cc8249adc428c5f44c9063b9734b4",
            "0x0000000000000000000000000000000000000000000000000000000000000000"
          ],
          "data": "0x0000000000000000000000000000000000000000000000359eaa763bd974215c",
          "blockHash": "0x3e16ccc905adc017748d748a43cd375fb07a701cfe7a50658b9f4f3a7dac7d3d",
          "blockNumber": "0x724fbe",
          "transactionHash": "0x33d65ad0158e63024789a11d578838ff436f51a51116e31397770d8f1e18d292",
          "transactionIndex": "0x5c",
          "logIndex": "0x83",
          "removed": false
        },
        {
          "address": "0x5eb9cc76c3506942c1c0ead70e877dd5e4f00cb0",
          "topics": [
            "0x4afcb4a87cdbd9974efdb92ee48bc8d7cd0ae4bf217004db3d080cbaee652ca7"
          ],
          "data": "0x000000000000000000000000000000000000000000000000000000006786aeb400000000000000000000000000000000000000000000000000039112fc9e58dd0000000000000000000000000000000000000000000000000dc7db1331fa293a",
          "blockHash": "0x3e16ccc905adc017748d748a43cd375fb07a701cfe7a50658b9f4f3a7dac7d3d",
          "blockNumber": "0x724fbe",
          "transactionHash": "0x33d65ad0158e63024789a11d578838ff436f51a51116e31397770d8f1e18d292",
          "transactionIndex": "0x5c",
          "logIndex": "0x84",
          "removed": false
        }
      ],
      "logsBloom": "0x00000000000000000000000000000000000000000000000000000000000000000000000000000000000000000000000000000000000000004000000000000000000000000000000000000008000000000000000000000000000000000000000000000000020000000000000004000800020000000000000000000010000000000000000000000000000000000000000000000000000000000000010000000000000000000000000000000000000000004000000000000000000000000000020000000002000000800000008000000000000000000000080000000000000020000000000000000000000000000000000000000000000000000000000000000000",
      "type": "0x2",
      "transactionHash": "0x33d65ad0158e63024789a11d578838ff436f51a51116e31397770d8f1e18d292",
      "transactionIndex": "0x5c",
      "blockHash": "0x3e16ccc905adc017748d748a43cd375fb07a701cfe7a50658b9f4f3a7dac7d3d",
      "blockNumber": "0x724fbe",
      "gasUsed": "0xfb93",
      "effectiveGasPrice": "0x3d05512ad",
      "from": "0xc77f7fed3b5cc8249adc428c5f44c9063b9734b4",
      "to": "0x5eb9cc76c3506942c1c0ead70e877dd5e4f00cb0",
      "contractAddress": null
    }
  ],
  "libraries": [],
  "pending": [],
  "returns": {},
  "timestamp": 1736879799,
  "chain": 11155111,
  "commit": "51a374b"
}