{
  "transactions": [
    {
      "hash": "0xa257711e9f93e7fb3e31d4b05c8c3e25e3976aca286a36585a798c61af7d08bd",
      "transactionType": "CALL",
      "contractName": null,
      "contractAddress": "0x5eb9cc76c3506942c1c0ead70e877dd5e4f00cb0",
      "function": "buy(address)",
      "arguments": [
        "0xC77f7fed3b5Cc8249aDc428c5F44C9063B9734b4"
      ],
      "transaction": {
        "from": "0xc77f7fed3b5cc8249adc428c5f44c9063b9734b4",
        "to": "0x5eb9cc76c3506942c1c0ead70e877dd5e4f00cb0",
        "gas": "0x156c8",
        "value": "0xde0b6b3a7640000",
        "input": "0xf088d547000000000000000000000000c77f7fed3b5cc8249adc428c5f44c9063b9734b4",
        "nonce": "0x1c8",
        "chainId": "0xaa36a7"
      },
      "additionalContracts": [],
      "isFixedGasLimit": false
    }
  ],
  "receipts": [
    {
      "status": "0x1",
      "cumulativeGasUsed": "0x1edd7ec",
      "logs": [
        {
          "address": "0x5eb9cc76c3506942c1c0ead70e877dd5e4f00cb0",
          "topics": [
            "0xddf252ad1be2c89b69c2b068fc378daa952ba7f163c4a11628f55a4df523b3ef",
            "0x0000000000000000000000000000000000000000000000000000000000000000",
            "0x000000000000000000000000c77f7fed3b5cc8249adc428c5f44c9063b9734b4"
          ],
          "data": "0x000000000000000000000000000000000000000000000035a368c4e262de800e",
          "blockHash": "0xdba836d8045abc8ef464fe0597d6abf3cc33c5adfdb4b124f75829e0117e4458",
          "blockNumber": "0x723cb6",
          "transactionHash": "0xa257711e9f93e7fb3e31d4b05c8c3e25e3976aca286a36585a798c61af7d08bd",
          "transactionIndex": "0x62",
          "logIndex": "0x29b",
          "removed": false
        },
        {
          "address": "0x5eb9cc76c3506942c1c0ead70e877dd5e4f00cb0",
          "topics": [
            "0xddf252ad1be2c89b69c2b068fc378daa952ba7f163c4a11628f55a4df523b3ef",
            "0x0000000000000000000000000000000000000000000000000000000000000000",
            "0x000000000000000000000000c77f7fed3b5cc8249adc428c5f44c9063b9734b4"
          ],
          "data": "0x00000000000000000000000000000000000000000000000029a6e85c90f3e2a9",
          "blockHash": "0xdba836d8045abc8ef464fe0597d6abf3cc33c5adfdb4b124f75829e0117e4458",
          "blockNumber": "0x723cb6",
          "transactionHash": "0xa257711e9f93e7fb3e31d4b05c8c3e25e3976aca286a36585a798c61af7d08bd",
          "transactionIndex": "0x62",
          "logIndex": "0x29c",
          "removed": false
        },
        {
          "address": "0x5eb9cc76c3506942c1c0ead70e877dd5e4f00cb0",
          "topics": [
            "0x4afcb4a87cdbd9974efdb92ee48bc8d7cd0ae4bf217004db3d080cbaee652ca7"
          ],
          "data": "0x000000000000000000000000000000000000000000000000000000006785c9dc00000000000000000000000000000000000000000000000000038dff8c5dfd1b0000000000000000000000000000000000000000000000000de0b6b3a7640000",
          "blockHash": "0xdba836d8045abc8ef464fe0597d6abf3cc33c5adfdb4b124f75829e0117e4458",
          "blockNumber": "0x723cb6",
          "transactionHash": "0xa257711e9f93e7fb3e31d4b05c8c3e25e3976aca286a36585a798c61af7d08bd",
          "transactionIndex": "0x62",
          "logIndex": "0x29d",
          "removed": false
        }
      ],
      "logsBloom": "0x00000000000000000000000000000000000000000000000000000000000000000000000000000000000000000000000000000000000000004000000000000000000000000000000000000008000000000000000000000000000000000000000000000000020000000000000004000800020000000000000000000010000000000000000000000000000000000000000000000000000000000000010000000000000000000000000000000000000000004000000000000000000000000000020000000002000000800000008000000000000000000000080000000000000020000000000000000000000000000000000000000000000000000000000000000000",
      "type": "0x2",
      "transactionHash": "0xa257711e9f93e7fb3e31d4b05c8c3e25e3976aca286a36585a798c61af7d08bd",
      "transactionIndex": "0x62",
      "blockHash": "0xdba836d8045abc8ef464fe0597d6abf3cc33c5adfdb4b124f75829e0117e4458",
      "blockNumber": "0x723cb6",
      "gasUsed": "0xf82c",
      "effectiveGasPrice": "0x1a31ee263",
      "from": "0xc77f7fed3b5cc8249adc428c5f44c9063b9734b4",
      "to": "0x5eb9cc76c3506942c1c0ead70e877dd5e4f00cb0",
      "contractAddress": null
    }
  ],
  "libraries": [],
  "pending": [],
  "returns": {},
  "timestamp": 1736821213,
  "chain": 11155111,
  "commit": "51a374b"
}