{
  "transactions": [
    {
      "hash": "0x0fb5d4e47ef28b9c0fd8cf3bd6e7983a010d141bb6614e90edfde36640dd5503",
      "transactionType": "CALL",
      "contractName": null,
      "contractAddress": "0xd7bc75898e513accccf720a874d44dab5a4b6223",
      "function": "sell(uint256)",
      "arguments": [
        "9929992164670049465"
      ],
      "transaction": {
        "from": "0xc77f7fed3b5cc8249adc428c5f44c9063b9734b4",
        "to": "0xd7bc75898e513accccf720a874d44dab5a4b6223",
        "gas": "0x15b6b",
        "value": "0x0",
        "input": "0xe4849b3200000000000000000000000000000000000000000000000089ce6b432d920cb9",
        "nonce": "0xcd",
        "chainId": "0xaa36a7"
      },
      "additionalContracts": [],
      "isFixedGasLimit": false
    }
  ],
  "receipts": [
    {
      "status": "0x1",
      "cumulativeGasUsed": "0x8f9137",
      "logs": [
        {
          "address": "0xd7bc75898e513accccf720a874d44dab5a4b6223",
          "topics": [
            "0xddf252ad1be2c89b69c2b068fc378daa952ba7f163c4a11628f55a4df523b3ef",
            "0x000000000000000000000000c77f7fed3b5cc8249adc428c5f44c9063b9734b4",
            "0x0000000000000000000000000000000000000000000000000000000000000000"
          ],
          "data": "0x00000000000000000000000000000000000000000000000089ce6b432d920cb9",
          "blockHash": "0x201be3ac9a1a43b1da186930a05acda03d32cdbd375e9f18494d388071045ad0",
          "blockNumber": "0x72394c",
          "transactionHash": "0x0fb5d4e47ef28b9c0fd8cf3bd6e7983a010d141bb6614e90edfde36640dd5503",
          "transactionIndex": "0x40",
          "logIndex": "0x67",
          "removed": false
        },
        {
          "address": "0xd7bc75898e513accccf720a874d44dab5a4b6223",
          "topics": [
            "0x4afcb4a87cdbd9974efdb92ee48bc8d7cd0ae4bf217004db3d080cbaee652ca7"
          ],
          "data": "0x000000000000000000000000000000000000000000000000000000006785a0d800000000000000000000000000000000000000000000000000038d7f884124010000000000000000000000000000000000000000000000000023474f493d2798",
          "blockHash": "0x201be3ac9a1a43b1da186930a05acda03d32cdbd375e9f18494d388071045ad0",
          "blockNumber": "0x72394c",
          "transactionHash": "0x0fb5d4e47ef28b9c0fd8cf3bd6e7983a010d141bb6614e90edfde36640dd5503",
          "transactionIndex": "0x40",
          "logIndex": "0x68",
          "removed": false
        }
      ],
      "logsBloom": "0x00000000000000000000000000000000000000000000000000000000000000000000000000000000000000000000000000000000000000004000000000000000000000000000000000000008000000000000000000000000000000000000000000000000020000000000000000000800020000000000000000000010000000000000000000000000000000000000000000000000000000000000010000000000000000000000000000000000000000004000001000000000000000000000000000000002000000800000000000004000000000000000080000000000000020000000000000000000000000000000000000000000080000000000000000000000",
      "type": "0x2",
      "transactionHash": "0x0fb5d4e47ef28b9c0fd8cf3bd6e7983a010d141bb6614e90edfde36640dd5503",
      "transactionIndex": "0x40",
      "blockHash": "0x201be3ac9a1a43b1da186930a05acda03d32cdbd375e9f18494d388071045ad0",
      "blockNumber": "0x72394c",
      "gasUsed": "0xfb87",
      "effectiveGasPrice": "0x30c936be",
      "from": "0xc77f7fed3b5cc8249adc428c5f44c9063b9734b4",
      "to": "0xd7bc75898e513accccf720a874d44dab5a4b6223",
      "contractAddress": null
    }
  ],
  "libraries": [],
  "pending": [],
  "returns": {},
  "timestamp": 1736810712,
  "chain": 11155111,
  "commit": "51a374b"
}