{
  "transactions": [
    {
      "hash": "0xfb2d39272ef3ae7afff07fb6ff4adfacd17c3fe98cf1535d432727b0477d4b90",
      "transactionType": "CALL",
      "contractName": null,
      "contractAddress": "0x8aafd3ede9adb0ff97c7aebce82a919afb1c8764",
      "function": "sell(uint256)",
      "arguments": [
        "77619704842461"
      ],
      "transaction": {
        "from": "0xc77f7fed3b5cc8249adc428c5f44c9063b9734b4",
        "to": "0x8aafd3ede9adb0ff97c7aebce82a919afb1c8764",
        "gas": "0x15daa",
        "value": "0x0",
        "input": "0xe4849b32000000000000000000000000000000000000000000000000000046983eef48dd",
        "nonce": "0x171e",
        "chainId": "0xaa36a7"
      },
      "additionalContracts": [],
      "isFixedGasLimit": false
    }
  ],
  "receipts": [
    {
      "status": "0x1",
      "cumulativeGasUsed": "0x5e56a8",
      "logs": [
        {
          "address": "0x8aafd3ede9adb0ff97c7aebce82a919afb1c8764",
          "topics": [
            "0xddf252ad1be2c89b69c2b068fc378daa952ba7f163c4a11628f55a4df523b3ef",
            "0x000000000000000000000000c77f7fed3b5cc8249adc428c5f44c9063b9734b4",
            "0x0000000000000000000000000000000000000000000000000000000000000000"
          ],
          "data": "0x00000000000000000000000000000000000000000000000000004607aaf9a88a",
          "blockHash": "0xf0e63fd06208e47a7438d0c6d1b1b91998fc12186fb9ee7b34d45767feeb83b1",
          "blockNumber": "0x731ee4",
          "transactionHash": "0xfb2d39272ef3ae7afff07fb6ff4adfacd17c3fe98cf1535d432727b0477d4b90",
          "transactionIndex": "0x43",
          "logIndex": "0x5d",
          "removed": false
        },
        {
          "address": "0x8aafd3ede9adb0ff97c7aebce82a919afb1c8764",
          "topics": [
            "0xddf252ad1be2c89b69c2b068fc378daa952ba7f163c4a11628f55a4df523b3ef",
            "0x000000000000000000000000c77f7fed3b5cc8249adc428c5f44c9063b9734b4",
            "0x000000000000000000000000c77f7fed3b5cc8249adc428c5f44c9063b9734b4"
          ],
          "data": "0x0000000000000000000000000000000000000000000000000000009093f5a053",
          "blockHash": "0xf0e63fd06208e47a7438d0c6d1b1b91998fc12186fb9ee7b34d45767feeb83b1",
          "blockNumber": "0x731ee4",
          "transactionHash": "0xfb2d39272ef3ae7afff07fb6ff4adfacd17c3fe98cf1535d432727b0477d4b90",
          "transactionIndex": "0x43",
          "logIndex": "0x5e",
          "removed": false
        },
        {
          "address": "0x8aafd3ede9adb0ff97c7aebce82a919afb1c8764",
          "topics": [
            "0x4afcb4a87cdbd9974efdb92ee48bc8d7cd0ae4bf217004db3d080cbaee652ca7"
          ],
          "data": "0x0000000000000000000000000000000000000000000000000000000067906f980000000000000000000000000000000000000000000000000017603bf681d1d400000000000000000000000000000000000000000000000000000076e91c744a",
          "blockHash": "0xf0e63fd06208e47a7438d0c6d1b1b91998fc12186fb9ee7b34d45767feeb83b1",
          "blockNumber": "0x731ee4",
          "transactionHash": "0xfb2d39272ef3ae7afff07fb6ff4adfacd17c3fe98cf1535d432727b0477d4b90",
          "transactionIndex": "0x43",
          "logIndex": "0x5f",
          "removed": false
        }
      ],
      "logsBloom": "0x00000000000000000000000000000000000000000600000000000000000000000000000000000000000000000000000000000000000000004000000000000000000000000000004000000008000000000000000000000000000000000000000000000000020000000000000000000800020000000000000000000010000000000000000000000000000000000000000000000000000000000000010000000000000000000000000000000000000000004000000000000000000000000000000000000002000000800000000000000000000000000000080000000000000020000000000000000000000000000000000000000000000000000000000000000000",
      "type": "0x2",
      "transactionHash": "0xfb2d39272ef3ae7afff07fb6ff4adfacd17c3fe98cf1535d432727b0477d4b90",
      "transactionIndex": "0x43",
      "blockHash": "0xf0e63fd06208e47a7438d0c6d1b1b91998fc12186fb9ee7b34d45767feeb83b1",
      "blockNumber": "0x731ee4",
      "gasUsed": "0xfd27",
      "effectiveGasPrice": "0x404153f6",
      "from": "0xc77f7fed3b5cc8249adc428c5f44c9063b9734b4",
      "to": "0x8aafd3ede9adb0ff97c7aebce82a919afb1c8764",
      "contractAddress": null
    }
  ],
  "libraries": [],
  "pending": [],
  "returns": {},
  "timestamp": 1737519003,
  "chain": 11155111,
  "commit": "1d2fb70"
}