{
  "transactions": [
    {
      "hash": "0x06d844012b6aa357fe74558bdd057f2acb7b0cbb2586cb76899a2b47024f3844",
      "transactionType": "CALL",
      "contractName": null,
      "contractAddress": "0x8aafd3ede9adb0ff97c7aebce82a919afb1c8764",
      "function": "sell(uint256)",
      "arguments": [
        "689395964440"
      ],
      "transaction": {
        "from": "0xc77f7fed3b5cc8249adc428c5f44c9063b9734b4",
        "to": "0x8aafd3ede9adb0ff97c7aebce82a919afb1c8764",
        "gas": "0x1722a",
        "value": "0x0",
        "input": "0xe4849b32000000000000000000000000000000000000000000000000000000a083339a18",
        "nonce": "0x1659",
        "chainId": "0xaa36a7"
      },
      "additionalContracts": [],
      "isFixedGasLimit": false
    }
  ],
  "receipts": [
    {
      "status": "0x1",
      "cumulativeGasUsed": "0xadbd00",
      "logs": [
        {
          "address": "0x8aafd3ede9adb0ff97c7aebce82a919afb1c8764",
          "topics": [
            "0xddf252ad1be2c89b69c2b068fc378daa952ba7f163c4a11628f55a4df523b3ef",
            "0x000000000000000000000000c77f7fed3b5cc8249adc428c5f44c9063b9734b4",
            "0x0000000000000000000000000000000000000000000000000000000000000000"
          ],
          "data": "0x0000000000000000000000000000000000000000000000000000009f3a78d235",
          "blockHash": "0xc857fd5f6578e618618bf8a2e7a8ed2af211faab002320d5c4d08e962d4f7e79",
          "blockNumber": "0x731dfa",
          "transactionHash": "0x06d844012b6aa357fe74558bdd057f2acb7b0cbb2586cb76899a2b47024f3844",
          "transactionIndex": "0x81",
          "logIndex": "0xa4",
          "removed": false
        },
        {
          "address": "0x8aafd3ede9adb0ff97c7aebce82a919afb1c8764",
          "topics": [
            "0xddf252ad1be2c89b69c2b068fc378daa952ba7f163c4a11628f55a4df523b3ef",
            "0x000000000000000000000000c77f7fed3b5cc8249adc428c5f44c9063b9734b4",
            "0x000000000000000000000000c77f7fed3b5cc8249adc428c5f44c9063b9734b4"
          ],
          "data": "0x0000000000000000000000000000000000000000000000000000000148bac7e3",
          "blockHash": "0xc857fd5f6578e618618bf8a2e7a8ed2af211faab002320d5c4d08e962d4f7e79",
          "blockNumber": "0x731dfa",
          "transactionHash": "0x06d844012b6aa357fe74558bdd057f2acb7b0cbb2586cb76899a2b47024f3844",
          "transactionIndex": "0x81",
          "logIndex": "0xa5",
          "removed": false
        },
        {
          "address": "0x8aafd3ede9adb0ff97c7aebce82a919afb1c8764",
          "topics": [
            "0x4afcb4a87cdbd9974efdb92ee48bc8d7cd0ae4bf217004db3d080cbaee652ca7"
          ],
          "data": "0x00000000000000000000000000000000000000000000000000000000679064a0000000000000000000000000000000000000000000000000001510b68ce1524800000000000000000000000000000000000000000000000000000000f3a4e6cb",
          "blockHash": "0xc857fd5f6578e618618bf8a2e7a8ed2af211faab002320d5c4d08e962d4f7e79",
          "blockNumber": "0x731dfa",
          "transactionHash": "0x06d844012b6aa357fe74558bdd057f2acb7b0cbb2586cb76899a2b47024f3844",
          "transactionIndex": "0x81",
          "logIndex": "0xa6",
          "removed": false
        }
      ],
      "logsBloom": "0x00000000000000000000000000000000000000000600000000000000000000000000000000000000000000000000000000000000000000004000000000000000000000000000004000000008000000000000000000000000000000000000000000000000020000000000000000000800020000000000000000000010000000000000000000000000000000000000000000000000000000000000010000000000000000000000000000000000000000004000000000000000000000000000000000000002000000800000000000000000000000000000080000000000000020000000000000000000000000000000000000000000000000000000000000000000",
      "type": "0x2",
      "transactionHash": "0x06d844012b6aa357fe74558bdd057f2acb7b0cbb2586cb76899a2b47024f3844",
      "transactionIndex": "0x81",
      "blockHash": "0xc857fd5f6578e618618bf8a2e7a8ed2af211faab002320d5c4d08e962d4f7e79",
      "blockNumber": "0x731dfa",
      "gasUsed": "0xfd1b",
      "effectiveGasPrice": "0x4e38f85a",
      "from": "0xc77f7fed3b5cc8249adc428c5f44c9063b9734b4",
      "to": "0x8aafd3ede9adb0ff97c7aebce82a919afb1c8764",
      "contractAddress": null
    }
  ],
  "libraries": [],
  "pending": [],
  "returns": {},
  "timestamp": 1737516193,
  "chain": 11155111,
  "commit": "1d2fb70"
}