{
  "transactions": [
    {
      "hash": "0xfdc691ef1d17c7f64bfa1a1ad6e32db74538c16cf0ff3f3a70cb68fbfc76d085",
      "transactionType": "CALL",
      "contractName": null,
      "contractAddress": "0xbf4a322f1496e5c3d34a9bcdb4c60567b38c7de2",
      "function": "sell(uint256)",
      "arguments": [
        "990708552137848204327"
      ],
      "transaction": {
        "from": "0xc77f7fed3b5cc8249adc428c5f44c9063b9734b4",
        "to": "0xbf4a322f1496e5c3d34a9bcdb4c60567b38c7de2",
        "gas": "0x16fea",
        "value": "0x0",
        "input": "0xe4849b32000000000000000000000000000000000000000000000035b4d7d32ba6012c27",
        "nonce": "0x903",
        "chainId": "0xaa36a7"
      },
      "additionalContracts": [],
      "isFixedGasLimit": false
    }
  ],
  "receipts": [
    {
      "status": "0x1",
      "cumulativeGasUsed": "0xa50719",
      "logs": [
        {
          "address": "0xbf4a322f1496e5c3d34a9bcdb4c60567b38c7de2",
          "topics": [
            "0xddf252ad1be2c89b69c2b068fc378daa952ba7f163c4a11628f55a4df523b3ef",
            "0x000000000000000000000000c77f7fed3b5cc8249adc428c5f44c9063b9734b4",
            "0x0000000000000000000000000000000000000000000000000000000000000000"
          ],
          "data": "0x000000000000000000000000000000000000000000000035b4d7d32ba6012c27",
          "blockHash": "0x7b2b248f2038f6b80464a031cbf2a5e25a4ee72f279f6094f0b73e4b7d44bb99",
          "blockNumber": "0x72587c",
          "transactionHash": "0xfdc691ef1d17c7f64bfa1a1ad6e32db74538c16cf0ff3f3a70cb68fbfc76d085",
          "transactionIndex": "0x44",
          "logIndex": "0x59",
          "removed": false
        },
        {
          "address": "0xbf4a322f1496e5c3d34a9bcdb4c60567b38c7de2",
          "topics": [
            "0x4afcb4a87cdbd9974efdb92ee48bc8d7cd0ae4bf217004db3d080cbaee652ca7"
          ],
          "data": "0x00000000000000000000000000000000000000000000000000000000678717fc00000000000000000000000000000000000000000000000000038fa0563720ee0000000000000000000000000000000000000000000000000dc7e3faf6b29bcf",
          "blockHash": "0x7b2b248f2038f6b80464a031cbf2a5e25a4ee72f279f6094f0b73e4b7d44bb99",
          "blockNumber": "0x72587c",
          "transactionHash": "0xfdc691ef1d17c7f64bfa1a1ad6e32db74538c16cf0ff3f3a70cb68fbfc76d085",
          "transactionIndex": "0x44",
          "logIndex": "0x5a",
          "removed": false
        }
      ],
      "logsBloom": "0x00000000000000000000000000000000000000000000000000000000000000000000000000000000000000000000000000000000000000004000000000000000000000000000000000000008000000000000001000000000000000000000000000000000020000000000000000000800020000000000000000000010000000000000000000000000000000000000000000000000000008000000010000000000000000000000000000000000000000004000000000000000000000000000000000000002000000800000000000001000000000000000080000000000000020000000000000000000000000000000000000000000000000000000000000000000",
      "type": "0x2",
      "transactionHash": "0xfdc691ef1d17c7f64bfa1a1ad6e32db74538c16cf0ff3f3a70cb68fbfc76d085",
      "transactionIndex": "0x44",
      "blockHash": "0x7b2b248f2038f6b80464a031cbf2a5e25a4ee72f279f6094f0b73e4b7d44bb99",
      "blockNumber": "0x72587c",
      "gasUsed": "0xfb91",
      "effectiveGasPrice": "0x2fa11dbf",
      "from": "0xc77f7fed3b5cc8249adc428c5f44c9063b9734b4",
      "to": "0xbf4a322f1496e5c3d34a9bcdb4c60567b38c7de2",
      "contractAddress": null
    }
  ],
  "libraries": [],
  "pending": [],
  "returns": {},
  "timestamp": 1736906749,
  "chain": 11155111,
  "commit": "51a374b"
}