{
  "transactions": [
    {
      "hash": "0x03fd78edb2eed1f09c7b3a1d5e1b525be3b993ee94cc52ee501ef6172050ed0f",
      "transactionType": "CALL",
      "contractName": null,
      "contractAddress": "0x8aafd3ede9adb0ff97c7aebce82a919afb1c8764",
      "function": "sell(uint256)",
      "arguments": [
        "10457996242759248"
      ],
      "transaction": {
        "from": "0xc77f7fed3b5cc8249adc428c5f44c9063b9734b4",
        "to": "0x8aafd3ede9adb0ff97c7aebce82a919afb1c8764",
        "gas": "0x1724d",
        "value": "0x0",
        "input": "0xe4849b320000000000000000000000000000000000000000000000000025277dff1cae50",
        "nonce": "0x168d",
        "chainId": "0xaa36a7"
      },
      "additionalContracts": [],
      "isFixedGasLimit": false
    }
  ],
  "receipts": [
    {
      "status": "0x1",
      "cumulativeGasUsed": "0x1039d60",
      "logs": [
        {
          "address": "0x8aafd3ede9adb0ff97c7aebce82a919afb1c8764",
          "topics": [
            "0xddf252ad1be2c89b69c2b068fc378daa952ba7f163c4a11628f55a4df523b3ef",
            "0x000000000000000000000000c77f7fed3b5cc8249adc428c5f44c9063b9734b4",
            "0x0000000000000000000000000000000000000000000000000000000000000000"
          ],
          "data": "0x0000000000000000000000000000000000000000000000000024db6675e73417",
          "blockHash": "0x6dceeeddd4d946a9112fa31b7a2f0f3705320d8d2084fe0cec37da4a258a2c5a",
          "blockNumber": "0x731e42",
          "transactionHash": "0x03fd78edb2eed1f09c7b3a1d5e1b525be3b993ee94cc52ee501ef6172050ed0f",
          "transactionIndex": "0x7b",
          "logIndex": "0xc8",
          "removed": false
        },
        {
          "address": "0x8aafd3ede9adb0ff97c7aebce82a919afb1c8764",
          "topics": [
            "0xddf252ad1be2c89b69c2b068fc378daa952ba7f163c4a11628f55a4df523b3ef",
            "0x000000000000000000000000c77f7fed3b5cc8249adc428c5f44c9063b9734b4",
            "0x000000000000000000000000c77f7fed3b5cc8249adc428c5f44c9063b9734b4"
          ],
          "data": "0x00000000000000000000000000000000000000000000000000004c1789357a39",
          "blockHash": "0x6dceeeddd4d946a9112fa31b7a2f0f3705320d8d2084fe0cec37da4a258a2c5a",
          "blockNumber": "0x731e42",
          "transactionHash": "0x03fd78edb2eed1f09c7b3a1d5e1b525be3b993ee94cc52ee501ef6172050ed0f",
          "transactionIndex": "0x7b",
          "logIndex": "0xc9",
          "removed": false
        },
        {
          "address": "0x8aafd3ede9adb0ff97c7aebce82a919afb1c8764",
          "topics": [
            "0x4afcb4a87cdbd9974efdb92ee48bc8d7cd0ae4bf217004db3d080cbaee652ca7"
          ],
          "data": "0x00000000000000000000000000000000000000000000000000000000679068000000000000000000000000000000000000000000000000000015b1c3bf31f2cd00000000000000000000000000000000000000000000000000003a14cbe734a0",
          "blockHash": "0x6dceeeddd4d946a9112fa31b7a2f0f3705320d8d2084fe0cec37da4a258a2c5a",
          "blockNumber": "0x731e42",
          "transactionHash": "0x03fd78edb2eed1f09c7b3a1d5e1b525be3b993ee94cc52ee501ef6172050ed0f",
          "transactionIndex": "0x7b",
          "logIndex": "0xca",
          "removed": false
        }
      ],
      "logsBloom": "0x00000000000000000000000000000000000000000600000000000000000000000000000000000000000000000000000000000000000000004000000000000000000000000000004000000008000000000000000000000000000000000000000000000000020000000000000000000800020000000000000000000010000000000000000000000000000000000000000000000000000000000000010000000000000000000000000000000000000000004000000000000000000000000000000000000002000000800000000000000000000000000000080000000000000020000000000000000000000000000000000000000000000000000000000000000000",
      "type": "0x2",
      "transactionHash": "0x03fd78edb2eed1f09c7b3a1d5e1b525be3b993ee94cc52ee501ef6172050ed0f",
      "transactionIndex": "0x7b",
      "blockHash": "0x6dceeeddd4d946a9112fa31b7a2f0f3705320d8d2084fe0cec37da4a258a2c5a",
      "blockNumber": "0x731e42",
      "gasUsed": "0xfd33",
      "effectiveGasPrice": "0x4b0bc236",
      "from": "0xc77f7fed3b5cc8249adc428c5f44c9063b9734b4",
      "to": "0x8aafd3ede9adb0ff97c7aebce82a919afb1c8764",
      "contractAddress": null
    }
  ],
  "libraries": [],
  "pending": [],
  "returns": {},
  "timestamp": 1737517059,
  "chain": 11155111,
  "commit": "1d2fb70"
}