{
  "transactions": [
    {
      "hash": "0xda55138bb31203e0978d8a26947cd96d2aeeb6f1115a587b0cc86550cf9d1853",
      "transactionType": "CALL",
      "contractName": null,
      "contractAddress": "0x270e88f8683660553e8ba4eb2ad7c91a1710d769",
      "function": "buy(address)",
      "arguments": [
        "0xC77f7fed3b5Cc8249aDc428c5F44C9063B9734b4"
      ],
      "transaction": {
        "from": "0xc77f7fed3b5cc8249adc428c5f44c9063b9734b4",
        "to": "0x270e88f8683660553e8ba4eb2ad7c91a1710d769",
        "gas": "0x1b30c",
        "value": "0xde0b6b3a7640000",
        "input": "0xf088d547000000000000000000000000c77f7fed3b5cc8249adc428c5f44c9063b9734b4",
        "nonce": "0x528",
        "chainId": "0xaa36a7"
      },
      "additionalContracts": [],
      "isFixedGasLimit": false
    }
  ],
  "receipts": [
    {
      "status": "0x1",
      "cumulativeGasUsed": "0x14fa145",
      "logs": [
        {
          "address": "0x270e88f8683660553e8ba4eb2ad7c91a1710d769",
          "topics": [
            "0xddf252ad1be2c89b69c2b068fc378daa952ba7f163c4a11628f55a4df523b3ef",
            "0x0000000000000000000000000000000000000000000000000000000000000000",
            "0x000000000000000000000000c77f7fed3b5cc8249adc428c5f44c9063b9734b4"
          ],
          "data": "0x000000000000000000000000000000000000000000000034f3dcf8abe92923ae",
          "blockHash": "0xdfc163cda7eaf48ff4cde08c523de03cb97cd59dbe548daefb396db65c2a39b3",
          "blockNumber": "0x7251c2",
          "transactionHash": "0xda55138bb31203e0978d8a26947cd96d2aeeb6f1115a587b0cc86550cf9d1853",
          "transactionIndex": "0x6d",
          "logIndex": "0xc1",
          "removed": false
        },
        {
          "address": "0x270e88f8683660553e8ba4eb2ad7c91a1710d769",
          "topics": [
            "0xddf252ad1be2c89b69c2b068fc378daa952ba7f163c4a11628f55a4df523b3ef",
            "0x0000000000000000000000000000000000000000000000000000000000000000",
            "0x000000000000000000000000c77f7fed3b5cc8249adc428c5f44c9063b9734b4"
          ],
          "data": "0x000000000000000000000000000000000000000000000000291e971366255a11",
          "blockHash": "0xdfc163cda7eaf48ff4cde08c523de03cb97cd59dbe548daefb396db65c2a39b3",
          "blockNumber": "0x7251c2",
          "transactionHash": "0xda55138bb31203e0978d8a26947cd96d2aeeb6f1115a587b0cc86550cf9d1853",
          "transactionIndex": "0x6d",
          "logIndex": "0xc2",
          "removed": false
        },
        {
          "address": "0x270e88f8683660553e8ba4eb2ad7c91a1710d769",
          "topics": [
            "0x4afcb4a87cdbd9974efdb92ee48bc8d7cd0ae4bf217004db3d080cbaee652ca7"
          ],
          "data": "0x000000000000000000000000000000000000000000000000000000006786c6fc000000000000000000000000000000000000000000000000000399e305bb4a4d0000000000000000000000000000000000000000000000000de0b6b3a7640000",
          "blockHash": "0xdfc163cda7eaf48ff4cde08c523de03cb97cd59dbe548daefb396db65c2a39b3",
          "blockNumber": "0x7251c2",
          "transactionHash": "0xda55138bb31203e0978d8a26947cd96d2aeeb6f1115a587b0cc86550cf9d1853",
          "transactionIndex": "0x6d",
          "logIndex": "0xc3",
          "removed": false
        }
      ],
      "logsBloom": "0x00000000000000000000000000000000000000000000000000000000000000000000000000000000000000000000000020000000000000004000000000000000000000000000000000000008000000000000000000000000000000000000000000000000020000000000000000000800020000000000000000000010000000000000000000010000000000000000000000000000000000000000010000000000000000000000000000000000000000004000000000000000000000000000000000000002000000800000000000000000000000000000080000008000000020000000000000000000000000000000000000000000000000000000000000000000",
      "type": "0x2",
      "transactionHash": "0xda55138bb31203e0978d8a26947cd96d2aeeb6f1115a587b0cc86550cf9d1853",
      "transactionIndex": "0x6d",
      "blockHash": "0xdfc163cda7eaf48ff4cde08c523de03cb97cd59dbe548daefb396db65c2a39b3",
      "blockNumber": "0x7251c2",
      "gasUsed": "0x13af8",
      "effectiveGasPrice": "0x4106325fd",
      "from": "0xc77f7fed3b5cc8249adc428c5f44c9063b9734b4",
      "to": "0x270e88f8683660553e8ba4eb2ad7c91a1710d769",
      "contractAddress": null
    }
  ],
  "libraries": [],
  "pending": [],
  "returns": {},
  "timestamp": 1736886014,
  "chain": 11155111,
  "commit": "51a374b"
}