{
  "transactions": [
    {
      "hash": "0x2107af6a056f4f1161eccb4d28f2bfe6e85370bec5d9ba83c6aabaeec7a29d6d",
      "transactionType": "CALL",
      "contractName": null,
      "contractAddress": "0x270e88f8683660553e8ba4eb2ad7c91a1710d769",
      "function": "sell(uint256)",
      "arguments": [
        "745657467091579102887"
      ],
      "transaction": {
        "from": "0xc77f7fed3b5cc8249adc428c5f44c9063b9734b4",
        "to": "0x270e88f8683660553e8ba4eb2ad7c91a1710d769",
        "gas": "0x16fec",
        "value": "0x0",
        "input": "0xe4849b320000000000000000000000000000000000000000000000286c137ba83f18e6a7",
        "nonce": "0x6fc",
        "chainId": "0xaa36a7"
      },
      "additionalContracts": [],
      "isFixedGasLimit": false
    }
  ],
  "receipts": [
    {
      "status": "0x1",
      "cumulativeGasUsed": "0x1434787",
      "logs": [
        {
          "address": "0x270e88f8683660553e8ba4eb2ad7c91a1710d769",
          "topics": [
            "0xddf252ad1be2c89b69c2b068fc378daa952ba7f163c4a11628f55a4df523b3ef",
            "0x000000000000000000000000c77f7fed3b5cc8249adc428c5f44c9063b9734b4",
            "0x0000000000000000000000000000000000000000000000000000000000000000"
          ],
          "data": "0x0000000000000000000000000000000000000000000000286c137ba83f18e6a7",
          "blockHash": "0xec3d38f4110e50322336ec4c5cea531c3191be04d0418c2527a27df9b567ee96",
          "blockNumber": "0x725412",
          "transactionHash": "0x2107af6a056f4f1161eccb4d28f2bfe6e85370bec5d9ba83c6aabaeec7a29d6d",
          "transactionIndex": "0xab",
          "logIndex": "0x12b",
          "removed": false
        },
        {
          "address": "0x270e88f8683660553e8ba4eb2ad7c91a1710d769",
          "topics": [
            "0x4afcb4a87cdbd9974efdb92ee48bc8d7cd0ae4bf217004db3d080cbaee652ca7"
          ],
          "data": "0x000000000000000000000000000000000000000000000000000000006786e2e00000000000000000000000000000000000000000000000000004bb7afa73ff650000000000000000000000000000000000000000000000000dc82915d9e5f175",
          "blockHash": "0xec3d38f4110e50322336ec4c5cea531c3191be04d0418c2527a27df9b567ee96",
          "blockNumber": "0x725412",
          "transactionHash": "0x2107af6a056f4f1161eccb4d28f2bfe6e85370bec5d9ba83c6aabaeec7a29d6d",
          "transactionIndex": "0xab",
          "logIndex": "0x12c",
          "removed": false
        }
      ],
      "logsBloom": "0x00000000000000000000000000000000000000000000000000000000000000000000000000000000000000000000000020000000000000004000000000000000000000000000000000000008000000000000000000000000000000000000000000000000020000000000000000000800020000000000000000000010000000000000000000010000000000000000000000000000000000000000010000000000000000000000000000000000000000004000000000000000000000000000000000000002000000800000000000000000000000000000080000008000000020000000000000000000000000000000000000000000000000000000000000000000",
      "type": "0x2",
      "transactionHash": "0x2107af6a056f4f1161eccb4d28f2bfe6e85370bec5d9ba83c6aabaeec7a29d6d",
      "transactionIndex": "0xab",
      "blockHash": "0xec3d38f4110e50322336ec4c5cea531c3191be04d0418c2527a27df9b567ee96",
      "blockNumber": "0x725412",
      "gasUsed": "0xfb93",
      "effectiveGasPrice": "0x134a9052a",
      "from": "0xc77f7fed3b5cc8249adc428c5f44c9063b9734b4",
      "to": "0x270e88f8683660553e8ba4eb2ad7c91a1710d769",
      "contractAddress": null
    }
  ],
  "libraries": [],
  "pending": [],
  "returns": {},
  "timestamp": 1736893153,
  "chain": 11155111,
  "commit": "51a374b"
}