{
  "transactions": [
    {
      "hash": "0xaa19be3cd79230a20acb725f2cf5ff8eee1aa7ebf9d6356764fa5fb994b46c52",
      "transactionType": "CALL",
      "contractName": null,
      "contractAddress": "0x8aafd3ede9adb0ff97c7aebce82a919afb1c8764",
      "function": "buy(address)",
      "arguments": [
        "0xC77f7fed3b5Cc8249aDc428c5F44C9063B9734b4"
      ],
      "transaction": {
        "from": "0xc77f7fed3b5cc8249adc428c5f44c9063b9734b4",
        "to": "0x8aafd3ede9adb0ff97c7aebce82a919afb1c8764",
        "gas": "0x156ea",
        "value": "0xde0b6b3a7640000",
        "input": "0xf088d547000000000000000000000000c77f7fed3b5cc8249adc428c5f44c9063b9734b4",
        "nonce": "0xf48",
        "chainId": "0xaa36a7"
      },
      "additionalContracts": [],
      "isFixedGasLimit": false
    }
  ],
  "receipts": [
    {
      "status": "0x1",
      "cumulativeGasUsed": "0xe14838",
      "logs": [
        {
          "address": "0x8aafd3ede9adb0ff97c7aebce82a919afb1c8764",
          "topics": [
            "0xddf252ad1be2c89b69c2b068fc378daa952ba7f163c4a11628f55a4df523b3ef",
            "0x0000000000000000000000000000000000000000000000000000000000000000",
            "0x000000000000000000000000c77f7fed3b5cc8249adc428c5f44c9063b9734b4"
          ],
          "data": "0x000000000000000000000000000000000000000000000028223e7266ee5df969",
          "blockHash": "0x5bdb392c4979721eb242c9f285c3a0e07971b7ce6bea87dff02c8532d3aeb224",
          "blockNumber": "0x7315a3",
          "transactionHash": "0xaa19be3cd79230a20acb725f2cf5ff8eee1aa7ebf9d6356764fa5fb994b46c52",
          "transactionIndex": "0x89",
          "logIndex": "0xe0",
          "removed": false
        },
        {
          "address": "0x8aafd3ede9adb0ff97c7aebce82a919afb1c8764",
          "topics": [
            "0xddf252ad1be2c89b69c2b068fc378daa952ba7f163c4a11628f55a4df523b3ef",
            "0x0000000000000000000000000000000000000000000000000000000000000000",
            "0x000000000000000000000000c77f7fed3b5cc8249adc428c5f44c9063b9734b4"
          ],
          "data": "0x0000000000000000000000000000000000000000000000001f2a4d05a1a8e4d7",
          "blockHash": "0x5bdb392c4979721eb242c9f285c3a0e07971b7ce6bea87dff02c8532d3aeb224",
          "blockNumber": "0x7315a3",
          "transactionHash": "0xaa19be3cd79230a20acb725f2cf5ff8eee1aa7ebf9d6356764fa5fb994b46c52",
          "transactionIndex": "0x89",
          "logIndex": "0xe1",
          "removed": false
        },
        {
          "address": "0x8aafd3ede9adb0ff97c7aebce82a919afb1c8764",
          "topics": [
            "0x4afcb4a87cdbd9974efdb92ee48bc8d7cd0ae4bf217004db3d080cbaee652ca7"
          ],
          "data": "0x00000000000000000000000000000000000000000000000000000000679000500000000000000000000000000000000000000000000000000004c04bff3dfb990000000000000000000000000000000000000000000000000de0b6b3a7640000",
          "blockHash": "0x5bdb392c4979721eb242c9f285c3a0e07971b7ce6bea87dff02c8532d3aeb224",
          "blockNumber": "0x7315a3",
          "transactionHash": "0xaa19be3cd79230a20acb725f2cf5ff8eee1aa7ebf9d6356764fa5fb994b46c52",
          "transactionIndex": "0x89",
          "logIndex": "0xe2",
          "removed": false
        }
      ],
      "logsBloom": "0x00000000000000000000000000000000000000000600000000000000000000000000000000000000000000000000000000000000000000004000000000000000000000000000004000000008000000000000000000000000000000000000000000000000020000000000000000000800020000000000000000000010000000000000000000000000000000000000000000000000000000000000010000000000000000000000000000000000000000004000000000000000000000000000000000000002000000800000000000000000000000000000080000000000000020000000000000000000000000000000000000000000000000000000000000000000",
      "type": "0x2",
      "transactionHash": "0xaa19be3cd79230a20acb725f2cf5ff8eee1aa7ebf9d6356764fa5fb994b46c52",
      "transactionIndex": "0x89",
      "blockHash": "0x5bdb392c4979721eb242c9f285c3a0e07971b7ce6bea87dff02c8532d3aeb224",
      "blockNumber": "0x7315a3",
      "gasUsed": "0xf844",
      "effectiveGasPrice": "0x74b77c91",
      "from": "0xc77f7fed3b5cc8249adc428c5f44c9063b9734b4",
      "to": "0x8aafd3ede9adb0ff97c7aebce82a919afb1c8764",
      "contractAddress": null
    }
  ],
  "libraries": [],
  "pending": [],
  "returns": {},
  "timestamp": 1737490512,
  "chain": 11155111,
  "commit": "1d2fb70"
}