{
  "transactions": [
    {
      "hash": "0x16935a23fafed9afed4b1f2a5a135a68bb2d42d51600a2fb5fc1ba4ae4544b12",
      "transactionType": "CALL",
      "contractName": null,
      "contractAddress": "0xbf4a322f1496e5c3d34a9bcdb4c60567b38c7de2",
      "function": "sell(uint256)",
      "arguments": [
        "984301141891825757844"
      ],
      "transaction": {
        "from": "0xc77f7fed3b5cc8249adc428c5f44c9063b9734b4",
        "to": "0xbf4a322f1496e5c3d34a9bcdb4c60567b38c7de2",
        "gas": "0x16fea",
        "value": "0x0",
        "input": "0xe4849b320000000000000000000000000000000000000000000000355bec217fe9a36e94",
        "nonce": "0xad9",
        "chainId": "0xaa36a7"
      },
      "additionalContracts": [],
      "isFixedGasLimit": false
    }
  ],
  "receipts": [
    {
      "status": "0x1",
      "cumulativeGasUsed": "0xdac237",
      "logs": [
        {
          "address": "0xbf4a322f1496e5c3d34a9bcdb4c60567b38c7de2",
          "topics": [
            "0xddf252ad1be2c89b69c2b068fc378daa952ba7f163c4a11628f55a4df523b3ef",
            "0x000000000000000000000000c77f7fed3b5cc8249adc428c5f44c9063b9734b4",
            "0x0000000000000000000000000000000000000000000000000000000000000000"
          ],
          "data": "0x0000000000000000000000000000000000000000000000355bec217fe9a36e94",
          "blockHash": "0xea6589e4101aa933dbcc6574c1b0b98e1ca6a3a51cd4e359e8214e17c966efc9",
          "blockNumber": "0x725acc",
          "transactionHash": "0x16935a23fafed9afed4b1f2a5a135a68bb2d42d51600a2fb5fc1ba4ae4544b12",
          "transactionIndex": "0x6d",
          "logIndex": "0xd3",
          "removed": false
        },
        {
          "address": "0xbf4a322f1496e5c3d34a9bcdb4c60567b38c7de2",
          "topics": [
            "0x4afcb4a87cdbd9974efdb92ee48bc8d7cd0ae4bf217004db3d080cbaee652ca7"
          ],
          "data": "0x00000000000000000000000000000000000000000000000000000000678733e00000000000000000000000000000000000000000000000000003958f7b6eba730000000000000000000000000000000000000000000000000dc7e3ec11096c2f",
          "blockHash": "0xea6589e4101aa933dbcc6574c1b0b98e1ca6a3a51cd4e359e8214e17c966efc9",
          "blockNumber": "0x725acc",
          "transactionHash": "0x16935a23fafed9afed4b1f2a5a135a68bb2d42d51600a2fb5fc1ba4ae4544b12",
          "transactionIndex": "0x6d",
          "logIndex": "0xd4",
          "removed": false
        }
      ],
      "logsBloom": "0x00000000000000000000000000000000000000000000000000000000000000000000000000000000000000000000000000000000000000004000000000000000000000000000000000000008000000000000001000000000000000000000000000000000020000000000000000000800020000000000000000000010000000000000000000000000000000000000000000000000000008000000010000000000000000000000000000000000000000004000000000000000000000000000000000000002000000800000000000001000000000000000080000000000000020000000000000000000000000000000000000000000000000000000000000000000",
      "type": "0x2",
      "transactionHash": "0x16935a23fafed9afed4b1f2a5a135a68bb2d42d51600a2fb5fc1ba4ae4544b12",
      "transactionIndex": "0x6d",
      "blockHash": "0xea6589e4101aa933dbcc6574c1b0b98e1ca6a3a51cd4e359e8214e17c966efc9",
      "blockNumber": "0x725acc",
      "gasUsed": "0xfb91",
      "effectiveGasPrice": "0xd731a16e",
      "from": "0xc77f7fed3b5cc8249adc428c5f44c9063b9734b4",
      "to": "0xbf4a322f1496e5c3d34a9bcdb4c60567b38c7de2",
      "contractAddress": null
    }
  ],
  "libraries": [],
  "pending": [],
  "returns": {},
  "timestamp": 1736913890,
  "chain": 11155111,
  "commit": "51a374b"
}