{
  "transactions": [
    {
      "hash": "0xf8a6f0cfa6e2a4ea7a4c1353aa4c69912d317e347c187c4d4fb5f653120930dc",
      "transactionType": "CALL",
      "contractName": null,
      "contractAddress": "0x8aafd3ede9adb0ff97c7aebce82a919afb1c8764",
      "function": "sell(uint256)",
      "arguments": [
        "687340728527922150247"
      ],
      "transaction": {
        "from": "0xc77f7fed3b5cc8249adc428c5f44c9063b9734b4",
        "to": "0x8aafd3ede9adb0ff97c7aebce82a919afb1c8764",
        "gas": "0x15dca",
        "value": "0x0",
        "input": "0xe4849b3200000000000000000000000000000000000000000000002542c4cee8ad003b67",
        "nonce": "0x119f",
        "chainId": "0xaa36a7"
      },
      "additionalContracts": [],
      "isFixedGasLimit": false
    }
  ],
  "receipts": [
    {
      "status": "0x1",
      "cumulativeGasUsed": "0xa8024a",
      "logs": [
        {
          "address": "0x8aafd3ede9adb0ff97c7aebce82a919afb1c8764",
          "topics": [
            "0xddf252ad1be2c89b69c2b068fc378daa952ba7f163c4a11628f55a4df523b3ef",
            "0x000000000000000000000000c77f7fed3b5cc8249adc428c5f44c9063b9734b4",
            "0x0000000000000000000000000000000000000000000000000000000000000000"
          ],
          "data": "0x000000000000000000000000000000000000000000000024f67568e6d07b1c36",
          "blockHash": "0x60b1b531f235f6546e9e124cc0b10c32c229312ddac54788e79a69e0c9021ca2",
          "blockNumber": "0x731868",
          "transactionHash": "0xf8a6f0cfa6e2a4ea7a4c1353aa4c69912d317e347c187c4d4fb5f653120930dc",
          "transactionIndex": "0x89",
          "logIndex": "0x9e",
          "removed": false
        },
        {
          "address": "0x8aafd3ede9adb0ff97c7aebce82a919afb1c8764",
          "topics": [
            "0xddf252ad1be2c89b69c2b068fc378daa952ba7f163c4a11628f55a4df523b3ef",
            "0x000000000000000000000000c77f7fed3b5cc8249adc428c5f44c9063b9734b4",
            "0x000000000000000000000000c77f7fed3b5cc8249adc428c5f44c9063b9734b4"
          ],
          "data": "0x0000000000000000000000000000000000000000000000004c4f6601dc851f31",
          "blockHash": "0x60b1b531f235f6546e9e124cc0b10c32c229312ddac54788e79a69e0c9021ca2",
          "blockNumber": "0x731868",
          "transactionHash": "0xf8a6f0cfa6e2a4ea7a4c1353aa4c69912d317e347c187c4d4fb5f653120930dc",
          "transactionIndex": "0x89",
          "logIndex": "0x9f",
          "removed": false
        },
        {
          "address": "0x8aafd3ede9adb0ff97c7aebce82a919afb1c8764",
          "topics": [
            "0x4afcb4a87cdbd9974efdb92ee48bc8d7cd0ae4bf217004db3d080cbaee652ca7"
          ],
          "data": "0x00000000000000000000000000000000000000000000000000000000679021b000000000000000000000000000000000000000000000000000052364d9f8a9d80000000000000000000000000000000000000000000000000dc8f4b25257d19a",
          "blockHash": "0x60b1b531f235f6546e9e124cc0b10c32c229312ddac54788e79a69e0c9021ca2",
          "blockNumber": "0x731868",
          "transactionHash": "0xf8a6f0cfa6e2a4ea7a4c1353aa4c69912d317e347c187c4d4fb5f653120930dc",
          "transactionIndex": "0x89",
          "logIndex": "0xa0",
          "removed": false
        }
      ],
      "logsBloom": "0x00000000000000000000000000000000000000000600000000000000000000000000000000000000000000000000000000000000000000004000000000000000000000000000004000000008000000000000000000000000000000000000000000000000020000000000000000000800020000000000000000000010000000000000000000000000000000000000000000000000000000000000010000000000000000000000000000000000000000004000000000000000000000000000000000000002000000800000000000000000000000000000080000000000000020000000000000000000000000000000000000000000000000000000000000000000",
      "type": "0x2",
      "transactionHash": "0xf8a6f0cfa6e2a4ea7a4c1353aa4c69912d317e347c187c4d4fb5f653120930dc",
      "transactionIndex": "0x89",
      "blockHash": "0x60b1b531f235f6546e9e124cc0b10c32c229312ddac54788e79a69e0c9021ca2",
      "blockNumber": "0x731868",
      "gasUsed": "0xfd3f",
      "effectiveGasPrice": "0x463ce99e",
      "from": "0xc77f7fed3b5cc8249adc428c5f44c9063b9734b4",
      "to": "0x8aafd3ede9adb0ff97c7aebce82a919afb1c8764",
      "contractAddress": null
    }
  ],
  "libraries": [],
  "pending": [],
  "returns": {},
  "timestamp": 1737499058,
  "chain": 11155111,
  "commit": "1d2fb70"
}