{
  "transactions": [
    {
      "hash": "0x06f80489714d171138e6a0366220d1c829f03aa5c2e8e00f94654188fabb2475",
      "transactionType": "CALL",
      "contractName": null,
      "contractAddress": "0x8aafd3ede9adb0ff97c7aebce82a919afb1c8764",
      "function": "sell(uint256)",
      "arguments": [
        "2299920313213210176"
      ],
      "transaction": {
        "from": "0xc77f7fed3b5cc8249adc428c5f44c9063b9734b4",
        "to": "0x8aafd3ede9adb0ff97c7aebce82a919afb1c8764",
        "gas": "0x15dca",
        "value": "0x0",
        "input": "0xe4849b320000000000000000000000000000000000000000000000001feaf556e0c74e40",
        "nonce": "0x1362",
        "chainId": "0xaa36a7"
      },
      "additionalContracts": [],
      "isFixedGasLimit": false
    }
  ],
  "receipts": [
    {
      "status": "0x1",
      "cumulativeGasUsed": "0x8f196f",
      "logs": [
        {
          "address": "0x8aafd3ede9adb0ff97c7aebce82a919afb1c8764",
          "topics": [
            "0xddf252ad1be2c89b69c2b068fc378daa952ba7f163c4a11628f55a4df523b3ef",
            "0x000000000000000000000000c77f7fed3b5cc8249adc428c5f44c9063b9734b4",
            "0x0000000000000000000000000000000000000000000000000000000000000000"
          ],
          "data": "0x0000000000000000000000000000000000000000000000001fa997377688456f",
          "blockHash": "0xbc4eeeb1022324cd0d915a0c0c3f3620e57f0f105dc342f6d5e20c198fad4905",
          "blockNumber": "0x731a81",
          "transactionHash": "0x06f80489714d171138e6a0366220d1c829f03aa5c2e8e00f94654188fabb2475",
          "transactionIndex": "0x79",
          "logIndex": "0x7f",
          "removed": false
        },
        {
          "address": "0x8aafd3ede9adb0ff97c7aebce82a919afb1c8764",
          "topics": [
            "0xddf252ad1be2c89b69c2b068fc378daa952ba7f163c4a11628f55a4df523b3ef",
            "0x000000000000000000000000c77f7fed3b5cc8249adc428c5f44c9063b9734b4",
            "0x000000000000000000000000c77f7fed3b5cc8249adc428c5f44c9063b9734b4"
          ],
          "data": "0x00000000000000000000000000000000000000000000000000415e1f6a3f08d1",
          "blockHash": "0xbc4eeeb1022324cd0d915a0c0c3f3620e57f0f105dc342f6d5e20c198fad4905",
          "blockNumber": "0x731a81",
          "transactionHash": "0x06f80489714d171138e6a0366220d1c829f03aa5c2e8e00f94654188fabb2475",
          "transactionIndex": "0x79",
          "logIndex": "0x80",
          "removed": false
        },
        {
          "address": "0x8aafd3ede9adb0ff97c7aebce82a919afb1c8764",
          "topics": [
            "0x4afcb4a87cdbd9974efdb92ee48bc8d7cd0ae4bf217004db3d080cbaee652ca7"
          ],
          "data": "0x0000000000000000000000000000000000000000000000000000000067903adc000000000000000000000000000000000000000000000000000c5f7b02c14ef1000000000000000000000000000000000000000000000000001c74956987ed3e",
          "blockHash": "0xbc4eeeb1022324cd0d915a0c0c3f3620e57f0f105dc342f6d5e20c198fad4905",
          "blockNumber": "0x731a81",
          "transactionHash": "0x06f80489714d171138e6a0366220d1c829f03aa5c2e8e00f94654188fabb2475",
          "transactionIndex": "0x79",
          "logIndex": "0x81",
          "removed": false
        }
      ],
      "logsBloom": "0x00000000000000000000000000000000000000000600000000000000000000000000000000000000000000000000000000000000000000004000000000000000000000000000004000000008000000000000000000000000000000000000000000000000020000000000000000000800020000000000000000000010000000000000000000000000000000000000000000000000000000000000010000000000000000000000000000000000000000004000000000000000000000000000000000000002000000800000000000000000000000000000080000000000000020000000000000000000000000000000000000000000000000000000000000000000",
      "type": "0x2",
      "transactionHash": "0x06f80489714d171138e6a0366220d1c829f03aa5c2e8e00f94654188fabb2475",
      "transactionIndex": "0x79",
      "blockHash": "0xbc4eeeb1022324cd0d915a0c0c3f3620e57f0f105dc342f6d5e20c198fad4905",
      "blockNumber": "0x731a81",
      "gasUsed": "0xfd3f",
      "effectiveGasPrice": "0x4c268c49",
      "from": "0xc77f7fed3b5cc8249adc428c5f44c9063b9734b4",
      "to": "0x8aafd3ede9adb0ff97c7aebce82a919afb1c8764",
      "contractAddress": null
    }
  ],
  "libraries": [],
  "pending": [],
  "returns": {},
  "timestamp": 1737505502,
  "chain": 11155111,
  "commit": "1d2fb70"
}