{
  "transactions": [
    {
      "hash": "0xb96ba05eabcca444b365e290fcf11a712ba637a31b6a7e26fad8eecf27a7d1d0",
      "transactionType": "CALL",
      "contractName": null,
      "contractAddress": "0x8aafd3ede9adb0ff97c7aebce82a919afb1c8764",
      "function": "sell(uint256)",
      "arguments": [
        "5982072627364102288"
      ],
      "transaction": {
        "from": "0xc77f7fed3b5cc8249adc428c5f44c9063b9734b4",
        "to": "0x8aafd3ede9adb0ff97c7aebce82a919afb1c8764",
        "gas": "0x1724d",
        "value": "0x0",
        "input": "0xe4849b320000000000000000000000000000000000000000000000005304975c36a00090",
        "nonce": "0xeb1",
        "chainId": "0xaa36a7"
      },
      "additionalContracts": [],
      "isFixedGasLimit": false
    }
  ],
  "receipts": [
    {
      "status": "0x1",
      "cumulativeGasUsed": "0xebc9cc",
      "logs": [
        {
          "address": "0x8aafd3ede9adb0ff97c7aebce82a919afb1c8764",
          "topics": [
            "0xddf252ad1be2c89b69c2b068fc378daa952ba7f163c4a11628f55a4df523b3ef",
            "0x000000000000000000000000c77f7fed3b5cc8249adc428c5f44c9063b9734b4",
            "0x0000000000000000000000000000000000000000000000000000000000000000"
          ],
          "data": "0x000000000000000000000000000000000000000000000000525a920da6d3f85e",
          "blockHash": "0x68c0d3a1949640b73ea9fb7999897446a574ef7523dd6f214f82935f5fb0f54c",
          "blockNumber": "0x731414",
          "transactionHash": "0xb96ba05eabcca444b365e290fcf11a712ba637a31b6a7e26fad8eecf27a7d1d0",
          "transactionIndex": "0xb5",
          "logIndex": "0xf6",
          "removed": false
        },
        {
          "address": "0x8aafd3ede9adb0ff97c7aebce82a919afb1c8764",
          "topics": [
            "0xddf252ad1be2c89b69c2b068fc378daa952ba7f163c4a11628f55a4df523b3ef",
            "0x000000000000000000000000c77f7fed3b5cc8249adc428c5f44c9063b9734b4",
            "0x000000000000000000000000c77f7fed3b5cc8249adc428c5f44c9063b9734b4"
          ],
          "data": "0x00000000000000000000000000000000000000000000000000aa054e8fcc0832",
          "blockHash": "0x68c0d3a1949640b73ea9fb7999897446a574ef7523dd6f214f82935f5fb0f54c",
          "blockNumber": "0x731414",
          "transactionHash": "0xb96ba05eabcca444b365e290fcf11a712ba637a31b6a7e26fad8eecf27a7d1d0",
          "transactionIndex": "0xb5",
          "logIndex": "0xf7",
          "removed": false
        },
        {
          "address": "0x8aafd3ede9adb0ff97c7aebce82a919afb1c8764",
          "topics": [
            "0x4afcb4a87cdbd9974efdb92ee48bc8d7cd0ae4bf217004db3d080cbaee652ca7"
          ],
          "data": "0x00000000000000000000000000000000000000000000000000000000678fed9c0000000000000000000000000000000000000000000000000004b832f475b22c000000000000000000000000000000000000000000000000001c3b85373c66e5",
          "blockHash": "0x68c0d3a1949640b73ea9fb7999897446a574ef7523dd6f214f82935f5fb0f54c",
          "blockNumber": "0x731414",
          "transactionHash": "0xb96ba05eabcca444b365e290fcf11a712ba637a31b6a7e26fad8eecf27a7d1d0",
          "transactionIndex": "0xb5",
          "logIndex": "0xf8",
          "removed": false
        }
      ],
      "logsBloom": "0x00000000000000000000000000000000000000000600000000000000000000000000000000000000000000000000000000000000000000004000000000000000000000000000004000000008000000000000000000000000000000000000000000000000020000000000000000000800020000000000000000000010000000000000000000000000000000000000000000000000000000000000010000000000000000000000000000000000000000004000000000000000000000000000000000000002000000800000000000000000000000000000080000000000000020000000000000000000000000000000000000000000000000000000000000000000",
      "type": "0x2",
      "transactionHash": "0xb96ba05eabcca444b365e290fcf11a712ba637a31b6a7e26fad8eecf27a7d1d0",
      "transactionIndex": "0xb5",
      "blockHash": "0x68c0d3a1949640b73ea9fb7999897446a574ef7523dd6f214f82935f5fb0f54c",
      "blockNumber": "0x731414",
      "gasUsed": "0xfd33",
      "effectiveGasPrice": "0x8b50d4a0",
      "from": "0xc77f7fed3b5cc8249adc428c5f44c9063b9734b4",
      "to": "0x8aafd3ede9adb0ff97c7aebce82a919afb1c8764",
      "contractAddress": null
    }
  ],
  "libraries": [],
  "pending": [],
  "returns": {},
  "timestamp": 1737485725,
  "chain": 11155111,
  "commit": "51a374b"
}