{
  "transactions": [
    {
      "hash": "0x353ad13f8c70246e231e9eb03379f322272656a5b0f11ce1b8faf5cdb1fb5b77",
      "transactionType": "CALL",
      "contractName": null,
      "contractAddress": "0xbf4a322f1496e5c3d34a9bcdb4c60567b38c7de2",
      "function": "sell(uint256)",
      "arguments": [
        "979878456882008339968"
      ],
      "transaction": {
        "from": "0xc77f7fed3b5cc8249adc428c5f44c9063b9734b4",
        "to": "0xbf4a322f1496e5c3d34a9bcdb4c60567b38c7de2",
        "gas": "0x15b68",
        "value": "0x0",
        "input": "0xe4849b320000000000000000000000000000000000000000000000351e8b98ea6606b600",
        "nonce": "0xc21",
        "chainId": "0xaa36a7"
      },
      "additionalContracts": [],
      "isFixedGasLimit": false
    }
  ],
  "receipts": [
    {
      "status": "0x1",
      "cumulativeGasUsed": "0x5a38e5",
      "logs": [
        {
          "address": "0xbf4a322f1496e5c3d34a9bcdb4c60567b38c7de2",
          "topics": [
            "0xddf252ad1be2c89b69c2b068fc378daa952ba7f163c4a11628f55a4df523b3ef",
            "0x000000000000000000000000c77f7fed3b5cc8249adc428c5f44c9063b9734b4",
            "0x0000000000000000000000000000000000000000000000000000000000000000"
          ],
          "data": "0x0000000000000000000000000000000000000000000000351e8b98ea6606b600",
          "blockHash": "0x49ac5061a0e3f9977fab4519c4ed16b4f2a4d2daa6e119994863062c93852db8",
          "blockNumber": "0x725c4f",
          "transactionHash": "0x353ad13f8c70246e231e9eb03379f322272656a5b0f11ce1b8faf5cdb1fb5b77",
          "transactionIndex": "0x37",
          "logIndex": "0x44",
          "removed": false
        },
        {
          "address": "0xbf4a322f1496e5c3d34a9bcdb4c60567b38c7de2",
          "topics": [
            "0x4afcb4a87cdbd9974efdb92ee48bc8d7cd0ae4bf217004db3d080cbaee652ca7"
          ],
          "data": "0x0000000000000000000000000000000000000000000000000000000067874610000000000000000000000000000000000000000000000000000399b3a794e8ff0000000000000000000000000000000000000000000000000dc7e3e1c8a26ad0",
          "blockHash": "0x49ac5061a0e3f9977fab4519c4ed16b4f2a4d2daa6e119994863062c93852db8",
          "blockNumber": "0x725c4f",
          "transactionHash": "0x353ad13f8c70246e231e9eb03379f322272656a5b0f11ce1b8faf5cdb1fb5b77",
          "transactionIndex": "0x37",
          "logIndex": "0x45",
          "removed": false
        }
      ],
      "logsBloom": "0x00000000000000000000000000000000000000000000000000000000000000000000000000000000000000000000000000000000000000004000000000000000000000000000000000000008000000000000001000000000000000000000000000000000020000000000000000000800020000000000000000000010000000000000000000000000000000000000000000000000000008000000010000000000000000000000000000000000000000004000000000000000000000000000000000000002000000800000000000001000000000000000080000000000000020000000000000000000000000000000000000000000000000000000000000000000",
      "type": "0x2",
      "transactionHash": "0x353ad13f8c70246e231e9eb03379f322272656a5b0f11ce1b8faf5cdb1fb5b77",
      "transactionIndex": "0x37",
      "blockHash": "0x49ac5061a0e3f9977fab4519c4ed16b4f2a4d2daa6e119994863062c93852db8",
      "blockNumber": "0x725c4f",
      "gasUsed": "0xfb85",
      "effectiveGasPrice": "0x150b9e7cc",
      "from": "0xc77f7fed3b5cc8249adc428c5f44c9063b9734b4",
      "to": "0xbf4a322f1496e5c3d34a9bcdb4c60567b38c7de2",
      "contractAddress": null
    }
  ],
  "libraries": [],
  "pending": [],
  "returns": {},
  "timestamp": 1736918545,
  "chain": 11155111,
  "commit": "51a374b"
}