{
  "transactions": [
    {
      "hash": "0xe58f281792b10022241ce452d0204e7af2e44d4d88dbec45408526b45254af37",
      "transactionType": "CALL",
      "contractName": null,
      "contractAddress": "0xbf4a322f1496e5c3d34a9bcdb4c60567b38c7de2",
      "function": "sell(uint256)",
      "arguments": [
        "989338298547950160644"
      ],
      "transaction": {
        "from": "0xc77f7fed3b5cc8249adc428c5f44c9063b9734b4",
        "to": "0xbf4a322f1496e5c3d34a9bcdb4c60567b38c7de2",
        "gas": "0x16fea",
        "value": "0x0",
        "input": "0xe4849b32000000000000000000000000000000000000000000000035a1d3b4ca57ed8b04",
        "nonce": "0x967",
        "chainId": "0xaa36a7"
      },
      "additionalContracts": [],
      "isFixedGasLimit": false
    }
  ],
  "receipts": [
    {
      "status": "0x1",
      "cumulativeGasUsed": "0x127c3a7",
      "logs": [
        {
          "address": "0xbf4a322f1496e5c3d34a9bcdb4c60567b38c7de2",
          "topics": [
            "0xddf252ad1be2c89b69c2b068fc378daa952ba7f163c4a11628f55a4df523b3ef",
            "0x000000000000000000000000c77f7fed3b5cc8249adc428c5f44c9063b9734b4",
            "0x0000000000000000000000000000000000000000000000000000000000000000"
          ],
          "data": "0x000000000000000000000000000000000000000000000035a1d3b4ca57ed8b04",
          "blockHash": "0xc9bd41129e787485ff9aa14c38b51a0768cd4e7112bc18a328763ffd808681a2",
          "blockNumber": "0x7258fe",
          "transactionHash": "0xe58f281792b10022241ce452d0204e7af2e44d4d88dbec45408526b45254af37",
          "transactionIndex": "0x53",
          "logIndex": "0x75",
          "removed": false
        },
        {
          "address": "0xbf4a322f1496e5c3d34a9bcdb4c60567b38c7de2",
          "topics": [
            "0x4afcb4a87cdbd9974efdb92ee48bc8d7cd0ae4bf217004db3d080cbaee652ca7"
          ],
          "data": "0x0000000000000000000000000000000000000000000000000000000067871e14000000000000000000000000000000000000000000000000000390e38f0c89370000000000000000000000000000000000000000000000000dc7e3f7c7228db8",
          "blockHash": "0xc9bd41129e787485ff9aa14c38b51a0768cd4e7112bc18a328763ffd808681a2",
          "blockNumber": "0x7258fe",
          "transactionHash": "0xe58f281792b10022241ce452d0204e7af2e44d4d88dbec45408526b45254af37",
          "transactionIndex": "0x53",
          "logIndex": "0x76",
          "removed": false
        }
      ],
      "logsBloom": "0x00000000000000000000000000000000000000000000000000000000000000000000000000000000000000000000000000000000000000004000000000000000000000000000000000000008000000000000001000000000000000000000000000000000020000000000000000000800020000000000000000000010000000000000000000000000000000000000000000000000000008000000010000000000000000000000000000000000000000004000000000000000000000000000000000000002000000800000000000001000000000000000080000000000000020000000000000000000000000000000000000000000000000000000000000000000",
      "type": "0x2",
      "transactionHash": "0xe58f281792b10022241ce452d0204e7af2e44d4d88dbec45408526b45254af37",
      "transactionIndex": "0x53",
      "blockHash": "0xc9bd41129e787485ff9aa14c38b51a0768cd4e7112bc18a328763ffd808681a2",
      "blockNumber": "0x7258fe",
      "gasUsed": "0xfb91",
      "effectiveGasPrice": "0xa766dc0e",
      "from": "0xc77f7fed3b5cc8249adc428c5f44c9063b9734b4",
      "to": "0xbf4a322f1496e5c3d34a9bcdb4c60567b38c7de2",
      "contractAddress": null
    }
  ],
  "libraries": [],
  "pending": [],
  "returns": {},
  "timestamp": 1736908311,
  "chain": 11155111,
  "commit": "51a374b"
}