{
  "transactions": [
    {
      "hash": "0xf4c077dd70be9ee6d085676c9ec549de73b33f69a54d7b9292adb57afc75b80a",
      "transactionType": "CALL",
      "contractName": null,
      "contractAddress": "0x8aafd3ede9adb0ff97c7aebce82a919afb1c8764",
      "function": "sell(uint256)",
      "arguments": [
        "127084762481304"
      ],
      "transaction": {
        "from": "0xc77f7fed3b5cc8249adc428c5f44c9063b9734b4",
        "to": "0x8aafd3ede9adb0ff97c7aebce82a919afb1c8764",
        "gas": "0x15daa",
        "value": "0x0",
        "input": "0xe4849b32000000000000000000000000000000000000000000000000000073953a1fc298",
        "nonce": "0x140f",
        "chainId": "0xaa36a7"
      },
      "additionalContracts": [],
      "isFixedGasLimit": false
    }
  ],
  "receipts": [
    {
      "status": "0x1",
      "cumulativeGasUsed": "0xa333fa",
      "logs": [
        {
          "address": "0x8aafd3ede9adb0ff97c7aebce82a919afb1c8764",
          "topics": [
            "0xddf252ad1be2c89b69c2b068fc378daa952ba7f163c4a11628f55a4df523b3ef",
            "0x000000000000000000000000c77f7fed3b5cc8249adc428c5f44c9063b9734b4",
            "0x0000000000000000000000000000000000000000000000000000000000000000"
          ],
          "data": "0x000000000000000000000000000000000000000000000000000072a88363170e",
          "blockHash": "0xbb2df3d689437a2db77583ee7ac0ba8bc4733648353a037441e70e0b7ee9dcf6",
          "blockNumber": "0x731b49",
          "transactionHash": "0xf4c077dd70be9ee6d085676c9ec549de73b33f69a54d7b9292adb57afc75b80a",
          "transactionIndex": "0x8e",
          "logIndex": "0x98",
          "removed": false
        },
        {
          "address": "0x8aafd3ede9adb0ff97c7aebce82a919afb1c8764",
          "topics": [
            "0xddf252ad1be2c89b69c2b068fc378daa952ba7f163c4a11628f55a4df523b3ef",
            "0x000000000000000000000000c77f7fed3b5cc8249adc428c5f44c9063b9734b4",
            "0x000000000000000000000000c77f7fed3b5cc8249adc428c5f44c9063b9734b4"
          ],
          "data": "0x000000000000000000000000000000000000000000000000000000ecb6bcab8a",
          "blockHash": "0xbb2df3d689437a2db77583ee7ac0ba8bc4733648353a037441e70e0b7ee9dcf6",
          "blockNumber": "0x731b49",
          "transactionHash": "0xf4c077dd70be9ee6d085676c9ec549de73b33f69a54d7b9292adb57afc75b80a",
          "transactionIndex": "0x8e",
          "logIndex": "0x99",
          "removed": false
        },
        {
          "address": "0x8aafd3ede9adb0ff97c7aebce82a919afb1c8764",
          "topics": [
            "0x4afcb4a87cdbd9974efdb92ee48bc8d7cd0ae4bf217004db3d080cbaee652ca7"
          ],
          "data": "0x000000000000000000000000000000000000000000000000000000006790443c000000000000000000000000000000000000000000000000000e50d2e2e93f9f000000000000000000000000000000000000000000000000000000773af33bff",
          "blockHash": "0xbb2df3d689437a2db77583ee7ac0ba8bc4733648353a037441e70e0b7ee9dcf6",
          "blockNumber": "0x731b49",
          "transactionHash": "0xf4c077dd70be9ee6d085676c9ec549de73b33f69a54d7b9292adb57afc75b80a",
          "transactionIndex": "0x8e",
          "logIndex": "0x9a",
          "removed": false
        }
      ],
      "logsBloom": "0x00000000000000000000000000000000000000000600000000000000000000000000000000000000000000000000000000000000000000004000000000000000000000000000004000000008000000000000000000000000000000000000000000000000020000000000000000000800020000000000000000000010000000000000000000000000000000000000000000000000000000000000010000000000000000000000000000000000000000004000000000000000000000000000000000000002000000800000000000000000000000000000080000000000000020000000000000000000000000000000000000000000000000000000000000000000",
      "type": "0x2",
      "transactionHash": "0xf4c077dd70be9ee6d085676c9ec549de73b33f69a54d7b9292adb57afc75b80a",
      "transactionIndex": "0x8e",
      "blockHash": "0xbb2df3d689437a2db77583ee7ac0ba8bc4733648353a037441e70e0b7ee9dcf6",
      "blockNumber": "0x731b49",
      "gasUsed": "0xfd27",
      "effectiveGasPrice": "0xcf4814f6",
      "from": "0xc77f7fed3b5cc8249adc428c5f44c9063b9734b4",
      "to": "0x8aafd3ede9adb0ff97c7aebce82a919afb1c8764",
      "contractAddress": null
    }
  ],
  "libraries": [],
  "pending": [],
  "returns": {},
  "timestamp": 1737507901,
  "chain": 11155111,
  "commit": "1d2fb70"
}