{
  "transactions": [
    {
      "hash": "0xc0b3efbf63f066008ae314e4b42a4990d6be075aebb4a41e3f1954bd39796c01",
      "transactionType": "CALL",
      "contractName": null,
      "contractAddress": "0x8aafd3ede9adb0ff97c7aebce82a919afb1c8764",
      "function": "sell(uint256)",
      "arguments": [
        "24313293243"
      ],
      "transaction": {
        "from": "0xc77f7fed3b5cc8249adc428c5f44c9063b9734b4",
        "to": "0x8aafd3ede9adb0ff97c7aebce82a919afb1c8764",
        "gas": "0x1722a",
        "value": "0x0",
        "input": "0xe4849b3200000000000000000000000000000000000000000000000000000005a92f69bb",
        "nonce": "0xf6c",
        "chainId": "0xaa36a7"
      },
      "additionalContracts": [],
      "isFixedGasLimit": false
    }
  ],
  "receipts": [
    {
      "status": "0x1",
      "cumulativeGasUsed": "0xca93e4",
      "logs": [
        {
          "address": "0x8aafd3ede9adb0ff97c7aebce82a919afb1c8764",
          "topics": [
            "0xddf252ad1be2c89b69c2b068fc378daa952ba7f163c4a11628f55a4df523b3ef",
            "0x000000000000000000000000c77f7fed3b5cc8249adc428c5f44c9063b9734b4",
            "0x0000000000000000000000000000000000000000000000000000000000000000"
          ],
          "data": "0x000000000000000000000000000000000000000000000000000000059d977b52",
          "blockHash": "0x8efd1173dd4b61c6c2d8847921f74c86294036129612563ea25c21e2c491eb32",
          "blockNumber": "0x7315cc",
          "transactionHash": "0xc0b3efbf63f066008ae314e4b42a4990d6be075aebb4a41e3f1954bd39796c01",
          "transactionIndex": "0x89",
          "logIndex": "0xc9",
          "removed": false
        },
        {
          "address": "0x8aafd3ede9adb0ff97c7aebce82a919afb1c8764",
          "topics": [
            "0xddf252ad1be2c89b69c2b068fc378daa952ba7f163c4a11628f55a4df523b3ef",
            "0x000000000000000000000000c77f7fed3b5cc8249adc428c5f44c9063b9734b4",
            "0x000000000000000000000000c77f7fed3b5cc8249adc428c5f44c9063b9734b4"
          ],
          "data": "0x000000000000000000000000000000000000000000000000000000000b97ee69",
          "blockHash": "0x8efd1173dd4b61c6c2d8847921f74c86294036129612563ea25c21e2c491eb32",
          "blockNumber": "0x7315cc",
          "transactionHash": "0xc0b3efbf63f066008ae314e4b42a4990d6be075aebb4a41e3f1954bd39796c01",
          "transactionIndex": "0x89",
          "logIndex": "0xca",
          "removed": false
        },
        {
          "address": "0x8aafd3ede9adb0ff97c7aebce82a919afb1c8764",
          "topics": [
            "0x4afcb4a87cdbd9974efdb92ee48bc8d7cd0ae4bf217004db3d080cbaee652ca7"
          ],
          "data": "0x000000000000000000000000000000000000000000000000000000006790023c0000000000000000000000000000000000000000000000000004c18383c27bc30000000000000000000000000000000000000000000000000000000001f0a2a0",
          "blockHash": "0x8efd1173dd4b61c6c2d8847921f74c86294036129612563ea25c21e2c491eb32",
          "blockNumber": "0x7315cc",
          "transactionHash": "0xc0b3efbf63f066008ae314e4b42a4990d6be075aebb4a41e3f1954bd39796c01",
          "transactionIndex": "0x89",
          "logIndex": "0xcb",
          "removed": false
        }
      ],
      "logsBloom": "0x00000000000000000000000000000000000000000600000000000000000000000000000000000000000000000000000000000000000000004000000000000000000000000000004000000008000000000000000000000000000000000000000000000000020000000000000000000800020000000000000000000010000000000000000000000000000000000000000000000000000000000000010000000000000000000000000000000000000000004000000000000000000000000000000000000002000000800000000000000000000000000000080000000000000020000000000000000000000000000000000000000000000000000000000000000000",
      "type": "0x2",
      "transactionHash": "0xc0b3efbf63f066008ae314e4b42a4990d6be075aebb4a41e3f1954bd39796c01",
      "transactionIndex": "0x89",
      "blockHash": "0x8efd1173dd4b61c6c2d8847921f74c86294036129612563ea25c21e2c491eb32",
      "blockNumber": "0x7315cc",
      "gasUsed": "0xfd1b",
      "effectiveGasPrice": "0x62d47c8d",
      "from": "0xc77f7fed3b5cc8249adc428c5f44c9063b9734b4",
      "to": "0x8aafd3ede9adb0ff97c7aebce82a919afb1c8764",
      "contractAddress": null
    }
  ],
  "libraries": [],
  "pending": [],
  "returns": {},
  "timestamp": 1737491005,
  "chain": 11155111,
  "commit": "1d2fb70"
}