{
  "transactions": [
    {
      "hash": "0x898fdbc6428c5e078cad3dc50bb3de715d813fc1447630dc73ef859b11aa5e68",
      "transactionType": "CALL",
      "contractName": null,
      "contractAddress": "0x8aafd3ede9adb0ff97c7aebce82a919afb1c8764",
      "function": "sell(uint256)",
      "arguments": [
        "342082367166255"
      ],
      "transaction": {
        "from": "0xc77f7fed3b5cc8249adc428c5f44c9063b9734b4",
        "to": "0x8aafd3ede9adb0ff97c7aebce82a919afb1c8764",
        "gas": "0x1724d",
        "value": "0x0",
        "input": "0xe4849b320000000000000000000000000000000000000000000000000001371f41fa972f",
        "nonce": "0x12a6",
        "chainId": "0xaa36a7"
      },
      "additionalContracts": [],
      "isFixedGasLimit": false
    }
  ],
  "receipts": [
    {
      "status": "0x1",
      "cumulativeGasUsed": "0xbe39a6",
      "logs": [
        {
          "address": "0x8aafd3ede9adb0ff97c7aebce82a919afb1c8764",
          "topics": [
            "0xddf252ad1be2c89b69c2b068fc378daa952ba7f163c4a11628f55a4df523b3ef",
            "0x000000000000000000000000c77f7fed3b5cc8249adc428c5f44c9063b9734b4",
            "0x0000000000000000000000000000000000000000000000000000000000000000"
          ],
          "data": "0x000000000000000000000000000000000000000000000000000134a21465213d",
          "blockHash": "0x2eb424c9cc1131b7a74256492dcc770e0c931f923d63122b9558f7820c1158f7",
          "blockNumber": "0x73199b",
          "transactionHash": "0x898fdbc6428c5e078cad3dc50bb3de715d813fc1447630dc73ef859b11aa5e68",
          "transactionIndex": "0x90",
          "logIndex": "0xdf",
          "removed": false
        },
        {
          "address": "0x8aafd3ede9adb0ff97c7aebce82a919afb1c8764",
          "topics": [
            "0xddf252ad1be2c89b69c2b068fc378daa952ba7f163c4a11628f55a4df523b3ef",
            "0x000000000000000000000000c77f7fed3b5cc8249adc428c5f44c9063b9734b4",
            "0x000000000000000000000000c77f7fed3b5cc8249adc428c5f44c9063b9734b4"
          ],
          "data": "0x0000000000000000000000000000000000000000000000000000027d2d9575f2",
          "blockHash": "0x2eb424c9cc1131b7a74256492dcc770e0c931f923d63122b9558f7820c1158f7",
          "blockNumber": "0x73199b",
          "transactionHash": "0x898fdbc6428c5e078cad3dc50bb3de715d813fc1447630dc73ef859b11aa5e68",
          "transactionIndex": "0x90",
          "logIndex": "0xe0",
          "removed": false
        },
        {
          "address": "0x8aafd3ede9adb0ff97c7aebce82a919afb1c8764",
          "topics": [
            "0x4afcb4a87cdbd9974efdb92ee48bc8d7cd0ae4bf217004db3d080cbaee652ca7"
          ],
          "data": "0x00000000000000000000000000000000000000000000000000000000679030140000000000000000000000000000000000000000000000000005492efc5af4100000000000000000000000000000000000000000000000000000007680a11b84",
          "blockHash": "0x2eb424c9cc1131b7a74256492dcc770e0c931f923d63122b9558f7820c1158f7",
          "blockNumber": "0x73199b",
          "transactionHash": "0x898fdbc6428c5e078cad3dc50bb3de715d813fc1447630dc73ef859b11aa5e68",
          "transactionIndex": "0x90",
          "logIndex": "0xe1",
          "removed": false
        }
      ],
      "logsBloom": "0x00000000000000000000000000000000000000000600000000000000000000000000000000000000000000000000000000000000000000004000000000000000000000000000004000000008000000000000000000000000000000000000000000000000020000000000000000000800020000000000000000000010000000000000000000000000000000000000000000000000000000000000010000000000000000000000000000000000000000004000000000000000000000000000000000000002000000800000000000000000000000000000080000000000000020000000000000000000000000000000000000000000000000000000000000000000",
      "type": "0x2",
      "transactionHash": "0x898fdbc6428c5e078cad3dc50bb3de715d813fc1447630dc73ef859b11aa5e68",
      "transactionIndex": "0x90",
      "blockHash": "0x2eb424c9cc1131b7a74256492dcc770e0c931f923d63122b9558f7820c1158f7",
      "blockNumber": "0x73199b",
      "gasUsed": "0xfd33",
      "effectiveGasPrice": "0x41b254a7",
      "from": "0xc77f7fed3b5cc8249adc428c5f44c9063b9734b4",
      "to": "0x8aafd3ede9adb0ff97c7aebce82a919afb1c8764",
      "contractAddress": null
    }
  ],
  "libraries": [],
  "pending": [],
  "returns": {},
  "timestamp": 1737502742,
  "chain": 11155111,
  "commit": "1d2fb70"
}