{
  "transactions": [
    {
      "hash": "0x8a1eb331c8b9ee4aa049149a4f125d672fb29c87c37fc9aa0f74d24167041132",
      "transactionType": "CALL",
      "contractName": null,
      "contractAddress": "0x8aafd3ede9adb0ff97c7aebce82a919afb1c8764",
      "function": "sell(uint256)",
      "arguments": [
        "9926826070163236"
      ],
      "transaction": {
        "from": "0xc77f7fed3b5cc8249adc428c5f44c9063b9734b4",
        "to": "0x8aafd3ede9adb0ff97c7aebce82a919afb1c8764",
        "gas": "0x1724d",
        "value": "0x0",
        "input": "0xe4849b32000000000000000000000000000000000000000000000000002344654da8bf24",
        "nonce": "0x16f0",
        "chainId": "0xaa36a7"
      },
      "additionalContracts": [],
      "isFixedGasLimit": false
    }
  ],
  "receipts": [
    {
      "status": "0x1",
      "cumulativeGasUsed": "0x1387c72",
      "logs": [
        {
          "address": "0x8aafd3ede9adb0ff97c7aebce82a919afb1c8764",
          "topics": [
            "0xddf252ad1be2c89b69c2b068fc378daa952ba7f163c4a11628f55a4df523b3ef",
            "0x000000000000000000000000c77f7fed3b5cc8249adc428c5f44c9063b9734b4",
            "0x0000000000000000000000000000000000000000000000000000000000000000"
          ],
          "data": "0x0000000000000000000000000000000000000000000000000022fc2b26203a8b",
          "blockHash": "0x5ad678908cf10b1cd1fc84748989d375d0bd3590bcacdcb69ff54861158b87ec",
          "blockNumber": "0x731eb0",
          "transactionHash": "0x8a1eb331c8b9ee4aa049149a4f125d672fb29c87c37fc9aa0f74d24167041132",
          "transactionIndex": "0xae",
          "logIndex": "0x136",
          "removed": false
        },
        {
          "address": "0x8aafd3ede9adb0ff97c7aebce82a919afb1c8764",
          "topics": [
            "0xddf252ad1be2c89b69c2b068fc378daa952ba7f163c4a11628f55a4df523b3ef",
            "0x000000000000000000000000c77f7fed3b5cc8249adc428c5f44c9063b9734b4",
            "0x000000000000000000000000c77f7fed3b5cc8249adc428c5f44c9063b9734b4"
          ],
          "data": "0x0000000000000000000000000000000000000000000000000000483a27888499",
          "blockHash": "0x5ad678908cf10b1cd1fc84748989d375d0bd3590bcacdcb69ff54861158b87ec",
          "blockNumber": "0x731eb0",
          "transactionHash": "0x8a1eb331c8b9ee4aa049149a4f125d672fb29c87c37fc9aa0f74d24167041132",
          "transactionIndex": "0xae",
          "logIndex": "0x137",
          "removed": false
        },
        {
          "address": "0x8aafd3ede9adb0ff97c7aebce82a919afb1c8764",
          "topics": [
            "0x4afcb4a87cdbd9974efdb92ee48bc8d7cd0ae4bf217004db3d080cbaee652ca7"
          ],
          "data": "0x0000000000000000000000000000000000000000000000000000000067906d280000000000000000000000000000000000000000000000000016d990285dadab00000000000000000000000000000000000000000000000000003a114d1d8cc5",
          "blockHash": "0x5ad678908cf10b1cd1fc84748989d375d0bd3590bcacdcb69ff54861158b87ec",
          "blockNumber": "0x731eb0",
          "transactionHash": "0x8a1eb331c8b9ee4aa049149a4f125d672fb29c87c37fc9aa0f74d24167041132",
          "transactionIndex": "0xae",
          "logIndex": "0x138",
          "removed": false
        }
      ],
      "logsBloom": "0x00000000000000000000000000000000000000000600000000000000000000000000000000000000000000000000000000000000000000004000000000000000000000000000004000000008000000000000000000000000000000000000000000000000020000000000000000000800020000000000000000000010000000000000000000000000000000000000000000000000000000000000010000000000000000000000000000000000000000004000000000000000000000000000000000000002000000800000000000000000000000000000080000000000000020000000000000000000000000000000000000000000000000000000000000000000",
      "type": "0x2",
      "transactionHash": "0x8a1eb331c8b9ee4aa049149a4f125d672fb29c87c37fc9aa0f74d24167041132",
      "transactionIndex": "0xae",
      "blockHash": "0x5ad678908cf10b1cd1fc84748989d375d0bd3590bcacdcb69ff54861158b87ec",
      "blockNumber": "0x731eb0",
      "gasUsed": "0xfd33",
      "effectiveGasPrice": "0x40a8b743",
      "from": "0xc77f7fed3b5cc8249adc428c5f44c9063b9734b4",
      "to": "0x8aafd3ede9adb0ff97c7aebce82a919afb1c8764",
      "contractAddress": null
    }
  ],
  "libraries": [],
  "pending": [],
  "returns": {},
  "timestamp": 1737518378,
  "chain": 11155111,
  "commit": "1d2fb70"
}