{
  "transactions": [
    {
      "hash": "0x3406747ca554211ceeeb87f9dfdac4b3b6bee94210c9b01475af09eee0071165",
      "transactionType": "CALL",
      "contractName": null,
      "contractAddress": "0x8aafd3ede9adb0ff97c7aebce82a919afb1c8764",
      "function": "sell(uint256)",
      "arguments": [
        "24435286507"
      ],
      "transaction": {
        "from": "0xc77f7fed3b5cc8249adc428c5f44c9063b9734b4",
        "to": "0x8aafd3ede9adb0ff97c7aebce82a919afb1c8764",
        "gas": "0x1722a",
        "value": "0x0",
        "input": "0xe4849b3200000000000000000000000000000000000000000000000000000005b074e1eb",
        "nonce": "0xf05",
        "chainId": "0xaa36a7"
      },
      "additionalContracts": [],
      "isFixedGasLimit": false
    }
  ],
  "receipts": [
    {
      "status": "0x1",
      "cumulativeGasUsed": "0xe1b39a",
      "logs": [
        {
          "address": "0x8aafd3ede9adb0ff97c7aebce82a919afb1c8764",
          "topics": [
            "0xddf252ad1be2c89b69c2b068fc378daa952ba7f163c4a11628f55a4df523b3ef",
            "0x000000000000000000000000c77f7fed3b5cc8249adc428c5f44c9063b9734b4",
            "0x0000000000000000000000000000000000000000000000000000000000000000"
          ],
          "data": "0x00000000000000000000000000000000000000000000000000000005a4ce0f37",
          "blockHash": "0xb933e78853c32cc1895136d92c2e31d941fe00529b3fc6f5b3b46a1b22ed265e",
          "blockNumber": "0x73147d",
          "transactionHash": "0x3406747ca554211ceeeb87f9dfdac4b3b6bee94210c9b01475af09eee0071165",
          "transactionIndex": "0x8d",
          "logIndex": "0xe7",
          "removed": false
        },
        {
          "address": "0x8aafd3ede9adb0ff97c7aebce82a919afb1c8764",
          "topics": [
            "0xddf252ad1be2c89b69c2b068fc378daa952ba7f163c4a11628f55a4df523b3ef",
            "0x000000000000000000000000c77f7fed3b5cc8249adc428c5f44c9063b9734b4",
            "0x000000000000000000000000c77f7fed3b5cc8249adc428c5f44c9063b9734b4"
          ],
          "data": "0x000000000000000000000000000000000000000000000000000000000ba6d2b4",
          "blockHash": "0xb933e78853c32cc1895136d92c2e31d941fe00529b3fc6f5b3b46a1b22ed265e",
          "blockNumber": "0x73147d",
          "transactionHash": "0x3406747ca554211ceeeb87f9dfdac4b3b6bee94210c9b01475af09eee0071165",
          "transactionIndex": "0x8d",
          "logIndex": "0xe8",
          "removed": false
        },
        {
          "address": "0x8aafd3ede9adb0ff97c7aebce82a919afb1c8764",
          "topics": [
            "0x4afcb4a87cdbd9974efdb92ee48bc8d7cd0ae4bf217004db3d080cbaee652ca7"
          ],
          "data": "0x00000000000000000000000000000000000000000000000000000000678ff2880000000000000000000000000000000000000000000000000004bb8653ecee070000000000000000000000000000000000000000000000000000000001f0ac03",
          "blockHash": "0xb933e78853c32cc1895136d92c2e31d941fe00529b3fc6f5b3b46a1b22ed265e",
          "blockNumber": "0x73147d",
          "transactionHash": "0x3406747ca554211ceeeb87f9dfdac4b3b6bee94210c9b01475af09eee0071165",
          "transactionIndex": "0x8d",
          "logIndex": "0xe9",
          "removed": false
        }
      ],
      "logsBloom": "0x00000000000000000000000000000000000000000600000000000000000000000000000000000000000000000000000000000000000000004000000000000000000000000000004000000008000000000000000000000000000000000000000000000000020000000000000000000800020000000000000000000010000000000000000000000000000000000000000000000000000000000000010000000000000000000000000000000000000000004000000000000000000000000000000000000002000000800000000000000000000000000000080000000000000020000000000000000000000000000000000000000000000000000000000000000000",
      "type": "0x2",
      "transactionHash": "0x3406747ca554211ceeeb87f9dfdac4b3b6bee94210c9b01475af09eee0071165",
      "transactionIndex": "0x8d",
      "blockHash": "0xb933e78853c32cc1895136d92c2e31d941fe00529b3fc6f5b3b46a1b22ed265e",
      "blockNumber": "0x73147d",
      "gasUsed": "0xfd1b",
      "effectiveGasPrice": "0x8e932a1f",
      "from": "0xc77f7fed3b5cc8249adc428c5f44c9063b9734b4",
      "to": "0x8aafd3ede9adb0ff97c7aebce82a919afb1c8764",
      "contractAddress": null
    }
  ],
  "libraries": [],
  "pending": [],
  "returns": {},
  "timestamp": 1737486985,
  "chain": 11155111,
  "commit": "51a374b"
}