{
  "transactions": [
    {
      "hash": "0x027095d60acacfd602c50ee02cc4cb2a48dfebc75f2c2013466c22ff5e59ff34",
      "transactionType": "CALL",
      "contractName": null,
      "contractAddress": "0x8aafd3ede9adb0ff97c7aebce82a919afb1c8764",
      "function": "buy(address)",
      "arguments": [
        "0xC77f7fed3b5Cc8249aDc428c5F44C9063B9734b4"
      ],
      "transaction": {
        "from": "0xc77f7fed3b5cc8249adc428c5f44c9063b9734b4",
        "to": "0x8aafd3ede9adb0ff97c7aebce82a919afb1c8764",
        "gas": "0x156ea",
        "value": "0xde0b6b3a7640000",
        "input": "0xf088d547000000000000000000000000c77f7fed3b5cc8249adc428c5f44c9063b9734b4",
        "nonce": "0x13de",
        "chainId": "0xaa36a7"
      },
      "additionalContracts": [],
      "isFixedGasLimit": false
    }
  ],
  "receipts": [
    {
      "status": "0x1",
      "cumulativeGasUsed": "0x91acff",
      "logs": [
        {
          "address": "0x8aafd3ede9adb0ff97c7aebce82a919afb1c8764",
          "topics": [
            "0xddf252ad1be2c89b69c2b068fc378daa952ba7f163c4a11628f55a4df523b3ef",
            "0x0000000000000000000000000000000000000000000000000000000000000000",
            "0x000000000000000000000000c77f7fed3b5cc8249adc428c5f44c9063b9734b4"
          ],
          "data": "0x00000000000000000000000000000000000000000000000deabbd00392877ca4",
          "blockHash": "0x1f049e8c5f9c65434159aac9851901a05828435b0ccb168846ed8d6581ce0601",
          "blockNumber": "0x731b0d",
          "transactionHash": "0x027095d60acacfd602c50ee02cc4cb2a48dfebc75f2c2013466c22ff5e59ff34",
          "transactionIndex": "0x63",
          "logIndex": "0x7a",
          "removed": false
        },
        {
          "address": "0x8aafd3ede9adb0ff97c7aebce82a919afb1c8764",
          "topics": [
            "0xddf252ad1be2c89b69c2b068fc378daa952ba7f163c4a11628f55a4df523b3ef",
            "0x0000000000000000000000000000000000000000000000000000000000000000",
            "0x000000000000000000000000c77f7fed3b5cc8249adc428c5f44c9063b9734b4"
          ],
          "data": "0x0000000000000000000000000000000000000000000000000ace958e00066fd7",
          "blockHash": "0x1f049e8c5f9c65434159aac9851901a05828435b0ccb168846ed8d6581ce0601",
          "blockNumber": "0x731b0d",
          "transactionHash": "0x027095d60acacfd602c50ee02cc4cb2a48dfebc75f2c2013466c22ff5e59ff34",
          "transactionIndex": "0x63",
          "logIndex": "0x7b",
          "removed": false
        },
        {
          "address": "0x8aafd3ede9adb0ff97c7aebce82a919afb1c8764",
          "topics": [
            "0x4afcb4a87cdbd9974efdb92ee48bc8d7cd0ae4bf217004db3d080cbaee652ca7"
          ],
          "data": "0x000000000000000000000000000000000000000000000000000000006790416c000000000000000000000000000000000000000000000000000db97a845ff1480000000000000000000000000000000000000000000000000de0b6b3a7640000",
          "blockHash": "0x1f049e8c5f9c65434159aac9851901a05828435b0ccb168846ed8d6581ce0601",
          "blockNumber": "0x731b0d",
          "transactionHash": "0x027095d60acacfd602c50ee02cc4cb2a48dfebc75f2c2013466c22ff5e59ff34",
          "transactionIndex": "0x63",
          "logIndex": "0x7c",
          "removed": false
        }
      ],
      "logsBloom": "0x00000000000000000000000000000000000000000600000000000000000000000000000000000000000000000000000000000000000000004000000000000000000000000000004000000008000000000000000000000000000000000000000000000000020000000000000000000800020000000000000000000010000000000000000000000000000000000000000000000000000000000000010000000000000000000000000000000000000000004000000000000000000000000000000000000002000000800000000000000000000000000000080000000000000020000000000000000000000000000000000000000000000000000000000000000000",
      "type": "0x2",
      "transactionHash": "0x027095d60acacfd602c50ee02cc4cb2a48dfebc75f2c2013466c22ff5e59ff34",
      "transactionIndex": "0x63",
      "blockHash": "0x1f049e8c5f9c65434159aac9851901a05828435b0ccb168846ed8d6581ce0601",
      "blockNumber": "0x731b0d",
      "gasUsed": "0xf844",
      "effectiveGasPrice": "0x8f3397f6",
      "from": "0xc77f7fed3b5cc8249adc428c5f44c9063b9734b4",
      "to": "0x8aafd3ede9adb0ff97c7aebce82a919afb1c8764",
      "contractAddress": null
    }
  ],
  "libraries": [],
  "pending": [],
  "returns": {},
  "timestamp": 1737507182,
  "chain": 11155111,
  "commit": "1d2fb70"
}