{
  "transactions": [
    {
      "hash": "0x38a166189e333e79ee4c81fb5c9db3540a751acfa80dffc128a11ae87cdf04dd",
      "transactionType": "CALL",
      "contractName": null,
      "contractAddress": "0xbf4a322f1496e5c3d34a9bcdb4c60567b38c7de2",
      "function": "sell(uint256)",
      "arguments": [
        "974724338975252266248"
      ],
      "transaction": {
        "from": "0xc77f7fed3b5cc8249adc428c5f44c9063b9734b4",
        "to": "0xbf4a322f1496e5c3d34a9bcdb4c60567b38c7de2",
        "gas": "0x16fea",
        "value": "0x0",
        "input": "0xe4849b32000000000000000000000000000000000000000000000034d7047dfcb359bd08",
        "nonce": "0xda3",
        "chainId": "0xaa36a7"
      },
      "additionalContracts": [],
      "isFixedGasLimit": false
    }
  ],
  "receipts": [
    {
      "status": "0x1",
      "cumulativeGasUsed": "0xad55bb",
      "logs": [
        {
          "address": "0xbf4a322f1496e5c3d34a9bcdb4c60567b38c7de2",
          "topics": [
            "0xddf252ad1be2c89b69c2b068fc378daa952ba7f163c4a11628f55a4df523b3ef",
            "0x000000000000000000000000c77f7fed3b5cc8249adc428c5f44c9063b9734b4",
            "0x0000000000000000000000000000000000000000000000000000000000000000"
          ],
          "data": "0x000000000000000000000000000000000000000000000034d7047dfcb359bd08",
          "blockHash": "0x75c3ec3d9d1d3f2af3475e5dba4e903eafdf238ca1e0daaff1d725dc0e9777c7",
          "blockNumber": "0x726679",
          "transactionHash": "0x38a166189e333e79ee4c81fb5c9db3540a751acfa80dffc128a11ae87cdf04dd",
          "transactionIndex": "0x6a",
          "logIndex": "0x9d",
          "removed": false
        },
        {
          "address": "0xbf4a322f1496e5c3d34a9bcdb4c60567b38c7de2",
          "topics": [
            "0x4afcb4a87cdbd9974efdb92ee48bc8d7cd0ae4bf217004db3d080cbaee652ca7"
          ],
          "data": "0x000000000000000000000000000000000000000000000000000000006787c08000000000000000000000000000000000000000000000000000039e934cb49cb70000000000000000000000000000000000000000000000000dc7e3d5ccd67f55",
          "blockHash": "0x75c3ec3d9d1d3f2af3475e5dba4e903eafdf238ca1e0daaff1d725dc0e9777c7",
          "blockNumber": "0x726679",
          "transactionHash": "0x38a166189e333e79ee4c81fb5c9db3540a751acfa80dffc128a11ae87cdf04dd",
          "transactionIndex": "0x6a",
          "logIndex": "0x9e",
          "removed": false
        }
      ],
      "logsBloom": "0x00000000000000000000000000000000000000000000000000000000000000000000000000000000000000000000000000000000000000004000000000000000000000000000000000000008000000000000001000000000000000000000000000000000020000000000000000000800020000000000000000000010000000000000000000000000000000000000000000000000000008000000010000000000000000000000000000000000000000004000000000000000000000000000000000000002000000800000000000001000000000000000080000000000000020000000000000000000000000000000000000000000000000000000000000000000",
      "type": "0x2",
      "transactionHash": "0x38a166189e333e79ee4c81fb5c9db3540a751acfa80dffc128a11ae87cdf04dd",
      "transactionIndex": "0x6a",
      "blockHash": "0x75c3ec3d9d1d3f2af3475e5dba4e903eafdf238ca1e0daaff1d725dc0e9777c7",
      "blockNumber": "0x726679",
      "gasUsed": "0xfb91",
      "effectiveGasPrice": "0x8b4ff4a8",
      "from": "0xc77f7fed3b5cc8249adc428c5f44c9063b9734b4",
      "to": "0xbf4a322f1496e5c3d34a9bcdb4c60567b38c7de2",
      "contractAddress": null
    }
  ],
  "libraries": [],
  "pending": [],
  "returns": {},
  "timestamp": 1736949889,
  "chain": 11155111,
  "commit": "51a374b"
}