{
  "transactions": [
    {
      "hash": "0x19c9744406d6702214049423607b21a4f2dd43dba628a23a1710d93c04d409d3",
      "transactionType": "CALL",
      "contractName": null,
      "contractAddress": "0x5eb9cc76c3506942c1c0ead70e877dd5e4f00cb0",
      "function": "buy(address)",
      "arguments": [
        "0xC77f7fed3b5Cc8249aDc428c5F44C9063B9734b4"
      ],
      "transaction": {
        "from": "0xc77f7fed3b5cc8249adc428c5f44c9063b9734b4",
        "to": "0x5eb9cc76c3506942c1c0ead70e877dd5e4f00cb0",
        "gas": "0x156c8",
        "value": "0xde0b6b3a7640000",
        "input": "0xf088d547000000000000000000000000c77f7fed3b5cc8249adc428c5f44c9063b9734b4",
        "nonce": "0x1fb",
        "chainId": "0xaa36a7"
      },
      "additionalContracts": [],
      "isFixedGasLimit": false
    }
  ],
  "receipts": [
    {
      "status": "0x1",
      "cumulativeGasUsed": "0xd1e357",
      "logs": [
        {
          "address": "0x5eb9cc76c3506942c1c0ead70e877dd5e4f00cb0",
          "topics": [
            "0xddf252ad1be2c89b69c2b068fc378daa952ba7f163c4a11628f55a4df523b3ef",
            "0x0000000000000000000000000000000000000000000000000000000000000000",
            "0x000000000000000000000000c77f7fed3b5cc8249adc428c5f44c9063b9734b4"
          ],
          "data": "0x00000000000000000000000000000000000000000000003584bf0c55f90f263a",
          "blockHash": "0xafd8f1cb1ae2277974d6dc77dca7a816a5660af19be845d4ed9f4c648a2ff923",
          "blockNumber": "0x724b14",
          "transactionHash": "0x19c9744406d6702214049423607b21a4f2dd43dba628a23a1710d93c04d409d3",
          "transactionIndex": "0x4e",
          "logIndex": "0x9d",
          "removed": false
        },
        {
          "address": "0x5eb9cc76c3506942c1c0ead70e877dd5e4f00cb0",
          "topics": [
            "0xddf252ad1be2c89b69c2b068fc378daa952ba7f163c4a11628f55a4df523b3ef",
            "0x0000000000000000000000000000000000000000000000000000000000000000",
            "0x000000000000000000000000c77f7fed3b5cc8249adc428c5f44c9063b9734b4"
          ],
          "data": "0x000000000000000000000000000000000000000000000000298f18c91a835b9d",
          "blockHash": "0xafd8f1cb1ae2277974d6dc77dca7a816a5660af19be845d4ed9f4c648a2ff923",
          "blockNumber": "0x724b14",
          "transactionHash": "0x19c9744406d6702214049423607b21a4f2dd43dba628a23a1710d93c04d409d3",
          "transactionIndex": "0x4e",
          "logIndex": "0x9e",
          "removed": false
        },
        {
          "address": "0x5eb9cc76c3506942c1c0ead70e877dd5e4f00cb0",
          "topics": [
            "0x4afcb4a87cdbd9974efdb92ee48bc8d7cd0ae4bf217004db3d080cbaee652ca7"
          ],
          "data": "0x000000000000000000000000000000000000000000000000000000006786769800000000000000000000000000000000000000000000000000039008ec76179c0000000000000000000000000000000000000000000000000de0b6b3a7640000",
          "blockHash": "0xafd8f1cb1ae2277974d6dc77dca7a816a5660af19be845d4ed9f4c648a2ff923",
          "blockNumber": "0x724b14",
          "transactionHash": "0x19c9744406d6702214049423607b21a4f2dd43dba628a23a1710d93c04d409d3",
          "transactionIndex": "0x4e",
          "logIndex": "0x9f",
          "removed": false
        }
      ],
      "logsBloom": "0x00000000000000000000000000000000000000000000000000000000000000000000000000000000000000000000000000000000000000004000000000000000000000000000000000000008000000000000000000000000000000000000000000000000020000000000000004000800020000000000000000000010000000000000000000000000000000000000000000000000000000000000010000000000000000000000000000000000000000004000000000000000000000000000020000000002000000800000008000000000000000000000080000000000000020000000000000000000000000000000000000000000000000000000000000000000",
      "type": "0x2",
      "transactionHash": "0x19c9744406d6702214049423607b21a4f2dd43dba628a23a1710d93c04d409d3",
      "transactionIndex": "0x4e",
      "blockHash": "0xafd8f1cb1ae2277974d6dc77dca7a816a5660af19be845d4ed9f4c648a2ff923",
      "blockNumber": "0x724b14",
      "gasUsed": "0xf82c",
      "effectiveGasPrice": "0x55d03663f",
      "from": "0xc77f7fed3b5cc8249adc428c5f44c9063b9734b4",
      "to": "0x5eb9cc76c3506942c1c0ead70e877dd5e4f00cb0",
      "contractAddress": null
    }
  ],
  "libraries": [],
  "pending": [],
  "returns": {},
  "timestamp": 1736865432,
  "chain": 11155111,
  "commit": "51a374b"
}