{
  "transactions": [
    {
      "hash": "0x98b6d3e9cdda005b8770a4f5fc20d577260632ff2592524cd5573bfd5df4f495",
      "transactionType": "CALL",
      "contractName": null,
      "contractAddress": "0x8aafd3ede9adb0ff97c7aebce82a919afb1c8764",
      "function": "sell(uint256)",
      "arguments": [
        "3055459588264"
      ],
      "transaction": {
        "from": "0xc77f7fed3b5cc8249adc428c5f44c9063b9734b4",
        "to": "0x8aafd3ede9adb0ff97c7aebce82a919afb1c8764",
        "gas": "0x15daa",
        "value": "0x0",
        "input": "0xe4849b32000000000000000000000000000000000000000000000000000002c7679558a8",
        "nonce": "0xefa",
        "chainId": "0xaa36a7"
      },
      "additionalContracts": [],
      "isFixedGasLimit": false
    }
  ],
  "receipts": [
    {
      "status": "0x1",
      "cumulativeGasUsed": "0xfa7a4a",
      "logs": [
        {
          "address": "0x8aafd3ede9adb0ff97c7aebce82a919afb1c8764",
          "topics": [
            "0xddf252ad1be2c89b69c2b068fc378daa952ba7f163c4a11628f55a4df523b3ef",
            "0x000000000000000000000000c77f7fed3b5cc8249adc428c5f44c9063b9734b4",
            "0x0000000000000000000000000000000000000000000000000000000000000000"
          ],
          "data": "0x000000000000000000000000000000000000000000000000000002c1b6a07086",
          "blockHash": "0xe3f689eff82d11880cc475826aed60cc33e698ffba77084f61583d11adc7a449",
          "blockNumber": "0x731472",
          "transactionHash": "0x98b6d3e9cdda005b8770a4f5fc20d577260632ff2592524cd5573bfd5df4f495",
          "transactionIndex": "0x8b",
          "logIndex": "0x11c",
          "removed": false
        },
        {
          "address": "0x8aafd3ede9adb0ff97c7aebce82a919afb1c8764",
          "topics": [
            "0xddf252ad1be2c89b69c2b068fc378daa952ba7f163c4a11628f55a4df523b3ef",
            "0x000000000000000000000000c77f7fed3b5cc8249adc428c5f44c9063b9734b4",
            "0x000000000000000000000000c77f7fed3b5cc8249adc428c5f44c9063b9734b4"
          ],
          "data": "0x00000000000000000000000000000000000000000000000000000005b0f4e822",
          "blockHash": "0xe3f689eff82d11880cc475826aed60cc33e698ffba77084f61583d11adc7a449",
          "blockNumber": "0x731472",
          "transactionHash": "0x98b6d3e9cdda005b8770a4f5fc20d577260632ff2592524cd5573bfd5df4f495",
          "transactionIndex": "0x8b",
          "logIndex": "0x11d",
          "removed": false
        },
        {
          "address": "0x8aafd3ede9adb0ff97c7aebce82a919afb1c8764",
          "topics": [
            "0x4afcb4a87cdbd9974efdb92ee48bc8d7cd0ae4bf217004db3d080cbaee652ca7"
          ],
          "data": "0x00000000000000000000000000000000000000000000000000000000678ff2040000000000000000000000000000000000000000000000000004bb1be803a3cb00000000000000000000000000000000000000000000000000000000f283ff6e",
          "blockHash": "0xe3f689eff82d11880cc475826aed60cc33e698ffba77084f61583d11adc7a449",
          "blockNumber": "0x731472",
          "transactionHash": "0x98b6d3e9cdda005b8770a4f5fc20d577260632ff2592524cd5573bfd5df4f495",
          "transactionIndex": "0x8b",
          "logIndex": "0x11e",
          "removed": false
        }
      ],
      "logsBloom": "0x00000000000000000000000000000000000000000600000000000000000000000000000000000000000000000000000000000000000000004000000000000000000000000000004000000008000000000000000000000000000000000000000000000000020000000000000000000800020000000000000000000010000000000000000000000000000000000000000000000000000000000000010000000000000000000000000000000000000000004000000000000000000000000000000000000002000000800000000000000000000000000000080000000000000020000000000000000000000000000000000000000000000000000000000000000000",
      "type": "0x2",
      "transactionHash": "0x98b6d3e9cdda005b8770a4f5fc20d577260632ff2592524cd5573bfd5df4f495",
      "transactionIndex": "0x8b",
      "blockHash": "0xe3f689eff82d11880cc475826aed60cc33e698ffba77084f61583d11adc7a449",
      "blockNumber": "0x731472",
      "gasUsed": "0xfd27",
      "effectiveGasPrice": "0x9102efe4",
      "from": "0xc77f7fed3b5cc8249adc428c5f44c9063b9734b4",
      "to": "0x8aafd3ede9adb0ff97c7aebce82a919afb1c8764",
      "contractAddress": null
    }
  ],
  "libraries": [],
  "pending": [],
  "returns": {},
  "timestamp": 1737486853,
  "chain": 11155111,
  "commit": "51a374b"
}