{
  "transactions": [
    {
      "hash": "0xa224060e1ef8841ac3008faee662a7edfd1de3d93a866d7bf9a94c7326f6fe39",
      "transactionType": "CALL",
      "contractName": null,
      "contractAddress": "0x8aafd3ede9adb0ff97c7aebce82a919afb1c8764",
      "function": "sell(uint256)",
      "arguments": [
        "91180737194282"
      ],
      "transaction": {
        "from": "0xc77f7fed3b5cc8249adc428c5f44c9063b9734b4",
        "to": "0x8aafd3ede9adb0ff97c7aebce82a919afb1c8764",
        "gas": "0x15daa",
        "value": "0x0",
        "input": "0xe4849b32000000000000000000000000000000000000000000000000000052edab73692a",
        "nonce": "0x15f5",
        "chainId": "0xaa36a7"
      },
      "additionalContracts": [],
      "isFixedGasLimit": false
    }
  ],
  "receipts": [
    {
      "status": "0x1",
      "cumulativeGasUsed": "0xf8cf55",
      "logs": [
        {
          "address": "0x8aafd3ede9adb0ff97c7aebce82a919afb1c8764",
          "topics": [
            "0xddf252ad1be2c89b69c2b068fc378daa952ba7f163c4a11628f55a4df523b3ef",
            "0x000000000000000000000000c77f7fed3b5cc8249adc428c5f44c9063b9734b4",
            "0x0000000000000000000000000000000000000000000000000000000000000000"
          ],
          "data": "0x00000000000000000000000000000000000000000000000000005243d51653d8",
          "blockHash": "0xf313e2d302b081eaf7456bcdff4d276397d7cebf303d84fecfbcf464fc7538b8",
          "blockNumber": "0x731d81",
          "transactionHash": "0xa224060e1ef8841ac3008faee662a7edfd1de3d93a866d7bf9a94c7326f6fe39",
          "transactionIndex": "0x6f",
          "logIndex": "0xc3",
          "removed": false
        },
        {
          "address": "0x8aafd3ede9adb0ff97c7aebce82a919afb1c8764",
          "topics": [
            "0xddf252ad1be2c89b69c2b068fc378daa952ba7f163c4a11628f55a4df523b3ef",
            "0x000000000000000000000000c77f7fed3b5cc8249adc428c5f44c9063b9734b4",
            "0x000000000000000000000000c77f7fed3b5cc8249adc428c5f44c9063b9734b4"
          ],
          "data": "0x000000000000000000000000000000000000000000000000000000a9d65d1552",
          "blockHash": "0xf313e2d302b081eaf7456bcdff4d276397d7cebf303d84fecfbcf464fc7538b8",
          "blockNumber": "0x731d81",
          "transactionHash": "0xa224060e1ef8841ac3008faee662a7edfd1de3d93a866d7bf9a94c7326f6fe39",
          "transactionIndex": "0x6f",
          "logIndex": "0xc4",
          "removed": false
        },
        {
          "address": "0x8aafd3ede9adb0ff97c7aebce82a919afb1c8764",
          "topics": [
            "0x4afcb4a87cdbd9974efdb92ee48bc8d7cd0ae4bf217004db3d080cbaee652ca7"
          ],
          "data": "0x0000000000000000000000000000000000000000000000000000000067905ef40000000000000000000000000000000000000000000000000013ea07cacc00d200000000000000000000000000000000000000000000000000000076ffe5895e",
          "blockHash": "0xf313e2d302b081eaf7456bcdff4d276397d7cebf303d84fecfbcf464fc7538b8",
          "blockNumber": "0x731d81",
          "transactionHash": "0xa224060e1ef8841ac3008faee662a7edfd1de3d93a866d7bf9a94c7326f6fe39",
          "transactionIndex": "0x6f",
          "logIndex": "0xc5",
          "removed": false
        }
      ],
      "logsBloom": "0x00000000000000000000000000000000000000000600000000000000000000000000000000000000000000000000000000000000000000004000000000000000000000000000004000000008000000000000000000000000000000000000000000000000020000000000000000000800020000000000000000000010000000000000000000000000000000000000000000000000000000000000010000000000000000000000000000000000000000004000000000000000000000000000000000000002000000800000000000000000000000000000080000000000000020000000000000000000000000000000000000000000000000000000000000000000",
      "type": "0x2",
      "transactionHash": "0xa224060e1ef8841ac3008faee662a7edfd1de3d93a866d7bf9a94c7326f6fe39",
      "transactionIndex": "0x6f",
      "blockHash": "0xf313e2d302b081eaf7456bcdff4d276397d7cebf303d84fecfbcf464fc7538b8",
      "blockNumber": "0x731d81",
      "gasUsed": "0xfd27",
      "effectiveGasPrice": "0x670c1145",
      "from": "0xc77f7fed3b5cc8249adc428c5f44c9063b9734b4",
      "to": "0x8aafd3ede9adb0ff97c7aebce82a919afb1c8764",
      "contractAddress": null
    }
  ],
  "libraries": [],
  "pending": [],
  "returns": {},
  "timestamp": 1737514743,
  "chain": 11155111,
  "commit": "1d2fb70"
}