{
  "transactions": [
    {
      "hash": "0xf0cdf5329d9be05f0ac51fd5d6f51f06c2494cefbee98a7094925fff56abb368",
      "transactionType": "CALL",
      "contractName": null,
      "contractAddress": "0xbf4a322f1496e5c3d34a9bcdb4c60567b38c7de2",
      "function": "sell(uint256)",
      "arguments": [
        "985005967369863307155"
      ],
      "transaction": {
        "from": "0xc77f7fed3b5cc8249adc428c5f44c9063b9734b4",
        "to": "0xbf4a322f1496e5c3d34a9bcdb4c60567b38c7de2",
        "gas": "0x16fea",
        "value": "0x0",
        "input": "0xe4849b3200000000000000000000000000000000000000000000003565b42c89a0b61f93",
        "nonce": "0xaa5",
        "chainId": "0xaa36a7"
      },
      "additionalContracts": [],
      "isFixedGasLimit": false
    }
  ],
  "receipts": [
    {
      "status": "0x1",
      "cumulativeGasUsed": "0x6954fc",
      "logs": [
        {
          "address": "0xbf4a322f1496e5c3d34a9bcdb4c60567b38c7de2",
          "topics": [
            "0xddf252ad1be2c89b69c2b068fc378daa952ba7f163c4a11628f55a4df523b3ef",
            "0x000000000000000000000000c77f7fed3b5cc8249adc428c5f44c9063b9734b4",
            "0x0000000000000000000000000000000000000000000000000000000000000000"
          ],
          "data": "0x00000000000000000000000000000000000000000000003565b42c89a0b61f93",
          "blockHash": "0xe0fed33fecb55a943143578c4261e94b7b1e590acfd08c2ab17bd996c687e294",
          "blockNumber": "0x725a8e",
          "transactionHash": "0xf0cdf5329d9be05f0ac51fd5d6f51f06c2494cefbee98a7094925fff56abb368",
          "transactionIndex": "0x46",
          "logIndex": "0x5e",
          "removed": false
        },
        {
          "address": "0xbf4a322f1496e5c3d34a9bcdb4c60567b38c7de2",
          "topics": [
            "0x4afcb4a87cdbd9974efdb92ee48bc8d7cd0ae4bf217004db3d080cbaee652ca7"
          ],
          "data": "0x00000000000000000000000000000000000000000000000000000000678730f8000000000000000000000000000000000000000000000000000394e7680069c20000000000000000000000000000000000000000000000000dc7e3edb48c90c4",
          "blockHash": "0xe0fed33fecb55a943143578c4261e94b7b1e590acfd08c2ab17bd996c687e294",
          "blockNumber": "0x725a8e",
          "transactionHash": "0xf0cdf5329d9be05f0ac51fd5d6f51f06c2494cefbee98a7094925fff56abb368",
          "transactionIndex": "0x46",
          "logIndex": "0x5f",
          "removed": false
        }
      ],
      "logsBloom": "0x00000000000000000000000000000000000000000000000000000000000000000000000000000000000000000000000000000000000000004000000000000000000000000000000000000008000000000000001000000000000000000000000000000000020000000000000000000800020000000000000000000010000000000000000000000000000000000000000000000000000008000000010000000000000000000000000000000000000000004000000000000000000000000000000000000002000000800000000000001000000000000000080000000000000020000000000000000000000000000000000000000000000000000000000000000000",
      "type": "0x2",
      "transactionHash": "0xf0cdf5329d9be05f0ac51fd5d6f51f06c2494cefbee98a7094925fff56abb368",
      "transactionIndex": "0x46",
      "blockHash": "0xe0fed33fecb55a943143578c4261e94b7b1e590acfd08c2ab17bd996c687e294",
      "blockNumber": "0x725a8e",
      "gasUsed": "0xfb91",
      "effectiveGasPrice": "0x1c08106a8",
      "from": "0xc77f7fed3b5cc8249adc428c5f44c9063b9734b4",
      "to": "0xbf4a322f1496e5c3d34a9bcdb4c60567b38c7de2",
      "contractAddress": null
    }
  ],
  "libraries": [],
  "pending": [],
  "returns": {},
  "timestamp": 1736913145,
  "chain": 11155111,
  "commit": "51a374b"
}