{
  "transactions": [
    {
      "hash": "0xe15c0c780628cb6e138c1f8f5026f489351669568c92d5f91f1661fb64d06b52",
      "transactionType": "CALL",
      "contractName": null,
      "contractAddress": "0x270e88f8683660553e8ba4eb2ad7c91a1710d769",
      "function": "buy(address)",
      "arguments": [
        "0xC77f7fed3b5Cc8249aDc428c5F44C9063B9734b4"
      ],
      "transaction": {
        "from": "0xc77f7fed3b5cc8249adc428c5f44c9063b9734b4",
        "to": "0x270e88f8683660553e8ba4eb2ad7c91a1710d769",
        "gas": "0x1b30c",
        "value": "0xde0b6b3a7640000",
        "input": "0xf088d547000000000000000000000000c77f7fed3b5cc8249adc428c5f44c9063b9734b4",
        "nonce": "0x72b",
        "chainId": "0xaa36a7"
      },
      "additionalContracts": [],
      "isFixedGasLimit": false
    }
  ],
  "receipts": [
    {
      "status": "0x1",
      "cumulativeGasUsed": "0x1641b1c",
      "logs": [
        {
          "address": "0x270e88f8683660553e8ba4eb2ad7c91a1710d769",
          "topics": [
            "0xddf252ad1be2c89b69c2b068fc378daa952ba7f163c4a11628f55a4df523b3ef",
            "0x0000000000000000000000000000000000000000000000000000000000000000",
            "0x000000000000000000000000c77f7fed3b5cc8249adc428c5f44c9063b9734b4"
          ],
          "data": "0x000000000000000000000000000000000000000000000028113e4b66c03be443",
          "blockHash": "0x0c05e00bdfd54308df87974e597b06ef9f6508de7bd81a940c66d2902d36c394",
          "blockNumber": "0x72544a",
          "transactionHash": "0xe15c0c780628cb6e138c1f8f5026f489351669568c92d5f91f1661fb64d06b52",
          "transactionIndex": "0x42",
          "logIndex": "0x1f3",
          "removed": false
        },
        {
          "address": "0x270e88f8683660553e8ba4eb2ad7c91a1710d769",
          "topics": [
            "0xddf252ad1be2c89b69c2b068fc378daa952ba7f163c4a11628f55a4df523b3ef",
            "0x0000000000000000000000000000000000000000000000000000000000000000",
            "0x000000000000000000000000c77f7fed3b5cc8249adc428c5f44c9063b9734b4"
          ],
          "data": "0x0000000000000000000000000000000000000000000000001f1d196d603a93b8",
          "blockHash": "0x0c05e00bdfd54308df87974e597b06ef9f6508de7bd81a940c66d2902d36c394",
          "blockNumber": "0x72544a",
          "transactionHash": "0xe15c0c780628cb6e138c1f8f5026f489351669568c92d5f91f1661fb64d06b52",
          "transactionIndex": "0x42",
          "logIndex": "0x1f4",
          "removed": false
        },
        {
          "address": "0x270e88f8683660553e8ba4eb2ad7c91a1710d769",
          "topics": [
            "0x4afcb4a87cdbd9974efdb92ee48bc8d7cd0ae4bf217004db3d080cbaee652ca7"
          ],
          "data": "0x000000000000000000000000000000000000000000000000000000006786e5800000000000000000000000000000000000000000000000000004c25295e019c50000000000000000000000000000000000000000000000000de0b6b3a7640000",
          "blockHash": "0x0c05e00bdfd54308df87974e597b06ef9f6508de7bd81a940c66d2902d36c394",
          "blockNumber": "0x72544a",
          "transactionHash": "0xe15c0c780628cb6e138c1f8f5026f489351669568c92d5f91f1661fb64d06b52",
          "transactionIndex": "0x42",
          "logIndex": "0x1f5",
          "removed": false
        }
      ],
      "logsBloom": "0x00000000000000000000000000000000000000000000000000000000000000000000000000000000000000000000000020000000000000004000000000000000000000000000000000000008000000000000000000000000000000000000000000000000020000000000000000000800020000000000000000000010000000000000000000010000000000000000000000000000000000000000010000000000000000000000000000000000000000004000000000000000000000000000000000000002000000800000000000000000000000000000080000008000000020000000000000000000000000000000000000000000000000000000000000000000",
      "type": "0x2",
      "transactionHash": "0xe15c0c780628cb6e138c1f8f5026f489351669568c92d5f91f1661fb64d06b52",
      "transactionIndex": "0x42",
      "blockHash": "0x0c05e00bdfd54308df87974e597b06ef9f6508de7bd81a940c66d2902d36c394",
      "blockNumber": "0x72544a",
      "gasUsed": "0x13af8",
      "effectiveGasPrice": "0x13dd39a43",
      "from": "0xc77f7fed3b5cc8249adc428c5f44c9063b9734b4",
      "to": "0x270e88f8683660553e8ba4eb2ad7c91a1710d769",
      "contractAddress": null
    }
  ],
  "libraries": [],
  "pending": [],
  "returns": {},
  "timestamp": 1736893825,
  "chain": 11155111,
  "commit": "51a374b"
}