{
  "transactions": [
    {
      "hash": "0xc1fa99f5e8415bc511fe5c2af5da1607feaedc7ccdeccbae3a32ac56fcbb9979",
      "transactionType": "CALL",
      "contractName": null,
      "contractAddress": "0x270e88f8683660553e8ba4eb2ad7c91a1710d769",
      "function": "buy(address)",
      "arguments": [
        "0xC77f7fed3b5Cc8249aDc428c5F44C9063B9734b4"
      ],
      "transaction": {
        "from": "0xc77f7fed3b5cc8249adc428c5f44c9063b9734b4",
        "to": "0x270e88f8683660553e8ba4eb2ad7c91a1710d769",
        "gas": "0x1b30c",
        "value": "0xde0b6b3a7640000",
        "input": "0xf088d547000000000000000000000000c77f7fed3b5cc8249adc428c5f44c9063b9734b4",
        "nonce": "0x79f",
        "chainId": "0xaa36a7"
      },
      "additionalContracts": [],
      "isFixedGasLimit": false
    }
  ],
  "receipts": [
    {
      "status": "0x1",
      "cumulativeGasUsed": "0x17f7f5d",
      "logs": [
        {
          "address": "0x270e88f8683660553e8ba4eb2ad7c91a1710d769",
          "topics": [
            "0xddf252ad1be2c89b69c2b068fc378daa952ba7f163c4a11628f55a4df523b3ef",
            "0x0000000000000000000000000000000000000000000000000000000000000000",
            "0x000000000000000000000000c77f7fed3b5cc8249adc428c5f44c9063b9734b4"
          ],
          "data": "0x00000000000000000000000000000000000000000000002784269b02765f40e8",
          "blockHash": "0xb31499b0f6050b5cde31d10fa8c6a50b38dff4abecfb42ae15384a5277c087a6",
          "blockNumber": "0x7254d2",
          "transactionHash": "0xc1fa99f5e8415bc511fe5c2af5da1607feaedc7ccdeccbae3a32ac56fcbb9979",
          "transactionIndex": "0x6b",
          "logIndex": "0xaf",
          "removed": false
        },
        {
          "address": "0x270e88f8683660553e8ba4eb2ad7c91a1710d769",
          "topics": [
            "0xddf252ad1be2c89b69c2b068fc378daa952ba7f163c4a11628f55a4df523b3ef",
            "0x0000000000000000000000000000000000000000000000000000000000000000",
            "0x000000000000000000000000c77f7fed3b5cc8249adc428c5f44c9063b9734b4"
          ],
          "data": "0x0000000000000000000000000000000000000000000000001eaf8941b5c3e3de",
          "blockHash": "0xb31499b0f6050b5cde31d10fa8c6a50b38dff4abecfb42ae15384a5277c087a6",
          "blockNumber": "0x7254d2",
          "transactionHash": "0xc1fa99f5e8415bc511fe5c2af5da1607feaedc7ccdeccbae3a32ac56fcbb9979",
          "transactionIndex": "0x6b",
          "logIndex": "0xb0",
          "removed": false
        },
        {
          "address": "0x270e88f8683660553e8ba4eb2ad7c91a1710d769",
          "topics": [
            "0x4afcb4a87cdbd9974efdb92ee48bc8d7cd0ae4bf217004db3d080cbaee652ca7"
          ],
          "data": "0x000000000000000000000000000000000000000000000000000000006786ebe00000000000000000000000000000000000000000000000000004d3503bc183d40000000000000000000000000000000000000000000000000de0b6b3a7640000",
          "blockHash": "0xb31499b0f6050b5cde31d10fa8c6a50b38dff4abecfb42ae15384a5277c087a6",
          "blockNumber": "0x7254d2",
          "transactionHash": "0xc1fa99f5e8415bc511fe5c2af5da1607feaedc7ccdeccbae3a32ac56fcbb9979",
          "transactionIndex": "0x6b",
          "logIndex": "0xb1",
          "removed": false
        }
      ],
      "logsBloom": "0x00000000000000000000000000000000000000000000000000000000000000000000000000000000000000000000000020000000000000004000000000000000000000000000000000000008000000000000000000000000000000000000000000000000020000000000000000000800020000000000000000000010000000000000000000010000000000000000000000000000000000000000010000000000000000000000000000000000000000004000000000000000000000000000000000000002000000800000000000000000000000000000080000008000000020000000000000000000000000000000000000000000000000000000000000000000",
      "type": "0x2",
      "transactionHash": "0xc1fa99f5e8415bc511fe5c2af5da1607feaedc7ccdeccbae3a32ac56fcbb9979",
      "transactionIndex": "0x6b",
      "blockHash": "0xb31499b0f6050b5cde31d10fa8c6a50b38dff4abecfb42ae15384a5277c087a6",
      "blockNumber": "0x7254d2",
      "gasUsed": "0x13af8",
      "effectiveGasPrice": "0xddc364ee",
      "from": "0xc77f7fed3b5cc8249adc428c5f44c9063b9734b4",
      "to": "0x270e88f8683660553e8ba4eb2ad7c91a1710d769",
      "contractAddress": null
    }
  ],
  "libraries": [],
  "pending": [],
  "returns": {},
  "timestamp": 1736895457,
  "chain": 11155111,
  "commit": "51a374b"
}