{
  "transactions": [
    {
      "hash": "0x8f8e872ac14d7376999b3c5d6dbca512e4f70e99df97a2d0975bfb04f34f6f70",
      "transactionType": "CALL",
      "contractName": null,
      "contractAddress": "0x8aafd3ede9adb0ff97c7aebce82a919afb1c8764",
      "function": "sell(uint256)",
      "arguments": [
        "749565006833848850295"
      ],
      "transaction": {
        "from": "0xc77f7fed3b5cc8249adc428c5f44c9063b9734b4",
        "to": "0x8aafd3ede9adb0ff97c7aebce82a919afb1c8764",
        "gas": "0x17270",
        "value": "0x0",
        "input": "0xe4849b32000000000000000000000000000000000000000000000028a24dda598ace9777",
        "nonce": "0xe6a",
        "chainId": "0xaa36a7"
      },
      "additionalContracts": [],
      "isFixedGasLimit": false
    }
  ],
  "receipts": [
    {
      "status": "0x1",
      "cumulativeGasUsed": "0xe85fb7",
      "logs": [
        {
          "address": "0x8aafd3ede9adb0ff97c7aebce82a919afb1c8764",
          "topics": [
            "0xddf252ad1be2c89b69c2b068fc378daa952ba7f163c4a11628f55a4df523b3ef",
            "0x000000000000000000000000c77f7fed3b5cc8249adc428c5f44c9063b9734b4",
            "0x0000000000000000000000000000000000000000000000000000000000000000"
          ],
          "data": "0x0000000000000000000000000000000000000000000000284f15ef2187a606e5",
          "blockHash": "0xbeea7c0f1fdd328fe02665dbf4319236154eda1abcfa9eb67fd2098cb92b01d7",
          "blockNumber": "0x7313c0",
          "transactionHash": "0x8f8e872ac14d7376999b3c5d6dbca512e4f70e99df97a2d0975bfb04f34f6f70",
          "transactionIndex": "0x94",
          "logIndex": "0xae",
          "removed": false
        },
        {
          "address": "0x8aafd3ede9adb0ff97c7aebce82a919afb1c8764",
          "topics": [
            "0xddf252ad1be2c89b69c2b068fc378daa952ba7f163c4a11628f55a4df523b3ef",
            "0x000000000000000000000000c77f7fed3b5cc8249adc428c5f44c9063b9734b4",
            "0x000000000000000000000000c77f7fed3b5cc8249adc428c5f44c9063b9734b4"
          ],
          "data": "0x0000000000000000000000000000000000000000000000005337eb3803289092",
          "blockHash": "0xbeea7c0f1fdd328fe02665dbf4319236154eda1abcfa9eb67fd2098cb92b01d7",
          "blockNumber": "0x7313c0",
          "transactionHash": "0x8f8e872ac14d7376999b3c5d6dbca512e4f70e99df97a2d0975bfb04f34f6f70",
          "transactionIndex": "0x94",
          "logIndex": "0xaf",
          "removed": false
        },
        {
          "address": "0x8aafd3ede9adb0ff97c7aebce82a919afb1c8764",
          "topics": [
            "0x4afcb4a87cdbd9974efdb92ee48bc8d7cd0ae4bf217004db3d080cbaee652ca7"
          ],
          "data": "0x00000000000000000000000000000000000000000000000000000000678fe9940000000000000000000000000000000000000000000000000004b5496a1f52570000000000000000000000000000000000000000000000000dc834d8f7487789",
          "blockHash": "0xbeea7c0f1fdd328fe02665dbf4319236154eda1abcfa9eb67fd2098cb92b01d7",
          "blockNumber": "0x7313c0",
          "transactionHash": "0x8f8e872ac14d7376999b3c5d6dbca512e4f70e99df97a2d0975bfb04f34f6f70",
          "transactionIndex": "0x94",
          "logIndex": "0xb0",
          "removed": false
        }
      ],
      "logsBloom": "0x00000000000000000000000000000000000000000600000000000000000000000000000000000000000000000000000000000000000000004000000000000000000000000000004000000008000000000000000000000000000000000000000000000000020000000000000000000800020000000000000000000010000000000000000000000000000000000000000000000000000000000000010000000000000000000000000000000000000000004000000000000000000000000000000000000002000000800000000000000000000000000000080000000000000020000000000000000000000000000000000000000000000000000000000000000000",
      "type": "0x2",
      "transactionHash": "0x8f8e872ac14d7376999b3c5d6dbca512e4f70e99df97a2d0975bfb04f34f6f70",
      "transactionIndex": "0x94",
      "blockHash": "0xbeea7c0f1fdd328fe02665dbf4319236154eda1abcfa9eb67fd2098cb92b01d7",
      "blockNumber": "0x7313c0",
      "gasUsed": "0xfd4b",
      "effectiveGasPrice": "0x720f8184",
      "from": "0xc77f7fed3b5cc8249adc428c5f44c9063b9734b4",
      "to": "0x8aafd3ede9adb0ff97c7aebce82a919afb1c8764",
      "contractAddress": null
    }
  ],
  "libraries": [],
  "pending": [],
  "returns": {},
  "timestamp": 1737484693,
  "chain": 11155111,
  "commit": "51a374b"
}