{
  "transactions": [
    {
      "hash": "0xcb677623bfdb5f0e1102f7ac619c84c3f6773be7a109e12fb53f85eefa1311cb",
      "transactionType": "CALL",
      "contractName": null,
      "contractAddress": "0x8aafd3ede9adb0ff97c7aebce82a919afb1c8764",
      "function": "sell(uint256)",
      "arguments": [
        "2942187395686"
      ],
      "transaction": {
        "from": "0xc77f7fed3b5cc8249adc428c5f44c9063b9734b4",
        "to": "0x8aafd3ede9adb0ff97c7aebce82a919afb1c8764",
        "gas": "0x15daa",
        "value": "0x0",
        "input": "0xe4849b32000000000000000000000000000000000000000000000000000002ad0808da66",
        "nonce": "0x101d",
        "chainId": "0xaa36a7"
      },
      "additionalContracts": [],
      "isFixedGasLimit": false
    }
  ],
  "receipts": [
    {
      "status": "0x1",
      "cumulativeGasUsed": "0xf29c4f",
      "logs": [
        {
          "address": "0x8aafd3ede9adb0ff97c7aebce82a919afb1c8764",
          "topics": [
            "0xddf252ad1be2c89b69c2b068fc378daa952ba7f163c4a11628f55a4df523b3ef",
            "0x000000000000000000000000c77f7fed3b5cc8249adc428c5f44c9063b9734b4",
            "0x0000000000000000000000000000000000000000000000000000000000000000"
          ],
          "data": "0x000000000000000000000000000000000000000000000000000002a78d171e49",
          "blockHash": "0xc783a3a3efa3cb19d2ddebb27750f9c8a1ec75c8dfcece4d0858a9f765969472",
          "blockNumber": "0x731695",
          "transactionHash": "0xcb677623bfdb5f0e1102f7ac619c84c3f6773be7a109e12fb53f85eefa1311cb",
          "transactionIndex": "0x8b",
          "logIndex": "0xdb",
          "removed": false
        },
        {
          "address": "0x8aafd3ede9adb0ff97c7aebce82a919afb1c8764",
          "topics": [
            "0xddf252ad1be2c89b69c2b068fc378daa952ba7f163c4a11628f55a4df523b3ef",
            "0x000000000000000000000000c77f7fed3b5cc8249adc428c5f44c9063b9734b4",
            "0x000000000000000000000000c77f7fed3b5cc8249adc428c5f44c9063b9734b4"
          ],
          "data": "0x000000000000000000000000000000000000000000000000000000057af1bc1d",
          "blockHash": "0xc783a3a3efa3cb19d2ddebb27750f9c8a1ec75c8dfcece4d0858a9f765969472",
          "blockNumber": "0x731695",
          "transactionHash": "0xcb677623bfdb5f0e1102f7ac619c84c3f6773be7a109e12fb53f85eefa1311cb",
          "transactionIndex": "0x8b",
          "logIndex": "0xdc",
          "removed": false
        },
        {
          "address": "0x8aafd3ede9adb0ff97c7aebce82a919afb1c8764",
          "topics": [
            "0x4afcb4a87cdbd9974efdb92ee48bc8d7cd0ae4bf217004db3d080cbaee652ca7"
          ],
          "data": "0x0000000000000000000000000000000000000000000000000000000067900ba80000000000000000000000000000000000000000000000000004eac19642c41800000000000000000000000000000000000000000000000000000000f2b65ce0",
          "blockHash": "0xc783a3a3efa3cb19d2ddebb27750f9c8a1ec75c8dfcece4d0858a9f765969472",
          "blockNumber": "0x731695",
          "transactionHash": "0xcb677623bfdb5f0e1102f7ac619c84c3f6773be7a109e12fb53f85eefa1311cb",
          "transactionIndex": "0x8b",
          "logIndex": "0xdd",
          "removed": false
        }
      ],
      "logsBloom": "0x00000000000000000000000000000000000000000600000000000000000000000000000000000000000000000000000000000000000000004000000000000000000000000000004000000008000000000000000000000000000000000000000000000000020000000000000000000800020000000000000000000010000000000000000000000000000000000000000000000000000000000000010000000000000000000000000000000000000000004000000000000000000000000000000000000002000000800000000000000000000000000000080000000000000020000000000000000000000000000000000000000000000000000000000000000000",
      "type": "0x2",
      "transactionHash": "0xcb677623bfdb5f0e1102f7ac619c84c3f6773be7a109e12fb53f85eefa1311cb",
      "transactionIndex": "0x8b",
      "blockHash": "0xc783a3a3efa3cb19d2ddebb27750f9c8a1ec75c8dfcece4d0858a9f765969472",
      "blockNumber": "0x731695",
      "gasUsed": "0xfd27",
      "effectiveGasPrice": "0x4124bad4",
      "from": "0xc77f7fed3b5cc8249adc428c5f44c9063b9734b4",
      "to": "0x8aafd3ede9adb0ff97c7aebce82a919afb1c8764",
      "contractAddress": null
    }
  ],
  "libraries": [],
  "pending": [],
  "returns": {},
  "timestamp": 1737493418,
  "chain": 11155111,
  "commit": "1d2fb70"
}