{
  "transactions": [
    {
      "hash": "0xd29c8209b857f82dc6004a1318f2b58a7270bfffd9ddb88da65b927fc5d5c0df",
      "transactionType": "CALL",
      "contractName": null,
      "contractAddress": "0x270e88f8683660553e8ba4eb2ad7c91a1710d769",
      "function": "buy(address)",
      "arguments": [
        "0xC77f7fed3b5Cc8249aDc428c5F44C9063B9734b4"
      ],
      "transaction": {
        "from": "0xc77f7fed3b5cc8249adc428c5f44c9063b9734b4",
        "to": "0x270e88f8683660553e8ba4eb2ad7c91a1710d769",
        "gas": "0x1b30c",
        "value": "0xde0b6b3a7640000",
        "input": "0xf088d547000000000000000000000000c77f7fed3b5cc8249adc428c5f44c9063b9734b4",
        "nonce": "0x646",
        "chainId": "0xaa36a7"
      },
      "additionalContracts": [],
      "isFixedGasLimit": false
    }
  ],
  "receipts": [
    {
      "status": "0x1",
      "cumulativeGasUsed": "0x1207fae",
      "logs": [
        {
          "address": "0x270e88f8683660553e8ba4eb2ad7c91a1710d769",
          "topics": [
            "0xddf252ad1be2c89b69c2b068fc378daa952ba7f163c4a11628f55a4df523b3ef",
            "0x0000000000000000000000000000000000000000000000000000000000000000",
            "0x000000000000000000000000c77f7fed3b5cc8249adc428c5f44c9063b9734b4"
          ],
          "data": "0x00000000000000000000000000000000000000000000002c93abbf165d39486b",
          "blockHash": "0x46a700fcf5b5d3a6a3a97b6b80f8890d148a9200b99a44d403b4da9e0390198c",
          "blockNumber": "0x72532f",
          "transactionHash": "0xd29c8209b857f82dc6004a1318f2b58a7270bfffd9ddb88da65b927fc5d5c0df",
          "transactionIndex": "0x4e",
          "logIndex": "0x72",
          "removed": false
        },
        {
          "address": "0x270e88f8683660553e8ba4eb2ad7c91a1710d769",
          "topics": [
            "0xddf252ad1be2c89b69c2b068fc378daa952ba7f163c4a11628f55a4df523b3ef",
            "0x0000000000000000000000000000000000000000000000000000000000000000",
            "0x000000000000000000000000c77f7fed3b5cc8249adc428c5f44c9063b9734b4"
          ],
          "data": "0x000000000000000000000000000000000000000000000000229d8d3bb6a2e382",
          "blockHash": "0x46a700fcf5b5d3a6a3a97b6b80f8890d148a9200b99a44d403b4da9e0390198c",
          "blockNumber": "0x72532f",
          "transactionHash": "0xd29c8209b857f82dc6004a1318f2b58a7270bfffd9ddb88da65b927fc5d5c0df",
          "transactionIndex": "0x4e",
          "logIndex": "0x73",
          "removed": false
        },
        {
          "address": "0x270e88f8683660553e8ba4eb2ad7c91a1710d769",
          "topics": [
            "0x4afcb4a87cdbd9974efdb92ee48bc8d7cd0ae4bf217004db3d080cbaee652ca7"
          ],
          "data": "0x000000000000000000000000000000000000000000000000000000006786d83c000000000000000000000000000000000000000000000000000446fcdd2520300000000000000000000000000000000000000000000000000de0b6b3a7640000",
          "blockHash": "0x46a700fcf5b5d3a6a3a97b6b80f8890d148a9200b99a44d403b4da9e0390198c",
          "blockNumber": "0x72532f",
          "transactionHash": "0xd29c8209b857f82dc6004a1318f2b58a7270bfffd9ddb88da65b927fc5d5c0df",
          "transactionIndex": "0x4e",
          "logIndex": "0x74",
          "removed": false
        }
      ],
      "logsBloom": "0x00000000000000000000000000000000000000000000000000000000000000000000000000000000000000000000000020000000000000004000000000000000000000000000000000000008000000000000000000000000000000000000000000000000020000000000000000000800020000000000000000000010000000000000000000010000000000000000000000000000000000000000010000000000000000000000000000000000000000004000000000000000000000000000000000000002000000800000000000000000000000000000080000008000000020000000000000000000000000000000000000000000000000000000000000000000",
      "type": "0x2",
      "transactionHash": "0xd29c8209b857f82dc6004a1318f2b58a7270bfffd9ddb88da65b927fc5d5c0df",
      "transactionIndex": "0x4e",
      "blockHash": "0x46a700fcf5b5d3a6a3a97b6b80f8890d148a9200b99a44d403b4da9e0390198c",
      "blockNumber": "0x72532f",
      "gasUsed": "0x13af8",
      "effectiveGasPrice": "0x1de3fc8eb",
      "from": "0xc77f7fed3b5cc8249adc428c5f44c9063b9734b4",
      "to": "0x270e88f8683660553e8ba4eb2ad7c91a1710d769",
      "contractAddress": null
    }
  ],
  "libraries": [],
  "pending": [],
  "returns": {},
  "timestamp": 1736890430,
  "chain": 11155111,
  "commit": "51a374b"
}