{
  "transactions": [
    {
      "hash": "0xa91f74e39dab4bdbe9a8468317f3639e387e8af11cd8b21b55d4cba247cd2e7c",
      "transactionType": "CALL",
      "contractName": null,
      "contractAddress": "0x8aafd3ede9adb0ff97c7aebce82a919afb1c8764",
      "function": "buy(address)",
      "arguments": [
        "0xC77f7fed3b5Cc8249aDc428c5F44C9063B9734b4"
      ],
      "transaction": {
        "from": "0xc77f7fed3b5cc8249adc428c5f44c9063b9734b4",
        "to": "0x8aafd3ede9adb0ff97c7aebce82a919afb1c8764",
        "gas": "0x156ea",
        "value": "0xde0b6b3a7640000",
        "input": "0xf088d547000000000000000000000000c77f7fed3b5cc8249adc428c5f44c9063b9734b4",
        "nonce": "0x1194",
        "chainId": "0xaa36a7"
      },
      "additionalContracts": [],
      "isFixedGasLimit": false
    }
  ],
  "receipts": [
    {
      "status": "0x1",
      "cumulativeGasUsed": "0xbba751",
      "logs": [
        {
          "address": "0x8aafd3ede9adb0ff97c7aebce82a919afb1c8764",
          "topics": [
            "0xddf252ad1be2c89b69c2b068fc378daa952ba7f163c4a11628f55a4df523b3ef",
            "0x0000000000000000000000000000000000000000000000000000000000000000",
            "0x000000000000000000000000c77f7fed3b5cc8249adc428c5f44c9063b9734b4"
          ],
          "data": "0x0000000000000000000000000000000000000000000000253072e2e9a8b72af3",
          "blockHash": "0x26f7115c5b0c22f3d13914ea9c67477e162f3ab34f3b31e173426d29a526e1dc",
          "blockNumber": "0x73185b",
          "transactionHash": "0xa91f74e39dab4bdbe9a8468317f3639e387e8af11cd8b21b55d4cba247cd2e7c",
          "transactionIndex": "0x90",
          "logIndex": "0xad",
          "removed": false
        },
        {
          "address": "0x8aafd3ede9adb0ff97c7aebce82a919afb1c8764",
          "topics": [
            "0xddf252ad1be2c89b69c2b068fc378daa952ba7f163c4a11628f55a4df523b3ef",
            "0x0000000000000000000000000000000000000000000000000000000000000000",
            "0x000000000000000000000000c77f7fed3b5cc8249adc428c5f44c9063b9734b4"
          ],
          "data": "0x0000000000000000000000000000000000000000000000001ce0f405e56131fd",
          "blockHash": "0x26f7115c5b0c22f3d13914ea9c67477e162f3ab34f3b31e173426d29a526e1dc",
          "blockNumber": "0x73185b",
          "transactionHash": "0xa91f74e39dab4bdbe9a8468317f3639e387e8af11cd8b21b55d4cba247cd2e7c",
          "transactionIndex": "0x90",
          "logIndex": "0xae",
          "removed": false
        },
        {
          "address": "0x8aafd3ede9adb0ff97c7aebce82a919afb1c8764",
          "topics": [
            "0x4afcb4a87cdbd9974efdb92ee48bc8d7cd0ae4bf217004db3d080cbaee652ca7"
          ],
          "data": "0x0000000000000000000000000000000000000000000000000000000067902114000000000000000000000000000000000000000000000000000520e80e50bc0e0000000000000000000000000000000000000000000000000de0b6b3a7640000",
          "blockHash": "0x26f7115c5b0c22f3d13914ea9c67477e162f3ab34f3b31e173426d29a526e1dc",
          "blockNumber": "0x73185b",
          "transactionHash": "0xa91f74e39dab4bdbe9a8468317f3639e387e8af11cd8b21b55d4cba247cd2e7c",
          "transactionIndex": "0x90",
          "logIndex": "0xaf",
          "removed": false
        }
      ],
      "logsBloom": "0x00000000000000000000000000000000000000000600000000000000000000000000000000000000000000000000000000000000000000004000000000000000000000000000004000000008000000000000000000000000000000000000000000000000020000000000000000000800020000000000000000000010000000000000000000000000000000000000000000000000000000000000010000000000000000000000000000000000000000004000000000000000000000000000000000000002000000800000000000000000000000000000080000000000000020000000000000000000000000000000000000000000000000000000000000000000",
      "type": "0x2",
      "transactionHash": "0xa91f74e39dab4bdbe9a8468317f3639e387e8af11cd8b21b55d4cba247cd2e7c",
      "transactionIndex": "0x90",
      "blockHash": "0x26f7115c5b0c22f3d13914ea9c67477e162f3ab34f3b31e173426d29a526e1dc",
      "blockNumber": "0x73185b",
      "gasUsed": "0xf844",
      "effectiveGasPrice": "0x3293d401",
      "from": "0xc77f7fed3b5cc8249adc428c5f44c9063b9734b4",
      "to": "0x8aafd3ede9adb0ff97c7aebce82a919afb1c8764",
      "contractAddress": null
    }
  ],
  "libraries": [],
  "pending": [],
  "returns": {},
  "timestamp": 1737498901,
  "chain": 11155111,
  "commit": "1d2fb70"
}