{
  "transactions": [
    {
      "hash": "0x68e932d8120d32f4f62c80c5c4c17401bbc8f477eb5c8c710a6e2f4feb9f3bc4",
      "transactionType": "CALL",
      "contractName": null,
      "contractAddress": "0x8aafd3ede9adb0ff97c7aebce82a919afb1c8764",
      "function": "sell(uint256)",
      "arguments": [
        "8501324760"
      ],
      "transaction": {
        "from": "0xc77f7fed3b5cc8249adc428c5f44c9063b9734b4",
        "to": "0x8aafd3ede9adb0ff97c7aebce82a919afb1c8764",
        "gas": "0x1722a",
        "value": "0x0",
        "input": "0xe4849b3200000000000000000000000000000000000000000000000000000001fab7ebd8",
        "nonce": "0x13db",
        "chainId": "0xaa36a7"
      },
      "additionalContracts": [],
      "isFixedGasLimit": false
    }
  ],
  "receipts": [
    {
      "status": "0x1",
      "cumulativeGasUsed": "0x102db61",
      "logs": [
        {
          "address": "0x8aafd3ede9adb0ff97c7aebce82a919afb1c8764",
          "topics": [
            "0xddf252ad1be2c89b69c2b068fc378daa952ba7f163c4a11628f55a4df523b3ef",
            "0x000000000000000000000000c77f7fed3b5cc8249adc428c5f44c9063b9734b4",
            "0x0000000000000000000000000000000000000000000000000000000000000000"
          ],
          "data": "0x00000000000000000000000000000000000000000000000000000001f6aa2972",
          "blockHash": "0xd7a40209d077837154b8baf7ea73cffb022c93508b9e5d7b8be3b87706e8dd47",
          "blockNumber": "0x731b08",
          "transactionHash": "0x68e932d8120d32f4f62c80c5c4c17401bbc8f477eb5c8c710a6e2f4feb9f3bc4",
          "transactionIndex": "0x82",
          "logIndex": "0x80",
          "removed": false
        },
        {
          "address": "0x8aafd3ede9adb0ff97c7aebce82a919afb1c8764",
          "topics": [
            "0xddf252ad1be2c89b69c2b068fc378daa952ba7f163c4a11628f55a4df523b3ef",
            "0x000000000000000000000000c77f7fed3b5cc8249adc428c5f44c9063b9734b4",
            "0x000000000000000000000000c77f7fed3b5cc8249adc428c5f44c9063b9734b4"
          ],
          "data": "0x00000000000000000000000000000000000000000000000000000000040dc266",
          "blockHash": "0xd7a40209d077837154b8baf7ea73cffb022c93508b9e5d7b8be3b87706e8dd47",
          "blockNumber": "0x731b08",
          "transactionHash": "0x68e932d8120d32f4f62c80c5c4c17401bbc8f477eb5c8c710a6e2f4feb9f3bc4",
          "transactionIndex": "0x82",
          "logIndex": "0x81",
          "removed": false
        },
        {
          "address": "0x8aafd3ede9adb0ff97c7aebce82a919afb1c8764",
          "topics": [
            "0x4afcb4a87cdbd9974efdb92ee48bc8d7cd0ae4bf217004db3d080cbaee652ca7"
          ],
          "data": "0x0000000000000000000000000000000000000000000000000000000067904130000000000000000000000000000000000000000000000000000db34b6fe92eab0000000000000000000000000000000000000000000000000000000001f43d8a",
          "blockHash": "0xd7a40209d077837154b8baf7ea73cffb022c93508b9e5d7b8be3b87706e8dd47",
          "blockNumber": "0x731b08",
          "transactionHash": "0x68e932d8120d32f4f62c80c5c4c17401bbc8f477eb5c8c710a6e2f4feb9f3bc4",
          "transactionIndex": "0x82",
          "logIndex": "0x82",
          "removed": false
        }
      ],
      "logsBloom": "0x00000000000000000000000000000000000000000600000000000000000000000000000000000000000000000000000000000000000000004000000000000000000000000000004000000008000000000000000000000000000000000000000000000000020000000000000000000800020000000000000000000010000000000000000000000000000000000000000000000000000000000000010000000000000000000000000000000000000000004000000000000000000000000000000000000002000000800000000000000000000000000000080000000000000020000000000000000000000000000000000000000000000000000000000000000000",
      "type": "0x2",
      "transactionHash": "0x68e932d8120d32f4f62c80c5c4c17401bbc8f477eb5c8c710a6e2f4feb9f3bc4",
      "transactionIndex": "0x82",
      "blockHash": "0xd7a40209d077837154b8baf7ea73cffb022c93508b9e5d7b8be3b87706e8dd47",
      "blockNumber": "0x731b08",
      "gasUsed": "0xfd1b",
      "effectiveGasPrice": "0x8d0a241e",
      "from": "0xc77f7fed3b5cc8249adc428c5f44c9063b9734b4",
      "to": "0x8aafd3ede9adb0ff97c7aebce82a919afb1c8764",
      "contractAddress": null
    }
  ],
  "libraries": [],
  "pending": [],
  "returns": {},
  "timestamp": 1737507123,
  "chain": 11155111,
  "commit": "1d2fb70"
}