{
  "transactions": [
    {
      "hash": "0xb3db6b8c3d6da81bae6c543c9a3e38d1fc1f67a3419ad4fa657fdbfe596e2fa5",
      "transactionType": "CALL",
      "contractName": null,
      "contractAddress": "0x8aafd3ede9adb0ff97c7aebce82a919afb1c8764",
      "function": "sell(uint256)",
      "arguments": [
        "47448552282882565"
      ],
      "transaction": {
        "from": "0xc77f7fed3b5cc8249adc428c5f44c9063b9734b4",
        "to": "0x8aafd3ede9adb0ff97c7aebce82a919afb1c8764",
        "gas": "0x1724d",
        "value": "0x0",
        "input": "0xe4849b3200000000000000000000000000000000000000000000000000a89234f7ed8205",
        "nonce": "0xf87",
        "chainId": "0xaa36a7"
      },
      "additionalContracts": [],
      "isFixedGasLimit": false
    }
  ],
  "receipts": [
    {
      "status": "0x1",
      "cumulativeGasUsed": "0xbc5f06",
      "logs": [
        {
          "address": "0x8aafd3ede9adb0ff97c7aebce82a919afb1c8764",
          "topics": [
            "0xddf252ad1be2c89b69c2b068fc378daa952ba7f163c4a11628f55a4df523b3ef",
            "0x000000000000000000000000c77f7fed3b5cc8249adc428c5f44c9063b9734b4",
            "0x0000000000000000000000000000000000000000000000000000000000000000"
          ],
          "data": "0x00000000000000000000000000000000000000000000000000a738f92718a9f1",
          "blockHash": "0x5e27f21f1b9caa4d9e323007a42352247ed1a41fbcb8b94603deff045686928b",
          "blockNumber": "0x7315ec",
          "transactionHash": "0xb3db6b8c3d6da81bae6c543c9a3e38d1fc1f67a3419ad4fa657fdbfe596e2fa5",
          "transactionIndex": "0x8b",
          "logIndex": "0xa8",
          "removed": false
        },
        {
          "address": "0x8aafd3ede9adb0ff97c7aebce82a919afb1c8764",
          "topics": [
            "0xddf252ad1be2c89b69c2b068fc378daa952ba7f163c4a11628f55a4df523b3ef",
            "0x000000000000000000000000c77f7fed3b5cc8249adc428c5f44c9063b9734b4",
            "0x000000000000000000000000c77f7fed3b5cc8249adc428c5f44c9063b9734b4"
          ],
          "data": "0x0000000000000000000000000000000000000000000000000001593bd0d4d814",
          "blockHash": "0x5e27f21f1b9caa4d9e323007a42352247ed1a41fbcb8b94603deff045686928b",
          "blockNumber": "0x7315ec",
          "transactionHash": "0xb3db6b8c3d6da81bae6c543c9a3e38d1fc1f67a3419ad4fa657fdbfe596e2fa5",
          "transactionIndex": "0x8b",
          "logIndex": "0xa9",
          "removed": false
        },
        {
          "address": "0x8aafd3ede9adb0ff97c7aebce82a919afb1c8764",
          "topics": [
            "0x4afcb4a87cdbd9974efdb92ee48bc8d7cd0ae4bf217004db3d080cbaee652ca7"
          ],
          "data": "0x00000000000000000000000000000000000000000000000000000000679003bc0000000000000000000000000000000000000000000000000004c27f5a9fb771000000000000000000000000000000000000000000000000000039d0e17a5bea",
          "blockHash": "0x5e27f21f1b9caa4d9e323007a42352247ed1a41fbcb8b94603deff045686928b",
          "blockNumber": "0x7315ec",
          "transactionHash": "0xb3db6b8c3d6da81bae6c543c9a3e38d1fc1f67a3419ad4fa657fdbfe596e2fa5",
          "transactionIndex": "0x8b",
          "logIndex": "0xaa",
          "removed": false
        }
      ],
      "logsBloom": "0x00000000000000000000000000000000000000000600000000000000000000000000000000000000000000000000000000000000000000004000000000000000000000000000004000000008000000000000000000000000000000000000000000000000020000000000000000000800020000000000000000000010000000000000000000000000000000000000000000000000000000000000010000000000000000000000000000000000000000004000000000000000000000000000000000000002000000800000000000000000000000000000080000000000000020000000000000000000000000000000000000000000000000000000000000000000",
      "type": "0x2",
      "transactionHash": "0xb3db6b8c3d6da81bae6c543c9a3e38d1fc1f67a3419ad4fa657fdbfe596e2fa5",
      "transactionIndex": "0x8b",
      "blockHash": "0x5e27f21f1b9caa4d9e323007a42352247ed1a41fbcb8b94603deff045686928b",
      "blockNumber": "0x7315ec",
      "gasUsed": "0xfd33",
      "effectiveGasPrice": "0x61cdf146",
      "from": "0xc77f7fed3b5cc8249adc428c5f44c9063b9734b4",
      "to": "0x8aafd3ede9adb0ff97c7aebce82a919afb1c8764",
      "contractAddress": null
    }
  ],
  "libraries": [],
  "pending": [],
  "returns": {},
  "timestamp": 1737491390,
  "chain": 11155111,
  "commit": "1d2fb70"
}