{
  "transactions": [
    {
      "hash": "0x9c06be9c470e587aedfec1b79babae374211491eeda6bccc295e99e379d6984c",
      "transactionType": "CALL",
      "contractName": null,
      "contractAddress": "0x8aafd3ede9adb0ff97c7aebce82a919afb1c8764",
      "function": "sell(uint256)",
      "arguments": [
        "1558570"
      ],
      "transaction": {
        "from": "0xc77f7fed3b5cc8249adc428c5f44c9063b9734b4",
        "to": "0x8aafd3ede9adb0ff97c7aebce82a919afb1c8764",
        "gas": "0x16208",
        "value": "0x0",
        "input": "0xe4849b32000000000000000000000000000000000000000000000000000000000017c82a",
        "nonce": "0xf32",
        "chainId": "0xaa36a7"
      },
      "additionalContracts": [],
      "isFixedGasLimit": false
    }
  ],
  "receipts": [
    {
      "status": "0x1",
      "cumulativeGasUsed": "0xeff991",
      "logs": [
        {
          "address": "0x8aafd3ede9adb0ff97c7aebce82a919afb1c8764",
          "topics": [
            "0xddf252ad1be2c89b69c2b068fc378daa952ba7f163c4a11628f55a4df523b3ef",
            "0x000000000000000000000000c77f7fed3b5cc8249adc428c5f44c9063b9734b4",
            "0x0000000000000000000000000000000000000000000000000000000000000000"
          ],
          "data": "0x0000000000000000000000000000000000000000000000000000000000179776",
          "blockHash": "0x7971765f0dd28f2fc83164f6cd8991b716591691dbbc686b140818c2352e84a4",
          "blockNumber": "0x731589",
          "transactionHash": "0x9c06be9c470e587aedfec1b79babae374211491eeda6bccc295e99e379d6984c",
          "transactionIndex": "0x7c",
          "logIndex": "0xb9",
          "removed": false
        },
        {
          "address": "0x8aafd3ede9adb0ff97c7aebce82a919afb1c8764",
          "topics": [
            "0xddf252ad1be2c89b69c2b068fc378daa952ba7f163c4a11628f55a4df523b3ef",
            "0x000000000000000000000000c77f7fed3b5cc8249adc428c5f44c9063b9734b4",
            "0x000000000000000000000000c77f7fed3b5cc8249adc428c5f44c9063b9734b4"
          ],
          "data": "0x00000000000000000000000000000000000000000000000000000000000030b4",
          "blockHash": "0x7971765f0dd28f2fc83164f6cd8991b716591691dbbc686b140818c2352e84a4",
          "blockNumber": "0x731589",
          "transactionHash": "0x9c06be9c470e587aedfec1b79babae374211491eeda6bccc295e99e379d6984c",
          "transactionIndex": "0x7c",
          "logIndex": "0xba",
          "removed": false
        },
        {
          "address": "0x8aafd3ede9adb0ff97c7aebce82a919afb1c8764",
          "topics": [
            "0x4afcb4a87cdbd9974efdb92ee48bc8d7cd0ae4bf217004db3d080cbaee652ca7"
          ],
          "data": "0x00000000000000000000000000000000000000000000000000000000678fff180000000000000000000000000000000000000000000000000004bf8bd68431c00000000000000000000000000000000000000000000000000000000000000823",
          "blockHash": "0x7971765f0dd28f2fc83164f6cd8991b716591691dbbc686b140818c2352e84a4",
          "blockNumber": "0x731589",
          "transactionHash": "0x9c06be9c470e587aedfec1b79babae374211491eeda6bccc295e99e379d6984c",
          "transactionIndex": "0x7c",
          "logIndex": "0xbb",
          "removed": false
        }
      ],
      "logsBloom": "0x00000000000000000000000000000000000000000600000000000000000000000000000000000000000000000000000000000000000000004000000000000000000000000000004000000008000000000000000000000000000000000000000000000000020000000000000000000800020000000000000000000010000000000000000000000000000000000000000000000000000000000000010000000000000000000000000000000000000000004000000000000000000000000000000000000002000000800000000000000000000000000000080000000000000020000000000000000000000000000000000000000000000000000000000000000000",
      "type": "0x2",
      "transactionHash": "0x9c06be9c470e587aedfec1b79babae374211491eeda6bccc295e99e379d6984c",
      "transactionIndex": "0x7c",
      "blockHash": "0x7971765f0dd28f2fc83164f6cd8991b716591691dbbc686b140818c2352e84a4",
      "blockNumber": "0x731589",
      "gasUsed": "0xf213",
      "effectiveGasPrice": "0x601db7cb",
      "from": "0xc77f7fed3b5cc8249adc428c5f44c9063b9734b4",
      "to": "0x8aafd3ede9adb0ff97c7aebce82a919afb1c8764",
      "contractAddress": null
    }
  ],
  "libraries": [],
  "pending": [],
  "returns": {},
  "timestamp": 1737490202,
  "chain": 11155111,
  "commit": "1d2fb70"
}