{
  "transactions": [
    {
      "hash": "0x65859485bcd750c0ce323f09e7828409870de94adcaa31d4d437483748599f95",
      "transactionType": "CALL",
      "contractName": null,
      "contractAddress": "0x5eb9cc76c3506942c1c0ead70e877dd5e4f00cb0",
      "function": "buy(address)",
      "arguments": [
        "0xC77f7fed3b5Cc8249aDc428c5F44C9063B9734b4"
      ],
      "transaction": {
        "from": "0xc77f7fed3b5cc8249adc428c5f44c9063b9734b4",
        "to": "0x5eb9cc76c3506942c1c0ead70e877dd5e4f00cb0",
        "gas": "0x1b30c",
        "value": "0xde0b6b3a7640000",
        "input": "0xf088d547000000000000000000000000c77f7fed3b5cc8249adc428c5f44c9063b9734b4",
        "nonce": "0x3a8",
        "chainId": "0xaa36a7"
      },
      "additionalContracts": [],
      "isFixedGasLimit": false
    }
  ],
  "receipts": [
    {
      "status": "0x1",
      "cumulativeGasUsed": "0x100e4c3",
      "logs": [
        {
          "address": "0x5eb9cc76c3506942c1c0ead70e877dd5e4f00cb0",
          "topics": [
            "0xddf252ad1be2c89b69c2b068fc378daa952ba7f163c4a11628f55a4df523b3ef",
            "0x0000000000000000000000000000000000000000000000000000000000000000",
            "0x000000000000000000000000c77f7fed3b5cc8249adc428c5f44c9063b9734b4"
          ],
          "data": "0x0000000000000000000000000000000000000000000000357533e3f61ed0da62",
          "blockHash": "0x896d1cd4dbe2f1ec23c4ebe2e0874cd0d0962785e79f7121007bbd05a534be9d",
          "blockNumber": "0x724fa6",
          "transactionHash": "0x65859485bcd750c0ce323f09e7828409870de94adcaa31d4d437483748599f95",
          "transactionIndex": "0xac",
          "logIndex": "0x102",
          "removed": false
        },
        {
          "address": "0x5eb9cc76c3506942c1c0ead70e877dd5e4f00cb0",
          "topics": [
            "0xddf252ad1be2c89b69c2b068fc378daa952ba7f163c4a11628f55a4df523b3ef",
            "0x0000000000000000000000000000000000000000000000000000000000000000",
            "0x000000000000000000000000c77f7fed3b5cc8249adc428c5f44c9063b9734b4"
          ],
          "data": "0x000000000000000000000000000000000000000000000000298306d57866e335",
          "blockHash": "0x896d1cd4dbe2f1ec23c4ebe2e0874cd0d0962785e79f7121007bbd05a534be9d",
          "blockNumber": "0x724fa6",
          "transactionHash": "0x65859485bcd750c0ce323f09e7828409870de94adcaa31d4d437483748599f95",
          "transactionIndex": "0xac",
          "logIndex": "0x103",
          "removed": false
        },
        {
          "address": "0x5eb9cc76c3506942c1c0ead70e877dd5e4f00cb0",
          "topics": [
            "0x4afcb4a87cdbd9974efdb92ee48bc8d7cd0ae4bf217004db3d080cbaee652ca7"
          ],
          "data": "0x000000000000000000000000000000000000000000000000000000006786ad88000000000000000000000000000000000000000000000000000391121c30e5250000000000000000000000000000000000000000000000000de0b6b3a7640000",
          "blockHash": "0x896d1cd4dbe2f1ec23c4ebe2e0874cd0d0962785e79f7121007bbd05a534be9d",
          "blockNumber": "0x724fa6",
          "transactionHash": "0x65859485bcd750c0ce323f09e7828409870de94adcaa31d4d437483748599f95",
          "transactionIndex": "0xac",
          "logIndex": "0x104",
          "removed": false
        }
      ],
      "logsBloom": "0x00000000000000000000000000000000000000000000000000000000000000000000000000000000000000000000000000000000000000004000000000000000000000000000000000000008000000000000000000000000000000000000000000000000020000000000000004000800020000000000000000000010000000000000000000000000000000000000000000000000000000000000010000000000000000000000000000000000000000004000000000000000000000000000020000000002000000800000008000000000000000000000080000000000000020000000000000000000000000000000000000000000000000000000000000000000",
      "type": "0x2",
      "transactionHash": "0x65859485bcd750c0ce323f09e7828409870de94adcaa31d4d437483748599f95",
      "transactionIndex": "0xac",
      "blockHash": "0x896d1cd4dbe2f1ec23c4ebe2e0874cd0d0962785e79f7121007bbd05a534be9d",
      "blockNumber": "0x724fa6",
      "gasUsed": "0x13af8",
      "effectiveGasPrice": "0x4b35cfe68",
      "from": "0xc77f7fed3b5cc8249adc428c5f44c9063b9734b4",
      "to": "0x5eb9cc76c3506942c1c0ead70e877dd5e4f00cb0",
      "contractAddress": null
    }
  ],
  "libraries": [],
  "pending": [],
  "returns": {},
  "timestamp": 1736879497,
  "chain": 11155111,
  "commit": "51a374b"
}