{
  "transactions": [
    {
      "hash": "0x0d25a61841546c0c6393533cc1cf2da510bcfc45749ffe195208a5a0e162b1ad",
      "transactionType": "CALL",
      "contractName": null,
      "contractAddress": "0xd7bc75898e513accccf720a874d44dab5a4b6223",
      "function": "buy(address)",
      "arguments": [
        "0xC77f7fed3b5Cc8249aDc428c5F44C9063B9734b4"
      ],
      "transaction": {
        "from": "0xc77f7fed3b5cc8249adc428c5f44c9063b9734b4",
        "to": "0xd7bc75898e513accccf720a874d44dab5a4b6223",
        "gas": "0x1b30c",
        "value": "0x2386f26fc10000",
        "input": "0xf088d547000000000000000000000000c77f7fed3b5cc8249adc428c5f44c9063b9734b4",
        "nonce": "0xbc",
        "chainId": "0xaa36a7"
      },
      "additionalContracts": [],
      "isFixedGasLimit": false
    }
  ],
  "receipts": [
    {
      "status": "0x1",
      "cumulativeGasUsed": "0x2153ed7",
      "logs": [
        {
          "address": "0xd7bc75898e513accccf720a874d44dab5a4b6223",
          "topics": [
            "0xddf252ad1be2c89b69c2b068fc378daa952ba7f163c4a11628f55a4df523b3ef",
            "0x0000000000000000000000000000000000000000000000000000000000000000",
            "0x000000000000000000000000c77f7fed3b5cc8249adc428c5f44c9063b9734b4"
          ],
          "data": "0x0000000000000000000000000000000000000000000000008963bb724014bbda",
          "blockHash": "0x513defaaf49f3826b8d7f22094632cb9c16dbffc0ee0b67826645452e2087dcc",
          "blockNumber": "0x723937",
          "transactionHash": "0x0d25a61841546c0c6393533cc1cf2da510bcfc45749ffe195208a5a0e162b1ad",
          "transactionIndex": "0x4d",
          "logIndex": "0x2f5",
          "removed": false
        },
        {
          "address": "0xd7bc75898e513accccf720a874d44dab5a4b6223",
          "topics": [
            "0xddf252ad1be2c89b69c2b068fc378daa952ba7f163c4a11628f55a4df523b3ef",
            "0x0000000000000000000000000000000000000000000000000000000000000000",
            "0x000000000000000000000000c77f7fed3b5cc8249adc428c5f44c9063b9734b4"
          ],
          "data": "0x000000000000000000000000000000000000000000000000006ab00cbd738697",
          "blockHash": "0x513defaaf49f3826b8d7f22094632cb9c16dbffc0ee0b67826645452e2087dcc",
          "blockNumber": "0x723937",
          "transactionHash": "0x0d25a61841546c0c6393533cc1cf2da510bcfc45749ffe195208a5a0e162b1ad",
          "transactionIndex": "0x4d",
          "logIndex": "0x2f6",
          "removed": false
        },
        {
          "address": "0xd7bc75898e513accccf720a874d44dab5a4b6223",
          "topics": [
            "0x4afcb4a87cdbd9974efdb92ee48bc8d7cd0ae4bf217004db3d080cbaee652ca7"
          ],
          "data": "0x0000000000000000000000000000000000000000000000000000000067859fdc00000000000000000000000000000000000000000000000000038d7f8696d565000000000000000000000000000000000000000000000000002386f26fc10000",
          "blockHash": "0x513defaaf49f3826b8d7f22094632cb9c16dbffc0ee0b67826645452e2087dcc",
          "blockNumber": "0x723937",
          "transactionHash": "0x0d25a61841546c0c6393533cc1cf2da510bcfc45749ffe195208a5a0e162b1ad",
          "transactionIndex": "0x4d",
          "logIndex": "0x2f7",
          "removed": false
        }
      ],
      "logsBloom": "0x00000000000000000000000000000000000000000000000000000000000000000000000000000000000000000000000000000000000000004000000000000000000000000000000000000008000000000000000000000000000000000000000000000000020000000000000000000800020000000000000000000010000000000000000000000000000000000000000000000000000000000000010000000000000000000000000000000000000000004000001000000000000000000000000000000002000000800000000000004000000000000000080000000000000020000000000000000000000000000000000000000000080000000000000000000000",
      "type": "0x2",
      "transactionHash": "0x0d25a61841546c0c6393533cc1cf2da510bcfc45749ffe195208a5a0e162b1ad",
      "transactionIndex": "0x4d",
      "blockHash": "0x513defaaf49f3826b8d7f22094632cb9c16dbffc0ee0b67826645452e2087dcc",
      "blockNumber": "0x723937",
      "gasUsed": "0x13af8",
      "effectiveGasPrice": "0x19a3b2c5",
      "from": "0xc77f7fed3b5cc8249adc428c5f44c9063b9734b4",
      "to": "0xd7bc75898e513accccf720a874d44dab5a4b6223",
      "contractAddress": null
    }
  ],
  "libraries": [],
  "pending": [],
  "returns": {},
  "timestamp": 1736810462,
  "chain": 11155111,
  "commit": "51a374b"
}