{
  "transactions": [
    {
      "hash": "0x9e6948ee8e4093d8c253fbc18382d9fdda6254106650a8750ff6a6fff0a5abd0",
      "transactionType": "CALL",
      "contractName": null,
      "contractAddress": "0x8aafd3ede9adb0ff97c7aebce82a919afb1c8764",
      "function": "sell(uint256)",
      "arguments": [
        "16118309463545819"
      ],
      "transaction": {
        "from": "0xc77f7fed3b5cc8249adc428c5f44c9063b9734b4",
        "to": "0x8aafd3ede9adb0ff97c7aebce82a919afb1c8764",
        "gas": "0x1724d",
        "value": "0x0",
        "input": "0xe4849b32000000000000000000000000000000000000000000000000003943845df457db",
        "nonce": "0x13fc",
        "chainId": "0xaa36a7"
      },
      "additionalContracts": [],
      "isFixedGasLimit": false
    }
  ],
  "receipts": [
    {
      "status": "0x1",
      "cumulativeGasUsed": "0x1ae28bf",
      "logs": [
        {
          "address": "0x8aafd3ede9adb0ff97c7aebce82a919afb1c8764",
          "topics": [
            "0xddf252ad1be2c89b69c2b068fc378daa952ba7f163c4a11628f55a4df523b3ef",
            "0x000000000000000000000000c77f7fed3b5cc8249adc428c5f44c9063b9734b4",
            "0x0000000000000000000000000000000000000000000000000000000000000000"
          ],
          "data": "0x0000000000000000000000000000000000000000000000000038ce3dad13280d",
          "blockHash": "0x4675e217d8d00dde6129ce96c35809b600d51b3c35de951db44bfe0e7d6a4576",
          "blockNumber": "0x731b31",
          "transactionHash": "0x9e6948ee8e4093d8c253fbc18382d9fdda6254106650a8750ff6a6fff0a5abd0",
          "transactionIndex": "0xdb",
          "logIndex": "0x171",
          "removed": false
        },
        {
          "address": "0x8aafd3ede9adb0ff97c7aebce82a919afb1c8764",
          "topics": [
            "0xddf252ad1be2c89b69c2b068fc378daa952ba7f163c4a11628f55a4df523b3ef",
            "0x000000000000000000000000c77f7fed3b5cc8249adc428c5f44c9063b9734b4",
            "0x000000000000000000000000c77f7fed3b5cc8249adc428c5f44c9063b9734b4"
          ],
          "data": "0x00000000000000000000000000000000000000000000000000007546b0e12fce",
          "blockHash": "0x4675e217d8d00dde6129ce96c35809b600d51b3c35de951db44bfe0e7d6a4576",
          "blockNumber": "0x731b31",
          "transactionHash": "0x9e6948ee8e4093d8c253fbc18382d9fdda6254106650a8750ff6a6fff0a5abd0",
          "transactionIndex": "0xdb",
          "logIndex": "0x172",
          "removed": false
        },
        {
          "address": "0x8aafd3ede9adb0ff97c7aebce82a919afb1c8764",
          "topics": [
            "0x4afcb4a87cdbd9974efdb92ee48bc8d7cd0ae4bf217004db3d080cbaee652ca7"
          ],
          "data": "0x000000000000000000000000000000000000000000000000000000006790431c000000000000000000000000000000000000000000000000000e1c44b88c8cef00000000000000000000000000000000000000000000000000003a3940774007",
          "blockHash": "0x4675e217d8d00dde6129ce96c35809b600d51b3c35de951db44bfe0e7d6a4576",
          "blockNumber": "0x731b31",
          "transactionHash": "0x9e6948ee8e4093d8c253fbc18382d9fdda6254106650a8750ff6a6fff0a5abd0",
          "transactionIndex": "0xdb",
          "logIndex": "0x173",
          "removed": false
        }
      ],
      "logsBloom": "0x00000000000000000000000000000000000000000600000000000000000000000000000000000000000000000000000000000000000000004000000000000000000000000000004000000008000000000000000000000000000000000000000000000000020000000000000000000800020000000000000000000010000000000000000000000000000000000000000000000000000000000000010000000000000000000000000000000000000000004000000000000000000000000000000000000002000000800000000000000000000000000000080000000000000020000000000000000000000000000000000000000000000000000000000000000000",
      "type": "0x2",
      "transactionHash": "0x9e6948ee8e4093d8c253fbc18382d9fdda6254106650a8750ff6a6fff0a5abd0",
      "transactionIndex": "0xdb",
      "blockHash": "0x4675e217d8d00dde6129ce96c35809b600d51b3c35de951db44bfe0e7d6a4576",
      "blockNumber": "0x731b31",
      "gasUsed": "0xfd33",
      "effectiveGasPrice": "0xa7d9d31c",
      "from": "0xc77f7fed3b5cc8249adc428c5f44c9063b9734b4",
      "to": "0x8aafd3ede9adb0ff97c7aebce82a919afb1c8764",
      "contractAddress": null
    }
  ],
  "libraries": [],
  "pending": [],
  "returns": {},
  "timestamp": 1737507614,
  "chain": 11155111,
  "commit": "1d2fb70"
}