{
  "transactions": [
    {
      "hash": "0xb40ec34e5c9bee2dd77acde5116b07fa3de1a7d5a21430e522475be5db91374b",
      "transactionType": "CALL",
      "contractName": null,
      "contractAddress": "0x8aafd3ede9adb0ff97c7aebce82a919afb1c8764",
      "function": "sell(uint256)",
      "arguments": [
        "297706"
      ],
      "transaction": {
        "from": "0xc77f7fed3b5cc8249adc428c5f44c9063b9734b4",
        "to": "0x8aafd3ede9adb0ff97c7aebce82a919afb1c8764",
        "gas": "0x16208",
        "value": "0x0",
        "input": "0xe4849b320000000000000000000000000000000000000000000000000000000000048aea",
        "nonce": "0x17a9",
        "chainId": "0xaa36a7"
      },
      "additionalContracts": [],
      "isFixedGasLimit": false
    }
  ],
  "receipts": [
    {
      "status": "0x1",
      "cumulativeGasUsed": "0xb8c42c",
      "logs": [
        {
          "address": "0x8aafd3ede9adb0ff97c7aebce82a919afb1c8764",
          "topics": [
            "0xddf252ad1be2c89b69c2b068fc378daa952ba7f163c4a11628f55a4df523b3ef",
            "0x000000000000000000000000c77f7fed3b5cc8249adc428c5f44c9063b9734b4",
            "0x0000000000000000000000000000000000000000000000000000000000000000"
          ],
          "data": "0x000000000000000000000000000000000000000000000000000000000004819d",
          "blockHash": "0xce8ff4370a36048267c22951562b73ba95d5cf12ea0365fab71796497db58494",
          "blockNumber": "0x731f89",
          "transactionHash": "0xb40ec34e5c9bee2dd77acde5116b07fa3de1a7d5a21430e522475be5db91374b",
          "transactionIndex": "0x84",
          "logIndex": "0x106",
          "removed": false
        },
        {
          "address": "0x8aafd3ede9adb0ff97c7aebce82a919afb1c8764",
          "topics": [
            "0xddf252ad1be2c89b69c2b068fc378daa952ba7f163c4a11628f55a4df523b3ef",
            "0x000000000000000000000000c77f7fed3b5cc8249adc428c5f44c9063b9734b4",
            "0x000000000000000000000000c77f7fed3b5cc8249adc428c5f44c9063b9734b4"
          ],
          "data": "0x000000000000000000000000000000000000000000000000000000000000094d",
          "blockHash": "0xce8ff4370a36048267c22951562b73ba95d5cf12ea0365fab71796497db58494",
          "blockNumber": "0x731f89",
          "transactionHash": "0xb40ec34e5c9bee2dd77acde5116b07fa3de1a7d5a21430e522475be5db91374b",
          "transactionIndex": "0x84",
          "logIndex": "0x107",
          "removed": false
        },
        {
          "address": "0x8aafd3ede9adb0ff97c7aebce82a919afb1c8764",
          "topics": [
            "0x4afcb4a87cdbd9974efdb92ee48bc8d7cd0ae4bf217004db3d080cbaee652ca7"
          ],
          "data": "0x00000000000000000000000000000000000000000000000000000000679077540000000000000000000000000000000000000000000000000018f5008960e117000000000000000000000000000000000000000000000000000000000000082b",
          "blockHash": "0xce8ff4370a36048267c22951562b73ba95d5cf12ea0365fab71796497db58494",
          "blockNumber": "0x731f89",
          "transactionHash": "0xb40ec34e5c9bee2dd77acde5116b07fa3de1a7d5a21430e522475be5db91374b",
          "transactionIndex": "0x84",
          "logIndex": "0x108",
          "removed": false
        }
      ],
      "logsBloom": "0x00000000000000000000000000000000000000000600000000000000000000000000000000000000000000000000000000000000000000004000000000000000000000000000004000000008000000000000000000000000000000000000000000000000020000000000000000000800020000000000000000000010000000000000000000000000000000000000000000000000000000000000010000000000000000000000000000000000000000004000000000000000000000000000000000000002000000800000000000000000000000000000080000000000000020000000000000000000000000000000000000000000000000000000000000000000",
      "type": "0x2",
      "transactionHash": "0xb40ec34e5c9bee2dd77acde5116b07fa3de1a7d5a21430e522475be5db91374b",
      "transactionIndex": "0x84",
      "blockHash": "0xce8ff4370a36048267c22951562b73ba95d5cf12ea0365fab71796497db58494",
      "blockNumber": "0x731f89",
      "gasUsed": "0xf213",
      "effectiveGasPrice": "0x39e1e8bc",
      "from": "0xc77f7fed3b5cc8249adc428c5f44c9063b9734b4",
      "to": "0x8aafd3ede9adb0ff97c7aebce82a919afb1c8764",
      "contractAddress": null
    }
  ],
  "libraries": [],
  "pending": [],
  "returns": {},
  "timestamp": 1737520981,
  "chain": 11155111,
  "commit": "1d2fb70"
}