{
  "transactions": [
    {
      "hash": "0xb118987d459c6c231c6b5e745ca14100f7301f0046dd3221c562d021a10dce30",
      "transactionType": "CALL",
      "contractName": null,
      "contractAddress": "0xbf4a322f1496e5c3d34a9bcdb4c60567b38c7de2",
      "function": "buy(address)",
      "arguments": [
        "0xC77f7fed3b5Cc8249aDc428c5F44C9063B9734b4"
      ],
      "transaction": {
        "from": "0xc77f7fed3b5cc8249adc428c5f44c9063b9734b4",
        "to": "0xbf4a322f1496e5c3d34a9bcdb4c60567b38c7de2",
        "gas": "0x1b309",
        "value": "0xde0b6b3a7640000",
        "input": "0xf088d547000000000000000000000000c77f7fed3b5cc8249adc428c5f44c9063b9734b4",
        "nonce": "0x900",
        "chainId": "0xaa36a7"
      },
      "additionalContracts": [],
      "isFixedGasLimit": false
    }
  ],
  "receipts": [
    {
      "status": "0x1",
      "cumulativeGasUsed": "0xf1fe94",
      "logs": [
        {
          "address": "0xbf4a322f1496e5c3d34a9bcdb4c60567b38c7de2",
          "topics": [
            "0xddf252ad1be2c89b69c2b068fc378daa952ba7f163c4a11628f55a4df523b3ef",
            "0x0000000000000000000000000000000000000000000000000000000000000000",
            "0x000000000000000000000000c77f7fed3b5cc8249adc428c5f44c9063b9734b4"
          ],
          "data": "0x0000000000000000000000000000000000000000000000358ba4df225e8f8c07",
          "blockHash": "0x385e82f71d5308326a3e07130dcd68012f06bb714d27075700b4cf6cdb8b7f82",
          "blockNumber": "0x725878",
          "transactionHash": "0xb118987d459c6c231c6b5e745ca14100f7301f0046dd3221c562d021a10dce30",
          "transactionIndex": "0x36",
          "logIndex": "0x66",
          "removed": false
        },
        {
          "address": "0xbf4a322f1496e5c3d34a9bcdb4c60567b38c7de2",
          "topics": [
            "0xddf252ad1be2c89b69c2b068fc378daa952ba7f163c4a11628f55a4df523b3ef",
            "0x0000000000000000000000000000000000000000000000000000000000000000",
            "0x000000000000000000000000c77f7fed3b5cc8249adc428c5f44c9063b9734b4"
          ],
          "data": "0x00000000000000000000000000000000000000000000000029947401f7caa31b",
          "blockHash": "0x385e82f71d5308326a3e07130dcd68012f06bb714d27075700b4cf6cdb8b7f82",
          "blockNumber": "0x725878",
          "transactionHash": "0xb118987d459c6c231c6b5e745ca14100f7301f0046dd3221c562d021a10dce30",
          "transactionIndex": "0x36",
          "logIndex": "0x67",
          "removed": false
        },
        {
          "address": "0xbf4a322f1496e5c3d34a9bcdb4c60567b38c7de2",
          "topics": [
            "0x4afcb4a87cdbd9974efdb92ee48bc8d7cd0ae4bf217004db3d080cbaee652ca7"
          ],
          "data": "0x00000000000000000000000000000000000000000000000000000000678717cc00000000000000000000000000000000000000000000000000038f95bc74fe150000000000000000000000000000000000000000000000000de0b6b3a7640000",
          "blockHash": "0x385e82f71d5308326a3e07130dcd68012f06bb714d27075700b4cf6cdb8b7f82",
          "blockNumber": "0x725878",
          "transactionHash": "0xb118987d459c6c231c6b5e745ca14100f7301f0046dd3221c562d021a10dce30",
          "transactionIndex": "0x36",
          "logIndex": "0x68",
          "removed": false
        }
      ],
      "logsBloom": "0x00000000000000000000000000000000000000000000000000000000000000000000000000000000000000000000000000000000000000004000000000000000000000000000000000000008000000000000001000000000000000000000000000000000020000000000000000000800020000000000000000000010000000000000000000000000000000000000000000000000000008000000010000000000000000000000000000000000000000004000000000000000000000000000000000000002000000800000000000001000000000000000080000000000000020000000000000000000000000000000000000000000000000000000000000000000",
      "type": "0x2",
      "transactionHash": "0xb118987d459c6c231c6b5e745ca14100f7301f0046dd3221c562d021a10dce30",
      "transactionIndex": "0x36",
      "blockHash": "0x385e82f71d5308326a3e07130dcd68012f06bb714d27075700b4cf6cdb8b7f82",
      "blockNumber": "0x725878",
      "gasUsed": "0x13af6",
      "effectiveGasPrice": "0x2b19fdaf",
      "from": "0xc77f7fed3b5cc8249adc428c5f44c9063b9734b4",
      "to": "0xbf4a322f1496e5c3d34a9bcdb4c60567b38c7de2",
      "contractAddress": null
    }
  ],
  "libraries": [],
  "pending": [],
  "returns": {},
  "timestamp": 1736906701,
  "chain": 11155111,
  "commit": "51a374b"
}