{
  "transactions": [
    {
      "hash": "0x254362b928301c504a15195574797e79d555ef87af0732578dec1e4a6a31a847",
      "transactionType": "CALL",
      "contractName": null,
      "contractAddress": "0x8aafd3ede9adb0ff97c7aebce82a919afb1c8764",
      "function": "sell(uint256)",
      "arguments": [
        "188735919"
      ],
      "transaction": {
        "from": "0xc77f7fed3b5cc8249adc428c5f44c9063b9734b4",
        "to": "0x8aafd3ede9adb0ff97c7aebce82a919afb1c8764",
        "gas": "0x14e6c",
        "value": "0x0",
        "input": "0xe4849b32000000000000000000000000000000000000000000000000000000000b3fe1af",
        "nonce": "0x100b",
        "chainId": "0xaa36a7"
      },
      "additionalContracts": [],
      "isFixedGasLimit": false
    }
  ],
  "receipts": [
    {
      "status": "0x1",
      "cumulativeGasUsed": "0x16c40f1",
      "logs": [
        {
          "address": "0x8aafd3ede9adb0ff97c7aebce82a919afb1c8764",
          "topics": [
            "0xddf252ad1be2c89b69c2b068fc378daa952ba7f163c4a11628f55a4df523b3ef",
            "0x000000000000000000000000c77f7fed3b5cc8249adc428c5f44c9063b9734b4",
            "0x0000000000000000000000000000000000000000000000000000000000000000"
          ],
          "data": "0x000000000000000000000000000000000000000000000000000000000b28d7b0",
          "blockHash": "0x998e27b731dca1be467ba2c721f735f4ed1b2562706769a10a7c4a05494bcf59",
          "blockNumber": "0x731680",
          "transactionHash": "0x254362b928301c504a15195574797e79d555ef87af0732578dec1e4a6a31a847",
          "transactionIndex": "0xbd",
          "logIndex": "0x168",
          "removed": false
        },
        {
          "address": "0x8aafd3ede9adb0ff97c7aebce82a919afb1c8764",
          "topics": [
            "0xddf252ad1be2c89b69c2b068fc378daa952ba7f163c4a11628f55a4df523b3ef",
            "0x000000000000000000000000c77f7fed3b5cc8249adc428c5f44c9063b9734b4",
            "0x000000000000000000000000c77f7fed3b5cc8249adc428c5f44c9063b9734b4"
          ],
          "data": "0x00000000000000000000000000000000000000000000000000000000001709ff",
          "blockHash": "0x998e27b731dca1be467ba2c721f735f4ed1b2562706769a10a7c4a05494bcf59",
          "blockNumber": "0x731680",
          "transactionHash": "0x254362b928301c504a15195574797e79d555ef87af0732578dec1e4a6a31a847",
          "transactionIndex": "0xbd",
          "logIndex": "0x169",
          "removed": false
        },
        {
          "address": "0x8aafd3ede9adb0ff97c7aebce82a919afb1c8764",
          "topics": [
            "0x4afcb4a87cdbd9974efdb92ee48bc8d7cd0ae4bf217004db3d080cbaee652ca7"
          ],
          "data": "0x0000000000000000000000000000000000000000000000000000000067900aac0000000000000000000000000000000000000000000000000004e7da261835d6000000000000000000000000000000000000000000000000000000000003fa03",
          "blockHash": "0x998e27b731dca1be467ba2c721f735f4ed1b2562706769a10a7c4a05494bcf59",
          "blockNumber": "0x731680",
          "transactionHash": "0x254362b928301c504a15195574797e79d555ef87af0732578dec1e4a6a31a847",
          "transactionIndex": "0xbd",
          "logIndex": "0x16a",
          "removed": false
        }
      ],
      "logsBloom": "0x00000000000000000000000000000000000000000600000000000000000000000000000000000000000000000000000000000000000000004000000000000000000000000000004000000008000000000000000000000000000000000000000000000000020000000000000000000800020000000000000000000010000000000000000000000000000000000000000000000000000000000000010000000000000000000000000000000000000000004000000000000000000000000000000000000002000000800000000000000000000000000000080000000000000020000000000000000000000000000000000000000000000000000000000000000000",
      "type": "0x2",
      "transactionHash": "0x254362b928301c504a15195574797e79d555ef87af0732578dec1e4a6a31a847",
      "transactionIndex": "0xbd",
      "blockHash": "0x998e27b731dca1be467ba2c721f735f4ed1b2562706769a10a7c4a05494bcf59",
      "blockNumber": "0x731680",
      "gasUsed": "0xf21f",
      "effectiveGasPrice": "0x3a5f2baf",
      "from": "0xc77f7fed3b5cc8249adc428c5f44c9063b9734b4",
      "to": "0x8aafd3ede9adb0ff97c7aebce82a919afb1c8764",
      "contractAddress": null
    }
  ],
  "libraries": [],
  "pending": [],
  "returns": {},
  "timestamp": 1737493166,
  "chain": 11155111,
  "commit": "1d2fb70"
}