{
  "transactions": [
    {
      "hash": "0xdda2df3e801e90ebc6297831f4abb2f4f813d23fb6033a2cd71eeec3eb5aa45f",
      "transactionType": "CALL",
      "contractName": null,
      "contractAddress": "0x8aafd3ede9adb0ff97c7aebce82a919afb1c8764",
      "function": "sell(uint256)",
      "arguments": [
        "2716215000538"
      ],
      "transaction": {
        "from": "0xc77f7fed3b5cc8249adc428c5f44c9063b9734b4",
        "to": "0x8aafd3ede9adb0ff97c7aebce82a919afb1c8764",
        "gas": "0x15daa",
        "value": "0x0",
        "input": "0xe4849b32000000000000000000000000000000000000000000000000000002786b07bdda",
        "nonce": "0x12ed",
        "chainId": "0xaa36a7"
      },
      "additionalContracts": [],
      "isFixedGasLimit": false
    }
  ],
  "receipts": [
    {
      "status": "0x1",
      "cumulativeGasUsed": "0x93e6fa",
      "logs": [
        {
          "address": "0x8aafd3ede9adb0ff97c7aebce82a919afb1c8764",
          "topics": [
            "0xddf252ad1be2c89b69c2b068fc378daa952ba7f163c4a11628f55a4df523b3ef",
            "0x000000000000000000000000c77f7fed3b5cc8249adc428c5f44c9063b9734b4",
            "0x0000000000000000000000000000000000000000000000000000000000000000"
          ],
          "data": "0x000000000000000000000000000000000000000000000000000002735bd68716",
          "blockHash": "0x1f4be27bab7c3243197993c9342e151ecbe119f678bfaf018c327c9887c093c5",
          "blockNumber": "0x7319f2",
          "transactionHash": "0xdda2df3e801e90ebc6297831f4abb2f4f813d23fb6033a2cd71eeec3eb5aa45f",
          "transactionIndex": "0x78",
          "logIndex": "0xae",
          "removed": false
        },
        {
          "address": "0x8aafd3ede9adb0ff97c7aebce82a919afb1c8764",
          "topics": [
            "0xddf252ad1be2c89b69c2b068fc378daa952ba7f163c4a11628f55a4df523b3ef",
            "0x000000000000000000000000c77f7fed3b5cc8249adc428c5f44c9063b9734b4",
            "0x000000000000000000000000c77f7fed3b5cc8249adc428c5f44c9063b9734b4"
          ],
          "data": "0x000000000000000000000000000000000000000000000000000000050f3136c4",
          "blockHash": "0x1f4be27bab7c3243197993c9342e151ecbe119f678bfaf018c327c9887c093c5",
          "blockNumber": "0x7319f2",
          "transactionHash": "0xdda2df3e801e90ebc6297831f4abb2f4f813d23fb6033a2cd71eeec3eb5aa45f",
          "transactionIndex": "0x78",
          "logIndex": "0xaf",
          "removed": false
        },
        {
          "address": "0x8aafd3ede9adb0ff97c7aebce82a919afb1c8764",
          "topics": [
            "0x4afcb4a87cdbd9974efdb92ee48bc8d7cd0ae4bf217004db3d080cbaee652ca7"
          ],
          "data": "0x00000000000000000000000000000000000000000000000000000000679034280000000000000000000000000000000000000000000000000005535b8e40e49100000000000000000000000000000000000000000000000000000000f2b0eca7",
          "blockHash": "0x1f4be27bab7c3243197993c9342e151ecbe119f678bfaf018c327c9887c093c5",
          "blockNumber": "0x7319f2",
          "transactionHash": "0xdda2df3e801e90ebc6297831f4abb2f4f813d23fb6033a2cd71eeec3eb5aa45f",
          "transactionIndex": "0x78",
          "logIndex": "0xb0",
          "removed": false
        }
      ],
      "logsBloom": "0x00000000000000000000000000000000000000000600000000000000000000000000000000000000000000000000000000000000000000004000000000000000000000000000004000000008000000000000000000000000000000000000000000000000020000000000000000000800020000000000000000000010000000000000000000000000000000000000000000000000000000000000010000000000000000000000000000000000000000004000000000000000000000000000000000000002000000800000000000000000000000000000080000000000000020000000000000000000000000000000000000000000000000000000000000000000",
      "type": "0x2",
      "transactionHash": "0xdda2df3e801e90ebc6297831f4abb2f4f813d23fb6033a2cd71eeec3eb5aa45f",
      "transactionIndex": "0x78",
      "blockHash": "0x1f4be27bab7c3243197993c9342e151ecbe119f678bfaf018c327c9887c093c5",
      "blockNumber": "0x7319f2",
      "gasUsed": "0xfd27",
      "effectiveGasPrice": "0x440d0d3c",
      "from": "0xc77f7fed3b5cc8249adc428c5f44c9063b9734b4",
      "to": "0x8aafd3ede9adb0ff97c7aebce82a919afb1c8764",
      "contractAddress": null
    }
  ],
  "libraries": [],
  "pending": [],
  "returns": {},
  "timestamp": 1737503785,
  "chain": 11155111,
  "commit": "1d2fb70"
}