{
  "transactions": [
    {
      "hash": "0x1b3cf6a92c28c17752676e47dcf5d9f49021ead911798c267a5b188cc45a4487",
      "transactionType": "CALL",
      "contractName": null,
      "contractAddress": "0x8aafd3ede9adb0ff97c7aebce82a919afb1c8764",
      "function": "sell(uint256)",
      "arguments": [
        "829794025014"
      ],
      "transaction": {
        "from": "0xc77f7fed3b5cc8249adc428c5f44c9063b9734b4",
        "to": "0x8aafd3ede9adb0ff97c7aebce82a919afb1c8764",
        "gas": "0x1722a",
        "value": "0x0",
        "input": "0xe4849b32000000000000000000000000000000000000000000000000000000c13393fe36",
        "nonce": "0x1527",
        "chainId": "0xaa36a7"
      },
      "additionalContracts": [],
      "isFixedGasLimit": false
    }
  ],
  "receipts": [
    {
      "status": "0x1",
      "cumulativeGasUsed": "0xd8bd7a",
      "logs": [
        {
          "address": "0x8aafd3ede9adb0ff97c7aebce82a919afb1c8764",
          "topics": [
            "0xddf252ad1be2c89b69c2b068fc378daa952ba7f163c4a11628f55a4df523b3ef",
            "0x000000000000000000000000c77f7fed3b5cc8249adc428c5f44c9063b9734b4",
            "0x0000000000000000000000000000000000000000000000000000000000000000"
          ],
          "data": "0x000000000000000000000000000000000000000000000000000000bfa7e6c6ee",
          "blockHash": "0x6e80b01e563ee06d4e97b2f7a3863481f7bc52eca43a1695ec177e68fe47c961",
          "blockNumber": "0x731c89",
          "transactionHash": "0x1b3cf6a92c28c17752676e47dcf5d9f49021ead911798c267a5b188cc45a4487",
          "transactionIndex": "0x8a",
          "logIndex": "0xcf",
          "removed": false
        },
        {
          "address": "0x8aafd3ede9adb0ff97c7aebce82a919afb1c8764",
          "topics": [
            "0xddf252ad1be2c89b69c2b068fc378daa952ba7f163c4a11628f55a4df523b3ef",
            "0x000000000000000000000000c77f7fed3b5cc8249adc428c5f44c9063b9734b4",
            "0x000000000000000000000000c77f7fed3b5cc8249adc428c5f44c9063b9734b4"
          ],
          "data": "0x000000000000000000000000000000000000000000000000000000018bad3748",
          "blockHash": "0x6e80b01e563ee06d4e97b2f7a3863481f7bc52eca43a1695ec177e68fe47c961",
          "blockNumber": "0x731c89",
          "transactionHash": "0x1b3cf6a92c28c17752676e47dcf5d9f49021ead911798c267a5b188cc45a4487",
          "transactionIndex": "0x8a",
          "logIndex": "0xd0",
          "removed": false
        },
        {
          "address": "0x8aafd3ede9adb0ff97c7aebce82a919afb1c8764",
          "topics": [
            "0x4afcb4a87cdbd9974efdb92ee48bc8d7cd0ae4bf217004db3d080cbaee652ca7"
          ],
          "data": "0x0000000000000000000000000000000000000000000000000000000067905348000000000000000000000000000000000000000000000000001184953f724b9a00000000000000000000000000000000000000000000000000000000f3e0b8a9",
          "blockHash": "0x6e80b01e563ee06d4e97b2f7a3863481f7bc52eca43a1695ec177e68fe47c961",
          "blockNumber": "0x731c89",
          "transactionHash": "0x1b3cf6a92c28c17752676e47dcf5d9f49021ead911798c267a5b188cc45a4487",
          "transactionIndex": "0x8a",
          "logIndex": "0xd1",
          "removed": false
        }
      ],
      "logsBloom": "0x00000000000000000000000000000000000000000600000000000000000000000000000000000000000000000000000000000000000000004000000000000000000000000000004000000008000000000000000000000000000000000000000000000000020000000000000000000800020000000000000000000010000000000000000000000000000000000000000000000000000000000000010000000000000000000000000000000000000000004000000000000000000000000000000000000002000000800000000000000000000000000000080000000000000020000000000000000000000000000000000000000000000000000000000000000000",
      "type": "0x2",
      "transactionHash": "0x1b3cf6a92c28c17752676e47dcf5d9f49021ead911798c267a5b188cc45a4487",
      "transactionIndex": "0x8a",
      "blockHash": "0x6e80b01e563ee06d4e97b2f7a3863481f7bc52eca43a1695ec177e68fe47c961",
      "blockNumber": "0x731c89",
      "gasUsed": "0xfd1b",
      "effectiveGasPrice": "0x10279b518",
      "from": "0xc77f7fed3b5cc8249adc428c5f44c9063b9734b4",
      "to": "0x8aafd3ede9adb0ff97c7aebce82a919afb1c8764",
      "contractAddress": null
    }
  ],
  "libraries": [],
  "pending": [],
  "returns": {},
  "timestamp": 1737511753,
  "chain": 11155111,
  "commit": "1d2fb70"
}