{
  "transactions": [
    {
      "hash": "0x8b783621eedad00c8bcac4181aa6cd239d25a0d9ce7fd30a6a3b6232c368fdcd",
      "transactionType": "CALL",
      "contractName": null,
      "contractAddress": "0x8aafd3ede9adb0ff97c7aebce82a919afb1c8764",
      "function": "sell(uint256)",
      "arguments": [
        "644248438373"
      ],
      "transaction": {
        "from": "0xc77f7fed3b5cc8249adc428c5f44c9063b9734b4",
        "to": "0x8aafd3ede9adb0ff97c7aebce82a919afb1c8764",
        "gas": "0x15d88",
        "value": "0x0",
        "input": "0xe4849b320000000000000000000000000000000000000000000000000000009600330665",
        "nonce": "0x16d7",
        "chainId": "0xaa36a7"
      },
      "additionalContracts": [],
      "isFixedGasLimit": false
    }
  ],
  "receipts": [
    {
      "status": "0x1",
      "cumulativeGasUsed": "0xd0df1a",
      "logs": [
        {
          "address": "0x8aafd3ede9adb0ff97c7aebce82a919afb1c8764",
          "topics": [
            "0xddf252ad1be2c89b69c2b068fc378daa952ba7f163c4a11628f55a4df523b3ef",
            "0x000000000000000000000000c77f7fed3b5cc8249adc428c5f44c9063b9734b4",
            "0x0000000000000000000000000000000000000000000000000000000000000000"
          ],
          "data": "0x00000000000000000000000000000000000000000000000000000094ccff6ab3",
          "blockHash": "0xfc13a478be353869dddb48ba44e67c8a7c774b7e0828996dfc7314783c673f94",
          "blockNumber": "0x731e93",
          "transactionHash": "0x8b783621eedad00c8bcac4181aa6cd239d25a0d9ce7fd30a6a3b6232c368fdcd",
          "transactionIndex": "0x63",
          "logIndex": "0xab",
          "removed": false
        },
        {
          "address": "0x8aafd3ede9adb0ff97c7aebce82a919afb1c8764",
          "topics": [
            "0xddf252ad1be2c89b69c2b068fc378daa952ba7f163c4a11628f55a4df523b3ef",
            "0x000000000000000000000000c77f7fed3b5cc8249adc428c5f44c9063b9734b4",
            "0x000000000000000000000000c77f7fed3b5cc8249adc428c5f44c9063b9734b4"
          ],
          "data": "0x0000000000000000000000000000000000000000000000000000000133339bb2",
          "blockHash": "0xfc13a478be353869dddb48ba44e67c8a7c774b7e0828996dfc7314783c673f94",
          "blockNumber": "0x731e93",
          "transactionHash": "0x8b783621eedad00c8bcac4181aa6cd239d25a0d9ce7fd30a6a3b6232c368fdcd",
          "transactionIndex": "0x63",
          "logIndex": "0xac",
          "removed": false
        },
        {
          "address": "0x8aafd3ede9adb0ff97c7aebce82a919afb1c8764",
          "topics": [
            "0x4afcb4a87cdbd9974efdb92ee48bc8d7cd0ae4bf217004db3d080cbaee652ca7"
          ],
          "data": "0x0000000000000000000000000000000000000000000000000000000067906bcc000000000000000000000000000000000000000000000000001688d30679c37a00000000000000000000000000000000000000000000000000000000f39176b8",
          "blockHash": "0xfc13a478be353869dddb48ba44e67c8a7c774b7e0828996dfc7314783c673f94",
          "blockNumber": "0x731e93",
          "transactionHash": "0x8b783621eedad00c8bcac4181aa6cd239d25a0d9ce7fd30a6a3b6232c368fdcd",
          "transactionIndex": "0x63",
          "logIndex": "0xad",
          "removed": false
        }
      ],
      "logsBloom": "0x00000000000000000000000000000000000000000600000000000000000000000000000000000000000000000000000000000000000000004000000000000000000000000000004000000008000000000000000000000000000000000000000000000000020000000000000000000800020000000000000000000010000000000000000000000000000000000000000000000000000000000000010000000000000000000000000000000000000000004000000000000000000000000000000000000002000000800000000000000000000000000000080000000000000020000000000000000000000000000000000000000000000000000000000000000000",
      "type": "0x2",
      "transactionHash": "0x8b783621eedad00c8bcac4181aa6cd239d25a0d9ce7fd30a6a3b6232c368fdcd",
      "transactionIndex": "0x63",
      "blockHash": "0xfc13a478be353869dddb48ba44e67c8a7c774b7e0828996dfc7314783c673f94",
      "blockNumber": "0x731e93",
      "gasUsed": "0xfd0f",
      "effectiveGasPrice": "0x4889db7e",
      "from": "0xc77f7fed3b5cc8249adc428c5f44c9063b9734b4",
      "to": "0x8aafd3ede9adb0ff97c7aebce82a919afb1c8764",
      "contractAddress": null
    }
  ],
  "libraries": [],
  "pending": [],
  "returns": {},
  "timestamp": 1737518029,
  "chain": 11155111,
  "commit": "1d2fb70"
}