{
  "transactions": [
    {
      "hash": "0x5c91dd0568acdaca59a28791fcd4fa928ba15fbdeb80a0c16a29740054ea9a9b",
      "transactionType": "CALL",
      "contractName": null,
      "contractAddress": "0x8aafd3ede9adb0ff97c7aebce82a919afb1c8764",
      "function": "sell(uint256)",
      "arguments": [
        "379997579870540"
      ],
      "transaction": {
        "from": "0xc77f7fed3b5cc8249adc428c5f44c9063b9734b4",
        "to": "0x8aafd3ede9adb0ff97c7aebce82a919afb1c8764",
        "gas": "0x1724d",
        "value": "0x0",
        "input": "0xe4849b320000000000000000000000000000000000000000000000000001599b14c3814c",
        "nonce": "0xf60",
        "chainId": "0xaa36a7"
      },
      "additionalContracts": [],
      "isFixedGasLimit": false
    }
  ],
  "receipts": [
    {
      "status": "0x1",
      "cumulativeGasUsed": "0xc67494",
      "logs": [
        {
          "address": "0x8aafd3ede9adb0ff97c7aebce82a919afb1c8764",
          "topics": [
            "0xddf252ad1be2c89b69c2b068fc378daa952ba7f163c4a11628f55a4df523b3ef",
            "0x000000000000000000000000c77f7fed3b5cc8249adc428c5f44c9063b9734b4",
            "0x0000000000000000000000000000000000000000000000000000000000000000"
          ],
          "data": "0x000000000000000000000000000000000000000000000000000156d747cc2e58",
          "blockHash": "0x96d6eef229590c06fbaa5bc6cf7b6974c8788454f6babbbccd96da9fb3274dd7",
          "blockNumber": "0x7315be",
          "transactionHash": "0x5c91dd0568acdaca59a28791fcd4fa928ba15fbdeb80a0c16a29740054ea9a9b",
          "transactionIndex": "0x85",
          "logIndex": "0xbf",
          "removed": false
        },
        {
          "address": "0x8aafd3ede9adb0ff97c7aebce82a919afb1c8764",
          "topics": [
            "0xddf252ad1be2c89b69c2b068fc378daa952ba7f163c4a11628f55a4df523b3ef",
            "0x000000000000000000000000c77f7fed3b5cc8249adc428c5f44c9063b9734b4",
            "0x000000000000000000000000c77f7fed3b5cc8249adc428c5f44c9063b9734b4"
          ],
          "data": "0x000000000000000000000000000000000000000000000000000002c3ccf752f4",
          "blockHash": "0x96d6eef229590c06fbaa5bc6cf7b6974c8788454f6babbbccd96da9fb3274dd7",
          "blockNumber": "0x7315be",
          "transactionHash": "0x5c91dd0568acdaca59a28791fcd4fa928ba15fbdeb80a0c16a29740054ea9a9b",
          "transactionIndex": "0x85",
          "logIndex": "0xc0",
          "removed": false
        },
        {
          "address": "0x8aafd3ede9adb0ff97c7aebce82a919afb1c8764",
          "topics": [
            "0x4afcb4a87cdbd9974efdb92ee48bc8d7cd0ae4bf217004db3d080cbaee652ca7"
          ],
          "data": "0x00000000000000000000000000000000000000000000000000000000679001940000000000000000000000000000000000000000000000000004c12f91818ac00000000000000000000000000000000000000000000000000000007668368457",
          "blockHash": "0x96d6eef229590c06fbaa5bc6cf7b6974c8788454f6babbbccd96da9fb3274dd7",
          "blockNumber": "0x7315be",
          "transactionHash": "0x5c91dd0568acdaca59a28791fcd4fa928ba15fbdeb80a0c16a29740054ea9a9b",
          "transactionIndex": "0x85",
          "logIndex": "0xc1",
          "removed": false
        }
      ],
      "logsBloom": "0x00000000000000000000000000000000000000000600000000000000000000000000000000000000000000000000000000000000000000004000000000000000000000000000004000000008000000000000000000000000000000000000000000000000020000000000000000000800020000000000000000000010000000000000000000000000000000000000000000000000000000000000010000000000000000000000000000000000000000004000000000000000000000000000000000000002000000800000000000000000000000000000080000000000000020000000000000000000000000000000000000000000000000000000000000000000",
      "type": "0x2",
      "transactionHash": "0x5c91dd0568acdaca59a28791fcd4fa928ba15fbdeb80a0c16a29740054ea9a9b",
      "transactionIndex": "0x85",
      "blockHash": "0x96d6eef229590c06fbaa5bc6cf7b6974c8788454f6babbbccd96da9fb3274dd7",
      "blockNumber": "0x7315be",
      "gasUsed": "0xfd33",
      "effectiveGasPrice": "0x7309dc97",
      "from": "0xc77f7fed3b5cc8249adc428c5f44c9063b9734b4",
      "to": "0x8aafd3ede9adb0ff97c7aebce82a919afb1c8764",
      "contractAddress": null
    }
  ],
  "libraries": [],
  "pending": [],
  "returns": {},
  "timestamp": 1737490837,
  "chain": 11155111,
  "commit": "1d2fb70"
}