{
  "transactions": [
    {
      "hash": "0xf4429c451493c1b9e77f12328ed5ecaa331a5cf7b0b219b62e1c59181d0e6e3e",
      "transactionType": "CALL",
      "contractName": null,
      "contractAddress": "0x8aafd3ede9adb0ff97c7aebce82a919afb1c8764",
      "function": "sell(uint256)",
      "arguments": [
        "1431957"
      ],
      "transaction": {
        "from": "0xc77f7fed3b5cc8249adc428c5f44c9063b9734b4",
        "to": "0x8aafd3ede9adb0ff97c7aebce82a919afb1c8764",
        "gas": "0x16208",
        "value": "0x0",
        "input": "0xe4849b32000000000000000000000000000000000000000000000000000000000015d995",
        "nonce": "0x11e2",
        "chainId": "0xaa36a7"
      },
      "additionalContracts": [],
      "isFixedGasLimit": false
    }
  ],
  "receipts": [
    {
      "status": "0x1",
      "cumulativeGasUsed": "0x1045fc0",
      "logs": [
        {
          "address": "0x8aafd3ede9adb0ff97c7aebce82a919afb1c8764",
          "topics": [
            "0xddf252ad1be2c89b69c2b068fc378daa952ba7f163c4a11628f55a4df523b3ef",
            "0x000000000000000000000000c77f7fed3b5cc8249adc428c5f44c9063b9734b4",
            "0x0000000000000000000000000000000000000000000000000000000000000000"
          ],
          "data": "0x000000000000000000000000000000000000000000000000000000000015acd6",
          "blockHash": "0xfb33e5a1163805bceb34bf23ed6b08a7811e0fae732bdefbbb2fbe8c3f4161ac",
          "blockNumber": "0x7318b8",
          "transactionHash": "0xf4429c451493c1b9e77f12328ed5ecaa331a5cf7b0b219b62e1c59181d0e6e3e",
          "transactionIndex": "0x9b",
          "logIndex": "0xc9",
          "removed": false
        },
        {
          "address": "0x8aafd3ede9adb0ff97c7aebce82a919afb1c8764",
          "topics": [
            "0xddf252ad1be2c89b69c2b068fc378daa952ba7f163c4a11628f55a4df523b3ef",
            "0x000000000000000000000000c77f7fed3b5cc8249adc428c5f44c9063b9734b4",
            "0x000000000000000000000000c77f7fed3b5cc8249adc428c5f44c9063b9734b4"
          ],
          "data": "0x0000000000000000000000000000000000000000000000000000000000002cbf",
          "blockHash": "0xfb33e5a1163805bceb34bf23ed6b08a7811e0fae732bdefbbb2fbe8c3f4161ac",
          "blockNumber": "0x7318b8",
          "transactionHash": "0xf4429c451493c1b9e77f12328ed5ecaa331a5cf7b0b219b62e1c59181d0e6e3e",
          "transactionIndex": "0x9b",
          "logIndex": "0xca",
          "removed": false
        },
        {
          "address": "0x8aafd3ede9adb0ff97c7aebce82a919afb1c8764",
          "topics": [
            "0x4afcb4a87cdbd9974efdb92ee48bc8d7cd0ae4bf217004db3d080cbaee652ca7"
          ],
          "data": "0x000000000000000000000000000000000000000000000000000000006790257000000000000000000000000000000000000000000000000000052c1eafcfd27f0000000000000000000000000000000000000000000000000000000000000824",
          "blockHash": "0xfb33e5a1163805bceb34bf23ed6b08a7811e0fae732bdefbbb2fbe8c3f4161ac",
          "blockNumber": "0x7318b8",
          "transactionHash": "0xf4429c451493c1b9e77f12328ed5ecaa331a5cf7b0b219b62e1c59181d0e6e3e",
          "transactionIndex": "0x9b",
          "logIndex": "0xcb",
          "removed": false
        }
      ],
      "logsBloom": "0x00000000000000000000000000000000000000000600000000000000000000000000000000000000000000000000000000000000000000004000000000000000000000000000004000000008000000000000000000000000000000000000000000000000020000000000000000000800020000000000000000000010000000000000000000000000000000000000000000000000000000000000010000000000000000000000000000000000000000004000000000000000000000000000000000000002000000800000000000000000000000000000080000000000000020000000000000000000000000000000000000000000000000000000000000000000",
      "type": "0x2",
      "transactionHash": "0xf4429c451493c1b9e77f12328ed5ecaa331a5cf7b0b219b62e1c59181d0e6e3e",
      "transactionIndex": "0x9b",
      "blockHash": "0xfb33e5a1163805bceb34bf23ed6b08a7811e0fae732bdefbbb2fbe8c3f4161ac",
      "blockNumber": "0x7318b8",
      "gasUsed": "0xf213",
      "effectiveGasPrice": "0x45d1076b",
      "from": "0xc77f7fed3b5cc8249adc428c5f44c9063b9734b4",
      "to": "0x8aafd3ede9adb0ff97c7aebce82a919afb1c8764",
      "contractAddress": null
    }
  ],
  "libraries": [],
  "pending": [],
  "returns": {},
  "timestamp": 1737500017,
  "chain": 11155111,
  "commit": "1d2fb70"
}