{
  "transactions": [
    {
      "hash": "0xf9a9afac34e7443fd0a9218afa9db13af840b2c68f53c5b120a94f33ef618b71",
      "transactionType": "CALL",
      "contractName": null,
      "contractAddress": "0x9a940ef65f8bf33332aa4faea921454828f0c80a",
      "function": "borrow(uint256,uint256)",
      "arguments": [
        "9937174586136451",
        "0"
      ],
      "transaction": {
        "from": "0xf66076775ad1f36dd12c1f1b10c21d1aadf0d6de",
        "to": "0x9a940ef65f8bf33332aa4faea921454828f0c80a",
        "gas": "0x52ca3",
        "value": "0x0",
        "input": "0x0ecbcdab00000000000000000000000000000000000000000000000000234dcec14717830000000000000000000000000000000000000000000000000000000000000000",
        "nonce": "0x5c",
        "chainId": "0xaa36a7"
      },
      "additionalContracts": [],
      "isFixedGasLimit": false
    }
  ],
  "receipts": [
    {
      "status": "0x1",
      "cumulativeGasUsed": "0x130c736",
      "logs": [
        {
          "address": "0x9a940ef65f8bf33332aa4faea921454828f0c80a",
          "topics": [
            "0xddf252ad1be2c89b69c2b068fc378daa952ba7f163c4a11628f55a4df523b3ef",
            "0x000000000000000000000000f66076775ad1f36dd12c1f1b10c21d1aadf0d6de",
            "0x0000000000000000000000009a940ef65f8bf33332aa4faea921454828f0c80a"
          ],
          "data": "0x000000000000000000000000000000000000000000000000521dda55a865dd89",
          "blockHash": "0x087679d29ed78aa038a349eeb927f900d126d0056efee3759d7f1d8daaed0e23",
          "blockNumber": "0x73d256",
          "transactionHash": "0xf9a9afac34e7443fd0a9218afa9db13af840b2c68f53c5b120a94f33ef618b71",
          "transactionIndex": "0xc0",
          "logIndex": "0x126",
          "removed": false
        },
        {
          "address": "0x9a940ef65f8bf33332aa4faea921454828f0c80a",
          "topics": [
            "0x03bbe564cb1b78e43195eeadbde99e5b89b19345862807fcfb59f884e4165e25"
          ],
          "data": "0x000000000000000000000000f66076775ad1f36dd12c1f1b10c21d1aadf0d6de0000000000000000000000000000000000000000000000000022ea6449e75576",
          "blockHash": "0x087679d29ed78aa038a349eeb927f900d126d0056efee3759d7f1d8daaed0e23",
          "blockNumber": "0x73d256",
          "transactionHash": "0xf9a9afac34e7443fd0a9218afa9db13af840b2c68f53c5b120a94f33ef618b71",
          "transactionIndex": "0xc0",
          "logIndex": "0x127",
          "removed": false
        },
        {
          "address": "0x9a940ef65f8bf33332aa4faea921454828f0c80a",
          "topics": [
            "0x03bbe564cb1b78e43195eeadbde99e5b89b19345862807fcfb59f884e4165e25"
          ],
          "data": "0x00000000000000000000000038818e389773445cd73adbaa37b8b169f458c6e1000000000000000000000000000000000000000000000000000002b61a874420",
          "blockHash": "0x087679d29ed78aa038a349eeb927f900d126d0056efee3759d7f1d8daaed0e23",
          "blockNumber": "0x73d256",
          "transactionHash": "0xf9a9afac34e7443fd0a9218afa9db13af840b2c68f53c5b120a94f33ef618b71",
          "transactionIndex": "0xc0",
          "logIndex": "0x128",
          "removed": false
        },
        {
          "address": "0x9a940ef65f8bf33332aa4faea921454828f0c80a",
          "topics": [
            "0xaec00f5213a37254bc68a26b0685d1a5b2bf513e1e587c94c7df7f4a62b56c9c"
          ],
          "data": "0x000000000000000000000000000000000000000000000000521dda55a865dd890000000000000000000000000000000000000000000000000022f36df7aa388e0000000000000000000000000000000000000000000000000022f36df7aa388e000000000000000000000000000000000000000000000000521dda55a865dd89",
          "blockHash": "0x087679d29ed78aa038a349eeb927f900d126d0056efee3759d7f1d8daaed0e23",
          "blockNumber": "0x73d256",
          "transactionHash": "0xf9a9afac34e7443fd0a9218afa9db13af840b2c68f53c5b120a94f33ef618b71",
          "transactionIndex": "0xc0",
          "logIndex": "0x129",
          "removed": false
        },
        {
          "address": "0x9a940ef65f8bf33332aa4faea921454828f0c80a",
          "topics": [
            "0x4afcb4a87cdbd9974efdb92ee48bc8d7cd0ae4bf217004db3d080cbaee652ca7"
          ],
          "data": "0x0000000000000000000000000000000000000000000000000000000067991f7c0000000000000000000000000000000000000000000000000005f7cbb89cab2f00000000000000000000000000000000000000000000000000000909adc2e318",
          "blockHash": "0x087679d29ed78aa038a349eeb927f900d126d0056efee3759d7f1d8daaed0e23",
          "blockNumber": "0x73d256",
          "transactionHash": "0xf9a9afac34e7443fd0a9218afa9db13af840b2c68f53c5b120a94f33ef618b71",
          "transactionIndex": "0xc0",
          "logIndex": "0x12a",
          "removed": false
        }
      ],
      "logsBloom": "0x80000000000000040000000000000100400000000000000000000000000000000008000000000000000000000000000000002000000000004000000000000000000000000000000000000008000000000000000000000000000000000000000000000000000000000000800000000000220000000000000000000010080000000000000000000000000000000000000000000000000000000000000000000000000000000000000000000400000000004000000000800000000000001000000000000002000000000000000000000000000000000000000000000020000000000000000000000000000000200000000000000000000000000040000000000000",
      "type": "0x2",
      "transactionHash": "0xf9a9afac34e7443fd0a9218afa9db13af840b2c68f53c5b120a94f33ef618b71",
      "transactionIndex": "0xc0",
      "blockHash": "0x087679d29ed78aa038a349eeb927f900d126d0056efee3759d7f1d8daaed0e23",
      "blockNumber": "0x73d256",
      "gasUsed": "0x3bf04",
      "effectiveGasPrice": "0x4709292f",
      "from": "0xf66076775ad1f36dd12c1f1b10c21d1aadf0d6de",
      "to": "0x9a940ef65f8bf33332aa4faea921454828f0c80a",
      "contractAddress": null
    }
  ],
  "libraries": [],
  "pending": [],
  "returns": {},
  "timestamp": 1738088317,
  "chain": 11155111,
  "commit": "b9c1499"
}