{
  "transactions": [
    {
      "hash": "0x26c4107b6ace72576676a203fa4ff88d5eaf13a1e162cf50ad8a38389e79d893",
      "transactionType": "CALL",
      "contractName": null,
      "contractAddress": "0xbf4a322f1496e5c3d34a9bcdb4c60567b38c7de2",
      "function": "buy(address)",
      "arguments": [
        "0xC77f7fed3b5Cc8249aDc428c5F44C9063B9734b4"
      ],
      "transaction": {
        "from": "0xc77f7fed3b5cc8249adc428c5f44c9063b9734b4",
        "to": "0xbf4a322f1496e5c3d34a9bcdb4c60567b38c7de2",
        "gas": "0x1b309",
        "value": "0xde0b6b3a7640000",
        "input": "0xf088d547000000000000000000000000c77f7fed3b5cc8249adc428c5f44c9063b9734b4",
        "nonce": "0x9b8",
        "chainId": "0xaa36a7"
      },
      "additionalContracts": [],
      "isFixedGasLimit": false
    }
  ],
  "receipts": [
    {
      "status": "0x1",
      "cumulativeGasUsed": "0x122d16b",
      "logs": [
        {
          "address": "0xbf4a322f1496e5c3d34a9bcdb4c60567b38c7de2",
          "topics": [
            "0xddf252ad1be2c89b69c2b068fc378daa952ba7f163c4a11628f55a4df523b3ef",
            "0x0000000000000000000000000000000000000000000000000000000000000000",
            "0x000000000000000000000000c77f7fed3b5cc8249adc428c5f44c9063b9734b4"
          ],
          "data": "0x00000000000000000000000000000000000000000000003568cc7d26a2432bb9",
          "blockHash": "0x666ba2e055fe0b7666b44c1b74bef569654b5bd3a886887246cebce20b6af183",
          "blockNumber": "0x725963",
          "transactionHash": "0x26c4107b6ace72576676a203fa4ff88d5eaf13a1e162cf50ad8a38389e79d893",
          "transactionIndex": "0x82",
          "logIndex": "0xbc",
          "removed": false
        },
        {
          "address": "0xbf4a322f1496e5c3d34a9bcdb4c60567b38c7de2",
          "topics": [
            "0xddf252ad1be2c89b69c2b068fc378daa952ba7f163c4a11628f55a4df523b3ef",
            "0x0000000000000000000000000000000000000000000000000000000000000000",
            "0x000000000000000000000000c77f7fed3b5cc8249adc428c5f44c9063b9734b4"
          ],
          "data": "0x00000000000000000000000000000000000000000000000029796506b5c033a9",
          "blockHash": "0x666ba2e055fe0b7666b44c1b74bef569654b5bd3a886887246cebce20b6af183",
          "blockNumber": "0x725963",
          "transactionHash": "0x26c4107b6ace72576676a203fa4ff88d5eaf13a1e162cf50ad8a38389e79d893",
          "transactionIndex": "0x82",
          "logIndex": "0xbd",
          "removed": false
        },
        {
          "address": "0xbf4a322f1496e5c3d34a9bcdb4c60567b38c7de2",
          "topics": [
            "0x4afcb4a87cdbd9974efdb92ee48bc8d7cd0ae4bf217004db3d080cbaee652ca7"
          ],
          "data": "0x00000000000000000000000000000000000000000000000000000000678722d0000000000000000000000000000000000000000000000000000391e876fe461b0000000000000000000000000000000000000000000000000de0b6b3a7640000",
          "blockHash": "0x666ba2e055fe0b7666b44c1b74bef569654b5bd3a886887246cebce20b6af183",
          "blockNumber": "0x725963",
          "transactionHash": "0x26c4107b6ace72576676a203fa4ff88d5eaf13a1e162cf50ad8a38389e79d893",
          "transactionIndex": "0x82",
          "logIndex": "0xbe",
          "removed": false
        }
      ],
      "logsBloom": "0x00000000000000000000000000000000000000000000000000000000000000000000000000000000000000000000000000000000000000004000000000000000000000000000000000000008000000000000001000000000000000000000000000000000020000000000000000000800020000000000000000000010000000000000000000000000000000000000000000000000000008000000010000000000000000000000000000000000000000004000000000000000000000000000000000000002000000800000000000001000000000000000080000000000000020000000000000000000000000000000000000000000000000000000000000000000",
      "type": "0x2",
      "transactionHash": "0x26c4107b6ace72576676a203fa4ff88d5eaf13a1e162cf50ad8a38389e79d893",
      "transactionIndex": "0x82",
      "blockHash": "0x666ba2e055fe0b7666b44c1b74bef569654b5bd3a886887246cebce20b6af183",
      "blockNumber": "0x725963",
      "gasUsed": "0x13af6",
      "effectiveGasPrice": "0x2831016df",
      "from": "0xc77f7fed3b5cc8249adc428c5f44c9063b9734b4",
      "to": "0xbf4a322f1496e5c3d34a9bcdb4c60567b38c7de2",
      "contractAddress": null
    }
  ],
  "libraries": [],
  "pending": [],
  "returns": {},
  "timestamp": 1736909522,
  "chain": 11155111,
  "commit": "51a374b"
}