{
  "transactions": [
    {
      "hash": "0x65bf07f2a7f357d8e5ca98488b78d6f07c1ca9575b1447166cb4491bb2e62c45",
      "transactionType": "CALL",
      "contractName": null,
      "contractAddress": "0x270e88f8683660553e8ba4eb2ad7c91a1710d769",
      "function": "sell(uint256)",
      "arguments": [
        "958472281401016200120"
      ],
      "transaction": {
        "from": "0xc77f7fed3b5cc8249adc428c5f44c9063b9734b4",
        "to": "0x270e88f8683660553e8ba4eb2ad7c91a1710d769",
        "gas": "0x16fec",
        "value": "0x0",
        "input": "0xe4849b32000000000000000000000000000000000000000000000033f57995bafdd02bb8",
        "nonce": "0x5b5",
        "chainId": "0xaa36a7"
      },
      "additionalContracts": [],
      "isFixedGasLimit": false
    }
  ],
  "receipts": [
    {
      "status": "0x1",
      "cumulativeGasUsed": "0x7f0110",
      "logs": [
        {
          "address": "0x270e88f8683660553e8ba4eb2ad7c91a1710d769",
          "topics": [
            "0xddf252ad1be2c89b69c2b068fc378daa952ba7f163c4a11628f55a4df523b3ef",
            "0x000000000000000000000000c77f7fed3b5cc8249adc428c5f44c9063b9734b4",
            "0x0000000000000000000000000000000000000000000000000000000000000000"
          ],
          "data": "0x000000000000000000000000000000000000000000000033f57995bafdd02bb8",
          "blockHash": "0xee1fed735195876e16073f1d718d1a2370c528035780d812ef5528ad9424b110",
          "blockNumber": "0x725270",
          "transactionHash": "0x65bf07f2a7f357d8e5ca98488b78d6f07c1ca9575b1447166cb4491bb2e62c45",
          "transactionIndex": "0x4c",
          "logIndex": "0x83",
          "removed": false
        },
        {
          "address": "0x270e88f8683660553e8ba4eb2ad7c91a1710d769",
          "topics": [
            "0x4afcb4a87cdbd9974efdb92ee48bc8d7cd0ae4bf217004db3d080cbaee652ca7"
          ],
          "data": "0x000000000000000000000000000000000000000000000000000000006786cf300000000000000000000000000000000000000000000000000003ae8db11f59cd0000000000000000000000000000000000000000000000000dc83f07836cd3fd",
          "blockHash": "0xee1fed735195876e16073f1d718d1a2370c528035780d812ef5528ad9424b110",
          "blockNumber": "0x725270",
          "transactionHash": "0x65bf07f2a7f357d8e5ca98488b78d6f07c1ca9575b1447166cb4491bb2e62c45",
          "transactionIndex": "0x4c",
          "logIndex": "0x84",
          "removed": false
        }
      ],
      "logsBloom": "0x00000000000000000000000000000000000000000000000000000000000000000000000000000000000000000000000020000000000000004000000000000000000000000000000000000008000000000000000000000000000000000000000000000000020000000000000000000800020000000000000000000010000000000000000000010000000000000000000000000000000000000000010000000000000000000000000000000000000000004000000000000000000000000000000000000002000000800000000000000000000000000000080000008000000020000000000000000000000000000000000000000000000000000000000000000000",
      "type": "0x2",
      "transactionHash": "0x65bf07f2a7f357d8e5ca98488b78d6f07c1ca9575b1447166cb4491bb2e62c45",
      "transactionIndex": "0x4c",
      "blockHash": "0xee1fed735195876e16073f1d718d1a2370c528035780d812ef5528ad9424b110",
      "blockNumber": "0x725270",
      "gasUsed": "0xfb93",
      "effectiveGasPrice": "0x45a9d2fee",
      "from": "0xc77f7fed3b5cc8249adc428c5f44c9063b9734b4",
      "to": "0x270e88f8683660553e8ba4eb2ad7c91a1710d769",
      "contractAddress": null
    }
  ],
  "libraries": [],
  "pending": [],
  "returns": {},
  "timestamp": 1736888113,
  "chain": 11155111,
  "commit": "51a374b"
}