{
  "transactions": [
    {
      "hash": "0x68b47b85db73e1889c4459eb9ae4b21b88f1b99daa0d97678a85a932a9bcf9d7",
      "transactionType": "CALL",
      "contractName": null,
      "contractAddress": "0x8aafd3ede9adb0ff97c7aebce82a919afb1c8764",
      "function": "sell(uint256)",
      "arguments": [
        "88381795105797"
      ],
      "transaction": {
        "from": "0xc77f7fed3b5cc8249adc428c5f44c9063b9734b4",
        "to": "0x8aafd3ede9adb0ff97c7aebce82a919afb1c8764",
        "gas": "0x15daa",
        "value": "0x0",
        "input": "0xe4849b3200000000000000000000000000000000000000000000000000005061fd807c05",
        "nonce": "0x162b",
        "chainId": "0xaa36a7"
      },
      "additionalContracts": [],
      "isFixedGasLimit": false
    }
  ],
  "receipts": [
    {
      "status": "0x1",
      "cumulativeGasUsed": "0xea0577",
      "logs": [
        {
          "address": "0x8aafd3ede9adb0ff97c7aebce82a919afb1c8764",
          "topics": [
            "0xddf252ad1be2c89b69c2b068fc378daa952ba7f163c4a11628f55a4df523b3ef",
            "0x000000000000000000000000c77f7fed3b5cc8249adc428c5f44c9063b9734b4",
            "0x0000000000000000000000000000000000000000000000000000000000000000"
          ],
          "data": "0x00000000000000000000000000000000000000000000000000004fbd5dc722f7",
          "blockHash": "0x9502046aa10fe2959987a989732d9ad82b8303239262d7becf8807b9b57f5ab4",
          "blockNumber": "0x731dc3",
          "transactionHash": "0x68b47b85db73e1889c4459eb9ae4b21b88f1b99daa0d97678a85a932a9bcf9d7",
          "transactionIndex": "0x93",
          "logIndex": "0xcb",
          "removed": false
        },
        {
          "address": "0x8aafd3ede9adb0ff97c7aebce82a919afb1c8764",
          "topics": [
            "0xddf252ad1be2c89b69c2b068fc378daa952ba7f163c4a11628f55a4df523b3ef",
            "0x000000000000000000000000c77f7fed3b5cc8249adc428c5f44c9063b9734b4",
            "0x000000000000000000000000c77f7fed3b5cc8249adc428c5f44c9063b9734b4"
          ],
          "data": "0x000000000000000000000000000000000000000000000000000000a49fb9590e",
          "blockHash": "0x9502046aa10fe2959987a989732d9ad82b8303239262d7becf8807b9b57f5ab4",
          "blockNumber": "0x731dc3",
          "transactionHash": "0x68b47b85db73e1889c4459eb9ae4b21b88f1b99daa0d97678a85a932a9bcf9d7",
          "transactionIndex": "0x93",
          "logIndex": "0xcc",
          "removed": false
        },
        {
          "address": "0x8aafd3ede9adb0ff97c7aebce82a919afb1c8764",
          "topics": [
            "0x4afcb4a87cdbd9974efdb92ee48bc8d7cd0ae4bf217004db3d080cbaee652ca7"
          ],
          "data": "0x000000000000000000000000000000000000000000000000000000006790620c00000000000000000000000000000000000000000000000000148aabbc5c930500000000000000000000000000000000000000000000000000000076fb3790f7",
          "blockHash": "0x9502046aa10fe2959987a989732d9ad82b8303239262d7becf8807b9b57f5ab4",
          "blockNumber": "0x731dc3",
          "transactionHash": "0x68b47b85db73e1889c4459eb9ae4b21b88f1b99daa0d97678a85a932a9bcf9d7",
          "transactionIndex": "0x93",
          "logIndex": "0xcd",
          "removed": false
        }
      ],
      "logsBloom": "0x00000000000000000000000000000000000000000600000000000000000000000000000000000000000000000000000000000000000000004000000000000000000000000000004000000008000000000000000000000000000000000000000000000000020000000000000000000800020000000000000000000010000000000000000000000000000000000000000000000000000000000000010000000000000000000000000000000000000000004000000000000000000000000000000000000002000000800000000000000000000000000000080000000000000020000000000000000000000000000000000000000000000000000000000000000000",
      "type": "0x2",
      "transactionHash": "0x68b47b85db73e1889c4459eb9ae4b21b88f1b99daa0d97678a85a932a9bcf9d7",
      "transactionIndex": "0x93",
      "blockHash": "0x9502046aa10fe2959987a989732d9ad82b8303239262d7becf8807b9b57f5ab4",
      "blockNumber": "0x731dc3",
      "gasUsed": "0xfd27",
      "effectiveGasPrice": "0x58cccae4",
      "from": "0xc77f7fed3b5cc8249adc428c5f44c9063b9734b4",
      "to": "0x8aafd3ede9adb0ff97c7aebce82a919afb1c8764",
      "contractAddress": null
    }
  ],
  "libraries": [],
  "pending": [],
  "returns": {},
  "timestamp": 1737515533,
  "chain": 11155111,
  "commit": "1d2fb70"
}