{
  "transactions": [
    {
      "hash": "0xcc442d48a19f0162ba2df04d4829807d6fbcfe5a0ec046907076c57b204913d4",
      "transactionType": "CALL",
      "contractName": null,
      "contractAddress": "0x270e88f8683660553e8ba4eb2ad7c91a1710d769",
      "function": "buy(address)",
      "arguments": [
        "0xC77f7fed3b5Cc8249aDc428c5F44C9063B9734b4"
      ],
      "transaction": {
        "from": "0xc77f7fed3b5cc8249adc428c5f44c9063b9734b4",
        "to": "0x270e88f8683660553e8ba4eb2ad7c91a1710d769",
        "gas": "0x1b30c",
        "value": "0xde0b6b3a7640000",
        "input": "0xf088d547000000000000000000000000c77f7fed3b5cc8249adc428c5f44c9063b9734b4",
        "nonce": "0x747",
        "chainId": "0xaa36a7"
      },
      "additionalContracts": [],
      "isFixedGasLimit": false
    }
  ],
  "receipts": [
    {
      "status": "0x1",
      "cumulativeGasUsed": "0xc6cce4",
      "logs": [
        {
          "address": "0x270e88f8683660553e8ba4eb2ad7c91a1710d769",
          "topics": [
            "0xddf252ad1be2c89b69c2b068fc378daa952ba7f163c4a11628f55a4df523b3ef",
            "0x0000000000000000000000000000000000000000000000000000000000000000",
            "0x000000000000000000000000c77f7fed3b5cc8249adc428c5f44c9063b9734b4"
          ],
          "data": "0x000000000000000000000000000000000000000000000027eed40222b94a5a63",
          "blockHash": "0xdc8c2c6d0b579fa075aaaa4629b271f190202659689aa27fcb9f0bf1368ab45e",
          "blockNumber": "0x72546a",
          "transactionHash": "0xcc442d48a19f0162ba2df04d4829807d6fbcfe5a0ec046907076c57b204913d4",
          "transactionIndex": "0x43",
          "logIndex": "0x8b",
          "removed": false
        },
        {
          "address": "0x270e88f8683660553e8ba4eb2ad7c91a1710d769",
          "topics": [
            "0xddf252ad1be2c89b69c2b068fc378daa952ba7f163c4a11628f55a4df523b3ef",
            "0x0000000000000000000000000000000000000000000000000000000000000000",
            "0x000000000000000000000000c77f7fed3b5cc8249adc428c5f44c9063b9734b4"
          ],
          "data": "0x0000000000000000000000000000000000000000000000001f025ff08334c60a",
          "blockHash": "0xdc8c2c6d0b579fa075aaaa4629b271f190202659689aa27fcb9f0bf1368ab45e",
          "blockNumber": "0x72546a",
          "transactionHash": "0xcc442d48a19f0162ba2df04d4829807d6fbcfe5a0ec046907076c57b204913d4",
          "transactionIndex": "0x43",
          "logIndex": "0x8c",
          "removed": false
        },
        {
          "address": "0x270e88f8683660553e8ba4eb2ad7c91a1710d769",
          "topics": [
            "0x4afcb4a87cdbd9974efdb92ee48bc8d7cd0ae4bf217004db3d080cbaee652ca7"
          ],
          "data": "0x000000000000000000000000000000000000000000000000000000006786e7000000000000000000000000000000000000000000000000000004c66c7a105e440000000000000000000000000000000000000000000000000de0b6b3a7640000",
          "blockHash": "0xdc8c2c6d0b579fa075aaaa4629b271f190202659689aa27fcb9f0bf1368ab45e",
          "blockNumber": "0x72546a",
          "transactionHash": "0xcc442d48a19f0162ba2df04d4829807d6fbcfe5a0ec046907076c57b204913d4",
          "transactionIndex": "0x43",
          "logIndex": "0x8d",
          "removed": false
        }
      ],
      "logsBloom": "0x00000000000000000000000000000000000000000000000000000000000000000000000000000000000000000000000020000000000000004000000000000000000000000000000000000008000000000000000000000000000000000000000000000000020000000000000000000800020000000000000000000010000000000000000000010000000000000000000000000000000000000000010000000000000000000000000000000000000000004000000000000000000000000000000000000002000000800000000000000000000000000000080000008000000020000000000000000000000000000000000000000000000000000000000000000000",
      "type": "0x2",
      "transactionHash": "0xcc442d48a19f0162ba2df04d4829807d6fbcfe5a0ec046907076c57b204913d4",
      "transactionIndex": "0x43",
      "blockHash": "0xdc8c2c6d0b579fa075aaaa4629b271f190202659689aa27fcb9f0bf1368ab45e",
      "blockNumber": "0x72546a",
      "gasUsed": "0x13af8",
      "effectiveGasPrice": "0x15154c683",
      "from": "0xc77f7fed3b5cc8249adc428c5f44c9063b9734b4",
      "to": "0x270e88f8683660553e8ba4eb2ad7c91a1710d769",
      "contractAddress": null
    }
  ],
  "libraries": [],
  "pending": [],
  "returns": {},
  "timestamp": 1736894209,
  "chain": 11155111,
  "commit": "51a374b"
}