{
  "transactions": [
    {
      "hash": "0x4e4e0e93af4eec9e3f0905cd4f25843e777813e0b0b7355036ae0bd1a33efc09",
      "transactionType": "CALL",
      "contractName": null,
      "contractAddress": "0xbf4a322f1496e5c3d34a9bcdb4c60567b38c7de2",
      "function": "buy(address)",
      "arguments": [
        "0xC77f7fed3b5Cc8249aDc428c5F44C9063B9734b4"
      ],
      "transaction": {
        "from": "0xc77f7fed3b5cc8249adc428c5f44c9063b9734b4",
        "to": "0xbf4a322f1496e5c3d34a9bcdb4c60567b38c7de2",
        "gas": "0x1b309",
        "value": "0xde0b6b3a7640000",
        "input": "0xf088d547000000000000000000000000c77f7fed3b5cc8249adc428c5f44c9063b9734b4",
        "nonce": "0xce0",
        "chainId": "0xaa36a7"
      },
      "additionalContracts": [],
      "isFixedGasLimit": false
    }
  ],
  "receipts": [
    {
      "status": "0x1",
      "cumulativeGasUsed": "0xbe59d6",
      "logs": [
        {
          "address": "0xbf4a322f1496e5c3d34a9bcdb4c60567b38c7de2",
          "topics": [
            "0xddf252ad1be2c89b69c2b068fc378daa952ba7f163c4a11628f55a4df523b3ef",
            "0x0000000000000000000000000000000000000000000000000000000000000000",
            "0x000000000000000000000000c77f7fed3b5cc8249adc428c5f44c9063b9734b4"
          ],
          "data": "0x000000000000000000000000000000000000000000000034d1db2a0c1f7e464f",
          "blockHash": "0xbd952f7143a35e1785177cb40065cfcdb22759e0f6942a3b348ffc8ed53409ba",
          "blockNumber": "0x725d31",
          "transactionHash": "0x4e4e0e93af4eec9e3f0905cd4f25843e777813e0b0b7355036ae0bd1a33efc09",
          "transactionIndex": "0x69",
          "logIndex": "0xed",
          "removed": false
        },
        {
          "address": "0xbf4a322f1496e5c3d34a9bcdb4c60567b38c7de2",
          "topics": [
            "0xddf252ad1be2c89b69c2b068fc378daa952ba7f163c4a11628f55a4df523b3ef",
            "0x0000000000000000000000000000000000000000000000000000000000000000",
            "0x000000000000000000000000c77f7fed3b5cc8249adc428c5f44c9063b9734b4"
          ],
          "data": "0x00000000000000000000000000000000000000000000000029042eb83712fb24",
          "blockHash": "0xbd952f7143a35e1785177cb40065cfcdb22759e0f6942a3b348ffc8ed53409ba",
          "blockNumber": "0x725d31",
          "transactionHash": "0x4e4e0e93af4eec9e3f0905cd4f25843e777813e0b0b7355036ae0bd1a33efc09",
          "transactionIndex": "0x69",
          "logIndex": "0xee",
          "removed": false
        },
        {
          "address": "0xbf4a322f1496e5c3d34a9bcdb4c60567b38c7de2",
          "topics": [
            "0x4afcb4a87cdbd9974efdb92ee48bc8d7cd0ae4bf217004db3d080cbaee652ca7"
          ],
          "data": "0x00000000000000000000000000000000000000000000000000000000678750c000000000000000000000000000000000000000000000000000039c1c1bb923960000000000000000000000000000000000000000000000000de0b6b3a7640000",
          "blockHash": "0xbd952f7143a35e1785177cb40065cfcdb22759e0f6942a3b348ffc8ed53409ba",
          "blockNumber": "0x725d31",
          "transactionHash": "0x4e4e0e93af4eec9e3f0905cd4f25843e777813e0b0b7355036ae0bd1a33efc09",
          "transactionIndex": "0x69",
          "logIndex": "0xef",
          "removed": false
        }
      ],
      "logsBloom": "0x00000000000000000000000000000000000000000000000000000000000000000000000000000000000000000000000000000000000000004000000000000000000000000000000000000008000000000000001000000000000000000000000000000000020000000000000000000800020000000000000000000010000000000000000000000000000000000000000000000000000008000000010000000000000000000000000000000000000000004000000000000000000000000000000000000002000000800000000000001000000000000000080000000000000020000000000000000000000000000000000000000000000000000000000000000000",
      "type": "0x2",
      "transactionHash": "0x4e4e0e93af4eec9e3f0905cd4f25843e777813e0b0b7355036ae0bd1a33efc09",
      "transactionIndex": "0x69",
      "blockHash": "0xbd952f7143a35e1785177cb40065cfcdb22759e0f6942a3b348ffc8ed53409ba",
      "blockNumber": "0x725d31",
      "gasUsed": "0x13af6",
      "effectiveGasPrice": "0x4f1a6a4b5",
      "from": "0xc77f7fed3b5cc8249adc428c5f44c9063b9734b4",
      "to": "0xbf4a322f1496e5c3d34a9bcdb4c60567b38c7de2",
      "contractAddress": null
    }
  ],
  "libraries": [],
  "pending": [],
  "returns": {},
  "timestamp": 1736921282,
  "chain": 11155111,
  "commit": "51a374b"
}