{
  "transactions": [
    {
      "hash": "0x99916412c5492e2d91e1f093a591d3d1a949002f63949b6c5a10e714d7f65a48",
      "transactionType": "CALL",
      "contractName": null,
      "contractAddress": "0x8aafd3ede9adb0ff97c7aebce82a919afb1c8764",
      "function": "sell(uint256)",
      "arguments": [
        "742182773184649486066"
      ],
      "transaction": {
        "from": "0xc77f7fed3b5cc8249adc428c5f44c9063b9734b4",
        "to": "0x8aafd3ede9adb0ff97c7aebce82a919afb1c8764",
        "gas": "0x17270",
        "value": "0x0",
        "input": "0xe4849b320000000000000000000000000000000000000000000000283bdae3f56557def2",
        "nonce": "0xf5d",
        "chainId": "0xaa36a7"
      },
      "additionalContracts": [],
      "isFixedGasLimit": false
    }
  ],
  "receipts": [
    {
      "status": "0x1",
      "cumulativeGasUsed": "0xd4b723",
      "logs": [
        {
          "address": "0x8aafd3ede9adb0ff97c7aebce82a919afb1c8764",
          "topics": [
            "0xddf252ad1be2c89b69c2b068fc378daa952ba7f163c4a11628f55a4df523b3ef",
            "0x000000000000000000000000c77f7fed3b5cc8249adc428c5f44c9063b9734b4",
            "0x0000000000000000000000000000000000000000000000000000000000000000"
          ],
          "data": "0x000000000000000000000000000000000000000000000027e974c98f14a91682",
          "blockHash": "0x47ca7668a5fde82510d45a7adbf76243af9523ecd7e23a518f82427638e643fc",
          "blockNumber": "0x7315ba",
          "transactionHash": "0x99916412c5492e2d91e1f093a591d3d1a949002f63949b6c5a10e714d7f65a48",
          "transactionIndex": "0x89",
          "logIndex": "0xcf",
          "removed": false
        },
        {
          "address": "0x8aafd3ede9adb0ff97c7aebce82a919afb1c8764",
          "topics": [
            "0xddf252ad1be2c89b69c2b068fc378daa952ba7f163c4a11628f55a4df523b3ef",
            "0x000000000000000000000000c77f7fed3b5cc8249adc428c5f44c9063b9734b4",
            "0x000000000000000000000000c77f7fed3b5cc8249adc428c5f44c9063b9734b4"
          ],
          "data": "0x00000000000000000000000000000000000000000000000052661a6650aec870",
          "blockHash": "0x47ca7668a5fde82510d45a7adbf76243af9523ecd7e23a518f82427638e643fc",
          "blockNumber": "0x7315ba",
          "transactionHash": "0x99916412c5492e2d91e1f093a591d3d1a949002f63949b6c5a10e714d7f65a48",
          "transactionIndex": "0x89",
          "logIndex": "0xd0",
          "removed": false
        },
        {
          "address": "0x8aafd3ede9adb0ff97c7aebce82a919afb1c8764",
          "topics": [
            "0x4afcb4a87cdbd9974efdb92ee48bc8d7cd0ae4bf217004db3d080cbaee652ca7"
          ],
          "data": "0x00000000000000000000000000000000000000000000000000000000679001640000000000000000000000000000000000000000000000000004c12f173ff1f50000000000000000000000000000000000000000000000000dc8215317ed7c7f",
          "blockHash": "0x47ca7668a5fde82510d45a7adbf76243af9523ecd7e23a518f82427638e643fc",
          "blockNumber": "0x7315ba",
          "transactionHash": "0x99916412c5492e2d91e1f093a591d3d1a949002f63949b6c5a10e714d7f65a48",
          "transactionIndex": "0x89",
          "logIndex": "0xd1",
          "removed": false
        }
      ],
      "logsBloom": "0x00000000000000000000000000000000000000000600000000000000000000000000000000000000000000000000000000000000000000004000000000000000000000000000004000000008000000000000000000000000000000000000000000000000020000000000000000000800020000000000000000000010000000000000000000000000000000000000000000000000000000000000010000000000000000000000000000000000000000004000000000000000000000000000000000000002000000800000000000000000000000000000080000000000000020000000000000000000000000000000000000000000000000000000000000000000",
      "type": "0x2",
      "transactionHash": "0x99916412c5492e2d91e1f093a591d3d1a949002f63949b6c5a10e714d7f65a48",
      "transactionIndex": "0x89",
      "blockHash": "0x47ca7668a5fde82510d45a7adbf76243af9523ecd7e23a518f82427638e643fc",
      "blockNumber": "0x7315ba",
      "gasUsed": "0xfd4b",
      "effectiveGasPrice": "0x7cc66e60",
      "from": "0xc77f7fed3b5cc8249adc428c5f44c9063b9734b4",
      "to": "0x8aafd3ede9adb0ff97c7aebce82a919afb1c8764",
      "contractAddress": null
    }
  ],
  "libraries": [],
  "pending": [],
  "returns": {},
  "timestamp": 1737490789,
  "chain": 11155111,
  "commit": "1d2fb70"
}