{
  "transactions": [
    {
      "hash": "0xffe8a03f428535662d400f16d30248977b38c2dc2fe593bdbe7304a93f585c7c",
      "transactionType": "CALL",
      "contractName": null,
      "contractAddress": "0x8aafd3ede9adb0ff97c7aebce82a919afb1c8764",
      "function": "buy(address)",
      "arguments": [
        "0xC77f7fed3b5Cc8249aDc428c5F44C9063B9734b4"
      ],
      "transaction": {
        "from": "0xc77f7fed3b5cc8249adc428c5f44c9063b9734b4",
        "to": "0x8aafd3ede9adb0ff97c7aebce82a919afb1c8764",
        "gas": "0x156ea",
        "value": "0xde0b6b3a7640000",
        "input": "0xf088d547000000000000000000000000c77f7fed3b5cc8249adc428c5f44c9063b9734b4",
        "nonce": "0x168a",
        "chainId": "0xaa36a7"
      },
      "additionalContracts": [],
      "isFixedGasLimit": false
    }
  ],
  "receipts": [
    {
      "status": "0x1",
      "cumulativeGasUsed": "0x18900d0",
      "logs": [
        {
          "address": "0x8aafd3ede9adb0ff97c7aebce82a919afb1c8764",
          "topics": [
            "0xddf252ad1be2c89b69c2b068fc378daa952ba7f163c4a11628f55a4df523b3ef",
            "0x0000000000000000000000000000000000000000000000000000000000000000",
            "0x000000000000000000000000c77f7fed3b5cc8249adc428c5f44c9063b9734b4"
          ],
          "data": "0x000000000000000000000000000000000000000000000008d4dbc6fa94f4ee25",
          "blockHash": "0x2e38a5788c43000641de63f996ef1f0467e1b9ddb9a071d6b9bc832b30f3e00e",
          "blockNumber": "0x731e3f",
          "transactionHash": "0xffe8a03f428535662d400f16d30248977b38c2dc2fe593bdbe7304a93f585c7c",
          "transactionIndex": "0xc6",
          "logIndex": "0x157",
          "removed": false
        },
        {
          "address": "0x8aafd3ede9adb0ff97c7aebce82a919afb1c8764",
          "topics": [
            "0xddf252ad1be2c89b69c2b068fc378daa952ba7f163c4a11628f55a4df523b3ef",
            "0x0000000000000000000000000000000000000000000000000000000000000000",
            "0x000000000000000000000000c77f7fed3b5cc8249adc428c5f44c9063b9734b4"
          ],
          "data": "0x00000000000000000000000000000000000000000000000006dba23d38966588",
          "blockHash": "0x2e38a5788c43000641de63f996ef1f0467e1b9ddb9a071d6b9bc832b30f3e00e",
          "blockNumber": "0x731e3f",
          "transactionHash": "0xffe8a03f428535662d400f16d30248977b38c2dc2fe593bdbe7304a93f585c7c",
          "transactionIndex": "0xc6",
          "logIndex": "0x158",
          "removed": false
        },
        {
          "address": "0x8aafd3ede9adb0ff97c7aebce82a919afb1c8764",
          "topics": [
            "0x4afcb4a87cdbd9974efdb92ee48bc8d7cd0ae4bf217004db3d080cbaee652ca7"
          ],
          "data": "0x00000000000000000000000000000000000000000000000000000000679067dc00000000000000000000000000000000000000000000000000159db6d200651a0000000000000000000000000000000000000000000000000de0b6b3a7640000",
          "blockHash": "0x2e38a5788c43000641de63f996ef1f0467e1b9ddb9a071d6b9bc832b30f3e00e",
          "blockNumber": "0x731e3f",
          "transactionHash": "0xffe8a03f428535662d400f16d30248977b38c2dc2fe593bdbe7304a93f585c7c",
          "transactionIndex": "0xc6",
          "logIndex": "0x159",
          "removed": false
        }
      ],
      "logsBloom": "0x00000000000000000000000000000000000000000600000000000000000000000000000000000000000000000000000000000000000000004000000000000000000000000000004000000008000000000000000000000000000000000000000000000000020000000000000000000800020000000000000000000010000000000000000000000000000000000000000000000000000000000000010000000000000000000000000000000000000000004000000000000000000000000000000000000002000000800000000000000000000000000000080000000000000020000000000000000000000000000000000000000000000000000000000000000000",
      "type": "0x2",
      "transactionHash": "0xffe8a03f428535662d400f16d30248977b38c2dc2fe593bdbe7304a93f585c7c",
      "transactionIndex": "0xc6",
      "blockHash": "0x2e38a5788c43000641de63f996ef1f0467e1b9ddb9a071d6b9bc832b30f3e00e",
      "blockNumber": "0x731e3f",
      "gasUsed": "0xf844",
      "effectiveGasPrice": "0x41a051a7",
      "from": "0xc77f7fed3b5cc8249adc428c5f44c9063b9734b4",
      "to": "0x8aafd3ede9adb0ff97c7aebce82a919afb1c8764",
      "contractAddress": null
    }
  ],
  "libraries": [],
  "pending": [],
  "returns": {},
  "timestamp": 1737517021,
  "chain": 11155111,
  "commit": "1d2fb70"
}