{
  "transactions": [
    {
      "hash": "0xaa31c897a99ea7c9e070fc6006cba8a80ac05b28c122dd655ab48a56fb8fe278",
      "transactionType": "CALL",
      "contractName": null,
      "contractAddress": "0x8aafd3ede9adb0ff97c7aebce82a919afb1c8764",
      "function": "sell(uint256)",
      "arguments": [
        "4631990282"
      ],
      "transaction": {
        "from": "0xc77f7fed3b5cc8249adc428c5f44c9063b9734b4",
        "to": "0x8aafd3ede9adb0ff97c7aebce82a919afb1c8764",
        "gas": "0x1722a",
        "value": "0x0",
        "input": "0xe4849b32000000000000000000000000000000000000000000000000000000011416900a",
        "nonce": "0x17b0",
        "chainId": "0xaa36a7"
      },
      "additionalContracts": [],
      "isFixedGasLimit": false
    }
  ],
  "receipts": [
    {
      "status": "0x1",
      "cumulativeGasUsed": "0xeabf70",
      "logs": [
        {
          "address": "0x8aafd3ede9adb0ff97c7aebce82a919afb1c8764",
          "topics": [
            "0xddf252ad1be2c89b69c2b068fc378daa952ba7f163c4a11628f55a4df523b3ef",
            "0x000000000000000000000000c77f7fed3b5cc8249adc428c5f44c9063b9734b4",
            "0x0000000000000000000000000000000000000000000000000000000000000000"
          ],
          "data": "0x0000000000000000000000000000000000000000000000000000000111e12258",
          "blockHash": "0x82d9ff76ce388cabdb364b2a5604ec17a9a654b376041d2f778dbe9093071c79",
          "blockNumber": "0x731f94",
          "transactionHash": "0xaa31c897a99ea7c9e070fc6006cba8a80ac05b28c122dd655ab48a56fb8fe278",
          "transactionIndex": "0x6e",
          "logIndex": "0xaa",
          "removed": false
        },
        {
          "address": "0x8aafd3ede9adb0ff97c7aebce82a919afb1c8764",
          "topics": [
            "0xddf252ad1be2c89b69c2b068fc378daa952ba7f163c4a11628f55a4df523b3ef",
            "0x000000000000000000000000c77f7fed3b5cc8249adc428c5f44c9063b9734b4",
            "0x000000000000000000000000c77f7fed3b5cc8249adc428c5f44c9063b9734b4"
          ],
          "data": "0x0000000000000000000000000000000000000000000000000000000002356db2",
          "blockHash": "0x82d9ff76ce388cabdb364b2a5604ec17a9a654b376041d2f778dbe9093071c79",
          "blockNumber": "0x731f94",
          "transactionHash": "0xaa31c897a99ea7c9e070fc6006cba8a80ac05b28c122dd655ab48a56fb8fe278",
          "transactionIndex": "0x6e",
          "logIndex": "0xab",
          "removed": false
        },
        {
          "address": "0x8aafd3ede9adb0ff97c7aebce82a919afb1c8764",
          "topics": [
            "0x4afcb4a87cdbd9974efdb92ee48bc8d7cd0ae4bf217004db3d080cbaee652ca7"
          ],
          "data": "0x00000000000000000000000000000000000000000000000000000000679077d8000000000000000000000000000000000000000000000000001910065e0922c30000000000000000000000000000000000000000000000000000000001f299fb",
          "blockHash": "0x82d9ff76ce388cabdb364b2a5604ec17a9a654b376041d2f778dbe9093071c79",
          "blockNumber": "0x731f94",
          "transactionHash": "0xaa31c897a99ea7c9e070fc6006cba8a80ac05b28c122dd655ab48a56fb8fe278",
          "transactionIndex": "0x6e",
          "logIndex": "0xac",
          "removed": false
        }
      ],
      "logsBloom": "0x00000000000000000000000000000000000000000600000000000000000000000000000000000000000000000000000000000000000000004000000000000000000000000000004000000008000000000000000000000000000000000000000000000000020000000000000000000800020000000000000000000010000000000000000000000000000000000000000000000000000000000000010000000000000000000000000000000000000000004000000000000000000000000000000000000002000000800000000000000000000000000000080000000000000020000000000000000000000000000000000000000000000000000000000000000000",
      "type": "0x2",
      "transactionHash": "0xaa31c897a99ea7c9e070fc6006cba8a80ac05b28c122dd655ab48a56fb8fe278",
      "transactionIndex": "0x6e",
      "blockHash": "0x82d9ff76ce388cabdb364b2a5604ec17a9a654b376041d2f778dbe9093071c79",
      "blockNumber": "0x731f94",
      "gasUsed": "0xfd1b",
      "effectiveGasPrice": "0x4960344e",
      "from": "0xc77f7fed3b5cc8249adc428c5f44c9063b9734b4",
      "to": "0x8aafd3ede9adb0ff97c7aebce82a919afb1c8764",
      "contractAddress": null
    }
  ],
  "libraries": [],
  "pending": [],
  "returns": {},
  "timestamp": 1737521113,
  "chain": 11155111,
  "commit": "1d2fb70"
}