{
  "transactions": [
    {
      "hash": "0xddd77e01e5654a522de701bfbffa3f06a148d3b1ddfba52b5e28ffe885c8cd9d",
      "transactionType": "CALL",
      "contractName": null,
      "contractAddress": "0x8aafd3ede9adb0ff97c7aebce82a919afb1c8764",
      "function": "sell(uint256)",
      "arguments": [
        "10935719471817660"
      ],
      "transaction": {
        "from": "0xc77f7fed3b5cc8249adc428c5f44c9063b9734b4",
        "to": "0x8aafd3ede9adb0ff97c7aebce82a919afb1c8764",
        "gas": "0x1724d",
        "value": "0x0",
        "input": "0xe4849b320000000000000000000000000000000000000000000000000026d9fa9a7b23bc",
        "nonce": "0x163c",
        "chainId": "0xaa36a7"
      },
      "additionalContracts": [],
      "isFixedGasLimit": false
    }
  ],
  "receipts": [
    {
      "status": "0x1",
      "cumulativeGasUsed": "0x1308e8b",
      "logs": [
        {
          "address": "0x8aafd3ede9adb0ff97c7aebce82a919afb1c8764",
          "topics": [
            "0xddf252ad1be2c89b69c2b068fc378daa952ba7f163c4a11628f55a4df523b3ef",
            "0x000000000000000000000000c77f7fed3b5cc8249adc428c5f44c9063b9734b4",
            "0x0000000000000000000000000000000000000000000000000000000000000000"
          ],
          "data": "0x00000000000000000000000000000000000000000000000000268a693d15cd6f",
          "blockHash": "0xdc353d0a058da2f0268b814275a1b8c11a2e8cb4a7b9447a1bb28bb9076aec3a",
          "blockNumber": "0x731dd5",
          "transactionHash": "0xddd77e01e5654a522de701bfbffa3f06a148d3b1ddfba52b5e28ffe885c8cd9d",
          "transactionIndex": "0xaa",
          "logIndex": "0x12b",
          "removed": false
        },
        {
          "address": "0x8aafd3ede9adb0ff97c7aebce82a919afb1c8764",
          "topics": [
            "0xddf252ad1be2c89b69c2b068fc378daa952ba7f163c4a11628f55a4df523b3ef",
            "0x000000000000000000000000c77f7fed3b5cc8249adc428c5f44c9063b9734b4",
            "0x000000000000000000000000c77f7fed3b5cc8249adc428c5f44c9063b9734b4"
          ],
          "data": "0x00000000000000000000000000000000000000000000000000004f915d65564d",
          "blockHash": "0xdc353d0a058da2f0268b814275a1b8c11a2e8cb4a7b9447a1bb28bb9076aec3a",
          "blockNumber": "0x731dd5",
          "transactionHash": "0xddd77e01e5654a522de701bfbffa3f06a148d3b1ddfba52b5e28ffe885c8cd9d",
          "transactionIndex": "0xaa",
          "logIndex": "0x12c",
          "removed": false
        },
        {
          "address": "0x8aafd3ede9adb0ff97c7aebce82a919afb1c8764",
          "topics": [
            "0x4afcb4a87cdbd9974efdb92ee48bc8d7cd0ae4bf217004db3d080cbaee652ca7"
          ],
          "data": "0x00000000000000000000000000000000000000000000000000000000679062e40000000000000000000000000000000000000000000000000014c044def61aaf00000000000000000000000000000000000000000000000000003a17eda3bb2d",
          "blockHash": "0xdc353d0a058da2f0268b814275a1b8c11a2e8cb4a7b9447a1bb28bb9076aec3a",
          "blockNumber": "0x731dd5",
          "transactionHash": "0xddd77e01e5654a522de701bfbffa3f06a148d3b1ddfba52b5e28ffe885c8cd9d",
          "transactionIndex": "0xaa",
          "logIndex": "0x12d",
          "removed": false
        }
      ],
      "logsBloom": "0x00000000000000000000000000000000000000000600000000000000000000000000000000000000000000000000000000000000000000004000000000000000000000000000004000000008000000000000000000000000000000000000000000000000020000000000000000000800020000000000000000000010000000000000000000000000000000000000000000000000000000000000010000000000000000000000000000000000000000004000000000000000000000000000000000000002000000800000000000000000000000000000080000000000000020000000000000000000000000000000000000000000000000000000000000000000",
      "type": "0x2",
      "transactionHash": "0xddd77e01e5654a522de701bfbffa3f06a148d3b1ddfba52b5e28ffe885c8cd9d",
      "transactionIndex": "0xaa",
      "blockHash": "0xdc353d0a058da2f0268b814275a1b8c11a2e8cb4a7b9447a1bb28bb9076aec3a",
      "blockNumber": "0x731dd5",
      "gasUsed": "0xfd33",
      "effectiveGasPrice": "0x4bcae671",
      "from": "0xc77f7fed3b5cc8249adc428c5f44c9063b9734b4",
      "to": "0x8aafd3ede9adb0ff97c7aebce82a919afb1c8764",
      "contractAddress": null
    }
  ],
  "libraries": [],
  "pending": [],
  "returns": {},
  "timestamp": 1737515750,
  "chain": 11155111,
  "commit": "1d2fb70"
}