{
  "transactions": [
    {
      "hash": "0xa0a46a516fb68d12731fe1bc01114e27bc600197dc90fe251bda6a2c7ad1529e",
      "transactionType": "CALL",
      "contractName": null,
      "contractAddress": "0x8aafd3ede9adb0ff97c7aebce82a919afb1c8764",
      "function": "sell(uint256)",
      "arguments": [
        "23215735343"
      ],
      "transaction": {
        "from": "0xc77f7fed3b5cc8249adc428c5f44c9063b9734b4",
        "to": "0x8aafd3ede9adb0ff97c7aebce82a919afb1c8764",
        "gas": "0x1722a",
        "value": "0x0",
        "input": "0xe4849b320000000000000000000000000000000000000000000000000000000567c4022f",
        "nonce": "0x1096",
        "chainId": "0xaa36a7"
      },
      "additionalContracts": [],
      "isFixedGasLimit": false
    }
  ],
  "receipts": [
    {
      "status": "0x1",
      "cumulativeGasUsed": "0xc3a7df",
      "logs": [
        {
          "address": "0x8aafd3ede9adb0ff97c7aebce82a919afb1c8764",
          "topics": [
            "0xddf252ad1be2c89b69c2b068fc378daa952ba7f163c4a11628f55a4df523b3ef",
            "0x000000000000000000000000c77f7fed3b5cc8249adc428c5f44c9063b9734b4",
            "0x0000000000000000000000000000000000000000000000000000000000000000"
          ],
          "data": "0x000000000000000000000000000000000000000000000000000000055cb20e75",
          "blockHash": "0x757a938e52bd7d5949fa6685f3ca34a8f115a5592162cb2f574a6ef28afdb970",
          "blockNumber": "0x731725",
          "transactionHash": "0xa0a46a516fb68d12731fe1bc01114e27bc600197dc90fe251bda6a2c7ad1529e",
          "transactionIndex": "0x9b",
          "logIndex": "0xb2",
          "removed": false
        },
        {
          "address": "0x8aafd3ede9adb0ff97c7aebce82a919afb1c8764",
          "topics": [
            "0xddf252ad1be2c89b69c2b068fc378daa952ba7f163c4a11628f55a4df523b3ef",
            "0x000000000000000000000000c77f7fed3b5cc8249adc428c5f44c9063b9734b4",
            "0x000000000000000000000000c77f7fed3b5cc8249adc428c5f44c9063b9734b4"
          ],
          "data": "0x000000000000000000000000000000000000000000000000000000000b11f3ba",
          "blockHash": "0x757a938e52bd7d5949fa6685f3ca34a8f115a5592162cb2f574a6ef28afdb970",
          "blockNumber": "0x731725",
          "transactionHash": "0xa0a46a516fb68d12731fe1bc01114e27bc600197dc90fe251bda6a2c7ad1529e",
          "transactionIndex": "0x9b",
          "logIndex": "0xb3",
          "removed": false
        },
        {
          "address": "0x8aafd3ede9adb0ff97c7aebce82a919afb1c8764",
          "topics": [
            "0x4afcb4a87cdbd9974efdb92ee48bc8d7cd0ae4bf217004db3d080cbaee652ca7"
          ],
          "data": "0x00000000000000000000000000000000000000000000000000000000679012800000000000000000000000000000000000000000000000000004fc2eaec8738a0000000000000000000000000000000000000000000000000000000001f11131",
          "blockHash": "0x757a938e52bd7d5949fa6685f3ca34a8f115a5592162cb2f574a6ef28afdb970",
          "blockNumber": "0x731725",
          "transactionHash": "0xa0a46a516fb68d12731fe1bc01114e27bc600197dc90fe251bda6a2c7ad1529e",
          "transactionIndex": "0x9b",
          "logIndex": "0xb4",
          "removed": false
        }
      ],
      "logsBloom": "0x00000000000000000000000000000000000000000600000000000000000000000000000000000000000000000000000000000000000000004000000000000000000000000000004000000008000000000000000000000000000000000000000000000000020000000000000000000800020000000000000000000010000000000000000000000000000000000000000000000000000000000000010000000000000000000000000000000000000000004000000000000000000000000000000000000002000000800000000000000000000000000000080000000000000020000000000000000000000000000000000000000000000000000000000000000000",
      "type": "0x2",
      "transactionHash": "0xa0a46a516fb68d12731fe1bc01114e27bc600197dc90fe251bda6a2c7ad1529e",
      "transactionIndex": "0x9b",
      "blockHash": "0x757a938e52bd7d5949fa6685f3ca34a8f115a5592162cb2f574a6ef28afdb970",
      "blockNumber": "0x731725",
      "gasUsed": "0xfd1b",
      "effectiveGasPrice": "0x4871e51a",
      "from": "0xc77f7fed3b5cc8249adc428c5f44c9063b9734b4",
      "to": "0x8aafd3ede9adb0ff97c7aebce82a919afb1c8764",
      "contractAddress": null
    }
  ],
  "libraries": [],
  "pending": [],
  "returns": {},
  "timestamp": 1737495169,
  "chain": 11155111,
  "commit": "1d2fb70"
}