{
  "transactions": [
    {
      "hash": "0x7b3427a49019c4867f184407473c068b65006dc4f8b5f1f797c56eb609904c0a",
      "transactionType": "CALL",
      "contractName": null,
      "contractAddress": "0x270e88f8683660553e8ba4eb2ad7c91a1710d769",
      "function": "buy(address)",
      "arguments": [
        "0xC77f7fed3b5Cc8249aDc428c5F44C9063B9734b4"
      ],
      "transaction": {
        "from": "0xc77f7fed3b5cc8249adc428c5f44c9063b9734b4",
        "to": "0x270e88f8683660553e8ba4eb2ad7c91a1710d769",
        "gas": "0x1b30c",
        "value": "0xde0b6b3a7640000",
        "input": "0xf088d547000000000000000000000000c77f7fed3b5cc8249adc428c5f44c9063b9734b4",
        "nonce": "0x5bc",
        "chainId": "0xaa36a7"
      },
      "additionalContracts": [],
      "isFixedGasLimit": false
    }
  ],
  "receipts": [
    {
      "status": "0x1",
      "cumulativeGasUsed": "0x80d6e9",
      "logs": [
        {
          "address": "0x270e88f8683660553e8ba4eb2ad7c91a1710d769",
          "topics": [
            "0xddf252ad1be2c89b69c2b068fc378daa952ba7f163c4a11628f55a4df523b3ef",
            "0x0000000000000000000000000000000000000000000000000000000000000000",
            "0x000000000000000000000000c77f7fed3b5cc8249adc428c5f44c9063b9734b4"
          ],
          "data": "0x000000000000000000000000000000000000000000000033bccc9d24ed65f3fc",
          "blockHash": "0x1b4f6555982479a5fe580465a4af8082f3ab99be7ee55e91fa456c755a411ecb",
          "blockNumber": "0x72527a",
          "transactionHash": "0x7b3427a49019c4867f184407473c068b65006dc4f8b5f1f797c56eb609904c0a",
          "transactionIndex": "0x40",
          "logIndex": "0xa8",
          "removed": false
        },
        {
          "address": "0x270e88f8683660553e8ba4eb2ad7c91a1710d769",
          "topics": [
            "0xddf252ad1be2c89b69c2b068fc378daa952ba7f163c4a11628f55a4df523b3ef",
            "0x0000000000000000000000000000000000000000000000000000000000000000",
            "0x000000000000000000000000c77f7fed3b5cc8249adc428c5f44c9063b9734b4"
          ],
          "data": "0x000000000000000000000000000000000000000000000000282d09d57af44fd2",
          "blockHash": "0x1b4f6555982479a5fe580465a4af8082f3ab99be7ee55e91fa456c755a411ecb",
          "blockNumber": "0x72527a",
          "transactionHash": "0x7b3427a49019c4867f184407473c068b65006dc4f8b5f1f797c56eb609904c0a",
          "transactionIndex": "0x40",
          "logIndex": "0xa9",
          "removed": false
        },
        {
          "address": "0x270e88f8683660553e8ba4eb2ad7c91a1710d769",
          "topics": [
            "0x4afcb4a87cdbd9974efdb92ee48bc8d7cd0ae4bf217004db3d080cbaee652ca7"
          ],
          "data": "0x000000000000000000000000000000000000000000000000000000006786cfa80000000000000000000000000000000000000000000000000003af891c32f3420000000000000000000000000000000000000000000000000de0b6b3a7640000",
          "blockHash": "0x1b4f6555982479a5fe580465a4af8082f3ab99be7ee55e91fa456c755a411ecb",
          "blockNumber": "0x72527a",
          "transactionHash": "0x7b3427a49019c4867f184407473c068b65006dc4f8b5f1f797c56eb609904c0a",
          "transactionIndex": "0x40",
          "logIndex": "0xaa",
          "removed": false
        }
      ],
      "logsBloom": "0x00000000000000000000000000000000000000000000000000000000000000000000000000000000000000000000000020000000000000004000000000000000000000000000000000000008000000000000000000000000000000000000000000000000020000000000000000000800020000000000000000000010000000000000000000010000000000000000000000000000000000000000010000000000000000000000000000000000000000004000000000000000000000000000000000000002000000800000000000000000000000000000080000008000000020000000000000000000000000000000000000000000000000000000000000000000",
      "type": "0x2",
      "transactionHash": "0x7b3427a49019c4867f184407473c068b65006dc4f8b5f1f797c56eb609904c0a",
      "transactionIndex": "0x40",
      "blockHash": "0x1b4f6555982479a5fe580465a4af8082f3ab99be7ee55e91fa456c755a411ecb",
      "blockNumber": "0x72527a",
      "gasUsed": "0x13af8",
      "effectiveGasPrice": "0x4505d1bba",
      "from": "0xc77f7fed3b5cc8249adc428c5f44c9063b9734b4",
      "to": "0x270e88f8683660553e8ba4eb2ad7c91a1710d769",
      "contractAddress": null
    }
  ],
  "libraries": [],
  "pending": [],
  "returns": {},
  "timestamp": 1736888233,
  "chain": 11155111,
  "commit": "51a374b"
}