{
  "transactions": [
    {
      "hash": "0x222fb2604f1da74edc2785eac86d77aea55bb222f667f6049507c0ebdcb1085c",
      "transactionType": "CALL",
      "contractName": null,
      "contractAddress": "0x8aafd3ede9adb0ff97c7aebce82a919afb1c8764",
      "function": "sell(uint256)",
      "arguments": [
        "73619834626000"
      ],
      "transaction": {
        "from": "0xc77f7fed3b5cc8249adc428c5f44c9063b9734b4",
        "to": "0x8aafd3ede9adb0ff97c7aebce82a919afb1c8764",
        "gas": "0x15daa",
        "value": "0x0",
        "input": "0xe4849b32000000000000000000000000000000000000000000000000000042f4f4175fd0",
        "nonce": "0x178a",
        "chainId": "0xaa36a7"
      },
      "additionalContracts": [],
      "isFixedGasLimit": false
    }
  ],
  "receipts": [
    {
      "status": "0x1",
      "cumulativeGasUsed": "0xb643d8",
      "logs": [
        {
          "address": "0x8aafd3ede9adb0ff97c7aebce82a919afb1c8764",
          "topics": [
            "0xddf252ad1be2c89b69c2b068fc378daa952ba7f163c4a11628f55a4df523b3ef",
            "0x000000000000000000000000c77f7fed3b5cc8249adc428c5f44c9063b9734b4",
            "0x0000000000000000000000000000000000000000000000000000000000000000"
          ],
          "data": "0x0000000000000000000000000000000000000000000000000000426bd36b27c0",
          "blockHash": "0x4da2e74b06b8ec0d5c435691df5966a07eb8c9049f68d9864c71fc9f5f620fa3",
          "blockNumber": "0x731f65",
          "transactionHash": "0x222fb2604f1da74edc2785eac86d77aea55bb222f667f6049507c0ebdcb1085c",
          "transactionIndex": "0x81",
          "logIndex": "0xc0",
          "removed": false
        },
        {
          "address": "0x8aafd3ede9adb0ff97c7aebce82a919afb1c8764",
          "topics": [
            "0xddf252ad1be2c89b69c2b068fc378daa952ba7f163c4a11628f55a4df523b3ef",
            "0x000000000000000000000000c77f7fed3b5cc8249adc428c5f44c9063b9734b4",
            "0x000000000000000000000000c77f7fed3b5cc8249adc428c5f44c9063b9734b4"
          ],
          "data": "0x0000000000000000000000000000000000000000000000000000008920ac3810",
          "blockHash": "0x4da2e74b06b8ec0d5c435691df5966a07eb8c9049f68d9864c71fc9f5f620fa3",
          "blockNumber": "0x731f65",
          "transactionHash": "0x222fb2604f1da74edc2785eac86d77aea55bb222f667f6049507c0ebdcb1085c",
          "transactionIndex": "0x81",
          "logIndex": "0xc1",
          "removed": false
        },
        {
          "address": "0x8aafd3ede9adb0ff97c7aebce82a919afb1c8764",
          "topics": [
            "0x4afcb4a87cdbd9974efdb92ee48bc8d7cd0ae4bf217004db3d080cbaee652ca7"
          ],
          "data": "0x00000000000000000000000000000000000000000000000000000000679075a40000000000000000000000000000000000000000000000000018a3f62e1f515400000000000000000000000000000000000000000000000000000076e255a924",
          "blockHash": "0x4da2e74b06b8ec0d5c435691df5966a07eb8c9049f68d9864c71fc9f5f620fa3",
          "blockNumber": "0x731f65",
          "transactionHash": "0x222fb2604f1da74edc2785eac86d77aea55bb222f667f6049507c0ebdcb1085c",
          "transactionIndex": "0x81",
          "logIndex": "0xc2",
          "removed": false
        }
      ],
      "logsBloom": "0x00000000000000000000000000000000000000000600000000000000000000000000000000000000000000000000000000000000000000004000000000000000000000000000004000000008000000000000000000000000000000000000000000000000020000000000000000000800020000000000000000000010000000000000000000000000000000000000000000000000000000000000010000000000000000000000000000000000000000004000000000000000000000000000000000000002000000800000000000000000000000000000080000000000000020000000000000000000000000000000000000000000000000000000000000000000",
      "type": "0x2",
      "transactionHash": "0x222fb2604f1da74edc2785eac86d77aea55bb222f667f6049507c0ebdcb1085c",
      "transactionIndex": "0x81",
      "blockHash": "0x4da2e74b06b8ec0d5c435691df5966a07eb8c9049f68d9864c71fc9f5f620fa3",
      "blockNumber": "0x731f65",
      "gasUsed": "0xfd27",
      "effectiveGasPrice": "0x3d430338",
      "from": "0xc77f7fed3b5cc8249adc428c5f44c9063b9734b4",
      "to": "0x8aafd3ede9adb0ff97c7aebce82a919afb1c8764",
      "contractAddress": null
    }
  ],
  "libraries": [],
  "pending": [],
  "returns": {},
  "timestamp": 1737520549,
  "chain": 11155111,
  "commit": "1d2fb70"
}