{
  "transactions": [
    {
      "hash": "0x792589a0e8e63b94b9638a7d13c5da58406feec0e2110f938d11841569c3df21",
      "transactionType": "CALL",
      "contractName": null,
      "contractAddress": "0x8aafd3ede9adb0ff97c7aebce82a919afb1c8764",
      "function": "sell(uint256)",
      "arguments": [
        "860544821988"
      ],
      "transaction": {
        "from": "0xc77f7fed3b5cc8249adc428c5f44c9063b9734b4",
        "to": "0x8aafd3ede9adb0ff97c7aebce82a919afb1c8764",
        "gas": "0x1722a",
        "value": "0x0",
        "input": "0xe4849b32000000000000000000000000000000000000000000000000000000c85c77eae4",
        "nonce": "0x14f1",
        "chainId": "0xaa36a7"
      },
      "additionalContracts": [],
      "isFixedGasLimit": false
    }
  ],
  "receipts": [
    {
      "status": "0x1",
      "cumulativeGasUsed": "0x9af1b5",
      "logs": [
        {
          "address": "0x8aafd3ede9adb0ff97c7aebce82a919afb1c8764",
          "topics": [
            "0xddf252ad1be2c89b69c2b068fc378daa952ba7f163c4a11628f55a4df523b3ef",
            "0x000000000000000000000000c77f7fed3b5cc8249adc428c5f44c9063b9734b4",
            "0x0000000000000000000000000000000000000000000000000000000000000000"
          ],
          "data": "0x000000000000000000000000000000000000000000000000000000c6c220f135",
          "blockHash": "0xc794040579fe34f24bcf2121b2535762e78f23558badab48f8b721e9cdba9909",
          "blockNumber": "0x731c51",
          "transactionHash": "0x792589a0e8e63b94b9638a7d13c5da58406feec0e2110f938d11841569c3df21",
          "transactionIndex": "0x59",
          "logIndex": "0x81",
          "removed": false
        },
        {
          "address": "0x8aafd3ede9adb0ff97c7aebce82a919afb1c8764",
          "topics": [
            "0xddf252ad1be2c89b69c2b068fc378daa952ba7f163c4a11628f55a4df523b3ef",
            "0x000000000000000000000000c77f7fed3b5cc8249adc428c5f44c9063b9734b4",
            "0x000000000000000000000000c77f7fed3b5cc8249adc428c5f44c9063b9734b4"
          ],
          "data": "0x000000000000000000000000000000000000000000000000000000019a56f9af",
          "blockHash": "0xc794040579fe34f24bcf2121b2535762e78f23558badab48f8b721e9cdba9909",
          "blockNumber": "0x731c51",
          "transactionHash": "0x792589a0e8e63b94b9638a7d13c5da58406feec0e2110f938d11841569c3df21",
          "transactionIndex": "0x59",
          "logIndex": "0x82",
          "removed": false
        },
        {
          "address": "0x8aafd3ede9adb0ff97c7aebce82a919afb1c8764",
          "topics": [
            "0x4afcb4a87cdbd9974efdb92ee48bc8d7cd0ae4bf217004db3d080cbaee652ca7"
          ],
          "data": "0x00000000000000000000000000000000000000000000000000000000679050a80000000000000000000000000000000000000000000000000010e53ac925c88c00000000000000000000000000000000000000000000000000000000f3edb40c",
          "blockHash": "0xc794040579fe34f24bcf2121b2535762e78f23558badab48f8b721e9cdba9909",
          "blockNumber": "0x731c51",
          "transactionHash": "0x792589a0e8e63b94b9638a7d13c5da58406feec0e2110f938d11841569c3df21",
          "transactionIndex": "0x59",
          "logIndex": "0x83",
          "removed": false
        }
      ],
      "logsBloom": "0x00000000000000000000000000000000000000000600000000000000000000000000000000000000000000000000000000000000000000004000000000000000000000000000004000000008000000000000000000000000000000000000000000000000020000000000000000000800020000000000000000000010000000000000000000000000000000000000000000000000000000000000010000000000000000000000000000000000000000004000000000000000000000000000000000000002000000800000000000000000000000000000080000000000000020000000000000000000000000000000000000000000000000000000000000000000",
      "type": "0x2",
      "transactionHash": "0x792589a0e8e63b94b9638a7d13c5da58406feec0e2110f938d11841569c3df21",
      "transactionIndex": "0x59",
      "blockHash": "0xc794040579fe34f24bcf2121b2535762e78f23558badab48f8b721e9cdba9909",
      "blockNumber": "0x731c51",
      "gasUsed": "0xfd1b",
      "effectiveGasPrice": "0x15f7b4a0d",
      "from": "0xc77f7fed3b5cc8249adc428c5f44c9063b9734b4",
      "to": "0x8aafd3ede9adb0ff97c7aebce82a919afb1c8764",
      "contractAddress": null
    }
  ],
  "libraries": [],
  "pending": [],
  "returns": {},
  "timestamp": 1737511081,
  "chain": 11155111,
  "commit": "1d2fb70"
}