{
  "transactions": [
    {
      "hash": "0x97381db052b9ec1ba920ef584d920e0d4e12d4bf471c468d0647c1162620229b",
      "transactionType": "CALL",
      "contractName": null,
      "contractAddress": "0x5eb9cc76c3506942c1c0ead70e877dd5e4f00cb0",
      "function": "buy(address)",
      "arguments": [
        "0xC77f7fed3b5Cc8249aDc428c5F44C9063B9734b4"
      ],
      "transaction": {
        "from": "0xc77f7fed3b5cc8249adc428c5f44c9063b9734b4",
        "to": "0x5eb9cc76c3506942c1c0ead70e877dd5e4f00cb0",
        "gas": "0x156c8",
        "value": "0xde0b6b3a7640000",
        "input": "0xf088d547000000000000000000000000c77f7fed3b5cc8249adc428c5f44c9063b9734b4",
        "nonce": "0x193",
        "chainId": "0xaa36a7"
      },
      "additionalContracts": [],
      "isFixedGasLimit": false
    }
  ],
  "receipts": [
    {
      "status": "0x1",
      "cumulativeGasUsed": "0x1ffbb35",
      "logs": [
        {
          "address": "0x5eb9cc76c3506942c1c0ead70e877dd5e4f00cb0",
          "topics": [
            "0xddf252ad1be2c89b69c2b068fc378daa952ba7f163c4a11628f55a4df523b3ef",
            "0x0000000000000000000000000000000000000000000000000000000000000000",
            "0x000000000000000000000000c77f7fed3b5cc8249adc428c5f44c9063b9734b4"
          ],
          "data": "0x000000000000000000000000000000000000000000000035a37e77e544aac98f",
          "blockHash": "0x2624aab0e5772b1a4ffa8b3e5865c3ba3045a11f2105910ab40cf4a4c1a0cbd4",
          "blockNumber": "0x723c78",
          "transactionHash": "0x97381db052b9ec1ba920ef584d920e0d4e12d4bf471c468d0647c1162620229b",
          "transactionIndex": "0x38",
          "logIndex": "0x10e6",
          "removed": false
        },
        {
          "address": "0x5eb9cc76c3506942c1c0ead70e877dd5e4f00cb0",
          "topics": [
            "0xddf252ad1be2c89b69c2b068fc378daa952ba7f163c4a11628f55a4df523b3ef",
            "0x0000000000000000000000000000000000000000000000000000000000000000",
            "0x000000000000000000000000c77f7fed3b5cc8249adc428c5f44c9063b9734b4"
          ],
          "data": "0x00000000000000000000000000000000000000000000000029a6f93638d15003",
          "blockHash": "0x2624aab0e5772b1a4ffa8b3e5865c3ba3045a11f2105910ab40cf4a4c1a0cbd4",
          "blockNumber": "0x723c78",
          "transactionHash": "0x97381db052b9ec1ba920ef584d920e0d4e12d4bf471c468d0647c1162620229b",
          "transactionIndex": "0x38",
          "logIndex": "0x10e7",
          "removed": false
        },
        {
          "address": "0x5eb9cc76c3506942c1c0ead70e877dd5e4f00cb0",
          "topics": [
            "0x4afcb4a87cdbd9974efdb92ee48bc8d7cd0ae4bf217004db3d080cbaee652ca7"
          ],
          "data": "0x000000000000000000000000000000000000000000000000000000006785c6f400000000000000000000000000000000000000000000000000038dfe1c3cde6f0000000000000000000000000000000000000000000000000de0b6b3a7640000",
          "blockHash": "0x2624aab0e5772b1a4ffa8b3e5865c3ba3045a11f2105910ab40cf4a4c1a0cbd4",
          "blockNumber": "0x723c78",
          "transactionHash": "0x97381db052b9ec1ba920ef584d920e0d4e12d4bf471c468d0647c1162620229b",
          "transactionIndex": "0x38",
          "logIndex": "0x10e8",
          "removed": false
        }
      ],
      "logsBloom": "0x00000000000000000000000000000000000000000000000000000000000000000000000000000000000000000000000000000000000000004000000000000000000000000000000000000008000000000000000000000000000000000000000000000000020000000000000004000800020000000000000000000010000000000000000000000000000000000000000000000000000000000000010000000000000000000000000000000000000000004000000000000000000000000000020000000002000000800000008000000000000000000000080000000000000020000000000000000000000000000000000000000000000000000000000000000000",
      "type": "0x2",
      "transactionHash": "0x97381db052b9ec1ba920ef584d920e0d4e12d4bf471c468d0647c1162620229b",
      "transactionIndex": "0x38",
      "blockHash": "0x2624aab0e5772b1a4ffa8b3e5865c3ba3045a11f2105910ab40cf4a4c1a0cbd4",
      "blockNumber": "0x723c78",
      "gasUsed": "0xf82c",
      "effectiveGasPrice": "0x1b377fb78",
      "from": "0xc77f7fed3b5cc8249adc428c5f44c9063b9734b4",
      "to": "0x5eb9cc76c3506942c1c0ead70e877dd5e4f00cb0",
      "contractAddress": null
    }
  ],
  "libraries": [],
  "pending": [],
  "returns": {},
  "timestamp": 1736820469,
  "chain": 11155111,
  "commit": "51a374b"
}