{
  "transactions": [
    {
      "hash": "0x134f2f909db9fa3e70e443774eb25ffee295a7b9616194ae0d6bdf9650b81e1b",
      "transactionType": "CALL",
      "contractName": null,
      "contractAddress": "0x8aafd3ede9adb0ff97c7aebce82a919afb1c8764",
      "function": "sell(uint256)",
      "arguments": [
        "332974"
      ],
      "transaction": {
        "from": "0xc77f7fed3b5cc8249adc428c5f44c9063b9734b4",
        "to": "0x8aafd3ede9adb0ff97c7aebce82a919afb1c8764",
        "gas": "0x16208",
        "value": "0x0",
        "input": "0xe4849b3200000000000000000000000000000000000000000000000000000000000514ae",
        "nonce": "0x16c8",
        "chainId": "0xaa36a7"
      },
      "additionalContracts": [],
      "isFixedGasLimit": false
    }
  ],
  "receipts": [
    {
      "status": "0x1",
      "cumulativeGasUsed": "0x465e08",
      "logs": [
        {
          "address": "0x8aafd3ede9adb0ff97c7aebce82a919afb1c8764",
          "topics": [
            "0xddf252ad1be2c89b69c2b068fc378daa952ba7f163c4a11628f55a4df523b3ef",
            "0x000000000000000000000000c77f7fed3b5cc8249adc428c5f44c9063b9734b4",
            "0x0000000000000000000000000000000000000000000000000000000000000000"
          ],
          "data": "0x0000000000000000000000000000000000000000000000000000000000050a47",
          "blockHash": "0xeafc56b991f3af182a2be9c48b9e1f501c151ea7e144217dfea64d66d643fe49",
          "blockNumber": "0x731e82",
          "transactionHash": "0x134f2f909db9fa3e70e443774eb25ffee295a7b9616194ae0d6bdf9650b81e1b",
          "transactionIndex": "0x39",
          "logIndex": "0x4f",
          "removed": false
        },
        {
          "address": "0x8aafd3ede9adb0ff97c7aebce82a919afb1c8764",
          "topics": [
            "0xddf252ad1be2c89b69c2b068fc378daa952ba7f163c4a11628f55a4df523b3ef",
            "0x000000000000000000000000c77f7fed3b5cc8249adc428c5f44c9063b9734b4",
            "0x000000000000000000000000c77f7fed3b5cc8249adc428c5f44c9063b9734b4"
          ],
          "data": "0x0000000000000000000000000000000000000000000000000000000000000a67",
          "blockHash": "0xeafc56b991f3af182a2be9c48b9e1f501c151ea7e144217dfea64d66d643fe49",
          "blockNumber": "0x731e82",
          "transactionHash": "0x134f2f909db9fa3e70e443774eb25ffee295a7b9616194ae0d6bdf9650b81e1b",
          "transactionIndex": "0x39",
          "logIndex": "0x50",
          "removed": false
        },
        {
          "address": "0x8aafd3ede9adb0ff97c7aebce82a919afb1c8764",
          "topics": [
            "0x4afcb4a87cdbd9974efdb92ee48bc8d7cd0ae4bf217004db3d080cbaee652ca7"
          ],
          "data": "0x0000000000000000000000000000000000000000000000000000000067906b000000000000000000000000000000000000000000000000000016530696101829000000000000000000000000000000000000000000000000000000000000082c",
          "blockHash": "0xeafc56b991f3af182a2be9c48b9e1f501c151ea7e144217dfea64d66d643fe49",
          "blockNumber": "0x731e82",
          "transactionHash": "0x134f2f909db9fa3e70e443774eb25ffee295a7b9616194ae0d6bdf9650b81e1b",
          "transactionIndex": "0x39",
          "logIndex": "0x51",
          "removed": false
        }
      ],
      "logsBloom": "0x00000000000000000000000000000000000000000600000000000000000000000000000000000000000000000000000000000000000000004000000000000000000000000000004000000008000000000000000000000000000000000000000000000000020000000000000000000800020000000000000000000010000000000000000000000000000000000000000000000000000000000000010000000000000000000000000000000000000000004000000000000000000000000000000000000002000000800000000000000000000000000000080000000000000020000000000000000000000000000000000000000000000000000000000000000000",
      "type": "0x2",
      "transactionHash": "0x134f2f909db9fa3e70e443774eb25ffee295a7b9616194ae0d6bdf9650b81e1b",
      "transactionIndex": "0x39",
      "blockHash": "0xeafc56b991f3af182a2be9c48b9e1f501c151ea7e144217dfea64d66d643fe49",
      "blockNumber": "0x731e82",
      "gasUsed": "0xf213",
      "effectiveGasPrice": "0x4c1486e2",
      "from": "0xc77f7fed3b5cc8249adc428c5f44c9063b9734b4",
      "to": "0x8aafd3ede9adb0ff97c7aebce82a919afb1c8764",
      "contractAddress": null
    }
  ],
  "libraries": [],
  "pending": [],
  "returns": {},
  "timestamp": 1737517826,
  "chain": 11155111,
  "commit": "1d2fb70"
}