{
  "transactions": [
    {
      "hash": "0x78431e0e5223aa78c06cb752008ea8de9f03376672b1b61eb9ed016cf420181b",
      "transactionType": "CALL",
      "contractName": null,
      "contractAddress": "0x8aafd3ede9adb0ff97c7aebce82a919afb1c8764",
      "function": "sell(uint256)",
      "arguments": [
        "691930987863594209107"
      ],
      "transaction": {
        "from": "0xc77f7fed3b5cc8249adc428c5f44c9063b9734b4",
        "to": "0x8aafd3ede9adb0ff97c7aebce82a919afb1c8764",
        "gas": "0x17270",
        "value": "0x0",
        "input": "0xe4849b320000000000000000000000000000000000000000000000258278af7456a78f53",
        "nonce": "0x1163",
        "chainId": "0xaa36a7"
      },
      "additionalContracts": [],
      "isFixedGasLimit": false
    }
  ],
  "receipts": [
    {
      "status": "0x1",
      "cumulativeGasUsed": "0xbefef6",
      "logs": [
        {
          "address": "0x8aafd3ede9adb0ff97c7aebce82a919afb1c8764",
          "topics": [
            "0xddf252ad1be2c89b69c2b068fc378daa952ba7f163c4a11628f55a4df523b3ef",
            "0x000000000000000000000000c77f7fed3b5cc8249adc428c5f44c9063b9734b4",
            "0x0000000000000000000000000000000000000000000000000000000000000000"
          ],
          "data": "0x00000000000000000000000000000000000000000000002535a6d2ea3118e84b",
          "blockHash": "0x98baab07278122d3ca1f1c9af1417132e7006c9a62776bd90afa8299c0fa4902",
          "blockNumber": "0x731821",
          "transactionHash": "0x78431e0e5223aa78c06cb752008ea8de9f03376672b1b61eb9ed016cf420181b",
          "transactionIndex": "0x88",
          "logIndex": "0xad",
          "removed": false
        },
        {
          "address": "0x8aafd3ede9adb0ff97c7aebce82a919afb1c8764",
          "topics": [
            "0xddf252ad1be2c89b69c2b068fc378daa952ba7f163c4a11628f55a4df523b3ef",
            "0x000000000000000000000000c77f7fed3b5cc8249adc428c5f44c9063b9734b4",
            "0x000000000000000000000000c77f7fed3b5cc8249adc428c5f44c9063b9734b4"
          ],
          "data": "0x0000000000000000000000000000000000000000000000004cd1dc8a258ea708",
          "blockHash": "0x98baab07278122d3ca1f1c9af1417132e7006c9a62776bd90afa8299c0fa4902",
          "blockNumber": "0x731821",
          "transactionHash": "0x78431e0e5223aa78c06cb752008ea8de9f03376672b1b61eb9ed016cf420181b",
          "transactionIndex": "0x88",
          "logIndex": "0xae",
          "removed": false
        },
        {
          "address": "0x8aafd3ede9adb0ff97c7aebce82a919afb1c8764",
          "topics": [
            "0x4afcb4a87cdbd9974efdb92ee48bc8d7cd0ae4bf217004db3d080cbaee652ca7"
          ],
          "data": "0x0000000000000000000000000000000000000000000000000000000067901e5000000000000000000000000000000000000000000000000000051aad5708ae470000000000000000000000000000000000000000000000000dc8f67e83921adf",
          "blockHash": "0x98baab07278122d3ca1f1c9af1417132e7006c9a62776bd90afa8299c0fa4902",
          "blockNumber": "0x731821",
          "transactionHash": "0x78431e0e5223aa78c06cb752008ea8de9f03376672b1b61eb9ed016cf420181b",
          "transactionIndex": "0x88",
          "logIndex": "0xaf",
          "removed": false
        }
      ],
      "logsBloom": "0x00000000000000000000000000000000000000000600000000000000000000000000000000000000000000000000000000000000000000004000000000000000000000000000004000000008000000000000000000000000000000000000000000000000020000000000000000000800020000000000000000000010000000000000000000000000000000000000000000000000000000000000010000000000000000000000000000000000000000004000000000000000000000000000000000000002000000800000000000000000000000000000080000000000000020000000000000000000000000000000000000000000000000000000000000000000",
      "type": "0x2",
      "transactionHash": "0x78431e0e5223aa78c06cb752008ea8de9f03376672b1b61eb9ed016cf420181b",
      "transactionIndex": "0x88",
      "blockHash": "0x98baab07278122d3ca1f1c9af1417132e7006c9a62776bd90afa8299c0fa4902",
      "blockNumber": "0x731821",
      "gasUsed": "0xfd4b",
      "effectiveGasPrice": "0x4874fccb",
      "from": "0xc77f7fed3b5cc8249adc428c5f44c9063b9734b4",
      "to": "0x8aafd3ede9adb0ff97c7aebce82a919afb1c8764",
      "contractAddress": null
    }
  ],
  "libraries": [],
  "pending": [],
  "returns": {},
  "timestamp": 1737498194,
  "chain": 11155111,
  "commit": "1d2fb70"
}