{
  "transactions": [
    {
      "hash": "0x67fda6605abd442f3bf469e8a1231760db1851e1f18ac702bb84bafac8c19704",
      "transactionType": "CALL",
      "contractName": null,
      "contractAddress": "0xbf4a322f1496e5c3d34a9bcdb4c60567b38c7de2",
      "function": "buy(address)",
      "arguments": [
        "0xC77f7fed3b5Cc8249aDc428c5F44C9063B9734b4"
      ],
      "transaction": {
        "from": "0xc77f7fed3b5cc8249adc428c5f44c9063b9734b4",
        "to": "0xbf4a322f1496e5c3d34a9bcdb4c60567b38c7de2",
        "gas": "0x1b309",
        "value": "0xde0b6b3a7640000",
        "input": "0xf088d547000000000000000000000000c77f7fed3b5cc8249adc428c5f44c9063b9734b4",
        "nonce": "0xc1e",
        "chainId": "0xaa36a7"
      },
      "additionalContracts": [],
      "isFixedGasLimit": false
    }
  ],
  "receipts": [
    {
      "status": "0x1",
      "cumulativeGasUsed": "0x1060c74",
      "logs": [
        {
          "address": "0xbf4a322f1496e5c3d34a9bcdb4c60567b38c7de2",
          "topics": [
            "0xddf252ad1be2c89b69c2b068fc378daa952ba7f163c4a11628f55a4df523b3ef",
            "0x0000000000000000000000000000000000000000000000000000000000000000",
            "0x000000000000000000000000c77f7fed3b5cc8249adc428c5f44c9063b9734b4"
          ],
          "data": "0x000000000000000000000000000000000000000000000034f5cae3ab346a7ca3",
          "blockHash": "0x59f4ec46d70df8071fb978a6cbee8c7560ec0e78a9f654fa971e3244a5b9e870",
          "blockNumber": "0x725c4b",
          "transactionHash": "0x67fda6605abd442f3bf469e8a1231760db1851e1f18ac702bb84bafac8c19704",
          "transactionIndex": "0x54",
          "logIndex": "0xaf",
          "removed": false
        },
        {
          "address": "0xbf4a322f1496e5c3d34a9bcdb4c60567b38c7de2",
          "topics": [
            "0xddf252ad1be2c89b69c2b068fc378daa952ba7f163c4a11628f55a4df523b3ef",
            "0x0000000000000000000000000000000000000000000000000000000000000000",
            "0x000000000000000000000000c77f7fed3b5cc8249adc428c5f44c9063b9734b4"
          ],
          "data": "0x0000000000000000000000000000000000000000000000002920169eb3069ee6",
          "blockHash": "0x59f4ec46d70df8071fb978a6cbee8c7560ec0e78a9f654fa971e3244a5b9e870",
          "blockNumber": "0x725c4b",
          "transactionHash": "0x67fda6605abd442f3bf469e8a1231760db1851e1f18ac702bb84bafac8c19704",
          "transactionIndex": "0x54",
          "logIndex": "0xb0",
          "removed": false
        },
        {
          "address": "0xbf4a322f1496e5c3d34a9bcdb4c60567b38c7de2",
          "topics": [
            "0x4afcb4a87cdbd9974efdb92ee48bc8d7cd0ae4bf217004db3d080cbaee652ca7"
          ],
          "data": "0x00000000000000000000000000000000000000000000000000000000678745e0000000000000000000000000000000000000000000000000000399a90dd078aa0000000000000000000000000000000000000000000000000de0b6b3a7640000",
          "blockHash": "0x59f4ec46d70df8071fb978a6cbee8c7560ec0e78a9f654fa971e3244a5b9e870",
          "blockNumber": "0x725c4b",
          "transactionHash": "0x67fda6605abd442f3bf469e8a1231760db1851e1f18ac702bb84bafac8c19704",
          "transactionIndex": "0x54",
          "logIndex": "0xb1",
          "removed": false
        }
      ],
      "logsBloom": "0x00000000000000000000000000000000000000000000000000000000000000000000000000000000000000000000000000000000000000004000000000000000000000000000000000000008000000000000001000000000000000000000000000000000020000000000000000000800020000000000000000000010000000000000000000000000000000000000000000000000000008000000010000000000000000000000000000000000000000004000000000000000000000000000000000000002000000800000000000001000000000000000080000000000000020000000000000000000000000000000000000000000000000000000000000000000",
      "type": "0x2",
      "transactionHash": "0x67fda6605abd442f3bf469e8a1231760db1851e1f18ac702bb84bafac8c19704",
      "transactionIndex": "0x54",
      "blockHash": "0x59f4ec46d70df8071fb978a6cbee8c7560ec0e78a9f654fa971e3244a5b9e870",
      "blockNumber": "0x725c4b",
      "gasUsed": "0x13af6",
      "effectiveGasPrice": "0x13cfd4097",
      "from": "0xc77f7fed3b5cc8249adc428c5f44c9063b9734b4",
      "to": "0xbf4a322f1496e5c3d34a9bcdb4c60567b38c7de2",
      "contractAddress": null
    }
  ],
  "libraries": [],
  "pending": [],
  "returns": {},
  "timestamp": 1736918496,
  "chain": 11155111,
  "commit": "51a374b"
}