{
  "transactions": [
    {
      "hash": "0xe3738c1f56c71b3ee31a6e1dcf10f9f280f7cdfb260360f71e3512439ee1b808",
      "transactionType": "CALL",
      "contractName": null,
      "contractAddress": "0x8aafd3ede9adb0ff97c7aebce82a919afb1c8764",
      "function": "sell(uint256)",
      "arguments": [
        "1555631"
      ],
      "transaction": {
        "from": "0xc77f7fed3b5cc8249adc428c5f44c9063b9734b4",
        "to": "0x8aafd3ede9adb0ff97c7aebce82a919afb1c8764",
        "gas": "0x16208",
        "value": "0x0",
        "input": "0xe4849b32000000000000000000000000000000000000000000000000000000000017bcaf",
        "nonce": "0xf78",
        "chainId": "0xaa36a7"
      },
      "additionalContracts": [],
      "isFixedGasLimit": false
    }
  ],
  "receipts": [
    {
      "status": "0x1",
      "cumulativeGasUsed": "0x11ba447",
      "logs": [
        {
          "address": "0x8aafd3ede9adb0ff97c7aebce82a919afb1c8764",
          "topics": [
            "0xddf252ad1be2c89b69c2b068fc378daa952ba7f163c4a11628f55a4df523b3ef",
            "0x000000000000000000000000c77f7fed3b5cc8249adc428c5f44c9063b9734b4",
            "0x0000000000000000000000000000000000000000000000000000000000000000"
          ],
          "data": "0x0000000000000000000000000000000000000000000000000000000000178c12",
          "blockHash": "0xd499ef47a11040357c276f0c72ca174a2c81c46fa312ab6a613d7a8cc9939e1e",
          "blockNumber": "0x7315da",
          "transactionHash": "0xe3738c1f56c71b3ee31a6e1dcf10f9f280f7cdfb260360f71e3512439ee1b808",
          "transactionIndex": "0xc8",
          "logIndex": "0xf4",
          "removed": false
        },
        {
          "address": "0x8aafd3ede9adb0ff97c7aebce82a919afb1c8764",
          "topics": [
            "0xddf252ad1be2c89b69c2b068fc378daa952ba7f163c4a11628f55a4df523b3ef",
            "0x000000000000000000000000c77f7fed3b5cc8249adc428c5f44c9063b9734b4",
            "0x000000000000000000000000c77f7fed3b5cc8249adc428c5f44c9063b9734b4"
          ],
          "data": "0x000000000000000000000000000000000000000000000000000000000000309d",
          "blockHash": "0xd499ef47a11040357c276f0c72ca174a2c81c46fa312ab6a613d7a8cc9939e1e",
          "blockNumber": "0x7315da",
          "transactionHash": "0xe3738c1f56c71b3ee31a6e1dcf10f9f280f7cdfb260360f71e3512439ee1b808",
          "transactionIndex": "0xc8",
          "logIndex": "0xf5",
          "removed": false
        },
        {
          "address": "0x8aafd3ede9adb0ff97c7aebce82a919afb1c8764",
          "topics": [
            "0x4afcb4a87cdbd9974efdb92ee48bc8d7cd0ae4bf217004db3d080cbaee652ca7"
          ],
          "data": "0x00000000000000000000000000000000000000000000000000000000679002e40000000000000000000000000000000000000000000000000004c1d7760827640000000000000000000000000000000000000000000000000000000000000823",
          "blockHash": "0xd499ef47a11040357c276f0c72ca174a2c81c46fa312ab6a613d7a8cc9939e1e",
          "blockNumber": "0x7315da",
          "transactionHash": "0xe3738c1f56c71b3ee31a6e1dcf10f9f280f7cdfb260360f71e3512439ee1b808",
          "transactionIndex": "0xc8",
          "logIndex": "0xf6",
          "removed": false
        }
      ],
      "logsBloom": "0x00000000000000000000000000000000000000000600000000000000000000000000000000000000000000000000000000000000000000004000000000000000000000000000004000000008000000000000000000000000000000000000000000000000020000000000000000000800020000000000000000000010000000000000000000000000000000000000000000000000000000000000010000000000000000000000000000000000000000004000000000000000000000000000000000000002000000800000000000000000000000000000080000000000000020000000000000000000000000000000000000000000000000000000000000000000",
      "type": "0x2",
      "transactionHash": "0xe3738c1f56c71b3ee31a6e1dcf10f9f280f7cdfb260360f71e3512439ee1b808",
      "transactionIndex": "0xc8",
      "blockHash": "0xd499ef47a11040357c276f0c72ca174a2c81c46fa312ab6a613d7a8cc9939e1e",
      "blockNumber": "0x7315da",
      "gasUsed": "0xf213",
      "effectiveGasPrice": "0x68f49a80",
      "from": "0xc77f7fed3b5cc8249adc428c5f44c9063b9734b4",
      "to": "0x8aafd3ede9adb0ff97c7aebce82a919afb1c8764",
      "contractAddress": null
    }
  ],
  "libraries": [],
  "pending": [],
  "returns": {},
  "timestamp": 1737491174,
  "chain": 11155111,
  "commit": "1d2fb70"
}