{
  "transactions": [
    {
      "hash": "0xc1f25ff005cc0b8902778f95a139b0d05d307b74b0a7b3a7b2037b5748212ff6",
      "transactionType": "CALL",
      "contractName": null,
      "contractAddress": "0x270e88f8683660553e8ba4eb2ad7c91a1710d769",
      "function": "buy(address)",
      "arguments": [
        "0xC77f7fed3b5Cc8249aDc428c5F44C9063B9734b4"
      ],
      "transaction": {
        "from": "0xc77f7fed3b5cc8249adc428c5f44c9063b9734b4",
        "to": "0x270e88f8683660553e8ba4eb2ad7c91a1710d769",
        "gas": "0x1b30c",
        "value": "0xde0b6b3a7640000",
        "input": "0xf088d547000000000000000000000000c77f7fed3b5cc8249adc428c5f44c9063b9734b4",
        "nonce": "0x5d2",
        "chainId": "0xaa36a7"
      },
      "additionalContracts": [],
      "isFixedGasLimit": false
    }
  ],
  "receipts": [
    {
      "status": "0x1",
      "cumulativeGasUsed": "0xe41928",
      "logs": [
        {
          "address": "0x270e88f8683660553e8ba4eb2ad7c91a1710d769",
          "topics": [
            "0xddf252ad1be2c89b69c2b068fc378daa952ba7f163c4a11628f55a4df523b3ef",
            "0x0000000000000000000000000000000000000000000000000000000000000000",
            "0x000000000000000000000000c77f7fed3b5cc8249adc428c5f44c9063b9734b4"
          ],
          "data": "0x0000000000000000000000000000000000000000000000338fc57745199f961c",
          "blockHash": "0x37c80202154d8d4d35ee303c3e20bb0ef8b0d5a779ff98a55a61334e1df8bb28",
          "blockNumber": "0x725292",
          "transactionHash": "0xc1f25ff005cc0b8902778f95a139b0d05d307b74b0a7b3a7b2037b5748212ff6",
          "transactionIndex": "0x3d",
          "logIndex": "0x64",
          "removed": false
        },
        {
          "address": "0x270e88f8683660553e8ba4eb2ad7c91a1710d769",
          "topics": [
            "0xddf252ad1be2c89b69c2b068fc378daa952ba7f163c4a11628f55a4df523b3ef",
            "0x0000000000000000000000000000000000000000000000000000000000000000",
            "0x000000000000000000000000c77f7fed3b5cc8249adc428c5f44c9063b9734b4"
          ],
          "data": "0x000000000000000000000000000000000000000000000000280a129c3f11f6bf",
          "blockHash": "0x37c80202154d8d4d35ee303c3e20bb0ef8b0d5a779ff98a55a61334e1df8bb28",
          "blockNumber": "0x725292",
          "transactionHash": "0xc1f25ff005cc0b8902778f95a139b0d05d307b74b0a7b3a7b2037b5748212ff6",
          "transactionIndex": "0x3d",
          "logIndex": "0x65",
          "removed": false
        },
        {
          "address": "0x270e88f8683660553e8ba4eb2ad7c91a1710d769",
          "topics": [
            "0x4afcb4a87cdbd9974efdb92ee48bc8d7cd0ae4bf217004db3d080cbaee652ca7"
          ],
          "data": "0x000000000000000000000000000000000000000000000000000000006786d0c80000000000000000000000000000000000000000000000000003b2c0feaf0b2b0000000000000000000000000000000000000000000000000de0b6b3a7640000",
          "blockHash": "0x37c80202154d8d4d35ee303c3e20bb0ef8b0d5a779ff98a55a61334e1df8bb28",
          "blockNumber": "0x725292",
          "transactionHash": "0xc1f25ff005cc0b8902778f95a139b0d05d307b74b0a7b3a7b2037b5748212ff6",
          "transactionIndex": "0x3d",
          "logIndex": "0x66",
          "removed": false
        }
      ],
      "logsBloom": "0x00000000000000000000000000000000000000000000000000000000000000000000000000000000000000000000000020000000000000004000000000000000000000000000000000000008000000000000000000000000000000000000000000000000020000000000000000000800020000000000000000000010000000000000000000010000000000000000000000000000000000000000010000000000000000000000000000000000000000004000000000000000000000000000000000000002000000800000000000000000000000000000080000008000000020000000000000000000000000000000000000000000000000000000000000000000",
      "type": "0x2",
      "transactionHash": "0xc1f25ff005cc0b8902778f95a139b0d05d307b74b0a7b3a7b2037b5748212ff6",
      "transactionIndex": "0x3d",
      "blockHash": "0x37c80202154d8d4d35ee303c3e20bb0ef8b0d5a779ff98a55a61334e1df8bb28",
      "blockNumber": "0x725292",
      "gasUsed": "0x13af8",
      "effectiveGasPrice": "0x34f825c60",
      "from": "0xc77f7fed3b5cc8249adc428c5f44c9063b9734b4",
      "to": "0x270e88f8683660553e8ba4eb2ad7c91a1710d769",
      "contractAddress": null
    }
  ],
  "libraries": [],
  "pending": [],
  "returns": {},
  "timestamp": 1736888521,
  "chain": 11155111,
  "commit": "51a374b"
}