{
  "transactions": [
    {
      "hash": "0xac68dc526664c156ea96ec3e342212e9f72bf1e9af3657b2de1c1c7445ff35d7",
      "transactionType": "CALL",
      "contractName": null,
      "contractAddress": "0x8aafd3ede9adb0ff97c7aebce82a919afb1c8764",
      "function": "sell(uint256)",
      "arguments": [
        "147593713141114271251"
      ],
      "transaction": {
        "from": "0xc77f7fed3b5cc8249adc428c5f44c9063b9734b4",
        "to": "0x8aafd3ede9adb0ff97c7aebce82a919afb1c8764",
        "gas": "0x15dca",
        "value": "0x0",
        "input": "0xe4849b320000000000000000000000000000000000000000000000080046341de904f613",
        "nonce": "0x1751",
        "chainId": "0xaa36a7"
      },
      "additionalContracts": [],
      "isFixedGasLimit": false
    }
  ],
  "receipts": [
    {
      "status": "0x1",
      "cumulativeGasUsed": "0x20e5f60",
      "logs": [
        {
          "address": "0x8aafd3ede9adb0ff97c7aebce82a919afb1c8764",
          "topics": [
            "0xddf252ad1be2c89b69c2b068fc378daa952ba7f163c4a11628f55a4df523b3ef",
            "0x000000000000000000000000c77f7fed3b5cc8249adc428c5f44c9063b9734b4",
            "0x0000000000000000000000000000000000000000000000000000000000000000"
          ],
          "data": "0x000000000000000000000000000000000000000000000007efe356841229c919",
          "blockHash": "0xe74a4613187b3c354ffc3f90623f8640c7da2a10daf983d91581ca7e633b0f21",
          "blockNumber": "0x731f20",
          "transactionHash": "0xac68dc526664c156ea96ec3e342212e9f72bf1e9af3657b2de1c1c7445ff35d7",
          "transactionIndex": "0x57",
          "logIndex": "0x10fa",
          "removed": false
        },
        {
          "address": "0x8aafd3ede9adb0ff97c7aebce82a919afb1c8764",
          "topics": [
            "0xddf252ad1be2c89b69c2b068fc378daa952ba7f163c4a11628f55a4df523b3ef",
            "0x000000000000000000000000c77f7fed3b5cc8249adc428c5f44c9063b9734b4",
            "0x000000000000000000000000c77f7fed3b5cc8249adc428c5f44c9063b9734b4"
          ],
          "data": "0x0000000000000000000000000000000000000000000000001062dd99d6db2cfa",
          "blockHash": "0xe74a4613187b3c354ffc3f90623f8640c7da2a10daf983d91581ca7e633b0f21",
          "blockNumber": "0x731f20",
          "transactionHash": "0xac68dc526664c156ea96ec3e342212e9f72bf1e9af3657b2de1c1c7445ff35d7",
          "transactionIndex": "0x57",
          "logIndex": "0x10fb",
          "removed": false
        },
        {
          "address": "0x8aafd3ede9adb0ff97c7aebce82a919afb1c8764",
          "topics": [
            "0x4afcb4a87cdbd9974efdb92ee48bc8d7cd0ae4bf217004db3d080cbaee652ca7"
          ],
          "data": "0x0000000000000000000000000000000000000000000000000000000067907268000000000000000000000000000000000000000000000000001801d9166a29da0000000000000000000000000000000000000000000000000dcbd8cf3a7300d1",
          "blockHash": "0xe74a4613187b3c354ffc3f90623f8640c7da2a10daf983d91581ca7e633b0f21",
          "blockNumber": "0x731f20",
          "transactionHash": "0xac68dc526664c156ea96ec3e342212e9f72bf1e9af3657b2de1c1c7445ff35d7",
          "transactionIndex": "0x57",
          "logIndex": "0x10fc",
          "removed": false
        }
      ],
      "logsBloom": "0x00000000000000000000000000000000000000000600000000000000000000000000000000000000000000000000000000000000000000004000000000000000000000000000004000000008000000000000000000000000000000000000000000000000020000000000000000000800020000000000000000000010000000000000000000000000000000000000000000000000000000000000010000000000000000000000000000000000000000004000000000000000000000000000000000000002000000800000000000000000000000000000080000000000000020000000000000000000000000000000000000000000000000000000000000000000",
      "type": "0x2",
      "transactionHash": "0xac68dc526664c156ea96ec3e342212e9f72bf1e9af3657b2de1c1c7445ff35d7",
      "transactionIndex": "0x57",
      "blockHash": "0xe74a4613187b3c354ffc3f90623f8640c7da2a10daf983d91581ca7e633b0f21",
      "blockNumber": "0x731f20",
      "gasUsed": "0xfd3f",
      "effectiveGasPrice": "0x38ad82d2",
      "from": "0xc77f7fed3b5cc8249adc428c5f44c9063b9734b4",
      "to": "0x8aafd3ede9adb0ff97c7aebce82a919afb1c8764",
      "contractAddress": null
    }
  ],
  "libraries": [],
  "pending": [],
  "returns": {},
  "timestamp": 1737519722,
  "chain": 11155111,
  "commit": "1d2fb70"
}