{
  "transactions": [
    {
      "hash": "0xfb47382c58743f04b988b6ab1e02e81ed2dedb0fea6a31d3db5d98223d318c75",
      "transactionType": "CALL",
      "contractName": null,
      "contractAddress": "0x8aafd3ede9adb0ff97c7aebce82a919afb1c8764",
      "function": "sell(uint256)",
      "arguments": [
        "12575"
      ],
      "transaction": {
        "from": "0xc77f7fed3b5cc8249adc428c5f44c9063b9734b4",
        "to": "0x8aafd3ede9adb0ff97c7aebce82a919afb1c8764",
        "gas": "0x14e4c",
        "value": "0x0",
        "input": "0xe4849b32000000000000000000000000000000000000000000000000000000000000311f",
        "nonce": "0xe72",
        "chainId": "0xaa36a7"
      },
      "additionalContracts": [],
      "isFixedGasLimit": false
    }
  ],
  "receipts": [
    {
      "status": "0x1",
      "cumulativeGasUsed": "0xcbb9be",
      "logs": [
        {
          "address": "0x8aafd3ede9adb0ff97c7aebce82a919afb1c8764",
          "topics": [
            "0xddf252ad1be2c89b69c2b068fc378daa952ba7f163c4a11628f55a4df523b3ef",
            "0x000000000000000000000000c77f7fed3b5cc8249adc428c5f44c9063b9734b4",
            "0x0000000000000000000000000000000000000000000000000000000000000000"
          ],
          "data": "0x00000000000000000000000000000000000000000000000000000000000030bb",
          "blockHash": "0x988a934d315f99ea35dae015b817e033bea1846be5179c547d3d4035939c5c37",
          "blockNumber": "0x7313cb",
          "transactionHash": "0xfb47382c58743f04b988b6ab1e02e81ed2dedb0fea6a31d3db5d98223d318c75",
          "transactionIndex": "0x98",
          "logIndex": "0xcb",
          "removed": false
        },
        {
          "address": "0x8aafd3ede9adb0ff97c7aebce82a919afb1c8764",
          "topics": [
            "0xddf252ad1be2c89b69c2b068fc378daa952ba7f163c4a11628f55a4df523b3ef",
            "0x000000000000000000000000c77f7fed3b5cc8249adc428c5f44c9063b9734b4",
            "0x000000000000000000000000c77f7fed3b5cc8249adc428c5f44c9063b9734b4"
          ],
          "data": "0x0000000000000000000000000000000000000000000000000000000000000064",
          "blockHash": "0x988a934d315f99ea35dae015b817e033bea1846be5179c547d3d4035939c5c37",
          "blockNumber": "0x7313cb",
          "transactionHash": "0xfb47382c58743f04b988b6ab1e02e81ed2dedb0fea6a31d3db5d98223d318c75",
          "transactionIndex": "0x98",
          "logIndex": "0xcc",
          "removed": false
        },
        {
          "address": "0x8aafd3ede9adb0ff97c7aebce82a919afb1c8764",
          "topics": [
            "0x4afcb4a87cdbd9974efdb92ee48bc8d7cd0ae4bf217004db3d080cbaee652ca7"
          ],
          "data": "0x00000000000000000000000000000000000000000000000000000000678fea180000000000000000000000000000000000000000000000000004b54a054237f40000000000000000000000000000000000000000000000000000000000000010",
          "blockHash": "0x988a934d315f99ea35dae015b817e033bea1846be5179c547d3d4035939c5c37",
          "blockNumber": "0x7313cb",
          "transactionHash": "0xfb47382c58743f04b988b6ab1e02e81ed2dedb0fea6a31d3db5d98223d318c75",
          "transactionIndex": "0x98",
          "logIndex": "0xcd",
          "removed": false
        }
      ],
      "logsBloom": "0x00000000000000000000000000000000000000000600000000000000000000000000000000000000000000000000000000000000000000004000000000000000000000000000004000000008000000000000000000000000000000000000000000000000020000000000000000000800020000000000000000000010000000000000000000000000000000000000000000000000000000000000010000000000000000000000000000000000000000004000000000000000000000000000000000000002000000800000000000000000000000000000080000000000000020000000000000000000000000000000000000000000000000000000000000000000",
      "type": "0x2",
      "transactionHash": "0xfb47382c58743f04b988b6ab1e02e81ed2dedb0fea6a31d3db5d98223d318c75",
      "transactionIndex": "0x98",
      "blockHash": "0x988a934d315f99ea35dae015b817e033bea1846be5179c547d3d4035939c5c37",
      "blockNumber": "0x7313cb",
      "gasUsed": "0xf207",
      "effectiveGasPrice": "0x65457018",
      "from": "0xc77f7fed3b5cc8249adc428c5f44c9063b9734b4",
      "to": "0x8aafd3ede9adb0ff97c7aebce82a919afb1c8764",
      "contractAddress": null
    }
  ],
  "libraries": [],
  "pending": [],
  "returns": {},
  "timestamp": 1737484824,
  "chain": 11155111,
  "commit": "51a374b"
}