{
  "transactions": [
    {
      "hash": "0x0f14ca4b9c6075d9d4cf09b1a5f61a711db37652662ebb4c390ec44d0d500d84",
      "transactionType": "CALL",
      "contractName": null,
      "contractAddress": "0x8aafd3ede9adb0ff97c7aebce82a919afb1c8764",
      "function": "sell(uint256)",
      "arguments": [
        "43272037668617371"
      ],
      "transaction": {
        "from": "0xc77f7fed3b5cc8249adc428c5f44c9063b9734b4",
        "to": "0x8aafd3ede9adb0ff97c7aebce82a919afb1c8764",
        "gas": "0x1724d",
        "value": "0x0",
        "input": "0xe4849b320000000000000000000000000000000000000000000000000099bbb061f1fc9b",
        "nonce": "0x1237",
        "chainId": "0xaa36a7"
      },
      "additionalContracts": [],
      "isFixedGasLimit": false
    }
  ],
  "receipts": [
    {
      "status": "0x1",
      "cumulativeGasUsed": "0xdafd4f",
      "logs": [
        {
          "address": "0x8aafd3ede9adb0ff97c7aebce82a919afb1c8764",
          "topics": [
            "0xddf252ad1be2c89b69c2b068fc378daa952ba7f163c4a11628f55a4df523b3ef",
            "0x000000000000000000000000c77f7fed3b5cc8249adc428c5f44c9063b9734b4",
            "0x0000000000000000000000000000000000000000000000000000000000000000"
          ],
          "data": "0x000000000000000000000000000000000000000000000000009880d7ee794451",
          "blockHash": "0xe69faab0c54efda6d3fafdeb2351e22dfd4313e2a57c9fec1cad7ea9cac6e46a",
          "blockNumber": "0x731917",
          "transactionHash": "0x0f14ca4b9c6075d9d4cf09b1a5f61a711db37652662ebb4c390ec44d0d500d84",
          "transactionIndex": "0xa1",
          "logIndex": "0xbd",
          "removed": false
        },
        {
          "address": "0x8aafd3ede9adb0ff97c7aebce82a919afb1c8764",
          "topics": [
            "0xddf252ad1be2c89b69c2b068fc378daa952ba7f163c4a11628f55a4df523b3ef",
            "0x000000000000000000000000c77f7fed3b5cc8249adc428c5f44c9063b9734b4",
            "0x000000000000000000000000c77f7fed3b5cc8249adc428c5f44c9063b9734b4"
          ],
          "data": "0x00000000000000000000000000000000000000000000000000013ad87378b84a",
          "blockHash": "0xe69faab0c54efda6d3fafdeb2351e22dfd4313e2a57c9fec1cad7ea9cac6e46a",
          "blockNumber": "0x731917",
          "transactionHash": "0x0f14ca4b9c6075d9d4cf09b1a5f61a711db37652662ebb4c390ec44d0d500d84",
          "transactionIndex": "0xa1",
          "logIndex": "0xbe",
          "removed": false
        },
        {
          "address": "0x8aafd3ede9adb0ff97c7aebce82a919afb1c8764",
          "topics": [
            "0x4afcb4a87cdbd9974efdb92ee48bc8d7cd0ae4bf217004db3d080cbaee652ca7"
          ],
          "data": "0x00000000000000000000000000000000000000000000000000000000679029e400000000000000000000000000000000000000000000000000053932930f098e000000000000000000000000000000000000000000000000000039dcfe9e3c4b",
          "blockHash": "0xe69faab0c54efda6d3fafdeb2351e22dfd4313e2a57c9fec1cad7ea9cac6e46a",
          "blockNumber": "0x731917",
          "transactionHash": "0x0f14ca4b9c6075d9d4cf09b1a5f61a711db37652662ebb4c390ec44d0d500d84",
          "transactionIndex": "0xa1",
          "logIndex": "0xbf",
          "removed": false
        }
      ],
      "logsBloom": "0x00000000000000000000000000000000000000000600000000000000000000000000000000000000000000000000000000000000000000004000000000000000000000000000004000000008000000000000000000000000000000000000000000000000020000000000000000000800020000000000000000000010000000000000000000000000000000000000000000000000000000000000010000000000000000000000000000000000000000004000000000000000000000000000000000000002000000800000000000000000000000000000080000000000000020000000000000000000000000000000000000000000000000000000000000000000",
      "type": "0x2",
      "transactionHash": "0x0f14ca4b9c6075d9d4cf09b1a5f61a711db37652662ebb4c390ec44d0d500d84",
      "transactionIndex": "0xa1",
      "blockHash": "0xe69faab0c54efda6d3fafdeb2351e22dfd4313e2a57c9fec1cad7ea9cac6e46a",
      "blockNumber": "0x731917",
      "gasUsed": "0xfd33",
      "effectiveGasPrice": "0x37482252",
      "from": "0xc77f7fed3b5cc8249adc428c5f44c9063b9734b4",
      "to": "0x8aafd3ede9adb0ff97c7aebce82a919afb1c8764",
      "contractAddress": null
    }
  ],
  "libraries": [],
  "pending": [],
  "returns": {},
  "timestamp": 1737501158,
  "chain": 11155111,
  "commit": "1d2fb70"
}