{
  "transactions": [
    {
      "hash": "0x7233989fd892b94b7f64791c49812ad04d33f1a44b0bee1632750f519c4ccc14",
      "transactionType": "CALL",
      "contractName": null,
      "contractAddress": "0x8aafd3ede9adb0ff97c7aebce82a919afb1c8764",
      "function": "sell(uint256)",
      "arguments": [
        "73533671"
      ],
      "transaction": {
        "from": "0xc77f7fed3b5cc8249adc428c5f44c9063b9734b4",
        "to": "0x8aafd3ede9adb0ff97c7aebce82a919afb1c8764",
        "gas": "0x15d88",
        "value": "0x0",
        "input": "0xe4849b3200000000000000000000000000000000000000000000000000000000046208e7",
        "nonce": "0x1382",
        "chainId": "0xaa36a7"
      },
      "additionalContracts": [],
      "isFixedGasLimit": false
    }
  ],
  "receipts": [
    {
      "status": "0x1",
      "cumulativeGasUsed": "0x1053e20",
      "logs": [
        {
          "address": "0x8aafd3ede9adb0ff97c7aebce82a919afb1c8764",
          "topics": [
            "0xddf252ad1be2c89b69c2b068fc378daa952ba7f163c4a11628f55a4df523b3ef",
            "0x000000000000000000000000c77f7fed3b5cc8249adc428c5f44c9063b9734b4",
            "0x0000000000000000000000000000000000000000000000000000000000000000"
          ],
          "data": "0x0000000000000000000000000000000000000000000000000000000004590efa",
          "blockHash": "0x7b8c72907e8be05aa89d7b53328e16437df78ef1deab927e2ec3bd21eb5f092b",
          "blockNumber": "0x731aa6",
          "transactionHash": "0x7233989fd892b94b7f64791c49812ad04d33f1a44b0bee1632750f519c4ccc14",
          "transactionIndex": "0x85",
          "logIndex": "0x60",
          "removed": false
        },
        {
          "address": "0x8aafd3ede9adb0ff97c7aebce82a919afb1c8764",
          "topics": [
            "0xddf252ad1be2c89b69c2b068fc378daa952ba7f163c4a11628f55a4df523b3ef",
            "0x000000000000000000000000c77f7fed3b5cc8249adc428c5f44c9063b9734b4",
            "0x000000000000000000000000c77f7fed3b5cc8249adc428c5f44c9063b9734b4"
          ],
          "data": "0x000000000000000000000000000000000000000000000000000000000008f9ed",
          "blockHash": "0x7b8c72907e8be05aa89d7b53328e16437df78ef1deab927e2ec3bd21eb5f092b",
          "blockNumber": "0x731aa6",
          "transactionHash": "0x7233989fd892b94b7f64791c49812ad04d33f1a44b0bee1632750f519c4ccc14",
          "transactionIndex": "0x85",
          "logIndex": "0x61",
          "removed": false
        },
        {
          "address": "0x8aafd3ede9adb0ff97c7aebce82a919afb1c8764",
          "topics": [
            "0x4afcb4a87cdbd9974efdb92ee48bc8d7cd0ae4bf217004db3d080cbaee652ca7"
          ],
          "data": "0x0000000000000000000000000000000000000000000000000000000067903c98000000000000000000000000000000000000000000000000000cadb4f60e43560000000000000000000000000000000000000000000000000000000000040113",
          "blockHash": "0x7b8c72907e8be05aa89d7b53328e16437df78ef1deab927e2ec3bd21eb5f092b",
          "blockNumber": "0x731aa6",
          "transactionHash": "0x7233989fd892b94b7f64791c49812ad04d33f1a44b0bee1632750f519c4ccc14",
          "transactionIndex": "0x85",
          "logIndex": "0x62",
          "removed": false
        }
      ],
      "logsBloom": "0x00000000000000000000000000000000000000000600000000000000000000000000000000000000000000000000000000000000000000004000000000000000000000000000004000000008000000000000000000000000000000000000000000000000020000000000000000000800020000000000000000000010000000000000000000000000000000000000000000000000000000000000010000000000000000000000000000000000000000004000000000000000000000000000000000000002000000800000000000000000000000000000080000000000000020000000000000000000000000000000000000000000000000000000000000000000",
      "type": "0x2",
      "transactionHash": "0x7233989fd892b94b7f64791c49812ad04d33f1a44b0bee1632750f519c4ccc14",
      "transactionIndex": "0x85",
      "blockHash": "0x7b8c72907e8be05aa89d7b53328e16437df78ef1deab927e2ec3bd21eb5f092b",
      "blockNumber": "0x731aa6",
      "gasUsed": "0xfd0f",
      "effectiveGasPrice": "0x7b818f99",
      "from": "0xc77f7fed3b5cc8249adc428c5f44c9063b9734b4",
      "to": "0x8aafd3ede9adb0ff97c7aebce82a919afb1c8764",
      "contractAddress": null
    }
  ],
  "libraries": [],
  "pending": [],
  "returns": {},
  "timestamp": 1737505945,
  "chain": 11155111,
  "commit": "1d2fb70"
}