{
  "transactions": [
    {
      "hash": "0xbb444c9336175927b84bcfba90ed1ea959242e7850c0c4653f1d6038a5db0943",
      "transactionType": "CALL",
      "contractName": null,
      "contractAddress": "0x8aafd3ede9adb0ff97c7aebce82a919afb1c8764",
      "function": "sell(uint256)",
      "arguments": [
        "618273"
      ],
      "transaction": {
        "from": "0xc77f7fed3b5cc8249adc428c5f44c9063b9734b4",
        "to": "0x8aafd3ede9adb0ff97c7aebce82a919afb1c8764",
        "gas": "0x16208",
        "value": "0x0",
        "input": "0xe4849b320000000000000000000000000000000000000000000000000000000000096f21",
        "nonce": "0x134d",
        "chainId": "0xaa36a7"
      },
      "additionalContracts": [],
      "isFixedGasLimit": false
    }
  ],
  "receipts": [
    {
      "status": "0x1",
      "cumulativeGasUsed": "0xacdef1",
      "logs": [
        {
          "address": "0x8aafd3ede9adb0ff97c7aebce82a919afb1c8764",
          "topics": [
            "0xddf252ad1be2c89b69c2b068fc378daa952ba7f163c4a11628f55a4df523b3ef",
            "0x000000000000000000000000c77f7fed3b5cc8249adc428c5f44c9063b9734b4",
            "0x0000000000000000000000000000000000000000000000000000000000000000"
          ],
          "data": "0x0000000000000000000000000000000000000000000000000000000000095bcf",
          "blockHash": "0x9df914e02f2b1ea639677dc2fac12880a3dbbf2a4abb244cef6d3b5ec0974d12",
          "blockNumber": "0x731a67",
          "transactionHash": "0xbb444c9336175927b84bcfba90ed1ea959242e7850c0c4653f1d6038a5db0943",
          "transactionIndex": "0x85",
          "logIndex": "0x79",
          "removed": false
        },
        {
          "address": "0x8aafd3ede9adb0ff97c7aebce82a919afb1c8764",
          "topics": [
            "0xddf252ad1be2c89b69c2b068fc378daa952ba7f163c4a11628f55a4df523b3ef",
            "0x000000000000000000000000c77f7fed3b5cc8249adc428c5f44c9063b9734b4",
            "0x000000000000000000000000c77f7fed3b5cc8249adc428c5f44c9063b9734b4"
          ],
          "data": "0x0000000000000000000000000000000000000000000000000000000000001352",
          "blockHash": "0x9df914e02f2b1ea639677dc2fac12880a3dbbf2a4abb244cef6d3b5ec0974d12",
          "blockNumber": "0x731a67",
          "transactionHash": "0xbb444c9336175927b84bcfba90ed1ea959242e7850c0c4653f1d6038a5db0943",
          "transactionIndex": "0x85",
          "logIndex": "0x7a",
          "removed": false
        },
        {
          "address": "0x8aafd3ede9adb0ff97c7aebce82a919afb1c8764",
          "topics": [
            "0x4afcb4a87cdbd9974efdb92ee48bc8d7cd0ae4bf217004db3d080cbaee652ca7"
          ],
          "data": "0x00000000000000000000000000000000000000000000000000000000679039a4000000000000000000000000000000000000000000000000000c116145adf3820000000000000000000000000000000000000000000000000000000000000834",
          "blockHash": "0x9df914e02f2b1ea639677dc2fac12880a3dbbf2a4abb244cef6d3b5ec0974d12",
          "blockNumber": "0x731a67",
          "transactionHash": "0xbb444c9336175927b84bcfba90ed1ea959242e7850c0c4653f1d6038a5db0943",
          "transactionIndex": "0x85",
          "logIndex": "0x7b",
          "removed": false
        }
      ],
      "logsBloom": "0x00000000000000000000000000000000000000000600000000000000000000000000000000000000000000000000000000000000000000004000000000000000000000000000004000000008000000000000000000000000000000000000000000000000020000000000000000000800020000000000000000000010000000000000000000000000000000000000000000000000000000000000010000000000000000000000000000000000000000004000000000000000000000000000000000000002000000800000000000000000000000000000080000000000000020000000000000000000000000000000000000000000000000000000000000000000",
      "type": "0x2",
      "transactionHash": "0xbb444c9336175927b84bcfba90ed1ea959242e7850c0c4653f1d6038a5db0943",
      "transactionIndex": "0x85",
      "blockHash": "0x9df914e02f2b1ea639677dc2fac12880a3dbbf2a4abb244cef6d3b5ec0974d12",
      "blockNumber": "0x731a67",
      "gasUsed": "0xf213",
      "effectiveGasPrice": "0x3e1e7ed1",
      "from": "0xc77f7fed3b5cc8249adc428c5f44c9063b9734b4",
      "to": "0x8aafd3ede9adb0ff97c7aebce82a919afb1c8764",
      "contractAddress": null
    }
  ],
  "libraries": [],
  "pending": [],
  "returns": {},
  "timestamp": 1737505190,
  "chain": 11155111,
  "commit": "1d2fb70"
}