{
  "transactions": [
    {
      "hash": "0xe358bdf9b8ba1aef5f1b7b224938882618816afac2bfa21115b404119f446ea1",
      "transactionType": "CALL",
      "contractName": null,
      "contractAddress": "0x5eb9cc76c3506942c1c0ead70e877dd5e4f00cb0",
      "function": "sell(uint256)",
      "arguments": [
        "989117846973859185335"
      ],
      "transaction": {
        "from": "0xc77f7fed3b5cc8249adc428c5f44c9063b9734b4",
        "to": "0x5eb9cc76c3506942c1c0ead70e877dd5e4f00cb0",
        "gas": "0x16fec",
        "value": "0x0",
        "input": "0xe4849b320000000000000000000000000000000000000000000000359ec48140740f42b7",
        "nonce": "0x391",
        "chainId": "0xaa36a7"
      },
      "additionalContracts": [],
      "isFixedGasLimit": false
    }
  ],
  "receipts": [
    {
      "status": "0x1",
      "cumulativeGasUsed": "0xea53ac",
      "logs": [
        {
          "address": "0x5eb9cc76c3506942c1c0ead70e877dd5e4f00cb0",
          "topics": [
            "0xddf252ad1be2c89b69c2b068fc378daa952ba7f163c4a11628f55a4df523b3ef",
            "0x000000000000000000000000c77f7fed3b5cc8249adc428c5f44c9063b9734b4",
            "0x0000000000000000000000000000000000000000000000000000000000000000"
          ],
          "data": "0x0000000000000000000000000000000000000000000000359ec48140740f42b7",
          "blockHash": "0xead4ee9d7629ef66ff940713996ba7da0674ea8e364753d955e2d4f11c24d977",
          "blockNumber": "0x724f8d",
          "transactionHash": "0xe358bdf9b8ba1aef5f1b7b224938882618816afac2bfa21115b404119f446ea1",
          "transactionIndex": "0x65",
          "logIndex": "0x8c",
          "removed": false
        },
        {
          "address": "0x5eb9cc76c3506942c1c0ead70e877dd5e4f00cb0",
          "topics": [
            "0x4afcb4a87cdbd9974efdb92ee48bc8d7cd0ae4bf217004db3d080cbaee652ca7"
          ],
          "data": "0x000000000000000000000000000000000000000000000000000000006786ac50000000000000000000000000000000000000000000000000000391114124b7490000000000000000000000000000000000000000000000000dc7db1332073464",
          "blockHash": "0xead4ee9d7629ef66ff940713996ba7da0674ea8e364753d955e2d4f11c24d977",
          "blockNumber": "0x724f8d",
          "transactionHash": "0xe358bdf9b8ba1aef5f1b7b224938882618816afac2bfa21115b404119f446ea1",
          "transactionIndex": "0x65",
          "logIndex": "0x8d",
          "removed": false
        }
      ],
      "logsBloom": "0x00000000000000000000000000000000000000000000000000000000000000000000000000000000000000000000000000000000000000004000000000000000000000000000000000000008000000000000000000000000000000000000000000000000020000000000000004000800020000000000000000000010000000000000000000000000000000000000000000000000000000000000010000000000000000000000000000000000000000004000000000000000000000000000020000000002000000800000008000000000000000000000080000000000000020000000000000000000000000000000000000000000000000000000000000000000",
      "type": "0x2",
      "transactionHash": "0xe358bdf9b8ba1aef5f1b7b224938882618816afac2bfa21115b404119f446ea1",
      "transactionIndex": "0x65",
      "blockHash": "0xead4ee9d7629ef66ff940713996ba7da0674ea8e364753d955e2d4f11c24d977",
      "blockNumber": "0x724f8d",
      "gasUsed": "0xfb93",
      "effectiveGasPrice": "0x59d4ad3ea",
      "from": "0xc77f7fed3b5cc8249adc428c5f44c9063b9734b4",
      "to": "0x5eb9cc76c3506942c1c0ead70e877dd5e4f00cb0",
      "contractAddress": null
    }
  ],
  "libraries": [],
  "pending": [],
  "returns": {},
  "timestamp": 1736879186,
  "chain": 11155111,
  "commit": "51a374b"
}