{
  "transactions": [
    {
      "hash": "0xa5e863ba973bef5966a3817c8a5b310ef97549a1831ed8741dc6e9af6a912916",
      "transactionType": "CALL",
      "contractName": null,
      "contractAddress": "0x8aafd3ede9adb0ff97c7aebce82a919afb1c8764",
      "function": "sell(uint256)",
      "arguments": [
        "22800072686"
      ],
      "transaction": {
        "from": "0xc77f7fed3b5cc8249adc428c5f44c9063b9734b4",
        "to": "0x8aafd3ede9adb0ff97c7aebce82a919afb1c8764",
        "gas": "0x1722a",
        "value": "0x0",
        "input": "0xe4849b32000000000000000000000000000000000000000000000000000000054efd7fee",
        "nonce": "0x1136",
        "chainId": "0xaa36a7"
      },
      "additionalContracts": [],
      "isFixedGasLimit": false
    }
  ],
  "receipts": [
    {
      "status": "0x1",
      "cumulativeGasUsed": "0xe4f326",
      "logs": [
        {
          "address": "0x8aafd3ede9adb0ff97c7aebce82a919afb1c8764",
          "topics": [
            "0xddf252ad1be2c89b69c2b068fc378daa952ba7f163c4a11628f55a4df523b3ef",
            "0x000000000000000000000000c77f7fed3b5cc8249adc428c5f44c9063b9734b4",
            "0x0000000000000000000000000000000000000000000000000000000000000000"
          ],
          "data": "0x00000000000000000000000000000000000000000000000000000005441e49a9",
          "blockHash": "0xe145d9f29c2d2ac32fda2cf95bb3cac7a85b739561839ce8e78c1eae6ed7cd5f",
          "blockNumber": "0x7317ef",
          "transactionHash": "0xa5e863ba973bef5966a3817c8a5b310ef97549a1831ed8741dc6e9af6a912916",
          "transactionIndex": "0x98",
          "logIndex": "0xbd",
          "removed": false
        },
        {
          "address": "0x8aafd3ede9adb0ff97c7aebce82a919afb1c8764",
          "topics": [
            "0xddf252ad1be2c89b69c2b068fc378daa952ba7f163c4a11628f55a4df523b3ef",
            "0x000000000000000000000000c77f7fed3b5cc8249adc428c5f44c9063b9734b4",
            "0x000000000000000000000000c77f7fed3b5cc8249adc428c5f44c9063b9734b4"
          ],
          "data": "0x000000000000000000000000000000000000000000000000000000000adf3645",
          "blockHash": "0xe145d9f29c2d2ac32fda2cf95bb3cac7a85b739561839ce8e78c1eae6ed7cd5f",
          "blockNumber": "0x7317ef",
          "transactionHash": "0xa5e863ba973bef5966a3817c8a5b310ef97549a1831ed8741dc6e9af6a912916",
          "transactionIndex": "0x98",
          "logIndex": "0xbe",
          "removed": false
        },
        {
          "address": "0x8aafd3ede9adb0ff97c7aebce82a919afb1c8764",
          "topics": [
            "0x4afcb4a87cdbd9974efdb92ee48bc8d7cd0ae4bf217004db3d080cbaee652ca7"
          ],
          "data": "0x0000000000000000000000000000000000000000000000000000000067901bf80000000000000000000000000000000000000000000000000005136c076586920000000000000000000000000000000000000000000000000000000001f10ea2",
          "blockHash": "0xe145d9f29c2d2ac32fda2cf95bb3cac7a85b739561839ce8e78c1eae6ed7cd5f",
          "blockNumber": "0x7317ef",
          "transactionHash": "0xa5e863ba973bef5966a3817c8a5b310ef97549a1831ed8741dc6e9af6a912916",
          "transactionIndex": "0x98",
          "logIndex": "0xbf",
          "removed": false
        }
      ],
      "logsBloom": "0x00000000000000000000000000000000000000000600000000000000000000000000000000000000000000000000000000000000000000004000000000000000000000000000004000000008000000000000000000000000000000000000000000000000020000000000000000000800020000000000000000000010000000000000000000000000000000000000000000000000000000000000010000000000000000000000000000000000000000004000000000000000000000000000000000000002000000800000000000000000000000000000080000000000000020000000000000000000000000000000000000000000000000000000000000000000",
      "type": "0x2",
      "transactionHash": "0xa5e863ba973bef5966a3817c8a5b310ef97549a1831ed8741dc6e9af6a912916",
      "transactionIndex": "0x98",
      "blockHash": "0xe145d9f29c2d2ac32fda2cf95bb3cac7a85b739561839ce8e78c1eae6ed7cd5f",
      "blockNumber": "0x7317ef",
      "gasUsed": "0xfd1b",
      "effectiveGasPrice": "0x4726cb35",
      "from": "0xc77f7fed3b5cc8249adc428c5f44c9063b9734b4",
      "to": "0x8aafd3ede9adb0ff97c7aebce82a919afb1c8764",
      "contractAddress": null
    }
  ],
  "libraries": [],
  "pending": [],
  "returns": {},
  "timestamp": 1737497593,
  "chain": 11155111,
  "commit": "1d2fb70"
}