{
  "transactions": [
    {
      "hash": "0x3116adc7bb1391714a20238136ddc2def63dede06c4aa3c2e76bb0ccbe9a2fbe",
      "transactionType": "CALL",
      "contractName": null,
      "contractAddress": "0x8aafd3ede9adb0ff97c7aebce82a919afb1c8764",
      "function": "sell(uint256)",
      "arguments": [
        "9743189559"
      ],
      "transaction": {
        "from": "0xc77f7fed3b5cc8249adc428c5f44c9063b9734b4",
        "to": "0x8aafd3ede9adb0ff97c7aebce82a919afb1c8764",
        "gas": "0x1722a",
        "value": "0x0",
        "input": "0xe4849b320000000000000000000000000000000000000000000000000000000244bd4637",
        "nonce": "0x1342",
        "chainId": "0xaa36a7"
      },
      "additionalContracts": [],
      "isFixedGasLimit": false
    }
  ],
  "receipts": [
    {
      "status": "0x1",
      "cumulativeGasUsed": "0x711ca9",
      "logs": [
        {
          "address": "0x8aafd3ede9adb0ff97c7aebce82a919afb1c8764",
          "topics": [
            "0xddf252ad1be2c89b69c2b068fc378daa952ba7f163c4a11628f55a4df523b3ef",
            "0x000000000000000000000000c77f7fed3b5cc8249adc428c5f44c9063b9734b4",
            "0x0000000000000000000000000000000000000000000000000000000000000000"
          ],
          "data": "0x000000000000000000000000000000000000000000000000000000024017eb8b",
          "blockHash": "0x1c1df159fcc3f1856fd0176ab58c25fe8af11c4059698bb2c7188d2baad5fa96",
          "blockNumber": "0x731a5b",
          "transactionHash": "0x3116adc7bb1391714a20238136ddc2def63dede06c4aa3c2e76bb0ccbe9a2fbe",
          "transactionIndex": "0x67",
          "logIndex": "0x7c",
          "removed": false
        },
        {
          "address": "0x8aafd3ede9adb0ff97c7aebce82a919afb1c8764",
          "topics": [
            "0xddf252ad1be2c89b69c2b068fc378daa952ba7f163c4a11628f55a4df523b3ef",
            "0x000000000000000000000000c77f7fed3b5cc8249adc428c5f44c9063b9734b4",
            "0x000000000000000000000000c77f7fed3b5cc8249adc428c5f44c9063b9734b4"
          ],
          "data": "0x0000000000000000000000000000000000000000000000000000000004a55aac",
          "blockHash": "0x1c1df159fcc3f1856fd0176ab58c25fe8af11c4059698bb2c7188d2baad5fa96",
          "blockNumber": "0x731a5b",
          "transactionHash": "0x3116adc7bb1391714a20238136ddc2def63dede06c4aa3c2e76bb0ccbe9a2fbe",
          "transactionIndex": "0x67",
          "logIndex": "0x7d",
          "removed": false
        },
        {
          "address": "0x8aafd3ede9adb0ff97c7aebce82a919afb1c8764",
          "topics": [
            "0x4afcb4a87cdbd9974efdb92ee48bc8d7cd0ae4bf217004db3d080cbaee652ca7"
          ],
          "data": "0x0000000000000000000000000000000000000000000000000000000067903914000000000000000000000000000000000000000000000000000bf75fc99025b10000000000000000000000000000000000000000000000000000000001f4c00a",
          "blockHash": "0x1c1df159fcc3f1856fd0176ab58c25fe8af11c4059698bb2c7188d2baad5fa96",
          "blockNumber": "0x731a5b",
          "transactionHash": "0x3116adc7bb1391714a20238136ddc2def63dede06c4aa3c2e76bb0ccbe9a2fbe",
          "transactionIndex": "0x67",
          "logIndex": "0x7e",
          "removed": false
        }
      ],
      "logsBloom": "0x00000000000000000000000000000000000000000600000000000000000000000000000000000000000000000000000000000000000000004000000000000000000000000000004000000008000000000000000000000000000000000000000000000000020000000000000000000800020000000000000000000010000000000000000000000000000000000000000000000000000000000000010000000000000000000000000000000000000000004000000000000000000000000000000000000002000000800000000000000000000000000000080000000000000020000000000000000000000000000000000000000000000000000000000000000000",
      "type": "0x2",
      "transactionHash": "0x3116adc7bb1391714a20238136ddc2def63dede06c4aa3c2e76bb0ccbe9a2fbe",
      "transactionIndex": "0x67",
      "blockHash": "0x1c1df159fcc3f1856fd0176ab58c25fe8af11c4059698bb2c7188d2baad5fa96",
      "blockNumber": "0x731a5b",
      "gasUsed": "0xfd1b",
      "effectiveGasPrice": "0x4c7379a1",
      "from": "0xc77f7fed3b5cc8249adc428c5f44c9063b9734b4",
      "to": "0x8aafd3ede9adb0ff97c7aebce82a919afb1c8764",
      "contractAddress": null
    }
  ],
  "libraries": [],
  "pending": [],
  "returns": {},
  "timestamp": 1737505044,
  "chain": 11155111,
  "commit": "1d2fb70"
}