{
  "transactions": [
    {
      "hash": "0xec5dca385ea908ec18de775d32b248c1e9889bea22fa547d634a4320a24e98ba",
      "transactionType": "CALL",
      "contractName": null,
      "contractAddress": "0x8aafd3ede9adb0ff97c7aebce82a919afb1c8764",
      "function": "sell(uint256)",
      "arguments": [
        "304161"
      ],
      "transaction": {
        "from": "0xc77f7fed3b5cc8249adc428c5f44c9063b9734b4",
        "to": "0x8aafd3ede9adb0ff97c7aebce82a919afb1c8764",
        "gas": "0x16208",
        "value": "0x0",
        "input": "0xe4849b32000000000000000000000000000000000000000000000000000000000004a421",
        "nonce": "0x177c",
        "chainId": "0xaa36a7"
      },
      "additionalContracts": [],
      "isFixedGasLimit": false
    }
  ],
  "receipts": [
    {
      "status": "0x1",
      "cumulativeGasUsed": "0xfd3ea3",
      "logs": [
        {
          "address": "0x8aafd3ede9adb0ff97c7aebce82a919afb1c8764",
          "topics": [
            "0xddf252ad1be2c89b69c2b068fc378daa952ba7f163c4a11628f55a4df523b3ef",
            "0x000000000000000000000000c77f7fed3b5cc8249adc428c5f44c9063b9734b4",
            "0x0000000000000000000000000000000000000000000000000000000000000000"
          ],
          "data": "0x0000000000000000000000000000000000000000000000000000000000049aa0",
          "blockHash": "0x3631b6a812ebee76446858e37b790cf0e234ccb3c372cbf5664a9949dd77bb01",
          "blockNumber": "0x731f57",
          "transactionHash": "0xec5dca385ea908ec18de775d32b248c1e9889bea22fa547d634a4320a24e98ba",
          "transactionIndex": "0x61",
          "logIndex": "0x9c",
          "removed": false
        },
        {
          "address": "0x8aafd3ede9adb0ff97c7aebce82a919afb1c8764",
          "topics": [
            "0xddf252ad1be2c89b69c2b068fc378daa952ba7f163c4a11628f55a4df523b3ef",
            "0x000000000000000000000000c77f7fed3b5cc8249adc428c5f44c9063b9734b4",
            "0x000000000000000000000000c77f7fed3b5cc8249adc428c5f44c9063b9734b4"
          ],
          "data": "0x0000000000000000000000000000000000000000000000000000000000000981",
          "blockHash": "0x3631b6a812ebee76446858e37b790cf0e234ccb3c372cbf5664a9949dd77bb01",
          "blockNumber": "0x731f57",
          "transactionHash": "0xec5dca385ea908ec18de775d32b248c1e9889bea22fa547d634a4320a24e98ba",
          "transactionIndex": "0x61",
          "logIndex": "0x9d",
          "removed": false
        },
        {
          "address": "0x8aafd3ede9adb0ff97c7aebce82a919afb1c8764",
          "topics": [
            "0x4afcb4a87cdbd9974efdb92ee48bc8d7cd0ae4bf217004db3d080cbaee652ca7"
          ],
          "data": "0x00000000000000000000000000000000000000000000000000000000679074fc00000000000000000000000000000000000000000000000000186df54e920581000000000000000000000000000000000000000000000000000000000000082b",
          "blockHash": "0x3631b6a812ebee76446858e37b790cf0e234ccb3c372cbf5664a9949dd77bb01",
          "blockNumber": "0x731f57",
          "transactionHash": "0xec5dca385ea908ec18de775d32b248c1e9889bea22fa547d634a4320a24e98ba",
          "transactionIndex": "0x61",
          "logIndex": "0x9e",
          "removed": false
        }
      ],
      "logsBloom": "0x00000000000000000000000000000000000000000600000000000000000000000000000000000000000000000000000000000000000000004000000000000000000000000000004000000008000000000000000000000000000000000000000000000000020000000000000000000800020000000000000000000010000000000000000000000000000000000000000000000000000000000000010000000000000000000000000000000000000000004000000000000000000000000000000000000002000000800000000000000000000000000000080000000000000020000000000000000000000000000000000000000000000000000000000000000000",
      "type": "0x2",
      "transactionHash": "0xec5dca385ea908ec18de775d32b248c1e9889bea22fa547d634a4320a24e98ba",
      "transactionIndex": "0x61",
      "blockHash": "0x3631b6a812ebee76446858e37b790cf0e234ccb3c372cbf5664a9949dd77bb01",
      "blockNumber": "0x731f57",
      "gasUsed": "0xf213",
      "effectiveGasPrice": "0x43e6828d",
      "from": "0xc77f7fed3b5cc8249adc428c5f44c9063b9734b4",
      "to": "0x8aafd3ede9adb0ff97c7aebce82a919afb1c8764",
      "contractAddress": null
    }
  ],
  "libraries": [],
  "pending": [],
  "returns": {},
  "timestamp": 1737520381,
  "chain": 11155111,
  "commit": "1d2fb70"
}