{
  "transactions": [
    {
      "hash": "0x538ece357066ae1bb3e0fb1f84293508d24f83317b9fe5f19b96e191be056c21",
      "transactionType": "CALL",
      "contractName": null,
      "contractAddress": "0x5eb9cc76c3506942c1c0ead70e877dd5e4f00cb0",
      "function": "sell(uint256)",
      "arguments": [
        "989618508048690578408"
      ],
      "transaction": {
        "from": "0xc77f7fed3b5cc8249adc428c5f44c9063b9734b4",
        "to": "0x5eb9cc76c3506942c1c0ead70e877dd5e4f00cb0",
        "gas": "0x16fec",
        "value": "0x0",
        "input": "0xe4849b32000000000000000000000000000000000000000000000035a5b735d8c24003e8",
        "nonce": "0x239",
        "chainId": "0xaa36a7"
      },
      "additionalContracts": [],
      "isFixedGasLimit": false
    }
  ],
  "receipts": [
    {
      "status": "0x1",
      "cumulativeGasUsed": "0x893bed",
      "logs": [
        {
          "address": "0x5eb9cc76c3506942c1c0ead70e877dd5e4f00cb0",
          "topics": [
            "0xddf252ad1be2c89b69c2b068fc378daa952ba7f163c4a11628f55a4df523b3ef",
            "0x000000000000000000000000c77f7fed3b5cc8249adc428c5f44c9063b9734b4",
            "0x0000000000000000000000000000000000000000000000000000000000000000"
          ],
          "data": "0x000000000000000000000000000000000000000000000035a5b735d8c24003e8",
          "blockHash": "0xea5012ad517f090c31f9aeaf2ce3200b68a7df0d3993ab417ad9b412f138f7bf",
          "blockNumber": "0x724ded",
          "transactionHash": "0x538ece357066ae1bb3e0fb1f84293508d24f83317b9fe5f19b96e191be056c21",
          "transactionIndex": "0x4f",
          "logIndex": "0x89",
          "removed": false
        },
        {
          "address": "0x5eb9cc76c3506942c1c0ead70e877dd5e4f00cb0",
          "topics": [
            "0x4afcb4a87cdbd9974efdb92ee48bc8d7cd0ae4bf217004db3d080cbaee652ca7"
          ],
          "data": "0x00000000000000000000000000000000000000000000000000000000678698d00000000000000000000000000000000000000000000000000003909afeb46dc60000000000000000000000000000000000000000000000000dc7db118380a680",
          "blockHash": "0xea5012ad517f090c31f9aeaf2ce3200b68a7df0d3993ab417ad9b412f138f7bf",
          "blockNumber": "0x724ded",
          "transactionHash": "0x538ece357066ae1bb3e0fb1f84293508d24f83317b9fe5f19b96e191be056c21",
          "transactionIndex": "0x4f",
          "logIndex": "0x8a",
          "removed": false
        }
      ],
      "logsBloom": "0x00000000000000000000000000000000000000000000000000000000000000000000000000000000000000000000000000000000000000004000000000000000000000000000000000000008000000000000000000000000000000000000000000000000020000000000000004000800020000000000000000000010000000000000000000000000000000000000000000000000000000000000010000000000000000000000000000000000000000004000000000000000000000000000020000000002000000800000008000000000000000000000080000000000000020000000000000000000000000000000000000000000000000000000000000000000",
      "type": "0x2",
      "transactionHash": "0x538ece357066ae1bb3e0fb1f84293508d24f83317b9fe5f19b96e191be056c21",
      "transactionIndex": "0x4f",
      "blockHash": "0xea5012ad517f090c31f9aeaf2ce3200b68a7df0d3993ab417ad9b412f138f7bf",
      "blockNumber": "0x724ded",
      "gasUsed": "0xfb93",
      "effectiveGasPrice": "0x3e8cc41fc",
      "from": "0xc77f7fed3b5cc8249adc428c5f44c9063b9734b4",
      "to": "0x5eb9cc76c3506942c1c0ead70e877dd5e4f00cb0",
      "contractAddress": null
    }
  ],
  "libraries": [],
  "pending": [],
  "returns": {},
  "timestamp": 1736874193,
  "chain": 11155111,
  "commit": "51a374b"
}