{
  "transactions": [
    {
      "hash": "0xf9452bcc60ae2d588099d7ff901a170a0cea549c854b48fb2743d0c4e61817d2",
      "transactionType": "CALL",
      "contractName": null,
      "contractAddress": "0x5eb9cc76c3506942c1c0ead70e877dd5e4f00cb0",
      "function": "sell(uint256)",
      "arguments": [
        "989080877046923872701"
      ],
      "transaction": {
        "from": "0xc77f7fed3b5cc8249adc428c5f44c9063b9734b4",
        "to": "0x5eb9cc76c3506942c1c0ead70e877dd5e4f00cb0",
        "gas": "0x16fec",
        "value": "0x0",
        "input": "0xe4849b320000000000000000000000000000000000000000000000359e41294c91b549bd",
        "nonce": "0x479",
        "chainId": "0xaa36a7"
      },
      "additionalContracts": [],
      "isFixedGasLimit": false
    }
  ],
  "receipts": [
    {
      "status": "0x1",
      "cumulativeGasUsed": "0x21a5ed3",
      "logs": [
        {
          "address": "0x5eb9cc76c3506942c1c0ead70e877dd5e4f00cb0",
          "topics": [
            "0xddf252ad1be2c89b69c2b068fc378daa952ba7f163c4a11628f55a4df523b3ef",
            "0x000000000000000000000000c77f7fed3b5cc8249adc428c5f44c9063b9734b4",
            "0x0000000000000000000000000000000000000000000000000000000000000000"
          ],
          "data": "0x0000000000000000000000000000000000000000000000359e41294c91b549bd",
          "blockHash": "0xa25d8206a4c3a0272aae4ed7123a2b66e8b54746efd700f50a635b8f359bb315",
          "blockNumber": "0x7250a7",
          "transactionHash": "0xf9452bcc60ae2d588099d7ff901a170a0cea549c854b48fb2743d0c4e61817d2",
          "transactionIndex": "0xb0",
          "logIndex": "0x171",
          "removed": false
        },
        {
          "address": "0x5eb9cc76c3506942c1c0ead70e877dd5e4f00cb0",
          "topics": [
            "0x4afcb4a87cdbd9974efdb92ee48bc8d7cd0ae4bf217004db3d080cbaee652ca7"
          ],
          "data": "0x000000000000000000000000000000000000000000000000000000006786b9a000000000000000000000000000000000000000000000000000039119fdccf15b0000000000000000000000000000000000000000000000000dc7db1331c56be6",
          "blockHash": "0xa25d8206a4c3a0272aae4ed7123a2b66e8b54746efd700f50a635b8f359bb315",
          "blockNumber": "0x7250a7",
          "transactionHash": "0xf9452bcc60ae2d588099d7ff901a170a0cea549c854b48fb2743d0c4e61817d2",
          "transactionIndex": "0xb0",
          "logIndex": "0x172",
          "removed": false
        }
      ],
      "logsBloom": "0x00000000000000000000000000000000000000000000000000000000000000000000000000000000000000000000000000000000000000004000000000000000000000000000000000000008000000000000000000000000000000000000000000000000020000000000000004000800020000000000000000000010000000000000000000000000000000000000000000000000000000000000010000000000000000000000000000000000000000004000000000000000000000000000020000000002000000800000008000000000000000000000080000000000000020000000000000000000000000000000000000000000000000000000000000000000",
      "type": "0x2",
      "transactionHash": "0xf9452bcc60ae2d588099d7ff901a170a0cea549c854b48fb2743d0c4e61817d2",
      "transactionIndex": "0xb0",
      "blockHash": "0xa25d8206a4c3a0272aae4ed7123a2b66e8b54746efd700f50a635b8f359bb315",
      "blockNumber": "0x7250a7",
      "gasUsed": "0xfb93",
      "effectiveGasPrice": "0x1bf841ed6",
      "from": "0xc77f7fed3b5cc8249adc428c5f44c9063b9734b4",
      "to": "0x5eb9cc76c3506942c1c0ead70e877dd5e4f00cb0",
      "contractAddress": null
    }
  ],
  "libraries": [],
  "pending": [],
  "returns": {},
  "timestamp": 1736882594,
  "chain": 11155111,
  "commit": "51a374b"
}