{
  "transactions": [
    {
      "hash": "0xd229b87fec00040c6fadb74cf4fdacd35b17c0a1769168a207a1fdbd54019129",
      "transactionType": "CALL",
      "contractName": null,
      "contractAddress": "0xbf4a322f1496e5c3d34a9bcdb4c60567b38c7de2",
      "function": "sell(uint256)",
      "arguments": [
        "989283567220670827815"
      ],
      "transaction": {
        "from": "0xc77f7fed3b5cc8249adc428c5f44c9063b9734b4",
        "to": "0xbf4a322f1496e5c3d34a9bcdb4c60567b38c7de2",
        "gas": "0x16fea",
        "value": "0x0",
        "input": "0xe4849b32000000000000000000000000000000000000000000000035a11142f02f5b8d27",
        "nonce": "0x96b",
        "chainId": "0xaa36a7"
      },
      "additionalContracts": [],
      "isFixedGasLimit": false
    }
  ],
  "receipts": [
    {
      "status": "0x1",
      "cumulativeGasUsed": "0x8f3d8c",
      "logs": [
        {
          "address": "0xbf4a322f1496e5c3d34a9bcdb4c60567b38c7de2",
          "topics": [
            "0xddf252ad1be2c89b69c2b068fc378daa952ba7f163c4a11628f55a4df523b3ef",
            "0x000000000000000000000000c77f7fed3b5cc8249adc428c5f44c9063b9734b4",
            "0x0000000000000000000000000000000000000000000000000000000000000000"
          ],
          "data": "0x000000000000000000000000000000000000000000000035a11142f02f5b8d27",
          "blockHash": "0xc44c12d1ee19669b32e5e4577f77a0e65ce4eeaefbef574716b693425e885096",
          "blockNumber": "0x725902",
          "transactionHash": "0xd229b87fec00040c6fadb74cf4fdacd35b17c0a1769168a207a1fdbd54019129",
          "transactionIndex": "0x48",
          "logIndex": "0x6b",
          "removed": false
        },
        {
          "address": "0xbf4a322f1496e5c3d34a9bcdb4c60567b38c7de2",
          "topics": [
            "0x4afcb4a87cdbd9974efdb92ee48bc8d7cd0ae4bf217004db3d080cbaee652ca7"
          ],
          "data": "0x0000000000000000000000000000000000000000000000000000000067871e44000000000000000000000000000000000000000000000000000390f07cd7f0620000000000000000000000000000000000000000000000000dc7e3f7a68f2efe",
          "blockHash": "0xc44c12d1ee19669b32e5e4577f77a0e65ce4eeaefbef574716b693425e885096",
          "blockNumber": "0x725902",
          "transactionHash": "0xd229b87fec00040c6fadb74cf4fdacd35b17c0a1769168a207a1fdbd54019129",
          "transactionIndex": "0x48",
          "logIndex": "0x6c",
          "removed": false
        }
      ],
      "logsBloom": "0x00000000000000000000000000000000000000000000000000000000000000000000000000000000000000000000000000000000000000004000000000000000000000000000000000000008000000000000001000000000000000000000000000000000020000000000000000000800020000000000000000000010000000000000000000000000000000000000000000000000000008000000010000000000000000000000000000000000000000004000000000000000000000000000000000000002000000800000000000001000000000000000080000000000000020000000000000000000000000000000000000000000000000000000000000000000",
      "type": "0x2",
      "transactionHash": "0xd229b87fec00040c6fadb74cf4fdacd35b17c0a1769168a207a1fdbd54019129",
      "transactionIndex": "0x48",
      "blockHash": "0xc44c12d1ee19669b32e5e4577f77a0e65ce4eeaefbef574716b693425e885096",
      "blockNumber": "0x725902",
      "gasUsed": "0xfb91",
      "effectiveGasPrice": "0xa7c6a7df",
      "from": "0xc77f7fed3b5cc8249adc428c5f44c9063b9734b4",
      "to": "0xbf4a322f1496e5c3d34a9bcdb4c60567b38c7de2",
      "contractAddress": null
    }
  ],
  "libraries": [],
  "pending": [],
  "returns": {},
  "timestamp": 1736908356,
  "chain": 11155111,
  "commit": "51a374b"
}