{
  "transactions": [
    {
      "hash": "0x25b721c9aae812696c7e96d5620f62aff4c1b8ec2864608725a348783586a20b",
      "transactionType": "CALL",
      "contractName": null,
      "contractAddress": "0xbf4a322f1496e5c3d34a9bcdb4c60567b38c7de2",
      "function": "sell(uint256)",
      "arguments": [
        "977895838189892796305"
      ],
      "transaction": {
        "from": "0xc77f7fed3b5cc8249adc428c5f44c9063b9734b4",
        "to": "0xbf4a322f1496e5c3d34a9bcdb4c60567b38c7de2",
        "gas": "0x16fea",
        "value": "0x0",
        "input": "0xe4849b320000000000000000000000000000000000000000000000350307ebb8316dff91",
        "nonce": "0xcb5",
        "chainId": "0xaa36a7"
      },
      "additionalContracts": [],
      "isFixedGasLimit": false
    }
  ],
  "receipts": [
    {
      "status": "0x1",
      "cumulativeGasUsed": "0xb63719",
      "logs": [
        {
          "address": "0xbf4a322f1496e5c3d34a9bcdb4c60567b38c7de2",
          "topics": [
            "0xddf252ad1be2c89b69c2b068fc378daa952ba7f163c4a11628f55a4df523b3ef",
            "0x000000000000000000000000c77f7fed3b5cc8249adc428c5f44c9063b9734b4",
            "0x0000000000000000000000000000000000000000000000000000000000000000"
          ],
          "data": "0x0000000000000000000000000000000000000000000000350307ebb8316dff91",
          "blockHash": "0x37658cf95f3a1e4da43b9cb2c32bc5962a9882e6b8fec38d43acb5d3a74700aa",
          "blockNumber": "0x725d03",
          "transactionHash": "0x25b721c9aae812696c7e96d5620f62aff4c1b8ec2864608725a348783586a20b",
          "transactionIndex": "0x5f",
          "logIndex": "0x85",
          "removed": false
        },
        {
          "address": "0xbf4a322f1496e5c3d34a9bcdb4c60567b38c7de2",
          "topics": [
            "0x4afcb4a87cdbd9974efdb92ee48bc8d7cd0ae4bf217004db3d080cbaee652ca7"
          ],
          "data": "0x0000000000000000000000000000000000000000000000000000000067874e9800000000000000000000000000000000000000000000000000039b9206a0efb20000000000000000000000000000000000000000000000000dc7e3dd2c8f56c5",
          "blockHash": "0x37658cf95f3a1e4da43b9cb2c32bc5962a9882e6b8fec38d43acb5d3a74700aa",
          "blockNumber": "0x725d03",
          "transactionHash": "0x25b721c9aae812696c7e96d5620f62aff4c1b8ec2864608725a348783586a20b",
          "transactionIndex": "0x5f",
          "logIndex": "0x86",
          "removed": false
        }
      ],
      "logsBloom": "0x00000000000000000000000000000000000000000000000000000000000000000000000000000000000000000000000000000000000000004000000000000000000000000000000000000008000000000000001000000000000000000000000000000000020000000000000000000800020000000000000000000010000000000000000000000000000000000000000000000000000008000000010000000000000000000000000000000000000000004000000000000000000000000000000000000002000000800000000000001000000000000000080000000000000020000000000000000000000000000000000000000000000000000000000000000000",
      "type": "0x2",
      "transactionHash": "0x25b721c9aae812696c7e96d5620f62aff4c1b8ec2864608725a348783586a20b",
      "transactionIndex": "0x5f",
      "blockHash": "0x37658cf95f3a1e4da43b9cb2c32bc5962a9882e6b8fec38d43acb5d3a74700aa",
      "blockNumber": "0x725d03",
      "gasUsed": "0xfb91",
      "effectiveGasPrice": "0x21d53277b",
      "from": "0xc77f7fed3b5cc8249adc428c5f44c9063b9734b4",
      "to": "0xbf4a322f1496e5c3d34a9bcdb4c60567b38c7de2",
      "contractAddress": null
    }
  ],
  "libraries": [],
  "pending": [],
  "returns": {},
  "timestamp": 1736920729,
  "chain": 11155111,
  "commit": "51a374b"
}