{
  "transactions": [
    {
      "hash": "0xd13ce72b4e3a6cc1bfa50970d515503ee771f7711fb8da7a409827cf63aeea28",
      "transactionType": "CALL",
      "contractName": null,
      "contractAddress": "0x270e88f8683660553e8ba4eb2ad7c91a1710d769",
      "function": "sell(uint256)",
      "arguments": [
        "748372381337213050243"
      ],
      "transaction": {
        "from": "0xc77f7fed3b5cc8249adc428c5f44c9063b9734b4",
        "to": "0x270e88f8683660553e8ba4eb2ad7c91a1710d769",
        "gas": "0x16fec",
        "value": "0x0",
        "input": "0xe4849b3200000000000000000000000000000000000000000000002891c0cbc785c19d83",
        "nonce": "0x6de",
        "chainId": "0xaa36a7"
      },
      "additionalContracts": [],
      "isFixedGasLimit": false
    }
  ],
  "receipts": [
    {
      "status": "0x1",
      "cumulativeGasUsed": "0x92fec4",
      "logs": [
        {
          "address": "0x270e88f8683660553e8ba4eb2ad7c91a1710d769",
          "topics": [
            "0xddf252ad1be2c89b69c2b068fc378daa952ba7f163c4a11628f55a4df523b3ef",
            "0x000000000000000000000000c77f7fed3b5cc8249adc428c5f44c9063b9734b4",
            "0x0000000000000000000000000000000000000000000000000000000000000000"
          ],
          "data": "0x00000000000000000000000000000000000000000000002891c0cbc785c19d83",
          "blockHash": "0x410681cf7441ee38614333b988cfa1d383d1bf67c3f7beea7a13da62a04db89b",
          "blockNumber": "0x7253f1",
          "transactionHash": "0xd13ce72b4e3a6cc1bfa50970d515503ee771f7711fb8da7a409827cf63aeea28",
          "transactionIndex": "0x45",
          "logIndex": "0x7f",
          "removed": false
        },
        {
          "address": "0x270e88f8683660553e8ba4eb2ad7c91a1710d769",
          "topics": [
            "0x4afcb4a87cdbd9974efdb92ee48bc8d7cd0ae4bf217004db3d080cbaee652ca7"
          ],
          "data": "0x000000000000000000000000000000000000000000000000000000006786e1540000000000000000000000000000000000000000000000000004b71623cfb2ee0000000000000000000000000000000000000000000000000dc8295dc3b4f654",
          "blockHash": "0x410681cf7441ee38614333b988cfa1d383d1bf67c3f7beea7a13da62a04db89b",
          "blockNumber": "0x7253f1",
          "transactionHash": "0xd13ce72b4e3a6cc1bfa50970d515503ee771f7711fb8da7a409827cf63aeea28",
          "transactionIndex": "0x45",
          "logIndex": "0x80",
          "removed": false
        }
      ],
      "logsBloom": "0x00000000000000000000000000000000000000000000000000000000000000000000000000000000000000000000000020000000000000004000000000000000000000000000000000000008000000000000000000000000000000000000000000000000020000000000000000000800020000000000000000000010000000000000000000010000000000000000000000000000000000000000010000000000000000000000000000000000000000004000000000000000000000000000000000000002000000800000000000000000000000000000080000008000000020000000000000000000000000000000000000000000000000000000000000000000",
      "type": "0x2",
      "transactionHash": "0xd13ce72b4e3a6cc1bfa50970d515503ee771f7711fb8da7a409827cf63aeea28",
      "transactionIndex": "0x45",
      "blockHash": "0x410681cf7441ee38614333b988cfa1d383d1bf67c3f7beea7a13da62a04db89b",
      "blockNumber": "0x7253f1",
      "gasUsed": "0xfb93",
      "effectiveGasPrice": "0x1648fbe83",
      "from": "0xc77f7fed3b5cc8249adc428c5f44c9063b9734b4",
      "to": "0x270e88f8683660553e8ba4eb2ad7c91a1710d769",
      "contractAddress": null
    }
  ],
  "libraries": [],
  "pending": [],
  "returns": {},
  "timestamp": 1736892757,
  "chain": 11155111,
  "commit": "51a374b"
}