{
  "transactions": [
    {
      "hash": "0x19b7e7e266e2593f03f30503d1b9a58a73b6ad2cc1c5df7555c468b2d6f514a3",
      "transactionType": "CALL",
      "contractName": null,
      "contractAddress": "0x270e88f8683660553e8ba4eb2ad7c91a1710d769",
      "function": "sell(uint256)",
      "arguments": [
        "956689986756288688404"
      ],
      "transaction": {
        "from": "0xc77f7fed3b5cc8249adc428c5f44c9063b9734b4",
        "to": "0x270e88f8683660553e8ba4eb2ad7c91a1710d769",
        "gas": "0x16fec",
        "value": "0x0",
        "input": "0xe4849b32000000000000000000000000000000000000000000000033dcbd9a31adbfb114",
        "nonce": "0x5c1",
        "chainId": "0xaa36a7"
      },
      "additionalContracts": [],
      "isFixedGasLimit": false
    }
  ],
  "receipts": [
    {
      "status": "0x1",
      "cumulativeGasUsed": "0x8b7f35",
      "logs": [
        {
          "address": "0x270e88f8683660553e8ba4eb2ad7c91a1710d769",
          "topics": [
            "0xddf252ad1be2c89b69c2b068fc378daa952ba7f163c4a11628f55a4df523b3ef",
            "0x000000000000000000000000c77f7fed3b5cc8249adc428c5f44c9063b9734b4",
            "0x0000000000000000000000000000000000000000000000000000000000000000"
          ],
          "data": "0x000000000000000000000000000000000000000000000033dcbd9a31adbfb114",
          "blockHash": "0x300746091c40f5f71c50c5022356ba538dd8a69bc170580cfe41e2c71eb8ad2d",
          "blockNumber": "0x725280",
          "transactionHash": "0x19b7e7e266e2593f03f30503d1b9a58a73b6ad2cc1c5df7555c468b2d6f514a3",
          "transactionIndex": "0x3a",
          "logIndex": "0x8a",
          "removed": false
        },
        {
          "address": "0x270e88f8683660553e8ba4eb2ad7c91a1710d769",
          "topics": [
            "0x4afcb4a87cdbd9974efdb92ee48bc8d7cd0ae4bf217004db3d080cbaee652ca7"
          ],
          "data": "0x000000000000000000000000000000000000000000000000000000006786cff00000000000000000000000000000000000000000000000000003b04f141a8d8c0000000000000000000000000000000000000000000000000dc83ed8a10d85d0",
          "blockHash": "0x300746091c40f5f71c50c5022356ba538dd8a69bc170580cfe41e2c71eb8ad2d",
          "blockNumber": "0x725280",
          "transactionHash": "0x19b7e7e266e2593f03f30503d1b9a58a73b6ad2cc1c5df7555c468b2d6f514a3",
          "transactionIndex": "0x3a",
          "logIndex": "0x8b",
          "removed": false
        }
      ],
      "logsBloom": "0x00000000000000000000000000000000000000000000000000000000000000000000000000000000000000000000000020000000000000004000000000000000000000000000000000000008000000000000000000000000000000000000000000000000020000000000000000000800020000000000000000000010000000000000000000010000000000000000000000000000000000000000010000000000000000000000000000000000000000004000000000000000000000000000000000000002000000800000000000000000000000000000080000008000000020000000000000000000000000000000000000000000000000000000000000000000",
      "type": "0x2",
      "transactionHash": "0x19b7e7e266e2593f03f30503d1b9a58a73b6ad2cc1c5df7555c468b2d6f514a3",
      "transactionIndex": "0x3a",
      "blockHash": "0x300746091c40f5f71c50c5022356ba538dd8a69bc170580cfe41e2c71eb8ad2d",
      "blockNumber": "0x725280",
      "gasUsed": "0xfb93",
      "effectiveGasPrice": "0x46a7e4376",
      "from": "0xc77f7fed3b5cc8249adc428c5f44c9063b9734b4",
      "to": "0x270e88f8683660553e8ba4eb2ad7c91a1710d769",
      "contractAddress": null
    }
  ],
  "libraries": [],
  "pending": [],
  "returns": {},
  "timestamp": 1736888305,
  "chain": 11155111,
  "commit": "51a374b"
}