{
  "transactions": [
    {
      "hash": "0xcae4564ecd9bbb66429bfa50826b9305cfd5dfe6cf9a735736899a4cd94d91b3",
      "transactionType": "CALL",
      "contractName": null,
      "contractAddress": "0x8aafd3ede9adb0ff97c7aebce82a919afb1c8764",
      "function": "sell(uint256)",
      "arguments": [
        "5720035286081449493"
      ],
      "transaction": {
        "from": "0xc77f7fed3b5cc8249adc428c5f44c9063b9734b4",
        "to": "0x8aafd3ede9adb0ff97c7aebce82a919afb1c8764",
        "gas": "0x15dca",
        "value": "0x0",
        "input": "0xe4849b320000000000000000000000000000000000000000000000004f61a5c96195ae15",
        "nonce": "0x1042",
        "chainId": "0xaa36a7"
      },
      "additionalContracts": [],
      "isFixedGasLimit": false
    }
  ],
  "receipts": [
    {
      "status": "0x1",
      "cumulativeGasUsed": "0xcbdb5b",
      "logs": [
        {
          "address": "0x8aafd3ede9adb0ff97c7aebce82a919afb1c8764",
          "topics": [
            "0xddf252ad1be2c89b69c2b068fc378daa952ba7f163c4a11628f55a4df523b3ef",
            "0x000000000000000000000000c77f7fed3b5cc8249adc428c5f44c9063b9734b4",
            "0x0000000000000000000000000000000000000000000000000000000000000000"
          ],
          "data": "0x0000000000000000000000000000000000000000000000004ebf130d66f2b0ca",
          "blockHash": "0x74f02d5b4f84efdc9b5124ecf6cc7bbfcc0893e153fe0821afafacb2375d35e8",
          "blockNumber": "0x7316c2",
          "transactionHash": "0xcae4564ecd9bbb66429bfa50826b9305cfd5dfe6cf9a735736899a4cd94d91b3",
          "transactionIndex": "0x8a",
          "logIndex": "0x9e",
          "removed": false
        },
        {
          "address": "0x8aafd3ede9adb0ff97c7aebce82a919afb1c8764",
          "topics": [
            "0xddf252ad1be2c89b69c2b068fc378daa952ba7f163c4a11628f55a4df523b3ef",
            "0x000000000000000000000000c77f7fed3b5cc8249adc428c5f44c9063b9734b4",
            "0x000000000000000000000000c77f7fed3b5cc8249adc428c5f44c9063b9734b4"
          ],
          "data": "0x00000000000000000000000000000000000000000000000000a292bbfaa2fd4b",
          "blockHash": "0x74f02d5b4f84efdc9b5124ecf6cc7bbfcc0893e153fe0821afafacb2375d35e8",
          "blockNumber": "0x7316c2",
          "transactionHash": "0xcae4564ecd9bbb66429bfa50826b9305cfd5dfe6cf9a735736899a4cd94d91b3",
          "transactionIndex": "0x8a",
          "logIndex": "0x9f",
          "removed": false
        },
        {
          "address": "0x8aafd3ede9adb0ff97c7aebce82a919afb1c8764",
          "topics": [
            "0x4afcb4a87cdbd9974efdb92ee48bc8d7cd0ae4bf217004db3d080cbaee652ca7"
          ],
          "data": "0x0000000000000000000000000000000000000000000000000000000067900dd00000000000000000000000000000000000000000000000000004f09083634023000000000000000000000000000000000000000000000000001c414e624f653e",
          "blockHash": "0x74f02d5b4f84efdc9b5124ecf6cc7bbfcc0893e153fe0821afafacb2375d35e8",
          "blockNumber": "0x7316c2",
          "transactionHash": "0xcae4564ecd9bbb66429bfa50826b9305cfd5dfe6cf9a735736899a4cd94d91b3",
          "transactionIndex": "0x8a",
          "logIndex": "0xa0",
          "removed": false
        }
      ],
      "logsBloom": "0x00000000000000000000000000000000000000000600000000000000000000000000000000000000000000000000000000000000000000004000000000000000000000000000004000000008000000000000000000000000000000000000000000000000020000000000000000000800020000000000000000000010000000000000000000000000000000000000000000000000000000000000010000000000000000000000000000000000000000004000000000000000000000000000000000000002000000800000000000000000000000000000080000000000000020000000000000000000000000000000000000000000000000000000000000000000",
      "type": "0x2",
      "transactionHash": "0xcae4564ecd9bbb66429bfa50826b9305cfd5dfe6cf9a735736899a4cd94d91b3",
      "transactionIndex": "0x8a",
      "blockHash": "0x74f02d5b4f84efdc9b5124ecf6cc7bbfcc0893e153fe0821afafacb2375d35e8",
      "blockNumber": "0x7316c2",
      "gasUsed": "0xfd3f",
      "effectiveGasPrice": "0x44cd3fe2",
      "from": "0xc77f7fed3b5cc8249adc428c5f44c9063b9734b4",
      "to": "0x8aafd3ede9adb0ff97c7aebce82a919afb1c8764",
      "contractAddress": null
    }
  ],
  "libraries": [],
  "pending": [],
  "returns": {},
  "timestamp": 1737493970,
  "chain": 11155111,
  "commit": "1d2fb70"
}