{
  "transactions": [
    {
      "hash": "0x8a6a6847277babd7294b4266abcd99cdeae30d8b3eea2d94543c806d1bdc8e55",
      "transactionType": "CALL",
      "contractName": null,
      "contractAddress": "0x270e88f8683660553e8ba4eb2ad7c91a1710d769",
      "function": "buy(address)",
      "arguments": [
        "0xC77f7fed3b5Cc8249aDc428c5F44C9063B9734b4"
      ],
      "transaction": {
        "from": "0xc77f7fed3b5cc8249adc428c5f44c9063b9734b4",
        "to": "0x270e88f8683660553e8ba4eb2ad7c91a1710d769",
        "gas": "0x1b30c",
        "value": "0xde0b6b3a7640000",
        "input": "0xf088d547000000000000000000000000c77f7fed3b5cc8249adc428c5f44c9063b9734b4",
        "nonce": "0x4de",
        "chainId": "0xaa36a7"
      },
      "additionalContracts": [],
      "isFixedGasLimit": false
    }
  ],
  "receipts": [
    {
      "status": "0x1",
      "cumulativeGasUsed": "0xc26f6d",
      "logs": [
        {
          "address": "0x270e88f8683660553e8ba4eb2ad7c91a1710d769",
          "topics": [
            "0xddf252ad1be2c89b69c2b068fc378daa952ba7f163c4a11628f55a4df523b3ef",
            "0x0000000000000000000000000000000000000000000000000000000000000000",
            "0x000000000000000000000000c77f7fed3b5cc8249adc428c5f44c9063b9734b4"
          ],
          "data": "0x00000000000000000000000000000000000000000000003594ec5b2da9379def",
          "blockHash": "0x8c2dd189304a740c598778b5dfd9a72e06af117b6cd9c7e2ba594eef2dec40b5",
          "blockNumber": "0x72516c",
          "transactionHash": "0x8a6a6847277babd7294b4266abcd99cdeae30d8b3eea2d94543c806d1bdc8e55",
          "transactionIndex": "0x58",
          "logIndex": "0x92",
          "removed": false
        },
        {
          "address": "0x270e88f8683660553e8ba4eb2ad7c91a1710d769",
          "topics": [
            "0xddf252ad1be2c89b69c2b068fc378daa952ba7f163c4a11628f55a4df523b3ef",
            "0x0000000000000000000000000000000000000000000000000000000000000000",
            "0x000000000000000000000000c77f7fed3b5cc8249adc428c5f44c9063b9734b4"
          ],
          "data": "0x000000000000000000000000000000000000000000000000299ba8a707fdc6e8",
          "blockHash": "0x8c2dd189304a740c598778b5dfd9a72e06af117b6cd9c7e2ba594eef2dec40b5",
          "blockNumber": "0x72516c",
          "transactionHash": "0x8a6a6847277babd7294b4266abcd99cdeae30d8b3eea2d94543c806d1bdc8e55",
          "transactionIndex": "0x58",
          "logIndex": "0x93",
          "removed": false
        },
        {
          "address": "0x270e88f8683660553e8ba4eb2ad7c91a1710d769",
          "topics": [
            "0x4afcb4a87cdbd9974efdb92ee48bc8d7cd0ae4bf217004db3d080cbaee652ca7"
          ],
          "data": "0x000000000000000000000000000000000000000000000000000000006786c2f400000000000000000000000000000000000000000000000000038f1040a994eb0000000000000000000000000000000000000000000000000de0b6b3a7640000",
          "blockHash": "0x8c2dd189304a740c598778b5dfd9a72e06af117b6cd9c7e2ba594eef2dec40b5",
          "blockNumber": "0x72516c",
          "transactionHash": "0x8a6a6847277babd7294b4266abcd99cdeae30d8b3eea2d94543c806d1bdc8e55",
          "transactionIndex": "0x58",
          "logIndex": "0x94",
          "removed": false
        }
      ],
      "logsBloom": "0x00000000000000000000000000000000000000000000000000000000000000000000000000000000000000000000000020000000000000004000000000000000000000000000000000000008000000000000000000000000000000000000000000000000020000000000000000000800020000000000000000000010000000000000000000010000000000000000000000000000000000000000010000000000000000000000000000000000000000004000000000000000000000000000000000000002000000800000000000000000000000000000080000008000000020000000000000000000000000000000000000000000000000000000000000000000",
      "type": "0x2",
      "transactionHash": "0x8a6a6847277babd7294b4266abcd99cdeae30d8b3eea2d94543c806d1bdc8e55",
      "transactionIndex": "0x58",
      "blockHash": "0x8c2dd189304a740c598778b5dfd9a72e06af117b6cd9c7e2ba594eef2dec40b5",
      "blockNumber": "0x72516c",
      "gasUsed": "0x13af8",
      "effectiveGasPrice": "0x419df9e4b",
      "from": "0xc77f7fed3b5cc8249adc428c5f44c9063b9734b4",
      "to": "0x270e88f8683660553e8ba4eb2ad7c91a1710d769",
      "contractAddress": null
    }
  ],
  "libraries": [],
  "pending": [],
  "returns": {},
  "timestamp": 1736884981,
  "chain": 11155111,
  "commit": "51a374b"
}