{
  "transactions": [
    {
      "hash": "0xcb07ecb0dcc1e2a06f4ca67006603b68f478ec8dc9dc36e3da90286875f28a10",
      "transactionType": "CALL",
      "contractName": null,
      "contractAddress": "0x8aafd3ede9adb0ff97c7aebce82a919afb1c8764",
      "function": "sell(uint256)",
      "arguments": [
        "42944985936303014"
      ],
      "transaction": {
        "from": "0xc77f7fed3b5cc8249adc428c5f44c9063b9734b4",
        "to": "0x8aafd3ede9adb0ff97c7aebce82a919afb1c8764",
        "gas": "0x1724d",
        "value": "0x0",
        "input": "0xe4849b320000000000000000000000000000000000000000000000000098923cb79e13a6",
        "nonce": "0x127d",
        "chainId": "0xaa36a7"
      },
      "additionalContracts": [],
      "isFixedGasLimit": false
    }
  ],
  "receipts": [
    {
      "status": "0x1",
      "cumulativeGasUsed": "0x21ff461",
      "logs": [
        {
          "address": "0x8aafd3ede9adb0ff97c7aebce82a919afb1c8764",
          "topics": [
            "0xddf252ad1be2c89b69c2b068fc378daa952ba7f163c4a11628f55a4df523b3ef",
            "0x000000000000000000000000c77f7fed3b5cc8249adc428c5f44c9063b9734b4",
            "0x0000000000000000000000000000000000000000000000000000000000000000"
          ],
          "data": "0x000000000000000000000000000000000000000000000000009759c57290862e",
          "blockHash": "0x0642601a1121f9477f363a6304429a8370dd125f75338f8aff3383698c43d202",
          "blockNumber": "0x731968",
          "transactionHash": "0xcb07ecb0dcc1e2a06f4ca67006603b68f478ec8dc9dc36e3da90286875f28a10",
          "transactionIndex": "0x74",
          "logIndex": "0x10f0",
          "removed": false
        },
        {
          "address": "0x8aafd3ede9adb0ff97c7aebce82a919afb1c8764",
          "topics": [
            "0xddf252ad1be2c89b69c2b068fc378daa952ba7f163c4a11628f55a4df523b3ef",
            "0x000000000000000000000000c77f7fed3b5cc8249adc428c5f44c9063b9734b4",
            "0x000000000000000000000000c77f7fed3b5cc8249adc428c5f44c9063b9734b4"
          ],
          "data": "0x00000000000000000000000000000000000000000000000000013877450d8d78",
          "blockHash": "0x0642601a1121f9477f363a6304429a8370dd125f75338f8aff3383698c43d202",
          "blockNumber": "0x731968",
          "transactionHash": "0xcb07ecb0dcc1e2a06f4ca67006603b68f478ec8dc9dc36e3da90286875f28a10",
          "transactionIndex": "0x74",
          "logIndex": "0x10f1",
          "removed": false
        },
        {
          "address": "0x8aafd3ede9adb0ff97c7aebce82a919afb1c8764",
          "topics": [
            "0x4afcb4a87cdbd9974efdb92ee48bc8d7cd0ae4bf217004db3d080cbaee652ca7"
          ],
          "data": "0x0000000000000000000000000000000000000000000000000000000067902db00000000000000000000000000000000000000000000000000005435ec4601323000000000000000000000000000000000000000000000000000039dcdfdad6e5",
          "blockHash": "0x0642601a1121f9477f363a6304429a8370dd125f75338f8aff3383698c43d202",
          "blockNumber": "0x731968",
          "transactionHash": "0xcb07ecb0dcc1e2a06f4ca67006603b68f478ec8dc9dc36e3da90286875f28a10",
          "transactionIndex": "0x74",
          "logIndex": "0x10f2",
          "removed": false
        }
      ],
      "logsBloom": "0x00000000000000000000000000000000000000000600000000000000000000000000000000000000000000000000000000000000000000004000000000000000000000000000004000000008000000000000000000000000000000000000000000000000020000000000000000000800020000000000000000000010000000000000000000000000000000000000000000000000000000000000010000000000000000000000000000000000000000004000000000000000000000000000000000000002000000800000000000000000000000000000080000000000000020000000000000000000000000000000000000000000000000000000000000000000",
      "type": "0x2",
      "transactionHash": "0xcb07ecb0dcc1e2a06f4ca67006603b68f478ec8dc9dc36e3da90286875f28a10",
      "transactionIndex": "0x74",
      "blockHash": "0x0642601a1121f9477f363a6304429a8370dd125f75338f8aff3383698c43d202",
      "blockNumber": "0x731968",
      "gasUsed": "0xfd33",
      "effectiveGasPrice": "0x4034b583",
      "from": "0xc77f7fed3b5cc8249adc428c5f44c9063b9734b4",
      "to": "0x8aafd3ede9adb0ff97c7aebce82a919afb1c8764",
      "contractAddress": null
    }
  ],
  "libraries": [],
  "pending": [],
  "returns": {},
  "timestamp": 1737502130,
  "chain": 11155111,
  "commit": "1d2fb70"
}