{
  "transactions": [
    {
      "hash": "0x65e679ef9bacdf6a8d36fe56018227ee01108c250be966f65646ff988d7035b0",
      "transactionType": "CALL",
      "contractName": null,
      "contractAddress": "0xbf4a322f1496e5c3d34a9bcdb4c60567b38c7de2",
      "function": "buy(address)",
      "arguments": [
        "0xC77f7fed3b5Cc8249aDc428c5F44C9063B9734b4"
      ],
      "transaction": {
        "from": "0xc77f7fed3b5cc8249adc428c5f44c9063b9734b4",
        "to": "0xbf4a322f1496e5c3d34a9bcdb4c60567b38c7de2",
        "gas": "0x1b309",
        "value": "0xde0b6b3a7640000",
        "input": "0xf088d547000000000000000000000000c77f7fed3b5cc8249adc428c5f44c9063b9734b4",
        "nonce": "0xcd0",
        "chainId": "0xaa36a7"
      },
      "additionalContracts": [],
      "isFixedGasLimit": false
    }
  ],
  "receipts": [
    {
      "status": "0x1",
      "cumulativeGasUsed": "0x1a864e8",
      "logs": [
        {
          "address": "0xbf4a322f1496e5c3d34a9bcdb4c60567b38c7de2",
          "topics": [
            "0xddf252ad1be2c89b69c2b068fc378daa952ba7f163c4a11628f55a4df523b3ef",
            "0x0000000000000000000000000000000000000000000000000000000000000000",
            "0x000000000000000000000000c77f7fed3b5cc8249adc428c5f44c9063b9734b4"
          ],
          "data": "0x000000000000000000000000000000000000000000000034d4d00f2b6ff21768",
          "blockHash": "0xa79422a4b489cc12d23265e41688b3b25c086992a6274093b8e17bf9e6c7c405",
          "blockNumber": "0x725d21",
          "transactionHash": "0x65e679ef9bacdf6a8d36fe56018227ee01108c250be966f65646ff988d7035b0",
          "transactionIndex": "0xca",
          "logIndex": "0x115",
          "removed": false
        },
        {
          "address": "0xbf4a322f1496e5c3d34a9bcdb4c60567b38c7de2",
          "topics": [
            "0xddf252ad1be2c89b69c2b068fc378daa952ba7f163c4a11628f55a4df523b3ef",
            "0x0000000000000000000000000000000000000000000000000000000000000000",
            "0x000000000000000000000000c77f7fed3b5cc8249adc428c5f44c9063b9734b4"
          ],
          "data": "0x00000000000000000000000000000000000000000000000029067a79712192ef",
          "blockHash": "0xa79422a4b489cc12d23265e41688b3b25c086992a6274093b8e17bf9e6c7c405",
          "blockNumber": "0x725d21",
          "transactionHash": "0x65e679ef9bacdf6a8d36fe56018227ee01108c250be966f65646ff988d7035b0",
          "transactionIndex": "0xca",
          "logIndex": "0x116",
          "removed": false
        },
        {
          "address": "0xbf4a322f1496e5c3d34a9bcdb4c60567b38c7de2",
          "topics": [
            "0x4afcb4a87cdbd9974efdb92ee48bc8d7cd0ae4bf217004db3d080cbaee652ca7"
          ],
          "data": "0x000000000000000000000000000000000000000000000000000000006787500000000000000000000000000000000000000000000000000000039be86477085f0000000000000000000000000000000000000000000000000de0b6b3a7640000",
          "blockHash": "0xa79422a4b489cc12d23265e41688b3b25c086992a6274093b8e17bf9e6c7c405",
          "blockNumber": "0x725d21",
          "transactionHash": "0x65e679ef9bacdf6a8d36fe56018227ee01108c250be966f65646ff988d7035b0",
          "transactionIndex": "0xca",
          "logIndex": "0x117",
          "removed": false
        }
      ],
      "logsBloom": "0x00000000000000000000000000000000000000000000000000000000000000000000000000000000000000000000000000000000000000004000000000000000000000000000000000000008000000000000001000000000000000000000000000000000020000000000000000000800020000000000000000000010000000000000000000000000000000000000000000000000000008000000010000000000000000000000000000000000000000004000000000000000000000000000000000000002000000800000000000001000000000000000080000000000000020000000000000000000000000000000000000000000000000000000000000000000",
      "type": "0x2",
      "transactionHash": "0x65e679ef9bacdf6a8d36fe56018227ee01108c250be966f65646ff988d7035b0",
      "transactionIndex": "0xca",
      "blockHash": "0xa79422a4b489cc12d23265e41688b3b25c086992a6274093b8e17bf9e6c7c405",
      "blockNumber": "0x725d21",
      "gasUsed": "0x13af6",
      "effectiveGasPrice": "0x432edfc53",
      "from": "0xc77f7fed3b5cc8249adc428c5f44c9063b9734b4",
      "to": "0xbf4a322f1496e5c3d34a9bcdb4c60567b38c7de2",
      "contractAddress": null
    }
  ],
  "libraries": [],
  "pending": [],
  "returns": {},
  "timestamp": 1736921089,
  "chain": 11155111,
  "commit": "51a374b"
}