{
  "transactions": [
    {
      "hash": "0x04df8d8edeb2664195c6288c2c9d05ed76a5abbf365b39054efab3c25aeba04e",
      "transactionType": "CALL",
      "contractName": null,
      "contractAddress": "0xbf4a322f1496e5c3d34a9bcdb4c60567b38c7de2",
      "function": "sell(uint256)",
      "arguments": [
        "976294188193722756128"
      ],
      "transaction": {
        "from": "0xc77f7fed3b5cc8249adc428c5f44c9063b9734b4",
        "to": "0xbf4a322f1496e5c3d34a9bcdb4c60567b38c7de2",
        "gas": "0x16fea",
        "value": "0x0",
        "input": "0xe4849b32000000000000000000000000000000000000000000000034eccdb788ad356c20",
        "nonce": "0xd2d",
        "chainId": "0xaa36a7"
      },
      "additionalContracts": [],
      "isFixedGasLimit": false
    }
  ],
  "receipts": [
    {
      "status": "0x1",
      "cumulativeGasUsed": "0x184da80",
      "logs": [
        {
          "address": "0xbf4a322f1496e5c3d34a9bcdb4c60567b38c7de2",
          "topics": [
            "0xddf252ad1be2c89b69c2b068fc378daa952ba7f163c4a11628f55a4df523b3ef",
            "0x000000000000000000000000c77f7fed3b5cc8249adc428c5f44c9063b9734b4",
            "0x0000000000000000000000000000000000000000000000000000000000000000"
          ],
          "data": "0x000000000000000000000000000000000000000000000034eccdb788ad356c20",
          "blockHash": "0xa4d181cd17f82f9a5053f3e9aeed28a2ed043f733fac7aa4383737597685ce36",
          "blockNumber": "0x725d90",
          "transactionHash": "0x04df8d8edeb2664195c6288c2c9d05ed76a5abbf365b39054efab3c25aeba04e",
          "transactionIndex": "0x9b",
          "logIndex": "0x111",
          "removed": false
        },
        {
          "address": "0xbf4a322f1496e5c3d34a9bcdb4c60567b38c7de2",
          "topics": [
            "0x4afcb4a87cdbd9974efdb92ee48bc8d7cd0ae4bf217004db3d080cbaee652ca7"
          ],
          "data": "0x000000000000000000000000000000000000000000000000000000006787553400000000000000000000000000000000000000000000000000039d15e514dde10000000000000000000000000000000000000000000000000dc7e3d9733ca54e",
          "blockHash": "0xa4d181cd17f82f9a5053f3e9aeed28a2ed043f733fac7aa4383737597685ce36",
          "blockNumber": "0x725d90",
          "transactionHash": "0x04df8d8edeb2664195c6288c2c9d05ed76a5abbf365b39054efab3c25aeba04e",
          "transactionIndex": "0x9b",
          "logIndex": "0x112",
          "removed": false
        }
      ],
      "logsBloom": "0x00000000000000000000000000000000000000000000000000000000000000000000000000000000000000000000000000000000000000004000000000000000000000000000000000000008000000000000001000000000000000000000000000000000020000000000000000000800020000000000000000000010000000000000000000000000000000000000000000000000000008000000010000000000000000000000000000000000000000004000000000000000000000000000000000000002000000800000000000001000000000000000080000000000000020000000000000000000000000000000000000000000000000000000000000000000",
      "type": "0x2",
      "transactionHash": "0x04df8d8edeb2664195c6288c2c9d05ed76a5abbf365b39054efab3c25aeba04e",
      "transactionIndex": "0x9b",
      "blockHash": "0xa4d181cd17f82f9a5053f3e9aeed28a2ed043f733fac7aa4383737597685ce36",
      "blockNumber": "0x725d90",
      "gasUsed": "0xfb91",
      "effectiveGasPrice": "0x237cafccf",
      "from": "0xc77f7fed3b5cc8249adc428c5f44c9063b9734b4",
      "to": "0xbf4a322f1496e5c3d34a9bcdb4c60567b38c7de2",
      "contractAddress": null
    }
  ],
  "libraries": [],
  "pending": [],
  "returns": {},
  "timestamp": 1736922421,
  "chain": 11155111,
  "commit": "51a374b"
}