{
  "transactions": [
    {
      "hash": "0x4b6d92e25ce3eea3dcdd80ed90ba9845c1362f2224602b13a0a5cd09ca851121",
      "transactionType": "CALL",
      "contractName": null,
      "contractAddress": "0xbf4a322f1496e5c3d34a9bcdb4c60567b38c7de2",
      "function": "sell(uint256)",
      "arguments": [
        "981950002646504959088"
      ],
      "transaction": {
        "from": "0xc77f7fed3b5cc8249adc428c5f44c9063b9734b4",
        "to": "0xbf4a322f1496e5c3d34a9bcdb4c60567b38c7de2",
        "gas": "0x16fea",
        "value": "0x0",
        "input": "0xe4849b320000000000000000000000000000000000000000000000353b4b34d01acfec70",
        "nonce": "0xb87",
        "chainId": "0xaa36a7"
      },
      "additionalContracts": [],
      "isFixedGasLimit": false
    }
  ],
  "receipts": [
    {
      "status": "0x1",
      "cumulativeGasUsed": "0x622e4e",
      "logs": [
        {
          "address": "0xbf4a322f1496e5c3d34a9bcdb4c60567b38c7de2",
          "topics": [
            "0xddf252ad1be2c89b69c2b068fc378daa952ba7f163c4a11628f55a4df523b3ef",
            "0x000000000000000000000000c77f7fed3b5cc8249adc428c5f44c9063b9734b4",
            "0x0000000000000000000000000000000000000000000000000000000000000000"
          ],
          "data": "0x0000000000000000000000000000000000000000000000353b4b34d01acfec70",
          "blockHash": "0x1bdcea018d2928a176644c228c2ec17e6dbf19ec214469975bc3b4b0cb9b52f0",
          "blockNumber": "0x725b96",
          "transactionHash": "0x4b6d92e25ce3eea3dcdd80ed90ba9845c1362f2224602b13a0a5cd09ca851121",
          "transactionIndex": "0x31",
          "logIndex": "0x34",
          "removed": false
        },
        {
          "address": "0xbf4a322f1496e5c3d34a9bcdb4c60567b38c7de2",
          "topics": [
            "0x4afcb4a87cdbd9974efdb92ee48bc8d7cd0ae4bf217004db3d080cbaee652ca7"
          ],
          "data": "0x0000000000000000000000000000000000000000000000000000000067873d64000000000000000000000000000000000000000000000000000397c1e3f2a7e40000000000000000000000000000000000000000000000000dc7e3e699a1d1d2",
          "blockHash": "0x1bdcea018d2928a176644c228c2ec17e6dbf19ec214469975bc3b4b0cb9b52f0",
          "blockNumber": "0x725b96",
          "transactionHash": "0x4b6d92e25ce3eea3dcdd80ed90ba9845c1362f2224602b13a0a5cd09ca851121",
          "transactionIndex": "0x31",
          "logIndex": "0x35",
          "removed": false
        }
      ],
      "logsBloom": "0x00000000000000000000000000000000000000000000000000000000000000000000000000000000000000000000000000000000000000004000000000000000000000000000000000000008000000000000001000000000000000000000000000000000020000000000000000000800020000000000000000000010000000000000000000000000000000000000000000000000000008000000010000000000000000000000000000000000000000004000000000000000000000000000000000000002000000800000000000001000000000000000080000000000000020000000000000000000000000000000000000000000000000000000000000000000",
      "type": "0x2",
      "transactionHash": "0x4b6d92e25ce3eea3dcdd80ed90ba9845c1362f2224602b13a0a5cd09ca851121",
      "transactionIndex": "0x31",
      "blockHash": "0x1bdcea018d2928a176644c228c2ec17e6dbf19ec214469975bc3b4b0cb9b52f0",
      "blockNumber": "0x725b96",
      "gasUsed": "0xfb91",
      "effectiveGasPrice": "0x48442fc3",
      "from": "0xc77f7fed3b5cc8249adc428c5f44c9063b9734b4",
      "to": "0xbf4a322f1496e5c3d34a9bcdb4c60567b38c7de2",
      "contractAddress": null
    }
  ],
  "libraries": [],
  "pending": [],
  "returns": {},
  "timestamp": 1736916326,
  "chain": 11155111,
  "commit": "51a374b"
}