{
  "transactions": [
    {
      "hash": "0x9d5f63243b39940230f912939cfe22aa0431933f3a67280896ff97e8713ee9ab",
      "transactionType": "CALL",
      "contractName": null,
      "contractAddress": "0xbf4a322f1496e5c3d34a9bcdb4c60567b38c7de2",
      "function": "buy(address)",
      "arguments": [
        "0xC77f7fed3b5Cc8249aDc428c5F44C9063B9734b4"
      ],
      "transaction": {
        "from": "0xc77f7fed3b5cc8249adc428c5f44c9063b9734b4",
        "to": "0xbf4a322f1496e5c3d34a9bcdb4c60567b38c7de2",
        "gas": "0x1b309",
        "value": "0xde0b6b3a7640000",
        "input": "0xf088d547000000000000000000000000c77f7fed3b5cc8249adc428c5f44c9063b9734b4",
        "nonce": "0xcf2",
        "chainId": "0xaa36a7"
      },
      "additionalContracts": [],
      "isFixedGasLimit": false
    }
  ],
  "receipts": [
    {
      "status": "0x1",
      "cumulativeGasUsed": "0xefbe79",
      "logs": [
        {
          "address": "0xbf4a322f1496e5c3d34a9bcdb4c60567b38c7de2",
          "topics": [
            "0xddf252ad1be2c89b69c2b068fc378daa952ba7f163c4a11628f55a4df523b3ef",
            "0x0000000000000000000000000000000000000000000000000000000000000000",
            "0x000000000000000000000000c77f7fed3b5cc8249adc428c5f44c9063b9734b4"
          ],
          "data": "0x000000000000000000000000000000000000000000000034ce880d7f748b288e",
          "blockHash": "0xfc5e056d59d4771754b8962407319d2df2e7853a1529babb7b4cf6bbcbb9acda",
          "blockNumber": "0x725d44",
          "transactionHash": "0x9d5f63243b39940230f912939cfe22aa0431933f3a67280896ff97e8713ee9ab",
          "transactionIndex": "0x5f",
          "logIndex": "0x9c",
          "removed": false
        },
        {
          "address": "0xbf4a322f1496e5c3d34a9bcdb4c60567b38c7de2",
          "topics": [
            "0xddf252ad1be2c89b69c2b068fc378daa952ba7f163c4a11628f55a4df523b3ef",
            "0x0000000000000000000000000000000000000000000000000000000000000000",
            "0x000000000000000000000000c77f7fed3b5cc8249adc428c5f44c9063b9734b4"
          ],
          "data": "0x000000000000000000000000000000000000000000000000290199cd6e31bb66",
          "blockHash": "0xfc5e056d59d4771754b8962407319d2df2e7853a1529babb7b4cf6bbcbb9acda",
          "blockNumber": "0x725d44",
          "transactionHash": "0x9d5f63243b39940230f912939cfe22aa0431933f3a67280896ff97e8713ee9ab",
          "transactionIndex": "0x5f",
          "logIndex": "0x9d",
          "removed": false
        },
        {
          "address": "0xbf4a322f1496e5c3d34a9bcdb4c60567b38c7de2",
          "topics": [
            "0x4afcb4a87cdbd9974efdb92ee48bc8d7cd0ae4bf217004db3d080cbaee652ca7"
          ],
          "data": "0x00000000000000000000000000000000000000000000000000000000678751a400000000000000000000000000000000000000000000000000039c5649e3f2d40000000000000000000000000000000000000000000000000de0b6b3a7640000",
          "blockHash": "0xfc5e056d59d4771754b8962407319d2df2e7853a1529babb7b4cf6bbcbb9acda",
          "blockNumber": "0x725d44",
          "transactionHash": "0x9d5f63243b39940230f912939cfe22aa0431933f3a67280896ff97e8713ee9ab",
          "transactionIndex": "0x5f",
          "logIndex": "0x9e",
          "removed": false
        }
      ],
      "logsBloom": "0x00000000000000000000000000000000000000000000000000000000000000000000000000000000000000000000000000000000000000004000000000000000000000000000000000000008000000000000001000000000000000000000000000000000020000000000000000000800020000000000000000000010000000000000000000000000000000000000000000000000000008000000010000000000000000000000000000000000000000004000000000000000000000000000000000000002000000800000000000001000000000000000080000000000000020000000000000000000000000000000000000000000000000000000000000000000",
      "type": "0x2",
      "transactionHash": "0x9d5f63243b39940230f912939cfe22aa0431933f3a67280896ff97e8713ee9ab",
      "transactionIndex": "0x5f",
      "blockHash": "0xfc5e056d59d4771754b8962407319d2df2e7853a1529babb7b4cf6bbcbb9acda",
      "blockNumber": "0x725d44",
      "gasUsed": "0x13af6",
      "effectiveGasPrice": "0x3f1c28b1c",
      "from": "0xc77f7fed3b5cc8249adc428c5f44c9063b9734b4",
      "to": "0xbf4a322f1496e5c3d34a9bcdb4c60567b38c7de2",
      "contractAddress": null
    }
  ],
  "libraries": [],
  "pending": [],
  "returns": {},
  "timestamp": 1736921509,
  "chain": 11155111,
  "commit": "51a374b"
}