{
  "transactions": [
    {
      "hash": "0x87eb96c3f0d0c2f934359d1c2773719c804c9b3e8f52f30cdc09320c56fe46c9",
      "transactionType": "CALL",
      "contractName": null,
      "contractAddress": "0x8aafd3ede9adb0ff97c7aebce82a919afb1c8764",
      "function": "buy(address)",
      "arguments": [
        "0xC77f7fed3b5Cc8249aDc428c5F44C9063B9734b4"
      ],
      "transaction": {
        "from": "0xc77f7fed3b5cc8249adc428c5f44c9063b9734b4",
        "to": "0x8aafd3ede9adb0ff97c7aebce82a919afb1c8764",
        "gas": "0x156ea",
        "value": "0xde0b6b3a7640000",
        "input": "0xf088d547000000000000000000000000c77f7fed3b5cc8249adc428c5f44c9063b9734b4",
        "nonce": "0x132a",
        "chainId": "0xaa36a7"
      },
      "additionalContracts": [],
      "isFixedGasLimit": false
    }
  ],
  "receipts": [
    {
      "status": "0x1",
      "cumulativeGasUsed": "0x982bcd",
      "logs": [
        {
          "address": "0x8aafd3ede9adb0ff97c7aebce82a919afb1c8764",
          "topics": [
            "0xddf252ad1be2c89b69c2b068fc378daa952ba7f163c4a11628f55a4df523b3ef",
            "0x0000000000000000000000000000000000000000000000000000000000000000",
            "0x000000000000000000000000c77f7fed3b5cc8249adc428c5f44c9063b9734b4"
          ],
          "data": "0x000000000000000000000000000000000000000000000010597e82b9205f2901",
          "blockHash": "0x40400c62d57a5b59f2c76b29413afaff446fdcee84ec1ccb66e1c3906c335c63",
          "blockNumber": "0x731a3c",
          "transactionHash": "0x87eb96c3f0d0c2f934359d1c2773719c804c9b3e8f52f30cdc09320c56fe46c9",
          "transactionIndex": "0x74",
          "logIndex": "0xa3",
          "removed": false
        },
        {
          "address": "0x8aafd3ede9adb0ff97c7aebce82a919afb1c8764",
          "topics": [
            "0xddf252ad1be2c89b69c2b068fc378daa952ba7f163c4a11628f55a4df523b3ef",
            "0x0000000000000000000000000000000000000000000000000000000000000000",
            "0x000000000000000000000000c77f7fed3b5cc8249adc428c5f44c9063b9734b4"
          ],
          "data": "0x0000000000000000000000000000000000000000000000000cb22dd2e2c4bc7b",
          "blockHash": "0x40400c62d57a5b59f2c76b29413afaff446fdcee84ec1ccb66e1c3906c335c63",
          "blockNumber": "0x731a3c",
          "transactionHash": "0x87eb96c3f0d0c2f934359d1c2773719c804c9b3e8f52f30cdc09320c56fe46c9",
          "transactionIndex": "0x74",
          "logIndex": "0xa4",
          "removed": false
        },
        {
          "address": "0x8aafd3ede9adb0ff97c7aebce82a919afb1c8764",
          "topics": [
            "0x4afcb4a87cdbd9974efdb92ee48bc8d7cd0ae4bf217004db3d080cbaee652ca7"
          ],
          "data": "0x00000000000000000000000000000000000000000000000000000000679037a0000000000000000000000000000000000000000000000000000baf5e4bd3edfa0000000000000000000000000000000000000000000000000de0b6b3a7640000",
          "blockHash": "0x40400c62d57a5b59f2c76b29413afaff446fdcee84ec1ccb66e1c3906c335c63",
          "blockNumber": "0x731a3c",
          "transactionHash": "0x87eb96c3f0d0c2f934359d1c2773719c804c9b3e8f52f30cdc09320c56fe46c9",
          "transactionIndex": "0x74",
          "logIndex": "0xa5",
          "removed": false
        }
      ],
      "logsBloom": "0x00000000000000000000000000000000000000000600000000000000000000000000000000000000000000000000000000000000000000004000000000000000000000000000004000000008000000000000000000000000000000000000000000000000020000000000000000000800020000000000000000000010000000000000000000000000000000000000000000000000000000000000010000000000000000000000000000000000000000004000000000000000000000000000000000000002000000800000000000000000000000000000080000000000000020000000000000000000000000000000000000000000000000000000000000000000",
      "type": "0x2",
      "transactionHash": "0x87eb96c3f0d0c2f934359d1c2773719c804c9b3e8f52f30cdc09320c56fe46c9",
      "transactionIndex": "0x74",
      "blockHash": "0x40400c62d57a5b59f2c76b29413afaff446fdcee84ec1ccb66e1c3906c335c63",
      "blockNumber": "0x731a3c",
      "gasUsed": "0xf844",
      "effectiveGasPrice": "0x46f52381",
      "from": "0xc77f7fed3b5cc8249adc428c5f44c9063b9734b4",
      "to": "0x8aafd3ede9adb0ff97c7aebce82a919afb1c8764",
      "contractAddress": null
    }
  ],
  "libraries": [],
  "pending": [],
  "returns": {},
  "timestamp": 1737504673,
  "chain": 11155111,
  "commit": "1d2fb70"
}