{
  "transactions": [
    {
      "hash": "0x8f15c73a3ad4fde746ccdc434781af83b076cc2b808a0e7c20e7f5c00cf66e4c",
      "transactionType": "CALL",
      "contractName": null,
      "contractAddress": "0x8aafd3ede9adb0ff97c7aebce82a919afb1c8764",
      "function": "sell(uint256)",
      "arguments": [
        "194088039"
      ],
      "transaction": {
        "from": "0xc77f7fed3b5cc8249adc428c5f44c9063b9734b4",
        "to": "0x8aafd3ede9adb0ff97c7aebce82a919afb1c8764",
        "gas": "0x14e6c",
        "value": "0x0",
        "input": "0xe4849b32000000000000000000000000000000000000000000000000000000000b918c67",
        "nonce": "0xfbd",
        "chainId": "0xaa36a7"
      },
      "additionalContracts": [],
      "isFixedGasLimit": false
    }
  ],
  "receipts": [
    {
      "status": "0x1",
      "cumulativeGasUsed": "0xd222dc",
      "logs": [
        {
          "address": "0x8aafd3ede9adb0ff97c7aebce82a919afb1c8764",
          "topics": [
            "0xddf252ad1be2c89b69c2b068fc378daa952ba7f163c4a11628f55a4df523b3ef",
            "0x000000000000000000000000c77f7fed3b5cc8249adc428c5f44c9063b9734b4",
            "0x0000000000000000000000000000000000000000000000000000000000000000"
          ],
          "data": "0x000000000000000000000000000000000000000000000000000000000b79db27",
          "blockHash": "0x7f7174679a6cf2434c272b4c92b0b63fe64ee9616a054611be91a09e5e8cea5c",
          "blockNumber": "0x731629",
          "transactionHash": "0x8f15c73a3ad4fde746ccdc434781af83b076cc2b808a0e7c20e7f5c00cf66e4c",
          "transactionIndex": "0x86",
          "logIndex": "0xd6",
          "removed": false
        },
        {
          "address": "0x8aafd3ede9adb0ff97c7aebce82a919afb1c8764",
          "topics": [
            "0xddf252ad1be2c89b69c2b068fc378daa952ba7f163c4a11628f55a4df523b3ef",
            "0x000000000000000000000000c77f7fed3b5cc8249adc428c5f44c9063b9734b4",
            "0x000000000000000000000000c77f7fed3b5cc8249adc428c5f44c9063b9734b4"
          ],
          "data": "0x000000000000000000000000000000000000000000000000000000000017b140",
          "blockHash": "0x7f7174679a6cf2434c272b4c92b0b63fe64ee9616a054611be91a09e5e8cea5c",
          "blockNumber": "0x731629",
          "transactionHash": "0x8f15c73a3ad4fde746ccdc434781af83b076cc2b808a0e7c20e7f5c00cf66e4c",
          "transactionIndex": "0x86",
          "logIndex": "0xd7",
          "removed": false
        },
        {
          "address": "0x8aafd3ede9adb0ff97c7aebce82a919afb1c8764",
          "topics": [
            "0x4afcb4a87cdbd9974efdb92ee48bc8d7cd0ae4bf217004db3d080cbaee652ca7"
          ],
          "data": "0x00000000000000000000000000000000000000000000000000000000679006980000000000000000000000000000000000000000000000000004c42316747ebe000000000000000000000000000000000000000000000000000000000003f91b",
          "blockHash": "0x7f7174679a6cf2434c272b4c92b0b63fe64ee9616a054611be91a09e5e8cea5c",
          "blockNumber": "0x731629",
          "transactionHash": "0x8f15c73a3ad4fde746ccdc434781af83b076cc2b808a0e7c20e7f5c00cf66e4c",
          "transactionIndex": "0x86",
          "logIndex": "0xd8",
          "removed": false
        }
      ],
      "logsBloom": "0x00000000000000000000000000000000000000000600000000000000000000000000000000000000000000000000000000000000000000004000000000000000000000000000004000000008000000000000000000000000000000000000000000000000020000000000000000000800020000000000000000000010000000000000000000000000000000000000000000000000000000000000010000000000000000000000000000000000000000004000000000000000000000000000000000000002000000800000000000000000000000000000080000000000000020000000000000000000000000000000000000000000000000000000000000000000",
      "type": "0x2",
      "transactionHash": "0x8f15c73a3ad4fde746ccdc434781af83b076cc2b808a0e7c20e7f5c00cf66e4c",
      "transactionIndex": "0x86",
      "blockHash": "0x7f7174679a6cf2434c272b4c92b0b63fe64ee9616a054611be91a09e5e8cea5c",
      "blockNumber": "0x731629",
      "gasUsed": "0xf21f",
      "effectiveGasPrice": "0x664e6f92",
      "from": "0xc77f7fed3b5cc8249adc428c5f44c9063b9734b4",
      "to": "0x8aafd3ede9adb0ff97c7aebce82a919afb1c8764",
      "contractAddress": null
    }
  ],
  "libraries": [],
  "pending": [],
  "returns": {},
  "timestamp": 1737492121,
  "chain": 11155111,
  "commit": "1d2fb70"
}