{
  "transactions": [
    {
      "hash": "0xa3a70ed1c56a167ca09c52c650ff3abd6a254d6661cd2e536c2144bfbe56ca9f",
      "transactionType": "CALL",
      "contractName": null,
      "contractAddress": "0x8aafd3ede9adb0ff97c7aebce82a919afb1c8764",
      "function": "sell(uint256)",
      "arguments": [
        "80448643689790"
      ],
      "transaction": {
        "from": "0xc77f7fed3b5cc8249adc428c5f44c9063b9734b4",
        "to": "0x8aafd3ede9adb0ff97c7aebce82a919afb1c8764",
        "gas": "0x15daa",
        "value": "0x0",
        "input": "0xe4849b320000000000000000000000000000000000000000000000000000492ae8d46d3e",
        "nonce": "0xfeb",
        "chainId": "0xaa36a7"
      },
      "additionalContracts": [],
      "isFixedGasLimit": false
    }
  ],
  "receipts": [
    {
      "status": "0x1",
      "cumulativeGasUsed": "0xcd7166",
      "logs": [
        {
          "address": "0x8aafd3ede9adb0ff97c7aebce82a919afb1c8764",
          "topics": [
            "0xddf252ad1be2c89b69c2b068fc378daa952ba7f163c4a11628f55a4df523b3ef",
            "0x000000000000000000000000c77f7fed3b5cc8249adc428c5f44c9063b9734b4",
            "0x0000000000000000000000000000000000000000000000000000000000000000"
          ],
          "data": "0x000000000000000000000000000000000000000000000000000048950fed59f0",
          "blockHash": "0xa16977f2f14085817ec42a918393f8117b68d5f211988611e64003132762b5e8",
          "blockNumber": "0x73165d",
          "transactionHash": "0xa3a70ed1c56a167ca09c52c650ff3abd6a254d6661cd2e536c2144bfbe56ca9f",
          "transactionIndex": "0x86",
          "logIndex": "0xc8",
          "removed": false
        },
        {
          "address": "0x8aafd3ede9adb0ff97c7aebce82a919afb1c8764",
          "topics": [
            "0xddf252ad1be2c89b69c2b068fc378daa952ba7f163c4a11628f55a4df523b3ef",
            "0x000000000000000000000000c77f7fed3b5cc8249adc428c5f44c9063b9734b4",
            "0x000000000000000000000000c77f7fed3b5cc8249adc428c5f44c9063b9734b4"
          ],
          "data": "0x00000000000000000000000000000000000000000000000000000095d8e7134e",
          "blockHash": "0xa16977f2f14085817ec42a918393f8117b68d5f211988611e64003132762b5e8",
          "blockNumber": "0x73165d",
          "transactionHash": "0xa3a70ed1c56a167ca09c52c650ff3abd6a254d6661cd2e536c2144bfbe56ca9f",
          "transactionIndex": "0x86",
          "logIndex": "0xc9",
          "removed": false
        },
        {
          "address": "0x8aafd3ede9adb0ff97c7aebce82a919afb1c8764",
          "topics": [
            "0x4afcb4a87cdbd9974efdb92ee48bc8d7cd0ae4bf217004db3d080cbaee652ca7"
          ],
          "data": "0x00000000000000000000000000000000000000000000000000000000679009080000000000000000000000000000000000000000000000000004e37f08a65aa900000000000000000000000000000000000000000000000000000019c63dcd5e",
          "blockHash": "0xa16977f2f14085817ec42a918393f8117b68d5f211988611e64003132762b5e8",
          "blockNumber": "0x73165d",
          "transactionHash": "0xa3a70ed1c56a167ca09c52c650ff3abd6a254d6661cd2e536c2144bfbe56ca9f",
          "transactionIndex": "0x86",
          "logIndex": "0xca",
          "removed": false
        }
      ],
      "logsBloom": "0x00000000000000000000000000000000000000000600000000000000000000000000000000000000000000000000000000000000000000004000000000000000000000000000004000000008000000000000000000000000000000000000000000000000020000000000000000000800020000000000000000000010000000000000000000000000000000000000000000000000000000000000010000000000000000000000000000000000000000004000000000000000000000000000000000000002000000800000000000000000000000000000080000000000000020000000000000000000000000000000000000000000000000000000000000000000",
      "type": "0x2",
      "transactionHash": "0xa3a70ed1c56a167ca09c52c650ff3abd6a254d6661cd2e536c2144bfbe56ca9f",
      "transactionIndex": "0x86",
      "blockHash": "0xa16977f2f14085817ec42a918393f8117b68d5f211988611e64003132762b5e8",
      "blockNumber": "0x73165d",
      "gasUsed": "0xfd27",
      "effectiveGasPrice": "0x4cfbd84d",
      "from": "0xc77f7fed3b5cc8249adc428c5f44c9063b9734b4",
      "to": "0x8aafd3ede9adb0ff97c7aebce82a919afb1c8764",
      "contractAddress": null
    }
  ],
  "libraries": [],
  "pending": [],
  "returns": {},
  "timestamp": 1737492744,
  "chain": 11155111,
  "commit": "1d2fb70"
}