{
  "transactions": [
    {
      "hash": "0x12166093c47d34d06438e68f30f336b0fbcc855fb01fa03bbe7f24f8080a80b0",
      "transactionType": "CALL",
      "contractName": null,
      "contractAddress": "0x5eb9cc76c3506942c1c0ead70e877dd5e4f00cb0",
      "function": "buy(address)",
      "arguments": [
        "0xC77f7fed3b5Cc8249aDc428c5F44C9063B9734b4"
      ],
      "transaction": {
        "from": "0xc77f7fed3b5cc8249adc428c5f44c9063b9734b4",
        "to": "0x5eb9cc76c3506942c1c0ead70e877dd5e4f00cb0",
        "gas": "0x1b30c",
        "value": "0xde0b6b3a7640000",
        "input": "0xf088d547000000000000000000000000c77f7fed3b5cc8249adc428c5f44c9063b9734b4",
        "nonce": "0x23a",
        "chainId": "0xaa36a7"
      },
      "additionalContracts": [],
      "isFixedGasLimit": false
    }
  ],
  "receipts": [
    {
      "status": "0x1",
      "cumulativeGasUsed": "0x1c948b6",
      "logs": [
        {
          "address": "0x5eb9cc76c3506942c1c0ead70e877dd5e4f00cb0",
          "topics": [
            "0xddf252ad1be2c89b69c2b068fc378daa952ba7f163c4a11628f55a4df523b3ef",
            "0x0000000000000000000000000000000000000000000000000000000000000000",
            "0x000000000000000000000000c77f7fed3b5cc8249adc428c5f44c9063b9734b4"
          ],
          "data": "0x0000000000000000000000000000000000000000000000357c2db468ce84bc28",
          "blockHash": "0x8058d0b3e91d775e17e9d10ae381ffb5ff8ab559a97f785a9e229d84a35aff63",
          "blockNumber": "0x724def",
          "transactionHash": "0x12166093c47d34d06438e68f30f336b0fbcc855fb01fa03bbe7f24f8080a80b0",
          "transactionIndex": "0xe9",
          "logIndex": "0x18f",
          "removed": false
        },
        {
          "address": "0x5eb9cc76c3506942c1c0ead70e877dd5e4f00cb0",
          "topics": [
            "0xddf252ad1be2c89b69c2b068fc378daa952ba7f163c4a11628f55a4df523b3ef",
            "0x0000000000000000000000000000000000000000000000000000000000000000",
            "0x000000000000000000000000c77f7fed3b5cc8249adc428c5f44c9063b9734b4"
          ],
          "data": "0x000000000000000000000000000000000000000000000000298871945d3869fe",
          "blockHash": "0x8058d0b3e91d775e17e9d10ae381ffb5ff8ab559a97f785a9e229d84a35aff63",
          "blockNumber": "0x724def",
          "transactionHash": "0x12166093c47d34d06438e68f30f336b0fbcc855fb01fa03bbe7f24f8080a80b0",
          "transactionIndex": "0xe9",
          "logIndex": "0x190",
          "removed": false
        },
        {
          "address": "0x5eb9cc76c3506942c1c0ead70e877dd5e4f00cb0",
          "topics": [
            "0x4afcb4a87cdbd9974efdb92ee48bc8d7cd0ae4bf217004db3d080cbaee652ca7"
          ],
          "data": "0x00000000000000000000000000000000000000000000000000000000678698e80000000000000000000000000000000000000000000000000003909b05378e8e0000000000000000000000000000000000000000000000000de0b6b3a7640000",
          "blockHash": "0x8058d0b3e91d775e17e9d10ae381ffb5ff8ab559a97f785a9e229d84a35aff63",
          "blockNumber": "0x724def",
          "transactionHash": "0x12166093c47d34d06438e68f30f336b0fbcc855fb01fa03bbe7f24f8080a80b0",
          "transactionIndex": "0xe9",
          "logIndex": "0x191",
          "removed": false
        }
      ],
      "logsBloom": "0x00000000000000000000000000000000000000000000000000000000000000000000000000000000000000000000000000000000000000004000000000000000000000000000000000000008000000000000000000000000000000000000000000000000020000000000000004000800020000000000000000000010000000000000000000000000000000000000000000000000000000000000010000000000000000000000000000000000000000004000000000000000000000000000020000000002000000800000008000000000000000000000080000000000000020000000000000000000000000000000000000000000000000000000000000000000",
      "type": "0x2",
      "transactionHash": "0x12166093c47d34d06438e68f30f336b0fbcc855fb01fa03bbe7f24f8080a80b0",
      "transactionIndex": "0xe9",
      "blockHash": "0x8058d0b3e91d775e17e9d10ae381ffb5ff8ab559a97f785a9e229d84a35aff63",
      "blockNumber": "0x724def",
      "gasUsed": "0x13af8",
      "effectiveGasPrice": "0x3834874c5",
      "from": "0xc77f7fed3b5cc8249adc428c5f44c9063b9734b4",
      "to": "0x5eb9cc76c3506942c1c0ead70e877dd5e4f00cb0",
      "contractAddress": null
    }
  ],
  "libraries": [],
  "pending": [],
  "returns": {},
  "timestamp": 1736874216,
  "chain": 11155111,
  "commit": "51a374b"
}