{
  "transactions": [
    {
      "hash": "0xfde8caf6d4af21eb6429abeaf8f1c984798681f8f5abc5e451111e78d3ea8dd7",
      "transactionType": "CALL",
      "contractName": null,
      "contractAddress": "0x8aafd3ede9adb0ff97c7aebce82a919afb1c8764",
      "function": "sell(uint256)",
      "arguments": [
        "11197"
      ],
      "transaction": {
        "from": "0xc77f7fed3b5cc8249adc428c5f44c9063b9734b4",
        "to": "0x8aafd3ede9adb0ff97c7aebce82a919afb1c8764",
        "gas": "0x14e4c",
        "value": "0x0",
        "input": "0xe4849b320000000000000000000000000000000000000000000000000000000000002bbd",
        "nonce": "0x12b5",
        "chainId": "0xaa36a7"
      },
      "additionalContracts": [],
      "isFixedGasLimit": false
    }
  ],
  "receipts": [
    {
      "status": "0x1",
      "cumulativeGasUsed": "0x976faa",
      "logs": [
        {
          "address": "0x8aafd3ede9adb0ff97c7aebce82a919afb1c8764",
          "topics": [
            "0xddf252ad1be2c89b69c2b068fc378daa952ba7f163c4a11628f55a4df523b3ef",
            "0x000000000000000000000000c77f7fed3b5cc8249adc428c5f44c9063b9734b4",
            "0x0000000000000000000000000000000000000000000000000000000000000000"
          ],
          "data": "0x0000000000000000000000000000000000000000000000000000000000002b64",
          "blockHash": "0x202a46fa948755f711ff27ce1f0aacc7f9cb7b4ab66496c65ead5bfc1ed0531a",
          "blockNumber": "0x7319ac",
          "transactionHash": "0xfde8caf6d4af21eb6429abeaf8f1c984798681f8f5abc5e451111e78d3ea8dd7",
          "transactionIndex": "0x73",
          "logIndex": "0x5b",
          "removed": false
        },
        {
          "address": "0x8aafd3ede9adb0ff97c7aebce82a919afb1c8764",
          "topics": [
            "0xddf252ad1be2c89b69c2b068fc378daa952ba7f163c4a11628f55a4df523b3ef",
            "0x000000000000000000000000c77f7fed3b5cc8249adc428c5f44c9063b9734b4",
            "0x000000000000000000000000c77f7fed3b5cc8249adc428c5f44c9063b9734b4"
          ],
          "data": "0x0000000000000000000000000000000000000000000000000000000000000059",
          "blockHash": "0x202a46fa948755f711ff27ce1f0aacc7f9cb7b4ab66496c65ead5bfc1ed0531a",
          "blockNumber": "0x7319ac",
          "transactionHash": "0xfde8caf6d4af21eb6429abeaf8f1c984798681f8f5abc5e451111e78d3ea8dd7",
          "transactionIndex": "0x73",
          "logIndex": "0x5c",
          "removed": false
        },
        {
          "address": "0x8aafd3ede9adb0ff97c7aebce82a919afb1c8764",
          "topics": [
            "0x4afcb4a87cdbd9974efdb92ee48bc8d7cd0ae4bf217004db3d080cbaee652ca7"
          ],
          "data": "0x00000000000000000000000000000000000000000000000000000000679030e000000000000000000000000000000000000000000000000000054aa30d7899640000000000000000000000000000000000000000000000000000000000000010",
          "blockHash": "0x202a46fa948755f711ff27ce1f0aacc7f9cb7b4ab66496c65ead5bfc1ed0531a",
          "blockNumber": "0x7319ac",
          "transactionHash": "0xfde8caf6d4af21eb6429abeaf8f1c984798681f8f5abc5e451111e78d3ea8dd7",
          "transactionIndex": "0x73",
          "logIndex": "0x5d",
          "removed": false
        }
      ],
      "logsBloom": "0x00000000000000000000000000000000000000000600000000000000000000000000000000000000000000000000000000000000000000004000000000000000000000000000004000000008000000000000000000000000000000000000000000000000020000000000000000000800020000000000000000000010000000000000000000000000000000000000000000000000000000000000010000000000000000000000000000000000000000004000000000000000000000000000000000000002000000800000000000000000000000000000080000000000000020000000000000000000000000000000000000000000000000000000000000000000",
      "type": "0x2",
      "transactionHash": "0xfde8caf6d4af21eb6429abeaf8f1c984798681f8f5abc5e451111e78d3ea8dd7",
      "transactionIndex": "0x73",
      "blockHash": "0x202a46fa948755f711ff27ce1f0aacc7f9cb7b4ab66496c65ead5bfc1ed0531a",
      "blockNumber": "0x7319ac",
      "gasUsed": "0xf207",
      "effectiveGasPrice": "0x3ee6b1ac",
      "from": "0xc77f7fed3b5cc8249adc428c5f44c9063b9734b4",
      "to": "0x8aafd3ede9adb0ff97c7aebce82a919afb1c8764",
      "contractAddress": null
    }
  ],
  "libraries": [],
  "pending": [],
  "returns": {},
  "timestamp": 1737502946,
  "chain": 11155111,
  "commit": "1d2fb70"
}