{
  "transactions": [
    {
      "hash": "0x1e4601b85e1e08667a80f531bfec5e8186db12abc7715758420befdc98145100",
      "transactionType": "CALL",
      "contractName": null,
      "contractAddress": "0x5eb9cc76c3506942c1c0ead70e877dd5e4f00cb0",
      "function": "buy(address)",
      "arguments": [
        "0xC77f7fed3b5Cc8249aDc428c5F44C9063B9734b4"
      ],
      "transaction": {
        "from": "0xc77f7fed3b5cc8249adc428c5f44c9063b9734b4",
        "to": "0x5eb9cc76c3506942c1c0ead70e877dd5e4f00cb0",
        "gas": "0x156c8",
        "value": "0xde0b6b3a7640000",
        "input": "0xf088d547000000000000000000000000c77f7fed3b5cc8249adc428c5f44c9063b9734b4",
        "nonce": "0x20e",
        "chainId": "0xaa36a7"
      },
      "additionalContracts": [],
      "isFixedGasLimit": false
    }
  ],
  "receipts": [
    {
      "status": "0x1",
      "cumulativeGasUsed": "0xa14402",
      "logs": [
        {
          "address": "0x5eb9cc76c3506942c1c0ead70e877dd5e4f00cb0",
          "topics": [
            "0xddf252ad1be2c89b69c2b068fc378daa952ba7f163c4a11628f55a4df523b3ef",
            "0x0000000000000000000000000000000000000000000000000000000000000000",
            "0x000000000000000000000000c77f7fed3b5cc8249adc428c5f44c9063b9734b4"
          ],
          "data": "0x00000000000000000000000000000000000000000000003584b74d639b9d96bd",
          "blockHash": "0x0c7756fe18b6c503adbdaaa3b427ff5ffa2b5ad21cd3fdc222757f0613b8b551",
          "blockNumber": "0x724b29",
          "transactionHash": "0x1e4601b85e1e08667a80f531bfec5e8186db12abc7715758420befdc98145100",
          "transactionIndex": "0x60",
          "logIndex": "0xa1",
          "removed": false
        },
        {
          "address": "0x5eb9cc76c3506942c1c0ead70e877dd5e4f00cb0",
          "topics": [
            "0xddf252ad1be2c89b69c2b068fc378daa952ba7f163c4a11628f55a4df523b3ef",
            "0x0000000000000000000000000000000000000000000000000000000000000000",
            "0x000000000000000000000000c77f7fed3b5cc8249adc428c5f44c9063b9734b4"
          ],
          "data": "0x000000000000000000000000000000000000000000000000298f12c5471d0401",
          "blockHash": "0x0c7756fe18b6c503adbdaaa3b427ff5ffa2b5ad21cd3fdc222757f0613b8b551",
          "blockNumber": "0x724b29",
          "transactionHash": "0x1e4601b85e1e08667a80f531bfec5e8186db12abc7715758420befdc98145100",
          "transactionIndex": "0x60",
          "logIndex": "0xa2",
          "removed": false
        },
        {
          "address": "0x5eb9cc76c3506942c1c0ead70e877dd5e4f00cb0",
          "topics": [
            "0x4afcb4a87cdbd9974efdb92ee48bc8d7cd0ae4bf217004db3d080cbaee652ca7"
          ],
          "data": "0x0000000000000000000000000000000000000000000000000000000067867794000000000000000000000000000000000000000000000000000390097075f14b0000000000000000000000000000000000000000000000000de0b6b3a7640000",
          "blockHash": "0x0c7756fe18b6c503adbdaaa3b427ff5ffa2b5ad21cd3fdc222757f0613b8b551",
          "blockNumber": "0x724b29",
          "transactionHash": "0x1e4601b85e1e08667a80f531bfec5e8186db12abc7715758420befdc98145100",
          "transactionIndex": "0x60",
          "logIndex": "0xa3",
          "removed": false
        }
      ],
      "logsBloom": "0x00000000000000000000000000000000000000000000000000000000000000000000000000000000000000000000000000000000000000004000000000000000000000000000000000000008000000000000000000000000000000000000000000000000020000000000000004000800020000000000000000000010000000000000000000000000000000000000000000000000000000000000010000000000000000000000000000000000000000004000000000000000000000000000020000000002000000800000008000000000000000000000080000000000000020000000000000000000000000000000000000000000000000000000000000000000",
      "type": "0x2",
      "transactionHash": "0x1e4601b85e1e08667a80f531bfec5e8186db12abc7715758420befdc98145100",
      "transactionIndex": "0x60",
      "blockHash": "0x0c7756fe18b6c503adbdaaa3b427ff5ffa2b5ad21cd3fdc222757f0613b8b551",
      "blockNumber": "0x724b29",
      "gasUsed": "0xf82c",
      "effectiveGasPrice": "0x51b362111",
      "from": "0xc77f7fed3b5cc8249adc428c5f44c9063b9734b4",
      "to": "0x5eb9cc76c3506942c1c0ead70e877dd5e4f00cb0",
      "contractAddress": null
    }
  ],
  "libraries": [],
  "pending": [],
  "returns": {},
  "timestamp": 1736865686,
  "chain": 11155111,
  "commit": "51a374b"
}