{
  "transactions": [
    {
      "hash": "0xcdbe05c2a6922ab1df1ed6545b509cd43932a3a11b6dec5e808da07a1bff770c",
      "transactionType": "CALL",
      "contractName": null,
      "contractAddress": "0x8aafd3ede9adb0ff97c7aebce82a919afb1c8764",
      "function": "sell(uint256)",
      "arguments": [
        "287490039151651272026"
      ],
      "transaction": {
        "from": "0xc77f7fed3b5cc8249adc428c5f44c9063b9734b4",
        "to": "0x8aafd3ede9adb0ff97c7aebce82a919afb1c8764",
        "gas": "0x17270",
        "value": "0x0",
        "input": "0xe4849b3200000000000000000000000000000000000000000000000f95b9cb6bc151355a",
        "nonce": "0x1361",
        "chainId": "0xaa36a7"
      },
      "additionalContracts": [],
      "isFixedGasLimit": false
    }
  ],
  "receipts": [
    {
      "status": "0x1",
      "cumulativeGasUsed": "0x12bd1af",
      "logs": [
        {
          "address": "0x8aafd3ede9adb0ff97c7aebce82a919afb1c8764",
          "topics": [
            "0xddf252ad1be2c89b69c2b068fc378daa952ba7f163c4a11628f55a4df523b3ef",
            "0x000000000000000000000000c77f7fed3b5cc8249adc428c5f44c9063b9734b4",
            "0x0000000000000000000000000000000000000000000000000000000000000000"
          ],
          "data": "0x00000000000000000000000000000000000000000000000f75ced614e089e71a",
          "blockHash": "0x070492f0bed0e10a97d6b16c5abf927b1de2352deb5c4c4ac95b092ab8f71a6e",
          "blockNumber": "0x731a80",
          "transactionHash": "0xcdbe05c2a6922ab1df1ed6545b509cd43932a3a11b6dec5e808da07a1bff770c",
          "transactionIndex": "0xa8",
          "logIndex": "0x82",
          "removed": false
        },
        {
          "address": "0x8aafd3ede9adb0ff97c7aebce82a919afb1c8764",
          "topics": [
            "0xddf252ad1be2c89b69c2b068fc378daa952ba7f163c4a11628f55a4df523b3ef",
            "0x000000000000000000000000c77f7fed3b5cc8249adc428c5f44c9063b9734b4",
            "0x000000000000000000000000c77f7fed3b5cc8249adc428c5f44c9063b9734b4"
          ],
          "data": "0x0000000000000000000000000000000000000000000000001feaf556e0c74e40",
          "blockHash": "0x070492f0bed0e10a97d6b16c5abf927b1de2352deb5c4c4ac95b092ab8f71a6e",
          "blockNumber": "0x731a80",
          "transactionHash": "0xcdbe05c2a6922ab1df1ed6545b509cd43932a3a11b6dec5e808da07a1bff770c",
          "transactionIndex": "0xa8",
          "logIndex": "0x83",
          "removed": false
        },
        {
          "address": "0x8aafd3ede9adb0ff97c7aebce82a919afb1c8764",
          "topics": [
            "0x4afcb4a87cdbd9974efdb92ee48bc8d7cd0ae4bf217004db3d080cbaee652ca7"
          ],
          "data": "0x0000000000000000000000000000000000000000000000000000000067903ad0000000000000000000000000000000000000000000000000000c5f51ec8501500000000000000000000000000000000000000000000000000dce9a709475dad5",
          "blockHash": "0x070492f0bed0e10a97d6b16c5abf927b1de2352deb5c4c4ac95b092ab8f71a6e",
          "blockNumber": "0x731a80",
          "transactionHash": "0xcdbe05c2a6922ab1df1ed6545b509cd43932a3a11b6dec5e808da07a1bff770c",
          "transactionIndex": "0xa8",
          "logIndex": "0x84",
          "removed": false
        }
      ],
      "logsBloom": "0x00000000000000000000000000000000000000000600000000000000000000000000000000000000000000000000000000000000000000004000000000000000000000000000004000000008000000000000000000000000000000000000000000000000020000000000000000000800020000000000000000000010000000000000000000000000000000000000000000000000000000000000010000000000000000000000000000000000000000004000000000000000000000000000000000000002000000800000000000000000000000000000080000000000000020000000000000000000000000000000000000000000000000000000000000000000",
      "type": "0x2",
      "transactionHash": "0xcdbe05c2a6922ab1df1ed6545b509cd43932a3a11b6dec5e808da07a1bff770c",
      "transactionIndex": "0xa8",
      "blockHash": "0x070492f0bed0e10a97d6b16c5abf927b1de2352deb5c4c4ac95b092ab8f71a6e",
      "blockNumber": "0x731a80",
      "gasUsed": "0xfd4b",
      "effectiveGasPrice": "0x48bae5c0",
      "from": "0xc77f7fed3b5cc8249adc428c5f44c9063b9734b4",
      "to": "0x8aafd3ede9adb0ff97c7aebce82a919afb1c8764",
      "contractAddress": null
    }
  ],
  "libraries": [],
  "pending": [],
  "returns": {},
  "timestamp": 1737505490,
  "chain": 11155111,
  "commit": "1d2fb70"
}