{
  "transactions": [
    {
      "hash": "0x7d0ff6ae80bb112fd3357421949e14d66fe9d3cd9e54256aaa19fd87ad66b78a",
      "transactionType": "CALL",
      "contractName": null,
      "contractAddress": "0xbf4a322f1496e5c3d34a9bcdb4c60567b38c7de2",
      "function": "sell(uint256)",
      "arguments": [
        "974538420553180623456"
      ],
      "transaction": {
        "from": "0xc77f7fed3b5cc8249adc428c5f44c9063b9734b4",
        "to": "0xbf4a322f1496e5c3d34a9bcdb4c60567b38c7de2",
        "gas": "0x16fea",
        "value": "0x0",
        "input": "0xe4849b32000000000000000000000000000000000000000000000034d46ffa2ad291b260",
        "nonce": "0xdb1",
        "chainId": "0xaa36a7"
      },
      "additionalContracts": [],
      "isFixedGasLimit": false
    }
  ],
  "receipts": [
    {
      "status": "0x1",
      "cumulativeGasUsed": "0xa835f2",
      "logs": [
        {
          "address": "0xbf4a322f1496e5c3d34a9bcdb4c60567b38c7de2",
          "topics": [
            "0xddf252ad1be2c89b69c2b068fc378daa952ba7f163c4a11628f55a4df523b3ef",
            "0x000000000000000000000000c77f7fed3b5cc8249adc428c5f44c9063b9734b4",
            "0x0000000000000000000000000000000000000000000000000000000000000000"
          ],
          "data": "0x000000000000000000000000000000000000000000000034d46ffa2ad291b260",
          "blockHash": "0x76822b72d465f89916b13e169570838830895624b42d151bc2c08999e5741dd2",
          "blockNumber": "0x726688",
          "transactionHash": "0x7d0ff6ae80bb112fd3357421949e14d66fe9d3cd9e54256aaa19fd87ad66b78a",
          "transactionIndex": "0x77",
          "logIndex": "0x9e",
          "removed": false
        },
        {
          "address": "0xbf4a322f1496e5c3d34a9bcdb4c60567b38c7de2",
          "topics": [
            "0x4afcb4a87cdbd9974efdb92ee48bc8d7cd0ae4bf217004db3d080cbaee652ca7"
          ],
          "data": "0x000000000000000000000000000000000000000000000000000000006787c14000000000000000000000000000000000000000000000000000039ec08d12a6830000000000000000000000000000000000000000000000000dc7e3d55e2d0fff",
          "blockHash": "0x76822b72d465f89916b13e169570838830895624b42d151bc2c08999e5741dd2",
          "blockNumber": "0x726688",
          "transactionHash": "0x7d0ff6ae80bb112fd3357421949e14d66fe9d3cd9e54256aaa19fd87ad66b78a",
          "transactionIndex": "0x77",
          "logIndex": "0x9f",
          "removed": false
        }
      ],
      "logsBloom": "0x00000000000000000000000000000000000000000000000000000000000000000000000000000000000000000000000000000000000000004000000000000000000000000000000000000008000000000000001000000000000000000000000000000000020000000000000000000800020000000000000000000010000000000000000000000000000000000000000000000000000008000000010000000000000000000000000000000000000000004000000000000000000000000000000000000002000000800000000000001000000000000000080000000000000020000000000000000000000000000000000000000000000000000000000000000000",
      "type": "0x2",
      "transactionHash": "0x7d0ff6ae80bb112fd3357421949e14d66fe9d3cd9e54256aaa19fd87ad66b78a",
      "transactionIndex": "0x77",
      "blockHash": "0x76822b72d465f89916b13e169570838830895624b42d151bc2c08999e5741dd2",
      "blockNumber": "0x726688",
      "gasUsed": "0xfb91",
      "effectiveGasPrice": "0x93b24351",
      "from": "0xc77f7fed3b5cc8249adc428c5f44c9063b9734b4",
      "to": "0xbf4a322f1496e5c3d34a9bcdb4c60567b38c7de2",
      "contractAddress": null
    }
  ],
  "libraries": [],
  "pending": [],
  "returns": {},
  "timestamp": 1736950080,
  "chain": 11155111,
  "commit": "51a374b"
}