{
  "transactions": [
    {
      "hash": "0xae203a3acfafd2b8a53fd5e3ad37dd4a423df9de50d7c24b64d26bafd72b7cee",
      "transactionType": "CALL",
      "contractName": null,
      "contractAddress": "0x270e88f8683660553e8ba4eb2ad7c91a1710d769",
      "function": "buy(address)",
      "arguments": [
        "0xC77f7fed3b5Cc8249aDc428c5F44C9063B9734b4"
      ],
      "transaction": {
        "from": "0xc77f7fed3b5cc8249adc428c5f44c9063b9734b4",
        "to": "0x270e88f8683660553e8ba4eb2ad7c91a1710d769",
        "gas": "0x1b30c",
        "value": "0xde0b6b3a7640000",
        "input": "0xf088d547000000000000000000000000c77f7fed3b5cc8249adc428c5f44c9063b9734b4",
        "nonce": "0x4f4",
        "chainId": "0xaa36a7"
      },
      "additionalContracts": [],
      "isFixedGasLimit": false
    }
  ],
  "receipts": [
    {
      "status": "0x1",
      "cumulativeGasUsed": "0xa3bc89",
      "logs": [
        {
          "address": "0x270e88f8683660553e8ba4eb2ad7c91a1710d769",
          "topics": [
            "0xddf252ad1be2c89b69c2b068fc378daa952ba7f163c4a11628f55a4df523b3ef",
            "0x0000000000000000000000000000000000000000000000000000000000000000",
            "0x000000000000000000000000c77f7fed3b5cc8249adc428c5f44c9063b9734b4"
          ],
          "data": "0x00000000000000000000000000000000000000000000003564a4afefe5185f29",
          "blockHash": "0xbb8c7ae1b31d8df0f482cf2c889bbfcdfcf8957d66d379e92641cae24a5aaad4",
          "blockNumber": "0x725185",
          "transactionHash": "0xae203a3acfafd2b8a53fd5e3ad37dd4a423df9de50d7c24b64d26bafd72b7cee",
          "transactionIndex": "0x65",
          "logIndex": "0x95",
          "removed": false
        },
        {
          "address": "0x270e88f8683660553e8ba4eb2ad7c91a1710d769",
          "topics": [
            "0xddf252ad1be2c89b69c2b068fc378daa952ba7f163c4a11628f55a4df523b3ef",
            "0x0000000000000000000000000000000000000000000000000000000000000000",
            "0x000000000000000000000000c77f7fed3b5cc8249adc428c5f44c9063b9734b4"
          ],
          "data": "0x00000000000000000000000000000000000000000000000029762af2ae2044df",
          "blockHash": "0xbb8c7ae1b31d8df0f482cf2c889bbfcdfcf8957d66d379e92641cae24a5aaad4",
          "blockNumber": "0x725185",
          "transactionHash": "0xae203a3acfafd2b8a53fd5e3ad37dd4a423df9de50d7c24b64d26bafd72b7cee",
          "transactionIndex": "0x65",
          "logIndex": "0x96",
          "removed": false
        },
        {
          "address": "0x270e88f8683660553e8ba4eb2ad7c91a1710d769",
          "topics": [
            "0x4afcb4a87cdbd9974efdb92ee48bc8d7cd0ae4bf217004db3d080cbaee652ca7"
          ],
          "data": "0x000000000000000000000000000000000000000000000000000000006786c42000000000000000000000000000000000000000000000000000039247f9b8d6e60000000000000000000000000000000000000000000000000de0b6b3a7640000",
          "blockHash": "0xbb8c7ae1b31d8df0f482cf2c889bbfcdfcf8957d66d379e92641cae24a5aaad4",
          "blockNumber": "0x725185",
          "transactionHash": "0xae203a3acfafd2b8a53fd5e3ad37dd4a423df9de50d7c24b64d26bafd72b7cee",
          "transactionIndex": "0x65",
          "logIndex": "0x97",
          "removed": false
        }
      ],
      "logsBloom": "0x00000000000000000000000000000000000000000000000000000000000000000000000000000000000000000000000020000000000000004000000000000000000000000000000000000008000000000000000000000000000000000000000000000000020000000000000000000800020000000000000000000010000000000000000000010000000000000000000000000000000000000000010000000000000000000000000000000000000000004000000000000000000000000000000000000002000000800000000000000000000000000000080000008000000020000000000000000000000000000000000000000000000000000000000000000000",
      "type": "0x2",
      "transactionHash": "0xae203a3acfafd2b8a53fd5e3ad37dd4a423df9de50d7c24b64d26bafd72b7cee",
      "transactionIndex": "0x65",
      "blockHash": "0xbb8c7ae1b31d8df0f482cf2c889bbfcdfcf8957d66d379e92641cae24a5aaad4",
      "blockNumber": "0x725185",
      "gasUsed": "0x13af8",
      "effectiveGasPrice": "0x4466a49eb",
      "from": "0xc77f7fed3b5cc8249adc428c5f44c9063b9734b4",
      "to": "0x270e88f8683660553e8ba4eb2ad7c91a1710d769",
      "contractAddress": null
    }
  ],
  "libraries": [],
  "pending": [],
  "returns": {},
  "timestamp": 1736885280,
  "chain": 11155111,
  "commit": "51a374b"
}