{
  "transactions": [
    {
      "hash": "0x8529bcba58f3be0e7d1f27c9e2fcc5fbc45d9eb01c3bdc4e9c134d62886ecb08",
      "transactionType": "CALL",
      "contractName": null,
      "contractAddress": "0x5eb9cc76c3506942c1c0ead70e877dd5e4f00cb0",
      "function": "sell(uint256)",
      "arguments": [
        "989142070148685240351"
      ],
      "transaction": {
        "from": "0xc77f7fed3b5cc8249adc428c5f44c9063b9734b4",
        "to": "0x5eb9cc76c3506942c1c0ead70e877dd5e4f00cb0",
        "gas": "0x16fec",
        "value": "0x0",
        "input": "0xe4849b320000000000000000000000000000000000000000000000359f1a9019d6e6181f",
        "nonce": "0x2f9",
        "chainId": "0xaa36a7"
      },
      "additionalContracts": [],
      "isFixedGasLimit": false
    }
  ],
  "receipts": [
    {
      "status": "0x1",
      "cumulativeGasUsed": "0xf46dc2",
      "logs": [
        {
          "address": "0x5eb9cc76c3506942c1c0ead70e877dd5e4f00cb0",
          "topics": [
            "0xddf252ad1be2c89b69c2b068fc378daa952ba7f163c4a11628f55a4df523b3ef",
            "0x000000000000000000000000c77f7fed3b5cc8249adc428c5f44c9063b9734b4",
            "0x0000000000000000000000000000000000000000000000000000000000000000"
          ],
          "data": "0x0000000000000000000000000000000000000000000000359f1a9019d6e6181f",
          "blockHash": "0xbe7b37b358a71a82b7713fe3fddbf8c41abd666222f277ffc24aef8d6dab76bd",
          "blockNumber": "0x724eda",
          "transactionHash": "0x8529bcba58f3be0e7d1f27c9e2fcc5fbc45d9eb01c3bdc4e9c134d62886ecb08",
          "transactionIndex": "0x78",
          "logIndex": "0xbf",
          "removed": false
        },
        {
          "address": "0x5eb9cc76c3506942c1c0ead70e877dd5e4f00cb0",
          "topics": [
            "0x4afcb4a87cdbd9974efdb92ee48bc8d7cd0ae4bf217004db3d080cbaee652ca7"
          ],
          "data": "0x000000000000000000000000000000000000000000000000000000006786a3ec0000000000000000000000000000000000000000000000000003910b87bf53760000000000000000000000000000000000000000000000000dc7db1332324e7f",
          "blockHash": "0xbe7b37b358a71a82b7713fe3fddbf8c41abd666222f277ffc24aef8d6dab76bd",
          "blockNumber": "0x724eda",
          "transactionHash": "0x8529bcba58f3be0e7d1f27c9e2fcc5fbc45d9eb01c3bdc4e9c134d62886ecb08",
          "transactionIndex": "0x78",
          "logIndex": "0xc0",
          "removed": false
        }
      ],
      "logsBloom": "0x00000000000000000000000000000000000000000000000000000000000000000000000000000000000000000000000000000000000000004000000000000000000000000000000000000008000000000000000000000000000000000000000000000000020000000000000004000800020000000000000000000010000000000000000000000000000000000000000000000000000000000000010000000000000000000000000000000000000000004000000000000000000000000000020000000002000000800000008000000000000000000000080000000000000020000000000000000000000000000000000000000000000000000000000000000000",
      "type": "0x2",
      "transactionHash": "0x8529bcba58f3be0e7d1f27c9e2fcc5fbc45d9eb01c3bdc4e9c134d62886ecb08",
      "transactionIndex": "0x78",
      "blockHash": "0xbe7b37b358a71a82b7713fe3fddbf8c41abd666222f277ffc24aef8d6dab76bd",
      "blockNumber": "0x724eda",
      "gasUsed": "0xfb93",
      "effectiveGasPrice": "0x6922b974d",
      "from": "0xc77f7fed3b5cc8249adc428c5f44c9063b9734b4",
      "to": "0x5eb9cc76c3506942c1c0ead70e877dd5e4f00cb0",
      "contractAddress": null
    }
  ],
  "libraries": [],
  "pending": [],
  "returns": {},
  "timestamp": 1736877038,
  "chain": 11155111,
  "commit": "51a374b"
}