{
  "transactions": [
    {
      "hash": "0x847e88d3525ecde743e43651bfd5e5faac3107d15de4f18656309bc7bd484661",
      "transactionType": "CALL",
      "contractName": null,
      "contractAddress": "0x5eb9cc76c3506942c1c0ead70e877dd5e4f00cb0",
      "function": "sell(uint256)",
      "arguments": [
        "989149719818805046352"
      ],
      "transaction": {
        "from": "0xc77f7fed3b5cc8249adc428c5f44c9063b9734b4",
        "to": "0x5eb9cc76c3506942c1c0ead70e877dd5e4f00cb0",
        "gas": "0x16fec",
        "value": "0x0",
        "input": "0xe4849b320000000000000000000000000000000000000000000000359f35bd6f7509ec50",
        "nonce": "0x2c9",
        "chainId": "0xaa36a7"
      },
      "additionalContracts": [],
      "isFixedGasLimit": false
    }
  ],
  "receipts": [
    {
      "status": "0x1",
      "cumulativeGasUsed": "0xa74f85",
      "logs": [
        {
          "address": "0x5eb9cc76c3506942c1c0ead70e877dd5e4f00cb0",
          "topics": [
            "0xddf252ad1be2c89b69c2b068fc378daa952ba7f163c4a11628f55a4df523b3ef",
            "0x000000000000000000000000c77f7fed3b5cc8249adc428c5f44c9063b9734b4",
            "0x0000000000000000000000000000000000000000000000000000000000000000"
          ],
          "data": "0x0000000000000000000000000000000000000000000000359f35bd6f7509ec50",
          "blockHash": "0x75e64ba34c84162a308452bfd7dc4330bb4ae3141235f37b6ce9e9473b6468c2",
          "blockNumber": "0x724ea5",
          "transactionHash": "0x847e88d3525ecde743e43651bfd5e5faac3107d15de4f18656309bc7bd484661",
          "transactionIndex": "0x49",
          "logIndex": "0xa6",
          "removed": false
        },
        {
          "address": "0x5eb9cc76c3506942c1c0ead70e877dd5e4f00cb0",
          "topics": [
            "0x4afcb4a87cdbd9974efdb92ee48bc8d7cd0ae4bf217004db3d080cbaee652ca7"
          ],
          "data": "0x000000000000000000000000000000000000000000000000000000006786a17000000000000000000000000000000000000000000000000000039109b8fd9fbb0000000000000000000000000000000000000000000000000dc7db13323feb11",
          "blockHash": "0x75e64ba34c84162a308452bfd7dc4330bb4ae3141235f37b6ce9e9473b6468c2",
          "blockNumber": "0x724ea5",
          "transactionHash": "0x847e88d3525ecde743e43651bfd5e5faac3107d15de4f18656309bc7bd484661",
          "transactionIndex": "0x49",
          "logIndex": "0xa7",
          "removed": false
        }
      ],
      "logsBloom": "0x00000000000000000000000000000000000000000000000000000000000000000000000000000000000000000000000000000000000000004000000000000000000000000000000000000008000000000000000000000000000000000000000000000000020000000000000004000800020000000000000000000010000000000000000000000000000000000000000000000000000000000000010000000000000000000000000000000000000000004000000000000000000000000000020000000002000000800000008000000000000000000000080000000000000020000000000000000000000000000000000000000000000000000000000000000000",
      "type": "0x2",
      "transactionHash": "0x847e88d3525ecde743e43651bfd5e5faac3107d15de4f18656309bc7bd484661",
      "transactionIndex": "0x49",
      "blockHash": "0x75e64ba34c84162a308452bfd7dc4330bb4ae3141235f37b6ce9e9473b6468c2",
      "blockNumber": "0x724ea5",
      "gasUsed": "0xfb93",
      "effectiveGasPrice": "0x4bbefefdd",
      "from": "0xc77f7fed3b5cc8249adc428c5f44c9063b9734b4",
      "to": "0x5eb9cc76c3506942c1c0ead70e877dd5e4f00cb0",
      "contractAddress": null
    }
  ],
  "libraries": [],
  "pending": [],
  "returns": {},
  "timestamp": 1736876402,
  "chain": 11155111,
  "commit": "51a374b"
}