{
  "transactions": [
    {
      "hash": "0x6f8b956a5176d0a719b8316a643fe70d38f8ba8a26f9a4a4e01b2e3d24d6272e",
      "transactionType": "CALL",
      "contractName": null,
      "contractAddress": "0xbf4a322f1496e5c3d34a9bcdb4c60567b38c7de2",
      "function": "sell(uint256)",
      "arguments": [
        "982651464639694278442"
      ],
      "transaction": {
        "from": "0xc77f7fed3b5cc8249adc428c5f44c9063b9734b4",
        "to": "0xbf4a322f1496e5c3d34a9bcdb4c60567b38c7de2",
        "gas": "0x16fea",
        "value": "0x0",
        "input": "0xe4849b3200000000000000000000000000000000000000000000003545074cc77a4c8f2a",
        "nonce": "0xb53",
        "chainId": "0xaa36a7"
      },
      "additionalContracts": [],
      "isFixedGasLimit": false
    }
  ],
  "receipts": [
    {
      "status": "0x1",
      "cumulativeGasUsed": "0x11f8eb4",
      "logs": [
        {
          "address": "0xbf4a322f1496e5c3d34a9bcdb4c60567b38c7de2",
          "topics": [
            "0xddf252ad1be2c89b69c2b068fc378daa952ba7f163c4a11628f55a4df523b3ef",
            "0x000000000000000000000000c77f7fed3b5cc8249adc428c5f44c9063b9734b4",
            "0x0000000000000000000000000000000000000000000000000000000000000000"
          ],
          "data": "0x00000000000000000000000000000000000000000000003545074cc77a4c8f2a",
          "blockHash": "0x73ac0d4de9b149302a5e684c82fda0218fdc6c514a71b64f61fd8bed981208ca",
          "blockNumber": "0x725b5a",
          "transactionHash": "0x6f8b956a5176d0a719b8316a643fe70d38f8ba8a26f9a4a4e01b2e3d24d6272e",
          "transactionIndex": "0x47",
          "logIndex": "0x67",
          "removed": false
        },
        {
          "address": "0xbf4a322f1496e5c3d34a9bcdb4c60567b38c7de2",
          "topics": [
            "0x4afcb4a87cdbd9974efdb92ee48bc8d7cd0ae4bf217004db3d080cbaee652ca7"
          ],
          "data": "0x0000000000000000000000000000000000000000000000000000000067873a9400000000000000000000000000000000000000000000000000039719d0772ae60000000000000000000000000000000000000000000000000dc7e3e83b252ed3",
          "blockHash": "0x73ac0d4de9b149302a5e684c82fda0218fdc6c514a71b64f61fd8bed981208ca",
          "blockNumber": "0x725b5a",
          "transactionHash": "0x6f8b956a5176d0a719b8316a643fe70d38f8ba8a26f9a4a4e01b2e3d24d6272e",
          "transactionIndex": "0x47",
          "logIndex": "0x68",
          "removed": false
        }
      ],
      "logsBloom": "0x00000000000000000000000000000000000000000000000000000000000000000000000000000000000000000000000000000000000000004000000000000000000000000000000000000008000000000000001000000000000000000000000000000000020000000000000000000800020000000000000000000010000000000000000000000000000000000000000000000000000008000000010000000000000000000000000000000000000000004000000000000000000000000000000000000002000000800000000000001000000000000000080000000000000020000000000000000000000000000000000000000000000000000000000000000000",
      "type": "0x2",
      "transactionHash": "0x6f8b956a5176d0a719b8316a643fe70d38f8ba8a26f9a4a4e01b2e3d24d6272e",
      "transactionIndex": "0x47",
      "blockHash": "0x73ac0d4de9b149302a5e684c82fda0218fdc6c514a71b64f61fd8bed981208ca",
      "blockNumber": "0x725b5a",
      "gasUsed": "0xfb91",
      "effectiveGasPrice": "0x46ba6e14",
      "from": "0xc77f7fed3b5cc8249adc428c5f44c9063b9734b4",
      "to": "0xbf4a322f1496e5c3d34a9bcdb4c60567b38c7de2",
      "contractAddress": null
    }
  ],
  "libraries": [],
  "pending": [],
  "returns": {},
  "timestamp": 1736915605,
  "chain": 11155111,
  "commit": "51a374b"
}