{
  "transactions": [
    {
      "hash": "0x283de1deffc1851ea8bd52e596291a913026108b660c50cd49a51a90f8735a15",
      "transactionType": "CALL",
      "contractName": null,
      "contractAddress": "0x270e88f8683660553e8ba4eb2ad7c91a1710d769",
      "function": "buy(address)",
      "arguments": [
        "0xC77f7fed3b5Cc8249aDc428c5F44C9063B9734b4"
      ],
      "transaction": {
        "from": "0xc77f7fed3b5cc8249adc428c5f44c9063b9734b4",
        "to": "0x270e88f8683660553e8ba4eb2ad7c91a1710d769",
        "gas": "0x1b30c",
        "value": "0xde0b6b3a7640000",
        "input": "0xf088d547000000000000000000000000c77f7fed3b5cc8249adc428c5f44c9063b9734b4",
        "nonce": "0x61e",
        "chainId": "0xaa36a7"
      },
      "additionalContracts": [],
      "isFixedGasLimit": false
    }
  ],
  "receipts": [
    {
      "status": "0x1",
      "cumulativeGasUsed": "0xe95674",
      "logs": [
        {
          "address": "0x270e88f8683660553e8ba4eb2ad7c91a1710d769",
          "topics": [
            "0xddf252ad1be2c89b69c2b068fc378daa952ba7f163c4a11628f55a4df523b3ef",
            "0x0000000000000000000000000000000000000000000000000000000000000000",
            "0x000000000000000000000000c77f7fed3b5cc8249adc428c5f44c9063b9734b4"
          ],
          "data": "0x000000000000000000000000000000000000000000000032f68ad8f2ae369d57",
          "blockHash": "0x162429e13bb01839c971c7cc8e85f2423e08e6667a43faacfde0e24a59ab0074",
          "blockNumber": "0x7252eb",
          "transactionHash": "0x283de1deffc1851ea8bd52e596291a913026108b660c50cd49a51a90f8735a15",
          "transactionIndex": "0x57",
          "logIndex": "0xb2",
          "removed": false
        },
        {
          "address": "0x270e88f8683660553e8ba4eb2ad7c91a1710d769",
          "topics": [
            "0xddf252ad1be2c89b69c2b068fc378daa952ba7f163c4a11628f55a4df523b3ef",
            "0x0000000000000000000000000000000000000000000000000000000000000000",
            "0x000000000000000000000000c77f7fed3b5cc8249adc428c5f44c9063b9734b4"
          ],
          "data": "0x000000000000000000000000000000000000000000000000279315cd97f5da71",
          "blockHash": "0x162429e13bb01839c971c7cc8e85f2423e08e6667a43faacfde0e24a59ab0074",
          "blockNumber": "0x7252eb",
          "transactionHash": "0x283de1deffc1851ea8bd52e596291a913026108b660c50cd49a51a90f8735a15",
          "transactionIndex": "0x57",
          "logIndex": "0xb3",
          "removed": false
        },
        {
          "address": "0x270e88f8683660553e8ba4eb2ad7c91a1710d769",
          "topics": [
            "0x4afcb4a87cdbd9974efdb92ee48bc8d7cd0ae4bf217004db3d080cbaee652ca7"
          ],
          "data": "0x000000000000000000000000000000000000000000000000000000006786d50c0000000000000000000000000000000000000000000000000003bddf429cf07d0000000000000000000000000000000000000000000000000de0b6b3a7640000",
          "blockHash": "0x162429e13bb01839c971c7cc8e85f2423e08e6667a43faacfde0e24a59ab0074",
          "blockNumber": "0x7252eb",
          "transactionHash": "0x283de1deffc1851ea8bd52e596291a913026108b660c50cd49a51a90f8735a15",
          "transactionIndex": "0x57",
          "logIndex": "0xb4",
          "removed": false
        }
      ],
      "logsBloom": "0x00000000000000000000000000000000000000000000000000000000000000000000000000000000000000000000000020000000000000004000000000000000000000000000000000000008000000000000000000000000000000000000000000000000020000000000000000000800020000000000000000000010000000000000000000010000000000000000000000000000000000000000010000000000000000000000000000000000000000004000000000000000000000000000000000000002000000800000000000000000000000000000080000008000000020000000000000000000000000000000000000000000000000000000000000000000",
      "type": "0x2",
      "transactionHash": "0x283de1deffc1851ea8bd52e596291a913026108b660c50cd49a51a90f8735a15",
      "transactionIndex": "0x57",
      "blockHash": "0x162429e13bb01839c971c7cc8e85f2423e08e6667a43faacfde0e24a59ab0074",
      "blockNumber": "0x7252eb",
      "gasUsed": "0x13af8",
      "effectiveGasPrice": "0x28b100bc9",
      "from": "0xc77f7fed3b5cc8249adc428c5f44c9063b9734b4",
      "to": "0x270e88f8683660553e8ba4eb2ad7c91a1710d769",
      "contractAddress": null
    }
  ],
  "libraries": [],
  "pending": [],
  "returns": {},
  "timestamp": 1736889615,
  "chain": 11155111,
  "commit": "51a374b"
}