{
  "transactions": [
    {
      "hash": "0x0fe07749d8415de9abe094ae59934ff78db0731e6a7d0b8e95e1fd4199741642",
      "transactionType": "CALL",
      "contractName": null,
      "contractAddress": "0x5eb9cc76c3506942c1c0ead70e877dd5e4f00cb0",
      "function": "sell(uint256)",
      "arguments": [
        "989105417121070143078"
      ],
      "transaction": {
        "from": "0xc77f7fed3b5cc8249adc428c5f44c9063b9734b4",
        "to": "0x5eb9cc76c3506942c1c0ead70e877dd5e4f00cb0",
        "gas": "0x16fec",
        "value": "0x0",
        "input": "0xe4849b320000000000000000000000000000000000000000000000359e98585dd3f55666",
        "nonce": "0x3df",
        "chainId": "0xaa36a7"
      },
      "additionalContracts": [],
      "isFixedGasLimit": false
    }
  ],
  "receipts": [
    {
      "status": "0x1",
      "cumulativeGasUsed": "0xe9104c",
      "logs": [
        {
          "address": "0x5eb9cc76c3506942c1c0ead70e877dd5e4f00cb0",
          "topics": [
            "0xddf252ad1be2c89b69c2b068fc378daa952ba7f163c4a11628f55a4df523b3ef",
            "0x000000000000000000000000c77f7fed3b5cc8249adc428c5f44c9063b9734b4",
            "0x0000000000000000000000000000000000000000000000000000000000000000"
          ],
          "data": "0x0000000000000000000000000000000000000000000000359e98585dd3f55666",
          "blockHash": "0xe78a3141d930ce92acca2ad81c6ce14a11fae1211463b77ad63031a00df96379",
          "blockNumber": "0x724fe5",
          "transactionHash": "0x0fe07749d8415de9abe094ae59934ff78db0731e6a7d0b8e95e1fd4199741642",
          "transactionIndex": "0x59",
          "logIndex": "0xa0",
          "removed": false
        },
        {
          "address": "0x5eb9cc76c3506942c1c0ead70e877dd5e4f00cb0",
          "topics": [
            "0x4afcb4a87cdbd9974efdb92ee48bc8d7cd0ae4bf217004db3d080cbaee652ca7"
          ],
          "data": "0x000000000000000000000000000000000000000000000000000000006786b08800000000000000000000000000000000000000000000000000039114311f7b5b0000000000000000000000000000000000000000000000000dc7db1331f1165c",
          "blockHash": "0xe78a3141d930ce92acca2ad81c6ce14a11fae1211463b77ad63031a00df96379",
          "blockNumber": "0x724fe5",
          "transactionHash": "0x0fe07749d8415de9abe094ae59934ff78db0731e6a7d0b8e95e1fd4199741642",
          "transactionIndex": "0x59",
          "logIndex": "0xa1",
          "removed": false
        }
      ],
      "logsBloom": "0x00000000000000000000000000000000000000000000000000000000000000000000000000000000000000000000000000000000000000004000000000000000000000000000000000000008000000000000000000000000000000000000000000000000020000000000000004000800020000000000000000000010000000000000000000000000000000000000000000000000000000000000010000000000000000000000000000000000000000004000000000000000000000000000020000000002000000800000008000000000000000000000080000000000000020000000000000000000000000000000000000000000000000000000000000000000",
      "type": "0x2",
      "transactionHash": "0x0fe07749d8415de9abe094ae59934ff78db0731e6a7d0b8e95e1fd4199741642",
      "transactionIndex": "0x59",
      "blockHash": "0xe78a3141d930ce92acca2ad81c6ce14a11fae1211463b77ad63031a00df96379",
      "blockNumber": "0x724fe5",
      "gasUsed": "0xfb93",
      "effectiveGasPrice": "0x3b9890adb",
      "from": "0xc77f7fed3b5cc8249adc428c5f44c9063b9734b4",
      "to": "0x5eb9cc76c3506942c1c0ead70e877dd5e4f00cb0",
      "contractAddress": null
    }
  ],
  "libraries": [],
  "pending": [],
  "returns": {},
  "timestamp": 1736880266,
  "chain": 11155111,
  "commit": "51a374b"
}