{
  "transactions": [
    {
      "hash": "0x90a717fd6fd2b78748328dc0a39645c2dd132f66ef3b90826eddbd70db1069bb",
      "transactionType": "CALL",
      "contractName": null,
      "contractAddress": "0x8aafd3ede9adb0ff97c7aebce82a919afb1c8764",
      "function": "sell(uint256)",
      "arguments": [
        "2925295027528"
      ],
      "transaction": {
        "from": "0xc77f7fed3b5cc8249adc428c5f44c9063b9734b4",
        "to": "0x8aafd3ede9adb0ff97c7aebce82a919afb1c8764",
        "gas": "0x15daa",
        "value": "0x0",
        "input": "0xe4849b32000000000000000000000000000000000000000000000000000002a9192bc548",
        "nonce": "0x104f",
        "chainId": "0xaa36a7"
      },
      "additionalContracts": [],
      "isFixedGasLimit": false
    }
  ],
  "receipts": [
    {
      "status": "0x1",
      "cumulativeGasUsed": "0x13c9cbc",
      "logs": [
        {
          "address": "0x8aafd3ede9adb0ff97c7aebce82a919afb1c8764",
          "topics": [
            "0xddf252ad1be2c89b69c2b068fc378daa952ba7f163c4a11628f55a4df523b3ef",
            "0x000000000000000000000000c77f7fed3b5cc8249adc428c5f44c9063b9734b4",
            "0x0000000000000000000000000000000000000000000000000000000000000000"
          ],
          "data": "0x000000000000000000000000000000000000000000000000000002a3a64817ac",
          "blockHash": "0xc9c894e9d90a1680e4a39d42283187baa8d847649f536e869b06892e73652302",
          "blockNumber": "0x7316d1",
          "transactionHash": "0x90a717fd6fd2b78748328dc0a39645c2dd132f66ef3b90826eddbd70db1069bb",
          "transactionIndex": "0xd3",
          "logIndex": "0x118",
          "removed": false
        },
        {
          "address": "0x8aafd3ede9adb0ff97c7aebce82a919afb1c8764",
          "topics": [
            "0xddf252ad1be2c89b69c2b068fc378daa952ba7f163c4a11628f55a4df523b3ef",
            "0x000000000000000000000000c77f7fed3b5cc8249adc428c5f44c9063b9734b4",
            "0x000000000000000000000000c77f7fed3b5cc8249adc428c5f44c9063b9734b4"
          ],
          "data": "0x0000000000000000000000000000000000000000000000000000000572e3ad9c",
          "blockHash": "0xc9c894e9d90a1680e4a39d42283187baa8d847649f536e869b06892e73652302",
          "blockNumber": "0x7316d1",
          "transactionHash": "0x90a717fd6fd2b78748328dc0a39645c2dd132f66ef3b90826eddbd70db1069bb",
          "transactionIndex": "0xd3",
          "logIndex": "0x119",
          "removed": false
        },
        {
          "address": "0x8aafd3ede9adb0ff97c7aebce82a919afb1c8764",
          "topics": [
            "0x4afcb4a87cdbd9974efdb92ee48bc8d7cd0ae4bf217004db3d080cbaee652ca7"
          ],
          "data": "0x0000000000000000000000000000000000000000000000000000000067900e840000000000000000000000000000000000000000000000000004f20447b4364200000000000000000000000000000000000000000000000000000000f2b5f4e5",
          "blockHash": "0xc9c894e9d90a1680e4a39d42283187baa8d847649f536e869b06892e73652302",
          "blockNumber": "0x7316d1",
          "transactionHash": "0x90a717fd6fd2b78748328dc0a39645c2dd132f66ef3b90826eddbd70db1069bb",
          "transactionIndex": "0xd3",
          "logIndex": "0x11a",
          "removed": false
        }
      ],
      "logsBloom": "0x00000000000000000000000000000000000000000600000000000000000000000000000000000000000000000000000000000000000000004000000000000000000000000000004000000008000000000000000000000000000000000000000000000000020000000000000000000800020000000000000000000010000000000000000000000000000000000000000000000000000000000000010000000000000000000000000000000000000000004000000000000000000000000000000000000002000000800000000000000000000000000000080000000000000020000000000000000000000000000000000000000000000000000000000000000000",
      "type": "0x2",
      "transactionHash": "0x90a717fd6fd2b78748328dc0a39645c2dd132f66ef3b90826eddbd70db1069bb",
      "transactionIndex": "0xd3",
      "blockHash": "0xc9c894e9d90a1680e4a39d42283187baa8d847649f536e869b06892e73652302",
      "blockNumber": "0x7316d1",
      "gasUsed": "0xfd27",
      "effectiveGasPrice": "0x459f4cef",
      "from": "0xc77f7fed3b5cc8249adc428c5f44c9063b9734b4",
      "to": "0x8aafd3ede9adb0ff97c7aebce82a919afb1c8764",
      "contractAddress": null
    }
  ],
  "libraries": [],
  "pending": [],
  "returns": {},
  "timestamp": 1737494150,
  "chain": 11155111,
  "commit": "1d2fb70"
}