{
  "transactions": [
    {
      "hash": "0xe5efe7e297914c76f419037840da62c2b3f47c000c16a8cb73a4b6683f9cc7ca",
      "transactionType": "CALL",
      "contractName": null,
      "contractAddress": "0x270e88f8683660553e8ba4eb2ad7c91a1710d769",
      "function": "sell(uint256)",
      "arguments": [
        "962656834393715689774"
      ],
      "transaction": {
        "from": "0xc77f7fed3b5cc8249adc428c5f44c9063b9734b4",
        "to": "0x270e88f8683660553e8ba4eb2ad7c91a1710d769",
        "gas": "0x16fec",
        "value": "0x0",
        "input": "0xe4849b320000000000000000000000000000000000000000000000342f8c1a81af76c92e",
        "nonce": "0x599",
        "chainId": "0xaa36a7"
      },
      "additionalContracts": [],
      "isFixedGasLimit": false
    }
  ],
  "receipts": [
    {
      "status": "0x1",
      "cumulativeGasUsed": "0x9f1f00",
      "logs": [
        {
          "address": "0x270e88f8683660553e8ba4eb2ad7c91a1710d769",
          "topics": [
            "0xddf252ad1be2c89b69c2b068fc378daa952ba7f163c4a11628f55a4df523b3ef",
            "0x000000000000000000000000c77f7fed3b5cc8249adc428c5f44c9063b9734b4",
            "0x0000000000000000000000000000000000000000000000000000000000000000"
          ],
          "data": "0x0000000000000000000000000000000000000000000000342f8c1a81af76c92e",
          "blockHash": "0x58a840dc6ecde25989c6227eb8622c2b1b36bc5d60af8cb9e49bd4dc720cd199",
          "blockNumber": "0x72524e",
          "transactionHash": "0xe5efe7e297914c76f419037840da62c2b3f47c000c16a8cb73a4b6683f9cc7ca",
          "transactionIndex": "0x4f",
          "logIndex": "0x90",
          "removed": false
        },
        {
          "address": "0x270e88f8683660553e8ba4eb2ad7c91a1710d769",
          "topics": [
            "0x4afcb4a87cdbd9974efdb92ee48bc8d7cd0ae4bf217004db3d080cbaee652ca7"
          ],
          "data": "0x000000000000000000000000000000000000000000000000000000006786cd980000000000000000000000000000000000000000000000000003aa75241f925b0000000000000000000000000000000000000000000000000dc83f759462e4ad",
          "blockHash": "0x58a840dc6ecde25989c6227eb8622c2b1b36bc5d60af8cb9e49bd4dc720cd199",
          "blockNumber": "0x72524e",
          "transactionHash": "0xe5efe7e297914c76f419037840da62c2b3f47c000c16a8cb73a4b6683f9cc7ca",
          "transactionIndex": "0x4f",
          "logIndex": "0x91",
          "removed": false
        }
      ],
      "logsBloom": "0x00000000000000000000000000000000000000000000000000000000000000000000000000000000000000000000000020000000000000004000000000000000000000000000000000000008000000000000000000000000000000000000000000000000020000000000000000000800020000000000000000000010000000000000000000010000000000000000000000000000000000000000010000000000000000000000000000000000000000004000000000000000000000000000000000000002000000800000000000000000000000000000080000008000000020000000000000000000000000000000000000000000000000000000000000000000",
      "type": "0x2",
      "transactionHash": "0xe5efe7e297914c76f419037840da62c2b3f47c000c16a8cb73a4b6683f9cc7ca",
      "transactionIndex": "0x4f",
      "blockHash": "0x58a840dc6ecde25989c6227eb8622c2b1b36bc5d60af8cb9e49bd4dc720cd199",
      "blockNumber": "0x72524e",
      "gasUsed": "0xfb93",
      "effectiveGasPrice": "0x4b69a5623",
      "from": "0xc77f7fed3b5cc8249adc428c5f44c9063b9734b4",
      "to": "0x270e88f8683660553e8ba4eb2ad7c91a1710d769",
      "contractAddress": null
    }
  ],
  "libraries": [],
  "pending": [],
  "returns": {},
  "timestamp": 1736887705,
  "chain": 11155111,
  "commit": "51a374b"
}