{
  "transactions": [
    {
      "hash": "0x0d2ff79addf9bf96d255c1ceec4ee75b137e48f630b5dda99ae890768b974afd",
      "transactionType": "CALL",
      "contractName": null,
      "contractAddress": "0xbf4a322f1496e5c3d34a9bcdb4c60567b38c7de2",
      "function": "sell(uint256)",
      "arguments": [
        "989913343231859745447"
      ],
      "transaction": {
        "from": "0xc77f7fed3b5cc8249adc428c5f44c9063b9734b4",
        "to": "0xbf4a322f1496e5c3d34a9bcdb4c60567b38c7de2",
        "gas": "0x16fea",
        "value": "0x0",
        "input": "0xe4849b32000000000000000000000000000000000000000000000035a9ceace23a55e2a7",
        "nonce": "0x93d",
        "chainId": "0xaa36a7"
      },
      "additionalContracts": [],
      "isFixedGasLimit": false
    }
  ],
  "receipts": [
    {
      "status": "0x1",
      "cumulativeGasUsed": "0xfbdbb5",
      "logs": [
        {
          "address": "0xbf4a322f1496e5c3d34a9bcdb4c60567b38c7de2",
          "topics": [
            "0xddf252ad1be2c89b69c2b068fc378daa952ba7f163c4a11628f55a4df523b3ef",
            "0x000000000000000000000000c77f7fed3b5cc8249adc428c5f44c9063b9734b4",
            "0x0000000000000000000000000000000000000000000000000000000000000000"
          ],
          "data": "0x000000000000000000000000000000000000000000000035a9ceace23a55e2a7",
          "blockHash": "0x67383c117d003278b9b8c4384865f458e3c5f6387c8ab0a6de3e1fe0494d9db9",
          "blockNumber": "0x7258c8",
          "transactionHash": "0x0d2ff79addf9bf96d255c1ceec4ee75b137e48f630b5dda99ae890768b974afd",
          "transactionIndex": "0x78",
          "logIndex": "0xb8",
          "removed": false
        },
        {
          "address": "0xbf4a322f1496e5c3d34a9bcdb4c60567b38c7de2",
          "topics": [
            "0x4afcb4a87cdbd9974efdb92ee48bc8d7cd0ae4bf217004db3d080cbaee652ca7"
          ],
          "data": "0x0000000000000000000000000000000000000000000000000000000067871b8c0000000000000000000000000000000000000000000000000003905bce363a640000000000000000000000000000000000000000000000000dc7e3f91d6596b4",
          "blockHash": "0x67383c117d003278b9b8c4384865f458e3c5f6387c8ab0a6de3e1fe0494d9db9",
          "blockNumber": "0x7258c8",
          "transactionHash": "0x0d2ff79addf9bf96d255c1ceec4ee75b137e48f630b5dda99ae890768b974afd",
          "transactionIndex": "0x78",
          "logIndex": "0xb9",
          "removed": false
        }
      ],
      "logsBloom": "0x00000000000000000000000000000000000000000000000000000000000000000000000000000000000000000000000000000000000000004000000000000000000000000000000000000008000000000000001000000000000000000000000000000000020000000000000000000800020000000000000000000010000000000000000000000000000000000000000000000000000008000000010000000000000000000000000000000000000000004000000000000000000000000000000000000002000000800000000000001000000000000000080000000000000020000000000000000000000000000000000000000000000000000000000000000000",
      "type": "0x2",
      "transactionHash": "0x0d2ff79addf9bf96d255c1ceec4ee75b137e48f630b5dda99ae890768b974afd",
      "transactionIndex": "0x78",
      "blockHash": "0x67383c117d003278b9b8c4384865f458e3c5f6387c8ab0a6de3e1fe0494d9db9",
      "blockNumber": "0x7258c8",
      "gasUsed": "0xfb91",
      "effectiveGasPrice": "0x50ad3779",
      "from": "0xc77f7fed3b5cc8249adc428c5f44c9063b9734b4",
      "to": "0xbf4a322f1496e5c3d34a9bcdb4c60567b38c7de2",
      "contractAddress": null
    }
  ],
  "libraries": [],
  "pending": [],
  "returns": {},
  "timestamp": 1736907662,
  "chain": 11155111,
  "commit": "51a374b"
}