{
  "transactions": [
    {
      "hash": "0xfbfb412f83227f0144ea7d12b3126f11fd8673573ec8914d347923eb373c686d",
      "transactionType": "CALL",
      "contractName": null,
      "contractAddress": "0x5eb9cc76c3506942c1c0ead70e877dd5e4f00cb0",
      "function": "buy(address)",
      "arguments": [
        "0xC77f7fed3b5Cc8249aDc428c5F44C9063B9734b4"
      ],
      "transaction": {
        "from": "0xc77f7fed3b5cc8249adc428c5f44c9063b9734b4",
        "to": "0x5eb9cc76c3506942c1c0ead70e877dd5e4f00cb0",
        "gas": "0x156c8",
        "value": "0xde0b6b3a7640000",
        "input": "0xf088d547000000000000000000000000c77f7fed3b5cc8249adc428c5f44c9063b9734b4",
        "nonce": "0x21b",
        "chainId": "0xaa36a7"
      },
      "additionalContracts": [],
      "isFixedGasLimit": false
    }
  ],
  "receipts": [
    {
      "status": "0x1",
      "cumulativeGasUsed": "0x131da84",
      "logs": [
        {
          "address": "0x5eb9cc76c3506942c1c0ead70e877dd5e4f00cb0",
          "topics": [
            "0xddf252ad1be2c89b69c2b068fc378daa952ba7f163c4a11628f55a4df523b3ef",
            "0x0000000000000000000000000000000000000000000000000000000000000000",
            "0x000000000000000000000000c77f7fed3b5cc8249adc428c5f44c9063b9734b4"
          ],
          "data": "0x0000000000000000000000000000000000000000000000357c42cb05e0b7745e",
          "blockHash": "0x0dc969d64c6ca8f69f5a42f91c700350464ee2a0e8aed5329e5e3346e8677d32",
          "blockNumber": "0x724dad",
          "transactionHash": "0xfbfb412f83227f0144ea7d12b3126f11fd8673573ec8914d347923eb373c686d",
          "transactionIndex": "0x93",
          "logIndex": "0x10a",
          "removed": false
        },
        {
          "address": "0x5eb9cc76c3506942c1c0ead70e877dd5e4f00cb0",
          "topics": [
            "0xddf252ad1be2c89b69c2b068fc378daa952ba7f163c4a11628f55a4df523b3ef",
            "0x0000000000000000000000000000000000000000000000000000000000000000",
            "0x000000000000000000000000c77f7fed3b5cc8249adc428c5f44c9063b9734b4"
          ],
          "data": "0x000000000000000000000000000000000000000000000000298881f4925c0444",
          "blockHash": "0x0dc969d64c6ca8f69f5a42f91c700350464ee2a0e8aed5329e5e3346e8677d32",
          "blockNumber": "0x724dad",
          "transactionHash": "0xfbfb412f83227f0144ea7d12b3126f11fd8673573ec8914d347923eb373c686d",
          "transactionIndex": "0x93",
          "logIndex": "0x10b",
          "removed": false
        },
        {
          "address": "0x5eb9cc76c3506942c1c0ead70e877dd5e4f00cb0",
          "topics": [
            "0x4afcb4a87cdbd9974efdb92ee48bc8d7cd0ae4bf217004db3d080cbaee652ca7"
          ],
          "data": "0x00000000000000000000000000000000000000000000000000000000678695d0000000000000000000000000000000000000000000000000000390999d6488d10000000000000000000000000000000000000000000000000de0b6b3a7640000",
          "blockHash": "0x0dc969d64c6ca8f69f5a42f91c700350464ee2a0e8aed5329e5e3346e8677d32",
          "blockNumber": "0x724dad",
          "transactionHash": "0xfbfb412f83227f0144ea7d12b3126f11fd8673573ec8914d347923eb373c686d",
          "transactionIndex": "0x93",
          "logIndex": "0x10c",
          "removed": false
        }
      ],
      "logsBloom": "0x00000000000000000000000000000000000000000000000000000000000000000000000000000000000000000000000000000000000000004000000000000000000000000000000000000008000000000000000000000000000000000000000000000000020000000000000004000800020000000000000000000010000000000000000000000000000000000000000000000000000000000000010000000000000000000000000000000000000000004000000000000000000000000000020000000002000000800000008000000000000000000000080000000000000020000000000000000000000000000000000000000000000000000000000000000000",
      "type": "0x2",
      "transactionHash": "0xfbfb412f83227f0144ea7d12b3126f11fd8673573ec8914d347923eb373c686d",
      "transactionIndex": "0x93",
      "blockHash": "0x0dc969d64c6ca8f69f5a42f91c700350464ee2a0e8aed5329e5e3346e8677d32",
      "blockNumber": "0x724dad",
      "gasUsed": "0xf82c",
      "effectiveGasPrice": "0x3d319a3b8",
      "from": "0xc77f7fed3b5cc8249adc428c5f44c9063b9734b4",
      "to": "0x5eb9cc76c3506942c1c0ead70e877dd5e4f00cb0",
      "contractAddress": null
    }
  ],
  "libraries": [],
  "pending": [],
  "returns": {},
  "timestamp": 1736873425,
  "chain": 11155111,
  "commit": "51a374b"
}