{
  "transactions": [
    {
      "hash": "0xbe53fe3eaabdc5ccbe43170abd0e831db0573b1b0e1fd17a7f1238065d577972",
      "transactionType": "CALL",
      "contractName": null,
      "contractAddress": "0xe93f70b8bb6a93b541486e71b973dfa459ec131b",
      "function": "buy(address)",
      "arguments": [
        "0xC77f7fed3b5Cc8249aDc428c5F44C9063B9734b4"
      ],
      "transaction": {
        "from": "0xc77f7fed3b5cc8249adc428c5f44c9063b9734b4",
        "to": "0xe93f70b8bb6a93b541486e71b973dfa459ec131b",
        "gas": "0x1b2c8",
        "value": "0xde0b6b3a7640000",
        "input": "0xf088d547000000000000000000000000c77f7fed3b5cc8249adc428c5f44c9063b9734b4",
        "nonce": "0x17c6",
        "chainId": "0xaa36a7"
      },
      "additionalContracts": [],
      "isFixedGasLimit": false
    },
    {
      "hash": "0x766c376c54c4ed3c9ed86d942fd2ee20b9a07b12570ab1f0a4ffc944f3f585e0",
      "transactionType": "CALL",
      "contractName": null,
      "contractAddress": "0xe93f70b8bb6a93b541486e71b973dfa459ec131b",
      "function": "liquidate()",
      "arguments": [],
      "transaction": {
        "from": "0xc77f7fed3b5cc8249adc428c5f44c9063b9734b4",
        "to": "0xe93f70b8bb6a93b541486e71b973dfa459ec131b",
        "gas": "0x8705",
        "value": "0x0",
        "input": "0x28a07025",
        "nonce": "0x17c7",
        "chainId": "0xaa36a7"
      },
      "additionalContracts": [],
      "isFixedGasLimit": false
    }
  ],
  "receipts": [
    {
      "status": "0x1",
      "cumulativeGasUsed": "0x6ba40b",
      "logs": [
        {
          "address": "0xe93f70b8bb6a93b541486e71b973dfa459ec131b",
          "topics": [
            "0xddf252ad1be2c89b69c2b068fc378daa952ba7f163c4a11628f55a4df523b3ef",
            "0x0000000000000000000000000000000000000000000000000000000000000000",
            "0x000000000000000000000000c77f7fed3b5cc8249adc428c5f44c9063b9734b4"
          ],
          "data": "0x000000000000000000000000000000000000000000000035ab028ac154c71b30",
          "blockHash": "0x1347491abf1802c0d46e08fecae380211589848573366582051e9bfe3e63736c",
          "blockNumber": "0x7349fa",
          "transactionHash": "0xbe53fe3eaabdc5ccbe43170abd0e831db0573b1b0e1fd17a7f1238065d577972",
          "transactionIndex": "0x55",
          "logIndex": "0x6e",
          "removed": false
        },
        {
          "address": "0xe93f70b8bb6a93b541486e71b973dfa459ec131b",
          "topics": [
            "0xddf252ad1be2c89b69c2b068fc378daa952ba7f163c4a11628f55a4df523b3ef",
            "0x0000000000000000000000000000000000000000000000000000000000000000",
            "0x000000000000000000000000c77f7fed3b5cc8249adc428c5f44c9063b9734b4"
          ],
          "data": "0x00000000000000000000000000000000000000000000000029accf52156cec36",
          "blockHash": "0x1347491abf1802c0d46e08fecae380211589848573366582051e9bfe3e63736c",
          "blockNumber": "0x7349fa",
          "transactionHash": "0xbe53fe3eaabdc5ccbe43170abd0e831db0573b1b0e1fd17a7f1238065d577972",
          "transactionIndex": "0x55",
          "logIndex": "0x6f",
          "removed": false
        },
        {
          "address": "0xe93f70b8bb6a93b541486e71b973dfa459ec131b",
          "topics": [
            "0x4afcb4a87cdbd9974efdb92ee48bc8d7cd0ae4bf217004db3d080cbaee652ca7"
          ],
          "data": "0x00000000000000000000000000000000000000000000000000000000679283a0000000000000000000000000000000000000000000000000000393d6e1a1f5be0000000000000000000000000000000000000000000000000de0b6b3a7640000",
          "blockHash": "0x1347491abf1802c0d46e08fecae380211589848573366582051e9bfe3e63736c",
          "blockNumber": "0x7349fa",
          "transactionHash": "0xbe53fe3eaabdc5ccbe43170abd0e831db0573b1b0e1fd17a7f1238065d577972",
          "transactionIndex": "0x55",
          "logIndex": "0x70",
          "removed": false
        }
      ],
      "logsBloom": "0x00000000000000000000000000000000000000000000000000000000000000000000000000000000000000000000000000000000000000004000000000000000000000000000000000000008000000000000000000000000000000000000000000000000020000000000000000000800020000000000000000000010000000000000000000000000000000000000000000000000000000000000010000000000000000000000000080000000000000004000000000000000000000000000000040000002000000800000000800000000000000000000080000000000000020000000000000000000000000000000000000000000000000000000000000000000",
      "type": "0x2",
      "transactionHash": "0xbe53fe3eaabdc5ccbe43170abd0e831db0573b1b0e1fd17a7f1238065d577972",
      "transactionIndex": "0x55",
      "blockHash": "0x1347491abf1802c0d46e08fecae380211589848573366582051e9bfe3e63736c",
      "blockNumber": "0x7349fa",
      "gasUsed": "0x13ac7",
      "effectiveGasPrice": "0x70507c81c",
      "from": "0xc77f7fed3b5cc8249adc428c5f44c9063b9734b4",
      "to": "0xe93f70b8bb6a93b541486e71b973dfa459ec131b",
      "contractAddress": null
    },
    {
      "status": "0x1",
      "cumulativeGasUsed": "0x6c005e",
      "logs": [],
      "logsBloom": "0x00000000000000000000000000000000000000000000000000000000000000000000000000000000000000000000000000000000000000000000000000000000000000000000000000000000000000000000000000000000000000000000000000000000000000000000000000000000000000000000000000000000000000000000000000000000000000000000000000000000000000000000000000000000000000000000000000000000000000000000000000000000000000000000000000000000000000000000000000000000000000000000000000000000000000000000000000000000000000000000000000000000000000000000000000000000",
      "type": "0x2",
      "transactionHash": "0x766c376c54c4ed3c9ed86d942fd2ee20b9a07b12570ab1f0a4ffc944f3f585e0",
      "transactionIndex": "0x56",
      "blockHash": "0x1347491abf1802c0d46e08fecae380211589848573366582051e9bfe3e63736c",
      "blockNumber": "0x7349fa",
      "gasUsed": "0x5c53",
      "effectiveGasPrice": "0x70507c81c",
      "from": "0xc77f7fed3b5cc8249adc428c5f44c9063b9734b4",
      "to": "0xe93f70b8bb6a93b541486e71b973dfa459ec131b",
      "contractAddress": null
    }
  ],
  "libraries": [],
  "pending": [],
  "returns": {},
  "timestamp": 1737655201,
  "chain": 11155111,
  "commit": "f5162e9"
}