{
  "transactions": [
    {
      "hash": "0x8b5af50e9da3d62b54d40e966ebf70cb4a91331eaa0e4f424c21c9f329993bcc",
      "transactionType": "CALL",
      "contractName": null,
      "contractAddress": "0x8aafd3ede9adb0ff97c7aebce82a919afb1c8764",
      "function": "sell(uint256)",
      "arguments": [
        "11380"
      ],
      "transaction": {
        "from": "0xc77f7fed3b5cc8249adc428c5f44c9063b9734b4",
        "to": "0x8aafd3ede9adb0ff97c7aebce82a919afb1c8764",
        "gas": "0x14e4c",
        "value": "0x0",
        "input": "0xe4849b320000000000000000000000000000000000000000000000000000000000002c74",
        "nonce": "0x121f",
        "chainId": "0xaa36a7"
      },
      "additionalContracts": [],
      "isFixedGasLimit": false
    }
  ],
  "receipts": [
    {
      "status": "0x1",
      "cumulativeGasUsed": "0xaa9f2b",
      "logs": [
        {
          "address": "0x8aafd3ede9adb0ff97c7aebce82a919afb1c8764",
          "topics": [
            "0xddf252ad1be2c89b69c2b068fc378daa952ba7f163c4a11628f55a4df523b3ef",
            "0x000000000000000000000000c77f7fed3b5cc8249adc428c5f44c9063b9734b4",
            "0x0000000000000000000000000000000000000000000000000000000000000000"
          ],
          "data": "0x0000000000000000000000000000000000000000000000000000000000002c19",
          "blockHash": "0xdf177ddd3d9dbab0d771f89b7db6236016a8fad8f937d57996c4780ea71dcf1f",
          "blockNumber": "0x7318fb",
          "transactionHash": "0x8b5af50e9da3d62b54d40e966ebf70cb4a91331eaa0e4f424c21c9f329993bcc",
          "transactionIndex": "0x7e",
          "logIndex": "0xb8",
          "removed": false
        },
        {
          "address": "0x8aafd3ede9adb0ff97c7aebce82a919afb1c8764",
          "topics": [
            "0xddf252ad1be2c89b69c2b068fc378daa952ba7f163c4a11628f55a4df523b3ef",
            "0x000000000000000000000000c77f7fed3b5cc8249adc428c5f44c9063b9734b4",
            "0x000000000000000000000000c77f7fed3b5cc8249adc428c5f44c9063b9734b4"
          ],
          "data": "0x000000000000000000000000000000000000000000000000000000000000005b",
          "blockHash": "0xdf177ddd3d9dbab0d771f89b7db6236016a8fad8f937d57996c4780ea71dcf1f",
          "blockNumber": "0x7318fb",
          "transactionHash": "0x8b5af50e9da3d62b54d40e966ebf70cb4a91331eaa0e4f424c21c9f329993bcc",
          "transactionIndex": "0x7e",
          "logIndex": "0xb9",
          "removed": false
        },
        {
          "address": "0x8aafd3ede9adb0ff97c7aebce82a919afb1c8764",
          "topics": [
            "0x4afcb4a87cdbd9974efdb92ee48bc8d7cd0ae4bf217004db3d080cbaee652ca7"
          ],
          "data": "0x0000000000000000000000000000000000000000000000000000000067902894000000000000000000000000000000000000000000000000000534d691123c120000000000000000000000000000000000000000000000000000000000000010",
          "blockHash": "0xdf177ddd3d9dbab0d771f89b7db6236016a8fad8f937d57996c4780ea71dcf1f",
          "blockNumber": "0x7318fb",
          "transactionHash": "0x8b5af50e9da3d62b54d40e966ebf70cb4a91331eaa0e4f424c21c9f329993bcc",
          "transactionIndex": "0x7e",
          "logIndex": "0xba",
          "removed": false
        }
      ],
      "logsBloom": "0x00000000000000000000000000000000000000000600000000000000000000000000000000000000000000000000000000000000000000004000000000000000000000000000004000000008000000000000000000000000000000000000000000000000020000000000000000000800020000000000000000000010000000000000000000000000000000000000000000000000000000000000010000000000000000000000000000000000000000004000000000000000000000000000000000000002000000800000000000000000000000000000080000000000000020000000000000000000000000000000000000000000000000000000000000000000",
      "type": "0x2",
      "transactionHash": "0x8b5af50e9da3d62b54d40e966ebf70cb4a91331eaa0e4f424c21c9f329993bcc",
      "transactionIndex": "0x7e",
      "blockHash": "0xdf177ddd3d9dbab0d771f89b7db6236016a8fad8f937d57996c4780ea71dcf1f",
      "blockNumber": "0x7318fb",
      "gasUsed": "0xf207",
      "effectiveGasPrice": "0x48fa19c5",
      "from": "0xc77f7fed3b5cc8249adc428c5f44c9063b9734b4",
      "to": "0x8aafd3ede9adb0ff97c7aebce82a919afb1c8764",
      "contractAddress": null
    }
  ],
  "libraries": [],
  "pending": [],
  "returns": {},
  "timestamp": 1737500822,
  "chain": 11155111,
  "commit": "1d2fb70"
}