{
  "transactions": [
    {
      "hash": "0xd1e06e9e6cd5ec883f8d7ae09a41b646728f73b4bcb6e0b0f0e8f9a5c0109473",
      "transactionType": "CALL",
      "contractName": null,
      "contractAddress": "0x8aafd3ede9adb0ff97c7aebce82a919afb1c8764",
      "function": "sell(uint256)",
      "arguments": [
        "87931545914136"
      ],
      "transaction": {
        "from": "0xc77f7fed3b5cc8249adc428c5f44c9063b9734b4",
        "to": "0x8aafd3ede9adb0ff97c7aebce82a919afb1c8764",
        "gas": "0x15daa",
        "value": "0x0",
        "input": "0xe4849b3200000000000000000000000000000000000000000000000000004ff9288f0b18",
        "nonce": "0x1634",
        "chainId": "0xaa36a7"
      },
      "additionalContracts": [],
      "isFixedGasLimit": false
    }
  ],
  "receipts": [
    {
      "status": "0x1",
      "cumulativeGasUsed": "0x9577c3",
      "logs": [
        {
          "address": "0x8aafd3ede9adb0ff97c7aebce82a919afb1c8764",
          "topics": [
            "0xddf252ad1be2c89b69c2b068fc378daa952ba7f163c4a11628f55a4df523b3ef",
            "0x000000000000000000000000c77f7fed3b5cc8249adc428c5f44c9063b9734b4",
            "0x0000000000000000000000000000000000000000000000000000000000000000"
          ],
          "data": "0x00000000000000000000000000000000000000000000000000004f555f87c147",
          "blockHash": "0x14d2f36d0de56630df1a2a61e28214f46f7e1c6929190ace5df8395fe9c66c02",
          "blockNumber": "0x731dcc",
          "transactionHash": "0xd1e06e9e6cd5ec883f8d7ae09a41b646728f73b4bcb6e0b0f0e8f9a5c0109473",
          "transactionIndex": "0x72",
          "logIndex": "0xa6",
          "removed": false
        },
        {
          "address": "0x8aafd3ede9adb0ff97c7aebce82a919afb1c8764",
          "topics": [
            "0xddf252ad1be2c89b69c2b068fc378daa952ba7f163c4a11628f55a4df523b3ef",
            "0x000000000000000000000000c77f7fed3b5cc8249adc428c5f44c9063b9734b4",
            "0x000000000000000000000000c77f7fed3b5cc8249adc428c5f44c9063b9734b4"
          ],
          "data": "0x000000000000000000000000000000000000000000000000000000a3c90749d1",
          "blockHash": "0x14d2f36d0de56630df1a2a61e28214f46f7e1c6929190ace5df8395fe9c66c02",
          "blockNumber": "0x731dcc",
          "transactionHash": "0xd1e06e9e6cd5ec883f8d7ae09a41b646728f73b4bcb6e0b0f0e8f9a5c0109473",
          "transactionIndex": "0x72",
          "logIndex": "0xa7",
          "removed": false
        },
        {
          "address": "0x8aafd3ede9adb0ff97c7aebce82a919afb1c8764",
          "topics": [
            "0x4afcb4a87cdbd9974efdb92ee48bc8d7cd0ae4bf217004db3d080cbaee652ca7"
          ],
          "data": "0x00000000000000000000000000000000000000000000000000000000679062780000000000000000000000000000000000000000000000000014a5777f7eb2e400000000000000000000000000000000000000000000000000000076fa76929c",
          "blockHash": "0x14d2f36d0de56630df1a2a61e28214f46f7e1c6929190ace5df8395fe9c66c02",
          "blockNumber": "0x731dcc",
          "transactionHash": "0xd1e06e9e6cd5ec883f8d7ae09a41b646728f73b4bcb6e0b0f0e8f9a5c0109473",
          "transactionIndex": "0x72",
          "logIndex": "0xa8",
          "removed": false
        }
      ],
      "logsBloom": "0x00000000000000000000000000000000000000000600000000000000000000000000000000000000000000000000000000000000000000004000000000000000000000000000004000000008000000000000000000000000000000000000000000000000020000000000000000000800020000000000000000000010000000000000000000000000000000000000000000000000000000000000010000000000000000000000000000000000000000004000000000000000000000000000000000000002000000800000000000000000000000000000080000000000000020000000000000000000000000000000000000000000000000000000000000000000",
      "type": "0x2",
      "transactionHash": "0xd1e06e9e6cd5ec883f8d7ae09a41b646728f73b4bcb6e0b0f0e8f9a5c0109473",
      "transactionIndex": "0x72",
      "blockHash": "0x14d2f36d0de56630df1a2a61e28214f46f7e1c6929190ace5df8395fe9c66c02",
      "blockNumber": "0x731dcc",
      "gasUsed": "0xfd27",
      "effectiveGasPrice": "0x5b161801",
      "from": "0xc77f7fed3b5cc8249adc428c5f44c9063b9734b4",
      "to": "0x8aafd3ede9adb0ff97c7aebce82a919afb1c8764",
      "contractAddress": null
    }
  ],
  "libraries": [],
  "pending": [],
  "returns": {},
  "timestamp": 1737515641,
  "chain": 11155111,
  "commit": "1d2fb70"
}