{
  "transactions": [
    {
      "hash": "0xe6a140b32a32121b30f81026fa347f2854fb535387a4299ef3e75d6708335175",
      "transactionType": "CALL",
      "contractName": null,
      "contractAddress": "0xbf4a322f1496e5c3d34a9bcdb4c60567b38c7de2",
      "function": "buy(address)",
      "arguments": [
        "0xC77f7fed3b5Cc8249aDc428c5F44C9063B9734b4"
      ],
      "transaction": {
        "from": "0xc77f7fed3b5cc8249adc428c5f44c9063b9734b4",
        "to": "0xbf4a322f1496e5c3d34a9bcdb4c60567b38c7de2",
        "gas": "0x1b309",
        "value": "0xde0b6b3a7640000",
        "input": "0xf088d547000000000000000000000000c77f7fed3b5cc8249adc428c5f44c9063b9734b4",
        "nonce": "0xaa2",
        "chainId": "0xaa36a7"
      },
      "additionalContracts": [],
      "isFixedGasLimit": false
    }
  ],
  "receipts": [
    {
      "status": "0x1",
      "cumulativeGasUsed": "0x1c2dbe8",
      "logs": [
        {
          "address": "0xbf4a322f1496e5c3d34a9bcdb4c60567b38c7de2",
          "topics": [
            "0xddf252ad1be2c89b69c2b068fc378daa952ba7f163c4a11628f55a4df523b3ef",
            "0x0000000000000000000000000000000000000000000000000000000000000000",
            "0x000000000000000000000000c77f7fed3b5cc8249adc428c5f44c9063b9734b4"
          ],
          "data": "0x0000000000000000000000000000000000000000000000353cbd5fa70f7ffa72",
          "blockHash": "0x876ed33a8500dd67323fdcef8e6e1e420fe2589816da1551c55857f1234f9bed",
          "blockNumber": "0x725a8b",
          "transactionHash": "0xe6a140b32a32121b30f81026fa347f2854fb535387a4299ef3e75d6708335175",
          "transactionIndex": "0xf9",
          "logIndex": "0x1a8",
          "removed": false
        },
        {
          "address": "0xbf4a322f1496e5c3d34a9bcdb4c60567b38c7de2",
          "topics": [
            "0xddf252ad1be2c89b69c2b068fc378daa952ba7f163c4a11628f55a4df523b3ef",
            "0x0000000000000000000000000000000000000000000000000000000000000000",
            "0x000000000000000000000000c77f7fed3b5cc8249adc428c5f44c9063b9734b4"
          ],
          "data": "0x00000000000000000000000000000000000000000000000029572e6893ee1fc6",
          "blockHash": "0x876ed33a8500dd67323fdcef8e6e1e420fe2589816da1551c55857f1234f9bed",
          "blockNumber": "0x725a8b",
          "transactionHash": "0xe6a140b32a32121b30f81026fa347f2854fb535387a4299ef3e75d6708335175",
          "transactionIndex": "0xf9",
          "logIndex": "0x1a9",
          "removed": false
        },
        {
          "address": "0xbf4a322f1496e5c3d34a9bcdb4c60567b38c7de2",
          "topics": [
            "0x4afcb4a87cdbd9974efdb92ee48bc8d7cd0ae4bf217004db3d080cbaee652ca7"
          ],
          "data": "0x00000000000000000000000000000000000000000000000000000000678730d4000000000000000000000000000000000000000000000000000394dcce3d10850000000000000000000000000000000000000000000000000de0b6b3a7640000",
          "blockHash": "0x876ed33a8500dd67323fdcef8e6e1e420fe2589816da1551c55857f1234f9bed",
          "blockNumber": "0x725a8b",
          "transactionHash": "0xe6a140b32a32121b30f81026fa347f2854fb535387a4299ef3e75d6708335175",
          "transactionIndex": "0xf9",
          "logIndex": "0x1aa",
          "removed": false
        }
      ],
      "logsBloom": "0x00000000000000000000000000000000000000000000000000000000000000000000000000000000000000000000000000000000000000004000000000000000000000000000000000000008000000000000001000000000000000000000000000000000020000000000000000000800020000000000000000000010000000000000000000000000000000000000000000000000000008000000010000000000000000000000000000000000000000004000000000000000000000000000000000000002000000800000000000001000000000000000080000000000000020000000000000000000000000000000000000000000000000000000000000000000",
      "type": "0x2",
      "transactionHash": "0xe6a140b32a32121b30f81026fa347f2854fb535387a4299ef3e75d6708335175",
      "transactionIndex": "0xf9",
      "blockHash": "0x876ed33a8500dd67323fdcef8e6e1e420fe2589816da1551c55857f1234f9bed",
      "blockNumber": "0x725a8b",
      "gasUsed": "0x13af6",
      "effectiveGasPrice": "0x19a43e3f4",
      "from": "0xc77f7fed3b5cc8249adc428c5f44c9063b9734b4",
      "to": "0xbf4a322f1496e5c3d34a9bcdb4c60567b38c7de2",
      "contractAddress": null
    }
  ],
  "libraries": [],
  "pending": [],
  "returns": {},
  "timestamp": 1736913109,
  "chain": 11155111,
  "commit": "51a374b"
}