{
  "transactions": [
    {
      "hash": "0xb49c40c482e20542abd0b355b91db8c465d49b899d7489956b799d6d9697095a",
      "transactionType": "CALL",
      "contractName": null,
      "contractAddress": "0xbf4a322f1496e5c3d34a9bcdb4c60567b38c7de2",
      "function": "sell(uint256)",
      "arguments": [
        "987480823571088628645"
      ],
      "transaction": {
        "from": "0xc77f7fed3b5cc8249adc428c5f44c9063b9734b4",
        "to": "0xbf4a322f1496e5c3d34a9bcdb4c60567b38c7de2",
        "gas": "0x16fea",
        "value": "0x0",
        "input": "0xe4849b32000000000000000000000000000000000000000000000035880ca123e8eb5ba5",
        "nonce": "0x9ef",
        "chainId": "0xaa36a7"
      },
      "additionalContracts": [],
      "isFixedGasLimit": false
    }
  ],
  "receipts": [
    {
      "status": "0x1",
      "cumulativeGasUsed": "0x11074f6",
      "logs": [
        {
          "address": "0xbf4a322f1496e5c3d34a9bcdb4c60567b38c7de2",
          "topics": [
            "0xddf252ad1be2c89b69c2b068fc378daa952ba7f163c4a11628f55a4df523b3ef",
            "0x000000000000000000000000c77f7fed3b5cc8249adc428c5f44c9063b9734b4",
            "0x0000000000000000000000000000000000000000000000000000000000000000"
          ],
          "data": "0x000000000000000000000000000000000000000000000035880ca123e8eb5ba5",
          "blockHash": "0xba44692e8c4f37bd1dc28fb29dc46ac4550621fecc992a98fc1180f56ce8a3c0",
          "blockNumber": "0x7259a4",
          "transactionHash": "0xb49c40c482e20542abd0b355b91db8c465d49b899d7489956b799d6d9697095a",
          "transactionIndex": "0x61",
          "logIndex": "0x8e",
          "removed": false
        },
        {
          "address": "0xbf4a322f1496e5c3d34a9bcdb4c60567b38c7de2",
          "topics": [
            "0x4afcb4a87cdbd9974efdb92ee48bc8d7cd0ae4bf217004db3d080cbaee652ca7"
          ],
          "data": "0x00000000000000000000000000000000000000000000000000000000678725e80000000000000000000000000000000000000000000000000003929b241d720b0000000000000000000000000000000000000000000000000dc7e3f37593cc4f",
          "blockHash": "0xba44692e8c4f37bd1dc28fb29dc46ac4550621fecc992a98fc1180f56ce8a3c0",
          "blockNumber": "0x7259a4",
          "transactionHash": "0xb49c40c482e20542abd0b355b91db8c465d49b899d7489956b799d6d9697095a",
          "transactionIndex": "0x61",
          "logIndex": "0x8f",
          "removed": false
        }
      ],
      "logsBloom": "0x00000000000000000000000000000000000000000000000000000000000000000000000000000000000000000000000000000000000000004000000000000000000000000000000000000008000000000000001000000000000000000000000000000000020000000000000000000800020000000000000000000010000000000000000000000000000000000000000000000000000008000000010000000000000000000000000000000000000000004000000000000000000000000000000000000002000000800000000000001000000000000000080000000000000020000000000000000000000000000000000000000000000000000000000000000000",
      "type": "0x2",
      "transactionHash": "0xb49c40c482e20542abd0b355b91db8c465d49b899d7489956b799d6d9697095a",
      "transactionIndex": "0x61",
      "blockHash": "0xba44692e8c4f37bd1dc28fb29dc46ac4550621fecc992a98fc1180f56ce8a3c0",
      "blockNumber": "0x7259a4",
      "gasUsed": "0xfb91",
      "effectiveGasPrice": "0x295d9cb19",
      "from": "0xc77f7fed3b5cc8249adc428c5f44c9063b9734b4",
      "to": "0xbf4a322f1496e5c3d34a9bcdb4c60567b38c7de2",
      "contractAddress": null
    }
  ],
  "libraries": [],
  "pending": [],
  "returns": {},
  "timestamp": 1736910314,
  "chain": 11155111,
  "commit": "51a374b"
}