{
  "transactions": [
    {
      "hash": "0xe7f1c4f076d9cb61fbe96c1c8a40c2b1b4cf70624035fe915becdb06e57bdd3c",
      "transactionType": "CALL",
      "contractName": null,
      "contractAddress": "0x8aafd3ede9adb0ff97c7aebce82a919afb1c8764",
      "function": "sell(uint256)",
      "arguments": [
        "42395612432063426"
      ],
      "transaction": {
        "from": "0xc77f7fed3b5cc8249adc428c5f44c9063b9734b4",
        "to": "0x8aafd3ede9adb0ff97c7aebce82a919afb1c8764",
        "gas": "0x1724d",
        "value": "0x0",
        "input": "0xe4849b3200000000000000000000000000000000000000000000000000969e95bb0c5bc2",
        "nonce": "0x12f5",
        "chainId": "0xaa36a7"
      },
      "additionalContracts": [],
      "isFixedGasLimit": false
    }
  ],
  "receipts": [
    {
      "status": "0x1",
      "cumulativeGasUsed": "0x9ca90a",
      "logs": [
        {
          "address": "0x8aafd3ede9adb0ff97c7aebce82a919afb1c8764",
          "topics": [
            "0xddf252ad1be2c89b69c2b068fc378daa952ba7f163c4a11628f55a4df523b3ef",
            "0x000000000000000000000000c77f7fed3b5cc8249adc428c5f44c9063b9734b4",
            "0x0000000000000000000000000000000000000000000000000000000000000000"
          ],
          "data": "0x00000000000000000000000000000000000000000000000000956a1dbfb225c7",
          "blockHash": "0x4b5c5c847dc83fd143c4bfb9c184ef21125d7812d6384034f27aa861d6aa2f26",
          "blockNumber": "0x7319fa",
          "transactionHash": "0xe7f1c4f076d9cb61fbe96c1c8a40c2b1b4cf70624035fe915becdb06e57bdd3c",
          "transactionIndex": "0x6d",
          "logIndex": "0x71",
          "removed": false
        },
        {
          "address": "0x8aafd3ede9adb0ff97c7aebce82a919afb1c8764",
          "topics": [
            "0xddf252ad1be2c89b69c2b068fc378daa952ba7f163c4a11628f55a4df523b3ef",
            "0x000000000000000000000000c77f7fed3b5cc8249adc428c5f44c9063b9734b4",
            "0x000000000000000000000000c77f7fed3b5cc8249adc428c5f44c9063b9734b4"
          ],
          "data": "0x00000000000000000000000000000000000000000000000000013477fb5a35fb",
          "blockHash": "0x4b5c5c847dc83fd143c4bfb9c184ef21125d7812d6384034f27aa861d6aa2f26",
          "blockNumber": "0x7319fa",
          "transactionHash": "0xe7f1c4f076d9cb61fbe96c1c8a40c2b1b4cf70624035fe915becdb06e57bdd3c",
          "transactionIndex": "0x6d",
          "logIndex": "0x72",
          "removed": false
        },
        {
          "address": "0x8aafd3ede9adb0ff97c7aebce82a919afb1c8764",
          "topics": [
            "0x4afcb4a87cdbd9974efdb92ee48bc8d7cd0ae4bf217004db3d080cbaee652ca7"
          ],
          "data": "0x0000000000000000000000000000000000000000000000000000000067903488000000000000000000000000000000000000000000000000000554cfa801c032000000000000000000000000000000000000000000000000000039dcac2abb56",
          "blockHash": "0x4b5c5c847dc83fd143c4bfb9c184ef21125d7812d6384034f27aa861d6aa2f26",
          "blockNumber": "0x7319fa",
          "transactionHash": "0xe7f1c4f076d9cb61fbe96c1c8a40c2b1b4cf70624035fe915becdb06e57bdd3c",
          "transactionIndex": "0x6d",
          "logIndex": "0x73",
          "removed": false
        }
      ],
      "logsBloom": "0x00000000000000000000000000000000000000000600000000000000000000000000000000000000000000000000000000000000000000004000000000000000000000000000004000000008000000000000000000000000000000000000000000000000020000000000000000000800020000000000000000000010000000000000000000000000000000000000000000000000000000000000010000000000000000000000000000000000000000004000000000000000000000000000000000000002000000800000000000000000000000000000080000000000000020000000000000000000000000000000000000000000000000000000000000000000",
      "type": "0x2",
      "transactionHash": "0xe7f1c4f076d9cb61fbe96c1c8a40c2b1b4cf70624035fe915becdb06e57bdd3c",
      "transactionIndex": "0x6d",
      "blockHash": "0x4b5c5c847dc83fd143c4bfb9c184ef21125d7812d6384034f27aa861d6aa2f26",
      "blockNumber": "0x7319fa",
      "gasUsed": "0xfd33",
      "effectiveGasPrice": "0x478116e8",
      "from": "0xc77f7fed3b5cc8249adc428c5f44c9063b9734b4",
      "to": "0x8aafd3ede9adb0ff97c7aebce82a919afb1c8764",
      "contractAddress": null
    }
  ],
  "libraries": [],
  "pending": [],
  "returns": {},
  "timestamp": 1737503881,
  "chain": 11155111,
  "commit": "1d2fb70"
}