{
  "transactions": [
    {
      "hash": "0xbd7e4b193d8f655d426ddc13b017f7be5b0870e4b999f2980dab4e3ab2605e86",
      "transactionType": "CALL",
      "contractName": null,
      "contractAddress": "0x8aafd3ede9adb0ff97c7aebce82a919afb1c8764",
      "function": "sell(uint256)",
      "arguments": [
        "1570326"
      ],
      "transaction": {
        "from": "0xc77f7fed3b5cc8249adc428c5f44c9063b9734b4",
        "to": "0x8aafd3ede9adb0ff97c7aebce82a919afb1c8764",
        "gas": "0x16208",
        "value": "0x0",
        "input": "0xe4849b32000000000000000000000000000000000000000000000000000000000017f616",
        "nonce": "0xe8f",
        "chainId": "0xaa36a7"
      },
      "additionalContracts": [],
      "isFixedGasLimit": false
    }
  ],
  "receipts": [
    {
      "status": "0x1",
      "cumulativeGasUsed": "0xbbacb8",
      "logs": [
        {
          "address": "0x8aafd3ede9adb0ff97c7aebce82a919afb1c8764",
          "topics": [
            "0xddf252ad1be2c89b69c2b068fc378daa952ba7f163c4a11628f55a4df523b3ef",
            "0x000000000000000000000000c77f7fed3b5cc8249adc428c5f44c9063b9734b4",
            "0x0000000000000000000000000000000000000000000000000000000000000000"
          ],
          "data": "0x000000000000000000000000000000000000000000000000000000000017c504",
          "blockHash": "0x64ee6e7e99ea9044ff82a425fac40b11a8ff223d8329f17553121437d774c224",
          "blockNumber": "0x7313ec",
          "transactionHash": "0xbd7e4b193d8f655d426ddc13b017f7be5b0870e4b999f2980dab4e3ab2605e86",
          "transactionIndex": "0x90",
          "logIndex": "0xbf",
          "removed": false
        },
        {
          "address": "0x8aafd3ede9adb0ff97c7aebce82a919afb1c8764",
          "topics": [
            "0xddf252ad1be2c89b69c2b068fc378daa952ba7f163c4a11628f55a4df523b3ef",
            "0x000000000000000000000000c77f7fed3b5cc8249adc428c5f44c9063b9734b4",
            "0x000000000000000000000000c77f7fed3b5cc8249adc428c5f44c9063b9734b4"
          ],
          "data": "0x0000000000000000000000000000000000000000000000000000000000003112",
          "blockHash": "0x64ee6e7e99ea9044ff82a425fac40b11a8ff223d8329f17553121437d774c224",
          "blockNumber": "0x7313ec",
          "transactionHash": "0xbd7e4b193d8f655d426ddc13b017f7be5b0870e4b999f2980dab4e3ab2605e86",
          "transactionIndex": "0x90",
          "logIndex": "0xc0",
          "removed": false
        },
        {
          "address": "0x8aafd3ede9adb0ff97c7aebce82a919afb1c8764",
          "topics": [
            "0x4afcb4a87cdbd9974efdb92ee48bc8d7cd0ae4bf217004db3d080cbaee652ca7"
          ],
          "data": "0x00000000000000000000000000000000000000000000000000000000678feba40000000000000000000000000000000000000000000000000004b689478112840000000000000000000000000000000000000000000000000000000000000823",
          "blockHash": "0x64ee6e7e99ea9044ff82a425fac40b11a8ff223d8329f17553121437d774c224",
          "blockNumber": "0x7313ec",
          "transactionHash": "0xbd7e4b193d8f655d426ddc13b017f7be5b0870e4b999f2980dab4e3ab2605e86",
          "transactionIndex": "0x90",
          "logIndex": "0xc1",
          "removed": false
        }
      ],
      "logsBloom": "0x00000000000000000000000000000000000000000600000000000000000000000000000000000000000000000000000000000000000000004000000000000000000000000000004000000008000000000000000000000000000000000000000000000000020000000000000000000800020000000000000000000010000000000000000000000000000000000000000000000000000000000000010000000000000000000000000000000000000000004000000000000000000000000000000000000002000000800000000000000000000000000000080000000000000020000000000000000000000000000000000000000000000000000000000000000000",
      "type": "0x2",
      "transactionHash": "0xbd7e4b193d8f655d426ddc13b017f7be5b0870e4b999f2980dab4e3ab2605e86",
      "transactionIndex": "0x90",
      "blockHash": "0x64ee6e7e99ea9044ff82a425fac40b11a8ff223d8329f17553121437d774c224",
      "blockNumber": "0x7313ec",
      "gasUsed": "0xf213",
      "effectiveGasPrice": "0x8192a636",
      "from": "0xc77f7fed3b5cc8249adc428c5f44c9063b9734b4",
      "to": "0x8aafd3ede9adb0ff97c7aebce82a919afb1c8764",
      "contractAddress": null
    }
  ],
  "libraries": [],
  "pending": [],
  "returns": {},
  "timestamp": 1737485222,
  "chain": 11155111,
  "commit": "51a374b"
}