{
  "transactions": [
    {
      "hash": "0x8584feb5d255983eebb6880ec561fe11e2aa526b4ae285974385679071fa5083",
      "transactionType": "CALL",
      "contractName": null,
      "contractAddress": "0x5eb9cc76c3506942c1c0ead70e877dd5e4f00cb0",
      "function": "sell(uint256)",
      "arguments": [
        "989617312406677497888"
      ],
      "transaction": {
        "from": "0xc77f7fed3b5cc8249adc428c5f44c9063b9734b4",
        "to": "0x5eb9cc76c3506942c1c0ead70e877dd5e4f00cb0",
        "gas": "0x16fec",
        "value": "0x0",
        "input": "0xe4849b32000000000000000000000000000000000000000000000035a5b2f66aa8c82820",
        "nonce": "0x241",
        "chainId": "0xaa36a7"
      },
      "additionalContracts": [],
      "isFixedGasLimit": false
    }
  ],
  "receipts": [
    {
      "status": "0x1",
      "cumulativeGasUsed": "0xcd2f75",
      "logs": [
        {
          "address": "0x5eb9cc76c3506942c1c0ead70e877dd5e4f00cb0",
          "topics": [
            "0xddf252ad1be2c89b69c2b068fc378daa952ba7f163c4a11628f55a4df523b3ef",
            "0x000000000000000000000000c77f7fed3b5cc8249adc428c5f44c9063b9734b4",
            "0x0000000000000000000000000000000000000000000000000000000000000000"
          ],
          "data": "0x000000000000000000000000000000000000000000000035a5b2f66aa8c82820",
          "blockHash": "0x6c1d683c4b7a6535492d0dd678b89eab517c19f93fd7f716e0135ad4445fd459",
          "blockNumber": "0x724df8",
          "transactionHash": "0x8584feb5d255983eebb6880ec561fe11e2aa526b4ae285974385679071fa5083",
          "transactionIndex": "0x6b",
          "logIndex": "0xb9",
          "removed": false
        },
        {
          "address": "0x5eb9cc76c3506942c1c0ead70e877dd5e4f00cb0",
          "topics": [
            "0x4afcb4a87cdbd9974efdb92ee48bc8d7cd0ae4bf217004db3d080cbaee652ca7"
          ],
          "data": "0x00000000000000000000000000000000000000000000000000000000678699540000000000000000000000000000000000000000000000000003909b46f6efdc0000000000000000000000000000000000000000000000000dc7db11837ea83a",
          "blockHash": "0x6c1d683c4b7a6535492d0dd678b89eab517c19f93fd7f716e0135ad4445fd459",
          "blockNumber": "0x724df8",
          "transactionHash": "0x8584feb5d255983eebb6880ec561fe11e2aa526b4ae285974385679071fa5083",
          "transactionIndex": "0x6b",
          "logIndex": "0xba",
          "removed": false
        }
      ],
      "logsBloom": "0x00000000000000000000000000000000000000000000000000000000000000000000000000000000000000000000000000000000000000004000000000000000000000000000000000000008000000000000000000000000000000000000000000000000020000000000000004000800020000000000000000000010000000000000000000000000000000000000000000000000000000000000010000000000000000000000000000000000000000004000000000000000000000000000020000000002000000800000008000000000000000000000080000000000000020000000000000000000000000000000000000000000000000000000000000000000",
      "type": "0x2",
      "transactionHash": "0x8584feb5d255983eebb6880ec561fe11e2aa526b4ae285974385679071fa5083",
      "transactionIndex": "0x6b",
      "blockHash": "0x6c1d683c4b7a6535492d0dd678b89eab517c19f93fd7f716e0135ad4445fd459",
      "blockNumber": "0x724df8",
      "gasUsed": "0xfb93",
      "effectiveGasPrice": "0x38c87013d",
      "from": "0xc77f7fed3b5cc8249adc428c5f44c9063b9734b4",
      "to": "0x5eb9cc76c3506942c1c0ead70e877dd5e4f00cb0",
      "contractAddress": null
    }
  ],
  "libraries": [],
  "pending": [],
  "returns": {},
  "timestamp": 1736874324,
  "chain": 11155111,
  "commit": "51a374b"
}