{
  "transactions": [
    {
      "hash": "0x6b42ed3c1123fe29d4efbc66eef89318d6ea1d9b47b0528ab7fa473b6c5ce504",
      "transactionType": "CALL",
      "contractName": null,
      "contractAddress": "0x8aafd3ede9adb0ff97c7aebce82a919afb1c8764",
      "function": "sell(uint256)",
      "arguments": [
        "42018962"
      ],
      "transaction": {
        "from": "0xc77f7fed3b5cc8249adc428c5f44c9063b9734b4",
        "to": "0x8aafd3ede9adb0ff97c7aebce82a919afb1c8764",
        "gas": "0x15d88",
        "value": "0x0",
        "input": "0xe4849b320000000000000000000000000000000000000000000000000000000002812892",
        "nonce": "0x16b5",
        "chainId": "0xaa36a7"
      },
      "additionalContracts": [],
      "isFixedGasLimit": false
    }
  ],
  "receipts": [
    {
      "status": "0x1",
      "cumulativeGasUsed": "0x8708ed",
      "logs": [
        {
          "address": "0x8aafd3ede9adb0ff97c7aebce82a919afb1c8764",
          "topics": [
            "0xddf252ad1be2c89b69c2b068fc378daa952ba7f163c4a11628f55a4df523b3ef",
            "0x000000000000000000000000c77f7fed3b5cc8249adc428c5f44c9063b9734b4",
            "0x0000000000000000000000000000000000000000000000000000000000000000"
          ],
          "data": "0x00000000000000000000000000000000000000000000000000000000027c077b",
          "blockHash": "0xb5b5d39dbf7ac11cde7e3ea95882ec4c942a014c89e69b07b3d7276dea328f4b",
          "blockNumber": "0x731e6e",
          "transactionHash": "0x6b42ed3c1123fe29d4efbc66eef89318d6ea1d9b47b0528ab7fa473b6c5ce504",
          "transactionIndex": "0x55",
          "logIndex": "0x73",
          "removed": false
        },
        {
          "address": "0x8aafd3ede9adb0ff97c7aebce82a919afb1c8764",
          "topics": [
            "0xddf252ad1be2c89b69c2b068fc378daa952ba7f163c4a11628f55a4df523b3ef",
            "0x000000000000000000000000c77f7fed3b5cc8249adc428c5f44c9063b9734b4",
            "0x000000000000000000000000c77f7fed3b5cc8249adc428c5f44c9063b9734b4"
          ],
          "data": "0x0000000000000000000000000000000000000000000000000000000000052117",
          "blockHash": "0xb5b5d39dbf7ac11cde7e3ea95882ec4c942a014c89e69b07b3d7276dea328f4b",
          "blockNumber": "0x731e6e",
          "transactionHash": "0x6b42ed3c1123fe29d4efbc66eef89318d6ea1d9b47b0528ab7fa473b6c5ce504",
          "transactionIndex": "0x55",
          "logIndex": "0x74",
          "removed": false
        },
        {
          "address": "0x8aafd3ede9adb0ff97c7aebce82a919afb1c8764",
          "topics": [
            "0x4afcb4a87cdbd9974efdb92ee48bc8d7cd0ae4bf217004db3d080cbaee652ca7"
          ],
          "data": "0x0000000000000000000000000000000000000000000000000000000067906a1000000000000000000000000000000000000000000000000000161d3fd5b13db9000000000000000000000000000000000000000000000000000000000003fdaf",
          "blockHash": "0xb5b5d39dbf7ac11cde7e3ea95882ec4c942a014c89e69b07b3d7276dea328f4b",
          "blockNumber": "0x731e6e",
          "transactionHash": "0x6b42ed3c1123fe29d4efbc66eef89318d6ea1d9b47b0528ab7fa473b6c5ce504",
          "transactionIndex": "0x55",
          "logIndex": "0x75",
          "removed": false
        }
      ],
      "logsBloom": "0x00000000000000000000000000000000000000000600000000000000000000000000000000000000000000000000000000000000000000004000000000000000000000000000004000000008000000000000000000000000000000000000000000000000020000000000000000000800020000000000000000000010000000000000000000000000000000000000000000000000000000000000010000000000000000000000000000000000000000004000000000000000000000000000000000000002000000800000000000000000000000000000080000000000000020000000000000000000000000000000000000000000000000000000000000000000",
      "type": "0x2",
      "transactionHash": "0x6b42ed3c1123fe29d4efbc66eef89318d6ea1d9b47b0528ab7fa473b6c5ce504",
      "transactionIndex": "0x55",
      "blockHash": "0xb5b5d39dbf7ac11cde7e3ea95882ec4c942a014c89e69b07b3d7276dea328f4b",
      "blockNumber": "0x731e6e",
      "gasUsed": "0xfd0f",
      "effectiveGasPrice": "0x5042cebb",
      "from": "0xc77f7fed3b5cc8249adc428c5f44c9063b9734b4",
      "to": "0x8aafd3ede9adb0ff97c7aebce82a919afb1c8764",
      "contractAddress": null
    }
  ],
  "libraries": [],
  "pending": [],
  "returns": {},
  "timestamp": 1737517586,
  "chain": 11155111,
  "commit": "1d2fb70"
}