{
  "transactions": [
    {
      "hash": "0x7c03ba259cd6c2674527e243d239f8f928fc30883c5e05ee44ee9cbe4a517df1",
      "transactionType": "CALL",
      "contractName": null,
      "contractAddress": "0xbf4a322f1496e5c3d34a9bcdb4c60567b38c7de2",
      "function": "sell(uint256)",
      "arguments": [
        "982327588490503092224"
      ],
      "transaction": {
        "from": "0xc77f7fed3b5cc8249adc428c5f44c9063b9734b4",
        "to": "0xbf4a322f1496e5c3d34a9bcdb4c60567b38c7de2",
        "gas": "0x15b68",
        "value": "0x0",
        "input": "0xe4849b320000000000000000000000000000000000000000000000354088a92332897800",
        "nonce": "0xb6b",
        "chainId": "0xaa36a7"
      },
      "additionalContracts": [],
      "isFixedGasLimit": false
    }
  ],
  "receipts": [
    {
      "status": "0x1",
      "cumulativeGasUsed": "0x9c5667",
      "logs": [
        {
          "address": "0xbf4a322f1496e5c3d34a9bcdb4c60567b38c7de2",
          "topics": [
            "0xddf252ad1be2c89b69c2b068fc378daa952ba7f163c4a11628f55a4df523b3ef",
            "0x000000000000000000000000c77f7fed3b5cc8249adc428c5f44c9063b9734b4",
            "0x0000000000000000000000000000000000000000000000000000000000000000"
          ],
          "data": "0x0000000000000000000000000000000000000000000000354088a92332897800",
          "blockHash": "0x0bf997e846433b276577886061d4e4ae2e2485f96500a3ef1c8028bafc3bd98d",
          "blockNumber": "0x725b76",
          "transactionHash": "0x7c03ba259cd6c2674527e243d239f8f928fc30883c5e05ee44ee9cbe4a517df1",
          "transactionIndex": "0x4c",
          "logIndex": "0x8a",
          "removed": false
        },
        {
          "address": "0xbf4a322f1496e5c3d34a9bcdb4c60567b38c7de2",
          "topics": [
            "0x4afcb4a87cdbd9974efdb92ee48bc8d7cd0ae4bf217004db3d080cbaee652ca7"
          ],
          "data": "0x0000000000000000000000000000000000000000000000000000000067873be400000000000000000000000000000000000000000000000000039767634d366c0000000000000000000000000000000000000000000000000dc7e3e77a5f7654",
          "blockHash": "0x0bf997e846433b276577886061d4e4ae2e2485f96500a3ef1c8028bafc3bd98d",
          "blockNumber": "0x725b76",
          "transactionHash": "0x7c03ba259cd6c2674527e243d239f8f928fc30883c5e05ee44ee9cbe4a517df1",
          "transactionIndex": "0x4c",
          "logIndex": "0x8b",
          "removed": false
        }
      ],
      "logsBloom": "0x00000000000000000000000000000000000000000000000000000000000000000000000000000000000000000000000000000000000000004000000000000000000000000000000000000008000000000000001000000000000000000000000000000000020000000000000000000800020000000000000000000010000000000000000000000000000000000000000000000000000008000000010000000000000000000000000000000000000000004000000000000000000000000000000000000002000000800000000000001000000000000000080000000000000020000000000000000000000000000000000000000000000000000000000000000000",
      "type": "0x2",
      "transactionHash": "0x7c03ba259cd6c2674527e243d239f8f928fc30883c5e05ee44ee9cbe4a517df1",
      "transactionIndex": "0x4c",
      "blockHash": "0x0bf997e846433b276577886061d4e4ae2e2485f96500a3ef1c8028bafc3bd98d",
      "blockNumber": "0x725b76",
      "gasUsed": "0xfb85",
      "effectiveGasPrice": "0x3d1256bd",
      "from": "0xc77f7fed3b5cc8249adc428c5f44c9063b9734b4",
      "to": "0xbf4a322f1496e5c3d34a9bcdb4c60567b38c7de2",
      "contractAddress": null
    }
  ],
  "libraries": [],
  "pending": [],
  "returns": {},
  "timestamp": 1736915941,
  "chain": 11155111,
  "commit": "51a374b"
}