{
  "transactions": [
    {
      "hash": "0xaf55f91d69a8b221c30b9cf37f62fe4002aaf52160458f21366c6080e19dcb2e",
      "transactionType": "CALL",
      "contractName": null,
      "contractAddress": "0xd7bc75898e513accccf720a874d44dab5a4b6223",
      "function": "buy(address)",
      "arguments": [
        "0xC77f7fed3b5Cc8249aDc428c5F44C9063B9734b4"
      ],
      "transaction": {
        "from": "0xc77f7fed3b5cc8249adc428c5f44c9063b9734b4",
        "to": "0xd7bc75898e513accccf720a874d44dab5a4b6223",
        "gas": "0x1b30c",
        "value": "0x2386f26fc10000",
        "input": "0xf088d547000000000000000000000000c77f7fed3b5cc8249adc428c5f44c9063b9734b4",
        "nonce": "0x104",
        "chainId": "0xaa36a7"
      },
      "additionalContracts": [],
      "isFixedGasLimit": false
    }
  ],
  "receipts": [
    {
      "status": "0x1",
      "cumulativeGasUsed": "0xdec9c",
      "logs": [
        {
          "address": "0xd7bc75898e513accccf720a874d44dab5a4b6223",
          "topics": [
            "0xddf252ad1be2c89b69c2b068fc378daa952ba7f163c4a11628f55a4df523b3ef",
            "0x0000000000000000000000000000000000000000000000000000000000000000",
            "0x000000000000000000000000c77f7fed3b5cc8249adc428c5f44c9063b9734b4"
          ],
          "data": "0x0000000000000000000000000000000000000000000000008963ba65e8a2be3e",
          "blockHash": "0x9e1ceab3f68f2145e8680bb0c4f1a8678cd09705357749e77d5a05e99fe7f78f",
          "blockNumber": "0x723997",
          "transactionHash": "0xaf55f91d69a8b221c30b9cf37f62fe4002aaf52160458f21366c6080e19dcb2e",
          "transactionIndex": "0x8",
          "logIndex": "0x13",
          "removed": false
        },
        {
          "address": "0xd7bc75898e513accccf720a874d44dab5a4b6223",
          "topics": [
            "0xddf252ad1be2c89b69c2b068fc378daa952ba7f163c4a11628f55a4df523b3ef",
            "0x0000000000000000000000000000000000000000000000000000000000000000",
            "0x000000000000000000000000c77f7fed3b5cc8249adc428c5f44c9063b9734b4"
          ],
          "data": "0x000000000000000000000000000000000000000000000000006ab00bed132b57",
          "blockHash": "0x9e1ceab3f68f2145e8680bb0c4f1a8678cd09705357749e77d5a05e99fe7f78f",
          "blockNumber": "0x723997",
          "transactionHash": "0xaf55f91d69a8b221c30b9cf37f62fe4002aaf52160458f21366c6080e19dcb2e",
          "transactionIndex": "0x8",
          "logIndex": "0x14",
          "removed": false
        },
        {
          "address": "0xd7bc75898e513accccf720a874d44dab5a4b6223",
          "topics": [
            "0x4afcb4a87cdbd9974efdb92ee48bc8d7cd0ae4bf217004db3d080cbaee652ca7"
          ],
          "data": "0x000000000000000000000000000000000000000000000000000000006785a46800000000000000000000000000000000000000000000000000038d7f8d8736dd000000000000000000000000000000000000000000000000002386f26fc10000",
          "blockHash": "0x9e1ceab3f68f2145e8680bb0c4f1a8678cd09705357749e77d5a05e99fe7f78f",
          "blockNumber": "0x723997",
          "transactionHash": "0xaf55f91d69a8b221c30b9cf37f62fe4002aaf52160458f21366c6080e19dcb2e",
          "transactionIndex": "0x8",
          "logIndex": "0x15",
          "removed": false
        }
      ],
      "logsBloom": "0x00000000000000000000000000000000000000000000000000000000000000000000000000000000000000000000000000000000000000004000000000000000000000000000000000000008000000000000000000000000000000000000000000000000020000000000000000000800020000000000000000000010000000000000000000000000000000000000000000000000000000000000010000000000000000000000000000000000000000004000001000000000000000000000000000000002000000800000000000004000000000000000080000000000000020000000000000000000000000000000000000000000080000000000000000000000",
      "type": "0x2",
      "transactionHash": "0xaf55f91d69a8b221c30b9cf37f62fe4002aaf52160458f21366c6080e19dcb2e",
      "transactionIndex": "0x8",
      "blockHash": "0x9e1ceab3f68f2145e8680bb0c4f1a8678cd09705357749e77d5a05e99fe7f78f",
      "blockNumber": "0x723997",
      "gasUsed": "0x13af8",
      "effectiveGasPrice": "0x2f2f90bad",
      "from": "0xc77f7fed3b5cc8249adc428c5f44c9063b9734b4",
      "to": "0xd7bc75898e513accccf720a874d44dab5a4b6223",
      "contractAddress": null
    }
  ],
  "libraries": [],
  "pending": [],
  "returns": {},
  "timestamp": 1736811624,
  "chain": 11155111,
  "commit": "51a374b"
}