{
  "transactions": [
    {
      "hash": "0x04ccb57b800eef8fc8e7ba1ef6ebe0884e31d3d589f4293c6f6eca97661c898d",
      "transactionType": "CALL",
      "contractName": null,
      "contractAddress": "0x270e88f8683660553e8ba4eb2ad7c91a1710d769",
      "function": "buy(address)",
      "arguments": [
        "0xC77f7fed3b5Cc8249aDc428c5F44C9063B9734b4"
      ],
      "transaction": {
        "from": "0xc77f7fed3b5cc8249adc428c5f44c9063b9734b4",
        "to": "0x270e88f8683660553e8ba4eb2ad7c91a1710d769",
        "gas": "0x1b30c",
        "value": "0xde0b6b3a7640000",
        "input": "0xf088d547000000000000000000000000c77f7fed3b5cc8249adc428c5f44c9063b9734b4",
        "nonce": "0x60c",
        "chainId": "0xaa36a7"
      },
      "additionalContracts": [],
      "isFixedGasLimit": false
    }
  ],
  "receipts": [
    {
      "status": "0x1",
      "cumulativeGasUsed": "0x901954",
      "logs": [
        {
          "address": "0x270e88f8683660553e8ba4eb2ad7c91a1710d769",
          "topics": [
            "0xddf252ad1be2c89b69c2b068fc378daa952ba7f163c4a11628f55a4df523b3ef",
            "0x0000000000000000000000000000000000000000000000000000000000000000",
            "0x000000000000000000000000c77f7fed3b5cc8249adc428c5f44c9063b9734b4"
          ],
          "data": "0x0000000000000000000000000000000000000000000000331a830e20c2f9cf6d",
          "blockHash": "0x441f17ecccefa66d4727f3796cc1d0732df2c3d712dcab40dd17466c2b006300",
          "blockNumber": "0x7252d6",
          "transactionHash": "0x04ccb57b800eef8fc8e7ba1ef6ebe0884e31d3d589f4293c6f6eca97661c898d",
          "transactionIndex": "0x52",
          "logIndex": "0x71",
          "removed": false
        },
        {
          "address": "0x270e88f8683660553e8ba4eb2ad7c91a1710d769",
          "topics": [
            "0xddf252ad1be2c89b69c2b068fc378daa952ba7f163c4a11628f55a4df523b3ef",
            "0x0000000000000000000000000000000000000000000000000000000000000000",
            "0x000000000000000000000000c77f7fed3b5cc8249adc428c5f44c9063b9734b4"
          ],
          "data": "0x00000000000000000000000000000000000000000000000027af044a5dfa3826",
          "blockHash": "0x441f17ecccefa66d4727f3796cc1d0732df2c3d712dcab40dd17466c2b006300",
          "blockNumber": "0x7252d6",
          "transactionHash": "0x04ccb57b800eef8fc8e7ba1ef6ebe0884e31d3d589f4293c6f6eca97661c898d",
          "transactionIndex": "0x52",
          "logIndex": "0x72",
          "removed": false
        },
        {
          "address": "0x270e88f8683660553e8ba4eb2ad7c91a1710d769",
          "topics": [
            "0x4afcb4a87cdbd9974efdb92ee48bc8d7cd0ae4bf217004db3d080cbaee652ca7"
          ],
          "data": "0x000000000000000000000000000000000000000000000000000000006786d4100000000000000000000000000000000000000000000000000003bb3d20d813200000000000000000000000000000000000000000000000000de0b6b3a7640000",
          "blockHash": "0x441f17ecccefa66d4727f3796cc1d0732df2c3d712dcab40dd17466c2b006300",
          "blockNumber": "0x7252d6",
          "transactionHash": "0x04ccb57b800eef8fc8e7ba1ef6ebe0884e31d3d589f4293c6f6eca97661c898d",
          "transactionIndex": "0x52",
          "logIndex": "0x73",
          "removed": false
        }
      ],
      "logsBloom": "0x00000000000000000000000000000000000000000000000000000000000000000000000000000000000000000000000020000000000000004000000000000000000000000000000000000008000000000000000000000000000000000000000000000000020000000000000000000800020000000000000000000010000000000000000000010000000000000000000000000000000000000000010000000000000000000000000000000000000000004000000000000000000000000000000000000002000000800000000000000000000000000000080000008000000020000000000000000000000000000000000000000000000000000000000000000000",
      "type": "0x2",
      "transactionHash": "0x04ccb57b800eef8fc8e7ba1ef6ebe0884e31d3d589f4293c6f6eca97661c898d",
      "transactionIndex": "0x52",
      "blockHash": "0x441f17ecccefa66d4727f3796cc1d0732df2c3d712dcab40dd17466c2b006300",
      "blockNumber": "0x7252d6",
      "gasUsed": "0x13af8",
      "effectiveGasPrice": "0x2c1e50dc8",
      "from": "0xc77f7fed3b5cc8249adc428c5f44c9063b9734b4",
      "to": "0x270e88f8683660553e8ba4eb2ad7c91a1710d769",
      "contractAddress": null
    }
  ],
  "libraries": [],
  "pending": [],
  "returns": {},
  "timestamp": 1736889360,
  "chain": 11155111,
  "commit": "51a374b"
}