{
  "transactions": [
    {
      "hash": "0xbddf9ba7d45023b6c043b295f39952a0a97b77a77097bc87d8cab15cd967aa95",
      "transactionType": "CALL",
      "contractName": null,
      "contractAddress": "0x8aafd3ede9adb0ff97c7aebce82a919afb1c8764",
      "function": "sell(uint256)",
      "arguments": [
        "9322681395268496"
      ],
      "transaction": {
        "from": "0xc77f7fed3b5cc8249adc428c5f44c9063b9734b4",
        "to": "0x8aafd3ede9adb0ff97c7aebce82a919afb1c8764",
        "gas": "0x1724d",
        "value": "0x0",
        "input": "0xe4849b3200000000000000000000000000000000000000000000000000211eede8eb4b90",
        "nonce": "0x176e",
        "chainId": "0xaa36a7"
      },
      "additionalContracts": [],
      "isFixedGasLimit": false
    }
  ],
  "receipts": [
    {
      "status": "0x1",
      "cumulativeGasUsed": "0x10f89f4",
      "logs": [
        {
          "address": "0x8aafd3ede9adb0ff97c7aebce82a919afb1c8764",
          "topics": [
            "0xddf252ad1be2c89b69c2b068fc378daa952ba7f163c4a11628f55a4df523b3ef",
            "0x000000000000000000000000c77f7fed3b5cc8249adc428c5f44c9063b9734b4",
            "0x0000000000000000000000000000000000000000000000000000000000000000"
          ],
          "data": "0x0000000000000000000000000000000000000000000000000020db191004096d",
          "blockHash": "0xb693cf04347eafa5391c926413a94ec376625bd824d3f998288b3845155f54ed",
          "blockNumber": "0x731f45",
          "transactionHash": "0xbddf9ba7d45023b6c043b295f39952a0a97b77a77097bc87d8cab15cd967aa95",
          "transactionIndex": "0x73",
          "logIndex": "0x137",
          "removed": false
        },
        {
          "address": "0x8aafd3ede9adb0ff97c7aebce82a919afb1c8764",
          "topics": [
            "0xddf252ad1be2c89b69c2b068fc378daa952ba7f163c4a11628f55a4df523b3ef",
            "0x000000000000000000000000c77f7fed3b5cc8249adc428c5f44c9063b9734b4",
            "0x000000000000000000000000c77f7fed3b5cc8249adc428c5f44c9063b9734b4"
          ],
          "data": "0x000000000000000000000000000000000000000000000000000043d4d8e74223",
          "blockHash": "0xb693cf04347eafa5391c926413a94ec376625bd824d3f998288b3845155f54ed",
          "blockNumber": "0x731f45",
          "transactionHash": "0xbddf9ba7d45023b6c043b295f39952a0a97b77a77097bc87d8cab15cd967aa95",
          "transactionIndex": "0x73",
          "logIndex": "0x138",
          "removed": false
        },
        {
          "address": "0x8aafd3ede9adb0ff97c7aebce82a919afb1c8764",
          "topics": [
            "0x4afcb4a87cdbd9974efdb92ee48bc8d7cd0ae4bf217004db3d080cbaee652ca7"
          ],
          "data": "0x0000000000000000000000000000000000000000000000000000000067907424000000000000000000000000000000000000000000000000001852f6b3ebdf9700000000000000000000000000000000000000000000000000003a0d4efd99a6",
          "blockHash": "0xb693cf04347eafa5391c926413a94ec376625bd824d3f998288b3845155f54ed",
          "blockNumber": "0x731f45",
          "transactionHash": "0xbddf9ba7d45023b6c043b295f39952a0a97b77a77097bc87d8cab15cd967aa95",
          "transactionIndex": "0x73",
          "logIndex": "0x139",
          "removed": false
        }
      ],
      "logsBloom": "0x00000000000000000000000000000000000000000600000000000000000000000000000000000000000000000000000000000000000000004000000000000000000000000000004000000008000000000000000000000000000000000000000000000000020000000000000000000800020000000000000000000010000000000000000000000000000000000000000000000000000000000000010000000000000000000000000000000000000000004000000000000000000000000000000000000002000000800000000000000000000000000000080000000000000020000000000000000000000000000000000000000000000000000000000000000000",
      "type": "0x2",
      "transactionHash": "0xbddf9ba7d45023b6c043b295f39952a0a97b77a77097bc87d8cab15cd967aa95",
      "transactionIndex": "0x73",
      "blockHash": "0xb693cf04347eafa5391c926413a94ec376625bd824d3f998288b3845155f54ed",
      "blockNumber": "0x731f45",
      "gasUsed": "0xfd33",
      "effectiveGasPrice": "0x4318c466",
      "from": "0xc77f7fed3b5cc8249adc428c5f44c9063b9734b4",
      "to": "0x8aafd3ede9adb0ff97c7aebce82a919afb1c8764",
      "contractAddress": null
    }
  ],
  "libraries": [],
  "pending": [],
  "returns": {},
  "timestamp": 1737520165,
  "chain": 11155111,
  "commit": "1d2fb70"
}