{
  "transactions": [
    {
      "hash": "0x0fece65ac751911305f51ecf8e5f9c5b6b667a023e31ce75ed2bdc564ababcab",
      "transactionType": "CALL",
      "contractName": null,
      "contractAddress": "0x5eb9cc76c3506942c1c0ead70e877dd5e4f00cb0",
      "function": "buy(address)",
      "arguments": [
        "0xC77f7fed3b5Cc8249aDc428c5F44C9063B9734b4"
      ],
      "transaction": {
        "from": "0xc77f7fed3b5cc8249adc428c5f44c9063b9734b4",
        "to": "0x5eb9cc76c3506942c1c0ead70e877dd5e4f00cb0",
        "gas": "0x1b30c",
        "value": "0xde0b6b3a7640000",
        "input": "0xf088d547000000000000000000000000c77f7fed3b5cc8249adc428c5f44c9063b9734b4",
        "nonce": "0x32e",
        "chainId": "0xaa36a7"
      },
      "additionalContracts": [],
      "isFixedGasLimit": false
    }
  ],
  "receipts": [
    {
      "status": "0x1",
      "cumulativeGasUsed": "0xd306b5",
      "logs": [
        {
          "address": "0x5eb9cc76c3506942c1c0ead70e877dd5e4f00cb0",
          "topics": [
            "0xddf252ad1be2c89b69c2b068fc378daa952ba7f163c4a11628f55a4df523b3ef",
            "0x0000000000000000000000000000000000000000000000000000000000000000",
            "0x000000000000000000000000c77f7fed3b5cc8249adc428c5f44c9063b9734b4"
          ],
          "data": "0x0000000000000000000000000000000000000000000000357578c0eb7d6d2a8d",
          "blockHash": "0x6fd1672dff37bdfd2d49f92bbaf6754584c6102abec79324e077ab37400c33df",
          "blockNumber": "0x724f17",
          "transactionHash": "0x0fece65ac751911305f51ecf8e5f9c5b6b667a023e31ce75ed2bdc564ababcab",
          "transactionIndex": "0x5b",
          "logIndex": "0x85",
          "removed": false
        },
        {
          "address": "0x5eb9cc76c3506942c1c0ead70e877dd5e4f00cb0",
          "topics": [
            "0xddf252ad1be2c89b69c2b068fc378daa952ba7f163c4a11628f55a4df523b3ef",
            "0x0000000000000000000000000000000000000000000000000000000000000000",
            "0x000000000000000000000000c77f7fed3b5cc8249adc428c5f44c9063b9734b4"
          ],
          "data": "0x00000000000000000000000000000000000000000000000029833c4ef538bf10",
          "blockHash": "0x6fd1672dff37bdfd2d49f92bbaf6754584c6102abec79324e077ab37400c33df",
          "blockNumber": "0x724f17",
          "transactionHash": "0x0fece65ac751911305f51ecf8e5f9c5b6b667a023e31ce75ed2bdc564ababcab",
          "transactionIndex": "0x5b",
          "logIndex": "0x86",
          "removed": false
        },
        {
          "address": "0x5eb9cc76c3506942c1c0ead70e877dd5e4f00cb0",
          "topics": [
            "0x4afcb4a87cdbd9974efdb92ee48bc8d7cd0ae4bf217004db3d080cbaee652ca7"
          ],
          "data": "0x000000000000000000000000000000000000000000000000000000006786a6c80000000000000000000000000000000000000000000000000003910d840491a70000000000000000000000000000000000000000000000000de0b6b3a7640000",
          "blockHash": "0x6fd1672dff37bdfd2d49f92bbaf6754584c6102abec79324e077ab37400c33df",
          "blockNumber": "0x724f17",
          "transactionHash": "0x0fece65ac751911305f51ecf8e5f9c5b6b667a023e31ce75ed2bdc564ababcab",
          "transactionIndex": "0x5b",
          "logIndex": "0x87",
          "removed": false
        }
      ],
      "logsBloom": "0x00000000000000000000000000000000000000000000000000000000000000000000000000000000000000000000000000000000000000004000000000000000000000000000000000000008000000000000000000000000000000000000000000000000020000000000000004000800020000000000000000000010000000000000000000000000000000000000000000000000000000000000010000000000000000000000000000000000000000004000000000000000000000000000020000000002000000800000008000000000000000000000080000000000000020000000000000000000000000000000000000000000000000000000000000000000",
      "type": "0x2",
      "transactionHash": "0x0fece65ac751911305f51ecf8e5f9c5b6b667a023e31ce75ed2bdc564ababcab",
      "transactionIndex": "0x5b",
      "blockHash": "0x6fd1672dff37bdfd2d49f92bbaf6754584c6102abec79324e077ab37400c33df",
      "blockNumber": "0x724f17",
      "gasUsed": "0x13af8",
      "effectiveGasPrice": "0x6747194ea",
      "from": "0xc77f7fed3b5cc8249adc428c5f44c9063b9734b4",
      "to": "0x5eb9cc76c3506942c1c0ead70e877dd5e4f00cb0",
      "contractAddress": null
    }
  ],
  "libraries": [],
  "pending": [],
  "returns": {},
  "timestamp": 1736877770,
  "chain": 11155111,
  "commit": "51a374b"
}