{
  "transactions": [
    {
      "hash": "0xc0e58988a29b45389f28f2499da9d2c653167862529b957295e7ec3613327c04",
      "transactionType": "CALL",
      "contractName": null,
      "contractAddress": "0x8aafd3ede9adb0ff97c7aebce82a919afb1c8764",
      "function": "sell(uint256)",
      "arguments": [
        "2091259746321685561"
      ],
      "transaction": {
        "from": "0xc77f7fed3b5cc8249adc428c5f44c9063b9734b4",
        "to": "0x8aafd3ede9adb0ff97c7aebce82a919afb1c8764",
        "gas": "0x15dca",
        "value": "0x0",
        "input": "0xe4849b320000000000000000000000000000000000000000000000001d05a5a8c893dc39",
        "nonce": "0x13ce",
        "chainId": "0xaa36a7"
      },
      "additionalContracts": [],
      "isFixedGasLimit": false
    }
  ],
  "receipts": [
    {
      "status": "0x1",
      "cumulativeGasUsed": "0x9be5e4",
      "logs": [
        {
          "address": "0x8aafd3ede9adb0ff97c7aebce82a919afb1c8764",
          "topics": [
            "0xddf252ad1be2c89b69c2b068fc378daa952ba7f163c4a11628f55a4df523b3ef",
            "0x000000000000000000000000c77f7fed3b5cc8249adc428c5f44c9063b9734b4",
            "0x0000000000000000000000000000000000000000000000000000000000000000"
          ],
          "data": "0x0000000000000000000000000000000000000000000000001cca35bdf613b38d",
          "blockHash": "0x49c2b6c970c8c5f3a878d710c4ce713d0dc63cb202e7bc2517a162c3f45ecf2b",
          "blockNumber": "0x731afa",
          "transactionHash": "0xc0e58988a29b45389f28f2499da9d2c653167862529b957295e7ec3613327c04",
          "transactionIndex": "0x7b",
          "logIndex": "0x7e",
          "removed": false
        },
        {
          "address": "0x8aafd3ede9adb0ff97c7aebce82a919afb1c8764",
          "topics": [
            "0xddf252ad1be2c89b69c2b068fc378daa952ba7f163c4a11628f55a4df523b3ef",
            "0x000000000000000000000000c77f7fed3b5cc8249adc428c5f44c9063b9734b4",
            "0x000000000000000000000000c77f7fed3b5cc8249adc428c5f44c9063b9734b4"
          ],
          "data": "0x000000000000000000000000000000000000000000000000003b6fead28028ac",
          "blockHash": "0x49c2b6c970c8c5f3a878d710c4ce713d0dc63cb202e7bc2517a162c3f45ecf2b",
          "blockNumber": "0x731afa",
          "transactionHash": "0xc0e58988a29b45389f28f2499da9d2c653167862529b957295e7ec3613327c04",
          "transactionIndex": "0x7b",
          "logIndex": "0x7f",
          "removed": false
        },
        {
          "address": "0x8aafd3ede9adb0ff97c7aebce82a919afb1c8764",
          "topics": [
            "0x4afcb4a87cdbd9974efdb92ee48bc8d7cd0ae4bf217004db3d080cbaee652ca7"
          ],
          "data": "0x0000000000000000000000000000000000000000000000000000000067904088000000000000000000000000000000000000000000000000000d9914452bc057000000000000000000000000000000000000000000000000001c6f815f398157",
          "blockHash": "0x49c2b6c970c8c5f3a878d710c4ce713d0dc63cb202e7bc2517a162c3f45ecf2b",
          "blockNumber": "0x731afa",
          "transactionHash": "0xc0e58988a29b45389f28f2499da9d2c653167862529b957295e7ec3613327c04",
          "transactionIndex": "0x7b",
          "logIndex": "0x80",
          "removed": false
        }
      ],
      "logsBloom": "0x00000000000000000000000000000000000000000600000000000000000000000000000000000000000000000000000000000000000000004000000000000000000000000000004000000008000000000000000000000000000000000000000000000000020000000000000000000800020000000000000000000010000000000000000000000000000000000000000000000000000000000000010000000000000000000000000000000000000000004000000000000000000000000000000000000002000000800000000000000000000000000000080000000000000020000000000000000000000000000000000000000000000000000000000000000000",
      "type": "0x2",
      "transactionHash": "0xc0e58988a29b45389f28f2499da9d2c653167862529b957295e7ec3613327c04",
      "transactionIndex": "0x7b",
      "blockHash": "0x49c2b6c970c8c5f3a878d710c4ce713d0dc63cb202e7bc2517a162c3f45ecf2b",
      "blockNumber": "0x731afa",
      "gasUsed": "0xfd3f",
      "effectiveGasPrice": "0x81689bcb",
      "from": "0xc77f7fed3b5cc8249adc428c5f44c9063b9734b4",
      "to": "0x8aafd3ede9adb0ff97c7aebce82a919afb1c8764",
      "contractAddress": null
    }
  ],
  "libraries": [],
  "pending": [],
  "returns": {},
  "timestamp": 1737506953,
  "chain": 11155111,
  "commit": "1d2fb70"
}