{
  "transactions": [
    {
      "hash": "0x15cd99d35a3c0db40d45dfe2969039bc3bdf0f4817fc3b0464f648f13478b182",
      "transactionType": "CALL",
      "contractName": null,
      "contractAddress": "0x270e88f8683660553e8ba4eb2ad7c91a1710d769",
      "function": "sell(uint256)",
      "arguments": [
        "709939944281073354770"
      ],
      "transaction": {
        "from": "0xc77f7fed3b5cc8249adc428c5f44c9063b9734b4",
        "to": "0x270e88f8683660553e8ba4eb2ad7c91a1710d769",
        "gas": "0x16fec",
        "value": "0x0",
        "input": "0xe4849b320000000000000000000000000000000000000000000000267c6559e68dfd8812",
        "nonce": "0x89c",
        "chainId": "0xaa36a7"
      },
      "additionalContracts": [],
      "isFixedGasLimit": false
    }
  ],
  "receipts": [
    {
      "status": "0x1",
      "cumulativeGasUsed": "0xfbb1bb",
      "logs": [
        {
          "address": "0x270e88f8683660553e8ba4eb2ad7c91a1710d769",
          "topics": [
            "0xddf252ad1be2c89b69c2b068fc378daa952ba7f163c4a11628f55a4df523b3ef",
            "0x000000000000000000000000c77f7fed3b5cc8249adc428c5f44c9063b9734b4",
            "0x0000000000000000000000000000000000000000000000000000000000000000"
          ],
          "data": "0x0000000000000000000000000000000000000000000000267c6559e68dfd8812",
          "blockHash": "0xa765cddc03288838de1b62b31099a646405751c9e3ef59093f22391f9b876478",
          "blockNumber": "0x7255fa",
          "transactionHash": "0x15cd99d35a3c0db40d45dfe2969039bc3bdf0f4817fc3b0464f648f13478b182",
          "transactionIndex": "0x3e",
          "logIndex": "0x51",
          "removed": false
        },
        {
          "address": "0x270e88f8683660553e8ba4eb2ad7c91a1710d769",
          "topics": [
            "0x4afcb4a87cdbd9974efdb92ee48bc8d7cd0ae4bf217004db3d080cbaee652ca7"
          ],
          "data": "0x000000000000000000000000000000000000000000000000000000006786f9c00000000000000000000000000000000000000000000000000004f86a81d6f7ea0000000000000000000000000000000000000000000000000dc825632860bacc",
          "blockHash": "0xa765cddc03288838de1b62b31099a646405751c9e3ef59093f22391f9b876478",
          "blockNumber": "0x7255fa",
          "transactionHash": "0x15cd99d35a3c0db40d45dfe2969039bc3bdf0f4817fc3b0464f648f13478b182",
          "transactionIndex": "0x3e",
          "logIndex": "0x52",
          "removed": false
        }
      ],
      "logsBloom": "0x00000000000000000000000000000000000000000000000000000000000000000000000000000000000000000000000020000000000000004000000000000000000000000000000000000008000000000000000000000000000000000000000000000000020000000000000000000800020000000000000000000010000000000000000000010000000000000000000000000000000000000000010000000000000000000000000000000000000000004000000000000000000000000000000000000002000000800000000000000000000000000000080000008000000020000000000000000000000000000000000000000000000000000000000000000000",
      "type": "0x2",
      "transactionHash": "0x15cd99d35a3c0db40d45dfe2969039bc3bdf0f4817fc3b0464f648f13478b182",
      "transactionIndex": "0x3e",
      "blockHash": "0xa765cddc03288838de1b62b31099a646405751c9e3ef59093f22391f9b876478",
      "blockNumber": "0x7255fa",
      "gasUsed": "0xfb93",
      "effectiveGasPrice": "0x96628070",
      "from": "0xc77f7fed3b5cc8249adc428c5f44c9063b9734b4",
      "to": "0x270e88f8683660553e8ba4eb2ad7c91a1710d769",
      "contractAddress": null
    }
  ],
  "libraries": [],
  "pending": [],
  "returns": {},
  "timestamp": 1736899010,
  "chain": 11155111,
  "commit": "51a374b"
}