{
  "transactions": [
    {
      "hash": "0x54454544745b098e40e3b0936a699756e89061290f9d3d4916cc243980a40b08",
      "transactionType": "CALL",
      "contractName": null,
      "contractAddress": "0xd7bc75898e513accccf720a874d44dab5a4b6223",
      "function": "buy(address)",
      "arguments": [
        "0xC77f7fed3b5Cc8249aDc428c5F44C9063B9734b4"
      ],
      "transaction": {
        "from": "0xc77f7fed3b5cc8249adc428c5f44c9063b9734b4",
        "to": "0xd7bc75898e513accccf720a874d44dab5a4b6223",
        "gas": "0x1b30c",
        "value": "0x2386f26fc10000",
        "input": "0xf088d547000000000000000000000000c77f7fed3b5cc8249adc428c5f44c9063b9734b4",
        "nonce": "0xc2",
        "chainId": "0xaa36a7"
      },
      "additionalContracts": [],
      "isFixedGasLimit": false
    }
  ],
  "receipts": [
    {
      "status": "0x1",
      "cumulativeGasUsed": "0x548239",
      "logs": [
        {
          "address": "0xd7bc75898e513accccf720a874d44dab5a4b6223",
          "topics": [
            "0xddf252ad1be2c89b69c2b068fc378daa952ba7f163c4a11628f55a4df523b3ef",
            "0x0000000000000000000000000000000000000000000000000000000000000000",
            "0x000000000000000000000000c77f7fed3b5cc8249adc428c5f44c9063b9734b4"
          ],
          "data": "0x0000000000000000000000000000000000000000000000008963bb5be375beaf",
          "blockHash": "0x16e13bc0c1bf5931ba972e3b4412cdc4a1586cf6c8d36db5c151d2bf632b6b4b",
          "blockNumber": "0x72393f",
          "transactionHash": "0x54454544745b098e40e3b0936a699756e89061290f9d3d4916cc243980a40b08",
          "transactionIndex": "0x3a",
          "logIndex": "0x51",
          "removed": false
        },
        {
          "address": "0xd7bc75898e513accccf720a874d44dab5a4b6223",
          "topics": [
            "0xddf252ad1be2c89b69c2b068fc378daa952ba7f163c4a11628f55a4df523b3ef",
            "0x0000000000000000000000000000000000000000000000000000000000000000",
            "0x000000000000000000000000c77f7fed3b5cc8249adc428c5f44c9063b9734b4"
          ],
          "data": "0x000000000000000000000000000000000000000000000000006ab00cac162988",
          "blockHash": "0x16e13bc0c1bf5931ba972e3b4412cdc4a1586cf6c8d36db5c151d2bf632b6b4b",
          "blockNumber": "0x72393f",
          "transactionHash": "0x54454544745b098e40e3b0936a699756e89061290f9d3d4916cc243980a40b08",
          "transactionIndex": "0x3a",
          "logIndex": "0x52",
          "removed": false
        },
        {
          "address": "0xd7bc75898e513accccf720a874d44dab5a4b6223",
          "topics": [
            "0x4afcb4a87cdbd9974efdb92ee48bc8d7cd0ae4bf217004db3d080cbaee652ca7"
          ],
          "data": "0x000000000000000000000000000000000000000000000000000000006785a03c00000000000000000000000000000000000000000000000000038d7f872add85000000000000000000000000000000000000000000000000002386f26fc10000",
          "blockHash": "0x16e13bc0c1bf5931ba972e3b4412cdc4a1586cf6c8d36db5c151d2bf632b6b4b",
          "blockNumber": "0x72393f",
          "transactionHash": "0x54454544745b098e40e3b0936a699756e89061290f9d3d4916cc243980a40b08",
          "transactionIndex": "0x3a",
          "logIndex": "0x53",
          "removed": false
        }
      ],
      "logsBloom": "0x00000000000000000000000000000000000000000000000000000000000000000000000000000000000000000000000000000000000000004000000000000000000000000000000000000008000000000000000000000000000000000000000000000000020000000000000000000800020000000000000000000010000000000000000000000000000000000000000000000000000000000000010000000000000000000000000000000000000000004000001000000000000000000000000000000002000000800000000000004000000000000000080000000000000020000000000000000000000000000000000000000000080000000000000000000000",
      "type": "0x2",
      "transactionHash": "0x54454544745b098e40e3b0936a699756e89061290f9d3d4916cc243980a40b08",
      "transactionIndex": "0x3a",
      "blockHash": "0x16e13bc0c1bf5931ba972e3b4412cdc4a1586cf6c8d36db5c151d2bf632b6b4b",
      "blockNumber": "0x72393f",
      "gasUsed": "0x13af8",
      "effectiveGasPrice": "0xa4e6811",
      "from": "0xc77f7fed3b5cc8249adc428c5f44c9063b9734b4",
      "to": "0xd7bc75898e513accccf720a874d44dab5a4b6223",
      "contractAddress": null
    }
  ],
  "libraries": [],
  "pending": [],
  "returns": {},
  "timestamp": 1736810557,
  "chain": 11155111,
  "commit": "51a374b"
}