{
  "transactions": [
    {
      "hash": "0x7ef3439202f33b526975cd3229c509ee1e84f3f7885ba2de52669f90da36c8f5",
      "transactionType": "CALL",
      "contractName": null,
      "contractAddress": "0xbf4a322f1496e5c3d34a9bcdb4c60567b38c7de2",
      "function": "buy(address)",
      "arguments": [
        "0xC77f7fed3b5Cc8249aDc428c5F44C9063B9734b4"
      ],
      "transaction": {
        "from": "0xc77f7fed3b5cc8249adc428c5f44c9063b9734b4",
        "to": "0xbf4a322f1496e5c3d34a9bcdb4c60567b38c7de2",
        "gas": "0x1b309",
        "value": "0xde0b6b3a7640000",
        "input": "0xf088d547000000000000000000000000c77f7fed3b5cc8249adc428c5f44c9063b9734b4",
        "nonce": "0xc50",
        "chainId": "0xaa36a7"
      },
      "additionalContracts": [],
      "isFixedGasLimit": false
    }
  ],
  "receipts": [
    {
      "status": "0x1",
      "cumulativeGasUsed": "0x1dfd213",
      "logs": [
        {
          "address": "0xbf4a322f1496e5c3d34a9bcdb4c60567b38c7de2",
          "topics": [
            "0xddf252ad1be2c89b69c2b068fc378daa952ba7f163c4a11628f55a4df523b3ef",
            "0x0000000000000000000000000000000000000000000000000000000000000000",
            "0x000000000000000000000000c77f7fed3b5cc8249adc428c5f44c9063b9734b4"
          ],
          "data": "0x000000000000000000000000000000000000000000000034ec832735058019be",
          "blockHash": "0x24fb7deee074a54f0c694872ab5ab1a56452a88872e56dd6eac9b83f43b7524e",
          "blockNumber": "0x725c88",
          "transactionHash": "0x7ef3439202f33b526975cd3229c509ee1e84f3f7885ba2de52669f90da36c8f5",
          "transactionIndex": "0xcb",
          "logIndex": "0x127",
          "removed": false
        },
        {
          "address": "0xbf4a322f1496e5c3d34a9bcdb4c60567b38c7de2",
          "topics": [
            "0xddf252ad1be2c89b69c2b068fc378daa952ba7f163c4a11628f55a4df523b3ef",
            "0x0000000000000000000000000000000000000000000000000000000000000000",
            "0x000000000000000000000000c77f7fed3b5cc8249adc428c5f44c9063b9734b4"
          ],
          "data": "0x0000000000000000000000000000000000000000000000002918e1c79d1613c1",
          "blockHash": "0x24fb7deee074a54f0c694872ab5ab1a56452a88872e56dd6eac9b83f43b7524e",
          "blockNumber": "0x725c88",
          "transactionHash": "0x7ef3439202f33b526975cd3229c509ee1e84f3f7885ba2de52669f90da36c8f5",
          "transactionIndex": "0xcb",
          "logIndex": "0x128",
          "removed": false
        },
        {
          "address": "0xbf4a322f1496e5c3d34a9bcdb4c60567b38c7de2",
          "topics": [
            "0x4afcb4a87cdbd9974efdb92ee48bc8d7cd0ae4bf217004db3d080cbaee652ca7"
          ],
          "data": "0x00000000000000000000000000000000000000000000000000000000678748bc00000000000000000000000000000000000000000000000000039a4aaa73739f0000000000000000000000000000000000000000000000000de0b6b3a7640000",
          "blockHash": "0x24fb7deee074a54f0c694872ab5ab1a56452a88872e56dd6eac9b83f43b7524e",
          "blockNumber": "0x725c88",
          "transactionHash": "0x7ef3439202f33b526975cd3229c509ee1e84f3f7885ba2de52669f90da36c8f5",
          "transactionIndex": "0xcb",
          "logIndex": "0x129",
          "removed": false
        }
      ],
      "logsBloom": "0x00000000000000000000000000000000000000000000000000000000000000000000000000000000000000000000000000000000000000004000000000000000000000000000000000000008000000000000001000000000000000000000000000000000020000000000000000000800020000000000000000000010000000000000000000000000000000000000000000000000000008000000010000000000000000000000000000000000000000004000000000000000000000000000000000000002000000800000000000001000000000000000080000000000000020000000000000000000000000000000000000000000000000000000000000000000",
      "type": "0x2",
      "transactionHash": "0x7ef3439202f33b526975cd3229c509ee1e84f3f7885ba2de52669f90da36c8f5",
      "transactionIndex": "0xcb",
      "blockHash": "0x24fb7deee074a54f0c694872ab5ab1a56452a88872e56dd6eac9b83f43b7524e",
      "blockNumber": "0x725c88",
      "gasUsed": "0x13af6",
      "effectiveGasPrice": "0x1e9fb906e",
      "from": "0xc77f7fed3b5cc8249adc428c5f44c9063b9734b4",
      "to": "0xbf4a322f1496e5c3d34a9bcdb4c60567b38c7de2",
      "contractAddress": null
    }
  ],
  "libraries": [],
  "pending": [],
  "returns": {},
  "timestamp": 1736919230,
  "chain": 11155111,
  "commit": "51a374b"
}