{
  "transactions": [
    {
      "hash": "0x69519d89296f2a3ccfb262a6ca570793aa7d3351c81190c1647261f67d8478ae",
      "transactionType": "CALL",
      "contractName": null,
      "contractAddress": "0x8aafd3ede9adb0ff97c7aebce82a919afb1c8764",
      "function": "sell(uint256)",
      "arguments": [
        "2000141423023656153"
      ],
      "transaction": {
        "from": "0xc77f7fed3b5cc8249adc428c5f44c9063b9734b4",
        "to": "0x8aafd3ede9adb0ff97c7aebce82a919afb1c8764",
        "gas": "0x15dca",
        "value": "0x0",
        "input": "0xe4849b320000000000000000000000000000000000000000000000001bc1ee06ebde8cd9",
        "nonce": "0x1404",
        "chainId": "0xaa36a7"
      },
      "additionalContracts": [],
      "isFixedGasLimit": false
    }
  ],
  "receipts": [
    {
      "status": "0x1",
      "cumulativeGasUsed": "0xf1af1e",
      "logs": [
        {
          "address": "0x8aafd3ede9adb0ff97c7aebce82a919afb1c8764",
          "topics": [
            "0xddf252ad1be2c89b69c2b068fc378daa952ba7f163c4a11628f55a4df523b3ef",
            "0x000000000000000000000000c77f7fed3b5cc8249adc428c5f44c9063b9734b4",
            "0x0000000000000000000000000000000000000000000000000000000000000000"
          ],
          "data": "0x0000000000000000000000000000000000000000000000001b89151533b5db98",
          "blockHash": "0xd37a712859c2063556ea3757c3f60915482e51bda0a83bae63ccc4b20a5e030f",
          "blockNumber": "0x731b3c",
          "transactionHash": "0x69519d89296f2a3ccfb262a6ca570793aa7d3351c81190c1647261f67d8478ae",
          "transactionIndex": "0xa4",
          "logIndex": "0x98",
          "removed": false
        },
        {
          "address": "0x8aafd3ede9adb0ff97c7aebce82a919afb1c8764",
          "topics": [
            "0xddf252ad1be2c89b69c2b068fc378daa952ba7f163c4a11628f55a4df523b3ef",
            "0x000000000000000000000000c77f7fed3b5cc8249adc428c5f44c9063b9734b4",
            "0x000000000000000000000000c77f7fed3b5cc8249adc428c5f44c9063b9734b4"
          ],
          "data": "0x0000000000000000000000000000000000000000000000000038d8f1b828b141",
          "blockHash": "0xd37a712859c2063556ea3757c3f60915482e51bda0a83bae63ccc4b20a5e030f",
          "blockNumber": "0x731b3c",
          "transactionHash": "0x69519d89296f2a3ccfb262a6ca570793aa7d3351c81190c1647261f67d8478ae",
          "transactionIndex": "0xa4",
          "logIndex": "0x99",
          "removed": false
        },
        {
          "address": "0x8aafd3ede9adb0ff97c7aebce82a919afb1c8764",
          "topics": [
            "0x4afcb4a87cdbd9974efdb92ee48bc8d7cd0ae4bf217004db3d080cbaee652ca7"
          ],
          "data": "0x00000000000000000000000000000000000000000000000000000000679043a0000000000000000000000000000000000000000000000000000e368a0a36f2d5000000000000000000000000000000000000000000000000001c6d45b6974684",
          "blockHash": "0xd37a712859c2063556ea3757c3f60915482e51bda0a83bae63ccc4b20a5e030f",
          "blockNumber": "0x731b3c",
          "transactionHash": "0x69519d89296f2a3ccfb262a6ca570793aa7d3351c81190c1647261f67d8478ae",
          "transactionIndex": "0xa4",
          "logIndex": "0x9a",
          "removed": false
        }
      ],
      "logsBloom": "0x00000000000000000000000000000000000000000600000000000000000000000000000000000000000000000000000000000000000000004000000000000000000000000000004000000008000000000000000000000000000000000000000000000000020000000000000000000800020000000000000000000010000000000000000000000000000000000000000000000000000000000000010000000000000000000000000000000000000000004000000000000000000000000000000000000002000000800000000000000000000000000000080000000000000020000000000000000000000000000000000000000000000000000000000000000000",
      "type": "0x2",
      "transactionHash": "0x69519d89296f2a3ccfb262a6ca570793aa7d3351c81190c1647261f67d8478ae",
      "transactionIndex": "0xa4",
      "blockHash": "0xd37a712859c2063556ea3757c3f60915482e51bda0a83bae63ccc4b20a5e030f",
      "blockNumber": "0x731b3c",
      "gasUsed": "0xfd3f",
      "effectiveGasPrice": "0xbe1f5da1",
      "from": "0xc77f7fed3b5cc8249adc428c5f44c9063b9734b4",
      "to": "0x8aafd3ede9adb0ff97c7aebce82a919afb1c8764",
      "contractAddress": null
    }
  ],
  "libraries": [],
  "pending": [],
  "returns": {},
  "timestamp": 1737507745,
  "chain": 11155111,
  "commit": "1d2fb70"
}