{
  "transactions": [
    {
      "hash": "0xe5b094751ba6a19a1cac94314006cecedbc3eb34316cb4db7c38e21911b20e15",
      "transactionType": "CALL",
      "contractName": null,
      "contractAddress": "0x270e88f8683660553e8ba4eb2ad7c91a1710d769",
      "function": "sell(uint256)",
      "arguments": [
        "991406663582686209239"
      ],
      "transaction": {
        "from": "0xc77f7fed3b5cc8249adc428c5f44c9063b9734b4",
        "to": "0x270e88f8683660553e8ba4eb2ad7c91a1710d769",
        "gas": "0x16fec",
        "value": "0x0",
        "input": "0xe4849b32000000000000000000000000000000000000000000000035be8803d4b13564d7",
        "nonce": "0x4df",
        "chainId": "0xaa36a7"
      },
      "additionalContracts": [],
      "isFixedGasLimit": false
    }
  ],
  "receipts": [
    {
      "status": "0x1",
      "cumulativeGasUsed": "0x1635f59",
      "logs": [
        {
          "address": "0x270e88f8683660553e8ba4eb2ad7c91a1710d769",
          "topics": [
            "0xddf252ad1be2c89b69c2b068fc378daa952ba7f163c4a11628f55a4df523b3ef",
            "0x000000000000000000000000c77f7fed3b5cc8249adc428c5f44c9063b9734b4",
            "0x0000000000000000000000000000000000000000000000000000000000000000"
          ],
          "data": "0x000000000000000000000000000000000000000000000035be8803d4b13564d7",
          "blockHash": "0xaca97a991c56f80702f47911856cc588e7d6964bf03c9c6ee339e8d372eecbb3",
          "blockNumber": "0x72516d",
          "transactionHash": "0xe5b094751ba6a19a1cac94314006cecedbc3eb34316cb4db7c38e21911b20e15",
          "transactionIndex": "0x59",
          "logIndex": "0xde",
          "removed": false
        },
        {
          "address": "0x270e88f8683660553e8ba4eb2ad7c91a1710d769",
          "topics": [
            "0x4afcb4a87cdbd9974efdb92ee48bc8d7cd0ae4bf217004db3d080cbaee652ca7"
          ],
          "data": "0x000000000000000000000000000000000000000000000000000000006786c30000000000000000000000000000000000000000000000000000038f406cd2ab740000000000000000000000000000000000000000000000000dc8426960b4c53a",
          "blockHash": "0xaca97a991c56f80702f47911856cc588e7d6964bf03c9c6ee339e8d372eecbb3",
          "blockNumber": "0x72516d",
          "transactionHash": "0xe5b094751ba6a19a1cac94314006cecedbc3eb34316cb4db7c38e21911b20e15",
          "transactionIndex": "0x59",
          "logIndex": "0xdf",
          "removed": false
        }
      ],
      "logsBloom": "0x00000000000000000000000000000000000000000000000000000000000000000000000000000000000000000000000020000000000000004000000000000000000000000000000000000008000000000000000000000000000000000000000000000000020000000000000000000800020000000000000000000010000000000000000000010000000000000000000000000000000000000000010000000000000000000000000000000000000000004000000000000000000000000000000000000002000000800000000000000000000000000000080000008000000020000000000000000000000000000000000000000000000000000000000000000000",
      "type": "0x2",
      "transactionHash": "0xe5b094751ba6a19a1cac94314006cecedbc3eb34316cb4db7c38e21911b20e15",
      "transactionIndex": "0x59",
      "blockHash": "0xaca97a991c56f80702f47911856cc588e7d6964bf03c9c6ee339e8d372eecbb3",
      "blockNumber": "0x72516d",
      "gasUsed": "0xfb93",
      "effectiveGasPrice": "0x40b816c66",
      "from": "0xc77f7fed3b5cc8249adc428c5f44c9063b9734b4",
      "to": "0x270e88f8683660553e8ba4eb2ad7c91a1710d769",
      "contractAddress": null
    }
  ],
  "libraries": [],
  "pending": [],
  "returns": {},
  "timestamp": 1736884992,
  "chain": 11155111,
  "commit": "51a374b"
}