{
  "transactions": [
    {
      "hash": "0x14bc8d3c2a91ab5fd7593a332e8a5e0df38681d1c235ffa3e5b5ea99321bb750",
      "transactionType": "CALL",
      "contractName": null,
      "contractAddress": "0x270e88f8683660553e8ba4eb2ad7c91a1710d769",
      "function": "sell(uint256)",
      "arguments": [
        "710103491988044206844"
      ],
      "transaction": {
        "from": "0xc77f7fed3b5cc8249adc428c5f44c9063b9734b4",
        "to": "0x270e88f8683660553e8ba4eb2ad7c91a1710d769",
        "gas": "0x16fec",
        "value": "0x0",
        "input": "0xe4849b320000000000000000000000000000000000000000000000267eaa63ac6fd152fc",
        "nonce": "0x89a",
        "chainId": "0xaa36a7"
      },
      "additionalContracts": [],
      "isFixedGasLimit": false
    }
  ],
  "receipts": [
    {
      "status": "0x1",
      "cumulativeGasUsed": "0x504798",
      "logs": [
        {
          "address": "0x270e88f8683660553e8ba4eb2ad7c91a1710d769",
          "topics": [
            "0xddf252ad1be2c89b69c2b068fc378daa952ba7f163c4a11628f55a4df523b3ef",
            "0x000000000000000000000000c77f7fed3b5cc8249adc428c5f44c9063b9734b4",
            "0x0000000000000000000000000000000000000000000000000000000000000000"
          ],
          "data": "0x0000000000000000000000000000000000000000000000267eaa63ac6fd152fc",
          "blockHash": "0xa01a2a4f9a39cb434a4eb0d9e21842e7dabf2587c8d48458e5f03e45caba199c",
          "blockNumber": "0x7255f8",
          "transactionHash": "0x14bc8d3c2a91ab5fd7593a332e8a5e0df38681d1c235ffa3e5b5ea99321bb750",
          "transactionIndex": "0x3e",
          "logIndex": "0x51",
          "removed": false
        },
        {
          "address": "0x270e88f8683660553e8ba4eb2ad7c91a1710d769",
          "topics": [
            "0x4afcb4a87cdbd9974efdb92ee48bc8d7cd0ae4bf217004db3d080cbaee652ca7"
          ],
          "data": "0x000000000000000000000000000000000000000000000000000000006786f9a80000000000000000000000000000000000000000000000000004f81f80778c1e0000000000000000000000000000000000000000000000000dc825677ebecc7a",
          "blockHash": "0xa01a2a4f9a39cb434a4eb0d9e21842e7dabf2587c8d48458e5f03e45caba199c",
          "blockNumber": "0x7255f8",
          "transactionHash": "0x14bc8d3c2a91ab5fd7593a332e8a5e0df38681d1c235ffa3e5b5ea99321bb750",
          "transactionIndex": "0x3e",
          "logIndex": "0x52",
          "removed": false
        }
      ],
      "logsBloom": "0x00000000000000000000000000000000000000000000000000000000000000000000000000000000000000000000000020000000000000004000000000000000000000000000000000000008000000000000000000000000000000000000000000000000020000000000000000000800020000000000000000000010000000000000000000010000000000000000000000000000000000000000010000000000000000000000000000000000000000004000000000000000000000000000000000000002000000800000000000000000000000000000080000008000000020000000000000000000000000000000000000000000000000000000000000000000",
      "type": "0x2",
      "transactionHash": "0x14bc8d3c2a91ab5fd7593a332e8a5e0df38681d1c235ffa3e5b5ea99321bb750",
      "transactionIndex": "0x3e",
      "blockHash": "0xa01a2a4f9a39cb434a4eb0d9e21842e7dabf2587c8d48458e5f03e45caba199c",
      "blockNumber": "0x7255f8",
      "gasUsed": "0xfb93",
      "effectiveGasPrice": "0x98eb41a6",
      "from": "0xc77f7fed3b5cc8249adc428c5f44c9063b9734b4",
      "to": "0x270e88f8683660553e8ba4eb2ad7c91a1710d769",
      "contractAddress": null
    }
  ],
  "libraries": [],
  "pending": [],
  "returns": {},
  "timestamp": 1736898984,
  "chain": 11155111,
  "commit": "51a374b"
}