{
  "transactions": [
    {
      "hash": "0x32a78ec3e14b7feb09e0e9af0536aaceff0f74a4532d9fcb6f15bb8ab0802108",
      "transactionType": "CALL",
      "contractName": null,
      "contractAddress": "0x270e88f8683660553e8ba4eb2ad7c91a1710d769",
      "function": "buy(address)",
      "arguments": [
        "0xC77f7fed3b5Cc8249aDc428c5F44C9063B9734b4"
      ],
      "transaction": {
        "from": "0xc77f7fed3b5cc8249adc428c5f44c9063b9734b4",
        "to": "0x270e88f8683660553e8ba4eb2ad7c91a1710d769",
        "gas": "0x1b30c",
        "value": "0xde0b6b3a7640000",
        "input": "0xf088d547000000000000000000000000c77f7fed3b5cc8249adc428c5f44c9063b9734b4",
        "nonce": "0x7e1",
        "chainId": "0xaa36a7"
      },
      "additionalContracts": [],
      "isFixedGasLimit": false
    }
  ],
  "receipts": [
    {
      "status": "0x1",
      "cumulativeGasUsed": "0x82914",
      "logs": [
        {
          "address": "0x270e88f8683660553e8ba4eb2ad7c91a1710d769",
          "topics": [
            "0xddf252ad1be2c89b69c2b068fc378daa952ba7f163c4a11628f55a4df523b3ef",
            "0x0000000000000000000000000000000000000000000000000000000000000000",
            "0x000000000000000000000000c77f7fed3b5cc8249adc428c5f44c9063b9734b4"
          ],
          "data": "0x0000000000000000000000000000000000000000000000273596e863215e41c0",
          "blockHash": "0x026307e4724d963618c35f0a797d31ef9c020173cbdf59e3506ab1af84f2be4b",
          "blockNumber": "0x72551c",
          "transactionHash": "0x32a78ec3e14b7feb09e0e9af0536aaceff0f74a4532d9fcb6f15bb8ab0802108",
          "transactionIndex": "0x7",
          "logIndex": "0xa",
          "removed": false
        },
        {
          "address": "0x270e88f8683660553e8ba4eb2ad7c91a1710d769",
          "topics": [
            "0xddf252ad1be2c89b69c2b068fc378daa952ba7f163c4a11628f55a4df523b3ef",
            "0x0000000000000000000000000000000000000000000000000000000000000000",
            "0x000000000000000000000000c77f7fed3b5cc8249adc428c5f44c9063b9734b4"
          ],
          "data": "0x0000000000000000000000000000000000000000000000001e7287d65e2ba9c1",
          "blockHash": "0x026307e4724d963618c35f0a797d31ef9c020173cbdf59e3506ab1af84f2be4b",
          "blockNumber": "0x72551c",
          "transactionHash": "0x32a78ec3e14b7feb09e0e9af0536aaceff0f74a4532d9fcb6f15bb8ab0802108",
          "transactionIndex": "0x7",
          "logIndex": "0xb",
          "removed": false
        },
        {
          "address": "0x270e88f8683660553e8ba4eb2ad7c91a1710d769",
          "topics": [
            "0x4afcb4a87cdbd9974efdb92ee48bc8d7cd0ae4bf217004db3d080cbaee652ca7"
          ],
          "data": "0x000000000000000000000000000000000000000000000000000000006786ef580000000000000000000000000000000000000000000000000004dcfb25a9bbdc0000000000000000000000000000000000000000000000000de0b6b3a7640000",
          "blockHash": "0x026307e4724d963618c35f0a797d31ef9c020173cbdf59e3506ab1af84f2be4b",
          "blockNumber": "0x72551c",
          "transactionHash": "0x32a78ec3e14b7feb09e0e9af0536aaceff0f74a4532d9fcb6f15bb8ab0802108",
          "transactionIndex": "0x7",
          "logIndex": "0xc",
          "removed": false
        }
      ],
      "logsBloom": "0x00000000000000000000000000000000000000000000000000000000000000000000000000000000000000000000000020000000000000004000000000000000000000000000000000000008000000000000000000000000000000000000000000000000020000000000000000000800020000000000000000000010000000000000000000010000000000000000000000000000000000000000010000000000000000000000000000000000000000004000000000000000000000000000000000000002000000800000000000000000000000000000080000008000000020000000000000000000000000000000000000000000000000000000000000000000",
      "type": "0x2",
      "transactionHash": "0x32a78ec3e14b7feb09e0e9af0536aaceff0f74a4532d9fcb6f15bb8ab0802108",
      "transactionIndex": "0x7",
      "blockHash": "0x026307e4724d963618c35f0a797d31ef9c020173cbdf59e3506ab1af84f2be4b",
      "blockNumber": "0x72551c",
      "gasUsed": "0x13af8",
      "effectiveGasPrice": "0xbb2fa3cd",
      "from": "0xc77f7fed3b5cc8249adc428c5f44c9063b9734b4",
      "to": "0x270e88f8683660553e8ba4eb2ad7c91a1710d769",
      "contractAddress": null
    }
  ],
  "libraries": [],
  "pending": [],
  "returns": {},
  "timestamp": 1736896345,
  "chain": 11155111,
  "commit": "51a374b"
}