{
  "transactions": [
    {
      "hash": "0xe217900f7941f1213f3721861b9bd4ac690d36761aaa6132137450a2a6a78a62",
      "transactionType": "CALL",
      "contractName": null,
      "contractAddress": "0x8aafd3ede9adb0ff97c7aebce82a919afb1c8764",
      "function": "sell(uint256)",
      "arguments": [
        "13613965058569353"
      ],
      "transaction": {
        "from": "0xc77f7fed3b5cc8249adc428c5f44c9063b9734b4",
        "to": "0x8aafd3ede9adb0ff97c7aebce82a919afb1c8764",
        "gas": "0x1724d",
        "value": "0x0",
        "input": "0xe4849b3200000000000000000000000000000000000000000000000000305dd43f4cf489",
        "nonce": "0x14dd",
        "chainId": "0xaa36a7"
      },
      "additionalContracts": [],
      "isFixedGasLimit": false
    }
  ],
  "receipts": [
    {
      "status": "0x1",
      "cumulativeGasUsed": "0x124d61e",
      "logs": [
        {
          "address": "0x8aafd3ede9adb0ff97c7aebce82a919afb1c8764",
          "topics": [
            "0xddf252ad1be2c89b69c2b068fc378daa952ba7f163c4a11628f55a4df523b3ef",
            "0x000000000000000000000000c77f7fed3b5cc8249adc428c5f44c9063b9734b4",
            "0x0000000000000000000000000000000000000000000000000000000000000000"
          ],
          "data": "0x000000000000000000000000000000000000000000000000002ffac642e3e43f",
          "blockHash": "0x0a6401387982914d59ee7447e8199e55f5166474b09c891b3417770023155ba2",
          "blockNumber": "0x731c3b",
          "transactionHash": "0xe217900f7941f1213f3721861b9bd4ac690d36761aaa6132137450a2a6a78a62",
          "transactionIndex": "0x99",
          "logIndex": "0xde",
          "removed": false
        },
        {
          "address": "0x8aafd3ede9adb0ff97c7aebce82a919afb1c8764",
          "topics": [
            "0xddf252ad1be2c89b69c2b068fc378daa952ba7f163c4a11628f55a4df523b3ef",
            "0x000000000000000000000000c77f7fed3b5cc8249adc428c5f44c9063b9734b4",
            "0x000000000000000000000000c77f7fed3b5cc8249adc428c5f44c9063b9734b4"
          ],
          "data": "0x0000000000000000000000000000000000000000000000000000630dfc69104a",
          "blockHash": "0x0a6401387982914d59ee7447e8199e55f5166474b09c891b3417770023155ba2",
          "blockNumber": "0x731c3b",
          "transactionHash": "0xe217900f7941f1213f3721861b9bd4ac690d36761aaa6132137450a2a6a78a62",
          "transactionIndex": "0x99",
          "logIndex": "0xdf",
          "removed": false
        },
        {
          "address": "0x8aafd3ede9adb0ff97c7aebce82a919afb1c8764",
          "topics": [
            "0x4afcb4a87cdbd9974efdb92ee48bc8d7cd0ae4bf217004db3d080cbaee652ca7"
          ],
          "data": "0x0000000000000000000000000000000000000000000000000000000067904fa00000000000000000000000000000000000000000000000000010b02e18f37c7d00000000000000000000000000000000000000000000000000003a294a7aebd2",
          "blockHash": "0x0a6401387982914d59ee7447e8199e55f5166474b09c891b3417770023155ba2",
          "blockNumber": "0x731c3b",
          "transactionHash": "0xe217900f7941f1213f3721861b9bd4ac690d36761aaa6132137450a2a6a78a62",
          "transactionIndex": "0x99",
          "logIndex": "0xe0",
          "removed": false
        }
      ],
      "logsBloom": "0x00000000000000000000000000000000000000000600000000000000000000000000000000000000000000000000000000000000000000004000000000000000000000000000004000000008000000000000000000000000000000000000000000000000020000000000000000000800020000000000000000000010000000000000000000000000000000000000000000000000000000000000010000000000000000000000000000000000000000004000000000000000000000000000000000000002000000800000000000000000000000000000080000000000000020000000000000000000000000000000000000000000000000000000000000000000",
      "type": "0x2",
      "transactionHash": "0xe217900f7941f1213f3721861b9bd4ac690d36761aaa6132137450a2a6a78a62",
      "transactionIndex": "0x99",
      "blockHash": "0x0a6401387982914d59ee7447e8199e55f5166474b09c891b3417770023155ba2",
      "blockNumber": "0x731c3b",
      "gasUsed": "0xfd33",
      "effectiveGasPrice": "0x13ecec787",
      "from": "0xc77f7fed3b5cc8249adc428c5f44c9063b9734b4",
      "to": "0x8aafd3ede9adb0ff97c7aebce82a919afb1c8764",
      "contractAddress": null
    }
  ],
  "libraries": [],
  "pending": [],
  "returns": {},
  "timestamp": 1737510817,
  "chain": 11155111,
  "commit": "1d2fb70"
}