{
  "transactions": [
    {
      "hash": "0x01e105d215b6a3e868b29089dd90097640ce222ac77085bdd054d3bceeeb4879",
      "transactionType": "CALL",
      "contractName": null,
      "contractAddress": "0x5eb9cc76c3506942c1c0ead70e877dd5e4f00cb0",
      "function": "buy(address)",
      "arguments": [
        "0xC77f7fed3b5Cc8249aDc428c5F44C9063B9734b4"
      ],
      "transaction": {
        "from": "0xc77f7fed3b5cc8249adc428c5f44c9063b9734b4",
        "to": "0x5eb9cc76c3506942c1c0ead70e877dd5e4f00cb0",
        "gas": "0x1b30c",
        "value": "0xde0b6b3a7640000",
        "input": "0xf088d547000000000000000000000000c77f7fed3b5cc8249adc428c5f44c9063b9734b4",
        "nonce": "0x302",
        "chainId": "0xaa36a7"
      },
      "additionalContracts": [],
      "isFixedGasLimit": false
    }
  ],
  "receipts": [
    {
      "status": "0x1",
      "cumulativeGasUsed": "0xd03ee7",
      "logs": [
        {
          "address": "0x5eb9cc76c3506942c1c0ead70e877dd5e4f00cb0",
          "topics": [
            "0xddf252ad1be2c89b69c2b068fc378daa952ba7f163c4a11628f55a4df523b3ef",
            "0x0000000000000000000000000000000000000000000000000000000000000000",
            "0x000000000000000000000000c77f7fed3b5cc8249adc428c5f44c9063b9734b4"
          ],
          "data": "0x00000000000000000000000000000000000000000000003575919713300a90fb",
          "blockHash": "0x53d7bfef6e74a7f8a94cd8942d1a5f89da3f1f0e8b517d480398d6f956b754a0",
          "blockNumber": "0x724ee3",
          "transactionHash": "0x01e105d215b6a3e868b29089dd90097640ce222ac77085bdd054d3bceeeb4879",
          "transactionIndex": "0x61",
          "logIndex": "0x85",
          "removed": false
        },
        {
          "address": "0x5eb9cc76c3506942c1c0ead70e877dd5e4f00cb0",
          "topics": [
            "0xddf252ad1be2c89b69c2b068fc378daa952ba7f163c4a11628f55a4df523b3ef",
            "0x0000000000000000000000000000000000000000000000000000000000000000",
            "0x000000000000000000000000c77f7fed3b5cc8249adc428c5f44c9063b9734b4"
          ],
          "data": "0x00000000000000000000000000000000000000000000000029834f98483d3912",
          "blockHash": "0x53d7bfef6e74a7f8a94cd8942d1a5f89da3f1f0e8b517d480398d6f956b754a0",
          "blockNumber": "0x724ee3",
          "transactionHash": "0x01e105d215b6a3e868b29089dd90097640ce222ac77085bdd054d3bceeeb4879",
          "transactionIndex": "0x61",
          "logIndex": "0x86",
          "removed": false
        },
        {
          "address": "0x5eb9cc76c3506942c1c0ead70e877dd5e4f00cb0",
          "topics": [
            "0x4afcb4a87cdbd9974efdb92ee48bc8d7cd0ae4bf217004db3d080cbaee652ca7"
          ],
          "data": "0x000000000000000000000000000000000000000000000000000000006786a4580000000000000000000000000000000000000000000000000003910bdbd3023c0000000000000000000000000000000000000000000000000de0b6b3a7640000",
          "blockHash": "0x53d7bfef6e74a7f8a94cd8942d1a5f89da3f1f0e8b517d480398d6f956b754a0",
          "blockNumber": "0x724ee3",
          "transactionHash": "0x01e105d215b6a3e868b29089dd90097640ce222ac77085bdd054d3bceeeb4879",
          "transactionIndex": "0x61",
          "logIndex": "0x87",
          "removed": false
        }
      ],
      "logsBloom": "0x00000000000000000000000000000000000000000000000000000000000000000000000000000000000000000000000000000000000000004000000000000000000000000000000000000008000000000000000000000000000000000000000000000000020000000000000004000800020000000000000000000010000000000000000000000000000000000000000000000000000000000000010000000000000000000000000000000000000000004000000000000000000000000000020000000002000000800000008000000000000000000000080000000000000020000000000000000000000000000000000000000000000000000000000000000000",
      "type": "0x2",
      "transactionHash": "0x01e105d215b6a3e868b29089dd90097640ce222ac77085bdd054d3bceeeb4879",
      "transactionIndex": "0x61",
      "blockHash": "0x53d7bfef6e74a7f8a94cd8942d1a5f89da3f1f0e8b517d480398d6f956b754a0",
      "blockNumber": "0x724ee3",
      "gasUsed": "0x13af8",
      "effectiveGasPrice": "0x6a8a6d5b5",
      "from": "0xc77f7fed3b5cc8249adc428c5f44c9063b9734b4",
      "to": "0x5eb9cc76c3506942c1c0ead70e877dd5e4f00cb0",
      "contractAddress": null
    }
  ],
  "libraries": [],
  "pending": [],
  "returns": {},
  "timestamp": 1736877146,
  "chain": 11155111,
  "commit": "51a374b"
}