{
  "transactions": [
    {
      "hash": "0x650cd18c5e83bd2a8526f585fc31643d684a6776b94465f5828b04ad19d036b4",
      "transactionType": "CALL",
      "contractName": null,
      "contractAddress": "0xbf4a322f1496e5c3d34a9bcdb4c60567b38c7de2",
      "function": "buy(address)",
      "arguments": [
        "0xC77f7fed3b5Cc8249aDc428c5F44C9063B9734b4"
      ],
      "transaction": {
        "from": "0xc77f7fed3b5cc8249adc428c5f44c9063b9734b4",
        "to": "0xbf4a322f1496e5c3d34a9bcdb4c60567b38c7de2",
        "gas": "0x1b309",
        "value": "0xde0b6b3a7640000",
        "input": "0xf088d547000000000000000000000000c77f7fed3b5cc8249adc428c5f44c9063b9734b4",
        "nonce": "0xa34",
        "chainId": "0xaa36a7"
      },
      "additionalContracts": [],
      "isFixedGasLimit": false
    }
  ],
  "receipts": [
    {
      "status": "0x1",
      "cumulativeGasUsed": "0xf2d64e",
      "logs": [
        {
          "address": "0xbf4a322f1496e5c3d34a9bcdb4c60567b38c7de2",
          "topics": [
            "0xddf252ad1be2c89b69c2b068fc378daa952ba7f163c4a11628f55a4df523b3ef",
            "0x0000000000000000000000000000000000000000000000000000000000000000",
            "0x000000000000000000000000c77f7fed3b5cc8249adc428c5f44c9063b9734b4"
          ],
          "data": "0x000000000000000000000000000000000000000000000035516a74db5cb6e589",
          "blockHash": "0x2e482dc163909add1233d519be856bcca29b6befffe4cb7335a3c05e1a2ed3d7",
          "blockNumber": "0x725a06",
          "transactionHash": "0x650cd18c5e83bd2a8526f585fc31643d684a6776b94465f5828b04ad19d036b4",
          "transactionIndex": "0xbc",
          "logIndex": "0x104",
          "removed": false
        },
        {
          "address": "0xbf4a322f1496e5c3d34a9bcdb4c60567b38c7de2",
          "topics": [
            "0xddf252ad1be2c89b69c2b068fc378daa952ba7f163c4a11628f55a4df523b3ef",
            "0x0000000000000000000000000000000000000000000000000000000000000000",
            "0x000000000000000000000000c77f7fed3b5cc8249adc428c5f44c9063b9734b4"
          ],
          "data": "0x00000000000000000000000000000000000000000000000029673caaf9907054",
          "blockHash": "0x2e482dc163909add1233d519be856bcca29b6befffe4cb7335a3c05e1a2ed3d7",
          "blockNumber": "0x725a06",
          "transactionHash": "0x650cd18c5e83bd2a8526f585fc31643d684a6776b94465f5828b04ad19d036b4",
          "transactionIndex": "0xbc",
          "logIndex": "0x105",
          "removed": false
        },
        {
          "address": "0xbf4a322f1496e5c3d34a9bcdb4c60567b38c7de2",
          "topics": [
            "0x4afcb4a87cdbd9974efdb92ee48bc8d7cd0ae4bf217004db3d080cbaee652ca7"
          ],
          "data": "0x0000000000000000000000000000000000000000000000000000000067872a980000000000000000000000000000000000000000000000000003937942b9a86e0000000000000000000000000000000000000000000000000de0b6b3a7640000",
          "blockHash": "0x2e482dc163909add1233d519be856bcca29b6befffe4cb7335a3c05e1a2ed3d7",
          "blockNumber": "0x725a06",
          "transactionHash": "0x650cd18c5e83bd2a8526f585fc31643d684a6776b94465f5828b04ad19d036b4",
          "transactionIndex": "0xbc",
          "logIndex": "0x106",
          "removed": false
        }
      ],
      "logsBloom": "0x00000000000000000000000000000000000000000000000000000000000000000000000000000000000000000000000000000000000000004000000000000000000000000000000000000008000000000000001000000000000000000000000000000000020000000000000000000800020000000000000000000010000000000000000000000000000000000000000000000000000008000000010000000000000000000000000000000000000000004000000000000000000000000000000000000002000000800000000000001000000000000000080000000000000020000000000000000000000000000000000000000000000000000000000000000000",
      "type": "0x2",
      "transactionHash": "0x650cd18c5e83bd2a8526f585fc31643d684a6776b94465f5828b04ad19d036b4",
      "transactionIndex": "0xbc",
      "blockHash": "0x2e482dc163909add1233d519be856bcca29b6befffe4cb7335a3c05e1a2ed3d7",
      "blockNumber": "0x725a06",
      "gasUsed": "0x13af6",
      "effectiveGasPrice": "0x5d8a652f9",
      "from": "0xc77f7fed3b5cc8249adc428c5f44c9063b9734b4",
      "to": "0xbf4a322f1496e5c3d34a9bcdb4c60567b38c7de2",
      "contractAddress": null
    }
  ],
  "libraries": [],
  "pending": [],
  "returns": {},
  "timestamp": 1736911513,
  "chain": 11155111,
  "commit": "51a374b"
}