{
  "transactions": [
    {
      "hash": "0x37ec7f50e7375c204aaf3d9de2a6ec8a5e717ffd92b2b886d3a66776e3da16ca",
      "transactionType": "CALL",
      "contractName": null,
      "contractAddress": "0x270e88f8683660553e8ba4eb2ad7c91a1710d769",
      "function": "sell(uint256)",
      "arguments": [
        "941803230598158304689"
      ],
      "transaction": {
        "from": "0xc77f7fed3b5cc8249adc428c5f44c9063b9734b4",
        "to": "0x270e88f8683660553e8ba4eb2ad7c91a1710d769",
        "gas": "0x16fec",
        "value": "0x0",
        "input": "0xe4849b320000000000000000000000000000000000000000000000330e253857768745b1",
        "nonce": "0x627",
        "chainId": "0xaa36a7"
      },
      "additionalContracts": [],
      "isFixedGasLimit": false
    }
  ],
  "receipts": [
    {
      "status": "0x1",
      "cumulativeGasUsed": "0x759ab1",
      "logs": [
        {
          "address": "0x270e88f8683660553e8ba4eb2ad7c91a1710d769",
          "topics": [
            "0xddf252ad1be2c89b69c2b068fc378daa952ba7f163c4a11628f55a4df523b3ef",
            "0x000000000000000000000000c77f7fed3b5cc8249adc428c5f44c9063b9734b4",
            "0x0000000000000000000000000000000000000000000000000000000000000000"
          ],
          "data": "0x0000000000000000000000000000000000000000000000330e253857768745b1",
          "blockHash": "0x937659cbb86d5f3e1f03c60ef0b72f6b4c44780cf76f6f58034dc3ca27a1fff5",
          "blockNumber": "0x7252f7",
          "transactionHash": "0x37ec7f50e7375c204aaf3d9de2a6ec8a5e717ffd92b2b886d3a66776e3da16ca",
          "transactionIndex": "0x46",
          "logIndex": "0x71",
          "removed": false
        },
        {
          "address": "0x270e88f8683660553e8ba4eb2ad7c91a1710d769",
          "topics": [
            "0x4afcb4a87cdbd9974efdb92ee48bc8d7cd0ae4bf217004db3d080cbaee652ca7"
          ],
          "data": "0x000000000000000000000000000000000000000000000000000000006786d59c0000000000000000000000000000000000000000000000000003bf3b0cc4077a0000000000000000000000000000000000000000000000000dc83d50eadfa302",
          "blockHash": "0x937659cbb86d5f3e1f03c60ef0b72f6b4c44780cf76f6f58034dc3ca27a1fff5",
          "blockNumber": "0x7252f7",
          "transactionHash": "0x37ec7f50e7375c204aaf3d9de2a6ec8a5e717ffd92b2b886d3a66776e3da16ca",
          "transactionIndex": "0x46",
          "logIndex": "0x72",
          "removed": false
        }
      ],
      "logsBloom": "0x00000000000000000000000000000000000000000000000000000000000000000000000000000000000000000000000020000000000000004000000000000000000000000000000000000008000000000000000000000000000000000000000000000000020000000000000000000800020000000000000000000010000000000000000000010000000000000000000000000000000000000000010000000000000000000000000000000000000000004000000000000000000000000000000000000002000000800000000000000000000000000000080000008000000020000000000000000000000000000000000000000000000000000000000000000000",
      "type": "0x2",
      "transactionHash": "0x37ec7f50e7375c204aaf3d9de2a6ec8a5e717ffd92b2b886d3a66776e3da16ca",
      "transactionIndex": "0x46",
      "blockHash": "0x937659cbb86d5f3e1f03c60ef0b72f6b4c44780cf76f6f58034dc3ca27a1fff5",
      "blockNumber": "0x7252f7",
      "gasUsed": "0xfb93",
      "effectiveGasPrice": "0x2a30d7729",
      "from": "0xc77f7fed3b5cc8249adc428c5f44c9063b9734b4",
      "to": "0x270e88f8683660553e8ba4eb2ad7c91a1710d769",
      "contractAddress": null
    }
  ],
  "libraries": [],
  "pending": [],
  "returns": {},
  "timestamp": 1736889758,
  "chain": 11155111,
  "commit": "51a374b"
}