{
  "transactions": [
    {
      "hash": "0xcb89b91e8296c57dd5e746cad5888e947715d80f90a4a8cc99c566c263381c30",
      "transactionType": "CALL",
      "contractName": null,
      "contractAddress": "0x8aafd3ede9adb0ff97c7aebce82a919afb1c8764",
      "function": "sell(uint256)",
      "arguments": [
        "1411794"
      ],
      "transaction": {
        "from": "0xc77f7fed3b5cc8249adc428c5f44c9063b9734b4",
        "to": "0x8aafd3ede9adb0ff97c7aebce82a919afb1c8764",
        "gas": "0x16208",
        "value": "0x0",
        "input": "0xe4849b320000000000000000000000000000000000000000000000000000000000158ad2",
        "nonce": "0x1264",
        "chainId": "0xaa36a7"
      },
      "additionalContracts": [],
      "isFixedGasLimit": false
    }
  ],
  "receipts": [
    {
      "status": "0x1",
      "cumulativeGasUsed": "0xaf8434",
      "logs": [
        {
          "address": "0x8aafd3ede9adb0ff97c7aebce82a919afb1c8764",
          "topics": [
            "0xddf252ad1be2c89b69c2b068fc378daa952ba7f163c4a11628f55a4df523b3ef",
            "0x000000000000000000000000c77f7fed3b5cc8249adc428c5f44c9063b9734b4",
            "0x0000000000000000000000000000000000000000000000000000000000000000"
          ],
          "data": "0x0000000000000000000000000000000000000000000000000000000000155eb4",
          "blockHash": "0xae0f25b37314e92539bcdad5f1a3446cfacdaa7364f84c3678bc4e93f7d61119",
          "blockNumber": "0x73194a",
          "transactionHash": "0xcb89b91e8296c57dd5e746cad5888e947715d80f90a4a8cc99c566c263381c30",
          "transactionIndex": "0x74",
          "logIndex": "0x9f",
          "removed": false
        },
        {
          "address": "0x8aafd3ede9adb0ff97c7aebce82a919afb1c8764",
          "topics": [
            "0xddf252ad1be2c89b69c2b068fc378daa952ba7f163c4a11628f55a4df523b3ef",
            "0x000000000000000000000000c77f7fed3b5cc8249adc428c5f44c9063b9734b4",
            "0x000000000000000000000000c77f7fed3b5cc8249adc428c5f44c9063b9734b4"
          ],
          "data": "0x0000000000000000000000000000000000000000000000000000000000002c1e",
          "blockHash": "0xae0f25b37314e92539bcdad5f1a3446cfacdaa7364f84c3678bc4e93f7d61119",
          "blockNumber": "0x73194a",
          "transactionHash": "0xcb89b91e8296c57dd5e746cad5888e947715d80f90a4a8cc99c566c263381c30",
          "transactionIndex": "0x74",
          "logIndex": "0xa0",
          "removed": false
        },
        {
          "address": "0x8aafd3ede9adb0ff97c7aebce82a919afb1c8764",
          "topics": [
            "0x4afcb4a87cdbd9974efdb92ee48bc8d7cd0ae4bf217004db3d080cbaee652ca7"
          ],
          "data": "0x0000000000000000000000000000000000000000000000000000000067902c4800000000000000000000000000000000000000000000000000053f02a7aa8b4e0000000000000000000000000000000000000000000000000000000000000824",
          "blockHash": "0xae0f25b37314e92539bcdad5f1a3446cfacdaa7364f84c3678bc4e93f7d61119",
          "blockNumber": "0x73194a",
          "transactionHash": "0xcb89b91e8296c57dd5e746cad5888e947715d80f90a4a8cc99c566c263381c30",
          "transactionIndex": "0x74",
          "logIndex": "0xa1",
          "removed": false
        }
      ],
      "logsBloom": "0x00000000000000000000000000000000000000000600000000000000000000000000000000000000000000000000000000000000000000004000000000000000000000000000004000000008000000000000000000000000000000000000000000000000020000000000000000000800020000000000000000000010000000000000000000000000000000000000000000000000000000000000010000000000000000000000000000000000000000004000000000000000000000000000000000000002000000800000000000000000000000000000080000000000000020000000000000000000000000000000000000000000000000000000000000000000",
      "type": "0x2",
      "transactionHash": "0xcb89b91e8296c57dd5e746cad5888e947715d80f90a4a8cc99c566c263381c30",
      "transactionIndex": "0x74",
      "blockHash": "0xae0f25b37314e92539bcdad5f1a3446cfacdaa7364f84c3678bc4e93f7d61119",
      "blockNumber": "0x73194a",
      "gasUsed": "0xf213",
      "effectiveGasPrice": "0x40327891",
      "from": "0xc77f7fed3b5cc8249adc428c5f44c9063b9734b4",
      "to": "0x8aafd3ede9adb0ff97c7aebce82a919afb1c8764",
      "contractAddress": null
    }
  ],
  "libraries": [],
  "pending": [],
  "returns": {},
  "timestamp": 1737501769,
  "chain": 11155111,
  "commit": "1d2fb70"
}