{
  "transactions": [
    {
      "hash": "0x720ed424ddf83b5e3503168753986e7f0fb3acb663d7ff1b8ff1ddb21632aafe",
      "transactionType": "CALL",
      "contractName": null,
      "contractAddress": "0x5eb9cc76c3506942c1c0ead70e877dd5e4f00cb0",
      "function": "sell(uint256)",
      "arguments": [
        "989110197796710581659"
      ],
      "transaction": {
        "from": "0xc77f7fed3b5cc8249adc428c5f44c9063b9734b4",
        "to": "0x5eb9cc76c3506942c1c0ead70e877dd5e4f00cb0",
        "gas": "0x16fec",
        "value": "0x0",
        "input": "0xe4849b320000000000000000000000000000000000000000000000359ea9545d9d4b059b",
        "nonce": "0x3c1",
        "chainId": "0xaa36a7"
      },
      "additionalContracts": [],
      "isFixedGasLimit": false
    }
  ],
  "receipts": [
    {
      "status": "0x1",
      "cumulativeGasUsed": "0x13968e0",
      "logs": [
        {
          "address": "0x5eb9cc76c3506942c1c0ead70e877dd5e4f00cb0",
          "topics": [
            "0xddf252ad1be2c89b69c2b068fc378daa952ba7f163c4a11628f55a4df523b3ef",
            "0x000000000000000000000000c77f7fed3b5cc8249adc428c5f44c9063b9734b4",
            "0x0000000000000000000000000000000000000000000000000000000000000000"
          ],
          "data": "0x0000000000000000000000000000000000000000000000359ea9545d9d4b059b",
          "blockHash": "0x713fb116dfede0c2dac3adc7739c9c5ed54f0b046ff13bdb4e45b4eaee7f83a2",
          "blockNumber": "0x724fc1",
          "transactionHash": "0x720ed424ddf83b5e3503168753986e7f0fb3acb663d7ff1b8ff1ddb21632aafe",
          "transactionIndex": "0xd5",
          "logIndex": "0x129",
          "removed": false
        },
        {
          "address": "0x5eb9cc76c3506942c1c0ead70e877dd5e4f00cb0",
          "topics": [
            "0x4afcb4a87cdbd9974efdb92ee48bc8d7cd0ae4bf217004db3d080cbaee652ca7"
          ],
          "data": "0x000000000000000000000000000000000000000000000000000000006786aed8000000000000000000000000000000000000000000000000000391130fe66b050000000000000000000000000000000000000000000000000dc7db1331f9980c",
          "blockHash": "0x713fb116dfede0c2dac3adc7739c9c5ed54f0b046ff13bdb4e45b4eaee7f83a2",
          "blockNumber": "0x724fc1",
          "transactionHash": "0x720ed424ddf83b5e3503168753986e7f0fb3acb663d7ff1b8ff1ddb21632aafe",
          "transactionIndex": "0xd5",
          "logIndex": "0x12a",
          "removed": false
        }
      ],
      "logsBloom": "0x00000000000000000000000000000000000000000000000000000000000000000000000000000000000000000000000000000000000000004000000000000000000000000000000000000008000000000000000000000000000000000000000000000000020000000000000004000800020000000000000000000010000000000000000000000000000000000000000000000000000000000000010000000000000000000000000000000000000000004000000000000000000000000000020000000002000000800000008000000000000000000000080000000000000020000000000000000000000000000000000000000000000000000000000000000000",
      "type": "0x2",
      "transactionHash": "0x720ed424ddf83b5e3503168753986e7f0fb3acb663d7ff1b8ff1ddb21632aafe",
      "transactionIndex": "0xd5",
      "blockHash": "0x713fb116dfede0c2dac3adc7739c9c5ed54f0b046ff13bdb4e45b4eaee7f83a2",
      "blockNumber": "0x724fc1",
      "gasUsed": "0xfb93",
      "effectiveGasPrice": "0x38251ad86",
      "from": "0xc77f7fed3b5cc8249adc428c5f44c9063b9734b4",
      "to": "0x5eb9cc76c3506942c1c0ead70e877dd5e4f00cb0",
      "contractAddress": null
    }
  ],
  "libraries": [],
  "pending": [],
  "returns": {},
  "timestamp": 1736879833,
  "chain": 11155111,
  "commit": "51a374b"
}