{
  "transactions": [
    {
      "hash": "0xe5fc2dfe5480965f6715c90cc7a5ed7fe9c10303f84aef7098b84348c4beb1cf",
      "transactionType": "CALL",
      "contractName": null,
      "contractAddress": "0xbf4a322f1496e5c3d34a9bcdb4c60567b38c7de2",
      "function": "buy(address)",
      "arguments": [
        "0xC77f7fed3b5Cc8249aDc428c5F44C9063B9734b4"
      ],
      "transaction": {
        "from": "0xc77f7fed3b5cc8249adc428c5f44c9063b9734b4",
        "to": "0xbf4a322f1496e5c3d34a9bcdb4c60567b38c7de2",
        "gas": "0x1b309",
        "value": "0xde0b6b3a7640000",
        "input": "0xf088d547000000000000000000000000c77f7fed3b5cc8249adc428c5f44c9063b9734b4",
        "nonce": "0xe32",
        "chainId": "0xaa36a7"
      },
      "additionalContracts": [],
      "isFixedGasLimit": false
    }
  ],
  "receipts": [
    {
      "status": "0x1",
      "cumulativeGasUsed": "0xc9dc47",
      "logs": [
        {
          "address": "0xbf4a322f1496e5c3d34a9bcdb4c60567b38c7de2",
          "topics": [
            "0xddf252ad1be2c89b69c2b068fc378daa952ba7f163c4a11628f55a4df523b3ef",
            "0x0000000000000000000000000000000000000000000000000000000000000000",
            "0x000000000000000000000000c77f7fed3b5cc8249adc428c5f44c9063b9734b4"
          ],
          "data": "0x00000000000000000000000000000000000000000000003493b2b7e9e0ecd60f",
          "blockHash": "0xb4ad2a17544bf9d08bcce8ccb1ec2a0917a919f282fda50d6dd6b5d1a7d392c6",
          "blockNumber": "0x726722",
          "transactionHash": "0xe5fc2dfe5480965f6715c90cc7a5ed7fe9c10303f84aef7098b84348c4beb1cf",
          "transactionIndex": "0x68",
          "logIndex": "0xd3",
          "removed": false
        },
        {
          "address": "0xbf4a322f1496e5c3d34a9bcdb4c60567b38c7de2",
          "topics": [
            "0xddf252ad1be2c89b69c2b068fc378daa952ba7f163c4a11628f55a4df523b3ef",
            "0x0000000000000000000000000000000000000000000000000000000000000000",
            "0x000000000000000000000000c77f7fed3b5cc8249adc428c5f44c9063b9734b4"
          ],
          "data": "0x00000000000000000000000000000000000000000000000028d3ea29a1fde054",
          "blockHash": "0xb4ad2a17544bf9d08bcce8ccb1ec2a0917a919f282fda50d6dd6b5d1a7d392c6",
          "blockNumber": "0x726722",
          "transactionHash": "0xe5fc2dfe5480965f6715c90cc7a5ed7fe9c10303f84aef7098b84348c4beb1cf",
          "transactionIndex": "0x68",
          "logIndex": "0xd4",
          "removed": false
        },
        {
          "address": "0xbf4a322f1496e5c3d34a9bcdb4c60567b38c7de2",
          "topics": [
            "0x4afcb4a87cdbd9974efdb92ee48bc8d7cd0ae4bf217004db3d080cbaee652ca7"
          ],
          "data": "0x000000000000000000000000000000000000000000000000000000006787c9080000000000000000000000000000000000000000000000000003a0609b6365c20000000000000000000000000000000000000000000000000de0b6b3a7640000",
          "blockHash": "0xb4ad2a17544bf9d08bcce8ccb1ec2a0917a919f282fda50d6dd6b5d1a7d392c6",
          "blockNumber": "0x726722",
          "transactionHash": "0xe5fc2dfe5480965f6715c90cc7a5ed7fe9c10303f84aef7098b84348c4beb1cf",
          "transactionIndex": "0x68",
          "logIndex": "0xd5",
          "removed": false
        }
      ],
      "logsBloom": "0x00000000000000000000000000000000000000000000000000000000000000000000000000000000000000000000000000000000000000004000000000000000000000000000000000000008000000000000001000000000000000000000000000000000020000000000000000000800020000000000000000000010000000000000000000000000000000000000000000000000000008000000010000000000000000000000000000000000000000004000000000000000000000000000000000000002000000800000000000001000000000000000080000000000000020000000000000000000000000000000000000000000000000000000000000000000",
      "type": "0x2",
      "transactionHash": "0xe5fc2dfe5480965f6715c90cc7a5ed7fe9c10303f84aef7098b84348c4beb1cf",
      "transactionIndex": "0x68",
      "blockHash": "0xb4ad2a17544bf9d08bcce8ccb1ec2a0917a919f282fda50d6dd6b5d1a7d392c6",
      "blockNumber": "0x726722",
      "gasUsed": "0x13af6",
      "effectiveGasPrice": "0x7cde4192c",
      "from": "0xc77f7fed3b5cc8249adc428c5f44c9063b9734b4",
      "to": "0xbf4a322f1496e5c3d34a9bcdb4c60567b38c7de2",
      "contractAddress": null
    }
  ],
  "libraries": [],
  "pending": [],
  "returns": {},
  "timestamp": 1736952073,
  "chain": 11155111,
  "commit": "51a374b"
}