{
  "transactions": [
    {
      "hash": "0x5aafabd96b656d997b623fc36274f5d769a0f267c75257160eee52506f1f6407",
      "transactionType": "CALL",
      "contractName": null,
      "contractAddress": "0x5eb9cc76c3506942c1c0ead70e877dd5e4f00cb0",
      "function": "sell(uint256)",
      "arguments": [
        "989134739325845763186"
      ],
      "transaction": {
        "from": "0xc77f7fed3b5cc8249adc428c5f44c9063b9734b4",
        "to": "0x5eb9cc76c3506942c1c0ead70e877dd5e4f00cb0",
        "gas": "0x15b6b",
        "value": "0x0",
        "input": "0xe4849b320000000000000000000000000000000000000000000000359f0084c1a3a3f472",
        "nonce": "0x327",
        "chainId": "0xaa36a7"
      },
      "additionalContracts": [],
      "isFixedGasLimit": false
    }
  ],
  "receipts": [
    {
      "status": "0x1",
      "cumulativeGasUsed": "0x11e7606",
      "logs": [
        {
          "address": "0x5eb9cc76c3506942c1c0ead70e877dd5e4f00cb0",
          "topics": [
            "0xddf252ad1be2c89b69c2b068fc378daa952ba7f163c4a11628f55a4df523b3ef",
            "0x000000000000000000000000c77f7fed3b5cc8249adc428c5f44c9063b9734b4",
            "0x0000000000000000000000000000000000000000000000000000000000000000"
          ],
          "data": "0x0000000000000000000000000000000000000000000000359f0084c1a3a3f472",
          "blockHash": "0x958843262c7c55591c3495b07d7819dc6fc1ad12d360966da094d4793b15c512",
          "blockNumber": "0x724f10",
          "transactionHash": "0x5aafabd96b656d997b623fc36274f5d769a0f267c75257160eee52506f1f6407",
          "transactionIndex": "0x98",
          "logIndex": "0x102",
          "removed": false
        },
        {
          "address": "0x5eb9cc76c3506942c1c0ead70e877dd5e4f00cb0",
          "topics": [
            "0x4afcb4a87cdbd9974efdb92ee48bc8d7cd0ae4bf217004db3d080cbaee652ca7"
          ],
          "data": "0x000000000000000000000000000000000000000000000000000000006786a6740000000000000000000000000000000000000000000000000003910d4338f50a0000000000000000000000000000000000000000000000000dc7db133225432c",
          "blockHash": "0x958843262c7c55591c3495b07d7819dc6fc1ad12d360966da094d4793b15c512",
          "blockNumber": "0x724f10",
          "transactionHash": "0x5aafabd96b656d997b623fc36274f5d769a0f267c75257160eee52506f1f6407",
          "transactionIndex": "0x98",
          "logIndex": "0x103",
          "removed": false
        }
      ],
      "logsBloom": "0x00000000000000000000000000000000000000000000000000000000000000000000000000000000000000000000000000000000000000004000000000000000000000000000000000000008000000000000000000000000000000000000000000000000020000000000000004000800020000000000000000000010000000000000000000000000000000000000000000000000000000000000010000000000000000000000000000000000000000004000000000000000000000000000020000000002000000800000008000000000000000000000080000000000000020000000000000000000000000000000000000000000000000000000000000000000",
      "type": "0x2",
      "transactionHash": "0x5aafabd96b656d997b623fc36274f5d769a0f267c75257160eee52506f1f6407",
      "transactionIndex": "0x98",
      "blockHash": "0x958843262c7c55591c3495b07d7819dc6fc1ad12d360966da094d4793b15c512",
      "blockNumber": "0x724f10",
      "gasUsed": "0xfb87",
      "effectiveGasPrice": "0x647004ded",
      "from": "0xc77f7fed3b5cc8249adc428c5f44c9063b9734b4",
      "to": "0x5eb9cc76c3506942c1c0ead70e877dd5e4f00cb0",
      "contractAddress": null
    }
  ],
  "libraries": [],
  "pending": [],
  "returns": {},
  "timestamp": 1736877684,
  "chain": 11155111,
  "commit": "51a374b"
}