{
  "transactions": [
    {
      "hash": "0xbf682e961d39b84c587faabb0b88f76b0c666e3a823506c9a3ad26ed19aa92f8",
      "transactionType": "CALL",
      "contractName": null,
      "contractAddress": "0x8aafd3ede9adb0ff97c7aebce82a919afb1c8764",
      "function": "sell(uint256)",
      "arguments": [
        "574301"
      ],
      "transaction": {
        "from": "0xc77f7fed3b5cc8249adc428c5f44c9063b9734b4",
        "to": "0x8aafd3ede9adb0ff97c7aebce82a919afb1c8764",
        "gas": "0x16208",
        "value": "0x0",
        "input": "0xe4849b32000000000000000000000000000000000000000000000000000000000008c35d",
        "nonce": "0x139e",
        "chainId": "0xaa36a7"
      },
      "additionalContracts": [],
      "isFixedGasLimit": false
    }
  ],
  "receipts": [
    {
      "status": "0x1",
      "cumulativeGasUsed": "0x777417",
      "logs": [
        {
          "address": "0x8aafd3ede9adb0ff97c7aebce82a919afb1c8764",
          "topics": [
            "0xddf252ad1be2c89b69c2b068fc378daa952ba7f163c4a11628f55a4df523b3ef",
            "0x000000000000000000000000c77f7fed3b5cc8249adc428c5f44c9063b9734b4",
            "0x0000000000000000000000000000000000000000000000000000000000000000"
          ],
          "data": "0x000000000000000000000000000000000000000000000000000000000008b16b",
          "blockHash": "0x0a823982f3bcf66e15fd97757d2dd7352057d73b29997f113d7d4a210ea51931",
          "blockNumber": "0x731ac4",
          "transactionHash": "0xbf682e961d39b84c587faabb0b88f76b0c666e3a823506c9a3ad26ed19aa92f8",
          "transactionIndex": "0x3d",
          "logIndex": "0x43",
          "removed": false
        },
        {
          "address": "0x8aafd3ede9adb0ff97c7aebce82a919afb1c8764",
          "topics": [
            "0xddf252ad1be2c89b69c2b068fc378daa952ba7f163c4a11628f55a4df523b3ef",
            "0x000000000000000000000000c77f7fed3b5cc8249adc428c5f44c9063b9734b4",
            "0x000000000000000000000000c77f7fed3b5cc8249adc428c5f44c9063b9734b4"
          ],
          "data": "0x00000000000000000000000000000000000000000000000000000000000011f2",
          "blockHash": "0x0a823982f3bcf66e15fd97757d2dd7352057d73b29997f113d7d4a210ea51931",
          "blockNumber": "0x731ac4",
          "transactionHash": "0xbf682e961d39b84c587faabb0b88f76b0c666e3a823506c9a3ad26ed19aa92f8",
          "transactionIndex": "0x3d",
          "logIndex": "0x44",
          "removed": false
        },
        {
          "address": "0x8aafd3ede9adb0ff97c7aebce82a919afb1c8764",
          "topics": [
            "0x4afcb4a87cdbd9974efdb92ee48bc8d7cd0ae4bf217004db3d080cbaee652ca7"
          ],
          "data": "0x0000000000000000000000000000000000000000000000000000000067903e00000000000000000000000000000000000000000000000000000cfc0d0d51bce40000000000000000000000000000000000000000000000000000000000000832",
          "blockHash": "0x0a823982f3bcf66e15fd97757d2dd7352057d73b29997f113d7d4a210ea51931",
          "blockNumber": "0x731ac4",
          "transactionHash": "0xbf682e961d39b84c587faabb0b88f76b0c666e3a823506c9a3ad26ed19aa92f8",
          "transactionIndex": "0x3d",
          "logIndex": "0x45",
          "removed": false
        }
      ],
      "logsBloom": "0x00000000000000000000000000000000000000000600000000000000000000000000000000000000000000000000000000000000000000004000000000000000000000000000004000000008000000000000000000000000000000000000000000000000020000000000000000000800020000000000000000000010000000000000000000000000000000000000000000000000000000000000010000000000000000000000000000000000000000004000000000000000000000000000000000000002000000800000000000000000000000000000080000000000000020000000000000000000000000000000000000000000000000000000000000000000",
      "type": "0x2",
      "transactionHash": "0xbf682e961d39b84c587faabb0b88f76b0c666e3a823506c9a3ad26ed19aa92f8",
      "transactionIndex": "0x3d",
      "blockHash": "0x0a823982f3bcf66e15fd97757d2dd7352057d73b29997f113d7d4a210ea51931",
      "blockNumber": "0x731ac4",
      "gasUsed": "0xf213",
      "effectiveGasPrice": "0x86a1825c",
      "from": "0xc77f7fed3b5cc8249adc428c5f44c9063b9734b4",
      "to": "0x8aafd3ede9adb0ff97c7aebce82a919afb1c8764",
      "contractAddress": null
    }
  ],
  "libraries": [],
  "pending": [],
  "returns": {},
  "timestamp": 1737506305,
  "chain": 11155111,
  "commit": "1d2fb70"
}