{
  "transactions": [
    {
      "hash": "0x094d86d59df6994412f8cb3d8702ca38b3ec4f93edc84e3a3e22a52ccd3e515c",
      "transactionType": "CALL",
      "contractName": null,
      "contractAddress": "0x5eb9cc76c3506942c1c0ead70e877dd5e4f00cb0",
      "function": "buy(address)",
      "arguments": [
        "0xC77f7fed3b5Cc8249aDc428c5F44C9063B9734b4"
      ],
      "transaction": {
        "from": "0xc77f7fed3b5cc8249adc428c5f44c9063b9734b4",
        "to": "0x5eb9cc76c3506942c1c0ead70e877dd5e4f00cb0",
        "gas": "0x1b30c",
        "value": "0xde0b6b3a7640000",
        "input": "0xf088d547000000000000000000000000c77f7fed3b5cc8249adc428c5f44c9063b9734b4",
        "nonce": "0x33c",
        "chainId": "0xaa36a7"
      },
      "additionalContracts": [],
      "isFixedGasLimit": false
    }
  ],
  "receipts": [
    {
      "status": "0x1",
      "cumulativeGasUsed": "0x1d587d3",
      "logs": [
        {
          "address": "0x5eb9cc76c3506942c1c0ead70e877dd5e4f00cb0",
          "topics": [
            "0xddf252ad1be2c89b69c2b068fc378daa952ba7f163c4a11628f55a4df523b3ef",
            "0x0000000000000000000000000000000000000000000000000000000000000000",
            "0x000000000000000000000000c77f7fed3b5cc8249adc428c5f44c9063b9734b4"
          ],
          "data": "0x0000000000000000000000000000000000000000000000357570d9e3b2ccd451",
          "blockHash": "0x41a9786c56b174466821d638344ab899276e02afb94497a67dc5c3c9e1faeac0",
          "blockNumber": "0x724f2a",
          "transactionHash": "0x094d86d59df6994412f8cb3d8702ca38b3ec4f93edc84e3a3e22a52ccd3e515c",
          "transactionIndex": "0x59",
          "logIndex": "0x8f",
          "removed": false
        },
        {
          "address": "0x5eb9cc76c3506942c1c0ead70e877dd5e4f00cb0",
          "topics": [
            "0xddf252ad1be2c89b69c2b068fc378daa952ba7f163c4a11628f55a4df523b3ef",
            "0x0000000000000000000000000000000000000000000000000000000000000000",
            "0x000000000000000000000000c77f7fed3b5cc8249adc428c5f44c9063b9734b4"
          ],
          "data": "0x0000000000000000000000000000000000000000000000002983362c0179654a",
          "blockHash": "0x41a9786c56b174466821d638344ab899276e02afb94497a67dc5c3c9e1faeac0",
          "blockNumber": "0x724f2a",
          "transactionHash": "0x094d86d59df6994412f8cb3d8702ca38b3ec4f93edc84e3a3e22a52ccd3e515c",
          "transactionIndex": "0x59",
          "logIndex": "0x90",
          "removed": false
        },
        {
          "address": "0x5eb9cc76c3506942c1c0ead70e877dd5e4f00cb0",
          "topics": [
            "0x4afcb4a87cdbd9974efdb92ee48bc8d7cd0ae4bf217004db3d080cbaee652ca7"
          ],
          "data": "0x000000000000000000000000000000000000000000000000000000006786a7ac0000000000000000000000000000000000000000000000000003910e0afd10be0000000000000000000000000000000000000000000000000de0b6b3a7640000",
          "blockHash": "0x41a9786c56b174466821d638344ab899276e02afb94497a67dc5c3c9e1faeac0",
          "blockNumber": "0x724f2a",
          "transactionHash": "0x094d86d59df6994412f8cb3d8702ca38b3ec4f93edc84e3a3e22a52ccd3e515c",
          "transactionIndex": "0x59",
          "logIndex": "0x91",
          "removed": false
        }
      ],
      "logsBloom": "0x00000000000000000000000000000000000000000000000000000000000000000000000000000000000000000000000000000000000000004000000000000000000000000000000000000008000000000000000000000000000000000000000000000000020000000000000004000800020000000000000000000010000000000000000000000000000000000000000000000000000000000000010000000000000000000000000000000000000000004000000000000000000000000000020000000002000000800000008000000000000000000000080000000000000020000000000000000000000000000000000000000000000000000000000000000000",
      "type": "0x2",
      "transactionHash": "0x094d86d59df6994412f8cb3d8702ca38b3ec4f93edc84e3a3e22a52ccd3e515c",
      "transactionIndex": "0x59",
      "blockHash": "0x41a9786c56b174466821d638344ab899276e02afb94497a67dc5c3c9e1faeac0",
      "blockNumber": "0x724f2a",
      "gasUsed": "0x13af8",
      "effectiveGasPrice": "0x61308fd49",
      "from": "0xc77f7fed3b5cc8249adc428c5f44c9063b9734b4",
      "to": "0x5eb9cc76c3506942c1c0ead70e877dd5e4f00cb0",
      "contractAddress": null
    }
  ],
  "libraries": [],
  "pending": [],
  "returns": {},
  "timestamp": 1736877997,
  "chain": 11155111,
  "commit": "51a374b"
}