{
  "transactions": [
    {
      "hash": "0x85af061e98bb6e743e88a253d41a7049b0eeafaa97dbb29abed7686ce85af3cf",
      "transactionType": "CALL",
      "contractName": null,
      "contractAddress": "0x270e88f8683660553e8ba4eb2ad7c91a1710d769",
      "function": "buy(address)",
      "arguments": [
        "0xC77f7fed3b5Cc8249aDc428c5F44C9063B9734b4"
      ],
      "transaction": {
        "from": "0xc77f7fed3b5cc8249adc428c5f44c9063b9734b4",
        "to": "0x270e88f8683660553e8ba4eb2ad7c91a1710d769",
        "gas": "0x1b30c",
        "value": "0xde0b6b3a7640000",
        "input": "0xf088d547000000000000000000000000c77f7fed3b5cc8249adc428c5f44c9063b9734b4",
        "nonce": "0x7f9",
        "chainId": "0xaa36a7"
      },
      "additionalContracts": [],
      "isFixedGasLimit": false
    }
  ],
  "receipts": [
    {
      "status": "0x1",
      "cumulativeGasUsed": "0x1582b4f",
      "logs": [
        {
          "address": "0x270e88f8683660553e8ba4eb2ad7c91a1710d769",
          "topics": [
            "0xddf252ad1be2c89b69c2b068fc378daa952ba7f163c4a11628f55a4df523b3ef",
            "0x0000000000000000000000000000000000000000000000000000000000000000",
            "0x000000000000000000000000c77f7fed3b5cc8249adc428c5f44c9063b9734b4"
          ],
          "data": "0x0000000000000000000000000000000000000000000000271952a17f635c5e44",
          "blockHash": "0xf8e12ad01a75b786de380a28d903d96b5a42c23ac2b5c547636dc1c751dc66f2",
          "blockNumber": "0x725536",
          "transactionHash": "0x85af061e98bb6e743e88a253d41a7049b0eeafaa97dbb29abed7686ce85af3cf",
          "transactionIndex": "0x4c",
          "logIndex": "0x1e9",
          "removed": false
        },
        {
          "address": "0x270e88f8683660553e8ba4eb2ad7c91a1710d769",
          "topics": [
            "0xddf252ad1be2c89b69c2b068fc378daa952ba7f163c4a11628f55a4df523b3ef",
            "0x0000000000000000000000000000000000000000000000000000000000000000",
            "0x000000000000000000000000c77f7fed3b5cc8249adc428c5f44c9063b9734b4"
          ],
          "data": "0x0000000000000000000000000000000000000000000000001e5c949f1c27da34",
          "blockHash": "0xf8e12ad01a75b786de380a28d903d96b5a42c23ac2b5c547636dc1c751dc66f2",
          "blockNumber": "0x725536",
          "transactionHash": "0x85af061e98bb6e743e88a253d41a7049b0eeafaa97dbb29abed7686ce85af3cf",
          "transactionIndex": "0x4c",
          "logIndex": "0x1ea",
          "removed": false
        },
        {
          "address": "0x270e88f8683660553e8ba4eb2ad7c91a1710d769",
          "topics": [
            "0x4afcb4a87cdbd9974efdb92ee48bc8d7cd0ae4bf217004db3d080cbaee652ca7"
          ],
          "data": "0x000000000000000000000000000000000000000000000000000000006786f0900000000000000000000000000000000000000000000000000004e07f22cb0a970000000000000000000000000000000000000000000000000de0b6b3a7640000",
          "blockHash": "0xf8e12ad01a75b786de380a28d903d96b5a42c23ac2b5c547636dc1c751dc66f2",
          "blockNumber": "0x725536",
          "transactionHash": "0x85af061e98bb6e743e88a253d41a7049b0eeafaa97dbb29abed7686ce85af3cf",
          "transactionIndex": "0x4c",
          "logIndex": "0x1eb",
          "removed": false
        }
      ],
      "logsBloom": "0x00000000000000000000000000000000000000000000000000000000000000000000000000000000000000000000000020000000000000004000000000000000000000000000000000000008000000000000000000000000000000000000000000000000020000000000000000000800020000000000000000000010000000000000000000010000000000000000000000000000000000000000010000000000000000000000000000000000000000004000000000000000000000000000000000000002000000800000000000000000000000000000080000008000000020000000000000000000000000000000000000000000000000000000000000000000",
      "type": "0x2",
      "transactionHash": "0x85af061e98bb6e743e88a253d41a7049b0eeafaa97dbb29abed7686ce85af3cf",
      "transactionIndex": "0x4c",
      "blockHash": "0xf8e12ad01a75b786de380a28d903d96b5a42c23ac2b5c547636dc1c751dc66f2",
      "blockNumber": "0x725536",
      "gasUsed": "0x13af8",
      "effectiveGasPrice": "0x8fd5d80e",
      "from": "0xc77f7fed3b5cc8249adc428c5f44c9063b9734b4",
      "to": "0x270e88f8683660553e8ba4eb2ad7c91a1710d769",
      "contractAddress": null
    }
  ],
  "libraries": [],
  "pending": [],
  "returns": {},
  "timestamp": 1736896658,
  "chain": 11155111,
  "commit": "51a374b"
}