{
  "transactions": [
    {
      "hash": "0xff275f4a609cd39b781680760ccf971d8b2811a0b51aa5369c5539594a3e6bb0",
      "transactionType": "CALL",
      "contractName": null,
      "contractAddress": "0x8aafd3ede9adb0ff97c7aebce82a919afb1c8764",
      "function": "sell(uint256)",
      "arguments": [
        "11405"
      ],
      "transaction": {
        "from": "0xc77f7fed3b5cc8249adc428c5f44c9063b9734b4",
        "to": "0x8aafd3ede9adb0ff97c7aebce82a919afb1c8764",
        "gas": "0x14e4c",
        "value": "0x0",
        "input": "0xe4849b320000000000000000000000000000000000000000000000000000000000002c8d",
        "nonce": "0x120b",
        "chainId": "0xaa36a7"
      },
      "additionalContracts": [],
      "isFixedGasLimit": false
    }
  ],
  "receipts": [
    {
      "status": "0x1",
      "cumulativeGasUsed": "0x7fb951",
      "logs": [
        {
          "address": "0x8aafd3ede9adb0ff97c7aebce82a919afb1c8764",
          "topics": [
            "0xddf252ad1be2c89b69c2b068fc378daa952ba7f163c4a11628f55a4df523b3ef",
            "0x000000000000000000000000c77f7fed3b5cc8249adc428c5f44c9063b9734b4",
            "0x0000000000000000000000000000000000000000000000000000000000000000"
          ],
          "data": "0x0000000000000000000000000000000000000000000000000000000000002c32",
          "blockHash": "0xd1ac90359a2bc0f16c7cd83a9d1c168a0bd63c1d243963c671903043d2c797a4",
          "blockNumber": "0x7318e6",
          "transactionHash": "0xff275f4a609cd39b781680760ccf971d8b2811a0b51aa5369c5539594a3e6bb0",
          "transactionIndex": "0x6e",
          "logIndex": "0x71",
          "removed": false
        },
        {
          "address": "0x8aafd3ede9adb0ff97c7aebce82a919afb1c8764",
          "topics": [
            "0xddf252ad1be2c89b69c2b068fc378daa952ba7f163c4a11628f55a4df523b3ef",
            "0x000000000000000000000000c77f7fed3b5cc8249adc428c5f44c9063b9734b4",
            "0x000000000000000000000000c77f7fed3b5cc8249adc428c5f44c9063b9734b4"
          ],
          "data": "0x000000000000000000000000000000000000000000000000000000000000005b",
          "blockHash": "0xd1ac90359a2bc0f16c7cd83a9d1c168a0bd63c1d243963c671903043d2c797a4",
          "blockNumber": "0x7318e6",
          "transactionHash": "0xff275f4a609cd39b781680760ccf971d8b2811a0b51aa5369c5539594a3e6bb0",
          "transactionIndex": "0x6e",
          "logIndex": "0x72",
          "removed": false
        },
        {
          "address": "0x8aafd3ede9adb0ff97c7aebce82a919afb1c8764",
          "topics": [
            "0x4afcb4a87cdbd9974efdb92ee48bc8d7cd0ae4bf217004db3d080cbaee652ca7"
          ],
          "data": "0x0000000000000000000000000000000000000000000000000000000067902798000000000000000000000000000000000000000000000000000531ee962594df0000000000000000000000000000000000000000000000000000000000000010",
          "blockHash": "0xd1ac90359a2bc0f16c7cd83a9d1c168a0bd63c1d243963c671903043d2c797a4",
          "blockNumber": "0x7318e6",
          "transactionHash": "0xff275f4a609cd39b781680760ccf971d8b2811a0b51aa5369c5539594a3e6bb0",
          "transactionIndex": "0x6e",
          "logIndex": "0x73",
          "removed": false
        }
      ],
      "logsBloom": "0x00000000000000000000000000000000000000000600000000000000000000000000000000000000000000000000000000000000000000004000000000000000000000000000004000000008000000000000000000000000000000000000000000000000020000000000000000000800020000000000000000000010000000000000000000000000000000000000000000000000000000000000010000000000000000000000000000000000000000004000000000000000000000000000000000000002000000800000000000000000000000000000080000000000000020000000000000000000000000000000000000000000000000000000000000000000",
      "type": "0x2",
      "transactionHash": "0xff275f4a609cd39b781680760ccf971d8b2811a0b51aa5369c5539594a3e6bb0",
      "transactionIndex": "0x6e",
      "blockHash": "0xd1ac90359a2bc0f16c7cd83a9d1c168a0bd63c1d243963c671903043d2c797a4",
      "blockNumber": "0x7318e6",
      "gasUsed": "0xf207",
      "effectiveGasPrice": "0x482cb043",
      "from": "0xc77f7fed3b5cc8249adc428c5f44c9063b9734b4",
      "to": "0x8aafd3ede9adb0ff97c7aebce82a919afb1c8764",
      "contractAddress": null
    }
  ],
  "libraries": [],
  "pending": [],
  "returns": {},
  "timestamp": 1737500570,
  "chain": 11155111,
  "commit": "1d2fb70"
}