{
  "transactions": [
    {
      "hash": "0xd650dfd66bcc891dc2944a73c23ce2fa52a610f48859b76e59f37f9efe6ba3ea",
      "transactionType": "CALL",
      "contractName": null,
      "contractAddress": "0x5eb9cc76c3506942c1c0ead70e877dd5e4f00cb0",
      "function": "buy(address)",
      "arguments": [
        "0xC77f7fed3b5Cc8249aDc428c5F44C9063B9734b4"
      ],
      "transaction": {
        "from": "0xc77f7fed3b5cc8249adc428c5f44c9063b9734b4",
        "to": "0x5eb9cc76c3506942c1c0ead70e877dd5e4f00cb0",
        "gas": "0x156c8",
        "value": "0xde0b6b3a7640000",
        "input": "0xf088d547000000000000000000000000c77f7fed3b5cc8249adc428c5f44c9063b9734b4",
        "nonce": "0x1d2",
        "chainId": "0xaa36a7"
      },
      "additionalContracts": [],
      "isFixedGasLimit": false
    }
  ],
  "receipts": [
    {
      "status": "0x1",
      "cumulativeGasUsed": "0x750da1",
      "logs": [
        {
          "address": "0x5eb9cc76c3506942c1c0ead70e877dd5e4f00cb0",
          "topics": [
            "0xddf252ad1be2c89b69c2b068fc378daa952ba7f163c4a11628f55a4df523b3ef",
            "0x0000000000000000000000000000000000000000000000000000000000000000",
            "0x000000000000000000000000c77f7fed3b5cc8249adc428c5f44c9063b9734b4"
          ],
          "data": "0x000000000000000000000000000000000000000000000035a364ad527a2f38f4",
          "blockHash": "0x867fdb5863415490783813fae0738e348a888e022108b15f00550765859f499e",
          "blockNumber": "0x723cc1",
          "transactionHash": "0xd650dfd66bcc891dc2944a73c23ce2fa52a610f48859b76e59f37f9efe6ba3ea",
          "transactionIndex": "0x37",
          "logIndex": "0x4e",
          "removed": false
        },
        {
          "address": "0x5eb9cc76c3506942c1c0ead70e877dd5e4f00cb0",
          "topics": [
            "0xddf252ad1be2c89b69c2b068fc378daa952ba7f163c4a11628f55a4df523b3ef",
            "0x0000000000000000000000000000000000000000000000000000000000000000",
            "0x000000000000000000000000c77f7fed3b5cc8249adc428c5f44c9063b9734b4"
          ],
          "data": "0x00000000000000000000000000000000000000000000000029a6e52f19364289",
          "blockHash": "0x867fdb5863415490783813fae0738e348a888e022108b15f00550765859f499e",
          "blockNumber": "0x723cc1",
          "transactionHash": "0xd650dfd66bcc891dc2944a73c23ce2fa52a610f48859b76e59f37f9efe6ba3ea",
          "transactionIndex": "0x37",
          "logIndex": "0x4f",
          "removed": false
        },
        {
          "address": "0x5eb9cc76c3506942c1c0ead70e877dd5e4f00cb0",
          "topics": [
            "0x4afcb4a87cdbd9974efdb92ee48bc8d7cd0ae4bf217004db3d080cbaee652ca7"
          ],
          "data": "0x000000000000000000000000000000000000000000000000000000006785ca6000000000000000000000000000000000000000000000000000038dffd1ca13e70000000000000000000000000000000000000000000000000de0b6b3a7640000",
          "blockHash": "0x867fdb5863415490783813fae0738e348a888e022108b15f00550765859f499e",
          "blockNumber": "0x723cc1",
          "transactionHash": "0xd650dfd66bcc891dc2944a73c23ce2fa52a610f48859b76e59f37f9efe6ba3ea",
          "transactionIndex": "0x37",
          "logIndex": "0x50",
          "removed": false
        }
      ],
      "logsBloom": "0x00000000000000000000000000000000000000000000000000000000000000000000000000000000000000000000000000000000000000004000000000000000000000000000000000000008000000000000000000000000000000000000000000000000020000000000000004000800020000000000000000000010000000000000000000000000000000000000000000000000000000000000010000000000000000000000000000000000000000004000000000000000000000000000020000000002000000800000008000000000000000000000080000000000000020000000000000000000000000000000000000000000000000000000000000000000",
      "type": "0x2",
      "transactionHash": "0xd650dfd66bcc891dc2944a73c23ce2fa52a610f48859b76e59f37f9efe6ba3ea",
      "transactionIndex": "0x37",
      "blockHash": "0x867fdb5863415490783813fae0738e348a888e022108b15f00550765859f499e",
      "blockNumber": "0x723cc1",
      "gasUsed": "0xf82c",
      "effectiveGasPrice": "0x1ff0a321f",
      "from": "0xc77f7fed3b5cc8249adc428c5f44c9063b9734b4",
      "to": "0x5eb9cc76c3506942c1c0ead70e877dd5e4f00cb0",
      "contractAddress": null
    }
  ],
  "libraries": [],
  "pending": [],
  "returns": {},
  "timestamp": 1736821344,
  "chain": 11155111,
  "commit": "51a374b"
}