{
  "transactions": [
    {
      "hash": "0x04111ed563dc98c3cd5c15aacc110789ebd6b2589ed5134dd089e4c85757b549",
      "transactionType": "CALL",
      "contractName": null,
      "contractAddress": "0x1a4492e52628ced854b6a88e83916d807b59b6e0",
      "function": "buy(address)",
      "arguments": [
        "0xC77f7fed3b5Cc8249aDc428c5F44C9063B9734b4"
      ],
      "transaction": {
        "from": "0xc77f7fed3b5cc8249adc428c5f44c9063b9734b4",
        "to": "0x1a4492e52628ced854b6a88e83916d807b59b6e0",
        "gas": "0x1b2c8",
        "value": "0x38d7ea4c68000",
        "input": "0xf088d547000000000000000000000000c77f7fed3b5cc8249adc428c5f44c9063b9734b4",
        "nonce": "0x1863",
        "chainId": "0xaa36a7"
      },
      "additionalContracts": [],
      "isFixedGasLimit": false
    }
  ],
  "receipts": [
    {
      "status": "0x1",
      "cumulativeGasUsed": "0x8eb3b2",
      "logs": [
        {
          "address": "0x1a4492e52628ced854b6a88e83916d807b59b6e0",
          "topics": [
            "0xddf252ad1be2c89b69c2b068fc378daa952ba7f163c4a11628f55a4df523b3ef",
            "0x0000000000000000000000000000000000000000000000000000000000000000",
            "0x000000000000000000000000c77f7fed3b5cc8249adc428c5f44c9063b9734b4"
          ],
          "data": "0x0000000000000000000000000000000000000000000000000dbd2fc137a303de",
          "blockHash": "0xed96ac8588555a471f5b5054e11a0ff2b490ab24d913a1512397cda2045fbdae",
          "blockNumber": "0x7363f4",
          "transactionHash": "0x04111ed563dc98c3cd5c15aacc110789ebd6b2589ed5134dd089e4c85757b549",
          "transactionIndex": "0x5b",
          "logIndex": "0x74",
          "removed": false
        },
        {
          "address": "0x1a4492e52628ced854b6a88e83916d807b59b6e0",
          "topics": [
            "0xddf252ad1be2c89b69c2b068fc378daa952ba7f163c4a11628f55a4df523b3ef",
            "0x0000000000000000000000000000000000000000000000000000000000000000",
            "0x000000000000000000000000c77f7fed3b5cc8249adc428c5f44c9063b9734b4"
          ],
          "data": "0x000000000000000000000000000000000000000000000000000aab371f40e07e",
          "blockHash": "0xed96ac8588555a471f5b5054e11a0ff2b490ab24d913a1512397cda2045fbdae",
          "blockNumber": "0x7363f4",
          "transactionHash": "0x04111ed563dc98c3cd5c15aacc110789ebd6b2589ed5134dd089e4c85757b549",
          "transactionIndex": "0x5b",
          "logIndex": "0x75",
          "removed": false
        },
        {
          "address": "0x1a4492e52628ced854b6a88e83916d807b59b6e0",
          "topics": [
            "0x4afcb4a87cdbd9974efdb92ee48bc8d7cd0ae4bf217004db3d080cbaee652ca7"
          ],
          "data": "0x000000000000000000000000000000000000000000000000000000006793c5f000000000000000000000000000000000000000000000000000038e12d6dd261800000000000000000000000000000000000000000000000000038d7ea4c68000",
          "blockHash": "0xed96ac8588555a471f5b5054e11a0ff2b490ab24d913a1512397cda2045fbdae",
          "blockNumber": "0x7363f4",
          "transactionHash": "0x04111ed563dc98c3cd5c15aacc110789ebd6b2589ed5134dd089e4c85757b549",
          "transactionIndex": "0x5b",
          "logIndex": "0x76",
          "removed": false
        }
      ],
      "logsBloom": "0x00000000000000000000000000000000000000000000000000000000000000000000000000000000000000000002000000000000000000004000000000000000000000000000000000000008000000000000000000000000000000000000000000000000020000000000000000000800020000000000000000000010000000000000000000000000000000000000000000000000000000000000010000000000000000000000000000000000000000004000000000000000000000000000000000000002000000800000001000000000000000000000080000000000000020000000000000000000000000000000000000000000000020000000000000000000",
      "type": "0x2",
      "transactionHash": "0x04111ed563dc98c3cd5c15aacc110789ebd6b2589ed5134dd089e4c85757b549",
      "transactionIndex": "0x5b",
      "blockHash": "0xed96ac8588555a471f5b5054e11a0ff2b490ab24d913a1512397cda2045fbdae",
      "blockNumber": "0x7363f4",
      "gasUsed": "0x13ac7",
      "effectiveGasPrice": "0xe52912a2c",
      "from": "0xc77f7fed3b5cc8249adc428c5f44c9063b9734b4",
      "to": "0x1a4492e52628ced854b6a88e83916d807b59b6e0",
      "contractAddress": null
    }
  ],
  "libraries": [],
  "pending": [],
  "returns": {},
  "timestamp": 1737737713,
  "chain": 11155111,
  "commit": "f5162e9"
}