{
  "transactions": [
    {
      "hash": "0xbe746c20d57b30f20e47c6b4869dda03bd7991debde1df218e22e5139caef335",
      "transactionType": "CALL",
      "contractName": null,
      "contractAddress": "0x5eb9cc76c3506942c1c0ead70e877dd5e4f00cb0",
      "function": "sell(uint256)",
      "arguments": [
        "989612529867516086216"
      ],
      "transaction": {
        "from": "0xc77f7fed3b5cc8249adc428c5f44c9063b9734b4",
        "to": "0x5eb9cc76c3506942c1c0ead70e877dd5e4f00cb0",
        "gas": "0x16fec",
        "value": "0x0",
        "input": "0xe4849b32000000000000000000000000000000000000000000000035a5a1f8b8fcf107c8",
        "nonce": "0x261",
        "chainId": "0xaa36a7"
      },
      "additionalContracts": [],
      "isFixedGasLimit": false
    }
  ],
  "receipts": [
    {
      "status": "0x1",
      "cumulativeGasUsed": "0xb9b341",
      "logs": [
        {
          "address": "0x5eb9cc76c3506942c1c0ead70e877dd5e4f00cb0",
          "topics": [
            "0xddf252ad1be2c89b69c2b068fc378daa952ba7f163c4a11628f55a4df523b3ef",
            "0x000000000000000000000000c77f7fed3b5cc8249adc428c5f44c9063b9734b4",
            "0x0000000000000000000000000000000000000000000000000000000000000000"
          ],
          "data": "0x000000000000000000000000000000000000000000000035a5a1f8b8fcf107c8",
          "blockHash": "0x74cef96731d64ff67941d61c06be80cac3d3fa6e80f0718f8c3b8811c68688b8",
          "blockNumber": "0x724e1f",
          "transactionHash": "0xbe746c20d57b30f20e47c6b4869dda03bd7991debde1df218e22e5139caef335",
          "transactionIndex": "0x5e",
          "logIndex": "0x8a",
          "removed": false
        },
        {
          "address": "0x5eb9cc76c3506942c1c0ead70e877dd5e4f00cb0",
          "topics": [
            "0x4afcb4a87cdbd9974efdb92ee48bc8d7cd0ae4bf217004db3d080cbaee652ca7"
          ],
          "data": "0x0000000000000000000000000000000000000000000000000000000067869b280000000000000000000000000000000000000000000000000003909c6800f8330000000000000000000000000000000000000000000000000dc7db118376af25",
          "blockHash": "0x74cef96731d64ff67941d61c06be80cac3d3fa6e80f0718f8c3b8811c68688b8",
          "blockNumber": "0x724e1f",
          "transactionHash": "0xbe746c20d57b30f20e47c6b4869dda03bd7991debde1df218e22e5139caef335",
          "transactionIndex": "0x5e",
          "logIndex": "0x8b",
          "removed": false
        }
      ],
      "logsBloom": "0x00000000000000000000000000000000000000000000000000000000000000000000000000000000000000000000000000000000000000004000000000000000000000000000000000000008000000000000000000000000000000000000000000000000020000000000000004000800020000000000000000000010000000000000000000000000000000000000000000000000000000000000010000000000000000000000000000000000000000004000000000000000000000000000020000000002000000800000008000000000000000000000080000000000000020000000000000000000000000000000000000000000000000000000000000000000",
      "type": "0x2",
      "transactionHash": "0xbe746c20d57b30f20e47c6b4869dda03bd7991debde1df218e22e5139caef335",
      "transactionIndex": "0x5e",
      "blockHash": "0x74cef96731d64ff67941d61c06be80cac3d3fa6e80f0718f8c3b8811c68688b8",
      "blockNumber": "0x724e1f",
      "gasUsed": "0xfb93",
      "effectiveGasPrice": "0x3a8753054",
      "from": "0xc77f7fed3b5cc8249adc428c5f44c9063b9734b4",
      "to": "0x5eb9cc76c3506942c1c0ead70e877dd5e4f00cb0",
      "contractAddress": null
    }
  ],
  "libraries": [],
  "pending": [],
  "returns": {},
  "timestamp": 1736874793,
  "chain": 11155111,
  "commit": "51a374b"
}