{
  "transactions": [
    {
      "hash": "0xb2679637c2c68d3a8faa13d8ee04689b862c5ed2faec39e182d1cd5aeb6ed380",
      "transactionType": "CALL",
      "contractName": null,
      "contractAddress": "0xbf4a322f1496e5c3d34a9bcdb4c60567b38c7de2",
      "function": "sell(uint256)",
      "arguments": [
        "974246406249749161819"
      ],
      "transaction": {
        "from": "0xc77f7fed3b5cc8249adc428c5f44c9063b9734b4",
        "to": "0xbf4a322f1496e5c3d34a9bcdb4c60567b38c7de2",
        "gas": "0x16fea",
        "value": "0x0",
        "input": "0xe4849b32000000000000000000000000000000000000000000000034d06288b49934275b",
        "nonce": "0xdc7",
        "chainId": "0xaa36a7"
      },
      "additionalContracts": [],
      "isFixedGasLimit": false
    }
  ],
  "receipts": [
    {
      "status": "0x1",
      "cumulativeGasUsed": "0xd4f265",
      "logs": [
        {
          "address": "0xbf4a322f1496e5c3d34a9bcdb4c60567b38c7de2",
          "topics": [
            "0xddf252ad1be2c89b69c2b068fc378daa952ba7f163c4a11628f55a4df523b3ef",
            "0x000000000000000000000000c77f7fed3b5cc8249adc428c5f44c9063b9734b4",
            "0x0000000000000000000000000000000000000000000000000000000000000000"
          ],
          "data": "0x000000000000000000000000000000000000000000000034d06288b49934275b",
          "blockHash": "0x5513d9ed85f4e0be6f2aa72dcc2d04b3671c197a98ac726043cbd63bc5fd5b47",
          "blockNumber": "0x7266a3",
          "transactionHash": "0xb2679637c2c68d3a8faa13d8ee04689b862c5ed2faec39e182d1cd5aeb6ed380",
          "transactionIndex": "0x48",
          "logIndex": "0x8d",
          "removed": false
        },
        {
          "address": "0xbf4a322f1496e5c3d34a9bcdb4c60567b38c7de2",
          "topics": [
            "0x4afcb4a87cdbd9974efdb92ee48bc8d7cd0ae4bf217004db3d080cbaee652ca7"
          ],
          "data": "0x000000000000000000000000000000000000000000000000000000006787c2a800000000000000000000000000000000000000000000000000039f07a914b48a0000000000000000000000000000000000000000000000000dc7e3d4b05d2be3",
          "blockHash": "0x5513d9ed85f4e0be6f2aa72dcc2d04b3671c197a98ac726043cbd63bc5fd5b47",
          "blockNumber": "0x7266a3",
          "transactionHash": "0xb2679637c2c68d3a8faa13d8ee04689b862c5ed2faec39e182d1cd5aeb6ed380",
          "transactionIndex": "0x48",
          "logIndex": "0x8e",
          "removed": false
        }
      ],
      "logsBloom": "0x00000000000000000000000000000000000000000000000000000000000000000000000000000000000000000000000000000000000000004000000000000000000000000000000000000008000000000000001000000000000000000000000000000000020000000000000000000800020000000000000000000010000000000000000000000000000000000000000000000000000008000000010000000000000000000000000000000000000000004000000000000000000000000000000000000002000000800000000000001000000000000000080000000000000020000000000000000000000000000000000000000000000000000000000000000000",
      "type": "0x2",
      "transactionHash": "0xb2679637c2c68d3a8faa13d8ee04689b862c5ed2faec39e182d1cd5aeb6ed380",
      "transactionIndex": "0x48",
      "blockHash": "0x5513d9ed85f4e0be6f2aa72dcc2d04b3671c197a98ac726043cbd63bc5fd5b47",
      "blockNumber": "0x7266a3",
      "gasUsed": "0xfb91",
      "effectiveGasPrice": "0x11abe8839",
      "from": "0xc77f7fed3b5cc8249adc428c5f44c9063b9734b4",
      "to": "0xbf4a322f1496e5c3d34a9bcdb4c60567b38c7de2",
      "contractAddress": null
    }
  ],
  "libraries": [],
  "pending": [],
  "returns": {},
  "timestamp": 1736950441,
  "chain": 11155111,
  "commit": "51a374b"
}