{
  "transactions": [
    {
      "hash": "0xff2e7ee6b66f73521be2310c048824b4224b35ea138165786d49c09bc59e0a90",
      "transactionType": "CALL",
      "contractName": null,
      "contractAddress": "0x270e88f8683660553e8ba4eb2ad7c91a1710d769",
      "function": "buy(address)",
      "arguments": [
        "0xC77f7fed3b5Cc8249aDc428c5F44C9063B9734b4"
      ],
      "transaction": {
        "from": "0xc77f7fed3b5cc8249adc428c5f44c9063b9734b4",
        "to": "0x270e88f8683660553e8ba4eb2ad7c91a1710d769",
        "gas": "0x1b30c",
        "value": "0xde0b6b3a7640000",
        "input": "0xf088d547000000000000000000000000c77f7fed3b5cc8249adc428c5f44c9063b9734b4",
        "nonce": "0x77f",
        "chainId": "0xaa36a7"
      },
      "additionalContracts": [],
      "isFixedGasLimit": false
    }
  ],
  "receipts": [
    {
      "status": "0x1",
      "cumulativeGasUsed": "0x97b14f",
      "logs": [
        {
          "address": "0x270e88f8683660553e8ba4eb2ad7c91a1710d769",
          "topics": [
            "0xddf252ad1be2c89b69c2b068fc378daa952ba7f163c4a11628f55a4df523b3ef",
            "0x0000000000000000000000000000000000000000000000000000000000000000",
            "0x000000000000000000000000c77f7fed3b5cc8249adc428c5f44c9063b9734b4"
          ],
          "data": "0x000000000000000000000000000000000000000000000027aaaf3de5fa42892c",
          "blockHash": "0x54ad2473d24f3691f7c69757d6061ce515e9adda7d628ddf9190d2f80000d395",
          "blockNumber": "0x7254af",
          "transactionHash": "0xff2e7ee6b66f73521be2310c048824b4224b35ea138165786d49c09bc59e0a90",
          "transactionIndex": "0x26",
          "logIndex": "0x3e",
          "removed": false
        },
        {
          "address": "0x270e88f8683660553e8ba4eb2ad7c91a1710d769",
          "topics": [
            "0xddf252ad1be2c89b69c2b068fc378daa952ba7f163c4a11628f55a4df523b3ef",
            "0x0000000000000000000000000000000000000000000000000000000000000000",
            "0x000000000000000000000000c77f7fed3b5cc8249adc428c5f44c9063b9734b4"
          ],
          "data": "0x0000000000000000000000000000000000000000000000001ecd757bb55795d0",
          "blockHash": "0x54ad2473d24f3691f7c69757d6061ce515e9adda7d628ddf9190d2f80000d395",
          "blockNumber": "0x7254af",
          "transactionHash": "0xff2e7ee6b66f73521be2310c048824b4224b35ea138165786d49c09bc59e0a90",
          "transactionIndex": "0x26",
          "logIndex": "0x3f",
          "removed": false
        },
        {
          "address": "0x270e88f8683660553e8ba4eb2ad7c91a1710d769",
          "topics": [
            "0x4afcb4a87cdbd9974efdb92ee48bc8d7cd0ae4bf217004db3d080cbaee652ca7"
          ],
          "data": "0x000000000000000000000000000000000000000000000000000000006786ea3c0000000000000000000000000000000000000000000000000004cea04e0944090000000000000000000000000000000000000000000000000de0b6b3a7640000",
          "blockHash": "0x54ad2473d24f3691f7c69757d6061ce515e9adda7d628ddf9190d2f80000d395",
          "blockNumber": "0x7254af",
          "transactionHash": "0xff2e7ee6b66f73521be2310c048824b4224b35ea138165786d49c09bc59e0a90",
          "transactionIndex": "0x26",
          "logIndex": "0x40",
          "removed": false
        }
      ],
      "logsBloom": "0x00000000000000000000000000000000000000000000000000000000000000000000000000000000000000000000000020000000000000004000000000000000000000000000000000000008000000000000000000000000000000000000000000000000020000000000000000000800020000000000000000000010000000000000000000010000000000000000000000000000000000000000010000000000000000000000000000000000000000004000000000000000000000000000000000000002000000800000000000000000000000000000080000008000000020000000000000000000000000000000000000000000000000000000000000000000",
      "type": "0x2",
      "transactionHash": "0xff2e7ee6b66f73521be2310c048824b4224b35ea138165786d49c09bc59e0a90",
      "transactionIndex": "0x26",
      "blockHash": "0x54ad2473d24f3691f7c69757d6061ce515e9adda7d628ddf9190d2f80000d395",
      "blockNumber": "0x7254af",
      "gasUsed": "0x13af8",
      "effectiveGasPrice": "0x1361f6143",
      "from": "0xc77f7fed3b5cc8249adc428c5f44c9063b9734b4",
      "to": "0x270e88f8683660553e8ba4eb2ad7c91a1710d769",
      "contractAddress": null
    }
  ],
  "libraries": [],
  "pending": [],
  "returns": {},
  "timestamp": 1736895037,
  "chain": 11155111,
  "commit": "51a374b"
}