{
  "transactions": [
    {
      "hash": "0xb558ccfccb61209f6d2fe8ee9bd44c1746b433390b6409388cbb8b82616c775e",
      "transactionType": "CALL",
      "contractName": null,
      "contractAddress": "0xbf4a322f1496e5c3d34a9bcdb4c60567b38c7de2",
      "function": "buy(address)",
      "arguments": [
        "0xC77f7fed3b5Cc8249aDc428c5F44C9063B9734b4"
      ],
      "transaction": {
        "from": "0xc77f7fed3b5cc8249adc428c5f44c9063b9734b4",
        "to": "0xbf4a322f1496e5c3d34a9bcdb4c60567b38c7de2",
        "gas": "0x1b309",
        "value": "0xde0b6b3a7640000",
        "input": "0xf088d547000000000000000000000000c77f7fed3b5cc8249adc428c5f44c9063b9734b4",
        "nonce": "0x8cb",
        "chainId": "0xaa36a7"
      },
      "additionalContracts": [],
      "isFixedGasLimit": false
    }
  ],
  "receipts": [
    {
      "status": "0x1",
      "cumulativeGasUsed": "0x512b4a",
      "logs": [
        {
          "address": "0xbf4a322f1496e5c3d34a9bcdb4c60567b38c7de2",
          "topics": [
            "0xddf252ad1be2c89b69c2b068fc378daa952ba7f163c4a11628f55a4df523b3ef",
            "0x0000000000000000000000000000000000000000000000000000000000000000",
            "0x000000000000000000000000c77f7fed3b5cc8249adc428c5f44c9063b9734b4"
          ],
          "data": "0x000000000000000000000000000000000000000000000035aa1e66c1ded1fa56",
          "blockHash": "0x9cc12eedd5841c906273d25b2f5633dfcb325c672f6ba44772ed90577946d1a8",
          "blockNumber": "0x725836",
          "transactionHash": "0xb558ccfccb61209f6d2fe8ee9bd44c1746b433390b6409388cbb8b82616c775e",
          "transactionIndex": "0x33",
          "logIndex": "0x52",
          "removed": false
        },
        {
          "address": "0xbf4a322f1496e5c3d34a9bcdb4c60567b38c7de2",
          "topics": [
            "0xddf252ad1be2c89b69c2b068fc378daa952ba7f163c4a11628f55a4df523b3ef",
            "0x0000000000000000000000000000000000000000000000000000000000000000",
            "0x000000000000000000000000c77f7fed3b5cc8249adc428c5f44c9063b9734b4"
          ],
          "data": "0x00000000000000000000000000000000000000000000000029ac1e29631dfb6e",
          "blockHash": "0x9cc12eedd5841c906273d25b2f5633dfcb325c672f6ba44772ed90577946d1a8",
          "blockNumber": "0x725836",
          "transactionHash": "0xb558ccfccb61209f6d2fe8ee9bd44c1746b433390b6409388cbb8b82616c775e",
          "transactionIndex": "0x33",
          "logIndex": "0x53",
          "removed": false
        },
        {
          "address": "0xbf4a322f1496e5c3d34a9bcdb4c60567b38c7de2",
          "topics": [
            "0x4afcb4a87cdbd9974efdb92ee48bc8d7cd0ae4bf217004db3d080cbaee652ca7"
          ],
          "data": "0x00000000000000000000000000000000000000000000000000000000678714a800000000000000000000000000000000000000000000000000038d90753193b80000000000000000000000000000000000000000000000000de0b6b3a7640000",
          "blockHash": "0x9cc12eedd5841c906273d25b2f5633dfcb325c672f6ba44772ed90577946d1a8",
          "blockNumber": "0x725836",
          "transactionHash": "0xb558ccfccb61209f6d2fe8ee9bd44c1746b433390b6409388cbb8b82616c775e",
          "transactionIndex": "0x33",
          "logIndex": "0x54",
          "removed": false
        }
      ],
      "logsBloom": "0x00000000000000000000000000000000000000000000000000000000000000000000000000000000000000000000000000000000000000004000000000000000000000000000000000000008000000000000001000000000000000000000000000000000020000000000000000000800020000000000000000000010000000000000000000000000000000000000000000000000000008000000010000000000000000000000000000000000000000004000000000000000000000000000000000000002000000800000000000001000000000000000080000000000000020000000000000000000000000000000000000000000000000000000000000000000",
      "type": "0x2",
      "transactionHash": "0xb558ccfccb61209f6d2fe8ee9bd44c1746b433390b6409388cbb8b82616c775e",
      "transactionIndex": "0x33",
      "blockHash": "0x9cc12eedd5841c906273d25b2f5633dfcb325c672f6ba44772ed90577946d1a8",
      "blockNumber": "0x725836",
      "gasUsed": "0x13af6",
      "effectiveGasPrice": "0x27f9d491",
      "from": "0xc77f7fed3b5cc8249adc428c5f44c9063b9734b4",
      "to": "0xbf4a322f1496e5c3d34a9bcdb4c60567b38c7de2",
      "contractAddress": null
    }
  ],
  "libraries": [],
  "pending": [],
  "returns": {},
  "timestamp": 1736905897,
  "chain": 11155111,
  "commit": "51a374b"
}