{
  "transactions": [
    {
      "hash": "0xfdae78ce83fe46de1a01fd283c17dd637a4b20e484e0306df171c1fd20393acc",
      "transactionType": "CALL",
      "contractName": null,
      "contractAddress": "0x270e88f8683660553e8ba4eb2ad7c91a1710d769",
      "function": "sell(uint256)",
      "arguments": [
        "753861822627116811150"
      ],
      "transaction": {
        "from": "0xc77f7fed3b5cc8249adc428c5f44c9063b9734b4",
        "to": "0x270e88f8683660553e8ba4eb2ad7c91a1710d769",
        "gas": "0x16fec",
        "value": "0x0",
        "input": "0xe4849b32000000000000000000000000000000000000000000000028ddef358c59d5038e",
        "nonce": "0x6a2",
        "chainId": "0xaa36a7"
      },
      "additionalContracts": [],
      "isFixedGasLimit": false
    }
  ],
  "receipts": [
    {
      "status": "0x1",
      "cumulativeGasUsed": "0x530599",
      "logs": [
        {
          "address": "0x270e88f8683660553e8ba4eb2ad7c91a1710d769",
          "topics": [
            "0xddf252ad1be2c89b69c2b068fc378daa952ba7f163c4a11628f55a4df523b3ef",
            "0x000000000000000000000000c77f7fed3b5cc8249adc428c5f44c9063b9734b4",
            "0x0000000000000000000000000000000000000000000000000000000000000000"
          ],
          "data": "0x000000000000000000000000000000000000000000000028ddef358c59d5038e",
          "blockHash": "0x9a68530c1e1c24b48a804240f8efefc816fd04f6e016cbd0559665645e242542",
          "blockNumber": "0x7253a6",
          "transactionHash": "0xfdae78ce83fe46de1a01fd283c17dd637a4b20e484e0306df171c1fd20393acc",
          "transactionIndex": "0x3b",
          "logIndex": "0x5a",
          "removed": false
        },
        {
          "address": "0x270e88f8683660553e8ba4eb2ad7c91a1710d769",
          "topics": [
            "0x4afcb4a87cdbd9974efdb92ee48bc8d7cd0ae4bf217004db3d080cbaee652ca7"
          ],
          "data": "0x000000000000000000000000000000000000000000000000000000006786ddd00000000000000000000000000000000000000000000000000004ae4c843dbb810000000000000000000000000000000000000000000000000dc829ef26880097",
          "blockHash": "0x9a68530c1e1c24b48a804240f8efefc816fd04f6e016cbd0559665645e242542",
          "blockNumber": "0x7253a6",
          "transactionHash": "0xfdae78ce83fe46de1a01fd283c17dd637a4b20e484e0306df171c1fd20393acc",
          "transactionIndex": "0x3b",
          "logIndex": "0x5b",
          "removed": false
        }
      ],
      "logsBloom": "0x00000000000000000000000000000000000000000000000000000000000000000000000000000000000000000000000020000000000000004000000000000000000000000000000000000008000000000000000000000000000000000000000000000000020000000000000000000800020000000000000000000010000000000000000000010000000000000000000000000000000000000000010000000000000000000000000000000000000000004000000000000000000000000000000000000002000000800000000000000000000000000000080000008000000020000000000000000000000000000000000000000000000000000000000000000000",
      "type": "0x2",
      "transactionHash": "0xfdae78ce83fe46de1a01fd283c17dd637a4b20e484e0306df171c1fd20393acc",
      "transactionIndex": "0x3b",
      "blockHash": "0x9a68530c1e1c24b48a804240f8efefc816fd04f6e016cbd0559665645e242542",
      "blockNumber": "0x7253a6",
      "gasUsed": "0xfb93",
      "effectiveGasPrice": "0x1e861d41a",
      "from": "0xc77f7fed3b5cc8249adc428c5f44c9063b9734b4",
      "to": "0x270e88f8683660553e8ba4eb2ad7c91a1710d769",
      "contractAddress": null
    }
  ],
  "libraries": [],
  "pending": [],
  "returns": {},
  "timestamp": 1736891858,
  "chain": 11155111,
  "commit": "51a374b"
}