{
  "transactions": [
    {
      "hash": "0xd4b79298bb3020773642cc724f972ed26c339370366f6bbfafd328f1ab0a8961",
      "transactionType": "CALL",
      "contractName": null,
      "contractAddress": "0x270e88f8683660553e8ba4eb2ad7c91a1710d769",
      "function": "sell(uint256)",
      "arguments": [
        "824654883536507852272"
      ],
      "transaction": {
        "from": "0xc77f7fed3b5cc8249adc428c5f44c9063b9734b4",
        "to": "0x270e88f8683660553e8ba4eb2ad7c91a1710d769",
        "gas": "0x16fec",
        "value": "0x0",
        "input": "0xe4849b3200000000000000000000000000000000000000000000002cb462af5e1cad55f0",
        "nonce": "0x659",
        "chainId": "0xaa36a7"
      },
      "additionalContracts": [],
      "isFixedGasLimit": false
    }
  ],
  "receipts": [
    {
      "status": "0x1",
      "cumulativeGasUsed": "0x20dd1cd",
      "logs": [
        {
          "address": "0x270e88f8683660553e8ba4eb2ad7c91a1710d769",
          "topics": [
            "0xddf252ad1be2c89b69c2b068fc378daa952ba7f163c4a11628f55a4df523b3ef",
            "0x000000000000000000000000c77f7fed3b5cc8249adc428c5f44c9063b9734b4",
            "0x0000000000000000000000000000000000000000000000000000000000000000"
          ],
          "data": "0x00000000000000000000000000000000000000000000002cb462af5e1cad55f0",
          "blockHash": "0xd8e2b70b23da7b4e2691c6fcf4646340ec2119cb7cae2fb2c7db1cc180b87950",
          "blockNumber": "0x72534c",
          "transactionHash": "0xd4b79298bb3020773642cc724f972ed26c339370366f6bbfafd328f1ab0a8961",
          "transactionIndex": "0x33",
          "logIndex": "0x32b",
          "removed": false
        },
        {
          "address": "0x270e88f8683660553e8ba4eb2ad7c91a1710d769",
          "topics": [
            "0x4afcb4a87cdbd9974efdb92ee48bc8d7cd0ae4bf217004db3d080cbaee652ca7"
          ],
          "data": "0x000000000000000000000000000000000000000000000000000000006786d9980000000000000000000000000000000000000000000000000004472ebb4ad8860000000000000000000000000000000000000000000000000dc7e0f94a49c7b7",
          "blockHash": "0xd8e2b70b23da7b4e2691c6fcf4646340ec2119cb7cae2fb2c7db1cc180b87950",
          "blockNumber": "0x72534c",
          "transactionHash": "0xd4b79298bb3020773642cc724f972ed26c339370366f6bbfafd328f1ab0a8961",
          "transactionIndex": "0x33",
          "logIndex": "0x32c",
          "removed": false
        }
      ],
      "logsBloom": "0x00000000000000000000000000000000000000000000000000000000000000000000000000000000000000000000000020000000000000004000000000000000000000000000000000000008000000000000000000000000000000000000000000000000020000000000000000000800020000000000000000000010000000000000000000010000000000000000000000000000000000000000010000000000000000000000000000000000000000004000000000000000000000000000000000000002000000800000000000000000000000000000080000008000000020000000000000000000000000000000000000000000000000000000000000000000",
      "type": "0x2",
      "transactionHash": "0xd4b79298bb3020773642cc724f972ed26c339370366f6bbfafd328f1ab0a8961",
      "transactionIndex": "0x33",
      "blockHash": "0xd8e2b70b23da7b4e2691c6fcf4646340ec2119cb7cae2fb2c7db1cc180b87950",
      "blockNumber": "0x72534c",
      "gasUsed": "0xfb93",
      "effectiveGasPrice": "0x2cd316cdf",
      "from": "0xc77f7fed3b5cc8249adc428c5f44c9063b9734b4",
      "to": "0x270e88f8683660553e8ba4eb2ad7c91a1710d769",
      "contractAddress": null
    }
  ],
  "libraries": [],
  "pending": [],
  "returns": {},
  "timestamp": 1736890776,
  "chain": 11155111,
  "commit": "51a374b"
}