{
  "transactions": [
    {
      "hash": "0x9236d7c4a417fccb996be2b2593adda1aa2be4c42ec3d13b9f6dab0b426cf347",
      "transactionType": "CALL",
      "contractName": null,
      "contractAddress": "0x270e88f8683660553e8ba4eb2ad7c91a1710d769",
      "function": "sell(uint256)",
      "arguments": [
        "712236475561960839489"
      ],
      "transaction": {
        "from": "0xc77f7fed3b5cc8249adc428c5f44c9063b9734b4",
        "to": "0x270e88f8683660553e8ba4eb2ad7c91a1710d769",
        "gas": "0x16fec",
        "value": "0x0",
        "input": "0xe4849b320000000000000000000000000000000000000000000000269c4444eedadc9941",
        "nonce": "0x880",
        "chainId": "0xaa36a7"
      },
      "additionalContracts": [],
      "isFixedGasLimit": false
    }
  ],
  "receipts": [
    {
      "status": "0x1",
      "cumulativeGasUsed": "0x117f0ef",
      "logs": [
        {
          "address": "0x270e88f8683660553e8ba4eb2ad7c91a1710d769",
          "topics": [
            "0xddf252ad1be2c89b69c2b068fc378daa952ba7f163c4a11628f55a4df523b3ef",
            "0x000000000000000000000000c77f7fed3b5cc8249adc428c5f44c9063b9734b4",
            "0x0000000000000000000000000000000000000000000000000000000000000000"
          ],
          "data": "0x0000000000000000000000000000000000000000000000269c4444eedadc9941",
          "blockHash": "0x785da37aa9908d7c654135abd73141bc01d156d738775b9b9b010aac8a52f1c0",
          "blockNumber": "0x7255db",
          "transactionHash": "0x9236d7c4a417fccb996be2b2593adda1aa2be4c42ec3d13b9f6dab0b426cf347",
          "transactionIndex": "0x39",
          "logIndex": "0x177",
          "removed": false
        },
        {
          "address": "0x270e88f8683660553e8ba4eb2ad7c91a1710d769",
          "topics": [
            "0x4afcb4a87cdbd9974efdb92ee48bc8d7cd0ae4bf217004db3d080cbaee652ca7"
          ],
          "data": "0x000000000000000000000000000000000000000000000000000000006786f84c0000000000000000000000000000000000000000000000000004f4507049940c0000000000000000000000000000000000000000000000000dc825a00f925e01",
          "blockHash": "0x785da37aa9908d7c654135abd73141bc01d156d738775b9b9b010aac8a52f1c0",
          "blockNumber": "0x7255db",
          "transactionHash": "0x9236d7c4a417fccb996be2b2593adda1aa2be4c42ec3d13b9f6dab0b426cf347",
          "transactionIndex": "0x39",
          "logIndex": "0x178",
          "removed": false
        }
      ],
      "logsBloom": "0x00000000000000000000000000000000000000000000000000000000000000000000000000000000000000000000000020000000000000004000000000000000000000000000000000000008000000000000000000000000000000000000000000000000020000000000000000000800020000000000000000000010000000000000000000010000000000000000000000000000000000000000010000000000000000000000000000000000000000004000000000000000000000000000000000000002000000800000000000000000000000000000080000008000000020000000000000000000000000000000000000000000000000000000000000000000",
      "type": "0x2",
      "transactionHash": "0x9236d7c4a417fccb996be2b2593adda1aa2be4c42ec3d13b9f6dab0b426cf347",
      "transactionIndex": "0x39",
      "blockHash": "0x785da37aa9908d7c654135abd73141bc01d156d738775b9b9b010aac8a52f1c0",
      "blockNumber": "0x7255db",
      "gasUsed": "0xfb93",
      "effectiveGasPrice": "0xc37d939d",
      "from": "0xc77f7fed3b5cc8249adc428c5f44c9063b9734b4",
      "to": "0x270e88f8683660553e8ba4eb2ad7c91a1710d769",
      "contractAddress": null
    }
  ],
  "libraries": [],
  "pending": [],
  "returns": {},
  "timestamp": 1736898639,
  "chain": 11155111,
  "commit": "51a374b"
}