{
  "transactions": [
    {
      "hash": "0x6696988debaf2481d91aa39372ed0417babb83c28151d318a0ad90cb1b0ba95e",
      "transactionType": "CALL",
      "contractName": null,
      "contractAddress": "0xbf4a322f1496e5c3d34a9bcdb4c60567b38c7de2",
      "function": "sell(uint256)",
      "arguments": [
        "988162907667912974130"
      ],
      "transaction": {
        "from": "0xc77f7fed3b5cc8249adc428c5f44c9063b9734b4",
        "to": "0xbf4a322f1496e5c3d34a9bcdb4c60567b38c7de2",
        "gas": "0x16fea",
        "value": "0x0",
        "input": "0xe4849b320000000000000000000000000000000000000000000000359183e1033313df32",
        "nonce": "0x9bd",
        "chainId": "0xaa36a7"
      },
      "additionalContracts": [],
      "isFixedGasLimit": false
    }
  ],
  "receipts": [
    {
      "status": "0x1",
      "cumulativeGasUsed": "0x848412",
      "logs": [
        {
          "address": "0xbf4a322f1496e5c3d34a9bcdb4c60567b38c7de2",
          "topics": [
            "0xddf252ad1be2c89b69c2b068fc378daa952ba7f163c4a11628f55a4df523b3ef",
            "0x000000000000000000000000c77f7fed3b5cc8249adc428c5f44c9063b9734b4",
            "0x0000000000000000000000000000000000000000000000000000000000000000"
          ],
          "data": "0x0000000000000000000000000000000000000000000000359183e1033313df32",
          "blockHash": "0xb3ecd82b42486afa72d57c173ca5286dd60eec6b4679f5c7e6fc9cd9e8efc78a",
          "blockNumber": "0x725968",
          "transactionHash": "0x6696988debaf2481d91aa39372ed0417babb83c28151d318a0ad90cb1b0ba95e",
          "transactionIndex": "0x4e",
          "logIndex": "0x5b",
          "removed": false
        },
        {
          "address": "0xbf4a322f1496e5c3d34a9bcdb4c60567b38c7de2",
          "topics": [
            "0x4afcb4a87cdbd9974efdb92ee48bc8d7cd0ae4bf217004db3d080cbaee652ca7"
          ],
          "data": "0x000000000000000000000000000000000000000000000000000000006787230c000000000000000000000000000000000000000000000000000391f987a6e4250000000000000000000000000000000000000000000000000dc7e3f50b8cddf2",
          "blockHash": "0xb3ecd82b42486afa72d57c173ca5286dd60eec6b4679f5c7e6fc9cd9e8efc78a",
          "blockNumber": "0x725968",
          "transactionHash": "0x6696988debaf2481d91aa39372ed0417babb83c28151d318a0ad90cb1b0ba95e",
          "transactionIndex": "0x4e",
          "logIndex": "0x5c",
          "removed": false
        }
      ],
      "logsBloom": "0x00000000000000000000000000000000000000000000000000000000000000000000000000000000000000000000000000000000000000004000000000000000000000000000000000000008000000000000001000000000000000000000000000000000020000000000000000000800020000000000000000000010000000000000000000000000000000000000000000000000000008000000010000000000000000000000000000000000000000004000000000000000000000000000000000000002000000800000000000001000000000000000080000000000000020000000000000000000000000000000000000000000000000000000000000000000",
      "type": "0x2",
      "transactionHash": "0x6696988debaf2481d91aa39372ed0417babb83c28151d318a0ad90cb1b0ba95e",
      "transactionIndex": "0x4e",
      "blockHash": "0xb3ecd82b42486afa72d57c173ca5286dd60eec6b4679f5c7e6fc9cd9e8efc78a",
      "blockNumber": "0x725968",
      "gasUsed": "0xfb91",
      "effectiveGasPrice": "0x2e71494dc",
      "from": "0xc77f7fed3b5cc8249adc428c5f44c9063b9734b4",
      "to": "0xbf4a322f1496e5c3d34a9bcdb4c60567b38c7de2",
      "contractAddress": null
    }
  ],
  "libraries": [],
  "pending": [],
  "returns": {},
  "timestamp": 1736909581,
  "chain": 11155111,
  "commit": "51a374b"
}