{
  "transactions": [
    {
      "hash": "0x384d0384b2afaf3785060e0dd88a08a4696c9f0551a3b5d959820719a99a023b",
      "transactionType": "CALL",
      "contractName": null,
      "contractAddress": "0x5eb9cc76c3506942c1c0ead70e877dd5e4f00cb0",
      "function": "buy(address)",
      "arguments": [
        "0xC77f7fed3b5Cc8249aDc428c5F44C9063B9734b4"
      ],
      "transaction": {
        "from": "0xc77f7fed3b5cc8249adc428c5f44c9063b9734b4",
        "to": "0x5eb9cc76c3506942c1c0ead70e877dd5e4f00cb0",
        "gas": "0x1b30c",
        "value": "0xde0b6b3a7640000",
        "input": "0xf088d547000000000000000000000000c77f7fed3b5cc8249adc428c5f44c9063b9734b4",
        "nonce": "0x364",
        "chainId": "0xaa36a7"
      },
      "additionalContracts": [],
      "isFixedGasLimit": false
    }
  ],
  "receipts": [
    {
      "status": "0x1",
      "cumulativeGasUsed": "0xbc0db6",
      "logs": [
        {
          "address": "0x5eb9cc76c3506942c1c0ead70e877dd5e4f00cb0",
          "topics": [
            "0xddf252ad1be2c89b69c2b068fc378daa952ba7f163c4a11628f55a4df523b3ef",
            "0x0000000000000000000000000000000000000000000000000000000000000000",
            "0x000000000000000000000000c77f7fed3b5cc8249adc428c5f44c9063b9734b4"
          ],
          "data": "0x000000000000000000000000000000000000000000000035755a45da4f7fdced",
          "blockHash": "0x334e3071be741ee213aee45e0028220a820de9cf916228e81de3993dd1752a5b",
          "blockNumber": "0x724f5a",
          "transactionHash": "0x384d0384b2afaf3785060e0dd88a08a4696c9f0551a3b5d959820719a99a023b",
          "transactionIndex": "0x51",
          "logIndex": "0x66",
          "removed": false
        },
        {
          "address": "0x5eb9cc76c3506942c1c0ead70e877dd5e4f00cb0",
          "topics": [
            "0xddf252ad1be2c89b69c2b068fc378daa952ba7f163c4a11628f55a4df523b3ef",
            "0x0000000000000000000000000000000000000000000000000000000000000000",
            "0x000000000000000000000000c77f7fed3b5cc8249adc428c5f44c9063b9734b4"
          ],
          "data": "0x000000000000000000000000000000000000000000000000298324a39c314747",
          "blockHash": "0x334e3071be741ee213aee45e0028220a820de9cf916228e81de3993dd1752a5b",
          "blockNumber": "0x724f5a",
          "transactionHash": "0x384d0384b2afaf3785060e0dd88a08a4696c9f0551a3b5d959820719a99a023b",
          "transactionIndex": "0x51",
          "logIndex": "0x67",
          "removed": false
        },
        {
          "address": "0x5eb9cc76c3506942c1c0ead70e877dd5e4f00cb0",
          "topics": [
            "0x4afcb4a87cdbd9974efdb92ee48bc8d7cd0ae4bf217004db3d080cbaee652ca7"
          ],
          "data": "0x000000000000000000000000000000000000000000000000000000006786a9ec0000000000000000000000000000000000000000000000000003910f8c9e7bdb0000000000000000000000000000000000000000000000000de0b6b3a7640000",
          "blockHash": "0x334e3071be741ee213aee45e0028220a820de9cf916228e81de3993dd1752a5b",
          "blockNumber": "0x724f5a",
          "transactionHash": "0x384d0384b2afaf3785060e0dd88a08a4696c9f0551a3b5d959820719a99a023b",
          "transactionIndex": "0x51",
          "logIndex": "0x68",
          "removed": false
        }
      ],
      "logsBloom": "0x00000000000000000000000000000000000000000000000000000000000000000000000000000000000000000000000000000000000000004000000000000000000000000000000000000008000000000000000000000000000000000000000000000000020000000000000004000800020000000000000000000010000000000000000000000000000000000000000000000000000000000000010000000000000000000000000000000000000000004000000000000000000000000000020000000002000000800000008000000000000000000000080000000000000020000000000000000000000000000000000000000000000000000000000000000000",
      "type": "0x2",
      "transactionHash": "0x384d0384b2afaf3785060e0dd88a08a4696c9f0551a3b5d959820719a99a023b",
      "transactionIndex": "0x51",
      "blockHash": "0x334e3071be741ee213aee45e0028220a820de9cf916228e81de3993dd1752a5b",
      "blockNumber": "0x724f5a",
      "gasUsed": "0x13af8",
      "effectiveGasPrice": "0x5aa8f2158",
      "from": "0xc77f7fed3b5cc8249adc428c5f44c9063b9734b4",
      "to": "0x5eb9cc76c3506942c1c0ead70e877dd5e4f00cb0",
      "contractAddress": null
    }
  ],
  "libraries": [],
  "pending": [],
  "returns": {},
  "timestamp": 1736878572,
  "chain": 11155111,
  "commit": "51a374b"
}