{
  "transactions": [
    {
      "hash": "0xe51de749d275caa0a618266c5b20bded7556b5b7afb1b5c9c2d08d7e89248b45",
      "transactionType": "CALL",
      "contractName": null,
      "contractAddress": "0x8aafd3ede9adb0ff97c7aebce82a919afb1c8764",
      "function": "sell(uint256)",
      "arguments": [
        "44792706"
      ],
      "transaction": {
        "from": "0xc77f7fed3b5cc8249adc428c5f44c9063b9734b4",
        "to": "0x8aafd3ede9adb0ff97c7aebce82a919afb1c8764",
        "gas": "0x15d88",
        "value": "0x0",
        "input": "0xe4849b320000000000000000000000000000000000000000000000000000000002ab7b82",
        "nonce": "0x1640",
        "chainId": "0xaa36a7"
      },
      "additionalContracts": [],
      "isFixedGasLimit": false
    }
  ],
  "receipts": [
    {
      "status": "0x1",
      "cumulativeGasUsed": "0x11606a1",
      "logs": [
        {
          "address": "0x8aafd3ede9adb0ff97c7aebce82a919afb1c8764",
          "topics": [
            "0xddf252ad1be2c89b69c2b068fc378daa952ba7f163c4a11628f55a4df523b3ef",
            "0x000000000000000000000000c77f7fed3b5cc8249adc428c5f44c9063b9734b4",
            "0x0000000000000000000000000000000000000000000000000000000000000000"
          ],
          "data": "0x0000000000000000000000000000000000000000000000000000000002a603bd",
          "blockHash": "0x1b1a76815de75efe5fd1ab390497eaa97dc62e366c623c9826fd052afa07b25d",
          "blockNumber": "0x731dd9",
          "transactionHash": "0xe51de749d275caa0a618266c5b20bded7556b5b7afb1b5c9c2d08d7e89248b45",
          "transactionIndex": "0x92",
          "logIndex": "0xd4",
          "removed": false
        },
        {
          "address": "0x8aafd3ede9adb0ff97c7aebce82a919afb1c8764",
          "topics": [
            "0xddf252ad1be2c89b69c2b068fc378daa952ba7f163c4a11628f55a4df523b3ef",
            "0x000000000000000000000000c77f7fed3b5cc8249adc428c5f44c9063b9734b4",
            "0x000000000000000000000000c77f7fed3b5cc8249adc428c5f44c9063b9734b4"
          ],
          "data": "0x00000000000000000000000000000000000000000000000000000000000577c5",
          "blockHash": "0x1b1a76815de75efe5fd1ab390497eaa97dc62e366c623c9826fd052afa07b25d",
          "blockNumber": "0x731dd9",
          "transactionHash": "0xe51de749d275caa0a618266c5b20bded7556b5b7afb1b5c9c2d08d7e89248b45",
          "transactionIndex": "0x92",
          "logIndex": "0xd5",
          "removed": false
        },
        {
          "address": "0x8aafd3ede9adb0ff97c7aebce82a919afb1c8764",
          "topics": [
            "0x4afcb4a87cdbd9974efdb92ee48bc8d7cd0ae4bf217004db3d080cbaee652ca7"
          ],
          "data": "0x00000000000000000000000000000000000000000000000000000000679063140000000000000000000000000000000000000000000000000014c044dfa34867000000000000000000000000000000000000000000000000000000000003fdfd",
          "blockHash": "0x1b1a76815de75efe5fd1ab390497eaa97dc62e366c623c9826fd052afa07b25d",
          "blockNumber": "0x731dd9",
          "transactionHash": "0xe51de749d275caa0a618266c5b20bded7556b5b7afb1b5c9c2d08d7e89248b45",
          "transactionIndex": "0x92",
          "logIndex": "0xd6",
          "removed": false
        }
      ],
      "logsBloom": "0x00000000000000000000000000000000000000000600000000000000000000000000000000000000000000000000000000000000000000004000000000000000000000000000004000000008000000000000000000000000000000000000000000000000020000000000000000000800020000000000000000000010000000000000000000000000000000000000000000000000000000000000010000000000000000000000000000000000000000004000000000000000000000000000000000000002000000800000000000000000000000000000080000000000000020000000000000000000000000000000000000000000000000000000000000000000",
      "type": "0x2",
      "transactionHash": "0xe51de749d275caa0a618266c5b20bded7556b5b7afb1b5c9c2d08d7e89248b45",
      "transactionIndex": "0x92",
      "blockHash": "0x1b1a76815de75efe5fd1ab390497eaa97dc62e366c623c9826fd052afa07b25d",
      "blockNumber": "0x731dd9",
      "gasUsed": "0xfd0f",
      "effectiveGasPrice": "0x4a9afe01",
      "from": "0xc77f7fed3b5cc8249adc428c5f44c9063b9734b4",
      "to": "0x8aafd3ede9adb0ff97c7aebce82a919afb1c8764",
      "contractAddress": null
    }
  ],
  "libraries": [],
  "pending": [],
  "returns": {},
  "timestamp": 1737515797,
  "chain": 11155111,
  "commit": "1d2fb70"
}