{
  "transactions": [
    {
      "hash": "0x6125bf4615a0369347e86dd95579cfd8168475496be0d3b18d177cf530c77f49",
      "transactionType": "CALL",
      "contractName": null,
      "contractAddress": "0xbf4a322f1496e5c3d34a9bcdb4c60567b38c7de2",
      "function": "sell(uint256)",
      "arguments": [
        "982786476059656889153"
      ],
      "transaction": {
        "from": "0xc77f7fed3b5cc8249adc428c5f44c9063b9734b4",
        "to": "0xbf4a322f1496e5c3d34a9bcdb4c60567b38c7de2",
        "gas": "0x16fea",
        "value": "0x0",
        "input": "0xe4849b3200000000000000000000000000000000000000000000003546e6f4f349caa341",
        "nonce": "0xb49",
        "chainId": "0xaa36a7"
      },
      "additionalContracts": [],
      "isFixedGasLimit": false
    }
  ],
  "receipts": [
    {
      "status": "0x1",
      "cumulativeGasUsed": "0xe51d12",
      "logs": [
        {
          "address": "0xbf4a322f1496e5c3d34a9bcdb4c60567b38c7de2",
          "topics": [
            "0xddf252ad1be2c89b69c2b068fc378daa952ba7f163c4a11628f55a4df523b3ef",
            "0x000000000000000000000000c77f7fed3b5cc8249adc428c5f44c9063b9734b4",
            "0x0000000000000000000000000000000000000000000000000000000000000000"
          ],
          "data": "0x00000000000000000000000000000000000000000000003546e6f4f349caa341",
          "blockHash": "0x930f59f562bf7c8d6d6cd6a6aa363a04136413797569686bcb5620a85384b1c1",
          "blockNumber": "0x725b4d",
          "transactionHash": "0x6125bf4615a0369347e86dd95579cfd8168475496be0d3b18d177cf530c77f49",
          "transactionIndex": "0x44",
          "logIndex": "0x71",
          "removed": false
        },
        {
          "address": "0xbf4a322f1496e5c3d34a9bcdb4c60567b38c7de2",
          "topics": [
            "0x4afcb4a87cdbd9974efdb92ee48bc8d7cd0ae4bf217004db3d080cbaee652ca7"
          ],
          "data": "0x00000000000000000000000000000000000000000000000000000000678739f8000000000000000000000000000000000000000000000000000396f97df390020000000000000000000000000000000000000000000000000dc7e3e88b8127fe",
          "blockHash": "0x930f59f562bf7c8d6d6cd6a6aa363a04136413797569686bcb5620a85384b1c1",
          "blockNumber": "0x725b4d",
          "transactionHash": "0x6125bf4615a0369347e86dd95579cfd8168475496be0d3b18d177cf530c77f49",
          "transactionIndex": "0x44",
          "logIndex": "0x72",
          "removed": false
        }
      ],
      "logsBloom": "0x00000000000000000000000000000000000000000000000000000000000000000000000000000000000000000000000000000000000000004000000000000000000000000000000000000008000000000000001000000000000000000000000000000000020000000000000000000800020000000000000000000010000000000000000000000000000000000000000000000000000008000000010000000000000000000000000000000000000000004000000000000000000000000000000000000002000000800000000000001000000000000000080000000000000020000000000000000000000000000000000000000000000000000000000000000000",
      "type": "0x2",
      "transactionHash": "0x6125bf4615a0369347e86dd95579cfd8168475496be0d3b18d177cf530c77f49",
      "transactionIndex": "0x44",
      "blockHash": "0x930f59f562bf7c8d6d6cd6a6aa363a04136413797569686bcb5620a85384b1c1",
      "blockNumber": "0x725b4d",
      "gasUsed": "0xfb91",
      "effectiveGasPrice": "0x48d3c4a3",
      "from": "0xc77f7fed3b5cc8249adc428c5f44c9063b9734b4",
      "to": "0xbf4a322f1496e5c3d34a9bcdb4c60567b38c7de2",
      "contractAddress": null
    }
  ],
  "libraries": [],
  "pending": [],
  "returns": {},
  "timestamp": 1736915450,
  "chain": 11155111,
  "commit": "51a374b"
}