{
  "transactions": [
    {
      "hash": "0xcb2d2191784797fadb5585752d0764c691d2380aed650125ea33c41506cb0e9c",
      "transactionType": "CALL",
      "contractName": null,
      "contractAddress": "0x8aafd3ede9adb0ff97c7aebce82a919afb1c8764",
      "function": "buy(address)",
      "arguments": [
        "0xC77f7fed3b5Cc8249aDc428c5F44C9063B9734b4"
      ],
      "transaction": {
        "from": "0xc77f7fed3b5cc8249adc428c5f44c9063b9734b4",
        "to": "0x8aafd3ede9adb0ff97c7aebce82a919afb1c8764",
        "gas": "0x156ea",
        "value": "0xde0b6b3a7640000",
        "input": "0xf088d547000000000000000000000000c77f7fed3b5cc8249adc428c5f44c9063b9734b4",
        "nonce": "0xeff",
        "chainId": "0xaa36a7"
      },
      "additionalContracts": [],
      "isFixedGasLimit": false
    }
  ],
  "receipts": [
    {
      "status": "0x1",
      "cumulativeGasUsed": "0x143d4e6",
      "logs": [
        {
          "address": "0x8aafd3ede9adb0ff97c7aebce82a919afb1c8764",
          "topics": [
            "0xddf252ad1be2c89b69c2b068fc378daa952ba7f163c4a11628f55a4df523b3ef",
            "0x0000000000000000000000000000000000000000000000000000000000000000",
            "0x000000000000000000000000c77f7fed3b5cc8249adc428c5f44c9063b9734b4"
          ],
          "data": "0x0000000000000000000000000000000000000000000000284d733845a4988727",
          "blockHash": "0xc7240bc600b3bc70d3f6a4b933ee77c86051f186997f851775dfb9d454557e2c",
          "blockNumber": "0x731477",
          "transactionHash": "0xcb2d2191784797fadb5585752d0764c691d2380aed650125ea33c41506cb0e9c",
          "transactionIndex": "0x76",
          "logIndex": "0xbf",
          "removed": false
        },
        {
          "address": "0x8aafd3ede9adb0ff97c7aebce82a919afb1c8764",
          "topics": [
            "0xddf252ad1be2c89b69c2b068fc378daa952ba7f163c4a11628f55a4df523b3ef",
            "0x0000000000000000000000000000000000000000000000000000000000000000",
            "0x000000000000000000000000c77f7fed3b5cc8249adc428c5f44c9063b9734b4"
          ],
          "data": "0x0000000000000000000000000000000000000000000000001f4bda16e6cdc344",
          "blockHash": "0xc7240bc600b3bc70d3f6a4b933ee77c86051f186997f851775dfb9d454557e2c",
          "blockNumber": "0x731477",
          "transactionHash": "0xcb2d2191784797fadb5585752d0764c691d2380aed650125ea33c41506cb0e9c",
          "transactionIndex": "0x76",
          "logIndex": "0xc0",
          "removed": false
        },
        {
          "address": "0x8aafd3ede9adb0ff97c7aebce82a919afb1c8764",
          "topics": [
            "0x4afcb4a87cdbd9974efdb92ee48bc8d7cd0ae4bf217004db3d080cbaee652ca7"
          ],
          "data": "0x00000000000000000000000000000000000000000000000000000000678ff2400000000000000000000000000000000000000000000000000004bb3a9ac129210000000000000000000000000000000000000000000000000de0b6b3a7640000",
          "blockHash": "0xc7240bc600b3bc70d3f6a4b933ee77c86051f186997f851775dfb9d454557e2c",
          "blockNumber": "0x731477",
          "transactionHash": "0xcb2d2191784797fadb5585752d0764c691d2380aed650125ea33c41506cb0e9c",
          "transactionIndex": "0x76",
          "logIndex": "0xc1",
          "removed": false
        }
      ],
      "logsBloom": "0x00000000000000000000000000000000000000000600000000000000000000000000000000000000000000000000000000000000000000004000000000000000000000000000004000000008000000000000000000000000000000000000000000000000020000000000000000000800020000000000000000000010000000000000000000000000000000000000000000000000000000000000010000000000000000000000000000000000000000004000000000000000000000000000000000000002000000800000000000000000000000000000080000000000000020000000000000000000000000000000000000000000000000000000000000000000",
      "type": "0x2",
      "transactionHash": "0xcb2d2191784797fadb5585752d0764c691d2380aed650125ea33c41506cb0e9c",
      "transactionIndex": "0x76",
      "blockHash": "0xc7240bc600b3bc70d3f6a4b933ee77c86051f186997f851775dfb9d454557e2c",
      "blockNumber": "0x731477",
      "gasUsed": "0xf844",
      "effectiveGasPrice": "0x8f7f16b8",
      "from": "0xc77f7fed3b5cc8249adc428c5f44c9063b9734b4",
      "to": "0x8aafd3ede9adb0ff97c7aebce82a919afb1c8764",
      "contractAddress": null
    }
  ],
  "libraries": [],
  "pending": [],
  "returns": {},
  "timestamp": 1737486914,
  "chain": 11155111,
  "commit": "51a374b"
}