{
  "transactions": [
    {
      "hash": "0x93cff4e36b649569f1468ef3807e9c21f220ff6346545cc1371e6c7b411fb93e",
      "transactionType": "CALL",
      "contractName": null,
      "contractAddress": "0x5eb9cc76c3506942c1c0ead70e877dd5e4f00cb0",
      "function": "buy(address)",
      "arguments": [
        "0xC77f7fed3b5Cc8249aDc428c5F44C9063B9734b4"
      ],
      "transaction": {
        "from": "0xc77f7fed3b5cc8249adc428c5f44c9063b9734b4",
        "to": "0x5eb9cc76c3506942c1c0ead70e877dd5e4f00cb0",
        "gas": "0x156c8",
        "value": "0xde0b6b3a7640000",
        "input": "0xf088d547000000000000000000000000c77f7fed3b5cc8249adc428c5f44c9063b9734b4",
        "nonce": "0x1a1",
        "chainId": "0xaa36a7"
      },
      "additionalContracts": [],
      "isFixedGasLimit": false
    }
  ],
  "receipts": [
    {
      "status": "0x1",
      "cumulativeGasUsed": "0x8d05e4",
      "logs": [
        {
          "address": "0x5eb9cc76c3506942c1c0ead70e877dd5e4f00cb0",
          "topics": [
            "0xddf252ad1be2c89b69c2b068fc378daa952ba7f163c4a11628f55a4df523b3ef",
            "0x0000000000000000000000000000000000000000000000000000000000000000",
            "0x000000000000000000000000c77f7fed3b5cc8249adc428c5f44c9063b9734b4"
          ],
          "data": "0x000000000000000000000000000000000000000000000035a378bc0deeb9eefa",
          "blockHash": "0xb850a160daaea44d33d4ca3826c928cb67185b5ac550bb46e0561cad2d4ef1bf",
          "blockNumber": "0x723c88",
          "transactionHash": "0x93cff4e36b649569f1468ef3807e9c21f220ff6346545cc1371e6c7b411fb93e",
          "transactionIndex": "0x50",
          "logIndex": "0xa2",
          "removed": false
        },
        {
          "address": "0x5eb9cc76c3506942c1c0ead70e877dd5e4f00cb0",
          "topics": [
            "0xddf252ad1be2c89b69c2b068fc378daa952ba7f163c4a11628f55a4df523b3ef",
            "0x0000000000000000000000000000000000000000000000000000000000000000",
            "0x000000000000000000000000c77f7fed3b5cc8249adc428c5f44c9063b9734b4"
          ],
          "data": "0x00000000000000000000000000000000000000000000000029a6f4c264aa00f5",
          "blockHash": "0xb850a160daaea44d33d4ca3826c928cb67185b5ac550bb46e0561cad2d4ef1bf",
          "blockNumber": "0x723c88",
          "transactionHash": "0x93cff4e36b649569f1468ef3807e9c21f220ff6346545cc1371e6c7b411fb93e",
          "transactionIndex": "0x50",
          "logIndex": "0xa3",
          "removed": false
        },
        {
          "address": "0x5eb9cc76c3506942c1c0ead70e877dd5e4f00cb0",
          "topics": [
            "0x4afcb4a87cdbd9974efdb92ee48bc8d7cd0ae4bf217004db3d080cbaee652ca7"
          ],
          "data": "0x000000000000000000000000000000000000000000000000000000006785c7b400000000000000000000000000000000000000000000000000038dfe7d82c63b0000000000000000000000000000000000000000000000000de0b6b3a7640000",
          "blockHash": "0xb850a160daaea44d33d4ca3826c928cb67185b5ac550bb46e0561cad2d4ef1bf",
          "blockNumber": "0x723c88",
          "transactionHash": "0x93cff4e36b649569f1468ef3807e9c21f220ff6346545cc1371e6c7b411fb93e",
          "transactionIndex": "0x50",
          "logIndex": "0xa4",
          "removed": false
        }
      ],
      "logsBloom": "0x00000000000000000000000000000000000000000000000000000000000000000000000000000000000000000000000000000000000000004000000000000000000000000000000000000008000000000000000000000000000000000000000000000000020000000000000004000800020000000000000000000010000000000000000000000000000000000000000000000000000000000000010000000000000000000000000000000000000000004000000000000000000000000000020000000002000000800000008000000000000000000000080000000000000020000000000000000000000000000000000000000000000000000000000000000000",
      "type": "0x2",
      "transactionHash": "0x93cff4e36b649569f1468ef3807e9c21f220ff6346545cc1371e6c7b411fb93e",
      "transactionIndex": "0x50",
      "blockHash": "0xb850a160daaea44d33d4ca3826c928cb67185b5ac550bb46e0561cad2d4ef1bf",
      "blockNumber": "0x723c88",
      "gasUsed": "0xf82c",
      "effectiveGasPrice": "0x1f16aba00",
      "from": "0xc77f7fed3b5cc8249adc428c5f44c9063b9734b4",
      "to": "0x5eb9cc76c3506942c1c0ead70e877dd5e4f00cb0",
      "contractAddress": null
    }
  ],
  "libraries": [],
  "pending": [],
  "returns": {},
  "timestamp": 1736820661,
  "chain": 11155111,
  "commit": "51a374b"
}