{
  "transactions": [
    {
      "hash": "0x1171fe67829b765d1a2df16415ef06ed9d4d589f76bba068f77b2e4c7865703c",
      "transactionType": "CALL",
      "contractName": null,
      "contractAddress": "0x270e88f8683660553e8ba4eb2ad7c91a1710d769",
      "function": "buy(address)",
      "arguments": [
        "0xC77f7fed3b5Cc8249aDc428c5F44C9063B9734b4"
      ],
      "transaction": {
        "from": "0xc77f7fed3b5cc8249adc428c5f44c9063b9734b4",
        "to": "0x270e88f8683660553e8ba4eb2ad7c91a1710d769",
        "gas": "0x1b30c",
        "value": "0xde0b6b3a7640000",
        "input": "0xf088d547000000000000000000000000c77f7fed3b5cc8249adc428c5f44c9063b9734b4",
        "nonce": "0x536",
        "chainId": "0xaa36a7"
      },
      "additionalContracts": [],
      "isFixedGasLimit": false
    }
  ],
  "receipts": [
    {
      "status": "0x1",
      "cumulativeGasUsed": "0x218d62e",
      "logs": [
        {
          "address": "0x270e88f8683660553e8ba4eb2ad7c91a1710d769",
          "topics": [
            "0xddf252ad1be2c89b69c2b068fc378daa952ba7f163c4a11628f55a4df523b3ef",
            "0x0000000000000000000000000000000000000000000000000000000000000000",
            "0x000000000000000000000000c77f7fed3b5cc8249adc428c5f44c9063b9734b4"
          ],
          "data": "0x000000000000000000000000000000000000000000000034d5d0cfe5553e63b3",
          "blockHash": "0x465eb0d03a9f9f488836221b01e3a5bac3b2635f7bb747a3f9f5ab6372b39b36",
          "blockNumber": "0x7251d1",
          "transactionHash": "0x1171fe67829b765d1a2df16415ef06ed9d4d589f76bba068f77b2e4c7865703c",
          "transactionIndex": "0xd8",
          "logIndex": "0x181",
          "removed": false
        },
        {
          "address": "0x270e88f8683660553e8ba4eb2ad7c91a1710d769",
          "topics": [
            "0xddf252ad1be2c89b69c2b068fc378daa952ba7f163c4a11628f55a4df523b3ef",
            "0x0000000000000000000000000000000000000000000000000000000000000000",
            "0x000000000000000000000000c77f7fed3b5cc8249adc428c5f44c9063b9734b4"
          ],
          "data": "0x000000000000000000000000000000000000000000000000290741da0a2ec409",
          "blockHash": "0x465eb0d03a9f9f488836221b01e3a5bac3b2635f7bb747a3f9f5ab6372b39b36",
          "blockNumber": "0x7251d1",
          "transactionHash": "0x1171fe67829b765d1a2df16415ef06ed9d4d589f76bba068f77b2e4c7865703c",
          "transactionIndex": "0xd8",
          "logIndex": "0x182",
          "removed": false
        },
        {
          "address": "0x270e88f8683660553e8ba4eb2ad7c91a1710d769",
          "topics": [
            "0x4afcb4a87cdbd9974efdb92ee48bc8d7cd0ae4bf217004db3d080cbaee652ca7"
          ],
          "data": "0x000000000000000000000000000000000000000000000000000000006786c7b000000000000000000000000000000000000000000000000000039bef3e300c9a0000000000000000000000000000000000000000000000000de0b6b3a7640000",
          "blockHash": "0x465eb0d03a9f9f488836221b01e3a5bac3b2635f7bb747a3f9f5ab6372b39b36",
          "blockNumber": "0x7251d1",
          "transactionHash": "0x1171fe67829b765d1a2df16415ef06ed9d4d589f76bba068f77b2e4c7865703c",
          "transactionIndex": "0xd8",
          "logIndex": "0x183",
          "removed": false
        }
      ],
      "logsBloom": "0x00000000000000000000000000000000000000000000000000000000000000000000000000000000000000000000000020000000000000004000000000000000000000000000000000000008000000000000000000000000000000000000000000000000020000000000000000000800020000000000000000000010000000000000000000010000000000000000000000000000000000000000010000000000000000000000000000000000000000004000000000000000000000000000000000000002000000800000000000000000000000000000080000008000000020000000000000000000000000000000000000000000000000000000000000000000",
      "type": "0x2",
      "transactionHash": "0x1171fe67829b765d1a2df16415ef06ed9d4d589f76bba068f77b2e4c7865703c",
      "transactionIndex": "0xd8",
      "blockHash": "0x465eb0d03a9f9f488836221b01e3a5bac3b2635f7bb747a3f9f5ab6372b39b36",
      "blockNumber": "0x7251d1",
      "gasUsed": "0x13af8",
      "effectiveGasPrice": "0x3af81d976",
      "from": "0xc77f7fed3b5cc8249adc428c5f44c9063b9734b4",
      "to": "0x270e88f8683660553e8ba4eb2ad7c91a1710d769",
      "contractAddress": null
    }
  ],
  "libraries": [],
  "pending": [],
  "returns": {},
  "timestamp": 1736886192,
  "chain": 11155111,
  "commit": "51a374b"
}