{
  "transactions": [
    {
      "hash": "0x68c8ad77b1337039bb9821eff0a82f88a879f9d18f5d4a0b459ff6a33ce532f4",
      "transactionType": "CALL",
      "contractName": null,
      "contractAddress": "0x8aafd3ede9adb0ff97c7aebce82a919afb1c8764",
      "function": "sell(uint256)",
      "arguments": [
        "1469068"
      ],
      "transaction": {
        "from": "0xc77f7fed3b5cc8249adc428c5f44c9063b9734b4",
        "to": "0x8aafd3ede9adb0ff97c7aebce82a919afb1c8764",
        "gas": "0x16208",
        "value": "0x0",
        "input": "0xe4849b320000000000000000000000000000000000000000000000000000000000166a8c",
        "nonce": "0x10fc",
        "chainId": "0xaa36a7"
      },
      "additionalContracts": [],
      "isFixedGasLimit": false
    }
  ],
  "receipts": [
    {
      "status": "0x1",
      "cumulativeGasUsed": "0x15bc176",
      "logs": [
        {
          "address": "0x8aafd3ede9adb0ff97c7aebce82a919afb1c8764",
          "topics": [
            "0xddf252ad1be2c89b69c2b068fc378daa952ba7f163c4a11628f55a4df523b3ef",
            "0x000000000000000000000000c77f7fed3b5cc8249adc428c5f44c9063b9734b4",
            "0x0000000000000000000000000000000000000000000000000000000000000000"
          ],
          "data": "0x0000000000000000000000000000000000000000000000000000000000163ca4",
          "blockHash": "0xfed498cfd72992f2e93a43c0837af69418f991678c6c5666c97800bdae46c885",
          "blockNumber": "0x7317a8",
          "transactionHash": "0x68c8ad77b1337039bb9821eff0a82f88a879f9d18f5d4a0b459ff6a33ce532f4",
          "transactionIndex": "0xe5",
          "logIndex": "0x11d",
          "removed": false
        },
        {
          "address": "0x8aafd3ede9adb0ff97c7aebce82a919afb1c8764",
          "topics": [
            "0xddf252ad1be2c89b69c2b068fc378daa952ba7f163c4a11628f55a4df523b3ef",
            "0x000000000000000000000000c77f7fed3b5cc8249adc428c5f44c9063b9734b4",
            "0x000000000000000000000000c77f7fed3b5cc8249adc428c5f44c9063b9734b4"
          ],
          "data": "0x0000000000000000000000000000000000000000000000000000000000002de8",
          "blockHash": "0xfed498cfd72992f2e93a43c0837af69418f991678c6c5666c97800bdae46c885",
          "blockNumber": "0x7317a8",
          "transactionHash": "0x68c8ad77b1337039bb9821eff0a82f88a879f9d18f5d4a0b459ff6a33ce532f4",
          "transactionIndex": "0xe5",
          "logIndex": "0x11e",
          "removed": false
        },
        {
          "address": "0x8aafd3ede9adb0ff97c7aebce82a919afb1c8764",
          "topics": [
            "0x4afcb4a87cdbd9974efdb92ee48bc8d7cd0ae4bf217004db3d080cbaee652ca7"
          ],
          "data": "0x00000000000000000000000000000000000000000000000000000000679018a400000000000000000000000000000000000000000000000000050ab4dd0c628e0000000000000000000000000000000000000000000000000000000000000824",
          "blockHash": "0xfed498cfd72992f2e93a43c0837af69418f991678c6c5666c97800bdae46c885",
          "blockNumber": "0x7317a8",
          "transactionHash": "0x68c8ad77b1337039bb9821eff0a82f88a879f9d18f5d4a0b459ff6a33ce532f4",
          "transactionIndex": "0xe5",
          "logIndex": "0x11f",
          "removed": false
        }
      ],
      "logsBloom": "0x00000000000000000000000000000000000000000600000000000000000000000000000000000000000000000000000000000000000000004000000000000000000000000000004000000008000000000000000000000000000000000000000000000000020000000000000000000800020000000000000000000010000000000000000000000000000000000000000000000000000000000000010000000000000000000000000000000000000000004000000000000000000000000000000000000002000000800000000000000000000000000000080000000000000020000000000000000000000000000000000000000000000000000000000000000000",
      "type": "0x2",
      "transactionHash": "0x68c8ad77b1337039bb9821eff0a82f88a879f9d18f5d4a0b459ff6a33ce532f4",
      "transactionIndex": "0xe5",
      "blockHash": "0xfed498cfd72992f2e93a43c0837af69418f991678c6c5666c97800bdae46c885",
      "blockNumber": "0x7317a8",
      "gasUsed": "0xf213",
      "effectiveGasPrice": "0x396acda5",
      "from": "0xc77f7fed3b5cc8249adc428c5f44c9063b9734b4",
      "to": "0x8aafd3ede9adb0ff97c7aebce82a919afb1c8764",
      "contractAddress": null
    }
  ],
  "libraries": [],
  "pending": [],
  "returns": {},
  "timestamp": 1737496741,
  "chain": 11155111,
  "commit": "1d2fb70"
}