{
  "transactions": [
    {
      "hash": "0x65cf2331d8f0e32e06762f1f14d223f39e5cdadb5f8aa386eae70bd17c32bbab",
      "transactionType": "CALL",
      "contractName": null,
      "contractAddress": "0x8aafd3ede9adb0ff97c7aebce82a919afb1c8764",
      "function": "sell(uint256)",
      "arguments": [
        "81678623874156"
      ],
      "transaction": {
        "from": "0xc77f7fed3b5cc8249adc428c5f44c9063b9734b4",
        "to": "0x8aafd3ede9adb0ff97c7aebce82a919afb1c8764",
        "gas": "0x15daa",
        "value": "0x0",
        "input": "0xe4849b3200000000000000000000000000000000000000000000000000004a49495c9c6c",
        "nonce": "0x16bb",
        "chainId": "0xaa36a7"
      },
      "additionalContracts": [],
      "isFixedGasLimit": false
    }
  ],
  "receipts": [
    {
      "status": "0x1",
      "cumulativeGasUsed": "0x103ebe6",
      "logs": [
        {
          "address": "0x8aafd3ede9adb0ff97c7aebce82a919afb1c8764",
          "topics": [
            "0xddf252ad1be2c89b69c2b068fc378daa952ba7f163c4a11628f55a4df523b3ef",
            "0x000000000000000000000000c77f7fed3b5cc8249adc428c5f44c9063b9734b4",
            "0x0000000000000000000000000000000000000000000000000000000000000000"
          ],
          "data": "0x000000000000000000000000000000000000000000000000000049b125f5785b",
          "blockHash": "0x845007df448a9160a511484c729893b0f2d4bff6796919f2b5d51e4839995c3b",
          "blockNumber": "0x731e74",
          "transactionHash": "0x65cf2331d8f0e32e06762f1f14d223f39e5cdadb5f8aa386eae70bd17c32bbab",
          "transactionIndex": "0x66",
          "logIndex": "0xb9",
          "removed": false
        },
        {
          "address": "0x8aafd3ede9adb0ff97c7aebce82a919afb1c8764",
          "topics": [
            "0xddf252ad1be2c89b69c2b068fc378daa952ba7f163c4a11628f55a4df523b3ef",
            "0x000000000000000000000000c77f7fed3b5cc8249adc428c5f44c9063b9734b4",
            "0x000000000000000000000000c77f7fed3b5cc8249adc428c5f44c9063b9734b4"
          ],
          "data": "0x0000000000000000000000000000000000000000000000000000009823672411",
          "blockHash": "0x845007df448a9160a511484c729893b0f2d4bff6796919f2b5d51e4839995c3b",
          "blockNumber": "0x731e74",
          "transactionHash": "0x65cf2331d8f0e32e06762f1f14d223f39e5cdadb5f8aa386eae70bd17c32bbab",
          "transactionIndex": "0x66",
          "logIndex": "0xba",
          "removed": false
        },
        {
          "address": "0x8aafd3ede9adb0ff97c7aebce82a919afb1c8764",
          "topics": [
            "0x4afcb4a87cdbd9974efdb92ee48bc8d7cd0ae4bf217004db3d080cbaee652ca7"
          ],
          "data": "0x0000000000000000000000000000000000000000000000000000000067906a58000000000000000000000000000000000000000000000000001638227e77e6da00000000000000000000000000000000000000000000000000000076eff61126",
          "blockHash": "0x845007df448a9160a511484c729893b0f2d4bff6796919f2b5d51e4839995c3b",
          "blockNumber": "0x731e74",
          "transactionHash": "0x65cf2331d8f0e32e06762f1f14d223f39e5cdadb5f8aa386eae70bd17c32bbab",
          "transactionIndex": "0x66",
          "logIndex": "0xbb",
          "removed": false
        }
      ],
      "logsBloom": "0x00000000000000000000000000000000000000000600000000000000000000000000000000000000000000000000000000000000000000004000000000000000000000000000004000000008000000000000000000000000000000000000000000000000020000000000000000000800020000000000000000000010000000000000000000000000000000000000000000000000000000000000010000000000000000000000000000000000000000004000000000000000000000000000000000000002000000800000000000000000000000000000080000000000000020000000000000000000000000000000000000000000000000000000000000000000",
      "type": "0x2",
      "transactionHash": "0x65cf2331d8f0e32e06762f1f14d223f39e5cdadb5f8aa386eae70bd17c32bbab",
      "transactionIndex": "0x66",
      "blockHash": "0x845007df448a9160a511484c729893b0f2d4bff6796919f2b5d51e4839995c3b",
      "blockNumber": "0x731e74",
      "gasUsed": "0xfd27",
      "effectiveGasPrice": "0x46bbd579",
      "from": "0xc77f7fed3b5cc8249adc428c5f44c9063b9734b4",
      "to": "0x8aafd3ede9adb0ff97c7aebce82a919afb1c8764",
      "contractAddress": null
    }
  ],
  "libraries": [],
  "pending": [],
  "returns": {},
  "timestamp": 1737517656,
  "chain": 11155111,
  "commit": "1d2fb70"
}