{
  "transactions": [
    {
      "hash": "0x89734cb080e36d28e273d8fa7fb558d4ec307d48f650af7250e050e7f2d509ae",
      "transactionType": "CALL",
      "contractName": null,
      "contractAddress": "0x5eb9cc76c3506942c1c0ead70e877dd5e4f00cb0",
      "function": "buy(address)",
      "arguments": [
        "0xC77f7fed3b5Cc8249aDc428c5F44C9063B9734b4"
      ],
      "transaction": {
        "from": "0xc77f7fed3b5cc8249adc428c5f44c9063b9734b4",
        "to": "0x5eb9cc76c3506942c1c0ead70e877dd5e4f00cb0",
        "gas": "0x1b30c",
        "value": "0xde0b6b3a7640000",
        "input": "0xf088d547000000000000000000000000c77f7fed3b5cc8249adc428c5f44c9063b9734b4",
        "nonce": "0x39c",
        "chainId": "0xaa36a7"
      },
      "additionalContracts": [],
      "isFixedGasLimit": false
    }
  ],
  "receipts": [
    {
      "status": "0x1",
      "cumulativeGasUsed": "0xd39b8c",
      "logs": [
        {
          "address": "0x5eb9cc76c3506942c1c0ead70e877dd5e4f00cb0",
          "topics": [
            "0xddf252ad1be2c89b69c2b068fc378daa952ba7f163c4a11628f55a4df523b3ef",
            "0x0000000000000000000000000000000000000000000000000000000000000000",
            "0x000000000000000000000000c77f7fed3b5cc8249adc428c5f44c9063b9734b4"
          ],
          "data": "0x000000000000000000000000000000000000000000000035753aa9ed3531bb24",
          "blockHash": "0x8a078fad4b40963b5c4bda206db38e7b3ec38b5cbd1c4ca487f3f3db6f6f661c",
          "blockNumber": "0x724f98",
          "transactionHash": "0x89734cb080e36d28e273d8fa7fb558d4ec307d48f650af7250e050e7f2d509ae",
          "transactionIndex": "0x5e",
          "logIndex": "0x9b",
          "removed": false
        },
        {
          "address": "0x5eb9cc76c3506942c1c0ead70e877dd5e4f00cb0",
          "topics": [
            "0xddf252ad1be2c89b69c2b068fc378daa952ba7f163c4a11628f55a4df523b3ef",
            "0x0000000000000000000000000000000000000000000000000000000000000000",
            "0x000000000000000000000000c77f7fed3b5cc8249adc428c5f44c9063b9734b4"
          ],
          "data": "0x00000000000000000000000000000000000000000000000029830c17f414179d",
          "blockHash": "0x8a078fad4b40963b5c4bda206db38e7b3ec38b5cbd1c4ca487f3f3db6f6f661c",
          "blockNumber": "0x724f98",
          "transactionHash": "0x89734cb080e36d28e273d8fa7fb558d4ec307d48f650af7250e050e7f2d509ae",
          "transactionIndex": "0x5e",
          "logIndex": "0x9c",
          "removed": false
        },
        {
          "address": "0x5eb9cc76c3506942c1c0ead70e877dd5e4f00cb0",
          "topics": [
            "0x4afcb4a87cdbd9974efdb92ee48bc8d7cd0ae4bf217004db3d080cbaee652ca7"
          ],
          "data": "0x000000000000000000000000000000000000000000000000000000006786acd400000000000000000000000000000000000000000000000000039111a88078360000000000000000000000000000000000000000000000000de0b6b3a7640000",
          "blockHash": "0x8a078fad4b40963b5c4bda206db38e7b3ec38b5cbd1c4ca487f3f3db6f6f661c",
          "blockNumber": "0x724f98",
          "transactionHash": "0x89734cb080e36d28e273d8fa7fb558d4ec307d48f650af7250e050e7f2d509ae",
          "transactionIndex": "0x5e",
          "logIndex": "0x9d",
          "removed": false
        }
      ],
      "logsBloom": "0x00000000000000000000000000000000000000000000000000000000000000000000000000000000000000000000000000000000000000004000000000000000000000000000000000000008000000000000000000000000000000000000000000000000020000000000000004000800020000000000000000000010000000000000000000000000000000000000000000000000000000000000010000000000000000000000000000000000000000004000000000000000000000000000020000000002000000800000008000000000000000000000080000000000000020000000000000000000000000000000000000000000000000000000000000000000",
      "type": "0x2",
      "transactionHash": "0x89734cb080e36d28e273d8fa7fb558d4ec307d48f650af7250e050e7f2d509ae",
      "transactionIndex": "0x5e",
      "blockHash": "0x8a078fad4b40963b5c4bda206db38e7b3ec38b5cbd1c4ca487f3f3db6f6f661c",
      "blockNumber": "0x724f98",
      "gasUsed": "0x13af8",
      "effectiveGasPrice": "0x5308a26b7",
      "from": "0xc77f7fed3b5cc8249adc428c5f44c9063b9734b4",
      "to": "0x5eb9cc76c3506942c1c0ead70e877dd5e4f00cb0",
      "contractAddress": null
    }
  ],
  "libraries": [],
  "pending": [],
  "returns": {},
  "timestamp": 1736879317,
  "chain": 11155111,
  "commit": "51a374b"
}