{
  "transactions": [
    {
      "hash": "0x11c37b7dcac25b16846b4daa9897c4819eacd1a37d65e63ab35776cb18871ea7",
      "transactionType": "CALL",
      "contractName": null,
      "contractAddress": "0x8aafd3ede9adb0ff97c7aebce82a919afb1c8764",
      "function": "sell(uint256)",
      "arguments": [
        "673196052774282356701"
      ],
      "transaction": {
        "from": "0xc77f7fed3b5cc8249adc428c5f44c9063b9734b4",
        "to": "0x8aafd3ede9adb0ff97c7aebce82a919afb1c8764",
        "gas": "0x17270",
        "value": "0x0",
        "input": "0xe4849b320000000000000000000000000000000000000000000000247e78d340ae3867dd",
        "nonce": "0x125d",
        "chainId": "0xaa36a7"
      },
      "additionalContracts": [],
      "isFixedGasLimit": false
    }
  ],
  "receipts": [
    {
      "status": "0x1",
      "cumulativeGasUsed": "0xe14ed5",
      "logs": [
        {
          "address": "0x8aafd3ede9adb0ff97c7aebce82a919afb1c8764",
          "topics": [
            "0xddf252ad1be2c89b69c2b068fc378daa952ba7f163c4a11628f55a4df523b3ef",
            "0x000000000000000000000000c77f7fed3b5cc8249adc428c5f44c9063b9734b4",
            "0x0000000000000000000000000000000000000000000000000000000000000000"
          ],
          "data": "0x00000000000000000000000000000000000000000000002433bb714e7fc54438",
          "blockHash": "0xec402d6a2fa6a85b50c836cb54081ea23f8819bb77ba0fa54d21ce82e32ed063",
          "blockNumber": "0x731942",
          "transactionHash": "0x11c37b7dcac25b16846b4daa9897c4819eacd1a37d65e63ab35776cb18871ea7",
          "transactionIndex": "0x82",
          "logIndex": "0xc8",
          "removed": false
        },
        {
          "address": "0x8aafd3ede9adb0ff97c7aebce82a919afb1c8764",
          "topics": [
            "0xddf252ad1be2c89b69c2b068fc378daa952ba7f163c4a11628f55a4df523b3ef",
            "0x000000000000000000000000c77f7fed3b5cc8249adc428c5f44c9063b9734b4",
            "0x000000000000000000000000c77f7fed3b5cc8249adc428c5f44c9063b9734b4"
          ],
          "data": "0x0000000000000000000000000000000000000000000000004abd61f22e7323a5",
          "blockHash": "0xec402d6a2fa6a85b50c836cb54081ea23f8819bb77ba0fa54d21ce82e32ed063",
          "blockNumber": "0x731942",
          "transactionHash": "0x11c37b7dcac25b16846b4daa9897c4819eacd1a37d65e63ab35776cb18871ea7",
          "transactionIndex": "0x82",
          "logIndex": "0xc9",
          "removed": false
        },
        {
          "address": "0x8aafd3ede9adb0ff97c7aebce82a919afb1c8764",
          "topics": [
            "0x4afcb4a87cdbd9974efdb92ee48bc8d7cd0ae4bf217004db3d080cbaee652ca7"
          ],
          "data": "0x0000000000000000000000000000000000000000000000000000000067902be800000000000000000000000000000000000000000000000000053f00843b0bf70000000000000000000000000000000000000000000000000dc8ef268c1972e5",
          "blockHash": "0xec402d6a2fa6a85b50c836cb54081ea23f8819bb77ba0fa54d21ce82e32ed063",
          "blockNumber": "0x731942",
          "transactionHash": "0x11c37b7dcac25b16846b4daa9897c4819eacd1a37d65e63ab35776cb18871ea7",
          "transactionIndex": "0x82",
          "logIndex": "0xca",
          "removed": false
        }
      ],
      "logsBloom": "0x00000000000000000000000000000000000000000600000000000000000000000000000000000000000000000000000000000000000000004000000000000000000000000000004000000008000000000000000000000000000000000000000000000000020000000000000000000800020000000000000000000010000000000000000000000000000000000000000000000000000000000000010000000000000000000000000000000000000000004000000000000000000000000000000000000002000000800000000000000000000000000000080000000000000020000000000000000000000000000000000000000000000000000000000000000000",
      "type": "0x2",
      "transactionHash": "0x11c37b7dcac25b16846b4daa9897c4819eacd1a37d65e63ab35776cb18871ea7",
      "transactionIndex": "0x82",
      "blockHash": "0xec402d6a2fa6a85b50c836cb54081ea23f8819bb77ba0fa54d21ce82e32ed063",
      "blockNumber": "0x731942",
      "gasUsed": "0xfd4b",
      "effectiveGasPrice": "0x3e4eb2d6",
      "from": "0xc77f7fed3b5cc8249adc428c5f44c9063b9734b4",
      "to": "0x8aafd3ede9adb0ff97c7aebce82a919afb1c8764",
      "contractAddress": null
    }
  ],
  "libraries": [],
  "pending": [],
  "returns": {},
  "timestamp": 1737501674,
  "chain": 11155111,
  "commit": "1d2fb70"
}