{
  "transactions": [
    {
      "hash": "0xdb98dc0cb3599e82f8ffdd4984f241f314b90efd53fa3d3f36ce97365f47b018",
      "transactionType": "CALL",
      "contractName": null,
      "contractAddress": "0xd733d32bbc32b9da11d0a266572d231cd445ea4a",
      "function": "borrowMore(uint256)",
      "arguments": [
        "68531608585461351"
      ],
      "transaction": {
        "from": "0xc77f7fed3b5cc8249adc428c5f44c9063b9734b4",
        "to": "0xd733d32bbc32b9da11d0a266572d231cd445ea4a",
        "gas": "0x1f6be",
        "value": "0x0",
        "input": "0x9d0bf2e900000000000000000000000000000000000000000000000000f37922899f5e67",
        "nonce": "0x193c",
        "chainId": "0xaa36a7"
      },
      "additionalContracts": [],
      "isFixedGasLimit": false
    }
  ],
  "receipts": [
    {
      "status": "0x1",
      "cumulativeGasUsed": "0x9ce2ce",
      "logs": [
        {
          "address": "0xd733d32bbc32b9da11d0a266572d231cd445ea4a",
          "topics": [
            "0x03bbe564cb1b78e43195eeadbde99e5b89b19345862807fcfb59f884e4165e25"
          ],
          "data": "0x00000000000000000000000038818e389773445cd73adbaa37b8b169f458c6e1000000000000000000000000000000000000000000000000000012b2e0a7db16",
          "blockHash": "0x27a41aebb921dfaa23d454791a57989d246de46dc2ad01bddfeb8544cdcc483a",
          "blockNumber": "0x739c61",
          "transactionHash": "0xdb98dc0cb3599e82f8ffdd4984f241f314b90efd53fa3d3f36ce97365f47b018",
          "transactionIndex": "0x6a",
          "logIndex": "0xa4",
          "removed": false
        },
        {
          "address": "0xd733d32bbc32b9da11d0a266572d231cd445ea4a",
          "topics": [
            "0x03bbe564cb1b78e43195eeadbde99e5b89b19345862807fcfb59f884e4165e25"
          ],
          "data": "0x000000000000000000000000c77f7fed3b5cc8249adc428c5f44c9063b9734b400000000000000000000000000000000000000000000000000f33ace476fd972",
          "blockHash": "0x27a41aebb921dfaa23d454791a57989d246de46dc2ad01bddfeb8544cdcc483a",
          "blockNumber": "0x739c61",
          "transactionHash": "0xdb98dc0cb3599e82f8ffdd4984f241f314b90efd53fa3d3f36ce97365f47b018",
          "transactionIndex": "0x6a",
          "logIndex": "0xa5",
          "removed": false
        },
        {
          "address": "0xd733d32bbc32b9da11d0a266572d231cd445ea4a",
          "topics": [
            "0xaec00f5213a37254bc68a26b0685d1a5b2bf513e1e587c94c7df7f4a62b56c9c"
          ],
          "data": "0x0000000000000000000000000000000000000000000000008ac7230489e7ffff0000000000000000000000000000000000000000000000000227f47f072502100000000000000000000000000000000000000000000000000227f47f072502100000000000000000000000000000000000000000000000008ac7230489e7ffff",
          "blockHash": "0x27a41aebb921dfaa23d454791a57989d246de46dc2ad01bddfeb8544cdcc483a",
          "blockNumber": "0x739c61",
          "transactionHash": "0xdb98dc0cb3599e82f8ffdd4984f241f314b90efd53fa3d3f36ce97365f47b018",
          "transactionIndex": "0x6a",
          "logIndex": "0xa6",
          "removed": false
        },
        {
          "address": "0xd733d32bbc32b9da11d0a266572d231cd445ea4a",
          "topics": [
            "0x4afcb4a87cdbd9974efdb92ee48bc8d7cd0ae4bf217004db3d080cbaee652ca7"
          ],
          "data": "0x0000000000000000000000000000000000000000000000000000000067968b280000000000000000000000000000000000000000000000000037c523f375e4fa00000000000000000000000000000000000000000000000000003e54422f84f5",
          "blockHash": "0x27a41aebb921dfaa23d454791a57989d246de46dc2ad01bddfeb8544cdcc483a",
          "blockNumber": "0x739c61",
          "transactionHash": "0xdb98dc0cb3599e82f8ffdd4984f241f314b90efd53fa3d3f36ce97365f47b018",
          "transactionIndex": "0x6a",
          "logIndex": "0xa7",
          "removed": false
        }
      ],
      "logsBloom": "0x00000000000000020000000000000100400000000000000000000000000000000008000000000000000000000000000000002000000000004000000000000000000000000000000000000000000000000000000000000000000000000000000000000000000000000000000000000000020000000000000000000000000000000000000000000000000000000000000000000000000000000000000000000000000000000000000000000400000000004000000000000000000000001000000000040000000000000000000000000000000000000000000000000000000000000000000000000000000000000080000000000000000000000000000000000000",
      "type": "0x2",
      "transactionHash": "0xdb98dc0cb3599e82f8ffdd4984f241f314b90efd53fa3d3f36ce97365f47b018",
      "transactionIndex": "0x6a",
      "blockHash": "0x27a41aebb921dfaa23d454791a57989d246de46dc2ad01bddfeb8544cdcc483a",
      "blockNumber": "0x739c61",
      "gasUsed": "0x157c2",
      "effectiveGasPrice": "0x127044618",
      "from": "0xc77f7fed3b5cc8249adc428c5f44c9063b9734b4",
      "to": "0xd733d32bbc32b9da11d0a266572d231cd445ea4a",
      "contractAddress": null
    }
  ],
  "libraries": [],
  "pending": [],
  "returns": {},
  "timestamp": 1737919273,
  "chain": 11155111,
  "commit": "f5162e9"
}