{
  "transactions": [
    {
      "hash": "0x9d870753be95bf8caee139320258064da54adc9a0fb89e67e12d7e5543b62d1b",
      "transactionType": "CALL",
      "contractName": null,
      "contractAddress": "0x8aafd3ede9adb0ff97c7aebce82a919afb1c8764",
      "function": "sell(uint256)",
      "arguments": [
        "15016555271796817"
      ],
      "transaction": {
        "from": "0xc77f7fed3b5cc8249adc428c5f44c9063b9734b4",
        "to": "0x8aafd3ede9adb0ff97c7aebce82a919afb1c8764",
        "gas": "0x1724d",
        "value": "0x0",
        "input": "0xe4849b320000000000000000000000000000000000000000000000000035597a3ab9b851",
        "nonce": "0x1456",
        "chainId": "0xaa36a7"
      },
      "additionalContracts": [],
      "isFixedGasLimit": false
    }
  ],
  "receipts": [
    {
      "status": "0x1",
      "cumulativeGasUsed": "0xf798b5",
      "logs": [
        {
          "address": "0x8aafd3ede9adb0ff97c7aebce82a919afb1c8764",
          "topics": [
            "0xddf252ad1be2c89b69c2b068fc378daa952ba7f163c4a11628f55a4df523b3ef",
            "0x000000000000000000000000c77f7fed3b5cc8249adc428c5f44c9063b9734b4",
            "0x0000000000000000000000000000000000000000000000000000000000000000"
          ],
          "data": "0x0000000000000000000000000000000000000000000000000034ec37b72f04ab",
          "blockHash": "0xe72e6fb0d4cd703b8f6e5738166a116e5ce0deac3271aa298039c469d4031f26",
          "blockNumber": "0x731b9d",
          "transactionHash": "0x9d870753be95bf8caee139320258064da54adc9a0fb89e67e12d7e5543b62d1b",
          "transactionIndex": "0x8b",
          "logIndex": "0xb6",
          "removed": false
        },
        {
          "address": "0x8aafd3ede9adb0ff97c7aebce82a919afb1c8764",
          "topics": [
            "0xddf252ad1be2c89b69c2b068fc378daa952ba7f163c4a11628f55a4df523b3ef",
            "0x000000000000000000000000c77f7fed3b5cc8249adc428c5f44c9063b9734b4",
            "0x000000000000000000000000c77f7fed3b5cc8249adc428c5f44c9063b9734b4"
          ],
          "data": "0x00000000000000000000000000000000000000000000000000006d42838ab3a6",
          "blockHash": "0xe72e6fb0d4cd703b8f6e5738166a116e5ce0deac3271aa298039c469d4031f26",
          "blockNumber": "0x731b9d",
          "transactionHash": "0x9d870753be95bf8caee139320258064da54adc9a0fb89e67e12d7e5543b62d1b",
          "transactionIndex": "0x8b",
          "logIndex": "0xb7",
          "removed": false
        },
        {
          "address": "0x8aafd3ede9adb0ff97c7aebce82a919afb1c8764",
          "topics": [
            "0x4afcb4a87cdbd9974efdb92ee48bc8d7cd0ae4bf217004db3d080cbaee652ca7"
          ],
          "data": "0x0000000000000000000000000000000000000000000000000000000067904838000000000000000000000000000000000000000000000000000f237ab802502200000000000000000000000000000000000000000000000000003a3242be24df",
          "blockHash": "0xe72e6fb0d4cd703b8f6e5738166a116e5ce0deac3271aa298039c469d4031f26",
          "blockNumber": "0x731b9d",
          "transactionHash": "0x9d870753be95bf8caee139320258064da54adc9a0fb89e67e12d7e5543b62d1b",
          "transactionIndex": "0x8b",
          "logIndex": "0xb8",
          "removed": false
        }
      ],
      "logsBloom": "0x00000000000000000000000000000000000000000600000000000000000000000000000000000000000000000000000000000000000000004000000000000000000000000000004000000008000000000000000000000000000000000000000000000000020000000000000000000800020000000000000000000010000000000000000000000000000000000000000000000000000000000000010000000000000000000000000000000000000000004000000000000000000000000000000000000002000000800000000000000000000000000000080000000000000020000000000000000000000000000000000000000000000000000000000000000000",
      "type": "0x2",
      "transactionHash": "0x9d870753be95bf8caee139320258064da54adc9a0fb89e67e12d7e5543b62d1b",
      "transactionIndex": "0x8b",
      "blockHash": "0xe72e6fb0d4cd703b8f6e5738166a116e5ce0deac3271aa298039c469d4031f26",
      "blockNumber": "0x731b9d",
      "gasUsed": "0xfd33",
      "effectiveGasPrice": "0x114320eb6",
      "from": "0xc77f7fed3b5cc8249adc428c5f44c9063b9734b4",
      "to": "0x8aafd3ede9adb0ff97c7aebce82a919afb1c8764",
      "contractAddress": null
    }
  ],
  "libraries": [],
  "pending": [],
  "returns": {},
  "timestamp": 1737508922,
  "chain": 11155111,
  "commit": "1d2fb70"
}