{
  "transactions": [
    {
      "hash": "0xfdc4c97bdd47da330543a4612f5b822275f0566a08b05340fe8d7110241b73bf",
      "transactionType": "CALL",
      "contractName": null,
      "contractAddress": "0x8aafd3ede9adb0ff97c7aebce82a919afb1c8764",
      "function": "sell(uint256)",
      "arguments": [
        "43989806625787017"
      ],
      "transaction": {
        "from": "0xc77f7fed3b5cc8249adc428c5f44c9063b9734b4",
        "to": "0x8aafd3ede9adb0ff97c7aebce82a919afb1c8764",
        "gas": "0x1724d",
        "value": "0x0",
        "input": "0xe4849b32000000000000000000000000000000000000000000000000009c487efdab0c89",
        "nonce": "0x11a1",
        "chainId": "0xaa36a7"
      },
      "additionalContracts": [],
      "isFixedGasLimit": false
    }
  ],
  "receipts": [
    {
      "status": "0x1",
      "cumulativeGasUsed": "0xb80624",
      "logs": [
        {
          "address": "0x8aafd3ede9adb0ff97c7aebce82a919afb1c8764",
          "topics": [
            "0xddf252ad1be2c89b69c2b068fc378daa952ba7f163c4a11628f55a4df523b3ef",
            "0x000000000000000000000000c77f7fed3b5cc8249adc428c5f44c9063b9734b4",
            "0x0000000000000000000000000000000000000000000000000000000000000000"
          ],
          "data": "0x000000000000000000000000000000000000000000000000009b086d97496cb1",
          "blockHash": "0xaedb05ba49b7c3dd29eaf7d0ec8b590ddbe39f0129e76a5fffcaa52eb3878cbf",
          "blockNumber": "0x73186a",
          "transactionHash": "0xfdc4c97bdd47da330543a4612f5b822275f0566a08b05340fe8d7110241b73bf",
          "transactionIndex": "0x7c",
          "logIndex": "0x9d",
          "removed": false
        },
        {
          "address": "0x8aafd3ede9adb0ff97c7aebce82a919afb1c8764",
          "topics": [
            "0xddf252ad1be2c89b69c2b068fc378daa952ba7f163c4a11628f55a4df523b3ef",
            "0x000000000000000000000000c77f7fed3b5cc8249adc428c5f44c9063b9734b4",
            "0x000000000000000000000000c77f7fed3b5cc8249adc428c5f44c9063b9734b4"
          ],
          "data": "0x0000000000000000000000000000000000000000000000000001401166619fd8",
          "blockHash": "0xaedb05ba49b7c3dd29eaf7d0ec8b590ddbe39f0129e76a5fffcaa52eb3878cbf",
          "blockNumber": "0x73186a",
          "transactionHash": "0xfdc4c97bdd47da330543a4612f5b822275f0566a08b05340fe8d7110241b73bf",
          "transactionIndex": "0x7c",
          "logIndex": "0x9e",
          "removed": false
        },
        {
          "address": "0x8aafd3ede9adb0ff97c7aebce82a919afb1c8764",
          "topics": [
            "0x4afcb4a87cdbd9974efdb92ee48bc8d7cd0ae4bf217004db3d080cbaee652ca7"
          ],
          "data": "0x00000000000000000000000000000000000000000000000000000000679021c800000000000000000000000000000000000000000000000000052366fd624fa1000000000000000000000000000000000000000000000000000039dd421d1966",
          "blockHash": "0xaedb05ba49b7c3dd29eaf7d0ec8b590ddbe39f0129e76a5fffcaa52eb3878cbf",
          "blockNumber": "0x73186a",
          "transactionHash": "0xfdc4c97bdd47da330543a4612f5b822275f0566a08b05340fe8d7110241b73bf",
          "transactionIndex": "0x7c",
          "logIndex": "0x9f",
          "removed": false
        }
      ],
      "logsBloom": "0x00000000000000000000000000000000000000000600000000000000000000000000000000000000000000000000000000000000000000004000000000000000000000000000004000000008000000000000000000000000000000000000000000000000020000000000000000000800020000000000000000000010000000000000000000000000000000000000000000000000000000000000010000000000000000000000000000000000000000004000000000000000000000000000000000000002000000800000000000000000000000000000080000000000000020000000000000000000000000000000000000000000000000000000000000000000",
      "type": "0x2",
      "transactionHash": "0xfdc4c97bdd47da330543a4612f5b822275f0566a08b05340fe8d7110241b73bf",
      "transactionIndex": "0x7c",
      "blockHash": "0xaedb05ba49b7c3dd29eaf7d0ec8b590ddbe39f0129e76a5fffcaa52eb3878cbf",
      "blockNumber": "0x73186a",
      "gasUsed": "0xfd33",
      "effectiveGasPrice": "0x42296672",
      "from": "0xc77f7fed3b5cc8249adc428c5f44c9063b9734b4",
      "to": "0x8aafd3ede9adb0ff97c7aebce82a919afb1c8764",
      "contractAddress": null
    }
  ],
  "libraries": [],
  "pending": [],
  "returns": {},
  "timestamp": 1737499081,
  "chain": 11155111,
  "commit": "1d2fb70"
}