{
  "transactions": [
    {
      "hash": "0x74738f0e4de231bb57e26e2029e49e39a564df5d13f94ec1f07ca03b17871ac3",
      "transactionType": "CALL",
      "contractName": null,
      "contractAddress": "0x270e88f8683660553e8ba4eb2ad7c91a1710d769",
      "function": "sell(uint256)",
      "arguments": [
        "731503604462617761501"
      ],
      "transaction": {
        "from": "0xc77f7fed3b5cc8249adc428c5f44c9063b9734b4",
        "to": "0x270e88f8683660553e8ba4eb2ad7c91a1710d769",
        "gas": "0x16fec",
        "value": "0x0",
        "input": "0xe4849b32000000000000000000000000000000000000000000000027a7a6dc96282e16dd",
        "nonce": "0x79c",
        "chainId": "0xaa36a7"
      },
      "additionalContracts": [],
      "isFixedGasLimit": false
    }
  ],
  "receipts": [
    {
      "status": "0x1",
      "cumulativeGasUsed": "0x16625d6",
      "logs": [
        {
          "address": "0x270e88f8683660553e8ba4eb2ad7c91a1710d769",
          "topics": [
            "0xddf252ad1be2c89b69c2b068fc378daa952ba7f163c4a11628f55a4df523b3ef",
            "0x000000000000000000000000c77f7fed3b5cc8249adc428c5f44c9063b9734b4",
            "0x0000000000000000000000000000000000000000000000000000000000000000"
          ],
          "data": "0x000000000000000000000000000000000000000000000027a7a6dc96282e16dd",
          "blockHash": "0x20b02b2eb2548164fd67de4233d0ac3f712a0cc0569202c97e079feaf30f3669",
          "blockNumber": "0x7254cf",
          "transactionHash": "0x74738f0e4de231bb57e26e2029e49e39a564df5d13f94ec1f07ca03b17871ac3",
          "transactionIndex": "0x73",
          "logIndex": "0xcc",
          "removed": false
        },
        {
          "address": "0x270e88f8683660553e8ba4eb2ad7c91a1710d769",
          "topics": [
            "0x4afcb4a87cdbd9974efdb92ee48bc8d7cd0ae4bf217004db3d080cbaee652ca7"
          ],
          "data": "0x000000000000000000000000000000000000000000000000000000006786ebbc0000000000000000000000000000000000000000000000000004d2ea69905aa30000000000000000000000000000000000000000000000000dc8279ed606ccd1",
          "blockHash": "0x20b02b2eb2548164fd67de4233d0ac3f712a0cc0569202c97e079feaf30f3669",
          "blockNumber": "0x7254cf",
          "transactionHash": "0x74738f0e4de231bb57e26e2029e49e39a564df5d13f94ec1f07ca03b17871ac3",
          "transactionIndex": "0x73",
          "logIndex": "0xcd",
          "removed": false
        }
      ],
      "logsBloom": "0x00000000000000000000000000000000000000000000000000000000000000000000000000000000000000000000000020000000000000004000000000000000000000000000000000000008000000000000000000000000000000000000000000000000020000000000000000000800020000000000000000000010000000000000000000010000000000000000000000000000000000000000010000000000000000000000000000000000000000004000000000000000000000000000000000000002000000800000000000000000000000000000080000008000000020000000000000000000000000000000000000000000000000000000000000000000",
      "type": "0x2",
      "transactionHash": "0x74738f0e4de231bb57e26e2029e49e39a564df5d13f94ec1f07ca03b17871ac3",
      "transactionIndex": "0x73",
      "blockHash": "0x20b02b2eb2548164fd67de4233d0ac3f712a0cc0569202c97e079feaf30f3669",
      "blockNumber": "0x7254cf",
      "gasUsed": "0xfb93",
      "effectiveGasPrice": "0xd6f3c848",
      "from": "0xc77f7fed3b5cc8249adc428c5f44c9063b9734b4",
      "to": "0x270e88f8683660553e8ba4eb2ad7c91a1710d769",
      "contractAddress": null
    }
  ],
  "libraries": [],
  "pending": [],
  "returns": {},
  "timestamp": 1736895421,
  "chain": 11155111,
  "commit": "51a374b"
}