{
  "transactions": [
    {
      "hash": "0x7f1b11b6eb01a8a2997f858d46c2a1fd03ca090f1ee1df971854dd93e7fb4bb3",
      "transactionType": "CALL",
      "contractName": null,
      "contractAddress": "0x8aafd3ede9adb0ff97c7aebce82a919afb1c8764",
      "function": "sell(uint256)",
      "arguments": [
        "352970"
      ],
      "transaction": {
        "from": "0xc77f7fed3b5cc8249adc428c5f44c9063b9734b4",
        "to": "0x8aafd3ede9adb0ff97c7aebce82a919afb1c8764",
        "gas": "0x16208",
        "value": "0x0",
        "input": "0xe4849b3200000000000000000000000000000000000000000000000000000000000562ca",
        "nonce": "0x165c",
        "chainId": "0xaa36a7"
      },
      "additionalContracts": [],
      "isFixedGasLimit": false
    }
  ],
  "receipts": [
    {
      "status": "0x1",
      "cumulativeGasUsed": "0x8dddae",
      "logs": [
        {
          "address": "0x8aafd3ede9adb0ff97c7aebce82a919afb1c8764",
          "topics": [
            "0xddf252ad1be2c89b69c2b068fc378daa952ba7f163c4a11628f55a4df523b3ef",
            "0x000000000000000000000000c77f7fed3b5cc8249adc428c5f44c9063b9734b4",
            "0x0000000000000000000000000000000000000000000000000000000000000000"
          ],
          "data": "0x00000000000000000000000000000000000000000000000000000000000557c3",
          "blockHash": "0xcd48bc7eaece56998a0ade7b42586f85f2bb37029a115690bc554dcca88a1980",
          "blockNumber": "0x731dff",
          "transactionHash": "0x7f1b11b6eb01a8a2997f858d46c2a1fd03ca090f1ee1df971854dd93e7fb4bb3",
          "transactionIndex": "0x62",
          "logIndex": "0x85",
          "removed": false
        },
        {
          "address": "0x8aafd3ede9adb0ff97c7aebce82a919afb1c8764",
          "topics": [
            "0xddf252ad1be2c89b69c2b068fc378daa952ba7f163c4a11628f55a4df523b3ef",
            "0x000000000000000000000000c77f7fed3b5cc8249adc428c5f44c9063b9734b4",
            "0x000000000000000000000000c77f7fed3b5cc8249adc428c5f44c9063b9734b4"
          ],
          "data": "0x0000000000000000000000000000000000000000000000000000000000000b07",
          "blockHash": "0xcd48bc7eaece56998a0ade7b42586f85f2bb37029a115690bc554dcca88a1980",
          "blockNumber": "0x731dff",
          "transactionHash": "0x7f1b11b6eb01a8a2997f858d46c2a1fd03ca090f1ee1df971854dd93e7fb4bb3",
          "transactionIndex": "0x62",
          "logIndex": "0x86",
          "removed": false
        },
        {
          "address": "0x8aafd3ede9adb0ff97c7aebce82a919afb1c8764",
          "topics": [
            "0x4afcb4a87cdbd9974efdb92ee48bc8d7cd0ae4bf217004db3d080cbaee652ca7"
          ],
          "data": "0x00000000000000000000000000000000000000000000000000000000679064dc000000000000000000000000000000000000000000000000001510b68ce1551e000000000000000000000000000000000000000000000000000000000000082c",
          "blockHash": "0xcd48bc7eaece56998a0ade7b42586f85f2bb37029a115690bc554dcca88a1980",
          "blockNumber": "0x731dff",
          "transactionHash": "0x7f1b11b6eb01a8a2997f858d46c2a1fd03ca090f1ee1df971854dd93e7fb4bb3",
          "transactionIndex": "0x62",
          "logIndex": "0x87",
          "removed": false
        }
      ],
      "logsBloom": "0x00000000000000000000000000000000000000000600000000000000000000000000000000000000000000000000000000000000000000004000000000000000000000000000004000000008000000000000000000000000000000000000000000000000020000000000000000000800020000000000000000000010000000000000000000000000000000000000000000000000000000000000010000000000000000000000000000000000000000004000000000000000000000000000000000000002000000800000000000000000000000000000080000000000000020000000000000000000000000000000000000000000000000000000000000000000",
      "type": "0x2",
      "transactionHash": "0x7f1b11b6eb01a8a2997f858d46c2a1fd03ca090f1ee1df971854dd93e7fb4bb3",
      "transactionIndex": "0x62",
      "blockHash": "0xcd48bc7eaece56998a0ade7b42586f85f2bb37029a115690bc554dcca88a1980",
      "blockNumber": "0x731dff",
      "gasUsed": "0xf213",
      "effectiveGasPrice": "0x45ac83d4",
      "from": "0xc77f7fed3b5cc8249adc428c5f44c9063b9734b4",
      "to": "0x8aafd3ede9adb0ff97c7aebce82a919afb1c8764",
      "contractAddress": null
    }
  ],
  "libraries": [],
  "pending": [],
  "returns": {},
  "timestamp": 1737516253,
  "chain": 11155111,
  "commit": "1d2fb70"
}