{
  "transactions": [
    {
      "hash": "0xd62f3aa6433f5b0e3e9c7fba7d5ec439803a61ab6cae3e27f1d39f0be53057dc",
      "transactionType": "CALL",
      "contractName": null,
      "contractAddress": "0x8aafd3ede9adb0ff97c7aebce82a919afb1c8764",
      "function": "sell(uint256)",
      "arguments": [
        "361100224945441"
      ],
      "transaction": {
        "from": "0xc77f7fed3b5cc8249adc428c5f44c9063b9734b4",
        "to": "0x8aafd3ede9adb0ff97c7aebce82a919afb1c8764",
        "gas": "0x1724d",
        "value": "0x0",
        "input": "0xe4849b320000000000000000000000000000000000000000000000000001486b32a2dd21",
        "nonce": "0x10bc",
        "chainId": "0xaa36a7"
      },
      "additionalContracts": [],
      "isFixedGasLimit": false
    }
  ],
  "receipts": [
    {
      "status": "0x1",
      "cumulativeGasUsed": "0x12adfa9",
      "logs": [
        {
          "address": "0x8aafd3ede9adb0ff97c7aebce82a919afb1c8764",
          "topics": [
            "0xddf252ad1be2c89b69c2b068fc378daa952ba7f163c4a11628f55a4df523b3ef",
            "0x000000000000000000000000c77f7fed3b5cc8249adc428c5f44c9063b9734b4",
            "0x0000000000000000000000000000000000000000000000000000000000000000"
          ],
          "data": "0x000000000000000000000000000000000000000000000000000145ca98a18f96",
          "blockHash": "0x9803cc8cf71c3033850ef57683124020da135d5c9a9eeb6035557e4bc50c90b6",
          "blockNumber": "0x731753",
          "transactionHash": "0xd62f3aa6433f5b0e3e9c7fba7d5ec439803a61ab6cae3e27f1d39f0be53057dc",
          "transactionIndex": "0x8c",
          "logIndex": "0xf4",
          "removed": false
        },
        {
          "address": "0x8aafd3ede9adb0ff97c7aebce82a919afb1c8764",
          "topics": [
            "0xddf252ad1be2c89b69c2b068fc378daa952ba7f163c4a11628f55a4df523b3ef",
            "0x000000000000000000000000c77f7fed3b5cc8249adc428c5f44c9063b9734b4",
            "0x000000000000000000000000c77f7fed3b5cc8249adc428c5f44c9063b9734b4"
          ],
          "data": "0x000000000000000000000000000000000000000000000000000002a09a014d8b",
          "blockHash": "0x9803cc8cf71c3033850ef57683124020da135d5c9a9eeb6035557e4bc50c90b6",
          "blockNumber": "0x731753",
          "transactionHash": "0xd62f3aa6433f5b0e3e9c7fba7d5ec439803a61ab6cae3e27f1d39f0be53057dc",
          "transactionIndex": "0x8c",
          "logIndex": "0xf5",
          "removed": false
        },
        {
          "address": "0x8aafd3ede9adb0ff97c7aebce82a919afb1c8764",
          "topics": [
            "0x4afcb4a87cdbd9974efdb92ee48bc8d7cd0ae4bf217004db3d080cbaee652ca7"
          ],
          "data": "0x00000000000000000000000000000000000000000000000000000000679014a8000000000000000000000000000000000000000000000000000501fde3e675a600000000000000000000000000000000000000000000000000000076826add98",
          "blockHash": "0x9803cc8cf71c3033850ef57683124020da135d5c9a9eeb6035557e4bc50c90b6",
          "blockNumber": "0x731753",
          "transactionHash": "0xd62f3aa6433f5b0e3e9c7fba7d5ec439803a61ab6cae3e27f1d39f0be53057dc",
          "transactionIndex": "0x8c",
          "logIndex": "0xf6",
          "removed": false
        }
      ],
      "logsBloom": "0x00000000000000000000000000000000000000000600000000000000000000000000000000000000000000000000000000000000000000004000000000000000000000000000004000000008000000000000000000000000000000000000000000000000020000000000000000000800020000000000000000000010000000000000000000000000000000000000000000000000000000000000010000000000000000000000000000000000000000004000000000000000000000000000000000000002000000800000000000000000000000000000080000000000000020000000000000000000000000000000000000000000000000000000000000000000",
      "type": "0x2",
      "transactionHash": "0xd62f3aa6433f5b0e3e9c7fba7d5ec439803a61ab6cae3e27f1d39f0be53057dc",
      "transactionIndex": "0x8c",
      "blockHash": "0x9803cc8cf71c3033850ef57683124020da135d5c9a9eeb6035557e4bc50c90b6",
      "blockNumber": "0x731753",
      "gasUsed": "0xfd33",
      "effectiveGasPrice": "0x383c4a6e",
      "from": "0xc77f7fed3b5cc8249adc428c5f44c9063b9734b4",
      "to": "0x8aafd3ede9adb0ff97c7aebce82a919afb1c8764",
      "contractAddress": null
    }
  ],
  "libraries": [],
  "pending": [],
  "returns": {},
  "timestamp": 1737495721,
  "chain": 11155111,
  "commit": "1d2fb70"
}