{
  "transactions": [
    {
      "hash": "0xc6d2e381f2b7ed823cef5174ad7ffcaa349a506ec0faebefd0376c5d9e42c910",
      "transactionType": "CALL",
      "contractName": null,
      "contractAddress": "0x5eb9cc76c3506942c1c0ead70e877dd5e4f00cb0",
      "function": "sell(uint256)",
      "arguments": [
        "989069722870305145381"
      ],
      "transaction": {
        "from": "0xc77f7fed3b5cc8249adc428c5f44c9063b9734b4",
        "to": "0x5eb9cc76c3506942c1c0ead70e877dd5e4f00cb0",
        "gas": "0x16fec",
        "value": "0x0",
        "input": "0xe4849b320000000000000000000000000000000000000000000000359e1988a272964225",
        "nonce": "0x4bf",
        "chainId": "0xaa36a7"
      },
      "additionalContracts": [],
      "isFixedGasLimit": false
    }
  ],
  "receipts": [
    {
      "status": "0x1",
      "cumulativeGasUsed": "0x1530001",
      "logs": [
        {
          "address": "0x5eb9cc76c3506942c1c0ead70e877dd5e4f00cb0",
          "topics": [
            "0xddf252ad1be2c89b69c2b068fc378daa952ba7f163c4a11628f55a4df523b3ef",
            "0x000000000000000000000000c77f7fed3b5cc8249adc428c5f44c9063b9734b4",
            "0x0000000000000000000000000000000000000000000000000000000000000000"
          ],
          "data": "0x0000000000000000000000000000000000000000000000359e1988a272964225",
          "blockHash": "0x33e9af252003d992320d20dcd7b1c6e6a52b18a6b8b3f0fa1169d4fef984f439",
          "blockNumber": "0x7250ff",
          "transactionHash": "0xc6d2e381f2b7ed823cef5174ad7ffcaa349a506ec0faebefd0376c5d9e42c910",
          "transactionIndex": "0x59",
          "logIndex": "0xc4",
          "removed": false
        },
        {
          "address": "0x5eb9cc76c3506942c1c0ead70e877dd5e4f00cb0",
          "topics": [
            "0x4afcb4a87cdbd9974efdb92ee48bc8d7cd0ae4bf217004db3d080cbaee652ca7"
          ],
          "data": "0x000000000000000000000000000000000000000000000000000000006786bdd80000000000000000000000000000000000000000000000000003911ca0a76cd00000000000000000000000000000000000000000000000000dc7db1331b192f7",
          "blockHash": "0x33e9af252003d992320d20dcd7b1c6e6a52b18a6b8b3f0fa1169d4fef984f439",
          "blockNumber": "0x7250ff",
          "transactionHash": "0xc6d2e381f2b7ed823cef5174ad7ffcaa349a506ec0faebefd0376c5d9e42c910",
          "transactionIndex": "0x59",
          "logIndex": "0xc5",
          "removed": false
        }
      ],
      "logsBloom": "0x00000000000000000000000000000000000000000000000000000000000000000000000000000000000000000000000000000000000000004000000000000000000000000000000000000008000000000000000000000000000000000000000000000000020000000000000004000800020000000000000000000010000000000000000000000000000000000000000000000000000000000000010000000000000000000000000000000000000000004000000000000000000000000000020000000002000000800000008000000000000000000000080000000000000020000000000000000000000000000000000000000000000000000000000000000000",
      "type": "0x2",
      "transactionHash": "0xc6d2e381f2b7ed823cef5174ad7ffcaa349a506ec0faebefd0376c5d9e42c910",
      "transactionIndex": "0x59",
      "blockHash": "0x33e9af252003d992320d20dcd7b1c6e6a52b18a6b8b3f0fa1169d4fef984f439",
      "blockNumber": "0x7250ff",
      "gasUsed": "0xfb93",
      "effectiveGasPrice": "0x2b125d664",
      "from": "0xc77f7fed3b5cc8249adc428c5f44c9063b9734b4",
      "to": "0x5eb9cc76c3506942c1c0ead70e877dd5e4f00cb0",
      "contractAddress": null
    }
  ],
  "libraries": [],
  "pending": [],
  "returns": {},
  "timestamp": 1736883673,
  "chain": 11155111,
  "commit": "51a374b"
}