{
  "transactions": [
    {
      "hash": "0x569061e2dd78d5aabdf025cf686331e84697cfa16ef6338590839859334ba227",
      "transactionType": "CALL",
      "contractName": null,
      "contractAddress": "0x8aafd3ede9adb0ff97c7aebce82a919afb1c8764",
      "function": "sell(uint256)",
      "arguments": [
        "12445"
      ],
      "transaction": {
        "from": "0xc77f7fed3b5cc8249adc428c5f44c9063b9734b4",
        "to": "0x8aafd3ede9adb0ff97c7aebce82a919afb1c8764",
        "gas": "0x14e4c",
        "value": "0x0",
        "input": "0xe4849b32000000000000000000000000000000000000000000000000000000000000309d",
        "nonce": "0xf79",
        "chainId": "0xaa36a7"
      },
      "additionalContracts": [],
      "isFixedGasLimit": false
    }
  ],
  "receipts": [
    {
      "status": "0x1",
      "cumulativeGasUsed": "0xdb83a0",
      "logs": [
        {
          "address": "0x8aafd3ede9adb0ff97c7aebce82a919afb1c8764",
          "topics": [
            "0xddf252ad1be2c89b69c2b068fc378daa952ba7f163c4a11628f55a4df523b3ef",
            "0x000000000000000000000000c77f7fed3b5cc8249adc428c5f44c9063b9734b4",
            "0x0000000000000000000000000000000000000000000000000000000000000000"
          ],
          "data": "0x000000000000000000000000000000000000000000000000000000000000303a",
          "blockHash": "0x2c63354980a877916a35fb268069e86690e81d883ae3792adc2a2b1956f9a287",
          "blockNumber": "0x7315db",
          "transactionHash": "0x569061e2dd78d5aabdf025cf686331e84697cfa16ef6338590839859334ba227",
          "transactionIndex": "0x90",
          "logIndex": "0x100",
          "removed": false
        },
        {
          "address": "0x8aafd3ede9adb0ff97c7aebce82a919afb1c8764",
          "topics": [
            "0xddf252ad1be2c89b69c2b068fc378daa952ba7f163c4a11628f55a4df523b3ef",
            "0x000000000000000000000000c77f7fed3b5cc8249adc428c5f44c9063b9734b4",
            "0x000000000000000000000000c77f7fed3b5cc8249adc428c5f44c9063b9734b4"
          ],
          "data": "0x0000000000000000000000000000000000000000000000000000000000000063",
          "blockHash": "0x2c63354980a877916a35fb268069e86690e81d883ae3792adc2a2b1956f9a287",
          "blockNumber": "0x7315db",
          "transactionHash": "0x569061e2dd78d5aabdf025cf686331e84697cfa16ef6338590839859334ba227",
          "transactionIndex": "0x90",
          "logIndex": "0x101",
          "removed": false
        },
        {
          "address": "0x8aafd3ede9adb0ff97c7aebce82a919afb1c8764",
          "topics": [
            "0x4afcb4a87cdbd9974efdb92ee48bc8d7cd0ae4bf217004db3d080cbaee652ca7"
          ],
          "data": "0x00000000000000000000000000000000000000000000000000000000679002f00000000000000000000000000000000000000000000000000004c1d7760827640000000000000000000000000000000000000000000000000000000000000010",
          "blockHash": "0x2c63354980a877916a35fb268069e86690e81d883ae3792adc2a2b1956f9a287",
          "blockNumber": "0x7315db",
          "transactionHash": "0x569061e2dd78d5aabdf025cf686331e84697cfa16ef6338590839859334ba227",
          "transactionIndex": "0x90",
          "logIndex": "0x102",
          "removed": false
        }
      ],
      "logsBloom": "0x00000000000000000000000000000000000000000600000000000000000000000000000000000000000000000000000000000000000000004000000000000000000000000000004000000008000000000000000000000000000000000000000000000000020000000000000000000800020000000000000000000010000000000000000000000000000000000000000000000000000000000000010000000000000000000000000000000000000000004000000000000000000000000000000000000002000000800000000000000000000000000000080000000000000020000000000000000000000000000000000000000000000000000000000000000000",
      "type": "0x2",
      "transactionHash": "0x569061e2dd78d5aabdf025cf686331e84697cfa16ef6338590839859334ba227",
      "transactionIndex": "0x90",
      "blockHash": "0x2c63354980a877916a35fb268069e86690e81d883ae3792adc2a2b1956f9a287",
      "blockNumber": "0x7315db",
      "gasUsed": "0xf207",
      "effectiveGasPrice": "0x71ca5132",
      "from": "0xc77f7fed3b5cc8249adc428c5f44c9063b9734b4",
      "to": "0x8aafd3ede9adb0ff97c7aebce82a919afb1c8764",
      "contractAddress": null
    }
  ],
  "libraries": [],
  "pending": [],
  "returns": {},
  "timestamp": 1737491184,
  "chain": 11155111,
  "commit": "1d2fb70"
}