{
  "transactions": [
    {
      "hash": "0xe120f02e0ae69f8dbea456c9b7b2521baa5f7595b2d20948304f6415af2eead6",
      "transactionType": "CALL",
      "contractName": null,
      "contractAddress": "0x8aafd3ede9adb0ff97c7aebce82a919afb1c8764",
      "function": "sell(uint256)",
      "arguments": [
        "1501198"
      ],
      "transaction": {
        "from": "0xc77f7fed3b5cc8249adc428c5f44c9063b9734b4",
        "to": "0x8aafd3ede9adb0ff97c7aebce82a919afb1c8764",
        "gas": "0x16208",
        "value": "0x0",
        "input": "0xe4849b32000000000000000000000000000000000000000000000000000000000016e80e",
        "nonce": "0x103e",
        "chainId": "0xaa36a7"
      },
      "additionalContracts": [],
      "isFixedGasLimit": false
    }
  ],
  "receipts": [
    {
      "status": "0x1",
      "cumulativeGasUsed": "0xd36ae9",
      "logs": [
        {
          "address": "0x8aafd3ede9adb0ff97c7aebce82a919afb1c8764",
          "topics": [
            "0xddf252ad1be2c89b69c2b068fc378daa952ba7f163c4a11628f55a4df523b3ef",
            "0x000000000000000000000000c77f7fed3b5cc8249adc428c5f44c9063b9734b4",
            "0x0000000000000000000000000000000000000000000000000000000000000000"
          ],
          "data": "0x000000000000000000000000000000000000000000000000000000000016b925",
          "blockHash": "0x141c253b860dd747f379b893dd9021029cea0a3acc0d20b82461356cf5b627b3",
          "blockNumber": "0x7316bd",
          "transactionHash": "0xe120f02e0ae69f8dbea456c9b7b2521baa5f7595b2d20948304f6415af2eead6",
          "transactionIndex": "0x93",
          "logIndex": "0xab",
          "removed": false
        },
        {
          "address": "0x8aafd3ede9adb0ff97c7aebce82a919afb1c8764",
          "topics": [
            "0xddf252ad1be2c89b69c2b068fc378daa952ba7f163c4a11628f55a4df523b3ef",
            "0x000000000000000000000000c77f7fed3b5cc8249adc428c5f44c9063b9734b4",
            "0x000000000000000000000000c77f7fed3b5cc8249adc428c5f44c9063b9734b4"
          ],
          "data": "0x0000000000000000000000000000000000000000000000000000000000002ee9",
          "blockHash": "0x141c253b860dd747f379b893dd9021029cea0a3acc0d20b82461356cf5b627b3",
          "blockNumber": "0x7316bd",
          "transactionHash": "0xe120f02e0ae69f8dbea456c9b7b2521baa5f7595b2d20948304f6415af2eead6",
          "transactionIndex": "0x93",
          "logIndex": "0xac",
          "removed": false
        },
        {
          "address": "0x8aafd3ede9adb0ff97c7aebce82a919afb1c8764",
          "topics": [
            "0x4afcb4a87cdbd9974efdb92ee48bc8d7cd0ae4bf217004db3d080cbaee652ca7"
          ],
          "data": "0x0000000000000000000000000000000000000000000000000000000067900d940000000000000000000000000000000000000000000000000004ef1cc9407a6a0000000000000000000000000000000000000000000000000000000000000824",
          "blockHash": "0x141c253b860dd747f379b893dd9021029cea0a3acc0d20b82461356cf5b627b3",
          "blockNumber": "0x7316bd",
          "transactionHash": "0xe120f02e0ae69f8dbea456c9b7b2521baa5f7595b2d20948304f6415af2eead6",
          "transactionIndex": "0x93",
          "logIndex": "0xad",
          "removed": false
        }
      ],
      "logsBloom": "0x00000000000000000000000000000000000000000600000000000000000000000000000000000000000000000000000000000000000000004000000000000000000000000000004000000008000000000000000000000000000000000000000000000000020000000000000000000800020000000000000000000010000000000000000000000000000000000000000000000000000000000000010000000000000000000000000000000000000000004000000000000000000000000000000000000002000000800000000000000000000000000000080000000000000020000000000000000000000000000000000000000000000000000000000000000000",
      "type": "0x2",
      "transactionHash": "0xe120f02e0ae69f8dbea456c9b7b2521baa5f7595b2d20948304f6415af2eead6",
      "transactionIndex": "0x93",
      "blockHash": "0x141c253b860dd747f379b893dd9021029cea0a3acc0d20b82461356cf5b627b3",
      "blockNumber": "0x7316bd",
      "gasUsed": "0xf213",
      "effectiveGasPrice": "0x4b1bcbbf",
      "from": "0xc77f7fed3b5cc8249adc428c5f44c9063b9734b4",
      "to": "0x8aafd3ede9adb0ff97c7aebce82a919afb1c8764",
      "contractAddress": null
    }
  ],
  "libraries": [],
  "pending": [],
  "returns": {},
  "timestamp": 1737493910,
  "chain": 11155111,
  "commit": "1d2fb70"
}