{
  "transactions": [
    {
      "hash": "0x6a840eecef3b094da739931c0e6bd8b242cbe7ea6b5396abc3430ba726330c81",
      "transactionType": "CALL",
      "contractName": null,
      "contractAddress": "0x8aafd3ede9adb0ff97c7aebce82a919afb1c8764",
      "function": "sell(uint256)",
      "arguments": [
        "22597739085"
      ],
      "transaction": {
        "from": "0xc77f7fed3b5cc8249adc428c5f44c9063b9734b4",
        "to": "0x8aafd3ede9adb0ff97c7aebce82a919afb1c8764",
        "gas": "0x1722a",
        "value": "0x0",
        "input": "0xe4849b320000000000000000000000000000000000000000000000000000000542ee224d",
        "nonce": "0x1186",
        "chainId": "0xaa36a7"
      },
      "additionalContracts": [],
      "isFixedGasLimit": false
    }
  ],
  "receipts": [
    {
      "status": "0x1",
      "cumulativeGasUsed": "0x9ab98f",
      "logs": [
        {
          "address": "0x8aafd3ede9adb0ff97c7aebce82a919afb1c8764",
          "topics": [
            "0xddf252ad1be2c89b69c2b068fc378daa952ba7f163c4a11628f55a4df523b3ef",
            "0x000000000000000000000000c77f7fed3b5cc8249adc428c5f44c9063b9734b4",
            "0x0000000000000000000000000000000000000000000000000000000000000000"
          ],
          "data": "0x0000000000000000000000000000000000000000000000000000000538279ef5",
          "blockHash": "0x8ef79742a9c064f0917fcc981fde8b5ecfe73917e8dcac2fba88804005f54766",
          "blockNumber": "0x731849",
          "transactionHash": "0x6a840eecef3b094da739931c0e6bd8b242cbe7ea6b5396abc3430ba726330c81",
          "transactionIndex": "0x7f",
          "logIndex": "0x82",
          "removed": false
        },
        {
          "address": "0x8aafd3ede9adb0ff97c7aebce82a919afb1c8764",
          "topics": [
            "0xddf252ad1be2c89b69c2b068fc378daa952ba7f163c4a11628f55a4df523b3ef",
            "0x000000000000000000000000c77f7fed3b5cc8249adc428c5f44c9063b9734b4",
            "0x000000000000000000000000c77f7fed3b5cc8249adc428c5f44c9063b9734b4"
          ],
          "data": "0x000000000000000000000000000000000000000000000000000000000ac68358",
          "blockHash": "0x8ef79742a9c064f0917fcc981fde8b5ecfe73917e8dcac2fba88804005f54766",
          "blockNumber": "0x731849",
          "transactionHash": "0x6a840eecef3b094da739931c0e6bd8b242cbe7ea6b5396abc3430ba726330c81",
          "transactionIndex": "0x7f",
          "logIndex": "0x83",
          "removed": false
        },
        {
          "address": "0x8aafd3ede9adb0ff97c7aebce82a919afb1c8764",
          "topics": [
            "0x4afcb4a87cdbd9974efdb92ee48bc8d7cd0ae4bf217004db3d080cbaee652ca7"
          ],
          "data": "0x000000000000000000000000000000000000000000000000000000006790203000000000000000000000000000000000000000000000000000051f0b35fb817b0000000000000000000000000000000000000000000000000000000001f10d63",
          "blockHash": "0x8ef79742a9c064f0917fcc981fde8b5ecfe73917e8dcac2fba88804005f54766",
          "blockNumber": "0x731849",
          "transactionHash": "0x6a840eecef3b094da739931c0e6bd8b242cbe7ea6b5396abc3430ba726330c81",
          "transactionIndex": "0x7f",
          "logIndex": "0x84",
          "removed": false
        }
      ],
      "logsBloom": "0x00000000000000000000000000000000000000000600000000000000000000000000000000000000000000000000000000000000000000004000000000000000000000000000004000000008000000000000000000000000000000000000000000000000020000000000000000000800020000000000000000000010000000000000000000000000000000000000000000000000000000000000010000000000000000000000000000000000000000004000000000000000000000000000000000000002000000800000000000000000000000000000080000000000000020000000000000000000000000000000000000000000000000000000000000000000",
      "type": "0x2",
      "transactionHash": "0x6a840eecef3b094da739931c0e6bd8b242cbe7ea6b5396abc3430ba726330c81",
      "transactionIndex": "0x7f",
      "blockHash": "0x8ef79742a9c064f0917fcc981fde8b5ecfe73917e8dcac2fba88804005f54766",
      "blockNumber": "0x731849",
      "gasUsed": "0xfd1b",
      "effectiveGasPrice": "0x410c7826",
      "from": "0xc77f7fed3b5cc8249adc428c5f44c9063b9734b4",
      "to": "0x8aafd3ede9adb0ff97c7aebce82a919afb1c8764",
      "contractAddress": null
    }
  ],
  "libraries": [],
  "pending": [],
  "returns": {},
  "timestamp": 1737498674,
  "chain": 11155111,
  "commit": "1d2fb70"
}