{
  "transactions": [
    {
      "hash": "0x723b83a6da1d9326d0a739da9d3cae81907a8d0ca88522e8363f8e28f1d41714",
      "transactionType": "CALL",
      "contractName": null,
      "contractAddress": "0x8aafd3ede9adb0ff97c7aebce82a919afb1c8764",
      "function": "sell(uint256)",
      "arguments": [
        "11706097209734036"
      ],
      "transaction": {
        "from": "0xc77f7fed3b5cc8249adc428c5f44c9063b9734b4",
        "to": "0x8aafd3ede9adb0ff97c7aebce82a919afb1c8764",
        "gas": "0x1724d",
        "value": "0x0",
        "input": "0xe4849b32000000000000000000000000000000000000000000000000002996a225e47394",
        "nonce": "0x15c7",
        "chainId": "0xaa36a7"
      },
      "additionalContracts": [],
      "isFixedGasLimit": false
    }
  ],
  "receipts": [
    {
      "status": "0x1",
      "cumulativeGasUsed": "0xbd9e4e",
      "logs": [
        {
          "address": "0x8aafd3ede9adb0ff97c7aebce82a919afb1c8764",
          "topics": [
            "0xddf252ad1be2c89b69c2b068fc378daa952ba7f163c4a11628f55a4df523b3ef",
            "0x000000000000000000000000c77f7fed3b5cc8249adc428c5f44c9063b9734b4",
            "0x0000000000000000000000000000000000000000000000000000000000000000"
          ],
          "data": "0x00000000000000000000000000000000000000000000000000294175d7c3e764",
          "blockHash": "0x7d9d32b01f1edf3ef715b35b26f4fcb7a35015e221bc2b3bf44332ac4da213ac",
          "blockNumber": "0x731d42",
          "transactionHash": "0x723b83a6da1d9326d0a739da9d3cae81907a8d0ca88522e8363f8e28f1d41714",
          "transactionIndex": "0x5e",
          "logIndex": "0x86",
          "removed": false
        },
        {
          "address": "0x8aafd3ede9adb0ff97c7aebce82a919afb1c8764",
          "topics": [
            "0xddf252ad1be2c89b69c2b068fc378daa952ba7f163c4a11628f55a4df523b3ef",
            "0x000000000000000000000000c77f7fed3b5cc8249adc428c5f44c9063b9734b4",
            "0x000000000000000000000000c77f7fed3b5cc8249adc428c5f44c9063b9734b4"
          ],
          "data": "0x0000000000000000000000000000000000000000000000000000552c4e208c30",
          "blockHash": "0x7d9d32b01f1edf3ef715b35b26f4fcb7a35015e221bc2b3bf44332ac4da213ac",
          "blockNumber": "0x731d42",
          "transactionHash": "0x723b83a6da1d9326d0a739da9d3cae81907a8d0ca88522e8363f8e28f1d41714",
          "transactionIndex": "0x5e",
          "logIndex": "0x87",
          "removed": false
        },
        {
          "address": "0x8aafd3ede9adb0ff97c7aebce82a919afb1c8764",
          "topics": [
            "0x4afcb4a87cdbd9974efdb92ee48bc8d7cd0ae4bf217004db3d080cbaee652ca7"
          ],
          "data": "0x0000000000000000000000000000000000000000000000000000000067905c0000000000000000000000000000000000000000000000000000136458b8199bd300000000000000000000000000000000000000000000000000003a1cf4ac5298",
          "blockHash": "0x7d9d32b01f1edf3ef715b35b26f4fcb7a35015e221bc2b3bf44332ac4da213ac",
          "blockNumber": "0x731d42",
          "transactionHash": "0x723b83a6da1d9326d0a739da9d3cae81907a8d0ca88522e8363f8e28f1d41714",
          "transactionIndex": "0x5e",
          "logIndex": "0x88",
          "removed": false
        }
      ],
      "logsBloom": "0x00000000000000000000000000000000000000000600000000000000000000000000000000000000000000000000000000000000000000004000000000000000000000000000004000000008000000000000000000000000000000000000000000000000020000000000000000000800020000000000000000000010000000000000000000000000000000000000000000000000000000000000010000000000000000000000000000000000000000004000000000000000000000000000000000000002000000800000000000000000000000000000080000000000000020000000000000000000000000000000000000000000000000000000000000000000",
      "type": "0x2",
      "transactionHash": "0x723b83a6da1d9326d0a739da9d3cae81907a8d0ca88522e8363f8e28f1d41714",
      "transactionIndex": "0x5e",
      "blockHash": "0x7d9d32b01f1edf3ef715b35b26f4fcb7a35015e221bc2b3bf44332ac4da213ac",
      "blockNumber": "0x731d42",
      "gasUsed": "0xfd33",
      "effectiveGasPrice": "0x74d28232",
      "from": "0xc77f7fed3b5cc8249adc428c5f44c9063b9734b4",
      "to": "0x8aafd3ede9adb0ff97c7aebce82a919afb1c8764",
      "contractAddress": null
    }
  ],
  "libraries": [],
  "pending": [],
  "returns": {},
  "timestamp": 1737513985,
  "chain": 11155111,
  "commit": "1d2fb70"
}