{
  "transactions": [
    {
      "hash": "0xbd1e4bfcb2c019304604b4e4c6d8f2d2af6f3e19a4adf87e142fd6a22293b489",
      "transactionType": "CALL",
      "contractName": null,
      "contractAddress": "0x5eb9cc76c3506942c1c0ead70e877dd5e4f00cb0",
      "function": "sell(uint256)",
      "arguments": [
        "989611334239948408544"
      ],
      "transaction": {
        "from": "0xc77f7fed3b5cc8249adc428c5f44c9063b9734b4",
        "to": "0x5eb9cc76c3506942c1c0ead70e877dd5e4f00cb0",
        "gas": "0x16fec",
        "value": "0x0",
        "input": "0xe4849b32000000000000000000000000000000000000000000000035a59db94e407c86e0",
        "nonce": "0x269",
        "chainId": "0xaa36a7"
      },
      "additionalContracts": [],
      "isFixedGasLimit": false
    }
  ],
  "receipts": [
    {
      "status": "0x1",
      "cumulativeGasUsed": "0x19c4828",
      "logs": [
        {
          "address": "0x5eb9cc76c3506942c1c0ead70e877dd5e4f00cb0",
          "topics": [
            "0xddf252ad1be2c89b69c2b068fc378daa952ba7f163c4a11628f55a4df523b3ef",
            "0x000000000000000000000000c77f7fed3b5cc8249adc428c5f44c9063b9734b4",
            "0x0000000000000000000000000000000000000000000000000000000000000000"
          ],
          "data": "0x000000000000000000000000000000000000000000000035a59db94e407c86e0",
          "blockHash": "0x7b030b2e52be6ac324869be87aa95972aac0ce66eabf650a1a404c2d02b8691a",
          "blockNumber": "0x724e2c",
          "transactionHash": "0xbd1e4bfcb2c019304604b4e4c6d8f2d2af6f3e19a4adf87e142fd6a22293b489",
          "transactionIndex": "0xd2",
          "logIndex": "0x160",
          "removed": false
        },
        {
          "address": "0x5eb9cc76c3506942c1c0ead70e877dd5e4f00cb0",
          "topics": [
            "0x4afcb4a87cdbd9974efdb92ee48bc8d7cd0ae4bf217004db3d080cbaee652ca7"
          ],
          "data": "0x0000000000000000000000000000000000000000000000000000000067869bc40000000000000000000000000000000000000000000000000003909cb0437a490000000000000000000000000000000000000000000000000dc7db118374b0e0",
          "blockHash": "0x7b030b2e52be6ac324869be87aa95972aac0ce66eabf650a1a404c2d02b8691a",
          "blockNumber": "0x724e2c",
          "transactionHash": "0xbd1e4bfcb2c019304604b4e4c6d8f2d2af6f3e19a4adf87e142fd6a22293b489",
          "transactionIndex": "0xd2",
          "logIndex": "0x161",
          "removed": false
        }
      ],
      "logsBloom": "0x00000000000000000000000000000000000000000000000000000000000000000000000000000000000000000000000000000000000000004000000000000000000000000000000000000008000000000000000000000000000000000000000000000000020000000000000004000800020000000000000000000010000000000000000000000000000000000000000000000000000000000000010000000000000000000000000000000000000000004000000000000000000000000000020000000002000000800000008000000000000000000000080000000000000020000000000000000000000000000000000000000000000000000000000000000000",
      "type": "0x2",
      "transactionHash": "0xbd1e4bfcb2c019304604b4e4c6d8f2d2af6f3e19a4adf87e142fd6a22293b489",
      "transactionIndex": "0xd2",
      "blockHash": "0x7b030b2e52be6ac324869be87aa95972aac0ce66eabf650a1a404c2d02b8691a",
      "blockNumber": "0x724e2c",
      "gasUsed": "0xfb93",
      "effectiveGasPrice": "0x353186aec",
      "from": "0xc77f7fed3b5cc8249adc428c5f44c9063b9734b4",
      "to": "0x5eb9cc76c3506942c1c0ead70e877dd5e4f00cb0",
      "contractAddress": null
    }
  ],
  "libraries": [],
  "pending": [],
  "returns": {},
  "timestamp": 1736874948,
  "chain": 11155111,
  "commit": "51a374b"
}