{
  "transactions": [
    {
      "hash": "0xdabc65d673a9f96c61bdff777b46b5e087222a2080e9ec679935edff2f1f714d",
      "transactionType": "CALL",
      "contractName": null,
      "contractAddress": "0x270e88f8683660553e8ba4eb2ad7c91a1710d769",
      "function": "sell(uint256)",
      "arguments": [
        "989183241192991232228"
      ],
      "transaction": {
        "from": "0xc77f7fed3b5cc8249adc428c5f44c9063b9734b4",
        "to": "0x270e88f8683660553e8ba4eb2ad7c91a1710d769",
        "gas": "0x16fec",
        "value": "0x0",
        "input": "0xe4849b320000000000000000000000000000000000000000000000359facd4f295ca10e4",
        "nonce": "0x4ed",
        "chainId": "0xaa36a7"
      },
      "additionalContracts": [],
      "isFixedGasLimit": false
    }
  ],
  "receipts": [
    {
      "status": "0x1",
      "cumulativeGasUsed": "0x16381f8",
      "logs": [
        {
          "address": "0x270e88f8683660553e8ba4eb2ad7c91a1710d769",
          "topics": [
            "0xddf252ad1be2c89b69c2b068fc378daa952ba7f163c4a11628f55a4df523b3ef",
            "0x000000000000000000000000c77f7fed3b5cc8249adc428c5f44c9063b9734b4",
            "0x0000000000000000000000000000000000000000000000000000000000000000"
          ],
          "data": "0x0000000000000000000000000000000000000000000000359facd4f295ca10e4",
          "blockHash": "0xea6e39b3c184ec7baadb32d6aeb5dd71a7a20967c0a5dffc108f19a75fa32219",
          "blockNumber": "0x72517d",
          "transactionHash": "0xdabc65d673a9f96c61bdff777b46b5e087222a2080e9ec679935edff2f1f714d",
          "transactionIndex": "0x65",
          "logIndex": "0x97",
          "removed": false
        },
        {
          "address": "0x270e88f8683660553e8ba4eb2ad7c91a1710d769",
          "topics": [
            "0x4afcb4a87cdbd9974efdb92ee48bc8d7cd0ae4bf217004db3d080cbaee652ca7"
          ],
          "data": "0x000000000000000000000000000000000000000000000000000000006786c3c00000000000000000000000000000000000000000000000000003914c9c46828d0000000000000000000000000000000000000000000000000dc8422ef3bd1838",
          "blockHash": "0xea6e39b3c184ec7baadb32d6aeb5dd71a7a20967c0a5dffc108f19a75fa32219",
          "blockNumber": "0x72517d",
          "transactionHash": "0xdabc65d673a9f96c61bdff777b46b5e087222a2080e9ec679935edff2f1f714d",
          "transactionIndex": "0x65",
          "logIndex": "0x98",
          "removed": false
        }
      ],
      "logsBloom": "0x00000000000000000000000000000000000000000000000000000000000000000000000000000000000000000000000020000000000000004000000000000000000000000000000000000008000000000000000000000000000000000000000000000000020000000000000000000800020000000000000000000010000000000000000000010000000000000000000000000000000000000000010000000000000000000000000000000000000000004000000000000000000000000000000000000002000000800000000000000000000000000000080000008000000020000000000000000000000000000000000000000000000000000000000000000000",
      "type": "0x2",
      "transactionHash": "0xdabc65d673a9f96c61bdff777b46b5e087222a2080e9ec679935edff2f1f714d",
      "transactionIndex": "0x65",
      "blockHash": "0xea6e39b3c184ec7baadb32d6aeb5dd71a7a20967c0a5dffc108f19a75fa32219",
      "blockNumber": "0x72517d",
      "gasUsed": "0xfb93",
      "effectiveGasPrice": "0x43838949e",
      "from": "0xc77f7fed3b5cc8249adc428c5f44c9063b9734b4",
      "to": "0x270e88f8683660553e8ba4eb2ad7c91a1710d769",
      "contractAddress": null
    }
  ],
  "libraries": [],
  "pending": [],
  "returns": {},
  "timestamp": 1736885185,
  "chain": 11155111,
  "commit": "51a374b"
}