{
  "transactions": [
    {
      "hash": "0xf3e1085d7a7d8c2b7e0281184898fa778a814646a43f4c1df0720700f05c40bb",
      "transactionType": "CALL",
      "contractName": null,
      "contractAddress": "0xbf4a322f1496e5c3d34a9bcdb4c60567b38c7de2",
      "function": "buy(address)",
      "arguments": [
        "0xC77f7fed3b5Cc8249aDc428c5F44C9063B9734b4"
      ],
      "transaction": {
        "from": "0xc77f7fed3b5cc8249adc428c5f44c9063b9734b4",
        "to": "0xbf4a322f1496e5c3d34a9bcdb4c60567b38c7de2",
        "gas": "0x1b309",
        "value": "0xde0b6b3a7640000",
        "input": "0xf088d547000000000000000000000000c77f7fed3b5cc8249adc428c5f44c9063b9734b4",
        "nonce": "0xc3e",
        "chainId": "0xaa36a7"
      },
      "additionalContracts": [],
      "isFixedGasLimit": false
    }
  ],
  "receipts": [
    {
      "status": "0x1",
      "cumulativeGasUsed": "0x651234",
      "logs": [
        {
          "address": "0xbf4a322f1496e5c3d34a9bcdb4c60567b38c7de2",
          "topics": [
            "0xddf252ad1be2c89b69c2b068fc378daa952ba7f163c4a11628f55a4df523b3ef",
            "0x0000000000000000000000000000000000000000000000000000000000000000",
            "0x000000000000000000000000c77f7fed3b5cc8249adc428c5f44c9063b9734b4"
          ],
          "data": "0x000000000000000000000000000000000000000000000034efda0b234725b5f2",
          "blockHash": "0x5b7417cd167d02c996c94fe96be83eb44bb629576b3d23127885d9ea8cfa1e87",
          "blockNumber": "0x725c73",
          "transactionHash": "0xf3e1085d7a7d8c2b7e0281184898fa778a814646a43f4c1df0720700f05c40bb",
          "transactionIndex": "0x36",
          "logIndex": "0x43",
          "removed": false
        },
        {
          "address": "0xbf4a322f1496e5c3d34a9bcdb4c60567b38c7de2",
          "topics": [
            "0xddf252ad1be2c89b69c2b068fc378daa952ba7f163c4a11628f55a4df523b3ef",
            "0x0000000000000000000000000000000000000000000000000000000000000000",
            "0x000000000000000000000000c77f7fed3b5cc8249adc428c5f44c9063b9734b4"
          ],
          "data": "0x000000000000000000000000000000000000000000000000291b79a19a51aa7f",
          "blockHash": "0x5b7417cd167d02c996c94fe96be83eb44bb629576b3d23127885d9ea8cfa1e87",
          "blockNumber": "0x725c73",
          "transactionHash": "0xf3e1085d7a7d8c2b7e0281184898fa778a814646a43f4c1df0720700f05c40bb",
          "transactionIndex": "0x36",
          "logIndex": "0x44",
          "removed": false
        },
        {
          "address": "0xbf4a322f1496e5c3d34a9bcdb4c60567b38c7de2",
          "topics": [
            "0x4afcb4a87cdbd9974efdb92ee48bc8d7cd0ae4bf217004db3d080cbaee652ca7"
          ],
          "data": "0x00000000000000000000000000000000000000000000000000000000678747c000000000000000000000000000000000000000000000000000039a107c4cd7c10000000000000000000000000000000000000000000000000de0b6b3a7640000",
          "blockHash": "0x5b7417cd167d02c996c94fe96be83eb44bb629576b3d23127885d9ea8cfa1e87",
          "blockNumber": "0x725c73",
          "transactionHash": "0xf3e1085d7a7d8c2b7e0281184898fa778a814646a43f4c1df0720700f05c40bb",
          "transactionIndex": "0x36",
          "logIndex": "0x45",
          "removed": false
        }
      ],
      "logsBloom": "0x00000000000000000000000000000000000000000000000000000000000000000000000000000000000000000000000000000000000000004000000000000000000000000000000000000008000000000000001000000000000000000000000000000000020000000000000000000800020000000000000000000010000000000000000000000000000000000000000000000000000008000000010000000000000000000000000000000000000000004000000000000000000000000000000000000002000000800000000000001000000000000000080000000000000020000000000000000000000000000000000000000000000000000000000000000000",
      "type": "0x2",
      "transactionHash": "0xf3e1085d7a7d8c2b7e0281184898fa778a814646a43f4c1df0720700f05c40bb",
      "transactionIndex": "0x36",
      "blockHash": "0x5b7417cd167d02c996c94fe96be83eb44bb629576b3d23127885d9ea8cfa1e87",
      "blockNumber": "0x725c73",
      "gasUsed": "0x13af6",
      "effectiveGasPrice": "0x1bd5f941d",
      "from": "0xc77f7fed3b5cc8249adc428c5f44c9063b9734b4",
      "to": "0xbf4a322f1496e5c3d34a9bcdb4c60567b38c7de2",
      "contractAddress": null
    }
  ],
  "libraries": [],
  "pending": [],
  "returns": {},
  "timestamp": 1736918977,
  "chain": 11155111,
  "commit": "51a374b"
}