{
  "transactions": [
    {
      "hash": "0x8be34ecc389fbba0117cef282ae0dd3f5a8edc7b63d6b9c4472c4ddee4fc89c6",
      "transactionType": "CALL",
      "contractName": null,
      "contractAddress": "0x5eb9cc76c3506942c1c0ead70e877dd5e4f00cb0",
      "function": "buy(address)",
      "arguments": [
        "0xC77f7fed3b5Cc8249aDc428c5F44C9063B9734b4"
      ],
      "transaction": {
        "from": "0xc77f7fed3b5cc8249adc428c5f44c9063b9734b4",
        "to": "0x5eb9cc76c3506942c1c0ead70e877dd5e4f00cb0",
        "gas": "0x1b30c",
        "value": "0xde0b6b3a7640000",
        "input": "0xf088d547000000000000000000000000c77f7fed3b5cc8249adc428c5f44c9063b9734b4",
        "nonce": "0x362",
        "chainId": "0xaa36a7"
      },
      "additionalContracts": [],
      "isFixedGasLimit": false
    }
  ],
  "receipts": [
    {
      "status": "0x1",
      "cumulativeGasUsed": "0x9ece63",
      "logs": [
        {
          "address": "0x5eb9cc76c3506942c1c0ead70e877dd5e4f00cb0",
          "topics": [
            "0xddf252ad1be2c89b69c2b068fc378daa952ba7f163c4a11628f55a4df523b3ef",
            "0x0000000000000000000000000000000000000000000000000000000000000000",
            "0x000000000000000000000000c77f7fed3b5cc8249adc428c5f44c9063b9734b4"
          ],
          "data": "0x000000000000000000000000000000000000000000000035755b66da53b54346",
          "blockHash": "0x3305301421be5d090d1127eb90b813c4552e0ad0e82070f056c285101302e10e",
          "blockNumber": "0x724f58",
          "transactionHash": "0x8be34ecc389fbba0117cef282ae0dd3f5a8edc7b63d6b9c4472c4ddee4fc89c6",
          "transactionIndex": "0x4c",
          "logIndex": "0x5f",
          "removed": false
        },
        {
          "address": "0x5eb9cc76c3506942c1c0ead70e877dd5e4f00cb0",
          "topics": [
            "0xddf252ad1be2c89b69c2b068fc378daa952ba7f163c4a11628f55a4df523b3ef",
            "0x0000000000000000000000000000000000000000000000000000000000000000",
            "0x000000000000000000000000c77f7fed3b5cc8249adc428c5f44c9063b9734b4"
          ],
          "data": "0x00000000000000000000000000000000000000000000000029832584074e0a48",
          "blockHash": "0x3305301421be5d090d1127eb90b813c4552e0ad0e82070f056c285101302e10e",
          "blockNumber": "0x724f58",
          "transactionHash": "0x8be34ecc389fbba0117cef282ae0dd3f5a8edc7b63d6b9c4472c4ddee4fc89c6",
          "transactionIndex": "0x4c",
          "logIndex": "0x60",
          "removed": false
        },
        {
          "address": "0x5eb9cc76c3506942c1c0ead70e877dd5e4f00cb0",
          "topics": [
            "0x4afcb4a87cdbd9974efdb92ee48bc8d7cd0ae4bf217004db3d080cbaee652ca7"
          ],
          "data": "0x000000000000000000000000000000000000000000000000000000006786a9d40000000000000000000000000000000000000000000000000003910f795669b30000000000000000000000000000000000000000000000000de0b6b3a7640000",
          "blockHash": "0x3305301421be5d090d1127eb90b813c4552e0ad0e82070f056c285101302e10e",
          "blockNumber": "0x724f58",
          "transactionHash": "0x8be34ecc389fbba0117cef282ae0dd3f5a8edc7b63d6b9c4472c4ddee4fc89c6",
          "transactionIndex": "0x4c",
          "logIndex": "0x61",
          "removed": false
        }
      ],
      "logsBloom": "0x00000000000000000000000000000000000000000000000000000000000000000000000000000000000000000000000000000000000000004000000000000000000000000000000000000008000000000000000000000000000000000000000000000000020000000000000004000800020000000000000000000010000000000000000000000000000000000000000000000000000000000000010000000000000000000000000000000000000000004000000000000000000000000000020000000002000000800000008000000000000000000000080000000000000020000000000000000000000000000000000000000000000000000000000000000000",
      "type": "0x2",
      "transactionHash": "0x8be34ecc389fbba0117cef282ae0dd3f5a8edc7b63d6b9c4472c4ddee4fc89c6",
      "transactionIndex": "0x4c",
      "blockHash": "0x3305301421be5d090d1127eb90b813c4552e0ad0e82070f056c285101302e10e",
      "blockNumber": "0x724f58",
      "gasUsed": "0x13af8",
      "effectiveGasPrice": "0x590daf4ce",
      "from": "0xc77f7fed3b5cc8249adc428c5f44c9063b9734b4",
      "to": "0x5eb9cc76c3506942c1c0ead70e877dd5e4f00cb0",
      "contractAddress": null
    }
  ],
  "libraries": [],
  "pending": [],
  "returns": {},
  "timestamp": 1736878549,
  "chain": 11155111,
  "commit": "51a374b"
}