{
  "transactions": [
    {
      "hash": "0x91013f4330ab3f7024493d8cd20f86121c21ebbbac8a1f323303ca52314c68f3",
      "transactionType": "CALL",
      "contractName": null,
      "contractAddress": "0x8aafd3ede9adb0ff97c7aebce82a919afb1c8764",
      "function": "sell(uint256)",
      "arguments": [
        "342687"
      ],
      "transaction": {
        "from": "0xc77f7fed3b5cc8249adc428c5f44c9063b9734b4",
        "to": "0x8aafd3ede9adb0ff97c7aebce82a919afb1c8764",
        "gas": "0x16208",
        "value": "0x0",
        "input": "0xe4849b320000000000000000000000000000000000000000000000000000000000053a9f",
        "nonce": "0x1692",
        "chainId": "0xaa36a7"
      },
      "additionalContracts": [],
      "isFixedGasLimit": false
    }
  ],
  "receipts": [
    {
      "status": "0x1",
      "cumulativeGasUsed": "0x15f137c",
      "logs": [
        {
          "address": "0x8aafd3ede9adb0ff97c7aebce82a919afb1c8764",
          "topics": [
            "0xddf252ad1be2c89b69c2b068fc378daa952ba7f163c4a11628f55a4df523b3ef",
            "0x000000000000000000000000c77f7fed3b5cc8249adc428c5f44c9063b9734b4",
            "0x0000000000000000000000000000000000000000000000000000000000000000"
          ],
          "data": "0x0000000000000000000000000000000000000000000000000000000000052fea",
          "blockHash": "0x50781663bd6df506bb8fb703a427070bb7b14a3ee7071c46d6b1ddc2dfa0ba76",
          "blockNumber": "0x731e48",
          "transactionHash": "0x91013f4330ab3f7024493d8cd20f86121c21ebbbac8a1f323303ca52314c68f3",
          "transactionIndex": "0x77",
          "logIndex": "0xdd",
          "removed": false
        },
        {
          "address": "0x8aafd3ede9adb0ff97c7aebce82a919afb1c8764",
          "topics": [
            "0xddf252ad1be2c89b69c2b068fc378daa952ba7f163c4a11628f55a4df523b3ef",
            "0x000000000000000000000000c77f7fed3b5cc8249adc428c5f44c9063b9734b4",
            "0x000000000000000000000000c77f7fed3b5cc8249adc428c5f44c9063b9734b4"
          ],
          "data": "0x0000000000000000000000000000000000000000000000000000000000000ab5",
          "blockHash": "0x50781663bd6df506bb8fb703a427070bb7b14a3ee7071c46d6b1ddc2dfa0ba76",
          "blockNumber": "0x731e48",
          "transactionHash": "0x91013f4330ab3f7024493d8cd20f86121c21ebbbac8a1f323303ca52314c68f3",
          "transactionIndex": "0x77",
          "logIndex": "0xde",
          "removed": false
        },
        {
          "address": "0x8aafd3ede9adb0ff97c7aebce82a919afb1c8764",
          "topics": [
            "0x4afcb4a87cdbd9974efdb92ee48bc8d7cd0ae4bf217004db3d080cbaee652ca7"
          ],
          "data": "0x00000000000000000000000000000000000000000000000000000000679068480000000000000000000000000000000000000000000000000015b1c3bfdf172f000000000000000000000000000000000000000000000000000000000000082c",
          "blockHash": "0x50781663bd6df506bb8fb703a427070bb7b14a3ee7071c46d6b1ddc2dfa0ba76",
          "blockNumber": "0x731e48",
          "transactionHash": "0x91013f4330ab3f7024493d8cd20f86121c21ebbbac8a1f323303ca52314c68f3",
          "transactionIndex": "0x77",
          "logIndex": "0xdf",
          "removed": false
        }
      ],
      "logsBloom": "0x00000000000000000000000000000000000000000600000000000000000000000000000000000000000000000000000000000000000000004000000000000000000000000000004000000008000000000000000000000000000000000000000000000000020000000000000000000800020000000000000000000010000000000000000000000000000000000000000000000000000000000000010000000000000000000000000000000000000000004000000000000000000000000000000000000002000000800000000000000000000000000000080000000000000020000000000000000000000000000000000000000000000000000000000000000000",
      "type": "0x2",
      "transactionHash": "0x91013f4330ab3f7024493d8cd20f86121c21ebbbac8a1f323303ca52314c68f3",
      "transactionIndex": "0x77",
      "blockHash": "0x50781663bd6df506bb8fb703a427070bb7b14a3ee7071c46d6b1ddc2dfa0ba76",
      "blockNumber": "0x731e48",
      "gasUsed": "0xf213",
      "effectiveGasPrice": "0x450daf54",
      "from": "0xc77f7fed3b5cc8249adc428c5f44c9063b9734b4",
      "to": "0x8aafd3ede9adb0ff97c7aebce82a919afb1c8764",
      "contractAddress": null
    }
  ],
  "libraries": [],
  "pending": [],
  "returns": {},
  "timestamp": 1737517129,
  "chain": 11155111,
  "commit": "1d2fb70"
}