{
  "transactions": [
    {
      "hash": "0xa6bf4e8d4a06ad8d17baf371dbfad313158ed010cd69391d376da513136d940d",
      "transactionType": "CALL",
      "contractName": null,
      "contractAddress": "0xbf4a322f1496e5c3d34a9bcdb4c60567b38c7de2",
      "function": "buy(address)",
      "arguments": [
        "0xC77f7fed3b5Cc8249aDc428c5F44C9063B9734b4"
      ],
      "transaction": {
        "from": "0xc77f7fed3b5cc8249adc428c5f44c9063b9734b4",
        "to": "0xbf4a322f1496e5c3d34a9bcdb4c60567b38c7de2",
        "gas": "0x1b309",
        "value": "0xde0b6b3a7640000",
        "input": "0xf088d547000000000000000000000000c77f7fed3b5cc8249adc428c5f44c9063b9734b4",
        "nonce": "0x986",
        "chainId": "0xaa36a7"
      },
      "additionalContracts": [],
      "isFixedGasLimit": false
    }
  ],
  "receipts": [
    {
      "status": "0x1",
      "cumulativeGasUsed": "0x105d91e",
      "logs": [
        {
          "address": "0xbf4a322f1496e5c3d34a9bcdb4c60567b38c7de2",
          "topics": [
            "0xddf252ad1be2c89b69c2b068fc378daa952ba7f163c4a11628f55a4df523b3ef",
            "0x0000000000000000000000000000000000000000000000000000000000000000",
            "0x000000000000000000000000c77f7fed3b5cc8249adc428c5f44c9063b9734b4"
          ],
          "data": "0x00000000000000000000000000000000000000000000003572400436aee1f000",
          "blockHash": "0xb24877070a06dd1ccdf79a1568945d6c68e5d7dc45b017e7cefbb7675a4d06d1",
          "blockNumber": "0x725926",
          "transactionHash": "0xa6bf4e8d4a06ad8d17baf371dbfad313158ed010cd69391d376da513136d940d",
          "transactionIndex": "0x8e",
          "logIndex": "0x99",
          "removed": false
        },
        {
          "address": "0xbf4a322f1496e5c3d34a9bcdb4c60567b38c7de2",
          "topics": [
            "0xddf252ad1be2c89b69c2b068fc378daa952ba7f163c4a11628f55a4df523b3ef",
            "0x0000000000000000000000000000000000000000000000000000000000000000",
            "0x000000000000000000000000c77f7fed3b5cc8249adc428c5f44c9063b9734b4"
          ],
          "data": "0x0000000000000000000000000000000000000000000000002980bbdf35b32401",
          "blockHash": "0xb24877070a06dd1ccdf79a1568945d6c68e5d7dc45b017e7cefbb7675a4d06d1",
          "blockNumber": "0x725926",
          "transactionHash": "0xa6bf4e8d4a06ad8d17baf371dbfad313158ed010cd69391d376da513136d940d",
          "transactionIndex": "0x8e",
          "logIndex": "0x9a",
          "removed": false
        },
        {
          "address": "0xbf4a322f1496e5c3d34a9bcdb4c60567b38c7de2",
          "topics": [
            "0x4afcb4a87cdbd9974efdb92ee48bc8d7cd0ae4bf217004db3d080cbaee652ca7"
          ],
          "data": "0x0000000000000000000000000000000000000000000000000000000067871ff400000000000000000000000000000000000000000000000000039146da8bafb40000000000000000000000000000000000000000000000000de0b6b3a7640000",
          "blockHash": "0xb24877070a06dd1ccdf79a1568945d6c68e5d7dc45b017e7cefbb7675a4d06d1",
          "blockNumber": "0x725926",
          "transactionHash": "0xa6bf4e8d4a06ad8d17baf371dbfad313158ed010cd69391d376da513136d940d",
          "transactionIndex": "0x8e",
          "logIndex": "0x9b",
          "removed": false
        }
      ],
      "logsBloom": "0x00000000000000000000000000000000000000000000000000000000000000000000000000000000000000000000000000000000000000004000000000000000000000000000000000000008000000000000001000000000000000000000000000000000020000000000000000000800020000000000000000000010000000000000000000000000000000000000000000000000000008000000010000000000000000000000000000000000000000004000000000000000000000000000000000000002000000800000000000001000000000000000080000000000000020000000000000000000000000000000000000000000000000000000000000000000",
      "type": "0x2",
      "transactionHash": "0xa6bf4e8d4a06ad8d17baf371dbfad313158ed010cd69391d376da513136d940d",
      "transactionIndex": "0x8e",
      "blockHash": "0xb24877070a06dd1ccdf79a1568945d6c68e5d7dc45b017e7cefbb7675a4d06d1",
      "blockNumber": "0x725926",
      "gasUsed": "0x13af6",
      "effectiveGasPrice": "0xbd3d588f",
      "from": "0xc77f7fed3b5cc8249adc428c5f44c9063b9734b4",
      "to": "0xbf4a322f1496e5c3d34a9bcdb4c60567b38c7de2",
      "contractAddress": null
    }
  ],
  "libraries": [],
  "pending": [],
  "returns": {},
  "timestamp": 1736908789,
  "chain": 11155111,
  "commit": "51a374b"
}