{
  "transactions": [
    {
      "hash": "0xdabc0ea911f05726fdbbda412ca2f0b6a1349565fbab11d9e36ba6f3513f90f6",
      "transactionType": "CALL",
      "contractName": null,
      "contractAddress": "0xbf4a322f1496e5c3d34a9bcdb4c60567b38c7de2",
      "function": "sell(uint256)",
      "arguments": [
        "987780824559562551348"
      ],
      "transaction": {
        "from": "0xc77f7fed3b5cc8249adc428c5f44c9063b9734b4",
        "to": "0xbf4a322f1496e5c3d34a9bcdb4c60567b38c7de2",
        "gas": "0x16fea",
        "value": "0x0",
        "input": "0xe4849b320000000000000000000000000000000000000000000000358c367273272c7034",
        "nonce": "0x9d9",
        "chainId": "0xaa36a7"
      },
      "additionalContracts": [],
      "isFixedGasLimit": false
    }
  ],
  "receipts": [
    {
      "status": "0x1",
      "cumulativeGasUsed": "0xdb62bb",
      "logs": [
        {
          "address": "0xbf4a322f1496e5c3d34a9bcdb4c60567b38c7de2",
          "topics": [
            "0xddf252ad1be2c89b69c2b068fc378daa952ba7f163c4a11628f55a4df523b3ef",
            "0x000000000000000000000000c77f7fed3b5cc8249adc428c5f44c9063b9734b4",
            "0x0000000000000000000000000000000000000000000000000000000000000000"
          ],
          "data": "0x0000000000000000000000000000000000000000000000358c367273272c7034",
          "blockHash": "0x1a0a83fcf6d3c5ac4a216e740f1b4136df34edb6c294bb61d53eb2f8b9b1598d",
          "blockNumber": "0x72598b",
          "transactionHash": "0xdabc0ea911f05726fdbbda412ca2f0b6a1349565fbab11d9e36ba6f3513f90f6",
          "transactionIndex": "0x8c",
          "logIndex": "0xed",
          "removed": false
        },
        {
          "address": "0xbf4a322f1496e5c3d34a9bcdb4c60567b38c7de2",
          "topics": [
            "0x4afcb4a87cdbd9974efdb92ee48bc8d7cd0ae4bf217004db3d080cbaee652ca7"
          ],
          "data": "0x00000000000000000000000000000000000000000000000000000000678724bc00000000000000000000000000000000000000000000000000039254083abfcd0000000000000000000000000000000000000000000000000dc7e3f42822efb1",
          "blockHash": "0x1a0a83fcf6d3c5ac4a216e740f1b4136df34edb6c294bb61d53eb2f8b9b1598d",
          "blockNumber": "0x72598b",
          "transactionHash": "0xdabc0ea911f05726fdbbda412ca2f0b6a1349565fbab11d9e36ba6f3513f90f6",
          "transactionIndex": "0x8c",
          "logIndex": "0xee",
          "removed": false
        }
      ],
      "logsBloom": "0x00000000000000000000000000000000000000000000000000000000000000000000000000000000000000000000000000000000000000004000000000000000000000000000000000000008000000000000001000000000000000000000000000000000020000000000000000000800020000000000000000000010000000000000000000000000000000000000000000000000000008000000010000000000000000000000000000000000000000004000000000000000000000000000000000000002000000800000000000001000000000000000080000000000000020000000000000000000000000000000000000000000000000000000000000000000",
      "type": "0x2",
      "transactionHash": "0xdabc0ea911f05726fdbbda412ca2f0b6a1349565fbab11d9e36ba6f3513f90f6",
      "transactionIndex": "0x8c",
      "blockHash": "0x1a0a83fcf6d3c5ac4a216e740f1b4136df34edb6c294bb61d53eb2f8b9b1598d",
      "blockNumber": "0x72598b",
      "gasUsed": "0xfb91",
      "effectiveGasPrice": "0x298b38663",
      "from": "0xc77f7fed3b5cc8249adc428c5f44c9063b9734b4",
      "to": "0xbf4a322f1496e5c3d34a9bcdb4c60567b38c7de2",
      "contractAddress": null
    }
  ],
  "libraries": [],
  "pending": [],
  "returns": {},
  "timestamp": 1736910014,
  "chain": 11155111,
  "commit": "51a374b"
}