{
  "transactions": [
    {
      "hash": "0x44f61cddd5e62c5f0b7d0a9020bcf3502a677e35c48f0bc77c83c394e8de2e1d",
      "transactionType": "CALL",
      "contractName": null,
      "contractAddress": "0x270e88f8683660553e8ba4eb2ad7c91a1710d769",
      "function": "buy(address)",
      "arguments": [
        "0xC77f7fed3b5Cc8249aDc428c5F44C9063B9734b4"
      ],
      "transaction": {
        "from": "0xc77f7fed3b5cc8249adc428c5f44c9063b9734b4",
        "to": "0x270e88f8683660553e8ba4eb2ad7c91a1710d769",
        "gas": "0x1b30c",
        "value": "0xde0b6b3a7640000",
        "input": "0xf088d547000000000000000000000000c77f7fed3b5cc8249adc428c5f44c9063b9734b4",
        "nonce": "0x550",
        "chainId": "0xaa36a7"
      },
      "additionalContracts": [],
      "isFixedGasLimit": false
    }
  ],
  "receipts": [
    {
      "status": "0x1",
      "cumulativeGasUsed": "0xa76f3b",
      "logs": [
        {
          "address": "0x270e88f8683660553e8ba4eb2ad7c91a1710d769",
          "topics": [
            "0xddf252ad1be2c89b69c2b068fc378daa952ba7f163c4a11628f55a4df523b3ef",
            "0x0000000000000000000000000000000000000000000000000000000000000000",
            "0x000000000000000000000000c77f7fed3b5cc8249adc428c5f44c9063b9734b4"
          ],
          "data": "0x0000000000000000000000000000000000000000000000349e5d3869f3ac8612",
          "blockHash": "0x214d739c15542f33107473a4df80b9dd0da77f5668d0c17c7f9280c3b906b195",
          "blockNumber": "0x7251ef",
          "transactionHash": "0x44f61cddd5e62c5f0b7d0a9020bcf3502a677e35c48f0bc77c83c394e8de2e1d",
          "transactionIndex": "0x51",
          "logIndex": "0xb8",
          "removed": false
        },
        {
          "address": "0x270e88f8683660553e8ba4eb2ad7c91a1710d769",
          "topics": [
            "0xddf252ad1be2c89b69c2b068fc378daa952ba7f163c4a11628f55a4df523b3ef",
            "0x0000000000000000000000000000000000000000000000000000000000000000",
            "0x000000000000000000000000c77f7fed3b5cc8249adc428c5f44c9063b9734b4"
          ],
          "data": "0x00000000000000000000000000000000000000000000000028dc327d938afcb3",
          "blockHash": "0x214d739c15542f33107473a4df80b9dd0da77f5668d0c17c7f9280c3b906b195",
          "blockNumber": "0x7251ef",
          "transactionHash": "0x44f61cddd5e62c5f0b7d0a9020bcf3502a677e35c48f0bc77c83c394e8de2e1d",
          "transactionIndex": "0x51",
          "logIndex": "0xb9",
          "removed": false
        },
        {
          "address": "0x270e88f8683660553e8ba4eb2ad7c91a1710d769",
          "topics": [
            "0x4afcb4a87cdbd9974efdb92ee48bc8d7cd0ae4bf217004db3d080cbaee652ca7"
          ],
          "data": "0x000000000000000000000000000000000000000000000000000000006786c92400000000000000000000000000000000000000000000000000039fbcd00e7aa30000000000000000000000000000000000000000000000000de0b6b3a7640000",
          "blockHash": "0x214d739c15542f33107473a4df80b9dd0da77f5668d0c17c7f9280c3b906b195",
          "blockNumber": "0x7251ef",
          "transactionHash": "0x44f61cddd5e62c5f0b7d0a9020bcf3502a677e35c48f0bc77c83c394e8de2e1d",
          "transactionIndex": "0x51",
          "logIndex": "0xba",
          "removed": false
        }
      ],
      "logsBloom": "0x00000000000000000000000000000000000000000000000000000000000000000000000000000000000000000000000020000000000000004000000000000000000000000000000000000008000000000000000000000000000000000000000000000000020000000000000000000800020000000000000000000010000000000000000000010000000000000000000000000000000000000000010000000000000000000000000000000000000000004000000000000000000000000000000000000002000000800000000000000000000000000000080000008000000020000000000000000000000000000000000000000000000000000000000000000000",
      "type": "0x2",
      "transactionHash": "0x44f61cddd5e62c5f0b7d0a9020bcf3502a677e35c48f0bc77c83c394e8de2e1d",
      "transactionIndex": "0x51",
      "blockHash": "0x214d739c15542f33107473a4df80b9dd0da77f5668d0c17c7f9280c3b906b195",
      "blockNumber": "0x7251ef",
      "gasUsed": "0x13af8",
      "effectiveGasPrice": "0x471bb64c9",
      "from": "0xc77f7fed3b5cc8249adc428c5f44c9063b9734b4",
      "to": "0x270e88f8683660553e8ba4eb2ad7c91a1710d769",
      "contractAddress": null
    }
  ],
  "libraries": [],
  "pending": [],
  "returns": {},
  "timestamp": 1736886566,
  "chain": 11155111,
  "commit": "51a374b"
}