{
  "transactions": [
    {
      "hash": "0x8a0344c3533682692ae8bd366be5edd1b603232cb3af11f70441104ad330a1e7",
      "transactionType": "CALL",
      "contractName": null,
      "contractAddress": "0xbf4a322f1496e5c3d34a9bcdb4c60567b38c7de2",
      "function": "buy(address)",
      "arguments": [
        "0xC77f7fed3b5Cc8249aDc428c5F44C9063B9734b4"
      ],
      "transaction": {
        "from": "0xc77f7fed3b5cc8249adc428c5f44c9063b9734b4",
        "to": "0xbf4a322f1496e5c3d34a9bcdb4c60567b38c7de2",
        "gas": "0x1b309",
        "value": "0xde0b6b3a7640000",
        "input": "0xf088d547000000000000000000000000c77f7fed3b5cc8249adc428c5f44c9063b9734b4",
        "nonce": "0xaea",
        "chainId": "0xaa36a7"
      },
      "additionalContracts": [],
      "isFixedGasLimit": false
    }
  ],
  "receipts": [
    {
      "status": "0x1",
      "cumulativeGasUsed": "0xf060b8",
      "logs": [
        {
          "address": "0xbf4a322f1496e5c3d34a9bcdb4c60567b38c7de2",
          "topics": [
            "0xddf252ad1be2c89b69c2b068fc378daa952ba7f163c4a11628f55a4df523b3ef",
            "0x0000000000000000000000000000000000000000000000000000000000000000",
            "0x000000000000000000000000c77f7fed3b5cc8249adc428c5f44c9063b9734b4"
          ],
          "data": "0x0000000000000000000000000000000000000000000000352f3d7b996946021a",
          "blockHash": "0xa358b400a81dafeeacd711649d42a610e05b02a3fe968ecb6c4f644dd36c26d0",
          "blockNumber": "0x725add",
          "transactionHash": "0x8a0344c3533682692ae8bd366be5edd1b603232cb3af11f70441104ad330a1e7",
          "transactionIndex": "0xa4",
          "logIndex": "0x10a",
          "removed": false
        },
        {
          "address": "0xbf4a322f1496e5c3d34a9bcdb4c60567b38c7de2",
          "topics": [
            "0xddf252ad1be2c89b69c2b068fc378daa952ba7f163c4a11628f55a4df523b3ef",
            "0x0000000000000000000000000000000000000000000000000000000000000000",
            "0x000000000000000000000000c77f7fed3b5cc8249adc428c5f44c9063b9734b4"
          ],
          "data": "0x000000000000000000000000000000000000000000000000294cb2ca98e0918f",
          "blockHash": "0xa358b400a81dafeeacd711649d42a610e05b02a3fe968ecb6c4f644dd36c26d0",
          "blockNumber": "0x725add",
          "transactionHash": "0x8a0344c3533682692ae8bd366be5edd1b603232cb3af11f70441104ad330a1e7",
          "transactionIndex": "0xa4",
          "logIndex": "0x10b",
          "removed": false
        },
        {
          "address": "0xbf4a322f1496e5c3d34a9bcdb4c60567b38c7de2",
          "topics": [
            "0x4afcb4a87cdbd9974efdb92ee48bc8d7cd0ae4bf217004db3d080cbaee652ca7"
          ],
          "data": "0x00000000000000000000000000000000000000000000000000000000678734ac000000000000000000000000000000000000000000000000000395c586af44540000000000000000000000000000000000000000000000000de0b6b3a7640000",
          "blockHash": "0xa358b400a81dafeeacd711649d42a610e05b02a3fe968ecb6c4f644dd36c26d0",
          "blockNumber": "0x725add",
          "transactionHash": "0x8a0344c3533682692ae8bd366be5edd1b603232cb3af11f70441104ad330a1e7",
          "transactionIndex": "0xa4",
          "logIndex": "0x10c",
          "removed": false
        }
      ],
      "logsBloom": "0x00000000000000000000000000000000000000000000000000000000000000000000000000000000000000000000000000000000000000004000000000000000000000000000000000000008000000000000001000000000000000000000000000000000020000000000000000000800020000000000000000000010000000000000000000000000000000000000000000000000000008000000010000000000000000000000000000000000000000004000000000000000000000000000000000000002000000800000000000001000000000000000080000000000000020000000000000000000000000000000000000000000000000000000000000000000",
      "type": "0x2",
      "transactionHash": "0x8a0344c3533682692ae8bd366be5edd1b603232cb3af11f70441104ad330a1e7",
      "transactionIndex": "0xa4",
      "blockHash": "0xa358b400a81dafeeacd711649d42a610e05b02a3fe968ecb6c4f644dd36c26d0",
      "blockNumber": "0x725add",
      "gasUsed": "0x13af6",
      "effectiveGasPrice": "0x9e2d8803",
      "from": "0xc77f7fed3b5cc8249adc428c5f44c9063b9734b4",
      "to": "0xbf4a322f1496e5c3d34a9bcdb4c60567b38c7de2",
      "contractAddress": null
    }
  ],
  "libraries": [],
  "pending": [],
  "returns": {},
  "timestamp": 1736914094,
  "chain": 11155111,
  "commit": "51a374b"
}