{
  "transactions": [
    {
      "hash": "0x4205b50ecedf30a7084e1db1fff46b64cf9595330b4c0f76d98deb6b40c6e726",
      "transactionType": "CALL",
      "contractName": null,
      "contractAddress": "0x5eb9cc76c3506942c1c0ead70e877dd5e4f00cb0",
      "function": "buy(address)",
      "arguments": [
        "0xC77f7fed3b5Cc8249aDc428c5F44C9063B9734b4"
      ],
      "transaction": {
        "from": "0xc77f7fed3b5cc8249adc428c5f44c9063b9734b4",
        "to": "0x5eb9cc76c3506942c1c0ead70e877dd5e4f00cb0",
        "gas": "0x156c8",
        "value": "0xde0b6b3a7640000",
        "input": "0xf088d547000000000000000000000000c77f7fed3b5cc8249adc428c5f44c9063b9734b4",
        "nonce": "0x167",
        "chainId": "0xaa36a7"
      },
      "additionalContracts": [],
      "isFixedGasLimit": false
    }
  ],
  "receipts": [
    {
      "status": "0x1",
      "cumulativeGasUsed": "0xba3c88",
      "logs": [
        {
          "address": "0x5eb9cc76c3506942c1c0ead70e877dd5e4f00cb0",
          "topics": [
            "0xddf252ad1be2c89b69c2b068fc378daa952ba7f163c4a11628f55a4df523b3ef",
            "0x0000000000000000000000000000000000000000000000000000000000000000",
            "0x000000000000000000000000c77f7fed3b5cc8249adc428c5f44c9063b9734b4"
          ],
          "data": "0x000000000000000000000000000000000000000000000035a6d95af74d115291",
          "blockHash": "0x6645a8835cd017220aae4db8b45cf5f78b6fd2dc4d09e5977a9a7f1c8bd2feb4",
          "blockNumber": "0x723c21",
          "transactionHash": "0x4205b50ecedf30a7084e1db1fff46b64cf9595330b4c0f76d98deb6b40c6e726",
          "transactionIndex": "0x55",
          "logIndex": "0x78",
          "removed": false
        },
        {
          "address": "0x5eb9cc76c3506942c1c0ead70e877dd5e4f00cb0",
          "topics": [
            "0xddf252ad1be2c89b69c2b068fc378daa952ba7f163c4a11628f55a4df523b3ef",
            "0x0000000000000000000000000000000000000000000000000000000000000000",
            "0x000000000000000000000000c77f7fed3b5cc8249adc428c5f44c9063b9734b4"
          ],
          "data": "0x00000000000000000000000000000000000000000000000029a9942ab6cc0459",
          "blockHash": "0x6645a8835cd017220aae4db8b45cf5f78b6fd2dc4d09e5977a9a7f1c8bd2feb4",
          "blockNumber": "0x723c21",
          "transactionHash": "0x4205b50ecedf30a7084e1db1fff46b64cf9595330b4c0f76d98deb6b40c6e726",
          "transactionIndex": "0x55",
          "logIndex": "0x79",
          "removed": false
        },
        {
          "address": "0x5eb9cc76c3506942c1c0ead70e877dd5e4f00cb0",
          "topics": [
            "0x4afcb4a87cdbd9974efdb92ee48bc8d7cd0ae4bf217004db3d080cbaee652ca7"
          ],
          "data": "0x000000000000000000000000000000000000000000000000000000006785c2e000000000000000000000000000000000000000000000000000038dc53458b8d80000000000000000000000000000000000000000000000000de0b6b3a7640000",
          "blockHash": "0x6645a8835cd017220aae4db8b45cf5f78b6fd2dc4d09e5977a9a7f1c8bd2feb4",
          "blockNumber": "0x723c21",
          "transactionHash": "0x4205b50ecedf30a7084e1db1fff46b64cf9595330b4c0f76d98deb6b40c6e726",
          "transactionIndex": "0x55",
          "logIndex": "0x7a",
          "removed": false
        }
      ],
      "logsBloom": "0x00000000000000000000000000000000000000000000000000000000000000000000000000000000000000000000000000000000000000004000000000000000000000000000000000000008000000000000000000000000000000000000000000000000020000000000000004000800020000000000000000000010000000000000000000000000000000000000000000000000000000000000010000000000000000000000000000000000000000004000000000000000000000000000020000000002000000800000008000000000000000000000080000000000000020000000000000000000000000000000000000000000000000000000000000000000",
      "type": "0x2",
      "transactionHash": "0x4205b50ecedf30a7084e1db1fff46b64cf9595330b4c0f76d98deb6b40c6e726",
      "transactionIndex": "0x55",
      "blockHash": "0x6645a8835cd017220aae4db8b45cf5f78b6fd2dc4d09e5977a9a7f1c8bd2feb4",
      "blockNumber": "0x723c21",
      "gasUsed": "0xf82c",
      "effectiveGasPrice": "0x20abc4571",
      "from": "0xc77f7fed3b5cc8249adc428c5f44c9063b9734b4",
      "to": "0x5eb9cc76c3506942c1c0ead70e877dd5e4f00cb0",
      "contractAddress": null
    }
  ],
  "libraries": [],
  "pending": [],
  "returns": {},
  "timestamp": 1736819426,
  "chain": 11155111,
  "commit": "51a374b"
}