{
  "transactions": [
    {
      "hash": "0xb0abd0e6bae36043750b146983019ac7b2e6292c165a4a039ed9deea836c1803",
      "transactionType": "CALL",
      "contractName": null,
      "contractAddress": "0x8aafd3ede9adb0ff97c7aebce82a919afb1c8764",
      "function": "sell(uint256)",
      "arguments": [
        "741184111875536614864"
      ],
      "transaction": {
        "from": "0xc77f7fed3b5cc8249adc428c5f44c9063b9734b4",
        "to": "0x8aafd3ede9adb0ff97c7aebce82a919afb1c8764",
        "gas": "0x15dca",
        "value": "0x0",
        "input": "0xe4849b320000000000000000000000000000000000000000000000282dfeeeca00be75d0",
        "nonce": "0xf8f",
        "chainId": "0xaa36a7"
      },
      "additionalContracts": [],
      "isFixedGasLimit": false
    }
  ],
  "receipts": [
    {
      "status": "0x1",
      "cumulativeGasUsed": "0xe3ec88",
      "logs": [
        {
          "address": "0x8aafd3ede9adb0ff97c7aebce82a919afb1c8764",
          "topics": [
            "0xddf252ad1be2c89b69c2b068fc378daa952ba7f163c4a11628f55a4df523b3ef",
            "0x000000000000000000000000c77f7fed3b5cc8249adc428c5f44c9063b9734b4",
            "0x0000000000000000000000000000000000000000000000000000000000000000"
          ],
          "data": "0x000000000000000000000000000000000000000000000027dbb5369b54b4be9a",
          "blockHash": "0xbd19f0c92a555b5299ad42e3a2513229941ef1ed88ed10b2af29fe75f7d83326",
          "blockNumber": "0x7315f4",
          "transactionHash": "0xb0abd0e6bae36043750b146983019ac7b2e6292c165a4a039ed9deea836c1803",
          "transactionIndex": "0x8b",
          "logIndex": "0xf0",
          "removed": false
        },
        {
          "address": "0x8aafd3ede9adb0ff97c7aebce82a919afb1c8764",
          "topics": [
            "0xddf252ad1be2c89b69c2b068fc378daa952ba7f163c4a11628f55a4df523b3ef",
            "0x000000000000000000000000c77f7fed3b5cc8249adc428c5f44c9063b9734b4",
            "0x000000000000000000000000c77f7fed3b5cc8249adc428c5f44c9063b9734b4"
          ],
          "data": "0x0000000000000000000000000000000000000000000000005249b82eac09b736",
          "blockHash": "0xbd19f0c92a555b5299ad42e3a2513229941ef1ed88ed10b2af29fe75f7d83326",
          "blockNumber": "0x7315f4",
          "transactionHash": "0xb0abd0e6bae36043750b146983019ac7b2e6292c165a4a039ed9deea836c1803",
          "transactionIndex": "0x8b",
          "logIndex": "0xf1",
          "removed": false
        },
        {
          "address": "0x8aafd3ede9adb0ff97c7aebce82a919afb1c8764",
          "topics": [
            "0x4afcb4a87cdbd9974efdb92ee48bc8d7cd0ae4bf217004db3d080cbaee652ca7"
          ],
          "data": "0x000000000000000000000000000000000000000000000000000000006790041c0000000000000000000000000000000000000000000000000004c2d2d2b4021c0000000000000000000000000000000000000000000000000dc8213b2051f07c",
          "blockHash": "0xbd19f0c92a555b5299ad42e3a2513229941ef1ed88ed10b2af29fe75f7d83326",
          "blockNumber": "0x7315f4",
          "transactionHash": "0xb0abd0e6bae36043750b146983019ac7b2e6292c165a4a039ed9deea836c1803",
          "transactionIndex": "0x8b",
          "logIndex": "0xf2",
          "removed": false
        }
      ],
      "logsBloom": "0x00000000000000000000000000000000000000000600000000000000000000000000000000000000000000000000000000000000000000004000000000000000000000000000004000000008000000000000000000000000000000000000000000000000020000000000000000000800020000000000000000000010000000000000000000000000000000000000000000000000000000000000010000000000000000000000000000000000000000004000000000000000000000000000000000000002000000800000000000000000000000000000080000000000000020000000000000000000000000000000000000000000000000000000000000000000",
      "type": "0x2",
      "transactionHash": "0xb0abd0e6bae36043750b146983019ac7b2e6292c165a4a039ed9deea836c1803",
      "transactionIndex": "0x8b",
      "blockHash": "0xbd19f0c92a555b5299ad42e3a2513229941ef1ed88ed10b2af29fe75f7d83326",
      "blockNumber": "0x7315f4",
      "gasUsed": "0xfd3f",
      "effectiveGasPrice": "0x68ede099",
      "from": "0xc77f7fed3b5cc8249adc428c5f44c9063b9734b4",
      "to": "0x8aafd3ede9adb0ff97c7aebce82a919afb1c8764",
      "contractAddress": null
    }
  ],
  "libraries": [],
  "pending": [],
  "returns": {},
  "timestamp": 1737491485,
  "chain": 11155111,
  "commit": "1d2fb70"
}