{
  "transactions": [
    {
      "hash": "0xb1bd83515a2eca6e995d6ba29e857bd4f3fcafd627bea9339e220b7487d7e923",
      "transactionType": "CALL",
      "contractName": null,
      "contractAddress": "0x8aafd3ede9adb0ff97c7aebce82a919afb1c8764",
      "function": "sell(uint256)",
      "arguments": [
        "184048309"
      ],
      "transaction": {
        "from": "0xc77f7fed3b5cc8249adc428c5f44c9063b9734b4",
        "to": "0x8aafd3ede9adb0ff97c7aebce82a919afb1c8764",
        "gas": "0x14e6c",
        "value": "0x0",
        "input": "0xe4849b32000000000000000000000000000000000000000000000000000000000af85ab5",
        "nonce": "0x10e7",
        "chainId": "0xaa36a7"
      },
      "additionalContracts": [],
      "isFixedGasLimit": false
    }
  ],
  "receipts": [
    {
      "status": "0x1",
      "cumulativeGasUsed": "0x20803bb",
      "logs": [
        {
          "address": "0x8aafd3ede9adb0ff97c7aebce82a919afb1c8764",
          "topics": [
            "0xddf252ad1be2c89b69c2b068fc378daa952ba7f163c4a11628f55a4df523b3ef",
            "0x000000000000000000000000c77f7fed3b5cc8249adc428c5f44c9063b9734b4",
            "0x0000000000000000000000000000000000000000000000000000000000000000"
          ],
          "data": "0x000000000000000000000000000000000000000000000000000000000ae1e333",
          "blockHash": "0xd86eb9a9fd14f52c09d77472b6d0776daf21648c2c26633c7c2804732126b253",
          "blockNumber": "0x73178b",
          "transactionHash": "0xb1bd83515a2eca6e995d6ba29e857bd4f3fcafd627bea9339e220b7487d7e923",
          "transactionIndex": "0x5a",
          "logIndex": "0x1100",
          "removed": false
        },
        {
          "address": "0x8aafd3ede9adb0ff97c7aebce82a919afb1c8764",
          "topics": [
            "0xddf252ad1be2c89b69c2b068fc378daa952ba7f163c4a11628f55a4df523b3ef",
            "0x000000000000000000000000c77f7fed3b5cc8249adc428c5f44c9063b9734b4",
            "0x000000000000000000000000c77f7fed3b5cc8249adc428c5f44c9063b9734b4"
          ],
          "data": "0x0000000000000000000000000000000000000000000000000000000000167782",
          "blockHash": "0xd86eb9a9fd14f52c09d77472b6d0776daf21648c2c26633c7c2804732126b253",
          "blockNumber": "0x73178b",
          "transactionHash": "0xb1bd83515a2eca6e995d6ba29e857bd4f3fcafd627bea9339e220b7487d7e923",
          "transactionIndex": "0x5a",
          "logIndex": "0x1101",
          "removed": false
        },
        {
          "address": "0x8aafd3ede9adb0ff97c7aebce82a919afb1c8764",
          "topics": [
            "0x4afcb4a87cdbd9974efdb92ee48bc8d7cd0ae4bf217004db3d080cbaee652ca7"
          ],
          "data": "0x0000000000000000000000000000000000000000000000000000000067901748000000000000000000000000000000000000000000000000000507cd2f2af6ff000000000000000000000000000000000000000000000000000000000003f9fb",
          "blockHash": "0xd86eb9a9fd14f52c09d77472b6d0776daf21648c2c26633c7c2804732126b253",
          "blockNumber": "0x73178b",
          "transactionHash": "0xb1bd83515a2eca6e995d6ba29e857bd4f3fcafd627bea9339e220b7487d7e923",
          "transactionIndex": "0x5a",
          "logIndex": "0x1102",
          "removed": false
        }
      ],
      "logsBloom": "0x00000000000000000000000000000000000000000600000000000000000000000000000000000000000000000000000000000000000000004000000000000000000000000000004000000008000000000000000000000000000000000000000000000000020000000000000000000800020000000000000000000010000000000000000000000000000000000000000000000000000000000000010000000000000000000000000000000000000000004000000000000000000000000000000000000002000000800000000000000000000000000000080000000000000020000000000000000000000000000000000000000000000000000000000000000000",
      "type": "0x2",
      "transactionHash": "0xb1bd83515a2eca6e995d6ba29e857bd4f3fcafd627bea9339e220b7487d7e923",
      "transactionIndex": "0x5a",
      "blockHash": "0xd86eb9a9fd14f52c09d77472b6d0776daf21648c2c26633c7c2804732126b253",
      "blockNumber": "0x73178b",
      "gasUsed": "0xf21f",
      "effectiveGasPrice": "0x3d9ae5a2",
      "from": "0xc77f7fed3b5cc8249adc428c5f44c9063b9734b4",
      "to": "0x8aafd3ede9adb0ff97c7aebce82a919afb1c8764",
      "contractAddress": null
    }
  ],
  "libraries": [],
  "pending": [],
  "returns": {},
  "timestamp": 1737496393,
  "chain": 11155111,
  "commit": "1d2fb70"
}