{
  "transactions": [
    {
      "hash": "0xc091698765cc0618d2ca7d513fd21bbb428b656f90a6b5e3c036c69294ca9d04",
      "transactionType": "CALL",
      "contractName": null,
      "contractAddress": "0x8aafd3ede9adb0ff97c7aebce82a919afb1c8764",
      "function": "buy(address)",
      "arguments": [
        "0xC77f7fed3b5Cc8249aDc428c5F44C9063B9734b4"
      ],
      "transaction": {
        "from": "0xc77f7fed3b5cc8249adc428c5f44c9063b9734b4",
        "to": "0x8aafd3ede9adb0ff97c7aebce82a919afb1c8764",
        "gas": "0x156ea",
        "value": "0xde0b6b3a7640000",
        "input": "0xf088d547000000000000000000000000c77f7fed3b5cc8249adc428c5f44c9063b9734b4",
        "nonce": "0x1018",
        "chainId": "0xaa36a7"
      },
      "additionalContracts": [],
      "isFixedGasLimit": false
    }
  ],
  "receipts": [
    {
      "status": "0x1",
      "cumulativeGasUsed": "0xad8c90",
      "logs": [
        {
          "address": "0x8aafd3ede9adb0ff97c7aebce82a919afb1c8764",
          "topics": [
            "0xddf252ad1be2c89b69c2b068fc378daa952ba7f163c4a11628f55a4df523b3ef",
            "0x0000000000000000000000000000000000000000000000000000000000000000",
            "0x000000000000000000000000c77f7fed3b5cc8249adc428c5f44c9063b9734b4"
          ],
          "data": "0x000000000000000000000000000000000000000000000026d25f49b970c86eb6",
          "blockHash": "0x7f091d4c9c786ef678729932933a4d2a913655b30182779da9e8499dd128595c",
          "blockNumber": "0x731690",
          "transactionHash": "0xc091698765cc0618d2ca7d513fd21bbb428b656f90a6b5e3c036c69294ca9d04",
          "transactionIndex": "0x77",
          "logIndex": "0xbd",
          "removed": false
        },
        {
          "address": "0x8aafd3ede9adb0ff97c7aebce82a919afb1c8764",
          "topics": [
            "0xddf252ad1be2c89b69c2b068fc378daa952ba7f163c4a11628f55a4df523b3ef",
            "0x0000000000000000000000000000000000000000000000000000000000000000",
            "0x000000000000000000000000c77f7fed3b5cc8249adc428c5f44c9063b9734b4"
          ],
          "data": "0x0000000000000000000000000000000000000000000000001e257c2a8eb63d43",
          "blockHash": "0x7f091d4c9c786ef678729932933a4d2a913655b30182779da9e8499dd128595c",
          "blockNumber": "0x731690",
          "transactionHash": "0xc091698765cc0618d2ca7d513fd21bbb428b656f90a6b5e3c036c69294ca9d04",
          "transactionIndex": "0x77",
          "logIndex": "0xbe",
          "removed": false
        },
        {
          "address": "0x8aafd3ede9adb0ff97c7aebce82a919afb1c8764",
          "topics": [
            "0x4afcb4a87cdbd9974efdb92ee48bc8d7cd0ae4bf217004db3d080cbaee652ca7"
          ],
          "data": "0x0000000000000000000000000000000000000000000000000000000067900b6c0000000000000000000000000000000000000000000000000004e9b695d0efae0000000000000000000000000000000000000000000000000de0b6b3a7640000",
          "blockHash": "0x7f091d4c9c786ef678729932933a4d2a913655b30182779da9e8499dd128595c",
          "blockNumber": "0x731690",
          "transactionHash": "0xc091698765cc0618d2ca7d513fd21bbb428b656f90a6b5e3c036c69294ca9d04",
          "transactionIndex": "0x77",
          "logIndex": "0xbf",
          "removed": false
        }
      ],
      "logsBloom": "0x00000000000000000000000000000000000000000600000000000000000000000000000000000000000000000000000000000000000000004000000000000000000000000000004000000008000000000000000000000000000000000000000000000000020000000000000000000800020000000000000000000010000000000000000000000000000000000000000000000000000000000000010000000000000000000000000000000000000000004000000000000000000000000000000000000002000000800000000000000000000000000000080000000000000020000000000000000000000000000000000000000000000000000000000000000000",
      "type": "0x2",
      "transactionHash": "0xc091698765cc0618d2ca7d513fd21bbb428b656f90a6b5e3c036c69294ca9d04",
      "transactionIndex": "0x77",
      "blockHash": "0x7f091d4c9c786ef678729932933a4d2a913655b30182779da9e8499dd128595c",
      "blockNumber": "0x731690",
      "gasUsed": "0xf844",
      "effectiveGasPrice": "0x421c4699",
      "from": "0xc77f7fed3b5cc8249adc428c5f44c9063b9734b4",
      "to": "0x8aafd3ede9adb0ff97c7aebce82a919afb1c8764",
      "contractAddress": null
    }
  ],
  "libraries": [],
  "pending": [],
  "returns": {},
  "timestamp": 1737493357,
  "chain": 11155111,
  "commit": "1d2fb70"
}