{
  "transactions": [
    {
      "hash": "0x5e4101708652724c14d22aaf93acbaacaf431c1212fb7c754fb62f96ef2cf333",
      "transactionType": "CALL",
      "contractName": null,
      "contractAddress": "0xbf4a322f1496e5c3d34a9bcdb4c60567b38c7de2",
      "function": "sell(uint256)",
      "arguments": [
        "990489056615976362446"
      ],
      "transaction": {
        "from": "0xc77f7fed3b5cc8249adc428c5f44c9063b9734b4",
        "to": "0xbf4a322f1496e5c3d34a9bcdb4c60567b38c7de2",
        "gas": "0x16fea",
        "value": "0x0",
        "input": "0xe4849b32000000000000000000000000000000000000000000000035b1cc0528030b61ce",
        "nonce": "0x913",
        "chainId": "0xaa36a7"
      },
      "additionalContracts": [],
      "isFixedGasLimit": false
    }
  ],
  "receipts": [
    {
      "status": "0x1",
      "cumulativeGasUsed": "0xa078b9",
      "logs": [
        {
          "address": "0xbf4a322f1496e5c3d34a9bcdb4c60567b38c7de2",
          "topics": [
            "0xddf252ad1be2c89b69c2b068fc378daa952ba7f163c4a11628f55a4df523b3ef",
            "0x000000000000000000000000c77f7fed3b5cc8249adc428c5f44c9063b9734b4",
            "0x0000000000000000000000000000000000000000000000000000000000000000"
          ],
          "data": "0x000000000000000000000000000000000000000000000035b1cc0528030b61ce",
          "blockHash": "0xb68d82e747205132a3d75ff9e59ed66e57695fdace7e93379a6fee041fb96acd",
          "blockNumber": "0x725891",
          "transactionHash": "0x5e4101708652724c14d22aaf93acbaacaf431c1212fb7c754fb62f96ef2cf333",
          "transactionIndex": "0x54",
          "logIndex": "0x5c",
          "removed": false
        },
        {
          "address": "0xbf4a322f1496e5c3d34a9bcdb4c60567b38c7de2",
          "topics": [
            "0x4afcb4a87cdbd9974efdb92ee48bc8d7cd0ae4bf217004db3d080cbaee652ca7"
          ],
          "data": "0x00000000000000000000000000000000000000000000000000000000678718f800000000000000000000000000000000000000000000000000038fd40d6285a70000000000000000000000000000000000000000000000000dc7e3fa740e5e67",
          "blockHash": "0xb68d82e747205132a3d75ff9e59ed66e57695fdace7e93379a6fee041fb96acd",
          "blockNumber": "0x725891",
          "transactionHash": "0x5e4101708652724c14d22aaf93acbaacaf431c1212fb7c754fb62f96ef2cf333",
          "transactionIndex": "0x54",
          "logIndex": "0x5d",
          "removed": false
        }
      ],
      "logsBloom": "0x00000000000000000000000000000000000000000000000000000000000000000000000000000000000000000000000000000000000000004000000000000000000000000000000000000008000000000000001000000000000000000000000000000000020000000000000000000800020000000000000000000010000000000000000000000000000000000000000000000000000008000000010000000000000000000000000000000000000000004000000000000000000000000000000000000002000000800000000000001000000000000000080000000000000020000000000000000000000000000000000000000000000000000000000000000000",
      "type": "0x2",
      "transactionHash": "0x5e4101708652724c14d22aaf93acbaacaf431c1212fb7c754fb62f96ef2cf333",
      "transactionIndex": "0x54",
      "blockHash": "0xb68d82e747205132a3d75ff9e59ed66e57695fdace7e93379a6fee041fb96acd",
      "blockNumber": "0x725891",
      "gasUsed": "0xfb91",
      "effectiveGasPrice": "0x419e318d",
      "from": "0xc77f7fed3b5cc8249adc428c5f44c9063b9734b4",
      "to": "0xbf4a322f1496e5c3d34a9bcdb4c60567b38c7de2",
      "contractAddress": null
    }
  ],
  "libraries": [],
  "pending": [],
  "returns": {},
  "timestamp": 1736907001,
  "chain": 11155111,
  "commit": "51a374b"
}