{
  "transactions": [
    {
      "hash": "0x77056586bac878569c03b0258774b2da6b8da80cbaaf6cf797da654275095342",
      "transactionType": "CALL",
      "contractName": null,
      "contractAddress": "0xbf4a322f1496e5c3d34a9bcdb4c60567b38c7de2",
      "function": "sell(uint256)",
      "arguments": [
        "983489133770052641374"
      ],
      "transaction": {
        "from": "0xc77f7fed3b5cc8249adc428c5f44c9063b9734b4",
        "to": "0xbf4a322f1496e5c3d34a9bcdb4c60567b38c7de2",
        "gas": "0x16fea",
        "value": "0x0",
        "input": "0xe4849b3200000000000000000000000000000000000000000000003550a74c6a449ea25e",
        "nonce": "0xb15",
        "chainId": "0xaa36a7"
      },
      "additionalContracts": [],
      "isFixedGasLimit": false
    }
  ],
  "receipts": [
    {
      "status": "0x1",
      "cumulativeGasUsed": "0xc319a7",
      "logs": [
        {
          "address": "0xbf4a322f1496e5c3d34a9bcdb4c60567b38c7de2",
          "topics": [
            "0xddf252ad1be2c89b69c2b068fc378daa952ba7f163c4a11628f55a4df523b3ef",
            "0x000000000000000000000000c77f7fed3b5cc8249adc428c5f44c9063b9734b4",
            "0x0000000000000000000000000000000000000000000000000000000000000000"
          ],
          "data": "0x00000000000000000000000000000000000000000000003550a74c6a449ea25e",
          "blockHash": "0x2a6f7e82b77ce2ced8c2c6a78329ca5fa29d64e15571d98383073395958e09e0",
          "blockNumber": "0x725b0f",
          "transactionHash": "0x77056586bac878569c03b0258774b2da6b8da80cbaaf6cf797da654275095342",
          "transactionIndex": "0x69",
          "logIndex": "0xa1",
          "removed": false
        },
        {
          "address": "0xbf4a322f1496e5c3d34a9bcdb4c60567b38c7de2",
          "topics": [
            "0x4afcb4a87cdbd9974efdb92ee48bc8d7cd0ae4bf217004db3d080cbaee652ca7"
          ],
          "data": "0x0000000000000000000000000000000000000000000000000000000067873710000000000000000000000000000000000000000000000000000396516a7cc2cc0000000000000000000000000000000000000000000000000dc7e3ea2dba751f",
          "blockHash": "0x2a6f7e82b77ce2ced8c2c6a78329ca5fa29d64e15571d98383073395958e09e0",
          "blockNumber": "0x725b0f",
          "transactionHash": "0x77056586bac878569c03b0258774b2da6b8da80cbaaf6cf797da654275095342",
          "transactionIndex": "0x69",
          "logIndex": "0xa2",
          "removed": false
        }
      ],
      "logsBloom": "0x00000000000000000000000000000000000000000000000000000000000000000000000000000000000000000000000000000000000000004000000000000000000000000000000000000008000000000000001000000000000000000000000000000000020000000000000000000800020000000000000000000010000000000000000000000000000000000000000000000000000008000000010000000000000000000000000000000000000000004000000000000000000000000000000000000002000000800000000000001000000000000000080000000000000020000000000000000000000000000000000000000000000000000000000000000000",
      "type": "0x2",
      "transactionHash": "0x77056586bac878569c03b0258774b2da6b8da80cbaaf6cf797da654275095342",
      "transactionIndex": "0x69",
      "blockHash": "0x2a6f7e82b77ce2ced8c2c6a78329ca5fa29d64e15571d98383073395958e09e0",
      "blockNumber": "0x725b0f",
      "gasUsed": "0xfb91",
      "effectiveGasPrice": "0x7fba5ba6",
      "from": "0xc77f7fed3b5cc8249adc428c5f44c9063b9734b4",
      "to": "0xbf4a322f1496e5c3d34a9bcdb4c60567b38c7de2",
      "contractAddress": null
    }
  ],
  "libraries": [],
  "pending": [],
  "returns": {},
  "timestamp": 1736914705,
  "chain": 11155111,
  "commit": "51a374b"
}