{
  "transactions": [
    {
      "hash": "0xe36344b8b592559a790b2468c018b2c835046e8fc7aca6df2a1b5d837e5d3da9",
      "transactionType": "CALL",
      "contractName": null,
      "contractAddress": "0x8aafd3ede9adb0ff97c7aebce82a919afb1c8764",
      "function": "sell(uint256)",
      "arguments": [
        "23268754282"
      ],
      "transaction": {
        "from": "0xc77f7fed3b5cc8249adc428c5f44c9063b9734b4",
        "to": "0x8aafd3ede9adb0ff97c7aebce82a919afb1c8764",
        "gas": "0x1722a",
        "value": "0x0",
        "input": "0xe4849b32000000000000000000000000000000000000000000000000000000056aed036a",
        "nonce": "0x1082",
        "chainId": "0xaa36a7"
      },
      "additionalContracts": [],
      "isFixedGasLimit": false
    }
  ],
  "receipts": [
    {
      "status": "0x1",
      "cumulativeGasUsed": "0xac0e2f",
      "logs": [
        {
          "address": "0x8aafd3ede9adb0ff97c7aebce82a919afb1c8764",
          "topics": [
            "0xddf252ad1be2c89b69c2b068fc378daa952ba7f163c4a11628f55a4df523b3ef",
            "0x000000000000000000000000c77f7fed3b5cc8249adc428c5f44c9063b9734b4",
            "0x0000000000000000000000000000000000000000000000000000000000000000"
          ],
          "data": "0x000000000000000000000000000000000000000000000000000000055fd496d8",
          "blockHash": "0x87d46b3d9459ce6dc35d1aceb1b33c22cc7f312277f1a7df3a6a99b042425a25",
          "blockNumber": "0x73170c",
          "transactionHash": "0xe36344b8b592559a790b2468c018b2c835046e8fc7aca6df2a1b5d837e5d3da9",
          "transactionIndex": "0x7b",
          "logIndex": "0xa6",
          "removed": false
        },
        {
          "address": "0x8aafd3ede9adb0ff97c7aebce82a919afb1c8764",
          "topics": [
            "0xddf252ad1be2c89b69c2b068fc378daa952ba7f163c4a11628f55a4df523b3ef",
            "0x000000000000000000000000c77f7fed3b5cc8249adc428c5f44c9063b9734b4",
            "0x000000000000000000000000c77f7fed3b5cc8249adc428c5f44c9063b9734b4"
          ],
          "data": "0x000000000000000000000000000000000000000000000000000000000b186c92",
          "blockHash": "0x87d46b3d9459ce6dc35d1aceb1b33c22cc7f312277f1a7df3a6a99b042425a25",
          "blockNumber": "0x73170c",
          "transactionHash": "0xe36344b8b592559a790b2468c018b2c835046e8fc7aca6df2a1b5d837e5d3da9",
          "transactionIndex": "0x7b",
          "logIndex": "0xa7",
          "removed": false
        },
        {
          "address": "0x8aafd3ede9adb0ff97c7aebce82a919afb1c8764",
          "topics": [
            "0x4afcb4a87cdbd9974efdb92ee48bc8d7cd0ae4bf217004db3d080cbaee652ca7"
          ],
          "data": "0x00000000000000000000000000000000000000000000000000000000679011480000000000000000000000000000000000000000000000000004f9471c971ebf0000000000000000000000000000000000000000000000000000000001f11185",
          "blockHash": "0x87d46b3d9459ce6dc35d1aceb1b33c22cc7f312277f1a7df3a6a99b042425a25",
          "blockNumber": "0x73170c",
          "transactionHash": "0xe36344b8b592559a790b2468c018b2c835046e8fc7aca6df2a1b5d837e5d3da9",
          "transactionIndex": "0x7b",
          "logIndex": "0xa8",
          "removed": false
        }
      ],
      "logsBloom": "0x00000000000000000000000000000000000000000600000000000000000000000000000000000000000000000000000000000000000000004000000000000000000000000000004000000008000000000000000000000000000000000000000000000000020000000000000000000800020000000000000000000010000000000000000000000000000000000000000000000000000000000000010000000000000000000000000000000000000000004000000000000000000000000000000000000002000000800000000000000000000000000000080000000000000020000000000000000000000000000000000000000000000000000000000000000000",
      "type": "0x2",
      "transactionHash": "0xe36344b8b592559a790b2468c018b2c835046e8fc7aca6df2a1b5d837e5d3da9",
      "transactionIndex": "0x7b",
      "blockHash": "0x87d46b3d9459ce6dc35d1aceb1b33c22cc7f312277f1a7df3a6a99b042425a25",
      "blockNumber": "0x73170c",
      "gasUsed": "0xfd1b",
      "effectiveGasPrice": "0x3e318904",
      "from": "0xc77f7fed3b5cc8249adc428c5f44c9063b9734b4",
      "to": "0x8aafd3ede9adb0ff97c7aebce82a919afb1c8764",
      "contractAddress": null
    }
  ],
  "libraries": [],
  "pending": [],
  "returns": {},
  "timestamp": 1737494859,
  "chain": 11155111,
  "commit": "1d2fb70"
}