{
  "transactions": [
    {
      "hash": "0x559077aa9a8c3ad8130b27792115eea4261c95121ef5db00a021c54720129925",
      "transactionType": "CALL",
      "contractName": null,
      "contractAddress": "0xbf4a322f1496e5c3d34a9bcdb4c60567b38c7de2",
      "function": "sell(uint256)",
      "arguments": [
        "986826907909015453036"
      ],
      "transaction": {
        "from": "0xc77f7fed3b5cc8249adc428c5f44c9063b9734b4",
        "to": "0xbf4a322f1496e5c3d34a9bcdb4c60567b38c7de2",
        "gas": "0x16fea",
        "value": "0x0",
        "input": "0xe4849b320000000000000000000000000000000000000000000000357ef9744f69fbbd6c",
        "nonce": "0xa1f",
        "chainId": "0xaa36a7"
      },
      "additionalContracts": [],
      "isFixedGasLimit": false
    }
  ],
  "receipts": [
    {
      "status": "0x1",
      "cumulativeGasUsed": "0x13a3ca8",
      "logs": [
        {
          "address": "0xbf4a322f1496e5c3d34a9bcdb4c60567b38c7de2",
          "topics": [
            "0xddf252ad1be2c89b69c2b068fc378daa952ba7f163c4a11628f55a4df523b3ef",
            "0x000000000000000000000000c77f7fed3b5cc8249adc428c5f44c9063b9734b4",
            "0x0000000000000000000000000000000000000000000000000000000000000000"
          ],
          "data": "0x0000000000000000000000000000000000000000000000357ef9744f69fbbd6c",
          "blockHash": "0xd192d01f7d04defef8f58ffae35cb6471b95d0b7d58818340f2b01a8f5d0d9f6",
          "blockNumber": "0x7259e0",
          "transactionHash": "0x559077aa9a8c3ad8130b27792115eea4261c95121ef5db00a021c54720129925",
          "transactionIndex": "0xa6",
          "logIndex": "0x132",
          "removed": false
        },
        {
          "address": "0xbf4a322f1496e5c3d34a9bcdb4c60567b38c7de2",
          "topics": [
            "0x4afcb4a87cdbd9974efdb92ee48bc8d7cd0ae4bf217004db3d080cbaee652ca7"
          ],
          "data": "0x00000000000000000000000000000000000000000000000000000000678728c40000000000000000000000000000000000000000000000000003933649b16e0b0000000000000000000000000000000000000000000000000dc7e3f1f05e8f51",
          "blockHash": "0xd192d01f7d04defef8f58ffae35cb6471b95d0b7d58818340f2b01a8f5d0d9f6",
          "blockNumber": "0x7259e0",
          "transactionHash": "0x559077aa9a8c3ad8130b27792115eea4261c95121ef5db00a021c54720129925",
          "transactionIndex": "0xa6",
          "logIndex": "0x133",
          "removed": false
        }
      ],
      "logsBloom": "0x00000000000000000000000000000000000000000000000000000000000000000000000000000000000000000000000000000000000000004000000000000000000000000000000000000008000000000000001000000000000000000000000000000000020000000000000000000800020000000000000000000010000000000000000000000000000000000000000000000000000008000000010000000000000000000000000000000000000000004000000000000000000000000000000000000002000000800000000000001000000000000000080000000000000020000000000000000000000000000000000000000000000000000000000000000000",
      "type": "0x2",
      "transactionHash": "0x559077aa9a8c3ad8130b27792115eea4261c95121ef5db00a021c54720129925",
      "transactionIndex": "0xa6",
      "blockHash": "0xd192d01f7d04defef8f58ffae35cb6471b95d0b7d58818340f2b01a8f5d0d9f6",
      "blockNumber": "0x7259e0",
      "gasUsed": "0xfb91",
      "effectiveGasPrice": "0x6bf6e2f90",
      "from": "0xc77f7fed3b5cc8249adc428c5f44c9063b9734b4",
      "to": "0xbf4a322f1496e5c3d34a9bcdb4c60567b38c7de2",
      "contractAddress": null
    }
  ],
  "libraries": [],
  "pending": [],
  "returns": {},
  "timestamp": 1736911047,
  "chain": 11155111,
  "commit": "51a374b"
}