{
  "transactions": [
    {
      "hash": "0x19522b7d66adf0c06110e2a0b9202fc3d4a5316bfa633f37699796f40c098c95",
      "transactionType": "CALL",
      "contractName": null,
      "contractAddress": "0x8aafd3ede9adb0ff97c7aebce82a919afb1c8764",
      "function": "sell(uint256)",
      "arguments": [
        "76239984688857"
      ],
      "transaction": {
        "from": "0xc77f7fed3b5cc8249adc428c5f44c9063b9734b4",
        "to": "0x8aafd3ede9adb0ff97c7aebce82a919afb1c8764",
        "gas": "0x15daa",
        "value": "0x0",
        "input": "0xe4849b320000000000000000000000000000000000000000000000000000455701347ed9",
        "nonce": "0x1742",
        "chainId": "0xaa36a7"
      },
      "additionalContracts": [],
      "isFixedGasLimit": false
    }
  ],
  "receipts": [
    {
      "status": "0x1",
      "cumulativeGasUsed": "0xcab060",
      "logs": [
        {
          "address": "0x8aafd3ede9adb0ff97c7aebce82a919afb1c8764",
          "topics": [
            "0xddf252ad1be2c89b69c2b068fc378daa952ba7f163c4a11628f55a4df523b3ef",
            "0x000000000000000000000000c77f7fed3b5cc8249adc428c5f44c9063b9734b4",
            "0x0000000000000000000000000000000000000000000000000000000000000000"
          ],
          "data": "0x000000000000000000000000000000000000000000000000000044c8ff25bd53",
          "blockHash": "0x9945cfa5a597303458ecf99af8865903dea03e9f253e54437c03710dfaa83f2a",
          "blockNumber": "0x731f0e",
          "transactionHash": "0x19522b7d66adf0c06110e2a0b9202fc3d4a5316bfa633f37699796f40c098c95",
          "transactionIndex": "0x65",
          "logIndex": "0x99",
          "removed": false
        },
        {
          "address": "0x8aafd3ede9adb0ff97c7aebce82a919afb1c8764",
          "topics": [
            "0xddf252ad1be2c89b69c2b068fc378daa952ba7f163c4a11628f55a4df523b3ef",
            "0x000000000000000000000000c77f7fed3b5cc8249adc428c5f44c9063b9734b4",
            "0x000000000000000000000000c77f7fed3b5cc8249adc428c5f44c9063b9734b4"
          ],
          "data": "0x0000000000000000000000000000000000000000000000000000008e020ec186",
          "blockHash": "0x9945cfa5a597303458ecf99af8865903dea03e9f253e54437c03710dfaa83f2a",
          "blockNumber": "0x731f0e",
          "transactionHash": "0x19522b7d66adf0c06110e2a0b9202fc3d4a5316bfa633f37699796f40c098c95",
          "transactionIndex": "0x65",
          "logIndex": "0x9a",
          "removed": false
        },
        {
          "address": "0x8aafd3ede9adb0ff97c7aebce82a919afb1c8764",
          "topics": [
            "0x4afcb4a87cdbd9974efdb92ee48bc8d7cd0ae4bf217004db3d080cbaee652ca7"
          ],
          "data": "0x00000000000000000000000000000000000000000000000000000000679071900000000000000000000000000000000000000000000000000017cc1067afcf3800000000000000000000000000000000000000000000000000000076e6c6cfb5",
          "blockHash": "0x9945cfa5a597303458ecf99af8865903dea03e9f253e54437c03710dfaa83f2a",
          "blockNumber": "0x731f0e",
          "transactionHash": "0x19522b7d66adf0c06110e2a0b9202fc3d4a5316bfa633f37699796f40c098c95",
          "transactionIndex": "0x65",
          "logIndex": "0x9b",
          "removed": false
        }
      ],
      "logsBloom": "0x00000000000000000000000000000000000000000600000000000000000000000000000000000000000000000000000000000000000000004000000000000000000000000000004000000008000000000000000000000000000000000000000000000000020000000000000000000800020000000000000000000010000000000000000000000000000000000000000000000000000000000000010000000000000000000000000000000000000000004000000000000000000000000000000000000002000000800000000000000000000000000000080000000000000020000000000000000000000000000000000000000000000000000000000000000000",
      "type": "0x2",
      "transactionHash": "0x19522b7d66adf0c06110e2a0b9202fc3d4a5316bfa633f37699796f40c098c95",
      "transactionIndex": "0x65",
      "blockHash": "0x9945cfa5a597303458ecf99af8865903dea03e9f253e54437c03710dfaa83f2a",
      "blockNumber": "0x731f0e",
      "gasUsed": "0xfd27",
      "effectiveGasPrice": "0x393e0389",
      "from": "0xc77f7fed3b5cc8249adc428c5f44c9063b9734b4",
      "to": "0x8aafd3ede9adb0ff97c7aebce82a919afb1c8764",
      "contractAddress": null
    }
  ],
  "libraries": [],
  "pending": [],
  "returns": {},
  "timestamp": 1737519506,
  "chain": 11155111,
  "commit": "1d2fb70"
}