{
  "transactions": [
    {
      "hash": "0xd1ea143d28d88bc6fe53cfe3180a80a51b0a1d8afb33834f3f23267d26834803",
      "transactionType": "CALL",
      "contractName": null,
      "contractAddress": "0x8aafd3ede9adb0ff97c7aebce82a919afb1c8764",
      "function": "sell(uint256)",
      "arguments": [
        "23375517227"
      ],
      "transaction": {
        "from": "0xc77f7fed3b5cc8249adc428c5f44c9063b9734b4",
        "to": "0x8aafd3ede9adb0ff97c7aebce82a919afb1c8764",
        "gas": "0x1722a",
        "value": "0x0",
        "input": "0xe4849b3200000000000000000000000000000000000000000000000000000005714a162b",
        "nonce": "0x105a",
        "chainId": "0xaa36a7"
      },
      "additionalContracts": [],
      "isFixedGasLimit": false
    }
  ],
  "receipts": [
    {
      "status": "0x1",
      "cumulativeGasUsed": "0x22004de",
      "logs": [
        {
          "address": "0x8aafd3ede9adb0ff97c7aebce82a919afb1c8764",
          "topics": [
            "0xddf252ad1be2c89b69c2b068fc378daa952ba7f163c4a11628f55a4df523b3ef",
            "0x000000000000000000000000c77f7fed3b5cc8249adc428c5f44c9063b9734b4",
            "0x0000000000000000000000000000000000000000000000000000000000000000"
          ],
          "data": "0x000000000000000000000000000000000000000000000000000000056624a142",
          "blockHash": "0xd3e6e49a7680c81091b2d03ab8de6cbaf39cdc244426e03bc402069ad018a3b4",
          "blockNumber": "0x7316dd",
          "transactionHash": "0xd1ea143d28d88bc6fe53cfe3180a80a51b0a1d8afb33834f3f23267d26834803",
          "transactionIndex": "0x50",
          "logIndex": "0x1120",
          "removed": false
        },
        {
          "address": "0x8aafd3ede9adb0ff97c7aebce82a919afb1c8764",
          "topics": [
            "0xddf252ad1be2c89b69c2b068fc378daa952ba7f163c4a11628f55a4df523b3ef",
            "0x000000000000000000000000c77f7fed3b5cc8249adc428c5f44c9063b9734b4",
            "0x000000000000000000000000c77f7fed3b5cc8249adc428c5f44c9063b9734b4"
          ],
          "data": "0x000000000000000000000000000000000000000000000000000000000b2574e9",
          "blockHash": "0xd3e6e49a7680c81091b2d03ab8de6cbaf39cdc244426e03bc402069ad018a3b4",
          "blockNumber": "0x7316dd",
          "transactionHash": "0xd1ea143d28d88bc6fe53cfe3180a80a51b0a1d8afb33834f3f23267d26834803",
          "transactionIndex": "0x50",
          "logIndex": "0x1121",
          "removed": false
        },
        {
          "address": "0x8aafd3ede9adb0ff97c7aebce82a919afb1c8764",
          "topics": [
            "0x4afcb4a87cdbd9974efdb92ee48bc8d7cd0ae4bf217004db3d080cbaee652ca7"
          ],
          "data": "0x0000000000000000000000000000000000000000000000000000000067900f140000000000000000000000000000000000000000000000000004f378090ee01b0000000000000000000000000000000000000000000000000000000001f1122d",
          "blockHash": "0xd3e6e49a7680c81091b2d03ab8de6cbaf39cdc244426e03bc402069ad018a3b4",
          "blockNumber": "0x7316dd",
          "transactionHash": "0xd1ea143d28d88bc6fe53cfe3180a80a51b0a1d8afb33834f3f23267d26834803",
          "transactionIndex": "0x50",
          "logIndex": "0x1122",
          "removed": false
        }
      ],
      "logsBloom": "0x00000000000000000000000000000000000000000600000000000000000000000000000000000000000000000000000000000000000000004000000000000000000000000000004000000008000000000000000000000000000000000000000000000000020000000000000000000800020000000000000000000010000000000000000000000000000000000000000000000000000000000000010000000000000000000000000000000000000000004000000000000000000000000000000000000002000000800000000000000000000000000000080000000000000020000000000000000000000000000000000000000000000000000000000000000000",
      "type": "0x2",
      "transactionHash": "0xd1ea143d28d88bc6fe53cfe3180a80a51b0a1d8afb33834f3f23267d26834803",
      "transactionIndex": "0x50",
      "blockHash": "0xd3e6e49a7680c81091b2d03ab8de6cbaf39cdc244426e03bc402069ad018a3b4",
      "blockNumber": "0x7316dd",
      "gasUsed": "0xfd1b",
      "effectiveGasPrice": "0x3bb34b84",
      "from": "0xc77f7fed3b5cc8249adc428c5f44c9063b9734b4",
      "to": "0x8aafd3ede9adb0ff97c7aebce82a919afb1c8764",
      "contractAddress": null
    }
  ],
  "libraries": [],
  "pending": [],
  "returns": {},
  "timestamp": 1737494294,
  "chain": 11155111,
  "commit": "1d2fb70"
}