{
  "transactions": [
    {
      "hash": "0x88aadfea19a2a17f95860e1cc465791a3f37c343126dc8379c6e6abdc41b756e",
      "transactionType": "CALL",
      "contractName": null,
      "contractAddress": "0x8aafd3ede9adb0ff97c7aebce82a919afb1c8764",
      "function": "sell(uint256)",
      "arguments": [
        "710106026680061868007"
      ],
      "transaction": {
        "from": "0xc77f7fed3b5cc8249adc428c5f44c9063b9734b4",
        "to": "0x8aafd3ede9adb0ff97c7aebce82a919afb1c8764",
        "gas": "0x17270",
        "value": "0x0",
        "input": "0xe4849b320000000000000000000000000000000000000000000000267eb364f6692537e7",
        "nonce": "0x107d",
        "chainId": "0xaa36a7"
      },
      "additionalContracts": [],
      "isFixedGasLimit": false
    }
  ],
  "receipts": [
    {
      "status": "0x1",
      "cumulativeGasUsed": "0x214e242",
      "logs": [
        {
          "address": "0x8aafd3ede9adb0ff97c7aebce82a919afb1c8764",
          "topics": [
            "0xddf252ad1be2c89b69c2b068fc378daa952ba7f163c4a11628f55a4df523b3ef",
            "0x000000000000000000000000c77f7fed3b5cc8249adc428c5f44c9063b9734b4",
            "0x0000000000000000000000000000000000000000000000000000000000000000"
          ],
          "data": "0x0000000000000000000000000000000000000000000000262fdcf79c601cba87",
          "blockHash": "0x69d8e03aec80f263490137fd918706348af15755b2a6de6dc3836484f47b1d5c",
          "blockNumber": "0x731707",
          "transactionHash": "0x88aadfea19a2a17f95860e1cc465791a3f37c343126dc8379c6e6abdc41b756e",
          "transactionIndex": "0x6a",
          "logIndex": "0x10f3",
          "removed": false
        },
        {
          "address": "0x8aafd3ede9adb0ff97c7aebce82a919afb1c8764",
          "topics": [
            "0xddf252ad1be2c89b69c2b068fc378daa952ba7f163c4a11628f55a4df523b3ef",
            "0x000000000000000000000000c77f7fed3b5cc8249adc428c5f44c9063b9734b4",
            "0x000000000000000000000000c77f7fed3b5cc8249adc428c5f44c9063b9734b4"
          ],
          "data": "0x0000000000000000000000000000000000000000000000004ed66d5a09087d60",
          "blockHash": "0x69d8e03aec80f263490137fd918706348af15755b2a6de6dc3836484f47b1d5c",
          "blockNumber": "0x731707",
          "transactionHash": "0x88aadfea19a2a17f95860e1cc465791a3f37c343126dc8379c6e6abdc41b756e",
          "transactionIndex": "0x6a",
          "logIndex": "0x10f4",
          "removed": false
        },
        {
          "address": "0x8aafd3ede9adb0ff97c7aebce82a919afb1c8764",
          "topics": [
            "0x4afcb4a87cdbd9974efdb92ee48bc8d7cd0ae4bf217004db3d080cbaee652ca7"
          ],
          "data": "0x000000000000000000000000000000000000000000000000000000006790110c0000000000000000000000000000000000000000000000000004f944f91f7c440000000000000000000000000000000000000000000000000dc8fd99f7db0dd0",
          "blockHash": "0x69d8e03aec80f263490137fd918706348af15755b2a6de6dc3836484f47b1d5c",
          "blockNumber": "0x731707",
          "transactionHash": "0x88aadfea19a2a17f95860e1cc465791a3f37c343126dc8379c6e6abdc41b756e",
          "transactionIndex": "0x6a",
          "logIndex": "0x10f5",
          "removed": false
        }
      ],
      "logsBloom": "0x00000000000000000000000000000000000000000600000000000000000000000000000000000000000000000000000000000000000000004000000000000000000000000000004000000008000000000000000000000000000000000000000000000000020000000000000000000800020000000000000000000010000000000000000000000000000000000000000000000000000000000000010000000000000000000000000000000000000000004000000000000000000000000000000000000002000000800000000000000000000000000000080000000000000020000000000000000000000000000000000000000000000000000000000000000000",
      "type": "0x2",
      "transactionHash": "0x88aadfea19a2a17f95860e1cc465791a3f37c343126dc8379c6e6abdc41b756e",
      "transactionIndex": "0x6a",
      "blockHash": "0x69d8e03aec80f263490137fd918706348af15755b2a6de6dc3836484f47b1d5c",
      "blockNumber": "0x731707",
      "gasUsed": "0xfd4b",
      "effectiveGasPrice": "0x42db45eb",
      "from": "0xc77f7fed3b5cc8249adc428c5f44c9063b9734b4",
      "to": "0x8aafd3ede9adb0ff97c7aebce82a919afb1c8764",
      "contractAddress": null
    }
  ],
  "libraries": [],
  "pending": [],
  "returns": {},
  "timestamp": 1737494797,
  "chain": 11155111,
  "commit": "1d2fb70"
}