{
  "transactions": [
    {
      "hash": "0x9295b13ba65589367ac3b414fbfa6b47ec3e047985f4594a7a3fbee7adfe76e1",
      "transactionType": "CALL",
      "contractName": null,
      "contractAddress": "0x8aafd3ede9adb0ff97c7aebce82a919afb1c8764",
      "function": "sell(uint256)",
      "arguments": [
        "1670442583565475270"
      ],
      "transaction": {
        "from": "0xc77f7fed3b5cc8249adc428c5f44c9063b9734b4",
        "to": "0x8aafd3ede9adb0ff97c7aebce82a919afb1c8764",
        "gas": "0x15dca",
        "value": "0x0",
        "input": "0xe4849b32000000000000000000000000000000000000000000000000172e9aadeb1b1dc6",
        "nonce": "0x14f7",
        "chainId": "0xaa36a7"
      },
      "additionalContracts": [],
      "isFixedGasLimit": false
    }
  ],
  "receipts": [
    {
      "status": "0x1",
      "cumulativeGasUsed": "0xed4903",
      "logs": [
        {
          "address": "0x8aafd3ede9adb0ff97c7aebce82a919afb1c8764",
          "topics": [
            "0xddf252ad1be2c89b69c2b068fc378daa952ba7f163c4a11628f55a4df523b3ef",
            "0x000000000000000000000000c77f7fed3b5cc8249adc428c5f44c9063b9734b4",
            "0x0000000000000000000000000000000000000000000000000000000000000000"
          ],
          "data": "0x00000000000000000000000000000000000000000000000016ff209c249df8ac",
          "blockHash": "0xf06be3645c708b650b5e8572d198cf5082bc4b03a89787e08b35d8e29fcab814",
          "blockNumber": "0x731c58",
          "transactionHash": "0x9295b13ba65589367ac3b414fbfa6b47ec3e047985f4594a7a3fbee7adfe76e1",
          "transactionIndex": "0xbf",
          "logIndex": "0xe5",
          "removed": false
        },
        {
          "address": "0x8aafd3ede9adb0ff97c7aebce82a919afb1c8764",
          "topics": [
            "0xddf252ad1be2c89b69c2b068fc378daa952ba7f163c4a11628f55a4df523b3ef",
            "0x000000000000000000000000c77f7fed3b5cc8249adc428c5f44c9063b9734b4",
            "0x000000000000000000000000c77f7fed3b5cc8249adc428c5f44c9063b9734b4"
          ],
          "data": "0x000000000000000000000000000000000000000000000000002f7a11c67d251a",
          "blockHash": "0xf06be3645c708b650b5e8572d198cf5082bc4b03a89787e08b35d8e29fcab814",
          "blockNumber": "0x731c58",
          "transactionHash": "0x9295b13ba65589367ac3b414fbfa6b47ec3e047985f4594a7a3fbee7adfe76e1",
          "transactionIndex": "0xbf",
          "logIndex": "0xe6",
          "removed": false
        },
        {
          "address": "0x8aafd3ede9adb0ff97c7aebce82a919afb1c8764",
          "topics": [
            "0x4afcb4a87cdbd9974efdb92ee48bc8d7cd0ae4bf217004db3d080cbaee652ca7"
          ],
          "data": "0x00000000000000000000000000000000000000000000000000000000679050fc0000000000000000000000000000000000000000000000000010ffc41fdb9b56000000000000000000000000000000000000000000000000001c651b9f00f4e9",
          "blockHash": "0xf06be3645c708b650b5e8572d198cf5082bc4b03a89787e08b35d8e29fcab814",
          "blockNumber": "0x731c58",
          "transactionHash": "0x9295b13ba65589367ac3b414fbfa6b47ec3e047985f4594a7a3fbee7adfe76e1",
          "transactionIndex": "0xbf",
          "logIndex": "0xe7",
          "removed": false
        }
      ],
      "logsBloom": "0x00000000000000000000000000000000000000000600000000000000000000000000000000000000000000000000000000000000000000004000000000000000000000000000004000000008000000000000000000000000000000000000000000000000020000000000000000000800020000000000000000000010000000000000000000000000000000000000000000000000000000000000010000000000000000000000000000000000000000004000000000000000000000000000000000000002000000800000000000000000000000000000080000000000000020000000000000000000000000000000000000000000000000000000000000000000",
      "type": "0x2",
      "transactionHash": "0x9295b13ba65589367ac3b414fbfa6b47ec3e047985f4594a7a3fbee7adfe76e1",
      "transactionIndex": "0xbf",
      "blockHash": "0xf06be3645c708b650b5e8572d198cf5082bc4b03a89787e08b35d8e29fcab814",
      "blockNumber": "0x731c58",
      "gasUsed": "0xfd3f",
      "effectiveGasPrice": "0x15a7eb8ed",
      "from": "0xc77f7fed3b5cc8249adc428c5f44c9063b9734b4",
      "to": "0x8aafd3ede9adb0ff97c7aebce82a919afb1c8764",
      "contractAddress": null
    }
  ],
  "libraries": [],
  "pending": [],
  "returns": {},
  "timestamp": 1737511165,
  "chain": 11155111,
  "commit": "1d2fb70"
}