{
  "transactions": [
    {
      "hash": "0xbe2f6cc4e7e7a06e8c2458c804e472ba2c325d62e700810321fdb63ac04ea48a",
      "transactionType": "CALL",
      "contractName": null,
      "contractAddress": "0x270e88f8683660553e8ba4eb2ad7c91a1710d769",
      "function": "buy(address)",
      "arguments": [
        "0xC77f7fed3b5Cc8249aDc428c5F44C9063B9734b4"
      ],
      "transaction": {
        "from": "0xc77f7fed3b5cc8249adc428c5f44c9063b9734b4",
        "to": "0x270e88f8683660553e8ba4eb2ad7c91a1710d769",
        "gas": "0x1b30c",
        "value": "0xde0b6b3a7640000",
        "input": "0xf088d547000000000000000000000000c77f7fed3b5cc8249adc428c5f44c9063b9734b4",
        "nonce": "0x5e0",
        "chainId": "0xaa36a7"
      },
      "additionalContracts": [],
      "isFixedGasLimit": false
    }
  ],
  "receipts": [
    {
      "status": "0x1",
      "cumulativeGasUsed": "0xa0007c",
      "logs": [
        {
          "address": "0x270e88f8683660553e8ba4eb2ad7c91a1710d769",
          "topics": [
            "0xddf252ad1be2c89b69c2b068fc378daa952ba7f163c4a11628f55a4df523b3ef",
            "0x0000000000000000000000000000000000000000000000000000000000000000",
            "0x000000000000000000000000c77f7fed3b5cc8249adc428c5f44c9063b9734b4"
          ],
          "data": "0x00000000000000000000000000000000000000000000003373469db63497fd41",
          "blockHash": "0xf013cd3603bb9ac7fbc061b70fe8d1f5d995f101151a657fdb04bbc318234f6a",
          "blockNumber": "0x7252a4",
          "transactionHash": "0xbe2f6cc4e7e7a06e8c2458c804e472ba2c325d62e700810321fdb63ac04ea48a",
          "transactionIndex": "0x50",
          "logIndex": "0x91",
          "removed": false
        },
        {
          "address": "0x270e88f8683660553e8ba4eb2ad7c91a1710d769",
          "topics": [
            "0xddf252ad1be2c89b69c2b068fc378daa952ba7f163c4a11628f55a4df523b3ef",
            "0x0000000000000000000000000000000000000000000000000000000000000000",
            "0x000000000000000000000000c77f7fed3b5cc8249adc428c5f44c9063b9734b4"
          ],
          "data": "0x00000000000000000000000000000000000000000000000027f3f1e91dec90f4",
          "blockHash": "0xf013cd3603bb9ac7fbc061b70fe8d1f5d995f101151a657fdb04bbc318234f6a",
          "blockNumber": "0x7252a4",
          "transactionHash": "0xbe2f6cc4e7e7a06e8c2458c804e472ba2c325d62e700810321fdb63ac04ea48a",
          "transactionIndex": "0x50",
          "logIndex": "0x92",
          "removed": false
        },
        {
          "address": "0x270e88f8683660553e8ba4eb2ad7c91a1710d769",
          "topics": [
            "0x4afcb4a87cdbd9974efdb92ee48bc8d7cd0ae4bf217004db3d080cbaee652ca7"
          ],
          "data": "0x000000000000000000000000000000000000000000000000000000006786d1b80000000000000000000000000000000000000000000000000003b4cd4b0d66f70000000000000000000000000000000000000000000000000de0b6b3a7640000",
          "blockHash": "0xf013cd3603bb9ac7fbc061b70fe8d1f5d995f101151a657fdb04bbc318234f6a",
          "blockNumber": "0x7252a4",
          "transactionHash": "0xbe2f6cc4e7e7a06e8c2458c804e472ba2c325d62e700810321fdb63ac04ea48a",
          "transactionIndex": "0x50",
          "logIndex": "0x93",
          "removed": false
        }
      ],
      "logsBloom": "0x00000000000000000000000000000000000000000000000000000000000000000000000000000000000000000000000020000000000000004000000000000000000000000000000000000008000000000000000000000000000000000000000000000000020000000000000000000800020000000000000000000010000000000000000000010000000000000000000000000000000000000000010000000000000000000000000000000000000000004000000000000000000000000000000000000002000000800000000000000000000000000000080000008000000020000000000000000000000000000000000000000000000000000000000000000000",
      "type": "0x2",
      "transactionHash": "0xbe2f6cc4e7e7a06e8c2458c804e472ba2c325d62e700810321fdb63ac04ea48a",
      "transactionIndex": "0x50",
      "blockHash": "0xf013cd3603bb9ac7fbc061b70fe8d1f5d995f101151a657fdb04bbc318234f6a",
      "blockNumber": "0x7252a4",
      "gasUsed": "0x13af8",
      "effectiveGasPrice": "0x34f4b6194",
      "from": "0xc77f7fed3b5cc8249adc428c5f44c9063b9734b4",
      "to": "0x270e88f8683660553e8ba4eb2ad7c91a1710d769",
      "contractAddress": null
    }
  ],
  "libraries": [],
  "pending": [],
  "returns": {},
  "timestamp": 1736888761,
  "chain": 11155111,
  "commit": "51a374b"
}