{
  "transactions": [
    {
      "hash": "0xc97a4a22b10c57257b0aa8b723727c933466ade8f5eca2883ad3bc218002e71c",
      "transactionType": "CALL",
      "contractName": null,
      "contractAddress": "0xd7bc75898e513accccf720a874d44dab5a4b6223",
      "function": "buy(address)",
      "arguments": [
        "0xC77f7fed3b5Cc8249aDc428c5F44C9063B9734b4"
      ],
      "transaction": {
        "from": "0xc77f7fed3b5cc8249adc428c5f44c9063b9734b4",
        "to": "0xd7bc75898e513accccf720a874d44dab5a4b6223",
        "gas": "0x1b30c",
        "value": "0x2386f26fc10000",
        "input": "0xf088d547000000000000000000000000c77f7fed3b5cc8249adc428c5f44c9063b9734b4",
        "nonce": "0x112",
        "chainId": "0xaa36a7"
      },
      "additionalContracts": [],
      "isFixedGasLimit": false
    }
  ],
  "receipts": [
    {
      "status": "0x1",
      "cumulativeGasUsed": "0x1bb7c96",
      "logs": [
        {
          "address": "0xd7bc75898e513accccf720a874d44dab5a4b6223",
          "topics": [
            "0xddf252ad1be2c89b69c2b068fc378daa952ba7f163c4a11628f55a4df523b3ef",
            "0x0000000000000000000000000000000000000000000000000000000000000000",
            "0x000000000000000000000000c77f7fed3b5cc8249adc428c5f44c9063b9734b4"
          ],
          "data": "0x0000000000000000000000000000000000000000000000008963ba31bb309bfd",
          "blockHash": "0x0f85fc25aabc4fdf2bbaa3d5a1db08348de09e314977fd6ef409b269910ef8bf",
          "blockNumber": "0x7239a6",
          "transactionHash": "0xc97a4a22b10c57257b0aa8b723727c933466ade8f5eca2883ad3bc218002e71c",
          "transactionIndex": "0x49",
          "logIndex": "0x23e",
          "removed": false
        },
        {
          "address": "0xd7bc75898e513accccf720a874d44dab5a4b6223",
          "topics": [
            "0xddf252ad1be2c89b69c2b068fc378daa952ba7f163c4a11628f55a4df523b3ef",
            "0x0000000000000000000000000000000000000000000000000000000000000000",
            "0x000000000000000000000000c77f7fed3b5cc8249adc428c5f44c9063b9734b4"
          ],
          "data": "0x000000000000000000000000000000000000000000000000006ab00bc48ea830",
          "blockHash": "0x0f85fc25aabc4fdf2bbaa3d5a1db08348de09e314977fd6ef409b269910ef8bf",
          "blockNumber": "0x7239a6",
          "transactionHash": "0xc97a4a22b10c57257b0aa8b723727c933466ade8f5eca2883ad3bc218002e71c",
          "transactionIndex": "0x49",
          "logIndex": "0x23f",
          "removed": false
        },
        {
          "address": "0xd7bc75898e513accccf720a874d44dab5a4b6223",
          "topics": [
            "0x4afcb4a87cdbd9974efdb92ee48bc8d7cd0ae4bf217004db3d080cbaee652ca7"
          ],
          "data": "0x000000000000000000000000000000000000000000000000000000006785a51c00000000000000000000000000000000000000000000000000038d7f8ee09f26000000000000000000000000000000000000000000000000002386f26fc10000",
          "blockHash": "0x0f85fc25aabc4fdf2bbaa3d5a1db08348de09e314977fd6ef409b269910ef8bf",
          "blockNumber": "0x7239a6",
          "transactionHash": "0xc97a4a22b10c57257b0aa8b723727c933466ade8f5eca2883ad3bc218002e71c",
          "transactionIndex": "0x49",
          "logIndex": "0x240",
          "removed": false
        }
      ],
      "logsBloom": "0x00000000000000000000000000000000000000000000000000000000000000000000000000000000000000000000000000000000000000004000000000000000000000000000000000000008000000000000000000000000000000000000000000000000020000000000000000000800020000000000000000000010000000000000000000000000000000000000000000000000000000000000010000000000000000000000000000000000000000004000001000000000000000000000000000000002000000800000000000004000000000000000080000000000000020000000000000000000000000000000000000000000080000000000000000000000",
      "type": "0x2",
      "transactionHash": "0xc97a4a22b10c57257b0aa8b723727c933466ade8f5eca2883ad3bc218002e71c",
      "transactionIndex": "0x49",
      "blockHash": "0x0f85fc25aabc4fdf2bbaa3d5a1db08348de09e314977fd6ef409b269910ef8bf",
      "blockNumber": "0x7239a6",
      "gasUsed": "0x13af8",
      "effectiveGasPrice": "0x19a9954f3",
      "from": "0xc77f7fed3b5cc8249adc428c5f44c9063b9734b4",
      "to": "0xd7bc75898e513accccf720a874d44dab5a4b6223",
      "contractAddress": null
    }
  ],
  "libraries": [],
  "pending": [],
  "returns": {},
  "timestamp": 1736811805,
  "chain": 11155111,
  "commit": "51a374b"
}