{
  "transactions": [
    {
      "hash": "0x139e95d1c0d6cbeddf2bcc95101c13894358450ce046d2bf8fba8396b3f5a1a3",
      "transactionType": "CALL",
      "contractName": null,
      "contractAddress": "0xbf4a322f1496e5c3d34a9bcdb4c60567b38c7de2",
      "function": "sell(uint256)",
      "arguments": [
        "1214437125784141725735"
      ],
      "transaction": {
        "from": "0xc77f7fed3b5cc8249adc428c5f44c9063b9734b4",
        "to": "0xbf4a322f1496e5c3d34a9bcdb4c60567b38c7de2",
        "gas": "0x16fea",
        "value": "0x0",
        "input": "0xe4849b32000000000000000000000000000000000000000000000041d5b363897a268027",
        "nonce": "0x8d5",
        "chainId": "0xaa36a7"
      },
      "additionalContracts": [],
      "isFixedGasLimit": false
    }
  ],
  "receipts": [
    {
      "status": "0x1",
      "cumulativeGasUsed": "0x1632ebd",
      "logs": [
        {
          "address": "0xbf4a322f1496e5c3d34a9bcdb4c60567b38c7de2",
          "topics": [
            "0xddf252ad1be2c89b69c2b068fc378daa952ba7f163c4a11628f55a4df523b3ef",
            "0x000000000000000000000000c77f7fed3b5cc8249adc428c5f44c9063b9734b4",
            "0x0000000000000000000000000000000000000000000000000000000000000000"
          ],
          "data": "0x000000000000000000000000000000000000000000000041d5b363897a268027",
          "blockHash": "0x4e1081c4185f68e2ee3ae537ed9f9bfbc5607ac2d0981e18d8ca72ade1b2380e",
          "blockNumber": "0x725847",
          "transactionHash": "0x139e95d1c0d6cbeddf2bcc95101c13894358450ce046d2bf8fba8396b3f5a1a3",
          "transactionIndex": "0xea",
          "logIndex": "0x192",
          "removed": false
        },
        {
          "address": "0xbf4a322f1496e5c3d34a9bcdb4c60567b38c7de2",
          "topics": [
            "0x4afcb4a87cdbd9974efdb92ee48bc8d7cd0ae4bf217004db3d080cbaee652ca7"
          ],
          "data": "0x000000000000000000000000000000000000000000000000000000006787157400000000000000000000000000000000000000000000000000038f0ba79c7ad200000000000000000000000000000000000000000000000010e1cf791fa9ed9b",
          "blockHash": "0x4e1081c4185f68e2ee3ae537ed9f9bfbc5607ac2d0981e18d8ca72ade1b2380e",
          "blockNumber": "0x725847",
          "transactionHash": "0x139e95d1c0d6cbeddf2bcc95101c13894358450ce046d2bf8fba8396b3f5a1a3",
          "transactionIndex": "0xea",
          "logIndex": "0x193",
          "removed": false
        }
      ],
      "logsBloom": "0x00000000000000000000000000000000000000000000000000000000000000000000000000000000000000000000000000000000000000004000000000000000000000000000000000000008000000000000001000000000000000000000000000000000020000000000000000000800020000000000000000000010000000000000000000000000000000000000000000000000000008000000010000000000000000000000000000000000000000004000000000000000000000000000000000000002000000800000000000001000000000000000080000000000000020000000000000000000000000000000000000000000000000000000000000000000",
      "type": "0x2",
      "transactionHash": "0x139e95d1c0d6cbeddf2bcc95101c13894358450ce046d2bf8fba8396b3f5a1a3",
      "transactionIndex": "0xea",
      "blockHash": "0x4e1081c4185f68e2ee3ae537ed9f9bfbc5607ac2d0981e18d8ca72ade1b2380e",
      "blockNumber": "0x725847",
      "gasUsed": "0xfb91",
      "effectiveGasPrice": "0x1c583cd8",
      "from": "0xc77f7fed3b5cc8249adc428c5f44c9063b9734b4",
      "to": "0xbf4a322f1496e5c3d34a9bcdb4c60567b38c7de2",
      "contractAddress": null
    }
  ],
  "libraries": [],
  "pending": [],
  "returns": {},
  "timestamp": 1736906101,
  "chain": 11155111,
  "commit": "51a374b"
}