{
  "transactions": [
    {
      "hash": "0xbcc225e6d820e6188af637a0ed56996c9ed582e315c1500079fa09725feeb6a9",
      "transactionType": "CALL",
      "contractName": null,
      "contractAddress": "0x8aafd3ede9adb0ff97c7aebce82a919afb1c8764",
      "function": "sell(uint256)",
      "arguments": [
        "1408742"
      ],
      "transaction": {
        "from": "0xc77f7fed3b5cc8249adc428c5f44c9063b9734b4",
        "to": "0x8aafd3ede9adb0ff97c7aebce82a919afb1c8764",
        "gas": "0x16208",
        "value": "0x0",
        "input": "0xe4849b320000000000000000000000000000000000000000000000000000000000157ee6",
        "nonce": "0x1278",
        "chainId": "0xaa36a7"
      },
      "additionalContracts": [],
      "isFixedGasLimit": false
    }
  ],
  "receipts": [
    {
      "status": "0x1",
      "cumulativeGasUsed": "0xc608ce",
      "logs": [
        {
          "address": "0x8aafd3ede9adb0ff97c7aebce82a919afb1c8764",
          "topics": [
            "0xddf252ad1be2c89b69c2b068fc378daa952ba7f163c4a11628f55a4df523b3ef",
            "0x000000000000000000000000c77f7fed3b5cc8249adc428c5f44c9063b9734b4",
            "0x0000000000000000000000000000000000000000000000000000000000000000"
          ],
          "data": "0x00000000000000000000000000000000000000000000000000000000001552e1",
          "blockHash": "0xa80a624441a746f5af33d07d0e8de991d050546dd6fcaadbf6041e811947e49f",
          "blockNumber": "0x731962",
          "transactionHash": "0xbcc225e6d820e6188af637a0ed56996c9ed582e315c1500079fa09725feeb6a9",
          "transactionIndex": "0x73",
          "logIndex": "0x7d",
          "removed": false
        },
        {
          "address": "0x8aafd3ede9adb0ff97c7aebce82a919afb1c8764",
          "topics": [
            "0xddf252ad1be2c89b69c2b068fc378daa952ba7f163c4a11628f55a4df523b3ef",
            "0x000000000000000000000000c77f7fed3b5cc8249adc428c5f44c9063b9734b4",
            "0x000000000000000000000000c77f7fed3b5cc8249adc428c5f44c9063b9734b4"
          ],
          "data": "0x0000000000000000000000000000000000000000000000000000000000002c05",
          "blockHash": "0xa80a624441a746f5af33d07d0e8de991d050546dd6fcaadbf6041e811947e49f",
          "blockNumber": "0x731962",
          "transactionHash": "0xbcc225e6d820e6188af637a0ed56996c9ed582e315c1500079fa09725feeb6a9",
          "transactionIndex": "0x73",
          "logIndex": "0x7e",
          "removed": false
        },
        {
          "address": "0x8aafd3ede9adb0ff97c7aebce82a919afb1c8764",
          "topics": [
            "0x4afcb4a87cdbd9974efdb92ee48bc8d7cd0ae4bf217004db3d080cbaee652ca7"
          ],
          "data": "0x0000000000000000000000000000000000000000000000000000000067902d68000000000000000000000000000000000000000000000000000541eab990eb010000000000000000000000000000000000000000000000000000000000000824",
          "blockHash": "0xa80a624441a746f5af33d07d0e8de991d050546dd6fcaadbf6041e811947e49f",
          "blockNumber": "0x731962",
          "transactionHash": "0xbcc225e6d820e6188af637a0ed56996c9ed582e315c1500079fa09725feeb6a9",
          "transactionIndex": "0x73",
          "logIndex": "0x7f",
          "removed": false
        }
      ],
      "logsBloom": "0x00000000000000000000000000000000000000000600000000000000000000000000000000000000000000000000000000000000000000004000000000000000000000000000004000000008000000000000000000000000000000000000000000000000020000000000000000000800020000000000000000000010000000000000000000000000000000000000000000000000000000000000010000000000000000000000000000000000000000004000000000000000000000000000000000000002000000800000000000000000000000000000080000000000000020000000000000000000000000000000000000000000000000000000000000000000",
      "type": "0x2",
      "transactionHash": "0xbcc225e6d820e6188af637a0ed56996c9ed582e315c1500079fa09725feeb6a9",
      "transactionIndex": "0x73",
      "blockHash": "0xa80a624441a746f5af33d07d0e8de991d050546dd6fcaadbf6041e811947e49f",
      "blockNumber": "0x731962",
      "gasUsed": "0xf213",
      "effectiveGasPrice": "0x3c634e30",
      "from": "0xc77f7fed3b5cc8249adc428c5f44c9063b9734b4",
      "to": "0x8aafd3ede9adb0ff97c7aebce82a919afb1c8764",
      "contractAddress": null
    }
  ],
  "libraries": [],
  "pending": [],
  "returns": {},
  "timestamp": 1737502057,
  "chain": 11155111,
  "commit": "1d2fb70"
}