{
  "transactions": [
    {
      "hash": "0xf2116ea83893ce74e16b50b6c1fb9fda14ccd6bbd4b0b8c451ff37770db726e8",
      "transactionType": "CALL",
      "contractName": null,
      "contractAddress": "0x270e88f8683660553e8ba4eb2ad7c91a1710d769",
      "function": "buy(address)",
      "arguments": [
        "0xC77f7fed3b5Cc8249aDc428c5F44C9063B9734b4"
      ],
      "transaction": {
        "from": "0xc77f7fed3b5cc8249adc428c5f44c9063b9734b4",
        "to": "0x270e88f8683660553e8ba4eb2ad7c91a1710d769",
        "gas": "0x1b30c",
        "value": "0xde0b6b3a7640000",
        "input": "0xf088d547000000000000000000000000c77f7fed3b5cc8249adc428c5f44c9063b9734b4",
        "nonce": "0x53c",
        "chainId": "0xaa36a7"
      },
      "additionalContracts": [],
      "isFixedGasLimit": false
    }
  ],
  "receipts": [
    {
      "status": "0x1",
      "cumulativeGasUsed": "0x8e5ea4",
      "logs": [
        {
          "address": "0x270e88f8683660553e8ba4eb2ad7c91a1710d769",
          "topics": [
            "0xddf252ad1be2c89b69c2b068fc378daa952ba7f163c4a11628f55a4df523b3ef",
            "0x0000000000000000000000000000000000000000000000000000000000000000",
            "0x000000000000000000000000c77f7fed3b5cc8249adc428c5f44c9063b9734b4"
          ],
          "data": "0x000000000000000000000000000000000000000000000034c8fa926e823c1a81",
          "blockHash": "0xccb381cb4c8e72dfaf405a01a0b4c2f7e2d12fbc47f5c9c9a56b202455943521",
          "blockNumber": "0x7251d8",
          "transactionHash": "0xf2116ea83893ce74e16b50b6c1fb9fda14ccd6bbd4b0b8c451ff37770db726e8",
          "transactionIndex": "0x41",
          "logIndex": "0x75",
          "removed": false
        },
        {
          "address": "0x270e88f8683660553e8ba4eb2ad7c91a1710d769",
          "topics": [
            "0xddf252ad1be2c89b69c2b068fc378daa952ba7f163c4a11628f55a4df523b3ef",
            "0x0000000000000000000000000000000000000000000000000000000000000000",
            "0x000000000000000000000000c77f7fed3b5cc8249adc428c5f44c9063b9734b4"
          ],
          "data": "0x00000000000000000000000000000000000000000000000028fd49f9649b5575",
          "blockHash": "0xccb381cb4c8e72dfaf405a01a0b4c2f7e2d12fbc47f5c9c9a56b202455943521",
          "blockNumber": "0x7251d8",
          "transactionHash": "0xf2116ea83893ce74e16b50b6c1fb9fda14ccd6bbd4b0b8c451ff37770db726e8",
          "transactionIndex": "0x41",
          "logIndex": "0x76",
          "removed": false
        },
        {
          "address": "0x270e88f8683660553e8ba4eb2ad7c91a1710d769",
          "topics": [
            "0x4afcb4a87cdbd9974efdb92ee48bc8d7cd0ae4bf217004db3d080cbaee652ca7"
          ],
          "data": "0x000000000000000000000000000000000000000000000000000000006786c81000000000000000000000000000000000000000000000000000039ccfe92ef6480000000000000000000000000000000000000000000000000de0b6b3a7640000",
          "blockHash": "0xccb381cb4c8e72dfaf405a01a0b4c2f7e2d12fbc47f5c9c9a56b202455943521",
          "blockNumber": "0x7251d8",
          "transactionHash": "0xf2116ea83893ce74e16b50b6c1fb9fda14ccd6bbd4b0b8c451ff37770db726e8",
          "transactionIndex": "0x41",
          "logIndex": "0x77",
          "removed": false
        }
      ],
      "logsBloom": "0x00000000000000000000000000000000000000000000000000000000000000000000000000000000000000000000000020000000000000004000000000000000000000000000000000000008000000000000000000000000000000000000000000000000020000000000000000000800020000000000000000000010000000000000000000010000000000000000000000000000000000000000010000000000000000000000000000000000000000004000000000000000000000000000000000000002000000800000000000000000000000000000080000008000000020000000000000000000000000000000000000000000000000000000000000000000",
      "type": "0x2",
      "transactionHash": "0xf2116ea83893ce74e16b50b6c1fb9fda14ccd6bbd4b0b8c451ff37770db726e8",
      "transactionIndex": "0x41",
      "blockHash": "0xccb381cb4c8e72dfaf405a01a0b4c2f7e2d12fbc47f5c9c9a56b202455943521",
      "blockNumber": "0x7251d8",
      "gasUsed": "0x13af8",
      "effectiveGasPrice": "0x488fd2236",
      "from": "0xc77f7fed3b5cc8249adc428c5f44c9063b9734b4",
      "to": "0x270e88f8683660553e8ba4eb2ad7c91a1710d769",
      "contractAddress": null
    }
  ],
  "libraries": [],
  "pending": [],
  "returns": {},
  "timestamp": 1736886291,
  "chain": 11155111,
  "commit": "51a374b"
}