{
  "transactions": [
    {
      "hash": "0x8f308e463ae409f329e63f013259761a814b721d634f27c2554a35ac86aac7ce",
      "transactionType": "CALL",
      "contractName": null,
      "contractAddress": "0xbf4a322f1496e5c3d34a9bcdb4c60567b38c7de2",
      "function": "sell(uint256)",
      "arguments": [
        "973530385084217960139"
      ],
      "transaction": {
        "from": "0xc77f7fed3b5cc8249adc428c5f44c9063b9734b4",
        "to": "0xbf4a322f1496e5c3d34a9bcdb4c60567b38c7de2",
        "gas": "0x16fea",
        "value": "0x0",
        "input": "0xe4849b32000000000000000000000000000000000000000000000034c672b73fc20e26cb",
        "nonce": "0xdfd",
        "chainId": "0xaa36a7"
      },
      "additionalContracts": [],
      "isFixedGasLimit": false
    }
  ],
  "receipts": [
    {
      "status": "0x1",
      "cumulativeGasUsed": "0xbfb68b",
      "logs": [
        {
          "address": "0xbf4a322f1496e5c3d34a9bcdb4c60567b38c7de2",
          "topics": [
            "0xddf252ad1be2c89b69c2b068fc378daa952ba7f163c4a11628f55a4df523b3ef",
            "0x000000000000000000000000c77f7fed3b5cc8249adc428c5f44c9063b9734b4",
            "0x0000000000000000000000000000000000000000000000000000000000000000"
          ],
          "data": "0x000000000000000000000000000000000000000000000034c672b73fc20e26cb",
          "blockHash": "0xcfe5b3fb797a05693aaae6dea1af4f5da05a4c7ee9003d76b7514986f765e0ed",
          "blockNumber": "0x7266e4",
          "transactionHash": "0x8f308e463ae409f329e63f013259761a814b721d634f27c2554a35ac86aac7ce",
          "transactionIndex": "0x41",
          "logIndex": "0x69",
          "removed": false
        },
        {
          "address": "0xbf4a322f1496e5c3d34a9bcdb4c60567b38c7de2",
          "topics": [
            "0x4afcb4a87cdbd9974efdb92ee48bc8d7cd0ae4bf217004db3d080cbaee652ca7"
          ],
          "data": "0x000000000000000000000000000000000000000000000000000000006787c5f000000000000000000000000000000000000000000000000000039fb633a850ee0000000000000000000000000000000000000000000000000dc7e3d3062cc53a",
          "blockHash": "0xcfe5b3fb797a05693aaae6dea1af4f5da05a4c7ee9003d76b7514986f765e0ed",
          "blockNumber": "0x7266e4",
          "transactionHash": "0x8f308e463ae409f329e63f013259761a814b721d634f27c2554a35ac86aac7ce",
          "transactionIndex": "0x41",
          "logIndex": "0x6a",
          "removed": false
        }
      ],
      "logsBloom": "0x00000000000000000000000000000000000000000000000000000000000000000000000000000000000000000000000000000000000000004000000000000000000000000000000000000008000000000000001000000000000000000000000000000000020000000000000000000800020000000000000000000010000000000000000000000000000000000000000000000000000008000000010000000000000000000000000000000000000000004000000000000000000000000000000000000002000000800000000000001000000000000000080000000000000020000000000000000000000000000000000000000000000000000000000000000000",
      "type": "0x2",
      "transactionHash": "0x8f308e463ae409f329e63f013259761a814b721d634f27c2554a35ac86aac7ce",
      "transactionIndex": "0x41",
      "blockHash": "0xcfe5b3fb797a05693aaae6dea1af4f5da05a4c7ee9003d76b7514986f765e0ed",
      "blockNumber": "0x7266e4",
      "gasUsed": "0xfb91",
      "effectiveGasPrice": "0x3686b0140",
      "from": "0xc77f7fed3b5cc8249adc428c5f44c9063b9734b4",
      "to": "0xbf4a322f1496e5c3d34a9bcdb4c60567b38c7de2",
      "contractAddress": null
    }
  ],
  "libraries": [],
  "pending": [],
  "returns": {},
  "timestamp": 1736951281,
  "chain": 11155111,
  "commit": "51a374b"
}