{
  "transactions": [
    {
      "hash": "0x55b1f926c3cc16870e13fc0957ed5e80706ef84400a3db1dc534c30074c170ed",
      "transactionType": "CALL",
      "contractName": null,
      "contractAddress": "0x8aafd3ede9adb0ff97c7aebce82a919afb1c8764",
      "function": "sell(uint256)",
      "arguments": [
        "166643472227920664131"
      ],
      "transaction": {
        "from": "0xc77f7fed3b5cc8249adc428c5f44c9063b9734b4",
        "to": "0x8aafd3ede9adb0ff97c7aebce82a919afb1c8764",
        "gas": "0x17270",
        "value": "0x0",
        "input": "0xe4849b3200000000000000000000000000000000000000000000000908a48b138ae25643",
        "nonce": "0x1667",
        "chainId": "0xaa36a7"
      },
      "additionalContracts": [],
      "isFixedGasLimit": false
    }
  ],
  "receipts": [
    {
      "status": "0x1",
      "cumulativeGasUsed": "0x6a5b39",
      "logs": [
        {
          "address": "0x8aafd3ede9adb0ff97c7aebce82a919afb1c8764",
          "topics": [
            "0xddf252ad1be2c89b69c2b068fc378daa952ba7f163c4a11628f55a4df523b3ef",
            "0x000000000000000000000000c77f7fed3b5cc8249adc428c5f44c9063b9734b4",
            "0x0000000000000000000000000000000000000000000000000000000000000000"
          ],
          "data": "0x000000000000000000000000000000000000000000000008f624403c589efd82",
          "blockHash": "0x03095eeb9760a47e9d79ed3a4610954105c4bf7246efdcab5a1f8d500e905e4c",
          "blockNumber": "0x731e16",
          "transactionHash": "0x55b1f926c3cc16870e13fc0957ed5e80706ef84400a3db1dc534c30074c170ed",
          "transactionIndex": "0x5c",
          "logIndex": "0x61",
          "removed": false
        },
        {
          "address": "0x8aafd3ede9adb0ff97c7aebce82a919afb1c8764",
          "topics": [
            "0xddf252ad1be2c89b69c2b068fc378daa952ba7f163c4a11628f55a4df523b3ef",
            "0x000000000000000000000000c77f7fed3b5cc8249adc428c5f44c9063b9734b4",
            "0x000000000000000000000000c77f7fed3b5cc8249adc428c5f44c9063b9734b4"
          ],
          "data": "0x00000000000000000000000000000000000000000000000012804ad7324358c1",
          "blockHash": "0x03095eeb9760a47e9d79ed3a4610954105c4bf7246efdcab5a1f8d500e905e4c",
          "blockNumber": "0x731e16",
          "transactionHash": "0x55b1f926c3cc16870e13fc0957ed5e80706ef84400a3db1dc534c30074c170ed",
          "transactionIndex": "0x5c",
          "logIndex": "0x62",
          "removed": false
        },
        {
          "address": "0x8aafd3ede9adb0ff97c7aebce82a919afb1c8764",
          "topics": [
            "0x4afcb4a87cdbd9974efdb92ee48bc8d7cd0ae4bf217004db3d080cbaee652ca7"
          ],
          "data": "0x00000000000000000000000000000000000000000000000000000000679065f000000000000000000000000000000000000000000000000000154636379e7dea0000000000000000000000000000000000000000000000000dcc454594257214",
          "blockHash": "0x03095eeb9760a47e9d79ed3a4610954105c4bf7246efdcab5a1f8d500e905e4c",
          "blockNumber": "0x731e16",
          "transactionHash": "0x55b1f926c3cc16870e13fc0957ed5e80706ef84400a3db1dc534c30074c170ed",
          "transactionIndex": "0x5c",
          "logIndex": "0x63",
          "removed": false
        }
      ],
      "logsBloom": "0x00000000000000000000000000000000000000000600000000000000000000000000000000000000000000000000000000000000000000004000000000000000000000000000004000000008000000000000000000000000000000000000000000000000020000000000000000000800020000000000000000000010000000000000000000000000000000000000000000000000000000000000010000000000000000000000000000000000000000004000000000000000000000000000000000000002000000800000000000000000000000000000080000000000000020000000000000000000000000000000000000000000000000000000000000000000",
      "type": "0x2",
      "transactionHash": "0x55b1f926c3cc16870e13fc0957ed5e80706ef84400a3db1dc534c30074c170ed",
      "transactionIndex": "0x5c",
      "blockHash": "0x03095eeb9760a47e9d79ed3a4610954105c4bf7246efdcab5a1f8d500e905e4c",
      "blockNumber": "0x731e16",
      "gasUsed": "0xfd4b",
      "effectiveGasPrice": "0x421f04ca",
      "from": "0xc77f7fed3b5cc8249adc428c5f44c9063b9734b4",
      "to": "0x8aafd3ede9adb0ff97c7aebce82a919afb1c8764",
      "contractAddress": null
    }
  ],
  "libraries": [],
  "pending": [],
  "returns": {},
  "timestamp": 1737516528,
  "chain": 11155111,
  "commit": "1d2fb70"
}