{
  "transactions": [
    {
      "hash": "0xe980536ace36761763da31ec88785777a0c90d0e909177dfe4d356984936df75",
      "transactionType": "CALL",
      "contractName": null,
      "contractAddress": "0x8aafd3ede9adb0ff97c7aebce82a919afb1c8764",
      "function": "sell(uint256)",
      "arguments": [
        "5379740854760790128"
      ],
      "transaction": {
        "from": "0xc77f7fed3b5cc8249adc428c5f44c9063b9734b4",
        "to": "0x8aafd3ede9adb0ff97c7aebce82a919afb1c8764",
        "gas": "0x15dca",
        "value": "0x0",
        "input": "0xe4849b320000000000000000000000000000000000000000000000004aa8adcde7ac5870",
        "nonce": "0x1268",
        "chainId": "0xaa36a7"
      },
      "additionalContracts": [],
      "isFixedGasLimit": false
    }
  ],
  "receipts": [
    {
      "status": "0x1",
      "cumulativeGasUsed": "0xb380e0",
      "logs": [
        {
          "address": "0x8aafd3ede9adb0ff97c7aebce82a919afb1c8764",
          "topics": [
            "0xddf252ad1be2c89b69c2b068fc378daa952ba7f163c4a11628f55a4df523b3ef",
            "0x000000000000000000000000c77f7fed3b5cc8249adc428c5f44c9063b9734b4",
            "0x0000000000000000000000000000000000000000000000000000000000000000"
          ],
          "data": "0x0000000000000000000000000000000000000000000000004a0fc709b29eadbf",
          "blockHash": "0x5b1d8a4b2b9a9d405361a6ee219f769e8df197c5ae8dba56b3d92e95e3349f0e",
          "blockNumber": "0x73194e",
          "transactionHash": "0xe980536ace36761763da31ec88785777a0c90d0e909177dfe4d356984936df75",
          "transactionIndex": "0x84",
          "logIndex": "0xc0",
          "removed": false
        },
        {
          "address": "0x8aafd3ede9adb0ff97c7aebce82a919afb1c8764",
          "topics": [
            "0xddf252ad1be2c89b69c2b068fc378daa952ba7f163c4a11628f55a4df523b3ef",
            "0x000000000000000000000000c77f7fed3b5cc8249adc428c5f44c9063b9734b4",
            "0x000000000000000000000000c77f7fed3b5cc8249adc428c5f44c9063b9734b4"
          ],
          "data": "0x0000000000000000000000000000000000000000000000000098e6c4350daab1",
          "blockHash": "0x5b1d8a4b2b9a9d405361a6ee219f769e8df197c5ae8dba56b3d92e95e3349f0e",
          "blockNumber": "0x73194e",
          "transactionHash": "0xe980536ace36761763da31ec88785777a0c90d0e909177dfe4d356984936df75",
          "transactionIndex": "0x84",
          "logIndex": "0xc1",
          "removed": false
        },
        {
          "address": "0x8aafd3ede9adb0ff97c7aebce82a919afb1c8764",
          "topics": [
            "0x4afcb4a87cdbd9974efdb92ee48bc8d7cd0ae4bf217004db3d080cbaee652ca7"
          ],
          "data": "0x0000000000000000000000000000000000000000000000000000000067902c7800000000000000000000000000000000000000000000000000054076ab9ab4cc000000000000000000000000000000000000000000000000001c40d22935855c",
          "blockHash": "0x5b1d8a4b2b9a9d405361a6ee219f769e8df197c5ae8dba56b3d92e95e3349f0e",
          "blockNumber": "0x73194e",
          "transactionHash": "0xe980536ace36761763da31ec88785777a0c90d0e909177dfe4d356984936df75",
          "transactionIndex": "0x84",
          "logIndex": "0xc2",
          "removed": false
        }
      ],
      "logsBloom": "0x00000000000000000000000000000000000000000600000000000000000000000000000000000000000000000000000000000000000000004000000000000000000000000000004000000008000000000000000000000000000000000000000000000000020000000000000000000800020000000000000000000010000000000000000000000000000000000000000000000000000000000000010000000000000000000000000000000000000000004000000000000000000000000000000000000002000000800000000000000000000000000000080000000000000020000000000000000000000000000000000000000000000000000000000000000000",
      "type": "0x2",
      "transactionHash": "0xe980536ace36761763da31ec88785777a0c90d0e909177dfe4d356984936df75",
      "transactionIndex": "0x84",
      "blockHash": "0x5b1d8a4b2b9a9d405361a6ee219f769e8df197c5ae8dba56b3d92e95e3349f0e",
      "blockNumber": "0x73194e",
      "gasUsed": "0xfd3f",
      "effectiveGasPrice": "0x384061c0",
      "from": "0xc77f7fed3b5cc8249adc428c5f44c9063b9734b4",
      "to": "0x8aafd3ede9adb0ff97c7aebce82a919afb1c8764",
      "contractAddress": null
    }
  ],
  "libraries": [],
  "pending": [],
  "returns": {},
  "timestamp": 1737501819,
  "chain": 11155111,
  "commit": "1d2fb70"
}