{
  "transactions": [
    {
      "hash": "0xb1cde6021e22f11214ff5c888c56fb9532abf5ca9629bed8652402decf46dad0",
      "transactionType": "CALL",
      "contractName": null,
      "contractAddress": "0x270e88f8683660553e8ba4eb2ad7c91a1710d769",
      "function": "buy(address)",
      "arguments": [
        "0xC77f7fed3b5Cc8249aDc428c5F44C9063B9734b4"
      ],
      "transaction": {
        "from": "0xc77f7fed3b5cc8249adc428c5f44c9063b9734b4",
        "to": "0x270e88f8683660553e8ba4eb2ad7c91a1710d769",
        "gas": "0x1b30c",
        "value": "0xde0b6b3a7640000",
        "input": "0xf088d547000000000000000000000000c77f7fed3b5cc8249adc428c5f44c9063b9734b4",
        "nonce": "0x614",
        "chainId": "0xaa36a7"
      },
      "additionalContracts": [],
      "isFixedGasLimit": false
    }
  ],
  "receipts": [
    {
      "status": "0x1",
      "cumulativeGasUsed": "0x21f22f9",
      "logs": [
        {
          "address": "0x270e88f8683660553e8ba4eb2ad7c91a1710d769",
          "topics": [
            "0xddf252ad1be2c89b69c2b068fc378daa952ba7f163c4a11628f55a4df523b3ef",
            "0x0000000000000000000000000000000000000000000000000000000000000000",
            "0x000000000000000000000000c77f7fed3b5cc8249adc428c5f44c9063b9734b4"
          ],
          "data": "0x0000000000000000000000000000000000000000000000330a804655b83c7530",
          "blockHash": "0x83d1d8b05984bbbc47729f35950e0032b03f74cc0a0b4cde8eb72670ca300ece",
          "blockNumber": "0x7252df",
          "transactionHash": "0xb1cde6021e22f11214ff5c888c56fb9532abf5ca9629bed8652402decf46dad0",
          "transactionIndex": "0xc2",
          "logIndex": "0x12d",
          "removed": false
        },
        {
          "address": "0x270e88f8683660553e8ba4eb2ad7c91a1710d769",
          "topics": [
            "0xddf252ad1be2c89b69c2b068fc378daa952ba7f163c4a11628f55a4df523b3ef",
            "0x0000000000000000000000000000000000000000000000000000000000000000",
            "0x000000000000000000000000c77f7fed3b5cc8249adc428c5f44c9063b9734b4"
          ],
          "data": "0x00000000000000000000000000000000000000000000000027a295729acb4732",
          "blockHash": "0x83d1d8b05984bbbc47729f35950e0032b03f74cc0a0b4cde8eb72670ca300ece",
          "blockNumber": "0x7252df",
          "transactionHash": "0xb1cde6021e22f11214ff5c888c56fb9532abf5ca9629bed8652402decf46dad0",
          "transactionIndex": "0xc2",
          "logIndex": "0x12e",
          "removed": false
        },
        {
          "address": "0x270e88f8683660553e8ba4eb2ad7c91a1710d769",
          "topics": [
            "0x4afcb4a87cdbd9974efdb92ee48bc8d7cd0ae4bf217004db3d080cbaee652ca7"
          ],
          "data": "0x000000000000000000000000000000000000000000000000000000006786d47c0000000000000000000000000000000000000000000000000003bc68bdc125a80000000000000000000000000000000000000000000000000de0b6b3a7640000",
          "blockHash": "0x83d1d8b05984bbbc47729f35950e0032b03f74cc0a0b4cde8eb72670ca300ece",
          "blockNumber": "0x7252df",
          "transactionHash": "0xb1cde6021e22f11214ff5c888c56fb9532abf5ca9629bed8652402decf46dad0",
          "transactionIndex": "0xc2",
          "logIndex": "0x12f",
          "removed": false
        }
      ],
      "logsBloom": "0x00000000000000000000000000000000000000000000000000000000000000000000000000000000000000000000000020000000000000004000000000000000000000000000000000000008000000000000000000000000000000000000000000000000020000000000000000000800020000000000000000000010000000000000000000010000000000000000000000000000000000000000010000000000000000000000000000000000000000004000000000000000000000000000000000000002000000800000000000000000000000000000080000008000000020000000000000000000000000000000000000000000000000000000000000000000",
      "type": "0x2",
      "transactionHash": "0xb1cde6021e22f11214ff5c888c56fb9532abf5ca9629bed8652402decf46dad0",
      "transactionIndex": "0xc2",
      "blockHash": "0x83d1d8b05984bbbc47729f35950e0032b03f74cc0a0b4cde8eb72670ca300ece",
      "blockNumber": "0x7252df",
      "gasUsed": "0x13af8",
      "effectiveGasPrice": "0x2443f409a",
      "from": "0xc77f7fed3b5cc8249adc428c5f44c9063b9734b4",
      "to": "0x270e88f8683660553e8ba4eb2ad7c91a1710d769",
      "contractAddress": null
    }
  ],
  "libraries": [],
  "pending": [],
  "returns": {},
  "timestamp": 1736889469,
  "chain": 11155111,
  "commit": "51a374b"
}