{
  "transactions": [
    {
      "hash": "0xea1cec50871659f1dad0f2138e432644f17d8ae93af4ce02750f5fbc29602a10",
      "transactionType": "CALL",
      "contractName": null,
      "contractAddress": "0xbf4a322f1496e5c3d34a9bcdb4c60567b38c7de2",
      "function": "sell(uint256)",
      "arguments": [
        "976614098436750481415"
      ],
      "transaction": {
        "from": "0xc77f7fed3b5cc8249adc428c5f44c9063b9734b4",
        "to": "0xbf4a322f1496e5c3d34a9bcdb4c60567b38c7de2",
        "gas": "0x16fea",
        "value": "0x0",
        "input": "0xe4849b32000000000000000000000000000000000000000000000034f13e443478e29807",
        "nonce": "0xd15",
        "chainId": "0xaa36a7"
      },
      "additionalContracts": [],
      "isFixedGasLimit": false
    }
  ],
  "receipts": [
    {
      "status": "0x1",
      "cumulativeGasUsed": "0x711687",
      "logs": [
        {
          "address": "0xbf4a322f1496e5c3d34a9bcdb4c60567b38c7de2",
          "topics": [
            "0xddf252ad1be2c89b69c2b068fc378daa952ba7f163c4a11628f55a4df523b3ef",
            "0x000000000000000000000000c77f7fed3b5cc8249adc428c5f44c9063b9734b4",
            "0x0000000000000000000000000000000000000000000000000000000000000000"
          ],
          "data": "0x000000000000000000000000000000000000000000000034f13e443478e29807",
          "blockHash": "0x368b869f50729b46b5ecc2ef8463280b6a9e93a2a0cd7ebcd1024d5f7ea2529c",
          "blockNumber": "0x725d70",
          "transactionHash": "0xea1cec50871659f1dad0f2138e432644f17d8ae93af4ce02750f5fbc29602a10",
          "transactionIndex": "0x5a",
          "logIndex": "0x70",
          "removed": false
        },
        {
          "address": "0xbf4a322f1496e5c3d34a9bcdb4c60567b38c7de2",
          "topics": [
            "0x4afcb4a87cdbd9974efdb92ee48bc8d7cd0ae4bf217004db3d080cbaee652ca7"
          ],
          "data": "0x00000000000000000000000000000000000000000000000000000000678753b400000000000000000000000000000000000000000000000000039cc8522f39c30000000000000000000000000000000000000000000000000dc7e3da31a6e9db",
          "blockHash": "0x368b869f50729b46b5ecc2ef8463280b6a9e93a2a0cd7ebcd1024d5f7ea2529c",
          "blockNumber": "0x725d70",
          "transactionHash": "0xea1cec50871659f1dad0f2138e432644f17d8ae93af4ce02750f5fbc29602a10",
          "transactionIndex": "0x5a",
          "logIndex": "0x71",
          "removed": false
        }
      ],
      "logsBloom": "0x00000000000000000000000000000000000000000000000000000000000000000000000000000000000000000000000000000000000000004000000000000000000000000000000000000008000000000000001000000000000000000000000000000000020000000000000000000800020000000000000000000010000000000000000000000000000000000000000000000000000008000000010000000000000000000000000000000000000000004000000000000000000000000000000000000002000000800000000000001000000000000000080000000000000020000000000000000000000000000000000000000000000000000000000000000000",
      "type": "0x2",
      "transactionHash": "0xea1cec50871659f1dad0f2138e432644f17d8ae93af4ce02750f5fbc29602a10",
      "transactionIndex": "0x5a",
      "blockHash": "0x368b869f50729b46b5ecc2ef8463280b6a9e93a2a0cd7ebcd1024d5f7ea2529c",
      "blockNumber": "0x725d70",
      "gasUsed": "0xfb91",
      "effectiveGasPrice": "0x27df5d55d",
      "from": "0xc77f7fed3b5cc8249adc428c5f44c9063b9734b4",
      "to": "0xbf4a322f1496e5c3d34a9bcdb4c60567b38c7de2",
      "contractAddress": null
    }
  ],
  "libraries": [],
  "pending": [],
  "returns": {},
  "timestamp": 1736922037,
  "chain": 11155111,
  "commit": "51a374b"
}