{
  "transactions": [
    {
      "hash": "0x5355ec88c2f91603a8b36885c2a7c4a56da52ba0331a43e53db0a243056f6dea",
      "transactionType": "CALL",
      "contractName": null,
      "contractAddress": "0x8aafd3ede9adb0ff97c7aebce82a919afb1c8764",
      "function": "sell(uint256)",
      "arguments": [
        "5713466850642466140"
      ],
      "transaction": {
        "from": "0xc77f7fed3b5cc8249adc428c5f44c9063b9734b4",
        "to": "0x8aafd3ede9adb0ff97c7aebce82a919afb1c8764",
        "gas": "0x15dca",
        "value": "0x0",
        "input": "0xe4849b320000000000000000000000000000000000000000000000004f4a4fd45483955c",
        "nonce": "0x104c",
        "chainId": "0xaa36a7"
      },
      "additionalContracts": [],
      "isFixedGasLimit": false
    }
  ],
  "receipts": [
    {
      "status": "0x1",
      "cumulativeGasUsed": "0xcdf7cc",
      "logs": [
        {
          "address": "0x8aafd3ede9adb0ff97c7aebce82a919afb1c8764",
          "topics": [
            "0xddf252ad1be2c89b69c2b068fc378daa952ba7f163c4a11628f55a4df523b3ef",
            "0x000000000000000000000000c77f7fed3b5cc8249adc428c5f44c9063b9734b4",
            "0x0000000000000000000000000000000000000000000000000000000000000000"
          ],
          "data": "0x0000000000000000000000000000000000000000000000004ea7ece303f7444b",
          "blockHash": "0x6bc49f470a7c88284408e0ab5b06145a0020c8a29d095afec435059227f17208",
          "blockNumber": "0x7316cd",
          "transactionHash": "0x5355ec88c2f91603a8b36885c2a7c4a56da52ba0331a43e53db0a243056f6dea",
          "transactionIndex": "0x82",
          "logIndex": "0x97",
          "removed": false
        },
        {
          "address": "0x8aafd3ede9adb0ff97c7aebce82a919afb1c8764",
          "topics": [
            "0xddf252ad1be2c89b69c2b068fc378daa952ba7f163c4a11628f55a4df523b3ef",
            "0x000000000000000000000000c77f7fed3b5cc8249adc428c5f44c9063b9734b4",
            "0x000000000000000000000000c77f7fed3b5cc8249adc428c5f44c9063b9734b4"
          ],
          "data": "0x00000000000000000000000000000000000000000000000000a262f1508c5111",
          "blockHash": "0x6bc49f470a7c88284408e0ab5b06145a0020c8a29d095afec435059227f17208",
          "blockNumber": "0x7316cd",
          "transactionHash": "0x5355ec88c2f91603a8b36885c2a7c4a56da52ba0331a43e53db0a243056f6dea",
          "transactionIndex": "0x82",
          "logIndex": "0x98",
          "removed": false
        },
        {
          "address": "0x8aafd3ede9adb0ff97c7aebce82a919afb1c8764",
          "topics": [
            "0x4afcb4a87cdbd9974efdb92ee48bc8d7cd0ae4bf217004db3d080cbaee652ca7"
          ],
          "data": "0x0000000000000000000000000000000000000000000000000000000067900e540000000000000000000000000000000000000000000000000004f2044352fb48000000000000000000000000000000000000000000000000001c414bfceecb1f",
          "blockHash": "0x6bc49f470a7c88284408e0ab5b06145a0020c8a29d095afec435059227f17208",
          "blockNumber": "0x7316cd",
          "transactionHash": "0x5355ec88c2f91603a8b36885c2a7c4a56da52ba0331a43e53db0a243056f6dea",
          "transactionIndex": "0x82",
          "logIndex": "0x99",
          "removed": false
        }
      ],
      "logsBloom": "0x00000000000000000000000000000000000000000600000000000000000000000000000000000000000000000000000000000000000000004000000000000000000000000000004000000008000000000000000000000000000000000000000000000000020000000000000000000800020000000000000000000010000000000000000000000000000000000000000000000000000000000000010000000000000000000000000000000000000000004000000000000000000000000000000000000002000000800000000000000000000000000000080000000000000020000000000000000000000000000000000000000000000000000000000000000000",
      "type": "0x2",
      "transactionHash": "0x5355ec88c2f91603a8b36885c2a7c4a56da52ba0331a43e53db0a243056f6dea",
      "transactionIndex": "0x82",
      "blockHash": "0x6bc49f470a7c88284408e0ab5b06145a0020c8a29d095afec435059227f17208",
      "blockNumber": "0x7316cd",
      "gasUsed": "0xfd3f",
      "effectiveGasPrice": "0x3e6118aa",
      "from": "0xc77f7fed3b5cc8249adc428c5f44c9063b9734b4",
      "to": "0x8aafd3ede9adb0ff97c7aebce82a919afb1c8764",
      "contractAddress": null
    }
  ],
  "libraries": [],
  "pending": [],
  "returns": {},
  "timestamp": 1737494102,
  "chain": 11155111,
  "commit": "1d2fb70"
}