{
  "transactions": [
    {
      "hash": "0x289b920fee5db072020a61193b522d770feaada63ee73f720dfd9581b11d875b",
      "transactionType": "CALL",
      "contractName": null,
      "contractAddress": "0x8aafd3ede9adb0ff97c7aebce82a919afb1c8764",
      "function": "sell(uint256)",
      "arguments": [
        "1472386"
      ],
      "transaction": {
        "from": "0xc77f7fed3b5cc8249adc428c5f44c9063b9734b4",
        "to": "0x8aafd3ede9adb0ff97c7aebce82a919afb1c8764",
        "gas": "0x16208",
        "value": "0x0",
        "input": "0xe4849b320000000000000000000000000000000000000000000000000000000000167782",
        "nonce": "0x10e8",
        "chainId": "0xaa36a7"
      },
      "additionalContracts": [],
      "isFixedGasLimit": false
    }
  ],
  "receipts": [
    {
      "status": "0x1",
      "cumulativeGasUsed": "0xad091c",
      "logs": [
        {
          "address": "0x8aafd3ede9adb0ff97c7aebce82a919afb1c8764",
          "topics": [
            "0xddf252ad1be2c89b69c2b068fc378daa952ba7f163c4a11628f55a4df523b3ef",
            "0x000000000000000000000000c77f7fed3b5cc8249adc428c5f44c9063b9734b4",
            "0x0000000000000000000000000000000000000000000000000000000000000000"
          ],
          "data": "0x000000000000000000000000000000000000000000000000000000000016497f",
          "blockHash": "0xc08ec383099644fccd9f698d4609e1d63b0ba853aa51527000f3e951964b6106",
          "blockNumber": "0x73178c",
          "transactionHash": "0x289b920fee5db072020a61193b522d770feaada63ee73f720dfd9581b11d875b",
          "transactionIndex": "0x7d",
          "logIndex": "0xa3",
          "removed": false
        },
        {
          "address": "0x8aafd3ede9adb0ff97c7aebce82a919afb1c8764",
          "topics": [
            "0xddf252ad1be2c89b69c2b068fc378daa952ba7f163c4a11628f55a4df523b3ef",
            "0x000000000000000000000000c77f7fed3b5cc8249adc428c5f44c9063b9734b4",
            "0x000000000000000000000000c77f7fed3b5cc8249adc428c5f44c9063b9734b4"
          ],
          "data": "0x0000000000000000000000000000000000000000000000000000000000002e03",
          "blockHash": "0xc08ec383099644fccd9f698d4609e1d63b0ba853aa51527000f3e951964b6106",
          "blockNumber": "0x73178c",
          "transactionHash": "0x289b920fee5db072020a61193b522d770feaada63ee73f720dfd9581b11d875b",
          "transactionIndex": "0x7d",
          "logIndex": "0xa4",
          "removed": false
        },
        {
          "address": "0x8aafd3ede9adb0ff97c7aebce82a919afb1c8764",
          "topics": [
            "0x4afcb4a87cdbd9974efdb92ee48bc8d7cd0ae4bf217004db3d080cbaee652ca7"
          ],
          "data": "0x0000000000000000000000000000000000000000000000000000000067901754000000000000000000000000000000000000000000000000000507cd2f2af6ff0000000000000000000000000000000000000000000000000000000000000824",
          "blockHash": "0xc08ec383099644fccd9f698d4609e1d63b0ba853aa51527000f3e951964b6106",
          "blockNumber": "0x73178c",
          "transactionHash": "0x289b920fee5db072020a61193b522d770feaada63ee73f720dfd9581b11d875b",
          "transactionIndex": "0x7d",
          "logIndex": "0xa5",
          "removed": false
        }
      ],
      "logsBloom": "0x00000000000000000000000000000000000000000600000000000000000000000000000000000000000000000000000000000000000000004000000000000000000000000000004000000008000000000000000000000000000000000000000000000000020000000000000000000800020000000000000000000010000000000000000000000000000000000000000000000000000000000000010000000000000000000000000000000000000000004000000000000000000000000000000000000002000000800000000000000000000000000000080000000000000020000000000000000000000000000000000000000000000000000000000000000000",
      "type": "0x2",
      "transactionHash": "0x289b920fee5db072020a61193b522d770feaada63ee73f720dfd9581b11d875b",
      "transactionIndex": "0x7d",
      "blockHash": "0xc08ec383099644fccd9f698d4609e1d63b0ba853aa51527000f3e951964b6106",
      "blockNumber": "0x73178c",
      "gasUsed": "0xf213",
      "effectiveGasPrice": "0x44aee239",
      "from": "0xc77f7fed3b5cc8249adc428c5f44c9063b9734b4",
      "to": "0x8aafd3ede9adb0ff97c7aebce82a919afb1c8764",
      "contractAddress": null
    }
  ],
  "libraries": [],
  "pending": [],
  "returns": {},
  "timestamp": 1737496405,
  "chain": 11155111,
  "commit": "1d2fb70"
}