{
  "transactions": [
    {
      "hash": "0xe87895dde357d2ec8ea6fb854ddab910267feb0a7424d3b5b84a89f3216a02b6",
      "transactionType": "CALL",
      "contractName": null,
      "contractAddress": "0xd7bc75898e513accccf720a874d44dab5a4b6223",
      "function": "buy(address)",
      "arguments": [
        "0xC77f7fed3b5Cc8249aDc428c5F44C9063B9734b4"
      ],
      "transaction": {
        "from": "0xc77f7fed3b5cc8249adc428c5f44c9063b9734b4",
        "to": "0xd7bc75898e513accccf720a874d44dab5a4b6223",
        "gas": "0x1b30c",
        "value": "0x16345785d8a0000",
        "input": "0xf088d547000000000000000000000000c77f7fed3b5cc8249adc428c5f44c9063b9734b4",
        "nonce": "0x69",
        "chainId": "0xaa36a7"
      },
      "additionalContracts": [],
      "isFixedGasLimit": false
    },
    {
      "hash": "0x1797dd73687de22ff9ba1958415ca1c1ae7bf3479fc6f5ae824f575400820172",
      "transactionType": "CALL",
      "contractName": null,
      "contractAddress": "0xd7bc75898e513accccf720a874d44dab5a4b6223",
      "function": "sell(uint256)",
      "arguments": [
        "99300287124651473317"
      ],
      "transaction": {
        "from": "0xc77f7fed3b5cc8249adc428c5f44c9063b9734b4",
        "to": "0xd7bc75898e513accccf720a874d44dab5a4b6223",
        "gas": "0x16fec",
        "value": "0x0",
        "input": "0xe4849b3200000000000000000000000000000000000000000000000562117d063f2579a5",
        "nonce": "0x6a",
        "chainId": "0xaa36a7"
      },
      "additionalContracts": [],
      "isFixedGasLimit": false
    }
  ],
  "receipts": [
    {
      "status": "0x1",
      "cumulativeGasUsed": "0xb8b0d5",
      "logs": [
        {
          "address": "0xd7bc75898e513accccf720a874d44dab5a4b6223",
          "topics": [
            "0xddf252ad1be2c89b69c2b068fc378daa952ba7f163c4a11628f55a4df523b3ef",
            "0x0000000000000000000000000000000000000000000000000000000000000000",
            "0x000000000000000000000000c77f7fed3b5cc8249adc428c5f44c9063b9734b4"
          ],
          "data": "0x0000000000000000000000000000000000000000000000055de69b8750c4f9c9",
          "blockHash": "0x740b77fe4b3e60a2b7b18d1f3ede03ec2635e602f87297fd79e600cef018249f",
          "blockNumber": "0x723899",
          "transactionHash": "0xe87895dde357d2ec8ea6fb854ddab910267feb0a7424d3b5b84a89f3216a02b6",
          "transactionIndex": "0x65",
          "logIndex": "0xaa",
          "removed": false
        },
        {
          "address": "0xd7bc75898e513accccf720a874d44dab5a4b6223",
          "topics": [
            "0xddf252ad1be2c89b69c2b068fc378daa952ba7f163c4a11628f55a4df523b3ef",
            "0x0000000000000000000000000000000000000000000000000000000000000000",
            "0x000000000000000000000000c77f7fed3b5cc8249adc428c5f44c9063b9734b4"
          ],
          "data": "0x000000000000000000000000000000000000000000000000042ae17eee607fdc",
          "blockHash": "0x740b77fe4b3e60a2b7b18d1f3ede03ec2635e602f87297fd79e600cef018249f",
          "blockNumber": "0x723899",
          "transactionHash": "0xe87895dde357d2ec8ea6fb854ddab910267feb0a7424d3b5b84a89f3216a02b6",
          "transactionIndex": "0x65",
          "logIndex": "0xab",
          "removed": false
        },
        {
          "address": "0xd7bc75898e513accccf720a874d44dab5a4b6223",
          "topics": [
            "0x4afcb4a87cdbd9974efdb92ee48bc8d7cd0ae4bf217004db3d080cbaee652ca7"
          ],
          "data": "0x000000000000000000000000000000000000000000000000000000006785987400000000000000000000000000000000000000000000000000038d7ead610dae000000000000000000000000000000000000000000000000016345785d8a0000",
          "blockHash": "0x740b77fe4b3e60a2b7b18d1f3ede03ec2635e602f87297fd79e600cef018249f",
          "blockNumber": "0x723899",
          "transactionHash": "0xe87895dde357d2ec8ea6fb854ddab910267feb0a7424d3b5b84a89f3216a02b6",
          "transactionIndex": "0x65",
          "logIndex": "0xac",
          "removed": false
        }
      ],
      "logsBloom": "0x00000000000000000000000000000000000000000000000000000000000000000000000000000000000000000000000000000000000000004000000000000000000000000000000000000008000000000000000000000000000000000000000000000000020000000000000000000800020000000000000000000010000000000000000000000000000000000000000000000000000000000000010000000000000000000000000000000000000000004000001000000000000000000000000000000002000000800000000000004000000000000000080000000000000020000000000000000000000000000000000000000000080000000000000000000000",
      "type": "0x2",
      "transactionHash": "0xe87895dde357d2ec8ea6fb854ddab910267feb0a7424d3b5b84a89f3216a02b6",
      "transactionIndex": "0x65",
      "blockHash": "0x740b77fe4b3e60a2b7b18d1f3ede03ec2635e602f87297fd79e600cef018249f",
      "blockNumber": "0x723899",
      "gasUsed": "0x13af8",
      "effectiveGasPrice": "0x231cf97",
      "from": "0xc77f7fed3b5cc8249adc428c5f44c9063b9734b4",
      "to": "0xd7bc75898e513accccf720a874d44dab5a4b6223",
      "contractAddress": null
    },
    {
      "status": "0x1",
      "cumulativeGasUsed": "0xb9ac68",
      "logs": [
        {
          "address": "0xd7bc75898e513accccf720a874d44dab5a4b6223",
          "topics": [
            "0xddf252ad1be2c89b69c2b068fc378daa952ba7f163c4a11628f55a4df523b3ef",
            "0x000000000000000000000000c77f7fed3b5cc8249adc428c5f44c9063b9734b4",
            "0x0000000000000000000000000000000000000000000000000000000000000000"
          ],
          "data": "0x00000000000000000000000000000000000000000000000562117d063f2579a5",
          "blockHash": "0x740b77fe4b3e60a2b7b18d1f3ede03ec2635e602f87297fd79e600cef018249f",
          "blockNumber": "0x723899",
          "transactionHash": "0x1797dd73687de22ff9ba1958415ca1c1ae7bf3479fc6f5ae824f575400820172",
          "transactionIndex": "0x66",
          "logIndex": "0xad",
          "removed": false
        },
        {
          "address": "0xd7bc75898e513accccf720a874d44dab5a4b6223",
          "topics": [
            "0x4afcb4a87cdbd9974efdb92ee48bc8d7cd0ae4bf217004db3d080cbaee652ca7"
          ],
          "data": "0x000000000000000000000000000000000000000000000000000000006785987400000000000000000000000000000000000000000000000000038d7eae9cb8750000000000000000000000000000000000000000000000000160c9191a82ee20",
          "blockHash": "0x740b77fe4b3e60a2b7b18d1f3ede03ec2635e602f87297fd79e600cef018249f",
          "blockNumber": "0x723899",
          "transactionHash": "0x1797dd73687de22ff9ba1958415ca1c1ae7bf3479fc6f5ae824f575400820172",
          "transactionIndex": "0x66",
          "logIndex": "0xae",
          "removed": false
        }
      ],
      "logsBloom": "0x00000000000000000000000000000000000000000000000000000000000000000000000000000000000000000000000000000000000000004000000000000000000000000000000000000008000000000000000000000000000000000000000000000000020000000000000000000800020000000000000000000010000000000000000000000000000000000000000000000000000000000000010000000000000000000000000000000000000000004000001000000000000000000000000000000002000000800000000000004000000000000000080000000000000020000000000000000000000000000000000000000000080000000000000000000000",
      "type": "0x2",
      "transactionHash": "0x1797dd73687de22ff9ba1958415ca1c1ae7bf3479fc6f5ae824f575400820172",
      "transactionIndex": "0x66",
      "blockHash": "0x740b77fe4b3e60a2b7b18d1f3ede03ec2635e602f87297fd79e600cef018249f",
      "blockNumber": "0x723899",
      "gasUsed": "0xfb93",
      "effectiveGasPrice": "0x231cf97",
      "from": "0xc77f7fed3b5cc8249adc428c5f44c9063b9734b4",
      "to": "0xd7bc75898e513accccf720a874d44dab5a4b6223",
      "contractAddress": null
    }
  ],
  "libraries": [],
  "pending": [],
  "returns": {},
  "timestamp": 1736808566,
  "chain": 11155111,
  "commit": "51a374b"
}