{
  "transactions": [
    {
      "hash": "0xc648dea3322494a8697fe03335db7163cb885b56d97b4f39e9fb19511a9b0745",
      "transactionType": "CALL",
      "contractName": null,
      "contractAddress": "0x8aafd3ede9adb0ff97c7aebce82a919afb1c8764",
      "function": "buy(address)",
      "arguments": [
        "0xC77f7fed3b5Cc8249aDc428c5F44C9063B9734b4"
      ],
      "transaction": {
        "from": "0xc77f7fed3b5cc8249adc428c5f44c9063b9734b4",
        "to": "0x8aafd3ede9adb0ff97c7aebce82a919afb1c8764",
        "gas": "0x156ea",
        "value": "0xde0b6b3a7640000",
        "input": "0xf088d547000000000000000000000000c77f7fed3b5cc8249adc428c5f44c9063b9734b4",
        "nonce": "0xef5",
        "chainId": "0xaa36a7"
      },
      "additionalContracts": [],
      "isFixedGasLimit": false
    }
  ],
  "receipts": [
    {
      "status": "0x1",
      "cumulativeGasUsed": "0x183fd28",
      "logs": [
        {
          "address": "0x8aafd3ede9adb0ff97c7aebce82a919afb1c8764",
          "topics": [
            "0xddf252ad1be2c89b69c2b068fc378daa952ba7f163c4a11628f55a4df523b3ef",
            "0x0000000000000000000000000000000000000000000000000000000000000000",
            "0x000000000000000000000000c77f7fed3b5cc8249adc428c5f44c9063b9734b4"
          ],
          "data": "0x00000000000000000000000000000000000000000000002850fe22ccbdd86ae1",
          "blockHash": "0x366b4bab82d1acc50e5b460a9f3b250c08ab3e264d08105285ba59d9c9ea2e06",
          "blockNumber": "0x73146d",
          "transactionHash": "0xc648dea3322494a8697fe03335db7163cb885b56d97b4f39e9fb19511a9b0745",
          "transactionIndex": "0x8c",
          "logIndex": "0x116",
          "removed": false
        },
        {
          "address": "0x8aafd3ede9adb0ff97c7aebce82a919afb1c8764",
          "topics": [
            "0xddf252ad1be2c89b69c2b068fc378daa952ba7f163c4a11628f55a4df523b3ef",
            "0x0000000000000000000000000000000000000000000000000000000000000000",
            "0x000000000000000000000000c77f7fed3b5cc8249adc428c5f44c9063b9734b4"
          ],
          "data": "0x0000000000000000000000000000000000000000000000001f4e9a573c5485ab",
          "blockHash": "0x366b4bab82d1acc50e5b460a9f3b250c08ab3e264d08105285ba59d9c9ea2e06",
          "blockNumber": "0x73146d",
          "transactionHash": "0xc648dea3322494a8697fe03335db7163cb885b56d97b4f39e9fb19511a9b0745",
          "transactionIndex": "0x8c",
          "logIndex": "0x117",
          "removed": false
        },
        {
          "address": "0x8aafd3ede9adb0ff97c7aebce82a919afb1c8764",
          "topics": [
            "0x4afcb4a87cdbd9974efdb92ee48bc8d7cd0ae4bf217004db3d080cbaee652ca7"
          ],
          "data": "0x00000000000000000000000000000000000000000000000000000000678ff1c80000000000000000000000000000000000000000000000000004bad02ed7e4d80000000000000000000000000000000000000000000000000de0b6b3a7640000",
          "blockHash": "0x366b4bab82d1acc50e5b460a9f3b250c08ab3e264d08105285ba59d9c9ea2e06",
          "blockNumber": "0x73146d",
          "transactionHash": "0xc648dea3322494a8697fe03335db7163cb885b56d97b4f39e9fb19511a9b0745",
          "transactionIndex": "0x8c",
          "logIndex": "0x118",
          "removed": false
        }
      ],
      "logsBloom": "0x00000000000000000000000000000000000000000600000000000000000000000000000000000000000000000000000000000000000000004000000000000000000000000000004000000008000000000000000000000000000000000000000000000000020000000000000000000800020000000000000000000010000000000000000000000000000000000000000000000000000000000000010000000000000000000000000000000000000000004000000000000000000000000000000000000002000000800000000000000000000000000000080000000000000020000000000000000000000000000000000000000000000000000000000000000000",
      "type": "0x2",
      "transactionHash": "0xc648dea3322494a8697fe03335db7163cb885b56d97b4f39e9fb19511a9b0745",
      "transactionIndex": "0x8c",
      "blockHash": "0x366b4bab82d1acc50e5b460a9f3b250c08ab3e264d08105285ba59d9c9ea2e06",
      "blockNumber": "0x73146d",
      "gasUsed": "0xf844",
      "effectiveGasPrice": "0x950b0714",
      "from": "0xc77f7fed3b5cc8249adc428c5f44c9063b9734b4",
      "to": "0x8aafd3ede9adb0ff97c7aebce82a919afb1c8764",
      "contractAddress": null
    }
  ],
  "libraries": [],
  "pending": [],
  "returns": {},
  "timestamp": 1737486793,
  "chain": 11155111,
  "commit": "51a374b"
}