{
  "transactions": [
    {
      "hash": "0x585a59e19d6bcc43a9ce3a9cb99a296cae801dc6c28aef110bcb87a212a48b54",
      "transactionType": "CALL",
      "contractName": null,
      "contractAddress": "0x8aafd3ede9adb0ff97c7aebce82a919afb1c8764",
      "function": "sell(uint256)",
      "arguments": [
        "443334"
      ],
      "transaction": {
        "from": "0xc77f7fed3b5cc8249adc428c5f44c9063b9734b4",
        "to": "0x8aafd3ede9adb0ff97c7aebce82a919afb1c8764",
        "gas": "0x16208",
        "value": "0x0",
        "input": "0xe4849b32000000000000000000000000000000000000000000000000000000000006c3c6",
        "nonce": "0x14eb",
        "chainId": "0xaa36a7"
      },
      "additionalContracts": [],
      "isFixedGasLimit": false
    }
  ],
  "receipts": [
    {
      "status": "0x1",
      "cumulativeGasUsed": "0x95ed60",
      "logs": [
        {
          "address": "0x8aafd3ede9adb0ff97c7aebce82a919afb1c8764",
          "topics": [
            "0xddf252ad1be2c89b69c2b068fc378daa952ba7f163c4a11628f55a4df523b3ef",
            "0x000000000000000000000000c77f7fed3b5cc8249adc428c5f44c9063b9734b4",
            "0x0000000000000000000000000000000000000000000000000000000000000000"
          ],
          "data": "0x000000000000000000000000000000000000000000000000000000000006b5ec",
          "blockHash": "0x5d7e200462b4196a69bec869a80cb4678c955ee75d31ee8ad02fba713412b767",
          "blockNumber": "0x731c4b",
          "transactionHash": "0x585a59e19d6bcc43a9ce3a9cb99a296cae801dc6c28aef110bcb87a212a48b54",
          "transactionIndex": "0x59",
          "logIndex": "0x9a",
          "removed": false
        },
        {
          "address": "0x8aafd3ede9adb0ff97c7aebce82a919afb1c8764",
          "topics": [
            "0xddf252ad1be2c89b69c2b068fc378daa952ba7f163c4a11628f55a4df523b3ef",
            "0x000000000000000000000000c77f7fed3b5cc8249adc428c5f44c9063b9734b4",
            "0x000000000000000000000000c77f7fed3b5cc8249adc428c5f44c9063b9734b4"
          ],
          "data": "0x0000000000000000000000000000000000000000000000000000000000000dda",
          "blockHash": "0x5d7e200462b4196a69bec869a80cb4678c955ee75d31ee8ad02fba713412b767",
          "blockNumber": "0x731c4b",
          "transactionHash": "0x585a59e19d6bcc43a9ce3a9cb99a296cae801dc6c28aef110bcb87a212a48b54",
          "transactionIndex": "0x59",
          "logIndex": "0x9b",
          "removed": false
        },
        {
          "address": "0x8aafd3ede9adb0ff97c7aebce82a919afb1c8764",
          "topics": [
            "0x4afcb4a87cdbd9974efdb92ee48bc8d7cd0ae4bf217004db3d080cbaee652ca7"
          ],
          "data": "0x00000000000000000000000000000000000000000000000000000000679050600000000000000000000000000000000000000000000000000010cab353bae6a5000000000000000000000000000000000000000000000000000000000000082f",
          "blockHash": "0x5d7e200462b4196a69bec869a80cb4678c955ee75d31ee8ad02fba713412b767",
          "blockNumber": "0x731c4b",
          "transactionHash": "0x585a59e19d6bcc43a9ce3a9cb99a296cae801dc6c28aef110bcb87a212a48b54",
          "transactionIndex": "0x59",
          "logIndex": "0x9c",
          "removed": false
        }
      ],
      "logsBloom": "0x00000000000000000000000000000000000000000600000000000000000000000000000000000000000000000000000000000000000000004000000000000000000000000000004000000008000000000000000000000000000000000000000000000000020000000000000000000800020000000000000000000010000000000000000000000000000000000000000000000000000000000000010000000000000000000000000000000000000000004000000000000000000000000000000000000002000000800000000000000000000000000000080000000000000020000000000000000000000000000000000000000000000000000000000000000000",
      "type": "0x2",
      "transactionHash": "0x585a59e19d6bcc43a9ce3a9cb99a296cae801dc6c28aef110bcb87a212a48b54",
      "transactionIndex": "0x59",
      "blockHash": "0x5d7e200462b4196a69bec869a80cb4678c955ee75d31ee8ad02fba713412b767",
      "blockNumber": "0x731c4b",
      "gasUsed": "0xf213",
      "effectiveGasPrice": "0x15bac8d7e",
      "from": "0xc77f7fed3b5cc8249adc428c5f44c9063b9734b4",
      "to": "0x8aafd3ede9adb0ff97c7aebce82a919afb1c8764",
      "contractAddress": null
    }
  ],
  "libraries": [],
  "pending": [],
  "returns": {},
  "timestamp": 1737511008,
  "chain": 11155111,
  "commit": "1d2fb70"
}