{
  "transactions": [
    {
      "hash": "0x86751f3399d3fb0d88ebfcee7a8082d0a7600c573f001edbc7c3e41752cf16cf",
      "transactionType": "CALL",
      "contractName": null,
      "contractAddress": "0x8aafd3ede9adb0ff97c7aebce82a919afb1c8764",
      "function": "buy(address)",
      "arguments": [
        "0xC77f7fed3b5Cc8249aDc428c5F44C9063B9734b4"
      ],
      "transaction": {
        "from": "0xc77f7fed3b5cc8249adc428c5f44c9063b9734b4",
        "to": "0x8aafd3ede9adb0ff97c7aebce82a919afb1c8764",
        "gas": "0x156ea",
        "value": "0xde0b6b3a7640000",
        "input": "0xf088d547000000000000000000000000c77f7fed3b5cc8249adc428c5f44c9063b9734b4",
        "nonce": "0x120c",
        "chainId": "0xaa36a7"
      },
      "additionalContracts": [],
      "isFixedGasLimit": false
    }
  ],
  "receipts": [
    {
      "status": "0x1",
      "cumulativeGasUsed": "0x90e16b",
      "logs": [
        {
          "address": "0x8aafd3ede9adb0ff97c7aebce82a919afb1c8764",
          "topics": [
            "0xddf252ad1be2c89b69c2b068fc378daa952ba7f163c4a11628f55a4df523b3ef",
            "0x0000000000000000000000000000000000000000000000000000000000000000",
            "0x000000000000000000000000c77f7fed3b5cc8249adc428c5f44c9063b9734b4"
          ],
          "data": "0x000000000000000000000000000000000000000000000024b3a2cf17be6541fe",
          "blockHash": "0xdfb667a2f60913fec97bc54c7a5b2a71436a557f06cb0b95026f2b053ccce734",
          "blockNumber": "0x7318e7",
          "transactionHash": "0x86751f3399d3fb0d88ebfcee7a8082d0a7600c573f001edbc7c3e41752cf16cf",
          "transactionIndex": "0x74",
          "logIndex": "0xa5",
          "removed": false
        },
        {
          "address": "0x8aafd3ede9adb0ff97c7aebce82a919afb1c8764",
          "topics": [
            "0xddf252ad1be2c89b69c2b068fc378daa952ba7f163c4a11628f55a4df523b3ef",
            "0x0000000000000000000000000000000000000000000000000000000000000000",
            "0x000000000000000000000000c77f7fed3b5cc8249adc428c5f44c9063b9734b4"
          ],
          "data": "0x0000000000000000000000000000000000000000000000001c80082520d3b5f6",
          "blockHash": "0xdfb667a2f60913fec97bc54c7a5b2a71436a557f06cb0b95026f2b053ccce734",
          "blockNumber": "0x7318e7",
          "transactionHash": "0x86751f3399d3fb0d88ebfcee7a8082d0a7600c573f001edbc7c3e41752cf16cf",
          "transactionIndex": "0x74",
          "logIndex": "0xa6",
          "removed": false
        },
        {
          "address": "0x8aafd3ede9adb0ff97c7aebce82a919afb1c8764",
          "topics": [
            "0x4afcb4a87cdbd9974efdb92ee48bc8d7cd0ae4bf217004db3d080cbaee652ca7"
          ],
          "data": "0x00000000000000000000000000000000000000000000000000000000679027a4000000000000000000000000000000000000000000000000000532579245abe00000000000000000000000000000000000000000000000000de0b6b3a7640000",
          "blockHash": "0xdfb667a2f60913fec97bc54c7a5b2a71436a557f06cb0b95026f2b053ccce734",
          "blockNumber": "0x7318e7",
          "transactionHash": "0x86751f3399d3fb0d88ebfcee7a8082d0a7600c573f001edbc7c3e41752cf16cf",
          "transactionIndex": "0x74",
          "logIndex": "0xa7",
          "removed": false
        }
      ],
      "logsBloom": "0x00000000000000000000000000000000000000000600000000000000000000000000000000000000000000000000000000000000000000004000000000000000000000000000004000000008000000000000000000000000000000000000000000000000020000000000000000000800020000000000000000000010000000000000000000000000000000000000000000000000000000000000010000000000000000000000000000000000000000004000000000000000000000000000000000000002000000800000000000000000000000000000080000000000000020000000000000000000000000000000000000000000000000000000000000000000",
      "type": "0x2",
      "transactionHash": "0x86751f3399d3fb0d88ebfcee7a8082d0a7600c573f001edbc7c3e41752cf16cf",
      "transactionIndex": "0x74",
      "blockHash": "0xdfb667a2f60913fec97bc54c7a5b2a71436a557f06cb0b95026f2b053ccce734",
      "blockNumber": "0x7318e7",
      "gasUsed": "0xf844",
      "effectiveGasPrice": "0x45dda05a",
      "from": "0xc77f7fed3b5cc8249adc428c5f44c9063b9734b4",
      "to": "0x8aafd3ede9adb0ff97c7aebce82a919afb1c8764",
      "contractAddress": null
    }
  ],
  "libraries": [],
  "pending": [],
  "returns": {},
  "timestamp": 1737500581,
  "chain": 11155111,
  "commit": "1d2fb70"
}