{
  "transactions": [
    {
      "hash": "0xf7cc3dd3f68eb3158171047860bcfaeba23dbdfcbcde0a6320e84fcf4c3a6706",
      "transactionType": "CALL",
      "contractName": null,
      "contractAddress": "0x270e88f8683660553e8ba4eb2ad7c91a1710d769",
      "function": "buy(address)",
      "arguments": [
        "0xC77f7fed3b5Cc8249aDc428c5F44C9063B9734b4"
      ],
      "transaction": {
        "from": "0xc77f7fed3b5cc8249adc428c5f44c9063b9734b4",
        "to": "0x270e88f8683660553e8ba4eb2ad7c91a1710d769",
        "gas": "0x1b30c",
        "value": "0xde0b6b3a7640000",
        "input": "0xf088d547000000000000000000000000c77f7fed3b5cc8249adc428c5f44c9063b9734b4",
        "nonce": "0x4ea",
        "chainId": "0xaa36a7"
      },
      "additionalContracts": [],
      "isFixedGasLimit": false
    }
  ],
  "receipts": [
    {
      "status": "0x1",
      "cumulativeGasUsed": "0x7cb24c",
      "logs": [
        {
          "address": "0x270e88f8683660553e8ba4eb2ad7c91a1710d769",
          "topics": [
            "0xddf252ad1be2c89b69c2b068fc378daa952ba7f163c4a11628f55a4df523b3ef",
            "0x0000000000000000000000000000000000000000000000000000000000000000",
            "0x000000000000000000000000c77f7fed3b5cc8249adc428c5f44c9063b9734b4"
          ],
          "data": "0x0000000000000000000000000000000000000000000000357a8bf244699cbde4",
          "blockHash": "0xd8004cd0b317ff512e2ed1cb5b31d12fada00cea077fd86f3eac9a831a6d5f32",
          "blockNumber": "0x725179",
          "transactionHash": "0xf7cc3dd3f68eb3158171047860bcfaeba23dbdfcbcde0a6320e84fcf4c3a6706",
          "transactionIndex": "0x5d",
          "logIndex": "0x8a",
          "removed": false
        },
        {
          "address": "0x270e88f8683660553e8ba4eb2ad7c91a1710d769",
          "topics": [
            "0xddf252ad1be2c89b69c2b068fc378daa952ba7f163c4a11628f55a4df523b3ef",
            "0x0000000000000000000000000000000000000000000000000000000000000000",
            "0x000000000000000000000000c77f7fed3b5cc8249adc428c5f44c9063b9734b4"
          ],
          "data": "0x00000000000000000000000000000000000000000000000029872d2d096dd9ab",
          "blockHash": "0xd8004cd0b317ff512e2ed1cb5b31d12fada00cea077fd86f3eac9a831a6d5f32",
          "blockNumber": "0x725179",
          "transactionHash": "0xf7cc3dd3f68eb3158171047860bcfaeba23dbdfcbcde0a6320e84fcf4c3a6706",
          "transactionIndex": "0x5d",
          "logIndex": "0x8b",
          "removed": false
        },
        {
          "address": "0x270e88f8683660553e8ba4eb2ad7c91a1710d769",
          "topics": [
            "0x4afcb4a87cdbd9974efdb92ee48bc8d7cd0ae4bf217004db3d080cbaee652ca7"
          ],
          "data": "0x000000000000000000000000000000000000000000000000000000006786c390000000000000000000000000000000000000000000000000000390d18dce00210000000000000000000000000000000000000000000000000de0b6b3a7640000",
          "blockHash": "0xd8004cd0b317ff512e2ed1cb5b31d12fada00cea077fd86f3eac9a831a6d5f32",
          "blockNumber": "0x725179",
          "transactionHash": "0xf7cc3dd3f68eb3158171047860bcfaeba23dbdfcbcde0a6320e84fcf4c3a6706",
          "transactionIndex": "0x5d",
          "logIndex": "0x8c",
          "removed": false
        }
      ],
      "logsBloom": "0x00000000000000000000000000000000000000000000000000000000000000000000000000000000000000000000000020000000000000004000000000000000000000000000000000000008000000000000000000000000000000000000000000000000020000000000000000000800020000000000000000000010000000000000000000010000000000000000000000000000000000000000010000000000000000000000000000000000000000004000000000000000000000000000000000000002000000800000000000000000000000000000080000008000000020000000000000000000000000000000000000000000000000000000000000000000",
      "type": "0x2",
      "transactionHash": "0xf7cc3dd3f68eb3158171047860bcfaeba23dbdfcbcde0a6320e84fcf4c3a6706",
      "transactionIndex": "0x5d",
      "blockHash": "0xd8004cd0b317ff512e2ed1cb5b31d12fada00cea077fd86f3eac9a831a6d5f32",
      "blockNumber": "0x725179",
      "gasUsed": "0x13af8",
      "effectiveGasPrice": "0x4699c0413",
      "from": "0xc77f7fed3b5cc8249adc428c5f44c9063b9734b4",
      "to": "0x270e88f8683660553e8ba4eb2ad7c91a1710d769",
      "contractAddress": null
    }
  ],
  "libraries": [],
  "pending": [],
  "returns": {},
  "timestamp": 1736885138,
  "chain": 11155111,
  "commit": "51a374b"
}