{
  "transactions": [
    {
      "hash": "0x84338fca8ebc2a4f3d12f973f22bc2d3a18ab470633f74f0402250ed4f2752dd",
      "transactionType": "CALL",
      "contractName": null,
      "contractAddress": "0xbf4a322f1496e5c3d34a9bcdb4c60567b38c7de2",
      "function": "buy(address)",
      "arguments": [
        "0xC77f7fed3b5Cc8249aDc428c5F44C9063B9734b4"
      ],
      "transaction": {
        "from": "0xc77f7fed3b5cc8249adc428c5f44c9063b9734b4",
        "to": "0xbf4a322f1496e5c3d34a9bcdb4c60567b38c7de2",
        "gas": "0x1b309",
        "value": "0xde0b6b3a7640000",
        "input": "0xf088d547000000000000000000000000c77f7fed3b5cc8249adc428c5f44c9063b9734b4",
        "nonce": "0x95c",
        "chainId": "0xaa36a7"
      },
      "additionalContracts": [],
      "isFixedGasLimit": false
    }
  ],
  "receipts": [
    {
      "status": "0x1",
      "cumulativeGasUsed": "0x181821f",
      "logs": [
        {
          "address": "0xbf4a322f1496e5c3d34a9bcdb4c60567b38c7de2",
          "topics": [
            "0xddf252ad1be2c89b69c2b068fc378daa952ba7f163c4a11628f55a4df523b3ef",
            "0x0000000000000000000000000000000000000000000000000000000000000000",
            "0x000000000000000000000000c77f7fed3b5cc8249adc428c5f44c9063b9734b4"
          ],
          "data": "0x0000000000000000000000000000000000000000000000357a330167957ed9a2",
          "blockHash": "0x6c8881f5a37617bf78e36c00900a72cd5c3c1c048f353b16436b142775ba97e0",
          "blockNumber": "0x7258f1",
          "transactionHash": "0x84338fca8ebc2a4f3d12f973f22bc2d3a18ab470633f74f0402250ed4f2752dd",
          "transactionIndex": "0x97",
          "logIndex": "0xf9",
          "removed": false
        },
        {
          "address": "0xbf4a322f1496e5c3d34a9bcdb4c60567b38c7de2",
          "topics": [
            "0xddf252ad1be2c89b69c2b068fc378daa952ba7f163c4a11628f55a4df523b3ef",
            "0x0000000000000000000000000000000000000000000000000000000000000000",
            "0x000000000000000000000000c77f7fed3b5cc8249adc428c5f44c9063b9734b4"
          ],
          "data": "0x0000000000000000000000000000000000000000000000002986e81c3d05ebe5",
          "blockHash": "0x6c8881f5a37617bf78e36c00900a72cd5c3c1c048f353b16436b142775ba97e0",
          "blockNumber": "0x7258f1",
          "transactionHash": "0x84338fca8ebc2a4f3d12f973f22bc2d3a18ab470633f74f0402250ed4f2752dd",
          "transactionIndex": "0x97",
          "logIndex": "0xfa",
          "removed": false
        },
        {
          "address": "0xbf4a322f1496e5c3d34a9bcdb4c60567b38c7de2",
          "topics": [
            "0x4afcb4a87cdbd9974efdb92ee48bc8d7cd0ae4bf217004db3d080cbaee652ca7"
          ],
          "data": "0x0000000000000000000000000000000000000000000000000000000067871d78000000000000000000000000000000000000000000000000000390bf19b365820000000000000000000000000000000000000000000000000de0b6b3a7640000",
          "blockHash": "0x6c8881f5a37617bf78e36c00900a72cd5c3c1c048f353b16436b142775ba97e0",
          "blockNumber": "0x7258f1",
          "transactionHash": "0x84338fca8ebc2a4f3d12f973f22bc2d3a18ab470633f74f0402250ed4f2752dd",
          "transactionIndex": "0x97",
          "logIndex": "0xfb",
          "removed": false
        }
      ],
      "logsBloom": "0x00000000000000000000000000000000000000000000000000000000000000000000000000000000000000000000000000000000000000004000000000000000000000000000000000000008000000000000001000000000000000000000000000000000020000000000000000000800020000000000000000000010000000000000000000000000000000000000000000000000000008000000010000000000000000000000000000000000000000004000000000000000000000000000000000000002000000800000000000001000000000000000080000000000000020000000000000000000000000000000000000000000000000000000000000000000",
      "type": "0x2",
      "transactionHash": "0x84338fca8ebc2a4f3d12f973f22bc2d3a18ab470633f74f0402250ed4f2752dd",
      "transactionIndex": "0x97",
      "blockHash": "0x6c8881f5a37617bf78e36c00900a72cd5c3c1c048f353b16436b142775ba97e0",
      "blockNumber": "0x7258f1",
      "gasUsed": "0x13af6",
      "effectiveGasPrice": "0x83e61ebc",
      "from": "0xc77f7fed3b5cc8249adc428c5f44c9063b9734b4",
      "to": "0xbf4a322f1496e5c3d34a9bcdb4c60567b38c7de2",
      "contractAddress": null
    }
  ],
  "libraries": [],
  "pending": [],
  "returns": {},
  "timestamp": 1736908154,
  "chain": 11155111,
  "commit": "51a374b"
}