{
  "transactions": [
    {
      "hash": "0x3c5c03f9358deb9a86e9a42ccd5caa416daa153c8ad9d5d41bd94b204b021e79",
      "transactionType": "CALL",
      "contractName": null,
      "contractAddress": "0x8aafd3ede9adb0ff97c7aebce82a919afb1c8764",
      "function": "sell(uint256)",
      "arguments": [
        "194453959"
      ],
      "transaction": {
        "from": "0xc77f7fed3b5cc8249adc428c5f44c9063b9734b4",
        "to": "0x8aafd3ede9adb0ff97c7aebce82a919afb1c8764",
        "gas": "0x14e6c",
        "value": "0x0",
        "input": "0xe4849b32000000000000000000000000000000000000000000000000000000000b9721c7",
        "nonce": "0xf77",
        "chainId": "0xaa36a7"
      },
      "additionalContracts": [],
      "isFixedGasLimit": false
    }
  ],
  "receipts": [
    {
      "status": "0x1",
      "cumulativeGasUsed": "0x10511dc",
      "logs": [
        {
          "address": "0x8aafd3ede9adb0ff97c7aebce82a919afb1c8764",
          "topics": [
            "0xddf252ad1be2c89b69c2b068fc378daa952ba7f163c4a11628f55a4df523b3ef",
            "0x000000000000000000000000c77f7fed3b5cc8249adc428c5f44c9063b9734b4",
            "0x0000000000000000000000000000000000000000000000000000000000000000"
          ],
          "data": "0x000000000000000000000000000000000000000000000000000000000b7f6518",
          "blockHash": "0x3286015bd6596b71dfd6bba12ecd81be77fe79974f898527f30acded5db0e30f",
          "blockNumber": "0x7315d8",
          "transactionHash": "0x3c5c03f9358deb9a86e9a42ccd5caa416daa153c8ad9d5d41bd94b204b021e79",
          "transactionIndex": "0x8a",
          "logIndex": "0x11b",
          "removed": false
        },
        {
          "address": "0x8aafd3ede9adb0ff97c7aebce82a919afb1c8764",
          "topics": [
            "0xddf252ad1be2c89b69c2b068fc378daa952ba7f163c4a11628f55a4df523b3ef",
            "0x000000000000000000000000c77f7fed3b5cc8249adc428c5f44c9063b9734b4",
            "0x000000000000000000000000c77f7fed3b5cc8249adc428c5f44c9063b9734b4"
          ],
          "data": "0x000000000000000000000000000000000000000000000000000000000017bcaf",
          "blockHash": "0x3286015bd6596b71dfd6bba12ecd81be77fe79974f898527f30acded5db0e30f",
          "blockNumber": "0x7315d8",
          "transactionHash": "0x3c5c03f9358deb9a86e9a42ccd5caa416daa153c8ad9d5d41bd94b204b021e79",
          "transactionIndex": "0x8a",
          "logIndex": "0x11c",
          "removed": false
        },
        {
          "address": "0x8aafd3ede9adb0ff97c7aebce82a919afb1c8764",
          "topics": [
            "0x4afcb4a87cdbd9974efdb92ee48bc8d7cd0ae4bf217004db3d080cbaee652ca7"
          ],
          "data": "0x00000000000000000000000000000000000000000000000000000000679002cc0000000000000000000000000000000000000000000000000004c1d776082764000000000000000000000000000000000000000000000000000000000003f91b",
          "blockHash": "0x3286015bd6596b71dfd6bba12ecd81be77fe79974f898527f30acded5db0e30f",
          "blockNumber": "0x7315d8",
          "transactionHash": "0x3c5c03f9358deb9a86e9a42ccd5caa416daa153c8ad9d5d41bd94b204b021e79",
          "transactionIndex": "0x8a",
          "logIndex": "0x11d",
          "removed": false
        }
      ],
      "logsBloom": "0x00000000000000000000000000000000000000000600000000000000000000000000000000000000000000000000000000000000000000004000000000000000000000000000004000000008000000000000000000000000000000000000000000000000020000000000000000000800020000000000000000000010000000000000000000000000000000000000000000000000000000000000010000000000000000000000000000000000000000004000000000000000000000000000000000000002000000800000000000000000000000000000080000000000000020000000000000000000000000000000000000000000000000000000000000000000",
      "type": "0x2",
      "transactionHash": "0x3c5c03f9358deb9a86e9a42ccd5caa416daa153c8ad9d5d41bd94b204b021e79",
      "transactionIndex": "0x8a",
      "blockHash": "0x3286015bd6596b71dfd6bba12ecd81be77fe79974f898527f30acded5db0e30f",
      "blockNumber": "0x7315d8",
      "gasUsed": "0xf21f",
      "effectiveGasPrice": "0x73590e79",
      "from": "0xc77f7fed3b5cc8249adc428c5f44c9063b9734b4",
      "to": "0x8aafd3ede9adb0ff97c7aebce82a919afb1c8764",
      "contractAddress": null
    }
  ],
  "libraries": [],
  "pending": [],
  "returns": {},
  "timestamp": 1737491149,
  "chain": 11155111,
  "commit": "1d2fb70"
}