{
  "transactions": [
    {
      "hash": "0xbf54e4180c4bd89339420714312d2f0a6d464d9e73989823fe34457f8310a729",
      "transactionType": "CALL",
      "contractName": null,
      "contractAddress": "0x8aafd3ede9adb0ff97c7aebce82a919afb1c8764",
      "function": "sell(uint256)",
      "arguments": [
        "47725168960877762"
      ],
      "transaction": {
        "from": "0xc77f7fed3b5cc8249adc428c5f44c9063b9734b4",
        "to": "0x8aafd3ede9adb0ff97c7aebce82a919afb1c8764",
        "gas": "0x1724d",
        "value": "0x0",
        "input": "0xe4849b3200000000000000000000000000000000000000000000000000a98dc9cec234c2",
        "nonce": "0xf02",
        "chainId": "0xaa36a7"
      },
      "additionalContracts": [],
      "isFixedGasLimit": false
    }
  ],
  "receipts": [
    {
      "status": "0x1",
      "cumulativeGasUsed": "0xde4697",
      "logs": [
        {
          "address": "0x8aafd3ede9adb0ff97c7aebce82a919afb1c8764",
          "topics": [
            "0xddf252ad1be2c89b69c2b068fc378daa952ba7f163c4a11628f55a4df523b3ef",
            "0x000000000000000000000000c77f7fed3b5cc8249adc428c5f44c9063b9734b4",
            "0x0000000000000000000000000000000000000000000000000000000000000000"
          ],
          "data": "0x00000000000000000000000000000000000000000000000000a8328ac0d10954",
          "blockHash": "0x4d995987494defed29b2f4900242e7943a279ca38cec45132b17d388de556f31",
          "blockNumber": "0x73147a",
          "transactionHash": "0xbf54e4180c4bd89339420714312d2f0a6d464d9e73989823fe34457f8310a729",
          "transactionIndex": "0x87",
          "logIndex": "0x113",
          "removed": false
        },
        {
          "address": "0x8aafd3ede9adb0ff97c7aebce82a919afb1c8764",
          "topics": [
            "0xddf252ad1be2c89b69c2b068fc378daa952ba7f163c4a11628f55a4df523b3ef",
            "0x000000000000000000000000c77f7fed3b5cc8249adc428c5f44c9063b9734b4",
            "0x000000000000000000000000c77f7fed3b5cc8249adc428c5f44c9063b9734b4"
          ],
          "data": "0x00000000000000000000000000000000000000000000000000015b3f0df12b6e",
          "blockHash": "0x4d995987494defed29b2f4900242e7943a279ca38cec45132b17d388de556f31",
          "blockNumber": "0x73147a",
          "transactionHash": "0xbf54e4180c4bd89339420714312d2f0a6d464d9e73989823fe34457f8310a729",
          "transactionIndex": "0x87",
          "logIndex": "0x114",
          "removed": false
        },
        {
          "address": "0x8aafd3ede9adb0ff97c7aebce82a919afb1c8764",
          "topics": [
            "0x4afcb4a87cdbd9974efdb92ee48bc8d7cd0ae4bf217004db3d080cbaee652ca7"
          ],
          "data": "0x00000000000000000000000000000000000000000000000000000000678ff2640000000000000000000000000000000000000000000000000004bb8653ea6356000000000000000000000000000000000000000000000000000039d1fa00588a",
          "blockHash": "0x4d995987494defed29b2f4900242e7943a279ca38cec45132b17d388de556f31",
          "blockNumber": "0x73147a",
          "transactionHash": "0xbf54e4180c4bd89339420714312d2f0a6d464d9e73989823fe34457f8310a729",
          "transactionIndex": "0x87",
          "logIndex": "0x115",
          "removed": false
        }
      ],
      "logsBloom": "0x00000000000000000000000000000000000000000600000000000000000000000000000000000000000000000000000000000000000000004000000000000000000000000000004000000008000000000000000000000000000000000000000000000000020000000000000000000800020000000000000000000010000000000000000000000000000000000000000000000000000000000000010000000000000000000000000000000000000000004000000000000000000000000000000000000002000000800000000000000000000000000000080000000000000020000000000000000000000000000000000000000000000000000000000000000000",
      "type": "0x2",
      "transactionHash": "0xbf54e4180c4bd89339420714312d2f0a6d464d9e73989823fe34457f8310a729",
      "transactionIndex": "0x87",
      "blockHash": "0x4d995987494defed29b2f4900242e7943a279ca38cec45132b17d388de556f31",
      "blockNumber": "0x73147a",
      "gasUsed": "0xfd33",
      "effectiveGasPrice": "0x912b9dff",
      "from": "0xc77f7fed3b5cc8249adc428c5f44c9063b9734b4",
      "to": "0x8aafd3ede9adb0ff97c7aebce82a919afb1c8764",
      "contractAddress": null
    }
  ],
  "libraries": [],
  "pending": [],
  "returns": {},
  "timestamp": 1737486949,
  "chain": 11155111,
  "commit": "51a374b"
}