{
  "transactions": [
    {
      "hash": "0x0d8093201a2485ff32f12554d345dcc518253699c15c5565aacd45531f188622",
      "transactionType": "CALL",
      "contractName": null,
      "contractAddress": "0x8aafd3ede9adb0ff97c7aebce82a919afb1c8764",
      "function": "sell(uint256)",
      "arguments": [
        "2736658937330"
      ],
      "transaction": {
        "from": "0xc77f7fed3b5cc8249adc428c5f44c9063b9734b4",
        "to": "0x8aafd3ede9adb0ff97c7aebce82a919afb1c8764",
        "gas": "0x15daa",
        "value": "0x0",
        "input": "0xe4849b320000000000000000000000000000000000000000000000000000027d2d9575f2",
        "nonce": "0x12a7",
        "chainId": "0xaa36a7"
      },
      "additionalContracts": [],
      "isFixedGasLimit": false
    }
  ],
  "receipts": [
    {
      "status": "0x1",
      "cumulativeGasUsed": "0xad5fca",
      "logs": [
        {
          "address": "0x8aafd3ede9adb0ff97c7aebce82a919afb1c8764",
          "topics": [
            "0xddf252ad1be2c89b69c2b068fc378daa952ba7f163c4a11628f55a4df523b3ef",
            "0x000000000000000000000000c77f7fed3b5cc8249adc428c5f44c9063b9734b4",
            "0x0000000000000000000000000000000000000000000000000000000000000000"
          ],
          "data": "0x0000000000000000000000000000000000000000000000000000027814a4a628",
          "blockHash": "0x71d8d9f3143681dcd580078483d0b576167227819ee182c7de615d7a0a90917b",
          "blockNumber": "0x73199d",
          "transactionHash": "0x0d8093201a2485ff32f12554d345dcc518253699c15c5565aacd45531f188622",
          "transactionIndex": "0x82",
          "logIndex": "0x9a",
          "removed": false
        },
        {
          "address": "0x8aafd3ede9adb0ff97c7aebce82a919afb1c8764",
          "topics": [
            "0xddf252ad1be2c89b69c2b068fc378daa952ba7f163c4a11628f55a4df523b3ef",
            "0x000000000000000000000000c77f7fed3b5cc8249adc428c5f44c9063b9734b4",
            "0x000000000000000000000000c77f7fed3b5cc8249adc428c5f44c9063b9734b4"
          ],
          "data": "0x0000000000000000000000000000000000000000000000000000000518f0cfca",
          "blockHash": "0x71d8d9f3143681dcd580078483d0b576167227819ee182c7de615d7a0a90917b",
          "blockNumber": "0x73199d",
          "transactionHash": "0x0d8093201a2485ff32f12554d345dcc518253699c15c5565aacd45531f188622",
          "transactionIndex": "0x82",
          "logIndex": "0x9b",
          "removed": false
        },
        {
          "address": "0x8aafd3ede9adb0ff97c7aebce82a919afb1c8764",
          "topics": [
            "0x4afcb4a87cdbd9974efdb92ee48bc8d7cd0ae4bf217004db3d080cbaee652ca7"
          ],
          "data": "0x000000000000000000000000000000000000000000000000000000006790302c0000000000000000000000000000000000000000000000000005492efc5b064900000000000000000000000000000000000000000000000000000000f2b16ab8",
          "blockHash": "0x71d8d9f3143681dcd580078483d0b576167227819ee182c7de615d7a0a90917b",
          "blockNumber": "0x73199d",
          "transactionHash": "0x0d8093201a2485ff32f12554d345dcc518253699c15c5565aacd45531f188622",
          "transactionIndex": "0x82",
          "logIndex": "0x9c",
          "removed": false
        }
      ],
      "logsBloom": "0x00000000000000000000000000000000000000000600000000000000000000000000000000000000000000000000000000000000000000004000000000000000000000000000004000000008000000000000000000000000000000000000000000000000020000000000000000000800020000000000000000000010000000000000000000000000000000000000000000000000000000000000010000000000000000000000000000000000000000004000000000000000000000000000000000000002000000800000000000000000000000000000080000000000000020000000000000000000000000000000000000000000000000000000000000000000",
      "type": "0x2",
      "transactionHash": "0x0d8093201a2485ff32f12554d345dcc518253699c15c5565aacd45531f188622",
      "transactionIndex": "0x82",
      "blockHash": "0x71d8d9f3143681dcd580078483d0b576167227819ee182c7de615d7a0a90917b",
      "blockNumber": "0x73199d",
      "gasUsed": "0xfd27",
      "effectiveGasPrice": "0x4a456672",
      "from": "0xc77f7fed3b5cc8249adc428c5f44c9063b9734b4",
      "to": "0x8aafd3ede9adb0ff97c7aebce82a919afb1c8764",
      "contractAddress": null
    }
  ],
  "libraries": [],
  "pending": [],
  "returns": {},
  "timestamp": 1737502765,
  "chain": 11155111,
  "commit": "1d2fb70"
}