{
  "transactions": [
    {
      "hash": "0x401537437df326376c04e3f1f93bc8024083d0200cef725913f66cb948068df6",
      "transactionType": "CALL",
      "contractName": null,
      "contractAddress": "0x8aafd3ede9adb0ff97c7aebce82a919afb1c8764",
      "function": "sell(uint256)",
      "arguments": [
        "9881145110725474"
      ],
      "transaction": {
        "from": "0xc77f7fed3b5cc8249adc428c5f44c9063b9734b4",
        "to": "0x8aafd3ede9adb0ff97c7aebce82a919afb1c8764",
        "gas": "0x1724d",
        "value": "0x0",
        "input": "0xe4849b3200000000000000000000000000000000000000000000000000231ad9604c8362",
        "nonce": "0x16f9",
        "chainId": "0xaa36a7"
      },
      "additionalContracts": [],
      "isFixedGasLimit": false
    }
  ],
  "receipts": [
    {
      "status": "0x1",
      "cumulativeGasUsed": "0x6cedc8",
      "logs": [
        {
          "address": "0x8aafd3ede9adb0ff97c7aebce82a919afb1c8764",
          "topics": [
            "0xddf252ad1be2c89b69c2b068fc378daa952ba7f163c4a11628f55a4df523b3ef",
            "0x000000000000000000000000c77f7fed3b5cc8249adc428c5f44c9063b9734b4",
            "0x0000000000000000000000000000000000000000000000000000000000000000"
          ],
          "data": "0x0000000000000000000000000000000000000000000000000022d2f44f24fd37",
          "blockHash": "0x66e0744e68e56c7f6524a96b2d2d85f8aaccb8caeb79eb41d8ffb8a43d2c9a61",
          "blockNumber": "0x731ebd",
          "transactionHash": "0x401537437df326376c04e3f1f93bc8024083d0200cef725913f66cb948068df6",
          "transactionIndex": "0x56",
          "logIndex": "0x73",
          "removed": false
        },
        {
          "address": "0x8aafd3ede9adb0ff97c7aebce82a919afb1c8764",
          "topics": [
            "0xddf252ad1be2c89b69c2b068fc378daa952ba7f163c4a11628f55a4df523b3ef",
            "0x000000000000000000000000c77f7fed3b5cc8249adc428c5f44c9063b9734b4",
            "0x000000000000000000000000c77f7fed3b5cc8249adc428c5f44c9063b9734b4"
          ],
          "data": "0x000000000000000000000000000000000000000000000000000047e51127862b",
          "blockHash": "0x66e0744e68e56c7f6524a96b2d2d85f8aaccb8caeb79eb41d8ffb8a43d2c9a61",
          "blockNumber": "0x731ebd",
          "transactionHash": "0x401537437df326376c04e3f1f93bc8024083d0200cef725913f66cb948068df6",
          "transactionIndex": "0x56",
          "logIndex": "0x74",
          "removed": false
        },
        {
          "address": "0x8aafd3ede9adb0ff97c7aebce82a919afb1c8764",
          "topics": [
            "0x4afcb4a87cdbd9974efdb92ee48bc8d7cd0ae4bf217004db3d080cbaee652ca7"
          ],
          "data": "0x0000000000000000000000000000000000000000000000000000000067906dc40000000000000000000000000000000000000000000000000016f47c9efba37000000000000000000000000000000000000000000000000000003a10fffed036",
          "blockHash": "0x66e0744e68e56c7f6524a96b2d2d85f8aaccb8caeb79eb41d8ffb8a43d2c9a61",
          "blockNumber": "0x731ebd",
          "transactionHash": "0x401537437df326376c04e3f1f93bc8024083d0200cef725913f66cb948068df6",
          "transactionIndex": "0x56",
          "logIndex": "0x75",
          "removed": false
        }
      ],
      "logsBloom": "0x00000000000000000000000000000000000000000600000000000000000000000000000000000000000000000000000000000000000000004000000000000000000000000000004000000008000000000000000000000000000000000000000000000000020000000000000000000800020000000000000000000010000000000000000000000000000000000000000000000000000000000000010000000000000000000000000000000000000000004000000000000000000000000000000000000002000000800000000000000000000000000000080000000000000020000000000000000000000000000000000000000000000000000000000000000000",
      "type": "0x2",
      "transactionHash": "0x401537437df326376c04e3f1f93bc8024083d0200cef725913f66cb948068df6",
      "transactionIndex": "0x56",
      "blockHash": "0x66e0744e68e56c7f6524a96b2d2d85f8aaccb8caeb79eb41d8ffb8a43d2c9a61",
      "blockNumber": "0x731ebd",
      "gasUsed": "0xfd33",
      "effectiveGasPrice": "0x4a6241e2",
      "from": "0xc77f7fed3b5cc8249adc428c5f44c9063b9734b4",
      "to": "0x8aafd3ede9adb0ff97c7aebce82a919afb1c8764",
      "contractAddress": null
    }
  ],
  "libraries": [],
  "pending": [],
  "returns": {},
  "timestamp": 1737518533,
  "chain": 11155111,
  "commit": "1d2fb70"
}