{
  "transactions": [
    {
      "hash": "0xfe008f194c85de292342fc5fe17c18719042916062615d29e296d1ac4569c67c",
      "transactionType": "CALL",
      "contractName": null,
      "contractAddress": "0xbf4a322f1496e5c3d34a9bcdb4c60567b38c7de2",
      "function": "sell(uint256)",
      "arguments": [
        "975069804266375801815"
      ],
      "transaction": {
        "from": "0xc77f7fed3b5cc8249adc428c5f44c9063b9734b4",
        "to": "0xbf4a322f1496e5c3d34a9bcdb4c60567b38c7de2",
        "gas": "0x16fea",
        "value": "0x0",
        "input": "0xe4849b32000000000000000000000000000000000000000000000034dbcfd4d6cafeebd7",
        "nonce": "0xd89",
        "chainId": "0xaa36a7"
      },
      "additionalContracts": [],
      "isFixedGasLimit": false
    }
  ],
  "receipts": [
    {
      "status": "0x1",
      "cumulativeGasUsed": "0xcc2116",
      "logs": [
        {
          "address": "0xbf4a322f1496e5c3d34a9bcdb4c60567b38c7de2",
          "topics": [
            "0xddf252ad1be2c89b69c2b068fc378daa952ba7f163c4a11628f55a4df523b3ef",
            "0x000000000000000000000000c77f7fed3b5cc8249adc428c5f44c9063b9734b4",
            "0x0000000000000000000000000000000000000000000000000000000000000000"
          ],
          "data": "0x000000000000000000000000000000000000000000000034dbcfd4d6cafeebd7",
          "blockHash": "0x3949b2774347d90f3fbc5743760916de34ce5f32df8c3f5459910512b8de8c51",
          "blockNumber": "0x72665b",
          "transactionHash": "0xfe008f194c85de292342fc5fe17c18719042916062615d29e296d1ac4569c67c",
          "transactionIndex": "0x6b",
          "logIndex": "0xa2",
          "removed": false
        },
        {
          "address": "0xbf4a322f1496e5c3d34a9bcdb4c60567b38c7de2",
          "topics": [
            "0x4afcb4a87cdbd9974efdb92ee48bc8d7cd0ae4bf217004db3d080cbaee652ca7"
          ],
          "data": "0x000000000000000000000000000000000000000000000000000000006787bef400000000000000000000000000000000000000000000000000039e3f42e224590000000000000000000000000000000000000000000000000dc7e3d69a76f20a",
          "blockHash": "0x3949b2774347d90f3fbc5743760916de34ce5f32df8c3f5459910512b8de8c51",
          "blockNumber": "0x72665b",
          "transactionHash": "0xfe008f194c85de292342fc5fe17c18719042916062615d29e296d1ac4569c67c",
          "transactionIndex": "0x6b",
          "logIndex": "0xa3",
          "removed": false
        }
      ],
      "logsBloom": "0x00000000000000000000000000000000000000000000000000000000000000000000000000000000000000000000000000000000000000004000000000000000000000000000000000000008000000000000001000000000000000000000000000000000020000000000000000000800020000000000000000000010000000000000000000000000000000000000000000000000000008000000010000000000000000000000000000000000000000004000000000000000000000000000000000000002000000800000000000001000000000000000080000000000000020000000000000000000000000000000000000000000000000000000000000000000",
      "type": "0x2",
      "transactionHash": "0xfe008f194c85de292342fc5fe17c18719042916062615d29e296d1ac4569c67c",
      "transactionIndex": "0x6b",
      "blockHash": "0x3949b2774347d90f3fbc5743760916de34ce5f32df8c3f5459910512b8de8c51",
      "blockNumber": "0x72665b",
      "gasUsed": "0xfb91",
      "effectiveGasPrice": "0x8f6e81f2",
      "from": "0xc77f7fed3b5cc8249adc428c5f44c9063b9734b4",
      "to": "0xbf4a322f1496e5c3d34a9bcdb4c60567b38c7de2",
      "contractAddress": null
    }
  ],
  "libraries": [],
  "pending": [],
  "returns": {},
  "timestamp": 1736949493,
  "chain": 11155111,
  "commit": "51a374b"
}