{
  "transactions": [
    {
      "hash": "0xeaf881db904852c490d2e346c2885a0516cd29b7c60b8e7520f4481dc0d8ab6a",
      "transactionType": "CALL",
      "contractName": null,
      "contractAddress": "0x270e88f8683660553e8ba4eb2ad7c91a1710d769",
      "function": "sell(uint256)",
      "arguments": [
        "721910766707462494589"
      ],
      "transaction": {
        "from": "0xc77f7fed3b5cc8249adc428c5f44c9063b9734b4",
        "to": "0x270e88f8683660553e8ba4eb2ad7c91a1710d769",
        "gas": "0x16fec",
        "value": "0x0",
        "input": "0xe4849b32000000000000000000000000000000000000000000000027228641792831d97d",
        "nonce": "0x80c",
        "chainId": "0xaa36a7"
      },
      "additionalContracts": [],
      "isFixedGasLimit": false
    }
  ],
  "receipts": [
    {
      "status": "0x1",
      "cumulativeGasUsed": "0x11a45be",
      "logs": [
        {
          "address": "0x270e88f8683660553e8ba4eb2ad7c91a1710d769",
          "topics": [
            "0xddf252ad1be2c89b69c2b068fc378daa952ba7f163c4a11628f55a4df523b3ef",
            "0x000000000000000000000000c77f7fed3b5cc8249adc428c5f44c9063b9734b4",
            "0x0000000000000000000000000000000000000000000000000000000000000000"
          ],
          "data": "0x000000000000000000000000000000000000000000000027228641792831d97d",
          "blockHash": "0x258d1a9bf997f6714d5fe0dda1304ed1912b8de08612b0f0ae8d418625e28202",
          "blockNumber": "0x72554d",
          "transactionHash": "0xeaf881db904852c490d2e346c2885a0516cd29b7c60b8e7520f4481dc0d8ab6a",
          "transactionIndex": "0x43",
          "logIndex": "0x69",
          "removed": false
        },
        {
          "address": "0x270e88f8683660553e8ba4eb2ad7c91a1710d769",
          "topics": [
            "0x4afcb4a87cdbd9974efdb92ee48bc8d7cd0ae4bf217004db3d080cbaee652ca7"
          ],
          "data": "0x000000000000000000000000000000000000000000000000000000006786f1a40000000000000000000000000000000000000000000000000004e3524e36d43a0000000000000000000000000000000000000000000000000dc826a091914a7c",
          "blockHash": "0x258d1a9bf997f6714d5fe0dda1304ed1912b8de08612b0f0ae8d418625e28202",
          "blockNumber": "0x72554d",
          "transactionHash": "0xeaf881db904852c490d2e346c2885a0516cd29b7c60b8e7520f4481dc0d8ab6a",
          "transactionIndex": "0x43",
          "logIndex": "0x6a",
          "removed": false
        }
      ],
      "logsBloom": "0x00000000000000000000000000000000000000000000000000000000000000000000000000000000000000000000000020000000000000004000000000000000000000000000000000000008000000000000000000000000000000000000000000000000020000000000000000000800020000000000000000000010000000000000000000010000000000000000000000000000000000000000010000000000000000000000000000000000000000004000000000000000000000000000000000000002000000800000000000000000000000000000080000008000000020000000000000000000000000000000000000000000000000000000000000000000",
      "type": "0x2",
      "transactionHash": "0xeaf881db904852c490d2e346c2885a0516cd29b7c60b8e7520f4481dc0d8ab6a",
      "transactionIndex": "0x43",
      "blockHash": "0x258d1a9bf997f6714d5fe0dda1304ed1912b8de08612b0f0ae8d418625e28202",
      "blockNumber": "0x72554d",
      "gasUsed": "0xfb93",
      "effectiveGasPrice": "0x94406516",
      "from": "0xc77f7fed3b5cc8249adc428c5f44c9063b9734b4",
      "to": "0x270e88f8683660553e8ba4eb2ad7c91a1710d769",
      "contractAddress": null
    }
  ],
  "libraries": [],
  "pending": [],
  "returns": {},
  "timestamp": 1736896934,
  "chain": 11155111,
  "commit": "51a374b"
}