{
  "transactions": [
    {
      "hash": "0xf558c1f4b5c88c963f92b1ad92e55d2f401f2b0264ccb98011a62deafd699ef2",
      "transactionType": "CALL",
      "contractName": null,
      "contractAddress": "0x8aafd3ede9adb0ff97c7aebce82a919afb1c8764",
      "function": "sell(uint256)",
      "arguments": [
        "170870616747150938937"
      ],
      "transaction": {
        "from": "0xc77f7fed3b5cc8249adc428c5f44c9063b9734b4",
        "to": "0x8aafd3ede9adb0ff97c7aebce82a919afb1c8764",
        "gas": "0x17270",
        "value": "0x0",
        "input": "0xe4849b32000000000000000000000000000000000000000000000009434e609ec5d81339",
        "nonce": "0x163a",
        "chainId": "0xaa36a7"
      },
      "additionalContracts": [],
      "isFixedGasLimit": false
    }
  ],
  "receipts": [
    {
      "status": "0x1",
      "cumulativeGasUsed": "0xb458fa",
      "logs": [
        {
          "address": "0x8aafd3ede9adb0ff97c7aebce82a919afb1c8764",
          "topics": [
            "0xddf252ad1be2c89b69c2b068fc378daa952ba7f163c4a11628f55a4df523b3ef",
            "0x000000000000000000000000c77f7fed3b5cc8249adc428c5f44c9063b9734b4",
            "0x0000000000000000000000000000000000000000000000000000000000000000"
          ],
          "data": "0x0000000000000000000000000000000000000000000000093055f14157b7a062",
          "blockHash": "0x6d92012c452d9c73308a9ca42b9002e9480a867a726d021b996fab2acace15a9",
          "blockNumber": "0x731dd2",
          "transactionHash": "0xf558c1f4b5c88c963f92b1ad92e55d2f401f2b0264ccb98011a62deafd699ef2",
          "transactionIndex": "0x81",
          "logIndex": "0x9e",
          "removed": false
        },
        {
          "address": "0x8aafd3ede9adb0ff97c7aebce82a919afb1c8764",
          "topics": [
            "0xddf252ad1be2c89b69c2b068fc378daa952ba7f163c4a11628f55a4df523b3ef",
            "0x000000000000000000000000c77f7fed3b5cc8249adc428c5f44c9063b9734b4",
            "0x000000000000000000000000c77f7fed3b5cc8249adc428c5f44c9063b9734b4"
          ],
          "data": "0x00000000000000000000000000000000000000000000000012f86f5d6e2072d7",
          "blockHash": "0x6d92012c452d9c73308a9ca42b9002e9480a867a726d021b996fab2acace15a9",
          "blockNumber": "0x731dd2",
          "transactionHash": "0xf558c1f4b5c88c963f92b1ad92e55d2f401f2b0264ccb98011a62deafd699ef2",
          "transactionIndex": "0x81",
          "logIndex": "0x9f",
          "removed": false
        },
        {
          "address": "0x8aafd3ede9adb0ff97c7aebce82a919afb1c8764",
          "topics": [
            "0x4afcb4a87cdbd9974efdb92ee48bc8d7cd0ae4bf217004db3d080cbaee652ca7"
          ],
          "data": "0x00000000000000000000000000000000000000000000000000000000679062c00000000000000000000000000000000000000000000000000014c01b961f3eb70000000000000000000000000000000000000000000000000dcc5cbec2d82b9d",
          "blockHash": "0x6d92012c452d9c73308a9ca42b9002e9480a867a726d021b996fab2acace15a9",
          "blockNumber": "0x731dd2",
          "transactionHash": "0xf558c1f4b5c88c963f92b1ad92e55d2f401f2b0264ccb98011a62deafd699ef2",
          "transactionIndex": "0x81",
          "logIndex": "0xa0",
          "removed": false
        }
      ],
      "logsBloom": "0x00000000000000000000000000000000000000000600000000000000000000000000000000000000000000000000000000000000000000004000000000000000000000000000004000000008000000000000000000000000000000000000000000000000020000000000000000000800020000000000000000000010000000000000000000000000000000000000000000000000000000000000010000000000000000000000000000000000000000004000000000000000000000000000000000000002000000800000000000000000000000000000080000000000000020000000000000000000000000000000000000000000000000000000000000000000",
      "type": "0x2",
      "transactionHash": "0xf558c1f4b5c88c963f92b1ad92e55d2f401f2b0264ccb98011a62deafd699ef2",
      "transactionIndex": "0x81",
      "blockHash": "0x6d92012c452d9c73308a9ca42b9002e9480a867a726d021b996fab2acace15a9",
      "blockNumber": "0x731dd2",
      "gasUsed": "0xfd4b",
      "effectiveGasPrice": "0x4fdd68dd",
      "from": "0xc77f7fed3b5cc8249adc428c5f44c9063b9734b4",
      "to": "0x8aafd3ede9adb0ff97c7aebce82a919afb1c8764",
      "contractAddress": null
    }
  ],
  "libraries": [],
  "pending": [],
  "returns": {},
  "timestamp": 1737515712,
  "chain": 11155111,
  "commit": "1d2fb70"
}