{
  "transactions": [
    {
      "hash": "0xb1cee831d07cdd7e8cb42a0d9b7af1e4cb5233c761360994a229dadae6785d95",
      "transactionType": "CALL",
      "contractName": null,
      "contractAddress": "0x8aafd3ede9adb0ff97c7aebce82a919afb1c8764",
      "function": "sell(uint256)",
      "arguments": [
        "42806320229151358"
      ],
      "transaction": {
        "from": "0xc77f7fed3b5cc8249adc428c5f44c9063b9734b4",
        "to": "0x8aafd3ede9adb0ff97c7aebce82a919afb1c8764",
        "gas": "0x1724d",
        "value": "0x0",
        "input": "0xe4849b320000000000000000000000000000000000000000000000000098141f1766727e",
        "nonce": "0x129b",
        "chainId": "0xaa36a7"
      },
      "additionalContracts": [],
      "isFixedGasLimit": false
    }
  ],
  "receipts": [
    {
      "status": "0x1",
      "cumulativeGasUsed": "0x620f5c",
      "logs": [
        {
          "address": "0x8aafd3ede9adb0ff97c7aebce82a919afb1c8764",
          "topics": [
            "0xddf252ad1be2c89b69c2b068fc378daa952ba7f163c4a11628f55a4df523b3ef",
            "0x000000000000000000000000c77f7fed3b5cc8249adc428c5f44c9063b9734b4",
            "0x0000000000000000000000000000000000000000000000000000000000000000"
          ],
          "data": "0x0000000000000000000000000000000000000000000000000096dcaa1b4f1984",
          "blockHash": "0x9e7e717e60718aecd044db2de64e20e446889a3ebe5f172ae238b496ba8c3369",
          "blockNumber": "0x73198d",
          "transactionHash": "0xb1cee831d07cdd7e8cb42a0d9b7af1e4cb5233c761360994a229dadae6785d95",
          "transactionIndex": "0x56",
          "logIndex": "0x6b",
          "removed": false
        },
        {
          "address": "0x8aafd3ede9adb0ff97c7aebce82a919afb1c8764",
          "topics": [
            "0xddf252ad1be2c89b69c2b068fc378daa952ba7f163c4a11628f55a4df523b3ef",
            "0x000000000000000000000000c77f7fed3b5cc8249adc428c5f44c9063b9734b4",
            "0x000000000000000000000000c77f7fed3b5cc8249adc428c5f44c9063b9734b4"
          ],
          "data": "0x00000000000000000000000000000000000000000000000000013774fc1758fa",
          "blockHash": "0x9e7e717e60718aecd044db2de64e20e446889a3ebe5f172ae238b496ba8c3369",
          "blockNumber": "0x73198d",
          "transactionHash": "0xb1cee831d07cdd7e8cb42a0d9b7af1e4cb5233c761360994a229dadae6785d95",
          "transactionIndex": "0x56",
          "logIndex": "0x6c",
          "removed": false
        },
        {
          "address": "0x8aafd3ede9adb0ff97c7aebce82a919afb1c8764",
          "topics": [
            "0x4afcb4a87cdbd9974efdb92ee48bc8d7cd0ae4bf217004db3d080cbaee652ca7"
          ],
          "data": "0x0000000000000000000000000000000000000000000000000000000067902f6c000000000000000000000000000000000000000000000000000547baec7441dd000000000000000000000000000000000000000000000000000039dcd2cf57cb",
          "blockHash": "0x9e7e717e60718aecd044db2de64e20e446889a3ebe5f172ae238b496ba8c3369",
          "blockNumber": "0x73198d",
          "transactionHash": "0xb1cee831d07cdd7e8cb42a0d9b7af1e4cb5233c761360994a229dadae6785d95",
          "transactionIndex": "0x56",
          "logIndex": "0x6d",
          "removed": false
        }
      ],
      "logsBloom": "0x00000000000000000000000000000000000000000600000000000000000000000000000000000000000000000000000000000000000000004000000000000000000000000000004000000008000000000000000000000000000000000000000000000000020000000000000000000800020000000000000000000010000000000000000000000000000000000000000000000000000000000000010000000000000000000000000000000000000000004000000000000000000000000000000000000002000000800000000000000000000000000000080000000000000020000000000000000000000000000000000000000000000000000000000000000000",
      "type": "0x2",
      "transactionHash": "0xb1cee831d07cdd7e8cb42a0d9b7af1e4cb5233c761360994a229dadae6785d95",
      "transactionIndex": "0x56",
      "blockHash": "0x9e7e717e60718aecd044db2de64e20e446889a3ebe5f172ae238b496ba8c3369",
      "blockNumber": "0x73198d",
      "gasUsed": "0xfd33",
      "effectiveGasPrice": "0x49ba1751",
      "from": "0xc77f7fed3b5cc8249adc428c5f44c9063b9734b4",
      "to": "0x8aafd3ede9adb0ff97c7aebce82a919afb1c8764",
      "contractAddress": null
    }
  ],
  "libraries": [],
  "pending": [],
  "returns": {},
  "timestamp": 1737502573,
  "chain": 11155111,
  "commit": "1d2fb70"
}