{
  "transactions": [
    {
      "hash": "0xd9dd6331b60258d3fee088f368c729330eefc95a00dd0014abb7594e7828156a",
      "transactionType": "CALL",
      "contractName": null,
      "contractAddress": "0x8aafd3ede9adb0ff97c7aebce82a919afb1c8764",
      "function": "sell(uint256)",
      "arguments": [
        "24561746143"
      ],
      "transaction": {
        "from": "0xc77f7fed3b5cc8249adc428c5f44c9063b9734b4",
        "to": "0x8aafd3ede9adb0ff97c7aebce82a919afb1c8764",
        "gas": "0x1722a",
        "value": "0x0",
        "input": "0xe4849b3200000000000000000000000000000000000000000000000000000005b7fe80df",
        "nonce": "0xe6f",
        "chainId": "0xaa36a7"
      },
      "additionalContracts": [],
      "isFixedGasLimit": false
    }
  ],
  "receipts": [
    {
      "status": "0x1",
      "cumulativeGasUsed": "0xc6e337",
      "logs": [
        {
          "address": "0x8aafd3ede9adb0ff97c7aebce82a919afb1c8764",
          "topics": [
            "0xddf252ad1be2c89b69c2b068fc378daa952ba7f163c4a11628f55a4df523b3ef",
            "0x000000000000000000000000c77f7fed3b5cc8249adc428c5f44c9063b9734b4",
            "0x0000000000000000000000000000000000000000000000000000000000000000"
          ],
          "data": "0x00000000000000000000000000000000000000000000000000000005ac483e4e",
          "blockHash": "0x21dbae53bc9309f22ce8c7658f7233c823029927a940ee38e625263df64f1a6e",
          "blockNumber": "0x7313c7",
          "transactionHash": "0xd9dd6331b60258d3fee088f368c729330eefc95a00dd0014abb7594e7828156a",
          "transactionIndex": "0x98",
          "logIndex": "0xc3",
          "removed": false
        },
        {
          "address": "0x8aafd3ede9adb0ff97c7aebce82a919afb1c8764",
          "topics": [
            "0xddf252ad1be2c89b69c2b068fc378daa952ba7f163c4a11628f55a4df523b3ef",
            "0x000000000000000000000000c77f7fed3b5cc8249adc428c5f44c9063b9734b4",
            "0x000000000000000000000000c77f7fed3b5cc8249adc428c5f44c9063b9734b4"
          ],
          "data": "0x000000000000000000000000000000000000000000000000000000000bb64291",
          "blockHash": "0x21dbae53bc9309f22ce8c7658f7233c823029927a940ee38e625263df64f1a6e",
          "blockNumber": "0x7313c7",
          "transactionHash": "0xd9dd6331b60258d3fee088f368c729330eefc95a00dd0014abb7594e7828156a",
          "transactionIndex": "0x98",
          "logIndex": "0xc4",
          "removed": false
        },
        {
          "address": "0x8aafd3ede9adb0ff97c7aebce82a919afb1c8764",
          "topics": [
            "0x4afcb4a87cdbd9974efdb92ee48bc8d7cd0ae4bf217004db3d080cbaee652ca7"
          ],
          "data": "0x00000000000000000000000000000000000000000000000000000000678fe9e80000000000000000000000000000000000000000000000000004b54a054237f30000000000000000000000000000000000000000000000000000000001f0ac3c",
          "blockHash": "0x21dbae53bc9309f22ce8c7658f7233c823029927a940ee38e625263df64f1a6e",
          "blockNumber": "0x7313c7",
          "transactionHash": "0xd9dd6331b60258d3fee088f368c729330eefc95a00dd0014abb7594e7828156a",
          "transactionIndex": "0x98",
          "logIndex": "0xc5",
          "removed": false
        }
      ],
      "logsBloom": "0x00000000000000000000000000000000000000000600000000000000000000000000000000000000000000000000000000000000000000004000000000000000000000000000004000000008000000000000000000000000000000000000000000000000020000000000000000000800020000000000000000000010000000000000000000000000000000000000000000000000000000000000010000000000000000000000000000000000000000004000000000000000000000000000000000000002000000800000000000000000000000000000080000000000000020000000000000000000000000000000000000000000000000000000000000000000",
      "type": "0x2",
      "transactionHash": "0xd9dd6331b60258d3fee088f368c729330eefc95a00dd0014abb7594e7828156a",
      "transactionIndex": "0x98",
      "blockHash": "0x21dbae53bc9309f22ce8c7658f7233c823029927a940ee38e625263df64f1a6e",
      "blockNumber": "0x7313c7",
      "gasUsed": "0xfd1b",
      "effectiveGasPrice": "0x672329b9",
      "from": "0xc77f7fed3b5cc8249adc428c5f44c9063b9734b4",
      "to": "0x8aafd3ede9adb0ff97c7aebce82a919afb1c8764",
      "contractAddress": null
    }
  ],
  "libraries": [],
  "pending": [],
  "returns": {},
  "timestamp": 1737484777,
  "chain": 11155111,
  "commit": "51a374b"
}