{
  "transactions": [
    {
      "hash": "0xcf5ddc8686be167722ad464d08e1d7ce9f5f34f6511df4270a71debff5799162",
      "transactionType": "CALL",
      "contractName": null,
      "contractAddress": "0x8aafd3ede9adb0ff97c7aebce82a919afb1c8764",
      "function": "sell(uint256)",
      "arguments": [
        "1395168"
      ],
      "transaction": {
        "from": "0xc77f7fed3b5cc8249adc428c5f44c9063b9734b4",
        "to": "0x8aafd3ede9adb0ff97c7aebce82a919afb1c8764",
        "gas": "0x16208",
        "value": "0x0",
        "input": "0xe4849b3200000000000000000000000000000000000000000000000000000000001549e0",
        "nonce": "0x12d2",
        "chainId": "0xaa36a7"
      },
      "additionalContracts": [],
      "isFixedGasLimit": false
    }
  ],
  "receipts": [
    {
      "status": "0x1",
      "cumulativeGasUsed": "0xadf1b3",
      "logs": [
        {
          "address": "0x8aafd3ede9adb0ff97c7aebce82a919afb1c8764",
          "topics": [
            "0xddf252ad1be2c89b69c2b068fc378daa952ba7f163c4a11628f55a4df523b3ef",
            "0x000000000000000000000000c77f7fed3b5cc8249adc428c5f44c9063b9734b4",
            "0x0000000000000000000000000000000000000000000000000000000000000000"
          ],
          "data": "0x0000000000000000000000000000000000000000000000000000000000151e47",
          "blockHash": "0x993c13f34d788f7a0a1cf1c6c59cd67d0cf31c01867a6ebada3835e35bd6da3d",
          "blockNumber": "0x7319cf",
          "transactionHash": "0xcf5ddc8686be167722ad464d08e1d7ce9f5f34f6511df4270a71debff5799162",
          "transactionIndex": "0x71",
          "logIndex": "0x99",
          "removed": false
        },
        {
          "address": "0x8aafd3ede9adb0ff97c7aebce82a919afb1c8764",
          "topics": [
            "0xddf252ad1be2c89b69c2b068fc378daa952ba7f163c4a11628f55a4df523b3ef",
            "0x000000000000000000000000c77f7fed3b5cc8249adc428c5f44c9063b9734b4",
            "0x000000000000000000000000c77f7fed3b5cc8249adc428c5f44c9063b9734b4"
          ],
          "data": "0x0000000000000000000000000000000000000000000000000000000000002b99",
          "blockHash": "0x993c13f34d788f7a0a1cf1c6c59cd67d0cf31c01867a6ebada3835e35bd6da3d",
          "blockNumber": "0x7319cf",
          "transactionHash": "0xcf5ddc8686be167722ad464d08e1d7ce9f5f34f6511df4270a71debff5799162",
          "transactionIndex": "0x71",
          "logIndex": "0x9a",
          "removed": false
        },
        {
          "address": "0x8aafd3ede9adb0ff97c7aebce82a919afb1c8764",
          "topics": [
            "0x4afcb4a87cdbd9974efdb92ee48bc8d7cd0ae4bf217004db3d080cbaee652ca7"
          ],
          "data": "0x000000000000000000000000000000000000000000000000000000006790328400000000000000000000000000000000000000000000000000054eff484973f60000000000000000000000000000000000000000000000000000000000000824",
          "blockHash": "0x993c13f34d788f7a0a1cf1c6c59cd67d0cf31c01867a6ebada3835e35bd6da3d",
          "blockNumber": "0x7319cf",
          "transactionHash": "0xcf5ddc8686be167722ad464d08e1d7ce9f5f34f6511df4270a71debff5799162",
          "transactionIndex": "0x71",
          "logIndex": "0x9b",
          "removed": false
        }
      ],
      "logsBloom": "0x00000000000000000000000000000000000000000600000000000000000000000000000000000000000000000000000000000000000000004000000000000000000000000000004000000008000000000000000000000000000000000000000000000000020000000000000000000800020000000000000000000010000000000000000000000000000000000000000000000000000000000000010000000000000000000000000000000000000000004000000000000000000000000000000000000002000000800000000000000000000000000000080000000000000020000000000000000000000000000000000000000000000000000000000000000000",
      "type": "0x2",
      "transactionHash": "0xcf5ddc8686be167722ad464d08e1d7ce9f5f34f6511df4270a71debff5799162",
      "transactionIndex": "0x71",
      "blockHash": "0x993c13f34d788f7a0a1cf1c6c59cd67d0cf31c01867a6ebada3835e35bd6da3d",
      "blockNumber": "0x7319cf",
      "gasUsed": "0xf213",
      "effectiveGasPrice": "0x42b0fc06",
      "from": "0xc77f7fed3b5cc8249adc428c5f44c9063b9734b4",
      "to": "0x8aafd3ede9adb0ff97c7aebce82a919afb1c8764",
      "contractAddress": null
    }
  ],
  "libraries": [],
  "pending": [],
  "returns": {},
  "timestamp": 1737503365,
  "chain": 11155111,
  "commit": "1d2fb70"
}