{
  "transactions": [
    {
      "hash": "0x53efe0e2460f18c5602f594ba6265f47976ebaccf0454c83fd70858e51b01e51",
      "transactionType": "CALL",
      "contractName": null,
      "contractAddress": "0x8aafd3ede9adb0ff97c7aebce82a919afb1c8764",
      "function": "sell(uint256)",
      "arguments": [
        "1046894801278"
      ],
      "transaction": {
        "from": "0xc77f7fed3b5cc8249adc428c5f44c9063b9734b4",
        "to": "0x8aafd3ede9adb0ff97c7aebce82a919afb1c8764",
        "gas": "0x1722a",
        "value": "0x0",
        "input": "0xe4849b32000000000000000000000000000000000000000000000000000000f3bfcaf17e",
        "nonce": "0x13ec",
        "chainId": "0xaa36a7"
      },
      "additionalContracts": [],
      "isFixedGasLimit": false
    }
  ],
  "receipts": [
    {
      "status": "0x1",
      "cumulativeGasUsed": "0x158112c",
      "logs": [
        {
          "address": "0x8aafd3ede9adb0ff97c7aebce82a919afb1c8764",
          "topics": [
            "0xddf252ad1be2c89b69c2b068fc378daa952ba7f163c4a11628f55a4df523b3ef",
            "0x000000000000000000000000c77f7fed3b5cc8249adc428c5f44c9063b9734b4",
            "0x0000000000000000000000000000000000000000000000000000000000000000"
          ],
          "data": "0x000000000000000000000000000000000000000000000000000000f1cc982af4",
          "blockHash": "0x6d0c04fc3daeca6ff99312880bfe159555996bfa8a6b5f00560df54c7f0576dc",
          "blockNumber": "0x731b1c",
          "transactionHash": "0x53efe0e2460f18c5602f594ba6265f47976ebaccf0454c83fd70858e51b01e51",
          "transactionIndex": "0xa3",
          "logIndex": "0xc7",
          "removed": false
        },
        {
          "address": "0x8aafd3ede9adb0ff97c7aebce82a919afb1c8764",
          "topics": [
            "0xddf252ad1be2c89b69c2b068fc378daa952ba7f163c4a11628f55a4df523b3ef",
            "0x000000000000000000000000c77f7fed3b5cc8249adc428c5f44c9063b9734b4",
            "0x000000000000000000000000c77f7fed3b5cc8249adc428c5f44c9063b9734b4"
          ],
          "data": "0x00000000000000000000000000000000000000000000000000000001f332c68a",
          "blockHash": "0x6d0c04fc3daeca6ff99312880bfe159555996bfa8a6b5f00560df54c7f0576dc",
          "blockNumber": "0x731b1c",
          "transactionHash": "0x53efe0e2460f18c5602f594ba6265f47976ebaccf0454c83fd70858e51b01e51",
          "transactionIndex": "0xa3",
          "logIndex": "0xc8",
          "removed": false
        },
        {
          "address": "0x8aafd3ede9adb0ff97c7aebce82a919afb1c8764",
          "topics": [
            "0x4afcb4a87cdbd9974efdb92ee48bc8d7cd0ae4bf217004db3d080cbaee652ca7"
          ],
          "data": "0x0000000000000000000000000000000000000000000000000000000067904220000000000000000000000000000000000000000000000000000de7c2280eab1100000000000000000000000000000000000000000000000000000000f43b86c9",
          "blockHash": "0x6d0c04fc3daeca6ff99312880bfe159555996bfa8a6b5f00560df54c7f0576dc",
          "blockNumber": "0x731b1c",
          "transactionHash": "0x53efe0e2460f18c5602f594ba6265f47976ebaccf0454c83fd70858e51b01e51",
          "transactionIndex": "0xa3",
          "logIndex": "0xc9",
          "removed": false
        }
      ],
      "logsBloom": "0x00000000000000000000000000000000000000000600000000000000000000000000000000000000000000000000000000000000000000004000000000000000000000000000004000000008000000000000000000000000000000000000000000000000020000000000000000000800020000000000000000000010000000000000000000000000000000000000000000000000000000000000010000000000000000000000000000000000000000004000000000000000000000000000000000000002000000800000000000000000000000000000080000000000000020000000000000000000000000000000000000000000000000000000000000000000",
      "type": "0x2",
      "transactionHash": "0x53efe0e2460f18c5602f594ba6265f47976ebaccf0454c83fd70858e51b01e51",
      "transactionIndex": "0xa3",
      "blockHash": "0x6d0c04fc3daeca6ff99312880bfe159555996bfa8a6b5f00560df54c7f0576dc",
      "blockNumber": "0x731b1c",
      "gasUsed": "0xfd1b",
      "effectiveGasPrice": "0x90db4022",
      "from": "0xc77f7fed3b5cc8249adc428c5f44c9063b9734b4",
      "to": "0x8aafd3ede9adb0ff97c7aebce82a919afb1c8764",
      "contractAddress": null
    }
  ],
  "libraries": [],
  "pending": [],
  "returns": {},
  "timestamp": 1737507362,
  "chain": 11155111,
  "commit": "1d2fb70"
}