{
  "transactions": [
    {
      "hash": "0x4b630882e3c3771838b2519704b332a22f751a0524279ce1717dff0f354ef224",
      "transactionType": "CALL",
      "contractName": null,
      "contractAddress": "0x8aafd3ede9adb0ff97c7aebce82a919afb1c8764",
      "function": "sell(uint256)",
      "arguments": [
        "23242214772"
      ],
      "transaction": {
        "from": "0xc77f7fed3b5cc8249adc428c5f44c9063b9734b4",
        "to": "0x8aafd3ede9adb0ff97c7aebce82a919afb1c8764",
        "gas": "0x1722a",
        "value": "0x0",
        "input": "0xe4849b320000000000000000000000000000000000000000000000000000000569580d74",
        "nonce": "0x108c",
        "chainId": "0xaa36a7"
      },
      "additionalContracts": [],
      "isFixedGasLimit": false
    }
  ],
  "receipts": [
    {
      "status": "0x1",
      "cumulativeGasUsed": "0xed02ef",
      "logs": [
        {
          "address": "0x8aafd3ede9adb0ff97c7aebce82a919afb1c8764",
          "topics": [
            "0xddf252ad1be2c89b69c2b068fc378daa952ba7f163c4a11628f55a4df523b3ef",
            "0x000000000000000000000000c77f7fed3b5cc8249adc428c5f44c9063b9734b4",
            "0x0000000000000000000000000000000000000000000000000000000000000000"
          ],
          "data": "0x000000000000000000000000000000000000000000000000000000055e42de3e",
          "blockHash": "0x040cba74d1158f7003c0751404c49f237f73d6c7959f2f8f7ff652aa54f01340",
          "blockNumber": "0x731718",
          "transactionHash": "0x4b630882e3c3771838b2519704b332a22f751a0524279ce1717dff0f354ef224",
          "transactionIndex": "0x84",
          "logIndex": "0xa6",
          "removed": false
        },
        {
          "address": "0x8aafd3ede9adb0ff97c7aebce82a919afb1c8764",
          "topics": [
            "0xddf252ad1be2c89b69c2b068fc378daa952ba7f163c4a11628f55a4df523b3ef",
            "0x000000000000000000000000c77f7fed3b5cc8249adc428c5f44c9063b9734b4",
            "0x000000000000000000000000c77f7fed3b5cc8249adc428c5f44c9063b9734b4"
          ],
          "data": "0x000000000000000000000000000000000000000000000000000000000b152f36",
          "blockHash": "0x040cba74d1158f7003c0751404c49f237f73d6c7959f2f8f7ff652aa54f01340",
          "blockNumber": "0x731718",
          "transactionHash": "0x4b630882e3c3771838b2519704b332a22f751a0524279ce1717dff0f354ef224",
          "transactionIndex": "0x84",
          "logIndex": "0xa7",
          "removed": false
        },
        {
          "address": "0x8aafd3ede9adb0ff97c7aebce82a919afb1c8764",
          "topics": [
            "0x4afcb4a87cdbd9974efdb92ee48bc8d7cd0ae4bf217004db3d080cbaee652ca7"
          ],
          "data": "0x00000000000000000000000000000000000000000000000000000000679011e40000000000000000000000000000000000000000000000000004fabae4fcaab00000000000000000000000000000000000000000000000000000000001f1115b",
          "blockHash": "0x040cba74d1158f7003c0751404c49f237f73d6c7959f2f8f7ff652aa54f01340",
          "blockNumber": "0x731718",
          "transactionHash": "0x4b630882e3c3771838b2519704b332a22f751a0524279ce1717dff0f354ef224",
          "transactionIndex": "0x84",
          "logIndex": "0xa8",
          "removed": false
        }
      ],
      "logsBloom": "0x00000000000000000000000000000000000000000600000000000000000000000000000000000000000000000000000000000000000000004000000000000000000000000000004000000008000000000000000000000000000000000000000000000000020000000000000000000800020000000000000000000010000000000000000000000000000000000000000000000000000000000000010000000000000000000000000000000000000000004000000000000000000000000000000000000002000000800000000000000000000000000000080000000000000020000000000000000000000000000000000000000000000000000000000000000000",
      "type": "0x2",
      "transactionHash": "0x4b630882e3c3771838b2519704b332a22f751a0524279ce1717dff0f354ef224",
      "transactionIndex": "0x84",
      "blockHash": "0x040cba74d1158f7003c0751404c49f237f73d6c7959f2f8f7ff652aa54f01340",
      "blockNumber": "0x731718",
      "gasUsed": "0xfd1b",
      "effectiveGasPrice": "0x3fad43f5",
      "from": "0xc77f7fed3b5cc8249adc428c5f44c9063b9734b4",
      "to": "0x8aafd3ede9adb0ff97c7aebce82a919afb1c8764",
      "contractAddress": null
    }
  ],
  "libraries": [],
  "pending": [],
  "returns": {},
  "timestamp": 1737495013,
  "chain": 11155111,
  "commit": "1d2fb70"
}