{
  "transactions": [
    {
      "hash": "0x4946ec9cef0dfd4e582d9a631c63613f0d7629484c9a14755f88566d84161ea1",
      "transactionType": "CALL",
      "contractName": null,
      "contractAddress": "0xbf4a322f1496e5c3d34a9bcdb4c60567b38c7de2",
      "function": "sell(uint256)",
      "arguments": [
        "979368639650293879698"
      ],
      "transaction": {
        "from": "0xc77f7fed3b5cc8249adc428c5f44c9063b9734b4",
        "to": "0xbf4a322f1496e5c3d34a9bcdb4c60567b38c7de2",
        "gas": "0x16fea",
        "value": "0x0",
        "input": "0xe4849b3200000000000000000000000000000000000000000000003517785cd831501392",
        "nonce": "0xc47",
        "chainId": "0xaa36a7"
      },
      "additionalContracts": [],
      "isFixedGasLimit": false
    }
  ],
  "receipts": [
    {
      "status": "0x1",
      "cumulativeGasUsed": "0x11fa885",
      "logs": [
        {
          "address": "0xbf4a322f1496e5c3d34a9bcdb4c60567b38c7de2",
          "topics": [
            "0xddf252ad1be2c89b69c2b068fc378daa952ba7f163c4a11628f55a4df523b3ef",
            "0x000000000000000000000000c77f7fed3b5cc8249adc428c5f44c9063b9734b4",
            "0x0000000000000000000000000000000000000000000000000000000000000000"
          ],
          "data": "0x00000000000000000000000000000000000000000000003517785cd831501392",
          "blockHash": "0x1c791e44a43c324c80780095140023d884e9d0454a92499ca0e0e078db7d87ae",
          "blockNumber": "0x725c7e",
          "transactionHash": "0x4946ec9cef0dfd4e582d9a631c63613f0d7629484c9a14755f88566d84161ea1",
          "transactionIndex": "0x73",
          "logIndex": "0x131",
          "removed": false
        },
        {
          "address": "0xbf4a322f1496e5c3d34a9bcdb4c60567b38c7de2",
          "topics": [
            "0x4afcb4a87cdbd9974efdb92ee48bc8d7cd0ae4bf217004db3d080cbaee652ca7"
          ],
          "data": "0x000000000000000000000000000000000000000000000000000000006787484400000000000000000000000000000000000000000000000000039a2e7ac8dfd20000000000000000000000000000000000000000000000000dc7e3e0992fcf0b",
          "blockHash": "0x1c791e44a43c324c80780095140023d884e9d0454a92499ca0e0e078db7d87ae",
          "blockNumber": "0x725c7e",
          "transactionHash": "0x4946ec9cef0dfd4e582d9a631c63613f0d7629484c9a14755f88566d84161ea1",
          "transactionIndex": "0x73",
          "logIndex": "0x132",
          "removed": false
        }
      ],
      "logsBloom": "0x00000000000000000000000000000000000000000000000000000000000000000000000000000000000000000000000000000000000000004000000000000000000000000000000000000008000000000000001000000000000000000000000000000000020000000000000000000800020000000000000000000010000000000000000000000000000000000000000000000000000008000000010000000000000000000000000000000000000000004000000000000000000000000000000000000002000000800000000000001000000000000000080000000000000020000000000000000000000000000000000000000000000000000000000000000000",
      "type": "0x2",
      "transactionHash": "0x4946ec9cef0dfd4e582d9a631c63613f0d7629484c9a14755f88566d84161ea1",
      "transactionIndex": "0x73",
      "blockHash": "0x1c791e44a43c324c80780095140023d884e9d0454a92499ca0e0e078db7d87ae",
      "blockNumber": "0x725c7e",
      "gasUsed": "0xfb91",
      "effectiveGasPrice": "0x1e636b53b",
      "from": "0xc77f7fed3b5cc8249adc428c5f44c9063b9734b4",
      "to": "0xbf4a322f1496e5c3d34a9bcdb4c60567b38c7de2",
      "contractAddress": null
    }
  ],
  "libraries": [],
  "pending": [],
  "returns": {},
  "timestamp": 1736919110,
  "chain": 11155111,
  "commit": "51a374b"
}