{
  "transactions": [
    {
      "hash": "0x700756055c1756781db07821680e0cad0c253f7d2c89678553181a0f9d945285",
      "transactionType": "CALL",
      "contractName": null,
      "contractAddress": "0x8aafd3ede9adb0ff97c7aebce82a919afb1c8764",
      "function": "sell(uint256)",
      "arguments": [
        "1366964933977207511"
      ],
      "transaction": {
        "from": "0xc77f7fed3b5cc8249adc428c5f44c9063b9734b4",
        "to": "0x8aafd3ede9adb0ff97c7aebce82a919afb1c8764",
        "gas": "0x15dca",
        "value": "0x0",
        "input": "0xe4849b3200000000000000000000000000000000000000000000000012f86f5d6e2072d7",
        "nonce": "0x163b",
        "chainId": "0xaa36a7"
      },
      "additionalContracts": [],
      "isFixedGasLimit": false
    }
  ],
  "receipts": [
    {
      "status": "0x1",
      "cumulativeGasUsed": "0xa946a2",
      "logs": [
        {
          "address": "0x8aafd3ede9adb0ff97c7aebce82a919afb1c8764",
          "topics": [
            "0xddf252ad1be2c89b69c2b068fc378daa952ba7f163c4a11628f55a4df523b3ef",
            "0x000000000000000000000000c77f7fed3b5cc8249adc428c5f44c9063b9734b4",
            "0x0000000000000000000000000000000000000000000000000000000000000000"
          ],
          "data": "0x00000000000000000000000000000000000000000000000012d19562d3a54f1b",
          "blockHash": "0x30556671c358d221976d0952896491242c5cbba1b3ea85ce66637a3b7e9309a2",
          "blockNumber": "0x731dd3",
          "transactionHash": "0x700756055c1756781db07821680e0cad0c253f7d2c89678553181a0f9d945285",
          "transactionIndex": "0x64",
          "logIndex": "0x99",
          "removed": false
        },
        {
          "address": "0x8aafd3ede9adb0ff97c7aebce82a919afb1c8764",
          "topics": [
            "0xddf252ad1be2c89b69c2b068fc378daa952ba7f163c4a11628f55a4df523b3ef",
            "0x000000000000000000000000c77f7fed3b5cc8249adc428c5f44c9063b9734b4",
            "0x000000000000000000000000c77f7fed3b5cc8249adc428c5f44c9063b9734b4"
          ],
          "data": "0x0000000000000000000000000000000000000000000000000026d9fa9a7b23bc",
          "blockHash": "0x30556671c358d221976d0952896491242c5cbba1b3ea85ce66637a3b7e9309a2",
          "blockNumber": "0x731dd3",
          "transactionHash": "0x700756055c1756781db07821680e0cad0c253f7d2c89678553181a0f9d945285",
          "transactionIndex": "0x64",
          "logIndex": "0x9a",
          "removed": false
        },
        {
          "address": "0x8aafd3ede9adb0ff97c7aebce82a919afb1c8764",
          "topics": [
            "0x4afcb4a87cdbd9974efdb92ee48bc8d7cd0ae4bf217004db3d080cbaee652ca7"
          ],
          "data": "0x00000000000000000000000000000000000000000000000000000000679062cc0000000000000000000000000000000000000000000000000014c0448b13f740000000000000000000000000000000000000000000000000001c5d770c613759",
          "blockHash": "0x30556671c358d221976d0952896491242c5cbba1b3ea85ce66637a3b7e9309a2",
          "blockNumber": "0x731dd3",
          "transactionHash": "0x700756055c1756781db07821680e0cad0c253f7d2c89678553181a0f9d945285",
          "transactionIndex": "0x64",
          "logIndex": "0x9b",
          "removed": false
        }
      ],
      "logsBloom": "0x00000000000000000000000000000000000000000600000000000000000000000000000000000000000000000000000000000000000000004000000000000000000000000000004000000008000000000000000000000000000000000000000000000000020000000000000000000800020000000000000000000010000000000000000000000000000000000000000000000000000000000000010000000000000000000000000000000000000000004000000000000000000000000000000000000002000000800000000000000000000000000000080000000000000020000000000000000000000000000000000000000000000000000000000000000000",
      "type": "0x2",
      "transactionHash": "0x700756055c1756781db07821680e0cad0c253f7d2c89678553181a0f9d945285",
      "transactionIndex": "0x64",
      "blockHash": "0x30556671c358d221976d0952896491242c5cbba1b3ea85ce66637a3b7e9309a2",
      "blockNumber": "0x731dd3",
      "gasUsed": "0xfd3f",
      "effectiveGasPrice": "0x4fc79347",
      "from": "0xc77f7fed3b5cc8249adc428c5f44c9063b9734b4",
      "to": "0x8aafd3ede9adb0ff97c7aebce82a919afb1c8764",
      "contractAddress": null
    }
  ],
  "libraries": [],
  "pending": [],
  "returns": {},
  "timestamp": 1737515726,
  "chain": 11155111,
  "commit": "1d2fb70"
}