{
  "transactions": [
    {
      "hash": "0x1f4d27c66dc1c5e981a288a3a27195134ffa60474d9b9aabaed46f5e4e7d0663",
      "transactionType": "CALL",
      "contractName": null,
      "contractAddress": "0x8aafd3ede9adb0ff97c7aebce82a919afb1c8764",
      "function": "sell(uint256)",
      "arguments": [
        "195885712"
      ],
      "transaction": {
        "from": "0xc77f7fed3b5cc8249adc428c5f44c9063b9734b4",
        "to": "0x8aafd3ede9adb0ff97c7aebce82a919afb1c8764",
        "gas": "0x14e6c",
        "value": "0x0",
        "input": "0xe4849b32000000000000000000000000000000000000000000000000000000000bacfa90",
        "nonce": "0xeca",
        "chainId": "0xaa36a7"
      },
      "additionalContracts": [],
      "isFixedGasLimit": false
    }
  ],
  "receipts": [
    {
      "status": "0x1",
      "cumulativeGasUsed": "0x15c498d",
      "logs": [
        {
          "address": "0x8aafd3ede9adb0ff97c7aebce82a919afb1c8764",
          "topics": [
            "0xddf252ad1be2c89b69c2b068fc378daa952ba7f163c4a11628f55a4df523b3ef",
            "0x000000000000000000000000c77f7fed3b5cc8249adc428c5f44c9063b9734b4",
            "0x0000000000000000000000000000000000000000000000000000000000000000"
          ],
          "data": "0x000000000000000000000000000000000000000000000000000000000b951123",
          "blockHash": "0x48b4ce00e96e106cbb949589440cfddf219fa69f8e1b7a3c1746fde5dfc6b68a",
          "blockNumber": "0x731435",
          "transactionHash": "0x1f4d27c66dc1c5e981a288a3a27195134ffa60474d9b9aabaed46f5e4e7d0663",
          "transactionIndex": "0xd4",
          "logIndex": "0x192",
          "removed": false
        },
        {
          "address": "0x8aafd3ede9adb0ff97c7aebce82a919afb1c8764",
          "topics": [
            "0xddf252ad1be2c89b69c2b068fc378daa952ba7f163c4a11628f55a4df523b3ef",
            "0x000000000000000000000000c77f7fed3b5cc8249adc428c5f44c9063b9734b4",
            "0x000000000000000000000000c77f7fed3b5cc8249adc428c5f44c9063b9734b4"
          ],
          "data": "0x000000000000000000000000000000000000000000000000000000000017e96d",
          "blockHash": "0x48b4ce00e96e106cbb949589440cfddf219fa69f8e1b7a3c1746fde5dfc6b68a",
          "blockNumber": "0x731435",
          "transactionHash": "0x1f4d27c66dc1c5e981a288a3a27195134ffa60474d9b9aabaed46f5e4e7d0663",
          "transactionIndex": "0xd4",
          "logIndex": "0x193",
          "removed": false
        },
        {
          "address": "0x8aafd3ede9adb0ff97c7aebce82a919afb1c8764",
          "topics": [
            "0x4afcb4a87cdbd9974efdb92ee48bc8d7cd0ae4bf217004db3d080cbaee652ca7"
          ],
          "data": "0x00000000000000000000000000000000000000000000000000000000678fef280000000000000000000000000000000000000000000000000004b907cd07452f000000000000000000000000000000000000000000000000000000000003f92f",
          "blockHash": "0x48b4ce00e96e106cbb949589440cfddf219fa69f8e1b7a3c1746fde5dfc6b68a",
          "blockNumber": "0x731435",
          "transactionHash": "0x1f4d27c66dc1c5e981a288a3a27195134ffa60474d9b9aabaed46f5e4e7d0663",
          "transactionIndex": "0xd4",
          "logIndex": "0x194",
          "removed": false
        }
      ],
      "logsBloom": "0x00000000000000000000000000000000000000000600000000000000000000000000000000000000000000000000000000000000000000004000000000000000000000000000004000000008000000000000000000000000000000000000000000000000020000000000000000000800020000000000000000000010000000000000000000000000000000000000000000000000000000000000010000000000000000000000000000000000000000004000000000000000000000000000000000000002000000800000000000000000000000000000080000000000000020000000000000000000000000000000000000000000000000000000000000000000",
      "type": "0x2",
      "transactionHash": "0x1f4d27c66dc1c5e981a288a3a27195134ffa60474d9b9aabaed46f5e4e7d0663",
      "transactionIndex": "0xd4",
      "blockHash": "0x48b4ce00e96e106cbb949589440cfddf219fa69f8e1b7a3c1746fde5dfc6b68a",
      "blockNumber": "0x731435",
      "gasUsed": "0xf21f",
      "effectiveGasPrice": "0x99b34814",
      "from": "0xc77f7fed3b5cc8249adc428c5f44c9063b9734b4",
      "to": "0x8aafd3ede9adb0ff97c7aebce82a919afb1c8764",
      "contractAddress": null
    }
  ],
  "libraries": [],
  "pending": [],
  "returns": {},
  "timestamp": 1737486122,
  "chain": 11155111,
  "commit": "51a374b"
}