{
  "transactions": [
    {
      "hash": "0x25d3f0f644abe9af717d48f4fd78668b5b9fd2a2130280ea715b5ca6e39dd770",
      "transactionType": "CALL",
      "contractName": null,
      "contractAddress": "0x8aafd3ede9adb0ff97c7aebce82a919afb1c8764",
      "function": "sell(uint256)",
      "arguments": [
        "5984132290538640433"
      ],
      "transaction": {
        "from": "0xc77f7fed3b5cc8249adc428c5f44c9063b9734b4",
        "to": "0x8aafd3ede9adb0ff97c7aebce82a919afb1c8764",
        "gas": "0x15dca",
        "value": "0x0",
        "input": "0xe4849b32000000000000000000000000000000000000000000000000530be89cea801431",
        "nonce": "0xea7",
        "chainId": "0xaa36a7"
      },
      "additionalContracts": [],
      "isFixedGasLimit": false
    }
  ],
  "receipts": [
    {
      "status": "0x1",
      "cumulativeGasUsed": "0x13d5849",
      "logs": [
        {
          "address": "0x8aafd3ede9adb0ff97c7aebce82a919afb1c8764",
          "topics": [
            "0xddf252ad1be2c89b69c2b068fc378daa952ba7f163c4a11628f55a4df523b3ef",
            "0x000000000000000000000000c77f7fed3b5cc8249adc428c5f44c9063b9734b4",
            "0x0000000000000000000000000000000000000000000000000000000000000000"
          ],
          "data": "0x0000000000000000000000000000000000000000000000005261d451eec4afae",
          "blockHash": "0x26641a9695e3c1dea1a57ad027d22208213914fc850b425ba30fdd53963c23d0",
          "blockNumber": "0x73140a",
          "transactionHash": "0x25d3f0f644abe9af717d48f4fd78668b5b9fd2a2130280ea715b5ca6e39dd770",
          "transactionIndex": "0x94",
          "logIndex": "0xdf",
          "removed": false
        },
        {
          "address": "0x8aafd3ede9adb0ff97c7aebce82a919afb1c8764",
          "topics": [
            "0xddf252ad1be2c89b69c2b068fc378daa952ba7f163c4a11628f55a4df523b3ef",
            "0x000000000000000000000000c77f7fed3b5cc8249adc428c5f44c9063b9734b4",
            "0x000000000000000000000000c77f7fed3b5cc8249adc428c5f44c9063b9734b4"
          ],
          "data": "0x00000000000000000000000000000000000000000000000000aa144afbbb6483",
          "blockHash": "0x26641a9695e3c1dea1a57ad027d22208213914fc850b425ba30fdd53963c23d0",
          "blockNumber": "0x73140a",
          "transactionHash": "0x25d3f0f644abe9af717d48f4fd78668b5b9fd2a2130280ea715b5ca6e39dd770",
          "transactionIndex": "0x94",
          "logIndex": "0xe0",
          "removed": false
        },
        {
          "address": "0x8aafd3ede9adb0ff97c7aebce82a919afb1c8764",
          "topics": [
            "0x4afcb4a87cdbd9974efdb92ee48bc8d7cd0ae4bf217004db3d080cbaee652ca7"
          ],
          "data": "0x00000000000000000000000000000000000000000000000000000000678fed240000000000000000000000000000000000000000000000000004b7c888da6df1000000000000000000000000000000000000000000000000001c3b856eccdf93",
          "blockHash": "0x26641a9695e3c1dea1a57ad027d22208213914fc850b425ba30fdd53963c23d0",
          "blockNumber": "0x73140a",
          "transactionHash": "0x25d3f0f644abe9af717d48f4fd78668b5b9fd2a2130280ea715b5ca6e39dd770",
          "transactionIndex": "0x94",
          "logIndex": "0xe1",
          "removed": false
        }
      ],
      "logsBloom": "0x00000000000000000000000000000000000000000600000000000000000000000000000000000000000000000000000000000000000000004000000000000000000000000000004000000008000000000000000000000000000000000000000000000000020000000000000000000800020000000000000000000010000000000000000000000000000000000000000000000000000000000000010000000000000000000000000000000000000000004000000000000000000000000000000000000002000000800000000000000000000000000000080000000000000020000000000000000000000000000000000000000000000000000000000000000000",
      "type": "0x2",
      "transactionHash": "0x25d3f0f644abe9af717d48f4fd78668b5b9fd2a2130280ea715b5ca6e39dd770",
      "transactionIndex": "0x94",
      "blockHash": "0x26641a9695e3c1dea1a57ad027d22208213914fc850b425ba30fdd53963c23d0",
      "blockNumber": "0x73140a",
      "gasUsed": "0xfd3f",
      "effectiveGasPrice": "0x79fe48e3",
      "from": "0xc77f7fed3b5cc8249adc428c5f44c9063b9734b4",
      "to": "0x8aafd3ede9adb0ff97c7aebce82a919afb1c8764",
      "contractAddress": null
    }
  ],
  "libraries": [],
  "pending": [],
  "returns": {},
  "timestamp": 1737485606,
  "chain": 11155111,
  "commit": "51a374b"
}