{
  "transactions": [
    {
      "hash": "0x3057ece3fa71d7efa0bc4b74061cba5bdd49f1b4aa763c92d100a20c418b3d77",
      "transactionType": "CALL",
      "contractName": null,
      "contractAddress": "0x8aafd3ede9adb0ff97c7aebce82a919afb1c8764",
      "function": "sell(uint256)",
      "arguments": [
        "663846912969827225173"
      ],
      "transaction": {
        "from": "0xc77f7fed3b5cc8249adc428c5f44c9063b9734b4",
        "to": "0x8aafd3ede9adb0ff97c7aebce82a919afb1c8764",
        "gas": "0x17270",
        "value": "0x0",
        "input": "0xe4849b32000000000000000000000000000000000000000000000023fcba022266350e55",
        "nonce": "0x12df",
        "chainId": "0xaa36a7"
      },
      "additionalContracts": [],
      "isFixedGasLimit": false
    }
  ],
  "receipts": [
    {
      "status": "0x1",
      "cumulativeGasUsed": "0xe5cda6",
      "logs": [
        {
          "address": "0x8aafd3ede9adb0ff97c7aebce82a919afb1c8764",
          "topics": [
            "0xddf252ad1be2c89b69c2b068fc378daa952ba7f163c4a11628f55a4df523b3ef",
            "0x000000000000000000000000c77f7fed3b5cc8249adc428c5f44c9063b9734b4",
            "0x0000000000000000000000000000000000000000000000000000000000000000"
          ],
          "data": "0x000000000000000000000000000000000000000000000023b30658221fc1f18c",
          "blockHash": "0xd14fd5b06f5340a3e535dc0d95a0b96ccd6a778cd51a79f854aaa48b85f4d04a",
          "blockNumber": "0x7319e0",
          "transactionHash": "0x3057ece3fa71d7efa0bc4b74061cba5bdd49f1b4aa763c92d100a20c418b3d77",
          "transactionIndex": "0x78",
          "logIndex": "0x78",
          "removed": false
        },
        {
          "address": "0x8aafd3ede9adb0ff97c7aebce82a919afb1c8764",
          "topics": [
            "0xddf252ad1be2c89b69c2b068fc378daa952ba7f163c4a11628f55a4df523b3ef",
            "0x000000000000000000000000c77f7fed3b5cc8249adc428c5f44c9063b9734b4",
            "0x000000000000000000000000c77f7fed3b5cc8249adc428c5f44c9063b9734b4"
          ],
          "data": "0x00000000000000000000000000000000000000000000000049b3aa0046731cc9",
          "blockHash": "0xd14fd5b06f5340a3e535dc0d95a0b96ccd6a778cd51a79f854aaa48b85f4d04a",
          "blockNumber": "0x7319e0",
          "transactionHash": "0x3057ece3fa71d7efa0bc4b74061cba5bdd49f1b4aa763c92d100a20c418b3d77",
          "transactionIndex": "0x78",
          "logIndex": "0x79",
          "removed": false
        },
        {
          "address": "0x8aafd3ede9adb0ff97c7aebce82a919afb1c8764",
          "topics": [
            "0x4afcb4a87cdbd9974efdb92ee48bc8d7cd0ae4bf217004db3d080cbaee652ca7"
          ],
          "data": "0x0000000000000000000000000000000000000000000000000000000067903350000000000000000000000000000000000000000000000000000551e55244e0af0000000000000000000000000000000000000000000000000dc8eb7ab417cf6d",
          "blockHash": "0xd14fd5b06f5340a3e535dc0d95a0b96ccd6a778cd51a79f854aaa48b85f4d04a",
          "blockNumber": "0x7319e0",
          "transactionHash": "0x3057ece3fa71d7efa0bc4b74061cba5bdd49f1b4aa763c92d100a20c418b3d77",
          "transactionIndex": "0x78",
          "logIndex": "0x7a",
          "removed": false
        }
      ],
      "logsBloom": "0x00000000000000000000000000000000000000000600000000000000000000000000000000000000000000000000000000000000000000004000000000000000000000000000004000000008000000000000000000000000000000000000000000000000020000000000000000000800020000000000000000000010000000000000000000000000000000000000000000000000000000000000010000000000000000000000000000000000000000004000000000000000000000000000000000000002000000800000000000000000000000000000080000000000000020000000000000000000000000000000000000000000000000000000000000000000",
      "type": "0x2",
      "transactionHash": "0x3057ece3fa71d7efa0bc4b74061cba5bdd49f1b4aa763c92d100a20c418b3d77",
      "transactionIndex": "0x78",
      "blockHash": "0xd14fd5b06f5340a3e535dc0d95a0b96ccd6a778cd51a79f854aaa48b85f4d04a",
      "blockNumber": "0x7319e0",
      "gasUsed": "0xfd4b",
      "effectiveGasPrice": "0x4904e5e1",
      "from": "0xc77f7fed3b5cc8249adc428c5f44c9063b9734b4",
      "to": "0x8aafd3ede9adb0ff97c7aebce82a919afb1c8764",
      "contractAddress": null
    }
  ],
  "libraries": [],
  "pending": [],
  "returns": {},
  "timestamp": 1737503569,
  "chain": 11155111,
  "commit": "1d2fb70"
}