{
  "transactions": [
    {
      "hash": "0xd544d4c9bde88ff17d9bbbf6d3fb728e077f3b18ca1a4e3adda9522d7e815ec0",
      "transactionType": "CALL",
      "contractName": null,
      "contractAddress": "0x270e88f8683660553e8ba4eb2ad7c91a1710d769",
      "function": "buy(address)",
      "arguments": [
        "0xC77f7fed3b5Cc8249aDc428c5F44C9063B9734b4"
      ],
      "transaction": {
        "from": "0xc77f7fed3b5cc8249adc428c5f44c9063b9734b4",
        "to": "0x270e88f8683660553e8ba4eb2ad7c91a1710d769",
        "gas": "0x1b30c",
        "value": "0xde0b6b3a7640000",
        "input": "0xf088d547000000000000000000000000c77f7fed3b5cc8249adc428c5f44c9063b9734b4",
        "nonce": "0x640",
        "chainId": "0xaa36a7"
      },
      "additionalContracts": [],
      "isFixedGasLimit": false
    }
  ],
  "receipts": [
    {
      "status": "0x1",
      "cumulativeGasUsed": "0x1170697",
      "logs": [
        {
          "address": "0x270e88f8683660553e8ba4eb2ad7c91a1710d769",
          "topics": [
            "0xddf252ad1be2c89b69c2b068fc378daa952ba7f163c4a11628f55a4df523b3ef",
            "0x0000000000000000000000000000000000000000000000000000000000000000",
            "0x000000000000000000000000c77f7fed3b5cc8249adc428c5f44c9063b9734b4"
          ],
          "data": "0x00000000000000000000000000000000000000000000002c944d7efee8c8e818",
          "blockHash": "0x40fd569b808f2fbf9ee7312933b11db3a04d260224c8b3c144a010837da22ddd",
          "blockNumber": "0x725329",
          "transactionHash": "0xd544d4c9bde88ff17d9bbbf6d3fb728e077f3b18ca1a4e3adda9522d7e815ec0",
          "transactionIndex": "0x52",
          "logIndex": "0x81",
          "removed": false
        },
        {
          "address": "0x270e88f8683660553e8ba4eb2ad7c91a1710d769",
          "topics": [
            "0xddf252ad1be2c89b69c2b068fc378daa952ba7f163c4a11628f55a4df523b3ef",
            "0x0000000000000000000000000000000000000000000000000000000000000000",
            "0x000000000000000000000000c77f7fed3b5cc8249adc428c5f44c9063b9734b4"
          ],
          "data": "0x000000000000000000000000000000000000000000000000229e0ad65ddfead6",
          "blockHash": "0x40fd569b808f2fbf9ee7312933b11db3a04d260224c8b3c144a010837da22ddd",
          "blockNumber": "0x725329",
          "transactionHash": "0xd544d4c9bde88ff17d9bbbf6d3fb728e077f3b18ca1a4e3adda9522d7e815ec0",
          "transactionIndex": "0x52",
          "logIndex": "0x82",
          "removed": false
        },
        {
          "address": "0x270e88f8683660553e8ba4eb2ad7c91a1710d769",
          "topics": [
            "0x4afcb4a87cdbd9974efdb92ee48bc8d7cd0ae4bf217004db3d080cbaee652ca7"
          ],
          "data": "0x000000000000000000000000000000000000000000000000000000006786d7f4000000000000000000000000000000000000000000000000000446ed582a3a7b0000000000000000000000000000000000000000000000000de0b6b3a7640000",
          "blockHash": "0x40fd569b808f2fbf9ee7312933b11db3a04d260224c8b3c144a010837da22ddd",
          "blockNumber": "0x725329",
          "transactionHash": "0xd544d4c9bde88ff17d9bbbf6d3fb728e077f3b18ca1a4e3adda9522d7e815ec0",
          "transactionIndex": "0x52",
          "logIndex": "0x83",
          "removed": false
        }
      ],
      "logsBloom": "0x00000000000000000000000000000000000000000000000000000000000000000000000000000000000000000000000020000000000000004000000000000000000000000000000000000008000000000000000000000000000000000000000000000000020000000000000000000800020000000000000000000010000000000000000000010000000000000000000000000000000000000000010000000000000000000000000000000000000000004000000000000000000000000000000000000002000000800000000000000000000000000000080000008000000020000000000000000000000000000000000000000000000000000000000000000000",
      "type": "0x2",
      "transactionHash": "0xd544d4c9bde88ff17d9bbbf6d3fb728e077f3b18ca1a4e3adda9522d7e815ec0",
      "transactionIndex": "0x52",
      "blockHash": "0x40fd569b808f2fbf9ee7312933b11db3a04d260224c8b3c144a010837da22ddd",
      "blockNumber": "0x725329",
      "gasUsed": "0x13af8",
      "effectiveGasPrice": "0x1dea78489",
      "from": "0xc77f7fed3b5cc8249adc428c5f44c9063b9734b4",
      "to": "0x270e88f8683660553e8ba4eb2ad7c91a1710d769",
      "contractAddress": null
    }
  ],
  "libraries": [],
  "pending": [],
  "returns": {},
  "timestamp": 1736890359,
  "chain": 11155111,
  "commit": "51a374b"
}