{
  "transactions": [
    {
      "hash": "0xa15e1ad2b298aaf4ce602be3280d7bb4ef2831d9149d7bc10113615dde14e93d",
      "transactionType": "CALL",
      "contractName": null,
      "contractAddress": "0x8aafd3ede9adb0ff97c7aebce82a919afb1c8764",
      "function": "sell(uint256)",
      "arguments": [
        "1903129286667616711"
      ],
      "transaction": {
        "from": "0xc77f7fed3b5cc8249adc428c5f44c9063b9734b4",
        "to": "0x8aafd3ede9adb0ff97c7aebce82a919afb1c8764",
        "gas": "0x1724d",
        "value": "0x0",
        "input": "0xe4849b320000000000000000000000000000000000000000000000001a694600c57741c7",
        "nonce": "0x1443",
        "chainId": "0xaa36a7"
      },
      "additionalContracts": [],
      "isFixedGasLimit": false
    }
  ],
  "receipts": [
    {
      "status": "0x1",
      "cumulativeGasUsed": "0xf39894",
      "logs": [
        {
          "address": "0x8aafd3ede9adb0ff97c7aebce82a919afb1c8764",
          "topics": [
            "0xddf252ad1be2c89b69c2b068fc378daa952ba7f163c4a11628f55a4df523b3ef",
            "0x000000000000000000000000c77f7fed3b5cc8249adc428c5f44c9063b9734b4",
            "0x0000000000000000000000000000000000000000000000000000000000000000"
          ],
          "data": "0x0000000000000000000000000000000000000000000000001a332eea3cb7d6c2",
          "blockHash": "0x060f3617250f46029a94c34663a98d0e9d3401836c8cadbdb1bd51861db85e99",
          "blockNumber": "0x731b85",
          "transactionHash": "0xa15e1ad2b298aaf4ce602be3280d7bb4ef2831d9149d7bc10113615dde14e93d",
          "transactionIndex": "0xc3",
          "logIndex": "0xd2",
          "removed": false
        },
        {
          "address": "0x8aafd3ede9adb0ff97c7aebce82a919afb1c8764",
          "topics": [
            "0xddf252ad1be2c89b69c2b068fc378daa952ba7f163c4a11628f55a4df523b3ef",
            "0x000000000000000000000000c77f7fed3b5cc8249adc428c5f44c9063b9734b4",
            "0x000000000000000000000000c77f7fed3b5cc8249adc428c5f44c9063b9734b4"
          ],
          "data": "0x0000000000000000000000000000000000000000000000000036171688bf6b05",
          "blockHash": "0x060f3617250f46029a94c34663a98d0e9d3401836c8cadbdb1bd51861db85e99",
          "blockNumber": "0x731b85",
          "transactionHash": "0xa15e1ad2b298aaf4ce602be3280d7bb4ef2831d9149d7bc10113615dde14e93d",
          "transactionIndex": "0xc3",
          "logIndex": "0xd3",
          "removed": false
        },
        {
          "address": "0x8aafd3ede9adb0ff97c7aebce82a919afb1c8764",
          "topics": [
            "0x4afcb4a87cdbd9974efdb92ee48bc8d7cd0ae4bf217004db3d080cbaee652ca7"
          ],
          "data": "0x0000000000000000000000000000000000000000000000000000000067904718000000000000000000000000000000000000000000000000000eeec036ace77d000000000000000000000000000000000000000000000000001c6ae24fcb05d8",
          "blockHash": "0x060f3617250f46029a94c34663a98d0e9d3401836c8cadbdb1bd51861db85e99",
          "blockNumber": "0x731b85",
          "transactionHash": "0xa15e1ad2b298aaf4ce602be3280d7bb4ef2831d9149d7bc10113615dde14e93d",
          "transactionIndex": "0xc3",
          "logIndex": "0xd4",
          "removed": false
        }
      ],
      "logsBloom": "0x00000000000000000000000000000000000000000600000000000000000000000000000000000000000000000000000000000000000000004000000000000000000000000000004000000008000000000000000000000000000000000000000000000000020000000000000000000800020000000000000000000010000000000000000000000000000000000000000000000000000000000000010000000000000000000000000000000000000000004000000000000000000000000000000000000002000000800000000000000000000000000000080000000000000020000000000000000000000000000000000000000000000000000000000000000000",
      "type": "0x2",
      "transactionHash": "0xa15e1ad2b298aaf4ce602be3280d7bb4ef2831d9149d7bc10113615dde14e93d",
      "transactionIndex": "0xc3",
      "blockHash": "0x060f3617250f46029a94c34663a98d0e9d3401836c8cadbdb1bd51861db85e99",
      "blockNumber": "0x731b85",
      "gasUsed": "0xfd33",
      "effectiveGasPrice": "0x10936663f",
      "from": "0xc77f7fed3b5cc8249adc428c5f44c9063b9734b4",
      "to": "0x8aafd3ede9adb0ff97c7aebce82a919afb1c8764",
      "contractAddress": null
    }
  ],
  "libraries": [],
  "pending": [],
  "returns": {},
  "timestamp": 1737508633,
  "chain": 11155111,
  "commit": "1d2fb70"
}