{
  "transactions": [
    {
      "hash": "0xbd7b7bc82bb8a395428f88e7a51a0b537bf4aa403cc7e11bc174f438bdfbcec2",
      "transactionType": "CALL",
      "contractName": null,
      "contractAddress": "0xbf4a322f1496e5c3d34a9bcdb4c60567b38c7de2",
      "function": "buy(address)",
      "arguments": [
        "0xC77f7fed3b5Cc8249aDc428c5F44C9063B9734b4"
      ],
      "transaction": {
        "from": "0xc77f7fed3b5cc8249adc428c5f44c9063b9734b4",
        "to": "0xbf4a322f1496e5c3d34a9bcdb4c60567b38c7de2",
        "gas": "0x1b309",
        "value": "0xde0b6b3a7640000",
        "input": "0xf088d547000000000000000000000000c77f7fed3b5cc8249adc428c5f44c9063b9734b4",
        "nonce": "0xb16",
        "chainId": "0xaa36a7"
      },
      "additionalContracts": [],
      "isFixedGasLimit": false
    }
  ],
  "receipts": [
    {
      "status": "0x1",
      "cumulativeGasUsed": "0x5b0150",
      "logs": [
        {
          "address": "0xbf4a322f1496e5c3d34a9bcdb4c60567b38c7de2",
          "topics": [
            "0xddf252ad1be2c89b69c2b068fc378daa952ba7f163c4a11628f55a4df523b3ef",
            "0x0000000000000000000000000000000000000000000000000000000000000000",
            "0x000000000000000000000000c77f7fed3b5cc8249adc428c5f44c9063b9734b4"
          ],
          "data": "0x0000000000000000000000000000000000000000000000352700eabd7dfc06f9",
          "blockHash": "0xfdaa1afc0932fd23c1480aa22cb248782b98cfd8909c8a063de2fd934e0099bf",
          "blockNumber": "0x725b10",
          "transactionHash": "0xbd7b7bc82bb8a395428f88e7a51a0b537bf4aa403cc7e11bc174f438bdfbcec2",
          "transactionIndex": "0x4e",
          "logIndex": "0x4d",
          "removed": false
        },
        {
          "address": "0xbf4a322f1496e5c3d34a9bcdb4c60567b38c7de2",
          "topics": [
            "0xddf252ad1be2c89b69c2b068fc378daa952ba7f163c4a11628f55a4df523b3ef",
            "0x0000000000000000000000000000000000000000000000000000000000000000",
            "0x000000000000000000000000c77f7fed3b5cc8249adc428c5f44c9063b9734b4"
          ],
          "data": "0x00000000000000000000000000000000000000000000000029464d6b07a48b15",
          "blockHash": "0xfdaa1afc0932fd23c1480aa22cb248782b98cfd8909c8a063de2fd934e0099bf",
          "blockNumber": "0x725b10",
          "transactionHash": "0xbd7b7bc82bb8a395428f88e7a51a0b537bf4aa403cc7e11bc174f438bdfbcec2",
          "transactionIndex": "0x4e",
          "logIndex": "0x4e",
          "removed": false
        },
        {
          "address": "0xbf4a322f1496e5c3d34a9bcdb4c60567b38c7de2",
          "topics": [
            "0x4afcb4a87cdbd9974efdb92ee48bc8d7cd0ae4bf217004db3d080cbaee652ca7"
          ],
          "data": "0x000000000000000000000000000000000000000000000000000000006787371c00000000000000000000000000000000000000000000000000039653be8700130000000000000000000000000000000000000000000000000de0b6b3a7640000",
          "blockHash": "0xfdaa1afc0932fd23c1480aa22cb248782b98cfd8909c8a063de2fd934e0099bf",
          "blockNumber": "0x725b10",
          "transactionHash": "0xbd7b7bc82bb8a395428f88e7a51a0b537bf4aa403cc7e11bc174f438bdfbcec2",
          "transactionIndex": "0x4e",
          "logIndex": "0x4f",
          "removed": false
        }
      ],
      "logsBloom": "0x00000000000000000000000000000000000000000000000000000000000000000000000000000000000000000000000000000000000000004000000000000000000000000000000000000008000000000000001000000000000000000000000000000000020000000000000000000800020000000000000000000010000000000000000000000000000000000000000000000000000008000000010000000000000000000000000000000000000000004000000000000000000000000000000000000002000000800000000000001000000000000000080000000000000020000000000000000000000000000000000000000000000000000000000000000000",
      "type": "0x2",
      "transactionHash": "0xbd7b7bc82bb8a395428f88e7a51a0b537bf4aa403cc7e11bc174f438bdfbcec2",
      "transactionIndex": "0x4e",
      "blockHash": "0xfdaa1afc0932fd23c1480aa22cb248782b98cfd8909c8a063de2fd934e0099bf",
      "blockNumber": "0x725b10",
      "gasUsed": "0x13af6",
      "effectiveGasPrice": "0x8ecef7d2",
      "from": "0xc77f7fed3b5cc8249adc428c5f44c9063b9734b4",
      "to": "0xbf4a322f1496e5c3d34a9bcdb4c60567b38c7de2",
      "contractAddress": null
    }
  ],
  "libraries": [],
  "pending": [],
  "returns": {},
  "timestamp": 1736914717,
  "chain": 11155111,
  "commit": "51a374b"
}