{
  "transactions": [
    {
      "hash": "0x6b6a2f22a795d77aa7ad9da06faa4d7e0f3f8869e246da7c22347125b847dc5d",
      "transactionType": "CALL",
      "contractName": null,
      "contractAddress": "0x8aafd3ede9adb0ff97c7aebce82a919afb1c8764",
      "function": "sell(uint256)",
      "arguments": [
        "412548"
      ],
      "transaction": {
        "from": "0xc77f7fed3b5cc8249adc428c5f44c9063b9734b4",
        "to": "0x8aafd3ede9adb0ff97c7aebce82a919afb1c8764",
        "gas": "0x16208",
        "value": "0x0",
        "input": "0xe4849b320000000000000000000000000000000000000000000000000000000000064b84",
        "nonce": "0x1557",
        "chainId": "0xaa36a7"
      },
      "additionalContracts": [],
      "isFixedGasLimit": false
    }
  ],
  "receipts": [
    {
      "status": "0x1",
      "cumulativeGasUsed": "0xbd3021",
      "logs": [
        {
          "address": "0x8aafd3ede9adb0ff97c7aebce82a919afb1c8764",
          "topics": [
            "0xddf252ad1be2c89b69c2b068fc378daa952ba7f163c4a11628f55a4df523b3ef",
            "0x000000000000000000000000c77f7fed3b5cc8249adc428c5f44c9063b9734b4",
            "0x0000000000000000000000000000000000000000000000000000000000000000"
          ],
          "data": "0x0000000000000000000000000000000000000000000000000000000000063ea0",
          "blockHash": "0x8d0c2a9a2a34f6563bd7206eb4d3ea0c661c3880ba7ceb257d19484127085c06",
          "blockNumber": "0x731cbd",
          "transactionHash": "0x6b6a2f22a795d77aa7ad9da06faa4d7e0f3f8869e246da7c22347125b847dc5d",
          "transactionIndex": "0x7e",
          "logIndex": "0xe2",
          "removed": false
        },
        {
          "address": "0x8aafd3ede9adb0ff97c7aebce82a919afb1c8764",
          "topics": [
            "0xddf252ad1be2c89b69c2b068fc378daa952ba7f163c4a11628f55a4df523b3ef",
            "0x000000000000000000000000c77f7fed3b5cc8249adc428c5f44c9063b9734b4",
            "0x000000000000000000000000c77f7fed3b5cc8249adc428c5f44c9063b9734b4"
          ],
          "data": "0x0000000000000000000000000000000000000000000000000000000000000ce4",
          "blockHash": "0x8d0c2a9a2a34f6563bd7206eb4d3ea0c661c3880ba7ceb257d19484127085c06",
          "blockNumber": "0x731cbd",
          "transactionHash": "0x6b6a2f22a795d77aa7ad9da06faa4d7e0f3f8869e246da7c22347125b847dc5d",
          "transactionIndex": "0x7e",
          "logIndex": "0xe3",
          "removed": false
        },
        {
          "address": "0x8aafd3ede9adb0ff97c7aebce82a919afb1c8764",
          "topics": [
            "0x4afcb4a87cdbd9974efdb92ee48bc8d7cd0ae4bf217004db3d080cbaee652ca7"
          ],
          "data": "0x00000000000000000000000000000000000000000000000000000000679055b80000000000000000000000000000000000000000000000000012099a51cd69d6000000000000000000000000000000000000000000000000000000000000082e",
          "blockHash": "0x8d0c2a9a2a34f6563bd7206eb4d3ea0c661c3880ba7ceb257d19484127085c06",
          "blockNumber": "0x731cbd",
          "transactionHash": "0x6b6a2f22a795d77aa7ad9da06faa4d7e0f3f8869e246da7c22347125b847dc5d",
          "transactionIndex": "0x7e",
          "logIndex": "0xe4",
          "removed": false
        }
      ],
      "logsBloom": "0x00000000000000000000000000000000000000000600000000000000000000000000000000000000000000000000000000000000000000004000000000000000000000000000004000000008000000000000000000000000000000000000000000000000020000000000000000000800020000000000000000000010000000000000000000000000000000000000000000000000000000000000010000000000000000000000000000000000000000004000000000000000000000000000000000000002000000800000000000000000000000000000080000000000000020000000000000000000000000000000000000000000000000000000000000000000",
      "type": "0x2",
      "transactionHash": "0x6b6a2f22a795d77aa7ad9da06faa4d7e0f3f8869e246da7c22347125b847dc5d",
      "transactionIndex": "0x7e",
      "blockHash": "0x8d0c2a9a2a34f6563bd7206eb4d3ea0c661c3880ba7ceb257d19484127085c06",
      "blockNumber": "0x731cbd",
      "gasUsed": "0xf213",
      "effectiveGasPrice": "0xb4ff030b",
      "from": "0xc77f7fed3b5cc8249adc428c5f44c9063b9734b4",
      "to": "0x8aafd3ede9adb0ff97c7aebce82a919afb1c8764",
      "contractAddress": null
    }
  ],
  "libraries": [],
  "pending": [],
  "returns": {},
  "timestamp": 1737512377,
  "chain": 11155111,
  "commit": "1d2fb70"
}