{
  "transactions": [
    {
      "hash": "0xcef4b09b6520f3b5e7656a4909f376939e7d72afebace138ad5241a6762556ae",
      "transactionType": "CALL",
      "contractName": null,
      "contractAddress": "0xbf4a322f1496e5c3d34a9bcdb4c60567b38c7de2",
      "function": "sell(uint256)",
      "arguments": [
        "982381553025522789964"
      ],
      "transaction": {
        "from": "0xc77f7fed3b5cc8249adc428c5f44c9063b9734b4",
        "to": "0xbf4a322f1496e5c3d34a9bcdb4c60567b38c7de2",
        "gas": "0x16fea",
        "value": "0x0",
        "input": "0xe4849b32000000000000000000000000000000000000000000000035414861989edaee4c",
        "nonce": "0xb67",
        "chainId": "0xaa36a7"
      },
      "additionalContracts": [],
      "isFixedGasLimit": false
    }
  ],
  "receipts": [
    {
      "status": "0x1",
      "cumulativeGasUsed": "0x864636",
      "logs": [
        {
          "address": "0xbf4a322f1496e5c3d34a9bcdb4c60567b38c7de2",
          "topics": [
            "0xddf252ad1be2c89b69c2b068fc378daa952ba7f163c4a11628f55a4df523b3ef",
            "0x000000000000000000000000c77f7fed3b5cc8249adc428c5f44c9063b9734b4",
            "0x0000000000000000000000000000000000000000000000000000000000000000"
          ],
          "data": "0x000000000000000000000000000000000000000000000035414861989edaee4c",
          "blockHash": "0x5a62cbda5077c44563a5dc0db85a5b6dea8854762faca52d11927798d3487fbf",
          "blockNumber": "0x725b72",
          "transactionHash": "0xcef4b09b6520f3b5e7656a4909f376939e7d72afebace138ad5241a6762556ae",
          "transactionIndex": "0x4f",
          "logIndex": "0x78",
          "removed": false
        },
        {
          "address": "0xbf4a322f1496e5c3d34a9bcdb4c60567b38c7de2",
          "topics": [
            "0x4afcb4a87cdbd9974efdb92ee48bc8d7cd0ae4bf217004db3d080cbaee652ca7"
          ],
          "data": "0x0000000000000000000000000000000000000000000000000000000067873bb40000000000000000000000000000000000000000000000000003975a757ed04a0000000000000000000000000000000000000000000000000dc7e3e79a7e2903",
          "blockHash": "0x5a62cbda5077c44563a5dc0db85a5b6dea8854762faca52d11927798d3487fbf",
          "blockNumber": "0x725b72",
          "transactionHash": "0xcef4b09b6520f3b5e7656a4909f376939e7d72afebace138ad5241a6762556ae",
          "transactionIndex": "0x4f",
          "logIndex": "0x79",
          "removed": false
        }
      ],
      "logsBloom": "0x00000000000000000000000000000000000000000000000000000000000000000000000000000000000000000000000000000000000000004000000000000000000000000000000000000008000000000000001000000000000000000000000000000000020000000000000000000800020000000000000000000010000000000000000000000000000000000000000000000000000008000000010000000000000000000000000000000000000000004000000000000000000000000000000000000002000000800000000000001000000000000000080000000000000020000000000000000000000000000000000000000000000000000000000000000000",
      "type": "0x2",
      "transactionHash": "0xcef4b09b6520f3b5e7656a4909f376939e7d72afebace138ad5241a6762556ae",
      "transactionIndex": "0x4f",
      "blockHash": "0x5a62cbda5077c44563a5dc0db85a5b6dea8854762faca52d11927798d3487fbf",
      "blockNumber": "0x725b72",
      "gasUsed": "0xfb91",
      "effectiveGasPrice": "0x40df6cda",
      "from": "0xc77f7fed3b5cc8249adc428c5f44c9063b9734b4",
      "to": "0xbf4a322f1496e5c3d34a9bcdb4c60567b38c7de2",
      "contractAddress": null
    }
  ],
  "libraries": [],
  "pending": [],
  "returns": {},
  "timestamp": 1736915893,
  "chain": 11155111,
  "commit": "51a374b"
}