{
  "transactions": [
    {
      "hash": "0x42e24c4f48bfe279b8c44d79af7e0b304b25310c0ef9e9ac7c68ff2d5b32e90e",
      "transactionType": "CALL",
      "contractName": null,
      "contractAddress": "0x8aafd3ede9adb0ff97c7aebce82a919afb1c8764",
      "function": "sell(uint256)",
      "arguments": [
        "223885163277205201888"
      ],
      "transaction": {
        "from": "0xc77f7fed3b5cc8249adc428c5f44c9063b9734b4",
        "to": "0x8aafd3ede9adb0ff97c7aebce82a919afb1c8764",
        "gas": "0x17270",
        "value": "0x0",
        "input": "0xe4849b3200000000000000000000000000000000000000000000000c2307e1ce622563e0",
        "nonce": "0x1493",
        "chainId": "0xaa36a7"
      },
      "additionalContracts": [],
      "isFixedGasLimit": false
    }
  ],
  "receipts": [
    {
      "status": "0x1",
      "cumulativeGasUsed": "0x754bae",
      "logs": [
        {
          "address": "0x8aafd3ede9adb0ff97c7aebce82a919afb1c8764",
          "topics": [
            "0xddf252ad1be2c89b69c2b068fc378daa952ba7f163c4a11628f55a4df523b3ef",
            "0x000000000000000000000000c77f7fed3b5cc8249adc428c5f44c9063b9734b4",
            "0x0000000000000000000000000000000000000000000000000000000000000000"
          ],
          "data": "0x00000000000000000000000000000000000000000000000c0a2caed905336d51",
          "blockHash": "0x32c5da4d3403a40940d0c176c610f6d78b1b534be9168e79bbef8b886fe8b0ee",
          "blockNumber": "0x731be5",
          "transactionHash": "0x42e24c4f48bfe279b8c44d79af7e0b304b25310c0ef9e9ac7c68ff2d5b32e90e",
          "transactionIndex": "0x4d",
          "logIndex": "0x80",
          "removed": false
        },
        {
          "address": "0x8aafd3ede9adb0ff97c7aebce82a919afb1c8764",
          "topics": [
            "0xddf252ad1be2c89b69c2b068fc378daa952ba7f163c4a11628f55a4df523b3ef",
            "0x000000000000000000000000c77f7fed3b5cc8249adc428c5f44c9063b9734b4",
            "0x000000000000000000000000c77f7fed3b5cc8249adc428c5f44c9063b9734b4"
          ],
          "data": "0x00000000000000000000000000000000000000000000000018db32f55cf1f68f",
          "blockHash": "0x32c5da4d3403a40940d0c176c610f6d78b1b534be9168e79bbef8b886fe8b0ee",
          "blockNumber": "0x731be5",
          "transactionHash": "0x42e24c4f48bfe279b8c44d79af7e0b304b25310c0ef9e9ac7c68ff2d5b32e90e",
          "transactionIndex": "0x4d",
          "logIndex": "0x81",
          "removed": false
        },
        {
          "address": "0x8aafd3ede9adb0ff97c7aebce82a919afb1c8764",
          "topics": [
            "0x4afcb4a87cdbd9974efdb92ee48bc8d7cd0ae4bf217004db3d080cbaee652ca7"
          ],
          "data": "0x0000000000000000000000000000000000000000000000000000000067904b98000000000000000000000000000000000000000000000000000fdc2de58958220000000000000000000000000000000000000000000000000dcd72350b1c2d50",
          "blockHash": "0x32c5da4d3403a40940d0c176c610f6d78b1b534be9168e79bbef8b886fe8b0ee",
          "blockNumber": "0x731be5",
          "transactionHash": "0x42e24c4f48bfe279b8c44d79af7e0b304b25310c0ef9e9ac7c68ff2d5b32e90e",
          "transactionIndex": "0x4d",
          "logIndex": "0x82",
          "removed": false
        }
      ],
      "logsBloom": "0x00000000000000000000000000000000000000000600000000000000000000000000000000000000000000000000000000000000000000004000000000000000000000000000004000000008000000000000000000000000000000000000000000000000020000000000000000000800020000000000000000000010000000000000000000000000000000000000000000000000000000000000010000000000000000000000000000000000000000004000000000000000000000000000000000000002000000800000000000000000000000000000080000000000000020000000000000000000000000000000000000000000000000000000000000000000",
      "type": "0x2",
      "transactionHash": "0x42e24c4f48bfe279b8c44d79af7e0b304b25310c0ef9e9ac7c68ff2d5b32e90e",
      "transactionIndex": "0x4d",
      "blockHash": "0x32c5da4d3403a40940d0c176c610f6d78b1b534be9168e79bbef8b886fe8b0ee",
      "blockNumber": "0x731be5",
      "gasUsed": "0xfd4b",
      "effectiveGasPrice": "0x11fd5db41",
      "from": "0xc77f7fed3b5cc8249adc428c5f44c9063b9734b4",
      "to": "0x8aafd3ede9adb0ff97c7aebce82a919afb1c8764",
      "contractAddress": null
    }
  ],
  "libraries": [],
  "pending": [],
  "returns": {},
  "timestamp": 1737509786,
  "chain": 11155111,
  "commit": "1d2fb70"
}