{
  "transactions": [
    {
      "hash": "0xd7a8433934db464275b41de0cdbd229e527f70c90b1b9a16bb3c39741ca6f226",
      "transactionType": "CALL",
      "contractName": null,
      "contractAddress": "0xbf4a322f1496e5c3d34a9bcdb4c60567b38c7de2",
      "function": "buy(address)",
      "arguments": [
        "0xC77f7fed3b5Cc8249aDc428c5F44C9063B9734b4"
      ],
      "transaction": {
        "from": "0xc77f7fed3b5cc8249adc428c5f44c9063b9734b4",
        "to": "0xbf4a322f1496e5c3d34a9bcdb4c60567b38c7de2",
        "gas": "0x1b309",
        "value": "0xde0b6b3a7640000",
        "input": "0xf088d547000000000000000000000000c77f7fed3b5cc8249adc428c5f44c9063b9734b4",
        "nonce": "0x94c",
        "chainId": "0xaa36a7"
      },
      "additionalContracts": [],
      "isFixedGasLimit": false
    }
  ],
  "receipts": [
    {
      "status": "0x1",
      "cumulativeGasUsed": "0x878ebb",
      "logs": [
        {
          "address": "0xbf4a322f1496e5c3d34a9bcdb4c60567b38c7de2",
          "topics": [
            "0xddf252ad1be2c89b69c2b068fc378daa952ba7f163c4a11628f55a4df523b3ef",
            "0x0000000000000000000000000000000000000000000000000000000000000000",
            "0x000000000000000000000000c77f7fed3b5cc8249adc428c5f44c9063b9734b4"
          ],
          "data": "0x0000000000000000000000000000000000000000000000357d3adc82432b5b63",
          "blockHash": "0x2a899ab05677887c492318282e68e16c8a68c0bd6a22ad40bc68b309b7eb7cfb",
          "blockNumber": "0x7258d8",
          "transactionHash": "0xd7a8433934db464275b41de0cdbd229e527f70c90b1b9a16bb3c39741ca6f226",
          "transactionIndex": "0x4b",
          "logIndex": "0x69",
          "removed": false
        },
        {
          "address": "0xbf4a322f1496e5c3d34a9bcdb4c60567b38c7de2",
          "topics": [
            "0xddf252ad1be2c89b69c2b068fc378daa952ba7f163c4a11628f55a4df523b3ef",
            "0x0000000000000000000000000000000000000000000000000000000000000000",
            "0x000000000000000000000000c77f7fed3b5cc8249adc428c5f44c9063b9734b4"
          ],
          "data": "0x00000000000000000000000000000000000000000000000029894296bf66e7e2",
          "blockHash": "0x2a899ab05677887c492318282e68e16c8a68c0bd6a22ad40bc68b309b7eb7cfb",
          "blockNumber": "0x7258d8",
          "transactionHash": "0xd7a8433934db464275b41de0cdbd229e527f70c90b1b9a16bb3c39741ca6f226",
          "transactionIndex": "0x4b",
          "logIndex": "0x6a",
          "removed": false
        },
        {
          "address": "0xbf4a322f1496e5c3d34a9bcdb4c60567b38c7de2",
          "topics": [
            "0x4afcb4a87cdbd9974efdb92ee48bc8d7cd0ae4bf217004db3d080cbaee652ca7"
          ],
          "data": "0x0000000000000000000000000000000000000000000000000000000067871c4c0000000000000000000000000000000000000000000000000003908b628641650000000000000000000000000000000000000000000000000de0b6b3a7640000",
          "blockHash": "0x2a899ab05677887c492318282e68e16c8a68c0bd6a22ad40bc68b309b7eb7cfb",
          "blockNumber": "0x7258d8",
          "transactionHash": "0xd7a8433934db464275b41de0cdbd229e527f70c90b1b9a16bb3c39741ca6f226",
          "transactionIndex": "0x4b",
          "logIndex": "0x6b",
          "removed": false
        }
      ],
      "logsBloom": "0x00000000000000000000000000000000000000000000000000000000000000000000000000000000000000000000000000000000000000004000000000000000000000000000000000000008000000000000001000000000000000000000000000000000020000000000000000000800020000000000000000000010000000000000000000000000000000000000000000000000000008000000010000000000000000000000000000000000000000004000000000000000000000000000000000000002000000800000000000001000000000000000080000000000000020000000000000000000000000000000000000000000000000000000000000000000",
      "type": "0x2",
      "transactionHash": "0xd7a8433934db464275b41de0cdbd229e527f70c90b1b9a16bb3c39741ca6f226",
      "transactionIndex": "0x4b",
      "blockHash": "0x2a899ab05677887c492318282e68e16c8a68c0bd6a22ad40bc68b309b7eb7cfb",
      "blockNumber": "0x7258d8",
      "gasUsed": "0x13af6",
      "effectiveGasPrice": "0x6b5e7653",
      "from": "0xc77f7fed3b5cc8249adc428c5f44c9063b9734b4",
      "to": "0xbf4a322f1496e5c3d34a9bcdb4c60567b38c7de2",
      "contractAddress": null
    }
  ],
  "libraries": [],
  "pending": [],
  "returns": {},
  "timestamp": 1736907853,
  "chain": 11155111,
  "commit": "51a374b"
}