{
  "transactions": [
    {
      "hash": "0x567cf6da968c72d58481e61ee932e4384cba6a371a9963ccd8cfce86f6114a96",
      "transactionType": "CALL",
      "contractName": null,
      "contractAddress": "0x8aafd3ede9adb0ff97c7aebce82a919afb1c8764",
      "function": "sell(uint256)",
      "arguments": [
        "11886"
      ],
      "transaction": {
        "from": "0xc77f7fed3b5cc8249adc428c5f44c9063b9734b4",
        "to": "0x8aafd3ede9adb0ff97c7aebce82a919afb1c8764",
        "gas": "0x14e4c",
        "value": "0x0",
        "input": "0xe4849b320000000000000000000000000000000000000000000000000000000000002e6e",
        "nonce": "0x1099",
        "chainId": "0xaa36a7"
      },
      "additionalContracts": [],
      "isFixedGasLimit": false
    }
  ],
  "receipts": [
    {
      "status": "0x1",
      "cumulativeGasUsed": "0xa386a1",
      "logs": [
        {
          "address": "0x8aafd3ede9adb0ff97c7aebce82a919afb1c8764",
          "topics": [
            "0xddf252ad1be2c89b69c2b068fc378daa952ba7f163c4a11628f55a4df523b3ef",
            "0x000000000000000000000000c77f7fed3b5cc8249adc428c5f44c9063b9734b4",
            "0x0000000000000000000000000000000000000000000000000000000000000000"
          ],
          "data": "0x0000000000000000000000000000000000000000000000000000000000002e0f",
          "blockHash": "0xc351feed3b990b10998f1e11b6f88958209757415c3631b3abfe83b381ddbdc6",
          "blockNumber": "0x731729",
          "transactionHash": "0x567cf6da968c72d58481e61ee932e4384cba6a371a9963ccd8cfce86f6114a96",
          "transactionIndex": "0x77",
          "logIndex": "0xab",
          "removed": false
        },
        {
          "address": "0x8aafd3ede9adb0ff97c7aebce82a919afb1c8764",
          "topics": [
            "0xddf252ad1be2c89b69c2b068fc378daa952ba7f163c4a11628f55a4df523b3ef",
            "0x000000000000000000000000c77f7fed3b5cc8249adc428c5f44c9063b9734b4",
            "0x000000000000000000000000c77f7fed3b5cc8249adc428c5f44c9063b9734b4"
          ],
          "data": "0x000000000000000000000000000000000000000000000000000000000000005f",
          "blockHash": "0xc351feed3b990b10998f1e11b6f88958209757415c3631b3abfe83b381ddbdc6",
          "blockNumber": "0x731729",
          "transactionHash": "0x567cf6da968c72d58481e61ee932e4384cba6a371a9963ccd8cfce86f6114a96",
          "transactionIndex": "0x77",
          "logIndex": "0xac",
          "removed": false
        },
        {
          "address": "0x8aafd3ede9adb0ff97c7aebce82a919afb1c8764",
          "topics": [
            "0x4afcb4a87cdbd9974efdb92ee48bc8d7cd0ae4bf217004db3d080cbaee652ca7"
          ],
          "data": "0x00000000000000000000000000000000000000000000000000000000679012b00000000000000000000000000000000000000000000000000004fc2eaec8738b0000000000000000000000000000000000000000000000000000000000000010",
          "blockHash": "0xc351feed3b990b10998f1e11b6f88958209757415c3631b3abfe83b381ddbdc6",
          "blockNumber": "0x731729",
          "transactionHash": "0x567cf6da968c72d58481e61ee932e4384cba6a371a9963ccd8cfce86f6114a96",
          "transactionIndex": "0x77",
          "logIndex": "0xad",
          "removed": false
        }
      ],
      "logsBloom": "0x00000000000000000000000000000000000000000600000000000000000000000000000000000000000000000000000000000000000000004000000000000000000000000000004000000008000000000000000000000000000000000000000000000000020000000000000000000800020000000000000000000010000000000000000000000000000000000000000000000000000000000000010000000000000000000000000000000000000000004000000000000000000000000000000000000002000000800000000000000000000000000000080000000000000020000000000000000000000000000000000000000000000000000000000000000000",
      "type": "0x2",
      "transactionHash": "0x567cf6da968c72d58481e61ee932e4384cba6a371a9963ccd8cfce86f6114a96",
      "transactionIndex": "0x77",
      "blockHash": "0xc351feed3b990b10998f1e11b6f88958209757415c3631b3abfe83b381ddbdc6",
      "blockNumber": "0x731729",
      "gasUsed": "0xf207",
      "effectiveGasPrice": "0x42a410e9",
      "from": "0xc77f7fed3b5cc8249adc428c5f44c9063b9734b4",
      "to": "0x8aafd3ede9adb0ff97c7aebce82a919afb1c8764",
      "contractAddress": null
    }
  ],
  "libraries": [],
  "pending": [],
  "returns": {},
  "timestamp": 1737495216,
  "chain": 11155111,
  "commit": "1d2fb70"
}