{
  "transactions": [
    {
      "hash": "0xcc8669b1f01cb9dcad8fa955e871f91bc13f7dd80a14d6ff8ebfb94941ef1d2d",
      "transactionType": "CALL",
      "contractName": null,
      "contractAddress": "0x8aafd3ede9adb0ff97c7aebce82a919afb1c8764",
      "function": "sell(uint256)",
      "arguments": [
        "12451"
      ],
      "transaction": {
        "from": "0xc77f7fed3b5cc8249adc428c5f44c9063b9734b4",
        "to": "0x8aafd3ede9adb0ff97c7aebce82a919afb1c8764",
        "gas": "0x14e4c",
        "value": "0x0",
        "input": "0xe4849b3200000000000000000000000000000000000000000000000000000000000030a3",
        "nonce": "0xf65",
        "chainId": "0xaa36a7"
      },
      "additionalContracts": [],
      "isFixedGasLimit": false
    }
  ],
  "receipts": [
    {
      "status": "0x1",
      "cumulativeGasUsed": "0xbff0ee",
      "logs": [
        {
          "address": "0x8aafd3ede9adb0ff97c7aebce82a919afb1c8764",
          "topics": [
            "0xddf252ad1be2c89b69c2b068fc378daa952ba7f163c4a11628f55a4df523b3ef",
            "0x000000000000000000000000c77f7fed3b5cc8249adc428c5f44c9063b9734b4",
            "0x0000000000000000000000000000000000000000000000000000000000000000"
          ],
          "data": "0x0000000000000000000000000000000000000000000000000000000000003040",
          "blockHash": "0x2b95c20443a4aaf2bc50b234e5409079be4ec794462d09fab921b0bbb1a8f897",
          "blockNumber": "0x7315c5",
          "transactionHash": "0xcc8669b1f01cb9dcad8fa955e871f91bc13f7dd80a14d6ff8ebfb94941ef1d2d",
          "transactionIndex": "0x86",
          "logIndex": "0xbd",
          "removed": false
        },
        {
          "address": "0x8aafd3ede9adb0ff97c7aebce82a919afb1c8764",
          "topics": [
            "0xddf252ad1be2c89b69c2b068fc378daa952ba7f163c4a11628f55a4df523b3ef",
            "0x000000000000000000000000c77f7fed3b5cc8249adc428c5f44c9063b9734b4",
            "0x000000000000000000000000c77f7fed3b5cc8249adc428c5f44c9063b9734b4"
          ],
          "data": "0x0000000000000000000000000000000000000000000000000000000000000063",
          "blockHash": "0x2b95c20443a4aaf2bc50b234e5409079be4ec794462d09fab921b0bbb1a8f897",
          "blockNumber": "0x7315c5",
          "transactionHash": "0xcc8669b1f01cb9dcad8fa955e871f91bc13f7dd80a14d6ff8ebfb94941ef1d2d",
          "transactionIndex": "0x86",
          "logIndex": "0xbe",
          "removed": false
        },
        {
          "address": "0x8aafd3ede9adb0ff97c7aebce82a919afb1c8764",
          "topics": [
            "0x4afcb4a87cdbd9974efdb92ee48bc8d7cd0ae4bf217004db3d080cbaee652ca7"
          ],
          "data": "0x00000000000000000000000000000000000000000000000000000000679001e80000000000000000000000000000000000000000000000000004c12f91818eda0000000000000000000000000000000000000000000000000000000000000010",
          "blockHash": "0x2b95c20443a4aaf2bc50b234e5409079be4ec794462d09fab921b0bbb1a8f897",
          "blockNumber": "0x7315c5",
          "transactionHash": "0xcc8669b1f01cb9dcad8fa955e871f91bc13f7dd80a14d6ff8ebfb94941ef1d2d",
          "transactionIndex": "0x86",
          "logIndex": "0xbf",
          "removed": false
        }
      ],
      "logsBloom": "0x00000000000000000000000000000000000000000600000000000000000000000000000000000000000000000000000000000000000000004000000000000000000000000000004000000008000000000000000000000000000000000000000000000000020000000000000000000800020000000000000000000010000000000000000000000000000000000000000000000000000000000000010000000000000000000000000000000000000000004000000000000000000000000000000000000002000000800000000000000000000000000000080000000000000020000000000000000000000000000000000000000000000000000000000000000000",
      "type": "0x2",
      "transactionHash": "0xcc8669b1f01cb9dcad8fa955e871f91bc13f7dd80a14d6ff8ebfb94941ef1d2d",
      "transactionIndex": "0x86",
      "blockHash": "0x2b95c20443a4aaf2bc50b234e5409079be4ec794462d09fab921b0bbb1a8f897",
      "blockNumber": "0x7315c5",
      "gasUsed": "0xf207",
      "effectiveGasPrice": "0x5fd9d357",
      "from": "0xc77f7fed3b5cc8249adc428c5f44c9063b9734b4",
      "to": "0x8aafd3ede9adb0ff97c7aebce82a919afb1c8764",
      "contractAddress": null
    }
  ],
  "libraries": [],
  "pending": [],
  "returns": {},
  "timestamp": 1737490920,
  "chain": 11155111,
  "commit": "1d2fb70"
}