{
  "transactions": [
    {
      "hash": "0x312952c1a5bf7a48e7a9aa8ac3e1191462a8d4df72a20befa65c83dd1fd223ed",
      "transactionType": "CALL",
      "contractName": null,
      "contractAddress": "0x5c89056db381db1908f86b0c82bd82b1fda23ba5",
      "function": "borrow(uint256,uint256)",
      "arguments": [
        "9999999999999990",
        "0"
      ],
      "transaction": {
        "from": "0xc77f7fed3b5cc8249adc428c5f44c9063b9734b4",
        "to": "0x5c89056db381db1908f86b0c82bd82b1fda23ba5",
        "gas": "0x57d50",
        "value": "0x0",
        "input": "0x0ecbcdab000000000000000000000000000000000000000000000000002386f26fc0fff60000000000000000000000000000000000000000000000000000000000000000",
        "nonce": "0x187f",
        "chainId": "0xaa36a7"
      },
      "additionalContracts": [],
      "isFixedGasLimit": false
    }
  ],
  "receipts": [
    {
      "status": "0x1",
      "cumulativeGasUsed": "0xc0cbf9",
      "logs": [
        {
          "address": "0x5c89056db381db1908f86b0c82bd82b1fda23ba5",
          "topics": [
            "0xddf252ad1be2c89b69c2b068fc378daa952ba7f163c4a11628f55a4df523b3ef",
            "0x000000000000000000000000c77f7fed3b5cc8249adc428c5f44c9063b9734b4",
            "0x0000000000000000000000005c89056db381db1908f86b0c82bd82b1fda23ba5"
          ],
          "data": "0x0000000000000000000000000000000000000000000000008ac7230489e7ffff",
          "blockHash": "0x92f9e8c30d75b7c9f03a3953a6bc7ff2e36a27f49046aed4a937c8085ae621f5",
          "blockNumber": "0x737ee1",
          "transactionHash": "0x312952c1a5bf7a48e7a9aa8ac3e1191462a8d4df72a20befa65c83dd1fd223ed",
          "transactionIndex": "0x60",
          "logIndex": "0xab",
          "removed": false
        },
        {
          "address": "0x5c89056db381db1908f86b0c82bd82b1fda23ba5",
          "topics": [
            "0xddf252ad1be2c89b69c2b068fc378daa952ba7f163c4a11628f55a4df523b3ef",
            "0x0000000000000000000000005c89056db381db1908f86b0c82bd82b1fda23ba5",
            "0x000000000000000000000000c77f7fed3b5cc8249adc428c5f44c9063b9734b4"
          ],
          "data": "0x000000000000000000000000000000000000000000000000000aa87bee537ed6",
          "blockHash": "0x92f9e8c30d75b7c9f03a3953a6bc7ff2e36a27f49046aed4a937c8085ae621f5",
          "blockNumber": "0x737ee1",
          "transactionHash": "0x312952c1a5bf7a48e7a9aa8ac3e1191462a8d4df72a20befa65c83dd1fd223ed",
          "transactionIndex": "0x60",
          "logIndex": "0xac",
          "removed": false
        },
        {
          "address": "0x5c89056db381db1908f86b0c82bd82b1fda23ba5",
          "topics": [
            "0xddf252ad1be2c89b69c2b068fc378daa952ba7f163c4a11628f55a4df523b3ef",
            "0x0000000000000000000000005c89056db381db1908f86b0c82bd82b1fda23ba5",
            "0x0000000000000000000000000000000000000000000000000000000000000000"
          ],
          "data": "0x0000000000000000000000000000000000000000000000000018de76816d7d4b",
          "blockHash": "0x92f9e8c30d75b7c9f03a3953a6bc7ff2e36a27f49046aed4a937c8085ae621f5",
          "blockNumber": "0x737ee1",
          "transactionHash": "0x312952c1a5bf7a48e7a9aa8ac3e1191462a8d4df72a20befa65c83dd1fd223ed",
          "transactionIndex": "0x60",
          "logIndex": "0xad",
          "removed": false
        },
        {
          "address": "0x5c89056db381db1908f86b0c82bd82b1fda23ba5",
          "topics": [
            "0x03bbe564cb1b78e43195eeadbde99e5b89b19345862807fcfb59f884e4165e25"
          ],
          "data": "0x000000000000000000000000c77f7fed3b5cc8249adc428c5f44c9063b9734b4000000000000000000000000000000000000000000000000002322fe594b07f7",
          "blockHash": "0x92f9e8c30d75b7c9f03a3953a6bc7ff2e36a27f49046aed4a937c8085ae621f5",
          "blockNumber": "0x737ee1",
          "transactionHash": "0x312952c1a5bf7a48e7a9aa8ac3e1191462a8d4df72a20befa65c83dd1fd223ed",
          "transactionIndex": "0x60",
          "logIndex": "0xae",
          "removed": false
        },
        {
          "address": "0x5c89056db381db1908f86b0c82bd82b1fda23ba5",
          "topics": [
            "0xaec00f5213a37254bc68a26b0685d1a5b2bf513e1e587c94c7df7f4a62b56c9c"
          ],
          "data": "0x0000000000000000000000000000000000000000000000008aa39c121a2703de000000000000000000000000000000000000000000000000002322fe594b07f7000000000000000000000000000000000000000000000000002322fe594b07f70000000000000000000000000000000000000000000000008aa39c121a2703de",
          "blockHash": "0x92f9e8c30d75b7c9f03a3953a6bc7ff2e36a27f49046aed4a937c8085ae621f5",
          "blockNumber": "0x737ee1",
          "transactionHash": "0x312952c1a5bf7a48e7a9aa8ac3e1191462a8d4df72a20befa65c83dd1fd223ed",
          "transactionIndex": "0x60",
          "logIndex": "0xaf",
          "removed": false
        },
        {
          "address": "0x5c89056db381db1908f86b0c82bd82b1fda23ba5",
          "topics": [
            "0x4afcb4a87cdbd9974efdb92ee48bc8d7cd0ae4bf217004db3d080cbaee652ca7"
          ],
          "data": "0x000000000000000000000000000000000000000000000000000000006795188400000000000000000000000000000000000000000000000000038e21bd40e347000000000000000000000000000000000000000000000000000009184e729fff",
          "blockHash": "0x92f9e8c30d75b7c9f03a3953a6bc7ff2e36a27f49046aed4a937c8085ae621f5",
          "blockNumber": "0x737ee1",
          "transactionHash": "0x312952c1a5bf7a48e7a9aa8ac3e1191462a8d4df72a20befa65c83dd1fd223ed",
          "transactionIndex": "0x60",
          "logIndex": "0xb0",
          "removed": false
        }
      ],
      "logsBloom": "0x00000000000000000000000000000100400000000000000000000000000000000008000000000000000000000000000000002000000000004000000000000000000000000000000000000008000000000000000000008000000000000000000000000000020000000000000000000800020000000000000000000010000000000000000000000000000000000000000000000200000000000000010000000080000000000000000000000400000000004000000000000000000000001000000010000002000000800000000000000000000000000000090000000000000020000000000020000000000000000000000000000000000000000000000000000000",
      "type": "0x2",
      "transactionHash": "0x312952c1a5bf7a48e7a9aa8ac3e1191462a8d4df72a20befa65c83dd1fd223ed",
      "transactionIndex": "0x60",
      "blockHash": "0x92f9e8c30d75b7c9f03a3953a6bc7ff2e36a27f49046aed4a937c8085ae621f5",
      "blockNumber": "0x737ee1",
      "gasUsed": "0x3f96d",
      "effectiveGasPrice": "0x651bccd6b",
      "from": "0xc77f7fed3b5cc8249adc428c5f44c9063b9734b4",
      "to": "0x5c89056db381db1908f86b0c82bd82b1fda23ba5",
      "contractAddress": null
    }
  ],
  "libraries": [],
  "pending": [],
  "returns": {},
  "timestamp": 1737824390,
  "chain": 11155111,
  "commit": "f5162e9"
}