{
  "transactions": [
    {
      "hash": "0xbccbe9e679049a03fdb15a4b19f7082a2c58fd407283851957b8dc381c0a134a",
      "transactionType": "CALL",
      "contractName": null,
      "contractAddress": "0x270e88f8683660553e8ba4eb2ad7c91a1710d769",
      "function": "sell(uint256)",
      "arguments": [
        "724625861862657472755"
      ],
      "transaction": {
        "from": "0xc77f7fed3b5cc8249adc428c5f44c9063b9734b4",
        "to": "0x270e88f8683660553e8ba4eb2ad7c91a1710d769",
        "gas": "0x16fec",
        "value": "0x0",
        "input": "0xe4849b3200000000000000000000000000000000000000000000002748343621b8f9b8f3",
        "nonce": "0x7ec",
        "chainId": "0xaa36a7"
      },
      "additionalContracts": [],
      "isFixedGasLimit": false
    }
  ],
  "receipts": [
    {
      "status": "0x1",
      "cumulativeGasUsed": "0x11c9b9f",
      "logs": [
        {
          "address": "0x270e88f8683660553e8ba4eb2ad7c91a1710d769",
          "topics": [
            "0xddf252ad1be2c89b69c2b068fc378daa952ba7f163c4a11628f55a4df523b3ef",
            "0x000000000000000000000000c77f7fed3b5cc8249adc428c5f44c9063b9734b4",
            "0x0000000000000000000000000000000000000000000000000000000000000000"
          ],
          "data": "0x00000000000000000000000000000000000000000000002748343621b8f9b8f3",
          "blockHash": "0x9794ee1192b4cefe369f95ab1ecb7759a69899148db33c19f8a2fc323f9190b2",
          "blockNumber": "0x725528",
          "transactionHash": "0xbccbe9e679049a03fdb15a4b19f7082a2c58fd407283851957b8dc381c0a134a",
          "transactionIndex": "0x48",
          "logIndex": "0x72",
          "removed": false
        },
        {
          "address": "0x270e88f8683660553e8ba4eb2ad7c91a1710d769",
          "topics": [
            "0x4afcb4a87cdbd9974efdb92ee48bc8d7cd0ae4bf217004db3d080cbaee652ca7"
          ],
          "data": "0x000000000000000000000000000000000000000000000000000000006786efe80000000000000000000000000000000000000000000000000004dea24feb63e40000000000000000000000000000000000000000000000000dc826e88b01695c",
          "blockHash": "0x9794ee1192b4cefe369f95ab1ecb7759a69899148db33c19f8a2fc323f9190b2",
          "blockNumber": "0x725528",
          "transactionHash": "0xbccbe9e679049a03fdb15a4b19f7082a2c58fd407283851957b8dc381c0a134a",
          "transactionIndex": "0x48",
          "logIndex": "0x73",
          "removed": false
        }
      ],
      "logsBloom": "0x00000000000000000000000000000000000000000000000000000000000000000000000000000000000000000000000020000000000000004000000000000000000000000000000000000008000000000000000000000000000000000000000000000000020000000000000000000800020000000000000000000010000000000000000000010000000000000000000000000000000000000000010000000000000000000000000000000000000000004000000000000000000000000000000000000002000000800000000000000000000000000000080000008000000020000000000000000000000000000000000000000000000000000000000000000000",
      "type": "0x2",
      "transactionHash": "0xbccbe9e679049a03fdb15a4b19f7082a2c58fd407283851957b8dc381c0a134a",
      "transactionIndex": "0x48",
      "blockHash": "0x9794ee1192b4cefe369f95ab1ecb7759a69899148db33c19f8a2fc323f9190b2",
      "blockNumber": "0x725528",
      "gasUsed": "0xfb93",
      "effectiveGasPrice": "0xaaebcf00",
      "from": "0xc77f7fed3b5cc8249adc428c5f44c9063b9734b4",
      "to": "0x270e88f8683660553e8ba4eb2ad7c91a1710d769",
      "contractAddress": null
    }
  ],
  "libraries": [],
  "pending": [],
  "returns": {},
  "timestamp": 1736896489,
  "chain": 11155111,
  "commit": "51a374b"
}