{
  "transactions": [
    {
      "hash": "0x56772efbfa29bc0a08ceb92989ce11adcce17f827a27fab6a86c35a2dd13a814",
      "transactionType": "CALL",
      "contractName": null,
      "contractAddress": "0x5eb9cc76c3506942c1c0ead70e877dd5e4f00cb0",
      "function": "sell(uint256)",
      "arguments": [
        "989133464411226630557"
      ],
      "transaction": {
        "from": "0xc77f7fed3b5cc8249adc428c5f44c9063b9734b4",
        "to": "0x5eb9cc76c3506942c1c0ead70e877dd5e4f00cb0",
        "gas": "0x16fec",
        "value": "0x0",
        "input": "0xe4849b320000000000000000000000000000000000000000000000359efbfd3a72a5e99d",
        "nonce": "0x32f",
        "chainId": "0xaa36a7"
      },
      "additionalContracts": [],
      "isFixedGasLimit": false
    }
  ],
  "receipts": [
    {
      "status": "0x1",
      "cumulativeGasUsed": "0xf36f13",
      "logs": [
        {
          "address": "0x5eb9cc76c3506942c1c0ead70e877dd5e4f00cb0",
          "topics": [
            "0xddf252ad1be2c89b69c2b068fc378daa952ba7f163c4a11628f55a4df523b3ef",
            "0x000000000000000000000000c77f7fed3b5cc8249adc428c5f44c9063b9734b4",
            "0x0000000000000000000000000000000000000000000000000000000000000000"
          ],
          "data": "0x0000000000000000000000000000000000000000000000359efbfd3a72a5e99d",
          "blockHash": "0xa3cae52f667f792b4c1c545bab5b798f60a1006b2044b858cbbcd998d002cb48",
          "blockNumber": "0x724f18",
          "transactionHash": "0x56772efbfa29bc0a08ceb92989ce11adcce17f827a27fab6a86c35a2dd13a814",
          "transactionIndex": "0x4a",
          "logIndex": "0x85",
          "removed": false
        },
        {
          "address": "0x5eb9cc76c3506942c1c0ead70e877dd5e4f00cb0",
          "topics": [
            "0x4afcb4a87cdbd9974efdb92ee48bc8d7cd0ae4bf217004db3d080cbaee652ca7"
          ],
          "data": "0x000000000000000000000000000000000000000000000000000000006786a6d40000000000000000000000000000000000000000000000000003910d90593da90000000000000000000000000000000000000000000000000dc7db133222fe6d",
          "blockHash": "0xa3cae52f667f792b4c1c545bab5b798f60a1006b2044b858cbbcd998d002cb48",
          "blockNumber": "0x724f18",
          "transactionHash": "0x56772efbfa29bc0a08ceb92989ce11adcce17f827a27fab6a86c35a2dd13a814",
          "transactionIndex": "0x4a",
          "logIndex": "0x86",
          "removed": false
        }
      ],
      "logsBloom": "0x00000000000000000000000000000000000000000000000000000000000000000000000000000000000000000000000000000000000000004000000000000000000000000000000000000008000000000000000000000000000000000000000000000000020000000000000004000800020000000000000000000010000000000000000000000000000000000000000000000000000000000000010000000000000000000000000000000000000000004000000000000000000000000000020000000002000000800000008000000000000000000000080000000000000020000000000000000000000000000000000000000000000000000000000000000000",
      "type": "0x2",
      "transactionHash": "0x56772efbfa29bc0a08ceb92989ce11adcce17f827a27fab6a86c35a2dd13a814",
      "transactionIndex": "0x4a",
      "blockHash": "0xa3cae52f667f792b4c1c545bab5b798f60a1006b2044b858cbbcd998d002cb48",
      "blockNumber": "0x724f18",
      "gasUsed": "0xfb93",
      "effectiveGasPrice": "0x6775361cb",
      "from": "0xc77f7fed3b5cc8249adc428c5f44c9063b9734b4",
      "to": "0x5eb9cc76c3506942c1c0ead70e877dd5e4f00cb0",
      "contractAddress": null
    }
  ],
  "libraries": [],
  "pending": [],
  "returns": {},
  "timestamp": 1736877781,
  "chain": 11155111,
  "commit": "51a374b"
}