{
  "transactions": [
    {
      "hash": "0xc46e46ede6210afdfec467ef3378ea5361c54c0ebd2f3544a41ca887b56de77e",
      "transactionType": "CALL",
      "contractName": null,
      "contractAddress": "0x270e88f8683660553e8ba4eb2ad7c91a1710d769",
      "function": "sell(uint256)",
      "arguments": [
        "723945179260447879560"
      ],
      "transaction": {
        "from": "0xc77f7fed3b5cc8249adc428c5f44c9063b9734b4",
        "to": "0x270e88f8683660553e8ba4eb2ad7c91a1710d769",
        "gas": "0x16fec",
        "value": "0x0",
        "input": "0xe4849b320000000000000000000000000000000000000000000000273ec1f0e9537bf188",
        "nonce": "0x7f4",
        "chainId": "0xaa36a7"
      },
      "additionalContracts": [],
      "isFixedGasLimit": false
    }
  ],
  "receipts": [
    {
      "status": "0x1",
      "cumulativeGasUsed": "0x145ab6c",
      "logs": [
        {
          "address": "0x270e88f8683660553e8ba4eb2ad7c91a1710d769",
          "topics": [
            "0xddf252ad1be2c89b69c2b068fc378daa952ba7f163c4a11628f55a4df523b3ef",
            "0x000000000000000000000000c77f7fed3b5cc8249adc428c5f44c9063b9734b4",
            "0x0000000000000000000000000000000000000000000000000000000000000000"
          ],
          "data": "0x0000000000000000000000000000000000000000000000273ec1f0e9537bf188",
          "blockHash": "0x60ccbb7d4cbb19ced2031a998afcc68d30d945e94fa2a55d2c74a15288c3fc97",
          "blockNumber": "0x725530",
          "transactionHash": "0xc46e46ede6210afdfec467ef3378ea5361c54c0ebd2f3544a41ca887b56de77e",
          "transactionIndex": "0x72",
          "logIndex": "0xb7",
          "removed": false
        },
        {
          "address": "0x270e88f8683660553e8ba4eb2ad7c91a1710d769",
          "topics": [
            "0x4afcb4a87cdbd9974efdb92ee48bc8d7cd0ae4bf217004db3d080cbaee652ca7"
          ],
          "data": "0x000000000000000000000000000000000000000000000000000000006786f0480000000000000000000000000000000000000000000000000004dfce4f09c1a40000000000000000000000000000000000000000000000000dc826d67fd8d58c",
          "blockHash": "0x60ccbb7d4cbb19ced2031a998afcc68d30d945e94fa2a55d2c74a15288c3fc97",
          "blockNumber": "0x725530",
          "transactionHash": "0xc46e46ede6210afdfec467ef3378ea5361c54c0ebd2f3544a41ca887b56de77e",
          "transactionIndex": "0x72",
          "logIndex": "0xb8",
          "removed": false
        }
      ],
      "logsBloom": "0x00000000000000000000000000000000000000000000000000000000000000000000000000000000000000000000000020000000000000004000000000000000000000000000000000000008000000000000000000000000000000000000000000000000020000000000000000000800020000000000000000000010000000000000000000010000000000000000000000000000000000000000010000000000000000000000000000000000000000004000000000000000000000000000000000000002000000800000000000000000000000000000080000008000000020000000000000000000000000000000000000000000000000000000000000000000",
      "type": "0x2",
      "transactionHash": "0xc46e46ede6210afdfec467ef3378ea5361c54c0ebd2f3544a41ca887b56de77e",
      "transactionIndex": "0x72",
      "blockHash": "0x60ccbb7d4cbb19ced2031a998afcc68d30d945e94fa2a55d2c74a15288c3fc97",
      "blockNumber": "0x725530",
      "gasUsed": "0xfb93",
      "effectiveGasPrice": "0x9262c659",
      "from": "0xc77f7fed3b5cc8249adc428c5f44c9063b9734b4",
      "to": "0x270e88f8683660553e8ba4eb2ad7c91a1710d769",
      "contractAddress": null
    }
  ],
  "libraries": [],
  "pending": [],
  "returns": {},
  "timestamp": 1736896585,
  "chain": 11155111,
  "commit": "51a374b"
}