{
  "transactions": [
    {
      "hash": "0x5e56adca86b448f14e4ad51cfd6eb1db688eb1647131ba8d64c0e9a9471d6a68",
      "transactionType": "CALL",
      "contractName": null,
      "contractAddress": "0x8aafd3ede9adb0ff97c7aebce82a919afb1c8764",
      "function": "sell(uint256)",
      "arguments": [
        "22547712056"
      ],
      "transaction": {
        "from": "0xc77f7fed3b5cc8249adc428c5f44c9063b9734b4",
        "to": "0x8aafd3ede9adb0ff97c7aebce82a919afb1c8764",
        "gas": "0x1722a",
        "value": "0x0",
        "input": "0xe4849b32000000000000000000000000000000000000000000000000000000053ff2c838",
        "nonce": "0x119a",
        "chainId": "0xaa36a7"
      },
      "additionalContracts": [],
      "isFixedGasLimit": false
    }
  ],
  "receipts": [
    {
      "status": "0x1",
      "cumulativeGasUsed": "0xe2d8b6",
      "logs": [
        {
          "address": "0x8aafd3ede9adb0ff97c7aebce82a919afb1c8764",
          "topics": [
            "0xddf252ad1be2c89b69c2b068fc378daa952ba7f163c4a11628f55a4df523b3ef",
            "0x000000000000000000000000c77f7fed3b5cc8249adc428c5f44c9063b9734b4",
            "0x0000000000000000000000000000000000000000000000000000000000000000"
          ],
          "data": "0x0000000000000000000000000000000000000000000000000000000535326038",
          "blockHash": "0x3775fd58a9cf34b674ca8b4538ae5f2cd24d50df5b213089b7a08773f9eb871b",
          "blockNumber": "0x731861",
          "transactionHash": "0x5e56adca86b448f14e4ad51cfd6eb1db688eb1647131ba8d64c0e9a9471d6a68",
          "transactionIndex": "0x98",
          "logIndex": "0xf2",
          "removed": false
        },
        {
          "address": "0x8aafd3ede9adb0ff97c7aebce82a919afb1c8764",
          "topics": [
            "0xddf252ad1be2c89b69c2b068fc378daa952ba7f163c4a11628f55a4df523b3ef",
            "0x000000000000000000000000c77f7fed3b5cc8249adc428c5f44c9063b9734b4",
            "0x000000000000000000000000c77f7fed3b5cc8249adc428c5f44c9063b9734b4"
          ],
          "data": "0x000000000000000000000000000000000000000000000000000000000ac06800",
          "blockHash": "0x3775fd58a9cf34b674ca8b4538ae5f2cd24d50df5b213089b7a08773f9eb871b",
          "blockNumber": "0x731861",
          "transactionHash": "0x5e56adca86b448f14e4ad51cfd6eb1db688eb1647131ba8d64c0e9a9471d6a68",
          "transactionIndex": "0x98",
          "logIndex": "0xf3",
          "removed": false
        },
        {
          "address": "0x8aafd3ede9adb0ff97c7aebce82a919afb1c8764",
          "topics": [
            "0x4afcb4a87cdbd9974efdb92ee48bc8d7cd0ae4bf217004db3d080cbaee652ca7"
          ],
          "data": "0x000000000000000000000000000000000000000000000000000000006790215c000000000000000000000000000000000000000000000000000521f30ef397de0000000000000000000000000000000000000000000000000000000001f10d14",
          "blockHash": "0x3775fd58a9cf34b674ca8b4538ae5f2cd24d50df5b213089b7a08773f9eb871b",
          "blockNumber": "0x731861",
          "transactionHash": "0x5e56adca86b448f14e4ad51cfd6eb1db688eb1647131ba8d64c0e9a9471d6a68",
          "transactionIndex": "0x98",
          "logIndex": "0xf4",
          "removed": false
        }
      ],
      "logsBloom": "0x00000000000000000000000000000000000000000600000000000000000000000000000000000000000000000000000000000000000000004000000000000000000000000000004000000008000000000000000000000000000000000000000000000000020000000000000000000800020000000000000000000010000000000000000000000000000000000000000000000000000000000000010000000000000000000000000000000000000000004000000000000000000000000000000000000002000000800000000000000000000000000000080000000000000020000000000000000000000000000000000000000000000000000000000000000000",
      "type": "0x2",
      "transactionHash": "0x5e56adca86b448f14e4ad51cfd6eb1db688eb1647131ba8d64c0e9a9471d6a68",
      "transactionIndex": "0x98",
      "blockHash": "0x3775fd58a9cf34b674ca8b4538ae5f2cd24d50df5b213089b7a08773f9eb871b",
      "blockNumber": "0x731861",
      "gasUsed": "0xfd1b",
      "effectiveGasPrice": "0x3237bcf9",
      "from": "0xc77f7fed3b5cc8249adc428c5f44c9063b9734b4",
      "to": "0x8aafd3ede9adb0ff97c7aebce82a919afb1c8764",
      "contractAddress": null
    }
  ],
  "libraries": [],
  "pending": [],
  "returns": {},
  "timestamp": 1737498974,
  "chain": 11155111,
  "commit": "1d2fb70"
}