{
  "transactions": [
    {
      "hash": "0x79deb19551303ab9525311fa6bf924561a0aa7f6b5731fdf97cd375b52722eb0",
      "transactionType": "CALL",
      "contractName": null,
      "contractAddress": "0x270e88f8683660553e8ba4eb2ad7c91a1710d769",
      "function": "sell(uint256)",
      "arguments": [
        "719719656831129439151"
      ],
      "transaction": {
        "from": "0xc77f7fed3b5cc8249adc428c5f44c9063b9734b4",
        "to": "0x270e88f8683660553e8ba4eb2ad7c91a1710d769",
        "gas": "0x16fec",
        "value": "0x0",
        "input": "0xe4849b32000000000000000000000000000000000000000000000027041ddea655834baf",
        "nonce": "0x826",
        "chainId": "0xaa36a7"
      },
      "additionalContracts": [],
      "isFixedGasLimit": false
    }
  ],
  "receipts": [
    {
      "status": "0x1",
      "cumulativeGasUsed": "0x11ce677",
      "logs": [
        {
          "address": "0x270e88f8683660553e8ba4eb2ad7c91a1710d769",
          "topics": [
            "0xddf252ad1be2c89b69c2b068fc378daa952ba7f163c4a11628f55a4df523b3ef",
            "0x000000000000000000000000c77f7fed3b5cc8249adc428c5f44c9063b9734b4",
            "0x0000000000000000000000000000000000000000000000000000000000000000"
          ],
          "data": "0x000000000000000000000000000000000000000000000027041ddea655834baf",
          "blockHash": "0xbf2f676b791f55fce6591c1d10985c350057eb31d9c949d887c30f133acd5be2",
          "blockNumber": "0x72556d",
          "transactionHash": "0x79deb19551303ab9525311fa6bf924561a0aa7f6b5731fdf97cd375b52722eb0",
          "transactionIndex": "0x45",
          "logIndex": "0x76",
          "removed": false
        },
        {
          "address": "0x270e88f8683660553e8ba4eb2ad7c91a1710d769",
          "topics": [
            "0x4afcb4a87cdbd9974efdb92ee48bc8d7cd0ae4bf217004db3d080cbaee652ca7"
          ],
          "data": "0x000000000000000000000000000000000000000000000000000000006786f3240000000000000000000000000000000000000000000000000004e721506391500000000000000000000000000000000000000000000000000dc826667ad8d6f3",
          "blockHash": "0xbf2f676b791f55fce6591c1d10985c350057eb31d9c949d887c30f133acd5be2",
          "blockNumber": "0x72556d",
          "transactionHash": "0x79deb19551303ab9525311fa6bf924561a0aa7f6b5731fdf97cd375b52722eb0",
          "transactionIndex": "0x45",
          "logIndex": "0x77",
          "removed": false
        }
      ],
      "logsBloom": "0x00000000000000000000000000000000000000000000000000000000000000000000000000000000000000000000000020000000000000004000000000000000000000000000000000000008000000000000000000000000000000000000000000000000020000000000000000000800020000000000000000000010000000000000000000010000000000000000000000000000000000000000010000000000000000000000000000000000000000004000000000000000000000000000000000000002000000800000000000000000000000000000080000008000000020000000000000000000000000000000000000000000000000000000000000000000",
      "type": "0x2",
      "transactionHash": "0x79deb19551303ab9525311fa6bf924561a0aa7f6b5731fdf97cd375b52722eb0",
      "transactionIndex": "0x45",
      "blockHash": "0xbf2f676b791f55fce6591c1d10985c350057eb31d9c949d887c30f133acd5be2",
      "blockNumber": "0x72556d",
      "gasUsed": "0xfb93",
      "effectiveGasPrice": "0x93c8e45a",
      "from": "0xc77f7fed3b5cc8249adc428c5f44c9063b9734b4",
      "to": "0x270e88f8683660553e8ba4eb2ad7c91a1710d769",
      "contractAddress": null
    }
  ],
  "libraries": [],
  "pending": [],
  "returns": {},
  "timestamp": 1736897317,
  "chain": 11155111,
  "commit": "51a374b"
}