{
  "transactions": [
    {
      "hash": "0x30aac581c831f2a050e5fd2a9050af2788321abde1446906640c6fd05f592a18",
      "transactionType": "CALL",
      "contractName": null,
      "contractAddress": "0xbf4a322f1496e5c3d34a9bcdb4c60567b38c7de2",
      "function": "sell(uint256)",
      "arguments": [
        "979797924148884410432"
      ],
      "transaction": {
        "from": "0xc77f7fed3b5cc8249adc428c5f44c9063b9734b4",
        "to": "0xbf4a322f1496e5c3d34a9bcdb4c60567b38c7de2",
        "gas": "0x16fea",
        "value": "0x0",
        "input": "0xe4849b320000000000000000000000000000000000000000000000351d6d7cd24f621040",
        "nonce": "0xc27",
        "chainId": "0xaa36a7"
      },
      "additionalContracts": [],
      "isFixedGasLimit": false
    }
  ],
  "receipts": [
    {
      "status": "0x1",
      "cumulativeGasUsed": "0x1073fd2",
      "logs": [
        {
          "address": "0xbf4a322f1496e5c3d34a9bcdb4c60567b38c7de2",
          "topics": [
            "0xddf252ad1be2c89b69c2b068fc378daa952ba7f163c4a11628f55a4df523b3ef",
            "0x000000000000000000000000c77f7fed3b5cc8249adc428c5f44c9063b9734b4",
            "0x0000000000000000000000000000000000000000000000000000000000000000"
          ],
          "data": "0x0000000000000000000000000000000000000000000000351d6d7cd24f621040",
          "blockHash": "0xed3e2611840a435b9964cd433976f756339fbb80cd6ecf3ab8db4421224f5289",
          "blockNumber": "0x725c59",
          "transactionHash": "0x30aac581c831f2a050e5fd2a9050af2788321abde1446906640c6fd05f592a18",
          "transactionIndex": "0x6f",
          "logIndex": "0xc2",
          "removed": false
        },
        {
          "address": "0xbf4a322f1496e5c3d34a9bcdb4c60567b38c7de2",
          "topics": [
            "0x4afcb4a87cdbd9974efdb92ee48bc8d7cd0ae4bf217004db3d080cbaee652ca7"
          ],
          "data": "0x0000000000000000000000000000000000000000000000000000000067874688000000000000000000000000000000000000000000000000000399c70c4c225c0000000000000000000000000000000000000000000000000dc7e3e198b35fec",
          "blockHash": "0xed3e2611840a435b9964cd433976f756339fbb80cd6ecf3ab8db4421224f5289",
          "blockNumber": "0x725c59",
          "transactionHash": "0x30aac581c831f2a050e5fd2a9050af2788321abde1446906640c6fd05f592a18",
          "transactionIndex": "0x6f",
          "logIndex": "0xc3",
          "removed": false
        }
      ],
      "logsBloom": "0x00000000000000000000000000000000000000000000000000000000000000000000000000000000000000000000000000000000000000004000000000000000000000000000000000000008000000000000001000000000000000000000000000000000020000000000000000000800020000000000000000000010000000000000000000000000000000000000000000000000000008000000010000000000000000000000000000000000000000004000000000000000000000000000000000000002000000800000000000001000000000000000080000000000000020000000000000000000000000000000000000000000000000000000000000000000",
      "type": "0x2",
      "transactionHash": "0x30aac581c831f2a050e5fd2a9050af2788321abde1446906640c6fd05f592a18",
      "transactionIndex": "0x6f",
      "blockHash": "0xed3e2611840a435b9964cd433976f756339fbb80cd6ecf3ab8db4421224f5289",
      "blockNumber": "0x725c59",
      "gasUsed": "0xfb91",
      "effectiveGasPrice": "0x173cadb0f",
      "from": "0xc77f7fed3b5cc8249adc428c5f44c9063b9734b4",
      "to": "0xbf4a322f1496e5c3d34a9bcdb4c60567b38c7de2",
      "contractAddress": null
    }
  ],
  "libraries": [],
  "pending": [],
  "returns": {},
  "timestamp": 1736918666,
  "chain": 11155111,
  "commit": "51a374b"
}