{
  "transactions": [
    {
      "hash": "0x83bc64c6ab27aeb1e8a4e416ee126cebe777c06fb8bd42d18a955f7299b25b18",
      "transactionType": "CALL",
      "contractName": null,
      "contractAddress": "0x5eb9cc76c3506942c1c0ead70e877dd5e4f00cb0",
      "function": "sell(uint256)",
      "arguments": [
        "989087569673654530569"
      ],
      "transaction": {
        "from": "0xc77f7fed3b5cc8249adc428c5f44c9063b9734b4",
        "to": "0x5eb9cc76c3506942c1c0ead70e877dd5e4f00cb0",
        "gas": "0x16fec",
        "value": "0x0",
        "input": "0xe4849b320000000000000000000000000000000000000000000000359e58f035289a7209",
        "nonce": "0x44f",
        "chainId": "0xaa36a7"
      },
      "additionalContracts": [],
      "isFixedGasLimit": false
    }
  ],
  "receipts": [
    {
      "status": "0x1",
      "cumulativeGasUsed": "0xcf9317",
      "logs": [
        {
          "address": "0x5eb9cc76c3506942c1c0ead70e877dd5e4f00cb0",
          "topics": [
            "0xddf252ad1be2c89b69c2b068fc378daa952ba7f163c4a11628f55a4df523b3ef",
            "0x000000000000000000000000c77f7fed3b5cc8249adc428c5f44c9063b9734b4",
            "0x0000000000000000000000000000000000000000000000000000000000000000"
          ],
          "data": "0x0000000000000000000000000000000000000000000000359e58f035289a7209",
          "blockHash": "0x88268feacab8582ad1a291a0c745d669fa3711b321a5f49d802c2dc9ba50a891",
          "blockNumber": "0x725071",
          "transactionHash": "0x83bc64c6ab27aeb1e8a4e416ee126cebe777c06fb8bd42d18a955f7299b25b18",
          "transactionIndex": "0x6d",
          "logIndex": "0xbc",
          "removed": false
        },
        {
          "address": "0x5eb9cc76c3506942c1c0ead70e877dd5e4f00cb0",
          "topics": [
            "0x4afcb4a87cdbd9974efdb92ee48bc8d7cd0ae4bf217004db3d080cbaee652ca7"
          ],
          "data": "0x000000000000000000000000000000000000000000000000000000006786b7180000000000000000000000000000000000000000000000000003911868e374150000000000000000000000000000000000000000000000000dc7db1331d15484",
          "blockHash": "0x88268feacab8582ad1a291a0c745d669fa3711b321a5f49d802c2dc9ba50a891",
          "blockNumber": "0x725071",
          "transactionHash": "0x83bc64c6ab27aeb1e8a4e416ee126cebe777c06fb8bd42d18a955f7299b25b18",
          "transactionIndex": "0x6d",
          "logIndex": "0xbd",
          "removed": false
        }
      ],
      "logsBloom": "0x00000000000000000000000000000000000000000000000000000000000000000000000000000000000000000000000000000000000000004000000000000000000000000000000000000008000000000000000000000000000000000000000000000000020000000000000004000800020000000000000000000010000000000000000000000000000000000000000000000000000000000000010000000000000000000000000000000000000000004000000000000000000000000000020000000002000000800000008000000000000000000000080000000000000020000000000000000000000000000000000000000000000000000000000000000000",
      "type": "0x2",
      "transactionHash": "0x83bc64c6ab27aeb1e8a4e416ee126cebe777c06fb8bd42d18a955f7299b25b18",
      "transactionIndex": "0x6d",
      "blockHash": "0x88268feacab8582ad1a291a0c745d669fa3711b321a5f49d802c2dc9ba50a891",
      "blockNumber": "0x725071",
      "gasUsed": "0xfb93",
      "effectiveGasPrice": "0x23ab262b7",
      "from": "0xc77f7fed3b5cc8249adc428c5f44c9063b9734b4",
      "to": "0x5eb9cc76c3506942c1c0ead70e877dd5e4f00cb0",
      "contractAddress": null
    }
  ],
  "libraries": [],
  "pending": [],
  "returns": {},
  "timestamp": 1736881946,
  "chain": 11155111,
  "commit": "51a374b"
}