{
  "transactions": [
    {
      "hash": "0x4e3d5427cd49f72775441b81874e898a7dd7b3bbdf48634374de95ced896c7e4",
      "transactionType": "CALL",
      "contractName": null,
      "contractAddress": "0x8aafd3ede9adb0ff97c7aebce82a919afb1c8764",
      "function": "sell(uint256)",
      "arguments": [
        "5971795499127887624"
      ],
      "transaction": {
        "from": "0xc77f7fed3b5cc8249adc428c5f44c9063b9734b4",
        "to": "0x8aafd3ede9adb0ff97c7aebce82a919afb1c8764",
        "gas": "0x15dca",
        "value": "0x0",
        "input": "0xe4849b3200000000000000000000000000000000000000000000000052e0145dd4cb5708",
        "nonce": "0xee3",
        "chainId": "0xaa36a7"
      },
      "additionalContracts": [],
      "isFixedGasLimit": false
    }
  ],
  "receipts": [
    {
      "status": "0x1",
      "cumulativeGasUsed": "0xa943da",
      "logs": [
        {
          "address": "0x8aafd3ede9adb0ff97c7aebce82a919afb1c8764",
          "topics": [
            "0xddf252ad1be2c89b69c2b068fc378daa952ba7f163c4a11628f55a4df523b3ef",
            "0x000000000000000000000000c77f7fed3b5cc8249adc428c5f44c9063b9734b4",
            "0x0000000000000000000000000000000000000000000000000000000000000000"
          ],
          "data": "0x000000000000000000000000000000000000000000000000523659d5e99eb48c",
          "blockHash": "0x990f83f2618b67b51f9fbdeba3d6f87ea9eb0fbed25aa3d17d72bf4099b310e9",
          "blockNumber": "0x73145a",
          "transactionHash": "0x4e3d5427cd49f72775441b81874e898a7dd7b3bbdf48634374de95ced896c7e4",
          "transactionIndex": "0x50",
          "logIndex": "0xa6",
          "removed": false
        },
        {
          "address": "0x8aafd3ede9adb0ff97c7aebce82a919afb1c8764",
          "topics": [
            "0xddf252ad1be2c89b69c2b068fc378daa952ba7f163c4a11628f55a4df523b3ef",
            "0x000000000000000000000000c77f7fed3b5cc8249adc428c5f44c9063b9734b4",
            "0x000000000000000000000000c77f7fed3b5cc8249adc428c5f44c9063b9734b4"
          ],
          "data": "0x00000000000000000000000000000000000000000000000000a9ba87eb2ca27c",
          "blockHash": "0x990f83f2618b67b51f9fbdeba3d6f87ea9eb0fbed25aa3d17d72bf4099b310e9",
          "blockNumber": "0x73145a",
          "transactionHash": "0x4e3d5427cd49f72775441b81874e898a7dd7b3bbdf48634374de95ced896c7e4",
          "transactionIndex": "0x50",
          "logIndex": "0xa7",
          "removed": false
        },
        {
          "address": "0x8aafd3ede9adb0ff97c7aebce82a919afb1c8764",
          "topics": [
            "0x4afcb4a87cdbd9974efdb92ee48bc8d7cd0ae4bf217004db3d080cbaee652ca7"
          ],
          "data": "0x00000000000000000000000000000000000000000000000000000000678ff0e40000000000000000000000000000000000000000000000000004ba470f10896e000000000000000000000000000000000000000000000000001c3b8421fbc6ea",
          "blockHash": "0x990f83f2618b67b51f9fbdeba3d6f87ea9eb0fbed25aa3d17d72bf4099b310e9",
          "blockNumber": "0x73145a",
          "transactionHash": "0x4e3d5427cd49f72775441b81874e898a7dd7b3bbdf48634374de95ced896c7e4",
          "transactionIndex": "0x50",
          "logIndex": "0xa8",
          "removed": false
        }
      ],
      "logsBloom": "0x00000000000000000000000000000000000000000600000000000000000000000000000000000000000000000000000000000000000000004000000000000000000000000000004000000008000000000000000000000000000000000000000000000000020000000000000000000800020000000000000000000010000000000000000000000000000000000000000000000000000000000000010000000000000000000000000000000000000000004000000000000000000000000000000000000002000000800000000000000000000000000000080000000000000020000000000000000000000000000000000000000000000000000000000000000000",
      "type": "0x2",
      "transactionHash": "0x4e3d5427cd49f72775441b81874e898a7dd7b3bbdf48634374de95ced896c7e4",
      "transactionIndex": "0x50",
      "blockHash": "0x990f83f2618b67b51f9fbdeba3d6f87ea9eb0fbed25aa3d17d72bf4099b310e9",
      "blockNumber": "0x73145a",
      "gasUsed": "0xfd3f",
      "effectiveGasPrice": "0xc1706256",
      "from": "0xc77f7fed3b5cc8249adc428c5f44c9063b9734b4",
      "to": "0x8aafd3ede9adb0ff97c7aebce82a919afb1c8764",
      "contractAddress": null
    }
  ],
  "libraries": [],
  "pending": [],
  "returns": {},
  "timestamp": 1737486566,
  "chain": 11155111,
  "commit": "51a374b"
}