{
  "transactions": [
    {
      "hash": "0x60aeb0677bb1b3824211bb283e6ba43fa37ce9f4002061e3dd92d3d9c2bd0e56",
      "transactionType": "CALL",
      "contractName": null,
      "contractAddress": "0xbf4a322f1496e5c3d34a9bcdb4c60567b38c7de2",
      "function": "buy(address)",
      "arguments": [
        "0xC77f7fed3b5Cc8249aDc428c5F44C9063B9734b4"
      ],
      "transaction": {
        "from": "0xc77f7fed3b5cc8249adc428c5f44c9063b9734b4",
        "to": "0xbf4a322f1496e5c3d34a9bcdb4c60567b38c7de2",
        "gas": "0x1b309",
        "value": "0xde0b6b3a7640000",
        "input": "0xf088d547000000000000000000000000c77f7fed3b5cc8249adc428c5f44c9063b9734b4",
        "nonce": "0xd94",
        "chainId": "0xaa36a7"
      },
      "additionalContracts": [],
      "isFixedGasLimit": false
    }
  ],
  "receipts": [
    {
      "status": "0x1",
      "cumulativeGasUsed": "0xd29f8a",
      "logs": [
        {
          "address": "0xbf4a322f1496e5c3d34a9bcdb4c60567b38c7de2",
          "topics": [
            "0xddf252ad1be2c89b69c2b068fc378daa952ba7f163c4a11628f55a4df523b3ef",
            "0x0000000000000000000000000000000000000000000000000000000000000000",
            "0x000000000000000000000000c77f7fed3b5cc8249adc428c5f44c9063b9734b4"
          ],
          "data": "0x000000000000000000000000000000000000000000000034b0aed62ed977503e",
          "blockHash": "0xb3e83d67f412437b98d536e6b32b6b15622333041c845b7b8b811cfb973ba35d",
          "blockNumber": "0x726668",
          "transactionHash": "0x60aeb0677bb1b3824211bb283e6ba43fa37ce9f4002061e3dd92d3d9c2bd0e56",
          "transactionIndex": "0x6c",
          "logIndex": "0xa1",
          "removed": false
        },
        {
          "address": "0xbf4a322f1496e5c3d34a9bcdb4c60567b38c7de2",
          "topics": [
            "0xddf252ad1be2c89b69c2b068fc378daa952ba7f163c4a11628f55a4df523b3ef",
            "0x0000000000000000000000000000000000000000000000000000000000000000",
            "0x000000000000000000000000c77f7fed3b5cc8249adc428c5f44c9063b9734b4"
          ],
          "data": "0x00000000000000000000000000000000000000000000000028ea6c2335dc28ef",
          "blockHash": "0xb3e83d67f412437b98d536e6b32b6b15622333041c845b7b8b811cfb973ba35d",
          "blockNumber": "0x726668",
          "transactionHash": "0x60aeb0677bb1b3824211bb283e6ba43fa37ce9f4002061e3dd92d3d9c2bd0e56",
          "transactionIndex": "0x6c",
          "logIndex": "0xa2",
          "removed": false
        },
        {
          "address": "0xbf4a322f1496e5c3d34a9bcdb4c60567b38c7de2",
          "topics": [
            "0x4afcb4a87cdbd9974efdb92ee48bc8d7cd0ae4bf217004db3d080cbaee652ca7"
          ],
          "data": "0x000000000000000000000000000000000000000000000000000000006787bfa800000000000000000000000000000000000000000000000000039e61e97a28a80000000000000000000000000000000000000000000000000de0b6b3a7640000",
          "blockHash": "0xb3e83d67f412437b98d536e6b32b6b15622333041c845b7b8b811cfb973ba35d",
          "blockNumber": "0x726668",
          "transactionHash": "0x60aeb0677bb1b3824211bb283e6ba43fa37ce9f4002061e3dd92d3d9c2bd0e56",
          "transactionIndex": "0x6c",
          "logIndex": "0xa3",
          "removed": false
        }
      ],
      "logsBloom": "0x00000000000000000000000000000000000000000000000000000000000000000000000000000000000000000000000000000000000000004000000000000000000000000000000000000008000000000000001000000000000000000000000000000000020000000000000000000800020000000000000000000010000000000000000000000000000000000000000000000000000008000000010000000000000000000000000000000000000000004000000000000000000000000000000000000002000000800000000000001000000000000000080000000000000020000000000000000000000000000000000000000000000000000000000000000000",
      "type": "0x2",
      "transactionHash": "0x60aeb0677bb1b3824211bb283e6ba43fa37ce9f4002061e3dd92d3d9c2bd0e56",
      "transactionIndex": "0x6c",
      "blockHash": "0xb3e83d67f412437b98d536e6b32b6b15622333041c845b7b8b811cfb973ba35d",
      "blockNumber": "0x726668",
      "gasUsed": "0x13af6",
      "effectiveGasPrice": "0x98790aa0",
      "from": "0xc77f7fed3b5cc8249adc428c5f44c9063b9734b4",
      "to": "0xbf4a322f1496e5c3d34a9bcdb4c60567b38c7de2",
      "contractAddress": null
    }
  ],
  "libraries": [],
  "pending": [],
  "returns": {},
  "timestamp": 1736949674,
  "chain": 11155111,
  "commit": "51a374b"
}