{
  "transactions": [
    {
      "hash": "0x36bc259a1579b844f02c163dabe27884cc0dfab0235c9f5faaf99611b21e4a93",
      "transactionType": "CALL",
      "contractName": null,
      "contractAddress": "0x8aafd3ede9adb0ff97c7aebce82a919afb1c8764",
      "function": "sell(uint256)",
      "arguments": [
        "6483652575"
      ],
      "transaction": {
        "from": "0xc77f7fed3b5cc8249adc428c5f44c9063b9734b4",
        "to": "0x8aafd3ede9adb0ff97c7aebce82a919afb1c8764",
        "gas": "0x1722a",
        "value": "0x0",
        "input": "0xe4849b32000000000000000000000000000000000000000000000000000000018274afdf",
        "nonce": "0x154c",
        "chainId": "0xaa36a7"
      },
      "additionalContracts": [],
      "isFixedGasLimit": false
    }
  ],
  "receipts": [
    {
      "status": "0x1",
      "cumulativeGasUsed": "0xe19eb7",
      "logs": [
        {
          "address": "0x8aafd3ede9adb0ff97c7aebce82a919afb1c8764",
          "topics": [
            "0xddf252ad1be2c89b69c2b068fc378daa952ba7f163c4a11628f55a4df523b3ef",
            "0x000000000000000000000000c77f7fed3b5cc8249adc428c5f44c9063b9734b4",
            "0x0000000000000000000000000000000000000000000000000000000000000000"
          ],
          "data": "0x000000000000000000000000000000000000000000000000000000017f5d39bb",
          "blockHash": "0xa30a7c4a92b903c11422ac683c14baa1c75f885d767ba1d2d8dba10953201553",
          "blockNumber": "0x731cb2",
          "transactionHash": "0x36bc259a1579b844f02c163dabe27884cc0dfab0235c9f5faaf99611b21e4a93",
          "transactionIndex": "0x5d",
          "logIndex": "0xac",
          "removed": false
        },
        {
          "address": "0x8aafd3ede9adb0ff97c7aebce82a919afb1c8764",
          "topics": [
            "0xddf252ad1be2c89b69c2b068fc378daa952ba7f163c4a11628f55a4df523b3ef",
            "0x000000000000000000000000c77f7fed3b5cc8249adc428c5f44c9063b9734b4",
            "0x000000000000000000000000c77f7fed3b5cc8249adc428c5f44c9063b9734b4"
          ],
          "data": "0x0000000000000000000000000000000000000000000000000000000003177624",
          "blockHash": "0xa30a7c4a92b903c11422ac683c14baa1c75f885d767ba1d2d8dba10953201553",
          "blockNumber": "0x731cb2",
          "transactionHash": "0x36bc259a1579b844f02c163dabe27884cc0dfab0235c9f5faaf99611b21e4a93",
          "transactionIndex": "0x5d",
          "logIndex": "0xad",
          "removed": false
        },
        {
          "address": "0x8aafd3ede9adb0ff97c7aebce82a919afb1c8764",
          "topics": [
            "0x4afcb4a87cdbd9974efdb92ee48bc8d7cd0ae4bf217004db3d080cbaee652ca7"
          ],
          "data": "0x00000000000000000000000000000000000000000000000000000000679055340000000000000000000000000000000000000000000000000011eefba2f98c7c0000000000000000000000000000000000000000000000000000000001f36573",
          "blockHash": "0xa30a7c4a92b903c11422ac683c14baa1c75f885d767ba1d2d8dba10953201553",
          "blockNumber": "0x731cb2",
          "transactionHash": "0x36bc259a1579b844f02c163dabe27884cc0dfab0235c9f5faaf99611b21e4a93",
          "transactionIndex": "0x5d",
          "logIndex": "0xae",
          "removed": false
        }
      ],
      "logsBloom": "0x00000000000000000000000000000000000000000600000000000000000000000000000000000000000000000000000000000000000000004000000000000000000000000000004000000008000000000000000000000000000000000000000000000000020000000000000000000800020000000000000000000010000000000000000000000000000000000000000000000000000000000000010000000000000000000000000000000000000000004000000000000000000000000000000000000002000000800000000000000000000000000000080000000000000020000000000000000000000000000000000000000000000000000000000000000000",
      "type": "0x2",
      "transactionHash": "0x36bc259a1579b844f02c163dabe27884cc0dfab0235c9f5faaf99611b21e4a93",
      "transactionIndex": "0x5d",
      "blockHash": "0xa30a7c4a92b903c11422ac683c14baa1c75f885d767ba1d2d8dba10953201553",
      "blockNumber": "0x731cb2",
      "gasUsed": "0xfd1b",
      "effectiveGasPrice": "0x1154f18ab",
      "from": "0xc77f7fed3b5cc8249adc428c5f44c9063b9734b4",
      "to": "0x8aafd3ede9adb0ff97c7aebce82a919afb1c8764",
      "contractAddress": null
    }
  ],
  "libraries": [],
  "pending": [],
  "returns": {},
  "timestamp": 1737512246,
  "chain": 11155111,
  "commit": "1d2fb70"
}