{
  "transactions": [
    {
      "hash": "0xc6a9b304fb8cf9c8c24d59cebc4dc24eb1fd6db7bddb2df2424e57e712dded9f",
      "transactionType": "CALL",
      "contractName": null,
      "contractAddress": "0x8aafd3ede9adb0ff97c7aebce82a919afb1c8764",
      "function": "sell(uint256)",
      "arguments": [
        "638267013788"
      ],
      "transaction": {
        "from": "0xc77f7fed3b5cc8249adc428c5f44c9063b9734b4",
        "to": "0x8aafd3ede9adb0ff97c7aebce82a919afb1c8764",
        "gas": "0x1722a",
        "value": "0x0",
        "input": "0xe4849b32000000000000000000000000000000000000000000000000000000949badba9c",
        "nonce": "0x16e9",
        "chainId": "0xaa36a7"
      },
      "additionalContracts": [],
      "isFixedGasLimit": false
    }
  ],
  "receipts": [
    {
      "status": "0x1",
      "cumulativeGasUsed": "0x721f2e",
      "logs": [
        {
          "address": "0x8aafd3ede9adb0ff97c7aebce82a919afb1c8764",
          "topics": [
            "0xddf252ad1be2c89b69c2b068fc378daa952ba7f163c4a11628f55a4df523b3ef",
            "0x000000000000000000000000c77f7fed3b5cc8249adc428c5f44c9063b9734b4",
            "0x0000000000000000000000000000000000000000000000000000000000000000"
          ],
          "data": "0x000000000000000000000000000000000000000000000000000000936b54466e",
          "blockHash": "0x8d6bcfa088add7c8bf6f2d76ff25ae370d1661ec58996fea3896a868fcfec971",
          "blockNumber": "0x731ea8",
          "transactionHash": "0xc6a9b304fb8cf9c8c24d59cebc4dc24eb1fd6db7bddb2df2424e57e712dded9f",
          "transactionIndex": "0x52",
          "logIndex": "0x83",
          "removed": false
        },
        {
          "address": "0x8aafd3ede9adb0ff97c7aebce82a919afb1c8764",
          "topics": [
            "0xddf252ad1be2c89b69c2b068fc378daa952ba7f163c4a11628f55a4df523b3ef",
            "0x000000000000000000000000c77f7fed3b5cc8249adc428c5f44c9063b9734b4",
            "0x000000000000000000000000c77f7fed3b5cc8249adc428c5f44c9063b9734b4"
          ],
          "data": "0x000000000000000000000000000000000000000000000000000000013059742e",
          "blockHash": "0x8d6bcfa088add7c8bf6f2d76ff25ae370d1661ec58996fea3896a868fcfec971",
          "blockNumber": "0x731ea8",
          "transactionHash": "0xc6a9b304fb8cf9c8c24d59cebc4dc24eb1fd6db7bddb2df2424e57e712dded9f",
          "transactionIndex": "0x52",
          "logIndex": "0x84",
          "removed": false
        },
        {
          "address": "0x8aafd3ede9adb0ff97c7aebce82a919afb1c8764",
          "topics": [
            "0x4afcb4a87cdbd9974efdb92ee48bc8d7cd0ae4bf217004db3d080cbaee652ca7"
          ],
          "data": "0x0000000000000000000000000000000000000000000000000000000067906cc80000000000000000000000000000000000000000000000000016bea510ddbd3500000000000000000000000000000000000000000000000000000000f38ee17c",
          "blockHash": "0x8d6bcfa088add7c8bf6f2d76ff25ae370d1661ec58996fea3896a868fcfec971",
          "blockNumber": "0x731ea8",
          "transactionHash": "0xc6a9b304fb8cf9c8c24d59cebc4dc24eb1fd6db7bddb2df2424e57e712dded9f",
          "transactionIndex": "0x52",
          "logIndex": "0x85",
          "removed": false
        }
      ],
      "logsBloom": "0x00000000000000000000000000000000000000000600000000000000000000000000000000000000000000000000000000000000000000004000000000000000000000000000004000000008000000000000000000000000000000000000000000000000020000000000000000000800020000000000000000000010000000000000000000000000000000000000000000000000000000000000010000000000000000000000000000000000000000004000000000000000000000000000000000000002000000800000000000000000000000000000080000000000000020000000000000000000000000000000000000000000000000000000000000000000",
      "type": "0x2",
      "transactionHash": "0xc6a9b304fb8cf9c8c24d59cebc4dc24eb1fd6db7bddb2df2424e57e712dded9f",
      "transactionIndex": "0x52",
      "blockHash": "0x8d6bcfa088add7c8bf6f2d76ff25ae370d1661ec58996fea3896a868fcfec971",
      "blockNumber": "0x731ea8",
      "gasUsed": "0xfd1b",
      "effectiveGasPrice": "0x46cd2064",
      "from": "0xc77f7fed3b5cc8249adc428c5f44c9063b9734b4",
      "to": "0x8aafd3ede9adb0ff97c7aebce82a919afb1c8764",
      "contractAddress": null
    }
  ],
  "libraries": [],
  "pending": [],
  "returns": {},
  "timestamp": 1737518281,
  "chain": 11155111,
  "commit": "1d2fb70"
}