{
  "transactions": [
    {
      "hash": "0x297c331349506af264459d98bba93ad90040d0220907ef4d5430f7b7836b16ca",
      "transactionType": "CALL",
      "contractName": null,
      "contractAddress": "0x270e88f8683660553e8ba4eb2ad7c91a1710d769",
      "function": "sell(uint256)",
      "arguments": [
        "726333169726469673340"
      ],
      "transaction": {
        "from": "0xc77f7fed3b5cc8249adc428c5f44c9063b9734b4",
        "to": "0x270e88f8683660553e8ba4eb2ad7c91a1710d769",
        "gas": "0x16fec",
        "value": "0x0",
        "input": "0xe4849b320000000000000000000000000000000000000000000000275fe5c99691bb917c",
        "nonce": "0x7d8",
        "chainId": "0xaa36a7"
      },
      "additionalContracts": [],
      "isFixedGasLimit": false
    }
  ],
  "receipts": [
    {
      "status": "0x1",
      "cumulativeGasUsed": "0x66edcd",
      "logs": [
        {
          "address": "0x270e88f8683660553e8ba4eb2ad7c91a1710d769",
          "topics": [
            "0xddf252ad1be2c89b69c2b068fc378daa952ba7f163c4a11628f55a4df523b3ef",
            "0x000000000000000000000000c77f7fed3b5cc8249adc428c5f44c9063b9734b4",
            "0x0000000000000000000000000000000000000000000000000000000000000000"
          ],
          "data": "0x0000000000000000000000000000000000000000000000275fe5c99691bb917c",
          "blockHash": "0x9829b96607e4217ffff98313b15790ba7247bd8d564bcd6a903bc92a3732717e",
          "blockNumber": "0x725511",
          "transactionHash": "0x297c331349506af264459d98bba93ad90040d0220907ef4d5430f7b7836b16ca",
          "transactionIndex": "0x38",
          "logIndex": "0x69",
          "removed": false
        },
        {
          "address": "0x270e88f8683660553e8ba4eb2ad7c91a1710d769",
          "topics": [
            "0x4afcb4a87cdbd9974efdb92ee48bc8d7cd0ae4bf217004db3d080cbaee652ca7"
          ],
          "data": "0x000000000000000000000000000000000000000000000000000000006786eed40000000000000000000000000000000000000000000000000004dbb453749d2e0000000000000000000000000000000000000000000000000dc82715cc75167b",
          "blockHash": "0x9829b96607e4217ffff98313b15790ba7247bd8d564bcd6a903bc92a3732717e",
          "blockNumber": "0x725511",
          "transactionHash": "0x297c331349506af264459d98bba93ad90040d0220907ef4d5430f7b7836b16ca",
          "transactionIndex": "0x38",
          "logIndex": "0x6a",
          "removed": false
        }
      ],
      "logsBloom": "0x00000000000000000000000000000000000000000000000000000000000000000000000000000000000000000000000020000000000000004000000000000000000000000000000000000008000000000000000000000000000000000000000000000000020000000000000000000800020000000000000000000010000000000000000000010000000000000000000000000000000000000000010000000000000000000000000000000000000000004000000000000000000000000000000000000002000000800000000000000000000000000000080000008000000020000000000000000000000000000000000000000000000000000000000000000000",
      "type": "0x2",
      "transactionHash": "0x297c331349506af264459d98bba93ad90040d0220907ef4d5430f7b7836b16ca",
      "transactionIndex": "0x38",
      "blockHash": "0x9829b96607e4217ffff98313b15790ba7247bd8d564bcd6a903bc92a3732717e",
      "blockNumber": "0x725511",
      "gasUsed": "0xfb93",
      "effectiveGasPrice": "0xc947690c",
      "from": "0xc77f7fed3b5cc8249adc428c5f44c9063b9734b4",
      "to": "0x270e88f8683660553e8ba4eb2ad7c91a1710d769",
      "contractAddress": null
    }
  ],
  "libraries": [],
  "pending": [],
  "returns": {},
  "timestamp": 1736896214,
  "chain": 11155111,
  "commit": "51a374b"
}