{
  "transactions": [
    {
      "hash": "0x2afcc705db16b1321ef4ffccb3c99ceb8dcfc7f686dc8ee1f5a7386a4f18d90e",
      "transactionType": "CALL",
      "contractName": null,
      "contractAddress": "0x5eb9cc76c3506942c1c0ead70e877dd5e4f00cb0",
      "function": "sell(uint256)",
      "arguments": [
        "989122946491018497528"
      ],
      "transaction": {
        "from": "0xc77f7fed3b5cc8249adc428c5f44c9063b9734b4",
        "to": "0x5eb9cc76c3506942c1c0ead70e877dd5e4f00cb0",
        "gas": "0x16fec",
        "value": "0x0",
        "input": "0xe4849b320000000000000000000000000000000000000000000000359ed69f3c50ddcdf8",
        "nonce": "0x371",
        "chainId": "0xaa36a7"
      },
      "additionalContracts": [],
      "isFixedGasLimit": false
    }
  ],
  "receipts": [
    {
      "status": "0x1",
      "cumulativeGasUsed": "0xb46eef",
      "logs": [
        {
          "address": "0x5eb9cc76c3506942c1c0ead70e877dd5e4f00cb0",
          "topics": [
            "0xddf252ad1be2c89b69c2b068fc378daa952ba7f163c4a11628f55a4df523b3ef",
            "0x000000000000000000000000c77f7fed3b5cc8249adc428c5f44c9063b9734b4",
            "0x0000000000000000000000000000000000000000000000000000000000000000"
          ],
          "data": "0x0000000000000000000000000000000000000000000000359ed69f3c50ddcdf8",
          "blockHash": "0x41cba90adefead2681f8f7e24100fd10a4050682d892aaacceb82fa54399c91a",
          "blockNumber": "0x724f67",
          "transactionHash": "0x2afcc705db16b1321ef4ffccb3c99ceb8dcfc7f686dc8ee1f5a7386a4f18d90e",
          "transactionIndex": "0x58",
          "logIndex": "0x97",
          "removed": false
        },
        {
          "address": "0x5eb9cc76c3506942c1c0ead70e877dd5e4f00cb0",
          "topics": [
            "0x4afcb4a87cdbd9974efdb92ee48bc8d7cd0ae4bf217004db3d080cbaee652ca7"
          ],
          "data": "0x000000000000000000000000000000000000000000000000000000006786aa88000000000000000000000000000000000000000000000000000391100ca394cb0000000000000000000000000000000000000000000000000dc7db1332104751",
          "blockHash": "0x41cba90adefead2681f8f7e24100fd10a4050682d892aaacceb82fa54399c91a",
          "blockNumber": "0x724f67",
          "transactionHash": "0x2afcc705db16b1321ef4ffccb3c99ceb8dcfc7f686dc8ee1f5a7386a4f18d90e",
          "transactionIndex": "0x58",
          "logIndex": "0x98",
          "removed": false
        }
      ],
      "logsBloom": "0x00000000000000000000000000000000000000000000000000000000000000000000000000000000000000000000000000000000000000004000000000000000000000000000000000000008000000000000000000000000000000000000000000000000020000000000000004000800020000000000000000000010000000000000000000000000000000000000000000000000000000000000010000000000000000000000000000000000000000004000000000000000000000000000020000000002000000800000008000000000000000000000080000000000000020000000000000000000000000000000000000000000000000000000000000000000",
      "type": "0x2",
      "transactionHash": "0x2afcc705db16b1321ef4ffccb3c99ceb8dcfc7f686dc8ee1f5a7386a4f18d90e",
      "transactionIndex": "0x58",
      "blockHash": "0x41cba90adefead2681f8f7e24100fd10a4050682d892aaacceb82fa54399c91a",
      "blockNumber": "0x724f67",
      "gasUsed": "0xfb93",
      "effectiveGasPrice": "0x60bc71b97",
      "from": "0xc77f7fed3b5cc8249adc428c5f44c9063b9734b4",
      "to": "0x5eb9cc76c3506942c1c0ead70e877dd5e4f00cb0",
      "contractAddress": null
    }
  ],
  "libraries": [],
  "pending": [],
  "returns": {},
  "timestamp": 1736878731,
  "chain": 11155111,
  "commit": "51a374b"
}