{
  "transactions": [
    {
      "hash": "0x4a21c38498009f5b42fde9a55383dcaac8f9a7ab30b784bef77dabde111421dc",
      "transactionType": "CALL",
      "contractName": null,
      "contractAddress": "0x8aafd3ede9adb0ff97c7aebce82a919afb1c8764",
      "function": "sell(uint256)",
      "arguments": [
        "87044359654919"
      ],
      "transaction": {
        "from": "0xc77f7fed3b5cc8249adc428c5f44c9063b9734b4",
        "to": "0x8aafd3ede9adb0ff97c7aebce82a919afb1c8764",
        "gas": "0x15daa",
        "value": "0x0",
        "input": "0xe4849b3200000000000000000000000000000000000000000000000000004f2a98230e07",
        "nonce": "0x1646",
        "chainId": "0xaa36a7"
      },
      "additionalContracts": [],
      "isFixedGasLimit": false
    }
  ],
  "receipts": [
    {
      "status": "0x1",
      "cumulativeGasUsed": "0xe62008",
      "logs": [
        {
          "address": "0x8aafd3ede9adb0ff97c7aebce82a919afb1c8764",
          "topics": [
            "0xddf252ad1be2c89b69c2b068fc378daa952ba7f163c4a11628f55a4df523b3ef",
            "0x000000000000000000000000c77f7fed3b5cc8249adc428c5f44c9063b9734b4",
            "0x0000000000000000000000000000000000000000000000000000000000000000"
          ],
          "data": "0x00000000000000000000000000000000000000000000000000004e887626ded0",
          "blockHash": "0x796f54c7354d09a3e54c6d09f393b3ecc76d8636eb3f27a604321998816fdf44",
          "blockNumber": "0x731ddf",
          "transactionHash": "0x4a21c38498009f5b42fde9a55383dcaac8f9a7ab30b784bef77dabde111421dc",
          "transactionIndex": "0x7e",
          "logIndex": "0xc5",
          "removed": false
        },
        {
          "address": "0x8aafd3ede9adb0ff97c7aebce82a919afb1c8764",
          "topics": [
            "0xddf252ad1be2c89b69c2b068fc378daa952ba7f163c4a11628f55a4df523b3ef",
            "0x000000000000000000000000c77f7fed3b5cc8249adc428c5f44c9063b9734b4",
            "0x000000000000000000000000c77f7fed3b5cc8249adc428c5f44c9063b9734b4"
          ],
          "data": "0x000000000000000000000000000000000000000000000000000000a221fc2f37",
          "blockHash": "0x796f54c7354d09a3e54c6d09f393b3ecc76d8636eb3f27a604321998816fdf44",
          "blockNumber": "0x731ddf",
          "transactionHash": "0x4a21c38498009f5b42fde9a55383dcaac8f9a7ab30b784bef77dabde111421dc",
          "transactionIndex": "0x7e",
          "logIndex": "0xc6",
          "removed": false
        },
        {
          "address": "0x8aafd3ede9adb0ff97c7aebce82a919afb1c8764",
          "topics": [
            "0x4afcb4a87cdbd9974efdb92ee48bc8d7cd0ae4bf217004db3d080cbaee652ca7"
          ],
          "data": "0x000000000000000000000000000000000000000000000000000000006790635c0000000000000000000000000000000000000000000000000014db13d96f51d400000000000000000000000000000000000000000000000000000076f8fa0f5c",
          "blockHash": "0x796f54c7354d09a3e54c6d09f393b3ecc76d8636eb3f27a604321998816fdf44",
          "blockNumber": "0x731ddf",
          "transactionHash": "0x4a21c38498009f5b42fde9a55383dcaac8f9a7ab30b784bef77dabde111421dc",
          "transactionIndex": "0x7e",
          "logIndex": "0xc7",
          "removed": false
        }
      ],
      "logsBloom": "0x00000000000000000000000000000000000000000600000000000000000000000000000000000000000000000000000000000000000000004000000000000000000000000000004000000008000000000000000000000000000000000000000000000000020000000000000000000800020000000000000000000010000000000000000000000000000000000000000000000000000000000000010000000000000000000000000000000000000000004000000000000000000000000000000000000002000000800000000000000000000000000000080000000000000020000000000000000000000000000000000000000000000000000000000000000000",
      "type": "0x2",
      "transactionHash": "0x4a21c38498009f5b42fde9a55383dcaac8f9a7ab30b784bef77dabde111421dc",
      "transactionIndex": "0x7e",
      "blockHash": "0x796f54c7354d09a3e54c6d09f393b3ecc76d8636eb3f27a604321998816fdf44",
      "blockNumber": "0x731ddf",
      "gasUsed": "0xfd27",
      "effectiveGasPrice": "0x4718ccd3",
      "from": "0xc77f7fed3b5cc8249adc428c5f44c9063b9734b4",
      "to": "0x8aafd3ede9adb0ff97c7aebce82a919afb1c8764",
      "contractAddress": null
    }
  ],
  "libraries": [],
  "pending": [],
  "returns": {},
  "timestamp": 1737515868,
  "chain": 11155111,
  "commit": "1d2fb70"
}