{
  "transactions": [
    {
      "hash": "0x18ef36a73ed3aab29d2cb51d4243d039f0c9d584d959d2d2cbdbe63c46c4ca9e",
      "transactionType": "CALL",
      "contractName": null,
      "contractAddress": "0x8aafd3ede9adb0ff97c7aebce82a919afb1c8764",
      "function": "sell(uint256)",
      "arguments": [
        "12515"
      ],
      "transaction": {
        "from": "0xc77f7fed3b5cc8249adc428c5f44c9063b9734b4",
        "to": "0x8aafd3ede9adb0ff97c7aebce82a919afb1c8764",
        "gas": "0x14e4c",
        "value": "0x0",
        "input": "0xe4849b3200000000000000000000000000000000000000000000000000000000000030e3",
        "nonce": "0xefe",
        "chainId": "0xaa36a7"
      },
      "additionalContracts": [],
      "isFixedGasLimit": false
    }
  ],
  "receipts": [
    {
      "status": "0x1",
      "cumulativeGasUsed": "0xf4ad1a",
      "logs": [
        {
          "address": "0x8aafd3ede9adb0ff97c7aebce82a919afb1c8764",
          "topics": [
            "0xddf252ad1be2c89b69c2b068fc378daa952ba7f163c4a11628f55a4df523b3ef",
            "0x000000000000000000000000c77f7fed3b5cc8249adc428c5f44c9063b9734b4",
            "0x0000000000000000000000000000000000000000000000000000000000000000"
          ],
          "data": "0x000000000000000000000000000000000000000000000000000000000000307f",
          "blockHash": "0x97e9eea18180547cac762929b18af00c4edd30406deaee7464ce4de072262e8a",
          "blockNumber": "0x731476",
          "transactionHash": "0x18ef36a73ed3aab29d2cb51d4243d039f0c9d584d959d2d2cbdbe63c46c4ca9e",
          "transactionIndex": "0x7b",
          "logIndex": "0xd6",
          "removed": false
        },
        {
          "address": "0x8aafd3ede9adb0ff97c7aebce82a919afb1c8764",
          "topics": [
            "0xddf252ad1be2c89b69c2b068fc378daa952ba7f163c4a11628f55a4df523b3ef",
            "0x000000000000000000000000c77f7fed3b5cc8249adc428c5f44c9063b9734b4",
            "0x000000000000000000000000c77f7fed3b5cc8249adc428c5f44c9063b9734b4"
          ],
          "data": "0x0000000000000000000000000000000000000000000000000000000000000064",
          "blockHash": "0x97e9eea18180547cac762929b18af00c4edd30406deaee7464ce4de072262e8a",
          "blockNumber": "0x731476",
          "transactionHash": "0x18ef36a73ed3aab29d2cb51d4243d039f0c9d584d959d2d2cbdbe63c46c4ca9e",
          "transactionIndex": "0x7b",
          "logIndex": "0xd7",
          "removed": false
        },
        {
          "address": "0x8aafd3ede9adb0ff97c7aebce82a919afb1c8764",
          "topics": [
            "0x4afcb4a87cdbd9974efdb92ee48bc8d7cd0ae4bf217004db3d080cbaee652ca7"
          ],
          "data": "0x00000000000000000000000000000000000000000000000000000000678ff2340000000000000000000000000000000000000000000000000004bb1be803a3d60000000000000000000000000000000000000000000000000000000000000010",
          "blockHash": "0x97e9eea18180547cac762929b18af00c4edd30406deaee7464ce4de072262e8a",
          "blockNumber": "0x731476",
          "transactionHash": "0x18ef36a73ed3aab29d2cb51d4243d039f0c9d584d959d2d2cbdbe63c46c4ca9e",
          "transactionIndex": "0x7b",
          "logIndex": "0xd8",
          "removed": false
        }
      ],
      "logsBloom": "0x00000000000000000000000000000000000000000600000000000000000000000000000000000000000000000000000000000000000000004000000000000000000000000000004000000008000000000000000000000000000000000000000000000000020000000000000000000800020000000000000000000010000000000000000000000000000000000000000000000000000000000000010000000000000000000000000000000000000000004000000000000000000000000000000000000002000000800000000000000000000000000000080000000000000020000000000000000000000000000000000000000000000000000000000000000000",
      "type": "0x2",
      "transactionHash": "0x18ef36a73ed3aab29d2cb51d4243d039f0c9d584d959d2d2cbdbe63c46c4ca9e",
      "transactionIndex": "0x7b",
      "blockHash": "0x97e9eea18180547cac762929b18af00c4edd30406deaee7464ce4de072262e8a",
      "blockNumber": "0x731476",
      "gasUsed": "0xf207",
      "effectiveGasPrice": "0x8de2bf15",
      "from": "0xc77f7fed3b5cc8249adc428c5f44c9063b9734b4",
      "to": "0x8aafd3ede9adb0ff97c7aebce82a919afb1c8764",
      "contractAddress": null
    }
  ],
  "libraries": [],
  "pending": [],
  "returns": {},
  "timestamp": 1737486900,
  "chain": 11155111,
  "commit": "51a374b"
}