{
  "transactions": [
    {
      "hash": "0x214069131bf502a958dcf59df866615fdc498d87c59968da70391c379c9d98e6",
      "transactionType": "CALL",
      "contractName": null,
      "contractAddress": "0x8aafd3ede9adb0ff97c7aebce82a919afb1c8764",
      "function": "sell(uint256)",
      "arguments": [
        "1503915998882055727"
      ],
      "transaction": {
        "from": "0xc77f7fed3b5cc8249adc428c5f44c9063b9734b4",
        "to": "0x8aafd3ede9adb0ff97c7aebce82a919afb1c8764",
        "gas": "0x15dca",
        "value": "0x0",
        "input": "0xe4849b3200000000000000000000000000000000000000000000000014defba20564462f",
        "nonce": "0x1599",
        "chainId": "0xaa36a7"
      },
      "additionalContracts": [],
      "isFixedGasLimit": false
    }
  ],
  "receipts": [
    {
      "status": "0x1",
      "cumulativeGasUsed": "0xc6b9fb",
      "logs": [
        {
          "address": "0x8aafd3ede9adb0ff97c7aebce82a919afb1c8764",
          "topics": [
            "0xddf252ad1be2c89b69c2b068fc378daa952ba7f163c4a11628f55a4df523b3ef",
            "0x000000000000000000000000c77f7fed3b5cc8249adc428c5f44c9063b9734b4",
            "0x0000000000000000000000000000000000000000000000000000000000000000"
          ],
          "data": "0x00000000000000000000000000000000000000000000000014b43d342e4efdf2",
          "blockHash": "0x6fba4e59f8084edbc92a7ca29cdbb48e5b9b572f892fd8d7ed9be73ef8d94bed",
          "blockNumber": "0x731d09",
          "transactionHash": "0x214069131bf502a958dcf59df866615fdc498d87c59968da70391c379c9d98e6",
          "transactionIndex": "0x69",
          "logIndex": "0xa8",
          "removed": false
        },
        {
          "address": "0x8aafd3ede9adb0ff97c7aebce82a919afb1c8764",
          "topics": [
            "0xddf252ad1be2c89b69c2b068fc378daa952ba7f163c4a11628f55a4df523b3ef",
            "0x000000000000000000000000c77f7fed3b5cc8249adc428c5f44c9063b9734b4",
            "0x000000000000000000000000c77f7fed3b5cc8249adc428c5f44c9063b9734b4"
          ],
          "data": "0x000000000000000000000000000000000000000000000000002abe6dd715483d",
          "blockHash": "0x6fba4e59f8084edbc92a7ca29cdbb48e5b9b572f892fd8d7ed9be73ef8d94bed",
          "blockNumber": "0x731d09",
          "transactionHash": "0x214069131bf502a958dcf59df866615fdc498d87c59968da70391c379c9d98e6",
          "transactionIndex": "0x69",
          "logIndex": "0xa9",
          "removed": false
        },
        {
          "address": "0x8aafd3ede9adb0ff97c7aebce82a919afb1c8764",
          "topics": [
            "0x4afcb4a87cdbd9974efdb92ee48bc8d7cd0ae4bf217004db3d080cbaee652ca7"
          ],
          "data": "0x00000000000000000000000000000000000000000000000000000000679059540000000000000000000000000000000000000000000000000012ded5e6b07f5f000000000000000000000000000000000000000000000000001c60ee1e5fc7d4",
          "blockHash": "0x6fba4e59f8084edbc92a7ca29cdbb48e5b9b572f892fd8d7ed9be73ef8d94bed",
          "blockNumber": "0x731d09",
          "transactionHash": "0x214069131bf502a958dcf59df866615fdc498d87c59968da70391c379c9d98e6",
          "transactionIndex": "0x69",
          "logIndex": "0xaa",
          "removed": false
        }
      ],
      "logsBloom": "0x00000000000000000000000000000000000000000600000000000000000000000000000000000000000000000000000000000000000000004000000000000000000000000000004000000008000000000000000000000000000000000000000000000000020000000000000000000800020000000000000000000010000000000000000000000000000000000000000000000000000000000000010000000000000000000000000000000000000000004000000000000000000000000000000000000002000000800000000000000000000000000000080000000000000020000000000000000000000000000000000000000000000000000000000000000000",
      "type": "0x2",
      "transactionHash": "0x214069131bf502a958dcf59df866615fdc498d87c59968da70391c379c9d98e6",
      "transactionIndex": "0x69",
      "blockHash": "0x6fba4e59f8084edbc92a7ca29cdbb48e5b9b572f892fd8d7ed9be73ef8d94bed",
      "blockNumber": "0x731d09",
      "gasUsed": "0xfd3f",
      "effectiveGasPrice": "0x5dc193c6",
      "from": "0xc77f7fed3b5cc8249adc428c5f44c9063b9734b4",
      "to": "0x8aafd3ede9adb0ff97c7aebce82a919afb1c8764",
      "contractAddress": null
    }
  ],
  "libraries": [],
  "pending": [],
  "returns": {},
  "timestamp": 1737513301,
  "chain": 11155111,
  "commit": "1d2fb70"
}