{
  "transactions": [
    {
      "hash": "0xd5f7d5cece3809bcaba1f9f9ff5d10380e57a6e43bb0cf4cec2935b13d1dc6e2",
      "transactionType": "CALL",
      "contractName": null,
      "contractAddress": "0x8aafd3ede9adb0ff97c7aebce82a919afb1c8764",
      "function": "sell(uint256)",
      "arguments": [
        "5523153177323078862"
      ],
      "transaction": {
        "from": "0xc77f7fed3b5cc8249adc428c5f44c9063b9734b4",
        "to": "0x8aafd3ede9adb0ff97c7aebce82a919afb1c8764",
        "gas": "0x15dca",
        "value": "0x0",
        "input": "0xe4849b320000000000000000000000000000000000000000000000004ca62e8d466984ce",
        "nonce": "0x1178",
        "chainId": "0xaa36a7"
      },
      "additionalContracts": [],
      "isFixedGasLimit": false
    }
  ],
  "receipts": [
    {
      "status": "0x1",
      "cumulativeGasUsed": "0xe860de",
      "logs": [
        {
          "address": "0x8aafd3ede9adb0ff97c7aebce82a919afb1c8764",
          "topics": [
            "0xddf252ad1be2c89b69c2b068fc378daa952ba7f163c4a11628f55a4df523b3ef",
            "0x000000000000000000000000c77f7fed3b5cc8249adc428c5f44c9063b9734b4",
            "0x0000000000000000000000000000000000000000000000000000000000000000"
          ],
          "data": "0x0000000000000000000000000000000000000000000000004c093452cd045298",
          "blockHash": "0xf9933a21c40a065080e5a7349c7940ebb1bbd7ac487f81080544783a7c58d216",
          "blockNumber": "0x731838",
          "transactionHash": "0xd5f7d5cece3809bcaba1f9f9ff5d10380e57a6e43bb0cf4cec2935b13d1dc6e2",
          "transactionIndex": "0x7d",
          "logIndex": "0x118",
          "removed": false
        },
        {
          "address": "0x8aafd3ede9adb0ff97c7aebce82a919afb1c8764",
          "topics": [
            "0xddf252ad1be2c89b69c2b068fc378daa952ba7f163c4a11628f55a4df523b3ef",
            "0x000000000000000000000000c77f7fed3b5cc8249adc428c5f44c9063b9734b4",
            "0x000000000000000000000000c77f7fed3b5cc8249adc428c5f44c9063b9734b4"
          ],
          "data": "0x000000000000000000000000000000000000000000000000009cfa3a79653236",
          "blockHash": "0xf9933a21c40a065080e5a7349c7940ebb1bbd7ac487f81080544783a7c58d216",
          "blockNumber": "0x731838",
          "transactionHash": "0xd5f7d5cece3809bcaba1f9f9ff5d10380e57a6e43bb0cf4cec2935b13d1dc6e2",
          "transactionIndex": "0x7d",
          "logIndex": "0x119",
          "removed": false
        },
        {
          "address": "0x8aafd3ede9adb0ff97c7aebce82a919afb1c8764",
          "topics": [
            "0x4afcb4a87cdbd9974efdb92ee48bc8d7cd0ae4bf217004db3d080cbaee652ca7"
          ],
          "data": "0x0000000000000000000000000000000000000000000000000000000067901f6400000000000000000000000000000000000000000000000000051d97471b57fe000000000000000000000000000000000000000000000000001c410689329f0b",
          "blockHash": "0xf9933a21c40a065080e5a7349c7940ebb1bbd7ac487f81080544783a7c58d216",
          "blockNumber": "0x731838",
          "transactionHash": "0xd5f7d5cece3809bcaba1f9f9ff5d10380e57a6e43bb0cf4cec2935b13d1dc6e2",
          "transactionIndex": "0x7d",
          "logIndex": "0x11a",
          "removed": false
        }
      ],
      "logsBloom": "0x00000000000000000000000000000000000000000600000000000000000000000000000000000000000000000000000000000000000000004000000000000000000000000000004000000008000000000000000000000000000000000000000000000000020000000000000000000800020000000000000000000010000000000000000000000000000000000000000000000000000000000000010000000000000000000000000000000000000000004000000000000000000000000000000000000002000000800000000000000000000000000000080000000000000020000000000000000000000000000000000000000000000000000000000000000000",
      "type": "0x2",
      "transactionHash": "0xd5f7d5cece3809bcaba1f9f9ff5d10380e57a6e43bb0cf4cec2935b13d1dc6e2",
      "transactionIndex": "0x7d",
      "blockHash": "0xf9933a21c40a065080e5a7349c7940ebb1bbd7ac487f81080544783a7c58d216",
      "blockNumber": "0x731838",
      "gasUsed": "0xfd3f",
      "effectiveGasPrice": "0x41f78178",
      "from": "0xc77f7fed3b5cc8249adc428c5f44c9063b9734b4",
      "to": "0x8aafd3ede9adb0ff97c7aebce82a919afb1c8764",
      "contractAddress": null
    }
  ],
  "libraries": [],
  "pending": [],
  "returns": {},
  "timestamp": 1737498469,
  "chain": 11155111,
  "commit": "1d2fb70"
}