{
  "transactions": [
    {
      "hash": "0xcef9783fc3399619782ba0c9cb9169c4383868c6cda3ef31c93051e883d1148b",
      "transactionType": "CALL",
      "contractName": null,
      "contractAddress": "0xbf4a322f1496e5c3d34a9bcdb4c60567b38c7de2",
      "function": "sell(uint256)",
      "arguments": [
        "974432213286913908221"
      ],
      "transaction": {
        "from": "0xc77f7fed3b5cc8249adc428c5f44c9063b9734b4",
        "to": "0xbf4a322f1496e5c3d34a9bcdb4c60567b38c7de2",
        "gas": "0x16fea",
        "value": "0x0",
        "input": "0xe4849b32000000000000000000000000000000000000000000000034d2f6a738a82d1dfd",
        "nonce": "0xdb9",
        "chainId": "0xaa36a7"
      },
      "additionalContracts": [],
      "isFixedGasLimit": false
    }
  ],
  "receipts": [
    {
      "status": "0x1",
      "cumulativeGasUsed": "0x8f7e8d",
      "logs": [
        {
          "address": "0xbf4a322f1496e5c3d34a9bcdb4c60567b38c7de2",
          "topics": [
            "0xddf252ad1be2c89b69c2b068fc378daa952ba7f163c4a11628f55a4df523b3ef",
            "0x000000000000000000000000c77f7fed3b5cc8249adc428c5f44c9063b9734b4",
            "0x0000000000000000000000000000000000000000000000000000000000000000"
          ],
          "data": "0x000000000000000000000000000000000000000000000034d2f6a738a82d1dfd",
          "blockHash": "0xb404d5b25cf393d9419ef58899ef8df5242e2844dd8fa57a404f66853391e3ce",
          "blockNumber": "0x726694",
          "transactionHash": "0xcef9783fc3399619782ba0c9cb9169c4383868c6cda3ef31c93051e883d1148b",
          "transactionIndex": "0x47",
          "logIndex": "0x6f",
          "removed": false
        },
        {
          "address": "0xbf4a322f1496e5c3d34a9bcdb4c60567b38c7de2",
          "topics": [
            "0x4afcb4a87cdbd9974efdb92ee48bc8d7cd0ae4bf217004db3d080cbaee652ca7"
          ],
          "data": "0x000000000000000000000000000000000000000000000000000000006787c1e800000000000000000000000000000000000000000000000000039eda68b63a080000000000000000000000000000000000000000000000000dc7e3d51ef5a85b",
          "blockHash": "0xb404d5b25cf393d9419ef58899ef8df5242e2844dd8fa57a404f66853391e3ce",
          "blockNumber": "0x726694",
          "transactionHash": "0xcef9783fc3399619782ba0c9cb9169c4383868c6cda3ef31c93051e883d1148b",
          "transactionIndex": "0x47",
          "logIndex": "0x70",
          "removed": false
        }
      ],
      "logsBloom": "0x00000000000000000000000000000000000000000000000000000000000000000000000000000000000000000000000000000000000000004000000000000000000000000000000000000008000000000000001000000000000000000000000000000000020000000000000000000800020000000000000000000010000000000000000000000000000000000000000000000000000008000000010000000000000000000000000000000000000000004000000000000000000000000000000000000002000000800000000000001000000000000000080000000000000020000000000000000000000000000000000000000000000000000000000000000000",
      "type": "0x2",
      "transactionHash": "0xcef9783fc3399619782ba0c9cb9169c4383868c6cda3ef31c93051e883d1148b",
      "transactionIndex": "0x47",
      "blockHash": "0xb404d5b25cf393d9419ef58899ef8df5242e2844dd8fa57a404f66853391e3ce",
      "blockNumber": "0x726694",
      "gasUsed": "0xfb91",
      "effectiveGasPrice": "0xb86ab7cf",
      "from": "0xc77f7fed3b5cc8249adc428c5f44c9063b9734b4",
      "to": "0xbf4a322f1496e5c3d34a9bcdb4c60567b38c7de2",
      "contractAddress": null
    }
  ],
  "libraries": [],
  "pending": [],
  "returns": {},
  "timestamp": 1736950249,
  "chain": 11155111,
  "commit": "51a374b"
}