{
  "transactions": [
    {
      "hash": "0xb8adf93271d3cc662d4ecc3ff32c807c0ba7d288c85e482020c4d9abf59fe79c",
      "transactionType": "CALL",
      "contractName": null,
      "contractAddress": "0xbf4a322f1496e5c3d34a9bcdb4c60567b38c7de2",
      "function": "buy(address)",
      "arguments": [
        "0xC77f7fed3b5Cc8249aDc428c5F44C9063B9734b4"
      ],
      "transaction": {
        "from": "0xc77f7fed3b5cc8249adc428c5f44c9063b9734b4",
        "to": "0xbf4a322f1496e5c3d34a9bcdb4c60567b38c7de2",
        "gas": "0x1b309",
        "value": "0xde0b6b3a7640000",
        "input": "0xf088d547000000000000000000000000c77f7fed3b5cc8249adc428c5f44c9063b9734b4",
        "nonce": "0xcaa",
        "chainId": "0xaa36a7"
      },
      "additionalContracts": [],
      "isFixedGasLimit": false
    }
  ],
  "receipts": [
    {
      "status": "0x1",
      "cumulativeGasUsed": "0x159288f",
      "logs": [
        {
          "address": "0xbf4a322f1496e5c3d34a9bcdb4c60567b38c7de2",
          "topics": [
            "0xddf252ad1be2c89b69c2b068fc378daa952ba7f163c4a11628f55a4df523b3ef",
            "0x0000000000000000000000000000000000000000000000000000000000000000",
            "0x000000000000000000000000c77f7fed3b5cc8249adc428c5f44c9063b9734b4"
          ],
          "data": "0x000000000000000000000000000000000000000000000034dbd70307e2c3746f",
          "blockHash": "0xa92987b81492951ce9ee134387aa0b897aa350957fa1bedcbc16decc9966ae35",
          "blockNumber": "0x725cf5",
          "transactionHash": "0xb8adf93271d3cc662d4ecc3ff32c807c0ba7d288c85e482020c4d9abf59fe79c",
          "transactionIndex": "0xa2",
          "logIndex": "0x156",
          "removed": false
        },
        {
          "address": "0xbf4a322f1496e5c3d34a9bcdb4c60567b38c7de2",
          "topics": [
            "0xddf252ad1be2c89b69c2b068fc378daa952ba7f163c4a11628f55a4df523b3ef",
            "0x0000000000000000000000000000000000000000000000000000000000000000",
            "0x000000000000000000000000c77f7fed3b5cc8249adc428c5f44c9063b9734b4"
          ],
          "data": "0x000000000000000000000000000000000000000000000000290bef6c2409227f",
          "blockHash": "0xa92987b81492951ce9ee134387aa0b897aa350957fa1bedcbc16decc9966ae35",
          "blockNumber": "0x725cf5",
          "transactionHash": "0xb8adf93271d3cc662d4ecc3ff32c807c0ba7d288c85e482020c4d9abf59fe79c",
          "transactionIndex": "0xa2",
          "logIndex": "0x157",
          "removed": false
        },
        {
          "address": "0xbf4a322f1496e5c3d34a9bcdb4c60567b38c7de2",
          "topics": [
            "0x4afcb4a87cdbd9974efdb92ee48bc8d7cd0ae4bf217004db3d080cbaee652ca7"
          ],
          "data": "0x0000000000000000000000000000000000000000000000000000000067874df000000000000000000000000000000000000000000000000000039b6d913b819a0000000000000000000000000000000000000000000000000de0b6b3a7640000",
          "blockHash": "0xa92987b81492951ce9ee134387aa0b897aa350957fa1bedcbc16decc9966ae35",
          "blockNumber": "0x725cf5",
          "transactionHash": "0xb8adf93271d3cc662d4ecc3ff32c807c0ba7d288c85e482020c4d9abf59fe79c",
          "transactionIndex": "0xa2",
          "logIndex": "0x158",
          "removed": false
        }
      ],
      "logsBloom": "0x00000000000000000000000000000000000000000000000000000000000000000000000000000000000000000000000000000000000000004000000000000000000000000000000000000008000000000000001000000000000000000000000000000000020000000000000000000800020000000000000000000010000000000000000000000000000000000000000000000000000008000000010000000000000000000000000000000000000000004000000000000000000000000000000000000002000000800000000000001000000000000000080000000000000020000000000000000000000000000000000000000000000000000000000000000000",
      "type": "0x2",
      "transactionHash": "0xb8adf93271d3cc662d4ecc3ff32c807c0ba7d288c85e482020c4d9abf59fe79c",
      "transactionIndex": "0xa2",
      "blockHash": "0xa92987b81492951ce9ee134387aa0b897aa350957fa1bedcbc16decc9966ae35",
      "blockNumber": "0x725cf5",
      "gasUsed": "0x13af6",
      "effectiveGasPrice": "0x2314c257f",
      "from": "0xc77f7fed3b5cc8249adc428c5f44c9063b9734b4",
      "to": "0xbf4a322f1496e5c3d34a9bcdb4c60567b38c7de2",
      "contractAddress": null
    }
  ],
  "libraries": [],
  "pending": [],
  "returns": {},
  "timestamp": 1736920561,
  "chain": 11155111,
  "commit": "51a374b"
}