{
  "transactions": [
    {
      "hash": "0xf7a479eacce032a5d744180f0190fc28ab9513c73b1671de2e71eb79c764c091",
      "transactionType": "CALL",
      "contractName": null,
      "contractAddress": "0x8aafd3ede9adb0ff97c7aebce82a919afb1c8764",
      "function": "sell(uint256)",
      "arguments": [
        "5977957542900058217"
      ],
      "transaction": {
        "from": "0xc77f7fed3b5cc8249adc428c5f44c9063b9734b4",
        "to": "0x8aafd3ede9adb0ff97c7aebce82a919afb1c8764",
        "gas": "0x15dca",
        "value": "0x0",
        "input": "0xe4849b3200000000000000000000000000000000000000000000000052f5f8b672ecc869",
        "nonce": "0xec5",
        "chainId": "0xaa36a7"
      },
      "additionalContracts": [],
      "isFixedGasLimit": false
    }
  ],
  "receipts": [
    {
      "status": "0x1",
      "cumulativeGasUsed": "0xb8bbe7",
      "logs": [
        {
          "address": "0x8aafd3ede9adb0ff97c7aebce82a919afb1c8764",
          "topics": [
            "0xddf252ad1be2c89b69c2b068fc378daa952ba7f163c4a11628f55a4df523b3ef",
            "0x000000000000000000000000c77f7fed3b5cc8249adc428c5f44c9063b9734b4",
            "0x0000000000000000000000000000000000000000000000000000000000000000"
          ],
          "data": "0x000000000000000000000000000000000000000000000000524c1158d44f3d98",
          "blockHash": "0xbc996806d04bc8c34b7cf9e210b173f19c3191b78325a8d28abc7fcfda2e0d3a",
          "blockNumber": "0x73142d",
          "transactionHash": "0xf7a479eacce032a5d744180f0190fc28ab9513c73b1671de2e71eb79c764c091",
          "transactionIndex": "0x92",
          "logIndex": "0xef",
          "removed": false
        },
        {
          "address": "0x8aafd3ede9adb0ff97c7aebce82a919afb1c8764",
          "topics": [
            "0xddf252ad1be2c89b69c2b068fc378daa952ba7f163c4a11628f55a4df523b3ef",
            "0x000000000000000000000000c77f7fed3b5cc8249adc428c5f44c9063b9734b4",
            "0x000000000000000000000000c77f7fed3b5cc8249adc428c5f44c9063b9734b4"
          ],
          "data": "0x00000000000000000000000000000000000000000000000000a9e75d9e9d8ad1",
          "blockHash": "0xbc996806d04bc8c34b7cf9e210b173f19c3191b78325a8d28abc7fcfda2e0d3a",
          "blockNumber": "0x73142d",
          "transactionHash": "0xf7a479eacce032a5d744180f0190fc28ab9513c73b1671de2e71eb79c764c091",
          "transactionIndex": "0x92",
          "logIndex": "0xf0",
          "removed": false
        },
        {
          "address": "0x8aafd3ede9adb0ff97c7aebce82a919afb1c8764",
          "topics": [
            "0x4afcb4a87cdbd9974efdb92ee48bc8d7cd0ae4bf217004db3d080cbaee652ca7"
          ],
          "data": "0x00000000000000000000000000000000000000000000000000000000678feec80000000000000000000000000000000000000000000000000004b907cbc98cee000000000000000000000000000000000000000000000000001c3b84c838a2a8",
          "blockHash": "0xbc996806d04bc8c34b7cf9e210b173f19c3191b78325a8d28abc7fcfda2e0d3a",
          "blockNumber": "0x73142d",
          "transactionHash": "0xf7a479eacce032a5d744180f0190fc28ab9513c73b1671de2e71eb79c764c091",
          "transactionIndex": "0x92",
          "logIndex": "0xf1",
          "removed": false
        }
      ],
      "logsBloom": "0x00000000000000000000000000000000000000000600000000000000000000000000000000000000000000000000000000000000000000004000000000000000000000000000004000000008000000000000000000000000000000000000000000000000020000000000000000000800020000000000000000000010000000000000000000000000000000000000000000000000000000000000010000000000000000000000000000000000000000004000000000000000000000000000000000000002000000800000000000000000000000000000080000000000000020000000000000000000000000000000000000000000000000000000000000000000",
      "type": "0x2",
      "transactionHash": "0xf7a479eacce032a5d744180f0190fc28ab9513c73b1671de2e71eb79c764c091",
      "transactionIndex": "0x92",
      "blockHash": "0xbc996806d04bc8c34b7cf9e210b173f19c3191b78325a8d28abc7fcfda2e0d3a",
      "blockNumber": "0x73142d",
      "gasUsed": "0xfd3f",
      "effectiveGasPrice": "0xc208cadf",
      "from": "0xc77f7fed3b5cc8249adc428c5f44c9063b9734b4",
      "to": "0x8aafd3ede9adb0ff97c7aebce82a919afb1c8764",
      "contractAddress": null
    }
  ],
  "libraries": [],
  "pending": [],
  "returns": {},
  "timestamp": 1737486025,
  "chain": 11155111,
  "commit": "51a374b"
}