{
  "transactions": [
    {
      "hash": "0x30d1ca7c11f2b171a9cb9e620cab46c333b78d4052dc81deb7769d035ce281d7",
      "transactionType": "CALL",
      "contractName": null,
      "contractAddress": "0x5eb9cc76c3506942c1c0ead70e877dd5e4f00cb0",
      "function": "buy(address)",
      "arguments": [
        "0xC77f7fed3b5Cc8249aDc428c5F44C9063B9734b4"
      ],
      "transaction": {
        "from": "0xc77f7fed3b5cc8249adc428c5f44c9063b9734b4",
        "to": "0x5eb9cc76c3506942c1c0ead70e877dd5e4f00cb0",
        "gas": "0x1b30c",
        "value": "0xde0b6b3a7640000",
        "input": "0xf088d547000000000000000000000000c77f7fed3b5cc8249adc428c5f44c9063b9734b4",
        "nonce": "0x398",
        "chainId": "0xaa36a7"
      },
      "additionalContracts": [],
      "isFixedGasLimit": false
    }
  ],
  "receipts": [
    {
      "status": "0x1",
      "cumulativeGasUsed": "0xb5d845",
      "logs": [
        {
          "address": "0x5eb9cc76c3506942c1c0ead70e877dd5e4f00cb0",
          "topics": [
            "0xddf252ad1be2c89b69c2b068fc378daa952ba7f163c4a11628f55a4df523b3ef",
            "0x0000000000000000000000000000000000000000000000000000000000000000",
            "0x000000000000000000000000c77f7fed3b5cc8249adc428c5f44c9063b9734b4"
          ],
          "data": "0x000000000000000000000000000000000000000000000035753cebea9e4c3f07",
          "blockHash": "0x220cc912a665437ec583e3d60de901b6862a3391737f5a9808aabaca68b5ee0c",
          "blockNumber": "0x724f94",
          "transactionHash": "0x30d1ca7c11f2b171a9cb9e620cab46c333b78d4052dc81deb7769d035ce281d7",
          "transactionIndex": "0x69",
          "logIndex": "0x99",
          "removed": false
        },
        {
          "address": "0x5eb9cc76c3506942c1c0ead70e877dd5e4f00cb0",
          "topics": [
            "0xddf252ad1be2c89b69c2b068fc378daa952ba7f163c4a11628f55a4df523b3ef",
            "0x0000000000000000000000000000000000000000000000000000000000000000",
            "0x000000000000000000000000c77f7fed3b5cc8249adc428c5f44c9063b9734b4"
          ],
          "data": "0x00000000000000000000000000000000000000000000000029830dd8c844515a",
          "blockHash": "0x220cc912a665437ec583e3d60de901b6862a3391737f5a9808aabaca68b5ee0c",
          "blockNumber": "0x724f94",
          "transactionHash": "0x30d1ca7c11f2b171a9cb9e620cab46c333b78d4052dc81deb7769d035ce281d7",
          "transactionIndex": "0x69",
          "logIndex": "0x9a",
          "removed": false
        },
        {
          "address": "0x5eb9cc76c3506942c1c0ead70e877dd5e4f00cb0",
          "topics": [
            "0x4afcb4a87cdbd9974efdb92ee48bc8d7cd0ae4bf217004db3d080cbaee652ca7"
          ],
          "data": "0x000000000000000000000000000000000000000000000000000000006786aca40000000000000000000000000000000000000000000000000003911181f053e70000000000000000000000000000000000000000000000000de0b6b3a7640000",
          "blockHash": "0x220cc912a665437ec583e3d60de901b6862a3391737f5a9808aabaca68b5ee0c",
          "blockNumber": "0x724f94",
          "transactionHash": "0x30d1ca7c11f2b171a9cb9e620cab46c333b78d4052dc81deb7769d035ce281d7",
          "transactionIndex": "0x69",
          "logIndex": "0x9b",
          "removed": false
        }
      ],
      "logsBloom": "0x00000000000000000000000000000000000000000000000000000000000000000000000000000000000000000000000000000000000000004000000000000000000000000000000000000008000000000000000000000000000000000000000000000000020000000000000004000800020000000000000000000010000000000000000000000000000000000000000000000000000000000000010000000000000000000000000000000000000000004000000000000000000000000000020000000002000000800000008000000000000000000000080000000000000020000000000000000000000000000000000000000000000000000000000000000000",
      "type": "0x2",
      "transactionHash": "0x30d1ca7c11f2b171a9cb9e620cab46c333b78d4052dc81deb7769d035ce281d7",
      "transactionIndex": "0x69",
      "blockHash": "0x220cc912a665437ec583e3d60de901b6862a3391737f5a9808aabaca68b5ee0c",
      "blockNumber": "0x724f94",
      "gasUsed": "0x13af8",
      "effectiveGasPrice": "0x5341667cc",
      "from": "0xc77f7fed3b5cc8249adc428c5f44c9063b9734b4",
      "to": "0x5eb9cc76c3506942c1c0ead70e877dd5e4f00cb0",
      "contractAddress": null
    }
  ],
  "libraries": [],
  "pending": [],
  "returns": {},
  "timestamp": 1736879269,
  "chain": 11155111,
  "commit": "51a374b"
}