{
  "transactions": [
    {
      "hash": "0xd4fd8718dccb9ede7273dc9f801f105ac976f163d34f84356c8fa1a2b9d1e510",
      "transactionType": "CALL",
      "contractName": null,
      "contractAddress": "0x270e88f8683660553e8ba4eb2ad7c91a1710d769",
      "function": "sell(uint256)",
      "arguments": [
        "977903796291700542331"
      ],
      "transaction": {
        "from": "0xc77f7fed3b5cc8249adc428c5f44c9063b9734b4",
        "to": "0x270e88f8683660553e8ba4eb2ad7c91a1710d769",
        "gas": "0x16fec",
        "value": "0x0",
        "input": "0xe4849b320000000000000000000000000000000000000000000000350324319228c44b7b",
        "nonce": "0x535",
        "chainId": "0xaa36a7"
      },
      "additionalContracts": [],
      "isFixedGasLimit": false
    }
  ],
  "receipts": [
    {
      "status": "0x1",
      "cumulativeGasUsed": "0xa1a121",
      "logs": [
        {
          "address": "0x270e88f8683660553e8ba4eb2ad7c91a1710d769",
          "topics": [
            "0xddf252ad1be2c89b69c2b068fc378daa952ba7f163c4a11628f55a4df523b3ef",
            "0x000000000000000000000000c77f7fed3b5cc8249adc428c5f44c9063b9734b4",
            "0x0000000000000000000000000000000000000000000000000000000000000000"
          ],
          "data": "0x0000000000000000000000000000000000000000000000350324319228c44b7b",
          "blockHash": "0xe1213e2ed2a834c2480ff371cc459ab6f69f5e66a1f7d6f8111b6952cda6198e",
          "blockNumber": "0x7251cf",
          "transactionHash": "0xd4fd8718dccb9ede7273dc9f801f105ac976f163d34f84356c8fa1a2b9d1e510",
          "transactionIndex": "0x4c",
          "logIndex": "0x8b",
          "removed": false
        },
        {
          "address": "0x270e88f8683660553e8ba4eb2ad7c91a1710d769",
          "topics": [
            "0x4afcb4a87cdbd9974efdb92ee48bc8d7cd0ae4bf217004db3d080cbaee652ca7"
          ],
          "data": "0x000000000000000000000000000000000000000000000000000000006786c79800000000000000000000000000000000000000000000000000039bd486bb87a40000000000000000000000000000000000000000000000000dc841067e15c3c1",
          "blockHash": "0xe1213e2ed2a834c2480ff371cc459ab6f69f5e66a1f7d6f8111b6952cda6198e",
          "blockNumber": "0x7251cf",
          "transactionHash": "0xd4fd8718dccb9ede7273dc9f801f105ac976f163d34f84356c8fa1a2b9d1e510",
          "transactionIndex": "0x4c",
          "logIndex": "0x8c",
          "removed": false
        }
      ],
      "logsBloom": "0x00000000000000000000000000000000000000000000000000000000000000000000000000000000000000000000000020000000000000004000000000000000000000000000000000000008000000000000000000000000000000000000000000000000020000000000000000000800020000000000000000000010000000000000000000010000000000000000000000000000000000000000010000000000000000000000000000000000000000004000000000000000000000000000000000000002000000800000000000000000000000000000080000008000000020000000000000000000000000000000000000000000000000000000000000000000",
      "type": "0x2",
      "transactionHash": "0xd4fd8718dccb9ede7273dc9f801f105ac976f163d34f84356c8fa1a2b9d1e510",
      "transactionIndex": "0x4c",
      "blockHash": "0xe1213e2ed2a834c2480ff371cc459ab6f69f5e66a1f7d6f8111b6952cda6198e",
      "blockNumber": "0x7251cf",
      "gasUsed": "0xfb93",
      "effectiveGasPrice": "0x445c96700",
      "from": "0xc77f7fed3b5cc8249adc428c5f44c9063b9734b4",
      "to": "0x270e88f8683660553e8ba4eb2ad7c91a1710d769",
      "contractAddress": null
    }
  ],
  "libraries": [],
  "pending": [],
  "returns": {},
  "timestamp": 1736886169,
  "chain": 11155111,
  "commit": "51a374b"
}