{
  "transactions": [
    {
      "hash": "0x5e7997061148596ddad0ee5ead7609e3b8759af62167ec52b1a33f4985f8f69b",
      "transactionType": "CALL",
      "contractName": null,
      "contractAddress": "0x270e88f8683660553e8ba4eb2ad7c91a1710d769",
      "function": "buy(address)",
      "arguments": [
        "0xC77f7fed3b5Cc8249aDc428c5F44C9063B9734b4"
      ],
      "transaction": {
        "from": "0xc77f7fed3b5cc8249adc428c5f44c9063b9734b4",
        "to": "0x270e88f8683660553e8ba4eb2ad7c91a1710d769",
        "gas": "0x1b30c",
        "value": "0xde0b6b3a7640000",
        "input": "0xf088d547000000000000000000000000c77f7fed3b5cc8249adc428c5f44c9063b9734b4",
        "nonce": "0x839",
        "chainId": "0xaa36a7"
      },
      "additionalContracts": [],
      "isFixedGasLimit": false
    }
  ],
  "receipts": [
    {
      "status": "0x1",
      "cumulativeGasUsed": "0xb60903",
      "logs": [
        {
          "address": "0x270e88f8683660553e8ba4eb2ad7c91a1710d769",
          "topics": [
            "0xddf252ad1be2c89b69c2b068fc378daa952ba7f163c4a11628f55a4df523b3ef",
            "0x0000000000000000000000000000000000000000000000000000000000000000",
            "0x000000000000000000000000c77f7fed3b5cc8249adc428c5f44c9063b9734b4"
          ],
          "data": "0x000000000000000000000000000000000000000000000026ceb73f72f4ac3099",
          "blockHash": "0x80cf131f88dc013f0fc29097bbf502cb04bf621167a865b56b72eccdce4887be",
          "blockNumber": "0x725585",
          "transactionHash": "0x5e7997061148596ddad0ee5ead7609e3b8759af62167ec52b1a33f4985f8f69b",
          "transactionIndex": "0x42",
          "logIndex": "0xd0",
          "removed": false
        },
        {
          "address": "0x270e88f8683660553e8ba4eb2ad7c91a1710d769",
          "topics": [
            "0xddf252ad1be2c89b69c2b068fc378daa952ba7f163c4a11628f55a4df523b3ef",
            "0x0000000000000000000000000000000000000000000000000000000000000000",
            "0x000000000000000000000000c77f7fed3b5cc8249adc428c5f44c9063b9734b4"
          ],
          "data": "0x0000000000000000000000000000000000000000000000001e22a54c94bfe431",
          "blockHash": "0x80cf131f88dc013f0fc29097bbf502cb04bf621167a865b56b72eccdce4887be",
          "blockNumber": "0x725585",
          "transactionHash": "0x5e7997061148596ddad0ee5ead7609e3b8759af62167ec52b1a33f4985f8f69b",
          "transactionIndex": "0x42",
          "logIndex": "0xd1",
          "removed": false
        },
        {
          "address": "0x270e88f8683660553e8ba4eb2ad7c91a1710d769",
          "topics": [
            "0x4afcb4a87cdbd9974efdb92ee48bc8d7cd0ae4bf217004db3d080cbaee652ca7"
          ],
          "data": "0x000000000000000000000000000000000000000000000000000000006786f4440000000000000000000000000000000000000000000000000004e9df2871fb7e0000000000000000000000000000000000000000000000000de0b6b3a7640000",
          "blockHash": "0x80cf131f88dc013f0fc29097bbf502cb04bf621167a865b56b72eccdce4887be",
          "blockNumber": "0x725585",
          "transactionHash": "0x5e7997061148596ddad0ee5ead7609e3b8759af62167ec52b1a33f4985f8f69b",
          "transactionIndex": "0x42",
          "logIndex": "0xd2",
          "removed": false
        }
      ],
      "logsBloom": "0x00000000000000000000000000000000000000000000000000000000000000000000000000000000000000000000000020000000000000004000000000000000000000000000000000000008000000000000000000000000000000000000000000000000020000000000000000000800020000000000000000000010000000000000000000010000000000000000000000000000000000000000010000000000000000000000000000000000000000004000000000000000000000000000000000000002000000800000000000000000000000000000080000008000000020000000000000000000000000000000000000000000000000000000000000000000",
      "type": "0x2",
      "transactionHash": "0x5e7997061148596ddad0ee5ead7609e3b8759af62167ec52b1a33f4985f8f69b",
      "transactionIndex": "0x42",
      "blockHash": "0x80cf131f88dc013f0fc29097bbf502cb04bf621167a865b56b72eccdce4887be",
      "blockNumber": "0x725585",
      "gasUsed": "0x13af8",
      "effectiveGasPrice": "0x6fa6aa64",
      "from": "0xc77f7fed3b5cc8249adc428c5f44c9063b9734b4",
      "to": "0x270e88f8683660553e8ba4eb2ad7c91a1710d769",
      "contractAddress": null
    }
  ],
  "libraries": [],
  "pending": [],
  "returns": {},
  "timestamp": 1736897606,
  "chain": 11155111,
  "commit": "51a374b"
}