{
  "transactions": [
    {
      "hash": "0x78d4553793b37ad0f2a4945d8cf8ecab423c4d8af69c837cd6864ae9e69d5a3e",
      "transactionType": "CALL",
      "contractName": null,
      "contractAddress": "0x270e88f8683660553e8ba4eb2ad7c91a1710d769",
      "function": "buy(address)",
      "arguments": [
        "0xC77f7fed3b5Cc8249aDc428c5F44C9063B9734b4"
      ],
      "transaction": {
        "from": "0xc77f7fed3b5cc8249adc428c5f44c9063b9734b4",
        "to": "0x270e88f8683660553e8ba4eb2ad7c91a1710d769",
        "gas": "0x1b30c",
        "value": "0xde0b6b3a7640000",
        "input": "0xf088d547000000000000000000000000c77f7fed3b5cc8249adc428c5f44c9063b9734b4",
        "nonce": "0x6bd",
        "chainId": "0xaa36a7"
      },
      "additionalContracts": [],
      "isFixedGasLimit": false
    }
  ],
  "receipts": [
    {
      "status": "0x1",
      "cumulativeGasUsed": "0x6ee3d7",
      "logs": [
        {
          "address": "0x270e88f8683660553e8ba4eb2ad7c91a1710d769",
          "topics": [
            "0xddf252ad1be2c89b69c2b068fc378daa952ba7f163c4a11628f55a4df523b3ef",
            "0x0000000000000000000000000000000000000000000000000000000000000000",
            "0x000000000000000000000000c77f7fed3b5cc8249adc428c5f44c9063b9734b4"
          ],
          "data": "0x0000000000000000000000000000000000000000000000289ab6d3d32455183b",
          "blockHash": "0x909fbd20367c4853304705e2a2f65494475cf5935a602f90c65c0e1f4eee0cbf",
          "blockNumber": "0x7253c8",
          "transactionHash": "0x78d4553793b37ad0f2a4945d8cf8ecab423c4d8af69c837cd6864ae9e69d5a3e",
          "transactionIndex": "0x3e",
          "logIndex": "0x82",
          "removed": false
        },
        {
          "address": "0x270e88f8683660553e8ba4eb2ad7c91a1710d769",
          "topics": [
            "0xddf252ad1be2c89b69c2b068fc378daa952ba7f163c4a11628f55a4df523b3ef",
            "0x0000000000000000000000000000000000000000000000000000000000000000",
            "0x000000000000000000000000c77f7fed3b5cc8249adc428c5f44c9063b9734b4"
          ],
          "data": "0x0000000000000000000000000000000000000000000000001f87d9a1246dbfda",
          "blockHash": "0x909fbd20367c4853304705e2a2f65494475cf5935a602f90c65c0e1f4eee0cbf",
          "blockNumber": "0x7253c8",
          "transactionHash": "0x78d4553793b37ad0f2a4945d8cf8ecab423c4d8af69c837cd6864ae9e69d5a3e",
          "transactionIndex": "0x3e",
          "logIndex": "0x83",
          "removed": false
        },
        {
          "address": "0x270e88f8683660553e8ba4eb2ad7c91a1710d769",
          "topics": [
            "0x4afcb4a87cdbd9974efdb92ee48bc8d7cd0ae4bf217004db3d080cbaee652ca7"
          ],
          "data": "0x000000000000000000000000000000000000000000000000000000006786df680000000000000000000000000000000000000000000000000004b236292196470000000000000000000000000000000000000000000000000de0b6b3a7640000",
          "blockHash": "0x909fbd20367c4853304705e2a2f65494475cf5935a602f90c65c0e1f4eee0cbf",
          "blockNumber": "0x7253c8",
          "transactionHash": "0x78d4553793b37ad0f2a4945d8cf8ecab423c4d8af69c837cd6864ae9e69d5a3e",
          "transactionIndex": "0x3e",
          "logIndex": "0x84",
          "removed": false
        }
      ],
      "logsBloom": "0x00000000000000000000000000000000000000000000000000000000000000000000000000000000000000000000000020000000000000004000000000000000000000000000000000000008000000000000000000000000000000000000000000000000020000000000000000000800020000000000000000000010000000000000000000010000000000000000000000000000000000000000010000000000000000000000000000000000000000004000000000000000000000000000000000000002000000800000000000000000000000000000080000008000000020000000000000000000000000000000000000000000000000000000000000000000",
      "type": "0x2",
      "transactionHash": "0x78d4553793b37ad0f2a4945d8cf8ecab423c4d8af69c837cd6864ae9e69d5a3e",
      "transactionIndex": "0x3e",
      "blockHash": "0x909fbd20367c4853304705e2a2f65494475cf5935a602f90c65c0e1f4eee0cbf",
      "blockNumber": "0x7253c8",
      "gasUsed": "0x13af8",
      "effectiveGasPrice": "0x17ddc02f4",
      "from": "0xc77f7fed3b5cc8249adc428c5f44c9063b9734b4",
      "to": "0x270e88f8683660553e8ba4eb2ad7c91a1710d769",
      "contractAddress": null
    }
  ],
  "libraries": [],
  "pending": [],
  "returns": {},
  "timestamp": 1736892266,
  "chain": 11155111,
  "commit": "51a374b"
}