{
  "transactions": [
    {
      "hash": "0x9336b34519e81d070d6fde7819bf56d7ff07dcc762db467326705611e7ca616d",
      "transactionType": "CALL",
      "contractName": null,
      "contractAddress": "0x8aafd3ede9adb0ff97c7aebce82a919afb1c8764",
      "function": "sell(uint256)",
      "arguments": [
        "155826907663243157667"
      ],
      "transaction": {
        "from": "0xc77f7fed3b5cc8249adc428c5f44c9063b9734b4",
        "to": "0x8aafd3ede9adb0ff97c7aebce82a919afb1c8764",
        "gas": "0x17270",
        "value": "0x0",
        "input": "0xe4849b32000000000000000000000000000000000000000000000008728862e9d33420a3",
        "nonce": "0x16e5",
        "chainId": "0xaa36a7"
      },
      "additionalContracts": [],
      "isFixedGasLimit": false
    }
  ],
  "receipts": [
    {
      "status": "0x1",
      "cumulativeGasUsed": "0xcd7709",
      "logs": [
        {
          "address": "0x8aafd3ede9adb0ff97c7aebce82a919afb1c8764",
          "topics": [
            "0xddf252ad1be2c89b69c2b068fc378daa952ba7f163c4a11628f55a4df523b3ef",
            "0x000000000000000000000000c77f7fed3b5cc8249adc428c5f44c9063b9734b4",
            "0x0000000000000000000000000000000000000000000000000000000000000000"
          ],
          "data": "0x000000000000000000000000000000000000000000000008613b84f0257b63f6",
          "blockHash": "0x333535fb858b7740243b3076797357092ece7e760add5fe752c7c4972ef83875",
          "blockNumber": "0x731ea4",
          "transactionHash": "0x9336b34519e81d070d6fde7819bf56d7ff07dcc762db467326705611e7ca616d",
          "transactionIndex": "0x74",
          "logIndex": "0xa2",
          "removed": false
        },
        {
          "address": "0x8aafd3ede9adb0ff97c7aebce82a919afb1c8764",
          "topics": [
            "0xddf252ad1be2c89b69c2b068fc378daa952ba7f163c4a11628f55a4df523b3ef",
            "0x000000000000000000000000c77f7fed3b5cc8249adc428c5f44c9063b9734b4",
            "0x000000000000000000000000c77f7fed3b5cc8249adc428c5f44c9063b9734b4"
          ],
          "data": "0x000000000000000000000000000000000000000000000000114cddf9adb8bcad",
          "blockHash": "0x333535fb858b7740243b3076797357092ece7e760add5fe752c7c4972ef83875",
          "blockNumber": "0x731ea4",
          "transactionHash": "0x9336b34519e81d070d6fde7819bf56d7ff07dcc762db467326705611e7ca616d",
          "transactionIndex": "0x74",
          "logIndex": "0xa3",
          "removed": false
        },
        {
          "address": "0x8aafd3ede9adb0ff97c7aebce82a919afb1c8764",
          "topics": [
            "0x4afcb4a87cdbd9974efdb92ee48bc8d7cd0ae4bf217004db3d080cbaee652ca7"
          ],
          "data": "0x0000000000000000000000000000000000000000000000000000000067906c980000000000000000000000000000000000000000000000000016be7bcbcdaf9c0000000000000000000000000000000000000000000000000dcc083ba59d0eee",
          "blockHash": "0x333535fb858b7740243b3076797357092ece7e760add5fe752c7c4972ef83875",
          "blockNumber": "0x731ea4",
          "transactionHash": "0x9336b34519e81d070d6fde7819bf56d7ff07dcc762db467326705611e7ca616d",
          "transactionIndex": "0x74",
          "logIndex": "0xa4",
          "removed": false
        }
      ],
      "logsBloom": "0x00000000000000000000000000000000000000000600000000000000000000000000000000000000000000000000000000000000000000004000000000000000000000000000004000000008000000000000000000000000000000000000000000000000020000000000000000000800020000000000000000000010000000000000000000000000000000000000000000000000000000000000010000000000000000000000000000000000000000004000000000000000000000000000000000000002000000800000000000000000000000000000080000000000000020000000000000000000000000000000000000000000000000000000000000000000",
      "type": "0x2",
      "transactionHash": "0x9336b34519e81d070d6fde7819bf56d7ff07dcc762db467326705611e7ca616d",
      "transactionIndex": "0x74",
      "blockHash": "0x333535fb858b7740243b3076797357092ece7e760add5fe752c7c4972ef83875",
      "blockNumber": "0x731ea4",
      "gasUsed": "0xfd4b",
      "effectiveGasPrice": "0x459bb58e",
      "from": "0xc77f7fed3b5cc8249adc428c5f44c9063b9734b4",
      "to": "0x8aafd3ede9adb0ff97c7aebce82a919afb1c8764",
      "contractAddress": null
    }
  ],
  "libraries": [],
  "pending": [],
  "returns": {},
  "timestamp": 1737518234,
  "chain": 11155111,
  "commit": "1d2fb70"
}