{
  "transactions": [
    {
      "hash": "0xe3cff0662b33e196c06a8971acf8aa479e804b5dcc02f5cd55c8d58be5bf673d",
      "transactionType": "CALL",
      "contractName": null,
      "contractAddress": "0x5eb9cc76c3506942c1c0ead70e877dd5e4f00cb0",
      "function": "sell(uint256)",
      "arguments": [
        "989132508227419053724"
      ],
      "transaction": {
        "from": "0xc77f7fed3b5cc8249adc428c5f44c9063b9734b4",
        "to": "0x5eb9cc76c3506942c1c0ead70e877dd5e4f00cb0",
        "gas": "0x16fec",
        "value": "0x0",
        "input": "0xe4849b320000000000000000000000000000000000000000000000359ef897958e751e9c",
        "nonce": "0x335",
        "chainId": "0xaa36a7"
      },
      "additionalContracts": [],
      "isFixedGasLimit": false
    }
  ],
  "receipts": [
    {
      "status": "0x1",
      "cumulativeGasUsed": "0xb4f138",
      "logs": [
        {
          "address": "0x5eb9cc76c3506942c1c0ead70e877dd5e4f00cb0",
          "topics": [
            "0xddf252ad1be2c89b69c2b068fc378daa952ba7f163c4a11628f55a4df523b3ef",
            "0x000000000000000000000000c77f7fed3b5cc8249adc428c5f44c9063b9734b4",
            "0x0000000000000000000000000000000000000000000000000000000000000000"
          ],
          "data": "0x0000000000000000000000000000000000000000000000359ef897958e751e9c",
          "blockHash": "0x7552d515b9fc06dba98281574ccf2eeef5d431b776aa7ed2b4915dbdaf13cc58",
          "blockNumber": "0x724f22",
          "transactionHash": "0xe3cff0662b33e196c06a8971acf8aa479e804b5dcc02f5cd55c8d58be5bf673d",
          "transactionIndex": "0x5c",
          "logIndex": "0x9e",
          "removed": false
        },
        {
          "address": "0x5eb9cc76c3506942c1c0ead70e877dd5e4f00cb0",
          "topics": [
            "0x4afcb4a87cdbd9974efdb92ee48bc8d7cd0ae4bf217004db3d080cbaee652ca7"
          ],
          "data": "0x000000000000000000000000000000000000000000000000000000006786a74c0000000000000000000000000000000000000000000000000003910dca3174210000000000000000000000000000000000000000000000000dc7db1332214add",
          "blockHash": "0x7552d515b9fc06dba98281574ccf2eeef5d431b776aa7ed2b4915dbdaf13cc58",
          "blockNumber": "0x724f22",
          "transactionHash": "0xe3cff0662b33e196c06a8971acf8aa479e804b5dcc02f5cd55c8d58be5bf673d",
          "transactionIndex": "0x5c",
          "logIndex": "0x9f",
          "removed": false
        }
      ],
      "logsBloom": "0x00000000000000000000000000000000000000000000000000000000000000000000000000000000000000000000000000000000000000004000000000000000000000000000000000000008000000000000000000000000000000000000000000000000020000000000000004000800020000000000000000000010000000000000000000000000000000000000000000000000000000000000010000000000000000000000000000000000000000004000000000000000000000000000020000000002000000800000008000000000000000000000080000000000000020000000000000000000000000000000000000000000000000000000000000000000",
      "type": "0x2",
      "transactionHash": "0xe3cff0662b33e196c06a8971acf8aa479e804b5dcc02f5cd55c8d58be5bf673d",
      "transactionIndex": "0x5c",
      "blockHash": "0x7552d515b9fc06dba98281574ccf2eeef5d431b776aa7ed2b4915dbdaf13cc58",
      "blockNumber": "0x724f22",
      "gasUsed": "0xfb93",
      "effectiveGasPrice": "0x6517910d3",
      "from": "0xc77f7fed3b5cc8249adc428c5f44c9063b9734b4",
      "to": "0x5eb9cc76c3506942c1c0ead70e877dd5e4f00cb0",
      "contractAddress": null
    }
  ],
  "libraries": [],
  "pending": [],
  "returns": {},
  "timestamp": 1736877902,
  "chain": 11155111,
  "commit": "51a374b"
}