{
  "transactions": [
    {
      "hash": "0xf41eff1f5fdc461603d486970181d3b46e5cd091e0acc8ada0d5af09f4d2337c",
      "transactionType": "CALL",
      "contractName": null,
      "contractAddress": "0x8aafd3ede9adb0ff97c7aebce82a919afb1c8764",
      "function": "sell(uint256)",
      "arguments": [
        "520539"
      ],
      "transaction": {
        "from": "0xc77f7fed3b5cc8249adc428c5f44c9063b9734b4",
        "to": "0x8aafd3ede9adb0ff97c7aebce82a919afb1c8764",
        "gas": "0x16208",
        "value": "0x0",
        "input": "0xe4849b32000000000000000000000000000000000000000000000000000000000007f15b",
        "nonce": "0x1413",
        "chainId": "0xaa36a7"
      },
      "additionalContracts": [],
      "isFixedGasLimit": false
    }
  ],
  "receipts": [
    {
      "status": "0x1",
      "cumulativeGasUsed": "0x18865c4",
      "logs": [
        {
          "address": "0x8aafd3ede9adb0ff97c7aebce82a919afb1c8764",
          "topics": [
            "0xddf252ad1be2c89b69c2b068fc378daa952ba7f163c4a11628f55a4df523b3ef",
            "0x000000000000000000000000c77f7fed3b5cc8249adc428c5f44c9063b9734b4",
            "0x0000000000000000000000000000000000000000000000000000000000000000"
          ],
          "data": "0x000000000000000000000000000000000000000000000000000000000007e117",
          "blockHash": "0x90945497b3eb07a9fd2e7c575cfc32db9f4e1af2787b02664d61764142907f3d",
          "blockNumber": "0x731b4e",
          "transactionHash": "0xf41eff1f5fdc461603d486970181d3b46e5cd091e0acc8ada0d5af09f4d2337c",
          "transactionIndex": "0xc4",
          "logIndex": "0x112",
          "removed": false
        },
        {
          "address": "0x8aafd3ede9adb0ff97c7aebce82a919afb1c8764",
          "topics": [
            "0xddf252ad1be2c89b69c2b068fc378daa952ba7f163c4a11628f55a4df523b3ef",
            "0x000000000000000000000000c77f7fed3b5cc8249adc428c5f44c9063b9734b4",
            "0x000000000000000000000000c77f7fed3b5cc8249adc428c5f44c9063b9734b4"
          ],
          "data": "0x0000000000000000000000000000000000000000000000000000000000001044",
          "blockHash": "0x90945497b3eb07a9fd2e7c575cfc32db9f4e1af2787b02664d61764142907f3d",
          "blockNumber": "0x731b4e",
          "transactionHash": "0xf41eff1f5fdc461603d486970181d3b46e5cd091e0acc8ada0d5af09f4d2337c",
          "transactionIndex": "0xc4",
          "logIndex": "0x113",
          "removed": false
        },
        {
          "address": "0x8aafd3ede9adb0ff97c7aebce82a919afb1c8764",
          "topics": [
            "0x4afcb4a87cdbd9974efdb92ee48bc8d7cd0ae4bf217004db3d080cbaee652ca7"
          ],
          "data": "0x0000000000000000000000000000000000000000000000000000000067904478000000000000000000000000000000000000000000000000000e50d2e2eaa30d0000000000000000000000000000000000000000000000000000000000000831",
          "blockHash": "0x90945497b3eb07a9fd2e7c575cfc32db9f4e1af2787b02664d61764142907f3d",
          "blockNumber": "0x731b4e",
          "transactionHash": "0xf41eff1f5fdc461603d486970181d3b46e5cd091e0acc8ada0d5af09f4d2337c",
          "transactionIndex": "0xc4",
          "logIndex": "0x114",
          "removed": false
        }
      ],
      "logsBloom": "0x00000000000000000000000000000000000000000600000000000000000000000000000000000000000000000000000000000000000000004000000000000000000000000000004000000008000000000000000000000000000000000000000000000000020000000000000000000800020000000000000000000010000000000000000000000000000000000000000000000000000000000000010000000000000000000000000000000000000000004000000000000000000000000000000000000002000000800000000000000000000000000000080000000000000020000000000000000000000000000000000000000000000000000000000000000000",
      "type": "0x2",
      "transactionHash": "0xf41eff1f5fdc461603d486970181d3b46e5cd091e0acc8ada0d5af09f4d2337c",
      "transactionIndex": "0xc4",
      "blockHash": "0x90945497b3eb07a9fd2e7c575cfc32db9f4e1af2787b02664d61764142907f3d",
      "blockNumber": "0x731b4e",
      "gasUsed": "0xf213",
      "effectiveGasPrice": "0xcd16a509",
      "from": "0xc77f7fed3b5cc8249adc428c5f44c9063b9734b4",
      "to": "0x8aafd3ede9adb0ff97c7aebce82a919afb1c8764",
      "contractAddress": null
    }
  ],
  "libraries": [],
  "pending": [],
  "returns": {},
  "timestamp": 1737507961,
  "chain": 11155111,
  "commit": "1d2fb70"
}