{
  "transactions": [
    {
      "hash": "0x5a1ced65e26583dcabdd414842bf190c2618d4eb7b852b5de317b6fc4bc5b3b4",
      "transactionType": "CALL",
      "contractName": null,
      "contractAddress": "0x270e88f8683660553e8ba4eb2ad7c91a1710d769",
      "function": "buy(address)",
      "arguments": [
        "0xC77f7fed3b5Cc8249aDc428c5F44C9063B9734b4"
      ],
      "transaction": {
        "from": "0xc77f7fed3b5cc8249adc428c5f44c9063b9734b4",
        "to": "0x270e88f8683660553e8ba4eb2ad7c91a1710d769",
        "gas": "0x1b30c",
        "value": "0xde0b6b3a7640000",
        "input": "0xf088d547000000000000000000000000c77f7fed3b5cc8249adc428c5f44c9063b9734b4",
        "nonce": "0x6a7",
        "chainId": "0xaa36a7"
      },
      "additionalContracts": [],
      "isFixedGasLimit": false
    }
  ],
  "receipts": [
    {
      "status": "0x1",
      "cumulativeGasUsed": "0x202fa4c",
      "logs": [
        {
          "address": "0x270e88f8683660553e8ba4eb2ad7c91a1710d769",
          "topics": [
            "0xddf252ad1be2c89b69c2b068fc378daa952ba7f163c4a11628f55a4df523b3ef",
            "0x0000000000000000000000000000000000000000000000000000000000000000",
            "0x000000000000000000000000c77f7fed3b5cc8249adc428c5f44c9063b9734b4"
          ],
          "data": "0x000000000000000000000000000000000000000000000028b6a6963e9fa92fff",
          "blockHash": "0xd3e7bb2b16bdc69e649a01c281285ddd891f3690b308b70572cdf35225d71bda",
          "blockNumber": "0x7253ad",
          "transactionHash": "0x5a1ced65e26583dcabdd414842bf190c2618d4eb7b852b5de317b6fc4bc5b3b4",
          "transactionIndex": "0xaf",
          "logIndex": "0x2c1",
          "removed": false
        },
        {
          "address": "0x270e88f8683660553e8ba4eb2ad7c91a1710d769",
          "topics": [
            "0xddf252ad1be2c89b69c2b068fc378daa952ba7f163c4a11628f55a4df523b3ef",
            "0x0000000000000000000000000000000000000000000000000000000000000000",
            "0x000000000000000000000000c77f7fed3b5cc8249adc428c5f44c9063b9734b4"
          ],
          "data": "0x0000000000000000000000000000000000000000000000001f9d8b36f1814533",
          "blockHash": "0xd3e7bb2b16bdc69e649a01c281285ddd891f3690b308b70572cdf35225d71bda",
          "blockNumber": "0x7253ad",
          "transactionHash": "0x5a1ced65e26583dcabdd414842bf190c2618d4eb7b852b5de317b6fc4bc5b3b4",
          "transactionIndex": "0xaf",
          "logIndex": "0x2c2",
          "removed": false
        },
        {
          "address": "0x270e88f8683660553e8ba4eb2ad7c91a1710d769",
          "topics": [
            "0x4afcb4a87cdbd9974efdb92ee48bc8d7cd0ae4bf217004db3d080cbaee652ca7"
          ],
          "data": "0x000000000000000000000000000000000000000000000000000000006786de240000000000000000000000000000000000000000000000000004aefd4df1bd6c0000000000000000000000000000000000000000000000000de0b6b3a7640000",
          "blockHash": "0xd3e7bb2b16bdc69e649a01c281285ddd891f3690b308b70572cdf35225d71bda",
          "blockNumber": "0x7253ad",
          "transactionHash": "0x5a1ced65e26583dcabdd414842bf190c2618d4eb7b852b5de317b6fc4bc5b3b4",
          "transactionIndex": "0xaf",
          "logIndex": "0x2c3",
          "removed": false
        }
      ],
      "logsBloom": "0x00000000000000000000000000000000000000000000000000000000000000000000000000000000000000000000000020000000000000004000000000000000000000000000000000000008000000000000000000000000000000000000000000000000020000000000000000000800020000000000000000000010000000000000000000010000000000000000000000000000000000000000010000000000000000000000000000000000000000004000000000000000000000000000000000000002000000800000000000000000000000000000080000008000000020000000000000000000000000000000000000000000000000000000000000000000",
      "type": "0x2",
      "transactionHash": "0x5a1ced65e26583dcabdd414842bf190c2618d4eb7b852b5de317b6fc4bc5b3b4",
      "transactionIndex": "0xaf",
      "blockHash": "0xd3e7bb2b16bdc69e649a01c281285ddd891f3690b308b70572cdf35225d71bda",
      "blockNumber": "0x7253ad",
      "gasUsed": "0x13af8",
      "effectiveGasPrice": "0x1849197a8",
      "from": "0xc77f7fed3b5cc8249adc428c5f44c9063b9734b4",
      "to": "0x270e88f8683660553e8ba4eb2ad7c91a1710d769",
      "contractAddress": null
    }
  ],
  "libraries": [],
  "pending": [],
  "returns": {},
  "timestamp": 1736891941,
  "chain": 11155111,
  "commit": "51a374b"
}