{
  "transactions": [
    {
      "hash": "0x5915aa0577e3e68730758b97df6bd5f0f31a41c3ef48f11b03459e57890ddcc3",
      "transactionType": "CALL",
      "contractName": null,
      "contractAddress": "0x8aafd3ede9adb0ff97c7aebce82a919afb1c8764",
      "function": "sell(uint256)",
      "arguments": [
        "194558760"
      ],
      "transaction": {
        "from": "0xc77f7fed3b5cc8249adc428c5f44c9063b9734b4",
        "to": "0x8aafd3ede9adb0ff97c7aebce82a919afb1c8764",
        "gas": "0x14e6c",
        "value": "0x0",
        "input": "0xe4849b32000000000000000000000000000000000000000000000000000000000b98bb28",
        "nonce": "0xf63",
        "chainId": "0xaa36a7"
      },
      "additionalContracts": [],
      "isFixedGasLimit": false
    }
  ],
  "receipts": [
    {
      "status": "0x1",
      "cumulativeGasUsed": "0x130ce26",
      "logs": [
        {
          "address": "0x8aafd3ede9adb0ff97c7aebce82a919afb1c8764",
          "topics": [
            "0xddf252ad1be2c89b69c2b068fc378daa952ba7f163c4a11628f55a4df523b3ef",
            "0x000000000000000000000000c77f7fed3b5cc8249adc428c5f44c9063b9734b4",
            "0x0000000000000000000000000000000000000000000000000000000000000000"
          ],
          "data": "0x000000000000000000000000000000000000000000000000000000000b80fb32",
          "blockHash": "0x1754fbda0e1acb89e3fdd32045b3746019a7c20563893b64b64ee3d94694901f",
          "blockNumber": "0x7315c2",
          "transactionHash": "0x5915aa0577e3e68730758b97df6bd5f0f31a41c3ef48f11b03459e57890ddcc3",
          "transactionIndex": "0x98",
          "logIndex": "0x147",
          "removed": false
        },
        {
          "address": "0x8aafd3ede9adb0ff97c7aebce82a919afb1c8764",
          "topics": [
            "0xddf252ad1be2c89b69c2b068fc378daa952ba7f163c4a11628f55a4df523b3ef",
            "0x000000000000000000000000c77f7fed3b5cc8249adc428c5f44c9063b9734b4",
            "0x000000000000000000000000c77f7fed3b5cc8249adc428c5f44c9063b9734b4"
          ],
          "data": "0x000000000000000000000000000000000000000000000000000000000017bff6",
          "blockHash": "0x1754fbda0e1acb89e3fdd32045b3746019a7c20563893b64b64ee3d94694901f",
          "blockNumber": "0x7315c2",
          "transactionHash": "0x5915aa0577e3e68730758b97df6bd5f0f31a41c3ef48f11b03459e57890ddcc3",
          "transactionIndex": "0x98",
          "logIndex": "0x148",
          "removed": false
        },
        {
          "address": "0x8aafd3ede9adb0ff97c7aebce82a919afb1c8764",
          "topics": [
            "0x4afcb4a87cdbd9974efdb92ee48bc8d7cd0ae4bf217004db3d080cbaee652ca7"
          ],
          "data": "0x00000000000000000000000000000000000000000000000000000000679001c40000000000000000000000000000000000000000000000000004c12f91818eda000000000000000000000000000000000000000000000000000000000003f91b",
          "blockHash": "0x1754fbda0e1acb89e3fdd32045b3746019a7c20563893b64b64ee3d94694901f",
          "blockNumber": "0x7315c2",
          "transactionHash": "0x5915aa0577e3e68730758b97df6bd5f0f31a41c3ef48f11b03459e57890ddcc3",
          "transactionIndex": "0x98",
          "logIndex": "0x149",
          "removed": false
        }
      ],
      "logsBloom": "0x00000000000000000000000000000000000000000600000000000000000000000000000000000000000000000000000000000000000000004000000000000000000000000000004000000008000000000000000000000000000000000000000000000000020000000000000000000800020000000000000000000010000000000000000000000000000000000000000000000000000000000000010000000000000000000000000000000000000000004000000000000000000000000000000000000002000000800000000000000000000000000000080000000000000020000000000000000000000000000000000000000000000000000000000000000000",
      "type": "0x2",
      "transactionHash": "0x5915aa0577e3e68730758b97df6bd5f0f31a41c3ef48f11b03459e57890ddcc3",
      "transactionIndex": "0x98",
      "blockHash": "0x1754fbda0e1acb89e3fdd32045b3746019a7c20563893b64b64ee3d94694901f",
      "blockNumber": "0x7315c2",
      "gasUsed": "0xf21f",
      "effectiveGasPrice": "0x6399304b",
      "from": "0xc77f7fed3b5cc8249adc428c5f44c9063b9734b4",
      "to": "0x8aafd3ede9adb0ff97c7aebce82a919afb1c8764",
      "contractAddress": null
    }
  ],
  "libraries": [],
  "pending": [],
  "returns": {},
  "timestamp": 1737490885,
  "chain": 11155111,
  "commit": "1d2fb70"
}