{
  "transactions": [
    {
      "hash": "0x04a69ba7d971fd0fe3e4a51e26f08c78653169b92e95d01c98ae0a4253f82744",
      "transactionType": "CALL",
      "contractName": null,
      "contractAddress": "0x270e88f8683660553e8ba4eb2ad7c91a1710d769",
      "function": "sell(uint256)",
      "arguments": [
        "959962593504835180770"
      ],
      "transaction": {
        "from": "0xc77f7fed3b5cc8249adc428c5f44c9063b9734b4",
        "to": "0x270e88f8683660553e8ba4eb2ad7c91a1710d769",
        "gas": "0x16fec",
        "value": "0x0",
        "input": "0xe4849b320000000000000000000000000000000000000000000000340a283cb15e6898e2",
        "nonce": "0x5ab",
        "chainId": "0xaa36a7"
      },
      "additionalContracts": [],
      "isFixedGasLimit": false
    }
  ],
  "receipts": [
    {
      "status": "0x1",
      "cumulativeGasUsed": "0x74d256",
      "logs": [
        {
          "address": "0x270e88f8683660553e8ba4eb2ad7c91a1710d769",
          "topics": [
            "0xddf252ad1be2c89b69c2b068fc378daa952ba7f163c4a11628f55a4df523b3ef",
            "0x000000000000000000000000c77f7fed3b5cc8249adc428c5f44c9063b9734b4",
            "0x0000000000000000000000000000000000000000000000000000000000000000"
          ],
          "data": "0x0000000000000000000000000000000000000000000000340a283cb15e6898e2",
          "blockHash": "0x0565836a684a6b78c47a4a5e022a294eab509d47baa3be570db17e488380454a",
          "blockNumber": "0x725265",
          "transactionHash": "0x04a69ba7d971fd0fe3e4a51e26f08c78653169b92e95d01c98ae0a4253f82744",
          "transactionIndex": "0x47",
          "logIndex": "0xab",
          "removed": false
        },
        {
          "address": "0x270e88f8683660553e8ba4eb2ad7c91a1710d769",
          "topics": [
            "0x4afcb4a87cdbd9974efdb92ee48bc8d7cd0ae4bf217004db3d080cbaee652ca7"
          ],
          "data": "0x000000000000000000000000000000000000000000000000000000006786ceac0000000000000000000000000000000000000000000000000003ad1734e0c4890000000000000000000000000000000000000000000000000dc83f2eb6fb8d90",
          "blockHash": "0x0565836a684a6b78c47a4a5e022a294eab509d47baa3be570db17e488380454a",
          "blockNumber": "0x725265",
          "transactionHash": "0x04a69ba7d971fd0fe3e4a51e26f08c78653169b92e95d01c98ae0a4253f82744",
          "transactionIndex": "0x47",
          "logIndex": "0xac",
          "removed": false
        }
      ],
      "logsBloom": "0x00000000000000000000000000000000000000000000000000000000000000000000000000000000000000000000000020000000000000004000000000000000000000000000000000000008000000000000000000000000000000000000000000000000020000000000000000000800020000000000000000000010000000000000000000010000000000000000000000000000000000000000010000000000000000000000000000000000000000004000000000000000000000000000000000000002000000800000000000000000000000000000080000008000000020000000000000000000000000000000000000000000000000000000000000000000",
      "type": "0x2",
      "transactionHash": "0x04a69ba7d971fd0fe3e4a51e26f08c78653169b92e95d01c98ae0a4253f82744",
      "transactionIndex": "0x47",
      "blockHash": "0x0565836a684a6b78c47a4a5e022a294eab509d47baa3be570db17e488380454a",
      "blockNumber": "0x725265",
      "gasUsed": "0xfb93",
      "effectiveGasPrice": "0x4701f2450",
      "from": "0xc77f7fed3b5cc8249adc428c5f44c9063b9734b4",
      "to": "0x270e88f8683660553e8ba4eb2ad7c91a1710d769",
      "contractAddress": null
    }
  ],
  "libraries": [],
  "pending": [],
  "returns": {},
  "timestamp": 1736887981,
  "chain": 11155111,
  "commit": "51a374b"
}