{
  "transactions": [
    {
      "hash": "0x2ab67b4abebd70f7d96b36a07b62957529ac0c99e3ddf97ebac11f965cfcebba",
      "transactionType": "CALL",
      "contractName": null,
      "contractAddress": "0x8aafd3ede9adb0ff97c7aebce82a919afb1c8764",
      "function": "sell(uint256)",
      "arguments": [
        "261407468290210695149"
      ],
      "transaction": {
        "from": "0xc77f7fed3b5cc8249adc428c5f44c9063b9734b4",
        "to": "0x8aafd3ede9adb0ff97c7aebce82a919afb1c8764",
        "gas": "0x17270",
        "value": "0x0",
        "input": "0xe4849b3200000000000000000000000000000000000000000000000e2bc1e369f03287ed",
        "nonce": "0x13cd",
        "chainId": "0xaa36a7"
      },
      "additionalContracts": [],
      "isFixedGasLimit": false
    }
  ],
  "receipts": [
    {
      "status": "0x1",
      "cumulativeGasUsed": "0x132238f",
      "logs": [
        {
          "address": "0x8aafd3ede9adb0ff97c7aebce82a919afb1c8764",
          "topics": [
            "0xddf252ad1be2c89b69c2b068fc378daa952ba7f163c4a11628f55a4df523b3ef",
            "0x000000000000000000000000c77f7fed3b5cc8249adc428c5f44c9063b9734b4",
            "0x0000000000000000000000000000000000000000000000000000000000000000"
          ],
          "data": "0x00000000000000000000000000000000000000000000000e0ebc3dc1279eabb4",
          "blockHash": "0x168dc8304eb1b04339ea0742b08d986bf87ca8a9538f6c4dbefdbee84430e969",
          "blockNumber": "0x731af9",
          "transactionHash": "0x2ab67b4abebd70f7d96b36a07b62957529ac0c99e3ddf97ebac11f965cfcebba",
          "transactionIndex": "0xa9",
          "logIndex": "0xbc",
          "removed": false
        },
        {
          "address": "0x8aafd3ede9adb0ff97c7aebce82a919afb1c8764",
          "topics": [
            "0xddf252ad1be2c89b69c2b068fc378daa952ba7f163c4a11628f55a4df523b3ef",
            "0x000000000000000000000000c77f7fed3b5cc8249adc428c5f44c9063b9734b4",
            "0x000000000000000000000000c77f7fed3b5cc8249adc428c5f44c9063b9734b4"
          ],
          "data": "0x0000000000000000000000000000000000000000000000001d05a5a8c893dc39",
          "blockHash": "0x168dc8304eb1b04339ea0742b08d986bf87ca8a9538f6c4dbefdbee84430e969",
          "blockNumber": "0x731af9",
          "transactionHash": "0x2ab67b4abebd70f7d96b36a07b62957529ac0c99e3ddf97ebac11f965cfcebba",
          "transactionIndex": "0xa9",
          "logIndex": "0xbd",
          "removed": false
        },
        {
          "address": "0x8aafd3ede9adb0ff97c7aebce82a919afb1c8764",
          "topics": [
            "0x4afcb4a87cdbd9974efdb92ee48bc8d7cd0ae4bf217004db3d080cbaee652ca7"
          ],
          "data": "0x000000000000000000000000000000000000000000000000000000006790407c000000000000000000000000000000000000000000000000000d98eb363ec2690000000000000000000000000000000000000000000000000dce25602ab78b93",
          "blockHash": "0x168dc8304eb1b04339ea0742b08d986bf87ca8a9538f6c4dbefdbee84430e969",
          "blockNumber": "0x731af9",
          "transactionHash": "0x2ab67b4abebd70f7d96b36a07b62957529ac0c99e3ddf97ebac11f965cfcebba",
          "transactionIndex": "0xa9",
          "logIndex": "0xbe",
          "removed": false
        }
      ],
      "logsBloom": "0x00000000000000000000000000000000000000000600000000000000000000000000000000000000000000000000000000000000000000004000000000000000000000000000004000000008000000000000000000000000000000000000000000000000020000000000000000000800020000000000000000000010000000000000000000000000000000000000000000000000000000000000010000000000000000000000000000000000000000004000000000000000000000000000000000000002000000800000000000000000000000000000080000000000000020000000000000000000000000000000000000000000000000000000000000000000",
      "type": "0x2",
      "transactionHash": "0x2ab67b4abebd70f7d96b36a07b62957529ac0c99e3ddf97ebac11f965cfcebba",
      "transactionIndex": "0xa9",
      "blockHash": "0x168dc8304eb1b04339ea0742b08d986bf87ca8a9538f6c4dbefdbee84430e969",
      "blockNumber": "0x731af9",
      "gasUsed": "0xfd4b",
      "effectiveGasPrice": "0x7d450856",
      "from": "0xc77f7fed3b5cc8249adc428c5f44c9063b9734b4",
      "to": "0x8aafd3ede9adb0ff97c7aebce82a919afb1c8764",
      "contractAddress": null
    }
  ],
  "libraries": [],
  "pending": [],
  "returns": {},
  "timestamp": 1737506942,
  "chain": 11155111,
  "commit": "1d2fb70"
}