{
  "transactions": [
    {
      "hash": "0x31893e0a8955ed5e07cc521c9798f54945f3213ff7dc6b2fc01b8a514bf2eb45",
      "transactionType": "CALL",
      "contractName": null,
      "contractAddress": "0x270e88f8683660553e8ba4eb2ad7c91a1710d769",
      "function": "sell(uint256)",
      "arguments": [
        "757938758215827672808"
      ],
      "transaction": {
        "from": "0xc77f7fed3b5cc8249adc428c5f44c9063b9734b4",
        "to": "0x270e88f8683660553e8ba4eb2ad7c91a1710d769",
        "gas": "0x16fec",
        "value": "0x0",
        "input": "0xe4849b32000000000000000000000000000000000000000000000029168364dd9b174ee8",
        "nonce": "0x676",
        "chainId": "0xaa36a7"
      },
      "additionalContracts": [],
      "isFixedGasLimit": false
    }
  ],
  "receipts": [
    {
      "status": "0x1",
      "cumulativeGasUsed": "0x1491bac",
      "logs": [
        {
          "address": "0x270e88f8683660553e8ba4eb2ad7c91a1710d769",
          "topics": [
            "0xddf252ad1be2c89b69c2b068fc378daa952ba7f163c4a11628f55a4df523b3ef",
            "0x000000000000000000000000c77f7fed3b5cc8249adc428c5f44c9063b9734b4",
            "0x0000000000000000000000000000000000000000000000000000000000000000"
          ],
          "data": "0x000000000000000000000000000000000000000000000029168364dd9b174ee8",
          "blockHash": "0x39ca5faf1c4fabcce8685fa86bf4d2c49aa9aff2edef06a77f32eb1f2438ad81",
          "blockNumber": "0x725372",
          "transactionHash": "0x31893e0a8955ed5e07cc521c9798f54945f3213ff7dc6b2fc01b8a514bf2eb45",
          "transactionIndex": "0x54",
          "logIndex": "0x190",
          "removed": false
        },
        {
          "address": "0x270e88f8683660553e8ba4eb2ad7c91a1710d769",
          "topics": [
            "0x4afcb4a87cdbd9974efdb92ee48bc8d7cd0ae4bf217004db3d080cbaee652ca7"
          ],
          "data": "0x000000000000000000000000000000000000000000000000000000006786db600000000000000000000000000000000000000000000000000004a7dad6b3d97b0000000000000000000000000000000000000000000000000dc82a5b1c1bce50",
          "blockHash": "0x39ca5faf1c4fabcce8685fa86bf4d2c49aa9aff2edef06a77f32eb1f2438ad81",
          "blockNumber": "0x725372",
          "transactionHash": "0x31893e0a8955ed5e07cc521c9798f54945f3213ff7dc6b2fc01b8a514bf2eb45",
          "transactionIndex": "0x54",
          "logIndex": "0x191",
          "removed": false
        }
      ],
      "logsBloom": "0x00000000000000000000000000000000000000000000000000000000000000000000000000000000000000000000000020000000000000004000000000000000000000000000000000000008000000000000000000000000000000000000000000000000020000000000000000000800020000000000000000000010000000000000000000010000000000000000000000000000000000000000010000000000000000000000000000000000000000004000000000000000000000000000000000000002000000800000000000000000000000000000080000008000000020000000000000000000000000000000000000000000000000000000000000000000",
      "type": "0x2",
      "transactionHash": "0x31893e0a8955ed5e07cc521c9798f54945f3213ff7dc6b2fc01b8a514bf2eb45",
      "transactionIndex": "0x54",
      "blockHash": "0x39ca5faf1c4fabcce8685fa86bf4d2c49aa9aff2edef06a77f32eb1f2438ad81",
      "blockNumber": "0x725372",
      "gasUsed": "0xfb93",
      "effectiveGasPrice": "0x2112239d5",
      "from": "0xc77f7fed3b5cc8249adc428c5f44c9063b9734b4",
      "to": "0x270e88f8683660553e8ba4eb2ad7c91a1710d769",
      "contractAddress": null
    }
  ],
  "libraries": [],
  "pending": [],
  "returns": {},
  "timestamp": 1736891233,
  "chain": 11155111,
  "commit": "51a374b"
}