{
  "transactions": [
    {
      "hash": "0x78050f66ee2e21e4f90648b5b9306ebb6c9bbbbb3817ac4b5ca096801c8b722b",
      "transactionType": "CALL",
      "contractName": null,
      "contractAddress": "0x8aafd3ede9adb0ff97c7aebce82a919afb1c8764",
      "function": "sell(uint256)",
      "arguments": [
        "11769763311132392"
      ],
      "transaction": {
        "from": "0xc77f7fed3b5cc8249adc428c5f44c9063b9734b4",
        "to": "0x8aafd3ede9adb0ff97c7aebce82a919afb1c8764",
        "gas": "0x1724d",
        "value": "0x0",
        "input": "0xe4849b320000000000000000000000000000000000000000000000000029d08991401ee8",
        "nonce": "0x15be",
        "chainId": "0xaa36a7"
      },
      "additionalContracts": [],
      "isFixedGasLimit": false
    }
  ],
  "receipts": [
    {
      "status": "0x1",
      "cumulativeGasUsed": "0x87161d",
      "logs": [
        {
          "address": "0x8aafd3ede9adb0ff97c7aebce82a919afb1c8764",
          "topics": [
            "0xddf252ad1be2c89b69c2b068fc378daa952ba7f163c4a11628f55a4df523b3ef",
            "0x000000000000000000000000c77f7fed3b5cc8249adc428c5f44c9063b9734b4",
            "0x0000000000000000000000000000000000000000000000000000000000000000"
          ],
          "data": "0x00000000000000000000000000000000000000000000000000297ae6acc2ae05",
          "blockHash": "0x8f3d645322121dafb45adcead15c7ac97282abee65fc756d6aaceb283426deb0",
          "blockNumber": "0x731d38",
          "transactionHash": "0x78050f66ee2e21e4f90648b5b9306ebb6c9bbbbb3817ac4b5ca096801c8b722b",
          "transactionIndex": "0x4e",
          "logIndex": "0xba",
          "removed": false
        },
        {
          "address": "0x8aafd3ede9adb0ff97c7aebce82a919afb1c8764",
          "topics": [
            "0xddf252ad1be2c89b69c2b068fc378daa952ba7f163c4a11628f55a4df523b3ef",
            "0x000000000000000000000000c77f7fed3b5cc8249adc428c5f44c9063b9734b4",
            "0x000000000000000000000000c77f7fed3b5cc8249adc428c5f44c9063b9734b4"
          ],
          "data": "0x000000000000000000000000000000000000000000000000000055a2e47d70e3",
          "blockHash": "0x8f3d645322121dafb45adcead15c7ac97282abee65fc756d6aaceb283426deb0",
          "blockNumber": "0x731d38",
          "transactionHash": "0x78050f66ee2e21e4f90648b5b9306ebb6c9bbbbb3817ac4b5ca096801c8b722b",
          "transactionIndex": "0x4e",
          "logIndex": "0xbb",
          "removed": false
        },
        {
          "address": "0x8aafd3ede9adb0ff97c7aebce82a919afb1c8764",
          "topics": [
            "0x4afcb4a87cdbd9974efdb92ee48bc8d7cd0ae4bf217004db3d080cbaee652ca7"
          ],
          "data": "0x0000000000000000000000000000000000000000000000000000000067905b88000000000000000000000000000000000000000000000000001349a164c8447500000000000000000000000000000000000000000000000000003a1d5eb88411",
          "blockHash": "0x8f3d645322121dafb45adcead15c7ac97282abee65fc756d6aaceb283426deb0",
          "blockNumber": "0x731d38",
          "transactionHash": "0x78050f66ee2e21e4f90648b5b9306ebb6c9bbbbb3817ac4b5ca096801c8b722b",
          "transactionIndex": "0x4e",
          "logIndex": "0xbc",
          "removed": false
        }
      ],
      "logsBloom": "0x00000000000000000000000000000000000000000600000000000000000000000000000000000000000000000000000000000000000000004000000000000000000000000000004000000008000000000000000000000000000000000000000000000000020000000000000000000800020000000000000000000010000000000000000000000000000000000000000000000000000000000000010000000000000000000000000000000000000000004000000000000000000000000000000000000002000000800000000000000000000000000000080000000000000020000000000000000000000000000000000000000000000000000000000000000000",
      "type": "0x2",
      "transactionHash": "0x78050f66ee2e21e4f90648b5b9306ebb6c9bbbbb3817ac4b5ca096801c8b722b",
      "transactionIndex": "0x4e",
      "blockHash": "0x8f3d645322121dafb45adcead15c7ac97282abee65fc756d6aaceb283426deb0",
      "blockNumber": "0x731d38",
      "gasUsed": "0xfd33",
      "effectiveGasPrice": "0x50277729",
      "from": "0xc77f7fed3b5cc8249adc428c5f44c9063b9734b4",
      "to": "0x8aafd3ede9adb0ff97c7aebce82a919afb1c8764",
      "contractAddress": null
    }
  ],
  "libraries": [],
  "pending": [],
  "returns": {},
  "timestamp": 1737513865,
  "chain": 11155111,
  "commit": "1d2fb70"
}