{
  "transactions": [
    {
      "hash": "0x504d4b06ff6d7328a3d6a2a8b74becc3e7fc630bb30615b255fc3d2b271de61d",
      "transactionType": "CALL",
      "contractName": null,
      "contractAddress": "0xd7bc75898e513accccf720a874d44dab5a4b6223",
      "function": "sell(uint256)",
      "arguments": [
        "9929992293116092695"
      ],
      "transaction": {
        "from": "0xc77f7fed3b5cc8249adc428c5f44c9063b9734b4",
        "to": "0xd7bc75898e513accccf720a874d44dab5a4b6223",
        "gas": "0x15b6b",
        "value": "0x0",
        "input": "0xe4849b3200000000000000000000000000000000000000000000000089ce6b61158d2117",
        "nonce": "0xc5",
        "chainId": "0xaa36a7"
      },
      "additionalContracts": [],
      "isFixedGasLimit": false
    }
  ],
  "receipts": [
    {
      "status": "0x1",
      "cumulativeGasUsed": "0x48a611",
      "logs": [
        {
          "address": "0xd7bc75898e513accccf720a874d44dab5a4b6223",
          "topics": [
            "0xddf252ad1be2c89b69c2b068fc378daa952ba7f163c4a11628f55a4df523b3ef",
            "0x000000000000000000000000c77f7fed3b5cc8249adc428c5f44c9063b9734b4",
            "0x0000000000000000000000000000000000000000000000000000000000000000"
          ],
          "data": "0x00000000000000000000000000000000000000000000000089ce6b61158d2117",
          "blockHash": "0x67212fe546e3a560d698586f02694ed6269fd360bf68306d96e920993ed8c712",
          "blockNumber": "0x723944",
          "transactionHash": "0x504d4b06ff6d7328a3d6a2a8b74becc3e7fc630bb30615b255fc3d2b271de61d",
          "transactionIndex": "0x23",
          "logIndex": "0x28",
          "removed": false
        },
        {
          "address": "0xd7bc75898e513accccf720a874d44dab5a4b6223",
          "topics": [
            "0x4afcb4a87cdbd9974efdb92ee48bc8d7cd0ae4bf217004db3d080cbaee652ca7"
          ],
          "data": "0x000000000000000000000000000000000000000000000000000000006785a07800000000000000000000000000000000000000000000000000038d7f877bc3d70000000000000000000000000000000000000000000000000023474f493d2798",
          "blockHash": "0x67212fe546e3a560d698586f02694ed6269fd360bf68306d96e920993ed8c712",
          "blockNumber": "0x723944",
          "transactionHash": "0x504d4b06ff6d7328a3d6a2a8b74becc3e7fc630bb30615b255fc3d2b271de61d",
          "transactionIndex": "0x23",
          "logIndex": "0x29",
          "removed": false
        }
      ],
      "logsBloom": "0x00000000000000000000000000000000000000000000000000000000000000000000000000000000000000000000000000000000000000004000000000000000000000000000000000000008000000000000000000000000000000000000000000000000020000000000000000000800020000000000000000000010000000000000000000000000000000000000000000000000000000000000010000000000000000000000000000000000000000004000001000000000000000000000000000000002000000800000000000004000000000000000080000000000000020000000000000000000000000000000000000000000080000000000000000000000",
      "type": "0x2",
      "transactionHash": "0x504d4b06ff6d7328a3d6a2a8b74becc3e7fc630bb30615b255fc3d2b271de61d",
      "transactionIndex": "0x23",
      "blockHash": "0x67212fe546e3a560d698586f02694ed6269fd360bf68306d96e920993ed8c712",
      "blockNumber": "0x723944",
      "gasUsed": "0xfb87",
      "effectiveGasPrice": "0xa3d5bcc",
      "from": "0xc77f7fed3b5cc8249adc428c5f44c9063b9734b4",
      "to": "0xd7bc75898e513accccf720a874d44dab5a4b6223",
      "contractAddress": null
    }
  ],
  "libraries": [],
  "pending": [],
  "returns": {},
  "timestamp": 1736810617,
  "chain": 11155111,
  "commit": "51a374b"
}