{
  "transactions": [
    {
      "hash": "0x5bae38c9bf8db46b6c477c49bbd94f181f7efd50a5aaa8165f588bddec90e865",
      "transactionType": "CALL",
      "contractName": null,
      "contractAddress": "0x8aafd3ede9adb0ff97c7aebce82a919afb1c8764",
      "function": "sell(uint256)",
      "arguments": [
        "149571079686825578539"
      ],
      "transaction": {
        "from": "0xc77f7fed3b5cc8249adc428c5f44c9063b9734b4",
        "to": "0x8aafd3ede9adb0ff97c7aebce82a919afb1c8764",
        "gas": "0x17270",
        "value": "0x0",
        "input": "0xe4849b320000000000000000000000000000000000000000000000081bb738837ce2102b",
        "nonce": "0x1736",
        "chainId": "0xaa36a7"
      },
      "additionalContracts": [],
      "isFixedGasLimit": false
    }
  ],
  "receipts": [
    {
      "status": "0x1",
      "cumulativeGasUsed": "0x12ecaba",
      "logs": [
        {
          "address": "0x8aafd3ede9adb0ff97c7aebce82a919afb1c8764",
          "topics": [
            "0xddf252ad1be2c89b69c2b068fc378daa952ba7f163c4a11628f55a4df523b3ef",
            "0x000000000000000000000000c77f7fed3b5cc8249adc428c5f44c9063b9734b4",
            "0x0000000000000000000000000000000000000000000000000000000000000000"
          ],
          "data": "0x0000000000000000000000000000000000000000000000080b1c27ad71a4dcd7",
          "blockHash": "0x2be9328a1067f0764e81ac07939eac8749cb9789fb02981e87ce45a32f178187",
          "blockNumber": "0x731f01",
          "transactionHash": "0x5bae38c9bf8db46b6c477c49bbd94f181f7efd50a5aaa8165f588bddec90e865",
          "transactionIndex": "0x7f",
          "logIndex": "0xfe",
          "removed": false
        },
        {
          "address": "0x8aafd3ede9adb0ff97c7aebce82a919afb1c8764",
          "topics": [
            "0xddf252ad1be2c89b69c2b068fc378daa952ba7f163c4a11628f55a4df523b3ef",
            "0x000000000000000000000000c77f7fed3b5cc8249adc428c5f44c9063b9734b4",
            "0x000000000000000000000000c77f7fed3b5cc8249adc428c5f44c9063b9734b4"
          ],
          "data": "0x000000000000000000000000000000000000000000000000109b10d60b3d3354",
          "blockHash": "0x2be9328a1067f0764e81ac07939eac8749cb9789fb02981e87ce45a32f178187",
          "blockNumber": "0x731f01",
          "transactionHash": "0x5bae38c9bf8db46b6c477c49bbd94f181f7efd50a5aaa8165f588bddec90e865",
          "transactionIndex": "0x7f",
          "logIndex": "0xff",
          "removed": false
        },
        {
          "address": "0x8aafd3ede9adb0ff97c7aebce82a919afb1c8764",
          "topics": [
            "0x4afcb4a87cdbd9974efdb92ee48bc8d7cd0ae4bf217004db3d080cbaee652ca7"
          ],
          "data": "0x00000000000000000000000000000000000000000000000000000000679070f40000000000000000000000000000000000000000000000000017b0f0166512470000000000000000000000000000000000000000000000000dcbe446cb7d2345",
          "blockHash": "0x2be9328a1067f0764e81ac07939eac8749cb9789fb02981e87ce45a32f178187",
          "blockNumber": "0x731f01",
          "transactionHash": "0x5bae38c9bf8db46b6c477c49bbd94f181f7efd50a5aaa8165f588bddec90e865",
          "transactionIndex": "0x7f",
          "logIndex": "0x100",
          "removed": false
        }
      ],
      "logsBloom": "0x00000000000000000000000000000000000000000600000000000000000000000000000000000000000000000000000000000000000000004000000000000000000000000000004000000008000000000000000000000000000000000000000000000000020000000000000000000800020000000000000000000010000000000000000000000000000000000000000000000000000000000000010000000000000000000000000000000000000000004000000000000000000000000000000000000002000000800000000000000000000000000000080000000000000020000000000000000000000000000000000000000000000000000000000000000000",
      "type": "0x2",
      "transactionHash": "0x5bae38c9bf8db46b6c477c49bbd94f181f7efd50a5aaa8165f588bddec90e865",
      "transactionIndex": "0x7f",
      "blockHash": "0x2be9328a1067f0764e81ac07939eac8749cb9789fb02981e87ce45a32f178187",
      "blockNumber": "0x731f01",
      "gasUsed": "0xfd4b",
      "effectiveGasPrice": "0x46d8a783",
      "from": "0xc77f7fed3b5cc8249adc428c5f44c9063b9734b4",
      "to": "0x8aafd3ede9adb0ff97c7aebce82a919afb1c8764",
      "contractAddress": null
    }
  ],
  "libraries": [],
  "pending": [],
  "returns": {},
  "timestamp": 1737519350,
  "chain": 11155111,
  "commit": "1d2fb70"
}