{
  "transactions": [
    {
      "hash": "0xfe1a8de93b14e40ba7d21880415c88bf769256073eca5175bb1de764e534fdaf",
      "transactionType": "CALL",
      "contractName": null,
      "contractAddress": "0x5eb9cc76c3506942c1c0ead70e877dd5e4f00cb0",
      "function": "sell(uint256)",
      "arguments": [
        "989148126127772871456"
      ],
      "transaction": {
        "from": "0xc77f7fed3b5cc8249adc428c5f44c9063b9734b4",
        "to": "0x5eb9cc76c3506942c1c0ead70e877dd5e4f00cb0",
        "gas": "0x16fec",
        "value": "0x0",
        "input": "0xe4849b320000000000000000000000000000000000000000000000359f3013fb592f2b20",
        "nonce": "0x2d3",
        "chainId": "0xaa36a7"
      },
      "additionalContracts": [],
      "isFixedGasLimit": false
    }
  ],
  "receipts": [
    {
      "status": "0x1",
      "cumulativeGasUsed": "0xdf547f",
      "logs": [
        {
          "address": "0x5eb9cc76c3506942c1c0ead70e877dd5e4f00cb0",
          "topics": [
            "0xddf252ad1be2c89b69c2b068fc378daa952ba7f163c4a11628f55a4df523b3ef",
            "0x000000000000000000000000c77f7fed3b5cc8249adc428c5f44c9063b9734b4",
            "0x0000000000000000000000000000000000000000000000000000000000000000"
          ],
          "data": "0x0000000000000000000000000000000000000000000000359f3013fb592f2b20",
          "blockHash": "0xb369aa13579b9b1242a984ec070316954195232603054cbe6395a02f6dc0878e",
          "blockNumber": "0x724eaf",
          "transactionHash": "0xfe1a8de93b14e40ba7d21880415c88bf769256073eca5175bb1de764e534fdaf",
          "transactionIndex": "0x82",
          "logIndex": "0xc0",
          "removed": false
        },
        {
          "address": "0x5eb9cc76c3506942c1c0ead70e877dd5e4f00cb0",
          "topics": [
            "0x4afcb4a87cdbd9974efdb92ee48bc8d7cd0ae4bf217004db3d080cbaee652ca7"
          ],
          "data": "0x000000000000000000000000000000000000000000000000000000006786a1e80000000000000000000000000000000000000000000000000003910a1965fa820000000000000000000000000000000000000000000000000dc7db13323d151c",
          "blockHash": "0xb369aa13579b9b1242a984ec070316954195232603054cbe6395a02f6dc0878e",
          "blockNumber": "0x724eaf",
          "transactionHash": "0xfe1a8de93b14e40ba7d21880415c88bf769256073eca5175bb1de764e534fdaf",
          "transactionIndex": "0x82",
          "logIndex": "0xc1",
          "removed": false
        }
      ],
      "logsBloom": "0x00000000000000000000000000000000000000000000000000000000000000000000000000000000000000000000000000000000000000004000000000000000000000000000000000000008000000000000000000000000000000000000000000000000020000000000000004000800020000000000000000000010000000000000000000000000000000000000000000000000000000000000010000000000000000000000000000000000000000004000000000000000000000000000020000000002000000800000008000000000000000000000080000000000000020000000000000000000000000000000000000000000000000000000000000000000",
      "type": "0x2",
      "transactionHash": "0xfe1a8de93b14e40ba7d21880415c88bf769256073eca5175bb1de764e534fdaf",
      "transactionIndex": "0x82",
      "blockHash": "0xb369aa13579b9b1242a984ec070316954195232603054cbe6395a02f6dc0878e",
      "blockNumber": "0x724eaf",
      "gasUsed": "0xfb93",
      "effectiveGasPrice": "0x446f562a2",
      "from": "0xc77f7fed3b5cc8249adc428c5f44c9063b9734b4",
      "to": "0x5eb9cc76c3506942c1c0ead70e877dd5e4f00cb0",
      "contractAddress": null
    }
  ],
  "libraries": [],
  "pending": [],
  "returns": {},
  "timestamp": 1736876522,
  "chain": 11155111,
  "commit": "51a374b"
}