{
  "transactions": [
    {
      "hash": "0xb2ff9b34f0cd453d54736519c495988087a3761eac90cbb1bf8f333f6d37a3ff",
      "transactionType": "CALL",
      "contractName": null,
      "contractAddress": "0x5eb9cc76c3506942c1c0ead70e877dd5e4f00cb0",
      "function": "sell(uint256)",
      "arguments": [
        "989075459272573066941"
      ],
      "transaction": {
        "from": "0xc77f7fed3b5cc8249adc428c5f44c9063b9734b4",
        "to": "0x5eb9cc76c3506942c1c0ead70e877dd5e4f00cb0",
        "gas": "0x16fec",
        "value": "0x0",
        "input": "0xe4849b320000000000000000000000000000000000000000000000359e2de9dcae0e1ebd",
        "nonce": "0x49b",
        "chainId": "0xaa36a7"
      },
      "additionalContracts": [],
      "isFixedGasLimit": false
    }
  ],
  "receipts": [
    {
      "status": "0x1",
      "cumulativeGasUsed": "0x94edd9",
      "logs": [
        {
          "address": "0x5eb9cc76c3506942c1c0ead70e877dd5e4f00cb0",
          "topics": [
            "0xddf252ad1be2c89b69c2b068fc378daa952ba7f163c4a11628f55a4df523b3ef",
            "0x000000000000000000000000c77f7fed3b5cc8249adc428c5f44c9063b9734b4",
            "0x0000000000000000000000000000000000000000000000000000000000000000"
          ],
          "data": "0x0000000000000000000000000000000000000000000000359e2de9dcae0e1ebd",
          "blockHash": "0xbac2cecb9d1ec7c40f78e2b5bfbe1c476203b092453b5086e77ad48e6a43cca4",
          "blockNumber": "0x7250d3",
          "transactionHash": "0xb2ff9b34f0cd453d54736519c495988087a3761eac90cbb1bf8f333f6d37a3ff",
          "transactionIndex": "0x62",
          "logIndex": "0x97",
          "removed": false
        },
        {
          "address": "0x5eb9cc76c3506942c1c0ead70e877dd5e4f00cb0",
          "topics": [
            "0x4afcb4a87cdbd9974efdb92ee48bc8d7cd0ae4bf217004db3d080cbaee652ca7"
          ],
          "data": "0x000000000000000000000000000000000000000000000000000000006786bbb00000000000000000000000000000000000000000000000000003911b459626020000000000000000000000000000000000000000000000000dc7db1331bbc801",
          "blockHash": "0xbac2cecb9d1ec7c40f78e2b5bfbe1c476203b092453b5086e77ad48e6a43cca4",
          "blockNumber": "0x7250d3",
          "transactionHash": "0xb2ff9b34f0cd453d54736519c495988087a3761eac90cbb1bf8f333f6d37a3ff",
          "transactionIndex": "0x62",
          "logIndex": "0x98",
          "removed": false
        }
      ],
      "logsBloom": "0x00000000000000000000000000000000000000000000000000000000000000000000000000000000000000000000000000000000000000004000000000000000000000000000000000000008000000000000000000000000000000000000000000000000020000000000000004000800020000000000000000000010000000000000000000000000000000000000000000000000000000000000010000000000000000000000000000000000000000004000000000000000000000000000020000000002000000800000008000000000000000000000080000000000000020000000000000000000000000000000000000000000000000000000000000000000",
      "type": "0x2",
      "transactionHash": "0xb2ff9b34f0cd453d54736519c495988087a3761eac90cbb1bf8f333f6d37a3ff",
      "transactionIndex": "0x62",
      "blockHash": "0xbac2cecb9d1ec7c40f78e2b5bfbe1c476203b092453b5086e77ad48e6a43cca4",
      "blockNumber": "0x7250d3",
      "gasUsed": "0xfb93",
      "effectiveGasPrice": "0x21e81c30b",
      "from": "0xc77f7fed3b5cc8249adc428c5f44c9063b9734b4",
      "to": "0x5eb9cc76c3506942c1c0ead70e877dd5e4f00cb0",
      "contractAddress": null
    }
  ],
  "libraries": [],
  "pending": [],
  "returns": {},
  "timestamp": 1736883122,
  "chain": 11155111,
  "commit": "51a374b"
}