{
  "transactions": [
    {
      "hash": "0x74626ac25bd345e73ef94411bc29b09b643368aa3dae3809ea5191f9c095ce7e",
      "transactionType": "CALL",
      "contractName": null,
      "contractAddress": "0x8aafd3ede9adb0ff97c7aebce82a919afb1c8764",
      "function": "buy(address)",
      "arguments": [
        "0xC77f7fed3b5Cc8249aDc428c5F44C9063B9734b4"
      ],
      "transaction": {
        "from": "0xc77f7fed3b5cc8249adc428c5f44c9063b9734b4",
        "to": "0x8aafd3ede9adb0ff97c7aebce82a919afb1c8764",
        "gas": "0x156ea",
        "value": "0xde0b6b3a7640000",
        "input": "0xf088d547000000000000000000000000c77f7fed3b5cc8249adc428c5f44c9063b9734b4",
        "nonce": "0x1561",
        "chainId": "0xaa36a7"
      },
      "additionalContracts": [],
      "isFixedGasLimit": false
    }
  ],
  "receipts": [
    {
      "status": "0x1",
      "cumulativeGasUsed": "0x15e4a57",
      "logs": [
        {
          "address": "0x8aafd3ede9adb0ff97c7aebce82a919afb1c8764",
          "topics": [
            "0xddf252ad1be2c89b69c2b068fc378daa952ba7f163c4a11628f55a4df523b3ef",
            "0x0000000000000000000000000000000000000000000000000000000000000000",
            "0x000000000000000000000000c77f7fed3b5cc8249adc428c5f44c9063b9734b4"
          ],
          "data": "0x00000000000000000000000000000000000000000000000a828e09949d6e601e",
          "blockHash": "0x5051f223f5bfdba0b1ed16b90af3d9449974a15f59185a21a00e52a6570363ff",
          "blockNumber": "0x731cc9",
          "transactionHash": "0x74626ac25bd345e73ef94411bc29b09b643368aa3dae3809ea5191f9c095ce7e",
          "transactionIndex": "0xff",
          "logIndex": "0x174",
          "removed": false
        },
        {
          "address": "0x8aafd3ede9adb0ff97c7aebce82a919afb1c8764",
          "topics": [
            "0xddf252ad1be2c89b69c2b068fc378daa952ba7f163c4a11628f55a4df523b3ef",
            "0x0000000000000000000000000000000000000000000000000000000000000000",
            "0x000000000000000000000000c77f7fed3b5cc8249adc428c5f44c9063b9734b4"
          ],
          "data": "0x00000000000000000000000000000000000000000000000008294ebf0f1190eb",
          "blockHash": "0x5051f223f5bfdba0b1ed16b90af3d9449974a15f59185a21a00e52a6570363ff",
          "blockNumber": "0x731cc9",
          "transactionHash": "0x74626ac25bd345e73ef94411bc29b09b643368aa3dae3809ea5191f9c095ce7e",
          "transactionIndex": "0xff",
          "logIndex": "0x175",
          "removed": false
        },
        {
          "address": "0x8aafd3ede9adb0ff97c7aebce82a919afb1c8764",
          "topics": [
            "0x4afcb4a87cdbd9974efdb92ee48bc8d7cd0ae4bf217004db3d080cbaee652ca7"
          ],
          "data": "0x000000000000000000000000000000000000000000000000000000006790565400000000000000000000000000000000000000000000000000122ad161c225950000000000000000000000000000000000000000000000000de0b6b3a7640000",
          "blockHash": "0x5051f223f5bfdba0b1ed16b90af3d9449974a15f59185a21a00e52a6570363ff",
          "blockNumber": "0x731cc9",
          "transactionHash": "0x74626ac25bd345e73ef94411bc29b09b643368aa3dae3809ea5191f9c095ce7e",
          "transactionIndex": "0xff",
          "logIndex": "0x176",
          "removed": false
        }
      ],
      "logsBloom": "0x00000000000000000000000000000000000000000600000000000000000000000000000000000000000000000000000000000000000000004000000000000000000000000000004000000008000000000000000000000000000000000000000000000000020000000000000000000800020000000000000000000010000000000000000000000000000000000000000000000000000000000000010000000000000000000000000000000000000000004000000000000000000000000000000000000002000000800000000000000000000000000000080000000000000020000000000000000000000000000000000000000000000000000000000000000000",
      "type": "0x2",
      "transactionHash": "0x74626ac25bd345e73ef94411bc29b09b643368aa3dae3809ea5191f9c095ce7e",
      "transactionIndex": "0xff",
      "blockHash": "0x5051f223f5bfdba0b1ed16b90af3d9449974a15f59185a21a00e52a6570363ff",
      "blockNumber": "0x731cc9",
      "gasUsed": "0xf844",
      "effectiveGasPrice": "0x99f40cfe",
      "from": "0xc77f7fed3b5cc8249adc428c5f44c9063b9734b4",
      "to": "0x8aafd3ede9adb0ff97c7aebce82a919afb1c8764",
      "contractAddress": null
    }
  ],
  "libraries": [],
  "pending": [],
  "returns": {},
  "timestamp": 1737512533,
  "chain": 11155111,
  "commit": "1d2fb70"
}