{
  "transactions": [
    {
      "hash": "0x505d8be01f621258388b8bac3605c18df41c2b0a939f4614f866dd2d50fccaff",
      "transactionType": "CALL",
      "contractName": null,
      "contractAddress": "0xbf4a322f1496e5c3d34a9bcdb4c60567b38c7de2",
      "function": "sell(uint256)",
      "arguments": [
        "976240890190182440039"
      ],
      "transaction": {
        "from": "0xc77f7fed3b5cc8249adc428c5f44c9063b9734b4",
        "to": "0xbf4a322f1496e5c3d34a9bcdb4c60567b38c7de2",
        "gas": "0x16fea",
        "value": "0x0",
        "input": "0xe4849b32000000000000000000000000000000000000000000000034ec105d4834f35c67",
        "nonce": "0xd31",
        "chainId": "0xaa36a7"
      },
      "additionalContracts": [],
      "isFixedGasLimit": false
    }
  ],
  "receipts": [
    {
      "status": "0x1",
      "cumulativeGasUsed": "0x10a6672",
      "logs": [
        {
          "address": "0xbf4a322f1496e5c3d34a9bcdb4c60567b38c7de2",
          "topics": [
            "0xddf252ad1be2c89b69c2b068fc378daa952ba7f163c4a11628f55a4df523b3ef",
            "0x000000000000000000000000c77f7fed3b5cc8249adc428c5f44c9063b9734b4",
            "0x0000000000000000000000000000000000000000000000000000000000000000"
          ],
          "data": "0x000000000000000000000000000000000000000000000034ec105d4834f35c67",
          "blockHash": "0xe1db68948199c7d62e3af983284bc921edea356e42b8874fbcfc9d77e454fa7f",
          "blockNumber": "0x725d94",
          "transactionHash": "0x505d8be01f621258388b8bac3605c18df41c2b0a939f4614f866dd2d50fccaff",
          "transactionIndex": "0x86",
          "logIndex": "0xaa",
          "removed": false
        },
        {
          "address": "0xbf4a322f1496e5c3d34a9bcdb4c60567b38c7de2",
          "topics": [
            "0x4afcb4a87cdbd9974efdb92ee48bc8d7cd0ae4bf217004db3d080cbaee652ca7"
          ],
          "data": "0x000000000000000000000000000000000000000000000000000000006787556400000000000000000000000000000000000000000000000000039d22d2e5e3230000000000000000000000000000000000000000000000000dc7e3d953835e0b",
          "blockHash": "0xe1db68948199c7d62e3af983284bc921edea356e42b8874fbcfc9d77e454fa7f",
          "blockNumber": "0x725d94",
          "transactionHash": "0x505d8be01f621258388b8bac3605c18df41c2b0a939f4614f866dd2d50fccaff",
          "transactionIndex": "0x86",
          "logIndex": "0xab",
          "removed": false
        }
      ],
      "logsBloom": "0x00000000000000000000000000000000000000000000000000000000000000000000000000000000000000000000000000000000000000004000000000000000000000000000000000000008000000000000001000000000000000000000000000000000020000000000000000000800020000000000000000000010000000000000000000000000000000000000000000000000000008000000010000000000000000000000000000000000000000004000000000000000000000000000000000000002000000800000000000001000000000000000080000000000000020000000000000000000000000000000000000000000000000000000000000000000",
      "type": "0x2",
      "transactionHash": "0x505d8be01f621258388b8bac3605c18df41c2b0a939f4614f866dd2d50fccaff",
      "transactionIndex": "0x86",
      "blockHash": "0xe1db68948199c7d62e3af983284bc921edea356e42b8874fbcfc9d77e454fa7f",
      "blockNumber": "0x725d94",
      "gasUsed": "0xfb91",
      "effectiveGasPrice": "0x27a828aa6",
      "from": "0xc77f7fed3b5cc8249adc428c5f44c9063b9734b4",
      "to": "0xbf4a322f1496e5c3d34a9bcdb4c60567b38c7de2",
      "contractAddress": null
    }
  ],
  "libraries": [],
  "pending": [],
  "returns": {},
  "timestamp": 1736922469,
  "chain": 11155111,
  "commit": "51a374b"
}