{
  "transactions": [
    {
      "hash": "0x26cf3727591e98248105977db8b0aa3a1024d2797021c293145b9aabd856d23c",
      "transactionType": "CALL",
      "contractName": null,
      "contractAddress": "0x8aafd3ede9adb0ff97c7aebce82a919afb1c8764",
      "function": "sell(uint256)",
      "arguments": [
        "164203928453535347838"
      ],
      "transaction": {
        "from": "0xc77f7fed3b5cc8249adc428c5f44c9063b9734b4",
        "to": "0x8aafd3ede9adb0ff97c7aebce82a919afb1c8764",
        "gas": "0x17270",
        "value": "0x0",
        "input": "0xe4849b32000000000000000000000000000000000000000000000008e6c98af054a1b47e",
        "nonce": "0x1682",
        "chainId": "0xaa36a7"
      },
      "additionalContracts": [],
      "isFixedGasLimit": false
    }
  ],
  "receipts": [
    {
      "status": "0x1",
      "cumulativeGasUsed": "0x93b6b6",
      "logs": [
        {
          "address": "0x8aafd3ede9adb0ff97c7aebce82a919afb1c8764",
          "topics": [
            "0xddf252ad1be2c89b69c2b068fc378daa952ba7f163c4a11628f55a4df523b3ef",
            "0x000000000000000000000000c77f7fed3b5cc8249adc428c5f44c9063b9734b4",
            "0x0000000000000000000000000000000000000000000000000000000000000000"
          ],
          "data": "0x000000000000000000000000000000000000000000000008d48e961d830f00e0",
          "blockHash": "0x2482fc10974f078bfd2570e2a0eee73be2eec7f871857b28da0ca3209436ed94",
          "blockNumber": "0x731e33",
          "transactionHash": "0x26cf3727591e98248105977db8b0aa3a1024d2797021c293145b9aabd856d23c",
          "transactionIndex": "0x53",
          "logIndex": "0x80",
          "removed": false
        },
        {
          "address": "0x8aafd3ede9adb0ff97c7aebce82a919afb1c8764",
          "topics": [
            "0xddf252ad1be2c89b69c2b068fc378daa952ba7f163c4a11628f55a4df523b3ef",
            "0x000000000000000000000000c77f7fed3b5cc8249adc428c5f44c9063b9734b4",
            "0x000000000000000000000000c77f7fed3b5cc8249adc428c5f44c9063b9734b4"
          ],
          "data": "0x000000000000000000000000000000000000000000000000123af4d2d192b39e",
          "blockHash": "0x2482fc10974f078bfd2570e2a0eee73be2eec7f871857b28da0ca3209436ed94",
          "blockNumber": "0x731e33",
          "transactionHash": "0x26cf3727591e98248105977db8b0aa3a1024d2797021c293145b9aabd856d23c",
          "transactionIndex": "0x53",
          "logIndex": "0x81",
          "removed": false
        },
        {
          "address": "0x8aafd3ede9adb0ff97c7aebce82a919afb1c8764",
          "topics": [
            "0x4afcb4a87cdbd9974efdb92ee48bc8d7cd0ae4bf217004db3d080cbaee652ca7"
          ],
          "data": "0x000000000000000000000000000000000000000000000000000000006790674c000000000000000000000000000000000000000000000000001596bf24cacc490000000000000000000000000000000000000000000000000dcc37a0e3bb2985",
          "blockHash": "0x2482fc10974f078bfd2570e2a0eee73be2eec7f871857b28da0ca3209436ed94",
          "blockNumber": "0x731e33",
          "transactionHash": "0x26cf3727591e98248105977db8b0aa3a1024d2797021c293145b9aabd856d23c",
          "transactionIndex": "0x53",
          "logIndex": "0x82",
          "removed": false
        }
      ],
      "logsBloom": "0x00000000000000000000000000000000000000000600000000000000000000000000000000000000000000000000000000000000000000004000000000000000000000000000004000000008000000000000000000000000000000000000000000000000020000000000000000000800020000000000000000000010000000000000000000000000000000000000000000000000000000000000010000000000000000000000000000000000000000004000000000000000000000000000000000000002000000800000000000000000000000000000080000000000000020000000000000000000000000000000000000000000000000000000000000000000",
      "type": "0x2",
      "transactionHash": "0x26cf3727591e98248105977db8b0aa3a1024d2797021c293145b9aabd856d23c",
      "transactionIndex": "0x53",
      "blockHash": "0x2482fc10974f078bfd2570e2a0eee73be2eec7f871857b28da0ca3209436ed94",
      "blockNumber": "0x731e33",
      "gasUsed": "0xfd4b",
      "effectiveGasPrice": "0x4363e6ce",
      "from": "0xc77f7fed3b5cc8249adc428c5f44c9063b9734b4",
      "to": "0x8aafd3ede9adb0ff97c7aebce82a919afb1c8764",
      "contractAddress": null
    }
  ],
  "libraries": [],
  "pending": [],
  "returns": {},
  "timestamp": 1737516877,
  "chain": 11155111,
  "commit": "1d2fb70"
}