{
  "transactions": [
    {
      "hash": "0xa61c15600507f5457a31ccc4f809f0bc772a11d4eb69c93f2a50e33db0113138",
      "transactionType": "CALL",
      "contractName": null,
      "contractAddress": "0x8aafd3ede9adb0ff97c7aebce82a919afb1c8764",
      "function": "buy(address)",
      "arguments": [
        "0xC77f7fed3b5Cc8249aDc428c5F44C9063B9734b4"
      ],
      "transaction": {
        "from": "0xc77f7fed3b5cc8249adc428c5f44c9063b9734b4",
        "to": "0x8aafd3ede9adb0ff97c7aebce82a919afb1c8764",
        "gas": "0x156ea",
        "value": "0xde0b6b3a7640000",
        "input": "0xf088d547000000000000000000000000c77f7fed3b5cc8249adc428c5f44c9063b9734b4",
        "nonce": "0x173e",
        "chainId": "0xaa36a7"
      },
      "additionalContracts": [],
      "isFixedGasLimit": false
    }
  ],
  "receipts": [
    {
      "status": "0x1",
      "cumulativeGasUsed": "0x8e5cc9",
      "logs": [
        {
          "address": "0x8aafd3ede9adb0ff97c7aebce82a919afb1c8764",
          "topics": [
            "0xddf252ad1be2c89b69c2b068fc378daa952ba7f163c4a11628f55a4df523b3ef",
            "0x0000000000000000000000000000000000000000000000000000000000000000",
            "0x000000000000000000000000c77f7fed3b5cc8249adc428c5f44c9063b9734b4"
          ],
          "data": "0x0000000000000000000000000000000000000000000000080c3d5197f3972c62",
          "blockHash": "0xf6b82bd15dfd0e81ff1284d39b7d9b24fb694dc9de8ffb2da93d3d3312727c1e",
          "blockNumber": "0x731f09",
          "transactionHash": "0xa61c15600507f5457a31ccc4f809f0bc772a11d4eb69c93f2a50e33db0113138",
          "transactionIndex": "0x52",
          "logIndex": "0x83",
          "removed": false
        },
        {
          "address": "0x8aafd3ede9adb0ff97c7aebce82a919afb1c8764",
          "topics": [
            "0xddf252ad1be2c89b69c2b068fc378daa952ba7f163c4a11628f55a4df523b3ef",
            "0x0000000000000000000000000000000000000000000000000000000000000000",
            "0x000000000000000000000000c77f7fed3b5cc8249adc428c5f44c9063b9734b4"
          ],
          "data": "0x000000000000000000000000000000000000000000000000063fd8a4ee4bd436",
          "blockHash": "0xf6b82bd15dfd0e81ff1284d39b7d9b24fb694dc9de8ffb2da93d3d3312727c1e",
          "blockNumber": "0x731f09",
          "transactionHash": "0xa61c15600507f5457a31ccc4f809f0bc772a11d4eb69c93f2a50e33db0113138",
          "transactionIndex": "0x52",
          "logIndex": "0x84",
          "removed": false
        },
        {
          "address": "0x8aafd3ede9adb0ff97c7aebce82a919afb1c8764",
          "topics": [
            "0x4afcb4a87cdbd9974efdb92ee48bc8d7cd0ae4bf217004db3d080cbaee652ca7"
          ],
          "data": "0x00000000000000000000000000000000000000000000000000000000679071540000000000000000000000000000000000000000000000000017b80331bbd9ae0000000000000000000000000000000000000000000000000de0b6b3a7640000",
          "blockHash": "0xf6b82bd15dfd0e81ff1284d39b7d9b24fb694dc9de8ffb2da93d3d3312727c1e",
          "blockNumber": "0x731f09",
          "transactionHash": "0xa61c15600507f5457a31ccc4f809f0bc772a11d4eb69c93f2a50e33db0113138",
          "transactionIndex": "0x52",
          "logIndex": "0x85",
          "removed": false
        }
      ],
      "logsBloom": "0x00000000000000000000000000000000000000000600000000000000000000000000000000000000000000000000000000000000000000004000000000000000000000000000004000000008000000000000000000000000000000000000000000000000020000000000000000000800020000000000000000000010000000000000000000000000000000000000000000000000000000000000010000000000000000000000000000000000000000004000000000000000000000000000000000000002000000800000000000000000000000000000080000000000000020000000000000000000000000000000000000000000000000000000000000000000",
      "type": "0x2",
      "transactionHash": "0xa61c15600507f5457a31ccc4f809f0bc772a11d4eb69c93f2a50e33db0113138",
      "transactionIndex": "0x52",
      "blockHash": "0xf6b82bd15dfd0e81ff1284d39b7d9b24fb694dc9de8ffb2da93d3d3312727c1e",
      "blockNumber": "0x731f09",
      "gasUsed": "0xf844",
      "effectiveGasPrice": "0x3c091b18",
      "from": "0xc77f7fed3b5cc8249adc428c5f44c9063b9734b4",
      "to": "0x8aafd3ede9adb0ff97c7aebce82a919afb1c8764",
      "contractAddress": null
    }
  ],
  "libraries": [],
  "pending": [],
  "returns": {},
  "timestamp": 1737519445,
  "chain": 11155111,
  "commit": "1d2fb70"
}