{
  "transactions": [
    {
      "hash": "0x18231bbf0565c20a77b3fa5e8ee69190781a3e63254eaf6395723cf0334e5b7d",
      "transactionType": "CALL",
      "contractName": null,
      "contractAddress": "0x8aafd3ede9adb0ff97c7aebce82a919afb1c8764",
      "function": "sell(uint256)",
      "arguments": [
        "12166406919180180"
      ],
      "transaction": {
        "from": "0xc77f7fed3b5cc8249adc428c5f44c9063b9734b4",
        "to": "0x8aafd3ede9adb0ff97c7aebce82a919afb1c8764",
        "gas": "0x1724d",
        "value": "0x0",
        "input": "0xe4849b32000000000000000000000000000000000000000000000000002b39485a9c4f94",
        "nonce": "0x1588",
        "chainId": "0xaa36a7"
      },
      "additionalContracts": [],
      "isFixedGasLimit": false
    }
  ],
  "receipts": [
    {
      "status": "0x1",
      "cumulativeGasUsed": "0x1f18f3b",
      "logs": [
        {
          "address": "0x8aafd3ede9adb0ff97c7aebce82a919afb1c8764",
          "topics": [
            "0xddf252ad1be2c89b69c2b068fc378daa952ba7f163c4a11628f55a4df523b3ef",
            "0x000000000000000000000000c77f7fed3b5cc8249adc428c5f44c9063b9734b4",
            "0x0000000000000000000000000000000000000000000000000000000000000000"
          ],
          "data": "0x000000000000000000000000000000000000000000000000002ae0c2a7b5af33",
          "blockHash": "0x831478c9c1d1ace5cc22d5687cb4b4eabfe4d5718dc636ce06f9c7d8b7e848cc",
          "blockNumber": "0x731cf5",
          "transactionHash": "0x18231bbf0565c20a77b3fa5e8ee69190781a3e63254eaf6395723cf0334e5b7d",
          "transactionIndex": "0x94",
          "logIndex": "0x11a",
          "removed": false
        },
        {
          "address": "0x8aafd3ede9adb0ff97c7aebce82a919afb1c8764",
          "topics": [
            "0xddf252ad1be2c89b69c2b068fc378daa952ba7f163c4a11628f55a4df523b3ef",
            "0x000000000000000000000000c77f7fed3b5cc8249adc428c5f44c9063b9734b4",
            "0x000000000000000000000000c77f7fed3b5cc8249adc428c5f44c9063b9734b4"
          ],
          "data": "0x00000000000000000000000000000000000000000000000000005885b2e6a061",
          "blockHash": "0x831478c9c1d1ace5cc22d5687cb4b4eabfe4d5718dc636ce06f9c7d8b7e848cc",
          "blockNumber": "0x731cf5",
          "transactionHash": "0x18231bbf0565c20a77b3fa5e8ee69190781a3e63254eaf6395723cf0334e5b7d",
          "transactionIndex": "0x94",
          "logIndex": "0x11b",
          "removed": false
        },
        {
          "address": "0x8aafd3ede9adb0ff97c7aebce82a919afb1c8764",
          "topics": [
            "0x4afcb4a87cdbd9974efdb92ee48bc8d7cd0ae4bf217004db3d080cbaee652ca7"
          ],
          "data": "0x00000000000000000000000000000000000000000000000000000000679058640000000000000000000000000000000000000000000000000012a97bc027799c00000000000000000000000000000000000000000000000000003a1ff256550c",
          "blockHash": "0x831478c9c1d1ace5cc22d5687cb4b4eabfe4d5718dc636ce06f9c7d8b7e848cc",
          "blockNumber": "0x731cf5",
          "transactionHash": "0x18231bbf0565c20a77b3fa5e8ee69190781a3e63254eaf6395723cf0334e5b7d",
          "transactionIndex": "0x94",
          "logIndex": "0x11c",
          "removed": false
        }
      ],
      "logsBloom": "0x00000000000000000000000000000000000000000600000000000000000000000000000000000000000000000000000000000000000000004000000000000000000000000000004000000008000000000000000000000000000000000000000000000000020000000000000000000800020000000000000000000010000000000000000000000000000000000000000000000000000000000000010000000000000000000000000000000000000000004000000000000000000000000000000000000002000000800000000000000000000000000000080000000000000020000000000000000000000000000000000000000000000000000000000000000000",
      "type": "0x2",
      "transactionHash": "0x18231bbf0565c20a77b3fa5e8ee69190781a3e63254eaf6395723cf0334e5b7d",
      "transactionIndex": "0x94",
      "blockHash": "0x831478c9c1d1ace5cc22d5687cb4b4eabfe4d5718dc636ce06f9c7d8b7e848cc",
      "blockNumber": "0x731cf5",
      "gasUsed": "0xfd33",
      "effectiveGasPrice": "0x70987a44",
      "from": "0xc77f7fed3b5cc8249adc428c5f44c9063b9734b4",
      "to": "0x8aafd3ede9adb0ff97c7aebce82a919afb1c8764",
      "contractAddress": null
    }
  ],
  "libraries": [],
  "pending": [],
  "returns": {},
  "timestamp": 1737513064,
  "chain": 11155111,
  "commit": "1d2fb70"
}