{
  "transactions": [
    {
      "hash": "0x8277d682d1d085a3e95a8c46ad34427a8471551ff494d5217962b63bb1e87c7f",
      "transactionType": "CALL",
      "contractName": null,
      "contractAddress": "0x270e88f8683660553e8ba4eb2ad7c91a1710d769",
      "function": "sell(uint256)",
      "arguments": [
        "723775207956347776840"
      ],
      "transaction": {
        "from": "0xc77f7fed3b5cc8249adc428c5f44c9063b9734b4",
        "to": "0x270e88f8683660553e8ba4eb2ad7c91a1710d769",
        "gas": "0x16fec",
        "value": "0x0",
        "input": "0xe4849b320000000000000000000000000000000000000000000000273c6614e930966f48",
        "nonce": "0x7f6",
        "chainId": "0xaa36a7"
      },
      "additionalContracts": [],
      "isFixedGasLimit": false
    }
  ],
  "receipts": [
    {
      "status": "0x1",
      "cumulativeGasUsed": "0x9db5ef",
      "logs": [
        {
          "address": "0x270e88f8683660553e8ba4eb2ad7c91a1710d769",
          "topics": [
            "0xddf252ad1be2c89b69c2b068fc378daa952ba7f163c4a11628f55a4df523b3ef",
            "0x000000000000000000000000c77f7fed3b5cc8249adc428c5f44c9063b9734b4",
            "0x0000000000000000000000000000000000000000000000000000000000000000"
          ],
          "data": "0x0000000000000000000000000000000000000000000000273c6614e930966f48",
          "blockHash": "0x299e90a2dbcf1583eec564d49fc6843c01d4b198fe3140f1721d8b821733bc5f",
          "blockNumber": "0x725533",
          "transactionHash": "0x8277d682d1d085a3e95a8c46ad34427a8471551ff494d5217962b63bb1e87c7f",
          "transactionIndex": "0x24",
          "logIndex": "0xdc",
          "removed": false
        },
        {
          "address": "0x270e88f8683660553e8ba4eb2ad7c91a1710d769",
          "topics": [
            "0x4afcb4a87cdbd9974efdb92ee48bc8d7cd0ae4bf217004db3d080cbaee652ca7"
          ],
          "data": "0x000000000000000000000000000000000000000000000000000000006786f06c0000000000000000000000000000000000000000000000000004e0194edd80d80000000000000000000000000000000000000000000000000dc826d1fe64dd5d",
          "blockHash": "0x299e90a2dbcf1583eec564d49fc6843c01d4b198fe3140f1721d8b821733bc5f",
          "blockNumber": "0x725533",
          "transactionHash": "0x8277d682d1d085a3e95a8c46ad34427a8471551ff494d5217962b63bb1e87c7f",
          "transactionIndex": "0x24",
          "logIndex": "0xdd",
          "removed": false
        }
      ],
      "logsBloom": "0x00000000000000000000000000000000000000000000000000000000000000000000000000000000000000000000000020000000000000004000000000000000000000000000000000000008000000000000000000000000000000000000000000000000020000000000000000000800020000000000000000000010000000000000000000010000000000000000000000000000000000000000010000000000000000000000000000000000000000004000000000000000000000000000000000000002000000800000000000000000000000000000080000008000000020000000000000000000000000000000000000000000000000000000000000000000",
      "type": "0x2",
      "transactionHash": "0x8277d682d1d085a3e95a8c46ad34427a8471551ff494d5217962b63bb1e87c7f",
      "transactionIndex": "0x24",
      "blockHash": "0x299e90a2dbcf1583eec564d49fc6843c01d4b198fe3140f1721d8b821733bc5f",
      "blockNumber": "0x725533",
      "gasUsed": "0xfb93",
      "effectiveGasPrice": "0x940e560e",
      "from": "0xc77f7fed3b5cc8249adc428c5f44c9063b9734b4",
      "to": "0x270e88f8683660553e8ba4eb2ad7c91a1710d769",
      "contractAddress": null
    }
  ],
  "libraries": [],
  "pending": [],
  "returns": {},
  "timestamp": 1736896621,
  "chain": 11155111,
  "commit": "51a374b"
}