{
  "transactions": [
    {
      "hash": "0x386e106f32635b5191182ebe89a98628e157d5b9c1fea9cc95acec9708f1b66e",
      "transactionType": "CALL",
      "contractName": null,
      "contractAddress": "0x270e88f8683660553e8ba4eb2ad7c91a1710d769",
      "function": "buy(address)",
      "arguments": [
        "0xC77f7fed3b5Cc8249aDc428c5F44C9063B9734b4"
      ],
      "transaction": {
        "from": "0xc77f7fed3b5cc8249adc428c5f44c9063b9734b4",
        "to": "0x270e88f8683660553e8ba4eb2ad7c91a1710d769",
        "gas": "0x1b30c",
        "value": "0xde0b6b3a7640000",
        "input": "0xf088d547000000000000000000000000c77f7fed3b5cc8249adc428c5f44c9063b9734b4",
        "nonce": "0x5d4",
        "chainId": "0xaa36a7"
      },
      "additionalContracts": [],
      "isFixedGasLimit": false
    }
  ],
  "receipts": [
    {
      "status": "0x1",
      "cumulativeGasUsed": "0xc62852",
      "logs": [
        {
          "address": "0x270e88f8683660553e8ba4eb2ad7c91a1710d769",
          "topics": [
            "0xddf252ad1be2c89b69c2b068fc378daa952ba7f163c4a11628f55a4df523b3ef",
            "0x0000000000000000000000000000000000000000000000000000000000000000",
            "0x000000000000000000000000c77f7fed3b5cc8249adc428c5f44c9063b9734b4"
          ],
          "data": "0x0000000000000000000000000000000000000000000000338bb16afca89b960f",
          "blockHash": "0x00979b0ddf2771c9c1a4481c69654040b70cb1037272e2d3f377bf12009954fd",
          "blockNumber": "0x725295",
          "transactionHash": "0x386e106f32635b5191182ebe89a98628e157d5b9c1fea9cc95acec9708f1b66e",
          "transactionIndex": "0x60",
          "logIndex": "0x85",
          "removed": false
        },
        {
          "address": "0x270e88f8683660553e8ba4eb2ad7c91a1710d769",
          "topics": [
            "0xddf252ad1be2c89b69c2b068fc378daa952ba7f163c4a11628f55a4df523b3ef",
            "0x0000000000000000000000000000000000000000000000000000000000000000",
            "0x000000000000000000000000c77f7fed3b5cc8249adc428c5f44c9063b9734b4"
          ],
          "data": "0x0000000000000000000000000000000000000000000000002806e7df188b9092",
          "blockHash": "0x00979b0ddf2771c9c1a4481c69654040b70cb1037272e2d3f377bf12009954fd",
          "blockNumber": "0x725295",
          "transactionHash": "0x386e106f32635b5191182ebe89a98628e157d5b9c1fea9cc95acec9708f1b66e",
          "transactionIndex": "0x60",
          "logIndex": "0x86",
          "removed": false
        },
        {
          "address": "0x270e88f8683660553e8ba4eb2ad7c91a1710d769",
          "topics": [
            "0x4afcb4a87cdbd9974efdb92ee48bc8d7cd0ae4bf217004db3d080cbaee652ca7"
          ],
          "data": "0x000000000000000000000000000000000000000000000000000000006786d1040000000000000000000000000000000000000000000000000003b30be4ec9d080000000000000000000000000000000000000000000000000de0b6b3a7640000",
          "blockHash": "0x00979b0ddf2771c9c1a4481c69654040b70cb1037272e2d3f377bf12009954fd",
          "blockNumber": "0x725295",
          "transactionHash": "0x386e106f32635b5191182ebe89a98628e157d5b9c1fea9cc95acec9708f1b66e",
          "transactionIndex": "0x60",
          "logIndex": "0x87",
          "removed": false
        }
      ],
      "logsBloom": "0x00000000000000000000000000000000000000000000000000000000000000000000000000000000000000000000000020000000000000004000000000000000000000000000000000000008000000000000000000000000000000000000000000000000020000000000000000000800020000000000000000000010000000000000000000010000000000000000000000000000000000000000010000000000000000000000000000000000000000004000000000000000000000000000000000000002000000800000000000000000000000000000080000008000000020000000000000000000000000000000000000000000000000000000000000000000",
      "type": "0x2",
      "transactionHash": "0x386e106f32635b5191182ebe89a98628e157d5b9c1fea9cc95acec9708f1b66e",
      "transactionIndex": "0x60",
      "blockHash": "0x00979b0ddf2771c9c1a4481c69654040b70cb1037272e2d3f377bf12009954fd",
      "blockNumber": "0x725295",
      "gasUsed": "0x13af8",
      "effectiveGasPrice": "0x39feace93",
      "from": "0xc77f7fed3b5cc8249adc428c5f44c9063b9734b4",
      "to": "0x270e88f8683660553e8ba4eb2ad7c91a1710d769",
      "contractAddress": null
    }
  ],
  "libraries": [],
  "pending": [],
  "returns": {},
  "timestamp": 1736888581,
  "chain": 11155111,
  "commit": "51a374b"
}