{
  "transactions": [
    {
      "hash": "0xf8928c14c6a0b9b6f10207713f8fa3f46464d74f575da2b282a84ef7604863a3",
      "transactionType": "CALL",
      "contractName": null,
      "contractAddress": "0x5eb9cc76c3506942c1c0ead70e877dd5e4f00cb0",
      "function": "buy(address)",
      "arguments": [
        "0xC77f7fed3b5Cc8249aDc428c5F44C9063B9734b4"
      ],
      "transaction": {
        "from": "0xc77f7fed3b5cc8249adc428c5f44c9063b9734b4",
        "to": "0x5eb9cc76c3506942c1c0ead70e877dd5e4f00cb0",
        "gas": "0x156c8",
        "value": "0xde0b6b3a7640000",
        "input": "0xf088d547000000000000000000000000c77f7fed3b5cc8249adc428c5f44c9063b9734b4",
        "nonce": "0x136",
        "chainId": "0xaa36a7"
      },
      "additionalContracts": [],
      "isFixedGasLimit": false
    }
  ],
  "receipts": [
    {
      "status": "0x1",
      "cumulativeGasUsed": "0x5745ef",
      "logs": [
        {
          "address": "0x5eb9cc76c3506942c1c0ead70e877dd5e4f00cb0",
          "topics": [
            "0xddf252ad1be2c89b69c2b068fc378daa952ba7f163c4a11628f55a4df523b3ef",
            "0x0000000000000000000000000000000000000000000000000000000000000000",
            "0x000000000000000000000000c77f7fed3b5cc8249adc428c5f44c9063b9734b4"
          ],
          "data": "0x000000000000000000000000000000000000000000000035aafcc591e3c3c472",
          "blockHash": "0x0ff4e4ac4d5744705ca9ab665d575f8676a3f257217c2eed03b7e693f573ac6e",
          "blockNumber": "0x723b19",
          "transactionHash": "0xf8928c14c6a0b9b6f10207713f8fa3f46464d74f575da2b282a84ef7604863a3",
          "transactionIndex": "0x33",
          "logIndex": "0x46",
          "removed": false
        },
        {
          "address": "0x5eb9cc76c3506942c1c0ead70e877dd5e4f00cb0",
          "topics": [
            "0xddf252ad1be2c89b69c2b068fc378daa952ba7f163c4a11628f55a4df523b3ef",
            "0x0000000000000000000000000000000000000000000000000000000000000000",
            "0x000000000000000000000000c77f7fed3b5cc8249adc428c5f44c9063b9734b4"
          ],
          "data": "0x00000000000000000000000000000000000000000000000029accad6ffb8604b",
          "blockHash": "0x0ff4e4ac4d5744705ca9ab665d575f8676a3f257217c2eed03b7e693f573ac6e",
          "blockNumber": "0x723b19",
          "transactionHash": "0xf8928c14c6a0b9b6f10207713f8fa3f46464d74f575da2b282a84ef7604863a3",
          "transactionIndex": "0x33",
          "logIndex": "0x47",
          "removed": false
        },
        {
          "address": "0x5eb9cc76c3506942c1c0ead70e877dd5e4f00cb0",
          "topics": [
            "0x4afcb4a87cdbd9974efdb92ee48bc8d7cd0ae4bf217004db3d080cbaee652ca7"
          ],
          "data": "0x000000000000000000000000000000000000000000000000000000006785b68000000000000000000000000000000000000000000000000000038d7f0d82ea9e0000000000000000000000000000000000000000000000000de0b6b3a7640000",
          "blockHash": "0x0ff4e4ac4d5744705ca9ab665d575f8676a3f257217c2eed03b7e693f573ac6e",
          "blockNumber": "0x723b19",
          "transactionHash": "0xf8928c14c6a0b9b6f10207713f8fa3f46464d74f575da2b282a84ef7604863a3",
          "transactionIndex": "0x33",
          "logIndex": "0x48",
          "removed": false
        }
      ],
      "logsBloom": "0x00000000000000000000000000000000000000000000000000000000000000000000000000000000000000000000000000000000000000004000000000000000000000000000000000000008000000000000000000000000000000000000000000000000020000000000000004000800020000000000000000000010000000000000000000000000000000000000000000000000000000000000010000000000000000000000000000000000000000004000000000000000000000000000020000000002000000800000008000000000000000000000080000000000000020000000000000000000000000000000000000000000000000000000000000000000",
      "type": "0x2",
      "transactionHash": "0xf8928c14c6a0b9b6f10207713f8fa3f46464d74f575da2b282a84ef7604863a3",
      "transactionIndex": "0x33",
      "blockHash": "0x0ff4e4ac4d5744705ca9ab665d575f8676a3f257217c2eed03b7e693f573ac6e",
      "blockNumber": "0x723b19",
      "gasUsed": "0xf82c",
      "effectiveGasPrice": "0x355798dc3",
      "from": "0xc77f7fed3b5cc8249adc428c5f44c9063b9734b4",
      "to": "0x5eb9cc76c3506942c1c0ead70e877dd5e4f00cb0",
      "contractAddress": null
    }
  ],
  "libraries": [],
  "pending": [],
  "returns": {},
  "timestamp": 1736816257,
  "chain": 11155111,
  "commit": "51a374b"
}