{
  "transactions": [
    {
      "hash": "0xc68b80419c66f425446d4b6c405deb83451aad2db7c4ab4e4cbff0e69b5dfebe",
      "transactionType": "CALL",
      "contractName": null,
      "contractAddress": "0x8aafd3ede9adb0ff97c7aebce82a919afb1c8764",
      "function": "buy(address)",
      "arguments": [
        "0xC77f7fed3b5Cc8249aDc428c5F44C9063B9734b4"
      ],
      "transaction": {
        "from": "0xc77f7fed3b5cc8249adc428c5f44c9063b9734b4",
        "to": "0x8aafd3ede9adb0ff97c7aebce82a919afb1c8764",
        "gas": "0x156ea",
        "value": "0xde0b6b3a7640000",
        "input": "0xf088d547000000000000000000000000c77f7fed3b5cc8249adc428c5f44c9063b9734b4",
        "nonce": "0x164b",
        "chainId": "0xaa36a7"
      },
      "additionalContracts": [],
      "isFixedGasLimit": false
    }
  ],
  "receipts": [
    {
      "status": "0x1",
      "cumulativeGasUsed": "0x10487b4",
      "logs": [
        {
          "address": "0x8aafd3ede9adb0ff97c7aebce82a919afb1c8764",
          "topics": [
            "0xddf252ad1be2c89b69c2b068fc378daa952ba7f163c4a11628f55a4df523b3ef",
            "0x0000000000000000000000000000000000000000000000000000000000000000",
            "0x000000000000000000000000c77f7fed3b5cc8249adc428c5f44c9063b9734b4"
          ],
          "data": "0x00000000000000000000000000000000000000000000000924656ce0c9e880eb",
          "blockHash": "0x1aabdbf5440c9e502488e3695afb67e6478d96c45a7490acbd85a38b0ddce37c",
          "blockNumber": "0x731de5",
          "transactionHash": "0xc68b80419c66f425446d4b6c405deb83451aad2db7c4ab4e4cbff0e69b5dfebe",
          "transactionIndex": "0x8d",
          "logIndex": "0xf8",
          "removed": false
        },
        {
          "address": "0x8aafd3ede9adb0ff97c7aebce82a919afb1c8764",
          "topics": [
            "0xddf252ad1be2c89b69c2b068fc378daa952ba7f163c4a11628f55a4df523b3ef",
            "0x0000000000000000000000000000000000000000000000000000000000000000",
            "0x000000000000000000000000c77f7fed3b5cc8249adc428c5f44c9063b9734b4"
          ],
          "data": "0x000000000000000000000000000000000000000000000000071965c0ddc4f56f",
          "blockHash": "0x1aabdbf5440c9e502488e3695afb67e6478d96c45a7490acbd85a38b0ddce37c",
          "blockNumber": "0x731de5",
          "transactionHash": "0xc68b80419c66f425446d4b6c405deb83451aad2db7c4ab4e4cbff0e69b5dfebe",
          "transactionIndex": "0x8d",
          "logIndex": "0xf9",
          "removed": false
        },
        {
          "address": "0x8aafd3ede9adb0ff97c7aebce82a919afb1c8764",
          "topics": [
            "0x4afcb4a87cdbd9974efdb92ee48bc8d7cd0ae4bf217004db3d080cbaee652ca7"
          ],
          "data": "0x00000000000000000000000000000000000000000000000000000000679063a40000000000000000000000000000000000000000000000000014e1d7995680f80000000000000000000000000000000000000000000000000de0b6b3a7640000",
          "blockHash": "0x1aabdbf5440c9e502488e3695afb67e6478d96c45a7490acbd85a38b0ddce37c",
          "blockNumber": "0x731de5",
          "transactionHash": "0xc68b80419c66f425446d4b6c405deb83451aad2db7c4ab4e4cbff0e69b5dfebe",
          "transactionIndex": "0x8d",
          "logIndex": "0xfa",
          "removed": false
        }
      ],
      "logsBloom": "0x00000000000000000000000000000000000000000600000000000000000000000000000000000000000000000000000000000000000000004000000000000000000000000000004000000008000000000000000000000000000000000000000000000000020000000000000000000800020000000000000000000010000000000000000000000000000000000000000000000000000000000000010000000000000000000000000000000000000000004000000000000000000000000000000000000002000000800000000000000000000000000000080000000000000020000000000000000000000000000000000000000000000000000000000000000000",
      "type": "0x2",
      "transactionHash": "0xc68b80419c66f425446d4b6c405deb83451aad2db7c4ab4e4cbff0e69b5dfebe",
      "transactionIndex": "0x8d",
      "blockHash": "0x1aabdbf5440c9e502488e3695afb67e6478d96c45a7490acbd85a38b0ddce37c",
      "blockNumber": "0x731de5",
      "gasUsed": "0xf844",
      "effectiveGasPrice": "0x479b0dc9",
      "from": "0xc77f7fed3b5cc8249adc428c5f44c9063b9734b4",
      "to": "0x8aafd3ede9adb0ff97c7aebce82a919afb1c8764",
      "contractAddress": null
    }
  ],
  "libraries": [],
  "pending": [],
  "returns": {},
  "timestamp": 1737515942,
  "chain": 11155111,
  "commit": "1d2fb70"
}