{
  "transactions": [
    {
      "hash": "0xf9337640773756a0cc1abc53d420d7b12322712cb6e0dae581eca3893532196c",
      "transactionType": "CALL",
      "contractName": null,
      "contractAddress": "0x8aafd3ede9adb0ff97c7aebce82a919afb1c8764",
      "function": "buy(address)",
      "arguments": [
        "0xC77f7fed3b5Cc8249aDc428c5F44C9063B9734b4"
      ],
      "transaction": {
        "from": "0xc77f7fed3b5cc8249adc428c5f44c9063b9734b4",
        "to": "0x8aafd3ede9adb0ff97c7aebce82a919afb1c8764",
        "gas": "0x156ea",
        "value": "0xde0b6b3a7640000",
        "input": "0xf088d547000000000000000000000000c77f7fed3b5cc8249adc428c5f44c9063b9734b4",
        "nonce": "0x152b",
        "chainId": "0xaa36a7"
      },
      "additionalContracts": [],
      "isFixedGasLimit": false
    }
  ],
  "receipts": [
    {
      "status": "0x1",
      "cumulativeGasUsed": "0xb6e596",
      "logs": [
        {
          "address": "0x8aafd3ede9adb0ff97c7aebce82a919afb1c8764",
          "topics": [
            "0xddf252ad1be2c89b69c2b068fc378daa952ba7f163c4a11628f55a4df523b3ef",
            "0x0000000000000000000000000000000000000000000000000000000000000000",
            "0x000000000000000000000000c77f7fed3b5cc8249adc428c5f44c9063b9734b4"
          ],
          "data": "0x00000000000000000000000000000000000000000000000ae2561caf3e1f9907",
          "blockHash": "0x42b541c88ec6e12e0c89ec6e0a6fc5133944b0bfcd8692482ae25d014699465a",
          "blockNumber": "0x731c8d",
          "transactionHash": "0xf9337640773756a0cc1abc53d420d7b12322712cb6e0dae581eca3893532196c",
          "transactionIndex": "0x61",
          "logIndex": "0x6a",
          "removed": false
        },
        {
          "address": "0x8aafd3ede9adb0ff97c7aebce82a919afb1c8764",
          "topics": [
            "0xddf252ad1be2c89b69c2b068fc378daa952ba7f163c4a11628f55a4df523b3ef",
            "0x0000000000000000000000000000000000000000000000000000000000000000",
            "0x000000000000000000000000c77f7fed3b5cc8249adc428c5f44c9063b9734b4"
          ],
          "data": "0x0000000000000000000000000000000000000000000000000873af6baf7db342",
          "blockHash": "0x42b541c88ec6e12e0c89ec6e0a6fc5133944b0bfcd8692482ae25d014699465a",
          "blockNumber": "0x731c8d",
          "transactionHash": "0xf9337640773756a0cc1abc53d420d7b12322712cb6e0dae581eca3893532196c",
          "transactionIndex": "0x61",
          "logIndex": "0x6b",
          "removed": false
        },
        {
          "address": "0x8aafd3ede9adb0ff97c7aebce82a919afb1c8764",
          "topics": [
            "0x4afcb4a87cdbd9974efdb92ee48bc8d7cd0ae4bf217004db3d080cbaee652ca7"
          ],
          "data": "0x000000000000000000000000000000000000000000000000000000006790537800000000000000000000000000000000000000000000000000118b1fa178c6be0000000000000000000000000000000000000000000000000de0b6b3a7640000",
          "blockHash": "0x42b541c88ec6e12e0c89ec6e0a6fc5133944b0bfcd8692482ae25d014699465a",
          "blockNumber": "0x731c8d",
          "transactionHash": "0xf9337640773756a0cc1abc53d420d7b12322712cb6e0dae581eca3893532196c",
          "transactionIndex": "0x61",
          "logIndex": "0x6c",
          "removed": false
        }
      ],
      "logsBloom": "0x00000000000000000000000000000000000000000600000000000000000000000000000000000000000000000000000000000000000000004000000000000000000000000000004000000008000000000000000000000000000000000000000000000000020000000000000000000800020000000000000000000010000000000000000000000000000000000000000000000000000000000000010000000000000000000000000000000000000000004000000000000000000000000000000000000002000000800000000000000000000000000000080000000000000020000000000000000000000000000000000000000000000000000000000000000000",
      "type": "0x2",
      "transactionHash": "0xf9337640773756a0cc1abc53d420d7b12322712cb6e0dae581eca3893532196c",
      "transactionIndex": "0x61",
      "blockHash": "0x42b541c88ec6e12e0c89ec6e0a6fc5133944b0bfcd8692482ae25d014699465a",
      "blockNumber": "0x731c8d",
      "gasUsed": "0xf844",
      "effectiveGasPrice": "0x11ad65d71",
      "from": "0xc77f7fed3b5cc8249adc428c5f44c9063b9734b4",
      "to": "0x8aafd3ede9adb0ff97c7aebce82a919afb1c8764",
      "contractAddress": null
    }
  ],
  "libraries": [],
  "pending": [],
  "returns": {},
  "timestamp": 1737511802,
  "chain": 11155111,
  "commit": "1d2fb70"
}