{
  "transactions": [
    {
      "hash": "0xfa90312ade1732899059c0fa60028e9548c2b2f2389944538b429f8ecb32fa0a",
      "transactionType": "CALL",
      "contractName": null,
      "contractAddress": "0x8aafd3ede9adb0ff97c7aebce82a919afb1c8764",
      "function": "sell(uint256)",
      "arguments": [
        "3036707346104"
      ],
      "transaction": {
        "from": "0xc77f7fed3b5cc8249adc428c5f44c9063b9734b4",
        "to": "0x8aafd3ede9adb0ff97c7aebce82a919afb1c8764",
        "gas": "0x15daa",
        "value": "0x0",
        "input": "0xe4849b32000000000000000000000000000000000000000000000000000002c309dcd6b8",
        "nonce": "0xf89",
        "chainId": "0xaa36a7"
      },
      "additionalContracts": [],
      "isFixedGasLimit": false
    }
  ],
  "receipts": [
    {
      "status": "0x1",
      "cumulativeGasUsed": "0xf04dd3",
      "logs": [
        {
          "address": "0x8aafd3ede9adb0ff97c7aebce82a919afb1c8764",
          "topics": [
            "0xddf252ad1be2c89b69c2b068fc378daa952ba7f163c4a11628f55a4df523b3ef",
            "0x000000000000000000000000c77f7fed3b5cc8249adc428c5f44c9063b9734b4",
            "0x0000000000000000000000000000000000000000000000000000000000000000"
          ],
          "data": "0x000000000000000000000000000000000000000000000000000002bd61d90628",
          "blockHash": "0xc3dbc7ac9ba347cc2314693f6dc86e8e7267de884df774ab0b7c9e2e25e78d4b",
          "blockNumber": "0x7315ee",
          "transactionHash": "0xfa90312ade1732899059c0fa60028e9548c2b2f2389944538b429f8ecb32fa0a",
          "transactionIndex": "0x91",
          "logIndex": "0xc3",
          "removed": false
        },
        {
          "address": "0x8aafd3ede9adb0ff97c7aebce82a919afb1c8764",
          "topics": [
            "0xddf252ad1be2c89b69c2b068fc378daa952ba7f163c4a11628f55a4df523b3ef",
            "0x000000000000000000000000c77f7fed3b5cc8249adc428c5f44c9063b9734b4",
            "0x000000000000000000000000c77f7fed3b5cc8249adc428c5f44c9063b9734b4"
          ],
          "data": "0x00000000000000000000000000000000000000000000000000000005a803d090",
          "blockHash": "0xc3dbc7ac9ba347cc2314693f6dc86e8e7267de884df774ab0b7c9e2e25e78d4b",
          "blockNumber": "0x7315ee",
          "transactionHash": "0xfa90312ade1732899059c0fa60028e9548c2b2f2389944538b429f8ecb32fa0a",
          "transactionIndex": "0x91",
          "logIndex": "0xc4",
          "removed": false
        },
        {
          "address": "0x8aafd3ede9adb0ff97c7aebce82a919afb1c8764",
          "topics": [
            "0x4afcb4a87cdbd9974efdb92ee48bc8d7cd0ae4bf217004db3d080cbaee652ca7"
          ],
          "data": "0x00000000000000000000000000000000000000000000000000000000679003d40000000000000000000000000000000000000000000000000004c27f5aa1b83100000000000000000000000000000000000000000000000000000000f27f64e9",
          "blockHash": "0xc3dbc7ac9ba347cc2314693f6dc86e8e7267de884df774ab0b7c9e2e25e78d4b",
          "blockNumber": "0x7315ee",
          "transactionHash": "0xfa90312ade1732899059c0fa60028e9548c2b2f2389944538b429f8ecb32fa0a",
          "transactionIndex": "0x91",
          "logIndex": "0xc5",
          "removed": false
        }
      ],
      "logsBloom": "0x00000000000000000000000000000000000000000600000000000000000000000000000000000000000000000000000000000000000000004000000000000000000000000000004000000008000000000000000000000000000000000000000000000000020000000000000000000800020000000000000000000010000000000000000000000000000000000000000000000000000000000000010000000000000000000000000000000000000000004000000000000000000000000000000000000002000000800000000000000000000000000000080000000000000020000000000000000000000000000000000000000000000000000000000000000000",
      "type": "0x2",
      "transactionHash": "0xfa90312ade1732899059c0fa60028e9548c2b2f2389944538b429f8ecb32fa0a",
      "transactionIndex": "0x91",
      "blockHash": "0xc3dbc7ac9ba347cc2314693f6dc86e8e7267de884df774ab0b7c9e2e25e78d4b",
      "blockNumber": "0x7315ee",
      "gasUsed": "0xfd27",
      "effectiveGasPrice": "0x622afdbb",
      "from": "0xc77f7fed3b5cc8249adc428c5f44c9063b9734b4",
      "to": "0x8aafd3ede9adb0ff97c7aebce82a919afb1c8764",
      "contractAddress": null
    }
  ],
  "libraries": [],
  "pending": [],
  "returns": {},
  "timestamp": 1737491413,
  "chain": 11155111,
  "commit": "1d2fb70"
}