{
  "transactions": [
    {
      "hash": "0x91bcf5b81e1810e2f9384f75b419e301fb6a7a179760d2cc06e79c1745552945",
      "transactionType": "CALL",
      "contractName": null,
      "contractAddress": "0x270e88f8683660553e8ba4eb2ad7c91a1710d769",
      "function": "sell(uint256)",
      "arguments": [
        "747284051858058159393"
      ],
      "transaction": {
        "from": "0xc77f7fed3b5cc8249adc428c5f44c9063b9734b4",
        "to": "0x270e88f8683660553e8ba4eb2ad7c91a1710d769",
        "gas": "0x16fec",
        "value": "0x0",
        "input": "0xe4849b3200000000000000000000000000000000000000000000002882a645e26224a521",
        "nonce": "0x6ea",
        "chainId": "0xaa36a7"
      },
      "additionalContracts": [],
      "isFixedGasLimit": false
    }
  ],
  "receipts": [
    {
      "status": "0x1",
      "cumulativeGasUsed": "0xeb8d7c",
      "logs": [
        {
          "address": "0x270e88f8683660553e8ba4eb2ad7c91a1710d769",
          "topics": [
            "0xddf252ad1be2c89b69c2b068fc378daa952ba7f163c4a11628f55a4df523b3ef",
            "0x000000000000000000000000c77f7fed3b5cc8249adc428c5f44c9063b9734b4",
            "0x0000000000000000000000000000000000000000000000000000000000000000"
          ],
          "data": "0x00000000000000000000000000000000000000000000002882a645e26224a521",
          "blockHash": "0x35f469911c813a32f4e0fb4d9670673d814b8dcba17d1b101810d0d52817ea66",
          "blockNumber": "0x7253fd",
          "transactionHash": "0x91bcf5b81e1810e2f9384f75b419e301fb6a7a179760d2cc06e79c1745552945",
          "transactionIndex": "0x2e",
          "logIndex": "0x4c",
          "removed": false
        },
        {
          "address": "0x270e88f8683660553e8ba4eb2ad7c91a1710d769",
          "topics": [
            "0x4afcb4a87cdbd9974efdb92ee48bc8d7cd0ae4bf217004db3d080cbaee652ca7"
          ],
          "data": "0x000000000000000000000000000000000000000000000000000000006786e1e40000000000000000000000000000000000000000000000000004b8d812b8ffa80000000000000000000000000000000000000000000000000dc82940eff3c67a",
          "blockHash": "0x35f469911c813a32f4e0fb4d9670673d814b8dcba17d1b101810d0d52817ea66",
          "blockNumber": "0x7253fd",
          "transactionHash": "0x91bcf5b81e1810e2f9384f75b419e301fb6a7a179760d2cc06e79c1745552945",
          "transactionIndex": "0x2e",
          "logIndex": "0x4d",
          "removed": false
        }
      ],
      "logsBloom": "0x00000000000000000000000000000000000000000000000000000000000000000000000000000000000000000000000020000000000000004000000000000000000000000000000000000008000000000000000000000000000000000000000000000000020000000000000000000800020000000000000000000010000000000000000000010000000000000000000000000000000000000000010000000000000000000000000000000000000000004000000000000000000000000000000000000002000000800000000000000000000000000000080000008000000020000000000000000000000000000000000000000000000000000000000000000000",
      "type": "0x2",
      "transactionHash": "0x91bcf5b81e1810e2f9384f75b419e301fb6a7a179760d2cc06e79c1745552945",
      "transactionIndex": "0x2e",
      "blockHash": "0x35f469911c813a32f4e0fb4d9670673d814b8dcba17d1b101810d0d52817ea66",
      "blockNumber": "0x7253fd",
      "gasUsed": "0xfb93",
      "effectiveGasPrice": "0x165d72404",
      "from": "0xc77f7fed3b5cc8249adc428c5f44c9063b9734b4",
      "to": "0x270e88f8683660553e8ba4eb2ad7c91a1710d769",
      "contractAddress": null
    }
  ],
  "libraries": [],
  "pending": [],
  "returns": {},
  "timestamp": 1736892901,
  "chain": 11155111,
  "commit": "51a374b"
}