{
  "transactions": [
    {
      "hash": "0x9179a03f1acd07b50fe7e4654096cd8f95f54fd49c0401c77ca2a3dfef44cbcf",
      "transactionType": "CALL",
      "contractName": null,
      "contractAddress": "0xbf4a322f1496e5c3d34a9bcdb4c60567b38c7de2",
      "function": "sell(uint256)",
      "arguments": [
        "983353929285814933622"
      ],
      "transaction": {
        "from": "0xc77f7fed3b5cc8249adc428c5f44c9063b9734b4",
        "to": "0xbf4a322f1496e5c3d34a9bcdb4c60567b38c7de2",
        "gas": "0x16fea",
        "value": "0x0",
        "input": "0xe4849b320000000000000000000000000000000000000000000000354ec6f4a72d975876",
        "nonce": "0xb1f",
        "chainId": "0xaa36a7"
      },
      "additionalContracts": [],
      "isFixedGasLimit": false
    }
  ],
  "receipts": [
    {
      "status": "0x1",
      "cumulativeGasUsed": "0x9bd9ba",
      "logs": [
        {
          "address": "0xbf4a322f1496e5c3d34a9bcdb4c60567b38c7de2",
          "topics": [
            "0xddf252ad1be2c89b69c2b068fc378daa952ba7f163c4a11628f55a4df523b3ef",
            "0x000000000000000000000000c77f7fed3b5cc8249adc428c5f44c9063b9734b4",
            "0x0000000000000000000000000000000000000000000000000000000000000000"
          ],
          "data": "0x0000000000000000000000000000000000000000000000354ec6f4a72d975876",
          "blockHash": "0x2bced9737327a800806f9fb9e6755efed3d6755270f2a2be329b29663309018d",
          "blockNumber": "0x725b1a",
          "transactionHash": "0x9179a03f1acd07b50fe7e4654096cd8f95f54fd49c0401c77ca2a3dfef44cbcf",
          "transactionIndex": "0x58",
          "logIndex": "0x92",
          "removed": false
        },
        {
          "address": "0xbf4a322f1496e5c3d34a9bcdb4c60567b38c7de2",
          "topics": [
            "0x4afcb4a87cdbd9974efdb92ee48bc8d7cd0ae4bf217004db3d080cbaee652ca7"
          ],
          "data": "0x000000000000000000000000000000000000000000000000000000006787379400000000000000000000000000000000000000000000000000039671bcff9c080000000000000000000000000000000000000000000000000dc7e3e9dd411ba3",
          "blockHash": "0x2bced9737327a800806f9fb9e6755efed3d6755270f2a2be329b29663309018d",
          "blockNumber": "0x725b1a",
          "transactionHash": "0x9179a03f1acd07b50fe7e4654096cd8f95f54fd49c0401c77ca2a3dfef44cbcf",
          "transactionIndex": "0x58",
          "logIndex": "0x93",
          "removed": false
        }
      ],
      "logsBloom": "0x00000000000000000000000000000000000000000000000000000000000000000000000000000000000000000000000000000000000000004000000000000000000000000000000000000008000000000000001000000000000000000000000000000000020000000000000000000800020000000000000000000010000000000000000000000000000000000000000000000000000008000000010000000000000000000000000000000000000000004000000000000000000000000000000000000002000000800000000000001000000000000000080000000000000020000000000000000000000000000000000000000000000000000000000000000000",
      "type": "0x2",
      "transactionHash": "0x9179a03f1acd07b50fe7e4654096cd8f95f54fd49c0401c77ca2a3dfef44cbcf",
      "transactionIndex": "0x58",
      "blockHash": "0x2bced9737327a800806f9fb9e6755efed3d6755270f2a2be329b29663309018d",
      "blockNumber": "0x725b1a",
      "gasUsed": "0xfb91",
      "effectiveGasPrice": "0x74059aa6",
      "from": "0xc77f7fed3b5cc8249adc428c5f44c9063b9734b4",
      "to": "0xbf4a322f1496e5c3d34a9bcdb4c60567b38c7de2",
      "contractAddress": null
    }
  ],
  "libraries": [],
  "pending": [],
  "returns": {},
  "timestamp": 1736914837,
  "chain": 11155111,
  "commit": "51a374b"
}