{
  "transactions": [
    {
      "hash": "0xe5ee21f0e9fb516d0c082831cc1b4f5c2b0eef1fac14b87089ab08e0f16cc426",
      "transactionType": "CALL",
      "contractName": null,
      "contractAddress": "0x8aafd3ede9adb0ff97c7aebce82a919afb1c8764",
      "function": "sell(uint256)",
      "arguments": [
        "5726618742969802185"
      ],
      "transaction": {
        "from": "0xc77f7fed3b5cc8249adc428c5f44c9063b9734b4",
        "to": "0x8aafd3ede9adb0ff97c7aebce82a919afb1c8764",
        "gas": "0x15dca",
        "value": "0x0",
        "input": "0xe4849b320000000000000000000000000000000000000000000000004f790967e2cf1dc9",
        "nonce": "0x1038",
        "chainId": "0xaa36a7"
      },
      "additionalContracts": [],
      "isFixedGasLimit": false
    }
  ],
  "receipts": [
    {
      "status": "0x1",
      "cumulativeGasUsed": "0x11473b0",
      "logs": [
        {
          "address": "0x8aafd3ede9adb0ff97c7aebce82a919afb1c8764",
          "topics": [
            "0xddf252ad1be2c89b69c2b068fc378daa952ba7f163c4a11628f55a4df523b3ef",
            "0x000000000000000000000000c77f7fed3b5cc8249adc428c5f44c9063b9734b4",
            "0x0000000000000000000000000000000000000000000000000000000000000000"
          ],
          "data": "0x0000000000000000000000000000000000000000000000004ed646c5434c6f78",
          "blockHash": "0x68364e1f1f8ecd8e0e35d9c2b151e30428f0da4c406776174eaf2557c97d73ec",
          "blockNumber": "0x7316b6",
          "transactionHash": "0xe5ee21f0e9fb516d0c082831cc1b4f5c2b0eef1fac14b87089ab08e0f16cc426",
          "transactionIndex": "0x8d",
          "logIndex": "0xa2",
          "removed": false
        },
        {
          "address": "0x8aafd3ede9adb0ff97c7aebce82a919afb1c8764",
          "topics": [
            "0xddf252ad1be2c89b69c2b068fc378daa952ba7f163c4a11628f55a4df523b3ef",
            "0x000000000000000000000000c77f7fed3b5cc8249adc428c5f44c9063b9734b4",
            "0x000000000000000000000000c77f7fed3b5cc8249adc428c5f44c9063b9734b4"
          ],
          "data": "0x00000000000000000000000000000000000000000000000000a2c2a29f82ae51",
          "blockHash": "0x68364e1f1f8ecd8e0e35d9c2b151e30428f0da4c406776174eaf2557c97d73ec",
          "blockNumber": "0x7316b6",
          "transactionHash": "0xe5ee21f0e9fb516d0c082831cc1b4f5c2b0eef1fac14b87089ab08e0f16cc426",
          "transactionIndex": "0x8d",
          "logIndex": "0xa3",
          "removed": false
        },
        {
          "address": "0x8aafd3ede9adb0ff97c7aebce82a919afb1c8764",
          "topics": [
            "0x4afcb4a87cdbd9974efdb92ee48bc8d7cd0ae4bf217004db3d080cbaee652ca7"
          ],
          "data": "0x0000000000000000000000000000000000000000000000000000000067900d400000000000000000000000000000000000000000000000000004ef1cc4df3e8c000000000000000000000000000000000000000000000000001c4150c91284ba",
          "blockHash": "0x68364e1f1f8ecd8e0e35d9c2b151e30428f0da4c406776174eaf2557c97d73ec",
          "blockNumber": "0x7316b6",
          "transactionHash": "0xe5ee21f0e9fb516d0c082831cc1b4f5c2b0eef1fac14b87089ab08e0f16cc426",
          "transactionIndex": "0x8d",
          "logIndex": "0xa4",
          "removed": false
        }
      ],
      "logsBloom": "0x00000000000000000000000000000000000000000600000000000000000000000000000000000000000000000000000000000000000000004000000000000000000000000000004000000008000000000000000000000000000000000000000000000000020000000000000000000800020000000000000000000010000000000000000000000000000000000000000000000000000000000000010000000000000000000000000000000000000000004000000000000000000000000000000000000002000000800000000000000000000000000000080000000000000020000000000000000000000000000000000000000000000000000000000000000000",
      "type": "0x2",
      "transactionHash": "0xe5ee21f0e9fb516d0c082831cc1b4f5c2b0eef1fac14b87089ab08e0f16cc426",
      "transactionIndex": "0x8d",
      "blockHash": "0x68364e1f1f8ecd8e0e35d9c2b151e30428f0da4c406776174eaf2557c97d73ec",
      "blockNumber": "0x7316b6",
      "gasUsed": "0xfd3f",
      "effectiveGasPrice": "0x4b851171",
      "from": "0xc77f7fed3b5cc8249adc428c5f44c9063b9734b4",
      "to": "0x8aafd3ede9adb0ff97c7aebce82a919afb1c8764",
      "contractAddress": null
    }
  ],
  "libraries": [],
  "pending": [],
  "returns": {},
  "timestamp": 1737493825,
  "chain": 11155111,
  "commit": "1d2fb70"
}