{
  "transactions": [
    {
      "hash": "0x68854a03f5023769df813b584755b2c4e77bebd9992a0f6f6d2d3c6f39db9250",
      "transactionType": "CALL",
      "contractName": null,
      "contractAddress": "0x5eb9cc76c3506942c1c0ead70e877dd5e4f00cb0",
      "function": "buy(address)",
      "arguments": [
        "0xC77f7fed3b5Cc8249aDc428c5F44C9063B9734b4"
      ],
      "transaction": {
        "from": "0xc77f7fed3b5cc8249adc428c5f44c9063b9734b4",
        "to": "0x5eb9cc76c3506942c1c0ead70e877dd5e4f00cb0",
        "gas": "0x1b30c",
        "value": "0xde0b6b3a7640000",
        "input": "0xf088d547000000000000000000000000c77f7fed3b5cc8249adc428c5f44c9063b9734b4",
        "nonce": "0x378",
        "chainId": "0xaa36a7"
      },
      "additionalContracts": [],
      "isFixedGasLimit": false
    }
  ],
  "receipts": [
    {
      "status": "0x1",
      "cumulativeGasUsed": "0x1406fc4",
      "logs": [
        {
          "address": "0x5eb9cc76c3506942c1c0ead70e877dd5e4f00cb0",
          "topics": [
            "0xddf252ad1be2c89b69c2b068fc378daa952ba7f163c4a11628f55a4df523b3ef",
            "0x0000000000000000000000000000000000000000000000000000000000000000",
            "0x000000000000000000000000c77f7fed3b5cc8249adc428c5f44c9063b9734b4"
          ],
          "data": "0x000000000000000000000000000000000000000000000035754efbdcc4bbda5c",
          "blockHash": "0x4920fca08ec077c57a2e1fa1324c1613e8e5570db750ab9884dbb8ebab7f41de",
          "blockNumber": "0x724f70",
          "transactionHash": "0x68854a03f5023769df813b584755b2c4e77bebd9992a0f6f6d2d3c6f39db9250",
          "transactionIndex": "0x8e",
          "logIndex": "0xf7",
          "removed": false
        },
        {
          "address": "0x5eb9cc76c3506942c1c0ead70e877dd5e4f00cb0",
          "topics": [
            "0xddf252ad1be2c89b69c2b068fc378daa952ba7f163c4a11628f55a4df523b3ef",
            "0x0000000000000000000000000000000000000000000000000000000000000000",
            "0x000000000000000000000000c77f7fed3b5cc8249adc428c5f44c9063b9734b4"
          ],
          "data": "0x00000000000000000000000000000000000000000000000029831bdf6f1af6d6",
          "blockHash": "0x4920fca08ec077c57a2e1fa1324c1613e8e5570db750ab9884dbb8ebab7f41de",
          "blockNumber": "0x724f70",
          "transactionHash": "0x68854a03f5023769df813b584755b2c4e77bebd9992a0f6f6d2d3c6f39db9250",
          "transactionIndex": "0x8e",
          "logIndex": "0xf8",
          "removed": false
        },
        {
          "address": "0x5eb9cc76c3506942c1c0ead70e877dd5e4f00cb0",
          "topics": [
            "0x4afcb4a87cdbd9974efdb92ee48bc8d7cd0ae4bf217004db3d080cbaee652ca7"
          ],
          "data": "0x000000000000000000000000000000000000000000000000000000006786aaf4000000000000000000000000000000000000000000000000000391104d6f31690000000000000000000000000000000000000000000000000de0b6b3a7640000",
          "blockHash": "0x4920fca08ec077c57a2e1fa1324c1613e8e5570db750ab9884dbb8ebab7f41de",
          "blockNumber": "0x724f70",
          "transactionHash": "0x68854a03f5023769df813b584755b2c4e77bebd9992a0f6f6d2d3c6f39db9250",
          "transactionIndex": "0x8e",
          "logIndex": "0xf9",
          "removed": false
        }
      ],
      "logsBloom": "0x00000000000000000000000000000000000000000000000000000000000000000000000000000000000000000000000000000000000000004000000000000000000000000000000000000008000000000000000000000000000000000000000000000000020000000000000004000800020000000000000000000010000000000000000000000000000000000000000000000000000000000000010000000000000000000000000000000000000000004000000000000000000000000000020000000002000000800000008000000000000000000000080000000000000020000000000000000000000000000000000000000000000000000000000000000000",
      "type": "0x2",
      "transactionHash": "0x68854a03f5023769df813b584755b2c4e77bebd9992a0f6f6d2d3c6f39db9250",
      "transactionIndex": "0x8e",
      "blockHash": "0x4920fca08ec077c57a2e1fa1324c1613e8e5570db750ab9884dbb8ebab7f41de",
      "blockNumber": "0x724f70",
      "gasUsed": "0x13af8",
      "effectiveGasPrice": "0x5ce2cfa53",
      "from": "0xc77f7fed3b5cc8249adc428c5f44c9063b9734b4",
      "to": "0x5eb9cc76c3506942c1c0ead70e877dd5e4f00cb0",
      "contractAddress": null
    }
  ],
  "libraries": [],
  "pending": [],
  "returns": {},
  "timestamp": 1736878838,
  "chain": 11155111,
  "commit": "51a374b"
}