{
  "transactions": [
    {
      "hash": "0x851e0b520cfd06c102db6d31f3d708332704afac3bc4754191a086f794f955a7",
      "transactionType": "CALL",
      "contractName": null,
      "contractAddress": "0x8aafd3ede9adb0ff97c7aebce82a919afb1c8764",
      "function": "sell(uint256)",
      "arguments": [
        "2846823039769"
      ],
      "transaction": {
        "from": "0xc77f7fed3b5cc8249adc428c5f44c9063b9734b4",
        "to": "0x8aafd3ede9adb0ff97c7aebce82a919afb1c8764",
        "gas": "0x15daa",
        "value": "0x0",
        "input": "0xe4849b3200000000000000000000000000000000000000000000000000000296d3e04319",
        "nonce": "0x113f",
        "chainId": "0xaa36a7"
      },
      "additionalContracts": [],
      "isFixedGasLimit": false
    }
  ],
  "receipts": [
    {
      "status": "0x1",
      "cumulativeGasUsed": "0x97667a",
      "logs": [
        {
          "address": "0x8aafd3ede9adb0ff97c7aebce82a919afb1c8764",
          "topics": [
            "0xddf252ad1be2c89b69c2b068fc378daa952ba7f163c4a11628f55a4df523b3ef",
            "0x000000000000000000000000c77f7fed3b5cc8249adc428c5f44c9063b9734b4",
            "0x0000000000000000000000000000000000000000000000000000000000000000"
          ],
          "data": "0x000000000000000000000000000000000000000000000000000002918667af1b",
          "blockHash": "0xd88937a8af6a4fb2b65511468b202cbc1ca70711a889428cb69079ef00bd487c",
          "blockNumber": "0x7317f8",
          "transactionHash": "0x851e0b520cfd06c102db6d31f3d708332704afac3bc4754191a086f794f955a7",
          "transactionIndex": "0x81",
          "logIndex": "0x9b",
          "removed": false
        },
        {
          "address": "0x8aafd3ede9adb0ff97c7aebce82a919afb1c8764",
          "topics": [
            "0xddf252ad1be2c89b69c2b068fc378daa952ba7f163c4a11628f55a4df523b3ef",
            "0x000000000000000000000000c77f7fed3b5cc8249adc428c5f44c9063b9734b4",
            "0x000000000000000000000000c77f7fed3b5cc8249adc428c5f44c9063b9734b4"
          ],
          "data": "0x000000000000000000000000000000000000000000000000000000054d7893fe",
          "blockHash": "0xd88937a8af6a4fb2b65511468b202cbc1ca70711a889428cb69079ef00bd487c",
          "blockNumber": "0x7317f8",
          "transactionHash": "0x851e0b520cfd06c102db6d31f3d708332704afac3bc4754191a086f794f955a7",
          "transactionIndex": "0x81",
          "logIndex": "0x9c",
          "removed": false
        },
        {
          "address": "0x8aafd3ede9adb0ff97c7aebce82a919afb1c8764",
          "topics": [
            "0x4afcb4a87cdbd9974efdb92ee48bc8d7cd0ae4bf217004db3d080cbaee652ca7"
          ],
          "data": "0x0000000000000000000000000000000000000000000000000000000067901c64000000000000000000000000000000000000000000000000000514dfe886f94500000000000000000000000000000000000000000000000000000000f2b411aa",
          "blockHash": "0xd88937a8af6a4fb2b65511468b202cbc1ca70711a889428cb69079ef00bd487c",
          "blockNumber": "0x7317f8",
          "transactionHash": "0x851e0b520cfd06c102db6d31f3d708332704afac3bc4754191a086f794f955a7",
          "transactionIndex": "0x81",
          "logIndex": "0x9d",
          "removed": false
        }
      ],
      "logsBloom": "0x00000000000000000000000000000000000000000600000000000000000000000000000000000000000000000000000000000000000000004000000000000000000000000000004000000008000000000000000000000000000000000000000000000000020000000000000000000800020000000000000000000010000000000000000000000000000000000000000000000000000000000000010000000000000000000000000000000000000000004000000000000000000000000000000000000002000000800000000000000000000000000000080000000000000020000000000000000000000000000000000000000000000000000000000000000000",
      "type": "0x2",
      "transactionHash": "0x851e0b520cfd06c102db6d31f3d708332704afac3bc4754191a086f794f955a7",
      "transactionIndex": "0x81",
      "blockHash": "0xd88937a8af6a4fb2b65511468b202cbc1ca70711a889428cb69079ef00bd487c",
      "blockNumber": "0x7317f8",
      "gasUsed": "0xfd27",
      "effectiveGasPrice": "0x3c3b32b4",
      "from": "0xc77f7fed3b5cc8249adc428c5f44c9063b9734b4",
      "to": "0x8aafd3ede9adb0ff97c7aebce82a919afb1c8764",
      "contractAddress": null
    }
  ],
  "libraries": [],
  "pending": [],
  "returns": {},
  "timestamp": 1737497701,
  "chain": 11155111,
  "commit": "1d2fb70"
}