{
  "transactions": [
    {
      "hash": "0x38528c9305d80936369893b94f8b36f0567fb5b605c7b358159d2cd3cca89dc5",
      "transactionType": "CALL",
      "contractName": null,
      "contractAddress": "0xbf4a322f1496e5c3d34a9bcdb4c60567b38c7de2",
      "function": "sell(uint256)",
      "arguments": [
        "984572109240498746922"
      ],
      "transaction": {
        "from": "0xc77f7fed3b5cc8249adc428c5f44c9063b9734b4",
        "to": "0xbf4a322f1496e5c3d34a9bcdb4c60567b38c7de2",
        "gas": "0x16fea",
        "value": "0x0",
        "input": "0xe4849b320000000000000000000000000000000000000000000000355faeccde1d05762a",
        "nonce": "0xac5",
        "chainId": "0xaa36a7"
      },
      "additionalContracts": [],
      "isFixedGasLimit": false
    }
  ],
  "receipts": [
    {
      "status": "0x1",
      "cumulativeGasUsed": "0x74fe41",
      "logs": [
        {
          "address": "0xbf4a322f1496e5c3d34a9bcdb4c60567b38c7de2",
          "topics": [
            "0xddf252ad1be2c89b69c2b068fc378daa952ba7f163c4a11628f55a4df523b3ef",
            "0x000000000000000000000000c77f7fed3b5cc8249adc428c5f44c9063b9734b4",
            "0x0000000000000000000000000000000000000000000000000000000000000000"
          ],
          "data": "0x0000000000000000000000000000000000000000000000355faeccde1d05762a",
          "blockHash": "0x241b279fbd2b616a659a4151a0c3fb6aa6d5612b9c5478d40c2fbe985646d62a",
          "blockNumber": "0x725ab5",
          "transactionHash": "0x38528c9305d80936369893b94f8b36f0567fb5b605c7b358159d2cd3cca89dc5",
          "transactionIndex": "0x3f",
          "logIndex": "0x81",
          "removed": false
        },
        {
          "address": "0xbf4a322f1496e5c3d34a9bcdb4c60567b38c7de2",
          "topics": [
            "0x4afcb4a87cdbd9974efdb92ee48bc8d7cd0ae4bf217004db3d080cbaee652ca7"
          ],
          "data": "0x00000000000000000000000000000000000000000000000000000000678732cc0000000000000000000000000000000000000000000000000003954ed66b378f0000000000000000000000000000000000000000000000000dc7e3ecb2511551",
          "blockHash": "0x241b279fbd2b616a659a4151a0c3fb6aa6d5612b9c5478d40c2fbe985646d62a",
          "blockNumber": "0x725ab5",
          "transactionHash": "0x38528c9305d80936369893b94f8b36f0567fb5b605c7b358159d2cd3cca89dc5",
          "transactionIndex": "0x3f",
          "logIndex": "0x82",
          "removed": false
        }
      ],
      "logsBloom": "0x00000000000000000000000000000000000000000000000000000000000000000000000000000000000000000000000000000000000000004000000000000000000000000000000000000008000000000000001000000000000000000000000000000000020000000000000000000800020000000000000000000010000000000000000000000000000000000000000000000000000008000000010000000000000000000000000000000000000000004000000000000000000000000000000000000002000000800000000000001000000000000000080000000000000020000000000000000000000000000000000000000000000000000000000000000000",
      "type": "0x2",
      "transactionHash": "0x38528c9305d80936369893b94f8b36f0567fb5b605c7b358159d2cd3cca89dc5",
      "transactionIndex": "0x3f",
      "blockHash": "0x241b279fbd2b616a659a4151a0c3fb6aa6d5612b9c5478d40c2fbe985646d62a",
      "blockNumber": "0x725ab5",
      "gasUsed": "0xfb91",
      "effectiveGasPrice": "0x10a9d6fcf",
      "from": "0xc77f7fed3b5cc8249adc428c5f44c9063b9734b4",
      "to": "0xbf4a322f1496e5c3d34a9bcdb4c60567b38c7de2",
      "contractAddress": null
    }
  ],
  "libraries": [],
  "pending": [],
  "returns": {},
  "timestamp": 1736913612,
  "chain": 11155111,
  "commit": "51a374b"
}