{
  "transactions": [
    {
      "hash": "0x3ac9258f668ff9a3234f6fb6653f17d110b23ba1783c2304a5762a27c94a2e7a",
      "transactionType": "CALL",
      "contractName": null,
      "contractAddress": "0x270e88f8683660553e8ba4eb2ad7c91a1710d769",
      "function": "sell(uint256)",
      "arguments": [
        "968394496147711175368"
      ],
      "transaction": {
        "from": "0xc77f7fed3b5cc8249adc428c5f44c9063b9734b4",
        "to": "0x270e88f8683660553e8ba4eb2ad7c91a1710d769",
        "gas": "0x16fec",
        "value": "0x0",
        "input": "0xe4849b320000000000000000000000000000000000000000000000347f2c5f78efb5aac8",
        "nonce": "0x573",
        "chainId": "0xaa36a7"
      },
      "additionalContracts": [],
      "isFixedGasLimit": false
    }
  ],
  "receipts": [
    {
      "status": "0x1",
      "cumulativeGasUsed": "0x9b5291",
      "logs": [
        {
          "address": "0x270e88f8683660553e8ba4eb2ad7c91a1710d769",
          "topics": [
            "0xddf252ad1be2c89b69c2b068fc378daa952ba7f163c4a11628f55a4df523b3ef",
            "0x000000000000000000000000c77f7fed3b5cc8249adc428c5f44c9063b9734b4",
            "0x0000000000000000000000000000000000000000000000000000000000000000"
          ],
          "data": "0x0000000000000000000000000000000000000000000000347f2c5f78efb5aac8",
          "blockHash": "0xadba848bd7cb848813f053fb684d28734d3eef568cc134e1a73d635b091d7bbd",
          "blockNumber": "0x72521d",
          "transactionHash": "0x3ac9258f668ff9a3234f6fb6653f17d110b23ba1783c2304a5762a27c94a2e7a",
          "transactionIndex": "0x5a",
          "logIndex": "0x99",
          "removed": false
        },
        {
          "address": "0x270e88f8683660553e8ba4eb2ad7c91a1710d769",
          "topics": [
            "0x4afcb4a87cdbd9974efdb92ee48bc8d7cd0ae4bf217004db3d080cbaee652ca7"
          ],
          "data": "0x000000000000000000000000000000000000000000000000000000006786cb4c0000000000000000000000000000000000000000000000000003a4e6260fa9040000000000000000000000000000000000000000000000000dc8400c7904f13f",
          "blockHash": "0xadba848bd7cb848813f053fb684d28734d3eef568cc134e1a73d635b091d7bbd",
          "blockNumber": "0x72521d",
          "transactionHash": "0x3ac9258f668ff9a3234f6fb6653f17d110b23ba1783c2304a5762a27c94a2e7a",
          "transactionIndex": "0x5a",
          "logIndex": "0x9a",
          "removed": false
        }
      ],
      "logsBloom": "0x00000000000000000000000000000000000000000000000000000000000000000000000000000000000000000000000020000000000000004000000000000000000000000000000000000008000000000000000000000000000000000000000000000000020000000000000000000800020000000000000000000010000000000000000000010000000000000000000000000000000000000000010000000000000000000000000000000000000000004000000000000000000000000000000000000002000000800000000000000000000000000000080000008000000020000000000000000000000000000000000000000000000000000000000000000000",
      "type": "0x2",
      "transactionHash": "0x3ac9258f668ff9a3234f6fb6653f17d110b23ba1783c2304a5762a27c94a2e7a",
      "transactionIndex": "0x5a",
      "blockHash": "0xadba848bd7cb848813f053fb684d28734d3eef568cc134e1a73d635b091d7bbd",
      "blockNumber": "0x72521d",
      "gasUsed": "0xfb93",
      "effectiveGasPrice": "0x49ef1a657",
      "from": "0xc77f7fed3b5cc8249adc428c5f44c9063b9734b4",
      "to": "0x270e88f8683660553e8ba4eb2ad7c91a1710d769",
      "contractAddress": null
    }
  ],
  "libraries": [],
  "pending": [],
  "returns": {},
  "timestamp": 1736887118,
  "chain": 11155111,
  "commit": "51a374b"
}