{
  "transactions": [
    {
      "hash": "0xe88670c2350b5f00e38cc7a3a77978106bd80456a7056c39e0354005fb949963",
      "transactionType": "CALL",
      "contractName": null,
      "contractAddress": "0xd7bc75898e513accccf720a874d44dab5a4b6223",
      "function": "buy(address)",
      "arguments": [
        "0xC77f7fed3b5Cc8249aDc428c5F44C9063B9734b4"
      ],
      "transaction": {
        "from": "0xc77f7fed3b5cc8249adc428c5f44c9063b9734b4",
        "to": "0xd7bc75898e513accccf720a874d44dab5a4b6223",
        "gas": "0x1b30c",
        "value": "0x2386f26fc10000",
        "input": "0xf088d547000000000000000000000000c77f7fed3b5cc8249adc428c5f44c9063b9734b4",
        "nonce": "0x108",
        "chainId": "0xaa36a7"
      },
      "additionalContracts": [],
      "isFixedGasLimit": false
    }
  ],
  "receipts": [
    {
      "status": "0x1",
      "cumulativeGasUsed": "0x3bb2a2",
      "logs": [
        {
          "address": "0xd7bc75898e513accccf720a874d44dab5a4b6223",
          "topics": [
            "0xddf252ad1be2c89b69c2b068fc378daa952ba7f163c4a11628f55a4df523b3ef",
            "0x0000000000000000000000000000000000000000000000000000000000000000",
            "0x000000000000000000000000c77f7fed3b5cc8249adc428c5f44c9063b9734b4"
          ],
          "data": "0x0000000000000000000000000000000000000000000000008963ba570038f98e",
          "blockHash": "0x5d1f1b32a16f767bc6d97fc04c90dabbe941bcef3e8a390c1e44b3c633291c84",
          "blockNumber": "0x72399b",
          "transactionHash": "0xe88670c2350b5f00e38cc7a3a77978106bd80456a7056c39e0354005fb949963",
          "transactionIndex": "0x2b",
          "logIndex": "0x3a",
          "removed": false
        },
        {
          "address": "0xd7bc75898e513accccf720a874d44dab5a4b6223",
          "topics": [
            "0xddf252ad1be2c89b69c2b068fc378daa952ba7f163c4a11628f55a4df523b3ef",
            "0x0000000000000000000000000000000000000000000000000000000000000000",
            "0x000000000000000000000000c77f7fed3b5cc8249adc428c5f44c9063b9734b4"
          ],
          "data": "0x000000000000000000000000000000000000000000000000006ab00be17f9824",
          "blockHash": "0x5d1f1b32a16f767bc6d97fc04c90dabbe941bcef3e8a390c1e44b3c633291c84",
          "blockNumber": "0x72399b",
          "transactionHash": "0xe88670c2350b5f00e38cc7a3a77978106bd80456a7056c39e0354005fb949963",
          "transactionIndex": "0x2b",
          "logIndex": "0x3b",
          "removed": false
        },
        {
          "address": "0xd7bc75898e513accccf720a874d44dab5a4b6223",
          "topics": [
            "0x4afcb4a87cdbd9974efdb92ee48bc8d7cd0ae4bf217004db3d080cbaee652ca7"
          ],
          "data": "0x000000000000000000000000000000000000000000000000000000006785a49800000000000000000000000000000000000000000000000000038d7f8de9e6f2000000000000000000000000000000000000000000000000002386f26fc10000",
          "blockHash": "0x5d1f1b32a16f767bc6d97fc04c90dabbe941bcef3e8a390c1e44b3c633291c84",
          "blockNumber": "0x72399b",
          "transactionHash": "0xe88670c2350b5f00e38cc7a3a77978106bd80456a7056c39e0354005fb949963",
          "transactionIndex": "0x2b",
          "logIndex": "0x3c",
          "removed": false
        }
      ],
      "logsBloom": "0x00000000000000000000000000000000000000000000000000000000000000000000000000000000000000000000000000000000000000004000000000000000000000000000000000000008000000000000000000000000000000000000000000000000020000000000000000000800020000000000000000000010000000000000000000000000000000000000000000000000000000000000010000000000000000000000000000000000000000004000001000000000000000000000000000000002000000800000000000004000000000000000080000000000000020000000000000000000000000000000000000000000080000000000000000000000",
      "type": "0x2",
      "transactionHash": "0xe88670c2350b5f00e38cc7a3a77978106bd80456a7056c39e0354005fb949963",
      "transactionIndex": "0x2b",
      "blockHash": "0x5d1f1b32a16f767bc6d97fc04c90dabbe941bcef3e8a390c1e44b3c633291c84",
      "blockNumber": "0x72399b",
      "gasUsed": "0x13af8",
      "effectiveGasPrice": "0x236e9391a",
      "from": "0xc77f7fed3b5cc8249adc428c5f44c9063b9734b4",
      "to": "0xd7bc75898e513accccf720a874d44dab5a4b6223",
      "contractAddress": null
    }
  ],
  "libraries": [],
  "pending": [],
  "returns": {},
  "timestamp": 1736811674,
  "chain": 11155111,
  "commit": "51a374b"
}