{
  "transactions": [
    {
      "hash": "0xfd2d5d456f490143790707ecb69c131ccdc3ff102ab504cff2bf773b0e21ebe5",
      "transactionType": "CALL",
      "contractName": null,
      "contractAddress": "0x5eb9cc76c3506942c1c0ead70e877dd5e4f00cb0",
      "function": "sell(uint256)",
      "arguments": [
        "989145894968955292447"
      ],
      "transaction": {
        "from": "0xc77f7fed3b5cc8249adc428c5f44c9063b9734b4",
        "to": "0x5eb9cc76c3506942c1c0ead70e877dd5e4f00cb0",
        "gas": "0x16fec",
        "value": "0x0",
        "input": "0xe4849b320000000000000000000000000000000000000000000000359f2826c1346ccb1f",
        "nonce": "0x2e1",
        "chainId": "0xaa36a7"
      },
      "additionalContracts": [],
      "isFixedGasLimit": false
    }
  ],
  "receipts": [
    {
      "status": "0x1",
      "cumulativeGasUsed": "0x929c5d",
      "logs": [
        {
          "address": "0x5eb9cc76c3506942c1c0ead70e877dd5e4f00cb0",
          "topics": [
            "0xddf252ad1be2c89b69c2b068fc378daa952ba7f163c4a11628f55a4df523b3ef",
            "0x000000000000000000000000c77f7fed3b5cc8249adc428c5f44c9063b9734b4",
            "0x0000000000000000000000000000000000000000000000000000000000000000"
          ],
          "data": "0x0000000000000000000000000000000000000000000000359f2826c1346ccb1f",
          "blockHash": "0x3eb6381d8b82d5786786fd2c14e0649fa1fefd682463d0eb5f662b3e63d47015",
          "blockNumber": "0x724ebe",
          "transactionHash": "0xfd2d5d456f490143790707ecb69c131ccdc3ff102ab504cff2bf773b0e21ebe5",
          "transactionIndex": "0x42",
          "logIndex": "0x5e",
          "removed": false
        },
        {
          "address": "0x5eb9cc76c3506942c1c0ead70e877dd5e4f00cb0",
          "topics": [
            "0x4afcb4a87cdbd9974efdb92ee48bc8d7cd0ae4bf217004db3d080cbaee652ca7"
          ],
          "data": "0x000000000000000000000000000000000000000000000000000000006786a29c0000000000000000000000000000000000000000000000000003910aa05e79990000000000000000000000000000000000000000000000000dc7db1332391cc6",
          "blockHash": "0x3eb6381d8b82d5786786fd2c14e0649fa1fefd682463d0eb5f662b3e63d47015",
          "blockNumber": "0x724ebe",
          "transactionHash": "0xfd2d5d456f490143790707ecb69c131ccdc3ff102ab504cff2bf773b0e21ebe5",
          "transactionIndex": "0x42",
          "logIndex": "0x5f",
          "removed": false
        }
      ],
      "logsBloom": "0x00000000000000000000000000000000000000000000000000000000000000000000000000000000000000000000000000000000000000004000000000000000000000000000000000000008000000000000000000000000000000000000000000000000020000000000000004000800020000000000000000000010000000000000000000000000000000000000000000000000000000000000010000000000000000000000000000000000000000004000000000000000000000000000020000000002000000800000008000000000000000000000080000000000000020000000000000000000000000000000000000000000000000000000000000000000",
      "type": "0x2",
      "transactionHash": "0xfd2d5d456f490143790707ecb69c131ccdc3ff102ab504cff2bf773b0e21ebe5",
      "transactionIndex": "0x42",
      "blockHash": "0x3eb6381d8b82d5786786fd2c14e0649fa1fefd682463d0eb5f662b3e63d47015",
      "blockNumber": "0x724ebe",
      "gasUsed": "0xfb93",
      "effectiveGasPrice": "0x4b710e79a",
      "from": "0xc77f7fed3b5cc8249adc428c5f44c9063b9734b4",
      "to": "0x5eb9cc76c3506942c1c0ead70e877dd5e4f00cb0",
      "contractAddress": null
    }
  ],
  "libraries": [],
  "pending": [],
  "returns": {},
  "timestamp": 1736876701,
  "chain": 11155111,
  "commit": "51a374b"
}