{
  "transactions": [
    {
      "hash": "0xdca843d48c4a55a1c5d5e0a1c3e548962f4ff930ad9c74cef16f65a91588bd60",
      "transactionType": "CALL",
      "contractName": null,
      "contractAddress": "0xbf4a322f1496e5c3d34a9bcdb4c60567b38c7de2",
      "function": "sell(uint256)",
      "arguments": [
        "986228245370858448889"
      ],
      "transaction": {
        "from": "0xc77f7fed3b5cc8249adc428c5f44c9063b9734b4",
        "to": "0xbf4a322f1496e5c3d34a9bcdb4c60567b38c7de2",
        "gas": "0x16fea",
        "value": "0x0",
        "input": "0xe4849b3200000000000000000000000000000000000000000000003576aa93e752cd27f9",
        "nonce": "0xa4b",
        "chainId": "0xaa36a7"
      },
      "additionalContracts": [],
      "isFixedGasLimit": false
    }
  ],
  "receipts": [
    {
      "status": "0x1",
      "cumulativeGasUsed": "0x14ee4c2",
      "logs": [
        {
          "address": "0xbf4a322f1496e5c3d34a9bcdb4c60567b38c7de2",
          "topics": [
            "0xddf252ad1be2c89b69c2b068fc378daa952ba7f163c4a11628f55a4df523b3ef",
            "0x000000000000000000000000c77f7fed3b5cc8249adc428c5f44c9063b9734b4",
            "0x0000000000000000000000000000000000000000000000000000000000000000"
          ],
          "data": "0x00000000000000000000000000000000000000000000003576aa93e752cd27f9",
          "blockHash": "0xe3cc4945b6c87ff09139c79d1316bdf481974bfec7a548ae7e66bac69de4e941",
          "blockNumber": "0x725a24",
          "transactionHash": "0xdca843d48c4a55a1c5d5e0a1c3e548962f4ff930ad9c74cef16f65a91588bd60",
          "transactionIndex": "0xb9",
          "logIndex": "0x118",
          "removed": false
        },
        {
          "address": "0xbf4a322f1496e5c3d34a9bcdb4c60567b38c7de2",
          "topics": [
            "0x4afcb4a87cdbd9974efdb92ee48bc8d7cd0ae4bf217004db3d080cbaee652ca7"
          ],
          "data": "0x0000000000000000000000000000000000000000000000000000000067872c00000000000000000000000000000000000000000000000000000393c4817c0c950000000000000000000000000000000000000000000000000dc7e3f08c0c1602",
          "blockHash": "0xe3cc4945b6c87ff09139c79d1316bdf481974bfec7a548ae7e66bac69de4e941",
          "blockNumber": "0x725a24",
          "transactionHash": "0xdca843d48c4a55a1c5d5e0a1c3e548962f4ff930ad9c74cef16f65a91588bd60",
          "transactionIndex": "0xb9",
          "logIndex": "0x119",
          "removed": false
        }
      ],
      "logsBloom": "0x00000000000000000000000000000000000000000000000000000000000000000000000000000000000000000000000000000000000000004000000000000000000000000000000000000008000000000000001000000000000000000000000000000000020000000000000000000800020000000000000000000010000000000000000000000000000000000000000000000000000008000000010000000000000000000000000000000000000000004000000000000000000000000000000000000002000000800000000000001000000000000000080000000000000020000000000000000000000000000000000000000000000000000000000000000000",
      "type": "0x2",
      "transactionHash": "0xdca843d48c4a55a1c5d5e0a1c3e548962f4ff930ad9c74cef16f65a91588bd60",
      "transactionIndex": "0xb9",
      "blockHash": "0xe3cc4945b6c87ff09139c79d1316bdf481974bfec7a548ae7e66bac69de4e941",
      "blockNumber": "0x725a24",
      "gasUsed": "0xfb91",
      "effectiveGasPrice": "0x5271a382f",
      "from": "0xc77f7fed3b5cc8249adc428c5f44c9063b9734b4",
      "to": "0xbf4a322f1496e5c3d34a9bcdb4c60567b38c7de2",
      "contractAddress": null
    }
  ],
  "libraries": [],
  "pending": [],
  "returns": {},
  "timestamp": 1736911874,
  "chain": 11155111,
  "commit": "51a374b"
}