{
  "transactions": [
    {
      "hash": "0x81094d36d1b1a091cc1d679a584e7c0d2247cb8ed0eafe12f0163793feeb2a79",
      "transactionType": "CALL",
      "contractName": null,
      "contractAddress": "0x8aafd3ede9adb0ff97c7aebce82a919afb1c8764",
      "function": "sell(uint256)",
      "arguments": [
        "1571409"
      ],
      "transaction": {
        "from": "0xc77f7fed3b5cc8249adc428c5f44c9063b9734b4",
        "to": "0x8aafd3ede9adb0ff97c7aebce82a919afb1c8764",
        "gas": "0x16208",
        "value": "0x0",
        "input": "0xe4849b32000000000000000000000000000000000000000000000000000000000017fa51",
        "nonce": "0xe7b",
        "chainId": "0xaa36a7"
      },
      "additionalContracts": [],
      "isFixedGasLimit": false
    }
  ],
  "receipts": [
    {
      "status": "0x1",
      "cumulativeGasUsed": "0xd628ab",
      "logs": [
        {
          "address": "0x8aafd3ede9adb0ff97c7aebce82a919afb1c8764",
          "topics": [
            "0xddf252ad1be2c89b69c2b068fc378daa952ba7f163c4a11628f55a4df523b3ef",
            "0x000000000000000000000000c77f7fed3b5cc8249adc428c5f44c9063b9734b4",
            "0x0000000000000000000000000000000000000000000000000000000000000000"
          ],
          "data": "0x000000000000000000000000000000000000000000000000000000000017c936",
          "blockHash": "0x114b8b949e9089d640cff5122dd88881324d813a0ebaae839eb9fdaae4bb29dc",
          "blockNumber": "0x7313d5",
          "transactionHash": "0x81094d36d1b1a091cc1d679a584e7c0d2247cb8ed0eafe12f0163793feeb2a79",
          "transactionIndex": "0xa3",
          "logIndex": "0xcf",
          "removed": false
        },
        {
          "address": "0x8aafd3ede9adb0ff97c7aebce82a919afb1c8764",
          "topics": [
            "0xddf252ad1be2c89b69c2b068fc378daa952ba7f163c4a11628f55a4df523b3ef",
            "0x000000000000000000000000c77f7fed3b5cc8249adc428c5f44c9063b9734b4",
            "0x000000000000000000000000c77f7fed3b5cc8249adc428c5f44c9063b9734b4"
          ],
          "data": "0x000000000000000000000000000000000000000000000000000000000000311b",
          "blockHash": "0x114b8b949e9089d640cff5122dd88881324d813a0ebaae839eb9fdaae4bb29dc",
          "blockNumber": "0x7313d5",
          "transactionHash": "0x81094d36d1b1a091cc1d679a584e7c0d2247cb8ed0eafe12f0163793feeb2a79",
          "transactionIndex": "0xa3",
          "logIndex": "0xd0",
          "removed": false
        },
        {
          "address": "0x8aafd3ede9adb0ff97c7aebce82a919afb1c8764",
          "topics": [
            "0x4afcb4a87cdbd9974efdb92ee48bc8d7cd0ae4bf217004db3d080cbaee652ca7"
          ],
          "data": "0x00000000000000000000000000000000000000000000000000000000678fea900000000000000000000000000000000000000000000000000004b5b470a2b0820000000000000000000000000000000000000000000000000000000000000823",
          "blockHash": "0x114b8b949e9089d640cff5122dd88881324d813a0ebaae839eb9fdaae4bb29dc",
          "blockNumber": "0x7313d5",
          "transactionHash": "0x81094d36d1b1a091cc1d679a584e7c0d2247cb8ed0eafe12f0163793feeb2a79",
          "transactionIndex": "0xa3",
          "logIndex": "0xd1",
          "removed": false
        }
      ],
      "logsBloom": "0x00000000000000000000000000000000000000000600000000000000000000000000000000000000000000000000000000000000000000004000000000000000000000000000004000000008000000000000000000000000000000000000000000000000020000000000000000000800020000000000000000000010000000000000000000000000000000000000000000000000000000000000010000000000000000000000000000000000000000004000000000000000000000000000000000000002000000800000000000000000000000000000080000000000000020000000000000000000000000000000000000000000000000000000000000000000",
      "type": "0x2",
      "transactionHash": "0x81094d36d1b1a091cc1d679a584e7c0d2247cb8ed0eafe12f0163793feeb2a79",
      "transactionIndex": "0xa3",
      "blockHash": "0x114b8b949e9089d640cff5122dd88881324d813a0ebaae839eb9fdaae4bb29dc",
      "blockNumber": "0x7313d5",
      "gasUsed": "0xf213",
      "effectiveGasPrice": "0x68326adb",
      "from": "0xc77f7fed3b5cc8249adc428c5f44c9063b9734b4",
      "to": "0x8aafd3ede9adb0ff97c7aebce82a919afb1c8764",
      "contractAddress": null
    }
  ],
  "libraries": [],
  "pending": [],
  "returns": {},
  "timestamp": 1737484946,
  "chain": 11155111,
  "commit": "51a374b"
}