{
  "transactions": [
    {
      "hash": "0x9fd82acc8e31fead580af66d80a446a3924b859cfb7f50f90edfd0ccf7a2b077",
      "transactionType": "CALL",
      "contractName": null,
      "contractAddress": "0x8aafd3ede9adb0ff97c7aebce82a919afb1c8764",
      "function": "sell(uint256)",
      "arguments": [
        "357853055825364"
      ],
      "transaction": {
        "from": "0xc77f7fed3b5cc8249adc428c5f44c9063b9734b4",
        "to": "0x8aafd3ede9adb0ff97c7aebce82a919afb1c8764",
        "gas": "0x1724d",
        "value": "0x0",
        "input": "0xe4849b3200000000000000000000000000000000000000000000000000014577284635d4",
        "nonce": "0x110c",
        "chainId": "0xaa36a7"
      },
      "additionalContracts": [],
      "isFixedGasLimit": false
    }
  ],
  "receipts": [
    {
      "status": "0x1",
      "cumulativeGasUsed": "0x94ea2c",
      "logs": [
        {
          "address": "0x8aafd3ede9adb0ff97c7aebce82a919afb1c8764",
          "topics": [
            "0xddf252ad1be2c89b69c2b068fc378daa952ba7f163c4a11628f55a4df523b3ef",
            "0x000000000000000000000000c77f7fed3b5cc8249adc428c5f44c9063b9734b4",
            "0x0000000000000000000000000000000000000000000000000000000000000000"
          ],
          "data": "0x000000000000000000000000000000000000000000000000000142dc9aa3db4a",
          "blockHash": "0x7fe5e2b73a347b25e9630f21026a8f4a993dd02bad643d84c536a48a09bc1c6e",
          "blockNumber": "0x7317bb",
          "transactionHash": "0x9fd82acc8e31fead580af66d80a446a3924b859cfb7f50f90edfd0ccf7a2b077",
          "transactionIndex": "0x7a",
          "logIndex": "0x81",
          "removed": false
        },
        {
          "address": "0x8aafd3ede9adb0ff97c7aebce82a919afb1c8764",
          "topics": [
            "0xddf252ad1be2c89b69c2b068fc378daa952ba7f163c4a11628f55a4df523b3ef",
            "0x000000000000000000000000c77f7fed3b5cc8249adc428c5f44c9063b9734b4",
            "0x000000000000000000000000c77f7fed3b5cc8249adc428c5f44c9063b9734b4"
          ],
          "data": "0x0000000000000000000000000000000000000000000000000000029a8da25a8a",
          "blockHash": "0x7fe5e2b73a347b25e9630f21026a8f4a993dd02bad643d84c536a48a09bc1c6e",
          "blockNumber": "0x7317bb",
          "transactionHash": "0x9fd82acc8e31fead580af66d80a446a3924b859cfb7f50f90edfd0ccf7a2b077",
          "transactionIndex": "0x7a",
          "logIndex": "0x82",
          "removed": false
        },
        {
          "address": "0x8aafd3ede9adb0ff97c7aebce82a919afb1c8764",
          "topics": [
            "0x4afcb4a87cdbd9974efdb92ee48bc8d7cd0ae4bf217004db3d080cbaee652ca7"
          ],
          "data": "0x000000000000000000000000000000000000000000000000000000006790198800000000000000000000000000000000000000000000000000050d9c90652f2a00000000000000000000000000000000000000000000000000000076821cbfc1",
          "blockHash": "0x7fe5e2b73a347b25e9630f21026a8f4a993dd02bad643d84c536a48a09bc1c6e",
          "blockNumber": "0x7317bb",
          "transactionHash": "0x9fd82acc8e31fead580af66d80a446a3924b859cfb7f50f90edfd0ccf7a2b077",
          "transactionIndex": "0x7a",
          "logIndex": "0x83",
          "removed": false
        }
      ],
      "logsBloom": "0x00000000000000000000000000000000000000000600000000000000000000000000000000000000000000000000000000000000000000004000000000000000000000000000004000000008000000000000000000000000000000000000000000000000020000000000000000000800020000000000000000000010000000000000000000000000000000000000000000000000000000000000010000000000000000000000000000000000000000004000000000000000000000000000000000000002000000800000000000000000000000000000080000000000000020000000000000000000000000000000000000000000000000000000000000000000",
      "type": "0x2",
      "transactionHash": "0x9fd82acc8e31fead580af66d80a446a3924b859cfb7f50f90edfd0ccf7a2b077",
      "transactionIndex": "0x7a",
      "blockHash": "0x7fe5e2b73a347b25e9630f21026a8f4a993dd02bad643d84c536a48a09bc1c6e",
      "blockNumber": "0x7317bb",
      "gasUsed": "0xfd33",
      "effectiveGasPrice": "0x4be67022",
      "from": "0xc77f7fed3b5cc8249adc428c5f44c9063b9734b4",
      "to": "0x8aafd3ede9adb0ff97c7aebce82a919afb1c8764",
      "contractAddress": null
    }
  ],
  "libraries": [],
  "pending": [],
  "returns": {},
  "timestamp": 1737496970,
  "chain": 11155111,
  "commit": "1d2fb70"
}