{
  "transactions": [
    {
      "hash": "0x57df8417b15c71bee4b84411840dd8f30497437e3e2ec4b996e27254d6b0b597",
      "transactionType": "CALL",
      "contractName": null,
      "contractAddress": "0x270e88f8683660553e8ba4eb2ad7c91a1710d769",
      "function": "sell(uint256)",
      "arguments": [
        "965064407498465371605"
      ],
      "transaction": {
        "from": "0xc77f7fed3b5cc8249adc428c5f44c9063b9734b4",
        "to": "0x270e88f8683660553e8ba4eb2ad7c91a1710d769",
        "gas": "0x16fec",
        "value": "0x0",
        "input": "0xe4849b3200000000000000000000000000000000000000000000003450f5857d4eda65d5",
        "nonce": "0x589",
        "chainId": "0xaa36a7"
      },
      "additionalContracts": [],
      "isFixedGasLimit": false
    }
  ],
  "receipts": [
    {
      "status": "0x1",
      "cumulativeGasUsed": "0x877e39",
      "logs": [
        {
          "address": "0x270e88f8683660553e8ba4eb2ad7c91a1710d769",
          "topics": [
            "0xddf252ad1be2c89b69c2b068fc378daa952ba7f163c4a11628f55a4df523b3ef",
            "0x000000000000000000000000c77f7fed3b5cc8249adc428c5f44c9063b9734b4",
            "0x0000000000000000000000000000000000000000000000000000000000000000"
          ],
          "data": "0x00000000000000000000000000000000000000000000003450f5857d4eda65d5",
          "blockHash": "0xa8054cc45c5ca66a92321de1a367edc07a388f84a97d201440c24d76aff73f8d",
          "blockNumber": "0x72523a",
          "transactionHash": "0x57df8417b15c71bee4b84411840dd8f30497437e3e2ec4b996e27254d6b0b597",
          "transactionIndex": "0x53",
          "logIndex": "0x8b",
          "removed": false
        },
        {
          "address": "0x270e88f8683660553e8ba4eb2ad7c91a1710d769",
          "topics": [
            "0x4afcb4a87cdbd9974efdb92ee48bc8d7cd0ae4bf217004db3d080cbaee652ca7"
          ],
          "data": "0x000000000000000000000000000000000000000000000000000000006786cca80000000000000000000000000000000000000000000000000003a81dfb0bfcc80000000000000000000000000000000000000000000000000dc83fb4e62f2ce6",
          "blockHash": "0xa8054cc45c5ca66a92321de1a367edc07a388f84a97d201440c24d76aff73f8d",
          "blockNumber": "0x72523a",
          "transactionHash": "0x57df8417b15c71bee4b84411840dd8f30497437e3e2ec4b996e27254d6b0b597",
          "transactionIndex": "0x53",
          "logIndex": "0x8c",
          "removed": false
        }
      ],
      "logsBloom": "0x00000000000000000000000000000000000000000000000000000000000000000000000000000000000000000000000020000000000000004000000000000000000000000000000000000008000000000000000000000000000000000000000000000000020000000000000000000800020000000000000000000010000000000000000000010000000000000000000000000000000000000000010000000000000000000000000000000000000000004000000000000000000000000000000000000002000000800000000000000000000000000000080000008000000020000000000000000000000000000000000000000000000000000000000000000000",
      "type": "0x2",
      "transactionHash": "0x57df8417b15c71bee4b84411840dd8f30497437e3e2ec4b996e27254d6b0b597",
      "transactionIndex": "0x53",
      "blockHash": "0xa8054cc45c5ca66a92321de1a367edc07a388f84a97d201440c24d76aff73f8d",
      "blockNumber": "0x72523a",
      "gasUsed": "0xfb93",
      "effectiveGasPrice": "0x40f5cf844",
      "from": "0xc77f7fed3b5cc8249adc428c5f44c9063b9734b4",
      "to": "0x270e88f8683660553e8ba4eb2ad7c91a1710d769",
      "contractAddress": null
    }
  ],
  "libraries": [],
  "pending": [],
  "returns": {},
  "timestamp": 1736887465,
  "chain": 11155111,
  "commit": "51a374b"
}