{
  "transactions": [
    {
      "hash": "0xc7313c480e61c7c1f1635caedafbaeb78ce8bb890456d12dfef0066d1a45847a",
      "transactionType": "CALL",
      "contractName": null,
      "contractAddress": "0x270e88f8683660553e8ba4eb2ad7c91a1710d769",
      "function": "buy(address)",
      "arguments": [
        "0xC77f7fed3b5Cc8249aDc428c5F44C9063B9734b4"
      ],
      "transaction": {
        "from": "0xc77f7fed3b5cc8249adc428c5f44c9063b9734b4",
        "to": "0x270e88f8683660553e8ba4eb2ad7c91a1710d769",
        "gas": "0x1b30c",
        "value": "0xde0b6b3a7640000",
        "input": "0xf088d547000000000000000000000000c77f7fed3b5cc8249adc428c5f44c9063b9734b4",
        "nonce": "0x6b5",
        "chainId": "0xaa36a7"
      },
      "additionalContracts": [],
      "isFixedGasLimit": false
    }
  ],
  "receipts": [
    {
      "status": "0x1",
      "cumulativeGasUsed": "0xa4cd7a",
      "logs": [
        {
          "address": "0x270e88f8683660553e8ba4eb2ad7c91a1710d769",
          "topics": [
            "0xddf252ad1be2c89b69c2b068fc378daa952ba7f163c4a11628f55a4df523b3ef",
            "0x0000000000000000000000000000000000000000000000000000000000000000",
            "0x000000000000000000000000c77f7fed3b5cc8249adc428c5f44c9063b9734b4"
          ],
          "data": "0x000000000000000000000000000000000000000000000028a4db096756adaab2",
          "blockHash": "0x112f87701a9198ed7a0f15a3e78a1bf2b585ac0657679483ee60e80eb8f780c9",
          "blockNumber": "0x7253be",
          "transactionHash": "0xc7313c480e61c7c1f1635caedafbaeb78ce8bb890456d12dfef0066d1a45847a",
          "transactionIndex": "0x61",
          "logIndex": "0xda",
          "removed": false
        },
        {
          "address": "0x270e88f8683660553e8ba4eb2ad7c91a1710d769",
          "topics": [
            "0xddf252ad1be2c89b69c2b068fc378daa952ba7f163c4a11628f55a4df523b3ef",
            "0x0000000000000000000000000000000000000000000000000000000000000000",
            "0x000000000000000000000000c77f7fed3b5cc8249adc428c5f44c9063b9734b4"
          ],
          "data": "0x0000000000000000000000000000000000000000000000001f8fb9acae44c8bd",
          "blockHash": "0x112f87701a9198ed7a0f15a3e78a1bf2b585ac0657679483ee60e80eb8f780c9",
          "blockNumber": "0x7253be",
          "transactionHash": "0xc7313c480e61c7c1f1635caedafbaeb78ce8bb890456d12dfef0066d1a45847a",
          "transactionIndex": "0x61",
          "logIndex": "0xdb",
          "removed": false
        },
        {
          "address": "0x270e88f8683660553e8ba4eb2ad7c91a1710d769",
          "topics": [
            "0x4afcb4a87cdbd9974efdb92ee48bc8d7cd0ae4bf217004db3d080cbaee652ca7"
          ],
          "data": "0x000000000000000000000000000000000000000000000000000000006786def00000000000000000000000000000000000000000000000000004b10a363b2dcf0000000000000000000000000000000000000000000000000de0b6b3a7640000",
          "blockHash": "0x112f87701a9198ed7a0f15a3e78a1bf2b585ac0657679483ee60e80eb8f780c9",
          "blockNumber": "0x7253be",
          "transactionHash": "0xc7313c480e61c7c1f1635caedafbaeb78ce8bb890456d12dfef0066d1a45847a",
          "transactionIndex": "0x61",
          "logIndex": "0xdc",
          "removed": false
        }
      ],
      "logsBloom": "0x00000000000000000000000000000000000000000000000000000000000000000000000000000000000000000000000020000000000000004000000000000000000000000000000000000008000000000000000000000000000000000000000000000000020000000000000000000800020000000000000000000010000000000000000000010000000000000000000000000000000000000000010000000000000000000000000000000000000000004000000000000000000000000000000000000002000000800000000000000000000000000000080000008000000020000000000000000000000000000000000000000000000000000000000000000000",
      "type": "0x2",
      "transactionHash": "0xc7313c480e61c7c1f1635caedafbaeb78ce8bb890456d12dfef0066d1a45847a",
      "transactionIndex": "0x61",
      "blockHash": "0x112f87701a9198ed7a0f15a3e78a1bf2b585ac0657679483ee60e80eb8f780c9",
      "blockNumber": "0x7253be",
      "gasUsed": "0x13af8",
      "effectiveGasPrice": "0x18ba68750",
      "from": "0xc77f7fed3b5cc8249adc428c5f44c9063b9734b4",
      "to": "0x270e88f8683660553e8ba4eb2ad7c91a1710d769",
      "contractAddress": null
    }
  ],
  "libraries": [],
  "pending": [],
  "returns": {},
  "timestamp": 1736892147,
  "chain": 11155111,
  "commit": "51a374b"
}