{
  "transactions": [
    {
      "hash": "0xc86b90492631835d62dabc37dd2af3905dad5e5a2525cfcdbaba317e67f1bd08",
      "transactionType": "CALL",
      "contractName": null,
      "contractAddress": "0xbf4a322f1496e5c3d34a9bcdb4c60567b38c7de2",
      "function": "buy(address)",
      "arguments": [
        "0xC77f7fed3b5Cc8249aDc428c5F44C9063B9734b4"
      ],
      "transaction": {
        "from": "0xc77f7fed3b5cc8249adc428c5f44c9063b9734b4",
        "to": "0xbf4a322f1496e5c3d34a9bcdb4c60567b38c7de2",
        "gas": "0x1b309",
        "value": "0xde0b6b3a7640000",
        "input": "0xf088d547000000000000000000000000c77f7fed3b5cc8249adc428c5f44c9063b9734b4",
        "nonce": "0xa6a",
        "chainId": "0xaa36a7"
      },
      "additionalContracts": [],
      "isFixedGasLimit": false
    }
  ],
  "receipts": [
    {
      "status": "0x1",
      "cumulativeGasUsed": "0xe59d0a",
      "logs": [
        {
          "address": "0xbf4a322f1496e5c3d34a9bcdb4c60567b38c7de2",
          "topics": [
            "0xddf252ad1be2c89b69c2b068fc378daa952ba7f163c4a11628f55a4df523b3ef",
            "0x0000000000000000000000000000000000000000000000000000000000000000",
            "0x000000000000000000000000c77f7fed3b5cc8249adc428c5f44c9063b9734b4"
          ],
          "data": "0x00000000000000000000000000000000000000000000003547420774a2219642",
          "blockHash": "0x568fe98643977c8e57b15243a6e4f382b2a8074b2e8a58f24c8e15fe114ec1bb",
          "blockNumber": "0x725a47",
          "transactionHash": "0xc86b90492631835d62dabc37dd2af3905dad5e5a2525cfcdbaba317e67f1bd08",
          "transactionIndex": "0x48",
          "logIndex": "0xa1",
          "removed": false
        },
        {
          "address": "0xbf4a322f1496e5c3d34a9bcdb4c60567b38c7de2",
          "topics": [
            "0xddf252ad1be2c89b69c2b068fc378daa952ba7f163c4a11628f55a4df523b3ef",
            "0x0000000000000000000000000000000000000000000000000000000000000000",
            "0x000000000000000000000000c77f7fed3b5cc8249adc428c5f44c9063b9734b4"
          ],
          "data": "0x000000000000000000000000000000000000000000000000295f5958eae17fa8",
          "blockHash": "0x568fe98643977c8e57b15243a6e4f382b2a8074b2e8a58f24c8e15fe114ec1bb",
          "blockNumber": "0x725a47",
          "transactionHash": "0xc86b90492631835d62dabc37dd2af3905dad5e5a2525cfcdbaba317e67f1bd08",
          "transactionIndex": "0x48",
          "logIndex": "0xa2",
          "removed": false
        },
        {
          "address": "0xbf4a322f1496e5c3d34a9bcdb4c60567b38c7de2",
          "topics": [
            "0x4afcb4a87cdbd9974efdb92ee48bc8d7cd0ae4bf217004db3d080cbaee652ca7"
          ],
          "data": "0x0000000000000000000000000000000000000000000000000000000067872da400000000000000000000000000000000000000000000000000039427cd05eb290000000000000000000000000000000000000000000000000de0b6b3a7640000",
          "blockHash": "0x568fe98643977c8e57b15243a6e4f382b2a8074b2e8a58f24c8e15fe114ec1bb",
          "blockNumber": "0x725a47",
          "transactionHash": "0xc86b90492631835d62dabc37dd2af3905dad5e5a2525cfcdbaba317e67f1bd08",
          "transactionIndex": "0x48",
          "logIndex": "0xa3",
          "removed": false
        }
      ],
      "logsBloom": "0x00000000000000000000000000000000000000000000000000000000000000000000000000000000000000000000000000000000000000004000000000000000000000000000000000000008000000000000001000000000000000000000000000000000020000000000000000000800020000000000000000000010000000000000000000000000000000000000000000000000000008000000010000000000000000000000000000000000000000004000000000000000000000000000000000000002000000800000000000001000000000000000080000000000000020000000000000000000000000000000000000000000000000000000000000000000",
      "type": "0x2",
      "transactionHash": "0xc86b90492631835d62dabc37dd2af3905dad5e5a2525cfcdbaba317e67f1bd08",
      "transactionIndex": "0x48",
      "blockHash": "0x568fe98643977c8e57b15243a6e4f382b2a8074b2e8a58f24c8e15fe114ec1bb",
      "blockNumber": "0x725a47",
      "gasUsed": "0x13af6",
      "effectiveGasPrice": "0x3a834f55a",
      "from": "0xc77f7fed3b5cc8249adc428c5f44c9063b9734b4",
      "to": "0xbf4a322f1496e5c3d34a9bcdb4c60567b38c7de2",
      "contractAddress": null
    }
  ],
  "libraries": [],
  "pending": [],
  "returns": {},
  "timestamp": 1736912293,
  "chain": 11155111,
  "commit": "51a374b"
}