{
  "transactions": [
    {
      "hash": "0x9f437f955426eb73af95bb44e4746f8350458ce4c64be660a98e7bc6236127ed",
      "transactionType": "CALL",
      "contractName": null,
      "contractAddress": "0xbf4a322f1496e5c3d34a9bcdb4c60567b38c7de2",
      "function": "buy(address)",
      "arguments": [
        "0xC77f7fed3b5Cc8249aDc428c5F44C9063B9734b4"
      ],
      "transaction": {
        "from": "0xc77f7fed3b5cc8249adc428c5f44c9063b9734b4",
        "to": "0xbf4a322f1496e5c3d34a9bcdb4c60567b38c7de2",
        "gas": "0x1b309",
        "value": "0xde0b6b3a7640000",
        "input": "0xf088d547000000000000000000000000c77f7fed3b5cc8249adc428c5f44c9063b9734b4",
        "nonce": "0xba2",
        "chainId": "0xaa36a7"
      },
      "additionalContracts": [],
      "isFixedGasLimit": false
    }
  ],
  "receipts": [
    {
      "status": "0x1",
      "cumulativeGasUsed": "0x191cf56",
      "logs": [
        {
          "address": "0xbf4a322f1496e5c3d34a9bcdb4c60567b38c7de2",
          "topics": [
            "0xddf252ad1be2c89b69c2b068fc378daa952ba7f163c4a11628f55a4df523b3ef",
            "0x0000000000000000000000000000000000000000000000000000000000000000",
            "0x000000000000000000000000c77f7fed3b5cc8249adc428c5f44c9063b9734b4"
          ],
          "data": "0x0000000000000000000000000000000000000000000000350cdcc793a3a44b4c",
          "blockHash": "0x9b872c7a1efedbb289ab71b646616dff88625b01bcacbede04f7accd4cb1c719",
          "blockNumber": "0x725bb8",
          "transactionHash": "0x9f437f955426eb73af95bb44e4746f8350458ce4c64be660a98e7bc6236127ed",
          "transactionIndex": "0x95",
          "logIndex": "0x119",
          "removed": false
        },
        {
          "address": "0xbf4a322f1496e5c3d34a9bcdb4c60567b38c7de2",
          "topics": [
            "0xddf252ad1be2c89b69c2b068fc378daa952ba7f163c4a11628f55a4df523b3ef",
            "0x0000000000000000000000000000000000000000000000000000000000000000",
            "0x000000000000000000000000c77f7fed3b5cc8249adc428c5f44c9063b9734b4"
          ],
          "data": "0x000000000000000000000000000000000000000000000000293200bec2c50a05",
          "blockHash": "0x9b872c7a1efedbb289ab71b646616dff88625b01bcacbede04f7accd4cb1c719",
          "blockNumber": "0x725bb8",
          "transactionHash": "0x9f437f955426eb73af95bb44e4746f8350458ce4c64be660a98e7bc6236127ed",
          "transactionIndex": "0x95",
          "logIndex": "0x11a",
          "removed": false
        },
        {
          "address": "0xbf4a322f1496e5c3d34a9bcdb4c60567b38c7de2",
          "topics": [
            "0x4afcb4a87cdbd9974efdb92ee48bc8d7cd0ae4bf217004db3d080cbaee652ca7"
          ],
          "data": "0x0000000000000000000000000000000000000000000000000000000067873efc0000000000000000000000000000000000000000000000000003981841bc85fd0000000000000000000000000000000000000000000000000de0b6b3a7640000",
          "blockHash": "0x9b872c7a1efedbb289ab71b646616dff88625b01bcacbede04f7accd4cb1c719",
          "blockNumber": "0x725bb8",
          "transactionHash": "0x9f437f955426eb73af95bb44e4746f8350458ce4c64be660a98e7bc6236127ed",
          "transactionIndex": "0x95",
          "logIndex": "0x11b",
          "removed": false
        }
      ],
      "logsBloom": "0x00000000000000000000000000000000000000000000000000000000000000000000000000000000000000000000000000000000000000004000000000000000000000000000000000000008000000000000001000000000000000000000000000000000020000000000000000000800020000000000000000000010000000000000000000000000000000000000000000000000000008000000010000000000000000000000000000000000000000004000000000000000000000000000000000000002000000800000000000001000000000000000080000000000000020000000000000000000000000000000000000000000000000000000000000000000",
      "type": "0x2",
      "transactionHash": "0x9f437f955426eb73af95bb44e4746f8350458ce4c64be660a98e7bc6236127ed",
      "transactionIndex": "0x95",
      "blockHash": "0x9b872c7a1efedbb289ab71b646616dff88625b01bcacbede04f7accd4cb1c719",
      "blockNumber": "0x725bb8",
      "gasUsed": "0x13af6",
      "effectiveGasPrice": "0x4e07471a",
      "from": "0xc77f7fed3b5cc8249adc428c5f44c9063b9734b4",
      "to": "0xbf4a322f1496e5c3d34a9bcdb4c60567b38c7de2",
      "contractAddress": null
    }
  ],
  "libraries": [],
  "pending": [],
  "returns": {},
  "timestamp": 1736916733,
  "chain": 11155111,
  "commit": "51a374b"
}