{
  "transactions": [
    {
      "hash": "0x7b54e680c911491888df1f3fcbfe7169dae8e4d03bc5138f8b781ca56a93bf2c",
      "transactionType": "CALL",
      "contractName": null,
      "contractAddress": "0x5eb9cc76c3506942c1c0ead70e877dd5e4f00cb0",
      "function": "sell(uint256)",
      "arguments": [
        "989158325839119554724"
      ],
      "transaction": {
        "from": "0xc77f7fed3b5cc8249adc428c5f44c9063b9734b4",
        "to": "0x5eb9cc76c3506942c1c0ead70e877dd5e4f00cb0",
        "gas": "0x16fec",
        "value": "0x0",
        "input": "0xe4849b320000000000000000000000000000000000000000000000359f545090b4d098a4",
        "nonce": "0x293",
        "chainId": "0xaa36a7"
      },
      "additionalContracts": [],
      "isFixedGasLimit": false
    }
  ],
  "receipts": [
    {
      "status": "0x1",
      "cumulativeGasUsed": "0xfc4aed",
      "logs": [
        {
          "address": "0x5eb9cc76c3506942c1c0ead70e877dd5e4f00cb0",
          "topics": [
            "0xddf252ad1be2c89b69c2b068fc378daa952ba7f163c4a11628f55a4df523b3ef",
            "0x000000000000000000000000c77f7fed3b5cc8249adc428c5f44c9063b9734b4",
            "0x0000000000000000000000000000000000000000000000000000000000000000"
          ],
          "data": "0x0000000000000000000000000000000000000000000000359f545090b4d098a4",
          "blockHash": "0x6a3d2329c0f1424d3394418f74495f931aace34e2cfbbf2c62f5dd6640cd4a37",
          "blockNumber": "0x724e67",
          "transactionHash": "0x7b54e680c911491888df1f3fcbfe7169dae8e4d03bc5138f8b781ca56a93bf2c",
          "transactionIndex": "0x69",
          "logIndex": "0xb8",
          "removed": false
        },
        {
          "address": "0x5eb9cc76c3506942c1c0ead70e877dd5e4f00cb0",
          "topics": [
            "0x4afcb4a87cdbd9974efdb92ee48bc8d7cd0ae4bf217004db3d080cbaee652ca7"
          ],
          "data": "0x0000000000000000000000000000000000000000000000000000000067869e8800000000000000000000000000000000000000000000000000039107b063b5890000000000000000000000000000000000000000000000000dc7db13324f3b45",
          "blockHash": "0x6a3d2329c0f1424d3394418f74495f931aace34e2cfbbf2c62f5dd6640cd4a37",
          "blockNumber": "0x724e67",
          "transactionHash": "0x7b54e680c911491888df1f3fcbfe7169dae8e4d03bc5138f8b781ca56a93bf2c",
          "transactionIndex": "0x69",
          "logIndex": "0xb9",
          "removed": false
        }
      ],
      "logsBloom": "0x00000000000000000000000000000000000000000000000000000000000000000000000000000000000000000000000000000000000000004000000000000000000000000000000000000008000000000000000000000000000000000000000000000000020000000000000004000800020000000000000000000010000000000000000000000000000000000000000000000000000000000000010000000000000000000000000000000000000000004000000000000000000000000000020000000002000000800000008000000000000000000000080000000000000020000000000000000000000000000000000000000000000000000000000000000000",
      "type": "0x2",
      "transactionHash": "0x7b54e680c911491888df1f3fcbfe7169dae8e4d03bc5138f8b781ca56a93bf2c",
      "transactionIndex": "0x69",
      "blockHash": "0x6a3d2329c0f1424d3394418f74495f931aace34e2cfbbf2c62f5dd6640cd4a37",
      "blockNumber": "0x724e67",
      "gasUsed": "0xfb93",
      "effectiveGasPrice": "0x44d44732b",
      "from": "0xc77f7fed3b5cc8249adc428c5f44c9063b9734b4",
      "to": "0x5eb9cc76c3506942c1c0ead70e877dd5e4f00cb0",
      "contractAddress": null
    }
  ],
  "libraries": [],
  "pending": [],
  "returns": {},
  "timestamp": 1736875658,
  "chain": 11155111,
  "commit": "51a374b"
}