{
  "transactions": [
    {
      "hash": "0x2deee9d6b297c73b960e283b0e58a59be295be2ce923669708bdc437e218749d",
      "transactionType": "CALL",
      "contractName": null,
      "contractAddress": "0x8aafd3ede9adb0ff97c7aebce82a919afb1c8764",
      "function": "buy(address)",
      "arguments": [
        "0xC77f7fed3b5Cc8249aDc428c5F44C9063B9734b4"
      ],
      "transaction": {
        "from": "0xc77f7fed3b5cc8249adc428c5f44c9063b9734b4",
        "to": "0x8aafd3ede9adb0ff97c7aebce82a919afb1c8764",
        "gas": "0x156ea",
        "value": "0xde0b6b3a7640000",
        "input": "0xf088d547000000000000000000000000c77f7fed3b5cc8249adc428c5f44c9063b9734b4",
        "nonce": "0x128e",
        "chainId": "0xaa36a7"
      },
      "additionalContracts": [],
      "isFixedGasLimit": false
    }
  ],
  "receipts": [
    {
      "status": "0x1",
      "cumulativeGasUsed": "0x9ea42c",
      "logs": [
        {
          "address": "0x8aafd3ede9adb0ff97c7aebce82a919afb1c8764",
          "topics": [
            "0xddf252ad1be2c89b69c2b068fc378daa952ba7f163c4a11628f55a4df523b3ef",
            "0x0000000000000000000000000000000000000000000000000000000000000000",
            "0x000000000000000000000000c77f7fed3b5cc8249adc428c5f44c9063b9734b4"
          ],
          "data": "0x000000000000000000000000000000000000000000000024300a9b7e72dd0812",
          "blockHash": "0xb5d29ffe4de7874ead5a808a33ff4573a35e89e86bf2fcd3ebcdd898149d2c07",
          "blockNumber": "0x73197d",
          "transactionHash": "0x2deee9d6b297c73b960e283b0e58a59be295be2ce923669708bdc437e218749d",
          "transactionIndex": "0x6b",
          "logIndex": "0x9f",
          "removed": false
        },
        {
          "address": "0x8aafd3ede9adb0ff97c7aebce82a919afb1c8764",
          "topics": [
            "0xddf252ad1be2c89b69c2b068fc378daa952ba7f163c4a11628f55a4df523b3ef",
            "0x0000000000000000000000000000000000000000000000000000000000000000",
            "0x000000000000000000000000c77f7fed3b5cc8249adc428c5f44c9063b9734b4"
          ],
          "data": "0x0000000000000000000000000000000000000000000000001c19d81b8008af2d",
          "blockHash": "0xb5d29ffe4de7874ead5a808a33ff4573a35e89e86bf2fcd3ebcdd898149d2c07",
          "blockNumber": "0x73197d",
          "transactionHash": "0x2deee9d6b297c73b960e283b0e58a59be295be2ce923669708bdc437e218749d",
          "transactionIndex": "0x6b",
          "logIndex": "0xa0",
          "removed": false
        },
        {
          "address": "0x8aafd3ede9adb0ff97c7aebce82a919afb1c8764",
          "topics": [
            "0x4afcb4a87cdbd9974efdb92ee48bc8d7cd0ae4bf217004db3d080cbaee652ca7"
          ],
          "data": "0x0000000000000000000000000000000000000000000000000000000067902eac0000000000000000000000000000000000000000000000000005453bdd1f5c110000000000000000000000000000000000000000000000000de0b6b3a7640000",
          "blockHash": "0xb5d29ffe4de7874ead5a808a33ff4573a35e89e86bf2fcd3ebcdd898149d2c07",
          "blockNumber": "0x73197d",
          "transactionHash": "0x2deee9d6b297c73b960e283b0e58a59be295be2ce923669708bdc437e218749d",
          "transactionIndex": "0x6b",
          "logIndex": "0xa1",
          "removed": false
        }
      ],
      "logsBloom": "0x00000000000000000000000000000000000000000600000000000000000000000000000000000000000000000000000000000000000000004000000000000000000000000000004000000008000000000000000000000000000000000000000000000000020000000000000000000800020000000000000000000010000000000000000000000000000000000000000000000000000000000000010000000000000000000000000000000000000000004000000000000000000000000000000000000002000000800000000000000000000000000000080000000000000020000000000000000000000000000000000000000000000000000000000000000000",
      "type": "0x2",
      "transactionHash": "0x2deee9d6b297c73b960e283b0e58a59be295be2ce923669708bdc437e218749d",
      "transactionIndex": "0x6b",
      "blockHash": "0xb5d29ffe4de7874ead5a808a33ff4573a35e89e86bf2fcd3ebcdd898149d2c07",
      "blockNumber": "0x73197d",
      "gasUsed": "0xf844",
      "effectiveGasPrice": "0x431eb726",
      "from": "0xc77f7fed3b5cc8249adc428c5f44c9063b9734b4",
      "to": "0x8aafd3ede9adb0ff97c7aebce82a919afb1c8764",
      "contractAddress": null
    }
  ],
  "libraries": [],
  "pending": [],
  "returns": {},
  "timestamp": 1737502381,
  "chain": 11155111,
  "commit": "1d2fb70"
}