{
  "transactions": [
    {
      "hash": "0xfd00650df9162f11f9acc5fb7794744352baa60940d50982e0acc09c98bd2b15",
      "transactionType": "CALL",
      "contractName": null,
      "contractAddress": "0x8aafd3ede9adb0ff97c7aebce82a919afb1c8764",
      "function": "sell(uint256)",
      "arguments": [
        "1570867"
      ],
      "transaction": {
        "from": "0xc77f7fed3b5cc8249adc428c5f44c9063b9734b4",
        "to": "0x8aafd3ede9adb0ff97c7aebce82a919afb1c8764",
        "gas": "0x16208",
        "value": "0x0",
        "input": "0xe4849b32000000000000000000000000000000000000000000000000000000000017f833",
        "nonce": "0xe85",
        "chainId": "0xaa36a7"
      },
      "additionalContracts": [],
      "isFixedGasLimit": false
    }
  ],
  "receipts": [
    {
      "status": "0x1",
      "cumulativeGasUsed": "0x120d4c6",
      "logs": [
        {
          "address": "0x8aafd3ede9adb0ff97c7aebce82a919afb1c8764",
          "topics": [
            "0xddf252ad1be2c89b69c2b068fc378daa952ba7f163c4a11628f55a4df523b3ef",
            "0x000000000000000000000000c77f7fed3b5cc8249adc428c5f44c9063b9734b4",
            "0x0000000000000000000000000000000000000000000000000000000000000000"
          ],
          "data": "0x000000000000000000000000000000000000000000000000000000000017c71d",
          "blockHash": "0x5bb1bc35d491db25a8f07e483bc9a8065f5575b03ebbff9f26429911ec59f2f4",
          "blockNumber": "0x7313e1",
          "transactionHash": "0xfd00650df9162f11f9acc5fb7794744352baa60940d50982e0acc09c98bd2b15",
          "transactionIndex": "0xb3",
          "logIndex": "0x11f",
          "removed": false
        },
        {
          "address": "0x8aafd3ede9adb0ff97c7aebce82a919afb1c8764",
          "topics": [
            "0xddf252ad1be2c89b69c2b068fc378daa952ba7f163c4a11628f55a4df523b3ef",
            "0x000000000000000000000000c77f7fed3b5cc8249adc428c5f44c9063b9734b4",
            "0x000000000000000000000000c77f7fed3b5cc8249adc428c5f44c9063b9734b4"
          ],
          "data": "0x0000000000000000000000000000000000000000000000000000000000003116",
          "blockHash": "0x5bb1bc35d491db25a8f07e483bc9a8065f5575b03ebbff9f26429911ec59f2f4",
          "blockNumber": "0x7313e1",
          "transactionHash": "0xfd00650df9162f11f9acc5fb7794744352baa60940d50982e0acc09c98bd2b15",
          "transactionIndex": "0xb3",
          "logIndex": "0x120",
          "removed": false
        },
        {
          "address": "0x8aafd3ede9adb0ff97c7aebce82a919afb1c8764",
          "topics": [
            "0x4afcb4a87cdbd9974efdb92ee48bc8d7cd0ae4bf217004db3d080cbaee652ca7"
          ],
          "data": "0x00000000000000000000000000000000000000000000000000000000678feb200000000000000000000000000000000000000000000000000004b61edc0cf9ee0000000000000000000000000000000000000000000000000000000000000823",
          "blockHash": "0x5bb1bc35d491db25a8f07e483bc9a8065f5575b03ebbff9f26429911ec59f2f4",
          "blockNumber": "0x7313e1",
          "transactionHash": "0xfd00650df9162f11f9acc5fb7794744352baa60940d50982e0acc09c98bd2b15",
          "transactionIndex": "0xb3",
          "logIndex": "0x121",
          "removed": false
        }
      ],
      "logsBloom": "0x00000000000000000000000000000000000000000600000000000000000000000000000000000000000000000000000000000000000000004000000000000000000000000000004000000008000000000000000000000000000000000000000000000000020000000000000000000800020000000000000000000010000000000000000000000000000000000000000000000000000000000000010000000000000000000000000000000000000000004000000000000000000000000000000000000002000000800000000000000000000000000000080000000000000020000000000000000000000000000000000000000000000000000000000000000000",
      "type": "0x2",
      "transactionHash": "0xfd00650df9162f11f9acc5fb7794744352baa60940d50982e0acc09c98bd2b15",
      "transactionIndex": "0xb3",
      "blockHash": "0x5bb1bc35d491db25a8f07e483bc9a8065f5575b03ebbff9f26429911ec59f2f4",
      "blockNumber": "0x7313e1",
      "gasUsed": "0xf213",
      "effectiveGasPrice": "0x6e0d8377",
      "from": "0xc77f7fed3b5cc8249adc428c5f44c9063b9734b4",
      "to": "0x8aafd3ede9adb0ff97c7aebce82a919afb1c8764",
      "contractAddress": null
    }
  ],
  "libraries": [],
  "pending": [],
  "returns": {},
  "timestamp": 1737485089,
  "chain": 11155111,
  "commit": "51a374b"
}