{
  "transactions": [
    {
      "hash": "0xd54be49306ee411f8fde239dfdf43df04d5ecb530baefe388e93b8f2d6270b60",
      "transactionType": "CALL",
      "contractName": null,
      "contractAddress": "0x8aafd3ede9adb0ff97c7aebce82a919afb1c8764",
      "function": "buy(address)",
      "arguments": [
        "0xC77f7fed3b5Cc8249aDc428c5F44C9063B9734b4"
      ],
      "transaction": {
        "from": "0xc77f7fed3b5cc8249adc428c5f44c9063b9734b4",
        "to": "0x8aafd3ede9adb0ff97c7aebce82a919afb1c8764",
        "gas": "0x156ea",
        "value": "0xde0b6b3a7640000",
        "input": "0xf088d547000000000000000000000000c77f7fed3b5cc8249adc428c5f44c9063b9734b4",
        "nonce": "0x1180",
        "chainId": "0xaa36a7"
      },
      "additionalContracts": [],
      "isFixedGasLimit": false
    }
  ],
  "receipts": [
    {
      "status": "0x1",
      "cumulativeGasUsed": "0xa09396",
      "logs": [
        {
          "address": "0x8aafd3ede9adb0ff97c7aebce82a919afb1c8764",
          "topics": [
            "0xddf252ad1be2c89b69c2b068fc378daa952ba7f163c4a11628f55a4df523b3ef",
            "0x0000000000000000000000000000000000000000000000000000000000000000",
            "0x000000000000000000000000c77f7fed3b5cc8249adc428c5f44c9063b9734b4"
          ],
          "data": "0x00000000000000000000000000000000000000000000002545926cc7d9d9864d",
          "blockHash": "0x8913b67f9a88f1654228723aa9cc0e1c8d498f3de69ee84640e68c4b3feca023",
          "blockNumber": "0x731842",
          "transactionHash": "0xd54be49306ee411f8fde239dfdf43df04d5ecb530baefe388e93b8f2d6270b60",
          "transactionIndex": "0x7b",
          "logIndex": "0x7f",
          "removed": false
        },
        {
          "address": "0x8aafd3ede9adb0ff97c7aebce82a919afb1c8764",
          "topics": [
            "0xddf252ad1be2c89b69c2b068fc378daa952ba7f163c4a11628f55a4df523b3ef",
            "0x0000000000000000000000000000000000000000000000000000000000000000",
            "0x000000000000000000000000c77f7fed3b5cc8249adc428c5f44c9063b9734b4"
          ],
          "data": "0x0000000000000000000000000000000000000000000000001cf15b2941fd99ac",
          "blockHash": "0x8913b67f9a88f1654228723aa9cc0e1c8d498f3de69ee84640e68c4b3feca023",
          "blockNumber": "0x731842",
          "transactionHash": "0xd54be49306ee411f8fde239dfdf43df04d5ecb530baefe388e93b8f2d6270b60",
          "transactionIndex": "0x7b",
          "logIndex": "0x80",
          "removed": false
        },
        {
          "address": "0x8aafd3ede9adb0ff97c7aebce82a919afb1c8764",
          "topics": [
            "0x4afcb4a87cdbd9974efdb92ee48bc8d7cd0ae4bf217004db3d080cbaee652ca7"
          ],
          "data": "0x0000000000000000000000000000000000000000000000000000000067901fdc00000000000000000000000000000000000000000000000000051e00355b1a980000000000000000000000000000000000000000000000000de0b6b3a7640000",
          "blockHash": "0x8913b67f9a88f1654228723aa9cc0e1c8d498f3de69ee84640e68c4b3feca023",
          "blockNumber": "0x731842",
          "transactionHash": "0xd54be49306ee411f8fde239dfdf43df04d5ecb530baefe388e93b8f2d6270b60",
          "transactionIndex": "0x7b",
          "logIndex": "0x81",
          "removed": false
        }
      ],
      "logsBloom": "0x00000000000000000000000000000000000000000600000000000000000000000000000000000000000000000000000000000000000000004000000000000000000000000000004000000008000000000000000000000000000000000000000000000000020000000000000000000800020000000000000000000010000000000000000000000000000000000000000000000000000000000000010000000000000000000000000000000000000000004000000000000000000000000000000000000002000000800000000000000000000000000000080000000000000020000000000000000000000000000000000000000000000000000000000000000000",
      "type": "0x2",
      "transactionHash": "0xd54be49306ee411f8fde239dfdf43df04d5ecb530baefe388e93b8f2d6270b60",
      "transactionIndex": "0x7b",
      "blockHash": "0x8913b67f9a88f1654228723aa9cc0e1c8d498f3de69ee84640e68c4b3feca023",
      "blockNumber": "0x731842",
      "gasUsed": "0xf844",
      "effectiveGasPrice": "0x48cfe585",
      "from": "0xc77f7fed3b5cc8249adc428c5f44c9063b9734b4",
      "to": "0x8aafd3ede9adb0ff97c7aebce82a919afb1c8764",
      "contractAddress": null
    }
  ],
  "libraries": [],
  "pending": [],
  "returns": {},
  "timestamp": 1737498589,
  "chain": 11155111,
  "commit": "1d2fb70"
}