{
  "transactions": [
    {
      "hash": "0x657bd8c75a793520bd6e94774347590fd568611af0614689bbfdc95f7757971d",
      "transactionType": "CALL",
      "contractName": null,
      "contractAddress": "0xbf4a322f1496e5c3d34a9bcdb4c60567b38c7de2",
      "function": "sell(uint256)",
      "arguments": [
        "982084821415355935618"
      ],
      "transaction": {
        "from": "0xc77f7fed3b5cc8249adc428c5f44c9063b9734b4",
        "to": "0xbf4a322f1496e5c3d34a9bcdb4c60567b38c7de2",
        "gas": "0x16fea",
        "value": "0x0",
        "input": "0xe4849b320000000000000000000000000000000000000000000000353d2a2dc4d53aeb82",
        "nonce": "0xb7d",
        "chainId": "0xaa36a7"
      },
      "additionalContracts": [],
      "isFixedGasLimit": false
    }
  ],
  "receipts": [
    {
      "status": "0x1",
      "cumulativeGasUsed": "0xb91966",
      "logs": [
        {
          "address": "0xbf4a322f1496e5c3d34a9bcdb4c60567b38c7de2",
          "topics": [
            "0xddf252ad1be2c89b69c2b068fc378daa952ba7f163c4a11628f55a4df523b3ef",
            "0x000000000000000000000000c77f7fed3b5cc8249adc428c5f44c9063b9734b4",
            "0x0000000000000000000000000000000000000000000000000000000000000000"
          ],
          "data": "0x0000000000000000000000000000000000000000000000353d2a2dc4d53aeb82",
          "blockHash": "0x4809c6d5c812df74492c66d5b9f9d50e90b82f7bb90cf39149f89dc80bbcf0c8",
          "blockNumber": "0x725b8b",
          "transactionHash": "0x657bd8c75a793520bd6e94774347590fd568611af0614689bbfdc95f7757971d",
          "transactionIndex": "0x54",
          "logIndex": "0x85",
          "removed": false
        },
        {
          "address": "0xbf4a322f1496e5c3d34a9bcdb4c60567b38c7de2",
          "topics": [
            "0x4afcb4a87cdbd9974efdb92ee48bc8d7cd0ae4bf217004db3d080cbaee652ca7"
          ],
          "data": "0x0000000000000000000000000000000000000000000000000000000067873ce0000000000000000000000000000000000000000000000000000397a1916e4ba00000000000000000000000000000000000000000000000000dc7e3e6e9e07abe",
          "blockHash": "0x4809c6d5c812df74492c66d5b9f9d50e90b82f7bb90cf39149f89dc80bbcf0c8",
          "blockNumber": "0x725b8b",
          "transactionHash": "0x657bd8c75a793520bd6e94774347590fd568611af0614689bbfdc95f7757971d",
          "transactionIndex": "0x54",
          "logIndex": "0x86",
          "removed": false
        }
      ],
      "logsBloom": "0x00000000000000000000000000000000000000000000000000000000000000000000000000000000000000000000000000000000000000004000000000000000000000000000000000000008000000000000001000000000000000000000000000000000020000000000000000000800020000000000000000000010000000000000000000000000000000000000000000000000000008000000010000000000000000000000000000000000000000004000000000000000000000000000000000000002000000800000000000001000000000000000080000000000000020000000000000000000000000000000000000000000000000000000000000000000",
      "type": "0x2",
      "transactionHash": "0x657bd8c75a793520bd6e94774347590fd568611af0614689bbfdc95f7757971d",
      "transactionIndex": "0x54",
      "blockHash": "0x4809c6d5c812df74492c66d5b9f9d50e90b82f7bb90cf39149f89dc80bbcf0c8",
      "blockNumber": "0x725b8b",
      "gasUsed": "0xfb91",
      "effectiveGasPrice": "0x3ffda2a3",
      "from": "0xc77f7fed3b5cc8249adc428c5f44c9063b9734b4",
      "to": "0xbf4a322f1496e5c3d34a9bcdb4c60567b38c7de2",
      "contractAddress": null
    }
  ],
  "libraries": [],
  "pending": [],
  "returns": {},
  "timestamp": 1736916194,
  "chain": 11155111,
  "commit": "51a374b"
}