{
  "transactions": [
    {
      "hash": "0x9082e961ea2be655f1bcb62faa228a0628c837ee3e158067e8682a8dcf1d16bb",
      "transactionType": "CALL",
      "contractName": null,
      "contractAddress": "0x5eb9cc76c3506942c1c0ead70e877dd5e4f00cb0",
      "function": "sell(uint256)",
      "arguments": [
        "989122309048497995993"
      ],
      "transaction": {
        "from": "0xc77f7fed3b5cc8249adc428c5f44c9063b9734b4",
        "to": "0x5eb9cc76c3506942c1c0ead70e877dd5e4f00cb0",
        "gas": "0x15b6b",
        "value": "0x0",
        "input": "0xe4849b320000000000000000000000000000000000000000000000359ed45b7c29de00d9",
        "nonce": "0x375",
        "chainId": "0xaa36a7"
      },
      "additionalContracts": [],
      "isFixedGasLimit": false
    }
  ],
  "receipts": [
    {
      "status": "0x1",
      "cumulativeGasUsed": "0x103bef0",
      "logs": [
        {
          "address": "0x5eb9cc76c3506942c1c0ead70e877dd5e4f00cb0",
          "topics": [
            "0xddf252ad1be2c89b69c2b068fc378daa952ba7f163c4a11628f55a4df523b3ef",
            "0x000000000000000000000000c77f7fed3b5cc8249adc428c5f44c9063b9734b4",
            "0x0000000000000000000000000000000000000000000000000000000000000000"
          ],
          "data": "0x0000000000000000000000000000000000000000000000359ed45b7c29de00d9",
          "blockHash": "0xf38e26cbe9d0e48ffd00f6ea3da4abb32eb17ab974696df9dc53aad6ac3374b9",
          "blockNumber": "0x724f6d",
          "transactionHash": "0x9082e961ea2be655f1bcb62faa228a0628c837ee3e158067e8682a8dcf1d16bb",
          "transactionIndex": "0x53",
          "logIndex": "0xe5",
          "removed": false
        },
        {
          "address": "0x5eb9cc76c3506942c1c0ead70e877dd5e4f00cb0",
          "topics": [
            "0x4afcb4a87cdbd9974efdb92ee48bc8d7cd0ae4bf217004db3d080cbaee652ca7"
          ],
          "data": "0x000000000000000000000000000000000000000000000000000000006786aad0000000000000000000000000000000000000000000000000000391103333b91b0000000000000000000000000000000000000000000000000dc7db13320f24f3",
          "blockHash": "0xf38e26cbe9d0e48ffd00f6ea3da4abb32eb17ab974696df9dc53aad6ac3374b9",
          "blockNumber": "0x724f6d",
          "transactionHash": "0x9082e961ea2be655f1bcb62faa228a0628c837ee3e158067e8682a8dcf1d16bb",
          "transactionIndex": "0x53",
          "logIndex": "0xe6",
          "removed": false
        }
      ],
      "logsBloom": "0x00000000000000000000000000000000000000000000000000000000000000000000000000000000000000000000000000000000000000004000000000000000000000000000000000000008000000000000000000000000000000000000000000000000020000000000000004000800020000000000000000000010000000000000000000000000000000000000000000000000000000000000010000000000000000000000000000000000000000004000000000000000000000000000020000000002000000800000008000000000000000000000080000000000000020000000000000000000000000000000000000000000000000000000000000000000",
      "type": "0x2",
      "transactionHash": "0x9082e961ea2be655f1bcb62faa228a0628c837ee3e158067e8682a8dcf1d16bb",
      "transactionIndex": "0x53",
      "blockHash": "0xf38e26cbe9d0e48ffd00f6ea3da4abb32eb17ab974696df9dc53aad6ac3374b9",
      "blockNumber": "0x724f6d",
      "gasUsed": "0xfb87",
      "effectiveGasPrice": "0x5df51d38f",
      "from": "0xc77f7fed3b5cc8249adc428c5f44c9063b9734b4",
      "to": "0x5eb9cc76c3506942c1c0ead70e877dd5e4f00cb0",
      "contractAddress": null
    }
  ],
  "libraries": [],
  "pending": [],
  "returns": {},
  "timestamp": 1736878801,
  "chain": 11155111,
  "commit": "51a374b"
}