{
  "transactions": [
    {
      "hash": "0xb09bd39ffad2fe5f2f4538c21c69bbf6b6234771603725c4f61a2ecb643204c6",
      "transactionType": "CALL",
      "contractName": null,
      "contractAddress": "0x8aafd3ede9adb0ff97c7aebce82a919afb1c8764",
      "function": "sell(uint256)",
      "arguments": [
        "309526"
      ],
      "transaction": {
        "from": "0xc77f7fed3b5cc8249adc428c5f44c9063b9734b4",
        "to": "0x8aafd3ede9adb0ff97c7aebce82a919afb1c8764",
        "gas": "0x16208",
        "value": "0x0",
        "input": "0xe4849b32000000000000000000000000000000000000000000000000000000000004b916",
        "nonce": "0x1758",
        "chainId": "0xaa36a7"
      },
      "additionalContracts": [],
      "isFixedGasLimit": false
    }
  ],
  "receipts": [
    {
      "status": "0x1",
      "cumulativeGasUsed": "0xa44288",
      "logs": [
        {
          "address": "0x8aafd3ede9adb0ff97c7aebce82a919afb1c8764",
          "topics": [
            "0xddf252ad1be2c89b69c2b068fc378daa952ba7f163c4a11628f55a4df523b3ef",
            "0x000000000000000000000000c77f7fed3b5cc8249adc428c5f44c9063b9734b4",
            "0x0000000000000000000000000000000000000000000000000000000000000000"
          ],
          "data": "0x000000000000000000000000000000000000000000000000000000000004af6a",
          "blockHash": "0x9de14c1d2b10f6b7b546fc162986c5a865e6f3619b5a26fb6a801df0733266d7",
          "blockNumber": "0x731f29",
          "transactionHash": "0xb09bd39ffad2fe5f2f4538c21c69bbf6b6234771603725c4f61a2ecb643204c6",
          "transactionIndex": "0x55",
          "logIndex": "0x90",
          "removed": false
        },
        {
          "address": "0x8aafd3ede9adb0ff97c7aebce82a919afb1c8764",
          "topics": [
            "0xddf252ad1be2c89b69c2b068fc378daa952ba7f163c4a11628f55a4df523b3ef",
            "0x000000000000000000000000c77f7fed3b5cc8249adc428c5f44c9063b9734b4",
            "0x000000000000000000000000c77f7fed3b5cc8249adc428c5f44c9063b9734b4"
          ],
          "data": "0x00000000000000000000000000000000000000000000000000000000000009ac",
          "blockHash": "0x9de14c1d2b10f6b7b546fc162986c5a865e6f3619b5a26fb6a801df0733266d7",
          "blockNumber": "0x731f29",
          "transactionHash": "0xb09bd39ffad2fe5f2f4538c21c69bbf6b6234771603725c4f61a2ecb643204c6",
          "transactionIndex": "0x55",
          "logIndex": "0x91",
          "removed": false
        },
        {
          "address": "0x8aafd3ede9adb0ff97c7aebce82a919afb1c8764",
          "topics": [
            "0x4afcb4a87cdbd9974efdb92ee48bc8d7cd0ae4bf217004db3d080cbaee652ca7"
          ],
          "data": "0x00000000000000000000000000000000000000000000000000000000679072d4000000000000000000000000000000000000000000000000001802025906c94b000000000000000000000000000000000000000000000000000000000000082b",
          "blockHash": "0x9de14c1d2b10f6b7b546fc162986c5a865e6f3619b5a26fb6a801df0733266d7",
          "blockNumber": "0x731f29",
          "transactionHash": "0xb09bd39ffad2fe5f2f4538c21c69bbf6b6234771603725c4f61a2ecb643204c6",
          "transactionIndex": "0x55",
          "logIndex": "0x92",
          "removed": false
        }
      ],
      "logsBloom": "0x00000000000000000000000000000000000000000600000000000000000000000000000000000000000000000000000000000000000000004000000000000000000000000000004000000008000000000000000000000000000000000000000000000000020000000000000000000800020000000000000000000010000000000000000000000000000000000000000000000000000000000000010000000000000000000000000000000000000000004000000000000000000000000000000000000002000000800000000000000000000000000000080000000000000020000000000000000000000000000000000000000000000000000000000000000000",
      "type": "0x2",
      "transactionHash": "0xb09bd39ffad2fe5f2f4538c21c69bbf6b6234771603725c4f61a2ecb643204c6",
      "transactionIndex": "0x55",
      "blockHash": "0x9de14c1d2b10f6b7b546fc162986c5a865e6f3619b5a26fb6a801df0733266d7",
      "blockNumber": "0x731f29",
      "gasUsed": "0xf213",
      "effectiveGasPrice": "0x3cc2900b",
      "from": "0xc77f7fed3b5cc8249adc428c5f44c9063b9734b4",
      "to": "0x8aafd3ede9adb0ff97c7aebce82a919afb1c8764",
      "contractAddress": null
    }
  ],
  "libraries": [],
  "pending": [],
  "returns": {},
  "timestamp": 1737519830,
  "chain": 11155111,
  "commit": "1d2fb70"
}