{
  "transactions": [
    {
      "hash": "0x58eecafa6f9c51296019bcbce177f9341ae1ebd55dd4a8742018d747ac339f91",
      "transactionType": "CALL",
      "contractName": null,
      "contractAddress": "0x8aafd3ede9adb0ff97c7aebce82a919afb1c8764",
      "function": "sell(uint256)",
      "arguments": [
        "1095630027849"
      ],
      "transaction": {
        "from": "0xc77f7fed3b5cc8249adc428c5f44c9063b9734b4",
        "to": "0x8aafd3ede9adb0ff97c7aebce82a919afb1c8764",
        "gas": "0x1722a",
        "value": "0x0",
        "input": "0xe4849b32000000000000000000000000000000000000000000000000000000ff18a37c49",
        "nonce": "0x13b6",
        "chainId": "0xaa36a7"
      },
      "additionalContracts": [],
      "isFixedGasLimit": false
    }
  ],
  "receipts": [
    {
      "status": "0x1",
      "cumulativeGasUsed": "0x928316",
      "logs": [
        {
          "address": "0x8aafd3ede9adb0ff97c7aebce82a919afb1c8764",
          "topics": [
            "0xddf252ad1be2c89b69c2b068fc378daa952ba7f163c4a11628f55a4df523b3ef",
            "0x000000000000000000000000c77f7fed3b5cc8249adc428c5f44c9063b9734b4",
            "0x0000000000000000000000000000000000000000000000000000000000000000"
          ],
          "data": "0x000000000000000000000000000000000000000000000000000000fd0e3395eb",
          "blockHash": "0x3f25a561a6d10b1e123c41485dabda52a7afef49e777b4081dcc33118533d3dc",
          "blockNumber": "0x731ae0",
          "transactionHash": "0x58eecafa6f9c51296019bcbce177f9341ae1ebd55dd4a8742018d747ac339f91",
          "transactionIndex": "0x2d",
          "logIndex": "0x35",
          "removed": false
        },
        {
          "address": "0x8aafd3ede9adb0ff97c7aebce82a919afb1c8764",
          "topics": [
            "0xddf252ad1be2c89b69c2b068fc378daa952ba7f163c4a11628f55a4df523b3ef",
            "0x000000000000000000000000c77f7fed3b5cc8249adc428c5f44c9063b9734b4",
            "0x000000000000000000000000c77f7fed3b5cc8249adc428c5f44c9063b9734b4"
          ],
          "data": "0x000000000000000000000000000000000000000000000000000000020a6fe65e",
          "blockHash": "0x3f25a561a6d10b1e123c41485dabda52a7afef49e777b4081dcc33118533d3dc",
          "blockNumber": "0x731ae0",
          "transactionHash": "0x58eecafa6f9c51296019bcbce177f9341ae1ebd55dd4a8742018d747ac339f91",
          "transactionIndex": "0x2d",
          "logIndex": "0x36",
          "removed": false
        },
        {
          "address": "0x8aafd3ede9adb0ff97c7aebce82a919afb1c8764",
          "topics": [
            "0x4afcb4a87cdbd9974efdb92ee48bc8d7cd0ae4bf217004db3d080cbaee652ca7"
          ],
          "data": "0x0000000000000000000000000000000000000000000000000000000067903f50000000000000000000000000000000000000000000000000000d4a829722ecf900000000000000000000000000000000000000000000000000000000f44fa752",
          "blockHash": "0x3f25a561a6d10b1e123c41485dabda52a7afef49e777b4081dcc33118533d3dc",
          "blockNumber": "0x731ae0",
          "transactionHash": "0x58eecafa6f9c51296019bcbce177f9341ae1ebd55dd4a8742018d747ac339f91",
          "transactionIndex": "0x2d",
          "logIndex": "0x37",
          "removed": false
        }
      ],
      "logsBloom": "0x00000000000000000000000000000000000000000600000000000000000000000000000000000000000000000000000000000000000000004000000000000000000000000000004000000008000000000000000000000000000000000000000000000000020000000000000000000800020000000000000000000010000000000000000000000000000000000000000000000000000000000000010000000000000000000000000000000000000000004000000000000000000000000000000000000002000000800000000000000000000000000000080000000000000020000000000000000000000000000000000000000000000000000000000000000000",
      "type": "0x2",
      "transactionHash": "0x58eecafa6f9c51296019bcbce177f9341ae1ebd55dd4a8742018d747ac339f91",
      "transactionIndex": "0x2d",
      "blockHash": "0x3f25a561a6d10b1e123c41485dabda52a7afef49e777b4081dcc33118533d3dc",
      "blockNumber": "0x731ae0",
      "gasUsed": "0xfd1b",
      "effectiveGasPrice": "0x825802be",
      "from": "0xc77f7fed3b5cc8249adc428c5f44c9063b9734b4",
      "to": "0x8aafd3ede9adb0ff97c7aebce82a919afb1c8764",
      "contractAddress": null
    }
  ],
  "libraries": [],
  "pending": [],
  "returns": {},
  "timestamp": 1737506641,
  "chain": 11155111,
  "commit": "1d2fb70"
}