{
  "transactions": [
    {
      "hash": "0x7e4fa9063b9b77db066a7bd0f9575bb451437076f52fd851bd0ef3c930abeeb3",
      "transactionType": "CALL",
      "contractName": null,
      "contractAddress": "0x270e88f8683660553e8ba4eb2ad7c91a1710d769",
      "function": "buy(address)",
      "arguments": [
        "0xC77f7fed3b5Cc8249aDc428c5F44C9063B9734b4"
      ],
      "transaction": {
        "from": "0xc77f7fed3b5cc8249adc428c5f44c9063b9734b4",
        "to": "0x270e88f8683660553e8ba4eb2ad7c91a1710d769",
        "gas": "0x1b30c",
        "value": "0xde0b6b3a7640000",
        "input": "0xf088d547000000000000000000000000c77f7fed3b5cc8249adc428c5f44c9063b9734b4",
        "nonce": "0x54a",
        "chainId": "0xaa36a7"
      },
      "additionalContracts": [],
      "isFixedGasLimit": false
    }
  ],
  "receipts": [
    {
      "status": "0x1",
      "cumulativeGasUsed": "0x222779a",
      "logs": [
        {
          "address": "0x270e88f8683660553e8ba4eb2ad7c91a1710d769",
          "topics": [
            "0xddf252ad1be2c89b69c2b068fc378daa952ba7f163c4a11628f55a4df523b3ef",
            "0x0000000000000000000000000000000000000000000000000000000000000000",
            "0x000000000000000000000000c77f7fed3b5cc8249adc428c5f44c9063b9734b4"
          ],
          "data": "0x000000000000000000000000000000000000000000000034ab1ed0876e098c03",
          "blockHash": "0xf3cd6ba8a8af5d846811bf7120313e7ebc3d0d2cbeaeeb989252ff78c3d95d16",
          "blockNumber": "0x7251e8",
          "transactionHash": "0x7e4fa9063b9b77db066a7bd0f9575bb451437076f52fd851bd0ef3c930abeeb3",
          "transactionIndex": "0xd1",
          "logIndex": "0x1c9",
          "removed": false
        },
        {
          "address": "0x270e88f8683660553e8ba4eb2ad7c91a1710d769",
          "topics": [
            "0xddf252ad1be2c89b69c2b068fc378daa952ba7f163c4a11628f55a4df523b3ef",
            "0x0000000000000000000000000000000000000000000000000000000000000000",
            "0x000000000000000000000000c77f7fed3b5cc8249adc428c5f44c9063b9734b4"
          ],
          "data": "0x00000000000000000000000000000000000000000000000028e61a55f8262c1c",
          "blockHash": "0xf3cd6ba8a8af5d846811bf7120313e7ebc3d0d2cbeaeeb989252ff78c3d95d16",
          "blockNumber": "0x7251e8",
          "transactionHash": "0x7e4fa9063b9b77db066a7bd0f9575bb451437076f52fd851bd0ef3c930abeeb3",
          "transactionIndex": "0xd1",
          "logIndex": "0x1ca",
          "removed": false
        },
        {
          "address": "0x270e88f8683660553e8ba4eb2ad7c91a1710d769",
          "topics": [
            "0x4afcb4a87cdbd9974efdb92ee48bc8d7cd0ae4bf217004db3d080cbaee652ca7"
          ],
          "data": "0x000000000000000000000000000000000000000000000000000000006786c8d000000000000000000000000000000000000000000000000000039edc240962150000000000000000000000000000000000000000000000000de0b6b3a7640000",
          "blockHash": "0xf3cd6ba8a8af5d846811bf7120313e7ebc3d0d2cbeaeeb989252ff78c3d95d16",
          "blockNumber": "0x7251e8",
          "transactionHash": "0x7e4fa9063b9b77db066a7bd0f9575bb451437076f52fd851bd0ef3c930abeeb3",
          "transactionIndex": "0xd1",
          "logIndex": "0x1cb",
          "removed": false
        }
      ],
      "logsBloom": "0x00000000000000000000000000000000000000000000000000000000000000000000000000000000000000000000000020000000000000004000000000000000000000000000000000000008000000000000000000000000000000000000000000000000020000000000000000000800020000000000000000000010000000000000000000010000000000000000000000000000000000000000010000000000000000000000000000000000000000004000000000000000000000000000000000000002000000800000000000000000000000000000080000008000000020000000000000000000000000000000000000000000000000000000000000000000",
      "type": "0x2",
      "transactionHash": "0x7e4fa9063b9b77db066a7bd0f9575bb451437076f52fd851bd0ef3c930abeeb3",
      "transactionIndex": "0xd1",
      "blockHash": "0xf3cd6ba8a8af5d846811bf7120313e7ebc3d0d2cbeaeeb989252ff78c3d95d16",
      "blockNumber": "0x7251e8",
      "gasUsed": "0x13af8",
      "effectiveGasPrice": "0x3a3877457",
      "from": "0xc77f7fed3b5cc8249adc428c5f44c9063b9734b4",
      "to": "0x270e88f8683660553e8ba4eb2ad7c91a1710d769",
      "contractAddress": null
    }
  ],
  "libraries": [],
  "pending": [],
  "returns": {},
  "timestamp": 1736886481,
  "chain": 11155111,
  "commit": "51a374b"
}