{
  "transactions": [
    {
      "hash": "0xe743b864096e558ef80f3f8c6be8801c71dafa17cf5400038cc5e77877fccf10",
      "transactionType": "CALL",
      "contractName": null,
      "contractAddress": "0xbf4a322f1496e5c3d34a9bcdb4c60567b38c7de2",
      "function": "sell(uint256)",
      "arguments": [
        "972974206776727320678"
      ],
      "transaction": {
        "from": "0xc77f7fed3b5cc8249adc428c5f44c9063b9734b4",
        "to": "0xbf4a322f1496e5c3d34a9bcdb4c60567b38c7de2",
        "gas": "0x16fea",
        "value": "0x0",
        "input": "0xe4849b32000000000000000000000000000000000000000000000034bebac606704c3866",
        "nonce": "0xe27",
        "chainId": "0xaa36a7"
      },
      "additionalContracts": [],
      "isFixedGasLimit": false
    }
  ],
  "receipts": [
    {
      "status": "0x1",
      "cumulativeGasUsed": "0xb7bd16",
      "logs": [
        {
          "address": "0xbf4a322f1496e5c3d34a9bcdb4c60567b38c7de2",
          "topics": [
            "0xddf252ad1be2c89b69c2b068fc378daa952ba7f163c4a11628f55a4df523b3ef",
            "0x000000000000000000000000c77f7fed3b5cc8249adc428c5f44c9063b9734b4",
            "0x0000000000000000000000000000000000000000000000000000000000000000"
          ],
          "data": "0x000000000000000000000000000000000000000000000034bebac606704c3866",
          "blockHash": "0x7f3aaeb6ccf93511b2974eb63036f513ce290188a1ee233b8ab6a351fee8a4a8",
          "blockNumber": "0x726716",
          "transactionHash": "0xe743b864096e558ef80f3f8c6be8801c71dafa17cf5400038cc5e77877fccf10",
          "transactionIndex": "0x4e",
          "logIndex": "0x86",
          "removed": false
        },
        {
          "address": "0xbf4a322f1496e5c3d34a9bcdb4c60567b38c7de2",
          "topics": [
            "0x4afcb4a87cdbd9974efdb92ee48bc8d7cd0ae4bf217004db3d080cbaee652ca7"
          ],
          "data": "0x000000000000000000000000000000000000000000000000000000006787c8780000000000000000000000000000000000000000000000000003a03df4c8aaf00000000000000000000000000000000000000000000000000dc7e3d1bb206bf4",
          "blockHash": "0x7f3aaeb6ccf93511b2974eb63036f513ce290188a1ee233b8ab6a351fee8a4a8",
          "blockNumber": "0x726716",
          "transactionHash": "0xe743b864096e558ef80f3f8c6be8801c71dafa17cf5400038cc5e77877fccf10",
          "transactionIndex": "0x4e",
          "logIndex": "0x87",
          "removed": false
        }
      ],
      "logsBloom": "0x00000000000000000000000000000000000000000000000000000000000000000000000000000000000000000000000000000000000000004000000000000000000000000000000000000008000000000000001000000000000000000000000000000000020000000000000000000800020000000000000000000010000000000000000000000000000000000000000000000000000008000000010000000000000000000000000000000000000000004000000000000000000000000000000000000002000000800000000000001000000000000000080000000000000020000000000000000000000000000000000000000000000000000000000000000000",
      "type": "0x2",
      "transactionHash": "0xe743b864096e558ef80f3f8c6be8801c71dafa17cf5400038cc5e77877fccf10",
      "transactionIndex": "0x4e",
      "blockHash": "0x7f3aaeb6ccf93511b2974eb63036f513ce290188a1ee233b8ab6a351fee8a4a8",
      "blockNumber": "0x726716",
      "gasUsed": "0xfb91",
      "effectiveGasPrice": "0x5a5666d33",
      "from": "0xc77f7fed3b5cc8249adc428c5f44c9063b9734b4",
      "to": "0xbf4a322f1496e5c3d34a9bcdb4c60567b38c7de2",
      "contractAddress": null
    }
  ],
  "libraries": [],
  "pending": [],
  "returns": {},
  "timestamp": 1736951930,
  "chain": 11155111,
  "commit": "51a374b"
}