{
  "transactions": [
    {
      "hash": "0xfbd249944937c4e907eeb6b9ab306ad415d172e8acb6c8f228d1cc220bfa9bd8",
      "transactionType": "CALL",
      "contractName": null,
      "contractAddress": "0xbf4a322f1496e5c3d34a9bcdb4c60567b38c7de2",
      "function": "buy(address)",
      "arguments": [
        "0xC77f7fed3b5Cc8249aDc428c5F44C9063B9734b4"
      ],
      "transaction": {
        "from": "0xc77f7fed3b5cc8249adc428c5f44c9063b9734b4",
        "to": "0xbf4a322f1496e5c3d34a9bcdb4c60567b38c7de2",
        "gas": "0x1b309",
        "value": "0xde0b6b3a7640000",
        "input": "0xf088d547000000000000000000000000c77f7fed3b5cc8249adc428c5f44c9063b9734b4",
        "nonce": "0xbe8",
        "chainId": "0xaa36a7"
      },
      "additionalContracts": [],
      "isFixedGasLimit": false
    }
  ],
  "receipts": [
    {
      "status": "0x1",
      "cumulativeGasUsed": "0xa015a0",
      "logs": [
        {
          "address": "0xbf4a322f1496e5c3d34a9bcdb4c60567b38c7de2",
          "topics": [
            "0xddf252ad1be2c89b69c2b068fc378daa952ba7f163c4a11628f55a4df523b3ef",
            "0x0000000000000000000000000000000000000000000000000000000000000000",
            "0x000000000000000000000000c77f7fed3b5cc8249adc428c5f44c9063b9734b4"
          ],
          "data": "0x000000000000000000000000000000000000000000000034ffd4577c542da1a0",
          "blockHash": "0xd5187f2d7ffee92ba63f247f5bda0009e2efff36f5f8adba6160efb3fb4fe273",
          "blockNumber": "0x725c0f",
          "transactionHash": "0xfbd249944937c4e907eeb6b9ab306ad415d172e8acb6c8f228d1cc220bfa9bd8",
          "transactionIndex": "0x4c",
          "logIndex": "0x6c",
          "removed": false
        },
        {
          "address": "0xbf4a322f1496e5c3d34a9bcdb4c60567b38c7de2",
          "topics": [
            "0xddf252ad1be2c89b69c2b068fc378daa952ba7f163c4a11628f55a4df523b3ef",
            "0x0000000000000000000000000000000000000000000000000000000000000000",
            "0x000000000000000000000000c77f7fed3b5cc8249adc428c5f44c9063b9734b4"
          ],
          "data": "0x0000000000000000000000000000000000000000000000002927e1e329f68661",
          "blockHash": "0xd5187f2d7ffee92ba63f247f5bda0009e2efff36f5f8adba6160efb3fb4fe273",
          "blockNumber": "0x725c0f",
          "transactionHash": "0xfbd249944937c4e907eeb6b9ab306ad415d172e8acb6c8f228d1cc220bfa9bd8",
          "transactionIndex": "0x4c",
          "logIndex": "0x6d",
          "removed": false
        },
        {
          "address": "0xbf4a322f1496e5c3d34a9bcdb4c60567b38c7de2",
          "topics": [
            "0x4afcb4a87cdbd9974efdb92ee48bc8d7cd0ae4bf217004db3d080cbaee652ca7"
          ],
          "data": "0x0000000000000000000000000000000000000000000000000000000067874310000000000000000000000000000000000000000000000000000398fa8361f38d0000000000000000000000000000000000000000000000000de0b6b3a7640000",
          "blockHash": "0xd5187f2d7ffee92ba63f247f5bda0009e2efff36f5f8adba6160efb3fb4fe273",
          "blockNumber": "0x725c0f",
          "transactionHash": "0xfbd249944937c4e907eeb6b9ab306ad415d172e8acb6c8f228d1cc220bfa9bd8",
          "transactionIndex": "0x4c",
          "logIndex": "0x6e",
          "removed": false
        }
      ],
      "logsBloom": "0x00000000000000000000000000000000000000000000000000000000000000000000000000000000000000000000000000000000000000004000000000000000000000000000000000000008000000000000001000000000000000000000000000000000020000000000000000000800020000000000000000000010000000000000000000000000000000000000000000000000000008000000010000000000000000000000000000000000000000004000000000000000000000000000000000000002000000800000000000001000000000000000080000000000000020000000000000000000000000000000000000000000000000000000000000000000",
      "type": "0x2",
      "transactionHash": "0xfbd249944937c4e907eeb6b9ab306ad415d172e8acb6c8f228d1cc220bfa9bd8",
      "transactionIndex": "0x4c",
      "blockHash": "0xd5187f2d7ffee92ba63f247f5bda0009e2efff36f5f8adba6160efb3fb4fe273",
      "blockNumber": "0x725c0f",
      "gasUsed": "0x13af6",
      "effectiveGasPrice": "0xc5595593",
      "from": "0xc77f7fed3b5cc8249adc428c5f44c9063b9734b4",
      "to": "0xbf4a322f1496e5c3d34a9bcdb4c60567b38c7de2",
      "contractAddress": null
    }
  ],
  "libraries": [],
  "pending": [],
  "returns": {},
  "timestamp": 1736917777,
  "chain": 11155111,
  "commit": "51a374b"
}