{
  "transactions": [
    {
      "hash": "0xa8f0b1924c4bde631a90d837914491dad04ddbd0070be198b55d30f7570bedab",
      "transactionType": "CALL",
      "contractName": null,
      "contractAddress": "0xbf4a322f1496e5c3d34a9bcdb4c60567b38c7de2",
      "function": "sell(uint256)",
      "arguments": [
        "977094357000339541856"
      ],
      "transaction": {
        "from": "0xc77f7fed3b5cc8249adc428c5f44c9063b9734b4",
        "to": "0xbf4a322f1496e5c3d34a9bcdb4c60567b38c7de2",
        "gas": "0x16fea",
        "value": "0x0",
        "input": "0xe4849b32000000000000000000000000000000000000000000000034f7e87cd2f3f34f60",
        "nonce": "0xcf1",
        "chainId": "0xaa36a7"
      },
      "additionalContracts": [],
      "isFixedGasLimit": false
    }
  ],
  "receipts": [
    {
      "status": "0x1",
      "cumulativeGasUsed": "0xb08925",
      "logs": [
        {
          "address": "0xbf4a322f1496e5c3d34a9bcdb4c60567b38c7de2",
          "topics": [
            "0xddf252ad1be2c89b69c2b068fc378daa952ba7f163c4a11628f55a4df523b3ef",
            "0x000000000000000000000000c77f7fed3b5cc8249adc428c5f44c9063b9734b4",
            "0x0000000000000000000000000000000000000000000000000000000000000000"
          ],
          "data": "0x000000000000000000000000000000000000000000000034f7e87cd2f3f34f60",
          "blockHash": "0xc6b02af9bdba55ed543feac55a20df8930749db46ec865fb01c8496cfa1791ba",
          "blockNumber": "0x725d43",
          "transactionHash": "0xa8f0b1924c4bde631a90d837914491dad04ddbd0070be198b55d30f7570bedab",
          "transactionIndex": "0x5b",
          "logIndex": "0xa6",
          "removed": false
        },
        {
          "address": "0xbf4a322f1496e5c3d34a9bcdb4c60567b38c7de2",
          "topics": [
            "0x4afcb4a87cdbd9974efdb92ee48bc8d7cd0ae4bf217004db3d080cbaee652ca7"
          ],
          "data": "0x000000000000000000000000000000000000000000000000000000006787519800000000000000000000000000000000000000000000000000039c53f5d850910000000000000000000000000000000000000000000000000dc7e3db4f822526",
          "blockHash": "0xc6b02af9bdba55ed543feac55a20df8930749db46ec865fb01c8496cfa1791ba",
          "blockNumber": "0x725d43",
          "transactionHash": "0xa8f0b1924c4bde631a90d837914491dad04ddbd0070be198b55d30f7570bedab",
          "transactionIndex": "0x5b",
          "logIndex": "0xa7",
          "removed": false
        }
      ],
      "logsBloom": "0x00000000000000000000000000000000000000000000000000000000000000000000000000000000000000000000000000000000000000004000000000000000000000000000000000000008000000000000001000000000000000000000000000000000020000000000000000000800020000000000000000000010000000000000000000000000000000000000000000000000000008000000010000000000000000000000000000000000000000004000000000000000000000000000000000000002000000800000000000001000000000000000080000000000000020000000000000000000000000000000000000000000000000000000000000000000",
      "type": "0x2",
      "transactionHash": "0xa8f0b1924c4bde631a90d837914491dad04ddbd0070be198b55d30f7570bedab",
      "transactionIndex": "0x5b",
      "blockHash": "0xc6b02af9bdba55ed543feac55a20df8930749db46ec865fb01c8496cfa1791ba",
      "blockNumber": "0x725d43",
      "gasUsed": "0xfb91",
      "effectiveGasPrice": "0x40a8e53c9",
      "from": "0xc77f7fed3b5cc8249adc428c5f44c9063b9734b4",
      "to": "0xbf4a322f1496e5c3d34a9bcdb4c60567b38c7de2",
      "contractAddress": null
    }
  ],
  "libraries": [],
  "pending": [],
  "returns": {},
  "timestamp": 1736921497,
  "chain": 11155111,
  "commit": "51a374b"
}