{
  "transactions": [
    {
      "hash": "0x66a213a02561615820be1d5d4940d30da9f64861967ceeb99ad78bda1ece03db",
      "transactionType": "CALL",
      "contractName": null,
      "contractAddress": "0x270e88f8683660553e8ba4eb2ad7c91a1710d769",
      "function": "sell(uint256)",
      "arguments": [
        "970220585695914608688"
      ],
      "transaction": {
        "from": "0xc77f7fed3b5cc8249adc428c5f44c9063b9734b4",
        "to": "0x270e88f8683660553e8ba4eb2ad7c91a1710d769",
        "gas": "0x16fec",
        "value": "0x0",
        "input": "0xe4849b320000000000000000000000000000000000000000000000349883f23dd06dc830",
        "nonce": "0x567",
        "chainId": "0xaa36a7"
      },
      "additionalContracts": [],
      "isFixedGasLimit": false
    }
  ],
  "receipts": [
    {
      "status": "0x1",
      "cumulativeGasUsed": "0x148b988",
      "logs": [
        {
          "address": "0x270e88f8683660553e8ba4eb2ad7c91a1710d769",
          "topics": [
            "0xddf252ad1be2c89b69c2b068fc378daa952ba7f163c4a11628f55a4df523b3ef",
            "0x000000000000000000000000c77f7fed3b5cc8249adc428c5f44c9063b9734b4",
            "0x0000000000000000000000000000000000000000000000000000000000000000"
          ],
          "data": "0x0000000000000000000000000000000000000000000000349883f23dd06dc830",
          "blockHash": "0xfad99267693cc9110cb9c806d826e470b1cdbb882cc7b8c2b42790b516c16d02",
          "blockNumber": "0x72520e",
          "transactionHash": "0x66a213a02561615820be1d5d4940d30da9f64861967ceeb99ad78bda1ece03db",
          "transactionIndex": "0x55",
          "logIndex": "0x8f",
          "removed": false
        },
        {
          "address": "0x270e88f8683660553e8ba4eb2ad7c91a1710d769",
          "topics": [
            "0x4afcb4a87cdbd9974efdb92ee48bc8d7cd0ae4bf217004db3d080cbaee652ca7"
          ],
          "data": "0x000000000000000000000000000000000000000000000000000000006786ca980000000000000000000000000000000000000000000000000003a324cadfc6e40000000000000000000000000000000000000000000000000dc8403c7d961eef",
          "blockHash": "0xfad99267693cc9110cb9c806d826e470b1cdbb882cc7b8c2b42790b516c16d02",
          "blockNumber": "0x72520e",
          "transactionHash": "0x66a213a02561615820be1d5d4940d30da9f64861967ceeb99ad78bda1ece03db",
          "transactionIndex": "0x55",
          "logIndex": "0x90",
          "removed": false
        }
      ],
      "logsBloom": "0x00000000000000000000000000000000000000000000000000000000000000000000000000000000000000000000000020000000000000004000000000000000000000000000000000000008000000000000000000000000000000000000000000000000020000000000000000000800020000000000000000000010000000000000000000010000000000000000000000000000000000000000010000000000000000000000000000000000000000004000000000000000000000000000000000000002000000800000000000000000000000000000080000008000000020000000000000000000000000000000000000000000000000000000000000000000",
      "type": "0x2",
      "transactionHash": "0x66a213a02561615820be1d5d4940d30da9f64861967ceeb99ad78bda1ece03db",
      "transactionIndex": "0x55",
      "blockHash": "0xfad99267693cc9110cb9c806d826e470b1cdbb882cc7b8c2b42790b516c16d02",
      "blockNumber": "0x72520e",
      "gasUsed": "0xfb93",
      "effectiveGasPrice": "0x482f0889b",
      "from": "0xc77f7fed3b5cc8249adc428c5f44c9063b9734b4",
      "to": "0x270e88f8683660553e8ba4eb2ad7c91a1710d769",
      "contractAddress": null
    }
  ],
  "libraries": [],
  "pending": [],
  "returns": {},
  "timestamp": 1736886937,
  "chain": 11155111,
  "commit": "51a374b"
}