{
  "transactions": [
    {
      "hash": "0xdcf63fee7afe9c941d2f50ae29be1f35dbed146e51c9fe089286ab811bec853a",
      "transactionType": "CALL",
      "contractName": null,
      "contractAddress": "0x270e88f8683660553e8ba4eb2ad7c91a1710d769",
      "function": "buy(address)",
      "arguments": [
        "0xC77f7fed3b5Cc8249aDc428c5F44C9063B9734b4"
      ],
      "transaction": {
        "from": "0xc77f7fed3b5cc8249adc428c5f44c9063b9734b4",
        "to": "0x270e88f8683660553e8ba4eb2ad7c91a1710d769",
        "gas": "0x1b30c",
        "value": "0xde0b6b3a7640000",
        "input": "0xf088d547000000000000000000000000c77f7fed3b5cc8249adc428c5f44c9063b9734b4",
        "nonce": "0x616",
        "chainId": "0xaa36a7"
      },
      "additionalContracts": [],
      "isFixedGasLimit": false
    }
  ],
  "receipts": [
    {
      "status": "0x1",
      "cumulativeGasUsed": "0x10cef6c",
      "logs": [
        {
          "address": "0x270e88f8683660553e8ba4eb2ad7c91a1710d769",
          "topics": [
            "0xddf252ad1be2c89b69c2b068fc378daa952ba7f163c4a11628f55a4df523b3ef",
            "0x0000000000000000000000000000000000000000000000000000000000000000",
            "0x000000000000000000000000c77f7fed3b5cc8249adc428c5f44c9063b9734b4"
          ],
          "data": "0x00000000000000000000000000000000000000000000003306812477dafe892c",
          "blockHash": "0x0e8a739287a4fb392f837889f9f3c7513349721d4f13c558d9f24269477de5e1",
          "blockNumber": "0x7252e2",
          "transactionHash": "0xdcf63fee7afe9c941d2f50ae29be1f35dbed146e51c9fe089286ab811bec853a",
          "transactionIndex": "0x55",
          "logIndex": "0x87",
          "removed": false
        },
        {
          "address": "0x270e88f8683660553e8ba4eb2ad7c91a1710d769",
          "topics": [
            "0xddf252ad1be2c89b69c2b068fc378daa952ba7f163c4a11628f55a4df523b3ef",
            "0x0000000000000000000000000000000000000000000000000000000000000000",
            "0x000000000000000000000000c77f7fed3b5cc8249adc428c5f44c9063b9734b4"
          ],
          "data": "0x000000000000000000000000000000000000000000000000279f7af357515666",
          "blockHash": "0x0e8a739287a4fb392f837889f9f3c7513349721d4f13c558d9f24269477de5e1",
          "blockNumber": "0x7252e2",
          "transactionHash": "0xdcf63fee7afe9c941d2f50ae29be1f35dbed146e51c9fe089286ab811bec853a",
          "transactionIndex": "0x55",
          "logIndex": "0x88",
          "removed": false
        },
        {
          "address": "0x270e88f8683660553e8ba4eb2ad7c91a1710d769",
          "topics": [
            "0x4afcb4a87cdbd9974efdb92ee48bc8d7cd0ae4bf217004db3d080cbaee652ca7"
          ],
          "data": "0x000000000000000000000000000000000000000000000000000000006786d4a00000000000000000000000000000000000000000000000000003bcb3a50fed1f0000000000000000000000000000000000000000000000000de0b6b3a7640000",
          "blockHash": "0x0e8a739287a4fb392f837889f9f3c7513349721d4f13c558d9f24269477de5e1",
          "blockNumber": "0x7252e2",
          "transactionHash": "0xdcf63fee7afe9c941d2f50ae29be1f35dbed146e51c9fe089286ab811bec853a",
          "transactionIndex": "0x55",
          "logIndex": "0x89",
          "removed": false
        }
      ],
      "logsBloom": "0x00000000000000000000000000000000000000000000000000000000000000000000000000000000000000000000000020000000000000004000000000000000000000000000000000000008000000000000000000000000000000000000000000000000020000000000000000000800020000000000000000000010000000000000000000010000000000000000000000000000000000000000010000000000000000000000000000000000000000004000000000000000000000000000000000000002000000800000000000000000000000000000080000008000000020000000000000000000000000000000000000000000000000000000000000000000",
      "type": "0x2",
      "transactionHash": "0xdcf63fee7afe9c941d2f50ae29be1f35dbed146e51c9fe089286ab811bec853a",
      "transactionIndex": "0x55",
      "blockHash": "0x0e8a739287a4fb392f837889f9f3c7513349721d4f13c558d9f24269477de5e1",
      "blockNumber": "0x7252e2",
      "gasUsed": "0x13af8",
      "effectiveGasPrice": "0x27552aeb3",
      "from": "0xc77f7fed3b5cc8249adc428c5f44c9063b9734b4",
      "to": "0x270e88f8683660553e8ba4eb2ad7c91a1710d769",
      "contractAddress": null
    }
  ],
  "libraries": [],
  "pending": [],
  "returns": {},
  "timestamp": 1736889506,
  "chain": 11155111,
  "commit": "51a374b"
}