{
  "transactions": [
    {
      "hash": "0x532890ab646b2c3040917041eb464fe06e71c0abe8d46ea592e9834ba2a480bd",
      "transactionType": "CALL",
      "contractName": null,
      "contractAddress": "0xbf4a322f1496e5c3d34a9bcdb4c60567b38c7de2",
      "function": "sell(uint256)",
      "arguments": [
        "975841340532110168876"
      ],
      "transaction": {
        "from": "0xc77f7fed3b5cc8249adc428c5f44c9063b9734b4",
        "to": "0xbf4a322f1496e5c3d34a9bcdb4c60567b38c7de2",
        "gas": "0x16fea",
        "value": "0x0",
        "input": "0xe4849b32000000000000000000000000000000000000000000000034e684e0fc256c932c",
        "nonce": "0xd4f",
        "chainId": "0xaa36a7"
      },
      "additionalContracts": [],
      "isFixedGasLimit": false
    }
  ],
  "receipts": [
    {
      "status": "0x1",
      "cumulativeGasUsed": "0xc2d757",
      "logs": [
        {
          "address": "0xbf4a322f1496e5c3d34a9bcdb4c60567b38c7de2",
          "topics": [
            "0xddf252ad1be2c89b69c2b068fc378daa952ba7f163c4a11628f55a4df523b3ef",
            "0x000000000000000000000000c77f7fed3b5cc8249adc428c5f44c9063b9734b4",
            "0x0000000000000000000000000000000000000000000000000000000000000000"
          ],
          "data": "0x000000000000000000000000000000000000000000000034e684e0fc256c932c",
          "blockHash": "0xb9869eb4034c00d667d69797381e7ddd4edd9fbd73f730853e1729421d2504aa",
          "blockNumber": "0x725db6",
          "transactionHash": "0x532890ab646b2c3040917041eb464fe06e71c0abe8d46ea592e9834ba2a480bd",
          "transactionIndex": "0x5e",
          "logIndex": "0xcb",
          "removed": false
        },
        {
          "address": "0xbf4a322f1496e5c3d34a9bcdb4c60567b38c7de2",
          "topics": [
            "0x4afcb4a87cdbd9974efdb92ee48bc8d7cd0ae4bf217004db3d080cbaee652ca7"
          ],
          "data": "0x00000000000000000000000000000000000000000000000000000000678756fc00000000000000000000000000000000000000000000000000039d83ca8645d50000000000000000000000000000000000000000000000000dc7e3d865b1fc54",
          "blockHash": "0xb9869eb4034c00d667d69797381e7ddd4edd9fbd73f730853e1729421d2504aa",
          "blockNumber": "0x725db6",
          "transactionHash": "0x532890ab646b2c3040917041eb464fe06e71c0abe8d46ea592e9834ba2a480bd",
          "transactionIndex": "0x5e",
          "logIndex": "0xcc",
          "removed": false
        }
      ],
      "logsBloom": "0x00000000000000000000000000000000000000000000000000000000000000000000000000000000000000000000000000000000000000004000000000000000000000000000000000000008000000000000001000000000000000000000000000000000020000000000000000000800020000000000000000000010000000000000000000000000000000000000000000000000000008000000010000000000000000000000000000000000000000004000000000000000000000000000000000000002000000800000000000001000000000000000080000000000000020000000000000000000000000000000000000000000000000000000000000000000",
      "type": "0x2",
      "transactionHash": "0x532890ab646b2c3040917041eb464fe06e71c0abe8d46ea592e9834ba2a480bd",
      "transactionIndex": "0x5e",
      "blockHash": "0xb9869eb4034c00d667d69797381e7ddd4edd9fbd73f730853e1729421d2504aa",
      "blockNumber": "0x725db6",
      "gasUsed": "0xfb91",
      "effectiveGasPrice": "0x4469f4c36",
      "from": "0xc77f7fed3b5cc8249adc428c5f44c9063b9734b4",
      "to": "0xbf4a322f1496e5c3d34a9bcdb4c60567b38c7de2",
      "contractAddress": null
    }
  ],
  "libraries": [],
  "pending": [],
  "returns": {},
  "timestamp": 1736922877,
  "chain": 11155111,
  "commit": "51a374b"
}