{
  "transactions": [
    {
      "hash": "0x4f744e7d3952f2d709fa3c2cdd2a25650d2f520b45dab55471b215c7fff633b7",
      "transactionType": "CALL",
      "contractName": null,
      "contractAddress": "0x5eb9cc76c3506942c1c0ead70e877dd5e4f00cb0",
      "function": "buy(address)",
      "arguments": [
        "0xC77f7fed3b5Cc8249aDc428c5F44C9063B9734b4"
      ],
      "transaction": {
        "from": "0xc77f7fed3b5cc8249adc428c5f44c9063b9734b4",
        "to": "0x5eb9cc76c3506942c1c0ead70e877dd5e4f00cb0",
        "gas": "0x156c8",
        "value": "0xde0b6b3a7640000",
        "input": "0xf088d547000000000000000000000000c77f7fed3b5cc8249adc428c5f44c9063b9734b4",
        "nonce": "0x12e",
        "chainId": "0xaa36a7"
      },
      "additionalContracts": [],
      "isFixedGasLimit": false
    }
  ],
  "receipts": [
    {
      "status": "0x1",
      "cumulativeGasUsed": "0x33bd5e",
      "logs": [
        {
          "address": "0x5eb9cc76c3506942c1c0ead70e877dd5e4f00cb0",
          "topics": [
            "0xddf252ad1be2c89b69c2b068fc378daa952ba7f163c4a11628f55a4df523b3ef",
            "0x0000000000000000000000000000000000000000000000000000000000000000",
            "0x000000000000000000000000c77f7fed3b5cc8249adc428c5f44c9063b9734b4"
          ],
          "data": "0x000000000000000000000000000000000000000000000035ab000d6ef580f12c",
          "blockHash": "0xb3e97ee3efa0fe6e03df1e99f9187bdda26e6b1b2ac7764031730bc868a865e9",
          "blockNumber": "0x723b10",
          "transactionHash": "0x4f744e7d3952f2d709fa3c2cdd2a25650d2f520b45dab55471b215c7fff633b7",
          "transactionIndex": "0x2b",
          "logIndex": "0x2f",
          "removed": false
        },
        {
          "address": "0x5eb9cc76c3506942c1c0ead70e877dd5e4f00cb0",
          "topics": [
            "0xddf252ad1be2c89b69c2b068fc378daa952ba7f163c4a11628f55a4df523b3ef",
            "0x0000000000000000000000000000000000000000000000000000000000000000",
            "0x000000000000000000000000c77f7fed3b5cc8249adc428c5f44c9063b9734b4"
          ],
          "data": "0x00000000000000000000000000000000000000000000000029accd632e7d8596",
          "blockHash": "0xb3e97ee3efa0fe6e03df1e99f9187bdda26e6b1b2ac7764031730bc868a865e9",
          "blockNumber": "0x723b10",
          "transactionHash": "0x4f744e7d3952f2d709fa3c2cdd2a25650d2f520b45dab55471b215c7fff633b7",
          "transactionIndex": "0x2b",
          "logIndex": "0x30",
          "removed": false
        },
        {
          "address": "0x5eb9cc76c3506942c1c0ead70e877dd5e4f00cb0",
          "topics": [
            "0x4afcb4a87cdbd9974efdb92ee48bc8d7cd0ae4bf217004db3d080cbaee652ca7"
          ],
          "data": "0x000000000000000000000000000000000000000000000000000000006785b61400000000000000000000000000000000000000000000000000038d7ed5ea37a30000000000000000000000000000000000000000000000000de0b6b3a7640000",
          "blockHash": "0xb3e97ee3efa0fe6e03df1e99f9187bdda26e6b1b2ac7764031730bc868a865e9",
          "blockNumber": "0x723b10",
          "transactionHash": "0x4f744e7d3952f2d709fa3c2cdd2a25650d2f520b45dab55471b215c7fff633b7",
          "transactionIndex": "0x2b",
          "logIndex": "0x31",
          "removed": false
        }
      ],
      "logsBloom": "0x00000000000000000000000000000000000000000000000000000000000000000000000000000000000000000000000000000000000000004000000000000000000000000000000000000008000000000000000000000000000000000000000000000000020000000000000004000800020000000000000000000010000000000000000000000000000000000000000000000000000000000000010000000000000000000000000000000000000000004000000000000000000000000000020000000002000000800000008000000000000000000000080000000000000020000000000000000000000000000000000000000000000000000000000000000000",
      "type": "0x2",
      "transactionHash": "0x4f744e7d3952f2d709fa3c2cdd2a25650d2f520b45dab55471b215c7fff633b7",
      "transactionIndex": "0x2b",
      "blockHash": "0xb3e97ee3efa0fe6e03df1e99f9187bdda26e6b1b2ac7764031730bc868a865e9",
      "blockNumber": "0x723b10",
      "gasUsed": "0xf82c",
      "effectiveGasPrice": "0x34a4203e0",
      "from": "0xc77f7fed3b5cc8249adc428c5f44c9063b9734b4",
      "to": "0x5eb9cc76c3506942c1c0ead70e877dd5e4f00cb0",
      "contractAddress": null
    }
  ],
  "libraries": [],
  "pending": [],
  "returns": {},
  "timestamp": 1736816149,
  "chain": 11155111,
  "commit": "51a374b"
}