{
  "transactions": [
    {
      "hash": "0x9bf9f73e88762a067c92ea60d9659ee9aa16527cec072c2ff83b09fb726fc749",
      "transactionType": "CALL",
      "contractName": null,
      "contractAddress": "0x270e88f8683660553e8ba4eb2ad7c91a1710d769",
      "function": "sell(uint256)",
      "arguments": [
        "973279377377502735453"
      ],
      "transaction": {
        "from": "0xc77f7fed3b5cc8249adc428c5f44c9063b9734b4",
        "to": "0x270e88f8683660553e8ba4eb2ad7c91a1710d769",
        "gas": "0x16fec",
        "value": "0x0",
        "input": "0xe4849b32000000000000000000000000000000000000000000000034c2f6f511d768ac5d",
        "nonce": "0x553",
        "chainId": "0xaa36a7"
      },
      "additionalContracts": [],
      "isFixedGasLimit": false
    }
  ],
  "receipts": [
    {
      "status": "0x1",
      "cumulativeGasUsed": "0x9708a1",
      "logs": [
        {
          "address": "0x270e88f8683660553e8ba4eb2ad7c91a1710d769",
          "topics": [
            "0xddf252ad1be2c89b69c2b068fc378daa952ba7f163c4a11628f55a4df523b3ef",
            "0x000000000000000000000000c77f7fed3b5cc8249adc428c5f44c9063b9734b4",
            "0x0000000000000000000000000000000000000000000000000000000000000000"
          ],
          "data": "0x000000000000000000000000000000000000000000000034c2f6f511d768ac5d",
          "blockHash": "0xca5888452036d3e7b8f174b5d7ccafe9c187ce49c4d39edf07e7625af6ebe0d0",
          "blockNumber": "0x7251f3",
          "transactionHash": "0x9bf9f73e88762a067c92ea60d9659ee9aa16527cec072c2ff83b09fb726fc749",
          "transactionIndex": "0x5a",
          "logIndex": "0xab",
          "removed": false
        },
        {
          "address": "0x270e88f8683660553e8ba4eb2ad7c91a1710d769",
          "topics": [
            "0x4afcb4a87cdbd9974efdb92ee48bc8d7cd0ae4bf217004db3d080cbaee652ca7"
          ],
          "data": "0x000000000000000000000000000000000000000000000000000000006786c9540000000000000000000000000000000000000000000000000003a037e0442d1d0000000000000000000000000000000000000000000000000dc8408cea9a98f6",
          "blockHash": "0xca5888452036d3e7b8f174b5d7ccafe9c187ce49c4d39edf07e7625af6ebe0d0",
          "blockNumber": "0x7251f3",
          "transactionHash": "0x9bf9f73e88762a067c92ea60d9659ee9aa16527cec072c2ff83b09fb726fc749",
          "transactionIndex": "0x5a",
          "logIndex": "0xac",
          "removed": false
        }
      ],
      "logsBloom": "0x00000000000000000000000000000000000000000000000000000000000000000000000000000000000000000000000020000000000000004000000000000000000000000000000000000008000000000000000000000000000000000000000000000000020000000000000000000800020000000000000000000010000000000000000000010000000000000000000000000000000000000000010000000000000000000000000000000000000000004000000000000000000000000000000000000002000000800000000000000000000000000000080000008000000020000000000000000000000000000000000000000000000000000000000000000000",
      "type": "0x2",
      "transactionHash": "0x9bf9f73e88762a067c92ea60d9659ee9aa16527cec072c2ff83b09fb726fc749",
      "transactionIndex": "0x5a",
      "blockHash": "0xca5888452036d3e7b8f174b5d7ccafe9c187ce49c4d39edf07e7625af6ebe0d0",
      "blockNumber": "0x7251f3",
      "gasUsed": "0xfb93",
      "effectiveGasPrice": "0x40f244440",
      "from": "0xc77f7fed3b5cc8249adc428c5f44c9063b9734b4",
      "to": "0x270e88f8683660553e8ba4eb2ad7c91a1710d769",
      "contractAddress": null
    }
  ],
  "libraries": [],
  "pending": [],
  "returns": {},
  "timestamp": 1736886613,
  "chain": 11155111,
  "commit": "51a374b"
}