{
  "transactions": [
    {
      "hash": "0x6ba6791848459ff9083b11d9318f23230900f3263fe11d2f06ac42c250df0296",
      "transactionType": "CALL",
      "contractName": null,
      "contractAddress": "0x8aafd3ede9adb0ff97c7aebce82a919afb1c8764",
      "function": "sell(uint256)",
      "arguments": [
        "79996845"
      ],
      "transaction": {
        "from": "0xc77f7fed3b5cc8249adc428c5f44c9063b9734b4",
        "to": "0x8aafd3ede9adb0ff97c7aebce82a919afb1c8764",
        "gas": "0x15d88",
        "value": "0x0",
        "input": "0xe4849b320000000000000000000000000000000000000000000000000000000004c4a7ad",
        "nonce": "0x1328",
        "chainId": "0xaa36a7"
      },
      "additionalContracts": [],
      "isFixedGasLimit": false
    }
  ],
  "receipts": [
    {
      "status": "0x1",
      "cumulativeGasUsed": "0xa898be",
      "logs": [
        {
          "address": "0x8aafd3ede9adb0ff97c7aebce82a919afb1c8764",
          "topics": [
            "0xddf252ad1be2c89b69c2b068fc378daa952ba7f163c4a11628f55a4df523b3ef",
            "0x000000000000000000000000c77f7fed3b5cc8249adc428c5f44c9063b9734b4",
            "0x0000000000000000000000000000000000000000000000000000000000000000"
          ],
          "data": "0x0000000000000000000000000000000000000000000000000000000004bae3c7",
          "blockHash": "0x293cec761d24511f439007533f06b0d510d405031f978f868e2e5cbc5b22f070",
          "blockNumber": "0x731a3a",
          "transactionHash": "0x6ba6791848459ff9083b11d9318f23230900f3263fe11d2f06ac42c250df0296",
          "transactionIndex": "0x96",
          "logIndex": "0x9a",
          "removed": false
        },
        {
          "address": "0x8aafd3ede9adb0ff97c7aebce82a919afb1c8764",
          "topics": [
            "0xddf252ad1be2c89b69c2b068fc378daa952ba7f163c4a11628f55a4df523b3ef",
            "0x000000000000000000000000c77f7fed3b5cc8249adc428c5f44c9063b9734b4",
            "0x000000000000000000000000c77f7fed3b5cc8249adc428c5f44c9063b9734b4"
          ],
          "data": "0x000000000000000000000000000000000000000000000000000000000009c3e6",
          "blockHash": "0x293cec761d24511f439007533f06b0d510d405031f978f868e2e5cbc5b22f070",
          "blockNumber": "0x731a3a",
          "transactionHash": "0x6ba6791848459ff9083b11d9318f23230900f3263fe11d2f06ac42c250df0296",
          "transactionIndex": "0x96",
          "logIndex": "0x9b",
          "removed": false
        },
        {
          "address": "0x8aafd3ede9adb0ff97c7aebce82a919afb1c8764",
          "topics": [
            "0x4afcb4a87cdbd9974efdb92ee48bc8d7cd0ae4bf217004db3d080cbaee652ca7"
          ],
          "data": "0x0000000000000000000000000000000000000000000000000000000067903788000000000000000000000000000000000000000000000000000ba9718e83132300000000000000000000000000000000000000000000000000000000000401c0",
          "blockHash": "0x293cec761d24511f439007533f06b0d510d405031f978f868e2e5cbc5b22f070",
          "blockNumber": "0x731a3a",
          "transactionHash": "0x6ba6791848459ff9083b11d9318f23230900f3263fe11d2f06ac42c250df0296",
          "transactionIndex": "0x96",
          "logIndex": "0x9c",
          "removed": false
        }
      ],
      "logsBloom": "0x00000000000000000000000000000000000000000600000000000000000000000000000000000000000000000000000000000000000000004000000000000000000000000000004000000008000000000000000000000000000000000000000000000000020000000000000000000800020000000000000000000010000000000000000000000000000000000000000000000000000000000000010000000000000000000000000000000000000000004000000000000000000000000000000000000002000000800000000000000000000000000000080000000000000020000000000000000000000000000000000000000000000000000000000000000000",
      "type": "0x2",
      "transactionHash": "0x6ba6791848459ff9083b11d9318f23230900f3263fe11d2f06ac42c250df0296",
      "transactionIndex": "0x96",
      "blockHash": "0x293cec761d24511f439007533f06b0d510d405031f978f868e2e5cbc5b22f070",
      "blockNumber": "0x731a3a",
      "gasUsed": "0xfd0f",
      "effectiveGasPrice": "0x4cecb2be",
      "from": "0xc77f7fed3b5cc8249adc428c5f44c9063b9734b4",
      "to": "0x8aafd3ede9adb0ff97c7aebce82a919afb1c8764",
      "contractAddress": null
    }
  ],
  "libraries": [],
  "pending": [],
  "returns": {},
  "timestamp": 1737504650,
  "chain": 11155111,
  "commit": "1d2fb70"
}