{
  "transactions": [
    {
      "hash": "0xf153c0ae3a2a7dedf00250b802d183c8e8194a75118229b6e4cd4e1ff7a2dafd",
      "transactionType": "CALL",
      "contractName": null,
      "contractAddress": "0x8aafd3ede9adb0ff97c7aebce82a919afb1c8764",
      "function": "sell(uint256)",
      "arguments": [
        "5994451874159122360"
      ],
      "transaction": {
        "from": "0xc77f7fed3b5cc8249adc428c5f44c9063b9734b4",
        "to": "0x8aafd3ede9adb0ff97c7aebce82a919afb1c8764",
        "gas": "0x15dca",
        "value": "0x0",
        "input": "0xe4849b3200000000000000000000000000000000000000000000000053309238366dd7b8",
        "nonce": "0xe75",
        "chainId": "0xaa36a7"
      },
      "additionalContracts": [],
      "isFixedGasLimit": false
    }
  ],
  "receipts": [
    {
      "status": "0x1",
      "cumulativeGasUsed": "0x109ba4d",
      "logs": [
        {
          "address": "0x8aafd3ede9adb0ff97c7aebce82a919afb1c8764",
          "topics": [
            "0xddf252ad1be2c89b69c2b068fc378daa952ba7f163c4a11628f55a4df523b3ef",
            "0x000000000000000000000000c77f7fed3b5cc8249adc428c5f44c9063b9734b4",
            "0x0000000000000000000000000000000000000000000000000000000000000000"
          ],
          "data": "0x000000000000000000000000000000000000000000000000528632d781c50726",
          "blockHash": "0xbbf7631900e09cc285d3024d11ee7bca2ae99b92cbc976b5271bb71ff6d0ddb3",
          "blockNumber": "0x7313ce",
          "transactionHash": "0xf153c0ae3a2a7dedf00250b802d183c8e8194a75118229b6e4cd4e1ff7a2dafd",
          "transactionIndex": "0xaa",
          "logIndex": "0x114",
          "removed": false
        },
        {
          "address": "0x8aafd3ede9adb0ff97c7aebce82a919afb1c8764",
          "topics": [
            "0xddf252ad1be2c89b69c2b068fc378daa952ba7f163c4a11628f55a4df523b3ef",
            "0x000000000000000000000000c77f7fed3b5cc8249adc428c5f44c9063b9734b4",
            "0x000000000000000000000000c77f7fed3b5cc8249adc428c5f44c9063b9734b4"
          ],
          "data": "0x00000000000000000000000000000000000000000000000000aa5f60b4a8d092",
          "blockHash": "0xbbf7631900e09cc285d3024d11ee7bca2ae99b92cbc976b5271bb71ff6d0ddb3",
          "blockNumber": "0x7313ce",
          "transactionHash": "0xf153c0ae3a2a7dedf00250b802d183c8e8194a75118229b6e4cd4e1ff7a2dafd",
          "transactionIndex": "0xaa",
          "logIndex": "0x115",
          "removed": false
        },
        {
          "address": "0x8aafd3ede9adb0ff97c7aebce82a919afb1c8764",
          "topics": [
            "0x4afcb4a87cdbd9974efdb92ee48bc8d7cd0ae4bf217004db3d080cbaee652ca7"
          ],
          "data": "0x00000000000000000000000000000000000000000000000000000000678fea3c0000000000000000000000000000000000000000000000000004b5b46f64f82e000000000000000000000000000000000000000000000000001c3b86853182e8",
          "blockHash": "0xbbf7631900e09cc285d3024d11ee7bca2ae99b92cbc976b5271bb71ff6d0ddb3",
          "blockNumber": "0x7313ce",
          "transactionHash": "0xf153c0ae3a2a7dedf00250b802d183c8e8194a75118229b6e4cd4e1ff7a2dafd",
          "transactionIndex": "0xaa",
          "logIndex": "0x116",
          "removed": false
        }
      ],
      "logsBloom": "0x00000000000000000000000000000000000000000600000000000000000000000000000000000000000000000000000000000000000000004000000000000000000000000000004000000008000000000000000000000000000000000000000000000000020000000000000000000800020000000000000000000010000000000000000000000000000000000000000000000000000000000000010000000000000000000000000000000000000000004000000000000000000000000000000000000002000000800000000000000000000000000000080000000000000020000000000000000000000000000000000000000000000000000000000000000000",
      "type": "0x2",
      "transactionHash": "0xf153c0ae3a2a7dedf00250b802d183c8e8194a75118229b6e4cd4e1ff7a2dafd",
      "transactionIndex": "0xaa",
      "blockHash": "0xbbf7631900e09cc285d3024d11ee7bca2ae99b92cbc976b5271bb71ff6d0ddb3",
      "blockNumber": "0x7313ce",
      "gasUsed": "0xfd3f",
      "effectiveGasPrice": "0x637921b8",
      "from": "0xc77f7fed3b5cc8249adc428c5f44c9063b9734b4",
      "to": "0x8aafd3ede9adb0ff97c7aebce82a919afb1c8764",
      "contractAddress": null
    }
  ],
  "libraries": [],
  "pending": [],
  "returns": {},
  "timestamp": 1737484862,
  "chain": 11155111,
  "commit": "51a374b"
}