{
  "transactions": [
    {
      "hash": "0x770ea455093a6ce7ff9850abe1b6140e454bfa5b62ef01d2593a1a6bdd236eb6",
      "transactionType": "CALL",
      "contractName": null,
      "contractAddress": "0x8aafd3ede9adb0ff97c7aebce82a919afb1c8764",
      "function": "sell(uint256)",
      "arguments": [
        "343559887490424"
      ],
      "transaction": {
        "from": "0xc77f7fed3b5cc8249adc428c5f44c9063b9734b4",
        "to": "0x8aafd3ede9adb0ff97c7aebce82a919afb1c8764",
        "gas": "0x1724d",
        "value": "0x0",
        "input": "0xe4849b3200000000000000000000000000000000000000000000000000013877450d8d78",
        "nonce": "0x127e",
        "chainId": "0xaa36a7"
      },
      "additionalContracts": [],
      "isFixedGasLimit": false
    }
  ],
  "receipts": [
    {
      "status": "0x1",
      "cumulativeGasUsed": "0x98b1d0",
      "logs": [
        {
          "address": "0x8aafd3ede9adb0ff97c7aebce82a919afb1c8764",
          "topics": [
            "0xddf252ad1be2c89b69c2b068fc378daa952ba7f163c4a11628f55a4df523b3ef",
            "0x000000000000000000000000c77f7fed3b5cc8249adc428c5f44c9063b9734b4",
            "0x0000000000000000000000000000000000000000000000000000000000000000"
          ],
          "data": "0x000000000000000000000000000000000000000000000000000135f756eeb965",
          "blockHash": "0xd235c1693fab31db21523e44ba6ea36ea32b971a1c1e9aac84e0d0d20ffa9756",
          "blockNumber": "0x731969",
          "transactionHash": "0x770ea455093a6ce7ff9850abe1b6140e454bfa5b62ef01d2593a1a6bdd236eb6",
          "transactionIndex": "0x79",
          "logIndex": "0x71",
          "removed": false
        },
        {
          "address": "0x8aafd3ede9adb0ff97c7aebce82a919afb1c8764",
          "topics": [
            "0xddf252ad1be2c89b69c2b068fc378daa952ba7f163c4a11628f55a4df523b3ef",
            "0x000000000000000000000000c77f7fed3b5cc8249adc428c5f44c9063b9734b4",
            "0x000000000000000000000000c77f7fed3b5cc8249adc428c5f44c9063b9734b4"
          ],
          "data": "0x0000000000000000000000000000000000000000000000000000027fee1ed413",
          "blockHash": "0xd235c1693fab31db21523e44ba6ea36ea32b971a1c1e9aac84e0d0d20ffa9756",
          "blockNumber": "0x731969",
          "transactionHash": "0x770ea455093a6ce7ff9850abe1b6140e454bfa5b62ef01d2593a1a6bdd236eb6",
          "transactionIndex": "0x79",
          "logIndex": "0x72",
          "removed": false
        },
        {
          "address": "0x8aafd3ede9adb0ff97c7aebce82a919afb1c8764",
          "topics": [
            "0x4afcb4a87cdbd9974efdb92ee48bc8d7cd0ae4bf217004db3d080cbaee652ca7"
          ],
          "data": "0x0000000000000000000000000000000000000000000000000000000067902dbc0000000000000000000000000000000000000000000000000005435ec468f8e40000000000000000000000000000000000000000000000000000007680c4b15c",
          "blockHash": "0xd235c1693fab31db21523e44ba6ea36ea32b971a1c1e9aac84e0d0d20ffa9756",
          "blockNumber": "0x731969",
          "transactionHash": "0x770ea455093a6ce7ff9850abe1b6140e454bfa5b62ef01d2593a1a6bdd236eb6",
          "transactionIndex": "0x79",
          "logIndex": "0x73",
          "removed": false
        }
      ],
      "logsBloom": "0x00000000000000000000000000000000000000000600000000000000000000000000000000000000000000000000000000000000000000004000000000000000000000000000004000000008000000000000000000000000000000000000000000000000020000000000000000000800020000000000000000000010000000000000000000000000000000000000000000000000000000000000010000000000000000000000000000000000000000004000000000000000000000000000000000000002000000800000000000000000000000000000080000000000000020000000000000000000000000000000000000000000000000000000000000000000",
      "type": "0x2",
      "transactionHash": "0x770ea455093a6ce7ff9850abe1b6140e454bfa5b62ef01d2593a1a6bdd236eb6",
      "transactionIndex": "0x79",
      "blockHash": "0xd235c1693fab31db21523e44ba6ea36ea32b971a1c1e9aac84e0d0d20ffa9756",
      "blockNumber": "0x731969",
      "gasUsed": "0xfd33",
      "effectiveGasPrice": "0x47793456",
      "from": "0xc77f7fed3b5cc8249adc428c5f44c9063b9734b4",
      "to": "0x8aafd3ede9adb0ff97c7aebce82a919afb1c8764",
      "contractAddress": null
    }
  ],
  "libraries": [],
  "pending": [],
  "returns": {},
  "timestamp": 1737502142,
  "chain": 11155111,
  "commit": "1d2fb70"
}