{
  "transactions": [
    {
      "hash": "0x5a0fd5826da941ec1eca9270fdfaf2bc48d7cc6fb677ed00f0bed187152e13e1",
      "transactionType": "CALL",
      "contractName": null,
      "contractAddress": "0x8aafd3ede9adb0ff97c7aebce82a919afb1c8764",
      "function": "sell(uint256)",
      "arguments": [
        "350368784664820"
      ],
      "transaction": {
        "from": "0xc77f7fed3b5cc8249adc428c5f44c9063b9734b4",
        "to": "0x8aafd3ede9adb0ff97c7aebce82a919afb1c8764",
        "gas": "0x1724d",
        "value": "0x0",
        "input": "0xe4849b3200000000000000000000000000000000000000000000000000013ea896f348f4",
        "nonce": "0x11ca",
        "chainId": "0xaa36a7"
      },
      "additionalContracts": [],
      "isFixedGasLimit": false
    }
  ],
  "receipts": [
    {
      "status": "0x1",
      "cumulativeGasUsed": "0xb922af",
      "logs": [
        {
          "address": "0x8aafd3ede9adb0ff97c7aebce82a919afb1c8764",
          "topics": [
            "0xddf252ad1be2c89b69c2b068fc378daa952ba7f163c4a11628f55a4df523b3ef",
            "0x000000000000000000000000c77f7fed3b5cc8249adc428c5f44c9063b9734b4",
            "0x0000000000000000000000000000000000000000000000000000000000000000"
          ],
          "data": "0x00000000000000000000000000000000000000000000000000013c1bfa18402e",
          "blockHash": "0xd27ad64379037020319f87e16a1b35ff4234ba4788e030e9f672599a6dcb450a",
          "blockNumber": "0x73189d",
          "transactionHash": "0x5a0fd5826da941ec1eca9270fdfaf2bc48d7cc6fb677ed00f0bed187152e13e1",
          "transactionIndex": "0x7c",
          "logIndex": "0x97",
          "removed": false
        },
        {
          "address": "0x8aafd3ede9adb0ff97c7aebce82a919afb1c8764",
          "topics": [
            "0xddf252ad1be2c89b69c2b068fc378daa952ba7f163c4a11628f55a4df523b3ef",
            "0x000000000000000000000000c77f7fed3b5cc8249adc428c5f44c9063b9734b4",
            "0x000000000000000000000000c77f7fed3b5cc8249adc428c5f44c9063b9734b4"
          ],
          "data": "0x0000000000000000000000000000000000000000000000000000028c9cdb08c6",
          "blockHash": "0xd27ad64379037020319f87e16a1b35ff4234ba4788e030e9f672599a6dcb450a",
          "blockNumber": "0x73189d",
          "transactionHash": "0x5a0fd5826da941ec1eca9270fdfaf2bc48d7cc6fb677ed00f0bed187152e13e1",
          "transactionIndex": "0x7c",
          "logIndex": "0x98",
          "removed": false
        },
        {
          "address": "0x8aafd3ede9adb0ff97c7aebce82a919afb1c8764",
          "topics": [
            "0x4afcb4a87cdbd9974efdb92ee48bc8d7cd0ae4bf217004db3d080cbaee652ca7"
          ],
          "data": "0x000000000000000000000000000000000000000000000000000000006790242c00000000000000000000000000000000000000000000000000052936c471b4fd000000000000000000000000000000000000000000000000000000768168a27a",
          "blockHash": "0xd27ad64379037020319f87e16a1b35ff4234ba4788e030e9f672599a6dcb450a",
          "blockNumber": "0x73189d",
          "transactionHash": "0x5a0fd5826da941ec1eca9270fdfaf2bc48d7cc6fb677ed00f0bed187152e13e1",
          "transactionIndex": "0x7c",
          "logIndex": "0x99",
          "removed": false
        }
      ],
      "logsBloom": "0x00000000000000000000000000000000000000000600000000000000000000000000000000000000000000000000000000000000000000004000000000000000000000000000004000000008000000000000000000000000000000000000000000000000020000000000000000000800020000000000000000000010000000000000000000000000000000000000000000000000000000000000010000000000000000000000000000000000000000004000000000000000000000000000000000000002000000800000000000000000000000000000080000000000000020000000000000000000000000000000000000000000000000000000000000000000",
      "type": "0x2",
      "transactionHash": "0x5a0fd5826da941ec1eca9270fdfaf2bc48d7cc6fb677ed00f0bed187152e13e1",
      "transactionIndex": "0x7c",
      "blockHash": "0xd27ad64379037020319f87e16a1b35ff4234ba4788e030e9f672599a6dcb450a",
      "blockNumber": "0x73189d",
      "gasUsed": "0xfd33",
      "effectiveGasPrice": "0x428bec19",
      "from": "0xc77f7fed3b5cc8249adc428c5f44c9063b9734b4",
      "to": "0x8aafd3ede9adb0ff97c7aebce82a919afb1c8764",
      "contractAddress": null
    }
  ],
  "libraries": [],
  "pending": [],
  "returns": {},
  "timestamp": 1737499695,
  "chain": 11155111,
  "commit": "1d2fb70"
}