{
  "transactions": [
    {
      "hash": "0x3c2358a2019c5af3ea85d598aabdacbb379b4fee61341a0dadcee885e3681d69",
      "transactionType": "CALL",
      "contractName": null,
      "contractAddress": "0x8aafd3ede9adb0ff97c7aebce82a919afb1c8764",
      "function": "sell(uint256)",
      "arguments": [
        "3069159359569"
      ],
      "transaction": {
        "from": "0xc77f7fed3b5cc8249adc428c5f44c9063b9734b4",
        "to": "0x8aafd3ede9adb0ff97c7aebce82a919afb1c8764",
        "gas": "0x15daa",
        "value": "0x0",
        "input": "0xe4849b32000000000000000000000000000000000000000000000000000002ca98274451",
        "nonce": "0xe78",
        "chainId": "0xaa36a7"
      },
      "additionalContracts": [],
      "isFixedGasLimit": false
    }
  ],
  "receipts": [
    {
      "status": "0x1",
      "cumulativeGasUsed": "0x109c0ca",
      "logs": [
        {
          "address": "0x8aafd3ede9adb0ff97c7aebce82a919afb1c8764",
          "topics": [
            "0xddf252ad1be2c89b69c2b068fc378daa952ba7f163c4a11628f55a4df523b3ef",
            "0x000000000000000000000000c77f7fed3b5cc8249adc428c5f44c9063b9734b4",
            "0x0000000000000000000000000000000000000000000000000000000000000000"
          ],
          "data": "0x000000000000000000000000000000000000000000000000000002c4e0aa0655",
          "blockHash": "0xd1ae4197942794b4934682d546e43b2acb9d212d19a75ec7142ed46e92e2716f",
          "blockNumber": "0x7313d2",
          "transactionHash": "0x3c2358a2019c5af3ea85d598aabdacbb379b4fee61341a0dadcee885e3681d69",
          "transactionIndex": "0xb4",
          "logIndex": "0xef",
          "removed": false
        },
        {
          "address": "0x8aafd3ede9adb0ff97c7aebce82a919afb1c8764",
          "topics": [
            "0xddf252ad1be2c89b69c2b068fc378daa952ba7f163c4a11628f55a4df523b3ef",
            "0x000000000000000000000000c77f7fed3b5cc8249adc428c5f44c9063b9734b4",
            "0x000000000000000000000000c77f7fed3b5cc8249adc428c5f44c9063b9734b4"
          ],
          "data": "0x00000000000000000000000000000000000000000000000000000005b77d3dfc",
          "blockHash": "0xd1ae4197942794b4934682d546e43b2acb9d212d19a75ec7142ed46e92e2716f",
          "blockNumber": "0x7313d2",
          "transactionHash": "0x3c2358a2019c5af3ea85d598aabdacbb379b4fee61341a0dadcee885e3681d69",
          "transactionIndex": "0xb4",
          "logIndex": "0xf0",
          "removed": false
        },
        {
          "address": "0x8aafd3ede9adb0ff97c7aebce82a919afb1c8764",
          "topics": [
            "0x4afcb4a87cdbd9974efdb92ee48bc8d7cd0ae4bf217004db3d080cbaee652ca7"
          ],
          "data": "0x00000000000000000000000000000000000000000000000000000000678fea6c0000000000000000000000000000000000000000000000000004b5b470a2b07700000000000000000000000000000000000000000000000000000000f28417ca",
          "blockHash": "0xd1ae4197942794b4934682d546e43b2acb9d212d19a75ec7142ed46e92e2716f",
          "blockNumber": "0x7313d2",
          "transactionHash": "0x3c2358a2019c5af3ea85d598aabdacbb379b4fee61341a0dadcee885e3681d69",
          "transactionIndex": "0xb4",
          "logIndex": "0xf1",
          "removed": false
        }
      ],
      "logsBloom": "0x00000000000000000000000000000000000000000600000000000000000000000000000000000000000000000000000000000000000000004000000000000000000000000000004000000008000000000000000000000000000000000000000000000000020000000000000000000800020000000000000000000010000000000000000000000000000000000000000000000000000000000000010000000000000000000000000000000000000000004000000000000000000000000000000000000002000000800000000000000000000000000000080000000000000020000000000000000000000000000000000000000000000000000000000000000000",
      "type": "0x2",
      "transactionHash": "0x3c2358a2019c5af3ea85d598aabdacbb379b4fee61341a0dadcee885e3681d69",
      "transactionIndex": "0xb4",
      "blockHash": "0xd1ae4197942794b4934682d546e43b2acb9d212d19a75ec7142ed46e92e2716f",
      "blockNumber": "0x7313d2",
      "gasUsed": "0xfd27",
      "effectiveGasPrice": "0x65f9d2d6",
      "from": "0xc77f7fed3b5cc8249adc428c5f44c9063b9734b4",
      "to": "0x8aafd3ede9adb0ff97c7aebce82a919afb1c8764",
      "contractAddress": null
    }
  ],
  "libraries": [],
  "pending": [],
  "returns": {},
  "timestamp": 1737484909,
  "chain": 11155111,
  "commit": "51a374b"
}