{
  "transactions": [
    {
      "hash": "0x37193aea5ff9b5c896c53d6f0cd23a392a64da6851ec1373cd706dee5c64cc1f",
      "transactionType": "CALL",
      "contractName": null,
      "contractAddress": "0xbf4a322f1496e5c3d34a9bcdb4c60567b38c7de2",
      "function": "sell(uint256)",
      "arguments": [
        "976827488403716967683"
      ],
      "transaction": {
        "from": "0xc77f7fed3b5cc8249adc428c5f44c9063b9734b4",
        "to": "0xbf4a322f1496e5c3d34a9bcdb4c60567b38c7de2",
        "gas": "0x16fea",
        "value": "0x0",
        "input": "0xe4849b32000000000000000000000000000000000000000000000034f434613fd48e0d03",
        "nonce": "0xd05",
        "chainId": "0xaa36a7"
      },
      "additionalContracts": [],
      "isFixedGasLimit": false
    }
  ],
  "receipts": [
    {
      "status": "0x1",
      "cumulativeGasUsed": "0x1f73e15",
      "logs": [
        {
          "address": "0xbf4a322f1496e5c3d34a9bcdb4c60567b38c7de2",
          "topics": [
            "0xddf252ad1be2c89b69c2b068fc378daa952ba7f163c4a11628f55a4df523b3ef",
            "0x000000000000000000000000c77f7fed3b5cc8249adc428c5f44c9063b9734b4",
            "0x0000000000000000000000000000000000000000000000000000000000000000"
          ],
          "data": "0x000000000000000000000000000000000000000000000034f434613fd48e0d03",
          "blockHash": "0xd464f1b4856343de85c126ca59e710e9935f0b63b3a369f68a6d23a3d90af8ef",
          "blockNumber": "0x725d5d",
          "transactionHash": "0x37193aea5ff9b5c896c53d6f0cd23a392a64da6851ec1373cd706dee5c64cc1f",
          "transactionIndex": "0x108",
          "logIndex": "0x22b",
          "removed": false
        },
        {
          "address": "0xbf4a322f1496e5c3d34a9bcdb4c60567b38c7de2",
          "topics": [
            "0x4afcb4a87cdbd9974efdb92ee48bc8d7cd0ae4bf217004db3d080cbaee652ca7"
          ],
          "data": "0x00000000000000000000000000000000000000000000000000000000678752d000000000000000000000000000000000000000000000000000039c949aebec9e0000000000000000000000000000000000000000000000000dc7e3dab0aa25dd",
          "blockHash": "0xd464f1b4856343de85c126ca59e710e9935f0b63b3a369f68a6d23a3d90af8ef",
          "blockNumber": "0x725d5d",
          "transactionHash": "0x37193aea5ff9b5c896c53d6f0cd23a392a64da6851ec1373cd706dee5c64cc1f",
          "transactionIndex": "0x108",
          "logIndex": "0x22c",
          "removed": false
        }
      ],
      "logsBloom": "0x00000000000000000000000000000000000000000000000000000000000000000000000000000000000000000000000000000000000000004000000000000000000000000000000000000008000000000000001000000000000000000000000000000000020000000000000000000800020000000000000000000010000000000000000000000000000000000000000000000000000008000000010000000000000000000000000000000000000000004000000000000000000000000000000000000002000000800000000000001000000000000000080000000000000020000000000000000000000000000000000000000000000000000000000000000000",
      "type": "0x2",
      "transactionHash": "0x37193aea5ff9b5c896c53d6f0cd23a392a64da6851ec1373cd706dee5c64cc1f",
      "transactionIndex": "0x108",
      "blockHash": "0xd464f1b4856343de85c126ca59e710e9935f0b63b3a369f68a6d23a3d90af8ef",
      "blockNumber": "0x725d5d",
      "gasUsed": "0xfb91",
      "effectiveGasPrice": "0x31288f8d5",
      "from": "0xc77f7fed3b5cc8249adc428c5f44c9063b9734b4",
      "to": "0xbf4a322f1496e5c3d34a9bcdb4c60567b38c7de2",
      "contractAddress": null
    }
  ],
  "libraries": [],
  "pending": [],
  "returns": {},
  "timestamp": 1736921809,
  "chain": 11155111,
  "commit": "51a374b"
}