{
  "transactions": [
    {
      "hash": "0x550d39e862eea02027323a033bd3a22fd11983042e59af2d2cba36925475803a",
      "transactionType": "CALL",
      "contractName": null,
      "contractAddress": "0x8aafd3ede9adb0ff97c7aebce82a919afb1c8764",
      "function": "sell(uint256)",
      "arguments": [
        "1447861"
      ],
      "transaction": {
        "from": "0xc77f7fed3b5cc8249adc428c5f44c9063b9734b4",
        "to": "0x8aafd3ede9adb0ff97c7aebce82a919afb1c8764",
        "gas": "0x16208",
        "value": "0x0",
        "input": "0xe4849b3200000000000000000000000000000000000000000000000000000000001617b5",
        "nonce": "0x117e",
        "chainId": "0xaa36a7"
      },
      "additionalContracts": [],
      "isFixedGasLimit": false
    }
  ],
  "receipts": [
    {
      "status": "0x1",
      "cumulativeGasUsed": "0xe5883b",
      "logs": [
        {
          "address": "0x8aafd3ede9adb0ff97c7aebce82a919afb1c8764",
          "topics": [
            "0xddf252ad1be2c89b69c2b068fc378daa952ba7f163c4a11628f55a4df523b3ef",
            "0x000000000000000000000000c77f7fed3b5cc8249adc428c5f44c9063b9734b4",
            "0x0000000000000000000000000000000000000000000000000000000000000000"
          ],
          "data": "0x000000000000000000000000000000000000000000000000000000000015ea77",
          "blockHash": "0x18955d2804d23969871491f406b74bc40603246a13de308d79408f732c803aa3",
          "blockNumber": "0x731840",
          "transactionHash": "0x550d39e862eea02027323a033bd3a22fd11983042e59af2d2cba36925475803a",
          "transactionIndex": "0xb8",
          "logIndex": "0xd3",
          "removed": false
        },
        {
          "address": "0x8aafd3ede9adb0ff97c7aebce82a919afb1c8764",
          "topics": [
            "0xddf252ad1be2c89b69c2b068fc378daa952ba7f163c4a11628f55a4df523b3ef",
            "0x000000000000000000000000c77f7fed3b5cc8249adc428c5f44c9063b9734b4",
            "0x000000000000000000000000c77f7fed3b5cc8249adc428c5f44c9063b9734b4"
          ],
          "data": "0x0000000000000000000000000000000000000000000000000000000000002d3e",
          "blockHash": "0x18955d2804d23969871491f406b74bc40603246a13de308d79408f732c803aa3",
          "blockNumber": "0x731840",
          "transactionHash": "0x550d39e862eea02027323a033bd3a22fd11983042e59af2d2cba36925475803a",
          "transactionIndex": "0xb8",
          "logIndex": "0xd4",
          "removed": false
        },
        {
          "address": "0x8aafd3ede9adb0ff97c7aebce82a919afb1c8764",
          "topics": [
            "0x4afcb4a87cdbd9974efdb92ee48bc8d7cd0ae4bf217004db3d080cbaee652ca7"
          ],
          "data": "0x0000000000000000000000000000000000000000000000000000000067901fc400000000000000000000000000000000000000000000000000051d974b7c88490000000000000000000000000000000000000000000000000000000000000824",
          "blockHash": "0x18955d2804d23969871491f406b74bc40603246a13de308d79408f732c803aa3",
          "blockNumber": "0x731840",
          "transactionHash": "0x550d39e862eea02027323a033bd3a22fd11983042e59af2d2cba36925475803a",
          "transactionIndex": "0xb8",
          "logIndex": "0xd5",
          "removed": false
        }
      ],
      "logsBloom": "0x00000000000000000000000000000000000000000600000000000000000000000000000000000000000000000000000000000000000000004000000000000000000000000000004000000008000000000000000000000000000000000000000000000000020000000000000000000800020000000000000000000010000000000000000000000000000000000000000000000000000000000000010000000000000000000000000000000000000000004000000000000000000000000000000000000002000000800000000000000000000000000000080000000000000020000000000000000000000000000000000000000000000000000000000000000000",
      "type": "0x2",
      "transactionHash": "0x550d39e862eea02027323a033bd3a22fd11983042e59af2d2cba36925475803a",
      "transactionIndex": "0xb8",
      "blockHash": "0x18955d2804d23969871491f406b74bc40603246a13de308d79408f732c803aa3",
      "blockNumber": "0x731840",
      "gasUsed": "0xf213",
      "effectiveGasPrice": "0x4a7ba3da",
      "from": "0xc77f7fed3b5cc8249adc428c5f44c9063b9734b4",
      "to": "0x8aafd3ede9adb0ff97c7aebce82a919afb1c8764",
      "contractAddress": null
    }
  ],
  "libraries": [],
  "pending": [],
  "returns": {},
  "timestamp": 1737498565,
  "chain": 11155111,
  "commit": "1d2fb70"
}