{
  "transactions": [
    {
      "hash": "0x6465e0b870d40c89e946a223d368b9596737c87ecf7fc481f0b4bd049fca49a9",
      "transactionType": "CALL",
      "contractName": null,
      "contractAddress": "0x270e88f8683660553e8ba4eb2ad7c91a1710d769",
      "function": "sell(uint256)",
      "arguments": [
        "957283350063458436046"
      ],
      "transaction": {
        "from": "0xc77f7fed3b5cc8249adc428c5f44c9063b9734b4",
        "to": "0x270e88f8683660553e8ba4eb2ad7c91a1710d769",
        "gas": "0x16fec",
        "value": "0x0",
        "input": "0xe4849b32000000000000000000000000000000000000000000000033e4f9a6fa685a43ce",
        "nonce": "0x5bd",
        "chainId": "0xaa36a7"
      },
      "additionalContracts": [],
      "isFixedGasLimit": false
    }
  ],
  "receipts": [
    {
      "status": "0x1",
      "cumulativeGasUsed": "0x1648726",
      "logs": [
        {
          "address": "0x270e88f8683660553e8ba4eb2ad7c91a1710d769",
          "topics": [
            "0xddf252ad1be2c89b69c2b068fc378daa952ba7f163c4a11628f55a4df523b3ef",
            "0x000000000000000000000000c77f7fed3b5cc8249adc428c5f44c9063b9734b4",
            "0x0000000000000000000000000000000000000000000000000000000000000000"
          ],
          "data": "0x000000000000000000000000000000000000000000000033e4f9a6fa685a43ce",
          "blockHash": "0xe97e9faf0103b14d78e8fd867c35201f759c162b11a0554f0c2a9e1116fc5fe1",
          "blockNumber": "0x72527c",
          "transactionHash": "0x6465e0b870d40c89e946a223d368b9596737c87ecf7fc481f0b4bd049fca49a9",
          "transactionIndex": "0x6c",
          "logIndex": "0xb5",
          "removed": false
        },
        {
          "address": "0x270e88f8683660553e8ba4eb2ad7c91a1710d769",
          "topics": [
            "0x4afcb4a87cdbd9974efdb92ee48bc8d7cd0ae4bf217004db3d080cbaee652ca7"
          ],
          "data": "0x000000000000000000000000000000000000000000000000000000006786cfc00000000000000000000000000000000000000000000000000003afb9484fca110000000000000000000000000000000000000000000000000dc83ee83cf8f4f6",
          "blockHash": "0xe97e9faf0103b14d78e8fd867c35201f759c162b11a0554f0c2a9e1116fc5fe1",
          "blockNumber": "0x72527c",
          "transactionHash": "0x6465e0b870d40c89e946a223d368b9596737c87ecf7fc481f0b4bd049fca49a9",
          "transactionIndex": "0x6c",
          "logIndex": "0xb6",
          "removed": false
        }
      ],
      "logsBloom": "0x00000000000000000000000000000000000000000000000000000000000000000000000000000000000000000000000020000000000000004000000000000000000000000000000000000008000000000000000000000000000000000000000000000000020000000000000000000800020000000000000000000010000000000000000000010000000000000000000000000000000000000000010000000000000000000000000000000000000000004000000000000000000000000000000000000002000000800000000000000000000000000000080000008000000020000000000000000000000000000000000000000000000000000000000000000000",
      "type": "0x2",
      "transactionHash": "0x6465e0b870d40c89e946a223d368b9596737c87ecf7fc481f0b4bd049fca49a9",
      "transactionIndex": "0x6c",
      "blockHash": "0xe97e9faf0103b14d78e8fd867c35201f759c162b11a0554f0c2a9e1116fc5fe1",
      "blockNumber": "0x72527c",
      "gasUsed": "0xfb93",
      "effectiveGasPrice": "0x3f0e64562",
      "from": "0xc77f7fed3b5cc8249adc428c5f44c9063b9734b4",
      "to": "0x270e88f8683660553e8ba4eb2ad7c91a1710d769",
      "contractAddress": null
    }
  ],
  "libraries": [],
  "pending": [],
  "returns": {},
  "timestamp": 1736888258,
  "chain": 11155111,
  "commit": "51a374b"
}