{
  "transactions": [
    {
      "hash": "0x0b38da3c8066bee31a8f49e1ee91a5fd4432fd9dc15b5f483804293bf3f1f984",
      "transactionType": "CALL",
      "contractName": null,
      "contractAddress": "0x270e88f8683660553e8ba4eb2ad7c91a1710d769",
      "function": "buy(address)",
      "arguments": [
        "0xC77f7fed3b5Cc8249aDc428c5F44C9063B9734b4"
      ],
      "transaction": {
        "from": "0xc77f7fed3b5cc8249adc428c5f44c9063b9734b4",
        "to": "0x270e88f8683660553e8ba4eb2ad7c91a1710d769",
        "gas": "0x1b30c",
        "value": "0xde0b6b3a7640000",
        "input": "0xf088d547000000000000000000000000c77f7fed3b5cc8249adc428c5f44c9063b9734b4",
        "nonce": "0x753",
        "chainId": "0xaa36a7"
      },
      "additionalContracts": [],
      "isFixedGasLimit": false
    }
  ],
  "receipts": [
    {
      "status": "0x1",
      "cumulativeGasUsed": "0x9762ed",
      "logs": [
        {
          "address": "0x270e88f8683660553e8ba4eb2ad7c91a1710d769",
          "topics": [
            "0xddf252ad1be2c89b69c2b068fc378daa952ba7f163c4a11628f55a4df523b3ef",
            "0x0000000000000000000000000000000000000000000000000000000000000000",
            "0x000000000000000000000000c77f7fed3b5cc8249adc428c5f44c9063b9734b4"
          ],
          "data": "0x000000000000000000000000000000000000000000000027e02634737280584a",
          "blockHash": "0x438a9e71d1f9491ec26c43ba7fbb1430592dcbddc27064bc535c7bd9d65cb80e",
          "blockNumber": "0x725479",
          "transactionHash": "0x0b38da3c8066bee31a8f49e1ee91a5fd4432fd9dc15b5f483804293bf3f1f984",
          "transactionIndex": "0x45",
          "logIndex": "0x80",
          "removed": false
        },
        {
          "address": "0x270e88f8683660553e8ba4eb2ad7c91a1710d769",
          "topics": [
            "0xddf252ad1be2c89b69c2b068fc378daa952ba7f163c4a11628f55a4df523b3ef",
            "0x0000000000000000000000000000000000000000000000000000000000000000",
            "0x000000000000000000000000c77f7fed3b5cc8249adc428c5f44c9063b9734b4"
          ],
          "data": "0x0000000000000000000000000000000000000000000000001ef6f9e07f2bbe43",
          "blockHash": "0x438a9e71d1f9491ec26c43ba7fbb1430592dcbddc27064bc535c7bd9d65cb80e",
          "blockNumber": "0x725479",
          "transactionHash": "0x0b38da3c8066bee31a8f49e1ee91a5fd4432fd9dc15b5f483804293bf3f1f984",
          "transactionIndex": "0x45",
          "logIndex": "0x81",
          "removed": false
        },
        {
          "address": "0x270e88f8683660553e8ba4eb2ad7c91a1710d769",
          "topics": [
            "0x4afcb4a87cdbd9974efdb92ee48bc8d7cd0ae4bf217004db3d080cbaee652ca7"
          ],
          "data": "0x000000000000000000000000000000000000000000000000000000006786e7b40000000000000000000000000000000000000000000000000004c82e6f54ff110000000000000000000000000000000000000000000000000de0b6b3a7640000",
          "blockHash": "0x438a9e71d1f9491ec26c43ba7fbb1430592dcbddc27064bc535c7bd9d65cb80e",
          "blockNumber": "0x725479",
          "transactionHash": "0x0b38da3c8066bee31a8f49e1ee91a5fd4432fd9dc15b5f483804293bf3f1f984",
          "transactionIndex": "0x45",
          "logIndex": "0x82",
          "removed": false
        }
      ],
      "logsBloom": "0x00000000000000000000000000000000000000000000000000000000000000000000000000000000000000000000000020000000000000004000000000000000000000000000000000000008000000000000000000000000000000000000000000000000020000000000000000000800020000000000000000000010000000000000000000010000000000000000000000000000000000000000010000000000000000000000000000000000000000004000000000000000000000000000000000000002000000800000000000000000000000000000080000008000000020000000000000000000000000000000000000000000000000000000000000000000",
      "type": "0x2",
      "transactionHash": "0x0b38da3c8066bee31a8f49e1ee91a5fd4432fd9dc15b5f483804293bf3f1f984",
      "transactionIndex": "0x45",
      "blockHash": "0x438a9e71d1f9491ec26c43ba7fbb1430592dcbddc27064bc535c7bd9d65cb80e",
      "blockNumber": "0x725479",
      "gasUsed": "0x13af8",
      "effectiveGasPrice": "0x13a84cb44",
      "from": "0xc77f7fed3b5cc8249adc428c5f44c9063b9734b4",
      "to": "0x270e88f8683660553e8ba4eb2ad7c91a1710d769",
      "contractAddress": null
    }
  ],
  "libraries": [],
  "pending": [],
  "returns": {},
  "timestamp": 1736894389,
  "chain": 11155111,
  "commit": "51a374b"
}