{
  "transactions": [
    {
      "hash": "0x15afb5ba18ec1a3da14ad3b534aa8fff0b0bd23b08dac5d1d44f1d28a203f1be",
      "transactionType": "CALL",
      "contractName": null,
      "contractAddress": "0x5eb9cc76c3506942c1c0ead70e877dd5e4f00cb0",
      "function": "sell(uint256)",
      "arguments": [
        "989616415677063660937"
      ],
      "transaction": {
        "from": "0xc77f7fed3b5cc8249adc428c5f44c9063b9734b4",
        "to": "0x5eb9cc76c3506942c1c0ead70e877dd5e4f00cb0",
        "gas": "0x16fec",
        "value": "0x0",
        "input": "0xe4849b32000000000000000000000000000000000000000000000035a5afc6d886b08589",
        "nonce": "0x247",
        "chainId": "0xaa36a7"
      },
      "additionalContracts": [],
      "isFixedGasLimit": false
    }
  ],
  "receipts": [
    {
      "status": "0x1",
      "cumulativeGasUsed": "0xf45fb7",
      "logs": [
        {
          "address": "0x5eb9cc76c3506942c1c0ead70e877dd5e4f00cb0",
          "topics": [
            "0xddf252ad1be2c89b69c2b068fc378daa952ba7f163c4a11628f55a4df523b3ef",
            "0x000000000000000000000000c77f7fed3b5cc8249adc428c5f44c9063b9734b4",
            "0x0000000000000000000000000000000000000000000000000000000000000000"
          ],
          "data": "0x000000000000000000000000000000000000000000000035a5afc6d886b08589",
          "blockHash": "0x096dba91ccd01498f254c13d54b000bf24e7161013b16ad709a2dba482da3876",
          "blockNumber": "0x724dff",
          "transactionHash": "0x15afb5ba18ec1a3da14ad3b534aa8fff0b0bd23b08dac5d1d44f1d28a203f1be",
          "transactionIndex": "0x80",
          "logIndex": "0xcf",
          "removed": false
        },
        {
          "address": "0x5eb9cc76c3506942c1c0ead70e877dd5e4f00cb0",
          "topics": [
            "0x4afcb4a87cdbd9974efdb92ee48bc8d7cd0ae4bf217004db3d080cbaee652ca7"
          ],
          "data": "0x00000000000000000000000000000000000000000000000000000000678699a80000000000000000000000000000000000000000000000000003909b7d28d16d0000000000000000000000000000000000000000000000000dc7db11837d2985",
          "blockHash": "0x096dba91ccd01498f254c13d54b000bf24e7161013b16ad709a2dba482da3876",
          "blockNumber": "0x724dff",
          "transactionHash": "0x15afb5ba18ec1a3da14ad3b534aa8fff0b0bd23b08dac5d1d44f1d28a203f1be",
          "transactionIndex": "0x80",
          "logIndex": "0xd0",
          "removed": false
        }
      ],
      "logsBloom": "0x00000000000000000000000000000000000000000000000000000000000000000000000000000000000000000000000000000000000000004000000000000000000000000000000000000008000000000000000000000000000000000000000000000000020000000000000004000800020000000000000000000010000000000000000000000000000000000000000000000000000000000000010000000000000000000000000000000000000000004000000000000000000000000000020000000002000000800000008000000000000000000000080000000000000020000000000000000000000000000000000000000000000000000000000000000000",
      "type": "0x2",
      "transactionHash": "0x15afb5ba18ec1a3da14ad3b534aa8fff0b0bd23b08dac5d1d44f1d28a203f1be",
      "transactionIndex": "0x80",
      "blockHash": "0x096dba91ccd01498f254c13d54b000bf24e7161013b16ad709a2dba482da3876",
      "blockNumber": "0x724dff",
      "gasUsed": "0xfb93",
      "effectiveGasPrice": "0x3968131d3",
      "from": "0xc77f7fed3b5cc8249adc428c5f44c9063b9734b4",
      "to": "0x5eb9cc76c3506942c1c0ead70e877dd5e4f00cb0",
      "contractAddress": null
    }
  ],
  "libraries": [],
  "pending": [],
  "returns": {},
  "timestamp": 1736874411,
  "chain": 11155111,
  "commit": "51a374b"
}