{
  "transactions": [
    {
      "hash": "0xcf6786973719f5ff533e0ce25c6a74ea971d3bce96018e07f5c231bc032dec59",
      "transactionType": "CALL",
      "contractName": null,
      "contractAddress": "0x5eb9cc76c3506942c1c0ead70e877dd5e4f00cb0",
      "function": "buy(address)",
      "arguments": [
        "0xC77f7fed3b5Cc8249aDc428c5F44C9063B9734b4"
      ],
      "transaction": {
        "from": "0xc77f7fed3b5cc8249adc428c5f44c9063b9734b4",
        "to": "0x5eb9cc76c3506942c1c0ead70e877dd5e4f00cb0",
        "gas": "0x156c8",
        "value": "0x2386f26fc10000",
        "input": "0xf088d547000000000000000000000000c77f7fed3b5cc8249adc428c5f44c9063b9734b4",
        "nonce": "0x126",
        "chainId": "0xaa36a7"
      },
      "additionalContracts": [],
      "isFixedGasLimit": false
    }
  ],
  "receipts": [
    {
      "status": "0x1",
      "cumulativeGasUsed": "0xeaf2fd",
      "logs": [
        {
          "address": "0x5eb9cc76c3506942c1c0ead70e877dd5e4f00cb0",
          "topics": [
            "0xddf252ad1be2c89b69c2b068fc378daa952ba7f163c4a11628f55a4df523b3ef",
            "0x0000000000000000000000000000000000000000000000000000000000000000",
            "0x000000000000000000000000c77f7fed3b5cc8249adc428c5f44c9063b9734b4"
          ],
          "data": "0x0000000000000000000000000000000000000000000000008963dd7ebbad8dd0",
          "blockHash": "0x40432965c7118c4c788a248440fc0b49f7c2bc5f98a4d91fdf87463a3c2d1e0e",
          "blockNumber": "0x723b03",
          "transactionHash": "0xcf6786973719f5ff533e0ce25c6a74ea971d3bce96018e07f5c231bc032dec59",
          "transactionIndex": "0x51",
          "logIndex": "0x63",
          "removed": false
        },
        {
          "address": "0x5eb9cc76c3506942c1c0ead70e877dd5e4f00cb0",
          "topics": [
            "0xddf252ad1be2c89b69c2b068fc378daa952ba7f163c4a11628f55a4df523b3ef",
            "0x0000000000000000000000000000000000000000000000000000000000000000",
            "0x000000000000000000000000c77f7fed3b5cc8249adc428c5f44c9063b9734b4"
          ],
          "data": "0x000000000000000000000000000000000000000000000000006ab0272e18f4ca",
          "blockHash": "0x40432965c7118c4c788a248440fc0b49f7c2bc5f98a4d91fdf87463a3c2d1e0e",
          "blockNumber": "0x723b03",
          "transactionHash": "0xcf6786973719f5ff533e0ce25c6a74ea971d3bce96018e07f5c231bc032dec59",
          "transactionIndex": "0x51",
          "logIndex": "0x64",
          "removed": false
        },
        {
          "address": "0x5eb9cc76c3506942c1c0ead70e877dd5e4f00cb0",
          "topics": [
            "0x4afcb4a87cdbd9974efdb92ee48bc8d7cd0ae4bf217004db3d080cbaee652ca7"
          ],
          "data": "0x000000000000000000000000000000000000000000000000000000006785b57800000000000000000000000000000000000000000000000000038d7ea53143ff000000000000000000000000000000000000000000000000002386f26fc10000",
          "blockHash": "0x40432965c7118c4c788a248440fc0b49f7c2bc5f98a4d91fdf87463a3c2d1e0e",
          "blockNumber": "0x723b03",
          "transactionHash": "0xcf6786973719f5ff533e0ce25c6a74ea971d3bce96018e07f5c231bc032dec59",
          "transactionIndex": "0x51",
          "logIndex": "0x65",
          "removed": false
        }
      ],
      "logsBloom": "0x00000000000000000000000000000000000000000000000000000000000000000000000000000000000000000000000000000000000000004000000000000000000000000000000000000008000000000000000000000000000000000000000000000000020000000000000004000800020000000000000000000010000000000000000000000000000000000000000000000000000000000000010000000000000000000000000000000000000000004000000000000000000000000000020000000002000000800000008000000000000000000000080000000000000020000000000000000000000000000000000000000000000000000000000000000000",
      "type": "0x2",
      "transactionHash": "0xcf6786973719f5ff533e0ce25c6a74ea971d3bce96018e07f5c231bc032dec59",
      "transactionIndex": "0x51",
      "blockHash": "0x40432965c7118c4c788a248440fc0b49f7c2bc5f98a4d91fdf87463a3c2d1e0e",
      "blockNumber": "0x723b03",
      "gasUsed": "0xf82c",
      "effectiveGasPrice": "0x2494316f4",
      "from": "0xc77f7fed3b5cc8249adc428c5f44c9063b9734b4",
      "to": "0x5eb9cc76c3506942c1c0ead70e877dd5e4f00cb0",
      "contractAddress": null
    }
  ],
  "libraries": [],
  "pending": [],
  "returns": {},
  "timestamp": 1736815993,
  "chain": 11155111,
  "commit": "51a374b"
}