{
  "transactions": [
    {
      "hash": "0x5a34300026c83e3939f32e31399912b5651be422cf83460a679c47a8128be782",
      "transactionType": "CALL",
      "contractName": null,
      "contractAddress": "0x270e88f8683660553e8ba4eb2ad7c91a1710d769",
      "function": "buy(address)",
      "arguments": [
        "0xC77f7fed3b5Cc8249aDc428c5F44C9063B9734b4"
      ],
      "transaction": {
        "from": "0xc77f7fed3b5cc8249adc428c5f44c9063b9734b4",
        "to": "0x270e88f8683660553e8ba4eb2ad7c91a1710d769",
        "gas": "0x1b30c",
        "value": "0xde0b6b3a7640000",
        "input": "0xf088d547000000000000000000000000c77f7fed3b5cc8249adc428c5f44c9063b9734b4",
        "nonce": "0x7cd",
        "chainId": "0xaa36a7"
      },
      "additionalContracts": [],
      "isFixedGasLimit": false
    }
  ],
  "receipts": [
    {
      "status": "0x1",
      "cumulativeGasUsed": "0x8c9795",
      "logs": [
        {
          "address": "0x270e88f8683660553e8ba4eb2ad7c91a1710d769",
          "topics": [
            "0xddf252ad1be2c89b69c2b068fc378daa952ba7f163c4a11628f55a4df523b3ef",
            "0x0000000000000000000000000000000000000000000000000000000000000000",
            "0x000000000000000000000000c77f7fed3b5cc8249adc428c5f44c9063b9734b4"
          ],
          "data": "0x0000000000000000000000000000000000000000000000274d445de252d54140",
          "blockHash": "0x27404982d6d5e3bfcf1036d55224866c824bfd06d4694b7ae12920613167fae4",
          "blockNumber": "0x725505",
          "transactionHash": "0x5a34300026c83e3939f32e31399912b5651be422cf83460a679c47a8128be782",
          "transactionIndex": "0x54",
          "logIndex": "0x8b",
          "removed": false
        },
        {
          "address": "0x270e88f8683660553e8ba4eb2ad7c91a1710d769",
          "topics": [
            "0xddf252ad1be2c89b69c2b068fc378daa952ba7f163c4a11628f55a4df523b3ef",
            "0x0000000000000000000000000000000000000000000000000000000000000000",
            "0x000000000000000000000000c77f7fed3b5cc8249adc428c5f44c9063b9734b4"
          ],
          "data": "0x0000000000000000000000000000000000000000000000001e84eac45b8a6571",
          "blockHash": "0x27404982d6d5e3bfcf1036d55224866c824bfd06d4694b7ae12920613167fae4",
          "blockNumber": "0x725505",
          "transactionHash": "0x5a34300026c83e3939f32e31399912b5651be422cf83460a679c47a8128be782",
          "transactionIndex": "0x54",
          "logIndex": "0x8c",
          "removed": false
        },
        {
          "address": "0x270e88f8683660553e8ba4eb2ad7c91a1710d769",
          "topics": [
            "0x4afcb4a87cdbd9974efdb92ee48bc8d7cd0ae4bf217004db3d080cbaee652ca7"
          ],
          "data": "0x000000000000000000000000000000000000000000000000000000006786ee440000000000000000000000000000000000000000000000000004da0d2a26a1c30000000000000000000000000000000000000000000000000de0b6b3a7640000",
          "blockHash": "0x27404982d6d5e3bfcf1036d55224866c824bfd06d4694b7ae12920613167fae4",
          "blockNumber": "0x725505",
          "transactionHash": "0x5a34300026c83e3939f32e31399912b5651be422cf83460a679c47a8128be782",
          "transactionIndex": "0x54",
          "logIndex": "0x8d",
          "removed": false
        }
      ],
      "logsBloom": "0x00000000000000000000000000000000000000000000000000000000000000000000000000000000000000000000000020000000000000004000000000000000000000000000000000000008000000000000000000000000000000000000000000000000020000000000000000000800020000000000000000000010000000000000000000010000000000000000000000000000000000000000010000000000000000000000000000000000000000004000000000000000000000000000000000000002000000800000000000000000000000000000080000008000000020000000000000000000000000000000000000000000000000000000000000000000",
      "type": "0x2",
      "transactionHash": "0x5a34300026c83e3939f32e31399912b5651be422cf83460a679c47a8128be782",
      "transactionIndex": "0x54",
      "blockHash": "0x27404982d6d5e3bfcf1036d55224866c824bfd06d4694b7ae12920613167fae4",
      "blockNumber": "0x725505",
      "gasUsed": "0x13af8",
      "effectiveGasPrice": "0xbfec1086",
      "from": "0xc77f7fed3b5cc8249adc428c5f44c9063b9734b4",
      "to": "0x270e88f8683660553e8ba4eb2ad7c91a1710d769",
      "contractAddress": null
    }
  ],
  "libraries": [],
  "pending": [],
  "returns": {},
  "timestamp": 1736896069,
  "chain": 11155111,
  "commit": "51a374b"
}