{
  "transactions": [
    {
      "hash": "0xce903b71314180ccea13bc2efaecb3f10cf78d43193049a57144ecc07902ffd8",
      "transactionType": "CALL",
      "contractName": null,
      "contractAddress": "0x4cf4fdeb79805d000d5201cbbecca80cf4087a6e",
      "function": "leverage(uint256,uint256)",
      "arguments": [
        "10000000000000000000",
        "0"
      ],
      "transaction": {
        "from": "0xc77f7fed3b5cc8249adc428c5f44c9063b9734b4",
        "to": "0x4cf4fdeb79805d000d5201cbbecca80cf4087a6e",
        "gas": "0x58c2c",
        "value": "0x2e6297175944000",
        "input": "0x5e96263c0000000000000000000000000000000000000000000000008ac7230489e800000000000000000000000000000000000000000000000000000000000000000000",
        "nonce": "0x1829",
        "chainId": "0xaa36a7"
      },
      "additionalContracts": [],
      "isFixedGasLimit": false
    }
  ],
  "receipts": [
    {
      "status": "0x1",
      "cumulativeGasUsed": "0x3cdbef",
      "logs": [
        {
          "address": "0x4cf4fdeb79805d000d5201cbbecca80cf4087a6e",
          "topics": [
            "0xddf252ad1be2c89b69c2b068fc378daa952ba7f163c4a11628f55a4df523b3ef",
            "0x0000000000000000000000000000000000000000000000000000000000000000",
            "0x0000000000000000000000004cf4fdeb79805d000d5201cbbecca80cf4087a6e"
          ],
          "data": "0x00000000000000000000000000000000000000000000003da00392a2d8f35e70",
          "blockHash": "0x17d7db6d8041f7f6a20775e34476195f160a9a7812aaa02217f6b1f5e7db8f46",
          "blockNumber": "0x735005",
          "transactionHash": "0xce903b71314180ccea13bc2efaecb3f10cf78d43193049a57144ecc07902ffd8",
          "transactionIndex": "0x21",
          "logIndex": "0x48",
          "removed": false
        },
        {
          "address": "0x4cf4fdeb79805d000d5201cbbecca80cf4087a6e",
          "topics": [
            "0xddf252ad1be2c89b69c2b068fc378daa952ba7f163c4a11628f55a4df523b3ef",
            "0x0000000000000000000000000000000000000000000000000000000000000000",
            "0x000000000000000000000000c77f7fed3b5cc8249adc428c5f44c9063b9734b4"
          ],
          "data": "0x00000000000000000000000000000000000000000000000034a3cf7d4ecad105",
          "blockHash": "0x17d7db6d8041f7f6a20775e34476195f160a9a7812aaa02217f6b1f5e7db8f46",
          "blockNumber": "0x735005",
          "transactionHash": "0xce903b71314180ccea13bc2efaecb3f10cf78d43193049a57144ecc07902ffd8",
          "transactionIndex": "0x21",
          "logIndex": "0x49",
          "removed": false
        },
        {
          "address": "0x4cf4fdeb79805d000d5201cbbecca80cf4087a6e",
          "topics": [
            "0xaec00f5213a37254bc68a26b0685d1a5b2bf513e1e587c94c7df7f4a62b56c9c"
          ],
          "data": "0x00000000000000000000000000000000000000000000003da00392a2d8f35e7000000000000000000000000000000000000000000000000087e0f9931453c00000000000000000000000000000000000000000000000000087e0f9931453c00000000000000000000000000000000000000000000000003da00392a2d8f35e70",
          "blockHash": "0x17d7db6d8041f7f6a20775e34476195f160a9a7812aaa02217f6b1f5e7db8f46",
          "blockNumber": "0x735005",
          "transactionHash": "0xce903b71314180ccea13bc2efaecb3f10cf78d43193049a57144ecc07902ffd8",
          "transactionIndex": "0x21",
          "logIndex": "0x4a",
          "removed": false
        },
        {
          "address": "0x4cf4fdeb79805d000d5201cbbecca80cf4087a6e",
          "topics": [
            "0x03bbe564cb1b78e43195eeadbde99e5b89b19345862807fcfb59f884e4165e25"
          ],
          "data": "0x000000000000000000000000c77f7fed3b5cc8249adc428c5f44c9063b9734b4000000000000000000000000000000000000000000000000015f5d06a8494000",
          "blockHash": "0x17d7db6d8041f7f6a20775e34476195f160a9a7812aaa02217f6b1f5e7db8f46",
          "blockNumber": "0x735005",
          "transactionHash": "0xce903b71314180ccea13bc2efaecb3f10cf78d43193049a57144ecc07902ffd8",
          "transactionIndex": "0x21",
          "logIndex": "0x4b",
          "removed": false
        },
        {
          "address": "0x4cf4fdeb79805d000d5201cbbecca80cf4087a6e",
          "topics": [
            "0x4afcb4a87cdbd9974efdb92ee48bc8d7cd0ae4bf217004db3d080cbaee652ca7"
          ],
          "data": "0x000000000000000000000000000000000000000000000000000000006792cedc000000000000000000000000000000000000000000000000001e9a6d2a88d5040000000000000000000000000000000000000000000000008ac7230489e80000",
          "blockHash": "0x17d7db6d8041f7f6a20775e34476195f160a9a7812aaa02217f6b1f5e7db8f46",
          "blockNumber": "0x735005",
          "transactionHash": "0xce903b71314180ccea13bc2efaecb3f10cf78d43193049a57144ecc07902ffd8",
          "transactionIndex": "0x21",
          "logIndex": "0x4c",
          "removed": false
        }
      ],
      "logsBloom": "0x00000000000000000000000000000100400000000000000000000000000000000008000000000000000000000000000000002000000000004000000000000000000000000000000000000008000000004000000000000000000000000000000000000000020000000000000000000800020000000000000000000010000000000000000000000000000000000000000000000000000000000000010000000000000000002000000000000400000000084000000000040000000000001000000000000002000000800000000000000000800000000000080000000000000020000000000000000000000000000000000000000000000010000000000000000000",
      "type": "0x2",
      "transactionHash": "0xce903b71314180ccea13bc2efaecb3f10cf78d43193049a57144ecc07902ffd8",
      "transactionIndex": "0x21",
      "blockHash": "0x17d7db6d8041f7f6a20775e34476195f160a9a7812aaa02217f6b1f5e7db8f46",
      "blockNumber": "0x735005",
      "gasUsed": "0x4042f",
      "effectiveGasPrice": "0x379607bb",
      "from": "0xc77f7fed3b5cc8249adc428c5f44c9063b9734b4",
      "to": "0x4cf4fdeb79805d000d5201cbbecca80cf4087a6e",
      "contractAddress": null
    }
  ],
  "libraries": [],
  "pending": [],
  "returns": {},
  "timestamp": 1737674461,
  "chain": 11155111,
  "commit": "f5162e9"
}