{
  "transactions": [
    {
      "hash": "0x26d0e4087f5f466733b7449452342972cce46ef532730e48f1b6514ee877eca0",
      "transactionType": "CALL",
      "contractName": null,
      "contractAddress": "0x8aafd3ede9adb0ff97c7aebce82a919afb1c8764",
      "function": "sell(uint256)",
      "arguments": [
        "11149"
      ],
      "transaction": {
        "from": "0xc77f7fed3b5cc8249adc428c5f44c9063b9734b4",
        "to": "0x8aafd3ede9adb0ff97c7aebce82a919afb1c8764",
        "gas": "0x14e4c",
        "value": "0x0",
        "input": "0xe4849b320000000000000000000000000000000000000000000000000000000000002b8d",
        "nonce": "0x12dd",
        "chainId": "0xaa36a7"
      },
      "additionalContracts": [],
      "isFixedGasLimit": false
    }
  ],
  "receipts": [
    {
      "status": "0x1",
      "cumulativeGasUsed": "0xb2f680",
      "logs": [
        {
          "address": "0x8aafd3ede9adb0ff97c7aebce82a919afb1c8764",
          "topics": [
            "0xddf252ad1be2c89b69c2b068fc378daa952ba7f163c4a11628f55a4df523b3ef",
            "0x000000000000000000000000c77f7fed3b5cc8249adc428c5f44c9063b9734b4",
            "0x0000000000000000000000000000000000000000000000000000000000000000"
          ],
          "data": "0x0000000000000000000000000000000000000000000000000000000000002b34",
          "blockHash": "0x145621ac14fa6656b07f765c4e53a9c087477a445762303e5c259ec25a988fa8",
          "blockNumber": "0x7319de",
          "transactionHash": "0x26d0e4087f5f466733b7449452342972cce46ef532730e48f1b6514ee877eca0",
          "transactionIndex": "0x88",
          "logIndex": "0xbf",
          "removed": false
        },
        {
          "address": "0x8aafd3ede9adb0ff97c7aebce82a919afb1c8764",
          "topics": [
            "0xddf252ad1be2c89b69c2b068fc378daa952ba7f163c4a11628f55a4df523b3ef",
            "0x000000000000000000000000c77f7fed3b5cc8249adc428c5f44c9063b9734b4",
            "0x000000000000000000000000c77f7fed3b5cc8249adc428c5f44c9063b9734b4"
          ],
          "data": "0x0000000000000000000000000000000000000000000000000000000000000059",
          "blockHash": "0x145621ac14fa6656b07f765c4e53a9c087477a445762303e5c259ec25a988fa8",
          "blockNumber": "0x7319de",
          "transactionHash": "0x26d0e4087f5f466733b7449452342972cce46ef532730e48f1b6514ee877eca0",
          "transactionIndex": "0x88",
          "logIndex": "0xc0",
          "removed": false
        },
        {
          "address": "0x8aafd3ede9adb0ff97c7aebce82a919afb1c8764",
          "topics": [
            "0x4afcb4a87cdbd9974efdb92ee48bc8d7cd0ae4bf217004db3d080cbaee652ca7"
          ],
          "data": "0x0000000000000000000000000000000000000000000000000000000067903338000000000000000000000000000000000000000000000000000550735e5f9e220000000000000000000000000000000000000000000000000000000000000010",
          "blockHash": "0x145621ac14fa6656b07f765c4e53a9c087477a445762303e5c259ec25a988fa8",
          "blockNumber": "0x7319de",
          "transactionHash": "0x26d0e4087f5f466733b7449452342972cce46ef532730e48f1b6514ee877eca0",
          "transactionIndex": "0x88",
          "logIndex": "0xc1",
          "removed": false
        }
      ],
      "logsBloom": "0x00000000000000000000000000000000000000000600000000000000000000000000000000000000000000000000000000000000000000004000000000000000000000000000004000000008000000000000000000000000000000000000000000000000020000000000000000000800020000000000000000000010000000000000000000000000000000000000000000000000000000000000010000000000000000000000000000000000000000004000000000000000000000000000000000000002000000800000000000000000000000000000080000000000000020000000000000000000000000000000000000000000000000000000000000000000",
      "type": "0x2",
      "transactionHash": "0x26d0e4087f5f466733b7449452342972cce46ef532730e48f1b6514ee877eca0",
      "transactionIndex": "0x88",
      "blockHash": "0x145621ac14fa6656b07f765c4e53a9c087477a445762303e5c259ec25a988fa8",
      "blockNumber": "0x7319de",
      "gasUsed": "0xf207",
      "effectiveGasPrice": "0x4b2e7209",
      "from": "0xc77f7fed3b5cc8249adc428c5f44c9063b9734b4",
      "to": "0x8aafd3ede9adb0ff97c7aebce82a919afb1c8764",
      "contractAddress": null
    }
  ],
  "libraries": [],
  "pending": [],
  "returns": {},
  "timestamp": 1737503545,
  "chain": 11155111,
  "commit": "1d2fb70"
}