{
  "transactions": [
    {
      "hash": "0xd6dd0ca3bd71c620a0eac24f863dd7392070af002a9f7231c5542de5016494a9",
      "transactionType": "CALL",
      "contractName": null,
      "contractAddress": "0xbf4a322f1496e5c3d34a9bcdb4c60567b38c7de2",
      "function": "sell(uint256)",
      "arguments": [
        "980818984306877415766"
      ],
      "transaction": {
        "from": "0xc77f7fed3b5cc8249adc428c5f44c9063b9734b4",
        "to": "0xbf4a322f1496e5c3d34a9bcdb4c60567b38c7de2",
        "gas": "0x16fea",
        "value": "0x0",
        "input": "0xe4849b320000000000000000000000000000000000000000000000352b9905a01adc4156",
        "nonce": "0xbdb",
        "chainId": "0xaa36a7"
      },
      "additionalContracts": [],
      "isFixedGasLimit": false
    }
  ],
  "receipts": [
    {
      "status": "0x1",
      "cumulativeGasUsed": "0xe4b3ea",
      "logs": [
        {
          "address": "0xbf4a322f1496e5c3d34a9bcdb4c60567b38c7de2",
          "topics": [
            "0xddf252ad1be2c89b69c2b068fc378daa952ba7f163c4a11628f55a4df523b3ef",
            "0x000000000000000000000000c77f7fed3b5cc8249adc428c5f44c9063b9734b4",
            "0x0000000000000000000000000000000000000000000000000000000000000000"
          ],
          "data": "0x0000000000000000000000000000000000000000000000352b9905a01adc4156",
          "blockHash": "0xec5bd3d6ad53bdcba9bdd4c0b666c9878220ec1eb0a3634565810dba4b9b1440",
          "blockNumber": "0x725bfe",
          "transactionHash": "0xd6dd0ca3bd71c620a0eac24f863dd7392070af002a9f7231c5542de5016494a9",
          "transactionIndex": "0x4b",
          "logIndex": "0x66",
          "removed": false
        },
        {
          "address": "0xbf4a322f1496e5c3d34a9bcdb4c60567b38c7de2",
          "topics": [
            "0x4afcb4a87cdbd9974efdb92ee48bc8d7cd0ae4bf217004db3d080cbaee652ca7"
          ],
          "data": "0x0000000000000000000000000000000000000000000000000000000067874244000000000000000000000000000000000000000000000000000398d165e9cf360000000000000000000000000000000000000000000000000dc7e3e3f871866a",
          "blockHash": "0xec5bd3d6ad53bdcba9bdd4c0b666c9878220ec1eb0a3634565810dba4b9b1440",
          "blockNumber": "0x725bfe",
          "transactionHash": "0xd6dd0ca3bd71c620a0eac24f863dd7392070af002a9f7231c5542de5016494a9",
          "transactionIndex": "0x4b",
          "logIndex": "0x67",
          "removed": false
        }
      ],
      "logsBloom": "0x00000000000000000000000000000000000000000000000000000000000000000000000000000000000000000000000000000000000000004000000000000000000000000000000000000008000000000000001000000000000000000000000000000000020000000000000000000800020000000000000000000010000000000000000000000000000000000000000000000000000008000000010000000000000000000000000000000000000000004000000000000000000000000000000000000002000000800000000000001000000000000000080000000000000020000000000000000000000000000000000000000000000000000000000000000000",
      "type": "0x2",
      "transactionHash": "0xd6dd0ca3bd71c620a0eac24f863dd7392070af002a9f7231c5542de5016494a9",
      "transactionIndex": "0x4b",
      "blockHash": "0xec5bd3d6ad53bdcba9bdd4c0b666c9878220ec1eb0a3634565810dba4b9b1440",
      "blockNumber": "0x725bfe",
      "gasUsed": "0xfb91",
      "effectiveGasPrice": "0x8a88229b",
      "from": "0xc77f7fed3b5cc8249adc428c5f44c9063b9734b4",
      "to": "0xbf4a322f1496e5c3d34a9bcdb4c60567b38c7de2",
      "contractAddress": null
    }
  ],
  "libraries": [],
  "pending": [],
  "returns": {},
  "timestamp": 1736917574,
  "chain": 11155111,
  "commit": "51a374b"
}