{
  "transactions": [
    {
      "hash": "0xb6659e2d86df175ed91e86f07372761860b7dd0305dcb5dabba7159cf34ee692",
      "transactionType": "CALL",
      "contractName": null,
      "contractAddress": "0x8aafd3ede9adb0ff97c7aebce82a919afb1c8764",
      "function": "sell(uint256)",
      "arguments": [
        "11161"
      ],
      "transaction": {
        "from": "0xc77f7fed3b5cc8249adc428c5f44c9063b9734b4",
        "to": "0x8aafd3ede9adb0ff97c7aebce82a919afb1c8764",
        "gas": "0x14e4c",
        "value": "0x0",
        "input": "0xe4849b320000000000000000000000000000000000000000000000000000000000002b99",
        "nonce": "0x12d3",
        "chainId": "0xaa36a7"
      },
      "additionalContracts": [],
      "isFixedGasLimit": false
    }
  ],
  "receipts": [
    {
      "status": "0x1",
      "cumulativeGasUsed": "0xc1e421",
      "logs": [
        {
          "address": "0x8aafd3ede9adb0ff97c7aebce82a919afb1c8764",
          "topics": [
            "0xddf252ad1be2c89b69c2b068fc378daa952ba7f163c4a11628f55a4df523b3ef",
            "0x000000000000000000000000c77f7fed3b5cc8249adc428c5f44c9063b9734b4",
            "0x0000000000000000000000000000000000000000000000000000000000000000"
          ],
          "data": "0x0000000000000000000000000000000000000000000000000000000000002b40",
          "blockHash": "0x194bb368ae463b72a23cdfb9e97f98fb32bd20903c73589128c61989df3a9b20",
          "blockNumber": "0x7319d1",
          "transactionHash": "0xb6659e2d86df175ed91e86f07372761860b7dd0305dcb5dabba7159cf34ee692",
          "transactionIndex": "0x7f",
          "logIndex": "0x8c",
          "removed": false
        },
        {
          "address": "0x8aafd3ede9adb0ff97c7aebce82a919afb1c8764",
          "topics": [
            "0xddf252ad1be2c89b69c2b068fc378daa952ba7f163c4a11628f55a4df523b3ef",
            "0x000000000000000000000000c77f7fed3b5cc8249adc428c5f44c9063b9734b4",
            "0x000000000000000000000000c77f7fed3b5cc8249adc428c5f44c9063b9734b4"
          ],
          "data": "0x0000000000000000000000000000000000000000000000000000000000000059",
          "blockHash": "0x194bb368ae463b72a23cdfb9e97f98fb32bd20903c73589128c61989df3a9b20",
          "blockNumber": "0x7319d1",
          "transactionHash": "0xb6659e2d86df175ed91e86f07372761860b7dd0305dcb5dabba7159cf34ee692",
          "transactionIndex": "0x7f",
          "logIndex": "0x8d",
          "removed": false
        },
        {
          "address": "0x8aafd3ede9adb0ff97c7aebce82a919afb1c8764",
          "topics": [
            "0x4afcb4a87cdbd9974efdb92ee48bc8d7cd0ae4bf217004db3d080cbaee652ca7"
          ],
          "data": "0x000000000000000000000000000000000000000000000000000000006790329c00000000000000000000000000000000000000000000000000054eff484973f60000000000000000000000000000000000000000000000000000000000000010",
          "blockHash": "0x194bb368ae463b72a23cdfb9e97f98fb32bd20903c73589128c61989df3a9b20",
          "blockNumber": "0x7319d1",
          "transactionHash": "0xb6659e2d86df175ed91e86f07372761860b7dd0305dcb5dabba7159cf34ee692",
          "transactionIndex": "0x7f",
          "logIndex": "0x8e",
          "removed": false
        }
      ],
      "logsBloom": "0x00000000000000000000000000000000000000000600000000000000000000000000000000000000000000000000000000000000000000004000000000000000000000000000004000000008000000000000000000000000000000000000000000000000020000000000000000000800020000000000000000000010000000000000000000000000000000000000000000000000000000000000010000000000000000000000000000000000000000004000000000000000000000000000000000000002000000800000000000000000000000000000080000000000000020000000000000000000000000000000000000000000000000000000000000000000",
      "type": "0x2",
      "transactionHash": "0xb6659e2d86df175ed91e86f07372761860b7dd0305dcb5dabba7159cf34ee692",
      "transactionIndex": "0x7f",
      "blockHash": "0x194bb368ae463b72a23cdfb9e97f98fb32bd20903c73589128c61989df3a9b20",
      "blockNumber": "0x7319d1",
      "gasUsed": "0xf207",
      "effectiveGasPrice": "0x3b82004b",
      "from": "0xc77f7fed3b5cc8249adc428c5f44c9063b9734b4",
      "to": "0x8aafd3ede9adb0ff97c7aebce82a919afb1c8764",
      "contractAddress": null
    }
  ],
  "libraries": [],
  "pending": [],
  "returns": {},
  "timestamp": 1737503389,
  "chain": 11155111,
  "commit": "1d2fb70"
}