{
  "transactions": [
    {
      "hash": "0x8dbec1d903db94ee8e2ee2646ebcd40f438fb5fff636d9bf6964a0f4470d4a43",
      "transactionType": "CALL",
      "contractName": null,
      "contractAddress": "0xbf4a322f1496e5c3d34a9bcdb4c60567b38c7de2",
      "function": "sell(uint256)",
      "arguments": [
        "982624466805831560848"
      ],
      "transaction": {
        "from": "0xc77f7fed3b5cc8249adc428c5f44c9063b9734b4",
        "to": "0xbf4a322f1496e5c3d34a9bcdb4c60567b38c7de2",
        "gas": "0x16fea",
        "value": "0x0",
        "input": "0xe4849b3200000000000000000000000000000000000000000000003544a762647134ee90",
        "nonce": "0xb55",
        "chainId": "0xaa36a7"
      },
      "additionalContracts": [],
      "isFixedGasLimit": false
    }
  ],
  "receipts": [
    {
      "status": "0x1",
      "cumulativeGasUsed": "0xd8a8ee",
      "logs": [
        {
          "address": "0xbf4a322f1496e5c3d34a9bcdb4c60567b38c7de2",
          "topics": [
            "0xddf252ad1be2c89b69c2b068fc378daa952ba7f163c4a11628f55a4df523b3ef",
            "0x000000000000000000000000c77f7fed3b5cc8249adc428c5f44c9063b9734b4",
            "0x0000000000000000000000000000000000000000000000000000000000000000"
          ],
          "data": "0x00000000000000000000000000000000000000000000003544a762647134ee90",
          "blockHash": "0xc50031042b2a7c2c4a6d6131759b85c82b0cd43ad4b142d69cfd4782622c4bae",
          "blockNumber": "0x725b5c",
          "transactionHash": "0x8dbec1d903db94ee8e2ee2646ebcd40f438fb5fff636d9bf6964a0f4470d4a43",
          "transactionIndex": "0x54",
          "logIndex": "0x6c",
          "removed": false
        },
        {
          "address": "0xbf4a322f1496e5c3d34a9bcdb4c60567b38c7de2",
          "topics": [
            "0x4afcb4a87cdbd9974efdb92ee48bc8d7cd0ae4bf217004db3d080cbaee652ca7"
          ],
          "data": "0x0000000000000000000000000000000000000000000000000000000067873aac00000000000000000000000000000000000000000000000000039720475e4e570000000000000000000000000000000000000000000000000dc7e3e82b137723",
          "blockHash": "0xc50031042b2a7c2c4a6d6131759b85c82b0cd43ad4b142d69cfd4782622c4bae",
          "blockNumber": "0x725b5c",
          "transactionHash": "0x8dbec1d903db94ee8e2ee2646ebcd40f438fb5fff636d9bf6964a0f4470d4a43",
          "transactionIndex": "0x54",
          "logIndex": "0x6d",
          "removed": false
        }
      ],
      "logsBloom": "0x00000000000000000000000000000000000000000000000000000000000000000000000000000000000000000000000000000000000000004000000000000000000000000000000000000008000000000000001000000000000000000000000000000000020000000000000000000800020000000000000000000010000000000000000000000000000000000000000000000000000008000000010000000000000000000000000000000000000000004000000000000000000000000000000000000002000000800000000000001000000000000000080000000000000020000000000000000000000000000000000000000000000000000000000000000000",
      "type": "0x2",
      "transactionHash": "0x8dbec1d903db94ee8e2ee2646ebcd40f438fb5fff636d9bf6964a0f4470d4a43",
      "transactionIndex": "0x54",
      "blockHash": "0xc50031042b2a7c2c4a6d6131759b85c82b0cd43ad4b142d69cfd4782622c4bae",
      "blockNumber": "0x725b5c",
      "gasUsed": "0xfb91",
      "effectiveGasPrice": "0x4884787e",
      "from": "0xc77f7fed3b5cc8249adc428c5f44c9063b9734b4",
      "to": "0xbf4a322f1496e5c3d34a9bcdb4c60567b38c7de2",
      "contractAddress": null
    }
  ],
  "libraries": [],
  "pending": [],
  "returns": {},
  "timestamp": 1736915630,
  "chain": 11155111,
  "commit": "51a374b"
}