{
  "transactions": [
    {
      "hash": "0x0b5308d273e4fa5d47ed1bb3d7692a93fb8d585eac51f5a9bd8ccc6cba683e49",
      "transactionType": "CALL",
      "contractName": null,
      "contractAddress": "0x8aafd3ede9adb0ff97c7aebce82a919afb1c8764",
      "function": "sell(uint256)",
      "arguments": [
        "5934263891295970292"
      ],
      "transaction": {
        "from": "0xc77f7fed3b5cc8249adc428c5f44c9063b9734b4",
        "to": "0x8aafd3ede9adb0ff97c7aebce82a919afb1c8764",
        "gas": "0x15dca",
        "value": "0x0",
        "input": "0xe4849b32000000000000000000000000000000000000000000000000525abd916c1fa3f4",
        "nonce": "0xf72",
        "chainId": "0xaa36a7"
      },
      "additionalContracts": [],
      "isFixedGasLimit": false
    }
  ],
  "receipts": [
    {
      "status": "0x1",
      "cumulativeGasUsed": "0xd3fd35",
      "logs": [
        {
          "address": "0x8aafd3ede9adb0ff97c7aebce82a919afb1c8764",
          "topics": [
            "0xddf252ad1be2c89b69c2b068fc378daa952ba7f163c4a11628f55a4df523b3ef",
            "0x000000000000000000000000c77f7fed3b5cc8249adc428c5f44c9063b9734b4",
            "0x0000000000000000000000000000000000000000000000000000000000000000"
          ],
          "data": "0x00000000000000000000000000000000000000000000000051b2141d922bace2",
          "blockHash": "0x4b27533596dd84158e3cfa71d23f8e5a7d15c2d9a4ed2a5f2098e62a046ac5b8",
          "blockNumber": "0x7315d2",
          "transactionHash": "0x0b5308d273e4fa5d47ed1bb3d7692a93fb8d585eac51f5a9bd8ccc6cba683e49",
          "transactionIndex": "0x76",
          "logIndex": "0x83",
          "removed": false
        },
        {
          "address": "0x8aafd3ede9adb0ff97c7aebce82a919afb1c8764",
          "topics": [
            "0xddf252ad1be2c89b69c2b068fc378daa952ba7f163c4a11628f55a4df523b3ef",
            "0x000000000000000000000000c77f7fed3b5cc8249adc428c5f44c9063b9734b4",
            "0x000000000000000000000000c77f7fed3b5cc8249adc428c5f44c9063b9734b4"
          ],
          "data": "0x00000000000000000000000000000000000000000000000000a8a973d9f3f712",
          "blockHash": "0x4b27533596dd84158e3cfa71d23f8e5a7d15c2d9a4ed2a5f2098e62a046ac5b8",
          "blockNumber": "0x7315d2",
          "transactionHash": "0x0b5308d273e4fa5d47ed1bb3d7692a93fb8d585eac51f5a9bd8ccc6cba683e49",
          "transactionIndex": "0x76",
          "logIndex": "0x84",
          "removed": false
        },
        {
          "address": "0x8aafd3ede9adb0ff97c7aebce82a919afb1c8764",
          "topics": [
            "0x4afcb4a87cdbd9974efdb92ee48bc8d7cd0ae4bf217004db3d080cbaee652ca7"
          ],
          "data": "0x00000000000000000000000000000000000000000000000000000000679002840000000000000000000000000000000000000000000000000004c1d7750dc5bf000000000000000000000000000000000000000000000000001c3afb8d7beeb7",
          "blockHash": "0x4b27533596dd84158e3cfa71d23f8e5a7d15c2d9a4ed2a5f2098e62a046ac5b8",
          "blockNumber": "0x7315d2",
          "transactionHash": "0x0b5308d273e4fa5d47ed1bb3d7692a93fb8d585eac51f5a9bd8ccc6cba683e49",
          "transactionIndex": "0x76",
          "logIndex": "0x85",
          "removed": false
        }
      ],
      "logsBloom": "0x00000000000000000000000000000000000000000600000000000000000000000000000000000000000000000000000000000000000000004000000000000000000000000000004000000008000000000000000000000000000000000000000000000000020000000000000000000800020000000000000000000010000000000000000000000000000000000000000000000000000000000000010000000000000000000000000000000000000000004000000000000000000000000000000000000002000000800000000000000000000000000000080000000000000020000000000000000000000000000000000000000000000000000000000000000000",
      "type": "0x2",
      "transactionHash": "0x0b5308d273e4fa5d47ed1bb3d7692a93fb8d585eac51f5a9bd8ccc6cba683e49",
      "transactionIndex": "0x76",
      "blockHash": "0x4b27533596dd84158e3cfa71d23f8e5a7d15c2d9a4ed2a5f2098e62a046ac5b8",
      "blockNumber": "0x7315d2",
      "gasUsed": "0xfd3f",
      "effectiveGasPrice": "0x6f8add65",
      "from": "0xc77f7fed3b5cc8249adc428c5f44c9063b9734b4",
      "to": "0x8aafd3ede9adb0ff97c7aebce82a919afb1c8764",
      "contractAddress": null
    }
  ],
  "libraries": [],
  "pending": [],
  "returns": {},
  "timestamp": 1737491077,
  "chain": 11155111,
  "commit": "1d2fb70"
}