{
  "transactions": [
    {
      "hash": "0x10bcd4d0b60a19bf788a7b8c4f6df9042af09e330689a242f5888993b837a958",
      "transactionType": "CALL",
      "contractName": null,
      "contractAddress": "0x8aafd3ede9adb0ff97c7aebce82a919afb1c8764",
      "function": "sell(uint256)",
      "arguments": [
        "64140555"
      ],
      "transaction": {
        "from": "0xc77f7fed3b5cc8249adc428c5f44c9063b9734b4",
        "to": "0x8aafd3ede9adb0ff97c7aebce82a919afb1c8764",
        "gas": "0x15d88",
        "value": "0x0",
        "input": "0xe4849b320000000000000000000000000000000000000000000000000000000003d2b50b",
        "nonce": "0x1424",
        "chainId": "0xaa36a7"
      },
      "additionalContracts": [],
      "isFixedGasLimit": false
    }
  ],
  "receipts": [
    {
      "status": "0x1",
      "cumulativeGasUsed": "0xc1ff26",
      "logs": [
        {
          "address": "0x8aafd3ede9adb0ff97c7aebce82a919afb1c8764",
          "topics": [
            "0xddf252ad1be2c89b69c2b068fc378daa952ba7f163c4a11628f55a4df523b3ef",
            "0x000000000000000000000000c77f7fed3b5cc8249adc428c5f44c9063b9734b4",
            "0x0000000000000000000000000000000000000000000000000000000000000000"
          ],
          "data": "0x0000000000000000000000000000000000000000000000000000000003cae0a7",
          "blockHash": "0x0ba718502b9635781de39d6f634dc9e3d3df2285f151072dbb7dcefe23efc476",
          "blockNumber": "0x731b60",
          "transactionHash": "0x10bcd4d0b60a19bf788a7b8c4f6df9042af09e330689a242f5888993b837a958",
          "transactionIndex": "0x91",
          "logIndex": "0x93",
          "removed": false
        },
        {
          "address": "0x8aafd3ede9adb0ff97c7aebce82a919afb1c8764",
          "topics": [
            "0xddf252ad1be2c89b69c2b068fc378daa952ba7f163c4a11628f55a4df523b3ef",
            "0x000000000000000000000000c77f7fed3b5cc8249adc428c5f44c9063b9734b4",
            "0x000000000000000000000000c77f7fed3b5cc8249adc428c5f44c9063b9734b4"
          ],
          "data": "0x000000000000000000000000000000000000000000000000000000000007d464",
          "blockHash": "0x0ba718502b9635781de39d6f634dc9e3d3df2285f151072dbb7dcefe23efc476",
          "blockNumber": "0x731b60",
          "transactionHash": "0x10bcd4d0b60a19bf788a7b8c4f6df9042af09e330689a242f5888993b837a958",
          "transactionIndex": "0x91",
          "logIndex": "0x94",
          "removed": false
        },
        {
          "address": "0x8aafd3ede9adb0ff97c7aebce82a919afb1c8764",
          "topics": [
            "0x4afcb4a87cdbd9974efdb92ee48bc8d7cd0ae4bf217004db3d080cbaee652ca7"
          ],
          "data": "0x0000000000000000000000000000000000000000000000000000000067904550000000000000000000000000000000000000000000000000000e856c669bda890000000000000000000000000000000000000000000000000000000000040014",
          "blockHash": "0x0ba718502b9635781de39d6f634dc9e3d3df2285f151072dbb7dcefe23efc476",
          "blockNumber": "0x731b60",
          "transactionHash": "0x10bcd4d0b60a19bf788a7b8c4f6df9042af09e330689a242f5888993b837a958",
          "transactionIndex": "0x91",
          "logIndex": "0x95",
          "removed": false
        }
      ],
      "logsBloom": "0x00000000000000000000000000000000000000000600000000000000000000000000000000000000000000000000000000000000000000004000000000000000000000000000004000000008000000000000000000000000000000000000000000000000020000000000000000000800020000000000000000000010000000000000000000000000000000000000000000000000000000000000010000000000000000000000000000000000000000004000000000000000000000000000000000000002000000800000000000000000000000000000080000000000000020000000000000000000000000000000000000000000000000000000000000000000",
      "type": "0x2",
      "transactionHash": "0x10bcd4d0b60a19bf788a7b8c4f6df9042af09e330689a242f5888993b837a958",
      "transactionIndex": "0x91",
      "blockHash": "0x0ba718502b9635781de39d6f634dc9e3d3df2285f151072dbb7dcefe23efc476",
      "blockNumber": "0x731b60",
      "gasUsed": "0xfd0f",
      "effectiveGasPrice": "0xf7ef4e00",
      "from": "0xc77f7fed3b5cc8249adc428c5f44c9063b9734b4",
      "to": "0x8aafd3ede9adb0ff97c7aebce82a919afb1c8764",
      "contractAddress": null
    }
  ],
  "libraries": [],
  "pending": [],
  "returns": {},
  "timestamp": 1737508177,
  "chain": 11155111,
  "commit": "1d2fb70"
}