{
  "transactions": [
    {
      "hash": "0xf545919f0f053bac1218bd02b8f1dcd3e9d24bd8f2f55adcafaa9add281bc050",
      "transactionType": "CALL",
      "contractName": null,
      "contractAddress": "0x270e88f8683660553e8ba4eb2ad7c91a1710d769",
      "function": "buy(address)",
      "arguments": [
        "0xC77f7fed3b5Cc8249aDc428c5F44C9063B9734b4"
      ],
      "transaction": {
        "from": "0xc77f7fed3b5cc8249adc428c5f44c9063b9734b4",
        "to": "0x270e88f8683660553e8ba4eb2ad7c91a1710d769",
        "gas": "0x1b30c",
        "value": "0xde0b6b3a7640000",
        "input": "0xf088d547000000000000000000000000c77f7fed3b5cc8249adc428c5f44c9063b9734b4",
        "nonce": "0x606",
        "chainId": "0xaa36a7"
      },
      "additionalContracts": [],
      "isFixedGasLimit": false
    }
  ],
  "receipts": [
    {
      "status": "0x1",
      "cumulativeGasUsed": "0x8f715e",
      "logs": [
        {
          "address": "0x270e88f8683660553e8ba4eb2ad7c91a1710d769",
          "topics": [
            "0xddf252ad1be2c89b69c2b068fc378daa952ba7f163c4a11628f55a4df523b3ef",
            "0x0000000000000000000000000000000000000000000000000000000000000000",
            "0x000000000000000000000000c77f7fed3b5cc8249adc428c5f44c9063b9734b4"
          ],
          "data": "0x000000000000000000000000000000000000000000000033268bb86b2f58749c",
          "blockHash": "0x4a6ff87b3bf92d8134d8238629ce9d8569eb06b9465506bd7cb112f6856835b8",
          "blockNumber": "0x7252cd",
          "transactionHash": "0xf545919f0f053bac1218bd02b8f1dcd3e9d24bd8f2f55adcafaa9add281bc050",
          "transactionIndex": "0x4a",
          "logIndex": "0xa4",
          "removed": false
        },
        {
          "address": "0x270e88f8683660553e8ba4eb2ad7c91a1710d769",
          "topics": [
            "0xddf252ad1be2c89b69c2b068fc378daa952ba7f163c4a11628f55a4df523b3ef",
            "0x0000000000000000000000000000000000000000000000000000000000000000",
            "0x000000000000000000000000c77f7fed3b5cc8249adc428c5f44c9063b9734b4"
          ],
          "data": "0x00000000000000000000000000000000000000000000000027b85c8837f5fcac",
          "blockHash": "0x4a6ff87b3bf92d8134d8238629ce9d8569eb06b9465506bd7cb112f6856835b8",
          "blockNumber": "0x7252cd",
          "transactionHash": "0xf545919f0f053bac1218bd02b8f1dcd3e9d24bd8f2f55adcafaa9add281bc050",
          "transactionIndex": "0x4a",
          "logIndex": "0xa5",
          "removed": false
        },
        {
          "address": "0x270e88f8683660553e8ba4eb2ad7c91a1710d769",
          "topics": [
            "0x4afcb4a87cdbd9974efdb92ee48bc8d7cd0ae4bf217004db3d080cbaee652ca7"
          ],
          "data": "0x000000000000000000000000000000000000000000000000000000006786d3a40000000000000000000000000000000000000000000000000003ba5c6b7f8e190000000000000000000000000000000000000000000000000de0b6b3a7640000",
          "blockHash": "0x4a6ff87b3bf92d8134d8238629ce9d8569eb06b9465506bd7cb112f6856835b8",
          "blockNumber": "0x7252cd",
          "transactionHash": "0xf545919f0f053bac1218bd02b8f1dcd3e9d24bd8f2f55adcafaa9add281bc050",
          "transactionIndex": "0x4a",
          "logIndex": "0xa6",
          "removed": false
        }
      ],
      "logsBloom": "0x00000000000000000000000000000000000000000000000000000000000000000000000000000000000000000000000020000000000000004000000000000000000000000000000000000008000000000000000000000000000000000000000000000000020000000000000000000800020000000000000000000010000000000000000000010000000000000000000000000000000000000000010000000000000000000000000000000000000000004000000000000000000000000000000000000002000000800000000000000000000000000000080000008000000020000000000000000000000000000000000000000000000000000000000000000000",
      "type": "0x2",
      "transactionHash": "0xf545919f0f053bac1218bd02b8f1dcd3e9d24bd8f2f55adcafaa9add281bc050",
      "transactionIndex": "0x4a",
      "blockHash": "0x4a6ff87b3bf92d8134d8238629ce9d8569eb06b9465506bd7cb112f6856835b8",
      "blockNumber": "0x7252cd",
      "gasUsed": "0x13af8",
      "effectiveGasPrice": "0x2c5abc087",
      "from": "0xc77f7fed3b5cc8249adc428c5f44c9063b9734b4",
      "to": "0x270e88f8683660553e8ba4eb2ad7c91a1710d769",
      "contractAddress": null
    }
  ],
  "libraries": [],
  "pending": [],
  "returns": {},
  "timestamp": 1736889254,
  "chain": 11155111,
  "commit": "51a374b"
}