{
  "transactions": [
    {
      "hash": "0xd5fd0128f122ac97909e9c7bcee4649780e884cd43f7e229fa5392ed6388c4e9",
      "transactionType": "CALL",
      "contractName": null,
      "contractAddress": "0xbf4a322f1496e5c3d34a9bcdb4c60567b38c7de2",
      "function": "sell(uint256)",
      "arguments": [
        "991010517331761252214"
      ],
      "transaction": {
        "from": "0xc77f7fed3b5cc8249adc428c5f44c9063b9734b4",
        "to": "0xbf4a322f1496e5c3d34a9bcdb4c60567b38c7de2",
        "gas": "0x16fea",
        "value": "0x0",
        "input": "0xe4849b32000000000000000000000000000000000000000000000035b9089eea1bb94776",
        "nonce": "0x8ed",
        "chainId": "0xaa36a7"
      },
      "additionalContracts": [],
      "isFixedGasLimit": false
    }
  ],
  "receipts": [
    {
      "status": "0x1",
      "cumulativeGasUsed": "0xfec454",
      "logs": [
        {
          "address": "0xbf4a322f1496e5c3d34a9bcdb4c60567b38c7de2",
          "topics": [
            "0xddf252ad1be2c89b69c2b068fc378daa952ba7f163c4a11628f55a4df523b3ef",
            "0x000000000000000000000000c77f7fed3b5cc8249adc428c5f44c9063b9734b4",
            "0x0000000000000000000000000000000000000000000000000000000000000000"
          ],
          "data": "0x000000000000000000000000000000000000000000000035b9089eea1bb94776",
          "blockHash": "0x1ec1bd68eeef6c189513461b18d035b255bdd45b1844b38b0d1780222e24fce5",
          "blockNumber": "0x725864",
          "transactionHash": "0xd5fd0128f122ac97909e9c7bcee4649780e884cd43f7e229fa5392ed6388c4e9",
          "transactionIndex": "0x59",
          "logIndex": "0xb2",
          "removed": false
        },
        {
          "address": "0xbf4a322f1496e5c3d34a9bcdb4c60567b38c7de2",
          "topics": [
            "0x4afcb4a87cdbd9974efdb92ee48bc8d7cd0ae4bf217004db3d080cbaee652ca7"
          ],
          "data": "0x00000000000000000000000000000000000000000000000000000000678716dc00000000000000000000000000000000000000000000000000038f593a5c14890000000000000000000000000000000000000000000000000dc7e3fbaa6c9baf",
          "blockHash": "0x1ec1bd68eeef6c189513461b18d035b255bdd45b1844b38b0d1780222e24fce5",
          "blockNumber": "0x725864",
          "transactionHash": "0xd5fd0128f122ac97909e9c7bcee4649780e884cd43f7e229fa5392ed6388c4e9",
          "transactionIndex": "0x59",
          "logIndex": "0xb3",
          "removed": false
        }
      ],
      "logsBloom": "0x00000000000000000000000000000000000000000000000000000000000000000000000000000000000000000000000000000000000000004000000000000000000000000000000000000008000000000000001000000000000000000000000000000000020000000000000000000800020000000000000000000010000000000000000000000000000000000000000000000000000008000000010000000000000000000000000000000000000000004000000000000000000000000000000000000002000000800000000000001000000000000000080000000000000020000000000000000000000000000000000000000000000000000000000000000000",
      "type": "0x2",
      "transactionHash": "0xd5fd0128f122ac97909e9c7bcee4649780e884cd43f7e229fa5392ed6388c4e9",
      "transactionIndex": "0x59",
      "blockHash": "0x1ec1bd68eeef6c189513461b18d035b255bdd45b1844b38b0d1780222e24fce5",
      "blockNumber": "0x725864",
      "gasUsed": "0xfb91",
      "effectiveGasPrice": "0x244fe34e",
      "from": "0xc77f7fed3b5cc8249adc428c5f44c9063b9734b4",
      "to": "0xbf4a322f1496e5c3d34a9bcdb4c60567b38c7de2",
      "contractAddress": null
    }
  ],
  "libraries": [],
  "pending": [],
  "returns": {},
  "timestamp": 1736906461,
  "chain": 11155111,
  "commit": "51a374b"
}