{
  "transactions": [
    {
      "hash": "0x7c32cc07e7a6e7a401088afdf64c9b01076a213ecde0654746fd6e51cdf7d4c8",
      "transactionType": "CALL",
      "contractName": null,
      "contractAddress": "0x8aafd3ede9adb0ff97c7aebce82a919afb1c8764",
      "function": "sell(uint256)",
      "arguments": [
        "356650278238597"
      ],
      "transaction": {
        "from": "0xc77f7fed3b5cc8249adc428c5f44c9063b9734b4",
        "to": "0x8aafd3ede9adb0ff97c7aebce82a919afb1c8764",
        "gas": "0x1724d",
        "value": "0x0",
        "input": "0xe4849b320000000000000000000000000000000000000000000000000001445f1d24b985",
        "nonce": "0x112a",
        "chainId": "0xaa36a7"
      },
      "additionalContracts": [],
      "isFixedGasLimit": false
    }
  ],
  "receipts": [
    {
      "status": "0x1",
      "cumulativeGasUsed": "0x7b2be7",
      "logs": [
        {
          "address": "0x8aafd3ede9adb0ff97c7aebce82a919afb1c8764",
          "topics": [
            "0xddf252ad1be2c89b69c2b068fc378daa952ba7f163c4a11628f55a4df523b3ef",
            "0x000000000000000000000000c77f7fed3b5cc8249adc428c5f44c9063b9734b4",
            "0x0000000000000000000000000000000000000000000000000000000000000000"
          ],
          "data": "0x000000000000000000000000000000000000000000000000000141c6cd09ce91",
          "blockHash": "0x7f68b7f1265ac0541da37606d16ed4cbdf64f6a8f44db64f0e878509c359a603",
          "blockNumber": "0x7317e1",
          "transactionHash": "0x7c32cc07e7a6e7a401088afdf64c9b01076a213ecde0654746fd6e51cdf7d4c8",
          "transactionIndex": "0x64",
          "logIndex": "0x83",
          "removed": false
        },
        {
          "address": "0x8aafd3ede9adb0ff97c7aebce82a919afb1c8764",
          "topics": [
            "0xddf252ad1be2c89b69c2b068fc378daa952ba7f163c4a11628f55a4df523b3ef",
            "0x000000000000000000000000c77f7fed3b5cc8249adc428c5f44c9063b9734b4",
            "0x000000000000000000000000c77f7fed3b5cc8249adc428c5f44c9063b9734b4"
          ],
          "data": "0x00000000000000000000000000000000000000000000000000000298501aeaf4",
          "blockHash": "0x7f68b7f1265ac0541da37606d16ed4cbdf64f6a8f44db64f0e878509c359a603",
          "blockNumber": "0x7317e1",
          "transactionHash": "0x7c32cc07e7a6e7a401088afdf64c9b01076a213ecde0654746fd6e51cdf7d4c8",
          "transactionIndex": "0x64",
          "logIndex": "0x84",
          "removed": false
        },
        {
          "address": "0x8aafd3ede9adb0ff97c7aebce82a919afb1c8764",
          "topics": [
            "0x4afcb4a87cdbd9974efdb92ee48bc8d7cd0ae4bf217004db3d080cbaee652ca7"
          ],
          "data": "0x0000000000000000000000000000000000000000000000000000000067901b50000000000000000000000000000000000000000000000000000511f8279d6be70000000000000000000000000000000000000000000000000000007681ffcf42",
          "blockHash": "0x7f68b7f1265ac0541da37606d16ed4cbdf64f6a8f44db64f0e878509c359a603",
          "blockNumber": "0x7317e1",
          "transactionHash": "0x7c32cc07e7a6e7a401088afdf64c9b01076a213ecde0654746fd6e51cdf7d4c8",
          "transactionIndex": "0x64",
          "logIndex": "0x85",
          "removed": false
        }
      ],
      "logsBloom": "0x00000000000000000000000000000000000000000600000000000000000000000000000000000000000000000000000000000000000000004000000000000000000000000000004000000008000000000000000000000000000000000000000000000000020000000000000000000800020000000000000000000010000000000000000000000000000000000000000000000000000000000000010000000000000000000000000000000000000000004000000000000000000000000000000000000002000000800000000000000000000000000000080000000000000020000000000000000000000000000000000000000000000000000000000000000000",
      "type": "0x2",
      "transactionHash": "0x7c32cc07e7a6e7a401088afdf64c9b01076a213ecde0654746fd6e51cdf7d4c8",
      "transactionIndex": "0x64",
      "blockHash": "0x7f68b7f1265ac0541da37606d16ed4cbdf64f6a8f44db64f0e878509c359a603",
      "blockNumber": "0x7317e1",
      "gasUsed": "0xfd33",
      "effectiveGasPrice": "0x47c41705",
      "from": "0xc77f7fed3b5cc8249adc428c5f44c9063b9734b4",
      "to": "0x8aafd3ede9adb0ff97c7aebce82a919afb1c8764",
      "contractAddress": null
    }
  ],
  "libraries": [],
  "pending": [],
  "returns": {},
  "timestamp": 1737497426,
  "chain": 11155111,
  "commit": "1d2fb70"
}