{
  "transactions": [
    {
      "hash": "0xf9f3e12dabddbb62db3be4f39ea7937580f46268c0039b71235bf8cea018dd5f",
      "transactionType": "CALL",
      "contractName": null,
      "contractAddress": "0x270e88f8683660553e8ba4eb2ad7c91a1710d769",
      "function": "buy(address)",
      "arguments": [
        "0xC77f7fed3b5Cc8249aDc428c5F44C9063B9734b4"
      ],
      "transaction": {
        "from": "0xc77f7fed3b5cc8249adc428c5f44c9063b9734b4",
        "to": "0x270e88f8683660553e8ba4eb2ad7c91a1710d769",
        "gas": "0x1b30c",
        "value": "0xde0b6b3a7640000",
        "input": "0xf088d547000000000000000000000000c77f7fed3b5cc8249adc428c5f44c9063b9734b4",
        "nonce": "0x55e",
        "chainId": "0xaa36a7"
      },
      "additionalContracts": [],
      "isFixedGasLimit": false
    }
  ],
  "receipts": [
    {
      "status": "0x1",
      "cumulativeGasUsed": "0x1934804",
      "logs": [
        {
          "address": "0x270e88f8683660553e8ba4eb2ad7c91a1710d769",
          "topics": [
            "0xddf252ad1be2c89b69c2b068fc378daa952ba7f163c4a11628f55a4df523b3ef",
            "0x0000000000000000000000000000000000000000000000000000000000000000",
            "0x000000000000000000000000c77f7fed3b5cc8249adc428c5f44c9063b9734b4"
          ],
          "data": "0x00000000000000000000000000000000000000000000003480b16903b42cbadd",
          "blockHash": "0x7a986c086d2a30c97fd6f357b10943e05512f579d9afe8c550499a8f2ed660b9",
          "blockNumber": "0x725202",
          "transactionHash": "0xf9f3e12dabddbb62db3be4f39ea7937580f46268c0039b71235bf8cea018dd5f",
          "transactionIndex": "0xae",
          "logIndex": "0x14e",
          "removed": false
        },
        {
          "address": "0x270e88f8683660553e8ba4eb2ad7c91a1710d769",
          "topics": [
            "0xddf252ad1be2c89b69c2b068fc378daa952ba7f163c4a11628f55a4df523b3ef",
            "0x0000000000000000000000000000000000000000000000000000000000000000",
            "0x000000000000000000000000c77f7fed3b5cc8249adc428c5f44c9063b9734b4"
          ],
          "data": "0x00000000000000000000000000000000000000000000000028c52815b91ef4d1",
          "blockHash": "0x7a986c086d2a30c97fd6f357b10943e05512f579d9afe8c550499a8f2ed660b9",
          "blockNumber": "0x725202",
          "transactionHash": "0xf9f3e12dabddbb62db3be4f39ea7937580f46268c0039b71235bf8cea018dd5f",
          "transactionIndex": "0xae",
          "logIndex": "0x14f",
          "removed": false
        },
        {
          "address": "0x270e88f8683660553e8ba4eb2ad7c91a1710d769",
          "topics": [
            "0x4afcb4a87cdbd9974efdb92ee48bc8d7cd0ae4bf217004db3d080cbaee652ca7"
          ],
          "data": "0x000000000000000000000000000000000000000000000000000000006786ca080000000000000000000000000000000000000000000000000003a1c90d4ac4e90000000000000000000000000000000000000000000000000de0b6b3a7640000",
          "blockHash": "0x7a986c086d2a30c97fd6f357b10943e05512f579d9afe8c550499a8f2ed660b9",
          "blockNumber": "0x725202",
          "transactionHash": "0xf9f3e12dabddbb62db3be4f39ea7937580f46268c0039b71235bf8cea018dd5f",
          "transactionIndex": "0xae",
          "logIndex": "0x150",
          "removed": false
        }
      ],
      "logsBloom": "0x00000000000000000000000000000000000000000000000000000000000000000000000000000000000000000000000020000000000000004000000000000000000000000000000000000008000000000000000000000000000000000000000000000000020000000000000000000800020000000000000000000010000000000000000000010000000000000000000000000000000000000000010000000000000000000000000000000000000000004000000000000000000000000000000000000002000000800000000000000000000000000000080000008000000020000000000000000000000000000000000000000000000000000000000000000000",
      "type": "0x2",
      "transactionHash": "0xf9f3e12dabddbb62db3be4f39ea7937580f46268c0039b71235bf8cea018dd5f",
      "transactionIndex": "0xae",
      "blockHash": "0x7a986c086d2a30c97fd6f357b10943e05512f579d9afe8c550499a8f2ed660b9",
      "blockNumber": "0x725202",
      "gasUsed": "0x13af8",
      "effectiveGasPrice": "0x3fb67fe18",
      "from": "0xc77f7fed3b5cc8249adc428c5f44c9063b9734b4",
      "to": "0x270e88f8683660553e8ba4eb2ad7c91a1710d769",
      "contractAddress": null
    }
  ],
  "libraries": [],
  "pending": [],
  "returns": {},
  "timestamp": 1736886793,
  "chain": 11155111,
  "commit": "51a374b"
}