{
  "transactions": [
    {
      "hash": "0x00e440b9274339c096cf0b6e8378590a4788839bf830ed58771c8ec721cecd69",
      "transactionType": "CALL",
      "contractName": null,
      "contractAddress": "0x8aafd3ede9adb0ff97c7aebce82a919afb1c8764",
      "function": "sell(uint256)",
      "arguments": [
        "57190061"
      ],
      "transaction": {
        "from": "0xc77f7fed3b5cc8249adc428c5f44c9063b9734b4",
        "to": "0x8aafd3ede9adb0ff97c7aebce82a919afb1c8764",
        "gas": "0x15d88",
        "value": "0x0",
        "input": "0xe4849b32000000000000000000000000000000000000000000000000000000000368a6ad",
        "nonce": "0x14bd",
        "chainId": "0xaa36a7"
      },
      "additionalContracts": [],
      "isFixedGasLimit": false
    }
  ],
  "receipts": [
    {
      "status": "0x1",
      "cumulativeGasUsed": "0xc770cf",
      "logs": [
        {
          "address": "0x8aafd3ede9adb0ff97c7aebce82a919afb1c8764",
          "topics": [
            "0xddf252ad1be2c89b69c2b068fc378daa952ba7f163c4a11628f55a4df523b3ef",
            "0x000000000000000000000000c77f7fed3b5cc8249adc428c5f44c9063b9734b4",
            "0x0000000000000000000000000000000000000000000000000000000000000000"
          ],
          "data": "0x000000000000000000000000000000000000000000000000000000000361ab7d",
          "blockHash": "0xf2ddc0ac94730ab0a52ca9dc862875f263c02956fc039e624f06774bb34776a6",
          "blockNumber": "0x731c19",
          "transactionHash": "0x00e440b9274339c096cf0b6e8378590a4788839bf830ed58771c8ec721cecd69",
          "transactionIndex": "0x83",
          "logIndex": "0xd4",
          "removed": false
        },
        {
          "address": "0x8aafd3ede9adb0ff97c7aebce82a919afb1c8764",
          "topics": [
            "0xddf252ad1be2c89b69c2b068fc378daa952ba7f163c4a11628f55a4df523b3ef",
            "0x000000000000000000000000c77f7fed3b5cc8249adc428c5f44c9063b9734b4",
            "0x000000000000000000000000c77f7fed3b5cc8249adc428c5f44c9063b9734b4"
          ],
          "data": "0x000000000000000000000000000000000000000000000000000000000006fb30",
          "blockHash": "0xf2ddc0ac94730ab0a52ca9dc862875f263c02956fc039e624f06774bb34776a6",
          "blockNumber": "0x731c19",
          "transactionHash": "0x00e440b9274339c096cf0b6e8378590a4788839bf830ed58771c8ec721cecd69",
          "transactionIndex": "0x83",
          "logIndex": "0xd5",
          "removed": false
        },
        {
          "address": "0x8aafd3ede9adb0ff97c7aebce82a919afb1c8764",
          "topics": [
            "0x4afcb4a87cdbd9974efdb92ee48bc8d7cd0ae4bf217004db3d080cbaee652ca7"
          ],
          "data": "0x0000000000000000000000000000000000000000000000000000000067904e080000000000000000000000000000000000000000000000000010462ff0843ff4000000000000000000000000000000000000000000000000000000000003ff56",
          "blockHash": "0xf2ddc0ac94730ab0a52ca9dc862875f263c02956fc039e624f06774bb34776a6",
          "blockNumber": "0x731c19",
          "transactionHash": "0x00e440b9274339c096cf0b6e8378590a4788839bf830ed58771c8ec721cecd69",
          "transactionIndex": "0x83",
          "logIndex": "0xd6",
          "removed": false
        }
      ],
      "logsBloom": "0x00000000000000000000000000000000000000000600000000000000000000000000000000000000000000000000000000000000000000004000000000000000000000000000004000000008000000000000000000000000000000000000000000000000020000000000000000000800020000000000000000000010000000000000000000000000000000000000000000000000000000000000010000000000000000000000000000000000000000004000000000000000000000000000000000000002000000800000000000000000000000000000080000000000000020000000000000000000000000000000000000000000000000000000000000000000",
      "type": "0x2",
      "transactionHash": "0x00e440b9274339c096cf0b6e8378590a4788839bf830ed58771c8ec721cecd69",
      "transactionIndex": "0x83",
      "blockHash": "0xf2ddc0ac94730ab0a52ca9dc862875f263c02956fc039e624f06774bb34776a6",
      "blockNumber": "0x731c19",
      "gasUsed": "0xfd0f",
      "effectiveGasPrice": "0x105a041de",
      "from": "0xc77f7fed3b5cc8249adc428c5f44c9063b9734b4",
      "to": "0x8aafd3ede9adb0ff97c7aebce82a919afb1c8764",
      "contractAddress": null
    }
  ],
  "libraries": [],
  "pending": [],
  "returns": {},
  "timestamp": 1737510408,
  "chain": 11155111,
  "commit": "1d2fb70"
}