{
  "transactions": [
    {
      "hash": "0xb3b737271b77c8663c64c270876a945193e156847151718d33904114dac6f5b1",
      "transactionType": "CALL",
      "contractName": null,
      "contractAddress": "0xbf4a322f1496e5c3d34a9bcdb4c60567b38c7de2",
      "function": "buy(address)",
      "arguments": [
        "0xC77f7fed3b5Cc8249aDc428c5F44C9063B9734b4"
      ],
      "transaction": {
        "from": "0xc77f7fed3b5cc8249adc428c5f44c9063b9734b4",
        "to": "0xbf4a322f1496e5c3d34a9bcdb4c60567b38c7de2",
        "gas": "0x1b309",
        "value": "0xde0b6b3a7640000",
        "input": "0xf088d547000000000000000000000000c77f7fed3b5cc8249adc428c5f44c9063b9734b4",
        "nonce": "0xbc8",
        "chainId": "0xaa36a7"
      },
      "additionalContracts": [],
      "isFixedGasLimit": false
    }
  ],
  "receipts": [
    {
      "status": "0x1",
      "cumulativeGasUsed": "0x10a36b2",
      "logs": [
        {
          "address": "0xbf4a322f1496e5c3d34a9bcdb4c60567b38c7de2",
          "topics": [
            "0xddf252ad1be2c89b69c2b068fc378daa952ba7f163c4a11628f55a4df523b3ef",
            "0x0000000000000000000000000000000000000000000000000000000000000000",
            "0x000000000000000000000000c77f7fed3b5cc8249adc428c5f44c9063b9734b4"
          ],
          "data": "0x00000000000000000000000000000000000000000000003505c8c69758b46328",
          "blockHash": "0xd93a831f2e2096d1d67d0477c3a0aafacb47d7feb7936310f5b1cfd9bc9663b0",
          "blockNumber": "0x725be6",
          "transactionHash": "0xb3b737271b77c8663c64c270876a945193e156847151718d33904114dac6f5b1",
          "transactionIndex": "0x76",
          "logIndex": "0xa6",
          "removed": false
        },
        {
          "address": "0xbf4a322f1496e5c3d34a9bcdb4c60567b38c7de2",
          "topics": [
            "0xddf252ad1be2c89b69c2b068fc378daa952ba7f163c4a11628f55a4df523b3ef",
            "0x0000000000000000000000000000000000000000000000000000000000000000",
            "0x000000000000000000000000c77f7fed3b5cc8249adc428c5f44c9063b9734b4"
          ],
          "data": "0x000000000000000000000000000000000000000000000000292c81a9909e7691",
          "blockHash": "0xd93a831f2e2096d1d67d0477c3a0aafacb47d7feb7936310f5b1cfd9bc9663b0",
          "blockNumber": "0x725be6",
          "transactionHash": "0xb3b737271b77c8663c64c270876a945193e156847151718d33904114dac6f5b1",
          "transactionIndex": "0x76",
          "logIndex": "0xa7",
          "removed": false
        },
        {
          "address": "0xbf4a322f1496e5c3d34a9bcdb4c60567b38c7de2",
          "topics": [
            "0x4afcb4a87cdbd9974efdb92ee48bc8d7cd0ae4bf217004db3d080cbaee652ca7"
          ],
          "data": "0x00000000000000000000000000000000000000000000000000000000678741240000000000000000000000000000000000000000000000000003989314e98f7f0000000000000000000000000000000000000000000000000de0b6b3a7640000",
          "blockHash": "0xd93a831f2e2096d1d67d0477c3a0aafacb47d7feb7936310f5b1cfd9bc9663b0",
          "blockNumber": "0x725be6",
          "transactionHash": "0xb3b737271b77c8663c64c270876a945193e156847151718d33904114dac6f5b1",
          "transactionIndex": "0x76",
          "logIndex": "0xa8",
          "removed": false
        }
      ],
      "logsBloom": "0x00000000000000000000000000000000000000000000000000000000000000000000000000000000000000000000000000000000000000004000000000000000000000000000000000000008000000000000001000000000000000000000000000000000020000000000000000000800020000000000000000000010000000000000000000000000000000000000000000000000000008000000010000000000000000000000000000000000000000004000000000000000000000000000000000000002000000800000000000001000000000000000080000000000000020000000000000000000000000000000000000000000000000000000000000000000",
      "type": "0x2",
      "transactionHash": "0xb3b737271b77c8663c64c270876a945193e156847151718d33904114dac6f5b1",
      "transactionIndex": "0x76",
      "blockHash": "0xd93a831f2e2096d1d67d0477c3a0aafacb47d7feb7936310f5b1cfd9bc9663b0",
      "blockNumber": "0x725be6",
      "gasUsed": "0x13af6",
      "effectiveGasPrice": "0x773fd934",
      "from": "0xc77f7fed3b5cc8249adc428c5f44c9063b9734b4",
      "to": "0xbf4a322f1496e5c3d34a9bcdb4c60567b38c7de2",
      "contractAddress": null
    }
  ],
  "libraries": [],
  "pending": [],
  "returns": {},
  "timestamp": 1736917286,
  "chain": 11155111,
  "commit": "51a374b"
}