{
  "transactions": [
    {
      "hash": "0x5f8898755ca9022146fad31bf739cbed9056cf9a9cd7cd89123ce3cd79808974",
      "transactionType": "CALL",
      "contractName": null,
      "contractAddress": "0x5eb9cc76c3506942c1c0ead70e877dd5e4f00cb0",
      "function": "buy(address)",
      "arguments": [
        "0xC77f7fed3b5Cc8249aDc428c5F44C9063B9734b4"
      ],
      "transaction": {
        "from": "0xc77f7fed3b5cc8249adc428c5f44c9063b9734b4",
        "to": "0x5eb9cc76c3506942c1c0ead70e877dd5e4f00cb0",
        "gas": "0x1b30c",
        "value": "0xde0b6b3a7640000",
        "input": "0xf088d547000000000000000000000000c77f7fed3b5cc8249adc428c5f44c9063b9734b4",
        "nonce": "0x49a",
        "chainId": "0xaa36a7"
      },
      "additionalContracts": [],
      "isFixedGasLimit": false
    }
  ],
  "receipts": [
    {
      "status": "0x1",
      "cumulativeGasUsed": "0x16d76b0",
      "logs": [
        {
          "address": "0x5eb9cc76c3506942c1c0ead70e877dd5e4f00cb0",
          "topics": [
            "0xddf252ad1be2c89b69c2b068fc378daa952ba7f163c4a11628f55a4df523b3ef",
            "0x0000000000000000000000000000000000000000000000000000000000000000",
            "0x000000000000000000000000c77f7fed3b5cc8249adc428c5f44c9063b9734b4"
          ],
          "data": "0x00000000000000000000000000000000000000000000003574ab4d182cac5e0e",
          "blockHash": "0x1081623b785d4d6669481bb568c3cf7cad1e46ec9ef20fe00befd4776b934e86",
          "blockNumber": "0x7250d1",
          "transactionHash": "0x5f8898755ca9022146fad31bf739cbed9056cf9a9cd7cd89123ce3cd79808974",
          "transactionIndex": "0x84",
          "logIndex": "0xc5",
          "removed": false
        },
        {
          "address": "0x5eb9cc76c3506942c1c0ead70e877dd5e4f00cb0",
          "topics": [
            "0xddf252ad1be2c89b69c2b068fc378daa952ba7f163c4a11628f55a4df523b3ef",
            "0x0000000000000000000000000000000000000000000000000000000000000000",
            "0x000000000000000000000000c77f7fed3b5cc8249adc428c5f44c9063b9734b4"
          ],
          "data": "0x00000000000000000000000000000000000000000000000029829cc48161c0af",
          "blockHash": "0x1081623b785d4d6669481bb568c3cf7cad1e46ec9ef20fe00befd4776b934e86",
          "blockNumber": "0x7250d1",
          "transactionHash": "0x5f8898755ca9022146fad31bf739cbed9056cf9a9cd7cd89123ce3cd79808974",
          "transactionIndex": "0x84",
          "logIndex": "0xc6",
          "removed": false
        },
        {
          "address": "0x5eb9cc76c3506942c1c0ead70e877dd5e4f00cb0",
          "topics": [
            "0x4afcb4a87cdbd9974efdb92ee48bc8d7cd0ae4bf217004db3d080cbaee652ca7"
          ],
          "data": "0x000000000000000000000000000000000000000000000000000000006786bb980000000000000000000000000000000000000000000000000003911b39417a000000000000000000000000000000000000000000000000000de0b6b3a7640000",
          "blockHash": "0x1081623b785d4d6669481bb568c3cf7cad1e46ec9ef20fe00befd4776b934e86",
          "blockNumber": "0x7250d1",
          "transactionHash": "0x5f8898755ca9022146fad31bf739cbed9056cf9a9cd7cd89123ce3cd79808974",
          "transactionIndex": "0x84",
          "logIndex": "0xc7",
          "removed": false
        }
      ],
      "logsBloom": "0x00000000000000000000000000000000000000000000000000000000000000000000000000000000000000000000000000000000000000004000000000000000000000000000000000000008000000000000000000000000000000000000000000000000020000000000000004000800020000000000000000000010000000000000000000000000000000000000000000000000000000000000010000000000000000000000000000000000000000004000000000000000000000000000020000000002000000800000008000000000000000000000080000000000000020000000000000000000000000000000000000000000000000000000000000000000",
      "type": "0x2",
      "transactionHash": "0x5f8898755ca9022146fad31bf739cbed9056cf9a9cd7cd89123ce3cd79808974",
      "transactionIndex": "0x84",
      "blockHash": "0x1081623b785d4d6669481bb568c3cf7cad1e46ec9ef20fe00befd4776b934e86",
      "blockNumber": "0x7250d1",
      "gasUsed": "0x13af8",
      "effectiveGasPrice": "0x21a59031f",
      "from": "0xc77f7fed3b5cc8249adc428c5f44c9063b9734b4",
      "to": "0x5eb9cc76c3506942c1c0ead70e877dd5e4f00cb0",
      "contractAddress": null
    }
  ],
  "libraries": [],
  "pending": [],
  "returns": {},
  "timestamp": 1736883098,
  "chain": 11155111,
  "commit": "51a374b"
}