{
  "transactions": [
    {
      "hash": "0xf0c31317b496599cef0af99548431d638e8b87c393bd494aacae0c5da99cd19a",
      "transactionType": "CALL",
      "contractName": null,
      "contractAddress": "0xbf4a322f1496e5c3d34a9bcdb4c60567b38c7de2",
      "function": "sell(uint256)",
      "arguments": [
        "974060670041788760061"
      ],
      "transaction": {
        "from": "0xc77f7fed3b5cc8249adc428c5f44c9063b9734b4",
        "to": "0xbf4a322f1496e5c3d34a9bcdb4c60567b38c7de2",
        "gas": "0x16fea",
        "value": "0x0",
        "input": "0xe4849b32000000000000000000000000000000000000000000000034cdceaa9bbfcbbffd",
        "nonce": "0xdd5",
        "chainId": "0xaa36a7"
      },
      "additionalContracts": [],
      "isFixedGasLimit": false
    }
  ],
  "receipts": [
    {
      "status": "0x1",
      "cumulativeGasUsed": "0xca36bb",
      "logs": [
        {
          "address": "0xbf4a322f1496e5c3d34a9bcdb4c60567b38c7de2",
          "topics": [
            "0xddf252ad1be2c89b69c2b068fc378daa952ba7f163c4a11628f55a4df523b3ef",
            "0x000000000000000000000000c77f7fed3b5cc8249adc428c5f44c9063b9734b4",
            "0x0000000000000000000000000000000000000000000000000000000000000000"
          ],
          "data": "0x000000000000000000000000000000000000000000000034cdceaa9bbfcbbffd",
          "blockHash": "0x50ea84111c2a2f6bb3846b0f6da84f3c4c971cbb4d2f8b98f148f47e3e422a17",
          "blockNumber": "0x7266b3",
          "transactionHash": "0xf0c31317b496599cef0af99548431d638e8b87c393bd494aacae0c5da99cd19a",
          "transactionIndex": "0x3b",
          "logIndex": "0x56",
          "removed": false
        },
        {
          "address": "0xbf4a322f1496e5c3d34a9bcdb4c60567b38c7de2",
          "topics": [
            "0x4afcb4a87cdbd9974efdb92ee48bc8d7cd0ae4bf217004db3d080cbaee652ca7"
          ],
          "data": "0x000000000000000000000000000000000000000000000000000000006787c36800000000000000000000000000000000000000000000000000039f34e97376bc0000000000000000000000000000000000000000000000000dc7e3d441cf767e",
          "blockHash": "0x50ea84111c2a2f6bb3846b0f6da84f3c4c971cbb4d2f8b98f148f47e3e422a17",
          "blockNumber": "0x7266b3",
          "transactionHash": "0xf0c31317b496599cef0af99548431d638e8b87c393bd494aacae0c5da99cd19a",
          "transactionIndex": "0x3b",
          "logIndex": "0x57",
          "removed": false
        }
      ],
      "logsBloom": "0x00000000000000000000000000000000000000000000000000000000000000000000000000000000000000000000000000000000000000004000000000000000000000000000000000000008000000000000001000000000000000000000000000000000020000000000000000000800020000000000000000000010000000000000000000000000000000000000000000000000000008000000010000000000000000000000000000000000000000004000000000000000000000000000000000000002000000800000000000001000000000000000080000000000000020000000000000000000000000000000000000000000000000000000000000000000",
      "type": "0x2",
      "transactionHash": "0xf0c31317b496599cef0af99548431d638e8b87c393bd494aacae0c5da99cd19a",
      "transactionIndex": "0x3b",
      "blockHash": "0x50ea84111c2a2f6bb3846b0f6da84f3c4c971cbb4d2f8b98f148f47e3e422a17",
      "blockNumber": "0x7266b3",
      "gasUsed": "0xfb91",
      "effectiveGasPrice": "0x1cc576f96",
      "from": "0xc77f7fed3b5cc8249adc428c5f44c9063b9734b4",
      "to": "0xbf4a322f1496e5c3d34a9bcdb4c60567b38c7de2",
      "contractAddress": null
    }
  ],
  "libraries": [],
  "pending": [],
  "returns": {},
  "timestamp": 1736950633,
  "chain": 11155111,
  "commit": "51a374b"
}