{
  "transactions": [
    {
      "hash": "0x237239183f2e14da635e24c563aa65405682f9030b8abfabf2b460db4b107079",
      "transactionType": "CALL",
      "contractName": null,
      "contractAddress": "0x5eb9cc76c3506942c1c0ead70e877dd5e4f00cb0",
      "function": "buy(address)",
      "arguments": [
        "0xC77f7fed3b5Cc8249aDc428c5F44C9063B9734b4"
      ],
      "transaction": {
        "from": "0xc77f7fed3b5cc8249adc428c5f44c9063b9734b4",
        "to": "0x5eb9cc76c3506942c1c0ead70e877dd5e4f00cb0",
        "gas": "0x1b30c",
        "value": "0xde0b6b3a7640000",
        "input": "0xf088d547000000000000000000000000c77f7fed3b5cc8249adc428c5f44c9063b9734b4",
        "nonce": "0x338",
        "chainId": "0xaa36a7"
      },
      "additionalContracts": [],
      "isFixedGasLimit": false
    }
  ],
  "receipts": [
    {
      "status": "0x1",
      "cumulativeGasUsed": "0xd21757",
      "logs": [
        {
          "address": "0x5eb9cc76c3506942c1c0ead70e877dd5e4f00cb0",
          "topics": [
            "0xddf252ad1be2c89b69c2b068fc378daa952ba7f163c4a11628f55a4df523b3ef",
            "0x0000000000000000000000000000000000000000000000000000000000000000",
            "0x000000000000000000000000c77f7fed3b5cc8249adc428c5f44c9063b9734b4"
          ],
          "data": "0x00000000000000000000000000000000000000000000003575731be5afa9a6a2",
          "blockHash": "0xe8c3526d7f16ddcb5ee398019f3e3d320652e2b3320760b431631aeadc46d968",
          "blockNumber": "0x724f25",
          "transactionHash": "0x237239183f2e14da635e24c563aa65405682f9030b8abfabf2b460db4b107079",
          "transactionIndex": "0x5a",
          "logIndex": "0x9e",
          "removed": false
        },
        {
          "address": "0x5eb9cc76c3506942c1c0ead70e877dd5e4f00cb0",
          "topics": [
            "0xddf252ad1be2c89b69c2b068fc378daa952ba7f163c4a11628f55a4df523b3ef",
            "0x0000000000000000000000000000000000000000000000000000000000000000",
            "0x000000000000000000000000c77f7fed3b5cc8249adc428c5f44c9063b9734b4"
          ],
          "data": "0x000000000000000000000000000000000000000000000000298337ecd9378834",
          "blockHash": "0xe8c3526d7f16ddcb5ee398019f3e3d320652e2b3320760b431631aeadc46d968",
          "blockNumber": "0x724f25",
          "transactionHash": "0x237239183f2e14da635e24c563aa65405682f9030b8abfabf2b460db4b107079",
          "transactionIndex": "0x5a",
          "logIndex": "0x9f",
          "removed": false
        },
        {
          "address": "0x5eb9cc76c3506942c1c0ead70e877dd5e4f00cb0",
          "topics": [
            "0x4afcb4a87cdbd9974efdb92ee48bc8d7cd0ae4bf217004db3d080cbaee652ca7"
          ],
          "data": "0x000000000000000000000000000000000000000000000000000000006786a7700000000000000000000000000000000000000000000000000003910de46cec6f0000000000000000000000000000000000000000000000000de0b6b3a7640000",
          "blockHash": "0xe8c3526d7f16ddcb5ee398019f3e3d320652e2b3320760b431631aeadc46d968",
          "blockNumber": "0x724f25",
          "transactionHash": "0x237239183f2e14da635e24c563aa65405682f9030b8abfabf2b460db4b107079",
          "transactionIndex": "0x5a",
          "logIndex": "0xa0",
          "removed": false
        }
      ],
      "logsBloom": "0x00000000000000000000000000000000000000000000000000000000000000000000000000000000000000000000000000000000000000004000000000000000000000000000000000000008000000000000000000000000000000000000000000000000020000000000000004000800020000000000000000000010000000000000000000000000000000000000000000000000000000000000010000000000000000000000000000000000000000004000000000000000000000000000020000000002000000800000008000000000000000000000080000000000000020000000000000000000000000000000000000000000000000000000000000000000",
      "type": "0x2",
      "transactionHash": "0x237239183f2e14da635e24c563aa65405682f9030b8abfabf2b460db4b107079",
      "transactionIndex": "0x5a",
      "blockHash": "0xe8c3526d7f16ddcb5ee398019f3e3d320652e2b3320760b431631aeadc46d968",
      "blockNumber": "0x724f25",
      "gasUsed": "0x13af8",
      "effectiveGasPrice": "0x63845677c",
      "from": "0xc77f7fed3b5cc8249adc428c5f44c9063b9734b4",
      "to": "0x5eb9cc76c3506942c1c0ead70e877dd5e4f00cb0",
      "contractAddress": null
    }
  ],
  "libraries": [],
  "pending": [],
  "returns": {},
  "timestamp": 1736877938,
  "chain": 11155111,
  "commit": "51a374b"
}