{
  "transactions": [
    {
      "hash": "0x59acd8dff77d12e945f600132bece3c5535b29f40e308298e30c72653ef1cf2d",
      "transactionType": "CALL",
      "contractName": null,
      "contractAddress": "0x8aafd3ede9adb0ff97c7aebce82a919afb1c8764",
      "function": "sell(uint256)",
      "arguments": [
        "5492652503811589967"
      ],
      "transaction": {
        "from": "0xc77f7fed3b5cc8249adc428c5f44c9063b9734b4",
        "to": "0x8aafd3ede9adb0ff97c7aebce82a919afb1c8764",
        "gas": "0x15dca",
        "value": "0x0",
        "input": "0xe4849b320000000000000000000000000000000000000000000000004c39d259d459874f",
        "nonce": "0x11aa",
        "chainId": "0xaa36a7"
      },
      "additionalContracts": [],
      "isFixedGasLimit": false
    }
  ],
  "receipts": [
    {
      "status": "0x1",
      "cumulativeGasUsed": "0xbf4130",
      "logs": [
        {
          "address": "0x8aafd3ede9adb0ff97c7aebce82a919afb1c8764",
          "topics": [
            "0xddf252ad1be2c89b69c2b068fc378daa952ba7f163c4a11628f55a4df523b3ef",
            "0x000000000000000000000000c77f7fed3b5cc8249adc428c5f44c9063b9734b4",
            "0x0000000000000000000000000000000000000000000000000000000000000000"
          ],
          "data": "0x0000000000000000000000000000000000000000000000004b9db60b496f5720",
          "blockHash": "0xff880c6bbec60b030f716f624e39e190fe0fb82741e82c73daeec86c233ae31f",
          "blockNumber": "0x731874",
          "transactionHash": "0x59acd8dff77d12e945f600132bece3c5535b29f40e308298e30c72653ef1cf2d",
          "transactionIndex": "0x92",
          "logIndex": "0xe5",
          "removed": false
        },
        {
          "address": "0x8aafd3ede9adb0ff97c7aebce82a919afb1c8764",
          "topics": [
            "0xddf252ad1be2c89b69c2b068fc378daa952ba7f163c4a11628f55a4df523b3ef",
            "0x000000000000000000000000c77f7fed3b5cc8249adc428c5f44c9063b9734b4",
            "0x000000000000000000000000c77f7fed3b5cc8249adc428c5f44c9063b9734b4"
          ],
          "data": "0x000000000000000000000000000000000000000000000000009c1c4e8aea302f",
          "blockHash": "0xff880c6bbec60b030f716f624e39e190fe0fb82741e82c73daeec86c233ae31f",
          "blockNumber": "0x731874",
          "transactionHash": "0x59acd8dff77d12e945f600132bece3c5535b29f40e308298e30c72653ef1cf2d",
          "transactionIndex": "0x92",
          "logIndex": "0xe6",
          "removed": false
        },
        {
          "address": "0x8aafd3ede9adb0ff97c7aebce82a919afb1c8764",
          "topics": [
            "0x4afcb4a87cdbd9974efdb92ee48bc8d7cd0ae4bf217004db3d080cbaee652ca7"
          ],
          "data": "0x0000000000000000000000000000000000000000000000000000000067902240000000000000000000000000000000000000000000000000000524dae8d3447d000000000000000000000000000000000000000000000000001c40fb6653b45e",
          "blockHash": "0xff880c6bbec60b030f716f624e39e190fe0fb82741e82c73daeec86c233ae31f",
          "blockNumber": "0x731874",
          "transactionHash": "0x59acd8dff77d12e945f600132bece3c5535b29f40e308298e30c72653ef1cf2d",
          "transactionIndex": "0x92",
          "logIndex": "0xe7",
          "removed": false
        }
      ],
      "logsBloom": "0x00000000000000000000000000000000000000000600000000000000000000000000000000000000000000000000000000000000000000004000000000000000000000000000004000000008000000000000000000000000000000000000000000000000020000000000000000000800020000000000000000000010000000000000000000000000000000000000000000000000000000000000010000000000000000000000000000000000000000004000000000000000000000000000000000000002000000800000000000000000000000000000080000000000000020000000000000000000000000000000000000000000000000000000000000000000",
      "type": "0x2",
      "transactionHash": "0x59acd8dff77d12e945f600132bece3c5535b29f40e308298e30c72653ef1cf2d",
      "transactionIndex": "0x92",
      "blockHash": "0xff880c6bbec60b030f716f624e39e190fe0fb82741e82c73daeec86c233ae31f",
      "blockNumber": "0x731874",
      "gasUsed": "0xfd3f",
      "effectiveGasPrice": "0x4e89da40",
      "from": "0xc77f7fed3b5cc8249adc428c5f44c9063b9734b4",
      "to": "0x8aafd3ede9adb0ff97c7aebce82a919afb1c8764",
      "contractAddress": null
    }
  ],
  "libraries": [],
  "pending": [],
  "returns": {},
  "timestamp": 1737499201,
  "chain": 11155111,
  "commit": "1d2fb70"
}