{
  "transactions": [
    {
      "hash": "0x5ba638f1cdbeabdb977f47a98057ac4ca7e2dbfafead95b8dd950bb793a6d06c",
      "transactionType": "CALL",
      "contractName": null,
      "contractAddress": "0x5eb9cc76c3506942c1c0ead70e877dd5e4f00cb0",
      "function": "sell(uint256)",
      "arguments": [
        "989099042958769058510"
      ],
      "transaction": {
        "from": "0xc77f7fed3b5cc8249adc428c5f44c9063b9734b4",
        "to": "0x5eb9cc76c3506942c1c0ead70e877dd5e4f00cb0",
        "gas": "0x16fec",
        "value": "0x0",
        "input": "0xe4849b320000000000000000000000000000000000000000000000359e81b3198442f2ce",
        "nonce": "0x407",
        "chainId": "0xaa36a7"
      },
      "additionalContracts": [],
      "isFixedGasLimit": false
    }
  ],
  "receipts": [
    {
      "status": "0x1",
      "cumulativeGasUsed": "0xe38166",
      "logs": [
        {
          "address": "0x5eb9cc76c3506942c1c0ead70e877dd5e4f00cb0",
          "topics": [
            "0xddf252ad1be2c89b69c2b068fc378daa952ba7f163c4a11628f55a4df523b3ef",
            "0x000000000000000000000000c77f7fed3b5cc8249adc428c5f44c9063b9734b4",
            "0x0000000000000000000000000000000000000000000000000000000000000000"
          ],
          "data": "0x0000000000000000000000000000000000000000000000359e81b3198442f2ce",
          "blockHash": "0xf218b3fe2042923713e81f5ef5b441dc5fe59e4e06acf071ec594987b42b0b64",
          "blockNumber": "0x725012",
          "transactionHash": "0x5ba638f1cdbeabdb977f47a98057ac4ca7e2dbfafead95b8dd950bb793a6d06c",
          "transactionIndex": "0x84",
          "logIndex": "0x102",
          "removed": false
        },
        {
          "address": "0x5eb9cc76c3506942c1c0ead70e877dd5e4f00cb0",
          "topics": [
            "0x4afcb4a87cdbd9974efdb92ee48bc8d7cd0ae4bf217004db3d080cbaee652ca7"
          ],
          "data": "0x000000000000000000000000000000000000000000000000000000006786b2a400000000000000000000000000000000000000000000000000039115b2c0e6790000000000000000000000000000000000000000000000000dc7db1331e5bed0",
          "blockHash": "0xf218b3fe2042923713e81f5ef5b441dc5fe59e4e06acf071ec594987b42b0b64",
          "blockNumber": "0x725012",
          "transactionHash": "0x5ba638f1cdbeabdb977f47a98057ac4ca7e2dbfafead95b8dd950bb793a6d06c",
          "transactionIndex": "0x84",
          "logIndex": "0x103",
          "removed": false
        }
      ],
      "logsBloom": "0x00000000000000000000000000000000000000000000000000000000000000000000000000000000000000000000000000000000000000004000000000000000000000000000000000000008000000000000000000000000000000000000000000000000020000000000000004000800020000000000000000000010000000000000000000000000000000000000000000000000000000000000010000000000000000000000000000000000000000004000000000000000000000000000020000000002000000800000008000000000000000000000080000000000000020000000000000000000000000000000000000000000000000000000000000000000",
      "type": "0x2",
      "transactionHash": "0x5ba638f1cdbeabdb977f47a98057ac4ca7e2dbfafead95b8dd950bb793a6d06c",
      "transactionIndex": "0x84",
      "blockHash": "0xf218b3fe2042923713e81f5ef5b441dc5fe59e4e06acf071ec594987b42b0b64",
      "blockNumber": "0x725012",
      "gasUsed": "0xfb93",
      "effectiveGasPrice": "0x329f8427b",
      "from": "0xc77f7fed3b5cc8249adc428c5f44c9063b9734b4",
      "to": "0x5eb9cc76c3506942c1c0ead70e877dd5e4f00cb0",
      "contractAddress": null
    }
  ],
  "libraries": [],
  "pending": [],
  "returns": {},
  "timestamp": 1736880806,
  "chain": 11155111,
  "commit": "51a374b"
}