{
  "transactions": [
    {
      "hash": "0x1cbe7c6b7d5cd1a6a538535a5f2b2d58d7215506c0cf84cee66828d7e22f3b00",
      "transactionType": "CALL",
      "contractName": null,
      "contractAddress": "0x5eb9cc76c3506942c1c0ead70e877dd5e4f00cb0",
      "function": "buy(address)",
      "arguments": [
        "0xC77f7fed3b5Cc8249aDc428c5F44C9063B9734b4"
      ],
      "transaction": {
        "from": "0xc77f7fed3b5cc8249adc428c5f44c9063b9734b4",
        "to": "0x5eb9cc76c3506942c1c0ead70e877dd5e4f00cb0",
        "gas": "0x156c8",
        "value": "0xde0b6b3a7640000",
        "input": "0xf088d547000000000000000000000000c77f7fed3b5cc8249adc428c5f44c9063b9734b4",
        "nonce": "0x169",
        "chainId": "0xaa36a7"
      },
      "additionalContracts": [],
      "isFixedGasLimit": false
    }
  ],
  "receipts": [
    {
      "status": "0x1",
      "cumulativeGasUsed": "0x218f166",
      "logs": [
        {
          "address": "0x5eb9cc76c3506942c1c0ead70e877dd5e4f00cb0",
          "topics": [
            "0xddf252ad1be2c89b69c2b068fc378daa952ba7f163c4a11628f55a4df523b3ef",
            "0x0000000000000000000000000000000000000000000000000000000000000000",
            "0x000000000000000000000000c77f7fed3b5cc8249adc428c5f44c9063b9734b4"
          ],
          "data": "0x000000000000000000000000000000000000000000000035a6d89001c18fd12a",
          "blockHash": "0xa593f44c747e533ddc07860a5745bf45c36bb6a5f05762f8db3ffbce9b8328f6",
          "blockNumber": "0x723c25",
          "transactionHash": "0x1cbe7c6b7d5cd1a6a538535a5f2b2d58d7215506c0cf84cee66828d7e22f3b00",
          "transactionIndex": "0xae",
          "logIndex": "0x2e8",
          "removed": false
        },
        {
          "address": "0x5eb9cc76c3506942c1c0ead70e877dd5e4f00cb0",
          "topics": [
            "0xddf252ad1be2c89b69c2b068fc378daa952ba7f163c4a11628f55a4df523b3ef",
            "0x0000000000000000000000000000000000000000000000000000000000000000",
            "0x000000000000000000000000c77f7fed3b5cc8249adc428c5f44c9063b9734b4"
          ],
          "data": "0x00000000000000000000000000000000000000000000000029a9938d1bfdb3ed",
          "blockHash": "0xa593f44c747e533ddc07860a5745bf45c36bb6a5f05762f8db3ffbce9b8328f6",
          "blockNumber": "0x723c25",
          "transactionHash": "0x1cbe7c6b7d5cd1a6a538535a5f2b2d58d7215506c0cf84cee66828d7e22f3b00",
          "transactionIndex": "0xae",
          "logIndex": "0x2e9",
          "removed": false
        },
        {
          "address": "0x5eb9cc76c3506942c1c0ead70e877dd5e4f00cb0",
          "topics": [
            "0x4afcb4a87cdbd9974efdb92ee48bc8d7cd0ae4bf217004db3d080cbaee652ca7"
          ],
          "data": "0x000000000000000000000000000000000000000000000000000000006785c31000000000000000000000000000000000000000000000000000038dc541ca3c8d0000000000000000000000000000000000000000000000000de0b6b3a7640000",
          "blockHash": "0xa593f44c747e533ddc07860a5745bf45c36bb6a5f05762f8db3ffbce9b8328f6",
          "blockNumber": "0x723c25",
          "transactionHash": "0x1cbe7c6b7d5cd1a6a538535a5f2b2d58d7215506c0cf84cee66828d7e22f3b00",
          "transactionIndex": "0xae",
          "logIndex": "0x2ea",
          "removed": false
        }
      ],
      "logsBloom": "0x00000000000000000000000000000000000000000000000000000000000000000000000000000000000000000000000000000000000000004000000000000000000000000000000000000008000000000000000000000000000000000000000000000000020000000000000004000800020000000000000000000010000000000000000000000000000000000000000000000000000000000000010000000000000000000000000000000000000000004000000000000000000000000000020000000002000000800000008000000000000000000000080000000000000020000000000000000000000000000000000000000000000000000000000000000000",
      "type": "0x2",
      "transactionHash": "0x1cbe7c6b7d5cd1a6a538535a5f2b2d58d7215506c0cf84cee66828d7e22f3b00",
      "transactionIndex": "0xae",
      "blockHash": "0xa593f44c747e533ddc07860a5745bf45c36bb6a5f05762f8db3ffbce9b8328f6",
      "blockNumber": "0x723c25",
      "gasUsed": "0xf82c",
      "effectiveGasPrice": "0x1df244d41",
      "from": "0xc77f7fed3b5cc8249adc428c5f44c9063b9734b4",
      "to": "0x5eb9cc76c3506942c1c0ead70e877dd5e4f00cb0",
      "contractAddress": null
    }
  ],
  "libraries": [],
  "pending": [],
  "returns": {},
  "timestamp": 1736819473,
  "chain": 11155111,
  "commit": "51a374b"
}