{
  "transactions": [
    {
      "hash": "0xca419751bafcd46811dc680c3381e9d9264c92d4c1105b45843d3f03c878400a",
      "transactionType": "CALL",
      "contractName": null,
      "contractAddress": "0x270e88f8683660553e8ba4eb2ad7c91a1710d769",
      "function": "sell(uint256)",
      "arguments": [
        "973586314662755402437"
      ],
      "transaction": {
        "from": "0xc77f7fed3b5cc8249adc428c5f44c9063b9734b4",
        "to": "0x270e88f8683660553e8ba4eb2ad7c91a1710d769",
        "gas": "0x16fec",
        "value": "0x0",
        "input": "0xe4849b32000000000000000000000000000000000000000000000034c7396ae7873782c5",
        "nonce": "0x551",
        "chainId": "0xaa36a7"
      },
      "additionalContracts": [],
      "isFixedGasLimit": false
    }
  ],
  "receipts": [
    {
      "status": "0x1",
      "cumulativeGasUsed": "0x153b3be",
      "logs": [
        {
          "address": "0x270e88f8683660553e8ba4eb2ad7c91a1710d769",
          "topics": [
            "0xddf252ad1be2c89b69c2b068fc378daa952ba7f163c4a11628f55a4df523b3ef",
            "0x000000000000000000000000c77f7fed3b5cc8249adc428c5f44c9063b9734b4",
            "0x0000000000000000000000000000000000000000000000000000000000000000"
          ],
          "data": "0x000000000000000000000000000000000000000000000034c7396ae7873782c5",
          "blockHash": "0x3dcedd63cb5ad27acf0efd0adc01e1419f83db444215d556e13323832385b1e3",
          "blockNumber": "0x7251f1",
          "transactionHash": "0xca419751bafcd46811dc680c3381e9d9264c92d4c1105b45843d3f03c878400a",
          "transactionIndex": "0x6d",
          "logIndex": "0xea",
          "removed": false
        },
        {
          "address": "0x270e88f8683660553e8ba4eb2ad7c91a1710d769",
          "topics": [
            "0x4afcb4a87cdbd9974efdb92ee48bc8d7cd0ae4bf217004db3d080cbaee652ca7"
          ],
          "data": "0x000000000000000000000000000000000000000000000000000000006786c93c00000000000000000000000000000000000000000000000000039fecfc312c070000000000000000000000000000000000000000000000000dc84094fc838e27",
          "blockHash": "0x3dcedd63cb5ad27acf0efd0adc01e1419f83db444215d556e13323832385b1e3",
          "blockNumber": "0x7251f1",
          "transactionHash": "0xca419751bafcd46811dc680c3381e9d9264c92d4c1105b45843d3f03c878400a",
          "transactionIndex": "0x6d",
          "logIndex": "0xeb",
          "removed": false
        }
      ],
      "logsBloom": "0x00000000000000000000000000000000000000000000000000000000000000000000000000000000000000000000000020000000000000004000000000000000000000000000000000000008000000000000000000000000000000000000000000000000020000000000000000000800020000000000000000000010000000000000000000010000000000000000000000000000000000000000010000000000000000000000000000000000000000004000000000000000000000000000000000000002000000800000000000000000000000000000080000008000000020000000000000000000000000000000000000000000000000000000000000000000",
      "type": "0x2",
      "transactionHash": "0xca419751bafcd46811dc680c3381e9d9264c92d4c1105b45843d3f03c878400a",
      "transactionIndex": "0x6d",
      "blockHash": "0x3dcedd63cb5ad27acf0efd0adc01e1419f83db444215d556e13323832385b1e3",
      "blockNumber": "0x7251f1",
      "gasUsed": "0xfb93",
      "effectiveGasPrice": "0x406660d62",
      "from": "0xc77f7fed3b5cc8249adc428c5f44c9063b9734b4",
      "to": "0x270e88f8683660553e8ba4eb2ad7c91a1710d769",
      "contractAddress": null
    }
  ],
  "libraries": [],
  "pending": [],
  "returns": {},
  "timestamp": 1736886589,
  "chain": 11155111,
  "commit": "51a374b"
}