{
  "transactions": [
    {
      "hash": "0x73ed734c57bd940f2a322052d4340b9eb7ed81692e86b502a0b4f0f90e7709e4",
      "transactionType": "CALL",
      "contractName": null,
      "contractAddress": "0x8cb944409af8543dcb0c461c9b0e9edd9c590692",
      "function": "borrow(uint256,uint256)",
      "arguments": [
        "99908256880733944",
        "0"
      ],
      "transaction": {
        "from": "0xf66076775ad1f36dd12c1f1b10c21d1aadf0d6de",
        "to": "0x8cb944409af8543dcb0c461c9b0e9edd9c590692",
        "gas": "0x52cb4",
        "value": "0x0",
        "input": "0x0ecbcdab0000000000000000000000000000000000000000000000000162f207c1812ef80000000000000000000000000000000000000000000000000000000000000000",
        "nonce": "0x3f",
        "chainId": "0xaa36a7"
      },
      "additionalContracts": [],
      "isFixedGasLimit": false
    }
  ],
  "receipts": [
    {
      "status": "0x1",
      "cumulativeGasUsed": "0xfb8a8e",
      "logs": [
        {
          "address": "0x8cb944409af8543dcb0c461c9b0e9edd9c590692",
          "topics": [
            "0xddf252ad1be2c89b69c2b068fc378daa952ba7f163c4a11628f55a4df523b3ef",
            "0x000000000000000000000000f66076775ad1f36dd12c1f1b10c21d1aadf0d6de",
            "0x0000000000000000000000008cb944409af8543dcb0c461c9b0e9edd9c590692"
          ],
          "data": "0x0000000000000000000000000000000000000000000000055de6a779bbad7f06",
          "blockHash": "0x8e422f5b4c937a37ade3b184427343e6d4191a624fffc35454608ccc8e8a937d",
          "blockNumber": "0x73d044",
          "transactionHash": "0x73ed734c57bd940f2a322052d4340b9eb7ed81692e86b502a0b4f0f90e7709e4",
          "transactionIndex": "0x94",
          "logIndex": "0xf8",
          "removed": false
        },
        {
          "address": "0x8cb944409af8543dcb0c461c9b0e9edd9c590692",
          "topics": [
            "0x03bbe564cb1b78e43195eeadbde99e5b89b19345862807fcfb59f884e4165e25"
          ],
          "data": "0x000000000000000000000000f66076775ad1f36dd12c1f1b10c21d1aadf0d6de000000000000000000000000000000000000000000000000015f0a8103ba62ef",
          "blockHash": "0x8e422f5b4c937a37ade3b184427343e6d4191a624fffc35454608ccc8e8a937d",
          "blockNumber": "0x73d044",
          "transactionHash": "0x73ed734c57bd940f2a322052d4340b9eb7ed81692e86b502a0b4f0f90e7709e4",
          "transactionIndex": "0x94",
          "logIndex": "0xf9",
          "removed": false
        },
        {
          "address": "0x8cb944409af8543dcb0c461c9b0e9edd9c590692",
          "topics": [
            "0x03bbe564cb1b78e43195eeadbde99e5b89b19345862807fcfb59f884e4165e25"
          ],
          "data": "0x00000000000000000000000038818e389773445cd73adbaa37b8b169f458c6e100000000000000000000000000000000000000000000000000001b4282d9341b",
          "blockHash": "0x8e422f5b4c937a37ade3b184427343e6d4191a624fffc35454608ccc8e8a937d",
          "blockNumber": "0x73d044",
          "transactionHash": "0x73ed734c57bd940f2a322052d4340b9eb7ed81692e86b502a0b4f0f90e7709e4",
          "transactionIndex": "0x94",
          "logIndex": "0xfa",
          "removed": false
        },
        {
          "address": "0x8cb944409af8543dcb0c461c9b0e9edd9c590692",
          "topics": [
            "0xaec00f5213a37254bc68a26b0685d1a5b2bf513e1e587c94c7df7f4a62b56c9c"
          ],
          "data": "0x0000000000000000000000000000000000000000000000055de6a779bbad7f06000000000000000000000000000000000000000000000000015f655eb7e3bb4c000000000000000000000000000000000000000000000000015f655eb7e3bb4c0000000000000000000000000000000000000000000000055de6a779bbad7f06",
          "blockHash": "0x8e422f5b4c937a37ade3b184427343e6d4191a624fffc35454608ccc8e8a937d",
          "blockNumber": "0x73d044",
          "transactionHash": "0x73ed734c57bd940f2a322052d4340b9eb7ed81692e86b502a0b4f0f90e7709e4",
          "transactionIndex": "0x94",
          "logIndex": "0xfb",
          "removed": false
        },
        {
          "address": "0x8cb944409af8543dcb0c461c9b0e9edd9c590692",
          "topics": [
            "0x4afcb4a87cdbd9974efdb92ee48bc8d7cd0ae4bf217004db3d080cbaee652ca7"
          ],
          "data": "0x00000000000000000000000000000000000000000000000000000000679906980000000000000000000000000000000000000000000000000003966c177933ff00000000000000000000000000000000000000000000000000005addb429585d",
          "blockHash": "0x8e422f5b4c937a37ade3b184427343e6d4191a624fffc35454608ccc8e8a937d",
          "blockNumber": "0x73d044",
          "transactionHash": "0x73ed734c57bd940f2a322052d4340b9eb7ed81692e86b502a0b4f0f90e7709e4",
          "transactionIndex": "0x94",
          "logIndex": "0xfc",
          "removed": false
        }
      ],
      "logsBloom": "0x00000000000000040000000000000100400000000000000000000000000000000008000000000000000000000000000000002000000000004000000000010000000000000000040000000008000000000000000000000000000000000000000000000000000000000000000000000000220000000000000008000010000000000000000000000000000000000000000000000000000000000000000000000000000000000000000000800400000000004000000000000000000000001000000000000002000000000000000000000000000000000000000000000020000000000000000000100000000000000000000000000000000400000000000000000000",
      "type": "0x2",
      "transactionHash": "0x73ed734c57bd940f2a322052d4340b9eb7ed81692e86b502a0b4f0f90e7709e4",
      "transactionIndex": "0x94",
      "blockHash": "0x8e422f5b4c937a37ade3b184427343e6d4191a624fffc35454608ccc8e8a937d",
      "blockNumber": "0x73d044",
      "gasUsed": "0x3bf10",
      "effectiveGasPrice": "0x51b3a4fd",
      "from": "0xf66076775ad1f36dd12c1f1b10c21d1aadf0d6de",
      "to": "0x8cb944409af8543dcb0c461c9b0e9edd9c590692",
      "contractAddress": null
    }
  ],
  "libraries": [],
  "pending": [],
  "returns": {},
  "timestamp": 1738081945,
  "chain": 11155111,
  "commit": "f5162e9"
}