{
  "transactions": [
    {
      "hash": "0xdd930c06238ad40b7b83bfcfb53e16004a844d50b34a29f9ddfae199c1364dfa",
      "transactionType": "CALL",
      "contractName": null,
      "contractAddress": "0x5eb9cc76c3506942c1c0ead70e877dd5e4f00cb0",
      "function": "buy(address)",
      "arguments": [
        "0xC77f7fed3b5Cc8249aDc428c5F44C9063B9734b4"
      ],
      "transaction": {
        "from": "0xc77f7fed3b5cc8249adc428c5f44c9063b9734b4",
        "to": "0x5eb9cc76c3506942c1c0ead70e877dd5e4f00cb0",
        "gas": "0x1b30c",
        "value": "0xde0b6b3a7640000",
        "input": "0xf088d547000000000000000000000000c77f7fed3b5cc8249adc428c5f44c9063b9734b4",
        "nonce": "0x23e",
        "chainId": "0xaa36a7"
      },
      "additionalContracts": [],
      "isFixedGasLimit": false
    }
  ],
  "receipts": [
    {
      "status": "0x1",
      "cumulativeGasUsed": "0x94e110",
      "logs": [
        {
          "address": "0x5eb9cc76c3506942c1c0ead70e877dd5e4f00cb0",
          "topics": [
            "0xddf252ad1be2c89b69c2b068fc378daa952ba7f163c4a11628f55a4df523b3ef",
            "0x0000000000000000000000000000000000000000000000000000000000000000",
            "0x000000000000000000000000c77f7fed3b5cc8249adc428c5f44c9063b9734b4"
          ],
          "data": "0x0000000000000000000000000000000000000000000000357c2b9656b182c553",
          "blockHash": "0x704c38deecd2ec910ea2e1281657198f5209ed99ddf188a6334d9a8f23737fbd",
          "blockNumber": "0x724df5",
          "transactionHash": "0xdd930c06238ad40b7b83bfcfb53e16004a844d50b34a29f9ddfae199c1364dfa",
          "transactionIndex": "0x51",
          "logIndex": "0x76",
          "removed": false
        },
        {
          "address": "0x5eb9cc76c3506942c1c0ead70e877dd5e4f00cb0",
          "topics": [
            "0xddf252ad1be2c89b69c2b068fc378daa952ba7f163c4a11628f55a4df523b3ef",
            "0x0000000000000000000000000000000000000000000000000000000000000000",
            "0x000000000000000000000000c77f7fed3b5cc8249adc428c5f44c9063b9734b4"
          ],
          "data": "0x00000000000000000000000000000000000000000000000029886fef6d7e7392",
          "blockHash": "0x704c38deecd2ec910ea2e1281657198f5209ed99ddf188a6334d9a8f23737fbd",
          "blockNumber": "0x724df5",
          "transactionHash": "0xdd930c06238ad40b7b83bfcfb53e16004a844d50b34a29f9ddfae199c1364dfa",
          "transactionIndex": "0x51",
          "logIndex": "0x77",
          "removed": false
        },
        {
          "address": "0x5eb9cc76c3506942c1c0ead70e877dd5e4f00cb0",
          "topics": [
            "0x4afcb4a87cdbd9974efdb92ee48bc8d7cd0ae4bf217004db3d080cbaee652ca7"
          ],
          "data": "0x00000000000000000000000000000000000000000000000000000000678699300000000000000000000000000000000000000000000000000003909b2958cf990000000000000000000000000000000000000000000000000de0b6b3a7640000",
          "blockHash": "0x704c38deecd2ec910ea2e1281657198f5209ed99ddf188a6334d9a8f23737fbd",
          "blockNumber": "0x724df5",
          "transactionHash": "0xdd930c06238ad40b7b83bfcfb53e16004a844d50b34a29f9ddfae199c1364dfa",
          "transactionIndex": "0x51",
          "logIndex": "0x78",
          "removed": false
        }
      ],
      "logsBloom": "0x00000000000000000000000000000000000000000000000000000000000000000000000000000000000000000000000000000000000000004000000000000000000000000000000000000008000000000000000000000000000000000000000000000000020000000000000004000800020000000000000000000010000000000000000000000000000000000000000000000000000000000000010000000000000000000000000000000000000000004000000000000000000000000000020000000002000000800000008000000000000000000000080000000000000020000000000000000000000000000000000000000000000000000000000000000000",
      "type": "0x2",
      "transactionHash": "0xdd930c06238ad40b7b83bfcfb53e16004a844d50b34a29f9ddfae199c1364dfa",
      "transactionIndex": "0x51",
      "blockHash": "0x704c38deecd2ec910ea2e1281657198f5209ed99ddf188a6334d9a8f23737fbd",
      "blockNumber": "0x724df5",
      "gasUsed": "0x13af8",
      "effectiveGasPrice": "0x3df0ae212",
      "from": "0xc77f7fed3b5cc8249adc428c5f44c9063b9734b4",
      "to": "0x5eb9cc76c3506942c1c0ead70e877dd5e4f00cb0",
      "contractAddress": null
    }
  ],
  "libraries": [],
  "pending": [],
  "returns": {},
  "timestamp": 1736874290,
  "chain": 11155111,
  "commit": "51a374b"
}