{
  "transactions": [
    {
      "hash": "0xbc790355305a1e19c70d8ce488b26b34abb0119a512e717c7f3c81d60d12d118",
      "transactionType": "CALL",
      "contractName": null,
      "contractAddress": "0x8aafd3ede9adb0ff97c7aebce82a919afb1c8764",
      "function": "sell(uint256)",
      "arguments": [
        "711731395350219908208"
      ],
      "transaction": {
        "from": "0xc77f7fed3b5cc8249adc428c5f44c9063b9734b4",
        "to": "0x8aafd3ede9adb0ff97c7aebce82a919afb1c8764",
        "gas": "0x17270",
        "value": "0x0",
        "input": "0xe4849b320000000000000000000000000000000000000000000000269541dd280ef6e470",
        "nonce": "0x1069",
        "chainId": "0xaa36a7"
      },
      "additionalContracts": [],
      "isFixedGasLimit": false
    }
  ],
  "receipts": [
    {
      "status": "0x1",
      "cumulativeGasUsed": "0xcc772c",
      "logs": [
        {
          "address": "0x8aafd3ede9adb0ff97c7aebce82a919afb1c8764",
          "topics": [
            "0xddf252ad1be2c89b69c2b068fc378daa952ba7f163c4a11628f55a4df523b3ef",
            "0x000000000000000000000000c77f7fed3b5cc8249adc428c5f44c9063b9734b4",
            "0x0000000000000000000000000000000000000000000000000000000000000000"
          ],
          "data": "0x000000000000000000000000000000000000000000000026463d3db0f438804f",
          "blockHash": "0xc8026e233eb0b540980b2211a434e363d48c26b2ea98982b96aa6610229b660d",
          "blockNumber": "0x7316ef",
          "transactionHash": "0xbc790355305a1e19c70d8ce488b26b34abb0119a512e717c7f3c81d60d12d118",
          "transactionIndex": "0x8b",
          "logIndex": "0xa1",
          "removed": false
        },
        {
          "address": "0x8aafd3ede9adb0ff97c7aebce82a919afb1c8764",
          "topics": [
            "0xddf252ad1be2c89b69c2b068fc378daa952ba7f163c4a11628f55a4df523b3ef",
            "0x000000000000000000000000c77f7fed3b5cc8249adc428c5f44c9063b9734b4",
            "0x000000000000000000000000c77f7fed3b5cc8249adc428c5f44c9063b9734b4"
          ],
          "data": "0x0000000000000000000000000000000000000000000000004f049f771abe6421",
          "blockHash": "0xc8026e233eb0b540980b2211a434e363d48c26b2ea98982b96aa6610229b660d",
          "blockNumber": "0x7316ef",
          "transactionHash": "0xbc790355305a1e19c70d8ce488b26b34abb0119a512e717c7f3c81d60d12d118",
          "transactionIndex": "0x8b",
          "logIndex": "0xa2",
          "removed": false
        },
        {
          "address": "0x8aafd3ede9adb0ff97c7aebce82a919afb1c8764",
          "topics": [
            "0x4afcb4a87cdbd9974efdb92ee48bc8d7cd0ae4bf217004db3d080cbaee652ca7"
          ],
          "data": "0x0000000000000000000000000000000000000000000000000000000067900fec0000000000000000000000000000000000000000000000000004f65d6c89daf40000000000000000000000000000000000000000000000000dc8fe3c78e7df5f",
          "blockHash": "0xc8026e233eb0b540980b2211a434e363d48c26b2ea98982b96aa6610229b660d",
          "blockNumber": "0x7316ef",
          "transactionHash": "0xbc790355305a1e19c70d8ce488b26b34abb0119a512e717c7f3c81d60d12d118",
          "transactionIndex": "0x8b",
          "logIndex": "0xa3",
          "removed": false
        }
      ],
      "logsBloom": "0x00000000000000000000000000000000000000000600000000000000000000000000000000000000000000000000000000000000000000004000000000000000000000000000004000000008000000000000000000000000000000000000000000000000020000000000000000000800020000000000000000000010000000000000000000000000000000000000000000000000000000000000010000000000000000000000000000000000000000004000000000000000000000000000000000000002000000800000000000000000000000000000080000000000000020000000000000000000000000000000000000000000000000000000000000000000",
      "type": "0x2",
      "transactionHash": "0xbc790355305a1e19c70d8ce488b26b34abb0119a512e717c7f3c81d60d12d118",
      "transactionIndex": "0x8b",
      "blockHash": "0xc8026e233eb0b540980b2211a434e363d48c26b2ea98982b96aa6610229b660d",
      "blockNumber": "0x7316ef",
      "gasUsed": "0xfd4b",
      "effectiveGasPrice": "0x43f0334b",
      "from": "0xc77f7fed3b5cc8249adc428c5f44c9063b9734b4",
      "to": "0x8aafd3ede9adb0ff97c7aebce82a919afb1c8764",
      "contractAddress": null
    }
  ],
  "libraries": [],
  "pending": [],
  "returns": {},
  "timestamp": 1737494508,
  "chain": 11155111,
  "commit": "1d2fb70"
}