{
  "transactions": [
    {
      "hash": "0x8271c82b3bf64c0a96ff990a368590441f04fb1c7a02b674609174b9e21799f1",
      "transactionType": "CALL",
      "contractName": null,
      "contractAddress": "0xc35ac92a931c0a4a53ecc09338b9ed77044b1053",
      "function": "borrow(uint256,uint256)",
      "arguments": [
        "33326356359652779",
        "0"
      ],
      "transaction": {
        "from": "0xc77f7fed3b5cc8249adc428c5f44c9063b9734b4",
        "to": "0xc35ac92a931c0a4a53ecc09338b9ed77044b1053",
        "gas": "0x23e7f",
        "value": "0x0",
        "input": "0x0ecbcdab000000000000000000000000000000000000000000000000007666250079a5ab0000000000000000000000000000000000000000000000000000000000000000",
        "nonce": "0x188e",
        "chainId": "0xaa36a7"
      },
      "additionalContracts": [],
      "isFixedGasLimit": false
    }
  ],
  "receipts": [
    {
      "status": "0x1",
      "cumulativeGasUsed": "0x19d0d53",
      "logs": [
        {
          "address": "0xc35ac92a931c0a4a53ecc09338b9ed77044b1053",
          "topics": [
            "0xddf252ad1be2c89b69c2b068fc378daa952ba7f163c4a11628f55a4df523b3ef",
            "0x000000000000000000000000c77f7fed3b5cc8249adc428c5f44c9063b9734b4",
            "0x000000000000000000000000c35ac92a931c0a4a53ecc09338b9ed77044b1053"
          ],
          "data": "0x0000000000000000000000000000000000000000000000001327afd8ca5c5456",
          "blockHash": "0xe62fa39cf2da71c3273736e39c25b749041d417b9c563029cd3fc63c4370f090",
          "blockNumber": "0x737f3e",
          "transactionHash": "0x8271c82b3bf64c0a96ff990a368590441f04fb1c7a02b674609174b9e21799f1",
          "transactionIndex": "0xba",
          "logIndex": "0x1f9",
          "removed": false
        },
        {
          "address": "0xc35ac92a931c0a4a53ecc09338b9ed77044b1053",
          "topics": [
            "0xddf252ad1be2c89b69c2b068fc378daa952ba7f163c4a11628f55a4df523b3ef",
            "0x000000000000000000000000c35ac92a931c0a4a53ecc09338b9ed77044b1053",
            "0x000000000000000000000000c77f7fed3b5cc8249adc428c5f44c9063b9734b4"
          ],
          "data": "0x0000000000000000000000000000000000000000000000000001e995aee1fe87",
          "blockHash": "0xe62fa39cf2da71c3273736e39c25b749041d417b9c563029cd3fc63c4370f090",
          "blockNumber": "0x737f3e",
          "transactionHash": "0x8271c82b3bf64c0a96ff990a368590441f04fb1c7a02b674609174b9e21799f1",
          "transactionIndex": "0xba",
          "logIndex": "0x1fa",
          "removed": false
        },
        {
          "address": "0xc35ac92a931c0a4a53ecc09338b9ed77044b1053",
          "topics": [
            "0xddf252ad1be2c89b69c2b068fc378daa952ba7f163c4a11628f55a4df523b3ef",
            "0x000000000000000000000000c35ac92a931c0a4a53ecc09338b9ed77044b1053",
            "0x0000000000000000000000000000000000000000000000000000000000000000"
          ],
          "data": "0x0000000000000000000000000000000000000000000000000004765d42b9fc93",
          "blockHash": "0xe62fa39cf2da71c3273736e39c25b749041d417b9c563029cd3fc63c4370f090",
          "blockNumber": "0x737f3e",
          "transactionHash": "0x8271c82b3bf64c0a96ff990a368590441f04fb1c7a02b674609174b9e21799f1",
          "transactionIndex": "0xba",
          "logIndex": "0x1fb",
          "removed": false
        },
        {
          "address": "0xc35ac92a931c0a4a53ecc09338b9ed77044b1053",
          "topics": [
            "0x03bbe564cb1b78e43195eeadbde99e5b89b19345862807fcfb59f884e4165e25"
          ],
          "data": "0x000000000000000000000000c77f7fed3b5cc8249adc428c5f44c9063b9734b400000000000000000000000000000000000000000000000000751008acf897b1",
          "blockHash": "0xe62fa39cf2da71c3273736e39c25b749041d417b9c563029cd3fc63c4370f090",
          "blockNumber": "0x737f3e",
          "transactionHash": "0x8271c82b3bf64c0a96ff990a368590441f04fb1c7a02b674609174b9e21799f1",
          "transactionIndex": "0xba",
          "logIndex": "0x1fc",
          "removed": false
        },
        {
          "address": "0xc35ac92a931c0a4a53ecc09338b9ed77044b1053",
          "topics": [
            "0xaec00f5213a37254bc68a26b0685d1a5b2bf513e1e587c94c7df7f4a62b56c9c"
          ],
          "data": "0x0000000000000000000000000000000000000000000000000000000000000000000000000000000000000000000000000000000000000000000000000000000000000000000000000000000000000000000000000000000087dd752cbdffe00000000000000000000000000000000000000000000000001633e95ae533be5cc0",
          "blockHash": "0xe62fa39cf2da71c3273736e39c25b749041d417b9c563029cd3fc63c4370f090",
          "blockNumber": "0x737f3e",
          "transactionHash": "0x8271c82b3bf64c0a96ff990a368590441f04fb1c7a02b674609174b9e21799f1",
          "transactionIndex": "0xba",
          "logIndex": "0x1fd",
          "removed": false
        },
        {
          "address": "0xc35ac92a931c0a4a53ecc09338b9ed77044b1053",
          "topics": [
            "0xaec00f5213a37254bc68a26b0685d1a5b2bf513e1e587c94c7df7f4a62b56c9c"
          ],
          "data": "0x0000000000000000000000000000000000000000000000004595e7f35b02057b0000000000000000000000000000000000000000000000000098952020b4a35a00000000000000000000000000000000000000000000000088760a4cdeb4835a000000000000000000000000000000000000000000000016797f42d88ec0623b",
          "blockHash": "0xe62fa39cf2da71c3273736e39c25b749041d417b9c563029cd3fc63c4370f090",
          "blockNumber": "0x737f3e",
          "transactionHash": "0x8271c82b3bf64c0a96ff990a368590441f04fb1c7a02b674609174b9e21799f1",
          "transactionIndex": "0xba",
          "logIndex": "0x1fe",
          "removed": false
        },
        {
          "address": "0xc35ac92a931c0a4a53ecc09338b9ed77044b1053",
          "topics": [
            "0x4afcb4a87cdbd9974efdb92ee48bc8d7cd0ae4bf217004db3d080cbaee652ca7"
          ],
          "data": "0x0000000000000000000000000000000000000000000000000000000067951d1c0000000000000000000000000000000000000000000000000055c7b852354a0d000000000000000000000000000000000000000000000000000027673a7bf52b",
          "blockHash": "0xe62fa39cf2da71c3273736e39c25b749041d417b9c563029cd3fc63c4370f090",
          "blockNumber": "0x737f3e",
          "transactionHash": "0x8271c82b3bf64c0a96ff990a368590441f04fb1c7a02b674609174b9e21799f1",
          "transactionIndex": "0xba",
          "logIndex": "0x1ff",
          "removed": false
        }
      ],
      "logsBloom": "0x00000000000000008000000000000100400000000000000000000000000000002008000000000000000000000000000000002000000000004000000800000000000000000000000000000008000000000000000000000000000000000000100000000000020000000000000000000800020000000000000000000010000000000000000000000000000000000000010000000000000000000000010080000000000000000000000000000400000000004000000000000000000000001000000000000002000000800000000000000000000000000000080000000000000020000000000000000000000000000000000000000000000000000000000000000000",
      "type": "0x2",
      "transactionHash": "0x8271c82b3bf64c0a96ff990a368590441f04fb1c7a02b674609174b9e21799f1",
      "transactionIndex": "0xba",
      "blockHash": "0xe62fa39cf2da71c3273736e39c25b749041d417b9c563029cd3fc63c4370f090",
      "blockNumber": "0x737f3e",
      "gasUsed": "0x19fee",
      "effectiveGasPrice": "0x47b7f737a",
      "from": "0xc77f7fed3b5cc8249adc428c5f44c9063b9734b4",
      "to": "0xc35ac92a931c0a4a53ecc09338b9ed77044b1053",
      "contractAddress": null
    }
  ],
  "libraries": [],
  "pending": [],
  "returns": {},
  "timestamp": 1737825566,
  "chain": 11155111,
  "commit": "f5162e9"
}