{
  "transactions": [
    {
      "hash": "0x93392a3bc785a3801adde80d74a6069c38b53d860f4c2a9e8d27202693b68ea1",
      "transactionType": "CALL",
      "contractName": null,
      "contractAddress": "0x8aafd3ede9adb0ff97c7aebce82a919afb1c8764",
      "function": "sell(uint256)",
      "arguments": [
        "8017569375"
      ],
      "transaction": {
        "from": "0xc77f7fed3b5cc8249adc428c5f44c9063b9734b4",
        "to": "0x8aafd3ede9adb0ff97c7aebce82a919afb1c8764",
        "gas": "0x1722a",
        "value": "0x0",
        "input": "0xe4849b3200000000000000000000000000000000000000000000000000000001dde2665f",
        "nonce": "0x1423",
        "chainId": "0xaa36a7"
      },
      "additionalContracts": [],
      "isFixedGasLimit": false
    }
  ],
  "receipts": [
    {
      "status": "0x1",
      "cumulativeGasUsed": "0x9eaec9",
      "logs": [
        {
          "address": "0x8aafd3ede9adb0ff97c7aebce82a919afb1c8764",
          "topics": [
            "0xddf252ad1be2c89b69c2b068fc378daa952ba7f163c4a11628f55a4df523b3ef",
            "0x000000000000000000000000c77f7fed3b5cc8249adc428c5f44c9063b9734b4",
            "0x0000000000000000000000000000000000000000000000000000000000000000"
          ],
          "data": "0x00000000000000000000000000000000000000000000000000000001da0fb154",
          "blockHash": "0xdbe67cf4af3201168ba6ce3bd952c4414323fd49ef0f5e9574afce8b75a3caa7",
          "blockNumber": "0x731b5f",
          "transactionHash": "0x93392a3bc785a3801adde80d74a6069c38b53d860f4c2a9e8d27202693b68ea1",
          "transactionIndex": "0x58",
          "logIndex": "0x8b",
          "removed": false
        },
        {
          "address": "0x8aafd3ede9adb0ff97c7aebce82a919afb1c8764",
          "topics": [
            "0xddf252ad1be2c89b69c2b068fc378daa952ba7f163c4a11628f55a4df523b3ef",
            "0x000000000000000000000000c77f7fed3b5cc8249adc428c5f44c9063b9734b4",
            "0x000000000000000000000000c77f7fed3b5cc8249adc428c5f44c9063b9734b4"
          ],
          "data": "0x0000000000000000000000000000000000000000000000000000000003d2b50b",
          "blockHash": "0xdbe67cf4af3201168ba6ce3bd952c4414323fd49ef0f5e9574afce8b75a3caa7",
          "blockNumber": "0x731b5f",
          "transactionHash": "0x93392a3bc785a3801adde80d74a6069c38b53d860f4c2a9e8d27202693b68ea1",
          "transactionIndex": "0x58",
          "logIndex": "0x8c",
          "removed": false
        },
        {
          "address": "0x8aafd3ede9adb0ff97c7aebce82a919afb1c8764",
          "topics": [
            "0x4afcb4a87cdbd9974efdb92ee48bc8d7cd0ae4bf217004db3d080cbaee652ca7"
          ],
          "data": "0x0000000000000000000000000000000000000000000000000000000067904544000000000000000000000000000000000000000000000000000e856c669bda830000000000000000000000000000000000000000000000000000000001f40a36",
          "blockHash": "0xdbe67cf4af3201168ba6ce3bd952c4414323fd49ef0f5e9574afce8b75a3caa7",
          "blockNumber": "0x731b5f",
          "transactionHash": "0x93392a3bc785a3801adde80d74a6069c38b53d860f4c2a9e8d27202693b68ea1",
          "transactionIndex": "0x58",
          "logIndex": "0x8d",
          "removed": false
        }
      ],
      "logsBloom": "0x00000000000000000000000000000000000000000600000000000000000000000000000000000000000000000000000000000000000000004000000000000000000000000000004000000008000000000000000000000000000000000000000000000000020000000000000000000800020000000000000000000010000000000000000000000000000000000000000000000000000000000000010000000000000000000000000000000000000000004000000000000000000000000000000000000002000000800000000000000000000000000000080000000000000020000000000000000000000000000000000000000000000000000000000000000000",
      "type": "0x2",
      "transactionHash": "0x93392a3bc785a3801adde80d74a6069c38b53d860f4c2a9e8d27202693b68ea1",
      "transactionIndex": "0x58",
      "blockHash": "0xdbe67cf4af3201168ba6ce3bd952c4414323fd49ef0f5e9574afce8b75a3caa7",
      "blockNumber": "0x731b5f",
      "gasUsed": "0xfd1b",
      "effectiveGasPrice": "0xfc360a2a",
      "from": "0xc77f7fed3b5cc8249adc428c5f44c9063b9734b4",
      "to": "0x8aafd3ede9adb0ff97c7aebce82a919afb1c8764",
      "contractAddress": null
    }
  ],
  "libraries": [],
  "pending": [],
  "returns": {},
  "timestamp": 1737508165,
  "chain": 11155111,
  "commit": "1d2fb70"
}