{
  "transactions": [
    {
      "hash": "0xafae91f4be6e2eded2403bd5f36ade99ab739c03c9a988853c92c614162bfb4f",
      "transactionType": "CALL",
      "contractName": null,
      "contractAddress": "0x8aafd3ede9adb0ff97c7aebce82a919afb1c8764",
      "function": "sell(uint256)",
      "arguments": [
        "24578706191"
      ],
      "transaction": {
        "from": "0xc77f7fed3b5cc8249adc428c5f44c9063b9734b4",
        "to": "0x8aafd3ede9adb0ff97c7aebce82a919afb1c8764",
        "gas": "0x1722a",
        "value": "0x0",
        "input": "0xe4849b3200000000000000000000000000000000000000000000000000000005b9014b0f",
        "nonce": "0xe5b",
        "chainId": "0xaa36a7"
      },
      "additionalContracts": [],
      "isFixedGasLimit": false
    }
  ],
  "receipts": [
    {
      "status": "0x1",
      "cumulativeGasUsed": "0x10546cd",
      "logs": [
        {
          "address": "0x8aafd3ede9adb0ff97c7aebce82a919afb1c8764",
          "topics": [
            "0xddf252ad1be2c89b69c2b068fc378daa952ba7f163c4a11628f55a4df523b3ef",
            "0x000000000000000000000000c77f7fed3b5cc8249adc428c5f44c9063b9734b4",
            "0x0000000000000000000000000000000000000000000000000000000000000000"
          ],
          "data": "0x00000000000000000000000000000000000000000000000000000005ad48f67e",
          "blockHash": "0x090a86094338c79a4a58e523bd05f1219166cef4eae4c97da2d52b83076fe274",
          "blockNumber": "0x7313ae",
          "transactionHash": "0xafae91f4be6e2eded2403bd5f36ade99ab739c03c9a988853c92c614162bfb4f",
          "transactionIndex": "0xa3",
          "logIndex": "0xe9",
          "removed": false
        },
        {
          "address": "0x8aafd3ede9adb0ff97c7aebce82a919afb1c8764",
          "topics": [
            "0xddf252ad1be2c89b69c2b068fc378daa952ba7f163c4a11628f55a4df523b3ef",
            "0x000000000000000000000000c77f7fed3b5cc8249adc428c5f44c9063b9734b4",
            "0x000000000000000000000000c77f7fed3b5cc8249adc428c5f44c9063b9734b4"
          ],
          "data": "0x000000000000000000000000000000000000000000000000000000000bb85491",
          "blockHash": "0x090a86094338c79a4a58e523bd05f1219166cef4eae4c97da2d52b83076fe274",
          "blockNumber": "0x7313ae",
          "transactionHash": "0xafae91f4be6e2eded2403bd5f36ade99ab739c03c9a988853c92c614162bfb4f",
          "transactionIndex": "0xa3",
          "logIndex": "0xea",
          "removed": false
        },
        {
          "address": "0x8aafd3ede9adb0ff97c7aebce82a919afb1c8764",
          "topics": [
            "0x4afcb4a87cdbd9974efdb92ee48bc8d7cd0ae4bf217004db3d080cbaee652ca7"
          ],
          "data": "0x00000000000000000000000000000000000000000000000000000000678fe8bc0000000000000000000000000000000000000000000000000004b4752e9ec0440000000000000000000000000000000000000000000000000000000001f0ac44",
          "blockHash": "0x090a86094338c79a4a58e523bd05f1219166cef4eae4c97da2d52b83076fe274",
          "blockNumber": "0x7313ae",
          "transactionHash": "0xafae91f4be6e2eded2403bd5f36ade99ab739c03c9a988853c92c614162bfb4f",
          "transactionIndex": "0xa3",
          "logIndex": "0xeb",
          "removed": false
        }
      ],
      "logsBloom": "0x00000000000000000000000000000000000000000600000000000000000000000000000000000000000000000000000000000000000000004000000000000000000000000000004000000008000000000000000000000000000000000000000000000000020000000000000000000800020000000000000000000010000000000000000000000000000000000000000000000000000000000000010000000000000000000000000000000000000000004000000000000000000000000000000000000002000000800000000000000000000000000000080000000000000020000000000000000000000000000000000000000000000000000000000000000000",
      "type": "0x2",
      "transactionHash": "0xafae91f4be6e2eded2403bd5f36ade99ab739c03c9a988853c92c614162bfb4f",
      "transactionIndex": "0xa3",
      "blockHash": "0x090a86094338c79a4a58e523bd05f1219166cef4eae4c97da2d52b83076fe274",
      "blockNumber": "0x7313ae",
      "gasUsed": "0xfd1b",
      "effectiveGasPrice": "0x78576823",
      "from": "0xc77f7fed3b5cc8249adc428c5f44c9063b9734b4",
      "to": "0x8aafd3ede9adb0ff97c7aebce82a919afb1c8764",
      "contractAddress": null
    }
  ],
  "libraries": [],
  "pending": [],
  "returns": {},
  "timestamp": 1737484477,
  "chain": 11155111,
  "commit": "51a374b"
}