{
  "transactions": [
    {
      "hash": "0x8289510297a39190d47b2758358a09673115928edecc5d6eb8c34fe0ecffbd58",
      "transactionType": "CALL",
      "contractName": null,
      "contractAddress": "0x8aafd3ede9adb0ff97c7aebce82a919afb1c8764",
      "function": "sell(uint256)",
      "arguments": [
        "45760282288651595"
      ],
      "transaction": {
        "from": "0xc77f7fed3b5cc8249adc428c5f44c9063b9734b4",
        "to": "0x8aafd3ede9adb0ff97c7aebce82a919afb1c8764",
        "gas": "0x1724d",
        "value": "0x0",
        "input": "0xe4849b3200000000000000000000000000000000000000000000000000a292bbfaa2fd4b",
        "nonce": "0x1043",
        "chainId": "0xaa36a7"
      },
      "additionalContracts": [],
      "isFixedGasLimit": false
    }
  ],
  "receipts": [
    {
      "status": "0x1",
      "cumulativeGasUsed": "0xa5344f",
      "logs": [
        {
          "address": "0x8aafd3ede9adb0ff97c7aebce82a919afb1c8764",
          "topics": [
            "0xddf252ad1be2c89b69c2b068fc378daa952ba7f163c4a11628f55a4df523b3ef",
            "0x000000000000000000000000c77f7fed3b5cc8249adc428c5f44c9063b9734b4",
            "0x0000000000000000000000000000000000000000000000000000000000000000"
          ],
          "data": "0x00000000000000000000000000000000000000000000000000a145c8cfabecef",
          "blockHash": "0x8b98bb391b96577eaed87324c9436df8fe0830964a8614e0b77dfd704329a1d6",
          "blockNumber": "0x7316c3",
          "transactionHash": "0x8289510297a39190d47b2758358a09673115928edecc5d6eb8c34fe0ecffbd58",
          "transactionIndex": "0x80",
          "logIndex": "0x8d",
          "removed": false
        },
        {
          "address": "0x8aafd3ede9adb0ff97c7aebce82a919afb1c8764",
          "topics": [
            "0xddf252ad1be2c89b69c2b068fc378daa952ba7f163c4a11628f55a4df523b3ef",
            "0x000000000000000000000000c77f7fed3b5cc8249adc428c5f44c9063b9734b4",
            "0x000000000000000000000000c77f7fed3b5cc8249adc428c5f44c9063b9734b4"
          ],
          "data": "0x00000000000000000000000000000000000000000000000000014cf32af7105c",
          "blockHash": "0x8b98bb391b96577eaed87324c9436df8fe0830964a8614e0b77dfd704329a1d6",
          "blockNumber": "0x7316c3",
          "transactionHash": "0x8289510297a39190d47b2758358a09673115928edecc5d6eb8c34fe0ecffbd58",
          "transactionIndex": "0x80",
          "logIndex": "0x8e",
          "removed": false
        },
        {
          "address": "0x8aafd3ede9adb0ff97c7aebce82a919afb1c8764",
          "topics": [
            "0x4afcb4a87cdbd9974efdb92ee48bc8d7cd0ae4bf217004db3d080cbaee652ca7"
          ],
          "data": "0x0000000000000000000000000000000000000000000000000000000067900ddc0000000000000000000000000000000000000000000000000004f09087bb8359000000000000000000000000000000000000000000000000000039dde87c8c08",
          "blockHash": "0x8b98bb391b96577eaed87324c9436df8fe0830964a8614e0b77dfd704329a1d6",
          "blockNumber": "0x7316c3",
          "transactionHash": "0x8289510297a39190d47b2758358a09673115928edecc5d6eb8c34fe0ecffbd58",
          "transactionIndex": "0x80",
          "logIndex": "0x8f",
          "removed": false
        }
      ],
      "logsBloom": "0x00000000000000000000000000000000000000000600000000000000000000000000000000000000000000000000000000000000000000004000000000000000000000000000004000000008000000000000000000000000000000000000000000000000020000000000000000000800020000000000000000000010000000000000000000000000000000000000000000000000000000000000010000000000000000000000000000000000000000004000000000000000000000000000000000000002000000800000000000000000000000000000080000000000000020000000000000000000000000000000000000000000000000000000000000000000",
      "type": "0x2",
      "transactionHash": "0x8289510297a39190d47b2758358a09673115928edecc5d6eb8c34fe0ecffbd58",
      "transactionIndex": "0x80",
      "blockHash": "0x8b98bb391b96577eaed87324c9436df8fe0830964a8614e0b77dfd704329a1d6",
      "blockNumber": "0x7316c3",
      "gasUsed": "0xfd33",
      "effectiveGasPrice": "0x435a5b66",
      "from": "0xc77f7fed3b5cc8249adc428c5f44c9063b9734b4",
      "to": "0x8aafd3ede9adb0ff97c7aebce82a919afb1c8764",
      "contractAddress": null
    }
  ],
  "libraries": [],
  "pending": [],
  "returns": {},
  "timestamp": 1737493981,
  "chain": 11155111,
  "commit": "1d2fb70"
}