{
  "transactions": [
    {
      "hash": "0x2c3978fb5374171c4277ed7427e9a14df5f0ebba8a0258efaafaba88fe69e088",
      "transactionType": "CALL",
      "contractName": null,
      "contractAddress": "0xbf4a322f1496e5c3d34a9bcdb4c60567b38c7de2",
      "function": "sell(uint256)",
      "arguments": [
        "975867967003329810719"
      ],
      "transaction": {
        "from": "0xc77f7fed3b5cc8249adc428c5f44c9063b9734b4",
        "to": "0xbf4a322f1496e5c3d34a9bcdb4c60567b38c7de2",
        "gas": "0x16fea",
        "value": "0x0",
        "input": "0xe4849b32000000000000000000000000000000000000000000000034e6e3799e9417d11f",
        "nonce": "0xd4d",
        "chainId": "0xaa36a7"
      },
      "additionalContracts": [],
      "isFixedGasLimit": false
    }
  ],
  "receipts": [
    {
      "status": "0x1",
      "cumulativeGasUsed": "0x8daf14",
      "logs": [
        {
          "address": "0xbf4a322f1496e5c3d34a9bcdb4c60567b38c7de2",
          "topics": [
            "0xddf252ad1be2c89b69c2b068fc378daa952ba7f163c4a11628f55a4df523b3ef",
            "0x000000000000000000000000c77f7fed3b5cc8249adc428c5f44c9063b9734b4",
            "0x0000000000000000000000000000000000000000000000000000000000000000"
          ],
          "data": "0x000000000000000000000000000000000000000000000034e6e3799e9417d11f",
          "blockHash": "0x046cb5a7ac2fde65bd8a20cc76e7bbae43d6ecee703b3db029489d1ab7268ab7",
          "blockNumber": "0x725db4",
          "transactionHash": "0x2c3978fb5374171c4277ed7427e9a14df5f0ebba8a0258efaafaba88fe69e088",
          "transactionIndex": "0x50",
          "logIndex": "0x6b",
          "removed": false
        },
        {
          "address": "0xbf4a322f1496e5c3d34a9bcdb4c60567b38c7de2",
          "topics": [
            "0x4afcb4a87cdbd9974efdb92ee48bc8d7cd0ae4bf217004db3d080cbaee652ca7"
          ],
          "data": "0x00000000000000000000000000000000000000000000000000000000678756e400000000000000000000000000000000000000000000000000039d7d539dac710000000000000000000000000000000000000000000000000dc7e3d8758b3250",
          "blockHash": "0x046cb5a7ac2fde65bd8a20cc76e7bbae43d6ecee703b3db029489d1ab7268ab7",
          "blockNumber": "0x725db4",
          "transactionHash": "0x2c3978fb5374171c4277ed7427e9a14df5f0ebba8a0258efaafaba88fe69e088",
          "transactionIndex": "0x50",
          "logIndex": "0x6c",
          "removed": false
        }
      ],
      "logsBloom": "0x00000000000000000000000000000000000000000000000000000000000000000000000000000000000000000000000000000000000000004000000000000000000000000000000000000008000000000000001000000000000000000000000000000000020000000000000000000800020000000000000000000010000000000000000000000000000000000000000000000000000008000000010000000000000000000000000000000000000000004000000000000000000000000000000000000002000000800000000000001000000000000000080000000000000020000000000000000000000000000000000000000000000000000000000000000000",
      "type": "0x2",
      "transactionHash": "0x2c3978fb5374171c4277ed7427e9a14df5f0ebba8a0258efaafaba88fe69e088",
      "transactionIndex": "0x50",
      "blockHash": "0x046cb5a7ac2fde65bd8a20cc76e7bbae43d6ecee703b3db029489d1ab7268ab7",
      "blockNumber": "0x725db4",
      "gasUsed": "0xfb91",
      "effectiveGasPrice": "0x4788b3e22",
      "from": "0xc77f7fed3b5cc8249adc428c5f44c9063b9734b4",
      "to": "0xbf4a322f1496e5c3d34a9bcdb4c60567b38c7de2",
      "contractAddress": null
    }
  ],
  "libraries": [],
  "pending": [],
  "returns": {},
  "timestamp": 1736922854,
  "chain": 11155111,
  "commit": "51a374b"
}