{
  "transactions": [
    {
      "hash": "0xb8c32ad35cf3b83c9cad9303ecfacb2e0196a5c3942eae03f9b0b4f95a0a0c88",
      "transactionType": "CALL",
      "contractName": null,
      "contractAddress": "0x5eb9cc76c3506942c1c0ead70e877dd5e4f00cb0",
      "function": "buy(address)",
      "arguments": [
        "0xC77f7fed3b5Cc8249aDc428c5F44C9063B9734b4"
      ],
      "transaction": {
        "from": "0xc77f7fed3b5cc8249adc428c5f44c9063b9734b4",
        "to": "0x5eb9cc76c3506942c1c0ead70e877dd5e4f00cb0",
        "gas": "0x156c8",
        "value": "0xde0b6b3a7640000",
        "input": "0xf088d547000000000000000000000000c77f7fed3b5cc8249adc428c5f44c9063b9734b4",
        "nonce": "0x1d7",
        "chainId": "0xaa36a7"
      },
      "additionalContracts": [],
      "isFixedGasLimit": false
    }
  ],
  "receipts": [
    {
      "status": "0x1",
      "cumulativeGasUsed": "0x1578e80",
      "logs": [
        {
          "address": "0x5eb9cc76c3506942c1c0ead70e877dd5e4f00cb0",
          "topics": [
            "0xddf252ad1be2c89b69c2b068fc378daa952ba7f163c4a11628f55a4df523b3ef",
            "0x0000000000000000000000000000000000000000000000000000000000000000",
            "0x000000000000000000000000c77f7fed3b5cc8249adc428c5f44c9063b9734b4"
          ],
          "data": "0x000000000000000000000000000000000000000000000035a362a19b5e7dd553",
          "blockHash": "0xb19cac63b78a4578b5b11a725161bdd0a4cf8a9c98efa1166312bef58e62d2a7",
          "blockNumber": "0x723cc7",
          "transactionHash": "0xb8c32ad35cf3b83c9cad9303ecfacb2e0196a5c3942eae03f9b0b4f95a0a0c88",
          "transactionIndex": "0x8b",
          "logIndex": "0xef",
          "removed": false
        },
        {
          "address": "0x5eb9cc76c3506942c1c0ead70e877dd5e4f00cb0",
          "topics": [
            "0xddf252ad1be2c89b69c2b068fc378daa952ba7f163c4a11628f55a4df523b3ef",
            "0x0000000000000000000000000000000000000000000000000000000000000000",
            "0x000000000000000000000000c77f7fed3b5cc8249adc428c5f44c9063b9734b4"
          ],
          "data": "0x00000000000000000000000000000000000000000000000029a6e3986a6c5dd4",
          "blockHash": "0xb19cac63b78a4578b5b11a725161bdd0a4cf8a9c98efa1166312bef58e62d2a7",
          "blockNumber": "0x723cc7",
          "transactionHash": "0xb8c32ad35cf3b83c9cad9303ecfacb2e0196a5c3942eae03f9b0b4f95a0a0c88",
          "transactionIndex": "0x8b",
          "logIndex": "0xf0",
          "removed": false
        },
        {
          "address": "0x5eb9cc76c3506942c1c0ead70e877dd5e4f00cb0",
          "topics": [
            "0x4afcb4a87cdbd9974efdb92ee48bc8d7cd0ae4bf217004db3d080cbaee652ca7"
          ],
          "data": "0x000000000000000000000000000000000000000000000000000000006785caa800000000000000000000000000000000000000000000000000038dfff47f057a0000000000000000000000000000000000000000000000000de0b6b3a7640000",
          "blockHash": "0xb19cac63b78a4578b5b11a725161bdd0a4cf8a9c98efa1166312bef58e62d2a7",
          "blockNumber": "0x723cc7",
          "transactionHash": "0xb8c32ad35cf3b83c9cad9303ecfacb2e0196a5c3942eae03f9b0b4f95a0a0c88",
          "transactionIndex": "0x8b",
          "logIndex": "0xf1",
          "removed": false
        }
      ],
      "logsBloom": "0x00000000000000000000000000000000000000000000000000000000000000000000000000000000000000000000000000000000000000004000000000000000000000000000000000000008000000000000000000000000000000000000000000000000020000000000000004000800020000000000000000000010000000000000000000000000000000000000000000000000000000000000010000000000000000000000000000000000000000004000000000000000000000000000020000000002000000800000008000000000000000000000080000000000000020000000000000000000000000000000000000000000000000000000000000000000",
      "type": "0x2",
      "transactionHash": "0xb8c32ad35cf3b83c9cad9303ecfacb2e0196a5c3942eae03f9b0b4f95a0a0c88",
      "transactionIndex": "0x8b",
      "blockHash": "0xb19cac63b78a4578b5b11a725161bdd0a4cf8a9c98efa1166312bef58e62d2a7",
      "blockNumber": "0x723cc7",
      "gasUsed": "0xf82c",
      "effectiveGasPrice": "0x1ece5d96c",
      "from": "0xc77f7fed3b5cc8249adc428c5f44c9063b9734b4",
      "to": "0x5eb9cc76c3506942c1c0ead70e877dd5e4f00cb0",
      "contractAddress": null
    }
  ],
  "libraries": [],
  "pending": [],
  "returns": {},
  "timestamp": 1736821418,
  "chain": 11155111,
  "commit": "51a374b"
}