{
  "transactions": [
    {
      "hash": "0x21ae3bd415d5b1514f244051efa0d9b4cea206d28ab6ad002b5f6a02201d9fdb",
      "transactionType": "CALL",
      "contractName": null,
      "contractAddress": "0xd7bc75898e513accccf720a874d44dab5a4b6223",
      "function": "buy(address)",
      "arguments": [
        "0xC77f7fed3b5Cc8249aDc428c5F44C9063B9734b4"
      ],
      "transaction": {
        "from": "0xc77f7fed3b5cc8249adc428c5f44c9063b9734b4",
        "to": "0xd7bc75898e513accccf720a874d44dab5a4b6223",
        "gas": "0x1b30c",
        "value": "0x2386f26fc10000",
        "input": "0xf088d547000000000000000000000000c77f7fed3b5cc8249adc428c5f44c9063b9734b4",
        "nonce": "0x10e",
        "chainId": "0xaa36a7"
      },
      "additionalContracts": [],
      "isFixedGasLimit": false
    }
  ],
  "receipts": [
    {
      "status": "0x1",
      "cumulativeGasUsed": "0xca6f78",
      "logs": [
        {
          "address": "0xd7bc75898e513accccf720a874d44dab5a4b6223",
          "topics": [
            "0xddf252ad1be2c89b69c2b068fc378daa952ba7f163c4a11628f55a4df523b3ef",
            "0x0000000000000000000000000000000000000000000000000000000000000000",
            "0x000000000000000000000000c77f7fed3b5cc8249adc428c5f44c9063b9734b4"
          ],
          "data": "0x0000000000000000000000000000000000000000000000008963ba40a39a5896",
          "blockHash": "0x7c8bde14e1cd7f73a3fdfae0e5cfca0357fccb74d5450ae5537cab610408faf8",
          "blockNumber": "0x7239a2",
          "transactionHash": "0x21ae3bd415d5b1514f244051efa0d9b4cea206d28ab6ad002b5f6a02201d9fdb",
          "transactionIndex": "0x68",
          "logIndex": "0xd4",
          "removed": false
        },
        {
          "address": "0xd7bc75898e513accccf720a874d44dab5a4b6223",
          "topics": [
            "0xddf252ad1be2c89b69c2b068fc378daa952ba7f163c4a11628f55a4df523b3ef",
            "0x0000000000000000000000000000000000000000000000000000000000000000",
            "0x000000000000000000000000c77f7fed3b5cc8249adc428c5f44c9063b9734b4"
          ],
          "data": "0x000000000000000000000000000000000000000000000000006ab00bd0223b5c",
          "blockHash": "0x7c8bde14e1cd7f73a3fdfae0e5cfca0357fccb74d5450ae5537cab610408faf8",
          "blockNumber": "0x7239a2",
          "transactionHash": "0x21ae3bd415d5b1514f244051efa0d9b4cea206d28ab6ad002b5f6a02201d9fdb",
          "transactionIndex": "0x68",
          "logIndex": "0xd5",
          "removed": false
        },
        {
          "address": "0xd7bc75898e513accccf720a874d44dab5a4b6223",
          "topics": [
            "0x4afcb4a87cdbd9974efdb92ee48bc8d7cd0ae4bf217004db3d080cbaee652ca7"
          ],
          "data": "0x000000000000000000000000000000000000000000000000000000006785a4ec00000000000000000000000000000000000000000000000000038d7f8e7def11000000000000000000000000000000000000000000000000002386f26fc10000",
          "blockHash": "0x7c8bde14e1cd7f73a3fdfae0e5cfca0357fccb74d5450ae5537cab610408faf8",
          "blockNumber": "0x7239a2",
          "transactionHash": "0x21ae3bd415d5b1514f244051efa0d9b4cea206d28ab6ad002b5f6a02201d9fdb",
          "transactionIndex": "0x68",
          "logIndex": "0xd6",
          "removed": false
        }
      ],
      "logsBloom": "0x00000000000000000000000000000000000000000000000000000000000000000000000000000000000000000000000000000000000000004000000000000000000000000000000000000008000000000000000000000000000000000000000000000000020000000000000000000800020000000000000000000010000000000000000000000000000000000000000000000000000000000000010000000000000000000000000000000000000000004000001000000000000000000000000000000002000000800000000000004000000000000000080000000000000020000000000000000000000000000000000000000000080000000000000000000000",
      "type": "0x2",
      "transactionHash": "0x21ae3bd415d5b1514f244051efa0d9b4cea206d28ab6ad002b5f6a02201d9fdb",
      "transactionIndex": "0x68",
      "blockHash": "0x7c8bde14e1cd7f73a3fdfae0e5cfca0357fccb74d5450ae5537cab610408faf8",
      "blockNumber": "0x7239a2",
      "gasUsed": "0x13af8",
      "effectiveGasPrice": "0x1c0daea70",
      "from": "0xc77f7fed3b5cc8249adc428c5f44c9063b9734b4",
      "to": "0xd7bc75898e513accccf720a874d44dab5a4b6223",
      "contractAddress": null
    }
  ],
  "libraries": [],
  "pending": [],
  "returns": {},
  "timestamp": 1736811757,
  "chain": 11155111,
  "commit": "51a374b"
}