{
  "transactions": [
    {
      "hash": "0x156e2de2a9451c6af3da24054238ae8f841e4b9a243d8cfbea6eec8b33751354",
      "transactionType": "CALL",
      "contractName": null,
      "contractAddress": "0x8aafd3ede9adb0ff97c7aebce82a919afb1c8764",
      "function": "sell(uint256)",
      "arguments": [
        "38862093"
      ],
      "transaction": {
        "from": "0xc77f7fed3b5cc8249adc428c5f44c9063b9734b4",
        "to": "0x8aafd3ede9adb0ff97c7aebce82a919afb1c8764",
        "gas": "0x15d88",
        "value": "0x0",
        "input": "0xe4849b32000000000000000000000000000000000000000000000000000000000250fd0d",
        "nonce": "0x174e",
        "chainId": "0xaa36a7"
      },
      "additionalContracts": [],
      "isFixedGasLimit": false
    }
  ],
  "receipts": [
    {
      "status": "0x1",
      "cumulativeGasUsed": "0xa76307",
      "logs": [
        {
          "address": "0x8aafd3ede9adb0ff97c7aebce82a919afb1c8764",
          "topics": [
            "0xddf252ad1be2c89b69c2b068fc378daa952ba7f163c4a11628f55a4df523b3ef",
            "0x000000000000000000000000c77f7fed3b5cc8249adc428c5f44c9063b9734b4",
            "0x0000000000000000000000000000000000000000000000000000000000000000"
          ],
          "data": "0x00000000000000000000000000000000000000000000000000000000024c3e9d",
          "blockHash": "0x5aba5a11039bd6e4396b84a1bcea2d66c9054659a12da9915c1a9e2f4a176048",
          "blockNumber": "0x731f1d",
          "transactionHash": "0x156e2de2a9451c6af3da24054238ae8f841e4b9a243d8cfbea6eec8b33751354",
          "transactionIndex": "0x6a",
          "logIndex": "0x90",
          "removed": false
        },
        {
          "address": "0x8aafd3ede9adb0ff97c7aebce82a919afb1c8764",
          "topics": [
            "0xddf252ad1be2c89b69c2b068fc378daa952ba7f163c4a11628f55a4df523b3ef",
            "0x000000000000000000000000c77f7fed3b5cc8249adc428c5f44c9063b9734b4",
            "0x000000000000000000000000c77f7fed3b5cc8249adc428c5f44c9063b9734b4"
          ],
          "data": "0x000000000000000000000000000000000000000000000000000000000004be70",
          "blockHash": "0x5aba5a11039bd6e4396b84a1bcea2d66c9054659a12da9915c1a9e2f4a176048",
          "blockNumber": "0x731f1d",
          "transactionHash": "0x156e2de2a9451c6af3da24054238ae8f841e4b9a243d8cfbea6eec8b33751354",
          "transactionIndex": "0x6a",
          "logIndex": "0x91",
          "removed": false
        },
        {
          "address": "0x8aafd3ede9adb0ff97c7aebce82a919afb1c8764",
          "topics": [
            "0x4afcb4a87cdbd9974efdb92ee48bc8d7cd0ae4bf217004db3d080cbaee652ca7"
          ],
          "data": "0x00000000000000000000000000000000000000000000000000000000679072440000000000000000000000000000000000000000000000000017e708bda0cedc000000000000000000000000000000000000000000000000000000000003fd56",
          "blockHash": "0x5aba5a11039bd6e4396b84a1bcea2d66c9054659a12da9915c1a9e2f4a176048",
          "blockNumber": "0x731f1d",
          "transactionHash": "0x156e2de2a9451c6af3da24054238ae8f841e4b9a243d8cfbea6eec8b33751354",
          "transactionIndex": "0x6a",
          "logIndex": "0x92",
          "removed": false
        }
      ],
      "logsBloom": "0x00000000000000000000000000000000000000000600000000000000000000000000000000000000000000000000000000000000000000004000000000000000000000000000004000000008000000000000000000000000000000000000000000000000020000000000000000000800020000000000000000000010000000000000000000000000000000000000000000000000000000000000010000000000000000000000000000000000000000004000000000000000000000000000000000000002000000800000000000000000000000000000080000000000000020000000000000000000000000000000000000000000000000000000000000000000",
      "type": "0x2",
      "transactionHash": "0x156e2de2a9451c6af3da24054238ae8f841e4b9a243d8cfbea6eec8b33751354",
      "transactionIndex": "0x6a",
      "blockHash": "0x5aba5a11039bd6e4396b84a1bcea2d66c9054659a12da9915c1a9e2f4a176048",
      "blockNumber": "0x731f1d",
      "gasUsed": "0xfd0f",
      "effectiveGasPrice": "0x3f2ee497",
      "from": "0xc77f7fed3b5cc8249adc428c5f44c9063b9734b4",
      "to": "0x8aafd3ede9adb0ff97c7aebce82a919afb1c8764",
      "contractAddress": null
    }
  ],
  "libraries": [],
  "pending": [],
  "returns": {},
  "timestamp": 1737519685,
  "chain": 11155111,
  "commit": "1d2fb70"
}