{
  "transactions": [
    {
      "hash": "0x9c2a446544fc0099c18f50316f0c324b21cd22914ef58e7f4081661570f47afd",
      "transactionType": "CALL",
      "contractName": null,
      "contractAddress": "0xd7bc75898e513accccf720a874d44dab5a4b6223",
      "function": "sell(uint256)",
      "arguments": [
        "9929992325227604023"
      ],
      "transaction": {
        "from": "0xc77f7fed3b5cc8249adc428c5f44c9063b9734b4",
        "to": "0xd7bc75898e513accccf720a874d44dab5a4b6223",
        "gas": "0x15b6b",
        "value": "0x0",
        "input": "0xe4849b3200000000000000000000000000000000000000000000000089ce6b688f8be837",
        "nonce": "0xc3",
        "chainId": "0xaa36a7"
      },
      "additionalContracts": [],
      "isFixedGasLimit": false
    }
  ],
  "receipts": [
    {
      "status": "0x1",
      "cumulativeGasUsed": "0x95eceb",
      "logs": [
        {
          "address": "0xd7bc75898e513accccf720a874d44dab5a4b6223",
          "topics": [
            "0xddf252ad1be2c89b69c2b068fc378daa952ba7f163c4a11628f55a4df523b3ef",
            "0x000000000000000000000000c77f7fed3b5cc8249adc428c5f44c9063b9734b4",
            "0x0000000000000000000000000000000000000000000000000000000000000000"
          ],
          "data": "0x00000000000000000000000000000000000000000000000089ce6b688f8be837",
          "blockHash": "0x6a62d4458eea9fd75718d163d6b79dae4bba38f278e225a6d276b48501641674",
          "blockNumber": "0x723941",
          "transactionHash": "0x9c2a446544fc0099c18f50316f0c324b21cd22914ef58e7f4081661570f47afd",
          "transactionIndex": "0x1d",
          "logIndex": "0x2a",
          "removed": false
        },
        {
          "address": "0xd7bc75898e513accccf720a874d44dab5a4b6223",
          "topics": [
            "0x4afcb4a87cdbd9974efdb92ee48bc8d7cd0ae4bf217004db3d080cbaee652ca7"
          ],
          "data": "0x000000000000000000000000000000000000000000000000000000006785a05400000000000000000000000000000000000000000000000000038d7f874a6bcd0000000000000000000000000000000000000000000000000023474f493d2798",
          "blockHash": "0x6a62d4458eea9fd75718d163d6b79dae4bba38f278e225a6d276b48501641674",
          "blockNumber": "0x723941",
          "transactionHash": "0x9c2a446544fc0099c18f50316f0c324b21cd22914ef58e7f4081661570f47afd",
          "transactionIndex": "0x1d",
          "logIndex": "0x2b",
          "removed": false
        }
      ],
      "logsBloom": "0x00000000000000000000000000000000000000000000000000000000000000000000000000000000000000000000000000000000000000004000000000000000000000000000000000000008000000000000000000000000000000000000000000000000020000000000000000000800020000000000000000000010000000000000000000000000000000000000000000000000000000000000010000000000000000000000000000000000000000004000001000000000000000000000000000000002000000800000000000004000000000000000080000000000000020000000000000000000000000000000000000000000080000000000000000000000",
      "type": "0x2",
      "transactionHash": "0x9c2a446544fc0099c18f50316f0c324b21cd22914ef58e7f4081661570f47afd",
      "transactionIndex": "0x1d",
      "blockHash": "0x6a62d4458eea9fd75718d163d6b79dae4bba38f278e225a6d276b48501641674",
      "blockNumber": "0x723941",
      "gasUsed": "0xfb87",
      "effectiveGasPrice": "0xa3702e5",
      "from": "0xc77f7fed3b5cc8249adc428c5f44c9063b9734b4",
      "to": "0xd7bc75898e513accccf720a874d44dab5a4b6223",
      "contractAddress": null
    }
  ],
  "libraries": [],
  "pending": [],
  "returns": {},
  "timestamp": 1736810581,
  "chain": 11155111,
  "commit": "51a374b"
}