{
  "transactions": [
    {
      "hash": "0x904e6267d53fbd6e1d29bcc276b2557a2585ee215f702334a4a93876dc94a833",
      "transactionType": "CALL",
      "contractName": null,
      "contractAddress": "0xbf4a322f1496e5c3d34a9bcdb4c60567b38c7de2",
      "function": "sell(uint256)",
      "arguments": [
        "985331611913883526607"
      ],
      "transaction": {
        "from": "0xc77f7fed3b5cc8249adc428c5f44c9063b9734b4",
        "to": "0xbf4a322f1496e5c3d34a9bcdb4c60567b38c7de2",
        "gas": "0x16fea",
        "value": "0x0",
        "input": "0xe4849b320000000000000000000000000000000000000000000000356a3918866a14a5cf",
        "nonce": "0xa8d",
        "chainId": "0xaa36a7"
      },
      "additionalContracts": [],
      "isFixedGasLimit": false
    }
  ],
  "receipts": [
    {
      "status": "0x1",
      "cumulativeGasUsed": "0xc973eb",
      "logs": [
        {
          "address": "0xbf4a322f1496e5c3d34a9bcdb4c60567b38c7de2",
          "topics": [
            "0xddf252ad1be2c89b69c2b068fc378daa952ba7f163c4a11628f55a4df523b3ef",
            "0x000000000000000000000000c77f7fed3b5cc8249adc428c5f44c9063b9734b4",
            "0x0000000000000000000000000000000000000000000000000000000000000000"
          ],
          "data": "0x0000000000000000000000000000000000000000000000356a3918866a14a5cf",
          "blockHash": "0x195f29a9bf0b36d82ee0b5a8d90861de93c2663ba86c49e6e19394a53878452c",
          "blockNumber": "0x725a70",
          "transactionHash": "0x904e6267d53fbd6e1d29bcc276b2557a2585ee215f702334a4a93876dc94a833",
          "transactionIndex": "0x5d",
          "logIndex": "0xd8",
          "removed": false
        },
        {
          "address": "0xbf4a322f1496e5c3d34a9bcdb4c60567b38c7de2",
          "topics": [
            "0x4afcb4a87cdbd9974efdb92ee48bc8d7cd0ae4bf217004db3d080cbaee652ca7"
          ],
          "data": "0x0000000000000000000000000000000000000000000000000000000067872f9000000000000000000000000000000000000000000000000000039499d5314aa10000000000000000000000000000000000000000000000000dc7e3ee765f5c43",
          "blockHash": "0x195f29a9bf0b36d82ee0b5a8d90861de93c2663ba86c49e6e19394a53878452c",
          "blockNumber": "0x725a70",
          "transactionHash": "0x904e6267d53fbd6e1d29bcc276b2557a2585ee215f702334a4a93876dc94a833",
          "transactionIndex": "0x5d",
          "logIndex": "0xd9",
          "removed": false
        }
      ],
      "logsBloom": "0x00000000000000000000000000000000000000000000000000000000000000000000000000000000000000000000000000000000000000004000000000000000000000000000000000000008000000000000001000000000000000000000000000000000020000000000000000000800020000000000000000000010000000000000000000000000000000000000000000000000000008000000010000000000000000000000000000000000000000004000000000000000000000000000000000000002000000800000000000001000000000000000080000000000000020000000000000000000000000000000000000000000000000000000000000000000",
      "type": "0x2",
      "transactionHash": "0x904e6267d53fbd6e1d29bcc276b2557a2585ee215f702334a4a93876dc94a833",
      "transactionIndex": "0x5d",
      "blockHash": "0x195f29a9bf0b36d82ee0b5a8d90861de93c2663ba86c49e6e19394a53878452c",
      "blockNumber": "0x725a70",
      "gasUsed": "0xfb91",
      "effectiveGasPrice": "0x252a4d387",
      "from": "0xc77f7fed3b5cc8249adc428c5f44c9063b9734b4",
      "to": "0xbf4a322f1496e5c3d34a9bcdb4c60567b38c7de2",
      "contractAddress": null
    }
  ],
  "libraries": [],
  "pending": [],
  "returns": {},
  "timestamp": 1736912786,
  "chain": 11155111,
  "commit": "51a374b"
}