{
  "transactions": [
    {
      "hash": "0x61da53128792833eb0788d39a5c1ac200b423c5fc5ea8d3f71b0c72a1aa3c242",
      "transactionType": "CALL",
      "contractName": null,
      "contractAddress": "0x8aafd3ede9adb0ff97c7aebce82a919afb1c8764",
      "function": "sell(uint256)",
      "arguments": [
        "383512647479259"
      ],
      "transaction": {
        "from": "0xc77f7fed3b5cc8249adc428c5f44c9063b9734b4",
        "to": "0x8aafd3ede9adb0ff97c7aebce82a919afb1c8764",
        "gas": "0x1724d",
        "value": "0x0",
        "input": "0xe4849b3200000000000000000000000000000000000000000000000000015ccd7f1eafdb",
        "nonce": "0xe81",
        "chainId": "0xaa36a7"
      },
      "additionalContracts": [],
      "isFixedGasLimit": false
    }
  ],
  "receipts": [
    {
      "status": "0x1",
      "cumulativeGasUsed": "0xc5587d",
      "logs": [
        {
          "address": "0x8aafd3ede9adb0ff97c7aebce82a919afb1c8764",
          "topics": [
            "0xddf252ad1be2c89b69c2b068fc378daa952ba7f163c4a11628f55a4df523b3ef",
            "0x000000000000000000000000c77f7fed3b5cc8249adc428c5f44c9063b9734b4",
            "0x0000000000000000000000000000000000000000000000000000000000000000"
          ],
          "data": "0x00000000000000000000000000000000000000000000000000015a032609f621",
          "blockHash": "0x7b1696d87d70535f46a07382726b3aca0a94c6c6853e8c71966d43abf948b1d2",
          "blockNumber": "0x7313dc",
          "transactionHash": "0x61da53128792833eb0788d39a5c1ac200b423c5fc5ea8d3f71b0c72a1aa3c242",
          "transactionIndex": "0x87",
          "logIndex": "0xde",
          "removed": false
        },
        {
          "address": "0x8aafd3ede9adb0ff97c7aebce82a919afb1c8764",
          "topics": [
            "0xddf252ad1be2c89b69c2b068fc378daa952ba7f163c4a11628f55a4df523b3ef",
            "0x000000000000000000000000c77f7fed3b5cc8249adc428c5f44c9063b9734b4",
            "0x000000000000000000000000c77f7fed3b5cc8249adc428c5f44c9063b9734b4"
          ],
          "data": "0x000000000000000000000000000000000000000000000000000002ca5914b9ba",
          "blockHash": "0x7b1696d87d70535f46a07382726b3aca0a94c6c6853e8c71966d43abf948b1d2",
          "blockNumber": "0x7313dc",
          "transactionHash": "0x61da53128792833eb0788d39a5c1ac200b423c5fc5ea8d3f71b0c72a1aa3c242",
          "transactionIndex": "0x87",
          "logIndex": "0xdf",
          "removed": false
        },
        {
          "address": "0x8aafd3ede9adb0ff97c7aebce82a919afb1c8764",
          "topics": [
            "0x4afcb4a87cdbd9974efdb92ee48bc8d7cd0ae4bf217004db3d080cbaee652ca7"
          ],
          "data": "0x00000000000000000000000000000000000000000000000000000000678feae40000000000000000000000000000000000000000000000000004b61edc0cf4ba000000000000000000000000000000000000000000000000000000766a7eb29d",
          "blockHash": "0x7b1696d87d70535f46a07382726b3aca0a94c6c6853e8c71966d43abf948b1d2",
          "blockNumber": "0x7313dc",
          "transactionHash": "0x61da53128792833eb0788d39a5c1ac200b423c5fc5ea8d3f71b0c72a1aa3c242",
          "transactionIndex": "0x87",
          "logIndex": "0xe0",
          "removed": false
        }
      ],
      "logsBloom": "0x00000000000000000000000000000000000000000600000000000000000000000000000000000000000000000000000000000000000000004000000000000000000000000000004000000008000000000000000000000000000000000000000000000000020000000000000000000800020000000000000000000010000000000000000000000000000000000000000000000000000000000000010000000000000000000000000000000000000000004000000000000000000000000000000000000002000000800000000000000000000000000000080000000000000020000000000000000000000000000000000000000000000000000000000000000000",
      "type": "0x2",
      "transactionHash": "0x61da53128792833eb0788d39a5c1ac200b423c5fc5ea8d3f71b0c72a1aa3c242",
      "transactionIndex": "0x87",
      "blockHash": "0x7b1696d87d70535f46a07382726b3aca0a94c6c6853e8c71966d43abf948b1d2",
      "blockNumber": "0x7313dc",
      "gasUsed": "0xfd33",
      "effectiveGasPrice": "0x6f2aeaa7",
      "from": "0xc77f7fed3b5cc8249adc428c5f44c9063b9734b4",
      "to": "0x8aafd3ede9adb0ff97c7aebce82a919afb1c8764",
      "contractAddress": null
    }
  ],
  "libraries": [],
  "pending": [],
  "returns": {},
  "timestamp": 1737485029,
  "chain": 11155111,
  "commit": "51a374b"
}