{
  "transactions": [
    {
      "hash": "0xb3b20842789743c00a53e3aeebb0e7b0c362aeb1b90d57526ee5d3509e77bd7c",
      "transactionType": "CALL",
      "contractName": null,
      "contractAddress": "0x8aafd3ede9adb0ff97c7aebce82a919afb1c8764",
      "function": "sell(uint256)",
      "arguments": [
        "671015405254734608601"
      ],
      "transaction": {
        "from": "0xc77f7fed3b5cc8249adc428c5f44c9063b9734b4",
        "to": "0x8aafd3ede9adb0ff97c7aebce82a919afb1c8764",
        "gas": "0x17270",
        "value": "0x0",
        "input": "0xe4849b3200000000000000000000000000000000000000000000002460359be31f3d78d9",
        "nonce": "0x127b",
        "chainId": "0xaa36a7"
      },
      "additionalContracts": [],
      "isFixedGasLimit": false
    }
  ],
  "receipts": [
    {
      "status": "0x1",
      "cumulativeGasUsed": "0x8c1aa5",
      "logs": [
        {
          "address": "0x8aafd3ede9adb0ff97c7aebce82a919afb1c8764",
          "topics": [
            "0xddf252ad1be2c89b69c2b068fc378daa952ba7f163c4a11628f55a4df523b3ef",
            "0x000000000000000000000000c77f7fed3b5cc8249adc428c5f44c9063b9734b4",
            "0x0000000000000000000000000000000000000000000000000000000000000000"
          ],
          "data": "0x00000000000000000000000000000000000000000000002415b6343d770de055",
          "blockHash": "0x40aa1c91ceb620f0533fdf2073342b1ebad528c73b245bb291b50971fa47fb03",
          "blockNumber": "0x731966",
          "transactionHash": "0xb3b20842789743c00a53e3aeebb0e7b0c362aeb1b90d57526ee5d3509e77bd7c",
          "transactionIndex": "0x6e",
          "logIndex": "0xa8",
          "removed": false
        },
        {
          "address": "0x8aafd3ede9adb0ff97c7aebce82a919afb1c8764",
          "topics": [
            "0xddf252ad1be2c89b69c2b068fc378daa952ba7f163c4a11628f55a4df523b3ef",
            "0x000000000000000000000000c77f7fed3b5cc8249adc428c5f44c9063b9734b4",
            "0x000000000000000000000000c77f7fed3b5cc8249adc428c5f44c9063b9734b4"
          ],
          "data": "0x0000000000000000000000000000000000000000000000004a7f67a5a82f9884",
          "blockHash": "0x40aa1c91ceb620f0533fdf2073342b1ebad528c73b245bb291b50971fa47fb03",
          "blockNumber": "0x731966",
          "transactionHash": "0xb3b20842789743c00a53e3aeebb0e7b0c362aeb1b90d57526ee5d3509e77bd7c",
          "transactionIndex": "0x6e",
          "logIndex": "0xa9",
          "removed": false
        },
        {
          "address": "0x8aafd3ede9adb0ff97c7aebce82a919afb1c8764",
          "topics": [
            "0x4afcb4a87cdbd9974efdb92ee48bc8d7cd0ae4bf217004db3d080cbaee652ca7"
          ],
          "data": "0x0000000000000000000000000000000000000000000000000000000067902d980000000000000000000000000000000000000000000000000005435ca0fa07130000000000000000000000000000000000000000000000000dc8ee4b6f193190",
          "blockHash": "0x40aa1c91ceb620f0533fdf2073342b1ebad528c73b245bb291b50971fa47fb03",
          "blockNumber": "0x731966",
          "transactionHash": "0xb3b20842789743c00a53e3aeebb0e7b0c362aeb1b90d57526ee5d3509e77bd7c",
          "transactionIndex": "0x6e",
          "logIndex": "0xaa",
          "removed": false
        }
      ],
      "logsBloom": "0x00000000000000000000000000000000000000000600000000000000000000000000000000000000000000000000000000000000000000004000000000000000000000000000004000000008000000000000000000000000000000000000000000000000020000000000000000000800020000000000000000000010000000000000000000000000000000000000000000000000000000000000010000000000000000000000000000000000000000004000000000000000000000000000000000000002000000800000000000000000000000000000080000000000000020000000000000000000000000000000000000000000000000000000000000000000",
      "type": "0x2",
      "transactionHash": "0xb3b20842789743c00a53e3aeebb0e7b0c362aeb1b90d57526ee5d3509e77bd7c",
      "transactionIndex": "0x6e",
      "blockHash": "0x40aa1c91ceb620f0533fdf2073342b1ebad528c73b245bb291b50971fa47fb03",
      "blockNumber": "0x731966",
      "gasUsed": "0xfd4b",
      "effectiveGasPrice": "0x434a190c",
      "from": "0xc77f7fed3b5cc8249adc428c5f44c9063b9734b4",
      "to": "0x8aafd3ede9adb0ff97c7aebce82a919afb1c8764",
      "contractAddress": null
    }
  ],
  "libraries": [],
  "pending": [],
  "returns": {},
  "timestamp": 1737502105,
  "chain": 11155111,
  "commit": "1d2fb70"
}