{
  "transactions": [
    {
      "hash": "0x7dd942240ce573cdc2f611ec37391fafae00a64e5bc16266a1f1b5b73bbf965f",
      "transactionType": "CALL",
      "contractName": null,
      "contractAddress": "0x8aafd3ede9adb0ff97c7aebce82a919afb1c8764",
      "function": "sell(uint256)",
      "arguments": [
        "25958103793"
      ],
      "transaction": {
        "from": "0xc77f7fed3b5cc8249adc428c5f44c9063b9734b4",
        "to": "0x8aafd3ede9adb0ff97c7aebce82a919afb1c8764",
        "gas": "0x1722a",
        "value": "0x0",
        "input": "0xe4849b32000000000000000000000000000000000000000000000000000000060b393af1",
        "nonce": "0xf1c",
        "chainId": "0xaa36a7"
      },
      "additionalContracts": [],
      "isFixedGasLimit": false
    }
  ],
  "receipts": [
    {
      "status": "0x1",
      "cumulativeGasUsed": "0x12cb4fc",
      "logs": [
        {
          "address": "0x8aafd3ede9adb0ff97c7aebce82a919afb1c8764",
          "topics": [
            "0xddf252ad1be2c89b69c2b068fc378daa952ba7f163c4a11628f55a4df523b3ef",
            "0x000000000000000000000000c77f7fed3b5cc8249adc428c5f44c9063b9734b4",
            "0x0000000000000000000000000000000000000000000000000000000000000000"
          ],
          "data": "0x00000000000000000000000000000000000000000000000000000005fed88433",
          "blockHash": "0xc6abb7779442601a64acc85990290ddc3aa759570e5afe7ab0b099fef2efadf5",
          "blockNumber": "0x73156d",
          "transactionHash": "0x7dd942240ce573cdc2f611ec37391fafae00a64e5bc16266a1f1b5b73bbf965f",
          "transactionIndex": "0x6b",
          "logIndex": "0xd8",
          "removed": false
        },
        {
          "address": "0x8aafd3ede9adb0ff97c7aebce82a919afb1c8764",
          "topics": [
            "0xddf252ad1be2c89b69c2b068fc378daa952ba7f163c4a11628f55a4df523b3ef",
            "0x000000000000000000000000c77f7fed3b5cc8249adc428c5f44c9063b9734b4",
            "0x000000000000000000000000c77f7fed3b5cc8249adc428c5f44c9063b9734b4"
          ],
          "data": "0x000000000000000000000000000000000000000000000000000000000c60b6be",
          "blockHash": "0xc6abb7779442601a64acc85990290ddc3aa759570e5afe7ab0b099fef2efadf5",
          "blockNumber": "0x73156d",
          "transactionHash": "0x7dd942240ce573cdc2f611ec37391fafae00a64e5bc16266a1f1b5b73bbf965f",
          "transactionIndex": "0x6b",
          "logIndex": "0xd9",
          "removed": false
        },
        {
          "address": "0x8aafd3ede9adb0ff97c7aebce82a919afb1c8764",
          "topics": [
            "0x4afcb4a87cdbd9974efdb92ee48bc8d7cd0ae4bf217004db3d080cbaee652ca7"
          ],
          "data": "0x00000000000000000000000000000000000000000000000000000000678ffdc80000000000000000000000000000000000000000000000000004bee3f2402704000000000000000000000000000000000000000000000000000000000211172b",
          "blockHash": "0xc6abb7779442601a64acc85990290ddc3aa759570e5afe7ab0b099fef2efadf5",
          "blockNumber": "0x73156d",
          "transactionHash": "0x7dd942240ce573cdc2f611ec37391fafae00a64e5bc16266a1f1b5b73bbf965f",
          "transactionIndex": "0x6b",
          "logIndex": "0xda",
          "removed": false
        }
      ],
      "logsBloom": "0x00000000000000000000000000000000000000000600000000000000000000000000000000000000000000000000000000000000000000004000000000000000000000000000004000000008000000000000000000000000000000000000000000000000020000000000000000000800020000000000000000000010000000000000000000000000000000000000000000000000000000000000010000000000000000000000000000000000000000004000000000000000000000000000000000000002000000800000000000000000000000000000080000000000000020000000000000000000000000000000000000000000000000000000000000000000",
      "type": "0x2",
      "transactionHash": "0x7dd942240ce573cdc2f611ec37391fafae00a64e5bc16266a1f1b5b73bbf965f",
      "transactionIndex": "0x6b",
      "blockHash": "0xc6abb7779442601a64acc85990290ddc3aa759570e5afe7ab0b099fef2efadf5",
      "blockNumber": "0x73156d",
      "gasUsed": "0xfd1b",
      "effectiveGasPrice": "0x8e8ac421",
      "from": "0xc77f7fed3b5cc8249adc428c5f44c9063b9734b4",
      "to": "0x8aafd3ede9adb0ff97c7aebce82a919afb1c8764",
      "contractAddress": null
    }
  ],
  "libraries": [],
  "pending": [],
  "returns": {},
  "timestamp": 1737489866,
  "chain": 11155111,
  "commit": "1d2fb70"
}