{
  "transactions": [
    {
      "hash": "0x30992de3225397f7047e2d806fa9545fdf8a82659958e105a41064017d0813a8",
      "transactionType": "CALL",
      "contractName": null,
      "contractAddress": "0xbf4a322f1496e5c3d34a9bcdb4c60567b38c7de2",
      "function": "sell(uint256)",
      "arguments": [
        "977174446008836894573"
      ],
      "transaction": {
        "from": "0xc77f7fed3b5cc8249adc428c5f44c9063b9734b4",
        "to": "0xbf4a322f1496e5c3d34a9bcdb4c60567b38c7de2",
        "gas": "0x16fea",
        "value": "0x0",
        "input": "0xe4849b32000000000000000000000000000000000000000000000034f905055a59d92f6d",
        "nonce": "0xceb",
        "chainId": "0xaa36a7"
      },
      "additionalContracts": [],
      "isFixedGasLimit": false
    }
  ],
  "receipts": [
    {
      "status": "0x1",
      "cumulativeGasUsed": "0xdab3c2",
      "logs": [
        {
          "address": "0xbf4a322f1496e5c3d34a9bcdb4c60567b38c7de2",
          "topics": [
            "0xddf252ad1be2c89b69c2b068fc378daa952ba7f163c4a11628f55a4df523b3ef",
            "0x000000000000000000000000c77f7fed3b5cc8249adc428c5f44c9063b9734b4",
            "0x0000000000000000000000000000000000000000000000000000000000000000"
          ],
          "data": "0x000000000000000000000000000000000000000000000034f905055a59d92f6d",
          "blockHash": "0xa4173c124671ad6c81977de14eb29eabdee1417b0b22f77e2226b8a6b9ede056",
          "blockNumber": "0x725d3d",
          "transactionHash": "0x30992de3225397f7047e2d806fa9545fdf8a82659958e105a41064017d0813a8",
          "transactionIndex": "0x91",
          "logIndex": "0xbc",
          "removed": false
        },
        {
          "address": "0xbf4a322f1496e5c3d34a9bcdb4c60567b38c7de2",
          "topics": [
            "0x4afcb4a87cdbd9974efdb92ee48bc8d7cd0ae4bf217004db3d080cbaee652ca7"
          ],
          "data": "0x000000000000000000000000000000000000000000000000000000006787515000000000000000000000000000000000000000000000000000039c40911f580c0000000000000000000000000000000000000000000000000dc7e3db7f2dab90",
          "blockHash": "0xa4173c124671ad6c81977de14eb29eabdee1417b0b22f77e2226b8a6b9ede056",
          "blockNumber": "0x725d3d",
          "transactionHash": "0x30992de3225397f7047e2d806fa9545fdf8a82659958e105a41064017d0813a8",
          "transactionIndex": "0x91",
          "logIndex": "0xbd",
          "removed": false
        }
      ],
      "logsBloom": "0x00000000000000000000000000000000000000000000000000000000000000000000000000000000000000000000000000000000000000004000000000000000000000000000000000000008000000000000001000000000000000000000000000000000020000000000000000000800020000000000000000000010000000000000000000000000000000000000000000000000000008000000010000000000000000000000000000000000000000004000000000000000000000000000000000000002000000800000000000001000000000000000080000000000000020000000000000000000000000000000000000000000000000000000000000000000",
      "type": "0x2",
      "transactionHash": "0x30992de3225397f7047e2d806fa9545fdf8a82659958e105a41064017d0813a8",
      "transactionIndex": "0x91",
      "blockHash": "0xa4173c124671ad6c81977de14eb29eabdee1417b0b22f77e2226b8a6b9ede056",
      "blockNumber": "0x725d3d",
      "gasUsed": "0xfb91",
      "effectiveGasPrice": "0x441ee37c0",
      "from": "0xc77f7fed3b5cc8249adc428c5f44c9063b9734b4",
      "to": "0xbf4a322f1496e5c3d34a9bcdb4c60567b38c7de2",
      "contractAddress": null
    }
  ],
  "libraries": [],
  "pending": [],
  "returns": {},
  "timestamp": 1736921427,
  "chain": 11155111,
  "commit": "51a374b"
}