{
  "transactions": [
    {
      "hash": "0xc0b67618e6630b53c3d209f52b2a0004921fe52cdd32999743d3c68f5b7a8d1c",
      "transactionType": "CALL",
      "contractName": null,
      "contractAddress": "0xbf4a322f1496e5c3d34a9bcdb4c60567b38c7de2",
      "function": "sell(uint256)",
      "arguments": [
        "978056292197882965700"
      ],
      "transaction": {
        "from": "0xc77f7fed3b5cc8249adc428c5f44c9063b9734b4",
        "to": "0xbf4a322f1496e5c3d34a9bcdb4c60567b38c7de2",
        "gas": "0x16fea",
        "value": "0x0",
        "input": "0xe4849b320000000000000000000000000000000000000000000000350541f7ca2678aec4",
        "nonce": "0xca9",
        "chainId": "0xaa36a7"
      },
      "additionalContracts": [],
      "isFixedGasLimit": false
    }
  ],
  "receipts": [
    {
      "status": "0x1",
      "cumulativeGasUsed": "0xc06903",
      "logs": [
        {
          "address": "0xbf4a322f1496e5c3d34a9bcdb4c60567b38c7de2",
          "topics": [
            "0xddf252ad1be2c89b69c2b068fc378daa952ba7f163c4a11628f55a4df523b3ef",
            "0x000000000000000000000000c77f7fed3b5cc8249adc428c5f44c9063b9734b4",
            "0x0000000000000000000000000000000000000000000000000000000000000000"
          ],
          "data": "0x0000000000000000000000000000000000000000000000350541f7ca2678aec4",
          "blockHash": "0x895a49f0356340828c8694f5f210db610422b44f939c86338f5460cbf4aeefc3",
          "blockNumber": "0x725cf4",
          "transactionHash": "0xc0b67618e6630b53c3d209f52b2a0004921fe52cdd32999743d3c68f5b7a8d1c",
          "transactionIndex": "0x5d",
          "logIndex": "0x88",
          "removed": false
        },
        {
          "address": "0xbf4a322f1496e5c3d34a9bcdb4c60567b38c7de2",
          "topics": [
            "0x4afcb4a87cdbd9974efdb92ee48bc8d7cd0ae4bf217004db3d080cbaee652ca7"
          ],
          "data": "0x0000000000000000000000000000000000000000000000000000000067874de400000000000000000000000000000000000000000000000000039b6b3d30150b0000000000000000000000000000000000000000000000000dc7e3dd8c10625b",
          "blockHash": "0x895a49f0356340828c8694f5f210db610422b44f939c86338f5460cbf4aeefc3",
          "blockNumber": "0x725cf4",
          "transactionHash": "0xc0b67618e6630b53c3d209f52b2a0004921fe52cdd32999743d3c68f5b7a8d1c",
          "transactionIndex": "0x5d",
          "logIndex": "0x89",
          "removed": false
        }
      ],
      "logsBloom": "0x00000000000000000000000000000000000000000000000000000000000000000000000000000000000000000000000000000000000000004000000000000000000000000000000000000008000000000000001000000000000000000000000000000000020000000000000000000800020000000000000000000010000000000000000000000000000000000000000000000000000008000000010000000000000000000000000000000000000000004000000000000000000000000000000000000002000000800000000000001000000000000000080000000000000020000000000000000000000000000000000000000000000000000000000000000000",
      "type": "0x2",
      "transactionHash": "0xc0b67618e6630b53c3d209f52b2a0004921fe52cdd32999743d3c68f5b7a8d1c",
      "transactionIndex": "0x5d",
      "blockHash": "0x895a49f0356340828c8694f5f210db610422b44f939c86338f5460cbf4aeefc3",
      "blockNumber": "0x725cf4",
      "gasUsed": "0xfb91",
      "effectiveGasPrice": "0x22c4bb7ee",
      "from": "0xc77f7fed3b5cc8249adc428c5f44c9063b9734b4",
      "to": "0xbf4a322f1496e5c3d34a9bcdb4c60567b38c7de2",
      "contractAddress": null
    }
  ],
  "libraries": [],
  "pending": [],
  "returns": {},
  "timestamp": 1736920550,
  "chain": 11155111,
  "commit": "51a374b"
}