{
  "transactions": [
    {
      "hash": "0x1a742b43c28c8580d204355b012ca09ebfed57dcbd7fba609ee13ebedb1586bb",
      "transactionType": "CALL",
      "contractName": null,
      "contractAddress": "0x270e88f8683660553e8ba4eb2ad7c91a1710d769",
      "function": "sell(uint256)",
      "arguments": [
        "738866855150650073197"
      ],
      "transaction": {
        "from": "0xc77f7fed3b5cc8249adc428c5f44c9063b9734b4",
        "to": "0x270e88f8683660553e8ba4eb2ad7c91a1710d769",
        "gas": "0x16fec",
        "value": "0x0",
        "input": "0xe4849b320000000000000000000000000000000000000000000000280dd662133c7f206d",
        "nonce": "0x748",
        "chainId": "0xaa36a7"
      },
      "additionalContracts": [],
      "isFixedGasLimit": false
    }
  ],
  "receipts": [
    {
      "status": "0x1",
      "cumulativeGasUsed": "0x4a7395",
      "logs": [
        {
          "address": "0x270e88f8683660553e8ba4eb2ad7c91a1710d769",
          "topics": [
            "0xddf252ad1be2c89b69c2b068fc378daa952ba7f163c4a11628f55a4df523b3ef",
            "0x000000000000000000000000c77f7fed3b5cc8249adc428c5f44c9063b9734b4",
            "0x0000000000000000000000000000000000000000000000000000000000000000"
          ],
          "data": "0x0000000000000000000000000000000000000000000000280dd662133c7f206d",
          "blockHash": "0x91da5868aed8437d41cac4ca21e3c4c0bd985ed5f4008b4946385f96b3ee7480",
          "blockNumber": "0x72546b",
          "transactionHash": "0x1a742b43c28c8580d204355b012ca09ebfed57dcbd7fba609ee13ebedb1586bb",
          "transactionIndex": "0x35",
          "logIndex": "0x34",
          "removed": false
        },
        {
          "address": "0x270e88f8683660553e8ba4eb2ad7c91a1710d769",
          "topics": [
            "0x4afcb4a87cdbd9974efdb92ee48bc8d7cd0ae4bf217004db3d080cbaee652ca7"
          ],
          "data": "0x000000000000000000000000000000000000000000000000000000006786e70c0000000000000000000000000000000000000000000000000004c69ca5de7a710000000000000000000000000000000000000000000000000dc82861f39d4dad",
          "blockHash": "0x91da5868aed8437d41cac4ca21e3c4c0bd985ed5f4008b4946385f96b3ee7480",
          "blockNumber": "0x72546b",
          "transactionHash": "0x1a742b43c28c8580d204355b012ca09ebfed57dcbd7fba609ee13ebedb1586bb",
          "transactionIndex": "0x35",
          "logIndex": "0x35",
          "removed": false
        }
      ],
      "logsBloom": "0x00000000000000000000000000000000000000000000000000000000000000000000000000000000000000000000000020000000000000004000000000000000000000000000000000000008000000000000000000000000000000000000000000000000020000000000000000000800020000000000000000000010000000000000000000010000000000000000000000000000000000000000010000000000000000000000000000000000000000004000000000000000000000000000000000000002000000800000000000000000000000000000080000008000000020000000000000000000000000000000000000000000000000000000000000000000",
      "type": "0x2",
      "transactionHash": "0x1a742b43c28c8580d204355b012ca09ebfed57dcbd7fba609ee13ebedb1586bb",
      "transactionIndex": "0x35",
      "blockHash": "0x91da5868aed8437d41cac4ca21e3c4c0bd985ed5f4008b4946385f96b3ee7480",
      "blockNumber": "0x72546b",
      "gasUsed": "0xfb93",
      "effectiveGasPrice": "0x168d57055",
      "from": "0xc77f7fed3b5cc8249adc428c5f44c9063b9734b4",
      "to": "0x270e88f8683660553e8ba4eb2ad7c91a1710d769",
      "contractAddress": null
    }
  ],
  "libraries": [],
  "pending": [],
  "returns": {},
  "timestamp": 1736894221,
  "chain": 11155111,
  "commit": "51a374b"
}