{
  "transactions": [
    {
      "hash": "0x2118b32cfc71160fa4cc155ebb173e12f24f672de252b849ff24abdcff2b9847",
      "transactionType": "CALL",
      "contractName": null,
      "contractAddress": "0x8aafd3ede9adb0ff97c7aebce82a919afb1c8764",
      "function": "sell(uint256)",
      "arguments": [
        "11047724388224667"
      ],
      "transaction": {
        "from": "0xc77f7fed3b5cc8249adc428c5f44c9063b9734b4",
        "to": "0x8aafd3ede9adb0ff97c7aebce82a919afb1c8764",
        "gas": "0x1724d",
        "value": "0x0",
        "input": "0xe4849b3200000000000000000000000000000000000000000000000000273fd8c7bc8e9b",
        "nonce": "0x162a",
        "chainId": "0xaa36a7"
      },
      "additionalContracts": [],
      "isFixedGasLimit": false
    }
  ],
  "receipts": [
    {
      "status": "0x1",
      "cumulativeGasUsed": "0x1af879d",
      "logs": [
        {
          "address": "0x8aafd3ede9adb0ff97c7aebce82a919afb1c8764",
          "topics": [
            "0xddf252ad1be2c89b69c2b068fc378daa952ba7f163c4a11628f55a4df523b3ef",
            "0x000000000000000000000000c77f7fed3b5cc8249adc428c5f44c9063b9734b4",
            "0x0000000000000000000000000000000000000000000000000000000000000000"
          ],
          "data": "0x0000000000000000000000000000000000000000000000000026ef76ca3c1296",
          "blockHash": "0x73171a698544d7d4ff993ffdf95043ad1e703270c1a86a215ccbbfe7eeb29053",
          "blockNumber": "0x731dc1",
          "transactionHash": "0x2118b32cfc71160fa4cc155ebb173e12f24f672de252b849ff24abdcff2b9847",
          "transactionIndex": "0xdf",
          "logIndex": "0x194",
          "removed": false
        },
        {
          "address": "0x8aafd3ede9adb0ff97c7aebce82a919afb1c8764",
          "topics": [
            "0xddf252ad1be2c89b69c2b068fc378daa952ba7f163c4a11628f55a4df523b3ef",
            "0x000000000000000000000000c77f7fed3b5cc8249adc428c5f44c9063b9734b4",
            "0x000000000000000000000000c77f7fed3b5cc8249adc428c5f44c9063b9734b4"
          ],
          "data": "0x00000000000000000000000000000000000000000000000000005061fd807c05",
          "blockHash": "0x73171a698544d7d4ff993ffdf95043ad1e703270c1a86a215ccbbfe7eeb29053",
          "blockNumber": "0x731dc1",
          "transactionHash": "0x2118b32cfc71160fa4cc155ebb173e12f24f672de252b849ff24abdcff2b9847",
          "transactionIndex": "0xdf",
          "logIndex": "0x195",
          "removed": false
        },
        {
          "address": "0x8aafd3ede9adb0ff97c7aebce82a919afb1c8764",
          "topics": [
            "0x4afcb4a87cdbd9974efdb92ee48bc8d7cd0ae4bf217004db3d080cbaee652ca7"
          ],
          "data": "0x00000000000000000000000000000000000000000000000000000000679061f400000000000000000000000000000000000000000000000000148aabbbb0c5cd00000000000000000000000000000000000000000000000000003a18a9348844",
          "blockHash": "0x73171a698544d7d4ff993ffdf95043ad1e703270c1a86a215ccbbfe7eeb29053",
          "blockNumber": "0x731dc1",
          "transactionHash": "0x2118b32cfc71160fa4cc155ebb173e12f24f672de252b849ff24abdcff2b9847",
          "transactionIndex": "0xdf",
          "logIndex": "0x196",
          "removed": false
        }
      ],
      "logsBloom": "0x00000000000000000000000000000000000000000600000000000000000000000000000000000000000000000000000000000000000000004000000000000000000000000000004000000008000000000000000000000000000000000000000000000000020000000000000000000800020000000000000000000010000000000000000000000000000000000000000000000000000000000000010000000000000000000000000000000000000000004000000000000000000000000000000000000002000000800000000000000000000000000000080000000000000020000000000000000000000000000000000000000000000000000000000000000000",
      "type": "0x2",
      "transactionHash": "0x2118b32cfc71160fa4cc155ebb173e12f24f672de252b849ff24abdcff2b9847",
      "transactionIndex": "0xdf",
      "blockHash": "0x73171a698544d7d4ff993ffdf95043ad1e703270c1a86a215ccbbfe7eeb29053",
      "blockNumber": "0x731dc1",
      "gasUsed": "0xfd33",
      "effectiveGasPrice": "0x561e9dd2",
      "from": "0xc77f7fed3b5cc8249adc428c5f44c9063b9734b4",
      "to": "0x8aafd3ede9adb0ff97c7aebce82a919afb1c8764",
      "contractAddress": null
    }
  ],
  "libraries": [],
  "pending": [],
  "returns": {},
  "timestamp": 1737515509,
  "chain": 11155111,
  "commit": "1d2fb70"
}