{
  "transactions": [
    {
      "hash": "0xfc24c8b344a9b797ae3bd3806f645c95301bae054b5f68b20d0063e7db5e6851",
      "transactionType": "CALL",
      "contractName": null,
      "contractAddress": "0xbf4a322f1496e5c3d34a9bcdb4c60567b38c7de2",
      "function": "sell(uint256)",
      "arguments": [
        "976774132172311733876"
      ],
      "transaction": {
        "from": "0xc77f7fed3b5cc8249adc428c5f44c9063b9734b4",
        "to": "0xbf4a322f1496e5c3d34a9bcdb4c60567b38c7de2",
        "gas": "0x16fea",
        "value": "0x0",
        "input": "0xe4849b32000000000000000000000000000000000000000000000034f376d20a2117a674",
        "nonce": "0xd09",
        "chainId": "0xaa36a7"
      },
      "additionalContracts": [],
      "isFixedGasLimit": false
    }
  ],
  "receipts": [
    {
      "status": "0x1",
      "cumulativeGasUsed": "0x89044b",
      "logs": [
        {
          "address": "0xbf4a322f1496e5c3d34a9bcdb4c60567b38c7de2",
          "topics": [
            "0xddf252ad1be2c89b69c2b068fc378daa952ba7f163c4a11628f55a4df523b3ef",
            "0x000000000000000000000000c77f7fed3b5cc8249adc428c5f44c9063b9734b4",
            "0x0000000000000000000000000000000000000000000000000000000000000000"
          ],
          "data": "0x000000000000000000000000000000000000000000000034f376d20a2117a674",
          "blockHash": "0x75fd206f6cd5a6b8da898004e3413801709e5ec000fbf482e1d580d2708f2019",
          "blockNumber": "0x725d62",
          "transactionHash": "0xfc24c8b344a9b797ae3bd3806f645c95301bae054b5f68b20d0063e7db5e6851",
          "transactionIndex": "0x4c",
          "logIndex": "0x8c",
          "removed": false
        },
        {
          "address": "0xbf4a322f1496e5c3d34a9bcdb4c60567b38c7de2",
          "topics": [
            "0x4afcb4a87cdbd9974efdb92ee48bc8d7cd0ae4bf217004db3d080cbaee652ca7"
          ],
          "data": "0x000000000000000000000000000000000000000000000000000000006787530c00000000000000000000000000000000000000000000000000039ca188bcb7150000000000000000000000000000000000000000000000000dc7e3da90e8026c",
          "blockHash": "0x75fd206f6cd5a6b8da898004e3413801709e5ec000fbf482e1d580d2708f2019",
          "blockNumber": "0x725d62",
          "transactionHash": "0xfc24c8b344a9b797ae3bd3806f645c95301bae054b5f68b20d0063e7db5e6851",
          "transactionIndex": "0x4c",
          "logIndex": "0x8d",
          "removed": false
        }
      ],
      "logsBloom": "0x00000000000000000000000000000000000000000000000000000000000000000000000000000000000000000000000000000000000000004000000000000000000000000000000000000008000000000000001000000000000000000000000000000000020000000000000000000800020000000000000000000010000000000000000000000000000000000000000000000000000008000000010000000000000000000000000000000000000000004000000000000000000000000000000000000002000000800000000000001000000000000000080000000000000020000000000000000000000000000000000000000000000000000000000000000000",
      "type": "0x2",
      "transactionHash": "0xfc24c8b344a9b797ae3bd3806f645c95301bae054b5f68b20d0063e7db5e6851",
      "transactionIndex": "0x4c",
      "blockHash": "0x75fd206f6cd5a6b8da898004e3413801709e5ec000fbf482e1d580d2708f2019",
      "blockNumber": "0x725d62",
      "gasUsed": "0xfb91",
      "effectiveGasPrice": "0x3221df524",
      "from": "0xc77f7fed3b5cc8249adc428c5f44c9063b9734b4",
      "to": "0xbf4a322f1496e5c3d34a9bcdb4c60567b38c7de2",
      "contractAddress": null
    }
  ],
  "libraries": [],
  "pending": [],
  "returns": {},
  "timestamp": 1736921870,
  "chain": 11155111,
  "commit": "51a374b"
}