{
  "transactions": [
    {
      "hash": "0x831179a173c4bd21e7215184cbcda26b49e3818f644f7b886615634a486e0e10",
      "transactionType": "CALL",
      "contractName": null,
      "contractAddress": "0x8aafd3ede9adb0ff97c7aebce82a919afb1c8764",
      "function": "sell(uint256)",
      "arguments": [
        "22928369598"
      ],
      "transaction": {
        "from": "0xc77f7fed3b5cc8249adc428c5f44c9063b9734b4",
        "to": "0x8aafd3ede9adb0ff97c7aebce82a919afb1c8764",
        "gas": "0x1722a",
        "value": "0x0",
        "input": "0xe4849b320000000000000000000000000000000000000000000000000000000556a327be",
        "nonce": "0x1104",
        "chainId": "0xaa36a7"
      },
      "additionalContracts": [],
      "isFixedGasLimit": false
    }
  ],
  "receipts": [
    {
      "status": "0x1",
      "cumulativeGasUsed": "0xc7da20",
      "logs": [
        {
          "address": "0x8aafd3ede9adb0ff97c7aebce82a919afb1c8764",
          "topics": [
            "0xddf252ad1be2c89b69c2b068fc378daa952ba7f163c4a11628f55a4df523b3ef",
            "0x000000000000000000000000c77f7fed3b5cc8249adc428c5f44c9063b9734b4",
            "0x0000000000000000000000000000000000000000000000000000000000000000"
          ],
          "data": "0x000000000000000000000000000000000000000000000000000000054bb44832",
          "blockHash": "0x254db5eaddc79487a16524a7f9e8d7dc4ca381ee39e8d4527b97606c7a00517f",
          "blockNumber": "0x7317b3",
          "transactionHash": "0x831179a173c4bd21e7215184cbcda26b49e3818f644f7b886615634a486e0e10",
          "transactionIndex": "0x8a",
          "logIndex": "0xa3",
          "removed": false
        },
        {
          "address": "0x8aafd3ede9adb0ff97c7aebce82a919afb1c8764",
          "topics": [
            "0xddf252ad1be2c89b69c2b068fc378daa952ba7f163c4a11628f55a4df523b3ef",
            "0x000000000000000000000000c77f7fed3b5cc8249adc428c5f44c9063b9734b4",
            "0x000000000000000000000000c77f7fed3b5cc8249adc428c5f44c9063b9734b4"
          ],
          "data": "0x000000000000000000000000000000000000000000000000000000000aeedf8c",
          "blockHash": "0x254db5eaddc79487a16524a7f9e8d7dc4ca381ee39e8d4527b97606c7a00517f",
          "blockNumber": "0x7317b3",
          "transactionHash": "0x831179a173c4bd21e7215184cbcda26b49e3818f644f7b886615634a486e0e10",
          "transactionIndex": "0x8a",
          "logIndex": "0xa4",
          "removed": false
        },
        {
          "address": "0x8aafd3ede9adb0ff97c7aebce82a919afb1c8764",
          "topics": [
            "0x4afcb4a87cdbd9974efdb92ee48bc8d7cd0ae4bf217004db3d080cbaee652ca7"
          ],
          "data": "0x000000000000000000000000000000000000000000000000000000006790192800000000000000000000000000000000000000000000000000050c28b60a434c0000000000000000000000000000000000000000000000000000000001f10f6c",
          "blockHash": "0x254db5eaddc79487a16524a7f9e8d7dc4ca381ee39e8d4527b97606c7a00517f",
          "blockNumber": "0x7317b3",
          "transactionHash": "0x831179a173c4bd21e7215184cbcda26b49e3818f644f7b886615634a486e0e10",
          "transactionIndex": "0x8a",
          "logIndex": "0xa5",
          "removed": false
        }
      ],
      "logsBloom": "0x00000000000000000000000000000000000000000600000000000000000000000000000000000000000000000000000000000000000000004000000000000000000000000000004000000008000000000000000000000000000000000000000000000000020000000000000000000800020000000000000000000010000000000000000000000000000000000000000000000000000000000000010000000000000000000000000000000000000000004000000000000000000000000000000000000002000000800000000000000000000000000000080000000000000020000000000000000000000000000000000000000000000000000000000000000000",
      "type": "0x2",
      "transactionHash": "0x831179a173c4bd21e7215184cbcda26b49e3818f644f7b886615634a486e0e10",
      "transactionIndex": "0x8a",
      "blockHash": "0x254db5eaddc79487a16524a7f9e8d7dc4ca381ee39e8d4527b97606c7a00517f",
      "blockNumber": "0x7317b3",
      "gasUsed": "0xfd1b",
      "effectiveGasPrice": "0x3e6ea165",
      "from": "0xc77f7fed3b5cc8249adc428c5f44c9063b9734b4",
      "to": "0x8aafd3ede9adb0ff97c7aebce82a919afb1c8764",
      "contractAddress": null
    }
  ],
  "libraries": [],
  "pending": [],
  "returns": {},
  "timestamp": 1737496873,
  "chain": 11155111,
  "commit": "1d2fb70"
}