{
  "transactions": [
    {
      "hash": "0xbcf9b0d9dad7b48e2f6b237d13decae391f34d412f71e012765717d53a83ef01",
      "transactionType": "CALL",
      "contractName": null,
      "contractAddress": "0x8aafd3ede9adb0ff97c7aebce82a919afb1c8764",
      "function": "sell(uint256)",
      "arguments": [
        "22011600109"
      ],
      "transaction": {
        "from": "0xc77f7fed3b5cc8249adc428c5f44c9063b9734b4",
        "to": "0x8aafd3ede9adb0ff97c7aebce82a919afb1c8764",
        "gas": "0x1722a",
        "value": "0x0",
        "input": "0xe4849b32000000000000000000000000000000000000000000000000000000051ffe5ced",
        "nonce": "0x1276",
        "chainId": "0xaa36a7"
      },
      "additionalContracts": [],
      "isFixedGasLimit": false
    }
  ],
  "receipts": [
    {
      "status": "0x1",
      "cumulativeGasUsed": "0xb15340",
      "logs": [
        {
          "address": "0x8aafd3ede9adb0ff97c7aebce82a919afb1c8764",
          "topics": [
            "0xddf252ad1be2c89b69c2b068fc378daa952ba7f163c4a11628f55a4df523b3ef",
            "0x000000000000000000000000c77f7fed3b5cc8249adc428c5f44c9063b9734b4",
            "0x0000000000000000000000000000000000000000000000000000000000000000"
          ],
          "data": "0x00000000000000000000000000000000000000000000000000000005157f666d",
          "blockHash": "0xd3d2263c7d6fcebaece0520e5fb10a4a37fae989773eecbb5cf3a095014f6085",
          "blockNumber": "0x731960",
          "transactionHash": "0xbcf9b0d9dad7b48e2f6b237d13decae391f34d412f71e012765717d53a83ef01",
          "transactionIndex": "0x77",
          "logIndex": "0x85",
          "removed": false
        },
        {
          "address": "0x8aafd3ede9adb0ff97c7aebce82a919afb1c8764",
          "topics": [
            "0xddf252ad1be2c89b69c2b068fc378daa952ba7f163c4a11628f55a4df523b3ef",
            "0x000000000000000000000000c77f7fed3b5cc8249adc428c5f44c9063b9734b4",
            "0x000000000000000000000000c77f7fed3b5cc8249adc428c5f44c9063b9734b4"
          ],
          "data": "0x000000000000000000000000000000000000000000000000000000000a7ef680",
          "blockHash": "0xd3d2263c7d6fcebaece0520e5fb10a4a37fae989773eecbb5cf3a095014f6085",
          "blockNumber": "0x731960",
          "transactionHash": "0xbcf9b0d9dad7b48e2f6b237d13decae391f34d412f71e012765717d53a83ef01",
          "transactionIndex": "0x77",
          "logIndex": "0x86",
          "removed": false
        },
        {
          "address": "0x8aafd3ede9adb0ff97c7aebce82a919afb1c8764",
          "topics": [
            "0x4afcb4a87cdbd9974efdb92ee48bc8d7cd0ae4bf217004db3d080cbaee652ca7"
          ],
          "data": "0x0000000000000000000000000000000000000000000000000000000067902d50000000000000000000000000000000000000000000000000000541eab990eb010000000000000000000000000000000000000000000000000000000001f109c6",
          "blockHash": "0xd3d2263c7d6fcebaece0520e5fb10a4a37fae989773eecbb5cf3a095014f6085",
          "blockNumber": "0x731960",
          "transactionHash": "0xbcf9b0d9dad7b48e2f6b237d13decae391f34d412f71e012765717d53a83ef01",
          "transactionIndex": "0x77",
          "logIndex": "0x87",
          "removed": false
        }
      ],
      "logsBloom": "0x00000000000000000000000000000000000000000600000000000000000000000000000000000000000000000000000000000000000000004000000000000000000000000000004000000008000000000000000000000000000000000000000000000000020000000000000000000800020000000000000000000010000000000000000000000000000000000000000000000000000000000000010000000000000000000000000000000000000000004000000000000000000000000000000000000002000000800000000000000000000000000000080000000000000020000000000000000000000000000000000000000000000000000000000000000000",
      "type": "0x2",
      "transactionHash": "0xbcf9b0d9dad7b48e2f6b237d13decae391f34d412f71e012765717d53a83ef01",
      "transactionIndex": "0x77",
      "blockHash": "0xd3d2263c7d6fcebaece0520e5fb10a4a37fae989773eecbb5cf3a095014f6085",
      "blockNumber": "0x731960",
      "gasUsed": "0xfd1b",
      "effectiveGasPrice": "0x39962e93",
      "from": "0xc77f7fed3b5cc8249adc428c5f44c9063b9734b4",
      "to": "0x8aafd3ede9adb0ff97c7aebce82a919afb1c8764",
      "contractAddress": null
    }
  ],
  "libraries": [],
  "pending": [],
  "returns": {},
  "timestamp": 1737502034,
  "chain": 11155111,
  "commit": "1d2fb70"
}