{
  "transactions": [
    {
      "hash": "0xf90f8e9cdd942037c254db5f3b7ae08f5a5d88bad3a1c72e8345c36925a6ad96",
      "transactionType": "CALL",
      "contractName": null,
      "contractAddress": "0x8aafd3ede9adb0ff97c7aebce82a919afb1c8764",
      "function": "sell(uint256)",
      "arguments": [
        "2908594285281"
      ],
      "transaction": {
        "from": "0xc77f7fed3b5cc8249adc428c5f44c9063b9734b4",
        "to": "0x8aafd3ede9adb0ff97c7aebce82a919afb1c8764",
        "gas": "0x15daa",
        "value": "0x0",
        "input": "0xe4849b32000000000000000000000000000000000000000000000000000002a535baaae1",
        "nonce": "0x1081",
        "chainId": "0xaa36a7"
      },
      "additionalContracts": [],
      "isFixedGasLimit": false
    }
  ],
  "receipts": [
    {
      "status": "0x1",
      "cumulativeGasUsed": "0x80f590",
      "logs": [
        {
          "address": "0x8aafd3ede9adb0ff97c7aebce82a919afb1c8764",
          "topics": [
            "0xddf252ad1be2c89b69c2b068fc378daa952ba7f163c4a11628f55a4df523b3ef",
            "0x000000000000000000000000c77f7fed3b5cc8249adc428c5f44c9063b9734b4",
            "0x0000000000000000000000000000000000000000000000000000000000000000"
          ],
          "data": "0x0000000000000000000000000000000000000000000000000000029fcacda777",
          "blockHash": "0xa797abd192ced28f51a9c9cff50684fefb5c28608f8166457132c7c619429edd",
          "blockNumber": "0x73170b",
          "transactionHash": "0xf90f8e9cdd942037c254db5f3b7ae08f5a5d88bad3a1c72e8345c36925a6ad96",
          "transactionIndex": "0x68",
          "logIndex": "0x89",
          "removed": false
        },
        {
          "address": "0x8aafd3ede9adb0ff97c7aebce82a919afb1c8764",
          "topics": [
            "0xddf252ad1be2c89b69c2b068fc378daa952ba7f163c4a11628f55a4df523b3ef",
            "0x000000000000000000000000c77f7fed3b5cc8249adc428c5f44c9063b9734b4",
            "0x000000000000000000000000c77f7fed3b5cc8249adc428c5f44c9063b9734b4"
          ],
          "data": "0x000000000000000000000000000000000000000000000000000000056aed036a",
          "blockHash": "0xa797abd192ced28f51a9c9cff50684fefb5c28608f8166457132c7c619429edd",
          "blockNumber": "0x73170b",
          "transactionHash": "0xf90f8e9cdd942037c254db5f3b7ae08f5a5d88bad3a1c72e8345c36925a6ad96",
          "transactionIndex": "0x68",
          "logIndex": "0x8a",
          "removed": false
        },
        {
          "address": "0x8aafd3ede9adb0ff97c7aebce82a919afb1c8764",
          "topics": [
            "0x4afcb4a87cdbd9974efdb92ee48bc8d7cd0ae4bf217004db3d080cbaee652ca7"
          ],
          "data": "0x000000000000000000000000000000000000000000000000000000006790113c0000000000000000000000000000000000000000000000000004f9471c971e9a00000000000000000000000000000000000000000000000000000000f2b58e14",
          "blockHash": "0xa797abd192ced28f51a9c9cff50684fefb5c28608f8166457132c7c619429edd",
          "blockNumber": "0x73170b",
          "transactionHash": "0xf90f8e9cdd942037c254db5f3b7ae08f5a5d88bad3a1c72e8345c36925a6ad96",
          "transactionIndex": "0x68",
          "logIndex": "0x8b",
          "removed": false
        }
      ],
      "logsBloom": "0x00000000000000000000000000000000000000000600000000000000000000000000000000000000000000000000000000000000000000004000000000000000000000000000004000000008000000000000000000000000000000000000000000000000020000000000000000000800020000000000000000000010000000000000000000000000000000000000000000000000000000000000010000000000000000000000000000000000000000004000000000000000000000000000000000000002000000800000000000000000000000000000080000000000000020000000000000000000000000000000000000000000000000000000000000000000",
      "type": "0x2",
      "transactionHash": "0xf90f8e9cdd942037c254db5f3b7ae08f5a5d88bad3a1c72e8345c36925a6ad96",
      "transactionIndex": "0x68",
      "blockHash": "0xa797abd192ced28f51a9c9cff50684fefb5c28608f8166457132c7c619429edd",
      "blockNumber": "0x73170b",
      "gasUsed": "0xfd27",
      "effectiveGasPrice": "0x4140cf42",
      "from": "0xc77f7fed3b5cc8249adc428c5f44c9063b9734b4",
      "to": "0x8aafd3ede9adb0ff97c7aebce82a919afb1c8764",
      "contractAddress": null
    }
  ],
  "libraries": [],
  "pending": [],
  "returns": {},
  "timestamp": 1737494845,
  "chain": 11155111,
  "commit": "1d2fb70"
}