{
  "transactions": [
    {
      "hash": "0xfb952ea05d6d16d9e452e157f456f87729dc65755997ab097e3568211b48639a",
      "transactionType": "CALL",
      "contractName": null,
      "contractAddress": "0x8aafd3ede9adb0ff97c7aebce82a919afb1c8764",
      "function": "sell(uint256)",
      "arguments": [
        "747759078420512786106"
      ],
      "transaction": {
        "from": "0xc77f7fed3b5cc8249adc428c5f44c9063b9734b4",
        "to": "0x8aafd3ede9adb0ff97c7aebce82a919afb1c8764",
        "gas": "0x17270",
        "value": "0x0",
        "input": "0xe4849b32000000000000000000000000000000000000000000000028893de806ac2046ba",
        "nonce": "0xeb0",
        "chainId": "0xaa36a7"
      },
      "additionalContracts": [],
      "isFixedGasLimit": false
    }
  ],
  "receipts": [
    {
      "status": "0x1",
      "cumulativeGasUsed": "0x129cdb1",
      "logs": [
        {
          "address": "0x8aafd3ede9adb0ff97c7aebce82a919afb1c8764",
          "topics": [
            "0xddf252ad1be2c89b69c2b068fc378daa952ba7f163c4a11628f55a4df523b3ef",
            "0x000000000000000000000000c77f7fed3b5cc8249adc428c5f44c9063b9734b4",
            "0x0000000000000000000000000000000000000000000000000000000000000000"
          ],
          "data": "0x000000000000000000000000000000000000000000000028363950aa7580462a",
          "blockHash": "0x6dcdbf110e3bd6206c4b821353da1b3fa4bb25ec80d9b9463c299fae0be1886e",
          "blockNumber": "0x731413",
          "transactionHash": "0xfb952ea05d6d16d9e452e157f456f87729dc65755997ab097e3568211b48639a",
          "transactionIndex": "0xa3",
          "logIndex": "0xf4",
          "removed": false
        },
        {
          "address": "0x8aafd3ede9adb0ff97c7aebce82a919afb1c8764",
          "topics": [
            "0xddf252ad1be2c89b69c2b068fc378daa952ba7f163c4a11628f55a4df523b3ef",
            "0x000000000000000000000000c77f7fed3b5cc8249adc428c5f44c9063b9734b4",
            "0x000000000000000000000000c77f7fed3b5cc8249adc428c5f44c9063b9734b4"
          ],
          "data": "0x0000000000000000000000000000000000000000000000005304975c36a00090",
          "blockHash": "0x6dcdbf110e3bd6206c4b821353da1b3fa4bb25ec80d9b9463c299fae0be1886e",
          "blockNumber": "0x731413",
          "transactionHash": "0xfb952ea05d6d16d9e452e157f456f87729dc65755997ab097e3568211b48639a",
          "transactionIndex": "0xa3",
          "logIndex": "0xf5",
          "removed": false
        },
        {
          "address": "0x8aafd3ede9adb0ff97c7aebce82a919afb1c8764",
          "topics": [
            "0x4afcb4a87cdbd9974efdb92ee48bc8d7cd0ae4bf217004db3d080cbaee652ca7"
          ],
          "data": "0x00000000000000000000000000000000000000000000000000000000678fed900000000000000000000000000000000000000000000000000004b8325a908d2d0000000000000000000000000000000000000000000000000dc834a24ff216b5",
          "blockHash": "0x6dcdbf110e3bd6206c4b821353da1b3fa4bb25ec80d9b9463c299fae0be1886e",
          "blockNumber": "0x731413",
          "transactionHash": "0xfb952ea05d6d16d9e452e157f456f87729dc65755997ab097e3568211b48639a",
          "transactionIndex": "0xa3",
          "logIndex": "0xf6",
          "removed": false
        }
      ],
      "logsBloom": "0x00000000000000000000000000000000000000000600000000000000000000000000000000000000000000000000000000000000000000004000000000000000000000000000004000000008000000000000000000000000000000000000000000000000020000000000000000000800020000000000000000000010000000000000000000000000000000000000000000000000000000000000010000000000000000000000000000000000000000004000000000000000000000000000000000000002000000800000000000000000000000000000080000000000000020000000000000000000000000000000000000000000000000000000000000000000",
      "type": "0x2",
      "transactionHash": "0xfb952ea05d6d16d9e452e157f456f87729dc65755997ab097e3568211b48639a",
      "transactionIndex": "0xa3",
      "blockHash": "0x6dcdbf110e3bd6206c4b821353da1b3fa4bb25ec80d9b9463c299fae0be1886e",
      "blockNumber": "0x731413",
      "gasUsed": "0xfd4b",
      "effectiveGasPrice": "0x842361cd",
      "from": "0xc77f7fed3b5cc8249adc428c5f44c9063b9734b4",
      "to": "0x8aafd3ede9adb0ff97c7aebce82a919afb1c8764",
      "contractAddress": null
    }
  ],
  "libraries": [],
  "pending": [],
  "returns": {},
  "timestamp": 1737485714,
  "chain": 11155111,
  "commit": "51a374b"
}