{
  "transactions": [
    {
      "hash": "0xd68fe9199a21edccb47ca23f2ce098232547422fd4ca1c3784e062d6fffde13d",
      "transactionType": "CALL",
      "contractName": null,
      "contractAddress": "0x5eb9cc76c3506942c1c0ead70e877dd5e4f00cb0",
      "function": "buy(address)",
      "arguments": [
        "0xC77f7fed3b5Cc8249aDc428c5F44C9063B9734b4"
      ],
      "transaction": {
        "from": "0xc77f7fed3b5cc8249adc428c5f44c9063b9734b4",
        "to": "0x5eb9cc76c3506942c1c0ead70e877dd5e4f00cb0",
        "gas": "0x1b30c",
        "value": "0xde0b6b3a7640000",
        "input": "0xf088d547000000000000000000000000c77f7fed3b5cc8249adc428c5f44c9063b9734b4",
        "nonce": "0x35a",
        "chainId": "0xaa36a7"
      },
      "additionalContracts": [],
      "isFixedGasLimit": false
    }
  ],
  "receipts": [
    {
      "status": "0x1",
      "cumulativeGasUsed": "0xc16264",
      "logs": [
        {
          "address": "0x5eb9cc76c3506942c1c0ead70e877dd5e4f00cb0",
          "topics": [
            "0xddf252ad1be2c89b69c2b068fc378daa952ba7f163c4a11628f55a4df523b3ef",
            "0x0000000000000000000000000000000000000000000000000000000000000000",
            "0x000000000000000000000000c77f7fed3b5cc8249adc428c5f44c9063b9734b4"
          ],
          "data": "0x000000000000000000000000000000000000000000000035755feadade99eb80",
          "blockHash": "0x03eb867354048448f3a17dbbefd8c78e4064903397a549df2142e4a075343a01",
          "blockNumber": "0x724f50",
          "transactionHash": "0xd68fe9199a21edccb47ca23f2ce098232547422fd4ca1c3784e062d6fffde13d",
          "transactionIndex": "0x66",
          "logIndex": "0x96",
          "removed": false
        },
        {
          "address": "0x5eb9cc76c3506942c1c0ead70e877dd5e4f00cb0",
          "topics": [
            "0xddf252ad1be2c89b69c2b068fc378daa952ba7f163c4a11628f55a4df523b3ef",
            "0x0000000000000000000000000000000000000000000000000000000000000000",
            "0x000000000000000000000000c77f7fed3b5cc8249adc428c5f44c9063b9734b4"
          ],
          "data": "0x00000000000000000000000000000000000000000000000029832905b41fdeb3",
          "blockHash": "0x03eb867354048448f3a17dbbefd8c78e4064903397a549df2142e4a075343a01",
          "blockNumber": "0x724f50",
          "transactionHash": "0xd68fe9199a21edccb47ca23f2ce098232547422fd4ca1c3784e062d6fffde13d",
          "transactionIndex": "0x66",
          "logIndex": "0x97",
          "removed": false
        },
        {
          "address": "0x5eb9cc76c3506942c1c0ead70e877dd5e4f00cb0",
          "topics": [
            "0x4afcb4a87cdbd9974efdb92ee48bc8d7cd0ae4bf217004db3d080cbaee652ca7"
          ],
          "data": "0x000000000000000000000000000000000000000000000000000000006786a9740000000000000000000000000000000000000000000000000003910f2c3621140000000000000000000000000000000000000000000000000de0b6b3a7640000",
          "blockHash": "0x03eb867354048448f3a17dbbefd8c78e4064903397a549df2142e4a075343a01",
          "blockNumber": "0x724f50",
          "transactionHash": "0xd68fe9199a21edccb47ca23f2ce098232547422fd4ca1c3784e062d6fffde13d",
          "transactionIndex": "0x66",
          "logIndex": "0x98",
          "removed": false
        }
      ],
      "logsBloom": "0x00000000000000000000000000000000000000000000000000000000000000000000000000000000000000000000000000000000000000004000000000000000000000000000000000000008000000000000000000000000000000000000000000000000020000000000000004000800020000000000000000000010000000000000000000000000000000000000000000000000000000000000010000000000000000000000000000000000000000004000000000000000000000000000020000000002000000800000008000000000000000000000080000000000000020000000000000000000000000000000000000000000000000000000000000000000",
      "type": "0x2",
      "transactionHash": "0xd68fe9199a21edccb47ca23f2ce098232547422fd4ca1c3784e062d6fffde13d",
      "transactionIndex": "0x66",
      "blockHash": "0x03eb867354048448f3a17dbbefd8c78e4064903397a549df2142e4a075343a01",
      "blockNumber": "0x724f50",
      "gasUsed": "0x13af8",
      "effectiveGasPrice": "0x552781e18",
      "from": "0xc77f7fed3b5cc8249adc428c5f44c9063b9734b4",
      "to": "0x5eb9cc76c3506942c1c0ead70e877dd5e4f00cb0",
      "contractAddress": null
    }
  ],
  "libraries": [],
  "pending": [],
  "returns": {},
  "timestamp": 1736878454,
  "chain": 11155111,
  "commit": "51a374b"
}