{
  "transactions": [
    {
      "hash": "0x669c9d1859adf4000b186607ef01a12a61d4c99461029f415548e86c791c913b",
      "transactionType": "CALL",
      "contractName": null,
      "contractAddress": "0x8aafd3ede9adb0ff97c7aebce82a919afb1c8764",
      "function": "sell(uint256)",
      "arguments": [
        "13786049213131079"
      ],
      "transaction": {
        "from": "0xc77f7fed3b5cc8249adc428c5f44c9063b9734b4",
        "to": "0x8aafd3ede9adb0ff97c7aebce82a919afb1c8764",
        "gas": "0x1724d",
        "value": "0x0",
        "input": "0xe4849b320000000000000000000000000000000000000000000000000030fa56b6346947",
        "nonce": "0x14cb",
        "chainId": "0xaa36a7"
      },
      "additionalContracts": [],
      "isFixedGasLimit": false
    }
  ],
  "receipts": [
    {
      "status": "0x1",
      "cumulativeGasUsed": "0x15584c6",
      "logs": [
        {
          "address": "0x8aafd3ede9adb0ff97c7aebce82a919afb1c8764",
          "topics": [
            "0xddf252ad1be2c89b69c2b068fc378daa952ba7f163c4a11628f55a4df523b3ef",
            "0x000000000000000000000000c77f7fed3b5cc8249adc428c5f44c9063b9734b4",
            "0x0000000000000000000000000000000000000000000000000000000000000000"
          ],
          "data": "0x0000000000000000000000000000000000000000000000000030960831acd2ef",
          "blockHash": "0x84eb45d2bbc4ff33d49a6585c2050098375d5f102375cb80415a007f7b8137c5",
          "blockNumber": "0x731c29",
          "transactionHash": "0x669c9d1859adf4000b186607ef01a12a61d4c99461029f415548e86c791c913b",
          "transactionIndex": "0x92",
          "logIndex": "0x12d",
          "removed": false
        },
        {
          "address": "0x8aafd3ede9adb0ff97c7aebce82a919afb1c8764",
          "topics": [
            "0xddf252ad1be2c89b69c2b068fc378daa952ba7f163c4a11628f55a4df523b3ef",
            "0x000000000000000000000000c77f7fed3b5cc8249adc428c5f44c9063b9734b4",
            "0x000000000000000000000000c77f7fed3b5cc8249adc428c5f44c9063b9734b4"
          ],
          "data": "0x0000000000000000000000000000000000000000000000000000644e84879658",
          "blockHash": "0x84eb45d2bbc4ff33d49a6585c2050098375d5f102375cb80415a007f7b8137c5",
          "blockNumber": "0x731c29",
          "transactionHash": "0x669c9d1859adf4000b186607ef01a12a61d4c99461029f415548e86c791c913b",
          "transactionIndex": "0x92",
          "logIndex": "0x12e",
          "removed": false
        },
        {
          "address": "0x8aafd3ede9adb0ff97c7aebce82a919afb1c8764",
          "topics": [
            "0x4afcb4a87cdbd9974efdb92ee48bc8d7cd0ae4bf217004db3d080cbaee652ca7"
          ],
          "data": "0x0000000000000000000000000000000000000000000000000000000067904ec800000000000000000000000000000000000000000000000000107b2a6c91564700000000000000000000000000000000000000000000000000003a2a6552d3a4",
          "blockHash": "0x84eb45d2bbc4ff33d49a6585c2050098375d5f102375cb80415a007f7b8137c5",
          "blockNumber": "0x731c29",
          "transactionHash": "0x669c9d1859adf4000b186607ef01a12a61d4c99461029f415548e86c791c913b",
          "transactionIndex": "0x92",
          "logIndex": "0x12f",
          "removed": false
        }
      ],
      "logsBloom": "0x00000000000000000000000000000000000000000600000000000000000000000000000000000000000000000000000000000000000000004000000000000000000000000000004000000008000000000000000000000000000000000000000000000000020000000000000000000800020000000000000000000010000000000000000000000000000000000000000000000000000000000000010000000000000000000000000000000000000000004000000000000000000000000000000000000002000000800000000000000000000000000000080000000000000020000000000000000000000000000000000000000000000000000000000000000000",
      "type": "0x2",
      "transactionHash": "0x669c9d1859adf4000b186607ef01a12a61d4c99461029f415548e86c791c913b",
      "transactionIndex": "0x92",
      "blockHash": "0x84eb45d2bbc4ff33d49a6585c2050098375d5f102375cb80415a007f7b8137c5",
      "blockNumber": "0x731c29",
      "gasUsed": "0xfd33",
      "effectiveGasPrice": "0x11169a2d2",
      "from": "0xc77f7fed3b5cc8249adc428c5f44c9063b9734b4",
      "to": "0x8aafd3ede9adb0ff97c7aebce82a919afb1c8764",
      "contractAddress": null
    }
  ],
  "libraries": [],
  "pending": [],
  "returns": {},
  "timestamp": 1737510602,
  "chain": 11155111,
  "commit": "1d2fb70"
}