{
  "transactions": [
    {
      "hash": "0xd7bb976ed273d8ddf30cc2ca7a64b3891d438baa64f90c10d94239896ebb0e8e",
      "transactionType": "CALL",
      "contractName": null,
      "contractAddress": "0x3b71253dcecbaf453f48043c75f311253fd0ad31",
      "function": "sell(uint256)",
      "arguments": [
        "992837693485832601298483"
      ],
      "transaction": {
        "from": "0xc77f7fed3b5cc8249adc428c5f44c9063b9734b4",
        "to": "0x3b71253dcecbaf453f48043c75f311253fd0ad31",
        "gas": "0x15b8c",
        "value": "0x0",
        "input": "0xe4849b3200000000000000000000000000000000000000000000d23dd6d679d1baeb6633",
        "nonce": "0x4c9",
        "chainId": "0xaa36a7"
      },
      "additionalContracts": [],
      "isFixedGasLimit": false
    }
  ],
  "receipts": [
    {
      "status": "0x1",
      "cumulativeGasUsed": "0x10988a0",
      "logs": [
        {
          "address": "0x3b71253dcecbaf453f48043c75f311253fd0ad31",
          "topics": [
            "0xddf252ad1be2c89b69c2b068fc378daa952ba7f163c4a11628f55a4df523b3ef",
            "0x000000000000000000000000c77f7fed3b5cc8249adc428c5f44c9063b9734b4",
            "0x0000000000000000000000000000000000000000000000000000000000000000"
          ],
          "data": "0x00000000000000000000000000000000000000000000d23dd6d679d1baeb6633",
          "blockHash": "0xdceaefee46f28ad3f4af7fca808ddb700b6c98e38bd1536ce35750d6810d8a91",
          "blockNumber": "0x72511a",
          "transactionHash": "0xd7bb976ed273d8ddf30cc2ca7a64b3891d438baa64f90c10d94239896ebb0e8e",
          "transactionIndex": "0x5c",
          "logIndex": "0xaa",
          "removed": false
        },
        {
          "address": "0x3b71253dcecbaf453f48043c75f311253fd0ad31",
          "topics": [
            "0x4afcb4a87cdbd9974efdb92ee48bc8d7cd0ae4bf217004db3d080cbaee652ca7"
          ],
          "data": "0x000000000000000000000000000000000000000000000000000000006786bf1c000000000000000000000000000000000000000000000000000000e8f1bd2dc40000000000000000000000000000000000000000000000000dc8428efaabb797",
          "blockHash": "0xdceaefee46f28ad3f4af7fca808ddb700b6c98e38bd1536ce35750d6810d8a91",
          "blockNumber": "0x72511a",
          "transactionHash": "0xd7bb976ed273d8ddf30cc2ca7a64b3891d438baa64f90c10d94239896ebb0e8e",
          "transactionIndex": "0x5c",
          "logIndex": "0xab",
          "removed": false
        }
      ],
      "logsBloom": "0x00000000000000000000000000000000000000000000000000000000000000000000000000000000000000000000000000000000000000004000020000000000000000000000000000000008000000000000000000000000000000000000000000000000020000000000000000000800020000000000000000000010002000000000000000000000000000000000000000000000000000000000010000000000000000000000000000000000000000004000000000000000000000000000000000000002000000800000000000000000000000000000080000000000000020000000000000000000008000000000000000000000000000000000000000000000",
      "type": "0x2",
      "transactionHash": "0xd7bb976ed273d8ddf30cc2ca7a64b3891d438baa64f90c10d94239896ebb0e8e",
      "transactionIndex": "0x5c",
      "blockHash": "0xdceaefee46f28ad3f4af7fca808ddb700b6c98e38bd1536ce35750d6810d8a91",
      "blockNumber": "0x72511a",
      "gasUsed": "0xfb9f",
      "effectiveGasPrice": "0x28fbc3fa0",
      "from": "0xc77f7fed3b5cc8249adc428c5f44c9063b9734b4",
      "to": "0x3b71253dcecbaf453f48043c75f311253fd0ad31",
      "contractAddress": null
    }
  ],
  "libraries": [],
  "pending": [],
  "returns": {},
  "timestamp": 1736883998,
  "chain": 11155111,
  "commit": "51a374b"
}