{
  "transactions": [
    {
      "hash": "0x8e03ab5b3aadfb6750b0c8f7dd8e3e932b319ec213e5455935fafdb73f2a26ac",
      "transactionType": "CALL",
      "contractName": null,
      "contractAddress": "0xbf4a322f1496e5c3d34a9bcdb4c60567b38c7de2",
      "function": "buy(address)",
      "arguments": [
        "0xC77f7fed3b5Cc8249aDc428c5F44C9063B9734b4"
      ],
      "transaction": {
        "from": "0xc77f7fed3b5cc8249adc428c5f44c9063b9734b4",
        "to": "0xbf4a322f1496e5c3d34a9bcdb4c60567b38c7de2",
        "gas": "0x1b309",
        "value": "0xde0b6b3a7640000",
        "input": "0xf088d547000000000000000000000000c77f7fed3b5cc8249adc428c5f44c9063b9734b4",
        "nonce": "0xce6",
        "chainId": "0xaa36a7"
      },
      "additionalContracts": [],
      "isFixedGasLimit": false
    }
  ],
  "receipts": [
    {
      "status": "0x1",
      "cumulativeGasUsed": "0xa4263f",
      "logs": [
        {
          "address": "0xbf4a322f1496e5c3d34a9bcdb4c60567b38c7de2",
          "topics": [
            "0xddf252ad1be2c89b69c2b068fc378daa952ba7f163c4a11628f55a4df523b3ef",
            "0x0000000000000000000000000000000000000000000000000000000000000000",
            "0x000000000000000000000000c77f7fed3b5cc8249adc428c5f44c9063b9734b4"
          ],
          "data": "0x000000000000000000000000000000000000000000000034d0bf69f5d92b1e42",
          "blockHash": "0x93741c44c6b5d44253df607b1fcc7fd6fbaae8f24b065e92848a75333284baee",
          "blockNumber": "0x725d37",
          "transactionHash": "0x8e03ab5b3aadfb6750b0c8f7dd8e3e932b319ec213e5455935fafdb73f2a26ac",
          "transactionIndex": "0x7e",
          "logIndex": "0xbc",
          "removed": false
        },
        {
          "address": "0xbf4a322f1496e5c3d34a9bcdb4c60567b38c7de2",
          "topics": [
            "0xddf252ad1be2c89b69c2b068fc378daa952ba7f163c4a11628f55a4df523b3ef",
            "0x0000000000000000000000000000000000000000000000000000000000000000",
            "0x000000000000000000000000c77f7fed3b5cc8249adc428c5f44c9063b9734b4"
          ],
          "data": "0x00000000000000000000000000000000000000000000000029035260b5b726f1",
          "blockHash": "0x93741c44c6b5d44253df607b1fcc7fd6fbaae8f24b065e92848a75333284baee",
          "blockNumber": "0x725d37",
          "transactionHash": "0x8e03ab5b3aadfb6750b0c8f7dd8e3e932b319ec213e5455935fafdb73f2a26ac",
          "transactionIndex": "0x7e",
          "logIndex": "0xbd",
          "removed": false
        },
        {
          "address": "0xbf4a322f1496e5c3d34a9bcdb4c60567b38c7de2",
          "topics": [
            "0x4afcb4a87cdbd9974efdb92ee48bc8d7cd0ae4bf217004db3d080cbaee652ca7"
          ],
          "data": "0x000000000000000000000000000000000000000000000000000000006787510800000000000000000000000000000000000000000000000000039c2f807206160000000000000000000000000000000000000000000000000de0b6b3a7640000",
          "blockHash": "0x93741c44c6b5d44253df607b1fcc7fd6fbaae8f24b065e92848a75333284baee",
          "blockNumber": "0x725d37",
          "transactionHash": "0x8e03ab5b3aadfb6750b0c8f7dd8e3e932b319ec213e5455935fafdb73f2a26ac",
          "transactionIndex": "0x7e",
          "logIndex": "0xbe",
          "removed": false
        }
      ],
      "logsBloom": "0x00000000000000000000000000000000000000000000000000000000000000000000000000000000000000000000000000000000000000004000000000000000000000000000000000000008000000000000001000000000000000000000000000000000020000000000000000000800020000000000000000000010000000000000000000000000000000000000000000000000000008000000010000000000000000000000000000000000000000004000000000000000000000000000000000000002000000800000000000001000000000000000080000000000000020000000000000000000000000000000000000000000000000000000000000000000",
      "type": "0x2",
      "transactionHash": "0x8e03ab5b3aadfb6750b0c8f7dd8e3e932b319ec213e5455935fafdb73f2a26ac",
      "transactionIndex": "0x7e",
      "blockHash": "0x93741c44c6b5d44253df607b1fcc7fd6fbaae8f24b065e92848a75333284baee",
      "blockNumber": "0x725d37",
      "gasUsed": "0x13af6",
      "effectiveGasPrice": "0x4c1636340",
      "from": "0xc77f7fed3b5cc8249adc428c5f44c9063b9734b4",
      "to": "0xbf4a322f1496e5c3d34a9bcdb4c60567b38c7de2",
      "contractAddress": null
    }
  ],
  "libraries": [],
  "pending": [],
  "returns": {},
  "timestamp": 1736921353,
  "chain": 11155111,
  "commit": "51a374b"
}