{
  "transactions": [
    {
      "hash": "0x498011ff5d8952eaa5ba79c0da64860f1dd0a7f2f1e4b0ae140cda4e0485b59d",
      "transactionType": "CALL",
      "contractName": null,
      "contractAddress": "0xbf4a322f1496e5c3d34a9bcdb4c60567b38c7de2",
      "function": "buy(address)",
      "arguments": [
        "0xC77f7fed3b5Cc8249aDc428c5F44C9063B9734b4"
      ],
      "transaction": {
        "from": "0xc77f7fed3b5cc8249adc428c5f44c9063b9734b4",
        "to": "0xbf4a322f1496e5c3d34a9bcdb4c60567b38c7de2",
        "gas": "0x1b309",
        "value": "0xde0b6b3a7640000",
        "input": "0xf088d547000000000000000000000000c77f7fed3b5cc8249adc428c5f44c9063b9734b4",
        "nonce": "0xd38",
        "chainId": "0xaa36a7"
      },
      "additionalContracts": [],
      "isFixedGasLimit": false
    }
  ],
  "receipts": [
    {
      "status": "0x1",
      "cumulativeGasUsed": "0x11dc64c",
      "logs": [
        {
          "address": "0xbf4a322f1496e5c3d34a9bcdb4c60567b38c7de2",
          "topics": [
            "0xddf252ad1be2c89b69c2b068fc378daa952ba7f163c4a11628f55a4df523b3ef",
            "0x0000000000000000000000000000000000000000000000000000000000000000",
            "0x000000000000000000000000c77f7fed3b5cc8249adc428c5f44c9063b9734b4"
          ],
          "data": "0x000000000000000000000000000000000000000000000034c19e25fedf3f18c5",
          "blockHash": "0x116c36380b3735a1665cdaa62d8bccfb3f7add1b8b937b424fa325647d163090",
          "blockNumber": "0x725d9c",
          "transactionHash": "0x498011ff5d8952eaa5ba79c0da64860f1dd0a7f2f1e4b0ae140cda4e0485b59d",
          "transactionIndex": "0x82",
          "logIndex": "0xa7",
          "removed": false
        },
        {
          "address": "0xbf4a322f1496e5c3d34a9bcdb4c60567b38c7de2",
          "topics": [
            "0xddf252ad1be2c89b69c2b068fc378daa952ba7f163c4a11628f55a4df523b3ef",
            "0x0000000000000000000000000000000000000000000000000000000000000000",
            "0x000000000000000000000000c77f7fed3b5cc8249adc428c5f44c9063b9734b4"
          ],
          "data": "0x00000000000000000000000000000000000000000000000028f792a7ae6d3b78",
          "blockHash": "0x116c36380b3735a1665cdaa62d8bccfb3f7add1b8b937b424fa325647d163090",
          "blockNumber": "0x725d9c",
          "transactionHash": "0x498011ff5d8952eaa5ba79c0da64860f1dd0a7f2f1e4b0ae140cda4e0485b59d",
          "transactionIndex": "0x82",
          "logIndex": "0xa8",
          "removed": false
        },
        {
          "address": "0xbf4a322f1496e5c3d34a9bcdb4c60567b38c7de2",
          "topics": [
            "0x4afcb4a87cdbd9974efdb92ee48bc8d7cd0ae4bf217004db3d080cbaee652ca7"
          ],
          "data": "0x00000000000000000000000000000000000000000000000000000000678755c400000000000000000000000000000000000000000000000000039d388bab4c680000000000000000000000000000000000000000000000000de0b6b3a7640000",
          "blockHash": "0x116c36380b3735a1665cdaa62d8bccfb3f7add1b8b937b424fa325647d163090",
          "blockNumber": "0x725d9c",
          "transactionHash": "0x498011ff5d8952eaa5ba79c0da64860f1dd0a7f2f1e4b0ae140cda4e0485b59d",
          "transactionIndex": "0x82",
          "logIndex": "0xa9",
          "removed": false
        }
      ],
      "logsBloom": "0x00000000000000000000000000000000000000000000000000000000000000000000000000000000000000000000000000000000000000004000000000000000000000000000000000000008000000000000001000000000000000000000000000000000020000000000000000000800020000000000000000000010000000000000000000000000000000000000000000000000000008000000010000000000000000000000000000000000000000004000000000000000000000000000000000000002000000800000000000001000000000000000080000000000000020000000000000000000000000000000000000000000000000000000000000000000",
      "type": "0x2",
      "transactionHash": "0x498011ff5d8952eaa5ba79c0da64860f1dd0a7f2f1e4b0ae140cda4e0485b59d",
      "transactionIndex": "0x82",
      "blockHash": "0x116c36380b3735a1665cdaa62d8bccfb3f7add1b8b937b424fa325647d163090",
      "blockNumber": "0x725d9c",
      "gasUsed": "0x13af6",
      "effectiveGasPrice": "0x36f59e1b0",
      "from": "0xc77f7fed3b5cc8249adc428c5f44c9063b9734b4",
      "to": "0xbf4a322f1496e5c3d34a9bcdb4c60567b38c7de2",
      "contractAddress": null
    }
  ],
  "libraries": [],
  "pending": [],
  "returns": {},
  "timestamp": 1736922565,
  "chain": 11155111,
  "commit": "51a374b"
}