{
  "transactions": [
    {
      "hash": "0x40e365e618795993fddbc50137a14cf9ee2a1d810af5bb02e23f244fd7e66cc3",
      "transactionType": "CALL",
      "contractName": null,
      "contractAddress": "0x270e88f8683660553e8ba4eb2ad7c91a1710d769",
      "function": "sell(uint256)",
      "arguments": [
        "725649284095719133398"
      ],
      "transaction": {
        "from": "0xc77f7fed3b5cc8249adc428c5f44c9063b9734b4",
        "to": "0x270e88f8683660553e8ba4eb2ad7c91a1710d769",
        "gas": "0x16fec",
        "value": "0x0",
        "input": "0xe4849b320000000000000000000000000000000000000000000000275668233af9da50d6",
        "nonce": "0x7e0",
        "chainId": "0xaa36a7"
      },
      "additionalContracts": [],
      "isFixedGasLimit": false
    }
  ],
  "receipts": [
    {
      "status": "0x1",
      "cumulativeGasUsed": "0x865c54",
      "logs": [
        {
          "address": "0x270e88f8683660553e8ba4eb2ad7c91a1710d769",
          "topics": [
            "0xddf252ad1be2c89b69c2b068fc378daa952ba7f163c4a11628f55a4df523b3ef",
            "0x000000000000000000000000c77f7fed3b5cc8249adc428c5f44c9063b9734b4",
            "0x0000000000000000000000000000000000000000000000000000000000000000"
          ],
          "data": "0x0000000000000000000000000000000000000000000000275668233af9da50d6",
          "blockHash": "0x594ab3b15e6759375a8d4dda55c2bed02586f9918286a7b87ed678bccac960e5",
          "blockNumber": "0x72551a",
          "transactionHash": "0x40e365e618795993fddbc50137a14cf9ee2a1d810af5bb02e23f244fd7e66cc3",
          "transactionIndex": "0x47",
          "logIndex": "0x87",
          "removed": false
        },
        {
          "address": "0x270e88f8683660553e8ba4eb2ad7c91a1710d769",
          "topics": [
            "0x4afcb4a87cdbd9974efdb92ee48bc8d7cd0ae4bf217004db3d080cbaee652ca7"
          ],
          "data": "0x000000000000000000000000000000000000000000000000000000006786ef400000000000000000000000000000000000000000000000000004dce051cff3f80000000000000000000000000000000000000000000000000dc82703abd2d7f2",
          "blockHash": "0x594ab3b15e6759375a8d4dda55c2bed02586f9918286a7b87ed678bccac960e5",
          "blockNumber": "0x72551a",
          "transactionHash": "0x40e365e618795993fddbc50137a14cf9ee2a1d810af5bb02e23f244fd7e66cc3",
          "transactionIndex": "0x47",
          "logIndex": "0x88",
          "removed": false
        }
      ],
      "logsBloom": "0x00000000000000000000000000000000000000000000000000000000000000000000000000000000000000000000000020000000000000004000000000000000000000000000000000000008000000000000000000000000000000000000000000000000020000000000000000000800020000000000000000000010000000000000000000010000000000000000000000000000000000000000010000000000000000000000000000000000000000004000000000000000000000000000000000000002000000800000000000000000000000000000080000008000000020000000000000000000000000000000000000000000000000000000000000000000",
      "type": "0x2",
      "transactionHash": "0x40e365e618795993fddbc50137a14cf9ee2a1d810af5bb02e23f244fd7e66cc3",
      "transactionIndex": "0x47",
      "blockHash": "0x594ab3b15e6759375a8d4dda55c2bed02586f9918286a7b87ed678bccac960e5",
      "blockNumber": "0x72551a",
      "gasUsed": "0xfb93",
      "effectiveGasPrice": "0xabf356ee",
      "from": "0xc77f7fed3b5cc8249adc428c5f44c9063b9734b4",
      "to": "0x270e88f8683660553e8ba4eb2ad7c91a1710d769",
      "contractAddress": null
    }
  ],
  "libraries": [],
  "pending": [],
  "returns": {},
  "timestamp": 1736896322,
  "chain": 11155111,
  "commit": "51a374b"
}