{
  "transactions": [
    {
      "hash": "0x7bc9e4e3827ee6b575a7e65528a02e45fde6496cb05fbb3a22d96d401430667f",
      "transactionType": "CALL",
      "contractName": null,
      "contractAddress": "0x8aafd3ede9adb0ff97c7aebce82a919afb1c8764",
      "function": "sell(uint256)",
      "arguments": [
        "692701960608155649337"
      ],
      "transaction": {
        "from": "0xc77f7fed3b5cc8249adc428c5f44c9063b9734b4",
        "to": "0x8aafd3ede9adb0ff97c7aebce82a919afb1c8764",
        "gas": "0x17270",
        "value": "0x0",
        "input": "0xe4849b320000000000000000000000000000000000000000000000258d2bbb14b1bf4539",
        "nonce": "0x1159",
        "chainId": "0xaa36a7"
      },
      "additionalContracts": [],
      "isFixedGasLimit": false
    }
  ],
  "receipts": [
    {
      "status": "0x1",
      "cumulativeGasUsed": "0xabe2a5",
      "logs": [
        {
          "address": "0x8aafd3ede9adb0ff97c7aebce82a919afb1c8764",
          "topics": [
            "0xddf252ad1be2c89b69c2b068fc378daa952ba7f163c4a11628f55a4df523b3ef",
            "0x000000000000000000000000c77f7fed3b5cc8249adc428c5f44c9063b9734b4",
            "0x0000000000000000000000000000000000000000000000000000000000000000"
          ],
          "data": "0x0000000000000000000000000000000000000000000000254043f4f9e79f052f",
          "blockHash": "0xa2137510672724aaf546ee628b1cc5bc407c32ce5fde06b325ed75d96dcbc4fd",
          "blockNumber": "0x731815",
          "transactionHash": "0x7bc9e4e3827ee6b575a7e65528a02e45fde6496cb05fbb3a22d96d401430667f",
          "transactionIndex": "0x81",
          "logIndex": "0xad",
          "removed": false
        },
        {
          "address": "0x8aafd3ede9adb0ff97c7aebce82a919afb1c8764",
          "topics": [
            "0xddf252ad1be2c89b69c2b068fc378daa952ba7f163c4a11628f55a4df523b3ef",
            "0x000000000000000000000000c77f7fed3b5cc8249adc428c5f44c9063b9734b4",
            "0x000000000000000000000000c77f7fed3b5cc8249adc428c5f44c9063b9734b4"
          ],
          "data": "0x0000000000000000000000000000000000000000000000004ce7c61aca20400a",
          "blockHash": "0xa2137510672724aaf546ee628b1cc5bc407c32ce5fde06b325ed75d96dcbc4fd",
          "blockNumber": "0x731815",
          "transactionHash": "0x7bc9e4e3827ee6b575a7e65528a02e45fde6496cb05fbb3a22d96d401430667f",
          "transactionIndex": "0x81",
          "logIndex": "0xae",
          "removed": false
        },
        {
          "address": "0x8aafd3ede9adb0ff97c7aebce82a919afb1c8764",
          "topics": [
            "0x4afcb4a87cdbd9974efdb92ee48bc8d7cd0ae4bf217004db3d080cbaee652ca7"
          ],
          "data": "0x0000000000000000000000000000000000000000000000000000000067901dc0000000000000000000000000000000000000000000000000000519397088b3b80000000000000000000000000000000000000000000000000dc8f6cbc7cb0d72",
          "blockHash": "0xa2137510672724aaf546ee628b1cc5bc407c32ce5fde06b325ed75d96dcbc4fd",
          "blockNumber": "0x731815",
          "transactionHash": "0x7bc9e4e3827ee6b575a7e65528a02e45fde6496cb05fbb3a22d96d401430667f",
          "transactionIndex": "0x81",
          "logIndex": "0xaf",
          "removed": false
        }
      ],
      "logsBloom": "0x00000000000000000000000000000000000000000600000000000000000000000000000000000000000000000000000000000000000000004000000000000000000000000000004000000008000000000000000000000000000000000000000000000000020000000000000000000800020000000000000000000010000000000000000000000000000000000000000000000000000000000000010000000000000000000000000000000000000000004000000000000000000000000000000000000002000000800000000000000000000000000000080000000000000020000000000000000000000000000000000000000000000000000000000000000000",
      "type": "0x2",
      "transactionHash": "0x7bc9e4e3827ee6b575a7e65528a02e45fde6496cb05fbb3a22d96d401430667f",
      "transactionIndex": "0x81",
      "blockHash": "0xa2137510672724aaf546ee628b1cc5bc407c32ce5fde06b325ed75d96dcbc4fd",
      "blockNumber": "0x731815",
      "gasUsed": "0xfd4b",
      "effectiveGasPrice": "0x3ccee7a3",
      "from": "0xc77f7fed3b5cc8249adc428c5f44c9063b9734b4",
      "to": "0x8aafd3ede9adb0ff97c7aebce82a919afb1c8764",
      "contractAddress": null
    }
  ],
  "libraries": [],
  "pending": [],
  "returns": {},
  "timestamp": 1737498050,
  "chain": 11155111,
  "commit": "1d2fb70"
}