{
  "transactions": [
    {
      "hash": "0xcdd2036864c923f758085fe8d9269b6c0a834e70a3c28a0307ef63315441dd85",
      "transactionType": "CALL",
      "contractName": null,
      "contractAddress": "0xbf4a322f1496e5c3d34a9bcdb4c60567b38c7de2",
      "function": "sell(uint256)",
      "arguments": [
        "976081031081018869534"
      ],
      "transaction": {
        "from": "0xc77f7fed3b5cc8249adc428c5f44c9063b9734b4",
        "to": "0xbf4a322f1496e5c3d34a9bcdb4c60567b38c7de2",
        "gas": "0x16fea",
        "value": "0x0",
        "input": "0xe4849b32000000000000000000000000000000000000000000000034e9d86e44ed25471e",
        "nonce": "0xd3d",
        "chainId": "0xaa36a7"
      },
      "additionalContracts": [],
      "isFixedGasLimit": false
    }
  ],
  "receipts": [
    {
      "status": "0x1",
      "cumulativeGasUsed": "0x100788e",
      "logs": [
        {
          "address": "0xbf4a322f1496e5c3d34a9bcdb4c60567b38c7de2",
          "topics": [
            "0xddf252ad1be2c89b69c2b068fc378daa952ba7f163c4a11628f55a4df523b3ef",
            "0x000000000000000000000000c77f7fed3b5cc8249adc428c5f44c9063b9734b4",
            "0x0000000000000000000000000000000000000000000000000000000000000000"
          ],
          "data": "0x000000000000000000000000000000000000000000000034e9d86e44ed25471e",
          "blockHash": "0x50539f46735a5fe7215fa32a0ec32e0dc27f0344ebf76345576c563425c2f122",
          "blockNumber": "0x725da1",
          "transactionHash": "0xcdd2036864c923f758085fe8d9269b6c0a834e70a3c28a0307ef63315441dd85",
          "transactionIndex": "0x80",
          "logIndex": "0xac",
          "removed": false
        },
        {
          "address": "0xbf4a322f1496e5c3d34a9bcdb4c60567b38c7de2",
          "topics": [
            "0x4afcb4a87cdbd9974efdb92ee48bc8d7cd0ae4bf217004db3d080cbaee652ca7"
          ],
          "data": "0x000000000000000000000000000000000000000000000000000000006787560000000000000000000000000000000000000000000000000000039d499c59162a0000000000000000000000000000000000000000000000000dc7e3d8f45cd7c9",
          "blockHash": "0x50539f46735a5fe7215fa32a0ec32e0dc27f0344ebf76345576c563425c2f122",
          "blockNumber": "0x725da1",
          "transactionHash": "0xcdd2036864c923f758085fe8d9269b6c0a834e70a3c28a0307ef63315441dd85",
          "transactionIndex": "0x80",
          "logIndex": "0xad",
          "removed": false
        }
      ],
      "logsBloom": "0x00000000000000000000000000000000000000000000000000000000000000000000000000000000000000000000000000000000000000004000000000000000000000000000000000000008000000000000001000000000000000000000000000000000020000000000000000000800020000000000000000000010000000000000000000000000000000000000000000000000000008000000010000000000000000000000000000000000000000004000000000000000000000000000000000000002000000800000000000001000000000000000080000000000000020000000000000000000000000000000000000000000000000000000000000000000",
      "type": "0x2",
      "transactionHash": "0xcdd2036864c923f758085fe8d9269b6c0a834e70a3c28a0307ef63315441dd85",
      "transactionIndex": "0x80",
      "blockHash": "0x50539f46735a5fe7215fa32a0ec32e0dc27f0344ebf76345576c563425c2f122",
      "blockNumber": "0x725da1",
      "gasUsed": "0xfb91",
      "effectiveGasPrice": "0x3ebf719b7",
      "from": "0xc77f7fed3b5cc8249adc428c5f44c9063b9734b4",
      "to": "0xbf4a322f1496e5c3d34a9bcdb4c60567b38c7de2",
      "contractAddress": null
    }
  ],
  "libraries": [],
  "pending": [],
  "returns": {},
  "timestamp": 1736922626,
  "chain": 11155111,
  "commit": "51a374b"
}