{
  "transactions": [
    {
      "hash": "0xcbdb06ed959ee1cb317f941713aa6463670a0d22eb4e8d1e7c345a35a5eb96d3",
      "transactionType": "CALL",
      "contractName": null,
      "contractAddress": "0x8aafd3ede9adb0ff97c7aebce82a919afb1c8764",
      "function": "sell(uint256)",
      "arguments": [
        "3071277905851"
      ],
      "transaction": {
        "from": "0xc77f7fed3b5cc8249adc428c5f44c9063b9734b4",
        "to": "0x8aafd3ede9adb0ff97c7aebce82a919afb1c8764",
        "gas": "0x15daa",
        "value": "0x0",
        "input": "0xe4849b32000000000000000000000000000000000000000000000000000002cb166db7bb",
        "nonce": "0xe64",
        "chainId": "0xaa36a7"
      },
      "additionalContracts": [],
      "isFixedGasLimit": false
    }
  ],
  "receipts": [
    {
      "status": "0x1",
      "cumulativeGasUsed": "0xe6ddda",
      "logs": [
        {
          "address": "0x8aafd3ede9adb0ff97c7aebce82a919afb1c8764",
          "topics": [
            "0xddf252ad1be2c89b69c2b068fc378daa952ba7f163c4a11628f55a4df523b3ef",
            "0x000000000000000000000000c77f7fed3b5cc8249adc428c5f44c9063b9734b4",
            "0x0000000000000000000000000000000000000000000000000000000000000000"
          ],
          "data": "0x000000000000000000000000000000000000000000000000000002c55deddd2d",
          "blockHash": "0x58e49d0294466545af9f18546b9b9646544bb45ec138fed88b14e45a69d5b5fe",
          "blockNumber": "0x7313b8",
          "transactionHash": "0xcbdb06ed959ee1cb317f941713aa6463670a0d22eb4e8d1e7c345a35a5eb96d3",
          "transactionIndex": "0xb6",
          "logIndex": "0xc1",
          "removed": false
        },
        {
          "address": "0x8aafd3ede9adb0ff97c7aebce82a919afb1c8764",
          "topics": [
            "0xddf252ad1be2c89b69c2b068fc378daa952ba7f163c4a11628f55a4df523b3ef",
            "0x000000000000000000000000c77f7fed3b5cc8249adc428c5f44c9063b9734b4",
            "0x000000000000000000000000c77f7fed3b5cc8249adc428c5f44c9063b9734b4"
          ],
          "data": "0x00000000000000000000000000000000000000000000000000000005b87fda8e",
          "blockHash": "0x58e49d0294466545af9f18546b9b9646544bb45ec138fed88b14e45a69d5b5fe",
          "blockNumber": "0x7313b8",
          "transactionHash": "0xcbdb06ed959ee1cb317f941713aa6463670a0d22eb4e8d1e7c345a35a5eb96d3",
          "transactionIndex": "0xb6",
          "logIndex": "0xc2",
          "removed": false
        },
        {
          "address": "0x8aafd3ede9adb0ff97c7aebce82a919afb1c8764",
          "topics": [
            "0x4afcb4a87cdbd9974efdb92ee48bc8d7cd0ae4bf217004db3d080cbaee652ca7"
          ],
          "data": "0x00000000000000000000000000000000000000000000000000000000678fe9340000000000000000000000000000000000000000000000000004b4df99eb91ed00000000000000000000000000000000000000000000000000000000f2841b8f",
          "blockHash": "0x58e49d0294466545af9f18546b9b9646544bb45ec138fed88b14e45a69d5b5fe",
          "blockNumber": "0x7313b8",
          "transactionHash": "0xcbdb06ed959ee1cb317f941713aa6463670a0d22eb4e8d1e7c345a35a5eb96d3",
          "transactionIndex": "0xb6",
          "logIndex": "0xc3",
          "removed": false
        }
      ],
      "logsBloom": "0x00000000000000000000000000000000000000000600000000000000000000000000000000000000000000000000000000000000000000004000000000000000000000000000004000000008000000000000000000000000000000000000000000000000020000000000000000000800020000000000000000000010000000000000000000000000000000000000000000000000000000000000010000000000000000000000000000000000000000004000000000000000000000000000000000000002000000800000000000000000000000000000080000000000000020000000000000000000000000000000000000000000000000000000000000000000",
      "type": "0x2",
      "transactionHash": "0xcbdb06ed959ee1cb317f941713aa6463670a0d22eb4e8d1e7c345a35a5eb96d3",
      "transactionIndex": "0xb6",
      "blockHash": "0x58e49d0294466545af9f18546b9b9646544bb45ec138fed88b14e45a69d5b5fe",
      "blockNumber": "0x7313b8",
      "gasUsed": "0xfd27",
      "effectiveGasPrice": "0x73fc855e",
      "from": "0xc77f7fed3b5cc8249adc428c5f44c9063b9734b4",
      "to": "0x8aafd3ede9adb0ff97c7aebce82a919afb1c8764",
      "contractAddress": null
    }
  ],
  "libraries": [],
  "pending": [],
  "returns": {},
  "timestamp": 1737484598,
  "chain": 11155111,
  "commit": "51a374b"
}