{
  "transactions": [
    {
      "hash": "0x0ee8ebce72c8c6dfcf0b94d12e38d93a21e94b6e3a94df71f61a340fc5e1a17b",
      "transactionType": "CALL",
      "contractName": null,
      "contractAddress": "0xd7bc75898e513accccf720a874d44dab5a4b6223",
      "function": "sell(uint256)",
      "arguments": [
        "9929992614231215310"
      ],
      "transaction": {
        "from": "0xc77f7fed3b5cc8249adc428c5f44c9063b9734b4",
        "to": "0xd7bc75898e513accccf720a874d44dab5a4b6223",
        "gas": "0x15b6b",
        "value": "0x0",
        "input": "0xe4849b3200000000000000000000000000000000000000000000000089ce6babd9810cce",
        "nonce": "0xb1",
        "chainId": "0xaa36a7"
      },
      "additionalContracts": [],
      "isFixedGasLimit": false
    }
  ],
  "receipts": [
    {
      "status": "0x1",
      "cumulativeGasUsed": "0x457b88",
      "logs": [
        {
          "address": "0xd7bc75898e513accccf720a874d44dab5a4b6223",
          "topics": [
            "0xddf252ad1be2c89b69c2b068fc378daa952ba7f163c4a11628f55a4df523b3ef",
            "0x000000000000000000000000c77f7fed3b5cc8249adc428c5f44c9063b9734b4",
            "0x0000000000000000000000000000000000000000000000000000000000000000"
          ],
          "data": "0x00000000000000000000000000000000000000000000000089ce6babd9810cce",
          "blockHash": "0x37e8cd4b90b1d0d789ce59f3a027a9ad4e6059e60de758023bf5c7318c769f0b",
          "blockNumber": "0x723927",
          "transactionHash": "0x0ee8ebce72c8c6dfcf0b94d12e38d93a21e94b6e3a94df71f61a340fc5e1a17b",
          "transactionIndex": "0x25",
          "logIndex": "0x2d",
          "removed": false
        },
        {
          "address": "0xd7bc75898e513accccf720a874d44dab5a4b6223",
          "topics": [
            "0x4afcb4a87cdbd9974efdb92ee48bc8d7cd0ae4bf217004db3d080cbaee652ca7"
          ],
          "data": "0x0000000000000000000000000000000000000000000000000000000067859f1c00000000000000000000000000000000000000000000000000038d7f858e536f0000000000000000000000000000000000000000000000000023474f493d2799",
          "blockHash": "0x37e8cd4b90b1d0d789ce59f3a027a9ad4e6059e60de758023bf5c7318c769f0b",
          "blockNumber": "0x723927",
          "transactionHash": "0x0ee8ebce72c8c6dfcf0b94d12e38d93a21e94b6e3a94df71f61a340fc5e1a17b",
          "transactionIndex": "0x25",
          "logIndex": "0x2e",
          "removed": false
        }
      ],
      "logsBloom": "0x00000000000000000000000000000000000000000000000000000000000000000000000000000000000000000000000000000000000000004000000000000000000000000000000000000008000000000000000000000000000000000000000000000000020000000000000000000800020000000000000000000010000000000000000000000000000000000000000000000000000000000000010000000000000000000000000000000000000000004000001000000000000000000000000000000002000000800000000000004000000000000000080000000000000020000000000000000000000000000000000000000000080000000000000000000000",
      "type": "0x2",
      "transactionHash": "0x0ee8ebce72c8c6dfcf0b94d12e38d93a21e94b6e3a94df71f61a340fc5e1a17b",
      "transactionIndex": "0x25",
      "blockHash": "0x37e8cd4b90b1d0d789ce59f3a027a9ad4e6059e60de758023bf5c7318c769f0b",
      "blockNumber": "0x723927",
      "gasUsed": "0xfb87",
      "effectiveGasPrice": "0x265d8192",
      "from": "0xc77f7fed3b5cc8249adc428c5f44c9063b9734b4",
      "to": "0xd7bc75898e513accccf720a874d44dab5a4b6223",
      "contractAddress": null
    }
  ],
  "libraries": [],
  "pending": [],
  "returns": {},
  "timestamp": 1736810270,
  "chain": 11155111,
  "commit": "51a374b"
}