{
  "transactions": [
    {
      "hash": "0xabd3d3280b5bc0915e5037066ef588ebb9c90c83f465d7c2f4fd3c65467145b1",
      "transactionType": "CALL",
      "contractName": null,
      "contractAddress": "0x8aafd3ede9adb0ff97c7aebce82a919afb1c8764",
      "function": "buy(address)",
      "arguments": [
        "0xC77f7fed3b5Cc8249aDc428c5F44C9063B9734b4"
      ],
      "transaction": {
        "from": "0xc77f7fed3b5cc8249adc428c5f44c9063b9734b4",
        "to": "0x8aafd3ede9adb0ff97c7aebce82a919afb1c8764",
        "gas": "0x156ea",
        "value": "0xde0b6b3a7640000",
        "input": "0xf088d547000000000000000000000000c77f7fed3b5cc8249adc428c5f44c9063b9734b4",
        "nonce": "0x16b7",
        "chainId": "0xaa36a7"
      },
      "additionalContracts": [],
      "isFixedGasLimit": false
    }
  ],
  "receipts": [
    {
      "status": "0x1",
      "cumulativeGasUsed": "0x8b454e",
      "logs": [
        {
          "address": "0x8aafd3ede9adb0ff97c7aebce82a919afb1c8764",
          "topics": [
            "0xddf252ad1be2c89b69c2b068fc378daa952ba7f163c4a11628f55a4df523b3ef",
            "0x0000000000000000000000000000000000000000000000000000000000000000",
            "0x000000000000000000000000c77f7fed3b5cc8249adc428c5f44c9063b9734b4"
          ],
          "data": "0x0000000000000000000000000000000000000000000000089f35552d5b8a0e8c",
          "blockHash": "0x47ed49f1aa96a65bf21d553e5787bf401aae8f0956952eff43d96f07ef586080",
          "blockNumber": "0x731e70",
          "transactionHash": "0xabd3d3280b5bc0915e5037066ef588ebb9c90c83f465d7c2f4fd3c65467145b1",
          "transactionIndex": "0x5e",
          "logIndex": "0x8f",
          "removed": false
        },
        {
          "address": "0x8aafd3ede9adb0ff97c7aebce82a919afb1c8764",
          "topics": [
            "0xddf252ad1be2c89b69c2b068fc378daa952ba7f163c4a11628f55a4df523b3ef",
            "0x0000000000000000000000000000000000000000000000000000000000000000",
            "0x000000000000000000000000c77f7fed3b5cc8249adc428c5f44c9063b9734b4"
          ],
          "data": "0x00000000000000000000000000000000000000000000000006b1f8f97797962f",
          "blockHash": "0x47ed49f1aa96a65bf21d553e5787bf401aae8f0956952eff43d96f07ef586080",
          "blockNumber": "0x731e70",
          "transactionHash": "0xabd3d3280b5bc0915e5037066ef588ebb9c90c83f465d7c2f4fd3c65467145b1",
          "transactionIndex": "0x5e",
          "logIndex": "0x90",
          "removed": false
        },
        {
          "address": "0x8aafd3ede9adb0ff97c7aebce82a919afb1c8764",
          "topics": [
            "0x4afcb4a87cdbd9974efdb92ee48bc8d7cd0ae4bf217004db3d080cbaee652ca7"
          ],
          "data": "0x0000000000000000000000000000000000000000000000000000000067906a28000000000000000000000000000000000000000000000000001624157cf60fb30000000000000000000000000000000000000000000000000de0b6b3a7640000",
          "blockHash": "0x47ed49f1aa96a65bf21d553e5787bf401aae8f0956952eff43d96f07ef586080",
          "blockNumber": "0x731e70",
          "transactionHash": "0xabd3d3280b5bc0915e5037066ef588ebb9c90c83f465d7c2f4fd3c65467145b1",
          "transactionIndex": "0x5e",
          "logIndex": "0x91",
          "removed": false
        }
      ],
      "logsBloom": "0x00000000000000000000000000000000000000000600000000000000000000000000000000000000000000000000000000000000000000004000000000000000000000000000004000000008000000000000000000000000000000000000000000000000020000000000000000000800020000000000000000000010000000000000000000000000000000000000000000000000000000000000010000000000000000000000000000000000000000004000000000000000000000000000000000000002000000800000000000000000000000000000080000000000000020000000000000000000000000000000000000000000000000000000000000000000",
      "type": "0x2",
      "transactionHash": "0xabd3d3280b5bc0915e5037066ef588ebb9c90c83f465d7c2f4fd3c65467145b1",
      "transactionIndex": "0x5e",
      "blockHash": "0x47ed49f1aa96a65bf21d553e5787bf401aae8f0956952eff43d96f07ef586080",
      "blockNumber": "0x731e70",
      "gasUsed": "0xf844",
      "effectiveGasPrice": "0x4956a031",
      "from": "0xc77f7fed3b5cc8249adc428c5f44c9063b9734b4",
      "to": "0x8aafd3ede9adb0ff97c7aebce82a919afb1c8764",
      "contractAddress": null
    }
  ],
  "libraries": [],
  "pending": [],
  "returns": {},
  "timestamp": 1737517610,
  "chain": 11155111,
  "commit": "1d2fb70"
}