{
  "transactions": [
    {
      "hash": "0x031b4975eee05e2c2ca5a3999d3d284110485164c06787fbf1539ddf38b1baf4",
      "transactionType": "CALL",
      "contractName": null,
      "contractAddress": "0xbf4a322f1496e5c3d34a9bcdb4c60567b38c7de2",
      "function": "sell(uint256)",
      "arguments": [
        "985956366028709815014"
      ],
      "transaction": {
        "from": "0xc77f7fed3b5cc8249adc428c5f44c9063b9734b4",
        "to": "0xbf4a322f1496e5c3d34a9bcdb4c60567b38c7de2",
        "gas": "0x16fea",
        "value": "0x0",
        "input": "0xe4849b3200000000000000000000000000000000000000000000003572e4ab151843e2e6",
        "nonce": "0xa5f",
        "chainId": "0xaa36a7"
      },
      "additionalContracts": [],
      "isFixedGasLimit": false
    }
  ],
  "receipts": [
    {
      "status": "0x1",
      "cumulativeGasUsed": "0x2f3795",
      "logs": [
        {
          "address": "0xbf4a322f1496e5c3d34a9bcdb4c60567b38c7de2",
          "topics": [
            "0xddf252ad1be2c89b69c2b068fc378daa952ba7f163c4a11628f55a4df523b3ef",
            "0x000000000000000000000000c77f7fed3b5cc8249adc428c5f44c9063b9734b4",
            "0x0000000000000000000000000000000000000000000000000000000000000000"
          ],
          "data": "0x00000000000000000000000000000000000000000000003572e4ab151843e2e6",
          "blockHash": "0x13a1b80c0cd99028c059899e875ccbad9a26f8e515efdd9bdb018eb30c88cf86",
          "blockNumber": "0x725a3b",
          "transactionHash": "0x031b4975eee05e2c2ca5a3999d3d284110485164c06787fbf1539ddf38b1baf4",
          "transactionIndex": "0xc",
          "logIndex": "0xa",
          "removed": false
        },
        {
          "address": "0xbf4a322f1496e5c3d34a9bcdb4c60567b38c7de2",
          "topics": [
            "0x4afcb4a87cdbd9974efdb92ee48bc8d7cd0ae4bf217004db3d080cbaee652ca7"
          ],
          "data": "0x0000000000000000000000000000000000000000000000000000000067872d1400000000000000000000000000000000000000000000000000039405267bfec00000000000000000000000000000000000000000000000000dc7e3efea39a8e0",
          "blockHash": "0x13a1b80c0cd99028c059899e875ccbad9a26f8e515efdd9bdb018eb30c88cf86",
          "blockNumber": "0x725a3b",
          "transactionHash": "0x031b4975eee05e2c2ca5a3999d3d284110485164c06787fbf1539ddf38b1baf4",
          "transactionIndex": "0xc",
          "logIndex": "0xb",
          "removed": false
        }
      ],
      "logsBloom": "0x00000000000000000000000000000000000000000000000000000000000000000000000000000000000000000000000000000000000000004000000000000000000000000000000000000008000000000000001000000000000000000000000000000000020000000000000000000800020000000000000000000010000000000000000000000000000000000000000000000000000008000000010000000000000000000000000000000000000000004000000000000000000000000000000000000002000000800000000000001000000000000000080000000000000020000000000000000000000000000000000000000000000000000000000000000000",
      "type": "0x2",
      "transactionHash": "0x031b4975eee05e2c2ca5a3999d3d284110485164c06787fbf1539ddf38b1baf4",
      "transactionIndex": "0xc",
      "blockHash": "0x13a1b80c0cd99028c059899e875ccbad9a26f8e515efdd9bdb018eb30c88cf86",
      "blockNumber": "0x725a3b",
      "gasUsed": "0xfb91",
      "effectiveGasPrice": "0x4b1502a4c",
      "from": "0xc77f7fed3b5cc8249adc428c5f44c9063b9734b4",
      "to": "0xbf4a322f1496e5c3d34a9bcdb4c60567b38c7de2",
      "contractAddress": null
    }
  ],
  "libraries": [],
  "pending": [],
  "returns": {},
  "timestamp": 1736912149,
  "chain": 11155111,
  "commit": "51a374b"
}