{
  "transactions": [
    {
      "hash": "0x8565c3c293744d6157125aaca228f29c61124d6fac6c7c0b9cbcf6b653a55d4a",
      "transactionType": "CALL",
      "contractName": null,
      "contractAddress": "0x8aafd3ede9adb0ff97c7aebce82a919afb1c8764",
      "function": "sell(uint256)",
      "arguments": [
        "9487815837915562"
      ],
      "transaction": {
        "from": "0xc77f7fed3b5cc8249adc428c5f44c9063b9734b4",
        "to": "0x8aafd3ede9adb0ff97c7aebce82a919afb1c8764",
        "gas": "0x1724d",
        "value": "0x0",
        "input": "0xe4849b320000000000000000000000000000000000000000000000000021b51e44b699aa",
        "nonce": "0x174a",
        "chainId": "0xaa36a7"
      },
      "additionalContracts": [],
      "isFixedGasLimit": false
    }
  ],
  "receipts": [
    {
      "status": "0x1",
      "cumulativeGasUsed": "0xafdb65",
      "logs": [
        {
          "address": "0x8aafd3ede9adb0ff97c7aebce82a919afb1c8764",
          "topics": [
            "0xddf252ad1be2c89b69c2b068fc378daa952ba7f163c4a11628f55a4df523b3ef",
            "0x000000000000000000000000c77f7fed3b5cc8249adc428c5f44c9063b9734b4",
            "0x0000000000000000000000000000000000000000000000000000000000000000"
          ],
          "data": "0x00000000000000000000000000000000000000000000000000217015d59252ce",
          "blockHash": "0x0d722842e898bb11c648801517aed8b9ea55a895c2bb8e9e7b7fd4b1d4970d0c",
          "blockNumber": "0x731f19",
          "transactionHash": "0x8565c3c293744d6157125aaca228f29c61124d6fac6c7c0b9cbcf6b653a55d4a",
          "transactionIndex": "0x66",
          "logIndex": "0xb7",
          "removed": false
        },
        {
          "address": "0x8aafd3ede9adb0ff97c7aebce82a919afb1c8764",
          "topics": [
            "0xddf252ad1be2c89b69c2b068fc378daa952ba7f163c4a11628f55a4df523b3ef",
            "0x000000000000000000000000c77f7fed3b5cc8249adc428c5f44c9063b9734b4",
            "0x000000000000000000000000c77f7fed3b5cc8249adc428c5f44c9063b9734b4"
          ],
          "data": "0x000000000000000000000000000000000000000000000000000045086f2446dc",
          "blockHash": "0x0d722842e898bb11c648801517aed8b9ea55a895c2bb8e9e7b7fd4b1d4970d0c",
          "blockNumber": "0x731f19",
          "transactionHash": "0x8565c3c293744d6157125aaca228f29c61124d6fac6c7c0b9cbcf6b653a55d4a",
          "transactionIndex": "0x66",
          "logIndex": "0xb8",
          "removed": false
        },
        {
          "address": "0x8aafd3ede9adb0ff97c7aebce82a919afb1c8764",
          "topics": [
            "0x4afcb4a87cdbd9974efdb92ee48bc8d7cd0ae4bf217004db3d080cbaee652ca7"
          ],
          "data": "0x00000000000000000000000000000000000000000000000000000000679072140000000000000000000000000000000000000000000000000017e708bcf3bd8a00000000000000000000000000000000000000000000000000003a0e66d8e8db",
          "blockHash": "0x0d722842e898bb11c648801517aed8b9ea55a895c2bb8e9e7b7fd4b1d4970d0c",
          "blockNumber": "0x731f19",
          "transactionHash": "0x8565c3c293744d6157125aaca228f29c61124d6fac6c7c0b9cbcf6b653a55d4a",
          "transactionIndex": "0x66",
          "logIndex": "0xb9",
          "removed": false
        }
      ],
      "logsBloom": "0x00000000000000000000000000000000000000000600000000000000000000000000000000000000000000000000000000000000000000004000000000000000000000000000004000000008000000000000000000000000000000000000000000000000020000000000000000000800020000000000000000000010000000000000000000000000000000000000000000000000000000000000010000000000000000000000000000000000000000004000000000000000000000000000000000000002000000800000000000000000000000000000080000000000000020000000000000000000000000000000000000000000000000000000000000000000",
      "type": "0x2",
      "transactionHash": "0x8565c3c293744d6157125aaca228f29c61124d6fac6c7c0b9cbcf6b653a55d4a",
      "transactionIndex": "0x66",
      "blockHash": "0x0d722842e898bb11c648801517aed8b9ea55a895c2bb8e9e7b7fd4b1d4970d0c",
      "blockNumber": "0x731f19",
      "gasUsed": "0xfd33",
      "effectiveGasPrice": "0x499d6bdc",
      "from": "0xc77f7fed3b5cc8249adc428c5f44c9063b9734b4",
      "to": "0x8aafd3ede9adb0ff97c7aebce82a919afb1c8764",
      "contractAddress": null
    }
  ],
  "libraries": [],
  "pending": [],
  "returns": {},
  "timestamp": 1737519637,
  "chain": 11155111,
  "commit": "1d2fb70"
}