{
  "transactions": [
    {
      "hash": "0xc8a07aa6a748b59de5d024bbc494f3e65245b9166c60d5f60dcb88df1d947fca",
      "transactionType": "CALL",
      "contractName": null,
      "contractAddress": "0x8aafd3ede9adb0ff97c7aebce82a919afb1c8764",
      "function": "sell(uint256)",
      "arguments": [
        "1282316969728692141"
      ],
      "transaction": {
        "from": "0xc77f7fed3b5cc8249adc428c5f44c9063b9734b4",
        "to": "0x8aafd3ede9adb0ff97c7aebce82a919afb1c8764",
        "gas": "0x15dca",
        "value": "0x0",
        "input": "0xe4849b3200000000000000000000000000000000000000000000000011cbb47d6e224fad",
        "nonce": "0x16b0",
        "chainId": "0xaa36a7"
      },
      "additionalContracts": [],
      "isFixedGasLimit": false
    }
  ],
  "receipts": [
    {
      "status": "0x1",
      "cumulativeGasUsed": "0xd74a04",
      "logs": [
        {
          "address": "0x8aafd3ede9adb0ff97c7aebce82a919afb1c8764",
          "topics": [
            "0xddf252ad1be2c89b69c2b068fc378daa952ba7f163c4a11628f55a4df523b3ef",
            "0x000000000000000000000000c77f7fed3b5cc8249adc428c5f44c9063b9734b4",
            "0x0000000000000000000000000000000000000000000000000000000000000000"
          ],
          "data": "0x00000000000000000000000000000000000000000000000011a74267f25f7a0c",
          "blockHash": "0x764b4ecb0b883e902202655d5c55786dea75edc14f36308404e6acaca2f6b587",
          "blockNumber": "0x731e69",
          "transactionHash": "0xc8a07aa6a748b59de5d024bbc494f3e65245b9166c60d5f60dcb88df1d947fca",
          "transactionIndex": "0x65",
          "logIndex": "0xca",
          "removed": false
        },
        {
          "address": "0x8aafd3ede9adb0ff97c7aebce82a919afb1c8764",
          "topics": [
            "0xddf252ad1be2c89b69c2b068fc378daa952ba7f163c4a11628f55a4df523b3ef",
            "0x000000000000000000000000c77f7fed3b5cc8249adc428c5f44c9063b9734b4",
            "0x000000000000000000000000c77f7fed3b5cc8249adc428c5f44c9063b9734b4"
          ],
          "data": "0x000000000000000000000000000000000000000000000000002472157bc2d5a1",
          "blockHash": "0x764b4ecb0b883e902202655d5c55786dea75edc14f36308404e6acaca2f6b587",
          "blockNumber": "0x731e69",
          "transactionHash": "0xc8a07aa6a748b59de5d024bbc494f3e65245b9166c60d5f60dcb88df1d947fca",
          "transactionIndex": "0x65",
          "logIndex": "0xcb",
          "removed": false
        },
        {
          "address": "0x8aafd3ede9adb0ff97c7aebce82a919afb1c8764",
          "topics": [
            "0x4afcb4a87cdbd9974efdb92ee48bc8d7cd0ae4bf217004db3d080cbaee652ca7"
          ],
          "data": "0x00000000000000000000000000000000000000000000000000000000679069d400000000000000000000000000000000000000000000000000161d3f812863ff000000000000000000000000000000000000000000000000001c5b4f32ca4485",
          "blockHash": "0x764b4ecb0b883e902202655d5c55786dea75edc14f36308404e6acaca2f6b587",
          "blockNumber": "0x731e69",
          "transactionHash": "0xc8a07aa6a748b59de5d024bbc494f3e65245b9166c60d5f60dcb88df1d947fca",
          "transactionIndex": "0x65",
          "logIndex": "0xcc",
          "removed": false
        }
      ],
      "logsBloom": "0x00000000000000000000000000000000000000000600000000000000000000000000000000000000000000000000000000000000000000004000000000000000000000000000004000000008000000000000000000000000000000000000000000000000020000000000000000000800020000000000000000000010000000000000000000000000000000000000000000000000000000000000010000000000000000000000000000000000000000004000000000000000000000000000000000000002000000800000000000000000000000000000080000000000000020000000000000000000000000000000000000000000000000000000000000000000",
      "type": "0x2",
      "transactionHash": "0xc8a07aa6a748b59de5d024bbc494f3e65245b9166c60d5f60dcb88df1d947fca",
      "transactionIndex": "0x65",
      "blockHash": "0x764b4ecb0b883e902202655d5c55786dea75edc14f36308404e6acaca2f6b587",
      "blockNumber": "0x731e69",
      "gasUsed": "0xfd3f",
      "effectiveGasPrice": "0x536a96c0",
      "from": "0xc77f7fed3b5cc8249adc428c5f44c9063b9734b4",
      "to": "0x8aafd3ede9adb0ff97c7aebce82a919afb1c8764",
      "contractAddress": null
    }
  ],
  "libraries": [],
  "pending": [],
  "returns": {},
  "timestamp": 1737517525,
  "chain": 11155111,
  "commit": "1d2fb70"
}