{
  "transactions": [
    {
      "hash": "0x9720cd9461d7ef096f438c1106adc304d6e32eeb74ab218bce21a8f63ab2659b",
      "transactionType": "CALL",
      "contractName": null,
      "contractAddress": "0x5eb9cc76c3506942c1c0ead70e877dd5e4f00cb0",
      "function": "buy(address)",
      "arguments": [
        "0xC77f7fed3b5Cc8249aDc428c5F44C9063B9734b4"
      ],
      "transaction": {
        "from": "0xc77f7fed3b5cc8249adc428c5f44c9063b9734b4",
        "to": "0x5eb9cc76c3506942c1c0ead70e877dd5e4f00cb0",
        "gas": "0x1b30c",
        "value": "0xde0b6b3a7640000",
        "input": "0xf088d547000000000000000000000000c77f7fed3b5cc8249adc428c5f44c9063b9734b4",
        "nonce": "0x3b0",
        "chainId": "0xaa36a7"
      },
      "additionalContracts": [],
      "isFixedGasLimit": false
    }
  ],
  "receipts": [
    {
      "status": "0x1",
      "cumulativeGasUsed": "0xd42d8e",
      "logs": [
        {
          "address": "0x5eb9cc76c3506942c1c0ead70e877dd5e4f00cb0",
          "topics": [
            "0xddf252ad1be2c89b69c2b068fc378daa952ba7f163c4a11628f55a4df523b3ef",
            "0x0000000000000000000000000000000000000000000000000000000000000000",
            "0x000000000000000000000000c77f7fed3b5cc8249adc428c5f44c9063b9734b4"
          ],
          "data": "0x000000000000000000000000000000000000000000000035752f5ffd0401951d",
          "blockHash": "0xc234d354f9ef6c0cf7b833a4d3dc6dc2e67f2137681c8570b66dfbec3d545176",
          "blockNumber": "0x724faf",
          "transactionHash": "0x9720cd9461d7ef096f438c1106adc304d6e32eeb74ab218bce21a8f63ab2659b",
          "transactionIndex": "0x5e",
          "logIndex": "0xb9",
          "removed": false
        },
        {
          "address": "0x5eb9cc76c3506942c1c0ead70e877dd5e4f00cb0",
          "topics": [
            "0xddf252ad1be2c89b69c2b068fc378daa952ba7f163c4a11628f55a4df523b3ef",
            "0x0000000000000000000000000000000000000000000000000000000000000000",
            "0x000000000000000000000000c77f7fed3b5cc8249adc428c5f44c9063b9734b4"
          ],
          "data": "0x00000000000000000000000000000000000000000000000029830353d15ba4c2",
          "blockHash": "0xc234d354f9ef6c0cf7b833a4d3dc6dc2e67f2137681c8570b66dfbec3d545176",
          "blockNumber": "0x724faf",
          "transactionHash": "0x9720cd9461d7ef096f438c1106adc304d6e32eeb74ab218bce21a8f63ab2659b",
          "transactionIndex": "0x5e",
          "logIndex": "0xba",
          "removed": false
        },
        {
          "address": "0x5eb9cc76c3506942c1c0ead70e877dd5e4f00cb0",
          "topics": [
            "0x4afcb4a87cdbd9974efdb92ee48bc8d7cd0ae4bf217004db3d080cbaee652ca7"
          ],
          "data": "0x000000000000000000000000000000000000000000000000000000006786adf40000000000000000000000000000000000000000000000000003911269512dc50000000000000000000000000000000000000000000000000de0b6b3a7640000",
          "blockHash": "0xc234d354f9ef6c0cf7b833a4d3dc6dc2e67f2137681c8570b66dfbec3d545176",
          "blockNumber": "0x724faf",
          "transactionHash": "0x9720cd9461d7ef096f438c1106adc304d6e32eeb74ab218bce21a8f63ab2659b",
          "transactionIndex": "0x5e",
          "logIndex": "0xbb",
          "removed": false
        }
      ],
      "logsBloom": "0x00000000000000000000000000000000000000000000000000000000000000000000000000000000000000000000000000000000000000004000000000000000000000000000000000000008000000000000000000000000000000000000000000000000020000000000000004000800020000000000000000000010000000000000000000000000000000000000000000000000000000000000010000000000000000000000000000000000000000004000000000000000000000000000020000000002000000800000008000000000000000000000080000000000000020000000000000000000000000000000000000000000000000000000000000000000",
      "type": "0x2",
      "transactionHash": "0x9720cd9461d7ef096f438c1106adc304d6e32eeb74ab218bce21a8f63ab2659b",
      "transactionIndex": "0x5e",
      "blockHash": "0xc234d354f9ef6c0cf7b833a4d3dc6dc2e67f2137681c8570b66dfbec3d545176",
      "blockNumber": "0x724faf",
      "gasUsed": "0x13af8",
      "effectiveGasPrice": "0x4adbd6250",
      "from": "0xc77f7fed3b5cc8249adc428c5f44c9063b9734b4",
      "to": "0x5eb9cc76c3506942c1c0ead70e877dd5e4f00cb0",
      "contractAddress": null
    }
  ],
  "libraries": [],
  "pending": [],
  "returns": {},
  "timestamp": 1736879604,
  "chain": 11155111,
  "commit": "51a374b"
}