{
  "transactions": [
    {
      "hash": "0x7a90bd723cee30dd3c427d4a02e81d0a4371182576eee6f5785f3e897b0bc8d3",
      "transactionType": "CALL",
      "contractName": null,
      "contractAddress": "0xbf4a322f1496e5c3d34a9bcdb4c60567b38c7de2",
      "function": "sell(uint256)",
      "arguments": [
        "983299857897746283014"
      ],
      "transaction": {
        "from": "0xc77f7fed3b5cc8249adc428c5f44c9063b9734b4",
        "to": "0xbf4a322f1496e5c3d34a9bcdb4c60567b38c7de2",
        "gas": "0x16fea",
        "value": "0x0",
        "input": "0xe4849b320000000000000000000000000000000000000000000000354e06db03173f3a06",
        "nonce": "0xb23",
        "chainId": "0xaa36a7"
      },
      "additionalContracts": [],
      "isFixedGasLimit": false
    }
  ],
  "receipts": [
    {
      "status": "0x1",
      "cumulativeGasUsed": "0x16f8987",
      "logs": [
        {
          "address": "0xbf4a322f1496e5c3d34a9bcdb4c60567b38c7de2",
          "topics": [
            "0xddf252ad1be2c89b69c2b068fc378daa952ba7f163c4a11628f55a4df523b3ef",
            "0x000000000000000000000000c77f7fed3b5cc8249adc428c5f44c9063b9734b4",
            "0x0000000000000000000000000000000000000000000000000000000000000000"
          ],
          "data": "0x0000000000000000000000000000000000000000000000354e06db03173f3a06",
          "blockHash": "0x6545aebec445fe8bd8a0611f8ba10a948b5d94a6ca64e43f4068fbd89cd30bb0",
          "blockNumber": "0x725b1f",
          "transactionHash": "0x7a90bd723cee30dd3c427d4a02e81d0a4371182576eee6f5785f3e897b0bc8d3",
          "transactionIndex": "0xcd",
          "logIndex": "0x149",
          "removed": false
        },
        {
          "address": "0xbf4a322f1496e5c3d34a9bcdb4c60567b38c7de2",
          "topics": [
            "0x4afcb4a87cdbd9974efdb92ee48bc8d7cd0ae4bf217004db3d080cbaee652ca7"
          ],
          "data": "0x00000000000000000000000000000000000000000000000000000000678737d00000000000000000000000000000000000000000000000000003967eaacd96f60000000000000000000000000000000000000000000000000dc7e3e9bd1226c4",
          "blockHash": "0x6545aebec445fe8bd8a0611f8ba10a948b5d94a6ca64e43f4068fbd89cd30bb0",
          "blockNumber": "0x725b1f",
          "transactionHash": "0x7a90bd723cee30dd3c427d4a02e81d0a4371182576eee6f5785f3e897b0bc8d3",
          "transactionIndex": "0xcd",
          "logIndex": "0x14a",
          "removed": false
        }
      ],
      "logsBloom": "0x00000000000000000000000000000000000000000000000000000000000000000000000000000000000000000000000000000000000000004000000000000000000000000000000000000008000000000000001000000000000000000000000000000000020000000000000000000800020000000000000000000010000000000000000000000000000000000000000000000000000008000000010000000000000000000000000000000000000000004000000000000000000000000000000000000002000000800000000000001000000000000000080000000000000020000000000000000000000000000000000000000000000000000000000000000000",
      "type": "0x2",
      "transactionHash": "0x7a90bd723cee30dd3c427d4a02e81d0a4371182576eee6f5785f3e897b0bc8d3",
      "transactionIndex": "0xcd",
      "blockHash": "0x6545aebec445fe8bd8a0611f8ba10a948b5d94a6ca64e43f4068fbd89cd30bb0",
      "blockNumber": "0x725b1f",
      "gasUsed": "0xfb91",
      "effectiveGasPrice": "0x67d11f85",
      "from": "0xc77f7fed3b5cc8249adc428c5f44c9063b9734b4",
      "to": "0xbf4a322f1496e5c3d34a9bcdb4c60567b38c7de2",
      "contractAddress": null
    }
  ],
  "libraries": [],
  "pending": [],
  "returns": {},
  "timestamp": 1736914897,
  "chain": 11155111,
  "commit": "51a374b"
}