{
  "transactions": [
    {
      "hash": "0x9ebe276e303e77daf0c0a5e7c5e0f1f3874ec5d46c38eec4aa0aa4d9dd7f1c74",
      "transactionType": "CALL",
      "contractName": null,
      "contractAddress": "0xbf4a322f1496e5c3d34a9bcdb4c60567b38c7de2",
      "function": "buy(address)",
      "arguments": [
        "0xC77f7fed3b5Cc8249aDc428c5F44C9063B9734b4"
      ],
      "transaction": {
        "from": "0xc77f7fed3b5cc8249adc428c5f44c9063b9734b4",
        "to": "0xbf4a322f1496e5c3d34a9bcdb4c60567b38c7de2",
        "gas": "0x1b309",
        "value": "0xde0b6b3a7640000",
        "input": "0xf088d547000000000000000000000000c77f7fed3b5cc8249adc428c5f44c9063b9734b4",
        "nonce": "0x96e",
        "chainId": "0xaa36a7"
      },
      "additionalContracts": [],
      "isFixedGasLimit": false
    }
  ],
  "receipts": [
    {
      "status": "0x1",
      "cumulativeGasUsed": "0xde1742",
      "logs": [
        {
          "address": "0xbf4a322f1496e5c3d34a9bcdb4c60567b38c7de2",
          "topics": [
            "0xddf252ad1be2c89b69c2b068fc378daa952ba7f163c4a11628f55a4df523b3ef",
            "0x0000000000000000000000000000000000000000000000000000000000000000",
            "0x000000000000000000000000c77f7fed3b5cc8249adc428c5f44c9063b9734b4"
          ],
          "data": "0x00000000000000000000000000000000000000000000003576ca93f38a9b26a2",
          "blockHash": "0x434047a4ed58e0f15420b6b9caed908b459634e91b04166ff2d65074912ab86e",
          "blockNumber": "0x725906",
          "transactionHash": "0x9ebe276e303e77daf0c0a5e7c5e0f1f3874ec5d46c38eec4aa0aa4d9dd7f1c74",
          "transactionIndex": "0x47",
          "logIndex": "0x7a",
          "removed": false
        },
        {
          "address": "0xbf4a322f1496e5c3d34a9bcdb4c60567b38c7de2",
          "topics": [
            "0xddf252ad1be2c89b69c2b068fc378daa952ba7f163c4a11628f55a4df523b3ef",
            "0x0000000000000000000000000000000000000000000000000000000000000000",
            "0x000000000000000000000000c77f7fed3b5cc8249adc428c5f44c9063b9734b4"
          ],
          "data": "0x000000000000000000000000000000000000000000000000298442a3fb538d50",
          "blockHash": "0x434047a4ed58e0f15420b6b9caed908b459634e91b04166ff2d65074912ab86e",
          "blockNumber": "0x725906",
          "transactionHash": "0x9ebe276e303e77daf0c0a5e7c5e0f1f3874ec5d46c38eec4aa0aa4d9dd7f1c74",
          "transactionIndex": "0x47",
          "logIndex": "0x7b",
          "removed": false
        },
        {
          "address": "0xbf4a322f1496e5c3d34a9bcdb4c60567b38c7de2",
          "topics": [
            "0x4afcb4a87cdbd9974efdb92ee48bc8d7cd0ae4bf217004db3d080cbaee652ca7"
          ],
          "data": "0x0000000000000000000000000000000000000000000000000000000067871e74000000000000000000000000000000000000000000000000000390f947c6a1930000000000000000000000000000000000000000000000000de0b6b3a7640000",
          "blockHash": "0x434047a4ed58e0f15420b6b9caed908b459634e91b04166ff2d65074912ab86e",
          "blockNumber": "0x725906",
          "transactionHash": "0x9ebe276e303e77daf0c0a5e7c5e0f1f3874ec5d46c38eec4aa0aa4d9dd7f1c74",
          "transactionIndex": "0x47",
          "logIndex": "0x7c",
          "removed": false
        }
      ],
      "logsBloom": "0x00000000000000000000000000000000000000000000000000000000000000000000000000000000000000000000000000000000000000004000000000000000000000000000000000000008000000000000001000000000000000000000000000000000020000000000000000000800020000000000000000000010000000000000000000000000000000000000000000000000000008000000010000000000000000000000000000000000000000004000000000000000000000000000000000000002000000800000000000001000000000000000080000000000000020000000000000000000000000000000000000000000000000000000000000000000",
      "type": "0x2",
      "transactionHash": "0x9ebe276e303e77daf0c0a5e7c5e0f1f3874ec5d46c38eec4aa0aa4d9dd7f1c74",
      "transactionIndex": "0x47",
      "blockHash": "0x434047a4ed58e0f15420b6b9caed908b459634e91b04166ff2d65074912ab86e",
      "blockNumber": "0x725906",
      "gasUsed": "0x13af6",
      "effectiveGasPrice": "0xa2f1c5d6",
      "from": "0xc77f7fed3b5cc8249adc428c5f44c9063b9734b4",
      "to": "0xbf4a322f1496e5c3d34a9bcdb4c60567b38c7de2",
      "contractAddress": null
    }
  ],
  "libraries": [],
  "pending": [],
  "returns": {},
  "timestamp": 1736908406,
  "chain": 11155111,
  "commit": "51a374b"
}