{
  "transactions": [
    {
      "hash": "0xc594a339cb3fdf100864b5339bb53bb495a510a67cac6252a7838f899bde2382",
      "transactionType": "CALL",
      "contractName": null,
      "contractAddress": "0x8aafd3ede9adb0ff97c7aebce82a919afb1c8764",
      "function": "buy(address)",
      "arguments": [
        "0xC77f7fed3b5Cc8249aDc428c5F44C9063B9734b4"
      ],
      "transaction": {
        "from": "0xc77f7fed3b5cc8249adc428c5f44c9063b9734b4",
        "to": "0x8aafd3ede9adb0ff97c7aebce82a919afb1c8764",
        "gas": "0x156ea",
        "value": "0xde0b6b3a7640000",
        "input": "0xf088d547000000000000000000000000c77f7fed3b5cc8249adc428c5f44c9063b9734b4",
        "nonce": "0x10a4",
        "chainId": "0xaa36a7"
      },
      "additionalContracts": [],
      "isFixedGasLimit": false
    }
  ],
  "receipts": [
    {
      "status": "0x1",
      "cumulativeGasUsed": "0x146be13",
      "logs": [
        {
          "address": "0x8aafd3ede9adb0ff97c7aebce82a919afb1c8764",
          "topics": [
            "0xddf252ad1be2c89b69c2b068fc378daa952ba7f163c4a11628f55a4df523b3ef",
            "0x0000000000000000000000000000000000000000000000000000000000000000",
            "0x000000000000000000000000c77f7fed3b5cc8249adc428c5f44c9063b9734b4"
          ],
          "data": "0x000000000000000000000000000000000000000000000026343a0881bb617eea",
          "blockHash": "0x030f42331de95f05bd79b70d946e09839a66f84815a3a0c1c62e4cd183e80b74",
          "blockNumber": "0x731737",
          "transactionHash": "0xc594a339cb3fdf100864b5339bb53bb495a510a67cac6252a7838f899bde2382",
          "transactionIndex": "0x6d",
          "logIndex": "0x10b",
          "removed": false
        },
        {
          "address": "0x8aafd3ede9adb0ff97c7aebce82a919afb1c8764",
          "topics": [
            "0xddf252ad1be2c89b69c2b068fc378daa952ba7f163c4a11628f55a4df523b3ef",
            "0x0000000000000000000000000000000000000000000000000000000000000000",
            "0x000000000000000000000000c77f7fed3b5cc8249adc428c5f44c9063b9734b4"
          ],
          "data": "0x0000000000000000000000000000000000000000000000001daaadfc27553da5",
          "blockHash": "0x030f42331de95f05bd79b70d946e09839a66f84815a3a0c1c62e4cd183e80b74",
          "blockNumber": "0x731737",
          "transactionHash": "0xc594a339cb3fdf100864b5339bb53bb495a510a67cac6252a7838f899bde2382",
          "transactionIndex": "0x6d",
          "logIndex": "0x10c",
          "removed": false
        },
        {
          "address": "0x8aafd3ede9adb0ff97c7aebce82a919afb1c8764",
          "topics": [
            "0x4afcb4a87cdbd9974efdb92ee48bc8d7cd0ae4bf217004db3d080cbaee652ca7"
          ],
          "data": "0x00000000000000000000000000000000000000000000000000000000679013580000000000000000000000000000000000000000000000000004fe0b460b27880000000000000000000000000000000000000000000000000de0b6b3a7640000",
          "blockHash": "0x030f42331de95f05bd79b70d946e09839a66f84815a3a0c1c62e4cd183e80b74",
          "blockNumber": "0x731737",
          "transactionHash": "0xc594a339cb3fdf100864b5339bb53bb495a510a67cac6252a7838f899bde2382",
          "transactionIndex": "0x6d",
          "logIndex": "0x10d",
          "removed": false
        }
      ],
      "logsBloom": "0x00000000000000000000000000000000000000000600000000000000000000000000000000000000000000000000000000000000000000004000000000000000000000000000004000000008000000000000000000000000000000000000000000000000020000000000000000000800020000000000000000000010000000000000000000000000000000000000000000000000000000000000010000000000000000000000000000000000000000004000000000000000000000000000000000000002000000800000000000000000000000000000080000000000000020000000000000000000000000000000000000000000000000000000000000000000",
      "type": "0x2",
      "transactionHash": "0xc594a339cb3fdf100864b5339bb53bb495a510a67cac6252a7838f899bde2382",
      "transactionIndex": "0x6d",
      "blockHash": "0x030f42331de95f05bd79b70d946e09839a66f84815a3a0c1c62e4cd183e80b74",
      "blockNumber": "0x731737",
      "gasUsed": "0xf844",
      "effectiveGasPrice": "0x4ab40985",
      "from": "0xc77f7fed3b5cc8249adc428c5f44c9063b9734b4",
      "to": "0x8aafd3ede9adb0ff97c7aebce82a919afb1c8764",
      "contractAddress": null
    }
  ],
  "libraries": [],
  "pending": [],
  "returns": {},
  "timestamp": 1737495386,
  "chain": 11155111,
  "commit": "1d2fb70"
}