{
  "transactions": [
    {
      "hash": "0x8192216f6fff745afb8e9b62edbc6e16a949d76e3b2a98102e238cb72e63dc79",
      "transactionType": "CALL",
      "contractName": null,
      "contractAddress": "0xbf4a322f1496e5c3d34a9bcdb4c60567b38c7de2",
      "function": "sell(uint256)",
      "arguments": [
        "977040971619218539640"
      ],
      "transaction": {
        "from": "0xc77f7fed3b5cc8249adc428c5f44c9063b9734b4",
        "to": "0xbf4a322f1496e5c3d34a9bcdb4c60567b38c7de2",
        "gas": "0x16fea",
        "value": "0x0",
        "input": "0xe4849b32000000000000000000000000000000000000000000000034f72ad31a4e08c478",
        "nonce": "0xcf5",
        "chainId": "0xaa36a7"
      },
      "additionalContracts": [],
      "isFixedGasLimit": false
    }
  ],
  "receipts": [
    {
      "status": "0x1",
      "cumulativeGasUsed": "0x66c47c",
      "logs": [
        {
          "address": "0xbf4a322f1496e5c3d34a9bcdb4c60567b38c7de2",
          "topics": [
            "0xddf252ad1be2c89b69c2b068fc378daa952ba7f163c4a11628f55a4df523b3ef",
            "0x000000000000000000000000c77f7fed3b5cc8249adc428c5f44c9063b9734b4",
            "0x0000000000000000000000000000000000000000000000000000000000000000"
          ],
          "data": "0x000000000000000000000000000000000000000000000034f72ad31a4e08c478",
          "blockHash": "0x703cc6533f0ac2bf241dd16d60283ec64a7f35701e9f8a83d2d57350adecf154",
          "blockNumber": "0x725d49",
          "transactionHash": "0x8192216f6fff745afb8e9b62edbc6e16a949d76e3b2a98102e238cb72e63dc79",
          "transactionIndex": "0x30",
          "logIndex": "0x5c",
          "removed": false
        },
        {
          "address": "0xbf4a322f1496e5c3d34a9bcdb4c60567b38c7de2",
          "topics": [
            "0x4afcb4a87cdbd9974efdb92ee48bc8d7cd0ae4bf217004db3d080cbaee652ca7"
          ],
          "data": "0x00000000000000000000000000000000000000000000000000000000678751e000000000000000000000000000000000000000000000000000039c60e3a8fd9c0000000000000000000000000000000000000000000000000dc7e3db2fbb923a",
          "blockHash": "0x703cc6533f0ac2bf241dd16d60283ec64a7f35701e9f8a83d2d57350adecf154",
          "blockNumber": "0x725d49",
          "transactionHash": "0x8192216f6fff745afb8e9b62edbc6e16a949d76e3b2a98102e238cb72e63dc79",
          "transactionIndex": "0x30",
          "logIndex": "0x5d",
          "removed": false
        }
      ],
      "logsBloom": "0x00000000000000000000000000000000000000000000000000000000000000000000000000000000000000000000000000000000000000004000000000000000000000000000000000000008000000000000001000000000000000000000000000000000020000000000000000000800020000000000000000000010000000000000000000000000000000000000000000000000000008000000010000000000000000000000000000000000000000004000000000000000000000000000000000000002000000800000000000001000000000000000080000000000000020000000000000000000000000000000000000000000000000000000000000000000",
      "type": "0x2",
      "transactionHash": "0x8192216f6fff745afb8e9b62edbc6e16a949d76e3b2a98102e238cb72e63dc79",
      "transactionIndex": "0x30",
      "blockHash": "0x703cc6533f0ac2bf241dd16d60283ec64a7f35701e9f8a83d2d57350adecf154",
      "blockNumber": "0x725d49",
      "gasUsed": "0xfb91",
      "effectiveGasPrice": "0x416a2256d",
      "from": "0xc77f7fed3b5cc8249adc428c5f44c9063b9734b4",
      "to": "0xbf4a322f1496e5c3d34a9bcdb4c60567b38c7de2",
      "contractAddress": null
    }
  ],
  "libraries": [],
  "pending": [],
  "returns": {},
  "timestamp": 1736921569,
  "chain": 11155111,
  "commit": "51a374b"
}