{
  "transactions": [
    {
      "hash": "0xb71b373b2bdb2b0c0c95075df720adb81a57e60e62a67025c457a530da66042c",
      "transactionType": "CALL",
      "contractName": null,
      "contractAddress": "0x5eb9cc76c3506942c1c0ead70e877dd5e4f00cb0",
      "function": "buy(address)",
      "arguments": [
        "0xC77f7fed3b5Cc8249aDc428c5F44C9063B9734b4"
      ],
      "transaction": {
        "from": "0xc77f7fed3b5cc8249adc428c5f44c9063b9734b4",
        "to": "0x5eb9cc76c3506942c1c0ead70e877dd5e4f00cb0",
        "gas": "0x156c8",
        "value": "0xde0b6b3a7640000",
        "input": "0xf088d547000000000000000000000000c77f7fed3b5cc8249adc428c5f44c9063b9734b4",
        "nonce": "0x1c3",
        "chainId": "0xaa36a7"
      },
      "additionalContracts": [],
      "isFixedGasLimit": false
    }
  ],
  "receipts": [
    {
      "status": "0x1",
      "cumulativeGasUsed": "0xd32d30",
      "logs": [
        {
          "address": "0x5eb9cc76c3506942c1c0ead70e877dd5e4f00cb0",
          "topics": [
            "0xddf252ad1be2c89b69c2b068fc378daa952ba7f163c4a11628f55a4df523b3ef",
            "0x0000000000000000000000000000000000000000000000000000000000000000",
            "0x000000000000000000000000c77f7fed3b5cc8249adc428c5f44c9063b9734b4"
          ],
          "data": "0x000000000000000000000000000000000000000000000035a36ad0bb30d22d56",
          "blockHash": "0x738b2f413c1e6433c1d715d2b4fd658594ef68266617418ac9e6dd0b706ad296",
          "blockNumber": "0x723cb1",
          "transactionHash": "0xb71b373b2bdb2b0c0c95075df720adb81a57e60e62a67025c457a530da66042c",
          "transactionIndex": "0x78",
          "logIndex": "0x10e",
          "removed": false
        },
        {
          "address": "0x5eb9cc76c3506942c1c0ead70e877dd5e4f00cb0",
          "topics": [
            "0xddf252ad1be2c89b69c2b068fc378daa952ba7f163c4a11628f55a4df523b3ef",
            "0x0000000000000000000000000000000000000000000000000000000000000000",
            "0x000000000000000000000000c77f7fed3b5cc8249adc428c5f44c9063b9734b4"
          ],
          "data": "0x00000000000000000000000000000000000000000000000029a6e9f359e85cf2",
          "blockHash": "0x738b2f413c1e6433c1d715d2b4fd658594ef68266617418ac9e6dd0b706ad296",
          "blockNumber": "0x723cb1",
          "transactionHash": "0xb71b373b2bdb2b0c0c95075df720adb81a57e60e62a67025c457a530da66042c",
          "transactionIndex": "0x78",
          "logIndex": "0x10f",
          "removed": false
        },
        {
          "address": "0x5eb9cc76c3506942c1c0ead70e877dd5e4f00cb0",
          "topics": [
            "0x4afcb4a87cdbd9974efdb92ee48bc8d7cd0ae4bf217004db3d080cbaee652ca7"
          ],
          "data": "0x000000000000000000000000000000000000000000000000000000006785c9a000000000000000000000000000000000000000000000000000038dff69a6d7d20000000000000000000000000000000000000000000000000de0b6b3a7640000",
          "blockHash": "0x738b2f413c1e6433c1d715d2b4fd658594ef68266617418ac9e6dd0b706ad296",
          "blockNumber": "0x723cb1",
          "transactionHash": "0xb71b373b2bdb2b0c0c95075df720adb81a57e60e62a67025c457a530da66042c",
          "transactionIndex": "0x78",
          "logIndex": "0x110",
          "removed": false
        }
      ],
      "logsBloom": "0x00000000000000000000000000000000000000000000000000000000000000000000000000000000000000000000000000000000000000004000000000000000000000000000000000000008000000000000000000000000000000000000000000000000020000000000000004000800020000000000000000000010000000000000000000000000000000000000000000000000000000000000010000000000000000000000000000000000000000004000000000000000000000000000020000000002000000800000008000000000000000000000080000000000000020000000000000000000000000000000000000000000000000000000000000000000",
      "type": "0x2",
      "transactionHash": "0xb71b373b2bdb2b0c0c95075df720adb81a57e60e62a67025c457a530da66042c",
      "transactionIndex": "0x78",
      "blockHash": "0x738b2f413c1e6433c1d715d2b4fd658594ef68266617418ac9e6dd0b706ad296",
      "blockNumber": "0x723cb1",
      "gasUsed": "0xf82c",
      "effectiveGasPrice": "0x1afe64649",
      "from": "0xc77f7fed3b5cc8249adc428c5f44c9063b9734b4",
      "to": "0x5eb9cc76c3506942c1c0ead70e877dd5e4f00cb0",
      "contractAddress": null
    }
  ],
  "libraries": [],
  "pending": [],
  "returns": {},
  "timestamp": 1736821153,
  "chain": 11155111,
  "commit": "51a374b"
}