{
  "transactions": [
    {
      "hash": "0x2f366e6519ba76845261122e8d89099acd141ab5d2ee5a17b59bdf5191a1a127",
      "transactionType": "CALL",
      "contractName": null,
      "contractAddress": "0x8aafd3ede9adb0ff97c7aebce82a919afb1c8764",
      "function": "sell(uint256)",
      "arguments": [
        "1573747459000125307"
      ],
      "transaction": {
        "from": "0xc77f7fed3b5cc8249adc428c5f44c9063b9734b4",
        "to": "0x8aafd3ede9adb0ff97c7aebce82a919afb1c8764",
        "gas": "0x15dca",
        "value": "0x0",
        "input": "0xe4849b3200000000000000000000000000000000000000000000000015d712f9d3e0477b",
        "nonce": "0x1551",
        "chainId": "0xaa36a7"
      },
      "additionalContracts": [],
      "isFixedGasLimit": false
    }
  ],
  "receipts": [
    {
      "status": "0x1",
      "cumulativeGasUsed": "0x82488b",
      "logs": [
        {
          "address": "0x8aafd3ede9adb0ff97c7aebce82a919afb1c8764",
          "topics": [
            "0xddf252ad1be2c89b69c2b068fc378daa952ba7f163c4a11628f55a4df523b3ef",
            "0x000000000000000000000000c77f7fed3b5cc8249adc428c5f44c9063b9734b4",
            "0x0000000000000000000000000000000000000000000000000000000000000000"
          ],
          "data": "0x00000000000000000000000000000000000000000000000015aa5874c1cc0d91",
          "blockHash": "0xa1fd8da5ca728c9232ae015003b0c18069788da091e18a9669bf3b5934e2de61",
          "blockNumber": "0x731cb7",
          "transactionHash": "0x2f366e6519ba76845261122e8d89099acd141ab5d2ee5a17b59bdf5191a1a127",
          "transactionIndex": "0x74",
          "logIndex": "0xa0",
          "removed": false
        },
        {
          "address": "0x8aafd3ede9adb0ff97c7aebce82a919afb1c8764",
          "topics": [
            "0xddf252ad1be2c89b69c2b068fc378daa952ba7f163c4a11628f55a4df523b3ef",
            "0x000000000000000000000000c77f7fed3b5cc8249adc428c5f44c9063b9734b4",
            "0x000000000000000000000000c77f7fed3b5cc8249adc428c5f44c9063b9734b4"
          ],
          "data": "0x000000000000000000000000000000000000000000000000002cba85121439ea",
          "blockHash": "0xa1fd8da5ca728c9232ae015003b0c18069788da091e18a9669bf3b5934e2de61",
          "blockNumber": "0x731cb7",
          "transactionHash": "0x2f366e6519ba76845261122e8d89099acd141ab5d2ee5a17b59bdf5191a1a127",
          "transactionIndex": "0x74",
          "logIndex": "0xa1",
          "removed": false
        },
        {
          "address": "0x8aafd3ede9adb0ff97c7aebce82a919afb1c8764",
          "topics": [
            "0x4afcb4a87cdbd9974efdb92ee48bc8d7cd0ae4bf217004db3d080cbaee652ca7"
          ],
          "data": "0x000000000000000000000000000000000000000000000000000000006790557000000000000000000000000000000000000000000000000000120999fd2e6e82000000000000000000000000000000000000000000000000001c62afcb62d97d",
          "blockHash": "0xa1fd8da5ca728c9232ae015003b0c18069788da091e18a9669bf3b5934e2de61",
          "blockNumber": "0x731cb7",
          "transactionHash": "0x2f366e6519ba76845261122e8d89099acd141ab5d2ee5a17b59bdf5191a1a127",
          "transactionIndex": "0x74",
          "logIndex": "0xa2",
          "removed": false
        }
      ],
      "logsBloom": "0x00000000000000000000000000000000000000000600000000000000000000000000000000000000000000000000000000000000000000004000000000000000000000000000004000000008000000000000000000000000000000000000000000000000020000000000000000000800020000000000000000000010000000000000000000000000000000000000000000000000000000000000010000000000000000000000000000000000000000004000000000000000000000000000000000000002000000800000000000000000000000000000080000000000000020000000000000000000000000000000000000000000000000000000000000000000",
      "type": "0x2",
      "transactionHash": "0x2f366e6519ba76845261122e8d89099acd141ab5d2ee5a17b59bdf5191a1a127",
      "transactionIndex": "0x74",
      "blockHash": "0xa1fd8da5ca728c9232ae015003b0c18069788da091e18a9669bf3b5934e2de61",
      "blockNumber": "0x731cb7",
      "gasUsed": "0xfd3f",
      "effectiveGasPrice": "0xfa5289a7",
      "from": "0xc77f7fed3b5cc8249adc428c5f44c9063b9734b4",
      "to": "0x8aafd3ede9adb0ff97c7aebce82a919afb1c8764",
      "contractAddress": null
    }
  ],
  "libraries": [],
  "pending": [],
  "returns": {},
  "timestamp": 1737512305,
  "chain": 11155111,
  "commit": "1d2fb70"
}