{
  "transactions": [
    {
      "hash": "0x771fb4b92257fc0f43b697bd4549d7c745eaed6b1dee1efd38492e8f3d30f8bd",
      "transactionType": "CALL",
      "contractName": null,
      "contractAddress": "0x8aafd3ede9adb0ff97c7aebce82a919afb1c8764",
      "function": "sell(uint256)",
      "arguments": [
        "185725882"
      ],
      "transaction": {
        "from": "0xc77f7fed3b5cc8249adc428c5f44c9063b9734b4",
        "to": "0x8aafd3ede9adb0ff97c7aebce82a919afb1c8764",
        "gas": "0x15d88",
        "value": "0x0",
        "input": "0xe4849b32000000000000000000000000000000000000000000000000000000000b11f3ba",
        "nonce": "0x1097",
        "chainId": "0xaa36a7"
      },
      "additionalContracts": [],
      "isFixedGasLimit": false
    }
  ],
  "receipts": [
    {
      "status": "0x1",
      "cumulativeGasUsed": "0xa6eb52",
      "logs": [
        {
          "address": "0x8aafd3ede9adb0ff97c7aebce82a919afb1c8764",
          "topics": [
            "0xddf252ad1be2c89b69c2b068fc378daa952ba7f163c4a11628f55a4df523b3ef",
            "0x000000000000000000000000c77f7fed3b5cc8249adc428c5f44c9063b9734b4",
            "0x0000000000000000000000000000000000000000000000000000000000000000"
          ],
          "data": "0x000000000000000000000000000000000000000000000000000000000afb47cb",
          "blockHash": "0xc20c978618b6d4bb1f32dd443ea09a277628d21bb3701b24bb8b16bd0bdadd06",
          "blockNumber": "0x731727",
          "transactionHash": "0x771fb4b92257fc0f43b697bd4549d7c745eaed6b1dee1efd38492e8f3d30f8bd",
          "transactionIndex": "0x82",
          "logIndex": "0x9d",
          "removed": false
        },
        {
          "address": "0x8aafd3ede9adb0ff97c7aebce82a919afb1c8764",
          "topics": [
            "0xddf252ad1be2c89b69c2b068fc378daa952ba7f163c4a11628f55a4df523b3ef",
            "0x000000000000000000000000c77f7fed3b5cc8249adc428c5f44c9063b9734b4",
            "0x000000000000000000000000c77f7fed3b5cc8249adc428c5f44c9063b9734b4"
          ],
          "data": "0x000000000000000000000000000000000000000000000000000000000016abef",
          "blockHash": "0xc20c978618b6d4bb1f32dd443ea09a277628d21bb3701b24bb8b16bd0bdadd06",
          "blockNumber": "0x731727",
          "transactionHash": "0x771fb4b92257fc0f43b697bd4549d7c745eaed6b1dee1efd38492e8f3d30f8bd",
          "transactionIndex": "0x82",
          "logIndex": "0x9e",
          "removed": false
        },
        {
          "address": "0x8aafd3ede9adb0ff97c7aebce82a919afb1c8764",
          "topics": [
            "0x4afcb4a87cdbd9974efdb92ee48bc8d7cd0ae4bf217004db3d080cbaee652ca7"
          ],
          "data": "0x00000000000000000000000000000000000000000000000000000000679012980000000000000000000000000000000000000000000000000004fc2eaec8738b000000000000000000000000000000000000000000000000000000000003f9fe",
          "blockHash": "0xc20c978618b6d4bb1f32dd443ea09a277628d21bb3701b24bb8b16bd0bdadd06",
          "blockNumber": "0x731727",
          "transactionHash": "0x771fb4b92257fc0f43b697bd4549d7c745eaed6b1dee1efd38492e8f3d30f8bd",
          "transactionIndex": "0x82",
          "logIndex": "0x9f",
          "removed": false
        }
      ],
      "logsBloom": "0x00000000000000000000000000000000000000000600000000000000000000000000000000000000000000000000000000000000000000004000000000000000000000000000004000000008000000000000000000000000000000000000000000000000020000000000000000000800020000000000000000000010000000000000000000000000000000000000000000000000000000000000010000000000000000000000000000000000000000004000000000000000000000000000000000000002000000800000000000000000000000000000080000000000000020000000000000000000000000000000000000000000000000000000000000000000",
      "type": "0x2",
      "transactionHash": "0x771fb4b92257fc0f43b697bd4549d7c745eaed6b1dee1efd38492e8f3d30f8bd",
      "transactionIndex": "0x82",
      "blockHash": "0xc20c978618b6d4bb1f32dd443ea09a277628d21bb3701b24bb8b16bd0bdadd06",
      "blockNumber": "0x731727",
      "gasUsed": "0xfd0f",
      "effectiveGasPrice": "0x438452b9",
      "from": "0xc77f7fed3b5cc8249adc428c5f44c9063b9734b4",
      "to": "0x8aafd3ede9adb0ff97c7aebce82a919afb1c8764",
      "contractAddress": null
    }
  ],
  "libraries": [],
  "pending": [],
  "returns": {},
  "timestamp": 1737495193,
  "chain": 11155111,
  "commit": "1d2fb70"
}