{
  "transactions": [
    {
      "hash": "0x9e146bc4438fec41a593eb9918f4a5fd80f6f23caa9952286e0636e4515a5031",
      "transactionType": "CALL",
      "contractName": null,
      "contractAddress": "0x8aafd3ede9adb0ff97c7aebce82a919afb1c8764",
      "function": "sell(uint256)",
      "arguments": [
        "194401600"
      ],
      "transaction": {
        "from": "0xc77f7fed3b5cc8249adc428c5f44c9063b9734b4",
        "to": "0x8aafd3ede9adb0ff97c7aebce82a919afb1c8764",
        "gas": "0x14e6c",
        "value": "0x0",
        "input": "0xe4849b32000000000000000000000000000000000000000000000000000000000b965540",
        "nonce": "0xf81",
        "chainId": "0xaa36a7"
      },
      "additionalContracts": [],
      "isFixedGasLimit": false
    }
  ],
  "receipts": [
    {
      "status": "0x1",
      "cumulativeGasUsed": "0xf0b891",
      "logs": [
        {
          "address": "0x8aafd3ede9adb0ff97c7aebce82a919afb1c8764",
          "topics": [
            "0xddf252ad1be2c89b69c2b068fc378daa952ba7f163c4a11628f55a4df523b3ef",
            "0x000000000000000000000000c77f7fed3b5cc8249adc428c5f44c9063b9734b4",
            "0x0000000000000000000000000000000000000000000000000000000000000000"
          ],
          "data": "0x000000000000000000000000000000000000000000000000000000000b7e9a34",
          "blockHash": "0xcac53e4748f3be82cecfa0022c0f469b53a4d478028a5b4685fa1cce70275479",
          "blockNumber": "0x7315e6",
          "transactionHash": "0x9e146bc4438fec41a593eb9918f4a5fd80f6f23caa9952286e0636e4515a5031",
          "transactionIndex": "0x92",
          "logIndex": "0xf6",
          "removed": false
        },
        {
          "address": "0x8aafd3ede9adb0ff97c7aebce82a919afb1c8764",
          "topics": [
            "0xddf252ad1be2c89b69c2b068fc378daa952ba7f163c4a11628f55a4df523b3ef",
            "0x000000000000000000000000c77f7fed3b5cc8249adc428c5f44c9063b9734b4",
            "0x000000000000000000000000c77f7fed3b5cc8249adc428c5f44c9063b9734b4"
          ],
          "data": "0x000000000000000000000000000000000000000000000000000000000017bb0c",
          "blockHash": "0xcac53e4748f3be82cecfa0022c0f469b53a4d478028a5b4685fa1cce70275479",
          "blockNumber": "0x7315e6",
          "transactionHash": "0x9e146bc4438fec41a593eb9918f4a5fd80f6f23caa9952286e0636e4515a5031",
          "transactionIndex": "0x92",
          "logIndex": "0xf7",
          "removed": false
        },
        {
          "address": "0x8aafd3ede9adb0ff97c7aebce82a919afb1c8764",
          "topics": [
            "0x4afcb4a87cdbd9974efdb92ee48bc8d7cd0ae4bf217004db3d080cbaee652ca7"
          ],
          "data": "0x00000000000000000000000000000000000000000000000000000000679003740000000000000000000000000000000000000000000000000004c22b68529118000000000000000000000000000000000000000000000000000000000003f91b",
          "blockHash": "0xcac53e4748f3be82cecfa0022c0f469b53a4d478028a5b4685fa1cce70275479",
          "blockNumber": "0x7315e6",
          "transactionHash": "0x9e146bc4438fec41a593eb9918f4a5fd80f6f23caa9952286e0636e4515a5031",
          "transactionIndex": "0x92",
          "logIndex": "0xf8",
          "removed": false
        }
      ],
      "logsBloom": "0x00000000000000000000000000000000000000000600000000000000000000000000000000000000000000000000000000000000000000004000000000000000000000000000004000000008000000000000000000000000000000000000000000000000020000000000000000000800020000000000000000000010000000000000000000000000000000000000000000000000000000000000010000000000000000000000000000000000000000004000000000000000000000000000000000000002000000800000000000000000000000000000080000000000000020000000000000000000000000000000000000000000000000000000000000000000",
      "type": "0x2",
      "transactionHash": "0x9e146bc4438fec41a593eb9918f4a5fd80f6f23caa9952286e0636e4515a5031",
      "transactionIndex": "0x92",
      "blockHash": "0xcac53e4748f3be82cecfa0022c0f469b53a4d478028a5b4685fa1cce70275479",
      "blockNumber": "0x7315e6",
      "gasUsed": "0xf21f",
      "effectiveGasPrice": "0x672c5101",
      "from": "0xc77f7fed3b5cc8249adc428c5f44c9063b9734b4",
      "to": "0x8aafd3ede9adb0ff97c7aebce82a919afb1c8764",
      "contractAddress": null
    }
  ],
  "libraries": [],
  "pending": [],
  "returns": {},
  "timestamp": 1737491318,
  "chain": 11155111,
  "commit": "1d2fb70"
}