{
  "transactions": [
    {
      "hash": "0x6b3584d14b07d740fbf53ba09d1bdba81ac474b5fa3b9914d8fec89b64f705f3",
      "transactionType": "CALL",
      "contractName": null,
      "contractAddress": "0xbf4a322f1496e5c3d34a9bcdb4c60567b38c7de2",
      "function": "sell(uint256)",
      "arguments": [
        "986609128387324399815"
      ],
      "transaction": {
        "from": "0xc77f7fed3b5cc8249adc428c5f44c9063b9734b4",
        "to": "0xbf4a322f1496e5c3d34a9bcdb4c60567b38c7de2",
        "gas": "0x16fea",
        "value": "0x0",
        "input": "0xe4849b320000000000000000000000000000000000000000000000357bf3befd343bd0c7",
        "nonce": "0xa2f",
        "chainId": "0xaa36a7"
      },
      "additionalContracts": [],
      "isFixedGasLimit": false
    }
  ],
  "receipts": [
    {
      "status": "0x1",
      "cumulativeGasUsed": "0xb565b4",
      "logs": [
        {
          "address": "0xbf4a322f1496e5c3d34a9bcdb4c60567b38c7de2",
          "topics": [
            "0xddf252ad1be2c89b69c2b068fc378daa952ba7f163c4a11628f55a4df523b3ef",
            "0x000000000000000000000000c77f7fed3b5cc8249adc428c5f44c9063b9734b4",
            "0x0000000000000000000000000000000000000000000000000000000000000000"
          ],
          "data": "0x0000000000000000000000000000000000000000000000357bf3befd343bd0c7",
          "blockHash": "0xd9a19a1af5c5e826d747b554f31d90bc131bf9f60e1a09d1968e3359777ddc86",
          "blockNumber": "0x7259fe",
          "transactionHash": "0x6b3584d14b07d740fbf53ba09d1bdba81ac474b5fa3b9914d8fec89b64f705f3",
          "transactionIndex": "0x5a",
          "logIndex": "0x91",
          "removed": false
        },
        {
          "address": "0xbf4a322f1496e5c3d34a9bcdb4c60567b38c7de2",
          "topics": [
            "0x4afcb4a87cdbd9974efdb92ee48bc8d7cd0ae4bf217004db3d080cbaee652ca7"
          ],
          "data": "0x0000000000000000000000000000000000000000000000000000000067872a380000000000000000000000000000000000000000000000000003936a00e3823a0000000000000000000000000000000000000000000000000dc7e3f16ebf6aa2",
          "blockHash": "0xd9a19a1af5c5e826d747b554f31d90bc131bf9f60e1a09d1968e3359777ddc86",
          "blockNumber": "0x7259fe",
          "transactionHash": "0x6b3584d14b07d740fbf53ba09d1bdba81ac474b5fa3b9914d8fec89b64f705f3",
          "transactionIndex": "0x5a",
          "logIndex": "0x92",
          "removed": false
        }
      ],
      "logsBloom": "0x00000000000000000000000000000000000000000000000000000000000000000000000000000000000000000000000000000000000000004000000000000000000000000000000000000008000000000000001000000000000000000000000000000000020000000000000000000800020000000000000000000010000000000000000000000000000000000000000000000000000008000000010000000000000000000000000000000000000000004000000000000000000000000000000000000002000000800000000000001000000000000000080000000000000020000000000000000000000000000000000000000000000000000000000000000000",
      "type": "0x2",
      "transactionHash": "0x6b3584d14b07d740fbf53ba09d1bdba81ac474b5fa3b9914d8fec89b64f705f3",
      "transactionIndex": "0x5a",
      "blockHash": "0xd9a19a1af5c5e826d747b554f31d90bc131bf9f60e1a09d1968e3359777ddc86",
      "blockNumber": "0x7259fe",
      "gasUsed": "0xfb91",
      "effectiveGasPrice": "0x6c59f4ce4",
      "from": "0xc77f7fed3b5cc8249adc428c5f44c9063b9734b4",
      "to": "0xbf4a322f1496e5c3d34a9bcdb4c60567b38c7de2",
      "contractAddress": null
    }
  ],
  "libraries": [],
  "pending": [],
  "returns": {},
  "timestamp": 1736911417,
  "chain": 11155111,
  "commit": "51a374b"
}