{
  "transactions": [
    {
      "hash": "0xb974e62634de1d7d42fb70090cfe450a9408447ac79167f2e557edb52ba6c590",
      "transactionType": "CALL",
      "contractName": null,
      "contractAddress": "0xd7bc75898e513accccf720a874d44dab5a4b6223",
      "function": "sell(uint256)",
      "arguments": [
        "9929992742677270171"
      ],
      "transaction": {
        "from": "0xc77f7fed3b5cc8249adc428c5f44c9063b9734b4",
        "to": "0xd7bc75898e513accccf720a874d44dab5a4b6223",
        "gas": "0x15b6b",
        "value": "0x0",
        "input": "0xe4849b3200000000000000000000000000000000000000000000000089ce6bc9c17c4e9b",
        "nonce": "0xa9",
        "chainId": "0xaa36a7"
      },
      "additionalContracts": [],
      "isFixedGasLimit": false
    }
  ],
  "receipts": [
    {
      "status": "0x1",
      "cumulativeGasUsed": "0x2ed305",
      "logs": [
        {
          "address": "0xd7bc75898e513accccf720a874d44dab5a4b6223",
          "topics": [
            "0xddf252ad1be2c89b69c2b068fc378daa952ba7f163c4a11628f55a4df523b3ef",
            "0x000000000000000000000000c77f7fed3b5cc8249adc428c5f44c9063b9734b4",
            "0x0000000000000000000000000000000000000000000000000000000000000000"
          ],
          "data": "0x00000000000000000000000000000000000000000000000089ce6bc9c17c4e9b",
          "blockHash": "0x47a2b85ab370d1830967f813072039d9124c83f6ff748b08a980de9e49ce0004",
          "blockNumber": "0x72391d",
          "transactionHash": "0xb974e62634de1d7d42fb70090cfe450a9408447ac79167f2e557edb52ba6c590",
          "transactionIndex": "0x1b",
          "logIndex": "0x2b",
          "removed": false
        },
        {
          "address": "0xd7bc75898e513accccf720a874d44dab5a4b6223",
          "topics": [
            "0x4afcb4a87cdbd9974efdb92ee48bc8d7cd0ae4bf217004db3d080cbaee652ca7"
          ],
          "data": "0x0000000000000000000000000000000000000000000000000000000067859ea400000000000000000000000000000000000000000000000000038d7f84c8f3450000000000000000000000000000000000000000000000000023474f493d2799",
          "blockHash": "0x47a2b85ab370d1830967f813072039d9124c83f6ff748b08a980de9e49ce0004",
          "blockNumber": "0x72391d",
          "transactionHash": "0xb974e62634de1d7d42fb70090cfe450a9408447ac79167f2e557edb52ba6c590",
          "transactionIndex": "0x1b",
          "logIndex": "0x2c",
          "removed": false
        }
      ],
      "logsBloom": "0x00000000000000000000000000000000000000000000000000000000000000000000000000000000000000000000000000000000000000004000000000000000000000000000000000000008000000000000000000000000000000000000000000000000020000000000000000000800020000000000000000000010000000000000000000000000000000000000000000000000000000000000010000000000000000000000000000000000000000004000001000000000000000000000000000000002000000800000000000004000000000000000080000000000000020000000000000000000000000000000000000000000080000000000000000000000",
      "type": "0x2",
      "transactionHash": "0xb974e62634de1d7d42fb70090cfe450a9408447ac79167f2e557edb52ba6c590",
      "transactionIndex": "0x1b",
      "blockHash": "0x47a2b85ab370d1830967f813072039d9124c83f6ff748b08a980de9e49ce0004",
      "blockNumber": "0x72391d",
      "gasUsed": "0xfb87",
      "effectiveGasPrice": "0x3cc4bd68",
      "from": "0xc77f7fed3b5cc8249adc428c5f44c9063b9734b4",
      "to": "0xd7bc75898e513accccf720a874d44dab5a4b6223",
      "contractAddress": null
    }
  ],
  "libraries": [],
  "pending": [],
  "returns": {},
  "timestamp": 1736810151,
  "chain": 11155111,
  "commit": "51a374b"
}