{
  "transactions": [
    {
      "hash": "0xa57e3f8af4877de11f2f72b6448286bded1efbf08cc962d7cd1bc11b8083131a",
      "transactionType": "CALL",
      "contractName": null,
      "contractAddress": "0x5eb9cc76c3506942c1c0ead70e877dd5e4f00cb0",
      "function": "buy(address)",
      "arguments": [
        "0xC77f7fed3b5Cc8249aDc428c5F44C9063B9734b4"
      ],
      "transaction": {
        "from": "0xc77f7fed3b5cc8249adc428c5f44c9063b9734b4",
        "to": "0x5eb9cc76c3506942c1c0ead70e877dd5e4f00cb0",
        "gas": "0x1b30c",
        "value": "0xde0b6b3a7640000",
        "input": "0xf088d547000000000000000000000000c77f7fed3b5cc8249adc428c5f44c9063b9734b4",
        "nonce": "0x43a",
        "chainId": "0xaa36a7"
      },
      "additionalContracts": [],
      "isFixedGasLimit": false
    }
  ],
  "receipts": [
    {
      "status": "0x1",
      "cumulativeGasUsed": "0xa64d0c",
      "logs": [
        {
          "address": "0x5eb9cc76c3506942c1c0ead70e877dd5e4f00cb0",
          "topics": [
            "0xddf252ad1be2c89b69c2b068fc378daa952ba7f163c4a11628f55a4df523b3ef",
            "0x0000000000000000000000000000000000000000000000000000000000000000",
            "0x000000000000000000000000c77f7fed3b5cc8249adc428c5f44c9063b9734b4"
          ],
          "data": "0x00000000000000000000000000000000000000000000003574e17bec08389b83",
          "blockHash": "0xecfa402e30c878a5017fbe0210ce1ba3bbe967f950c11afea71cb2e36152b99c",
          "blockNumber": "0x725055",
          "transactionHash": "0xa57e3f8af4877de11f2f72b6448286bded1efbf08cc962d7cd1bc11b8083131a",
          "transactionIndex": "0x7f",
          "logIndex": "0xab",
          "removed": false
        },
        {
          "address": "0x5eb9cc76c3506942c1c0ead70e877dd5e4f00cb0",
          "topics": [
            "0xddf252ad1be2c89b69c2b068fc378daa952ba7f163c4a11628f55a4df523b3ef",
            "0x0000000000000000000000000000000000000000000000000000000000000000",
            "0x000000000000000000000000c77f7fed3b5cc8249adc428c5f44c9063b9734b4"
          ],
          "data": "0x0000000000000000000000000000000000000000000000002982c6d7ad1751f8",
          "blockHash": "0xecfa402e30c878a5017fbe0210ce1ba3bbe967f950c11afea71cb2e36152b99c",
          "blockNumber": "0x725055",
          "transactionHash": "0xa57e3f8af4877de11f2f72b6448286bded1efbf08cc962d7cd1bc11b8083131a",
          "transactionIndex": "0x7f",
          "logIndex": "0xac",
          "removed": false
        },
        {
          "address": "0x5eb9cc76c3506942c1c0ead70e877dd5e4f00cb0",
          "topics": [
            "0x4afcb4a87cdbd9974efdb92ee48bc8d7cd0ae4bf217004db3d080cbaee652ca7"
          ],
          "data": "0x000000000000000000000000000000000000000000000000000000006786b5c8000000000000000000000000000000000000000000000000000391179bbe12840000000000000000000000000000000000000000000000000de0b6b3a7640000",
          "blockHash": "0xecfa402e30c878a5017fbe0210ce1ba3bbe967f950c11afea71cb2e36152b99c",
          "blockNumber": "0x725055",
          "transactionHash": "0xa57e3f8af4877de11f2f72b6448286bded1efbf08cc962d7cd1bc11b8083131a",
          "transactionIndex": "0x7f",
          "logIndex": "0xad",
          "removed": false
        }
      ],
      "logsBloom": "0x00000000000000000000000000000000000000000000000000000000000000000000000000000000000000000000000000000000000000004000000000000000000000000000000000000008000000000000000000000000000000000000000000000000020000000000000004000800020000000000000000000010000000000000000000000000000000000000000000000000000000000000010000000000000000000000000000000000000000004000000000000000000000000000020000000002000000800000008000000000000000000000080000000000000020000000000000000000000000000000000000000000000000000000000000000000",
      "type": "0x2",
      "transactionHash": "0xa57e3f8af4877de11f2f72b6448286bded1efbf08cc962d7cd1bc11b8083131a",
      "transactionIndex": "0x7f",
      "blockHash": "0xecfa402e30c878a5017fbe0210ce1ba3bbe967f950c11afea71cb2e36152b99c",
      "blockNumber": "0x725055",
      "gasUsed": "0x13af8",
      "effectiveGasPrice": "0x252c04793",
      "from": "0xc77f7fed3b5cc8249adc428c5f44c9063b9734b4",
      "to": "0x5eb9cc76c3506942c1c0ead70e877dd5e4f00cb0",
      "contractAddress": null
    }
  ],
  "libraries": [],
  "pending": [],
  "returns": {},
  "timestamp": 1736881609,
  "chain": 11155111,
  "commit": "51a374b"
}