{
  "transactions": [
    {
      "hash": "0xcaf648fc3d07ed3c33050372114f511af0c05459e4146b4003be13d23aa001a7",
      "transactionType": "CALL",
      "contractName": null,
      "contractAddress": "0x270e88f8683660553e8ba4eb2ad7c91a1710d769",
      "function": "sell(uint256)",
      "arguments": [
        "951675861106822548497"
      ],
      "transaction": {
        "from": "0xc77f7fed3b5cc8249adc428c5f44c9063b9734b4",
        "to": "0x270e88f8683660553e8ba4eb2ad7c91a1710d769",
        "gas": "0x16fec",
        "value": "0x0",
        "input": "0xe4849b320000000000000000000000000000000000000000000000339727d97b5a250c11",
        "nonce": "0x5e3",
        "chainId": "0xaa36a7"
      },
      "additionalContracts": [],
      "isFixedGasLimit": false
    }
  ],
  "receipts": [
    {
      "status": "0x1",
      "cumulativeGasUsed": "0xa6d8a9",
      "logs": [
        {
          "address": "0x270e88f8683660553e8ba4eb2ad7c91a1710d769",
          "topics": [
            "0xddf252ad1be2c89b69c2b068fc378daa952ba7f163c4a11628f55a4df523b3ef",
            "0x000000000000000000000000c77f7fed3b5cc8249adc428c5f44c9063b9734b4",
            "0x0000000000000000000000000000000000000000000000000000000000000000"
          ],
          "data": "0x0000000000000000000000000000000000000000000000339727d97b5a250c11",
          "blockHash": "0x4568d8d810afb31f1a96fade7af7d191e14476eb1c4077df27857dab83f56faf",
          "blockNumber": "0x7252a7",
          "transactionHash": "0xcaf648fc3d07ed3c33050372114f511af0c05459e4146b4003be13d23aa001a7",
          "transactionIndex": "0x59",
          "logIndex": "0xc7",
          "removed": false
        },
        {
          "address": "0x270e88f8683660553e8ba4eb2ad7c91a1710d769",
          "topics": [
            "0x4afcb4a87cdbd9974efdb92ee48bc8d7cd0ae4bf217004db3d080cbaee652ca7"
          ],
          "data": "0x000000000000000000000000000000000000000000000000000000006786d1dc0000000000000000000000000000000000000000000000000003b5485da034d80000000000000000000000000000000000000000000000000dc83e54b70a33d8",
          "blockHash": "0x4568d8d810afb31f1a96fade7af7d191e14476eb1c4077df27857dab83f56faf",
          "blockNumber": "0x7252a7",
          "transactionHash": "0xcaf648fc3d07ed3c33050372114f511af0c05459e4146b4003be13d23aa001a7",
          "transactionIndex": "0x59",
          "logIndex": "0xc8",
          "removed": false
        }
      ],
      "logsBloom": "0x00000000000000000000000000000000000000000000000000000000000000000000000000000000000000000000000020000000000000004000000000000000000000000000000000000008000000000000000000000000000000000000000000000000020000000000000000000800020000000000000000000010000000000000000000010000000000000000000000000000000000000000010000000000000000000000000000000000000000004000000000000000000000000000000000000002000000800000000000000000000000000000080000008000000020000000000000000000000000000000000000000000000000000000000000000000",
      "type": "0x2",
      "transactionHash": "0xcaf648fc3d07ed3c33050372114f511af0c05459e4146b4003be13d23aa001a7",
      "transactionIndex": "0x59",
      "blockHash": "0x4568d8d810afb31f1a96fade7af7d191e14476eb1c4077df27857dab83f56faf",
      "blockNumber": "0x7252a7",
      "gasUsed": "0xfb93",
      "effectiveGasPrice": "0x34a25e69c",
      "from": "0xc77f7fed3b5cc8249adc428c5f44c9063b9734b4",
      "to": "0x270e88f8683660553e8ba4eb2ad7c91a1710d769",
      "contractAddress": null
    }
  ],
  "libraries": [],
  "pending": [],
  "returns": {},
  "timestamp": 1736888797,
  "chain": 11155111,
  "commit": "51a374b"
}