{
  "transactions": [
    {
      "hash": "0xaa969f7179c440db15686e6038f83190fb6bee96a2641a1f5a6cacc456bce69b",
      "transactionType": "CALL",
      "contractName": null,
      "contractAddress": "0xbf4a322f1496e5c3d34a9bcdb4c60567b38c7de2",
      "function": "buy(address)",
      "arguments": [
        "0xC77f7fed3b5Cc8249aDc428c5F44C9063B9734b4"
      ],
      "transaction": {
        "from": "0xc77f7fed3b5cc8249adc428c5f44c9063b9734b4",
        "to": "0xbf4a322f1496e5c3d34a9bcdb4c60567b38c7de2",
        "gas": "0x1b309",
        "value": "0xde0b6b3a7640000",
        "input": "0xf088d547000000000000000000000000c77f7fed3b5cc8249adc428c5f44c9063b9734b4",
        "nonce": "0xda2",
        "chainId": "0xaa36a7"
      },
      "additionalContracts": [],
      "isFixedGasLimit": false
    }
  ],
  "receipts": [
    {
      "status": "0x1",
      "cumulativeGasUsed": "0x1234c9e",
      "logs": [
        {
          "address": "0xbf4a322f1496e5c3d34a9bcdb4c60567b38c7de2",
          "topics": [
            "0xddf252ad1be2c89b69c2b068fc378daa952ba7f163c4a11628f55a4df523b3ef",
            "0x0000000000000000000000000000000000000000000000000000000000000000",
            "0x000000000000000000000000c77f7fed3b5cc8249adc428c5f44c9063b9734b4"
          ],
          "data": "0x000000000000000000000000000000000000000000000034ae1c1167e97d2831",
          "blockHash": "0xd5807e70ac51df63a36bbf1532add40faa5394d35080e958e980a8e27582f739",
          "blockNumber": "0x726678",
          "transactionHash": "0xaa969f7179c440db15686e6038f83190fb6bee96a2641a1f5a6cacc456bce69b",
          "transactionIndex": "0x80",
          "logIndex": "0xc4",
          "removed": false
        },
        {
          "address": "0xbf4a322f1496e5c3d34a9bcdb4c60567b38c7de2",
          "topics": [
            "0xddf252ad1be2c89b69c2b068fc378daa952ba7f163c4a11628f55a4df523b3ef",
            "0x0000000000000000000000000000000000000000000000000000000000000000",
            "0x000000000000000000000000c77f7fed3b5cc8249adc428c5f44c9063b9734b4"
          ],
          "data": "0x00000000000000000000000000000000000000000000000028e86c94c9dc94d7",
          "blockHash": "0xd5807e70ac51df63a36bbf1532add40faa5394d35080e958e980a8e27582f739",
          "blockNumber": "0x726678",
          "transactionHash": "0xaa969f7179c440db15686e6038f83190fb6bee96a2641a1f5a6cacc456bce69b",
          "transactionIndex": "0x80",
          "logIndex": "0xc5",
          "removed": false
        },
        {
          "address": "0xbf4a322f1496e5c3d34a9bcdb4c60567b38c7de2",
          "topics": [
            "0x4afcb4a87cdbd9974efdb92ee48bc8d7cd0ae4bf217004db3d080cbaee652ca7"
          ],
          "data": "0x000000000000000000000000000000000000000000000000000000006787c07400000000000000000000000000000000000000000000000000039e8f29d7ead30000000000000000000000000000000000000000000000000de0b6b3a7640000",
          "blockHash": "0xd5807e70ac51df63a36bbf1532add40faa5394d35080e958e980a8e27582f739",
          "blockNumber": "0x726678",
          "transactionHash": "0xaa969f7179c440db15686e6038f83190fb6bee96a2641a1f5a6cacc456bce69b",
          "transactionIndex": "0x80",
          "logIndex": "0xc6",
          "removed": false
        }
      ],
      "logsBloom": "0x00000000000000000000000000000000000000000000000000000000000000000000000000000000000000000000000000000000000000004000000000000000000000000000000000000008000000000000001000000000000000000000000000000000020000000000000000000800020000000000000000000010000000000000000000000000000000000000000000000000000008000000010000000000000000000000000000000000000000004000000000000000000000000000000000000002000000800000000000001000000000000000080000000000000020000000000000000000000000000000000000000000000000000000000000000000",
      "type": "0x2",
      "transactionHash": "0xaa969f7179c440db15686e6038f83190fb6bee96a2641a1f5a6cacc456bce69b",
      "transactionIndex": "0x80",
      "blockHash": "0xd5807e70ac51df63a36bbf1532add40faa5394d35080e958e980a8e27582f739",
      "blockNumber": "0x726678",
      "gasUsed": "0x13af6",
      "effectiveGasPrice": "0x86a86c1c",
      "from": "0xc77f7fed3b5cc8249adc428c5f44c9063b9734b4",
      "to": "0xbf4a322f1496e5c3d34a9bcdb4c60567b38c7de2",
      "contractAddress": null
    }
  ],
  "libraries": [],
  "pending": [],
  "returns": {},
  "timestamp": 1736949878,
  "chain": 11155111,
  "commit": "51a374b"
}