{
  "transactions": [
    {
      "hash": "0x317b2c5061a58476a87b9d386bad1000cab2c50522ce49b9709e159e988b5fa8",
      "transactionType": "CALL",
      "contractName": null,
      "contractAddress": "0x270e88f8683660553e8ba4eb2ad7c91a1710d769",
      "function": "buy(address)",
      "arguments": [
        "0xC77f7fed3b5Cc8249aDc428c5F44C9063B9734b4"
      ],
      "transaction": {
        "from": "0xc77f7fed3b5cc8249adc428c5f44c9063b9734b4",
        "to": "0x270e88f8683660553e8ba4eb2ad7c91a1710d769",
        "gas": "0x1b30c",
        "value": "0xde0b6b3a7640000",
        "input": "0xf088d547000000000000000000000000c77f7fed3b5cc8249adc428c5f44c9063b9734b4",
        "nonce": "0x594",
        "chainId": "0xaa36a7"
      },
      "additionalContracts": [],
      "isFixedGasLimit": false
    }
  ],
  "receipts": [
    {
      "status": "0x1",
      "cumulativeGasUsed": "0x79bbcf",
      "logs": [
        {
          "address": "0x270e88f8683660553e8ba4eb2ad7c91a1710d769",
          "topics": [
            "0xddf252ad1be2c89b69c2b068fc378daa952ba7f163c4a11628f55a4df523b3ef",
            "0x0000000000000000000000000000000000000000000000000000000000000000",
            "0x000000000000000000000000c77f7fed3b5cc8249adc428c5f44c9063b9734b4"
          ],
          "data": "0x0000000000000000000000000000000000000000000000340f753d702ac46bad",
          "blockHash": "0x1dd733245961e45f75f30d9e3965729ffdffd4761e4dcf8ac12e5767b2d0c1d3",
          "blockNumber": "0x725249",
          "transactionHash": "0x317b2c5061a58476a87b9d386bad1000cab2c50522ce49b9709e159e988b5fa8",
          "transactionIndex": "0x42",
          "logIndex": "0x8c",
          "removed": false
        },
        {
          "address": "0x270e88f8683660553e8ba4eb2ad7c91a1710d769",
          "topics": [
            "0xddf252ad1be2c89b69c2b068fc378daa952ba7f163c4a11628f55a4df523b3ef",
            "0x0000000000000000000000000000000000000000000000000000000000000000",
            "0x000000000000000000000000c77f7fed3b5cc8249adc428c5f44c9063b9734b4"
          ],
          "data": "0x000000000000000000000000000000000000000000000000286d39c82a6f7033",
          "blockHash": "0x1dd733245961e45f75f30d9e3965729ffdffd4761e4dcf8ac12e5767b2d0c1d3",
          "blockNumber": "0x725249",
          "transactionHash": "0x317b2c5061a58476a87b9d386bad1000cab2c50522ce49b9709e159e988b5fa8",
          "transactionIndex": "0x42",
          "logIndex": "0x8d",
          "removed": false
        },
        {
          "address": "0x270e88f8683660553e8ba4eb2ad7c91a1710d769",
          "topics": [
            "0x4afcb4a87cdbd9974efdb92ee48bc8d7cd0ae4bf217004db3d080cbaee652ca7"
          ],
          "data": "0x000000000000000000000000000000000000000000000000000000006786cd5c0000000000000000000000000000000000000000000000000003a9af2d8881340000000000000000000000000000000000000000000000000de0b6b3a7640000",
          "blockHash": "0x1dd733245961e45f75f30d9e3965729ffdffd4761e4dcf8ac12e5767b2d0c1d3",
          "blockNumber": "0x725249",
          "transactionHash": "0x317b2c5061a58476a87b9d386bad1000cab2c50522ce49b9709e159e988b5fa8",
          "transactionIndex": "0x42",
          "logIndex": "0x8e",
          "removed": false
        }
      ],
      "logsBloom": "0x00000000000000000000000000000000000000000000000000000000000000000000000000000000000000000000000020000000000000004000000000000000000000000000000000000008000000000000000000000000000000000000000000000000020000000000000000000800020000000000000000000010000000000000000000010000000000000000000000000000000000000000010000000000000000000000000000000000000000004000000000000000000000000000000000000002000000800000000000000000000000000000080000008000000020000000000000000000000000000000000000000000000000000000000000000000",
      "type": "0x2",
      "transactionHash": "0x317b2c5061a58476a87b9d386bad1000cab2c50522ce49b9709e159e988b5fa8",
      "transactionIndex": "0x42",
      "blockHash": "0x1dd733245961e45f75f30d9e3965729ffdffd4761e4dcf8ac12e5767b2d0c1d3",
      "blockNumber": "0x725249",
      "gasUsed": "0x13af8",
      "effectiveGasPrice": "0x4e8930203",
      "from": "0xc77f7fed3b5cc8249adc428c5f44c9063b9734b4",
      "to": "0x270e88f8683660553e8ba4eb2ad7c91a1710d769",
      "contractAddress": null
    }
  ],
  "libraries": [],
  "pending": [],
  "returns": {},
  "timestamp": 1736887644,
  "chain": 11155111,
  "commit": "51a374b"
}