{
  "transactions": [
    {
      "hash": "0x84b0353d8c93f2f6db5c2bf649db3121e6ce242e481fbdca6b301d9bbb792f52",
      "transactionType": "CALL",
      "contractName": null,
      "contractAddress": "0x9a940ef65f8bf33332aa4faea921454828f0c80a",
      "function": "borrowMore(uint256)",
      "arguments": [
        "474131058840"
      ],
      "transaction": {
        "from": "0xf66076775ad1f36dd12c1f1b10c21d1aadf0d6de",
        "to": "0x9a940ef65f8bf33332aa4faea921454828f0c80a",
        "gas": "0x1db3c",
        "value": "0x0",
        "input": "0x9d0bf2e90000000000000000000000000000000000000000000000000000006e6469d098",
        "nonce": "0x58",
        "chainId": "0xaa36a7"
      },
      "additionalContracts": [],
      "isFixedGasLimit": false
    }
  ],
  "receipts": [
    {
      "status": "0x1",
      "cumulativeGasUsed": "0xca98d8",
      "logs": [
        {
          "address": "0x9a940ef65f8bf33332aa4faea921454828f0c80a",
          "topics": [
            "0x03bbe564cb1b78e43195eeadbde99e5b89b19345862807fcfb59f884e4165e25"
          ],
          "data": "0x00000000000000000000000038818e389773445cd73adbaa37b8b169f458c6e100000000000000000000000000000000000000000000000000000000087a6655",
          "blockHash": "0x4a5f446d33e00d102319b21a40f2391b8e6cb44bd1c52f7976ac79d3e81b4c2e",
          "blockNumber": "0x73d13d",
          "transactionHash": "0x84b0353d8c93f2f6db5c2bf649db3121e6ce242e481fbdca6b301d9bbb792f52",
          "transactionIndex": "0x96",
          "logIndex": "0xc1",
          "removed": false
        },
        {
          "address": "0x9a940ef65f8bf33332aa4faea921454828f0c80a",
          "topics": [
            "0x03bbe564cb1b78e43195eeadbde99e5b89b19345862807fcfb59f884e4165e25"
          ],
          "data": "0x000000000000000000000000f66076775ad1f36dd12c1f1b10c21d1aadf0d6de0000000000000000000000000000000000000000000000000000006d2d8c7da9",
          "blockHash": "0x4a5f446d33e00d102319b21a40f2391b8e6cb44bd1c52f7976ac79d3e81b4c2e",
          "blockNumber": "0x73d13d",
          "transactionHash": "0x84b0353d8c93f2f6db5c2bf649db3121e6ce242e481fbdca6b301d9bbb792f52",
          "transactionIndex": "0x96",
          "logIndex": "0xc2",
          "removed": false
        },
        {
          "address": "0x9a940ef65f8bf33332aa4faea921454828f0c80a",
          "topics": [
            "0xaec00f5213a37254bc68a26b0685d1a5b2bf513e1e587c94c7df7f4a62b56c9c"
          ],
          "data": "0x000000000000000000000000000000000000000000000000ebd1ba2d746911070000000000000000000000000000000000000000000000000062c47cb93d9ace0000000000000000000000000000000000000000000000000062c47cb93d9ace000000000000000000000000000000000000000000000000ebd1ba2d74691107",
          "blockHash": "0x4a5f446d33e00d102319b21a40f2391b8e6cb44bd1c52f7976ac79d3e81b4c2e",
          "blockNumber": "0x73d13d",
          "transactionHash": "0x84b0353d8c93f2f6db5c2bf649db3121e6ce242e481fbdca6b301d9bbb792f52",
          "transactionIndex": "0x96",
          "logIndex": "0xc3",
          "removed": false
        },
        {
          "address": "0x9a940ef65f8bf33332aa4faea921454828f0c80a",
          "topics": [
            "0x4afcb4a87cdbd9974efdb92ee48bc8d7cd0ae4bf217004db3d080cbaee652ca7"
          ],
          "data": "0x00000000000000000000000000000000000000000000000000000000679912500000000000000000000000000000000000000000000000000005df00ed5d193d000000000000000000000000000000000000000000000000000000001c42aa72",
          "blockHash": "0x4a5f446d33e00d102319b21a40f2391b8e6cb44bd1c52f7976ac79d3e81b4c2e",
          "blockNumber": "0x73d13d",
          "transactionHash": "0x84b0353d8c93f2f6db5c2bf649db3121e6ce242e481fbdca6b301d9bbb792f52",
          "transactionIndex": "0x96",
          "logIndex": "0xc4",
          "removed": false
        }
      ],
      "logsBloom": "0x80000000000000000000000000000100400000000000000000000000000000000008000000000000000000000000000000002000000000004000000000000000000000000000000000000000000000000000000000000000000000000000000000000000000000000000800000000000020000000000000000000000000000000000000000000000000000000000000000000000000000000000000000000000000000000000000000000400000000004000000000000000000000001000000000000000000000000000000000000000000000000000000000000000000000000000000000000000000000200000000000000000000000000000000000000000",
      "type": "0x2",
      "transactionHash": "0x84b0353d8c93f2f6db5c2bf649db3121e6ce242e481fbdca6b301d9bbb792f52",
      "transactionIndex": "0x96",
      "blockHash": "0x4a5f446d33e00d102319b21a40f2391b8e6cb44bd1c52f7976ac79d3e81b4c2e",
      "blockNumber": "0x73d13d",
      "gasUsed": "0x15810",
      "effectiveGasPrice": "0x4be8efd7",
      "from": "0xf66076775ad1f36dd12c1f1b10c21d1aadf0d6de",
      "to": "0x9a940ef65f8bf33332aa4faea921454828f0c80a",
      "contractAddress": null
    }
  ],
  "libraries": [],
  "pending": [],
  "returns": {},
  "timestamp": 1738084945,
  "chain": 11155111,
  "commit": "f5162e9"
}