{
  "transactions": [
    {
      "hash": "0x6bf38df20c123a9b132d0c8cea97160ca3ed5139ace3d144653abf69766dcbd1",
      "transactionType": "CALL",
      "contractName": null,
      "contractAddress": "0xbf4a322f1496e5c3d34a9bcdb4c60567b38c7de2",
      "function": "buy(address)",
      "arguments": [
        "0xC77f7fed3b5Cc8249aDc428c5F44C9063B9734b4"
      ],
      "transaction": {
        "from": "0xc77f7fed3b5cc8249adc428c5f44c9063b9734b4",
        "to": "0xbf4a322f1496e5c3d34a9bcdb4c60567b38c7de2",
        "gas": "0x1b309",
        "value": "0xde0b6b3a7640000",
        "input": "0xf088d547000000000000000000000000c77f7fed3b5cc8249adc428c5f44c9063b9734b4",
        "nonce": "0xb52",
        "chainId": "0xaa36a7"
      },
      "additionalContracts": [],
      "isFixedGasLimit": false
    }
  ],
  "receipts": [
    {
      "status": "0x1",
      "cumulativeGasUsed": "0x1a7228f",
      "logs": [
        {
          "address": "0xbf4a322f1496e5c3d34a9bcdb4c60567b38c7de2",
          "topics": [
            "0xddf252ad1be2c89b69c2b068fc378daa952ba7f163c4a11628f55a4df523b3ef",
            "0x0000000000000000000000000000000000000000000000000000000000000000",
            "0x000000000000000000000000c77f7fed3b5cc8249adc428c5f44c9063b9734b4"
          ],
          "data": "0x0000000000000000000000000000000000000000000000351bc9b4f4261bad8a",
          "blockHash": "0x17f3c318ee22456b103bceea320716231ca557dbe84f859e429f6b7326ed7802",
          "blockNumber": "0x725b59",
          "transactionHash": "0x6bf38df20c123a9b132d0c8cea97160ca3ed5139ace3d144653abf69766dcbd1",
          "transactionIndex": "0xb8",
          "logIndex": "0x102",
          "removed": false
        },
        {
          "address": "0xbf4a322f1496e5c3d34a9bcdb4c60567b38c7de2",
          "topics": [
            "0xddf252ad1be2c89b69c2b068fc378daa952ba7f163c4a11628f55a4df523b3ef",
            "0x0000000000000000000000000000000000000000000000000000000000000000",
            "0x000000000000000000000000c77f7fed3b5cc8249adc428c5f44c9063b9734b4"
          ],
          "data": "0x000000000000000000000000000000000000000000000000293d97d35430e1a0",
          "blockHash": "0x17f3c318ee22456b103bceea320716231ca557dbe84f859e429f6b7326ed7802",
          "blockNumber": "0x725b59",
          "transactionHash": "0x6bf38df20c123a9b132d0c8cea97160ca3ed5139ace3d144653abf69766dcbd1",
          "transactionIndex": "0xb8",
          "logIndex": "0x103",
          "removed": false
        },
        {
          "address": "0xbf4a322f1496e5c3d34a9bcdb4c60567b38c7de2",
          "topics": [
            "0x4afcb4a87cdbd9974efdb92ee48bc8d7cd0ae4bf217004db3d080cbaee652ca7"
          ],
          "data": "0x0000000000000000000000000000000000000000000000000000000067873a8800000000000000000000000000000000000000000000000000039715ad9a737a0000000000000000000000000000000000000000000000000de0b6b3a7640000",
          "blockHash": "0x17f3c318ee22456b103bceea320716231ca557dbe84f859e429f6b7326ed7802",
          "blockNumber": "0x725b59",
          "transactionHash": "0x6bf38df20c123a9b132d0c8cea97160ca3ed5139ace3d144653abf69766dcbd1",
          "transactionIndex": "0xb8",
          "logIndex": "0x104",
          "removed": false
        }
      ],
      "logsBloom": "0x00000000000000000000000000000000000000000000000000000000000000000000000000000000000000000000000000000000000000004000000000000000000000000000000000000008000000000000001000000000000000000000000000000000020000000000000000000800020000000000000000000010000000000000000000000000000000000000000000000000000008000000010000000000000000000000000000000000000000004000000000000000000000000000000000000002000000800000000000001000000000000000080000000000000020000000000000000000000000000000000000000000000000000000000000000000",
      "type": "0x2",
      "transactionHash": "0x6bf38df20c123a9b132d0c8cea97160ca3ed5139ace3d144653abf69766dcbd1",
      "transactionIndex": "0xb8",
      "blockHash": "0x17f3c318ee22456b103bceea320716231ca557dbe84f859e429f6b7326ed7802",
      "blockNumber": "0x725b59",
      "gasUsed": "0x13af6",
      "effectiveGasPrice": "0x3f64ea29",
      "from": "0xc77f7fed3b5cc8249adc428c5f44c9063b9734b4",
      "to": "0xbf4a322f1496e5c3d34a9bcdb4c60567b38c7de2",
      "contractAddress": null
    }
  ],
  "libraries": [],
  "pending": [],
  "returns": {},
  "timestamp": 1736915593,
  "chain": 11155111,
  "commit": "51a374b"
}