{
  "transactions": [
    {
      "hash": "0x333dc376b7cb237c89c0b078f7d499c7960295045e65ede97025a9dfc0cf65ed",
      "transactionType": "CALL",
      "contractName": null,
      "contractAddress": "0x8aafd3ede9adb0ff97c7aebce82a919afb1c8764",
      "function": "sell(uint256)",
      "arguments": [
        "176665675"
      ],
      "transaction": {
        "from": "0xc77f7fed3b5cc8249adc428c5f44c9063b9734b4",
        "to": "0x8aafd3ede9adb0ff97c7aebce82a919afb1c8764",
        "gas": "0x14e6c",
        "value": "0x0",
        "input": "0xe4849b32000000000000000000000000000000000000000000000000000000000a87b44b",
        "nonce": "0x1259",
        "chainId": "0xaa36a7"
      },
      "additionalContracts": [],
      "isFixedGasLimit": false
    }
  ],
  "receipts": [
    {
      "status": "0x1",
      "cumulativeGasUsed": "0xd31cb1",
      "logs": [
        {
          "address": "0x8aafd3ede9adb0ff97c7aebce82a919afb1c8764",
          "topics": [
            "0xddf252ad1be2c89b69c2b068fc378daa952ba7f163c4a11628f55a4df523b3ef",
            "0x000000000000000000000000c77f7fed3b5cc8249adc428c5f44c9063b9734b4",
            "0x0000000000000000000000000000000000000000000000000000000000000000"
          ],
          "data": "0x000000000000000000000000000000000000000000000000000000000a72237e",
          "blockHash": "0x3c3db5f8132754a186045413c8e45ba6fa500ba40c11770982ecf60c18bddef9",
          "blockNumber": "0x73193d",
          "transactionHash": "0x333dc376b7cb237c89c0b078f7d499c7960295045e65ede97025a9dfc0cf65ed",
          "transactionIndex": "0x7d",
          "logIndex": "0x92",
          "removed": false
        },
        {
          "address": "0x8aafd3ede9adb0ff97c7aebce82a919afb1c8764",
          "topics": [
            "0xddf252ad1be2c89b69c2b068fc378daa952ba7f163c4a11628f55a4df523b3ef",
            "0x000000000000000000000000c77f7fed3b5cc8249adc428c5f44c9063b9734b4",
            "0x000000000000000000000000c77f7fed3b5cc8249adc428c5f44c9063b9734b4"
          ],
          "data": "0x00000000000000000000000000000000000000000000000000000000001590cd",
          "blockHash": "0x3c3db5f8132754a186045413c8e45ba6fa500ba40c11770982ecf60c18bddef9",
          "blockNumber": "0x73193d",
          "transactionHash": "0x333dc376b7cb237c89c0b078f7d499c7960295045e65ede97025a9dfc0cf65ed",
          "transactionIndex": "0x7d",
          "logIndex": "0x93",
          "removed": false
        },
        {
          "address": "0x8aafd3ede9adb0ff97c7aebce82a919afb1c8764",
          "topics": [
            "0x4afcb4a87cdbd9974efdb92ee48bc8d7cd0ae4bf217004db3d080cbaee652ca7"
          ],
          "data": "0x0000000000000000000000000000000000000000000000000000000067902bac00000000000000000000000000000000000000000000000000053d8ea09da0f8000000000000000000000000000000000000000000000000000000000003f9f0",
          "blockHash": "0x3c3db5f8132754a186045413c8e45ba6fa500ba40c11770982ecf60c18bddef9",
          "blockNumber": "0x73193d",
          "transactionHash": "0x333dc376b7cb237c89c0b078f7d499c7960295045e65ede97025a9dfc0cf65ed",
          "transactionIndex": "0x7d",
          "logIndex": "0x94",
          "removed": false
        }
      ],
      "logsBloom": "0x00000000000000000000000000000000000000000600000000000000000000000000000000000000000000000000000000000000000000004000000000000000000000000000004000000008000000000000000000000000000000000000000000000000020000000000000000000800020000000000000000000010000000000000000000000000000000000000000000000000000000000000010000000000000000000000000000000000000000004000000000000000000000000000000000000002000000800000000000000000000000000000080000000000000020000000000000000000000000000000000000000000000000000000000000000000",
      "type": "0x2",
      "transactionHash": "0x333dc376b7cb237c89c0b078f7d499c7960295045e65ede97025a9dfc0cf65ed",
      "transactionIndex": "0x7d",
      "blockHash": "0x3c3db5f8132754a186045413c8e45ba6fa500ba40c11770982ecf60c18bddef9",
      "blockNumber": "0x73193d",
      "gasUsed": "0xf21f",
      "effectiveGasPrice": "0x3beb76c7",
      "from": "0xc77f7fed3b5cc8249adc428c5f44c9063b9734b4",
      "to": "0x8aafd3ede9adb0ff97c7aebce82a919afb1c8764",
      "contractAddress": null
    }
  ],
  "libraries": [],
  "pending": [],
  "returns": {},
  "timestamp": 1737501614,
  "chain": 11155111,
  "commit": "1d2fb70"
}