{
  "transactions": [
    {
      "hash": "0x26912889c889da8b238ed9f73b5403bea7560bfcd6821c0709c936aa75c41215",
      "transactionType": "CALL",
      "contractName": null,
      "contractAddress": "0xbf4a322f1496e5c3d34a9bcdb4c60567b38c7de2",
      "function": "sell(uint256)",
      "arguments": [
        "978109788566025757888"
      ],
      "transaction": {
        "from": "0xc77f7fed3b5cc8249adc428c5f44c9063b9734b4",
        "to": "0xbf4a322f1496e5c3d34a9bcdb4c60567b38c7de2",
        "gas": "0x15b68",
        "value": "0x0",
        "input": "0xe4849b3200000000000000000000000000000000000000000000003506000673fa6564c0",
        "nonce": "0xca5",
        "chainId": "0xaa36a7"
      },
      "additionalContracts": [],
      "isFixedGasLimit": false
    }
  ],
  "receipts": [
    {
      "status": "0x1",
      "cumulativeGasUsed": "0x37195b",
      "logs": [
        {
          "address": "0xbf4a322f1496e5c3d34a9bcdb4c60567b38c7de2",
          "topics": [
            "0xddf252ad1be2c89b69c2b068fc378daa952ba7f163c4a11628f55a4df523b3ef",
            "0x000000000000000000000000c77f7fed3b5cc8249adc428c5f44c9063b9734b4",
            "0x0000000000000000000000000000000000000000000000000000000000000000"
          ],
          "data": "0x00000000000000000000000000000000000000000000003506000673fa6564c0",
          "blockHash": "0xea72c85b1cb7aff6a0e4242db8ccc001b758f6ceac6892497361ac230a2e9bbc",
          "blockNumber": "0x725cf0",
          "transactionHash": "0x26912889c889da8b238ed9f73b5403bea7560bfcd6821c0709c936aa75c41215",
          "transactionIndex": "0x16",
          "logIndex": "0x30",
          "removed": false
        },
        {
          "address": "0xbf4a322f1496e5c3d34a9bcdb4c60567b38c7de2",
          "topics": [
            "0x4afcb4a87cdbd9974efdb92ee48bc8d7cd0ae4bf217004db3d080cbaee652ca7"
          ],
          "data": "0x0000000000000000000000000000000000000000000000000000000067874db400000000000000000000000000000000000000000000000000039b5e4f5fd7f40000000000000000000000000000000000000000000000000dc7e3ddabe7d898",
          "blockHash": "0xea72c85b1cb7aff6a0e4242db8ccc001b758f6ceac6892497361ac230a2e9bbc",
          "blockNumber": "0x725cf0",
          "transactionHash": "0x26912889c889da8b238ed9f73b5403bea7560bfcd6821c0709c936aa75c41215",
          "transactionIndex": "0x16",
          "logIndex": "0x31",
          "removed": false
        }
      ],
      "logsBloom": "0x00000000000000000000000000000000000000000000000000000000000000000000000000000000000000000000000000000000000000004000000000000000000000000000000000000008000000000000001000000000000000000000000000000000020000000000000000000800020000000000000000000010000000000000000000000000000000000000000000000000000008000000010000000000000000000000000000000000000000004000000000000000000000000000000000000002000000800000000000001000000000000000080000000000000020000000000000000000000000000000000000000000000000000000000000000000",
      "type": "0x2",
      "transactionHash": "0x26912889c889da8b238ed9f73b5403bea7560bfcd6821c0709c936aa75c41215",
      "transactionIndex": "0x16",
      "blockHash": "0xea72c85b1cb7aff6a0e4242db8ccc001b758f6ceac6892497361ac230a2e9bbc",
      "blockNumber": "0x725cf0",
      "gasUsed": "0xfb85",
      "effectiveGasPrice": "0x250a47b1f",
      "from": "0xc77f7fed3b5cc8249adc428c5f44c9063b9734b4",
      "to": "0xbf4a322f1496e5c3d34a9bcdb4c60567b38c7de2",
      "contractAddress": null
    }
  ],
  "libraries": [],
  "pending": [],
  "returns": {},
  "timestamp": 1736920500,
  "chain": 11155111,
  "commit": "51a374b"
}