{
  "transactions": [
    {
      "hash": "0xf462ea890a8d11642ea61349f6318929d0f327cc8457f869bec73180e07aec62",
      "transactionType": "CALL",
      "contractName": null,
      "contractAddress": "0xbf4a322f1496e5c3d34a9bcdb4c60567b38c7de2",
      "function": "buy(address)",
      "arguments": [
        "0xC77f7fed3b5Cc8249aDc428c5F44C9063B9734b4"
      ],
      "transaction": {
        "from": "0xc77f7fed3b5cc8249adc428c5f44c9063b9734b4",
        "to": "0xbf4a322f1496e5c3d34a9bcdb4c60567b38c7de2",
        "gas": "0x1b309",
        "value": "0xde0b6b3a7640000",
        "input": "0xf088d547000000000000000000000000c77f7fed3b5cc8249adc428c5f44c9063b9734b4",
        "nonce": "0xab8",
        "chainId": "0xaa36a7"
      },
      "additionalContracts": [],
      "isFixedGasLimit": false
    }
  ],
  "receipts": [
    {
      "status": "0x1",
      "cumulativeGasUsed": "0x97f493",
      "logs": [
        {
          "address": "0xbf4a322f1496e5c3d34a9bcdb4c60567b38c7de2",
          "topics": [
            "0xddf252ad1be2c89b69c2b068fc378daa952ba7f163c4a11628f55a4df523b3ef",
            "0x0000000000000000000000000000000000000000000000000000000000000000",
            "0x000000000000000000000000c77f7fed3b5cc8249adc428c5f44c9063b9734b4"
          ],
          "data": "0x000000000000000000000000000000000000000000000035389cae29865efad7",
          "blockHash": "0xaf10a1d113c4432666c7c611af8e3ecec14055be772d5f2e5b7aea655096a2c6",
          "blockNumber": "0x725aa4",
          "transactionHash": "0xf462ea890a8d11642ea61349f6318929d0f327cc8457f869bec73180e07aec62",
          "transactionIndex": "0x68",
          "logIndex": "0x9c",
          "removed": false
        },
        {
          "address": "0xbf4a322f1496e5c3d34a9bcdb4c60567b38c7de2",
          "topics": [
            "0xddf252ad1be2c89b69c2b068fc378daa952ba7f163c4a11628f55a4df523b3ef",
            "0x0000000000000000000000000000000000000000000000000000000000000000",
            "0x000000000000000000000000c77f7fed3b5cc8249adc428c5f44c9063b9734b4"
          ],
          "data": "0x0000000000000000000000000000000000000000000000002953f9d9a01a11ac",
          "blockHash": "0xaf10a1d113c4432666c7c611af8e3ecec14055be772d5f2e5b7aea655096a2c6",
          "blockNumber": "0x725aa4",
          "transactionHash": "0xf462ea890a8d11642ea61349f6318929d0f327cc8457f869bec73180e07aec62",
          "transactionIndex": "0x68",
          "logIndex": "0x9d",
          "removed": false
        },
        {
          "address": "0xbf4a322f1496e5c3d34a9bcdb4c60567b38c7de2",
          "topics": [
            "0x4afcb4a87cdbd9974efdb92ee48bc8d7cd0ae4bf217004db3d080cbaee652ca7"
          ],
          "data": "0x000000000000000000000000000000000000000000000000000000006787320000000000000000000000000000000000000000000000000000039523ea2644aa0000000000000000000000000000000000000000000000000de0b6b3a7640000",
          "blockHash": "0xaf10a1d113c4432666c7c611af8e3ecec14055be772d5f2e5b7aea655096a2c6",
          "blockNumber": "0x725aa4",
          "transactionHash": "0xf462ea890a8d11642ea61349f6318929d0f327cc8457f869bec73180e07aec62",
          "transactionIndex": "0x68",
          "logIndex": "0x9e",
          "removed": false
        }
      ],
      "logsBloom": "0x00000000000000000000000000000000000000000000000000000000000000000000000000000000000000000000000000000000000000004000000000000000000000000000000000000008000000000000001000000000000000000000000000000000020000000000000000000800020000000000000000000010000000000000000000000000000000000000000000000000000008000000010000000000000000000000000000000000000000004000000000000000000000000000000000000002000000800000000000001000000000000000080000000000000020000000000000000000000000000000000000000000000000000000000000000000",
      "type": "0x2",
      "transactionHash": "0xf462ea890a8d11642ea61349f6318929d0f327cc8457f869bec73180e07aec62",
      "transactionIndex": "0x68",
      "blockHash": "0xaf10a1d113c4432666c7c611af8e3ecec14055be772d5f2e5b7aea655096a2c6",
      "blockNumber": "0x725aa4",
      "gasUsed": "0x13af6",
      "effectiveGasPrice": "0x13efcf1dd",
      "from": "0xc77f7fed3b5cc8249adc428c5f44c9063b9734b4",
      "to": "0xbf4a322f1496e5c3d34a9bcdb4c60567b38c7de2",
      "contractAddress": null
    }
  ],
  "libraries": [],
  "pending": [],
  "returns": {},
  "timestamp": 1736913409,
  "chain": 11155111,
  "commit": "51a374b"
}