{
  "transactions": [
    {
      "hash": "0xc25260e97bebcc96ef169f215d7779c95dfa9c556af3d964adc72a8265656134",
      "transactionType": "CALL",
      "contractName": null,
      "contractAddress": "0x8aafd3ede9adb0ff97c7aebce82a919afb1c8764",
      "function": "sell(uint256)",
      "arguments": [
        "22179411919"
      ],
      "transaction": {
        "from": "0xc77f7fed3b5cc8249adc428c5f44c9063b9734b4",
        "to": "0x8aafd3ede9adb0ff97c7aebce82a919afb1c8764",
        "gas": "0x1722a",
        "value": "0x0",
        "input": "0xe4849b320000000000000000000000000000000000000000000000000000000529fef7cf",
        "nonce": "0x1230",
        "chainId": "0xaa36a7"
      },
      "additionalContracts": [],
      "isFixedGasLimit": false
    }
  ],
  "receipts": [
    {
      "status": "0x1",
      "cumulativeGasUsed": "0x7442da",
      "logs": [
        {
          "address": "0x8aafd3ede9adb0ff97c7aebce82a919afb1c8764",
          "topics": [
            "0xddf252ad1be2c89b69c2b068fc378daa952ba7f163c4a11628f55a4df523b3ef",
            "0x000000000000000000000000c77f7fed3b5cc8249adc428c5f44c9063b9734b4",
            "0x0000000000000000000000000000000000000000000000000000000000000000"
          ],
          "data": "0x000000000000000000000000000000000000000000000000000000051f6b8530",
          "blockHash": "0xb1af0089b7cd056814040d20f47e697bfcc99f2a918e10d605ce005b226e89c4",
          "blockNumber": "0x73190e",
          "transactionHash": "0xc25260e97bebcc96ef169f215d7779c95dfa9c556af3d964adc72a8265656134",
          "transactionIndex": "0x60",
          "logIndex": "0x76",
          "removed": false
        },
        {
          "address": "0x8aafd3ede9adb0ff97c7aebce82a919afb1c8764",
          "topics": [
            "0xddf252ad1be2c89b69c2b068fc378daa952ba7f163c4a11628f55a4df523b3ef",
            "0x000000000000000000000000c77f7fed3b5cc8249adc428c5f44c9063b9734b4",
            "0x000000000000000000000000c77f7fed3b5cc8249adc428c5f44c9063b9734b4"
          ],
          "data": "0x000000000000000000000000000000000000000000000000000000000a93729f",
          "blockHash": "0xb1af0089b7cd056814040d20f47e697bfcc99f2a918e10d605ce005b226e89c4",
          "blockNumber": "0x73190e",
          "transactionHash": "0xc25260e97bebcc96ef169f215d7779c95dfa9c556af3d964adc72a8265656134",
          "transactionIndex": "0x60",
          "logIndex": "0x77",
          "removed": false
        },
        {
          "address": "0x8aafd3ede9adb0ff97c7aebce82a919afb1c8764",
          "topics": [
            "0x4afcb4a87cdbd9974efdb92ee48bc8d7cd0ae4bf217004db3d080cbaee652ca7"
          ],
          "data": "0x0000000000000000000000000000000000000000000000000000000067902978000000000000000000000000000000000000000000000000000537be91236b310000000000000000000000000000000000000000000000000000000001f10acf",
          "blockHash": "0xb1af0089b7cd056814040d20f47e697bfcc99f2a918e10d605ce005b226e89c4",
          "blockNumber": "0x73190e",
          "transactionHash": "0xc25260e97bebcc96ef169f215d7779c95dfa9c556af3d964adc72a8265656134",
          "transactionIndex": "0x60",
          "logIndex": "0x78",
          "removed": false
        }
      ],
      "logsBloom": "0x00000000000000000000000000000000000000000600000000000000000000000000000000000000000000000000000000000000000000004000000000000000000000000000004000000008000000000000000000000000000000000000000000000000020000000000000000000800020000000000000000000010000000000000000000000000000000000000000000000000000000000000010000000000000000000000000000000000000000004000000000000000000000000000000000000002000000800000000000000000000000000000080000000000000020000000000000000000000000000000000000000000000000000000000000000000",
      "type": "0x2",
      "transactionHash": "0xc25260e97bebcc96ef169f215d7779c95dfa9c556af3d964adc72a8265656134",
      "transactionIndex": "0x60",
      "blockHash": "0xb1af0089b7cd056814040d20f47e697bfcc99f2a918e10d605ce005b226e89c4",
      "blockNumber": "0x73190e",
      "gasUsed": "0xfd1b",
      "effectiveGasPrice": "0x508093d0",
      "from": "0xc77f7fed3b5cc8249adc428c5f44c9063b9734b4",
      "to": "0x8aafd3ede9adb0ff97c7aebce82a919afb1c8764",
      "contractAddress": null
    }
  ],
  "libraries": [],
  "pending": [],
  "returns": {},
  "timestamp": 1737501049,
  "chain": 11155111,
  "commit": "1d2fb70"
}