{
  "transactions": [
    {
      "hash": "0x48f2504bbc6b68dd7f2f3b3744fea0687c7c2f1903a162965c209cc8a5458f2f",
      "transactionType": "CALL",
      "contractName": null,
      "contractAddress": "0x8aafd3ede9adb0ff97c7aebce82a919afb1c8764",
      "function": "sell(uint256)",
      "arguments": [
        "748016536317330054195"
      ],
      "transaction": {
        "from": "0xc77f7fed3b5cc8249adc428c5f44c9063b9734b4",
        "to": "0x8aafd3ede9adb0ff97c7aebce82a919afb1c8764",
        "gas": "0x17270",
        "value": "0x0",
        "input": "0xe4849b320000000000000000000000000000000000000000000000288cd0949e8089dc33",
        "nonce": "0xea6",
        "chainId": "0xaa36a7"
      },
      "additionalContracts": [],
      "isFixedGasLimit": false
    }
  ],
  "receipts": [
    {
      "status": "0x1",
      "cumulativeGasUsed": "0xc4533e",
      "logs": [
        {
          "address": "0x8aafd3ede9adb0ff97c7aebce82a919afb1c8764",
          "topics": [
            "0xddf252ad1be2c89b69c2b068fc378daa952ba7f163c4a11628f55a4df523b3ef",
            "0x000000000000000000000000c77f7fed3b5cc8249adc428c5f44c9063b9734b4",
            "0x0000000000000000000000000000000000000000000000000000000000000000"
          ],
          "data": "0x00000000000000000000000000000000000000000000002839c4ac019609c802",
          "blockHash": "0x1cc41e58162805ce0cdbe7c871c78c0a5a6f7477898e54906365fc6e7505a40e",
          "blockNumber": "0x731409",
          "transactionHash": "0x48f2504bbc6b68dd7f2f3b3744fea0687c7c2f1903a162965c209cc8a5458f2f",
          "transactionIndex": "0x98",
          "logIndex": "0xb2",
          "removed": false
        },
        {
          "address": "0x8aafd3ede9adb0ff97c7aebce82a919afb1c8764",
          "topics": [
            "0xddf252ad1be2c89b69c2b068fc378daa952ba7f163c4a11628f55a4df523b3ef",
            "0x000000000000000000000000c77f7fed3b5cc8249adc428c5f44c9063b9734b4",
            "0x000000000000000000000000c77f7fed3b5cc8249adc428c5f44c9063b9734b4"
          ],
          "data": "0x000000000000000000000000000000000000000000000000530be89cea801431",
          "blockHash": "0x1cc41e58162805ce0cdbe7c871c78c0a5a6f7477898e54906365fc6e7505a40e",
          "blockNumber": "0x731409",
          "transactionHash": "0x48f2504bbc6b68dd7f2f3b3744fea0687c7c2f1903a162965c209cc8a5458f2f",
          "transactionIndex": "0x98",
          "logIndex": "0xb3",
          "removed": false
        },
        {
          "address": "0x8aafd3ede9adb0ff97c7aebce82a919afb1c8764",
          "topics": [
            "0x4afcb4a87cdbd9974efdb92ee48bc8d7cd0ae4bf217004db3d080cbaee652ca7"
          ],
          "data": "0x00000000000000000000000000000000000000000000000000000000678fed180000000000000000000000000000000000000000000000000004b7c7eef547c40000000000000000000000000000000000000000000000000dc834aa1aa549eb",
          "blockHash": "0x1cc41e58162805ce0cdbe7c871c78c0a5a6f7477898e54906365fc6e7505a40e",
          "blockNumber": "0x731409",
          "transactionHash": "0x48f2504bbc6b68dd7f2f3b3744fea0687c7c2f1903a162965c209cc8a5458f2f",
          "transactionIndex": "0x98",
          "logIndex": "0xb4",
          "removed": false
        }
      ],
      "logsBloom": "0x00000000000000000000000000000000000000000600000000000000000000000000000000000000000000000000000000000000000000004000000000000000000000000000004000000008000000000000000000000000000000000000000000000000020000000000000000000800020000000000000000000010000000000000000000000000000000000000000000000000000000000000010000000000000000000000000000000000000000004000000000000000000000000000000000000002000000800000000000000000000000000000080000000000000020000000000000000000000000000000000000000000000000000000000000000000",
      "type": "0x2",
      "transactionHash": "0x48f2504bbc6b68dd7f2f3b3744fea0687c7c2f1903a162965c209cc8a5458f2f",
      "transactionIndex": "0x98",
      "blockHash": "0x1cc41e58162805ce0cdbe7c871c78c0a5a6f7477898e54906365fc6e7505a40e",
      "blockNumber": "0x731409",
      "gasUsed": "0xfd4b",
      "effectiveGasPrice": "0x7b873c1d",
      "from": "0xc77f7fed3b5cc8249adc428c5f44c9063b9734b4",
      "to": "0x8aafd3ede9adb0ff97c7aebce82a919afb1c8764",
      "contractAddress": null
    }
  ],
  "libraries": [],
  "pending": [],
  "returns": {},
  "timestamp": 1737485593,
  "chain": 11155111,
  "commit": "51a374b"
}