{
  "transactions": [
    {
      "hash": "0x5e2d3ff45edd09edf76d18c570a22fd9fad51ddb9be5cf10776bd4aebdbba833",
      "transactionType": "CALL",
      "contractName": null,
      "contractAddress": "0x8aafd3ede9adb0ff97c7aebce82a919afb1c8764",
      "function": "sell(uint256)",
      "arguments": [
        "21822879334"
      ],
      "transaction": {
        "from": "0xc77f7fed3b5cc8249adc428c5f44c9063b9734b4",
        "to": "0x8aafd3ede9adb0ff97c7aebce82a919afb1c8764",
        "gas": "0x1722a",
        "value": "0x0",
        "input": "0xe4849b320000000000000000000000000000000000000000000000000000000514beb666",
        "nonce": "0x12c6",
        "chainId": "0xaa36a7"
      },
      "additionalContracts": [],
      "isFixedGasLimit": false
    }
  ],
  "receipts": [
    {
      "status": "0x1",
      "cumulativeGasUsed": "0x9dee2e",
      "logs": [
        {
          "address": "0x8aafd3ede9adb0ff97c7aebce82a919afb1c8764",
          "topics": [
            "0xddf252ad1be2c89b69c2b068fc378daa952ba7f163c4a11628f55a4df523b3ef",
            "0x000000000000000000000000c77f7fed3b5cc8249adc428c5f44c9063b9734b4",
            "0x0000000000000000000000000000000000000000000000000000000000000000"
          ],
          "data": "0x000000000000000000000000000000000000000000000000000000050a56c96c",
          "blockHash": "0x5a620e0e1028cf922545a57f25a7191164c9517d5e68595cd6a053b8c671317a",
          "blockNumber": "0x7319c0",
          "transactionHash": "0x5e2d3ff45edd09edf76d18c570a22fd9fad51ddb9be5cf10776bd4aebdbba833",
          "transactionIndex": "0x7d",
          "logIndex": "0xa6",
          "removed": false
        },
        {
          "address": "0x8aafd3ede9adb0ff97c7aebce82a919afb1c8764",
          "topics": [
            "0xddf252ad1be2c89b69c2b068fc378daa952ba7f163c4a11628f55a4df523b3ef",
            "0x000000000000000000000000c77f7fed3b5cc8249adc428c5f44c9063b9734b4",
            "0x000000000000000000000000c77f7fed3b5cc8249adc428c5f44c9063b9734b4"
          ],
          "data": "0x000000000000000000000000000000000000000000000000000000000a67ecfa",
          "blockHash": "0x5a620e0e1028cf922545a57f25a7191164c9517d5e68595cd6a053b8c671317a",
          "blockNumber": "0x7319c0",
          "transactionHash": "0x5e2d3ff45edd09edf76d18c570a22fd9fad51ddb9be5cf10776bd4aebdbba833",
          "transactionIndex": "0x7d",
          "logIndex": "0xa7",
          "removed": false
        },
        {
          "address": "0x8aafd3ede9adb0ff97c7aebce82a919afb1c8764",
          "topics": [
            "0x4afcb4a87cdbd9974efdb92ee48bc8d7cd0ae4bf217004db3d080cbaee652ca7"
          ],
          "data": "0x00000000000000000000000000000000000000000000000000000000679031d000000000000000000000000000000000000000000000000000054d8b337076950000000000000000000000000000000000000000000000000000000001f1089c",
          "blockHash": "0x5a620e0e1028cf922545a57f25a7191164c9517d5e68595cd6a053b8c671317a",
          "blockNumber": "0x7319c0",
          "transactionHash": "0x5e2d3ff45edd09edf76d18c570a22fd9fad51ddb9be5cf10776bd4aebdbba833",
          "transactionIndex": "0x7d",
          "logIndex": "0xa8",
          "removed": false
        }
      ],
      "logsBloom": "0x00000000000000000000000000000000000000000600000000000000000000000000000000000000000000000000000000000000000000004000000000000000000000000000004000000008000000000000000000000000000000000000000000000000020000000000000000000800020000000000000000000010000000000000000000000000000000000000000000000000000000000000010000000000000000000000000000000000000000004000000000000000000000000000000000000002000000800000000000000000000000000000080000000000000020000000000000000000000000000000000000000000000000000000000000000000",
      "type": "0x2",
      "transactionHash": "0x5e2d3ff45edd09edf76d18c570a22fd9fad51ddb9be5cf10776bd4aebdbba833",
      "transactionIndex": "0x7d",
      "blockHash": "0x5a620e0e1028cf922545a57f25a7191164c9517d5e68595cd6a053b8c671317a",
      "blockNumber": "0x7319c0",
      "gasUsed": "0xfd1b",
      "effectiveGasPrice": "0x4003096e",
      "from": "0xc77f7fed3b5cc8249adc428c5f44c9063b9734b4",
      "to": "0x8aafd3ede9adb0ff97c7aebce82a919afb1c8764",
      "contractAddress": null
    }
  ],
  "libraries": [],
  "pending": [],
  "returns": {},
  "timestamp": 1737503185,
  "chain": 11155111,
  "commit": "1d2fb70"
}