{
  "transactions": [
    {
      "hash": "0x30c3e26feae436beef6d2754c58768ce79dbbb05070b7d052375d90b218316d4",
      "transactionType": "CALL",
      "contractName": null,
      "contractAddress": "0xbf4a322f1496e5c3d34a9bcdb4c60567b38c7de2",
      "function": "sell(uint256)",
      "arguments": [
        "984436606924806524015"
      ],
      "transaction": {
        "from": "0xc77f7fed3b5cc8249adc428c5f44c9063b9734b4",
        "to": "0xbf4a322f1496e5c3d34a9bcdb4c60567b38c7de2",
        "gas": "0x16fea",
        "value": "0x0",
        "input": "0xe4849b320000000000000000000000000000000000000000000000355dcd663abbf18c6f",
        "nonce": "0xacf",
        "chainId": "0xaa36a7"
      },
      "additionalContracts": [],
      "isFixedGasLimit": false
    }
  ],
  "receipts": [
    {
      "status": "0x1",
      "cumulativeGasUsed": "0xd0170c",
      "logs": [
        {
          "address": "0xbf4a322f1496e5c3d34a9bcdb4c60567b38c7de2",
          "topics": [
            "0xddf252ad1be2c89b69c2b068fc378daa952ba7f163c4a11628f55a4df523b3ef",
            "0x000000000000000000000000c77f7fed3b5cc8249adc428c5f44c9063b9734b4",
            "0x0000000000000000000000000000000000000000000000000000000000000000"
          ],
          "data": "0x0000000000000000000000000000000000000000000000355dcd663abbf18c6f",
          "blockHash": "0xdb3607981ed263e91a3ff984e957c658a82e0d318882f666d50bcd0709140598",
          "blockNumber": "0x725ac0",
          "transactionHash": "0x30c3e26feae436beef6d2754c58768ce79dbbb05070b7d052375d90b218316d4",
          "transactionIndex": "0x8c",
          "logIndex": "0xb2",
          "removed": false
        },
        {
          "address": "0xbf4a322f1496e5c3d34a9bcdb4c60567b38c7de2",
          "topics": [
            "0x4afcb4a87cdbd9974efdb92ee48bc8d7cd0ae4bf217004db3d080cbaee652ca7"
          ],
          "data": "0x00000000000000000000000000000000000000000000000000000000678733500000000000000000000000000000000000000000000000000003956f28ece6550000000000000000000000000000000000000000000000000dc7e3ec61aa6aa1",
          "blockHash": "0xdb3607981ed263e91a3ff984e957c658a82e0d318882f666d50bcd0709140598",
          "blockNumber": "0x725ac0",
          "transactionHash": "0x30c3e26feae436beef6d2754c58768ce79dbbb05070b7d052375d90b218316d4",
          "transactionIndex": "0x8c",
          "logIndex": "0xb3",
          "removed": false
        }
      ],
      "logsBloom": "0x00000000000000000000000000000000000000000000000000000000000000000000000000000000000000000000000000000000000000004000000000000000000000000000000000000008000000000000001000000000000000000000000000000000020000000000000000000800020000000000000000000010000000000000000000000000000000000000000000000000000008000000010000000000000000000000000000000000000000004000000000000000000000000000000000000002000000800000000000001000000000000000080000000000000020000000000000000000000000000000000000000000000000000000000000000000",
      "type": "0x2",
      "transactionHash": "0x30c3e26feae436beef6d2754c58768ce79dbbb05070b7d052375d90b218316d4",
      "transactionIndex": "0x8c",
      "blockHash": "0xdb3607981ed263e91a3ff984e957c658a82e0d318882f666d50bcd0709140598",
      "blockNumber": "0x725ac0",
      "gasUsed": "0xfb91",
      "effectiveGasPrice": "0xd838f0cc",
      "from": "0xc77f7fed3b5cc8249adc428c5f44c9063b9734b4",
      "to": "0xbf4a322f1496e5c3d34a9bcdb4c60567b38c7de2",
      "contractAddress": null
    }
  ],
  "libraries": [],
  "pending": [],
  "returns": {},
  "timestamp": 1736913745,
  "chain": 11155111,
  "commit": "51a374b"
}