{
  "transactions": [
    {
      "hash": "0xfa45e451f699ca5e80a0391e2a73519d7587930060e9460cd3b4fab9a3349cca",
      "transactionType": "CALL",
      "contractName": null,
      "contractAddress": "0x8aafd3ede9adb0ff97c7aebce82a919afb1c8764",
      "function": "sell(uint256)",
      "arguments": [
        "308167"
      ],
      "transaction": {
        "from": "0xc77f7fed3b5cc8249adc428c5f44c9063b9734b4",
        "to": "0x8aafd3ede9adb0ff97c7aebce82a919afb1c8764",
        "gas": "0x16208",
        "value": "0x0",
        "input": "0xe4849b32000000000000000000000000000000000000000000000000000000000004b3c7",
        "nonce": "0x1761",
        "chainId": "0xaa36a7"
      },
      "additionalContracts": [],
      "isFixedGasLimit": false
    }
  ],
  "receipts": [
    {
      "status": "0x1",
      "cumulativeGasUsed": "0x8ec1e2",
      "logs": [
        {
          "address": "0x8aafd3ede9adb0ff97c7aebce82a919afb1c8764",
          "topics": [
            "0xddf252ad1be2c89b69c2b068fc378daa952ba7f163c4a11628f55a4df523b3ef",
            "0x000000000000000000000000c77f7fed3b5cc8249adc428c5f44c9063b9734b4",
            "0x0000000000000000000000000000000000000000000000000000000000000000"
          ],
          "data": "0x000000000000000000000000000000000000000000000000000000000004aa26",
          "blockHash": "0x2abbd2557fc4d6d29c074ce0a6dd97b25eca3e7f0f820cfb0786ac4a97634870",
          "blockNumber": "0x731f36",
          "transactionHash": "0xfa45e451f699ca5e80a0391e2a73519d7587930060e9460cd3b4fab9a3349cca",
          "transactionIndex": "0x5d",
          "logIndex": "0xc2",
          "removed": false
        },
        {
          "address": "0x8aafd3ede9adb0ff97c7aebce82a919afb1c8764",
          "topics": [
            "0xddf252ad1be2c89b69c2b068fc378daa952ba7f163c4a11628f55a4df523b3ef",
            "0x000000000000000000000000c77f7fed3b5cc8249adc428c5f44c9063b9734b4",
            "0x000000000000000000000000c77f7fed3b5cc8249adc428c5f44c9063b9734b4"
          ],
          "data": "0x00000000000000000000000000000000000000000000000000000000000009a1",
          "blockHash": "0x2abbd2557fc4d6d29c074ce0a6dd97b25eca3e7f0f820cfb0786ac4a97634870",
          "blockNumber": "0x731f36",
          "transactionHash": "0xfa45e451f699ca5e80a0391e2a73519d7587930060e9460cd3b4fab9a3349cca",
          "transactionIndex": "0x5d",
          "logIndex": "0xc3",
          "removed": false
        },
        {
          "address": "0x8aafd3ede9adb0ff97c7aebce82a919afb1c8764",
          "topics": [
            "0x4afcb4a87cdbd9974efdb92ee48bc8d7cd0ae4bf217004db3d080cbaee652ca7"
          ],
          "data": "0x000000000000000000000000000000000000000000000000000000006790737000000000000000000000000000000000000000000000000000181cfd3788f0d5000000000000000000000000000000000000000000000000000000000000082b",
          "blockHash": "0x2abbd2557fc4d6d29c074ce0a6dd97b25eca3e7f0f820cfb0786ac4a97634870",
          "blockNumber": "0x731f36",
          "transactionHash": "0xfa45e451f699ca5e80a0391e2a73519d7587930060e9460cd3b4fab9a3349cca",
          "transactionIndex": "0x5d",
          "logIndex": "0xc4",
          "removed": false
        }
      ],
      "logsBloom": "0x00000000000000000000000000000000000000000600000000000000000000000000000000000000000000000000000000000000000000004000000000000000000000000000004000000008000000000000000000000000000000000000000000000000020000000000000000000800020000000000000000000010000000000000000000000000000000000000000000000000000000000000010000000000000000000000000000000000000000004000000000000000000000000000000000000002000000800000000000000000000000000000080000000000000020000000000000000000000000000000000000000000000000000000000000000000",
      "type": "0x2",
      "transactionHash": "0xfa45e451f699ca5e80a0391e2a73519d7587930060e9460cd3b4fab9a3349cca",
      "transactionIndex": "0x5d",
      "blockHash": "0x2abbd2557fc4d6d29c074ce0a6dd97b25eca3e7f0f820cfb0786ac4a97634870",
      "blockNumber": "0x731f36",
      "gasUsed": "0xf213",
      "effectiveGasPrice": "0x41bb061a",
      "from": "0xc77f7fed3b5cc8249adc428c5f44c9063b9734b4",
      "to": "0x8aafd3ede9adb0ff97c7aebce82a919afb1c8764",
      "contractAddress": null
    }
  ],
  "libraries": [],
  "pending": [],
  "returns": {},
  "timestamp": 1737519985,
  "chain": 11155111,
  "commit": "1d2fb70"
}