{
  "transactions": [
    {
      "hash": "0xad12588cdca5f87f85db4717a330baf14683a7434a5ac625fc18920165dadca3",
      "transactionType": "CALL",
      "contractName": null,
      "contractAddress": "0xbf4a322f1496e5c3d34a9bcdb4c60567b38c7de2",
      "function": "sell(uint256)",
      "arguments": [
        "983543225971948491347"
      ],
      "transaction": {
        "from": "0xc77f7fed3b5cc8249adc428c5f44c9063b9734b4",
        "to": "0xbf4a322f1496e5c3d34a9bcdb4c60567b38c7de2",
        "gas": "0x16fea",
        "value": "0x0",
        "input": "0xe4849b32000000000000000000000000000000000000000000000035516778fc73bd9253",
        "nonce": "0xb11",
        "chainId": "0xaa36a7"
      },
      "additionalContracts": [],
      "isFixedGasLimit": false
    }
  ],
  "receipts": [
    {
      "status": "0x1",
      "cumulativeGasUsed": "0x5b65c4",
      "logs": [
        {
          "address": "0xbf4a322f1496e5c3d34a9bcdb4c60567b38c7de2",
          "topics": [
            "0xddf252ad1be2c89b69c2b068fc378daa952ba7f163c4a11628f55a4df523b3ef",
            "0x000000000000000000000000c77f7fed3b5cc8249adc428c5f44c9063b9734b4",
            "0x0000000000000000000000000000000000000000000000000000000000000000"
          ],
          "data": "0x000000000000000000000000000000000000000000000035516778fc73bd9253",
          "blockHash": "0x61cc4deef79e6f44a3be4be06adf86dc30d75b912a0d303c1f7d8409bd00731d",
          "blockNumber": "0x725b08",
          "transactionHash": "0xad12588cdca5f87f85db4717a330baf14683a7434a5ac625fc18920165dadca3",
          "transactionIndex": "0x38",
          "logIndex": "0x4c",
          "removed": false
        },
        {
          "address": "0xbf4a322f1496e5c3d34a9bcdb4c60567b38c7de2",
          "topics": [
            "0x4afcb4a87cdbd9974efdb92ee48bc8d7cd0ae4bf217004db3d080cbaee652ca7"
          ],
          "data": "0x00000000000000000000000000000000000000000000000000000000678736bc000000000000000000000000000000000000000000000000000396447caedcbd0000000000000000000000000000000000000000000000000dc7e3ea4dec94bc",
          "blockHash": "0x61cc4deef79e6f44a3be4be06adf86dc30d75b912a0d303c1f7d8409bd00731d",
          "blockNumber": "0x725b08",
          "transactionHash": "0xad12588cdca5f87f85db4717a330baf14683a7434a5ac625fc18920165dadca3",
          "transactionIndex": "0x38",
          "logIndex": "0x4d",
          "removed": false
        }
      ],
      "logsBloom": "0x00000000000000000000000000000000000000000000000000000000000000000000000000000000000000000000000000000000000000004000000000000000000000000000000000000008000000000000001000000000000000000000000000000000020000000000000000000800020000000000000000000010000000000000000000000000000000000000000000000000000008000000010000000000000000000000000000000000000000004000000000000000000000000000000000000002000000800000000000001000000000000000080000000000000020000000000000000000000000000000000000000000000000000000000000000000",
      "type": "0x2",
      "transactionHash": "0xad12588cdca5f87f85db4717a330baf14683a7434a5ac625fc18920165dadca3",
      "transactionIndex": "0x38",
      "blockHash": "0x61cc4deef79e6f44a3be4be06adf86dc30d75b912a0d303c1f7d8409bd00731d",
      "blockNumber": "0x725b08",
      "gasUsed": "0xfb91",
      "effectiveGasPrice": "0x99f66388",
      "from": "0xc77f7fed3b5cc8249adc428c5f44c9063b9734b4",
      "to": "0xbf4a322f1496e5c3d34a9bcdb4c60567b38c7de2",
      "contractAddress": null
    }
  ],
  "libraries": [],
  "pending": [],
  "returns": {},
  "timestamp": 1736914622,
  "chain": 11155111,
  "commit": "51a374b"
}