{
  "transactions": [
    {
      "hash": "0xf47d54ab63aace099d749d262c7ce7eef913547ebff0a4ed5dcb1244ebbfaf94",
      "transactionType": "CALL",
      "contractName": null,
      "contractAddress": "0x5eb9cc76c3506942c1c0ead70e877dd5e4f00cb0",
      "function": "buy(address)",
      "arguments": [
        "0xC77f7fed3b5Cc8249aDc428c5F44C9063B9734b4"
      ],
      "transaction": {
        "from": "0xc77f7fed3b5cc8249adc428c5f44c9063b9734b4",
        "to": "0x5eb9cc76c3506942c1c0ead70e877dd5e4f00cb0",
        "gas": "0x1b30c",
        "value": "0xde0b6b3a7640000",
        "input": "0xf088d547000000000000000000000000c77f7fed3b5cc8249adc428c5f44c9063b9734b4",
        "nonce": "0x474",
        "chainId": "0xaa36a7"
      },
      "additionalContracts": [],
      "isFixedGasLimit": false
    }
  ],
  "receipts": [
    {
      "status": "0x1",
      "cumulativeGasUsed": "0x7a89dd",
      "logs": [
        {
          "address": "0x5eb9cc76c3506942c1c0ead70e877dd5e4f00cb0",
          "topics": [
            "0xddf252ad1be2c89b69c2b068fc378daa952ba7f163c4a11628f55a4df523b3ef",
            "0x0000000000000000000000000000000000000000000000000000000000000000",
            "0x000000000000000000000000c77f7fed3b5cc8249adc428c5f44c9063b9734b4"
          ],
          "data": "0x00000000000000000000000000000000000000000000003574c0bf943bf627c8",
          "blockHash": "0x174262bc4cad2e6c1bd6b2dedd916eca795e4fc34c95b0101ec9073ef32581b2",
          "blockNumber": "0x7250a0",
          "transactionHash": "0xf47d54ab63aace099d749d262c7ce7eef913547ebff0a4ed5dcb1244ebbfaf94",
          "transactionIndex": "0x51",
          "logIndex": "0x68",
          "removed": false
        },
        {
          "address": "0x5eb9cc76c3506942c1c0ead70e877dd5e4f00cb0",
          "topics": [
            "0xddf252ad1be2c89b69c2b068fc378daa952ba7f163c4a11628f55a4df523b3ef",
            "0x0000000000000000000000000000000000000000000000000000000000000000",
            "0x000000000000000000000000c77f7fed3b5cc8249adc428c5f44c9063b9734b4"
          ],
          "data": "0x0000000000000000000000000000000000000000000000002982ad6c0dd15cd0",
          "blockHash": "0x174262bc4cad2e6c1bd6b2dedd916eca795e4fc34c95b0101ec9073ef32581b2",
          "blockNumber": "0x7250a0",
          "transactionHash": "0xf47d54ab63aace099d749d262c7ce7eef913547ebff0a4ed5dcb1244ebbfaf94",
          "transactionIndex": "0x51",
          "logIndex": "0x69",
          "removed": false
        },
        {
          "address": "0x5eb9cc76c3506942c1c0ead70e877dd5e4f00cb0",
          "topics": [
            "0x4afcb4a87cdbd9974efdb92ee48bc8d7cd0ae4bf217004db3d080cbaee652ca7"
          ],
          "data": "0x000000000000000000000000000000000000000000000000000000006786b94c00000000000000000000000000000000000000000000000000039119cae821090000000000000000000000000000000000000000000000000de0b6b3a7640000",
          "blockHash": "0x174262bc4cad2e6c1bd6b2dedd916eca795e4fc34c95b0101ec9073ef32581b2",
          "blockNumber": "0x7250a0",
          "transactionHash": "0xf47d54ab63aace099d749d262c7ce7eef913547ebff0a4ed5dcb1244ebbfaf94",
          "transactionIndex": "0x51",
          "logIndex": "0x6a",
          "removed": false
        }
      ],
      "logsBloom": "0x00000000000000000000000000000000000000000000000000000000000000000000000000000000000000000000000000000000000000004000000000000000000000000000000000000008000000000000000000000000000000000000000000000000020000000000000004000800020000000000000000000010000000000000000000000000000000000000000000000000000000000000010000000000000000000000000000000000000000004000000000000000000000000000020000000002000000800000008000000000000000000000080000000000000020000000000000000000000000000000000000000000000000000000000000000000",
      "type": "0x2",
      "transactionHash": "0xf47d54ab63aace099d749d262c7ce7eef913547ebff0a4ed5dcb1244ebbfaf94",
      "transactionIndex": "0x51",
      "blockHash": "0x174262bc4cad2e6c1bd6b2dedd916eca795e4fc34c95b0101ec9073ef32581b2",
      "blockNumber": "0x7250a0",
      "gasUsed": "0x13af8",
      "effectiveGasPrice": "0x1f6b6a12a",
      "from": "0xc77f7fed3b5cc8249adc428c5f44c9063b9734b4",
      "to": "0x5eb9cc76c3506942c1c0ead70e877dd5e4f00cb0",
      "contractAddress": null
    }
  ],
  "libraries": [],
  "pending": [],
  "returns": {},
  "timestamp": 1736882509,
  "chain": 11155111,
  "commit": "51a374b"
}