{
  "transactions": [
    {
      "hash": "0xff5ecf6bd3a5897fdc70c8120cefa4a2adc69ac55b02ab94909f3ba59b931aa1",
      "transactionType": "CALL",
      "contractName": null,
      "contractAddress": "0x5eb9cc76c3506942c1c0ead70e877dd5e4f00cb0",
      "function": "buy(address)",
      "arguments": [
        "0xC77f7fed3b5Cc8249aDc428c5F44C9063B9734b4"
      ],
      "transaction": {
        "from": "0xc77f7fed3b5cc8249adc428c5f44c9063b9734b4",
        "to": "0x5eb9cc76c3506942c1c0ead70e877dd5e4f00cb0",
        "gas": "0x1b30c",
        "value": "0xde0b6b3a7640000",
        "input": "0xf088d547000000000000000000000000c77f7fed3b5cc8249adc428c5f44c9063b9734b4",
        "nonce": "0x3fe",
        "chainId": "0xaa36a7"
      },
      "additionalContracts": [],
      "isFixedGasLimit": false
    }
  ],
  "receipts": [
    {
      "status": "0x1",
      "cumulativeGasUsed": "0x10c7cbd",
      "logs": [
        {
          "address": "0x5eb9cc76c3506942c1c0ead70e877dd5e4f00cb0",
          "topics": [
            "0xddf252ad1be2c89b69c2b068fc378daa952ba7f163c4a11628f55a4df523b3ef",
            "0x0000000000000000000000000000000000000000000000000000000000000000",
            "0x000000000000000000000000c77f7fed3b5cc8249adc428c5f44c9063b9734b4"
          ],
          "data": "0x0000000000000000000000000000000000000000000000357503596838bba5cf",
          "blockHash": "0xd683daea2fe721fd2ed6e3bc5c5a51309c4d898bba5c775f0af1bd43264dbf62",
          "blockNumber": "0x725007",
          "transactionHash": "0xff5ecf6bd3a5897fdc70c8120cefa4a2adc69ac55b02ab94909f3ba59b931aa1",
          "transactionIndex": "0x84",
          "logIndex": "0xfe",
          "removed": false
        },
        {
          "address": "0x5eb9cc76c3506942c1c0ead70e877dd5e4f00cb0",
          "topics": [
            "0xddf252ad1be2c89b69c2b068fc378daa952ba7f163c4a11628f55a4df523b3ef",
            "0x0000000000000000000000000000000000000000000000000000000000000000",
            "0x000000000000000000000000c77f7fed3b5cc8249adc428c5f44c9063b9734b4"
          ],
          "data": "0x0000000000000000000000000000000000000000000000002982e123d3b928bc",
          "blockHash": "0xd683daea2fe721fd2ed6e3bc5c5a51309c4d898bba5c775f0af1bd43264dbf62",
          "blockNumber": "0x725007",
          "transactionHash": "0xff5ecf6bd3a5897fdc70c8120cefa4a2adc69ac55b02ab94909f3ba59b931aa1",
          "transactionIndex": "0x84",
          "logIndex": "0xff",
          "removed": false
        },
        {
          "address": "0x5eb9cc76c3506942c1c0ead70e877dd5e4f00cb0",
          "topics": [
            "0x4afcb4a87cdbd9974efdb92ee48bc8d7cd0ae4bf217004db3d080cbaee652ca7"
          ],
          "data": "0x000000000000000000000000000000000000000000000000000000006786b22000000000000000000000000000000000000000000000000000039115594bf1d80000000000000000000000000000000000000000000000000de0b6b3a7640000",
          "blockHash": "0xd683daea2fe721fd2ed6e3bc5c5a51309c4d898bba5c775f0af1bd43264dbf62",
          "blockNumber": "0x725007",
          "transactionHash": "0xff5ecf6bd3a5897fdc70c8120cefa4a2adc69ac55b02ab94909f3ba59b931aa1",
          "transactionIndex": "0x84",
          "logIndex": "0x100",
          "removed": false
        }
      ],
      "logsBloom": "0x00000000000000000000000000000000000000000000000000000000000000000000000000000000000000000000000000000000000000004000000000000000000000000000000000000008000000000000000000000000000000000000000000000000020000000000000004000800020000000000000000000010000000000000000000000000000000000000000000000000000000000000010000000000000000000000000000000000000000004000000000000000000000000000020000000002000000800000008000000000000000000000080000000000000020000000000000000000000000000000000000000000000000000000000000000000",
      "type": "0x2",
      "transactionHash": "0xff5ecf6bd3a5897fdc70c8120cefa4a2adc69ac55b02ab94909f3ba59b931aa1",
      "transactionIndex": "0x84",
      "blockHash": "0xd683daea2fe721fd2ed6e3bc5c5a51309c4d898bba5c775f0af1bd43264dbf62",
      "blockNumber": "0x725007",
      "gasUsed": "0x13af8",
      "effectiveGasPrice": "0x38c2fc12d",
      "from": "0xc77f7fed3b5cc8249adc428c5f44c9063b9734b4",
      "to": "0x5eb9cc76c3506942c1c0ead70e877dd5e4f00cb0",
      "contractAddress": null
    }
  ],
  "libraries": [],
  "pending": [],
  "returns": {},
  "timestamp": 1736880673,
  "chain": 11155111,
  "commit": "51a374b"
}