{
  "transactions": [
    {
      "hash": "0x98c0d163a88ce0d010604b5e604942c027ad25783d9d31426d60d0715ffc2610",
      "transactionType": "CALL",
      "contractName": null,
      "contractAddress": "0x270e88f8683660553e8ba4eb2ad7c91a1710d769",
      "function": "buy(address)",
      "arguments": [
        "0xC77f7fed3b5Cc8249aDc428c5F44C9063B9734b4"
      ],
      "transaction": {
        "from": "0xc77f7fed3b5cc8249adc428c5f44c9063b9734b4",
        "to": "0x270e88f8683660553e8ba4eb2ad7c91a1710d769",
        "gas": "0x1b30c",
        "value": "0xde0b6b3a7640000",
        "input": "0xf088d547000000000000000000000000c77f7fed3b5cc8249adc428c5f44c9063b9734b4",
        "nonce": "0x63c",
        "chainId": "0xaa36a7"
      },
      "additionalContracts": [],
      "isFixedGasLimit": false
    }
  ],
  "receipts": [
    {
      "status": "0x1",
      "cumulativeGasUsed": "0x9eefb1",
      "logs": [
        {
          "address": "0x270e88f8683660553e8ba4eb2ad7c91a1710d769",
          "topics": [
            "0xddf252ad1be2c89b69c2b068fc378daa952ba7f163c4a11628f55a4df523b3ef",
            "0x0000000000000000000000000000000000000000000000000000000000000000",
            "0x000000000000000000000000c77f7fed3b5cc8249adc428c5f44c9063b9734b4"
          ],
          "data": "0x00000000000000000000000000000000000000000000002c94b956d0a6d767bd",
          "blockHash": "0xb39d0894d864eb542271988391507b12e4990b1f4af2541fc91beecdca320ede",
          "blockNumber": "0x725325",
          "transactionHash": "0x98c0d163a88ce0d010604b5e604942c027ad25783d9d31426d60d0715ffc2610",
          "transactionIndex": "0x4c",
          "logIndex": "0x90",
          "removed": false
        },
        {
          "address": "0x270e88f8683660553e8ba4eb2ad7c91a1710d769",
          "topics": [
            "0xddf252ad1be2c89b69c2b068fc378daa952ba7f163c4a11628f55a4df523b3ef",
            "0x0000000000000000000000000000000000000000000000000000000000000000",
            "0x000000000000000000000000c77f7fed3b5cc8249adc428c5f44c9063b9734b4"
          ],
          "data": "0x000000000000000000000000000000000000000000000000229e5e94c7b3dea4",
          "blockHash": "0xb39d0894d864eb542271988391507b12e4990b1f4af2541fc91beecdca320ede",
          "blockNumber": "0x725325",
          "transactionHash": "0x98c0d163a88ce0d010604b5e604942c027ad25783d9d31426d60d0715ffc2610",
          "transactionIndex": "0x4c",
          "logIndex": "0x91",
          "removed": false
        },
        {
          "address": "0x270e88f8683660553e8ba4eb2ad7c91a1710d769",
          "topics": [
            "0x4afcb4a87cdbd9974efdb92ee48bc8d7cd0ae4bf217004db3d080cbaee652ca7"
          ],
          "data": "0x000000000000000000000000000000000000000000000000000000006786d7c4000000000000000000000000000000000000000000000000000446e2ff82f95e0000000000000000000000000000000000000000000000000de0b6b3a7640000",
          "blockHash": "0xb39d0894d864eb542271988391507b12e4990b1f4af2541fc91beecdca320ede",
          "blockNumber": "0x725325",
          "transactionHash": "0x98c0d163a88ce0d010604b5e604942c027ad25783d9d31426d60d0715ffc2610",
          "transactionIndex": "0x4c",
          "logIndex": "0x92",
          "removed": false
        }
      ],
      "logsBloom": "0x00000000000000000000000000000000000000000000000000000000000000000000000000000000000000000000000020000000000000004000000000000000000000000000000000000008000000000000000000000000000000000000000000000000020000000000000000000800020000000000000000000010000000000000000000010000000000000000000000000000000000000000010000000000000000000000000000000000000000004000000000000000000000000000000000000002000000800000000000000000000000000000080000008000000020000000000000000000000000000000000000000000000000000000000000000000",
      "type": "0x2",
      "transactionHash": "0x98c0d163a88ce0d010604b5e604942c027ad25783d9d31426d60d0715ffc2610",
      "transactionIndex": "0x4c",
      "blockHash": "0xb39d0894d864eb542271988391507b12e4990b1f4af2541fc91beecdca320ede",
      "blockNumber": "0x725325",
      "gasUsed": "0x13af8",
      "effectiveGasPrice": "0x1e9a7ed86",
      "from": "0xc77f7fed3b5cc8249adc428c5f44c9063b9734b4",
      "to": "0x270e88f8683660553e8ba4eb2ad7c91a1710d769",
      "contractAddress": null
    }
  ],
  "libraries": [],
  "pending": [],
  "returns": {},
  "timestamp": 1736890309,
  "chain": 11155111,
  "commit": "51a374b"
}