{
  "transactions": [
    {
      "hash": "0x33529b3af452ef3e4c11eaf12938f72e054d7b3110193d08986ec05ff41a4b89",
      "transactionType": "CALL",
      "contractName": null,
      "contractAddress": "0x8aafd3ede9adb0ff97c7aebce82a919afb1c8764",
      "function": "sell(uint256)",
      "arguments": [
        "1427253"
      ],
      "transaction": {
        "from": "0xc77f7fed3b5cc8249adc428c5f44c9063b9734b4",
        "to": "0x8aafd3ede9adb0ff97c7aebce82a919afb1c8764",
        "gas": "0x16208",
        "value": "0x0",
        "input": "0xe4849b32000000000000000000000000000000000000000000000000000000000015c735",
        "nonce": "0x1200",
        "chainId": "0xaa36a7"
      },
      "additionalContracts": [],
      "isFixedGasLimit": false
    }
  ],
  "receipts": [
    {
      "status": "0x1",
      "cumulativeGasUsed": "0x21d7948",
      "logs": [
        {
          "address": "0x8aafd3ede9adb0ff97c7aebce82a919afb1c8764",
          "topics": [
            "0xddf252ad1be2c89b69c2b068fc378daa952ba7f163c4a11628f55a4df523b3ef",
            "0x000000000000000000000000c77f7fed3b5cc8249adc428c5f44c9063b9734b4",
            "0x0000000000000000000000000000000000000000000000000000000000000000"
          ],
          "data": "0x0000000000000000000000000000000000000000000000000000000000159a9b",
          "blockHash": "0x494d84f8ba275a6f066da281d1ab394394f6d946a94399c699970159b362be59",
          "blockNumber": "0x7318da",
          "transactionHash": "0x33529b3af452ef3e4c11eaf12938f72e054d7b3110193d08986ec05ff41a4b89",
          "transactionIndex": "0x4e",
          "logIndex": "0x1101",
          "removed": false
        },
        {
          "address": "0x8aafd3ede9adb0ff97c7aebce82a919afb1c8764",
          "topics": [
            "0xddf252ad1be2c89b69c2b068fc378daa952ba7f163c4a11628f55a4df523b3ef",
            "0x000000000000000000000000c77f7fed3b5cc8249adc428c5f44c9063b9734b4",
            "0x000000000000000000000000c77f7fed3b5cc8249adc428c5f44c9063b9734b4"
          ],
          "data": "0x0000000000000000000000000000000000000000000000000000000000002c9a",
          "blockHash": "0x494d84f8ba275a6f066da281d1ab394394f6d946a94399c699970159b362be59",
          "blockNumber": "0x7318da",
          "transactionHash": "0x33529b3af452ef3e4c11eaf12938f72e054d7b3110193d08986ec05ff41a4b89",
          "transactionIndex": "0x4e",
          "logIndex": "0x1102",
          "removed": false
        },
        {
          "address": "0x8aafd3ede9adb0ff97c7aebce82a919afb1c8764",
          "topics": [
            "0x4afcb4a87cdbd9974efdb92ee48bc8d7cd0ae4bf217004db3d080cbaee652ca7"
          ],
          "data": "0x00000000000000000000000000000000000000000000000000000000679027080000000000000000000000000000000000000000000000000005307a9a9eaa4e0000000000000000000000000000000000000000000000000000000000000824",
          "blockHash": "0x494d84f8ba275a6f066da281d1ab394394f6d946a94399c699970159b362be59",
          "blockNumber": "0x7318da",
          "transactionHash": "0x33529b3af452ef3e4c11eaf12938f72e054d7b3110193d08986ec05ff41a4b89",
          "transactionIndex": "0x4e",
          "logIndex": "0x1103",
          "removed": false
        }
      ],
      "logsBloom": "0x00000000000000000000000000000000000000000600000000000000000000000000000000000000000000000000000000000000000000004000000000000000000000000000004000000008000000000000000000000000000000000000000000000000020000000000000000000800020000000000000000000010000000000000000000000000000000000000000000000000000000000000010000000000000000000000000000000000000000004000000000000000000000000000000000000002000000800000000000000000000000000000080000000000000020000000000000000000000000000000000000000000000000000000000000000000",
      "type": "0x2",
      "transactionHash": "0x33529b3af452ef3e4c11eaf12938f72e054d7b3110193d08986ec05ff41a4b89",
      "transactionIndex": "0x4e",
      "blockHash": "0x494d84f8ba275a6f066da281d1ab394394f6d946a94399c699970159b362be59",
      "blockNumber": "0x7318da",
      "gasUsed": "0xf213",
      "effectiveGasPrice": "0x37192a48",
      "from": "0xc77f7fed3b5cc8249adc428c5f44c9063b9734b4",
      "to": "0x8aafd3ede9adb0ff97c7aebce82a919afb1c8764",
      "contractAddress": null
    }
  ],
  "libraries": [],
  "pending": [],
  "returns": {},
  "timestamp": 1737500425,
  "chain": 11155111,
  "commit": "1d2fb70"
}