{
  "transactions": [
    {
      "hash": "0x1f2f99cfc76020448fc3d45f0fc95f2a3cbb392df633872895fe523243de9dbd",
      "transactionType": "CALL",
      "contractName": null,
      "contractAddress": "0x8aafd3ede9adb0ff97c7aebce82a919afb1c8764",
      "function": "sell(uint256)",
      "arguments": [
        "5975902118703405247"
      ],
      "transaction": {
        "from": "0xc77f7fed3b5cc8249adc428c5f44c9063b9734b4",
        "to": "0x8aafd3ede9adb0ff97c7aebce82a919afb1c8764",
        "gas": "0x15dca",
        "value": "0x0",
        "input": "0xe4849b3200000000000000000000000000000000000000000000000052eeab50b5d218bf",
        "nonce": "0xecf",
        "chainId": "0xaa36a7"
      },
      "additionalContracts": [],
      "isFixedGasLimit": false
    }
  ],
  "receipts": [
    {
      "status": "0x1",
      "cumulativeGasUsed": "0x125aabc",
      "logs": [
        {
          "address": "0x8aafd3ede9adb0ff97c7aebce82a919afb1c8764",
          "topics": [
            "0xddf252ad1be2c89b69c2b068fc378daa952ba7f163c4a11628f55a4df523b3ef",
            "0x000000000000000000000000c77f7fed3b5cc8249adc428c5f44c9063b9734b4",
            "0x0000000000000000000000000000000000000000000000000000000000000000"
          ],
          "data": "0x0000000000000000000000000000000000000000000000005244d2e79dd68f56",
          "blockHash": "0x79871bdc33d39671e7d1bab3ae96540bfb94de252a9b1528a53c597257601bd5",
          "blockNumber": "0x73143b",
          "transactionHash": "0x1f2f99cfc76020448fc3d45f0fc95f2a3cbb392df633872895fe523243de9dbd",
          "transactionIndex": "0xd4",
          "logIndex": "0x153",
          "removed": false
        },
        {
          "address": "0x8aafd3ede9adb0ff97c7aebce82a919afb1c8764",
          "topics": [
            "0xddf252ad1be2c89b69c2b068fc378daa952ba7f163c4a11628f55a4df523b3ef",
            "0x000000000000000000000000c77f7fed3b5cc8249adc428c5f44c9063b9734b4",
            "0x000000000000000000000000c77f7fed3b5cc8249adc428c5f44c9063b9734b4"
          ],
          "data": "0x00000000000000000000000000000000000000000000000000a9d86917fb8969",
          "blockHash": "0x79871bdc33d39671e7d1bab3ae96540bfb94de252a9b1528a53c597257601bd5",
          "blockNumber": "0x73143b",
          "transactionHash": "0x1f2f99cfc76020448fc3d45f0fc95f2a3cbb392df633872895fe523243de9dbd",
          "transactionIndex": "0xd4",
          "logIndex": "0x154",
          "removed": false
        },
        {
          "address": "0x8aafd3ede9adb0ff97c7aebce82a919afb1c8764",
          "topics": [
            "0x4afcb4a87cdbd9974efdb92ee48bc8d7cd0ae4bf217004db3d080cbaee652ca7"
          ],
          "data": "0x00000000000000000000000000000000000000000000000000000000678fef700000000000000000000000000000000000000000000000000004b97237822013000000000000000000000000000000000000000000000000001c3b8490c55201",
          "blockHash": "0x79871bdc33d39671e7d1bab3ae96540bfb94de252a9b1528a53c597257601bd5",
          "blockNumber": "0x73143b",
          "transactionHash": "0x1f2f99cfc76020448fc3d45f0fc95f2a3cbb392df633872895fe523243de9dbd",
          "transactionIndex": "0xd4",
          "logIndex": "0x155",
          "removed": false
        }
      ],
      "logsBloom": "0x00000000000000000000000000000000000000000600000000000000000000000000000000000000000000000000000000000000000000004000000000000000000000000000004000000008000000000000000000000000000000000000000000000000020000000000000000000800020000000000000000000010000000000000000000000000000000000000000000000000000000000000010000000000000000000000000000000000000000004000000000000000000000000000000000000002000000800000000000000000000000000000080000000000000020000000000000000000000000000000000000000000000000000000000000000000",
      "type": "0x2",
      "transactionHash": "0x1f2f99cfc76020448fc3d45f0fc95f2a3cbb392df633872895fe523243de9dbd",
      "transactionIndex": "0xd4",
      "blockHash": "0x79871bdc33d39671e7d1bab3ae96540bfb94de252a9b1528a53c597257601bd5",
      "blockNumber": "0x73143b",
      "gasUsed": "0xfd3f",
      "effectiveGasPrice": "0x91657abb",
      "from": "0xc77f7fed3b5cc8249adc428c5f44c9063b9734b4",
      "to": "0x8aafd3ede9adb0ff97c7aebce82a919afb1c8764",
      "contractAddress": null
    }
  ],
  "libraries": [],
  "pending": [],
  "returns": {},
  "timestamp": 1737486192,
  "chain": 11155111,
  "commit": "51a374b"
}