{
  "transactions": [
    {
      "hash": "0x7ec86a64e31cad829dedd482b76fde2d08195100b2e1782f2d6edd5777df6e38",
      "transactionType": "CALL",
      "contractName": null,
      "contractAddress": "0xbf4a322f1496e5c3d34a9bcdb4c60567b38c7de2",
      "function": "buy(address)",
      "arguments": [
        "0xC77f7fed3b5Cc8249aDc428c5F44C9063B9734b4"
      ],
      "transaction": {
        "from": "0xc77f7fed3b5cc8249adc428c5f44c9063b9734b4",
        "to": "0xbf4a322f1496e5c3d34a9bcdb4c60567b38c7de2",
        "gas": "0x1b309",
        "value": "0xde0b6b3a7640000",
        "input": "0xf088d547000000000000000000000000c77f7fed3b5cc8249adc428c5f44c9063b9734b4",
        "nonce": "0x9f8",
        "chainId": "0xaa36a7"
      },
      "additionalContracts": [],
      "isFixedGasLimit": false
    }
  ],
  "receipts": [
    {
      "status": "0x1",
      "cumulativeGasUsed": "0x1771560",
      "logs": [
        {
          "address": "0xbf4a322f1496e5c3d34a9bcdb4c60567b38c7de2",
          "topics": [
            "0xddf252ad1be2c89b69c2b068fc378daa952ba7f163c4a11628f55a4df523b3ef",
            "0x0000000000000000000000000000000000000000000000000000000000000000",
            "0x000000000000000000000000c77f7fed3b5cc8249adc428c5f44c9063b9734b4"
          ],
          "data": "0x0000000000000000000000000000000000000000000000355cb85d9b64320813",
          "blockHash": "0x1cf8e27603fdcbe6b66932d06408fbfdc27250e4301bca4bd9c3e8d37f4c8e8e",
          "blockNumber": "0x7259ae",
          "transactionHash": "0x7ec86a64e31cad829dedd482b76fde2d08195100b2e1782f2d6edd5777df6e38",
          "transactionIndex": "0x83",
          "logIndex": "0xc5",
          "removed": false
        },
        {
          "address": "0xbf4a322f1496e5c3d34a9bcdb4c60567b38c7de2",
          "topics": [
            "0xddf252ad1be2c89b69c2b068fc378daa952ba7f163c4a11628f55a4df523b3ef",
            "0x0000000000000000000000000000000000000000000000000000000000000000",
            "0x000000000000000000000000c77f7fed3b5cc8249adc428c5f44c9063b9734b4"
          ],
          "data": "0x000000000000000000000000000000000000000000000000297003e3165987e5",
          "blockHash": "0x1cf8e27603fdcbe6b66932d06408fbfdc27250e4301bca4bd9c3e8d37f4c8e8e",
          "blockNumber": "0x7259ae",
          "transactionHash": "0x7ec86a64e31cad829dedd482b76fde2d08195100b2e1782f2d6edd5777df6e38",
          "transactionIndex": "0x83",
          "logIndex": "0xc6",
          "removed": false
        },
        {
          "address": "0xbf4a322f1496e5c3d34a9bcdb4c60567b38c7de2",
          "topics": [
            "0x4afcb4a87cdbd9974efdb92ee48bc8d7cd0ae4bf217004db3d080cbaee652ca7"
          ],
          "data": "0x000000000000000000000000000000000000000000000000000000006787266c000000000000000000000000000000000000000000000000000392b753bf447e0000000000000000000000000000000000000000000000000de0b6b3a7640000",
          "blockHash": "0x1cf8e27603fdcbe6b66932d06408fbfdc27250e4301bca4bd9c3e8d37f4c8e8e",
          "blockNumber": "0x7259ae",
          "transactionHash": "0x7ec86a64e31cad829dedd482b76fde2d08195100b2e1782f2d6edd5777df6e38",
          "transactionIndex": "0x83",
          "logIndex": "0xc7",
          "removed": false
        }
      ],
      "logsBloom": "0x00000000000000000000000000000000000000000000000000000000000000000000000000000000000000000000000000000000000000004000000000000000000000000000000000000008000000000000001000000000000000000000000000000000020000000000000000000800020000000000000000000010000000000000000000000000000000000000000000000000000008000000010000000000000000000000000000000000000000004000000000000000000000000000000000000002000000800000000000001000000000000000080000000000000020000000000000000000000000000000000000000000000000000000000000000000",
      "type": "0x2",
      "transactionHash": "0x7ec86a64e31cad829dedd482b76fde2d08195100b2e1782f2d6edd5777df6e38",
      "transactionIndex": "0x83",
      "blockHash": "0x1cf8e27603fdcbe6b66932d06408fbfdc27250e4301bca4bd9c3e8d37f4c8e8e",
      "blockNumber": "0x7259ae",
      "gasUsed": "0x13af6",
      "effectiveGasPrice": "0x2e3577c62",
      "from": "0xc77f7fed3b5cc8249adc428c5f44c9063b9734b4",
      "to": "0xbf4a322f1496e5c3d34a9bcdb4c60567b38c7de2",
      "contractAddress": null
    }
  ],
  "libraries": [],
  "pending": [],
  "returns": {},
  "timestamp": 1736910446,
  "chain": 11155111,
  "commit": "51a374b"
}