{
  "transactions": [
    {
      "hash": "0x5f391cdd5beaa17a80d59566dafadb0eac5d4a429fb8cbb8d46713b1a4412806",
      "transactionType": "CALL",
      "contractName": null,
      "contractAddress": "0x8aafd3ede9adb0ff97c7aebce82a919afb1c8764",
      "function": "sell(uint256)",
      "arguments": [
        "11368"
      ],
      "transaction": {
        "from": "0xc77f7fed3b5cc8249adc428c5f44c9063b9734b4",
        "to": "0x8aafd3ede9adb0ff97c7aebce82a919afb1c8764",
        "gas": "0x14e4c",
        "value": "0x0",
        "input": "0xe4849b320000000000000000000000000000000000000000000000000000000000002c68",
        "nonce": "0x1229",
        "chainId": "0xaa36a7"
      },
      "additionalContracts": [],
      "isFixedGasLimit": false
    }
  ],
  "receipts": [
    {
      "status": "0x1",
      "cumulativeGasUsed": "0x6c5f19",
      "logs": [
        {
          "address": "0x8aafd3ede9adb0ff97c7aebce82a919afb1c8764",
          "topics": [
            "0xddf252ad1be2c89b69c2b068fc378daa952ba7f163c4a11628f55a4df523b3ef",
            "0x000000000000000000000000c77f7fed3b5cc8249adc428c5f44c9063b9734b4",
            "0x0000000000000000000000000000000000000000000000000000000000000000"
          ],
          "data": "0x0000000000000000000000000000000000000000000000000000000000002c0e",
          "blockHash": "0xc46f1374f2589b04beb1f296360b921f5c4c4073768d39e3b07123e1a09934a8",
          "blockNumber": "0x731907",
          "transactionHash": "0x5f391cdd5beaa17a80d59566dafadb0eac5d4a429fb8cbb8d46713b1a4412806",
          "transactionIndex": "0x68",
          "logIndex": "0x58",
          "removed": false
        },
        {
          "address": "0x8aafd3ede9adb0ff97c7aebce82a919afb1c8764",
          "topics": [
            "0xddf252ad1be2c89b69c2b068fc378daa952ba7f163c4a11628f55a4df523b3ef",
            "0x000000000000000000000000c77f7fed3b5cc8249adc428c5f44c9063b9734b4",
            "0x000000000000000000000000c77f7fed3b5cc8249adc428c5f44c9063b9734b4"
          ],
          "data": "0x000000000000000000000000000000000000000000000000000000000000005a",
          "blockHash": "0xc46f1374f2589b04beb1f296360b921f5c4c4073768d39e3b07123e1a09934a8",
          "blockNumber": "0x731907",
          "transactionHash": "0x5f391cdd5beaa17a80d59566dafadb0eac5d4a429fb8cbb8d46713b1a4412806",
          "transactionIndex": "0x68",
          "logIndex": "0x59",
          "removed": false
        },
        {
          "address": "0x8aafd3ede9adb0ff97c7aebce82a919afb1c8764",
          "topics": [
            "0x4afcb4a87cdbd9974efdb92ee48bc8d7cd0ae4bf217004db3d080cbaee652ca7"
          ],
          "data": "0x00000000000000000000000000000000000000000000000000000000679029240000000000000000000000000000000000000000000000000005364a907699fb0000000000000000000000000000000000000000000000000000000000000010",
          "blockHash": "0xc46f1374f2589b04beb1f296360b921f5c4c4073768d39e3b07123e1a09934a8",
          "blockNumber": "0x731907",
          "transactionHash": "0x5f391cdd5beaa17a80d59566dafadb0eac5d4a429fb8cbb8d46713b1a4412806",
          "transactionIndex": "0x68",
          "logIndex": "0x5a",
          "removed": false
        }
      ],
      "logsBloom": "0x00000000000000000000000000000000000000000600000000000000000000000000000000000000000000000000000000000000000000004000000000000000000000000000004000000008000000000000000000000000000000000000000000000000020000000000000000000800020000000000000000000010000000000000000000000000000000000000000000000000000000000000010000000000000000000000000000000000000000004000000000000000000000000000000000000002000000800000000000000000000000000000080000000000000020000000000000000000000000000000000000000000000000000000000000000000",
      "type": "0x2",
      "transactionHash": "0x5f391cdd5beaa17a80d59566dafadb0eac5d4a429fb8cbb8d46713b1a4412806",
      "transactionIndex": "0x68",
      "blockHash": "0xc46f1374f2589b04beb1f296360b921f5c4c4073768d39e3b07123e1a09934a8",
      "blockNumber": "0x731907",
      "gasUsed": "0xf207",
      "effectiveGasPrice": "0x4cf2bdca",
      "from": "0xc77f7fed3b5cc8249adc428c5f44c9063b9734b4",
      "to": "0x8aafd3ede9adb0ff97c7aebce82a919afb1c8764",
      "contractAddress": null
    }
  ],
  "libraries": [],
  "pending": [],
  "returns": {},
  "timestamp": 1737500965,
  "chain": 11155111,
  "commit": "1d2fb70"
}