{
  "transactions": [
    {
      "hash": "0xb0feb282124eb14b262ed2b15735985a2028db941a67ce6d6a49193f991a8865",
      "transactionType": "CALL",
      "contractName": null,
      "contractAddress": "0x8aafd3ede9adb0ff97c7aebce82a919afb1c8764",
      "function": "sell(uint256)",
      "arguments": [
        "12506"
      ],
      "transaction": {
        "from": "0xc77f7fed3b5cc8249adc428c5f44c9063b9734b4",
        "to": "0x8aafd3ede9adb0ff97c7aebce82a919afb1c8764",
        "gas": "0x14e4c",
        "value": "0x0",
        "input": "0xe4849b3200000000000000000000000000000000000000000000000000000000000030da",
        "nonce": "0xf12",
        "chainId": "0xaa36a7"
      },
      "additionalContracts": [],
      "isFixedGasLimit": false
    }
  ],
  "receipts": [
    {
      "status": "0x1",
      "cumulativeGasUsed": "0xca9fe9",
      "logs": [
        {
          "address": "0x8aafd3ede9adb0ff97c7aebce82a919afb1c8764",
          "topics": [
            "0xddf252ad1be2c89b69c2b068fc378daa952ba7f163c4a11628f55a4df523b3ef",
            "0x000000000000000000000000c77f7fed3b5cc8249adc428c5f44c9063b9734b4",
            "0x0000000000000000000000000000000000000000000000000000000000000000"
          ],
          "data": "0x0000000000000000000000000000000000000000000000000000000000003076",
          "blockHash": "0xd9325d6505f30c31f60222ca5bbe48d8f36423f1943b3056253d7539fc593817",
          "blockNumber": "0x73148b",
          "transactionHash": "0xb0feb282124eb14b262ed2b15735985a2028db941a67ce6d6a49193f991a8865",
          "transactionIndex": "0x94",
          "logIndex": "0xe1",
          "removed": false
        },
        {
          "address": "0x8aafd3ede9adb0ff97c7aebce82a919afb1c8764",
          "topics": [
            "0xddf252ad1be2c89b69c2b068fc378daa952ba7f163c4a11628f55a4df523b3ef",
            "0x000000000000000000000000c77f7fed3b5cc8249adc428c5f44c9063b9734b4",
            "0x000000000000000000000000c77f7fed3b5cc8249adc428c5f44c9063b9734b4"
          ],
          "data": "0x0000000000000000000000000000000000000000000000000000000000000064",
          "blockHash": "0xd9325d6505f30c31f60222ca5bbe48d8f36423f1943b3056253d7539fc593817",
          "blockNumber": "0x73148b",
          "transactionHash": "0xb0feb282124eb14b262ed2b15735985a2028db941a67ce6d6a49193f991a8865",
          "transactionIndex": "0x94",
          "logIndex": "0xe2",
          "removed": false
        },
        {
          "address": "0x8aafd3ede9adb0ff97c7aebce82a919afb1c8764",
          "topics": [
            "0x4afcb4a87cdbd9974efdb92ee48bc8d7cd0ae4bf217004db3d080cbaee652ca7"
          ],
          "data": "0x00000000000000000000000000000000000000000000000000000000678ff3300000000000000000000000000000000000000000000000000004bbf0bfdff1600000000000000000000000000000000000000000000000000000000000000010",
          "blockHash": "0xd9325d6505f30c31f60222ca5bbe48d8f36423f1943b3056253d7539fc593817",
          "blockNumber": "0x73148b",
          "transactionHash": "0xb0feb282124eb14b262ed2b15735985a2028db941a67ce6d6a49193f991a8865",
          "transactionIndex": "0x94",
          "logIndex": "0xe3",
          "removed": false
        }
      ],
      "logsBloom": "0x00000000000000000000000000000000000000000600000000000000000000000000000000000000000000000000000000000000000000004000000000000000000000000000004000000008000000000000000000000000000000000000000000000000020000000000000000000800020000000000000000000010000000000000000000000000000000000000000000000000000000000000010000000000000000000000000000000000000000004000000000000000000000000000000000000002000000800000000000000000000000000000080000000000000020000000000000000000000000000000000000000000000000000000000000000000",
      "type": "0x2",
      "transactionHash": "0xb0feb282124eb14b262ed2b15735985a2028db941a67ce6d6a49193f991a8865",
      "transactionIndex": "0x94",
      "blockHash": "0xd9325d6505f30c31f60222ca5bbe48d8f36423f1943b3056253d7539fc593817",
      "blockNumber": "0x73148b",
      "gasUsed": "0xf207",
      "effectiveGasPrice": "0x9227c8de",
      "from": "0xc77f7fed3b5cc8249adc428c5f44c9063b9734b4",
      "to": "0x8aafd3ede9adb0ff97c7aebce82a919afb1c8764",
      "contractAddress": null
    }
  ],
  "libraries": [],
  "pending": [],
  "returns": {},
  "timestamp": 1737487153,
  "chain": 11155111,
  "commit": "51a374b"
}