{
  "transactions": [
    {
      "hash": "0x88df5757d20049a5c0a614de204a9926e1df95f3b68ce643dfe98ad43177d519",
      "transactionType": "CALL",
      "contractName": null,
      "contractAddress": "0x270e88f8683660553e8ba4eb2ad7c91a1710d769",
      "function": "buy(address)",
      "arguments": [
        "0xC77f7fed3b5Cc8249aDc428c5F44C9063B9734b4"
      ],
      "transaction": {
        "from": "0xc77f7fed3b5cc8249adc428c5f44c9063b9734b4",
        "to": "0x270e88f8683660553e8ba4eb2ad7c91a1710d769",
        "gas": "0x1b30c",
        "value": "0xde0b6b3a7640000",
        "input": "0xf088d547000000000000000000000000c77f7fed3b5cc8249adc428c5f44c9063b9734b4",
        "nonce": "0x64a",
        "chainId": "0xaa36a7"
      },
      "additionalContracts": [],
      "isFixedGasLimit": false
    }
  ],
  "receipts": [
    {
      "status": "0x1",
      "cumulativeGasUsed": "0x758f1d",
      "logs": [
        {
          "address": "0x270e88f8683660553e8ba4eb2ad7c91a1710d769",
          "topics": [
            "0xddf252ad1be2c89b69c2b068fc378daa952ba7f163c4a11628f55a4df523b3ef",
            "0x0000000000000000000000000000000000000000000000000000000000000000",
            "0x000000000000000000000000c77f7fed3b5cc8249adc428c5f44c9063b9734b4"
          ],
          "data": "0x00000000000000000000000000000000000000000000002c933fec5ca0f9b431",
          "blockHash": "0x986dd73e09efb6dca4953e59634747520919d00eca639d811aaef53db696a8dd",
          "blockNumber": "0x725333",
          "transactionHash": "0x88df5757d20049a5c0a614de204a9926e1df95f3b68ce643dfe98ad43177d519",
          "transactionIndex": "0x40",
          "logIndex": "0x8c",
          "removed": false
        },
        {
          "address": "0x270e88f8683660553e8ba4eb2ad7c91a1710d769",
          "topics": [
            "0xddf252ad1be2c89b69c2b068fc378daa952ba7f163c4a11628f55a4df523b3ef",
            "0x0000000000000000000000000000000000000000000000000000000000000000",
            "0x000000000000000000000000c77f7fed3b5cc8249adc428c5f44c9063b9734b4"
          ],
          "data": "0x000000000000000000000000000000000000000000000000229d3981416a102f",
          "blockHash": "0x986dd73e09efb6dca4953e59634747520919d00eca639d811aaef53db696a8dd",
          "blockNumber": "0x725333",
          "transactionHash": "0x88df5757d20049a5c0a614de204a9926e1df95f3b68ce643dfe98ad43177d519",
          "transactionIndex": "0x40",
          "logIndex": "0x8d",
          "removed": false
        },
        {
          "address": "0x270e88f8683660553e8ba4eb2ad7c91a1710d769",
          "topics": [
            "0x4afcb4a87cdbd9974efdb92ee48bc8d7cd0ae4bf217004db3d080cbaee652ca7"
          ],
          "data": "0x000000000000000000000000000000000000000000000000000000006786d86c0000000000000000000000000000000000000000000000000004470735cc66af0000000000000000000000000000000000000000000000000de0b6b3a7640000",
          "blockHash": "0x986dd73e09efb6dca4953e59634747520919d00eca639d811aaef53db696a8dd",
          "blockNumber": "0x725333",
          "transactionHash": "0x88df5757d20049a5c0a614de204a9926e1df95f3b68ce643dfe98ad43177d519",
          "transactionIndex": "0x40",
          "logIndex": "0x8e",
          "removed": false
        }
      ],
      "logsBloom": "0x00000000000000000000000000000000000000000000000000000000000000000000000000000000000000000000000020000000000000004000000000000000000000000000000000000008000000000000000000000000000000000000000000000000020000000000000000000800020000000000000000000010000000000000000000010000000000000000000000000000000000000000010000000000000000000000000000000000000000004000000000000000000000000000000000000002000000800000000000000000000000000000080000008000000020000000000000000000000000000000000000000000000000000000000000000000",
      "type": "0x2",
      "transactionHash": "0x88df5757d20049a5c0a614de204a9926e1df95f3b68ce643dfe98ad43177d519",
      "transactionIndex": "0x40",
      "blockHash": "0x986dd73e09efb6dca4953e59634747520919d00eca639d811aaef53db696a8dd",
      "blockNumber": "0x725333",
      "gasUsed": "0x13af8",
      "effectiveGasPrice": "0x1ea280192",
      "from": "0xc77f7fed3b5cc8249adc428c5f44c9063b9734b4",
      "to": "0x270e88f8683660553e8ba4eb2ad7c91a1710d769",
      "contractAddress": null
    }
  ],
  "libraries": [],
  "pending": [],
  "returns": {},
  "timestamp": 1736890477,
  "chain": 11155111,
  "commit": "51a374b"
}