{
  "transactions": [
    {
      "hash": "0x7c0fa98cb619c8a04654d96e278e83c3153b05b7abddc57d8a9af6745c360523",
      "transactionType": "CALL",
      "contractName": null,
      "contractAddress": "0x8aafd3ede9adb0ff97c7aebce82a919afb1c8764",
      "function": "sell(uint256)",
      "arguments": [
        "7483297309"
      ],
      "transaction": {
        "from": "0xc77f7fed3b5cc8249adc428c5f44c9063b9734b4",
        "to": "0x8aafd3ede9adb0ff97c7aebce82a919afb1c8764",
        "gas": "0x1722a",
        "value": "0x0",
        "input": "0xe4849b3200000000000000000000000000000000000000000000000000000001be0a0e1d",
        "nonce": "0x147d",
        "chainId": "0xaa36a7"
      },
      "additionalContracts": [],
      "isFixedGasLimit": false
    }
  ],
  "receipts": [
    {
      "status": "0x1",
      "cumulativeGasUsed": "0x469f73",
      "logs": [
        {
          "address": "0x8aafd3ede9adb0ff97c7aebce82a919afb1c8764",
          "topics": [
            "0xddf252ad1be2c89b69c2b068fc378daa952ba7f163c4a11628f55a4df523b3ef",
            "0x000000000000000000000000c77f7fed3b5cc8249adc428c5f44c9063b9734b4",
            "0x0000000000000000000000000000000000000000000000000000000000000000"
          ],
          "data": "0x00000000000000000000000000000000000000000000000000000001ba789113",
          "blockHash": "0xe81c48a2f764bdf4d48119d4b11a4213da0e0b41b4f5590707a559e478672595",
          "blockNumber": "0x731bca",
          "transactionHash": "0x7c0fa98cb619c8a04654d96e278e83c3153b05b7abddc57d8a9af6745c360523",
          "transactionIndex": "0x34",
          "logIndex": "0x47",
          "removed": false
        },
        {
          "address": "0x8aafd3ede9adb0ff97c7aebce82a919afb1c8764",
          "topics": [
            "0xddf252ad1be2c89b69c2b068fc378daa952ba7f163c4a11628f55a4df523b3ef",
            "0x000000000000000000000000c77f7fed3b5cc8249adc428c5f44c9063b9734b4",
            "0x000000000000000000000000c77f7fed3b5cc8249adc428c5f44c9063b9734b4"
          ],
          "data": "0x0000000000000000000000000000000000000000000000000000000003917d0a",
          "blockHash": "0xe81c48a2f764bdf4d48119d4b11a4213da0e0b41b4f5590707a559e478672595",
          "blockNumber": "0x731bca",
          "transactionHash": "0x7c0fa98cb619c8a04654d96e278e83c3153b05b7abddc57d8a9af6745c360523",
          "transactionIndex": "0x34",
          "logIndex": "0x48",
          "removed": false
        },
        {
          "address": "0x8aafd3ede9adb0ff97c7aebce82a919afb1c8764",
          "topics": [
            "0x4afcb4a87cdbd9974efdb92ee48bc8d7cd0ae4bf217004db3d080cbaee652ca7"
          ],
          "data": "0x0000000000000000000000000000000000000000000000000000000067904a54000000000000000000000000000000000000000000000000000f8d0e346107c50000000000000000000000000000000000000000000000000000000001f3d12e",
          "blockHash": "0xe81c48a2f764bdf4d48119d4b11a4213da0e0b41b4f5590707a559e478672595",
          "blockNumber": "0x731bca",
          "transactionHash": "0x7c0fa98cb619c8a04654d96e278e83c3153b05b7abddc57d8a9af6745c360523",
          "transactionIndex": "0x34",
          "logIndex": "0x49",
          "removed": false
        }
      ],
      "logsBloom": "0x00000000000000000000000000000000000000000600000000000000000000000000000000000000000000000000000000000000000000004000000000000000000000000000004000000008000000000000000000000000000000000000000000000000020000000000000000000800020000000000000000000010000000000000000000000000000000000000000000000000000000000000010000000000000000000000000000000000000000004000000000000000000000000000000000000002000000800000000000000000000000000000080000000000000020000000000000000000000000000000000000000000000000000000000000000000",
      "type": "0x2",
      "transactionHash": "0x7c0fa98cb619c8a04654d96e278e83c3153b05b7abddc57d8a9af6745c360523",
      "transactionIndex": "0x34",
      "blockHash": "0xe81c48a2f764bdf4d48119d4b11a4213da0e0b41b4f5590707a559e478672595",
      "blockNumber": "0x731bca",
      "gasUsed": "0xfd1b",
      "effectiveGasPrice": "0x109a039f7",
      "from": "0xc77f7fed3b5cc8249adc428c5f44c9063b9734b4",
      "to": "0x8aafd3ede9adb0ff97c7aebce82a919afb1c8764",
      "contractAddress": null
    }
  ],
  "libraries": [],
  "pending": [],
  "returns": {},
  "timestamp": 1737509460,
  "chain": 11155111,
  "commit": "1d2fb70"
}