{
  "transactions": [
    {
      "hash": "0x4fc6615196637fc67318cc28b3240343a441f265c78f9a8d14087082fb94c912",
      "transactionType": "CALL",
      "contractName": null,
      "contractAddress": "0xbf4a322f1496e5c3d34a9bcdb4c60567b38c7de2",
      "function": "sell(uint256)",
      "arguments": [
        "989475153357861864839"
      ],
      "transaction": {
        "from": "0xc77f7fed3b5cc8249adc428c5f44c9063b9734b4",
        "to": "0xbf4a322f1496e5c3d34a9bcdb4c60567b38c7de2",
        "gas": "0x16fea",
        "value": "0x0",
        "input": "0xe4849b32000000000000000000000000000000000000000000000035a3b9e983d284c587",
        "nonce": "0x95d",
        "chainId": "0xaa36a7"
      },
      "additionalContracts": [],
      "isFixedGasLimit": false
    }
  ],
  "receipts": [
    {
      "status": "0x1",
      "cumulativeGasUsed": "0x13e6095",
      "logs": [
        {
          "address": "0xbf4a322f1496e5c3d34a9bcdb4c60567b38c7de2",
          "topics": [
            "0xddf252ad1be2c89b69c2b068fc378daa952ba7f163c4a11628f55a4df523b3ef",
            "0x000000000000000000000000c77f7fed3b5cc8249adc428c5f44c9063b9734b4",
            "0x0000000000000000000000000000000000000000000000000000000000000000"
          ],
          "data": "0x000000000000000000000000000000000000000000000035a3b9e983d284c587",
          "blockHash": "0x2e45372d97d7d1b3ca1fe9c9bfd40f291f6ea40d833a64a9c2c80af5bb8ae5bb",
          "blockNumber": "0x7258f3",
          "transactionHash": "0x4fc6615196637fc67318cc28b3240343a441f265c78f9a8d14087082fb94c912",
          "transactionIndex": "0x7f",
          "logIndex": "0xe4",
          "removed": false
        },
        {
          "address": "0xbf4a322f1496e5c3d34a9bcdb4c60567b38c7de2",
          "topics": [
            "0x4afcb4a87cdbd9974efdb92ee48bc8d7cd0ae4bf217004db3d080cbaee652ca7"
          ],
          "data": "0x0000000000000000000000000000000000000000000000000000000067871d90000000000000000000000000000000000000000000000000000390c33c9021b10000000000000000000000000000000000000000000000000dc7e3f81897026d",
          "blockHash": "0x2e45372d97d7d1b3ca1fe9c9bfd40f291f6ea40d833a64a9c2c80af5bb8ae5bb",
          "blockNumber": "0x7258f3",
          "transactionHash": "0x4fc6615196637fc67318cc28b3240343a441f265c78f9a8d14087082fb94c912",
          "transactionIndex": "0x7f",
          "logIndex": "0xe5",
          "removed": false
        }
      ],
      "logsBloom": "0x00000000000000000000000000000000000000000000000000000000000000000000000000000000000000000000000000000000000000004000000000000000000000000000000000000008000000000000001000000000000000000000000000000000020000000000000000000800020000000000000000000010000000000000000000000000000000000000000000000000000008000000010000000000000000000000000000000000000000004000000000000000000000000000000000000002000000800000000000001000000000000000080000000000000020000000000000000000000000000000000000000000000000000000000000000000",
      "type": "0x2",
      "transactionHash": "0x4fc6615196637fc67318cc28b3240343a441f265c78f9a8d14087082fb94c912",
      "transactionIndex": "0x7f",
      "blockHash": "0x2e45372d97d7d1b3ca1fe9c9bfd40f291f6ea40d833a64a9c2c80af5bb8ae5bb",
      "blockNumber": "0x7258f3",
      "gasUsed": "0xfb91",
      "effectiveGasPrice": "0x80e90a2e",
      "from": "0xc77f7fed3b5cc8249adc428c5f44c9063b9734b4",
      "to": "0xbf4a322f1496e5c3d34a9bcdb4c60567b38c7de2",
      "contractAddress": null
    }
  ],
  "libraries": [],
  "pending": [],
  "returns": {},
  "timestamp": 1736908178,
  "chain": 11155111,
  "commit": "51a374b"
}