{
  "transactions": [
    {
      "hash": "0xef935d80c6b18652ddc87b7840dd5b9b073fdae32e17abd0db626f6efbc39254",
      "transactionType": "CALL",
      "contractName": null,
      "contractAddress": "0x270e88f8683660553e8ba4eb2ad7c91a1710d769",
      "function": "sell(uint256)",
      "arguments": [
        "748917733116170610416"
      ],
      "transaction": {
        "from": "0xc77f7fed3b5cc8249adc428c5f44c9063b9734b4",
        "to": "0x270e88f8683660553e8ba4eb2ad7c91a1710d769",
        "gas": "0x16fec",
        "value": "0x0",
        "input": "0xe4849b32000000000000000000000000000000000000000000000028995246553c2626f0",
        "nonce": "0x6d8",
        "chainId": "0xaa36a7"
      },
      "additionalContracts": [],
      "isFixedGasLimit": false
    }
  ],
  "receipts": [
    {
      "status": "0x1",
      "cumulativeGasUsed": "0x7f5e00",
      "logs": [
        {
          "address": "0x270e88f8683660553e8ba4eb2ad7c91a1710d769",
          "topics": [
            "0xddf252ad1be2c89b69c2b068fc378daa952ba7f163c4a11628f55a4df523b3ef",
            "0x000000000000000000000000c77f7fed3b5cc8249adc428c5f44c9063b9734b4",
            "0x0000000000000000000000000000000000000000000000000000000000000000"
          ],
          "data": "0x000000000000000000000000000000000000000000000028995246553c2626f0",
          "blockHash": "0x8d0a449f2ef40056c3af4d1f088eb06d2de3ce9699ae618b8edd67d01a4da1f3",
          "blockNumber": "0x7253eb",
          "transactionHash": "0xef935d80c6b18652ddc87b7840dd5b9b073fdae32e17abd0db626f6efbc39254",
          "transactionIndex": "0x3c",
          "logIndex": "0x62",
          "removed": false
        },
        {
          "address": "0x270e88f8683660553e8ba4eb2ad7c91a1710d769",
          "topics": [
            "0x4afcb4a87cdbd9974efdb92ee48bc8d7cd0ae4bf217004db3d080cbaee652ca7"
          ],
          "data": "0x000000000000000000000000000000000000000000000000000000006786e10c0000000000000000000000000000000000000000000000000004b6352ca10f320000000000000000000000000000000000000000000000000dc8296c3588a9fa",
          "blockHash": "0x8d0a449f2ef40056c3af4d1f088eb06d2de3ce9699ae618b8edd67d01a4da1f3",
          "blockNumber": "0x7253eb",
          "transactionHash": "0xef935d80c6b18652ddc87b7840dd5b9b073fdae32e17abd0db626f6efbc39254",
          "transactionIndex": "0x3c",
          "logIndex": "0x63",
          "removed": false
        }
      ],
      "logsBloom": "0x00000000000000000000000000000000000000000000000000000000000000000000000000000000000000000000000020000000000000004000000000000000000000000000000000000008000000000000000000000000000000000000000000000000020000000000000000000800020000000000000000000010000000000000000000010000000000000000000000000000000000000000010000000000000000000000000000000000000000004000000000000000000000000000000000000002000000800000000000000000000000000000080000008000000020000000000000000000000000000000000000000000000000000000000000000000",
      "type": "0x2",
      "transactionHash": "0xef935d80c6b18652ddc87b7840dd5b9b073fdae32e17abd0db626f6efbc39254",
      "transactionIndex": "0x3c",
      "blockHash": "0x8d0a449f2ef40056c3af4d1f088eb06d2de3ce9699ae618b8edd67d01a4da1f3",
      "blockNumber": "0x7253eb",
      "gasUsed": "0xfb93",
      "effectiveGasPrice": "0x15fd8622b",
      "from": "0xc77f7fed3b5cc8249adc428c5f44c9063b9734b4",
      "to": "0x270e88f8683660553e8ba4eb2ad7c91a1710d769",
      "contractAddress": null
    }
  ],
  "libraries": [],
  "pending": [],
  "returns": {},
  "timestamp": 1736892685,
  "chain": 11155111,
  "commit": "51a374b"
}