{
  "transactions": [
    {
      "hash": "0x04df79229271fdb2f53ea0f21f73855d9d84953a52c8f29367aed0a3da47251e",
      "transactionType": "CALL",
      "contractName": null,
      "contractAddress": "0xd7bc75898e513accccf720a874d44dab5a4b6223",
      "function": "buy(address)",
      "arguments": [
        "0xC77f7fed3b5Cc8249aDc428c5F44C9063B9734b4"
      ],
      "transaction": {
        "from": "0xc77f7fed3b5cc8249adc428c5f44c9063b9734b4",
        "to": "0xd7bc75898e513accccf720a874d44dab5a4b6223",
        "gas": "0x1b30c",
        "value": "0x16345785d8a0000",
        "input": "0xf088d547000000000000000000000000c77f7fed3b5cc8249adc428c5f44c9063b9734b4",
        "nonce": "0x67",
        "chainId": "0xaa36a7"
      },
      "additionalContracts": [],
      "isFixedGasLimit": false
    },
    {
      "hash": "0x2459f7c73ce007db3056de7aff73702db5194d6e7be99d18831e186c2c2772bd",
      "transactionType": "CALL",
      "contractName": null,
      "contractAddress": "0xd7bc75898e513accccf720a874d44dab5a4b6223",
      "function": "sell(uint256)",
      "arguments": [
        "99300290336935982162"
      ],
      "transaction": {
        "from": "0xc77f7fed3b5cc8249adc428c5f44c9063b9734b4",
        "to": "0xd7bc75898e513accccf720a874d44dab5a4b6223",
        "gas": "0x16fec",
        "value": "0x0",
        "input": "0xe4849b3200000000000000000000000000000000000000000000000562117ff22a393452",
        "nonce": "0x68",
        "chainId": "0xaa36a7"
      },
      "additionalContracts": [],
      "isFixedGasLimit": false
    }
  ],
  "receipts": [
    {
      "status": "0x1",
      "cumulativeGasUsed": "0x14bc1e0",
      "logs": [
        {
          "address": "0xd7bc75898e513accccf720a874d44dab5a4b6223",
          "topics": [
            "0xddf252ad1be2c89b69c2b068fc378daa952ba7f163c4a11628f55a4df523b3ef",
            "0x0000000000000000000000000000000000000000000000000000000000000000",
            "0x000000000000000000000000c77f7fed3b5cc8249adc428c5f44c9063b9734b4"
          ],
          "data": "0x0000000000000000000000000000000000000000000000055de69e70f8d19f97",
          "blockHash": "0xea1da1290f5f941756fbf5e845841b7b395b1e51707018ff4725d385071d415d",
          "blockNumber": "0x723897",
          "transactionHash": "0x04df79229271fdb2f53ea0f21f73855d9d84953a52c8f29367aed0a3da47251e",
          "transactionIndex": "0x62",
          "logIndex": "0x195",
          "removed": false
        },
        {
          "address": "0xd7bc75898e513accccf720a874d44dab5a4b6223",
          "topics": [
            "0xddf252ad1be2c89b69c2b068fc378daa952ba7f163c4a11628f55a4df523b3ef",
            "0x0000000000000000000000000000000000000000000000000000000000000000",
            "0x000000000000000000000000c77f7fed3b5cc8249adc428c5f44c9063b9734b4"
          ],
          "data": "0x000000000000000000000000000000000000000000000000042ae181316794bb",
          "blockHash": "0xea1da1290f5f941756fbf5e845841b7b395b1e51707018ff4725d385071d415d",
          "blockNumber": "0x723897",
          "transactionHash": "0x04df79229271fdb2f53ea0f21f73855d9d84953a52c8f29367aed0a3da47251e",
          "transactionIndex": "0x62",
          "logIndex": "0x196",
          "removed": false
        },
        {
          "address": "0xd7bc75898e513accccf720a874d44dab5a4b6223",
          "topics": [
            "0x4afcb4a87cdbd9974efdb92ee48bc8d7cd0ae4bf217004db3d080cbaee652ca7"
          ],
          "data": "0x000000000000000000000000000000000000000000000000000000006785985c00000000000000000000000000000000000000000000000000038d7eab73719e000000000000000000000000000000000000000000000000016345785d8a0000",
          "blockHash": "0xea1da1290f5f941756fbf5e845841b7b395b1e51707018ff4725d385071d415d",
          "blockNumber": "0x723897",
          "transactionHash": "0x04df79229271fdb2f53ea0f21f73855d9d84953a52c8f29367aed0a3da47251e",
          "transactionIndex": "0x62",
          "logIndex": "0x197",
          "removed": false
        }
      ],
      "logsBloom": "0x00000000000000000000000000000000000000000000000000000000000000000000000000000000000000000000000000000000000000004000000000000000000000000000000000000008000000000000000000000000000000000000000000000000020000000000000000000800020000000000000000000010000000000000000000000000000000000000000000000000000000000000010000000000000000000000000000000000000000004000001000000000000000000000000000000002000000800000000000004000000000000000080000000000000020000000000000000000000000000000000000000000080000000000000000000000",
      "type": "0x2",
      "transactionHash": "0x04df79229271fdb2f53ea0f21f73855d9d84953a52c8f29367aed0a3da47251e",
      "transactionIndex": "0x62",
      "blockHash": "0xea1da1290f5f941756fbf5e845841b7b395b1e51707018ff4725d385071d415d",
      "blockNumber": "0x723897",
      "gasUsed": "0x13af8",
      "effectiveGasPrice": "0x23e8965",
      "from": "0xc77f7fed3b5cc8249adc428c5f44c9063b9734b4",
      "to": "0xd7bc75898e513accccf720a874d44dab5a4b6223",
      "contractAddress": null
    },
    {
      "status": "0x1",
      "cumulativeGasUsed": "0x14cbd73",
      "logs": [
        {
          "address": "0xd7bc75898e513accccf720a874d44dab5a4b6223",
          "topics": [
            "0xddf252ad1be2c89b69c2b068fc378daa952ba7f163c4a11628f55a4df523b3ef",
            "0x000000000000000000000000c77f7fed3b5cc8249adc428c5f44c9063b9734b4",
            "0x0000000000000000000000000000000000000000000000000000000000000000"
          ],
          "data": "0x00000000000000000000000000000000000000000000000562117ff22a393452",
          "blockHash": "0xea1da1290f5f941756fbf5e845841b7b395b1e51707018ff4725d385071d415d",
          "blockNumber": "0x723897",
          "transactionHash": "0x2459f7c73ce007db3056de7aff73702db5194d6e7be99d18831e186c2c2772bd",
          "transactionIndex": "0x63",
          "logIndex": "0x198",
          "removed": false
        },
        {
          "address": "0xd7bc75898e513accccf720a874d44dab5a4b6223",
          "topics": [
            "0x4afcb4a87cdbd9974efdb92ee48bc8d7cd0ae4bf217004db3d080cbaee652ca7"
          ],
          "data": "0x000000000000000000000000000000000000000000000000000000006785985c00000000000000000000000000000000000000000000000000038d7eacaf1c650000000000000000000000000000000000000000000000000160c9191a82ee45",
          "blockHash": "0xea1da1290f5f941756fbf5e845841b7b395b1e51707018ff4725d385071d415d",
          "blockNumber": "0x723897",
          "transactionHash": "0x2459f7c73ce007db3056de7aff73702db5194d6e7be99d18831e186c2c2772bd",
          "transactionIndex": "0x63",
          "logIndex": "0x199",
          "removed": false
        }
      ],
      "logsBloom": "0x00000000000000000000000000000000000000000000000000000000000000000000000000000000000000000000000000000000000000004000000000000000000000000000000000000008000000000000000000000000000000000000000000000000020000000000000000000800020000000000000000000010000000000000000000000000000000000000000000000000000000000000010000000000000000000000000000000000000000004000001000000000000000000000000000000002000000800000000000004000000000000000080000000000000020000000000000000000000000000000000000000000080000000000000000000000",
      "type": "0x2",
      "transactionHash": "0x2459f7c73ce007db3056de7aff73702db5194d6e7be99d18831e186c2c2772bd",
      "transactionIndex": "0x63",
      "blockHash": "0xea1da1290f5f941756fbf5e845841b7b395b1e51707018ff4725d385071d415d",
      "blockNumber": "0x723897",
      "gasUsed": "0xfb93",
      "effectiveGasPrice": "0x23e8965",
      "from": "0xc77f7fed3b5cc8249adc428c5f44c9063b9734b4",
      "to": "0xd7bc75898e513accccf720a874d44dab5a4b6223",
      "contractAddress": null
    }
  ],
  "libraries": [],
  "pending": [],
  "returns": {},
  "timestamp": 1736808541,
  "chain": 11155111,
  "commit": "51a374b"
}