{
  "transactions": [
    {
      "hash": "0x53e9eab3392a7fe70d0ccc155dbac80d48ab0e24f184df0cddf76a9584579707",
      "transactionType": "CALL",
      "contractName": null,
      "contractAddress": "0x8aafd3ede9adb0ff97c7aebce82a919afb1c8764",
      "function": "sell(uint256)",
      "arguments": [
        "668848753580489979497"
      ],
      "transaction": {
        "from": "0xc77f7fed3b5cc8249adc428c5f44c9063b9734b4",
        "to": "0x8aafd3ede9adb0ff97c7aebce82a919afb1c8764",
        "gas": "0x17270",
        "value": "0x0",
        "input": "0xe4849b3200000000000000000000000000000000000000000000002442241dab3be23669",
        "nonce": "0x1299",
        "chainId": "0xaa36a7"
      },
      "additionalContracts": [],
      "isFixedGasLimit": false
    }
  ],
  "receipts": [
    {
      "status": "0x1",
      "cumulativeGasUsed": "0x21a13c9",
      "logs": [
        {
          "address": "0x8aafd3ede9adb0ff97c7aebce82a919afb1c8764",
          "topics": [
            "0xddf252ad1be2c89b69c2b068fc378daa952ba7f163c4a11628f55a4df523b3ef",
            "0x000000000000000000000000c77f7fed3b5cc8249adc428c5f44c9063b9734b4",
            "0x0000000000000000000000000000000000000000000000000000000000000000"
          ],
          "data": "0x000000000000000000000000000000000000000000000023f7e24a7ccedc4e8e",
          "blockHash": "0x281d5b5c751d86ca8adb59be910bec7a4e0ab4353e299242862407af67a35fdc",
          "blockNumber": "0x73198a",
          "transactionHash": "0x53e9eab3392a7fe70d0ccc155dbac80d48ab0e24f184df0cddf76a9584579707",
          "transactionIndex": "0x77",
          "logIndex": "0x1103",
          "removed": false
        },
        {
          "address": "0x8aafd3ede9adb0ff97c7aebce82a919afb1c8764",
          "topics": [
            "0xddf252ad1be2c89b69c2b068fc378daa952ba7f163c4a11628f55a4df523b3ef",
            "0x000000000000000000000000c77f7fed3b5cc8249adc428c5f44c9063b9734b4",
            "0x000000000000000000000000c77f7fed3b5cc8249adc428c5f44c9063b9734b4"
          ],
          "data": "0x0000000000000000000000000000000000000000000000004a41d32e6d05e7db",
          "blockHash": "0x281d5b5c751d86ca8adb59be910bec7a4e0ab4353e299242862407af67a35fdc",
          "blockNumber": "0x73198a",
          "transactionHash": "0x53e9eab3392a7fe70d0ccc155dbac80d48ab0e24f184df0cddf76a9584579707",
          "transactionIndex": "0x77",
          "logIndex": "0x1104",
          "removed": false
        },
        {
          "address": "0x8aafd3ede9adb0ff97c7aebce82a919afb1c8764",
          "topics": [
            "0x4afcb4a87cdbd9974efdb92ee48bc8d7cd0ae4bf217004db3d080cbaee652ca7"
          ],
          "data": "0x0000000000000000000000000000000000000000000000000000000067902f48000000000000000000000000000000000000000000000000000547b8c90eb02c0000000000000000000000000000000000000000000000000dc8ed71aa7d653d",
          "blockHash": "0x281d5b5c751d86ca8adb59be910bec7a4e0ab4353e299242862407af67a35fdc",
          "blockNumber": "0x73198a",
          "transactionHash": "0x53e9eab3392a7fe70d0ccc155dbac80d48ab0e24f184df0cddf76a9584579707",
          "transactionIndex": "0x77",
          "logIndex": "0x1105",
          "removed": false
        }
      ],
      "logsBloom": "0x00000000000000000000000000000000000000000600000000000000000000000000000000000000000000000000000000000000000000004000000000000000000000000000004000000008000000000000000000000000000000000000000000000000020000000000000000000800020000000000000000000010000000000000000000000000000000000000000000000000000000000000010000000000000000000000000000000000000000004000000000000000000000000000000000000002000000800000000000000000000000000000080000000000000020000000000000000000000000000000000000000000000000000000000000000000",
      "type": "0x2",
      "transactionHash": "0x53e9eab3392a7fe70d0ccc155dbac80d48ab0e24f184df0cddf76a9584579707",
      "transactionIndex": "0x77",
      "blockHash": "0x281d5b5c751d86ca8adb59be910bec7a4e0ab4353e299242862407af67a35fdc",
      "blockNumber": "0x73198a",
      "gasUsed": "0xfd4b",
      "effectiveGasPrice": "0x3adccc60",
      "from": "0xc77f7fed3b5cc8249adc428c5f44c9063b9734b4",
      "to": "0x8aafd3ede9adb0ff97c7aebce82a919afb1c8764",
      "contractAddress": null
    }
  ],
  "libraries": [],
  "pending": [],
  "returns": {},
  "timestamp": 1737502538,
  "chain": 11155111,
  "commit": "1d2fb70"
}