{
  "transactions": [
    {
      "hash": "0x9c2c6064cda3cc9bb88abce7d1a614fc94dad7f61c5c479d17fad728bff150a6",
      "transactionType": "CALL",
      "contractName": null,
      "contractAddress": "0x8aafd3ede9adb0ff97c7aebce82a919afb1c8764",
      "function": "sell(uint256)",
      "arguments": [
        "466464"
      ],
      "transaction": {
        "from": "0xc77f7fed3b5cc8249adc428c5f44c9063b9734b4",
        "to": "0x8aafd3ede9adb0ff97c7aebce82a919afb1c8764",
        "gas": "0x16208",
        "value": "0x0",
        "input": "0xe4849b320000000000000000000000000000000000000000000000000000000000071e20",
        "nonce": "0x14a3",
        "chainId": "0xaa36a7"
      },
      "additionalContracts": [],
      "isFixedGasLimit": false
    }
  ],
  "receipts": [
    {
      "status": "0x1",
      "cumulativeGasUsed": "0xb9452b",
      "logs": [
        {
          "address": "0x8aafd3ede9adb0ff97c7aebce82a919afb1c8764",
          "topics": [
            "0xddf252ad1be2c89b69c2b068fc378daa952ba7f163c4a11628f55a4df523b3ef",
            "0x000000000000000000000000c77f7fed3b5cc8249adc428c5f44c9063b9734b4",
            "0x0000000000000000000000000000000000000000000000000000000000000000"
          ],
          "data": "0x0000000000000000000000000000000000000000000000000000000000070f8d",
          "blockHash": "0xe29c4fbba4721f6c93e516e2244a2ccc430026e94cfb64a482101d0c6f0dbd9a",
          "blockNumber": "0x731bf6",
          "transactionHash": "0x9c2c6064cda3cc9bb88abce7d1a614fc94dad7f61c5c479d17fad728bff150a6",
          "transactionIndex": "0x80",
          "logIndex": "0x9b",
          "removed": false
        },
        {
          "address": "0x8aafd3ede9adb0ff97c7aebce82a919afb1c8764",
          "topics": [
            "0xddf252ad1be2c89b69c2b068fc378daa952ba7f163c4a11628f55a4df523b3ef",
            "0x000000000000000000000000c77f7fed3b5cc8249adc428c5f44c9063b9734b4",
            "0x000000000000000000000000c77f7fed3b5cc8249adc428c5f44c9063b9734b4"
          ],
          "data": "0x0000000000000000000000000000000000000000000000000000000000000e93",
          "blockHash": "0xe29c4fbba4721f6c93e516e2244a2ccc430026e94cfb64a482101d0c6f0dbd9a",
          "blockNumber": "0x731bf6",
          "transactionHash": "0x9c2c6064cda3cc9bb88abce7d1a614fc94dad7f61c5c479d17fad728bff150a6",
          "transactionIndex": "0x80",
          "logIndex": "0x9c",
          "removed": false
        },
        {
          "address": "0x8aafd3ede9adb0ff97c7aebce82a919afb1c8764",
          "topics": [
            "0x4afcb4a87cdbd9974efdb92ee48bc8d7cd0ae4bf217004db3d080cbaee652ca7"
          ],
          "data": "0x0000000000000000000000000000000000000000000000000000000067904c64000000000000000000000000000000000000000000000000000ff6c9d34d38f30000000000000000000000000000000000000000000000000000000000000830",
          "blockHash": "0xe29c4fbba4721f6c93e516e2244a2ccc430026e94cfb64a482101d0c6f0dbd9a",
          "blockNumber": "0x731bf6",
          "transactionHash": "0x9c2c6064cda3cc9bb88abce7d1a614fc94dad7f61c5c479d17fad728bff150a6",
          "transactionIndex": "0x80",
          "logIndex": "0x9d",
          "removed": false
        }
      ],
      "logsBloom": "0x00000000000000000000000000000000000000000600000000000000000000000000000000000000000000000000000000000000000000004000000000000000000000000000004000000008000000000000000000000000000000000000000000000000020000000000000000000800020000000000000000000010000000000000000000000000000000000000000000000000000000000000010000000000000000000000000000000000000000004000000000000000000000000000000000000002000000800000000000000000000000000000080000000000000020000000000000000000000000000000000000000000000000000000000000000000",
      "type": "0x2",
      "transactionHash": "0x9c2c6064cda3cc9bb88abce7d1a614fc94dad7f61c5c479d17fad728bff150a6",
      "transactionIndex": "0x80",
      "blockHash": "0xe29c4fbba4721f6c93e516e2244a2ccc430026e94cfb64a482101d0c6f0dbd9a",
      "blockNumber": "0x731bf6",
      "gasUsed": "0xf213",
      "effectiveGasPrice": "0x1002f18c5",
      "from": "0xc77f7fed3b5cc8249adc428c5f44c9063b9734b4",
      "to": "0x8aafd3ede9adb0ff97c7aebce82a919afb1c8764",
      "contractAddress": null
    }
  ],
  "libraries": [],
  "pending": [],
  "returns": {},
  "timestamp": 1737509989,
  "chain": 11155111,
  "commit": "1d2fb70"
}