{
  "transactions": [
    {
      "hash": "0x278880f93146c8adfacaf4e11885972a8c2972abf26abab5237342c550791d24",
      "transactionType": "CALL",
      "contractName": null,
      "contractAddress": "0xbf4a322f1496e5c3d34a9bcdb4c60567b38c7de2",
      "function": "sell(uint256)",
      "arguments": [
        "984219880761339318034"
      ],
      "transaction": {
        "from": "0xc77f7fed3b5cc8249adc428c5f44c9063b9734b4",
        "to": "0xbf4a322f1496e5c3d34a9bcdb4c60567b38c7de2",
        "gas": "0x16fea",
        "value": "0x0",
        "input": "0xe4849b320000000000000000000000000000000000000000000000355acb6eee98f28f12",
        "nonce": "0xadf",
        "chainId": "0xaa36a7"
      },
      "additionalContracts": [],
      "isFixedGasLimit": false
    }
  ],
  "receipts": [
    {
      "status": "0x1",
      "cumulativeGasUsed": "0x6ccf81",
      "logs": [
        {
          "address": "0xbf4a322f1496e5c3d34a9bcdb4c60567b38c7de2",
          "topics": [
            "0xddf252ad1be2c89b69c2b068fc378daa952ba7f163c4a11628f55a4df523b3ef",
            "0x000000000000000000000000c77f7fed3b5cc8249adc428c5f44c9063b9734b4",
            "0x0000000000000000000000000000000000000000000000000000000000000000"
          ],
          "data": "0x0000000000000000000000000000000000000000000000355acb6eee98f28f12",
          "blockHash": "0x57165ad462e4b298c8010dadf3255a1813dd66b736d3e5ccfe4acb6e26d484a1",
          "blockNumber": "0x725ad2",
          "transactionHash": "0x278880f93146c8adfacaf4e11885972a8c2972abf26abab5237342c550791d24",
          "transactionIndex": "0x56",
          "logIndex": "0x63",
          "removed": false
        },
        {
          "address": "0xbf4a322f1496e5c3d34a9bcdb4c60567b38c7de2",
          "topics": [
            "0x4afcb4a87cdbd9974efdb92ee48bc8d7cd0ae4bf217004db3d080cbaee652ca7"
          ],
          "data": "0x0000000000000000000000000000000000000000000000000000000067873428000000000000000000000000000000000000000000000000000395a2e02318700000000000000000000000000000000000000000000000000dc7e3ebe0ab8c58",
          "blockHash": "0x57165ad462e4b298c8010dadf3255a1813dd66b736d3e5ccfe4acb6e26d484a1",
          "blockNumber": "0x725ad2",
          "transactionHash": "0x278880f93146c8adfacaf4e11885972a8c2972abf26abab5237342c550791d24",
          "transactionIndex": "0x56",
          "logIndex": "0x64",
          "removed": false
        }
      ],
      "logsBloom": "0x00000000000000000000000000000000000000000000000000000000000000000000000000000000000000000000000000000000000000004000000000000000000000000000000000000008000000000000001000000000000000000000000000000000020000000000000000000800020000000000000000000010000000000000000000000000000000000000000000000000000008000000010000000000000000000000000000000000000000004000000000000000000000000000000000000002000000800000000000001000000000000000080000000000000020000000000000000000000000000000000000000000000000000000000000000000",
      "type": "0x2",
      "transactionHash": "0x278880f93146c8adfacaf4e11885972a8c2972abf26abab5237342c550791d24",
      "transactionIndex": "0x56",
      "blockHash": "0x57165ad462e4b298c8010dadf3255a1813dd66b736d3e5ccfe4acb6e26d484a1",
      "blockNumber": "0x725ad2",
      "gasUsed": "0xfb91",
      "effectiveGasPrice": "0xc97bf38d",
      "from": "0xc77f7fed3b5cc8249adc428c5f44c9063b9734b4",
      "to": "0xbf4a322f1496e5c3d34a9bcdb4c60567b38c7de2",
      "contractAddress": null
    }
  ],
  "libraries": [],
  "pending": [],
  "returns": {},
  "timestamp": 1736913961,
  "chain": 11155111,
  "commit": "51a374b"
}