{
  "transactions": [
    {
      "hash": "0x5305e9670dfadc45c2925299e3d39095a364c1d3a2db6905f2ab0d4ce4efba18",
      "transactionType": "CALL",
      "contractName": null,
      "contractAddress": "0x8aafd3ede9adb0ff97c7aebce82a919afb1c8764",
      "function": "buy(address)",
      "arguments": [
        "0xC77f7fed3b5Cc8249aDc428c5F44C9063B9734b4"
      ],
      "transaction": {
        "from": "0xc77f7fed3b5cc8249adc428c5f44c9063b9734b4",
        "to": "0x8aafd3ede9adb0ff97c7aebce82a919afb1c8764",
        "gas": "0x156ea",
        "value": "0xde0b6b3a7640000",
        "input": "0xf088d547000000000000000000000000c77f7fed3b5cc8249adc428c5f44c9063b9734b4",
        "nonce": "0xfc0",
        "chainId": "0xaa36a7"
      },
      "additionalContracts": [],
      "isFixedGasLimit": false
    }
  ],
  "receipts": [
    {
      "status": "0x1",
      "cumulativeGasUsed": "0xee3ce1",
      "logs": [
        {
          "address": "0x8aafd3ede9adb0ff97c7aebce82a919afb1c8764",
          "topics": [
            "0xddf252ad1be2c89b69c2b068fc378daa952ba7f163c4a11628f55a4df523b3ef",
            "0x0000000000000000000000000000000000000000000000000000000000000000",
            "0x000000000000000000000000c77f7fed3b5cc8249adc428c5f44c9063b9734b4"
          ],
          "data": "0x000000000000000000000000000000000000000000000028011becb166c8a500",
          "blockHash": "0x5cfb496e2056b68580087fe640ae975c1e0d1bf7e9337a039d552b6dda7d8a93",
          "blockNumber": "0x73162c",
          "transactionHash": "0x5305e9670dfadc45c2925299e3d39095a364c1d3a2db6905f2ab0d4ce4efba18",
          "transactionIndex": "0x79",
          "logIndex": "0xf7",
          "removed": false
        },
        {
          "address": "0x8aafd3ede9adb0ff97c7aebce82a919afb1c8764",
          "topics": [
            "0xddf252ad1be2c89b69c2b068fc378daa952ba7f163c4a11628f55a4df523b3ef",
            "0x0000000000000000000000000000000000000000000000000000000000000000",
            "0x000000000000000000000000c77f7fed3b5cc8249adc428c5f44c9063b9734b4"
          ],
          "data": "0x0000000000000000000000000000000000000000000000001f10920dd910d496",
          "blockHash": "0x5cfb496e2056b68580087fe640ae975c1e0d1bf7e9337a039d552b6dda7d8a93",
          "blockNumber": "0x73162c",
          "transactionHash": "0x5305e9670dfadc45c2925299e3d39095a364c1d3a2db6905f2ab0d4ce4efba18",
          "transactionIndex": "0x79",
          "logIndex": "0xf8",
          "removed": false
        },
        {
          "address": "0x8aafd3ede9adb0ff97c7aebce82a919afb1c8764",
          "topics": [
            "0x4afcb4a87cdbd9974efdb92ee48bc8d7cd0ae4bf217004db3d080cbaee652ca7"
          ],
          "data": "0x00000000000000000000000000000000000000000000000000000000679006bc0000000000000000000000000000000000000000000000000004c43b5b0fefe80000000000000000000000000000000000000000000000000de0b6b3a7640000",
          "blockHash": "0x5cfb496e2056b68580087fe640ae975c1e0d1bf7e9337a039d552b6dda7d8a93",
          "blockNumber": "0x73162c",
          "transactionHash": "0x5305e9670dfadc45c2925299e3d39095a364c1d3a2db6905f2ab0d4ce4efba18",
          "transactionIndex": "0x79",
          "logIndex": "0xf9",
          "removed": false
        }
      ],
      "logsBloom": "0x00000000000000000000000000000000000000000600000000000000000000000000000000000000000000000000000000000000000000004000000000000000000000000000004000000008000000000000000000000000000000000000000000000000020000000000000000000800020000000000000000000010000000000000000000000000000000000000000000000000000000000000010000000000000000000000000000000000000000004000000000000000000000000000000000000002000000800000000000000000000000000000080000000000000020000000000000000000000000000000000000000000000000000000000000000000",
      "type": "0x2",
      "transactionHash": "0x5305e9670dfadc45c2925299e3d39095a364c1d3a2db6905f2ab0d4ce4efba18",
      "transactionIndex": "0x79",
      "blockHash": "0x5cfb496e2056b68580087fe640ae975c1e0d1bf7e9337a039d552b6dda7d8a93",
      "blockNumber": "0x73162c",
      "gasUsed": "0xf844",
      "effectiveGasPrice": "0x629700d8",
      "from": "0xc77f7fed3b5cc8249adc428c5f44c9063b9734b4",
      "to": "0x8aafd3ede9adb0ff97c7aebce82a919afb1c8764",
      "contractAddress": null
    }
  ],
  "libraries": [],
  "pending": [],
  "returns": {},
  "timestamp": 1737492157,
  "chain": 11155111,
  "commit": "1d2fb70"
}