{
  "transactions": [
    {
      "hash": "0x99aece4ad2fa1b409ac71ff0e74235a64a0f80b352272a1f34dd5c839d951c0a",
      "transactionType": "CALL",
      "contractName": null,
      "contractAddress": "0x8aafd3ede9adb0ff97c7aebce82a919afb1c8764",
      "function": "sell(uint256)",
      "arguments": [
        "70120321"
      ],
      "transaction": {
        "from": "0xc77f7fed3b5cc8249adc428c5f44c9063b9734b4",
        "to": "0x8aafd3ede9adb0ff97c7aebce82a919afb1c8764",
        "gas": "0x15d88",
        "value": "0x0",
        "input": "0xe4849b3200000000000000000000000000000000000000000000000000000000042df381",
        "nonce": "0x13b8",
        "chainId": "0xaa36a7"
      },
      "additionalContracts": [],
      "isFixedGasLimit": false
    }
  ],
  "receipts": [
    {
      "status": "0x1",
      "cumulativeGasUsed": "0x50f2ff",
      "logs": [
        {
          "address": "0x8aafd3ede9adb0ff97c7aebce82a919afb1c8764",
          "topics": [
            "0xddf252ad1be2c89b69c2b068fc378daa952ba7f163c4a11628f55a4df523b3ef",
            "0x000000000000000000000000c77f7fed3b5cc8249adc428c5f44c9063b9734b4",
            "0x0000000000000000000000000000000000000000000000000000000000000000"
          ],
          "data": "0x000000000000000000000000000000000000000000000000000000000425643f",
          "blockHash": "0xe11f3e3bb7cef9ba4f0a651c341b8c798a5ff149316b394fa721316b52d831e0",
          "blockNumber": "0x731ae2",
          "transactionHash": "0x99aece4ad2fa1b409ac71ff0e74235a64a0f80b352272a1f34dd5c839d951c0a",
          "transactionIndex": "0x3a",
          "logIndex": "0x58",
          "removed": false
        },
        {
          "address": "0x8aafd3ede9adb0ff97c7aebce82a919afb1c8764",
          "topics": [
            "0xddf252ad1be2c89b69c2b068fc378daa952ba7f163c4a11628f55a4df523b3ef",
            "0x000000000000000000000000c77f7fed3b5cc8249adc428c5f44c9063b9734b4",
            "0x000000000000000000000000c77f7fed3b5cc8249adc428c5f44c9063b9734b4"
          ],
          "data": "0x0000000000000000000000000000000000000000000000000000000000088f42",
          "blockHash": "0xe11f3e3bb7cef9ba4f0a651c341b8c798a5ff149316b394fa721316b52d831e0",
          "blockNumber": "0x731ae2",
          "transactionHash": "0x99aece4ad2fa1b409ac71ff0e74235a64a0f80b352272a1f34dd5c839d951c0a",
          "transactionIndex": "0x3a",
          "logIndex": "0x59",
          "removed": false
        },
        {
          "address": "0x8aafd3ede9adb0ff97c7aebce82a919afb1c8764",
          "topics": [
            "0x4afcb4a87cdbd9974efdb92ee48bc8d7cd0ae4bf217004db3d080cbaee652ca7"
          ],
          "data": "0x0000000000000000000000000000000000000000000000000000000067903f68000000000000000000000000000000000000000000000000000d4a829722efd100000000000000000000000000000000000000000000000000000000000400b7",
          "blockHash": "0xe11f3e3bb7cef9ba4f0a651c341b8c798a5ff149316b394fa721316b52d831e0",
          "blockNumber": "0x731ae2",
          "transactionHash": "0x99aece4ad2fa1b409ac71ff0e74235a64a0f80b352272a1f34dd5c839d951c0a",
          "transactionIndex": "0x3a",
          "logIndex": "0x5a",
          "removed": false
        }
      ],
      "logsBloom": "0x00000000000000000000000000000000000000000600000000000000000000000000000000000000000000000000000000000000000000004000000000000000000000000000004000000008000000000000000000000000000000000000000000000000020000000000000000000800020000000000000000000010000000000000000000000000000000000000000000000000000000000000010000000000000000000000000000000000000000004000000000000000000000000000000000000002000000800000000000000000000000000000080000000000000020000000000000000000000000000000000000000000000000000000000000000000",
      "type": "0x2",
      "transactionHash": "0x99aece4ad2fa1b409ac71ff0e74235a64a0f80b352272a1f34dd5c839d951c0a",
      "transactionIndex": "0x3a",
      "blockHash": "0xe11f3e3bb7cef9ba4f0a651c341b8c798a5ff149316b394fa721316b52d831e0",
      "blockNumber": "0x731ae2",
      "gasUsed": "0xfd0f",
      "effectiveGasPrice": "0x86ef9597",
      "from": "0xc77f7fed3b5cc8249adc428c5f44c9063b9734b4",
      "to": "0x8aafd3ede9adb0ff97c7aebce82a919afb1c8764",
      "contractAddress": null
    }
  ],
  "libraries": [],
  "pending": [],
  "returns": {},
  "timestamp": 1737506665,
  "chain": 11155111,
  "commit": "1d2fb70"
}