{
  "transactions": [
    {
      "hash": "0xafbd1c2456e316b7da92818293e12f594fc3b470152ea0ac657cf8c3a5c50735",
      "transactionType": "CALL",
      "contractName": null,
      "contractAddress": "0x8aafd3ede9adb0ff97c7aebce82a919afb1c8764",
      "function": "sell(uint256)",
      "arguments": [
        "7288500424"
      ],
      "transaction": {
        "from": "0xc77f7fed3b5cc8249adc428c5f44c9063b9734b4",
        "to": "0x8aafd3ede9adb0ff97c7aebce82a919afb1c8764",
        "gas": "0x1722a",
        "value": "0x0",
        "input": "0xe4849b3200000000000000000000000000000000000000000000000000000001b26db0c8",
        "nonce": "0x14a1",
        "chainId": "0xaa36a7"
      },
      "additionalContracts": [],
      "isFixedGasLimit": false
    }
  ],
  "receipts": [
    {
      "status": "0x1",
      "cumulativeGasUsed": "0x18f4b3f",
      "logs": [
        {
          "address": "0x8aafd3ede9adb0ff97c7aebce82a919afb1c8764",
          "topics": [
            "0xddf252ad1be2c89b69c2b068fc378daa952ba7f163c4a11628f55a4df523b3ef",
            "0x000000000000000000000000c77f7fed3b5cc8249adc428c5f44c9063b9734b4",
            "0x0000000000000000000000000000000000000000000000000000000000000000"
          ],
          "data": "0x00000000000000000000000000000000000000000000000000000001aef3fb25",
          "blockHash": "0x76647b92863c18280ca965a3bddfedf6f3a982a2a88dce929bbc0e5018328319",
          "blockNumber": "0x731bf4",
          "transactionHash": "0xafbd1c2456e316b7da92818293e12f594fc3b470152ea0ac657cf8c3a5c50735",
          "transactionIndex": "0xed",
          "logIndex": "0x18e",
          "removed": false
        },
        {
          "address": "0x8aafd3ede9adb0ff97c7aebce82a919afb1c8764",
          "topics": [
            "0xddf252ad1be2c89b69c2b068fc378daa952ba7f163c4a11628f55a4df523b3ef",
            "0x000000000000000000000000c77f7fed3b5cc8249adc428c5f44c9063b9734b4",
            "0x000000000000000000000000c77f7fed3b5cc8249adc428c5f44c9063b9734b4"
          ],
          "data": "0x000000000000000000000000000000000000000000000000000000000379b5a3",
          "blockHash": "0x76647b92863c18280ca965a3bddfedf6f3a982a2a88dce929bbc0e5018328319",
          "blockNumber": "0x731bf4",
          "transactionHash": "0xafbd1c2456e316b7da92818293e12f594fc3b470152ea0ac657cf8c3a5c50735",
          "transactionIndex": "0xed",
          "logIndex": "0x18f",
          "removed": false
        },
        {
          "address": "0x8aafd3ede9adb0ff97c7aebce82a919afb1c8764",
          "topics": [
            "0x4afcb4a87cdbd9974efdb92ee48bc8d7cd0ae4bf217004db3d080cbaee652ca7"
          ],
          "data": "0x0000000000000000000000000000000000000000000000000000000067904c4c000000000000000000000000000000000000000000000000000ff6c9d34d38ed0000000000000000000000000000000000000000000000000000000001f3bc4b",
          "blockHash": "0x76647b92863c18280ca965a3bddfedf6f3a982a2a88dce929bbc0e5018328319",
          "blockNumber": "0x731bf4",
          "transactionHash": "0xafbd1c2456e316b7da92818293e12f594fc3b470152ea0ac657cf8c3a5c50735",
          "transactionIndex": "0xed",
          "logIndex": "0x190",
          "removed": false
        }
      ],
      "logsBloom": "0x00000000000000000000000000000000000000000600000000000000000000000000000000000000000000000000000000000000000000004000000000000000000000000000004000000008000000000000000000000000000000000000000000000000020000000000000000000800020000000000000000000010000000000000000000000000000000000000000000000000000000000000010000000000000000000000000000000000000000004000000000000000000000000000000000000002000000800000000000000000000000000000080000000000000020000000000000000000000000000000000000000000000000000000000000000000",
      "type": "0x2",
      "transactionHash": "0xafbd1c2456e316b7da92818293e12f594fc3b470152ea0ac657cf8c3a5c50735",
      "transactionIndex": "0xed",
      "blockHash": "0x76647b92863c18280ca965a3bddfedf6f3a982a2a88dce929bbc0e5018328319",
      "blockNumber": "0x731bf4",
      "gasUsed": "0xfd1b",
      "effectiveGasPrice": "0xeebf4c43",
      "from": "0xc77f7fed3b5cc8249adc428c5f44c9063b9734b4",
      "to": "0x8aafd3ede9adb0ff97c7aebce82a919afb1c8764",
      "contractAddress": null
    }
  ],
  "libraries": [],
  "pending": [],
  "returns": {},
  "timestamp": 1737509965,
  "chain": 11155111,
  "commit": "1d2fb70"
}