{
  "transactions": [
    {
      "hash": "0xad7e31a7069303a45057e0edc897fa4acf9f9051687ad8767a8f180e24273af6",
      "transactionType": "CALL",
      "contractName": null,
      "contractAddress": "0x8aafd3ede9adb0ff97c7aebce82a919afb1c8764",
      "function": "sell(uint256)",
      "arguments": [
        "11940"
      ],
      "transaction": {
        "from": "0xc77f7fed3b5cc8249adc428c5f44c9063b9734b4",
        "to": "0x8aafd3ede9adb0ff97c7aebce82a919afb1c8764",
        "gas": "0x14e4c",
        "value": "0x0",
        "input": "0xe4849b320000000000000000000000000000000000000000000000000000000000002ea4",
        "nonce": "0x1071",
        "chainId": "0xaa36a7"
      },
      "additionalContracts": [],
      "isFixedGasLimit": false
    }
  ],
  "receipts": [
    {
      "status": "0x1",
      "cumulativeGasUsed": "0xdfc1ef",
      "logs": [
        {
          "address": "0x8aafd3ede9adb0ff97c7aebce82a919afb1c8764",
          "topics": [
            "0xddf252ad1be2c89b69c2b068fc378daa952ba7f163c4a11628f55a4df523b3ef",
            "0x000000000000000000000000c77f7fed3b5cc8249adc428c5f44c9063b9734b4",
            "0x0000000000000000000000000000000000000000000000000000000000000000"
          ],
          "data": "0x0000000000000000000000000000000000000000000000000000000000002e45",
          "blockHash": "0xc3063af52158959708e887873fb309f8db1780ff86a996123a92e4d2e24315e7",
          "blockNumber": "0x7316f8",
          "transactionHash": "0xad7e31a7069303a45057e0edc897fa4acf9f9051687ad8767a8f180e24273af6",
          "transactionIndex": "0x9e",
          "logIndex": "0xeb",
          "removed": false
        },
        {
          "address": "0x8aafd3ede9adb0ff97c7aebce82a919afb1c8764",
          "topics": [
            "0xddf252ad1be2c89b69c2b068fc378daa952ba7f163c4a11628f55a4df523b3ef",
            "0x000000000000000000000000c77f7fed3b5cc8249adc428c5f44c9063b9734b4",
            "0x000000000000000000000000c77f7fed3b5cc8249adc428c5f44c9063b9734b4"
          ],
          "data": "0x000000000000000000000000000000000000000000000000000000000000005f",
          "blockHash": "0xc3063af52158959708e887873fb309f8db1780ff86a996123a92e4d2e24315e7",
          "blockNumber": "0x7316f8",
          "transactionHash": "0xad7e31a7069303a45057e0edc897fa4acf9f9051687ad8767a8f180e24273af6",
          "transactionIndex": "0x9e",
          "logIndex": "0xec",
          "removed": false
        },
        {
          "address": "0x8aafd3ede9adb0ff97c7aebce82a919afb1c8764",
          "topics": [
            "0x4afcb4a87cdbd9974efdb92ee48bc8d7cd0ae4bf217004db3d080cbaee652ca7"
          ],
          "data": "0x00000000000000000000000000000000000000000000000000000000679010580000000000000000000000000000000000000000000000000004f65f9001d91b0000000000000000000000000000000000000000000000000000000000000010",
          "blockHash": "0xc3063af52158959708e887873fb309f8db1780ff86a996123a92e4d2e24315e7",
          "blockNumber": "0x7316f8",
          "transactionHash": "0xad7e31a7069303a45057e0edc897fa4acf9f9051687ad8767a8f180e24273af6",
          "transactionIndex": "0x9e",
          "logIndex": "0xed",
          "removed": false
        }
      ],
      "logsBloom": "0x00000000000000000000000000000000000000000600000000000000000000000000000000000000000000000000000000000000000000004000000000000000000000000000004000000008000000000000000000000000000000000000000000000000020000000000000000000800020000000000000000000010000000000000000000000000000000000000000000000000000000000000010000000000000000000000000000000000000000004000000000000000000000000000000000000002000000800000000000000000000000000000080000000000000020000000000000000000000000000000000000000000000000000000000000000000",
      "type": "0x2",
      "transactionHash": "0xad7e31a7069303a45057e0edc897fa4acf9f9051687ad8767a8f180e24273af6",
      "transactionIndex": "0x9e",
      "blockHash": "0xc3063af52158959708e887873fb309f8db1780ff86a996123a92e4d2e24315e7",
      "blockNumber": "0x7316f8",
      "gasUsed": "0xf207",
      "effectiveGasPrice": "0x44f9f345",
      "from": "0xc77f7fed3b5cc8249adc428c5f44c9063b9734b4",
      "to": "0x8aafd3ede9adb0ff97c7aebce82a919afb1c8764",
      "contractAddress": null
    }
  ],
  "libraries": [],
  "pending": [],
  "returns": {},
  "timestamp": 1737494617,
  "chain": 11155111,
  "commit": "1d2fb70"
}