{
  "transactions": [
    {
      "hash": "0xf3ffdb33fb89f6027b0e6ff1c47dd231929712215c91f0266c3167291f85532b",
      "transactionType": "CALL",
      "contractName": null,
      "contractAddress": "0x270e88f8683660553e8ba4eb2ad7c91a1710d769",
      "function": "sell(uint256)",
      "arguments": [
        "987601161084024138258"
      ],
      "transaction": {
        "from": "0xc77f7fed3b5cc8249adc428c5f44c9063b9734b4",
        "to": "0x270e88f8683660553e8ba4eb2ad7c91a1710d769",
        "gas": "0x16fec",
        "value": "0x0",
        "input": "0xe4849b3200000000000000000000000000000000000000000000003589b8277880982a12",
        "nonce": "0x4f7",
        "chainId": "0xaa36a7"
      },
      "additionalContracts": [],
      "isFixedGasLimit": false
    }
  ],
  "receipts": [
    {
      "status": "0x1",
      "cumulativeGasUsed": "0x10cba30",
      "logs": [
        {
          "address": "0x270e88f8683660553e8ba4eb2ad7c91a1710d769",
          "topics": [
            "0xddf252ad1be2c89b69c2b068fc378daa952ba7f163c4a11628f55a4df523b3ef",
            "0x000000000000000000000000c77f7fed3b5cc8249adc428c5f44c9063b9734b4",
            "0x0000000000000000000000000000000000000000000000000000000000000000"
          ],
          "data": "0x00000000000000000000000000000000000000000000003589b8277880982a12",
          "blockHash": "0xc0c0a5e122915fbc2005c0e650e0a0b57d3e33148c859302435f862b11e3074f",
          "blockNumber": "0x725188",
          "transactionHash": "0xf3ffdb33fb89f6027b0e6ff1c47dd231929712215c91f0266c3167291f85532b",
          "transactionIndex": "0x59",
          "logIndex": "0x91",
          "removed": false
        },
        {
          "address": "0x270e88f8683660553e8ba4eb2ad7c91a1710d769",
          "topics": [
            "0x4afcb4a87cdbd9974efdb92ee48bc8d7cd0ae4bf217004db3d080cbaee652ca7"
          ],
          "data": "0x000000000000000000000000000000000000000000000000000000006786c444000000000000000000000000000000000000000000000000000392c3085d9ff10000000000000000000000000000000000000000000000000dc84205606b06b9",
          "blockHash": "0xc0c0a5e122915fbc2005c0e650e0a0b57d3e33148c859302435f862b11e3074f",
          "blockNumber": "0x725188",
          "transactionHash": "0xf3ffdb33fb89f6027b0e6ff1c47dd231929712215c91f0266c3167291f85532b",
          "transactionIndex": "0x59",
          "logIndex": "0x92",
          "removed": false
        }
      ],
      "logsBloom": "0x00000000000000000000000000000000000000000000000000000000000000000000000000000000000000000000000020000000000000004000000000000000000000000000000000000008000000000000000000000000000000000000000000000000020000000000000000000800020000000000000000000010000000000000000000010000000000000000000000000000000000000000010000000000000000000000000000000000000000004000000000000000000000000000000000000002000000800000000000000000000000000000080000008000000020000000000000000000000000000000000000000000000000000000000000000000",
      "type": "0x2",
      "transactionHash": "0xf3ffdb33fb89f6027b0e6ff1c47dd231929712215c91f0266c3167291f85532b",
      "transactionIndex": "0x59",
      "blockHash": "0xc0c0a5e122915fbc2005c0e650e0a0b57d3e33148c859302435f862b11e3074f",
      "blockNumber": "0x725188",
      "gasUsed": "0xfb93",
      "effectiveGasPrice": "0x43fe72644",
      "from": "0xc77f7fed3b5cc8249adc428c5f44c9063b9734b4",
      "to": "0x270e88f8683660553e8ba4eb2ad7c91a1710d769",
      "contractAddress": null
    }
  ],
  "libraries": [],
  "pending": [],
  "returns": {},
  "timestamp": 1736885317,
  "chain": 11155111,
  "commit": "51a374b"
}