{
  "transactions": [
    {
      "hash": "0x85a2e298241c19a043c7908d02e4330b73666cb0ada084104fe7f0f9c2822a22",
      "transactionType": "CALL",
      "contractName": null,
      "contractAddress": "0x8aafd3ede9adb0ff97c7aebce82a919afb1c8764",
      "function": "sell(uint256)",
      "arguments": [
        "149675035524182"
      ],
      "transaction": {
        "from": "0xc77f7fed3b5cc8249adc428c5f44c9063b9734b4",
        "to": "0x8aafd3ede9adb0ff97c7aebce82a919afb1c8764",
        "gas": "0x15daa",
        "value": "0x0",
        "input": "0xe4849b3200000000000000000000000000000000000000000000000000008820ef52fc56",
        "nonce": "0x1352",
        "chainId": "0xaa36a7"
      },
      "additionalContracts": [],
      "isFixedGasLimit": false
    }
  ],
  "receipts": [
    {
      "status": "0x1",
      "cumulativeGasUsed": "0x8ffbed",
      "logs": [
        {
          "address": "0x8aafd3ede9adb0ff97c7aebce82a919afb1c8764",
          "topics": [
            "0xddf252ad1be2c89b69c2b068fc378daa952ba7f163c4a11628f55a4df523b3ef",
            "0x000000000000000000000000c77f7fed3b5cc8249adc428c5f44c9063b9734b4",
            "0x0000000000000000000000000000000000000000000000000000000000000000"
          ],
          "data": "0x0000000000000000000000000000000000000000000000000000870a24b4a035",
          "blockHash": "0x8fc60491676b5733c7f3e7ef01c760cc3eeec8b4adc15bd2cf3577ed6617278d",
          "blockNumber": "0x731a6d",
          "transactionHash": "0x85a2e298241c19a043c7908d02e4330b73666cb0ada084104fe7f0f9c2822a22",
          "transactionIndex": "0x7a",
          "logIndex": "0xad",
          "removed": false
        },
        {
          "address": "0x8aafd3ede9adb0ff97c7aebce82a919afb1c8764",
          "topics": [
            "0xddf252ad1be2c89b69c2b068fc378daa952ba7f163c4a11628f55a4df523b3ef",
            "0x000000000000000000000000c77f7fed3b5cc8249adc428c5f44c9063b9734b4",
            "0x000000000000000000000000c77f7fed3b5cc8249adc428c5f44c9063b9734b4"
          ],
          "data": "0x00000000000000000000000000000000000000000000000000000116ca9e5c21",
          "blockHash": "0x8fc60491676b5733c7f3e7ef01c760cc3eeec8b4adc15bd2cf3577ed6617278d",
          "blockNumber": "0x731a6d",
          "transactionHash": "0x85a2e298241c19a043c7908d02e4330b73666cb0ada084104fe7f0f9c2822a22",
          "transactionIndex": "0x7a",
          "logIndex": "0xae",
          "removed": false
        },
        {
          "address": "0x8aafd3ede9adb0ff97c7aebce82a919afb1c8764",
          "topics": [
            "0x4afcb4a87cdbd9974efdb92ee48bc8d7cd0ae4bf217004db3d080cbaee652ca7"
          ],
          "data": "0x00000000000000000000000000000000000000000000000000000000679039ec000000000000000000000000000000000000000000000000000c2b66634e7adc000000000000000000000000000000000000000000000000000000775f47819d",
          "blockHash": "0x8fc60491676b5733c7f3e7ef01c760cc3eeec8b4adc15bd2cf3577ed6617278d",
          "blockNumber": "0x731a6d",
          "transactionHash": "0x85a2e298241c19a043c7908d02e4330b73666cb0ada084104fe7f0f9c2822a22",
          "transactionIndex": "0x7a",
          "logIndex": "0xaf",
          "removed": false
        }
      ],
      "logsBloom": "0x00000000000000000000000000000000000000000600000000000000000000000000000000000000000000000000000000000000000000004000000000000000000000000000004000000008000000000000000000000000000000000000000000000000020000000000000000000800020000000000000000000010000000000000000000000000000000000000000000000000000000000000010000000000000000000000000000000000000000004000000000000000000000000000000000000002000000800000000000000000000000000000080000000000000020000000000000000000000000000000000000000000000000000000000000000000",
      "type": "0x2",
      "transactionHash": "0x85a2e298241c19a043c7908d02e4330b73666cb0ada084104fe7f0f9c2822a22",
      "transactionIndex": "0x7a",
      "blockHash": "0x8fc60491676b5733c7f3e7ef01c760cc3eeec8b4adc15bd2cf3577ed6617278d",
      "blockNumber": "0x731a6d",
      "gasUsed": "0xfd27",
      "effectiveGasPrice": "0x3f631669",
      "from": "0xc77f7fed3b5cc8249adc428c5f44c9063b9734b4",
      "to": "0x8aafd3ede9adb0ff97c7aebce82a919afb1c8764",
      "contractAddress": null
    }
  ],
  "libraries": [],
  "pending": [],
  "returns": {},
  "timestamp": 1737505261,
  "chain": 11155111,
  "commit": "1d2fb70"
}