{
  "transactions": [
    {
      "hash": "0xb9a611ef46c2a75296252ad7462542568b44b814857ea191e66895888013e2f3",
      "transactionType": "CALL",
      "contractName": null,
      "contractAddress": "0x8aafd3ede9adb0ff97c7aebce82a919afb1c8764",
      "function": "sell(uint256)",
      "arguments": [
        "346049"
      ],
      "transaction": {
        "from": "0xc77f7fed3b5cc8249adc428c5f44c9063b9734b4",
        "to": "0x8aafd3ede9adb0ff97c7aebce82a919afb1c8764",
        "gas": "0x16208",
        "value": "0x0",
        "input": "0xe4849b3200000000000000000000000000000000000000000000000000000000000547c1",
        "nonce": "0x1680",
        "chainId": "0xaa36a7"
      },
      "additionalContracts": [],
      "isFixedGasLimit": false
    }
  ],
  "receipts": [
    {
      "status": "0x1",
      "cumulativeGasUsed": "0xcc2e0c",
      "logs": [
        {
          "address": "0x8aafd3ede9adb0ff97c7aebce82a919afb1c8764",
          "topics": [
            "0xddf252ad1be2c89b69c2b068fc378daa952ba7f163c4a11628f55a4df523b3ef",
            "0x000000000000000000000000c77f7fed3b5cc8249adc428c5f44c9063b9734b4",
            "0x0000000000000000000000000000000000000000000000000000000000000000"
          ],
          "data": "0x0000000000000000000000000000000000000000000000000000000000053cf1",
          "blockHash": "0x7b189a32c9647a133b73deaebfdf74d7702ff5c759bbffce6e1c9883c136be42",
          "blockNumber": "0x731e31",
          "transactionHash": "0xb9a611ef46c2a75296252ad7462542568b44b814857ea191e66895888013e2f3",
          "transactionIndex": "0x77",
          "logIndex": "0x92",
          "removed": false
        },
        {
          "address": "0x8aafd3ede9adb0ff97c7aebce82a919afb1c8764",
          "topics": [
            "0xddf252ad1be2c89b69c2b068fc378daa952ba7f163c4a11628f55a4df523b3ef",
            "0x000000000000000000000000c77f7fed3b5cc8249adc428c5f44c9063b9734b4",
            "0x000000000000000000000000c77f7fed3b5cc8249adc428c5f44c9063b9734b4"
          ],
          "data": "0x0000000000000000000000000000000000000000000000000000000000000ad0",
          "blockHash": "0x7b189a32c9647a133b73deaebfdf74d7702ff5c759bbffce6e1c9883c136be42",
          "blockNumber": "0x731e31",
          "transactionHash": "0xb9a611ef46c2a75296252ad7462542568b44b814857ea191e66895888013e2f3",
          "transactionIndex": "0x77",
          "logIndex": "0x93",
          "removed": false
        },
        {
          "address": "0x8aafd3ede9adb0ff97c7aebce82a919afb1c8764",
          "topics": [
            "0x4afcb4a87cdbd9974efdb92ee48bc8d7cd0ae4bf217004db3d080cbaee652ca7"
          ],
          "data": "0x000000000000000000000000000000000000000000000000000000006790673400000000000000000000000000000000000000000000000000157c0e9921a8b3000000000000000000000000000000000000000000000000000000000000082c",
          "blockHash": "0x7b189a32c9647a133b73deaebfdf74d7702ff5c759bbffce6e1c9883c136be42",
          "blockNumber": "0x731e31",
          "transactionHash": "0xb9a611ef46c2a75296252ad7462542568b44b814857ea191e66895888013e2f3",
          "transactionIndex": "0x77",
          "logIndex": "0x94",
          "removed": false
        }
      ],
      "logsBloom": "0x00000000000000000000000000000000000000000600000000000000000000000000000000000000000000000000000000000000000000004000000000000000000000000000004000000008000000000000000000000000000000000000000000000000020000000000000000000800020000000000000000000010000000000000000000000000000000000000000000000000000000000000010000000000000000000000000000000000000000004000000000000000000000000000000000000002000000800000000000000000000000000000080000000000000020000000000000000000000000000000000000000000000000000000000000000000",
      "type": "0x2",
      "transactionHash": "0xb9a611ef46c2a75296252ad7462542568b44b814857ea191e66895888013e2f3",
      "transactionIndex": "0x77",
      "blockHash": "0x7b189a32c9647a133b73deaebfdf74d7702ff5c759bbffce6e1c9883c136be42",
      "blockNumber": "0x731e31",
      "gasUsed": "0xf213",
      "effectiveGasPrice": "0x4600124d",
      "from": "0xc77f7fed3b5cc8249adc428c5f44c9063b9734b4",
      "to": "0x8aafd3ede9adb0ff97c7aebce82a919afb1c8764",
      "contractAddress": null
    }
  ],
  "libraries": [],
  "pending": [],
  "returns": {},
  "timestamp": 1737516854,
  "chain": 11155111,
  "commit": "1d2fb70"
}