{
  "transactions": [
    {
      "hash": "0x1481f4ab1f9bd2c4d7df79acddb71cd0d7147ba4ebe2008870c08ffdec553de5",
      "transactionType": "CALL",
      "contractName": null,
      "contractAddress": "0x8aafd3ede9adb0ff97c7aebce82a919afb1c8764",
      "function": "sell(uint256)",
      "arguments": [
        "144793104757568"
      ],
      "transaction": {
        "from": "0xc77f7fed3b5cc8249adc428c5f44c9063b9734b4",
        "to": "0x8aafd3ede9adb0ff97c7aebce82a919afb1c8764",
        "gas": "0x15daa",
        "value": "0x0",
        "input": "0xe4849b32000000000000000000000000000000000000000000000000000083b045933340",
        "nonce": "0x1376",
        "chainId": "0xaa36a7"
      },
      "additionalContracts": [],
      "isFixedGasLimit": false
    }
  ],
  "receipts": [
    {
      "status": "0x1",
      "cumulativeGasUsed": "0x14fa907",
      "logs": [
        {
          "address": "0x8aafd3ede9adb0ff97c7aebce82a919afb1c8764",
          "topics": [
            "0xddf252ad1be2c89b69c2b068fc378daa952ba7f163c4a11628f55a4df523b3ef",
            "0x000000000000000000000000c77f7fed3b5cc8249adc428c5f44c9063b9734b4",
            "0x0000000000000000000000000000000000000000000000000000000000000000"
          ],
          "data": "0x000000000000000000000000000000000000000000000000000082a292d7a794",
          "blockHash": "0xd127265905c3caf53c5f0a1b67c07081b000bfd964414b1a3a9ab8e7b11b71db",
          "blockNumber": "0x731a99",
          "transactionHash": "0x1481f4ab1f9bd2c4d7df79acddb71cd0d7147ba4ebe2008870c08ffdec553de5",
          "transactionIndex": "0xca",
          "logIndex": "0xe6",
          "removed": false
        },
        {
          "address": "0x8aafd3ede9adb0ff97c7aebce82a919afb1c8764",
          "topics": [
            "0xddf252ad1be2c89b69c2b068fc378daa952ba7f163c4a11628f55a4df523b3ef",
            "0x000000000000000000000000c77f7fed3b5cc8249adc428c5f44c9063b9734b4",
            "0x000000000000000000000000c77f7fed3b5cc8249adc428c5f44c9063b9734b4"
          ],
          "data": "0x0000000000000000000000000000000000000000000000000000010db2bb8bac",
          "blockHash": "0xd127265905c3caf53c5f0a1b67c07081b000bfd964414b1a3a9ab8e7b11b71db",
          "blockNumber": "0x731a99",
          "transactionHash": "0x1481f4ab1f9bd2c4d7df79acddb71cd0d7147ba4ebe2008870c08ffdec553de5",
          "transactionIndex": "0xca",
          "logIndex": "0xe7",
          "removed": false
        },
        {
          "address": "0x8aafd3ede9adb0ff97c7aebce82a919afb1c8764",
          "topics": [
            "0x4afcb4a87cdbd9974efdb92ee48bc8d7cd0ae4bf217004db3d080cbaee652ca7"
          ],
          "data": "0x0000000000000000000000000000000000000000000000000000000067903bfc000000000000000000000000000000000000000000000000000c939e51240f3a00000000000000000000000000000000000000000000000000000077577a2b47",
          "blockHash": "0xd127265905c3caf53c5f0a1b67c07081b000bfd964414b1a3a9ab8e7b11b71db",
          "blockNumber": "0x731a99",
          "transactionHash": "0x1481f4ab1f9bd2c4d7df79acddb71cd0d7147ba4ebe2008870c08ffdec553de5",
          "transactionIndex": "0xca",
          "logIndex": "0xe8",
          "removed": false
        }
      ],
      "logsBloom": "0x00000000000000000000000000000000000000000600000000000000000000000000000000000000000000000000000000000000000000004000000000000000000000000000004000000008000000000000000000000000000000000000000000000000020000000000000000000800020000000000000000000010000000000000000000000000000000000000000000000000000000000000010000000000000000000000000000000000000000004000000000000000000000000000000000000002000000800000000000000000000000000000080000000000000020000000000000000000000000000000000000000000000000000000000000000000",
      "type": "0x2",
      "transactionHash": "0x1481f4ab1f9bd2c4d7df79acddb71cd0d7147ba4ebe2008870c08ffdec553de5",
      "transactionIndex": "0xca",
      "blockHash": "0xd127265905c3caf53c5f0a1b67c07081b000bfd964414b1a3a9ab8e7b11b71db",
      "blockNumber": "0x731a99",
      "gasUsed": "0xfd27",
      "effectiveGasPrice": "0x75c313aa",
      "from": "0xc77f7fed3b5cc8249adc428c5f44c9063b9734b4",
      "to": "0x8aafd3ede9adb0ff97c7aebce82a919afb1c8764",
      "contractAddress": null
    }
  ],
  "libraries": [],
  "pending": [],
  "returns": {},
  "timestamp": 1737505789,
  "chain": 11155111,
  "commit": "1d2fb70"
}