{
  "transactions": [
    {
      "hash": "0x84fe97b2b124da6c28bd2e82299105e70986f6fce3e7a7db241932de057269f7",
      "transactionType": "CALL",
      "contractName": null,
      "contractAddress": "0x8aafd3ede9adb0ff97c7aebce82a919afb1c8764",
      "function": "sell(uint256)",
      "arguments": [
        "882307149640"
      ],
      "transaction": {
        "from": "0xc77f7fed3b5cc8249adc428c5f44c9063b9734b4",
        "to": "0x8aafd3ede9adb0ff97c7aebce82a919afb1c8764",
        "gas": "0x1722a",
        "value": "0x0",
        "input": "0xe4849b32000000000000000000000000000000000000000000000000000000cd6d9aaf48",
        "nonce": "0x14cd",
        "chainId": "0xaa36a7"
      },
      "additionalContracts": [],
      "isFixedGasLimit": false
    }
  ],
  "receipts": [
    {
      "status": "0x1",
      "cumulativeGasUsed": "0xf32797",
      "logs": [
        {
          "address": "0x8aafd3ede9adb0ff97c7aebce82a919afb1c8764",
          "topics": [
            "0xddf252ad1be2c89b69c2b068fc378daa952ba7f163c4a11628f55a4df523b3ef",
            "0x000000000000000000000000c77f7fed3b5cc8249adc428c5f44c9063b9734b4",
            "0x0000000000000000000000000000000000000000000000000000000000000000"
          ],
          "data": "0x000000000000000000000000000000000000000000000000000000cbc8e32cdb",
          "blockHash": "0x3d0ad84ca2626cd8fd5f786a76f811b48a6e1969025aa94adf4627cbf9d01a5c",
          "blockNumber": "0x731c2b",
          "transactionHash": "0x84fe97b2b124da6c28bd2e82299105e70986f6fce3e7a7db241932de057269f7",
          "transactionIndex": "0x58",
          "logIndex": "0x82",
          "removed": false
        },
        {
          "address": "0x8aafd3ede9adb0ff97c7aebce82a919afb1c8764",
          "topics": [
            "0xddf252ad1be2c89b69c2b068fc378daa952ba7f163c4a11628f55a4df523b3ef",
            "0x000000000000000000000000c77f7fed3b5cc8249adc428c5f44c9063b9734b4",
            "0x000000000000000000000000c77f7fed3b5cc8249adc428c5f44c9063b9734b4"
          ],
          "data": "0x00000000000000000000000000000000000000000000000000000001a4b7826d",
          "blockHash": "0x3d0ad84ca2626cd8fd5f786a76f811b48a6e1969025aa94adf4627cbf9d01a5c",
          "blockNumber": "0x731c2b",
          "transactionHash": "0x84fe97b2b124da6c28bd2e82299105e70986f6fce3e7a7db241932de057269f7",
          "transactionIndex": "0x58",
          "logIndex": "0x83",
          "removed": false
        },
        {
          "address": "0x8aafd3ede9adb0ff97c7aebce82a919afb1c8764",
          "topics": [
            "0x4afcb4a87cdbd9974efdb92ee48bc8d7cd0ae4bf217004db3d080cbaee652ca7"
          ],
          "data": "0x0000000000000000000000000000000000000000000000000000000067904ee000000000000000000000000000000000000000000000000000107b2a6d3eb83700000000000000000000000000000000000000000000000000000000f3f6dda2",
          "blockHash": "0x3d0ad84ca2626cd8fd5f786a76f811b48a6e1969025aa94adf4627cbf9d01a5c",
          "blockNumber": "0x731c2b",
          "transactionHash": "0x84fe97b2b124da6c28bd2e82299105e70986f6fce3e7a7db241932de057269f7",
          "transactionIndex": "0x58",
          "logIndex": "0x84",
          "removed": false
        }
      ],
      "logsBloom": "0x00000000000000000000000000000000000000000600000000000000000000000000000000000000000000000000000000000000000000004000000000000000000000000000004000000008000000000000000000000000000000000000000000000000020000000000000000000800020000000000000000000010000000000000000000000000000000000000000000000000000000000000010000000000000000000000000000000000000000004000000000000000000000000000000000000002000000800000000000000000000000000000080000000000000020000000000000000000000000000000000000000000000000000000000000000000",
      "type": "0x2",
      "transactionHash": "0x84fe97b2b124da6c28bd2e82299105e70986f6fce3e7a7db241932de057269f7",
      "transactionIndex": "0x58",
      "blockHash": "0x3d0ad84ca2626cd8fd5f786a76f811b48a6e1969025aa94adf4627cbf9d01a5c",
      "blockNumber": "0x731c2b",
      "gasUsed": "0xfd1b",
      "effectiveGasPrice": "0x12950509a",
      "from": "0xc77f7fed3b5cc8249adc428c5f44c9063b9734b4",
      "to": "0x8aafd3ede9adb0ff97c7aebce82a919afb1c8764",
      "contractAddress": null
    }
  ],
  "libraries": [],
  "pending": [],
  "returns": {},
  "timestamp": 1737510625,
  "chain": 11155111,
  "commit": "1d2fb70"
}