{
  "transactions": [
    {
      "hash": "0x15af681120418bcb11a0e0cb31a7120eaaaacbf00929d7ce7cfae83decd066a3",
      "transactionType": "CALL",
      "contractName": null,
      "contractAddress": "0x8aafd3ede9adb0ff97c7aebce82a919afb1c8764",
      "function": "sell(uint256)",
      "arguments": [
        "678339423054491282651"
      ],
      "transaction": {
        "from": "0xc77f7fed3b5cc8249adc428c5f44c9063b9734b4",
        "to": "0x8aafd3ede9adb0ff97c7aebce82a919afb1c8764",
        "gas": "0x17270",
        "value": "0x0",
        "input": "0xe4849b32000000000000000000000000000000000000000000000024c5d9bf45925fecdb",
        "nonce": "0x1217",
        "chainId": "0xaa36a7"
      },
      "additionalContracts": [],
      "isFixedGasLimit": false
    }
  ],
  "receipts": [
    {
      "status": "0x1",
      "cumulativeGasUsed": "0x21686e9",
      "logs": [
        {
          "address": "0x8aafd3ede9adb0ff97c7aebce82a919afb1c8764",
          "topics": [
            "0xddf252ad1be2c89b69c2b068fc378daa952ba7f163c4a11628f55a4df523b3ef",
            "0x000000000000000000000000c77f7fed3b5cc8249adc428c5f44c9063b9734b4",
            "0x0000000000000000000000000000000000000000000000000000000000000000"
          ],
          "data": "0x0000000000000000000000000000000000000000000000247a8a2e61afec7846",
          "blockHash": "0xe3d7b08d8b05bf278d9a26d314f957336fe36cc2b550ae2e7753e346bf1366dc",
          "blockNumber": "0x7318f3",
          "transactionHash": "0x15af681120418bcb11a0e0cb31a7120eaaaacbf00929d7ce7cfae83decd066a3",
          "transactionIndex": "0x50",
          "logIndex": "0x1110",
          "removed": false
        },
        {
          "address": "0x8aafd3ede9adb0ff97c7aebce82a919afb1c8764",
          "topics": [
            "0xddf252ad1be2c89b69c2b068fc378daa952ba7f163c4a11628f55a4df523b3ef",
            "0x000000000000000000000000c77f7fed3b5cc8249adc428c5f44c9063b9734b4",
            "0x000000000000000000000000c77f7fed3b5cc8249adc428c5f44c9063b9734b4"
          ],
          "data": "0x0000000000000000000000000000000000000000000000004b4f90e3e2737495",
          "blockHash": "0xe3d7b08d8b05bf278d9a26d314f957336fe36cc2b550ae2e7753e346bf1366dc",
          "blockNumber": "0x7318f3",
          "transactionHash": "0x15af681120418bcb11a0e0cb31a7120eaaaacbf00929d7ce7cfae83decd066a3",
          "transactionIndex": "0x50",
          "logIndex": "0x1111",
          "removed": false
        },
        {
          "address": "0x8aafd3ede9adb0ff97c7aebce82a919afb1c8764",
          "topics": [
            "0x4afcb4a87cdbd9974efdb92ee48bc8d7cd0ae4bf217004db3d080cbaee652ca7"
          ],
          "data": "0x0000000000000000000000000000000000000000000000000000000067902834000000000000000000000000000000000000000000000000000534d46da19a480000000000000000000000000000000000000000000000000dc8f12b1d0c753e",
          "blockHash": "0xe3d7b08d8b05bf278d9a26d314f957336fe36cc2b550ae2e7753e346bf1366dc",
          "blockNumber": "0x7318f3",
          "transactionHash": "0x15af681120418bcb11a0e0cb31a7120eaaaacbf00929d7ce7cfae83decd066a3",
          "transactionIndex": "0x50",
          "logIndex": "0x1112",
          "removed": false
        }
      ],
      "logsBloom": "0x00000000000000000000000000000000000000000600000000000000000000000000000000000000000000000000000000000000000000004000000000000000000000000000004000000008000000000000000000000000000000000000000000000000020000000000000000000800020000000000000000000010000000000000000000000000000000000000000000000000000000000000010000000000000000000000000000000000000000004000000000000000000000000000000000000002000000800000000000000000000000000000080000000000000020000000000000000000000000000000000000000000000000000000000000000000",
      "type": "0x2",
      "transactionHash": "0x15af681120418bcb11a0e0cb31a7120eaaaacbf00929d7ce7cfae83decd066a3",
      "transactionIndex": "0x50",
      "blockHash": "0xe3d7b08d8b05bf278d9a26d314f957336fe36cc2b550ae2e7753e346bf1366dc",
      "blockNumber": "0x7318f3",
      "gasUsed": "0xfd4b",
      "effectiveGasPrice": "0x406b0a79",
      "from": "0xc77f7fed3b5cc8249adc428c5f44c9063b9734b4",
      "to": "0x8aafd3ede9adb0ff97c7aebce82a919afb1c8764",
      "contractAddress": null
    }
  ],
  "libraries": [],
  "pending": [],
  "returns": {},
  "timestamp": 1737500724,
  "chain": 11155111,
  "commit": "1d2fb70"
}