{
  "transactions": [
    {
      "hash": "0x9bb2b563bad616b0b6b13911522b573e428ee9bf57a3ef722be3d43ec9b0b5a7",
      "transactionType": "CALL",
      "contractName": null,
      "contractAddress": "0xbf4a322f1496e5c3d34a9bcdb4c60567b38c7de2",
      "function": "buy(address)",
      "arguments": [
        "0xC77f7fed3b5Cc8249aDc428c5F44C9063B9734b4"
      ],
      "transaction": {
        "from": "0xc77f7fed3b5cc8249adc428c5f44c9063b9734b4",
        "to": "0xbf4a322f1496e5c3d34a9bcdb4c60567b38c7de2",
        "gas": "0x1b309",
        "value": "0xde0b6b3a7640000",
        "input": "0xf088d547000000000000000000000000c77f7fed3b5cc8249adc428c5f44c9063b9734b4",
        "nonce": "0x9d6",
        "chainId": "0xaa36a7"
      },
      "additionalContracts": [],
      "isFixedGasLimit": false
    }
  ],
  "receipts": [
    {
      "status": "0x1",
      "cumulativeGasUsed": "0xe051cf",
      "logs": [
        {
          "address": "0xbf4a322f1496e5c3d34a9bcdb4c60567b38c7de2",
          "topics": [
            "0xddf252ad1be2c89b69c2b068fc378daa952ba7f163c4a11628f55a4df523b3ef",
            "0x0000000000000000000000000000000000000000000000000000000000000000",
            "0x000000000000000000000000c77f7fed3b5cc8249adc428c5f44c9063b9734b4"
          ],
          "data": "0x0000000000000000000000000000000000000000000000356322603002e346dd",
          "blockHash": "0x453ba09c6522efd03d6acaf4a11a213f7e8d211d5b18aaea99fb2c7c51ac2f15",
          "blockNumber": "0x725988",
          "transactionHash": "0x9bb2b563bad616b0b6b13911522b573e428ee9bf57a3ef722be3d43ec9b0b5a7",
          "transactionIndex": "0x79",
          "logIndex": "0xdf",
          "removed": false
        },
        {
          "address": "0xbf4a322f1496e5c3d34a9bcdb4c60567b38c7de2",
          "topics": [
            "0xddf252ad1be2c89b69c2b068fc378daa952ba7f163c4a11628f55a4df523b3ef",
            "0x0000000000000000000000000000000000000000000000000000000000000000",
            "0x000000000000000000000000c77f7fed3b5cc8249adc428c5f44c9063b9734b4"
          ],
          "data": "0x0000000000000000000000000000000000000000000000002974fef6c1e0d602",
          "blockHash": "0x453ba09c6522efd03d6acaf4a11a213f7e8d211d5b18aaea99fb2c7c51ac2f15",
          "blockNumber": "0x725988",
          "transactionHash": "0x9bb2b563bad616b0b6b13911522b573e428ee9bf57a3ef722be3d43ec9b0b5a7",
          "transactionIndex": "0x79",
          "logIndex": "0xe0",
          "removed": false
        },
        {
          "address": "0xbf4a322f1496e5c3d34a9bcdb4c60567b38c7de2",
          "topics": [
            "0x4afcb4a87cdbd9974efdb92ee48bc8d7cd0ae4bf217004db3d080cbaee652ca7"
          ],
          "data": "0x0000000000000000000000000000000000000000000000000000000067872498000000000000000000000000000000000000000000000000000392496e77fd990000000000000000000000000000000000000000000000000de0b6b3a7640000",
          "blockHash": "0x453ba09c6522efd03d6acaf4a11a213f7e8d211d5b18aaea99fb2c7c51ac2f15",
          "blockNumber": "0x725988",
          "transactionHash": "0x9bb2b563bad616b0b6b13911522b573e428ee9bf57a3ef722be3d43ec9b0b5a7",
          "transactionIndex": "0x79",
          "logIndex": "0xe1",
          "removed": false
        }
      ],
      "logsBloom": "0x00000000000000000000000000000000000000000000000000000000000000000000000000000000000000000000000000000000000000004000000000000000000000000000000000000008000000000000001000000000000000000000000000000000020000000000000000000800020000000000000000000010000000000000000000000000000000000000000000000000000008000000010000000000000000000000000000000000000000004000000000000000000000000000000000000002000000800000000000001000000000000000080000000000000020000000000000000000000000000000000000000000000000000000000000000000",
      "type": "0x2",
      "transactionHash": "0x9bb2b563bad616b0b6b13911522b573e428ee9bf57a3ef722be3d43ec9b0b5a7",
      "transactionIndex": "0x79",
      "blockHash": "0x453ba09c6522efd03d6acaf4a11a213f7e8d211d5b18aaea99fb2c7c51ac2f15",
      "blockNumber": "0x725988",
      "gasUsed": "0x13af6",
      "effectiveGasPrice": "0x2aaf85524",
      "from": "0xc77f7fed3b5cc8249adc428c5f44c9063b9734b4",
      "to": "0xbf4a322f1496e5c3d34a9bcdb4c60567b38c7de2",
      "contractAddress": null
    }
  ],
  "libraries": [],
  "pending": [],
  "returns": {},
  "timestamp": 1736909978,
  "chain": 11155111,
  "commit": "51a374b"
}