{
  "transactions": [
    {
      "hash": "0x43c62b00850edd00d17880a4f872c970dae86c9a801ef1412bf9fcf7564cc5c2",
      "transactionType": "CALL",
      "contractName": null,
      "contractAddress": "0x8aafd3ede9adb0ff97c7aebce82a919afb1c8764",
      "function": "sell(uint256)",
      "arguments": [
        "233037227497013737267"
      ],
      "transaction": {
        "from": "0xc77f7fed3b5cc8249adc428c5f44c9063b9734b4",
        "to": "0x8aafd3ede9adb0ff97c7aebce82a919afb1c8764",
        "gas": "0x17270",
        "value": "0x0",
        "input": "0xe4849b3200000000000000000000000000000000000000000000000ca20a8bb971657733",
        "nonce": "0x145d",
        "chainId": "0xaa36a7"
      },
      "additionalContracts": [],
      "isFixedGasLimit": false
    }
  ],
  "receipts": [
    {
      "status": "0x1",
      "cumulativeGasUsed": "0x1217303",
      "logs": [
        {
          "address": "0x8aafd3ede9adb0ff97c7aebce82a919afb1c8764",
          "topics": [
            "0xddf252ad1be2c89b69c2b068fc378daa952ba7f163c4a11628f55a4df523b3ef",
            "0x000000000000000000000000c77f7fed3b5cc8249adc428c5f44c9063b9734b4",
            "0x0000000000000000000000000000000000000000000000000000000000000000"
          ],
          "data": "0x00000000000000000000000000000000000000000000000c882b3abc0e2f67e9",
          "blockHash": "0xa7b0ed5e9b1496ee237ad5aa7b7e5c7e395bf19597153fbd32f2c084829c1173",
          "blockNumber": "0x731ba7",
          "transactionHash": "0x43c62b00850edd00d17880a4f872c970dae86c9a801ef1412bf9fcf7564cc5c2",
          "transactionIndex": "0x98",
          "logIndex": "0xe8",
          "removed": false
        },
        {
          "address": "0x8aafd3ede9adb0ff97c7aebce82a919afb1c8764",
          "topics": [
            "0xddf252ad1be2c89b69c2b068fc378daa952ba7f163c4a11628f55a4df523b3ef",
            "0x000000000000000000000000c77f7fed3b5cc8249adc428c5f44c9063b9734b4",
            "0x000000000000000000000000c77f7fed3b5cc8249adc428c5f44c9063b9734b4"
          ],
          "data": "0x00000000000000000000000000000000000000000000000019df50fd63360f4a",
          "blockHash": "0xa7b0ed5e9b1496ee237ad5aa7b7e5c7e395bf19597153fbd32f2c084829c1173",
          "blockNumber": "0x731ba7",
          "transactionHash": "0x43c62b00850edd00d17880a4f872c970dae86c9a801ef1412bf9fcf7564cc5c2",
          "transactionIndex": "0x98",
          "logIndex": "0xe9",
          "removed": false
        },
        {
          "address": "0x8aafd3ede9adb0ff97c7aebce82a919afb1c8764",
          "topics": [
            "0x4afcb4a87cdbd9974efdb92ee48bc8d7cd0ae4bf217004db3d080cbaee652ca7"
          ],
          "data": "0x00000000000000000000000000000000000000000000000000000000679048b0000000000000000000000000000000000000000000000000000f3db261fabefb0000000000000000000000000000000000000000000000000dcd9f246c9bc601",
          "blockHash": "0xa7b0ed5e9b1496ee237ad5aa7b7e5c7e395bf19597153fbd32f2c084829c1173",
          "blockNumber": "0x731ba7",
          "transactionHash": "0x43c62b00850edd00d17880a4f872c970dae86c9a801ef1412bf9fcf7564cc5c2",
          "transactionIndex": "0x98",
          "logIndex": "0xea",
          "removed": false
        }
      ],
      "logsBloom": "0x00000000000000000000000000000000000000000600000000000000000000000000000000000000000000000000000000000000000000004000000000000000000000000000004000000008000000000000000000000000000000000000000000000000020000000000000000000800020000000000000000000010000000000000000000000000000000000000000000000000000000000000010000000000000000000000000000000000000000004000000000000000000000000000000000000002000000800000000000000000000000000000080000000000000020000000000000000000000000000000000000000000000000000000000000000000",
      "type": "0x2",
      "transactionHash": "0x43c62b00850edd00d17880a4f872c970dae86c9a801ef1412bf9fcf7564cc5c2",
      "transactionIndex": "0x98",
      "blockHash": "0xa7b0ed5e9b1496ee237ad5aa7b7e5c7e395bf19597153fbd32f2c084829c1173",
      "blockNumber": "0x731ba7",
      "gasUsed": "0xfd4b",
      "effectiveGasPrice": "0x10f494930",
      "from": "0xc77f7fed3b5cc8249adc428c5f44c9063b9734b4",
      "to": "0x8aafd3ede9adb0ff97c7aebce82a919afb1c8764",
      "contractAddress": null
    }
  ],
  "libraries": [],
  "pending": [],
  "returns": {},
  "timestamp": 1737509042,
  "chain": 11155111,
  "commit": "1d2fb70"
}