{
  "transactions": [
    {
      "hash": "0x1e9bffb6256b49d3888c016a661da598254031bc3e412b22f2c40fd561e90607",
      "transactionType": "CALL",
      "contractName": null,
      "contractAddress": "0x8aafd3ede9adb0ff97c7aebce82a919afb1c8764",
      "function": "buy(address)",
      "arguments": [
        "0xC77f7fed3b5Cc8249aDc428c5F44C9063B9734b4"
      ],
      "transaction": {
        "from": "0xc77f7fed3b5cc8249adc428c5f44c9063b9734b4",
        "to": "0x8aafd3ede9adb0ff97c7aebce82a919afb1c8764",
        "gas": "0x156ea",
        "value": "0xde0b6b3a7640000",
        "input": "0xf088d547000000000000000000000000c77f7fed3b5cc8249adc428c5f44c9063b9734b4",
        "nonce": "0x1603",
        "chainId": "0xaa36a7"
      },
      "additionalContracts": [],
      "isFixedGasLimit": false
    }
  ],
  "receipts": [
    {
      "status": "0x1",
      "cumulativeGasUsed": "0x1a3466c",
      "logs": [
        {
          "address": "0x8aafd3ede9adb0ff97c7aebce82a919afb1c8764",
          "topics": [
            "0xddf252ad1be2c89b69c2b068fc378daa952ba7f163c4a11628f55a4df523b3ef",
            "0x0000000000000000000000000000000000000000000000000000000000000000",
            "0x000000000000000000000000c77f7fed3b5cc8249adc428c5f44c9063b9734b4"
          ],
          "data": "0x00000000000000000000000000000000000000000000000986422ec7434f22f9",
          "blockHash": "0xea30b20565dc2f6b516774b98a2025202f76c8baade23251ffc8bbb14462bc66",
          "blockNumber": "0x731d95",
          "transactionHash": "0x1e9bffb6256b49d3888c016a661da598254031bc3e412b22f2c40fd561e90607",
          "transactionIndex": "0xbd",
          "logIndex": "0x13b",
          "removed": false
        },
        {
          "address": "0x8aafd3ede9adb0ff97c7aebce82a919afb1c8764",
          "topics": [
            "0xddf252ad1be2c89b69c2b068fc378daa952ba7f163c4a11628f55a4df523b3ef",
            "0x0000000000000000000000000000000000000000000000000000000000000000",
            "0x000000000000000000000000c77f7fed3b5cc8249adc428c5f44c9063b9734b4"
          ],
          "data": "0x00000000000000000000000000000000000000000000000007656412f631d45b",
          "blockHash": "0xea30b20565dc2f6b516774b98a2025202f76c8baade23251ffc8bbb14462bc66",
          "blockNumber": "0x731d95",
          "transactionHash": "0x1e9bffb6256b49d3888c016a661da598254031bc3e412b22f2c40fd561e90607",
          "transactionIndex": "0xbd",
          "logIndex": "0x13c",
          "removed": false
        },
        {
          "address": "0x8aafd3ede9adb0ff97c7aebce82a919afb1c8764",
          "topics": [
            "0x4afcb4a87cdbd9974efdb92ee48bc8d7cd0ae4bf217004db3d080cbaee652ca7"
          ],
          "data": "0x0000000000000000000000000000000000000000000000000000000067905fe400000000000000000000000000000000000000000000000000140b806b009aa90000000000000000000000000000000000000000000000000de0b6b3a7640000",
          "blockHash": "0xea30b20565dc2f6b516774b98a2025202f76c8baade23251ffc8bbb14462bc66",
          "blockNumber": "0x731d95",
          "transactionHash": "0x1e9bffb6256b49d3888c016a661da598254031bc3e412b22f2c40fd561e90607",
          "transactionIndex": "0xbd",
          "logIndex": "0x13d",
          "removed": false
        }
      ],
      "logsBloom": "0x00000000000000000000000000000000000000000600000000000000000000000000000000000000000000000000000000000000000000004000000000000000000000000000004000000008000000000000000000000000000000000000000000000000020000000000000000000800020000000000000000000010000000000000000000000000000000000000000000000000000000000000010000000000000000000000000000000000000000004000000000000000000000000000000000000002000000800000000000000000000000000000080000000000000020000000000000000000000000000000000000000000000000000000000000000000",
      "type": "0x2",
      "transactionHash": "0x1e9bffb6256b49d3888c016a661da598254031bc3e412b22f2c40fd561e90607",
      "transactionIndex": "0xbd",
      "blockHash": "0xea30b20565dc2f6b516774b98a2025202f76c8baade23251ffc8bbb14462bc66",
      "blockNumber": "0x731d95",
      "gasUsed": "0xf844",
      "effectiveGasPrice": "0x57e1bb44",
      "from": "0xc77f7fed3b5cc8249adc428c5f44c9063b9734b4",
      "to": "0x8aafd3ede9adb0ff97c7aebce82a919afb1c8764",
      "contractAddress": null
    }
  ],
  "libraries": [],
  "pending": [],
  "returns": {},
  "timestamp": 1737514981,
  "chain": 11155111,
  "commit": "1d2fb70"
}