{
  "transactions": [
    {
      "hash": "0x543325629d324ff9e2833ad5d1a87c3b3a82419666397dfd3330dec4af132922",
      "transactionType": "CALL",
      "contractName": null,
      "contractAddress": "0x270e88f8683660553e8ba4eb2ad7c91a1710d769",
      "function": "buy(address)",
      "arguments": [
        "0xC77f7fed3b5Cc8249aDc428c5F44C9063B9734b4"
      ],
      "transaction": {
        "from": "0xc77f7fed3b5cc8249adc428c5f44c9063b9734b4",
        "to": "0x270e88f8683660553e8ba4eb2ad7c91a1710d769",
        "gas": "0x1b30c",
        "value": "0xde0b6b3a7640000",
        "input": "0xf088d547000000000000000000000000c77f7fed3b5cc8249adc428c5f44c9063b9734b4",
        "nonce": "0x6d7",
        "chainId": "0xaa36a7"
      },
      "additionalContracts": [],
      "isFixedGasLimit": false
    }
  ],
  "receipts": [
    {
      "status": "0x1",
      "cumulativeGasUsed": "0x1316515",
      "logs": [
        {
          "address": "0x270e88f8683660553e8ba4eb2ad7c91a1710d769",
          "topics": [
            "0xddf252ad1be2c89b69c2b068fc378daa952ba7f163c4a11628f55a4df523b3ef",
            "0x0000000000000000000000000000000000000000000000000000000000000000",
            "0x000000000000000000000000c77f7fed3b5cc8249adc428c5f44c9063b9734b4"
          ],
          "data": "0x00000000000000000000000000000000000000000000002879e3e9da50b12c63",
          "blockHash": "0x5d272c4dc1e7c178dc266b3b92c3dc2aa7c6ec38a6d9f90e848b768ec1505ac6",
          "blockNumber": "0x7253ea",
          "transactionHash": "0x543325629d324ff9e2833ad5d1a87c3b3a82419666397dfd3330dec4af132922",
          "transactionIndex": "0x4c",
          "logIndex": "0xe4",
          "removed": false
        },
        {
          "address": "0x270e88f8683660553e8ba4eb2ad7c91a1710d769",
          "topics": [
            "0xddf252ad1be2c89b69c2b068fc378daa952ba7f163c4a11628f55a4df523b3ef",
            "0x0000000000000000000000000000000000000000000000000000000000000000",
            "0x000000000000000000000000c77f7fed3b5cc8249adc428c5f44c9063b9734b4"
          ],
          "data": "0x0000000000000000000000000000000000000000000000001f6e5c7aeb74fa8d",
          "blockHash": "0x5d272c4dc1e7c178dc266b3b92c3dc2aa7c6ec38a6d9f90e848b768ec1505ac6",
          "blockNumber": "0x7253ea",
          "transactionHash": "0x543325629d324ff9e2833ad5d1a87c3b3a82419666397dfd3330dec4af132922",
          "transactionIndex": "0x4c",
          "logIndex": "0xe5",
          "removed": false
        },
        {
          "address": "0x270e88f8683660553e8ba4eb2ad7c91a1710d769",
          "topics": [
            "0x4afcb4a87cdbd9974efdb92ee48bc8d7cd0ae4bf217004db3d080cbaee652ca7"
          ],
          "data": "0x000000000000000000000000000000000000000000000000000000006786e1000000000000000000000000000000000000000000000000000004b60500cf50620000000000000000000000000000000000000000000000000de0b6b3a7640000",
          "blockHash": "0x5d272c4dc1e7c178dc266b3b92c3dc2aa7c6ec38a6d9f90e848b768ec1505ac6",
          "blockNumber": "0x7253ea",
          "transactionHash": "0x543325629d324ff9e2833ad5d1a87c3b3a82419666397dfd3330dec4af132922",
          "transactionIndex": "0x4c",
          "logIndex": "0xe6",
          "removed": false
        }
      ],
      "logsBloom": "0x00000000000000000000000000000000000000000000000000000000000000000000000000000000000000000000000020000000000000004000000000000000000000000000000000000008000000000000000000000000000000000000000000000000020000000000000000000800020000000000000000000010000000000000000000010000000000000000000000000000000000000000010000000000000000000000000000000000000000004000000000000000000000000000000000000002000000800000000000000000000000000000080000008000000020000000000000000000000000000000000000000000000000000000000000000000",
      "type": "0x2",
      "transactionHash": "0x543325629d324ff9e2833ad5d1a87c3b3a82419666397dfd3330dec4af132922",
      "transactionIndex": "0x4c",
      "blockHash": "0x5d272c4dc1e7c178dc266b3b92c3dc2aa7c6ec38a6d9f90e848b768ec1505ac6",
      "blockNumber": "0x7253ea",
      "gasUsed": "0x13af8",
      "effectiveGasPrice": "0x14c37f9c2",
      "from": "0xc77f7fed3b5cc8249adc428c5f44c9063b9734b4",
      "to": "0x270e88f8683660553e8ba4eb2ad7c91a1710d769",
      "contractAddress": null
    }
  ],
  "libraries": [],
  "pending": [],
  "returns": {},
  "timestamp": 1736892673,
  "chain": 11155111,
  "commit": "51a374b"
}