{
  "transactions": [
    {
      "hash": "0x28ad16f2ff30fd11dde6f6680fab6d9419c6c8c10c0e7a5541f0cd499cf6dd29",
      "transactionType": "CALL",
      "contractName": null,
      "contractAddress": "0xbf4a322f1496e5c3d34a9bcdb4c60567b38c7de2",
      "function": "buy(address)",
      "arguments": [
        "0xC77f7fed3b5Cc8249aDc428c5F44C9063B9734b4"
      ],
      "transaction": {
        "from": "0xc77f7fed3b5cc8249adc428c5f44c9063b9734b4",
        "to": "0xbf4a322f1496e5c3d34a9bcdb4c60567b38c7de2",
        "gas": "0x1b309",
        "value": "0xde0b6b3a7640000",
        "input": "0xf088d547000000000000000000000000c77f7fed3b5cc8249adc428c5f44c9063b9734b4",
        "nonce": "0x928",
        "chainId": "0xaa36a7"
      },
      "additionalContracts": [],
      "isFixedGasLimit": false
    }
  ],
  "receipts": [
    {
      "status": "0x1",
      "cumulativeGasUsed": "0xe995c8",
      "logs": [
        {
          "address": "0xbf4a322f1496e5c3d34a9bcdb4c60567b38c7de2",
          "topics": [
            "0xddf252ad1be2c89b69c2b068fc378daa952ba7f163c4a11628f55a4df523b3ef",
            "0x0000000000000000000000000000000000000000000000000000000000000000",
            "0x000000000000000000000000c77f7fed3b5cc8249adc428c5f44c9063b9734b4"
          ],
          "data": "0x000000000000000000000000000000000000000000000035840dcb19a1f4e828",
          "blockHash": "0x2ff598ef04d17b1a7f80a8210112ffc2fc0ca59aaddf188f1767ca4b016f7571",
          "blockNumber": "0x7258b0",
          "transactionHash": "0x28ad16f2ff30fd11dde6f6680fab6d9419c6c8c10c0e7a5541f0cd499cf6dd29",
          "transactionIndex": "0x54",
          "logIndex": "0x92",
          "removed": false
        },
        {
          "address": "0xbf4a322f1496e5c3d34a9bcdb4c60567b38c7de2",
          "topics": [
            "0xddf252ad1be2c89b69c2b068fc378daa952ba7f163c4a11628f55a4df523b3ef",
            "0x0000000000000000000000000000000000000000000000000000000000000000",
            "0x000000000000000000000000c77f7fed3b5cc8249adc428c5f44c9063b9734b4"
          ],
          "data": "0x000000000000000000000000000000000000000000000000298e8f2421d9e690",
          "blockHash": "0x2ff598ef04d17b1a7f80a8210112ffc2fc0ca59aaddf188f1767ca4b016f7571",
          "blockNumber": "0x7258b0",
          "transactionHash": "0x28ad16f2ff30fd11dde6f6680fab6d9419c6c8c10c0e7a5541f0cd499cf6dd29",
          "transactionIndex": "0x54",
          "logIndex": "0x93",
          "removed": false
        },
        {
          "address": "0xbf4a322f1496e5c3d34a9bcdb4c60567b38c7de2",
          "topics": [
            "0x4afcb4a87cdbd9974efdb92ee48bc8d7cd0ae4bf217004db3d080cbaee652ca7"
          ],
          "data": "0x0000000000000000000000000000000000000000000000000000000067871a6c000000000000000000000000000000000000000000000000000390170662117a0000000000000000000000000000000000000000000000000de0b6b3a7640000",
          "blockHash": "0x2ff598ef04d17b1a7f80a8210112ffc2fc0ca59aaddf188f1767ca4b016f7571",
          "blockNumber": "0x7258b0",
          "transactionHash": "0x28ad16f2ff30fd11dde6f6680fab6d9419c6c8c10c0e7a5541f0cd499cf6dd29",
          "transactionIndex": "0x54",
          "logIndex": "0x94",
          "removed": false
        }
      ],
      "logsBloom": "0x00000000000000000000000000000000000000000000000000000000000000000000000000000000000000000000000000000000000000004000000000000000000000000000000000000008000000000000001000000000000000000000000000000000020000000000000000000800020000000000000000000010000000000000000000000000000000000000000000000000000008000000010000000000000000000000000000000000000000004000000000000000000000000000000000000002000000800000000000001000000000000000080000000000000020000000000000000000000000000000000000000000000000000000000000000000",
      "type": "0x2",
      "transactionHash": "0x28ad16f2ff30fd11dde6f6680fab6d9419c6c8c10c0e7a5541f0cd499cf6dd29",
      "transactionIndex": "0x54",
      "blockHash": "0x2ff598ef04d17b1a7f80a8210112ffc2fc0ca59aaddf188f1767ca4b016f7571",
      "blockNumber": "0x7258b0",
      "gasUsed": "0x13af6",
      "effectiveGasPrice": "0x55b2bee1",
      "from": "0xc77f7fed3b5cc8249adc428c5f44c9063b9734b4",
      "to": "0xbf4a322f1496e5c3d34a9bcdb4c60567b38c7de2",
      "contractAddress": null
    }
  ],
  "libraries": [],
  "pending": [],
  "returns": {},
  "timestamp": 1736907374,
  "chain": 11155111,
  "commit": "51a374b"
}