{
  "transactions": [
    {
      "hash": "0x5b20d7f0a4ccd5d033ee4a04283bfd20f87f811c8f94c3021453cbc6960b54e4",
      "transactionType": "CALL",
      "contractName": null,
      "contractAddress": "0x270e88f8683660553e8ba4eb2ad7c91a1710d769",
      "function": "sell(uint256)",
      "arguments": [
        "947876755627807533458"
      ],
      "transaction": {
        "from": "0xc77f7fed3b5cc8249adc428c5f44c9063b9734b4",
        "to": "0x270e88f8683660553e8ba4eb2ad7c91a1710d769",
        "gas": "0x16fec",
        "value": "0x0",
        "input": "0xe4849b32000000000000000000000000000000000000000000000033626eb72d5d36e992",
        "nonce": "0x5fd",
        "chainId": "0xaa36a7"
      },
      "additionalContracts": [],
      "isFixedGasLimit": false
    }
  ],
  "receipts": [
    {
      "status": "0x1",
      "cumulativeGasUsed": "0xe6859a",
      "logs": [
        {
          "address": "0x270e88f8683660553e8ba4eb2ad7c91a1710d769",
          "topics": [
            "0xddf252ad1be2c89b69c2b068fc378daa952ba7f163c4a11628f55a4df523b3ef",
            "0x000000000000000000000000c77f7fed3b5cc8249adc428c5f44c9063b9734b4",
            "0x0000000000000000000000000000000000000000000000000000000000000000"
          ],
          "data": "0x000000000000000000000000000000000000000000000033626eb72d5d36e992",
          "blockHash": "0xd1e497764e372a046efc6ae5760b69db3a42e2b1cbdcad08ccdbfa407997d5a6",
          "blockNumber": "0x7252c4",
          "transactionHash": "0x5b20d7f0a4ccd5d033ee4a04283bfd20f87f811c8f94c3021453cbc6960b54e4",
          "transactionIndex": "0x64",
          "logIndex": "0xca",
          "removed": false
        },
        {
          "address": "0x270e88f8683660553e8ba4eb2ad7c91a1710d769",
          "topics": [
            "0x4afcb4a87cdbd9974efdb92ee48bc8d7cd0ae4bf217004db3d080cbaee652ca7"
          ],
          "data": "0x000000000000000000000000000000000000000000000000000000006786d3380000000000000000000000000000000000000000000000000003b91614aa3aef0000000000000000000000000000000000000000000000000dc83df0c0753a97",
          "blockHash": "0xd1e497764e372a046efc6ae5760b69db3a42e2b1cbdcad08ccdbfa407997d5a6",
          "blockNumber": "0x7252c4",
          "transactionHash": "0x5b20d7f0a4ccd5d033ee4a04283bfd20f87f811c8f94c3021453cbc6960b54e4",
          "transactionIndex": "0x64",
          "logIndex": "0xcb",
          "removed": false
        }
      ],
      "logsBloom": "0x00000000000000000000000000000000000000000000000000000000000000000000000000000000000000000000000020000000000000004000000000000000000000000000000000000008000000000000000000000000000000000000000000000000020000000000000000000800020000000000000000000010000000000000000000010000000000000000000000000000000000000000010000000000000000000000000000000000000000004000000000000000000000000000000000000002000000800000000000000000000000000000080000008000000020000000000000000000000000000000000000000000000000000000000000000000",
      "type": "0x2",
      "transactionHash": "0x5b20d7f0a4ccd5d033ee4a04283bfd20f87f811c8f94c3021453cbc6960b54e4",
      "transactionIndex": "0x64",
      "blockHash": "0xd1e497764e372a046efc6ae5760b69db3a42e2b1cbdcad08ccdbfa407997d5a6",
      "blockNumber": "0x7252c4",
      "gasUsed": "0xfb93",
      "effectiveGasPrice": "0x2b192ba7c",
      "from": "0xc77f7fed3b5cc8249adc428c5f44c9063b9734b4",
      "to": "0x270e88f8683660553e8ba4eb2ad7c91a1710d769",
      "contractAddress": null
    }
  ],
  "libraries": [],
  "pending": [],
  "returns": {},
  "timestamp": 1736889145,
  "chain": 11155111,
  "commit": "51a374b"
}