{
  "transactions": [
    {
      "hash": "0x8c37b77993db49c19132df855e07ae2ae5df90b7d4b405d721cb9989e2d516bc",
      "transactionType": "CALL",
      "contractName": null,
      "contractAddress": "0x8aafd3ede9adb0ff97c7aebce82a919afb1c8764",
      "function": "sell(uint256)",
      "arguments": [
        "44283583223270029"
      ],
      "transaction": {
        "from": "0xc77f7fed3b5cc8249adc428c5f44c9063b9734b4",
        "to": "0x8aafd3ede9adb0ff97c7aebce82a919afb1c8764",
        "gas": "0x1724d",
        "value": "0x0",
        "input": "0xe4849b32000000000000000000000000000000000000000000000000009d53af2f678a8d",
        "nonce": "0x1165",
        "chainId": "0xaa36a7"
      },
      "additionalContracts": [],
      "isFixedGasLimit": false
    }
  ],
  "receipts": [
    {
      "status": "0x1",
      "cumulativeGasUsed": "0xa5e56c",
      "logs": [
        {
          "address": "0x8aafd3ede9adb0ff97c7aebce82a919afb1c8764",
          "topics": [
            "0xddf252ad1be2c89b69c2b068fc378daa952ba7f163c4a11628f55a4df523b3ef",
            "0x000000000000000000000000c77f7fed3b5cc8249adc428c5f44c9063b9734b4",
            "0x0000000000000000000000000000000000000000000000000000000000000000"
          ],
          "data": "0x000000000000000000000000000000000000000000000000009c117a956cdb5d",
          "blockHash": "0xad079ac035de3d325bc28f87ae0f036f68a75ffc4f9399f36aac697555888871",
          "blockNumber": "0x731823",
          "transactionHash": "0x8c37b77993db49c19132df855e07ae2ae5df90b7d4b405d721cb9989e2d516bc",
          "transactionIndex": "0x75",
          "logIndex": "0x84",
          "removed": false
        },
        {
          "address": "0x8aafd3ede9adb0ff97c7aebce82a919afb1c8764",
          "topics": [
            "0xddf252ad1be2c89b69c2b068fc378daa952ba7f163c4a11628f55a4df523b3ef",
            "0x000000000000000000000000c77f7fed3b5cc8249adc428c5f44c9063b9734b4",
            "0x000000000000000000000000c77f7fed3b5cc8249adc428c5f44c9063b9734b4"
          ],
          "data": "0x0000000000000000000000000000000000000000000000000001423499faaf30",
          "blockHash": "0xad079ac035de3d325bc28f87ae0f036f68a75ffc4f9399f36aac697555888871",
          "blockNumber": "0x731823",
          "transactionHash": "0x8c37b77993db49c19132df855e07ae2ae5df90b7d4b405d721cb9989e2d516bc",
          "transactionIndex": "0x75",
          "logIndex": "0x85",
          "removed": false
        },
        {
          "address": "0x8aafd3ede9adb0ff97c7aebce82a919afb1c8764",
          "topics": [
            "0x4afcb4a87cdbd9974efdb92ee48bc8d7cd0ae4bf217004db3d080cbaee652ca7"
          ],
          "data": "0x0000000000000000000000000000000000000000000000000000000067901e6800000000000000000000000000000000000000000000000000051aaf7a735722000000000000000000000000000000000000000000000000000039dd5dbb366d",
          "blockHash": "0xad079ac035de3d325bc28f87ae0f036f68a75ffc4f9399f36aac697555888871",
          "blockNumber": "0x731823",
          "transactionHash": "0x8c37b77993db49c19132df855e07ae2ae5df90b7d4b405d721cb9989e2d516bc",
          "transactionIndex": "0x75",
          "logIndex": "0x86",
          "removed": false
        }
      ],
      "logsBloom": "0x00000000000000000000000000000000000000000600000000000000000000000000000000000000000000000000000000000000000000004000000000000000000000000000004000000008000000000000000000000000000000000000000000000000020000000000000000000800020000000000000000000010000000000000000000000000000000000000000000000000000000000000010000000000000000000000000000000000000000004000000000000000000000000000000000000002000000800000000000000000000000000000080000000000000020000000000000000000000000000000000000000000000000000000000000000000",
      "type": "0x2",
      "transactionHash": "0x8c37b77993db49c19132df855e07ae2ae5df90b7d4b405d721cb9989e2d516bc",
      "transactionIndex": "0x75",
      "blockHash": "0xad079ac035de3d325bc28f87ae0f036f68a75ffc4f9399f36aac697555888871",
      "blockNumber": "0x731823",
      "gasUsed": "0xfd33",
      "effectiveGasPrice": "0x45d0da2b",
      "from": "0xc77f7fed3b5cc8249adc428c5f44c9063b9734b4",
      "to": "0x8aafd3ede9adb0ff97c7aebce82a919afb1c8764",
      "contractAddress": null
    }
  ],
  "libraries": [],
  "pending": [],
  "returns": {},
  "timestamp": 1737498217,
  "chain": 11155111,
  "commit": "1d2fb70"
}