{
  "transactions": [
    {
      "hash": "0xebb112b7290d48ddc3b6a4b064971fc2b71dd8d37385ee2fafb6a42b3679fa14",
      "transactionType": "CALL",
      "contractName": null,
      "contractAddress": "0x270e88f8683660553e8ba4eb2ad7c91a1710d769",
      "function": "buy(address)",
      "arguments": [
        "0xC77f7fed3b5Cc8249aDc428c5F44C9063B9734b4"
      ],
      "transaction": {
        "from": "0xc77f7fed3b5cc8249adc428c5f44c9063b9734b4",
        "to": "0x270e88f8683660553e8ba4eb2ad7c91a1710d769",
        "gas": "0x1b30c",
        "value": "0xde0b6b3a7640000",
        "input": "0xf088d547000000000000000000000000c77f7fed3b5cc8249adc428c5f44c9063b9734b4",
        "nonce": "0x791",
        "chainId": "0xaa36a7"
      },
      "additionalContracts": [],
      "isFixedGasLimit": false
    }
  ],
  "receipts": [
    {
      "status": "0x1",
      "cumulativeGasUsed": "0x112731f",
      "logs": [
        {
          "address": "0x270e88f8683660553e8ba4eb2ad7c91a1710d769",
          "topics": [
            "0xddf252ad1be2c89b69c2b068fc378daa952ba7f163c4a11628f55a4df523b3ef",
            "0x0000000000000000000000000000000000000000000000000000000000000000",
            "0x000000000000000000000000c77f7fed3b5cc8249adc428c5f44c9063b9734b4"
          ],
          "data": "0x00000000000000000000000000000000000000000000002794f92d190a2cd08c",
          "blockHash": "0x2dcda3f410c167bbbe37402615c7f1bd3ab841e7638c1fe7ade14acee1842ebf",
          "blockNumber": "0x7254c4",
          "transactionHash": "0xebb112b7290d48ddc3b6a4b064971fc2b71dd8d37385ee2fafb6a42b3679fa14",
          "transactionIndex": "0x6b",
          "logIndex": "0xc7",
          "removed": false
        },
        {
          "address": "0x270e88f8683660553e8ba4eb2ad7c91a1710d769",
          "topics": [
            "0xddf252ad1be2c89b69c2b068fc378daa952ba7f163c4a11628f55a4df523b3ef",
            "0x0000000000000000000000000000000000000000000000000000000000000000",
            "0x000000000000000000000000c77f7fed3b5cc8249adc428c5f44c9063b9734b4"
          ],
          "data": "0x0000000000000000000000000000000000000000000000001ebc9974a8327491",
          "blockHash": "0x2dcda3f410c167bbbe37402615c7f1bd3ab841e7638c1fe7ade14acee1842ebf",
          "blockNumber": "0x7254c4",
          "transactionHash": "0xebb112b7290d48ddc3b6a4b064971fc2b71dd8d37385ee2fafb6a42b3679fa14",
          "transactionIndex": "0x6b",
          "logIndex": "0xc8",
          "removed": false
        },
        {
          "address": "0x270e88f8683660553e8ba4eb2ad7c91a1710d769",
          "topics": [
            "0x4afcb4a87cdbd9974efdb92ee48bc8d7cd0ae4bf217004db3d080cbaee652ca7"
          ],
          "data": "0x000000000000000000000000000000000000000000000000000000006786eb380000000000000000000000000000000000000000000000000004d14343243cf60000000000000000000000000000000000000000000000000de0b6b3a7640000",
          "blockHash": "0x2dcda3f410c167bbbe37402615c7f1bd3ab841e7638c1fe7ade14acee1842ebf",
          "blockNumber": "0x7254c4",
          "transactionHash": "0xebb112b7290d48ddc3b6a4b064971fc2b71dd8d37385ee2fafb6a42b3679fa14",
          "transactionIndex": "0x6b",
          "logIndex": "0xc9",
          "removed": false
        }
      ],
      "logsBloom": "0x00000000000000000000000000000000000000000000000000000000000000000000000000000000000000000000000020000000000000004000000000000000000000000000000000000008000000000000000000000000000000000000000000000000020000000000000000000800020000000000000000000010000000000000000000010000000000000000000000000000000000000000010000000000000000000000000000000000000000004000000000000000000000000000000000000002000000800000000000000000000000000000080000008000000020000000000000000000000000000000000000000000000000000000000000000000",
      "type": "0x2",
      "transactionHash": "0xebb112b7290d48ddc3b6a4b064971fc2b71dd8d37385ee2fafb6a42b3679fa14",
      "transactionIndex": "0x6b",
      "blockHash": "0x2dcda3f410c167bbbe37402615c7f1bd3ab841e7638c1fe7ade14acee1842ebf",
      "blockNumber": "0x7254c4",
      "gasUsed": "0x13af8",
      "effectiveGasPrice": "0xf9e206f2",
      "from": "0xc77f7fed3b5cc8249adc428c5f44c9063b9734b4",
      "to": "0x270e88f8683660553e8ba4eb2ad7c91a1710d769",
      "contractAddress": null
    }
  ],
  "libraries": [],
  "pending": [],
  "returns": {},
  "timestamp": 1736895290,
  "chain": 11155111,
  "commit": "51a374b"
}