{
  "transactions": [
    {
      "hash": "0x17709c7bcdb05c05050c2b94770ca49afbc028d15db3dd269e760e3e8bcadc92",
      "transactionType": "CALL",
      "contractName": null,
      "contractAddress": "0x5eb9cc76c3506942c1c0ead70e877dd5e4f00cb0",
      "function": "sell(uint256)",
      "arguments": [
        "989102867446291108000"
      ],
      "transaction": {
        "from": "0xc77f7fed3b5cc8249adc428c5f44c9063b9734b4",
        "to": "0x5eb9cc76c3506942c1c0ead70e877dd5e4f00cb0",
        "gas": "0x16fec",
        "value": "0x0",
        "input": "0xe4849b320000000000000000000000000000000000000000000000359e8f4973687610a0",
        "nonce": "0x3ef",
        "chainId": "0xaa36a7"
      },
      "additionalContracts": [],
      "isFixedGasLimit": false
    }
  ],
  "receipts": [
    {
      "status": "0x1",
      "cumulativeGasUsed": "0xf0df06",
      "logs": [
        {
          "address": "0x5eb9cc76c3506942c1c0ead70e877dd5e4f00cb0",
          "topics": [
            "0xddf252ad1be2c89b69c2b068fc378daa952ba7f163c4a11628f55a4df523b3ef",
            "0x000000000000000000000000c77f7fed3b5cc8249adc428c5f44c9063b9734b4",
            "0x0000000000000000000000000000000000000000000000000000000000000000"
          ],
          "data": "0x0000000000000000000000000000000000000000000000359e8f4973687610a0",
          "blockHash": "0xee1811716947ff1b0f84751cfd79890de03b74f5ec5b6a918d055aa958cf0ac7",
          "blockNumber": "0x724ff5",
          "transactionHash": "0x17709c7bcdb05c05050c2b94770ca49afbc028d15db3dd269e760e3e8bcadc92",
          "transactionIndex": "0x6b",
          "logIndex": "0xe9",
          "removed": false
        },
        {
          "address": "0x5eb9cc76c3506942c1c0ead70e877dd5e4f00cb0",
          "topics": [
            "0x4afcb4a87cdbd9974efdb92ee48bc8d7cd0ae4bf217004db3d080cbaee652ca7"
          ],
          "data": "0x000000000000000000000000000000000000000000000000000000006786b14800000000000000000000000000000000000000000000000000039114cb600c9a0000000000000000000000000000000000000000000000000dc7db1331ec8cf0",
          "blockHash": "0xee1811716947ff1b0f84751cfd79890de03b74f5ec5b6a918d055aa958cf0ac7",
          "blockNumber": "0x724ff5",
          "transactionHash": "0x17709c7bcdb05c05050c2b94770ca49afbc028d15db3dd269e760e3e8bcadc92",
          "transactionIndex": "0x6b",
          "logIndex": "0xea",
          "removed": false
        }
      ],
      "logsBloom": "0x00000000000000000000000000000000000000000000000000000000000000000000000000000000000000000000000000000000000000004000000000000000000000000000000000000008000000000000000000000000000000000000000000000000020000000000000004000800020000000000000000000010000000000000000000000000000000000000000000000000000000000000010000000000000000000000000000000000000000004000000000000000000000000000020000000002000000800000008000000000000000000000080000000000000020000000000000000000000000000000000000000000000000000000000000000000",
      "type": "0x2",
      "transactionHash": "0x17709c7bcdb05c05050c2b94770ca49afbc028d15db3dd269e760e3e8bcadc92",
      "transactionIndex": "0x6b",
      "blockHash": "0xee1811716947ff1b0f84751cfd79890de03b74f5ec5b6a918d055aa958cf0ac7",
      "blockNumber": "0x724ff5",
      "gasUsed": "0xfb93",
      "effectiveGasPrice": "0x384610539",
      "from": "0xc77f7fed3b5cc8249adc428c5f44c9063b9734b4",
      "to": "0x5eb9cc76c3506942c1c0ead70e877dd5e4f00cb0",
      "contractAddress": null
    }
  ],
  "libraries": [],
  "pending": [],
  "returns": {},
  "timestamp": 1736880457,
  "chain": 11155111,
  "commit": "51a374b"
}