{
  "transactions": [
    {
      "hash": "0xc2685f4cfa89ea5a2791da7cc1b11fb541ea1e0f45901c2111ea8640f13ca8f8",
      "transactionType": "CALL",
      "contractName": null,
      "contractAddress": "0x270e88f8683660553e8ba4eb2ad7c91a1710d769",
      "function": "buy(address)",
      "arguments": [
        "0xC77f7fed3b5Cc8249aDc428c5F44C9063B9734b4"
      ],
      "transaction": {
        "from": "0xc77f7fed3b5cc8249adc428c5f44c9063b9734b4",
        "to": "0x270e88f8683660553e8ba4eb2ad7c91a1710d769",
        "gas": "0x1b30c",
        "value": "0xde0b6b3a7640000",
        "input": "0xf088d547000000000000000000000000c77f7fed3b5cc8249adc428c5f44c9063b9734b4",
        "nonce": "0x71f",
        "chainId": "0xaa36a7"
      },
      "additionalContracts": [],
      "isFixedGasLimit": false
    }
  ],
  "receipts": [
    {
      "status": "0x1",
      "cumulativeGasUsed": "0x4e7bce",
      "logs": [
        {
          "address": "0x270e88f8683660553e8ba4eb2ad7c91a1710d769",
          "topics": [
            "0xddf252ad1be2c89b69c2b068fc378daa952ba7f163c4a11628f55a4df523b3ef",
            "0x0000000000000000000000000000000000000000000000000000000000000000",
            "0x000000000000000000000000c77f7fed3b5cc8249adc428c5f44c9063b9734b4"
          ],
          "data": "0x000000000000000000000000000000000000000000000028201047080a607c25",
          "blockHash": "0x5480321aebe4cb7c32519daa139de5bb6483ca35dde966259de8c2cb37bfb6af",
          "blockNumber": "0x72543c",
          "transactionHash": "0xc2685f4cfa89ea5a2791da7cc1b11fb541ea1e0f45901c2111ea8640f13ca8f8",
          "transactionIndex": "0x2a",
          "logIndex": "0x49",
          "removed": false
        },
        {
          "address": "0x270e88f8683660553e8ba4eb2ad7c91a1710d769",
          "topics": [
            "0xddf252ad1be2c89b69c2b068fc378daa952ba7f163c4a11628f55a4df523b3ef",
            "0x0000000000000000000000000000000000000000000000000000000000000000",
            "0x000000000000000000000000c77f7fed3b5cc8249adc428c5f44c9063b9734b4"
          ],
          "data": "0x0000000000000000000000000000000000000000000000001f289b959bb00fa8",
          "blockHash": "0x5480321aebe4cb7c32519daa139de5bb6483ca35dde966259de8c2cb37bfb6af",
          "blockNumber": "0x72543c",
          "transactionHash": "0xc2685f4cfa89ea5a2791da7cc1b11fb541ea1e0f45901c2111ea8640f13ca8f8",
          "transactionIndex": "0x2a",
          "logIndex": "0x4a",
          "removed": false
        },
        {
          "address": "0x270e88f8683660553e8ba4eb2ad7c91a1710d769",
          "topics": [
            "0x4afcb4a87cdbd9974efdb92ee48bc8d7cd0ae4bf217004db3d080cbaee652ca7"
          ],
          "data": "0x000000000000000000000000000000000000000000000000000000006786e4d80000000000000000000000000000000000000000000000000004c090a2fc9b090000000000000000000000000000000000000000000000000de0b6b3a7640000",
          "blockHash": "0x5480321aebe4cb7c32519daa139de5bb6483ca35dde966259de8c2cb37bfb6af",
          "blockNumber": "0x72543c",
          "transactionHash": "0xc2685f4cfa89ea5a2791da7cc1b11fb541ea1e0f45901c2111ea8640f13ca8f8",
          "transactionIndex": "0x2a",
          "logIndex": "0x4b",
          "removed": false
        }
      ],
      "logsBloom": "0x00000000000000000000000000000000000000000000000000000000000000000000000000000000000000000000000020000000000000004000000000000000000000000000000000000008000000000000000000000000000000000000000000000000020000000000000000000800020000000000000000000010000000000000000000010000000000000000000000000000000000000000010000000000000000000000000000000000000000004000000000000000000000000000000000000002000000800000000000000000000000000000080000008000000020000000000000000000000000000000000000000000000000000000000000000000",
      "type": "0x2",
      "transactionHash": "0xc2685f4cfa89ea5a2791da7cc1b11fb541ea1e0f45901c2111ea8640f13ca8f8",
      "transactionIndex": "0x2a",
      "blockHash": "0x5480321aebe4cb7c32519daa139de5bb6483ca35dde966259de8c2cb37bfb6af",
      "blockNumber": "0x72543c",
      "gasUsed": "0x13af8",
      "effectiveGasPrice": "0x18e6dc4b8",
      "from": "0xc77f7fed3b5cc8249adc428c5f44c9063b9734b4",
      "to": "0x270e88f8683660553e8ba4eb2ad7c91a1710d769",
      "contractAddress": null
    }
  ],
  "libraries": [],
  "pending": [],
  "returns": {},
  "timestamp": 1736893658,
  "chain": 11155111,
  "commit": "51a374b"
}