{
  "transactions": [
    {
      "hash": "0xd7bc7f3357a41fac3e94f7648415fb9201e4fa0b18d1d7a03655b33228257c0c",
      "transactionType": "CALL",
      "contractName": null,
      "contractAddress": "0x8aafd3ede9adb0ff97c7aebce82a919afb1c8764",
      "function": "sell(uint256)",
      "arguments": [
        "4836350792"
      ],
      "transaction": {
        "from": "0xc77f7fed3b5cc8249adc428c5f44c9063b9734b4",
        "to": "0x8aafd3ede9adb0ff97c7aebce82a919afb1c8764",
        "gas": "0x1722a",
        "value": "0x0",
        "input": "0xe4849b32000000000000000000000000000000000000000000000000000000012044db48",
        "nonce": "0x1756",
        "chainId": "0xaa36a7"
      },
      "additionalContracts": [],
      "isFixedGasLimit": false
    }
  ],
  "receipts": [
    {
      "status": "0x1",
      "cumulativeGasUsed": "0x5afddb",
      "logs": [
        {
          "address": "0x8aafd3ede9adb0ff97c7aebce82a919afb1c8764",
          "topics": [
            "0xddf252ad1be2c89b69c2b068fc378daa952ba7f163c4a11628f55a4df523b3ef",
            "0x000000000000000000000000c77f7fed3b5cc8249adc428c5f44c9063b9734b4",
            "0x0000000000000000000000000000000000000000000000000000000000000000"
          ],
          "data": "0x000000000000000000000000000000000000000000000000000000011df67b52",
          "blockHash": "0xbcd6ed97c1a42d68baa997a3fd8dea491d1a89c48121129d84f544d2fd9020f2",
          "blockNumber": "0x731f26",
          "transactionHash": "0xd7bc7f3357a41fac3e94f7648415fb9201e4fa0b18d1d7a03655b33228257c0c",
          "transactionIndex": "0x52",
          "logIndex": "0x49",
          "removed": false
        },
        {
          "address": "0x8aafd3ede9adb0ff97c7aebce82a919afb1c8764",
          "topics": [
            "0xddf252ad1be2c89b69c2b068fc378daa952ba7f163c4a11628f55a4df523b3ef",
            "0x000000000000000000000000c77f7fed3b5cc8249adc428c5f44c9063b9734b4",
            "0x000000000000000000000000c77f7fed3b5cc8249adc428c5f44c9063b9734b4"
          ],
          "data": "0x00000000000000000000000000000000000000000000000000000000024e5ff6",
          "blockHash": "0xbcd6ed97c1a42d68baa997a3fd8dea491d1a89c48121129d84f544d2fd9020f2",
          "blockNumber": "0x731f26",
          "transactionHash": "0xd7bc7f3357a41fac3e94f7648415fb9201e4fa0b18d1d7a03655b33228257c0c",
          "transactionIndex": "0x52",
          "logIndex": "0x4a",
          "removed": false
        },
        {
          "address": "0x8aafd3ede9adb0ff97c7aebce82a919afb1c8764",
          "topics": [
            "0x4afcb4a87cdbd9974efdb92ee48bc8d7cd0ae4bf217004db3d080cbaee652ca7"
          ],
          "data": "0x00000000000000000000000000000000000000000000000000000000679072b0000000000000000000000000000000000000000000000000001802025906c9450000000000000000000000000000000000000000000000000000000001f2b0b5",
          "blockHash": "0xbcd6ed97c1a42d68baa997a3fd8dea491d1a89c48121129d84f544d2fd9020f2",
          "blockNumber": "0x731f26",
          "transactionHash": "0xd7bc7f3357a41fac3e94f7648415fb9201e4fa0b18d1d7a03655b33228257c0c",
          "transactionIndex": "0x52",
          "logIndex": "0x4b",
          "removed": false
        }
      ],
      "logsBloom": "0x00000000000000000000000000000000000000000600000000000000000000000000000000000000000000000000000000000000000000004000000000000000000000000000004000000008000000000000000000000000000000000000000000000000020000000000000000000800020000000000000000000010000000000000000000000000000000000000000000000000000000000000010000000000000000000000000000000000000000004000000000000000000000000000000000000002000000800000000000000000000000000000080000000000000020000000000000000000000000000000000000000000000000000000000000000000",
      "type": "0x2",
      "transactionHash": "0xd7bc7f3357a41fac3e94f7648415fb9201e4fa0b18d1d7a03655b33228257c0c",
      "transactionIndex": "0x52",
      "blockHash": "0xbcd6ed97c1a42d68baa997a3fd8dea491d1a89c48121129d84f544d2fd9020f2",
      "blockNumber": "0x731f26",
      "gasUsed": "0xfd1b",
      "effectiveGasPrice": "0x424fbb67",
      "from": "0xc77f7fed3b5cc8249adc428c5f44c9063b9734b4",
      "to": "0x8aafd3ede9adb0ff97c7aebce82a919afb1c8764",
      "contractAddress": null
    }
  ],
  "libraries": [],
  "pending": [],
  "returns": {},
  "timestamp": 1737519794,
  "chain": 11155111,
  "commit": "1d2fb70"
}