{
  "transactions": [
    {
      "hash": "0x0e65a7310ce8fa14b08d072aa41780ee47b449f5ebd94da106afbdbbd193e098",
      "transactionType": "CALL",
      "contractName": null,
      "contractAddress": "0x8aafd3ede9adb0ff97c7aebce82a919afb1c8764",
      "function": "sell(uint256)",
      "arguments": [
        "5942266085597589238"
      ],
      "transaction": {
        "from": "0xc77f7fed3b5cc8249adc428c5f44c9063b9734b4",
        "to": "0x8aafd3ede9adb0ff97c7aebce82a919afb1c8764",
        "gas": "0x15dca",
        "value": "0x0",
        "input": "0xe4849b3200000000000000000000000000000000000000000000000052772b8578e52ef6",
        "nonce": "0xf40",
        "chainId": "0xaa36a7"
      },
      "additionalContracts": [],
      "isFixedGasLimit": false
    }
  ],
  "receipts": [
    {
      "status": "0x1",
      "cumulativeGasUsed": "0x10c130b",
      "logs": [
        {
          "address": "0x8aafd3ede9adb0ff97c7aebce82a919afb1c8764",
          "topics": [
            "0xddf252ad1be2c89b69c2b068fc378daa952ba7f163c4a11628f55a4df523b3ef",
            "0x000000000000000000000000c77f7fed3b5cc8249adc428c5f44c9063b9734b4",
            "0x0000000000000000000000000000000000000000000000000000000000000000"
          ],
          "data": "0x00000000000000000000000000000000000000000000000051ce47d85f5a224d",
          "blockHash": "0x6c8504b0296994d63b139d1e3b9d6fefd5b4a474496967e7d2c28101805c1b47",
          "blockNumber": "0x73159a",
          "transactionHash": "0x0e65a7310ce8fa14b08d072aa41780ee47b449f5ebd94da106afbdbbd193e098",
          "transactionIndex": "0x8e",
          "logIndex": "0x107",
          "removed": false
        },
        {
          "address": "0x8aafd3ede9adb0ff97c7aebce82a919afb1c8764",
          "topics": [
            "0xddf252ad1be2c89b69c2b068fc378daa952ba7f163c4a11628f55a4df523b3ef",
            "0x000000000000000000000000c77f7fed3b5cc8249adc428c5f44c9063b9734b4",
            "0x000000000000000000000000c77f7fed3b5cc8249adc428c5f44c9063b9734b4"
          ],
          "data": "0x00000000000000000000000000000000000000000000000000a8e3ad198b0ca9",
          "blockHash": "0x6c8504b0296994d63b139d1e3b9d6fefd5b4a474496967e7d2c28101805c1b47",
          "blockNumber": "0x73159a",
          "transactionHash": "0x0e65a7310ce8fa14b08d072aa41780ee47b449f5ebd94da106afbdbbd193e098",
          "transactionIndex": "0x8e",
          "logIndex": "0x108",
          "removed": false
        },
        {
          "address": "0x8aafd3ede9adb0ff97c7aebce82a919afb1c8764",
          "topics": [
            "0x4afcb4a87cdbd9974efdb92ee48bc8d7cd0ae4bf217004db3d080cbaee652ca7"
          ],
          "data": "0x00000000000000000000000000000000000000000000000000000000678fffe40000000000000000000000000000000000000000000000000004c033b9e0e53f000000000000000000000000000000000000000000000000001c3afc37ec6f62",
          "blockHash": "0x6c8504b0296994d63b139d1e3b9d6fefd5b4a474496967e7d2c28101805c1b47",
          "blockNumber": "0x73159a",
          "transactionHash": "0x0e65a7310ce8fa14b08d072aa41780ee47b449f5ebd94da106afbdbbd193e098",
          "transactionIndex": "0x8e",
          "logIndex": "0x109",
          "removed": false
        }
      ],
      "logsBloom": "0x00000000000000000000000000000000000000000600000000000000000000000000000000000000000000000000000000000000000000004000000000000000000000000000004000000008000000000000000000000000000000000000000000000000020000000000000000000800020000000000000000000010000000000000000000000000000000000000000000000000000000000000010000000000000000000000000000000000000000004000000000000000000000000000000000000002000000800000000000000000000000000000080000000000000020000000000000000000000000000000000000000000000000000000000000000000",
      "type": "0x2",
      "transactionHash": "0x0e65a7310ce8fa14b08d072aa41780ee47b449f5ebd94da106afbdbbd193e098",
      "transactionIndex": "0x8e",
      "blockHash": "0x6c8504b0296994d63b139d1e3b9d6fefd5b4a474496967e7d2c28101805c1b47",
      "blockNumber": "0x73159a",
      "gasUsed": "0xfd3f",
      "effectiveGasPrice": "0x66732a69",
      "from": "0xc77f7fed3b5cc8249adc428c5f44c9063b9734b4",
      "to": "0x8aafd3ede9adb0ff97c7aebce82a919afb1c8764",
      "contractAddress": null
    }
  ],
  "libraries": [],
  "pending": [],
  "returns": {},
  "timestamp": 1737490405,
  "chain": 11155111,
  "commit": "1d2fb70"
}