{
  "transactions": [
    {
      "hash": "0x2f705cc0a551650d043b74ed4e7b474b2d976576c42fc3e4a77c7a165b28eccc",
      "transactionType": "CALL",
      "contractName": null,
      "contractAddress": "0xbf4a322f1496e5c3d34a9bcdb4c60567b38c7de2",
      "function": "buy(address)",
      "arguments": [
        "0xC77f7fed3b5Cc8249aDc428c5F44C9063B9734b4"
      ],
      "transaction": {
        "from": "0xc77f7fed3b5cc8249adc428c5f44c9063b9734b4",
        "to": "0xbf4a322f1496e5c3d34a9bcdb4c60567b38c7de2",
        "gas": "0x1b309",
        "value": "0xde0b6b3a7640000",
        "input": "0xf088d547000000000000000000000000c77f7fed3b5cc8249adc428c5f44c9063b9734b4",
        "nonce": "0xb3c",
        "chainId": "0xaa36a7"
      },
      "additionalContracts": [],
      "isFixedGasLimit": false
    }
  ],
  "receipts": [
    {
      "status": "0x1",
      "cumulativeGasUsed": "0x11502e6",
      "logs": [
        {
          "address": "0xbf4a322f1496e5c3d34a9bcdb4c60567b38c7de2",
          "topics": [
            "0xddf252ad1be2c89b69c2b068fc378daa952ba7f163c4a11628f55a4df523b3ef",
            "0x0000000000000000000000000000000000000000000000000000000000000000",
            "0x000000000000000000000000c77f7fed3b5cc8249adc428c5f44c9063b9734b4"
          ],
          "data": "0x0000000000000000000000000000000000000000000000351fe5ef2cea998fff",
          "blockHash": "0x657629fa2588876d2b8c03d88eb8e6eed5c032f3b5c4fd757bdf04f2925966c0",
          "blockNumber": "0x725b3e",
          "transactionHash": "0x2f705cc0a551650d043b74ed4e7b474b2d976576c42fc3e4a77c7a165b28eccc",
          "transactionIndex": "0x86",
          "logIndex": "0xf3",
          "removed": false
        },
        {
          "address": "0xbf4a322f1496e5c3d34a9bcdb4c60567b38c7de2",
          "topics": [
            "0xddf252ad1be2c89b69c2b068fc378daa952ba7f163c4a11628f55a4df523b3ef",
            "0x0000000000000000000000000000000000000000000000000000000000000000",
            "0x000000000000000000000000c77f7fed3b5cc8249adc428c5f44c9063b9734b4"
          ],
          "data": "0x0000000000000000000000000000000000000000000000002940c8ea7e8692c0",
          "blockHash": "0x657629fa2588876d2b8c03d88eb8e6eed5c032f3b5c4fd757bdf04f2925966c0",
          "blockNumber": "0x725b3e",
          "transactionHash": "0x2f705cc0a551650d043b74ed4e7b474b2d976576c42fc3e4a77c7a165b28eccc",
          "transactionIndex": "0x86",
          "logIndex": "0xf4",
          "removed": false
        },
        {
          "address": "0xbf4a322f1496e5c3d34a9bcdb4c60567b38c7de2",
          "topics": [
            "0x4afcb4a87cdbd9974efdb92ee48bc8d7cd0ae4bf217004db3d080cbaee652ca7"
          ],
          "data": "0x0000000000000000000000000000000000000000000000000000000067873944000000000000000000000000000000000000000000000000000396ce91ac4fa50000000000000000000000000000000000000000000000000de0b6b3a7640000",
          "blockHash": "0x657629fa2588876d2b8c03d88eb8e6eed5c032f3b5c4fd757bdf04f2925966c0",
          "blockNumber": "0x725b3e",
          "transactionHash": "0x2f705cc0a551650d043b74ed4e7b474b2d976576c42fc3e4a77c7a165b28eccc",
          "transactionIndex": "0x86",
          "logIndex": "0xf5",
          "removed": false
        }
      ],
      "logsBloom": "0x00000000000000000000000000000000000000000000000000000000000000000000000000000000000000000000000000000000000000004000000000000000000000000000000000000008000000000000001000000000000000000000000000000000020000000000000000000800020000000000000000000010000000000000000000000000000000000000000000000000000008000000010000000000000000000000000000000000000000004000000000000000000000000000000000000002000000800000000000001000000000000000080000000000000020000000000000000000000000000000000000000000000000000000000000000000",
      "type": "0x2",
      "transactionHash": "0x2f705cc0a551650d043b74ed4e7b474b2d976576c42fc3e4a77c7a165b28eccc",
      "transactionIndex": "0x86",
      "blockHash": "0x657629fa2588876d2b8c03d88eb8e6eed5c032f3b5c4fd757bdf04f2925966c0",
      "blockNumber": "0x725b3e",
      "gasUsed": "0x13af6",
      "effectiveGasPrice": "0x435b24dc",
      "from": "0xc77f7fed3b5cc8249adc428c5f44c9063b9734b4",
      "to": "0xbf4a322f1496e5c3d34a9bcdb4c60567b38c7de2",
      "contractAddress": null
    }
  ],
  "libraries": [],
  "pending": [],
  "returns": {},
  "timestamp": 1736915271,
  "chain": 11155111,
  "commit": "51a374b"
}