{
  "transactions": [
    {
      "hash": "0xe7b945515f2d2caa101871a389a6cb34df9743ef80d8cedcfdb7087b9b83a8c7",
      "transactionType": "CALL",
      "contractName": null,
      "contractAddress": "0x270e88f8683660553e8ba4eb2ad7c91a1710d769",
      "function": "sell(uint256)",
      "arguments": [
        "756822509521573798218"
      ],
      "transaction": {
        "from": "0xc77f7fed3b5cc8249adc428c5f44c9063b9734b4",
        "to": "0x270e88f8683660553e8ba4eb2ad7c91a1710d769",
        "gas": "0x16fec",
        "value": "0x0",
        "input": "0xe4849b320000000000000000000000000000000000000000000000290705ae97a518614a",
        "nonce": "0x682",
        "chainId": "0xaa36a7"
      },
      "additionalContracts": [],
      "isFixedGasLimit": false
    }
  ],
  "receipts": [
    {
      "status": "0x1",
      "cumulativeGasUsed": "0x757180",
      "logs": [
        {
          "address": "0x270e88f8683660553e8ba4eb2ad7c91a1710d769",
          "topics": [
            "0xddf252ad1be2c89b69c2b068fc378daa952ba7f163c4a11628f55a4df523b3ef",
            "0x000000000000000000000000c77f7fed3b5cc8249adc428c5f44c9063b9734b4",
            "0x0000000000000000000000000000000000000000000000000000000000000000"
          ],
          "data": "0x0000000000000000000000000000000000000000000000290705ae97a518614a",
          "blockHash": "0xb9d52e3714444557315d9831eb61ea87182ec1c7970b3417ec9582f234f440fe",
          "blockNumber": "0x725381",
          "transactionHash": "0xe7b945515f2d2caa101871a389a6cb34df9743ef80d8cedcfdb7087b9b83a8c7",
          "transactionIndex": "0x47",
          "logIndex": "0xa5",
          "removed": false
        },
        {
          "address": "0x270e88f8683660553e8ba4eb2ad7c91a1710d769",
          "topics": [
            "0x4afcb4a87cdbd9974efdb92ee48bc8d7cd0ae4bf217004db3d080cbaee652ca7"
          ],
          "data": "0x000000000000000000000000000000000000000000000000000000006786dc140000000000000000000000000000000000000000000000000004a99cbf3856760000000000000000000000000000000000000000000000000dc82a3d8d6b41df",
          "blockHash": "0xb9d52e3714444557315d9831eb61ea87182ec1c7970b3417ec9582f234f440fe",
          "blockNumber": "0x725381",
          "transactionHash": "0xe7b945515f2d2caa101871a389a6cb34df9743ef80d8cedcfdb7087b9b83a8c7",
          "transactionIndex": "0x47",
          "logIndex": "0xa6",
          "removed": false
        }
      ],
      "logsBloom": "0x00000000000000000000000000000000000000000000000000000000000000000000000000000000000000000000000020000000000000004000000000000000000000000000000000000008000000000000000000000000000000000000000000000000020000000000000000000800020000000000000000000010000000000000000000010000000000000000000000000000000000000000010000000000000000000000000000000000000000004000000000000000000000000000000000000002000000800000000000000000000000000000080000008000000020000000000000000000000000000000000000000000000000000000000000000000",
      "type": "0x2",
      "transactionHash": "0xe7b945515f2d2caa101871a389a6cb34df9743ef80d8cedcfdb7087b9b83a8c7",
      "transactionIndex": "0x47",
      "blockHash": "0xb9d52e3714444557315d9831eb61ea87182ec1c7970b3417ec9582f234f440fe",
      "blockNumber": "0x725381",
      "gasUsed": "0xfb93",
      "effectiveGasPrice": "0x23457fcc2",
      "from": "0xc77f7fed3b5cc8249adc428c5f44c9063b9734b4",
      "to": "0x270e88f8683660553e8ba4eb2ad7c91a1710d769",
      "contractAddress": null
    }
  ],
  "libraries": [],
  "pending": [],
  "returns": {},
  "timestamp": 1736891413,
  "chain": 11155111,
  "commit": "51a374b"
}