{
  "transactions": [
    {
      "hash": "0x2a5cb3e141941fec7de3ab835e17d7429ef0784e0e226116c01964a65e8e4711",
      "transactionType": "CALL",
      "contractName": null,
      "contractAddress": "0x8aafd3ede9adb0ff97c7aebce82a919afb1c8764",
      "function": "sell(uint256)",
      "arguments": [
        "1396664"
      ],
      "transaction": {
        "from": "0xc77f7fed3b5cc8249adc428c5f44c9063b9734b4",
        "to": "0x8aafd3ede9adb0ff97c7aebce82a919afb1c8764",
        "gas": "0x16208",
        "value": "0x0",
        "input": "0xe4849b320000000000000000000000000000000000000000000000000000000000154fb8",
        "nonce": "0x12c8",
        "chainId": "0xaa36a7"
      },
      "additionalContracts": [],
      "isFixedGasLimit": false
    }
  ],
  "receipts": [
    {
      "status": "0x1",
      "cumulativeGasUsed": "0x10a4071",
      "logs": [
        {
          "address": "0x8aafd3ede9adb0ff97c7aebce82a919afb1c8764",
          "topics": [
            "0xddf252ad1be2c89b69c2b068fc378daa952ba7f163c4a11628f55a4df523b3ef",
            "0x000000000000000000000000c77f7fed3b5cc8249adc428c5f44c9063b9734b4",
            "0x0000000000000000000000000000000000000000000000000000000000000000"
          ],
          "data": "0x0000000000000000000000000000000000000000000000000000000000152413",
          "blockHash": "0x81d8e87c1f52ae4ea1cc3e22709969d7b7dd61d7e52743b84cc1bd8f04d0c9f2",
          "blockNumber": "0x7319c3",
          "transactionHash": "0x2a5cb3e141941fec7de3ab835e17d7429ef0784e0e226116c01964a65e8e4711",
          "transactionIndex": "0x75",
          "logIndex": "0x8d",
          "removed": false
        },
        {
          "address": "0x8aafd3ede9adb0ff97c7aebce82a919afb1c8764",
          "topics": [
            "0xddf252ad1be2c89b69c2b068fc378daa952ba7f163c4a11628f55a4df523b3ef",
            "0x000000000000000000000000c77f7fed3b5cc8249adc428c5f44c9063b9734b4",
            "0x000000000000000000000000c77f7fed3b5cc8249adc428c5f44c9063b9734b4"
          ],
          "data": "0x0000000000000000000000000000000000000000000000000000000000002ba5",
          "blockHash": "0x81d8e87c1f52ae4ea1cc3e22709969d7b7dd61d7e52743b84cc1bd8f04d0c9f2",
          "blockNumber": "0x7319c3",
          "transactionHash": "0x2a5cb3e141941fec7de3ab835e17d7429ef0784e0e226116c01964a65e8e4711",
          "transactionIndex": "0x75",
          "logIndex": "0x8e",
          "removed": false
        },
        {
          "address": "0x8aafd3ede9adb0ff97c7aebce82a919afb1c8764",
          "topics": [
            "0x4afcb4a87cdbd9974efdb92ee48bc8d7cd0ae4bf217004db3d080cbaee652ca7"
          ],
          "data": "0x00000000000000000000000000000000000000000000000000000000679031f400000000000000000000000000000000000000000000000000054d8b337076950000000000000000000000000000000000000000000000000000000000000824",
          "blockHash": "0x81d8e87c1f52ae4ea1cc3e22709969d7b7dd61d7e52743b84cc1bd8f04d0c9f2",
          "blockNumber": "0x7319c3",
          "transactionHash": "0x2a5cb3e141941fec7de3ab835e17d7429ef0784e0e226116c01964a65e8e4711",
          "transactionIndex": "0x75",
          "logIndex": "0x8f",
          "removed": false
        }
      ],
      "logsBloom": "0x00000000000000000000000000000000000000000600000000000000000000000000000000000000000000000000000000000000000000004000000000000000000000000000004000000008000000000000000000000000000000000000000000000000020000000000000000000800020000000000000000000010000000000000000000000000000000000000000000000000000000000000010000000000000000000000000000000000000000004000000000000000000000000000000000000002000000800000000000000000000000000000080000000000000020000000000000000000000000000000000000000000000000000000000000000000",
      "type": "0x2",
      "transactionHash": "0x2a5cb3e141941fec7de3ab835e17d7429ef0784e0e226116c01964a65e8e4711",
      "transactionIndex": "0x75",
      "blockHash": "0x81d8e87c1f52ae4ea1cc3e22709969d7b7dd61d7e52743b84cc1bd8f04d0c9f2",
      "blockNumber": "0x7319c3",
      "gasUsed": "0xf213",
      "effectiveGasPrice": "0x3d30bfaa",
      "from": "0xc77f7fed3b5cc8249adc428c5f44c9063b9734b4",
      "to": "0x8aafd3ede9adb0ff97c7aebce82a919afb1c8764",
      "contractAddress": null
    }
  ],
  "libraries": [],
  "pending": [],
  "returns": {},
  "timestamp": 1737503221,
  "chain": 11155111,
  "commit": "1d2fb70"
}