{
  "transactions": [
    {
      "hash": "0x0c187d3c7e2de1512124cf854324f1f0aafb8b6366e407ccdc4d3291ce54bced",
      "transactionType": "CALL",
      "contractName": null,
      "contractAddress": "0x8aafd3ede9adb0ff97c7aebce82a919afb1c8764",
      "function": "sell(uint256)",
      "arguments": [
        "43461156673221381"
      ],
      "transaction": {
        "from": "0xc77f7fed3b5cc8249adc428c5f44c9063b9734b4",
        "to": "0x8aafd3ede9adb0ff97c7aebce82a919afb1c8764",
        "gas": "0x1724d",
        "value": "0x0",
        "input": "0xe4849b32000000000000000000000000000000000000000000000000009a67b11508f305",
        "nonce": "0x120f",
        "chainId": "0xaa36a7"
      },
      "additionalContracts": [],
      "isFixedGasLimit": false
    }
  ],
  "receipts": [
    {
      "status": "0x1",
      "cumulativeGasUsed": "0x622e41",
      "logs": [
        {
          "address": "0x8aafd3ede9adb0ff97c7aebce82a919afb1c8764",
          "topics": [
            "0xddf252ad1be2c89b69c2b068fc378daa952ba7f163c4a11628f55a4df523b3ef",
            "0x000000000000000000000000c77f7fed3b5cc8249adc428c5f44c9063b9734b4",
            "0x0000000000000000000000000000000000000000000000000000000000000000"
          ],
          "data": "0x00000000000000000000000000000000000000000000000000992b785e983cda",
          "blockHash": "0x0dfbd34cf920addcb524acd58069e9b26b9cdf4083419873af30a4dbc2a13650",
          "blockNumber": "0x7318ea",
          "transactionHash": "0x0c187d3c7e2de1512124cf854324f1f0aafb8b6366e407ccdc4d3291ce54bced",
          "transactionIndex": "0x54",
          "logIndex": "0x7b",
          "removed": false
        },
        {
          "address": "0x8aafd3ede9adb0ff97c7aebce82a919afb1c8764",
          "topics": [
            "0xddf252ad1be2c89b69c2b068fc378daa952ba7f163c4a11628f55a4df523b3ef",
            "0x000000000000000000000000c77f7fed3b5cc8249adc428c5f44c9063b9734b4",
            "0x000000000000000000000000c77f7fed3b5cc8249adc428c5f44c9063b9734b4"
          ],
          "data": "0x00000000000000000000000000000000000000000000000000013c38b670b62b",
          "blockHash": "0x0dfbd34cf920addcb524acd58069e9b26b9cdf4083419873af30a4dbc2a13650",
          "blockNumber": "0x7318ea",
          "transactionHash": "0x0c187d3c7e2de1512124cf854324f1f0aafb8b6366e407ccdc4d3291ce54bced",
          "transactionIndex": "0x54",
          "logIndex": "0x7c",
          "removed": false
        },
        {
          "address": "0x8aafd3ede9adb0ff97c7aebce82a919afb1c8764",
          "topics": [
            "0x4afcb4a87cdbd9974efdb92ee48bc8d7cd0ae4bf217004db3d080cbaee652ca7"
          ],
          "data": "0x00000000000000000000000000000000000000000000000000000000679027c80000000000000000000000000000000000000000000000000005336292ee07da000000000000000000000000000000000000000000000000000039dd106790c4",
          "blockHash": "0x0dfbd34cf920addcb524acd58069e9b26b9cdf4083419873af30a4dbc2a13650",
          "blockNumber": "0x7318ea",
          "transactionHash": "0x0c187d3c7e2de1512124cf854324f1f0aafb8b6366e407ccdc4d3291ce54bced",
          "transactionIndex": "0x54",
          "logIndex": "0x7d",
          "removed": false
        }
      ],
      "logsBloom": "0x00000000000000000000000000000000000000000600000000000000000000000000000000000000000000000000000000000000000000004000000000000000000000000000004000000008000000000000000000000000000000000000000000000000020000000000000000000800020000000000000000000010000000000000000000000000000000000000000000000000000000000000010000000000000000000000000000000000000000004000000000000000000000000000000000000002000000800000000000000000000000000000080000000000000020000000000000000000000000000000000000000000000000000000000000000000",
      "type": "0x2",
      "transactionHash": "0x0c187d3c7e2de1512124cf854324f1f0aafb8b6366e407ccdc4d3291ce54bced",
      "transactionIndex": "0x54",
      "blockHash": "0x0dfbd34cf920addcb524acd58069e9b26b9cdf4083419873af30a4dbc2a13650",
      "blockNumber": "0x7318ea",
      "gasUsed": "0xfd33",
      "effectiveGasPrice": "0x4267be9f",
      "from": "0xc77f7fed3b5cc8249adc428c5f44c9063b9734b4",
      "to": "0x8aafd3ede9adb0ff97c7aebce82a919afb1c8764",
      "contractAddress": null
    }
  ],
  "libraries": [],
  "pending": [],
  "returns": {},
  "timestamp": 1737500618,
  "chain": 11155111,
  "commit": "1d2fb70"
}