{
  "transactions": [
    {
      "hash": "0x596ed54c6720bbeae8f4f77458cbcedb5e4f682295137d7d7e74341e3d246a10",
      "transactionType": "CALL",
      "contractName": null,
      "contractAddress": "0x8aafd3ede9adb0ff97c7aebce82a919afb1c8764",
      "function": "sell(uint256)",
      "arguments": [
        "43225013225196215"
      ],
      "transaction": {
        "from": "0xc77f7fed3b5cc8249adc428c5f44c9063b9734b4",
        "to": "0x8aafd3ede9adb0ff97c7aebce82a919afb1c8764",
        "gas": "0x1724d",
        "value": "0x0",
        "input": "0xe4849b32000000000000000000000000000000000000000000000000009990eba6b30ab7",
        "nonce": "0x1241",
        "chainId": "0xaa36a7"
      },
      "additionalContracts": [],
      "isFixedGasLimit": false
    }
  ],
  "receipts": [
    {
      "status": "0x1",
      "cumulativeGasUsed": "0xb96ebe",
      "logs": [
        {
          "address": "0x8aafd3ede9adb0ff97c7aebce82a919afb1c8764",
          "topics": [
            "0xddf252ad1be2c89b69c2b068fc378daa952ba7f163c4a11628f55a4df523b3ef",
            "0x000000000000000000000000c77f7fed3b5cc8249adc428c5f44c9063b9734b4",
            "0x0000000000000000000000000000000000000000000000000000000000000000"
          ],
          "data": "0x0000000000000000000000000000000000000000000000000098566aca3ad356",
          "blockHash": "0x6787ad0635230ea21a36dd02ae44c5df4f6a731a0385d14fd9c836e82be94894",
          "blockNumber": "0x731921",
          "transactionHash": "0x596ed54c6720bbeae8f4f77458cbcedb5e4f682295137d7d7e74341e3d246a10",
          "transactionIndex": "0x77",
          "logIndex": "0x80",
          "removed": false
        },
        {
          "address": "0x8aafd3ede9adb0ff97c7aebce82a919afb1c8764",
          "topics": [
            "0xddf252ad1be2c89b69c2b068fc378daa952ba7f163c4a11628f55a4df523b3ef",
            "0x000000000000000000000000c77f7fed3b5cc8249adc428c5f44c9063b9734b4",
            "0x000000000000000000000000c77f7fed3b5cc8249adc428c5f44c9063b9734b4"
          ],
          "data": "0x00000000000000000000000000000000000000000000000000013a80dc783761",
          "blockHash": "0x6787ad0635230ea21a36dd02ae44c5df4f6a731a0385d14fd9c836e82be94894",
          "blockNumber": "0x731921",
          "transactionHash": "0x596ed54c6720bbeae8f4f77458cbcedb5e4f682295137d7d7e74341e3d246a10",
          "transactionIndex": "0x77",
          "logIndex": "0x81",
          "removed": false
        },
        {
          "address": "0x8aafd3ede9adb0ff97c7aebce82a919afb1c8764",
          "topics": [
            "0x4afcb4a87cdbd9974efdb92ee48bc8d7cd0ae4bf217004db3d080cbaee652ca7"
          ],
          "data": "0x0000000000000000000000000000000000000000000000000000000067902a5c00000000000000000000000000000000000000000000000000053aa6964ab7e4000000000000000000000000000000000000000000000000000039dcfa31f9dc",
          "blockHash": "0x6787ad0635230ea21a36dd02ae44c5df4f6a731a0385d14fd9c836e82be94894",
          "blockNumber": "0x731921",
          "transactionHash": "0x596ed54c6720bbeae8f4f77458cbcedb5e4f682295137d7d7e74341e3d246a10",
          "transactionIndex": "0x77",
          "logIndex": "0x82",
          "removed": false
        }
      ],
      "logsBloom": "0x00000000000000000000000000000000000000000600000000000000000000000000000000000000000000000000000000000000000000004000000000000000000000000000004000000008000000000000000000000000000000000000000000000000020000000000000000000800020000000000000000000010000000000000000000000000000000000000000000000000000000000000010000000000000000000000000000000000000000004000000000000000000000000000000000000002000000800000000000000000000000000000080000000000000020000000000000000000000000000000000000000000000000000000000000000000",
      "type": "0x2",
      "transactionHash": "0x596ed54c6720bbeae8f4f77458cbcedb5e4f682295137d7d7e74341e3d246a10",
      "transactionIndex": "0x77",
      "blockHash": "0x6787ad0635230ea21a36dd02ae44c5df4f6a731a0385d14fd9c836e82be94894",
      "blockNumber": "0x731921",
      "gasUsed": "0xfd33",
      "effectiveGasPrice": "0x468630c1",
      "from": "0xc77f7fed3b5cc8249adc428c5f44c9063b9734b4",
      "to": "0x8aafd3ede9adb0ff97c7aebce82a919afb1c8764",
      "contractAddress": null
    }
  ],
  "libraries": [],
  "pending": [],
  "returns": {},
  "timestamp": 1737501277,
  "chain": 11155111,
  "commit": "1d2fb70"
}