{
  "transactions": [
    {
      "hash": "0xe74855baef2eeed314f5e12af31c6c82d0c039fe166f97e144bcfb746b9aee48",
      "transactionType": "CALL",
      "contractName": null,
      "contractAddress": "0x270e88f8683660553e8ba4eb2ad7c91a1710d769",
      "function": "buy(address)",
      "arguments": [
        "0xC77f7fed3b5Cc8249aDc428c5F44C9063B9734b4"
      ],
      "transaction": {
        "from": "0xc77f7fed3b5cc8249adc428c5f44c9063b9734b4",
        "to": "0x270e88f8683660553e8ba4eb2ad7c91a1710d769",
        "gas": "0x1b30c",
        "value": "0xde0b6b3a7640000",
        "input": "0xf088d547000000000000000000000000c77f7fed3b5cc8249adc428c5f44c9063b9734b4",
        "nonce": "0x62a",
        "chainId": "0xaa36a7"
      },
      "additionalContracts": [],
      "isFixedGasLimit": false
    }
  ],
  "receipts": [
    {
      "status": "0x1",
      "cumulativeGasUsed": "0x5b820a",
      "logs": [
        {
          "address": "0x270e88f8683660553e8ba4eb2ad7c91a1710d769",
          "topics": [
            "0xddf252ad1be2c89b69c2b068fc378daa952ba7f163c4a11628f55a4df523b3ef",
            "0x0000000000000000000000000000000000000000000000000000000000000000",
            "0x000000000000000000000000c77f7fed3b5cc8249adc428c5f44c9063b9734b4"
          ],
          "data": "0x000000000000000000000000000000000000000000000032deac0b8503ee3053",
          "blockHash": "0x251ae8bffa7d29b42650ba9719a2dd027167e17978223268ed3186001c658828",
          "blockNumber": "0x7252fa",
          "transactionHash": "0xe74855baef2eeed314f5e12af31c6c82d0c039fe166f97e144bcfb746b9aee48",
          "transactionIndex": "0x31",
          "logIndex": "0x5c",
          "removed": false
        },
        {
          "address": "0x270e88f8683660553e8ba4eb2ad7c91a1710d769",
          "topics": [
            "0xddf252ad1be2c89b69c2b068fc378daa952ba7f163c4a11628f55a4df523b3ef",
            "0x0000000000000000000000000000000000000000000000000000000000000000",
            "0x000000000000000000000000c77f7fed3b5cc8249adc428c5f44c9063b9734b4"
          ],
          "data": "0x00000000000000000000000000000000000000000000000027808c8e7a68c336",
          "blockHash": "0x251ae8bffa7d29b42650ba9719a2dd027167e17978223268ed3186001c658828",
          "blockNumber": "0x7252fa",
          "transactionHash": "0xe74855baef2eeed314f5e12af31c6c82d0c039fe166f97e144bcfb746b9aee48",
          "transactionIndex": "0x31",
          "logIndex": "0x5d",
          "removed": false
        },
        {
          "address": "0x270e88f8683660553e8ba4eb2ad7c91a1710d769",
          "topics": [
            "0x4afcb4a87cdbd9974efdb92ee48bc8d7cd0ae4bf217004db3d080cbaee652ca7"
          ],
          "data": "0x000000000000000000000000000000000000000000000000000000006786d5c00000000000000000000000000000000000000000000000000003bfa0afe59bea0000000000000000000000000000000000000000000000000de0b6b3a7640000",
          "blockHash": "0x251ae8bffa7d29b42650ba9719a2dd027167e17978223268ed3186001c658828",
          "blockNumber": "0x7252fa",
          "transactionHash": "0xe74855baef2eeed314f5e12af31c6c82d0c039fe166f97e144bcfb746b9aee48",
          "transactionIndex": "0x31",
          "logIndex": "0x5e",
          "removed": false
        }
      ],
      "logsBloom": "0x00000000000000000000000000000000000000000000000000000000000000000000000000000000000000000000000020000000000000004000000000000000000000000000000000000008000000000000000000000000000000000000000000000000020000000000000000000800020000000000000000000010000000000000000000010000000000000000000000000000000000000000010000000000000000000000000000000000000000004000000000000000000000000000000000000002000000800000000000000000000000000000080000008000000020000000000000000000000000000000000000000000000000000000000000000000",
      "type": "0x2",
      "transactionHash": "0xe74855baef2eeed314f5e12af31c6c82d0c039fe166f97e144bcfb746b9aee48",
      "transactionIndex": "0x31",
      "blockHash": "0x251ae8bffa7d29b42650ba9719a2dd027167e17978223268ed3186001c658828",
      "blockNumber": "0x7252fa",
      "gasUsed": "0x13af8",
      "effectiveGasPrice": "0x2afdb23e8",
      "from": "0xc77f7fed3b5cc8249adc428c5f44c9063b9734b4",
      "to": "0x270e88f8683660553e8ba4eb2ad7c91a1710d769",
      "contractAddress": null
    }
  ],
  "libraries": [],
  "pending": [],
  "returns": {},
  "timestamp": 1736889792,
  "chain": 11155111,
  "commit": "51a374b"
}