{
  "transactions": [
    {
      "hash": "0xc717fde30b941c07343608275471d2d56f96ed0287b69fff60b78c49058e8003",
      "transactionType": "CALL",
      "contractName": null,
      "contractAddress": "0x5eb9cc76c3506942c1c0ead70e877dd5e4f00cb0",
      "function": "sell(uint256)",
      "arguments": [
        "989113384939478210670"
      ],
      "transaction": {
        "from": "0xc77f7fed3b5cc8249adc428c5f44c9063b9734b4",
        "to": "0x5eb9cc76c3506942c1c0ead70e877dd5e4f00cb0",
        "gas": "0x16fec",
        "value": "0x0",
        "input": "0xe4849b320000000000000000000000000000000000000000000000359eb4a70e1dce586e",
        "nonce": "0x3ad",
        "chainId": "0xaa36a7"
      },
      "additionalContracts": [],
      "isFixedGasLimit": false
    }
  ],
  "receipts": [
    {
      "status": "0x1",
      "cumulativeGasUsed": "0xb4f314",
      "logs": [
        {
          "address": "0x5eb9cc76c3506942c1c0ead70e877dd5e4f00cb0",
          "topics": [
            "0xddf252ad1be2c89b69c2b068fc378daa952ba7f163c4a11628f55a4df523b3ef",
            "0x000000000000000000000000c77f7fed3b5cc8249adc428c5f44c9063b9734b4",
            "0x0000000000000000000000000000000000000000000000000000000000000000"
          ],
          "data": "0x0000000000000000000000000000000000000000000000359eb4a70e1dce586e",
          "blockHash": "0xe3f919317138fd00c6dd7745095eb3ec7189299d89bf4bf4ba037efe290144ad",
          "blockNumber": "0x724fac",
          "transactionHash": "0xc717fde30b941c07343608275471d2d56f96ed0287b69fff60b78c49058e8003",
          "transactionIndex": "0x63",
          "logIndex": "0x7a",
          "removed": false
        },
        {
          "address": "0x5eb9cc76c3506942c1c0ead70e877dd5e4f00cb0",
          "topics": [
            "0x4afcb4a87cdbd9974efdb92ee48bc8d7cd0ae4bf217004db3d080cbaee652ca7"
          ],
          "data": "0x000000000000000000000000000000000000000000000000000000006786add0000000000000000000000000000000000000000000000000000391124f15b5770000000000000000000000000000000000000000000000000dc7db1331ff43da",
          "blockHash": "0xe3f919317138fd00c6dd7745095eb3ec7189299d89bf4bf4ba037efe290144ad",
          "blockNumber": "0x724fac",
          "transactionHash": "0xc717fde30b941c07343608275471d2d56f96ed0287b69fff60b78c49058e8003",
          "transactionIndex": "0x63",
          "logIndex": "0x7b",
          "removed": false
        }
      ],
      "logsBloom": "0x00000000000000000000000000000000000000000000000000000000000000000000000000000000000000000000000000000000000000004000000000000000000000000000000000000008000000000000000000000000000000000000000000000000020000000000000004000800020000000000000000000010000000000000000000000000000000000000000000000000000000000000010000000000000000000000000000000000000000004000000000000000000000000000020000000002000000800000008000000000000000000000080000000000000020000000000000000000000000000000000000000000000000000000000000000000",
      "type": "0x2",
      "transactionHash": "0xc717fde30b941c07343608275471d2d56f96ed0287b69fff60b78c49058e8003",
      "transactionIndex": "0x63",
      "blockHash": "0xe3f919317138fd00c6dd7745095eb3ec7189299d89bf4bf4ba037efe290144ad",
      "blockNumber": "0x724fac",
      "gasUsed": "0xfb93",
      "effectiveGasPrice": "0x4ec3e7554",
      "from": "0xc77f7fed3b5cc8249adc428c5f44c9063b9734b4",
      "to": "0x5eb9cc76c3506942c1c0ead70e877dd5e4f00cb0",
      "contractAddress": null
    }
  ],
  "libraries": [],
  "pending": [],
  "returns": {},
  "timestamp": 1736879570,
  "chain": 11155111,
  "commit": "51a374b"
}