{
  "transactions": [
    {
      "hash": "0x0ebf602bc4a0c5e7d7b527ae7d4e21bdf4a99ffab8f4c890188431ac124d7a4d",
      "transactionType": "CALL",
      "contractName": null,
      "contractAddress": "0xbf4a322f1496e5c3d34a9bcdb4c60567b38c7de2",
      "function": "sell(uint256)",
      "arguments": [
        "982003925713069632155"
      ],
      "transaction": {
        "from": "0xc77f7fed3b5cc8249adc428c5f44c9063b9734b4",
        "to": "0xbf4a322f1496e5c3d34a9bcdb4c60567b38c7de2",
        "gas": "0x16fea",
        "value": "0x0",
        "input": "0xe4849b320000000000000000000000000000000000000000000000353c0ac78e66996a9b",
        "nonce": "0xb83",
        "chainId": "0xaa36a7"
      },
      "additionalContracts": [],
      "isFixedGasLimit": false
    }
  ],
  "receipts": [
    {
      "status": "0x1",
      "cumulativeGasUsed": "0x171b3f4",
      "logs": [
        {
          "address": "0xbf4a322f1496e5c3d34a9bcdb4c60567b38c7de2",
          "topics": [
            "0xddf252ad1be2c89b69c2b068fc378daa952ba7f163c4a11628f55a4df523b3ef",
            "0x000000000000000000000000c77f7fed3b5cc8249adc428c5f44c9063b9734b4",
            "0x0000000000000000000000000000000000000000000000000000000000000000"
          ],
          "data": "0x0000000000000000000000000000000000000000000000353c0ac78e66996a9b",
          "blockHash": "0xf519067a9e8e844c51ec463e97a50a9addc0543d27d7459523ffdf0fb3b5a6b0",
          "blockNumber": "0x725b92",
          "transactionHash": "0x0ebf602bc4a0c5e7d7b527ae7d4e21bdf4a99ffab8f4c890188431ac124d7a4d",
          "transactionIndex": "0x62",
          "logIndex": "0xb2",
          "removed": false
        },
        {
          "address": "0xbf4a322f1496e5c3d34a9bcdb4c60567b38c7de2",
          "topics": [
            "0x4afcb4a87cdbd9974efdb92ee48bc8d7cd0ae4bf217004db3d080cbaee652ca7"
          ],
          "data": "0x0000000000000000000000000000000000000000000000000000000067873d34000000000000000000000000000000000000000000000000000397b4f62418200000000000000000000000000000000000000000000000000dc7e3e6b9ba3534",
          "blockHash": "0xf519067a9e8e844c51ec463e97a50a9addc0543d27d7459523ffdf0fb3b5a6b0",
          "blockNumber": "0x725b92",
          "transactionHash": "0x0ebf602bc4a0c5e7d7b527ae7d4e21bdf4a99ffab8f4c890188431ac124d7a4d",
          "transactionIndex": "0x62",
          "logIndex": "0xb3",
          "removed": false
        }
      ],
      "logsBloom": "0x00000000000000000000000000000000000000000000000000000000000000000000000000000000000000000000000000000000000000004000000000000000000000000000000000000008000000000000001000000000000000000000000000000000020000000000000000000800020000000000000000000010000000000000000000000000000000000000000000000000000008000000010000000000000000000000000000000000000000004000000000000000000000000000000000000002000000800000000000001000000000000000080000000000000020000000000000000000000000000000000000000000000000000000000000000000",
      "type": "0x2",
      "transactionHash": "0x0ebf602bc4a0c5e7d7b527ae7d4e21bdf4a99ffab8f4c890188431ac124d7a4d",
      "transactionIndex": "0x62",
      "blockHash": "0xf519067a9e8e844c51ec463e97a50a9addc0543d27d7459523ffdf0fb3b5a6b0",
      "blockNumber": "0x725b92",
      "gasUsed": "0xfb91",
      "effectiveGasPrice": "0x4167b6cd",
      "from": "0xc77f7fed3b5cc8249adc428c5f44c9063b9734b4",
      "to": "0xbf4a322f1496e5c3d34a9bcdb4c60567b38c7de2",
      "contractAddress": null
    }
  ],
  "libraries": [],
  "pending": [],
  "returns": {},
  "timestamp": 1736916276,
  "chain": 11155111,
  "commit": "51a374b"
}