{
  "transactions": [
    {
      "hash": "0xd07948fc2206a5a9190361ae5fbf281feaae0cc33996214b2da7ae7cc522c658",
      "transactionType": "CALL",
      "contractName": null,
      "contractAddress": "0x5eb9cc76c3506942c1c0ead70e877dd5e4f00cb0",
      "function": "sell(uint256)",
      "arguments": [
        "989081833130911680455"
      ],
      "transaction": {
        "from": "0xc77f7fed3b5cc8249adc428c5f44c9063b9734b4",
        "to": "0x5eb9cc76c3506942c1c0ead70e877dd5e4f00cb0",
        "gas": "0x16fec",
        "value": "0x0",
        "input": "0xe4849b320000000000000000000000000000000000000000000000359e448eda382d47c7",
        "nonce": "0x473",
        "chainId": "0xaa36a7"
      },
      "additionalContracts": [],
      "isFixedGasLimit": false
    }
  ],
  "receipts": [
    {
      "status": "0x1",
      "cumulativeGasUsed": "0x8406d2",
      "logs": [
        {
          "address": "0x5eb9cc76c3506942c1c0ead70e877dd5e4f00cb0",
          "topics": [
            "0xddf252ad1be2c89b69c2b068fc378daa952ba7f163c4a11628f55a4df523b3ef",
            "0x000000000000000000000000c77f7fed3b5cc8249adc428c5f44c9063b9734b4",
            "0x0000000000000000000000000000000000000000000000000000000000000000"
          ],
          "data": "0x0000000000000000000000000000000000000000000000359e448eda382d47c7",
          "blockHash": "0x02fd7a45f3b60bf60d03679a1cf761481ee0c63874ee826aad6d1db192ba8087",
          "blockNumber": "0x72509f",
          "transactionHash": "0xd07948fc2206a5a9190361ae5fbf281feaae0cc33996214b2da7ae7cc522c658",
          "transactionIndex": "0x50",
          "logIndex": "0x63",
          "removed": false
        },
        {
          "address": "0x5eb9cc76c3506942c1c0ead70e877dd5e4f00cb0",
          "topics": [
            "0x4afcb4a87cdbd9974efdb92ee48bc8d7cd0ae4bf217004db3d080cbaee652ca7"
          ],
          "data": "0x000000000000000000000000000000000000000000000000000000006786b94000000000000000000000000000000000000000000000000000039119c3f4bae30000000000000000000000000000000000000000000000000dc7db1331c71f6a",
          "blockHash": "0x02fd7a45f3b60bf60d03679a1cf761481ee0c63874ee826aad6d1db192ba8087",
          "blockNumber": "0x72509f",
          "transactionHash": "0xd07948fc2206a5a9190361ae5fbf281feaae0cc33996214b2da7ae7cc522c658",
          "transactionIndex": "0x50",
          "logIndex": "0x64",
          "removed": false
        }
      ],
      "logsBloom": "0x00000000000000000000000000000000000000000000000000000000000000000000000000000000000000000000000000000000000000004000000000000000000000000000000000000008000000000000000000000000000000000000000000000000020000000000000004000800020000000000000000000010000000000000000000000000000000000000000000000000000000000000010000000000000000000000000000000000000000004000000000000000000000000000020000000002000000800000008000000000000000000000080000000000000020000000000000000000000000000000000000000000000000000000000000000000",
      "type": "0x2",
      "transactionHash": "0xd07948fc2206a5a9190361ae5fbf281feaae0cc33996214b2da7ae7cc522c658",
      "transactionIndex": "0x50",
      "blockHash": "0x02fd7a45f3b60bf60d03679a1cf761481ee0c63874ee826aad6d1db192ba8087",
      "blockNumber": "0x72509f",
      "gasUsed": "0xfb93",
      "effectiveGasPrice": "0x20c6197f6",
      "from": "0xc77f7fed3b5cc8249adc428c5f44c9063b9734b4",
      "to": "0x5eb9cc76c3506942c1c0ead70e877dd5e4f00cb0",
      "contractAddress": null
    }
  ],
  "libraries": [],
  "pending": [],
  "returns": {},
  "timestamp": 1736882497,
  "chain": 11155111,
  "commit": "51a374b"
}