{
  "transactions": [
    {
      "hash": "0x4dd33b69660f1ae138925cd25a9eb50fc42f41fbb3a2356f22ecd53151c72cf0",
      "transactionType": "CALL",
      "contractName": null,
      "contractAddress": "0x5eb9cc76c3506942c1c0ead70e877dd5e4f00cb0",
      "function": "sell(uint256)",
      "arguments": [
        "989119759286631970055"
      ],
      "transaction": {
        "from": "0xc77f7fed3b5cc8249adc428c5f44c9063b9734b4",
        "to": "0x5eb9cc76c3506942c1c0ead70e877dd5e4f00cb0",
        "gas": "0x16fec",
        "value": "0x0",
        "input": "0xe4849b320000000000000000000000000000000000000000000000359ecb4c7d7794b507",
        "nonce": "0x385",
        "chainId": "0xaa36a7"
      },
      "additionalContracts": [],
      "isFixedGasLimit": false
    }
  ],
  "receipts": [
    {
      "status": "0x1",
      "cumulativeGasUsed": "0x11cfaaf",
      "logs": [
        {
          "address": "0x5eb9cc76c3506942c1c0ead70e877dd5e4f00cb0",
          "topics": [
            "0xddf252ad1be2c89b69c2b068fc378daa952ba7f163c4a11628f55a4df523b3ef",
            "0x000000000000000000000000c77f7fed3b5cc8249adc428c5f44c9063b9734b4",
            "0x0000000000000000000000000000000000000000000000000000000000000000"
          ],
          "data": "0x0000000000000000000000000000000000000000000000359ecb4c7d7794b507",
          "blockHash": "0x5abb427d377085049a611a3223a2cf3a5261d2e657c7421fd46a3038f49ab940",
          "blockNumber": "0x724f7f",
          "transactionHash": "0x4dd33b69660f1ae138925cd25a9eb50fc42f41fbb3a2356f22ecd53151c72cf0",
          "transactionIndex": "0x5c",
          "logIndex": "0x9f",
          "removed": false
        },
        {
          "address": "0x5eb9cc76c3506942c1c0ead70e877dd5e4f00cb0",
          "topics": [
            "0x4afcb4a87cdbd9974efdb92ee48bc8d7cd0ae4bf217004db3d080cbaee652ca7"
          ],
          "data": "0x000000000000000000000000000000000000000000000000000000006786aba800000000000000000000000000000000000000000000000000039110cd744a5a0000000000000000000000000000000000000000000000000dc7db13320a9b7c",
          "blockHash": "0x5abb427d377085049a611a3223a2cf3a5261d2e657c7421fd46a3038f49ab940",
          "blockNumber": "0x724f7f",
          "transactionHash": "0x4dd33b69660f1ae138925cd25a9eb50fc42f41fbb3a2356f22ecd53151c72cf0",
          "transactionIndex": "0x5c",
          "logIndex": "0xa0",
          "removed": false
        }
      ],
      "logsBloom": "0x00000000000000000000000000000000000000000000000000000000000000000000000000000000000000000000000000000000000000004000000000000000000000000000000000000008000000000000000000000000000000000000000000000000020000000000000004000800020000000000000000000010000000000000000000000000000000000000000000000000000000000000010000000000000000000000000000000000000000004000000000000000000000000000020000000002000000800000008000000000000000000000080000000000000020000000000000000000000000000000000000000000000000000000000000000000",
      "type": "0x2",
      "transactionHash": "0x4dd33b69660f1ae138925cd25a9eb50fc42f41fbb3a2356f22ecd53151c72cf0",
      "transactionIndex": "0x5c",
      "blockHash": "0x5abb427d377085049a611a3223a2cf3a5261d2e657c7421fd46a3038f49ab940",
      "blockNumber": "0x724f7f",
      "gasUsed": "0xfb93",
      "effectiveGasPrice": "0x5905ac9d8",
      "from": "0xc77f7fed3b5cc8249adc428c5f44c9063b9734b4",
      "to": "0x5eb9cc76c3506942c1c0ead70e877dd5e4f00cb0",
      "contractAddress": null
    }
  ],
  "libraries": [],
  "pending": [],
  "returns": {},
  "timestamp": 1736879018,
  "chain": 11155111,
  "commit": "51a374b"
}