{
  "transactions": [
    {
      "hash": "0xd88045d31e9d14ae42e8733578c74f6d702a4ff643bf2d9256609ffe725eeb15",
      "transactionType": "CALL",
      "contractName": null,
      "contractAddress": "0xcf440b3a823449ec0d9b413bd183a81e44da5441",
      "function": "buy(address)",
      "arguments": [
        "0xF66076775AD1f36dd12C1f1b10C21d1aadf0D6dE"
      ],
      "transaction": {
        "from": "0xf66076775ad1f36dd12c1f1b10c21d1aadf0d6de",
        "to": "0xcf440b3a823449ec0d9b413bd183a81e44da5441",
        "gas": "0x14787",
        "value": "0x2386f26fc10000",
        "input": "0xf088d547000000000000000000000000f66076775ad1f36dd12c1f1b10c21d1aadf0d6de",
        "nonce": "0x7a",
        "chainId": "0xaa36a7"
      },
      "additionalContracts": [],
      "isFixedGasLimit": false
    },
    {
      "hash": "0x5740cf3bc5b86a9574e1d03485884af4d168ceda39444f8c33cbd9905858a948",
      "transactionType": "CALL",
      "contractName": null,
      "contractAddress": "0xcf440b3a823449ec0d9b413bd183a81e44da5441",
      "function": "extendLoan(uint256)",
      "arguments": [
        "365"
      ],
      "transaction": {
        "from": "0xf66076775ad1f36dd12c1f1b10c21d1aadf0d6de",
        "to": "0xcf440b3a823449ec0d9b413bd183a81e44da5441",
        "gas": "0x2ea8c",
        "value": "0x166599d1549f8",
        "input": "0x7ace2ac9000000000000000000000000000000000000000000000000000000000000016d",
        "nonce": "0x7b",
        "chainId": "0xaa36a7"
      },
      "additionalContracts": [],
      "isFixedGasLimit": false
    }
  ],
  "receipts": [
    {
      "status": "0x1",
      "cumulativeGasUsed": "0xa620e1",
      "logs": [
        {
          "address": "0xcf440b3a823449ec0d9b413bd183a81e44da5441",
          "topics": [
            "0xddf252ad1be2c89b69c2b068fc378daa952ba7f163c4a11628f55a4df523b3ef",
            "0x0000000000000000000000000000000000000000000000000000000000000000",
            "0x000000000000000000000000f66076775ad1f36dd12c1f1b10c21d1aadf0d6de"
          ],
          "data": "0x00000000000000000000000000000000000000000000000088333cd3c8848dc9",
          "blockHash": "0x4e8c3738869713d5a263ccd73fd594403003a765fa24ad31fc8c6a16b53b19cc",
          "blockNumber": "0x73d7a7",
          "transactionHash": "0xd88045d31e9d14ae42e8733578c74f6d702a4ff643bf2d9256609ffe725eeb15",
          "transactionIndex": "0x49",
          "logIndex": "0x8e",
          "removed": false
        },
        {
          "address": "0xcf440b3a823449ec0d9b413bd183a81e44da5441",
          "topics": [
            "0x4afcb4a87cdbd9974efdb92ee48bc8d7cd0ae4bf217004db3d080cbaee652ca7"
          ],
          "data": "0x0000000000000000000000000000000000000000000000000000000067995f60000000000000000000000000000000000000000000000000000397bd5e196fce000000000000000000000000000000000000000000000000002386f26fc10000",
          "blockHash": "0x4e8c3738869713d5a263ccd73fd594403003a765fa24ad31fc8c6a16b53b19cc",
          "blockNumber": "0x73d7a7",
          "transactionHash": "0xd88045d31e9d14ae42e8733578c74f6d702a4ff643bf2d9256609ffe725eeb15",
          "transactionIndex": "0x49",
          "logIndex": "0x8f",
          "removed": false
        }
      ],
      "logsBloom": "0x00000000000000040000000000000000000000000000000004000000000000000000000000000000000000000000000000000000000000004000000000000000000000000000000000000008000000000040000000000000000000000000000000000000420000000000000000000800220000000000000000000010000000000000000000000000000000000000000000000000000000000000000000000000000000000000000000000000000000004000000000000000000000000000000000000002000000000000000000000000000000000000000000000020000020000000000000000000000000000000000000000000000000000000000000000000",
      "type": "0x2",
      "transactionHash": "0xd88045d31e9d14ae42e8733578c74f6d702a4ff643bf2d9256609ffe725eeb15",
      "transactionIndex": "0x49",
      "blockHash": "0x4e8c3738869713d5a263ccd73fd594403003a765fa24ad31fc8c6a16b53b19cc",
      "blockNumber": "0x73d7a7",
      "gasUsed": "0xed20",
      "effectiveGasPrice": "0x46677b54",
      "from": "0xf66076775ad1f36dd12c1f1b10c21d1aadf0d6de",
      "to": "0xcf440b3a823449ec0d9b413bd183a81e44da5441",
      "contractAddress": null
    },
    {
      "status": "0x1",
      "cumulativeGasUsed": "0xa83d5f",
      "logs": [
        {
          "address": "0xcf440b3a823449ec0d9b413bd183a81e44da5441",
          "topics": [
            "0x03bbe564cb1b78e43195eeadbde99e5b89b19345862807fcfb59f884e4165e25"
          ],
          "data": "0x00000000000000000000000038818e389773445cd73adbaa37b8b169f458c6e100000000000000000000000000000000000000000000000000006b8148b99630",
          "blockHash": "0x4e8c3738869713d5a263ccd73fd594403003a765fa24ad31fc8c6a16b53b19cc",
          "blockNumber": "0x73d7a7",
          "transactionHash": "0x5740cf3bc5b86a9574e1d03485884af4d168ceda39444f8c33cbd9905858a948",
          "transactionIndex": "0x4a",
          "logIndex": "0x90",
          "removed": false
        },
        {
          "address": "0xcf440b3a823449ec0d9b413bd183a81e44da5441",
          "topics": [
            "0xaec00f5213a37254bc68a26b0685d1a5b2bf513e1e587c94c7df7f4a62b56c9c"
          ],
          "data": "0x0000000000000000000000000000000000000000000000000000000000000000000000000000000000000000000000000000000000000000000000000000000000000000000000000000000000000000000000000000000000000000000000000000000000000000000000000000000000000000000000000000000000000000",
          "blockHash": "0x4e8c3738869713d5a263ccd73fd594403003a765fa24ad31fc8c6a16b53b19cc",
          "blockNumber": "0x73d7a7",
          "transactionHash": "0x5740cf3bc5b86a9574e1d03485884af4d168ceda39444f8c33cbd9905858a948",
          "transactionIndex": "0x4a",
          "logIndex": "0x91",
          "removed": false
        },
        {
          "address": "0xcf440b3a823449ec0d9b413bd183a81e44da5441",
          "topics": [
            "0xaec00f5213a37254bc68a26b0685d1a5b2bf513e1e587c94c7df7f4a62b56c9c"
          ],
          "data": "0x0000000000000000000000000000000000000000000000008963dd8c2c5e22eb0000000000000000000000000000000000000000000000000022fec05714393e0000000000000000000000000000000000000000000000000022fec05714393e0000000000000000000000000000000000000000000000008963dd8c2c5e22eb",
          "blockHash": "0x4e8c3738869713d5a263ccd73fd594403003a765fa24ad31fc8c6a16b53b19cc",
          "blockNumber": "0x73d7a7",
          "transactionHash": "0x5740cf3bc5b86a9574e1d03485884af4d168ceda39444f8c33cbd9905858a948",
          "transactionIndex": "0x4a",
          "logIndex": "0x92",
          "removed": false
        },
        {
          "address": "0xcf440b3a823449ec0d9b413bd183a81e44da5441",
          "topics": [
            "0x4afcb4a87cdbd9974efdb92ee48bc8d7cd0ae4bf217004db3d080cbaee652ca7"
          ],
          "data": "0x0000000000000000000000000000000000000000000000000000000067995f6000000000000000000000000000000000000000000000000000039e1493cb6352000000000000000000000000000000000000000000000000000166599d1549f8",
          "blockHash": "0x4e8c3738869713d5a263ccd73fd594403003a765fa24ad31fc8c6a16b53b19cc",
          "blockNumber": "0x73d7a7",
          "transactionHash": "0x5740cf3bc5b86a9574e1d03485884af4d168ceda39444f8c33cbd9905858a948",
          "transactionIndex": "0x4a",
          "logIndex": "0x93",
          "removed": false
        }
      ],
      "logsBloom": "0x00000000000000000000000000000100400000000000000004000000000000000008000000000000000000000000000000002000000000004000000000000000000000000000000000000000000000000040000000000000000000000000000000000000400000000000000000000000020000000000000000000000000000000000000000000000000000000000000000000000000000000000000000000000000000000000000000000400000000004000000000000000000000001000000000000000000000000000000000000000000000000000000000000000000000000000000000000000000000000000000000000000000000000000000000000000",
      "type": "0x2",
      "transactionHash": "0x5740cf3bc5b86a9574e1d03485884af4d168ceda39444f8c33cbd9905858a948",
      "transactionIndex": "0x4a",
      "blockHash": "0x4e8c3738869713d5a263ccd73fd594403003a765fa24ad31fc8c6a16b53b19cc",
      "blockNumber": "0x73d7a7",
      "gasUsed": "0x21c7e",
      "effectiveGasPrice": "0x46677b54",
      "from": "0xf66076775ad1f36dd12c1f1b10c21d1aadf0d6de",
      "to": "0xcf440b3a823449ec0d9b413bd183a81e44da5441",
      "contractAddress": null
    }
  ],
  "libraries": [],
  "pending": [],
  "returns": {},
  "timestamp": 1738104673,
  "chain": 11155111,
  "commit": "b6e395f"
}