{
  "transactions": [
    {
      "hash": "0xec71d66c1ea20091ad8ff11cd827d17406d352ff33967b0bb99959f78a18ad19",
      "transactionType": "CALL",
      "contractName": null,
      "contractAddress": "0x8aafd3ede9adb0ff97c7aebce82a919afb1c8764",
      "function": "sell(uint256)",
      "arguments": [
        "305485"
      ],
      "transaction": {
        "from": "0xc77f7fed3b5cc8249adc428c5f44c9063b9734b4",
        "to": "0x8aafd3ede9adb0ff97c7aebce82a919afb1c8764",
        "gas": "0x16208",
        "value": "0x0",
        "input": "0xe4849b32000000000000000000000000000000000000000000000000000000000004a94d",
        "nonce": "0x1773",
        "chainId": "0xaa36a7"
      },
      "additionalContracts": [],
      "isFixedGasLimit": false
    }
  ],
  "receipts": [
    {
      "status": "0x1",
      "cumulativeGasUsed": "0xe28af1",
      "logs": [
        {
          "address": "0x8aafd3ede9adb0ff97c7aebce82a919afb1c8764",
          "topics": [
            "0xddf252ad1be2c89b69c2b068fc378daa952ba7f163c4a11628f55a4df523b3ef",
            "0x000000000000000000000000c77f7fed3b5cc8249adc428c5f44c9063b9734b4",
            "0x0000000000000000000000000000000000000000000000000000000000000000"
          ],
          "data": "0x0000000000000000000000000000000000000000000000000000000000049fc2",
          "blockHash": "0xeb7db83e5313476c1913c2b0516e3581f3c3d7125da83cce039e8a20f68d7329",
          "blockNumber": "0x731f4c",
          "transactionHash": "0xec71d66c1ea20091ad8ff11cd827d17406d352ff33967b0bb99959f78a18ad19",
          "transactionIndex": "0x77",
          "logIndex": "0xcb",
          "removed": false
        },
        {
          "address": "0x8aafd3ede9adb0ff97c7aebce82a919afb1c8764",
          "topics": [
            "0xddf252ad1be2c89b69c2b068fc378daa952ba7f163c4a11628f55a4df523b3ef",
            "0x000000000000000000000000c77f7fed3b5cc8249adc428c5f44c9063b9734b4",
            "0x000000000000000000000000c77f7fed3b5cc8249adc428c5f44c9063b9734b4"
          ],
          "data": "0x000000000000000000000000000000000000000000000000000000000000098b",
          "blockHash": "0xeb7db83e5313476c1913c2b0516e3581f3c3d7125da83cce039e8a20f68d7329",
          "blockNumber": "0x731f4c",
          "transactionHash": "0xec71d66c1ea20091ad8ff11cd827d17406d352ff33967b0bb99959f78a18ad19",
          "transactionIndex": "0x77",
          "logIndex": "0xcc",
          "removed": false
        },
        {
          "address": "0x8aafd3ede9adb0ff97c7aebce82a919afb1c8764",
          "topics": [
            "0x4afcb4a87cdbd9974efdb92ee48bc8d7cd0ae4bf217004db3d080cbaee652ca7"
          ],
          "data": "0x0000000000000000000000000000000000000000000000000000000067907478000000000000000000000000000000000000000000000000001852f6b498eda7000000000000000000000000000000000000000000000000000000000000082b",
          "blockHash": "0xeb7db83e5313476c1913c2b0516e3581f3c3d7125da83cce039e8a20f68d7329",
          "blockNumber": "0x731f4c",
          "transactionHash": "0xec71d66c1ea20091ad8ff11cd827d17406d352ff33967b0bb99959f78a18ad19",
          "transactionIndex": "0x77",
          "logIndex": "0xcd",
          "removed": false
        }
      ],
      "logsBloom": "0x00000000000000000000000000000000000000000600000000000000000000000000000000000000000000000000000000000000000000004000000000000000000000000000004000000008000000000000000000000000000000000000000000000000020000000000000000000800020000000000000000000010000000000000000000000000000000000000000000000000000000000000010000000000000000000000000000000000000000004000000000000000000000000000000000000002000000800000000000000000000000000000080000000000000020000000000000000000000000000000000000000000000000000000000000000000",
      "type": "0x2",
      "transactionHash": "0xec71d66c1ea20091ad8ff11cd827d17406d352ff33967b0bb99959f78a18ad19",
      "transactionIndex": "0x77",
      "blockHash": "0xeb7db83e5313476c1913c2b0516e3581f3c3d7125da83cce039e8a20f68d7329",
      "blockNumber": "0x731f4c",
      "gasUsed": "0xf213",
      "effectiveGasPrice": "0x4367c9a2",
      "from": "0xc77f7fed3b5cc8249adc428c5f44c9063b9734b4",
      "to": "0x8aafd3ede9adb0ff97c7aebce82a919afb1c8764",
      "contractAddress": null
    }
  ],
  "libraries": [],
  "pending": [],
  "returns": {},
  "timestamp": 1737520249,
  "chain": 11155111,
  "commit": "1d2fb70"
}