{
  "transactions": [
    {
      "hash": "0xc4398fda44faea11f10d58f3176a33e559f55a907c12ce90e79f6a311fb58978",
      "transactionType": "CALL",
      "contractName": null,
      "contractAddress": "0xbf4a322f1496e5c3d34a9bcdb4c60567b38c7de2",
      "function": "sell(uint256)",
      "arguments": [
        "983056610201734356076"
      ],
      "transaction": {
        "from": "0xc77f7fed3b5cc8249adc428c5f44c9063b9734b4",
        "to": "0xbf4a322f1496e5c3d34a9bcdb4c60567b38c7de2",
        "gas": "0x16fea",
        "value": "0x0",
        "input": "0xe4849b320000000000000000000000000000000000000000000000354aa6aa8576061c6c",
        "nonce": "0xb35",
        "chainId": "0xaa36a7"
      },
      "additionalContracts": [],
      "isFixedGasLimit": false
    }
  ],
  "receipts": [
    {
      "status": "0x1",
      "cumulativeGasUsed": "0x158f5c3",
      "logs": [
        {
          "address": "0xbf4a322f1496e5c3d34a9bcdb4c60567b38c7de2",
          "topics": [
            "0xddf252ad1be2c89b69c2b068fc378daa952ba7f163c4a11628f55a4df523b3ef",
            "0x000000000000000000000000c77f7fed3b5cc8249adc428c5f44c9063b9734b4",
            "0x0000000000000000000000000000000000000000000000000000000000000000"
          ],
          "data": "0x0000000000000000000000000000000000000000000000354aa6aa8576061c6c",
          "blockHash": "0xdc523fca03f8d30ad8c22094b1b18ff8c275310b20925388831e26c7d6160d13",
          "blockNumber": "0x725b37",
          "transactionHash": "0xc4398fda44faea11f10d58f3176a33e559f55a907c12ce90e79f6a311fb58978",
          "transactionIndex": "0xbf",
          "logIndex": "0x11a",
          "removed": false
        },
        {
          "address": "0xbf4a322f1496e5c3d34a9bcdb4c60567b38c7de2",
          "topics": [
            "0x4afcb4a87cdbd9974efdb92ee48bc8d7cd0ae4bf217004db3d080cbaee652ca7"
          ],
          "data": "0x00000000000000000000000000000000000000000000000000000000678738f0000000000000000000000000000000000000000000000000000396b8d8ecc9e70000000000000000000000000000000000000000000000000dc7e3e92c4a09d0",
          "blockHash": "0xdc523fca03f8d30ad8c22094b1b18ff8c275310b20925388831e26c7d6160d13",
          "blockNumber": "0x725b37",
          "transactionHash": "0xc4398fda44faea11f10d58f3176a33e559f55a907c12ce90e79f6a311fb58978",
          "transactionIndex": "0xbf",
          "logIndex": "0x11b",
          "removed": false
        }
      ],
      "logsBloom": "0x00000000000000000000000000000000000000000000000000000000000000000000000000000000000000000000000000000000000000004000000000000000000000000000000000000008000000000000001000000000000000000000000000000000020000000000000000000800020000000000000000000010000000000000000000000000000000000000000000000000000008000000010000000000000000000000000000000000000000004000000000000000000000000000000000000002000000800000000000001000000000000000080000000000000020000000000000000000000000000000000000000000000000000000000000000000",
      "type": "0x2",
      "transactionHash": "0xc4398fda44faea11f10d58f3176a33e559f55a907c12ce90e79f6a311fb58978",
      "transactionIndex": "0xbf",
      "blockHash": "0xdc523fca03f8d30ad8c22094b1b18ff8c275310b20925388831e26c7d6160d13",
      "blockNumber": "0x725b37",
      "gasUsed": "0xfb91",
      "effectiveGasPrice": "0x482ba44b",
      "from": "0xc77f7fed3b5cc8249adc428c5f44c9063b9734b4",
      "to": "0xbf4a322f1496e5c3d34a9bcdb4c60567b38c7de2",
      "contractAddress": null
    }
  ],
  "libraries": [],
  "pending": [],
  "returns": {},
  "timestamp": 1736915185,
  "chain": 11155111,
  "commit": "51a374b"
}