{
  "transactions": [
    {
      "hash": "0x1493d075ace3ee74cb69fc599b029ae5569dad7af6ca72f9508cb2424190c9c9",
      "transactionType": "CALL",
      "contractName": null,
      "contractAddress": "0x8aafd3ede9adb0ff97c7aebce82a919afb1c8764",
      "function": "sell(uint256)",
      "arguments": [
        "5599088369"
      ],
      "transaction": {
        "from": "0xc77f7fed3b5cc8249adc428c5f44c9063b9734b4",
        "to": "0x8aafd3ede9adb0ff97c7aebce82a919afb1c8764",
        "gas": "0x1722a",
        "value": "0x0",
        "input": "0xe4849b32000000000000000000000000000000000000000000000000000000014dbb4ef1",
        "nonce": "0x163f",
        "chainId": "0xaa36a7"
      },
      "additionalContracts": [],
      "isFixedGasLimit": false
    }
  ],
  "receipts": [
    {
      "status": "0x1",
      "cumulativeGasUsed": "0x44ef97",
      "logs": [
        {
          "address": "0x8aafd3ede9adb0ff97c7aebce82a919afb1c8764",
          "topics": [
            "0xddf252ad1be2c89b69c2b068fc378daa952ba7f163c4a11628f55a4df523b3ef",
            "0x000000000000000000000000c77f7fed3b5cc8249adc428c5f44c9063b9734b4",
            "0x0000000000000000000000000000000000000000000000000000000000000000"
          ],
          "data": "0x000000000000000000000000000000000000000000000000000000014b0fd36f",
          "blockHash": "0x37388e3f62f45670f470a4b4e22a006cbffc4fbcc8d83b44366cd5f44ead1926",
          "blockNumber": "0x731dd8",
          "transactionHash": "0x1493d075ace3ee74cb69fc599b029ae5569dad7af6ca72f9508cb2424190c9c9",
          "transactionIndex": "0x44",
          "logIndex": "0x3d",
          "removed": false
        },
        {
          "address": "0x8aafd3ede9adb0ff97c7aebce82a919afb1c8764",
          "topics": [
            "0xddf252ad1be2c89b69c2b068fc378daa952ba7f163c4a11628f55a4df523b3ef",
            "0x000000000000000000000000c77f7fed3b5cc8249adc428c5f44c9063b9734b4",
            "0x000000000000000000000000c77f7fed3b5cc8249adc428c5f44c9063b9734b4"
          ],
          "data": "0x0000000000000000000000000000000000000000000000000000000002ab7b82",
          "blockHash": "0x37388e3f62f45670f470a4b4e22a006cbffc4fbcc8d83b44366cd5f44ead1926",
          "blockNumber": "0x731dd8",
          "transactionHash": "0x1493d075ace3ee74cb69fc599b029ae5569dad7af6ca72f9508cb2424190c9c9",
          "transactionIndex": "0x44",
          "logIndex": "0x3e",
          "removed": false
        },
        {
          "address": "0x8aafd3ede9adb0ff97c7aebce82a919afb1c8764",
          "topics": [
            "0x4afcb4a87cdbd9974efdb92ee48bc8d7cd0ae4bf217004db3d080cbaee652ca7"
          ],
          "data": "0x00000000000000000000000000000000000000000000000000000000679063080000000000000000000000000000000000000000000000000014c044dfa348620000000000000000000000000000000000000000000000000000000001f304ec",
          "blockHash": "0x37388e3f62f45670f470a4b4e22a006cbffc4fbcc8d83b44366cd5f44ead1926",
          "blockNumber": "0x731dd8",
          "transactionHash": "0x1493d075ace3ee74cb69fc599b029ae5569dad7af6ca72f9508cb2424190c9c9",
          "transactionIndex": "0x44",
          "logIndex": "0x3f",
          "removed": false
        }
      ],
      "logsBloom": "0x00000000000000000000000000000000000000000600000000000000000000000000000000000000000000000000000000000000000000004000000000000000000000000000004000000008000000000000000000000000000000000000000000000000020000000000000000000800020000000000000000000010000000000000000000000000000000000000000000000000000000000000010000000000000000000000000000000000000000004000000000000000000000000000000000000002000000800000000000000000000000000000080000000000000020000000000000000000000000000000000000000000000000000000000000000000",
      "type": "0x2",
      "transactionHash": "0x1493d075ace3ee74cb69fc599b029ae5569dad7af6ca72f9508cb2424190c9c9",
      "transactionIndex": "0x44",
      "blockHash": "0x37388e3f62f45670f470a4b4e22a006cbffc4fbcc8d83b44366cd5f44ead1926",
      "blockNumber": "0x731dd8",
      "gasUsed": "0xfd1b",
      "effectiveGasPrice": "0x50eadaa0",
      "from": "0xc77f7fed3b5cc8249adc428c5f44c9063b9734b4",
      "to": "0x8aafd3ede9adb0ff97c7aebce82a919afb1c8764",
      "contractAddress": null
    }
  ],
  "libraries": [],
  "pending": [],
  "returns": {},
  "timestamp": 1737515785,
  "chain": 11155111,
  "commit": "1d2fb70"
}