{
  "transactions": [
    {
      "hash": "0x716b10503166c22091523a1eb3e76d910c4e0aa6ff8c2072f63edb5792f9740a",
      "transactionType": "CALL",
      "contractName": null,
      "contractAddress": "0x8aafd3ede9adb0ff97c7aebce82a919afb1c8764",
      "function": "sell(uint256)",
      "arguments": [
        "9420473602"
      ],
      "transaction": {
        "from": "0xc77f7fed3b5cc8249adc428c5f44c9063b9734b4",
        "to": "0x8aafd3ede9adb0ff97c7aebce82a919afb1c8764",
        "gas": "0x1722a",
        "value": "0x0",
        "input": "0xe4849b320000000000000000000000000000000000000000000000000000000231810502",
        "nonce": "0x1366",
        "chainId": "0xaa36a7"
      },
      "additionalContracts": [],
      "isFixedGasLimit": false
    }
  ],
  "receipts": [
    {
      "status": "0x1",
      "cumulativeGasUsed": "0x109e6e3",
      "logs": [
        {
          "address": "0x8aafd3ede9adb0ff97c7aebce82a919afb1c8764",
          "topics": [
            "0xddf252ad1be2c89b69c2b068fc378daa952ba7f163c4a11628f55a4df523b3ef",
            "0x000000000000000000000000c77f7fed3b5cc8249adc428c5f44c9063b9734b4",
            "0x0000000000000000000000000000000000000000000000000000000000000000"
          ],
          "data": "0x000000000000000000000000000000000000000000000000000000022d030f36",
          "blockHash": "0x22dfa27a21344b7e284d327896740f725cd239303a95b2f5714790103a1f42ed",
          "blockNumber": "0x731a86",
          "transactionHash": "0x716b10503166c22091523a1eb3e76d910c4e0aa6ff8c2072f63edb5792f9740a",
          "transactionIndex": "0x94",
          "logIndex": "0xa2",
          "removed": false
        },
        {
          "address": "0x8aafd3ede9adb0ff97c7aebce82a919afb1c8764",
          "topics": [
            "0xddf252ad1be2c89b69c2b068fc378daa952ba7f163c4a11628f55a4df523b3ef",
            "0x000000000000000000000000c77f7fed3b5cc8249adc428c5f44c9063b9734b4",
            "0x000000000000000000000000c77f7fed3b5cc8249adc428c5f44c9063b9734b4"
          ],
          "data": "0x00000000000000000000000000000000000000000000000000000000047df5cc",
          "blockHash": "0x22dfa27a21344b7e284d327896740f725cd239303a95b2f5714790103a1f42ed",
          "blockNumber": "0x731a86",
          "transactionHash": "0x716b10503166c22091523a1eb3e76d910c4e0aa6ff8c2072f63edb5792f9740a",
          "transactionIndex": "0x94",
          "logIndex": "0xa3",
          "removed": false
        },
        {
          "address": "0x8aafd3ede9adb0ff97c7aebce82a919afb1c8764",
          "topics": [
            "0x4afcb4a87cdbd9974efdb92ee48bc8d7cd0ae4bf217004db3d080cbaee652ca7"
          ],
          "data": "0x0000000000000000000000000000000000000000000000000000000067903b18000000000000000000000000000000000000000000000000000c5f7b5795fd490000000000000000000000000000000000000000000000000000000001f49e4b",
          "blockHash": "0x22dfa27a21344b7e284d327896740f725cd239303a95b2f5714790103a1f42ed",
          "blockNumber": "0x731a86",
          "transactionHash": "0x716b10503166c22091523a1eb3e76d910c4e0aa6ff8c2072f63edb5792f9740a",
          "transactionIndex": "0x94",
          "logIndex": "0xa4",
          "removed": false
        }
      ],
      "logsBloom": "0x00000000000000000000000000000000000000000600000000000000000000000000000000000000000000000000000000000000000000004000000000000000000000000000004000000008000000000000000000000000000000000000000000000000020000000000000000000800020000000000000000000010000000000000000000000000000000000000000000000000000000000000010000000000000000000000000000000000000000004000000000000000000000000000000000000002000000800000000000000000000000000000080000000000000020000000000000000000000000000000000000000000000000000000000000000000",
      "type": "0x2",
      "transactionHash": "0x716b10503166c22091523a1eb3e76d910c4e0aa6ff8c2072f63edb5792f9740a",
      "transactionIndex": "0x94",
      "blockHash": "0x22dfa27a21344b7e284d327896740f725cd239303a95b2f5714790103a1f42ed",
      "blockNumber": "0x731a86",
      "gasUsed": "0xfd1b",
      "effectiveGasPrice": "0x4cb964b3",
      "from": "0xc77f7fed3b5cc8249adc428c5f44c9063b9734b4",
      "to": "0x8aafd3ede9adb0ff97c7aebce82a919afb1c8764",
      "contractAddress": null
    }
  ],
  "libraries": [],
  "pending": [],
  "returns": {},
  "timestamp": 1737505562,
  "chain": 11155111,
  "commit": "1d2fb70"
}