{
  "transactions": [
    {
      "hash": "0x5869ac1b0fe0b557f1cfba599486b0407adf214553df0b1cc35590349735833f",
      "transactionType": "CALL",
      "contractName": null,
      "contractAddress": "0x5eb9cc76c3506942c1c0ead70e877dd5e4f00cb0",
      "function": "buy(address)",
      "arguments": [
        "0xC77f7fed3b5Cc8249aDc428c5F44C9063B9734b4"
      ],
      "transaction": {
        "from": "0xc77f7fed3b5cc8249adc428c5f44c9063b9734b4",
        "to": "0x5eb9cc76c3506942c1c0ead70e877dd5e4f00cb0",
        "gas": "0x1b30c",
        "value": "0xde0b6b3a7640000",
        "input": "0xf088d547000000000000000000000000c77f7fed3b5cc8249adc428c5f44c9063b9734b4",
        "nonce": "0x3c8",
        "chainId": "0xaa36a7"
      },
      "additionalContracts": [],
      "isFixedGasLimit": false
    }
  ],
  "receipts": [
    {
      "status": "0x1",
      "cumulativeGasUsed": "0xbc4b3c",
      "logs": [
        {
          "address": "0x5eb9cc76c3506942c1c0ead70e877dd5e4f00cb0",
          "topics": [
            "0xddf252ad1be2c89b69c2b068fc378daa952ba7f163c4a11628f55a4df523b3ef",
            "0x0000000000000000000000000000000000000000000000000000000000000000",
            "0x000000000000000000000000c77f7fed3b5cc8249adc428c5f44c9063b9734b4"
          ],
          "data": "0x0000000000000000000000000000000000000000000000357521d416474b27ac",
          "blockHash": "0x7e499af177e3c439126e08f2bbdd4d5f08cbaf5e602b080a302c4994d49f6907",
          "blockNumber": "0x724fc9",
          "transactionHash": "0x5869ac1b0fe0b557f1cfba599486b0407adf214553df0b1cc35590349735833f",
          "transactionIndex": "0x54",
          "logIndex": "0x71",
          "removed": false
        },
        {
          "address": "0x5eb9cc76c3506942c1c0ead70e877dd5e4f00cb0",
          "topics": [
            "0xddf252ad1be2c89b69c2b068fc378daa952ba7f163c4a11628f55a4df523b3ef",
            "0x0000000000000000000000000000000000000000000000000000000000000000",
            "0x000000000000000000000000c77f7fed3b5cc8249adc428c5f44c9063b9734b4"
          ],
          "data": "0x0000000000000000000000000000000000000000000000002982f8cedfc7ca1a",
          "blockHash": "0x7e499af177e3c439126e08f2bbdd4d5f08cbaf5e602b080a302c4994d49f6907",
          "blockNumber": "0x724fc9",
          "transactionHash": "0x5869ac1b0fe0b557f1cfba599486b0407adf214553df0b1cc35590349735833f",
          "transactionIndex": "0x54",
          "logIndex": "0x72",
          "removed": false
        },
        {
          "address": "0x5eb9cc76c3506942c1c0ead70e877dd5e4f00cb0",
          "topics": [
            "0x4afcb4a87cdbd9974efdb92ee48bc8d7cd0ae4bf217004db3d080cbaee652ca7"
          ],
          "data": "0x000000000000000000000000000000000000000000000000000000006786af380000000000000000000000000000000000000000000000000003911350b207a30000000000000000000000000000000000000000000000000de0b6b3a7640000",
          "blockHash": "0x7e499af177e3c439126e08f2bbdd4d5f08cbaf5e602b080a302c4994d49f6907",
          "blockNumber": "0x724fc9",
          "transactionHash": "0x5869ac1b0fe0b557f1cfba599486b0407adf214553df0b1cc35590349735833f",
          "transactionIndex": "0x54",
          "logIndex": "0x73",
          "removed": false
        }
      ],
      "logsBloom": "0x00000000000000000000000000000000000000000000000000000000000000000000000000000000000000000000000000000000000000004000000000000000000000000000000000000008000000000000000000000000000000000000000000000000020000000000000004000800020000000000000000000010000000000000000000000000000000000000000000000000000000000000010000000000000000000000000000000000000000004000000000000000000000000000020000000002000000800000008000000000000000000000080000000000000020000000000000000000000000000000000000000000000000000000000000000000",
      "type": "0x2",
      "transactionHash": "0x5869ac1b0fe0b557f1cfba599486b0407adf214553df0b1cc35590349735833f",
      "transactionIndex": "0x54",
      "blockHash": "0x7e499af177e3c439126e08f2bbdd4d5f08cbaf5e602b080a302c4994d49f6907",
      "blockNumber": "0x724fc9",
      "gasUsed": "0x13af8",
      "effectiveGasPrice": "0x3cbf28574",
      "from": "0xc77f7fed3b5cc8249adc428c5f44c9063b9734b4",
      "to": "0x5eb9cc76c3506942c1c0ead70e877dd5e4f00cb0",
      "contractAddress": null
    }
  ],
  "libraries": [],
  "pending": [],
  "returns": {},
  "timestamp": 1736879929,
  "chain": 11155111,
  "commit": "51a374b"
}