{
  "transactions": [
    {
      "hash": "0x1f65f6997198eef51c56f1c19a9165b460ac06dbfdbd41091b6dc58e10b4c4dc",
      "transactionType": "CALL",
      "contractName": null,
      "contractAddress": "0x5eb9cc76c3506942c1c0ead70e877dd5e4f00cb0",
      "function": "buy(address)",
      "arguments": [
        "0xC77f7fed3b5Cc8249aDc428c5F44C9063B9734b4"
      ],
      "transaction": {
        "from": "0xc77f7fed3b5cc8249adc428c5f44c9063b9734b4",
        "to": "0x5eb9cc76c3506942c1c0ead70e877dd5e4f00cb0",
        "gas": "0x156c8",
        "value": "0xde0b6b3a7640000",
        "input": "0xf088d547000000000000000000000000c77f7fed3b5cc8249adc428c5f44c9063b9734b4",
        "nonce": "0x1da",
        "chainId": "0xaa36a7"
      },
      "additionalContracts": [],
      "isFixedGasLimit": false
    }
  ],
  "receipts": [
    {
      "status": "0x1",
      "cumulativeGasUsed": "0x15c77ad",
      "logs": [
        {
          "address": "0x5eb9cc76c3506942c1c0ead70e877dd5e4f00cb0",
          "topics": [
            "0xddf252ad1be2c89b69c2b068fc378daa952ba7f163c4a11628f55a4df523b3ef",
            "0x0000000000000000000000000000000000000000000000000000000000000000",
            "0x000000000000000000000000c77f7fed3b5cc8249adc428c5f44c9063b9734b4"
          ],
          "data": "0x000000000000000000000000000000000000000000000035a3616766180c12b2",
          "blockHash": "0xdd105b02e1afb9f384684da91b0a3084dd2199a7a3607be9169f72b2905a4df7",
          "blockNumber": "0x723ccc",
          "transactionHash": "0x1f65f6997198eef51c56f1c19a9165b460ac06dbfdbd41091b6dc58e10b4c4dc",
          "transactionIndex": "0xbf",
          "logIndex": "0x124",
          "removed": false
        },
        {
          "address": "0x5eb9cc76c3506942c1c0ead70e877dd5e4f00cb0",
          "topics": [
            "0xddf252ad1be2c89b69c2b068fc378daa952ba7f163c4a11628f55a4df523b3ef",
            "0x0000000000000000000000000000000000000000000000000000000000000000",
            "0x000000000000000000000000c77f7fed3b5cc8249adc428c5f44c9063b9734b4"
          ],
          "data": "0x00000000000000000000000000000000000000000000000029a6e2a46c22ab87",
          "blockHash": "0xdd105b02e1afb9f384684da91b0a3084dd2199a7a3607be9169f72b2905a4df7",
          "blockNumber": "0x723ccc",
          "transactionHash": "0x1f65f6997198eef51c56f1c19a9165b460ac06dbfdbd41091b6dc58e10b4c4dc",
          "transactionIndex": "0xbf",
          "logIndex": "0x125",
          "removed": false
        },
        {
          "address": "0x5eb9cc76c3506942c1c0ead70e877dd5e4f00cb0",
          "topics": [
            "0x4afcb4a87cdbd9974efdb92ee48bc8d7cd0ae4bf217004db3d080cbaee652ca7"
          ],
          "data": "0x000000000000000000000000000000000000000000000000000000006785cae400000000000000000000000000000000000000000000000000038e000951a2a80000000000000000000000000000000000000000000000000de0b6b3a7640000",
          "blockHash": "0xdd105b02e1afb9f384684da91b0a3084dd2199a7a3607be9169f72b2905a4df7",
          "blockNumber": "0x723ccc",
          "transactionHash": "0x1f65f6997198eef51c56f1c19a9165b460ac06dbfdbd41091b6dc58e10b4c4dc",
          "transactionIndex": "0xbf",
          "logIndex": "0x126",
          "removed": false
        }
      ],
      "logsBloom": "0x00000000000000000000000000000000000000000000000000000000000000000000000000000000000000000000000000000000000000004000000000000000000000000000000000000008000000000000000000000000000000000000000000000000020000000000000004000800020000000000000000000010000000000000000000000000000000000000000000000000000000000000010000000000000000000000000000000000000000004000000000000000000000000000020000000002000000800000008000000000000000000000080000000000000020000000000000000000000000000000000000000000000000000000000000000000",
      "type": "0x2",
      "transactionHash": "0x1f65f6997198eef51c56f1c19a9165b460ac06dbfdbd41091b6dc58e10b4c4dc",
      "transactionIndex": "0xbf",
      "blockHash": "0xdd105b02e1afb9f384684da91b0a3084dd2199a7a3607be9169f72b2905a4df7",
      "blockNumber": "0x723ccc",
      "gasUsed": "0xf82c",
      "effectiveGasPrice": "0x1d1cf7779",
      "from": "0xc77f7fed3b5cc8249adc428c5f44c9063b9734b4",
      "to": "0x5eb9cc76c3506942c1c0ead70e877dd5e4f00cb0",
      "contractAddress": null
    }
  ],
  "libraries": [],
  "pending": [],
  "returns": {},
  "timestamp": 1736821479,
  "chain": 11155111,
  "commit": "51a374b"
}