{
  "transactions": [
    {
      "hash": "0xf1cf19026d08e7d3c66078f790cbf7a211babf7a2d55774bd803340dfea3fe1e",
      "transactionType": "CALL",
      "contractName": null,
      "contractAddress": "0x5eb9cc76c3506942c1c0ead70e877dd5e4f00cb0",
      "function": "buy(address)",
      "arguments": [
        "0xC77f7fed3b5Cc8249aDc428c5F44C9063B9734b4"
      ],
      "transaction": {
        "from": "0xc77f7fed3b5cc8249adc428c5f44c9063b9734b4",
        "to": "0x5eb9cc76c3506942c1c0ead70e877dd5e4f00cb0",
        "gas": "0x156c8",
        "value": "0xde0b6b3a7640000",
        "input": "0xf088d547000000000000000000000000c77f7fed3b5cc8249adc428c5f44c9063b9734b4",
        "nonce": "0x189",
        "chainId": "0xaa36a7"
      },
      "additionalContracts": [],
      "isFixedGasLimit": false
    }
  ],
  "receipts": [
    {
      "status": "0x1",
      "cumulativeGasUsed": "0xfacd19",
      "logs": [
        {
          "address": "0x5eb9cc76c3506942c1c0ead70e877dd5e4f00cb0",
          "topics": [
            "0xddf252ad1be2c89b69c2b068fc378daa952ba7f163c4a11628f55a4df523b3ef",
            "0x0000000000000000000000000000000000000000000000000000000000000000",
            "0x000000000000000000000000c77f7fed3b5cc8249adc428c5f44c9063b9734b4"
          ],
          "data": "0x000000000000000000000000000000000000000000000035a3829090863848ad",
          "blockHash": "0x03b30fa305ee3ca39ce40195158079f8442ac240be861b01465fdb0e3f0205f0",
          "blockNumber": "0x723c6d",
          "transactionHash": "0xf1cf19026d08e7d3c66078f790cbf7a211babf7a2d55774bd803340dfea3fe1e",
          "transactionIndex": "0x65",
          "logIndex": "0x112",
          "removed": false
        },
        {
          "address": "0x5eb9cc76c3506942c1c0ead70e877dd5e4f00cb0",
          "topics": [
            "0xddf252ad1be2c89b69c2b068fc378daa952ba7f163c4a11628f55a4df523b3ef",
            "0x0000000000000000000000000000000000000000000000000000000000000000",
            "0x000000000000000000000000c77f7fed3b5cc8249adc428c5f44c9063b9734b4"
          ],
          "data": "0x00000000000000000000000000000000000000000000000029a6fc648c964a51",
          "blockHash": "0x03b30fa305ee3ca39ce40195158079f8442ac240be861b01465fdb0e3f0205f0",
          "blockNumber": "0x723c6d",
          "transactionHash": "0xf1cf19026d08e7d3c66078f790cbf7a211babf7a2d55774bd803340dfea3fe1e",
          "transactionIndex": "0x65",
          "logIndex": "0x113",
          "removed": false
        },
        {
          "address": "0x5eb9cc76c3506942c1c0ead70e877dd5e4f00cb0",
          "topics": [
            "0x4afcb4a87cdbd9974efdb92ee48bc8d7cd0ae4bf217004db3d080cbaee652ca7"
          ],
          "data": "0x000000000000000000000000000000000000000000000000000000006785c67000000000000000000000000000000000000000000000000000038dfdd6be43840000000000000000000000000000000000000000000000000de0b6b3a7640000",
          "blockHash": "0x03b30fa305ee3ca39ce40195158079f8442ac240be861b01465fdb0e3f0205f0",
          "blockNumber": "0x723c6d",
          "transactionHash": "0xf1cf19026d08e7d3c66078f790cbf7a211babf7a2d55774bd803340dfea3fe1e",
          "transactionIndex": "0x65",
          "logIndex": "0x114",
          "removed": false
        }
      ],
      "logsBloom": "0x00000000000000000000000000000000000000000000000000000000000000000000000000000000000000000000000000000000000000004000000000000000000000000000000000000008000000000000000000000000000000000000000000000000020000000000000004000800020000000000000000000010000000000000000000000000000000000000000000000000000000000000010000000000000000000000000000000000000000004000000000000000000000000000020000000002000000800000008000000000000000000000080000000000000020000000000000000000000000000000000000000000000000000000000000000000",
      "type": "0x2",
      "transactionHash": "0xf1cf19026d08e7d3c66078f790cbf7a211babf7a2d55774bd803340dfea3fe1e",
      "transactionIndex": "0x65",
      "blockHash": "0x03b30fa305ee3ca39ce40195158079f8442ac240be861b01465fdb0e3f0205f0",
      "blockNumber": "0x723c6d",
      "gasUsed": "0xf82c",
      "effectiveGasPrice": "0x16fc54e04",
      "from": "0xc77f7fed3b5cc8249adc428c5f44c9063b9734b4",
      "to": "0x5eb9cc76c3506942c1c0ead70e877dd5e4f00cb0",
      "contractAddress": null
    }
  ],
  "libraries": [],
  "pending": [],
  "returns": {},
  "timestamp": 1736820338,
  "chain": 11155111,
  "commit": "51a374b"
}