{
  "transactions": [
    {
      "hash": "0xf77177028569bea6a80f0761cee5ae597a19d09296654a74235e3ce0a60f4cd0",
      "transactionType": "CALL",
      "contractName": null,
      "contractAddress": "0x5eb9cc76c3506942c1c0ead70e877dd5e4f00cb0",
      "function": "buy(address)",
      "arguments": [
        "0xC77f7fed3b5Cc8249aDc428c5F44C9063B9734b4"
      ],
      "transaction": {
        "from": "0xc77f7fed3b5cc8249adc428c5f44c9063b9734b4",
        "to": "0x5eb9cc76c3506942c1c0ead70e877dd5e4f00cb0",
        "gas": "0x1b30c",
        "value": "0xde0b6b3a7640000",
        "input": "0xf088d547000000000000000000000000c77f7fed3b5cc8249adc428c5f44c9063b9734b4",
        "nonce": "0x3d0",
        "chainId": "0xaa36a7"
      },
      "additionalContracts": [],
      "isFixedGasLimit": false
    }
  ],
  "receipts": [
    {
      "status": "0x1",
      "cumulativeGasUsed": "0x127a5a2",
      "logs": [
        {
          "address": "0x5eb9cc76c3506942c1c0ead70e877dd5e4f00cb0",
          "topics": [
            "0xddf252ad1be2c89b69c2b068fc378daa952ba7f163c4a11628f55a4df523b3ef",
            "0x0000000000000000000000000000000000000000000000000000000000000000",
            "0x000000000000000000000000c77f7fed3b5cc8249adc428c5f44c9063b9734b4"
          ],
          "data": "0x000000000000000000000000000000000000000000000035751d502039a029b1",
          "blockHash": "0x577071d87d9b799037462aecddc5209c14e072d16c5df093bb984e5ca555410b",
          "blockNumber": "0x724fd3",
          "transactionHash": "0xf77177028569bea6a80f0761cee5ae597a19d09296654a74235e3ce0a60f4cd0",
          "transactionIndex": "0x88",
          "logIndex": "0x107",
          "removed": false
        },
        {
          "address": "0x5eb9cc76c3506942c1c0ead70e877dd5e4f00cb0",
          "topics": [
            "0xddf252ad1be2c89b69c2b068fc378daa952ba7f163c4a11628f55a4df523b3ef",
            "0x0000000000000000000000000000000000000000000000000000000000000000",
            "0x000000000000000000000000c77f7fed3b5cc8249adc428c5f44c9063b9734b4"
          ],
          "data": "0x0000000000000000000000000000000000000000000000002982f54d3b1b20f3",
          "blockHash": "0x577071d87d9b799037462aecddc5209c14e072d16c5df093bb984e5ca555410b",
          "blockNumber": "0x724fd3",
          "transactionHash": "0xf77177028569bea6a80f0761cee5ae597a19d09296654a74235e3ce0a60f4cd0",
          "transactionIndex": "0x88",
          "logIndex": "0x108",
          "removed": false
        },
        {
          "address": "0x5eb9cc76c3506942c1c0ead70e877dd5e4f00cb0",
          "topics": [
            "0x4afcb4a87cdbd9974efdb92ee48bc8d7cd0ae4bf217004db3d080cbaee652ca7"
          ],
          "data": "0x000000000000000000000000000000000000000000000000000000006786afb0000000000000000000000000000000000000000000000000000391139dd250420000000000000000000000000000000000000000000000000de0b6b3a7640000",
          "blockHash": "0x577071d87d9b799037462aecddc5209c14e072d16c5df093bb984e5ca555410b",
          "blockNumber": "0x724fd3",
          "transactionHash": "0xf77177028569bea6a80f0761cee5ae597a19d09296654a74235e3ce0a60f4cd0",
          "transactionIndex": "0x88",
          "logIndex": "0x109",
          "removed": false
        }
      ],
      "logsBloom": "0x00000000000000000000000000000000000000000000000000000000000000000000000000000000000000000000000000000000000000004000000000000000000000000000000000000008000000000000000000000000000000000000000000000000020000000000000004000800020000000000000000000010000000000000000000000000000000000000000000000000000000000000010000000000000000000000000000000000000000004000000000000000000000000000020000000002000000800000008000000000000000000000080000000000000020000000000000000000000000000000000000000000000000000000000000000000",
      "type": "0x2",
      "transactionHash": "0xf77177028569bea6a80f0761cee5ae597a19d09296654a74235e3ce0a60f4cd0",
      "transactionIndex": "0x88",
      "blockHash": "0x577071d87d9b799037462aecddc5209c14e072d16c5df093bb984e5ca555410b",
      "blockNumber": "0x724fd3",
      "gasUsed": "0x13af8",
      "effectiveGasPrice": "0x3b45ae6d6",
      "from": "0xc77f7fed3b5cc8249adc428c5f44c9063b9734b4",
      "to": "0x5eb9cc76c3506942c1c0ead70e877dd5e4f00cb0",
      "contractAddress": null
    }
  ],
  "libraries": [],
  "pending": [],
  "returns": {},
  "timestamp": 1736880050,
  "chain": 11155111,
  "commit": "51a374b"
}