{
  "transactions": [
    {
      "hash": "0x3ed8f7ee5452d22d9f9111ba0012691a48e799628b1d9f325e2ab131a2fbe50a",
      "transactionType": "CALL",
      "contractName": null,
      "contractAddress": "0x270e88f8683660553e8ba4eb2ad7c91a1710d769",
      "function": "sell(uint256)",
      "arguments": [
        "720392429488496317243"
      ],
      "transaction": {
        "from": "0xc77f7fed3b5cc8249adc428c5f44c9063b9734b4",
        "to": "0x270e88f8683660553e8ba4eb2ad7c91a1710d769",
        "gas": "0x16fec",
        "value": "0x0",
        "input": "0xe4849b320000000000000000000000000000000000000000000000270d7409d12e76133b",
        "nonce": "0x81e",
        "chainId": "0xaa36a7"
      },
      "additionalContracts": [],
      "isFixedGasLimit": false
    }
  ],
  "receipts": [
    {
      "status": "0x1",
      "cumulativeGasUsed": "0x73ee7e",
      "logs": [
        {
          "address": "0x270e88f8683660553e8ba4eb2ad7c91a1710d769",
          "topics": [
            "0xddf252ad1be2c89b69c2b068fc378daa952ba7f163c4a11628f55a4df523b3ef",
            "0x000000000000000000000000c77f7fed3b5cc8249adc428c5f44c9063b9734b4",
            "0x0000000000000000000000000000000000000000000000000000000000000000"
          ],
          "data": "0x0000000000000000000000000000000000000000000000270d7409d12e76133b",
          "blockHash": "0x4c0ac8b1e54c8e8378401484ff8eefe7599c68c1635596247d3948cdd58193c8",
          "blockNumber": "0x725563",
          "transactionHash": "0x3ed8f7ee5452d22d9f9111ba0012691a48e799628b1d9f325e2ab131a2fbe50a",
          "transactionIndex": "0x3a",
          "logIndex": "0x55",
          "removed": false
        },
        {
          "address": "0x270e88f8683660553e8ba4eb2ad7c91a1710d769",
          "topics": [
            "0x4afcb4a87cdbd9974efdb92ee48bc8d7cd0ae4bf217004db3d080cbaee652ca7"
          ],
          "data": "0x000000000000000000000000000000000000000000000000000000006786f2ac0000000000000000000000000000000000000000000000000004e5f54f6190370000000000000000000000000000000000000000000000000dc8267850f6d2c1",
          "blockHash": "0x4c0ac8b1e54c8e8378401484ff8eefe7599c68c1635596247d3948cdd58193c8",
          "blockNumber": "0x725563",
          "transactionHash": "0x3ed8f7ee5452d22d9f9111ba0012691a48e799628b1d9f325e2ab131a2fbe50a",
          "transactionIndex": "0x3a",
          "logIndex": "0x56",
          "removed": false
        }
      ],
      "logsBloom": "0x00000000000000000000000000000000000000000000000000000000000000000000000000000000000000000000000020000000000000004000000000000000000000000000000000000008000000000000000000000000000000000000000000000000020000000000000000000800020000000000000000000010000000000000000000010000000000000000000000000000000000000000010000000000000000000000000000000000000000004000000000000000000000000000000000000002000000800000000000000000000000000000080000008000000020000000000000000000000000000000000000000000000000000000000000000000",
      "type": "0x2",
      "transactionHash": "0x3ed8f7ee5452d22d9f9111ba0012691a48e799628b1d9f325e2ab131a2fbe50a",
      "transactionIndex": "0x3a",
      "blockHash": "0x4c0ac8b1e54c8e8378401484ff8eefe7599c68c1635596247d3948cdd58193c8",
      "blockNumber": "0x725563",
      "gasUsed": "0xfb93",
      "effectiveGasPrice": "0x81f14c7a",
      "from": "0xc77f7fed3b5cc8249adc428c5f44c9063b9734b4",
      "to": "0x270e88f8683660553e8ba4eb2ad7c91a1710d769",
      "contractAddress": null
    }
  ],
  "libraries": [],
  "pending": [],
  "returns": {},
  "timestamp": 1736897198,
  "chain": 11155111,
  "commit": "51a374b"
}