{
  "transactions": [
    {
      "hash": "0x72fee62586b05fc258d92c68a763dc2a8273621a78b65349a74b9cfca6d0cd1a",
      "transactionType": "CALL",
      "contractName": null,
      "contractAddress": "0xbf4a322f1496e5c3d34a9bcdb4c60567b38c7de2",
      "function": "sell(uint256)",
      "arguments": [
        "979905304067616873353"
      ],
      "transaction": {
        "from": "0xc77f7fed3b5cc8249adc428c5f44c9063b9734b4",
        "to": "0xbf4a322f1496e5c3d34a9bcdb4c60567b38c7de2",
        "gas": "0x16fea",
        "value": "0x0",
        "input": "0xe4849b320000000000000000000000000000000000000000000000351eeafa49e7711b89",
        "nonce": "0xc1f",
        "chainId": "0xaa36a7"
      },
      "additionalContracts": [],
      "isFixedGasLimit": false
    }
  ],
  "receipts": [
    {
      "status": "0x1",
      "cumulativeGasUsed": "0x1aa89d2",
      "logs": [
        {
          "address": "0xbf4a322f1496e5c3d34a9bcdb4c60567b38c7de2",
          "topics": [
            "0xddf252ad1be2c89b69c2b068fc378daa952ba7f163c4a11628f55a4df523b3ef",
            "0x000000000000000000000000c77f7fed3b5cc8249adc428c5f44c9063b9734b4",
            "0x0000000000000000000000000000000000000000000000000000000000000000"
          ],
          "data": "0x0000000000000000000000000000000000000000000000351eeafa49e7711b89",
          "blockHash": "0x38c05b4c7498fc44ad1d2b7e1046fc76f2596e51864aaae66a64241969033c62",
          "blockNumber": "0x725c4d",
          "transactionHash": "0x72fee62586b05fc258d92c68a763dc2a8273621a78b65349a74b9cfca6d0cd1a",
          "transactionIndex": "0xbf",
          "logIndex": "0x145",
          "removed": false
        },
        {
          "address": "0xbf4a322f1496e5c3d34a9bcdb4c60567b38c7de2",
          "topics": [
            "0x4afcb4a87cdbd9974efdb92ee48bc8d7cd0ae4bf217004db3d080cbaee652ca7"
          ],
          "data": "0x00000000000000000000000000000000000000000000000000000000678745f8000000000000000000000000000000000000000000000000000399ad30ad2e2c0000000000000000000000000000000000000000000000000dc7e3e1d89d3658",
          "blockHash": "0x38c05b4c7498fc44ad1d2b7e1046fc76f2596e51864aaae66a64241969033c62",
          "blockNumber": "0x725c4d",
          "transactionHash": "0x72fee62586b05fc258d92c68a763dc2a8273621a78b65349a74b9cfca6d0cd1a",
          "transactionIndex": "0xbf",
          "logIndex": "0x146",
          "removed": false
        }
      ],
      "logsBloom": "0x00000000000000000000000000000000000000000000000000000000000000000000000000000000000000000000000000000000000000004000000000000000000000000000000000000008000000000000001000000000000000000000000000000000020000000000000000000800020000000000000000000010000000000000000000000000000000000000000000000000000008000000010000000000000000000000000000000000000000004000000000000000000000000000000000000002000000800000000000001000000000000000080000000000000020000000000000000000000000000000000000000000000000000000000000000000",
      "type": "0x2",
      "transactionHash": "0x72fee62586b05fc258d92c68a763dc2a8273621a78b65349a74b9cfca6d0cd1a",
      "transactionIndex": "0xbf",
      "blockHash": "0x38c05b4c7498fc44ad1d2b7e1046fc76f2596e51864aaae66a64241969033c62",
      "blockNumber": "0x725c4d",
      "gasUsed": "0xfb91",
      "effectiveGasPrice": "0x12a7d73ca",
      "from": "0xc77f7fed3b5cc8249adc428c5f44c9063b9734b4",
      "to": "0xbf4a322f1496e5c3d34a9bcdb4c60567b38c7de2",
      "contractAddress": null
    }
  ],
  "libraries": [],
  "pending": [],
  "returns": {},
  "timestamp": 1736918521,
  "chain": 11155111,
  "commit": "51a374b"
}