{
  "transactions": [
    {
      "hash": "0x3a99fb9a53a05622a646e3f6337e2c2a5b5c68016c2529fd0037b518a46e6a29",
      "transactionType": "CALL",
      "contractName": null,
      "contractAddress": "0x270e88f8683660553e8ba4eb2ad7c91a1710d769",
      "function": "sell(uint256)",
      "arguments": [
        "960560013210814628298"
      ],
      "transaction": {
        "from": "0xc77f7fed3b5cc8249adc428c5f44c9063b9734b4",
        "to": "0x270e88f8683660553e8ba4eb2ad7c91a1710d769",
        "gas": "0x16fec",
        "value": "0x0",
        "input": "0xe4849b320000000000000000000000000000000000000000000000341272b2c00b21c1ca",
        "nonce": "0x5a7",
        "chainId": "0xaa36a7"
      },
      "additionalContracts": [],
      "isFixedGasLimit": false
    }
  ],
  "receipts": [
    {
      "status": "0x1",
      "cumulativeGasUsed": "0x83b6ea",
      "logs": [
        {
          "address": "0x270e88f8683660553e8ba4eb2ad7c91a1710d769",
          "topics": [
            "0xddf252ad1be2c89b69c2b068fc378daa952ba7f163c4a11628f55a4df523b3ef",
            "0x000000000000000000000000c77f7fed3b5cc8249adc428c5f44c9063b9734b4",
            "0x0000000000000000000000000000000000000000000000000000000000000000"
          ],
          "data": "0x0000000000000000000000000000000000000000000000341272b2c00b21c1ca",
          "blockHash": "0xcbc985f71e154bb48eb1aaa6d0f00e66b1f9bcb8b437abd43647284cae548c5e",
          "blockNumber": "0x725261",
          "transactionHash": "0x3a99fb9a53a05622a646e3f6337e2c2a5b5c68016c2529fd0037b518a46e6a29",
          "transactionIndex": "0x4c",
          "logIndex": "0xaf",
          "removed": false
        },
        {
          "address": "0x270e88f8683660553e8ba4eb2ad7c91a1710d769",
          "topics": [
            "0x4afcb4a87cdbd9974efdb92ee48bc8d7cd0ae4bf217004db3d080cbaee652ca7"
          ],
          "data": "0x000000000000000000000000000000000000000000000000000000006786ce7c0000000000000000000000000000000000000000000000000003ac8169cfc45c0000000000000000000000000000000000000000000000000dc83f3e6dc98c98",
          "blockHash": "0xcbc985f71e154bb48eb1aaa6d0f00e66b1f9bcb8b437abd43647284cae548c5e",
          "blockNumber": "0x725261",
          "transactionHash": "0x3a99fb9a53a05622a646e3f6337e2c2a5b5c68016c2529fd0037b518a46e6a29",
          "transactionIndex": "0x4c",
          "logIndex": "0xb0",
          "removed": false
        }
      ],
      "logsBloom": "0x00000000000000000000000000000000000000000000000000000000000000000000000000000000000000000000000020000000000000004000000000000000000000000000000000000008000000000000000000000000000000000000000000000000020000000000000000000800020000000000000000000010000000000000000000010000000000000000000000000000000000000000010000000000000000000000000000000000000000004000000000000000000000000000000000000002000000800000000000000000000000000000080000008000000020000000000000000000000000000000000000000000000000000000000000000000",
      "type": "0x2",
      "transactionHash": "0x3a99fb9a53a05622a646e3f6337e2c2a5b5c68016c2529fd0037b518a46e6a29",
      "transactionIndex": "0x4c",
      "blockHash": "0xcbc985f71e154bb48eb1aaa6d0f00e66b1f9bcb8b437abd43647284cae548c5e",
      "blockNumber": "0x725261",
      "gasUsed": "0xfb93",
      "effectiveGasPrice": "0x4e6451bef",
      "from": "0xc77f7fed3b5cc8249adc428c5f44c9063b9734b4",
      "to": "0x270e88f8683660553e8ba4eb2ad7c91a1710d769",
      "contractAddress": null
    }
  ],
  "libraries": [],
  "pending": [],
  "returns": {},
  "timestamp": 1736887933,
  "chain": 11155111,
  "commit": "51a374b"
}