{
  "transactions": [
    {
      "hash": "0x3a53cc0a29e7c5b8a416179809a2983317ede3f9d7f94a87ce47c381ac341d8d",
      "transactionType": "CALL",
      "contractName": null,
      "contractAddress": "0xbf4a322f1496e5c3d34a9bcdb4c60567b38c7de2",
      "function": "buy(address)",
      "arguments": [
        "0xC77f7fed3b5Cc8249aDc428c5F44C9063B9734b4"
      ],
      "transaction": {
        "from": "0xc77f7fed3b5cc8249adc428c5f44c9063b9734b4",
        "to": "0xbf4a322f1496e5c3d34a9bcdb4c60567b38c7de2",
        "gas": "0x1b309",
        "value": "0xde0b6b3a7640000",
        "input": "0xf088d547000000000000000000000000c77f7fed3b5cc8249adc428c5f44c9063b9734b4",
        "nonce": "0xb68",
        "chainId": "0xaa36a7"
      },
      "additionalContracts": [],
      "isFixedGasLimit": false
    }
  ],
  "receipts": [
    {
      "status": "0x1",
      "cumulativeGasUsed": "0xe2585d",
      "logs": [
        {
          "address": "0xbf4a322f1496e5c3d34a9bcdb4c60567b38c7de2",
          "topics": [
            "0xddf252ad1be2c89b69c2b068fc378daa952ba7f163c4a11628f55a4df523b3ef",
            "0x0000000000000000000000000000000000000000000000000000000000000000",
            "0x000000000000000000000000c77f7fed3b5cc8249adc428c5f44c9063b9734b4"
          ],
          "data": "0x00000000000000000000000000000000000000000000003517ae1d76dda7cdca",
          "blockHash": "0x78fa2ad4a6d825583f2006c4bec6ed224cf6478955bac72abf9eb7ab7b58e288",
          "blockNumber": "0x725b73",
          "transactionHash": "0x3a53cc0a29e7c5b8a416179809a2983317ede3f9d7f94a87ce47c381ac341d8d",
          "transactionIndex": "0x81",
          "logIndex": "0xc4",
          "removed": false
        },
        {
          "address": "0xbf4a322f1496e5c3d34a9bcdb4c60567b38c7de2",
          "topics": [
            "0xddf252ad1be2c89b69c2b068fc378daa952ba7f163c4a11628f55a4df523b3ef",
            "0x0000000000000000000000000000000000000000000000000000000000000000",
            "0x000000000000000000000000c77f7fed3b5cc8249adc428c5f44c9063b9734b4"
          ],
          "data": "0x000000000000000000000000000000000000000000000000293a673a87ddf00d",
          "blockHash": "0x78fa2ad4a6d825583f2006c4bec6ed224cf6478955bac72abf9eb7ab7b58e288",
          "blockNumber": "0x725b73",
          "transactionHash": "0x3a53cc0a29e7c5b8a416179809a2983317ede3f9d7f94a87ce47c381ac341d8d",
          "transactionIndex": "0x81",
          "logIndex": "0xc5",
          "removed": false
        },
        {
          "address": "0xbf4a322f1496e5c3d34a9bcdb4c60567b38c7de2",
          "topics": [
            "0x4afcb4a87cdbd9974efdb92ee48bc8d7cd0ae4bf217004db3d080cbaee652ca7"
          ],
          "data": "0x0000000000000000000000000000000000000000000000000000000067873bc00000000000000000000000000000000000000000000000000003975cc9894b650000000000000000000000000000000000000000000000000de0b6b3a7640000",
          "blockHash": "0x78fa2ad4a6d825583f2006c4bec6ed224cf6478955bac72abf9eb7ab7b58e288",
          "blockNumber": "0x725b73",
          "transactionHash": "0x3a53cc0a29e7c5b8a416179809a2983317ede3f9d7f94a87ce47c381ac341d8d",
          "transactionIndex": "0x81",
          "logIndex": "0xc6",
          "removed": false
        }
      ],
      "logsBloom": "0x00000000000000000000000000000000000000000000000000000000000000000000000000000000000000000000000000000000000000004000000000000000000000000000000000000008000000000000001000000000000000000000000000000000020000000000000000000800020000000000000000000010000000000000000000000000000000000000000000000000000008000000010000000000000000000000000000000000000000004000000000000000000000000000000000000002000000800000000000001000000000000000080000000000000020000000000000000000000000000000000000000000000000000000000000000000",
      "type": "0x2",
      "transactionHash": "0x3a53cc0a29e7c5b8a416179809a2983317ede3f9d7f94a87ce47c381ac341d8d",
      "transactionIndex": "0x81",
      "blockHash": "0x78fa2ad4a6d825583f2006c4bec6ed224cf6478955bac72abf9eb7ab7b58e288",
      "blockNumber": "0x725b73",
      "gasUsed": "0x13af6",
      "effectiveGasPrice": "0x3d2ce993",
      "from": "0xc77f7fed3b5cc8249adc428c5f44c9063b9734b4",
      "to": "0xbf4a322f1496e5c3d34a9bcdb4c60567b38c7de2",
      "contractAddress": null
    }
  ],
  "libraries": [],
  "pending": [],
  "returns": {},
  "timestamp": 1736915906,
  "chain": 11155111,
  "commit": "51a374b"
}