{
  "transactions": [
    {
      "hash": "0xd156752cf5044cae8b00cca53c69a4d785aaf0dd871af66a78561f62bcfe3358",
      "transactionType": "CALL",
      "contractName": null,
      "contractAddress": "0x8aafd3ede9adb0ff97c7aebce82a919afb1c8764",
      "function": "sell(uint256)",
      "arguments": [
        "3059661884776"
      ],
      "transaction": {
        "from": "0xc77f7fed3b5cc8249adc428c5f44c9063b9734b4",
        "to": "0x8aafd3ede9adb0ff97c7aebce82a919afb1c8764",
        "gas": "0x15daa",
        "value": "0x0",
        "input": "0xe4849b32000000000000000000000000000000000000000000000000000002c8620f4d68",
        "nonce": "0xed2",
        "chainId": "0xaa36a7"
      },
      "additionalContracts": [],
      "isFixedGasLimit": false
    }
  ],
  "receipts": [
    {
      "status": "0x1",
      "cumulativeGasUsed": "0x11779eb",
      "logs": [
        {
          "address": "0x8aafd3ede9adb0ff97c7aebce82a919afb1c8764",
          "topics": [
            "0xddf252ad1be2c89b69c2b068fc378daa952ba7f163c4a11628f55a4df523b3ef",
            "0x000000000000000000000000c77f7fed3b5cc8249adc428c5f44c9063b9734b4",
            "0x0000000000000000000000000000000000000000000000000000000000000000"
          ],
          "data": "0x000000000000000000000000000000000000000000000000000002c2af196b82",
          "blockHash": "0x40171c6ce0b94aa5504b59e76067ce74bcea386e76086945812b85458bb769a5",
          "blockNumber": "0x73143e",
          "transactionHash": "0xd156752cf5044cae8b00cca53c69a4d785aaf0dd871af66a78561f62bcfe3358",
          "transactionIndex": "0xa0",
          "logIndex": "0xf8",
          "removed": false
        },
        {
          "address": "0x8aafd3ede9adb0ff97c7aebce82a919afb1c8764",
          "topics": [
            "0xddf252ad1be2c89b69c2b068fc378daa952ba7f163c4a11628f55a4df523b3ef",
            "0x000000000000000000000000c77f7fed3b5cc8249adc428c5f44c9063b9734b4",
            "0x000000000000000000000000c77f7fed3b5cc8249adc428c5f44c9063b9734b4"
          ],
          "data": "0x00000000000000000000000000000000000000000000000000000005b2f5e1e6",
          "blockHash": "0x40171c6ce0b94aa5504b59e76067ce74bcea386e76086945812b85458bb769a5",
          "blockNumber": "0x73143e",
          "transactionHash": "0xd156752cf5044cae8b00cca53c69a4d785aaf0dd871af66a78561f62bcfe3358",
          "transactionIndex": "0xa0",
          "logIndex": "0xf9",
          "removed": false
        },
        {
          "address": "0x8aafd3ede9adb0ff97c7aebce82a919afb1c8764",
          "topics": [
            "0x4afcb4a87cdbd9974efdb92ee48bc8d7cd0ae4bf217004db3d080cbaee652ca7"
          ],
          "data": "0x00000000000000000000000000000000000000000000000000000000678fef940000000000000000000000000000000000000000000000000004b97238bfd84700000000000000000000000000000000000000000000000000000000f28406e7",
          "blockHash": "0x40171c6ce0b94aa5504b59e76067ce74bcea386e76086945812b85458bb769a5",
          "blockNumber": "0x73143e",
          "transactionHash": "0xd156752cf5044cae8b00cca53c69a4d785aaf0dd871af66a78561f62bcfe3358",
          "transactionIndex": "0xa0",
          "logIndex": "0xfa",
          "removed": false
        }
      ],
      "logsBloom": "0x00000000000000000000000000000000000000000600000000000000000000000000000000000000000000000000000000000000000000004000000000000000000000000000004000000008000000000000000000000000000000000000000000000000020000000000000000000800020000000000000000000010000000000000000000000000000000000000000000000000000000000000010000000000000000000000000000000000000000004000000000000000000000000000000000000002000000800000000000000000000000000000080000000000000020000000000000000000000000000000000000000000000000000000000000000000",
      "type": "0x2",
      "transactionHash": "0xd156752cf5044cae8b00cca53c69a4d785aaf0dd871af66a78561f62bcfe3358",
      "transactionIndex": "0xa0",
      "blockHash": "0x40171c6ce0b94aa5504b59e76067ce74bcea386e76086945812b85458bb769a5",
      "blockNumber": "0x73143e",
      "gasUsed": "0xfd27",
      "effectiveGasPrice": "0xa9bdbe86",
      "from": "0xc77f7fed3b5cc8249adc428c5f44c9063b9734b4",
      "to": "0x8aafd3ede9adb0ff97c7aebce82a919afb1c8764",
      "contractAddress": null
    }
  ],
  "libraries": [],
  "pending": [],
  "returns": {},
  "timestamp": 1737486229,
  "chain": 11155111,
  "commit": "51a374b"
}