{
  "transactions": [
    {
      "hash": "0x3f2145e0164e651296fb2ee21a58a21c82de253c8a30e79b2bada2462df57334",
      "transactionType": "CALL",
      "contractName": null,
      "contractAddress": "0x8aafd3ede9adb0ff97c7aebce82a919afb1c8764",
      "function": "sell(uint256)",
      "arguments": [
        "1398162"
      ],
      "transaction": {
        "from": "0xc77f7fed3b5cc8249adc428c5f44c9063b9734b4",
        "to": "0x8aafd3ede9adb0ff97c7aebce82a919afb1c8764",
        "gas": "0x16208",
        "value": "0x0",
        "input": "0xe4849b320000000000000000000000000000000000000000000000000000000000155592",
        "nonce": "0x12be",
        "chainId": "0xaa36a7"
      },
      "additionalContracts": [],
      "isFixedGasLimit": false
    }
  ],
  "receipts": [
    {
      "status": "0x1",
      "cumulativeGasUsed": "0x806bf2",
      "logs": [
        {
          "address": "0x8aafd3ede9adb0ff97c7aebce82a919afb1c8764",
          "topics": [
            "0xddf252ad1be2c89b69c2b068fc378daa952ba7f163c4a11628f55a4df523b3ef",
            "0x000000000000000000000000c77f7fed3b5cc8249adc428c5f44c9063b9734b4",
            "0x0000000000000000000000000000000000000000000000000000000000000000"
          ],
          "data": "0x00000000000000000000000000000000000000000000000000000000001529e1",
          "blockHash": "0x4d986e12ed1e7a7121bc8a66651e739745f03192ebb38cf762b58da6b3355698",
          "blockNumber": "0x7319b7",
          "transactionHash": "0x3f2145e0164e651296fb2ee21a58a21c82de253c8a30e79b2bada2462df57334",
          "transactionIndex": "0x71",
          "logIndex": "0x6e",
          "removed": false
        },
        {
          "address": "0x8aafd3ede9adb0ff97c7aebce82a919afb1c8764",
          "topics": [
            "0xddf252ad1be2c89b69c2b068fc378daa952ba7f163c4a11628f55a4df523b3ef",
            "0x000000000000000000000000c77f7fed3b5cc8249adc428c5f44c9063b9734b4",
            "0x000000000000000000000000c77f7fed3b5cc8249adc428c5f44c9063b9734b4"
          ],
          "data": "0x0000000000000000000000000000000000000000000000000000000000002bb1",
          "blockHash": "0x4d986e12ed1e7a7121bc8a66651e739745f03192ebb38cf762b58da6b3355698",
          "blockNumber": "0x7319b7",
          "transactionHash": "0x3f2145e0164e651296fb2ee21a58a21c82de253c8a30e79b2bada2462df57334",
          "transactionIndex": "0x71",
          "logIndex": "0x6f",
          "removed": false
        },
        {
          "address": "0x8aafd3ede9adb0ff97c7aebce82a919afb1c8764",
          "topics": [
            "0x4afcb4a87cdbd9974efdb92ee48bc8d7cd0ae4bf217004db3d080cbaee652ca7"
          ],
          "data": "0x000000000000000000000000000000000000000000000000000000006790316400000000000000000000000000000000000000000000000000054c171fd54bab0000000000000000000000000000000000000000000000000000000000000824",
          "blockHash": "0x4d986e12ed1e7a7121bc8a66651e739745f03192ebb38cf762b58da6b3355698",
          "blockNumber": "0x7319b7",
          "transactionHash": "0x3f2145e0164e651296fb2ee21a58a21c82de253c8a30e79b2bada2462df57334",
          "transactionIndex": "0x71",
          "logIndex": "0x70",
          "removed": false
        }
      ],
      "logsBloom": "0x00000000000000000000000000000000000000000600000000000000000000000000000000000000000000000000000000000000000000004000000000000000000000000000004000000008000000000000000000000000000000000000000000000000020000000000000000000800020000000000000000000010000000000000000000000000000000000000000000000000000000000000010000000000000000000000000000000000000000004000000000000000000000000000000000000002000000800000000000000000000000000000080000000000000020000000000000000000000000000000000000000000000000000000000000000000",
      "type": "0x2",
      "transactionHash": "0x3f2145e0164e651296fb2ee21a58a21c82de253c8a30e79b2bada2462df57334",
      "transactionIndex": "0x71",
      "blockHash": "0x4d986e12ed1e7a7121bc8a66651e739745f03192ebb38cf762b58da6b3355698",
      "blockNumber": "0x7319b7",
      "gasUsed": "0xf213",
      "effectiveGasPrice": "0x4a72453a",
      "from": "0xc77f7fed3b5cc8249adc428c5f44c9063b9734b4",
      "to": "0x8aafd3ede9adb0ff97c7aebce82a919afb1c8764",
      "contractAddress": null
    }
  ],
  "libraries": [],
  "pending": [],
  "returns": {},
  "timestamp": 1737503078,
  "chain": 11155111,
  "commit": "1d2fb70"
}