{
  "transactions": [
    {
      "hash": "0x4e08ecd719ab4ae04c7a91df2fa6af89f7b291999bc5e03c2bb94eb1934236d9",
      "transactionType": "CALL",
      "contractName": null,
      "contractAddress": "0xbf4a322f1496e5c3d34a9bcdb4c60567b38c7de2",
      "function": "sell(uint256)",
      "arguments": [
        "975309115996113954296"
      ],
      "transaction": {
        "from": "0xc77f7fed3b5cc8249adc428c5f44c9063b9734b4",
        "to": "0xbf4a322f1496e5c3d34a9bcdb4c60567b38c7de2",
        "gas": "0x16fea",
        "value": "0x0",
        "input": "0xe4849b32000000000000000000000000000000000000000000000034df220996dc9f65f8",
        "nonce": "0xd77",
        "chainId": "0xaa36a7"
      },
      "additionalContracts": [],
      "isFixedGasLimit": false
    }
  ],
  "receipts": [
    {
      "status": "0x1",
      "cumulativeGasUsed": "0xe65ab1",
      "logs": [
        {
          "address": "0xbf4a322f1496e5c3d34a9bcdb4c60567b38c7de2",
          "topics": [
            "0xddf252ad1be2c89b69c2b068fc378daa952ba7f163c4a11628f55a4df523b3ef",
            "0x000000000000000000000000c77f7fed3b5cc8249adc428c5f44c9063b9734b4",
            "0x0000000000000000000000000000000000000000000000000000000000000000"
          ],
          "data": "0x000000000000000000000000000000000000000000000034df220996dc9f65f8",
          "blockHash": "0xb7565a77febc37d3b4dc4c3d175b62b0a74a06b1a39550c4358f133096cd15df",
          "blockNumber": "0x726646",
          "transactionHash": "0x4e08ecd719ab4ae04c7a91df2fa6af89f7b291999bc5e03c2bb94eb1934236d9",
          "transactionIndex": "0x6e",
          "logIndex": "0xb8",
          "removed": false
        },
        {
          "address": "0xbf4a322f1496e5c3d34a9bcdb4c60567b38c7de2",
          "topics": [
            "0x4afcb4a87cdbd9974efdb92ee48bc8d7cd0ae4bf217004db3d080cbaee652ca7"
          ],
          "data": "0x000000000000000000000000000000000000000000000000000000006787bdf800000000000000000000000000000000000000000000000000039e0514b375ca0000000000000000000000000000000000000000000000000dc7e3d728e8291c",
          "blockHash": "0xb7565a77febc37d3b4dc4c3d175b62b0a74a06b1a39550c4358f133096cd15df",
          "blockNumber": "0x726646",
          "transactionHash": "0x4e08ecd719ab4ae04c7a91df2fa6af89f7b291999bc5e03c2bb94eb1934236d9",
          "transactionIndex": "0x6e",
          "logIndex": "0xb9",
          "removed": false
        }
      ],
      "logsBloom": "0x00000000000000000000000000000000000000000000000000000000000000000000000000000000000000000000000000000000000000004000000000000000000000000000000000000008000000000000001000000000000000000000000000000000020000000000000000000800020000000000000000000010000000000000000000000000000000000000000000000000000008000000010000000000000000000000000000000000000000004000000000000000000000000000000000000002000000800000000000001000000000000000080000000000000020000000000000000000000000000000000000000000000000000000000000000000",
      "type": "0x2",
      "transactionHash": "0x4e08ecd719ab4ae04c7a91df2fa6af89f7b291999bc5e03c2bb94eb1934236d9",
      "transactionIndex": "0x6e",
      "blockHash": "0xb7565a77febc37d3b4dc4c3d175b62b0a74a06b1a39550c4358f133096cd15df",
      "blockNumber": "0x726646",
      "gasUsed": "0xfb91",
      "effectiveGasPrice": "0x93048d18",
      "from": "0xc77f7fed3b5cc8249adc428c5f44c9063b9734b4",
      "to": "0xbf4a322f1496e5c3d34a9bcdb4c60567b38c7de2",
      "contractAddress": null
    }
  ],
  "libraries": [],
  "pending": [],
  "returns": {},
  "timestamp": 1736949240,
  "chain": 11155111,
  "commit": "51a374b"
}