{
  "transactions": [
    {
      "hash": "0x6cf08fe6f1785e1a7db96922f54f56698e2bea6e7c2adf8546482d80c8ee6c08",
      "transactionType": "CALL",
      "contractName": null,
      "contractAddress": "0x8aafd3ede9adb0ff97c7aebce82a919afb1c8764",
      "function": "sell(uint256)",
      "arguments": [
        "13873687961144890"
      ],
      "transaction": {
        "from": "0xc77f7fed3b5cc8249adc428c5f44c9063b9734b4",
        "to": "0x8aafd3ede9adb0ff97c7aebce82a919afb1c8764",
        "gas": "0x1724d",
        "value": "0x0",
        "input": "0xe4849b3200000000000000000000000000000000000000000000000000314a0bb2a60e3a",
        "nonce": "0x14c2",
        "chainId": "0xaa36a7"
      },
      "additionalContracts": [],
      "isFixedGasLimit": false
    }
  ],
  "receipts": [
    {
      "status": "0x1",
      "cumulativeGasUsed": "0x143c854",
      "logs": [
        {
          "address": "0x8aafd3ede9adb0ff97c7aebce82a919afb1c8764",
          "topics": [
            "0xddf252ad1be2c89b69c2b068fc378daa952ba7f163c4a11628f55a4df523b3ef",
            "0x000000000000000000000000c77f7fed3b5cc8249adc428c5f44c9063b9734b4",
            "0x0000000000000000000000000000000000000000000000000000000000000000"
          ],
          "data": "0x0000000000000000000000000000000000000000000000000030e519f0b51c73",
          "blockHash": "0x087496b078c27c6122fce5ff760fd7afb3963268006f44490154d8f204c49a49",
          "blockNumber": "0x731c1f",
          "transactionHash": "0x6cf08fe6f1785e1a7db96922f54f56698e2bea6e7c2adf8546482d80c8ee6c08",
          "transactionIndex": "0x84",
          "logIndex": "0xea",
          "removed": false
        },
        {
          "address": "0x8aafd3ede9adb0ff97c7aebce82a919afb1c8764",
          "topics": [
            "0xddf252ad1be2c89b69c2b068fc378daa952ba7f163c4a11628f55a4df523b3ef",
            "0x000000000000000000000000c77f7fed3b5cc8249adc428c5f44c9063b9734b4",
            "0x000000000000000000000000c77f7fed3b5cc8249adc428c5f44c9063b9734b4"
          ],
          "data": "0x000000000000000000000000000000000000000000000000000064f1c1f0f1c7",
          "blockHash": "0x087496b078c27c6122fce5ff760fd7afb3963268006f44490154d8f204c49a49",
          "blockNumber": "0x731c1f",
          "transactionHash": "0x6cf08fe6f1785e1a7db96922f54f56698e2bea6e7c2adf8546482d80c8ee6c08",
          "transactionIndex": "0x84",
          "logIndex": "0xeb",
          "removed": false
        },
        {
          "address": "0x8aafd3ede9adb0ff97c7aebce82a919afb1c8764",
          "topics": [
            "0x4afcb4a87cdbd9974efdb92ee48bc8d7cd0ae4bf217004db3d080cbaee652ca7"
          ],
          "data": "0x0000000000000000000000000000000000000000000000000000000067904e50000000000000000000000000000000000000000000000000001060ac056a42c800000000000000000000000000000000000000000000000000003a2af53f6a0a",
          "blockHash": "0x087496b078c27c6122fce5ff760fd7afb3963268006f44490154d8f204c49a49",
          "blockNumber": "0x731c1f",
          "transactionHash": "0x6cf08fe6f1785e1a7db96922f54f56698e2bea6e7c2adf8546482d80c8ee6c08",
          "transactionIndex": "0x84",
          "logIndex": "0xec",
          "removed": false
        }
      ],
      "logsBloom": "0x00000000000000000000000000000000000000000600000000000000000000000000000000000000000000000000000000000000000000004000000000000000000000000000004000000008000000000000000000000000000000000000000000000000020000000000000000000800020000000000000000000010000000000000000000000000000000000000000000000000000000000000010000000000000000000000000000000000000000004000000000000000000000000000000000000002000000800000000000000000000000000000080000000000000020000000000000000000000000000000000000000000000000000000000000000000",
      "type": "0x2",
      "transactionHash": "0x6cf08fe6f1785e1a7db96922f54f56698e2bea6e7c2adf8546482d80c8ee6c08",
      "transactionIndex": "0x84",
      "blockHash": "0x087496b078c27c6122fce5ff760fd7afb3963268006f44490154d8f204c49a49",
      "blockNumber": "0x731c1f",
      "gasUsed": "0xfd33",
      "effectiveGasPrice": "0x10d14edd1",
      "from": "0xc77f7fed3b5cc8249adc428c5f44c9063b9734b4",
      "to": "0x8aafd3ede9adb0ff97c7aebce82a919afb1c8764",
      "contractAddress": null
    }
  ],
  "libraries": [],
  "pending": [],
  "returns": {},
  "timestamp": 1737510481,
  "chain": 11155111,
  "commit": "1d2fb70"
}