{
  "transactions": [
    {
      "hash": "0x199c2d5c0ea16b09fde4c0fb07fbe6883e6afa27f174f210bf9523bb9d6a20eb",
      "transactionType": "CALL",
      "contractName": null,
      "contractAddress": "0x8aafd3ede9adb0ff97c7aebce82a919afb1c8764",
      "function": "sell(uint256)",
      "arguments": [
        "22107182206"
      ],
      "transaction": {
        "from": "0xc77f7fed3b5cc8249adc428c5f44c9063b9734b4",
        "to": "0x8aafd3ede9adb0ff97c7aebce82a919afb1c8764",
        "gas": "0x1722a",
        "value": "0x0",
        "input": "0xe4849b320000000000000000000000000000000000000000000000000000000525b0d47e",
        "nonce": "0x124e",
        "chainId": "0xaa36a7"
      },
      "additionalContracts": [],
      "isFixedGasLimit": false
    }
  ],
  "receipts": [
    {
      "status": "0x1",
      "cumulativeGasUsed": "0x9e098f",
      "logs": [
        {
          "address": "0x8aafd3ede9adb0ff97c7aebce82a919afb1c8764",
          "topics": [
            "0xddf252ad1be2c89b69c2b068fc378daa952ba7f163c4a11628f55a4df523b3ef",
            "0x000000000000000000000000c77f7fed3b5cc8249adc428c5f44c9063b9734b4",
            "0x0000000000000000000000000000000000000000000000000000000000000000"
          ],
          "data": "0x000000000000000000000000000000000000000000000000000000051b26330d",
          "blockHash": "0x86798643760908361a089cee071263c946ee2e5b0e67dbaf9039def2f99ce441",
          "blockNumber": "0x731931",
          "transactionHash": "0x199c2d5c0ea16b09fde4c0fb07fbe6883e6afa27f174f210bf9523bb9d6a20eb",
          "transactionIndex": "0x85",
          "logIndex": "0xa1",
          "removed": false
        },
        {
          "address": "0x8aafd3ede9adb0ff97c7aebce82a919afb1c8764",
          "topics": [
            "0xddf252ad1be2c89b69c2b068fc378daa952ba7f163c4a11628f55a4df523b3ef",
            "0x000000000000000000000000c77f7fed3b5cc8249adc428c5f44c9063b9734b4",
            "0x000000000000000000000000c77f7fed3b5cc8249adc428c5f44c9063b9734b4"
          ],
          "data": "0x000000000000000000000000000000000000000000000000000000000a8aa171",
          "blockHash": "0x86798643760908361a089cee071263c946ee2e5b0e67dbaf9039def2f99ce441",
          "blockNumber": "0x731931",
          "transactionHash": "0x199c2d5c0ea16b09fde4c0fb07fbe6883e6afa27f174f210bf9523bb9d6a20eb",
          "transactionIndex": "0x85",
          "logIndex": "0xa2",
          "removed": false
        },
        {
          "address": "0x8aafd3ede9adb0ff97c7aebce82a919afb1c8764",
          "topics": [
            "0x4afcb4a87cdbd9974efdb92ee48bc8d7cd0ae4bf217004db3d080cbaee652ca7"
          ],
          "data": "0x0000000000000000000000000000000000000000000000000000000067902b1c00000000000000000000000000000000000000000000000000053c1a9ad5c9410000000000000000000000000000000000000000000000000000000001f10a5d",
          "blockHash": "0x86798643760908361a089cee071263c946ee2e5b0e67dbaf9039def2f99ce441",
          "blockNumber": "0x731931",
          "transactionHash": "0x199c2d5c0ea16b09fde4c0fb07fbe6883e6afa27f174f210bf9523bb9d6a20eb",
          "transactionIndex": "0x85",
          "logIndex": "0xa3",
          "removed": false
        }
      ],
      "logsBloom": "0x00000000000000000000000000000000000000000600000000000000000000000000000000000000000000000000000000000000000000004000000000000000000000000000004000000008000000000000000000000000000000000000000000000000020000000000000000000800020000000000000000000010000000000000000000000000000000000000000000000000000000000000010000000000000000000000000000000000000000004000000000000000000000000000000000000002000000800000000000000000000000000000080000000000000020000000000000000000000000000000000000000000000000000000000000000000",
      "type": "0x2",
      "transactionHash": "0x199c2d5c0ea16b09fde4c0fb07fbe6883e6afa27f174f210bf9523bb9d6a20eb",
      "transactionIndex": "0x85",
      "blockHash": "0x86798643760908361a089cee071263c946ee2e5b0e67dbaf9039def2f99ce441",
      "blockNumber": "0x731931",
      "gasUsed": "0xfd1b",
      "effectiveGasPrice": "0x3d40cead",
      "from": "0xc77f7fed3b5cc8249adc428c5f44c9063b9734b4",
      "to": "0x8aafd3ede9adb0ff97c7aebce82a919afb1c8764",
      "contractAddress": null
    }
  ],
  "libraries": [],
  "pending": [],
  "returns": {},
  "timestamp": 1737501470,
  "chain": 11155111,
  "commit": "1d2fb70"
}