{
  "transactions": [
    {
      "hash": "0x04582eb058f065ad5bae8e47a3d6d76010458407a2c2adb50e54131653cef6c9",
      "transactionType": "CALL",
      "contractName": null,
      "contractAddress": "0x8aafd3ede9adb0ff97c7aebce82a919afb1c8764",
      "function": "sell(uint256)",
      "arguments": [
        "73304671614904"
      ],
      "transaction": {
        "from": "0xc77f7fed3b5cc8249adc428c5f44c9063b9734b4",
        "to": "0x8aafd3ede9adb0ff97c7aebce82a919afb1c8764",
        "gas": "0x15daa",
        "value": "0x0",
        "input": "0xe4849b32000000000000000000000000000000000000000000000000000042ab92e977b8",
        "nonce": "0x1793",
        "chainId": "0xaa36a7"
      },
      "additionalContracts": [],
      "isFixedGasLimit": false
    }
  ],
  "receipts": [
    {
      "status": "0x1",
      "cumulativeGasUsed": "0x14edcf7",
      "logs": [
        {
          "address": "0x8aafd3ede9adb0ff97c7aebce82a919afb1c8764",
          "topics": [
            "0xddf252ad1be2c89b69c2b068fc378daa952ba7f163c4a11628f55a4df523b3ef",
            "0x000000000000000000000000c77f7fed3b5cc8249adc428c5f44c9063b9734b4",
            "0x0000000000000000000000000000000000000000000000000000000000000000"
          ],
          "data": "0x0000000000000000000000000000000000000000000000000000422308854bc1",
          "blockHash": "0x1bd24b172843ebf0d121384375ee2c73dc14de6c4c2f07750bdc619c466cb46c",
          "blockNumber": "0x731f70",
          "transactionHash": "0x04582eb058f065ad5bae8e47a3d6d76010458407a2c2adb50e54131653cef6c9",
          "transactionIndex": "0x92",
          "logIndex": "0xe4",
          "removed": false
        },
        {
          "address": "0x8aafd3ede9adb0ff97c7aebce82a919afb1c8764",
          "topics": [
            "0xddf252ad1be2c89b69c2b068fc378daa952ba7f163c4a11628f55a4df523b3ef",
            "0x000000000000000000000000c77f7fed3b5cc8249adc428c5f44c9063b9734b4",
            "0x000000000000000000000000c77f7fed3b5cc8249adc428c5f44c9063b9734b4"
          ],
          "data": "0x000000000000000000000000000000000000000000000000000000888a642bf7",
          "blockHash": "0x1bd24b172843ebf0d121384375ee2c73dc14de6c4c2f07750bdc619c466cb46c",
          "blockNumber": "0x731f70",
          "transactionHash": "0x04582eb058f065ad5bae8e47a3d6d76010458407a2c2adb50e54131653cef6c9",
          "transactionIndex": "0x92",
          "logIndex": "0xe5",
          "removed": false
        },
        {
          "address": "0x8aafd3ede9adb0ff97c7aebce82a919afb1c8764",
          "topics": [
            "0x4afcb4a87cdbd9974efdb92ee48bc8d7cd0ae4bf217004db3d080cbaee652ca7"
          ],
          "data": "0x00000000000000000000000000000000000000000000000000000000679076280000000000000000000000000000000000000000000000000018bef86f44b9cc00000000000000000000000000000000000000000000000000000076e1ccaef0",
          "blockHash": "0x1bd24b172843ebf0d121384375ee2c73dc14de6c4c2f07750bdc619c466cb46c",
          "blockNumber": "0x731f70",
          "transactionHash": "0x04582eb058f065ad5bae8e47a3d6d76010458407a2c2adb50e54131653cef6c9",
          "transactionIndex": "0x92",
          "logIndex": "0xe6",
          "removed": false
        }
      ],
      "logsBloom": "0x00000000000000000000000000000000000000000600000000000000000000000000000000000000000000000000000000000000000000004000000000000000000000000000004000000008000000000000000000000000000000000000000000000000020000000000000000000800020000000000000000000010000000000000000000000000000000000000000000000000000000000000010000000000000000000000000000000000000000004000000000000000000000000000000000000002000000800000000000000000000000000000080000000000000020000000000000000000000000000000000000000000000000000000000000000000",
      "type": "0x2",
      "transactionHash": "0x04582eb058f065ad5bae8e47a3d6d76010458407a2c2adb50e54131653cef6c9",
      "transactionIndex": "0x92",
      "blockHash": "0x1bd24b172843ebf0d121384375ee2c73dc14de6c4c2f07750bdc619c466cb46c",
      "blockNumber": "0x731f70",
      "gasUsed": "0xfd27",
      "effectiveGasPrice": "0x468c7891",
      "from": "0xc77f7fed3b5cc8249adc428c5f44c9063b9734b4",
      "to": "0x8aafd3ede9adb0ff97c7aebce82a919afb1c8764",
      "contractAddress": null
    }
  ],
  "libraries": [],
  "pending": [],
  "returns": {},
  "timestamp": 1737520681,
  "chain": 11155111,
  "commit": "1d2fb70"
}