{
  "transactions": [
    {
      "hash": "0x2db9428b27890d6baf1240196a0880d9be661217bc68fe5195370511e5025d9e",
      "transactionType": "CALL",
      "contractName": null,
      "contractAddress": "0x270e88f8683660553e8ba4eb2ad7c91a1710d769",
      "function": "buy(address)",
      "arguments": [
        "0xC77f7fed3b5Cc8249aDc428c5F44C9063B9734b4"
      ],
      "transaction": {
        "from": "0xc77f7fed3b5cc8249adc428c5f44c9063b9734b4",
        "to": "0x270e88f8683660553e8ba4eb2ad7c91a1710d769",
        "gas": "0x1b30c",
        "value": "0xde0b6b3a7640000",
        "input": "0xf088d547000000000000000000000000c77f7fed3b5cc8249adc428c5f44c9063b9734b4",
        "nonce": "0x76f",
        "chainId": "0xaa36a7"
      },
      "additionalContracts": [],
      "isFixedGasLimit": false
    }
  ],
  "receipts": [
    {
      "status": "0x1",
      "cumulativeGasUsed": "0x141393b",
      "logs": [
        {
          "address": "0x270e88f8683660553e8ba4eb2ad7c91a1710d769",
          "topics": [
            "0xddf252ad1be2c89b69c2b068fc378daa952ba7f163c4a11628f55a4df523b3ef",
            "0x0000000000000000000000000000000000000000000000000000000000000000",
            "0x000000000000000000000000c77f7fed3b5cc8249adc428c5f44c9063b9734b4"
          ],
          "data": "0x000000000000000000000000000000000000000000000027be0fbc246269cae8",
          "blockHash": "0xd82fda25b6d003341c50b93342ad5c29b617a7dc50f3fa56023ca6fcb9e8492c",
          "blockNumber": "0x72549d",
          "transactionHash": "0x2db9428b27890d6baf1240196a0880d9be661217bc68fe5195370511e5025d9e",
          "transactionIndex": "0x7b",
          "logIndex": "0x135",
          "removed": false
        },
        {
          "address": "0x270e88f8683660553e8ba4eb2ad7c91a1710d769",
          "topics": [
            "0xddf252ad1be2c89b69c2b068fc378daa952ba7f163c4a11628f55a4df523b3ef",
            "0x0000000000000000000000000000000000000000000000000000000000000000",
            "0x000000000000000000000000c77f7fed3b5cc8249adc428c5f44c9063b9734b4"
          ],
          "data": "0x0000000000000000000000000000000000000000000000001edc8179b13b5863",
          "blockHash": "0xd82fda25b6d003341c50b93342ad5c29b617a7dc50f3fa56023ca6fcb9e8492c",
          "blockNumber": "0x72549d",
          "transactionHash": "0x2db9428b27890d6baf1240196a0880d9be661217bc68fe5195370511e5025d9e",
          "transactionIndex": "0x7b",
          "logIndex": "0x136",
          "removed": false
        },
        {
          "address": "0x270e88f8683660553e8ba4eb2ad7c91a1710d769",
          "topics": [
            "0x4afcb4a87cdbd9974efdb92ee48bc8d7cd0ae4bf217004db3d080cbaee652ca7"
          ],
          "data": "0x000000000000000000000000000000000000000000000000000000006786e9640000000000000000000000000000000000000000000000000004cc48590be03d0000000000000000000000000000000000000000000000000de0b6b3a7640000",
          "blockHash": "0xd82fda25b6d003341c50b93342ad5c29b617a7dc50f3fa56023ca6fcb9e8492c",
          "blockNumber": "0x72549d",
          "transactionHash": "0x2db9428b27890d6baf1240196a0880d9be661217bc68fe5195370511e5025d9e",
          "transactionIndex": "0x7b",
          "logIndex": "0x137",
          "removed": false
        }
      ],
      "logsBloom": "0x00000000000000000000000000000000000000000000000000000000000000000000000000000000000000000000000020000000000000004000000000000000000000000000000000000008000000000000000000000000000000000000000000000000020000000000000000000800020000000000000000000010000000000000000000010000000000000000000000000000000000000000010000000000000000000000000000000000000000004000000000000000000000000000000000000002000000800000000000000000000000000000080000008000000020000000000000000000000000000000000000000000000000000000000000000000",
      "type": "0x2",
      "transactionHash": "0x2db9428b27890d6baf1240196a0880d9be661217bc68fe5195370511e5025d9e",
      "transactionIndex": "0x7b",
      "blockHash": "0xd82fda25b6d003341c50b93342ad5c29b617a7dc50f3fa56023ca6fcb9e8492c",
      "blockNumber": "0x72549d",
      "gasUsed": "0x13af8",
      "effectiveGasPrice": "0x124e5f284",
      "from": "0xc77f7fed3b5cc8249adc428c5f44c9063b9734b4",
      "to": "0x270e88f8683660553e8ba4eb2ad7c91a1710d769",
      "contractAddress": null
    }
  ],
  "libraries": [],
  "pending": [],
  "returns": {},
  "timestamp": 1736894821,
  "chain": 11155111,
  "commit": "51a374b"
}