{
  "transactions": [
    {
      "hash": "0x78dc7613ffcc0e2c52016bf033eb0a7659f044743960ba7ac3e83fea41ccc9bd",
      "transactionType": "CALL",
      "contractName": null,
      "contractAddress": "0x8aafd3ede9adb0ff97c7aebce82a919afb1c8764",
      "function": "buy(address)",
      "arguments": [
        "0xC77f7fed3b5Cc8249aDc428c5F44C9063B9734b4"
      ],
      "transaction": {
        "from": "0xc77f7fed3b5cc8249adc428c5f44c9063b9734b4",
        "to": "0x8aafd3ede9adb0ff97c7aebce82a919afb1c8764",
        "gas": "0x156ea",
        "value": "0xde0b6b3a7640000",
        "input": "0xf088d547000000000000000000000000c77f7fed3b5cc8249adc428c5f44c9063b9734b4",
        "nonce": "0x13cc",
        "chainId": "0xaa36a7"
      },
      "additionalContracts": [],
      "isFixedGasLimit": false
    }
  ],
  "receipts": [
    {
      "status": "0x1",
      "cumulativeGasUsed": "0x6daba8",
      "logs": [
        {
          "address": "0x8aafd3ede9adb0ff97c7aebce82a919afb1c8764",
          "topics": [
            "0xddf252ad1be2c89b69c2b068fc378daa952ba7f163c4a11628f55a4df523b3ef",
            "0x0000000000000000000000000000000000000000000000000000000000000000",
            "0x000000000000000000000000c77f7fed3b5cc8249adc428c5f44c9063b9734b4"
          ],
          "data": "0x00000000000000000000000000000000000000000000000e20c9548dfb3d0496",
          "blockHash": "0x380bac1015c4144e47f10bf4054b8f7ad55df33b7ea860ad4d21054bc41bbce7",
          "blockNumber": "0x731af8",
          "transactionHash": "0x78dc7613ffcc0e2c52016bf033eb0a7659f044743960ba7ac3e83fea41ccc9bd",
          "transactionIndex": "0x4a",
          "logIndex": "0x5d",
          "removed": false
        },
        {
          "address": "0x8aafd3ede9adb0ff97c7aebce82a919afb1c8764",
          "topics": [
            "0xddf252ad1be2c89b69c2b068fc378daa952ba7f163c4a11628f55a4df523b3ef",
            "0x0000000000000000000000000000000000000000000000000000000000000000",
            "0x000000000000000000000000c77f7fed3b5cc8249adc428c5f44c9063b9734b4"
          ],
          "data": "0x0000000000000000000000000000000000000000000000000af88edbf4f57214",
          "blockHash": "0x380bac1015c4144e47f10bf4054b8f7ad55df33b7ea860ad4d21054bc41bbce7",
          "blockNumber": "0x731af8",
          "transactionHash": "0x78dc7613ffcc0e2c52016bf033eb0a7659f044743960ba7ac3e83fea41ccc9bd",
          "transactionIndex": "0x4a",
          "logIndex": "0x5e",
          "removed": false
        },
        {
          "address": "0x8aafd3ede9adb0ff97c7aebce82a919afb1c8764",
          "topics": [
            "0x4afcb4a87cdbd9974efdb92ee48bc8d7cd0ae4bf217004db3d080cbaee652ca7"
          ],
          "data": "0x0000000000000000000000000000000000000000000000000000000067904070000000000000000000000000000000000000000000000000000d8509eb1bdd260000000000000000000000000000000000000000000000000de0b6b3a7640000",
          "blockHash": "0x380bac1015c4144e47f10bf4054b8f7ad55df33b7ea860ad4d21054bc41bbce7",
          "blockNumber": "0x731af8",
          "transactionHash": "0x78dc7613ffcc0e2c52016bf033eb0a7659f044743960ba7ac3e83fea41ccc9bd",
          "transactionIndex": "0x4a",
          "logIndex": "0x5f",
          "removed": false
        }
      ],
      "logsBloom": "0x00000000000000000000000000000000000000000600000000000000000000000000000000000000000000000000000000000000000000004000000000000000000000000000004000000008000000000000000000000000000000000000000000000000020000000000000000000800020000000000000000000010000000000000000000000000000000000000000000000000000000000000010000000000000000000000000000000000000000004000000000000000000000000000000000000002000000800000000000000000000000000000080000000000000020000000000000000000000000000000000000000000000000000000000000000000",
      "type": "0x2",
      "transactionHash": "0x78dc7613ffcc0e2c52016bf033eb0a7659f044743960ba7ac3e83fea41ccc9bd",
      "transactionIndex": "0x4a",
      "blockHash": "0x380bac1015c4144e47f10bf4054b8f7ad55df33b7ea860ad4d21054bc41bbce7",
      "blockNumber": "0x731af8",
      "gasUsed": "0xf844",
      "effectiveGasPrice": "0x82786d15",
      "from": "0xc77f7fed3b5cc8249adc428c5f44c9063b9734b4",
      "to": "0x8aafd3ede9adb0ff97c7aebce82a919afb1c8764",
      "contractAddress": null
    }
  ],
  "libraries": [],
  "pending": [],
  "returns": {},
  "timestamp": 1737506929,
  "chain": 11155111,
  "commit": "1d2fb70"
}