{
  "transactions": [
    {
      "hash": "0x931c54ce9849e644d3fe0e3614d14a183209d1cd895e40932dd344d6dc124654",
      "transactionType": "CALL",
      "contractName": null,
      "contractAddress": "0x8aafd3ede9adb0ff97c7aebce82a919afb1c8764",
      "function": "sell(uint256)",
      "arguments": [
        "75363788"
      ],
      "transaction": {
        "from": "0xc77f7fed3b5cc8249adc428c5f44c9063b9734b4",
        "to": "0x8aafd3ede9adb0ff97c7aebce82a919afb1c8764",
        "gas": "0x15d88",
        "value": "0x0",
        "input": "0xe4849b3200000000000000000000000000000000000000000000000000000000047df5cc",
        "nonce": "0x1367",
        "chainId": "0xaa36a7"
      },
      "additionalContracts": [],
      "isFixedGasLimit": false
    }
  ],
  "receipts": [
    {
      "status": "0x1",
      "cumulativeGasUsed": "0x696b41",
      "logs": [
        {
          "address": "0x8aafd3ede9adb0ff97c7aebce82a919afb1c8764",
          "topics": [
            "0xddf252ad1be2c89b69c2b068fc378daa952ba7f163c4a11628f55a4df523b3ef",
            "0x000000000000000000000000c77f7fed3b5cc8249adc428c5f44c9063b9734b4",
            "0x0000000000000000000000000000000000000000000000000000000000000000"
          ],
          "data": "0x000000000000000000000000000000000000000000000000000000000474c2ae",
          "blockHash": "0xb61eb5d19d5a2b89b734ee84ff929c1045d4f33d315ce29875ee2ae7498d48cb",
          "blockNumber": "0x731a87",
          "transactionHash": "0x931c54ce9849e644d3fe0e3614d14a183209d1cd895e40932dd344d6dc124654",
          "transactionIndex": "0x61",
          "logIndex": "0x50",
          "removed": false
        },
        {
          "address": "0x8aafd3ede9adb0ff97c7aebce82a919afb1c8764",
          "topics": [
            "0xddf252ad1be2c89b69c2b068fc378daa952ba7f163c4a11628f55a4df523b3ef",
            "0x000000000000000000000000c77f7fed3b5cc8249adc428c5f44c9063b9734b4",
            "0x000000000000000000000000c77f7fed3b5cc8249adc428c5f44c9063b9734b4"
          ],
          "data": "0x000000000000000000000000000000000000000000000000000000000009331e",
          "blockHash": "0xb61eb5d19d5a2b89b734ee84ff929c1045d4f33d315ce29875ee2ae7498d48cb",
          "blockNumber": "0x731a87",
          "transactionHash": "0x931c54ce9849e644d3fe0e3614d14a183209d1cd895e40932dd344d6dc124654",
          "transactionIndex": "0x61",
          "logIndex": "0x51",
          "removed": false
        },
        {
          "address": "0x8aafd3ede9adb0ff97c7aebce82a919afb1c8764",
          "topics": [
            "0x4afcb4a87cdbd9974efdb92ee48bc8d7cd0ae4bf217004db3d080cbaee652ca7"
          ],
          "data": "0x0000000000000000000000000000000000000000000000000000000067903b24000000000000000000000000000000000000000000000000000c5f7b5795fd4f0000000000000000000000000000000000000000000000000000000000040144",
          "blockHash": "0xb61eb5d19d5a2b89b734ee84ff929c1045d4f33d315ce29875ee2ae7498d48cb",
          "blockNumber": "0x731a87",
          "transactionHash": "0x931c54ce9849e644d3fe0e3614d14a183209d1cd895e40932dd344d6dc124654",
          "transactionIndex": "0x61",
          "logIndex": "0x52",
          "removed": false
        }
      ],
      "logsBloom": "0x00000000000000000000000000000000000000000600000000000000000000000000000000000000000000000000000000000000000000004000000000000000000000000000004000000008000000000000000000000000000000000000000000000000020000000000000000000800020000000000000000000010000000000000000000000000000000000000000000000000000000000000010000000000000000000000000000000000000000004000000000000000000000000000000000000002000000800000000000000000000000000000080000000000000020000000000000000000000000000000000000000000000000000000000000000000",
      "type": "0x2",
      "transactionHash": "0x931c54ce9849e644d3fe0e3614d14a183209d1cd895e40932dd344d6dc124654",
      "transactionIndex": "0x61",
      "blockHash": "0xb61eb5d19d5a2b89b734ee84ff929c1045d4f33d315ce29875ee2ae7498d48cb",
      "blockNumber": "0x731a87",
      "gasUsed": "0xfd0f",
      "effectiveGasPrice": "0x4e3c38d2",
      "from": "0xc77f7fed3b5cc8249adc428c5f44c9063b9734b4",
      "to": "0x8aafd3ede9adb0ff97c7aebce82a919afb1c8764",
      "contractAddress": null
    }
  ],
  "libraries": [],
  "pending": [],
  "returns": {},
  "timestamp": 1737505574,
  "chain": 11155111,
  "commit": "1d2fb70"
}