{
  "transactions": [
    {
      "hash": "0xfb9aabfb300ca74d2116b77529d07f5181365519dddd81a9b9c99c17424783f5",
      "transactionType": "CALL",
      "contractName": null,
      "contractAddress": "0x8aafd3ede9adb0ff97c7aebce82a919afb1c8764",
      "function": "sell(uint256)",
      "arguments": [
        "398668"
      ],
      "transaction": {
        "from": "0xc77f7fed3b5cc8249adc428c5f44c9063b9734b4",
        "to": "0x8aafd3ede9adb0ff97c7aebce82a919afb1c8764",
        "gas": "0x16208",
        "value": "0x0",
        "input": "0xe4849b32000000000000000000000000000000000000000000000000000000000006154c",
        "nonce": "0x158d",
        "chainId": "0xaa36a7"
      },
      "additionalContracts": [],
      "isFixedGasLimit": false
    }
  ],
  "receipts": [
    {
      "status": "0x1",
      "cumulativeGasUsed": "0x444a57",
      "logs": [
        {
          "address": "0x8aafd3ede9adb0ff97c7aebce82a919afb1c8764",
          "topics": [
            "0xddf252ad1be2c89b69c2b068fc378daa952ba7f163c4a11628f55a4df523b3ef",
            "0x000000000000000000000000c77f7fed3b5cc8249adc428c5f44c9063b9734b4",
            "0x0000000000000000000000000000000000000000000000000000000000000000"
          ],
          "data": "0x00000000000000000000000000000000000000000000000000000000000608d7",
          "blockHash": "0x27e835e7bfb2c39d3c98697c613d61c1a8e2cb98868dd2a10a7c5a3c94377102",
          "blockNumber": "0x731cfc",
          "transactionHash": "0xfb9aabfb300ca74d2116b77529d07f5181365519dddd81a9b9c99c17424783f5",
          "transactionIndex": "0x28",
          "logIndex": "0x46",
          "removed": false
        },
        {
          "address": "0x8aafd3ede9adb0ff97c7aebce82a919afb1c8764",
          "topics": [
            "0xddf252ad1be2c89b69c2b068fc378daa952ba7f163c4a11628f55a4df523b3ef",
            "0x000000000000000000000000c77f7fed3b5cc8249adc428c5f44c9063b9734b4",
            "0x000000000000000000000000c77f7fed3b5cc8249adc428c5f44c9063b9734b4"
          ],
          "data": "0x0000000000000000000000000000000000000000000000000000000000000c75",
          "blockHash": "0x27e835e7bfb2c39d3c98697c613d61c1a8e2cb98868dd2a10a7c5a3c94377102",
          "blockNumber": "0x731cfc",
          "transactionHash": "0xfb9aabfb300ca74d2116b77529d07f5181365519dddd81a9b9c99c17424783f5",
          "transactionIndex": "0x28",
          "logIndex": "0x47",
          "removed": false
        },
        {
          "address": "0x8aafd3ede9adb0ff97c7aebce82a919afb1c8764",
          "topics": [
            "0x4afcb4a87cdbd9974efdb92ee48bc8d7cd0ae4bf217004db3d080cbaee652ca7"
          ],
          "data": "0x00000000000000000000000000000000000000000000000000000000679058b80000000000000000000000000000000000000000000000000012a97bc0d4bf3c000000000000000000000000000000000000000000000000000000000000082e",
          "blockHash": "0x27e835e7bfb2c39d3c98697c613d61c1a8e2cb98868dd2a10a7c5a3c94377102",
          "blockNumber": "0x731cfc",
          "transactionHash": "0xfb9aabfb300ca74d2116b77529d07f5181365519dddd81a9b9c99c17424783f5",
          "transactionIndex": "0x28",
          "logIndex": "0x48",
          "removed": false
        }
      ],
      "logsBloom": "0x00000000000000000000000000000000000000000600000000000000000000000000000000000000000000000000000000000000000000004000000000000000000000000000004000000008000000000000000000000000000000000000000000000000020000000000000000000800020000000000000000000010000000000000000000000000000000000000000000000000000000000000010000000000000000000000000000000000000000004000000000000000000000000000000000000002000000800000000000000000000000000000080000000000000020000000000000000000000000000000000000000000000000000000000000000000",
      "type": "0x2",
      "transactionHash": "0xfb9aabfb300ca74d2116b77529d07f5181365519dddd81a9b9c99c17424783f5",
      "transactionIndex": "0x28",
      "blockHash": "0x27e835e7bfb2c39d3c98697c613d61c1a8e2cb98868dd2a10a7c5a3c94377102",
      "blockNumber": "0x731cfc",
      "gasUsed": "0xf213",
      "effectiveGasPrice": "0x6b078968",
      "from": "0xc77f7fed3b5cc8249adc428c5f44c9063b9734b4",
      "to": "0x8aafd3ede9adb0ff97c7aebce82a919afb1c8764",
      "contractAddress": null
    }
  ],
  "libraries": [],
  "pending": [],
  "returns": {},
  "timestamp": 1737513145,
  "chain": 11155111,
  "commit": "1d2fb70"
}