{
  "transactions": [
    {
      "hash": "0x3748299d563cbbcfcbd446de8ab6895733f53cf74dea2003c7dd3507975758a3",
      "transactionType": "CALL",
      "contractName": null,
      "contractAddress": "0xbf4a322f1496e5c3d34a9bcdb4c60567b38c7de2",
      "function": "buy(address)",
      "arguments": [
        "0xC77f7fed3b5Cc8249aDc428c5F44C9063B9734b4"
      ],
      "transaction": {
        "from": "0xc77f7fed3b5cc8249adc428c5f44c9063b9734b4",
        "to": "0xbf4a322f1496e5c3d34a9bcdb4c60567b38c7de2",
        "gas": "0x1b309",
        "value": "0xde0b6b3a7640000",
        "input": "0xf088d547000000000000000000000000c77f7fed3b5cc8249adc428c5f44c9063b9734b4",
        "nonce": "0xbac",
        "chainId": "0xaa36a7"
      },
      "additionalContracts": [],
      "isFixedGasLimit": false
    }
  ],
  "receipts": [
    {
      "status": "0x1",
      "cumulativeGasUsed": "0x5af8ff",
      "logs": [
        {
          "address": "0xbf4a322f1496e5c3d34a9bcdb4c60567b38c7de2",
          "topics": [
            "0xddf252ad1be2c89b69c2b068fc378daa952ba7f163c4a11628f55a4df523b3ef",
            "0x0000000000000000000000000000000000000000000000000000000000000000",
            "0x000000000000000000000000c77f7fed3b5cc8249adc428c5f44c9063b9734b4"
          ],
          "data": "0x0000000000000000000000000000000000000000000000350affc0da4d878b90",
          "blockHash": "0x33b9b657f889121571a83603dd33a807152077b7a3aab930d9aac824e194c09c",
          "blockNumber": "0x725bc4",
          "transactionHash": "0x3748299d563cbbcfcbd446de8ab6895733f53cf74dea2003c7dd3507975758a3",
          "transactionIndex": "0x4c",
          "logIndex": "0x41",
          "removed": false
        },
        {
          "address": "0xbf4a322f1496e5c3d34a9bcdb4c60567b38c7de2",
          "topics": [
            "0xddf252ad1be2c89b69c2b068fc378daa952ba7f163c4a11628f55a4df523b3ef",
            "0x0000000000000000000000000000000000000000000000000000000000000000",
            "0x000000000000000000000000c77f7fed3b5cc8249adc428c5f44c9063b9734b4"
          ],
          "data": "0x00000000000000000000000000000000000000000000000029308e5167fce6b6",
          "blockHash": "0x33b9b657f889121571a83603dd33a807152077b7a3aab930d9aac824e194c09c",
          "blockNumber": "0x725bc4",
          "transactionHash": "0x3748299d563cbbcfcbd446de8ab6895733f53cf74dea2003c7dd3507975758a3",
          "transactionIndex": "0x4c",
          "logIndex": "0x42",
          "removed": false
        },
        {
          "address": "0xbf4a322f1496e5c3d34a9bcdb4c60567b38c7de2",
          "topics": [
            "0x4afcb4a87cdbd9974efdb92ee48bc8d7cd0ae4bf217004db3d080cbaee652ca7"
          ],
          "data": "0x0000000000000000000000000000000000000000000000000000000067873f8c0000000000000000000000000000000000000000000000000003983894416f7c0000000000000000000000000000000000000000000000000de0b6b3a7640000",
          "blockHash": "0x33b9b657f889121571a83603dd33a807152077b7a3aab930d9aac824e194c09c",
          "blockNumber": "0x725bc4",
          "transactionHash": "0x3748299d563cbbcfcbd446de8ab6895733f53cf74dea2003c7dd3507975758a3",
          "transactionIndex": "0x4c",
          "logIndex": "0x43",
          "removed": false
        }
      ],
      "logsBloom": "0x00000000000000000000000000000000000000000000000000000000000000000000000000000000000000000000000000000000000000004000000000000000000000000000000000000008000000000000001000000000000000000000000000000000020000000000000000000800020000000000000000000010000000000000000000000000000000000000000000000000000008000000010000000000000000000000000000000000000000004000000000000000000000000000000000000002000000800000000000001000000000000000080000000000000020000000000000000000000000000000000000000000000000000000000000000000",
      "type": "0x2",
      "transactionHash": "0x3748299d563cbbcfcbd446de8ab6895733f53cf74dea2003c7dd3507975758a3",
      "transactionIndex": "0x4c",
      "blockHash": "0x33b9b657f889121571a83603dd33a807152077b7a3aab930d9aac824e194c09c",
      "blockNumber": "0x725bc4",
      "gasUsed": "0x13af6",
      "effectiveGasPrice": "0x58c884e9",
      "from": "0xc77f7fed3b5cc8249adc428c5f44c9063b9734b4",
      "to": "0xbf4a322f1496e5c3d34a9bcdb4c60567b38c7de2",
      "contractAddress": null
    }
  ],
  "libraries": [],
  "pending": [],
  "returns": {},
  "timestamp": 1736916877,
  "chain": 11155111,
  "commit": "51a374b"
}