{
  "transactions": [
    {
      "hash": "0xae2199d3d13234b8fb329ae80b78ee9ca7d4b8bf101b4621c2386083e8f1cbe5",
      "transactionType": "CALL",
      "contractName": null,
      "contractAddress": "0x8aafd3ede9adb0ff97c7aebce82a919afb1c8764",
      "function": "sell(uint256)",
      "arguments": [
        "1191249760763392840"
      ],
      "transaction": {
        "from": "0xc77f7fed3b5cc8249adc428c5f44c9063b9734b4",
        "to": "0x8aafd3ede9adb0ff97c7aebce82a919afb1c8764",
        "gas": "0x15dca",
        "value": "0x0",
        "input": "0xe4849b3200000000000000000000000000000000000000000000000010882b588d123348",
        "nonce": "0x1740",
        "chainId": "0xaa36a7"
      },
      "additionalContracts": [],
      "isFixedGasLimit": false
    }
  ],
  "receipts": [
    {
      "status": "0x1",
      "cumulativeGasUsed": "0xad17f6",
      "logs": [
        {
          "address": "0x8aafd3ede9adb0ff97c7aebce82a919afb1c8764",
          "topics": [
            "0xddf252ad1be2c89b69c2b068fc378daa952ba7f163c4a11628f55a4df523b3ef",
            "0x000000000000000000000000c77f7fed3b5cc8249adc428c5f44c9063b9734b4",
            "0x0000000000000000000000000000000000000000000000000000000000000000"
          ],
          "data": "0x00000000000000000000000000000000000000000000000010664fdcf6704342",
          "blockHash": "0x541c85d1c7e4c86f4f4034dcbde11763d11f624ce500a0e23c01ca9cbe4e0e19",
          "blockNumber": "0x731f0b",
          "transactionHash": "0xae2199d3d13234b8fb329ae80b78ee9ca7d4b8bf101b4621c2386083e8f1cbe5",
          "transactionIndex": "0x6f",
          "logIndex": "0xc9",
          "removed": false
        },
        {
          "address": "0x8aafd3ede9adb0ff97c7aebce82a919afb1c8764",
          "topics": [
            "0xddf252ad1be2c89b69c2b068fc378daa952ba7f163c4a11628f55a4df523b3ef",
            "0x000000000000000000000000c77f7fed3b5cc8249adc428c5f44c9063b9734b4",
            "0x000000000000000000000000c77f7fed3b5cc8249adc428c5f44c9063b9734b4"
          ],
          "data": "0x0000000000000000000000000000000000000000000000000021db7b96a1f006",
          "blockHash": "0x541c85d1c7e4c86f4f4034dcbde11763d11f624ce500a0e23c01ca9cbe4e0e19",
          "blockNumber": "0x731f0b",
          "transactionHash": "0xae2199d3d13234b8fb329ae80b78ee9ca7d4b8bf101b4621c2386083e8f1cbe5",
          "transactionIndex": "0x6f",
          "logIndex": "0xca",
          "removed": false
        },
        {
          "address": "0x8aafd3ede9adb0ff97c7aebce82a919afb1c8764",
          "topics": [
            "0x4afcb4a87cdbd9974efdb92ee48bc8d7cd0ae4bf217004db3d080cbaee652ca7"
          ],
          "data": "0x000000000000000000000000000000000000000000000000000000006790716c0000000000000000000000000000000000000000000000000017cc10132f5654000000000000000000000000000000000000000000000000001c58fa561cf7c3",
          "blockHash": "0x541c85d1c7e4c86f4f4034dcbde11763d11f624ce500a0e23c01ca9cbe4e0e19",
          "blockNumber": "0x731f0b",
          "transactionHash": "0xae2199d3d13234b8fb329ae80b78ee9ca7d4b8bf101b4621c2386083e8f1cbe5",
          "transactionIndex": "0x6f",
          "logIndex": "0xcb",
          "removed": false
        }
      ],
      "logsBloom": "0x00000000000000000000000000000000000000000600000000000000000000000000000000000000000000000000000000000000000000004000000000000000000000000000004000000008000000000000000000000000000000000000000000000000020000000000000000000800020000000000000000000010000000000000000000000000000000000000000000000000000000000000010000000000000000000000000000000000000000004000000000000000000000000000000000000002000000800000000000000000000000000000080000000000000020000000000000000000000000000000000000000000000000000000000000000000",
      "type": "0x2",
      "transactionHash": "0xae2199d3d13234b8fb329ae80b78ee9ca7d4b8bf101b4621c2386083e8f1cbe5",
      "transactionIndex": "0x6f",
      "blockHash": "0x541c85d1c7e4c86f4f4034dcbde11763d11f624ce500a0e23c01ca9cbe4e0e19",
      "blockNumber": "0x731f0b",
      "gasUsed": "0xfd3f",
      "effectiveGasPrice": "0x38184eea",
      "from": "0xc77f7fed3b5cc8249adc428c5f44c9063b9734b4",
      "to": "0x8aafd3ede9adb0ff97c7aebce82a919afb1c8764",
      "contractAddress": null
    }
  ],
  "libraries": [],
  "pending": [],
  "returns": {},
  "timestamp": 1737519470,
  "chain": 11155111,
  "commit": "1d2fb70"
}