{
  "transactions": [
    {
      "hash": "0xdddacdae4a375b3a6de48fda2081f2cb8f22143effe7b3d3f6943ba1fcfa63f9",
      "transactionType": "CALL",
      "contractName": null,
      "contractAddress": "0x5eb9cc76c3506942c1c0ead70e877dd5e4f00cb0",
      "function": "sell(uint256)",
      "arguments": [
        "989090437969979341999"
      ],
      "transaction": {
        "from": "0xc77f7fed3b5cc8249adc428c5f44c9063b9734b4",
        "to": "0x5eb9cc76c3506942c1c0ead70e877dd5e4f00cb0",
        "gas": "0x16fec",
        "value": "0x0",
        "input": "0xe4849b320000000000000000000000000000000000000000000000359e6320e870277caf",
        "nonce": "0x43d",
        "chainId": "0xaa36a7"
      },
      "additionalContracts": [],
      "isFixedGasLimit": false
    }
  ],
  "receipts": [
    {
      "status": "0x1",
      "cumulativeGasUsed": "0x1a337f1",
      "logs": [
        {
          "address": "0x5eb9cc76c3506942c1c0ead70e877dd5e4f00cb0",
          "topics": [
            "0xddf252ad1be2c89b69c2b068fc378daa952ba7f163c4a11628f55a4df523b3ef",
            "0x000000000000000000000000c77f7fed3b5cc8249adc428c5f44c9063b9734b4",
            "0x0000000000000000000000000000000000000000000000000000000000000000"
          ],
          "data": "0x0000000000000000000000000000000000000000000000359e6320e870277caf",
          "blockHash": "0x5307582569d1bf85acc55ce2da93e71f8520765e9cda18ce6c6d64bf27848f3a",
          "blockNumber": "0x72505b",
          "transactionHash": "0xdddacdae4a375b3a6de48fda2081f2cb8f22143effe7b3d3f6943ba1fcfa63f9",
          "transactionIndex": "0x103",
          "logIndex": "0x17b",
          "removed": false
        },
        {
          "address": "0x5eb9cc76c3506942c1c0ead70e877dd5e4f00cb0",
          "topics": [
            "0x4afcb4a87cdbd9974efdb92ee48bc8d7cd0ae4bf217004db3d080cbaee652ca7"
          ],
          "data": "0x000000000000000000000000000000000000000000000000000000006786b61000000000000000000000000000000000000000000000000000039117bb5ad0ae0000000000000000000000000000000000000000000000000dc7db1331d66f14",
          "blockHash": "0x5307582569d1bf85acc55ce2da93e71f8520765e9cda18ce6c6d64bf27848f3a",
          "blockNumber": "0x72505b",
          "transactionHash": "0xdddacdae4a375b3a6de48fda2081f2cb8f22143effe7b3d3f6943ba1fcfa63f9",
          "transactionIndex": "0x103",
          "logIndex": "0x17c",
          "removed": false
        }
      ],
      "logsBloom": "0x00000000000000000000000000000000000000000000000000000000000000000000000000000000000000000000000000000000000000004000000000000000000000000000000000000008000000000000000000000000000000000000000000000000020000000000000004000800020000000000000000000010000000000000000000000000000000000000000000000000000000000000010000000000000000000000000000000000000000004000000000000000000000000000020000000002000000800000008000000000000000000000080000000000000020000000000000000000000000000000000000000000000000000000000000000000",
      "type": "0x2",
      "transactionHash": "0xdddacdae4a375b3a6de48fda2081f2cb8f22143effe7b3d3f6943ba1fcfa63f9",
      "transactionIndex": "0x103",
      "blockHash": "0x5307582569d1bf85acc55ce2da93e71f8520765e9cda18ce6c6d64bf27848f3a",
      "blockNumber": "0x72505b",
      "gasUsed": "0xfb93",
      "effectiveGasPrice": "0x23149682c",
      "from": "0xc77f7fed3b5cc8249adc428c5f44c9063b9734b4",
      "to": "0x5eb9cc76c3506942c1c0ead70e877dd5e4f00cb0",
      "contractAddress": null
    }
  ],
  "libraries": [],
  "pending": [],
  "returns": {},
  "timestamp": 1736881681,
  "chain": 11155111,
  "commit": "51a374b"
}