{
  "transactions": [
    {
      "hash": "0xffba639d043bf31708df0c0c6e413e3b52053951462ff5fc314bd814d5059a83",
      "transactionType": "CALL",
      "contractName": null,
      "contractAddress": "0xbf4a322f1496e5c3d34a9bcdb4c60567b38c7de2",
      "function": "buy(address)",
      "arguments": [
        "0xC77f7fed3b5Cc8249aDc428c5F44C9063B9734b4"
      ],
      "transaction": {
        "from": "0xc77f7fed3b5cc8249adc428c5f44c9063b9734b4",
        "to": "0xbf4a322f1496e5c3d34a9bcdb4c60567b38c7de2",
        "gas": "0x1b309",
        "value": "0xde0b6b3a7640000",
        "input": "0xf088d547000000000000000000000000c77f7fed3b5cc8249adc428c5f44c9063b9734b4",
        "nonce": "0xab4",
        "chainId": "0xaa36a7"
      },
      "additionalContracts": [],
      "isFixedGasLimit": false
    }
  ],
  "receipts": [
    {
      "status": "0x1",
      "cumulativeGasUsed": "0x7085ca",
      "logs": [
        {
          "address": "0xbf4a322f1496e5c3d34a9bcdb4c60567b38c7de2",
          "topics": [
            "0xddf252ad1be2c89b69c2b068fc378daa952ba7f163c4a11628f55a4df523b3ef",
            "0x0000000000000000000000000000000000000000000000000000000000000000",
            "0x000000000000000000000000c77f7fed3b5cc8249adc428c5f44c9063b9734b4"
          ],
          "data": "0x000000000000000000000000000000000000000000000035395cc23f65f4d22f",
          "blockHash": "0x7529511654e7624f1de19194d89bd3ea87afa3f85380c86f5eb0d27d5ce7ac5b",
          "blockNumber": "0x725a9f",
          "transactionHash": "0xffba639d043bf31708df0c0c6e413e3b52053951462ff5fc314bd814d5059a83",
          "transactionIndex": "0x39",
          "logIndex": "0x5e",
          "removed": false
        },
        {
          "address": "0xbf4a322f1496e5c3d34a9bcdb4c60567b38c7de2",
          "topics": [
            "0xddf252ad1be2c89b69c2b068fc378daa952ba7f163c4a11628f55a4df523b3ef",
            "0x0000000000000000000000000000000000000000000000000000000000000000",
            "0x000000000000000000000000c77f7fed3b5cc8249adc428c5f44c9063b9734b4"
          ],
          "data": "0x00000000000000000000000000000000000000000000000029548f016d4fb558",
          "blockHash": "0x7529511654e7624f1de19194d89bd3ea87afa3f85380c86f5eb0d27d5ce7ac5b",
          "blockNumber": "0x725a9f",
          "transactionHash": "0xffba639d043bf31708df0c0c6e413e3b52053951462ff5fc314bd814d5059a83",
          "transactionIndex": "0x39",
          "logIndex": "0x5f",
          "removed": false
        },
        {
          "address": "0xbf4a322f1496e5c3d34a9bcdb4c60567b38c7de2",
          "topics": [
            "0x4afcb4a87cdbd9974efdb92ee48bc8d7cd0ae4bf217004db3d080cbaee652ca7"
          ],
          "data": "0x00000000000000000000000000000000000000000000000000000000678731c400000000000000000000000000000000000000000000000000039516fc58e7e90000000000000000000000000000000000000000000000000de0b6b3a7640000",
          "blockHash": "0x7529511654e7624f1de19194d89bd3ea87afa3f85380c86f5eb0d27d5ce7ac5b",
          "blockNumber": "0x725a9f",
          "transactionHash": "0xffba639d043bf31708df0c0c6e413e3b52053951462ff5fc314bd814d5059a83",
          "transactionIndex": "0x39",
          "logIndex": "0x60",
          "removed": false
        }
      ],
      "logsBloom": "0x00000000000000000000000000000000000000000000000000000000000000000000000000000000000000000000000000000000000000004000000000000000000000000000000000000008000000000000001000000000000000000000000000000000020000000000000000000800020000000000000000000010000000000000000000000000000000000000000000000000000008000000010000000000000000000000000000000000000000004000000000000000000000000000000000000002000000800000000000001000000000000000080000000000000020000000000000000000000000000000000000000000000000000000000000000000",
      "type": "0x2",
      "transactionHash": "0xffba639d043bf31708df0c0c6e413e3b52053951462ff5fc314bd814d5059a83",
      "transactionIndex": "0x39",
      "blockHash": "0x7529511654e7624f1de19194d89bd3ea87afa3f85380c86f5eb0d27d5ce7ac5b",
      "blockNumber": "0x725a9f",
      "gasUsed": "0x13af6",
      "effectiveGasPrice": "0x1596dfc97",
      "from": "0xc77f7fed3b5cc8249adc428c5f44c9063b9734b4",
      "to": "0xbf4a322f1496e5c3d34a9bcdb4c60567b38c7de2",
      "contractAddress": null
    }
  ],
  "libraries": [],
  "pending": [],
  "returns": {},
  "timestamp": 1736913349,
  "chain": 11155111,
  "commit": "51a374b"
}