{
  "transactions": [
    {
      "hash": "0xd6c40f01bf4de2f7c5261385432d3f6a5440a9d53f42c701ea4f9f31f7817c83",
      "transactionType": "CALL",
      "contractName": null,
      "contractAddress": "0x8aafd3ede9adb0ff97c7aebce82a919afb1c8764",
      "function": "sell(uint256)",
      "arguments": [
        "1943563297506203606"
      ],
      "transaction": {
        "from": "0xc77f7fed3b5cc8249adc428c5f44c9063b9734b4",
        "to": "0x8aafd3ede9adb0ff97c7aebce82a919afb1c8764",
        "gas": "0x15dca",
        "value": "0x0",
        "input": "0xe4849b320000000000000000000000000000000000000000000000001af8ec858a5817d6",
        "nonce": "0x1428",
        "chainId": "0xaa36a7"
      },
      "additionalContracts": [],
      "isFixedGasLimit": false
    }
  ],
  "receipts": [
    {
      "status": "0x1",
      "cumulativeGasUsed": "0x113d0dd",
      "logs": [
        {
          "address": "0x8aafd3ede9adb0ff97c7aebce82a919afb1c8764",
          "topics": [
            "0xddf252ad1be2c89b69c2b068fc378daa952ba7f163c4a11628f55a4df523b3ef",
            "0x000000000000000000000000c77f7fed3b5cc8249adc428c5f44c9063b9734b4",
            "0x0000000000000000000000000000000000000000000000000000000000000000"
          ],
          "data": "0x0000000000000000000000000000000000000000000000001ac1af3ccac5fafa",
          "blockHash": "0x67a565f29c21ec96d65e4cd3200dd200ce5083a031a099648edfc9163c9e6297",
          "blockNumber": "0x731b65",
          "transactionHash": "0xd6c40f01bf4de2f7c5261385432d3f6a5440a9d53f42c701ea4f9f31f7817c83",
          "transactionIndex": "0xa1",
          "logIndex": "0xb1",
          "removed": false
        },
        {
          "address": "0x8aafd3ede9adb0ff97c7aebce82a919afb1c8764",
          "topics": [
            "0xddf252ad1be2c89b69c2b068fc378daa952ba7f163c4a11628f55a4df523b3ef",
            "0x000000000000000000000000c77f7fed3b5cc8249adc428c5f44c9063b9734b4",
            "0x000000000000000000000000c77f7fed3b5cc8249adc428c5f44c9063b9734b4"
          ],
          "data": "0x00000000000000000000000000000000000000000000000000373d48bf921cdc",
          "blockHash": "0x67a565f29c21ec96d65e4cd3200dd200ce5083a031a099648edfc9163c9e6297",
          "blockNumber": "0x731b65",
          "transactionHash": "0xd6c40f01bf4de2f7c5261385432d3f6a5440a9d53f42c701ea4f9f31f7817c83",
          "transactionIndex": "0xa1",
          "logIndex": "0xb2",
          "removed": false
        },
        {
          "address": "0x8aafd3ede9adb0ff97c7aebce82a919afb1c8764",
          "topics": [
            "0x4afcb4a87cdbd9974efdb92ee48bc8d7cd0ae4bf217004db3d080cbaee652ca7"
          ],
          "data": "0x000000000000000000000000000000000000000000000000000000006790458c000000000000000000000000000000000000000000000000000e9fbd0276cf35000000000000000000000000000000000000000000000000001c6be17e1780f0",
          "blockHash": "0x67a565f29c21ec96d65e4cd3200dd200ce5083a031a099648edfc9163c9e6297",
          "blockNumber": "0x731b65",
          "transactionHash": "0xd6c40f01bf4de2f7c5261385432d3f6a5440a9d53f42c701ea4f9f31f7817c83",
          "transactionIndex": "0xa1",
          "logIndex": "0xb3",
          "removed": false
        }
      ],
      "logsBloom": "0x00000000000000000000000000000000000000000600000000000000000000000000000000000000000000000000000000000000000000004000000000000000000000000000004000000008000000000000000000000000000000000000000000000000020000000000000000000800020000000000000000000010000000000000000000000000000000000000000000000000000000000000010000000000000000000000000000000000000000004000000000000000000000000000000000000002000000800000000000000000000000000000080000000000000020000000000000000000000000000000000000000000000000000000000000000000",
      "type": "0x2",
      "transactionHash": "0xd6c40f01bf4de2f7c5261385432d3f6a5440a9d53f42c701ea4f9f31f7817c83",
      "transactionIndex": "0xa1",
      "blockHash": "0x67a565f29c21ec96d65e4cd3200dd200ce5083a031a099648edfc9163c9e6297",
      "blockNumber": "0x731b65",
      "gasUsed": "0xfd3f",
      "effectiveGasPrice": "0xfdb24847",
      "from": "0xc77f7fed3b5cc8249adc428c5f44c9063b9734b4",
      "to": "0x8aafd3ede9adb0ff97c7aebce82a919afb1c8764",
      "contractAddress": null
    }
  ],
  "libraries": [],
  "pending": [],
  "returns": {},
  "timestamp": 1737508238,
  "chain": 11155111,
  "commit": "1d2fb70"
}