{
  "transactions": [
    {
      "hash": "0xd5f09e507286ba98865d4e39acdbbc1cb0215319b4b693463782bfb141a3a0db",
      "transactionType": "CALL",
      "contractName": null,
      "contractAddress": "0xbf4a322f1496e5c3d34a9bcdb4c60567b38c7de2",
      "function": "sell(uint256)",
      "arguments": [
        "975442117709505085626"
      ],
      "transaction": {
        "from": "0xc77f7fed3b5cc8249adc428c5f44c9063b9734b4",
        "to": "0xbf4a322f1496e5c3d34a9bcdb4c60567b38c7de2",
        "gas": "0x16fea",
        "value": "0x0",
        "input": "0xe4849b32000000000000000000000000000000000000000000000034e0fa8df165d1c0ba",
        "nonce": "0xd6d",
        "chainId": "0xaa36a7"
      },
      "additionalContracts": [],
      "isFixedGasLimit": false
    }
  ],
  "receipts": [],
  "libraries": [],
  "pending": [
    "0xd5f09e507286ba98865d4e39acdbbc1cb0215319b4b693463782bfb141a3a0db"
  ],
  "returns": {},
  "timestamp": 1736949111,
  "chain": 11155111,
  "commit": "51a374b"
}