{
  "transactions": [
    {
      "hash": "0xbb528bb499c7e05f4e677b36d2dc83f3462a051a15f81be1262298096a836879",
      "transactionType": "CALL",
      "contractName": null,
      "contractAddress": "0xbf4a322f1496e5c3d34a9bcdb4c60567b38c7de2",
      "function": "sell(uint256)",
      "arguments": [
        "979341821855693607440"
      ],
      "transaction": {
        "from": "0xc77f7fed3b5cc8249adc428c5f44c9063b9734b4",
        "to": "0xbf4a322f1496e5c3d34a9bcdb4c60567b38c7de2",
        "gas": "0x16fea",
        "value": "0x0",
        "input": "0xe4849b3200000000000000000000000000000000000000000000003517191633d0811210",
        "nonce": "0xc49",
        "chainId": "0xaa36a7"
      },
      "additionalContracts": [],
      "isFixedGasLimit": false
    }
  ],
  "receipts": [
    {
      "status": "0x1",
      "cumulativeGasUsed": "0xdc6f3d",
      "logs": [
        {
          "address": "0xbf4a322f1496e5c3d34a9bcdb4c60567b38c7de2",
          "topics": [
            "0xddf252ad1be2c89b69c2b068fc378daa952ba7f163c4a11628f55a4df523b3ef",
            "0x000000000000000000000000c77f7fed3b5cc8249adc428c5f44c9063b9734b4",
            "0x0000000000000000000000000000000000000000000000000000000000000000"
          ],
          "data": "0x00000000000000000000000000000000000000000000003517191633d0811210",
          "blockHash": "0x3f93a901adb0c9bb5739eb5195d1caa3f9a198addbfcc07ab79f0b7c72f06d81",
          "blockNumber": "0x725c80",
          "transactionHash": "0xbb528bb499c7e05f4e677b36d2dc83f3462a051a15f81be1262298096a836879",
          "transactionIndex": "0x38",
          "logIndex": "0x57",
          "removed": false
        },
        {
          "address": "0xbf4a322f1496e5c3d34a9bcdb4c60567b38c7de2",
          "topics": [
            "0x4afcb4a87cdbd9974efdb92ee48bc8d7cd0ae4bf217004db3d080cbaee652ca7"
          ],
          "data": "0x000000000000000000000000000000000000000000000000000000006787485c00000000000000000000000000000000000000000000000000039a34f1b0b83b0000000000000000000000000000000000000000000000000dc7e3e089397c60",
          "blockHash": "0x3f93a901adb0c9bb5739eb5195d1caa3f9a198addbfcc07ab79f0b7c72f06d81",
          "blockNumber": "0x725c80",
          "transactionHash": "0xbb528bb499c7e05f4e677b36d2dc83f3462a051a15f81be1262298096a836879",
          "transactionIndex": "0x38",
          "logIndex": "0x58",
          "removed": false
        }
      ],
      "logsBloom": "0x00000000000000000000000000000000000000000000000000000000000000000000000000000000000000000000000000000000000000004000000000000000000000000000000000000008000000000000001000000000000000000000000000000000020000000000000000000800020000000000000000000010000000000000000000000000000000000000000000000000000008000000010000000000000000000000000000000000000000004000000000000000000000000000000000000002000000800000000000001000000000000000080000000000000020000000000000000000000000000000000000000000000000000000000000000000",
      "type": "0x2",
      "transactionHash": "0xbb528bb499c7e05f4e677b36d2dc83f3462a051a15f81be1262298096a836879",
      "transactionIndex": "0x38",
      "blockHash": "0x3f93a901adb0c9bb5739eb5195d1caa3f9a198addbfcc07ab79f0b7c72f06d81",
      "blockNumber": "0x725c80",
      "gasUsed": "0xfb91",
      "effectiveGasPrice": "0x21089d451",
      "from": "0xc77f7fed3b5cc8249adc428c5f44c9063b9734b4",
      "to": "0xbf4a322f1496e5c3d34a9bcdb4c60567b38c7de2",
      "contractAddress": null
    }
  ],
  "libraries": [],
  "pending": [],
  "returns": {},
  "timestamp": 1736919132,
  "chain": 11155111,
  "commit": "51a374b"
}