{
  "transactions": [
    {
      "hash": "0xc56a332f8d2801068ebd7b3a2c7caeafc9e18f3ebbc9dcafb79b69a1a4711fba",
      "transactionType": "CALL",
      "contractName": null,
      "contractAddress": "0xbf4a322f1496e5c3d34a9bcdb4c60567b38c7de2",
      "function": "sell(uint256)",
      "arguments": [
        "990735995916676378402"
      ],
      "transaction": {
        "from": "0xc77f7fed3b5cc8249adc428c5f44c9063b9734b4",
        "to": "0xbf4a322f1496e5c3d34a9bcdb4c60567b38c7de2",
        "gas": "0x16fea",
        "value": "0x0",
        "input": "0xe4849b32000000000000000000000000000000000000000000000035b5395324565a2f22",
        "nonce": "0x901",
        "chainId": "0xaa36a7"
      },
      "additionalContracts": [],
      "isFixedGasLimit": false
    }
  ],
  "receipts": [
    {
      "status": "0x1",
      "cumulativeGasUsed": "0x1358a14",
      "logs": [
        {
          "address": "0xbf4a322f1496e5c3d34a9bcdb4c60567b38c7de2",
          "topics": [
            "0xddf252ad1be2c89b69c2b068fc378daa952ba7f163c4a11628f55a4df523b3ef",
            "0x000000000000000000000000c77f7fed3b5cc8249adc428c5f44c9063b9734b4",
            "0x0000000000000000000000000000000000000000000000000000000000000000"
          ],
          "data": "0x000000000000000000000000000000000000000000000035b5395324565a2f22",
          "blockHash": "0x4892ccfcbda7ff8b5ea2398a56a67be9c4fc642961fc81d3a2778c5ddf91efac",
          "blockNumber": "0x725879",
          "transactionHash": "0xc56a332f8d2801068ebd7b3a2c7caeafc9e18f3ebbc9dcafb79b69a1a4711fba",
          "transactionIndex": "0x44",
          "logIndex": "0x64",
          "removed": false
        },
        {
          "address": "0xbf4a322f1496e5c3d34a9bcdb4c60567b38c7de2",
          "topics": [
            "0x4afcb4a87cdbd9974efdb92ee48bc8d7cd0ae4bf217004db3d080cbaee652ca7"
          ],
          "data": "0x00000000000000000000000000000000000000000000000000000000678717d800000000000000000000000000000000000000000000000000038f99df51bb250000000000000000000000000000000000000000000000000dc7e3fb07082ddb",
          "blockHash": "0x4892ccfcbda7ff8b5ea2398a56a67be9c4fc642961fc81d3a2778c5ddf91efac",
          "blockNumber": "0x725879",
          "transactionHash": "0xc56a332f8d2801068ebd7b3a2c7caeafc9e18f3ebbc9dcafb79b69a1a4711fba",
          "transactionIndex": "0x44",
          "logIndex": "0x65",
          "removed": false
        }
      ],
      "logsBloom": "0x00000000000000000000000000000000000000000000000000000000000000000000000000000000000000000000000000000000000000004000000000000000000000000000000000000008000000000000001000000000000000000000000000000000020000000000000000000800020000000000000000000010000000000000000000000000000000000000000000000000000008000000010000000000000000000000000000000000000000004000000000000000000000000000000000000002000000800000000000001000000000000000080000000000000020000000000000000000000000000000000000000000000000000000000000000000",
      "type": "0x2",
      "transactionHash": "0xc56a332f8d2801068ebd7b3a2c7caeafc9e18f3ebbc9dcafb79b69a1a4711fba",
      "transactionIndex": "0x44",
      "blockHash": "0x4892ccfcbda7ff8b5ea2398a56a67be9c4fc642961fc81d3a2778c5ddf91efac",
      "blockNumber": "0x725879",
      "gasUsed": "0xfb91",
      "effectiveGasPrice": "0x2baea9f6",
      "from": "0xc77f7fed3b5cc8249adc428c5f44c9063b9734b4",
      "to": "0xbf4a322f1496e5c3d34a9bcdb4c60567b38c7de2",
      "contractAddress": null
    }
  ],
  "libraries": [],
  "pending": [],
  "returns": {},
  "timestamp": 1736906714,
  "chain": 11155111,
  "commit": "51a374b"
}