{
  "transactions": [
    {
      "hash": "0xeebb2b7763d11f7ce5495f0c603234e2eb1d18ba39f3ada14b5b0988cc1da6b9",
      "transactionType": "CALL",
      "contractName": null,
      "contractAddress": "0x8aafd3ede9adb0ff97c7aebce82a919afb1c8764",
      "function": "sell(uint256)",
      "arguments": [
        "121800274346727"
      ],
      "transaction": {
        "from": "0xc77f7fed3b5cc8249adc428c5f44c9063b9734b4",
        "to": "0x8aafd3ede9adb0ff97c7aebce82a919afb1c8764",
        "gas": "0x15daa",
        "value": "0x0",
        "input": "0xe4849b3200000000000000000000000000000000000000000000000000006ec6d61602e7",
        "nonce": "0x1445",
        "chainId": "0xaa36a7"
      },
      "additionalContracts": [],
      "isFixedGasLimit": false
    }
  ],
  "receipts": [
    {
      "status": "0x1",
      "cumulativeGasUsed": "0x43a8a8",
      "logs": [
        {
          "address": "0x8aafd3ede9adb0ff97c7aebce82a919afb1c8764",
          "topics": [
            "0xddf252ad1be2c89b69c2b068fc378daa952ba7f163c4a11628f55a4df523b3ef",
            "0x000000000000000000000000c77f7fed3b5cc8249adc428c5f44c9063b9734b4",
            "0x0000000000000000000000000000000000000000000000000000000000000000"
          ],
          "data": "0x00000000000000000000000000000000000000000000000000006de3f7307592",
          "blockHash": "0xa811f17d3be0dc069e2e30c22e9a1946e9b0ef4d032743bb61e228091a3e4292",
          "blockNumber": "0x731b88",
          "transactionHash": "0xeebb2b7763d11f7ce5495f0c603234e2eb1d18ba39f3ada14b5b0988cc1da6b9",
          "transactionIndex": "0x13",
          "logIndex": "0x1e",
          "removed": false
        },
        {
          "address": "0x8aafd3ede9adb0ff97c7aebce82a919afb1c8764",
          "topics": [
            "0xddf252ad1be2c89b69c2b068fc378daa952ba7f163c4a11628f55a4df523b3ef",
            "0x000000000000000000000000c77f7fed3b5cc8249adc428c5f44c9063b9734b4",
            "0x000000000000000000000000c77f7fed3b5cc8249adc428c5f44c9063b9734b4"
          ],
          "data": "0x000000000000000000000000000000000000000000000000000000e2dee58d55",
          "blockHash": "0xa811f17d3be0dc069e2e30c22e9a1946e9b0ef4d032743bb61e228091a3e4292",
          "blockNumber": "0x731b88",
          "transactionHash": "0xeebb2b7763d11f7ce5495f0c603234e2eb1d18ba39f3ada14b5b0988cc1da6b9",
          "transactionIndex": "0x13",
          "logIndex": "0x1f",
          "removed": false
        },
        {
          "address": "0x8aafd3ede9adb0ff97c7aebce82a919afb1c8764",
          "topics": [
            "0x4afcb4a87cdbd9974efdb92ee48bc8d7cd0ae4bf217004db3d080cbaee652ca7"
          ],
          "data": "0x000000000000000000000000000000000000000000000000000000006790473c000000000000000000000000000000000000000000000000000eeec08b63179800000000000000000000000000000000000000000000000000000077325d668e",
          "blockHash": "0xa811f17d3be0dc069e2e30c22e9a1946e9b0ef4d032743bb61e228091a3e4292",
          "blockNumber": "0x731b88",
          "transactionHash": "0xeebb2b7763d11f7ce5495f0c603234e2eb1d18ba39f3ada14b5b0988cc1da6b9",
          "transactionIndex": "0x13",
          "logIndex": "0x20",
          "removed": false
        }
      ],
      "logsBloom": "0x00000000000000000000000000000000000000000600000000000000000000000000000000000000000000000000000000000000000000004000000000000000000000000000004000000008000000000000000000000000000000000000000000000000020000000000000000000800020000000000000000000010000000000000000000000000000000000000000000000000000000000000010000000000000000000000000000000000000000004000000000000000000000000000000000000002000000800000000000000000000000000000080000000000000020000000000000000000000000000000000000000000000000000000000000000000",
      "type": "0x2",
      "transactionHash": "0xeebb2b7763d11f7ce5495f0c603234e2eb1d18ba39f3ada14b5b0988cc1da6b9",
      "transactionIndex": "0x13",
      "blockHash": "0xa811f17d3be0dc069e2e30c22e9a1946e9b0ef4d032743bb61e228091a3e4292",
      "blockNumber": "0x731b88",
      "gasUsed": "0xfd27",
      "effectiveGasPrice": "0x114bf67f1",
      "from": "0xc77f7fed3b5cc8249adc428c5f44c9063b9734b4",
      "to": "0x8aafd3ede9adb0ff97c7aebce82a919afb1c8764",
      "contractAddress": null
    }
  ],
  "libraries": [],
  "pending": [],
  "returns": {},
  "timestamp": 1737508669,
  "chain": 11155111,
  "commit": "1d2fb70"
}