{
  "transactions": [
    {
      "hash": "0x40feefb5c679fe2e12bdbb97fc09c66f0ec61764929f29521d3bc5712a048454",
      "transactionType": "CALL",
      "contractName": null,
      "contractAddress": "0x270e88f8683660553e8ba4eb2ad7c91a1710d769",
      "function": "buy(address)",
      "arguments": [
        "0xC77f7fed3b5Cc8249aDc428c5F44C9063B9734b4"
      ],
      "transaction": {
        "from": "0xc77f7fed3b5cc8249adc428c5f44c9063b9734b4",
        "to": "0x270e88f8683660553e8ba4eb2ad7c91a1710d769",
        "gas": "0x1b30c",
        "value": "0xde0b6b3a7640000",
        "input": "0xf088d547000000000000000000000000c77f7fed3b5cc8249adc428c5f44c9063b9734b4",
        "nonce": "0x729",
        "chainId": "0xaa36a7"
      },
      "additionalContracts": [],
      "isFixedGasLimit": false
    }
  ],
  "receipts": [
    {
      "status": "0x1",
      "cumulativeGasUsed": "0x65ee06",
      "logs": [
        {
          "address": "0x270e88f8683660553e8ba4eb2ad7c91a1710d769",
          "topics": [
            "0xddf252ad1be2c89b69c2b068fc378daa952ba7f163c4a11628f55a4df523b3ef",
            "0x0000000000000000000000000000000000000000000000000000000000000000",
            "0x000000000000000000000000c77f7fed3b5cc8249adc428c5f44c9063b9734b4"
          ],
          "data": "0x00000000000000000000000000000000000000000000002813b5ddc0dac969e1",
          "blockHash": "0x46a4d4593415299ec0f0d394e6ccba8574c76feb35a4f78f9a719a0e053bfc1c",
          "blockNumber": "0x725448",
          "transactionHash": "0x40feefb5c679fe2e12bdbb97fc09c66f0ec61764929f29521d3bc5712a048454",
          "transactionIndex": "0x2b",
          "logIndex": "0x5c",
          "removed": false
        },
        {
          "address": "0x270e88f8683660553e8ba4eb2ad7c91a1710d769",
          "topics": [
            "0xddf252ad1be2c89b69c2b068fc378daa952ba7f163c4a11628f55a4df523b3ef",
            "0x0000000000000000000000000000000000000000000000000000000000000000",
            "0x000000000000000000000000c77f7fed3b5cc8249adc428c5f44c9063b9734b4"
          ],
          "data": "0x0000000000000000000000000000000000000000000000001f1f03dd3cb68990",
          "blockHash": "0x46a4d4593415299ec0f0d394e6ccba8574c76feb35a4f78f9a719a0e053bfc1c",
          "blockNumber": "0x725448",
          "transactionHash": "0x40feefb5c679fe2e12bdbb97fc09c66f0ec61764929f29521d3bc5712a048454",
          "transactionIndex": "0x2b",
          "logIndex": "0x5d",
          "removed": false
        },
        {
          "address": "0x270e88f8683660553e8ba4eb2ad7c91a1710d769",
          "topics": [
            "0x4afcb4a87cdbd9974efdb92ee48bc8d7cd0ae4bf217004db3d080cbaee652ca7"
          ],
          "data": "0x000000000000000000000000000000000000000000000000000000006786e5680000000000000000000000000000000000000000000000000004c2079802c5900000000000000000000000000000000000000000000000000de0b6b3a7640000",
          "blockHash": "0x46a4d4593415299ec0f0d394e6ccba8574c76feb35a4f78f9a719a0e053bfc1c",
          "blockNumber": "0x725448",
          "transactionHash": "0x40feefb5c679fe2e12bdbb97fc09c66f0ec61764929f29521d3bc5712a048454",
          "transactionIndex": "0x2b",
          "logIndex": "0x5e",
          "removed": false
        }
      ],
      "logsBloom": "0x00000000000000000000000000000000000000000000000000000000000000000000000000000000000000000000000020000000000000004000000000000000000000000000000000000008000000000000000000000000000000000000000000000000020000000000000000000800020000000000000000000010000000000000000000010000000000000000000000000000000000000000010000000000000000000000000000000000000000004000000000000000000000000000000000000002000000800000000000000000000000000000080000008000000020000000000000000000000000000000000000000000000000000000000000000000",
      "type": "0x2",
      "transactionHash": "0x40feefb5c679fe2e12bdbb97fc09c66f0ec61764929f29521d3bc5712a048454",
      "transactionIndex": "0x2b",
      "blockHash": "0x46a4d4593415299ec0f0d394e6ccba8574c76feb35a4f78f9a719a0e053bfc1c",
      "blockNumber": "0x725448",
      "gasUsed": "0x13af8",
      "effectiveGasPrice": "0x14f6ad3bc",
      "from": "0xc77f7fed3b5cc8249adc428c5f44c9063b9734b4",
      "to": "0x270e88f8683660553e8ba4eb2ad7c91a1710d769",
      "contractAddress": null
    }
  ],
  "libraries": [],
  "pending": [],
  "returns": {},
  "timestamp": 1736893802,
  "chain": 11155111,
  "commit": "51a374b"
}