{
  "transactions": [
    {
      "hash": "0x7bb210f57be7206978affbb39278a3a5d0915fb2be773f3a6c25e27333b8ded5",
      "transactionType": "CALL",
      "contractName": null,
      "contractAddress": "0xbf4a322f1496e5c3d34a9bcdb4c60567b38c7de2",
      "function": "sell(uint256)",
      "arguments": [
        "976320839377369701120"
      ],
      "transaction": {
        "from": "0xc77f7fed3b5cc8249adc428c5f44c9063b9734b4",
        "to": "0xbf4a322f1496e5c3d34a9bcdb4c60567b38c7de2",
        "gas": "0x15b68",
        "value": "0x0",
        "input": "0xe4849b32000000000000000000000000000000000000000000000034ed2c66a4eb541b00",
        "nonce": "0xd2b",
        "chainId": "0xaa36a7"
      },
      "additionalContracts": [],
      "isFixedGasLimit": false
    }
  ],
  "receipts": [
    {
      "status": "0x1",
      "cumulativeGasUsed": "0x942b7b",
      "logs": [
        {
          "address": "0xbf4a322f1496e5c3d34a9bcdb4c60567b38c7de2",
          "topics": [
            "0xddf252ad1be2c89b69c2b068fc378daa952ba7f163c4a11628f55a4df523b3ef",
            "0x000000000000000000000000c77f7fed3b5cc8249adc428c5f44c9063b9734b4",
            "0x0000000000000000000000000000000000000000000000000000000000000000"
          ],
          "data": "0x000000000000000000000000000000000000000000000034ed2c66a4eb541b00",
          "blockHash": "0xf3a0936b69ee6ae49197cabebfb93284b4518f61974457447b4c8fd34230ad40",
          "blockNumber": "0x725d8e",
          "transactionHash": "0x7bb210f57be7206978affbb39278a3a5d0915fb2be773f3a6c25e27333b8ded5",
          "transactionIndex": "0x59",
          "logIndex": "0xb8",
          "removed": false
        },
        {
          "address": "0xbf4a322f1496e5c3d34a9bcdb4c60567b38c7de2",
          "topics": [
            "0x4afcb4a87cdbd9974efdb92ee48bc8d7cd0ae4bf217004db3d080cbaee652ca7"
          ],
          "data": "0x000000000000000000000000000000000000000000000000000000006787551c00000000000000000000000000000000000000000000000000039d0f6e2c5d740000000000000000000000000000000000000000000000000dc7e3d983199dee",
          "blockHash": "0xf3a0936b69ee6ae49197cabebfb93284b4518f61974457447b4c8fd34230ad40",
          "blockNumber": "0x725d8e",
          "transactionHash": "0x7bb210f57be7206978affbb39278a3a5d0915fb2be773f3a6c25e27333b8ded5",
          "transactionIndex": "0x59",
          "logIndex": "0xb9",
          "removed": false
        }
      ],
      "logsBloom": "0x00000000000000000000000000000000000000000000000000000000000000000000000000000000000000000000000000000000000000004000000000000000000000000000000000000008000000000000001000000000000000000000000000000000020000000000000000000800020000000000000000000010000000000000000000000000000000000000000000000000000008000000010000000000000000000000000000000000000000004000000000000000000000000000000000000002000000800000000000001000000000000000080000000000000020000000000000000000000000000000000000000000000000000000000000000000",
      "type": "0x2",
      "transactionHash": "0x7bb210f57be7206978affbb39278a3a5d0915fb2be773f3a6c25e27333b8ded5",
      "transactionIndex": "0x59",
      "blockHash": "0xf3a0936b69ee6ae49197cabebfb93284b4518f61974457447b4c8fd34230ad40",
      "blockNumber": "0x725d8e",
      "gasUsed": "0xfb85",
      "effectiveGasPrice": "0x260458bde",
      "from": "0xc77f7fed3b5cc8249adc428c5f44c9063b9734b4",
      "to": "0xbf4a322f1496e5c3d34a9bcdb4c60567b38c7de2",
      "contractAddress": null
    }
  ],
  "libraries": [],
  "pending": [],
  "returns": {},
  "timestamp": 1736922397,
  "chain": 11155111,
  "commit": "51a374b"
}