{
  "transactions": [
    {
      "hash": "0xca5f3ba6c68cfb6c8da37520f403582a95b4516d03e5639b449d7c05c7352d1e",
      "transactionType": "CALL",
      "contractName": null,
      "contractAddress": "0xbf4a322f1496e5c3d34a9bcdb4c60567b38c7de2",
      "function": "sell(uint256)",
      "arguments": [
        "986990305638927208234"
      ],
      "transaction": {
        "from": "0xc77f7fed3b5cc8249adc428c5f44c9063b9734b4",
        "to": "0xbf4a322f1496e5c3d34a9bcdb4c60567b38c7de2",
        "gas": "0x16fea",
        "value": "0x0",
        "input": "0xe4849b32000000000000000000000000000000000000000000000035813df5ae0a7a8f2a",
        "nonce": "0xa13",
        "chainId": "0xaa36a7"
      },
      "additionalContracts": [],
      "isFixedGasLimit": false
    }
  ],
  "receipts": [
    {
      "status": "0x1",
      "cumulativeGasUsed": "0x19cfd20",
      "logs": [
        {
          "address": "0xbf4a322f1496e5c3d34a9bcdb4c60567b38c7de2",
          "topics": [
            "0xddf252ad1be2c89b69c2b068fc378daa952ba7f163c4a11628f55a4df523b3ef",
            "0x000000000000000000000000c77f7fed3b5cc8249adc428c5f44c9063b9734b4",
            "0x0000000000000000000000000000000000000000000000000000000000000000"
          ],
          "data": "0x000000000000000000000000000000000000000000000035813df5ae0a7a8f2a",
          "blockHash": "0xd689529f32e30f62169ec7c6010e1b7734a26b727f345797cf184f1c071e6b70",
          "blockNumber": "0x7259d2",
          "transactionHash": "0xca5f3ba6c68cfb6c8da37520f403582a95b4516d03e5639b449d7c05c7352d1e",
          "transactionIndex": "0x74",
          "logIndex": "0xb9",
          "removed": false
        },
        {
          "address": "0xbf4a322f1496e5c3d34a9bcdb4c60567b38c7de2",
          "topics": [
            "0x4afcb4a87cdbd9974efdb92ee48bc8d7cd0ae4bf217004db3d080cbaee652ca7"
          ],
          "data": "0x000000000000000000000000000000000000000000000000000000006787281c0000000000000000000000000000000000000000000000000003930f804c1df20000000000000000000000000000000000000000000000000dc7e3f2519f843f",
          "blockHash": "0xd689529f32e30f62169ec7c6010e1b7734a26b727f345797cf184f1c071e6b70",
          "blockNumber": "0x7259d2",
          "transactionHash": "0xca5f3ba6c68cfb6c8da37520f403582a95b4516d03e5639b449d7c05c7352d1e",
          "transactionIndex": "0x74",
          "logIndex": "0xba",
          "removed": false
        }
      ],
      "logsBloom": "0x00000000000000000000000000000000000000000000000000000000000000000000000000000000000000000000000000000000000000004000000000000000000000000000000000000008000000000000001000000000000000000000000000000000020000000000000000000800020000000000000000000010000000000000000000000000000000000000000000000000000008000000010000000000000000000000000000000000000000004000000000000000000000000000000000000002000000800000000000001000000000000000080000000000000020000000000000000000000000000000000000000000000000000000000000000000",
      "type": "0x2",
      "transactionHash": "0xca5f3ba6c68cfb6c8da37520f403582a95b4516d03e5639b449d7c05c7352d1e",
      "transactionIndex": "0x74",
      "blockHash": "0xd689529f32e30f62169ec7c6010e1b7734a26b727f345797cf184f1c071e6b70",
      "blockNumber": "0x7259d2",
      "gasUsed": "0xfb91",
      "effectiveGasPrice": "0x419f4069a",
      "from": "0xc77f7fed3b5cc8249adc428c5f44c9063b9734b4",
      "to": "0xbf4a322f1496e5c3d34a9bcdb4c60567b38c7de2",
      "contractAddress": null
    }
  ],
  "libraries": [],
  "pending": [],
  "returns": {},
  "timestamp": 1736910879,
  "chain": 11155111,
  "commit": "51a374b"
}