{
  "transactions": [
    {
      "hash": "0xce71e9d0101e2a8449b600a5b7abebd1a0d3a16a0903ceb47ac6c87480f171f2",
      "transactionType": "CALL",
      "contractName": null,
      "contractAddress": "0x8aafd3ede9adb0ff97c7aebce82a919afb1c8764",
      "function": "sell(uint256)",
      "arguments": [
        "5935862608259455667"
      ],
      "transaction": {
        "from": "0xc77f7fed3b5cc8249adc428c5f44c9063b9734b4",
        "to": "0x8aafd3ede9adb0ff97c7aebce82a919afb1c8764",
        "gas": "0x15dca",
        "value": "0x0",
        "input": "0xe4849b3200000000000000000000000000000000000000000000000052606b97b8d41ab3",
        "nonce": "0xf68",
        "chainId": "0xaa36a7"
      },
      "additionalContracts": [],
      "isFixedGasLimit": false
    }
  ],
  "receipts": [
    {
      "status": "0x1",
      "cumulativeGasUsed": "0xb909b4",
      "logs": [
        {
          "address": "0x8aafd3ede9adb0ff97c7aebce82a919afb1c8764",
          "topics": [
            "0xddf252ad1be2c89b69c2b068fc378daa952ba7f163c4a11628f55a4df523b3ef",
            "0x000000000000000000000000c77f7fed3b5cc8249adc428c5f44c9063b9734b4",
            "0x0000000000000000000000000000000000000000000000000000000000000000"
          ],
          "data": "0x00000000000000000000000000000000000000000000000051b7b6820738ceb6",
          "blockHash": "0x4ea0bcf2eeaf4cd9a7984fd24c1aaad2e93325c11bf2372822c1b4c98134b922",
          "blockNumber": "0x7315c8",
          "transactionHash": "0xce71e9d0101e2a8449b600a5b7abebd1a0d3a16a0903ceb47ac6c87480f171f2",
          "transactionIndex": "0x7a",
          "logIndex": "0x99",
          "removed": false
        },
        {
          "address": "0x8aafd3ede9adb0ff97c7aebce82a919afb1c8764",
          "topics": [
            "0xddf252ad1be2c89b69c2b068fc378daa952ba7f163c4a11628f55a4df523b3ef",
            "0x000000000000000000000000c77f7fed3b5cc8249adc428c5f44c9063b9734b4",
            "0x000000000000000000000000c77f7fed3b5cc8249adc428c5f44c9063b9734b4"
          ],
          "data": "0x00000000000000000000000000000000000000000000000000a8b515b19b4bfd",
          "blockHash": "0x4ea0bcf2eeaf4cd9a7984fd24c1aaad2e93325c11bf2372822c1b4c98134b922",
          "blockNumber": "0x7315c8",
          "transactionHash": "0xce71e9d0101e2a8449b600a5b7abebd1a0d3a16a0903ceb47ac6c87480f171f2",
          "transactionIndex": "0x7a",
          "logIndex": "0x9a",
          "removed": false
        },
        {
          "address": "0x8aafd3ede9adb0ff97c7aebce82a919afb1c8764",
          "topics": [
            "0x4afcb4a87cdbd9974efdb92ee48bc8d7cd0ae4bf217004db3d080cbaee652ca7"
          ],
          "data": "0x000000000000000000000000000000000000000000000000000000006790020c0000000000000000000000000000000000000000000000000004c18382c81a1d000000000000000000000000000000000000000000000000001c3afbaf891306",
          "blockHash": "0x4ea0bcf2eeaf4cd9a7984fd24c1aaad2e93325c11bf2372822c1b4c98134b922",
          "blockNumber": "0x7315c8",
          "transactionHash": "0xce71e9d0101e2a8449b600a5b7abebd1a0d3a16a0903ceb47ac6c87480f171f2",
          "transactionIndex": "0x7a",
          "logIndex": "0x9b",
          "removed": false
        }
      ],
      "logsBloom": "0x00000000000000000000000000000000000000000600000000000000000000000000000000000000000000000000000000000000000000004000000000000000000000000000004000000008000000000000000000000000000000000000000000000000020000000000000000000800020000000000000000000010000000000000000000000000000000000000000000000000000000000000010000000000000000000000000000000000000000004000000000000000000000000000000000000002000000800000000000000000000000000000080000000000000020000000000000000000000000000000000000000000000000000000000000000000",
      "type": "0x2",
      "transactionHash": "0xce71e9d0101e2a8449b600a5b7abebd1a0d3a16a0903ceb47ac6c87480f171f2",
      "transactionIndex": "0x7a",
      "blockHash": "0x4ea0bcf2eeaf4cd9a7984fd24c1aaad2e93325c11bf2372822c1b4c98134b922",
      "blockNumber": "0x7315c8",
      "gasUsed": "0xfd3f",
      "effectiveGasPrice": "0x64e4888a",
      "from": "0xc77f7fed3b5cc8249adc428c5f44c9063b9734b4",
      "to": "0x8aafd3ede9adb0ff97c7aebce82a919afb1c8764",
      "contractAddress": null
    }
  ],
  "libraries": [],
  "pending": [],
  "returns": {},
  "timestamp": 1737490958,
  "chain": 11155111,
  "commit": "1d2fb70"
}