{
  "transactions": [
    {
      "hash": "0x7ea023d897163bdc4abcdf3cc2345dfe692178a678a4b17ca53cd4769f7b780a",
      "transactionType": "CALL",
      "contractName": null,
      "contractAddress": "0x8aafd3ede9adb0ff97c7aebce82a919afb1c8764",
      "function": "sell(uint256)",
      "arguments": [
        "2751450013742"
      ],
      "transaction": {
        "from": "0xc77f7fed3b5cc8249adc428c5f44c9063b9734b4",
        "to": "0x8aafd3ede9adb0ff97c7aebce82a919afb1c8764",
        "gas": "0x15daa",
        "value": "0x0",
        "input": "0xe4849b32000000000000000000000000000000000000000000000000000002809f33602e",
        "nonce": "0x1275",
        "chainId": "0xaa36a7"
      },
      "additionalContracts": [],
      "isFixedGasLimit": false
    }
  ],
  "receipts": [
    {
      "status": "0x1",
      "cumulativeGasUsed": "0xe51911",
      "logs": [
        {
          "address": "0x8aafd3ede9adb0ff97c7aebce82a919afb1c8764",
          "topics": [
            "0xddf252ad1be2c89b69c2b068fc378daa952ba7f163c4a11628f55a4df523b3ef",
            "0x000000000000000000000000c77f7fed3b5cc8249adc428c5f44c9063b9734b4",
            "0x0000000000000000000000000000000000000000000000000000000000000000"
          ],
          "data": "0x0000000000000000000000000000000000000000000000000000027b7f350341",
          "blockHash": "0xdc2fe28ebd1ca990cbaf7d32b326e00469c807f9c285587ea26f46185abe817d",
          "blockNumber": "0x73195f",
          "transactionHash": "0x7ea023d897163bdc4abcdf3cc2345dfe692178a678a4b17ca53cd4769f7b780a",
          "transactionIndex": "0xba",
          "logIndex": "0x12a",
          "removed": false
        },
        {
          "address": "0x8aafd3ede9adb0ff97c7aebce82a919afb1c8764",
          "topics": [
            "0xddf252ad1be2c89b69c2b068fc378daa952ba7f163c4a11628f55a4df523b3ef",
            "0x000000000000000000000000c77f7fed3b5cc8249adc428c5f44c9063b9734b4",
            "0x000000000000000000000000c77f7fed3b5cc8249adc428c5f44c9063b9734b4"
          ],
          "data": "0x000000000000000000000000000000000000000000000000000000051ffe5ced",
          "blockHash": "0xdc2fe28ebd1ca990cbaf7d32b326e00469c807f9c285587ea26f46185abe817d",
          "blockNumber": "0x73195f",
          "transactionHash": "0x7ea023d897163bdc4abcdf3cc2345dfe692178a678a4b17ca53cd4769f7b780a",
          "transactionIndex": "0xba",
          "logIndex": "0x12b",
          "removed": false
        },
        {
          "address": "0x8aafd3ede9adb0ff97c7aebce82a919afb1c8764",
          "topics": [
            "0x4afcb4a87cdbd9974efdb92ee48bc8d7cd0ae4bf217004db3d080cbaee652ca7"
          ],
          "data": "0x0000000000000000000000000000000000000000000000000000000067902d44000000000000000000000000000000000000000000000000000541eab990eadc00000000000000000000000000000000000000000000000000000000f2b1c5ea",
          "blockHash": "0xdc2fe28ebd1ca990cbaf7d32b326e00469c807f9c285587ea26f46185abe817d",
          "blockNumber": "0x73195f",
          "transactionHash": "0x7ea023d897163bdc4abcdf3cc2345dfe692178a678a4b17ca53cd4769f7b780a",
          "transactionIndex": "0xba",
          "logIndex": "0x12c",
          "removed": false
        }
      ],
      "logsBloom": "0x00000000000000000000000000000000000000000600000000000000000000000000000000000000000000000000000000000000000000004000000000000000000000000000004000000008000000000000000000000000000000000000000000000000020000000000000000000800020000000000000000000010000000000000000000000000000000000000000000000000000000000000010000000000000000000000000000000000000000004000000000000000000000000000000000000002000000800000000000000000000000000000080000000000000020000000000000000000000000000000000000000000000000000000000000000000",
      "type": "0x2",
      "transactionHash": "0x7ea023d897163bdc4abcdf3cc2345dfe692178a678a4b17ca53cd4769f7b780a",
      "transactionIndex": "0xba",
      "blockHash": "0xdc2fe28ebd1ca990cbaf7d32b326e00469c807f9c285587ea26f46185abe817d",
      "blockNumber": "0x73195f",
      "gasUsed": "0xfd27",
      "effectiveGasPrice": "0x38d052fb",
      "from": "0xc77f7fed3b5cc8249adc428c5f44c9063b9734b4",
      "to": "0x8aafd3ede9adb0ff97c7aebce82a919afb1c8764",
      "contractAddress": null
    }
  ],
  "libraries": [],
  "pending": [],
  "returns": {},
  "timestamp": 1737502021,
  "chain": 11155111,
  "commit": "1d2fb70"
}