{
  "transactions": [
    {
      "hash": "0x07637698e3a249276f8276c6348f9850eb1731632740849ba18c9672d3e464f8",
      "transactionType": "CALL",
      "contractName": null,
      "contractAddress": "0xbf4a322f1496e5c3d34a9bcdb4c60567b38c7de2",
      "function": "sell(uint256)",
      "arguments": [
        "989748976566990415713"
      ],
      "transaction": {
        "from": "0xc77f7fed3b5cc8249adc428c5f44c9063b9734b4",
        "to": "0xbf4a322f1496e5c3d34a9bcdb4c60567b38c7de2",
        "gas": "0x16fea",
        "value": "0x0",
        "input": "0xe4849b32000000000000000000000000000000000000000000000035a786ba45d9e22761",
        "nonce": "0x949",
        "chainId": "0xaa36a7"
      },
      "additionalContracts": [],
      "isFixedGasLimit": false
    }
  ],
  "receipts": [
    {
      "status": "0x1",
      "cumulativeGasUsed": "0xf09a2a",
      "logs": [
        {
          "address": "0xbf4a322f1496e5c3d34a9bcdb4c60567b38c7de2",
          "topics": [
            "0xddf252ad1be2c89b69c2b068fc378daa952ba7f163c4a11628f55a4df523b3ef",
            "0x000000000000000000000000c77f7fed3b5cc8249adc428c5f44c9063b9734b4",
            "0x0000000000000000000000000000000000000000000000000000000000000000"
          ],
          "data": "0x000000000000000000000000000000000000000000000035a786ba45d9e22761",
          "blockHash": "0xea2d302b9730007bf843f270fbe67334c5baed6b38708c74c786b4fde76a647a",
          "blockNumber": "0x7258d5",
          "transactionHash": "0x07637698e3a249276f8276c6348f9850eb1731632740849ba18c9672d3e464f8",
          "transactionIndex": "0x52",
          "logIndex": "0x6a",
          "removed": false
        },
        {
          "address": "0xbf4a322f1496e5c3d34a9bcdb4c60567b38c7de2",
          "topics": [
            "0x4afcb4a87cdbd9974efdb92ee48bc8d7cd0ae4bf217004db3d080cbaee652ca7"
          ],
          "data": "0x0000000000000000000000000000000000000000000000000000000067871c28000000000000000000000000000000000000000000000000000390829797c3d60000000000000000000000000000000000000000000000000dc7e3f8bb91344a",
          "blockHash": "0xea2d302b9730007bf843f270fbe67334c5baed6b38708c74c786b4fde76a647a",
          "blockNumber": "0x7258d5",
          "transactionHash": "0x07637698e3a249276f8276c6348f9850eb1731632740849ba18c9672d3e464f8",
          "transactionIndex": "0x52",
          "logIndex": "0x6b",
          "removed": false
        }
      ],
      "logsBloom": "0x00000000000000000000000000000000000000000000000000000000000000000000000000000000000000000000000000000000000000004000000000000000000000000000000000000008000000000000001000000000000000000000000000000000020000000000000000000800020000000000000000000010000000000000000000000000000000000000000000000000000008000000010000000000000000000000000000000000000000004000000000000000000000000000000000000002000000800000000000001000000000000000080000000000000020000000000000000000000000000000000000000000000000000000000000000000",
      "type": "0x2",
      "transactionHash": "0x07637698e3a249276f8276c6348f9850eb1731632740849ba18c9672d3e464f8",
      "transactionIndex": "0x52",
      "blockHash": "0xea2d302b9730007bf843f270fbe67334c5baed6b38708c74c786b4fde76a647a",
      "blockNumber": "0x7258d5",
      "gasUsed": "0xfb91",
      "effectiveGasPrice": "0x6c68bb78",
      "from": "0xc77f7fed3b5cc8249adc428c5f44c9063b9734b4",
      "to": "0xbf4a322f1496e5c3d34a9bcdb4c60567b38c7de2",
      "contractAddress": null
    }
  ],
  "libraries": [],
  "pending": [],
  "returns": {},
  "timestamp": 1736907818,
  "chain": 11155111,
  "commit": "51a374b"
}