{
  "transactions": [
    {
      "hash": "0xcf7224dfdd8d513aa07fa26ead43557a3805ddec04c3f1bbe83130093f5b90dc",
      "transactionType": "CALL",
      "contractName": null,
      "contractAddress": "0x8aafd3ede9adb0ff97c7aebce82a919afb1c8764",
      "function": "sell(uint256)",
      "arguments": [
        "463445"
      ],
      "transaction": {
        "from": "0xc77f7fed3b5cc8249adc428c5f44c9063b9734b4",
        "to": "0x8aafd3ede9adb0ff97c7aebce82a919afb1c8764",
        "gas": "0x16208",
        "value": "0x0",
        "input": "0xe4849b320000000000000000000000000000000000000000000000000000000000071255",
        "nonce": "0x14ac",
        "chainId": "0xaa36a7"
      },
      "additionalContracts": [],
      "isFixedGasLimit": false
    }
  ],
  "receipts": [
    {
      "status": "0x1",
      "cumulativeGasUsed": "0xe05246",
      "logs": [
        {
          "address": "0x8aafd3ede9adb0ff97c7aebce82a919afb1c8764",
          "topics": [
            "0xddf252ad1be2c89b69c2b068fc378daa952ba7f163c4a11628f55a4df523b3ef",
            "0x000000000000000000000000c77f7fed3b5cc8249adc428c5f44c9063b9734b4",
            "0x0000000000000000000000000000000000000000000000000000000000000000"
          ],
          "data": "0x00000000000000000000000000000000000000000000000000000000000703da",
          "blockHash": "0xe117f1703f2be80841b294923355457ce5005727ae80f4a75bacedcc80f46d1f",
          "blockNumber": "0x731c02",
          "transactionHash": "0xcf7224dfdd8d513aa07fa26ead43557a3805ddec04c3f1bbe83130093f5b90dc",
          "transactionIndex": "0x6c",
          "logIndex": "0xb8",
          "removed": false
        },
        {
          "address": "0x8aafd3ede9adb0ff97c7aebce82a919afb1c8764",
          "topics": [
            "0xddf252ad1be2c89b69c2b068fc378daa952ba7f163c4a11628f55a4df523b3ef",
            "0x000000000000000000000000c77f7fed3b5cc8249adc428c5f44c9063b9734b4",
            "0x000000000000000000000000c77f7fed3b5cc8249adc428c5f44c9063b9734b4"
          ],
          "data": "0x0000000000000000000000000000000000000000000000000000000000000e7b",
          "blockHash": "0xe117f1703f2be80841b294923355457ce5005727ae80f4a75bacedcc80f46d1f",
          "blockNumber": "0x731c02",
          "transactionHash": "0xcf7224dfdd8d513aa07fa26ead43557a3805ddec04c3f1bbe83130093f5b90dc",
          "transactionIndex": "0x6c",
          "logIndex": "0xb9",
          "removed": false
        },
        {
          "address": "0x8aafd3ede9adb0ff97c7aebce82a919afb1c8764",
          "topics": [
            "0x4afcb4a87cdbd9974efdb92ee48bc8d7cd0ae4bf217004db3d080cbaee652ca7"
          ],
          "data": "0x0000000000000000000000000000000000000000000000000000000067904cf40000000000000000000000000000000000000000000000000010113ed13ba5fd000000000000000000000000000000000000000000000000000000000000082f",
          "blockHash": "0xe117f1703f2be80841b294923355457ce5005727ae80f4a75bacedcc80f46d1f",
          "blockNumber": "0x731c02",
          "transactionHash": "0xcf7224dfdd8d513aa07fa26ead43557a3805ddec04c3f1bbe83130093f5b90dc",
          "transactionIndex": "0x6c",
          "logIndex": "0xba",
          "removed": false
        }
      ],
      "logsBloom": "0x00000000000000000000000000000000000000000600000000000000000000000000000000000000000000000000000000000000000000004000000000000000000000000000004000000008000000000000000000000000000000000000000000000000020000000000000000000800020000000000000000000010000000000000000000000000000000000000000000000000000000000000010000000000000000000000000000000000000000004000000000000000000000000000000000000002000000800000000000000000000000000000080000000000000020000000000000000000000000000000000000000000000000000000000000000000",
      "type": "0x2",
      "transactionHash": "0xcf7224dfdd8d513aa07fa26ead43557a3805ddec04c3f1bbe83130093f5b90dc",
      "transactionIndex": "0x6c",
      "blockHash": "0xe117f1703f2be80841b294923355457ce5005727ae80f4a75bacedcc80f46d1f",
      "blockNumber": "0x731c02",
      "gasUsed": "0xf213",
      "effectiveGasPrice": "0x106f4673e",
      "from": "0xc77f7fed3b5cc8249adc428c5f44c9063b9734b4",
      "to": "0x8aafd3ede9adb0ff97c7aebce82a919afb1c8764",
      "contractAddress": null
    }
  ],
  "libraries": [],
  "pending": [],
  "returns": {},
  "timestamp": 1737510133,
  "chain": 11155111,
  "commit": "1d2fb70"
}