{
  "transactions": [
    {
      "hash": "0xe7f545aaf1c9534c277dee3be744887d25f785db903438c5536d361d3eccc374",
      "transactionType": "CALL",
      "contractName": null,
      "contractAddress": "0x3b71253dcecbaf453f48043c75f311253fd0ad31",
      "function": "sell(uint256)",
      "arguments": [
        "992518535105291612351834"
      ],
      "transaction": {
        "from": "0xc77f7fed3b5cc8249adc428c5f44c9063b9734b4",
        "to": "0x3b71253dcecbaf453f48043c75f311253fd0ad31",
        "gas": "0x15b8c",
        "value": "0x0",
        "input": "0xe4849b3200000000000000000000000000000000000000000000d22c89a021b0d8546d5a",
        "nonce": "0x4cb",
        "chainId": "0xaa36a7"
      },
      "additionalContracts": [],
      "isFixedGasLimit": false
    }
  ],
  "receipts": [
    {
      "status": "0x1",
      "cumulativeGasUsed": "0x654ea6",
      "logs": [
        {
          "address": "0x3b71253dcecbaf453f48043c75f311253fd0ad31",
          "topics": [
            "0xddf252ad1be2c89b69c2b068fc378daa952ba7f163c4a11628f55a4df523b3ef",
            "0x000000000000000000000000c77f7fed3b5cc8249adc428c5f44c9063b9734b4",
            "0x0000000000000000000000000000000000000000000000000000000000000000"
          ],
          "data": "0x00000000000000000000000000000000000000000000d22c89a021b0d8546d5a",
          "blockHash": "0xce70c18ab0caeb3df3762b7214cbea0fc4e5970b4c4db10b7e57a900ec384f6b",
          "blockNumber": "0x72511c",
          "transactionHash": "0xe7f545aaf1c9534c277dee3be744887d25f785db903438c5536d361d3eccc374",
          "transactionIndex": "0x41",
          "logIndex": "0x6e",
          "removed": false
        },
        {
          "address": "0x3b71253dcecbaf453f48043c75f311253fd0ad31",
          "topics": [
            "0x4afcb4a87cdbd9974efdb92ee48bc8d7cd0ae4bf217004db3d080cbaee652ca7"
          ],
          "data": "0x000000000000000000000000000000000000000000000000000000006786bf34000000000000000000000000000000000000000000000000000000e904e8af310000000000000000000000000000000000000000000000000dc8428697dc0117",
          "blockHash": "0xce70c18ab0caeb3df3762b7214cbea0fc4e5970b4c4db10b7e57a900ec384f6b",
          "blockNumber": "0x72511c",
          "transactionHash": "0xe7f545aaf1c9534c277dee3be744887d25f785db903438c5536d361d3eccc374",
          "transactionIndex": "0x41",
          "logIndex": "0x6f",
          "removed": false
        }
      ],
      "logsBloom": "0x00000000000000000000000000000000000000000000000000000000000000000000000000000000000000000000000000000000000000004000020000000000000000000000000000000008000000000000000000000000000000000000000000000000020000000000000000000800020000000000000000000010002000000000000000000000000000000000000000000000000000000000010000000000000000000000000000000000000000004000000000000000000000000000000000000002000000800000000000000000000000000000080000000000000020000000000000000000008000000000000000000000000000000000000000000000",
      "type": "0x2",
      "transactionHash": "0xe7f545aaf1c9534c277dee3be744887d25f785db903438c5536d361d3eccc374",
      "transactionIndex": "0x41",
      "blockHash": "0xce70c18ab0caeb3df3762b7214cbea0fc4e5970b4c4db10b7e57a900ec384f6b",
      "blockNumber": "0x72511c",
      "gasUsed": "0xfb9f",
      "effectiveGasPrice": "0x2a42f43fc",
      "from": "0xc77f7fed3b5cc8249adc428c5f44c9063b9734b4",
      "to": "0x3b71253dcecbaf453f48043c75f311253fd0ad31",
      "contractAddress": null
    }
  ],
  "libraries": [],
  "pending": [],
  "returns": {},
  "timestamp": 1736884022,
  "chain": 11155111,
  "commit": "51a374b"
}