{
  "transactions": [
    {
      "hash": "0xa47a7f61ce2dc8c7eefc9ea0127677773d1e4beb126dbaa3f697f3225fd57478",
      "transactionType": "CALL",
      "contractName": null,
      "contractAddress": "0xfbadd1869dac5d0ae1c71944e4ebe559a4e174f7",
      "function": "borrowMore(uint256)",
      "arguments": [
        "15023522082794391"
      ],
      "transaction": {
        "from": "0xf66076775ad1f36dd12c1f1b10c21d1aadf0d6de",
        "to": "0xfbadd1869dac5d0ae1c71944e4ebe559a4e174f7",
        "gas": "0x2613a",
        "value": "0x0",
        "input": "0x9d0bf2e900000000000000000000000000000000000000000000000000355fd051052b97",
        "nonce": "0x4c",
        "chainId": "0xaa36a7"
      },
      "additionalContracts": [],
      "isFixedGasLimit": false
    }
  ],
  "receipts": [
    {
      "status": "0x1",
      "cumulativeGasUsed": "0x88ad8c",
      "logs": [
        {
          "address": "0xfbadd1869dac5d0ae1c71944e4ebe559a4e174f7",
          "topics": [
            "0xddf252ad1be2c89b69c2b068fc378daa952ba7f163c4a11628f55a4df523b3ef",
            "0x000000000000000000000000f66076775ad1f36dd12c1f1b10c21d1aadf0d6de",
            "0x000000000000000000000000fbadd1869dac5d0ae1c71944e4ebe559a4e174f7"
          ],
          "data": "0x0000000000000000000000000000000000000000000000006c5bdc4ffa0d6586",
          "blockHash": "0xd9e12f1f80266e5ccf8dd76ca31462e8b2c3586f870a2e1fe0bf25d796f40a91",
          "blockNumber": "0x73d0c3",
          "transactionHash": "0xa47a7f61ce2dc8c7eefc9ea0127677773d1e4beb126dbaa3f697f3225fd57478",
          "transactionIndex": "0x57",
          "logIndex": "0x94",
          "removed": false
        },
        {
          "address": "0xfbadd1869dac5d0ae1c71944e4ebe559a4e174f7",
          "topics": [
            "0x03bbe564cb1b78e43195eeadbde99e5b89b19345862807fcfb59f884e4165e25"
          ],
          "data": "0x00000000000000000000000038818e389773445cd73adbaa37b8b169f458c6e100000000000000000000000000000000000000000000000000000419618254c6",
          "blockHash": "0xd9e12f1f80266e5ccf8dd76ca31462e8b2c3586f870a2e1fe0bf25d796f40a91",
          "blockNumber": "0x73d0c3",
          "transactionHash": "0xa47a7f61ce2dc8c7eefc9ea0127677773d1e4beb126dbaa3f697f3225fd57478",
          "transactionIndex": "0x57",
          "logIndex": "0x95",
          "removed": false
        },
        {
          "address": "0xfbadd1869dac5d0ae1c71944e4ebe559a4e174f7",
          "topics": [
            "0x03bbe564cb1b78e43195eeadbde99e5b89b19345862807fcfb59f884e4165e25"
          ],
          "data": "0x000000000000000000000000f66076775ad1f36dd12c1f1b10c21d1aadf0d6de000000000000000000000000000000000000000000000000003552266152bbad",
          "blockHash": "0xd9e12f1f80266e5ccf8dd76ca31462e8b2c3586f870a2e1fe0bf25d796f40a91",
          "blockNumber": "0x73d0c3",
          "transactionHash": "0xa47a7f61ce2dc8c7eefc9ea0127677773d1e4beb126dbaa3f697f3225fd57478",
          "transactionIndex": "0x57",
          "logIndex": "0x96",
          "removed": false
        },
        {
          "address": "0xfbadd1869dac5d0ae1c71944e4ebe559a4e174f7",
          "topics": [
            "0xaec00f5213a37254bc68a26b0685d1a5b2bf513e1e587c94c7df7f4a62b56c9c"
          ],
          "data": "0x0000000000000000000000000000000000000000000000017f23976852c9b118000000000000000000000000000000000000000000000000007b7b611af5d8b00000000000000000000000000000000000000000000000000e11a0b2612908b000000000000000000000000000000000000000000000002bc6fb71b98ee7a150",
          "blockHash": "0xd9e12f1f80266e5ccf8dd76ca31462e8b2c3586f870a2e1fe0bf25d796f40a91",
          "blockNumber": "0x73d0c3",
          "transactionHash": "0xa47a7f61ce2dc8c7eefc9ea0127677773d1e4beb126dbaa3f697f3225fd57478",
          "transactionIndex": "0x57",
          "logIndex": "0x97",
          "removed": false
        },
        {
          "address": "0xfbadd1869dac5d0ae1c71944e4ebe559a4e174f7",
          "topics": [
            "0x4afcb4a87cdbd9974efdb92ee48bc8d7cd0ae4bf217004db3d080cbaee652ca7"
          ],
          "data": "0x0000000000000000000000000000000000000000000000000000000067990c98000000000000000000000000000000000000000000000000000481499c9cafd300000000000000000000000000000000000000000000000000000da9efb26fea",
          "blockHash": "0xd9e12f1f80266e5ccf8dd76ca31462e8b2c3586f870a2e1fe0bf25d796f40a91",
          "blockNumber": "0x73d0c3",
          "transactionHash": "0xa47a7f61ce2dc8c7eefc9ea0127677773d1e4beb126dbaa3f697f3225fd57478",
          "transactionIndex": "0x57",
          "logIndex": "0x98",
          "removed": false
        }
      ],
      "logsBloom": "0x00000000000000040000000100000100400040000000000000000000000000000008000000000000000000000000000000012000000000004000000000000000000000000000000000000008000000000000000000000000000000000000000000000000000000000000000000000000220000000000000000000010000000000000000000000000000000000000008000000000000000000000000000000000000000000000000000000400000000004000000000000000000000001000000000000002000000000000000000000000000000000000000000000020000000000002000000002000000000000000000000000000000000000000000000000000",
      "type": "0x2",
      "transactionHash": "0xa47a7f61ce2dc8c7eefc9ea0127677773d1e4beb126dbaa3f697f3225fd57478",
      "transactionIndex": "0x57",
      "blockHash": "0xd9e12f1f80266e5ccf8dd76ca31462e8b2c3586f870a2e1fe0bf25d796f40a91",
      "blockNumber": "0x73d0c3",
      "gasUsed": "0x1a091",
      "effectiveGasPrice": "0x597f087b",
      "from": "0xf66076775ad1f36dd12c1f1b10c21d1aadf0d6de",
      "to": "0xfbadd1869dac5d0ae1c71944e4ebe559a4e174f7",
      "contractAddress": null
    }
  ],
  "libraries": [],
  "pending": [],
  "returns": {},
  "timestamp": 1738083480,
  "chain": 11155111,
  "commit": "f5162e9"
}