{
  "transactions": [
    {
      "hash": "0xdbb3a73db3c4aba42d43fbc4c6f1712b7650a7130875c567d01e8911917a76a3",
      "transactionType": "CALL",
      "contractName": null,
      "contractAddress": "0x8aafd3ede9adb0ff97c7aebce82a919afb1c8764",
      "function": "sell(uint256)",
      "arguments": [
        "200198792146144409706"
      ],
      "transaction": {
        "from": "0xc77f7fed3b5cc8249adc428c5f44c9063b9734b4",
        "to": "0x8aafd3ede9adb0ff97c7aebce82a919afb1c8764",
        "gas": "0x17270",
        "value": "0x0",
        "input": "0xe4849b3200000000000000000000000000000000000000000000000ada50fcc21d33386a",
        "nonce": "0x1535",
        "chainId": "0xaa36a7"
      },
      "additionalContracts": [],
      "isFixedGasLimit": false
    }
  ],
  "receipts": [
    {
      "status": "0x1",
      "cumulativeGasUsed": "0x11271b1",
      "logs": [
        {
          "address": "0x8aafd3ede9adb0ff97c7aebce82a919afb1c8764",
          "topics": [
            "0xddf252ad1be2c89b69c2b068fc378daa952ba7f163c4a11628f55a4df523b3ef",
            "0x000000000000000000000000c77f7fed3b5cc8249adc428c5f44c9063b9734b4",
            "0x0000000000000000000000000000000000000000000000000000000000000000"
          ],
          "data": "0x00000000000000000000000000000000000000000000000ac416fed50a88d39d",
          "blockHash": "0x0950bd9a8567f2829283fad350e87a5cee1bf11cb7e2f39ee58810945e6d882c",
          "blockNumber": "0x731c99",
          "transactionHash": "0xdbb3a73db3c4aba42d43fbc4c6f1712b7650a7130875c567d01e8911917a76a3",
          "transactionIndex": "0x80",
          "logIndex": "0xd1",
          "removed": false
        },
        {
          "address": "0x8aafd3ede9adb0ff97c7aebce82a919afb1c8764",
          "topics": [
            "0xddf252ad1be2c89b69c2b068fc378daa952ba7f163c4a11628f55a4df523b3ef",
            "0x000000000000000000000000c77f7fed3b5cc8249adc428c5f44c9063b9734b4",
            "0x000000000000000000000000c77f7fed3b5cc8249adc428c5f44c9063b9734b4"
          ],
          "data": "0x0000000000000000000000000000000000000000000000001639fded12aa64cd",
          "blockHash": "0x0950bd9a8567f2829283fad350e87a5cee1bf11cb7e2f39ee58810945e6d882c",
          "blockNumber": "0x731c99",
          "transactionHash": "0xdbb3a73db3c4aba42d43fbc4c6f1712b7650a7130875c567d01e8911917a76a3",
          "transactionIndex": "0x80",
          "logIndex": "0xd2",
          "removed": false
        },
        {
          "address": "0x8aafd3ede9adb0ff97c7aebce82a919afb1c8764",
          "topics": [
            "0x4afcb4a87cdbd9974efdb92ee48bc8d7cd0ae4bf217004db3d080cbaee652ca7"
          ],
          "data": "0x00000000000000000000000000000000000000000000000000000000679054080000000000000000000000000000000000000000000000000011b99b04116bb90000000000000000000000000000000000000000000000000dccf9fb331e23a3",
          "blockHash": "0x0950bd9a8567f2829283fad350e87a5cee1bf11cb7e2f39ee58810945e6d882c",
          "blockNumber": "0x731c99",
          "transactionHash": "0xdbb3a73db3c4aba42d43fbc4c6f1712b7650a7130875c567d01e8911917a76a3",
          "transactionIndex": "0x80",
          "logIndex": "0xd3",
          "removed": false
        }
      ],
      "logsBloom": "0x00000000000000000000000000000000000000000600000000000000000000000000000000000000000000000000000000000000000000004000000000000000000000000000004000000008000000000000000000000000000000000000000000000000020000000000000000000800020000000000000000000010000000000000000000000000000000000000000000000000000000000000010000000000000000000000000000000000000000004000000000000000000000000000000000000002000000800000000000000000000000000000080000000000000020000000000000000000000000000000000000000000000000000000000000000000",
      "type": "0x2",
      "transactionHash": "0xdbb3a73db3c4aba42d43fbc4c6f1712b7650a7130875c567d01e8911917a76a3",
      "transactionIndex": "0x80",
      "blockHash": "0x0950bd9a8567f2829283fad350e87a5cee1bf11cb7e2f39ee58810945e6d882c",
      "blockNumber": "0x731c99",
      "gasUsed": "0xfd4b",
      "effectiveGasPrice": "0xdf5acee6",
      "from": "0xc77f7fed3b5cc8249adc428c5f44c9063b9734b4",
      "to": "0x8aafd3ede9adb0ff97c7aebce82a919afb1c8764",
      "contractAddress": null
    }
  ],
  "libraries": [],
  "pending": [],
  "returns": {},
  "timestamp": 1737511945,
  "chain": 11155111,
  "commit": "1d2fb70"
}