{
  "transactions": [
    {
      "hash": "0x43c0cc10a9f2b3a8275ecdc839b61adf51111810eff480fcf2ec971fe821c0ca",
      "transactionType": "CALL",
      "contractName": null,
      "contractAddress": "0x270e88f8683660553e8ba4eb2ad7c91a1710d769",
      "function": "sell(uint256)",
      "arguments": [
        "947585769285280766782"
      ],
      "transaction": {
        "from": "0xc77f7fed3b5cc8249adc428c5f44c9063b9734b4",
        "to": "0x270e88f8683660553e8ba4eb2ad7c91a1710d769",
        "gas": "0x16fec",
        "value": "0x0",
        "input": "0xe4849b320000000000000000000000000000000000000000000000335e64eca3f06a9b3e",
        "nonce": "0x5ff",
        "chainId": "0xaa36a7"
      },
      "additionalContracts": [],
      "isFixedGasLimit": false
    }
  ],
  "receipts": [
    {
      "status": "0x1",
      "cumulativeGasUsed": "0x3dacbe",
      "logs": [
        {
          "address": "0x270e88f8683660553e8ba4eb2ad7c91a1710d769",
          "topics": [
            "0xddf252ad1be2c89b69c2b068fc378daa952ba7f163c4a11628f55a4df523b3ef",
            "0x000000000000000000000000c77f7fed3b5cc8249adc428c5f44c9063b9734b4",
            "0x0000000000000000000000000000000000000000000000000000000000000000"
          ],
          "data": "0x0000000000000000000000000000000000000000000000335e64eca3f06a9b3e",
          "blockHash": "0x2994b2ceb114c1e8f677a84d0044e9eed50a6f1f175ddd6e124eed65a628260a",
          "blockNumber": "0x7252c6",
          "transactionHash": "0x43c0cc10a9f2b3a8275ecdc839b61adf51111810eff480fcf2ec971fe821c0ca",
          "transactionIndex": "0x2d",
          "logIndex": "0x50",
          "removed": false
        },
        {
          "address": "0x270e88f8683660553e8ba4eb2ad7c91a1710d769",
          "topics": [
            "0x4afcb4a87cdbd9974efdb92ee48bc8d7cd0ae4bf217004db3d080cbaee652ca7"
          ],
          "data": "0x000000000000000000000000000000000000000000000000000000006786d3500000000000000000000000000000000000000000000000000003b960fb962f4a0000000000000000000000000000000000000000000000000dc83de91841d39d",
          "blockHash": "0x2994b2ceb114c1e8f677a84d0044e9eed50a6f1f175ddd6e124eed65a628260a",
          "blockNumber": "0x7252c6",
          "transactionHash": "0x43c0cc10a9f2b3a8275ecdc839b61adf51111810eff480fcf2ec971fe821c0ca",
          "transactionIndex": "0x2d",
          "logIndex": "0x51",
          "removed": false
        }
      ],
      "logsBloom": "0x00000000000000000000000000000000000000000000000000000000000000000000000000000000000000000000000020000000000000004000000000000000000000000000000000000008000000000000000000000000000000000000000000000000020000000000000000000800020000000000000000000010000000000000000000010000000000000000000000000000000000000000010000000000000000000000000000000000000000004000000000000000000000000000000000000002000000800000000000000000000000000000080000008000000020000000000000000000000000000000000000000000000000000000000000000000",
      "type": "0x2",
      "transactionHash": "0x43c0cc10a9f2b3a8275ecdc839b61adf51111810eff480fcf2ec971fe821c0ca",
      "transactionIndex": "0x2d",
      "blockHash": "0x2994b2ceb114c1e8f677a84d0044e9eed50a6f1f175ddd6e124eed65a628260a",
      "blockNumber": "0x7252c6",
      "gasUsed": "0xfb93",
      "effectiveGasPrice": "0x2e932caaa",
      "from": "0xc77f7fed3b5cc8249adc428c5f44c9063b9734b4",
      "to": "0x270e88f8683660553e8ba4eb2ad7c91a1710d769",
      "contractAddress": null
    }
  ],
  "libraries": [],
  "pending": [],
  "returns": {},
  "timestamp": 1736889169,
  "chain": 11155111,
  "commit": "51a374b"
}