{
  "transactions": [
    {
      "hash": "0xbbc5d6a290f13e54de724eccb30590be1c69e9cd19f7855e7d8d182e3d18a8dd",
      "transactionType": "CALL",
      "contractName": null,
      "contractAddress": "0xbf4a322f1496e5c3d34a9bcdb4c60567b38c7de2",
      "function": "buy(address)",
      "arguments": [
        "0xC77f7fed3b5Cc8249aDc428c5F44C9063B9734b4"
      ],
      "transaction": {
        "from": "0xc77f7fed3b5cc8249adc428c5f44c9063b9734b4",
        "to": "0xbf4a322f1496e5c3d34a9bcdb4c60567b38c7de2",
        "gas": "0x1b309",
        "value": "0xde0b6b3a7640000",
        "input": "0xf088d547000000000000000000000000c77f7fed3b5cc8249adc428c5f44c9063b9734b4",
        "nonce": "0xd32",
        "chainId": "0xaa36a7"
      },
      "additionalContracts": [],
      "isFixedGasLimit": false
    }
  ],
  "receipts": [
    {
      "status": "0x1",
      "cumulativeGasUsed": "0x11b326e",
      "logs": [
        {
          "address": "0xbf4a322f1496e5c3d34a9bcdb4c60567b38c7de2",
          "topics": [
            "0xddf252ad1be2c89b69c2b068fc378daa952ba7f163c4a11628f55a4df523b3ef",
            "0x0000000000000000000000000000000000000000000000000000000000000000",
            "0x000000000000000000000000c77f7fed3b5cc8249adc428c5f44c9063b9734b4"
          ],
          "data": "0x000000000000000000000000000000000000000000000034c2b943a2e1fc8323",
          "blockHash": "0xe755a0a37162558ce8fd024533e52b9242cebc0ca54856bcbfb589490fa2bdb1",
          "blockNumber": "0x725d95",
          "transactionHash": "0xbbc5d6a290f13e54de724eccb30590be1c69e9cd19f7855e7d8d182e3d18a8dd",
          "transactionIndex": "0x80",
          "logIndex": "0xbf",
          "removed": false
        },
        {
          "address": "0xbf4a322f1496e5c3d34a9bcdb4c60567b38c7de2",
          "topics": [
            "0xddf252ad1be2c89b69c2b068fc378daa952ba7f163c4a11628f55a4df523b3ef",
            "0x0000000000000000000000000000000000000000000000000000000000000000",
            "0x000000000000000000000000c77f7fed3b5cc8249adc428c5f44c9063b9734b4"
          ],
          "data": "0x00000000000000000000000000000000000000000000000028f86e810aa20562",
          "blockHash": "0xe755a0a37162558ce8fd024533e52b9242cebc0ca54856bcbfb589490fa2bdb1",
          "blockNumber": "0x725d95",
          "transactionHash": "0xbbc5d6a290f13e54de724eccb30590be1c69e9cd19f7855e7d8d182e3d18a8dd",
          "transactionIndex": "0x80",
          "logIndex": "0xc0",
          "removed": false
        },
        {
          "address": "0xbf4a322f1496e5c3d34a9bcdb4c60567b38c7de2",
          "topics": [
            "0x4afcb4a87cdbd9974efdb92ee48bc8d7cd0ae4bf217004db3d080cbaee652ca7"
          ],
          "data": "0x000000000000000000000000000000000000000000000000000000006787557000000000000000000000000000000000000000000000000000039d2526f1b50a0000000000000000000000000000000000000000000000000de0b6b3a7640000",
          "blockHash": "0xe755a0a37162558ce8fd024533e52b9242cebc0ca54856bcbfb589490fa2bdb1",
          "blockNumber": "0x725d95",
          "transactionHash": "0xbbc5d6a290f13e54de724eccb30590be1c69e9cd19f7855e7d8d182e3d18a8dd",
          "transactionIndex": "0x80",
          "logIndex": "0xc1",
          "removed": false
        }
      ],
      "logsBloom": "0x00000000000000000000000000000000000000000000000000000000000000000000000000000000000000000000000000000000000000004000000000000000000000000000000000000008000000000000001000000000000000000000000000000000020000000000000000000800020000000000000000000010000000000000000000000000000000000000000000000000000008000000010000000000000000000000000000000000000000004000000000000000000000000000000000000002000000800000000000001000000000000000080000000000000020000000000000000000000000000000000000000000000000000000000000000000",
      "type": "0x2",
      "transactionHash": "0xbbc5d6a290f13e54de724eccb30590be1c69e9cd19f7855e7d8d182e3d18a8dd",
      "transactionIndex": "0x80",
      "blockHash": "0xe755a0a37162558ce8fd024533e52b9242cebc0ca54856bcbfb589490fa2bdb1",
      "blockNumber": "0x725d95",
      "gasUsed": "0x13af6",
      "effectiveGasPrice": "0x27f6d4ed9",
      "from": "0xc77f7fed3b5cc8249adc428c5f44c9063b9734b4",
      "to": "0xbf4a322f1496e5c3d34a9bcdb4c60567b38c7de2",
      "contractAddress": null
    }
  ],
  "libraries": [],
  "pending": [],
  "returns": {},
  "timestamp": 1736922480,
  "chain": 11155111,
  "commit": "51a374b"
}