{
  "transactions": [
    {
      "hash": "0xcd6cb98019566c7195c157f1c6e595e6c55500daa7f790f63182d4b081969e3e",
      "transactionType": "CALL",
      "contractName": null,
      "contractAddress": "0x5eb9cc76c3506942c1c0ead70e877dd5e4f00cb0",
      "function": "sell(uint256)",
      "arguments": [
        "989078964884493352322"
      ],
      "transaction": {
        "from": "0xc77f7fed3b5cc8249adc428c5f44c9063b9734b4",
        "to": "0x5eb9cc76c3506942c1c0ead70e877dd5e4f00cb0",
        "gas": "0x16fec",
        "value": "0x0",
        "input": "0xe4849b320000000000000000000000000000000000000000000000359e3a5e328f48bd82",
        "nonce": "0x485",
        "chainId": "0xaa36a7"
      },
      "additionalContracts": [],
      "isFixedGasLimit": false
    }
  ],
  "receipts": [
    {
      "status": "0x1",
      "cumulativeGasUsed": "0xaa9363",
      "logs": [
        {
          "address": "0x5eb9cc76c3506942c1c0ead70e877dd5e4f00cb0",
          "topics": [
            "0xddf252ad1be2c89b69c2b068fc378daa952ba7f163c4a11628f55a4df523b3ef",
            "0x000000000000000000000000c77f7fed3b5cc8249adc428c5f44c9063b9734b4",
            "0x0000000000000000000000000000000000000000000000000000000000000000"
          ],
          "data": "0x0000000000000000000000000000000000000000000000359e3a5e328f48bd82",
          "blockHash": "0x92fd2c42cfc2308fa50497727a48fb1b482194e1ca207083c034b217e3f704fe",
          "blockNumber": "0x7250b5",
          "transactionHash": "0xcd6cb98019566c7195c157f1c6e595e6c55500daa7f790f63182d4b081969e3e",
          "transactionIndex": "0x45",
          "logIndex": "0x66",
          "removed": false
        },
        {
          "address": "0x5eb9cc76c3506942c1c0ead70e877dd5e4f00cb0",
          "topics": [
            "0x4afcb4a87cdbd9974efdb92ee48bc8d7cd0ae4bf217004db3d080cbaee652ca7"
          ],
          "data": "0x000000000000000000000000000000000000000000000000000000006786ba480000000000000000000000000000000000000000000000000003911a717d5e4a0000000000000000000000000000000000000000000000000dc7db1331c204e0",
          "blockHash": "0x92fd2c42cfc2308fa50497727a48fb1b482194e1ca207083c034b217e3f704fe",
          "blockNumber": "0x7250b5",
          "transactionHash": "0xcd6cb98019566c7195c157f1c6e595e6c55500daa7f790f63182d4b081969e3e",
          "transactionIndex": "0x45",
          "logIndex": "0x67",
          "removed": false
        }
      ],
      "logsBloom": "0x00000000000000000000000000000000000000000000000000000000000000000000000000000000000000000000000000000000000000004000000000000000000000000000000000000008000000000000000000000000000000000000000000000000020000000000000004000800020000000000000000000010000000000000000000000000000000000000000000000000000000000000010000000000000000000000000000000000000000004000000000000000000000000000020000000002000000800000008000000000000000000000080000000000000020000000000000000000000000000000000000000000000000000000000000000000",
      "type": "0x2",
      "transactionHash": "0xcd6cb98019566c7195c157f1c6e595e6c55500daa7f790f63182d4b081969e3e",
      "transactionIndex": "0x45",
      "blockHash": "0x92fd2c42cfc2308fa50497727a48fb1b482194e1ca207083c034b217e3f704fe",
      "blockNumber": "0x7250b5",
      "gasUsed": "0xfb93",
      "effectiveGasPrice": "0x205f79b5b",
      "from": "0xc77f7fed3b5cc8249adc428c5f44c9063b9734b4",
      "to": "0x5eb9cc76c3506942c1c0ead70e877dd5e4f00cb0",
      "contractAddress": null
    }
  ],
  "libraries": [],
  "pending": [],
  "returns": {},
  "timestamp": 1736882761,
  "chain": 11155111,
  "commit": "51a374b"
}