{
  "transactions": [
    {
      "hash": "0xdce9eaa5cda331279d1ee10e3d54cc1bf443fb9d02109bd74c91fa5891b42f8e",
      "transactionType": "CALL",
      "contractName": null,
      "contractAddress": "0x5eb9cc76c3506942c1c0ead70e877dd5e4f00cb0",
      "function": "buy(address)",
      "arguments": [
        "0xC77f7fed3b5Cc8249aDc428c5F44C9063B9734b4"
      ],
      "transaction": {
        "from": "0xc77f7fed3b5cc8249adc428c5f44c9063b9734b4",
        "to": "0x5eb9cc76c3506942c1c0ead70e877dd5e4f00cb0",
        "gas": "0x1b30c",
        "value": "0xde0b6b3a7640000",
        "input": "0xf088d547000000000000000000000000c77f7fed3b5cc8249adc428c5f44c9063b9734b4",
        "nonce": "0x296",
        "chainId": "0xaa36a7"
      },
      "additionalContracts": [],
      "isFixedGasLimit": false
    }
  ],
  "receipts": [
    {
      "status": "0x1",
      "cumulativeGasUsed": "0x11b1dd7",
      "logs": [
        {
          "address": "0x5eb9cc76c3506942c1c0ead70e877dd5e4f00cb0",
          "topics": [
            "0xddf252ad1be2c89b69c2b068fc378daa952ba7f163c4a11628f55a4df523b3ef",
            "0x0000000000000000000000000000000000000000000000000000000000000000",
            "0x000000000000000000000000c77f7fed3b5cc8249adc428c5f44c9063b9734b4"
          ],
          "data": "0x00000000000000000000000000000000000000000000003575ce8dd67881eb45",
          "blockHash": "0x1f979ea0286a6cae6a158a5af76be0a5080a809a0f7b4d5d80f0e71f613efda1",
          "blockNumber": "0x724e6a",
          "transactionHash": "0xdce9eaa5cda331279d1ee10e3d54cc1bf443fb9d02109bd74c91fa5891b42f8e",
          "transactionIndex": "0x5f",
          "logIndex": "0xb2",
          "removed": false
        },
        {
          "address": "0x5eb9cc76c3506942c1c0ead70e877dd5e4f00cb0",
          "topics": [
            "0xddf252ad1be2c89b69c2b068fc378daa952ba7f163c4a11628f55a4df523b3ef",
            "0x0000000000000000000000000000000000000000000000000000000000000000",
            "0x000000000000000000000000c77f7fed3b5cc8249adc428c5f44c9063b9734b4"
          ],
          "data": "0x00000000000000000000000000000000000000000000000029837eef7742bbbf",
          "blockHash": "0x1f979ea0286a6cae6a158a5af76be0a5080a809a0f7b4d5d80f0e71f613efda1",
          "blockNumber": "0x724e6a",
          "transactionHash": "0xdce9eaa5cda331279d1ee10e3d54cc1bf443fb9d02109bd74c91fa5891b42f8e",
          "transactionIndex": "0x5f",
          "logIndex": "0xb3",
          "removed": false
        },
        {
          "address": "0x5eb9cc76c3506942c1c0ead70e877dd5e4f00cb0",
          "topics": [
            "0x4afcb4a87cdbd9974efdb92ee48bc8d7cd0ae4bf217004db3d080cbaee652ca7"
          ],
          "data": "0x0000000000000000000000000000000000000000000000000000000067869eac00000000000000000000000000000000000000000000000000039107ca9f2dd70000000000000000000000000000000000000000000000000de0b6b3a7640000",
          "blockHash": "0x1f979ea0286a6cae6a158a5af76be0a5080a809a0f7b4d5d80f0e71f613efda1",
          "blockNumber": "0x724e6a",
          "transactionHash": "0xdce9eaa5cda331279d1ee10e3d54cc1bf443fb9d02109bd74c91fa5891b42f8e",
          "transactionIndex": "0x5f",
          "logIndex": "0xb4",
          "removed": false
        }
      ],
      "logsBloom": "0x00000000000000000000000000000000000000000000000000000000000000000000000000000000000000000000000000000000000000004000000000000000000000000000000000000008000000000000000000000000000000000000000000000000020000000000000004000800020000000000000000000010000000000000000000000000000000000000000000000000000000000000010000000000000000000000000000000000000000004000000000000000000000000000020000000002000000800000008000000000000000000000080000000000000020000000000000000000000000000000000000000000000000000000000000000000",
      "type": "0x2",
      "transactionHash": "0xdce9eaa5cda331279d1ee10e3d54cc1bf443fb9d02109bd74c91fa5891b42f8e",
      "transactionIndex": "0x5f",
      "blockHash": "0x1f979ea0286a6cae6a158a5af76be0a5080a809a0f7b4d5d80f0e71f613efda1",
      "blockNumber": "0x724e6a",
      "gasUsed": "0x13af8",
      "effectiveGasPrice": "0x4cde45f37",
      "from": "0xc77f7fed3b5cc8249adc428c5f44c9063b9734b4",
      "to": "0x5eb9cc76c3506942c1c0ead70e877dd5e4f00cb0",
      "contractAddress": null
    }
  ],
  "libraries": [],
  "pending": [],
  "returns": {},
  "timestamp": 1736875693,
  "chain": 11155111,
  "commit": "51a374b"
}