{
  "transactions": [
    {
      "hash": "0x06c34656fff6cde2695ebc74a70297c2fb5df809cfaf06170635d13f3826cda0",
      "transactionType": "CALL",
      "contractName": null,
      "contractAddress": "0x5eb9cc76c3506942c1c0ead70e877dd5e4f00cb0",
      "function": "sell(uint256)",
      "arguments": [
        "989110835223620962249"
      ],
      "transaction": {
        "from": "0xc77f7fed3b5cc8249adc428c5f44c9063b9734b4",
        "to": "0x5eb9cc76c3506942c1c0ead70e877dd5e4f00cb0",
        "gas": "0x16fec",
        "value": "0x0",
        "input": "0xe4849b320000000000000000000000000000000000000000000000359eab981a21db47c9",
        "nonce": "0x3bd",
        "chainId": "0xaa36a7"
      },
      "additionalContracts": [],
      "isFixedGasLimit": false
    }
  ],
  "receipts": [
    {
      "status": "0x1",
      "cumulativeGasUsed": "0x9e99ab",
      "logs": [
        {
          "address": "0x5eb9cc76c3506942c1c0ead70e877dd5e4f00cb0",
          "topics": [
            "0xddf252ad1be2c89b69c2b068fc378daa952ba7f163c4a11628f55a4df523b3ef",
            "0x000000000000000000000000c77f7fed3b5cc8249adc428c5f44c9063b9734b4",
            "0x0000000000000000000000000000000000000000000000000000000000000000"
          ],
          "data": "0x0000000000000000000000000000000000000000000000359eab981a21db47c9",
          "blockHash": "0xea33c0b125bf764229d075c6e44816b5fe4343556aab5f211a142ab62d39bf4a",
          "blockNumber": "0x724fbc",
          "transactionHash": "0x06c34656fff6cde2695ebc74a70297c2fb5df809cfaf06170635d13f3826cda0",
          "transactionIndex": "0x4e",
          "logIndex": "0x68",
          "removed": false
        },
        {
          "address": "0x5eb9cc76c3506942c1c0ead70e877dd5e4f00cb0",
          "topics": [
            "0x4afcb4a87cdbd9974efdb92ee48bc8d7cd0ae4bf217004db3d080cbaee652ca7"
          ],
          "data": "0x000000000000000000000000000000000000000000000000000000006786ae9c00000000000000000000000000000000000000000000000000039112e95646b60000000000000000000000000000000000000000000000000dc7db1331faba68",
          "blockHash": "0xea33c0b125bf764229d075c6e44816b5fe4343556aab5f211a142ab62d39bf4a",
          "blockNumber": "0x724fbc",
          "transactionHash": "0x06c34656fff6cde2695ebc74a70297c2fb5df809cfaf06170635d13f3826cda0",
          "transactionIndex": "0x4e",
          "logIndex": "0x69",
          "removed": false
        }
      ],
      "logsBloom": "0x00000000000000000000000000000000000000000000000000000000000000000000000000000000000000000000000000000000000000004000000000000000000000000000000000000008000000000000000000000000000000000000000000000000020000000000000004000800020000000000000000000010000000000000000000000000000000000000000000000000000000000000010000000000000000000000000000000000000000004000000000000000000000000000020000000002000000800000008000000000000000000000080000000000000020000000000000000000000000000000000000000000000000000000000000000000",
      "type": "0x2",
      "transactionHash": "0x06c34656fff6cde2695ebc74a70297c2fb5df809cfaf06170635d13f3826cda0",
      "transactionIndex": "0x4e",
      "blockHash": "0xea33c0b125bf764229d075c6e44816b5fe4343556aab5f211a142ab62d39bf4a",
      "blockNumber": "0x724fbc",
      "gasUsed": "0xfb93",
      "effectiveGasPrice": "0x3dc6b4a7b",
      "from": "0xc77f7fed3b5cc8249adc428c5f44c9063b9734b4",
      "to": "0x5eb9cc76c3506942c1c0ead70e877dd5e4f00cb0",
      "contractAddress": null
    }
  ],
  "libraries": [],
  "pending": [],
  "returns": {},
  "timestamp": 1736879774,
  "chain": 11155111,
  "commit": "51a374b"
}