{
  "transactions": [
    {
      "hash": "0x49ee13550e2b190580a1afce164f4842becf06475c94bcb9b55d3667abdeb791",
      "transactionType": "CALL",
      "contractName": null,
      "contractAddress": "0x8aafd3ede9adb0ff97c7aebce82a919afb1c8764",
      "function": "sell(uint256)",
      "arguments": [
        "179388817"
      ],
      "transaction": {
        "from": "0xc77f7fed3b5cc8249adc428c5f44c9063b9734b4",
        "to": "0x8aafd3ede9adb0ff97c7aebce82a919afb1c8764",
        "gas": "0x14e6c",
        "value": "0x0",
        "input": "0xe4849b32000000000000000000000000000000000000000000000000000000000ab14191",
        "nonce": "0x11cd",
        "chainId": "0xaa36a7"
      },
      "additionalContracts": [],
      "isFixedGasLimit": false
    }
  ],
  "receipts": [
    {
      "status": "0x1",
      "cumulativeGasUsed": "0xa234a1",
      "logs": [
        {
          "address": "0x8aafd3ede9adb0ff97c7aebce82a919afb1c8764",
          "topics": [
            "0xddf252ad1be2c89b69c2b068fc378daa952ba7f163c4a11628f55a4df523b3ef",
            "0x000000000000000000000000c77f7fed3b5cc8249adc428c5f44c9063b9734b4",
            "0x0000000000000000000000000000000000000000000000000000000000000000"
          ],
          "data": "0x000000000000000000000000000000000000000000000000000000000a9b5bab",
          "blockHash": "0x05da1252ba3ed07d79f1c180c3dec14068afa81f11ff4922ad1eb06a965d6a37",
          "blockNumber": "0x7318a1",
          "transactionHash": "0x49ee13550e2b190580a1afce164f4842becf06475c94bcb9b55d3667abdeb791",
          "transactionIndex": "0x95",
          "logIndex": "0x80",
          "removed": false
        },
        {
          "address": "0x8aafd3ede9adb0ff97c7aebce82a919afb1c8764",
          "topics": [
            "0xddf252ad1be2c89b69c2b068fc378daa952ba7f163c4a11628f55a4df523b3ef",
            "0x000000000000000000000000c77f7fed3b5cc8249adc428c5f44c9063b9734b4",
            "0x000000000000000000000000c77f7fed3b5cc8249adc428c5f44c9063b9734b4"
          ],
          "data": "0x000000000000000000000000000000000000000000000000000000000015e5e6",
          "blockHash": "0x05da1252ba3ed07d79f1c180c3dec14068afa81f11ff4922ad1eb06a965d6a37",
          "blockNumber": "0x7318a1",
          "transactionHash": "0x49ee13550e2b190580a1afce164f4842becf06475c94bcb9b55d3667abdeb791",
          "transactionIndex": "0x95",
          "logIndex": "0x81",
          "removed": false
        },
        {
          "address": "0x8aafd3ede9adb0ff97c7aebce82a919afb1c8764",
          "topics": [
            "0x4afcb4a87cdbd9974efdb92ee48bc8d7cd0ae4bf217004db3d080cbaee652ca7"
          ],
          "data": "0x000000000000000000000000000000000000000000000000000000006790245c00000000000000000000000000000000000000000000000000052936c471c75b000000000000000000000000000000000000000000000000000000000003f9f4",
          "blockHash": "0x05da1252ba3ed07d79f1c180c3dec14068afa81f11ff4922ad1eb06a965d6a37",
          "blockNumber": "0x7318a1",
          "transactionHash": "0x49ee13550e2b190580a1afce164f4842becf06475c94bcb9b55d3667abdeb791",
          "transactionIndex": "0x95",
          "logIndex": "0x82",
          "removed": false
        }
      ],
      "logsBloom": "0x00000000000000000000000000000000000000000600000000000000000000000000000000000000000000000000000000000000000000004000000000000000000000000000004000000008000000000000000000000000000000000000000000000000020000000000000000000800020000000000000000000010000000000000000000000000000000000000000000000000000000000000010000000000000000000000000000000000000000004000000000000000000000000000000000000002000000800000000000000000000000000000080000000000000020000000000000000000000000000000000000000000000000000000000000000000",
      "type": "0x2",
      "transactionHash": "0x49ee13550e2b190580a1afce164f4842becf06475c94bcb9b55d3667abdeb791",
      "transactionIndex": "0x95",
      "blockHash": "0x05da1252ba3ed07d79f1c180c3dec14068afa81f11ff4922ad1eb06a965d6a37",
      "blockNumber": "0x7318a1",
      "gasUsed": "0xf21f",
      "effectiveGasPrice": "0x38d2d6a9",
      "from": "0xc77f7fed3b5cc8249adc428c5f44c9063b9734b4",
      "to": "0x8aafd3ede9adb0ff97c7aebce82a919afb1c8764",
      "contractAddress": null
    }
  ],
  "libraries": [],
  "pending": [],
  "returns": {},
  "timestamp": 1737499741,
  "chain": 11155111,
  "commit": "1d2fb70"
}