{
  "transactions": [
    {
      "hash": "0xd60a2681905b3445d9bfbc854b729f497c29a99a930c96439af39ab7d172d54b",
      "transactionType": "CALL",
      "contractName": null,
      "contractAddress": "0xbf4a322f1496e5c3d34a9bcdb4c60567b38c7de2",
      "function": "buy(address)",
      "arguments": [
        "0xC77f7fed3b5Cc8249aDc428c5F44C9063B9734b4"
      ],
      "transaction": {
        "from": "0xc77f7fed3b5cc8249adc428c5f44c9063b9734b4",
        "to": "0xbf4a322f1496e5c3d34a9bcdb4c60567b38c7de2",
        "gas": "0x1b309",
        "value": "0xde0b6b3a7640000",
        "input": "0xf088d547000000000000000000000000c77f7fed3b5cc8249adc428c5f44c9063b9734b4",
        "nonce": "0xae6",
        "chainId": "0xaa36a7"
      },
      "additionalContracts": [],
      "isFixedGasLimit": false
    }
  ],
  "receipts": [
    {
      "status": "0x1",
      "cumulativeGasUsed": "0x5947e3",
      "logs": [
        {
          "address": "0xbf4a322f1496e5c3d34a9bcdb4c60567b38c7de2",
          "topics": [
            "0xddf252ad1be2c89b69c2b068fc378daa952ba7f163c4a11628f55a4df523b3ef",
            "0x0000000000000000000000000000000000000000000000000000000000000000",
            "0x000000000000000000000000c77f7fed3b5cc8249adc428c5f44c9063b9734b4"
          ],
          "data": "0x0000000000000000000000000000000000000000000000352ffd4c1361ef6f71",
          "blockHash": "0x162e3dfeb8bb5d106d9aac672cc88aec7087598fa4fe4c60d457dd222bdc7f6b",
          "blockNumber": "0x725ad9",
          "transactionHash": "0xd60a2681905b3445d9bfbc854b729f497c29a99a930c96439af39ab7d172d54b",
          "transactionIndex": "0x43",
          "logIndex": "0x46",
          "removed": false
        },
        {
          "address": "0xbf4a322f1496e5c3d34a9bcdb4c60567b38c7de2",
          "topics": [
            "0xddf252ad1be2c89b69c2b068fc378daa952ba7f163c4a11628f55a4df523b3ef",
            "0x0000000000000000000000000000000000000000000000000000000000000000",
            "0x000000000000000000000000c77f7fed3b5cc8249adc428c5f44c9063b9734b4"
          ],
          "data": "0x000000000000000000000000000000000000000000000000294d47bde5e912b3",
          "blockHash": "0x162e3dfeb8bb5d106d9aac672cc88aec7087598fa4fe4c60d457dd222bdc7f6b",
          "blockNumber": "0x725ad9",
          "transactionHash": "0xd60a2681905b3445d9bfbc854b729f497c29a99a930c96439af39ab7d172d54b",
          "transactionIndex": "0x43",
          "logIndex": "0x47",
          "removed": false
        },
        {
          "address": "0xbf4a322f1496e5c3d34a9bcdb4c60567b38c7de2",
          "topics": [
            "0x4afcb4a87cdbd9974efdb92ee48bc8d7cd0ae4bf217004db3d080cbaee652ca7"
          ],
          "data": "0x000000000000000000000000000000000000000000000000000000006787347c000000000000000000000000000000000000000000000000000395b898e19ce30000000000000000000000000000000000000000000000000de0b6b3a7640000",
          "blockHash": "0x162e3dfeb8bb5d106d9aac672cc88aec7087598fa4fe4c60d457dd222bdc7f6b",
          "blockNumber": "0x725ad9",
          "transactionHash": "0xd60a2681905b3445d9bfbc854b729f497c29a99a930c96439af39ab7d172d54b",
          "transactionIndex": "0x43",
          "logIndex": "0x48",
          "removed": false
        }
      ],
      "logsBloom": "0x00000000000000000000000000000000000000000000000000000000000000000000000000000000000000000000000000000000000000004000000000000000000000000000000000000008000000000000001000000000000000000000000000000000020000000000000000000800020000000000000000000010000000000000000000000000000000000000000000000000000008000000010000000000000000000000000000000000000000004000000000000000000000000000000000000002000000800000000000001000000000000000080000000000000020000000000000000000000000000000000000000000000000000000000000000000",
      "type": "0x2",
      "transactionHash": "0xd60a2681905b3445d9bfbc854b729f497c29a99a930c96439af39ab7d172d54b",
      "transactionIndex": "0x43",
      "blockHash": "0x162e3dfeb8bb5d106d9aac672cc88aec7087598fa4fe4c60d457dd222bdc7f6b",
      "blockNumber": "0x725ad9",
      "gasUsed": "0x13af6",
      "effectiveGasPrice": "0xb61b0899",
      "from": "0xc77f7fed3b5cc8249adc428c5f44c9063b9734b4",
      "to": "0xbf4a322f1496e5c3d34a9bcdb4c60567b38c7de2",
      "contractAddress": null
    }
  ],
  "libraries": [],
  "pending": [],
  "returns": {},
  "timestamp": 1736914045,
  "chain": 11155111,
  "commit": "51a374b"
}