{
  "transactions": [
    {
      "hash": "0xd2024b5106fa15196ecb2336bf6e38b65856fccfa96a3fa1bc7a1ddb45c74fde",
      "transactionType": "CALL",
      "contractName": null,
      "contractAddress": "0x5eb9cc76c3506942c1c0ead70e877dd5e4f00cb0",
      "function": "buy(address)",
      "arguments": [
        "0xC77f7fed3b5Cc8249aDc428c5F44C9063B9734b4"
      ],
      "transaction": {
        "from": "0xc77f7fed3b5cc8249adc428c5f44c9063b9734b4",
        "to": "0x5eb9cc76c3506942c1c0ead70e877dd5e4f00cb0",
        "gas": "0x1b30c",
        "value": "0xde0b6b3a7640000",
        "input": "0xf088d547000000000000000000000000c77f7fed3b5cc8249adc428c5f44c9063b9734b4",
        "nonce": "0x36c",
        "chainId": "0xaa36a7"
      },
      "additionalContracts": [],
      "isFixedGasLimit": false
    }
  ],
  "receipts": [
    {
      "status": "0x1",
      "cumulativeGasUsed": "0x1a04e1a",
      "logs": [
        {
          "address": "0x5eb9cc76c3506942c1c0ead70e877dd5e4f00cb0",
          "topics": [
            "0xddf252ad1be2c89b69c2b068fc378daa952ba7f163c4a11628f55a4df523b3ef",
            "0x0000000000000000000000000000000000000000000000000000000000000000",
            "0x000000000000000000000000c77f7fed3b5cc8249adc428c5f44c9063b9734b4"
          ],
          "data": "0x0000000000000000000000000000000000000000000000357555c1dab8b93b29",
          "blockHash": "0x6768ec6ffd6a470c1e0f2cff9d5f991ef81b320f71b5ee63f94bfb5f1e09f1c3",
          "blockNumber": "0x724f62",
          "transactionHash": "0xd2024b5106fa15196ecb2336bf6e38b65856fccfa96a3fa1bc7a1ddb45c74fde",
          "transactionIndex": "0xb8",
          "logIndex": "0xea",
          "removed": false
        },
        {
          "address": "0x5eb9cc76c3506942c1c0ead70e877dd5e4f00cb0",
          "topics": [
            "0xddf252ad1be2c89b69c2b068fc378daa952ba7f163c4a11628f55a4df523b3ef",
            "0x0000000000000000000000000000000000000000000000000000000000000000",
            "0x000000000000000000000000c77f7fed3b5cc8249adc428c5f44c9063b9734b4"
          ],
          "data": "0x00000000000000000000000000000000000000000000000029832121f01d039a",
          "blockHash": "0x6768ec6ffd6a470c1e0f2cff9d5f991ef81b320f71b5ee63f94bfb5f1e09f1c3",
          "blockNumber": "0x724f62",
          "transactionHash": "0xd2024b5106fa15196ecb2336bf6e38b65856fccfa96a3fa1bc7a1ddb45c74fde",
          "transactionIndex": "0xb8",
          "logIndex": "0xeb",
          "removed": false
        },
        {
          "address": "0x5eb9cc76c3506942c1c0ead70e877dd5e4f00cb0",
          "topics": [
            "0x4afcb4a87cdbd9974efdb92ee48bc8d7cd0ae4bf217004db3d080cbaee652ca7"
          ],
          "data": "0x000000000000000000000000000000000000000000000000000000006786aa4c0000000000000000000000000000000000000000000000000003910fd9bec47a0000000000000000000000000000000000000000000000000de0b6b3a7640000",
          "blockHash": "0x6768ec6ffd6a470c1e0f2cff9d5f991ef81b320f71b5ee63f94bfb5f1e09f1c3",
          "blockNumber": "0x724f62",
          "transactionHash": "0xd2024b5106fa15196ecb2336bf6e38b65856fccfa96a3fa1bc7a1ddb45c74fde",
          "transactionIndex": "0xb8",
          "logIndex": "0xec",
          "removed": false
        }
      ],
      "logsBloom": "0x00000000000000000000000000000000000000000000000000000000000000000000000000000000000000000000000000000000000000004000000000000000000000000000000000000008000000000000000000000000000000000000000000000000020000000000000004000800020000000000000000000010000000000000000000000000000000000000000000000000000000000000010000000000000000000000000000000000000000004000000000000000000000000000020000000002000000800000008000000000000000000000080000000000000020000000000000000000000000000000000000000000000000000000000000000000",
      "type": "0x2",
      "transactionHash": "0xd2024b5106fa15196ecb2336bf6e38b65856fccfa96a3fa1bc7a1ddb45c74fde",
      "transactionIndex": "0xb8",
      "blockHash": "0x6768ec6ffd6a470c1e0f2cff9d5f991ef81b320f71b5ee63f94bfb5f1e09f1c3",
      "blockNumber": "0x724f62",
      "gasUsed": "0x13af8",
      "effectiveGasPrice": "0x56ee4ba55",
      "from": "0xc77f7fed3b5cc8249adc428c5f44c9063b9734b4",
      "to": "0x5eb9cc76c3506942c1c0ead70e877dd5e4f00cb0",
      "contractAddress": null
    }
  ],
  "libraries": [],
  "pending": [],
  "returns": {},
  "timestamp": 1736878670,
  "chain": 11155111,
  "commit": "51a374b"
}