{
  "transactions": [
    {
      "hash": "0x86bc04ce89cc479ef520fadf7a78bbdb269ce2dbc28e39b15f6de0f81c124d37",
      "transactionType": "CALL",
      "contractName": null,
      "contractAddress": "0x8aafd3ede9adb0ff97c7aebce82a919afb1c8764",
      "function": "sell(uint256)",
      "arguments": [
        "1389219"
      ],
      "transaction": {
        "from": "0xc77f7fed3b5cc8249adc428c5f44c9063b9734b4",
        "to": "0x8aafd3ede9adb0ff97c7aebce82a919afb1c8764",
        "gas": "0x16208",
        "value": "0x0",
        "input": "0xe4849b3200000000000000000000000000000000000000000000000000000000001532a3",
        "nonce": "0x12fa",
        "chainId": "0xaa36a7"
      },
      "additionalContracts": [],
      "isFixedGasLimit": false
    }
  ],
  "receipts": [
    {
      "status": "0x1",
      "cumulativeGasUsed": "0x21980c2",
      "logs": [
        {
          "address": "0x8aafd3ede9adb0ff97c7aebce82a919afb1c8764",
          "topics": [
            "0xddf252ad1be2c89b69c2b068fc378daa952ba7f163c4a11628f55a4df523b3ef",
            "0x000000000000000000000000c77f7fed3b5cc8249adc428c5f44c9063b9734b4",
            "0x0000000000000000000000000000000000000000000000000000000000000000"
          ],
          "data": "0x000000000000000000000000000000000000000000000000000000000015073a",
          "blockHash": "0x80fe98caf248f09ad04a6da12b8d896bb05d17c8b596ea2c4b04f90953567dc4",
          "blockNumber": "0x731a01",
          "transactionHash": "0x86bc04ce89cc479ef520fadf7a78bbdb269ce2dbc28e39b15f6de0f81c124d37",
          "transactionIndex": "0x65",
          "logIndex": "0x110d",
          "removed": false
        },
        {
          "address": "0x8aafd3ede9adb0ff97c7aebce82a919afb1c8764",
          "topics": [
            "0xddf252ad1be2c89b69c2b068fc378daa952ba7f163c4a11628f55a4df523b3ef",
            "0x000000000000000000000000c77f7fed3b5cc8249adc428c5f44c9063b9734b4",
            "0x000000000000000000000000c77f7fed3b5cc8249adc428c5f44c9063b9734b4"
          ],
          "data": "0x0000000000000000000000000000000000000000000000000000000000002b69",
          "blockHash": "0x80fe98caf248f09ad04a6da12b8d896bb05d17c8b596ea2c4b04f90953567dc4",
          "blockNumber": "0x731a01",
          "transactionHash": "0x86bc04ce89cc479ef520fadf7a78bbdb269ce2dbc28e39b15f6de0f81c124d37",
          "transactionIndex": "0x65",
          "logIndex": "0x110e",
          "removed": false
        },
        {
          "address": "0x8aafd3ede9adb0ff97c7aebce82a919afb1c8764",
          "topics": [
            "0x4afcb4a87cdbd9974efdb92ee48bc8d7cd0ae4bf217004db3d080cbaee652ca7"
          ],
          "data": "0x00000000000000000000000000000000000000000000000000000000679034dc000000000000000000000000000000000000000000000000000554cfa80ab84a0000000000000000000000000000000000000000000000000000000000000824",
          "blockHash": "0x80fe98caf248f09ad04a6da12b8d896bb05d17c8b596ea2c4b04f90953567dc4",
          "blockNumber": "0x731a01",
          "transactionHash": "0x86bc04ce89cc479ef520fadf7a78bbdb269ce2dbc28e39b15f6de0f81c124d37",
          "transactionIndex": "0x65",
          "logIndex": "0x110f",
          "removed": false
        }
      ],
      "logsBloom": "0x00000000000000000000000000000000000000000600000000000000000000000000000000000000000000000000000000000000000000004000000000000000000000000000004000000008000000000000000000000000000000000000000000000000020000000000000000000800020000000000000000000010000000000000000000000000000000000000000000000000000000000000010000000000000000000000000000000000000000004000000000000000000000000000000000000002000000800000000000000000000000000000080000000000000020000000000000000000000000000000000000000000000000000000000000000000",
      "type": "0x2",
      "transactionHash": "0x86bc04ce89cc479ef520fadf7a78bbdb269ce2dbc28e39b15f6de0f81c124d37",
      "transactionIndex": "0x65",
      "blockHash": "0x80fe98caf248f09ad04a6da12b8d896bb05d17c8b596ea2c4b04f90953567dc4",
      "blockNumber": "0x731a01",
      "gasUsed": "0xf213",
      "effectiveGasPrice": "0x3eae1ed5",
      "from": "0xc77f7fed3b5cc8249adc428c5f44c9063b9734b4",
      "to": "0x8aafd3ede9adb0ff97c7aebce82a919afb1c8764",
      "contractAddress": null
    }
  ],
  "libraries": [],
  "pending": [],
  "returns": {},
  "timestamp": 1737503965,
  "chain": 11155111,
  "commit": "1d2fb70"
}