{
  "transactions": [
    {
      "hash": "0x31078c7a52678790ec2741e4487ea7588adc3e8d7524635402bcac0e7fb60ea8",
      "transactionType": "CALL",
      "contractName": null,
      "contractAddress": "0x8aafd3ede9adb0ff97c7aebce82a919afb1c8764",
      "function": "sell(uint256)",
      "arguments": [
        "174583034"
      ],
      "transaction": {
        "from": "0xc77f7fed3b5cc8249adc428c5f44c9063b9734b4",
        "to": "0x8aafd3ede9adb0ff97c7aebce82a919afb1c8764",
        "gas": "0x14e6c",
        "value": "0x0",
        "input": "0xe4849b32000000000000000000000000000000000000000000000000000000000a67ecfa",
        "nonce": "0x12c7",
        "chainId": "0xaa36a7"
      },
      "additionalContracts": [],
      "isFixedGasLimit": false
    }
  ],
  "receipts": [
    {
      "status": "0x1",
      "cumulativeGasUsed": "0xfc8f47",
      "logs": [
        {
          "address": "0x8aafd3ede9adb0ff97c7aebce82a919afb1c8764",
          "topics": [
            "0xddf252ad1be2c89b69c2b068fc378daa952ba7f163c4a11628f55a4df523b3ef",
            "0x000000000000000000000000c77f7fed3b5cc8249adc428c5f44c9063b9734b4",
            "0x0000000000000000000000000000000000000000000000000000000000000000"
          ],
          "data": "0x000000000000000000000000000000000000000000000000000000000a529d42",
          "blockHash": "0xe720c813a6236543af63756d5391857a74b82e6f930fe2d795bcf1ad37985df1",
          "blockNumber": "0x7319c2",
          "transactionHash": "0x31078c7a52678790ec2741e4487ea7588adc3e8d7524635402bcac0e7fb60ea8",
          "transactionIndex": "0x9e",
          "logIndex": "0xe3",
          "removed": false
        },
        {
          "address": "0x8aafd3ede9adb0ff97c7aebce82a919afb1c8764",
          "topics": [
            "0xddf252ad1be2c89b69c2b068fc378daa952ba7f163c4a11628f55a4df523b3ef",
            "0x000000000000000000000000c77f7fed3b5cc8249adc428c5f44c9063b9734b4",
            "0x000000000000000000000000c77f7fed3b5cc8249adc428c5f44c9063b9734b4"
          ],
          "data": "0x0000000000000000000000000000000000000000000000000000000000154fb8",
          "blockHash": "0xe720c813a6236543af63756d5391857a74b82e6f930fe2d795bcf1ad37985df1",
          "blockNumber": "0x7319c2",
          "transactionHash": "0x31078c7a52678790ec2741e4487ea7588adc3e8d7524635402bcac0e7fb60ea8",
          "transactionIndex": "0x9e",
          "logIndex": "0xe4",
          "removed": false
        },
        {
          "address": "0x8aafd3ede9adb0ff97c7aebce82a919afb1c8764",
          "topics": [
            "0x4afcb4a87cdbd9974efdb92ee48bc8d7cd0ae4bf217004db3d080cbaee652ca7"
          ],
          "data": "0x00000000000000000000000000000000000000000000000000000000679031e800000000000000000000000000000000000000000000000000054d8b33707695000000000000000000000000000000000000000000000000000000000003f9ec",
          "blockHash": "0xe720c813a6236543af63756d5391857a74b82e6f930fe2d795bcf1ad37985df1",
          "blockNumber": "0x7319c2",
          "transactionHash": "0x31078c7a52678790ec2741e4487ea7588adc3e8d7524635402bcac0e7fb60ea8",
          "transactionIndex": "0x9e",
          "logIndex": "0xe5",
          "removed": false
        }
      ],
      "logsBloom": "0x00000000000000000000000000000000000000000600000000000000000000000000000000000000000000000000000000000000000000004000000000000000000000000000004000000008000000000000000000000000000000000000000000000000020000000000000000000800020000000000000000000010000000000000000000000000000000000000000000000000000000000000010000000000000000000000000000000000000000004000000000000000000000000000000000000002000000800000000000000000000000000000080000000000000020000000000000000000000000000000000000000000000000000000000000000000",
      "type": "0x2",
      "transactionHash": "0x31078c7a52678790ec2741e4487ea7588adc3e8d7524635402bcac0e7fb60ea8",
      "transactionIndex": "0x9e",
      "blockHash": "0xe720c813a6236543af63756d5391857a74b82e6f930fe2d795bcf1ad37985df1",
      "blockNumber": "0x7319c2",
      "gasUsed": "0xf21f",
      "effectiveGasPrice": "0x39860a9b",
      "from": "0xc77f7fed3b5cc8249adc428c5f44c9063b9734b4",
      "to": "0x8aafd3ede9adb0ff97c7aebce82a919afb1c8764",
      "contractAddress": null
    }
  ],
  "libraries": [],
  "pending": [],
  "returns": {},
  "timestamp": 1737503209,
  "chain": 11155111,
  "commit": "1d2fb70"
}