{
  "transactions": [
    {
      "hash": "0xba590b0eb2c13f6026a7ccaeb01923deb016f8506dda3d45f88e6762595c739d",
      "transactionType": "CALL",
      "contractName": null,
      "contractAddress": "0x5eb9cc76c3506942c1c0ead70e877dd5e4f00cb0",
      "function": "sell(uint256)",
      "arguments": [
        "989141432681516011917"
      ],
      "transaction": {
        "from": "0xc77f7fed3b5cc8249adc428c5f44c9063b9734b4",
        "to": "0x5eb9cc76c3506942c1c0ead70e877dd5e4f00cb0",
        "gas": "0x16fec",
        "value": "0x0",
        "input": "0xe4849b320000000000000000000000000000000000000000000000359f184c53f2b8918d",
        "nonce": "0x2fd",
        "chainId": "0xaa36a7"
      },
      "additionalContracts": [],
      "isFixedGasLimit": false
    }
  ],
  "receipts": [
    {
      "status": "0x1",
      "cumulativeGasUsed": "0xa43c6b",
      "logs": [
        {
          "address": "0x5eb9cc76c3506942c1c0ead70e877dd5e4f00cb0",
          "topics": [
            "0xddf252ad1be2c89b69c2b068fc378daa952ba7f163c4a11628f55a4df523b3ef",
            "0x000000000000000000000000c77f7fed3b5cc8249adc428c5f44c9063b9734b4",
            "0x0000000000000000000000000000000000000000000000000000000000000000"
          ],
          "data": "0x0000000000000000000000000000000000000000000000359f184c53f2b8918d",
          "blockHash": "0x663740c1d09e432eb5b4470e003214bd2e8a77ac2275dde2388430930b6851b0",
          "blockNumber": "0x724ede",
          "transactionHash": "0xba590b0eb2c13f6026a7ccaeb01923deb016f8506dda3d45f88e6762595c739d",
          "transactionIndex": "0x5b",
          "logIndex": "0x83",
          "removed": false
        },
        {
          "address": "0x5eb9cc76c3506942c1c0ead70e877dd5e4f00cb0",
          "topics": [
            "0x4afcb4a87cdbd9974efdb92ee48bc8d7cd0ae4bf217004db3d080cbaee652ca7"
          ],
          "data": "0x000000000000000000000000000000000000000000000000000000006786a41c0000000000000000000000000000000000000000000000000003910bae4f77c60000000000000000000000000000000000000000000000000dc7db1332312c1f",
          "blockHash": "0x663740c1d09e432eb5b4470e003214bd2e8a77ac2275dde2388430930b6851b0",
          "blockNumber": "0x724ede",
          "transactionHash": "0xba590b0eb2c13f6026a7ccaeb01923deb016f8506dda3d45f88e6762595c739d",
          "transactionIndex": "0x5b",
          "logIndex": "0x84",
          "removed": false
        }
      ],
      "logsBloom": "0x00000000000000000000000000000000000000000000000000000000000000000000000000000000000000000000000000000000000000004000000000000000000000000000000000000008000000000000000000000000000000000000000000000000020000000000000004000800020000000000000000000010000000000000000000000000000000000000000000000000000000000000010000000000000000000000000000000000000000004000000000000000000000000000020000000002000000800000008000000000000000000000080000000000000020000000000000000000000000000000000000000000000000000000000000000000",
      "type": "0x2",
      "transactionHash": "0xba590b0eb2c13f6026a7ccaeb01923deb016f8506dda3d45f88e6762595c739d",
      "transactionIndex": "0x5b",
      "blockHash": "0x663740c1d09e432eb5b4470e003214bd2e8a77ac2275dde2388430930b6851b0",
      "blockNumber": "0x724ede",
      "gasUsed": "0xfb93",
      "effectiveGasPrice": "0x693c9a9ac",
      "from": "0xc77f7fed3b5cc8249adc428c5f44c9063b9734b4",
      "to": "0x5eb9cc76c3506942c1c0ead70e877dd5e4f00cb0",
      "contractAddress": null
    }
  ],
  "libraries": [],
  "pending": [],
  "returns": {},
  "timestamp": 1736877085,
  "chain": 11155111,
  "commit": "51a374b"
}