{
  "transactions": [
    {
      "hash": "0xaf0150e74eb5c080cf02fe20d2b91bac7e70f688129e5dc6496533b660f2caee",
      "transactionType": "CALL",
      "contractName": null,
      "contractAddress": "0x8aafd3ede9adb0ff97c7aebce82a919afb1c8764",
      "function": "sell(uint256)",
      "arguments": [
        "361510242504001"
      ],
      "transaction": {
        "from": "0xc77f7fed3b5cc8249adc428c5f44c9063b9734b4",
        "to": "0x8aafd3ede9adb0ff97c7aebce82a919afb1c8764",
        "gas": "0x1724d",
        "value": "0x0",
        "input": "0xe4849b32000000000000000000000000000000000000000000000000000148caa9964d41",
        "nonce": "0x10b2",
        "chainId": "0xaa36a7"
      },
      "additionalContracts": [],
      "isFixedGasLimit": false
    }
  ],
  "receipts": [
    {
      "status": "0x1",
      "cumulativeGasUsed": "0xe8d9ad",
      "logs": [
        {
          "address": "0x8aafd3ede9adb0ff97c7aebce82a919afb1c8764",
          "topics": [
            "0xddf252ad1be2c89b69c2b068fc378daa952ba7f163c4a11628f55a4df523b3ef",
            "0x000000000000000000000000c77f7fed3b5cc8249adc428c5f44c9063b9734b4",
            "0x0000000000000000000000000000000000000000000000000000000000000000"
          ],
          "data": "0x000000000000000000000000000000000000000000000000000146294c120701",
          "blockHash": "0xad83067dc2473afa3ffeb24a6746c4e54782519b013a198fa60b4d16b71c3d7d",
          "blockNumber": "0x731747",
          "transactionHash": "0xaf0150e74eb5c080cf02fe20d2b91bac7e70f688129e5dc6496533b660f2caee",
          "transactionIndex": "0x76",
          "logIndex": "0xd7",
          "removed": false
        },
        {
          "address": "0x8aafd3ede9adb0ff97c7aebce82a919afb1c8764",
          "topics": [
            "0xddf252ad1be2c89b69c2b068fc378daa952ba7f163c4a11628f55a4df523b3ef",
            "0x000000000000000000000000c77f7fed3b5cc8249adc428c5f44c9063b9734b4",
            "0x000000000000000000000000c77f7fed3b5cc8249adc428c5f44c9063b9734b4"
          ],
          "data": "0x000000000000000000000000000000000000000000000000000002a15d844640",
          "blockHash": "0xad83067dc2473afa3ffeb24a6746c4e54782519b013a198fa60b4d16b71c3d7d",
          "blockNumber": "0x731747",
          "transactionHash": "0xaf0150e74eb5c080cf02fe20d2b91bac7e70f688129e5dc6496533b660f2caee",
          "transactionIndex": "0x76",
          "logIndex": "0xd8",
          "removed": false
        },
        {
          "address": "0x8aafd3ede9adb0ff97c7aebce82a919afb1c8764",
          "topics": [
            "0x4afcb4a87cdbd9974efdb92ee48bc8d7cd0ae4bf217004db3d080cbaee652ca7"
          ],
          "data": "0x00000000000000000000000000000000000000000000000000000000679014180000000000000000000000000000000000000000000000000005008a14896f94000000000000000000000000000000000000000000000000000000768274ba63",
          "blockHash": "0xad83067dc2473afa3ffeb24a6746c4e54782519b013a198fa60b4d16b71c3d7d",
          "blockNumber": "0x731747",
          "transactionHash": "0xaf0150e74eb5c080cf02fe20d2b91bac7e70f688129e5dc6496533b660f2caee",
          "transactionIndex": "0x76",
          "logIndex": "0xd9",
          "removed": false
        }
      ],
      "logsBloom": "0x00000000000000000000000000000000000000000600000000000000000000000000000000000000000000000000000000000000000000004000000000000000000000000000004000000008000000000000000000000000000000000000000000000000020000000000000000000800020000000000000000000010000000000000000000000000000000000000000000000000000000000000010000000000000000000000000000000000000000004000000000000000000000000000000000000002000000800000000000000000000000000000080000000000000020000000000000000000000000000000000000000000000000000000000000000000",
      "type": "0x2",
      "transactionHash": "0xaf0150e74eb5c080cf02fe20d2b91bac7e70f688129e5dc6496533b660f2caee",
      "transactionIndex": "0x76",
      "blockHash": "0xad83067dc2473afa3ffeb24a6746c4e54782519b013a198fa60b4d16b71c3d7d",
      "blockNumber": "0x731747",
      "gasUsed": "0xfd33",
      "effectiveGasPrice": "0x45b553f6",
      "from": "0xc77f7fed3b5cc8249adc428c5f44c9063b9734b4",
      "to": "0x8aafd3ede9adb0ff97c7aebce82a919afb1c8764",
      "contractAddress": null
    }
  ],
  "libraries": [],
  "pending": [],
  "returns": {},
  "timestamp": 1737495578,
  "chain": 11155111,
  "commit": "1d2fb70"
}