{
  "transactions": [
    {
      "hash": "0xfe6dccc3c0f8116858979600c420dcf3f438fafed5a38f297452025cef7aca95",
      "transactionType": "CALL",
      "contractName": null,
      "contractAddress": "0x270e88f8683660553e8ba4eb2ad7c91a1710d769",
      "function": "buy(address)",
      "arguments": [
        "0xC77f7fed3b5Cc8249aDc428c5F44C9063B9734b4"
      ],
      "transaction": {
        "from": "0xc77f7fed3b5cc8249adc428c5f44c9063b9734b4",
        "to": "0x270e88f8683660553e8ba4eb2ad7c91a1710d769",
        "gas": "0x1b30c",
        "value": "0xde0b6b3a7640000",
        "input": "0xf088d547000000000000000000000000c77f7fed3b5cc8249adc428c5f44c9063b9734b4",
        "nonce": "0x769",
        "chainId": "0xaa36a7"
      },
      "additionalContracts": [],
      "isFixedGasLimit": false
    }
  ],
  "receipts": [
    {
      "status": "0x1",
      "cumulativeGasUsed": "0x5e2a9e",
      "logs": [
        {
          "address": "0x270e88f8683660553e8ba4eb2ad7c91a1710d769",
          "topics": [
            "0xddf252ad1be2c89b69c2b068fc378daa952ba7f163c4a11628f55a4df523b3ef",
            "0x0000000000000000000000000000000000000000000000000000000000000000",
            "0x000000000000000000000000c77f7fed3b5cc8249adc428c5f44c9063b9734b4"
          ],
          "data": "0x000000000000000000000000000000000000000000000027c558cb25029145f9",
          "blockHash": "0x7d86760ac12bf221939bdf9d862f39f01527257301d45df1d11afc25e90b06fa",
          "blockNumber": "0x725492",
          "transactionHash": "0xfe6dccc3c0f8116858979600c420dcf3f438fafed5a38f297452025cef7aca95",
          "transactionIndex": "0x36",
          "logIndex": "0x48",
          "removed": false
        },
        {
          "address": "0x270e88f8683660553e8ba4eb2ad7c91a1710d769",
          "topics": [
            "0xddf252ad1be2c89b69c2b068fc378daa952ba7f163c4a11628f55a4df523b3ef",
            "0x0000000000000000000000000000000000000000000000000000000000000000",
            "0x000000000000000000000000c77f7fed3b5cc8249adc428c5f44c9063b9734b4"
          ],
          "data": "0x0000000000000000000000000000000000000000000000001ee229c1c9a286d1",
          "blockHash": "0x7d86760ac12bf221939bdf9d862f39f01527257301d45df1d11afc25e90b06fa",
          "blockNumber": "0x725492",
          "transactionHash": "0xfe6dccc3c0f8116858979600c420dcf3f438fafed5a38f297452025cef7aca95",
          "transactionIndex": "0x36",
          "logIndex": "0x49",
          "removed": false
        },
        {
          "address": "0x270e88f8683660553e8ba4eb2ad7c91a1710d769",
          "topics": [
            "0x4afcb4a87cdbd9974efdb92ee48bc8d7cd0ae4bf217004db3d080cbaee652ca7"
          ],
          "data": "0x000000000000000000000000000000000000000000000000000000006786e8e00000000000000000000000000000000000000000000000000004cb675d7f7c460000000000000000000000000000000000000000000000000de0b6b3a7640000",
          "blockHash": "0x7d86760ac12bf221939bdf9d862f39f01527257301d45df1d11afc25e90b06fa",
          "blockNumber": "0x725492",
          "transactionHash": "0xfe6dccc3c0f8116858979600c420dcf3f438fafed5a38f297452025cef7aca95",
          "transactionIndex": "0x36",
          "logIndex": "0x4a",
          "removed": false
        }
      ],
      "logsBloom": "0x00000000000000000000000000000000000000000000000000000000000000000000000000000000000000000000000020000000000000004000000000000000000000000000000000000008000000000000000000000000000000000000000000000000020000000000000000000800020000000000000000000010000000000000000000010000000000000000000000000000000000000000010000000000000000000000000000000000000000004000000000000000000000000000000000000002000000800000000000000000000000000000080000008000000020000000000000000000000000000000000000000000000000000000000000000000",
      "type": "0x2",
      "transactionHash": "0xfe6dccc3c0f8116858979600c420dcf3f438fafed5a38f297452025cef7aca95",
      "transactionIndex": "0x36",
      "blockHash": "0x7d86760ac12bf221939bdf9d862f39f01527257301d45df1d11afc25e90b06fa",
      "blockNumber": "0x725492",
      "gasUsed": "0x13af8",
      "effectiveGasPrice": "0x1605a1d25",
      "from": "0xc77f7fed3b5cc8249adc428c5f44c9063b9734b4",
      "to": "0x270e88f8683660553e8ba4eb2ad7c91a1710d769",
      "contractAddress": null
    }
  ],
  "libraries": [],
  "pending": [],
  "returns": {},
  "timestamp": 1736894689,
  "chain": 11155111,
  "commit": "51a374b"
}