{
  "transactions": [
    {
      "hash": "0x0af4a923406d87f69386cdccea1ed806bd093019c949e5c8d92d33a6eefb61eb",
      "transactionType": "CALL",
      "contractName": null,
      "contractAddress": "0x270e88f8683660553e8ba4eb2ad7c91a1710d769",
      "function": "sell(uint256)",
      "arguments": [
        "757566310442504939101"
      ],
      "transaction": {
        "from": "0xc77f7fed3b5cc8249adc428c5f44c9063b9734b4",
        "to": "0x270e88f8683660553e8ba4eb2ad7c91a1710d769",
        "gas": "0x16fec",
        "value": "0x0",
        "input": "0xe4849b3200000000000000000000000000000000000000000000002911583196d0cde65d",
        "nonce": "0x67a",
        "chainId": "0xaa36a7"
      },
      "additionalContracts": [],
      "isFixedGasLimit": false
    }
  ],
  "receipts": [
    {
      "status": "0x1",
      "cumulativeGasUsed": "0x81657c",
      "logs": [
        {
          "address": "0x270e88f8683660553e8ba4eb2ad7c91a1710d769",
          "topics": [
            "0xddf252ad1be2c89b69c2b068fc378daa952ba7f163c4a11628f55a4df523b3ef",
            "0x000000000000000000000000c77f7fed3b5cc8249adc428c5f44c9063b9734b4",
            "0x0000000000000000000000000000000000000000000000000000000000000000"
          ],
          "data": "0x00000000000000000000000000000000000000000000002911583196d0cde65d",
          "blockHash": "0xb3e27ae7b5daf373d1eb20b3394223db49cf3945f24b037a7dae910287bbd549",
          "blockNumber": "0x725378",
          "transactionHash": "0x0af4a923406d87f69386cdccea1ed806bd093019c949e5c8d92d33a6eefb61eb",
          "transactionIndex": "0x3e",
          "logIndex": "0x6e",
          "removed": false
        },
        {
          "address": "0x270e88f8683660553e8ba4eb2ad7c91a1710d769",
          "topics": [
            "0x4afcb4a87cdbd9974efdb92ee48bc8d7cd0ae4bf217004db3d080cbaee652ca7"
          ],
          "data": "0x000000000000000000000000000000000000000000000000000000006786dba80000000000000000000000000000000000000000000000000004a870cecac28f0000000000000000000000000000000000000000000000000dc82a513f6faf86",
          "blockHash": "0xb3e27ae7b5daf373d1eb20b3394223db49cf3945f24b037a7dae910287bbd549",
          "blockNumber": "0x725378",
          "transactionHash": "0x0af4a923406d87f69386cdccea1ed806bd093019c949e5c8d92d33a6eefb61eb",
          "transactionIndex": "0x3e",
          "logIndex": "0x6f",
          "removed": false
        }
      ],
      "logsBloom": "0x00000000000000000000000000000000000000000000000000000000000000000000000000000000000000000000000020000000000000004000000000000000000000000000000000000008000000000000000000000000000000000000000000000000020000000000000000000800020000000000000000000010000000000000000000010000000000000000000000000000000000000000010000000000000000000000000000000000000000004000000000000000000000000000000000000002000000800000000000000000000000000000080000008000000020000000000000000000000000000000000000000000000000000000000000000000",
      "type": "0x2",
      "transactionHash": "0x0af4a923406d87f69386cdccea1ed806bd093019c949e5c8d92d33a6eefb61eb",
      "transactionIndex": "0x3e",
      "blockHash": "0xb3e27ae7b5daf373d1eb20b3394223db49cf3945f24b037a7dae910287bbd549",
      "blockNumber": "0x725378",
      "gasUsed": "0xfb93",
      "effectiveGasPrice": "0x1fba73c9b",
      "from": "0xc77f7fed3b5cc8249adc428c5f44c9063b9734b4",
      "to": "0x270e88f8683660553e8ba4eb2ad7c91a1710d769",
      "contractAddress": null
    }
  ],
  "libraries": [],
  "pending": [],
  "returns": {},
  "timestamp": 1736891304,
  "chain": 11155111,
  "commit": "51a374b"
}