{
  "transactions": [
    {
      "hash": "0x3a3e895fb93c5a99de8f0e874d00496fe53ea2daeeffd0fb86c5b39041f34ab3",
      "transactionType": "CALL",
      "contractName": null,
      "contractAddress": "0xbf4a322f1496e5c3d34a9bcdb4c60567b38c7de2",
      "function": "buy(address)",
      "arguments": [
        "0xC77f7fed3b5Cc8249aDc428c5F44C9063B9734b4"
      ],
      "transaction": {
        "from": "0xc77f7fed3b5cc8249adc428c5f44c9063b9734b4",
        "to": "0xbf4a322f1496e5c3d34a9bcdb4c60567b38c7de2",
        "gas": "0x1b309",
        "value": "0xde0b6b3a7640000",
        "input": "0xf088d547000000000000000000000000c77f7fed3b5cc8249adc428c5f44c9063b9734b4",
        "nonce": "0xa18",
        "chainId": "0xaa36a7"
      },
      "additionalContracts": [],
      "isFixedGasLimit": false
    }
  ],
  "receipts": [
    {
      "status": "0x1",
      "cumulativeGasUsed": "0x1302518",
      "logs": [
        {
          "address": "0xbf4a322f1496e5c3d34a9bcdb4c60567b38c7de2",
          "topics": [
            "0xddf252ad1be2c89b69c2b068fc378daa952ba7f163c4a11628f55a4df523b3ef",
            "0x0000000000000000000000000000000000000000000000000000000000000000",
            "0x000000000000000000000000c77f7fed3b5cc8249adc428c5f44c9063b9734b4"
          ],
          "data": "0x00000000000000000000000000000000000000000000003556b059f02bff519f",
          "blockHash": "0xfb945c3e99c23c2998c654c4d219ecf784a46ae38524bfd9d07e08247d9bd144",
          "blockNumber": "0x7259d8",
          "transactionHash": "0x3a3e895fb93c5a99de8f0e874d00496fe53ea2daeeffd0fb86c5b39041f34ab3",
          "transactionIndex": "0x47",
          "logIndex": "0x87",
          "removed": false
        },
        {
          "address": "0xbf4a322f1496e5c3d34a9bcdb4c60567b38c7de2",
          "topics": [
            "0xddf252ad1be2c89b69c2b068fc378daa952ba7f163c4a11628f55a4df523b3ef",
            "0x0000000000000000000000000000000000000000000000000000000000000000",
            "0x000000000000000000000000c77f7fed3b5cc8249adc428c5f44c9063b9734b4"
          ],
          "data": "0x000000000000000000000000000000000000000000000000296b54e8428aeb7d",
          "blockHash": "0xfb945c3e99c23c2998c654c4d219ecf784a46ae38524bfd9d07e08247d9bd144",
          "blockNumber": "0x7259d8",
          "transactionHash": "0x3a3e895fb93c5a99de8f0e874d00496fe53ea2daeeffd0fb86c5b39041f34ab3",
          "transactionIndex": "0x47",
          "logIndex": "0x88",
          "removed": false
        },
        {
          "address": "0xbf4a322f1496e5c3d34a9bcdb4c60567b38c7de2",
          "topics": [
            "0x4afcb4a87cdbd9974efdb92ee48bc8d7cd0ae4bf217004db3d080cbaee652ca7"
          ],
          "data": "0x00000000000000000000000000000000000000000000000000000000678728640000000000000000000000000000000000000000000000000003931ec22204d80000000000000000000000000000000000000000000000000de0b6b3a7640000",
          "blockHash": "0xfb945c3e99c23c2998c654c4d219ecf784a46ae38524bfd9d07e08247d9bd144",
          "blockNumber": "0x7259d8",
          "transactionHash": "0x3a3e895fb93c5a99de8f0e874d00496fe53ea2daeeffd0fb86c5b39041f34ab3",
          "transactionIndex": "0x47",
          "logIndex": "0x89",
          "removed": false
        }
      ],
      "logsBloom": "0x00000000000000000000000000000000000000000000000000000000000000000000000000000000000000000000000000000000000000004000000000000000000000000000000000000008000000000000001000000000000000000000000000000000020000000000000000000800020000000000000000000010000000000000000000000000000000000000000000000000000008000000010000000000000000000000000000000000000000004000000000000000000000000000000000000002000000800000000000001000000000000000080000000000000020000000000000000000000000000000000000000000000000000000000000000000",
      "type": "0x2",
      "transactionHash": "0x3a3e895fb93c5a99de8f0e874d00496fe53ea2daeeffd0fb86c5b39041f34ab3",
      "transactionIndex": "0x47",
      "blockHash": "0xfb945c3e99c23c2998c654c4d219ecf784a46ae38524bfd9d07e08247d9bd144",
      "blockNumber": "0x7259d8",
      "gasUsed": "0x13af6",
      "effectiveGasPrice": "0x5ca57a2f2",
      "from": "0xc77f7fed3b5cc8249adc428c5f44c9063b9734b4",
      "to": "0xbf4a322f1496e5c3d34a9bcdb4c60567b38c7de2",
      "contractAddress": null
    }
  ],
  "libraries": [],
  "pending": [],
  "returns": {},
  "timestamp": 1736910949,
  "chain": 11155111,
  "commit": "51a374b"
}