{
  "transactions": [
    {
      "hash": "0xc14fba7e920298a2ce882dfa2e726b674f06c0fa88909b924d03a2c3d6937787",
      "transactionType": "CALL",
      "contractName": null,
      "contractAddress": "0x8aafd3ede9adb0ff97c7aebce82a919afb1c8764",
      "function": "sell(uint256)",
      "arguments": [
        "18553117724549934"
      ],
      "transaction": {
        "from": "0xc77f7fed3b5cc8249adc428c5f44c9063b9734b4",
        "to": "0x8aafd3ede9adb0ff97c7aebce82a919afb1c8764",
        "gas": "0x1724d",
        "value": "0x0",
        "input": "0xe4849b320000000000000000000000000000000000000000000000000041e9f65772a32e",
        "nonce": "0x135a",
        "chainId": "0xaa36a7"
      },
      "additionalContracts": [],
      "isFixedGasLimit": false
    }
  ],
  "receipts": [
    {
      "status": "0x1",
      "cumulativeGasUsed": "0x11e77f2",
      "logs": [
        {
          "address": "0x8aafd3ede9adb0ff97c7aebce82a919afb1c8764",
          "topics": [
            "0xddf252ad1be2c89b69c2b068fc378daa952ba7f163c4a11628f55a4df523b3ef",
            "0x000000000000000000000000c77f7fed3b5cc8249adc428c5f44c9063b9734b4",
            "0x0000000000000000000000000000000000000000000000000000000000000000"
          ],
          "data": "0x000000000000000000000000000000000000000000000000004162f8778426ff",
          "blockHash": "0x38e835acaad92444ee709fafc6d29f18d92685541f87e1f5d8ef61eb37620eaf",
          "blockNumber": "0x731a78",
          "transactionHash": "0xc14fba7e920298a2ce882dfa2e726b674f06c0fa88909b924d03a2c3d6937787",
          "transactionIndex": "0x9f",
          "logIndex": "0x127",
          "removed": false
        },
        {
          "address": "0x8aafd3ede9adb0ff97c7aebce82a919afb1c8764",
          "topics": [
            "0xddf252ad1be2c89b69c2b068fc378daa952ba7f163c4a11628f55a4df523b3ef",
            "0x000000000000000000000000c77f7fed3b5cc8249adc428c5f44c9063b9734b4",
            "0x000000000000000000000000c77f7fed3b5cc8249adc428c5f44c9063b9734b4"
          ],
          "data": "0x000000000000000000000000000000000000000000000000000086fddfee7c2f",
          "blockHash": "0x38e835acaad92444ee709fafc6d29f18d92685541f87e1f5d8ef61eb37620eaf",
          "blockNumber": "0x731a78",
          "transactionHash": "0xc14fba7e920298a2ce882dfa2e726b674f06c0fa88909b924d03a2c3d6937787",
          "transactionIndex": "0x9f",
          "logIndex": "0x128",
          "removed": false
        },
        {
          "address": "0x8aafd3ede9adb0ff97c7aebce82a919afb1c8764",
          "topics": [
            "0x4afcb4a87cdbd9974efdb92ee48bc8d7cd0ae4bf217004db3d080cbaee652ca7"
          ],
          "data": "0x0000000000000000000000000000000000000000000000000000000067903a70000000000000000000000000000000000000000000000000000c456f16d9b56000000000000000000000000000000000000000000000000000003a488aee91e8",
          "blockHash": "0x38e835acaad92444ee709fafc6d29f18d92685541f87e1f5d8ef61eb37620eaf",
          "blockNumber": "0x731a78",
          "transactionHash": "0xc14fba7e920298a2ce882dfa2e726b674f06c0fa88909b924d03a2c3d6937787",
          "transactionIndex": "0x9f",
          "logIndex": "0x129",
          "removed": false
        }
      ],
      "logsBloom": "0x00000000000000000000000000000000000000000600000000000000000000000000000000000000000000000000000000000000000000004000000000000000000000000000004000000008000000000000000000000000000000000000000000000000020000000000000000000800020000000000000000000010000000000000000000000000000000000000000000000000000000000000010000000000000000000000000000000000000000004000000000000000000000000000000000000002000000800000000000000000000000000000080000000000000020000000000000000000000000000000000000000000000000000000000000000000",
      "type": "0x2",
      "transactionHash": "0xc14fba7e920298a2ce882dfa2e726b674f06c0fa88909b924d03a2c3d6937787",
      "transactionIndex": "0x9f",
      "blockHash": "0x38e835acaad92444ee709fafc6d29f18d92685541f87e1f5d8ef61eb37620eaf",
      "blockNumber": "0x731a78",
      "gasUsed": "0xfd33",
      "effectiveGasPrice": "0x42daed04",
      "from": "0xc77f7fed3b5cc8249adc428c5f44c9063b9734b4",
      "to": "0x8aafd3ede9adb0ff97c7aebce82a919afb1c8764",
      "contractAddress": null
    }
  ],
  "libraries": [],
  "pending": [],
  "returns": {},
  "timestamp": 1737505393,
  "chain": 11155111,
  "commit": "1d2fb70"
}