{
  "transactions": [
    {
      "hash": "0x57b1a6951ce36698b6cb9835bc23e7b5a81f0b446fdc7832f3481929f3dd1231",
      "transactionType": "CALL",
      "contractName": null,
      "contractAddress": "0x8aafd3ede9adb0ff97c7aebce82a919afb1c8764",
      "function": "sell(uint256)",
      "arguments": [
        "21869757348"
      ],
      "transaction": {
        "from": "0xc77f7fed3b5cc8249adc428c5f44c9063b9734b4",
        "to": "0x8aafd3ede9adb0ff97c7aebce82a919afb1c8764",
        "gas": "0x1722a",
        "value": "0x0",
        "input": "0xe4849b3200000000000000000000000000000000000000000000000000000005178a03a4",
        "nonce": "0x12b2",
        "chainId": "0xaa36a7"
      },
      "additionalContracts": [],
      "isFixedGasLimit": false
    }
  ],
  "receipts": [
    {
      "status": "0x1",
      "cumulativeGasUsed": "0x19b890a",
      "logs": [
        {
          "address": "0x8aafd3ede9adb0ff97c7aebce82a919afb1c8764",
          "topics": [
            "0xddf252ad1be2c89b69c2b068fc378daa952ba7f163c4a11628f55a4df523b3ef",
            "0x000000000000000000000000c77f7fed3b5cc8249adc428c5f44c9063b9734b4",
            "0x0000000000000000000000000000000000000000000000000000000000000000"
          ],
          "data": "0x000000000000000000000000000000000000000000000000000000050d1c5dba",
          "blockHash": "0xdecf6ae93f809736dcabee0e80c2292baee3ea8176898969fb1643819e712ea0",
          "blockNumber": "0x7319a9",
          "transactionHash": "0x57b1a6951ce36698b6cb9835bc23e7b5a81f0b446fdc7832f3481929f3dd1231",
          "transactionIndex": "0xd1",
          "logIndex": "0x15f",
          "removed": false
        },
        {
          "address": "0x8aafd3ede9adb0ff97c7aebce82a919afb1c8764",
          "topics": [
            "0xddf252ad1be2c89b69c2b068fc378daa952ba7f163c4a11628f55a4df523b3ef",
            "0x000000000000000000000000c77f7fed3b5cc8249adc428c5f44c9063b9734b4",
            "0x000000000000000000000000c77f7fed3b5cc8249adc428c5f44c9063b9734b4"
          ],
          "data": "0x000000000000000000000000000000000000000000000000000000000a6da5ea",
          "blockHash": "0xdecf6ae93f809736dcabee0e80c2292baee3ea8176898969fb1643819e712ea0",
          "blockNumber": "0x7319a9",
          "transactionHash": "0x57b1a6951ce36698b6cb9835bc23e7b5a81f0b446fdc7832f3481929f3dd1231",
          "transactionIndex": "0xd1",
          "logIndex": "0x160",
          "removed": false
        },
        {
          "address": "0x8aafd3ede9adb0ff97c7aebce82a919afb1c8764",
          "topics": [
            "0x4afcb4a87cdbd9974efdb92ee48bc8d7cd0ae4bf217004db3d080cbaee652ca7"
          ],
          "data": "0x00000000000000000000000000000000000000000000000000000000679030bc00000000000000000000000000000000000000000000000000054aa30d7899640000000000000000000000000000000000000000000000000000000001f108e6",
          "blockHash": "0xdecf6ae93f809736dcabee0e80c2292baee3ea8176898969fb1643819e712ea0",
          "blockNumber": "0x7319a9",
          "transactionHash": "0x57b1a6951ce36698b6cb9835bc23e7b5a81f0b446fdc7832f3481929f3dd1231",
          "transactionIndex": "0xd1",
          "logIndex": "0x161",
          "removed": false
        }
      ],
      "logsBloom": "0x00000000000000000000000000000000000000000600000000000000000000000000000000000000000000000000000000000000000000004000000000000000000000000000004000000008000000000000000000000000000000000000000000000000020000000000000000000800020000000000000000000010000000000000000000000000000000000000000000000000000000000000010000000000000000000000000000000000000000004000000000000000000000000000000000000002000000800000000000000000000000000000080000000000000020000000000000000000000000000000000000000000000000000000000000000000",
      "type": "0x2",
      "transactionHash": "0x57b1a6951ce36698b6cb9835bc23e7b5a81f0b446fdc7832f3481929f3dd1231",
      "transactionIndex": "0xd1",
      "blockHash": "0xdecf6ae93f809736dcabee0e80c2292baee3ea8176898969fb1643819e712ea0",
      "blockNumber": "0x7319a9",
      "gasUsed": "0xfd1b",
      "effectiveGasPrice": "0x3976df6a",
      "from": "0xc77f7fed3b5cc8249adc428c5f44c9063b9734b4",
      "to": "0x8aafd3ede9adb0ff97c7aebce82a919afb1c8764",
      "contractAddress": null
    }
  ],
  "libraries": [],
  "pending": [],
  "returns": {},
  "timestamp": 1737502909,
  "chain": 11155111,
  "commit": "1d2fb70"
}