{
  "transactions": [
    {
      "hash": "0x45494997aeacca267e237d762a9bf432529d92b86e0b704b3089e2f1257b1890",
      "transactionType": "CALL",
      "contractName": null,
      "contractAddress": "0xbf4a322f1496e5c3d34a9bcdb4c60567b38c7de2",
      "function": "sell(uint256)",
      "arguments": [
        "986527485839897220573"
      ],
      "transaction": {
        "from": "0xc77f7fed3b5cc8249adc428c5f44c9063b9734b4",
        "to": "0xbf4a322f1496e5c3d34a9bcdb4c60567b38c7de2",
        "gas": "0x16fea",
        "value": "0x0",
        "input": "0xe4849b320000000000000000000000000000000000000000000000357ad1b186564755dd",
        "nonce": "0xa35",
        "chainId": "0xaa36a7"
      },
      "additionalContracts": [],
      "isFixedGasLimit": false
    }
  ],
  "receipts": [
    {
      "status": "0x1",
      "cumulativeGasUsed": "0xbdace8",
      "logs": [
        {
          "address": "0xbf4a322f1496e5c3d34a9bcdb4c60567b38c7de2",
          "topics": [
            "0xddf252ad1be2c89b69c2b068fc378daa952ba7f163c4a11628f55a4df523b3ef",
            "0x000000000000000000000000c77f7fed3b5cc8249adc428c5f44c9063b9734b4",
            "0x0000000000000000000000000000000000000000000000000000000000000000"
          ],
          "data": "0x0000000000000000000000000000000000000000000000357ad1b186564755dd",
          "blockHash": "0x7fcd4d5a328f9a8a8e77bdf9d398f44bd2f35f182b4af7c4f31599836f09a097",
          "blockNumber": "0x725a08",
          "transactionHash": "0x45494997aeacca267e237d762a9bf432529d92b86e0b704b3089e2f1257b1890",
          "transactionIndex": "0x7a",
          "logIndex": "0xd6",
          "removed": false
        },
        {
          "address": "0xbf4a322f1496e5c3d34a9bcdb4c60567b38c7de2",
          "topics": [
            "0x4afcb4a87cdbd9974efdb92ee48bc8d7cd0ae4bf217004db3d080cbaee652ca7"
          ],
          "data": "0x0000000000000000000000000000000000000000000000000000000067872ab00000000000000000000000000000000000000000000000000003937d6596628e0000000000000000000000000000000000000000000000000dc7e3f13e2781d6",
          "blockHash": "0x7fcd4d5a328f9a8a8e77bdf9d398f44bd2f35f182b4af7c4f31599836f09a097",
          "blockNumber": "0x725a08",
          "transactionHash": "0x45494997aeacca267e237d762a9bf432529d92b86e0b704b3089e2f1257b1890",
          "transactionIndex": "0x7a",
          "logIndex": "0xd7",
          "removed": false
        }
      ],
      "logsBloom": "0x00000000000000000000000000000000000000000000000000000000000000000000000000000000000000000000000000000000000000004000000000000000000000000000000000000008000000000000001000000000000000000000000000000000020000000000000000000800020000000000000000000010000000000000000000000000000000000000000000000000000008000000010000000000000000000000000000000000000000004000000000000000000000000000000000000002000000800000000000001000000000000000080000000000000020000000000000000000000000000000000000000000000000000000000000000000",
      "type": "0x2",
      "transactionHash": "0x45494997aeacca267e237d762a9bf432529d92b86e0b704b3089e2f1257b1890",
      "transactionIndex": "0x7a",
      "blockHash": "0x7fcd4d5a328f9a8a8e77bdf9d398f44bd2f35f182b4af7c4f31599836f09a097",
      "blockNumber": "0x725a08",
      "gasUsed": "0xfb91",
      "effectiveGasPrice": "0x6c90a3953",
      "from": "0xc77f7fed3b5cc8249adc428c5f44c9063b9734b4",
      "to": "0xbf4a322f1496e5c3d34a9bcdb4c60567b38c7de2",
      "contractAddress": null
    }
  ],
  "libraries": [],
  "pending": [],
  "returns": {},
  "timestamp": 1736911536,
  "chain": 11155111,
  "commit": "51a374b"
}