{
  "transactions": [
    {
      "hash": "0x137018e65172a040ee22de5fa52da6c722141c51e9099feb7c3c83b99639cd7d",
      "transactionType": "CALL",
      "contractName": null,
      "contractAddress": "0x8aafd3ede9adb0ff97c7aebce82a919afb1c8764",
      "function": "buy(address)",
      "arguments": [
        "0xC77f7fed3b5Cc8249aDc428c5F44C9063B9734b4"
      ],
      "transaction": {
        "from": "0xc77f7fed3b5cc8249adc428c5f44c9063b9734b4",
        "to": "0x8aafd3ede9adb0ff97c7aebce82a919afb1c8764",
        "gas": "0x156ea",
        "value": "0xde0b6b3a7640000",
        "input": "0xf088d547000000000000000000000000c77f7fed3b5cc8249adc428c5f44c9063b9734b4",
        "nonce": "0x149b",
        "chainId": "0xaa36a7"
      },
      "additionalContracts": [],
      "isFixedGasLimit": false
    }
  ],
  "receipts": [
    {
      "status": "0x1",
      "cumulativeGasUsed": "0x12fe03d",
      "logs": [
        {
          "address": "0x8aafd3ede9adb0ff97c7aebce82a919afb1c8764",
          "topics": [
            "0xddf252ad1be2c89b69c2b068fc378daa952ba7f163c4a11628f55a4df523b3ef",
            "0x0000000000000000000000000000000000000000000000000000000000000000",
            "0x000000000000000000000000c77f7fed3b5cc8249adc428c5f44c9063b9734b4"
          ],
          "data": "0x00000000000000000000000000000000000000000000000c05770afd35a44d67",
          "blockHash": "0x0a1c5a938e142abf437567b00341a9bf471318261b112e5cb19f45fd965673be",
          "blockNumber": "0x731bed",
          "transactionHash": "0x137018e65172a040ee22de5fa52da6c722141c51e9099feb7c3c83b99639cd7d",
          "transactionIndex": "0x9a",
          "logIndex": "0x111",
          "removed": false
        },
        {
          "address": "0x8aafd3ede9adb0ff97c7aebce82a919afb1c8764",
          "topics": [
            "0xddf252ad1be2c89b69c2b068fc378daa952ba7f163c4a11628f55a4df523b3ef",
            "0x0000000000000000000000000000000000000000000000000000000000000000",
            "0x000000000000000000000000c77f7fed3b5cc8249adc428c5f44c9063b9734b4"
          ],
          "data": "0x0000000000000000000000000000000000000000000000000955c1ad7a1e0da3",
          "blockHash": "0x0a1c5a938e142abf437567b00341a9bf471318261b112e5cb19f45fd965673be",
          "blockNumber": "0x731bed",
          "transactionHash": "0x137018e65172a040ee22de5fa52da6c722141c51e9099feb7c3c83b99639cd7d",
          "transactionIndex": "0x9a",
          "logIndex": "0x112",
          "removed": false
        },
        {
          "address": "0x8aafd3ede9adb0ff97c7aebce82a919afb1c8764",
          "topics": [
            "0x4afcb4a87cdbd9974efdb92ee48bc8d7cd0ae4bf217004db3d080cbaee652ca7"
          ],
          "data": "0x0000000000000000000000000000000000000000000000000000000067904bf8000000000000000000000000000000000000000000000000000fe2be2ecd54060000000000000000000000000000000000000000000000000de0b6b3a7640000",
          "blockHash": "0x0a1c5a938e142abf437567b00341a9bf471318261b112e5cb19f45fd965673be",
          "blockNumber": "0x731bed",
          "transactionHash": "0x137018e65172a040ee22de5fa52da6c722141c51e9099feb7c3c83b99639cd7d",
          "transactionIndex": "0x9a",
          "logIndex": "0x113",
          "removed": false
        }
      ],
      "logsBloom": "0x00000000000000000000000000000000000000000600000000000000000000000000000000000000000000000000000000000000000000004000000000000000000000000000004000000008000000000000000000000000000000000000000000000000020000000000000000000800020000000000000000000010000000000000000000000000000000000000000000000000000000000000010000000000000000000000000000000000000000004000000000000000000000000000000000000002000000800000000000000000000000000000080000000000000020000000000000000000000000000000000000000000000000000000000000000000",
      "type": "0x2",
      "transactionHash": "0x137018e65172a040ee22de5fa52da6c722141c51e9099feb7c3c83b99639cd7d",
      "transactionIndex": "0x9a",
      "blockHash": "0x0a1c5a938e142abf437567b00341a9bf471318261b112e5cb19f45fd965673be",
      "blockNumber": "0x731bed",
      "gasUsed": "0xf844",
      "effectiveGasPrice": "0xfddb2f9a",
      "from": "0xc77f7fed3b5cc8249adc428c5f44c9063b9734b4",
      "to": "0x8aafd3ede9adb0ff97c7aebce82a919afb1c8764",
      "contractAddress": null
    }
  ],
  "libraries": [],
  "pending": [],
  "returns": {},
  "timestamp": 1737509881,
  "chain": 11155111,
  "commit": "1d2fb70"
}