{
  "transactions": [
    {
      "hash": "0x1158f0e02da23525748cabf61b8b9dea8c26a6f3b0ae51217f386620586c3417",
      "transactionType": "CALL",
      "contractName": null,
      "contractAddress": "0x270e88f8683660553e8ba4eb2ad7c91a1710d769",
      "function": "buy(address)",
      "arguments": [
        "0xC77f7fed3b5Cc8249aDc428c5F44C9063B9734b4"
      ],
      "transaction": {
        "from": "0xc77f7fed3b5cc8249adc428c5f44c9063b9734b4",
        "to": "0x270e88f8683660553e8ba4eb2ad7c91a1710d769",
        "gas": "0x1b30c",
        "value": "0xde0b6b3a7640000",
        "input": "0xf088d547000000000000000000000000c77f7fed3b5cc8249adc428c5f44c9063b9734b4",
        "nonce": "0x4e6",
        "chainId": "0xaa36a7"
      },
      "additionalContracts": [],
      "isFixedGasLimit": false
    }
  ],
  "receipts": [
    {
      "status": "0x1",
      "cumulativeGasUsed": "0xa79630",
      "logs": [
        {
          "address": "0x270e88f8683660553e8ba4eb2ad7c91a1710d769",
          "topics": [
            "0xddf252ad1be2c89b69c2b068fc378daa952ba7f163c4a11628f55a4df523b3ef",
            "0x0000000000000000000000000000000000000000000000000000000000000000",
            "0x000000000000000000000000c77f7fed3b5cc8249adc428c5f44c9063b9734b4"
          ],
          "data": "0x0000000000000000000000000000000000000000000000358353dee0ad84e0de",
          "blockHash": "0x84a6a96aacefc5ead4420f44e79ceea679519a85ac9883a27bde01f5d101a346",
          "blockNumber": "0x725175",
          "transactionHash": "0x1158f0e02da23525748cabf61b8b9dea8c26a6f3b0ae51217f386620586c3417",
          "transactionIndex": "0x5b",
          "logIndex": "0x79",
          "removed": false
        },
        {
          "address": "0x270e88f8683660553e8ba4eb2ad7c91a1710d769",
          "topics": [
            "0xddf252ad1be2c89b69c2b068fc378daa952ba7f163c4a11628f55a4df523b3ef",
            "0x0000000000000000000000000000000000000000000000000000000000000000",
            "0x000000000000000000000000c77f7fed3b5cc8249adc428c5f44c9063b9734b4"
          ],
          "data": "0x000000000000000000000000000000000000000000000000298dfec40abedb17",
          "blockHash": "0x84a6a96aacefc5ead4420f44e79ceea679519a85ac9883a27bde01f5d101a346",
          "blockNumber": "0x725175",
          "transactionHash": "0x1158f0e02da23525748cabf61b8b9dea8c26a6f3b0ae51217f386620586c3417",
          "transactionIndex": "0x5b",
          "logIndex": "0x7a",
          "removed": false
        },
        {
          "address": "0x270e88f8683660553e8ba4eb2ad7c91a1710d769",
          "topics": [
            "0x4afcb4a87cdbd9974efdb92ee48bc8d7cd0ae4bf217004db3d080cbaee652ca7"
          ],
          "data": "0x000000000000000000000000000000000000000000000000000000006786c3600000000000000000000000000000000000000000000000000003903bc94886560000000000000000000000000000000000000000000000000de0b6b3a7640000",
          "blockHash": "0x84a6a96aacefc5ead4420f44e79ceea679519a85ac9883a27bde01f5d101a346",
          "blockNumber": "0x725175",
          "transactionHash": "0x1158f0e02da23525748cabf61b8b9dea8c26a6f3b0ae51217f386620586c3417",
          "transactionIndex": "0x5b",
          "logIndex": "0x7b",
          "removed": false
        }
      ],
      "logsBloom": "0x00000000000000000000000000000000000000000000000000000000000000000000000000000000000000000000000020000000000000004000000000000000000000000000000000000008000000000000000000000000000000000000000000000000020000000000000000000800020000000000000000000010000000000000000000010000000000000000000000000000000000000000010000000000000000000000000000000000000000004000000000000000000000000000000000000002000000800000000000000000000000000000080000008000000020000000000000000000000000000000000000000000000000000000000000000000",
      "type": "0x2",
      "transactionHash": "0x1158f0e02da23525748cabf61b8b9dea8c26a6f3b0ae51217f386620586c3417",
      "transactionIndex": "0x5b",
      "blockHash": "0x84a6a96aacefc5ead4420f44e79ceea679519a85ac9883a27bde01f5d101a346",
      "blockNumber": "0x725175",
      "gasUsed": "0x13af8",
      "effectiveGasPrice": "0x408d2c2e1",
      "from": "0xc77f7fed3b5cc8249adc428c5f44c9063b9734b4",
      "to": "0x270e88f8683660553e8ba4eb2ad7c91a1710d769",
      "contractAddress": null
    }
  ],
  "libraries": [],
  "pending": [],
  "returns": {},
  "timestamp": 1736885089,
  "chain": 11155111,
  "commit": "51a374b"
}