{
  "transactions": [
    {
      "hash": "0xeebcbda10d7d582a1f4b5e8a1e929846988af05ee768f21b53020301329af64d",
      "transactionType": "CALL",
      "contractName": null,
      "contractAddress": "0x8aafd3ede9adb0ff97c7aebce82a919afb1c8764",
      "function": "sell(uint256)",
      "arguments": [
        "3244762974131"
      ],
      "transaction": {
        "from": "0xc77f7fed3b5cc8249adc428c5f44c9063b9734b4",
        "to": "0x8aafd3ede9adb0ff97c7aebce82a919afb1c8764",
        "gas": "0x15daa",
        "value": "0x0",
        "input": "0xe4849b32000000000000000000000000000000000000000000000000000002f37af1c7b3",
        "nonce": "0xf1b",
        "chainId": "0xaa36a7"
      },
      "additionalContracts": [],
      "isFixedGasLimit": false
    }
  ],
  "receipts": [
    {
      "status": "0x1",
      "cumulativeGasUsed": "0xff0947",
      "logs": [
        {
          "address": "0x8aafd3ede9adb0ff97c7aebce82a919afb1c8764",
          "topics": [
            "0xddf252ad1be2c89b69c2b068fc378daa952ba7f163c4a11628f55a4df523b3ef",
            "0x000000000000000000000000c77f7fed3b5cc8249adc428c5f44c9063b9734b4",
            "0x0000000000000000000000000000000000000000000000000000000000000000"
          ],
          "data": "0x000000000000000000000000000000000000000000000000000002ed6fb88cc2",
          "blockHash": "0xe5b1d0e1e6c77be23fae93d6f31bc781a35b00ccf0661ebc8a38edb9473ec675",
          "blockNumber": "0x73156c",
          "transactionHash": "0xeebcbda10d7d582a1f4b5e8a1e929846988af05ee768f21b53020301329af64d",
          "transactionIndex": "0x88",
          "logIndex": "0x136",
          "removed": false
        },
        {
          "address": "0x8aafd3ede9adb0ff97c7aebce82a919afb1c8764",
          "topics": [
            "0xddf252ad1be2c89b69c2b068fc378daa952ba7f163c4a11628f55a4df523b3ef",
            "0x000000000000000000000000c77f7fed3b5cc8249adc428c5f44c9063b9734b4",
            "0x000000000000000000000000c77f7fed3b5cc8249adc428c5f44c9063b9734b4"
          ],
          "data": "0x000000000000000000000000000000000000000000000000000000060b393af1",
          "blockHash": "0xe5b1d0e1e6c77be23fae93d6f31bc781a35b00ccf0661ebc8a38edb9473ec675",
          "blockNumber": "0x73156c",
          "transactionHash": "0xeebcbda10d7d582a1f4b5e8a1e929846988af05ee768f21b53020301329af64d",
          "transactionIndex": "0x88",
          "logIndex": "0x137",
          "removed": false
        },
        {
          "address": "0x8aafd3ede9adb0ff97c7aebce82a919afb1c8764",
          "topics": [
            "0x4afcb4a87cdbd9974efdb92ee48bc8d7cd0ae4bf217004db3d080cbaee652ca7"
          ],
          "data": "0x00000000000000000000000000000000000000000000000000000000678ffdbc0000000000000000000000000000000000000000000000000004bee3f24026fb0000000000000000000000000000000000000000000000000000000102585019",
          "blockHash": "0xe5b1d0e1e6c77be23fae93d6f31bc781a35b00ccf0661ebc8a38edb9473ec675",
          "blockNumber": "0x73156c",
          "transactionHash": "0xeebcbda10d7d582a1f4b5e8a1e929846988af05ee768f21b53020301329af64d",
          "transactionIndex": "0x88",
          "logIndex": "0x138",
          "removed": false
        }
      ],
      "logsBloom": "0x00000000000000000000000000000000000000000600000000000000000000000000000000000000000000000000000000000000000000004000000000000000000000000000004000000008000000000000000000000000000000000000000000000000020000000000000000000800020000000000000000000010000000000000000000000000000000000000000000000000000000000000010000000000000000000000000000000000000000004000000000000000000000000000000000000002000000800000000000000000000000000000080000000000000020000000000000000000000000000000000000000000000000000000000000000000",
      "type": "0x2",
      "transactionHash": "0xeebcbda10d7d582a1f4b5e8a1e929846988af05ee768f21b53020301329af64d",
      "transactionIndex": "0x88",
      "blockHash": "0xe5b1d0e1e6c77be23fae93d6f31bc781a35b00ccf0661ebc8a38edb9473ec675",
      "blockNumber": "0x73156c",
      "gasUsed": "0xfd27",
      "effectiveGasPrice": "0x8a09b5b8",
      "from": "0xc77f7fed3b5cc8249adc428c5f44c9063b9734b4",
      "to": "0x8aafd3ede9adb0ff97c7aebce82a919afb1c8764",
      "contractAddress": null
    }
  ],
  "libraries": [],
  "pending": [],
  "returns": {},
  "timestamp": 1737489853,
  "chain": 11155111,
  "commit": "1d2fb70"
}