{
  "transactions": [
    {
      "hash": "0xa0d57c965142bb06fd692691cefcecd2c297663e7d6e95679381c81edd49c2be",
      "transactionType": "CALL",
      "contractName": null,
      "contractAddress": "0x8aafd3ede9adb0ff97c7aebce82a919afb1c8764",
      "function": "buy(address)",
      "arguments": [
        "0xC77f7fed3b5Cc8249aDc428c5F44C9063B9734b4"
      ],
      "transaction": {
        "from": "0xc77f7fed3b5cc8249adc428c5f44c9063b9734b4",
        "to": "0x8aafd3ede9adb0ff97c7aebce82a919afb1c8764",
        "gas": "0x156ea",
        "value": "0xde0b6b3a7640000",
        "input": "0xf088d547000000000000000000000000c77f7fed3b5cc8249adc428c5f44c9063b9734b4",
        "nonce": "0x13ba",
        "chainId": "0xaa36a7"
      },
      "additionalContracts": [],
      "isFixedGasLimit": false
    }
  ],
  "receipts": [
    {
      "status": "0x1",
      "cumulativeGasUsed": "0x5cfdb6",
      "logs": [
        {
          "address": "0x8aafd3ede9adb0ff97c7aebce82a919afb1c8764",
          "topics": [
            "0xddf252ad1be2c89b69c2b068fc378daa952ba7f163c4a11628f55a4df523b3ef",
            "0x0000000000000000000000000000000000000000000000000000000000000000",
            "0x000000000000000000000000c77f7fed3b5cc8249adc428c5f44c9063b9734b4"
          ],
          "data": "0x00000000000000000000000000000000000000000000000e5873d605aaa16948",
          "blockHash": "0x8ce11e25302e256d6bf6c250f77bc9590de681281f1d983c3879331b582f8909",
          "blockNumber": "0x731ae4",
          "transactionHash": "0xa0d57c965142bb06fd692691cefcecd2c297663e7d6e95679381c81edd49c2be",
          "transactionIndex": "0x33",
          "logIndex": "0x37",
          "removed": false
        },
        {
          "address": "0x8aafd3ede9adb0ff97c7aebce82a919afb1c8764",
          "topics": [
            "0xddf252ad1be2c89b69c2b068fc378daa952ba7f163c4a11628f55a4df523b3ef",
            "0x0000000000000000000000000000000000000000000000000000000000000000",
            "0x000000000000000000000000c77f7fed3b5cc8249adc428c5f44c9063b9734b4"
          ],
          "data": "0x0000000000000000000000000000000000000000000000000b23c8dcecf4e957",
          "blockHash": "0x8ce11e25302e256d6bf6c250f77bc9590de681281f1d983c3879331b582f8909",
          "blockNumber": "0x731ae4",
          "transactionHash": "0xa0d57c965142bb06fd692691cefcecd2c297663e7d6e95679381c81edd49c2be",
          "transactionIndex": "0x33",
          "logIndex": "0x38",
          "removed": false
        },
        {
          "address": "0x8aafd3ede9adb0ff97c7aebce82a919afb1c8764",
          "topics": [
            "0x4afcb4a87cdbd9974efdb92ee48bc8d7cd0ae4bf217004db3d080cbaee652ca7"
          ],
          "data": "0x0000000000000000000000000000000000000000000000000000000067903f80000000000000000000000000000000000000000000000000000d50a5907ebc180000000000000000000000000000000000000000000000000de0b6b3a7640000",
          "blockHash": "0x8ce11e25302e256d6bf6c250f77bc9590de681281f1d983c3879331b582f8909",
          "blockNumber": "0x731ae4",
          "transactionHash": "0xa0d57c965142bb06fd692691cefcecd2c297663e7d6e95679381c81edd49c2be",
          "transactionIndex": "0x33",
          "logIndex": "0x39",
          "removed": false
        }
      ],
      "logsBloom": "0x00000000000000000000000000000000000000000600000000000000000000000000000000000000000000000000000000000000000000004000000000000000000000000000004000000008000000000000000000000000000000000000000000000000020000000000000000000800020000000000000000000010000000000000000000000000000000000000000000000000000000000000010000000000000000000000000000000000000000004000000000000000000000000000000000000002000000800000000000000000000000000000080000000000000020000000000000000000000000000000000000000000000000000000000000000000",
      "type": "0x2",
      "transactionHash": "0xa0d57c965142bb06fd692691cefcecd2c297663e7d6e95679381c81edd49c2be",
      "transactionIndex": "0x33",
      "blockHash": "0x8ce11e25302e256d6bf6c250f77bc9590de681281f1d983c3879331b582f8909",
      "blockNumber": "0x731ae4",
      "gasUsed": "0xf844",
      "effectiveGasPrice": "0x853bad6b",
      "from": "0xc77f7fed3b5cc8249adc428c5f44c9063b9734b4",
      "to": "0x8aafd3ede9adb0ff97c7aebce82a919afb1c8764",
      "contractAddress": null
    }
  ],
  "libraries": [],
  "pending": [],
  "returns": {},
  "timestamp": 1737506689,
  "chain": 11155111,
  "commit": "1d2fb70"
}