{
  "transactions": [
    {
      "hash": "0x4e4229f3a750c7d31b946c74defd4d5c38d648bbce82c1eac701838b80ade079",
      "transactionType": "CALL",
      "contractName": null,
      "contractAddress": "0x5eb9cc76c3506942c1c0ead70e877dd5e4f00cb0",
      "function": "buy(address)",
      "arguments": [
        "0xC77f7fed3b5Cc8249aDc428c5F44C9063B9734b4"
      ],
      "transaction": {
        "from": "0xc77f7fed3b5cc8249adc428c5f44c9063b9734b4",
        "to": "0x5eb9cc76c3506942c1c0ead70e877dd5e4f00cb0",
        "gas": "0x156c8",
        "value": "0xde0b6b3a7640000",
        "input": "0xf088d547000000000000000000000000c77f7fed3b5cc8249adc428c5f44c9063b9734b4",
        "nonce": "0x20f",
        "chainId": "0xaa36a7"
      },
      "additionalContracts": [],
      "isFixedGasLimit": false
    }
  ],
  "receipts": [
    {
      "status": "0x1",
      "cumulativeGasUsed": "0xe306d2",
      "logs": [
        {
          "address": "0x5eb9cc76c3506942c1c0ead70e877dd5e4f00cb0",
          "topics": [
            "0xddf252ad1be2c89b69c2b068fc378daa952ba7f163c4a11628f55a4df523b3ef",
            "0x0000000000000000000000000000000000000000000000000000000000000000",
            "0x000000000000000000000000c77f7fed3b5cc8249adc428c5f44c9063b9734b4"
          ],
          "data": "0x00000000000000000000000000000000000000000000003584b6e50a7a840aa7",
          "blockHash": "0x00c718ff8a8a4d400cc93e066db29e283ff1001e37ea17a3794d544139500d29",
          "blockNumber": "0x724b2a",
          "transactionHash": "0x4e4229f3a750c7d31b946c74defd4d5c38d648bbce82c1eac701838b80ade079",
          "transactionIndex": "0x6a",
          "logIndex": "0x8f",
          "removed": false
        },
        {
          "address": "0x5eb9cc76c3506942c1c0ead70e877dd5e4f00cb0",
          "topics": [
            "0xddf252ad1be2c89b69c2b068fc378daa952ba7f163c4a11628f55a4df523b3ef",
            "0x0000000000000000000000000000000000000000000000000000000000000000",
            "0x000000000000000000000000c77f7fed3b5cc8249adc428c5f44c9063b9734b4"
          ],
          "data": "0x000000000000000000000000000000000000000000000000298f12743f750f2a",
          "blockHash": "0x00c718ff8a8a4d400cc93e066db29e283ff1001e37ea17a3794d544139500d29",
          "blockNumber": "0x724b2a",
          "transactionHash": "0x4e4229f3a750c7d31b946c74defd4d5c38d648bbce82c1eac701838b80ade079",
          "transactionIndex": "0x6a",
          "logIndex": "0x90",
          "removed": false
        },
        {
          "address": "0x5eb9cc76c3506942c1c0ead70e877dd5e4f00cb0",
          "topics": [
            "0x4afcb4a87cdbd9974efdb92ee48bc8d7cd0ae4bf217004db3d080cbaee652ca7"
          ],
          "data": "0x00000000000000000000000000000000000000000000000000000000678677a00000000000000000000000000000000000000000000000000003900977682aeb0000000000000000000000000000000000000000000000000de0b6b3a7640000",
          "blockHash": "0x00c718ff8a8a4d400cc93e066db29e283ff1001e37ea17a3794d544139500d29",
          "blockNumber": "0x724b2a",
          "transactionHash": "0x4e4229f3a750c7d31b946c74defd4d5c38d648bbce82c1eac701838b80ade079",
          "transactionIndex": "0x6a",
          "logIndex": "0x91",
          "removed": false
        }
      ],
      "logsBloom": "0x00000000000000000000000000000000000000000000000000000000000000000000000000000000000000000000000000000000000000004000000000000000000000000000000000000008000000000000000000000000000000000000000000000000020000000000000004000800020000000000000000000010000000000000000000000000000000000000000000000000000000000000010000000000000000000000000000000000000000004000000000000000000000000000020000000002000000800000008000000000000000000000080000000000000020000000000000000000000000000000000000000000000000000000000000000000",
      "type": "0x2",
      "transactionHash": "0x4e4229f3a750c7d31b946c74defd4d5c38d648bbce82c1eac701838b80ade079",
      "transactionIndex": "0x6a",
      "blockHash": "0x00c718ff8a8a4d400cc93e066db29e283ff1001e37ea17a3794d544139500d29",
      "blockNumber": "0x724b2a",
      "gasUsed": "0xf82c",
      "effectiveGasPrice": "0x4f138b50c",
      "from": "0xc77f7fed3b5cc8249adc428c5f44c9063b9734b4",
      "to": "0x5eb9cc76c3506942c1c0ead70e877dd5e4f00cb0",
      "contractAddress": null
    }
  ],
  "libraries": [],
  "pending": [],
  "returns": {},
  "timestamp": 1736865697,
  "chain": 11155111,
  "commit": "51a374b"
}