{
  "transactions": [
    {
      "hash": "0x2953826f8b767b006300b5a244d8cdb80a8d7b4c1919c4ad2aa6fcc421f5cb4d",
      "transactionType": "CALL",
      "contractName": null,
      "contractAddress": "0x8aafd3ede9adb0ff97c7aebce82a919afb1c8764",
      "function": "sell(uint256)",
      "arguments": [
        "2888801799563"
      ],
      "transaction": {
        "from": "0xc77f7fed3b5cc8249adc428c5f44c9063b9734b4",
        "to": "0x8aafd3ede9adb0ff97c7aebce82a919afb1c8764",
        "gas": "0x15daa",
        "value": "0x0",
        "input": "0xe4849b32000000000000000000000000000000000000000000000000000002a09a014d8b",
        "nonce": "0x10bd",
        "chainId": "0xaa36a7"
      },
      "additionalContracts": [],
      "isFixedGasLimit": false
    }
  ],
  "receipts": [
    {
      "status": "0x1",
      "cumulativeGasUsed": "0xe61e9c",
      "logs": [
        {
          "address": "0x8aafd3ede9adb0ff97c7aebce82a919afb1c8764",
          "topics": [
            "0xddf252ad1be2c89b69c2b068fc378daa952ba7f163c4a11628f55a4df523b3ef",
            "0x000000000000000000000000c77f7fed3b5cc8249adc428c5f44c9063b9734b4",
            "0x0000000000000000000000000000000000000000000000000000000000000000"
          ],
          "data": "0x0000000000000000000000000000000000000000000000000000029b38845d4f",
          "blockHash": "0xa7e3262d692be6cafdbe62a30dda1fc5a96a73ad26b30190bc0eb1e4ae77eb65",
          "blockNumber": "0x731754",
          "transactionHash": "0x2953826f8b767b006300b5a244d8cdb80a8d7b4c1919c4ad2aa6fcc421f5cb4d",
          "transactionIndex": "0x97",
          "logIndex": "0xa8",
          "removed": false
        },
        {
          "address": "0x8aafd3ede9adb0ff97c7aebce82a919afb1c8764",
          "topics": [
            "0xddf252ad1be2c89b69c2b068fc378daa952ba7f163c4a11628f55a4df523b3ef",
            "0x000000000000000000000000c77f7fed3b5cc8249adc428c5f44c9063b9734b4",
            "0x000000000000000000000000c77f7fed3b5cc8249adc428c5f44c9063b9734b4"
          ],
          "data": "0x00000000000000000000000000000000000000000000000000000005617cf03c",
          "blockHash": "0xa7e3262d692be6cafdbe62a30dda1fc5a96a73ad26b30190bc0eb1e4ae77eb65",
          "blockNumber": "0x731754",
          "transactionHash": "0x2953826f8b767b006300b5a244d8cdb80a8d7b4c1919c4ad2aa6fcc421f5cb4d",
          "transactionIndex": "0x97",
          "logIndex": "0xa9",
          "removed": false
        },
        {
          "address": "0x8aafd3ede9adb0ff97c7aebce82a919afb1c8764",
          "topics": [
            "0x4afcb4a87cdbd9974efdb92ee48bc8d7cd0ae4bf217004db3d080cbaee652ca7"
          ],
          "data": "0x00000000000000000000000000000000000000000000000000000000679014b4000000000000000000000000000000000000000000000000000501fde3e687df00000000000000000000000000000000000000000000000000000000f2b51436",
          "blockHash": "0xa7e3262d692be6cafdbe62a30dda1fc5a96a73ad26b30190bc0eb1e4ae77eb65",
          "blockNumber": "0x731754",
          "transactionHash": "0x2953826f8b767b006300b5a244d8cdb80a8d7b4c1919c4ad2aa6fcc421f5cb4d",
          "transactionIndex": "0x97",
          "logIndex": "0xaa",
          "removed": false
        }
      ],
      "logsBloom": "0x00000000000000000000000000000000000000000600000000000000000000000000000000000000000000000000000000000000000000004000000000000000000000000000004000000008000000000000000000000000000000000000000000000000020000000000000000000800020000000000000000000010000000000000000000000000000000000000000000000000000000000000010000000000000000000000000000000000000000004000000000000000000000000000000000000002000000800000000000000000000000000000080000000000000020000000000000000000000000000000000000000000000000000000000000000000",
      "type": "0x2",
      "transactionHash": "0x2953826f8b767b006300b5a244d8cdb80a8d7b4c1919c4ad2aa6fcc421f5cb4d",
      "transactionIndex": "0x97",
      "blockHash": "0xa7e3262d692be6cafdbe62a30dda1fc5a96a73ad26b30190bc0eb1e4ae77eb65",
      "blockNumber": "0x731754",
      "gasUsed": "0xfd27",
      "effectiveGasPrice": "0x38d83fa0",
      "from": "0xc77f7fed3b5cc8249adc428c5f44c9063b9734b4",
      "to": "0x8aafd3ede9adb0ff97c7aebce82a919afb1c8764",
      "contractAddress": null
    }
  ],
  "libraries": [],
  "pending": [],
  "returns": {},
  "timestamp": 1737495733,
  "chain": 11155111,
  "commit": "1d2fb70"
}