{
  "transactions": [
    {
      "hash": "0x0ffc13ea5697a3a8633dd19827bfad359ebef253dced3d83a5d191dfcdfb75a8",
      "transactionType": "CALL",
      "contractName": null,
      "contractAddress": "0x270e88f8683660553e8ba4eb2ad7c91a1710d769",
      "function": "buy(address)",
      "arguments": [
        "0xC77f7fed3b5Cc8249aDc428c5F44C9063B9734b4"
      ],
      "transaction": {
        "from": "0xc77f7fed3b5cc8249adc428c5f44c9063b9734b4",
        "to": "0x270e88f8683660553e8ba4eb2ad7c91a1710d769",
        "gas": "0x1b30c",
        "value": "0xde0b6b3a7640000",
        "input": "0xf088d547000000000000000000000000c77f7fed3b5cc8249adc428c5f44c9063b9734b4",
        "nonce": "0x867",
        "chainId": "0xaa36a7"
      },
      "additionalContracts": [],
      "isFixedGasLimit": false
    }
  ],
  "receipts": [
    {
      "status": "0x1",
      "cumulativeGasUsed": "0x150276d",
      "logs": [
        {
          "address": "0x270e88f8683660553e8ba4eb2ad7c91a1710d769",
          "topics": [
            "0xddf252ad1be2c89b69c2b068fc378daa952ba7f163c4a11628f55a4df523b3ef",
            "0x0000000000000000000000000000000000000000000000000000000000000000",
            "0x000000000000000000000000c77f7fed3b5cc8249adc428c5f44c9063b9734b4"
          ],
          "data": "0x00000000000000000000000000000000000000000000002699c62288d3f6528e",
          "blockHash": "0xeda35535a2f49ce626c74d4072b9830a525c5d4a84d48eb33b8ac2f763eebfb1",
          "blockNumber": "0x7255be",
          "transactionHash": "0x0ffc13ea5697a3a8633dd19827bfad359ebef253dced3d83a5d191dfcdfb75a8",
          "transactionIndex": "0x53",
          "logIndex": "0xac",
          "removed": false
        },
        {
          "address": "0x270e88f8683660553e8ba4eb2ad7c91a1710d769",
          "topics": [
            "0xddf252ad1be2c89b69c2b068fc378daa952ba7f163c4a11628f55a4df523b3ef",
            "0x0000000000000000000000000000000000000000000000000000000000000000",
            "0x000000000000000000000000c77f7fed3b5cc8249adc428c5f44c9063b9734b4"
          ],
          "data": "0x0000000000000000000000000000000000000000000000001df988d83aba4ad0",
          "blockHash": "0xeda35535a2f49ce626c74d4072b9830a525c5d4a84d48eb33b8ac2f763eebfb1",
          "blockNumber": "0x7255be",
          "transactionHash": "0x0ffc13ea5697a3a8633dd19827bfad359ebef253dced3d83a5d191dfcdfb75a8",
          "transactionIndex": "0x53",
          "logIndex": "0xad",
          "removed": false
        },
        {
          "address": "0x270e88f8683660553e8ba4eb2ad7c91a1710d769",
          "topics": [
            "0x4afcb4a87cdbd9974efdb92ee48bc8d7cd0ae4bf217004db3d080cbaee652ca7"
          ],
          "data": "0x000000000000000000000000000000000000000000000000000000006786f6f00000000000000000000000000000000000000000000000000004f09c3856d81a0000000000000000000000000000000000000000000000000de0b6b3a7640000",
          "blockHash": "0xeda35535a2f49ce626c74d4072b9830a525c5d4a84d48eb33b8ac2f763eebfb1",
          "blockNumber": "0x7255be",
          "transactionHash": "0x0ffc13ea5697a3a8633dd19827bfad359ebef253dced3d83a5d191dfcdfb75a8",
          "transactionIndex": "0x53",
          "logIndex": "0xae",
          "removed": false
        }
      ],
      "logsBloom": "0x00000000000000000000000000000000000000000000000000000000000000000000000000000000000000000000000020000000000000004000000000000000000000000000000000000008000000000000000000000000000000000000000000000000020000000000000000000800020000000000000000000010000000000000000000010000000000000000000000000000000000000000010000000000000000000000000000000000000000004000000000000000000000000000000000000002000000800000000000000000000000000000080000008000000020000000000000000000000000000000000000000000000000000000000000000000",
      "type": "0x2",
      "transactionHash": "0x0ffc13ea5697a3a8633dd19827bfad359ebef253dced3d83a5d191dfcdfb75a8",
      "transactionIndex": "0x53",
      "blockHash": "0xeda35535a2f49ce626c74d4072b9830a525c5d4a84d48eb33b8ac2f763eebfb1",
      "blockNumber": "0x7255be",
      "gasUsed": "0x13af8",
      "effectiveGasPrice": "0x98cf437f",
      "from": "0xc77f7fed3b5cc8249adc428c5f44c9063b9734b4",
      "to": "0x270e88f8683660553e8ba4eb2ad7c91a1710d769",
      "contractAddress": null
    }
  ],
  "libraries": [],
  "pending": [],
  "returns": {},
  "timestamp": 1736898290,
  "chain": 11155111,
  "commit": "51a374b"
}