{
  "transactions": [
    {
      "hash": "0xbc738e4152383cb363b98fd851f4f99df4cfe20256edb1f7dfee192e0648b032",
      "transactionType": "CALL",
      "contractName": null,
      "contractAddress": "0x8aafd3ede9adb0ff97c7aebce82a919afb1c8764",
      "function": "sell(uint256)",
      "arguments": [
        "745449891844546057899"
      ],
      "transaction": {
        "from": "0xc77f7fed3b5cc8249adc428c5f44c9063b9734b4",
        "to": "0x8aafd3ede9adb0ff97c7aebce82a919afb1c8764",
        "gas": "0x17270",
        "value": "0x0",
        "input": "0xe4849b3200000000000000000000000000000000000000000000002869320711df8756ab",
        "nonce": "0xf0a",
        "chainId": "0xaa36a7"
      },
      "additionalContracts": [],
      "isFixedGasLimit": false
    }
  ],
  "receipts": [
    {
      "status": "0x1",
      "cumulativeGasUsed": "0x1ad6440",
      "logs": [
        {
          "address": "0x8aafd3ede9adb0ff97c7aebce82a919afb1c8764",
          "topics": [
            "0xddf252ad1be2c89b69c2b068fc378daa952ba7f163c4a11628f55a4df523b3ef",
            "0x000000000000000000000000c77f7fed3b5cc8249adc428c5f44c9063b9734b4",
            "0x0000000000000000000000000000000000000000000000000000000000000000"
          ],
          "data": "0x000000000000000000000000000000000000000000000028166f1140d58c665c",
          "blockHash": "0xb74f860464c814e256864d650e1ac619bb1145a80eac9ad1d454f641c46c260f",
          "blockNumber": "0x731483",
          "transactionHash": "0xbc738e4152383cb363b98fd851f4f99df4cfe20256edb1f7dfee192e0648b032",
          "transactionIndex": "0xad",
          "logIndex": "0x17b",
          "removed": false
        },
        {
          "address": "0x8aafd3ede9adb0ff97c7aebce82a919afb1c8764",
          "topics": [
            "0xddf252ad1be2c89b69c2b068fc378daa952ba7f163c4a11628f55a4df523b3ef",
            "0x000000000000000000000000c77f7fed3b5cc8249adc428c5f44c9063b9734b4",
            "0x000000000000000000000000c77f7fed3b5cc8249adc428c5f44c9063b9734b4"
          ],
          "data": "0x00000000000000000000000000000000000000000000000052c2f5d109faf04f",
          "blockHash": "0xb74f860464c814e256864d650e1ac619bb1145a80eac9ad1d454f641c46c260f",
          "blockNumber": "0x731483",
          "transactionHash": "0xbc738e4152383cb363b98fd851f4f99df4cfe20256edb1f7dfee192e0648b032",
          "transactionIndex": "0xad",
          "logIndex": "0x17c",
          "removed": false
        },
        {
          "address": "0x8aafd3ede9adb0ff97c7aebce82a919afb1c8764",
          "topics": [
            "0x4afcb4a87cdbd9974efdb92ee48bc8d7cd0ae4bf217004db3d080cbaee652ca7"
          ],
          "data": "0x00000000000000000000000000000000000000000000000000000000678ff2d00000000000000000000000000000000000000000000000000004bbf024bd1ec70000000000000000000000000000000000000000000000000dc8345c6c41172e",
          "blockHash": "0xb74f860464c814e256864d650e1ac619bb1145a80eac9ad1d454f641c46c260f",
          "blockNumber": "0x731483",
          "transactionHash": "0xbc738e4152383cb363b98fd851f4f99df4cfe20256edb1f7dfee192e0648b032",
          "transactionIndex": "0xad",
          "logIndex": "0x17d",
          "removed": false
        }
      ],
      "logsBloom": "0x00000000000000000000000000000000000000000600000000000000000000000000000000000000000000000000000000000000000000004000000000000000000000000000004000000008000000000000000000000000000000000000000000000000020000000000000000000800020000000000000000000010000000000000000000000000000000000000000000000000000000000000010000000000000000000000000000000000000000004000000000000000000000000000000000000002000000800000000000000000000000000000080000000000000020000000000000000000000000000000000000000000000000000000000000000000",
      "type": "0x2",
      "transactionHash": "0xbc738e4152383cb363b98fd851f4f99df4cfe20256edb1f7dfee192e0648b032",
      "transactionIndex": "0xad",
      "blockHash": "0xb74f860464c814e256864d650e1ac619bb1145a80eac9ad1d454f641c46c260f",
      "blockNumber": "0x731483",
      "gasUsed": "0xfd4b",
      "effectiveGasPrice": "0x81558529",
      "from": "0xc77f7fed3b5cc8249adc428c5f44c9063b9734b4",
      "to": "0x8aafd3ede9adb0ff97c7aebce82a919afb1c8764",
      "contractAddress": null
    }
  ],
  "libraries": [],
  "pending": [],
  "returns": {},
  "timestamp": 1737487058,
  "chain": 11155111,
  "commit": "51a374b"
}