{
  "transactions": [
    {
      "hash": "0x5707a0706563c188c84cd3f23cd1a2f716e80c98b45dd121e3bb4dbc55641f93",
      "transactionType": "CALL",
      "contractName": null,
      "contractAddress": "0x8aafd3ede9adb0ff97c7aebce82a919afb1c8764",
      "function": "sell(uint256)",
      "arguments": [
        "1148963623735"
      ],
      "transaction": {
        "from": "0xc77f7fed3b5cc8249adc428c5f44c9063b9734b4",
        "to": "0x8aafd3ede9adb0ff97c7aebce82a919afb1c8764",
        "gas": "0x15daa",
        "value": "0x0",
        "input": "0xe4849b320000000000000000000000000000000000000000000000000000010b83919337",
        "nonce": "0x1380",
        "chainId": "0xaa36a7"
      },
      "additionalContracts": [],
      "isFixedGasLimit": false
    }
  ],
  "receipts": [
    {
      "status": "0x1",
      "cumulativeGasUsed": "0xefc6b9",
      "logs": [
        {
          "address": "0x8aafd3ede9adb0ff97c7aebce82a919afb1c8764",
          "topics": [
            "0xddf252ad1be2c89b69c2b068fc378daa952ba7f163c4a11628f55a4df523b3ef",
            "0x000000000000000000000000c77f7fed3b5cc8249adc428c5f44c9063b9734b4",
            "0x0000000000000000000000000000000000000000000000000000000000000000"
          ],
          "data": "0x000000000000000000000000000000000000000000000000000001095fb339fa",
          "blockHash": "0xc8d96e5a48822db624d304ae122bb7337265684593a9829791f1d697265c7123",
          "blockNumber": "0x731aa4",
          "transactionHash": "0x5707a0706563c188c84cd3f23cd1a2f716e80c98b45dd121e3bb4dbc55641f93",
          "transactionIndex": "0xa3",
          "logIndex": "0x98",
          "removed": false
        },
        {
          "address": "0x8aafd3ede9adb0ff97c7aebce82a919afb1c8764",
          "topics": [
            "0xddf252ad1be2c89b69c2b068fc378daa952ba7f163c4a11628f55a4df523b3ef",
            "0x000000000000000000000000c77f7fed3b5cc8249adc428c5f44c9063b9734b4",
            "0x000000000000000000000000c77f7fed3b5cc8249adc428c5f44c9063b9734b4"
          ],
          "data": "0x0000000000000000000000000000000000000000000000000000000223de593d",
          "blockHash": "0xc8d96e5a48822db624d304ae122bb7337265684593a9829791f1d697265c7123",
          "blockNumber": "0x731aa4",
          "transactionHash": "0x5707a0706563c188c84cd3f23cd1a2f716e80c98b45dd121e3bb4dbc55641f93",
          "transactionIndex": "0xa3",
          "logIndex": "0x99",
          "removed": false
        },
        {
          "address": "0x8aafd3ede9adb0ff97c7aebce82a919afb1c8764",
          "topics": [
            "0x4afcb4a87cdbd9974efdb92ee48bc8d7cd0ae4bf217004db3d080cbaee652ca7"
          ],
          "data": "0x0000000000000000000000000000000000000000000000000000000067903c80000000000000000000000000000000000000000000000000000cadb4f60e407d00000000000000000000000000000000000000000000000000000000f4659456",
          "blockHash": "0xc8d96e5a48822db624d304ae122bb7337265684593a9829791f1d697265c7123",
          "blockNumber": "0x731aa4",
          "transactionHash": "0x5707a0706563c188c84cd3f23cd1a2f716e80c98b45dd121e3bb4dbc55641f93",
          "transactionIndex": "0xa3",
          "logIndex": "0x9a",
          "removed": false
        }
      ],
      "logsBloom": "0x00000000000000000000000000000000000000000600000000000000000000000000000000000000000000000000000000000000000000004000000000000000000000000000004000000008000000000000000000000000000000000000000000000000020000000000000000000800020000000000000000000010000000000000000000000000000000000000000000000000000000000000010000000000000000000000000000000000000000004000000000000000000000000000000000000002000000800000000000000000000000000000080000000000000020000000000000000000000000000000000000000000000000000000000000000000",
      "type": "0x2",
      "transactionHash": "0x5707a0706563c188c84cd3f23cd1a2f716e80c98b45dd121e3bb4dbc55641f93",
      "transactionIndex": "0xa3",
      "blockHash": "0xc8d96e5a48822db624d304ae122bb7337265684593a9829791f1d697265c7123",
      "blockNumber": "0x731aa4",
      "gasUsed": "0xfd27",
      "effectiveGasPrice": "0x78e1d246",
      "from": "0xc77f7fed3b5cc8249adc428c5f44c9063b9734b4",
      "to": "0x8aafd3ede9adb0ff97c7aebce82a919afb1c8764",
      "contractAddress": null
    }
  ],
  "libraries": [],
  "pending": [],
  "returns": {},
  "timestamp": 1737505922,
  "chain": 11155111,
  "commit": "1d2fb70"
}