{
  "transactions": [
    {
      "hash": "0xd4f50a25afb94a9eb1b90966cbc4c66e8f2e8c76f8469d635f14e8d7e73e0427",
      "transactionType": "CALL",
      "contractName": null,
      "contractAddress": "0x8aafd3ede9adb0ff97c7aebce82a919afb1c8764",
      "function": "sell(uint256)",
      "arguments": [
        "5553992312756450093"
      ],
      "transaction": {
        "from": "0xc77f7fed3b5cc8249adc428c5f44c9063b9734b4",
        "to": "0x8aafd3ede9adb0ff97c7aebce82a919afb1c8764",
        "gas": "0x15dca",
        "value": "0x0",
        "input": "0xe4849b320000000000000000000000000000000000000000000000004d13be950719332d",
        "nonce": "0x1146",
        "chainId": "0xaa36a7"
      },
      "additionalContracts": [],
      "isFixedGasLimit": false
    }
  ],
  "receipts": [
    {
      "status": "0x1",
      "cumulativeGasUsed": "0x9cf434",
      "logs": [
        {
          "address": "0x8aafd3ede9adb0ff97c7aebce82a919afb1c8764",
          "topics": [
            "0xddf252ad1be2c89b69c2b068fc378daa952ba7f163c4a11628f55a4df523b3ef",
            "0x000000000000000000000000c77f7fed3b5cc8249adc428c5f44c9063b9734b4",
            "0x0000000000000000000000000000000000000000000000000000000000000000"
          ],
          "data": "0x0000000000000000000000000000000000000000000000004c75e3f830006c1d",
          "blockHash": "0x4ae1b946af4afd495742934583371594d7bd9f383038e5ac6b7f7b01b9eaa4c0",
          "blockNumber": "0x7317ff",
          "transactionHash": "0xd4f50a25afb94a9eb1b90966cbc4c66e8f2e8c76f8469d635f14e8d7e73e0427",
          "transactionIndex": "0x79",
          "logIndex": "0x93",
          "removed": false
        },
        {
          "address": "0x8aafd3ede9adb0ff97c7aebce82a919afb1c8764",
          "topics": [
            "0xddf252ad1be2c89b69c2b068fc378daa952ba7f163c4a11628f55a4df523b3ef",
            "0x000000000000000000000000c77f7fed3b5cc8249adc428c5f44c9063b9734b4",
            "0x000000000000000000000000c77f7fed3b5cc8249adc428c5f44c9063b9734b4"
          ],
          "data": "0x000000000000000000000000000000000000000000000000009dda9cd718c710",
          "blockHash": "0x4ae1b946af4afd495742934583371594d7bd9f383038e5ac6b7f7b01b9eaa4c0",
          "blockNumber": "0x7317ff",
          "transactionHash": "0xd4f50a25afb94a9eb1b90966cbc4c66e8f2e8c76f8469d635f14e8d7e73e0427",
          "transactionIndex": "0x79",
          "logIndex": "0x94",
          "removed": false
        },
        {
          "address": "0x8aafd3ede9adb0ff97c7aebce82a919afb1c8764",
          "topics": [
            "0x4afcb4a87cdbd9974efdb92ee48bc8d7cd0ae4bf217004db3d080cbaee652ca7"
          ],
          "data": "0x0000000000000000000000000000000000000000000000000000000067901cb800000000000000000000000000000000000000000000000000051653c69fe92b000000000000000000000000000000000000000000000000001c4111cb4fbd37",
          "blockHash": "0x4ae1b946af4afd495742934583371594d7bd9f383038e5ac6b7f7b01b9eaa4c0",
          "blockNumber": "0x7317ff",
          "transactionHash": "0xd4f50a25afb94a9eb1b90966cbc4c66e8f2e8c76f8469d635f14e8d7e73e0427",
          "transactionIndex": "0x79",
          "logIndex": "0x95",
          "removed": false
        }
      ],
      "logsBloom": "0x00000000000000000000000000000000000000000600000000000000000000000000000000000000000000000000000000000000000000004000000000000000000000000000004000000008000000000000000000000000000000000000000000000000020000000000000000000800020000000000000000000010000000000000000000000000000000000000000000000000000000000000010000000000000000000000000000000000000000004000000000000000000000000000000000000002000000800000000000000000000000000000080000000000000020000000000000000000000000000000000000000000000000000000000000000000",
      "type": "0x2",
      "transactionHash": "0xd4f50a25afb94a9eb1b90966cbc4c66e8f2e8c76f8469d635f14e8d7e73e0427",
      "transactionIndex": "0x79",
      "blockHash": "0x4ae1b946af4afd495742934583371594d7bd9f383038e5ac6b7f7b01b9eaa4c0",
      "blockNumber": "0x7317ff",
      "gasUsed": "0xfd3f",
      "effectiveGasPrice": "0x371a69be",
      "from": "0xc77f7fed3b5cc8249adc428c5f44c9063b9734b4",
      "to": "0x8aafd3ede9adb0ff97c7aebce82a919afb1c8764",
      "contractAddress": null
    }
  ],
  "libraries": [],
  "pending": [],
  "returns": {},
  "timestamp": 1737497785,
  "chain": 11155111,
  "commit": "1d2fb70"
}