{
  "transactions": [
    {
      "hash": "0x78690868012f9051f3365c6a16b5817740de6671ad89624279cff4e2ec19288c",
      "transactionType": "CALL",
      "contractName": null,
      "contractAddress": "0x8aafd3ede9adb0ff97c7aebce82a919afb1c8764",
      "function": "buy(address)",
      "arguments": [
        "0xC77f7fed3b5Cc8249aDc428c5F44C9063B9734b4"
      ],
      "transaction": {
        "from": "0xc77f7fed3b5cc8249adc428c5f44c9063b9734b4",
        "to": "0x8aafd3ede9adb0ff97c7aebce82a919afb1c8764",
        "gas": "0x156ea",
        "value": "0xde0b6b3a7640000",
        "input": "0xf088d547000000000000000000000000c77f7fed3b5cc8249adc428c5f44c9063b9734b4",
        "nonce": "0x1615",
        "chainId": "0xaa36a7"
      },
      "additionalContracts": [],
      "isFixedGasLimit": false
    }
  ],
  "receipts": [
    {
      "status": "0x1",
      "cumulativeGasUsed": "0xdd9ed7",
      "logs": [
        {
          "address": "0x8aafd3ede9adb0ff97c7aebce82a919afb1c8764",
          "topics": [
            "0xddf252ad1be2c89b69c2b068fc378daa952ba7f163c4a11628f55a4df523b3ef",
            "0x0000000000000000000000000000000000000000000000000000000000000000",
            "0x000000000000000000000000c77f7fed3b5cc8249adc428c5f44c9063b9734b4"
          ],
          "data": "0x0000000000000000000000000000000000000000000000096d0d37a3e02bbaf9",
          "blockHash": "0x62cadab03746d5d4d5c4582432c76a970042deb8bb0aeba5654ad28121e402d2",
          "blockNumber": "0x731daa",
          "transactionHash": "0x78690868012f9051f3365c6a16b5817740de6671ad89624279cff4e2ec19288c",
          "transactionIndex": "0x89",
          "logIndex": "0xd7",
          "removed": false
        },
        {
          "address": "0x8aafd3ede9adb0ff97c7aebce82a919afb1c8764",
          "topics": [
            "0xddf252ad1be2c89b69c2b068fc378daa952ba7f163c4a11628f55a4df523b3ef",
            "0x0000000000000000000000000000000000000000000000000000000000000000",
            "0x000000000000000000000000c77f7fed3b5cc8249adc428c5f44c9063b9734b4"
          ],
          "data": "0x0000000000000000000000000000000000000000000000000751d12057beb7a8",
          "blockHash": "0x62cadab03746d5d4d5c4582432c76a970042deb8bb0aeba5654ad28121e402d2",
          "blockNumber": "0x731daa",
          "transactionHash": "0x78690868012f9051f3365c6a16b5817740de6671ad89624279cff4e2ec19288c",
          "transactionIndex": "0x89",
          "logIndex": "0xd8",
          "removed": false
        },
        {
          "address": "0x8aafd3ede9adb0ff97c7aebce82a919afb1c8764",
          "topics": [
            "0x4afcb4a87cdbd9974efdb92ee48bc8d7cd0ae4bf217004db3d080cbaee652ca7"
          ],
          "data": "0x00000000000000000000000000000000000000000000000000000000679060e00000000000000000000000000000000000000000000000000014410c65eeb5830000000000000000000000000000000000000000000000000de0b6b3a7640000",
          "blockHash": "0x62cadab03746d5d4d5c4582432c76a970042deb8bb0aeba5654ad28121e402d2",
          "blockNumber": "0x731daa",
          "transactionHash": "0x78690868012f9051f3365c6a16b5817740de6671ad89624279cff4e2ec19288c",
          "transactionIndex": "0x89",
          "logIndex": "0xd9",
          "removed": false
        }
      ],
      "logsBloom": "0x00000000000000000000000000000000000000000600000000000000000000000000000000000000000000000000000000000000000000004000000000000000000000000000004000000008000000000000000000000000000000000000000000000000020000000000000000000800020000000000000000000010000000000000000000000000000000000000000000000000000000000000010000000000000000000000000000000000000000004000000000000000000000000000000000000002000000800000000000000000000000000000080000000000000020000000000000000000000000000000000000000000000000000000000000000000",
      "type": "0x2",
      "transactionHash": "0x78690868012f9051f3365c6a16b5817740de6671ad89624279cff4e2ec19288c",
      "transactionIndex": "0x89",
      "blockHash": "0x62cadab03746d5d4d5c4582432c76a970042deb8bb0aeba5654ad28121e402d2",
      "blockNumber": "0x731daa",
      "gasUsed": "0xf844",
      "effectiveGasPrice": "0x714f887e",
      "from": "0xc77f7fed3b5cc8249adc428c5f44c9063b9734b4",
      "to": "0x8aafd3ede9adb0ff97c7aebce82a919afb1c8764",
      "contractAddress": null
    }
  ],
  "libraries": [],
  "pending": [],
  "returns": {},
  "timestamp": 1737515235,
  "chain": 11155111,
  "commit": "1d2fb70"
}