{
  "transactions": [
    {
      "hash": "0xe68341b168c0229381089dfbae8bc70b88bfb2f9aed146f48ab4ea066bbd55bf",
      "transactionType": "CALL",
      "contractName": null,
      "contractAddress": "0x8aafd3ede9adb0ff97c7aebce82a919afb1c8764",
      "function": "buy(address)",
      "arguments": [
        "0xC77f7fed3b5Cc8249aDc428c5F44C9063B9734b4"
      ],
      "transaction": {
        "from": "0xc77f7fed3b5cc8249adc428c5f44c9063b9734b4",
        "to": "0x8aafd3ede9adb0ff97c7aebce82a919afb1c8764",
        "gas": "0x156ea",
        "value": "0xde0b6b3a7640000",
        "input": "0xf088d547000000000000000000000000c77f7fed3b5cc8249adc428c5f44c9063b9734b4",
        "nonce": "0x1162",
        "chainId": "0xaa36a7"
      },
      "additionalContracts": [],
      "isFixedGasLimit": false
    }
  ],
  "receipts": [
    {
      "status": "0x1",
      "cumulativeGasUsed": "0xd5293a",
      "logs": [
        {
          "address": "0x8aafd3ede9adb0ff97c7aebce82a919afb1c8764",
          "topics": [
            "0xddf252ad1be2c89b69c2b068fc378daa952ba7f163c4a11628f55a4df523b3ef",
            "0x0000000000000000000000000000000000000000000000000000000000000000",
            "0x000000000000000000000000c77f7fed3b5cc8249adc428c5f44c9063b9734b4"
          ],
          "data": "0x000000000000000000000000000000000000000000000025656e96c0f6c5d557",
          "blockHash": "0xe754110f1fe4311c65427e9ac12b28e2e85c5ca64d1c00f9536076b96c939f1d",
          "blockNumber": "0x731820",
          "transactionHash": "0xe68341b168c0229381089dfbae8bc70b88bfb2f9aed146f48ab4ea066bbd55bf",
          "transactionIndex": "0x63",
          "logIndex": "0x86",
          "removed": false
        },
        {
          "address": "0x8aafd3ede9adb0ff97c7aebce82a919afb1c8764",
          "topics": [
            "0xddf252ad1be2c89b69c2b068fc378daa952ba7f163c4a11628f55a4df523b3ef",
            "0x0000000000000000000000000000000000000000000000000000000000000000",
            "0x000000000000000000000000c77f7fed3b5cc8249adc428c5f44c9063b9734b4"
          ],
          "data": "0x0000000000000000000000000000000000000000000000001d0a18b35fe1b9a0",
          "blockHash": "0xe754110f1fe4311c65427e9ac12b28e2e85c5ca64d1c00f9536076b96c939f1d",
          "blockNumber": "0x731820",
          "transactionHash": "0xe68341b168c0229381089dfbae8bc70b88bfb2f9aed146f48ab4ea066bbd55bf",
          "transactionIndex": "0x63",
          "logIndex": "0x87",
          "removed": false
        },
        {
          "address": "0x8aafd3ede9adb0ff97c7aebce82a919afb1c8764",
          "topics": [
            "0x4afcb4a87cdbd9974efdb92ee48bc8d7cd0ae4bf217004db3d080cbaee652ca7"
          ],
          "data": "0x0000000000000000000000000000000000000000000000000000000067901e44000000000000000000000000000000000000000000000000000519a479df9e260000000000000000000000000000000000000000000000000de0b6b3a7640000",
          "blockHash": "0xe754110f1fe4311c65427e9ac12b28e2e85c5ca64d1c00f9536076b96c939f1d",
          "blockNumber": "0x731820",
          "transactionHash": "0xe68341b168c0229381089dfbae8bc70b88bfb2f9aed146f48ab4ea066bbd55bf",
          "transactionIndex": "0x63",
          "logIndex": "0x88",
          "removed": false
        }
      ],
      "logsBloom": "0x00000000000000000000000000000000000000000600000000000000000000000000000000000000000000000000000000000000000000004000000000000000000000000000004000000008000000000000000000000000000000000000000000000000020000000000000000000800020000000000000000000010000000000000000000000000000000000000000000000000000000000000010000000000000000000000000000000000000000004000000000000000000000000000000000000002000000800000000000000000000000000000080000000000000020000000000000000000000000000000000000000000000000000000000000000000",
      "type": "0x2",
      "transactionHash": "0xe68341b168c0229381089dfbae8bc70b88bfb2f9aed146f48ab4ea066bbd55bf",
      "transactionIndex": "0x63",
      "blockHash": "0xe754110f1fe4311c65427e9ac12b28e2e85c5ca64d1c00f9536076b96c939f1d",
      "blockNumber": "0x731820",
      "gasUsed": "0xf844",
      "effectiveGasPrice": "0x4891a725",
      "from": "0xc77f7fed3b5cc8249adc428c5f44c9063b9734b4",
      "to": "0x8aafd3ede9adb0ff97c7aebce82a919afb1c8764",
      "contractAddress": null
    }
  ],
  "libraries": [],
  "pending": [],
  "returns": {},
  "timestamp": 1737498181,
  "chain": 11155111,
  "commit": "1d2fb70"
}