{
  "transactions": [
    {
      "hash": "0xee11b610eb25e675cb201d778504742e1e9dbc9e8baf4e9d2bbff72e89060e88",
      "transactionType": "CALL",
      "contractName": null,
      "contractAddress": "0x270e88f8683660553e8ba4eb2ad7c91a1710d769",
      "function": "sell(uint256)",
      "arguments": [
        "824761411368854471776"
      ],
      "transaction": {
        "from": "0xc77f7fed3b5cc8249adc428c5f44c9063b9734b4",
        "to": "0x270e88f8683660553e8ba4eb2ad7c91a1710d769",
        "gas": "0x16fec",
        "value": "0x0",
        "input": "0xe4849b3200000000000000000000000000000000000000000000002cb5dd25dde263c460",
        "nonce": "0x64b",
        "chainId": "0xaa36a7"
      },
      "additionalContracts": [],
      "isFixedGasLimit": false
    }
  ],
  "receipts": [
    {
      "status": "0x1",
      "cumulativeGasUsed": "0x958271",
      "logs": [
        {
          "address": "0x270e88f8683660553e8ba4eb2ad7c91a1710d769",
          "topics": [
            "0xddf252ad1be2c89b69c2b068fc378daa952ba7f163c4a11628f55a4df523b3ef",
            "0x000000000000000000000000c77f7fed3b5cc8249adc428c5f44c9063b9734b4",
            "0x0000000000000000000000000000000000000000000000000000000000000000"
          ],
          "data": "0x00000000000000000000000000000000000000000000002cb5dd25dde263c460",
          "blockHash": "0x2dd7ffa4d93796f642cece657331ccabc25189de1937f9a0883042b53806c320",
          "blockNumber": "0x725335",
          "transactionHash": "0xee11b610eb25e675cb201d778504742e1e9dbc9e8baf4e9d2bbff72e89060e88",
          "transactionIndex": "0x59",
          "logIndex": "0xb3",
          "removed": false
        },
        {
          "address": "0x270e88f8683660553e8ba4eb2ad7c91a1710d769",
          "topics": [
            "0x4afcb4a87cdbd9974efdb92ee48bc8d7cd0ae4bf217004db3d080cbaee652ca7"
          ],
          "data": "0x000000000000000000000000000000000000000000000000000000006786d8840000000000000000000000000000000000000000000000000004470a850150e90000000000000000000000000000000000000000000000000dc7e0f97d111ab0",
          "blockHash": "0x2dd7ffa4d93796f642cece657331ccabc25189de1937f9a0883042b53806c320",
          "blockNumber": "0x725335",
          "transactionHash": "0xee11b610eb25e675cb201d778504742e1e9dbc9e8baf4e9d2bbff72e89060e88",
          "transactionIndex": "0x59",
          "logIndex": "0xb4",
          "removed": false
        }
      ],
      "logsBloom": "0x00000000000000000000000000000000000000000000000000000000000000000000000000000000000000000000000020000000000000004000000000000000000000000000000000000008000000000000000000000000000000000000000000000000020000000000000000000800020000000000000000000010000000000000000000010000000000000000000000000000000000000000010000000000000000000000000000000000000000004000000000000000000000000000000000000002000000800000000000000000000000000000080000008000000020000000000000000000000000000000000000000000000000000000000000000000",
      "type": "0x2",
      "transactionHash": "0xee11b610eb25e675cb201d778504742e1e9dbc9e8baf4e9d2bbff72e89060e88",
      "transactionIndex": "0x59",
      "blockHash": "0x2dd7ffa4d93796f642cece657331ccabc25189de1937f9a0883042b53806c320",
      "blockNumber": "0x725335",
      "gasUsed": "0xfb93",
      "effectiveGasPrice": "0x1b704daee",
      "from": "0xc77f7fed3b5cc8249adc428c5f44c9063b9734b4",
      "to": "0x270e88f8683660553e8ba4eb2ad7c91a1710d769",
      "contractAddress": null
    }
  ],
  "libraries": [],
  "pending": [],
  "returns": {},
  "timestamp": 1736890501,
  "chain": 11155111,
  "commit": "51a374b"
}