{
  "transactions": [
    {
      "hash": "0x82085d11a8aaed0d13d30380193dcf4e0c127b73a473fe77abbf8dc684d42f39",
      "transactionType": "CALL",
      "contractName": null,
      "contractAddress": "0x270e88f8683660553e8ba4eb2ad7c91a1710d769",
      "function": "buy(address)",
      "arguments": [
        "0xC77f7fed3b5Cc8249aDc428c5F44C9063B9734b4"
      ],
      "transaction": {
        "from": "0xc77f7fed3b5cc8249adc428c5f44c9063b9734b4",
        "to": "0x270e88f8683660553e8ba4eb2ad7c91a1710d769",
        "gas": "0x1b30c",
        "value": "0xde0b6b3a7640000",
        "input": "0xf088d547000000000000000000000000c77f7fed3b5cc8249adc428c5f44c9063b9734b4",
        "nonce": "0x6d3",
        "chainId": "0xaa36a7"
      },
      "additionalContracts": [],
      "isFixedGasLimit": false
    }
  ],
  "receipts": [
    {
      "status": "0x1",
      "cumulativeGasUsed": "0xa1ee3e",
      "logs": [
        {
          "address": "0x270e88f8683660553e8ba4eb2ad7c91a1710d769",
          "topics": [
            "0xddf252ad1be2c89b69c2b068fc378daa952ba7f163c4a11628f55a4df523b3ef",
            "0x0000000000000000000000000000000000000000000000000000000000000000",
            "0x000000000000000000000000c77f7fed3b5cc8249adc428c5f44c9063b9734b4"
          ],
          "data": "0x0000000000000000000000000000000000000000000000287eed389dc2b77bd6",
          "blockHash": "0x8e01c4887227d2830d7b83b08c4a8ade5054fcc521a48e9143e6f99da51b2375",
          "blockNumber": "0x7253e4",
          "transactionHash": "0x82085d11a8aaed0d13d30380193dcf4e0c127b73a473fe77abbf8dc684d42f39",
          "transactionIndex": "0x12",
          "logIndex": "0x1a",
          "removed": false
        },
        {
          "address": "0x270e88f8683660553e8ba4eb2ad7c91a1710d769",
          "topics": [
            "0xddf252ad1be2c89b69c2b068fc378daa952ba7f163c4a11628f55a4df523b3ef",
            "0x0000000000000000000000000000000000000000000000000000000000000000",
            "0x000000000000000000000000c77f7fed3b5cc8249adc428c5f44c9063b9734b4"
          ],
          "data": "0x0000000000000000000000000000000000000000000000001f7245abe9fa5c1d",
          "blockHash": "0x8e01c4887227d2830d7b83b08c4a8ade5054fcc521a48e9143e6f99da51b2375",
          "blockNumber": "0x7253e4",
          "transactionHash": "0x82085d11a8aaed0d13d30380193dcf4e0c127b73a473fe77abbf8dc684d42f39",
          "transactionIndex": "0x12",
          "logIndex": "0x1b",
          "removed": false
        },
        {
          "address": "0x270e88f8683660553e8ba4eb2ad7c91a1710d769",
          "topics": [
            "0x4afcb4a87cdbd9974efdb92ee48bc8d7cd0ae4bf217004db3d080cbaee652ca7"
          ],
          "data": "0x000000000000000000000000000000000000000000000000000000006786e0b80000000000000000000000000000000000000000000000000004b56f06ca10870000000000000000000000000000000000000000000000000de0b6b3a7640000",
          "blockHash": "0x8e01c4887227d2830d7b83b08c4a8ade5054fcc521a48e9143e6f99da51b2375",
          "blockNumber": "0x7253e4",
          "transactionHash": "0x82085d11a8aaed0d13d30380193dcf4e0c127b73a473fe77abbf8dc684d42f39",
          "transactionIndex": "0x12",
          "logIndex": "0x1c",
          "removed": false
        }
      ],
      "logsBloom": "0x00000000000000000000000000000000000000000000000000000000000000000000000000000000000000000000000020000000000000004000000000000000000000000000000000000008000000000000000000000000000000000000000000000000020000000000000000000800020000000000000000000010000000000000000000010000000000000000000000000000000000000000010000000000000000000000000000000000000000004000000000000000000000000000000000000002000000800000000000000000000000000000080000008000000020000000000000000000000000000000000000000000000000000000000000000000",
      "type": "0x2",
      "transactionHash": "0x82085d11a8aaed0d13d30380193dcf4e0c127b73a473fe77abbf8dc684d42f39",
      "transactionIndex": "0x12",
      "blockHash": "0x8e01c4887227d2830d7b83b08c4a8ade5054fcc521a48e9143e6f99da51b2375",
      "blockNumber": "0x7253e4",
      "gasUsed": "0x13af8",
      "effectiveGasPrice": "0x14ff7cc1c",
      "from": "0xc77f7fed3b5cc8249adc428c5f44c9063b9734b4",
      "to": "0x270e88f8683660553e8ba4eb2ad7c91a1710d769",
      "contractAddress": null
    }
  ],
  "libraries": [],
  "pending": [],
  "returns": {},
  "timestamp": 1736892602,
  "chain": 11155111,
  "commit": "51a374b"
}