{
  "transactions": [
    {
      "hash": "0x9bafafc42048054452990e87b12ef6390d650d98ef50ca72992e193649a7676f",
      "transactionType": "CALL",
      "contractName": null,
      "contractAddress": "0x270e88f8683660553e8ba4eb2ad7c91a1710d769",
      "function": "sell(uint256)",
      "arguments": [
        "735517621745376621799"
      ],
      "transaction": {
        "from": "0xc77f7fed3b5cc8249adc428c5f44c9063b9734b4",
        "to": "0x270e88f8683660553e8ba4eb2ad7c91a1710d769",
        "gas": "0x16fec",
        "value": "0x0",
        "input": "0xe4849b32000000000000000000000000000000000000000000000027df5b8409bd4cf4e7",
        "nonce": "0x76e",
        "chainId": "0xaa36a7"
      },
      "additionalContracts": [],
      "isFixedGasLimit": false
    }
  ],
  "receipts": [
    {
      "status": "0x1",
      "cumulativeGasUsed": "0x21ae2a4",
      "logs": [
        {
          "address": "0x270e88f8683660553e8ba4eb2ad7c91a1710d769",
          "topics": [
            "0xddf252ad1be2c89b69c2b068fc378daa952ba7f163c4a11628f55a4df523b3ef",
            "0x000000000000000000000000c77f7fed3b5cc8249adc428c5f44c9063b9734b4",
            "0x0000000000000000000000000000000000000000000000000000000000000000"
          ],
          "data": "0x000000000000000000000000000000000000000000000027df5b8409bd4cf4e7",
          "blockHash": "0xe296be7b398ce4c2cf371fdeab36832df04539b6b5c40bb148ee4463b0aef5cf",
          "blockNumber": "0x72549b",
          "transactionHash": "0x9bafafc42048054452990e87b12ef6390d650d98ef50ca72992e193649a7676f",
          "transactionIndex": "0x8c",
          "logIndex": "0x216",
          "removed": false
        },
        {
          "address": "0x270e88f8683660553e8ba4eb2ad7c91a1710d769",
          "topics": [
            "0x4afcb4a87cdbd9974efdb92ee48bc8d7cd0ae4bf217004db3d080cbaee652ca7"
          ],
          "data": "0x000000000000000000000000000000000000000000000000000000006786e94c0000000000000000000000000000000000000000000000000004cc2d864fa1130000000000000000000000000000000000000000000000000dc8280935259ad7",
          "blockHash": "0xe296be7b398ce4c2cf371fdeab36832df04539b6b5c40bb148ee4463b0aef5cf",
          "blockNumber": "0x72549b",
          "transactionHash": "0x9bafafc42048054452990e87b12ef6390d650d98ef50ca72992e193649a7676f",
          "transactionIndex": "0x8c",
          "logIndex": "0x217",
          "removed": false
        }
      ],
      "logsBloom": "0x00000000000000000000000000000000000000000000000000000000000000000000000000000000000000000000000020000000000000004000000000000000000000000000000000000008000000000000000000000000000000000000000000000000020000000000000000000800020000000000000000000010000000000000000000010000000000000000000000000000000000000000010000000000000000000000000000000000000000004000000000000000000000000000000000000002000000800000000000000000000000000000080000008000000020000000000000000000000000000000000000000000000000000000000000000000",
      "type": "0x2",
      "transactionHash": "0x9bafafc42048054452990e87b12ef6390d650d98ef50ca72992e193649a7676f",
      "transactionIndex": "0x8c",
      "blockHash": "0xe296be7b398ce4c2cf371fdeab36832df04539b6b5c40bb148ee4463b0aef5cf",
      "blockNumber": "0x72549b",
      "gasUsed": "0xfb93",
      "effectiveGasPrice": "0x118b6a7d5",
      "from": "0xc77f7fed3b5cc8249adc428c5f44c9063b9734b4",
      "to": "0x270e88f8683660553e8ba4eb2ad7c91a1710d769",
      "contractAddress": null
    }
  ],
  "libraries": [],
  "pending": [],
  "returns": {},
  "timestamp": 1736894798,
  "chain": 11155111,
  "commit": "51a374b"
}