{
  "transactions": [
    {
      "hash": "0xded2b39724240725d0f1a60ea9f7d2e30b8d0af6e5f235b06d52c31806978368",
      "transactionType": "CALL",
      "contractName": null,
      "contractAddress": "0x8aafd3ede9adb0ff97c7aebce82a919afb1c8764",
      "function": "sell(uint256)",
      "arguments": [
        "195584377240504142272"
      ],
      "transaction": {
        "from": "0xc77f7fed3b5cc8249adc428c5f44c9063b9734b4",
        "to": "0x8aafd3ede9adb0ff97c7aebce82a919afb1c8764",
        "gas": "0x17270",
        "value": "0x0",
        "input": "0xe4849b3200000000000000000000000000000000000000000000000a9a474ad98c3e89c0",
        "nonce": "0x1559",
        "chainId": "0xaa36a7"
      },
      "additionalContracts": [],
      "isFixedGasLimit": false
    }
  ],
  "receipts": [
    {
      "status": "0x1",
      "cumulativeGasUsed": "0x103133d",
      "logs": [
        {
          "address": "0x8aafd3ede9adb0ff97c7aebce82a919afb1c8764",
          "topics": [
            "0xddf252ad1be2c89b69c2b068fc378daa952ba7f163c4a11628f55a4df523b3ef",
            "0x000000000000000000000000c77f7fed3b5cc8249adc428c5f44c9063b9734b4",
            "0x0000000000000000000000000000000000000000000000000000000000000000"
          ],
          "data": "0x00000000000000000000000000000000000000000000000a8490733603f44f4e",
          "blockHash": "0xa6b7ce2d9858ed902485b0af5f27ac748782e7398c337cde9ce461eec0eba675",
          "blockNumber": "0x731cc0",
          "transactionHash": "0xded2b39724240725d0f1a60ea9f7d2e30b8d0af6e5f235b06d52c31806978368",
          "transactionIndex": "0xa6",
          "logIndex": "0x117",
          "removed": false
        },
        {
          "address": "0x8aafd3ede9adb0ff97c7aebce82a919afb1c8764",
          "topics": [
            "0xddf252ad1be2c89b69c2b068fc378daa952ba7f163c4a11628f55a4df523b3ef",
            "0x000000000000000000000000c77f7fed3b5cc8249adc428c5f44c9063b9734b4",
            "0x000000000000000000000000c77f7fed3b5cc8249adc428c5f44c9063b9734b4"
          ],
          "data": "0x00000000000000000000000000000000000000000000000015b6d7a3884a3a72",
          "blockHash": "0xa6b7ce2d9858ed902485b0af5f27ac748782e7398c337cde9ce461eec0eba675",
          "blockNumber": "0x731cc0",
          "transactionHash": "0xded2b39724240725d0f1a60ea9f7d2e30b8d0af6e5f235b06d52c31806978368",
          "transactionIndex": "0xa6",
          "logIndex": "0x118",
          "removed": false
        },
        {
          "address": "0x8aafd3ede9adb0ff97c7aebce82a919afb1c8764",
          "topics": [
            "0x4afcb4a87cdbd9974efdb92ee48bc8d7cd0ae4bf217004db3d080cbaee652ca7"
          ],
          "data": "0x00000000000000000000000000000000000000000000000000000000679055dc00000000000000000000000000000000000000000000000000122411af4a911e0000000000000000000000000000000000000000000000000dcce1dfd28f4845",
          "blockHash": "0xa6b7ce2d9858ed902485b0af5f27ac748782e7398c337cde9ce461eec0eba675",
          "blockNumber": "0x731cc0",
          "transactionHash": "0xded2b39724240725d0f1a60ea9f7d2e30b8d0af6e5f235b06d52c31806978368",
          "transactionIndex": "0xa6",
          "logIndex": "0x119",
          "removed": false
        }
      ],
      "logsBloom": "0x00000000000000000000000000000000000000000600000000000000000000000000000000000000000000000000000000000000000000004000000000000000000000000000004000000008000000000000000000000000000000000000000000000000020000000000000000000800020000000000000000000010000000000000000000000000000000000000000000000000000000000000010000000000000000000000000000000000000000004000000000000000000000000000000000000002000000800000000000000000000000000000080000000000000020000000000000000000000000000000000000000000000000000000000000000000",
      "type": "0x2",
      "transactionHash": "0xded2b39724240725d0f1a60ea9f7d2e30b8d0af6e5f235b06d52c31806978368",
      "transactionIndex": "0xa6",
      "blockHash": "0xa6b7ce2d9858ed902485b0af5f27ac748782e7398c337cde9ce461eec0eba675",
      "blockNumber": "0x731cc0",
      "gasUsed": "0xfd4b",
      "effectiveGasPrice": "0xaa5cfdda",
      "from": "0xc77f7fed3b5cc8249adc428c5f44c9063b9734b4",
      "to": "0x8aafd3ede9adb0ff97c7aebce82a919afb1c8764",
      "contractAddress": null
    }
  ],
  "libraries": [],
  "pending": [],
  "returns": {},
  "timestamp": 1737512414,
  "chain": 11155111,
  "commit": "1d2fb70"
}