{
  "transactions": [
    {
      "hash": "0xc06e4f52754e29c1d62733f2c1348c51c6528b14962dd78897649fc56c2c71cb",
      "transactionType": "CALL",
      "contractName": null,
      "contractAddress": "0x8aafd3ede9adb0ff97c7aebce82a919afb1c8764",
      "function": "sell(uint256)",
      "arguments": [
        "653428990993"
      ],
      "transaction": {
        "from": "0xc77f7fed3b5cc8249adc428c5f44c9063b9734b4",
        "to": "0x8aafd3ede9adb0ff97c7aebce82a919afb1c8764",
        "gas": "0x1722a",
        "value": "0x0",
        "input": "0xe4849b320000000000000000000000000000000000000000000000000000009823672411",
        "nonce": "0x16bc",
        "chainId": "0xaa36a7"
      },
      "additionalContracts": [],
      "isFixedGasLimit": false
    }
  ],
  "receipts": [
    {
      "status": "0x1",
      "cumulativeGasUsed": "0xb7e652",
      "logs": [
        {
          "address": "0x8aafd3ede9adb0ff97c7aebce82a919afb1c8764",
          "topics": [
            "0xddf252ad1be2c89b69c2b068fc378daa952ba7f163c4a11628f55a4df523b3ef",
            "0x000000000000000000000000c77f7fed3b5cc8249adc428c5f44c9063b9734b4",
            "0x0000000000000000000000000000000000000000000000000000000000000000"
          ],
          "data": "0x00000000000000000000000000000000000000000000000000000096ebd2dc1a",
          "blockHash": "0xf675bc7184b8b4c09bf5da609de97018ac1395c5e1ec10d2c5ab802cced47760",
          "blockNumber": "0x731e75",
          "transactionHash": "0xc06e4f52754e29c1d62733f2c1348c51c6528b14962dd78897649fc56c2c71cb",
          "transactionIndex": "0x5d",
          "logIndex": "0x90",
          "removed": false
        },
        {
          "address": "0x8aafd3ede9adb0ff97c7aebce82a919afb1c8764",
          "topics": [
            "0xddf252ad1be2c89b69c2b068fc378daa952ba7f163c4a11628f55a4df523b3ef",
            "0x000000000000000000000000c77f7fed3b5cc8249adc428c5f44c9063b9734b4",
            "0x000000000000000000000000c77f7fed3b5cc8249adc428c5f44c9063b9734b4"
          ],
          "data": "0x00000000000000000000000000000000000000000000000000000001379447f7",
          "blockHash": "0xf675bc7184b8b4c09bf5da609de97018ac1395c5e1ec10d2c5ab802cced47760",
          "blockNumber": "0x731e75",
          "transactionHash": "0xc06e4f52754e29c1d62733f2c1348c51c6528b14962dd78897649fc56c2c71cb",
          "transactionIndex": "0x5d",
          "logIndex": "0x91",
          "removed": false
        },
        {
          "address": "0x8aafd3ede9adb0ff97c7aebce82a919afb1c8764",
          "topics": [
            "0x4afcb4a87cdbd9974efdb92ee48bc8d7cd0ae4bf217004db3d080cbaee652ca7"
          ],
          "data": "0x0000000000000000000000000000000000000000000000000000000067906a64000000000000000000000000000000000000000000000000001638227e79469200000000000000000000000000000000000000000000000000000000f3956cb5",
          "blockHash": "0xf675bc7184b8b4c09bf5da609de97018ac1395c5e1ec10d2c5ab802cced47760",
          "blockNumber": "0x731e75",
          "transactionHash": "0xc06e4f52754e29c1d62733f2c1348c51c6528b14962dd78897649fc56c2c71cb",
          "transactionIndex": "0x5d",
          "logIndex": "0x92",
          "removed": false
        }
      ],
      "logsBloom": "0x00000000000000000000000000000000000000000600000000000000000000000000000000000000000000000000000000000000000000004000000000000000000000000000004000000008000000000000000000000000000000000000000000000000020000000000000000000800020000000000000000000010000000000000000000000000000000000000000000000000000000000000010000000000000000000000000000000000000000004000000000000000000000000000000000000002000000800000000000000000000000000000080000000000000020000000000000000000000000000000000000000000000000000000000000000000",
      "type": "0x2",
      "transactionHash": "0xc06e4f52754e29c1d62733f2c1348c51c6528b14962dd78897649fc56c2c71cb",
      "transactionIndex": "0x5d",
      "blockHash": "0xf675bc7184b8b4c09bf5da609de97018ac1395c5e1ec10d2c5ab802cced47760",
      "blockNumber": "0x731e75",
      "gasUsed": "0xfd1b",
      "effectiveGasPrice": "0x470b9487",
      "from": "0xc77f7fed3b5cc8249adc428c5f44c9063b9734b4",
      "to": "0x8aafd3ede9adb0ff97c7aebce82a919afb1c8764",
      "contractAddress": null
    }
  ],
  "libraries": [],
  "pending": [],
  "returns": {},
  "timestamp": 1737517671,
  "chain": 11155111,
  "commit": "1d2fb70"
}