{
  "transactions": [
    {
      "hash": "0x1290e8ebc4a040474853c1331670ec6b002d33b5f0c8f0c95a1ab3b3facac5c6",
      "transactionType": "CALL",
      "contractName": null,
      "contractAddress": "0x8aafd3ede9adb0ff97c7aebce82a919afb1c8764",
      "function": "sell(uint256)",
      "arguments": [
        "6842132822"
      ],
      "transaction": {
        "from": "0xc77f7fed3b5cc8249adc428c5f44c9063b9734b4",
        "to": "0x8aafd3ede9adb0ff97c7aebce82a919afb1c8764",
        "gas": "0x1722a",
        "value": "0x0",
        "input": "0xe4849b320000000000000000000000000000000000000000000000000000000197d2a956",
        "nonce": "0x14fb",
        "chainId": "0xaa36a7"
      },
      "additionalContracts": [],
      "isFixedGasLimit": false
    }
  ],
  "receipts": [
    {
      "status": "0x1",
      "cumulativeGasUsed": "0x129108a",
      "logs": [
        {
          "address": "0x8aafd3ede9adb0ff97c7aebce82a919afb1c8764",
          "topics": [
            "0xddf252ad1be2c89b69c2b068fc378daa952ba7f163c4a11628f55a4df523b3ef",
            "0x000000000000000000000000c77f7fed3b5cc8249adc428c5f44c9063b9734b4",
            "0x0000000000000000000000000000000000000000000000000000000000000000"
          ],
          "data": "0x00000000000000000000000000000000000000000000000000000001948f70b0",
          "blockHash": "0xca3cb2cdf61262ddb8b5be34ba4241c7ef38a2b7aa27a1aaa07494aa7c165ebf",
          "blockNumber": "0x731c5c",
          "transactionHash": "0x1290e8ebc4a040474853c1331670ec6b002d33b5f0c8f0c95a1ab3b3facac5c6",
          "transactionIndex": "0x9c",
          "logIndex": "0xfb",
          "removed": false
        },
        {
          "address": "0x8aafd3ede9adb0ff97c7aebce82a919afb1c8764",
          "topics": [
            "0xddf252ad1be2c89b69c2b068fc378daa952ba7f163c4a11628f55a4df523b3ef",
            "0x000000000000000000000000c77f7fed3b5cc8249adc428c5f44c9063b9734b4",
            "0x000000000000000000000000c77f7fed3b5cc8249adc428c5f44c9063b9734b4"
          ],
          "data": "0x00000000000000000000000000000000000000000000000000000000034338a6",
          "blockHash": "0xca3cb2cdf61262ddb8b5be34ba4241c7ef38a2b7aa27a1aaa07494aa7c165ebf",
          "blockNumber": "0x731c5c",
          "transactionHash": "0x1290e8ebc4a040474853c1331670ec6b002d33b5f0c8f0c95a1ab3b3facac5c6",
          "transactionIndex": "0x9c",
          "logIndex": "0xfc",
          "removed": false
        },
        {
          "address": "0x8aafd3ede9adb0ff97c7aebce82a919afb1c8764",
          "topics": [
            "0x4afcb4a87cdbd9974efdb92ee48bc8d7cd0ae4bf217004db3d080cbaee652ca7"
          ],
          "data": "0x000000000000000000000000000000000000000000000000000000006790512c0000000000000000000000000000000000000000000000000010ffc47481da340000000000000000000000000000000000000000000000000000000001f38c3e",
          "blockHash": "0xca3cb2cdf61262ddb8b5be34ba4241c7ef38a2b7aa27a1aaa07494aa7c165ebf",
          "blockNumber": "0x731c5c",
          "transactionHash": "0x1290e8ebc4a040474853c1331670ec6b002d33b5f0c8f0c95a1ab3b3facac5c6",
          "transactionIndex": "0x9c",
          "logIndex": "0xfd",
          "removed": false
        }
      ],
      "logsBloom": "0x00000000000000000000000000000000000000000600000000000000000000000000000000000000000000000000000000000000000000004000000000000000000000000000004000000008000000000000000000000000000000000000000000000000020000000000000000000800020000000000000000000010000000000000000000000000000000000000000000000000000000000000010000000000000000000000000000000000000000004000000000000000000000000000000000000002000000800000000000000000000000000000080000000000000020000000000000000000000000000000000000000000000000000000000000000000",
      "type": "0x2",
      "transactionHash": "0x1290e8ebc4a040474853c1331670ec6b002d33b5f0c8f0c95a1ab3b3facac5c6",
      "transactionIndex": "0x9c",
      "blockHash": "0xca3cb2cdf61262ddb8b5be34ba4241c7ef38a2b7aa27a1aaa07494aa7c165ebf",
      "blockNumber": "0x731c5c",
      "gasUsed": "0xfd1b",
      "effectiveGasPrice": "0x161fc27d8",
      "from": "0xc77f7fed3b5cc8249adc428c5f44c9063b9734b4",
      "to": "0x8aafd3ede9adb0ff97c7aebce82a919afb1c8764",
      "contractAddress": null
    }
  ],
  "libraries": [],
  "pending": [],
  "returns": {},
  "timestamp": 1737511214,
  "chain": 11155111,
  "commit": "1d2fb70"
}