{
  "transactions": [
    {
      "hash": "0xe9d66cb30cddf7fbb0f4170feb5639d8cb3df707bf9ff268157617a7fb344ea8",
      "transactionType": "CALL",
      "contractName": null,
      "contractAddress": "0x270e88f8683660553e8ba4eb2ad7c91a1710d769",
      "function": "sell(uint256)",
      "arguments": [
        "728048524726482777037"
      ],
      "transaction": {
        "from": "0xc77f7fed3b5cc8249adc428c5f44c9063b9734b4",
        "to": "0x270e88f8683660553e8ba4eb2ad7c91a1710d769",
        "gas": "0x16fec",
        "value": "0x0",
        "input": "0xe4849b3200000000000000000000000000000000000000000000002777b3f3df513433cd",
        "nonce": "0x7c4",
        "chainId": "0xaa36a7"
      },
      "additionalContracts": [],
      "isFixedGasLimit": false
    }
  ],
  "receipts": [
    {
      "status": "0x1",
      "cumulativeGasUsed": "0x13aadd8",
      "logs": [
        {
          "address": "0x270e88f8683660553e8ba4eb2ad7c91a1710d769",
          "topics": [
            "0xddf252ad1be2c89b69c2b068fc378daa952ba7f163c4a11628f55a4df523b3ef",
            "0x000000000000000000000000c77f7fed3b5cc8249adc428c5f44c9063b9734b4",
            "0x0000000000000000000000000000000000000000000000000000000000000000"
          ],
          "data": "0x00000000000000000000000000000000000000000000002777b3f3df513433cd",
          "blockHash": "0x72185872837e68a2e6c5d446317c5bd1d093eff3a158542e24be6cd481505237",
          "blockNumber": "0x7254fc",
          "transactionHash": "0xe9d66cb30cddf7fbb0f4170feb5639d8cb3df707bf9ff268157617a7fb344ea8",
          "transactionIndex": "0x4e",
          "logIndex": "0x84",
          "removed": false
        },
        {
          "address": "0x270e88f8683660553e8ba4eb2ad7c91a1710d769",
          "topics": [
            "0x4afcb4a87cdbd9974efdb92ee48bc8d7cd0ae4bf217004db3d080cbaee652ca7"
          ],
          "data": "0x000000000000000000000000000000000000000000000000000000006786edd80000000000000000000000000000000000000000000000000004d8c658e6fe3a0000000000000000000000000000000000000000000000000dc8274343dc05b8",
          "blockHash": "0x72185872837e68a2e6c5d446317c5bd1d093eff3a158542e24be6cd481505237",
          "blockNumber": "0x7254fc",
          "transactionHash": "0xe9d66cb30cddf7fbb0f4170feb5639d8cb3df707bf9ff268157617a7fb344ea8",
          "transactionIndex": "0x4e",
          "logIndex": "0x85",
          "removed": false
        }
      ],
      "logsBloom": "0x00000000000000000000000000000000000000000000000000000000000000000000000000000000000000000000000020000000000000004000000000000000000000000000000000000008000000000000000000000000000000000000000000000000020000000000000000000800020000000000000000000010000000000000000000010000000000000000000000000000000000000000010000000000000000000000000000000000000000004000000000000000000000000000000000000002000000800000000000000000000000000000080000008000000020000000000000000000000000000000000000000000000000000000000000000000",
      "type": "0x2",
      "transactionHash": "0xe9d66cb30cddf7fbb0f4170feb5639d8cb3df707bf9ff268157617a7fb344ea8",
      "transactionIndex": "0x4e",
      "blockHash": "0x72185872837e68a2e6c5d446317c5bd1d093eff3a158542e24be6cd481505237",
      "blockNumber": "0x7254fc",
      "gasUsed": "0xfb93",
      "effectiveGasPrice": "0xc0e98a7a",
      "from": "0xc77f7fed3b5cc8249adc428c5f44c9063b9734b4",
      "to": "0x270e88f8683660553e8ba4eb2ad7c91a1710d769",
      "contractAddress": null
    }
  ],
  "libraries": [],
  "pending": [],
  "returns": {},
  "timestamp": 1736895963,
  "chain": 11155111,
  "commit": "51a374b"
}