{
  "transactions": [
    {
      "hash": "0x7e8e70737c68f12d2850f08834794fc80a5ec304a181d6cd52506d062706cabe",
      "transactionType": "CALL",
      "contractName": null,
      "contractAddress": "0x8aafd3ede9adb0ff97c7aebce82a919afb1c8764",
      "function": "buy(address)",
      "arguments": [
        "0xC77f7fed3b5Cc8249aDc428c5F44C9063B9734b4"
      ],
      "transaction": {
        "from": "0xc77f7fed3b5cc8249adc428c5f44c9063b9734b4",
        "to": "0x8aafd3ede9adb0ff97c7aebce82a919afb1c8764",
        "gas": "0x156ea",
        "value": "0xde0b6b3a7640000",
        "input": "0xf088d547000000000000000000000000c77f7fed3b5cc8249adc428c5f44c9063b9734b4",
        "nonce": "0x12e8",
        "chainId": "0xaa36a7"
      },
      "additionalContracts": [],
      "isFixedGasLimit": false
    }
  ],
  "receipts": [
    {
      "status": "0x1",
      "cumulativeGasUsed": "0xcc2cc8",
      "logs": [
        {
          "address": "0x8aafd3ede9adb0ff97c7aebce82a919afb1c8764",
          "topics": [
            "0xddf252ad1be2c89b69c2b068fc378daa952ba7f163c4a11628f55a4df523b3ef",
            "0x0000000000000000000000000000000000000000000000000000000000000000",
            "0x000000000000000000000000c77f7fed3b5cc8249adc428c5f44c9063b9734b4"
          ],
          "data": "0x000000000000000000000000000000000000000000000023d71036c72e7f3d96",
          "blockHash": "0x6a56879a6afdfbee75f012fd21a47ce4aec379eddb3d318ec7f700ddc38e6ffa",
          "blockNumber": "0x7319ec",
          "transactionHash": "0x7e8e70737c68f12d2850f08834794fc80a5ec304a181d6cd52506d062706cabe",
          "transactionIndex": "0x7c",
          "logIndex": "0x8d",
          "removed": false
        },
        {
          "address": "0x8aafd3ede9adb0ff97c7aebce82a919afb1c8764",
          "topics": [
            "0xddf252ad1be2c89b69c2b068fc378daa952ba7f163c4a11628f55a4df523b3ef",
            "0x0000000000000000000000000000000000000000000000000000000000000000",
            "0x000000000000000000000000c77f7fed3b5cc8249adc428c5f44c9063b9734b4"
          ],
          "data": "0x0000000000000000000000000000000000000000000000001bd4bfe8703dd349",
          "blockHash": "0x6a56879a6afdfbee75f012fd21a47ce4aec379eddb3d318ec7f700ddc38e6ffa",
          "blockNumber": "0x7319ec",
          "transactionHash": "0x7e8e70737c68f12d2850f08834794fc80a5ec304a181d6cd52506d062706cabe",
          "transactionIndex": "0x7c",
          "logIndex": "0x8e",
          "removed": false
        },
        {
          "address": "0x8aafd3ede9adb0ff97c7aebce82a919afb1c8764",
          "topics": [
            "0x4afcb4a87cdbd9974efdb92ee48bc8d7cd0ae4bf217004db3d080cbaee652ca7"
          ],
          "data": "0x00000000000000000000000000000000000000000000000000000000679033e0000000000000000000000000000000000000000000000000000552508d7630020000000000000000000000000000000000000000000000000de0b6b3a7640000",
          "blockHash": "0x6a56879a6afdfbee75f012fd21a47ce4aec379eddb3d318ec7f700ddc38e6ffa",
          "blockNumber": "0x7319ec",
          "transactionHash": "0x7e8e70737c68f12d2850f08834794fc80a5ec304a181d6cd52506d062706cabe",
          "transactionIndex": "0x7c",
          "logIndex": "0x8f",
          "removed": false
        }
      ],
      "logsBloom": "0x00000000000000000000000000000000000000000600000000000000000000000000000000000000000000000000000000000000000000004000000000000000000000000000004000000008000000000000000000000000000000000000000000000000020000000000000000000800020000000000000000000010000000000000000000000000000000000000000000000000000000000000010000000000000000000000000000000000000000004000000000000000000000000000000000000002000000800000000000000000000000000000080000000000000020000000000000000000000000000000000000000000000000000000000000000000",
      "type": "0x2",
      "transactionHash": "0x7e8e70737c68f12d2850f08834794fc80a5ec304a181d6cd52506d062706cabe",
      "transactionIndex": "0x7c",
      "blockHash": "0x6a56879a6afdfbee75f012fd21a47ce4aec379eddb3d318ec7f700ddc38e6ffa",
      "blockNumber": "0x7319ec",
      "gasUsed": "0xf844",
      "effectiveGasPrice": "0x3e4b1e49",
      "from": "0xc77f7fed3b5cc8249adc428c5f44c9063b9734b4",
      "to": "0x8aafd3ede9adb0ff97c7aebce82a919afb1c8764",
      "contractAddress": null
    }
  ],
  "libraries": [],
  "pending": [],
  "returns": {},
  "timestamp": 1737503714,
  "chain": 11155111,
  "commit": "1d2fb70"
}