{
  "transactions": [
    {
      "hash": "0x0600248d8aa72dfb70ad6b8e4ba6d63275760de466cbde17565e0aaecec29c6b",
      "transactionType": "CALL",
      "contractName": null,
      "contractAddress": "0x8aafd3ede9adb0ff97c7aebce82a919afb1c8764",
      "function": "sell(uint256)",
      "arguments": [
        "344360"
      ],
      "transaction": {
        "from": "0xc77f7fed3b5cc8249adc428c5f44c9063b9734b4",
        "to": "0x8aafd3ede9adb0ff97c7aebce82a919afb1c8764",
        "gas": "0x16208",
        "value": "0x0",
        "input": "0xe4849b320000000000000000000000000000000000000000000000000000000000054128",
        "nonce": "0x1689",
        "chainId": "0xaa36a7"
      },
      "additionalContracts": [],
      "isFixedGasLimit": false
    }
  ],
  "receipts": [
    {
      "status": "0x1",
      "cumulativeGasUsed": "0xc39e92",
      "logs": [
        {
          "address": "0x8aafd3ede9adb0ff97c7aebce82a919afb1c8764",
          "topics": [
            "0xddf252ad1be2c89b69c2b068fc378daa952ba7f163c4a11628f55a4df523b3ef",
            "0x000000000000000000000000c77f7fed3b5cc8249adc428c5f44c9063b9734b4",
            "0x0000000000000000000000000000000000000000000000000000000000000000"
          ],
          "data": "0x0000000000000000000000000000000000000000000000000000000000053666",
          "blockHash": "0x54c1001827e5a3035c743140f65b02b14de2a384eba1a69aec0d58da78d32331",
          "blockNumber": "0x731e3d",
          "transactionHash": "0x0600248d8aa72dfb70ad6b8e4ba6d63275760de466cbde17565e0aaecec29c6b",
          "transactionIndex": "0x87",
          "logIndex": "0xd0",
          "removed": false
        },
        {
          "address": "0x8aafd3ede9adb0ff97c7aebce82a919afb1c8764",
          "topics": [
            "0xddf252ad1be2c89b69c2b068fc378daa952ba7f163c4a11628f55a4df523b3ef",
            "0x000000000000000000000000c77f7fed3b5cc8249adc428c5f44c9063b9734b4",
            "0x000000000000000000000000c77f7fed3b5cc8249adc428c5f44c9063b9734b4"
          ],
          "data": "0x0000000000000000000000000000000000000000000000000000000000000ac2",
          "blockHash": "0x54c1001827e5a3035c743140f65b02b14de2a384eba1a69aec0d58da78d32331",
          "blockNumber": "0x731e3d",
          "transactionHash": "0x0600248d8aa72dfb70ad6b8e4ba6d63275760de466cbde17565e0aaecec29c6b",
          "transactionIndex": "0x87",
          "logIndex": "0xd1",
          "removed": false
        },
        {
          "address": "0x8aafd3ede9adb0ff97c7aebce82a919afb1c8764",
          "topics": [
            "0x4afcb4a87cdbd9974efdb92ee48bc8d7cd0ae4bf217004db3d080cbaee652ca7"
          ],
          "data": "0x00000000000000000000000000000000000000000000000000000000679067c4000000000000000000000000000000000000000000000000001596e86c56ab1a000000000000000000000000000000000000000000000000000000000000082c",
          "blockHash": "0x54c1001827e5a3035c743140f65b02b14de2a384eba1a69aec0d58da78d32331",
          "blockNumber": "0x731e3d",
          "transactionHash": "0x0600248d8aa72dfb70ad6b8e4ba6d63275760de466cbde17565e0aaecec29c6b",
          "transactionIndex": "0x87",
          "logIndex": "0xd2",
          "removed": false
        }
      ],
      "logsBloom": "0x00000000000000000000000000000000000000000600000000000000000000000000000000000000000000000000000000000000000000004000000000000000000000000000004000000008000000000000000000000000000000000000000000000000020000000000000000000800020000000000000000000010000000000000000000000000000000000000000000000000000000000000010000000000000000000000000000000000000000004000000000000000000000000000000000000002000000800000000000000000000000000000080000000000000020000000000000000000000000000000000000000000000000000000000000000000",
      "type": "0x2",
      "transactionHash": "0x0600248d8aa72dfb70ad6b8e4ba6d63275760de466cbde17565e0aaecec29c6b",
      "transactionIndex": "0x87",
      "blockHash": "0x54c1001827e5a3035c743140f65b02b14de2a384eba1a69aec0d58da78d32331",
      "blockNumber": "0x731e3d",
      "gasUsed": "0xf213",
      "effectiveGasPrice": "0x47f2e64a",
      "from": "0xc77f7fed3b5cc8249adc428c5f44c9063b9734b4",
      "to": "0x8aafd3ede9adb0ff97c7aebce82a919afb1c8764",
      "contractAddress": null
    }
  ],
  "libraries": [],
  "pending": [],
  "returns": {},
  "timestamp": 1737516998,
  "chain": 11155111,
  "commit": "1d2fb70"
}