{
  "transactions": [
    {
      "hash": "0x81d4ca0f94221865b931f1fd3afd5db6e1ffe21f4b28ece59cf38da276ffb672",
      "transactionType": "CALL",
      "contractName": null,
      "contractAddress": "0x270e88f8683660553e8ba4eb2ad7c91a1710d769",
      "function": "buy(address)",
      "arguments": [
        "0xC77f7fed3b5Cc8249aDc428c5F44C9063B9734b4"
      ],
      "transaction": {
        "from": "0xc77f7fed3b5cc8249adc428c5f44c9063b9734b4",
        "to": "0x270e88f8683660553e8ba4eb2ad7c91a1710d769",
        "gas": "0x1b30c",
        "value": "0xde0b6b3a7640000",
        "input": "0xf088d547000000000000000000000000c77f7fed3b5cc8249adc428c5f44c9063b9734b4",
        "nonce": "0x84f",
        "chainId": "0xaa36a7"
      },
      "additionalContracts": [],
      "isFixedGasLimit": false
    }
  ],
  "receipts": [
    {
      "status": "0x1",
      "cumulativeGasUsed": "0xb2cc1f",
      "logs": [
        {
          "address": "0x270e88f8683660553e8ba4eb2ad7c91a1710d769",
          "topics": [
            "0xddf252ad1be2c89b69c2b068fc378daa952ba7f163c4a11628f55a4df523b3ef",
            "0x0000000000000000000000000000000000000000000000000000000000000000",
            "0x000000000000000000000000c77f7fed3b5cc8249adc428c5f44c9063b9734b4"
          ],
          "data": "0x000000000000000000000000000000000000000000000026b5534a2e3d65712f",
          "blockHash": "0x907ac39c1da6eacf011f38dfe45a57c12598d30b93bd6aa8d5871466e52360cc",
          "blockNumber": "0x7255a0",
          "transactionHash": "0x81d4ca0f94221865b931f1fd3afd5db6e1ffe21f4b28ece59cf38da276ffb672",
          "transactionIndex": "0x40",
          "logIndex": "0xe4",
          "removed": false
        },
        {
          "address": "0x270e88f8683660553e8ba4eb2ad7c91a1710d769",
          "topics": [
            "0xddf252ad1be2c89b69c2b068fc378daa952ba7f163c4a11628f55a4df523b3ef",
            "0x0000000000000000000000000000000000000000000000000000000000000000",
            "0x000000000000000000000000c77f7fed3b5cc8249adc428c5f44c9063b9734b4"
          ],
          "data": "0x0000000000000000000000000000000000000000000000001e0eeddc27da0250",
          "blockHash": "0x907ac39c1da6eacf011f38dfe45a57c12598d30b93bd6aa8d5871466e52360cc",
          "blockNumber": "0x7255a0",
          "transactionHash": "0x81d4ca0f94221865b931f1fd3afd5db6e1ffe21f4b28ece59cf38da276ffb672",
          "transactionIndex": "0x40",
          "logIndex": "0xe5",
          "removed": false
        },
        {
          "address": "0x270e88f8683660553e8ba4eb2ad7c91a1710d769",
          "topics": [
            "0x4afcb4a87cdbd9974efdb92ee48bc8d7cd0ae4bf217004db3d080cbaee652ca7"
          ],
          "data": "0x000000000000000000000000000000000000000000000000000000006786f5880000000000000000000000000000000000000000000000000004ed182ed1fb100000000000000000000000000000000000000000000000000de0b6b3a7640000",
          "blockHash": "0x907ac39c1da6eacf011f38dfe45a57c12598d30b93bd6aa8d5871466e52360cc",
          "blockNumber": "0x7255a0",
          "transactionHash": "0x81d4ca0f94221865b931f1fd3afd5db6e1ffe21f4b28ece59cf38da276ffb672",
          "transactionIndex": "0x40",
          "logIndex": "0xe6",
          "removed": false
        }
      ],
      "logsBloom": "0x00000000000000000000000000000000000000000000000000000000000000000000000000000000000000000000000020000000000000004000000000000000000000000000000000000008000000000000000000000000000000000000000000000000020000000000000000000800020000000000000000000010000000000000000000010000000000000000000000000000000000000000010000000000000000000000000000000000000000004000000000000000000000000000000000000002000000800000000000000000000000000000080000008000000020000000000000000000000000000000000000000000000000000000000000000000",
      "type": "0x2",
      "transactionHash": "0x81d4ca0f94221865b931f1fd3afd5db6e1ffe21f4b28ece59cf38da276ffb672",
      "transactionIndex": "0x40",
      "blockHash": "0x907ac39c1da6eacf011f38dfe45a57c12598d30b93bd6aa8d5871466e52360cc",
      "blockNumber": "0x7255a0",
      "gasUsed": "0x13af8",
      "effectiveGasPrice": "0x6586634a",
      "from": "0xc77f7fed3b5cc8249adc428c5f44c9063b9734b4",
      "to": "0x270e88f8683660553e8ba4eb2ad7c91a1710d769",
      "contractAddress": null
    }
  ],
  "libraries": [],
  "pending": [],
  "returns": {},
  "timestamp": 1736897928,
  "chain": 11155111,
  "commit": "51a374b"
}