{
  "transactions": [
    {
      "hash": "0xcc57f09fac52b8b59f89d0538335b1854ac5f7f41e89d308de27227c089d3ecd",
      "transactionType": "CALL",
      "contractName": null,
      "contractAddress": "0x8aafd3ede9adb0ff97c7aebce82a919afb1c8764",
      "function": "sell(uint256)",
      "arguments": [
        "540018"
      ],
      "transaction": {
        "from": "0xc77f7fed3b5cc8249adc428c5f44c9063b9734b4",
        "to": "0x8aafd3ede9adb0ff97c7aebce82a919afb1c8764",
        "gas": "0x16208",
        "value": "0x0",
        "input": "0xe4849b320000000000000000000000000000000000000000000000000000000000083d72",
        "nonce": "0x13e6",
        "chainId": "0xaa36a7"
      },
      "additionalContracts": [],
      "isFixedGasLimit": false
    }
  ],
  "receipts": [
    {
      "status": "0x1",
      "cumulativeGasUsed": "0x9020ca",
      "logs": [
        {
          "address": "0x8aafd3ede9adb0ff97c7aebce82a919afb1c8764",
          "topics": [
            "0xddf252ad1be2c89b69c2b068fc378daa952ba7f163c4a11628f55a4df523b3ef",
            "0x000000000000000000000000c77f7fed3b5cc8249adc428c5f44c9063b9734b4",
            "0x0000000000000000000000000000000000000000000000000000000000000000"
          ],
          "data": "0x0000000000000000000000000000000000000000000000000000000000082c92",
          "blockHash": "0xccd351ce07182585deb0cf85a9bc1ac5b59d799c9815a8391ac705133542aae2",
          "blockNumber": "0x731b16",
          "transactionHash": "0xcc57f09fac52b8b59f89d0538335b1854ac5f7f41e89d308de27227c089d3ecd",
          "transactionIndex": "0x44",
          "logIndex": "0x7d",
          "removed": false
        },
        {
          "address": "0x8aafd3ede9adb0ff97c7aebce82a919afb1c8764",
          "topics": [
            "0xddf252ad1be2c89b69c2b068fc378daa952ba7f163c4a11628f55a4df523b3ef",
            "0x000000000000000000000000c77f7fed3b5cc8249adc428c5f44c9063b9734b4",
            "0x000000000000000000000000c77f7fed3b5cc8249adc428c5f44c9063b9734b4"
          ],
          "data": "0x00000000000000000000000000000000000000000000000000000000000010e0",
          "blockHash": "0xccd351ce07182585deb0cf85a9bc1ac5b59d799c9815a8391ac705133542aae2",
          "blockNumber": "0x731b16",
          "transactionHash": "0xcc57f09fac52b8b59f89d0538335b1854ac5f7f41e89d308de27227c089d3ecd",
          "transactionIndex": "0x44",
          "logIndex": "0x7e",
          "removed": false
        },
        {
          "address": "0x8aafd3ede9adb0ff97c7aebce82a919afb1c8764",
          "topics": [
            "0x4afcb4a87cdbd9974efdb92ee48bc8d7cd0ae4bf217004db3d080cbaee652ca7"
          ],
          "data": "0x00000000000000000000000000000000000000000000000000000000679041d8000000000000000000000000000000000000000000000000000dcd854cbeb2460000000000000000000000000000000000000000000000000000000000000832",
          "blockHash": "0xccd351ce07182585deb0cf85a9bc1ac5b59d799c9815a8391ac705133542aae2",
          "blockNumber": "0x731b16",
          "transactionHash": "0xcc57f09fac52b8b59f89d0538335b1854ac5f7f41e89d308de27227c089d3ecd",
          "transactionIndex": "0x44",
          "logIndex": "0x7f",
          "removed": false
        }
      ],
      "logsBloom": "0x00000000000000000000000000000000000000000600000000000000000000000000000000000000000000000000000000000000000000004000000000000000000000000000004000000008000000000000000000000000000000000000000000000000020000000000000000000800020000000000000000000010000000000000000000000000000000000000000000000000000000000000010000000000000000000000000000000000000000004000000000000000000000000000000000000002000000800000000000000000000000000000080000000000000020000000000000000000000000000000000000000000000000000000000000000000",
      "type": "0x2",
      "transactionHash": "0xcc57f09fac52b8b59f89d0538335b1854ac5f7f41e89d308de27227c089d3ecd",
      "transactionIndex": "0x44",
      "blockHash": "0xccd351ce07182585deb0cf85a9bc1ac5b59d799c9815a8391ac705133542aae2",
      "blockNumber": "0x731b16",
      "gasUsed": "0xf213",
      "effectiveGasPrice": "0x92a47d0c",
      "from": "0xc77f7fed3b5cc8249adc428c5f44c9063b9734b4",
      "to": "0x8aafd3ede9adb0ff97c7aebce82a919afb1c8764",
      "contractAddress": null
    }
  ],
  "libraries": [],
  "pending": [],
  "returns": {},
  "timestamp": 1737507288,
  "chain": 11155111,
  "commit": "1d2fb70"
}