{
  "transactions": [
    {
      "hash": "0xc77e9f08df36a31eb0e3b9a637ddd426bae2e5e8bc71bd57b42aae69b3e84f4f",
      "transactionType": "CALL",
      "contractName": null,
      "contractAddress": "0x8aafd3ede9adb0ff97c7aebce82a919afb1c8764",
      "function": "sell(uint256)",
      "arguments": [
        "68010598"
      ],
      "transaction": {
        "from": "0xc77f7fed3b5cc8249adc428c5f44c9063b9734b4",
        "to": "0x8aafd3ede9adb0ff97c7aebce82a919afb1c8764",
        "gas": "0x15d88",
        "value": "0x0",
        "input": "0xe4849b3200000000000000000000000000000000000000000000000000000000040dc266",
        "nonce": "0x13dc",
        "chainId": "0xaa36a7"
      },
      "additionalContracts": [],
      "isFixedGasLimit": false
    }
  ],
  "receipts": [
    {
      "status": "0x1",
      "cumulativeGasUsed": "0x994fb7",
      "logs": [
        {
          "address": "0x8aafd3ede9adb0ff97c7aebce82a919afb1c8764",
          "topics": [
            "0xddf252ad1be2c89b69c2b068fc378daa952ba7f163c4a11628f55a4df523b3ef",
            "0x000000000000000000000000c77f7fed3b5cc8249adc428c5f44c9063b9734b4",
            "0x0000000000000000000000000000000000000000000000000000000000000000"
          ],
          "data": "0x0000000000000000000000000000000000000000000000000000000004057512",
          "blockHash": "0xefa51c9d13b80935184977831b776a4e5685d0370248f1dc05195b3cb01d2922",
          "blockNumber": "0x731b0b",
          "transactionHash": "0xc77e9f08df36a31eb0e3b9a637ddd426bae2e5e8bc71bd57b42aae69b3e84f4f",
          "transactionIndex": "0x7b",
          "logIndex": "0x74",
          "removed": false
        },
        {
          "address": "0x8aafd3ede9adb0ff97c7aebce82a919afb1c8764",
          "topics": [
            "0xddf252ad1be2c89b69c2b068fc378daa952ba7f163c4a11628f55a4df523b3ef",
            "0x000000000000000000000000c77f7fed3b5cc8249adc428c5f44c9063b9734b4",
            "0x000000000000000000000000c77f7fed3b5cc8249adc428c5f44c9063b9734b4"
          ],
          "data": "0x0000000000000000000000000000000000000000000000000000000000084d54",
          "blockHash": "0xefa51c9d13b80935184977831b776a4e5685d0370248f1dc05195b3cb01d2922",
          "blockNumber": "0x731b0b",
          "transactionHash": "0xc77e9f08df36a31eb0e3b9a637ddd426bae2e5e8bc71bd57b42aae69b3e84f4f",
          "transactionIndex": "0x7b",
          "logIndex": "0x75",
          "removed": false
        },
        {
          "address": "0x8aafd3ede9adb0ff97c7aebce82a919afb1c8764",
          "topics": [
            "0x4afcb4a87cdbd9974efdb92ee48bc8d7cd0ae4bf217004db3d080cbaee652ca7"
          ],
          "data": "0x0000000000000000000000000000000000000000000000000000000067904154000000000000000000000000000000000000000000000000000db34b6fe92eb1000000000000000000000000000000000000000000000000000000000004007e",
          "blockHash": "0xefa51c9d13b80935184977831b776a4e5685d0370248f1dc05195b3cb01d2922",
          "blockNumber": "0x731b0b",
          "transactionHash": "0xc77e9f08df36a31eb0e3b9a637ddd426bae2e5e8bc71bd57b42aae69b3e84f4f",
          "transactionIndex": "0x7b",
          "logIndex": "0x76",
          "removed": false
        }
      ],
      "logsBloom": "0x00000000000000000000000000000000000000000600000000000000000000000000000000000000000000000000000000000000000000004000000000000000000000000000004000000008000000000000000000000000000000000000000000000000020000000000000000000800020000000000000000000010000000000000000000000000000000000000000000000000000000000000010000000000000000000000000000000000000000004000000000000000000000000000000000000002000000800000000000000000000000000000080000000000000020000000000000000000000000000000000000000000000000000000000000000000",
      "type": "0x2",
      "transactionHash": "0xc77e9f08df36a31eb0e3b9a637ddd426bae2e5e8bc71bd57b42aae69b3e84f4f",
      "transactionIndex": "0x7b",
      "blockHash": "0xefa51c9d13b80935184977831b776a4e5685d0370248f1dc05195b3cb01d2922",
      "blockNumber": "0x731b0b",
      "gasUsed": "0xfd0f",
      "effectiveGasPrice": "0x8d0bf19a",
      "from": "0xc77f7fed3b5cc8249adc428c5f44c9063b9734b4",
      "to": "0x8aafd3ede9adb0ff97c7aebce82a919afb1c8764",
      "contractAddress": null
    }
  ],
  "libraries": [],
  "pending": [],
  "returns": {},
  "timestamp": 1737507158,
  "chain": 11155111,
  "commit": "1d2fb70"
}