{
  "transactions": [
    {
      "hash": "0x6837cadc100113b87e317c41190da7d93780097210e5554d63538ec88111366e",
      "transactionType": "CALL",
      "contractName": null,
      "contractAddress": "0x8aafd3ede9adb0ff97c7aebce82a919afb1c8764",
      "function": "sell(uint256)",
      "arguments": [
        "911062553107"
      ],
      "transaction": {
        "from": "0xc77f7fed3b5cc8249adc428c5f44c9063b9734b4",
        "to": "0x8aafd3ede9adb0ff97c7aebce82a919afb1c8764",
        "gas": "0x1722a",
        "value": "0x0",
        "input": "0xe4849b32000000000000000000000000000000000000000000000000000000d41f8f5213",
        "nonce": "0x14a0",
        "chainId": "0xaa36a7"
      },
      "additionalContracts": [],
      "isFixedGasLimit": false
    }
  ],
  "receipts": [
    {
      "status": "0x1",
      "cumulativeGasUsed": "0x45d617",
      "logs": [
        {
          "address": "0x8aafd3ede9adb0ff97c7aebce82a919afb1c8764",
          "topics": [
            "0xddf252ad1be2c89b69c2b068fc378daa952ba7f163c4a11628f55a4df523b3ef",
            "0x000000000000000000000000c77f7fed3b5cc8249adc428c5f44c9063b9734b4",
            "0x0000000000000000000000000000000000000000000000000000000000000000"
          ],
          "data": "0x000000000000000000000000000000000000000000000000000000d26d21a14b",
          "blockHash": "0x20647c8218d32465f19a32ab1a966eb259180116c88b2e3fd7bd63f0b1142120",
          "blockNumber": "0x731bf3",
          "transactionHash": "0x6837cadc100113b87e317c41190da7d93780097210e5554d63538ec88111366e",
          "transactionIndex": "0x16",
          "logIndex": "0x26",
          "removed": false
        },
        {
          "address": "0x8aafd3ede9adb0ff97c7aebce82a919afb1c8764",
          "topics": [
            "0xddf252ad1be2c89b69c2b068fc378daa952ba7f163c4a11628f55a4df523b3ef",
            "0x000000000000000000000000c77f7fed3b5cc8249adc428c5f44c9063b9734b4",
            "0x000000000000000000000000c77f7fed3b5cc8249adc428c5f44c9063b9734b4"
          ],
          "data": "0x00000000000000000000000000000000000000000000000000000001b26db0c8",
          "blockHash": "0x20647c8218d32465f19a32ab1a966eb259180116c88b2e3fd7bd63f0b1142120",
          "blockNumber": "0x731bf3",
          "transactionHash": "0x6837cadc100113b87e317c41190da7d93780097210e5554d63538ec88111366e",
          "transactionIndex": "0x16",
          "logIndex": "0x27",
          "removed": false
        },
        {
          "address": "0x8aafd3ede9adb0ff97c7aebce82a919afb1c8764",
          "topics": [
            "0x4afcb4a87cdbd9974efdb92ee48bc8d7cd0ae4bf217004db3d080cbaee652ca7"
          ],
          "data": "0x0000000000000000000000000000000000000000000000000000000067904c40000000000000000000000000000000000000000000000000000ff6c9d34d361b00000000000000000000000000000000000000000000000000000000f402f103",
          "blockHash": "0x20647c8218d32465f19a32ab1a966eb259180116c88b2e3fd7bd63f0b1142120",
          "blockNumber": "0x731bf3",
          "transactionHash": "0x6837cadc100113b87e317c41190da7d93780097210e5554d63538ec88111366e",
          "transactionIndex": "0x16",
          "logIndex": "0x28",
          "removed": false
        }
      ],
      "logsBloom": "0x00000000000000000000000000000000000000000600000000000000000000000000000000000000000000000000000000000000000000004000000000000000000000000000004000000008000000000000000000000000000000000000000000000000020000000000000000000800020000000000000000000010000000000000000000000000000000000000000000000000000000000000010000000000000000000000000000000000000000004000000000000000000000000000000000000002000000800000000000000000000000000000080000000000000020000000000000000000000000000000000000000000000000000000000000000000",
      "type": "0x2",
      "transactionHash": "0x6837cadc100113b87e317c41190da7d93780097210e5554d63538ec88111366e",
      "transactionIndex": "0x16",
      "blockHash": "0x20647c8218d32465f19a32ab1a966eb259180116c88b2e3fd7bd63f0b1142120",
      "blockNumber": "0x731bf3",
      "gasUsed": "0xfd1b",
      "effectiveGasPrice": "0xfb3abb61",
      "from": "0xc77f7fed3b5cc8249adc428c5f44c9063b9734b4",
      "to": "0x8aafd3ede9adb0ff97c7aebce82a919afb1c8764",
      "contractAddress": null
    }
  ],
  "libraries": [],
  "pending": [],
  "returns": {},
  "timestamp": 1737509953,
  "chain": 11155111,
  "commit": "1d2fb70"
}