{
  "transactions": [
    {
      "hash": "0x520716c0be25c47a7b2e06ba372c0d493bedfb1b90206627fa1a12a8d39b28df",
      "transactionType": "CALL",
      "contractName": null,
      "contractAddress": "0x8aafd3ede9adb0ff97c7aebce82a919afb1c8764",
      "function": "sell(uint256)",
      "arguments": [
        "705273876846565793767"
      ],
      "transaction": {
        "from": "0xc77f7fed3b5cc8249adc428c5f44c9063b9734b4",
        "to": "0x8aafd3ede9adb0ff97c7aebce82a919afb1c8764",
        "gas": "0x17270",
        "value": "0x0",
        "input": "0xe4849b320000000000000000000000000000000000000000000000263ba4264a72261fe7",
        "nonce": "0x10b9",
        "chainId": "0xaa36a7"
      },
      "additionalContracts": [],
      "isFixedGasLimit": false
    }
  ],
  "receipts": [
    {
      "status": "0x1",
      "cumulativeGasUsed": "0x84897b",
      "logs": [
        {
          "address": "0x8aafd3ede9adb0ff97c7aebce82a919afb1c8764",
          "topics": [
            "0xddf252ad1be2c89b69c2b068fc378daa952ba7f163c4a11628f55a4df523b3ef",
            "0x000000000000000000000000c77f7fed3b5cc8249adc428c5f44c9063b9734b4",
            "0x0000000000000000000000000000000000000000000000000000000000000000"
          ],
          "data": "0x000000000000000000000000000000000000000000000025ed570f74dbbb52d9",
          "blockHash": "0x8a51628da6956fbf5a356fbd0fd1223e70f6bcd0c8eb427cae279e02402b7f31",
          "blockNumber": "0x73174e",
          "transactionHash": "0x520716c0be25c47a7b2e06ba372c0d493bedfb1b90206627fa1a12a8d39b28df",
          "transactionIndex": "0x70",
          "logIndex": "0x84",
          "removed": false
        },
        {
          "address": "0x8aafd3ede9adb0ff97c7aebce82a919afb1c8764",
          "topics": [
            "0xddf252ad1be2c89b69c2b068fc378daa952ba7f163c4a11628f55a4df523b3ef",
            "0x000000000000000000000000c77f7fed3b5cc8249adc428c5f44c9063b9734b4",
            "0x000000000000000000000000c77f7fed3b5cc8249adc428c5f44c9063b9734b4"
          ],
          "data": "0x0000000000000000000000000000000000000000000000004e4d16d5966acd0e",
          "blockHash": "0x8a51628da6956fbf5a356fbd0fd1223e70f6bcd0c8eb427cae279e02402b7f31",
          "blockNumber": "0x73174e",
          "transactionHash": "0x520716c0be25c47a7b2e06ba372c0d493bedfb1b90206627fa1a12a8d39b28df",
          "transactionIndex": "0x70",
          "logIndex": "0x85",
          "removed": false
        },
        {
          "address": "0x8aafd3ede9adb0ff97c7aebce82a919afb1c8764",
          "topics": [
            "0x4afcb4a87cdbd9974efdb92ee48bc8d7cd0ae4bf217004db3d080cbaee652ca7"
          ],
          "data": "0x000000000000000000000000000000000000000000000000000000006790146c000000000000000000000000000000000000000000000000000501fbc06ff6190000000000000000000000000000000000000000000000000dc8fbb6a6603e54",
          "blockHash": "0x8a51628da6956fbf5a356fbd0fd1223e70f6bcd0c8eb427cae279e02402b7f31",
          "blockNumber": "0x73174e",
          "transactionHash": "0x520716c0be25c47a7b2e06ba372c0d493bedfb1b90206627fa1a12a8d39b28df",
          "transactionIndex": "0x70",
          "logIndex": "0x86",
          "removed": false
        }
      ],
      "logsBloom": "0x00000000000000000000000000000000000000000600000000000000000000000000000000000000000000000000000000000000000000004000000000000000000000000000004000000008000000000000000000000000000000000000000000000000020000000000000000000800020000000000000000000010000000000000000000000000000000000000000000000000000000000000010000000000000000000000000000000000000000004000000000000000000000000000000000000002000000800000000000000000000000000000080000000000000020000000000000000000000000000000000000000000000000000000000000000000",
      "type": "0x2",
      "transactionHash": "0x520716c0be25c47a7b2e06ba372c0d493bedfb1b90206627fa1a12a8d39b28df",
      "transactionIndex": "0x70",
      "blockHash": "0x8a51628da6956fbf5a356fbd0fd1223e70f6bcd0c8eb427cae279e02402b7f31",
      "blockNumber": "0x73174e",
      "gasUsed": "0xfd4b",
      "effectiveGasPrice": "0x42e1de67",
      "from": "0xc77f7fed3b5cc8249adc428c5f44c9063b9734b4",
      "to": "0x8aafd3ede9adb0ff97c7aebce82a919afb1c8764",
      "contractAddress": null
    }
  ],
  "libraries": [],
  "pending": [],
  "returns": {},
  "timestamp": 1737495662,
  "chain": 11155111,
  "commit": "1d2fb70"
}