{
  "transactions": [
    {
      "hash": "0x6b51eb2c3d2a6bc45f2aaa97046a37a80cb62af2df79fb2dcaaa325a80922e3e",
      "transactionType": "CALL",
      "contractName": null,
      "contractAddress": "0x270e88f8683660553e8ba4eb2ad7c91a1710d769",
      "function": "sell(uint256)",
      "arguments": [
        "745296962888710385583"
      ],
      "transaction": {
        "from": "0xc77f7fed3b5cc8249adc428c5f44c9063b9734b4",
        "to": "0x270e88f8683660553e8ba4eb2ad7c91a1710d769",
        "gas": "0x16fec",
        "value": "0x0",
        "input": "0xe4849b320000000000000000000000000000000000000000000000286712b6fea7126faf",
        "nonce": "0x700",
        "chainId": "0xaa36a7"
      },
      "additionalContracts": [],
      "isFixedGasLimit": false
    }
  ],
  "receipts": [
    {
      "status": "0x1",
      "cumulativeGasUsed": "0x151be65",
      "logs": [
        {
          "address": "0x270e88f8683660553e8ba4eb2ad7c91a1710d769",
          "topics": [
            "0xddf252ad1be2c89b69c2b068fc378daa952ba7f163c4a11628f55a4df523b3ef",
            "0x000000000000000000000000c77f7fed3b5cc8249adc428c5f44c9063b9734b4",
            "0x0000000000000000000000000000000000000000000000000000000000000000"
          ],
          "data": "0x0000000000000000000000000000000000000000000000286712b6fea7126faf",
          "blockHash": "0x86897b9bc5496288d09f68d2df1a2a8c35918b5767a12ba6622807169c49645a",
          "blockNumber": "0x725416",
          "transactionHash": "0x6b51eb2c3d2a6bc45f2aaa97046a37a80cb62af2df79fb2dcaaa325a80922e3e",
          "transactionIndex": "0x71",
          "logIndex": "0xa8",
          "removed": false
        },
        {
          "address": "0x270e88f8683660553e8ba4eb2ad7c91a1710d769",
          "topics": [
            "0x4afcb4a87cdbd9974efdb92ee48bc8d7cd0ae4bf217004db3d080cbaee652ca7"
          ],
          "data": "0x000000000000000000000000000000000000000000000000000000006786e3100000000000000000000000000000000000000000000000000004bc10f5480f280000000000000000000000000000000000000000000000000dc8290c4d32e137",
          "blockHash": "0x86897b9bc5496288d09f68d2df1a2a8c35918b5767a12ba6622807169c49645a",
          "blockNumber": "0x725416",
          "transactionHash": "0x6b51eb2c3d2a6bc45f2aaa97046a37a80cb62af2df79fb2dcaaa325a80922e3e",
          "transactionIndex": "0x71",
          "logIndex": "0xa9",
          "removed": false
        }
      ],
      "logsBloom": "0x00000000000000000000000000000000000000000000000000000000000000000000000000000000000000000000000020000000000000004000000000000000000000000000000000000008000000000000000000000000000000000000000000000000020000000000000000000800020000000000000000000010000000000000000000010000000000000000000000000000000000000000010000000000000000000000000000000000000000004000000000000000000000000000000000000002000000800000000000000000000000000000080000008000000020000000000000000000000000000000000000000000000000000000000000000000",
      "type": "0x2",
      "transactionHash": "0x6b51eb2c3d2a6bc45f2aaa97046a37a80cb62af2df79fb2dcaaa325a80922e3e",
      "transactionIndex": "0x71",
      "blockHash": "0x86897b9bc5496288d09f68d2df1a2a8c35918b5767a12ba6622807169c49645a",
      "blockNumber": "0x725416",
      "gasUsed": "0xfb93",
      "effectiveGasPrice": "0x131d8b0d3",
      "from": "0xc77f7fed3b5cc8249adc428c5f44c9063b9734b4",
      "to": "0x270e88f8683660553e8ba4eb2ad7c91a1710d769",
      "contractAddress": null
    }
  ],
  "libraries": [],
  "pending": [],
  "returns": {},
  "timestamp": 1736893202,
  "chain": 11155111,
  "commit": "51a374b"
}