{
  "transactions": [
    {
      "hash": "0xc7829beaf7cb9e0b7e487ef0dbfea20a3489a8928e56d9efbbac20e834620b98",
      "transactionType": "CALL",
      "contractName": null,
      "contractAddress": "0x8aafd3ede9adb0ff97c7aebce82a919afb1c8764",
      "function": "sell(uint256)",
      "arguments": [
        "173837760"
      ],
      "transaction": {
        "from": "0xc77f7fed3b5cc8249adc428c5f44c9063b9734b4",
        "to": "0x8aafd3ede9adb0ff97c7aebce82a919afb1c8764",
        "gas": "0x14e6c",
        "value": "0x0",
        "input": "0xe4849b32000000000000000000000000000000000000000000000000000000000a5c8dc0",
        "nonce": "0x12ef",
        "chainId": "0xaa36a7"
      },
      "additionalContracts": [],
      "isFixedGasLimit": false
    }
  ],
  "receipts": [
    {
      "status": "0x1",
      "cumulativeGasUsed": "0x8e4922",
      "logs": [
        {
          "address": "0x8aafd3ede9adb0ff97c7aebce82a919afb1c8764",
          "topics": [
            "0xddf252ad1be2c89b69c2b068fc378daa952ba7f163c4a11628f55a4df523b3ef",
            "0x000000000000000000000000c77f7fed3b5cc8249adc428c5f44c9063b9734b4",
            "0x0000000000000000000000000000000000000000000000000000000000000000"
          ],
          "data": "0x000000000000000000000000000000000000000000000000000000000a475552",
          "blockHash": "0x3048d9f512a6485c5ab716f232c7b8acb5ddb4a997469ee1d790a1f2c5d10a02",
          "blockNumber": "0x7319f4",
          "transactionHash": "0xc7829beaf7cb9e0b7e487ef0dbfea20a3489a8928e56d9efbbac20e834620b98",
          "transactionIndex": "0x65",
          "logIndex": "0x95",
          "removed": false
        },
        {
          "address": "0x8aafd3ede9adb0ff97c7aebce82a919afb1c8764",
          "topics": [
            "0xddf252ad1be2c89b69c2b068fc378daa952ba7f163c4a11628f55a4df523b3ef",
            "0x000000000000000000000000c77f7fed3b5cc8249adc428c5f44c9063b9734b4",
            "0x000000000000000000000000c77f7fed3b5cc8249adc428c5f44c9063b9734b4"
          ],
          "data": "0x000000000000000000000000000000000000000000000000000000000015386e",
          "blockHash": "0x3048d9f512a6485c5ab716f232c7b8acb5ddb4a997469ee1d790a1f2c5d10a02",
          "blockNumber": "0x7319f4",
          "transactionHash": "0xc7829beaf7cb9e0b7e487ef0dbfea20a3489a8928e56d9efbbac20e834620b98",
          "transactionIndex": "0x65",
          "logIndex": "0x96",
          "removed": false
        },
        {
          "address": "0x8aafd3ede9adb0ff97c7aebce82a919afb1c8764",
          "topics": [
            "0x4afcb4a87cdbd9974efdb92ee48bc8d7cd0ae4bf217004db3d080cbaee652ca7"
          ],
          "data": "0x00000000000000000000000000000000000000000000000000000000679034400000000000000000000000000000000000000000000000000005535b8e40e4b6000000000000000000000000000000000000000000000000000000000003f9eb",
          "blockHash": "0x3048d9f512a6485c5ab716f232c7b8acb5ddb4a997469ee1d790a1f2c5d10a02",
          "blockNumber": "0x7319f4",
          "transactionHash": "0xc7829beaf7cb9e0b7e487ef0dbfea20a3489a8928e56d9efbbac20e834620b98",
          "transactionIndex": "0x65",
          "logIndex": "0x97",
          "removed": false
        }
      ],
      "logsBloom": "0x00000000000000000000000000000000000000000600000000000000000000000000000000000000000000000000000000000000000000004000000000000000000000000000004000000008000000000000000000000000000000000000000000000000020000000000000000000800020000000000000000000010000000000000000000000000000000000000000000000000000000000000010000000000000000000000000000000000000000004000000000000000000000000000000000000002000000800000000000000000000000000000080000000000000020000000000000000000000000000000000000000000000000000000000000000000",
      "type": "0x2",
      "transactionHash": "0xc7829beaf7cb9e0b7e487ef0dbfea20a3489a8928e56d9efbbac20e834620b98",
      "transactionIndex": "0x65",
      "blockHash": "0x3048d9f512a6485c5ab716f232c7b8acb5ddb4a997469ee1d790a1f2c5d10a02",
      "blockNumber": "0x7319f4",
      "gasUsed": "0xf21f",
      "effectiveGasPrice": "0x3fa73286",
      "from": "0xc77f7fed3b5cc8249adc428c5f44c9063b9734b4",
      "to": "0x8aafd3ede9adb0ff97c7aebce82a919afb1c8764",
      "contractAddress": null
    }
  ],
  "libraries": [],
  "pending": [],
  "returns": {},
  "timestamp": 1737503809,
  "chain": 11155111,
  "commit": "1d2fb70"
}