{
  "transactions": [
    {
      "hash": "0x25799f7294d0b5c4cb2a099228c7c3ae2d95355de3129ddbe9d36cad264b279b",
      "transactionType": "CALL",
      "contractName": null,
      "contractAddress": "0x8aafd3ede9adb0ff97c7aebce82a919afb1c8764",
      "function": "buy(address)",
      "arguments": [
        "0xC77f7fed3b5Cc8249aDc428c5F44C9063B9734b4"
      ],
      "transaction": {
        "from": "0xc77f7fed3b5cc8249adc428c5f44c9063b9734b4",
        "to": "0x8aafd3ede9adb0ff97c7aebce82a919afb1c8764",
        "gas": "0x156ea",
        "value": "0xde0b6b3a7640000",
        "input": "0xf088d547000000000000000000000000c77f7fed3b5cc8249adc428c5f44c9063b9734b4",
        "nonce": "0x1321",
        "chainId": "0xaa36a7"
      },
      "additionalContracts": [],
      "isFixedGasLimit": false
    }
  ],
  "receipts": [
    {
      "status": "0x1",
      "cumulativeGasUsed": "0x9aa0f5",
      "logs": [
        {
          "address": "0x8aafd3ede9adb0ff97c7aebce82a919afb1c8764",
          "topics": [
            "0xddf252ad1be2c89b69c2b068fc378daa952ba7f163c4a11628f55a4df523b3ef",
            "0x0000000000000000000000000000000000000000000000000000000000000000",
            "0x000000000000000000000000c77f7fed3b5cc8249adc428c5f44c9063b9734b4"
          ],
          "data": "0x0000000000000000000000000000000000000000000000107e30c0baaae547c9",
          "blockHash": "0xf89c37d9010116cae05bf41eb98b7a92551933d311390a97d67f9175263ec221",
          "blockNumber": "0x731a2f",
          "transactionHash": "0x25799f7294d0b5c4cb2a099228c7c3ae2d95355de3129ddbe9d36cad264b279b",
          "transactionIndex": "0x9e",
          "logIndex": "0x9e",
          "removed": false
        },
        {
          "address": "0x8aafd3ede9adb0ff97c7aebce82a919afb1c8764",
          "topics": [
            "0xddf252ad1be2c89b69c2b068fc378daa952ba7f163c4a11628f55a4df523b3ef",
            "0x0000000000000000000000000000000000000000000000000000000000000000",
            "0x000000000000000000000000c77f7fed3b5cc8249adc428c5f44c9063b9734b4"
          ],
          "data": "0x0000000000000000000000000000000000000000000000000cceacc5f610f4c3",
          "blockHash": "0xf89c37d9010116cae05bf41eb98b7a92551933d311390a97d67f9175263ec221",
          "blockNumber": "0x731a2f",
          "transactionHash": "0x25799f7294d0b5c4cb2a099228c7c3ae2d95355de3129ddbe9d36cad264b279b",
          "transactionIndex": "0x9e",
          "logIndex": "0x9f",
          "removed": false
        },
        {
          "address": "0x8aafd3ede9adb0ff97c7aebce82a919afb1c8764",
          "topics": [
            "0x4afcb4a87cdbd9974efdb92ee48bc8d7cd0ae4bf217004db3d080cbaee652ca7"
          ],
          "data": "0x0000000000000000000000000000000000000000000000000000000067903704000000000000000000000000000000000000000000000000000b95680a88f3750000000000000000000000000000000000000000000000000de0b6b3a7640000",
          "blockHash": "0xf89c37d9010116cae05bf41eb98b7a92551933d311390a97d67f9175263ec221",
          "blockNumber": "0x731a2f",
          "transactionHash": "0x25799f7294d0b5c4cb2a099228c7c3ae2d95355de3129ddbe9d36cad264b279b",
          "transactionIndex": "0x9e",
          "logIndex": "0xa0",
          "removed": false
        }
      ],
      "logsBloom": "0x00000000000000000000000000000000000000000600000000000000000000000000000000000000000000000000000000000000000000004000000000000000000000000000004000000008000000000000000000000000000000000000000000000000020000000000000000000800020000000000000000000010000000000000000000000000000000000000000000000000000000000000010000000000000000000000000000000000000000004000000000000000000000000000000000000002000000800000000000000000000000000000080000000000000020000000000000000000000000000000000000000000000000000000000000000000",
      "type": "0x2",
      "transactionHash": "0x25799f7294d0b5c4cb2a099228c7c3ae2d95355de3129ddbe9d36cad264b279b",
      "transactionIndex": "0x9e",
      "blockHash": "0xf89c37d9010116cae05bf41eb98b7a92551933d311390a97d67f9175263ec221",
      "blockNumber": "0x731a2f",
      "gasUsed": "0xf844",
      "effectiveGasPrice": "0x45a9b9bd",
      "from": "0xc77f7fed3b5cc8249adc428c5f44c9063b9734b4",
      "to": "0x8aafd3ede9adb0ff97c7aebce82a919afb1c8764",
      "contractAddress": null
    }
  ],
  "libraries": [],
  "pending": [],
  "returns": {},
  "timestamp": 1737504518,
  "chain": 11155111,
  "commit": "1d2fb70"
}