{
  "transactions": [
    {
      "hash": "0x8f5bbc61c215aa47d3f61cce5213b87ead5f45c2984035eb48c553972f226ade",
      "transactionType": "CALL",
      "contractName": null,
      "contractAddress": "0x8aafd3ede9adb0ff97c7aebce82a919afb1c8764",
      "function": "sell(uint256)",
      "arguments": [
        "56113075"
      ],
      "transaction": {
        "from": "0xc77f7fed3b5cc8249adc428c5f44c9063b9734b4",
        "to": "0x8aafd3ede9adb0ff97c7aebce82a919afb1c8764",
        "gas": "0x15d88",
        "value": "0x0",
        "input": "0xe4849b3200000000000000000000000000000000000000000000000000000000035837b3",
        "nonce": "0x14d8",
        "chainId": "0xaa36a7"
      },
      "additionalContracts": [],
      "isFixedGasLimit": false
    }
  ],
  "receipts": [
    {
      "status": "0x1",
      "cumulativeGasUsed": "0x7ba064",
      "logs": [
        {
          "address": "0x8aafd3ede9adb0ff97c7aebce82a919afb1c8764",
          "topics": [
            "0xddf252ad1be2c89b69c2b068fc378daa952ba7f163c4a11628f55a4df523b3ef",
            "0x000000000000000000000000c77f7fed3b5cc8249adc428c5f44c9063b9734b4",
            "0x0000000000000000000000000000000000000000000000000000000000000000"
          ],
          "data": "0x0000000000000000000000000000000000000000000000000000000003515e2b",
          "blockHash": "0xa4d125ceca256c9f50038235fad50f1820b42b6d7ddd95f90f3735f397f10ef5",
          "blockNumber": "0x731c36",
          "transactionHash": "0x8f5bbc61c215aa47d3f61cce5213b87ead5f45c2984035eb48c553972f226ade",
          "transactionIndex": "0x59",
          "logIndex": "0x9a",
          "removed": false
        },
        {
          "address": "0x8aafd3ede9adb0ff97c7aebce82a919afb1c8764",
          "topics": [
            "0xddf252ad1be2c89b69c2b068fc378daa952ba7f163c4a11628f55a4df523b3ef",
            "0x000000000000000000000000c77f7fed3b5cc8249adc428c5f44c9063b9734b4",
            "0x000000000000000000000000c77f7fed3b5cc8249adc428c5f44c9063b9734b4"
          ],
          "data": "0x000000000000000000000000000000000000000000000000000000000006d988",
          "blockHash": "0xa4d125ceca256c9f50038235fad50f1820b42b6d7ddd95f90f3735f397f10ef5",
          "blockNumber": "0x731c36",
          "transactionHash": "0x8f5bbc61c215aa47d3f61cce5213b87ead5f45c2984035eb48c553972f226ade",
          "transactionIndex": "0x59",
          "logIndex": "0x9b",
          "removed": false
        },
        {
          "address": "0x8aafd3ede9adb0ff97c7aebce82a919afb1c8764",
          "topics": [
            "0x4afcb4a87cdbd9974efdb92ee48bc8d7cd0ae4bf217004db3d080cbaee652ca7"
          ],
          "data": "0x0000000000000000000000000000000000000000000000000000000067904f64000000000000000000000000000000000000000000000000001095ab204aa1aa000000000000000000000000000000000000000000000000000000000003ff38",
          "blockHash": "0xa4d125ceca256c9f50038235fad50f1820b42b6d7ddd95f90f3735f397f10ef5",
          "blockNumber": "0x731c36",
          "transactionHash": "0x8f5bbc61c215aa47d3f61cce5213b87ead5f45c2984035eb48c553972f226ade",
          "transactionIndex": "0x59",
          "logIndex": "0x9c",
          "removed": false
        }
      ],
      "logsBloom": "0x00000000000000000000000000000000000000000600000000000000000000000000000000000000000000000000000000000000000000004000000000000000000000000000004000000008000000000000000000000000000000000000000000000000020000000000000000000800020000000000000000000010000000000000000000000000000000000000000000000000000000000000010000000000000000000000000000000000000000004000000000000000000000000000000000000002000000800000000000000000000000000000080000000000000020000000000000000000000000000000000000000000000000000000000000000000",
      "type": "0x2",
      "transactionHash": "0x8f5bbc61c215aa47d3f61cce5213b87ead5f45c2984035eb48c553972f226ade",
      "transactionIndex": "0x59",
      "blockHash": "0xa4d125ceca256c9f50038235fad50f1820b42b6d7ddd95f90f3735f397f10ef5",
      "blockNumber": "0x731c36",
      "gasUsed": "0xfd0f",
      "effectiveGasPrice": "0x14a015264",
      "from": "0xc77f7fed3b5cc8249adc428c5f44c9063b9734b4",
      "to": "0x8aafd3ede9adb0ff97c7aebce82a919afb1c8764",
      "contractAddress": null
    }
  ],
  "libraries": [],
  "pending": [],
  "returns": {},
  "timestamp": 1737510757,
  "chain": 11155111,
  "commit": "1d2fb70"
}