{
  "transactions": [
    {
      "hash": "0x25175f05da382416551c12d0dfcc63d90d6410991e5f117e1ebb22d9b520a753",
      "transactionType": "CALL",
      "contractName": null,
      "contractAddress": "0xbf4a322f1496e5c3d34a9bcdb4c60567b38c7de2",
      "function": "buy(address)",
      "arguments": [
        "0xC77f7fed3b5Cc8249aDc428c5F44C9063B9734b4"
      ],
      "transaction": {
        "from": "0xc77f7fed3b5cc8249adc428c5f44c9063b9734b4",
        "to": "0xbf4a322f1496e5c3d34a9bcdb4c60567b38c7de2",
        "gas": "0x1b309",
        "value": "0xde0b6b3a7640000",
        "input": "0xf088d547000000000000000000000000c77f7fed3b5cc8249adc428c5f44c9063b9734b4",
        "nonce": "0xe1c",
        "chainId": "0xaa36a7"
      },
      "additionalContracts": [],
      "isFixedGasLimit": false
    }
  ],
  "receipts": [
    {
      "status": "0x1",
      "cumulativeGasUsed": "0x151df9d",
      "logs": [
        {
          "address": "0xbf4a322f1496e5c3d34a9bcdb4c60567b38c7de2",
          "topics": [
            "0xddf252ad1be2c89b69c2b068fc378daa952ba7f163c4a11628f55a4df523b3ef",
            "0x0000000000000000000000000000000000000000000000000000000000000000",
            "0x000000000000000000000000c77f7fed3b5cc8249adc428c5f44c9063b9734b4"
          ],
          "data": "0x00000000000000000000000000000000000000000000003497b9fd03c52c69e0",
          "blockHash": "0x82786b818c04c29aedc27e13438c7a59554510abf0e5838deae3eed2684005a9",
          "blockNumber": "0x726706",
          "transactionHash": "0x25175f05da382416551c12d0dfcc63d90d6410991e5f117e1ebb22d9b520a753",
          "transactionIndex": "0x88",
          "logIndex": "0x157",
          "removed": false
        },
        {
          "address": "0xbf4a322f1496e5c3d34a9bcdb4c60567b38c7de2",
          "topics": [
            "0xddf252ad1be2c89b69c2b068fc378daa952ba7f163c4a11628f55a4df523b3ef",
            "0x0000000000000000000000000000000000000000000000000000000000000000",
            "0x000000000000000000000000c77f7fed3b5cc8249adc428c5f44c9063b9734b4"
          ],
          "data": "0x00000000000000000000000000000000000000000000000028d70afa9957a471",
          "blockHash": "0x82786b818c04c29aedc27e13438c7a59554510abf0e5838deae3eed2684005a9",
          "blockNumber": "0x726706",
          "transactionHash": "0x25175f05da382416551c12d0dfcc63d90d6410991e5f117e1ebb22d9b520a753",
          "transactionIndex": "0x88",
          "logIndex": "0x158",
          "removed": false
        },
        {
          "address": "0xbf4a322f1496e5c3d34a9bcdb4c60567b38c7de2",
          "topics": [
            "0x4afcb4a87cdbd9974efdb92ee48bc8d7cd0ae4bf217004db3d080cbaee652ca7"
          ],
          "data": "0x000000000000000000000000000000000000000000000000000000006787c7b80000000000000000000000000000000000000000000000000003a0197f5df37e0000000000000000000000000000000000000000000000000de0b6b3a7640000",
          "blockHash": "0x82786b818c04c29aedc27e13438c7a59554510abf0e5838deae3eed2684005a9",
          "blockNumber": "0x726706",
          "transactionHash": "0x25175f05da382416551c12d0dfcc63d90d6410991e5f117e1ebb22d9b520a753",
          "transactionIndex": "0x88",
          "logIndex": "0x159",
          "removed": false
        }
      ],
      "logsBloom": "0x00000000000000000000000000000000000000000000000000000000000000000000000000000000000000000000000000000000000000004000000000000000000000000000000000000008000000000000001000000000000000000000000000000000020000000000000000000800020000000000000000000010000000000000000000000000000000000000000000000000000008000000010000000000000000000000000000000000000000004000000000000000000000000000000000000002000000800000000000001000000000000000080000000000000020000000000000000000000000000000000000000000000000000000000000000000",
      "type": "0x2",
      "transactionHash": "0x25175f05da382416551c12d0dfcc63d90d6410991e5f117e1ebb22d9b520a753",
      "transactionIndex": "0x88",
      "blockHash": "0x82786b818c04c29aedc27e13438c7a59554510abf0e5838deae3eed2684005a9",
      "blockNumber": "0x726706",
      "gasUsed": "0x13af6",
      "effectiveGasPrice": "0x38c0f398f",
      "from": "0xc77f7fed3b5cc8249adc428c5f44c9063b9734b4",
      "to": "0xbf4a322f1496e5c3d34a9bcdb4c60567b38c7de2",
      "contractAddress": null
    }
  ],
  "libraries": [],
  "pending": [],
  "returns": {},
  "timestamp": 1736951737,
  "chain": 11155111,
  "commit": "51a374b"
}