{
  "transactions": [
    {
      "hash": "0xc089fd3f2028147c65c3ddbdeadc7a55f69770347c382f69c9739e4bada983d3",
      "transactionType": "CALL",
      "contractName": null,
      "contractAddress": "0x8aafd3ede9adb0ff97c7aebce82a919afb1c8764",
      "function": "sell(uint256)",
      "arguments": [
        "5414895488108677882"
      ],
      "transaction": {
        "from": "0xc77f7fed3b5cc8249adc428c5f44c9063b9734b4",
        "to": "0x8aafd3ede9adb0ff97c7aebce82a919afb1c8764",
        "gas": "0x15dca",
        "value": "0x0",
        "input": "0xe4849b320000000000000000000000000000000000000000000000004b2592c1d0954afa",
        "nonce": "0x122c",
        "chainId": "0xaa36a7"
      },
      "additionalContracts": [],
      "isFixedGasLimit": false
    }
  ],
  "receipts": [
    {
      "status": "0x1",
      "cumulativeGasUsed": "0xa8a136",
      "logs": [
        {
          "address": "0x8aafd3ede9adb0ff97c7aebce82a919afb1c8764",
          "topics": [
            "0xddf252ad1be2c89b69c2b068fc378daa952ba7f163c4a11628f55a4df523b3ef",
            "0x000000000000000000000000c77f7fed3b5cc8249adc428c5f44c9063b9734b4",
            "0x0000000000000000000000000000000000000000000000000000000000000000"
          ],
          "data": "0x0000000000000000000000000000000000000000000000004a8bac35001106cb",
          "blockHash": "0x3d29dd266013058e723717018ab4b456825e22344b9cac82ecae26225337c822",
          "blockNumber": "0x73190a",
          "transactionHash": "0xc089fd3f2028147c65c3ddbdeadc7a55f69770347c382f69c9739e4bada983d3",
          "transactionIndex": "0x80",
          "logIndex": "0x9a",
          "removed": false
        },
        {
          "address": "0x8aafd3ede9adb0ff97c7aebce82a919afb1c8764",
          "topics": [
            "0xddf252ad1be2c89b69c2b068fc378daa952ba7f163c4a11628f55a4df523b3ef",
            "0x000000000000000000000000c77f7fed3b5cc8249adc428c5f44c9063b9734b4",
            "0x000000000000000000000000c77f7fed3b5cc8249adc428c5f44c9063b9734b4"
          ],
          "data": "0x0000000000000000000000000000000000000000000000000099e68cd084442f",
          "blockHash": "0x3d29dd266013058e723717018ab4b456825e22344b9cac82ecae26225337c822",
          "blockNumber": "0x73190a",
          "transactionHash": "0xc089fd3f2028147c65c3ddbdeadc7a55f69770347c382f69c9739e4bada983d3",
          "transactionIndex": "0x80",
          "logIndex": "0x9b",
          "removed": false
        },
        {
          "address": "0x8aafd3ede9adb0ff97c7aebce82a919afb1c8764",
          "topics": [
            "0x4afcb4a87cdbd9974efdb92ee48bc8d7cd0ae4bf217004db3d080cbaee652ca7"
          ],
          "data": "0x0000000000000000000000000000000000000000000000000000000067902948000000000000000000000000000000000000000000000000000537be8cc24110000000000000000000000000000000000000000000000000001c40df00b2c66c",
          "blockHash": "0x3d29dd266013058e723717018ab4b456825e22344b9cac82ecae26225337c822",
          "blockNumber": "0x73190a",
          "transactionHash": "0xc089fd3f2028147c65c3ddbdeadc7a55f69770347c382f69c9739e4bada983d3",
          "transactionIndex": "0x80",
          "logIndex": "0x9c",
          "removed": false
        }
      ],
      "logsBloom": "0x00000000000000000000000000000000000000000600000000000000000000000000000000000000000000000000000000000000000000004000000000000000000000000000004000000008000000000000000000000000000000000000000000000000020000000000000000000800020000000000000000000010000000000000000000000000000000000000000000000000000000000000010000000000000000000000000000000000000000004000000000000000000000000000000000000002000000800000000000000000000000000000080000000000000020000000000000000000000000000000000000000000000000000000000000000000",
      "type": "0x2",
      "transactionHash": "0xc089fd3f2028147c65c3ddbdeadc7a55f69770347c382f69c9739e4bada983d3",
      "transactionIndex": "0x80",
      "blockHash": "0x3d29dd266013058e723717018ab4b456825e22344b9cac82ecae26225337c822",
      "blockNumber": "0x73190a",
      "gasUsed": "0xfd3f",
      "effectiveGasPrice": "0x579e4105",
      "from": "0xc77f7fed3b5cc8249adc428c5f44c9063b9734b4",
      "to": "0x8aafd3ede9adb0ff97c7aebce82a919afb1c8764",
      "contractAddress": null
    }
  ],
  "libraries": [],
  "pending": [],
  "returns": {},
  "timestamp": 1737501001,
  "chain": 11155111,
  "commit": "1d2fb70"
}