{
  "transactions": [
    {
      "hash": "0xd1f3afa35af9a88cc2f869f6fc74bb71358d19f294951770aa51033516bde49e",
      "transactionType": "CALL",
      "contractName": null,
      "contractAddress": "0x5eb9cc76c3506942c1c0ead70e877dd5e4f00cb0",
      "function": "buy(address)",
      "arguments": [
        "0xC77f7fed3b5Cc8249aDc428c5F44C9063B9734b4"
      ],
      "transaction": {
        "from": "0xc77f7fed3b5cc8249adc428c5f44c9063b9734b4",
        "to": "0x5eb9cc76c3506942c1c0ead70e877dd5e4f00cb0",
        "gas": "0x1b30c",
        "value": "0xde0b6b3a7640000",
        "input": "0xf088d547000000000000000000000000c77f7fed3b5cc8249adc428c5f44c9063b9734b4",
        "nonce": "0x3ae",
        "chainId": "0xaa36a7"
      },
      "additionalContracts": [],
      "isFixedGasLimit": false
    }
  ],
  "receipts": [
    {
      "status": "0x1",
      "cumulativeGasUsed": "0xacdea7",
      "logs": [
        {
          "address": "0x5eb9cc76c3506942c1c0ead70e877dd5e4f00cb0",
          "topics": [
            "0xddf252ad1be2c89b69c2b068fc378daa952ba7f163c4a11628f55a4df523b3ef",
            "0x0000000000000000000000000000000000000000000000000000000000000000",
            "0x000000000000000000000000c77f7fed3b5cc8249adc428c5f44c9063b9734b4"
          ],
          "data": "0x000000000000000000000000000000000000000000000035753080fb386683df",
          "blockHash": "0xc802523438288da0c111793d1c79e36568ab4d4ae0568e6d6e1021eb227a3f63",
          "blockNumber": "0x724fad",
          "transactionHash": "0xd1f3afa35af9a88cc2f869f6fc74bb71358d19f294951770aa51033516bde49e",
          "transactionIndex": "0x5d",
          "logIndex": "0x75",
          "removed": false
        },
        {
          "address": "0x5eb9cc76c3506942c1c0ead70e877dd5e4f00cb0",
          "topics": [
            "0xddf252ad1be2c89b69c2b068fc378daa952ba7f163c4a11628f55a4df523b3ef",
            "0x0000000000000000000000000000000000000000000000000000000000000000",
            "0x000000000000000000000000c77f7fed3b5cc8249adc428c5f44c9063b9734b4"
          ],
          "data": "0x000000000000000000000000000000000000000000000000298304343b103cd8",
          "blockHash": "0xc802523438288da0c111793d1c79e36568ab4d4ae0568e6d6e1021eb227a3f63",
          "blockNumber": "0x724fad",
          "transactionHash": "0xd1f3afa35af9a88cc2f869f6fc74bb71358d19f294951770aa51033516bde49e",
          "transactionIndex": "0x5d",
          "logIndex": "0x76",
          "removed": false
        },
        {
          "address": "0x5eb9cc76c3506942c1c0ead70e877dd5e4f00cb0",
          "topics": [
            "0x4afcb4a87cdbd9974efdb92ee48bc8d7cd0ae4bf217004db3d080cbaee652ca7"
          ],
          "data": "0x000000000000000000000000000000000000000000000000000000006786addc0000000000000000000000000000000000000000000000000003911256091b9d0000000000000000000000000000000000000000000000000de0b6b3a7640000",
          "blockHash": "0xc802523438288da0c111793d1c79e36568ab4d4ae0568e6d6e1021eb227a3f63",
          "blockNumber": "0x724fad",
          "transactionHash": "0xd1f3afa35af9a88cc2f869f6fc74bb71358d19f294951770aa51033516bde49e",
          "transactionIndex": "0x5d",
          "logIndex": "0x77",
          "removed": false
        }
      ],
      "logsBloom": "0x00000000000000000000000000000000000000000000000000000000000000000000000000000000000000000000000000000000000000004000000000000000000000000000000000000008000000000000000000000000000000000000000000000000020000000000000004000800020000000000000000000010000000000000000000000000000000000000000000000000000000000000010000000000000000000000000000000000000000004000000000000000000000000000020000000002000000800000008000000000000000000000080000000000000020000000000000000000000000000000000000000000000000000000000000000000",
      "type": "0x2",
      "transactionHash": "0xd1f3afa35af9a88cc2f869f6fc74bb71358d19f294951770aa51033516bde49e",
      "transactionIndex": "0x5d",
      "blockHash": "0xc802523438288da0c111793d1c79e36568ab4d4ae0568e6d6e1021eb227a3f63",
      "blockNumber": "0x724fad",
      "gasUsed": "0x13af8",
      "effectiveGasPrice": "0x4e2b87792",
      "from": "0xc77f7fed3b5cc8249adc428c5f44c9063b9734b4",
      "to": "0x5eb9cc76c3506942c1c0ead70e877dd5e4f00cb0",
      "contractAddress": null
    }
  ],
  "libraries": [],
  "pending": [],
  "returns": {},
  "timestamp": 1736879580,
  "chain": 11155111,
  "commit": "51a374b"
}