{
  "transactions": [
    {
      "hash": "0xf5817ddde29e3cdfa28a99385a68d2e21d395eeea501040567b9fe78eba36071",
      "transactionType": "CALL",
      "contractName": null,
      "contractAddress": "0x8aafd3ede9adb0ff97c7aebce82a919afb1c8764",
      "function": "sell(uint256)",
      "arguments": [
        "1485807"
      ],
      "transaction": {
        "from": "0xc77f7fed3b5cc8249adc428c5f44c9063b9734b4",
        "to": "0x8aafd3ede9adb0ff97c7aebce82a919afb1c8764",
        "gas": "0x16208",
        "value": "0x0",
        "input": "0xe4849b32000000000000000000000000000000000000000000000000000000000016abef",
        "nonce": "0x1098",
        "chainId": "0xaa36a7"
      },
      "additionalContracts": [],
      "isFixedGasLimit": false
    }
  ],
  "receipts": [
    {
      "status": "0x1",
      "cumulativeGasUsed": "0xe16c27",
      "logs": [
        {
          "address": "0x8aafd3ede9adb0ff97c7aebce82a919afb1c8764",
          "topics": [
            "0xddf252ad1be2c89b69c2b068fc378daa952ba7f163c4a11628f55a4df523b3ef",
            "0x000000000000000000000000c77f7fed3b5cc8249adc428c5f44c9063b9734b4",
            "0x0000000000000000000000000000000000000000000000000000000000000000"
          ],
          "data": "0x0000000000000000000000000000000000000000000000000000000000167d81",
          "blockHash": "0x0a9390d213d8f6ef708bbe90be4e1aa68eca6402f4f297fdde0c4eb4ce1e27f9",
          "blockNumber": "0x731728",
          "transactionHash": "0xf5817ddde29e3cdfa28a99385a68d2e21d395eeea501040567b9fe78eba36071",
          "transactionIndex": "0x83",
          "logIndex": "0x9f",
          "removed": false
        },
        {
          "address": "0x8aafd3ede9adb0ff97c7aebce82a919afb1c8764",
          "topics": [
            "0xddf252ad1be2c89b69c2b068fc378daa952ba7f163c4a11628f55a4df523b3ef",
            "0x000000000000000000000000c77f7fed3b5cc8249adc428c5f44c9063b9734b4",
            "0x000000000000000000000000c77f7fed3b5cc8249adc428c5f44c9063b9734b4"
          ],
          "data": "0x0000000000000000000000000000000000000000000000000000000000002e6e",
          "blockHash": "0x0a9390d213d8f6ef708bbe90be4e1aa68eca6402f4f297fdde0c4eb4ce1e27f9",
          "blockNumber": "0x731728",
          "transactionHash": "0xf5817ddde29e3cdfa28a99385a68d2e21d395eeea501040567b9fe78eba36071",
          "transactionIndex": "0x83",
          "logIndex": "0xa0",
          "removed": false
        },
        {
          "address": "0x8aafd3ede9adb0ff97c7aebce82a919afb1c8764",
          "topics": [
            "0x4afcb4a87cdbd9974efdb92ee48bc8d7cd0ae4bf217004db3d080cbaee652ca7"
          ],
          "data": "0x00000000000000000000000000000000000000000000000000000000679012a40000000000000000000000000000000000000000000000000004fc2eaec8738b0000000000000000000000000000000000000000000000000000000000000824",
          "blockHash": "0x0a9390d213d8f6ef708bbe90be4e1aa68eca6402f4f297fdde0c4eb4ce1e27f9",
          "blockNumber": "0x731728",
          "transactionHash": "0xf5817ddde29e3cdfa28a99385a68d2e21d395eeea501040567b9fe78eba36071",
          "transactionIndex": "0x83",
          "logIndex": "0xa1",
          "removed": false
        }
      ],
      "logsBloom": "0x00000000000000000000000000000000000000000600000000000000000000000000000000000000000000000000000000000000000000004000000000000000000000000000004000000008000000000000000000000000000000000000000000000000020000000000000000000800020000000000000000000010000000000000000000000000000000000000000000000000000000000000010000000000000000000000000000000000000000004000000000000000000000000000000000000002000000800000000000000000000000000000080000000000000020000000000000000000000000000000000000000000000000000000000000000000",
      "type": "0x2",
      "transactionHash": "0xf5817ddde29e3cdfa28a99385a68d2e21d395eeea501040567b9fe78eba36071",
      "transactionIndex": "0x83",
      "blockHash": "0x0a9390d213d8f6ef708bbe90be4e1aa68eca6402f4f297fdde0c4eb4ce1e27f9",
      "blockNumber": "0x731728",
      "gasUsed": "0xf213",
      "effectiveGasPrice": "0x4288c8cc",
      "from": "0xc77f7fed3b5cc8249adc428c5f44c9063b9734b4",
      "to": "0x8aafd3ede9adb0ff97c7aebce82a919afb1c8764",
      "contractAddress": null
    }
  ],
  "libraries": [],
  "pending": [],
  "returns": {},
  "timestamp": 1737495206,
  "chain": 11155111,
  "commit": "1d2fb70"
}