{
  "transactions": [
    {
      "hash": "0xda230b2ea11b8ef14d5932cfe9a3445f2345bd1f4a294e2e32f2d13e320b5a9d",
      "transactionType": "CALL",
      "contractName": null,
      "contractAddress": "0x8aafd3ede9adb0ff97c7aebce82a919afb1c8764",
      "function": "sell(uint256)",
      "arguments": [
        "23564713230"
      ],
      "transaction": {
        "from": "0xc77f7fed3b5cc8249adc428c5f44c9063b9734b4",
        "to": "0x8aafd3ede9adb0ff97c7aebce82a919afb1c8764",
        "gas": "0x1722a",
        "value": "0x0",
        "input": "0xe4849b32000000000000000000000000000000000000000000000000000000057c90fd0e",
        "nonce": "0x1014",
        "chainId": "0xaa36a7"
      },
      "additionalContracts": [],
      "isFixedGasLimit": false
    }
  ],
  "receipts": [
    {
      "status": "0x1",
      "cumulativeGasUsed": "0x119e7f4",
      "logs": [
        {
          "address": "0x8aafd3ede9adb0ff97c7aebce82a919afb1c8764",
          "topics": [
            "0xddf252ad1be2c89b69c2b068fc378daa952ba7f163c4a11628f55a4df523b3ef",
            "0x000000000000000000000000c77f7fed3b5cc8249adc428c5f44c9063b9734b4",
            "0x0000000000000000000000000000000000000000000000000000000000000000"
          ],
          "data": "0x0000000000000000000000000000000000000000000000000000000571546fc5",
          "blockHash": "0xd9a086b1a284f21bc5555f9718d00b502f72abf21da274e626e3a856c6f9f2b8",
          "blockNumber": "0x73168c",
          "transactionHash": "0xda230b2ea11b8ef14d5932cfe9a3445f2345bd1f4a294e2e32f2d13e320b5a9d",
          "transactionIndex": "0xb9",
          "logIndex": "0x112",
          "removed": false
        },
        {
          "address": "0x8aafd3ede9adb0ff97c7aebce82a919afb1c8764",
          "topics": [
            "0xddf252ad1be2c89b69c2b068fc378daa952ba7f163c4a11628f55a4df523b3ef",
            "0x000000000000000000000000c77f7fed3b5cc8249adc428c5f44c9063b9734b4",
            "0x000000000000000000000000c77f7fed3b5cc8249adc428c5f44c9063b9734b4"
          ],
          "data": "0x000000000000000000000000000000000000000000000000000000000b3c8d49",
          "blockHash": "0xd9a086b1a284f21bc5555f9718d00b502f72abf21da274e626e3a856c6f9f2b8",
          "blockNumber": "0x73168c",
          "transactionHash": "0xda230b2ea11b8ef14d5932cfe9a3445f2345bd1f4a294e2e32f2d13e320b5a9d",
          "transactionIndex": "0xb9",
          "logIndex": "0x113",
          "removed": false
        },
        {
          "address": "0x8aafd3ede9adb0ff97c7aebce82a919afb1c8764",
          "topics": [
            "0x4afcb4a87cdbd9974efdb92ee48bc8d7cd0ae4bf217004db3d080cbaee652ca7"
          ],
          "data": "0x0000000000000000000000000000000000000000000000000000000067900b3c0000000000000000000000000000000000000000000000000004e94ddd75a0b80000000000000000000000000000000000000000000000000000000001f11357",
          "blockHash": "0xd9a086b1a284f21bc5555f9718d00b502f72abf21da274e626e3a856c6f9f2b8",
          "blockNumber": "0x73168c",
          "transactionHash": "0xda230b2ea11b8ef14d5932cfe9a3445f2345bd1f4a294e2e32f2d13e320b5a9d",
          "transactionIndex": "0xb9",
          "logIndex": "0x114",
          "removed": false
        }
      ],
      "logsBloom": "0x00000000000000000000000000000000000000000600000000000000000000000000000000000000000000000000000000000000000000004000000000000000000000000000004000000008000000000000000000000000000000000000000000000000020000000000000000000800020000000000000000000010000000000000000000000000000000000000000000000000000000000000010000000000000000000000000000000000000000004000000000000000000000000000000000000002000000800000000000000000000000000000080000000000000020000000000000000000000000000000000000000000000000000000000000000000",
      "type": "0x2",
      "transactionHash": "0xda230b2ea11b8ef14d5932cfe9a3445f2345bd1f4a294e2e32f2d13e320b5a9d",
      "transactionIndex": "0xb9",
      "blockHash": "0xd9a086b1a284f21bc5555f9718d00b502f72abf21da274e626e3a856c6f9f2b8",
      "blockNumber": "0x73168c",
      "gasUsed": "0xfd1b",
      "effectiveGasPrice": "0x38150462",
      "from": "0xc77f7fed3b5cc8249adc428c5f44c9063b9734b4",
      "to": "0x8aafd3ede9adb0ff97c7aebce82a919afb1c8764",
      "contractAddress": null
    }
  ],
  "libraries": [],
  "pending": [],
  "returns": {},
  "timestamp": 1737493309,
  "chain": 11155111,
  "commit": "1d2fb70"
}