{
  "transactions": [
    {
      "hash": "0xa915b3a95c4cda2819cbddc527129480d824ea264d8b4db0c24f4a352f4978f3",
      "transactionType": "CALL",
      "contractName": null,
      "contractAddress": "0x8aafd3ede9adb0ff97c7aebce82a919afb1c8764",
      "function": "sell(uint256)",
      "arguments": [
        "935412163631"
      ],
      "transaction": {
        "from": "0xc77f7fed3b5cc8249adc428c5f44c9063b9734b4",
        "to": "0x8aafd3ede9adb0ff97c7aebce82a919afb1c8764",
        "gas": "0x1722a",
        "value": "0x0",
        "input": "0xe4849b32000000000000000000000000000000000000000000000000000000d9cae8e42f",
        "nonce": "0x147c",
        "chainId": "0xaa36a7"
      },
      "additionalContracts": [],
      "isFixedGasLimit": false
    }
  ],
  "receipts": [
    {
      "status": "0x1",
      "cumulativeGasUsed": "0x12fd157",
      "logs": [
        {
          "address": "0x8aafd3ede9adb0ff97c7aebce82a919afb1c8764",
          "topics": [
            "0xddf252ad1be2c89b69c2b068fc378daa952ba7f163c4a11628f55a4df523b3ef",
            "0x000000000000000000000000c77f7fed3b5cc8249adc428c5f44c9063b9734b4",
            "0x0000000000000000000000000000000000000000000000000000000000000000"
          ],
          "data": "0x000000000000000000000000000000000000000000000000000000d80cded612",
          "blockHash": "0x031260c91f3df8daed7a2ef7dbe66cdd4ff0a5eefbf66e3e459799afdf2e1591",
          "blockNumber": "0x731bc9",
          "transactionHash": "0xa915b3a95c4cda2819cbddc527129480d824ea264d8b4db0c24f4a352f4978f3",
          "transactionIndex": "0x9c",
          "logIndex": "0x104",
          "removed": false
        },
        {
          "address": "0x8aafd3ede9adb0ff97c7aebce82a919afb1c8764",
          "topics": [
            "0xddf252ad1be2c89b69c2b068fc378daa952ba7f163c4a11628f55a4df523b3ef",
            "0x000000000000000000000000c77f7fed3b5cc8249adc428c5f44c9063b9734b4",
            "0x000000000000000000000000c77f7fed3b5cc8249adc428c5f44c9063b9734b4"
          ],
          "data": "0x00000000000000000000000000000000000000000000000000000001be0a0e1d",
          "blockHash": "0x031260c91f3df8daed7a2ef7dbe66cdd4ff0a5eefbf66e3e459799afdf2e1591",
          "blockNumber": "0x731bc9",
          "transactionHash": "0xa915b3a95c4cda2819cbddc527129480d824ea264d8b4db0c24f4a352f4978f3",
          "transactionIndex": "0x9c",
          "logIndex": "0x105",
          "removed": false
        },
        {
          "address": "0x8aafd3ede9adb0ff97c7aebce82a919afb1c8764",
          "topics": [
            "0x4afcb4a87cdbd9974efdb92ee48bc8d7cd0ae4bf217004db3d080cbaee652ca7"
          ],
          "data": "0x0000000000000000000000000000000000000000000000000000000067904a48000000000000000000000000000000000000000000000000000f8d0e346104f400000000000000000000000000000000000000000000000000000000f40d23cc",
          "blockHash": "0x031260c91f3df8daed7a2ef7dbe66cdd4ff0a5eefbf66e3e459799afdf2e1591",
          "blockNumber": "0x731bc9",
          "transactionHash": "0xa915b3a95c4cda2819cbddc527129480d824ea264d8b4db0c24f4a352f4978f3",
          "transactionIndex": "0x9c",
          "logIndex": "0x106",
          "removed": false
        }
      ],
      "logsBloom": "0x00000000000000000000000000000000000000000600000000000000000000000000000000000000000000000000000000000000000000004000000000000000000000000000004000000008000000000000000000000000000000000000000000000000020000000000000000000800020000000000000000000010000000000000000000000000000000000000000000000000000000000000010000000000000000000000000000000000000000004000000000000000000000000000000000000002000000800000000000000000000000000000080000000000000020000000000000000000000000000000000000000000000000000000000000000000",
      "type": "0x2",
      "transactionHash": "0xa915b3a95c4cda2819cbddc527129480d824ea264d8b4db0c24f4a352f4978f3",
      "transactionIndex": "0x9c",
      "blockHash": "0x031260c91f3df8daed7a2ef7dbe66cdd4ff0a5eefbf66e3e459799afdf2e1591",
      "blockNumber": "0x731bc9",
      "gasUsed": "0xfd1b",
      "effectiveGasPrice": "0x101d555e8",
      "from": "0xc77f7fed3b5cc8249adc428c5f44c9063b9734b4",
      "to": "0x8aafd3ede9adb0ff97c7aebce82a919afb1c8764",
      "contractAddress": null
    }
  ],
  "libraries": [],
  "pending": [],
  "returns": {},
  "timestamp": 1737509449,
  "chain": 11155111,
  "commit": "1d2fb70"
}