{
  "transactions": [
    {
      "hash": "0xd3a906ca0f9e7aa531223843f6ee86530208a8b539d922d9698f89cb74c05af4",
      "transactionType": "CALL",
      "contractName": null,
      "contractAddress": "0x5eb9cc76c3506942c1c0ead70e877dd5e4f00cb0",
      "function": "sell(uint256)",
      "arguments": [
        "989610138615269780026"
      ],
      "transaction": {
        "from": "0xc77f7fed3b5cc8249adc428c5f44c9063b9734b4",
        "to": "0x5eb9cc76c3506942c1c0ead70e877dd5e4f00cb0",
        "gas": "0x16fec",
        "value": "0x0",
        "input": "0xe4849b32000000000000000000000000000000000000000000000035a59979e4303b6a3a",
        "nonce": "0x271",
        "chainId": "0xaa36a7"
      },
      "additionalContracts": [],
      "isFixedGasLimit": false
    }
  ],
  "receipts": [
    {
      "status": "0x1",
      "cumulativeGasUsed": "0x15255fc",
      "logs": [
        {
          "address": "0x5eb9cc76c3506942c1c0ead70e877dd5e4f00cb0",
          "topics": [
            "0xddf252ad1be2c89b69c2b068fc378daa952ba7f163c4a11628f55a4df523b3ef",
            "0x000000000000000000000000c77f7fed3b5cc8249adc428c5f44c9063b9734b4",
            "0x0000000000000000000000000000000000000000000000000000000000000000"
          ],
          "data": "0x000000000000000000000000000000000000000000000035a59979e4303b6a3a",
          "blockHash": "0xda902f0c313cecbbc819ac0368d220f7b5d862498d0ca38b0ad5dfbf3a9c7802",
          "blockNumber": "0x724e38",
          "transactionHash": "0xd3a906ca0f9e7aa531223843f6ee86530208a8b539d922d9698f89cb74c05af4",
          "transactionIndex": "0x73",
          "logIndex": "0xb5",
          "removed": false
        },
        {
          "address": "0x5eb9cc76c3506942c1c0ead70e877dd5e4f00cb0",
          "topics": [
            "0x4afcb4a87cdbd9974efdb92ee48bc8d7cd0ae4bf217004db3d080cbaee652ca7"
          ],
          "data": "0x0000000000000000000000000000000000000000000000000000000067869c540000000000000000000000000000000000000000000000000003909cf885fc5f0000000000000000000000000000000000000000000000000dc7db118372b29c",
          "blockHash": "0xda902f0c313cecbbc819ac0368d220f7b5d862498d0ca38b0ad5dfbf3a9c7802",
          "blockNumber": "0x724e38",
          "transactionHash": "0xd3a906ca0f9e7aa531223843f6ee86530208a8b539d922d9698f89cb74c05af4",
          "transactionIndex": "0x73",
          "logIndex": "0xb6",
          "removed": false
        }
      ],
      "logsBloom": "0x00000000000000000000000000000000000000000000000000000000000000000000000000000000000000000000000000000000000000004000000000000000000000000000000000000008000000000000000000000000000000000000000000000000020000000000000004000800020000000000000000000010000000000000000000000000000000000000000000000000000000000000010000000000000000000000000000000000000000004000000000000000000000000000020000000002000000800000008000000000000000000000080000000000000020000000000000000000000000000000000000000000000000000000000000000000",
      "type": "0x2",
      "transactionHash": "0xd3a906ca0f9e7aa531223843f6ee86530208a8b539d922d9698f89cb74c05af4",
      "transactionIndex": "0x73",
      "blockHash": "0xda902f0c313cecbbc819ac0368d220f7b5d862498d0ca38b0ad5dfbf3a9c7802",
      "blockNumber": "0x724e38",
      "gasUsed": "0xfb93",
      "effectiveGasPrice": "0x32599877d",
      "from": "0xc77f7fed3b5cc8249adc428c5f44c9063b9734b4",
      "to": "0x5eb9cc76c3506942c1c0ead70e877dd5e4f00cb0",
      "contractAddress": null
    }
  ],
  "libraries": [],
  "pending": [],
  "returns": {},
  "timestamp": 1736875094,
  "chain": 11155111,
  "commit": "51a374b"
}