{
  "transactions": [
    {
      "hash": "0x4593b1a157f2420704106df7f1f64f4f8e510f14572cd8eb8539fa87b84a2262",
      "transactionType": "CALL",
      "contractName": null,
      "contractAddress": "0x8aafd3ede9adb0ff97c7aebce82a919afb1c8764",
      "function": "sell(uint256)",
      "arguments": [
        "50686611"
      ],
      "transaction": {
        "from": "0xc77f7fed3b5cc8249adc428c5f44c9063b9734b4",
        "to": "0x8aafd3ede9adb0ff97c7aebce82a919afb1c8764",
        "gas": "0x15d88",
        "value": "0x0",
        "input": "0xe4849b320000000000000000000000000000000000000000000000000000000003056a93",
        "nonce": "0x1571",
        "chainId": "0xaa36a7"
      },
      "additionalContracts": [],
      "isFixedGasLimit": false
    }
  ],
  "receipts": [
    {
      "status": "0x1",
      "cumulativeGasUsed": "0x96c7eb",
      "logs": [
        {
          "address": "0x8aafd3ede9adb0ff97c7aebce82a919afb1c8764",
          "topics": [
            "0xddf252ad1be2c89b69c2b068fc378daa952ba7f163c4a11628f55a4df523b3ef",
            "0x000000000000000000000000c77f7fed3b5cc8249adc428c5f44c9063b9734b4",
            "0x0000000000000000000000000000000000000000000000000000000000000000"
          ],
          "data": "0x0000000000000000000000000000000000000000000000000000000002ff3a9f",
          "blockHash": "0x3598633dfaa35d2ed01db1f4e3880521f258b0c781aa8ae0b3b458fb27830a4f",
          "blockNumber": "0x731cda",
          "transactionHash": "0x4593b1a157f2420704106df7f1f64f4f8e510f14572cd8eb8539fa87b84a2262",
          "transactionIndex": "0x77",
          "logIndex": "0x9a",
          "removed": false
        },
        {
          "address": "0x8aafd3ede9adb0ff97c7aebce82a919afb1c8764",
          "topics": [
            "0xddf252ad1be2c89b69c2b068fc378daa952ba7f163c4a11628f55a4df523b3ef",
            "0x000000000000000000000000c77f7fed3b5cc8249adc428c5f44c9063b9734b4",
            "0x000000000000000000000000c77f7fed3b5cc8249adc428c5f44c9063b9734b4"
          ],
          "data": "0x0000000000000000000000000000000000000000000000000000000000062ff4",
          "blockHash": "0x3598633dfaa35d2ed01db1f4e3880521f258b0c781aa8ae0b3b458fb27830a4f",
          "blockNumber": "0x731cda",
          "transactionHash": "0x4593b1a157f2420704106df7f1f64f4f8e510f14572cd8eb8539fa87b84a2262",
          "transactionIndex": "0x77",
          "logIndex": "0x9b",
          "removed": false
        },
        {
          "address": "0x8aafd3ede9adb0ff97c7aebce82a919afb1c8764",
          "topics": [
            "0x4afcb4a87cdbd9974efdb92ee48bc8d7cd0ae4bf217004db3d080cbaee652ca7"
          ],
          "data": "0x000000000000000000000000000000000000000000000000000000006790572000000000000000000000000000000000000000000000000000125982489dc4cd000000000000000000000000000000000000000000000000000000000003fea2",
          "blockHash": "0x3598633dfaa35d2ed01db1f4e3880521f258b0c781aa8ae0b3b458fb27830a4f",
          "blockNumber": "0x731cda",
          "transactionHash": "0x4593b1a157f2420704106df7f1f64f4f8e510f14572cd8eb8539fa87b84a2262",
          "transactionIndex": "0x77",
          "logIndex": "0x9c",
          "removed": false
        }
      ],
      "logsBloom": "0x00000000000000000000000000000000000000000600000000000000000000000000000000000000000000000000000000000000000000004000000000000000000000000000004000000008000000000000000000000000000000000000000000000000020000000000000000000800020000000000000000000010000000000000000000000000000000000000000000000000000000000000010000000000000000000000000000000000000000004000000000000000000000000000000000000002000000800000000000000000000000000000080000000000000020000000000000000000000000000000000000000000000000000000000000000000",
      "type": "0x2",
      "transactionHash": "0x4593b1a157f2420704106df7f1f64f4f8e510f14572cd8eb8539fa87b84a2262",
      "transactionIndex": "0x77",
      "blockHash": "0x3598633dfaa35d2ed01db1f4e3880521f258b0c781aa8ae0b3b458fb27830a4f",
      "blockNumber": "0x731cda",
      "gasUsed": "0xfd0f",
      "effectiveGasPrice": "0x79184bf2",
      "from": "0xc77f7fed3b5cc8249adc428c5f44c9063b9734b4",
      "to": "0x8aafd3ede9adb0ff97c7aebce82a919afb1c8764",
      "contractAddress": null
    }
  ],
  "libraries": [],
  "pending": [],
  "returns": {},
  "timestamp": 1737512738,
  "chain": 11155111,
  "commit": "1d2fb70"
}