{
  "transactions": [
    {
      "hash": "0xd25dee256595a1fc69cc50c58446d3ef6cd199e852f54e85a99038e145366653",
      "transactionType": "CALL",
      "contractName": null,
      "contractAddress": "0x8aafd3ede9adb0ff97c7aebce82a919afb1c8764",
      "function": "sell(uint256)",
      "arguments": [
        "379384167176626"
      ],
      "transaction": {
        "from": "0xc77f7fed3b5cc8249adc428c5f44c9063b9734b4",
        "to": "0x8aafd3ede9adb0ff97c7aebce82a919afb1c8764",
        "gas": "0x1724d",
        "value": "0x0",
        "input": "0xe4849b320000000000000000000000000000000000000000000000000001590c428499b2",
        "nonce": "0xf9c",
        "chainId": "0xaa36a7"
      },
      "additionalContracts": [],
      "isFixedGasLimit": false
    }
  ],
  "receipts": [
    {
      "status": "0x1",
      "cumulativeGasUsed": "0x9dd89c",
      "logs": [
        {
          "address": "0x8aafd3ede9adb0ff97c7aebce82a919afb1c8764",
          "topics": [
            "0xddf252ad1be2c89b69c2b068fc378daa952ba7f163c4a11628f55a4df523b3ef",
            "0x000000000000000000000000c77f7fed3b5cc8249adc428c5f44c9063b9734b4",
            "0x0000000000000000000000000000000000000000000000000000000000000000"
          ],
          "data": "0x000000000000000000000000000000000000000000000000000156499a0cc16d",
          "blockHash": "0x3f82eb19fa9fc94e1e318109b739dfc4bda5bda94f73128501e0d4b7d10be1e1",
          "blockNumber": "0x731602",
          "transactionHash": "0xd25dee256595a1fc69cc50c58446d3ef6cd199e852f54e85a99038e145366653",
          "transactionIndex": "0x6c",
          "logIndex": "0x53",
          "removed": false
        },
        {
          "address": "0x8aafd3ede9adb0ff97c7aebce82a919afb1c8764",
          "topics": [
            "0xddf252ad1be2c89b69c2b068fc378daa952ba7f163c4a11628f55a4df523b3ef",
            "0x000000000000000000000000c77f7fed3b5cc8249adc428c5f44c9063b9734b4",
            "0x000000000000000000000000c77f7fed3b5cc8249adc428c5f44c9063b9734b4"
          ],
          "data": "0x000000000000000000000000000000000000000000000000000002c2a877d845",
          "blockHash": "0x3f82eb19fa9fc94e1e318109b739dfc4bda5bda94f73128501e0d4b7d10be1e1",
          "blockNumber": "0x731602",
          "transactionHash": "0xd25dee256595a1fc69cc50c58446d3ef6cd199e852f54e85a99038e145366653",
          "transactionIndex": "0x6c",
          "logIndex": "0x54",
          "removed": false
        },
        {
          "address": "0x8aafd3ede9adb0ff97c7aebce82a919afb1c8764",
          "topics": [
            "0x4afcb4a87cdbd9974efdb92ee48bc8d7cd0ae4bf217004db3d080cbaee652ca7"
          ],
          "data": "0x00000000000000000000000000000000000000000000000000000000679004c40000000000000000000000000000000000000000000000000004c3273f4e3816000000000000000000000000000000000000000000000000000000766833272e",
          "blockHash": "0x3f82eb19fa9fc94e1e318109b739dfc4bda5bda94f73128501e0d4b7d10be1e1",
          "blockNumber": "0x731602",
          "transactionHash": "0xd25dee256595a1fc69cc50c58446d3ef6cd199e852f54e85a99038e145366653",
          "transactionIndex": "0x6c",
          "logIndex": "0x55",
          "removed": false
        }
      ],
      "logsBloom": "0x00000000000000000000000000000000000000000600000000000000000000000000000000000000000000000000000000000000000000004000000000000000000000000000004000000008000000000000000000000000000000000000000000000000020000000000000000000800020000000000000000000010000000000000000000000000000000000000000000000000000000000000010000000000000000000000000000000000000000004000000000000000000000000000000000000002000000800000000000000000000000000000080000000000000020000000000000000000000000000000000000000000000000000000000000000000",
      "type": "0x2",
      "transactionHash": "0xd25dee256595a1fc69cc50c58446d3ef6cd199e852f54e85a99038e145366653",
      "transactionIndex": "0x6c",
      "blockHash": "0x3f82eb19fa9fc94e1e318109b739dfc4bda5bda94f73128501e0d4b7d10be1e1",
      "blockNumber": "0x731602",
      "gasUsed": "0xfd33",
      "effectiveGasPrice": "0x66506b0e",
      "from": "0xc77f7fed3b5cc8249adc428c5f44c9063b9734b4",
      "to": "0x8aafd3ede9adb0ff97c7aebce82a919afb1c8764",
      "contractAddress": null
    }
  ],
  "libraries": [],
  "pending": [],
  "returns": {},
  "timestamp": 1737491653,
  "chain": 11155111,
  "commit": "1d2fb70"
}