{
  "transactions": [
    {
      "hash": "0x7c34b347c3c5641bb5635896665048a869bcd6ddae06b809b208fcdd05d47b0c",
      "transactionType": "CALL",
      "contractName": null,
      "contractAddress": "0x8aafd3ede9adb0ff97c7aebce82a919afb1c8764",
      "function": "sell(uint256)",
      "arguments": [
        "1691185209366254072"
      ],
      "transaction": {
        "from": "0xc77f7fed3b5cc8249adc428c5f44c9063b9734b4",
        "to": "0x8aafd3ede9adb0ff97c7aebce82a919afb1c8764",
        "gas": "0x15dca",
        "value": "0x0",
        "input": "0xe4849b3200000000000000000000000000000000000000000000000017784bfcd5ab91f8",
        "nonce": "0x14e5",
        "chainId": "0xaa36a7"
      },
      "additionalContracts": [],
      "isFixedGasLimit": false
    }
  ],
  "receipts": [
    {
      "status": "0x1",
      "cumulativeGasUsed": "0x114bb8e",
      "logs": [
        {
          "address": "0x8aafd3ede9adb0ff97c7aebce82a919afb1c8764",
          "topics": [
            "0xddf252ad1be2c89b69c2b068fc378daa952ba7f163c4a11628f55a4df523b3ef",
            "0x000000000000000000000000c77f7fed3b5cc8249adc428c5f44c9063b9734b4",
            "0x0000000000000000000000000000000000000000000000000000000000000000"
          ],
          "data": "0x00000000000000000000000000000000000000000000000017483afee870da88",
          "blockHash": "0xc925b794a9ea6c15f3acad573b1081a561a2b1f603cf4be7ecbd30d82ce2ed8c",
          "blockNumber": "0x731c43",
          "transactionHash": "0x7c34b347c3c5641bb5635896665048a869bcd6ddae06b809b208fcdd05d47b0c",
          "transactionIndex": "0x7d",
          "logIndex": "0xab",
          "removed": false
        },
        {
          "address": "0x8aafd3ede9adb0ff97c7aebce82a919afb1c8764",
          "topics": [
            "0xddf252ad1be2c89b69c2b068fc378daa952ba7f163c4a11628f55a4df523b3ef",
            "0x000000000000000000000000c77f7fed3b5cc8249adc428c5f44c9063b9734b4",
            "0x000000000000000000000000c77f7fed3b5cc8249adc428c5f44c9063b9734b4"
          ],
          "data": "0x000000000000000000000000000000000000000000000000003010fded3ab770",
          "blockHash": "0xc925b794a9ea6c15f3acad573b1081a561a2b1f603cf4be7ecbd30d82ce2ed8c",
          "blockNumber": "0x731c43",
          "transactionHash": "0x7c34b347c3c5641bb5635896665048a869bcd6ddae06b809b208fcdd05d47b0c",
          "transactionIndex": "0x7d",
          "logIndex": "0xac",
          "removed": false
        },
        {
          "address": "0x8aafd3ede9adb0ff97c7aebce82a919afb1c8764",
          "topics": [
            "0x4afcb4a87cdbd9974efdb92ee48bc8d7cd0ae4bf217004db3d080cbaee652ca7"
          ],
          "data": "0x00000000000000000000000000000000000000000000000000000000679050000000000000000000000000000000000000000000000000000010cab2ff131a19000000000000000000000000000000000000000000000000001c65a02a18a798",
          "blockHash": "0xc925b794a9ea6c15f3acad573b1081a561a2b1f603cf4be7ecbd30d82ce2ed8c",
          "blockNumber": "0x731c43",
          "transactionHash": "0x7c34b347c3c5641bb5635896665048a869bcd6ddae06b809b208fcdd05d47b0c",
          "transactionIndex": "0x7d",
          "logIndex": "0xad",
          "removed": false
        }
      ],
      "logsBloom": "0x00000000000000000000000000000000000000000600000000000000000000000000000000000000000000000000000000000000000000004000000000000000000000000000004000000008000000000000000000000000000000000000000000000000020000000000000000000800020000000000000000000010000000000000000000000000000000000000000000000000000000000000010000000000000000000000000000000000000000004000000000000000000000000000000000000002000000800000000000000000000000000000080000000000000020000000000000000000000000000000000000000000000000000000000000000000",
      "type": "0x2",
      "transactionHash": "0x7c34b347c3c5641bb5635896665048a869bcd6ddae06b809b208fcdd05d47b0c",
      "transactionIndex": "0x7d",
      "blockHash": "0xc925b794a9ea6c15f3acad573b1081a561a2b1f603cf4be7ecbd30d82ce2ed8c",
      "blockNumber": "0x731c43",
      "gasUsed": "0xfd3f",
      "effectiveGasPrice": "0x150789421",
      "from": "0xc77f7fed3b5cc8249adc428c5f44c9063b9734b4",
      "to": "0x8aafd3ede9adb0ff97c7aebce82a919afb1c8764",
      "contractAddress": null
    }
  ],
  "libraries": [],
  "pending": [],
  "returns": {},
  "timestamp": 1737510913,
  "chain": 11155111,
  "commit": "1d2fb70"
}