{
  "transactions": [
    {
      "hash": "0x88bd37e312b33c2d61b88793d3a5580f3e6ec229e8eee02890236bc2dc5897c2",
      "transactionType": "CALL",
      "contractName": null,
      "contractAddress": "0x8aafd3ede9adb0ff97c7aebce82a919afb1c8764",
      "function": "buy(address)",
      "arguments": [
        "0xC77f7fed3b5Cc8249aDc428c5F44C9063B9734b4"
      ],
      "transaction": {
        "from": "0xc77f7fed3b5cc8249adc428c5f44c9063b9734b4",
        "to": "0x8aafd3ede9adb0ff97c7aebce82a919afb1c8764",
        "gas": "0x156ea",
        "value": "0xde0b6b3a7640000",
        "input": "0xf088d547000000000000000000000000c77f7fed3b5cc8249adc428c5f44c9063b9734b4",
        "nonce": "0x1723",
        "chainId": "0xaa36a7"
      },
      "additionalContracts": [],
      "isFixedGasLimit": false
    }
  ],
  "receipts": [
    {
      "status": "0x1",
      "cumulativeGasUsed": "0x8c5d59",
      "logs": [
        {
          "address": "0x8aafd3ede9adb0ff97c7aebce82a919afb1c8764",
          "topics": [
            "0xddf252ad1be2c89b69c2b068fc378daa952ba7f163c4a11628f55a4df523b3ef",
            "0x0000000000000000000000000000000000000000000000000000000000000000",
            "0x000000000000000000000000c77f7fed3b5cc8249adc428c5f44c9063b9734b4"
          ],
          "data": "0x0000000000000000000000000000000000000000000000082814593a9356c6b8",
          "blockHash": "0x7c7269b4bb5675eee48fb9baf85891b86bafb3d2327319d21c6f81d0e19ff0d2",
          "blockNumber": "0x731eea",
          "transactionHash": "0x88bd37e312b33c2d61b88793d3a5580f3e6ec229e8eee02890236bc2dc5897c2",
          "transactionIndex": "0x57",
          "logIndex": "0xa8",
          "removed": false
        },
        {
          "address": "0x8aafd3ede9adb0ff97c7aebce82a919afb1c8764",
          "topics": [
            "0xddf252ad1be2c89b69c2b068fc378daa952ba7f163c4a11628f55a4df523b3ef",
            "0x0000000000000000000000000000000000000000000000000000000000000000",
            "0x000000000000000000000000c77f7fed3b5cc8249adc428c5f44c9063b9734b4"
          ],
          "data": "0x00000000000000000000000000000000000000000000000006557706a967bc84",
          "blockHash": "0x7c7269b4bb5675eee48fb9baf85891b86bafb3d2327319d21c6f81d0e19ff0d2",
          "blockNumber": "0x731eea",
          "transactionHash": "0x88bd37e312b33c2d61b88793d3a5580f3e6ec229e8eee02890236bc2dc5897c2",
          "transactionIndex": "0x57",
          "logIndex": "0xa9",
          "removed": false
        },
        {
          "address": "0x8aafd3ede9adb0ff97c7aebce82a919afb1c8764",
          "topics": [
            "0x4afcb4a87cdbd9974efdb92ee48bc8d7cd0ae4bf217004db3d080cbaee652ca7"
          ],
          "data": "0x0000000000000000000000000000000000000000000000000000000067906fe000000000000000000000000000000000000000000000000000176721f26272600000000000000000000000000000000000000000000000000de0b6b3a7640000",
          "blockHash": "0x7c7269b4bb5675eee48fb9baf85891b86bafb3d2327319d21c6f81d0e19ff0d2",
          "blockNumber": "0x731eea",
          "transactionHash": "0x88bd37e312b33c2d61b88793d3a5580f3e6ec229e8eee02890236bc2dc5897c2",
          "transactionIndex": "0x57",
          "logIndex": "0xaa",
          "removed": false
        }
      ],
      "logsBloom": "0x00000000000000000000000000000000000000000600000000000000000000000000000000000000000000000000000000000000000000004000000000000000000000000000004000000008000000000000000000000000000000000000000000000000020000000000000000000800020000000000000000000010000000000000000000000000000000000000000000000000000000000000010000000000000000000000000000000000000000004000000000000000000000000000000000000002000000800000000000000000000000000000080000000000000020000000000000000000000000000000000000000000000000000000000000000000",
      "type": "0x2",
      "transactionHash": "0x88bd37e312b33c2d61b88793d3a5580f3e6ec229e8eee02890236bc2dc5897c2",
      "transactionIndex": "0x57",
      "blockHash": "0x7c7269b4bb5675eee48fb9baf85891b86bafb3d2327319d21c6f81d0e19ff0d2",
      "blockNumber": "0x731eea",
      "gasUsed": "0xf844",
      "effectiveGasPrice": "0x4addcfdc",
      "from": "0xc77f7fed3b5cc8249adc428c5f44c9063b9734b4",
      "to": "0x8aafd3ede9adb0ff97c7aebce82a919afb1c8764",
      "contractAddress": null
    }
  ],
  "libraries": [],
  "pending": [],
  "returns": {},
  "timestamp": 1737519073,
  "chain": 11155111,
  "commit": "1d2fb70"
}