{
  "transactions": [
    {
      "hash": "0x986b0dc6692749236cbe2379390a13b44ef16ede665022a3ff5668d71aee0009",
      "transactionType": "CALL",
      "contractName": null,
      "contractAddress": "0x270e88f8683660553e8ba4eb2ad7c91a1710d769",
      "function": "sell(uint256)",
      "arguments": [
        "758871478284262974158"
      ],
      "transaction": {
        "from": "0xc77f7fed3b5cc8249adc428c5f44c9063b9734b4",
        "to": "0x270e88f8683660553e8ba4eb2ad7c91a1710d769",
        "gas": "0x16fec",
        "value": "0x0",
        "input": "0xe4849b32000000000000000000000000000000000000000000000029237514d37d0e22ce",
        "nonce": "0x66c",
        "chainId": "0xaa36a7"
      },
      "additionalContracts": [],
      "isFixedGasLimit": false
    }
  ],
  "receipts": [
    {
      "status": "0x1",
      "cumulativeGasUsed": "0x7848da",
      "logs": [
        {
          "address": "0x270e88f8683660553e8ba4eb2ad7c91a1710d769",
          "topics": [
            "0xddf252ad1be2c89b69c2b068fc378daa952ba7f163c4a11628f55a4df523b3ef",
            "0x000000000000000000000000c77f7fed3b5cc8249adc428c5f44c9063b9734b4",
            "0x0000000000000000000000000000000000000000000000000000000000000000"
          ],
          "data": "0x000000000000000000000000000000000000000000000029237514d37d0e22ce",
          "blockHash": "0x24abcb8f41a1856eba5600acd13f9b7e7dd27dffa1819a69ed7488a9d20fd2c5",
          "blockNumber": "0x725365",
          "transactionHash": "0x986b0dc6692749236cbe2379390a13b44ef16ede665022a3ff5668d71aee0009",
          "transactionIndex": "0x4c",
          "logIndex": "0x82",
          "removed": false
        },
        {
          "address": "0x270e88f8683660553e8ba4eb2ad7c91a1710d769",
          "topics": [
            "0x4afcb4a87cdbd9974efdb92ee48bc8d7cd0ae4bf217004db3d080cbaee652ca7"
          ],
          "data": "0x000000000000000000000000000000000000000000000000000000006786dac40000000000000000000000000000000000000000000000000004a663ead7b7a20000000000000000000000000000000000000000000000000dc82a73ce80f3c9",
          "blockHash": "0x24abcb8f41a1856eba5600acd13f9b7e7dd27dffa1819a69ed7488a9d20fd2c5",
          "blockNumber": "0x725365",
          "transactionHash": "0x986b0dc6692749236cbe2379390a13b44ef16ede665022a3ff5668d71aee0009",
          "transactionIndex": "0x4c",
          "logIndex": "0x83",
          "removed": false
        }
      ],
      "logsBloom": "0x00000000000000000000000000000000000000000000000000000000000000000000000000000000000000000000000020000000000000004000000000000000000000000000000000000008000000000000000000000000000000000000000000000000020000000000000000000800020000000000000000000010000000000000000000010000000000000000000000000000000000000000010000000000000000000000000000000000000000004000000000000000000000000000000000000002000000800000000000000000000000000000080000008000000020000000000000000000000000000000000000000000000000000000000000000000",
      "type": "0x2",
      "transactionHash": "0x986b0dc6692749236cbe2379390a13b44ef16ede665022a3ff5668d71aee0009",
      "transactionIndex": "0x4c",
      "blockHash": "0x24abcb8f41a1856eba5600acd13f9b7e7dd27dffa1819a69ed7488a9d20fd2c5",
      "blockNumber": "0x725365",
      "gasUsed": "0xfb93",
      "effectiveGasPrice": "0x2c7579fbe",
      "from": "0xc77f7fed3b5cc8249adc428c5f44c9063b9734b4",
      "to": "0x270e88f8683660553e8ba4eb2ad7c91a1710d769",
      "contractAddress": null
    }
  ],
  "libraries": [],
  "pending": [],
  "returns": {},
  "timestamp": 1736891077,
  "chain": 11155111,
  "commit": "51a374b"
}