{
  "transactions": [
    {
      "hash": "0x8861d14bce245e2bcb90d6f25227e4b7af72286a6be82ad1ac2bdc3af652535b",
      "transactionType": "CALL",
      "contractName": null,
      "contractAddress": "0x8aafd3ede9adb0ff97c7aebce82a919afb1c8764",
      "function": "sell(uint256)",
      "arguments": [
        "1553121"
      ],
      "transaction": {
        "from": "0xc77f7fed3b5cc8249adc428c5f44c9063b9734b4",
        "to": "0x8aafd3ede9adb0ff97c7aebce82a919afb1c8764",
        "gas": "0x16208",
        "value": "0x0",
        "input": "0xe4849b32000000000000000000000000000000000000000000000000000000000017b2e1",
        "nonce": "0xfb4",
        "chainId": "0xaa36a7"
      },
      "additionalContracts": [],
      "isFixedGasLimit": false
    }
  ],
  "receipts": [
    {
      "status": "0x1",
      "cumulativeGasUsed": "0xe41103",
      "logs": [
        {
          "address": "0x8aafd3ede9adb0ff97c7aebce82a919afb1c8764",
          "topics": [
            "0xddf252ad1be2c89b69c2b068fc378daa952ba7f163c4a11628f55a4df523b3ef",
            "0x000000000000000000000000c77f7fed3b5cc8249adc428c5f44c9063b9734b4",
            "0x0000000000000000000000000000000000000000000000000000000000000000"
          ],
          "data": "0x0000000000000000000000000000000000000000000000000000000000178259",
          "blockHash": "0xbd13a6ed2dd46e0a3a0e957444ef2f579811a0120c59bd822883afff88f05308",
          "blockNumber": "0x73161f",
          "transactionHash": "0x8861d14bce245e2bcb90d6f25227e4b7af72286a6be82ad1ac2bdc3af652535b",
          "transactionIndex": "0x7e",
          "logIndex": "0xd3",
          "removed": false
        },
        {
          "address": "0x8aafd3ede9adb0ff97c7aebce82a919afb1c8764",
          "topics": [
            "0xddf252ad1be2c89b69c2b068fc378daa952ba7f163c4a11628f55a4df523b3ef",
            "0x000000000000000000000000c77f7fed3b5cc8249adc428c5f44c9063b9734b4",
            "0x000000000000000000000000c77f7fed3b5cc8249adc428c5f44c9063b9734b4"
          ],
          "data": "0x0000000000000000000000000000000000000000000000000000000000003088",
          "blockHash": "0xbd13a6ed2dd46e0a3a0e957444ef2f579811a0120c59bd822883afff88f05308",
          "blockNumber": "0x73161f",
          "transactionHash": "0x8861d14bce245e2bcb90d6f25227e4b7af72286a6be82ad1ac2bdc3af652535b",
          "transactionIndex": "0x7e",
          "logIndex": "0xd4",
          "removed": false
        },
        {
          "address": "0x8aafd3ede9adb0ff97c7aebce82a919afb1c8764",
          "topics": [
            "0x4afcb4a87cdbd9974efdb92ee48bc8d7cd0ae4bf217004db3d080cbaee652ca7"
          ],
          "data": "0x00000000000000000000000000000000000000000000000000000000679006200000000000000000000000000000000000000000000000000004c3cf240dae220000000000000000000000000000000000000000000000000000000000000823",
          "blockHash": "0xbd13a6ed2dd46e0a3a0e957444ef2f579811a0120c59bd822883afff88f05308",
          "blockNumber": "0x73161f",
          "transactionHash": "0x8861d14bce245e2bcb90d6f25227e4b7af72286a6be82ad1ac2bdc3af652535b",
          "transactionIndex": "0x7e",
          "logIndex": "0xd5",
          "removed": false
        }
      ],
      "logsBloom": "0x00000000000000000000000000000000000000000600000000000000000000000000000000000000000000000000000000000000000000004000000000000000000000000000004000000008000000000000000000000000000000000000000000000000020000000000000000000800020000000000000000000010000000000000000000000000000000000000000000000000000000000000010000000000000000000000000000000000000000004000000000000000000000000000000000000002000000800000000000000000000000000000080000000000000020000000000000000000000000000000000000000000000000000000000000000000",
      "type": "0x2",
      "transactionHash": "0x8861d14bce245e2bcb90d6f25227e4b7af72286a6be82ad1ac2bdc3af652535b",
      "transactionIndex": "0x7e",
      "blockHash": "0xbd13a6ed2dd46e0a3a0e957444ef2f579811a0120c59bd822883afff88f05308",
      "blockNumber": "0x73161f",
      "gasUsed": "0xf213",
      "effectiveGasPrice": "0x61428fa8",
      "from": "0xc77f7fed3b5cc8249adc428c5f44c9063b9734b4",
      "to": "0x8aafd3ede9adb0ff97c7aebce82a919afb1c8764",
      "contractAddress": null
    }
  ],
  "libraries": [],
  "pending": [],
  "returns": {},
  "timestamp": 1737492002,
  "chain": 11155111,
  "commit": "1d2fb70"
}