{
  "transactions": [
    {
      "hash": "0x3aa99c0e6805d00b55f5b0c02476c0e22aeb5b6bef10a40f58ab46133552e6dd",
      "transactionType": "CALL",
      "contractName": null,
      "contractAddress": "0xd7bc75898e513accccf720a874d44dab5a4b6223",
      "function": "buy(address)",
      "arguments": [
        "0xC77f7fed3b5Cc8249aDc428c5F44C9063B9734b4"
      ],
      "transaction": {
        "from": "0xc77f7fed3b5cc8249adc428c5f44c9063b9734b4",
        "to": "0xd7bc75898e513accccf720a874d44dab5a4b6223",
        "gas": "0x1b30c",
        "value": "0x2386f26fc10000",
        "input": "0xf088d547000000000000000000000000c77f7fed3b5cc8249adc428c5f44c9063b9734b4",
        "nonce": "0x8e",
        "chainId": "0xaa36a7"
      },
      "additionalContracts": [],
      "isFixedGasLimit": false
    }
  ],
  "receipts": [
    {
      "status": "0x1",
      "cumulativeGasUsed": "0xa7a97d",
      "logs": [
        {
          "address": "0xd7bc75898e513accccf720a874d44dab5a4b6223",
          "topics": [
            "0xddf252ad1be2c89b69c2b068fc378daa952ba7f163c4a11628f55a4df523b3ef",
            "0x0000000000000000000000000000000000000000000000000000000000000000",
            "0x000000000000000000000000c77f7fed3b5cc8249adc428c5f44c9063b9734b4"
          ],
          "data": "0x0000000000000000000000000000000000000000000000008963bc1db0d897fe",
          "blockHash": "0x3487873d760237d83bd8fdbc353d95ad2a5b2cc1f07ce20be0cfac5342349bd2",
          "blockNumber": "0x7238fe",
          "transactionHash": "0x3aa99c0e6805d00b55f5b0c02476c0e22aeb5b6bef10a40f58ab46133552e6dd",
          "transactionIndex": "0x5e",
          "logIndex": "0x98",
          "removed": false
        },
        {
          "address": "0xd7bc75898e513accccf720a874d44dab5a4b6223",
          "topics": [
            "0xddf252ad1be2c89b69c2b068fc378daa952ba7f163c4a11628f55a4df523b3ef",
            "0x0000000000000000000000000000000000000000000000000000000000000000",
            "0x000000000000000000000000c77f7fed3b5cc8249adc428c5f44c9063b9734b4"
          ],
          "data": "0x000000000000000000000000000000000000000000000000006ab00d4294a61c",
          "blockHash": "0x3487873d760237d83bd8fdbc353d95ad2a5b2cc1f07ce20be0cfac5342349bd2",
          "blockNumber": "0x7238fe",
          "transactionHash": "0x3aa99c0e6805d00b55f5b0c02476c0e22aeb5b6bef10a40f58ab46133552e6dd",
          "transactionIndex": "0x5e",
          "logIndex": "0x99",
          "removed": false
        },
        {
          "address": "0xd7bc75898e513accccf720a874d44dab5a4b6223",
          "topics": [
            "0x4afcb4a87cdbd9974efdb92ee48bc8d7cd0ae4bf217004db3d080cbaee652ca7"
          ],
          "data": "0x0000000000000000000000000000000000000000000000000000000067859d3000000000000000000000000000000000000000000000000000038d7f8227ec75000000000000000000000000000000000000000000000000002386f26fc10000",
          "blockHash": "0x3487873d760237d83bd8fdbc353d95ad2a5b2cc1f07ce20be0cfac5342349bd2",
          "blockNumber": "0x7238fe",
          "transactionHash": "0x3aa99c0e6805d00b55f5b0c02476c0e22aeb5b6bef10a40f58ab46133552e6dd",
          "transactionIndex": "0x5e",
          "logIndex": "0x9a",
          "removed": false
        }
      ],
      "logsBloom": "0x00000000000000000000000000000000000000000000000000000000000000000000000000000000000000000000000000000000000000004000000000000000000000000000000000000008000000000000000000000000000000000000000000000000020000000000000000000800020000000000000000000010000000000000000000000000000000000000000000000000000000000000010000000000000000000000000000000000000000004000001000000000000000000000000000000002000000800000000000004000000000000000080000000000000020000000000000000000000000000000000000000000080000000000000000000000",
      "type": "0x2",
      "transactionHash": "0x3aa99c0e6805d00b55f5b0c02476c0e22aeb5b6bef10a40f58ab46133552e6dd",
      "transactionIndex": "0x5e",
      "blockHash": "0x3487873d760237d83bd8fdbc353d95ad2a5b2cc1f07ce20be0cfac5342349bd2",
      "blockNumber": "0x7238fe",
      "gasUsed": "0x13af8",
      "effectiveGasPrice": "0xc552ed",
      "from": "0xc77f7fed3b5cc8249adc428c5f44c9063b9734b4",
      "to": "0xd7bc75898e513accccf720a874d44dab5a4b6223",
      "contractAddress": null
    }
  ],
  "libraries": [],
  "pending": [],
  "returns": {},
  "timestamp": 1736809776,
  "chain": 11155111,
  "commit": "51a374b"
}