{
  "transactions": [
    {
      "hash": "0x06dc93d54580b805e4c0009a990d7c28f991c3716590650adba4c9301589cb11",
      "transactionType": "CALL",
      "contractName": null,
      "contractAddress": "0x5eb9cc76c3506942c1c0ead70e877dd5e4f00cb0",
      "function": "sell(uint256)",
      "arguments": [
        "989078646191473738570"
      ],
      "transaction": {
        "from": "0xc77f7fed3b5cc8249adc428c5f44c9063b9734b4",
        "to": "0x5eb9cc76c3506942c1c0ead70e877dd5e4f00cb0",
        "gas": "0x16fec",
        "value": "0x0",
        "input": "0xe4849b320000000000000000000000000000000000000000000000359e393c590f0ec34a",
        "nonce": "0x487",
        "chainId": "0xaa36a7"
      },
      "additionalContracts": [],
      "isFixedGasLimit": false
    }
  ],
  "receipts": [
    {
      "status": "0x1",
      "cumulativeGasUsed": "0xb78df2",
      "logs": [
        {
          "address": "0x5eb9cc76c3506942c1c0ead70e877dd5e4f00cb0",
          "topics": [
            "0xddf252ad1be2c89b69c2b068fc378daa952ba7f163c4a11628f55a4df523b3ef",
            "0x000000000000000000000000c77f7fed3b5cc8249adc428c5f44c9063b9734b4",
            "0x0000000000000000000000000000000000000000000000000000000000000000"
          ],
          "data": "0x0000000000000000000000000000000000000000000000359e393c590f0ec34a",
          "blockHash": "0x89ec5074e092da3c8cf554ebe88183da7a643ab0c145d2bd689c0d3cd3eacae1",
          "blockNumber": "0x7250b8",
          "transactionHash": "0x06dc93d54580b805e4c0009a990d7c28f991c3716590650adba4c9301589cb11",
          "transactionIndex": "0x56",
          "logIndex": "0xb8",
          "removed": false
        },
        {
          "address": "0x5eb9cc76c3506942c1c0ead70e877dd5e4f00cb0",
          "topics": [
            "0x4afcb4a87cdbd9974efdb92ee48bc8d7cd0ae4bf217004db3d080cbaee652ca7"
          ],
          "data": "0x000000000000000000000000000000000000000000000000000000006786ba6c0000000000000000000000000000000000000000000000000003911a84c570720000000000000000000000000000000000000000000000000dc7db1331c173b4",
          "blockHash": "0x89ec5074e092da3c8cf554ebe88183da7a643ab0c145d2bd689c0d3cd3eacae1",
          "blockNumber": "0x7250b8",
          "transactionHash": "0x06dc93d54580b805e4c0009a990d7c28f991c3716590650adba4c9301589cb11",
          "transactionIndex": "0x56",
          "logIndex": "0xb9",
          "removed": false
        }
      ],
      "logsBloom": "0x00000000000000000000000000000000000000000000000000000000000000000000000000000000000000000000000000000000000000004000000000000000000000000000000000000008000000000000000000000000000000000000000000000000020000000000000004000800020000000000000000000010000000000000000000000000000000000000000000000000000000000000010000000000000000000000000000000000000000004000000000000000000000000000020000000002000000800000008000000000000000000000080000000000000020000000000000000000000000000000000000000000000000000000000000000000",
      "type": "0x2",
      "transactionHash": "0x06dc93d54580b805e4c0009a990d7c28f991c3716590650adba4c9301589cb11",
      "transactionIndex": "0x56",
      "blockHash": "0x89ec5074e092da3c8cf554ebe88183da7a643ab0c145d2bd689c0d3cd3eacae1",
      "blockNumber": "0x7250b8",
      "gasUsed": "0xfb93",
      "effectiveGasPrice": "0x2288733f9",
      "from": "0xc77f7fed3b5cc8249adc428c5f44c9063b9734b4",
      "to": "0x5eb9cc76c3506942c1c0ead70e877dd5e4f00cb0",
      "contractAddress": null
    }
  ],
  "libraries": [],
  "pending": [],
  "returns": {},
  "timestamp": 1736882798,
  "chain": 11155111,
  "commit": "51a374b"
}