{
  "transactions": [
    {
      "hash": "0xbe5d4e375369b9c0e15ca48cd4ea4beb3997b9f6d56cd227ab6120e8b1506482",
      "transactionType": "CALL",
      "contractName": null,
      "contractAddress": "0x270e88f8683660553e8ba4eb2ad7c91a1710d769",
      "function": "sell(uint256)",
      "arguments": [
        "733767008354392722292"
      ],
      "transaction": {
        "from": "0xc77f7fed3b5cc8249adc428c5f44c9063b9734b4",
        "to": "0x270e88f8683660553e8ba4eb2ad7c91a1710d769",
        "gas": "0x16fec",
        "value": "0x0",
        "input": "0xe4849b32000000000000000000000000000000000000000000000027c710166f20a9cb74",
        "nonce": "0x782",
        "chainId": "0xaa36a7"
      },
      "additionalContracts": [],
      "isFixedGasLimit": false
    }
  ],
  "receipts": [
    {
      "status": "0x1",
      "cumulativeGasUsed": "0x5da3e7",
      "logs": [
        {
          "address": "0x270e88f8683660553e8ba4eb2ad7c91a1710d769",
          "topics": [
            "0xddf252ad1be2c89b69c2b068fc378daa952ba7f163c4a11628f55a4df523b3ef",
            "0x000000000000000000000000c77f7fed3b5cc8249adc428c5f44c9063b9734b4",
            "0x0000000000000000000000000000000000000000000000000000000000000000"
          ],
          "data": "0x000000000000000000000000000000000000000000000027c710166f20a9cb74",
          "blockHash": "0xf15d89d513b199987d24ad7731387ea0d0a0981d108b250a64c3ecfcf9a53dcf",
          "blockNumber": "0x7254b2",
          "transactionHash": "0xbe5d4e375369b9c0e15ca48cd4ea4beb3997b9f6d56cd227ab6120e8b1506482",
          "transactionIndex": "0x3d",
          "logIndex": "0x4c",
          "removed": false
        },
        {
          "address": "0x270e88f8683660553e8ba4eb2ad7c91a1710d769",
          "topics": [
            "0x4afcb4a87cdbd9974efdb92ee48bc8d7cd0ae4bf217004db3d080cbaee652ca7"
          ],
          "data": "0x000000000000000000000000000000000000000000000000000000006786ea600000000000000000000000000000000000000000000000000004cf1b788bb2a70000000000000000000000000000000000000000000000000dc827dad16a9b6b",
          "blockHash": "0xf15d89d513b199987d24ad7731387ea0d0a0981d108b250a64c3ecfcf9a53dcf",
          "blockNumber": "0x7254b2",
          "transactionHash": "0xbe5d4e375369b9c0e15ca48cd4ea4beb3997b9f6d56cd227ab6120e8b1506482",
          "transactionIndex": "0x3d",
          "logIndex": "0x4d",
          "removed": false
        }
      ],
      "logsBloom": "0x00000000000000000000000000000000000000000000000000000000000000000000000000000000000000000000000020000000000000004000000000000000000000000000000000000008000000000000000000000000000000000000000000000000020000000000000000000800020000000000000000000010000000000000000000010000000000000000000000000000000000000000010000000000000000000000000000000000000000004000000000000000000000000000000000000002000000800000000000000000000000000000080000008000000020000000000000000000000000000000000000000000000000000000000000000000",
      "type": "0x2",
      "transactionHash": "0xbe5d4e375369b9c0e15ca48cd4ea4beb3997b9f6d56cd227ab6120e8b1506482",
      "transactionIndex": "0x3d",
      "blockHash": "0xf15d89d513b199987d24ad7731387ea0d0a0981d108b250a64c3ecfcf9a53dcf",
      "blockNumber": "0x7254b2",
      "gasUsed": "0xfb93",
      "effectiveGasPrice": "0x137b24905",
      "from": "0xc77f7fed3b5cc8249adc428c5f44c9063b9734b4",
      "to": "0x270e88f8683660553e8ba4eb2ad7c91a1710d769",
      "contractAddress": null
    }
  ],
  "libraries": [],
  "pending": [],
  "returns": {},
  "timestamp": 1736895074,
  "chain": 11155111,
  "commit": "51a374b"
}