{
  "transactions": [
    {
      "hash": "0xc6a884955e865eb612b8ddd7dae45b4005670e538d7b5ad85116df39374aa6f8",
      "transactionType": "CALL",
      "contractName": null,
      "contractAddress": "0x8aafd3ede9adb0ff97c7aebce82a919afb1c8764",
      "function": "buy(address)",
      "arguments": [
        "0xC77f7fed3b5Cc8249aDc428c5F44C9063B9734b4"
      ],
      "transaction": {
        "from": "0xc77f7fed3b5cc8249adc428c5f44c9063b9734b4",
        "to": "0x8aafd3ede9adb0ff97c7aebce82a919afb1c8764",
        "gas": "0x156ea",
        "value": "0xde0b6b3a7640000",
        "input": "0xf088d547000000000000000000000000c77f7fed3b5cc8249adc428c5f44c9063b9734b4",
        "nonce": "0xee1",
        "chainId": "0xaa36a7"
      },
      "additionalContracts": [],
      "isFixedGasLimit": false
    }
  ],
  "receipts": [
    {
      "status": "0x1",
      "cumulativeGasUsed": "0x10b98bb",
      "logs": [
        {
          "address": "0x8aafd3ede9adb0ff97c7aebce82a919afb1c8764",
          "topics": [
            "0xddf252ad1be2c89b69c2b068fc378daa952ba7f163c4a11628f55a4df523b3ef",
            "0x0000000000000000000000000000000000000000000000000000000000000000",
            "0x000000000000000000000000c77f7fed3b5cc8249adc428c5f44c9063b9734b4"
          ],
          "data": "0x0000000000000000000000000000000000000000000000285815d58612e0f989",
          "blockHash": "0xf40efd7c7f9ea3f8f5b28abb6be39b91c9e6223579739757e83ff5bb28f62f98",
          "blockNumber": "0x731458",
          "transactionHash": "0xc6a884955e865eb612b8ddd7dae45b4005670e538d7b5ad85116df39374aa6f8",
          "transactionIndex": "0xb0",
          "logIndex": "0x163",
          "removed": false
        },
        {
          "address": "0x8aafd3ede9adb0ff97c7aebce82a919afb1c8764",
          "topics": [
            "0xddf252ad1be2c89b69c2b068fc378daa952ba7f163c4a11628f55a4df523b3ef",
            "0x0000000000000000000000000000000000000000000000000000000000000000",
            "0x000000000000000000000000c77f7fed3b5cc8249adc428c5f44c9063b9734b4"
          ],
          "data": "0x0000000000000000000000000000000000000000000000001f541c4ad4688543",
          "blockHash": "0xf40efd7c7f9ea3f8f5b28abb6be39b91c9e6223579739757e83ff5bb28f62f98",
          "blockNumber": "0x731458",
          "transactionHash": "0xc6a884955e865eb612b8ddd7dae45b4005670e538d7b5ad85116df39374aa6f8",
          "transactionIndex": "0xb0",
          "logIndex": "0x164",
          "removed": false
        },
        {
          "address": "0x8aafd3ede9adb0ff97c7aebce82a919afb1c8764",
          "topics": [
            "0x4afcb4a87cdbd9974efdb92ee48bc8d7cd0ae4bf217004db3d080cbaee652ca7"
          ],
          "data": "0x00000000000000000000000000000000000000000000000000000000678ff0cc0000000000000000000000000000000000000000000000000004b9fb57228e800000000000000000000000000000000000000000000000000de0b6b3a7640000",
          "blockHash": "0xf40efd7c7f9ea3f8f5b28abb6be39b91c9e6223579739757e83ff5bb28f62f98",
          "blockNumber": "0x731458",
          "transactionHash": "0xc6a884955e865eb612b8ddd7dae45b4005670e538d7b5ad85116df39374aa6f8",
          "transactionIndex": "0xb0",
          "logIndex": "0x165",
          "removed": false
        }
      ],
      "logsBloom": "0x00000000000000000000000000000000000000000600000000000000000000000000000000000000000000000000000000000000000000004000000000000000000000000000004000000008000000000000000000000000000000000000000000000000020000000000000000000800020000000000000000000010000000000000000000000000000000000000000000000000000000000000010000000000000000000000000000000000000000004000000000000000000000000000000000000002000000800000000000000000000000000000080000000000000020000000000000000000000000000000000000000000000000000000000000000000",
      "type": "0x2",
      "transactionHash": "0xc6a884955e865eb612b8ddd7dae45b4005670e538d7b5ad85116df39374aa6f8",
      "transactionIndex": "0xb0",
      "blockHash": "0xf40efd7c7f9ea3f8f5b28abb6be39b91c9e6223579739757e83ff5bb28f62f98",
      "blockNumber": "0x731458",
      "gasUsed": "0xf844",
      "effectiveGasPrice": "0xb1a57199",
      "from": "0xc77f7fed3b5cc8249adc428c5f44c9063b9734b4",
      "to": "0x8aafd3ede9adb0ff97c7aebce82a919afb1c8764",
      "contractAddress": null
    }
  ],
  "libraries": [],
  "pending": [],
  "returns": {},
  "timestamp": 1737486541,
  "chain": 11155111,
  "commit": "51a374b"
}