{
  "transactions": [
    {
      "hash": "0x7e11d8aa309ff21ed8e4d23d8f94e99c047516f15cabbc15eae3a94c176360e4",
      "transactionType": "CALL",
      "contractName": null,
      "contractAddress": "0x270e88f8683660553e8ba4eb2ad7c91a1710d769",
      "function": "buy(address)",
      "arguments": [
        "0xC77f7fed3b5Cc8249aDc428c5F44C9063B9734b4"
      ],
      "transaction": {
        "from": "0xc77f7fed3b5cc8249adc428c5f44c9063b9734b4",
        "to": "0x270e88f8683660553e8ba4eb2ad7c91a1710d769",
        "gas": "0x1b30c",
        "value": "0xde0b6b3a7640000",
        "input": "0xf088d547000000000000000000000000c77f7fed3b5cc8249adc428c5f44c9063b9734b4",
        "nonce": "0x6a5",
        "chainId": "0xaa36a7"
      },
      "additionalContracts": [],
      "isFixedGasLimit": false
    }
  ],
  "receipts": [
    {
      "status": "0x1",
      "cumulativeGasUsed": "0xe7df87",
      "logs": [
        {
          "address": "0x270e88f8683660553e8ba4eb2ad7c91a1710d769",
          "topics": [
            "0xddf252ad1be2c89b69c2b068fc378daa952ba7f163c4a11628f55a4df523b3ef",
            "0x0000000000000000000000000000000000000000000000000000000000000000",
            "0x000000000000000000000000c77f7fed3b5cc8249adc428c5f44c9063b9734b4"
          ],
          "data": "0x000000000000000000000000000000000000000000000028b932a63a9491e69c",
          "blockHash": "0xd3991dd61216d31c0b9a42f4e72825c09bfc93d68ff677f8a44a27169bec3e58",
          "blockNumber": "0x7253aa",
          "transactionHash": "0x7e11d8aa309ff21ed8e4d23d8f94e99c047516f15cabbc15eae3a94c176360e4",
          "transactionIndex": "0x63",
          "logIndex": "0x10b",
          "removed": false
        },
        {
          "address": "0x270e88f8683660553e8ba4eb2ad7c91a1710d769",
          "topics": [
            "0xddf252ad1be2c89b69c2b068fc378daa952ba7f163c4a11628f55a4df523b3ef",
            "0x0000000000000000000000000000000000000000000000000000000000000000",
            "0x000000000000000000000000c77f7fed3b5cc8249adc428c5f44c9063b9734b4"
          ],
          "data": "0x0000000000000000000000000000000000000000000000001f9f8590378db3ae",
          "blockHash": "0xd3991dd61216d31c0b9a42f4e72825c09bfc93d68ff677f8a44a27169bec3e58",
          "blockNumber": "0x7253aa",
          "transactionHash": "0x7e11d8aa309ff21ed8e4d23d8f94e99c047516f15cabbc15eae3a94c176360e4",
          "transactionIndex": "0x63",
          "logIndex": "0x10c",
          "removed": false
        },
        {
          "address": "0x270e88f8683660553e8ba4eb2ad7c91a1710d769",
          "topics": [
            "0x4afcb4a87cdbd9974efdb92ee48bc8d7cd0ae4bf217004db3d080cbaee652ca7"
          ],
          "data": "0x000000000000000000000000000000000000000000000000000000006786de000000000000000000000000000000000000000000000000000004aeb25169f78a0000000000000000000000000000000000000000000000000de0b6b3a7640000",
          "blockHash": "0xd3991dd61216d31c0b9a42f4e72825c09bfc93d68ff677f8a44a27169bec3e58",
          "blockNumber": "0x7253aa",
          "transactionHash": "0x7e11d8aa309ff21ed8e4d23d8f94e99c047516f15cabbc15eae3a94c176360e4",
          "transactionIndex": "0x63",
          "logIndex": "0x10d",
          "removed": false
        }
      ],
      "logsBloom": "0x00000000000000000000000000000000000000000000000000000000000000000000000000000000000000000000000020000000000000004000000000000000000000000000000000000008000000000000000000000000000000000000000000000000020000000000000000000800020000000000000000000010000000000000000000010000000000000000000000000000000000000000010000000000000000000000000000000000000000004000000000000000000000000000000000000002000000800000000000000000000000000000080000008000000020000000000000000000000000000000000000000000000000000000000000000000",
      "type": "0x2",
      "transactionHash": "0x7e11d8aa309ff21ed8e4d23d8f94e99c047516f15cabbc15eae3a94c176360e4",
      "transactionIndex": "0x63",
      "blockHash": "0xd3991dd61216d31c0b9a42f4e72825c09bfc93d68ff677f8a44a27169bec3e58",
      "blockNumber": "0x7253aa",
      "gasUsed": "0x13af8",
      "effectiveGasPrice": "0x1a9bea96e",
      "from": "0xc77f7fed3b5cc8249adc428c5f44c9063b9734b4",
      "to": "0x270e88f8683660553e8ba4eb2ad7c91a1710d769",
      "contractAddress": null
    }
  ],
  "libraries": [],
  "pending": [],
  "returns": {},
  "timestamp": 1736891904,
  "chain": 11155111,
  "commit": "51a374b"
}