{
  "transactions": [
    {
      "hash": "0x8b65385aacc77bce0fd44e3d7ceffd841b873cbf989940b01d8cc56fb9851829",
      "transactionType": "CALL",
      "contractName": null,
      "contractAddress": "0x270e88f8683660553e8ba4eb2ad7c91a1710d769",
      "function": "buy(address)",
      "arguments": [
        "0xC77f7fed3b5Cc8249aDc428c5F44C9063B9734b4"
      ],
      "transaction": {
        "from": "0xc77f7fed3b5cc8249adc428c5f44c9063b9734b4",
        "to": "0x270e88f8683660553e8ba4eb2ad7c91a1710d769",
        "gas": "0x1b30c",
        "value": "0xde0b6b3a7640000",
        "input": "0xf088d547000000000000000000000000c77f7fed3b5cc8249adc428c5f44c9063b9734b4",
        "nonce": "0x624",
        "chainId": "0xaa36a7"
      },
      "additionalContracts": [],
      "isFixedGasLimit": false
    }
  ],
  "receipts": [
    {
      "status": "0x1",
      "cumulativeGasUsed": "0xbeb1b3",
      "logs": [
        {
          "address": "0x270e88f8683660553e8ba4eb2ad7c91a1710d769",
          "topics": [
            "0xddf252ad1be2c89b69c2b068fc378daa952ba7f163c4a11628f55a4df523b3ef",
            "0x0000000000000000000000000000000000000000000000000000000000000000",
            "0x000000000000000000000000c77f7fed3b5cc8249adc428c5f44c9063b9734b4"
          ],
          "data": "0x000000000000000000000000000000000000000000000032ea98a7fa74dcd2b4",
          "blockHash": "0xec11d10eeb3db675d3b8535225d2b0e0fa20796c6082995d99c5e43ece208fa1",
          "blockNumber": "0x7252f4",
          "transactionHash": "0x8b65385aacc77bce0fd44e3d7ceffd841b873cbf989940b01d8cc56fb9851829",
          "transactionIndex": "0x61",
          "logIndex": "0x9f",
          "removed": false
        },
        {
          "address": "0x270e88f8683660553e8ba4eb2ad7c91a1710d769",
          "topics": [
            "0xddf252ad1be2c89b69c2b068fc378daa952ba7f163c4a11628f55a4df523b3ef",
            "0x0000000000000000000000000000000000000000000000000000000000000000",
            "0x000000000000000000000000c77f7fed3b5cc8249adc428c5f44c9063b9734b4"
          ],
          "data": "0x0000000000000000000000000000000000000000000000002789cf0364653728",
          "blockHash": "0xec11d10eeb3db675d3b8535225d2b0e0fa20796c6082995d99c5e43ece208fa1",
          "blockNumber": "0x7252f4",
          "transactionHash": "0x8b65385aacc77bce0fd44e3d7ceffd841b873cbf989940b01d8cc56fb9851829",
          "transactionIndex": "0x61",
          "logIndex": "0xa0",
          "removed": false
        },
        {
          "address": "0x270e88f8683660553e8ba4eb2ad7c91a1710d769",
          "topics": [
            "0x4afcb4a87cdbd9974efdb92ee48bc8d7cd0ae4bf217004db3d080cbaee652ca7"
          ],
          "data": "0x000000000000000000000000000000000000000000000000000000006786d5780000000000000000000000000000000000000000000000000003bebff91c8d9c0000000000000000000000000000000000000000000000000de0b6b3a7640000",
          "blockHash": "0xec11d10eeb3db675d3b8535225d2b0e0fa20796c6082995d99c5e43ece208fa1",
          "blockNumber": "0x7252f4",
          "transactionHash": "0x8b65385aacc77bce0fd44e3d7ceffd841b873cbf989940b01d8cc56fb9851829",
          "transactionIndex": "0x61",
          "logIndex": "0xa1",
          "removed": false
        }
      ],
      "logsBloom": "0x00000000000000000000000000000000000000000000000000000000000000000000000000000000000000000000000020000000000000004000000000000000000000000000000000000008000000000000000000000000000000000000000000000000020000000000000000000800020000000000000000000010000000000000000000010000000000000000000000000000000000000000010000000000000000000000000000000000000000004000000000000000000000000000000000000002000000800000000000000000000000000000080000008000000020000000000000000000000000000000000000000000000000000000000000000000",
      "type": "0x2",
      "transactionHash": "0x8b65385aacc77bce0fd44e3d7ceffd841b873cbf989940b01d8cc56fb9851829",
      "transactionIndex": "0x61",
      "blockHash": "0xec11d10eeb3db675d3b8535225d2b0e0fa20796c6082995d99c5e43ece208fa1",
      "blockNumber": "0x7252f4",
      "gasUsed": "0x13af8",
      "effectiveGasPrice": "0x29858a817",
      "from": "0xc77f7fed3b5cc8249adc428c5f44c9063b9734b4",
      "to": "0x270e88f8683660553e8ba4eb2ad7c91a1710d769",
      "contractAddress": null
    }
  ],
  "libraries": [],
  "pending": [],
  "returns": {},
  "timestamp": 1736889721,
  "chain": 11155111,
  "commit": "51a374b"
}