{
  "transactions": [
    {
      "hash": "0xabec248ede0f8fda5f4dac5e429876aeed98302b342d62cccfd553145de0f8f2",
      "transactionType": "CALL",
      "contractName": null,
      "contractAddress": "0x8aafd3ede9adb0ff97c7aebce82a919afb1c8764",
      "function": "sell(uint256)",
      "arguments": [
        "271695883814920490487"
      ],
      "transaction": {
        "from": "0xc77f7fed3b5cc8249adc428c5f44c9063b9734b4",
        "to": "0x8aafd3ede9adb0ff97c7aebce82a919afb1c8764",
        "gas": "0x17270",
        "value": "0x0",
        "input": "0xe4849b3200000000000000000000000000000000000000000000000eba89aed2bc238df7",
        "nonce": "0x13a0",
        "chainId": "0xaa36a7"
      },
      "additionalContracts": [],
      "isFixedGasLimit": false
    }
  ],
  "receipts": [
    {
      "status": "0x1",
      "cumulativeGasUsed": "0xa1cf9a",
      "logs": [
        {
          "address": "0x8aafd3ede9adb0ff97c7aebce82a919afb1c8764",
          "topics": [
            "0xddf252ad1be2c89b69c2b068fc378daa952ba7f163c4a11628f55a4df523b3ef",
            "0x000000000000000000000000c77f7fed3b5cc8249adc428c5f44c9063b9734b4",
            "0x0000000000000000000000000000000000000000000000000000000000000000"
          ],
          "data": "0x00000000000000000000000000000000000000000000000e9c5f9f16ae5884a4",
          "blockHash": "0xd515540e4fabc33f48988430e64d5a2c0d59899e432105937de3a6bd3e80df64",
          "blockNumber": "0x731ac6",
          "transactionHash": "0xabec248ede0f8fda5f4dac5e429876aeed98302b342d62cccfd553145de0f8f2",
          "transactionIndex": "0x4f",
          "logIndex": "0x79",
          "removed": false
        },
        {
          "address": "0x8aafd3ede9adb0ff97c7aebce82a919afb1c8764",
          "topics": [
            "0xddf252ad1be2c89b69c2b068fc378daa952ba7f163c4a11628f55a4df523b3ef",
            "0x000000000000000000000000c77f7fed3b5cc8249adc428c5f44c9063b9734b4",
            "0x000000000000000000000000c77f7fed3b5cc8249adc428c5f44c9063b9734b4"
          ],
          "data": "0x0000000000000000000000000000000000000000000000001e2a0fbc0dcb0953",
          "blockHash": "0xd515540e4fabc33f48988430e64d5a2c0d59899e432105937de3a6bd3e80df64",
          "blockNumber": "0x731ac6",
          "transactionHash": "0xabec248ede0f8fda5f4dac5e429876aeed98302b342d62cccfd553145de0f8f2",
          "transactionIndex": "0x4f",
          "logIndex": "0x7a",
          "removed": false
        },
        {
          "address": "0x8aafd3ede9adb0ff97c7aebce82a919afb1c8764",
          "topics": [
            "0x4afcb4a87cdbd9974efdb92ee48bc8d7cd0ae4bf217004db3d080cbaee652ca7"
          ],
          "data": "0x0000000000000000000000000000000000000000000000000000000067903e18000000000000000000000000000000000000000000000000000d16079b9b2dae0000000000000000000000000000000000000000000000000dce544056031ca8",
          "blockHash": "0xd515540e4fabc33f48988430e64d5a2c0d59899e432105937de3a6bd3e80df64",
          "blockNumber": "0x731ac6",
          "transactionHash": "0xabec248ede0f8fda5f4dac5e429876aeed98302b342d62cccfd553145de0f8f2",
          "transactionIndex": "0x4f",
          "logIndex": "0x7b",
          "removed": false
        }
      ],
      "logsBloom": "0x00000000000000000000000000000000000000000600000000000000000000000000000000000000000000000000000000000000000000004000000000000000000000000000004000000008000000000000000000000000000000000000000000000000020000000000000000000800020000000000000000000010000000000000000000000000000000000000000000000000000000000000010000000000000000000000000000000000000000004000000000000000000000000000000000000002000000800000000000000000000000000000080000000000000020000000000000000000000000000000000000000000000000000000000000000000",
      "type": "0x2",
      "transactionHash": "0xabec248ede0f8fda5f4dac5e429876aeed98302b342d62cccfd553145de0f8f2",
      "transactionIndex": "0x4f",
      "blockHash": "0xd515540e4fabc33f48988430e64d5a2c0d59899e432105937de3a6bd3e80df64",
      "blockNumber": "0x731ac6",
      "gasUsed": "0xfd4b",
      "effectiveGasPrice": "0x85b0225f",
      "from": "0xc77f7fed3b5cc8249adc428c5f44c9063b9734b4",
      "to": "0x8aafd3ede9adb0ff97c7aebce82a919afb1c8764",
      "contractAddress": null
    }
  ],
  "libraries": [],
  "pending": [],
  "returns": {},
  "timestamp": 1737506329,
  "chain": 11155111,
  "commit": "1d2fb70"
}