{
  "transactions": [
    {
      "hash": "0x6a7aa7bad6c847350fee339c1bc1068de344361e28c68933bb5beeac63a61d5f",
      "transactionType": "CALL",
      "contractName": null,
      "contractAddress": "0xbf4a322f1496e5c3d34a9bcdb4c60567b38c7de2",
      "function": "sell(uint256)",
      "arguments": [
        "972868340076838493361"
      ],
      "transaction": {
        "from": "0xc77f7fed3b5cc8249adc428c5f44c9063b9734b4",
        "to": "0xbf4a322f1496e5c3d34a9bcdb4c60567b38c7de2",
        "gas": "0x16fea",
        "value": "0x0",
        "input": "0xe4849b32000000000000000000000000000000000000000000000034bd42a8d28fe19cb1",
        "nonce": "0xe2f",
        "chainId": "0xaa36a7"
      },
      "additionalContracts": [],
      "isFixedGasLimit": false
    }
  ],
  "receipts": [
    {
      "status": "0x1",
      "cumulativeGasUsed": "0x90e0af",
      "logs": [
        {
          "address": "0xbf4a322f1496e5c3d34a9bcdb4c60567b38c7de2",
          "topics": [
            "0xddf252ad1be2c89b69c2b068fc378daa952ba7f163c4a11628f55a4df523b3ef",
            "0x000000000000000000000000c77f7fed3b5cc8249adc428c5f44c9063b9734b4",
            "0x0000000000000000000000000000000000000000000000000000000000000000"
          ],
          "data": "0x000000000000000000000000000000000000000000000034bd42a8d28fe19cb1",
          "blockHash": "0x8ba74e99941d2ce7215fc0d6b81fa6c73c6db8f662f3088084dda95ab30f1247",
          "blockNumber": "0x72671f",
          "transactionHash": "0x6a7aa7bad6c847350fee339c1bc1068de344361e28c68933bb5beeac63a61d5f",
          "transactionIndex": "0x3f",
          "logIndex": "0x72",
          "removed": false
        },
        {
          "address": "0xbf4a322f1496e5c3d34a9bcdb4c60567b38c7de2",
          "topics": [
            "0x4afcb4a87cdbd9974efdb92ee48bc8d7cd0ae4bf217004db3d080cbaee652ca7"
          ],
          "data": "0x000000000000000000000000000000000000000000000000000000006787c8e40000000000000000000000000000000000000000000000000003a057d06d975a0000000000000000000000000000000000000000000000000dc7e3d17c1cd6b9",
          "blockHash": "0x8ba74e99941d2ce7215fc0d6b81fa6c73c6db8f662f3088084dda95ab30f1247",
          "blockNumber": "0x72671f",
          "transactionHash": "0x6a7aa7bad6c847350fee339c1bc1068de344361e28c68933bb5beeac63a61d5f",
          "transactionIndex": "0x3f",
          "logIndex": "0x73",
          "removed": false
        }
      ],
      "logsBloom": "0x00000000000000000000000000000000000000000000000000000000000000000000000000000000000000000000000000000000000000004000000000000000000000000000000000000008000000000000001000000000000000000000000000000000020000000000000000000800020000000000000000000010000000000000000000000000000000000000000000000000000008000000010000000000000000000000000000000000000000004000000000000000000000000000000000000002000000800000000000001000000000000000080000000000000020000000000000000000000000000000000000000000000000000000000000000000",
      "type": "0x2",
      "transactionHash": "0x6a7aa7bad6c847350fee339c1bc1068de344361e28c68933bb5beeac63a61d5f",
      "transactionIndex": "0x3f",
      "blockHash": "0x8ba74e99941d2ce7215fc0d6b81fa6c73c6db8f662f3088084dda95ab30f1247",
      "blockNumber": "0x72671f",
      "gasUsed": "0xfb91",
      "effectiveGasPrice": "0x8fae0773e",
      "from": "0xc77f7fed3b5cc8249adc428c5f44c9063b9734b4",
      "to": "0xbf4a322f1496e5c3d34a9bcdb4c60567b38c7de2",
      "contractAddress": null
    }
  ],
  "libraries": [],
  "pending": [],
  "returns": {},
  "timestamp": 1736952037,
  "chain": 11155111,
  "commit": "51a374b"
}