{
  "transactions": [
    {
      "hash": "0xb308063051389fef44c25ce37dc8029e452713e42318a229e085d2eff73ce2f6",
      "transactionType": "CALL",
      "contractName": null,
      "contractAddress": "0x8aafd3ede9adb0ff97c7aebce82a919afb1c8764",
      "function": "sell(uint256)",
      "arguments": [
        "112418057748560"
      ],
      "transaction": {
        "from": "0xc77f7fed3b5cc8249adc428c5f44c9063b9734b4",
        "to": "0x8aafd3ede9adb0ff97c7aebce82a919afb1c8764",
        "gas": "0x1722a",
        "value": "0x0",
        "input": "0xe4849b320000000000000000000000000000000000000000000000000000663e5e660050",
        "nonce": "0x14b1",
        "chainId": "0xaa36a7"
      },
      "additionalContracts": [],
      "isFixedGasLimit": false
    }
  ],
  "receipts": [
    {
      "status": "0x1",
      "cumulativeGasUsed": "0x19518c6",
      "logs": [
        {
          "address": "0x8aafd3ede9adb0ff97c7aebce82a919afb1c8764",
          "topics": [
            "0xddf252ad1be2c89b69c2b068fc378daa952ba7f163c4a11628f55a4df523b3ef",
            "0x000000000000000000000000c77f7fed3b5cc8249adc428c5f44c9063b9734b4",
            "0x0000000000000000000000000000000000000000000000000000000000000000"
          ],
          "data": "0x0000000000000000000000000000000000000000000000000000656cf94a8fac",
          "blockHash": "0x4d5002ede65c5122edd566d75de2b5215ec511f5056c3b46dc767a85563e12b5",
          "blockNumber": "0x731c08",
          "transactionHash": "0xb308063051389fef44c25ce37dc8029e452713e42318a229e085d2eff73ce2f6",
          "transactionIndex": "0xf4",
          "logIndex": "0x152",
          "removed": false
        },
        {
          "address": "0x8aafd3ede9adb0ff97c7aebce82a919afb1c8764",
          "topics": [
            "0xddf252ad1be2c89b69c2b068fc378daa952ba7f163c4a11628f55a4df523b3ef",
            "0x000000000000000000000000c77f7fed3b5cc8249adc428c5f44c9063b9734b4",
            "0x000000000000000000000000c77f7fed3b5cc8249adc428c5f44c9063b9734b4"
          ],
          "data": "0x000000000000000000000000000000000000000000000000000000d1651b70a4",
          "blockHash": "0x4d5002ede65c5122edd566d75de2b5215ec511f5056c3b46dc767a85563e12b5",
          "blockNumber": "0x731c08",
          "transactionHash": "0xb308063051389fef44c25ce37dc8029e452713e42318a229e085d2eff73ce2f6",
          "transactionIndex": "0xf4",
          "logIndex": "0x153",
          "removed": false
        },
        {
          "address": "0x8aafd3ede9adb0ff97c7aebce82a919afb1c8764",
          "topics": [
            "0x4afcb4a87cdbd9974efdb92ee48bc8d7cd0ae4bf217004db3d080cbaee652ca7"
          ],
          "data": "0x0000000000000000000000000000000000000000000000000000000067904d3c00000000000000000000000000000000000000000000000000102bb63246a58e0000000000000000000000000000000000000000000000000000007723091250",
          "blockHash": "0x4d5002ede65c5122edd566d75de2b5215ec511f5056c3b46dc767a85563e12b5",
          "blockNumber": "0x731c08",
          "transactionHash": "0xb308063051389fef44c25ce37dc8029e452713e42318a229e085d2eff73ce2f6",
          "transactionIndex": "0xf4",
          "logIndex": "0x154",
          "removed": false
        }
      ],
      "logsBloom": "0x00000000000000000000000000000000000000000600000000000000000000000000000000000000000000000000000000000000000000004000000000000000000000000000004000000008000000000000000000000000000000000000000000000000020000000000000000000800020000000000000000000010000000000000000000000000000000000000000000000000000000000000010000000000000000000000000000000000000000004000000000000000000000000000000000000002000000800000000000000000000000000000080000000000000020000000000000000000000000000000000000000000000000000000000000000000",
      "type": "0x2",
      "transactionHash": "0xb308063051389fef44c25ce37dc8029e452713e42318a229e085d2eff73ce2f6",
      "transactionIndex": "0xf4",
      "blockHash": "0x4d5002ede65c5122edd566d75de2b5215ec511f5056c3b46dc767a85563e12b5",
      "blockNumber": "0x731c08",
      "gasUsed": "0xfd1b",
      "effectiveGasPrice": "0x10002ab1d",
      "from": "0xc77f7fed3b5cc8249adc428c5f44c9063b9734b4",
      "to": "0x8aafd3ede9adb0ff97c7aebce82a919afb1c8764",
      "contractAddress": null
    }
  ],
  "libraries": [],
  "pending": [],
  "returns": {},
  "timestamp": 1737510205,
  "chain": 11155111,
  "commit": "1d2fb70"
}