{
  "transactions": [
    {
      "hash": "0x94a11c647f12c8de434ac53a6221ff6bd6b0d2be28d792d3b2936c63ce29a88b",
      "transactionType": "CALL",
      "contractName": null,
      "contractAddress": "0x5eb9cc76c3506942c1c0ead70e877dd5e4f00cb0",
      "function": "buy(address)",
      "arguments": [
        "0xC77f7fed3b5Cc8249aDc428c5F44C9063B9734b4"
      ],
      "transaction": {
        "from": "0xc77f7fed3b5cc8249adc428c5f44c9063b9734b4",
        "to": "0x5eb9cc76c3506942c1c0ead70e877dd5e4f00cb0",
        "gas": "0x1b30c",
        "value": "0xde0b6b3a7640000",
        "input": "0xf088d547000000000000000000000000c77f7fed3b5cc8249adc428c5f44c9063b9734b4",
        "nonce": "0x232",
        "chainId": "0xaa36a7"
      },
      "additionalContracts": [],
      "isFixedGasLimit": false
    }
  ],
  "receipts": [
    {
      "status": "0x1",
      "cumulativeGasUsed": "0x14b71e3",
      "logs": [
        {
          "address": "0x5eb9cc76c3506942c1c0ead70e877dd5e4f00cb0",
          "topics": [
            "0xddf252ad1be2c89b69c2b068fc378daa952ba7f163c4a11628f55a4df523b3ef",
            "0x0000000000000000000000000000000000000000000000000000000000000000",
            "0x000000000000000000000000c77f7fed3b5cc8249adc428c5f44c9063b9734b4"
          ],
          "data": "0x0000000000000000000000000000000000000000000000357c31f08d894bed6f",
          "blockHash": "0xec84d170e0ae0fa919ec8f2ccde6a00fa0cf8515f02f2ed20d075a0fa1090dbd",
          "blockNumber": "0x724de3",
          "transactionHash": "0x94a11c647f12c8de434ac53a6221ff6bd6b0d2be28d792d3b2936c63ce29a88b",
          "transactionIndex": "0x6f",
          "logIndex": "0x121",
          "removed": false
        },
        {
          "address": "0x5eb9cc76c3506942c1c0ead70e877dd5e4f00cb0",
          "topics": [
            "0xddf252ad1be2c89b69c2b068fc378daa952ba7f163c4a11628f55a4df523b3ef",
            "0x0000000000000000000000000000000000000000000000000000000000000000",
            "0x000000000000000000000000c77f7fed3b5cc8249adc428c5f44c9063b9734b4"
          ],
          "data": "0x000000000000000000000000000000000000000000000000298874de3d1053ef",
          "blockHash": "0xec84d170e0ae0fa919ec8f2ccde6a00fa0cf8515f02f2ed20d075a0fa1090dbd",
          "blockNumber": "0x724de3",
          "transactionHash": "0x94a11c647f12c8de434ac53a6221ff6bd6b0d2be28d792d3b2936c63ce29a88b",
          "transactionIndex": "0x6f",
          "logIndex": "0x122",
          "removed": false
        },
        {
          "address": "0x5eb9cc76c3506942c1c0ead70e877dd5e4f00cb0",
          "topics": [
            "0x4afcb4a87cdbd9974efdb92ee48bc8d7cd0ae4bf217004db3d080cbaee652ca7"
          ],
          "data": "0x00000000000000000000000000000000000000000000000000000000678698580000000000000000000000000000000000000000000000000003909abcf50c780000000000000000000000000000000000000000000000000de0b6b3a7640000",
          "blockHash": "0xec84d170e0ae0fa919ec8f2ccde6a00fa0cf8515f02f2ed20d075a0fa1090dbd",
          "blockNumber": "0x724de3",
          "transactionHash": "0x94a11c647f12c8de434ac53a6221ff6bd6b0d2be28d792d3b2936c63ce29a88b",
          "transactionIndex": "0x6f",
          "logIndex": "0x123",
          "removed": false
        }
      ],
      "logsBloom": "0x00000000000000000000000000000000000000000000000000000000000000000000000000000000000000000000000000000000000000004000000000000000000000000000000000000008000000000000000000000000000000000000000000000000020000000000000004000800020000000000000000000010000000000000000000000000000000000000000000000000000000000000010000000000000000000000000000000000000000004000000000000000000000000000020000000002000000800000008000000000000000000000080000000000000020000000000000000000000000000000000000000000000000000000000000000000",
      "type": "0x2",
      "transactionHash": "0x94a11c647f12c8de434ac53a6221ff6bd6b0d2be28d792d3b2936c63ce29a88b",
      "transactionIndex": "0x6f",
      "blockHash": "0xec84d170e0ae0fa919ec8f2ccde6a00fa0cf8515f02f2ed20d075a0fa1090dbd",
      "blockNumber": "0x724de3",
      "gasUsed": "0x13af8",
      "effectiveGasPrice": "0x3f17958df",
      "from": "0xc77f7fed3b5cc8249adc428c5f44c9063b9734b4",
      "to": "0x5eb9cc76c3506942c1c0ead70e877dd5e4f00cb0",
      "contractAddress": null
    }
  ],
  "libraries": [],
  "pending": [],
  "returns": {},
  "timestamp": 1736874074,
  "chain": 11155111,
  "commit": "51a374b"
}