{
  "transactions": [
    {
      "hash": "0x32ddeb21267967c84fe8c14b9eeccb6ec6a14455f41fc0a374ff9fbdc60c8155",
      "transactionType": "CALL",
      "contractName": null,
      "contractAddress": "0x8aafd3ede9adb0ff97c7aebce82a919afb1c8764",
      "function": "sell(uint256)",
      "arguments": [
        "10991443239267040"
      ],
      "transaction": {
        "from": "0xc77f7fed3b5cc8249adc428c5f44c9063b9734b4",
        "to": "0x8aafd3ede9adb0ff97c7aebce82a919afb1c8764",
        "gas": "0x1724d",
        "value": "0x0",
        "input": "0xe4849b3200000000000000000000000000000000000000000000000000270ca8cdd86ae0",
        "nonce": "0x1633",
        "chainId": "0xaa36a7"
      },
      "additionalContracts": [],
      "isFixedGasLimit": false
    }
  ],
  "receipts": [
    {
      "status": "0x1",
      "cumulativeGasUsed": "0x96d021",
      "logs": [
        {
          "address": "0x8aafd3ede9adb0ff97c7aebce82a919afb1c8764",
          "topics": [
            "0xddf252ad1be2c89b69c2b068fc378daa952ba7f163c4a11628f55a4df523b3ef",
            "0x000000000000000000000000c77f7fed3b5cc8249adc428c5f44c9063b9734b4",
            "0x0000000000000000000000000000000000000000000000000000000000000000"
          ],
          "data": "0x0000000000000000000000000000000000000000000000000026bcafa5495fc8",
          "blockHash": "0xc14c2ace04d2b27f686c6166f8e584237ce38259f65167fa2ade9789c2d63c07",
          "blockNumber": "0x731dcb",
          "transactionHash": "0x32ddeb21267967c84fe8c14b9eeccb6ec6a14455f41fc0a374ff9fbdc60c8155",
          "transactionIndex": "0x62",
          "logIndex": "0x79",
          "removed": false
        },
        {
          "address": "0x8aafd3ede9adb0ff97c7aebce82a919afb1c8764",
          "topics": [
            "0xddf252ad1be2c89b69c2b068fc378daa952ba7f163c4a11628f55a4df523b3ef",
            "0x000000000000000000000000c77f7fed3b5cc8249adc428c5f44c9063b9734b4",
            "0x000000000000000000000000c77f7fed3b5cc8249adc428c5f44c9063b9734b4"
          ],
          "data": "0x00000000000000000000000000000000000000000000000000004ff9288f0b18",
          "blockHash": "0xc14c2ace04d2b27f686c6166f8e584237ce38259f65167fa2ade9789c2d63c07",
          "blockNumber": "0x731dcb",
          "transactionHash": "0x32ddeb21267967c84fe8c14b9eeccb6ec6a14455f41fc0a374ff9fbdc60c8155",
          "transactionIndex": "0x62",
          "logIndex": "0x7a",
          "removed": false
        },
        {
          "address": "0x8aafd3ede9adb0ff97c7aebce82a919afb1c8764",
          "topics": [
            "0x4afcb4a87cdbd9974efdb92ee48bc8d7cd0ae4bf217004db3d080cbaee652ca7"
          ],
          "data": "0x000000000000000000000000000000000000000000000000000000006790626c0000000000000000000000000000000000000000000000000014a5777ed2e6c300000000000000000000000000000000000000000000000000003a184af98c9b",
          "blockHash": "0xc14c2ace04d2b27f686c6166f8e584237ce38259f65167fa2ade9789c2d63c07",
          "blockNumber": "0x731dcb",
          "transactionHash": "0x32ddeb21267967c84fe8c14b9eeccb6ec6a14455f41fc0a374ff9fbdc60c8155",
          "transactionIndex": "0x62",
          "logIndex": "0x7b",
          "removed": false
        }
      ],
      "logsBloom": "0x00000000000000000000000000000000000000000600000000000000000000000000000000000000000000000000000000000000000000004000000000000000000000000000004000000008000000000000000000000000000000000000000000000000020000000000000000000800020000000000000000000010000000000000000000000000000000000000000000000000000000000000010000000000000000000000000000000000000000004000000000000000000000000000000000000002000000800000000000000000000000000000080000000000000020000000000000000000000000000000000000000000000000000000000000000000",
      "type": "0x2",
      "transactionHash": "0x32ddeb21267967c84fe8c14b9eeccb6ec6a14455f41fc0a374ff9fbdc60c8155",
      "transactionIndex": "0x62",
      "blockHash": "0xc14c2ace04d2b27f686c6166f8e584237ce38259f65167fa2ade9789c2d63c07",
      "blockNumber": "0x731dcb",
      "gasUsed": "0xfd33",
      "effectiveGasPrice": "0x5da2349e",
      "from": "0xc77f7fed3b5cc8249adc428c5f44c9063b9734b4",
      "to": "0x8aafd3ede9adb0ff97c7aebce82a919afb1c8764",
      "contractAddress": null
    }
  ],
  "libraries": [],
  "pending": [],
  "returns": {},
  "timestamp": 1737515629,
  "chain": 11155111,
  "commit": "1d2fb70"
}