{
  "transactions": [
    {
      "hash": "0x4eaa1daf4a8a30b67e3cd92df210ef51d9b954ff243af9bf442c58f02d9db2ac",
      "transactionType": "CALL",
      "contractName": null,
      "contractAddress": "0x8aafd3ede9adb0ff97c7aebce82a919afb1c8764",
      "function": "sell(uint256)",
      "arguments": [
        "194768703"
      ],
      "transaction": {
        "from": "0xc77f7fed3b5cc8249adc428c5f44c9063b9734b4",
        "to": "0x8aafd3ede9adb0ff97c7aebce82a919afb1c8764",
        "gas": "0x14e6c",
        "value": "0x0",
        "input": "0xe4849b32000000000000000000000000000000000000000000000000000000000b9bef3f",
        "nonce": "0xf3b",
        "chainId": "0xaa36a7"
      },
      "additionalContracts": [],
      "isFixedGasLimit": false
    }
  ],
  "receipts": [
    {
      "status": "0x1",
      "cumulativeGasUsed": "0x90c877",
      "logs": [
        {
          "address": "0x8aafd3ede9adb0ff97c7aebce82a919afb1c8764",
          "topics": [
            "0xddf252ad1be2c89b69c2b068fc378daa952ba7f163c4a11628f55a4df523b3ef",
            "0x000000000000000000000000c77f7fed3b5cc8249adc428c5f44c9063b9734b4",
            "0x0000000000000000000000000000000000000000000000000000000000000000"
          ],
          "data": "0x000000000000000000000000000000000000000000000000000000000b8428ba",
          "blockHash": "0x06f211b55cb1d233adc2fcfec105d3892fdc40f82818788f22169c4d76f3c8e4",
          "blockNumber": "0x731595",
          "transactionHash": "0x4eaa1daf4a8a30b67e3cd92df210ef51d9b954ff243af9bf442c58f02d9db2ac",
          "transactionIndex": "0x78",
          "logIndex": "0xa3",
          "removed": false
        },
        {
          "address": "0x8aafd3ede9adb0ff97c7aebce82a919afb1c8764",
          "topics": [
            "0xddf252ad1be2c89b69c2b068fc378daa952ba7f163c4a11628f55a4df523b3ef",
            "0x000000000000000000000000c77f7fed3b5cc8249adc428c5f44c9063b9734b4",
            "0x000000000000000000000000c77f7fed3b5cc8249adc428c5f44c9063b9734b4"
          ],
          "data": "0x000000000000000000000000000000000000000000000000000000000017c685",
          "blockHash": "0x06f211b55cb1d233adc2fcfec105d3892fdc40f82818788f22169c4d76f3c8e4",
          "blockNumber": "0x731595",
          "transactionHash": "0x4eaa1daf4a8a30b67e3cd92df210ef51d9b954ff243af9bf442c58f02d9db2ac",
          "transactionIndex": "0x78",
          "logIndex": "0xa4",
          "removed": false
        },
        {
          "address": "0x8aafd3ede9adb0ff97c7aebce82a919afb1c8764",
          "topics": [
            "0x4afcb4a87cdbd9974efdb92ee48bc8d7cd0ae4bf217004db3d080cbaee652ca7"
          ],
          "data": "0x00000000000000000000000000000000000000000000000000000000678fffa80000000000000000000000000000000000000000000000000004bfdfc8ad5b5a000000000000000000000000000000000000000000000000000000000003f91c",
          "blockHash": "0x06f211b55cb1d233adc2fcfec105d3892fdc40f82818788f22169c4d76f3c8e4",
          "blockNumber": "0x731595",
          "transactionHash": "0x4eaa1daf4a8a30b67e3cd92df210ef51d9b954ff243af9bf442c58f02d9db2ac",
          "transactionIndex": "0x78",
          "logIndex": "0xa5",
          "removed": false
        }
      ],
      "logsBloom": "0x00000000000000000000000000000000000000000600000000000000000000000000000000000000000000000000000000000000000000004000000000000000000000000000004000000008000000000000000000000000000000000000000000000000020000000000000000000800020000000000000000000010000000000000000000000000000000000000000000000000000000000000010000000000000000000000000000000000000000004000000000000000000000000000000000000002000000800000000000000000000000000000080000000000000020000000000000000000000000000000000000000000000000000000000000000000",
      "type": "0x2",
      "transactionHash": "0x4eaa1daf4a8a30b67e3cd92df210ef51d9b954ff243af9bf442c58f02d9db2ac",
      "transactionIndex": "0x78",
      "blockHash": "0x06f211b55cb1d233adc2fcfec105d3892fdc40f82818788f22169c4d76f3c8e4",
      "blockNumber": "0x731595",
      "gasUsed": "0xf21f",
      "effectiveGasPrice": "0x64b891d7",
      "from": "0xc77f7fed3b5cc8249adc428c5f44c9063b9734b4",
      "to": "0x8aafd3ede9adb0ff97c7aebce82a919afb1c8764",
      "contractAddress": null
    }
  ],
  "libraries": [],
  "pending": [],
  "returns": {},
  "timestamp": 1737490345,
  "chain": 11155111,
  "commit": "1d2fb70"
}