{
  "transactions": [
    {
      "hash": "0x041a8427b61b5fca52549b407fac9ef629cfd74814c4cca9cb2a4ef0f6abaabe",
      "transactionType": "CALL",
      "contractName": null,
      "contractAddress": "0x270e88f8683660553e8ba4eb2ad7c91a1710d769",
      "function": "buy(address)",
      "arguments": [
        "0xC77f7fed3b5Cc8249aDc428c5F44C9063B9734b4"
      ],
      "transaction": {
        "from": "0xc77f7fed3b5cc8249adc428c5f44c9063b9734b4",
        "to": "0x270e88f8683660553e8ba4eb2ad7c91a1710d769",
        "gas": "0x1b30c",
        "value": "0xde0b6b3a7640000",
        "input": "0xf088d547000000000000000000000000c77f7fed3b5cc8249adc428c5f44c9063b9734b4",
        "nonce": "0x705",
        "chainId": "0xaa36a7"
      },
      "additionalContracts": [],
      "isFixedGasLimit": false
    }
  ],
  "receipts": [
    {
      "status": "0x1",
      "cumulativeGasUsed": "0x449412",
      "logs": [
        {
          "address": "0x270e88f8683660553e8ba4eb2ad7c91a1710d769",
          "topics": [
            "0xddf252ad1be2c89b69c2b068fc378daa952ba7f163c4a11628f55a4df523b3ef",
            "0x0000000000000000000000000000000000000000000000000000000000000000",
            "0x000000000000000000000000c77f7fed3b5cc8249adc428c5f44c9063b9734b4"
          ],
          "data": "0x000000000000000000000000000000000000000000000028405238926c7a4ae1",
          "blockHash": "0x8a4f5e130fca626f3e55066c9e20227316e3ac9d10effd1f15f7076236427776",
          "blockNumber": "0x72541b",
          "transactionHash": "0x041a8427b61b5fca52549b407fac9ef629cfd74814c4cca9cb2a4ef0f6abaabe",
          "transactionIndex": "0x28",
          "logIndex": "0x45",
          "removed": false
        },
        {
          "address": "0x270e88f8683660553e8ba4eb2ad7c91a1710d769",
          "topics": [
            "0xddf252ad1be2c89b69c2b068fc378daa952ba7f163c4a11628f55a4df523b3ef",
            "0x0000000000000000000000000000000000000000000000000000000000000000",
            "0x000000000000000000000000c77f7fed3b5cc8249adc428c5f44c9063b9734b4"
          ],
          "data": "0x0000000000000000000000000000000000000000000000001f41a828c3058ce9",
          "blockHash": "0x8a4f5e130fca626f3e55066c9e20227316e3ac9d10effd1f15f7076236427776",
          "blockNumber": "0x72541b",
          "transactionHash": "0x041a8427b61b5fca52549b407fac9ef629cfd74814c4cca9cb2a4ef0f6abaabe",
          "transactionIndex": "0x28",
          "logIndex": "0x46",
          "removed": false
        },
        {
          "address": "0x270e88f8683660553e8ba4eb2ad7c91a1710d769",
          "topics": [
            "0x4afcb4a87cdbd9974efdb92ee48bc8d7cd0ae4bf217004db3d080cbaee652ca7"
          ],
          "data": "0x000000000000000000000000000000000000000000000000000000006786e34c0000000000000000000000000000000000000000000000000004bcc1c1dc80e70000000000000000000000000000000000000000000000000de0b6b3a7640000",
          "blockHash": "0x8a4f5e130fca626f3e55066c9e20227316e3ac9d10effd1f15f7076236427776",
          "blockNumber": "0x72541b",
          "transactionHash": "0x041a8427b61b5fca52549b407fac9ef629cfd74814c4cca9cb2a4ef0f6abaabe",
          "transactionIndex": "0x28",
          "logIndex": "0x47",
          "removed": false
        }
      ],
      "logsBloom": "0x00000000000000000000000000000000000000000000000000000000000000000000000000000000000000000000000020000000000000004000000000000000000000000000000000000008000000000000000000000000000000000000000000000000020000000000000000000800020000000000000000000010000000000000000000010000000000000000000000000000000000000000010000000000000000000000000000000000000000004000000000000000000000000000000000000002000000800000000000000000000000000000080000008000000020000000000000000000000000000000000000000000000000000000000000000000",
      "type": "0x2",
      "transactionHash": "0x041a8427b61b5fca52549b407fac9ef629cfd74814c4cca9cb2a4ef0f6abaabe",
      "transactionIndex": "0x28",
      "blockHash": "0x8a4f5e130fca626f3e55066c9e20227316e3ac9d10effd1f15f7076236427776",
      "blockNumber": "0x72541b",
      "gasUsed": "0x13af8",
      "effectiveGasPrice": "0x16cf56dab",
      "from": "0xc77f7fed3b5cc8249adc428c5f44c9063b9734b4",
      "to": "0x270e88f8683660553e8ba4eb2ad7c91a1710d769",
      "contractAddress": null
    }
  ],
  "libraries": [],
  "pending": [],
  "returns": {},
  "timestamp": 1736893262,
  "chain": 11155111,
  "commit": "51a374b"
}