{
  "transactions": [
    {
      "hash": "0xc51c35f958b256476fba497a47252fddf3e1f7e9a37f277d2b75bd0a543e4fe7",
      "transactionType": "CALL",
      "contractName": null,
      "contractAddress": "0x8aafd3ede9adb0ff97c7aebce82a919afb1c8764",
      "function": "sell(uint256)",
      "arguments": [
        "24570223246"
      ],
      "transaction": {
        "from": "0xc77f7fed3b5cc8249adc428c5f44c9063b9734b4",
        "to": "0x8aafd3ede9adb0ff97c7aebce82a919afb1c8764",
        "gas": "0x1722a",
        "value": "0x0",
        "input": "0xe4849b3200000000000000000000000000000000000000000000000000000005b87fda8e",
        "nonce": "0xe65",
        "chainId": "0xaa36a7"
      },
      "additionalContracts": [],
      "isFixedGasLimit": false
    }
  ],
  "receipts": [
    {
      "status": "0x1",
      "cumulativeGasUsed": "0x159f053",
      "logs": [
        {
          "address": "0x8aafd3ede9adb0ff97c7aebce82a919afb1c8764",
          "topics": [
            "0xddf252ad1be2c89b69c2b068fc378daa952ba7f163c4a11628f55a4df523b3ef",
            "0x000000000000000000000000c77f7fed3b5cc8249adc428c5f44c9063b9734b4",
            "0x0000000000000000000000000000000000000000000000000000000000000000"
          ],
          "data": "0x00000000000000000000000000000000000000000000000000000005acc88f15",
          "blockHash": "0xf56f43c625d73e8a4a328c45660fcef20efe6fb0882ed9507d345307990a0bcd",
          "blockNumber": "0x7313ba",
          "transactionHash": "0xc51c35f958b256476fba497a47252fddf3e1f7e9a37f277d2b75bd0a543e4fe7",
          "transactionIndex": "0xd9",
          "logIndex": "0x1a1",
          "removed": false
        },
        {
          "address": "0x8aafd3ede9adb0ff97c7aebce82a919afb1c8764",
          "topics": [
            "0xddf252ad1be2c89b69c2b068fc378daa952ba7f163c4a11628f55a4df523b3ef",
            "0x000000000000000000000000c77f7fed3b5cc8249adc428c5f44c9063b9734b4",
            "0x000000000000000000000000c77f7fed3b5cc8249adc428c5f44c9063b9734b4"
          ],
          "data": "0x000000000000000000000000000000000000000000000000000000000bb74b79",
          "blockHash": "0xf56f43c625d73e8a4a328c45660fcef20efe6fb0882ed9507d345307990a0bcd",
          "blockNumber": "0x7313ba",
          "transactionHash": "0xc51c35f958b256476fba497a47252fddf3e1f7e9a37f277d2b75bd0a543e4fe7",
          "transactionIndex": "0xd9",
          "logIndex": "0x1a2",
          "removed": false
        },
        {
          "address": "0x8aafd3ede9adb0ff97c7aebce82a919afb1c8764",
          "topics": [
            "0x4afcb4a87cdbd9974efdb92ee48bc8d7cd0ae4bf217004db3d080cbaee652ca7"
          ],
          "data": "0x00000000000000000000000000000000000000000000000000000000678fe94c0000000000000000000000000000000000000000000000000004b4df99eb91f80000000000000000000000000000000000000000000000000000000001f0ac40",
          "blockHash": "0xf56f43c625d73e8a4a328c45660fcef20efe6fb0882ed9507d345307990a0bcd",
          "blockNumber": "0x7313ba",
          "transactionHash": "0xc51c35f958b256476fba497a47252fddf3e1f7e9a37f277d2b75bd0a543e4fe7",
          "transactionIndex": "0xd9",
          "logIndex": "0x1a3",
          "removed": false
        }
      ],
      "logsBloom": "0x00000000000000000000000000000000000000000600000000000000000000000000000000000000000000000000000000000000000000004000000000000000000000000000004000000008000000000000000000000000000000000000000000000000020000000000000000000800020000000000000000000010000000000000000000000000000000000000000000000000000000000000010000000000000000000000000000000000000000004000000000000000000000000000000000000002000000800000000000000000000000000000080000000000000020000000000000000000000000000000000000000000000000000000000000000000",
      "type": "0x2",
      "transactionHash": "0xc51c35f958b256476fba497a47252fddf3e1f7e9a37f277d2b75bd0a543e4fe7",
      "transactionIndex": "0xd9",
      "blockHash": "0xf56f43c625d73e8a4a328c45660fcef20efe6fb0882ed9507d345307990a0bcd",
      "blockNumber": "0x7313ba",
      "gasUsed": "0xfd1b",
      "effectiveGasPrice": "0x6d08a057",
      "from": "0xc77f7fed3b5cc8249adc428c5f44c9063b9734b4",
      "to": "0x8aafd3ede9adb0ff97c7aebce82a919afb1c8764",
      "contractAddress": null
    }
  ],
  "libraries": [],
  "pending": [],
  "returns": {},
  "timestamp": 1737484621,
  "chain": 11155111,
  "commit": "51a374b"
}