{
  "transactions": [
    {
      "hash": "0xd018cf416cc7563b2344131679423f94dad8443ddb8f3a8f3f257f58de97f1da",
      "transactionType": "CALL",
      "contractName": null,
      "contractAddress": "0x8aafd3ede9adb0ff97c7aebce82a919afb1c8764",
      "function": "sell(uint256)",
      "arguments": [
        "1497751"
      ],
      "transaction": {
        "from": "0xc77f7fed3b5cc8249adc428c5f44c9063b9734b4",
        "to": "0x8aafd3ede9adb0ff97c7aebce82a919afb1c8764",
        "gas": "0x16208",
        "value": "0x0",
        "input": "0xe4849b32000000000000000000000000000000000000000000000000000000000016da97",
        "nonce": "0x1052",
        "chainId": "0xaa36a7"
      },
      "additionalContracts": [],
      "isFixedGasLimit": false
    }
  ],
  "receipts": [
    {
      "status": "0x1",
      "cumulativeGasUsed": "0x1132514",
      "logs": [
        {
          "address": "0x8aafd3ede9adb0ff97c7aebce82a919afb1c8764",
          "topics": [
            "0xddf252ad1be2c89b69c2b068fc378daa952ba7f163c4a11628f55a4df523b3ef",
            "0x000000000000000000000000c77f7fed3b5cc8249adc428c5f44c9063b9734b4",
            "0x0000000000000000000000000000000000000000000000000000000000000000"
          ],
          "data": "0x000000000000000000000000000000000000000000000000000000000016abc9",
          "blockHash": "0xd29b1b3f97a889581e23c98f640c4c7ec6ec0e1de68856f67bf4eb5059932201",
          "blockNumber": "0x7316d4",
          "transactionHash": "0xd018cf416cc7563b2344131679423f94dad8443ddb8f3a8f3f257f58de97f1da",
          "transactionIndex": "0x86",
          "logIndex": "0xc8",
          "removed": false
        },
        {
          "address": "0x8aafd3ede9adb0ff97c7aebce82a919afb1c8764",
          "topics": [
            "0xddf252ad1be2c89b69c2b068fc378daa952ba7f163c4a11628f55a4df523b3ef",
            "0x000000000000000000000000c77f7fed3b5cc8249adc428c5f44c9063b9734b4",
            "0x000000000000000000000000c77f7fed3b5cc8249adc428c5f44c9063b9734b4"
          ],
          "data": "0x0000000000000000000000000000000000000000000000000000000000002ece",
          "blockHash": "0xd29b1b3f97a889581e23c98f640c4c7ec6ec0e1de68856f67bf4eb5059932201",
          "blockNumber": "0x7316d4",
          "transactionHash": "0xd018cf416cc7563b2344131679423f94dad8443ddb8f3a8f3f257f58de97f1da",
          "transactionIndex": "0x86",
          "logIndex": "0xc9",
          "removed": false
        },
        {
          "address": "0x8aafd3ede9adb0ff97c7aebce82a919afb1c8764",
          "topics": [
            "0x4afcb4a87cdbd9974efdb92ee48bc8d7cd0ae4bf217004db3d080cbaee652ca7"
          ],
          "data": "0x0000000000000000000000000000000000000000000000000000000067900ea80000000000000000000000000000000000000000000000000004f20447b436670000000000000000000000000000000000000000000000000000000000000824",
          "blockHash": "0xd29b1b3f97a889581e23c98f640c4c7ec6ec0e1de68856f67bf4eb5059932201",
          "blockNumber": "0x7316d4",
          "transactionHash": "0xd018cf416cc7563b2344131679423f94dad8443ddb8f3a8f3f257f58de97f1da",
          "transactionIndex": "0x86",
          "logIndex": "0xca",
          "removed": false
        }
      ],
      "logsBloom": "0x00000000000000000000000000000000000000000600000000000000000000000000000000000000000000000000000000000000000000004000000000000000000000000000004000000008000000000000000000000000000000000000000000000000020000000000000000000800020000000000000000000010000000000000000000000000000000000000000000000000000000000000010000000000000000000000000000000000000000004000000000000000000000000000000000000002000000800000000000000000000000000000080000000000000020000000000000000000000000000000000000000000000000000000000000000000",
      "type": "0x2",
      "transactionHash": "0xd018cf416cc7563b2344131679423f94dad8443ddb8f3a8f3f257f58de97f1da",
      "transactionIndex": "0x86",
      "blockHash": "0xd29b1b3f97a889581e23c98f640c4c7ec6ec0e1de68856f67bf4eb5059932201",
      "blockNumber": "0x7316d4",
      "gasUsed": "0xf213",
      "effectiveGasPrice": "0x469de5b9",
      "from": "0xc77f7fed3b5cc8249adc428c5f44c9063b9734b4",
      "to": "0x8aafd3ede9adb0ff97c7aebce82a919afb1c8764",
      "contractAddress": null
    }
  ],
  "libraries": [],
  "pending": [],
  "returns": {},
  "timestamp": 1737494186,
  "chain": 11155111,
  "commit": "1d2fb70"
}