{
  "transactions": [
    {
      "hash": "0xb6098f80991c88baa08051c10ca08582242ce338572b3e094e14514545d6eb96",
      "transactionType": "CALL",
      "contractName": null,
      "contractAddress": "0x270e88f8683660553e8ba4eb2ad7c91a1710d769",
      "function": "sell(uint256)",
      "arguments": [
        "727876625486548521731"
      ],
      "transaction": {
        "from": "0xc77f7fed3b5cc8249adc428c5f44c9063b9734b4",
        "to": "0x270e88f8683660553e8ba4eb2ad7c91a1710d769",
        "gas": "0x16fec",
        "value": "0x0",
        "input": "0xe4849b3200000000000000000000000000000000000000000000002775513e6ca3c35303",
        "nonce": "0x7c6",
        "chainId": "0xaa36a7"
      },
      "additionalContracts": [],
      "isFixedGasLimit": false
    }
  ],
  "receipts": [
    {
      "status": "0x1",
      "cumulativeGasUsed": "0x8fc725",
      "logs": [
        {
          "address": "0x270e88f8683660553e8ba4eb2ad7c91a1710d769",
          "topics": [
            "0xddf252ad1be2c89b69c2b068fc378daa952ba7f163c4a11628f55a4df523b3ef",
            "0x000000000000000000000000c77f7fed3b5cc8249adc428c5f44c9063b9734b4",
            "0x0000000000000000000000000000000000000000000000000000000000000000"
          ],
          "data": "0x00000000000000000000000000000000000000000000002775513e6ca3c35303",
          "blockHash": "0xf64186168d89d80f89eb18c5517f769df4d1c12ccf3dffa57d61164e423d01e7",
          "blockNumber": "0x7254fe",
          "transactionHash": "0xb6098f80991c88baa08051c10ca08582242ce338572b3e094e14514545d6eb96",
          "transactionIndex": "0x6c",
          "logIndex": "0x8d",
          "removed": false
        },
        {
          "address": "0x270e88f8683660553e8ba4eb2ad7c91a1710d769",
          "topics": [
            "0x4afcb4a87cdbd9974efdb92ee48bc8d7cd0ae4bf217004db3d080cbaee652ca7"
          ],
          "data": "0x000000000000000000000000000000000000000000000000000000006786edf00000000000000000000000000000000000000000000000000004d91158457a730000000000000000000000000000000000000000000000000dc8273eb57b13cf",
          "blockHash": "0xf64186168d89d80f89eb18c5517f769df4d1c12ccf3dffa57d61164e423d01e7",
          "blockNumber": "0x7254fe",
          "transactionHash": "0xb6098f80991c88baa08051c10ca08582242ce338572b3e094e14514545d6eb96",
          "transactionIndex": "0x6c",
          "logIndex": "0x8e",
          "removed": false
        }
      ],
      "logsBloom": "0x00000000000000000000000000000000000000000000000000000000000000000000000000000000000000000000000020000000000000004000000000000000000000000000000000000008000000000000000000000000000000000000000000000000020000000000000000000800020000000000000000000010000000000000000000010000000000000000000000000000000000000000010000000000000000000000000000000000000000004000000000000000000000000000000000000002000000800000000000000000000000000000080000008000000020000000000000000000000000000000000000000000000000000000000000000000",
      "type": "0x2",
      "transactionHash": "0xb6098f80991c88baa08051c10ca08582242ce338572b3e094e14514545d6eb96",
      "transactionIndex": "0x6c",
      "blockHash": "0xf64186168d89d80f89eb18c5517f769df4d1c12ccf3dffa57d61164e423d01e7",
      "blockNumber": "0x7254fe",
      "gasUsed": "0xfb93",
      "effectiveGasPrice": "0xbb9e1284",
      "from": "0xc77f7fed3b5cc8249adc428c5f44c9063b9734b4",
      "to": "0x270e88f8683660553e8ba4eb2ad7c91a1710d769",
      "contractAddress": null
    }
  ],
  "libraries": [],
  "pending": [],
  "returns": {},
  "timestamp": 1736895985,
  "chain": 11155111,
  "commit": "51a374b"
}