{
  "transactions": [
    {
      "hash": "0x45656bcb221eb5995c85f08743a495bcd7784ced48af3ea4b71f8469fe5065b4",
      "transactionType": "CALL",
      "contractName": null,
      "contractAddress": "0xbf4a322f1496e5c3d34a9bcdb4c60567b38c7de2",
      "function": "sell(uint256)",
      "arguments": [
        "975788091947357541617"
      ],
      "transaction": {
        "from": "0xc77f7fed3b5cc8249adc428c5f44c9063b9734b4",
        "to": "0xbf4a322f1496e5c3d34a9bcdb4c60567b38c7de2",
        "gas": "0x16fea",
        "value": "0x0",
        "input": "0xe4849b32000000000000000000000000000000000000000000000034e5c7b3ade27394f1",
        "nonce": "0xd53",
        "chainId": "0xaa36a7"
      },
      "additionalContracts": [],
      "isFixedGasLimit": false
    }
  ],
  "receipts": [
    {
      "status": "0x1",
      "cumulativeGasUsed": "0x7c832c",
      "logs": [
        {
          "address": "0xbf4a322f1496e5c3d34a9bcdb4c60567b38c7de2",
          "topics": [
            "0xddf252ad1be2c89b69c2b068fc378daa952ba7f163c4a11628f55a4df523b3ef",
            "0x000000000000000000000000c77f7fed3b5cc8249adc428c5f44c9063b9734b4",
            "0x0000000000000000000000000000000000000000000000000000000000000000"
          ],
          "data": "0x000000000000000000000000000000000000000000000034e5c7b3ade27394f1",
          "blockHash": "0xff7727fc94404a9dadf224abae1cd54f4e4fefc73ead0e810146ed4cd5314131",
          "blockNumber": "0x725dba",
          "transactionHash": "0x45656bcb221eb5995c85f08743a495bcd7784ced48af3ea4b71f8469fe5065b4",
          "transactionIndex": "0x56",
          "logIndex": "0x80",
          "removed": false
        },
        {
          "address": "0xbf4a322f1496e5c3d34a9bcdb4c60567b38c7de2",
          "topics": [
            "0x4afcb4a87cdbd9974efdb92ee48bc8d7cd0ae4bf217004db3d080cbaee652ca7"
          ],
          "data": "0x000000000000000000000000000000000000000000000000000000006787572c00000000000000000000000000000000000000000000000000039d90b8577d050000000000000000000000000000000000000000000000000dc7e3d846003a1a",
          "blockHash": "0xff7727fc94404a9dadf224abae1cd54f4e4fefc73ead0e810146ed4cd5314131",
          "blockNumber": "0x725dba",
          "transactionHash": "0x45656bcb221eb5995c85f08743a495bcd7784ced48af3ea4b71f8469fe5065b4",
          "transactionIndex": "0x56",
          "logIndex": "0x81",
          "removed": false
        }
      ],
      "logsBloom": "0x00000000000000000000000000000000000000000000000000000000000000000000000000000000000000000000000000000000000000004000000000000000000000000000000000000008000000000000001000000000000000000000000000000000020000000000000000000800020000000000000000000010000000000000000000000000000000000000000000000000000008000000010000000000000000000000000000000000000000004000000000000000000000000000000000000002000000800000000000001000000000000000080000000000000020000000000000000000000000000000000000000000000000000000000000000000",
      "type": "0x2",
      "transactionHash": "0x45656bcb221eb5995c85f08743a495bcd7784ced48af3ea4b71f8469fe5065b4",
      "transactionIndex": "0x56",
      "blockHash": "0xff7727fc94404a9dadf224abae1cd54f4e4fefc73ead0e810146ed4cd5314131",
      "blockNumber": "0x725dba",
      "gasUsed": "0xfb91",
      "effectiveGasPrice": "0x3f497bde6",
      "from": "0xc77f7fed3b5cc8249adc428c5f44c9063b9734b4",
      "to": "0xbf4a322f1496e5c3d34a9bcdb4c60567b38c7de2",
      "contractAddress": null
    }
  ],
  "libraries": [],
  "pending": [],
  "returns": {},
  "timestamp": 1736922925,
  "chain": 11155111,
  "commit": "51a374b"
}