{
  "transactions": [
    {
      "hash": "0x60a8ff4e67aa1bea4f60650694296d3a61ee10955f76c28c305fab5e9624ba59",
      "transactionType": "CALL",
      "contractName": null,
      "contractAddress": "0x8aafd3ede9adb0ff97c7aebce82a919afb1c8764",
      "function": "sell(uint256)",
      "arguments": [
        "22980090957"
      ],
      "transaction": {
        "from": "0xc77f7fed3b5cc8249adc428c5f44c9063b9734b4",
        "to": "0x8aafd3ede9adb0ff97c7aebce82a919afb1c8764",
        "gas": "0x1722a",
        "value": "0x0",
        "input": "0xe4849b320000000000000000000000000000000000000000000000000000000559b85c4d",
        "nonce": "0x10f0",
        "chainId": "0xaa36a7"
      },
      "additionalContracts": [],
      "isFixedGasLimit": false
    }
  ],
  "receipts": [
    {
      "status": "0x1",
      "cumulativeGasUsed": "0x121e861",
      "logs": [
        {
          "address": "0x8aafd3ede9adb0ff97c7aebce82a919afb1c8764",
          "topics": [
            "0xddf252ad1be2c89b69c2b068fc378daa952ba7f163c4a11628f55a4df523b3ef",
            "0x000000000000000000000000c77f7fed3b5cc8249adc428c5f44c9063b9734b4",
            "0x0000000000000000000000000000000000000000000000000000000000000000"
          ],
          "data": "0x000000000000000000000000000000000000000000000000000000054ec32c76",
          "blockHash": "0x226a61b0e9e0b4dac2f61e5d8506d7131428f27b08189cfe97232f0483b90598",
          "blockNumber": "0x731797",
          "transactionHash": "0x60a8ff4e67aa1bea4f60650694296d3a61ee10955f76c28c305fab5e9624ba59",
          "transactionIndex": "0xc6",
          "logIndex": "0x118",
          "removed": false
        },
        {
          "address": "0x8aafd3ede9adb0ff97c7aebce82a919afb1c8764",
          "topics": [
            "0xddf252ad1be2c89b69c2b068fc378daa952ba7f163c4a11628f55a4df523b3ef",
            "0x000000000000000000000000c77f7fed3b5cc8249adc428c5f44c9063b9734b4",
            "0x000000000000000000000000c77f7fed3b5cc8249adc428c5f44c9063b9734b4"
          ],
          "data": "0x000000000000000000000000000000000000000000000000000000000af52fd7",
          "blockHash": "0x226a61b0e9e0b4dac2f61e5d8506d7131428f27b08189cfe97232f0483b90598",
          "blockNumber": "0x731797",
          "transactionHash": "0x60a8ff4e67aa1bea4f60650694296d3a61ee10955f76c28c305fab5e9624ba59",
          "transactionIndex": "0xc6",
          "logIndex": "0x119",
          "removed": false
        },
        {
          "address": "0x8aafd3ede9adb0ff97c7aebce82a919afb1c8764",
          "topics": [
            "0x4afcb4a87cdbd9974efdb92ee48bc8d7cd0ae4bf217004db3d080cbaee652ca7"
          ],
          "data": "0x00000000000000000000000000000000000000000000000000000000679017d800000000000000000000000000000000000000000000000000050941056c5e840000000000000000000000000000000000000000000000000000000001f10fbe",
          "blockHash": "0x226a61b0e9e0b4dac2f61e5d8506d7131428f27b08189cfe97232f0483b90598",
          "blockNumber": "0x731797",
          "transactionHash": "0x60a8ff4e67aa1bea4f60650694296d3a61ee10955f76c28c305fab5e9624ba59",
          "transactionIndex": "0xc6",
          "logIndex": "0x11a",
          "removed": false
        }
      ],
      "logsBloom": "0x00000000000000000000000000000000000000000600000000000000000000000000000000000000000000000000000000000000000000004000000000000000000000000000004000000008000000000000000000000000000000000000000000000000020000000000000000000800020000000000000000000010000000000000000000000000000000000000000000000000000000000000010000000000000000000000000000000000000000004000000000000000000000000000000000000002000000800000000000000000000000000000080000000000000020000000000000000000000000000000000000000000000000000000000000000000",
      "type": "0x2",
      "transactionHash": "0x60a8ff4e67aa1bea4f60650694296d3a61ee10955f76c28c305fab5e9624ba59",
      "transactionIndex": "0xc6",
      "blockHash": "0x226a61b0e9e0b4dac2f61e5d8506d7131428f27b08189cfe97232f0483b90598",
      "blockNumber": "0x731797",
      "gasUsed": "0xfd1b",
      "effectiveGasPrice": "0x3e25a55f",
      "from": "0xc77f7fed3b5cc8249adc428c5f44c9063b9734b4",
      "to": "0x8aafd3ede9adb0ff97c7aebce82a919afb1c8764",
      "contractAddress": null
    }
  ],
  "libraries": [],
  "pending": [],
  "returns": {},
  "timestamp": 1737496538,
  "chain": 11155111,
  "commit": "1d2fb70"
}