{
  "transactions": [
    {
      "hash": "0x2f35ac2aa74e123853d24885a77db0c92070f57321a32125a1a9e021c46fdaa2",
      "transactionType": "CALL",
      "contractName": null,
      "contractAddress": "0x8aafd3ede9adb0ff97c7aebce82a919afb1c8764",
      "function": "sell(uint256)",
      "arguments": [
        "6126018450"
      ],
      "transaction": {
        "from": "0xc77f7fed3b5cc8249adc428c5f44c9063b9734b4",
        "to": "0x8aafd3ede9adb0ff97c7aebce82a919afb1c8764",
        "gas": "0x1722a",
        "value": "0x0",
        "input": "0xe4849b32000000000000000000000000000000000000000000000000000000016d239f92",
        "nonce": "0x15a6",
        "chainId": "0xaa36a7"
      },
      "additionalContracts": [],
      "isFixedGasLimit": false
    }
  ],
  "receipts": [
    {
      "status": "0x1",
      "cumulativeGasUsed": "0xdf2898",
      "logs": [
        {
          "address": "0x8aafd3ede9adb0ff97c7aebce82a919afb1c8764",
          "topics": [
            "0xddf252ad1be2c89b69c2b068fc378daa952ba7f163c4a11628f55a4df523b3ef",
            "0x000000000000000000000000c77f7fed3b5cc8249adc428c5f44c9063b9734b4",
            "0x0000000000000000000000000000000000000000000000000000000000000000"
          ],
          "data": "0x000000000000000000000000000000000000000000000000000000016a37d17f",
          "blockHash": "0xb435a9801970de3d83f35cf3d48b086153e6d69a7b8da7ea25b54a9931450ded",
          "blockNumber": "0x731d1b",
          "transactionHash": "0x2f35ac2aa74e123853d24885a77db0c92070f57321a32125a1a9e021c46fdaa2",
          "transactionIndex": "0x66",
          "logIndex": "0xac",
          "removed": false
        },
        {
          "address": "0x8aafd3ede9adb0ff97c7aebce82a919afb1c8764",
          "topics": [
            "0xddf252ad1be2c89b69c2b068fc378daa952ba7f163c4a11628f55a4df523b3ef",
            "0x000000000000000000000000c77f7fed3b5cc8249adc428c5f44c9063b9734b4",
            "0x000000000000000000000000c77f7fed3b5cc8249adc428c5f44c9063b9734b4"
          ],
          "data": "0x0000000000000000000000000000000000000000000000000000000002ebce13",
          "blockHash": "0xb435a9801970de3d83f35cf3d48b086153e6d69a7b8da7ea25b54a9931450ded",
          "blockNumber": "0x731d1b",
          "transactionHash": "0x2f35ac2aa74e123853d24885a77db0c92070f57321a32125a1a9e021c46fdaa2",
          "transactionIndex": "0x66",
          "logIndex": "0xad",
          "removed": false
        },
        {
          "address": "0x8aafd3ede9adb0ff97c7aebce82a919afb1c8764",
          "topics": [
            "0x4afcb4a87cdbd9974efdb92ee48bc8d7cd0ae4bf217004db3d080cbaee652ca7"
          ],
          "data": "0x0000000000000000000000000000000000000000000000000000000067905a2c0000000000000000000000000000000000000000000000000012f9864555c7820000000000000000000000000000000000000000000000000000000001f33e90",
          "blockHash": "0xb435a9801970de3d83f35cf3d48b086153e6d69a7b8da7ea25b54a9931450ded",
          "blockNumber": "0x731d1b",
          "transactionHash": "0x2f35ac2aa74e123853d24885a77db0c92070f57321a32125a1a9e021c46fdaa2",
          "transactionIndex": "0x66",
          "logIndex": "0xae",
          "removed": false
        }
      ],
      "logsBloom": "0x00000000000000000000000000000000000000000600000000000000000000000000000000000000000000000000000000000000000000004000000000000000000000000000004000000008000000000000000000000000000000000000000000000000020000000000000000000800020000000000000000000010000000000000000000000000000000000000000000000000000000000000010000000000000000000000000000000000000000004000000000000000000000000000000000000002000000800000000000000000000000000000080000000000000020000000000000000000000000000000000000000000000000000000000000000000",
      "type": "0x2",
      "transactionHash": "0x2f35ac2aa74e123853d24885a77db0c92070f57321a32125a1a9e021c46fdaa2",
      "transactionIndex": "0x66",
      "blockHash": "0xb435a9801970de3d83f35cf3d48b086153e6d69a7b8da7ea25b54a9931450ded",
      "blockNumber": "0x731d1b",
      "gasUsed": "0xfd1b",
      "effectiveGasPrice": "0x4f77158b",
      "from": "0xc77f7fed3b5cc8249adc428c5f44c9063b9734b4",
      "to": "0x8aafd3ede9adb0ff97c7aebce82a919afb1c8764",
      "contractAddress": null
    }
  ],
  "libraries": [],
  "pending": [],
  "returns": {},
  "timestamp": 1737513517,
  "chain": 11155111,
  "commit": "1d2fb70"
}