{
  "transactions": [
    {
      "hash": "0x66cc0b357f0e920d971650c0631a47e36dee8b43f28631c9d4081c34df592845",
      "transactionType": "CALL",
      "contractName": null,
      "contractAddress": "0x8aafd3ede9adb0ff97c7aebce82a919afb1c8764",
      "function": "sell(uint256)",
      "arguments": [
        "45812949943758417"
      ],
      "transaction": {
        "from": "0xc77f7fed3b5cc8249adc428c5f44c9063b9734b4",
        "to": "0x8aafd3ede9adb0ff97c7aebce82a919afb1c8764",
        "gas": "0x1724d",
        "value": "0x0",
        "input": "0xe4849b3200000000000000000000000000000000000000000000000000a2c2a29f82ae51",
        "nonce": "0x1039",
        "chainId": "0xaa36a7"
      },
      "additionalContracts": [],
      "isFixedGasLimit": false
    }
  ],
  "receipts": [
    {
      "status": "0x1",
      "cumulativeGasUsed": "0xb6f1e5",
      "logs": [
        {
          "address": "0x8aafd3ede9adb0ff97c7aebce82a919afb1c8764",
          "topics": [
            "0xddf252ad1be2c89b69c2b068fc378daa952ba7f163c4a11628f55a4df523b3ef",
            "0x000000000000000000000000c77f7fed3b5cc8249adc428c5f44c9063b9734b4",
            "0x0000000000000000000000000000000000000000000000000000000000000000"
          ],
          "data": "0x00000000000000000000000000000000000000000000000000a1754d5aa67fde",
          "blockHash": "0x452306dd0a1a6c52303b1ed729d241fe18157d096bfbcac7f5198f2781dccf3e",
          "blockNumber": "0x7316b7",
          "transactionHash": "0x66cc0b357f0e920d971650c0631a47e36dee8b43f28631c9d4081c34df592845",
          "transactionIndex": "0x85",
          "logIndex": "0x13e",
          "removed": false
        },
        {
          "address": "0x8aafd3ede9adb0ff97c7aebce82a919afb1c8764",
          "topics": [
            "0xddf252ad1be2c89b69c2b068fc378daa952ba7f163c4a11628f55a4df523b3ef",
            "0x000000000000000000000000c77f7fed3b5cc8249adc428c5f44c9063b9734b4",
            "0x000000000000000000000000c77f7fed3b5cc8249adc428c5f44c9063b9734b4"
          ],
          "data": "0x00000000000000000000000000000000000000000000000000014d5544dc2e73",
          "blockHash": "0x452306dd0a1a6c52303b1ed729d241fe18157d096bfbcac7f5198f2781dccf3e",
          "blockNumber": "0x7316b7",
          "transactionHash": "0x66cc0b357f0e920d971650c0631a47e36dee8b43f28631c9d4081c34df592845",
          "transactionIndex": "0x85",
          "logIndex": "0x13f",
          "removed": false
        },
        {
          "address": "0x8aafd3ede9adb0ff97c7aebce82a919afb1c8764",
          "topics": [
            "0x4afcb4a87cdbd9974efdb92ee48bc8d7cd0ae4bf217004db3d080cbaee652ca7"
          ],
          "data": "0x0000000000000000000000000000000000000000000000000000000067900d4c0000000000000000000000000000000000000000000000000004ef1cc9378221000000000000000000000000000000000000000000000000000039dded6ee922",
          "blockHash": "0x452306dd0a1a6c52303b1ed729d241fe18157d096bfbcac7f5198f2781dccf3e",
          "blockNumber": "0x7316b7",
          "transactionHash": "0x66cc0b357f0e920d971650c0631a47e36dee8b43f28631c9d4081c34df592845",
          "transactionIndex": "0x85",
          "logIndex": "0x140",
          "removed": false
        }
      ],
      "logsBloom": "0x00000000000000000000000000000000000000000600000000000000000000000000000000000000000000000000000000000000000000004000000000000000000000000000004000000008000000000000000000000000000000000000000000000000020000000000000000000800020000000000000000000010000000000000000000000000000000000000000000000000000000000000010000000000000000000000000000000000000000004000000000000000000000000000000000000002000000800000000000000000000000000000080000000000000020000000000000000000000000000000000000000000000000000000000000000000",
      "type": "0x2",
      "transactionHash": "0x66cc0b357f0e920d971650c0631a47e36dee8b43f28631c9d4081c34df592845",
      "transactionIndex": "0x85",
      "blockHash": "0x452306dd0a1a6c52303b1ed729d241fe18157d096bfbcac7f5198f2781dccf3e",
      "blockNumber": "0x7316b7",
      "gasUsed": "0xfd33",
      "effectiveGasPrice": "0x4ca127da",
      "from": "0xc77f7fed3b5cc8249adc428c5f44c9063b9734b4",
      "to": "0x8aafd3ede9adb0ff97c7aebce82a919afb1c8764",
      "contractAddress": null
    }
  ],
  "libraries": [],
  "pending": [],
  "returns": {},
  "timestamp": 1737493838,
  "chain": 11155111,
  "commit": "1d2fb70"
}