{
  "transactions": [
    {
      "hash": "0xa14ae25faf1af45d3a76429e4b1ae2e5a2d818a3906a22f3b4ebbc1a0fe4b243",
      "transactionType": "CALL",
      "contractName": null,
      "contractAddress": "0x8aafd3ede9adb0ff97c7aebce82a919afb1c8764",
      "function": "sell(uint256)",
      "arguments": [
        "341030"
      ],
      "transaction": {
        "from": "0xc77f7fed3b5cc8249adc428c5f44c9063b9734b4",
        "to": "0x8aafd3ede9adb0ff97c7aebce82a919afb1c8764",
        "gas": "0x16208",
        "value": "0x0",
        "input": "0xe4849b320000000000000000000000000000000000000000000000000000000000053426",
        "nonce": "0x169b",
        "chainId": "0xaa36a7"
      },
      "additionalContracts": [],
      "isFixedGasLimit": false
    }
  ],
  "receipts": [
    {
      "status": "0x1",
      "cumulativeGasUsed": "0x7dd1ca",
      "logs": [
        {
          "address": "0x8aafd3ede9adb0ff97c7aebce82a919afb1c8764",
          "topics": [
            "0xddf252ad1be2c89b69c2b068fc378daa952ba7f163c4a11628f55a4df523b3ef",
            "0x000000000000000000000000c77f7fed3b5cc8249adc428c5f44c9063b9734b4",
            "0x0000000000000000000000000000000000000000000000000000000000000000"
          ],
          "data": "0x000000000000000000000000000000000000000000000000000000000005297e",
          "blockHash": "0x5cc48c9513cf7043294dbe854abf9ee481c66bb8c89f33886a517e89c7e19b84",
          "blockNumber": "0x731e51",
          "transactionHash": "0xa14ae25faf1af45d3a76429e4b1ae2e5a2d818a3906a22f3b4ebbc1a0fe4b243",
          "transactionIndex": "0x5a",
          "logIndex": "0x83",
          "removed": false
        },
        {
          "address": "0x8aafd3ede9adb0ff97c7aebce82a919afb1c8764",
          "topics": [
            "0xddf252ad1be2c89b69c2b068fc378daa952ba7f163c4a11628f55a4df523b3ef",
            "0x000000000000000000000000c77f7fed3b5cc8249adc428c5f44c9063b9734b4",
            "0x000000000000000000000000c77f7fed3b5cc8249adc428c5f44c9063b9734b4"
          ],
          "data": "0x0000000000000000000000000000000000000000000000000000000000000aa8",
          "blockHash": "0x5cc48c9513cf7043294dbe854abf9ee481c66bb8c89f33886a517e89c7e19b84",
          "blockNumber": "0x731e51",
          "transactionHash": "0xa14ae25faf1af45d3a76429e4b1ae2e5a2d818a3906a22f3b4ebbc1a0fe4b243",
          "transactionIndex": "0x5a",
          "logIndex": "0x84",
          "removed": false
        },
        {
          "address": "0x8aafd3ede9adb0ff97c7aebce82a919afb1c8764",
          "topics": [
            "0x4afcb4a87cdbd9974efdb92ee48bc8d7cd0ae4bf217004db3d080cbaee652ca7"
          ],
          "data": "0x00000000000000000000000000000000000000000000000000000000679068b40000000000000000000000000000000000000000000000000015cca090b9dda4000000000000000000000000000000000000000000000000000000000000082c",
          "blockHash": "0x5cc48c9513cf7043294dbe854abf9ee481c66bb8c89f33886a517e89c7e19b84",
          "blockNumber": "0x731e51",
          "transactionHash": "0xa14ae25faf1af45d3a76429e4b1ae2e5a2d818a3906a22f3b4ebbc1a0fe4b243",
          "transactionIndex": "0x5a",
          "logIndex": "0x85",
          "removed": false
        }
      ],
      "logsBloom": "0x00000000000000000000000000000000000000000600000000000000000000000000000000000000000000000000000000000000000000004000000000000000000000000000004000000008000000000000000000000000000000000000000000000000020000000000000000000800020000000000000000000010000000000000000000000000000000000000000000000000000000000000010000000000000000000000000000000000000000004000000000000000000000000000000000000002000000800000000000000000000000000000080000000000000020000000000000000000000000000000000000000000000000000000000000000000",
      "type": "0x2",
      "transactionHash": "0xa14ae25faf1af45d3a76429e4b1ae2e5a2d818a3906a22f3b4ebbc1a0fe4b243",
      "transactionIndex": "0x5a",
      "blockHash": "0x5cc48c9513cf7043294dbe854abf9ee481c66bb8c89f33886a517e89c7e19b84",
      "blockNumber": "0x731e51",
      "gasUsed": "0xf213",
      "effectiveGasPrice": "0x638993ef",
      "from": "0xc77f7fed3b5cc8249adc428c5f44c9063b9734b4",
      "to": "0x8aafd3ede9adb0ff97c7aebce82a919afb1c8764",
      "contractAddress": null
    }
  ],
  "libraries": [],
  "pending": [],
  "returns": {},
  "timestamp": 1737517236,
  "chain": 11155111,
  "commit": "1d2fb70"
}