{
  "transactions": [
    {
      "hash": "0x723773b7a025fa26f7a4561f3d90f885d184e13e2876c607e7b6b05062762454",
      "transactionType": "CALL",
      "contractName": null,
      "contractAddress": "0x8aafd3ede9adb0ff97c7aebce82a919afb1c8764",
      "function": "sell(uint256)",
      "arguments": [
        "12553"
      ],
      "transaction": {
        "from": "0xc77f7fed3b5cc8249adc428c5f44c9063b9734b4",
        "to": "0x8aafd3ede9adb0ff97c7aebce82a919afb1c8764",
        "gas": "0x14e4c",
        "value": "0x0",
        "input": "0xe4849b320000000000000000000000000000000000000000000000000000000000003109",
        "nonce": "0xea4",
        "chainId": "0xaa36a7"
      },
      "additionalContracts": [],
      "isFixedGasLimit": false
    }
  ],
  "receipts": [
    {
      "status": "0x1",
      "cumulativeGasUsed": "0x118ce09",
      "logs": [
        {
          "address": "0x8aafd3ede9adb0ff97c7aebce82a919afb1c8764",
          "topics": [
            "0xddf252ad1be2c89b69c2b068fc378daa952ba7f163c4a11628f55a4df523b3ef",
            "0x000000000000000000000000c77f7fed3b5cc8249adc428c5f44c9063b9734b4",
            "0x0000000000000000000000000000000000000000000000000000000000000000"
          ],
          "data": "0x00000000000000000000000000000000000000000000000000000000000030a5",
          "blockHash": "0xa3d11f97dde0eb6adaef62166ba5325db8a9bf8896defa305d283cab4e6c872f",
          "blockNumber": "0x731407",
          "transactionHash": "0x723773b7a025fa26f7a4561f3d90f885d184e13e2876c607e7b6b05062762454",
          "transactionIndex": "0x91",
          "logIndex": "0xbe",
          "removed": false
        },
        {
          "address": "0x8aafd3ede9adb0ff97c7aebce82a919afb1c8764",
          "topics": [
            "0xddf252ad1be2c89b69c2b068fc378daa952ba7f163c4a11628f55a4df523b3ef",
            "0x000000000000000000000000c77f7fed3b5cc8249adc428c5f44c9063b9734b4",
            "0x000000000000000000000000c77f7fed3b5cc8249adc428c5f44c9063b9734b4"
          ],
          "data": "0x0000000000000000000000000000000000000000000000000000000000000064",
          "blockHash": "0xa3d11f97dde0eb6adaef62166ba5325db8a9bf8896defa305d283cab4e6c872f",
          "blockNumber": "0x731407",
          "transactionHash": "0x723773b7a025fa26f7a4561f3d90f885d184e13e2876c607e7b6b05062762454",
          "transactionIndex": "0x91",
          "logIndex": "0xbf",
          "removed": false
        },
        {
          "address": "0x8aafd3ede9adb0ff97c7aebce82a919afb1c8764",
          "topics": [
            "0x4afcb4a87cdbd9974efdb92ee48bc8d7cd0ae4bf217004db3d080cbaee652ca7"
          ],
          "data": "0x00000000000000000000000000000000000000000000000000000000678fed000000000000000000000000000000000000000000000000000004b75e1e86aa5d0000000000000000000000000000000000000000000000000000000000000010",
          "blockHash": "0xa3d11f97dde0eb6adaef62166ba5325db8a9bf8896defa305d283cab4e6c872f",
          "blockNumber": "0x731407",
          "transactionHash": "0x723773b7a025fa26f7a4561f3d90f885d184e13e2876c607e7b6b05062762454",
          "transactionIndex": "0x91",
          "logIndex": "0xc0",
          "removed": false
        }
      ],
      "logsBloom": "0x00000000000000000000000000000000000000000600000000000000000000000000000000000000000000000000000000000000000000004000000000000000000000000000004000000008000000000000000000000000000000000000000000000000020000000000000000000800020000000000000000000010000000000000000000000000000000000000000000000000000000000000010000000000000000000000000000000000000000004000000000000000000000000000000000000002000000800000000000000000000000000000080000000000000020000000000000000000000000000000000000000000000000000000000000000000",
      "type": "0x2",
      "transactionHash": "0x723773b7a025fa26f7a4561f3d90f885d184e13e2876c607e7b6b05062762454",
      "transactionIndex": "0x91",
      "blockHash": "0xa3d11f97dde0eb6adaef62166ba5325db8a9bf8896defa305d283cab4e6c872f",
      "blockNumber": "0x731407",
      "gasUsed": "0xf207",
      "effectiveGasPrice": "0x7ab9d062",
      "from": "0xc77f7fed3b5cc8249adc428c5f44c9063b9734b4",
      "to": "0x8aafd3ede9adb0ff97c7aebce82a919afb1c8764",
      "contractAddress": null
    }
  ],
  "libraries": [],
  "pending": [],
  "returns": {},
  "timestamp": 1737485569,
  "chain": 11155111,
  "commit": "51a374b"
}