{
  "transactions": [
    {
      "hash": "0x9b064f89f92a3c5aa87883d548aa60e9a3ed3714bf825ab5f11d5172aaf62632",
      "transactionType": "CALL",
      "contractName": null,
      "contractAddress": "0xbf4a322f1496e5c3d34a9bcdb4c60567b38c7de2",
      "function": "sell(uint256)",
      "arguments": [
        "974936904031560147426"
      ],
      "transaction": {
        "from": "0xc77f7fed3b5cc8249adc428c5f44c9063b9734b4",
        "to": "0xbf4a322f1496e5c3d34a9bcdb4c60567b38c7de2",
        "gas": "0x16fea",
        "value": "0x0",
        "input": "0xe4849b32000000000000000000000000000000000000000000000034d9f7acc7943e21e2",
        "nonce": "0xd93",
        "chainId": "0xaa36a7"
      },
      "additionalContracts": [],
      "isFixedGasLimit": false
    }
  ],
  "receipts": [
    {
      "status": "0x1",
      "cumulativeGasUsed": "0x922f59",
      "logs": [
        {
          "address": "0xbf4a322f1496e5c3d34a9bcdb4c60567b38c7de2",
          "topics": [
            "0xddf252ad1be2c89b69c2b068fc378daa952ba7f163c4a11628f55a4df523b3ef",
            "0x000000000000000000000000c77f7fed3b5cc8249adc428c5f44c9063b9734b4",
            "0x0000000000000000000000000000000000000000000000000000000000000000"
          ],
          "data": "0x000000000000000000000000000000000000000000000034d9f7acc7943e21e2",
          "blockHash": "0x44cf076df2f91070d7190e833f8e831aff072eb3fac65a435fd75171f108d8ca",
          "blockNumber": "0x726667",
          "transactionHash": "0x9b064f89f92a3c5aa87883d548aa60e9a3ed3714bf825ab5f11d5172aaf62632",
          "transactionIndex": "0x5d",
          "logIndex": "0x89",
          "removed": false
        },
        {
          "address": "0xbf4a322f1496e5c3d34a9bcdb4c60567b38c7de2",
          "topics": [
            "0x4afcb4a87cdbd9974efdb92ee48bc8d7cd0ae4bf217004db3d080cbaee652ca7"
          ],
          "data": "0x000000000000000000000000000000000000000000000000000000006787bf9c00000000000000000000000000000000000000000000000000039e5f956e0df50000000000000000000000000000000000000000000000000dc7e3d64b5c3616",
          "blockHash": "0x44cf076df2f91070d7190e833f8e831aff072eb3fac65a435fd75171f108d8ca",
          "blockNumber": "0x726667",
          "transactionHash": "0x9b064f89f92a3c5aa87883d548aa60e9a3ed3714bf825ab5f11d5172aaf62632",
          "transactionIndex": "0x5d",
          "logIndex": "0x8a",
          "removed": false
        }
      ],
      "logsBloom": "0x00000000000000000000000000000000000000000000000000000000000000000000000000000000000000000000000000000000000000004000000000000000000000000000000000000008000000000000001000000000000000000000000000000000020000000000000000000800020000000000000000000010000000000000000000000000000000000000000000000000000008000000010000000000000000000000000000000000000000004000000000000000000000000000000000000002000000800000000000001000000000000000080000000000000020000000000000000000000000000000000000000000000000000000000000000000",
      "type": "0x2",
      "transactionHash": "0x9b064f89f92a3c5aa87883d548aa60e9a3ed3714bf825ab5f11d5172aaf62632",
      "transactionIndex": "0x5d",
      "blockHash": "0x44cf076df2f91070d7190e833f8e831aff072eb3fac65a435fd75171f108d8ca",
      "blockNumber": "0x726667",
      "gasUsed": "0xfb91",
      "effectiveGasPrice": "0x9ea08130",
      "from": "0xc77f7fed3b5cc8249adc428c5f44c9063b9734b4",
      "to": "0xbf4a322f1496e5c3d34a9bcdb4c60567b38c7de2",
      "contractAddress": null
    }
  ],
  "libraries": [],
  "pending": [],
  "returns": {},
  "timestamp": 1736949663,
  "chain": 11155111,
  "commit": "51a374b"
}