{
  "transactions": [
    {
      "hash": "0xfa28120c4da775153785f0d9270e971e21ae3496414e5e12b95435499b780f4a",
      "transactionType": "CALL",
      "contractName": null,
      "contractAddress": "0x8aafd3ede9adb0ff97c7aebce82a919afb1c8764",
      "function": "sell(uint256)",
      "arguments": [
        "184883315"
      ],
      "transaction": {
        "from": "0xc77f7fed3b5cc8249adc428c5f44c9063b9734b4",
        "to": "0x8aafd3ede9adb0ff97c7aebce82a919afb1c8764",
        "gas": "0x14e6c",
        "value": "0x0",
        "input": "0xe4849b32000000000000000000000000000000000000000000000000000000000b051873",
        "nonce": "0x10bf",
        "chainId": "0xaa36a7"
      },
      "additionalContracts": [],
      "isFixedGasLimit": false
    }
  ],
  "receipts": [
    {
      "status": "0x1",
      "cumulativeGasUsed": "0xb6f6d7",
      "logs": [
        {
          "address": "0x8aafd3ede9adb0ff97c7aebce82a919afb1c8764",
          "topics": [
            "0xddf252ad1be2c89b69c2b068fc378daa952ba7f163c4a11628f55a4df523b3ef",
            "0x000000000000000000000000c77f7fed3b5cc8249adc428c5f44c9063b9734b4",
            "0x0000000000000000000000000000000000000000000000000000000000000000"
          ],
          "data": "0x000000000000000000000000000000000000000000000000000000000aee86d9",
          "blockHash": "0xc1843a5735ffef32968ab176caf554d1c5328f8e6b69c3bc92f4af9e34d204ee",
          "blockNumber": "0x731757",
          "transactionHash": "0xfa28120c4da775153785f0d9270e971e21ae3496414e5e12b95435499b780f4a",
          "transactionIndex": "0x84",
          "logIndex": "0xba",
          "removed": false
        },
        {
          "address": "0x8aafd3ede9adb0ff97c7aebce82a919afb1c8764",
          "topics": [
            "0xddf252ad1be2c89b69c2b068fc378daa952ba7f163c4a11628f55a4df523b3ef",
            "0x000000000000000000000000c77f7fed3b5cc8249adc428c5f44c9063b9734b4",
            "0x000000000000000000000000c77f7fed3b5cc8249adc428c5f44c9063b9734b4"
          ],
          "data": "0x000000000000000000000000000000000000000000000000000000000016919a",
          "blockHash": "0xc1843a5735ffef32968ab176caf554d1c5328f8e6b69c3bc92f4af9e34d204ee",
          "blockNumber": "0x731757",
          "transactionHash": "0xfa28120c4da775153785f0d9270e971e21ae3496414e5e12b95435499b780f4a",
          "transactionIndex": "0x84",
          "logIndex": "0xbb",
          "removed": false
        },
        {
          "address": "0x8aafd3ede9adb0ff97c7aebce82a919afb1c8764",
          "topics": [
            "0x4afcb4a87cdbd9974efdb92ee48bc8d7cd0ae4bf217004db3d080cbaee652ca7"
          ],
          "data": "0x00000000000000000000000000000000000000000000000000000000679014d8000000000000000000000000000000000000000000000000000501fde3e68805000000000000000000000000000000000000000000000000000000000003f9fd",
          "blockHash": "0xc1843a5735ffef32968ab176caf554d1c5328f8e6b69c3bc92f4af9e34d204ee",
          "blockNumber": "0x731757",
          "transactionHash": "0xfa28120c4da775153785f0d9270e971e21ae3496414e5e12b95435499b780f4a",
          "transactionIndex": "0x84",
          "logIndex": "0xbc",
          "removed": false
        }
      ],
      "logsBloom": "0x00000000000000000000000000000000000000000600000000000000000000000000000000000000000000000000000000000000000000004000000000000000000000000000004000000008000000000000000000000000000000000000000000000000020000000000000000000800020000000000000000000010000000000000000000000000000000000000000000000000000000000000010000000000000000000000000000000000000000004000000000000000000000000000000000000002000000800000000000000000000000000000080000000000000020000000000000000000000000000000000000000000000000000000000000000000",
      "type": "0x2",
      "transactionHash": "0xfa28120c4da775153785f0d9270e971e21ae3496414e5e12b95435499b780f4a",
      "transactionIndex": "0x84",
      "blockHash": "0xc1843a5735ffef32968ab176caf554d1c5328f8e6b69c3bc92f4af9e34d204ee",
      "blockNumber": "0x731757",
      "gasUsed": "0xf21f",
      "effectiveGasPrice": "0x3df81c8c",
      "from": "0xc77f7fed3b5cc8249adc428c5f44c9063b9734b4",
      "to": "0x8aafd3ede9adb0ff97c7aebce82a919afb1c8764",
      "contractAddress": null
    }
  ],
  "libraries": [],
  "pending": [],
  "returns": {},
  "timestamp": 1737495769,
  "chain": 11155111,
  "commit": "1d2fb70"
}