{
  "transactions": [
    {
      "hash": "0x48c8ea22f3fb327d027c686916fe28e66bff4b311211311a12b223062c7a6d8c",
      "transactionType": "CALL",
      "contractName": null,
      "contractAddress": "0x8aafd3ede9adb0ff97c7aebce82a919afb1c8764",
      "function": "sell(uint256)",
      "arguments": [
        "707054360846"
      ],
      "transaction": {
        "from": "0xc77f7fed3b5cc8249adc428c5f44c9063b9734b4",
        "to": "0x8aafd3ede9adb0ff97c7aebce82a919afb1c8764",
        "gas": "0x1722a",
        "value": "0x0",
        "input": "0xe4849b32000000000000000000000000000000000000000000000000000000a49fb9590e",
        "nonce": "0x162c",
        "chainId": "0xaa36a7"
      },
      "additionalContracts": [],
      "isFixedGasLimit": false
    }
  ],
  "receipts": [
    {
      "status": "0x1",
      "cumulativeGasUsed": "0x9bfa1e",
      "logs": [
        {
          "address": "0x8aafd3ede9adb0ff97c7aebce82a919afb1c8764",
          "topics": [
            "0xddf252ad1be2c89b69c2b068fc378daa952ba7f163c4a11628f55a4df523b3ef",
            "0x000000000000000000000000c77f7fed3b5cc8249adc428c5f44c9063b9734b4",
            "0x0000000000000000000000000000000000000000000000000000000000000000"
          ],
          "data": "0x000000000000000000000000000000000000000000000000000000a34e930048",
          "blockHash": "0xf5a61a7f551c91eb96fe21d3da07ba2f19034afa56896e36a7905e1c55295433",
          "blockNumber": "0x731dc4",
          "transactionHash": "0x48c8ea22f3fb327d027c686916fe28e66bff4b311211311a12b223062c7a6d8c",
          "transactionIndex": "0x61",
          "logIndex": "0x7d",
          "removed": false
        },
        {
          "address": "0x8aafd3ede9adb0ff97c7aebce82a919afb1c8764",
          "topics": [
            "0xddf252ad1be2c89b69c2b068fc378daa952ba7f163c4a11628f55a4df523b3ef",
            "0x000000000000000000000000c77f7fed3b5cc8249adc428c5f44c9063b9734b4",
            "0x000000000000000000000000c77f7fed3b5cc8249adc428c5f44c9063b9734b4"
          ],
          "data": "0x00000000000000000000000000000000000000000000000000000001512658c6",
          "blockHash": "0xf5a61a7f551c91eb96fe21d3da07ba2f19034afa56896e36a7905e1c55295433",
          "blockNumber": "0x731dc4",
          "transactionHash": "0x48c8ea22f3fb327d027c686916fe28e66bff4b311211311a12b223062c7a6d8c",
          "transactionIndex": "0x61",
          "logIndex": "0x7e",
          "removed": false
        },
        {
          "address": "0x8aafd3ede9adb0ff97c7aebce82a919afb1c8764",
          "topics": [
            "0x4afcb4a87cdbd9974efdb92ee48bc8d7cd0ae4bf217004db3d080cbaee652ca7"
          ],
          "data": "0x000000000000000000000000000000000000000000000000000000006790621800000000000000000000000000000000000000000000000000148aabbc5df2de00000000000000000000000000000000000000000000000000000000f3ac7a05",
          "blockHash": "0xf5a61a7f551c91eb96fe21d3da07ba2f19034afa56896e36a7905e1c55295433",
          "blockNumber": "0x731dc4",
          "transactionHash": "0x48c8ea22f3fb327d027c686916fe28e66bff4b311211311a12b223062c7a6d8c",
          "transactionIndex": "0x61",
          "logIndex": "0x7f",
          "removed": false
        }
      ],
      "logsBloom": "0x00000000000000000000000000000000000000000600000000000000000000000000000000000000000000000000000000000000000000004000000000000000000000000000004000000008000000000000000000000000000000000000000000000000020000000000000000000800020000000000000000000010000000000000000000000000000000000000000000000000000000000000010000000000000000000000000000000000000000004000000000000000000000000000000000000002000000800000000000000000000000000000080000000000000020000000000000000000000000000000000000000000000000000000000000000000",
      "type": "0x2",
      "transactionHash": "0x48c8ea22f3fb327d027c686916fe28e66bff4b311211311a12b223062c7a6d8c",
      "transactionIndex": "0x61",
      "blockHash": "0xf5a61a7f551c91eb96fe21d3da07ba2f19034afa56896e36a7905e1c55295433",
      "blockNumber": "0x731dc4",
      "gasUsed": "0xfd1b",
      "effectiveGasPrice": "0x59d7ca9c",
      "from": "0xc77f7fed3b5cc8249adc428c5f44c9063b9734b4",
      "to": "0x8aafd3ede9adb0ff97c7aebce82a919afb1c8764",
      "contractAddress": null
    }
  ],
  "libraries": [],
  "pending": [],
  "returns": {},
  "timestamp": 1737515545,
  "chain": 11155111,
  "commit": "1d2fb70"
}