{
  "transactions": [
    {
      "hash": "0xe65df0b9994962c40e5dcd3c55e634e58054c712822a741064744e5dab735800",
      "transactionType": "CALL",
      "contractName": null,
      "contractAddress": "0x8aafd3ede9adb0ff97c7aebce82a919afb1c8764",
      "function": "sell(uint256)",
      "arguments": [
        "1563321"
      ],
      "transaction": {
        "from": "0xc77f7fed3b5cc8249adc428c5f44c9063b9734b4",
        "to": "0x8aafd3ede9adb0ff97c7aebce82a919afb1c8764",
        "gas": "0x16208",
        "value": "0x0",
        "input": "0xe4849b32000000000000000000000000000000000000000000000000000000000017dab9",
        "nonce": "0xf11",
        "chainId": "0xaa36a7"
      },
      "additionalContracts": [],
      "isFixedGasLimit": false
    }
  ],
  "receipts": [
    {
      "status": "0x1",
      "cumulativeGasUsed": "0x13e8350",
      "logs": [
        {
          "address": "0x8aafd3ede9adb0ff97c7aebce82a919afb1c8764",
          "topics": [
            "0xddf252ad1be2c89b69c2b068fc378daa952ba7f163c4a11628f55a4df523b3ef",
            "0x000000000000000000000000c77f7fed3b5cc8249adc428c5f44c9063b9734b4",
            "0x0000000000000000000000000000000000000000000000000000000000000000"
          ],
          "data": "0x000000000000000000000000000000000000000000000000000000000017a9df",
          "blockHash": "0xa6d90fd3fc122cf2860cf9e5e3fc69009ccc198a8322689c1729d1f2ebb3c624",
          "blockNumber": "0x73148a",
          "transactionHash": "0xe65df0b9994962c40e5dcd3c55e634e58054c712822a741064744e5dab735800",
          "transactionIndex": "0x8d",
          "logIndex": "0x156",
          "removed": false
        },
        {
          "address": "0x8aafd3ede9adb0ff97c7aebce82a919afb1c8764",
          "topics": [
            "0xddf252ad1be2c89b69c2b068fc378daa952ba7f163c4a11628f55a4df523b3ef",
            "0x000000000000000000000000c77f7fed3b5cc8249adc428c5f44c9063b9734b4",
            "0x000000000000000000000000c77f7fed3b5cc8249adc428c5f44c9063b9734b4"
          ],
          "data": "0x00000000000000000000000000000000000000000000000000000000000030da",
          "blockHash": "0xa6d90fd3fc122cf2860cf9e5e3fc69009ccc198a8322689c1729d1f2ebb3c624",
          "blockNumber": "0x73148a",
          "transactionHash": "0xe65df0b9994962c40e5dcd3c55e634e58054c712822a741064744e5dab735800",
          "transactionIndex": "0x8d",
          "logIndex": "0x157",
          "removed": false
        },
        {
          "address": "0x8aafd3ede9adb0ff97c7aebce82a919afb1c8764",
          "topics": [
            "0x4afcb4a87cdbd9974efdb92ee48bc8d7cd0ae4bf217004db3d080cbaee652ca7"
          ],
          "data": "0x00000000000000000000000000000000000000000000000000000000678ff3240000000000000000000000000000000000000000000000000004bbf0bfdff1600000000000000000000000000000000000000000000000000000000000000823",
          "blockHash": "0xa6d90fd3fc122cf2860cf9e5e3fc69009ccc198a8322689c1729d1f2ebb3c624",
          "blockNumber": "0x73148a",
          "transactionHash": "0xe65df0b9994962c40e5dcd3c55e634e58054c712822a741064744e5dab735800",
          "transactionIndex": "0x8d",
          "logIndex": "0x158",
          "removed": false
        }
      ],
      "logsBloom": "0x00000000000000000000000000000000000000000600000000000000000000000000000000000000000000000000000000000000000000004000000000000000000000000000004000000008000000000000000000000000000000000000000000000000020000000000000000000800020000000000000000000010000000000000000000000000000000000000000000000000000000000000010000000000000000000000000000000000000000004000000000000000000000000000000000000002000000800000000000000000000000000000080000000000000020000000000000000000000000000000000000000000000000000000000000000000",
      "type": "0x2",
      "transactionHash": "0xe65df0b9994962c40e5dcd3c55e634e58054c712822a741064744e5dab735800",
      "transactionIndex": "0x8d",
      "blockHash": "0xa6d90fd3fc122cf2860cf9e5e3fc69009ccc198a8322689c1729d1f2ebb3c624",
      "blockNumber": "0x73148a",
      "gasUsed": "0xf213",
      "effectiveGasPrice": "0x8cd14bf6",
      "from": "0xc77f7fed3b5cc8249adc428c5f44c9063b9734b4",
      "to": "0x8aafd3ede9adb0ff97c7aebce82a919afb1c8764",
      "contractAddress": null
    }
  ],
  "libraries": [],
  "pending": [],
  "returns": {},
  "timestamp": 1737487142,
  "chain": 11155111,
  "commit": "51a374b"
}