{
  "transactions": [
    {
      "hash": "0x10a0884cab43c701c17026fa71aa196c26a73e87830fed5b1e741ca3275ee9f2",
      "transactionType": "CALL",
      "contractName": null,
      "contractAddress": "0x8aafd3ede9adb0ff97c7aebce82a919afb1c8764",
      "function": "sell(uint256)",
      "arguments": [
        "1492608"
      ],
      "transaction": {
        "from": "0xc77f7fed3b5cc8249adc428c5f44c9063b9734b4",
        "to": "0x8aafd3ede9adb0ff97c7aebce82a919afb1c8764",
        "gas": "0x16208",
        "value": "0x0",
        "input": "0xe4849b32000000000000000000000000000000000000000000000000000000000016c680",
        "nonce": "0x1070",
        "chainId": "0xaa36a7"
      },
      "additionalContracts": [],
      "isFixedGasLimit": false
    }
  ],
  "receipts": [
    {
      "status": "0x1",
      "cumulativeGasUsed": "0xd0e46e",
      "logs": [
        {
          "address": "0x8aafd3ede9adb0ff97c7aebce82a919afb1c8764",
          "topics": [
            "0xddf252ad1be2c89b69c2b068fc378daa952ba7f163c4a11628f55a4df523b3ef",
            "0x000000000000000000000000c77f7fed3b5cc8249adc428c5f44c9063b9734b4",
            "0x0000000000000000000000000000000000000000000000000000000000000000"
          ],
          "data": "0x00000000000000000000000000000000000000000000000000000000001697dc",
          "blockHash": "0xe7929e7b3ed6676661ea0c34483a9c23b1e0cf0cfab63ae944c439ef48dd5907",
          "blockNumber": "0x7316f6",
          "transactionHash": "0x10a0884cab43c701c17026fa71aa196c26a73e87830fed5b1e741ca3275ee9f2",
          "transactionIndex": "0x6d",
          "logIndex": "0xc1",
          "removed": false
        },
        {
          "address": "0x8aafd3ede9adb0ff97c7aebce82a919afb1c8764",
          "topics": [
            "0xddf252ad1be2c89b69c2b068fc378daa952ba7f163c4a11628f55a4df523b3ef",
            "0x000000000000000000000000c77f7fed3b5cc8249adc428c5f44c9063b9734b4",
            "0x000000000000000000000000c77f7fed3b5cc8249adc428c5f44c9063b9734b4"
          ],
          "data": "0x0000000000000000000000000000000000000000000000000000000000002ea4",
          "blockHash": "0xe7929e7b3ed6676661ea0c34483a9c23b1e0cf0cfab63ae944c439ef48dd5907",
          "blockNumber": "0x7316f6",
          "transactionHash": "0x10a0884cab43c701c17026fa71aa196c26a73e87830fed5b1e741ca3275ee9f2",
          "transactionIndex": "0x6d",
          "logIndex": "0xc2",
          "removed": false
        },
        {
          "address": "0x8aafd3ede9adb0ff97c7aebce82a919afb1c8764",
          "topics": [
            "0x4afcb4a87cdbd9974efdb92ee48bc8d7cd0ae4bf217004db3d080cbaee652ca7"
          ],
          "data": "0x00000000000000000000000000000000000000000000000000000000679010400000000000000000000000000000000000000000000000000004f65f9001d91b0000000000000000000000000000000000000000000000000000000000000824",
          "blockHash": "0xe7929e7b3ed6676661ea0c34483a9c23b1e0cf0cfab63ae944c439ef48dd5907",
          "blockNumber": "0x7316f6",
          "transactionHash": "0x10a0884cab43c701c17026fa71aa196c26a73e87830fed5b1e741ca3275ee9f2",
          "transactionIndex": "0x6d",
          "logIndex": "0xc3",
          "removed": false
        }
      ],
      "logsBloom": "0x00000000000000000000000000000000000000000600000000000000000000000000000000000000000000000000000000000000000000004000000000000000000000000000004000000008000000000000000000000000000000000000000000000000020000000000000000000800020000000000000000000010000000000000000000000000000000000000000000000000000000000000010000000000000000000000000000000000000000004000000000000000000000000000000000000002000000800000000000000000000000000000080000000000000020000000000000000000000000000000000000000000000000000000000000000000",
      "type": "0x2",
      "transactionHash": "0x10a0884cab43c701c17026fa71aa196c26a73e87830fed5b1e741ca3275ee9f2",
      "transactionIndex": "0x6d",
      "blockHash": "0xe7929e7b3ed6676661ea0c34483a9c23b1e0cf0cfab63ae944c439ef48dd5907",
      "blockNumber": "0x7316f6",
      "gasUsed": "0xf213",
      "effectiveGasPrice": "0x4042a10e",
      "from": "0xc77f7fed3b5cc8249adc428c5f44c9063b9734b4",
      "to": "0x8aafd3ede9adb0ff97c7aebce82a919afb1c8764",
      "contractAddress": null
    }
  ],
  "libraries": [],
  "pending": [],
  "returns": {},
  "timestamp": 1737494594,
  "chain": 11155111,
  "commit": "1d2fb70"
}