{
  "transactions": [
    {
      "hash": "0x33ec8e1b8e6ab6e439970462fc305e6b324db2f6816e02c5a5e940bec6d5d5ed",
      "transactionType": "CALL",
      "contractName": null,
      "contractAddress": "0x270e88f8683660553e8ba4eb2ad7c91a1710d769",
      "function": "buy(address)",
      "arguments": [
        "0xC77f7fed3b5Cc8249aDc428c5F44C9063B9734b4"
      ],
      "transaction": {
        "from": "0xc77f7fed3b5cc8249adc428c5f44c9063b9734b4",
        "to": "0x270e88f8683660553e8ba4eb2ad7c91a1710d769",
        "gas": "0x1b30c",
        "value": "0xde0b6b3a7640000",
        "input": "0xf088d547000000000000000000000000c77f7fed3b5cc8249adc428c5f44c9063b9734b4",
        "nonce": "0x7e5",
        "chainId": "0xaa36a7"
      },
      "additionalContracts": [],
      "isFixedGasLimit": false
    }
  ],
  "receipts": [
    {
      "status": "0x1",
      "cumulativeGasUsed": "0x1862390",
      "logs": [
        {
          "address": "0x270e88f8683660553e8ba4eb2ad7c91a1710d769",
          "topics": [
            "0xddf252ad1be2c89b69c2b068fc378daa952ba7f163c4a11628f55a4df523b3ef",
            "0x0000000000000000000000000000000000000000000000000000000000000000",
            "0x000000000000000000000000c77f7fed3b5cc8249adc428c5f44c9063b9734b4"
          ],
          "data": "0x00000000000000000000000000000000000000000000002730de07d9d3f47dc5",
          "blockHash": "0x78685adc07a919b82fb406531c092738322d642388386a6d51c174bc40f0dade",
          "blockNumber": "0x725520",
          "transactionHash": "0x33ec8e1b8e6ab6e439970462fc305e6b324db2f6816e02c5a5e940bec6d5d5ed",
          "transactionIndex": "0x52",
          "logIndex": "0x132",
          "removed": false
        },
        {
          "address": "0x270e88f8683660553e8ba4eb2ad7c91a1710d769",
          "topics": [
            "0xddf252ad1be2c89b69c2b068fc378daa952ba7f163c4a11628f55a4df523b3ef",
            "0x0000000000000000000000000000000000000000000000000000000000000000",
            "0x000000000000000000000000c77f7fed3b5cc8249adc428c5f44c9063b9734b4"
          ],
          "data": "0x0000000000000000000000000000000000000000000000001e6edd1a63276fb2",
          "blockHash": "0x78685adc07a919b82fb406531c092738322d642388386a6d51c174bc40f0dade",
          "blockNumber": "0x725520",
          "transactionHash": "0x33ec8e1b8e6ab6e439970462fc305e6b324db2f6816e02c5a5e940bec6d5d5ed",
          "transactionIndex": "0x52",
          "logIndex": "0x133",
          "removed": false
        },
        {
          "address": "0x270e88f8683660553e8ba4eb2ad7c91a1710d769",
          "topics": [
            "0x4afcb4a87cdbd9974efdb92ee48bc8d7cd0ae4bf217004db3d080cbaee652ca7"
          ],
          "data": "0x000000000000000000000000000000000000000000000000000000006786ef880000000000000000000000000000000000000000000000000004dd9124fe96be0000000000000000000000000000000000000000000000000de0b6b3a7640000",
          "blockHash": "0x78685adc07a919b82fb406531c092738322d642388386a6d51c174bc40f0dade",
          "blockNumber": "0x725520",
          "transactionHash": "0x33ec8e1b8e6ab6e439970462fc305e6b324db2f6816e02c5a5e940bec6d5d5ed",
          "transactionIndex": "0x52",
          "logIndex": "0x134",
          "removed": false
        }
      ],
      "logsBloom": "0x00000000000000000000000000000000000000000000000000000000000000000000000000000000000000000000000020000000000000004000000000000000000000000000000000000008000000000000000000000000000000000000000000000000020000000000000000000800020000000000000000000010000000000000000000010000000000000000000000000000000000000000010000000000000000000000000000000000000000004000000000000000000000000000000000000002000000800000000000000000000000000000080000008000000020000000000000000000000000000000000000000000000000000000000000000000",
      "type": "0x2",
      "transactionHash": "0x33ec8e1b8e6ab6e439970462fc305e6b324db2f6816e02c5a5e940bec6d5d5ed",
      "transactionIndex": "0x52",
      "blockHash": "0x78685adc07a919b82fb406531c092738322d642388386a6d51c174bc40f0dade",
      "blockNumber": "0x725520",
      "gasUsed": "0x13af8",
      "effectiveGasPrice": "0xa41bf931",
      "from": "0xc77f7fed3b5cc8249adc428c5f44c9063b9734b4",
      "to": "0x270e88f8683660553e8ba4eb2ad7c91a1710d769",
      "contractAddress": null
    }
  ],
  "libraries": [],
  "pending": [],
  "returns": {},
  "timestamp": 1736896393,
  "chain": 11155111,
  "commit": "51a374b"
}