{
  "transactions": [
    {
      "hash": "0x457ab1043b0675e00df580746c25907c8d8576bf5aef5044736ef9a42f6fc4c1",
      "transactionType": "CALL",
      "contractName": null,
      "contractAddress": "0xbf4a322f1496e5c3d34a9bcdb4c60567b38c7de2",
      "function": "sell(uint256)",
      "arguments": [
        "986908600012422921500"
      ],
      "transaction": {
        "from": "0xc77f7fed3b5cc8249adc428c5f44c9063b9734b4",
        "to": "0xbf4a322f1496e5c3d34a9bcdb4c60567b38c7de2",
        "gas": "0x16fea",
        "value": "0x0",
        "input": "0xe4849b32000000000000000000000000000000000000000000000035801baed86e8a3d1c",
        "nonce": "0xa19",
        "chainId": "0xaa36a7"
      },
      "additionalContracts": [],
      "isFixedGasLimit": false
    }
  ],
  "receipts": [
    {
      "status": "0x1",
      "cumulativeGasUsed": "0xbd4fed",
      "logs": [
        {
          "address": "0xbf4a322f1496e5c3d34a9bcdb4c60567b38c7de2",
          "topics": [
            "0xddf252ad1be2c89b69c2b068fc378daa952ba7f163c4a11628f55a4df523b3ef",
            "0x000000000000000000000000c77f7fed3b5cc8249adc428c5f44c9063b9734b4",
            "0x0000000000000000000000000000000000000000000000000000000000000000"
          ],
          "data": "0x000000000000000000000000000000000000000000000035801baed86e8a3d1c",
          "blockHash": "0xfe04e89d5681098a3073808ced0651246d973f02255301b298dcc78c78f6828d",
          "blockNumber": "0x7259d9",
          "transactionHash": "0x457ab1043b0675e00df580746c25907c8d8576bf5aef5044736ef9a42f6fc4c1",
          "transactionIndex": "0x54",
          "logIndex": "0x82",
          "removed": false
        },
        {
          "address": "0xbf4a322f1496e5c3d34a9bcdb4c60567b38c7de2",
          "topics": [
            "0x4afcb4a87cdbd9974efdb92ee48bc8d7cd0ae4bf217004db3d080cbaee652ca7"
          ],
          "data": "0x000000000000000000000000000000000000000000000000000000006787287000000000000000000000000000000000000000000000000000039322e4febf3d0000000000000000000000000000000000000000000000000dc7e3f220fe0268",
          "blockHash": "0xfe04e89d5681098a3073808ced0651246d973f02255301b298dcc78c78f6828d",
          "blockNumber": "0x7259d9",
          "transactionHash": "0x457ab1043b0675e00df580746c25907c8d8576bf5aef5044736ef9a42f6fc4c1",
          "transactionIndex": "0x54",
          "logIndex": "0x83",
          "removed": false
        }
      ],
      "logsBloom": "0x00000000000000000000000000000000000000000000000000000000000000000000000000000000000000000000000000000000000000004000000000000000000000000000000000000008000000000000001000000000000000000000000000000000020000000000000000000800020000000000000000000010000000000000000000000000000000000000000000000000000008000000010000000000000000000000000000000000000000004000000000000000000000000000000000000002000000800000000000001000000000000000080000000000000020000000000000000000000000000000000000000000000000000000000000000000",
      "type": "0x2",
      "transactionHash": "0x457ab1043b0675e00df580746c25907c8d8576bf5aef5044736ef9a42f6fc4c1",
      "transactionIndex": "0x54",
      "blockHash": "0xfe04e89d5681098a3073808ced0651246d973f02255301b298dcc78c78f6828d",
      "blockNumber": "0x7259d9",
      "gasUsed": "0xfb91",
      "effectiveGasPrice": "0x60fb3cae2",
      "from": "0xc77f7fed3b5cc8249adc428c5f44c9063b9734b4",
      "to": "0xbf4a322f1496e5c3d34a9bcdb4c60567b38c7de2",
      "contractAddress": null
    }
  ],
  "libraries": [],
  "pending": [],
  "returns": {},
  "timestamp": 1736910963,
  "chain": 11155111,
  "commit": "51a374b"
}