{
  "transactions": [
    {
      "hash": "0xe67eb366b9d3eec0c63ef2c299e8441e763b611571d10dd238fe4d2ebeca7116",
      "transactionType": "CALL",
      "contractName": null,
      "contractAddress": "0xbf4a322f1496e5c3d34a9bcdb4c60567b38c7de2",
      "function": "sell(uint256)",
      "arguments": [
        "976934218351581759195"
      ],
      "transaction": {
        "from": "0xc77f7fed3b5cc8249adc428c5f44c9063b9734b4",
        "to": "0xbf4a322f1496e5c3d34a9bcdb4c60567b38c7de2",
        "gas": "0x16fea",
        "value": "0x0",
        "input": "0xe4849b32000000000000000000000000000000000000000000000034f5af8f9249ee86db",
        "nonce": "0xcfd",
        "chainId": "0xaa36a7"
      },
      "additionalContracts": [],
      "isFixedGasLimit": false
    }
  ],
  "receipts": [
    {
      "status": "0x1",
      "cumulativeGasUsed": "0x101d531",
      "logs": [
        {
          "address": "0xbf4a322f1496e5c3d34a9bcdb4c60567b38c7de2",
          "topics": [
            "0xddf252ad1be2c89b69c2b068fc378daa952ba7f163c4a11628f55a4df523b3ef",
            "0x000000000000000000000000c77f7fed3b5cc8249adc428c5f44c9063b9734b4",
            "0x0000000000000000000000000000000000000000000000000000000000000000"
          ],
          "data": "0x000000000000000000000000000000000000000000000034f5af8f9249ee86db",
          "blockHash": "0xcefd03c7300e2e7920e216a5f4185ec48f9ee9bdc2299c63cf25ae9042270fbd",
          "blockNumber": "0x725d53",
          "transactionHash": "0xe67eb366b9d3eec0c63ef2c299e8441e763b611571d10dd238fe4d2ebeca7116",
          "transactionIndex": "0x72",
          "logIndex": "0xb7",
          "removed": false
        },
        {
          "address": "0xbf4a322f1496e5c3d34a9bcdb4c60567b38c7de2",
          "topics": [
            "0x4afcb4a87cdbd9974efdb92ee48bc8d7cd0ae4bf217004db3d080cbaee652ca7"
          ],
          "data": "0x000000000000000000000000000000000000000000000000000000006787525800000000000000000000000000000000000000000000000000039c7abf4a69580000000000000000000000000000000000000000000000000dc7e3daf03115da",
          "blockHash": "0xcefd03c7300e2e7920e216a5f4185ec48f9ee9bdc2299c63cf25ae9042270fbd",
          "blockNumber": "0x725d53",
          "transactionHash": "0xe67eb366b9d3eec0c63ef2c299e8441e763b611571d10dd238fe4d2ebeca7116",
          "transactionIndex": "0x72",
          "logIndex": "0xb8",
          "removed": false
        }
      ],
      "logsBloom": "0x00000000000000000000000000000000000000000000000000000000000000000000000000000000000000000000000000000000000000004000000000000000000000000000000000000008000000000000001000000000000000000000000000000000020000000000000000000800020000000000000000000010000000000000000000000000000000000000000000000000000008000000010000000000000000000000000000000000000000004000000000000000000000000000000000000002000000800000000000001000000000000000080000000000000020000000000000000000000000000000000000000000000000000000000000000000",
      "type": "0x2",
      "transactionHash": "0xe67eb366b9d3eec0c63ef2c299e8441e763b611571d10dd238fe4d2ebeca7116",
      "transactionIndex": "0x72",
      "blockHash": "0xcefd03c7300e2e7920e216a5f4185ec48f9ee9bdc2299c63cf25ae9042270fbd",
      "blockNumber": "0x725d53",
      "gasUsed": "0xfb91",
      "effectiveGasPrice": "0x3aa888d84",
      "from": "0xc77f7fed3b5cc8249adc428c5f44c9063b9734b4",
      "to": "0xbf4a322f1496e5c3d34a9bcdb4c60567b38c7de2",
      "contractAddress": null
    }
  ],
  "libraries": [],
  "pending": [],
  "returns": {},
  "timestamp": 1736921689,
  "chain": 11155111,
  "commit": "51a374b"
}