{
  "transactions": [
    {
      "hash": "0x226321ea4f5060de92d06efca074f409cb8755cf5d516d4f4827b4618fe0dc70",
      "transactionType": "CALL",
      "contractName": null,
      "contractAddress": "0x270e88f8683660553e8ba4eb2ad7c91a1710d769",
      "function": "buy(address)",
      "arguments": [
        "0xC77f7fed3b5Cc8249aDc428c5F44C9063B9734b4"
      ],
      "transaction": {
        "from": "0xc77f7fed3b5cc8249adc428c5f44c9063b9734b4",
        "to": "0x270e88f8683660553e8ba4eb2ad7c91a1710d769",
        "gas": "0x1b30c",
        "value": "0xde0b6b3a7640000",
        "input": "0xf088d547000000000000000000000000c77f7fed3b5cc8249adc428c5f44c9063b9734b4",
        "nonce": "0x7bd",
        "chainId": "0xaa36a7"
      },
      "additionalContracts": [],
      "isFixedGasLimit": false
    }
  ],
  "receipts": [
    {
      "status": "0x1",
      "cumulativeGasUsed": "0x1600e8f",
      "logs": [
        {
          "address": "0x270e88f8683660553e8ba4eb2ad7c91a1710d769",
          "topics": [
            "0xddf252ad1be2c89b69c2b068fc378daa952ba7f163c4a11628f55a4df523b3ef",
            "0x0000000000000000000000000000000000000000000000000000000000000000",
            "0x000000000000000000000000c77f7fed3b5cc8249adc428c5f44c9063b9734b4"
          ],
          "data": "0x000000000000000000000000000000000000000000000027604a1e5d27a439be",
          "blockHash": "0x3a8eab74efb2149ef2fbd3ddcd84f4050517f9738bf24739b0d60a600a1c6e83",
          "blockNumber": "0x7254f5",
          "transactionHash": "0x226321ea4f5060de92d06efca074f409cb8755cf5d516d4f4827b4618fe0dc70",
          "transactionIndex": "0x57",
          "logIndex": "0x7e",
          "removed": false
        },
        {
          "address": "0x270e88f8683660553e8ba4eb2ad7c91a1710d769",
          "topics": [
            "0xddf252ad1be2c89b69c2b068fc378daa952ba7f163c4a11628f55a4df523b3ef",
            "0x0000000000000000000000000000000000000000000000000000000000000000",
            "0x000000000000000000000000c77f7fed3b5cc8249adc428c5f44c9063b9734b4"
          ],
          "data": "0x0000000000000000000000000000000000000000000000001e93b04ba32f44d0",
          "blockHash": "0x3a8eab74efb2149ef2fbd3ddcd84f4050517f9738bf24739b0d60a600a1c6e83",
          "blockNumber": "0x7254f5",
          "transactionHash": "0x226321ea4f5060de92d06efca074f409cb8755cf5d516d4f4827b4618fe0dc70",
          "transactionIndex": "0x57",
          "logIndex": "0x7f",
          "removed": false
        },
        {
          "address": "0x270e88f8683660553e8ba4eb2ad7c91a1710d769",
          "topics": [
            "0x4afcb4a87cdbd9974efdb92ee48bc8d7cd0ae4bf217004db3d080cbaee652ca7"
          ],
          "data": "0x000000000000000000000000000000000000000000000000000000006786ed840000000000000000000000000000000000000000000000000004d7b52f1ea6620000000000000000000000000000000000000000000000000de0b6b3a7640000",
          "blockHash": "0x3a8eab74efb2149ef2fbd3ddcd84f4050517f9738bf24739b0d60a600a1c6e83",
          "blockNumber": "0x7254f5",
          "transactionHash": "0x226321ea4f5060de92d06efca074f409cb8755cf5d516d4f4827b4618fe0dc70",
          "transactionIndex": "0x57",
          "logIndex": "0x80",
          "removed": false
        }
      ],
      "logsBloom": "0x00000000000000000000000000000000000000000000000000000000000000000000000000000000000000000000000020000000000000004000000000000000000000000000000000000008000000000000000000000000000000000000000000000000020000000000000000000800020000000000000000000010000000000000000000010000000000000000000000000000000000000000010000000000000000000000000000000000000000004000000000000000000000000000000000000002000000800000000000000000000000000000080000008000000020000000000000000000000000000000000000000000000000000000000000000000",
      "type": "0x2",
      "transactionHash": "0x226321ea4f5060de92d06efca074f409cb8755cf5d516d4f4827b4618fe0dc70",
      "transactionIndex": "0x57",
      "blockHash": "0x3a8eab74efb2149ef2fbd3ddcd84f4050517f9738bf24739b0d60a600a1c6e83",
      "blockNumber": "0x7254f5",
      "gasUsed": "0x13af8",
      "effectiveGasPrice": "0xb979d772",
      "from": "0xc77f7fed3b5cc8249adc428c5f44c9063b9734b4",
      "to": "0x270e88f8683660553e8ba4eb2ad7c91a1710d769",
      "contractAddress": null
    }
  ],
  "libraries": [],
  "pending": [],
  "returns": {},
  "timestamp": 1736895877,
  "chain": 11155111,
  "commit": "51a374b"
}