{
  "transactions": [
    {
      "hash": "0x78dae526946867f82765c795c8be7de5392db6e8c1a914801006cb0ee6b9e2c5",
      "transactionType": "CALL",
      "contractName": null,
      "contractAddress": "0xbf4a322f1496e5c3d34a9bcdb4c60567b38c7de2",
      "function": "sell(uint256)",
      "arguments": [
        "980550078045845753231"
      ],
      "transaction": {
        "from": "0xc77f7fed3b5cc8249adc428c5f44c9063b9734b4",
        "to": "0xbf4a322f1496e5c3d34a9bcdb4c60567b38c7de2",
        "gas": "0x16fea",
        "value": "0x0",
        "input": "0xe4849b3200000000000000000000000000000000000000000000003527ddacce44308d8f",
        "nonce": "0xbef",
        "chainId": "0xaa36a7"
      },
      "additionalContracts": [],
      "isFixedGasLimit": false
    }
  ],
  "receipts": [
    {
      "status": "0x1",
      "cumulativeGasUsed": "0xa25a45",
      "logs": [
        {
          "address": "0xbf4a322f1496e5c3d34a9bcdb4c60567b38c7de2",
          "topics": [
            "0xddf252ad1be2c89b69c2b068fc378daa952ba7f163c4a11628f55a4df523b3ef",
            "0x000000000000000000000000c77f7fed3b5cc8249adc428c5f44c9063b9734b4",
            "0x0000000000000000000000000000000000000000000000000000000000000000"
          ],
          "data": "0x00000000000000000000000000000000000000000000003527ddacce44308d8f",
          "blockHash": "0xc84d52d8d27bff13a19503a5d57613123d4b031a920c9a7b04c1555604852fa7",
          "blockNumber": "0x725c16",
          "transactionHash": "0x78dae526946867f82765c795c8be7de5392db6e8c1a914801006cb0ee6b9e2c5",
          "transactionIndex": "0x49",
          "logIndex": "0x70",
          "removed": false
        },
        {
          "address": "0xbf4a322f1496e5c3d34a9bcdb4c60567b38c7de2",
          "topics": [
            "0x4afcb4a87cdbd9974efdb92ee48bc8d7cd0ae4bf217004db3d080cbaee652ca7"
          ],
          "data": "0x0000000000000000000000000000000000000000000000000000000067874364000000000000000000000000000000000000000000000000000399120af566860000000000000000000000000000000000000000000000000dc7e3e3586379c3",
          "blockHash": "0xc84d52d8d27bff13a19503a5d57613123d4b031a920c9a7b04c1555604852fa7",
          "blockNumber": "0x725c16",
          "transactionHash": "0x78dae526946867f82765c795c8be7de5392db6e8c1a914801006cb0ee6b9e2c5",
          "transactionIndex": "0x49",
          "logIndex": "0x71",
          "removed": false
        }
      ],
      "logsBloom": "0x00000000000000000000000000000000000000000000000000000000000000000000000000000000000000000000000000000000000000004000000000000000000000000000000000000008000000000000001000000000000000000000000000000000020000000000000000000800020000000000000000000010000000000000000000000000000000000000000000000000000008000000010000000000000000000000000000000000000000004000000000000000000000000000000000000002000000800000000000001000000000000000080000000000000020000000000000000000000000000000000000000000000000000000000000000000",
      "type": "0x2",
      "transactionHash": "0x78dae526946867f82765c795c8be7de5392db6e8c1a914801006cb0ee6b9e2c5",
      "transactionIndex": "0x49",
      "blockHash": "0xc84d52d8d27bff13a19503a5d57613123d4b031a920c9a7b04c1555604852fa7",
      "blockNumber": "0x725c16",
      "gasUsed": "0xfb91",
      "effectiveGasPrice": "0xd8d70d85",
      "from": "0xc77f7fed3b5cc8249adc428c5f44c9063b9734b4",
      "to": "0xbf4a322f1496e5c3d34a9bcdb4c60567b38c7de2",
      "contractAddress": null
    }
  ],
  "libraries": [],
  "pending": [],
  "returns": {},
  "timestamp": 1736917861,
  "chain": 11155111,
  "commit": "51a374b"
}