{
  "transactions": [
    {
      "hash": "0x43bf4bb3fdf8dc818ebe3ed969c3b6a4299f56401233b9402f21078d26d467a7",
      "transactionType": "CALL",
      "contractName": null,
      "contractAddress": "0x8aafd3ede9adb0ff97c7aebce82a919afb1c8764",
      "function": "sell(uint256)",
      "arguments": [
        "11278591053427824"
      ],
      "transaction": {
        "from": "0xc77f7fed3b5cc8249adc428c5f44c9063b9734b4",
        "to": "0x8aafd3ede9adb0ff97c7aebce82a919afb1c8764",
        "gas": "0x1724d",
        "value": "0x0",
        "input": "0xe4849b32000000000000000000000000000000000000000000000000002811d19d4e7470",
        "nonce": "0x1606",
        "chainId": "0xaa36a7"
      },
      "additionalContracts": [],
      "isFixedGasLimit": false
    }
  ],
  "receipts": [
    {
      "status": "0x1",
      "cumulativeGasUsed": "0xf9a70c",
      "logs": [
        {
          "address": "0x8aafd3ede9adb0ff97c7aebce82a919afb1c8764",
          "topics": [
            "0xddf252ad1be2c89b69c2b068fc378daa952ba7f163c4a11628f55a4df523b3ef",
            "0x000000000000000000000000c77f7fed3b5cc8249adc428c5f44c9063b9734b4",
            "0x0000000000000000000000000000000000000000000000000000000000000000"
          ],
          "data": "0x0000000000000000000000000000000000000000000000000027bfc19a0000d2",
          "blockHash": "0x5b338bd716840d7c8cb222aa0a77539a449d7cc0d804cab17e45b2327f458298",
          "blockNumber": "0x731d99",
          "transactionHash": "0x43bf4bb3fdf8dc818ebe3ed969c3b6a4299f56401233b9402f21078d26d467a7",
          "transactionIndex": "0x7c",
          "logIndex": "0xdd",
          "removed": false
        },
        {
          "address": "0x8aafd3ede9adb0ff97c7aebce82a919afb1c8764",
          "topics": [
            "0xddf252ad1be2c89b69c2b068fc378daa952ba7f163c4a11628f55a4df523b3ef",
            "0x000000000000000000000000c77f7fed3b5cc8249adc428c5f44c9063b9734b4",
            "0x000000000000000000000000c77f7fed3b5cc8249adc428c5f44c9063b9734b4"
          ],
          "data": "0x00000000000000000000000000000000000000000000000000005210034e739e",
          "blockHash": "0x5b338bd716840d7c8cb222aa0a77539a449d7cc0d804cab17e45b2327f458298",
          "blockNumber": "0x731d99",
          "transactionHash": "0x43bf4bb3fdf8dc818ebe3ed969c3b6a4299f56401233b9402f21078d26d467a7",
          "transactionIndex": "0x7c",
          "logIndex": "0xde",
          "removed": false
        },
        {
          "address": "0x8aafd3ede9adb0ff97c7aebce82a919afb1c8764",
          "topics": [
            "0x4afcb4a87cdbd9974efdb92ee48bc8d7cd0ae4bf217004db3d080cbaee652ca7"
          ],
          "data": "0x000000000000000000000000000000000000000000000000000000006790601400000000000000000000000000000000000000000000000000141f8d1567c66a00000000000000000000000000000000000000000000000000003a1a2b56be20",
          "blockHash": "0x5b338bd716840d7c8cb222aa0a77539a449d7cc0d804cab17e45b2327f458298",
          "blockNumber": "0x731d99",
          "transactionHash": "0x43bf4bb3fdf8dc818ebe3ed969c3b6a4299f56401233b9402f21078d26d467a7",
          "transactionIndex": "0x7c",
          "logIndex": "0xdf",
          "removed": false
        }
      ],
      "logsBloom": "0x00000000000000000000000000000000000000000600000000000000000000000000000000000000000000000000000000000000000000004000000000000000000000000000004000000008000000000000000000000000000000000000000000000000020000000000000000000800020000000000000000000010000000000000000000000000000000000000000000000000000000000000010000000000000000000000000000000000000000004000000000000000000000000000000000000002000000800000000000000000000000000000080000000000000020000000000000000000000000000000000000000000000000000000000000000000",
      "type": "0x2",
      "transactionHash": "0x43bf4bb3fdf8dc818ebe3ed969c3b6a4299f56401233b9402f21078d26d467a7",
      "transactionIndex": "0x7c",
      "blockHash": "0x5b338bd716840d7c8cb222aa0a77539a449d7cc0d804cab17e45b2327f458298",
      "blockNumber": "0x731d99",
      "gasUsed": "0xfd33",
      "effectiveGasPrice": "0x588bff90",
      "from": "0xc77f7fed3b5cc8249adc428c5f44c9063b9734b4",
      "to": "0x8aafd3ede9adb0ff97c7aebce82a919afb1c8764",
      "contractAddress": null
    }
  ],
  "libraries": [],
  "pending": [],
  "returns": {},
  "timestamp": 1737515029,
  "chain": 11155111,
  "commit": "1d2fb70"
}