{
  "transactions": [
    {
      "hash": "0x724d8c422a1ad6152defa05560ab76cf8d89fae4336d16a71508d5843c989fdc",
      "transactionType": "CALL",
      "contractName": null,
      "contractAddress": "0x2aef30832a750ad996bd851b780443b458cc957f",
      "function": "borrow(uint256,uint256)",
      "arguments": [
        "1344768532962806",
        "0"
      ],
      "transaction": {
        "from": "0xc77f7fed3b5cc8249adc428c5f44c9063b9734b4",
        "to": "0x2aef30832a750ad996bd851b780443b458cc957f",
        "gas": "0x265c0",
        "value": "0x0",
        "input": "0x0ecbcdab0000000000000000000000000000000000000000000000000004c70f52b65df60000000000000000000000000000000000000000000000000000000000000000",
        "nonce": "0x18cf",
        "chainId": "0xaa36a7"
      },
      "additionalContracts": [],
      "isFixedGasLimit": false
    }
  ],
  "receipts": [
    {
      "status": "0x1",
      "cumulativeGasUsed": "0x1381661",
      "logs": [
        {
          "address": "0x2aef30832a750ad996bd851b780443b458cc957f",
          "topics": [
            "0xddf252ad1be2c89b69c2b068fc378daa952ba7f163c4a11628f55a4df523b3ef",
            "0x000000000000000000000000c77f7fed3b5cc8249adc428c5f44c9063b9734b4",
            "0x0000000000000000000000002aef30832a750ad996bd851b780443b458cc957f"
          ],
          "data": "0x000000000000000000000000000000000000000000000000002322fe594b07a7",
          "blockHash": "0x02281a61c36d124f0bca022fba7196e6afd58448c9e86090ad90bb8030463fba",
          "blockNumber": "0x738470",
          "transactionHash": "0x724d8c422a1ad6152defa05560ab76cf8d89fae4336d16a71508d5843c989fdc",
          "transactionIndex": "0x7f",
          "logIndex": "0x11a",
          "removed": false
        },
        {
          "address": "0x2aef30832a750ad996bd851b780443b458cc957f",
          "topics": [
            "0xddf252ad1be2c89b69c2b068fc378daa952ba7f163c4a11628f55a4df523b3ef",
            "0x0000000000000000000000002aef30832a750ad996bd851b780443b458cc957f",
            "0x000000000000000000000000c77f7fed3b5cc8249adc428c5f44c9063b9734b4"
          ],
          "data": "0x000000000000000000000000000000000000000000000000000a8a7f81301bf3",
          "blockHash": "0x02281a61c36d124f0bca022fba7196e6afd58448c9e86090ad90bb8030463fba",
          "blockNumber": "0x738470",
          "transactionHash": "0x724d8c422a1ad6152defa05560ab76cf8d89fae4336d16a71508d5843c989fdc",
          "transactionIndex": "0x7f",
          "logIndex": "0x11b",
          "removed": false
        },
        {
          "address": "0x2aef30832a750ad996bd851b780443b458cc957f",
          "topics": [
            "0xddf252ad1be2c89b69c2b068fc378daa952ba7f163c4a11628f55a4df523b3ef",
            "0x0000000000000000000000002aef30832a750ad996bd851b780443b458cc957f",
            "0x0000000000000000000000000000000000000000000000000000000000000000"
          ],
          "data": "0x0000000000000000000000000000000000000000000000000018987ed81aebe3",
          "blockHash": "0x02281a61c36d124f0bca022fba7196e6afd58448c9e86090ad90bb8030463fba",
          "blockNumber": "0x738470",
          "transactionHash": "0x724d8c422a1ad6152defa05560ab76cf8d89fae4336d16a71508d5843c989fdc",
          "transactionIndex": "0x7f",
          "logIndex": "0x11c",
          "removed": false
        },
        {
          "address": "0x2aef30832a750ad996bd851b780443b458cc957f",
          "topics": [
            "0x03bbe564cb1b78e43195eeadbde99e5b89b19345862807fcfb59f884e4165e25"
          ],
          "data": "0x000000000000000000000000c77f7fed3b5cc8249adc428c5f44c9063b9734b4000000000000000000000000000000000000000000000000000448b1a9d7ce56",
          "blockHash": "0x02281a61c36d124f0bca022fba7196e6afd58448c9e86090ad90bb8030463fba",
          "blockNumber": "0x738470",
          "transactionHash": "0x724d8c422a1ad6152defa05560ab76cf8d89fae4336d16a71508d5843c989fdc",
          "transactionIndex": "0x7f",
          "logIndex": "0x11d",
          "removed": false
        },
        {
          "address": "0x2aef30832a750ad996bd851b780443b458cc957f",
          "topics": [
            "0xaec00f5213a37254bc68a26b0685d1a5b2bf513e1e587c94c7df7f4a62b56c9c"
          ],
          "data": "0x0000000000000000000000000000000000000000000000000000000000000000000000000000000000000000000000000000000000000000000000000000000000000000000000000000000000000000000000000000000000000000000000000000000000000000000000000000000000000000000000000000000000000000",
          "blockHash": "0x02281a61c36d124f0bca022fba7196e6afd58448c9e86090ad90bb8030463fba",
          "blockNumber": "0x738470",
          "transactionHash": "0x724d8c422a1ad6152defa05560ab76cf8d89fae4336d16a71508d5843c989fdc",
          "transactionIndex": "0x7f",
          "logIndex": "0x11e",
          "removed": false
        },
        {
          "address": "0x2aef30832a750ad996bd851b780443b458cc957f",
          "topics": [
            "0xaec00f5213a37254bc68a26b0685d1a5b2bf513e1e587c94c7df7f4a62b56c9c"
          ],
          "data": "0x0000000000000000000000000000000000000000000000008aa39c121a27036400000000000000000000000000000000000000000000000001c1d9c6655e4bf600000000000000000000000000000000000000000000000001c1d9c6655e4bf60000000000000000000000000000000000000000000000008aa39c121a270364",
          "blockHash": "0x02281a61c36d124f0bca022fba7196e6afd58448c9e86090ad90bb8030463fba",
          "blockNumber": "0x738470",
          "transactionHash": "0x724d8c422a1ad6152defa05560ab76cf8d89fae4336d16a71508d5843c989fdc",
          "transactionIndex": "0x7f",
          "logIndex": "0x11f",
          "removed": false
        },
        {
          "address": "0x2aef30832a750ad996bd851b780443b458cc957f",
          "topics": [
            "0x4afcb4a87cdbd9974efdb92ee48bc8d7cd0ae4bf217004db3d080cbaee652ca7"
          ],
          "data": "0x0000000000000000000000000000000000000000000000000000000067955ea4000000000000000000000000000000000000000000000000002d8da12b64f2bb00000000000000000000000000000000000000000000000000007349c399261b",
          "blockHash": "0x02281a61c36d124f0bca022fba7196e6afd58448c9e86090ad90bb8030463fba",
          "blockNumber": "0x738470",
          "transactionHash": "0x724d8c422a1ad6152defa05560ab76cf8d89fae4336d16a71508d5843c989fdc",
          "transactionIndex": "0x7f",
          "logIndex": "0x120",
          "removed": false
        }
      ],
      "logsBloom": "0x00000000000000000000000000000100400000000000000000000000000000000008000000000001000000000000000000002000000000004000000000000000000000000000000000000008000000000000000000000000000000000000000000001000020000000020000020000800020000000000000000000010000000000000000000000000000000000000000000000000000000000000010000000000000000000000000000000400000020006000000000000000000000001000000000000002000000800000000000000000000000000000080000000000000020000000000000000000000000000000000000000000000000000000000000000000",
      "type": "0x2",
      "transactionHash": "0x724d8c422a1ad6152defa05560ab76cf8d89fae4336d16a71508d5843c989fdc",
      "transactionIndex": "0x7f",
      "blockHash": "0x02281a61c36d124f0bca022fba7196e6afd58448c9e86090ad90bb8030463fba",
      "blockNumber": "0x738470",
      "gasUsed": "0x1a3a9",
      "effectiveGasPrice": "0x3b5999e9",
      "from": "0xc77f7fed3b5cc8249adc428c5f44c9063b9734b4",
      "to": "0x2aef30832a750ad996bd851b780443b458cc957f",
      "contractAddress": null
    }
  ],
  "libraries": [],
  "pending": [],
  "returns": {},
  "timestamp": 1737842341,
  "chain": 11155111,
  "commit": "f5162e9"
}