{
  "transactions": [
    {
      "hash": "0x0fcc44475b70b6ab3a7929464baa4b28e2aad8adf8662839b1629cf2fefe2d19",
      "transactionType": "CALL",
      "contractName": null,
      "contractAddress": "0x8aafd3ede9adb0ff97c7aebce82a919afb1c8764",
      "function": "sell(uint256)",
      "arguments": [
        "706074692390628480593"
      ],
      "transaction": {
        "from": "0xc77f7fed3b5cc8249adc428c5f44c9063b9734b4",
        "to": "0x8aafd3ede9adb0ff97c7aebce82a919afb1c8764",
        "gas": "0x17270",
        "value": "0x0",
        "input": "0xe4849b3200000000000000000000000000000000000000000000002646c137c9049dd651",
        "nonce": "0x10af",
        "chainId": "0xaa36a7"
      },
      "additionalContracts": [],
      "isFixedGasLimit": false
    }
  ],
  "receipts": [
    {
      "status": "0x1",
      "cumulativeGasUsed": "0xb334bb",
      "logs": [
        {
          "address": "0x8aafd3ede9adb0ff97c7aebce82a919afb1c8764",
          "topics": [
            "0xddf252ad1be2c89b69c2b068fc378daa952ba7f163c4a11628f55a4df523b3ef",
            "0x000000000000000000000000c77f7fed3b5cc8249adc428c5f44c9063b9734b4",
            "0x0000000000000000000000000000000000000000000000000000000000000000"
          ],
          "data": "0x000000000000000000000000000000000000000000000025f85d5e403dec724d",
          "blockHash": "0xd8545382297da3eff0ba4db737496f4eba6403539485c79ac0443d0b52a2fa7e",
          "blockNumber": "0x731743",
          "transactionHash": "0x0fcc44475b70b6ab3a7929464baa4b28e2aad8adf8662839b1629cf2fefe2d19",
          "transactionIndex": "0x94",
          "logIndex": "0xb9",
          "removed": false
        },
        {
          "address": "0x8aafd3ede9adb0ff97c7aebce82a919afb1c8764",
          "topics": [
            "0xddf252ad1be2c89b69c2b068fc378daa952ba7f163c4a11628f55a4df523b3ef",
            "0x000000000000000000000000c77f7fed3b5cc8249adc428c5f44c9063b9734b4",
            "0x000000000000000000000000c77f7fed3b5cc8249adc428c5f44c9063b9734b4"
          ],
          "data": "0x0000000000000000000000000000000000000000000000004e63d988c6b16404",
          "blockHash": "0xd8545382297da3eff0ba4db737496f4eba6403539485c79ac0443d0b52a2fa7e",
          "blockNumber": "0x731743",
          "transactionHash": "0x0fcc44475b70b6ab3a7929464baa4b28e2aad8adf8662839b1629cf2fefe2d19",
          "transactionIndex": "0x94",
          "logIndex": "0xba",
          "removed": false
        },
        {
          "address": "0x8aafd3ede9adb0ff97c7aebce82a919afb1c8764",
          "topics": [
            "0x4afcb4a87cdbd9974efdb92ee48bc8d7cd0ae4bf217004db3d080cbaee652ca7"
          ],
          "data": "0x00000000000000000000000000000000000000000000000000000000679013e800000000000000000000000000000000000000000000000000050087f112c2db0000000000000000000000000000000000000000000000000dc8fc06c4f444ed",
          "blockHash": "0xd8545382297da3eff0ba4db737496f4eba6403539485c79ac0443d0b52a2fa7e",
          "blockNumber": "0x731743",
          "transactionHash": "0x0fcc44475b70b6ab3a7929464baa4b28e2aad8adf8662839b1629cf2fefe2d19",
          "transactionIndex": "0x94",
          "logIndex": "0xbb",
          "removed": false
        }
      ],
      "logsBloom": "0x00000000000000000000000000000000000000000600000000000000000000000000000000000000000000000000000000000000000000004000000000000000000000000000004000000008000000000000000000000000000000000000000000000000020000000000000000000800020000000000000000000010000000000000000000000000000000000000000000000000000000000000010000000000000000000000000000000000000000004000000000000000000000000000000000000002000000800000000000000000000000000000080000000000000020000000000000000000000000000000000000000000000000000000000000000000",
      "type": "0x2",
      "transactionHash": "0x0fcc44475b70b6ab3a7929464baa4b28e2aad8adf8662839b1629cf2fefe2d19",
      "transactionIndex": "0x94",
      "blockHash": "0xd8545382297da3eff0ba4db737496f4eba6403539485c79ac0443d0b52a2fa7e",
      "blockNumber": "0x731743",
      "gasUsed": "0xfd4b",
      "effectiveGasPrice": "0x44445e45",
      "from": "0xc77f7fed3b5cc8249adc428c5f44c9063b9734b4",
      "to": "0x8aafd3ede9adb0ff97c7aebce82a919afb1c8764",
      "contractAddress": null
    }
  ],
  "libraries": [],
  "pending": [],
  "returns": {},
  "timestamp": 1737495529,
  "chain": 11155111,
  "commit": "1d2fb70"
}