{
  "transactions": [
    {
      "hash": "0xf113ae8b5742dadc7be411e76d99954162fc75157febbc4a2f1b362ac8b08954",
      "transactionType": "CALL",
      "contractName": null,
      "contractAddress": "0x8aafd3ede9adb0ff97c7aebce82a919afb1c8764",
      "function": "sell(uint256)",
      "arguments": [
        "142562775549265959326"
      ],
      "transaction": {
        "from": "0xc77f7fed3b5cc8249adc428c5f44c9063b9734b4",
        "to": "0x8aafd3ede9adb0ff97c7aebce82a919afb1c8764",
        "gas": "0x17270",
        "value": "0x0",
        "input": "0xe4849b32000000000000000000000000000000000000000000000007ba74b90837bdd99e",
        "nonce": "0x1799",
        "chainId": "0xaa36a7"
      },
      "additionalContracts": [],
      "isFixedGasLimit": false
    }
  ],
  "receipts": [
    {
      "status": "0x1",
      "cumulativeGasUsed": "0x1d259f2",
      "logs": [
        {
          "address": "0x8aafd3ede9adb0ff97c7aebce82a919afb1c8764",
          "topics": [
            "0xddf252ad1be2c89b69c2b068fc378daa952ba7f163c4a11628f55a4df523b3ef",
            "0x000000000000000000000000c77f7fed3b5cc8249adc428c5f44c9063b9734b4",
            "0x0000000000000000000000000000000000000000000000000000000000000000"
          ],
          "data": "0x000000000000000000000000000000000000000000000007aaa0d851e1479864",
          "blockHash": "0x4721576f344a1b392c801418368538ab055216637a999b2154a6609a407ac60b",
          "blockNumber": "0x731f78",
          "transactionHash": "0xf113ae8b5742dadc7be411e76d99954162fc75157febbc4a2f1b362ac8b08954",
          "transactionIndex": "0xba",
          "logIndex": "0x16b",
          "removed": false
        },
        {
          "address": "0x8aafd3ede9adb0ff97c7aebce82a919afb1c8764",
          "topics": [
            "0xddf252ad1be2c89b69c2b068fc378daa952ba7f163c4a11628f55a4df523b3ef",
            "0x000000000000000000000000c77f7fed3b5cc8249adc428c5f44c9063b9734b4",
            "0x000000000000000000000000c77f7fed3b5cc8249adc428c5f44c9063b9734b4"
          ],
          "data": "0x0000000000000000000000000000000000000000000000000fd3e0b65676413a",
          "blockHash": "0x4721576f344a1b392c801418368538ab055216637a999b2154a6609a407ac60b",
          "blockNumber": "0x731f78",
          "transactionHash": "0xf113ae8b5742dadc7be411e76d99954162fc75157febbc4a2f1b362ac8b08954",
          "transactionIndex": "0xba",
          "logIndex": "0x16c",
          "removed": false
        },
        {
          "address": "0x8aafd3ede9adb0ff97c7aebce82a919afb1c8764",
          "topics": [
            "0x4afcb4a87cdbd9974efdb92ee48bc8d7cd0ae4bf217004db3d080cbaee652ca7"
          ],
          "data": "0x00000000000000000000000000000000000000000000000000000000679076880000000000000000000000000000000000000000000000000018d9d2a2a2b16c0000000000000000000000000000000000000000000000000dcbbb691e7bb383",
          "blockHash": "0x4721576f344a1b392c801418368538ab055216637a999b2154a6609a407ac60b",
          "blockNumber": "0x731f78",
          "transactionHash": "0xf113ae8b5742dadc7be411e76d99954162fc75157febbc4a2f1b362ac8b08954",
          "transactionIndex": "0xba",
          "logIndex": "0x16d",
          "removed": false
        }
      ],
      "logsBloom": "0x00000000000000000000000000000000000000000600000000000000000000000000000000000000000000000000000000000000000000004000000000000000000000000000004000000008000000000000000000000000000000000000000000000000020000000000000000000800020000000000000000000010000000000000000000000000000000000000000000000000000000000000010000000000000000000000000000000000000000004000000000000000000000000000000000000002000000800000000000000000000000000000080000000000000020000000000000000000000000000000000000000000000000000000000000000000",
      "type": "0x2",
      "transactionHash": "0xf113ae8b5742dadc7be411e76d99954162fc75157febbc4a2f1b362ac8b08954",
      "transactionIndex": "0xba",
      "blockHash": "0x4721576f344a1b392c801418368538ab055216637a999b2154a6609a407ac60b",
      "blockNumber": "0x731f78",
      "gasUsed": "0xfd4b",
      "effectiveGasPrice": "0x43d25e24",
      "from": "0xc77f7fed3b5cc8249adc428c5f44c9063b9734b4",
      "to": "0x8aafd3ede9adb0ff97c7aebce82a919afb1c8764",
      "contractAddress": null
    }
  ],
  "libraries": [],
  "pending": [],
  "returns": {},
  "timestamp": 1737520777,
  "chain": 11155111,
  "commit": "1d2fb70"
}