{
  "transactions": [
    {
      "hash": "0xa5d6a74099ef5ea7ac4bfd6bbd39d8588573f1e21ea294d0b0a9d782263661c1",
      "transactionType": "CALL",
      "contractName": null,
      "contractAddress": "0xbf4a322f1496e5c3d34a9bcdb4c60567b38c7de2",
      "function": "buy(address)",
      "arguments": [
        "0xC77f7fed3b5Cc8249aDc428c5F44C9063B9734b4"
      ],
      "transaction": {
        "from": "0xc77f7fed3b5cc8249adc428c5f44c9063b9734b4",
        "to": "0xbf4a322f1496e5c3d34a9bcdb4c60567b38c7de2",
        "gas": "0x1b309",
        "value": "0xde0b6b3a7640000",
        "input": "0xf088d547000000000000000000000000c77f7fed3b5cc8249adc428c5f44c9063b9734b4",
        "nonce": "0xdcc",
        "chainId": "0xaa36a7"
      },
      "additionalContracts": [],
      "isFixedGasLimit": false
    }
  ],
  "receipts": [
    {
      "status": "0x1",
      "cumulativeGasUsed": "0xf0a720",
      "logs": [
        {
          "address": "0xbf4a322f1496e5c3d34a9bcdb4c60567b38c7de2",
          "topics": [
            "0xddf252ad1be2c89b69c2b068fc378daa952ba7f163c4a11628f55a4df523b3ef",
            "0x0000000000000000000000000000000000000000000000000000000000000000",
            "0x000000000000000000000000c77f7fed3b5cc8249adc428c5f44c9063b9734b4"
          ],
          "data": "0x000000000000000000000000000000000000000000000034a66544d6a811d5d7",
          "blockHash": "0xde2820ef791353dc015ebf95713b5294a6bf3fd7f88a3380efd5e8a71c4591f3",
          "blockNumber": "0x7266aa",
          "transactionHash": "0xa5d6a74099ef5ea7ac4bfd6bbd39d8588573f1e21ea294d0b0a9d782263661c1",
          "transactionIndex": "0x55",
          "logIndex": "0x77",
          "removed": false
        },
        {
          "address": "0xbf4a322f1496e5c3d34a9bcdb4c60567b38c7de2",
          "topics": [
            "0xddf252ad1be2c89b69c2b068fc378daa952ba7f163c4a11628f55a4df523b3ef",
            "0x0000000000000000000000000000000000000000000000000000000000000000",
            "0x000000000000000000000000c77f7fed3b5cc8249adc428c5f44c9063b9734b4"
          ],
          "data": "0x00000000000000000000000000000000000000000000000028e26f1514ecc5d3",
          "blockHash": "0xde2820ef791353dc015ebf95713b5294a6bf3fd7f88a3380efd5e8a71c4591f3",
          "blockNumber": "0x7266aa",
          "transactionHash": "0xa5d6a74099ef5ea7ac4bfd6bbd39d8588573f1e21ea294d0b0a9d782263661c1",
          "transactionIndex": "0x55",
          "logIndex": "0x78",
          "removed": false
        },
        {
          "address": "0xbf4a322f1496e5c3d34a9bcdb4c60567b38c7de2",
          "topics": [
            "0x4afcb4a87cdbd9974efdb92ee48bc8d7cd0ae4bf217004db3d080cbaee652ca7"
          ],
          "data": "0x000000000000000000000000000000000000000000000000000000006787c2fc00000000000000000000000000000000000000000000000000039f16eaf2dfc60000000000000000000000000000000000000000000000000de0b6b3a7640000",
          "blockHash": "0xde2820ef791353dc015ebf95713b5294a6bf3fd7f88a3380efd5e8a71c4591f3",
          "blockNumber": "0x7266aa",
          "transactionHash": "0xa5d6a74099ef5ea7ac4bfd6bbd39d8588573f1e21ea294d0b0a9d782263661c1",
          "transactionIndex": "0x55",
          "logIndex": "0x79",
          "removed": false
        }
      ],
      "logsBloom": "0x00000000000000000000000000000000000000000000000000000000000000000000000000000000000000000000000000000000000000004000000000000000000000000000000000000008000000000000001000000000000000000000000000000000020000000000000000000800020000000000000000000010000000000000000000000000000000000000000000000000000008000000010000000000000000000000000000000000000000004000000000000000000000000000000000000002000000800000000000001000000000000000080000000000000020000000000000000000000000000000000000000000000000000000000000000000",
      "type": "0x2",
      "transactionHash": "0xa5d6a74099ef5ea7ac4bfd6bbd39d8588573f1e21ea294d0b0a9d782263661c1",
      "transactionIndex": "0x55",
      "blockHash": "0xde2820ef791353dc015ebf95713b5294a6bf3fd7f88a3380efd5e8a71c4591f3",
      "blockNumber": "0x7266aa",
      "gasUsed": "0x13af6",
      "effectiveGasPrice": "0x15e2b6b7f",
      "from": "0xc77f7fed3b5cc8249adc428c5f44c9063b9734b4",
      "to": "0xbf4a322f1496e5c3d34a9bcdb4c60567b38c7de2",
      "contractAddress": null
    }
  ],
  "libraries": [],
  "pending": [],
  "returns": {},
  "timestamp": 1736950525,
  "chain": 11155111,
  "commit": "51a374b"
}