{
  "transactions": [
    {
      "hash": "0x61179db5e980e01208543f1db6a1bd423ffd007b9834ba8d153be9abffa8f73b",
      "transactionType": "CALL",
      "contractName": null,
      "contractAddress": "0x8aafd3ede9adb0ff97c7aebce82a919afb1c8764",
      "function": "sell(uint256)",
      "arguments": [
        "3042440235825"
      ],
      "transaction": {
        "from": "0xc77f7fed3b5cc8249adc428c5f44c9063b9734b4",
        "to": "0x8aafd3ede9adb0ff97c7aebce82a919afb1c8764",
        "gas": "0x15daa",
        "value": "0x0",
        "input": "0xe4849b32000000000000000000000000000000000000000000000000000002c45f91cb31",
        "nonce": "0xf43",
        "chainId": "0xaa36a7"
      },
      "additionalContracts": [],
      "isFixedGasLimit": false
    }
  ],
  "receipts": [
    {
      "status": "0x1",
      "cumulativeGasUsed": "0x1218dc8",
      "logs": [
        {
          "address": "0x8aafd3ede9adb0ff97c7aebce82a919afb1c8764",
          "topics": [
            "0xddf252ad1be2c89b69c2b068fc378daa952ba7f163c4a11628f55a4df523b3ef",
            "0x000000000000000000000000c77f7fed3b5cc8249adc428c5f44c9063b9734b4",
            "0x0000000000000000000000000000000000000000000000000000000000000000"
          ],
          "data": "0x000000000000000000000000000000000000000000000000000002beb4d229d3",
          "blockHash": "0x704dfdf8b25a70cf1c1ec370ca7e059f207cddde7ac09b033b9353834c1b5a68",
          "blockNumber": "0x73159e",
          "transactionHash": "0x61179db5e980e01208543f1db6a1bd423ffd007b9834ba8d153be9abffa8f73b",
          "transactionIndex": "0x93",
          "logIndex": "0x11e",
          "removed": false
        },
        {
          "address": "0x8aafd3ede9adb0ff97c7aebce82a919afb1c8764",
          "topics": [
            "0xddf252ad1be2c89b69c2b068fc378daa952ba7f163c4a11628f55a4df523b3ef",
            "0x000000000000000000000000c77f7fed3b5cc8249adc428c5f44c9063b9734b4",
            "0x000000000000000000000000c77f7fed3b5cc8249adc428c5f44c9063b9734b4"
          ],
          "data": "0x00000000000000000000000000000000000000000000000000000005aabfa15e",
          "blockHash": "0x704dfdf8b25a70cf1c1ec370ca7e059f207cddde7ac09b033b9353834c1b5a68",
          "blockNumber": "0x73159e",
          "transactionHash": "0x61179db5e980e01208543f1db6a1bd423ffd007b9834ba8d153be9abffa8f73b",
          "transactionIndex": "0x93",
          "logIndex": "0x11f",
          "removed": false
        },
        {
          "address": "0x8aafd3ede9adb0ff97c7aebce82a919afb1c8764",
          "topics": [
            "0x4afcb4a87cdbd9974efdb92ee48bc8d7cd0ae4bf217004db3d080cbaee652ca7"
          ],
          "data": "0x00000000000000000000000000000000000000000000000000000000679000140000000000000000000000000000000000000000000000000004c033badb46e100000000000000000000000000000000000000000000000000000000f27f6cf6",
          "blockHash": "0x704dfdf8b25a70cf1c1ec370ca7e059f207cddde7ac09b033b9353834c1b5a68",
          "blockNumber": "0x73159e",
          "transactionHash": "0x61179db5e980e01208543f1db6a1bd423ffd007b9834ba8d153be9abffa8f73b",
          "transactionIndex": "0x93",
          "logIndex": "0x120",
          "removed": false
        }
      ],
      "logsBloom": "0x00000000000000000000000000000000000000000600000000000000000000000000000000000000000000000000000000000000000000004000000000000000000000000000004000000008000000000000000000000000000000000000000000000000020000000000000000000800020000000000000000000010000000000000000000000000000000000000000000000000000000000000010000000000000000000000000000000000000000004000000000000000000000000000000000000002000000800000000000000000000000000000080000000000000020000000000000000000000000000000000000000000000000000000000000000000",
      "type": "0x2",
      "transactionHash": "0x61179db5e980e01208543f1db6a1bd423ffd007b9834ba8d153be9abffa8f73b",
      "transactionIndex": "0x93",
      "blockHash": "0x704dfdf8b25a70cf1c1ec370ca7e059f207cddde7ac09b033b9353834c1b5a68",
      "blockNumber": "0x73159e",
      "gasUsed": "0xfd27",
      "effectiveGasPrice": "0x644dc1db",
      "from": "0xc77f7fed3b5cc8249adc428c5f44c9063b9734b4",
      "to": "0x8aafd3ede9adb0ff97c7aebce82a919afb1c8764",
      "contractAddress": null
    }
  ],
  "libraries": [],
  "pending": [],
  "returns": {},
  "timestamp": 1737490453,
  "chain": 11155111,
  "commit": "1d2fb70"
}