{
  "transactions": [
    {
      "hash": "0xcd7a3465ec298d2ae5ac94a6725ff729b7c98b6e887b2de72f417f0108fedc43",
      "transactionType": "CALL",
      "contractName": null,
      "contractAddress": "0x270e88f8683660553e8ba4eb2ad7c91a1710d769",
      "function": "buy(address)",
      "arguments": [
        "0xC77f7fed3b5Cc8249aDc428c5F44C9063B9734b4"
      ],
      "transaction": {
        "from": "0xc77f7fed3b5cc8249adc428c5f44c9063b9734b4",
        "to": "0x270e88f8683660553e8ba4eb2ad7c91a1710d769",
        "gas": "0x1b30c",
        "value": "0xde0b6b3a7640000",
        "input": "0xf088d547000000000000000000000000c77f7fed3b5cc8249adc428c5f44c9063b9734b4",
        "nonce": "0x7c9",
        "chainId": "0xaa36a7"
      },
      "additionalContracts": [],
      "isFixedGasLimit": false
    }
  ],
  "receipts": [
    {
      "status": "0x1",
      "cumulativeGasUsed": "0x702f1f",
      "logs": [
        {
          "address": "0x270e88f8683660553e8ba4eb2ad7c91a1710d769",
          "topics": [
            "0xddf252ad1be2c89b69c2b068fc378daa952ba7f163c4a11628f55a4df523b3ef",
            "0x0000000000000000000000000000000000000000000000000000000000000000",
            "0x000000000000000000000000c77f7fed3b5cc8249adc428c5f44c9063b9734b4"
          ],
          "data": "0x0000000000000000000000000000000000000000000000275204159fe381814a",
          "blockHash": "0x2037f78e256e61a540a895b442d47f42ef1a5428edb8c4c88929aa87e49de4d6",
          "blockNumber": "0x725501",
          "transactionHash": "0xcd7a3465ec298d2ae5ac94a6725ff729b7c98b6e887b2de72f417f0108fedc43",
          "transactionIndex": "0x4b",
          "logIndex": "0x67",
          "removed": false
        },
        {
          "address": "0x270e88f8683660553e8ba4eb2ad7c91a1710d769",
          "topics": [
            "0xddf252ad1be2c89b69c2b068fc378daa952ba7f163c4a11628f55a4df523b3ef",
            "0x0000000000000000000000000000000000000000000000000000000000000000",
            "0x000000000000000000000000c77f7fed3b5cc8249adc428c5f44c9063b9734b4"
          ],
          "data": "0x0000000000000000000000000000000000000000000000001e889ad0353701a8",
          "blockHash": "0x2037f78e256e61a540a895b442d47f42ef1a5428edb8c4c88929aa87e49de4d6",
          "blockNumber": "0x725501",
          "transactionHash": "0xcd7a3465ec298d2ae5ac94a6725ff729b7c98b6e887b2de72f417f0108fedc43",
          "transactionIndex": "0x4b",
          "logIndex": "0x68",
          "removed": false
        },
        {
          "address": "0x270e88f8683660553e8ba4eb2ad7c91a1710d769",
          "topics": [
            "0x4afcb4a87cdbd9974efdb92ee48bc8d7cd0ae4bf217004db3d080cbaee652ca7"
          ],
          "data": "0x000000000000000000000000000000000000000000000000000000006786ee140000000000000000000000000000000000000000000000000004d9772b472c620000000000000000000000000000000000000000000000000de0b6b3a7640000",
          "blockHash": "0x2037f78e256e61a540a895b442d47f42ef1a5428edb8c4c88929aa87e49de4d6",
          "blockNumber": "0x725501",
          "transactionHash": "0xcd7a3465ec298d2ae5ac94a6725ff729b7c98b6e887b2de72f417f0108fedc43",
          "transactionIndex": "0x4b",
          "logIndex": "0x69",
          "removed": false
        }
      ],
      "logsBloom": "0x00000000000000000000000000000000000000000000000000000000000000000000000000000000000000000000000020000000000000004000000000000000000000000000000000000008000000000000000000000000000000000000000000000000020000000000000000000800020000000000000000000010000000000000000000010000000000000000000000000000000000000000010000000000000000000000000000000000000000004000000000000000000000000000000000000002000000800000000000000000000000000000080000008000000020000000000000000000000000000000000000000000000000000000000000000000",
      "type": "0x2",
      "transactionHash": "0xcd7a3465ec298d2ae5ac94a6725ff729b7c98b6e887b2de72f417f0108fedc43",
      "transactionIndex": "0x4b",
      "blockHash": "0x2037f78e256e61a540a895b442d47f42ef1a5428edb8c4c88929aa87e49de4d6",
      "blockNumber": "0x725501",
      "gasUsed": "0x13af8",
      "effectiveGasPrice": "0xc7075eef",
      "from": "0xc77f7fed3b5cc8249adc428c5f44c9063b9734b4",
      "to": "0x270e88f8683660553e8ba4eb2ad7c91a1710d769",
      "contractAddress": null
    }
  ],
  "libraries": [],
  "pending": [],
  "returns": {},
  "timestamp": 1736896022,
  "chain": 11155111,
  "commit": "51a374b"
}