{
  "transactions": [
    {
      "hash": "0xa907b9466c7ad72a439353c19a31bba21c85aa22dcc243c5f38bf148efeaa9ba",
      "transactionType": "CALL",
      "contractName": null,
      "contractAddress": "0x8aafd3ede9adb0ff97c7aebce82a919afb1c8764",
      "function": "sell(uint256)",
      "arguments": [
        "360282955900197"
      ],
      "transaction": {
        "from": "0xc77f7fed3b5cc8249adc428c5f44c9063b9734b4",
        "to": "0x8aafd3ede9adb0ff97c7aebce82a919afb1c8764",
        "gas": "0x1724d",
        "value": "0x0",
        "input": "0xe4849b32000000000000000000000000000000000000000000000000000147ace99ae525",
        "nonce": "0x10d0",
        "chainId": "0xaa36a7"
      },
      "additionalContracts": [],
      "isFixedGasLimit": false
    }
  ],
  "receipts": [
    {
      "status": "0x1",
      "cumulativeGasUsed": "0xa53b0d",
      "logs": [
        {
          "address": "0x8aafd3ede9adb0ff97c7aebce82a919afb1c8764",
          "topics": [
            "0xddf252ad1be2c89b69c2b068fc378daa952ba7f163c4a11628f55a4df523b3ef",
            "0x000000000000000000000000c77f7fed3b5cc8249adc428c5f44c9063b9734b4",
            "0x0000000000000000000000000000000000000000000000000000000000000000"
          ],
          "data": "0x0000000000000000000000000000000000000000000000000001450dd54de144",
          "blockHash": "0x97145d9adf0c2bc5123a5b028efc3f6373df03963ff7b821ea171c6c99019836",
          "blockNumber": "0x73176e",
          "transactionHash": "0xa907b9466c7ad72a439353c19a31bba21c85aa22dcc243c5f38bf148efeaa9ba",
          "transactionIndex": "0x7d",
          "logIndex": "0x93",
          "removed": false
        },
        {
          "address": "0x8aafd3ede9adb0ff97c7aebce82a919afb1c8764",
          "topics": [
            "0xddf252ad1be2c89b69c2b068fc378daa952ba7f163c4a11628f55a4df523b3ef",
            "0x000000000000000000000000c77f7fed3b5cc8249adc428c5f44c9063b9734b4",
            "0x000000000000000000000000c77f7fed3b5cc8249adc428c5f44c9063b9734b4"
          ],
          "data": "0x0000000000000000000000000000000000000000000000000000029f144d03e1",
          "blockHash": "0x97145d9adf0c2bc5123a5b028efc3f6373df03963ff7b821ea171c6c99019836",
          "blockNumber": "0x73176e",
          "transactionHash": "0xa907b9466c7ad72a439353c19a31bba21c85aa22dcc243c5f38bf148efeaa9ba",
          "transactionIndex": "0x7d",
          "logIndex": "0x94",
          "removed": false
        },
        {
          "address": "0x8aafd3ede9adb0ff97c7aebce82a919afb1c8764",
          "topics": [
            "0x4afcb4a87cdbd9974efdb92ee48bc8d7cd0ae4bf217004db3d080cbaee652ca7"
          ],
          "data": "0x00000000000000000000000000000000000000000000000000000000679015ec000000000000000000000000000000000000000000000000000504e586c6ed7e00000000000000000000000000000000000000000000000000000076825734d3",
          "blockHash": "0x97145d9adf0c2bc5123a5b028efc3f6373df03963ff7b821ea171c6c99019836",
          "blockNumber": "0x73176e",
          "transactionHash": "0xa907b9466c7ad72a439353c19a31bba21c85aa22dcc243c5f38bf148efeaa9ba",
          "transactionIndex": "0x7d",
          "logIndex": "0x95",
          "removed": false
        }
      ],
      "logsBloom": "0x00000000000000000000000000000000000000000600000000000000000000000000000000000000000000000000000000000000000000004000000000000000000000000000004000000008000000000000000000000000000000000000000000000000020000000000000000000800020000000000000000000010000000000000000000000000000000000000000000000000000000000000010000000000000000000000000000000000000000004000000000000000000000000000000000000002000000800000000000000000000000000000080000000000000020000000000000000000000000000000000000000000000000000000000000000000",
      "type": "0x2",
      "transactionHash": "0xa907b9466c7ad72a439353c19a31bba21c85aa22dcc243c5f38bf148efeaa9ba",
      "transactionIndex": "0x7d",
      "blockHash": "0x97145d9adf0c2bc5123a5b028efc3f6373df03963ff7b821ea171c6c99019836",
      "blockNumber": "0x73176e",
      "gasUsed": "0xfd33",
      "effectiveGasPrice": "0x3c188877",
      "from": "0xc77f7fed3b5cc8249adc428c5f44c9063b9734b4",
      "to": "0x8aafd3ede9adb0ff97c7aebce82a919afb1c8764",
      "contractAddress": null
    }
  ],
  "libraries": [],
  "pending": [],
  "returns": {},
  "timestamp": 1737496045,
  "chain": 11155111,
  "commit": "1d2fb70"
}