{
  "transactions": [
    {
      "hash": "0xd44a2bed7d0d16d435c542780bea70d8bb8a2969e90684e5cd5acac47ce2623a",
      "transactionType": "CALL",
      "contractName": null,
      "contractAddress": "0x270e88f8683660553e8ba4eb2ad7c91a1710d769",
      "function": "buy(address)",
      "arguments": [
        "0xC77f7fed3b5Cc8249aDc428c5F44C9063B9734b4"
      ],
      "transaction": {
        "from": "0xc77f7fed3b5cc8249adc428c5f44c9063b9734b4",
        "to": "0x270e88f8683660553e8ba4eb2ad7c91a1710d769",
        "gas": "0x1b30c",
        "value": "0xde0b6b3a7640000",
        "input": "0xf088d547000000000000000000000000c77f7fed3b5cc8249adc428c5f44c9063b9734b4",
        "nonce": "0x7d3",
        "chainId": "0xaa36a7"
      },
      "additionalContracts": [],
      "isFixedGasLimit": false
    }
  ],
  "receipts": [
    {
      "status": "0x1",
      "cumulativeGasUsed": "0x12d1c92",
      "logs": [
        {
          "address": "0x270e88f8683660553e8ba4eb2ad7c91a1710d769",
          "topics": [
            "0xddf252ad1be2c89b69c2b068fc378daa952ba7f163c4a11628f55a4df523b3ef",
            "0x0000000000000000000000000000000000000000000000000000000000000000",
            "0x000000000000000000000000c77f7fed3b5cc8249adc428c5f44c9063b9734b4"
          ],
          "data": "0x0000000000000000000000000000000000000000000000274626ef5349c2451a",
          "blockHash": "0xb7d5f1d564eedad0b58f3afc452bf2925b3ce5496dafcda172feb5a425a9de2c",
          "blockNumber": "0x72550c",
          "transactionHash": "0xd44a2bed7d0d16d435c542780bea70d8bb8a2969e90684e5cd5acac47ce2623a",
          "transactionIndex": "0x5b",
          "logIndex": "0x8b",
          "removed": false
        },
        {
          "address": "0x270e88f8683660553e8ba4eb2ad7c91a1710d769",
          "topics": [
            "0xddf252ad1be2c89b69c2b068fc378daa952ba7f163c4a11628f55a4df523b3ef",
            "0x0000000000000000000000000000000000000000000000000000000000000000",
            "0x000000000000000000000000c77f7fed3b5cc8249adc428c5f44c9063b9734b4"
          ],
          "data": "0x0000000000000000000000000000000000000000000000001e7f645cf0939a4c",
          "blockHash": "0xb7d5f1d564eedad0b58f3afc452bf2925b3ce5496dafcda172feb5a425a9de2c",
          "blockNumber": "0x72550c",
          "transactionHash": "0xd44a2bed7d0d16d435c542780bea70d8bb8a2969e90684e5cd5acac47ce2623a",
          "transactionIndex": "0x5b",
          "logIndex": "0x8c",
          "removed": false
        },
        {
          "address": "0x270e88f8683660553e8ba4eb2ad7c91a1710d769",
          "topics": [
            "0x4afcb4a87cdbd9974efdb92ee48bc8d7cd0ae4bf217004db3d080cbaee652ca7"
          ],
          "data": "0x000000000000000000000000000000000000000000000000000000006786ee980000000000000000000000000000000000000000000000000004daee289a95ee0000000000000000000000000000000000000000000000000de0b6b3a7640000",
          "blockHash": "0xb7d5f1d564eedad0b58f3afc452bf2925b3ce5496dafcda172feb5a425a9de2c",
          "blockNumber": "0x72550c",
          "transactionHash": "0xd44a2bed7d0d16d435c542780bea70d8bb8a2969e90684e5cd5acac47ce2623a",
          "transactionIndex": "0x5b",
          "logIndex": "0x8d",
          "removed": false
        }
      ],
      "logsBloom": "0x00000000000000000000000000000000000000000000000000000000000000000000000000000000000000000000000020000000000000004000000000000000000000000000000000000008000000000000000000000000000000000000000000000000020000000000000000000800020000000000000000000010000000000000000000010000000000000000000000000000000000000000010000000000000000000000000000000000000000004000000000000000000000000000000000000002000000800000000000000000000000000000080000008000000020000000000000000000000000000000000000000000000000000000000000000000",
      "type": "0x2",
      "transactionHash": "0xd44a2bed7d0d16d435c542780bea70d8bb8a2969e90684e5cd5acac47ce2623a",
      "transactionIndex": "0x5b",
      "blockHash": "0xb7d5f1d564eedad0b58f3afc452bf2925b3ce5496dafcda172feb5a425a9de2c",
      "blockNumber": "0x72550c",
      "gasUsed": "0x13af8",
      "effectiveGasPrice": "0xadfcc3b2",
      "from": "0xc77f7fed3b5cc8249adc428c5f44c9063b9734b4",
      "to": "0x270e88f8683660553e8ba4eb2ad7c91a1710d769",
      "contractAddress": null
    }
  ],
  "libraries": [],
  "pending": [],
  "returns": {},
  "timestamp": 1736896152,
  "chain": 11155111,
  "commit": "51a374b"
}