{
  "transactions": [
    {
      "hash": "0xc66f773cebee246d94225b176d55c8c7daecdbbab70a93f30ad9633e008e8342",
      "transactionType": "CALL",
      "contractName": null,
      "contractAddress": "0x8aafd3ede9adb0ff97c7aebce82a919afb1c8764",
      "function": "sell(uint256)",
      "arguments": [
        "632393287086"
      ],
      "transaction": {
        "from": "0xc77f7fed3b5cc8249adc428c5f44c9063b9734b4",
        "to": "0x8aafd3ede9adb0ff97c7aebce82a919afb1c8764",
        "gas": "0x1722a",
        "value": "0x0",
        "input": "0xe4849b32000000000000000000000000000000000000000000000000000000933d93c5ae",
        "nonce": "0x16fb",
        "chainId": "0xaa36a7"
      },
      "additionalContracts": [],
      "isFixedGasLimit": false
    }
  ],
  "receipts": [
    {
      "status": "0x1",
      "cumulativeGasUsed": "0xc711a8",
      "logs": [
        {
          "address": "0x8aafd3ede9adb0ff97c7aebce82a919afb1c8764",
          "topics": [
            "0xddf252ad1be2c89b69c2b068fc378daa952ba7f163c4a11628f55a4df523b3ef",
            "0x000000000000000000000000c77f7fed3b5cc8249adc428c5f44c9063b9734b4",
            "0x0000000000000000000000000000000000000000000000000000000000000000"
          ],
          "data": "0x0000000000000000000000000000000000000000000000000000009210075376",
          "blockHash": "0x51f820d4bcebbda7d89c1a184b0e84a0a1e4bdee5529e4bba9e3349485e96ae2",
          "blockNumber": "0x731ebf",
          "transactionHash": "0xc66f773cebee246d94225b176d55c8c7daecdbbab70a93f30ad9633e008e8342",
          "transactionIndex": "0x65",
          "logIndex": "0xc1",
          "removed": false
        },
        {
          "address": "0x8aafd3ede9adb0ff97c7aebce82a919afb1c8764",
          "topics": [
            "0xddf252ad1be2c89b69c2b068fc378daa952ba7f163c4a11628f55a4df523b3ef",
            "0x000000000000000000000000c77f7fed3b5cc8249adc428c5f44c9063b9734b4",
            "0x000000000000000000000000c77f7fed3b5cc8249adc428c5f44c9063b9734b4"
          ],
          "data": "0x000000000000000000000000000000000000000000000000000000012d8c7238",
          "blockHash": "0x51f820d4bcebbda7d89c1a184b0e84a0a1e4bdee5529e4bba9e3349485e96ae2",
          "blockNumber": "0x731ebf",
          "transactionHash": "0xc66f773cebee246d94225b176d55c8c7daecdbbab70a93f30ad9633e008e8342",
          "transactionIndex": "0x65",
          "logIndex": "0xc2",
          "removed": false
        },
        {
          "address": "0x8aafd3ede9adb0ff97c7aebce82a919afb1c8764",
          "topics": [
            "0x4afcb4a87cdbd9974efdb92ee48bc8d7cd0ae4bf217004db3d080cbaee652ca7"
          ],
          "data": "0x0000000000000000000000000000000000000000000000000000000067906ddc0000000000000000000000000000000000000000000000000016f47c9fa8b9ab00000000000000000000000000000000000000000000000000000000f38c57b2",
          "blockHash": "0x51f820d4bcebbda7d89c1a184b0e84a0a1e4bdee5529e4bba9e3349485e96ae2",
          "blockNumber": "0x731ebf",
          "transactionHash": "0xc66f773cebee246d94225b176d55c8c7daecdbbab70a93f30ad9633e008e8342",
          "transactionIndex": "0x65",
          "logIndex": "0xc3",
          "removed": false
        }
      ],
      "logsBloom": "0x00000000000000000000000000000000000000000600000000000000000000000000000000000000000000000000000000000000000000004000000000000000000000000000004000000008000000000000000000000000000000000000000000000000020000000000000000000800020000000000000000000010000000000000000000000000000000000000000000000000000000000000010000000000000000000000000000000000000000004000000000000000000000000000000000000002000000800000000000000000000000000000080000000000000020000000000000000000000000000000000000000000000000000000000000000000",
      "type": "0x2",
      "transactionHash": "0xc66f773cebee246d94225b176d55c8c7daecdbbab70a93f30ad9633e008e8342",
      "transactionIndex": "0x65",
      "blockHash": "0x51f820d4bcebbda7d89c1a184b0e84a0a1e4bdee5529e4bba9e3349485e96ae2",
      "blockNumber": "0x731ebf",
      "gasUsed": "0xfd1b",
      "effectiveGasPrice": "0x46e332a7",
      "from": "0xc77f7fed3b5cc8249adc428c5f44c9063b9734b4",
      "to": "0x8aafd3ede9adb0ff97c7aebce82a919afb1c8764",
      "contractAddress": null
    }
  ],
  "libraries": [],
  "pending": [],
  "returns": {},
  "timestamp": 1737518557,
  "chain": 11155111,
  "commit": "1d2fb70"
}