{
  "transactions": [
    {
      "hash": "0x9b9f93bdb6d98f62e0661d55bcabf4fb6ebbf49deee1a908d9df21bdaaa9e5e6",
      "transactionType": "CALL",
      "contractName": null,
      "contractAddress": "0x270e88f8683660553e8ba4eb2ad7c91a1710d769",
      "function": "buy(address)",
      "arguments": [
        "0xC77f7fed3b5Cc8249aDc428c5F44C9063B9734b4"
      ],
      "transaction": {
        "from": "0xc77f7fed3b5cc8249adc428c5f44c9063b9734b4",
        "to": "0x270e88f8683660553e8ba4eb2ad7c91a1710d769",
        "gas": "0x1b30c",
        "value": "0xde0b6b3a7640000",
        "input": "0xf088d547000000000000000000000000c77f7fed3b5cc8249adc428c5f44c9063b9734b4",
        "nonce": "0x4ec",
        "chainId": "0xaa36a7"
      },
      "additionalContracts": [],
      "isFixedGasLimit": false
    }
  ],
  "receipts": [
    {
      "status": "0x1",
      "cumulativeGasUsed": "0xc5a032",
      "logs": [
        {
          "address": "0x270e88f8683660553e8ba4eb2ad7c91a1710d769",
          "topics": [
            "0xddf252ad1be2c89b69c2b068fc378daa952ba7f163c4a11628f55a4df523b3ef",
            "0x0000000000000000000000000000000000000000000000000000000000000000",
            "0x000000000000000000000000c77f7fed3b5cc8249adc428c5f44c9063b9734b4"
          ],
          "data": "0x00000000000000000000000000000000000000000000003576290fbae8543c46",
          "blockHash": "0x0914c99a4f3184d12c1c0614cab299b936fe23d1ba6f49fff311fdd3e34bd48c",
          "blockNumber": "0x72517c",
          "transactionHash": "0x9b9f93bdb6d98f62e0661d55bcabf4fb6ebbf49deee1a908d9df21bdaaa9e5e6",
          "transactionIndex": "0x65",
          "logIndex": "0x97",
          "removed": false
        },
        {
          "address": "0x270e88f8683660553e8ba4eb2ad7c91a1710d769",
          "topics": [
            "0xddf252ad1be2c89b69c2b068fc378daa952ba7f163c4a11628f55a4df523b3ef",
            "0x0000000000000000000000000000000000000000000000000000000000000000",
            "0x000000000000000000000000c77f7fed3b5cc8249adc428c5f44c9063b9734b4"
          ],
          "data": "0x0000000000000000000000000000000000000000000000002983c537ad75d49e",
          "blockHash": "0x0914c99a4f3184d12c1c0614cab299b936fe23d1ba6f49fff311fdd3e34bd48c",
          "blockNumber": "0x72517c",
          "transactionHash": "0x9b9f93bdb6d98f62e0661d55bcabf4fb6ebbf49deee1a908d9df21bdaaa9e5e6",
          "transactionIndex": "0x65",
          "logIndex": "0x98",
          "removed": false
        },
        {
          "address": "0x270e88f8683660553e8ba4eb2ad7c91a1710d769",
          "topics": [
            "0x4afcb4a87cdbd9974efdb92ee48bc8d7cd0ae4bf217004db3d080cbaee652ca7"
          ],
          "data": "0x000000000000000000000000000000000000000000000000000000006786c3b40000000000000000000000000000000000000000000000000003911c701e38390000000000000000000000000000000000000000000000000de0b6b3a7640000",
          "blockHash": "0x0914c99a4f3184d12c1c0614cab299b936fe23d1ba6f49fff311fdd3e34bd48c",
          "blockNumber": "0x72517c",
          "transactionHash": "0x9b9f93bdb6d98f62e0661d55bcabf4fb6ebbf49deee1a908d9df21bdaaa9e5e6",
          "transactionIndex": "0x65",
          "logIndex": "0x99",
          "removed": false
        }
      ],
      "logsBloom": "0x00000000000000000000000000000000000000000000000000000000000000000000000000000000000000000000000020000000000000004000000000000000000000000000000000000008000000000000000000000000000000000000000000000000020000000000000000000800020000000000000000000010000000000000000000010000000000000000000000000000000000000000010000000000000000000000000000000000000000004000000000000000000000000000000000000002000000800000000000000000000000000000080000008000000020000000000000000000000000000000000000000000000000000000000000000000",
      "type": "0x2",
      "transactionHash": "0x9b9f93bdb6d98f62e0661d55bcabf4fb6ebbf49deee1a908d9df21bdaaa9e5e6",
      "transactionIndex": "0x65",
      "blockHash": "0x0914c99a4f3184d12c1c0614cab299b936fe23d1ba6f49fff311fdd3e34bd48c",
      "blockNumber": "0x72517c",
      "gasUsed": "0x13af8",
      "effectiveGasPrice": "0x43cfb4752",
      "from": "0xc77f7fed3b5cc8249adc428c5f44c9063b9734b4",
      "to": "0x270e88f8683660553e8ba4eb2ad7c91a1710d769",
      "contractAddress": null
    }
  ],
  "libraries": [],
  "pending": [],
  "returns": {},
  "timestamp": 1736885173,
  "chain": 11155111,
  "commit": "51a374b"
}