{
  "transactions": [
    {
      "hash": "0x87192098f0c73edbbcdfa140c850685ecb4e080f3a954b0b7d30d6b6d4460db8",
      "transactionType": "CALL",
      "contractName": null,
      "contractAddress": "0x8aafd3ede9adb0ff97c7aebce82a919afb1c8764",
      "function": "sell(uint256)",
      "arguments": [
        "53425253"
      ],
      "transaction": {
        "from": "0xc77f7fed3b5cc8249adc428c5f44c9063b9734b4",
        "to": "0x8aafd3ede9adb0ff97c7aebce82a919afb1c8764",
        "gas": "0x15d88",
        "value": "0x0",
        "input": "0xe4849b3200000000000000000000000000000000000000000000000000000000032f3465",
        "nonce": "0x1520",
        "chainId": "0xaa36a7"
      },
      "additionalContracts": [],
      "isFixedGasLimit": false
    }
  ],
  "receipts": [
    {
      "status": "0x1",
      "cumulativeGasUsed": "0x6dc699",
      "logs": [
        {
          "address": "0x8aafd3ede9adb0ff97c7aebce82a919afb1c8764",
          "topics": [
            "0xddf252ad1be2c89b69c2b068fc378daa952ba7f163c4a11628f55a4df523b3ef",
            "0x000000000000000000000000c77f7fed3b5cc8249adc428c5f44c9063b9734b4",
            "0x0000000000000000000000000000000000000000000000000000000000000000"
          ],
          "data": "0x000000000000000000000000000000000000000000000000000000000328aedb",
          "blockHash": "0x3872566add7b9b412f1127e30440cb96759dc101b7ffddf7d09c7faa483c02e7",
          "blockNumber": "0x731c82",
          "transactionHash": "0x87192098f0c73edbbcdfa140c850685ecb4e080f3a954b0b7d30d6b6d4460db8",
          "transactionIndex": "0x46",
          "logIndex": "0x57",
          "removed": false
        },
        {
          "address": "0x8aafd3ede9adb0ff97c7aebce82a919afb1c8764",
          "topics": [
            "0xddf252ad1be2c89b69c2b068fc378daa952ba7f163c4a11628f55a4df523b3ef",
            "0x000000000000000000000000c77f7fed3b5cc8249adc428c5f44c9063b9734b4",
            "0x000000000000000000000000c77f7fed3b5cc8249adc428c5f44c9063b9734b4"
          ],
          "data": "0x000000000000000000000000000000000000000000000000000000000006858a",
          "blockHash": "0x3872566add7b9b412f1127e30440cb96759dc101b7ffddf7d09c7faa483c02e7",
          "blockNumber": "0x731c82",
          "transactionHash": "0x87192098f0c73edbbcdfa140c850685ecb4e080f3a954b0b7d30d6b6d4460db8",
          "transactionIndex": "0x46",
          "logIndex": "0x58",
          "removed": false
        },
        {
          "address": "0x8aafd3ede9adb0ff97c7aebce82a919afb1c8764",
          "topics": [
            "0x4afcb4a87cdbd9974efdb92ee48bc8d7cd0ae4bf217004db3d080cbaee652ca7"
          ],
          "data": "0x00000000000000000000000000000000000000000000000000000000679052f400000000000000000000000000000000000000000000000000116a00d47228b4000000000000000000000000000000000000000000000000000000000003feee",
          "blockHash": "0x3872566add7b9b412f1127e30440cb96759dc101b7ffddf7d09c7faa483c02e7",
          "blockNumber": "0x731c82",
          "transactionHash": "0x87192098f0c73edbbcdfa140c850685ecb4e080f3a954b0b7d30d6b6d4460db8",
          "transactionIndex": "0x46",
          "logIndex": "0x59",
          "removed": false
        }
      ],
      "logsBloom": "0x00000000000000000000000000000000000000000600000000000000000000000000000000000000000000000000000000000000000000004000000000000000000000000000004000000008000000000000000000000000000000000000000000000000020000000000000000000800020000000000000000000010000000000000000000000000000000000000000000000000000000000000010000000000000000000000000000000000000000004000000000000000000000000000000000000002000000800000000000000000000000000000080000000000000020000000000000000000000000000000000000000000000000000000000000000000",
      "type": "0x2",
      "transactionHash": "0x87192098f0c73edbbcdfa140c850685ecb4e080f3a954b0b7d30d6b6d4460db8",
      "transactionIndex": "0x46",
      "blockHash": "0x3872566add7b9b412f1127e30440cb96759dc101b7ffddf7d09c7faa483c02e7",
      "blockNumber": "0x731c82",
      "gasUsed": "0xfd0f",
      "effectiveGasPrice": "0x15df1b41a",
      "from": "0xc77f7fed3b5cc8249adc428c5f44c9063b9734b4",
      "to": "0x8aafd3ede9adb0ff97c7aebce82a919afb1c8764",
      "contractAddress": null
    }
  ],
  "libraries": [],
  "pending": [],
  "returns": {},
  "timestamp": 1737511669,
  "chain": 11155111,
  "commit": "1d2fb70"
}