{
  "transactions": [
    {
      "hash": "0x75ad4fd65a08f2e0c63b389c36ef34a8f35190cdfd0281947d57023b0bb55eda",
      "transactionType": "CALL",
      "contractName": null,
      "contractAddress": "0x8aafd3ede9adb0ff97c7aebce82a919afb1c8764",
      "function": "sell(uint256)",
      "arguments": [
        "708488017070994337365"
      ],
      "transaction": {
        "from": "0xc77f7fed3b5cc8249adc428c5f44c9063b9734b4",
        "to": "0x8aafd3ede9adb0ff97c7aebce82a919afb1c8764",
        "gas": "0x17270",
        "value": "0x0",
        "input": "0xe4849b32000000000000000000000000000000000000000000000026683f11cbb181ae55",
        "nonce": "0x1091",
        "chainId": "0xaa36a7"
      },
      "additionalContracts": [],
      "isFixedGasLimit": false
    }
  ],
  "receipts": [
    {
      "status": "0x1",
      "cumulativeGasUsed": "0x1029113",
      "logs": [
        {
          "address": "0x8aafd3ede9adb0ff97c7aebce82a919afb1c8764",
          "topics": [
            "0xddf252ad1be2c89b69c2b068fc378daa952ba7f163c4a11628f55a4df523b3ef",
            "0x000000000000000000000000c77f7fed3b5cc8249adc428c5f44c9063b9734b4",
            "0x0000000000000000000000000000000000000000000000000000000000000000"
          ],
          "data": "0x0000000000000000000000000000000000000000000000261996a1036868114b",
          "blockHash": "0xe04ed7942f9830dd008e72a7764264fbdedbf9edd57b63bb5800cdf5d1713fff",
          "blockNumber": "0x73171f",
          "transactionHash": "0x75ad4fd65a08f2e0c63b389c36ef34a8f35190cdfd0281947d57023b0bb55eda",
          "transactionIndex": "0xb1",
          "logIndex": "0xfc",
          "removed": false
        },
        {
          "address": "0x8aafd3ede9adb0ff97c7aebce82a919afb1c8764",
          "topics": [
            "0xddf252ad1be2c89b69c2b068fc378daa952ba7f163c4a11628f55a4df523b3ef",
            "0x000000000000000000000000c77f7fed3b5cc8249adc428c5f44c9063b9734b4",
            "0x000000000000000000000000c77f7fed3b5cc8249adc428c5f44c9063b9734b4"
          ],
          "data": "0x0000000000000000000000000000000000000000000000004ea870c849199d0a",
          "blockHash": "0xe04ed7942f9830dd008e72a7764264fbdedbf9edd57b63bb5800cdf5d1713fff",
          "blockNumber": "0x73171f",
          "transactionHash": "0x75ad4fd65a08f2e0c63b389c36ef34a8f35190cdfd0281947d57023b0bb55eda",
          "transactionIndex": "0xb1",
          "logIndex": "0xfd",
          "removed": false
        },
        {
          "address": "0x8aafd3ede9adb0ff97c7aebce82a919afb1c8764",
          "topics": [
            "0x4afcb4a87cdbd9974efdb92ee48bc8d7cd0ae4bf217004db3d080cbaee652ca7"
          ],
          "data": "0x00000000000000000000000000000000000000000000000000000000679012380000000000000000000000000000000000000000000000000004fc2c8b512c520000000000000000000000000000000000000000000000000dc8fcf82a852b39",
          "blockHash": "0xe04ed7942f9830dd008e72a7764264fbdedbf9edd57b63bb5800cdf5d1713fff",
          "blockNumber": "0x73171f",
          "transactionHash": "0x75ad4fd65a08f2e0c63b389c36ef34a8f35190cdfd0281947d57023b0bb55eda",
          "transactionIndex": "0xb1",
          "logIndex": "0xfe",
          "removed": false
        }
      ],
      "logsBloom": "0x00000000000000000000000000000000000000000600000000000000000000000000000000000000000000000000000000000000000000004000000000000000000000000000004000000008000000000000000000000000000000000000000000000000020000000000000000000800020000000000000000000010000000000000000000000000000000000000000000000000000000000000010000000000000000000000000000000000000000004000000000000000000000000000000000000002000000800000000000000000000000000000080000000000000020000000000000000000000000000000000000000000000000000000000000000000",
      "type": "0x2",
      "transactionHash": "0x75ad4fd65a08f2e0c63b389c36ef34a8f35190cdfd0281947d57023b0bb55eda",
      "transactionIndex": "0xb1",
      "blockHash": "0xe04ed7942f9830dd008e72a7764264fbdedbf9edd57b63bb5800cdf5d1713fff",
      "blockNumber": "0x73171f",
      "gasUsed": "0xfd4b",
      "effectiveGasPrice": "0x464adda1",
      "from": "0xc77f7fed3b5cc8249adc428c5f44c9063b9734b4",
      "to": "0x8aafd3ede9adb0ff97c7aebce82a919afb1c8764",
      "contractAddress": null
    }
  ],
  "libraries": [],
  "pending": [],
  "returns": {},
  "timestamp": 1737495099,
  "chain": 11155111,
  "commit": "1d2fb70"
}