{
  "transactions": [
    {
      "hash": "0xac20bcd150b28bf138bd16db104c0796baa8117a05fe23f2cde916decc0e0e96",
      "transactionType": "CALL",
      "contractName": null,
      "contractAddress": "0x8aafd3ede9adb0ff97c7aebce82a919afb1c8764",
      "function": "sell(uint256)",
      "arguments": [
        "181923432910603759164"
      ],
      "transaction": {
        "from": "0xc77f7fed3b5cc8249adc428c5f44c9063b9734b4",
        "to": "0x8aafd3ede9adb0ff97c7aebce82a919afb1c8764",
        "gas": "0x17270",
        "value": "0x0",
        "input": "0xe4849b32000000000000000000000000000000000000000000000009dcb1de5c4c252e3c",
        "nonce": "0x15ce",
        "chainId": "0xaa36a7"
      },
      "additionalContracts": [],
      "isFixedGasLimit": false
    }
  ],
  "receipts": [
    {
      "status": "0x1",
      "cumulativeGasUsed": "0xca0e1b",
      "logs": [
        {
          "address": "0x8aafd3ede9adb0ff97c7aebce82a919afb1c8764",
          "topics": [
            "0xddf252ad1be2c89b69c2b068fc378daa952ba7f163c4a11628f55a4df523b3ef",
            "0x000000000000000000000000c77f7fed3b5cc8249adc428c5f44c9063b9734b4",
            "0x0000000000000000000000000000000000000000000000000000000000000000"
          ],
          "data": "0x000000000000000000000000000000000000000000000009c87f4b2c747efec3",
          "blockHash": "0xd9a21809450a766ae39074184c04f69b390a67133b63c2b7d1665482ddc89b97",
          "blockNumber": "0x731d4a",
          "transactionHash": "0xac20bcd150b28bf138bd16db104c0796baa8117a05fe23f2cde916decc0e0e96",
          "transactionIndex": "0x6c",
          "logIndex": "0xa9",
          "removed": false
        },
        {
          "address": "0x8aafd3ede9adb0ff97c7aebce82a919afb1c8764",
          "topics": [
            "0xddf252ad1be2c89b69c2b068fc378daa952ba7f163c4a11628f55a4df523b3ef",
            "0x000000000000000000000000c77f7fed3b5cc8249adc428c5f44c9063b9734b4",
            "0x000000000000000000000000c77f7fed3b5cc8249adc428c5f44c9063b9734b4"
          ],
          "data": "0x0000000000000000000000000000000000000000000000001432932fd7a62f79",
          "blockHash": "0xd9a21809450a766ae39074184c04f69b390a67133b63c2b7d1665482ddc89b97",
          "blockNumber": "0x731d4a",
          "transactionHash": "0xac20bcd150b28bf138bd16db104c0796baa8117a05fe23f2cde916decc0e0e96",
          "transactionIndex": "0x6c",
          "logIndex": "0xaa",
          "removed": false
        },
        {
          "address": "0x8aafd3ede9adb0ff97c7aebce82a919afb1c8764",
          "topics": [
            "0x4afcb4a87cdbd9974efdb92ee48bc8d7cd0ae4bf217004db3d080cbaee652ca7"
          ],
          "data": "0x0000000000000000000000000000000000000000000000000000000067905c6000000000000000000000000000000000000000000000000000137ee887bb2a9c0000000000000000000000000000000000000000000000000dcc9923529765d1",
          "blockHash": "0xd9a21809450a766ae39074184c04f69b390a67133b63c2b7d1665482ddc89b97",
          "blockNumber": "0x731d4a",
          "transactionHash": "0xac20bcd150b28bf138bd16db104c0796baa8117a05fe23f2cde916decc0e0e96",
          "transactionIndex": "0x6c",
          "logIndex": "0xab",
          "removed": false
        }
      ],
      "logsBloom": "0x00000000000000000000000000000000000000000600000000000000000000000000000000000000000000000000000000000000000000004000000000000000000000000000004000000008000000000000000000000000000000000000000000000000020000000000000000000800020000000000000000000010000000000000000000000000000000000000000000000000000000000000010000000000000000000000000000000000000000004000000000000000000000000000000000000002000000800000000000000000000000000000080000000000000020000000000000000000000000000000000000000000000000000000000000000000",
      "type": "0x2",
      "transactionHash": "0xac20bcd150b28bf138bd16db104c0796baa8117a05fe23f2cde916decc0e0e96",
      "transactionIndex": "0x6c",
      "blockHash": "0xd9a21809450a766ae39074184c04f69b390a67133b63c2b7d1665482ddc89b97",
      "blockNumber": "0x731d4a",
      "gasUsed": "0xfd4b",
      "effectiveGasPrice": "0x65ce6816",
      "from": "0xc77f7fed3b5cc8249adc428c5f44c9063b9734b4",
      "to": "0x8aafd3ede9adb0ff97c7aebce82a919afb1c8764",
      "contractAddress": null
    }
  ],
  "libraries": [],
  "pending": [],
  "returns": {},
  "timestamp": 1737514081,
  "chain": 11155111,
  "commit": "1d2fb70"
}