{
  "transactions": [
    {
      "hash": "0x0c1a9c2df12329ea88f5ddcb5f5dabce2c371cbdcdc010ecf6d7732a9cd36b77",
      "transactionType": "CALL",
      "contractName": null,
      "contractAddress": "0x8aafd3ede9adb0ff97c7aebce82a919afb1c8764",
      "function": "sell(uint256)",
      "arguments": [
        "1424699018660670020"
      ],
      "transaction": {
        "from": "0xc77f7fed3b5cc8249adc428c5f44c9063b9734b4",
        "to": "0x8aafd3ede9adb0ff97c7aebce82a919afb1c8764",
        "gas": "0x15dca",
        "value": "0x0",
        "input": "0xe4849b3200000000000000000000000000000000000000000000000013c58c35871dea44",
        "nonce": "0x15f3",
        "chainId": "0xaa36a7"
      },
      "additionalContracts": [],
      "isFixedGasLimit": false
    }
  ],
  "receipts": [
    {
      "status": "0x1",
      "cumulativeGasUsed": "0xd55b0c",
      "logs": [
        {
          "address": "0x8aafd3ede9adb0ff97c7aebce82a919afb1c8764",
          "topics": [
            "0xddf252ad1be2c89b69c2b068fc378daa952ba7f163c4a11628f55a4df523b3ef",
            "0x000000000000000000000000c77f7fed3b5cc8249adc428c5f44c9063b9734b4",
            "0x0000000000000000000000000000000000000000000000000000000000000000"
          ],
          "data": "0x000000000000000000000000000000000000000000000000139d0e28cfc39054",
          "blockHash": "0x7284edffd5ff6389620d442c9d67133685dd4fc95c47ab87b6048ee939afd79e",
          "blockNumber": "0x731d7c",
          "transactionHash": "0x0c1a9c2df12329ea88f5ddcb5f5dabce2c371cbdcdc010ecf6d7732a9cd36b77",
          "transactionIndex": "0x83",
          "logIndex": "0xd1",
          "removed": false
        },
        {
          "address": "0x8aafd3ede9adb0ff97c7aebce82a919afb1c8764",
          "topics": [
            "0xddf252ad1be2c89b69c2b068fc378daa952ba7f163c4a11628f55a4df523b3ef",
            "0x000000000000000000000000c77f7fed3b5cc8249adc428c5f44c9063b9734b4",
            "0x000000000000000000000000c77f7fed3b5cc8249adc428c5f44c9063b9734b4"
          ],
          "data": "0x00000000000000000000000000000000000000000000000000287e0cb75a59f0",
          "blockHash": "0x7284edffd5ff6389620d442c9d67133685dd4fc95c47ab87b6048ee939afd79e",
          "blockNumber": "0x731d7c",
          "transactionHash": "0x0c1a9c2df12329ea88f5ddcb5f5dabce2c371cbdcdc010ecf6d7732a9cd36b77",
          "transactionIndex": "0x83",
          "logIndex": "0xd2",
          "removed": false
        },
        {
          "address": "0x8aafd3ede9adb0ff97c7aebce82a919afb1c8764",
          "topics": [
            "0x4afcb4a87cdbd9974efdb92ee48bc8d7cd0ae4bf217004db3d080cbaee652ca7"
          ],
          "data": "0x0000000000000000000000000000000000000000000000000000000067905eb80000000000000000000000000000000000000000000000000013ea077639ae06000000000000000000000000000000000000000000000000001c5eeddc5c4257",
          "blockHash": "0x7284edffd5ff6389620d442c9d67133685dd4fc95c47ab87b6048ee939afd79e",
          "blockNumber": "0x731d7c",
          "transactionHash": "0x0c1a9c2df12329ea88f5ddcb5f5dabce2c371cbdcdc010ecf6d7732a9cd36b77",
          "transactionIndex": "0x83",
          "logIndex": "0xd3",
          "removed": false
        }
      ],
      "logsBloom": "0x00000000000000000000000000000000000000000600000000000000000000000000000000000000000000000000000000000000000000004000000000000000000000000000004000000008000000000000000000000000000000000000000000000000020000000000000000000800020000000000000000000010000000000000000000000000000000000000000000000000000000000000010000000000000000000000000000000000000000004000000000000000000000000000000000000002000000800000000000000000000000000000080000000000000020000000000000000000000000000000000000000000000000000000000000000000",
      "type": "0x2",
      "transactionHash": "0x0c1a9c2df12329ea88f5ddcb5f5dabce2c371cbdcdc010ecf6d7732a9cd36b77",
      "transactionIndex": "0x83",
      "blockHash": "0x7284edffd5ff6389620d442c9d67133685dd4fc95c47ab87b6048ee939afd79e",
      "blockNumber": "0x731d7c",
      "gasUsed": "0xfd3f",
      "effectiveGasPrice": "0x6412d840",
      "from": "0xc77f7fed3b5cc8249adc428c5f44c9063b9734b4",
      "to": "0x8aafd3ede9adb0ff97c7aebce82a919afb1c8764",
      "contractAddress": null
    }
  ],
  "libraries": [],
  "pending": [],
  "returns": {},
  "timestamp": 1737514680,
  "chain": 11155111,
  "commit": "1d2fb70"
}