{
  "transactions": [
    {
      "hash": "0xcf442c87c1b44c22143997fd4584493f88e985d3ce57be74490bc4bcc5989486",
      "transactionType": "CALL",
      "contractName": null,
      "contractAddress": "0x5eb9cc76c3506942c1c0ead70e877dd5e4f00cb0",
      "function": "buy(address)",
      "arguments": [
        "0xC77f7fed3b5Cc8249aDc428c5F44C9063B9734b4"
      ],
      "transaction": {
        "from": "0xc77f7fed3b5cc8249adc428c5f44c9063b9734b4",
        "to": "0x5eb9cc76c3506942c1c0ead70e877dd5e4f00cb0",
        "gas": "0x156c8",
        "value": "0xde0b6b3a7640000",
        "input": "0xf088d547000000000000000000000000c77f7fed3b5cc8249adc428c5f44c9063b9734b4",
        "nonce": "0x1ea",
        "chainId": "0xaa36a7"
      },
      "additionalContracts": [],
      "isFixedGasLimit": false
    }
  ],
  "receipts": [
    {
      "status": "0x1",
      "cumulativeGasUsed": "0x1105f78",
      "logs": [
        {
          "address": "0x5eb9cc76c3506942c1c0ead70e877dd5e4f00cb0",
          "topics": [
            "0xddf252ad1be2c89b69c2b068fc378daa952ba7f163c4a11628f55a4df523b3ef",
            "0x0000000000000000000000000000000000000000000000000000000000000000",
            "0x000000000000000000000000c77f7fed3b5cc8249adc428c5f44c9063b9734b4"
          ],
          "data": "0x00000000000000000000000000000000000000000000003584c5fb15f1ed405d",
          "blockHash": "0x80d1e825ad947debd2308fd928f74d263d7ceda25a5833c61700a4346a7d85cb",
          "blockNumber": "0x724b00",
          "transactionHash": "0xcf442c87c1b44c22143997fd4584493f88e985d3ce57be74490bc4bcc5989486",
          "transactionIndex": "0x76",
          "logIndex": "0xc7",
          "removed": false
        },
        {
          "address": "0x5eb9cc76c3506942c1c0ead70e877dd5e4f00cb0",
          "topics": [
            "0xddf252ad1be2c89b69c2b068fc378daa952ba7f163c4a11628f55a4df523b3ef",
            "0x0000000000000000000000000000000000000000000000000000000000000000",
            "0x000000000000000000000000c77f7fed3b5cc8249adc428c5f44c9063b9734b4"
          ],
          "data": "0x000000000000000000000000000000000000000000000000298f1e2b41e49002",
          "blockHash": "0x80d1e825ad947debd2308fd928f74d263d7ceda25a5833c61700a4346a7d85cb",
          "blockNumber": "0x724b00",
          "transactionHash": "0xcf442c87c1b44c22143997fd4584493f88e985d3ce57be74490bc4bcc5989486",
          "transactionIndex": "0x76",
          "logIndex": "0xc8",
          "removed": false
        },
        {
          "address": "0x5eb9cc76c3506942c1c0ead70e877dd5e4f00cb0",
          "topics": [
            "0x4afcb4a87cdbd9974efdb92ee48bc8d7cd0ae4bf217004db3d080cbaee652ca7"
          ],
          "data": "0x00000000000000000000000000000000000000000000000000000000678675a80000000000000000000000000000000000000000000000000003900876524c830000000000000000000000000000000000000000000000000de0b6b3a7640000",
          "blockHash": "0x80d1e825ad947debd2308fd928f74d263d7ceda25a5833c61700a4346a7d85cb",
          "blockNumber": "0x724b00",
          "transactionHash": "0xcf442c87c1b44c22143997fd4584493f88e985d3ce57be74490bc4bcc5989486",
          "transactionIndex": "0x76",
          "logIndex": "0xc9",
          "removed": false
        }
      ],
      "logsBloom": "0x00000000000000000000000000000000000000000000000000000000000000000000000000000000000000000000000000000000000000004000000000000000000000000000000000000008000000000000000000000000000000000000000000000000020000000000000004000800020000000000000000000010000000000000000000000000000000000000000000000000000000000000010000000000000000000000000000000000000000004000000000000000000000000000020000000002000000800000008000000000000000000000080000000000000020000000000000000000000000000000000000000000000000000000000000000000",
      "type": "0x2",
      "transactionHash": "0xcf442c87c1b44c22143997fd4584493f88e985d3ce57be74490bc4bcc5989486",
      "transactionIndex": "0x76",
      "blockHash": "0x80d1e825ad947debd2308fd928f74d263d7ceda25a5833c61700a4346a7d85cb",
      "blockNumber": "0x724b00",
      "gasUsed": "0xf82c",
      "effectiveGasPrice": "0x453bdef39",
      "from": "0xc77f7fed3b5cc8249adc428c5f44c9063b9734b4",
      "to": "0x5eb9cc76c3506942c1c0ead70e877dd5e4f00cb0",
      "contractAddress": null
    }
  ],
  "libraries": [],
  "pending": [],
  "returns": {},
  "timestamp": 1736865193,
  "chain": 11155111,
  "commit": "51a374b"
}