{
  "transactions": [
    {
      "hash": "0x128cb28bebe0a450d041878f92d66fabde070e4379b26a9c300baa23b753991d",
      "transactionType": "CALL",
      "contractName": null,
      "contractAddress": "0x8aafd3ede9adb0ff97c7aebce82a919afb1c8764",
      "function": "sell(uint256)",
      "arguments": [
        "1054723025797"
      ],
      "transaction": {
        "from": "0xc77f7fed3b5cc8249adc428c5f44c9063b9734b4",
        "to": "0x8aafd3ede9adb0ff97c7aebce82a919afb1c8764",
        "gas": "0x1722a",
        "value": "0x0",
        "input": "0xe4849b32000000000000000000000000000000000000000000000000000000f592642b85",
        "nonce": "0x13e3",
        "chainId": "0xaa36a7"
      },
      "additionalContracts": [],
      "isFixedGasLimit": false
    }
  ],
  "receipts": [
    {
      "status": "0x1",
      "cumulativeGasUsed": "0x114ffb4",
      "logs": [
        {
          "address": "0x8aafd3ede9adb0ff97c7aebce82a919afb1c8764",
          "topics": [
            "0xddf252ad1be2c89b69c2b068fc378daa952ba7f163c4a11628f55a4df523b3ef",
            "0x000000000000000000000000c77f7fed3b5cc8249adc428c5f44c9063b9734b4",
            "0x0000000000000000000000000000000000000000000000000000000000000000"
          ],
          "data": "0x000000000000000000000000000000000000000000000000000000f39b75ccf7",
          "blockHash": "0x0e2447fd76f8be3b2a1ae48800e22aadd2c05b91a19a8ee80f9055fdbed287e0",
          "blockNumber": "0x731b12",
          "transactionHash": "0x128cb28bebe0a450d041878f92d66fabde070e4379b26a9c300baa23b753991d",
          "transactionIndex": "0x82",
          "logIndex": "0xa0",
          "removed": false
        },
        {
          "address": "0x8aafd3ede9adb0ff97c7aebce82a919afb1c8764",
          "topics": [
            "0xddf252ad1be2c89b69c2b068fc378daa952ba7f163c4a11628f55a4df523b3ef",
            "0x000000000000000000000000c77f7fed3b5cc8249adc428c5f44c9063b9734b4",
            "0x000000000000000000000000c77f7fed3b5cc8249adc428c5f44c9063b9734b4"
          ],
          "data": "0x00000000000000000000000000000000000000000000000000000001f6ee5e8e",
          "blockHash": "0x0e2447fd76f8be3b2a1ae48800e22aadd2c05b91a19a8ee80f9055fdbed287e0",
          "blockNumber": "0x731b12",
          "transactionHash": "0x128cb28bebe0a450d041878f92d66fabde070e4379b26a9c300baa23b753991d",
          "transactionIndex": "0x82",
          "logIndex": "0xa1",
          "removed": false
        },
        {
          "address": "0x8aafd3ede9adb0ff97c7aebce82a919afb1c8764",
          "topics": [
            "0x4afcb4a87cdbd9974efdb92ee48bc8d7cd0ae4bf217004db3d080cbaee652ca7"
          ],
          "data": "0x00000000000000000000000000000000000000000000000000000000679041a8000000000000000000000000000000000000000000000000000dcd854cbeaf6e00000000000000000000000000000000000000000000000000000000f43ec3f7",
          "blockHash": "0x0e2447fd76f8be3b2a1ae48800e22aadd2c05b91a19a8ee80f9055fdbed287e0",
          "blockNumber": "0x731b12",
          "transactionHash": "0x128cb28bebe0a450d041878f92d66fabde070e4379b26a9c300baa23b753991d",
          "transactionIndex": "0x82",
          "logIndex": "0xa2",
          "removed": false
        }
      ],
      "logsBloom": "0x00000000000000000000000000000000000000000600000000000000000000000000000000000000000000000000000000000000000000004000000000000000000000000000004000000008000000000000000000000000000000000000000000000000020000000000000000000800020000000000000000000010000000000000000000000000000000000000000000000000000000000000010000000000000000000000000000000000000000004000000000000000000000000000000000000002000000800000000000000000000000000000080000000000000020000000000000000000000000000000000000000000000000000000000000000000",
      "type": "0x2",
      "transactionHash": "0x128cb28bebe0a450d041878f92d66fabde070e4379b26a9c300baa23b753991d",
      "transactionIndex": "0x82",
      "blockHash": "0x0e2447fd76f8be3b2a1ae48800e22aadd2c05b91a19a8ee80f9055fdbed287e0",
      "blockNumber": "0x731b12",
      "gasUsed": "0xfd1b",
      "effectiveGasPrice": "0x8f118848",
      "from": "0xc77f7fed3b5cc8249adc428c5f44c9063b9734b4",
      "to": "0x8aafd3ede9adb0ff97c7aebce82a919afb1c8764",
      "contractAddress": null
    }
  ],
  "libraries": [],
  "pending": [],
  "returns": {},
  "timestamp": 1737507241,
  "chain": 11155111,
  "commit": "1d2fb70"
}