{
  "transactions": [
    {
      "hash": "0x2430075b1f62822cd1542418d6f4b32a0d0c49619c971eaceff0b17e70081ac2",
      "transactionType": "CALL",
      "contractName": null,
      "contractAddress": "0xbf4a322f1496e5c3d34a9bcdb4c60567b38c7de2",
      "function": "sell(uint256)",
      "arguments": [
        "978725417582263265676"
      ],
      "transaction": {
        "from": "0xc77f7fed3b5cc8249adc428c5f44c9063b9734b4",
        "to": "0xbf4a322f1496e5c3d34a9bcdb4c60567b38c7de2",
        "gas": "0x16fea",
        "value": "0x0",
        "input": "0xe4849b320000000000000000000000000000000000000000000000350e8b2dc814a7e98c",
        "nonce": "0xc77",
        "chainId": "0xaa36a7"
      },
      "additionalContracts": [],
      "isFixedGasLimit": false
    }
  ],
  "receipts": [
    {
      "status": "0x1",
      "cumulativeGasUsed": "0x165a452",
      "logs": [
        {
          "address": "0xbf4a322f1496e5c3d34a9bcdb4c60567b38c7de2",
          "topics": [
            "0xddf252ad1be2c89b69c2b068fc378daa952ba7f163c4a11628f55a4df523b3ef",
            "0x000000000000000000000000c77f7fed3b5cc8249adc428c5f44c9063b9734b4",
            "0x0000000000000000000000000000000000000000000000000000000000000000"
          ],
          "data": "0x0000000000000000000000000000000000000000000000350e8b2dc814a7e98c",
          "blockHash": "0xd6b146682587a76305f06c85427437e28d1e0607c4038b8d78b98a148639af12",
          "blockNumber": "0x725cb6",
          "transactionHash": "0x2430075b1f62822cd1542418d6f4b32a0d0c49619c971eaceff0b17e70081ac2",
          "transactionIndex": "0x5d",
          "logIndex": "0xde",
          "removed": false
        },
        {
          "address": "0xbf4a322f1496e5c3d34a9bcdb4c60567b38c7de2",
          "topics": [
            "0x4afcb4a87cdbd9974efdb92ee48bc8d7cd0ae4bf217004db3d080cbaee652ca7"
          ],
          "data": "0x0000000000000000000000000000000000000000000000000000000067874afc00000000000000000000000000000000000000000000000000039ac9a086c18f0000000000000000000000000000000000000000000000000dc7e3df1a55af24",
          "blockHash": "0xd6b146682587a76305f06c85427437e28d1e0607c4038b8d78b98a148639af12",
          "blockNumber": "0x725cb6",
          "transactionHash": "0x2430075b1f62822cd1542418d6f4b32a0d0c49619c971eaceff0b17e70081ac2",
          "transactionIndex": "0x5d",
          "logIndex": "0xdf",
          "removed": false
        }
      ],
      "logsBloom": "0x00000000000000000000000000000000000000000000000000000000000000000000000000000000000000000000000000000000000000004000000000000000000000000000000000000008000000000000001000000000000000000000000000000000020000000000000000000800020000000000000000000010000000000000000000000000000000000000000000000000000008000000010000000000000000000000000000000000000000004000000000000000000000000000000000000002000000800000000000001000000000000000080000000000000020000000000000000000000000000000000000000000000000000000000000000000",
      "type": "0x2",
      "transactionHash": "0x2430075b1f62822cd1542418d6f4b32a0d0c49619c971eaceff0b17e70081ac2",
      "transactionIndex": "0x5d",
      "blockHash": "0xd6b146682587a76305f06c85427437e28d1e0607c4038b8d78b98a148639af12",
      "blockNumber": "0x725cb6",
      "gasUsed": "0xfb91",
      "effectiveGasPrice": "0x245708f5b",
      "from": "0xc77f7fed3b5cc8249adc428c5f44c9063b9734b4",
      "to": "0xbf4a322f1496e5c3d34a9bcdb4c60567b38c7de2",
      "contractAddress": null
    }
  ],
  "libraries": [],
  "pending": [],
  "returns": {},
  "timestamp": 1736919805,
  "chain": 11155111,
  "commit": "51a374b"
}