{
  "transactions": [
    {
      "hash": "0xb86d4a8bc15bf25e2d7fd2a099c7bfdca67553547ce81826a7d1d678efd738b6",
      "transactionType": "CALL",
      "contractName": null,
      "contractAddress": "0xbf4a322f1496e5c3d34a9bcdb4c60567b38c7de2",
      "function": "sell(uint256)",
      "arguments": [
        "975521936146436651342"
      ],
      "transaction": {
        "from": "0xc77f7fed3b5cc8249adc428c5f44c9063b9734b4",
        "to": "0xbf4a322f1496e5c3d34a9bcdb4c60567b38c7de2",
        "gas": "0x16fea",
        "value": "0x0",
        "input": "0xe4849b32000000000000000000000000000000000000000000000034e216206371a6f94e",
        "nonce": "0xd67",
        "chainId": "0xaa36a7"
      },
      "additionalContracts": [],
      "isFixedGasLimit": false
    }
  ],
  "receipts": [],
  "libraries": [],
  "pending": [
    "0xb86d4a8bc15bf25e2d7fd2a099c7bfdca67553547ce81826a7d1d678efd738b6"
  ],
  "returns": {},
  "timestamp": 1736948538,
  "chain": 11155111,
  "commit": "51a374b"
}