{
  "transactions": [
    {
      "hash": "0xb4e362a99d6745b84c26fefad7bf4a98c160292072654e99580958515a9095df",
      "transactionType": "CALL",
      "contractName": null,
      "contractAddress": "0xbf4a322f1496e5c3d34a9bcdb4c60567b38c7de2",
      "function": "buy(address)",
      "arguments": [
        "0xC77f7fed3b5Cc8249aDc428c5F44C9063B9734b4"
      ],
      "transaction": {
        "from": "0xc77f7fed3b5cc8249adc428c5f44c9063b9734b4",
        "to": "0xbf4a322f1496e5c3d34a9bcdb4c60567b38c7de2",
        "gas": "0x1b309",
        "value": "0xde0b6b3a7640000",
        "input": "0xf088d547000000000000000000000000c77f7fed3b5cc8249adc428c5f44c9063b9734b4",
        "nonce": "0xb2c",
        "chainId": "0xaa36a7"
      },
      "additionalContracts": [],
      "isFixedGasLimit": false
    }
  ],
  "receipts": [
    {
      "status": "0x1",
      "cumulativeGasUsed": "0xb22721",
      "logs": [
        {
          "address": "0xbf4a322f1496e5c3d34a9bcdb4c60567b38c7de2",
          "topics": [
            "0xddf252ad1be2c89b69c2b068fc378daa952ba7f163c4a11628f55a4df523b3ef",
            "0x0000000000000000000000000000000000000000000000000000000000000000",
            "0x000000000000000000000000c77f7fed3b5cc8249adc428c5f44c9063b9734b4"
          ],
          "data": "0x00000000000000000000000000000000000000000000003522e397166c611395",
          "blockHash": "0xf455aaef339915bf5a56438d6b5edc9e210a88c88b0f5a9832c3a4b29f1031cf",
          "blockNumber": "0x725b29",
          "transactionHash": "0xb4e362a99d6745b84c26fefad7bf4a98c160292072654e99580958515a9095df",
          "transactionIndex": "0x5d",
          "logIndex": "0x67",
          "removed": false
        },
        {
          "address": "0xbf4a322f1496e5c3d34a9bcdb4c60567b38c7de2",
          "topics": [
            "0xddf252ad1be2c89b69c2b068fc378daa952ba7f163c4a11628f55a4df523b3ef",
            "0x0000000000000000000000000000000000000000000000000000000000000000",
            "0x000000000000000000000000c77f7fed3b5cc8249adc428c5f44c9063b9734b4"
          ],
          "data": "0x00000000000000000000000000000000000000000000000029431b7952e5ca96",
          "blockHash": "0xf455aaef339915bf5a56438d6b5edc9e210a88c88b0f5a9832c3a4b29f1031cf",
          "blockNumber": "0x725b29",
          "transactionHash": "0xb4e362a99d6745b84c26fefad7bf4a98c160292072654e99580958515a9095df",
          "transactionIndex": "0x5d",
          "logIndex": "0x68",
          "removed": false
        },
        {
          "address": "0xbf4a322f1496e5c3d34a9bcdb4c60567b38c7de2",
          "topics": [
            "0x4afcb4a87cdbd9974efdb92ee48bc8d7cd0ae4bf217004db3d080cbaee652ca7"
          ],
          "data": "0x00000000000000000000000000000000000000000000000000000000678738480000000000000000000000000000000000000000000000000003969ada73ec950000000000000000000000000000000000000000000000000de0b6b3a7640000",
          "blockHash": "0xf455aaef339915bf5a56438d6b5edc9e210a88c88b0f5a9832c3a4b29f1031cf",
          "blockNumber": "0x725b29",
          "transactionHash": "0xb4e362a99d6745b84c26fefad7bf4a98c160292072654e99580958515a9095df",
          "transactionIndex": "0x5d",
          "logIndex": "0x69",
          "removed": false
        }
      ],
      "logsBloom": "0x00000000000000000000000000000000000000000000000000000000000000000000000000000000000000000000000000000000000000004000000000000000000000000000000000000008000000000000001000000000000000000000000000000000020000000000000000000800020000000000000000000010000000000000000000000000000000000000000000000000000008000000010000000000000000000000000000000000000000004000000000000000000000000000000000000002000000800000000000001000000000000000080000000000000020000000000000000000000000000000000000000000000000000000000000000000",
      "type": "0x2",
      "transactionHash": "0xb4e362a99d6745b84c26fefad7bf4a98c160292072654e99580958515a9095df",
      "transactionIndex": "0x5d",
      "blockHash": "0xf455aaef339915bf5a56438d6b5edc9e210a88c88b0f5a9832c3a4b29f1031cf",
      "blockNumber": "0x725b29",
      "gasUsed": "0x13af6",
      "effectiveGasPrice": "0x60750824",
      "from": "0xc77f7fed3b5cc8249adc428c5f44c9063b9734b4",
      "to": "0xbf4a322f1496e5c3d34a9bcdb4c60567b38c7de2",
      "contractAddress": null
    }
  ],
  "libraries": [],
  "pending": [],
  "returns": {},
  "timestamp": 1736915018,
  "chain": 11155111,
  "commit": "51a374b"
}