{
  "transactions": [
    {
      "hash": "0x37cc9a067c3a897ab9bf4c702a5d10fb77f71635329c65c0afcb86f4d1e30215",
      "transactionType": "CALL",
      "contractName": null,
      "contractAddress": "0x8aafd3ede9adb0ff97c7aebce82a919afb1c8764",
      "function": "sell(uint256)",
      "arguments": [
        "79783376723580"
      ],
      "transaction": {
        "from": "0xc77f7fed3b5cc8249adc428c5f44c9063b9734b4",
        "to": "0x8aafd3ede9adb0ff97c7aebce82a919afb1c8764",
        "gas": "0x15daa",
        "value": "0x0",
        "input": "0xe4849b320000000000000000000000000000000000000000000000000000489003d41e7c",
        "nonce": "0x16e8",
        "chainId": "0xaa36a7"
      },
      "additionalContracts": [],
      "isFixedGasLimit": false
    }
  ],
  "receipts": [
    {
      "status": "0x1",
      "cumulativeGasUsed": "0xd13d14",
      "logs": [
        {
          "address": "0x8aafd3ede9adb0ff97c7aebce82a919afb1c8764",
          "topics": [
            "0xddf252ad1be2c89b69c2b068fc378daa952ba7f163c4a11628f55a4df523b3ef",
            "0x000000000000000000000000c77f7fed3b5cc8249adc428c5f44c9063b9734b4",
            "0x0000000000000000000000000000000000000000000000000000000000000000"
          ],
          "data": "0x000000000000000000000000000000000000000000000000000047fb682663e0",
          "blockHash": "0x1791effc3d57b9d34ffa9a05a8d196ac4df439fba9c5cd29964c9c5ac48f29a1",
          "blockNumber": "0x731ea7",
          "transactionHash": "0x37cc9a067c3a897ab9bf4c702a5d10fb77f71635329c65c0afcb86f4d1e30215",
          "transactionIndex": "0x64",
          "logIndex": "0xbf",
          "removed": false
        },
        {
          "address": "0x8aafd3ede9adb0ff97c7aebce82a919afb1c8764",
          "topics": [
            "0xddf252ad1be2c89b69c2b068fc378daa952ba7f163c4a11628f55a4df523b3ef",
            "0x000000000000000000000000c77f7fed3b5cc8249adc428c5f44c9063b9734b4",
            "0x000000000000000000000000c77f7fed3b5cc8249adc428c5f44c9063b9734b4"
          ],
          "data": "0x000000000000000000000000000000000000000000000000000000949badba9c",
          "blockHash": "0x1791effc3d57b9d34ffa9a05a8d196ac4df439fba9c5cd29964c9c5ac48f29a1",
          "blockNumber": "0x731ea7",
          "transactionHash": "0x37cc9a067c3a897ab9bf4c702a5d10fb77f71635329c65c0afcb86f4d1e30215",
          "transactionIndex": "0x64",
          "logIndex": "0xc0",
          "removed": false
        },
        {
          "address": "0x8aafd3ede9adb0ff97c7aebce82a919afb1c8764",
          "topics": [
            "0x4afcb4a87cdbd9974efdb92ee48bc8d7cd0ae4bf217004db3d080cbaee652ca7"
          ],
          "data": "0x0000000000000000000000000000000000000000000000000000000067906cbc0000000000000000000000000000000000000000000000000016bea510dc5d8600000000000000000000000000000000000000000000000000000076ecc41618",
          "blockHash": "0x1791effc3d57b9d34ffa9a05a8d196ac4df439fba9c5cd29964c9c5ac48f29a1",
          "blockNumber": "0x731ea7",
          "transactionHash": "0x37cc9a067c3a897ab9bf4c702a5d10fb77f71635329c65c0afcb86f4d1e30215",
          "transactionIndex": "0x64",
          "logIndex": "0xc1",
          "removed": false
        }
      ],
      "logsBloom": "0x00000000000000000000000000000000000000000600000000000000000000000000000000000000000000000000000000000000000000004000000000000000000000000000004000000008000000000000000000000000000000000000000000000000020000000000000000000800020000000000000000000010000000000000000000000000000000000000000000000000000000000000010000000000000000000000000000000000000000004000000000000000000000000000000000000002000000800000000000000000000000000000080000000000000020000000000000000000000000000000000000000000000000000000000000000000",
      "type": "0x2",
      "transactionHash": "0x37cc9a067c3a897ab9bf4c702a5d10fb77f71635329c65c0afcb86f4d1e30215",
      "transactionIndex": "0x64",
      "blockHash": "0x1791effc3d57b9d34ffa9a05a8d196ac4df439fba9c5cd29964c9c5ac48f29a1",
      "blockNumber": "0x731ea7",
      "gasUsed": "0xfd27",
      "effectiveGasPrice": "0x46dbe096",
      "from": "0xc77f7fed3b5cc8249adc428c5f44c9063b9734b4",
      "to": "0x8aafd3ede9adb0ff97c7aebce82a919afb1c8764",
      "contractAddress": null
    }
  ],
  "libraries": [],
  "pending": [],
  "returns": {},
  "timestamp": 1737518270,
  "chain": 11155111,
  "commit": "1d2fb70"
}