{
  "transactions": [
    {
      "hash": "0xbd8349610b71f2df91a921a29b5e61dd2bb8fc8794fb14a64237c002a046cb69",
      "transactionType": "CALL",
      "contractName": null,
      "contractAddress": "0xbf4a322f1496e5c3d34a9bcdb4c60567b38c7de2",
      "function": "buy(address)",
      "arguments": [
        "0xC77f7fed3b5Cc8249aDc428c5F44C9063B9734b4"
      ],
      "transaction": {
        "from": "0xc77f7fed3b5cc8249adc428c5f44c9063b9734b4",
        "to": "0xbf4a322f1496e5c3d34a9bcdb4c60567b38c7de2",
        "gas": "0x1b309",
        "value": "0xde0b6b3a7640000",
        "input": "0xf088d547000000000000000000000000c77f7fed3b5cc8249adc428c5f44c9063b9734b4",
        "nonce": "0xd7c",
        "chainId": "0xaa36a7"
      },
      "additionalContracts": [],
      "isFixedGasLimit": false
    }
  ],
  "receipts": [
    {
      "status": "0x1",
      "cumulativeGasUsed": "0x82be46",
      "logs": [
        {
          "address": "0xbf4a322f1496e5c3d34a9bcdb4c60567b38c7de2",
          "topics": [
            "0xddf252ad1be2c89b69c2b068fc378daa952ba7f163c4a11628f55a4df523b3ef",
            "0x0000000000000000000000000000000000000000000000000000000000000000",
            "0x000000000000000000000000c77f7fed3b5cc8249adc428c5f44c9063b9734b4"
          ],
          "data": "0x000000000000000000000000000000000000000000000034b518bd429afa0340",
          "blockHash": "0x0fa5d2a804126742a7dd4068416fbc2909bd6ba81f00a26db75bb1973efceb2f",
          "blockNumber": "0x72664b",
          "transactionHash": "0xbd8349610b71f2df91a921a29b5e61dd2bb8fc8794fb14a64237c002a046cb69",
          "transactionIndex": "0x4b",
          "logIndex": "0x71",
          "removed": false
        },
        {
          "address": "0xbf4a322f1496e5c3d34a9bcdb4c60567b38c7de2",
          "topics": [
            "0xddf252ad1be2c89b69c2b068fc378daa952ba7f163c4a11628f55a4df523b3ef",
            "0x0000000000000000000000000000000000000000000000000000000000000000",
            "0x000000000000000000000000c77f7fed3b5cc8249adc428c5f44c9063b9734b4"
          ],
          "data": "0x00000000000000000000000000000000000000000000000028edd98ba4eea848",
          "blockHash": "0x0fa5d2a804126742a7dd4068416fbc2909bd6ba81f00a26db75bb1973efceb2f",
          "blockNumber": "0x72664b",
          "transactionHash": "0xbd8349610b71f2df91a921a29b5e61dd2bb8fc8794fb14a64237c002a046cb69",
          "transactionIndex": "0x4b",
          "logIndex": "0x72",
          "removed": false
        },
        {
          "address": "0xbf4a322f1496e5c3d34a9bcdb4c60567b38c7de2",
          "topics": [
            "0x4afcb4a87cdbd9974efdb92ee48bc8d7cd0ae4bf217004db3d080cbaee652ca7"
          ],
          "data": "0x000000000000000000000000000000000000000000000000000000006787be3400000000000000000000000000000000000000000000000000039e145690f08a0000000000000000000000000000000000000000000000000de0b6b3a7640000",
          "blockHash": "0x0fa5d2a804126742a7dd4068416fbc2909bd6ba81f00a26db75bb1973efceb2f",
          "blockNumber": "0x72664b",
          "transactionHash": "0xbd8349610b71f2df91a921a29b5e61dd2bb8fc8794fb14a64237c002a046cb69",
          "transactionIndex": "0x4b",
          "logIndex": "0x73",
          "removed": false
        }
      ],
      "logsBloom": "0x00000000000000000000000000000000000000000000000000000000000000000000000000000000000000000000000000000000000000004000000000000000000000000000000000000008000000000000001000000000000000000000000000000000020000000000000000000800020000000000000000000010000000000000000000000000000000000000000000000000000008000000010000000000000000000000000000000000000000004000000000000000000000000000000000000002000000800000000000001000000000000000080000000000000020000000000000000000000000000000000000000000000000000000000000000000",
      "type": "0x2",
      "transactionHash": "0xbd8349610b71f2df91a921a29b5e61dd2bb8fc8794fb14a64237c002a046cb69",
      "transactionIndex": "0x4b",
      "blockHash": "0x0fa5d2a804126742a7dd4068416fbc2909bd6ba81f00a26db75bb1973efceb2f",
      "blockNumber": "0x72664b",
      "gasUsed": "0x13af6",
      "effectiveGasPrice": "0x8dce929f",
      "from": "0xc77f7fed3b5cc8249adc428c5f44c9063b9734b4",
      "to": "0xbf4a322f1496e5c3d34a9bcdb4c60567b38c7de2",
      "contractAddress": null
    }
  ],
  "libraries": [],
  "pending": [],
  "returns": {},
  "timestamp": 1736949301,
  "chain": 11155111,
  "commit": "51a374b"
}