{
  "transactions": [
    {
      "hash": "0xfe07f4aabc3e2aeccf650a988132164aae96f370625340f1b70099d78cc3080d",
      "transactionType": "CALL",
      "contractName": null,
      "contractAddress": "0x8aafd3ede9adb0ff97c7aebce82a919afb1c8764",
      "function": "sell(uint256)",
      "arguments": [
        "11294"
      ],
      "transaction": {
        "from": "0xc77f7fed3b5cc8249adc428c5f44c9063b9734b4",
        "to": "0x8aafd3ede9adb0ff97c7aebce82a919afb1c8764",
        "gas": "0x14e4c",
        "value": "0x0",
        "input": "0xe4849b320000000000000000000000000000000000000000000000000000000000002c1e",
        "nonce": "0x1265",
        "chainId": "0xaa36a7"
      },
      "additionalContracts": [],
      "isFixedGasLimit": false
    }
  ],
  "receipts": [
    {
      "status": "0x1",
      "cumulativeGasUsed": "0x9c17cd",
      "logs": [
        {
          "address": "0x8aafd3ede9adb0ff97c7aebce82a919afb1c8764",
          "topics": [
            "0xddf252ad1be2c89b69c2b068fc378daa952ba7f163c4a11628f55a4df523b3ef",
            "0x000000000000000000000000c77f7fed3b5cc8249adc428c5f44c9063b9734b4",
            "0x0000000000000000000000000000000000000000000000000000000000000000"
          ],
          "data": "0x0000000000000000000000000000000000000000000000000000000000002bc4",
          "blockHash": "0x6a42991d6232e2ea902fc2af5f44ac3431a01639631345eb2471b8bebcfe0226",
          "blockNumber": "0x73194b",
          "transactionHash": "0xfe07f4aabc3e2aeccf650a988132164aae96f370625340f1b70099d78cc3080d",
          "transactionIndex": "0x80",
          "logIndex": "0x91",
          "removed": false
        },
        {
          "address": "0x8aafd3ede9adb0ff97c7aebce82a919afb1c8764",
          "topics": [
            "0xddf252ad1be2c89b69c2b068fc378daa952ba7f163c4a11628f55a4df523b3ef",
            "0x000000000000000000000000c77f7fed3b5cc8249adc428c5f44c9063b9734b4",
            "0x000000000000000000000000c77f7fed3b5cc8249adc428c5f44c9063b9734b4"
          ],
          "data": "0x000000000000000000000000000000000000000000000000000000000000005a",
          "blockHash": "0x6a42991d6232e2ea902fc2af5f44ac3431a01639631345eb2471b8bebcfe0226",
          "blockNumber": "0x73194b",
          "transactionHash": "0xfe07f4aabc3e2aeccf650a988132164aae96f370625340f1b70099d78cc3080d",
          "transactionIndex": "0x80",
          "logIndex": "0x92",
          "removed": false
        },
        {
          "address": "0x8aafd3ede9adb0ff97c7aebce82a919afb1c8764",
          "topics": [
            "0x4afcb4a87cdbd9974efdb92ee48bc8d7cd0ae4bf217004db3d080cbaee652ca7"
          ],
          "data": "0x0000000000000000000000000000000000000000000000000000000067902c5400000000000000000000000000000000000000000000000000053f02a7aa8b4e0000000000000000000000000000000000000000000000000000000000000010",
          "blockHash": "0x6a42991d6232e2ea902fc2af5f44ac3431a01639631345eb2471b8bebcfe0226",
          "blockNumber": "0x73194b",
          "transactionHash": "0xfe07f4aabc3e2aeccf650a988132164aae96f370625340f1b70099d78cc3080d",
          "transactionIndex": "0x80",
          "logIndex": "0x93",
          "removed": false
        }
      ],
      "logsBloom": "0x00000000000000000000000000000000000000000600000000000000000000000000000000000000000000000000000000000000000000004000000000000000000000000000004000000008000000000000000000000000000000000000000000000000020000000000000000000800020000000000000000000010000000000000000000000000000000000000000000000000000000000000010000000000000000000000000000000000000000004000000000000000000000000000000000000002000000800000000000000000000000000000080000000000000020000000000000000000000000000000000000000000000000000000000000000000",
      "type": "0x2",
      "transactionHash": "0xfe07f4aabc3e2aeccf650a988132164aae96f370625340f1b70099d78cc3080d",
      "transactionIndex": "0x80",
      "blockHash": "0x6a42991d6232e2ea902fc2af5f44ac3431a01639631345eb2471b8bebcfe0226",
      "blockNumber": "0x73194b",
      "gasUsed": "0xf207",
      "effectiveGasPrice": "0x3e21c278",
      "from": "0xc77f7fed3b5cc8249adc428c5f44c9063b9734b4",
      "to": "0x8aafd3ede9adb0ff97c7aebce82a919afb1c8764",
      "contractAddress": null
    }
  ],
  "libraries": [],
  "pending": [],
  "returns": {},
  "timestamp": 1737501782,
  "chain": 11155111,
  "commit": "1d2fb70"
}