{
  "transactions": [
    {
      "hash": "0xca5ad31796ba8919d9e4fc0f3aafaf33a4e180eb581ef7b4864cfdccd93d9dca",
      "transactionType": "CALL",
      "contractName": null,
      "contractAddress": "0x270e88f8683660553e8ba4eb2ad7c91a1710d769",
      "function": "sell(uint256)",
      "arguments": [
        "974508285905467324447"
      ],
      "transaction": {
        "from": "0xc77f7fed3b5cc8249adc428c5f44c9063b9734b4",
        "to": "0x270e88f8683660553e8ba4eb2ad7c91a1710d769",
        "gas": "0x16fec",
        "value": "0x0",
        "input": "0xe4849b32000000000000000000000000000000000000000000000034d404eadd662fb81f",
        "nonce": "0x54b",
        "chainId": "0xaa36a7"
      },
      "additionalContracts": [],
      "isFixedGasLimit": false
    }
  ],
  "receipts": [
    {
      "status": "0x1",
      "cumulativeGasUsed": "0x12f1ca3",
      "logs": [
        {
          "address": "0x270e88f8683660553e8ba4eb2ad7c91a1710d769",
          "topics": [
            "0xddf252ad1be2c89b69c2b068fc378daa952ba7f163c4a11628f55a4df523b3ef",
            "0x000000000000000000000000c77f7fed3b5cc8249adc428c5f44c9063b9734b4",
            "0x0000000000000000000000000000000000000000000000000000000000000000"
          ],
          "data": "0x000000000000000000000000000000000000000000000034d404eadd662fb81f",
          "blockHash": "0x1d73b3da54796b1ef4e378a57016140bf8e9f18be8dc3dda7b1e40401d7dba29",
          "blockNumber": "0x7251e9",
          "transactionHash": "0xca5ad31796ba8919d9e4fc0f3aafaf33a4e180eb581ef7b4864cfdccd93d9dca",
          "transactionIndex": "0x6d",
          "logIndex": "0x127",
          "removed": false
        },
        {
          "address": "0x270e88f8683660553e8ba4eb2ad7c91a1710d769",
          "topics": [
            "0x4afcb4a87cdbd9974efdb92ee48bc8d7cd0ae4bf217004db3d080cbaee652ca7"
          ],
          "data": "0x000000000000000000000000000000000000000000000000000000006786c8dc00000000000000000000000000000000000000000000000000039f0c502c68330000000000000000000000000000000000000000000000000dc840ad39ec1c38",
          "blockHash": "0x1d73b3da54796b1ef4e378a57016140bf8e9f18be8dc3dda7b1e40401d7dba29",
          "blockNumber": "0x7251e9",
          "transactionHash": "0xca5ad31796ba8919d9e4fc0f3aafaf33a4e180eb581ef7b4864cfdccd93d9dca",
          "transactionIndex": "0x6d",
          "logIndex": "0x128",
          "removed": false
        }
      ],
      "logsBloom": "0x00000000000000000000000000000000000000000000000000000000000000000000000000000000000000000000000020000000000000004000000000000000000000000000000000000008000000000000000000000000000000000000000000000000020000000000000000000800020000000000000000000010000000000000000000010000000000000000000000000000000000000000010000000000000000000000000000000000000000004000000000000000000000000000000000000002000000800000000000000000000000000000080000008000000020000000000000000000000000000000000000000000000000000000000000000000",
      "type": "0x2",
      "transactionHash": "0xca5ad31796ba8919d9e4fc0f3aafaf33a4e180eb581ef7b4864cfdccd93d9dca",
      "transactionIndex": "0x6d",
      "blockHash": "0x1d73b3da54796b1ef4e378a57016140bf8e9f18be8dc3dda7b1e40401d7dba29",
      "blockNumber": "0x7251e9",
      "gasUsed": "0xfb93",
      "effectiveGasPrice": "0x42a152b4f",
      "from": "0xc77f7fed3b5cc8249adc428c5f44c9063b9734b4",
      "to": "0x270e88f8683660553e8ba4eb2ad7c91a1710d769",
      "contractAddress": null
    }
  ],
  "libraries": [],
  "pending": [],
  "returns": {},
  "timestamp": 1736886494,
  "chain": 11155111,
  "commit": "51a374b"
}