{
  "transactions": [
    {
      "hash": "0xec7b646b8c4ce5012b670ed27df99a533238038afdacb778569551e5309a6b67",
      "transactionType": "CALL",
      "contractName": null,
      "contractAddress": "0xbf4a322f1496e5c3d34a9bcdb4c60567b38c7de2",
      "function": "sell(uint256)",
      "arguments": [
        "981491895508953220572"
      ],
      "transaction": {
        "from": "0xc77f7fed3b5cc8249adc428c5f44c9063b9734b4",
        "to": "0xbf4a322f1496e5c3d34a9bcdb4c60567b38c7de2",
        "gas": "0x16fea",
        "value": "0x0",
        "input": "0xe4849b3200000000000000000000000000000000000000000000003534efaecc67f845dc",
        "nonce": "0xba9",
        "chainId": "0xaa36a7"
      },
      "additionalContracts": [],
      "isFixedGasLimit": false
    }
  ],
  "receipts": [
    {
      "status": "0x1",
      "cumulativeGasUsed": "0x1219f22",
      "logs": [
        {
          "address": "0xbf4a322f1496e5c3d34a9bcdb4c60567b38c7de2",
          "topics": [
            "0xddf252ad1be2c89b69c2b068fc378daa952ba7f163c4a11628f55a4df523b3ef",
            "0x000000000000000000000000c77f7fed3b5cc8249adc428c5f44c9063b9734b4",
            "0x0000000000000000000000000000000000000000000000000000000000000000"
          ],
          "data": "0x00000000000000000000000000000000000000000000003534efaecc67f845dc",
          "blockHash": "0x7775c52c5b62ad3108342f5285d5aad7caea6ce5eed002adf409cdf5082df38b",
          "blockNumber": "0x725bc0",
          "transactionHash": "0xec7b646b8c4ce5012b670ed27df99a533238038afdacb778569551e5309a6b67",
          "transactionIndex": "0x68",
          "logIndex": "0xa5",
          "removed": false
        },
        {
          "address": "0xbf4a322f1496e5c3d34a9bcdb4c60567b38c7de2",
          "topics": [
            "0x4afcb4a87cdbd9974efdb92ee48bc8d7cd0ae4bf217004db3d080cbaee652ca7"
          ],
          "data": "0x0000000000000000000000000000000000000000000000000000000067873f5c0000000000000000000000000000000000000000000000000003982fc94f5dd80000000000000000000000000000000000000000000000000dc7e3e588f6dff7",
          "blockHash": "0x7775c52c5b62ad3108342f5285d5aad7caea6ce5eed002adf409cdf5082df38b",
          "blockNumber": "0x725bc0",
          "transactionHash": "0xec7b646b8c4ce5012b670ed27df99a533238038afdacb778569551e5309a6b67",
          "transactionIndex": "0x68",
          "logIndex": "0xa6",
          "removed": false
        }
      ],
      "logsBloom": "0x00000000000000000000000000000000000000000000000000000000000000000000000000000000000000000000000000000000000000004000000000000000000000000000000000000008000000000000001000000000000000000000000000000000020000000000000000000800020000000000000000000010000000000000000000000000000000000000000000000000000008000000010000000000000000000000000000000000000000004000000000000000000000000000000000000002000000800000000000001000000000000000080000000000000020000000000000000000000000000000000000000000000000000000000000000000",
      "type": "0x2",
      "transactionHash": "0xec7b646b8c4ce5012b670ed27df99a533238038afdacb778569551e5309a6b67",
      "transactionIndex": "0x68",
      "blockHash": "0x7775c52c5b62ad3108342f5285d5aad7caea6ce5eed002adf409cdf5082df38b",
      "blockNumber": "0x725bc0",
      "gasUsed": "0xfb91",
      "effectiveGasPrice": "0x534cd617",
      "from": "0xc77f7fed3b5cc8249adc428c5f44c9063b9734b4",
      "to": "0xbf4a322f1496e5c3d34a9bcdb4c60567b38c7de2",
      "contractAddress": null
    }
  ],
  "libraries": [],
  "pending": [],
  "returns": {},
  "timestamp": 1736916829,
  "chain": 11155111,
  "commit": "51a374b"
}