{
  "transactions": [
    {
      "hash": "0x78881db26a09dcd289ac90c54ca0838120a2b09cd8c9723557b2446e58662977",
      "transactionType": "CALL",
      "contractName": null,
      "contractAddress": "0x270e88f8683660553e8ba4eb2ad7c91a1710d769",
      "function": "buy(address)",
      "arguments": [
        "0xC77f7fed3b5Cc8249aDc428c5F44C9063B9734b4"
      ],
      "transaction": {
        "from": "0xc77f7fed3b5cc8249adc428c5f44c9063b9734b4",
        "to": "0x270e88f8683660553e8ba4eb2ad7c91a1710d769",
        "gas": "0x1b30c",
        "value": "0xde0b6b3a7640000",
        "input": "0xf088d547000000000000000000000000c77f7fed3b5cc8249adc428c5f44c9063b9734b4",
        "nonce": "0x845",
        "chainId": "0xaa36a7"
      },
      "additionalContracts": [],
      "isFixedGasLimit": false
    }
  ],
  "receipts": [
    {
      "status": "0x1",
      "cumulativeGasUsed": "0x9d5996",
      "logs": [
        {
          "address": "0x270e88f8683660553e8ba4eb2ad7c91a1710d769",
          "topics": [
            "0xddf252ad1be2c89b69c2b068fc378daa952ba7f163c4a11628f55a4df523b3ef",
            "0x0000000000000000000000000000000000000000000000000000000000000000",
            "0x000000000000000000000000c77f7fed3b5cc8249adc428c5f44c9063b9734b4"
          ],
          "data": "0x000000000000000000000000000000000000000000000026c0d9b3863be3d8f3",
          "blockHash": "0xfe2a61b018d306900a2ae8db3aeba236fa534fd4fb9de793fda9ba139832d902",
          "blockNumber": "0x725594",
          "transactionHash": "0x78881db26a09dcd289ac90c54ca0838120a2b09cd8c9723557b2446e58662977",
          "transactionIndex": "0x41",
          "logIndex": "0x96",
          "removed": false
        },
        {
          "address": "0x270e88f8683660553e8ba4eb2ad7c91a1710d769",
          "topics": [
            "0xddf252ad1be2c89b69c2b068fc378daa952ba7f163c4a11628f55a4df523b3ef",
            "0x0000000000000000000000000000000000000000000000000000000000000000",
            "0x000000000000000000000000c77f7fed3b5cc8249adc428c5f44c9063b9734b4"
          ],
          "data": "0x0000000000000000000000000000000000000000000000001e17e0f484b8733e",
          "blockHash": "0xfe2a61b018d306900a2ae8db3aeba236fa534fd4fb9de793fda9ba139832d902",
          "blockNumber": "0x725594",
          "transactionHash": "0x78881db26a09dcd289ac90c54ca0838120a2b09cd8c9723557b2446e58662977",
          "transactionIndex": "0x41",
          "logIndex": "0x97",
          "removed": false
        },
        {
          "address": "0x270e88f8683660553e8ba4eb2ad7c91a1710d769",
          "topics": [
            "0x4afcb4a87cdbd9974efdb92ee48bc8d7cd0ae4bf217004db3d080cbaee652ca7"
          ],
          "data": "0x000000000000000000000000000000000000000000000000000000006786f4f80000000000000000000000000000000000000000000000000004eba12ba49e760000000000000000000000000000000000000000000000000de0b6b3a7640000",
          "blockHash": "0xfe2a61b018d306900a2ae8db3aeba236fa534fd4fb9de793fda9ba139832d902",
          "blockNumber": "0x725594",
          "transactionHash": "0x78881db26a09dcd289ac90c54ca0838120a2b09cd8c9723557b2446e58662977",
          "transactionIndex": "0x41",
          "logIndex": "0x98",
          "removed": false
        }
      ],
      "logsBloom": "0x00000000000000000000000000000000000000000000000000000000000000000000000000000000000000000000000020000000000000004000000000000000000000000000000000000008000000000000000000000000000000000000000000000000020000000000000000000800020000000000000000000010000000000000000000010000000000000000000000000000000000000000010000000000000000000000000000000000000000004000000000000000000000000000000000000002000000800000000000000000000000000000080000008000000020000000000000000000000000000000000000000000000000000000000000000000",
      "type": "0x2",
      "transactionHash": "0x78881db26a09dcd289ac90c54ca0838120a2b09cd8c9723557b2446e58662977",
      "transactionIndex": "0x41",
      "blockHash": "0xfe2a61b018d306900a2ae8db3aeba236fa534fd4fb9de793fda9ba139832d902",
      "blockNumber": "0x725594",
      "gasUsed": "0x13af8",
      "effectiveGasPrice": "0x6a48b8ee",
      "from": "0xc77f7fed3b5cc8249adc428c5f44c9063b9734b4",
      "to": "0x270e88f8683660553e8ba4eb2ad7c91a1710d769",
      "contractAddress": null
    }
  ],
  "libraries": [],
  "pending": [],
  "returns": {},
  "timestamp": 1736897785,
  "chain": 11155111,
  "commit": "51a374b"
}