{
  "transactions": [
    {
      "hash": "0x40e3c9229d7903b363dcf0d15c6c4872165444da6517966190421283ba88759e",
      "transactionType": "CALL",
      "contractName": null,
      "contractAddress": "0xbf4a322f1496e5c3d34a9bcdb4c60567b38c7de2",
      "function": "sell(uint256)",
      "arguments": [
        "977815630921709510239"
      ],
      "transaction": {
        "from": "0xc77f7fed3b5cc8249adc428c5f44c9063b9734b4",
        "to": "0xbf4a322f1496e5c3d34a9bcdb4c60567b38c7de2",
        "gas": "0x16fea",
        "value": "0x0",
        "input": "0xe4849b3200000000000000000000000000000000000000000000003501eaf7a250f5de5f",
        "nonce": "0xcbb",
        "chainId": "0xaa36a7"
      },
      "additionalContracts": [],
      "isFixedGasLimit": false
    }
  ],
  "receipts": [
    {
      "status": "0x1",
      "cumulativeGasUsed": "0x10c9b78",
      "logs": [
        {
          "address": "0xbf4a322f1496e5c3d34a9bcdb4c60567b38c7de2",
          "topics": [
            "0xddf252ad1be2c89b69c2b068fc378daa952ba7f163c4a11628f55a4df523b3ef",
            "0x000000000000000000000000c77f7fed3b5cc8249adc428c5f44c9063b9734b4",
            "0x0000000000000000000000000000000000000000000000000000000000000000"
          ],
          "data": "0x00000000000000000000000000000000000000000000003501eaf7a250f5de5f",
          "blockHash": "0xa9816557587199e0a9458611dcbbb801313a2ccabf0f53b529b1cdf56ef26e62",
          "blockNumber": "0x725d09",
          "transactionHash": "0x40e3c9229d7903b363dcf0d15c6c4872165444da6517966190421283ba88759e",
          "transactionIndex": "0x85",
          "logIndex": "0xea",
          "removed": false
        },
        {
          "address": "0xbf4a322f1496e5c3d34a9bcdb4c60567b38c7de2",
          "topics": [
            "0x4afcb4a87cdbd9974efdb92ee48bc8d7cd0ae4bf217004db3d080cbaee652ca7"
          ],
          "data": "0x0000000000000000000000000000000000000000000000000000000067874ee000000000000000000000000000000000000000000000000000039ba56b5970ec0000000000000000000000000000000000000000000000000dc7e3dcfcd1d1bf",
          "blockHash": "0xa9816557587199e0a9458611dcbbb801313a2ccabf0f53b529b1cdf56ef26e62",
          "blockNumber": "0x725d09",
          "transactionHash": "0x40e3c9229d7903b363dcf0d15c6c4872165444da6517966190421283ba88759e",
          "transactionIndex": "0x85",
          "logIndex": "0xeb",
          "removed": false
        }
      ],
      "logsBloom": "0x00000000000000000000000000000000000000000000000000000000000000000000000000000000000000000000000000000000000000004000000000000000000000000000000000000008000000000000001000000000000000000000000000000000020000000000000000000800020000000000000000000010000000000000000000000000000000000000000000000000000008000000010000000000000000000000000000000000000000004000000000000000000000000000000000000002000000800000000000001000000000000000080000000000000020000000000000000000000000000000000000000000000000000000000000000000",
      "type": "0x2",
      "transactionHash": "0x40e3c9229d7903b363dcf0d15c6c4872165444da6517966190421283ba88759e",
      "transactionIndex": "0x85",
      "blockHash": "0xa9816557587199e0a9458611dcbbb801313a2ccabf0f53b529b1cdf56ef26e62",
      "blockNumber": "0x725d09",
      "gasUsed": "0xfb91",
      "effectiveGasPrice": "0x1e79bc7dc",
      "from": "0xc77f7fed3b5cc8249adc428c5f44c9063b9734b4",
      "to": "0xbf4a322f1496e5c3d34a9bcdb4c60567b38c7de2",
      "contractAddress": null
    }
  ],
  "libraries": [],
  "pending": [],
  "returns": {},
  "timestamp": 1736920801,
  "chain": 11155111,
  "commit": "51a374b"
}