{
  "transactions": [
    {
      "hash": "0xdbc3ee89e4a44221202216c50b410bd378b363bc228b5f2374a8b236d11585be",
      "transactionType": "CALL",
      "contractName": null,
      "contractAddress": "0xbf4a322f1496e5c3d34a9bcdb4c60567b38c7de2",
      "function": "sell(uint256)",
      "arguments": [
        "976880850463155383740"
      ],
      "transaction": {
        "from": "0xc77f7fed3b5cc8249adc428c5f44c9063b9734b4",
        "to": "0xbf4a322f1496e5c3d34a9bcdb4c60567b38c7de2",
        "gas": "0x16fea",
        "value": "0x0",
        "input": "0xe4849b32000000000000000000000000000000000000000000000034f4f1f5c279dd6dbc",
        "nonce": "0xd01",
        "chainId": "0xaa36a7"
      },
      "additionalContracts": [],
      "isFixedGasLimit": false
    }
  ],
  "receipts": [
    {
      "status": "0x1",
      "cumulativeGasUsed": "0xb8f04a",
      "logs": [
        {
          "address": "0xbf4a322f1496e5c3d34a9bcdb4c60567b38c7de2",
          "topics": [
            "0xddf252ad1be2c89b69c2b068fc378daa952ba7f163c4a11628f55a4df523b3ef",
            "0x000000000000000000000000c77f7fed3b5cc8249adc428c5f44c9063b9734b4",
            "0x0000000000000000000000000000000000000000000000000000000000000000"
          ],
          "data": "0x000000000000000000000000000000000000000000000034f4f1f5c279dd6dbc",
          "blockHash": "0x75ea69c91e12a5e717e9d5625f20aada4a2ec37d94bd05c208bdf5648d9fa794",
          "blockNumber": "0x725d57",
          "transactionHash": "0xdbc3ee89e4a44221202216c50b410bd378b363bc228b5f2374a8b236d11585be",
          "transactionIndex": "0x71",
          "logIndex": "0x95",
          "removed": false
        },
        {
          "address": "0xbf4a322f1496e5c3d34a9bcdb4c60567b38c7de2",
          "topics": [
            "0x4afcb4a87cdbd9974efdb92ee48bc8d7cd0ae4bf217004db3d080cbaee652ca7"
          ],
          "data": "0x000000000000000000000000000000000000000000000000000000006787528800000000000000000000000000000000000000000000000000039c87ad1b280a0000000000000000000000000000000000000000000000000dc7e3dad06d2c54",
          "blockHash": "0x75ea69c91e12a5e717e9d5625f20aada4a2ec37d94bd05c208bdf5648d9fa794",
          "blockNumber": "0x725d57",
          "transactionHash": "0xdbc3ee89e4a44221202216c50b410bd378b363bc228b5f2374a8b236d11585be",
          "transactionIndex": "0x71",
          "logIndex": "0x96",
          "removed": false
        }
      ],
      "logsBloom": "0x00000000000000000000000000000000000000000000000000000000000000000000000000000000000000000000000000000000000000004000000000000000000000000000000000000008000000000000001000000000000000000000000000000000020000000000000000000800020000000000000000000010000000000000000000000000000000000000000000000000000008000000010000000000000000000000000000000000000000004000000000000000000000000000000000000002000000800000000000001000000000000000080000000000000020000000000000000000000000000000000000000000000000000000000000000000",
      "type": "0x2",
      "transactionHash": "0xdbc3ee89e4a44221202216c50b410bd378b363bc228b5f2374a8b236d11585be",
      "transactionIndex": "0x71",
      "blockHash": "0x75ea69c91e12a5e717e9d5625f20aada4a2ec37d94bd05c208bdf5648d9fa794",
      "blockNumber": "0x725d57",
      "gasUsed": "0xfb91",
      "effectiveGasPrice": "0x382bbc1e6",
      "from": "0xc77f7fed3b5cc8249adc428c5f44c9063b9734b4",
      "to": "0xbf4a322f1496e5c3d34a9bcdb4c60567b38c7de2",
      "contractAddress": null
    }
  ],
  "libraries": [],
  "pending": [],
  "returns": {},
  "timestamp": 1736921738,
  "chain": 11155111,
  "commit": "51a374b"
}