{
  "transactions": [
    {
      "hash": "0xbd686e1e5753a77dac3c3723ec3c17a25df1afa01f022f4475ffc79fc3b8a137",
      "transactionType": "CALL",
      "contractName": null,
      "contractAddress": "0x5eb9cc76c3506942c1c0ead70e877dd5e4f00cb0",
      "function": "sell(uint256)",
      "arguments": [
        "989082789216747860399"
      ],
      "transaction": {
        "from": "0xc77f7fed3b5cc8249adc428c5f44c9063b9734b4",
        "to": "0x5eb9cc76c3506942c1c0ead70e877dd5e4f00cb0",
        "gas": "0x16fec",
        "value": "0x0",
        "input": "0xe4849b320000000000000000000000000000000000000000000000359e47f4684cd131af",
        "nonce": "0x46d",
        "chainId": "0xaa36a7"
      },
      "additionalContracts": [],
      "isFixedGasLimit": false
    }
  ],
  "receipts": [
    {
      "status": "0x1",
      "cumulativeGasUsed": "0x1b0a6b5",
      "logs": [
        {
          "address": "0x5eb9cc76c3506942c1c0ead70e877dd5e4f00cb0",
          "topics": [
            "0xddf252ad1be2c89b69c2b068fc378daa952ba7f163c4a11628f55a4df523b3ef",
            "0x000000000000000000000000c77f7fed3b5cc8249adc428c5f44c9063b9734b4",
            "0x0000000000000000000000000000000000000000000000000000000000000000"
          ],
          "data": "0x0000000000000000000000000000000000000000000000359e47f4684cd131af",
          "blockHash": "0x17fc20c77f3046ba6d4c38a25e06cf642a6a4aa0a598b2d414c37da4d804f49e",
          "blockNumber": "0x725097",
          "transactionHash": "0xbd686e1e5753a77dac3c3723ec3c17a25df1afa01f022f4475ffc79fc3b8a137",
          "transactionIndex": "0x84",
          "logIndex": "0xf0",
          "removed": false
        },
        {
          "address": "0x5eb9cc76c3506942c1c0ead70e877dd5e4f00cb0",
          "topics": [
            "0x4afcb4a87cdbd9974efdb92ee48bc8d7cd0ae4bf217004db3d080cbaee652ca7"
          ],
          "data": "0x000000000000000000000000000000000000000000000000000000006786b8e0000000000000000000000000000000000000000000000000000391198a1c846b0000000000000000000000000000000000000000000000000dc7db1331c8d2ee",
          "blockHash": "0x17fc20c77f3046ba6d4c38a25e06cf642a6a4aa0a598b2d414c37da4d804f49e",
          "blockNumber": "0x725097",
          "transactionHash": "0xbd686e1e5753a77dac3c3723ec3c17a25df1afa01f022f4475ffc79fc3b8a137",
          "transactionIndex": "0x84",
          "logIndex": "0xf1",
          "removed": false
        }
      ],
      "logsBloom": "0x00000000000000000000000000000000000000000000000000000000000000000000000000000000000000000000000000000000000000004000000000000000000000000000000000000008000000000000000000000000000000000000000000000000020000000000000004000800020000000000000000000010000000000000000000000000000000000000000000000000000000000000010000000000000000000000000000000000000000004000000000000000000000000000020000000002000000800000008000000000000000000000080000000000000020000000000000000000000000000000000000000000000000000000000000000000",
      "type": "0x2",
      "transactionHash": "0xbd686e1e5753a77dac3c3723ec3c17a25df1afa01f022f4475ffc79fc3b8a137",
      "transactionIndex": "0x84",
      "blockHash": "0x17fc20c77f3046ba6d4c38a25e06cf642a6a4aa0a598b2d414c37da4d804f49e",
      "blockNumber": "0x725097",
      "gasUsed": "0xfb93",
      "effectiveGasPrice": "0x1c1ba4b9a",
      "from": "0xc77f7fed3b5cc8249adc428c5f44c9063b9734b4",
      "to": "0x5eb9cc76c3506942c1c0ead70e877dd5e4f00cb0",
      "contractAddress": null
    }
  ],
  "libraries": [],
  "pending": [],
  "returns": {},
  "timestamp": 1736882403,
  "chain": 11155111,
  "commit": "51a374b"
}