{
  "transactions": [
    {
      "hash": "0x8b4dbbdc902f872d16da0c908380b53e0f9e87357353d2f69dfbc23cd0aeb57b",
      "transactionType": "CALL",
      "contractName": null,
      "contractAddress": "0x270e88f8683660553e8ba4eb2ad7c91a1710d769",
      "function": "buy(address)",
      "arguments": [
        "0xC77f7fed3b5Cc8249aDc428c5F44C9063B9734b4"
      ],
      "transaction": {
        "from": "0xc77f7fed3b5cc8249adc428c5f44c9063b9734b4",
        "to": "0x270e88f8683660553e8ba4eb2ad7c91a1710d769",
        "gas": "0x1b30c",
        "value": "0xde0b6b3a7640000",
        "input": "0xf088d547000000000000000000000000c77f7fed3b5cc8249adc428c5f44c9063b9734b4",
        "nonce": "0x7b1",
        "chainId": "0xaa36a7"
      },
      "additionalContracts": [],
      "isFixedGasLimit": false
    }
  ],
  "receipts": [
    {
      "status": "0x1",
      "cumulativeGasUsed": "0x45ba9e",
      "logs": [
        {
          "address": "0x270e88f8683660553e8ba4eb2ad7c91a1710d769",
          "topics": [
            "0xddf252ad1be2c89b69c2b068fc378daa952ba7f163c4a11628f55a4df523b3ef",
            "0x0000000000000000000000000000000000000000000000000000000000000000",
            "0x000000000000000000000000c77f7fed3b5cc8249adc428c5f44c9063b9734b4"
          ],
          "data": "0x0000000000000000000000000000000000000000000000276e9a821a9ab9136b",
          "blockHash": "0x2d1fc65d89c534010457f0072387068eed6e9df86539bd25e751345beead64c6",
          "blockNumber": "0x7254e6",
          "transactionHash": "0x8b4dbbdc902f872d16da0c908380b53e0f9e87357353d2f69dfbc23cd0aeb57b",
          "transactionIndex": "0x3c",
          "logIndex": "0x47",
          "removed": false
        },
        {
          "address": "0x270e88f8683660553e8ba4eb2ad7c91a1710d769",
          "topics": [
            "0xddf252ad1be2c89b69c2b068fc378daa952ba7f163c4a11628f55a4df523b3ef",
            "0x0000000000000000000000000000000000000000000000000000000000000000",
            "0x000000000000000000000000c77f7fed3b5cc8249adc428c5f44c9063b9734b4"
          ],
          "data": "0x0000000000000000000000000000000000000000000000001e9ecdd1a8d46660",
          "blockHash": "0x2d1fc65d89c534010457f0072387068eed6e9df86539bd25e751345beead64c6",
          "blockNumber": "0x7254e6",
          "transactionHash": "0x8b4dbbdc902f872d16da0c908380b53e0f9e87357353d2f69dfbc23cd0aeb57b",
          "transactionIndex": "0x3c",
          "logIndex": "0x48",
          "removed": false
        },
        {
          "address": "0x270e88f8683660553e8ba4eb2ad7c91a1710d769",
          "topics": [
            "0x4afcb4a87cdbd9974efdb92ee48bc8d7cd0ae4bf217004db3d080cbaee652ca7"
          ],
          "data": "0x000000000000000000000000000000000000000000000000000000006786ecd00000000000000000000000000000000000000000000000000004d5f333a74a110000000000000000000000000000000000000000000000000de0b6b3a7640000",
          "blockHash": "0x2d1fc65d89c534010457f0072387068eed6e9df86539bd25e751345beead64c6",
          "blockNumber": "0x7254e6",
          "transactionHash": "0x8b4dbbdc902f872d16da0c908380b53e0f9e87357353d2f69dfbc23cd0aeb57b",
          "transactionIndex": "0x3c",
          "logIndex": "0x49",
          "removed": false
        }
      ],
      "logsBloom": "0x00000000000000000000000000000000000000000000000000000000000000000000000000000000000000000000000020000000000000004000000000000000000000000000000000000008000000000000000000000000000000000000000000000000020000000000000000000800020000000000000000000010000000000000000000010000000000000000000000000000000000000000010000000000000000000000000000000000000000004000000000000000000000000000000000000002000000800000000000000000000000000000080000008000000020000000000000000000000000000000000000000000000000000000000000000000",
      "type": "0x2",
      "transactionHash": "0x8b4dbbdc902f872d16da0c908380b53e0f9e87357353d2f69dfbc23cd0aeb57b",
      "transactionIndex": "0x3c",
      "blockHash": "0x2d1fc65d89c534010457f0072387068eed6e9df86539bd25e751345beead64c6",
      "blockNumber": "0x7254e6",
      "gasUsed": "0x13af8",
      "effectiveGasPrice": "0xd680b189",
      "from": "0xc77f7fed3b5cc8249adc428c5f44c9063b9734b4",
      "to": "0x270e88f8683660553e8ba4eb2ad7c91a1710d769",
      "contractAddress": null
    }
  ],
  "libraries": [],
  "pending": [],
  "returns": {},
  "timestamp": 1736895697,
  "chain": 11155111,
  "commit": "51a374b"
}