{
  "transactions": [
    {
      "hash": "0x1a9d06dec4b7da1dad5bf0a8021fbd3fb3bdc7f1e2f31491ac0ced8654933f03",
      "transactionType": "CALL",
      "contractName": null,
      "contractAddress": "0x270e88f8683660553e8ba4eb2ad7c91a1710d769",
      "function": "sell(uint256)",
      "arguments": [
        "728220505006808844693"
      ],
      "transaction": {
        "from": "0xc77f7fed3b5cc8249adc428c5f44c9063b9734b4",
        "to": "0x270e88f8683660553e8ba4eb2ad7c91a1710d769",
        "gas": "0x16fec",
        "value": "0x0",
        "input": "0xe4849b320000000000000000000000000000000000000000000000277a16f306ae694995",
        "nonce": "0x7c2",
        "chainId": "0xaa36a7"
      },
      "additionalContracts": [],
      "isFixedGasLimit": false
    }
  ],
  "receipts": [
    {
      "status": "0x1",
      "cumulativeGasUsed": "0xc191ec",
      "logs": [
        {
          "address": "0x270e88f8683660553e8ba4eb2ad7c91a1710d769",
          "topics": [
            "0xddf252ad1be2c89b69c2b068fc378daa952ba7f163c4a11628f55a4df523b3ef",
            "0x000000000000000000000000c77f7fed3b5cc8249adc428c5f44c9063b9734b4",
            "0x0000000000000000000000000000000000000000000000000000000000000000"
          ],
          "data": "0x0000000000000000000000000000000000000000000000277a16f306ae694995",
          "blockHash": "0xff4d532d13e95a40599662cc446f47d3fbf55bd7736e6d33a6c6678dd62caa94",
          "blockNumber": "0x7254fa",
          "transactionHash": "0x1a9d06dec4b7da1dad5bf0a8021fbd3fb3bdc7f1e2f31491ac0ced8654933f03",
          "transactionIndex": "0x47",
          "logIndex": "0x55",
          "removed": false
        },
        {
          "address": "0x270e88f8683660553e8ba4eb2ad7c91a1710d769",
          "topics": [
            "0x4afcb4a87cdbd9974efdb92ee48bc8d7cd0ae4bf217004db3d080cbaee652ca7"
          ],
          "data": "0x000000000000000000000000000000000000000000000000000000006786edc00000000000000000000000000000000000000000000000000004d87b598d6c140000000000000000000000000000000000000000000000000dc82747d2c80b72",
          "blockHash": "0xff4d532d13e95a40599662cc446f47d3fbf55bd7736e6d33a6c6678dd62caa94",
          "blockNumber": "0x7254fa",
          "transactionHash": "0x1a9d06dec4b7da1dad5bf0a8021fbd3fb3bdc7f1e2f31491ac0ced8654933f03",
          "transactionIndex": "0x47",
          "logIndex": "0x56",
          "removed": false
        }
      ],
      "logsBloom": "0x00000000000000000000000000000000000000000000000000000000000000000000000000000000000000000000000020000000000000004000000000000000000000000000000000000008000000000000000000000000000000000000000000000000020000000000000000000800020000000000000000000010000000000000000000010000000000000000000000000000000000000000010000000000000000000000000000000000000000004000000000000000000000000000000000000002000000800000000000000000000000000000080000008000000020000000000000000000000000000000000000000000000000000000000000000000",
      "type": "0x2",
      "transactionHash": "0x1a9d06dec4b7da1dad5bf0a8021fbd3fb3bdc7f1e2f31491ac0ced8654933f03",
      "transactionIndex": "0x47",
      "blockHash": "0xff4d532d13e95a40599662cc446f47d3fbf55bd7736e6d33a6c6678dd62caa94",
      "blockNumber": "0x7254fa",
      "gasUsed": "0xfb93",
      "effectiveGasPrice": "0xb95df976",
      "from": "0xc77f7fed3b5cc8249adc428c5f44c9063b9734b4",
      "to": "0x270e88f8683660553e8ba4eb2ad7c91a1710d769",
      "contractAddress": null
    }
  ],
  "libraries": [],
  "pending": [],
  "returns": {},
  "timestamp": 1736895938,
  "chain": 11155111,
  "commit": "51a374b"
}