{
  "transactions": [
    {
      "hash": "0x7a7ef37eedcda10e9ee591bc74576ea53e8b1ca18a420e2852454a7d7fb9ee51",
      "transactionType": "CALL",
      "contractName": null,
      "contractAddress": "0x5eb9cc76c3506942c1c0ead70e877dd5e4f00cb0",
      "function": "buy(address)",
      "arguments": [
        "0xC77f7fed3b5Cc8249aDc428c5F44C9063B9734b4"
      ],
      "transaction": {
        "from": "0xc77f7fed3b5cc8249adc428c5f44c9063b9734b4",
        "to": "0x5eb9cc76c3506942c1c0ead70e877dd5e4f00cb0",
        "gas": "0x156c8",
        "value": "0xde0b6b3a7640000",
        "input": "0xf088d547000000000000000000000000c77f7fed3b5cc8249adc428c5f44c9063b9734b4",
        "nonce": "0x152",
        "chainId": "0xaa36a7"
      },
      "additionalContracts": [],
      "isFixedGasLimit": false
    }
  ],
  "receipts": [
    {
      "status": "0x1",
      "cumulativeGasUsed": "0x12c7da0",
      "logs": [
        {
          "address": "0x5eb9cc76c3506942c1c0ead70e877dd5e4f00cb0",
          "topics": [
            "0xddf252ad1be2c89b69c2b068fc378daa952ba7f163c4a11628f55a4df523b3ef",
            "0x0000000000000000000000000000000000000000000000000000000000000000",
            "0x000000000000000000000000c77f7fed3b5cc8249adc428c5f44c9063b9734b4"
          ],
          "data": "0x000000000000000000000000000000000000000000000035aaf14aef5c6a2a2f",
          "blockHash": "0x0de3613d075ec0cc5e81f66042708267e3e9fd3837c5d00caaabab145a3f9854",
          "blockNumber": "0x723b49",
          "transactionHash": "0x7a7ef37eedcda10e9ee591bc74576ea53e8b1ca18a420e2852454a7d7fb9ee51",
          "transactionIndex": "0x3b",
          "logIndex": "0x1ab",
          "removed": false
        },
        {
          "address": "0x5eb9cc76c3506942c1c0ead70e877dd5e4f00cb0",
          "topics": [
            "0xddf252ad1be2c89b69c2b068fc378daa952ba7f163c4a11628f55a4df523b3ef",
            "0x0000000000000000000000000000000000000000000000000000000000000000",
            "0x000000000000000000000000c77f7fed3b5cc8249adc428c5f44c9063b9734b4"
          ],
          "data": "0x00000000000000000000000000000000000000000000000029acc1ed0c76d236",
          "blockHash": "0x0de3613d075ec0cc5e81f66042708267e3e9fd3837c5d00caaabab145a3f9854",
          "blockNumber": "0x723b49",
          "transactionHash": "0x7a7ef37eedcda10e9ee591bc74576ea53e8b1ca18a420e2852454a7d7fb9ee51",
          "transactionIndex": "0x3b",
          "logIndex": "0x1ac",
          "removed": false
        },
        {
          "address": "0x5eb9cc76c3506942c1c0ead70e877dd5e4f00cb0",
          "topics": [
            "0x4afcb4a87cdbd9974efdb92ee48bc8d7cd0ae4bf217004db3d080cbaee652ca7"
          ],
          "data": "0x000000000000000000000000000000000000000000000000000000006785b8c000000000000000000000000000000000000000000000000000038d7fd00a88270000000000000000000000000000000000000000000000000de0b6b3a7640000",
          "blockHash": "0x0de3613d075ec0cc5e81f66042708267e3e9fd3837c5d00caaabab145a3f9854",
          "blockNumber": "0x723b49",
          "transactionHash": "0x7a7ef37eedcda10e9ee591bc74576ea53e8b1ca18a420e2852454a7d7fb9ee51",
          "transactionIndex": "0x3b",
          "logIndex": "0x1ad",
          "removed": false
        }
      ],
      "logsBloom": "0x00000000000000000000000000000000000000000000000000000000000000000000000000000000000000000000000000000000000000004000000000000000000000000000000000000008000000000000000000000000000000000000000000000000020000000000000004000800020000000000000000000010000000000000000000000000000000000000000000000000000000000000010000000000000000000000000000000000000000004000000000000000000000000000020000000002000000800000008000000000000000000000080000000000000020000000000000000000000000000000000000000000000000000000000000000000",
      "type": "0x2",
      "transactionHash": "0x7a7ef37eedcda10e9ee591bc74576ea53e8b1ca18a420e2852454a7d7fb9ee51",
      "transactionIndex": "0x3b",
      "blockHash": "0x0de3613d075ec0cc5e81f66042708267e3e9fd3837c5d00caaabab145a3f9854",
      "blockNumber": "0x723b49",
      "gasUsed": "0xf82c",
      "effectiveGasPrice": "0x5bbf7cc0c",
      "from": "0xc77f7fed3b5cc8249adc428c5f44c9063b9734b4",
      "to": "0x5eb9cc76c3506942c1c0ead70e877dd5e4f00cb0",
      "contractAddress": null
    }
  ],
  "libraries": [],
  "pending": [],
  "returns": {},
  "timestamp": 1736816835,
  "chain": 11155111,
  "commit": "51a374b"
}