{
  "transactions": [
    {
      "hash": "0x79bd576192d04ec283ad013e57046875d828cc5986907c32f78fd51656c1f672",
      "transactionType": "CALL",
      "contractName": null,
      "contractAddress": "0xbf4a322f1496e5c3d34a9bcdb4c60567b38c7de2",
      "function": "buy(address)",
      "arguments": [
        "0xC77f7fed3b5Cc8249aDc428c5F44C9063B9734b4"
      ],
      "transaction": {
        "from": "0xc77f7fed3b5cc8249adc428c5f44c9063b9734b4",
        "to": "0xbf4a322f1496e5c3d34a9bcdb4c60567b38c7de2",
        "gas": "0x1b309",
        "value": "0xde0b6b3a7640000",
        "input": "0xf088d547000000000000000000000000c77f7fed3b5cc8249adc428c5f44c9063b9734b4",
        "nonce": "0x8e2",
        "chainId": "0xaa36a7"
      },
      "additionalContracts": [],
      "isFixedGasLimit": false
    }
  ],
  "receipts": [
    {
      "status": "0x1",
      "cumulativeGasUsed": "0x1b25ea6",
      "logs": [
        {
          "address": "0xbf4a322f1496e5c3d34a9bcdb4c60567b38c7de2",
          "topics": [
            "0xddf252ad1be2c89b69c2b068fc378daa952ba7f163c4a11628f55a4df523b3ef",
            "0x0000000000000000000000000000000000000000000000000000000000000000",
            "0x000000000000000000000000c77f7fed3b5cc8249adc428c5f44c9063b9734b4"
          ],
          "data": "0x000000000000000000000000000000000000000000000035915797ed35e06417",
          "blockHash": "0x5807b2e8ece85e3d58720cc08e99f69d9938adb8d095a64ddde9a9fb9b0bf3e8",
          "blockNumber": "0x725857",
          "transactionHash": "0x79bd576192d04ec283ad013e57046875d828cc5986907c32f78fd51656c1f672",
          "transactionIndex": "0xa8",
          "logIndex": "0xfd",
          "removed": false
        },
        {
          "address": "0xbf4a322f1496e5c3d34a9bcdb4c60567b38c7de2",
          "topics": [
            "0xddf252ad1be2c89b69c2b068fc378daa952ba7f163c4a11628f55a4df523b3ef",
            "0x0000000000000000000000000000000000000000000000000000000000000000",
            "0x000000000000000000000000c77f7fed3b5cc8249adc428c5f44c9063b9734b4"
          ],
          "data": "0x0000000000000000000000000000000000000000000000002998e0c144d90dda",
          "blockHash": "0x5807b2e8ece85e3d58720cc08e99f69d9938adb8d095a64ddde9a9fb9b0bf3e8",
          "blockNumber": "0x725857",
          "transactionHash": "0x79bd576192d04ec283ad013e57046875d828cc5986907c32f78fd51656c1f672",
          "transactionIndex": "0xa8",
          "logIndex": "0xfe",
          "removed": false
        },
        {
          "address": "0xbf4a322f1496e5c3d34a9bcdb4c60567b38c7de2",
          "topics": [
            "0x4afcb4a87cdbd9974efdb92ee48bc8d7cd0ae4bf217004db3d080cbaee652ca7"
          ],
          "data": "0x000000000000000000000000000000000000000000000000000000006787164000000000000000000000000000000000000000000000000000038f34c504bca30000000000000000000000000000000000000000000000000de0b6b3a7640000",
          "blockHash": "0x5807b2e8ece85e3d58720cc08e99f69d9938adb8d095a64ddde9a9fb9b0bf3e8",
          "blockNumber": "0x725857",
          "transactionHash": "0x79bd576192d04ec283ad013e57046875d828cc5986907c32f78fd51656c1f672",
          "transactionIndex": "0xa8",
          "logIndex": "0xff",
          "removed": false
        }
      ],
      "logsBloom": "0x00000000000000000000000000000000000000000000000000000000000000000000000000000000000000000000000000000000000000004000000000000000000000000000000000000008000000000000001000000000000000000000000000000000020000000000000000000800020000000000000000000010000000000000000000000000000000000000000000000000000008000000010000000000000000000000000000000000000000004000000000000000000000000000000000000002000000800000000000001000000000000000080000000000000020000000000000000000000000000000000000000000000000000000000000000000",
      "type": "0x2",
      "transactionHash": "0x79bd576192d04ec283ad013e57046875d828cc5986907c32f78fd51656c1f672",
      "transactionIndex": "0xa8",
      "blockHash": "0x5807b2e8ece85e3d58720cc08e99f69d9938adb8d095a64ddde9a9fb9b0bf3e8",
      "blockNumber": "0x725857",
      "gasUsed": "0x13af6",
      "effectiveGasPrice": "0x20b8ce22",
      "from": "0xc77f7fed3b5cc8249adc428c5f44c9063b9734b4",
      "to": "0xbf4a322f1496e5c3d34a9bcdb4c60567b38c7de2",
      "contractAddress": null
    }
  ],
  "libraries": [],
  "pending": [],
  "returns": {},
  "timestamp": 1736906305,
  "chain": 11155111,
  "commit": "51a374b"
}