{
  "transactions": [
    {
      "hash": "0x490c14a0cb8c5ad4fc16c8bbd4120b8dac5a95730d1dda9f2c4969d4eea56bf9",
      "transactionType": "CALL",
      "contractName": null,
      "contractAddress": "0xfcd1e9490bdaa8b6c0f830eb671d3136559af099",
      "function": "borrow(uint256,uint256)",
      "arguments": [
        "266648104227718",
        "0"
      ],
      "transaction": {
        "from": "0xc77f7fed3b5cc8249adc428c5f44c9063b9734b4",
        "to": "0xfcd1e9490bdaa8b6c0f830eb671d3136559af099",
        "gas": "0x2562a",
        "value": "0x0",
        "input": "0x0ecbcdab0000000000000000000000000000000000000000000000000000f283d98853860000000000000000000000000000000000000000000000000000000000000000",
        "nonce": "0x18ac",
        "chainId": "0xaa36a7"
      },
      "additionalContracts": [],
      "isFixedGasLimit": false
    }
  ],
  "receipts": [
    {
      "status": "0x1",
      "cumulativeGasUsed": "0x6adb27",
      "logs": [
        {
          "address": "0xfcd1e9490bdaa8b6c0f830eb671d3136559af099",
          "topics": [
            "0xddf252ad1be2c89b69c2b068fc378daa952ba7f163c4a11628f55a4df523b3ef",
            "0x000000000000000000000000fcd1e9490bdaa8b6c0f830eb671d3136559af099",
            "0x000000000000000000000000c77f7fed3b5cc8249adc428c5f44c9063b9734b4"
          ],
          "data": "0x000000000000000000000000000000000000000000000000000457dbc294d31f",
          "blockHash": "0x0ab25667adf9a4bf136cc8d7e8c943ad6f3ef1e16eac571a23e07f137f380a5c",
          "blockNumber": "0x73833b",
          "transactionHash": "0x490c14a0cb8c5ad4fc16c8bbd4120b8dac5a95730d1dda9f2c4969d4eea56bf9",
          "transactionIndex": "0x3c",
          "logIndex": "0x68",
          "removed": false
        },
        {
          "address": "0xfcd1e9490bdaa8b6c0f830eb671d3136559af099",
          "topics": [
            "0xddf252ad1be2c89b69c2b068fc378daa952ba7f163c4a11628f55a4df523b3ef",
            "0x000000000000000000000000fcd1e9490bdaa8b6c0f830eb671d3136559af099",
            "0x0000000000000000000000000000000000000000000000000000000000000000"
          ],
          "data": "0x000000000000000000000000000000000000000000000000000a22561b5b41f4",
          "blockHash": "0x0ab25667adf9a4bf136cc8d7e8c943ad6f3ef1e16eac571a23e07f137f380a5c",
          "blockNumber": "0x73833b",
          "transactionHash": "0x490c14a0cb8c5ad4fc16c8bbd4120b8dac5a95730d1dda9f2c4969d4eea56bf9",
          "transactionIndex": "0x3c",
          "logIndex": "0x69",
          "removed": false
        },
        {
          "address": "0xfcd1e9490bdaa8b6c0f830eb671d3136559af099",
          "topics": [
            "0x03bbe564cb1b78e43195eeadbde99e5b89b19345862807fcfb59f884e4165e25"
          ],
          "data": "0x000000000000000000000000c77f7fed3b5cc8249adc428c5f44c9063b9734b40000000000000000000000000000000000000000000000000000de13bd4fc857",
          "blockHash": "0x0ab25667adf9a4bf136cc8d7e8c943ad6f3ef1e16eac571a23e07f137f380a5c",
          "blockNumber": "0x73833b",
          "transactionHash": "0x490c14a0cb8c5ad4fc16c8bbd4120b8dac5a95730d1dda9f2c4969d4eea56bf9",
          "transactionIndex": "0x3c",
          "logIndex": "0x6a",
          "removed": false
        },
        {
          "address": "0xfcd1e9490bdaa8b6c0f830eb671d3136559af099",
          "topics": [
            "0xaec00f5213a37254bc68a26b0685d1a5b2bf513e1e587c94c7df7f4a62b56c9c"
          ],
          "data": "0x0000000000000000000000000000000000000000000000000000000000000000000000000000000000000000000000000000000000000000000000000000000000000000000000000000000000000000000000000000000087dd752cbdffe00000000000000000000000000000000000000000000000006d3450f1dd9b2d679b",
          "blockHash": "0x0ab25667adf9a4bf136cc8d7e8c943ad6f3ef1e16eac571a23e07f137f380a5c",
          "blockNumber": "0x73833b",
          "transactionHash": "0x490c14a0cb8c5ad4fc16c8bbd4120b8dac5a95730d1dda9f2c4969d4eea56bf9",
          "transactionIndex": "0x3c",
          "logIndex": "0x6b",
          "removed": false
        },
        {
          "address": "0xfcd1e9490bdaa8b6c0f830eb671d3136559af099",
          "topics": [
            "0xaec00f5213a37254bc68a26b0685d1a5b2bf513e1e587c94c7df7f4a62b56c9c"
          ],
          "data": "0x000000000000000000000000000000000000000000000001140f652d7803ede40000000000000000000000000000000000000000000000000046fe4a21f3059b00000000000000000000000000000000000000000000000088247376dff2e59b00000000000000000000000000000000000000000000006e4860570b1331557f",
          "blockHash": "0x0ab25667adf9a4bf136cc8d7e8c943ad6f3ef1e16eac571a23e07f137f380a5c",
          "blockNumber": "0x73833b",
          "transactionHash": "0x490c14a0cb8c5ad4fc16c8bbd4120b8dac5a95730d1dda9f2c4969d4eea56bf9",
          "transactionIndex": "0x3c",
          "logIndex": "0x6c",
          "removed": false
        },
        {
          "address": "0xfcd1e9490bdaa8b6c0f830eb671d3136559af099",
          "topics": [
            "0x4afcb4a87cdbd9974efdb92ee48bc8d7cd0ae4bf217004db3d080cbaee652ca7"
          ],
          "data": "0x0000000000000000000000000000000000000000000000000000000067954f74000000000000000000000000000000000000000000000000001170f723b9469700000000000000000000000000000000000000000000000000001231d9a983fc",
          "blockHash": "0x0ab25667adf9a4bf136cc8d7e8c943ad6f3ef1e16eac571a23e07f137f380a5c",
          "blockNumber": "0x73833b",
          "transactionHash": "0x490c14a0cb8c5ad4fc16c8bbd4120b8dac5a95730d1dda9f2c4969d4eea56bf9",
          "transactionIndex": "0x3c",
          "logIndex": "0x6d",
          "removed": false
        }
      ],
      "logsBloom": "0x00000000000000000000000000000100400000000000000000000000000000000008000000000000000000000000000000002800000000004000000000000000000000000000000000000008000000000000000000000000000000000000000000000080020000000000000000000800020000000000000000000010000000000000000000000000000000000000000000000000000000000000010000000000002000000000000000000400000000004000000000000000000000001000000000000002200000800000000000000000000000000000080100000000000020000000000000000000000000000000000002000000000000000000000000000000",
      "type": "0x2",
      "transactionHash": "0x490c14a0cb8c5ad4fc16c8bbd4120b8dac5a95730d1dda9f2c4969d4eea56bf9",
      "transactionIndex": "0x3c",
      "blockHash": "0x0ab25667adf9a4bf136cc8d7e8c943ad6f3ef1e16eac571a23e07f137f380a5c",
      "blockNumber": "0x73833b",
      "gasUsed": "0x19901",
      "effectiveGasPrice": "0x7324351f",
      "from": "0xc77f7fed3b5cc8249adc428c5f44c9063b9734b4",
      "to": "0xfcd1e9490bdaa8b6c0f830eb671d3136559af099",
      "contractAddress": null
    }
  ],
  "libraries": [],
  "pending": [],
  "returns": {},
  "timestamp": 1737838453,
  "chain": 11155111,
  "commit": "f5162e9"
}