{
  "transactions": [
    {
      "hash": "0x0b158fe55ed36a4793743cd8e20f83736121f12a26ba6546677dae8d206f3feb",
      "transactionType": "CALL",
      "contractName": null,
      "contractAddress": "0x270e88f8683660553e8ba4eb2ad7c91a1710d769",
      "function": "sell(uint256)",
      "arguments": [
        "721403945152782249117"
      ],
      "transaction": {
        "from": "0xc77f7fed3b5cc8249adc428c5f44c9063b9734b4",
        "to": "0x270e88f8683660553e8ba4eb2ad7c91a1710d769",
        "gas": "0x16fec",
        "value": "0x0",
        "input": "0xe4849b320000000000000000000000000000000000000000000000271b7da9f45cf7ac9d",
        "nonce": "0x812",
        "chainId": "0xaa36a7"
      },
      "additionalContracts": [],
      "isFixedGasLimit": false
    }
  ],
  "receipts": [
    {
      "status": "0x1",
      "cumulativeGasUsed": "0x112e55c",
      "logs": [
        {
          "address": "0x270e88f8683660553e8ba4eb2ad7c91a1710d769",
          "topics": [
            "0xddf252ad1be2c89b69c2b068fc378daa952ba7f163c4a11628f55a4df523b3ef",
            "0x000000000000000000000000c77f7fed3b5cc8249adc428c5f44c9063b9734b4",
            "0x0000000000000000000000000000000000000000000000000000000000000000"
          ],
          "data": "0x0000000000000000000000000000000000000000000000271b7da9f45cf7ac9d",
          "blockHash": "0x33357937f226f7d1dbaa5482ed7b103ec7560f95e87f671d0e3f15b60a14146a",
          "blockNumber": "0x725554",
          "transactionHash": "0x0b158fe55ed36a4793743cd8e20f83736121f12a26ba6546677dae8d206f3feb",
          "transactionIndex": "0x4c",
          "logIndex": "0x76",
          "removed": false
        },
        {
          "address": "0x270e88f8683660553e8ba4eb2ad7c91a1710d769",
          "topics": [
            "0x4afcb4a87cdbd9974efdb92ee48bc8d7cd0ae4bf217004db3d080cbaee652ca7"
          ],
          "data": "0x000000000000000000000000000000000000000000000000000000006786f1f80000000000000000000000000000000000000000000000000004e4334e6efd8c0000000000000000000000000000000000000000000000000dc8269321f1b863",
          "blockHash": "0x33357937f226f7d1dbaa5482ed7b103ec7560f95e87f671d0e3f15b60a14146a",
          "blockNumber": "0x725554",
          "transactionHash": "0x0b158fe55ed36a4793743cd8e20f83736121f12a26ba6546677dae8d206f3feb",
          "transactionIndex": "0x4c",
          "logIndex": "0x77",
          "removed": false
        }
      ],
      "logsBloom": "0x00000000000000000000000000000000000000000000000000000000000000000000000000000000000000000000000020000000000000004000000000000000000000000000000000000008000000000000000000000000000000000000000000000000020000000000000000000800020000000000000000000010000000000000000000010000000000000000000000000000000000000000010000000000000000000000000000000000000000004000000000000000000000000000000000000002000000800000000000000000000000000000080000008000000020000000000000000000000000000000000000000000000000000000000000000000",
      "type": "0x2",
      "transactionHash": "0x0b158fe55ed36a4793743cd8e20f83736121f12a26ba6546677dae8d206f3feb",
      "transactionIndex": "0x4c",
      "blockHash": "0x33357937f226f7d1dbaa5482ed7b103ec7560f95e87f671d0e3f15b60a14146a",
      "blockNumber": "0x725554",
      "gasUsed": "0xfb93",
      "effectiveGasPrice": "0x849fcf45",
      "from": "0xc77f7fed3b5cc8249adc428c5f44c9063b9734b4",
      "to": "0x270e88f8683660553e8ba4eb2ad7c91a1710d769",
      "contractAddress": null
    }
  ],
  "libraries": [],
  "pending": [],
  "returns": {},
  "timestamp": 1736897018,
  "chain": 11155111,
  "commit": "51a374b"
}