{
  "transactions": [
    {
      "hash": "0x7af73df310525117b07e38d23aca1d45095ddab9a4ae3fa6192d75af42ae0720",
      "transactionType": "CALL",
      "contractName": null,
      "contractAddress": "0x5eb9cc76c3506942c1c0ead70e877dd5e4f00cb0",
      "function": "buy(address)",
      "arguments": [
        "0xC77f7fed3b5Cc8249aDc428c5F44C9063B9734b4"
      ],
      "transaction": {
        "from": "0xc77f7fed3b5cc8249adc428c5f44c9063b9734b4",
        "to": "0x5eb9cc76c3506942c1c0ead70e877dd5e4f00cb0",
        "gas": "0x156c8",
        "value": "0xde0b6b3a7640000",
        "input": "0xf088d547000000000000000000000000c77f7fed3b5cc8249adc428c5f44c9063b9734b4",
        "nonce": "0x13f",
        "chainId": "0xaa36a7"
      },
      "additionalContracts": [],
      "isFixedGasLimit": false
    }
  ],
  "receipts": [
    {
      "status": "0x1",
      "cumulativeGasUsed": "0x6325ad",
      "logs": [
        {
          "address": "0x5eb9cc76c3506942c1c0ead70e877dd5e4f00cb0",
          "topics": [
            "0xddf252ad1be2c89b69c2b068fc378daa952ba7f163c4a11628f55a4df523b3ef",
            "0x0000000000000000000000000000000000000000000000000000000000000000",
            "0x000000000000000000000000c77f7fed3b5cc8249adc428c5f44c9063b9734b4"
          ],
          "data": "0x000000000000000000000000000000000000000000000035aaf914dbae8ec498",
          "blockHash": "0x3391a451805e2c7b5ff9cc56767fc715f82f96d08f811e1e58f7ceca1771ad53",
          "blockNumber": "0x723b29",
          "transactionHash": "0x7af73df310525117b07e38d23aca1d45095ddab9a4ae3fa6192d75af42ae0720",
          "transactionIndex": "0x38",
          "logIndex": "0x57",
          "removed": false
        },
        {
          "address": "0x5eb9cc76c3506942c1c0ead70e877dd5e4f00cb0",
          "topics": [
            "0xddf252ad1be2c89b69c2b068fc378daa952ba7f163c4a11628f55a4df523b3ef",
            "0x0000000000000000000000000000000000000000000000000000000000000000",
            "0x000000000000000000000000c77f7fed3b5cc8249adc428c5f44c9063b9734b4"
          ],
          "data": "0x00000000000000000000000000000000000000000000000029acc7f965e3f71f",
          "blockHash": "0x3391a451805e2c7b5ff9cc56767fc715f82f96d08f811e1e58f7ceca1771ad53",
          "blockNumber": "0x723b29",
          "transactionHash": "0x7af73df310525117b07e38d23aca1d45095ddab9a4ae3fa6192d75af42ae0720",
          "transactionIndex": "0x38",
          "logIndex": "0x58",
          "removed": false
        },
        {
          "address": "0x5eb9cc76c3506942c1c0ead70e877dd5e4f00cb0",
          "topics": [
            "0x4afcb4a87cdbd9974efdb92ee48bc8d7cd0ae4bf217004db3d080cbaee652ca7"
          ],
          "data": "0x000000000000000000000000000000000000000000000000000000006785b74000000000000000000000000000000000000000000000000000038d7f4c0c73890000000000000000000000000000000000000000000000000de0b6b3a7640000",
          "blockHash": "0x3391a451805e2c7b5ff9cc56767fc715f82f96d08f811e1e58f7ceca1771ad53",
          "blockNumber": "0x723b29",
          "transactionHash": "0x7af73df310525117b07e38d23aca1d45095ddab9a4ae3fa6192d75af42ae0720",
          "transactionIndex": "0x38",
          "logIndex": "0x59",
          "removed": false
        }
      ],
      "logsBloom": "0x00000000000000000000000000000000000000000000000000000000000000000000000000000000000000000000000000000000000000004000000000000000000000000000000000000008000000000000000000000000000000000000000000000000020000000000000004000800020000000000000000000010000000000000000000000000000000000000000000000000000000000000010000000000000000000000000000000000000000004000000000000000000000000000020000000002000000800000008000000000000000000000080000000000000020000000000000000000000000000000000000000000000000000000000000000000",
      "type": "0x2",
      "transactionHash": "0x7af73df310525117b07e38d23aca1d45095ddab9a4ae3fa6192d75af42ae0720",
      "transactionIndex": "0x38",
      "blockHash": "0x3391a451805e2c7b5ff9cc56767fc715f82f96d08f811e1e58f7ceca1771ad53",
      "blockNumber": "0x723b29",
      "gasUsed": "0xf82c",
      "effectiveGasPrice": "0x4227cb446",
      "from": "0xc77f7fed3b5cc8249adc428c5f44c9063b9734b4",
      "to": "0x5eb9cc76c3506942c1c0ead70e877dd5e4f00cb0",
      "contractAddress": null
    }
  ],
  "libraries": [],
  "pending": [],
  "returns": {},
  "timestamp": 1736816450,
  "chain": 11155111,
  "commit": "51a374b"
}