{
  "transactions": [
    {
      "hash": "0xed732e823724515c4e8a4b0809c4208ca20e83612b7d9f970d90b65412baed42",
      "transactionType": "CALL",
      "contractName": null,
      "contractAddress": "0x270e88f8683660553e8ba4eb2ad7c91a1710d769",
      "function": "sell(uint256)",
      "arguments": [
        "943242256848498225369"
      ],
      "transaction": {
        "from": "0xc77f7fed3b5cc8249adc428c5f44c9063b9734b4",
        "to": "0x270e88f8683660553e8ba4eb2ad7c91a1710d769",
        "gas": "0x16fec",
        "value": "0x0",
        "input": "0xe4849b32000000000000000000000000000000000000000000000033221dab17908070d9",
        "nonce": "0x61d",
        "chainId": "0xaa36a7"
      },
      "additionalContracts": [],
      "isFixedGasLimit": false
    }
  ],
  "receipts": [
    {
      "status": "0x1",
      "cumulativeGasUsed": "0x8c2b28",
      "logs": [
        {
          "address": "0x270e88f8683660553e8ba4eb2ad7c91a1710d769",
          "topics": [
            "0xddf252ad1be2c89b69c2b068fc378daa952ba7f163c4a11628f55a4df523b3ef",
            "0x000000000000000000000000c77f7fed3b5cc8249adc428c5f44c9063b9734b4",
            "0x0000000000000000000000000000000000000000000000000000000000000000"
          ],
          "data": "0x000000000000000000000000000000000000000000000033221dab17908070d9",
          "blockHash": "0xae354218667db1f60359a616199c66ae2222669cca19a96bca52da3924dc331a",
          "blockNumber": "0x7252ea",
          "transactionHash": "0xed732e823724515c4e8a4b0809c4208ca20e83612b7d9f970d90b65412baed42",
          "transactionIndex": "0x43",
          "logIndex": "0x7a",
          "removed": false
        },
        {
          "address": "0x270e88f8683660553e8ba4eb2ad7c91a1710d769",
          "topics": [
            "0x4afcb4a87cdbd9974efdb92ee48bc8d7cd0ae4bf217004db3d080cbaee652ca7"
          ],
          "data": "0x000000000000000000000000000000000000000000000000000000006786d5000000000000000000000000000000000000000000000000000003bdc4874534d40000000000000000000000000000000000000000000000000dc83d76ca6396af",
          "blockHash": "0xae354218667db1f60359a616199c66ae2222669cca19a96bca52da3924dc331a",
          "blockNumber": "0x7252ea",
          "transactionHash": "0xed732e823724515c4e8a4b0809c4208ca20e83612b7d9f970d90b65412baed42",
          "transactionIndex": "0x43",
          "logIndex": "0x7b",
          "removed": false
        }
      ],
      "logsBloom": "0x00000000000000000000000000000000000000000000000000000000000000000000000000000000000000000000000020000000000000004000000000000000000000000000000000000008000000000000000000000000000000000000000000000000020000000000000000000800020000000000000000000010000000000000000000010000000000000000000000000000000000000000010000000000000000000000000000000000000000004000000000000000000000000000000000000002000000800000000000000000000000000000080000008000000020000000000000000000000000000000000000000000000000000000000000000000",
      "type": "0x2",
      "transactionHash": "0xed732e823724515c4e8a4b0809c4208ca20e83612b7d9f970d90b65412baed42",
      "transactionIndex": "0x43",
      "blockHash": "0xae354218667db1f60359a616199c66ae2222669cca19a96bca52da3924dc331a",
      "blockNumber": "0x7252ea",
      "gasUsed": "0xfb93",
      "effectiveGasPrice": "0x2a8b3428f",
      "from": "0xc77f7fed3b5cc8249adc428c5f44c9063b9734b4",
      "to": "0x270e88f8683660553e8ba4eb2ad7c91a1710d769",
      "contractAddress": null
    }
  ],
  "libraries": [],
  "pending": [],
  "returns": {},
  "timestamp": 1736889600,
  "chain": 11155111,
  "commit": "51a374b"
}