{
  "transactions": [
    {
      "hash": "0x5cb5eb5f0d2fce2b77f7f960257134d8673e11e15991b884992091ad71e2cfff",
      "transactionType": "CALL",
      "contractName": null,
      "contractAddress": "0x5eb9cc76c3506942c1c0ead70e877dd5e4f00cb0",
      "function": "buy(address)",
      "arguments": [
        "0xC77f7fed3b5Cc8249aDc428c5F44C9063B9734b4"
      ],
      "transaction": {
        "from": "0xc77f7fed3b5cc8249adc428c5f44c9063b9734b4",
        "to": "0x5eb9cc76c3506942c1c0ead70e877dd5e4f00cb0",
        "gas": "0x156c8",
        "value": "0xde0b6b3a7640000",
        "input": "0xf088d547000000000000000000000000c77f7fed3b5cc8249adc428c5f44c9063b9734b4",
        "nonce": "0x168",
        "chainId": "0xaa36a7"
      },
      "additionalContracts": [],
      "isFixedGasLimit": false
    }
  ],
  "receipts": [
    {
      "status": "0x1",
      "cumulativeGasUsed": "0xd5922e",
      "logs": [
        {
          "address": "0x5eb9cc76c3506942c1c0ead70e877dd5e4f00cb0",
          "topics": [
            "0xddf252ad1be2c89b69c2b068fc378daa952ba7f163c4a11628f55a4df523b3ef",
            "0x0000000000000000000000000000000000000000000000000000000000000000",
            "0x000000000000000000000000c77f7fed3b5cc8249adc428c5f44c9063b9734b4"
          ],
          "data": "0x000000000000000000000000000000000000000000000035a6d8f57c515c7671",
          "blockHash": "0x852214662920865f732ad78f547b738c0872b166891cc32e290514c27cec01b4",
          "blockNumber": "0x723c23",
          "transactionHash": "0x5cb5eb5f0d2fce2b77f7f960257134d8673e11e15991b884992091ad71e2cfff",
          "transactionIndex": "0x78",
          "logIndex": "0xa0",
          "removed": false
        },
        {
          "address": "0x5eb9cc76c3506942c1c0ead70e877dd5e4f00cb0",
          "topics": [
            "0xddf252ad1be2c89b69c2b068fc378daa952ba7f163c4a11628f55a4df523b3ef",
            "0x0000000000000000000000000000000000000000000000000000000000000000",
            "0x000000000000000000000000c77f7fed3b5cc8249adc428c5f44c9063b9734b4"
          ],
          "data": "0x00000000000000000000000000000000000000000000000029a993dbe93af691",
          "blockHash": "0x852214662920865f732ad78f547b738c0872b166891cc32e290514c27cec01b4",
          "blockNumber": "0x723c23",
          "transactionHash": "0x5cb5eb5f0d2fce2b77f7f960257134d8673e11e15991b884992091ad71e2cfff",
          "transactionIndex": "0x78",
          "logIndex": "0xa1",
          "removed": false
        },
        {
          "address": "0x5eb9cc76c3506942c1c0ead70e877dd5e4f00cb0",
          "topics": [
            "0x4afcb4a87cdbd9974efdb92ee48bc8d7cd0ae4bf217004db3d080cbaee652ca7"
          ],
          "data": "0x000000000000000000000000000000000000000000000000000000006785c2f800000000000000000000000000000000000000000000000000038dc53b117e390000000000000000000000000000000000000000000000000de0b6b3a7640000",
          "blockHash": "0x852214662920865f732ad78f547b738c0872b166891cc32e290514c27cec01b4",
          "blockNumber": "0x723c23",
          "transactionHash": "0x5cb5eb5f0d2fce2b77f7f960257134d8673e11e15991b884992091ad71e2cfff",
          "transactionIndex": "0x78",
          "logIndex": "0xa2",
          "removed": false
        }
      ],
      "logsBloom": "0x00000000000000000000000000000000000000000000000000000000000000000000000000000000000000000000000000000000000000004000000000000000000000000000000000000008000000000000000000000000000000000000000000000000020000000000000004000800020000000000000000000010000000000000000000000000000000000000000000000000000000000000010000000000000000000000000000000000000000004000000000000000000000000000020000000002000000800000008000000000000000000000080000000000000020000000000000000000000000000000000000000000000000000000000000000000",
      "type": "0x2",
      "transactionHash": "0x5cb5eb5f0d2fce2b77f7f960257134d8673e11e15991b884992091ad71e2cfff",
      "transactionIndex": "0x78",
      "blockHash": "0x852214662920865f732ad78f547b738c0872b166891cc32e290514c27cec01b4",
      "blockNumber": "0x723c23",
      "gasUsed": "0xf82c",
      "effectiveGasPrice": "0x20081900f",
      "from": "0xc77f7fed3b5cc8249adc428c5f44c9063b9734b4",
      "to": "0x5eb9cc76c3506942c1c0ead70e877dd5e4f00cb0",
      "contractAddress": null
    }
  ],
  "libraries": [],
  "pending": [],
  "returns": {},
  "timestamp": 1736819449,
  "chain": 11155111,
  "commit": "51a374b"
}