{
  "transactions": [
    {
      "hash": "0x7bc23a56531b89bab6ddcd0e718674ccb36c7a4fe8c9b1102535c098f06d9542",
      "transactionType": "CALL",
      "contractName": null,
      "contractAddress": "0xbf4a322f1496e5c3d34a9bcdb4c60567b38c7de2",
      "function": "sell(uint256)",
      "arguments": [
        "985250180598612765991"
      ],
      "transaction": {
        "from": "0xc77f7fed3b5cc8249adc428c5f44c9063b9734b4",
        "to": "0xbf4a322f1496e5c3d34a9bcdb4c60567b38c7de2",
        "gas": "0x16fea",
        "value": "0x0",
        "input": "0xe4849b320000000000000000000000000000000000000000000000356917cb2cddc62d27",
        "nonce": "0xa93",
        "chainId": "0xaa36a7"
      },
      "additionalContracts": [],
      "isFixedGasLimit": false
    }
  ],
  "receipts": [
    {
      "status": "0x1",
      "cumulativeGasUsed": "0x8da4f5",
      "logs": [
        {
          "address": "0xbf4a322f1496e5c3d34a9bcdb4c60567b38c7de2",
          "topics": [
            "0xddf252ad1be2c89b69c2b068fc378daa952ba7f163c4a11628f55a4df523b3ef",
            "0x000000000000000000000000c77f7fed3b5cc8249adc428c5f44c9063b9734b4",
            "0x0000000000000000000000000000000000000000000000000000000000000000"
          ],
          "data": "0x0000000000000000000000000000000000000000000000356917cb2cddc62d27",
          "blockHash": "0x2709745fe0076d04430761c49945b3155fe284ea31823948ab2d4d9fbe556dfa",
          "blockNumber": "0x725a77",
          "transactionHash": "0x7bc23a56531b89bab6ddcd0e718674ccb36c7a4fe8c9b1102535c098f06d9542",
          "transactionIndex": "0x67",
          "logIndex": "0x9b",
          "removed": false
        },
        {
          "address": "0xbf4a322f1496e5c3d34a9bcdb4c60567b38c7de2",
          "topics": [
            "0x4afcb4a87cdbd9974efdb92ee48bc8d7cd0ae4bf217004db3d080cbaee652ca7"
          ],
          "data": "0x0000000000000000000000000000000000000000000000000000000067872fe4000000000000000000000000000000000000000000000000000394ad39e4fe370000000000000000000000000000000000000000000000000dc7e3ee45e7975d",
          "blockHash": "0x2709745fe0076d04430761c49945b3155fe284ea31823948ab2d4d9fbe556dfa",
          "blockNumber": "0x725a77",
          "transactionHash": "0x7bc23a56531b89bab6ddcd0e718674ccb36c7a4fe8c9b1102535c098f06d9542",
          "transactionIndex": "0x67",
          "logIndex": "0x9c",
          "removed": false
        }
      ],
      "logsBloom": "0x00000000000000000000000000000000000000000000000000000000000000000000000000000000000000000000000000000000000000004000000000000000000000000000000000000008000000000000001000000000000000000000000000000000020000000000000000000800020000000000000000000010000000000000000000000000000000000000000000000000000008000000010000000000000000000000000000000000000000004000000000000000000000000000000000000002000000800000000000001000000000000000080000000000000020000000000000000000000000000000000000000000000000000000000000000000",
      "type": "0x2",
      "transactionHash": "0x7bc23a56531b89bab6ddcd0e718674ccb36c7a4fe8c9b1102535c098f06d9542",
      "transactionIndex": "0x67",
      "blockHash": "0x2709745fe0076d04430761c49945b3155fe284ea31823948ab2d4d9fbe556dfa",
      "blockNumber": "0x725a77",
      "gasUsed": "0xfb91",
      "effectiveGasPrice": "0x21a4759fd",
      "from": "0xc77f7fed3b5cc8249adc428c5f44c9063b9734b4",
      "to": "0xbf4a322f1496e5c3d34a9bcdb4c60567b38c7de2",
      "contractAddress": null
    }
  ],
  "libraries": [],
  "pending": [],
  "returns": {},
  "timestamp": 1736912869,
  "chain": 11155111,
  "commit": "51a374b"
}