{
  "transactions": [
    {
      "hash": "0xe9d7ecf4789b988d1d569e4c1166a2d8d7b61122eadf95bc9e7fa4e8ca1c0a8f",
      "transactionType": "CALL",
      "contractName": null,
      "contractAddress": "0xc51306616a5253b1d8b52af3a1c536ea5fbc478c",
      "function": "borrowMore(uint256)",
      "arguments": [
        "17893171049331698"
      ],
      "transaction": {
        "from": "0xc77f7fed3b5cc8249adc428c5f44c9063b9734b4",
        "to": "0xc51306616a5253b1d8b52af3a1c536ea5fbc478c",
        "gas": "0x23f39",
        "value": "0x0",
        "input": "0x9d0bf2e9000000000000000000000000000000000000000000000000003f91be884cfbf2",
        "nonce": "0x1925",
        "chainId": "0xaa36a7"
      },
      "additionalContracts": [],
      "isFixedGasLimit": false
    }
  ],
  "receipts": [
    {
      "status": "0x1",
      "cumulativeGasUsed": "0xa2fbd4",
      "logs": [
        {
          "address": "0xc51306616a5253b1d8b52af3a1c536ea5fbc478c",
          "topics": [
            "0xddf252ad1be2c89b69c2b068fc378daa952ba7f163c4a11628f55a4df523b3ef",
            "0x000000000000000000000000c77f7fed3b5cc8249adc428c5f44c9063b9734b4",
            "0x000000000000000000000000c51306616a5253b1d8b52af3a1c536ea5fbc478c"
          ],
          "data": "0x0000000000000000000000000000000000000000000000000fd2fc1c8a53153c",
          "blockHash": "0x74f0d9097c18fa03a0c8d791dfa71d2277446cde958c595a753c9ae842a8ad31",
          "blockNumber": "0x739b4e",
          "transactionHash": "0xe9d7ecf4789b988d1d569e4c1166a2d8d7b61122eadf95bc9e7fa4e8ca1c0a8f",
          "transactionIndex": "0x68",
          "logIndex": "0x9a",
          "removed": false
        },
        {
          "address": "0xc51306616a5253b1d8b52af3a1c536ea5fbc478c",
          "topics": [
            "0x03bbe564cb1b78e43195eeadbde99e5b89b19345862807fcfb59f884e4165e25"
          ],
          "data": "0x00000000000000000000000038818e389773445cd73adbaa37b8b169f458c6e1000000000000000000000000000000000000000000000000000004e1d2d4cf6f",
          "blockHash": "0x74f0d9097c18fa03a0c8d791dfa71d2277446cde958c595a753c9ae842a8ad31",
          "blockNumber": "0x739b4e",
          "transactionHash": "0xe9d7ecf4789b988d1d569e4c1166a2d8d7b61122eadf95bc9e7fa4e8ca1c0a8f",
          "transactionIndex": "0x68",
          "logIndex": "0x9b",
          "removed": false
        },
        {
          "address": "0xc51306616a5253b1d8b52af3a1c536ea5fbc478c",
          "topics": [
            "0x03bbe564cb1b78e43195eeadbde99e5b89b19345862807fcfb59f884e4165e25"
          ],
          "data": "0x000000000000000000000000c77f7fed3b5cc8249adc428c5f44c9063b9734b4000000000000000000000000000000000000000000000000003edebbab2745fa",
          "blockHash": "0x74f0d9097c18fa03a0c8d791dfa71d2277446cde958c595a753c9ae842a8ad31",
          "blockNumber": "0x739b4e",
          "transactionHash": "0xe9d7ecf4789b988d1d569e4c1166a2d8d7b61122eadf95bc9e7fa4e8ca1c0a8f",
          "transactionIndex": "0x68",
          "logIndex": "0x9c",
          "removed": false
        },
        {
          "address": "0xc51306616a5253b1d8b52af3a1c536ea5fbc478c",
          "topics": [
            "0xaec00f5213a37254bc68a26b0685d1a5b2bf513e1e587c94c7df7f4a62b56c9c"
          ],
          "data": "0x0000000000000000000000000000000000000000000000001fa5f83914a62a8b0000000000000000000000000000000000000000000000000062bdbde793bbe80000000000000000000000000000000000000000000000000062bdbde793bbe80000000000000000000000000000000000000000000000001fa5f83914a62a8b",
          "blockHash": "0x74f0d9097c18fa03a0c8d791dfa71d2277446cde958c595a753c9ae842a8ad31",
          "blockNumber": "0x739b4e",
          "transactionHash": "0xe9d7ecf4789b988d1d569e4c1166a2d8d7b61122eadf95bc9e7fa4e8ca1c0a8f",
          "transactionIndex": "0x68",
          "logIndex": "0x9d",
          "removed": false
        },
        {
          "address": "0xc51306616a5253b1d8b52af3a1c536ea5fbc478c",
          "topics": [
            "0x4afcb4a87cdbd9974efdb92ee48bc8d7cd0ae4bf217004db3d080cbaee652ca7"
          ],
          "data": "0x0000000000000000000000000000000000000000000000000000000067967d900000000000000000000000000000000000000000000000000037d17c93b40d9c00000000000000000000000000000000000000000000000000001046141ab373",
          "blockHash": "0x74f0d9097c18fa03a0c8d791dfa71d2277446cde958c595a753c9ae842a8ad31",
          "blockNumber": "0x739b4e",
          "transactionHash": "0xe9d7ecf4789b988d1d569e4c1166a2d8d7b61122eadf95bc9e7fa4e8ca1c0a8f",
          "transactionIndex": "0x68",
          "logIndex": "0x9e",
          "removed": false
        }
      ],
      "logsBloom": "0x00000000000000000000000000000100400000000000000000000000000000000008000000000000000010000000000000002000000000004000000000000000000000000000000000000008000000000000000000000000000000000000000000000000000000000000000000000000020000000000000000000010000000000000000000000000000000000000400000000000010000000000010004000000000000000000000000000400000000004000000000000000000000001000000000000002000000800000000000000000000000000000080000000000000000000000000000000000010000000000000000000000400000000000000000000000",
      "type": "0x2",
      "transactionHash": "0xe9d7ecf4789b988d1d569e4c1166a2d8d7b61122eadf95bc9e7fa4e8ca1c0a8f",
      "transactionIndex": "0x68",
      "blockHash": "0x74f0d9097c18fa03a0c8d791dfa71d2277446cde958c595a753c9ae842a8ad31",
      "blockNumber": "0x739b4e",
      "gasUsed": "0x1a074",
      "effectiveGasPrice": "0x2945b69f0",
      "from": "0xc77f7fed3b5cc8249adc428c5f44c9063b9734b4",
      "to": "0xc51306616a5253b1d8b52af3a1c536ea5fbc478c",
      "contractAddress": null
    }
  ],
  "libraries": [],
  "pending": [],
  "returns": {},
  "timestamp": 1737915793,
  "chain": 11155111,
  "commit": "f5162e9"
}