{
  "transactions": [
    {
      "hash": "0xb46cbbbafe6da5fea5e45d263a8cf2e001e85921817453d5c4d44ccd63a50364",
      "transactionType": "CALL",
      "contractName": null,
      "contractAddress": "0xbf4a322f1496e5c3d34a9bcdb4c60567b38c7de2",
      "function": "sell(uint256)",
      "arguments": [
        "990790888034784221358"
      ],
      "transaction": {
        "from": "0xc77f7fed3b5cc8249adc428c5f44c9063b9734b4",
        "to": "0xbf4a322f1496e5c3d34a9bcdb4c60567b38c7de2",
        "gas": "0x16fea",
        "value": "0x0",
        "input": "0xe4849b32000000000000000000000000000000000000000000000035b5fc573b872398ae",
        "nonce": "0x8fd",
        "chainId": "0xaa36a7"
      },
      "additionalContracts": [],
      "isFixedGasLimit": false
    }
  ],
  "receipts": [
    {
      "status": "0x1",
      "cumulativeGasUsed": "0xfda35e",
      "logs": [
        {
          "address": "0xbf4a322f1496e5c3d34a9bcdb4c60567b38c7de2",
          "topics": [
            "0xddf252ad1be2c89b69c2b068fc378daa952ba7f163c4a11628f55a4df523b3ef",
            "0x000000000000000000000000c77f7fed3b5cc8249adc428c5f44c9063b9734b4",
            "0x0000000000000000000000000000000000000000000000000000000000000000"
          ],
          "data": "0x000000000000000000000000000000000000000000000035b5fc573b872398ae",
          "blockHash": "0x7002507d1759bdc2b50d86baef08bb662e4f412aed9d1433c7a3f75b7e0be603",
          "blockNumber": "0x725875",
          "transactionHash": "0xb46cbbbafe6da5fea5e45d263a8cf2e001e85921817453d5c4d44ccd63a50364",
          "transactionIndex": "0x53",
          "logIndex": "0xa3",
          "removed": false
        },
        {
          "address": "0xbf4a322f1496e5c3d34a9bcdb4c60567b38c7de2",
          "topics": [
            "0x4afcb4a87cdbd9974efdb92ee48bc8d7cd0ae4bf217004db3d080cbaee652ca7"
          ],
          "data": "0x00000000000000000000000000000000000000000000000000000000678717a800000000000000000000000000000000000000000000000000038f8cf186f41e0000000000000000000000000000000000000000000000000dc7e3fb27b40396",
          "blockHash": "0x7002507d1759bdc2b50d86baef08bb662e4f412aed9d1433c7a3f75b7e0be603",
          "blockNumber": "0x725875",
          "transactionHash": "0xb46cbbbafe6da5fea5e45d263a8cf2e001e85921817453d5c4d44ccd63a50364",
          "transactionIndex": "0x53",
          "logIndex": "0xa4",
          "removed": false
        }
      ],
      "logsBloom": "0x00000000000000000000000000000000000000000000000000000000000000000000000000000000000000000000000000000000000000004000000000000000000000000000000000000008000000000000001000000000000000000000000000000000020000000000000000000800020000000000000000000010000000000000000000000000000000000000000000000000000008000000010000000000000000000000000000000000000000004000000000000000000000000000000000000002000000800000000000001000000000000000080000000000000020000000000000000000000000000000000000000000000000000000000000000000",
      "type": "0x2",
      "transactionHash": "0xb46cbbbafe6da5fea5e45d263a8cf2e001e85921817453d5c4d44ccd63a50364",
      "transactionIndex": "0x53",
      "blockHash": "0x7002507d1759bdc2b50d86baef08bb662e4f412aed9d1433c7a3f75b7e0be603",
      "blockNumber": "0x725875",
      "gasUsed": "0xfb91",
      "effectiveGasPrice": "0x26967401",
      "from": "0xc77f7fed3b5cc8249adc428c5f44c9063b9734b4",
      "to": "0xbf4a322f1496e5c3d34a9bcdb4c60567b38c7de2",
      "contractAddress": null
    }
  ],
  "libraries": [],
  "pending": [],
  "returns": {},
  "timestamp": 1736906666,
  "chain": 11155111,
  "commit": "51a374b"
}