{
  "transactions": [
    {
      "hash": "0x4b6e5139391e7228886db8075f3afcb0e629f4e9f5cad4f0f08297dea9670cee",
      "transactionType": "CALL",
      "contractName": null,
      "contractAddress": "0x270e88f8683660553e8ba4eb2ad7c91a1710d769",
      "function": "sell(uint256)",
      "arguments": [
        "946423603428204638536"
      ],
      "transaction": {
        "from": "0xc77f7fed3b5cc8249adc428c5f44c9063b9734b4",
        "to": "0x270e88f8683660553e8ba4eb2ad7c91a1710d769",
        "gas": "0x16fec",
        "value": "0x0",
        "input": "0xe4849b320000000000000000000000000000000000000000000000334e4414f3674e7148",
        "nonce": "0x607",
        "chainId": "0xaa36a7"
      },
      "additionalContracts": [],
      "isFixedGasLimit": false
    }
  ],
  "receipts": [
    {
      "status": "0x1",
      "cumulativeGasUsed": "0x1996772",
      "logs": [
        {
          "address": "0x270e88f8683660553e8ba4eb2ad7c91a1710d769",
          "topics": [
            "0xddf252ad1be2c89b69c2b068fc378daa952ba7f163c4a11628f55a4df523b3ef",
            "0x000000000000000000000000c77f7fed3b5cc8249adc428c5f44c9063b9734b4",
            "0x0000000000000000000000000000000000000000000000000000000000000000"
          ],
          "data": "0x0000000000000000000000000000000000000000000000334e4414f3674e7148",
          "blockHash": "0xb4997ff9fb449f000a6f5e91bc10796289b1b6374940dacbf2c15acaec21ba1a",
          "blockNumber": "0x7252ce",
          "transactionHash": "0x4b6e5139391e7228886db8075f3afcb0e629f4e9f5cad4f0f08297dea9670cee",
          "transactionIndex": "0x65",
          "logIndex": "0xd6",
          "removed": false
        },
        {
          "address": "0x270e88f8683660553e8ba4eb2ad7c91a1710d769",
          "topics": [
            "0x4afcb4a87cdbd9974efdb92ee48bc8d7cd0ae4bf217004db3d080cbaee652ca7"
          ],
          "data": "0x000000000000000000000000000000000000000000000000000000006786d3b00000000000000000000000000000000000000000000000000003ba8c97987e390000000000000000000000000000000000000000000000000dc83dca83413c42",
          "blockHash": "0xb4997ff9fb449f000a6f5e91bc10796289b1b6374940dacbf2c15acaec21ba1a",
          "blockNumber": "0x7252ce",
          "transactionHash": "0x4b6e5139391e7228886db8075f3afcb0e629f4e9f5cad4f0f08297dea9670cee",
          "transactionIndex": "0x65",
          "logIndex": "0xd7",
          "removed": false
        }
      ],
      "logsBloom": "0x00000000000000000000000000000000000000000000000000000000000000000000000000000000000000000000000020000000000000004000000000000000000000000000000000000008000000000000000000000000000000000000000000000000020000000000000000000800020000000000000000000010000000000000000000010000000000000000000000000000000000000000010000000000000000000000000000000000000000004000000000000000000000000000000000000002000000800000000000000000000000000000080000008000000020000000000000000000000000000000000000000000000000000000000000000000",
      "type": "0x2",
      "transactionHash": "0x4b6e5139391e7228886db8075f3afcb0e629f4e9f5cad4f0f08297dea9670cee",
      "transactionIndex": "0x65",
      "blockHash": "0xb4997ff9fb449f000a6f5e91bc10796289b1b6374940dacbf2c15acaec21ba1a",
      "blockNumber": "0x7252ce",
      "gasUsed": "0xfb93",
      "effectiveGasPrice": "0x2a70d0c68",
      "from": "0xc77f7fed3b5cc8249adc428c5f44c9063b9734b4",
      "to": "0x270e88f8683660553e8ba4eb2ad7c91a1710d769",
      "contractAddress": null
    }
  ],
  "libraries": [],
  "pending": [],
  "returns": {},
  "timestamp": 1736889265,
  "chain": 11155111,
  "commit": "51a374b"
}