{
  "transactions": [
    {
      "hash": "0xf5c631bdf5256d818de6b6678e84b4efde08c6cb580aae40c21110eb0dbaee4e",
      "transactionType": "CALL",
      "contractName": null,
      "contractAddress": "0xbf4a322f1496e5c3d34a9bcdb4c60567b38c7de2",
      "function": "buy(address)",
      "arguments": [
        "0xC77f7fed3b5Cc8249aDc428c5F44C9063B9734b4"
      ],
      "transaction": {
        "from": "0xc77f7fed3b5cc8249adc428c5f44c9063b9734b4",
        "to": "0xbf4a322f1496e5c3d34a9bcdb4c60567b38c7de2",
        "gas": "0x1b309",
        "value": "0xde0b6b3a7640000",
        "input": "0xf088d547000000000000000000000000c77f7fed3b5cc8249adc428c5f44c9063b9734b4",
        "nonce": "0xc70",
        "chainId": "0xaa36a7"
      },
      "additionalContracts": [],
      "isFixedGasLimit": false
    }
  ],
  "receipts": [
    {
      "status": "0x1",
      "cumulativeGasUsed": "0xe43bf4",
      "logs": [
        {
          "address": "0xbf4a322f1496e5c3d34a9bcdb4c60567b38c7de2",
          "topics": [
            "0xddf252ad1be2c89b69c2b068fc378daa952ba7f163c4a11628f55a4df523b3ef",
            "0x0000000000000000000000000000000000000000000000000000000000000000",
            "0x000000000000000000000000c77f7fed3b5cc8249adc428c5f44c9063b9734b4"
          ],
          "data": "0x000000000000000000000000000000000000000000000034e694633dc1e5881a",
          "blockHash": "0x67aed6f3efdf06a4a7761a5af71a415278b59932c669e35ea3df53aa8f3f082e",
          "blockNumber": "0x725cae",
          "transactionHash": "0xf5c631bdf5256d818de6b6678e84b4efde08c6cb580aae40c21110eb0dbaee4e",
          "transactionIndex": "0x74",
          "logIndex": "0xb2",
          "removed": false
        },
        {
          "address": "0xbf4a322f1496e5c3d34a9bcdb4c60567b38c7de2",
          "topics": [
            "0xddf252ad1be2c89b69c2b068fc378daa952ba7f163c4a11628f55a4df523b3ef",
            "0x0000000000000000000000000000000000000000000000000000000000000000",
            "0x000000000000000000000000c77f7fed3b5cc8249adc428c5f44c9063b9734b4"
          ],
          "data": "0x000000000000000000000000000000000000000000000000291446681272ccd7",
          "blockHash": "0x67aed6f3efdf06a4a7761a5af71a415278b59932c669e35ea3df53aa8f3f082e",
          "blockNumber": "0x725cae",
          "transactionHash": "0xf5c631bdf5256d818de6b6678e84b4efde08c6cb580aae40c21110eb0dbaee4e",
          "transactionIndex": "0x74",
          "logIndex": "0xb3",
          "removed": false
        },
        {
          "address": "0xbf4a322f1496e5c3d34a9bcdb4c60567b38c7de2",
          "topics": [
            "0x4afcb4a87cdbd9974efdb92ee48bc8d7cd0ae4bf217004db3d080cbaee652ca7"
          ],
          "data": "0x0000000000000000000000000000000000000000000000000000000067874a9c00000000000000000000000000000000000000000000000000039ab218f222110000000000000000000000000000000000000000000000000de0b6b3a7640000",
          "blockHash": "0x67aed6f3efdf06a4a7761a5af71a415278b59932c669e35ea3df53aa8f3f082e",
          "blockNumber": "0x725cae",
          "transactionHash": "0xf5c631bdf5256d818de6b6678e84b4efde08c6cb580aae40c21110eb0dbaee4e",
          "transactionIndex": "0x74",
          "logIndex": "0xb4",
          "removed": false
        }
      ],
      "logsBloom": "0x00000000000000000000000000000000000000000000000000000000000000000000000000000000000000000000000000000000000000004000000000000000000000000000000000000008000000000000001000000000000000000000000000000000020000000000000000000800020000000000000000000010000000000000000000000000000000000000000000000000000008000000010000000000000000000000000000000000000000004000000000000000000000000000000000000002000000800000000000001000000000000000080000000000000020000000000000000000000000000000000000000000000000000000000000000000",
      "type": "0x2",
      "transactionHash": "0xf5c631bdf5256d818de6b6678e84b4efde08c6cb580aae40c21110eb0dbaee4e",
      "transactionIndex": "0x74",
      "blockHash": "0x67aed6f3efdf06a4a7761a5af71a415278b59932c669e35ea3df53aa8f3f082e",
      "blockNumber": "0x725cae",
      "gasUsed": "0x13af6",
      "effectiveGasPrice": "0x2367656de",
      "from": "0xc77f7fed3b5cc8249adc428c5f44c9063b9734b4",
      "to": "0xbf4a322f1496e5c3d34a9bcdb4c60567b38c7de2",
      "contractAddress": null
    }
  ],
  "libraries": [],
  "pending": [],
  "returns": {},
  "timestamp": 1736919709,
  "chain": 11155111,
  "commit": "51a374b"
}