{
  "transactions": [
    {
      "hash": "0xe48e149e6bb2bcd3f6235614db84a6768b845174603541ea4bf24fef326567fd",
      "transactionType": "CALL",
      "contractName": null,
      "contractAddress": "0x8aafd3ede9adb0ff97c7aebce82a919afb1c8764",
      "function": "sell(uint256)",
      "arguments": [
        "46439574"
      ],
      "transaction": {
        "from": "0xc77f7fed3b5cc8249adc428c5f44c9063b9734b4",
        "to": "0x8aafd3ede9adb0ff97c7aebce82a919afb1c8764",
        "gas": "0x15d88",
        "value": "0x0",
        "input": "0xe4849b320000000000000000000000000000000000000000000000000000000002c49c96",
        "nonce": "0x1601",
        "chainId": "0xaa36a7"
      },
      "additionalContracts": [],
      "isFixedGasLimit": false
    }
  ],
  "receipts": [
    {
      "status": "0x1",
      "cumulativeGasUsed": "0xab8196",
      "logs": [
        {
          "address": "0x8aafd3ede9adb0ff97c7aebce82a919afb1c8764",
          "topics": [
            "0xddf252ad1be2c89b69c2b068fc378daa952ba7f163c4a11628f55a4df523b3ef",
            "0x000000000000000000000000c77f7fed3b5cc8249adc428c5f44c9063b9734b4",
            "0x0000000000000000000000000000000000000000000000000000000000000000"
          ],
          "data": "0x0000000000000000000000000000000000000000000000000000000002bef15a",
          "blockHash": "0xb2fa4668a4b016ba2127c6c7b55541791c67f63e8e95075cd1d925be4958e81c",
          "blockNumber": "0x731d92",
          "transactionHash": "0xe48e149e6bb2bcd3f6235614db84a6768b845174603541ea4bf24fef326567fd",
          "transactionIndex": "0x6a",
          "logIndex": "0xb8",
          "removed": false
        },
        {
          "address": "0x8aafd3ede9adb0ff97c7aebce82a919afb1c8764",
          "topics": [
            "0xddf252ad1be2c89b69c2b068fc378daa952ba7f163c4a11628f55a4df523b3ef",
            "0x000000000000000000000000c77f7fed3b5cc8249adc428c5f44c9063b9734b4",
            "0x000000000000000000000000c77f7fed3b5cc8249adc428c5f44c9063b9734b4"
          ],
          "data": "0x000000000000000000000000000000000000000000000000000000000005ab3c",
          "blockHash": "0xb2fa4668a4b016ba2127c6c7b55541791c67f63e8e95075cd1d925be4958e81c",
          "blockNumber": "0x731d92",
          "transactionHash": "0xe48e149e6bb2bcd3f6235614db84a6768b845174603541ea4bf24fef326567fd",
          "transactionIndex": "0x6a",
          "logIndex": "0xb9",
          "removed": false
        },
        {
          "address": "0x8aafd3ede9adb0ff97c7aebce82a919afb1c8764",
          "topics": [
            "0x4afcb4a87cdbd9974efdb92ee48bc8d7cd0ae4bf217004db3d080cbaee652ca7"
          ],
          "data": "0x0000000000000000000000000000000000000000000000000000000067905fc0000000000000000000000000000000000000000000000000001404c9977d1599000000000000000000000000000000000000000000000000000000000003fe2c",
          "blockHash": "0xb2fa4668a4b016ba2127c6c7b55541791c67f63e8e95075cd1d925be4958e81c",
          "blockNumber": "0x731d92",
          "transactionHash": "0xe48e149e6bb2bcd3f6235614db84a6768b845174603541ea4bf24fef326567fd",
          "transactionIndex": "0x6a",
          "logIndex": "0xba",
          "removed": false
        }
      ],
      "logsBloom": "0x00000000000000000000000000000000000000000600000000000000000000000000000000000000000000000000000000000000000000004000000000000000000000000000004000000008000000000000000000000000000000000000000000000000020000000000000000000800020000000000000000000010000000000000000000000000000000000000000000000000000000000000010000000000000000000000000000000000000000004000000000000000000000000000000000000002000000800000000000000000000000000000080000000000000020000000000000000000000000000000000000000000000000000000000000000000",
      "type": "0x2",
      "transactionHash": "0xe48e149e6bb2bcd3f6235614db84a6768b845174603541ea4bf24fef326567fd",
      "transactionIndex": "0x6a",
      "blockHash": "0xb2fa4668a4b016ba2127c6c7b55541791c67f63e8e95075cd1d925be4958e81c",
      "blockNumber": "0x731d92",
      "gasUsed": "0xfd0f",
      "effectiveGasPrice": "0x65e7983d",
      "from": "0xc77f7fed3b5cc8249adc428c5f44c9063b9734b4",
      "to": "0x8aafd3ede9adb0ff97c7aebce82a919afb1c8764",
      "contractAddress": null
    }
  ],
  "libraries": [],
  "pending": [],
  "returns": {},
  "timestamp": 1737514946,
  "chain": 11155111,
  "commit": "1d2fb70"
}