{
  "transactions": [
    {
      "hash": "0x9b69900d1a7c03240b36dff313d095750bc226be1f85c5173de8026f40a1a12e",
      "transactionType": "CALL",
      "contractName": null,
      "contractAddress": "0x8aafd3ede9adb0ff97c7aebce82a919afb1c8764",
      "function": "sell(uint256)",
      "arguments": [
        "162615996097152963316"
      ],
      "transaction": {
        "from": "0xc77f7fed3b5cc8249adc428c5f44c9063b9734b4",
        "to": "0x8aafd3ede9adb0ff97c7aebce82a919afb1c8764",
        "gas": "0x17270",
        "value": "0x0",
        "input": "0xe4849b32000000000000000000000000000000000000000000000008d0c012dfb71c52f4",
        "nonce": "0x1694",
        "chainId": "0xaa36a7"
      },
      "additionalContracts": [],
      "isFixedGasLimit": false
    }
  ],
  "receipts": [
    {
      "status": "0x1",
      "cumulativeGasUsed": "0x122d0cc",
      "logs": [
        {
          "address": "0x8aafd3ede9adb0ff97c7aebce82a919afb1c8764",
          "topics": [
            "0xddf252ad1be2c89b69c2b068fc378daa952ba7f163c4a11628f55a4df523b3ef",
            "0x000000000000000000000000c77f7fed3b5cc8249adc428c5f44c9063b9734b4",
            "0x0000000000000000000000000000000000000000000000000000000000000000"
          ],
          "data": "0x000000000000000000000000000000000000000000000008beb23fc765c614da",
          "blockHash": "0xa9bcbed2f3d2f7245d9402f59039f4ce0344ef3c039808f4b91e36f580551d1e",
          "blockNumber": "0x731e4a",
          "transactionHash": "0x9b69900d1a7c03240b36dff313d095750bc226be1f85c5173de8026f40a1a12e",
          "transactionIndex": "0x9d",
          "logIndex": "0x113",
          "removed": false
        },
        {
          "address": "0x8aafd3ede9adb0ff97c7aebce82a919afb1c8764",
          "topics": [
            "0xddf252ad1be2c89b69c2b068fc378daa952ba7f163c4a11628f55a4df523b3ef",
            "0x000000000000000000000000c77f7fed3b5cc8249adc428c5f44c9063b9734b4",
            "0x000000000000000000000000c77f7fed3b5cc8249adc428c5f44c9063b9734b4"
          ],
          "data": "0x000000000000000000000000000000000000000000000000120dd31851563e1a",
          "blockHash": "0xa9bcbed2f3d2f7245d9402f59039f4ce0344ef3c039808f4b91e36f580551d1e",
          "blockNumber": "0x731e4a",
          "transactionHash": "0x9b69900d1a7c03240b36dff313d095750bc226be1f85c5173de8026f40a1a12e",
          "transactionIndex": "0x9d",
          "logIndex": "0x114",
          "removed": false
        },
        {
          "address": "0x8aafd3ede9adb0ff97c7aebce82a919afb1c8764",
          "topics": [
            "0x4afcb4a87cdbd9974efdb92ee48bc8d7cd0ae4bf217004db3d080cbaee652ca7"
          ],
          "data": "0x00000000000000000000000000000000000000000000000000000000679068600000000000000000000000000000000000000000000000000015cc7749a651d30000000000000000000000000000000000000000000000000dcc2eb5a63b2ab0",
          "blockHash": "0xa9bcbed2f3d2f7245d9402f59039f4ce0344ef3c039808f4b91e36f580551d1e",
          "blockNumber": "0x731e4a",
          "transactionHash": "0x9b69900d1a7c03240b36dff313d095750bc226be1f85c5173de8026f40a1a12e",
          "transactionIndex": "0x9d",
          "logIndex": "0x115",
          "removed": false
        }
      ],
      "logsBloom": "0x00000000000000000000000000000000000000000600000000000000000000000000000000000000000000000000000000000000000000004000000000000000000000000000004000000008000000000000000000000000000000000000000000000000020000000000000000000800020000000000000000000010000000000000000000000000000000000000000000000000000000000000010000000000000000000000000000000000000000004000000000000000000000000000000000000002000000800000000000000000000000000000080000000000000020000000000000000000000000000000000000000000000000000000000000000000",
      "type": "0x2",
      "transactionHash": "0x9b69900d1a7c03240b36dff313d095750bc226be1f85c5173de8026f40a1a12e",
      "transactionIndex": "0x9d",
      "blockHash": "0xa9bcbed2f3d2f7245d9402f59039f4ce0344ef3c039808f4b91e36f580551d1e",
      "blockNumber": "0x731e4a",
      "gasUsed": "0xfd4b",
      "effectiveGasPrice": "0x5285b214",
      "from": "0xc77f7fed3b5cc8249adc428c5f44c9063b9734b4",
      "to": "0x8aafd3ede9adb0ff97c7aebce82a919afb1c8764",
      "contractAddress": null
    }
  ],
  "libraries": [],
  "pending": [],
  "returns": {},
  "timestamp": 1737517153,
  "chain": 11155111,
  "commit": "1d2fb70"
}