{
  "transactions": [
    {
      "hash": "0xa8c1f55525222d2821ce4aa7fe17f57161f0289a847281fa3cb555c179487cf8",
      "transactionType": "CALL",
      "contractName": null,
      "contractAddress": "0x8aafd3ede9adb0ff97c7aebce82a919afb1c8764",
      "function": "sell(uint256)",
      "arguments": [
        "5529293748705418256"
      ],
      "transaction": {
        "from": "0xc77f7fed3b5cc8249adc428c5f44c9063b9734b4",
        "to": "0x8aafd3ede9adb0ff97c7aebce82a919afb1c8764",
        "gas": "0x15dca",
        "value": "0x0",
        "input": "0xe4849b320000000000000000000000000000000000000000000000004cbbff5e765fdc10",
        "nonce": "0x116e",
        "chainId": "0xaa36a7"
      },
      "additionalContracts": [],
      "isFixedGasLimit": false
    }
  ],
  "receipts": [
    {
      "status": "0x1",
      "cumulativeGasUsed": "0xb84b70",
      "logs": [
        {
          "address": "0x8aafd3ede9adb0ff97c7aebce82a919afb1c8764",
          "topics": [
            "0xddf252ad1be2c89b69c2b068fc378daa952ba7f163c4a11628f55a4df523b3ef",
            "0x000000000000000000000000c77f7fed3b5cc8249adc428c5f44c9063b9734b4",
            "0x0000000000000000000000000000000000000000000000000000000000000000"
          ],
          "data": "0x0000000000000000000000000000000000000000000000004c1ed876485f17be",
          "blockHash": "0xa774e89657dcebeb54ae3cb6050f62dc9ccb561cd356c2e9288ab0516f1168b2",
          "blockNumber": "0x73182d",
          "transactionHash": "0xa8c1f55525222d2821ce4aa7fe17f57161f0289a847281fa3cb555c179487cf8",
          "transactionIndex": "0x88",
          "logIndex": "0xcf",
          "removed": false
        },
        {
          "address": "0x8aafd3ede9adb0ff97c7aebce82a919afb1c8764",
          "topics": [
            "0xddf252ad1be2c89b69c2b068fc378daa952ba7f163c4a11628f55a4df523b3ef",
            "0x000000000000000000000000c77f7fed3b5cc8249adc428c5f44c9063b9734b4",
            "0x000000000000000000000000c77f7fed3b5cc8249adc428c5f44c9063b9734b4"
          ],
          "data": "0x000000000000000000000000000000000000000000000000009d26e82e00c452",
          "blockHash": "0xa774e89657dcebeb54ae3cb6050f62dc9ccb561cd356c2e9288ab0516f1168b2",
          "blockNumber": "0x73182d",
          "transactionHash": "0xa8c1f55525222d2821ce4aa7fe17f57161f0289a847281fa3cb555c179487cf8",
          "transactionIndex": "0x88",
          "logIndex": "0xd0",
          "removed": false
        },
        {
          "address": "0x8aafd3ede9adb0ff97c7aebce82a919afb1c8764",
          "topics": [
            "0x4afcb4a87cdbd9974efdb92ee48bc8d7cd0ae4bf217004db3d080cbaee652ca7"
          ],
          "data": "0x0000000000000000000000000000000000000000000000000000000067901ee000000000000000000000000000000000000000000000000000051c235df0b43d000000000000000000000000000000000000000000000000001c4108c71ad0cf",
          "blockHash": "0xa774e89657dcebeb54ae3cb6050f62dc9ccb561cd356c2e9288ab0516f1168b2",
          "blockNumber": "0x73182d",
          "transactionHash": "0xa8c1f55525222d2821ce4aa7fe17f57161f0289a847281fa3cb555c179487cf8",
          "transactionIndex": "0x88",
          "logIndex": "0xd1",
          "removed": false
        }
      ],
      "logsBloom": "0x00000000000000000000000000000000000000000600000000000000000000000000000000000000000000000000000000000000000000004000000000000000000000000000004000000008000000000000000000000000000000000000000000000000020000000000000000000800020000000000000000000010000000000000000000000000000000000000000000000000000000000000010000000000000000000000000000000000000000004000000000000000000000000000000000000002000000800000000000000000000000000000080000000000000020000000000000000000000000000000000000000000000000000000000000000000",
      "type": "0x2",
      "transactionHash": "0xa8c1f55525222d2821ce4aa7fe17f57161f0289a847281fa3cb555c179487cf8",
      "transactionIndex": "0x88",
      "blockHash": "0xa774e89657dcebeb54ae3cb6050f62dc9ccb561cd356c2e9288ab0516f1168b2",
      "blockNumber": "0x73182d",
      "gasUsed": "0xfd3f",
      "effectiveGasPrice": "0x393fa23b",
      "from": "0xc77f7fed3b5cc8249adc428c5f44c9063b9734b4",
      "to": "0x8aafd3ede9adb0ff97c7aebce82a919afb1c8764",
      "contractAddress": null
    }
  ],
  "libraries": [],
  "pending": [],
  "returns": {},
  "timestamp": 1737498336,
  "chain": 11155111,
  "commit": "1d2fb70"
}