{
  "transactions": [
    {
      "hash": "0xabef1791bdad54dffc4591dafd318b57638322e839fd6cedf96ce0f06869cce2",
      "transactionType": "CALL",
      "contractName": null,
      "contractAddress": "0x5eb9cc76c3506942c1c0ead70e877dd5e4f00cb0",
      "function": "buy(address)",
      "arguments": [
        "0xC77f7fed3b5Cc8249aDc428c5F44C9063B9734b4"
      ],
      "transaction": {
        "from": "0xc77f7fed3b5cc8249adc428c5f44c9063b9734b4",
        "to": "0x5eb9cc76c3506942c1c0ead70e877dd5e4f00cb0",
        "gas": "0x1b30c",
        "value": "0xde0b6b3a7640000",
        "input": "0xf088d547000000000000000000000000c77f7fed3b5cc8249adc428c5f44c9063b9734b4",
        "nonce": "0x448",
        "chainId": "0xaa36a7"
      },
      "additionalContracts": [],
      "isFixedGasLimit": false
    }
  ],
  "receipts": [
    {
      "status": "0x1",
      "cumulativeGasUsed": "0x16ab9d5",
      "logs": [
        {
          "address": "0x5eb9cc76c3506942c1c0ead70e877dd5e4f00cb0",
          "topics": [
            "0xddf252ad1be2c89b69c2b068fc378daa952ba7f163c4a11628f55a4df523b3ef",
            "0x0000000000000000000000000000000000000000000000000000000000000000",
            "0x000000000000000000000000c77f7fed3b5cc8249adc428c5f44c9063b9734b4"
          ],
          "data": "0x00000000000000000000000000000000000000000000003574d99510f635656f",
          "blockHash": "0x0c59a8373b47e34cb03998d518cf4eaf51d3de427025a4dfec8e7ac7b2e7a000",
          "blockNumber": "0x725068",
          "transactionHash": "0xabef1791bdad54dffc4591dafd318b57638322e839fd6cedf96ce0f06869cce2",
          "transactionIndex": "0xbd",
          "logIndex": "0x134",
          "removed": false
        },
        {
          "address": "0x5eb9cc76c3506942c1c0ead70e877dd5e4f00cb0",
          "topics": [
            "0xddf252ad1be2c89b69c2b068fc378daa952ba7f163c4a11628f55a4df523b3ef",
            "0x0000000000000000000000000000000000000000000000000000000000000000",
            "0x000000000000000000000000c77f7fed3b5cc8249adc428c5f44c9063b9734b4"
          ],
          "data": "0x0000000000000000000000000000000000000000000000002982c0b4dc123568",
          "blockHash": "0x0c59a8373b47e34cb03998d518cf4eaf51d3de427025a4dfec8e7ac7b2e7a000",
          "blockNumber": "0x725068",
          "transactionHash": "0xabef1791bdad54dffc4591dafd318b57638322e839fd6cedf96ce0f06869cce2",
          "transactionIndex": "0xbd",
          "logIndex": "0x135",
          "removed": false
        },
        {
          "address": "0x5eb9cc76c3506942c1c0ead70e877dd5e4f00cb0",
          "topics": [
            "0x4afcb4a87cdbd9974efdb92ee48bc8d7cd0ae4bf217004db3d080cbaee652ca7"
          ],
          "data": "0x000000000000000000000000000000000000000000000000000000006786b6ac0000000000000000000000000000000000000000000000000003911822b6919b0000000000000000000000000000000000000000000000000de0b6b3a7640000",
          "blockHash": "0x0c59a8373b47e34cb03998d518cf4eaf51d3de427025a4dfec8e7ac7b2e7a000",
          "blockNumber": "0x725068",
          "transactionHash": "0xabef1791bdad54dffc4591dafd318b57638322e839fd6cedf96ce0f06869cce2",
          "transactionIndex": "0xbd",
          "logIndex": "0x136",
          "removed": false
        }
      ],
      "logsBloom": "0x00000000000000000000000000000000000000000000000000000000000000000000000000000000000000000000000000000000000000004000000000000000000000000000000000000008000000000000000000000000000000000000000000000000020000000000000004000800020000000000000000000010000000000000000000000000000000000000000000000000000000000000010000000000000000000000000000000000000000004000000000000000000000000000020000000002000000800000008000000000000000000000080000000000000020000000000000000000000000000000000000000000000000000000000000000000",
      "type": "0x2",
      "transactionHash": "0xabef1791bdad54dffc4591dafd318b57638322e839fd6cedf96ce0f06869cce2",
      "transactionIndex": "0xbd",
      "blockHash": "0x0c59a8373b47e34cb03998d518cf4eaf51d3de427025a4dfec8e7ac7b2e7a000",
      "blockNumber": "0x725068",
      "gasUsed": "0x13af8",
      "effectiveGasPrice": "0x25879ddcb",
      "from": "0xc77f7fed3b5cc8249adc428c5f44c9063b9734b4",
      "to": "0x5eb9cc76c3506942c1c0ead70e877dd5e4f00cb0",
      "contractAddress": null
    }
  ],
  "libraries": [],
  "pending": [],
  "returns": {},
  "timestamp": 1736881837,
  "chain": 11155111,
  "commit": "51a374b"
}