{
  "transactions": [
    {
      "hash": "0x0e0062840a13995e3be3035140de428fc63b5155103c1133cb9d47551e4ca8f9",
      "transactionType": "CALL",
      "contractName": null,
      "contractAddress": "0xbf4a322f1496e5c3d34a9bcdb4c60567b38c7de2",
      "function": "sell(uint256)",
      "arguments": [
        "978430889679598419150"
      ],
      "transaction": {
        "from": "0xc77f7fed3b5cc8249adc428c5f44c9063b9734b4",
        "to": "0xbf4a322f1496e5c3d34a9bcdb4c60567b38c7de2",
        "gas": "0x16fea",
        "value": "0x0",
        "input": "0xe4849b320000000000000000000000000000000000000000000000350a74ce36ede07cce",
        "nonce": "0xc8d",
        "chainId": "0xaa36a7"
      },
      "additionalContracts": [],
      "isFixedGasLimit": false
    }
  ],
  "receipts": [
    {
      "status": "0x1",
      "cumulativeGasUsed": "0xe1da01",
      "logs": [
        {
          "address": "0xbf4a322f1496e5c3d34a9bcdb4c60567b38c7de2",
          "topics": [
            "0xddf252ad1be2c89b69c2b068fc378daa952ba7f163c4a11628f55a4df523b3ef",
            "0x000000000000000000000000c77f7fed3b5cc8249adc428c5f44c9063b9734b4",
            "0x0000000000000000000000000000000000000000000000000000000000000000"
          ],
          "data": "0x0000000000000000000000000000000000000000000000350a74ce36ede07cce",
          "blockHash": "0xcd843ea40e1ea06f6925aab9b93956a483203ac569dc1ff2b1a94dcd3f655688",
          "blockNumber": "0x725cd2",
          "transactionHash": "0x0e0062840a13995e3be3035140de428fc63b5155103c1133cb9d47551e4ca8f9",
          "transactionIndex": "0x52",
          "logIndex": "0x9f",
          "removed": false
        },
        {
          "address": "0xbf4a322f1496e5c3d34a9bcdb4c60567b38c7de2",
          "topics": [
            "0x4afcb4a87cdbd9974efdb92ee48bc8d7cd0ae4bf217004db3d080cbaee652ca7"
          ],
          "data": "0x0000000000000000000000000000000000000000000000000000000067874c4c00000000000000000000000000000000000000000000000000039b10bc7ee5510000000000000000000000000000000000000000000000000dc7e3de6b07518c",
          "blockHash": "0xcd843ea40e1ea06f6925aab9b93956a483203ac569dc1ff2b1a94dcd3f655688",
          "blockNumber": "0x725cd2",
          "transactionHash": "0x0e0062840a13995e3be3035140de428fc63b5155103c1133cb9d47551e4ca8f9",
          "transactionIndex": "0x52",
          "logIndex": "0xa0",
          "removed": false
        }
      ],
      "logsBloom": "0x00000000000000000000000000000000000000000000000000000000000000000000000000000000000000000000000000000000000000004000000000000000000000000000000000000008000000000000001000000000000000000000000000000000020000000000000000000800020000000000000000000010000000000000000000000000000000000000000000000000000008000000010000000000000000000000000000000000000000004000000000000000000000000000000000000002000000800000000000001000000000000000080000000000000020000000000000000000000000000000000000000000000000000000000000000000",
      "type": "0x2",
      "transactionHash": "0x0e0062840a13995e3be3035140de428fc63b5155103c1133cb9d47551e4ca8f9",
      "transactionIndex": "0x52",
      "blockHash": "0xcd843ea40e1ea06f6925aab9b93956a483203ac569dc1ff2b1a94dcd3f655688",
      "blockNumber": "0x725cd2",
      "gasUsed": "0xfb91",
      "effectiveGasPrice": "0x2920a52b4",
      "from": "0xc77f7fed3b5cc8249adc428c5f44c9063b9734b4",
      "to": "0xbf4a322f1496e5c3d34a9bcdb4c60567b38c7de2",
      "contractAddress": null
    }
  ],
  "libraries": [],
  "pending": [],
  "returns": {},
  "timestamp": 1736920141,
  "chain": 11155111,
  "commit": "51a374b"
}