{
  "transactions": [
    {
      "hash": "0xe7806a3375e193e72923a49fceda6f529d24e601bfb8a46d488789d0501c4159",
      "transactionType": "CALL",
      "contractName": null,
      "contractAddress": "0xbf4a322f1496e5c3d34a9bcdb4c60567b38c7de2",
      "function": "sell(uint256)",
      "arguments": [
        "975096388660346692786"
      ],
      "transaction": {
        "from": "0xc77f7fed3b5cc8249adc428c5f44c9063b9734b4",
        "to": "0xbf4a322f1496e5c3d34a9bcdb4c60567b38c7de2",
        "gas": "0x16fea",
        "value": "0x0",
        "input": "0xe4849b32000000000000000000000000000000000000000000000034dc2e47345a3324b2",
        "nonce": "0xd87",
        "chainId": "0xaa36a7"
      },
      "additionalContracts": [],
      "isFixedGasLimit": false
    }
  ],
  "receipts": [
    {
      "status": "0x1",
      "cumulativeGasUsed": "0xebab3a",
      "logs": [
        {
          "address": "0xbf4a322f1496e5c3d34a9bcdb4c60567b38c7de2",
          "topics": [
            "0xddf252ad1be2c89b69c2b068fc378daa952ba7f163c4a11628f55a4df523b3ef",
            "0x000000000000000000000000c77f7fed3b5cc8249adc428c5f44c9063b9734b4",
            "0x0000000000000000000000000000000000000000000000000000000000000000"
          ],
          "data": "0x000000000000000000000000000000000000000000000034dc2e47345a3324b2",
          "blockHash": "0x96d48b405b69bef951fc0d39e444d36607e59fa59c9587c5e466beffedbd775b",
          "blockNumber": "0x726659",
          "transactionHash": "0xe7806a3375e193e72923a49fceda6f529d24e601bfb8a46d488789d0501c4159",
          "transactionIndex": "0x7c",
          "logIndex": "0xdc",
          "removed": false
        },
        {
          "address": "0xbf4a322f1496e5c3d34a9bcdb4c60567b38c7de2",
          "topics": [
            "0x4afcb4a87cdbd9974efdb92ee48bc8d7cd0ae4bf217004db3d080cbaee652ca7"
          ],
          "data": "0x000000000000000000000000000000000000000000000000000000006787bedc00000000000000000000000000000000000000000000000000039e38cbf9606d0000000000000000000000000000000000000000000000000dc7e3d6aa49c0f6",
          "blockHash": "0x96d48b405b69bef951fc0d39e444d36607e59fa59c9587c5e466beffedbd775b",
          "blockNumber": "0x726659",
          "transactionHash": "0xe7806a3375e193e72923a49fceda6f529d24e601bfb8a46d488789d0501c4159",
          "transactionIndex": "0x7c",
          "logIndex": "0xdd",
          "removed": false
        }
      ],
      "logsBloom": "0x00000000000000000000000000000000000000000000000000000000000000000000000000000000000000000000000000000000000000004000000000000000000000000000000000000008000000000000001000000000000000000000000000000000020000000000000000000800020000000000000000000010000000000000000000000000000000000000000000000000000008000000010000000000000000000000000000000000000000004000000000000000000000000000000000000002000000800000000000001000000000000000080000000000000020000000000000000000000000000000000000000000000000000000000000000000",
      "type": "0x2",
      "transactionHash": "0xe7806a3375e193e72923a49fceda6f529d24e601bfb8a46d488789d0501c4159",
      "transactionIndex": "0x7c",
      "blockHash": "0x96d48b405b69bef951fc0d39e444d36607e59fa59c9587c5e466beffedbd775b",
      "blockNumber": "0x726659",
      "gasUsed": "0xfb91",
      "effectiveGasPrice": "0x8de366cd",
      "from": "0xc77f7fed3b5cc8249adc428c5f44c9063b9734b4",
      "to": "0xbf4a322f1496e5c3d34a9bcdb4c60567b38c7de2",
      "contractAddress": null
    }
  ],
  "libraries": [],
  "pending": [],
  "returns": {},
  "timestamp": 1736949469,
  "chain": 11155111,
  "commit": "51a374b"
}