{
  "transactions": [
    {
      "hash": "0xab763fb421142145dcde76b8ad8cfb9f5b76bdb009d7eb69bf76f4c7de12d8dd",
      "transactionType": "CALL",
      "contractName": null,
      "contractAddress": "0x5eb9cc76c3506942c1c0ead70e877dd5e4f00cb0",
      "function": "sell(uint256)",
      "arguments": [
        "989092350176771309510"
      ],
      "transaction": {
        "from": "0xc77f7fed3b5cc8249adc428c5f44c9063b9734b4",
        "to": "0x5eb9cc76c3506942c1c0ead70e877dd5e4f00cb0",
        "gas": "0x16fec",
        "value": "0x0",
        "input": "0xe4849b320000000000000000000000000000000000000000000000359e69ec0cc6b9ffc6",
        "nonce": "0x431",
        "chainId": "0xaa36a7"
      },
      "additionalContracts": [],
      "isFixedGasLimit": false
    }
  ],
  "receipts": [
    {
      "status": "0x1",
      "cumulativeGasUsed": "0xa1b98d",
      "logs": [
        {
          "address": "0x5eb9cc76c3506942c1c0ead70e877dd5e4f00cb0",
          "topics": [
            "0xddf252ad1be2c89b69c2b068fc378daa952ba7f163c4a11628f55a4df523b3ef",
            "0x000000000000000000000000c77f7fed3b5cc8249adc428c5f44c9063b9734b4",
            "0x0000000000000000000000000000000000000000000000000000000000000000"
          ],
          "data": "0x0000000000000000000000000000000000000000000000359e69ec0cc6b9ffc6",
          "blockHash": "0xac9131b0e2cd51a43a191843e52316cf68fa7a0ce5cc7e65f216880b2d5d06e0",
          "blockNumber": "0x72504a",
          "transactionHash": "0xab763fb421142145dcde76b8ad8cfb9f5b76bdb009d7eb69bf76f4c7de12d8dd",
          "transactionIndex": "0x69",
          "logIndex": "0x97",
          "removed": false
        },
        {
          "address": "0x5eb9cc76c3506942c1c0ead70e877dd5e4f00cb0",
          "topics": [
            "0x4afcb4a87cdbd9974efdb92ee48bc8d7cd0ae4bf217004db3d080cbaee652ca7"
          ],
          "data": "0x000000000000000000000000000000000000000000000000000000006786b5440000000000000000000000000000000000000000000000000003911747aa63be0000000000000000000000000000000000000000000000000dc7db1331d9d620",
          "blockHash": "0xac9131b0e2cd51a43a191843e52316cf68fa7a0ce5cc7e65f216880b2d5d06e0",
          "blockNumber": "0x72504a",
          "transactionHash": "0xab763fb421142145dcde76b8ad8cfb9f5b76bdb009d7eb69bf76f4c7de12d8dd",
          "transactionIndex": "0x69",
          "logIndex": "0x98",
          "removed": false
        }
      ],
      "logsBloom": "0x00000000000000000000000000000000000000000000000000000000000000000000000000000000000000000000000000000000000000004000000000000000000000000000000000000008000000000000000000000000000000000000000000000000020000000000000004000800020000000000000000000010000000000000000000000000000000000000000000000000000000000000010000000000000000000000000000000000000000004000000000000000000000000000020000000002000000800000008000000000000000000000080000000000000020000000000000000000000000000000000000000000000000000000000000000000",
      "type": "0x2",
      "transactionHash": "0xab763fb421142145dcde76b8ad8cfb9f5b76bdb009d7eb69bf76f4c7de12d8dd",
      "transactionIndex": "0x69",
      "blockHash": "0xac9131b0e2cd51a43a191843e52316cf68fa7a0ce5cc7e65f216880b2d5d06e0",
      "blockNumber": "0x72504a",
      "gasUsed": "0xfb93",
      "effectiveGasPrice": "0x27f7864be",
      "from": "0xc77f7fed3b5cc8249adc428c5f44c9063b9734b4",
      "to": "0x5eb9cc76c3506942c1c0ead70e877dd5e4f00cb0",
      "contractAddress": null
    }
  ],
  "libraries": [],
  "pending": [],
  "returns": {},
  "timestamp": 1736881477,
  "chain": 11155111,
  "commit": "51a374b"
}