{
  "transactions": [
    {
      "hash": "0x81fa45746c31c71da896652b75dc4234e88503a99f2cbd9ccd316cdb262ab683",
      "transactionType": "CALL",
      "contractName": null,
      "contractAddress": "0xbf4a322f1496e5c3d34a9bcdb4c60567b38c7de2",
      "function": "sell(uint256)",
      "arguments": [
        "987344519702606745592"
      ],
      "transaction": {
        "from": "0xc77f7fed3b5cc8249adc428c5f44c9063b9734b4",
        "to": "0xbf4a322f1496e5c3d34a9bcdb4c60567b38c7de2",
        "gas": "0x16fea",
        "value": "0x0",
        "input": "0xe4849b320000000000000000000000000000000000000000000000358628617e7a8b8ff8",
        "nonce": "0x9f9",
        "chainId": "0xaa36a7"
      },
      "additionalContracts": [],
      "isFixedGasLimit": false
    }
  ],
  "receipts": [
    {
      "status": "0x1",
      "cumulativeGasUsed": "0x136e36a",
      "logs": [
        {
          "address": "0xbf4a322f1496e5c3d34a9bcdb4c60567b38c7de2",
          "topics": [
            "0xddf252ad1be2c89b69c2b068fc378daa952ba7f163c4a11628f55a4df523b3ef",
            "0x000000000000000000000000c77f7fed3b5cc8249adc428c5f44c9063b9734b4",
            "0x0000000000000000000000000000000000000000000000000000000000000000"
          ],
          "data": "0x0000000000000000000000000000000000000000000000358628617e7a8b8ff8",
          "blockHash": "0x7892dd7100536c9e79b2e7de061a5c0968a6ed779c1f0122e84b65740d1f698f",
          "blockNumber": "0x7259af",
          "transactionHash": "0x81fa45746c31c71da896652b75dc4234e88503a99f2cbd9ccd316cdb262ab683",
          "transactionIndex": "0x4f",
          "logIndex": "0x8b",
          "removed": false
        },
        {
          "address": "0xbf4a322f1496e5c3d34a9bcdb4c60567b38c7de2",
          "topics": [
            "0x4afcb4a87cdbd9974efdb92ee48bc8d7cd0ae4bf217004db3d080cbaee652ca7"
          ],
          "data": "0x0000000000000000000000000000000000000000000000000000000067872678000000000000000000000000000000000000000000000000000392bb769bff300000000000000000000000000000000000000000000000000dc7e3f324732b9a",
          "blockHash": "0x7892dd7100536c9e79b2e7de061a5c0968a6ed779c1f0122e84b65740d1f698f",
          "blockNumber": "0x7259af",
          "transactionHash": "0x81fa45746c31c71da896652b75dc4234e88503a99f2cbd9ccd316cdb262ab683",
          "transactionIndex": "0x4f",
          "logIndex": "0x8c",
          "removed": false
        }
      ],
      "logsBloom": "0x00000000000000000000000000000000000000000000000000000000000000000000000000000000000000000000000000000000000000004000000000000000000000000000000000000008000000000000001000000000000000000000000000000000020000000000000000000800020000000000000000000010000000000000000000000000000000000000000000000000000008000000010000000000000000000000000000000000000000004000000000000000000000000000000000000002000000800000000000001000000000000000080000000000000020000000000000000000000000000000000000000000000000000000000000000000",
      "type": "0x2",
      "transactionHash": "0x81fa45746c31c71da896652b75dc4234e88503a99f2cbd9ccd316cdb262ab683",
      "transactionIndex": "0x4f",
      "blockHash": "0x7892dd7100536c9e79b2e7de061a5c0968a6ed779c1f0122e84b65740d1f698f",
      "blockNumber": "0x7259af",
      "gasUsed": "0xfb91",
      "effectiveGasPrice": "0x33f61db43",
      "from": "0xc77f7fed3b5cc8249adc428c5f44c9063b9734b4",
      "to": "0xbf4a322f1496e5c3d34a9bcdb4c60567b38c7de2",
      "contractAddress": null
    }
  ],
  "libraries": [],
  "pending": [],
  "returns": {},
  "timestamp": 1736910457,
  "chain": 11155111,
  "commit": "51a374b"
}