{
  "transactions": [
    {
      "hash": "0x33bcef380d4844bc3514bbfe326c8374e0ef02bb7e74acec48d2e285c783303b",
      "transactionType": "CALL",
      "contractName": null,
      "contractAddress": "0x5eb9cc76c3506942c1c0ead70e877dd5e4f00cb0",
      "function": "buy(address)",
      "arguments": [
        "0xC77f7fed3b5Cc8249aDc428c5F44C9063B9734b4"
      ],
      "transaction": {
        "from": "0xc77f7fed3b5cc8249adc428c5f44c9063b9734b4",
        "to": "0x5eb9cc76c3506942c1c0ead70e877dd5e4f00cb0",
        "gas": "0x1b30c",
        "value": "0xde0b6b3a7640000",
        "input": "0xf088d547000000000000000000000000c77f7fed3b5cc8249adc428c5f44c9063b9734b4",
        "nonce": "0x452",
        "chainId": "0xaa36a7"
      },
      "additionalContracts": [],
      "isFixedGasLimit": false
    }
  ],
  "receipts": [
    {
      "status": "0x1",
      "cumulativeGasUsed": "0xbe26c5",
      "logs": [
        {
          "address": "0x5eb9cc76c3506942c1c0ead70e877dd5e4f00cb0",
          "topics": [
            "0xddf252ad1be2c89b69c2b068fc378daa952ba7f163c4a11628f55a4df523b3ef",
            "0x0000000000000000000000000000000000000000000000000000000000000000",
            "0x000000000000000000000000c77f7fed3b5cc8249adc428c5f44c9063b9734b4"
          ],
          "data": "0x00000000000000000000000000000000000000000000003574d3f02cc5314123",
          "blockHash": "0x4314f37b56aeeb0b72ee0a62196b93297b571d488f9cb7929ca56675d941522f",
          "blockNumber": "0x725074",
          "transactionHash": "0x33bcef380d4844bc3514bbfe326c8374e0ef02bb7e74acec48d2e285c783303b",
          "transactionIndex": "0x6a",
          "logIndex": "0xc0",
          "removed": false
        },
        {
          "address": "0x5eb9cc76c3506942c1c0ead70e877dd5e4f00cb0",
          "topics": [
            "0xddf252ad1be2c89b69c2b068fc378daa952ba7f163c4a11628f55a4df523b3ef",
            "0x0000000000000000000000000000000000000000000000000000000000000000",
            "0x000000000000000000000000c77f7fed3b5cc8249adc428c5f44c9063b9734b4"
          ],
          "data": "0x0000000000000000000000000000000000000000000000002982bc52da2adfd2",
          "blockHash": "0x4314f37b56aeeb0b72ee0a62196b93297b571d488f9cb7929ca56675d941522f",
          "blockNumber": "0x725074",
          "transactionHash": "0x33bcef380d4844bc3514bbfe326c8374e0ef02bb7e74acec48d2e285c783303b",
          "transactionIndex": "0x6a",
          "logIndex": "0xc1",
          "removed": false
        },
        {
          "address": "0x5eb9cc76c3506942c1c0ead70e877dd5e4f00cb0",
          "topics": [
            "0x4afcb4a87cdbd9974efdb92ee48bc8d7cd0ae4bf217004db3d080cbaee652ca7"
          ],
          "data": "0x000000000000000000000000000000000000000000000000000000006786b73c00000000000000000000000000000000000000000000000000039118831eec630000000000000000000000000000000000000000000000000de0b6b3a7640000",
          "blockHash": "0x4314f37b56aeeb0b72ee0a62196b93297b571d488f9cb7929ca56675d941522f",
          "blockNumber": "0x725074",
          "transactionHash": "0x33bcef380d4844bc3514bbfe326c8374e0ef02bb7e74acec48d2e285c783303b",
          "transactionIndex": "0x6a",
          "logIndex": "0xc2",
          "removed": false
        }
      ],
      "logsBloom": "0x00000000000000000000000000000000000000000000000000000000000000000000000000000000000000000000000000000000000000004000000000000000000000000000000000000008000000000000000000000000000000000000000000000000020000000000000004000800020000000000000000000010000000000000000000000000000000000000000000000000000000000000010000000000000000000000000000000000000000004000000000000000000000000000020000000002000000800000008000000000000000000000080000000000000020000000000000000000000000000000000000000000000000000000000000000000",
      "type": "0x2",
      "transactionHash": "0x33bcef380d4844bc3514bbfe326c8374e0ef02bb7e74acec48d2e285c783303b",
      "transactionIndex": "0x6a",
      "blockHash": "0x4314f37b56aeeb0b72ee0a62196b93297b571d488f9cb7929ca56675d941522f",
      "blockNumber": "0x725074",
      "gasUsed": "0x13af8",
      "effectiveGasPrice": "0x230788856",
      "from": "0xc77f7fed3b5cc8249adc428c5f44c9063b9734b4",
      "to": "0x5eb9cc76c3506942c1c0ead70e877dd5e4f00cb0",
      "contractAddress": null
    }
  ],
  "libraries": [],
  "pending": [],
  "returns": {},
  "timestamp": 1736881982,
  "chain": 11155111,
  "commit": "51a374b"
}