{
  "transactions": [
    {
      "hash": "0xe0e0e3428503b13ebc309f072da303de0d30035ce806d5cbd693e97903da89d2",
      "transactionType": "CALL",
      "contractName": null,
      "contractAddress": "0x8aafd3ede9adb0ff97c7aebce82a919afb1c8764",
      "function": "buy(address)",
      "arguments": [
        "0xC77f7fed3b5Cc8249aDc428c5F44C9063B9734b4"
      ],
      "transaction": {
        "from": "0xc77f7fed3b5cc8249adc428c5f44c9063b9734b4",
        "to": "0x8aafd3ede9adb0ff97c7aebce82a919afb1c8764",
        "gas": "0x156ea",
        "value": "0xde0b6b3a7640000",
        "input": "0xf088d547000000000000000000000000c77f7fed3b5cc8249adc428c5f44c9063b9734b4",
        "nonce": "0xeb9",
        "chainId": "0xaa36a7"
      },
      "additionalContracts": [],
      "isFixedGasLimit": false
    }
  ],
  "receipts": [
    {
      "status": "0x1",
      "cumulativeGasUsed": "0xca8ea9",
      "logs": [
        {
          "address": "0x8aafd3ede9adb0ff97c7aebce82a919afb1c8764",
          "topics": [
            "0xddf252ad1be2c89b69c2b068fc378daa952ba7f163c4a11628f55a4df523b3ef",
            "0x0000000000000000000000000000000000000000000000000000000000000000",
            "0x000000000000000000000000c77f7fed3b5cc8249adc428c5f44c9063b9734b4"
          ],
          "data": "0x000000000000000000000000000000000000000000000028664cb63b5f39696e",
          "blockHash": "0x39ca161e724227bf76288ac35ec86cc8aa3324d378dcc2118fd798f0e2103267",
          "blockNumber": "0x73141c",
          "transactionHash": "0xe0e0e3428503b13ebc309f072da303de0d30035ce806d5cbd693e97903da89d2",
          "transactionIndex": "0x96",
          "logIndex": "0xdd",
          "removed": false
        },
        {
          "address": "0x8aafd3ede9adb0ff97c7aebce82a919afb1c8764",
          "topics": [
            "0xddf252ad1be2c89b69c2b068fc378daa952ba7f163c4a11628f55a4df523b3ef",
            "0x0000000000000000000000000000000000000000000000000000000000000000",
            "0x000000000000000000000000c77f7fed3b5cc8249adc428c5f44c9063b9734b4"
          ],
          "data": "0x0000000000000000000000000000000000000000000000001f5f26014863d99e",
          "blockHash": "0x39ca161e724227bf76288ac35ec86cc8aa3324d378dcc2118fd798f0e2103267",
          "blockNumber": "0x73141c",
          "transactionHash": "0xe0e0e3428503b13ebc309f072da303de0d30035ce806d5cbd693e97903da89d2",
          "transactionIndex": "0x96",
          "logIndex": "0xde",
          "removed": false
        },
        {
          "address": "0x8aafd3ede9adb0ff97c7aebce82a919afb1c8764",
          "topics": [
            "0x4afcb4a87cdbd9974efdb92ee48bc8d7cd0ae4bf217004db3d080cbaee652ca7"
          ],
          "data": "0x00000000000000000000000000000000000000000000000000000000678fedfc0000000000000000000000000000000000000000000000000004b851a82cd9e50000000000000000000000000000000000000000000000000de0b6b3a7640000",
          "blockHash": "0x39ca161e724227bf76288ac35ec86cc8aa3324d378dcc2118fd798f0e2103267",
          "blockNumber": "0x73141c",
          "transactionHash": "0xe0e0e3428503b13ebc309f072da303de0d30035ce806d5cbd693e97903da89d2",
          "transactionIndex": "0x96",
          "logIndex": "0xdf",
          "removed": false
        }
      ],
      "logsBloom": "0x00000000000000000000000000000000000000000600000000000000000000000000000000000000000000000000000000000000000000004000000000000000000000000000004000000008000000000000000000000000000000000000000000000000020000000000000000000800020000000000000000000010000000000000000000000000000000000000000000000000000000000000010000000000000000000000000000000000000000004000000000000000000000000000000000000002000000800000000000000000000000000000080000000000000020000000000000000000000000000000000000000000000000000000000000000000",
      "type": "0x2",
      "transactionHash": "0xe0e0e3428503b13ebc309f072da303de0d30035ce806d5cbd693e97903da89d2",
      "transactionIndex": "0x96",
      "blockHash": "0x39ca161e724227bf76288ac35ec86cc8aa3324d378dcc2118fd798f0e2103267",
      "blockNumber": "0x73141c",
      "gasUsed": "0xf844",
      "effectiveGasPrice": "0xb2b8e7e6",
      "from": "0xc77f7fed3b5cc8249adc428c5f44c9063b9734b4",
      "to": "0x8aafd3ede9adb0ff97c7aebce82a919afb1c8764",
      "contractAddress": null
    }
  ],
  "libraries": [],
  "pending": [],
  "returns": {},
  "timestamp": 1737485821,
  "chain": 11155111,
  "commit": "51a374b"
}