{
  "transactions": [
    {
      "hash": "0x59a49f0ffe47777bf6cdca3b32e4b358142836c8b3f2838d06e106365cc0742b",
      "transactionType": "CALL",
      "contractName": null,
      "contractAddress": "0x8aafd3ede9adb0ff97c7aebce82a919afb1c8764",
      "function": "sell(uint256)",
      "arguments": [
        "78328051432377"
      ],
      "transaction": {
        "from": "0xc77f7fed3b5cc8249adc428c5f44c9063b9734b4",
        "to": "0x8aafd3ede9adb0ff97c7aebce82a919afb1c8764",
        "gas": "0x15daa",
        "value": "0x0",
        "input": "0xe4849b320000000000000000000000000000000000000000000000000000473d2bae7bb9",
        "nonce": "0x170c",
        "chainId": "0xaa36a7"
      },
      "additionalContracts": [],
      "isFixedGasLimit": false
    }
  ],
  "receipts": [
    {
      "status": "0x1",
      "cumulativeGasUsed": "0x8b83b7",
      "logs": [
        {
          "address": "0x8aafd3ede9adb0ff97c7aebce82a919afb1c8764",
          "topics": [
            "0xddf252ad1be2c89b69c2b068fc378daa952ba7f163c4a11628f55a4df523b3ef",
            "0x000000000000000000000000c77f7fed3b5cc8249adc428c5f44c9063b9734b4",
            "0x0000000000000000000000000000000000000000000000000000000000000000"
          ],
          "data": "0x000000000000000000000000000000000000000000000000000046ab45f4c476",
          "blockHash": "0x1dda997aa0603c2f001ace27b1bc9517c5a3664e803b5fa959d377ea7b65728a",
          "blockNumber": "0x731ed1",
          "transactionHash": "0x59a49f0ffe47777bf6cdca3b32e4b358142836c8b3f2838d06e106365cc0742b",
          "transactionIndex": "0x61",
          "logIndex": "0x98",
          "removed": false
        },
        {
          "address": "0x8aafd3ede9adb0ff97c7aebce82a919afb1c8764",
          "topics": [
            "0xddf252ad1be2c89b69c2b068fc378daa952ba7f163c4a11628f55a4df523b3ef",
            "0x000000000000000000000000c77f7fed3b5cc8249adc428c5f44c9063b9734b4",
            "0x000000000000000000000000c77f7fed3b5cc8249adc428c5f44c9063b9734b4"
          ],
          "data": "0x00000000000000000000000000000000000000000000000000000091e5b9b743",
          "blockHash": "0x1dda997aa0603c2f001ace27b1bc9517c5a3664e803b5fa959d377ea7b65728a",
          "blockNumber": "0x731ed1",
          "transactionHash": "0x59a49f0ffe47777bf6cdca3b32e4b358142836c8b3f2838d06e106365cc0742b",
          "transactionIndex": "0x61",
          "logIndex": "0x99",
          "removed": false
        },
        {
          "address": "0x8aafd3ede9adb0ff97c7aebce82a919afb1c8764",
          "topics": [
            "0x4afcb4a87cdbd9974efdb92ee48bc8d7cd0ae4bf217004db3d080cbaee652ca7"
          ],
          "data": "0x0000000000000000000000000000000000000000000000000000000067906eb400000000000000000000000000000000000000000000000000172a599dbfaf1400000000000000000000000000000000000000000000000000000076ea4ef9d2",
          "blockHash": "0x1dda997aa0603c2f001ace27b1bc9517c5a3664e803b5fa959d377ea7b65728a",
          "blockNumber": "0x731ed1",
          "transactionHash": "0x59a49f0ffe47777bf6cdca3b32e4b358142836c8b3f2838d06e106365cc0742b",
          "transactionIndex": "0x61",
          "logIndex": "0x9a",
          "removed": false
        }
      ],
      "logsBloom": "0x00000000000000000000000000000000000000000600000000000000000000000000000000000000000000000000000000000000000000004000000000000000000000000000004000000008000000000000000000000000000000000000000000000000020000000000000000000800020000000000000000000010000000000000000000000000000000000000000000000000000000000000010000000000000000000000000000000000000000004000000000000000000000000000000000000002000000800000000000000000000000000000080000000000000020000000000000000000000000000000000000000000000000000000000000000000",
      "type": "0x2",
      "transactionHash": "0x59a49f0ffe47777bf6cdca3b32e4b358142836c8b3f2838d06e106365cc0742b",
      "transactionIndex": "0x61",
      "blockHash": "0x1dda997aa0603c2f001ace27b1bc9517c5a3664e803b5fa959d377ea7b65728a",
      "blockNumber": "0x731ed1",
      "gasUsed": "0xfd27",
      "effectiveGasPrice": "0x45254bf7",
      "from": "0xc77f7fed3b5cc8249adc428c5f44c9063b9734b4",
      "to": "0x8aafd3ede9adb0ff97c7aebce82a919afb1c8764",
      "contractAddress": null
    }
  ],
  "libraries": [],
  "pending": [],
  "returns": {},
  "timestamp": 1737518772,
  "chain": 11155111,
  "commit": "1d2fb70"
}