{
  "transactions": [
    {
      "hash": "0xd1d433162c32fb637994bcaab708d9dc31edb1a664ef99bb956f613bad6d5486",
      "transactionType": "CALL",
      "contractName": null,
      "contractAddress": "0x270e88f8683660553e8ba4eb2ad7c91a1710d769",
      "function": "sell(uint256)",
      "arguments": [
        "964762804327924007837"
      ],
      "transaction": {
        "from": "0xc77f7fed3b5cc8249adc428c5f44c9063b9734b4",
        "to": "0x270e88f8683660553e8ba4eb2ad7c91a1710d769",
        "gas": "0x15b6b",
        "value": "0x0",
        "input": "0xe4849b320000000000000000000000000000000000000000000000344cc60300fb9a839d",
        "nonce": "0x58b",
        "chainId": "0xaa36a7"
      },
      "additionalContracts": [],
      "isFixedGasLimit": false
    }
  ],
  "receipts": [
    {
      "status": "0x1",
      "cumulativeGasUsed": "0x144b7d9",
      "logs": [
        {
          "address": "0x270e88f8683660553e8ba4eb2ad7c91a1710d769",
          "topics": [
            "0xddf252ad1be2c89b69c2b068fc378daa952ba7f163c4a11628f55a4df523b3ef",
            "0x000000000000000000000000c77f7fed3b5cc8249adc428c5f44c9063b9734b4",
            "0x0000000000000000000000000000000000000000000000000000000000000000"
          ],
          "data": "0x0000000000000000000000000000000000000000000000344cc60300fb9a839d",
          "blockHash": "0xe025fb185d78538691e9bb207838d1042138c918285d6272fe1f0de71ed98f65",
          "blockNumber": "0x72523d",
          "transactionHash": "0xd1d433162c32fb637994bcaab708d9dc31edb1a664ef99bb956f613bad6d5486",
          "transactionIndex": "0x52",
          "logIndex": "0x9b",
          "removed": false
        },
        {
          "address": "0x270e88f8683660553e8ba4eb2ad7c91a1710d769",
          "topics": [
            "0x4afcb4a87cdbd9974efdb92ee48bc8d7cd0ae4bf217004db3d080cbaee652ca7"
          ],
          "data": "0x000000000000000000000000000000000000000000000000000000006786cccc0000000000000000000000000000000000000000000000000003a868e0108bd80000000000000000000000000000000000000000000000000dc83facf79bfe83",
          "blockHash": "0xe025fb185d78538691e9bb207838d1042138c918285d6272fe1f0de71ed98f65",
          "blockNumber": "0x72523d",
          "transactionHash": "0xd1d433162c32fb637994bcaab708d9dc31edb1a664ef99bb956f613bad6d5486",
          "transactionIndex": "0x52",
          "logIndex": "0x9c",
          "removed": false
        }
      ],
      "logsBloom": "0x00000000000000000000000000000000000000000000000000000000000000000000000000000000000000000000000020000000000000004000000000000000000000000000000000000008000000000000000000000000000000000000000000000000020000000000000000000800020000000000000000000010000000000000000000010000000000000000000000000000000000000000010000000000000000000000000000000000000000004000000000000000000000000000000000000002000000800000000000000000000000000000080000008000000020000000000000000000000000000000000000000000000000000000000000000000",
      "type": "0x2",
      "transactionHash": "0xd1d433162c32fb637994bcaab708d9dc31edb1a664ef99bb956f613bad6d5486",
      "transactionIndex": "0x52",
      "blockHash": "0xe025fb185d78538691e9bb207838d1042138c918285d6272fe1f0de71ed98f65",
      "blockNumber": "0x72523d",
      "gasUsed": "0xfb87",
      "effectiveGasPrice": "0x40e95b146",
      "from": "0xc77f7fed3b5cc8249adc428c5f44c9063b9734b4",
      "to": "0x270e88f8683660553e8ba4eb2ad7c91a1710d769",
      "contractAddress": null
    }
  ],
  "libraries": [],
  "pending": [],
  "returns": {},
  "timestamp": 1736887501,
  "chain": 11155111,
  "commit": "51a374b"
}