{
  "transactions": [
    {
      "hash": "0x78b04ffb18dc20c938c105473a9a7e270d7e4591853cbdc49a0d4b664b81c267",
      "transactionType": "CALL",
      "contractName": null,
      "contractAddress": "0x8aafd3ede9adb0ff97c7aebce82a919afb1c8764",
      "function": "sell(uint256)",
      "arguments": [
        "92646083750309"
      ],
      "transaction": {
        "from": "0xc77f7fed3b5cc8249adc428c5f44c9063b9734b4",
        "to": "0x8aafd3ede9adb0ff97c7aebce82a919afb1c8764",
        "gas": "0x15daa",
        "value": "0x0",
        "input": "0xe4849b3200000000000000000000000000000000000000000000000000005442d8e969a5",
        "nonce": "0x15da",
        "chainId": "0xaa36a7"
      },
      "additionalContracts": [],
      "isFixedGasLimit": false
    }
  ],
  "receipts": [
    {
      "status": "0x1",
      "cumulativeGasUsed": "0x8e15da",
      "logs": [
        {
          "address": "0x8aafd3ede9adb0ff97c7aebce82a919afb1c8764",
          "topics": [
            "0xddf252ad1be2c89b69c2b068fc378daa952ba7f163c4a11628f55a4df523b3ef",
            "0x000000000000000000000000c77f7fed3b5cc8249adc428c5f44c9063b9734b4",
            "0x0000000000000000000000000000000000000000000000000000000000000000"
          ],
          "data": "0x0000000000000000000000000000000000000000000000000000539647d10473",
          "blockHash": "0x1aea49d5405e26ef99650a9326a16793c5d3b0f6d285367f3661460ae22b8d3b",
          "blockNumber": "0x731d58",
          "transactionHash": "0x78b04ffb18dc20c938c105473a9a7e270d7e4591853cbdc49a0d4b664b81c267",
          "transactionIndex": "0x6a",
          "logIndex": "0xca",
          "removed": false
        },
        {
          "address": "0x8aafd3ede9adb0ff97c7aebce82a919afb1c8764",
          "topics": [
            "0xddf252ad1be2c89b69c2b068fc378daa952ba7f163c4a11628f55a4df523b3ef",
            "0x000000000000000000000000c77f7fed3b5cc8249adc428c5f44c9063b9734b4",
            "0x000000000000000000000000c77f7fed3b5cc8249adc428c5f44c9063b9734b4"
          ],
          "data": "0x000000000000000000000000000000000000000000000000000000ac91186532",
          "blockHash": "0x1aea49d5405e26ef99650a9326a16793c5d3b0f6d285367f3661460ae22b8d3b",
          "blockNumber": "0x731d58",
          "transactionHash": "0x78b04ffb18dc20c938c105473a9a7e270d7e4591853cbdc49a0d4b664b81c267",
          "transactionIndex": "0x6a",
          "logIndex": "0xcb",
          "removed": false
        },
        {
          "address": "0x8aafd3ede9adb0ff97c7aebce82a919afb1c8764",
          "topics": [
            "0x4afcb4a87cdbd9974efdb92ee48bc8d7cd0ae4bf217004db3d080cbaee652ca7"
          ],
          "data": "0x0000000000000000000000000000000000000000000000000000000067905d08000000000000000000000000000000000000000000000000001399ccb4c0766600000000000000000000000000000000000000000000000000000077025784c7",
          "blockHash": "0x1aea49d5405e26ef99650a9326a16793c5d3b0f6d285367f3661460ae22b8d3b",
          "blockNumber": "0x731d58",
          "transactionHash": "0x78b04ffb18dc20c938c105473a9a7e270d7e4591853cbdc49a0d4b664b81c267",
          "transactionIndex": "0x6a",
          "logIndex": "0xcc",
          "removed": false
        }
      ],
      "logsBloom": "0x00000000000000000000000000000000000000000600000000000000000000000000000000000000000000000000000000000000000000004000000000000000000000000000004000000008000000000000000000000000000000000000000000000000020000000000000000000800020000000000000000000010000000000000000000000000000000000000000000000000000000000000010000000000000000000000000000000000000000004000000000000000000000000000000000000002000000800000000000000000000000000000080000000000000020000000000000000000000000000000000000000000000000000000000000000000",
      "type": "0x2",
      "transactionHash": "0x78b04ffb18dc20c938c105473a9a7e270d7e4591853cbdc49a0d4b664b81c267",
      "transactionIndex": "0x6a",
      "blockHash": "0x1aea49d5405e26ef99650a9326a16793c5d3b0f6d285367f3661460ae22b8d3b",
      "blockNumber": "0x731d58",
      "gasUsed": "0xfd27",
      "effectiveGasPrice": "0x633b0c31",
      "from": "0xc77f7fed3b5cc8249adc428c5f44c9063b9734b4",
      "to": "0x8aafd3ede9adb0ff97c7aebce82a919afb1c8764",
      "contractAddress": null
    }
  ],
  "libraries": [],
  "pending": [],
  "returns": {},
  "timestamp": 1737514249,
  "chain": 11155111,
  "commit": "1d2fb70"
}