{
  "transactions": [
    {
      "hash": "0x8ea73d453a45c15e2a32b305f48d4fbe923209fa00e3a99679aed3ad595c3e9e",
      "transactionType": "CALL",
      "contractName": null,
      "contractAddress": "0x8aafd3ede9adb0ff97c7aebce82a919afb1c8764",
      "function": "sell(uint256)",
      "arguments": [
        "41231900"
      ],
      "transaction": {
        "from": "0xc77f7fed3b5cc8249adc428c5f44c9063b9734b4",
        "to": "0x8aafd3ede9adb0ff97c7aebce82a919afb1c8764",
        "gas": "0x15d88",
        "value": "0x0",
        "input": "0xe4849b32000000000000000000000000000000000000000000000000000000000275261c",
        "nonce": "0x16d9",
        "chainId": "0xaa36a7"
      },
      "additionalContracts": [],
      "isFixedGasLimit": false
    }
  ],
  "receipts": [
    {
      "status": "0x1",
      "cumulativeGasUsed": "0xff7408",
      "logs": [
        {
          "address": "0x8aafd3ede9adb0ff97c7aebce82a919afb1c8764",
          "topics": [
            "0xddf252ad1be2c89b69c2b068fc378daa952ba7f163c4a11628f55a4df523b3ef",
            "0x000000000000000000000000c77f7fed3b5cc8249adc428c5f44c9063b9734b4",
            "0x0000000000000000000000000000000000000000000000000000000000000000"
          ],
          "data": "0x0000000000000000000000000000000000000000000000000000000002701d9d",
          "blockHash": "0xbe9c51fc2e8465209642a4d508a3198f3b18dfd8c66c50169e9e330422e5a002",
          "blockNumber": "0x731e95",
          "transactionHash": "0x8ea73d453a45c15e2a32b305f48d4fbe923209fa00e3a99679aed3ad595c3e9e",
          "transactionIndex": "0x79",
          "logIndex": "0x10d",
          "removed": false
        },
        {
          "address": "0x8aafd3ede9adb0ff97c7aebce82a919afb1c8764",
          "topics": [
            "0xddf252ad1be2c89b69c2b068fc378daa952ba7f163c4a11628f55a4df523b3ef",
            "0x000000000000000000000000c77f7fed3b5cc8249adc428c5f44c9063b9734b4",
            "0x000000000000000000000000c77f7fed3b5cc8249adc428c5f44c9063b9734b4"
          ],
          "data": "0x000000000000000000000000000000000000000000000000000000000005087f",
          "blockHash": "0xbe9c51fc2e8465209642a4d508a3198f3b18dfd8c66c50169e9e330422e5a002",
          "blockNumber": "0x731e95",
          "transactionHash": "0x8ea73d453a45c15e2a32b305f48d4fbe923209fa00e3a99679aed3ad595c3e9e",
          "transactionIndex": "0x79",
          "logIndex": "0x10e",
          "removed": false
        },
        {
          "address": "0x8aafd3ede9adb0ff97c7aebce82a919afb1c8764",
          "topics": [
            "0x4afcb4a87cdbd9974efdb92ee48bc8d7cd0ae4bf217004db3d080cbaee652ca7"
          ],
          "data": "0x0000000000000000000000000000000000000000000000000000000067906be4000000000000000000000000000000000000000000000000001688d30679c650000000000000000000000000000000000000000000000000000000000003fd99",
          "blockHash": "0xbe9c51fc2e8465209642a4d508a3198f3b18dfd8c66c50169e9e330422e5a002",
          "blockNumber": "0x731e95",
          "transactionHash": "0x8ea73d453a45c15e2a32b305f48d4fbe923209fa00e3a99679aed3ad595c3e9e",
          "transactionIndex": "0x79",
          "logIndex": "0x10f",
          "removed": false
        }
      ],
      "logsBloom": "0x00000000000000000000000000000000000000000600000000000000000000000000000000000000000000000000000000000000000000004000000000000000000000000000004000000008000000000000000000000000000000000000000000000000020000000000000000000800020000000000000000000010000000000000000000000000000000000000000000000000000000000000010000000000000000000000000000000000000000004000000000000000000000000000000000000002000000800000000000000000000000000000080000000000000020000000000000000000000000000000000000000000000000000000000000000000",
      "type": "0x2",
      "transactionHash": "0x8ea73d453a45c15e2a32b305f48d4fbe923209fa00e3a99679aed3ad595c3e9e",
      "transactionIndex": "0x79",
      "blockHash": "0xbe9c51fc2e8465209642a4d508a3198f3b18dfd8c66c50169e9e330422e5a002",
      "blockNumber": "0x731e95",
      "gasUsed": "0xfd0f",
      "effectiveGasPrice": "0x4825383f",
      "from": "0xc77f7fed3b5cc8249adc428c5f44c9063b9734b4",
      "to": "0x8aafd3ede9adb0ff97c7aebce82a919afb1c8764",
      "contractAddress": null
    }
  ],
  "libraries": [],
  "pending": [],
  "returns": {},
  "timestamp": 1737518053,
  "chain": 11155111,
  "commit": "1d2fb70"
}