{
  "transactions": [
    {
      "hash": "0x859d2cf847109867f0a3192bba1d8f5038e48542ec20a2d58903b9247c6727df",
      "transactionType": "CALL",
      "contractName": null,
      "contractAddress": "0x270e88f8683660553e8ba4eb2ad7c91a1710d769",
      "function": "buy(address)",
      "arguments": [
        "0xC77f7fed3b5Cc8249aDc428c5F44C9063B9734b4"
      ],
      "transaction": {
        "from": "0xc77f7fed3b5cc8249adc428c5f44c9063b9734b4",
        "to": "0x270e88f8683660553e8ba4eb2ad7c91a1710d769",
        "gas": "0x1b30c",
        "value": "0xde0b6b3a7640000",
        "input": "0xf088d547000000000000000000000000c77f7fed3b5cc8249adc428c5f44c9063b9734b4",
        "nonce": "0x723",
        "chainId": "0xaa36a7"
      },
      "additionalContracts": [],
      "isFixedGasLimit": false
    }
  ],
  "receipts": [
    {
      "status": "0x1",
      "cumulativeGasUsed": "0x58f2b8",
      "logs": [
        {
          "address": "0x270e88f8683660553e8ba4eb2ad7c91a1710d769",
          "topics": [
            "0xddf252ad1be2c89b69c2b068fc378daa952ba7f163c4a11628f55a4df523b3ef",
            "0x0000000000000000000000000000000000000000000000000000000000000000",
            "0x000000000000000000000000c77f7fed3b5cc8249adc428c5f44c9063b9734b4"
          ],
          "data": "0x0000000000000000000000000000000000000000000000281b1e66cafc49b8f1",
          "blockHash": "0xfdb9866418bc532e95848508a0d781d5ff3b7d1bfdc5cd5e9b60443ce36df52c",
          "blockNumber": "0x725440",
          "transactionHash": "0x859d2cf847109867f0a3192bba1d8f5038e48542ec20a2d58903b9247c6727df",
          "transactionIndex": "0x36",
          "logIndex": "0x51",
          "removed": false
        },
        {
          "address": "0x270e88f8683660553e8ba4eb2ad7c91a1710d769",
          "topics": [
            "0xddf252ad1be2c89b69c2b068fc378daa952ba7f163c4a11628f55a4df523b3ef",
            "0x0000000000000000000000000000000000000000000000000000000000000000",
            "0x000000000000000000000000c77f7fed3b5cc8249adc428c5f44c9063b9734b4"
          ],
          "data": "0x0000000000000000000000000000000000000000000000001f24c496ac552d2c",
          "blockHash": "0xfdb9866418bc532e95848508a0d781d5ff3b7d1bfdc5cd5e9b60443ce36df52c",
          "blockNumber": "0x725440",
          "transactionHash": "0x859d2cf847109867f0a3192bba1d8f5038e48542ec20a2d58903b9247c6727df",
          "transactionIndex": "0x36",
          "logIndex": "0x52",
          "removed": false
        },
        {
          "address": "0x270e88f8683660553e8ba4eb2ad7c91a1710d769",
          "topics": [
            "0x4afcb4a87cdbd9974efdb92ee48bc8d7cd0ae4bf217004db3d080cbaee652ca7"
          ],
          "data": "0x000000000000000000000000000000000000000000000000000000006786e5080000000000000000000000000000000000000000000000000004c1269e895dde0000000000000000000000000000000000000000000000000de0b6b3a7640000",
          "blockHash": "0xfdb9866418bc532e95848508a0d781d5ff3b7d1bfdc5cd5e9b60443ce36df52c",
          "blockNumber": "0x725440",
          "transactionHash": "0x859d2cf847109867f0a3192bba1d8f5038e48542ec20a2d58903b9247c6727df",
          "transactionIndex": "0x36",
          "logIndex": "0x53",
          "removed": false
        }
      ],
      "logsBloom": "0x00000000000000000000000000000000000000000000000000000000000000000000000000000000000000000000000020000000000000004000000000000000000000000000000000000008000000000000000000000000000000000000000000000000020000000000000000000800020000000000000000000010000000000000000000010000000000000000000000000000000000000000010000000000000000000000000000000000000000004000000000000000000000000000000000000002000000800000000000000000000000000000080000008000000020000000000000000000000000000000000000000000000000000000000000000000",
      "type": "0x2",
      "transactionHash": "0x859d2cf847109867f0a3192bba1d8f5038e48542ec20a2d58903b9247c6727df",
      "transactionIndex": "0x36",
      "blockHash": "0xfdb9866418bc532e95848508a0d781d5ff3b7d1bfdc5cd5e9b60443ce36df52c",
      "blockNumber": "0x725440",
      "gasUsed": "0x13af8",
      "effectiveGasPrice": "0x1899cd870",
      "from": "0xc77f7fed3b5cc8249adc428c5f44c9063b9734b4",
      "to": "0x270e88f8683660553e8ba4eb2ad7c91a1710d769",
      "contractAddress": null
    }
  ],
  "libraries": [],
  "pending": [],
  "returns": {},
  "timestamp": 1736893705,
  "chain": 11155111,
  "commit": "51a374b"
}