{
  "transactions": [
    {
      "hash": "0x935de56dd487080acc49685ad644dda0ad989d7cf6ab54bf8361d4d49d20cc59",
      "transactionType": "CALL",
      "contractName": null,
      "contractAddress": "0x8aafd3ede9adb0ff97c7aebce82a919afb1c8764",
      "function": "buy(address)",
      "arguments": [
        "0xC77f7fed3b5Cc8249aDc428c5F44C9063B9734b4"
      ],
      "transaction": {
        "from": "0xc77f7fed3b5cc8249adc428c5f44c9063b9734b4",
        "to": "0x8aafd3ede9adb0ff97c7aebce82a919afb1c8764",
        "gas": "0x156ea",
        "value": "0xde0b6b3a7640000",
        "input": "0xf088d547000000000000000000000000c77f7fed3b5cc8249adc428c5f44c9063b9734b4",
        "nonce": "0x157c",
        "chainId": "0xaa36a7"
      },
      "additionalContracts": [],
      "isFixedGasLimit": false
    }
  ],
  "receipts": [
    {
      "status": "0x1",
      "cumulativeGasUsed": "0xa43f39",
      "logs": [
        {
          "address": "0x8aafd3ede9adb0ff97c7aebce82a919afb1c8764",
          "topics": [
            "0xddf252ad1be2c89b69c2b068fc378daa952ba7f163c4a11628f55a4df523b3ef",
            "0x0000000000000000000000000000000000000000000000000000000000000000",
            "0x000000000000000000000000c77f7fed3b5cc8249adc428c5f44c9063b9734b4"
          ],
          "data": "0x00000000000000000000000000000000000000000000000a55086187e6d64403",
          "blockHash": "0x09fd20fbb942b93fa6c8e823f5dadb6a7543435bd4180832ba5ec9f311c75c8c",
          "blockNumber": "0x731ce7",
          "transactionHash": "0x935de56dd487080acc49685ad644dda0ad989d7cf6ab54bf8361d4d49d20cc59",
          "transactionIndex": "0x5f",
          "logIndex": "0xa0",
          "removed": false
        },
        {
          "address": "0x8aafd3ede9adb0ff97c7aebce82a919afb1c8764",
          "topics": [
            "0xddf252ad1be2c89b69c2b068fc378daa952ba7f163c4a11628f55a4df523b3ef",
            "0x0000000000000000000000000000000000000000000000000000000000000000",
            "0x000000000000000000000000c77f7fed3b5cc8249adc428c5f44c9063b9734b4"
          ],
          "data": "0x0000000000000000000000000000000000000000000000000805f548dae802b0",
          "blockHash": "0x09fd20fbb942b93fa6c8e823f5dadb6a7543435bd4180832ba5ec9f311c75c8c",
          "blockNumber": "0x731ce7",
          "transactionHash": "0x935de56dd487080acc49685ad644dda0ad989d7cf6ab54bf8361d4d49d20cc59",
          "transactionIndex": "0x5f",
          "logIndex": "0xa1",
          "removed": false
        },
        {
          "address": "0x8aafd3ede9adb0ff97c7aebce82a919afb1c8764",
          "topics": [
            "0x4afcb4a87cdbd9974efdb92ee48bc8d7cd0ae4bf217004db3d080cbaee652ca7"
          ],
          "data": "0x00000000000000000000000000000000000000000000000000000000679057bc00000000000000000000000000000000000000000000000000127ac4ff0818c80000000000000000000000000000000000000000000000000de0b6b3a7640000",
          "blockHash": "0x09fd20fbb942b93fa6c8e823f5dadb6a7543435bd4180832ba5ec9f311c75c8c",
          "blockNumber": "0x731ce7",
          "transactionHash": "0x935de56dd487080acc49685ad644dda0ad989d7cf6ab54bf8361d4d49d20cc59",
          "transactionIndex": "0x5f",
          "logIndex": "0xa2",
          "removed": false
        }
      ],
      "logsBloom": "0x00000000000000000000000000000000000000000600000000000000000000000000000000000000000000000000000000000000000000004000000000000000000000000000004000000008000000000000000000000000000000000000000000000000020000000000000000000800020000000000000000000010000000000000000000000000000000000000000000000000000000000000010000000000000000000000000000000000000000004000000000000000000000000000000000000002000000800000000000000000000000000000080000000000000020000000000000000000000000000000000000000000000000000000000000000000",
      "type": "0x2",
      "transactionHash": "0x935de56dd487080acc49685ad644dda0ad989d7cf6ab54bf8361d4d49d20cc59",
      "transactionIndex": "0x5f",
      "blockHash": "0x09fd20fbb942b93fa6c8e823f5dadb6a7543435bd4180832ba5ec9f311c75c8c",
      "blockNumber": "0x731ce7",
      "gasUsed": "0xf844",
      "effectiveGasPrice": "0x7b3d8610",
      "from": "0xc77f7fed3b5cc8249adc428c5f44c9063b9734b4",
      "to": "0x8aafd3ede9adb0ff97c7aebce82a919afb1c8764",
      "contractAddress": null
    }
  ],
  "libraries": [],
  "pending": [],
  "returns": {},
  "timestamp": 1737512893,
  "chain": 11155111,
  "commit": "1d2fb70"
}