{
  "transactions": [
    {
      "hash": "0x4a5d6e1c2901568b6bd8ca549ecb4c5afebe916a51d9c1d15d07181f73d2b9d0",
      "transactionType": "CALL",
      "contractName": null,
      "contractAddress": "0x5eb9cc76c3506942c1c0ead70e877dd5e4f00cb0",
      "function": "sell(uint256)",
      "arguments": [
        "989074503200907603474"
      ],
      "transaction": {
        "from": "0xc77f7fed3b5cc8249adc428c5f44c9063b9734b4",
        "to": "0x5eb9cc76c3506942c1c0ead70e877dd5e4f00cb0",
        "gas": "0x16fec",
        "value": "0x0",
        "input": "0xe4849b320000000000000000000000000000000000000000000000359e2a8451e60e2e12",
        "nonce": "0x4a1",
        "chainId": "0xaa36a7"
      },
      "additionalContracts": [],
      "isFixedGasLimit": false
    }
  ],
  "receipts": [
    {
      "status": "0x1",
      "cumulativeGasUsed": "0x85202a",
      "logs": [
        {
          "address": "0x5eb9cc76c3506942c1c0ead70e877dd5e4f00cb0",
          "topics": [
            "0xddf252ad1be2c89b69c2b068fc378daa952ba7f163c4a11628f55a4df523b3ef",
            "0x000000000000000000000000c77f7fed3b5cc8249adc428c5f44c9063b9734b4",
            "0x0000000000000000000000000000000000000000000000000000000000000000"
          ],
          "data": "0x0000000000000000000000000000000000000000000000359e2a8451e60e2e12",
          "blockHash": "0x5ad05ae9d126ff9bccc06880c716525f57eb6d2a4cae29da0d96665f91a59353",
          "blockNumber": "0x7250db",
          "transactionHash": "0x4a5d6e1c2901568b6bd8ca549ecb4c5afebe916a51d9c1d15d07181f73d2b9d0",
          "transactionIndex": "0x4c",
          "logIndex": "0xb4",
          "removed": false
        },
        {
          "address": "0x5eb9cc76c3506942c1c0ead70e877dd5e4f00cb0",
          "topics": [
            "0x4afcb4a87cdbd9974efdb92ee48bc8d7cd0ae4bf217004db3d080cbaee652ca7"
          ],
          "data": "0x000000000000000000000000000000000000000000000000000000006786bc280000000000000000000000000000000000000000000000000003911b7f6e5c790000000000000000000000000000000000000000000000000dc7db1331ba147e",
          "blockHash": "0x5ad05ae9d126ff9bccc06880c716525f57eb6d2a4cae29da0d96665f91a59353",
          "blockNumber": "0x7250db",
          "transactionHash": "0x4a5d6e1c2901568b6bd8ca549ecb4c5afebe916a51d9c1d15d07181f73d2b9d0",
          "transactionIndex": "0x4c",
          "logIndex": "0xb5",
          "removed": false
        }
      ],
      "logsBloom": "0x00000000000000000000000000000000000000000000000000000000000000000000000000000000000000000000000000000000000000004000000000000000000000000000000000000008000000000000000000000000000000000000000000000000020000000000000004000800020000000000000000000010000000000000000000000000000000000000000000000000000000000000010000000000000000000000000000000000000000004000000000000000000000000000020000000002000000800000008000000000000000000000080000000000000020000000000000000000000000000000000000000000000000000000000000000000",
      "type": "0x2",
      "transactionHash": "0x4a5d6e1c2901568b6bd8ca549ecb4c5afebe916a51d9c1d15d07181f73d2b9d0",
      "transactionIndex": "0x4c",
      "blockHash": "0x5ad05ae9d126ff9bccc06880c716525f57eb6d2a4cae29da0d96665f91a59353",
      "blockNumber": "0x7250db",
      "gasUsed": "0xfb93",
      "effectiveGasPrice": "0x28b2eda3d",
      "from": "0xc77f7fed3b5cc8249adc428c5f44c9063b9734b4",
      "to": "0x5eb9cc76c3506942c1c0ead70e877dd5e4f00cb0",
      "contractAddress": null
    }
  ],
  "libraries": [],
  "pending": [],
  "returns": {},
  "timestamp": 1736883242,
  "chain": 11155111,
  "commit": "51a374b"
}