{
  "transactions": [
    {
      "hash": "0x79179f522606153010f2e5ba1140bff97d3c48e22fc0c8126c24cc580d30ba02",
      "transactionType": "CALL",
      "contractName": null,
      "contractAddress": "0x5eb9cc76c3506942c1c0ead70e877dd5e4f00cb0",
      "function": "buy(address)",
      "arguments": [
        "0xC77f7fed3b5Cc8249aDc428c5F44C9063B9734b4"
      ],
      "transaction": {
        "from": "0xc77f7fed3b5cc8249adc428c5f44c9063b9734b4",
        "to": "0x5eb9cc76c3506942c1c0ead70e877dd5e4f00cb0",
        "gas": "0x1b30c",
        "value": "0xde0b6b3a7640000",
        "input": "0xf088d547000000000000000000000000c77f7fed3b5cc8249adc428c5f44c9063b9734b4",
        "nonce": "0x25e",
        "chainId": "0xaa36a7"
      },
      "additionalContracts": [],
      "isFixedGasLimit": false
    }
  ],
  "receipts": [
    {
      "status": "0x1",
      "cumulativeGasUsed": "0x10f04cc",
      "logs": [
        {
          "address": "0x5eb9cc76c3506942c1c0ead70e877dd5e4f00cb0",
          "topics": [
            "0xddf252ad1be2c89b69c2b068fc378daa952ba7f163c4a11628f55a4df523b3ef",
            "0x0000000000000000000000000000000000000000000000000000000000000000",
            "0x000000000000000000000000c77f7fed3b5cc8249adc428c5f44c9063b9734b4"
          ],
          "data": "0x0000000000000000000000000000000000000000000000357c1aa5cbd297991f",
          "blockHash": "0x5c80e551832442ceef49572dd1c6c589c6f2266e7225476fefd3092bb5d9aac9",
          "blockNumber": "0x724e1b",
          "transactionHash": "0x79179f522606153010f2e5ba1140bff97d3c48e22fc0c8126c24cc580d30ba02",
          "transactionIndex": "0x76",
          "logIndex": "0xc6",
          "removed": false
        },
        {
          "address": "0x5eb9cc76c3506942c1c0ead70e877dd5e4f00cb0",
          "topics": [
            "0xddf252ad1be2c89b69c2b068fc378daa952ba7f163c4a11628f55a4df523b3ef",
            "0x0000000000000000000000000000000000000000000000000000000000000000",
            "0x000000000000000000000000c77f7fed3b5cc8249adc428c5f44c9063b9734b4"
          ],
          "data": "0x000000000000000000000000000000000000000000000000298862c7f45e9b5a",
          "blockHash": "0x5c80e551832442ceef49572dd1c6c589c6f2266e7225476fefd3092bb5d9aac9",
          "blockNumber": "0x724e1b",
          "transactionHash": "0x79179f522606153010f2e5ba1140bff97d3c48e22fc0c8126c24cc580d30ba02",
          "transactionIndex": "0x76",
          "logIndex": "0xc7",
          "removed": false
        },
        {
          "address": "0x5eb9cc76c3506942c1c0ead70e877dd5e4f00cb0",
          "topics": [
            "0x4afcb4a87cdbd9974efdb92ee48bc8d7cd0ae4bf217004db3d080cbaee652ca7"
          ],
          "data": "0x0000000000000000000000000000000000000000000000000000000067869af80000000000000000000000000000000000000000000000000003909c4a62d7f00000000000000000000000000000000000000000000000000de0b6b3a7640000",
          "blockHash": "0x5c80e551832442ceef49572dd1c6c589c6f2266e7225476fefd3092bb5d9aac9",
          "blockNumber": "0x724e1b",
          "transactionHash": "0x79179f522606153010f2e5ba1140bff97d3c48e22fc0c8126c24cc580d30ba02",
          "transactionIndex": "0x76",
          "logIndex": "0xc8",
          "removed": false
        }
      ],
      "logsBloom": "0x00000000000000000000000000000000000000000000000000000000000000000000000000000000000000000000000000000000000000004000000000000000000000000000000000000008000000000000000000000000000000000000000000000000020000000000000004000800020000000000000000000010000000000000000000000000000000000000000000000000000000000000010000000000000000000000000000000000000000004000000000000000000000000000020000000002000000800000008000000000000000000000080000000000000020000000000000000000000000000000000000000000000000000000000000000000",
      "type": "0x2",
      "transactionHash": "0x79179f522606153010f2e5ba1140bff97d3c48e22fc0c8126c24cc580d30ba02",
      "transactionIndex": "0x76",
      "blockHash": "0x5c80e551832442ceef49572dd1c6c589c6f2266e7225476fefd3092bb5d9aac9",
      "blockNumber": "0x724e1b",
      "gasUsed": "0x13af8",
      "effectiveGasPrice": "0x3a4f25a06",
      "from": "0xc77f7fed3b5cc8249adc428c5f44c9063b9734b4",
      "to": "0x5eb9cc76c3506942c1c0ead70e877dd5e4f00cb0",
      "contractAddress": null
    }
  ],
  "libraries": [],
  "pending": [],
  "returns": {},
  "timestamp": 1736874746,
  "chain": 11155111,
  "commit": "51a374b"
}