{
  "transactions": [
    {
      "hash": "0xa0e8748f594fccca7bf30e4102293235f62feb8a65ba128262b7edf63c548a9e",
      "transactionType": "CALL",
      "contractName": null,
      "contractAddress": "0x8aafd3ede9adb0ff97c7aebce82a919afb1c8764",
      "function": "sell(uint256)",
      "arguments": [
        "612643142397"
      ],
      "transaction": {
        "from": "0xc77f7fed3b5cc8249adc428c5f44c9063b9734b4",
        "to": "0x8aafd3ede9adb0ff97c7aebce82a919afb1c8764",
        "gas": "0x1722a",
        "value": "0x0",
        "input": "0xe4849b320000000000000000000000000000000000000000000000000000008ea4607afd",
        "nonce": "0x173a",
        "chainId": "0xaa36a7"
      },
      "additionalContracts": [],
      "isFixedGasLimit": false
    }
  ],
  "receipts": [
    {
      "status": "0x1",
      "cumulativeGasUsed": "0x9e589e",
      "logs": [
        {
          "address": "0x8aafd3ede9adb0ff97c7aebce82a919afb1c8764",
          "topics": [
            "0xddf252ad1be2c89b69c2b068fc378daa952ba7f163c4a11628f55a4df523b3ef",
            "0x000000000000000000000000c77f7fed3b5cc8249adc428c5f44c9063b9734b4",
            "0x0000000000000000000000000000000000000000000000000000000000000000"
          ],
          "data": "0x0000000000000000000000000000000000000000000000000000008d803ef0ca",
          "blockHash": "0x7adbb1307e8785e9c5159708948d424055a4b644564ab3754f0ba1dd10f3a2aa",
          "blockNumber": "0x731f05",
          "transactionHash": "0xa0e8748f594fccca7bf30e4102293235f62feb8a65ba128262b7edf63c548a9e",
          "transactionIndex": "0x6c",
          "logIndex": "0xcb",
          "removed": false
        },
        {
          "address": "0x8aafd3ede9adb0ff97c7aebce82a919afb1c8764",
          "topics": [
            "0xddf252ad1be2c89b69c2b068fc378daa952ba7f163c4a11628f55a4df523b3ef",
            "0x000000000000000000000000c77f7fed3b5cc8249adc428c5f44c9063b9734b4",
            "0x000000000000000000000000c77f7fed3b5cc8249adc428c5f44c9063b9734b4"
          ],
          "data": "0x0000000000000000000000000000000000000000000000000000000124218a33",
          "blockHash": "0x7adbb1307e8785e9c5159708948d424055a4b644564ab3754f0ba1dd10f3a2aa",
          "blockNumber": "0x731f05",
          "transactionHash": "0xa0e8748f594fccca7bf30e4102293235f62feb8a65ba128262b7edf63c548a9e",
          "transactionIndex": "0x6c",
          "logIndex": "0xcc",
          "removed": false
        },
        {
          "address": "0x8aafd3ede9adb0ff97c7aebce82a919afb1c8764",
          "topics": [
            "0x4afcb4a87cdbd9974efdb92ee48bc8d7cd0ae4bf217004db3d080cbaee652ca7"
          ],
          "data": "0x00000000000000000000000000000000000000000000000000000000679071240000000000000000000000000000000000000000000000000017b11959989c2d00000000000000000000000000000000000000000000000000000000f383cb78",
          "blockHash": "0x7adbb1307e8785e9c5159708948d424055a4b644564ab3754f0ba1dd10f3a2aa",
          "blockNumber": "0x731f05",
          "transactionHash": "0xa0e8748f594fccca7bf30e4102293235f62feb8a65ba128262b7edf63c548a9e",
          "transactionIndex": "0x6c",
          "logIndex": "0xcd",
          "removed": false
        }
      ],
      "logsBloom": "0x00000000000000000000000000000000000000000600000000000000000000000000000000000000000000000000000000000000000000004000000000000000000000000000004000000008000000000000000000000000000000000000000000000000020000000000000000000800020000000000000000000010000000000000000000000000000000000000000000000000000000000000010000000000000000000000000000000000000000004000000000000000000000000000000000000002000000800000000000000000000000000000080000000000000020000000000000000000000000000000000000000000000000000000000000000000",
      "type": "0x2",
      "transactionHash": "0xa0e8748f594fccca7bf30e4102293235f62feb8a65ba128262b7edf63c548a9e",
      "transactionIndex": "0x6c",
      "blockHash": "0x7adbb1307e8785e9c5159708948d424055a4b644564ab3754f0ba1dd10f3a2aa",
      "blockNumber": "0x731f05",
      "gasUsed": "0xfd1b",
      "effectiveGasPrice": "0x425029a2",
      "from": "0xc77f7fed3b5cc8249adc428c5f44c9063b9734b4",
      "to": "0x8aafd3ede9adb0ff97c7aebce82a919afb1c8764",
      "contractAddress": null
    }
  ],
  "libraries": [],
  "pending": [],
  "returns": {},
  "timestamp": 1737519397,
  "chain": 11155111,
  "commit": "1d2fb70"
}