{
  "transactions": [
    {
      "hash": "0x41ba9c79aacd0d0935fce2daf882d31781623a7e54873ad469ce004a8f9d89fb",
      "transactionType": "CALL",
      "contractName": null,
      "contractAddress": "0xbf4a322f1496e5c3d34a9bcdb4c60567b38c7de2",
      "function": "sell(uint256)",
      "arguments": [
        "984653428532017876679"
      ],
      "transaction": {
        "from": "0xc77f7fed3b5cc8249adc428c5f44c9063b9734b4",
        "to": "0xbf4a322f1496e5c3d34a9bcdb4c60567b38c7de2",
        "gas": "0x16fea",
        "value": "0x0",
        "input": "0xe4849b3200000000000000000000000000000000000000000000003560cfb4551967cec7",
        "nonce": "0xabf",
        "chainId": "0xaa36a7"
      },
      "additionalContracts": [],
      "isFixedGasLimit": false
    }
  ],
  "receipts": [
    {
      "status": "0x1",
      "cumulativeGasUsed": "0x9c6fcb",
      "logs": [
        {
          "address": "0xbf4a322f1496e5c3d34a9bcdb4c60567b38c7de2",
          "topics": [
            "0xddf252ad1be2c89b69c2b068fc378daa952ba7f163c4a11628f55a4df523b3ef",
            "0x000000000000000000000000c77f7fed3b5cc8249adc428c5f44c9063b9734b4",
            "0x0000000000000000000000000000000000000000000000000000000000000000"
          ],
          "data": "0x00000000000000000000000000000000000000000000003560cfb4551967cec7",
          "blockHash": "0x0c03c9e7fa47b3d6c8b33177310e4e310d9ea6bc49c564537ea8cd594262c4df",
          "blockNumber": "0x725aae",
          "transactionHash": "0x41ba9c79aacd0d0935fce2daf882d31781623a7e54873ad469ce004a8f9d89fb",
          "transactionIndex": "0x5a",
          "logIndex": "0x97",
          "removed": false
        },
        {
          "address": "0xbf4a322f1496e5c3d34a9bcdb4c60567b38c7de2",
          "topics": [
            "0x4afcb4a87cdbd9974efdb92ee48bc8d7cd0ae4bf217004db3d080cbaee652ca7"
          ],
          "data": "0x00000000000000000000000000000000000000000000000000000000678732780000000000000000000000000000000000000000000000000003953b71b713d30000000000000000000000000000000000000000000000000dc7e3ece2b7cea8",
          "blockHash": "0x0c03c9e7fa47b3d6c8b33177310e4e310d9ea6bc49c564537ea8cd594262c4df",
          "blockNumber": "0x725aae",
          "transactionHash": "0x41ba9c79aacd0d0935fce2daf882d31781623a7e54873ad469ce004a8f9d89fb",
          "transactionIndex": "0x5a",
          "logIndex": "0x98",
          "removed": false
        }
      ],
      "logsBloom": "0x00000000000000000000000000000000000000000000000000000000000000000000000000000000000000000000000000000000000000004000000000000000000000000000000000000008000000000000001000000000000000000000000000000000020000000000000000000800020000000000000000000010000000000000000000000000000000000000000000000000000008000000010000000000000000000000000000000000000000004000000000000000000000000000000000000002000000800000000000001000000000000000080000000000000020000000000000000000000000000000000000000000000000000000000000000000",
      "type": "0x2",
      "transactionHash": "0x41ba9c79aacd0d0935fce2daf882d31781623a7e54873ad469ce004a8f9d89fb",
      "transactionIndex": "0x5a",
      "blockHash": "0x0c03c9e7fa47b3d6c8b33177310e4e310d9ea6bc49c564537ea8cd594262c4df",
      "blockNumber": "0x725aae",
      "gasUsed": "0xfb91",
      "effectiveGasPrice": "0x10c5b64d0",
      "from": "0xc77f7fed3b5cc8249adc428c5f44c9063b9734b4",
      "to": "0xbf4a322f1496e5c3d34a9bcdb4c60567b38c7de2",
      "contractAddress": null
    }
  ],
  "libraries": [],
  "pending": [],
  "returns": {},
  "timestamp": 1736913529,
  "chain": 11155111,
  "commit": "51a374b"
}