{
  "transactions": [
    {
      "hash": "0xe0a4cc016a70e955fa3ab702d4ee8c80d03e33127f2705a7f094af6daddfb99b",
      "transactionType": "CALL",
      "contractName": null,
      "contractAddress": "0x8aafd3ede9adb0ff97c7aebce82a919afb1c8764",
      "function": "sell(uint256)",
      "arguments": [
        "9572549099956837"
      ],
      "transaction": {
        "from": "0xc77f7fed3b5cc8249adc428c5f44c9063b9734b4",
        "to": "0x8aafd3ede9adb0ff97c7aebce82a919afb1c8764",
        "gas": "0x1724d",
        "value": "0x0",
        "input": "0xe4849b320000000000000000000000000000000000000000000000000022022ec4b2aa65",
        "nonce": "0x1738",
        "chainId": "0xaa36a7"
      },
      "additionalContracts": [],
      "isFixedGasLimit": false
    }
  ],
  "receipts": [
    {
      "status": "0x1",
      "cumulativeGasUsed": "0xae3b9c",
      "logs": [
        {
          "address": "0x8aafd3ede9adb0ff97c7aebce82a919afb1c8764",
          "topics": [
            "0xddf252ad1be2c89b69c2b068fc378daa952ba7f163c4a11628f55a4df523b3ef",
            "0x000000000000000000000000c77f7fed3b5cc8249adc428c5f44c9063b9734b4",
            "0x0000000000000000000000000000000000000000000000000000000000000000"
          ],
          "data": "0x0000000000000000000000000000000000000000000000000021bc8881969cbf",
          "blockHash": "0x6faa98d2e3c7718b26212325e2668b8db535bbd381c7d36331591cafb3333c9b",
          "blockNumber": "0x731f03",
          "transactionHash": "0xe0a4cc016a70e955fa3ab702d4ee8c80d03e33127f2705a7f094af6daddfb99b",
          "transactionIndex": "0x58",
          "logIndex": "0x93",
          "removed": false
        },
        {
          "address": "0x8aafd3ede9adb0ff97c7aebce82a919afb1c8764",
          "topics": [
            "0xddf252ad1be2c89b69c2b068fc378daa952ba7f163c4a11628f55a4df523b3ef",
            "0x000000000000000000000000c77f7fed3b5cc8249adc428c5f44c9063b9734b4",
            "0x000000000000000000000000c77f7fed3b5cc8249adc428c5f44c9063b9734b4"
          ],
          "data": "0x000000000000000000000000000000000000000000000000000045a6431c0da6",
          "blockHash": "0x6faa98d2e3c7718b26212325e2668b8db535bbd381c7d36331591cafb3333c9b",
          "blockNumber": "0x731f03",
          "transactionHash": "0xe0a4cc016a70e955fa3ab702d4ee8c80d03e33127f2705a7f094af6daddfb99b",
          "transactionIndex": "0x58",
          "logIndex": "0x94",
          "removed": false
        },
        {
          "address": "0x8aafd3ede9adb0ff97c7aebce82a919afb1c8764",
          "topics": [
            "0x4afcb4a87cdbd9974efdb92ee48bc8d7cd0ae4bf217004db3d080cbaee652ca7"
          ],
          "data": "0x000000000000000000000000000000000000000000000000000000006790710c0000000000000000000000000000000000000000000000000017b11958eb8c0500000000000000000000000000000000000000000000000000003a0ef64eb5aa",
          "blockHash": "0x6faa98d2e3c7718b26212325e2668b8db535bbd381c7d36331591cafb3333c9b",
          "blockNumber": "0x731f03",
          "transactionHash": "0xe0a4cc016a70e955fa3ab702d4ee8c80d03e33127f2705a7f094af6daddfb99b",
          "transactionIndex": "0x58",
          "logIndex": "0x95",
          "removed": false
        }
      ],
      "logsBloom": "0x00000000000000000000000000000000000000000600000000000000000000000000000000000000000000000000000000000000000000004000000000000000000000000000004000000008000000000000000000000000000000000000000000000000020000000000000000000800020000000000000000000010000000000000000000000000000000000000000000000000000000000000010000000000000000000000000000000000000000004000000000000000000000000000000000000002000000800000000000000000000000000000080000000000000020000000000000000000000000000000000000000000000000000000000000000000",
      "type": "0x2",
      "transactionHash": "0xe0a4cc016a70e955fa3ab702d4ee8c80d03e33127f2705a7f094af6daddfb99b",
      "transactionIndex": "0x58",
      "blockHash": "0x6faa98d2e3c7718b26212325e2668b8db535bbd381c7d36331591cafb3333c9b",
      "blockNumber": "0x731f03",
      "gasUsed": "0xfd33",
      "effectiveGasPrice": "0x45c092a3",
      "from": "0xc77f7fed3b5cc8249adc428c5f44c9063b9734b4",
      "to": "0x8aafd3ede9adb0ff97c7aebce82a919afb1c8764",
      "contractAddress": null
    }
  ],
  "libraries": [],
  "pending": [],
  "returns": {},
  "timestamp": 1737519372,
  "chain": 11155111,
  "commit": "1d2fb70"
}