{
  "transactions": [
    {
      "hash": "0xe5aa8e1b75582575352edac1b15ff9e47a3d103b3964c45c047ca4ed92519d1c",
      "transactionType": "CALL",
      "contractName": null,
      "contractAddress": "0x8aafd3ede9adb0ff97c7aebce82a919afb1c8764",
      "function": "sell(uint256)",
      "arguments": [
        "974402194773"
      ],
      "transaction": {
        "from": "0xc77f7fed3b5cc8249adc428c5f44c9063b9734b4",
        "to": "0x8aafd3ede9adb0ff97c7aebce82a919afb1c8764",
        "gas": "0x1722a",
        "value": "0x0",
        "input": "0xe4849b32000000000000000000000000000000000000000000000000000000e2dee58d55",
        "nonce": "0x1446",
        "chainId": "0xaa36a7"
      },
      "additionalContracts": [],
      "isFixedGasLimit": false
    }
  ],
  "receipts": [
    {
      "status": "0x1",
      "cumulativeGasUsed": "0x1db2607",
      "logs": [
        {
          "address": "0x8aafd3ede9adb0ff97c7aebce82a919afb1c8764",
          "topics": [
            "0xddf252ad1be2c89b69c2b068fc378daa952ba7f163c4a11628f55a4df523b3ef",
            "0x000000000000000000000000c77f7fed3b5cc8249adc428c5f44c9063b9734b4",
            "0x0000000000000000000000000000000000000000000000000000000000000000"
          ],
          "data": "0x000000000000000000000000000000000000000000000000000000e10e43f8bf",
          "blockHash": "0xe0d1c042154862e40369b194995a3baf5af3ab1f75f3ad54f9cfff0ea45ab590",
          "blockNumber": "0x731b89",
          "transactionHash": "0xe5aa8e1b75582575352edac1b15ff9e47a3d103b3964c45c047ca4ed92519d1c",
          "transactionIndex": "0xd5",
          "logIndex": "0xcf",
          "removed": false
        },
        {
          "address": "0x8aafd3ede9adb0ff97c7aebce82a919afb1c8764",
          "topics": [
            "0xddf252ad1be2c89b69c2b068fc378daa952ba7f163c4a11628f55a4df523b3ef",
            "0x000000000000000000000000c77f7fed3b5cc8249adc428c5f44c9063b9734b4",
            "0x000000000000000000000000c77f7fed3b5cc8249adc428c5f44c9063b9734b4"
          ],
          "data": "0x00000000000000000000000000000000000000000000000000000001d0a19496",
          "blockHash": "0xe0d1c042154862e40369b194995a3baf5af3ab1f75f3ad54f9cfff0ea45ab590",
          "blockNumber": "0x731b89",
          "transactionHash": "0xe5aa8e1b75582575352edac1b15ff9e47a3d103b3964c45c047ca4ed92519d1c",
          "transactionIndex": "0xd5",
          "logIndex": "0xd0",
          "removed": false
        },
        {
          "address": "0x8aafd3ede9adb0ff97c7aebce82a919afb1c8764",
          "topics": [
            "0x4afcb4a87cdbd9974efdb92ee48bc8d7cd0ae4bf217004db3d080cbaee652ca7"
          ],
          "data": "0x0000000000000000000000000000000000000000000000000000000067904748000000000000000000000000000000000000000000000000000eeec08b64781500000000000000000000000000000000000000000000000000000000f41d6b5c",
          "blockHash": "0xe0d1c042154862e40369b194995a3baf5af3ab1f75f3ad54f9cfff0ea45ab590",
          "blockNumber": "0x731b89",
          "transactionHash": "0xe5aa8e1b75582575352edac1b15ff9e47a3d103b3964c45c047ca4ed92519d1c",
          "transactionIndex": "0xd5",
          "logIndex": "0xd1",
          "removed": false
        }
      ],
      "logsBloom": "0x00000000000000000000000000000000000000000600000000000000000000000000000000000000000000000000000000000000000000004000000000000000000000000000004000000008000000000000000000000000000000000000000000000000020000000000000000000800020000000000000000000010000000000000000000000000000000000000000000000000000000000000010000000000000000000000000000000000000000004000000000000000000000000000000000000002000000800000000000000000000000000000080000000000000020000000000000000000000000000000000000000000000000000000000000000000",
      "type": "0x2",
      "transactionHash": "0xe5aa8e1b75582575352edac1b15ff9e47a3d103b3964c45c047ca4ed92519d1c",
      "transactionIndex": "0xd5",
      "blockHash": "0xe0d1c042154862e40369b194995a3baf5af3ab1f75f3ad54f9cfff0ea45ab590",
      "blockNumber": "0x731b89",
      "gasUsed": "0xfd1b",
      "effectiveGasPrice": "0x1080e5611",
      "from": "0xc77f7fed3b5cc8249adc428c5f44c9063b9734b4",
      "to": "0x8aafd3ede9adb0ff97c7aebce82a919afb1c8764",
      "contractAddress": null
    }
  ],
  "libraries": [],
  "pending": [],
  "returns": {},
  "timestamp": 1737508682,
  "chain": 11155111,
  "commit": "1d2fb70"
}