{
  "transactions": [
    {
      "hash": "0x7dd11637c68b80785f80d5d638c7db2db5a0adc8feba1920fbc24e76459c6a71",
      "transactionType": "CALL",
      "contractName": null,
      "contractAddress": "0x8aafd3ede9adb0ff97c7aebce82a919afb1c8764",
      "function": "sell(uint256)",
      "arguments": [
        "5623057784781837092"
      ],
      "transaction": {
        "from": "0xc77f7fed3b5cc8249adc428c5f44c9063b9734b4",
        "to": "0x8aafd3ede9adb0ff97c7aebce82a919afb1c8764",
        "gas": "0x15dca",
        "value": "0x0",
        "input": "0xe4849b320000000000000000000000000000000000000000000000004e091d43556a9324",
        "nonce": "0x10d8",
        "chainId": "0xaa36a7"
      },
      "additionalContracts": [],
      "isFixedGasLimit": false
    }
  ],
  "receipts": [
    {
      "status": "0x1",
      "cumulativeGasUsed": "0x952dd1",
      "logs": [
        {
          "address": "0x8aafd3ede9adb0ff97c7aebce82a919afb1c8764",
          "topics": [
            "0xddf252ad1be2c89b69c2b068fc378daa952ba7f163c4a11628f55a4df523b3ef",
            "0x000000000000000000000000c77f7fed3b5cc8249adc428c5f44c9063b9734b4",
            "0x0000000000000000000000000000000000000000000000000000000000000000"
          ],
          "data": "0x0000000000000000000000000000000000000000000000004d694c2206e8b2bc",
          "blockHash": "0xbd77eaefe39ab81d406e5d062c66af6519fb0a5a1a0b8bef95c7a837b9107f7d",
          "blockNumber": "0x731778",
          "transactionHash": "0x7dd11637c68b80785f80d5d638c7db2db5a0adc8feba1920fbc24e76459c6a71",
          "transactionIndex": "0x70",
          "logIndex": "0x8a",
          "removed": false
        },
        {
          "address": "0x8aafd3ede9adb0ff97c7aebce82a919afb1c8764",
          "topics": [
            "0xddf252ad1be2c89b69c2b068fc378daa952ba7f163c4a11628f55a4df523b3ef",
            "0x000000000000000000000000c77f7fed3b5cc8249adc428c5f44c9063b9734b4",
            "0x000000000000000000000000c77f7fed3b5cc8249adc428c5f44c9063b9734b4"
          ],
          "data": "0x000000000000000000000000000000000000000000000000009fd1214e81e068",
          "blockHash": "0xbd77eaefe39ab81d406e5d062c66af6519fb0a5a1a0b8bef95c7a837b9107f7d",
          "blockNumber": "0x731778",
          "transactionHash": "0x7dd11637c68b80785f80d5d638c7db2db5a0adc8feba1920fbc24e76459c6a71",
          "transactionIndex": "0x70",
          "logIndex": "0x8b",
          "removed": false
        },
        {
          "address": "0x8aafd3ede9adb0ff97c7aebce82a919afb1c8764",
          "topics": [
            "0x4afcb4a87cdbd9974efdb92ee48bc8d7cd0ae4bf217004db3d080cbaee652ca7"
          ],
          "data": "0x00000000000000000000000000000000000000000000000000000000679016640000000000000000000000000000000000000000000000000005065955e7b673000000000000000000000000000000000000000000000000001c412b007d24cc",
          "blockHash": "0xbd77eaefe39ab81d406e5d062c66af6519fb0a5a1a0b8bef95c7a837b9107f7d",
          "blockNumber": "0x731778",
          "transactionHash": "0x7dd11637c68b80785f80d5d638c7db2db5a0adc8feba1920fbc24e76459c6a71",
          "transactionIndex": "0x70",
          "logIndex": "0x8c",
          "removed": false
        }
      ],
      "logsBloom": "0x00000000000000000000000000000000000000000600000000000000000000000000000000000000000000000000000000000000000000004000000000000000000000000000004000000008000000000000000000000000000000000000000000000000020000000000000000000800020000000000000000000010000000000000000000000000000000000000000000000000000000000000010000000000000000000000000000000000000000004000000000000000000000000000000000000002000000800000000000000000000000000000080000000000000020000000000000000000000000000000000000000000000000000000000000000000",
      "type": "0x2",
      "transactionHash": "0x7dd11637c68b80785f80d5d638c7db2db5a0adc8feba1920fbc24e76459c6a71",
      "transactionIndex": "0x70",
      "blockHash": "0xbd77eaefe39ab81d406e5d062c66af6519fb0a5a1a0b8bef95c7a837b9107f7d",
      "blockNumber": "0x731778",
      "gasUsed": "0xfd3f",
      "effectiveGasPrice": "0x3f814e36",
      "from": "0xc77f7fed3b5cc8249adc428c5f44c9063b9734b4",
      "to": "0x8aafd3ede9adb0ff97c7aebce82a919afb1c8764",
      "contractAddress": null
    }
  ],
  "libraries": [],
  "pending": [],
  "returns": {},
  "timestamp": 1737496166,
  "chain": 11155111,
  "commit": "1d2fb70"
}