{
  "transactions": [
    {
      "hash": "0x3d479fbceba1ccd8d3ec9c8dae2a3fc870a45c06f45276c120b92376db7d9084",
      "transactionType": "CALL",
      "contractName": null,
      "contractAddress": "0x8aafd3ede9adb0ff97c7aebce82a919afb1c8764",
      "function": "sell(uint256)",
      "arguments": [
        "24261004908"
      ],
      "transaction": {
        "from": "0xc77f7fed3b5cc8249adc428c5f44c9063b9734b4",
        "to": "0x8aafd3ede9adb0ff97c7aebce82a919afb1c8764",
        "gas": "0x1722a",
        "value": "0x0",
        "input": "0xe4849b3200000000000000000000000000000000000000000000000000000005a6118e6c",
        "nonce": "0xfbc",
        "chainId": "0xaa36a7"
      },
      "additionalContracts": [],
      "isFixedGasLimit": false
    }
  ],
  "receipts": [
    {
      "status": "0x1",
      "cumulativeGasUsed": "0x781ebb",
      "logs": [
        {
          "address": "0x8aafd3ede9adb0ff97c7aebce82a919afb1c8764",
          "topics": [
            "0xddf252ad1be2c89b69c2b068fc378daa952ba7f163c4a11628f55a4df523b3ef",
            "0x000000000000000000000000c77f7fed3b5cc8249adc428c5f44c9063b9734b4",
            "0x0000000000000000000000000000000000000000000000000000000000000000"
          ],
          "data": "0x000000000000000000000000000000000000000000000000000000059a800205",
          "blockHash": "0xc61c4dcc61663ce912917f06073e5460c10c3fbf434f6ada2f31baa4a983b79b",
          "blockNumber": "0x731628",
          "transactionHash": "0x3d479fbceba1ccd8d3ec9c8dae2a3fc870a45c06f45276c120b92376db7d9084",
          "transactionIndex": "0x5c",
          "logIndex": "0x73",
          "removed": false
        },
        {
          "address": "0x8aafd3ede9adb0ff97c7aebce82a919afb1c8764",
          "topics": [
            "0xddf252ad1be2c89b69c2b068fc378daa952ba7f163c4a11628f55a4df523b3ef",
            "0x000000000000000000000000c77f7fed3b5cc8249adc428c5f44c9063b9734b4",
            "0x000000000000000000000000c77f7fed3b5cc8249adc428c5f44c9063b9734b4"
          ],
          "data": "0x000000000000000000000000000000000000000000000000000000000b918c67",
          "blockHash": "0xc61c4dcc61663ce912917f06073e5460c10c3fbf434f6ada2f31baa4a983b79b",
          "blockNumber": "0x731628",
          "transactionHash": "0x3d479fbceba1ccd8d3ec9c8dae2a3fc870a45c06f45276c120b92376db7d9084",
          "transactionIndex": "0x5c",
          "logIndex": "0x74",
          "removed": false
        },
        {
          "address": "0x8aafd3ede9adb0ff97c7aebce82a919afb1c8764",
          "topics": [
            "0x4afcb4a87cdbd9974efdb92ee48bc8d7cd0ae4bf217004db3d080cbaee652ca7"
          ],
          "data": "0x000000000000000000000000000000000000000000000000000000006790068c0000000000000000000000000000000000000000000000000004c42316747ebe0000000000000000000000000000000000000000000000000000000001f0a28d",
          "blockHash": "0xc61c4dcc61663ce912917f06073e5460c10c3fbf434f6ada2f31baa4a983b79b",
          "blockNumber": "0x731628",
          "transactionHash": "0x3d479fbceba1ccd8d3ec9c8dae2a3fc870a45c06f45276c120b92376db7d9084",
          "transactionIndex": "0x5c",
          "logIndex": "0x75",
          "removed": false
        }
      ],
      "logsBloom": "0x00000000000000000000000000000000000000000600000000000000000000000000000000000000000000000000000000000000000000004000000000000000000000000000004000000008000000000000000000000000000000000000000000000000020000000000000000000800020000000000000000000010000000000000000000000000000000000000000000000000000000000000010000000000000000000000000000000000000000004000000000000000000000000000000000000002000000800000000000000000000000000000080000000000000020000000000000000000000000000000000000000000000000000000000000000000",
      "type": "0x2",
      "transactionHash": "0x3d479fbceba1ccd8d3ec9c8dae2a3fc870a45c06f45276c120b92376db7d9084",
      "transactionIndex": "0x5c",
      "blockHash": "0xc61c4dcc61663ce912917f06073e5460c10c3fbf434f6ada2f31baa4a983b79b",
      "blockNumber": "0x731628",
      "gasUsed": "0xfd1b",
      "effectiveGasPrice": "0x6b4e124b",
      "from": "0xc77f7fed3b5cc8249adc428c5f44c9063b9734b4",
      "to": "0x8aafd3ede9adb0ff97c7aebce82a919afb1c8764",
      "contractAddress": null
    }
  ],
  "libraries": [],
  "pending": [],
  "returns": {},
  "timestamp": 1737492109,
  "chain": 11155111,
  "commit": "1d2fb70"
}