{
  "transactions": [
    {
      "hash": "0x4b273952ee7ea6fc63f44b8b559837249ddaab35d4020d06693a55393ec225e0",
      "transactionType": "CALL",
      "contractName": null,
      "contractAddress": "0xbf4a322f1496e5c3d34a9bcdb4c60567b38c7de2",
      "function": "buy(address)",
      "arguments": [
        "0xC77f7fed3b5Cc8249aDc428c5F44C9063B9734b4"
      ],
      "transaction": {
        "from": "0xc77f7fed3b5cc8249adc428c5f44c9063b9734b4",
        "to": "0xbf4a322f1496e5c3d34a9bcdb4c60567b38c7de2",
        "gas": "0x1b309",
        "value": "0xde0b6b3a7640000",
        "input": "0xf088d547000000000000000000000000c77f7fed3b5cc8249adc428c5f44c9063b9734b4",
        "nonce": "0xb44",
        "chainId": "0xaa36a7"
      },
      "additionalContracts": [],
      "isFixedGasLimit": false
    }
  ],
  "receipts": [
    {
      "status": "0x1",
      "cumulativeGasUsed": "0x12bfae1",
      "logs": [
        {
          "address": "0xbf4a322f1496e5c3d34a9bcdb4c60567b38c7de2",
          "topics": [
            "0xddf252ad1be2c89b69c2b068fc378daa952ba7f163c4a11628f55a4df523b3ef",
            "0x0000000000000000000000000000000000000000000000000000000000000000",
            "0x000000000000000000000000c77f7fed3b5cc8249adc428c5f44c9063b9734b4"
          ],
          "data": "0x0000000000000000000000000000000000000000000000351e673b879a595f3a",
          "blockHash": "0xcb8b6fc900934ec8b188465bf76525817737bd7fa8fe79e88d3c61ddb9e2dffa",
          "blockNumber": "0x725b48",
          "transactionHash": "0x4b273952ee7ea6fc63f44b8b559837249ddaab35d4020d06693a55393ec225e0",
          "transactionIndex": "0x74",
          "logIndex": "0xd6",
          "removed": false
        },
        {
          "address": "0xbf4a322f1496e5c3d34a9bcdb4c60567b38c7de2",
          "topics": [
            "0xddf252ad1be2c89b69c2b068fc378daa952ba7f163c4a11628f55a4df523b3ef",
            "0x0000000000000000000000000000000000000000000000000000000000000000",
            "0x000000000000000000000000c77f7fed3b5cc8249adc428c5f44c9063b9734b4"
          ],
          "data": "0x000000000000000000000000000000000000000000000000293f9fbc2b651e9c",
          "blockHash": "0xcb8b6fc900934ec8b188465bf76525817737bd7fa8fe79e88d3c61ddb9e2dffa",
          "blockNumber": "0x725b48",
          "transactionHash": "0x4b273952ee7ea6fc63f44b8b559837249ddaab35d4020d06693a55393ec225e0",
          "transactionIndex": "0x74",
          "logIndex": "0xd7",
          "removed": false
        },
        {
          "address": "0xbf4a322f1496e5c3d34a9bcdb4c60567b38c7de2",
          "topics": [
            "0x4afcb4a87cdbd9974efdb92ee48bc8d7cd0ae4bf217004db3d080cbaee652ca7"
          ],
          "data": "0x00000000000000000000000000000000000000000000000000000000678739bc000000000000000000000000000000000000000000000000000396e86d48a4ec0000000000000000000000000000000000000000000000000de0b6b3a7640000",
          "blockHash": "0xcb8b6fc900934ec8b188465bf76525817737bd7fa8fe79e88d3c61ddb9e2dffa",
          "blockNumber": "0x725b48",
          "transactionHash": "0x4b273952ee7ea6fc63f44b8b559837249ddaab35d4020d06693a55393ec225e0",
          "transactionIndex": "0x74",
          "logIndex": "0xd8",
          "removed": false
        }
      ],
      "logsBloom": "0x00000000000000000000000000000000000000000000000000000000000000000000000000000000000000000000000000000000000000004000000000000000000000000000000000000008000000000000001000000000000000000000000000000000020000000000000000000800020000000000000000000010000000000000000000000000000000000000000000000000000008000000010000000000000000000000000000000000000000004000000000000000000000000000000000000002000000800000000000001000000000000000080000000000000020000000000000000000000000000000000000000000000000000000000000000000",
      "type": "0x2",
      "transactionHash": "0x4b273952ee7ea6fc63f44b8b559837249ddaab35d4020d06693a55393ec225e0",
      "transactionIndex": "0x74",
      "blockHash": "0xcb8b6fc900934ec8b188465bf76525817737bd7fa8fe79e88d3c61ddb9e2dffa",
      "blockNumber": "0x725b48",
      "gasUsed": "0x13af6",
      "effectiveGasPrice": "0x3f532517",
      "from": "0xc77f7fed3b5cc8249adc428c5f44c9063b9734b4",
      "to": "0xbf4a322f1496e5c3d34a9bcdb4c60567b38c7de2",
      "contractAddress": null
    }
  ],
  "libraries": [],
  "pending": [],
  "returns": {},
  "timestamp": 1736915389,
  "chain": 11155111,
  "commit": "51a374b"
}