{
  "transactions": [
    {
      "hash": "0xaa810b5503f2ae4fcff237bed588af5aff99b97bdb678f76a0a1e02dc3c07bda",
      "transactionType": "CALL",
      "contractName": null,
      "contractAddress": "0xbf4a322f1496e5c3d34a9bcdb4c60567b38c7de2",
      "function": "buy(address)",
      "arguments": [
        "0xC77f7fed3b5Cc8249aDc428c5F44C9063B9734b4"
      ],
      "transaction": {
        "from": "0xc77f7fed3b5cc8249adc428c5f44c9063b9734b4",
        "to": "0xbf4a322f1496e5c3d34a9bcdb4c60567b38c7de2",
        "gas": "0x1b309",
        "value": "0xde0b6b3a7640000",
        "input": "0xf088d547000000000000000000000000c77f7fed3b5cc8249adc428c5f44c9063b9734b4",
        "nonce": "0x998",
        "chainId": "0xaa36a7"
      },
      "additionalContracts": [],
      "isFixedGasLimit": false
    }
  ],
  "receipts": [
    {
      "status": "0x1",
      "cumulativeGasUsed": "0xd3454f",
      "logs": [
        {
          "address": "0xbf4a322f1496e5c3d34a9bcdb4c60567b38c7de2",
          "topics": [
            "0xddf252ad1be2c89b69c2b068fc378daa952ba7f163c4a11628f55a4df523b3ef",
            "0x0000000000000000000000000000000000000000000000000000000000000000",
            "0x000000000000000000000000c77f7fed3b5cc8249adc428c5f44c9063b9734b4"
          ],
          "data": "0x0000000000000000000000000000000000000000000000356ed899f3ece03880",
          "blockHash": "0x43b5f0f3e035041f545b15956701bede27eff9c68122be3c160954100f42ff6d",
          "blockNumber": "0x72593f",
          "transactionHash": "0xaa810b5503f2ae4fcff237bed588af5aff99b97bdb678f76a0a1e02dc3c07bda",
          "transactionIndex": "0x73",
          "logIndex": "0xa5",
          "removed": false
        },
        {
          "address": "0xbf4a322f1496e5c3d34a9bcdb4c60567b38c7de2",
          "topics": [
            "0xddf252ad1be2c89b69c2b068fc378daa952ba7f163c4a11628f55a4df523b3ef",
            "0x0000000000000000000000000000000000000000000000000000000000000000",
            "0x000000000000000000000000c77f7fed3b5cc8249adc428c5f44c9063b9734b4"
          ],
          "data": "0x000000000000000000000000000000000000000000000000297e17303997859a",
          "blockHash": "0x43b5f0f3e035041f545b15956701bede27eff9c68122be3c160954100f42ff6d",
          "blockNumber": "0x72593f",
          "transactionHash": "0xaa810b5503f2ae4fcff237bed588af5aff99b97bdb678f76a0a1e02dc3c07bda",
          "transactionIndex": "0x73",
          "logIndex": "0xa6",
          "removed": false
        },
        {
          "address": "0xbf4a322f1496e5c3d34a9bcdb4c60567b38c7de2",
          "topics": [
            "0x4afcb4a87cdbd9974efdb92ee48bc8d7cd0ae4bf217004db3d080cbaee652ca7"
          ],
          "data": "0x00000000000000000000000000000000000000000000000000000000678721200000000000000000000000000000000000000000000000000003918108a008c00000000000000000000000000000000000000000000000000de0b6b3a7640000",
          "blockHash": "0x43b5f0f3e035041f545b15956701bede27eff9c68122be3c160954100f42ff6d",
          "blockNumber": "0x72593f",
          "transactionHash": "0xaa810b5503f2ae4fcff237bed588af5aff99b97bdb678f76a0a1e02dc3c07bda",
          "transactionIndex": "0x73",
          "logIndex": "0xa7",
          "removed": false
        }
      ],
      "logsBloom": "0x00000000000000000000000000000000000000000000000000000000000000000000000000000000000000000000000000000000000000004000000000000000000000000000000000000008000000000000001000000000000000000000000000000000020000000000000000000800020000000000000000000010000000000000000000000000000000000000000000000000000008000000010000000000000000000000000000000000000000004000000000000000000000000000000000000002000000800000000000001000000000000000080000000000000020000000000000000000000000000000000000000000000000000000000000000000",
      "type": "0x2",
      "transactionHash": "0xaa810b5503f2ae4fcff237bed588af5aff99b97bdb678f76a0a1e02dc3c07bda",
      "transactionIndex": "0x73",
      "blockHash": "0x43b5f0f3e035041f545b15956701bede27eff9c68122be3c160954100f42ff6d",
      "blockNumber": "0x72593f",
      "gasUsed": "0x13af6",
      "effectiveGasPrice": "0x2767fd653",
      "from": "0xc77f7fed3b5cc8249adc428c5f44c9063b9734b4",
      "to": "0xbf4a322f1496e5c3d34a9bcdb4c60567b38c7de2",
      "contractAddress": null
    }
  ],
  "libraries": [],
  "pending": [],
  "returns": {},
  "timestamp": 1736909089,
  "chain": 11155111,
  "commit": "51a374b"
}