{
  "transactions": [
    {
      "hash": "0x9dd83d54e50e142430b25b783423db0ed60e8d0faec744f5e902a7f65329c056",
      "transactionType": "CALL",
      "contractName": null,
      "contractAddress": "0x8aafd3ede9adb0ff97c7aebce82a919afb1c8764",
      "function": "sell(uint256)",
      "arguments": [
        "596651609297"
      ],
      "transaction": {
        "from": "0xc77f7fed3b5cc8249adc428c5f44c9063b9734b4",
        "to": "0x8aafd3ede9adb0ff97c7aebce82a919afb1c8764",
        "gas": "0x1722a",
        "value": "0x0",
        "input": "0xe4849b320000000000000000000000000000000000000000000000000000008aeb350cd1",
        "nonce": "0x1770",
        "chainId": "0xaa36a7"
      },
      "additionalContracts": [],
      "isFixedGasLimit": false
    }
  ],
  "receipts": [
    {
      "status": "0x1",
      "cumulativeGasUsed": "0x69424c",
      "logs": [
        {
          "address": "0x8aafd3ede9adb0ff97c7aebce82a919afb1c8764",
          "topics": [
            "0xddf252ad1be2c89b69c2b068fc378daa952ba7f163c4a11628f55a4df523b3ef",
            "0x000000000000000000000000c77f7fed3b5cc8249adc428c5f44c9063b9734b4",
            "0x0000000000000000000000000000000000000000000000000000000000000000"
          ],
          "data": "0x00000000000000000000000000000000000000000000000000000089ceb39a07",
          "blockHash": "0xc1de6b84e0d19f90aeb6f89cf8f3a1e6171a7d22a88dea8dd952a7c6561ffa00",
          "blockNumber": "0x731f47",
          "transactionHash": "0x9dd83d54e50e142430b25b783423db0ed60e8d0faec744f5e902a7f65329c056",
          "transactionIndex": "0x51",
          "logIndex": "0x78",
          "removed": false
        },
        {
          "address": "0x8aafd3ede9adb0ff97c7aebce82a919afb1c8764",
          "topics": [
            "0xddf252ad1be2c89b69c2b068fc378daa952ba7f163c4a11628f55a4df523b3ef",
            "0x000000000000000000000000c77f7fed3b5cc8249adc428c5f44c9063b9734b4",
            "0x000000000000000000000000c77f7fed3b5cc8249adc428c5f44c9063b9734b4"
          ],
          "data": "0x000000000000000000000000000000000000000000000000000000011c8172ca",
          "blockHash": "0xc1de6b84e0d19f90aeb6f89cf8f3a1e6171a7d22a88dea8dd952a7c6561ffa00",
          "blockNumber": "0x731f47",
          "transactionHash": "0x9dd83d54e50e142430b25b783423db0ed60e8d0faec744f5e902a7f65329c056",
          "transactionIndex": "0x51",
          "logIndex": "0x79",
          "removed": false
        },
        {
          "address": "0x8aafd3ede9adb0ff97c7aebce82a919afb1c8764",
          "topics": [
            "0x4afcb4a87cdbd9974efdb92ee48bc8d7cd0ae4bf217004db3d080cbaee652ca7"
          ],
          "data": "0x000000000000000000000000000000000000000000000000000000006790743c000000000000000000000000000000000000000000000000001852f6b498ead100000000000000000000000000000000000000000000000000000000f37cdbdc",
          "blockHash": "0xc1de6b84e0d19f90aeb6f89cf8f3a1e6171a7d22a88dea8dd952a7c6561ffa00",
          "blockNumber": "0x731f47",
          "transactionHash": "0x9dd83d54e50e142430b25b783423db0ed60e8d0faec744f5e902a7f65329c056",
          "transactionIndex": "0x51",
          "logIndex": "0x7a",
          "removed": false
        }
      ],
      "logsBloom": "0x00000000000000000000000000000000000000000600000000000000000000000000000000000000000000000000000000000000000000004000000000000000000000000000004000000008000000000000000000000000000000000000000000000000020000000000000000000800020000000000000000000010000000000000000000000000000000000000000000000000000000000000010000000000000000000000000000000000000000004000000000000000000000000000000000000002000000800000000000000000000000000000080000000000000020000000000000000000000000000000000000000000000000000000000000000000",
      "type": "0x2",
      "transactionHash": "0x9dd83d54e50e142430b25b783423db0ed60e8d0faec744f5e902a7f65329c056",
      "transactionIndex": "0x51",
      "blockHash": "0xc1de6b84e0d19f90aeb6f89cf8f3a1e6171a7d22a88dea8dd952a7c6561ffa00",
      "blockNumber": "0x731f47",
      "gasUsed": "0xfd1b",
      "effectiveGasPrice": "0x4ba0469c",
      "from": "0xc77f7fed3b5cc8249adc428c5f44c9063b9734b4",
      "to": "0x8aafd3ede9adb0ff97c7aebce82a919afb1c8764",
      "contractAddress": null
    }
  ],
  "libraries": [],
  "pending": [],
  "returns": {},
  "timestamp": 1737520190,
  "chain": 11155111,
  "commit": "1d2fb70"
}