{
  "transactions": [
    {
      "hash": "0x8f1c9ae62e7b2af6bc7bffc3c571f87a07fa1f9b6dc49a01b89337f90f0e2ae1",
      "transactionType": "CALL",
      "contractName": null,
      "contractAddress": "0xbf4a322f1496e5c3d34a9bcdb4c60567b38c7de2",
      "function": "buy(address)",
      "arguments": [
        "0xC77f7fed3b5Cc8249aDc428c5F44C9063B9734b4"
      ],
      "transaction": {
        "from": "0xc77f7fed3b5cc8249adc428c5f44c9063b9734b4",
        "to": "0xbf4a322f1496e5c3d34a9bcdb4c60567b38c7de2",
        "gas": "0x1b309",
        "value": "0xde0b6b3a7640000",
        "input": "0xf088d547000000000000000000000000c77f7fed3b5cc8249adc428c5f44c9063b9734b4",
        "nonce": "0xa6e",
        "chainId": "0xaa36a7"
      },
      "additionalContracts": [],
      "isFixedGasLimit": false
    }
  ],
  "receipts": [
    {
      "status": "0x1",
      "cumulativeGasUsed": "0xc6101a",
      "logs": [
        {
          "address": "0xbf4a322f1496e5c3d34a9bcdb4c60567b38c7de2",
          "topics": [
            "0xddf252ad1be2c89b69c2b068fc378daa952ba7f163c4a11628f55a4df523b3ef",
            "0x0000000000000000000000000000000000000000000000000000000000000000",
            "0x000000000000000000000000c77f7fed3b5cc8249adc428c5f44c9063b9734b4"
          ],
          "data": "0x00000000000000000000000000000000000000000000003546818f0d66e768bc",
          "blockHash": "0x11fcdd2714f99373678636d3df80ba966bc1fbe8b5c5f8f6ebb950a5377a9782",
          "blockNumber": "0x725a4b",
          "transactionHash": "0x8f1c9ae62e7b2af6bc7bffc3c571f87a07fa1f9b6dc49a01b89337f90f0e2ae1",
          "transactionIndex": "0x7c",
          "logIndex": "0xa3",
          "removed": false
        },
        {
          "address": "0xbf4a322f1496e5c3d34a9bcdb4c60567b38c7de2",
          "topics": [
            "0xddf252ad1be2c89b69c2b068fc378daa952ba7f163c4a11628f55a4df523b3ef",
            "0x0000000000000000000000000000000000000000000000000000000000000000",
            "0x000000000000000000000000c77f7fed3b5cc8249adc428c5f44c9063b9734b4"
          ],
          "data": "0x000000000000000000000000000000000000000000000000295ec3e337388ae1",
          "blockHash": "0x11fcdd2714f99373678636d3df80ba966bc1fbe8b5c5f8f6ebb950a5377a9782",
          "blockNumber": "0x725a4b",
          "transactionHash": "0x8f1c9ae62e7b2af6bc7bffc3c571f87a07fa1f9b6dc49a01b89337f90f0e2ae1",
          "transactionIndex": "0x7c",
          "logIndex": "0xa4",
          "removed": false
        },
        {
          "address": "0xbf4a322f1496e5c3d34a9bcdb4c60567b38c7de2",
          "topics": [
            "0x4afcb4a87cdbd9974efdb92ee48bc8d7cd0ae4bf217004db3d080cbaee652ca7"
          ],
          "data": "0x0000000000000000000000000000000000000000000000000000000067872dd400000000000000000000000000000000000000000000000000039434bad2d9310000000000000000000000000000000000000000000000000de0b6b3a7640000",
          "blockHash": "0x11fcdd2714f99373678636d3df80ba966bc1fbe8b5c5f8f6ebb950a5377a9782",
          "blockNumber": "0x725a4b",
          "transactionHash": "0x8f1c9ae62e7b2af6bc7bffc3c571f87a07fa1f9b6dc49a01b89337f90f0e2ae1",
          "transactionIndex": "0x7c",
          "logIndex": "0xa5",
          "removed": false
        }
      ],
      "logsBloom": "0x00000000000000000000000000000000000000000000000000000000000000000000000000000000000000000000000000000000000000004000000000000000000000000000000000000008000000000000001000000000000000000000000000000000020000000000000000000800020000000000000000000010000000000000000000000000000000000000000000000000000008000000010000000000000000000000000000000000000000004000000000000000000000000000000000000002000000800000000000001000000000000000080000000000000020000000000000000000000000000000000000000000000000000000000000000000",
      "type": "0x2",
      "transactionHash": "0x8f1c9ae62e7b2af6bc7bffc3c571f87a07fa1f9b6dc49a01b89337f90f0e2ae1",
      "transactionIndex": "0x7c",
      "blockHash": "0x11fcdd2714f99373678636d3df80ba966bc1fbe8b5c5f8f6ebb950a5377a9782",
      "blockNumber": "0x725a4b",
      "gasUsed": "0x13af6",
      "effectiveGasPrice": "0x34be859b8",
      "from": "0xc77f7fed3b5cc8249adc428c5f44c9063b9734b4",
      "to": "0xbf4a322f1496e5c3d34a9bcdb4c60567b38c7de2",
      "contractAddress": null
    }
  ],
  "libraries": [],
  "pending": [],
  "returns": {},
  "timestamp": 1736912341,
  "chain": 11155111,
  "commit": "51a374b"
}