{
  "transactions": [
    {
      "hash": "0x9770b1e90d408fb0a84605039a6827f6710dce8aed16d4654791db4b8d4a6829",
      "transactionType": "CALL",
      "contractName": null,
      "contractAddress": "0x8aafd3ede9adb0ff97c7aebce82a919afb1c8764",
      "function": "sell(uint256)",
      "arguments": [
        "743184124961067369891"
      ],
      "transaction": {
        "from": "0xc77f7fed3b5cc8249adc428c5f44c9063b9734b4",
        "to": "0x8aafd3ede9adb0ff97c7aebce82a919afb1c8764",
        "gas": "0x17270",
        "value": "0x0",
        "input": "0xe4849b3200000000000000000000000000000000000000000000002849c0681805f005a3",
        "nonce": "0xf2b",
        "chainId": "0xaa36a7"
      },
      "additionalContracts": [],
      "isFixedGasLimit": false
    }
  ],
  "receipts": [
    {
      "status": "0x1",
      "cumulativeGasUsed": "0xa95eec",
      "logs": [
        {
          "address": "0x8aafd3ede9adb0ff97c7aebce82a919afb1c8764",
          "topics": [
            "0xddf252ad1be2c89b69c2b068fc378daa952ba7f163c4a11628f55a4df523b3ef",
            "0x000000000000000000000000c77f7fed3b5cc8249adc428c5f44c9063b9734b4",
            "0x0000000000000000000000000000000000000000000000000000000000000000"
          ],
          "data": "0x000000000000000000000000000000000000000000000027f73dd7e6add37a54",
          "blockHash": "0x4c74b7fef83d35048af4397612ce372a37fafbd7b256112ef736cbe875f0a783",
          "blockNumber": "0x73157f",
          "transactionHash": "0x9770b1e90d408fb0a84605039a6827f6710dce8aed16d4654791db4b8d4a6829",
          "transactionIndex": "0x7c",
          "logIndex": "0x86",
          "removed": false
        },
        {
          "address": "0x8aafd3ede9adb0ff97c7aebce82a919afb1c8764",
          "topics": [
            "0xddf252ad1be2c89b69c2b068fc378daa952ba7f163c4a11628f55a4df523b3ef",
            "0x000000000000000000000000c77f7fed3b5cc8249adc428c5f44c9063b9734b4",
            "0x000000000000000000000000c77f7fed3b5cc8249adc428c5f44c9063b9734b4"
          ],
          "data": "0x00000000000000000000000000000000000000000000000052829031581c8b4f",
          "blockHash": "0x4c74b7fef83d35048af4397612ce372a37fafbd7b256112ef736cbe875f0a783",
          "blockNumber": "0x73157f",
          "transactionHash": "0x9770b1e90d408fb0a84605039a6827f6710dce8aed16d4654791db4b8d4a6829",
          "transactionIndex": "0x7c",
          "logIndex": "0x87",
          "removed": false
        },
        {
          "address": "0x8aafd3ede9adb0ff97c7aebce82a919afb1c8764",
          "topics": [
            "0x4afcb4a87cdbd9974efdb92ee48bc8d7cd0ae4bf217004db3d080cbaee652ca7"
          ],
          "data": "0x00000000000000000000000000000000000000000000000000000000678ffea00000000000000000000000000000000000000000000000000004bf8b5c4291f90000000000000000000000000000000000000000000000000dc8216b1fe1bc8d",
          "blockHash": "0x4c74b7fef83d35048af4397612ce372a37fafbd7b256112ef736cbe875f0a783",
          "blockNumber": "0x73157f",
          "transactionHash": "0x9770b1e90d408fb0a84605039a6827f6710dce8aed16d4654791db4b8d4a6829",
          "transactionIndex": "0x7c",
          "logIndex": "0x88",
          "removed": false
        }
      ],
      "logsBloom": "0x00000000000000000000000000000000000000000600000000000000000000000000000000000000000000000000000000000000000000004000000000000000000000000000004000000008000000000000000000000000000000000000000000000000020000000000000000000800020000000000000000000010000000000000000000000000000000000000000000000000000000000000010000000000000000000000000000000000000000004000000000000000000000000000000000000002000000800000000000000000000000000000080000000000000020000000000000000000000000000000000000000000000000000000000000000000",
      "type": "0x2",
      "transactionHash": "0x9770b1e90d408fb0a84605039a6827f6710dce8aed16d4654791db4b8d4a6829",
      "transactionIndex": "0x7c",
      "blockHash": "0x4c74b7fef83d35048af4397612ce372a37fafbd7b256112ef736cbe875f0a783",
      "blockNumber": "0x73157f",
      "gasUsed": "0xfd4b",
      "effectiveGasPrice": "0x71a31dab",
      "from": "0xc77f7fed3b5cc8249adc428c5f44c9063b9734b4",
      "to": "0x8aafd3ede9adb0ff97c7aebce82a919afb1c8764",
      "contractAddress": null
    }
  ],
  "libraries": [],
  "pending": [],
  "returns": {},
  "timestamp": 1737490081,
  "chain": 11155111,
  "commit": "1d2fb70"
}