{
  "transactions": [
    {
      "hash": "0x879d2b3c1b279598d2b7c8d027477d7dd6216e9050966a79df5e73d64e5df197",
      "transactionType": "CALL",
      "contractName": null,
      "contractAddress": "0xbf4a322f1496e5c3d34a9bcdb4c60567b38c7de2",
      "function": "buy(address)",
      "arguments": [
        "0xC77f7fed3b5Cc8249aDc428c5F44C9063B9734b4"
      ],
      "transaction": {
        "from": "0xc77f7fed3b5cc8249adc428c5f44c9063b9734b4",
        "to": "0xbf4a322f1496e5c3d34a9bcdb4c60567b38c7de2",
        "gas": "0x1b309",
        "value": "0xde0b6b3a7640000",
        "input": "0xf088d547000000000000000000000000c77f7fed3b5cc8249adc428c5f44c9063b9734b4",
        "nonce": "0xd40",
        "chainId": "0xaa36a7"
      },
      "additionalContracts": [],
      "isFixedGasLimit": false
    }
  ],
  "receipts": [
    {
      "status": "0x1",
      "cumulativeGasUsed": "0xd36ff7",
      "logs": [
        {
          "address": "0xbf4a322f1496e5c3d34a9bcdb4c60567b38c7de2",
          "topics": [
            "0xddf252ad1be2c89b69c2b068fc378daa952ba7f163c4a11628f55a4df523b3ef",
            "0x0000000000000000000000000000000000000000000000000000000000000000",
            "0x000000000000000000000000c77f7fed3b5cc8249adc428c5f44c9063b9734b4"
          ],
          "data": "0x000000000000000000000000000000000000000000000034c024bb98eff65f88",
          "blockHash": "0x6d54fa133e1c61511bdd2d4225b239e0d8b0397ffbb7c57287d7c03dd395c195",
          "blockNumber": "0x725da6",
          "transactionHash": "0x879d2b3c1b279598d2b7c8d027477d7dd6216e9050966a79df5e73d64e5df197",
          "transactionIndex": "0x6b",
          "logIndex": "0x6f",
          "removed": false
        },
        {
          "address": "0xbf4a322f1496e5c3d34a9bcdb4c60567b38c7de2",
          "topics": [
            "0xddf252ad1be2c89b69c2b068fc378daa952ba7f163c4a11628f55a4df523b3ef",
            "0x0000000000000000000000000000000000000000000000000000000000000000",
            "0x000000000000000000000000c77f7fed3b5cc8249adc428c5f44c9063b9734b4"
          ],
          "data": "0x00000000000000000000000000000000000000000000000028f66d9433140f4a",
          "blockHash": "0x6d54fa133e1c61511bdd2d4225b239e0d8b0397ffbb7c57287d7c03dd395c195",
          "blockNumber": "0x725da6",
          "transactionHash": "0x879d2b3c1b279598d2b7c8d027477d7dd6216e9050966a79df5e73d64e5df197",
          "transactionIndex": "0x6b",
          "logIndex": "0x70",
          "removed": false
        },
        {
          "address": "0xbf4a322f1496e5c3d34a9bcdb4c60567b38c7de2",
          "topics": [
            "0x4afcb4a87cdbd9974efdb92ee48bc8d7cd0ae4bf217004db3d080cbaee652ca7"
          ],
          "data": "0x000000000000000000000000000000000000000000000000000000006787563c00000000000000000000000000000000000000000000000000039d52674d80200000000000000000000000000000000000000000000000000de0b6b3a7640000",
          "blockHash": "0x6d54fa133e1c61511bdd2d4225b239e0d8b0397ffbb7c57287d7c03dd395c195",
          "blockNumber": "0x725da6",
          "transactionHash": "0x879d2b3c1b279598d2b7c8d027477d7dd6216e9050966a79df5e73d64e5df197",
          "transactionIndex": "0x6b",
          "logIndex": "0x71",
          "removed": false
        }
      ],
      "logsBloom": "0x00000000000000000000000000000000000000000000000000000000000000000000000000000000000000000000000000000000000000004000000000000000000000000000000000000008000000000000001000000000000000000000000000000000020000000000000000000800020000000000000000000010000000000000000000000000000000000000000000000000000008000000010000000000000000000000000000000000000000004000000000000000000000000000000000000002000000800000000000001000000000000000080000000000000020000000000000000000000000000000000000000000000000000000000000000000",
      "type": "0x2",
      "transactionHash": "0x879d2b3c1b279598d2b7c8d027477d7dd6216e9050966a79df5e73d64e5df197",
      "transactionIndex": "0x6b",
      "blockHash": "0x6d54fa133e1c61511bdd2d4225b239e0d8b0397ffbb7c57287d7c03dd395c195",
      "blockNumber": "0x725da6",
      "gasUsed": "0x13af6",
      "effectiveGasPrice": "0x4b4444cb1",
      "from": "0xc77f7fed3b5cc8249adc428c5f44c9063b9734b4",
      "to": "0xbf4a322f1496e5c3d34a9bcdb4c60567b38c7de2",
      "contractAddress": null
    }
  ],
  "libraries": [],
  "pending": [],
  "returns": {},
  "timestamp": 1736922686,
  "chain": 11155111,
  "commit": "51a374b"
}