{
  "transactions": [
    {
      "hash": "0xdc9aaad0e102ab798dc45eefbd75e4cfb1b914129e954c65339f54ee9a563a80",
      "transactionType": "CALL",
      "contractName": null,
      "contractAddress": "0x5eb9cc76c3506942c1c0ead70e877dd5e4f00cb0",
      "function": "buy(address)",
      "arguments": [
        "0xC77f7fed3b5Cc8249aDc428c5F44C9063B9734b4"
      ],
      "transaction": {
        "from": "0xc77f7fed3b5cc8249adc428c5f44c9063b9734b4",
        "to": "0x5eb9cc76c3506942c1c0ead70e877dd5e4f00cb0",
        "gas": "0x1b30c",
        "value": "0xde0b6b3a7640000",
        "input": "0xf088d547000000000000000000000000c77f7fed3b5cc8249adc428c5f44c9063b9734b4",
        "nonce": "0x412",
        "chainId": "0xaa36a7"
      },
      "additionalContracts": [],
      "isFixedGasLimit": false
    }
  ],
  "receipts": [
    {
      "status": "0x1",
      "cumulativeGasUsed": "0x1293786",
      "logs": [
        {
          "address": "0x5eb9cc76c3506942c1c0ead70e877dd5e4f00cb0",
          "topics": [
            "0xddf252ad1be2c89b69c2b068fc378daa952ba7f163c4a11628f55a4df523b3ef",
            "0x0000000000000000000000000000000000000000000000000000000000000000",
            "0x000000000000000000000000c77f7fed3b5cc8249adc428c5f44c9063b9734b4"
          ],
          "data": "0x00000000000000000000000000000000000000000000003574f80f8f641546d0",
          "blockHash": "0xf88ba837b0c74a5aaa565229207836497406c4bd292ed1ca13fd13f0172c9b8b",
          "blockNumber": "0x725022",
          "transactionHash": "0xdc9aaad0e102ab798dc45eefbd75e4cfb1b914129e954c65339f54ee9a563a80",
          "transactionIndex": "0x6d",
          "logIndex": "0xaf",
          "removed": false
        },
        {
          "address": "0x5eb9cc76c3506942c1c0ead70e877dd5e4f00cb0",
          "topics": [
            "0xddf252ad1be2c89b69c2b068fc378daa952ba7f163c4a11628f55a4df523b3ef",
            "0x0000000000000000000000000000000000000000000000000000000000000000",
            "0x000000000000000000000000c77f7fed3b5cc8249adc428c5f44c9063b9734b4"
          ],
          "data": "0x0000000000000000000000000000000000000000000000002982d85fc324cd67",
          "blockHash": "0xf88ba837b0c74a5aaa565229207836497406c4bd292ed1ca13fd13f0172c9b8b",
          "blockNumber": "0x725022",
          "transactionHash": "0xdc9aaad0e102ab798dc45eefbd75e4cfb1b914129e954c65339f54ee9a563a80",
          "transactionIndex": "0x6d",
          "logIndex": "0xb0",
          "removed": false
        },
        {
          "address": "0x5eb9cc76c3506942c1c0ead70e877dd5e4f00cb0",
          "topics": [
            "0x4afcb4a87cdbd9974efdb92ee48bc8d7cd0ae4bf217004db3d080cbaee652ca7"
          ],
          "data": "0x000000000000000000000000000000000000000000000000000000006786b364000000000000000000000000000000000000000000000000000391161a1ca7660000000000000000000000000000000000000000000000000de0b6b3a7640000",
          "blockHash": "0xf88ba837b0c74a5aaa565229207836497406c4bd292ed1ca13fd13f0172c9b8b",
          "blockNumber": "0x725022",
          "transactionHash": "0xdc9aaad0e102ab798dc45eefbd75e4cfb1b914129e954c65339f54ee9a563a80",
          "transactionIndex": "0x6d",
          "logIndex": "0xb1",
          "removed": false
        }
      ],
      "logsBloom": "0x00000000000000000000000000000000000000000000000000000000000000000000000000000000000000000000000000000000000000004000000000000000000000000000000000000008000000000000000000000000000000000000000000000000020000000000000004000800020000000000000000000010000000000000000000000000000000000000000000000000000000000000010000000000000000000000000000000000000000004000000000000000000000000000020000000002000000800000008000000000000000000000080000000000000020000000000000000000000000000000000000000000000000000000000000000000",
      "type": "0x2",
      "transactionHash": "0xdc9aaad0e102ab798dc45eefbd75e4cfb1b914129e954c65339f54ee9a563a80",
      "transactionIndex": "0x6d",
      "blockHash": "0xf88ba837b0c74a5aaa565229207836497406c4bd292ed1ca13fd13f0172c9b8b",
      "blockNumber": "0x725022",
      "gasUsed": "0x13af8",
      "effectiveGasPrice": "0x2f000dd8d",
      "from": "0xc77f7fed3b5cc8249adc428c5f44c9063b9734b4",
      "to": "0x5eb9cc76c3506942c1c0ead70e877dd5e4f00cb0",
      "contractAddress": null
    }
  ],
  "libraries": [],
  "pending": [],
  "returns": {},
  "timestamp": 1736880997,
  "chain": 11155111,
  "commit": "51a374b"
}