{
  "transactions": [
    {
      "hash": "0xb3e7a3e017389e37ff308c6678d3bf29d32c0221fc6578337d19739edd0c0ad0",
      "transactionType": "CALL",
      "contractName": null,
      "contractAddress": "0x8aafd3ede9adb0ff97c7aebce82a919afb1c8764",
      "function": "sell(uint256)",
      "arguments": [
        "47807216949627241"
      ],
      "transaction": {
        "from": "0xc77f7fed3b5cc8249adc428c5f44c9063b9734b4",
        "to": "0x8aafd3ede9adb0ff97c7aebce82a919afb1c8764",
        "gas": "0x1724d",
        "value": "0x0",
        "input": "0xe4849b3200000000000000000000000000000000000000000000000000a9d86917fb8969",
        "nonce": "0xed0",
        "chainId": "0xaa36a7"
      },
      "additionalContracts": [],
      "isFixedGasLimit": false
    }
  ],
  "receipts": [
    {
      "status": "0x1",
      "cumulativeGasUsed": "0x127d2c0",
      "logs": [
        {
          "address": "0x8aafd3ede9adb0ff97c7aebce82a919afb1c8764",
          "topics": [
            "0xddf252ad1be2c89b69c2b068fc378daa952ba7f163c4a11628f55a4df523b3ef",
            "0x000000000000000000000000c77f7fed3b5cc8249adc428c5f44c9063b9734b4",
            "0x0000000000000000000000000000000000000000000000000000000000000000"
          ],
          "data": "0x00000000000000000000000000000000000000000000000000a87c913682bd90",
          "blockHash": "0xdfe793d94aed2c81bf90dc1f855de672fe5ecf8b73296538abf77cc2b9f3006b",
          "blockNumber": "0x73143c",
          "transactionHash": "0xb3e7a3e017389e37ff308c6678d3bf29d32c0221fc6578337d19739edd0c0ad0",
          "transactionIndex": "0xa3",
          "logIndex": "0x135",
          "removed": false
        },
        {
          "address": "0x8aafd3ede9adb0ff97c7aebce82a919afb1c8764",
          "topics": [
            "0xddf252ad1be2c89b69c2b068fc378daa952ba7f163c4a11628f55a4df523b3ef",
            "0x000000000000000000000000c77f7fed3b5cc8249adc428c5f44c9063b9734b4",
            "0x000000000000000000000000c77f7fed3b5cc8249adc428c5f44c9063b9734b4"
          ],
          "data": "0x00000000000000000000000000000000000000000000000000015bd7e178cbd9",
          "blockHash": "0xdfe793d94aed2c81bf90dc1f855de672fe5ecf8b73296538abf77cc2b9f3006b",
          "blockNumber": "0x73143c",
          "transactionHash": "0xb3e7a3e017389e37ff308c6678d3bf29d32c0221fc6578337d19739edd0c0ad0",
          "transactionIndex": "0xa3",
          "logIndex": "0x136",
          "removed": false
        },
        {
          "address": "0x8aafd3ede9adb0ff97c7aebce82a919afb1c8764",
          "topics": [
            "0x4afcb4a87cdbd9974efdb92ee48bc8d7cd0ae4bf217004db3d080cbaee652ca7"
          ],
          "data": "0x00000000000000000000000000000000000000000000000000000000678fef7c0000000000000000000000000000000000000000000000000004b97238bd4da1000000000000000000000000000000000000000000000000000039d1fc3a3ad0",
          "blockHash": "0xdfe793d94aed2c81bf90dc1f855de672fe5ecf8b73296538abf77cc2b9f3006b",
          "blockNumber": "0x73143c",
          "transactionHash": "0xb3e7a3e017389e37ff308c6678d3bf29d32c0221fc6578337d19739edd0c0ad0",
          "transactionIndex": "0xa3",
          "logIndex": "0x137",
          "removed": false
        }
      ],
      "logsBloom": "0x00000000000000000000000000000000000000000600000000000000000000000000000000000000000000000000000000000000000000004000000000000000000000000000004000000008000000000000000000000000000000000000000000000000020000000000000000000800020000000000000000000010000000000000000000000000000000000000000000000000000000000000010000000000000000000000000000000000000000004000000000000000000000000000000000000002000000800000000000000000000000000000080000000000000020000000000000000000000000000000000000000000000000000000000000000000",
      "type": "0x2",
      "transactionHash": "0xb3e7a3e017389e37ff308c6678d3bf29d32c0221fc6578337d19739edd0c0ad0",
      "transactionIndex": "0xa3",
      "blockHash": "0xdfe793d94aed2c81bf90dc1f855de672fe5ecf8b73296538abf77cc2b9f3006b",
      "blockNumber": "0x73143c",
      "gasUsed": "0xfd33",
      "effectiveGasPrice": "0x967a85d8",
      "from": "0xc77f7fed3b5cc8249adc428c5f44c9063b9734b4",
      "to": "0x8aafd3ede9adb0ff97c7aebce82a919afb1c8764",
      "contractAddress": null
    }
  ],
  "libraries": [],
  "pending": [],
  "returns": {},
  "timestamp": 1737486205,
  "chain": 11155111,
  "commit": "51a374b"
}