{
  "transactions": [
    {
      "hash": "0x1d81f08596e61d72183de3e3ca0a65c983b895e5f063acbc50285e4c9bb66778",
      "transactionType": "CALL",
      "contractName": null,
      "contractAddress": "0x8aafd3ede9adb0ff97c7aebce82a919afb1c8764",
      "function": "sell(uint256)",
      "arguments": [
        "363989907461811"
      ],
      "transaction": {
        "from": "0xc77f7fed3b5cc8249adc428c5f44c9063b9734b4",
        "to": "0x8aafd3ede9adb0ff97c7aebce82a919afb1c8764",
        "gas": "0x1724d",
        "value": "0x0",
        "input": "0xe4849b3200000000000000000000000000000000000000000000000000014b0c0122d6b3",
        "nonce": "0x1076",
        "chainId": "0xaa36a7"
      },
      "additionalContracts": [],
      "isFixedGasLimit": false
    }
  ],
  "receipts": [
    {
      "status": "0x1",
      "cumulativeGasUsed": "0xbc86ee",
      "logs": [
        {
          "address": "0x8aafd3ede9adb0ff97c7aebce82a919afb1c8764",
          "topics": [
            "0xddf252ad1be2c89b69c2b068fc378daa952ba7f163c4a11628f55a4df523b3ef",
            "0x000000000000000000000000c77f7fed3b5cc8249adc428c5f44c9063b9734b4",
            "0x0000000000000000000000000000000000000000000000000000000000000000"
          ],
          "data": "0x0000000000000000000000000000000000000000000000000001486605391685",
          "blockHash": "0x7bd72ea6f74dba9b20bd521b2431c631f1be99dba03b3477183aa6adf4f7f744",
          "blockNumber": "0x7316fe",
          "transactionHash": "0x1d81f08596e61d72183de3e3ca0a65c983b895e5f063acbc50285e4c9bb66778",
          "transactionIndex": "0x84",
          "logIndex": "0xc4",
          "removed": false
        },
        {
          "address": "0x8aafd3ede9adb0ff97c7aebce82a919afb1c8764",
          "topics": [
            "0xddf252ad1be2c89b69c2b068fc378daa952ba7f163c4a11628f55a4df523b3ef",
            "0x000000000000000000000000c77f7fed3b5cc8249adc428c5f44c9063b9734b4",
            "0x000000000000000000000000c77f7fed3b5cc8249adc428c5f44c9063b9734b4"
          ],
          "data": "0x000000000000000000000000000000000000000000000000000002a5fbe9c02e",
          "blockHash": "0x7bd72ea6f74dba9b20bd521b2431c631f1be99dba03b3477183aa6adf4f7f744",
          "blockNumber": "0x7316fe",
          "transactionHash": "0x1d81f08596e61d72183de3e3ca0a65c983b895e5f063acbc50285e4c9bb66778",
          "transactionIndex": "0x84",
          "logIndex": "0xc5",
          "removed": false
        },
        {
          "address": "0x8aafd3ede9adb0ff97c7aebce82a919afb1c8764",
          "topics": [
            "0x4afcb4a87cdbd9974efdb92ee48bc8d7cd0ae4bf217004db3d080cbaee652ca7"
          ],
          "data": "0x00000000000000000000000000000000000000000000000000000000679010a00000000000000000000000000000000000000000000000000004f7d3559884100000000000000000000000000000000000000000000000000000007682b05e14",
          "blockHash": "0x7bd72ea6f74dba9b20bd521b2431c631f1be99dba03b3477183aa6adf4f7f744",
          "blockNumber": "0x7316fe",
          "transactionHash": "0x1d81f08596e61d72183de3e3ca0a65c983b895e5f063acbc50285e4c9bb66778",
          "transactionIndex": "0x84",
          "logIndex": "0xc6",
          "removed": false
        }
      ],
      "logsBloom": "0x00000000000000000000000000000000000000000600000000000000000000000000000000000000000000000000000000000000000000004000000000000000000000000000004000000008000000000000000000000000000000000000000000000000020000000000000000000800020000000000000000000010000000000000000000000000000000000000000000000000000000000000010000000000000000000000000000000000000000004000000000000000000000000000000000000002000000800000000000000000000000000000080000000000000020000000000000000000000000000000000000000000000000000000000000000000",
      "type": "0x2",
      "transactionHash": "0x1d81f08596e61d72183de3e3ca0a65c983b895e5f063acbc50285e4c9bb66778",
      "transactionIndex": "0x84",
      "blockHash": "0x7bd72ea6f74dba9b20bd521b2431c631f1be99dba03b3477183aa6adf4f7f744",
      "blockNumber": "0x7316fe",
      "gasUsed": "0xfd33",
      "effectiveGasPrice": "0x4aa73e26",
      "from": "0xc77f7fed3b5cc8249adc428c5f44c9063b9734b4",
      "to": "0x8aafd3ede9adb0ff97c7aebce82a919afb1c8764",
      "contractAddress": null
    }
  ],
  "libraries": [],
  "pending": [],
  "returns": {},
  "timestamp": 1737494689,
  "chain": 11155111,
  "commit": "1d2fb70"
}