{
  "transactions": [
    {
      "hash": "0x02bea20a184169a7f4112f17b3bddadec1c75743a43ab8fa2773f74dcb6c9c8e",
      "transactionType": "CALL",
      "contractName": null,
      "contractAddress": "0x8aafd3ede9adb0ff97c7aebce82a919afb1c8764",
      "function": "sell(uint256)",
      "arguments": [
        "676861936013584735374"
      ],
      "transaction": {
        "from": "0xc77f7fed3b5cc8249adc428c5f44c9063b9734b4",
        "to": "0x8aafd3ede9adb0ff97c7aebce82a919afb1c8764",
        "gas": "0x17270",
        "value": "0x0",
        "input": "0xe4849b32000000000000000000000000000000000000000000000024b158a8a2d8e59c8e",
        "nonce": "0x122b",
        "chainId": "0xaa36a7"
      },
      "additionalContracts": [],
      "isFixedGasLimit": false
    }
  ],
  "receipts": [
    {
      "status": "0x1",
      "cumulativeGasUsed": "0xb01ae3",
      "logs": [
        {
          "address": "0x8aafd3ede9adb0ff97c7aebce82a919afb1c8764",
          "topics": [
            "0xddf252ad1be2c89b69c2b068fc378daa952ba7f163c4a11628f55a4df523b3ef",
            "0x000000000000000000000000c77f7fed3b5cc8249adc428c5f44c9063b9734b4",
            "0x0000000000000000000000000000000000000000000000000000000000000000"
          ],
          "data": "0x000000000000000000000000000000000000000000000024663315e108505194",
          "blockHash": "0x98055c5b960076f1564b94e16e031d26267de6c88fc0a1584d6f01bd42fcf492",
          "blockNumber": "0x731909",
          "transactionHash": "0x02bea20a184169a7f4112f17b3bddadec1c75743a43ab8fa2773f74dcb6c9c8e",
          "transactionIndex": "0x88",
          "logIndex": "0x9c",
          "removed": false
        },
        {
          "address": "0x8aafd3ede9adb0ff97c7aebce82a919afb1c8764",
          "topics": [
            "0xddf252ad1be2c89b69c2b068fc378daa952ba7f163c4a11628f55a4df523b3ef",
            "0x000000000000000000000000c77f7fed3b5cc8249adc428c5f44c9063b9734b4",
            "0x000000000000000000000000c77f7fed3b5cc8249adc428c5f44c9063b9734b4"
          ],
          "data": "0x0000000000000000000000000000000000000000000000004b2592c1d0954afa",
          "blockHash": "0x98055c5b960076f1564b94e16e031d26267de6c88fc0a1584d6f01bd42fcf492",
          "blockNumber": "0x731909",
          "transactionHash": "0x02bea20a184169a7f4112f17b3bddadec1c75743a43ab8fa2773f74dcb6c9c8e",
          "transactionIndex": "0x88",
          "logIndex": "0x9d",
          "removed": false
        },
        {
          "address": "0x8aafd3ede9adb0ff97c7aebce82a919afb1c8764",
          "topics": [
            "0x4afcb4a87cdbd9974efdb92ee48bc8d7cd0ae4bf217004db3d080cbaee652ca7"
          ],
          "data": "0x000000000000000000000000000000000000000000000000000000006790293c000000000000000000000000000000000000000000000000000537bc6db31cd50000000000000000000000000000000000000000000000000dc8f096c26cc80c",
          "blockHash": "0x98055c5b960076f1564b94e16e031d26267de6c88fc0a1584d6f01bd42fcf492",
          "blockNumber": "0x731909",
          "transactionHash": "0x02bea20a184169a7f4112f17b3bddadec1c75743a43ab8fa2773f74dcb6c9c8e",
          "transactionIndex": "0x88",
          "logIndex": "0x9e",
          "removed": false
        }
      ],
      "logsBloom": "0x00000000000000000000000000000000000000000600000000000000000000000000000000000000000000000000000000000000000000004000000000000000000000000000004000000008000000000000000000000000000000000000000000000000020000000000000000000800020000000000000000000010000000000000000000000000000000000000000000000000000000000000010000000000000000000000000000000000000000004000000000000000000000000000000000000002000000800000000000000000000000000000080000000000000020000000000000000000000000000000000000000000000000000000000000000000",
      "type": "0x2",
      "transactionHash": "0x02bea20a184169a7f4112f17b3bddadec1c75743a43ab8fa2773f74dcb6c9c8e",
      "transactionIndex": "0x88",
      "blockHash": "0x98055c5b960076f1564b94e16e031d26267de6c88fc0a1584d6f01bd42fcf492",
      "blockNumber": "0x731909",
      "gasUsed": "0xfd4b",
      "effectiveGasPrice": "0x5856c305",
      "from": "0xc77f7fed3b5cc8249adc428c5f44c9063b9734b4",
      "to": "0x8aafd3ede9adb0ff97c7aebce82a919afb1c8764",
      "contractAddress": null
    }
  ],
  "libraries": [],
  "pending": [],
  "returns": {},
  "timestamp": 1737500990,
  "chain": 11155111,
  "commit": "1d2fb70"
}