{
  "transactions": [
    {
      "hash": "0x65bf963979c5b11cfa726916fd7dbc6b32d08ac4852b4d18e8d397e46fabad0d",
      "transactionType": "CALL",
      "contractName": null,
      "contractAddress": "0x8aafd3ede9adb0ff97c7aebce82a919afb1c8764",
      "function": "sell(uint256)",
      "arguments": [
        "196290798"
      ],
      "transaction": {
        "from": "0xc77f7fed3b5cc8249adc428c5f44c9063b9734b4",
        "to": "0x8aafd3ede9adb0ff97c7aebce82a919afb1c8764",
        "gas": "0x14e6c",
        "value": "0x0",
        "input": "0xe4849b32000000000000000000000000000000000000000000000000000000000bb328ee",
        "nonce": "0xe8e",
        "chainId": "0xaa36a7"
      },
      "additionalContracts": [],
      "isFixedGasLimit": false
    }
  ],
  "receipts": [
    {
      "status": "0x1",
      "cumulativeGasUsed": "0xe223e1",
      "logs": [
        {
          "address": "0x8aafd3ede9adb0ff97c7aebce82a919afb1c8764",
          "topics": [
            "0xddf252ad1be2c89b69c2b068fc378daa952ba7f163c4a11628f55a4df523b3ef",
            "0x000000000000000000000000c77f7fed3b5cc8249adc428c5f44c9063b9734b4",
            "0x0000000000000000000000000000000000000000000000000000000000000000"
          ],
          "data": "0x000000000000000000000000000000000000000000000000000000000b9b32d8",
          "blockHash": "0x27bd81e4e212118dbf8f436048ac78885324c38eca14e8d18dbffd107e9b67e0",
          "blockNumber": "0x7313eb",
          "transactionHash": "0x65bf963979c5b11cfa726916fd7dbc6b32d08ac4852b4d18e8d397e46fabad0d",
          "transactionIndex": "0xa6",
          "logIndex": "0x118",
          "removed": false
        },
        {
          "address": "0x8aafd3ede9adb0ff97c7aebce82a919afb1c8764",
          "topics": [
            "0xddf252ad1be2c89b69c2b068fc378daa952ba7f163c4a11628f55a4df523b3ef",
            "0x000000000000000000000000c77f7fed3b5cc8249adc428c5f44c9063b9734b4",
            "0x000000000000000000000000c77f7fed3b5cc8249adc428c5f44c9063b9734b4"
          ],
          "data": "0x000000000000000000000000000000000000000000000000000000000017f616",
          "blockHash": "0x27bd81e4e212118dbf8f436048ac78885324c38eca14e8d18dbffd107e9b67e0",
          "blockNumber": "0x7313eb",
          "transactionHash": "0x65bf963979c5b11cfa726916fd7dbc6b32d08ac4852b4d18e8d397e46fabad0d",
          "transactionIndex": "0xa6",
          "logIndex": "0x119",
          "removed": false
        },
        {
          "address": "0x8aafd3ede9adb0ff97c7aebce82a919afb1c8764",
          "topics": [
            "0x4afcb4a87cdbd9974efdb92ee48bc8d7cd0ae4bf217004db3d080cbaee652ca7"
          ],
          "data": "0x00000000000000000000000000000000000000000000000000000000678feb980000000000000000000000000000000000000000000000000004b68947811284000000000000000000000000000000000000000000000000000000000003f92f",
          "blockHash": "0x27bd81e4e212118dbf8f436048ac78885324c38eca14e8d18dbffd107e9b67e0",
          "blockNumber": "0x7313eb",
          "transactionHash": "0x65bf963979c5b11cfa726916fd7dbc6b32d08ac4852b4d18e8d397e46fabad0d",
          "transactionIndex": "0xa6",
          "logIndex": "0x11a",
          "removed": false
        }
      ],
      "logsBloom": "0x00000000000000000000000000000000000000000600000000000000000000000000000000000000000000000000000000000000000000004000000000000000000000000000004000000008000000000000000000000000000000000000000000000000020000000000000000000800020000000000000000000010000000000000000000000000000000000000000000000000000000000000010000000000000000000000000000000000000000004000000000000000000000000000000000000002000000800000000000000000000000000000080000000000000020000000000000000000000000000000000000000000000000000000000000000000",
      "type": "0x2",
      "transactionHash": "0x65bf963979c5b11cfa726916fd7dbc6b32d08ac4852b4d18e8d397e46fabad0d",
      "transactionIndex": "0xa6",
      "blockHash": "0x27bd81e4e212118dbf8f436048ac78885324c38eca14e8d18dbffd107e9b67e0",
      "blockNumber": "0x7313eb",
      "gasUsed": "0xf21f",
      "effectiveGasPrice": "0x8012f5cc",
      "from": "0xc77f7fed3b5cc8249adc428c5f44c9063b9734b4",
      "to": "0x8aafd3ede9adb0ff97c7aebce82a919afb1c8764",
      "contractAddress": null
    }
  ],
  "libraries": [],
  "pending": [],
  "returns": {},
  "timestamp": 1737485209,
  "chain": 11155111,
  "commit": "51a374b"
}