{
  "transactions": [
    {
      "hash": "0x99af59c0a9de47273182da78c09b42e1c7aa486e38b425267fff75b35370290a",
      "transactionType": "CALL",
      "contractName": null,
      "contractAddress": "0x8aafd3ede9adb0ff97c7aebce82a919afb1c8764",
      "function": "sell(uint256)",
      "arguments": [
        "5918323883542171128"
      ],
      "transaction": {
        "from": "0xc77f7fed3b5cc8249adc428c5f44c9063b9734b4",
        "to": "0x8aafd3ede9adb0ff97c7aebce82a919afb1c8764",
        "gas": "0x15dca",
        "value": "0x0",
        "input": "0xe4849b3200000000000000000000000000000000000000000000000052221c37283dcdf8",
        "nonce": "0xfd6",
        "chainId": "0xaa36a7"
      },
      "additionalContracts": [],
      "isFixedGasLimit": false
    }
  ],
  "receipts": [
    {
      "status": "0x1",
      "cumulativeGasUsed": "0x1ac528c",
      "logs": [
        {
          "address": "0x8aafd3ede9adb0ff97c7aebce82a919afb1c8764",
          "topics": [
            "0xddf252ad1be2c89b69c2b068fc378daa952ba7f163c4a11628f55a4df523b3ef",
            "0x000000000000000000000000c77f7fed3b5cc8249adc428c5f44c9063b9734b4",
            "0x0000000000000000000000000000000000000000000000000000000000000000"
          ],
          "data": "0x0000000000000000000000000000000000000000000000005179e6bde249991f",
          "blockHash": "0x383f2864cdac4a8f5b049aa9895705802348e956b739a365919e5ce4c9ee7f5b",
          "blockNumber": "0x731646",
          "transactionHash": "0x99af59c0a9de47273182da78c09b42e1c7aa486e38b425267fff75b35370290a",
          "transactionIndex": "0xd1",
          "logIndex": "0x152",
          "removed": false
        },
        {
          "address": "0x8aafd3ede9adb0ff97c7aebce82a919afb1c8764",
          "topics": [
            "0xddf252ad1be2c89b69c2b068fc378daa952ba7f163c4a11628f55a4df523b3ef",
            "0x000000000000000000000000c77f7fed3b5cc8249adc428c5f44c9063b9734b4",
            "0x000000000000000000000000c77f7fed3b5cc8249adc428c5f44c9063b9734b4"
          ],
          "data": "0x00000000000000000000000000000000000000000000000000a8357945f434d9",
          "blockHash": "0x383f2864cdac4a8f5b049aa9895705802348e956b739a365919e5ce4c9ee7f5b",
          "blockNumber": "0x731646",
          "transactionHash": "0x99af59c0a9de47273182da78c09b42e1c7aa486e38b425267fff75b35370290a",
          "transactionIndex": "0xd1",
          "logIndex": "0x153",
          "removed": false
        },
        {
          "address": "0x8aafd3ede9adb0ff97c7aebce82a919afb1c8764",
          "topics": [
            "0x4afcb4a87cdbd9974efdb92ee48bc8d7cd0ae4bf217004db3d080cbaee652ca7"
          ],
          "data": "0x00000000000000000000000000000000000000000000000000000000679007f40000000000000000000000000000000000000000000000000004c51eeccae5cb000000000000000000000000000000000000000000000000001c3afa39f8d8df",
          "blockHash": "0x383f2864cdac4a8f5b049aa9895705802348e956b739a365919e5ce4c9ee7f5b",
          "blockNumber": "0x731646",
          "transactionHash": "0x99af59c0a9de47273182da78c09b42e1c7aa486e38b425267fff75b35370290a",
          "transactionIndex": "0xd1",
          "logIndex": "0x154",
          "removed": false
        }
      ],
      "logsBloom": "0x00000000000000000000000000000000000000000600000000000000000000000000000000000000000000000000000000000000000000004000000000000000000000000000004000000008000000000000000000000000000000000000000000000000020000000000000000000800020000000000000000000010000000000000000000000000000000000000000000000000000000000000010000000000000000000000000000000000000000004000000000000000000000000000000000000002000000800000000000000000000000000000080000000000000020000000000000000000000000000000000000000000000000000000000000000000",
      "type": "0x2",
      "transactionHash": "0x99af59c0a9de47273182da78c09b42e1c7aa486e38b425267fff75b35370290a",
      "transactionIndex": "0xd1",
      "blockHash": "0x383f2864cdac4a8f5b049aa9895705802348e956b739a365919e5ce4c9ee7f5b",
      "blockNumber": "0x731646",
      "gasUsed": "0xfd3f",
      "effectiveGasPrice": "0x51bd6fb9",
      "from": "0xc77f7fed3b5cc8249adc428c5f44c9063b9734b4",
      "to": "0x8aafd3ede9adb0ff97c7aebce82a919afb1c8764",
      "contractAddress": null
    }
  ],
  "libraries": [],
  "pending": [],
  "returns": {},
  "timestamp": 1737492469,
  "chain": 11155111,
  "commit": "1d2fb70"
}