{
  "transactions": [
    {
      "hash": "0xcec2607a0f5ecbea515d95e669ddda9288eac52885a32513a8c91fc90440afce",
      "transactionType": "CALL",
      "contractName": null,
      "contractAddress": "0x8aafd3ede9adb0ff97c7aebce82a919afb1c8764",
      "function": "sell(uint256)",
      "arguments": [
        "774303987078"
      ],
      "transaction": {
        "from": "0xc77f7fed3b5cc8249adc428c5f44c9063b9734b4",
        "to": "0x8aafd3ede9adb0ff97c7aebce82a919afb1c8764",
        "gas": "0x1722a",
        "value": "0x0",
        "input": "0xe4849b32000000000000000000000000000000000000000000000000000000b4481d3586",
        "nonce": "0x1593",
        "chainId": "0xaa36a7"
      },
      "additionalContracts": [],
      "isFixedGasLimit": false
    }
  ],
  "receipts": [
    {
      "status": "0x1",
      "cumulativeGasUsed": "0x96320d",
      "logs": [
        {
          "address": "0x8aafd3ede9adb0ff97c7aebce82a919afb1c8764",
          "topics": [
            "0xddf252ad1be2c89b69c2b068fc378daa952ba7f163c4a11628f55a4df523b3ef",
            "0x000000000000000000000000c77f7fed3b5cc8249adc428c5f44c9063b9734b4",
            "0x0000000000000000000000000000000000000000000000000000000000000000"
          ],
          "data": "0x000000000000000000000000000000000000000000000000000000b2d6e5adee",
          "blockHash": "0x29176ba8b6fbf5339d455545d8f33fd6053e570107a0eae7537cd10553f5a8b8",
          "blockNumber": "0x731d02",
          "transactionHash": "0xcec2607a0f5ecbea515d95e669ddda9288eac52885a32513a8c91fc90440afce",
          "transactionIndex": "0x5d",
          "logIndex": "0x9e",
          "removed": false
        },
        {
          "address": "0x8aafd3ede9adb0ff97c7aebce82a919afb1c8764",
          "topics": [
            "0xddf252ad1be2c89b69c2b068fc378daa952ba7f163c4a11628f55a4df523b3ef",
            "0x000000000000000000000000c77f7fed3b5cc8249adc428c5f44c9063b9734b4",
            "0x000000000000000000000000c77f7fed3b5cc8249adc428c5f44c9063b9734b4"
          ],
          "data": "0x0000000000000000000000000000000000000000000000000000000171378798",
          "blockHash": "0x29176ba8b6fbf5339d455545d8f33fd6053e570107a0eae7537cd10553f5a8b8",
          "blockNumber": "0x731d02",
          "transactionHash": "0xcec2607a0f5ecbea515d95e669ddda9288eac52885a32513a8c91fc90440afce",
          "transactionIndex": "0x5d",
          "logIndex": "0x9f",
          "removed": false
        },
        {
          "address": "0x8aafd3ede9adb0ff97c7aebce82a919afb1c8764",
          "topics": [
            "0x4afcb4a87cdbd9974efdb92ee48bc8d7cd0ae4bf217004db3d080cbaee652ca7"
          ],
          "data": "0x00000000000000000000000000000000000000000000000000000000679059000000000000000000000000000000000000000000000000000012c4280dbb2c7000000000000000000000000000000000000000000000000000000000f3c93036",
          "blockHash": "0x29176ba8b6fbf5339d455545d8f33fd6053e570107a0eae7537cd10553f5a8b8",
          "blockNumber": "0x731d02",
          "transactionHash": "0xcec2607a0f5ecbea515d95e669ddda9288eac52885a32513a8c91fc90440afce",
          "transactionIndex": "0x5d",
          "logIndex": "0xa0",
          "removed": false
        }
      ],
      "logsBloom": "0x00000000000000000000000000000000000000000600000000000000000000000000000000000000000000000000000000000000000000004000000000000000000000000000004000000008000000000000000000000000000000000000000000000000020000000000000000000800020000000000000000000010000000000000000000000000000000000000000000000000000000000000010000000000000000000000000000000000000000004000000000000000000000000000000000000002000000800000000000000000000000000000080000000000000020000000000000000000000000000000000000000000000000000000000000000000",
      "type": "0x2",
      "transactionHash": "0xcec2607a0f5ecbea515d95e669ddda9288eac52885a32513a8c91fc90440afce",
      "transactionIndex": "0x5d",
      "blockHash": "0x29176ba8b6fbf5339d455545d8f33fd6053e570107a0eae7537cd10553f5a8b8",
      "blockNumber": "0x731d02",
      "gasUsed": "0xfd1b",
      "effectiveGasPrice": "0x7250e37e",
      "from": "0xc77f7fed3b5cc8249adc428c5f44c9063b9734b4",
      "to": "0x8aafd3ede9adb0ff97c7aebce82a919afb1c8764",
      "contractAddress": null
    }
  ],
  "libraries": [],
  "pending": [],
  "returns": {},
  "timestamp": 1737513217,
  "chain": 11155111,
  "commit": "1d2fb70"
}