{
  "transactions": [
    {
      "hash": "0x8dc7292b5ea75a6e5938d2aaac68638262e255614dfdc1892de626871dcad045",
      "transactionType": "CALL",
      "contractName": null,
      "contractAddress": "0xbf4a322f1496e5c3d34a9bcdb4c60567b38c7de2",
      "function": "buy(address)",
      "arguments": [
        "0xC77f7fed3b5Cc8249aDc428c5F44C9063B9734b4"
      ],
      "transaction": {
        "from": "0xc77f7fed3b5cc8249adc428c5f44c9063b9734b4",
        "to": "0xbf4a322f1496e5c3d34a9bcdb4c60567b38c7de2",
        "gas": "0x1b309",
        "value": "0xde0b6b3a7640000",
        "input": "0xf088d547000000000000000000000000c77f7fed3b5cc8249adc428c5f44c9063b9734b4",
        "nonce": "0xa7a",
        "chainId": "0xaa36a7"
      },
      "additionalContracts": [],
      "isFixedGasLimit": false
    }
  ],
  "receipts": [
    {
      "status": "0x1",
      "cumulativeGasUsed": "0x9378ad",
      "logs": [
        {
          "address": "0xbf4a322f1496e5c3d34a9bcdb4c60567b38c7de2",
          "topics": [
            "0xddf252ad1be2c89b69c2b068fc378daa952ba7f163c4a11628f55a4df523b3ef",
            "0x0000000000000000000000000000000000000000000000000000000000000000",
            "0x000000000000000000000000c77f7fed3b5cc8249adc428c5f44c9063b9734b4"
          ],
          "data": "0x0000000000000000000000000000000000000000000000354440466bed299b16",
          "blockHash": "0x59b82f931575a76ff172082dabeda2ad0d2f2f50c6e10b67b6289f8124d0c85c",
          "blockNumber": "0x725a59",
          "transactionHash": "0x8dc7292b5ea75a6e5938d2aaac68638262e255614dfdc1892de626871dcad045",
          "transactionIndex": "0x52",
          "logIndex": "0x8e",
          "removed": false
        },
        {
          "address": "0xbf4a322f1496e5c3d34a9bcdb4c60567b38c7de2",
          "topics": [
            "0xddf252ad1be2c89b69c2b068fc378daa952ba7f163c4a11628f55a4df523b3ef",
            "0x0000000000000000000000000000000000000000000000000000000000000000",
            "0x000000000000000000000000c77f7fed3b5cc8249adc428c5f44c9063b9734b4"
          ],
          "data": "0x000000000000000000000000000000000000000000000000295d039b68b47fe2",
          "blockHash": "0x59b82f931575a76ff172082dabeda2ad0d2f2f50c6e10b67b6289f8124d0c85c",
          "blockNumber": "0x725a59",
          "transactionHash": "0x8dc7292b5ea75a6e5938d2aaac68638262e255614dfdc1892de626871dcad045",
          "transactionIndex": "0x52",
          "logIndex": "0x8f",
          "removed": false
        },
        {
          "address": "0xbf4a322f1496e5c3d34a9bcdb4c60567b38c7de2",
          "topics": [
            "0x4afcb4a87cdbd9974efdb92ee48bc8d7cd0ae4bf217004db3d080cbaee652ca7"
          ],
          "data": "0x0000000000000000000000000000000000000000000000000000000067872e7c0000000000000000000000000000000000000000000000000003945b8439c73a0000000000000000000000000000000000000000000000000de0b6b3a7640000",
          "blockHash": "0x59b82f931575a76ff172082dabeda2ad0d2f2f50c6e10b67b6289f8124d0c85c",
          "blockNumber": "0x725a59",
          "transactionHash": "0x8dc7292b5ea75a6e5938d2aaac68638262e255614dfdc1892de626871dcad045",
          "transactionIndex": "0x52",
          "logIndex": "0x90",
          "removed": false
        }
      ],
      "logsBloom": "0x00000000000000000000000000000000000000000000000000000000000000000000000000000000000000000000000000000000000000004000000000000000000000000000000000000008000000000000001000000000000000000000000000000000020000000000000000000800020000000000000000000010000000000000000000000000000000000000000000000000000008000000010000000000000000000000000000000000000000004000000000000000000000000000000000000002000000800000000000001000000000000000080000000000000020000000000000000000000000000000000000000000000000000000000000000000",
      "type": "0x2",
      "transactionHash": "0x8dc7292b5ea75a6e5938d2aaac68638262e255614dfdc1892de626871dcad045",
      "transactionIndex": "0x52",
      "blockHash": "0x59b82f931575a76ff172082dabeda2ad0d2f2f50c6e10b67b6289f8124d0c85c",
      "blockNumber": "0x725a59",
      "gasUsed": "0x13af6",
      "effectiveGasPrice": "0x30d35604c",
      "from": "0xc77f7fed3b5cc8249adc428c5f44c9063b9734b4",
      "to": "0xbf4a322f1496e5c3d34a9bcdb4c60567b38c7de2",
      "contractAddress": null
    }
  ],
  "libraries": [],
  "pending": [],
  "returns": {},
  "timestamp": 1736912508,
  "chain": 11155111,
  "commit": "51a374b"
}