{
  "transactions": [
    {
      "hash": "0x2c3f50971aa32e758bb18da25da9e10941d725468d3b5ddd8ff9d5e0b503793d",
      "transactionType": "CALL",
      "contractName": null,
      "contractAddress": "0xbf4a322f1496e5c3d34a9bcdb4c60567b38c7de2",
      "function": "buy(address)",
      "arguments": [
        "0xC77f7fed3b5Cc8249aDc428c5F44C9063B9734b4"
      ],
      "transaction": {
        "from": "0xc77f7fed3b5cc8249adc428c5f44c9063b9734b4",
        "to": "0xbf4a322f1496e5c3d34a9bcdb4c60567b38c7de2",
        "gas": "0x1b309",
        "value": "0xde0b6b3a7640000",
        "input": "0xf088d547000000000000000000000000c77f7fed3b5cc8249adc428c5f44c9063b9734b4",
        "nonce": "0xbc6",
        "chainId": "0xaa36a7"
      },
      "additionalContracts": [],
      "isFixedGasLimit": false
    }
  ],
  "receipts": [
    {
      "status": "0x1",
      "cumulativeGasUsed": "0xcb7b91",
      "logs": [
        {
          "address": "0xbf4a322f1496e5c3d34a9bcdb4c60567b38c7de2",
          "topics": [
            "0xddf252ad1be2c89b69c2b068fc378daa952ba7f163c4a11628f55a4df523b3ef",
            "0x0000000000000000000000000000000000000000000000000000000000000000",
            "0x000000000000000000000000c77f7fed3b5cc8249adc428c5f44c9063b9734b4"
          ],
          "data": "0x000000000000000000000000000000000000000000000035062818e82679e7fc",
          "blockHash": "0x45a653a02e791f68d13ef4fbeccf91864487d22a4caa622e95fa3b1e2262500f",
          "blockNumber": "0x725be4",
          "transactionHash": "0x2c3f50971aa32e758bb18da25da9e10941d725468d3b5ddd8ff9d5e0b503793d",
          "transactionIndex": "0x7a",
          "logIndex": "0xc1",
          "removed": false
        },
        {
          "address": "0xbf4a322f1496e5c3d34a9bcdb4c60567b38c7de2",
          "topics": [
            "0xddf252ad1be2c89b69c2b068fc378daa952ba7f163c4a11628f55a4df523b3ef",
            "0x0000000000000000000000000000000000000000000000000000000000000000",
            "0x000000000000000000000000c77f7fed3b5cc8249adc428c5f44c9063b9734b4"
          ],
          "data": "0x000000000000000000000000000000000000000000000000292ccbaecb9d805f",
          "blockHash": "0x45a653a02e791f68d13ef4fbeccf91864487d22a4caa622e95fa3b1e2262500f",
          "blockNumber": "0x725be4",
          "transactionHash": "0x2c3f50971aa32e758bb18da25da9e10941d725468d3b5ddd8ff9d5e0b503793d",
          "transactionIndex": "0x7a",
          "logIndex": "0xc2",
          "removed": false
        },
        {
          "address": "0xbf4a322f1496e5c3d34a9bcdb4c60567b38c7de2",
          "topics": [
            "0x4afcb4a87cdbd9974efdb92ee48bc8d7cd0ae4bf217004db3d080cbaee652ca7"
          ],
          "data": "0x000000000000000000000000000000000000000000000000000000006787410c0000000000000000000000000000000000000000000000000003988c9e0215da0000000000000000000000000000000000000000000000000de0b6b3a7640000",
          "blockHash": "0x45a653a02e791f68d13ef4fbeccf91864487d22a4caa622e95fa3b1e2262500f",
          "blockNumber": "0x725be4",
          "transactionHash": "0x2c3f50971aa32e758bb18da25da9e10941d725468d3b5ddd8ff9d5e0b503793d",
          "transactionIndex": "0x7a",
          "logIndex": "0xc3",
          "removed": false
        }
      ],
      "logsBloom": "0x00000000000000000000000000000000000000000000000000000000000000000000000000000000000000000000000000000000000000004000000000000000000000000000000000000008000000000000001000000000000000000000000000000000020000000000000000000800020000000000000000000010000000000000000000000000000000000000000000000000000008000000010000000000000000000000000000000000000000004000000000000000000000000000000000000002000000800000000000001000000000000000080000000000000020000000000000000000000000000000000000000000000000000000000000000000",
      "type": "0x2",
      "transactionHash": "0x2c3f50971aa32e758bb18da25da9e10941d725468d3b5ddd8ff9d5e0b503793d",
      "transactionIndex": "0x7a",
      "blockHash": "0x45a653a02e791f68d13ef4fbeccf91864487d22a4caa622e95fa3b1e2262500f",
      "blockNumber": "0x725be4",
      "gasUsed": "0x13af6",
      "effectiveGasPrice": "0x770ad207",
      "from": "0xc77f7fed3b5cc8249adc428c5f44c9063b9734b4",
      "to": "0xbf4a322f1496e5c3d34a9bcdb4c60567b38c7de2",
      "contractAddress": null
    }
  ],
  "libraries": [],
  "pending": [],
  "returns": {},
  "timestamp": 1736917261,
  "chain": 11155111,
  "commit": "51a374b"
}