{
  "transactions": [
    {
      "hash": "0xa859d29612c403927a57317be86cfed764ef6c0e43ca51b9b3af1f4b781595cf",
      "transactionType": "CALL",
      "contractName": null,
      "contractAddress": "0x270e88f8683660553e8ba4eb2ad7c91a1710d769",
      "function": "buy(address)",
      "arguments": [
        "0xC77f7fed3b5Cc8249aDc428c5F44C9063B9734b4"
      ],
      "transaction": {
        "from": "0xc77f7fed3b5cc8249adc428c5f44c9063b9734b4",
        "to": "0x270e88f8683660553e8ba4eb2ad7c91a1710d769",
        "gas": "0x1b30c",
        "value": "0xde0b6b3a7640000",
        "input": "0xf088d547000000000000000000000000c77f7fed3b5cc8249adc428c5f44c9063b9734b4",
        "nonce": "0x518",
        "chainId": "0xaa36a7"
      },
      "additionalContracts": [],
      "isFixedGasLimit": false
    }
  ],
  "receipts": [
    {
      "status": "0x1",
      "cumulativeGasUsed": "0x1da9035",
      "logs": [
        {
          "address": "0x270e88f8683660553e8ba4eb2ad7c91a1710d769",
          "topics": [
            "0xddf252ad1be2c89b69c2b068fc378daa952ba7f163c4a11628f55a4df523b3ef",
            "0x0000000000000000000000000000000000000000000000000000000000000000",
            "0x000000000000000000000000c77f7fed3b5cc8249adc428c5f44c9063b9734b4"
          ],
          "data": "0x000000000000000000000000000000000000000000000035165dd896a098b7d5",
          "blockHash": "0xd4d8d8f42ed696e5c826e3ca5dee22ac1b47bfd3619d3421a87ebf0f21de9780",
          "blockNumber": "0x7251b0",
          "transactionHash": "0xa859d29612c403927a57317be86cfed764ef6c0e43ca51b9b3af1f4b781595cf",
          "transactionIndex": "0xb3",
          "logIndex": "0x106",
          "removed": false
        },
        {
          "address": "0x270e88f8683660553e8ba4eb2ad7c91a1710d769",
          "topics": [
            "0xddf252ad1be2c89b69c2b068fc378daa952ba7f163c4a11628f55a4df523b3ef",
            "0x0000000000000000000000000000000000000000000000000000000000000000",
            "0x000000000000000000000000c77f7fed3b5cc8249adc428c5f44c9063b9734b4"
          ],
          "data": "0x0000000000000000000000000000000000000000000000002939621ab02f8d61",
          "blockHash": "0xd4d8d8f42ed696e5c826e3ca5dee22ac1b47bfd3619d3421a87ebf0f21de9780",
          "blockNumber": "0x7251b0",
          "transactionHash": "0xa859d29612c403927a57317be86cfed764ef6c0e43ca51b9b3af1f4b781595cf",
          "transactionIndex": "0xb3",
          "logIndex": "0x107",
          "removed": false
        },
        {
          "address": "0x270e88f8683660553e8ba4eb2ad7c91a1710d769",
          "topics": [
            "0x4afcb4a87cdbd9974efdb92ee48bc8d7cd0ae4bf217004db3d080cbaee652ca7"
          ],
          "data": "0x000000000000000000000000000000000000000000000000000000006786c6240000000000000000000000000000000000000000000000000003978bebd907a90000000000000000000000000000000000000000000000000de0b6b3a7640000",
          "blockHash": "0xd4d8d8f42ed696e5c826e3ca5dee22ac1b47bfd3619d3421a87ebf0f21de9780",
          "blockNumber": "0x7251b0",
          "transactionHash": "0xa859d29612c403927a57317be86cfed764ef6c0e43ca51b9b3af1f4b781595cf",
          "transactionIndex": "0xb3",
          "logIndex": "0x108",
          "removed": false
        }
      ],
      "logsBloom": "0x00000000000000000000000000000000000000000000000000000000000000000000000000000000000000000000000020000000000000004000000000000000000000000000000000000008000000000000000000000000000000000000000000000000020000000000000000000800020000000000000000000010000000000000000000010000000000000000000000000000000000000000010000000000000000000000000000000000000000004000000000000000000000000000000000000002000000800000000000000000000000000000080000008000000020000000000000000000000000000000000000000000000000000000000000000000",
      "type": "0x2",
      "transactionHash": "0xa859d29612c403927a57317be86cfed764ef6c0e43ca51b9b3af1f4b781595cf",
      "transactionIndex": "0xb3",
      "blockHash": "0xd4d8d8f42ed696e5c826e3ca5dee22ac1b47bfd3619d3421a87ebf0f21de9780",
      "blockNumber": "0x7251b0",
      "gasUsed": "0x13af8",
      "effectiveGasPrice": "0x3b1c65614",
      "from": "0xc77f7fed3b5cc8249adc428c5f44c9063b9734b4",
      "to": "0x270e88f8683660553e8ba4eb2ad7c91a1710d769",
      "contractAddress": null
    }
  ],
  "libraries": [],
  "pending": [],
  "returns": {},
  "timestamp": 1736885797,
  "chain": 11155111,
  "commit": "51a374b"
}