{
  "transactions": [
    {
      "hash": "0xf5e9dc2ad598273fc4a116b1c4ea8248248e9206eab64975983dab3bdfd47fa6",
      "transactionType": "CALL",
      "contractName": null,
      "contractAddress": "0xd7bc75898e513accccf720a874d44dab5a4b6223",
      "function": "sell(uint256)",
      "arguments": [
        "9929991522439883155"
      ],
      "transaction": {
        "from": "0xc77f7fed3b5cc8249adc428c5f44c9063b9734b4",
        "to": "0xd7bc75898e513accccf720a874d44dab5a4b6223",
        "gas": "0x15b6b",
        "value": "0x0",
        "input": "0xe4849b3200000000000000000000000000000000000000000000000089ce6aada5ab6993",
        "nonce": "0xf5",
        "chainId": "0xaa36a7"
      },
      "additionalContracts": [],
      "isFixedGasLimit": false
    }
  ],
  "receipts": [
    {
      "status": "0x1",
      "cumulativeGasUsed": "0x21c3884",
      "logs": [
        {
          "address": "0xd7bc75898e513accccf720a874d44dab5a4b6223",
          "topics": [
            "0xddf252ad1be2c89b69c2b068fc378daa952ba7f163c4a11628f55a4df523b3ef",
            "0x000000000000000000000000c77f7fed3b5cc8249adc428c5f44c9063b9734b4",
            "0x0000000000000000000000000000000000000000000000000000000000000000"
          ],
          "data": "0x00000000000000000000000000000000000000000000000089ce6aada5ab6993",
          "blockHash": "0x6a01919872c7b9c118fd5d159fef89cadfb74a4da2a1600e6e534b411d8a1048",
          "blockNumber": "0x723983",
          "transactionHash": "0xf5e9dc2ad598273fc4a116b1c4ea8248248e9206eab64975983dab3bdfd47fa6",
          "transactionIndex": "0x22",
          "logIndex": "0x320",
          "removed": false
        },
        {
          "address": "0xd7bc75898e513accccf720a874d44dab5a4b6223",
          "topics": [
            "0x4afcb4a87cdbd9974efdb92ee48bc8d7cd0ae4bf217004db3d080cbaee652ca7"
          ],
          "data": "0x000000000000000000000000000000000000000000000000000000006785a37800000000000000000000000000000000000000000000000000038d7f8c1c04d20000000000000000000000000000000000000000000000000023474f493d2797",
          "blockHash": "0x6a01919872c7b9c118fd5d159fef89cadfb74a4da2a1600e6e534b411d8a1048",
          "blockNumber": "0x723983",
          "transactionHash": "0xf5e9dc2ad598273fc4a116b1c4ea8248248e9206eab64975983dab3bdfd47fa6",
          "transactionIndex": "0x22",
          "logIndex": "0x321",
          "removed": false
        }
      ],
      "logsBloom": "0x00000000000000000000000000000000000000000000000000000000000000000000000000000000000000000000000000000000000000004000000000000000000000000000000000000008000000000000000000000000000000000000000000000000020000000000000000000800020000000000000000000010000000000000000000000000000000000000000000000000000000000000010000000000000000000000000000000000000000004000001000000000000000000000000000000002000000800000000000004000000000000000080000000000000020000000000000000000000000000000000000000000080000000000000000000000",
      "type": "0x2",
      "transactionHash": "0xf5e9dc2ad598273fc4a116b1c4ea8248248e9206eab64975983dab3bdfd47fa6",
      "transactionIndex": "0x22",
      "blockHash": "0x6a01919872c7b9c118fd5d159fef89cadfb74a4da2a1600e6e534b411d8a1048",
      "blockNumber": "0x723983",
      "gasUsed": "0xfb87",
      "effectiveGasPrice": "0xe83bf6de",
      "from": "0xc77f7fed3b5cc8249adc428c5f44c9063b9734b4",
      "to": "0xd7bc75898e513accccf720a874d44dab5a4b6223",
      "contractAddress": null
    }
  ],
  "libraries": [],
  "pending": [],
  "returns": {},
  "timestamp": 1736811388,
  "chain": 11155111,
  "commit": "51a374b"
}