{
  "transactions": [
    {
      "hash": "0x06055a7f1f4b49457f8d477d01981e3dd61054c60b5d1d1925ef5111cbde828a",
      "transactionType": "CALL",
      "contractName": null,
      "contractAddress": "0x5eb9cc76c3506942c1c0ead70e877dd5e4f00cb0",
      "function": "buy(address)",
      "arguments": [
        "0xC77f7fed3b5Cc8249aDc428c5F44C9063B9734b4"
      ],
      "transaction": {
        "from": "0xc77f7fed3b5cc8249adc428c5f44c9063b9734b4",
        "to": "0x5eb9cc76c3506942c1c0ead70e877dd5e4f00cb0",
        "gas": "0x1b30c",
        "value": "0xde0b6b3a7640000",
        "input": "0xf088d547000000000000000000000000c77f7fed3b5cc8249adc428c5f44c9063b9734b4",
        "nonce": "0x34e",
        "chainId": "0xaa36a7"
      },
      "additionalContracts": [],
      "isFixedGasLimit": false
    }
  ],
  "receipts": [
    {
      "status": "0x1",
      "cumulativeGasUsed": "0x88ad3c",
      "logs": [
        {
          "address": "0x5eb9cc76c3506942c1c0ead70e877dd5e4f00cb0",
          "topics": [
            "0xddf252ad1be2c89b69c2b068fc378daa952ba7f163c4a11628f55a4df523b3ef",
            "0x0000000000000000000000000000000000000000000000000000000000000000",
            "0x000000000000000000000000c77f7fed3b5cc8249adc428c5f44c9063b9734b4"
          ],
          "data": "0x0000000000000000000000000000000000000000000000357566b0dd1d1e6966",
          "blockHash": "0xf79c4d9dd67d5b02c7d0371dcef0a1336a9d08894fd512caee7e9d339553ffde",
          "blockNumber": "0x724f40",
          "transactionHash": "0x06055a7f1f4b49457f8d477d01981e3dd61054c60b5d1d1925ef5111cbde828a",
          "transactionIndex": "0x4a",
          "logIndex": "0x4d",
          "removed": false
        },
        {
          "address": "0x5eb9cc76c3506942c1c0ead70e877dd5e4f00cb0",
          "topics": [
            "0xddf252ad1be2c89b69c2b068fc378daa952ba7f163c4a11628f55a4df523b3ef",
            "0x0000000000000000000000000000000000000000000000000000000000000000",
            "0x000000000000000000000000c77f7fed3b5cc8249adc428c5f44c9063b9734b4"
          ],
          "data": "0x00000000000000000000000000000000000000000000000029832e483876f6ce",
          "blockHash": "0xf79c4d9dd67d5b02c7d0371dcef0a1336a9d08894fd512caee7e9d339553ffde",
          "blockNumber": "0x724f40",
          "transactionHash": "0x06055a7f1f4b49457f8d477d01981e3dd61054c60b5d1d1925ef5111cbde828a",
          "transactionIndex": "0x4a",
          "logIndex": "0x4e",
          "removed": false
        },
        {
          "address": "0x5eb9cc76c3506942c1c0ead70e877dd5e4f00cb0",
          "topics": [
            "0x4afcb4a87cdbd9974efdb92ee48bc8d7cd0ae4bf217004db3d080cbaee652ca7"
          ],
          "data": "0x000000000000000000000000000000000000000000000000000000006786a8b40000000000000000000000000000000000000000000000000003910eb885b4250000000000000000000000000000000000000000000000000de0b6b3a7640000",
          "blockHash": "0xf79c4d9dd67d5b02c7d0371dcef0a1336a9d08894fd512caee7e9d339553ffde",
          "blockNumber": "0x724f40",
          "transactionHash": "0x06055a7f1f4b49457f8d477d01981e3dd61054c60b5d1d1925ef5111cbde828a",
          "transactionIndex": "0x4a",
          "logIndex": "0x4f",
          "removed": false
        }
      ],
      "logsBloom": "0x00000000000000000000000000000000000000000000000000000000000000000000000000000000000000000000000000000000000000004000000000000000000000000000000000000008000000000000000000000000000000000000000000000000020000000000000004000800020000000000000000000010000000000000000000000000000000000000000000000000000000000000010000000000000000000000000000000000000000004000000000000000000000000000020000000002000000800000008000000000000000000000080000000000000020000000000000000000000000000000000000000000000000000000000000000000",
      "type": "0x2",
      "transactionHash": "0x06055a7f1f4b49457f8d477d01981e3dd61054c60b5d1d1925ef5111cbde828a",
      "transactionIndex": "0x4a",
      "blockHash": "0xf79c4d9dd67d5b02c7d0371dcef0a1336a9d08894fd512caee7e9d339553ffde",
      "blockNumber": "0x724f40",
      "gasUsed": "0x13af8",
      "effectiveGasPrice": "0x5928628ee",
      "from": "0xc77f7fed3b5cc8249adc428c5f44c9063b9734b4",
      "to": "0x5eb9cc76c3506942c1c0ead70e877dd5e4f00cb0",
      "contractAddress": null
    }
  ],
  "libraries": [],
  "pending": [],
  "returns": {},
  "timestamp": 1736878261,
  "chain": 11155111,
  "commit": "51a374b"
}