{
  "transactions": [
    {
      "hash": "0xc04fbac7b0d2300806871a59288fe73f356ae9ca7f0b8a541f76026f29f76184",
      "transactionType": "CALL",
      "contractName": null,
      "contractAddress": "0x5eb9cc76c3506942c1c0ead70e877dd5e4f00cb0",
      "function": "buy(address)",
      "arguments": [
        "0xC77f7fed3b5Cc8249aDc428c5F44C9063B9734b4"
      ],
      "transaction": {
        "from": "0xc77f7fed3b5cc8249adc428c5f44c9063b9734b4",
        "to": "0x5eb9cc76c3506942c1c0ead70e877dd5e4f00cb0",
        "gas": "0x1b30c",
        "value": "0xde0b6b3a7640000",
        "input": "0xf088d547000000000000000000000000c77f7fed3b5cc8249adc428c5f44c9063b9734b4",
        "nonce": "0x422",
        "chainId": "0xaa36a7"
      },
      "additionalContracts": [],
      "isFixedGasLimit": false
    }
  ],
  "receipts": [
    {
      "status": "0x1",
      "cumulativeGasUsed": "0xaec505",
      "logs": [
        {
          "address": "0x5eb9cc76c3506942c1c0ead70e877dd5e4f00cb0",
          "topics": [
            "0xddf252ad1be2c89b69c2b068fc378daa952ba7f163c4a11628f55a4df523b3ef",
            "0x0000000000000000000000000000000000000000000000000000000000000000",
            "0x000000000000000000000000c77f7fed3b5cc8249adc428c5f44c9063b9734b4"
          ],
          "data": "0x00000000000000000000000000000000000000000000003574ef07b228b62fe6",
          "blockHash": "0x149e00c66a9ad12ca191a4f742dda55c5f1542aa396c8619ca1aaa76cd7d47a8",
          "blockNumber": "0x725037",
          "transactionHash": "0xc04fbac7b0d2300806871a59288fe73f356ae9ca7f0b8a541f76026f29f76184",
          "transactionIndex": "0x66",
          "logIndex": "0xb2",
          "removed": false
        },
        {
          "address": "0x5eb9cc76c3506942c1c0ead70e877dd5e4f00cb0",
          "topics": [
            "0xddf252ad1be2c89b69c2b068fc378daa952ba7f163c4a11628f55a4df523b3ef",
            "0x0000000000000000000000000000000000000000000000000000000000000000",
            "0x000000000000000000000000c77f7fed3b5cc8249adc428c5f44c9063b9734b4"
          ],
          "data": "0x0000000000000000000000000000000000000000000000002982d15c85587ec0",
          "blockHash": "0x149e00c66a9ad12ca191a4f742dda55c5f1542aa396c8619ca1aaa76cd7d47a8",
          "blockNumber": "0x725037",
          "transactionHash": "0xc04fbac7b0d2300806871a59288fe73f356ae9ca7f0b8a541f76026f29f76184",
          "transactionIndex": "0x66",
          "logIndex": "0xb3",
          "removed": false
        },
        {
          "address": "0x5eb9cc76c3506942c1c0ead70e877dd5e4f00cb0",
          "topics": [
            "0x4afcb4a87cdbd9974efdb92ee48bc8d7cd0ae4bf217004db3d080cbaee652ca7"
          ],
          "data": "0x000000000000000000000000000000000000000000000000000000006786b46000000000000000000000000000000000000000000000000000039116b45d38a50000000000000000000000000000000000000000000000000de0b6b3a7640000",
          "blockHash": "0x149e00c66a9ad12ca191a4f742dda55c5f1542aa396c8619ca1aaa76cd7d47a8",
          "blockNumber": "0x725037",
          "transactionHash": "0xc04fbac7b0d2300806871a59288fe73f356ae9ca7f0b8a541f76026f29f76184",
          "transactionIndex": "0x66",
          "logIndex": "0xb4",
          "removed": false
        }
      ],
      "logsBloom": "0x00000000000000000000000000000000000000000000000000000000000000000000000000000000000000000000000000000000000000004000000000000000000000000000000000000008000000000000000000000000000000000000000000000000020000000000000004000800020000000000000000000010000000000000000000000000000000000000000000000000000000000000010000000000000000000000000000000000000000004000000000000000000000000000020000000002000000800000008000000000000000000000080000000000000020000000000000000000000000000000000000000000000000000000000000000000",
      "type": "0x2",
      "transactionHash": "0xc04fbac7b0d2300806871a59288fe73f356ae9ca7f0b8a541f76026f29f76184",
      "transactionIndex": "0x66",
      "blockHash": "0x149e00c66a9ad12ca191a4f742dda55c5f1542aa396c8619ca1aaa76cd7d47a8",
      "blockNumber": "0x725037",
      "gasUsed": "0x13af8",
      "effectiveGasPrice": "0x2ae43f505",
      "from": "0xc77f7fed3b5cc8249adc428c5f44c9063b9734b4",
      "to": "0x5eb9cc76c3506942c1c0ead70e877dd5e4f00cb0",
      "contractAddress": null
    }
  ],
  "libraries": [],
  "pending": [],
  "returns": {},
  "timestamp": 1736881249,
  "chain": 11155111,
  "commit": "51a374b"
}