{
  "transactions": [
    {
      "hash": "0xcef9171c3b2b30a894459e3370d866289c0c64e085421d9331496d8515badc31",
      "transactionType": "CALL",
      "contractName": null,
      "contractAddress": "0x5eb9cc76c3506942c1c0ead70e877dd5e4f00cb0",
      "function": "sell(uint256)",
      "arguments": [
        "989612828774859420793"
      ],
      "transaction": {
        "from": "0xc77f7fed3b5cc8249adc428c5f44c9063b9734b4",
        "to": "0x5eb9cc76c3506942c1c0ead70e877dd5e4f00cb0",
        "gas": "0x16fec",
        "value": "0x0",
        "input": "0xe4849b32000000000000000000000000000000000000000000000035a5a30893c6f63479",
        "nonce": "0x25f",
        "chainId": "0xaa36a7"
      },
      "additionalContracts": [],
      "isFixedGasLimit": false
    }
  ],
  "receipts": [
    {
      "status": "0x1",
      "cumulativeGasUsed": "0xd3b45f",
      "logs": [
        {
          "address": "0x5eb9cc76c3506942c1c0ead70e877dd5e4f00cb0",
          "topics": [
            "0xddf252ad1be2c89b69c2b068fc378daa952ba7f163c4a11628f55a4df523b3ef",
            "0x000000000000000000000000c77f7fed3b5cc8249adc428c5f44c9063b9734b4",
            "0x0000000000000000000000000000000000000000000000000000000000000000"
          ],
          "data": "0x000000000000000000000000000000000000000000000035a5a30893c6f63479",
          "blockHash": "0x35b736d0057220bbae94a71335556c14aef346fff41a6068c1afe12505065d50",
          "blockNumber": "0x724e1d",
          "transactionHash": "0xcef9171c3b2b30a894459e3370d866289c0c64e085421d9331496d8515badc31",
          "transactionIndex": "0x52",
          "logIndex": "0x96",
          "removed": false
        },
        {
          "address": "0x5eb9cc76c3506942c1c0ead70e877dd5e4f00cb0",
          "topics": [
            "0x4afcb4a87cdbd9974efdb92ee48bc8d7cd0ae4bf217004db3d080cbaee652ca7"
          ],
          "data": "0x0000000000000000000000000000000000000000000000000000000067869b100000000000000000000000000000000000000000000000000003909c55f057ae0000000000000000000000000000000000000000000000000dc7db1183772eb6",
          "blockHash": "0x35b736d0057220bbae94a71335556c14aef346fff41a6068c1afe12505065d50",
          "blockNumber": "0x724e1d",
          "transactionHash": "0xcef9171c3b2b30a894459e3370d866289c0c64e085421d9331496d8515badc31",
          "transactionIndex": "0x52",
          "logIndex": "0x97",
          "removed": false
        }
      ],
      "logsBloom": "0x00000000000000000000000000000000000000000000000000000000000000000000000000000000000000000000000000000000000000004000000000000000000000000000000000000008000000000000000000000000000000000000000000000000020000000000000004000800020000000000000000000010000000000000000000000000000000000000000000000000000000000000010000000000000000000000000000000000000000004000000000000000000000000000020000000002000000800000008000000000000000000000080000000000000020000000000000000000000000000000000000000000000000000000000000000000",
      "type": "0x2",
      "transactionHash": "0xcef9171c3b2b30a894459e3370d866289c0c64e085421d9331496d8515badc31",
      "transactionIndex": "0x52",
      "blockHash": "0x35b736d0057220bbae94a71335556c14aef346fff41a6068c1afe12505065d50",
      "blockNumber": "0x724e1d",
      "gasUsed": "0xfb93",
      "effectiveGasPrice": "0x3aa85d0f9",
      "from": "0xc77f7fed3b5cc8249adc428c5f44c9063b9734b4",
      "to": "0x5eb9cc76c3506942c1c0ead70e877dd5e4f00cb0",
      "contractAddress": null
    }
  ],
  "libraries": [],
  "pending": [],
  "returns": {},
  "timestamp": 1736874769,
  "chain": 11155111,
  "commit": "51a374b"
}