{
  "transactions": [
    {
      "hash": "0x8aaa9a86d00f1655dd0064b13b29dc3ab55fee60fc2d30d3b9d45c45f5f18ae2",
      "transactionType": "CALL",
      "contractName": null,
      "contractAddress": "0xbf4a322f1496e5c3d34a9bcdb4c60567b38c7de2",
      "function": "buy(address)",
      "arguments": [
        "0xC77f7fed3b5Cc8249aDc428c5F44C9063B9734b4"
      ],
      "transaction": {
        "from": "0xc77f7fed3b5cc8249adc428c5f44c9063b9734b4",
        "to": "0xbf4a322f1496e5c3d34a9bcdb4c60567b38c7de2",
        "gas": "0x1b309",
        "value": "0xde0b6b3a7640000",
        "input": "0xf088d547000000000000000000000000c77f7fed3b5cc8249adc428c5f44c9063b9734b4",
        "nonce": "0x980",
        "chainId": "0xaa36a7"
      },
      "additionalContracts": [],
      "isFixedGasLimit": false
    }
  ],
  "receipts": [
    {
      "status": "0x1",
      "cumulativeGasUsed": "0x1dab808",
      "logs": [
        {
          "address": "0xbf4a322f1496e5c3d34a9bcdb4c60567b38c7de2",
          "topics": [
            "0xddf252ad1be2c89b69c2b068fc378daa952ba7f163c4a11628f55a4df523b3ef",
            "0x0000000000000000000000000000000000000000000000000000000000000000",
            "0x000000000000000000000000c77f7fed3b5cc8249adc428c5f44c9063b9734b4"
          ],
          "data": "0x000000000000000000000000000000000000000000000035736295a2c56d2d8e",
          "blockHash": "0xf35033d84514a724820272375dfc5f84eb2f980141202807bbd8eeca940a600f",
          "blockNumber": "0x72591f",
          "transactionHash": "0x8aaa9a86d00f1655dd0064b13b29dc3ab55fee60fc2d30d3b9d45c45f5f18ae2",
          "transactionIndex": "0x11d",
          "logIndex": "0x1a8",
          "removed": false
        },
        {
          "address": "0xbf4a322f1496e5c3d34a9bcdb4c60567b38c7de2",
          "topics": [
            "0xddf252ad1be2c89b69c2b068fc378daa952ba7f163c4a11628f55a4df523b3ef",
            "0x0000000000000000000000000000000000000000000000000000000000000000",
            "0x000000000000000000000000c77f7fed3b5cc8249adc428c5f44c9063b9734b4"
          ],
          "data": "0x00000000000000000000000000000000000000000000000029819d820703561b",
          "blockHash": "0xf35033d84514a724820272375dfc5f84eb2f980141202807bbd8eeca940a600f",
          "blockNumber": "0x72591f",
          "transactionHash": "0x8aaa9a86d00f1655dd0064b13b29dc3ab55fee60fc2d30d3b9d45c45f5f18ae2",
          "transactionIndex": "0x11d",
          "logIndex": "0x1a9",
          "removed": false
        },
        {
          "address": "0xbf4a322f1496e5c3d34a9bcdb4c60567b38c7de2",
          "topics": [
            "0x4afcb4a87cdbd9974efdb92ee48bc8d7cd0ae4bf217004db3d080cbaee652ca7"
          ],
          "data": "0x0000000000000000000000000000000000000000000000000000000067871fa00000000000000000000000000000000000000000000000000003913375da57d10000000000000000000000000000000000000000000000000de0b6b3a7640000",
          "blockHash": "0xf35033d84514a724820272375dfc5f84eb2f980141202807bbd8eeca940a600f",
          "blockNumber": "0x72591f",
          "transactionHash": "0x8aaa9a86d00f1655dd0064b13b29dc3ab55fee60fc2d30d3b9d45c45f5f18ae2",
          "transactionIndex": "0x11d",
          "logIndex": "0x1aa",
          "removed": false
        }
      ],
      "logsBloom": "0x00000000000000000000000000000000000000000000000000000000000000000000000000000000000000000000000000000000000000004000000000000000000000000000000000000008000000000000001000000000000000000000000000000000020000000000000000000800020000000000000000000010000000000000000000000000000000000000000000000000000008000000010000000000000000000000000000000000000000004000000000000000000000000000000000000002000000800000000000001000000000000000080000000000000020000000000000000000000000000000000000000000000000000000000000000000",
      "type": "0x2",
      "transactionHash": "0x8aaa9a86d00f1655dd0064b13b29dc3ab55fee60fc2d30d3b9d45c45f5f18ae2",
      "transactionIndex": "0x11d",
      "blockHash": "0xf35033d84514a724820272375dfc5f84eb2f980141202807bbd8eeca940a600f",
      "blockNumber": "0x72591f",
      "gasUsed": "0x13af6",
      "effectiveGasPrice": "0xa31b8670",
      "from": "0xc77f7fed3b5cc8249adc428c5f44c9063b9734b4",
      "to": "0xbf4a322f1496e5c3d34a9bcdb4c60567b38c7de2",
      "contractAddress": null
    }
  ],
  "libraries": [],
  "pending": [],
  "returns": {},
  "timestamp": 1736908705,
  "chain": 11155111,
  "commit": "51a374b"
}