{
  "transactions": [
    {
      "hash": "0x18deb4afeee59283bfd01ffcbb6c991e6f9b5a725958f1526f4b87fd49a9d5f9",
      "transactionType": "CALL",
      "contractName": null,
      "contractAddress": "0xbf4a322f1496e5c3d34a9bcdb4c60567b38c7de2",
      "function": "sell(uint256)",
      "arguments": [
        "986881367808886560131"
      ],
      "transaction": {
        "from": "0xc77f7fed3b5cc8249adc428c5f44c9063b9734b4",
        "to": "0xbf4a322f1496e5c3d34a9bcdb4c60567b38c7de2",
        "gas": "0x16fea",
        "value": "0x0",
        "input": "0xe4849b320000000000000000000000000000000000000000000000357fbaef4cf44dd583",
        "nonce": "0xa1b",
        "chainId": "0xaa36a7"
      },
      "additionalContracts": [],
      "isFixedGasLimit": false
    }
  ],
  "receipts": [
    {
      "status": "0x1",
      "cumulativeGasUsed": "0xedc0cf",
      "logs": [
        {
          "address": "0xbf4a322f1496e5c3d34a9bcdb4c60567b38c7de2",
          "topics": [
            "0xddf252ad1be2c89b69c2b068fc378daa952ba7f163c4a11628f55a4df523b3ef",
            "0x000000000000000000000000c77f7fed3b5cc8249adc428c5f44c9063b9734b4",
            "0x0000000000000000000000000000000000000000000000000000000000000000"
          ],
          "data": "0x0000000000000000000000000000000000000000000000357fbaef4cf44dd583",
          "blockHash": "0xb5026c9f84084b68f3c16a5c327ff5bcca0b72dc9cf9a98ed40f6b0763f65afa",
          "blockNumber": "0x7259db",
          "transactionHash": "0x18deb4afeee59283bfd01ffcbb6c991e6f9b5a725958f1526f4b87fd49a9d5f9",
          "transactionIndex": "0x4f",
          "logIndex": "0x85",
          "removed": false
        },
        {
          "address": "0xbf4a322f1496e5c3d34a9bcdb4c60567b38c7de2",
          "topics": [
            "0x4afcb4a87cdbd9974efdb92ee48bc8d7cd0ae4bf217004db3d080cbaee652ca7"
          ],
          "data": "0x0000000000000000000000000000000000000000000000000000000067872888000000000000000000000000000000000000000000000000000393295be4f8010000000000000000000000000000000000000000000000000dc7e3f210c8a186",
          "blockHash": "0xb5026c9f84084b68f3c16a5c327ff5bcca0b72dc9cf9a98ed40f6b0763f65afa",
          "blockNumber": "0x7259db",
          "transactionHash": "0x18deb4afeee59283bfd01ffcbb6c991e6f9b5a725958f1526f4b87fd49a9d5f9",
          "transactionIndex": "0x4f",
          "logIndex": "0x86",
          "removed": false
        }
      ],
      "logsBloom": "0x00000000000000000000000000000000000000000000000000000000000000000000000000000000000000000000000000000000000000004000000000000000000000000000000000000008000000000000001000000000000000000000000000000000020000000000000000000800020000000000000000000010000000000000000000000000000000000000000000000000000008000000010000000000000000000000000000000000000000004000000000000000000000000000000000000002000000800000000000001000000000000000080000000000000020000000000000000000000000000000000000000000000000000000000000000000",
      "type": "0x2",
      "transactionHash": "0x18deb4afeee59283bfd01ffcbb6c991e6f9b5a725958f1526f4b87fd49a9d5f9",
      "transactionIndex": "0x4f",
      "blockHash": "0xb5026c9f84084b68f3c16a5c327ff5bcca0b72dc9cf9a98ed40f6b0763f65afa",
      "blockNumber": "0x7259db",
      "gasUsed": "0xfb91",
      "effectiveGasPrice": "0x6bc064e7c",
      "from": "0xc77f7fed3b5cc8249adc428c5f44c9063b9734b4",
      "to": "0xbf4a322f1496e5c3d34a9bcdb4c60567b38c7de2",
      "contractAddress": null
    }
  ],
  "libraries": [],
  "pending": [],
  "returns": {},
  "timestamp": 1736910985,
  "chain": 11155111,
  "commit": "51a374b"
}