{
  "transactions": [
    {
      "hash": "0x2050fde263fb4e8e8b6fcea9d7d992feb22a363a3f9f96ee291756c43933ebb7",
      "transactionType": "CALL",
      "contractName": null,
      "contractAddress": "0x8aafd3ede9adb0ff97c7aebce82a919afb1c8764",
      "function": "sell(uint256)",
      "arguments": [
        "2748479099923"
      ],
      "transaction": {
        "from": "0xc77f7fed3b5cc8249adc428c5f44c9063b9734b4",
        "to": "0x8aafd3ede9adb0ff97c7aebce82a919afb1c8764",
        "gas": "0x15daa",
        "value": "0x0",
        "input": "0xe4849b320000000000000000000000000000000000000000000000000000027fee1ed413",
        "nonce": "0x127f",
        "chainId": "0xaa36a7"
      },
      "additionalContracts": [],
      "isFixedGasLimit": false
    }
  ],
  "receipts": [
    {
      "status": "0x1",
      "cumulativeGasUsed": "0x221c4c5",
      "logs": [
        {
          "address": "0x8aafd3ede9adb0ff97c7aebce82a919afb1c8764",
          "topics": [
            "0xddf252ad1be2c89b69c2b068fc378daa952ba7f163c4a11628f55a4df523b3ef",
            "0x000000000000000000000000c77f7fed3b5cc8249adc428c5f44c9063b9734b4",
            "0x0000000000000000000000000000000000000000000000000000000000000000"
          ],
          "data": "0x0000000000000000000000000000000000000000000000000000027acf8b2034",
          "blockHash": "0x5d3c2ae155977f32a97c83845c8ba742d1f0bf1f1f6e313ae06a34f88d05a15c",
          "blockNumber": "0x73196a",
          "transactionHash": "0x2050fde263fb4e8e8b6fcea9d7d992feb22a363a3f9f96ee291756c43933ebb7",
          "transactionIndex": "0x76",
          "logIndex": "0x10f2",
          "removed": false
        },
        {
          "address": "0x8aafd3ede9adb0ff97c7aebce82a919afb1c8764",
          "topics": [
            "0xddf252ad1be2c89b69c2b068fc378daa952ba7f163c4a11628f55a4df523b3ef",
            "0x000000000000000000000000c77f7fed3b5cc8249adc428c5f44c9063b9734b4",
            "0x000000000000000000000000c77f7fed3b5cc8249adc428c5f44c9063b9734b4"
          ],
          "data": "0x000000000000000000000000000000000000000000000000000000051e93b3df",
          "blockHash": "0x5d3c2ae155977f32a97c83845c8ba742d1f0bf1f1f6e313ae06a34f88d05a15c",
          "blockNumber": "0x73196a",
          "transactionHash": "0x2050fde263fb4e8e8b6fcea9d7d992feb22a363a3f9f96ee291756c43933ebb7",
          "transactionIndex": "0x76",
          "logIndex": "0x10f3",
          "removed": false
        },
        {
          "address": "0x8aafd3ede9adb0ff97c7aebce82a919afb1c8764",
          "topics": [
            "0x4afcb4a87cdbd9974efdb92ee48bc8d7cd0ae4bf217004db3d080cbaee652ca7"
          ],
          "data": "0x0000000000000000000000000000000000000000000000000000000067902dc80000000000000000000000000000000000000000000000000005435ec4690b1d00000000000000000000000000000000000000000000000000000000f2b1b399",
          "blockHash": "0x5d3c2ae155977f32a97c83845c8ba742d1f0bf1f1f6e313ae06a34f88d05a15c",
          "blockNumber": "0x73196a",
          "transactionHash": "0x2050fde263fb4e8e8b6fcea9d7d992feb22a363a3f9f96ee291756c43933ebb7",
          "transactionIndex": "0x76",
          "logIndex": "0x10f4",
          "removed": false
        }
      ],
      "logsBloom": "0x00000000000000000000000000000000000000000600000000000000000000000000000000000000000000000000000000000000000000004000000000000000000000000000004000000008000000000000000000000000000000000000000000000000020000000000000000000800020000000000000000000010000000000000000000000000000000000000000000000000000000000000010000000000000000000000000000000000000000004000000000000000000000000000000000000002000000800000000000000000000000000000080000000000000020000000000000000000000000000000000000000000000000000000000000000000",
      "type": "0x2",
      "transactionHash": "0x2050fde263fb4e8e8b6fcea9d7d992feb22a363a3f9f96ee291756c43933ebb7",
      "transactionIndex": "0x76",
      "blockHash": "0x5d3c2ae155977f32a97c83845c8ba742d1f0bf1f1f6e313ae06a34f88d05a15c",
      "blockNumber": "0x73196a",
      "gasUsed": "0xfd27",
      "effectiveGasPrice": "0x448f10c6",
      "from": "0xc77f7fed3b5cc8249adc428c5f44c9063b9734b4",
      "to": "0x8aafd3ede9adb0ff97c7aebce82a919afb1c8764",
      "contractAddress": null
    }
  ],
  "libraries": [],
  "pending": [],
  "returns": {},
  "timestamp": 1737502153,
  "chain": 11155111,
  "commit": "1d2fb70"
}