{
  "transactions": [
    {
      "hash": "0x2eaef26c9a246b1e0981dce4ccbd8602f09642eafe77c81fd472a55c2a81e6bc",
      "transactionType": "CALL",
      "contractName": null,
      "contractAddress": "0x3b71253dcecbaf453f48043c75f311253fd0ad31",
      "function": "sell(uint256)",
      "arguments": [
        "10000000000000000000"
      ],
      "transaction": {
        "from": "0xc77f7fed3b5cc8249adc428c5f44c9063b9734b4",
        "to": "0x3b71253dcecbaf453f48043c75f311253fd0ad31",
        "gas": "0x1d169",
        "value": "0x0",
        "input": "0xe4849b320000000000000000000000000000000000000000000000008ac7230489e80000",
        "nonce": "0x4c7",
        "chainId": "0xaa36a7"
      },
      "additionalContracts": [],
      "isFixedGasLimit": false
    }
  ],
  "receipts": [
    {
      "status": "0x1",
      "cumulativeGasUsed": "0x1266cbb",
      "logs": [
        {
          "address": "0x3b71253dcecbaf453f48043c75f311253fd0ad31",
          "topics": [
            "0xddf252ad1be2c89b69c2b068fc378daa952ba7f163c4a11628f55a4df523b3ef",
            "0x000000000000000000000000c77f7fed3b5cc8249adc428c5f44c9063b9734b4",
            "0x0000000000000000000000000000000000000000000000000000000000000000"
          ],
          "data": "0x0000000000000000000000000000000000000000000000008ac7230489e80000",
          "blockHash": "0x9501408fdf63b5b7ee21d283bc8ae1a891b3e34d875110258703f57ef3bf80b4",
          "blockNumber": "0x725117",
          "transactionHash": "0x2eaef26c9a246b1e0981dce4ccbd8602f09642eafe77c81fd472a55c2a81e6bc",
          "transactionIndex": "0x5a",
          "logIndex": "0x85",
          "removed": false
        },
        {
          "address": "0x3b71253dcecbaf453f48043c75f311253fd0ad31",
          "topics": [
            "0x4afcb4a87cdbd9974efdb92ee48bc8d7cd0ae4bf217004db3d080cbaee652ca7"
          ],
          "data": "0x000000000000000000000000000000000000000000000000000000006786bef8000000000000000000000000000000000000000000000000000000e8de91aea700000000000000000000000000000000000000000000000000000918b1b0812a",
          "blockHash": "0x9501408fdf63b5b7ee21d283bc8ae1a891b3e34d875110258703f57ef3bf80b4",
          "blockNumber": "0x725117",
          "transactionHash": "0x2eaef26c9a246b1e0981dce4ccbd8602f09642eafe77c81fd472a55c2a81e6bc",
          "transactionIndex": "0x5a",
          "logIndex": "0x86",
          "removed": false
        }
      ],
      "logsBloom": "0x00000000000000000000000000000000000000000000000000000000000000000000000000000000000000000000000000000000000000004000020000000000000000000000000000000008000000000000000000000000000000000000000000000000020000000000000000000800020000000000000000000010002000000000000000000000000000000000000000000000000000000000010000000000000000000000000000000000000000004000000000000000000000000000000000000002000000800000000000000000000000000000080000000000000020000000000000000000008000000000000000000000000000000000000000000000",
      "type": "0x2",
      "transactionHash": "0x2eaef26c9a246b1e0981dce4ccbd8602f09642eafe77c81fd472a55c2a81e6bc",
      "transactionIndex": "0x5a",
      "blockHash": "0x9501408fdf63b5b7ee21d283bc8ae1a891b3e34d875110258703f57ef3bf80b4",
      "blockNumber": "0x725117",
      "gasUsed": "0x13e3b",
      "effectiveGasPrice": "0x28f13dc60",
      "from": "0xc77f7fed3b5cc8249adc428c5f44c9063b9734b4",
      "to": "0x3b71253dcecbaf453f48043c75f311253fd0ad31",
      "contractAddress": null
    }
  ],
  "libraries": [],
  "pending": [],
  "returns": {},
  "timestamp": 1736883963,
  "chain": 11155111,
  "commit": "51a374b"
}