{
  "transactions": [
    {
      "hash": "0xe469c06deac9c6454ded5f88c00c05e03267f6fb7a3d2df1f6d05675a5ea0dd0",
      "transactionType": "CALL",
      "contractName": null,
      "contractAddress": "0xbf4a322f1496e5c3d34a9bcdb4c60567b38c7de2",
      "function": "buy(address)",
      "arguments": [
        "0xC77f7fed3b5Cc8249aDc428c5F44C9063B9734b4"
      ],
      "transaction": {
        "from": "0xc77f7fed3b5cc8249adc428c5f44c9063b9734b4",
        "to": "0xbf4a322f1496e5c3d34a9bcdb4c60567b38c7de2",
        "gas": "0x1b309",
        "value": "0xde0b6b3a7640000",
        "input": "0xf088d547000000000000000000000000c77f7fed3b5cc8249adc428c5f44c9063b9734b4",
        "nonce": "0xdba",
        "chainId": "0xaa36a7"
      },
      "additionalContracts": [],
      "isFixedGasLimit": false
    }
  ],
  "receipts": [
    {
      "status": "0x1",
      "cumulativeGasUsed": "0xa8492f",
      "logs": [
        {
          "address": "0xbf4a322f1496e5c3d34a9bcdb4c60567b38c7de2",
          "topics": [
            "0xddf252ad1be2c89b69c2b068fc378daa952ba7f163c4a11628f55a4df523b3ef",
            "0x0000000000000000000000000000000000000000000000000000000000000000",
            "0x000000000000000000000000c77f7fed3b5cc8249adc428c5f44c9063b9734b4"
          ],
          "data": "0x000000000000000000000000000000000000000000000034a9b355b13baf7658",
          "blockHash": "0x172a6e61ff80e16f2a8536f4f96ac8c84e4c0e76b4e856ff4c77993369ebd97d",
          "blockNumber": "0x726695",
          "transactionHash": "0xe469c06deac9c6454ded5f88c00c05e03267f6fb7a3d2df1f6d05675a5ea0dd0",
          "transactionIndex": "0x6d",
          "logIndex": "0x99",
          "removed": false
        },
        {
          "address": "0xbf4a322f1496e5c3d34a9bcdb4c60567b38c7de2",
          "topics": [
            "0xddf252ad1be2c89b69c2b068fc378daa952ba7f163c4a11628f55a4df523b3ef",
            "0x0000000000000000000000000000000000000000000000000000000000000000",
            "0x000000000000000000000000c77f7fed3b5cc8249adc428c5f44c9063b9734b4"
          ],
          "data": "0x00000000000000000000000000000000000000000000000028e50014d217ffc4",
          "blockHash": "0x172a6e61ff80e16f2a8536f4f96ac8c84e4c0e76b4e856ff4c77993369ebd97d",
          "blockNumber": "0x726695",
          "transactionHash": "0xe469c06deac9c6454ded5f88c00c05e03267f6fb7a3d2df1f6d05675a5ea0dd0",
          "transactionIndex": "0x6d",
          "logIndex": "0x9a",
          "removed": false
        },
        {
          "address": "0xbf4a322f1496e5c3d34a9bcdb4c60567b38c7de2",
          "topics": [
            "0x4afcb4a87cdbd9974efdb92ee48bc8d7cd0ae4bf217004db3d080cbaee652ca7"
          ],
          "data": "0x000000000000000000000000000000000000000000000000000000006787c1f400000000000000000000000000000000000000000000000000039edcbcc270e70000000000000000000000000000000000000000000000000de0b6b3a7640000",
          "blockHash": "0x172a6e61ff80e16f2a8536f4f96ac8c84e4c0e76b4e856ff4c77993369ebd97d",
          "blockNumber": "0x726695",
          "transactionHash": "0xe469c06deac9c6454ded5f88c00c05e03267f6fb7a3d2df1f6d05675a5ea0dd0",
          "transactionIndex": "0x6d",
          "logIndex": "0x9b",
          "removed": false
        }
      ],
      "logsBloom": "0x00000000000000000000000000000000000000000000000000000000000000000000000000000000000000000000000000000000000000004000000000000000000000000000000000000008000000000000001000000000000000000000000000000000020000000000000000000800020000000000000000000010000000000000000000000000000000000000000000000000000008000000010000000000000000000000000000000000000000004000000000000000000000000000000000000002000000800000000000001000000000000000080000000000000020000000000000000000000000000000000000000000000000000000000000000000",
      "type": "0x2",
      "transactionHash": "0xe469c06deac9c6454ded5f88c00c05e03267f6fb7a3d2df1f6d05675a5ea0dd0",
      "transactionIndex": "0x6d",
      "blockHash": "0x172a6e61ff80e16f2a8536f4f96ac8c84e4c0e76b4e856ff4c77993369ebd97d",
      "blockNumber": "0x726695",
      "gasUsed": "0x13af6",
      "effectiveGasPrice": "0xc459bb0e",
      "from": "0xc77f7fed3b5cc8249adc428c5f44c9063b9734b4",
      "to": "0xbf4a322f1496e5c3d34a9bcdb4c60567b38c7de2",
      "contractAddress": null
    }
  ],
  "libraries": [],
  "pending": [],
  "returns": {},
  "timestamp": 1736950261,
  "chain": 11155111,
  "commit": "51a374b"
}