{
  "transactions": [
    {
      "hash": "0xd4154a2fa0603813f9d90317da62a47631776109de4eb56276d092add55826b0",
      "transactionType": "CALL",
      "contractName": null,
      "contractAddress": "0x270e88f8683660553e8ba4eb2ad7c91a1710d769",
      "function": "sell(uint256)",
      "arguments": [
        "720729286713566773793"
      ],
      "transaction": {
        "from": "0xc77f7fed3b5cc8249adc428c5f44c9063b9734b4",
        "to": "0x270e88f8683660553e8ba4eb2ad7c91a1710d769",
        "gas": "0x16fec",
        "value": "0x0",
        "input": "0xe4849b320000000000000000000000000000000000000000000000271220cbadb6cf4221",
        "nonce": "0x81a",
        "chainId": "0xaa36a7"
      },
      "additionalContracts": [],
      "isFixedGasLimit": false
    }
  ],
  "receipts": [
    {
      "status": "0x1",
      "cumulativeGasUsed": "0xaea35b",
      "logs": [
        {
          "address": "0x270e88f8683660553e8ba4eb2ad7c91a1710d769",
          "topics": [
            "0xddf252ad1be2c89b69c2b068fc378daa952ba7f163c4a11628f55a4df523b3ef",
            "0x000000000000000000000000c77f7fed3b5cc8249adc428c5f44c9063b9734b4",
            "0x0000000000000000000000000000000000000000000000000000000000000000"
          ],
          "data": "0x0000000000000000000000000000000000000000000000271220cbadb6cf4221",
          "blockHash": "0x04f4e934f12f2ae4211eac55a8e3f2080140d161ac7bca5caa61061241e946a3",
          "blockNumber": "0x72555e",
          "transactionHash": "0xd4154a2fa0603813f9d90317da62a47631776109de4eb56276d092add55826b0",
          "transactionIndex": "0x56",
          "logIndex": "0x6f",
          "removed": false
        },
        {
          "address": "0x270e88f8683660553e8ba4eb2ad7c91a1710d769",
          "topics": [
            "0x4afcb4a87cdbd9974efdb92ee48bc8d7cd0ae4bf217004db3d080cbaee652ca7"
          ],
          "data": "0x000000000000000000000000000000000000000000000000000000006786f2700000000000000000000000000000000000000000000000000004e55f4efd6e1e0000000000000000000000000000000000000000000000000dc826813f2e4117",
          "blockHash": "0x04f4e934f12f2ae4211eac55a8e3f2080140d161ac7bca5caa61061241e946a3",
          "blockNumber": "0x72555e",
          "transactionHash": "0xd4154a2fa0603813f9d90317da62a47631776109de4eb56276d092add55826b0",
          "transactionIndex": "0x56",
          "logIndex": "0x70",
          "removed": false
        }
      ],
      "logsBloom": "0x00000000000000000000000000000000000000000000000000000000000000000000000000000000000000000000000020000000000000004000000000000000000000000000000000000008000000000000000000000000000000000000000000000000020000000000000000000800020000000000000000000010000000000000000000010000000000000000000000000000000000000000010000000000000000000000000000000000000000004000000000000000000000000000000000000002000000800000000000000000000000000000080000008000000020000000000000000000000000000000000000000000000000000000000000000000",
      "type": "0x2",
      "transactionHash": "0xd4154a2fa0603813f9d90317da62a47631776109de4eb56276d092add55826b0",
      "transactionIndex": "0x56",
      "blockHash": "0x04f4e934f12f2ae4211eac55a8e3f2080140d161ac7bca5caa61061241e946a3",
      "blockNumber": "0x72555e",
      "gasUsed": "0xfb93",
      "effectiveGasPrice": "0x8a26db7c",
      "from": "0xc77f7fed3b5cc8249adc428c5f44c9063b9734b4",
      "to": "0x270e88f8683660553e8ba4eb2ad7c91a1710d769",
      "contractAddress": null
    }
  ],
  "libraries": [],
  "pending": [],
  "returns": {},
  "timestamp": 1736897138,
  "chain": 11155111,
  "commit": "51a374b"
}