{
  "transactions": [
    {
      "hash": "0x770e4eb536c71af3d2b6a61e410ec63196d2abf8a263b96b3ea6cacde54e2f0f",
      "transactionType": "CALL",
      "contractName": null,
      "contractAddress": "0xbf4a322f1496e5c3d34a9bcdb4c60567b38c7de2",
      "function": "sell(uint256)",
      "arguments": [
        "983705538275650154983"
      ],
      "transaction": {
        "from": "0xc77f7fed3b5cc8249adc428c5f44c9063b9734b4",
        "to": "0xbf4a322f1496e5c3d34a9bcdb4c60567b38c7de2",
        "gas": "0x16fea",
        "value": "0x0",
        "input": "0xe4849b3200000000000000000000000000000000000000000000003553a81f2a988db1e7",
        "nonce": "0xb05",
        "chainId": "0xaa36a7"
      },
      "additionalContracts": [],
      "isFixedGasLimit": false
    }
  ],
  "receipts": [
    {
      "status": "0x1",
      "cumulativeGasUsed": "0x8f49fa",
      "logs": [
        {
          "address": "0xbf4a322f1496e5c3d34a9bcdb4c60567b38c7de2",
          "topics": [
            "0xddf252ad1be2c89b69c2b068fc378daa952ba7f163c4a11628f55a4df523b3ef",
            "0x000000000000000000000000c77f7fed3b5cc8249adc428c5f44c9063b9734b4",
            "0x0000000000000000000000000000000000000000000000000000000000000000"
          ],
          "data": "0x00000000000000000000000000000000000000000000003553a81f2a988db1e7",
          "blockHash": "0xd0b9c8af4ea0d9b6e823e0e741432ff2d012ab9ffbf83947145fbc8bd810f1bb",
          "blockNumber": "0x725afa",
          "transactionHash": "0x770e4eb536c71af3d2b6a61e410ec63196d2abf8a263b96b3ea6cacde54e2f0f",
          "transactionIndex": "0x59",
          "logIndex": "0x76",
          "removed": false
        },
        {
          "address": "0xbf4a322f1496e5c3d34a9bcdb4c60567b38c7de2",
          "topics": [
            "0x4afcb4a87cdbd9974efdb92ee48bc8d7cd0ae4bf217004db3d080cbaee652ca7"
          ],
          "data": "0x00000000000000000000000000000000000000000000000000000000678736080000000000000000000000000000000000000000000000000003961db3454e590000000000000000000000000000000000000000000000000dc7e3eaae88621b",
          "blockHash": "0xd0b9c8af4ea0d9b6e823e0e741432ff2d012ab9ffbf83947145fbc8bd810f1bb",
          "blockNumber": "0x725afa",
          "transactionHash": "0x770e4eb536c71af3d2b6a61e410ec63196d2abf8a263b96b3ea6cacde54e2f0f",
          "transactionIndex": "0x59",
          "logIndex": "0x77",
          "removed": false
        }
      ],
      "logsBloom": "0x00000000000000000000000000000000000000000000000000000000000000000000000000000000000000000000000000000000000000004000000000000000000000000000000000000008000000000000001000000000000000000000000000000000020000000000000000000800020000000000000000000010000000000000000000000000000000000000000000000000000008000000010000000000000000000000000000000000000000004000000000000000000000000000000000000002000000800000000000001000000000000000080000000000000020000000000000000000000000000000000000000000000000000000000000000000",
      "type": "0x2",
      "transactionHash": "0x770e4eb536c71af3d2b6a61e410ec63196d2abf8a263b96b3ea6cacde54e2f0f",
      "transactionIndex": "0x59",
      "blockHash": "0xd0b9c8af4ea0d9b6e823e0e741432ff2d012ab9ffbf83947145fbc8bd810f1bb",
      "blockNumber": "0x725afa",
      "gasUsed": "0xfb91",
      "effectiveGasPrice": "0x9eb6208a",
      "from": "0xc77f7fed3b5cc8249adc428c5f44c9063b9734b4",
      "to": "0xbf4a322f1496e5c3d34a9bcdb4c60567b38c7de2",
      "contractAddress": null
    }
  ],
  "libraries": [],
  "pending": [],
  "returns": {},
  "timestamp": 1736914441,
  "chain": 11155111,
  "commit": "51a374b"
}