{
  "transactions": [
    {
      "hash": "0x630c646c82fd31fa1d6c6d9ca45bbb1b619d06a6f5e85d57357df6ad0ad93823",
      "transactionType": "CALL",
      "contractName": null,
      "contractAddress": "0x8aafd3ede9adb0ff97c7aebce82a919afb1c8764",
      "function": "sell(uint256)",
      "arguments": [
        "5535447902908753672"
      ],
      "transaction": {
        "from": "0xc77f7fed3b5cc8249adc428c5f44c9063b9734b4",
        "to": "0x8aafd3ede9adb0ff97c7aebce82a919afb1c8764",
        "gas": "0x15dca",
        "value": "0x0",
        "input": "0xe4849b320000000000000000000000000000000000000000000000004cd1dc8a258ea708",
        "nonce": "0x1164",
        "chainId": "0xaa36a7"
      },
      "additionalContracts": [],
      "isFixedGasLimit": false
    }
  ],
  "receipts": [
    {
      "status": "0x1",
      "cumulativeGasUsed": "0xb0bac5",
      "logs": [
        {
          "address": "0x8aafd3ede9adb0ff97c7aebce82a919afb1c8764",
          "topics": [
            "0xddf252ad1be2c89b69c2b068fc378daa952ba7f163c4a11628f55a4df523b3ef",
            "0x000000000000000000000000c77f7fed3b5cc8249adc428c5f44c9063b9734b4",
            "0x0000000000000000000000000000000000000000000000000000000000000000"
          ],
          "data": "0x0000000000000000000000000000000000000000000000004c3488daf6271c7b",
          "blockHash": "0xd7a612e1abcd1a6b2756f09adc73cd522dceb8579b64c942bb13507f27f148dc",
          "blockNumber": "0x731822",
          "transactionHash": "0x630c646c82fd31fa1d6c6d9ca45bbb1b619d06a6f5e85d57357df6ad0ad93823",
          "transactionIndex": "0x8e",
          "logIndex": "0xc6",
          "removed": false
        },
        {
          "address": "0x8aafd3ede9adb0ff97c7aebce82a919afb1c8764",
          "topics": [
            "0xddf252ad1be2c89b69c2b068fc378daa952ba7f163c4a11628f55a4df523b3ef",
            "0x000000000000000000000000c77f7fed3b5cc8249adc428c5f44c9063b9734b4",
            "0x000000000000000000000000c77f7fed3b5cc8249adc428c5f44c9063b9734b4"
          ],
          "data": "0x000000000000000000000000000000000000000000000000009d53af2f678a8d",
          "blockHash": "0xd7a612e1abcd1a6b2756f09adc73cd522dceb8579b64c942bb13507f27f148dc",
          "blockNumber": "0x731822",
          "transactionHash": "0x630c646c82fd31fa1d6c6d9ca45bbb1b619d06a6f5e85d57357df6ad0ad93823",
          "transactionIndex": "0x8e",
          "logIndex": "0xc7",
          "removed": false
        },
        {
          "address": "0x8aafd3ede9adb0ff97c7aebce82a919afb1c8764",
          "topics": [
            "0x4afcb4a87cdbd9974efdb92ee48bc8d7cd0ae4bf217004db3d080cbaee652ca7"
          ],
          "data": "0x0000000000000000000000000000000000000000000000000000000067901e5c00000000000000000000000000000000000000000000000000051aaf761b1e57000000000000000000000000000000000000000000000000001c410b0643f934",
          "blockHash": "0xd7a612e1abcd1a6b2756f09adc73cd522dceb8579b64c942bb13507f27f148dc",
          "blockNumber": "0x731822",
          "transactionHash": "0x630c646c82fd31fa1d6c6d9ca45bbb1b619d06a6f5e85d57357df6ad0ad93823",
          "transactionIndex": "0x8e",
          "logIndex": "0xc8",
          "removed": false
        }
      ],
      "logsBloom": "0x00000000000000000000000000000000000000000600000000000000000000000000000000000000000000000000000000000000000000004000000000000000000000000000004000000008000000000000000000000000000000000000000000000000020000000000000000000800020000000000000000000010000000000000000000000000000000000000000000000000000000000000010000000000000000000000000000000000000000004000000000000000000000000000000000000002000000800000000000000000000000000000080000000000000020000000000000000000000000000000000000000000000000000000000000000000",
      "type": "0x2",
      "transactionHash": "0x630c646c82fd31fa1d6c6d9ca45bbb1b619d06a6f5e85d57357df6ad0ad93823",
      "transactionIndex": "0x8e",
      "blockHash": "0xd7a612e1abcd1a6b2756f09adc73cd522dceb8579b64c942bb13507f27f148dc",
      "blockNumber": "0x731822",
      "gasUsed": "0xfd3f",
      "effectiveGasPrice": "0x478f0ab6",
      "from": "0xc77f7fed3b5cc8249adc428c5f44c9063b9734b4",
      "to": "0x8aafd3ede9adb0ff97c7aebce82a919afb1c8764",
      "contractAddress": null
    }
  ],
  "libraries": [],
  "pending": [],
  "returns": {},
  "timestamp": 1737498205,
  "chain": 11155111,
  "commit": "1d2fb70"
}