{
  "transactions": [
    {
      "hash": "0x6811a31257d58052c37e4b12ced7a1e7a9ac85bcba74bb652d0e37dcddc3a2b7",
      "transactionType": "CALL",
      "contractName": null,
      "contractAddress": "0x8aafd3ede9adb0ff97c7aebce82a919afb1c8764",
      "function": "sell(uint256)",
      "arguments": [
        "748531983256946907057"
      ],
      "transaction": {
        "from": "0xc77f7fed3b5cc8249adc428c5f44c9063b9734b4",
        "to": "0x8aafd3ede9adb0ff97c7aebce82a919afb1c8764",
        "gas": "0x17270",
        "value": "0x0",
        "input": "0xe4849b3200000000000000000000000000000000000000000000002893f7d0e138f697b1",
        "nonce": "0xe92",
        "chainId": "0xaa36a7"
      },
      "additionalContracts": [],
      "isFixedGasLimit": false
    }
  ],
  "receipts": [
    {
      "status": "0x1",
      "cumulativeGasUsed": "0xa4d26f",
      "logs": [
        {
          "address": "0x8aafd3ede9adb0ff97c7aebce82a919afb1c8764",
          "topics": [
            "0xddf252ad1be2c89b69c2b068fc378daa952ba7f163c4a11628f55a4df523b3ef",
            "0x000000000000000000000000c77f7fed3b5cc8249adc428c5f44c9063b9734b4",
            "0x0000000000000000000000000000000000000000000000000000000000000000"
          ],
          "data": "0x00000000000000000000000000000000000000000000002840dd41e5909250d9",
          "blockHash": "0xfdb1d1c02abc7cf8333c3c4fdbd1b1d3d4d72c1cceb98990918703c6372a7a67",
          "blockNumber": "0x7313ef",
          "transactionHash": "0x6811a31257d58052c37e4b12ced7a1e7a9ac85bcba74bb652d0e37dcddc3a2b7",
          "transactionIndex": "0x8b",
          "logIndex": "0x9b",
          "removed": false
        },
        {
          "address": "0x8aafd3ede9adb0ff97c7aebce82a919afb1c8764",
          "topics": [
            "0xddf252ad1be2c89b69c2b068fc378daa952ba7f163c4a11628f55a4df523b3ef",
            "0x000000000000000000000000c77f7fed3b5cc8249adc428c5f44c9063b9734b4",
            "0x000000000000000000000000c77f7fed3b5cc8249adc428c5f44c9063b9734b4"
          ],
          "data": "0x000000000000000000000000000000000000000000000000531a8efba86446d8",
          "blockHash": "0xfdb1d1c02abc7cf8333c3c4fdbd1b1d3d4d72c1cceb98990918703c6372a7a67",
          "blockNumber": "0x7313ef",
          "transactionHash": "0x6811a31257d58052c37e4b12ced7a1e7a9ac85bcba74bb652d0e37dcddc3a2b7",
          "transactionIndex": "0x8b",
          "logIndex": "0x9c",
          "removed": false
        },
        {
          "address": "0x8aafd3ede9adb0ff97c7aebce82a919afb1c8764",
          "topics": [
            "0x4afcb4a87cdbd9974efdb92ee48bc8d7cd0ae4bf217004db3d080cbaee652ca7"
          ],
          "data": "0x00000000000000000000000000000000000000000000000000000000678febc80000000000000000000000000000000000000000000000000004b6f317dc17b80000000000000000000000000000000000000000000000000dc834b9b41a470a",
          "blockHash": "0xfdb1d1c02abc7cf8333c3c4fdbd1b1d3d4d72c1cceb98990918703c6372a7a67",
          "blockNumber": "0x7313ef",
          "transactionHash": "0x6811a31257d58052c37e4b12ced7a1e7a9ac85bcba74bb652d0e37dcddc3a2b7",
          "transactionIndex": "0x8b",
          "logIndex": "0x9d",
          "removed": false
        }
      ],
      "logsBloom": "0x00000000000000000000000000000000000000000600000000000000000000000000000000000000000000000000000000000000000000004000000000000000000000000000004000000008000000000000000000000000000000000000000000000000020000000000000000000800020000000000000000000010000000000000000000000000000000000000000000000000000000000000010000000000000000000000000000000000000000004000000000000000000000000000000000000002000000800000000000000000000000000000080000000000000020000000000000000000000000000000000000000000000000000000000000000000",
      "type": "0x2",
      "transactionHash": "0x6811a31257d58052c37e4b12ced7a1e7a9ac85bcba74bb652d0e37dcddc3a2b7",
      "transactionIndex": "0x8b",
      "blockHash": "0xfdb1d1c02abc7cf8333c3c4fdbd1b1d3d4d72c1cceb98990918703c6372a7a67",
      "blockNumber": "0x7313ef",
      "gasUsed": "0xfd4b",
      "effectiveGasPrice": "0x80ab9d7b",
      "from": "0xc77f7fed3b5cc8249adc428c5f44c9063b9734b4",
      "to": "0x8aafd3ede9adb0ff97c7aebce82a919afb1c8764",
      "contractAddress": null
    }
  ],
  "libraries": [],
  "pending": [],
  "returns": {},
  "timestamp": 1737485257,
  "chain": 11155111,
  "commit": "51a374b"
}