{
  "transactions": [
    {
      "hash": "0x18369b2ec0dff8fcf50c3c95121304d699e39028366a818b15bd3d7ee5e8586b",
      "transactionType": "CALL",
      "contractName": null,
      "contractAddress": "0x270e88f8683660553e8ba4eb2ad7c91a1710d769",
      "function": "sell(uint256)",
      "arguments": [
        "986969741095541875812"
      ],
      "transaction": {
        "from": "0xc77f7fed3b5cc8249adc428c5f44c9063b9734b4",
        "to": "0x270e88f8683660553e8ba4eb2ad7c91a1710d769",
        "gas": "0x16fec",
        "value": "0x0",
        "input": "0xe4849b3200000000000000000000000000000000000000000000003580f4e6562b072464",
        "nonce": "0x4fb",
        "chainId": "0xaa36a7"
      },
      "additionalContracts": [],
      "isFixedGasLimit": false
    }
  ],
  "receipts": [
    {
      "status": "0x1",
      "cumulativeGasUsed": "0xbe003b",
      "logs": [
        {
          "address": "0x270e88f8683660553e8ba4eb2ad7c91a1710d769",
          "topics": [
            "0xddf252ad1be2c89b69c2b068fc378daa952ba7f163c4a11628f55a4df523b3ef",
            "0x000000000000000000000000c77f7fed3b5cc8249adc428c5f44c9063b9734b4",
            "0x0000000000000000000000000000000000000000000000000000000000000000"
          ],
          "data": "0x00000000000000000000000000000000000000000000003580f4e6562b072464",
          "blockHash": "0x8c36cfbb03206595fa937765f75c7edd1ad7401bc74fa20784ce85b2df67fa5c",
          "blockNumber": "0x72518d",
          "transactionHash": "0x18369b2ec0dff8fcf50c3c95121304d699e39028366a818b15bd3d7ee5e8586b",
          "transactionIndex": "0x54",
          "logIndex": "0x6c",
          "removed": false
        },
        {
          "address": "0x270e88f8683660553e8ba4eb2ad7c91a1710d769",
          "topics": [
            "0x4afcb4a87cdbd9974efdb92ee48bc8d7cd0ae4bf217004db3d080cbaee652ca7"
          ],
          "data": "0x000000000000000000000000000000000000000000000000000000006786c48000000000000000000000000000000000000000000000000000039358cd725f910000000000000000000000000000000000000000000000000dc841f4c86f666f",
          "blockHash": "0x8c36cfbb03206595fa937765f75c7edd1ad7401bc74fa20784ce85b2df67fa5c",
          "blockNumber": "0x72518d",
          "transactionHash": "0x18369b2ec0dff8fcf50c3c95121304d699e39028366a818b15bd3d7ee5e8586b",
          "transactionIndex": "0x54",
          "logIndex": "0x6d",
          "removed": false
        }
      ],
      "logsBloom": "0x00000000000000000000000000000000000000000000000000000000000000000000000000000000000000000000000020000000000000004000000000000000000000000000000000000008000000000000000000000000000000000000000000000000020000000000000000000800020000000000000000000010000000000000000000010000000000000000000000000000000000000000010000000000000000000000000000000000000000004000000000000000000000000000000000000002000000800000000000000000000000000000080000008000000020000000000000000000000000000000000000000000000000000000000000000000",
      "type": "0x2",
      "transactionHash": "0x18369b2ec0dff8fcf50c3c95121304d699e39028366a818b15bd3d7ee5e8586b",
      "transactionIndex": "0x54",
      "blockHash": "0x8c36cfbb03206595fa937765f75c7edd1ad7401bc74fa20784ce85b2df67fa5c",
      "blockNumber": "0x72518d",
      "gasUsed": "0xfb93",
      "effectiveGasPrice": "0x49996d87b",
      "from": "0xc77f7fed3b5cc8249adc428c5f44c9063b9734b4",
      "to": "0x270e88f8683660553e8ba4eb2ad7c91a1710d769",
      "contractAddress": null
    }
  ],
  "libraries": [],
  "pending": [],
  "returns": {},
  "timestamp": 1736885377,
  "chain": 11155111,
  "commit": "51a374b"
}