{
  "transactions": [
    {
      "hash": "0x3731c14a7a82286864e9a72750a1b529e3ff7aa4b6979ebeb015dd108efcf038",
      "transactionType": "CALL",
      "contractName": null,
      "contractAddress": "0xbf4a322f1496e5c3d34a9bcdb4c60567b38c7de2",
      "function": "sell(uint256)",
      "arguments": [
        "975415514465660442834"
      ],
      "transaction": {
        "from": "0xc77f7fed3b5cc8249adc428c5f44c9063b9734b4",
        "to": "0xbf4a322f1496e5c3d34a9bcdb4c60567b38c7de2",
        "gas": "0x16fea",
        "value": "0x0",
        "input": "0xe4849b32000000000000000000000000000000000000000000000034e09c0a6f029618d2",
        "nonce": "0xd6f",
        "chainId": "0xaa36a7"
      },
      "additionalContracts": [],
      "isFixedGasLimit": false
    }
  ],
  "receipts": [
    {
      "status": "0x1",
      "cumulativeGasUsed": "0xaf1968",
      "logs": [
        {
          "address": "0xbf4a322f1496e5c3d34a9bcdb4c60567b38c7de2",
          "topics": [
            "0xddf252ad1be2c89b69c2b068fc378daa952ba7f163c4a11628f55a4df523b3ef",
            "0x000000000000000000000000c77f7fed3b5cc8249adc428c5f44c9063b9734b4",
            "0x0000000000000000000000000000000000000000000000000000000000000000"
          ],
          "data": "0x000000000000000000000000000000000000000000000034e09c0a6f029618d2",
          "blockHash": "0x2d755547fea2b29508ce3f6906118e5496a46daab0cd59573329c4d26b42e6ae",
          "blockNumber": "0x72663e",
          "transactionHash": "0x3731c14a7a82286864e9a72750a1b529e3ff7aa4b6979ebeb015dd108efcf038",
          "transactionIndex": "0x56",
          "logIndex": "0x84",
          "removed": false
        },
        {
          "address": "0xbf4a322f1496e5c3d34a9bcdb4c60567b38c7de2",
          "topics": [
            "0x4afcb4a87cdbd9974efdb92ee48bc8d7cd0ae4bf217004db3d080cbaee652ca7"
          ],
          "data": "0x000000000000000000000000000000000000000000000000000000006787bd9800000000000000000000000000000000000000000000000000039deb3910a3a80000000000000000000000000000000000000000000000000dc7e3d7683ca8d6",
          "blockHash": "0x2d755547fea2b29508ce3f6906118e5496a46daab0cd59573329c4d26b42e6ae",
          "blockNumber": "0x72663e",
          "transactionHash": "0x3731c14a7a82286864e9a72750a1b529e3ff7aa4b6979ebeb015dd108efcf038",
          "transactionIndex": "0x56",
          "logIndex": "0x85",
          "removed": false
        }
      ],
      "logsBloom": "0x00000000000000000000000000000000000000000000000000000000000000000000000000000000000000000000000000000000000000004000000000000000000000000000000000000008000000000000001000000000000000000000000000000000020000000000000000000800020000000000000000000010000000000000000000000000000000000000000000000000000008000000010000000000000000000000000000000000000000004000000000000000000000000000000000000002000000800000000000001000000000000000080000000000000020000000000000000000000000000000000000000000000000000000000000000000",
      "type": "0x2",
      "transactionHash": "0x3731c14a7a82286864e9a72750a1b529e3ff7aa4b6979ebeb015dd108efcf038",
      "transactionIndex": "0x56",
      "blockHash": "0x2d755547fea2b29508ce3f6906118e5496a46daab0cd59573329c4d26b42e6ae",
      "blockNumber": "0x72663e",
      "gasUsed": "0xfb91",
      "effectiveGasPrice": "0xa9eab991",
      "from": "0xc77f7fed3b5cc8249adc428c5f44c9063b9734b4",
      "to": "0xbf4a322f1496e5c3d34a9bcdb4c60567b38c7de2",
      "contractAddress": null
    }
  ],
  "libraries": [],
  "pending": [],
  "returns": {},
  "timestamp": 1736949144,
  "chain": 11155111,
  "commit": "51a374b"
}