{
  "transactions": [
    {
      "hash": "0x140326b0e5d912b4e9c457bcbfe9ef9ec5a98ad5522c5381db90cec8263e6f73",
      "transactionType": "CALL",
      "contractName": null,
      "contractAddress": "0x8aafd3ede9adb0ff97c7aebce82a919afb1c8764",
      "function": "sell(uint256)",
      "arguments": [
        "47690136"
      ],
      "transaction": {
        "from": "0xc77f7fed3b5cc8249adc428c5f44c9063b9734b4",
        "to": "0x8aafd3ede9adb0ff97c7aebce82a919afb1c8764",
        "gas": "0x15d88",
        "value": "0x0",
        "input": "0xe4849b320000000000000000000000000000000000000000000000000000000002d7b198",
        "nonce": "0x15d4",
        "chainId": "0xaa36a7"
      },
      "additionalContracts": [],
      "isFixedGasLimit": false
    }
  ],
  "receipts": [
    {
      "status": "0x1",
      "cumulativeGasUsed": "0x8fc90f",
      "logs": [
        {
          "address": "0x8aafd3ede9adb0ff97c7aebce82a919afb1c8764",
          "topics": [
            "0xddf252ad1be2c89b69c2b068fc378daa952ba7f163c4a11628f55a4df523b3ef",
            "0x000000000000000000000000c77f7fed3b5cc8249adc428c5f44c9063b9734b4",
            "0x0000000000000000000000000000000000000000000000000000000000000000"
          ],
          "data": "0x0000000000000000000000000000000000000000000000000000000002d1df47",
          "blockHash": "0x1579ec3cfb363b85b447bcd2032ba076aba380c71a5951a71cf947a1843181bb",
          "blockNumber": "0x731d51",
          "transactionHash": "0x140326b0e5d912b4e9c457bcbfe9ef9ec5a98ad5522c5381db90cec8263e6f73",
          "transactionIndex": "0x4e",
          "logIndex": "0x9b",
          "removed": false
        },
        {
          "address": "0x8aafd3ede9adb0ff97c7aebce82a919afb1c8764",
          "topics": [
            "0xddf252ad1be2c89b69c2b068fc378daa952ba7f163c4a11628f55a4df523b3ef",
            "0x000000000000000000000000c77f7fed3b5cc8249adc428c5f44c9063b9734b4",
            "0x000000000000000000000000c77f7fed3b5cc8249adc428c5f44c9063b9734b4"
          ],
          "data": "0x000000000000000000000000000000000000000000000000000000000005d251",
          "blockHash": "0x1579ec3cfb363b85b447bcd2032ba076aba380c71a5951a71cf947a1843181bb",
          "blockNumber": "0x731d51",
          "transactionHash": "0x140326b0e5d912b4e9c457bcbfe9ef9ec5a98ad5522c5381db90cec8263e6f73",
          "transactionIndex": "0x4e",
          "logIndex": "0x9c",
          "removed": false
        },
        {
          "address": "0x8aafd3ede9adb0ff97c7aebce82a919afb1c8764",
          "topics": [
            "0x4afcb4a87cdbd9974efdb92ee48bc8d7cd0ae4bf217004db3d080cbaee652ca7"
          ],
          "data": "0x0000000000000000000000000000000000000000000000000000000067905cb400000000000000000000000000000000000000000000000000137f11d47f9989000000000000000000000000000000000000000000000000000000000003fe4f",
          "blockHash": "0x1579ec3cfb363b85b447bcd2032ba076aba380c71a5951a71cf947a1843181bb",
          "blockNumber": "0x731d51",
          "transactionHash": "0x140326b0e5d912b4e9c457bcbfe9ef9ec5a98ad5522c5381db90cec8263e6f73",
          "transactionIndex": "0x4e",
          "logIndex": "0x9d",
          "removed": false
        }
      ],
      "logsBloom": "0x00000000000000000000000000000000000000000600000000000000000000000000000000000000000000000000000000000000000000004000000000000000000000000000004000000008000000000000000000000000000000000000000000000000020000000000000000000800020000000000000000000010000000000000000000000000000000000000000000000000000000000000010000000000000000000000000000000000000000004000000000000000000000000000000000000002000000800000000000000000000000000000080000000000000020000000000000000000000000000000000000000000000000000000000000000000",
      "type": "0x2",
      "transactionHash": "0x140326b0e5d912b4e9c457bcbfe9ef9ec5a98ad5522c5381db90cec8263e6f73",
      "transactionIndex": "0x4e",
      "blockHash": "0x1579ec3cfb363b85b447bcd2032ba076aba380c71a5951a71cf947a1843181bb",
      "blockNumber": "0x731d51",
      "gasUsed": "0xfd0f",
      "effectiveGasPrice": "0x63648973",
      "from": "0xc77f7fed3b5cc8249adc428c5f44c9063b9734b4",
      "to": "0x8aafd3ede9adb0ff97c7aebce82a919afb1c8764",
      "contractAddress": null
    }
  ],
  "libraries": [],
  "pending": [],
  "returns": {},
  "timestamp": 1737514166,
  "chain": 11155111,
  "commit": "1d2fb70"
}