{
  "transactions": [
    {
      "hash": "0x2c86e41ede13df291dfdd1dadbfb2ff44bb2338f4e72e113646f142d676f6ef0",
      "transactionType": "CALL",
      "contractName": null,
      "contractAddress": "0x270e88f8683660553e8ba4eb2ad7c91a1710d769",
      "function": "sell(uint256)",
      "arguments": [
        "740286181721169477009"
      ],
      "transaction": {
        "from": "0xc77f7fed3b5cc8249adc428c5f44c9063b9734b4",
        "to": "0x270e88f8683660553e8ba4eb2ad7c91a1710d769",
        "gas": "0x16fec",
        "value": "0x0",
        "input": "0xe4849b320000000000000000000000000000000000000000000000282188d81234943d91",
        "nonce": "0x738",
        "chainId": "0xaa36a7"
      },
      "additionalContracts": [],
      "isFixedGasLimit": false
    }
  ],
  "receipts": [
    {
      "status": "0x1",
      "cumulativeGasUsed": "0x93dc71",
      "logs": [
        {
          "address": "0x270e88f8683660553e8ba4eb2ad7c91a1710d769",
          "topics": [
            "0xddf252ad1be2c89b69c2b068fc378daa952ba7f163c4a11628f55a4df523b3ef",
            "0x000000000000000000000000c77f7fed3b5cc8249adc428c5f44c9063b9734b4",
            "0x0000000000000000000000000000000000000000000000000000000000000000"
          ],
          "data": "0x0000000000000000000000000000000000000000000000282188d81234943d91",
          "blockHash": "0x246bb2ffe26ac3fcf91e38340b07e0b44389ad5fdbed203015fc73703baaab6f",
          "blockNumber": "0x725459",
          "transactionHash": "0x2c86e41ede13df291dfdd1dadbfb2ff44bb2338f4e72e113646f142d676f6ef0",
          "transactionIndex": "0x3d",
          "logIndex": "0x64",
          "removed": false
        },
        {
          "address": "0x270e88f8683660553e8ba4eb2ad7c91a1710d769",
          "topics": [
            "0x4afcb4a87cdbd9974efdb92ee48bc8d7cd0ae4bf217004db3d080cbaee652ca7"
          ],
          "data": "0x000000000000000000000000000000000000000000000000000000006786e6340000000000000000000000000000000000000000000000000004c444b54990a30000000000000000000000000000000000000000000000000dc828878e6992a0",
          "blockHash": "0x246bb2ffe26ac3fcf91e38340b07e0b44389ad5fdbed203015fc73703baaab6f",
          "blockNumber": "0x725459",
          "transactionHash": "0x2c86e41ede13df291dfdd1dadbfb2ff44bb2338f4e72e113646f142d676f6ef0",
          "transactionIndex": "0x3d",
          "logIndex": "0x65",
          "removed": false
        }
      ],
      "logsBloom": "0x00000000000000000000000000000000000000000000000000000000000000000000000000000000000000000000000020000000000000004000000000000000000000000000000000000008000000000000000000000000000000000000000000000000020000000000000000000800020000000000000000000010000000000000000000010000000000000000000000000000000000000000010000000000000000000000000000000000000000004000000000000000000000000000000000000002000000800000000000000000000000000000080000008000000020000000000000000000000000000000000000000000000000000000000000000000",
      "type": "0x2",
      "transactionHash": "0x2c86e41ede13df291dfdd1dadbfb2ff44bb2338f4e72e113646f142d676f6ef0",
      "transactionIndex": "0x3d",
      "blockHash": "0x246bb2ffe26ac3fcf91e38340b07e0b44389ad5fdbed203015fc73703baaab6f",
      "blockNumber": "0x725459",
      "gasUsed": "0xfb93",
      "effectiveGasPrice": "0x131215b99",
      "from": "0xc77f7fed3b5cc8249adc428c5f44c9063b9734b4",
      "to": "0x270e88f8683660553e8ba4eb2ad7c91a1710d769",
      "contractAddress": null
    }
  ],
  "libraries": [],
  "pending": [],
  "returns": {},
  "timestamp": 1736894005,
  "chain": 11155111,
  "commit": "51a374b"
}