{
  "transactions": [
    {
      "hash": "0x40f40c4a3b3102de06ec64caa21672647204e6a1c21081e7068d571722578b3e",
      "transactionType": "CALL",
      "contractName": null,
      "contractAddress": "0x270e88f8683660553e8ba4eb2ad7c91a1710d769",
      "function": "buy(address)",
      "arguments": [
        "0xC77f7fed3b5Cc8249aDc428c5F44C9063B9734b4"
      ],
      "transaction": {
        "from": "0xc77f7fed3b5cc8249adc428c5f44c9063b9734b4",
        "to": "0x270e88f8683660553e8ba4eb2ad7c91a1710d769",
        "gas": "0x1b30c",
        "value": "0xde0b6b3a7640000",
        "input": "0xf088d547000000000000000000000000c77f7fed3b5cc8249adc428c5f44c9063b9734b4",
        "nonce": "0x811",
        "chainId": "0xaa36a7"
      },
      "additionalContracts": [],
      "isFixedGasLimit": false
    }
  ],
  "receipts": [
    {
      "status": "0x1",
      "cumulativeGasUsed": "0xc69237",
      "logs": [
        {
          "address": "0x270e88f8683660553e8ba4eb2ad7c91a1710d769",
          "topics": [
            "0xddf252ad1be2c89b69c2b068fc378daa952ba7f163c4a11628f55a4df523b3ef",
            "0x0000000000000000000000000000000000000000000000000000000000000000",
            "0x000000000000000000000000c77f7fed3b5cc8249adc428c5f44c9063b9734b4"
          ],
          "data": "0x000000000000000000000000000000000000000000000026fd36e90e2fbcb2e2",
          "blockHash": "0x8f938f63a0c19e34a1feced0290c3f4ba9dfe1073d993b6438d2be4c396bd4e1",
          "blockNumber": "0x725553",
          "transactionHash": "0x40f40c4a3b3102de06ec64caa21672647204e6a1c21081e7068d571722578b3e",
          "transactionIndex": "0x4d",
          "logIndex": "0x79",
          "removed": false
        },
        {
          "address": "0x270e88f8683660553e8ba4eb2ad7c91a1710d769",
          "topics": [
            "0xddf252ad1be2c89b69c2b068fc378daa952ba7f163c4a11628f55a4df523b3ef",
            "0x0000000000000000000000000000000000000000000000000000000000000000",
            "0x000000000000000000000000c77f7fed3b5cc8249adc428c5f44c9063b9734b4"
          ],
          "data": "0x0000000000000000000000000000000000000000000000001e46c0e62d3af9bb",
          "blockHash": "0x8f938f63a0c19e34a1feced0290c3f4ba9dfe1073d993b6438d2be4c396bd4e1",
          "blockNumber": "0x725553",
          "transactionHash": "0x40f40c4a3b3102de06ec64caa21672647204e6a1c21081e7068d571722578b3e",
          "transactionIndex": "0x4d",
          "logIndex": "0x7a",
          "removed": false
        },
        {
          "address": "0x270e88f8683660553e8ba4eb2ad7c91a1710d769",
          "topics": [
            "0x4afcb4a87cdbd9974efdb92ee48bc8d7cd0ae4bf217004db3d080cbaee652ca7"
          ],
          "data": "0x000000000000000000000000000000000000000000000000000000006786f1ec0000000000000000000000000000000000000000000000000004e40322a7330a0000000000000000000000000000000000000000000000000de0b6b3a7640000",
          "blockHash": "0x8f938f63a0c19e34a1feced0290c3f4ba9dfe1073d993b6438d2be4c396bd4e1",
          "blockNumber": "0x725553",
          "transactionHash": "0x40f40c4a3b3102de06ec64caa21672647204e6a1c21081e7068d571722578b3e",
          "transactionIndex": "0x4d",
          "logIndex": "0x7b",
          "removed": false
        }
      ],
      "logsBloom": "0x00000000000000000000000000000000000000000000000000000000000000000000000000000000000000000000000020000000000000004000000000000000000000000000000000000008000000000000000000000000000000000000000000000000020000000000000000000800020000000000000000000010000000000000000000010000000000000000000000000000000000000000010000000000000000000000000000000000000000004000000000000000000000000000000000000002000000800000000000000000000000000000080000008000000020000000000000000000000000000000000000000000000000000000000000000000",
      "type": "0x2",
      "transactionHash": "0x40f40c4a3b3102de06ec64caa21672647204e6a1c21081e7068d571722578b3e",
      "transactionIndex": "0x4d",
      "blockHash": "0x8f938f63a0c19e34a1feced0290c3f4ba9dfe1073d993b6438d2be4c396bd4e1",
      "blockNumber": "0x725553",
      "gasUsed": "0x13af8",
      "effectiveGasPrice": "0x86900aa5",
      "from": "0xc77f7fed3b5cc8249adc428c5f44c9063b9734b4",
      "to": "0x270e88f8683660553e8ba4eb2ad7c91a1710d769",
      "contractAddress": null
    }
  ],
  "libraries": [],
  "pending": [],
  "returns": {},
  "timestamp": 1736897005,
  "chain": 11155111,
  "commit": "51a374b"
}