{
  "transactions": [
    {
      "hash": "0x1df4398fbf89bac0bb5f32279a623b092cd82fcc912f2084e58c4d1864722779",
      "transactionType": "CALL",
      "contractName": null,
      "contractAddress": "0x8aafd3ede9adb0ff97c7aebce82a919afb1c8764",
      "function": "sell(uint256)",
      "arguments": [
        "379478"
      ],
      "transaction": {
        "from": "0xc77f7fed3b5cc8249adc428c5f44c9063b9734b4",
        "to": "0x8aafd3ede9adb0ff97c7aebce82a919afb1c8764",
        "gas": "0x17207",
        "value": "0x0",
        "input": "0xe4849b32000000000000000000000000000000000000000000000000000000000005ca56",
        "nonce": "0x15de",
        "chainId": "0xaa36a7"
      },
      "additionalContracts": [],
      "isFixedGasLimit": false
    }
  ],
  "receipts": [
    {
      "status": "0x1",
      "cumulativeGasUsed": "0x7a2360",
      "logs": [
        {
          "address": "0x8aafd3ede9adb0ff97c7aebce82a919afb1c8764",
          "topics": [
            "0xddf252ad1be2c89b69c2b068fc378daa952ba7f163c4a11628f55a4df523b3ef",
            "0x000000000000000000000000c77f7fed3b5cc8249adc428c5f44c9063b9734b4",
            "0x0000000000000000000000000000000000000000000000000000000000000000"
          ],
          "data": "0x000000000000000000000000000000000000000000000000000000000005be7b",
          "blockHash": "0x7a1f94057046ed59fa4ddfbd2b101e765f19e301f4c92c37cae1d1ebf1235e98",
          "blockNumber": "0x731d60",
          "transactionHash": "0x1df4398fbf89bac0bb5f32279a623b092cd82fcc912f2084e58c4d1864722779",
          "transactionIndex": "0x4e",
          "logIndex": "0x98",
          "removed": false
        },
        {
          "address": "0x8aafd3ede9adb0ff97c7aebce82a919afb1c8764",
          "topics": [
            "0xddf252ad1be2c89b69c2b068fc378daa952ba7f163c4a11628f55a4df523b3ef",
            "0x000000000000000000000000c77f7fed3b5cc8249adc428c5f44c9063b9734b4",
            "0x000000000000000000000000c77f7fed3b5cc8249adc428c5f44c9063b9734b4"
          ],
          "data": "0x0000000000000000000000000000000000000000000000000000000000000bdb",
          "blockHash": "0x7a1f94057046ed59fa4ddfbd2b101e765f19e301f4c92c37cae1d1ebf1235e98",
          "blockNumber": "0x731d60",
          "transactionHash": "0x1df4398fbf89bac0bb5f32279a623b092cd82fcc912f2084e58c4d1864722779",
          "transactionIndex": "0x4e",
          "logIndex": "0x99",
          "removed": false
        },
        {
          "address": "0x8aafd3ede9adb0ff97c7aebce82a919afb1c8764",
          "topics": [
            "0x4afcb4a87cdbd9974efdb92ee48bc8d7cd0ae4bf217004db3d080cbaee652ca7"
          ],
          "data": "0x0000000000000000000000000000000000000000000000000000000067905d68000000000000000000000000000000000000000000000000001399ccb4c1d92c000000000000000000000000000000000000000000000000000000000000082d",
          "blockHash": "0x7a1f94057046ed59fa4ddfbd2b101e765f19e301f4c92c37cae1d1ebf1235e98",
          "blockNumber": "0x731d60",
          "transactionHash": "0x1df4398fbf89bac0bb5f32279a623b092cd82fcc912f2084e58c4d1864722779",
          "transactionIndex": "0x4e",
          "logIndex": "0x9a",
          "removed": false
        }
      ],
      "logsBloom": "0x00000000000000000000000000000000000000000600000000000000000000000000000000000000000000000000000000000000000000004000000000000000000000000000004000000008000000000000000000000000000000000000000000000000020000000000000000000800020000000000000000000010000000000000000000000000000000000000000000000000000000000000010000000000000000000000000000000000000000004000000000000000000000000000000000000002000000800000000000000000000000000000080000000000000020000000000000000000000000000000000000000000000000000000000000000000",
      "type": "0x2",
      "transactionHash": "0x1df4398fbf89bac0bb5f32279a623b092cd82fcc912f2084e58c4d1864722779",
      "transactionIndex": "0x4e",
      "blockHash": "0x7a1f94057046ed59fa4ddfbd2b101e765f19e301f4c92c37cae1d1ebf1235e98",
      "blockNumber": "0x731d60",
      "gasUsed": "0xfd03",
      "effectiveGasPrice": "0x682019cc",
      "from": "0xc77f7fed3b5cc8249adc428c5f44c9063b9734b4",
      "to": "0x8aafd3ede9adb0ff97c7aebce82a919afb1c8764",
      "contractAddress": null
    }
  ],
  "libraries": [],
  "pending": [],
  "returns": {},
  "timestamp": 1737514345,
  "chain": 11155111,
  "commit": "1d2fb70"
}