{
  "transactions": [
    {
      "hash": "0xb3a5c59d4169646cfe44616ba76144a55536ea4a46fc8116e39025eaa5a96e97",
      "transactionType": "CALL",
      "contractName": null,
      "contractAddress": "0x8aafd3ede9adb0ff97c7aebce82a919afb1c8764",
      "function": "sell(uint256)",
      "arguments": [
        "698931749658914731737"
      ],
      "transaction": {
        "from": "0xc77f7fed3b5cc8249adc428c5f44c9063b9734b4",
        "to": "0x8aafd3ede9adb0ff97c7aebce82a919afb1c8764",
        "gas": "0x17270",
        "value": "0x0",
        "input": "0xe4849b32000000000000000000000000000000000000000000000025e3a0633735dc36d9",
        "nonce": "0x1109",
        "chainId": "0xaa36a7"
      },
      "additionalContracts": [],
      "isFixedGasLimit": false
    }
  ],
  "receipts": [
    {
      "status": "0x1",
      "cumulativeGasUsed": "0xab0d9d",
      "logs": [
        {
          "address": "0x8aafd3ede9adb0ff97c7aebce82a919afb1c8764",
          "topics": [
            "0xddf252ad1be2c89b69c2b068fc378daa952ba7f163c4a11628f55a4df523b3ef",
            "0x000000000000000000000000c77f7fed3b5cc8249adc428c5f44c9063b9734b4",
            "0x0000000000000000000000000000000000000000000000000000000000000000"
          ],
          "data": "0x00000000000000000000000000000000000000000000002596078d6e1090b97c",
          "blockHash": "0x73a47841f209dac6d92345c48f5f9a6fce1a9b2f1a28e4be01b72b8923cc9297",
          "blockNumber": "0x7317b8",
          "transactionHash": "0xb3a5c59d4169646cfe44616ba76144a55536ea4a46fc8116e39025eaa5a96e97",
          "transactionIndex": "0x88",
          "logIndex": "0x84",
          "removed": false
        },
        {
          "address": "0x8aafd3ede9adb0ff97c7aebce82a919afb1c8764",
          "topics": [
            "0xddf252ad1be2c89b69c2b068fc378daa952ba7f163c4a11628f55a4df523b3ef",
            "0x000000000000000000000000c77f7fed3b5cc8249adc428c5f44c9063b9734b4",
            "0x000000000000000000000000c77f7fed3b5cc8249adc428c5f44c9063b9734b4"
          ],
          "data": "0x0000000000000000000000000000000000000000000000004d98d5c9254b7d5d",
          "blockHash": "0x73a47841f209dac6d92345c48f5f9a6fce1a9b2f1a28e4be01b72b8923cc9297",
          "blockNumber": "0x7317b8",
          "transactionHash": "0xb3a5c59d4169646cfe44616ba76144a55536ea4a46fc8116e39025eaa5a96e97",
          "transactionIndex": "0x88",
          "logIndex": "0x85",
          "removed": false
        },
        {
          "address": "0x8aafd3ede9adb0ff97c7aebce82a919afb1c8764",
          "topics": [
            "0x4afcb4a87cdbd9974efdb92ee48bc8d7cd0ae4bf217004db3d080cbaee652ca7"
          ],
          "data": "0x000000000000000000000000000000000000000000000000000000006790196400000000000000000000000000000000000000000000000000050d9a6cf0156b0000000000000000000000000000000000000000000000000dc8f93bd86c1a5e",
          "blockHash": "0x73a47841f209dac6d92345c48f5f9a6fce1a9b2f1a28e4be01b72b8923cc9297",
          "blockNumber": "0x7317b8",
          "transactionHash": "0xb3a5c59d4169646cfe44616ba76144a55536ea4a46fc8116e39025eaa5a96e97",
          "transactionIndex": "0x88",
          "logIndex": "0x86",
          "removed": false
        }
      ],
      "logsBloom": "0x00000000000000000000000000000000000000000600000000000000000000000000000000000000000000000000000000000000000000004000000000000000000000000000004000000008000000000000000000000000000000000000000000000000020000000000000000000800020000000000000000000010000000000000000000000000000000000000000000000000000000000000010000000000000000000000000000000000000000004000000000000000000000000000000000000002000000800000000000000000000000000000080000000000000020000000000000000000000000000000000000000000000000000000000000000000",
      "type": "0x2",
      "transactionHash": "0xb3a5c59d4169646cfe44616ba76144a55536ea4a46fc8116e39025eaa5a96e97",
      "transactionIndex": "0x88",
      "blockHash": "0x73a47841f209dac6d92345c48f5f9a6fce1a9b2f1a28e4be01b72b8923cc9297",
      "blockNumber": "0x7317b8",
      "gasUsed": "0xfd4b",
      "effectiveGasPrice": "0x466c6b53",
      "from": "0xc77f7fed3b5cc8249adc428c5f44c9063b9734b4",
      "to": "0x8aafd3ede9adb0ff97c7aebce82a919afb1c8764",
      "contractAddress": null
    }
  ],
  "libraries": [],
  "pending": [],
  "returns": {},
  "timestamp": 1737496934,
  "chain": 11155111,
  "commit": "1d2fb70"
}