{
  "transactions": [
    {
      "hash": "0x47e545bdf062114603e703e448c1f1bfdf15be0947797b3d77faf69290f13cea",
      "transactionType": "CALL",
      "contractName": null,
      "contractAddress": "0xbf4a322f1496e5c3d34a9bcdb4c60567b38c7de2",
      "function": "sell(uint256)",
      "arguments": [
        "990406770861790834193"
      ],
      "transaction": {
        "from": "0xc77f7fed3b5cc8249adc428c5f44c9063b9734b4",
        "to": "0xbf4a322f1496e5c3d34a9bcdb4c60567b38c7de2",
        "gas": "0x16fea",
        "value": "0x0",
        "input": "0xe4849b32000000000000000000000000000000000000000000000035b0a7aeb2e6bdae11",
        "nonce": "0x919",
        "chainId": "0xaa36a7"
      },
      "additionalContracts": [],
      "isFixedGasLimit": false
    }
  ],
  "receipts": [
    {
      "status": "0x1",
      "cumulativeGasUsed": "0x116fdd7",
      "logs": [
        {
          "address": "0xbf4a322f1496e5c3d34a9bcdb4c60567b38c7de2",
          "topics": [
            "0xddf252ad1be2c89b69c2b068fc378daa952ba7f163c4a11628f55a4df523b3ef",
            "0x000000000000000000000000c77f7fed3b5cc8249adc428c5f44c9063b9734b4",
            "0x0000000000000000000000000000000000000000000000000000000000000000"
          ],
          "data": "0x000000000000000000000000000000000000000000000035b0a7aeb2e6bdae11",
          "blockHash": "0xd8f3190eefe618e95d66e7e218ea31c51a4a2a4e773c00759efaf6b9759691bb",
          "blockNumber": "0x72589c",
          "transactionHash": "0x47e545bdf062114603e703e448c1f1bfdf15be0947797b3d77faf69290f13cea",
          "transactionIndex": "0x5e",
          "logIndex": "0xa0",
          "removed": false
        },
        {
          "address": "0xbf4a322f1496e5c3d34a9bcdb4c60567b38c7de2",
          "topics": [
            "0x4afcb4a87cdbd9974efdb92ee48bc8d7cd0ae4bf217004db3d080cbaee652ca7"
          ],
          "data": "0x000000000000000000000000000000000000000000000000000000006787197c00000000000000000000000000000000000000000000000000038fe77212e4610000000000000000000000000000000000000000000000000dc7e3fa431497be",
          "blockHash": "0xd8f3190eefe618e95d66e7e218ea31c51a4a2a4e773c00759efaf6b9759691bb",
          "blockNumber": "0x72589c",
          "transactionHash": "0x47e545bdf062114603e703e448c1f1bfdf15be0947797b3d77faf69290f13cea",
          "transactionIndex": "0x5e",
          "logIndex": "0xa1",
          "removed": false
        }
      ],
      "logsBloom": "0x00000000000000000000000000000000000000000000000000000000000000000000000000000000000000000000000000000000000000004000000000000000000000000000000000000008000000000000001000000000000000000000000000000000020000000000000000000800020000000000000000000010000000000000000000000000000000000000000000000000000008000000010000000000000000000000000000000000000000004000000000000000000000000000000000000002000000800000000000001000000000000000080000000000000020000000000000000000000000000000000000000000000000000000000000000000",
      "type": "0x2",
      "transactionHash": "0x47e545bdf062114603e703e448c1f1bfdf15be0947797b3d77faf69290f13cea",
      "transactionIndex": "0x5e",
      "blockHash": "0xd8f3190eefe618e95d66e7e218ea31c51a4a2a4e773c00759efaf6b9759691bb",
      "blockNumber": "0x72589c",
      "gasUsed": "0xfb91",
      "effectiveGasPrice": "0x3eedcd18",
      "from": "0xc77f7fed3b5cc8249adc428c5f44c9063b9734b4",
      "to": "0xbf4a322f1496e5c3d34a9bcdb4c60567b38c7de2",
      "contractAddress": null
    }
  ],
  "libraries": [],
  "pending": [],
  "returns": {},
  "timestamp": 1736907134,
  "chain": 11155111,
  "commit": "51a374b"
}