{
  "transactions": [
    {
      "hash": "0x91bc429521b4970b33ac6fdd3b9dd64a6f7dbd26cb3f143dabc6a14b40e97ae1",
      "transactionType": "CALL",
      "contractName": null,
      "contractAddress": "0xbf4a322f1496e5c3d34a9bcdb4c60567b38c7de2",
      "function": "buy(address)",
      "arguments": [
        "0xC77f7fed3b5Cc8249aDc428c5F44C9063B9734b4"
      ],
      "transaction": {
        "from": "0xc77f7fed3b5cc8249adc428c5f44c9063b9734b4",
        "to": "0xbf4a322f1496e5c3d34a9bcdb4c60567b38c7de2",
        "gas": "0x1b309",
        "value": "0xde0b6b3a7640000",
        "input": "0xf088d547000000000000000000000000c77f7fed3b5cc8249adc428c5f44c9063b9734b4",
        "nonce": "0xd8e",
        "chainId": "0xaa36a7"
      },
      "additionalContracts": [],
      "isFixedGasLimit": false
    }
  ],
  "receipts": [
    {
      "status": "0x1",
      "cumulativeGasUsed": "0xb3ccf1",
      "logs": [
        {
          "address": "0xbf4a322f1496e5c3d34a9bcdb4c60567b38c7de2",
          "topics": [
            "0xddf252ad1be2c89b69c2b068fc378daa952ba7f163c4a11628f55a4df523b3ef",
            "0x0000000000000000000000000000000000000000000000000000000000000000",
            "0x000000000000000000000000c77f7fed3b5cc8249adc428c5f44c9063b9734b4"
          ],
          "data": "0x000000000000000000000000000000000000000000000034b1c93e36e9d9491d",
          "blockHash": "0x3fbccd6ddfc50aa4255c8c72a5934f67c746b91f99fb4b766d07d383456a69fb",
          "blockNumber": "0x726660",
          "transactionHash": "0x91bc429521b4970b33ac6fdd3b9dd64a6f7dbd26cb3f143dabc6a14b40e97ae1",
          "transactionIndex": "0x67",
          "logIndex": "0x94",
          "removed": false
        },
        {
          "address": "0xbf4a322f1496e5c3d34a9bcdb4c60567b38c7de2",
          "topics": [
            "0xddf252ad1be2c89b69c2b068fc378daa952ba7f163c4a11628f55a4df523b3ef",
            "0x0000000000000000000000000000000000000000000000000000000000000000",
            "0x000000000000000000000000c77f7fed3b5cc8249adc428c5f44c9063b9734b4"
          ],
          "data": "0x00000000000000000000000000000000000000000000000028eb476f8b7bd738",
          "blockHash": "0x3fbccd6ddfc50aa4255c8c72a5934f67c746b91f99fb4b766d07d383456a69fb",
          "blockNumber": "0x726660",
          "transactionHash": "0x91bc429521b4970b33ac6fdd3b9dd64a6f7dbd26cb3f143dabc6a14b40e97ae1",
          "transactionIndex": "0x67",
          "logIndex": "0x95",
          "removed": false
        },
        {
          "address": "0xbf4a322f1496e5c3d34a9bcdb4c60567b38c7de2",
          "topics": [
            "0x4afcb4a87cdbd9974efdb92ee48bc8d7cd0ae4bf217004db3d080cbaee652ca7"
          ],
          "data": "0x000000000000000000000000000000000000000000000000000000006787bf3000000000000000000000000000000000000000000000000000039e4e84bfc6d80000000000000000000000000000000000000000000000000de0b6b3a7640000",
          "blockHash": "0x3fbccd6ddfc50aa4255c8c72a5934f67c746b91f99fb4b766d07d383456a69fb",
          "blockNumber": "0x726660",
          "transactionHash": "0x91bc429521b4970b33ac6fdd3b9dd64a6f7dbd26cb3f143dabc6a14b40e97ae1",
          "transactionIndex": "0x67",
          "logIndex": "0x96",
          "removed": false
        }
      ],
      "logsBloom": "0x00000000000000000000000000000000000000000000000000000000000000000000000000000000000000000000000000000000000000004000000000000000000000000000000000000008000000000000001000000000000000000000000000000000020000000000000000000800020000000000000000000010000000000000000000000000000000000000000000000000000008000000010000000000000000000000000000000000000000004000000000000000000000000000000000000002000000800000000000001000000000000000080000000000000020000000000000000000000000000000000000000000000000000000000000000000",
      "type": "0x2",
      "transactionHash": "0x91bc429521b4970b33ac6fdd3b9dd64a6f7dbd26cb3f143dabc6a14b40e97ae1",
      "transactionIndex": "0x67",
      "blockHash": "0x3fbccd6ddfc50aa4255c8c72a5934f67c746b91f99fb4b766d07d383456a69fb",
      "blockNumber": "0x726660",
      "gasUsed": "0x13af6",
      "effectiveGasPrice": "0x854ed350",
      "from": "0xc77f7fed3b5cc8249adc428c5f44c9063b9734b4",
      "to": "0xbf4a322f1496e5c3d34a9bcdb4c60567b38c7de2",
      "contractAddress": null
    }
  ],
  "libraries": [],
  "pending": [],
  "returns": {},
  "timestamp": 1736949553,
  "chain": 11155111,
  "commit": "51a374b"
}