{
  "transactions": [
    {
      "hash": "0x173fc1812dd631fb3248de306003e262a55c558d0386366dd19c153eb408eb4c",
      "transactionType": "CALL",
      "contractName": null,
      "contractAddress": "0x8aafd3ede9adb0ff97c7aebce82a919afb1c8764",
      "function": "buy(address)",
      "arguments": [
        "0xC77f7fed3b5Cc8249aDc428c5F44C9063B9734b4"
      ],
      "transaction": {
        "from": "0xc77f7fed3b5cc8249adc428c5f44c9063b9734b4",
        "to": "0x8aafd3ede9adb0ff97c7aebce82a919afb1c8764",
        "gas": "0x156ea",
        "value": "0xde0b6b3a7640000",
        "input": "0xf088d547000000000000000000000000c77f7fed3b5cc8249adc428c5f44c9063b9734b4",
        "nonce": "0x1284",
        "chainId": "0xaa36a7"
      },
      "additionalContracts": [],
      "isFixedGasLimit": false
    }
  ],
  "receipts": [
    {
      "status": "0x1",
      "cumulativeGasUsed": "0xa9566f",
      "logs": [
        {
          "address": "0x8aafd3ede9adb0ff97c7aebce82a919afb1c8764",
          "topics": [
            "0xddf252ad1be2c89b69c2b068fc378daa952ba7f163c4a11628f55a4df523b3ef",
            "0x0000000000000000000000000000000000000000000000000000000000000000",
            "0x000000000000000000000000c77f7fed3b5cc8249adc428c5f44c9063b9734b4"
          ],
          "data": "0x0000000000000000000000000000000000000000000000243a08ac4e567cce3a",
          "blockHash": "0x6af7f5ac6905aaf0456fa7fc9c30adf9b8ea7857887bd43e67871e450fa5c34b",
          "blockNumber": "0x731970",
          "transactionHash": "0x173fc1812dd631fb3248de306003e262a55c558d0386366dd19c153eb408eb4c",
          "transactionIndex": "0x77",
          "logIndex": "0x75",
          "removed": false
        },
        {
          "address": "0x8aafd3ede9adb0ff97c7aebce82a919afb1c8764",
          "topics": [
            "0xddf252ad1be2c89b69c2b068fc378daa952ba7f163c4a11628f55a4df523b3ef",
            "0x0000000000000000000000000000000000000000000000000000000000000000",
            "0x000000000000000000000000c77f7fed3b5cc8249adc428c5f44c9063b9734b4"
          ],
          "data": "0x0000000000000000000000000000000000000000000000001c219a885d32acb8",
          "blockHash": "0x6af7f5ac6905aaf0456fa7fc9c30adf9b8ea7857887bd43e67871e450fa5c34b",
          "blockNumber": "0x731970",
          "transactionHash": "0x173fc1812dd631fb3248de306003e262a55c558d0386366dd19c153eb408eb4c",
          "transactionIndex": "0x77",
          "logIndex": "0x76",
          "removed": false
        },
        {
          "address": "0x8aafd3ede9adb0ff97c7aebce82a919afb1c8764",
          "topics": [
            "0x4afcb4a87cdbd9974efdb92ee48bc8d7cd0ae4bf217004db3d080cbaee652ca7"
          ],
          "data": "0x0000000000000000000000000000000000000000000000000000000067902e10000000000000000000000000000000000000000000000000000543c7cfc43a580000000000000000000000000000000000000000000000000de0b6b3a7640000",
          "blockHash": "0x6af7f5ac6905aaf0456fa7fc9c30adf9b8ea7857887bd43e67871e450fa5c34b",
          "blockNumber": "0x731970",
          "transactionHash": "0x173fc1812dd631fb3248de306003e262a55c558d0386366dd19c153eb408eb4c",
          "transactionIndex": "0x77",
          "logIndex": "0x77",
          "removed": false
        }
      ],
      "logsBloom": "0x00000000000000000000000000000000000000000600000000000000000000000000000000000000000000000000000000000000000000004000000000000000000000000000004000000008000000000000000000000000000000000000000000000000020000000000000000000800020000000000000000000010000000000000000000000000000000000000000000000000000000000000010000000000000000000000000000000000000000004000000000000000000000000000000000000002000000800000000000000000000000000000080000000000000020000000000000000000000000000000000000000000000000000000000000000000",
      "type": "0x2",
      "transactionHash": "0x173fc1812dd631fb3248de306003e262a55c558d0386366dd19c153eb408eb4c",
      "transactionIndex": "0x77",
      "blockHash": "0x6af7f5ac6905aaf0456fa7fc9c30adf9b8ea7857887bd43e67871e450fa5c34b",
      "blockNumber": "0x731970",
      "gasUsed": "0xf844",
      "effectiveGasPrice": "0x3fbad69d",
      "from": "0xc77f7fed3b5cc8249adc428c5f44c9063b9734b4",
      "to": "0x8aafd3ede9adb0ff97c7aebce82a919afb1c8764",
      "contractAddress": null
    }
  ],
  "libraries": [],
  "pending": [],
  "returns": {},
  "timestamp": 1737502226,
  "chain": 11155111,
  "commit": "1d2fb70"
}