{
  "transactions": [
    {
      "hash": "0x679afb880a40571a0eabe41f6608cadbba05c66bfa2c690b65dfe72cd356fa97",
      "transactionType": "CALL",
      "contractName": null,
      "contractAddress": "0xbf4a322f1496e5c3d34a9bcdb4c60567b38c7de2",
      "function": "buy(address)",
      "arguments": [
        "0xC77f7fed3b5Cc8249aDc428c5F44C9063B9734b4"
      ],
      "transaction": {
        "from": "0xc77f7fed3b5cc8249adc428c5f44c9063b9734b4",
        "to": "0xbf4a322f1496e5c3d34a9bcdb4c60567b38c7de2",
        "gas": "0x1b309",
        "value": "0xde0b6b3a7640000",
        "input": "0xf088d547000000000000000000000000c77f7fed3b5cc8249adc428c5f44c9063b9734b4",
        "nonce": "0xcb2",
        "chainId": "0xaa36a7"
      },
      "additionalContracts": [],
      "isFixedGasLimit": false
    }
  ],
  "receipts": [
    {
      "status": "0x1",
      "cumulativeGasUsed": "0x9c7760",
      "logs": [
        {
          "address": "0xbf4a322f1496e5c3d34a9bcdb4c60567b38c7de2",
          "topics": [
            "0xddf252ad1be2c89b69c2b068fc378daa952ba7f163c4a11628f55a4df523b3ef",
            "0x0000000000000000000000000000000000000000000000000000000000000000",
            "0x000000000000000000000000c77f7fed3b5cc8249adc428c5f44c9063b9734b4"
          ],
          "data": "0x000000000000000000000000000000000000000000000034da5c213306a67516",
          "blockHash": "0x696832713ff1c9cb529c940df5c50858427170691a3b2509cb5302cb05c8aa06",
          "blockNumber": "0x725cff",
          "transactionHash": "0x679afb880a40571a0eabe41f6608cadbba05c66bfa2c690b65dfe72cd356fa97",
          "transactionIndex": "0x49",
          "logIndex": "0x77",
          "removed": false
        },
        {
          "address": "0xbf4a322f1496e5c3d34a9bcdb4c60567b38c7de2",
          "topics": [
            "0xddf252ad1be2c89b69c2b068fc378daa952ba7f163c4a11628f55a4df523b3ef",
            "0x0000000000000000000000000000000000000000000000000000000000000000",
            "0x000000000000000000000000c77f7fed3b5cc8249adc428c5f44c9063b9734b4"
          ],
          "data": "0x000000000000000000000000000000000000000000000000290ac9351f469253",
          "blockHash": "0x696832713ff1c9cb529c940df5c50858427170691a3b2509cb5302cb05c8aa06",
          "blockNumber": "0x725cff",
          "transactionHash": "0x679afb880a40571a0eabe41f6608cadbba05c66bfa2c690b65dfe72cd356fa97",
          "transactionIndex": "0x49",
          "logIndex": "0x78",
          "removed": false
        },
        {
          "address": "0xbf4a322f1496e5c3d34a9bcdb4c60567b38c7de2",
          "topics": [
            "0x4afcb4a87cdbd9974efdb92ee48bc8d7cd0ae4bf217004db3d080cbaee652ca7"
          ],
          "data": "0x0000000000000000000000000000000000000000000000000000000067874e6800000000000000000000000000000000000000000000000000039b876cdc13720000000000000000000000000000000000000000000000000de0b6b3a7640000",
          "blockHash": "0x696832713ff1c9cb529c940df5c50858427170691a3b2509cb5302cb05c8aa06",
          "blockNumber": "0x725cff",
          "transactionHash": "0x679afb880a40571a0eabe41f6608cadbba05c66bfa2c690b65dfe72cd356fa97",
          "transactionIndex": "0x49",
          "logIndex": "0x79",
          "removed": false
        }
      ],
      "logsBloom": "0x00000000000000000000000000000000000000000000000000000000000000000000000000000000000000000000000000000000000000004000000000000000000000000000000000000008000000000000001000000000000000000000000000000000020000000000000000000800020000000000000000000010000000000000000000000000000000000000000000000000000008000000010000000000000000000000000000000000000000004000000000000000000000000000000000000002000000800000000000001000000000000000080000000000000020000000000000000000000000000000000000000000000000000000000000000000",
      "type": "0x2",
      "transactionHash": "0x679afb880a40571a0eabe41f6608cadbba05c66bfa2c690b65dfe72cd356fa97",
      "transactionIndex": "0x49",
      "blockHash": "0x696832713ff1c9cb529c940df5c50858427170691a3b2509cb5302cb05c8aa06",
      "blockNumber": "0x725cff",
      "gasUsed": "0x13af6",
      "effectiveGasPrice": "0x23e4fd77a",
      "from": "0xc77f7fed3b5cc8249adc428c5f44c9063b9734b4",
      "to": "0xbf4a322f1496e5c3d34a9bcdb4c60567b38c7de2",
      "contractAddress": null
    }
  ],
  "libraries": [],
  "pending": [],
  "returns": {},
  "timestamp": 1736920683,
  "chain": 11155111,
  "commit": "51a374b"
}