{
  "transactions": [
    {
      "hash": "0x7463e2951af0f9ba8c595fe13a8d3c7e111b44e36e8e1eba38e67ede4b917c75",
      "transactionType": "CALL",
      "contractName": null,
      "contractAddress": "0x8aafd3ede9adb0ff97c7aebce82a919afb1c8764",
      "function": "sell(uint256)",
      "arguments": [
        "61931916"
      ],
      "transaction": {
        "from": "0xc77f7fed3b5cc8249adc428c5f44c9063b9734b4",
        "to": "0x8aafd3ede9adb0ff97c7aebce82a919afb1c8764",
        "gas": "0x15d88",
        "value": "0x0",
        "input": "0xe4849b320000000000000000000000000000000000000000000000000000000003b1018c",
        "nonce": "0x1451",
        "chainId": "0xaa36a7"
      },
      "additionalContracts": [],
      "isFixedGasLimit": false
    }
  ],
  "receipts": [
    {
      "status": "0x1",
      "cumulativeGasUsed": "0x8b4f3c",
      "logs": [
        {
          "address": "0x8aafd3ede9adb0ff97c7aebce82a919afb1c8764",
          "topics": [
            "0xddf252ad1be2c89b69c2b068fc378daa952ba7f163c4a11628f55a4df523b3ef",
            "0x000000000000000000000000c77f7fed3b5cc8249adc428c5f44c9063b9734b4",
            "0x0000000000000000000000000000000000000000000000000000000000000000"
          ],
          "data": "0x0000000000000000000000000000000000000000000000000000000003a9722d",
          "blockHash": "0xfe3d5ffad21dfe0b92ac104126e890105488b22a3cfa425d4ed25f69c408420c",
          "blockNumber": "0x731b96",
          "transactionHash": "0x7463e2951af0f9ba8c595fe13a8d3c7e111b44e36e8e1eba38e67ede4b917c75",
          "transactionIndex": "0x4a",
          "logIndex": "0x65",
          "removed": false
        },
        {
          "address": "0x8aafd3ede9adb0ff97c7aebce82a919afb1c8764",
          "topics": [
            "0xddf252ad1be2c89b69c2b068fc378daa952ba7f163c4a11628f55a4df523b3ef",
            "0x000000000000000000000000c77f7fed3b5cc8249adc428c5f44c9063b9734b4",
            "0x000000000000000000000000c77f7fed3b5cc8249adc428c5f44c9063b9734b4"
          ],
          "data": "0x0000000000000000000000000000000000000000000000000000000000078f5f",
          "blockHash": "0xfe3d5ffad21dfe0b92ac104126e890105488b22a3cfa425d4ed25f69c408420c",
          "blockNumber": "0x731b96",
          "transactionHash": "0x7463e2951af0f9ba8c595fe13a8d3c7e111b44e36e8e1eba38e67ede4b917c75",
          "transactionIndex": "0x4a",
          "logIndex": "0x66",
          "removed": false
        },
        {
          "address": "0x8aafd3ede9adb0ff97c7aebce82a919afb1c8764",
          "topics": [
            "0x4afcb4a87cdbd9974efdb92ee48bc8d7cd0ae4bf217004db3d080cbaee652ca7"
          ],
          "data": "0x00000000000000000000000000000000000000000000000000000000679047e4000000000000000000000000000000000000000000000000000f091c505645cd000000000000000000000000000000000000000000000000000000000003ffd8",
          "blockHash": "0xfe3d5ffad21dfe0b92ac104126e890105488b22a3cfa425d4ed25f69c408420c",
          "blockNumber": "0x731b96",
          "transactionHash": "0x7463e2951af0f9ba8c595fe13a8d3c7e111b44e36e8e1eba38e67ede4b917c75",
          "transactionIndex": "0x4a",
          "logIndex": "0x67",
          "removed": false
        }
      ],
      "logsBloom": "0x00000000000000000000000000000000000000000600000000000000000000000000000000000000000000000000000000000000000000004000000000000000000000000000004000000008000000000000000000000000000000000000000000000000020000000000000000000800020000000000000000000010000000000000000000000000000000000000000000000000000000000000010000000000000000000000000000000000000000004000000000000000000000000000000000000002000000800000000000000000000000000000080000000000000020000000000000000000000000000000000000000000000000000000000000000000",
      "type": "0x2",
      "transactionHash": "0x7463e2951af0f9ba8c595fe13a8d3c7e111b44e36e8e1eba38e67ede4b917c75",
      "transactionIndex": "0x4a",
      "blockHash": "0xfe3d5ffad21dfe0b92ac104126e890105488b22a3cfa425d4ed25f69c408420c",
      "blockNumber": "0x731b96",
      "gasUsed": "0xfd0f",
      "effectiveGasPrice": "0x125c3275c",
      "from": "0xc77f7fed3b5cc8249adc428c5f44c9063b9734b4",
      "to": "0x8aafd3ede9adb0ff97c7aebce82a919afb1c8764",
      "contractAddress": null
    }
  ],
  "libraries": [],
  "pending": [],
  "returns": {},
  "timestamp": 1737508838,
  "chain": 11155111,
  "commit": "1d2fb70"
}