{
  "transactions": [
    {
      "hash": "0x12634aabca5a2940643d0c8ad0d87e1959f6406b5ac16a84f7ab9d3cf41dcd54",
      "transactionType": "CALL",
      "contractName": null,
      "contractAddress": "0x8aafd3ede9adb0ff97c7aebce82a919afb1c8764",
      "function": "sell(uint256)",
      "arguments": [
        "13363540668523802"
      ],
      "transaction": {
        "from": "0xc77f7fed3b5cc8249adc428c5f44c9063b9734b4",
        "to": "0x8aafd3ede9adb0ff97c7aebce82a919afb1c8764",
        "gas": "0x1724d",
        "value": "0x0",
        "input": "0xe4849b32000000000000000000000000000000000000000000000000002f7a11c67d251a",
        "nonce": "0x14f8",
        "chainId": "0xaa36a7"
      },
      "additionalContracts": [],
      "isFixedGasLimit": false
    }
  ],
  "receipts": [
    {
      "status": "0x1",
      "cumulativeGasUsed": "0xfd5420",
      "logs": [
        {
          "address": "0x8aafd3ede9adb0ff97c7aebce82a919afb1c8764",
          "topics": [
            "0xddf252ad1be2c89b69c2b068fc378daa952ba7f163c4a11628f55a4df523b3ef",
            "0x000000000000000000000000c77f7fed3b5cc8249adc428c5f44c9063b9734b4",
            "0x0000000000000000000000000000000000000000000000000000000000000000"
          ],
          "data": "0x000000000000000000000000000000000000000000000000002f18d63dbba1bc",
          "blockHash": "0xe158b9d87ea00b47943cb94eb156261e85c69e77c16b512794ecd856d3dde04a",
          "blockNumber": "0x731c59",
          "transactionHash": "0x12634aabca5a2940643d0c8ad0d87e1959f6406b5ac16a84f7ab9d3cf41dcd54",
          "transactionIndex": "0xa5",
          "logIndex": "0xe4",
          "removed": false
        },
        {
          "address": "0x8aafd3ede9adb0ff97c7aebce82a919afb1c8764",
          "topics": [
            "0xddf252ad1be2c89b69c2b068fc378daa952ba7f163c4a11628f55a4df523b3ef",
            "0x000000000000000000000000c77f7fed3b5cc8249adc428c5f44c9063b9734b4",
            "0x000000000000000000000000c77f7fed3b5cc8249adc428c5f44c9063b9734b4"
          ],
          "data": "0x0000000000000000000000000000000000000000000000000000613b88c1835e",
          "blockHash": "0xe158b9d87ea00b47943cb94eb156261e85c69e77c16b512794ecd856d3dde04a",
          "blockNumber": "0x731c59",
          "transactionHash": "0x12634aabca5a2940643d0c8ad0d87e1959f6406b5ac16a84f7ab9d3cf41dcd54",
          "transactionIndex": "0xa5",
          "logIndex": "0xe5",
          "removed": false
        },
        {
          "address": "0x8aafd3ede9adb0ff97c7aebce82a919afb1c8764",
          "topics": [
            "0x4afcb4a87cdbd9974efdb92ee48bc8d7cd0ae4bf217004db3d080cbaee652ca7"
          ],
          "data": "0x00000000000000000000000000000000000000000000000000000000679051080000000000000000000000000000000000000000000000000010ffc473d47d8b00000000000000000000000000000000000000000000000000003a27ae4d9e76",
          "blockHash": "0xe158b9d87ea00b47943cb94eb156261e85c69e77c16b512794ecd856d3dde04a",
          "blockNumber": "0x731c59",
          "transactionHash": "0x12634aabca5a2940643d0c8ad0d87e1959f6406b5ac16a84f7ab9d3cf41dcd54",
          "transactionIndex": "0xa5",
          "logIndex": "0xe6",
          "removed": false
        }
      ],
      "logsBloom": "0x00000000000000000000000000000000000000000600000000000000000000000000000000000000000000000000000000000000000000004000000000000000000000000000004000000008000000000000000000000000000000000000000000000000020000000000000000000800020000000000000000000010000000000000000000000000000000000000000000000000000000000000010000000000000000000000000000000000000000004000000000000000000000000000000000000002000000800000000000000000000000000000080000000000000020000000000000000000000000000000000000000000000000000000000000000000",
      "type": "0x2",
      "transactionHash": "0x12634aabca5a2940643d0c8ad0d87e1959f6406b5ac16a84f7ab9d3cf41dcd54",
      "transactionIndex": "0xa5",
      "blockHash": "0xe158b9d87ea00b47943cb94eb156261e85c69e77c16b512794ecd856d3dde04a",
      "blockNumber": "0x731c59",
      "gasUsed": "0xfd33",
      "effectiveGasPrice": "0x159fb6c37",
      "from": "0xc77f7fed3b5cc8249adc428c5f44c9063b9734b4",
      "to": "0x8aafd3ede9adb0ff97c7aebce82a919afb1c8764",
      "contractAddress": null
    }
  ],
  "libraries": [],
  "pending": [],
  "returns": {},
  "timestamp": 1737511177,
  "chain": 11155111,
  "commit": "1d2fb70"
}