{
  "transactions": [
    {
      "hash": "0xd66e1f074b0f86a3611a9aec1e7fb365f3ea6bf66f54277ce01000256a541f49",
      "transactionType": "CALL",
      "contractName": null,
      "contractAddress": "0x8aafd3ede9adb0ff97c7aebce82a919afb1c8764",
      "function": "sell(uint256)",
      "arguments": [
        "770004991427"
      ],
      "transaction": {
        "from": "0xc77f7fed3b5cc8249adc428c5f44c9063b9734b4",
        "to": "0x8aafd3ede9adb0ff97c7aebce82a919afb1c8764",
        "gas": "0x1722a",
        "value": "0x0",
        "input": "0xe4849b32000000000000000000000000000000000000000000000000000000b347dfbdc3",
        "nonce": "0x159c",
        "chainId": "0xaa36a7"
      },
      "additionalContracts": [],
      "isFixedGasLimit": false
    }
  ],
  "receipts": [
    {
      "status": "0x1",
      "cumulativeGasUsed": "0xe538db",
      "logs": [
        {
          "address": "0x8aafd3ede9adb0ff97c7aebce82a919afb1c8764",
          "topics": [
            "0xddf252ad1be2c89b69c2b068fc378daa952ba7f163c4a11628f55a4df523b3ef",
            "0x000000000000000000000000c77f7fed3b5cc8249adc428c5f44c9063b9734b4",
            "0x0000000000000000000000000000000000000000000000000000000000000000"
          ],
          "data": "0x000000000000000000000000000000000000000000000000000000b1d8b4fdc8",
          "blockHash": "0x17aa71222e33c585d94d9d199ae99df0d531e844649410fe138880f4c5ed88e2",
          "blockNumber": "0x731d0c",
          "transactionHash": "0xd66e1f074b0f86a3611a9aec1e7fb365f3ea6bf66f54277ce01000256a541f49",
          "transactionIndex": "0x8b",
          "logIndex": "0x124",
          "removed": false
        },
        {
          "address": "0x8aafd3ede9adb0ff97c7aebce82a919afb1c8764",
          "topics": [
            "0xddf252ad1be2c89b69c2b068fc378daa952ba7f163c4a11628f55a4df523b3ef",
            "0x000000000000000000000000c77f7fed3b5cc8249adc428c5f44c9063b9734b4",
            "0x000000000000000000000000c77f7fed3b5cc8249adc428c5f44c9063b9734b4"
          ],
          "data": "0x000000000000000000000000000000000000000000000000000000016f2abffb",
          "blockHash": "0x17aa71222e33c585d94d9d199ae99df0d531e844649410fe138880f4c5ed88e2",
          "blockNumber": "0x731d0c",
          "transactionHash": "0xd66e1f074b0f86a3611a9aec1e7fb365f3ea6bf66f54277ce01000256a541f49",
          "transactionIndex": "0x8b",
          "logIndex": "0x125",
          "removed": false
        },
        {
          "address": "0x8aafd3ede9adb0ff97c7aebce82a919afb1c8764",
          "topics": [
            "0x4afcb4a87cdbd9974efdb92ee48bc8d7cd0ae4bf217004db3d080cbaee652ca7"
          ],
          "data": "0x00000000000000000000000000000000000000000000000000000000679059780000000000000000000000000000000000000000000000000012ded63b4a32d200000000000000000000000000000000000000000000000000000000f3c75bf9",
          "blockHash": "0x17aa71222e33c585d94d9d199ae99df0d531e844649410fe138880f4c5ed88e2",
          "blockNumber": "0x731d0c",
          "transactionHash": "0xd66e1f074b0f86a3611a9aec1e7fb365f3ea6bf66f54277ce01000256a541f49",
          "transactionIndex": "0x8b",
          "logIndex": "0x126",
          "removed": false
        }
      ],
      "logsBloom": "0x00000000000000000000000000000000000000000600000000000000000000000000000000000000000000000000000000000000000000004000000000000000000000000000004000000008000000000000000000000000000000000000000000000000020000000000000000000800020000000000000000000010000000000000000000000000000000000000000000000000000000000000010000000000000000000000000000000000000000004000000000000000000000000000000000000002000000800000000000000000000000000000080000000000000020000000000000000000000000000000000000000000000000000000000000000000",
      "type": "0x2",
      "transactionHash": "0xd66e1f074b0f86a3611a9aec1e7fb365f3ea6bf66f54277ce01000256a541f49",
      "transactionIndex": "0x8b",
      "blockHash": "0x17aa71222e33c585d94d9d199ae99df0d531e844649410fe138880f4c5ed88e2",
      "blockNumber": "0x731d0c",
      "gasUsed": "0xfd1b",
      "effectiveGasPrice": "0x572ed72b",
      "from": "0xc77f7fed3b5cc8249adc428c5f44c9063b9734b4",
      "to": "0x8aafd3ede9adb0ff97c7aebce82a919afb1c8764",
      "contractAddress": null
    }
  ],
  "libraries": [],
  "pending": [],
  "returns": {},
  "timestamp": 1737513337,
  "chain": 11155111,
  "commit": "1d2fb70"
}