{
  "transactions": [
    {
      "hash": "0xd3e834072bfaff8988ba01872d00291422d4d7461579fc9543921a5acaaad6d1",
      "transactionType": "CALL",
      "contractName": null,
      "contractAddress": "0x8aafd3ede9adb0ff97c7aebce82a919afb1c8764",
      "function": "sell(uint256)",
      "arguments": [
        "1558990"
      ],
      "transaction": {
        "from": "0xc77f7fed3b5cc8249adc428c5f44c9063b9734b4",
        "to": "0x8aafd3ede9adb0ff97c7aebce82a919afb1c8764",
        "gas": "0x16208",
        "value": "0x0",
        "input": "0xe4849b32000000000000000000000000000000000000000000000000000000000017c9ce",
        "nonce": "0xf28",
        "chainId": "0xaa36a7"
      },
      "additionalContracts": [],
      "isFixedGasLimit": false
    }
  ],
  "receipts": [
    {
      "status": "0x1",
      "cumulativeGasUsed": "0x1581607",
      "logs": [
        {
          "address": "0x8aafd3ede9adb0ff97c7aebce82a919afb1c8764",
          "topics": [
            "0xddf252ad1be2c89b69c2b068fc378daa952ba7f163c4a11628f55a4df523b3ef",
            "0x000000000000000000000000c77f7fed3b5cc8249adc428c5f44c9063b9734b4",
            "0x0000000000000000000000000000000000000000000000000000000000000000"
          ],
          "data": "0x0000000000000000000000000000000000000000000000000000000000179917",
          "blockHash": "0xaf71ed132861586cd44caf20f05a47336e32748066d029df0c540fae384fd821",
          "blockNumber": "0x73157b",
          "transactionHash": "0xd3e834072bfaff8988ba01872d00291422d4d7461579fc9543921a5acaaad6d1",
          "transactionIndex": "0xc7",
          "logIndex": "0x16f",
          "removed": false
        },
        {
          "address": "0x8aafd3ede9adb0ff97c7aebce82a919afb1c8764",
          "topics": [
            "0xddf252ad1be2c89b69c2b068fc378daa952ba7f163c4a11628f55a4df523b3ef",
            "0x000000000000000000000000c77f7fed3b5cc8249adc428c5f44c9063b9734b4",
            "0x000000000000000000000000c77f7fed3b5cc8249adc428c5f44c9063b9734b4"
          ],
          "data": "0x00000000000000000000000000000000000000000000000000000000000030b7",
          "blockHash": "0xaf71ed132861586cd44caf20f05a47336e32748066d029df0c540fae384fd821",
          "blockNumber": "0x73157b",
          "transactionHash": "0xd3e834072bfaff8988ba01872d00291422d4d7461579fc9543921a5acaaad6d1",
          "transactionIndex": "0xc7",
          "logIndex": "0x170",
          "removed": false
        },
        {
          "address": "0x8aafd3ede9adb0ff97c7aebce82a919afb1c8764",
          "topics": [
            "0x4afcb4a87cdbd9974efdb92ee48bc8d7cd0ae4bf217004db3d080cbaee652ca7"
          ],
          "data": "0x00000000000000000000000000000000000000000000000000000000678ffe700000000000000000000000000000000000000000000000000004bf37e45fcac10000000000000000000000000000000000000000000000000000000000000823",
          "blockHash": "0xaf71ed132861586cd44caf20f05a47336e32748066d029df0c540fae384fd821",
          "blockNumber": "0x73157b",
          "transactionHash": "0xd3e834072bfaff8988ba01872d00291422d4d7461579fc9543921a5acaaad6d1",
          "transactionIndex": "0xc7",
          "logIndex": "0x171",
          "removed": false
        }
      ],
      "logsBloom": "0x00000000000000000000000000000000000000000600000000000000000000000000000000000000000000000000000000000000000000004000000000000000000000000000004000000008000000000000000000000000000000000000000000000000020000000000000000000800020000000000000000000010000000000000000000000000000000000000000000000000000000000000010000000000000000000000000000000000000000004000000000000000000000000000000000000002000000800000000000000000000000000000080000000000000020000000000000000000000000000000000000000000000000000000000000000000",
      "type": "0x2",
      "transactionHash": "0xd3e834072bfaff8988ba01872d00291422d4d7461579fc9543921a5acaaad6d1",
      "transactionIndex": "0xc7",
      "blockHash": "0xaf71ed132861586cd44caf20f05a47336e32748066d029df0c540fae384fd821",
      "blockNumber": "0x73157b",
      "gasUsed": "0xf213",
      "effectiveGasPrice": "0x70d4f589",
      "from": "0xc77f7fed3b5cc8249adc428c5f44c9063b9734b4",
      "to": "0x8aafd3ede9adb0ff97c7aebce82a919afb1c8764",
      "contractAddress": null
    }
  ],
  "libraries": [],
  "pending": [],
  "returns": {},
  "timestamp": 1737490033,
  "chain": 11155111,
  "commit": "1d2fb70"
}