{
  "transactions": [
    {
      "hash": "0x6ad6a1bb5d5b17bb6e1f50a3b4766abc90d3345d57042b957d21fda45c773644",
      "transactionType": "CALL",
      "contractName": null,
      "contractAddress": "0x8aafd3ede9adb0ff97c7aebce82a919afb1c8764",
      "function": "sell(uint256)",
      "arguments": [
        "178798287"
      ],
      "transaction": {
        "from": "0xc77f7fed3b5cc8249adc428c5f44c9063b9734b4",
        "to": "0x8aafd3ede9adb0ff97c7aebce82a919afb1c8764",
        "gas": "0x14e6c",
        "value": "0x0",
        "input": "0xe4849b32000000000000000000000000000000000000000000000000000000000aa83ecf",
        "nonce": "0x11eb",
        "chainId": "0xaa36a7"
      },
      "additionalContracts": [],
      "isFixedGasLimit": false
    }
  ],
  "receipts": [
    {
      "status": "0x1",
      "cumulativeGasUsed": "0x1113354",
      "logs": [
        {
          "address": "0x8aafd3ede9adb0ff97c7aebce82a919afb1c8764",
          "topics": [
            "0xddf252ad1be2c89b69c2b068fc378daa952ba7f163c4a11628f55a4df523b3ef",
            "0x000000000000000000000000c77f7fed3b5cc8249adc428c5f44c9063b9734b4",
            "0x0000000000000000000000000000000000000000000000000000000000000000"
          ],
          "data": "0x000000000000000000000000000000000000000000000000000000000a926b5d",
          "blockHash": "0xbd851c7ac17cf8c687719fa3c494e6526558acf591970c52e6c0015c2ca20621",
          "blockNumber": "0x7318c3",
          "transactionHash": "0x6ad6a1bb5d5b17bb6e1f50a3b4766abc90d3345d57042b957d21fda45c773644",
          "transactionIndex": "0xc9",
          "logIndex": "0x13b",
          "removed": false
        },
        {
          "address": "0x8aafd3ede9adb0ff97c7aebce82a919afb1c8764",
          "topics": [
            "0xddf252ad1be2c89b69c2b068fc378daa952ba7f163c4a11628f55a4df523b3ef",
            "0x000000000000000000000000c77f7fed3b5cc8249adc428c5f44c9063b9734b4",
            "0x000000000000000000000000c77f7fed3b5cc8249adc428c5f44c9063b9734b4"
          ],
          "data": "0x000000000000000000000000000000000000000000000000000000000015d372",
          "blockHash": "0xbd851c7ac17cf8c687719fa3c494e6526558acf591970c52e6c0015c2ca20621",
          "blockNumber": "0x7318c3",
          "transactionHash": "0x6ad6a1bb5d5b17bb6e1f50a3b4766abc90d3345d57042b957d21fda45c773644",
          "transactionIndex": "0xc9",
          "logIndex": "0x13c",
          "removed": false
        },
        {
          "address": "0x8aafd3ede9adb0ff97c7aebce82a919afb1c8764",
          "topics": [
            "0x4afcb4a87cdbd9974efdb92ee48bc8d7cd0ae4bf217004db3d080cbaee652ca7"
          ],
          "data": "0x00000000000000000000000000000000000000000000000000000000679025f400000000000000000000000000000000000000000000000000052d92a773181d000000000000000000000000000000000000000000000000000000000003f9f3",
          "blockHash": "0xbd851c7ac17cf8c687719fa3c494e6526558acf591970c52e6c0015c2ca20621",
          "blockNumber": "0x7318c3",
          "transactionHash": "0x6ad6a1bb5d5b17bb6e1f50a3b4766abc90d3345d57042b957d21fda45c773644",
          "transactionIndex": "0xc9",
          "logIndex": "0x13d",
          "removed": false
        }
      ],
      "logsBloom": "0x00000000000000000000000000000000000000000600000000000000000000000000000000000000000000000000000000000000000000004000000000000000000000000000004000000008000000000000000000000000000000000000000000000000020000000000000000000800020000000000000000000010000000000000000000000000000000000000000000000000000000000000010000000000000000000000000000000000000000004000000000000000000000000000000000000002000000800000000000000000000000000000080000000000000020000000000000000000000000000000000000000000000000000000000000000000",
      "type": "0x2",
      "transactionHash": "0x6ad6a1bb5d5b17bb6e1f50a3b4766abc90d3345d57042b957d21fda45c773644",
      "transactionIndex": "0xc9",
      "blockHash": "0xbd851c7ac17cf8c687719fa3c494e6526558acf591970c52e6c0015c2ca20621",
      "blockNumber": "0x7318c3",
      "gasUsed": "0xf21f",
      "effectiveGasPrice": "0x4f0da88a",
      "from": "0xc77f7fed3b5cc8249adc428c5f44c9063b9734b4",
      "to": "0x8aafd3ede9adb0ff97c7aebce82a919afb1c8764",
      "contractAddress": null
    }
  ],
  "libraries": [],
  "pending": [],
  "returns": {},
  "timestamp": 1737500150,
  "chain": 11155111,
  "commit": "1d2fb70"
}