{
  "transactions": [
    {
      "hash": "0x1587293f512d418f41227abcff72cc8fefbc90065621edfa8ecc1e14af033ae4",
      "transactionType": "CALL",
      "contractName": null,
      "contractAddress": "0x8aafd3ede9adb0ff97c7aebce82a919afb1c8764",
      "function": "sell(uint256)",
      "arguments": [
        "74134069"
      ],
      "transaction": {
        "from": "0xc77f7fed3b5cc8249adc428c5f44c9063b9734b4",
        "to": "0x8aafd3ede9adb0ff97c7aebce82a919afb1c8764",
        "gas": "0x15d88",
        "value": "0x0",
        "input": "0xe4849b3200000000000000000000000000000000000000000000000000000000046b3235",
        "nonce": "0x1379",
        "chainId": "0xaa36a7"
      },
      "additionalContracts": [],
      "isFixedGasLimit": false
    }
  ],
  "receipts": [
    {
      "status": "0x1",
      "cumulativeGasUsed": "0xedb25c",
      "logs": [
        {
          "address": "0x8aafd3ede9adb0ff97c7aebce82a919afb1c8764",
          "topics": [
            "0xddf252ad1be2c89b69c2b068fc378daa952ba7f163c4a11628f55a4df523b3ef",
            "0x000000000000000000000000c77f7fed3b5cc8249adc428c5f44c9063b9734b4",
            "0x0000000000000000000000000000000000000000000000000000000000000000"
          ],
          "data": "0x0000000000000000000000000000000000000000000000000000000004622585",
          "blockHash": "0xb554d8a3533a0f860e3953bab596f2e0d60993f9dd7dd93a25dfcd8ee132c426",
          "blockNumber": "0x731a9c",
          "transactionHash": "0x1587293f512d418f41227abcff72cc8fefbc90065621edfa8ecc1e14af033ae4",
          "transactionIndex": "0x98",
          "logIndex": "0x81",
          "removed": false
        },
        {
          "address": "0x8aafd3ede9adb0ff97c7aebce82a919afb1c8764",
          "topics": [
            "0xddf252ad1be2c89b69c2b068fc378daa952ba7f163c4a11628f55a4df523b3ef",
            "0x000000000000000000000000c77f7fed3b5cc8249adc428c5f44c9063b9734b4",
            "0x000000000000000000000000c77f7fed3b5cc8249adc428c5f44c9063b9734b4"
          ],
          "data": "0x0000000000000000000000000000000000000000000000000000000000090cb0",
          "blockHash": "0xb554d8a3533a0f860e3953bab596f2e0d60993f9dd7dd93a25dfcd8ee132c426",
          "blockNumber": "0x731a9c",
          "transactionHash": "0x1587293f512d418f41227abcff72cc8fefbc90065621edfa8ecc1e14af033ae4",
          "transactionIndex": "0x98",
          "logIndex": "0x82",
          "removed": false
        },
        {
          "address": "0x8aafd3ede9adb0ff97c7aebce82a919afb1c8764",
          "topics": [
            "0x4afcb4a87cdbd9974efdb92ee48bc8d7cd0ae4bf217004db3d080cbaee652ca7"
          ],
          "data": "0x0000000000000000000000000000000000000000000000000000000067903c20000000000000000000000000000000000000000000000000000c939e512572fd0000000000000000000000000000000000000000000000000000000000040123",
          "blockHash": "0xb554d8a3533a0f860e3953bab596f2e0d60993f9dd7dd93a25dfcd8ee132c426",
          "blockNumber": "0x731a9c",
          "transactionHash": "0x1587293f512d418f41227abcff72cc8fefbc90065621edfa8ecc1e14af033ae4",
          "transactionIndex": "0x98",
          "logIndex": "0x83",
          "removed": false
        }
      ],
      "logsBloom": "0x00000000000000000000000000000000000000000600000000000000000000000000000000000000000000000000000000000000000000004000000000000000000000000000004000000008000000000000000000000000000000000000000000000000020000000000000000000800020000000000000000000010000000000000000000000000000000000000000000000000000000000000010000000000000000000000000000000000000000004000000000000000000000000000000000000002000000800000000000000000000000000000080000000000000020000000000000000000000000000000000000000000000000000000000000000000",
      "type": "0x2",
      "transactionHash": "0x1587293f512d418f41227abcff72cc8fefbc90065621edfa8ecc1e14af033ae4",
      "transactionIndex": "0x98",
      "blockHash": "0xb554d8a3533a0f860e3953bab596f2e0d60993f9dd7dd93a25dfcd8ee132c426",
      "blockNumber": "0x731a9c",
      "gasUsed": "0xfd0f",
      "effectiveGasPrice": "0x7bc05389",
      "from": "0xc77f7fed3b5cc8249adc428c5f44c9063b9734b4",
      "to": "0x8aafd3ede9adb0ff97c7aebce82a919afb1c8764",
      "contractAddress": null
    }
  ],
  "libraries": [],
  "pending": [],
  "returns": {},
  "timestamp": 1737505827,
  "chain": 11155111,
  "commit": "1d2fb70"
}