{
  "transactions": [
    {
      "hash": "0xe348b2e7a715435bfd8abd039e77a1abdb47366f21ffcece90a78199df90530a",
      "transactionType": "CALL",
      "contractName": null,
      "contractAddress": "0x8aafd3ede9adb0ff97c7aebce82a919afb1c8764",
      "function": "sell(uint256)",
      "arguments": [
        "602910"
      ],
      "transaction": {
        "from": "0xc77f7fed3b5cc8249adc428c5f44c9063b9734b4",
        "to": "0x8aafd3ede9adb0ff97c7aebce82a919afb1c8764",
        "gas": "0x16208",
        "value": "0x0",
        "input": "0xe4849b32000000000000000000000000000000000000000000000000000000000009331e",
        "nonce": "0x1368",
        "chainId": "0xaa36a7"
      },
      "additionalContracts": [],
      "isFixedGasLimit": false
    }
  ],
  "receipts": [
    {
      "status": "0x1",
      "cumulativeGasUsed": "0xf0d6ab",
      "logs": [
        {
          "address": "0x8aafd3ede9adb0ff97c7aebce82a919afb1c8764",
          "topics": [
            "0xddf252ad1be2c89b69c2b068fc378daa952ba7f163c4a11628f55a4df523b3ef",
            "0x000000000000000000000000c77f7fed3b5cc8249adc428c5f44c9063b9734b4",
            "0x0000000000000000000000000000000000000000000000000000000000000000"
          ],
          "data": "0x0000000000000000000000000000000000000000000000000000000000092047",
          "blockHash": "0xb53660b0e82df754ad091c0405e773b16404b903b356347ea42503bac9ded839",
          "blockNumber": "0x731a88",
          "transactionHash": "0xe348b2e7a715435bfd8abd039e77a1abdb47366f21ffcece90a78199df90530a",
          "transactionIndex": "0x8d",
          "logIndex": "0xeb",
          "removed": false
        },
        {
          "address": "0x8aafd3ede9adb0ff97c7aebce82a919afb1c8764",
          "topics": [
            "0xddf252ad1be2c89b69c2b068fc378daa952ba7f163c4a11628f55a4df523b3ef",
            "0x000000000000000000000000c77f7fed3b5cc8249adc428c5f44c9063b9734b4",
            "0x000000000000000000000000c77f7fed3b5cc8249adc428c5f44c9063b9734b4"
          ],
          "data": "0x00000000000000000000000000000000000000000000000000000000000012d7",
          "blockHash": "0xb53660b0e82df754ad091c0405e773b16404b903b356347ea42503bac9ded839",
          "blockNumber": "0x731a88",
          "transactionHash": "0xe348b2e7a715435bfd8abd039e77a1abdb47366f21ffcece90a78199df90530a",
          "transactionIndex": "0x8d",
          "logIndex": "0xec",
          "removed": false
        },
        {
          "address": "0x8aafd3ede9adb0ff97c7aebce82a919afb1c8764",
          "topics": [
            "0x4afcb4a87cdbd9974efdb92ee48bc8d7cd0ae4bf217004db3d080cbaee652ca7"
          ],
          "data": "0x0000000000000000000000000000000000000000000000000000000067903b30000000000000000000000000000000000000000000000000000c5f7b5795fd4f0000000000000000000000000000000000000000000000000000000000000833",
          "blockHash": "0xb53660b0e82df754ad091c0405e773b16404b903b356347ea42503bac9ded839",
          "blockNumber": "0x731a88",
          "transactionHash": "0xe348b2e7a715435bfd8abd039e77a1abdb47366f21ffcece90a78199df90530a",
          "transactionIndex": "0x8d",
          "logIndex": "0xed",
          "removed": false
        }
      ],
      "logsBloom": "0x00000000000000000000000000000000000000000600000000000000000000000000000000000000000000000000000000000000000000004000000000000000000000000000004000000008000000000000000000000000000000000000000000000000020000000000000000000800020000000000000000000010000000000000000000000000000000000000000000000000000000000000010000000000000000000000000000000000000000004000000000000000000000000000000000000002000000800000000000000000000000000000080000000000000020000000000000000000000000000000000000000000000000000000000000000000",
      "type": "0x2",
      "transactionHash": "0xe348b2e7a715435bfd8abd039e77a1abdb47366f21ffcece90a78199df90530a",
      "transactionIndex": "0x8d",
      "blockHash": "0xb53660b0e82df754ad091c0405e773b16404b903b356347ea42503bac9ded839",
      "blockNumber": "0x731a88",
      "gasUsed": "0xf213",
      "effectiveGasPrice": "0x5510984a",
      "from": "0xc77f7fed3b5cc8249adc428c5f44c9063b9734b4",
      "to": "0x8aafd3ede9adb0ff97c7aebce82a919afb1c8764",
      "contractAddress": null
    }
  ],
  "libraries": [],
  "pending": [],
  "returns": {},
  "timestamp": 1737505585,
  "chain": 11155111,
  "commit": "1d2fb70"
}