{
  "transactions": [
    {
      "hash": "0x5dcdcc5d975705cd5c542f33a16a3d51c8567ebf4a535e1a9b8fc16107c996db",
      "transactionType": "CALL",
      "contractName": null,
      "contractAddress": "0x8aafd3ede9adb0ff97c7aebce82a919afb1c8764",
      "function": "buy(address)",
      "arguments": [
        "0xC77f7fed3b5Cc8249aDc428c5F44C9063B9734b4"
      ],
      "transaction": {
        "from": "0xc77f7fed3b5cc8249adc428c5f44c9063b9734b4",
        "to": "0x8aafd3ede9adb0ff97c7aebce82a919afb1c8764",
        "gas": "0x156ea",
        "value": "0xde0b6b3a7640000",
        "input": "0xf088d547000000000000000000000000c77f7fed3b5cc8249adc428c5f44c9063b9734b4",
        "nonce": "0xfde",
        "chainId": "0xaa36a7"
      },
      "additionalContracts": [],
      "isFixedGasLimit": false
    }
  ],
  "receipts": [
    {
      "status": "0x1",
      "cumulativeGasUsed": "0xafd2cb",
      "logs": [
        {
          "address": "0x8aafd3ede9adb0ff97c7aebce82a919afb1c8764",
          "topics": [
            "0xddf252ad1be2c89b69c2b068fc378daa952ba7f163c4a11628f55a4df523b3ef",
            "0x0000000000000000000000000000000000000000000000000000000000000000",
            "0x000000000000000000000000c77f7fed3b5cc8249adc428c5f44c9063b9734b4"
          ],
          "data": "0x000000000000000000000000000000000000000000000027f8dbd2890ce774b7",
          "blockHash": "0xd304ee732ad8f5c67b42fe12c474ad5001b298d7acb90bbe4a1ca0a9f9931984",
          "blockNumber": "0x731650",
          "transactionHash": "0x5dcdcc5d975705cd5c542f33a16a3d51c8567ebf4a535e1a9b8fc16107c996db",
          "transactionIndex": "0x73",
          "logIndex": "0xa9",
          "removed": false
        },
        {
          "address": "0x8aafd3ede9adb0ff97c7aebce82a919afb1c8764",
          "topics": [
            "0xddf252ad1be2c89b69c2b068fc378daa952ba7f163c4a11628f55a4df523b3ef",
            "0x0000000000000000000000000000000000000000000000000000000000000000",
            "0x000000000000000000000000c77f7fed3b5cc8249adc428c5f44c9063b9734b4"
          ],
          "data": "0x0000000000000000000000000000000000000000000000001f0a29ef490e8047",
          "blockHash": "0xd304ee732ad8f5c67b42fe12c474ad5001b298d7acb90bbe4a1ca0a9f9931984",
          "blockNumber": "0x731650",
          "transactionHash": "0x5dcdcc5d975705cd5c542f33a16a3d51c8567ebf4a535e1a9b8fc16107c996db",
          "transactionIndex": "0x73",
          "logIndex": "0xaa",
          "removed": false
        },
        {
          "address": "0x8aafd3ede9adb0ff97c7aebce82a919afb1c8764",
          "topics": [
            "0x4afcb4a87cdbd9974efdb92ee48bc8d7cd0ae4bf217004db3d080cbaee652ca7"
          ],
          "data": "0x000000000000000000000000000000000000000000000000000000006790086c0000000000000000000000000000000000000000000000000004c537326ed93c0000000000000000000000000000000000000000000000000de0b6b3a7640000",
          "blockHash": "0xd304ee732ad8f5c67b42fe12c474ad5001b298d7acb90bbe4a1ca0a9f9931984",
          "blockNumber": "0x731650",
          "transactionHash": "0x5dcdcc5d975705cd5c542f33a16a3d51c8567ebf4a535e1a9b8fc16107c996db",
          "transactionIndex": "0x73",
          "logIndex": "0xab",
          "removed": false
        }
      ],
      "logsBloom": "0x00000000000000000000000000000000000000000600000000000000000000000000000000000000000000000000000000000000000000004000000000000000000000000000004000000008000000000000000000000000000000000000000000000000020000000000000000000800020000000000000000000010000000000000000000000000000000000000000000000000000000000000010000000000000000000000000000000000000000004000000000000000000000000000000000000002000000800000000000000000000000000000080000000000000020000000000000000000000000000000000000000000000000000000000000000000",
      "type": "0x2",
      "transactionHash": "0x5dcdcc5d975705cd5c542f33a16a3d51c8567ebf4a535e1a9b8fc16107c996db",
      "transactionIndex": "0x73",
      "blockHash": "0xd304ee732ad8f5c67b42fe12c474ad5001b298d7acb90bbe4a1ca0a9f9931984",
      "blockNumber": "0x731650",
      "gasUsed": "0xf844",
      "effectiveGasPrice": "0x53966bd8",
      "from": "0xc77f7fed3b5cc8249adc428c5f44c9063b9734b4",
      "to": "0x8aafd3ede9adb0ff97c7aebce82a919afb1c8764",
      "contractAddress": null
    }
  ],
  "libraries": [],
  "pending": [],
  "returns": {},
  "timestamp": 1737492590,
  "chain": 11155111,
  "commit": "1d2fb70"
}