{
  "transactions": [
    {
      "hash": "0x763479e9c40a9da49de42f220355e86aa0d1d4baf290b8295016227a321393f0",
      "transactionType": "CALL",
      "contractName": null,
      "contractAddress": "0x5eb9cc76c3506942c1c0ead70e877dd5e4f00cb0",
      "function": "sell(uint256)",
      "arguments": [
        "989083107912437337349"
      ],
      "transaction": {
        "from": "0xc77f7fed3b5cc8249adc428c5f44c9063b9734b4",
        "to": "0x5eb9cc76c3506942c1c0ead70e877dd5e4f00cb0",
        "gas": "0x16fec",
        "value": "0x0",
        "input": "0xe4849b320000000000000000000000000000000000000000000000359e4916426c2e0d05",
        "nonce": "0x46b",
        "chainId": "0xaa36a7"
      },
      "additionalContracts": [],
      "isFixedGasLimit": false
    }
  ],
  "receipts": [
    {
      "status": "0x1",
      "cumulativeGasUsed": "0x8ef875",
      "logs": [
        {
          "address": "0x5eb9cc76c3506942c1c0ead70e877dd5e4f00cb0",
          "topics": [
            "0xddf252ad1be2c89b69c2b068fc378daa952ba7f163c4a11628f55a4df523b3ef",
            "0x000000000000000000000000c77f7fed3b5cc8249adc428c5f44c9063b9734b4",
            "0x0000000000000000000000000000000000000000000000000000000000000000"
          ],
          "data": "0x0000000000000000000000000000000000000000000000359e4916426c2e0d05",
          "blockHash": "0xc08fd3fdcd2a53debbe5d6f05fa210179b93265318e81b53b7e3371846498e36",
          "blockNumber": "0x725093",
          "transactionHash": "0x763479e9c40a9da49de42f220355e86aa0d1d4baf290b8295016227a321393f0",
          "transactionIndex": "0x4c",
          "logIndex": "0x89",
          "removed": false
        },
        {
          "address": "0x5eb9cc76c3506942c1c0ead70e877dd5e4f00cb0",
          "topics": [
            "0x4afcb4a87cdbd9974efdb92ee48bc8d7cd0ae4bf217004db3d080cbaee652ca7"
          ],
          "data": "0x000000000000000000000000000000000000000000000000000000006786b8b00000000000000000000000000000000000000000000000000003911976d472440000000000000000000000000000000000000000000000000dc7db1331c9641a",
          "blockHash": "0xc08fd3fdcd2a53debbe5d6f05fa210179b93265318e81b53b7e3371846498e36",
          "blockNumber": "0x725093",
          "transactionHash": "0x763479e9c40a9da49de42f220355e86aa0d1d4baf290b8295016227a321393f0",
          "transactionIndex": "0x4c",
          "logIndex": "0x8a",
          "removed": false
        }
      ],
      "logsBloom": "0x00000000000000000000000000000000000000000000000000000000000000000000000000000000000000000000000000000000000000004000000000000000000000000000000000000008000000000000000000000000000000000000000000000000020000000000000004000800020000000000000000000010000000000000000000000000000000000000000000000000000000000000010000000000000000000000000000000000000000004000000000000000000000000000020000000002000000800000008000000000000000000000080000000000000020000000000000000000000000000000000000000000000000000000000000000000",
      "type": "0x2",
      "transactionHash": "0x763479e9c40a9da49de42f220355e86aa0d1d4baf290b8295016227a321393f0",
      "transactionIndex": "0x4c",
      "blockHash": "0xc08fd3fdcd2a53debbe5d6f05fa210179b93265318e81b53b7e3371846498e36",
      "blockNumber": "0x725093",
      "gasUsed": "0xfb93",
      "effectiveGasPrice": "0x1de47e414",
      "from": "0xc77f7fed3b5cc8249adc428c5f44c9063b9734b4",
      "to": "0x5eb9cc76c3506942c1c0ead70e877dd5e4f00cb0",
      "contractAddress": null
    }
  ],
  "libraries": [],
  "pending": [],
  "returns": {},
  "timestamp": 1736882353,
  "chain": 11155111,
  "commit": "51a374b"
}