{
  "transactions": [
    {
      "hash": "0x9ca604dfcec225ab2c65eff406d8295d34a58047e8f3633b9b2d2aa4d2bb7917",
      "transactionType": "CALL",
      "contractName": null,
      "contractAddress": "0xbf4a322f1496e5c3d34a9bcdb4c60567b38c7de2",
      "function": "buy(address)",
      "arguments": [
        "0xC77f7fed3b5Cc8249aDc428c5F44C9063B9734b4"
      ],
      "transaction": {
        "from": "0xc77f7fed3b5cc8249adc428c5f44c9063b9734b4",
        "to": "0xbf4a322f1496e5c3d34a9bcdb4c60567b38c7de2",
        "gas": "0x1b309",
        "value": "0xde0b6b3a7640000",
        "input": "0xf088d547000000000000000000000000c77f7fed3b5cc8249adc428c5f44c9063b9734b4",
        "nonce": "0xa42",
        "chainId": "0xaa36a7"
      },
      "additionalContracts": [],
      "isFixedGasLimit": false
    }
  ],
  "receipts": [
    {
      "status": "0x1",
      "cumulativeGasUsed": "0xa98071",
      "logs": [
        {
          "address": "0xbf4a322f1496e5c3d34a9bcdb4c60567b38c7de2",
          "topics": [
            "0xddf252ad1be2c89b69c2b068fc378daa952ba7f163c4a11628f55a4df523b3ef",
            "0x0000000000000000000000000000000000000000000000000000000000000000",
            "0x000000000000000000000000c77f7fed3b5cc8249adc428c5f44c9063b9734b4"
          ],
          "data": "0x0000000000000000000000000000000000000000000000354ec7e65bf5f88d07",
          "blockHash": "0x01029ccd183f842db880ba5353c98b2c7bfd0687a964e59b085b4537a046b0e6",
          "blockNumber": "0x725a1a",
          "transactionHash": "0x9ca604dfcec225ab2c65eff406d8295d34a58047e8f3633b9b2d2aa4d2bb7917",
          "transactionIndex": "0x54",
          "logIndex": "0x68",
          "removed": false
        },
        {
          "address": "0xbf4a322f1496e5c3d34a9bcdb4c60567b38c7de2",
          "topics": [
            "0xddf252ad1be2c89b69c2b068fc378daa952ba7f163c4a11628f55a4df523b3ef",
            "0x0000000000000000000000000000000000000000000000000000000000000000",
            "0x000000000000000000000000c77f7fed3b5cc8249adc428c5f44c9063b9734b4"
          ],
          "data": "0x000000000000000000000000000000000000000000000000296530da04e48ed8",
          "blockHash": "0x01029ccd183f842db880ba5353c98b2c7bfd0687a964e59b085b4537a046b0e6",
          "blockNumber": "0x725a1a",
          "transactionHash": "0x9ca604dfcec225ab2c65eff406d8295d34a58047e8f3633b9b2d2aa4d2bb7917",
          "transactionIndex": "0x54",
          "logIndex": "0x69",
          "removed": false
        },
        {
          "address": "0xbf4a322f1496e5c3d34a9bcdb4c60567b38c7de2",
          "topics": [
            "0x4afcb4a87cdbd9974efdb92ee48bc8d7cd0ae4bf217004db3d080cbaee652ca7"
          ],
          "data": "0x0000000000000000000000000000000000000000000000000000000067872b88000000000000000000000000000000000000000000000000000393a68305e87e0000000000000000000000000000000000000000000000000de0b6b3a7640000",
          "blockHash": "0x01029ccd183f842db880ba5353c98b2c7bfd0687a964e59b085b4537a046b0e6",
          "blockNumber": "0x725a1a",
          "transactionHash": "0x9ca604dfcec225ab2c65eff406d8295d34a58047e8f3633b9b2d2aa4d2bb7917",
          "transactionIndex": "0x54",
          "logIndex": "0x6a",
          "removed": false
        }
      ],
      "logsBloom": "0x00000000000000000000000000000000000000000000000000000000000000000000000000000000000000000000000000000000000000004000000000000000000000000000000000000008000000000000001000000000000000000000000000000000020000000000000000000800020000000000000000000010000000000000000000000000000000000000000000000000000008000000010000000000000000000000000000000000000000004000000000000000000000000000000000000002000000800000000000001000000000000000080000000000000020000000000000000000000000000000000000000000000000000000000000000000",
      "type": "0x2",
      "transactionHash": "0x9ca604dfcec225ab2c65eff406d8295d34a58047e8f3633b9b2d2aa4d2bb7917",
      "transactionIndex": "0x54",
      "blockHash": "0x01029ccd183f842db880ba5353c98b2c7bfd0687a964e59b085b4537a046b0e6",
      "blockNumber": "0x725a1a",
      "gasUsed": "0x13af6",
      "effectiveGasPrice": "0x6f7aaf630",
      "from": "0xc77f7fed3b5cc8249adc428c5f44c9063b9734b4",
      "to": "0xbf4a322f1496e5c3d34a9bcdb4c60567b38c7de2",
      "contractAddress": null
    }
  ],
  "libraries": [],
  "pending": [],
  "returns": {},
  "timestamp": 1736911753,
  "chain": 11155111,
  "commit": "51a374b"
}