{
  "transactions": [
    {
      "hash": "0x306587ec64ab3cd2126e6e7f9db956fe3e31cca6b8a5d9447645841599603cc2",
      "transactionType": "CALL",
      "contractName": null,
      "contractAddress": "0xbf4a322f1496e5c3d34a9bcdb4c60567b38c7de2",
      "function": "sell(uint256)",
      "arguments": [
        "981249541161450284397"
      ],
      "transaction": {
        "from": "0xc77f7fed3b5cc8249adc428c5f44c9063b9734b4",
        "to": "0xbf4a322f1496e5c3d34a9bcdb4c60567b38c7de2",
        "gas": "0x16fea",
        "value": "0x0",
        "input": "0xe4849b320000000000000000000000000000000000000000000000353192aacdaf49256d",
        "nonce": "0xbbb",
        "chainId": "0xaa36a7"
      },
      "additionalContracts": [],
      "isFixedGasLimit": false
    }
  ],
  "receipts": [
    {
      "status": "0x1",
      "cumulativeGasUsed": "0xf8ed45",
      "logs": [
        {
          "address": "0xbf4a322f1496e5c3d34a9bcdb4c60567b38c7de2",
          "topics": [
            "0xddf252ad1be2c89b69c2b068fc378daa952ba7f163c4a11628f55a4df523b3ef",
            "0x000000000000000000000000c77f7fed3b5cc8249adc428c5f44c9063b9734b4",
            "0x0000000000000000000000000000000000000000000000000000000000000000"
          ],
          "data": "0x0000000000000000000000000000000000000000000000353192aacdaf49256d",
          "blockHash": "0x20ebef38ad4f5acfbf5526f11187d880a3d112c9c36e37fffc6daf6977006889",
          "blockNumber": "0x725bd6",
          "transactionHash": "0x306587ec64ab3cd2126e6e7f9db956fe3e31cca6b8a5d9447645841599603cc2",
          "transactionIndex": "0x55",
          "logIndex": "0x9f",
          "removed": false
        },
        {
          "address": "0xbf4a322f1496e5c3d34a9bcdb4c60567b38c7de2",
          "topics": [
            "0x4afcb4a87cdbd9974efdb92ee48bc8d7cd0ae4bf217004db3d080cbaee652ca7"
          ],
          "data": "0x000000000000000000000000000000000000000000000000000000006787406400000000000000000000000000000000000000000000000000039869f77211930000000000000000000000000000000000000000000000000dc7e3e4f8b6b132",
          "blockHash": "0x20ebef38ad4f5acfbf5526f11187d880a3d112c9c36e37fffc6daf6977006889",
          "blockNumber": "0x725bd6",
          "transactionHash": "0x306587ec64ab3cd2126e6e7f9db956fe3e31cca6b8a5d9447645841599603cc2",
          "transactionIndex": "0x55",
          "logIndex": "0xa0",
          "removed": false
        }
      ],
      "logsBloom": "0x00000000000000000000000000000000000000000000000000000000000000000000000000000000000000000000000000000000000000004000000000000000000000000000000000000008000000000000001000000000000000000000000000000000020000000000000000000800020000000000000000000010000000000000000000000000000000000000000000000000000008000000010000000000000000000000000000000000000000004000000000000000000000000000000000000002000000800000000000001000000000000000080000000000000020000000000000000000000000000000000000000000000000000000000000000000",
      "type": "0x2",
      "transactionHash": "0x306587ec64ab3cd2126e6e7f9db956fe3e31cca6b8a5d9447645841599603cc2",
      "transactionIndex": "0x55",
      "blockHash": "0x20ebef38ad4f5acfbf5526f11187d880a3d112c9c36e37fffc6daf6977006889",
      "blockNumber": "0x725bd6",
      "gasUsed": "0xfb91",
      "effectiveGasPrice": "0x5e4c7e8c",
      "from": "0xc77f7fed3b5cc8249adc428c5f44c9063b9734b4",
      "to": "0xbf4a322f1496e5c3d34a9bcdb4c60567b38c7de2",
      "contractAddress": null
    }
  ],
  "libraries": [],
  "pending": [],
  "returns": {},
  "timestamp": 1736917093,
  "chain": 11155111,
  "commit": "51a374b"
}