{
  "transactions": [
    {
      "hash": "0x938b71a4ca3d0bbf2c79ebb1342e5d077d0f77db3d52d641012973c1ec5f0b12",
      "transactionType": "CALL",
      "contractName": null,
      "contractAddress": "0x8aafd3ede9adb0ff97c7aebce82a919afb1c8764",
      "function": "sell(uint256)",
      "arguments": [
        "43892739973774051"
      ],
      "transaction": {
        "from": "0xc77f7fed3b5cc8249adc428c5f44c9063b9734b4",
        "to": "0x8aafd3ede9adb0ff97c7aebce82a919afb1c8764",
        "gas": "0x1724d",
        "value": "0x0",
        "input": "0xe4849b32000000000000000000000000000000000000000000000000009bf036e65afae3",
        "nonce": "0x11b5",
        "chainId": "0xaa36a7"
      },
      "additionalContracts": [],
      "isFixedGasLimit": false
    }
  ],
  "receipts": [
    {
      "status": "0x1",
      "cumulativeGasUsed": "0x9d2739",
      "logs": [
        {
          "address": "0x8aafd3ede9adb0ff97c7aebce82a919afb1c8764",
          "topics": [
            "0xddf252ad1be2c89b69c2b068fc378daa952ba7f163c4a11628f55a4df523b3ef",
            "0x000000000000000000000000c77f7fed3b5cc8249adc428c5f44c9063b9734b4",
            "0x0000000000000000000000000000000000000000000000000000000000000000"
          ],
          "data": "0x000000000000000000000000000000000000000000000000009ab0da4cf5e673",
          "blockHash": "0x5889cb6a88d62604fcc36b3215a7e2fd9ccd2616c6cc0865cdd5c666f37a7246",
          "blockNumber": "0x731882",
          "transactionHash": "0x938b71a4ca3d0bbf2c79ebb1342e5d077d0f77db3d52d641012973c1ec5f0b12",
          "transactionIndex": "0x7a",
          "logIndex": "0x8e",
          "removed": false
        },
        {
          "address": "0x8aafd3ede9adb0ff97c7aebce82a919afb1c8764",
          "topics": [
            "0xddf252ad1be2c89b69c2b068fc378daa952ba7f163c4a11628f55a4df523b3ef",
            "0x000000000000000000000000c77f7fed3b5cc8249adc428c5f44c9063b9734b4",
            "0x000000000000000000000000c77f7fed3b5cc8249adc428c5f44c9063b9734b4"
          ],
          "data": "0x00000000000000000000000000000000000000000000000000013f5c99651470",
          "blockHash": "0x5889cb6a88d62604fcc36b3215a7e2fd9ccd2616c6cc0865cdd5c666f37a7246",
          "blockNumber": "0x731882",
          "transactionHash": "0x938b71a4ca3d0bbf2c79ebb1342e5d077d0f77db3d52d641012973c1ec5f0b12",
          "transactionIndex": "0x7a",
          "logIndex": "0x8f",
          "removed": false
        },
        {
          "address": "0x8aafd3ede9adb0ff97c7aebce82a919afb1c8764",
          "topics": [
            "0x4afcb4a87cdbd9974efdb92ee48bc8d7cd0ae4bf217004db3d080cbaee652ca7"
          ],
          "data": "0x00000000000000000000000000000000000000000000000000000000679022e80000000000000000000000000000000000000000000000000005264ede456c32000000000000000000000000000000000000000000000000000039dd38fcd012",
          "blockHash": "0x5889cb6a88d62604fcc36b3215a7e2fd9ccd2616c6cc0865cdd5c666f37a7246",
          "blockNumber": "0x731882",
          "transactionHash": "0x938b71a4ca3d0bbf2c79ebb1342e5d077d0f77db3d52d641012973c1ec5f0b12",
          "transactionIndex": "0x7a",
          "logIndex": "0x90",
          "removed": false
        }
      ],
      "logsBloom": "0x00000000000000000000000000000000000000000600000000000000000000000000000000000000000000000000000000000000000000004000000000000000000000000000004000000008000000000000000000000000000000000000000000000000020000000000000000000800020000000000000000000010000000000000000000000000000000000000000000000000000000000000010000000000000000000000000000000000000000004000000000000000000000000000000000000002000000800000000000000000000000000000080000000000000020000000000000000000000000000000000000000000000000000000000000000000",
      "type": "0x2",
      "transactionHash": "0x938b71a4ca3d0bbf2c79ebb1342e5d077d0f77db3d52d641012973c1ec5f0b12",
      "transactionIndex": "0x7a",
      "blockHash": "0x5889cb6a88d62604fcc36b3215a7e2fd9ccd2616c6cc0865cdd5c666f37a7246",
      "blockNumber": "0x731882",
      "gasUsed": "0xfd33",
      "effectiveGasPrice": "0x47028284",
      "from": "0xc77f7fed3b5cc8249adc428c5f44c9063b9734b4",
      "to": "0x8aafd3ede9adb0ff97c7aebce82a919afb1c8764",
      "contractAddress": null
    }
  ],
  "libraries": [],
  "pending": [],
  "returns": {},
  "timestamp": 1737499370,
  "chain": 11155111,
  "commit": "1d2fb70"
}