{
  "transactions": [
    {
      "hash": "0xc812f2fe8619bd2f6afd072092cffae3993b8007c9c40406a58059e2d787d808",
      "transactionType": "CALL",
      "contractName": null,
      "contractAddress": "0x5eb9cc76c3506942c1c0ead70e877dd5e4f00cb0",
      "function": "buy(address)",
      "arguments": [
        "0xC77f7fed3b5Cc8249aDc428c5F44C9063B9734b4"
      ],
      "transaction": {
        "from": "0xc77f7fed3b5cc8249adc428c5f44c9063b9734b4",
        "to": "0x5eb9cc76c3506942c1c0ead70e877dd5e4f00cb0",
        "gas": "0x1b30c",
        "value": "0xde0b6b3a7640000",
        "input": "0xf088d547000000000000000000000000c77f7fed3b5cc8249adc428c5f44c9063b9734b4",
        "nonce": "0x3c2",
        "chainId": "0xaa36a7"
      },
      "additionalContracts": [],
      "isFixedGasLimit": false
    }
  ],
  "receipts": [
    {
      "status": "0x1",
      "cumulativeGasUsed": "0x139bbd1",
      "logs": [
        {
          "address": "0x5eb9cc76c3506942c1c0ead70e877dd5e4f00cb0",
          "topics": [
            "0xddf252ad1be2c89b69c2b068fc378daa952ba7f163c4a11628f55a4df523b3ef",
            "0x0000000000000000000000000000000000000000000000000000000000000000",
            "0x000000000000000000000000c77f7fed3b5cc8249adc428c5f44c9063b9734b4"
          ],
          "data": "0x0000000000000000000000000000000000000000000000357525370f51b3266f",
          "blockHash": "0xdc0cf82d051492e1223fd97dc407c15893c38c15729524ceef8f8e2622fffe86",
          "blockNumber": "0x724fc2",
          "transactionHash": "0xc812f2fe8619bd2f6afd072092cffae3993b8007c9c40406a58059e2d787d808",
          "transactionIndex": "0x56",
          "logIndex": "0xc8",
          "removed": false
        },
        {
          "address": "0x5eb9cc76c3506942c1c0ead70e877dd5e4f00cb0",
          "topics": [
            "0xddf252ad1be2c89b69c2b068fc378daa952ba7f163c4a11628f55a4df523b3ef",
            "0x0000000000000000000000000000000000000000000000000000000000000000",
            "0x000000000000000000000000c77f7fed3b5cc8249adc428c5f44c9063b9734b4"
          ],
          "data": "0x0000000000000000000000000000000000000000000000002982fb701baccd4e",
          "blockHash": "0xdc0cf82d051492e1223fd97dc407c15893c38c15729524ceef8f8e2622fffe86",
          "blockNumber": "0x724fc2",
          "transactionHash": "0xc812f2fe8619bd2f6afd072092cffae3993b8007c9c40406a58059e2d787d808",
          "transactionIndex": "0x56",
          "logIndex": "0xc9",
          "removed": false
        },
        {
          "address": "0x5eb9cc76c3506942c1c0ead70e877dd5e4f00cb0",
          "topics": [
            "0x4afcb4a87cdbd9974efdb92ee48bc8d7cd0ae4bf217004db3d080cbaee652ca7"
          ],
          "data": "0x000000000000000000000000000000000000000000000000000000006786aee40000000000000000000000000000000000000000000000000003911316d9d12b0000000000000000000000000000000000000000000000000de0b6b3a7640000",
          "blockHash": "0xdc0cf82d051492e1223fd97dc407c15893c38c15729524ceef8f8e2622fffe86",
          "blockNumber": "0x724fc2",
          "transactionHash": "0xc812f2fe8619bd2f6afd072092cffae3993b8007c9c40406a58059e2d787d808",
          "transactionIndex": "0x56",
          "logIndex": "0xca",
          "removed": false
        }
      ],
      "logsBloom": "0x00000000000000000000000000000000000000000000000000000000000000000000000000000000000000000000000000000000000000004000000000000000000000000000000000000008000000000000000000000000000000000000000000000000020000000000000004000800020000000000000000000010000000000000000000000000000000000000000000000000000000000000010000000000000000000000000000000000000000004000000000000000000000000000020000000002000000800000008000000000000000000000080000000000000020000000000000000000000000000000000000000000000000000000000000000000",
      "type": "0x2",
      "transactionHash": "0xc812f2fe8619bd2f6afd072092cffae3993b8007c9c40406a58059e2d787d808",
      "transactionIndex": "0x56",
      "blockHash": "0xdc0cf82d051492e1223fd97dc407c15893c38c15729524ceef8f8e2622fffe86",
      "blockNumber": "0x724fc2",
      "gasUsed": "0x13af8",
      "effectiveGasPrice": "0x3b0db22f5",
      "from": "0xc77f7fed3b5cc8249adc428c5f44c9063b9734b4",
      "to": "0x5eb9cc76c3506942c1c0ead70e877dd5e4f00cb0",
      "contractAddress": null
    }
  ],
  "libraries": [],
  "pending": [],
  "returns": {},
  "timestamp": 1736879845,
  "chain": 11155111,
  "commit": "51a374b"
}