{
  "transactions": [
    {
      "hash": "0xe352728228d971bb85a05a18ec280b9bb7baa78a139784d02a0195a9597f6351",
      "transactionType": "CALL",
      "contractName": null,
      "contractAddress": "0x8aafd3ede9adb0ff97c7aebce82a919afb1c8764",
      "function": "buy(address)",
      "arguments": [
        "0xC77f7fed3b5Cc8249aDc428c5F44C9063B9734b4"
      ],
      "transaction": {
        "from": "0xc77f7fed3b5cc8249adc428c5f44c9063b9734b4",
        "to": "0x8aafd3ede9adb0ff97c7aebce82a919afb1c8764",
        "gas": "0x156ea",
        "value": "0xde0b6b3a7640000",
        "input": "0xf088d547000000000000000000000000c77f7fed3b5cc8249adc428c5f44c9063b9734b4",
        "nonce": "0x1202",
        "chainId": "0xaa36a7"
      },
      "additionalContracts": [],
      "isFixedGasLimit": false
    }
  ],
  "receipts": [
    {
      "status": "0x1",
      "cumulativeGasUsed": "0x105e344",
      "logs": [
        {
          "address": "0x8aafd3ede9adb0ff97c7aebce82a919afb1c8764",
          "topics": [
            "0xddf252ad1be2c89b69c2b068fc378daa952ba7f163c4a11628f55a4df523b3ef",
            "0x0000000000000000000000000000000000000000000000000000000000000000",
            "0x000000000000000000000000c77f7fed3b5cc8249adc428c5f44c9063b9734b4"
          ],
          "data": "0x000000000000000000000000000000000000000000000024bde9a58a7c9128dd",
          "blockHash": "0xb42aa56c22274edd7c8202f12422ee67848007c3e6b4eb988237792341a6437e",
          "blockNumber": "0x7318dd",
          "transactionHash": "0xe352728228d971bb85a05a18ec280b9bb7baa78a139784d02a0195a9597f6351",
          "transactionIndex": "0xb2",
          "logIndex": "0xd5",
          "removed": false
        },
        {
          "address": "0x8aafd3ede9adb0ff97c7aebce82a919afb1c8764",
          "topics": [
            "0xddf252ad1be2c89b69c2b068fc378daa952ba7f163c4a11628f55a4df523b3ef",
            "0x0000000000000000000000000000000000000000000000000000000000000000",
            "0x000000000000000000000000c77f7fed3b5cc8249adc428c5f44c9063b9734b4"
          ],
          "data": "0x0000000000000000000000000000000000000000000000001c8803148a425e39",
          "blockHash": "0xb42aa56c22274edd7c8202f12422ee67848007c3e6b4eb988237792341a6437e",
          "blockNumber": "0x7318dd",
          "transactionHash": "0xe352728228d971bb85a05a18ec280b9bb7baa78a139784d02a0195a9597f6351",
          "transactionIndex": "0xb2",
          "logIndex": "0xd6",
          "removed": false
        },
        {
          "address": "0x8aafd3ede9adb0ff97c7aebce82a919afb1c8764",
          "topics": [
            "0x4afcb4a87cdbd9974efdb92ee48bc8d7cd0ae4bf217004db3d080cbaee652ca7"
          ],
          "data": "0x000000000000000000000000000000000000000000000000000000006790272c000000000000000000000000000000000000000000000000000530e3957570fa0000000000000000000000000000000000000000000000000de0b6b3a7640000",
          "blockHash": "0xb42aa56c22274edd7c8202f12422ee67848007c3e6b4eb988237792341a6437e",
          "blockNumber": "0x7318dd",
          "transactionHash": "0xe352728228d971bb85a05a18ec280b9bb7baa78a139784d02a0195a9597f6351",
          "transactionIndex": "0xb2",
          "logIndex": "0xd7",
          "removed": false
        }
      ],
      "logsBloom": "0x00000000000000000000000000000000000000000600000000000000000000000000000000000000000000000000000000000000000000004000000000000000000000000000004000000008000000000000000000000000000000000000000000000000020000000000000000000800020000000000000000000010000000000000000000000000000000000000000000000000000000000000010000000000000000000000000000000000000000004000000000000000000000000000000000000002000000800000000000000000000000000000080000000000000020000000000000000000000000000000000000000000000000000000000000000000",
      "type": "0x2",
      "transactionHash": "0xe352728228d971bb85a05a18ec280b9bb7baa78a139784d02a0195a9597f6351",
      "transactionIndex": "0xb2",
      "blockHash": "0xb42aa56c22274edd7c8202f12422ee67848007c3e6b4eb988237792341a6437e",
      "blockNumber": "0x7318dd",
      "gasUsed": "0xf844",
      "effectiveGasPrice": "0x3e32b64a",
      "from": "0xc77f7fed3b5cc8249adc428c5f44c9063b9734b4",
      "to": "0x8aafd3ede9adb0ff97c7aebce82a919afb1c8764",
      "contractAddress": null
    }
  ],
  "libraries": [],
  "pending": [],
  "returns": {},
  "timestamp": 1737500462,
  "chain": 11155111,
  "commit": "1d2fb70"
}