{
  "transactions": [
    {
      "hash": "0x697c69ac91610da9b45b68c7ac6eff10d95ab69c1d860c1ce42dc3634d4648e5",
      "transactionType": "CALL",
      "contractName": null,
      "contractAddress": "0x8aafd3ede9adb0ff97c7aebce82a919afb1c8764",
      "function": "sell(uint256)",
      "arguments": [
        "2787605348013"
      ],
      "transaction": {
        "from": "0xc77f7fed3b5cc8249adc428c5f44c9063b9734b4",
        "to": "0x8aafd3ede9adb0ff97c7aebce82a919afb1c8764",
        "gas": "0x15daa",
        "value": "0x0",
        "input": "0xe4849b32000000000000000000000000000000000000000000000000000002890a39fead",
        "nonce": "0x11fd",
        "chainId": "0xaa36a7"
      },
      "additionalContracts": [],
      "isFixedGasLimit": false
    }
  ],
  "receipts": [
    {
      "status": "0x1",
      "cumulativeGasUsed": "0xc7e9eb",
      "logs": [
        {
          "address": "0x8aafd3ede9adb0ff97c7aebce82a919afb1c8764",
          "topics": [
            "0xddf252ad1be2c89b69c2b068fc378daa952ba7f163c4a11628f55a4df523b3ef",
            "0x000000000000000000000000c77f7fed3b5cc8249adc428c5f44c9063b9734b4",
            "0x0000000000000000000000000000000000000000000000000000000000000000"
          ],
          "data": "0x00000000000000000000000000000000000000000000000000000283d8fe238d",
          "blockHash": "0x946a6ac9a7a41cb437d0ae2c4fbd81db71b65126285a6a90ca198e69921d6cc3",
          "blockNumber": "0x7318d7",
          "transactionHash": "0x697c69ac91610da9b45b68c7ac6eff10d95ab69c1d860c1ce42dc3634d4648e5",
          "transactionIndex": "0x88",
          "logIndex": "0xe7",
          "removed": false
        },
        {
          "address": "0x8aafd3ede9adb0ff97c7aebce82a919afb1c8764",
          "topics": [
            "0xddf252ad1be2c89b69c2b068fc378daa952ba7f163c4a11628f55a4df523b3ef",
            "0x000000000000000000000000c77f7fed3b5cc8249adc428c5f44c9063b9734b4",
            "0x000000000000000000000000c77f7fed3b5cc8249adc428c5f44c9063b9734b4"
          ],
          "data": "0x00000000000000000000000000000000000000000000000000000005313bdb20",
          "blockHash": "0x946a6ac9a7a41cb437d0ae2c4fbd81db71b65126285a6a90ca198e69921d6cc3",
          "blockNumber": "0x7318d7",
          "transactionHash": "0x697c69ac91610da9b45b68c7ac6eff10d95ab69c1d860c1ce42dc3634d4648e5",
          "transactionIndex": "0x88",
          "logIndex": "0xe8",
          "removed": false
        },
        {
          "address": "0x8aafd3ede9adb0ff97c7aebce82a919afb1c8764",
          "topics": [
            "0x4afcb4a87cdbd9974efdb92ee48bc8d7cd0ae4bf217004db3d080cbaee652ca7"
          ],
          "data": "0x00000000000000000000000000000000000000000000000000000000679026e40000000000000000000000000000000000000000000000000005307a9a9eaa2800000000000000000000000000000000000000000000000000000000f2b2a4c9",
          "blockHash": "0x946a6ac9a7a41cb437d0ae2c4fbd81db71b65126285a6a90ca198e69921d6cc3",
          "blockNumber": "0x7318d7",
          "transactionHash": "0x697c69ac91610da9b45b68c7ac6eff10d95ab69c1d860c1ce42dc3634d4648e5",
          "transactionIndex": "0x88",
          "logIndex": "0xe9",
          "removed": false
        }
      ],
      "logsBloom": "0x00000000000000000000000000000000000000000600000000000000000000000000000000000000000000000000000000000000000000004000000000000000000000000000004000000008000000000000000000000000000000000000000000000000020000000000000000000800020000000000000000000010000000000000000000000000000000000000000000000000000000000000010000000000000000000000000000000000000000004000000000000000000000000000000000000002000000800000000000000000000000000000080000000000000020000000000000000000000000000000000000000000000000000000000000000000",
      "type": "0x2",
      "transactionHash": "0x697c69ac91610da9b45b68c7ac6eff10d95ab69c1d860c1ce42dc3634d4648e5",
      "transactionIndex": "0x88",
      "blockHash": "0x946a6ac9a7a41cb437d0ae2c4fbd81db71b65126285a6a90ca198e69921d6cc3",
      "blockNumber": "0x7318d7",
      "gasUsed": "0xfd27",
      "effectiveGasPrice": "0x377b448b",
      "from": "0xc77f7fed3b5cc8249adc428c5f44c9063b9734b4",
      "to": "0x8aafd3ede9adb0ff97c7aebce82a919afb1c8764",
      "contractAddress": null
    }
  ],
  "libraries": [],
  "pending": [],
  "returns": {},
  "timestamp": 1737500389,
  "chain": 11155111,
  "commit": "1d2fb70"
}