{
  "transactions": [
    {
      "hash": "0x5d629f0db35bafff20a5f3754729cf5543df60093a88382483bca4044e54aadb",
      "transactionType": "CALL",
      "contractName": null,
      "contractAddress": "0x270e88f8683660553e8ba4eb2ad7c91a1710d769",
      "function": "buy(address)",
      "arguments": [
        "0xC77f7fed3b5Cc8249aDc428c5F44C9063B9734b4"
      ],
      "transaction": {
        "from": "0xc77f7fed3b5cc8249adc428c5f44c9063b9734b4",
        "to": "0x270e88f8683660553e8ba4eb2ad7c91a1710d769",
        "gas": "0x1b30c",
        "value": "0xde0b6b3a7640000",
        "input": "0xf088d547000000000000000000000000c77f7fed3b5cc8249adc428c5f44c9063b9734b4",
        "nonce": "0x75b",
        "chainId": "0xaa36a7"
      },
      "additionalContracts": [],
      "isFixedGasLimit": false
    }
  ],
  "receipts": [
    {
      "status": "0x1",
      "cumulativeGasUsed": "0x89214a",
      "logs": [
        {
          "address": "0x270e88f8683660553e8ba4eb2ad7c91a1710d769",
          "topics": [
            "0xddf252ad1be2c89b69c2b068fc378daa952ba7f163c4a11628f55a4df523b3ef",
            "0x0000000000000000000000000000000000000000000000000000000000000000",
            "0x000000000000000000000000c77f7fed3b5cc8249adc428c5f44c9063b9734b4"
          ],
          "data": "0x000000000000000000000000000000000000000000000027d662fab84ade9f53",
          "blockHash": "0x69fee9178328f851a8d281137233a338928107740085558a064fb1971b475556",
          "blockNumber": "0x725482",
          "transactionHash": "0x5d629f0db35bafff20a5f3754729cf5543df60093a88382483bca4044e54aadb",
          "transactionIndex": "0x34",
          "logIndex": "0x44",
          "removed": false
        },
        {
          "address": "0x270e88f8683660553e8ba4eb2ad7c91a1710d769",
          "topics": [
            "0xddf252ad1be2c89b69c2b068fc378daa952ba7f163c4a11628f55a4df523b3ef",
            "0x0000000000000000000000000000000000000000000000000000000000000000",
            "0x000000000000000000000000c77f7fed3b5cc8249adc428c5f44c9063b9734b4"
          ],
          "data": "0x0000000000000000000000000000000000000000000000001eef6524a1082345",
          "blockHash": "0x69fee9178328f851a8d281137233a338928107740085558a064fb1971b475556",
          "blockNumber": "0x725482",
          "transactionHash": "0x5d629f0db35bafff20a5f3754729cf5543df60093a88382483bca4044e54aadb",
          "transactionIndex": "0x34",
          "logIndex": "0x45",
          "removed": false
        },
        {
          "address": "0x270e88f8683660553e8ba4eb2ad7c91a1710d769",
          "topics": [
            "0x4afcb4a87cdbd9974efdb92ee48bc8d7cd0ae4bf217004db3d080cbaee652ca7"
          ],
          "data": "0x000000000000000000000000000000000000000000000000000000006786e8200000000000000000000000000000000000000000000000000004c95a689258cc0000000000000000000000000000000000000000000000000de0b6b3a7640000",
          "blockHash": "0x69fee9178328f851a8d281137233a338928107740085558a064fb1971b475556",
          "blockNumber": "0x725482",
          "transactionHash": "0x5d629f0db35bafff20a5f3754729cf5543df60093a88382483bca4044e54aadb",
          "transactionIndex": "0x34",
          "logIndex": "0x46",
          "removed": false
        }
      ],
      "logsBloom": "0x00000000000000000000000000000000000000000000000000000000000000000000000000000000000000000000000020000000000000004000000000000000000000000000000000000008000000000000000000000000000000000000000000000000020000000000000000000800020000000000000000000010000000000000000000010000000000000000000000000000000000000000010000000000000000000000000000000000000000004000000000000000000000000000000000000002000000800000000000000000000000000000080000008000000020000000000000000000000000000000000000000000000000000000000000000000",
      "type": "0x2",
      "transactionHash": "0x5d629f0db35bafff20a5f3754729cf5543df60093a88382483bca4044e54aadb",
      "transactionIndex": "0x34",
      "blockHash": "0x69fee9178328f851a8d281137233a338928107740085558a064fb1971b475556",
      "blockNumber": "0x725482",
      "gasUsed": "0x13af8",
      "effectiveGasPrice": "0x136516e13",
      "from": "0xc77f7fed3b5cc8249adc428c5f44c9063b9734b4",
      "to": "0x270e88f8683660553e8ba4eb2ad7c91a1710d769",
      "contractAddress": null
    }
  ],
  "libraries": [],
  "pending": [],
  "returns": {},
  "timestamp": 1736894498,
  "chain": 11155111,
  "commit": "51a374b"
}