{
  "transactions": [
    {
      "hash": "0x5a230b71a69618f8f3951475fc9047de7b3cb352364de0dc697365c11216f3cf",
      "transactionType": "CALL",
      "contractName": null,
      "contractAddress": "0x8aafd3ede9adb0ff97c7aebce82a919afb1c8764",
      "function": "sell(uint256)",
      "arguments": [
        "7688476299"
      ],
      "transaction": {
        "from": "0xc77f7fed3b5cc8249adc428c5f44c9063b9734b4",
        "to": "0x8aafd3ede9adb0ff97c7aebce82a919afb1c8764",
        "gas": "0x1722a",
        "value": "0x0",
        "input": "0xe4849b3200000000000000000000000000000000000000000000000000000001ca44d68b",
        "nonce": "0x1459",
        "chainId": "0xaa36a7"
      },
      "additionalContracts": [],
      "isFixedGasLimit": false
    }
  ],
  "receipts": [
    {
      "status": "0x1",
      "cumulativeGasUsed": "0xe4cf9a",
      "logs": [
        {
          "address": "0x8aafd3ede9adb0ff97c7aebce82a919afb1c8764",
          "topics": [
            "0xddf252ad1be2c89b69c2b068fc378daa952ba7f163c4a11628f55a4df523b3ef",
            "0x000000000000000000000000c77f7fed3b5cc8249adc428c5f44c9063b9734b4",
            "0x0000000000000000000000000000000000000000000000000000000000000000"
          ],
          "data": "0x00000000000000000000000000000000000000000000000000000001c69a4da9",
          "blockHash": "0x49777b0bdb63157d2d63417f9833eb6278251fc3ac4b7d25c5a4c3efecb9adbb",
          "blockNumber": "0x731ba2",
          "transactionHash": "0x5a230b71a69618f8f3951475fc9047de7b3cb352364de0dc697365c11216f3cf",
          "transactionIndex": "0x94",
          "logIndex": "0x9e",
          "removed": false
        },
        {
          "address": "0x8aafd3ede9adb0ff97c7aebce82a919afb1c8764",
          "topics": [
            "0xddf252ad1be2c89b69c2b068fc378daa952ba7f163c4a11628f55a4df523b3ef",
            "0x000000000000000000000000c77f7fed3b5cc8249adc428c5f44c9063b9734b4",
            "0x000000000000000000000000c77f7fed3b5cc8249adc428c5f44c9063b9734b4"
          ],
          "data": "0x0000000000000000000000000000000000000000000000000000000003aa88e2",
          "blockHash": "0x49777b0bdb63157d2d63417f9833eb6278251fc3ac4b7d25c5a4c3efecb9adbb",
          "blockNumber": "0x731ba2",
          "transactionHash": "0x5a230b71a69618f8f3951475fc9047de7b3cb352364de0dc697365c11216f3cf",
          "transactionIndex": "0x94",
          "logIndex": "0x9f",
          "removed": false
        },
        {
          "address": "0x8aafd3ede9adb0ff97c7aebce82a919afb1c8764",
          "topics": [
            "0x4afcb4a87cdbd9974efdb92ee48bc8d7cd0ae4bf217004db3d080cbaee652ca7"
          ],
          "data": "0x0000000000000000000000000000000000000000000000000000000067904874000000000000000000000000000000000000000000000000000f237ab8afcc560000000000000000000000000000000000000000000000000000000001f3e720",
          "blockHash": "0x49777b0bdb63157d2d63417f9833eb6278251fc3ac4b7d25c5a4c3efecb9adbb",
          "blockNumber": "0x731ba2",
          "transactionHash": "0x5a230b71a69618f8f3951475fc9047de7b3cb352364de0dc697365c11216f3cf",
          "transactionIndex": "0x94",
          "logIndex": "0xa0",
          "removed": false
        }
      ],
      "logsBloom": "0x00000000000000000000000000000000000000000600000000000000000000000000000000000000000000000000000000000000000000004000000000000000000000000000004000000008000000000000000000000000000000000000000000000000020000000000000000000800020000000000000000000010000000000000000000000000000000000000000000000000000000000000010000000000000000000000000000000000000000004000000000000000000000000000000000000002000000800000000000000000000000000000080000000000000020000000000000000000000000000000000000000000000000000000000000000000",
      "type": "0x2",
      "transactionHash": "0x5a230b71a69618f8f3951475fc9047de7b3cb352364de0dc697365c11216f3cf",
      "transactionIndex": "0x94",
      "blockHash": "0x49777b0bdb63157d2d63417f9833eb6278251fc3ac4b7d25c5a4c3efecb9adbb",
      "blockNumber": "0x731ba2",
      "gasUsed": "0xfd1b",
      "effectiveGasPrice": "0x10c67013d",
      "from": "0xc77f7fed3b5cc8249adc428c5f44c9063b9734b4",
      "to": "0x8aafd3ede9adb0ff97c7aebce82a919afb1c8764",
      "contractAddress": null
    }
  ],
  "libraries": [],
  "pending": [],
  "returns": {},
  "timestamp": 1737508981,
  "chain": 11155111,
  "commit": "1d2fb70"
}