{
  "transactions": [
    {
      "hash": "0x01eb65584c145b0907f1c5e6a984986a9878f0b6777f915b6aa10db9ea1b4666",
      "transactionType": "CALL",
      "contractName": null,
      "contractAddress": "0x5eb9cc76c3506942c1c0ead70e877dd5e4f00cb0",
      "function": "buy(address)",
      "arguments": [
        "0xC77f7fed3b5Cc8249aDc428c5F44C9063B9734b4"
      ],
      "transaction": {
        "from": "0xc77f7fed3b5cc8249adc428c5f44c9063b9734b4",
        "to": "0x5eb9cc76c3506942c1c0ead70e877dd5e4f00cb0",
        "gas": "0x156c8",
        "value": "0xde0b6b3a7640000",
        "input": "0xf088d547000000000000000000000000c77f7fed3b5cc8249adc428c5f44c9063b9734b4",
        "nonce": "0x14a",
        "chainId": "0xaa36a7"
      },
      "additionalContracts": [],
      "isFixedGasLimit": false
    }
  ],
  "receipts": [
    {
      "status": "0x1",
      "cumulativeGasUsed": "0xc1e794",
      "logs": [
        {
          "address": "0x5eb9cc76c3506942c1c0ead70e877dd5e4f00cb0",
          "topics": [
            "0xddf252ad1be2c89b69c2b068fc378daa952ba7f163c4a11628f55a4df523b3ef",
            "0x0000000000000000000000000000000000000000000000000000000000000000",
            "0x000000000000000000000000c77f7fed3b5cc8249adc428c5f44c9063b9734b4"
          ],
          "data": "0x000000000000000000000000000000000000000000000035aaf492677526ddc3",
          "blockHash": "0xa8896ab2181f7025f7b4ac98847e466a13afe5bba504fc29378dc41cebe0aa30",
          "blockNumber": "0x723b3a",
          "transactionHash": "0x01eb65584c145b0907f1c5e6a984986a9878f0b6777f915b6aa10db9ea1b4666",
          "transactionIndex": "0x36",
          "logIndex": "0xea",
          "removed": false
        },
        {
          "address": "0x5eb9cc76c3506942c1c0ead70e877dd5e4f00cb0",
          "topics": [
            "0xddf252ad1be2c89b69c2b068fc378daa952ba7f163c4a11628f55a4df523b3ef",
            "0x0000000000000000000000000000000000000000000000000000000000000000",
            "0x000000000000000000000000c77f7fed3b5cc8249adc428c5f44c9063b9734b4"
          ],
          "data": "0x00000000000000000000000000000000000000000000000029acc478ecd355cd",
          "blockHash": "0xa8896ab2181f7025f7b4ac98847e466a13afe5bba504fc29378dc41cebe0aa30",
          "blockNumber": "0x723b3a",
          "transactionHash": "0x01eb65584c145b0907f1c5e6a984986a9878f0b6777f915b6aa10db9ea1b4666",
          "transactionIndex": "0x36",
          "logIndex": "0xeb",
          "removed": false
        },
        {
          "address": "0x5eb9cc76c3506942c1c0ead70e877dd5e4f00cb0",
          "topics": [
            "0x4afcb4a87cdbd9974efdb92ee48bc8d7cd0ae4bf217004db3d080cbaee652ca7"
          ],
          "data": "0x000000000000000000000000000000000000000000000000000000006785b80c00000000000000000000000000000000000000000000000000038d7f98786c7f0000000000000000000000000000000000000000000000000de0b6b3a7640000",
          "blockHash": "0xa8896ab2181f7025f7b4ac98847e466a13afe5bba504fc29378dc41cebe0aa30",
          "blockNumber": "0x723b3a",
          "transactionHash": "0x01eb65584c145b0907f1c5e6a984986a9878f0b6777f915b6aa10db9ea1b4666",
          "transactionIndex": "0x36",
          "logIndex": "0xec",
          "removed": false
        }
      ],
      "logsBloom": "0x00000000000000000000000000000000000000000000000000000000000000000000000000000000000000000000000000000000000000004000000000000000000000000000000000000008000000000000000000000000000000000000000000000000020000000000000004000800020000000000000000000010000000000000000000000000000000000000000000000000000000000000010000000000000000000000000000000000000000004000000000000000000000000000020000000002000000800000008000000000000000000000080000000000000020000000000000000000000000000000000000000000000000000000000000000000",
      "type": "0x2",
      "transactionHash": "0x01eb65584c145b0907f1c5e6a984986a9878f0b6777f915b6aa10db9ea1b4666",
      "transactionIndex": "0x36",
      "blockHash": "0xa8896ab2181f7025f7b4ac98847e466a13afe5bba504fc29378dc41cebe0aa30",
      "blockNumber": "0x723b3a",
      "gasUsed": "0xf82c",
      "effectiveGasPrice": "0x41db5eada",
      "from": "0xc77f7fed3b5cc8249adc428c5f44c9063b9734b4",
      "to": "0x5eb9cc76c3506942c1c0ead70e877dd5e4f00cb0",
      "contractAddress": null
    }
  ],
  "libraries": [],
  "pending": [],
  "returns": {},
  "timestamp": 1736816654,
  "chain": 11155111,
  "commit": "51a374b"
}