{
  "transactions": [
    {
      "hash": "0x34af5fa14cbfbc761adef0617c4addeeb46cfe93f319d8243d1f2a4fd9b121b5",
      "transactionType": "CALL",
      "contractName": null,
      "contractAddress": "0x270e88f8683660553e8ba4eb2ad7c91a1710d769",
      "function": "buy(address)",
      "arguments": [
        "0xC77f7fed3b5Cc8249aDc428c5F44C9063B9734b4"
      ],
      "transaction": {
        "from": "0xc77f7fed3b5cc8249adc428c5f44c9063b9734b4",
        "to": "0x270e88f8683660553e8ba4eb2ad7c91a1710d769",
        "gas": "0x1b30c",
        "value": "0xde0b6b3a7640000",
        "input": "0xf088d547000000000000000000000000c77f7fed3b5cc8249adc428c5f44c9063b9734b4",
        "nonce": "0x5ac",
        "chainId": "0xaa36a7"
      },
      "additionalContracts": [],
      "isFixedGasLimit": false
    }
  ],
  "receipts": [
    {
      "status": "0x1",
      "cumulativeGasUsed": "0xba0e23",
      "logs": [
        {
          "address": "0x270e88f8683660553e8ba4eb2ad7c91a1710d769",
          "topics": [
            "0xddf252ad1be2c89b69c2b068fc378daa952ba7f163c4a11628f55a4df523b3ef",
            "0x0000000000000000000000000000000000000000000000000000000000000000",
            "0x000000000000000000000000c77f7fed3b5cc8249adc428c5f44c9063b9734b4"
          ],
          "data": "0x000000000000000000000000000000000000000000000033ddbd602c7e5ced70",
          "blockHash": "0x03420f7c6f0b6fdb5f14b52390bd860ee9659524e3ddb2058e669a4e7beaa096",
          "blockNumber": "0x725266",
          "transactionHash": "0x34af5fa14cbfbc761adef0617c4addeeb46cfe93f319d8243d1f2a4fd9b121b5",
          "transactionIndex": "0x50",
          "logIndex": "0x63",
          "removed": false
        },
        {
          "address": "0x270e88f8683660553e8ba4eb2ad7c91a1710d769",
          "topics": [
            "0xddf252ad1be2c89b69c2b068fc378daa952ba7f163c4a11628f55a4df523b3ef",
            "0x0000000000000000000000000000000000000000000000000000000000000000",
            "0x000000000000000000000000c77f7fed3b5cc8249adc428c5f44c9063b9734b4"
          ],
          "data": "0x00000000000000000000000000000000000000000000000028469e293ea356a8",
          "blockHash": "0x03420f7c6f0b6fdb5f14b52390bd860ee9659524e3ddb2058e669a4e7beaa096",
          "blockNumber": "0x725266",
          "transactionHash": "0x34af5fa14cbfbc761adef0617c4addeeb46cfe93f319d8243d1f2a4fd9b121b5",
          "transactionIndex": "0x50",
          "logIndex": "0x64",
          "removed": false
        },
        {
          "address": "0x270e88f8683660553e8ba4eb2ad7c91a1710d769",
          "topics": [
            "0x4afcb4a87cdbd9974efdb92ee48bc8d7cd0ae4bf217004db3d080cbaee652ca7"
          ],
          "data": "0x000000000000000000000000000000000000000000000000000000006786ceb80000000000000000000000000000000000000000000000000003ad31ee5846e40000000000000000000000000000000000000000000000000de0b6b3a7640000",
          "blockHash": "0x03420f7c6f0b6fdb5f14b52390bd860ee9659524e3ddb2058e669a4e7beaa096",
          "blockNumber": "0x725266",
          "transactionHash": "0x34af5fa14cbfbc761adef0617c4addeeb46cfe93f319d8243d1f2a4fd9b121b5",
          "transactionIndex": "0x50",
          "logIndex": "0x65",
          "removed": false
        }
      ],
      "logsBloom": "0x00000000000000000000000000000000000000000000000000000000000000000000000000000000000000000000000020000000000000004000000000000000000000000000000000000008000000000000000000000000000000000000000000000000020000000000000000000800020000000000000000000010000000000000000000010000000000000000000000000000000000000000010000000000000000000000000000000000000000004000000000000000000000000000000000000002000000800000000000000000000000000000080000008000000020000000000000000000000000000000000000000000000000000000000000000000",
      "type": "0x2",
      "transactionHash": "0x34af5fa14cbfbc761adef0617c4addeeb46cfe93f319d8243d1f2a4fd9b121b5",
      "transactionIndex": "0x50",
      "blockHash": "0x03420f7c6f0b6fdb5f14b52390bd860ee9659524e3ddb2058e669a4e7beaa096",
      "blockNumber": "0x725266",
      "gasUsed": "0x13af8",
      "effectiveGasPrice": "0x487376ff0",
      "from": "0xc77f7fed3b5cc8249adc428c5f44c9063b9734b4",
      "to": "0x270e88f8683660553e8ba4eb2ad7c91a1710d769",
      "contractAddress": null
    }
  ],
  "libraries": [],
  "pending": [],
  "returns": {},
  "timestamp": 1736887994,
  "chain": 11155111,
  "commit": "51a374b"
}