{
  "transactions": [
    {
      "hash": "0x16ae0b5885a063ef4eec7bb49e0ca9591cd0f90ca1ccdf09f653dab9592bad41",
      "transactionType": "CALL",
      "contractName": null,
      "contractAddress": "0x8aafd3ede9adb0ff97c7aebce82a919afb1c8764",
      "function": "sell(uint256)",
      "arguments": [
        "24332959430"
      ],
      "transaction": {
        "from": "0xc77f7fed3b5cc8249adc428c5f44c9063b9734b4",
        "to": "0x8aafd3ede9adb0ff97c7aebce82a919afb1c8764",
        "gas": "0x1722a",
        "value": "0x0",
        "input": "0xe4849b3200000000000000000000000000000000000000000000000000000005aa5b7ec6",
        "nonce": "0xf4e",
        "chainId": "0xaa36a7"
      },
      "additionalContracts": [],
      "isFixedGasLimit": false
    }
  ],
  "receipts": [
    {
      "status": "0x1",
      "cumulativeGasUsed": "0xb8b22e",
      "logs": [
        {
          "address": "0x8aafd3ede9adb0ff97c7aebce82a919afb1c8764",
          "topics": [
            "0xddf252ad1be2c89b69c2b068fc378daa952ba7f163c4a11628f55a4df523b3ef",
            "0x000000000000000000000000c77f7fed3b5cc8249adc428c5f44c9063b9734b4",
            "0x0000000000000000000000000000000000000000000000000000000000000000"
          ],
          "data": "0x000000000000000000000000000000000000000000000000000000059ec129cb",
          "blockHash": "0x8100dd95b4529e674adf27cefc4b44ac64b7242fe9633277c3e87abece4a8b01",
          "blockNumber": "0x7315a9",
          "transactionHash": "0x16ae0b5885a063ef4eec7bb49e0ca9591cd0f90ca1ccdf09f653dab9592bad41",
          "transactionIndex": "0x82",
          "logIndex": "0xd0",
          "removed": false
        },
        {
          "address": "0x8aafd3ede9adb0ff97c7aebce82a919afb1c8764",
          "topics": [
            "0xddf252ad1be2c89b69c2b068fc378daa952ba7f163c4a11628f55a4df523b3ef",
            "0x000000000000000000000000c77f7fed3b5cc8249adc428c5f44c9063b9734b4",
            "0x000000000000000000000000c77f7fed3b5cc8249adc428c5f44c9063b9734b4"
          ],
          "data": "0x000000000000000000000000000000000000000000000000000000000b9a54fb",
          "blockHash": "0x8100dd95b4529e674adf27cefc4b44ac64b7242fe9633277c3e87abece4a8b01",
          "blockNumber": "0x7315a9",
          "transactionHash": "0x16ae0b5885a063ef4eec7bb49e0ca9591cd0f90ca1ccdf09f653dab9592bad41",
          "transactionIndex": "0x82",
          "logIndex": "0xd1",
          "removed": false
        },
        {
          "address": "0x8aafd3ede9adb0ff97c7aebce82a919afb1c8764",
          "topics": [
            "0x4afcb4a87cdbd9974efdb92ee48bc8d7cd0ae4bf217004db3d080cbaee652ca7"
          ],
          "data": "0x00000000000000000000000000000000000000000000000000000000679000980000000000000000000000000000000000000000000000000004c087ad0df3c80000000000000000000000000000000000000000000000000000000001f0a2a7",
          "blockHash": "0x8100dd95b4529e674adf27cefc4b44ac64b7242fe9633277c3e87abece4a8b01",
          "blockNumber": "0x7315a9",
          "transactionHash": "0x16ae0b5885a063ef4eec7bb49e0ca9591cd0f90ca1ccdf09f653dab9592bad41",
          "transactionIndex": "0x82",
          "logIndex": "0xd2",
          "removed": false
        }
      ],
      "logsBloom": "0x00000000000000000000000000000000000000000600000000000000000000000000000000000000000000000000000000000000000000004000000000000000000000000000004000000008000000000000000000000000000000000000000000000000020000000000000000000800020000000000000000000010000000000000000000000000000000000000000000000000000000000000010000000000000000000000000000000000000000004000000000000000000000000000000000000002000000800000000000000000000000000000080000000000000020000000000000000000000000000000000000000000000000000000000000000000",
      "type": "0x2",
      "transactionHash": "0x16ae0b5885a063ef4eec7bb49e0ca9591cd0f90ca1ccdf09f653dab9592bad41",
      "transactionIndex": "0x82",
      "blockHash": "0x8100dd95b4529e674adf27cefc4b44ac64b7242fe9633277c3e87abece4a8b01",
      "blockNumber": "0x7315a9",
      "gasUsed": "0xfd1b",
      "effectiveGasPrice": "0x7852c75e",
      "from": "0xc77f7fed3b5cc8249adc428c5f44c9063b9734b4",
      "to": "0x8aafd3ede9adb0ff97c7aebce82a919afb1c8764",
      "contractAddress": null
    }
  ],
  "libraries": [],
  "pending": [],
  "returns": {},
  "timestamp": 1737490586,
  "chain": 11155111,
  "commit": "1d2fb70"
}