{
  "transactions": [
    {
      "hash": "0x446a145b8f92bf33d6a76c851f04d60dd90a6f9a02a6181b5ad7179fb4674328",
      "transactionType": "CALL",
      "contractName": null,
      "contractAddress": "0x270e88f8683660553e8ba4eb2ad7c91a1710d769",
      "function": "sell(uint256)",
      "arguments": [
        "949626423249138224116"
      ],
      "transaction": {
        "from": "0xc77f7fed3b5cc8249adc428c5f44c9063b9734b4",
        "to": "0x270e88f8683660553e8ba4eb2ad7c91a1710d769",
        "gas": "0x16fec",
        "value": "0x0",
        "input": "0xe4849b320000000000000000000000000000000000000000000000337ab6c89bd1a20bf4",
        "nonce": "0x5f1",
        "chainId": "0xaa36a7"
      },
      "additionalContracts": [],
      "isFixedGasLimit": false
    }
  ],
  "receipts": [
    {
      "status": "0x1",
      "cumulativeGasUsed": "0x73707d",
      "logs": [
        {
          "address": "0x270e88f8683660553e8ba4eb2ad7c91a1710d769",
          "topics": [
            "0xddf252ad1be2c89b69c2b068fc378daa952ba7f163c4a11628f55a4df523b3ef",
            "0x000000000000000000000000c77f7fed3b5cc8249adc428c5f44c9063b9734b4",
            "0x0000000000000000000000000000000000000000000000000000000000000000"
          ],
          "data": "0x0000000000000000000000000000000000000000000000337ab6c89bd1a20bf4",
          "blockHash": "0xca3c64cf50d0cd727a26b97c7b873e5b186d4eaad28818f815be437f297f297a",
          "blockNumber": "0x7252b7",
          "transactionHash": "0x446a145b8f92bf33d6a76c851f04d60dd90a6f9a02a6181b5ad7179fb4674328",
          "transactionIndex": "0x4c",
          "logIndex": "0x89",
          "removed": false
        },
        {
          "address": "0x270e88f8683660553e8ba4eb2ad7c91a1710d769",
          "topics": [
            "0x4afcb4a87cdbd9974efdb92ee48bc8d7cd0ae4bf217004db3d080cbaee652ca7"
          ],
          "data": "0x000000000000000000000000000000000000000000000000000000006786d29c0000000000000000000000000000000000000000000000000003b754abd01dc30000000000000000000000000000000000000000000000000dc83e1eca86d0f0",
          "blockHash": "0xca3c64cf50d0cd727a26b97c7b873e5b186d4eaad28818f815be437f297f297a",
          "blockNumber": "0x7252b7",
          "transactionHash": "0x446a145b8f92bf33d6a76c851f04d60dd90a6f9a02a6181b5ad7179fb4674328",
          "transactionIndex": "0x4c",
          "logIndex": "0x8a",
          "removed": false
        }
      ],
      "logsBloom": "0x00000000000000000000000000000000000000000000000000000000000000000000000000000000000000000000000020000000000000004000000000000000000000000000000000000008000000000000000000000000000000000000000000000000020000000000000000000800020000000000000000000010000000000000000000010000000000000000000000000000000000000000010000000000000000000000000000000000000000004000000000000000000000000000000000000002000000800000000000000000000000000000080000008000000020000000000000000000000000000000000000000000000000000000000000000000",
      "type": "0x2",
      "transactionHash": "0x446a145b8f92bf33d6a76c851f04d60dd90a6f9a02a6181b5ad7179fb4674328",
      "transactionIndex": "0x4c",
      "blockHash": "0xca3c64cf50d0cd727a26b97c7b873e5b186d4eaad28818f815be437f297f297a",
      "blockNumber": "0x7252b7",
      "gasUsed": "0xfb93",
      "effectiveGasPrice": "0x2dea39f43",
      "from": "0xc77f7fed3b5cc8249adc428c5f44c9063b9734b4",
      "to": "0x270e88f8683660553e8ba4eb2ad7c91a1710d769",
      "contractAddress": null
    }
  ],
  "libraries": [],
  "pending": [],
  "returns": {},
  "timestamp": 1736888990,
  "chain": 11155111,
  "commit": "51a374b"
}