{
  "transactions": [
    {
      "hash": "0x725f0376dfe0b2391a8b5e1a7d0fa979be8f18ec063266c72ed94eeb2a13a146",
      "transactionType": "CALL",
      "contractName": null,
      "contractAddress": "0xbf4a322f1496e5c3d34a9bcdb4c60567b38c7de2",
      "function": "buy(address)",
      "arguments": [
        "0xC77f7fed3b5Cc8249aDc428c5F44C9063B9734b4"
      ],
      "transaction": {
        "from": "0xc77f7fed3b5cc8249adc428c5f44c9063b9734b4",
        "to": "0xbf4a322f1496e5c3d34a9bcdb4c60567b38c7de2",
        "gas": "0x1b309",
        "value": "0xde0b6b3a7640000",
        "input": "0xf088d547000000000000000000000000c77f7fed3b5cc8249adc428c5f44c9063b9734b4",
        "nonce": "0xd18",
        "chainId": "0xaa36a7"
      },
      "additionalContracts": [],
      "isFixedGasLimit": false
    }
  ],
  "receipts": [
    {
      "status": "0x1",
      "cumulativeGasUsed": "0x19cb482",
      "logs": [
        {
          "address": "0xbf4a322f1496e5c3d34a9bcdb4c60567b38c7de2",
          "topics": [
            "0xddf252ad1be2c89b69c2b068fc378daa952ba7f163c4a11628f55a4df523b3ef",
            "0x0000000000000000000000000000000000000000000000000000000000000000",
            "0x000000000000000000000000c77f7fed3b5cc8249adc428c5f44c9063b9734b4"
          ],
          "data": "0x000000000000000000000000000000000000000000000034c784a296deaea852",
          "blockHash": "0xac53e268ec4f9245fb7f124b6800b1f0c344a70e9ab93a2d007d0c2abb6956e0",
          "blockNumber": "0x725d74",
          "transactionHash": "0x725f0376dfe0b2391a8b5e1a7d0fa979be8f18ec063266c72ed94eeb2a13a146",
          "transactionIndex": "0xc4",
          "logIndex": "0x185",
          "removed": false
        },
        {
          "address": "0xbf4a322f1496e5c3d34a9bcdb4c60567b38c7de2",
          "topics": [
            "0xddf252ad1be2c89b69c2b068fc378daa952ba7f163c4a11628f55a4df523b3ef",
            "0x0000000000000000000000000000000000000000000000000000000000000000",
            "0x000000000000000000000000c77f7fed3b5cc8249adc428c5f44c9063b9734b4"
          ],
          "data": "0x00000000000000000000000000000000000000000000000028fc279975499ffc",
          "blockHash": "0xac53e268ec4f9245fb7f124b6800b1f0c344a70e9ab93a2d007d0c2abb6956e0",
          "blockNumber": "0x725d74",
          "transactionHash": "0x725f0376dfe0b2391a8b5e1a7d0fa979be8f18ec063266c72ed94eeb2a13a146",
          "transactionIndex": "0xc4",
          "logIndex": "0x186",
          "removed": false
        },
        {
          "address": "0xbf4a322f1496e5c3d34a9bcdb4c60567b38c7de2",
          "topics": [
            "0x4afcb4a87cdbd9974efdb92ee48bc8d7cd0ae4bf217004db3d080cbaee652ca7"
          ],
          "data": "0x00000000000000000000000000000000000000000000000000000000678753e400000000000000000000000000000000000000000000000000039cd11d2368940000000000000000000000000000000000000000000000000de0b6b3a7640000",
          "blockHash": "0xac53e268ec4f9245fb7f124b6800b1f0c344a70e9ab93a2d007d0c2abb6956e0",
          "blockNumber": "0x725d74",
          "transactionHash": "0x725f0376dfe0b2391a8b5e1a7d0fa979be8f18ec063266c72ed94eeb2a13a146",
          "transactionIndex": "0xc4",
          "logIndex": "0x187",
          "removed": false
        }
      ],
      "logsBloom": "0x00000000000000000000000000000000000000000000000000000000000000000000000000000000000000000000000000000000000000004000000000000000000000000000000000000008000000000000001000000000000000000000000000000000020000000000000000000800020000000000000000000010000000000000000000000000000000000000000000000000000008000000010000000000000000000000000000000000000000004000000000000000000000000000000000000002000000800000000000001000000000000000080000000000000020000000000000000000000000000000000000000000000000000000000000000000",
      "type": "0x2",
      "transactionHash": "0x725f0376dfe0b2391a8b5e1a7d0fa979be8f18ec063266c72ed94eeb2a13a146",
      "transactionIndex": "0xc4",
      "blockHash": "0xac53e268ec4f9245fb7f124b6800b1f0c344a70e9ab93a2d007d0c2abb6956e0",
      "blockNumber": "0x725d74",
      "gasUsed": "0x13af6",
      "effectiveGasPrice": "0x22f9967a8",
      "from": "0xc77f7fed3b5cc8249adc428c5f44c9063b9734b4",
      "to": "0xbf4a322f1496e5c3d34a9bcdb4c60567b38c7de2",
      "contractAddress": null
    }
  ],
  "libraries": [],
  "pending": [],
  "returns": {},
  "timestamp": 1736922085,
  "chain": 11155111,
  "commit": "51a374b"
}