{
  "transactions": [
    {
      "hash": "0xb9e3fd741361ffefc5d75d037b566d91ff050a5c9b7f4496cb71f0dce3548514",
      "transactionType": "CALL",
      "contractName": null,
      "contractAddress": "0x8aafd3ede9adb0ff97c7aebce82a919afb1c8764",
      "function": "buy(address)",
      "arguments": [
        "0xC77f7fed3b5Cc8249aDc428c5F44C9063B9734b4"
      ],
      "transaction": {
        "from": "0xc77f7fed3b5cc8249adc428c5f44c9063b9734b4",
        "to": "0x8aafd3ede9adb0ff97c7aebce82a919afb1c8764",
        "gas": "0x156ea",
        "value": "0xde0b6b3a7640000",
        "input": "0xf088d547000000000000000000000000c77f7fed3b5cc8249adc428c5f44c9063b9734b4",
        "nonce": "0x13f9",
        "chainId": "0xaa36a7"
      },
      "additionalContracts": [],
      "isFixedGasLimit": false
    }
  ],
  "receipts": [
    {
      "status": "0x1",
      "cumulativeGasUsed": "0x13c8a2e",
      "logs": [
        {
          "address": "0x8aafd3ede9adb0ff97c7aebce82a919afb1c8764",
          "topics": [
            "0xddf252ad1be2c89b69c2b068fc378daa952ba7f163c4a11628f55a4df523b3ef",
            "0x0000000000000000000000000000000000000000000000000000000000000000",
            "0x000000000000000000000000c77f7fed3b5cc8249adc428c5f44c9063b9734b4"
          ],
          "data": "0x00000000000000000000000000000000000000000000000d9c880e827e10ecd3",
          "blockHash": "0x74854bd3213aa6a930277a37decc44c3a9fcfacf41e412b9441164e77627844f",
          "blockNumber": "0x731b2e",
          "transactionHash": "0xb9e3fd741361ffefc5d75d037b566d91ff050a5c9b7f4496cb71f0dce3548514",
          "transactionIndex": "0xbb",
          "logIndex": "0xff",
          "removed": false
        },
        {
          "address": "0x8aafd3ede9adb0ff97c7aebce82a919afb1c8764",
          "topics": [
            "0xddf252ad1be2c89b69c2b068fc378daa952ba7f163c4a11628f55a4df523b3ef",
            "0x0000000000000000000000000000000000000000000000000000000000000000",
            "0x000000000000000000000000c77f7fed3b5cc8249adc428c5f44c9063b9734b4"
          ],
          "data": "0x0000000000000000000000000000000000000000000000000a91db88087556cc",
          "blockHash": "0x74854bd3213aa6a930277a37decc44c3a9fcfacf41e412b9441164e77627844f",
          "blockNumber": "0x731b2e",
          "transactionHash": "0xb9e3fd741361ffefc5d75d037b566d91ff050a5c9b7f4496cb71f0dce3548514",
          "transactionIndex": "0xbb",
          "logIndex": "0x100",
          "removed": false
        },
        {
          "address": "0x8aafd3ede9adb0ff97c7aebce82a919afb1c8764",
          "topics": [
            "0x4afcb4a87cdbd9974efdb92ee48bc8d7cd0ae4bf217004db3d080cbaee652ca7"
          ],
          "data": "0x00000000000000000000000000000000000000000000000000000000679042f8000000000000000000000000000000000000000000000000000e0839cc42dd640000000000000000000000000000000000000000000000000de0b6b3a7640000",
          "blockHash": "0x74854bd3213aa6a930277a37decc44c3a9fcfacf41e412b9441164e77627844f",
          "blockNumber": "0x731b2e",
          "transactionHash": "0xb9e3fd741361ffefc5d75d037b566d91ff050a5c9b7f4496cb71f0dce3548514",
          "transactionIndex": "0xbb",
          "logIndex": "0x101",
          "removed": false
        }
      ],
      "logsBloom": "0x00000000000000000000000000000000000000000600000000000000000000000000000000000000000000000000000000000000000000004000000000000000000000000000004000000008000000000000000000000000000000000000000000000000020000000000000000000800020000000000000000000010000000000000000000000000000000000000000000000000000000000000010000000000000000000000000000000000000000004000000000000000000000000000000000000002000000800000000000000000000000000000080000000000000020000000000000000000000000000000000000000000000000000000000000000000",
      "type": "0x2",
      "transactionHash": "0xb9e3fd741361ffefc5d75d037b566d91ff050a5c9b7f4496cb71f0dce3548514",
      "transactionIndex": "0xbb",
      "blockHash": "0x74854bd3213aa6a930277a37decc44c3a9fcfacf41e412b9441164e77627844f",
      "blockNumber": "0x731b2e",
      "gasUsed": "0xf844",
      "effectiveGasPrice": "0xa190a677",
      "from": "0xc77f7fed3b5cc8249adc428c5f44c9063b9734b4",
      "to": "0x8aafd3ede9adb0ff97c7aebce82a919afb1c8764",
      "contractAddress": null
    }
  ],
  "libraries": [],
  "pending": [],
  "returns": {},
  "timestamp": 1737507577,
  "chain": 11155111,
  "commit": "1d2fb70"
}