{
  "transactions": [
    {
      "hash": "0xcc83090ca12d6460bb5ec779d892af4f638d3cb5f14b6465e8abcc6c6b484468",
      "transactionType": "CALL",
      "contractName": null,
      "contractAddress": "0xbf4a322f1496e5c3d34a9bcdb4c60567b38c7de2",
      "function": "buy(address)",
      "arguments": [
        "0xC77f7fed3b5Cc8249aDc428c5F44C9063B9734b4"
      ],
      "transaction": {
        "from": "0xc77f7fed3b5cc8249adc428c5f44c9063b9734b4",
        "to": "0xbf4a322f1496e5c3d34a9bcdb4c60567b38c7de2",
        "gas": "0x1b309",
        "value": "0xde0b6b3a7640000",
        "input": "0xf088d547000000000000000000000000c77f7fed3b5cc8249adc428c5f44c9063b9734b4",
        "nonce": "0xde4",
        "chainId": "0xaa36a7"
      },
      "additionalContracts": [],
      "isFixedGasLimit": false
    }
  ],
  "receipts": [
    {
      "status": "0x1",
      "cumulativeGasUsed": "0xdd8f37",
      "logs": [
        {
          "address": "0xbf4a322f1496e5c3d34a9bcdb4c60567b38c7de2",
          "topics": [
            "0xddf252ad1be2c89b69c2b068fc378daa952ba7f163c4a11628f55a4df523b3ef",
            "0x0000000000000000000000000000000000000000000000000000000000000000",
            "0x000000000000000000000000c77f7fed3b5cc8249adc428c5f44c9063b9734b4"
          ],
          "data": "0x000000000000000000000000000000000000000000000034a1fdd375cd6f3e55",
          "blockHash": "0xbefc051f126fbe077499fd1d914cfa27e7a98b05f3be3c6c527d4be12fc048ee",
          "blockNumber": "0x7266c3",
          "transactionHash": "0xcc83090ca12d6460bb5ec779d892af4f638d3cb5f14b6465e8abcc6c6b484468",
          "transactionIndex": "0x59",
          "logIndex": "0x92",
          "removed": false
        },
        {
          "address": "0xbf4a322f1496e5c3d34a9bcdb4c60567b38c7de2",
          "topics": [
            "0xddf252ad1be2c89b69c2b068fc378daa952ba7f163c4a11628f55a4df523b3ef",
            "0x0000000000000000000000000000000000000000000000000000000000000000",
            "0x000000000000000000000000c77f7fed3b5cc8249adc428c5f44c9063b9734b4"
          ],
          "data": "0x00000000000000000000000000000000000000000000000028df0395a1678fe6",
          "blockHash": "0xbefc051f126fbe077499fd1d914cfa27e7a98b05f3be3c6c527d4be12fc048ee",
          "blockNumber": "0x7266c3",
          "transactionHash": "0xcc83090ca12d6460bb5ec779d892af4f638d3cb5f14b6465e8abcc6c6b484468",
          "transactionIndex": "0x59",
          "logIndex": "0x93",
          "removed": false
        },
        {
          "address": "0xbf4a322f1496e5c3d34a9bcdb4c60567b38c7de2",
          "topics": [
            "0x4afcb4a87cdbd9974efdb92ee48bc8d7cd0ae4bf217004db3d080cbaee652ca7"
          ],
          "data": "0x000000000000000000000000000000000000000000000000000000006787c42800000000000000000000000000000000000000000000000000039f647dded6920000000000000000000000000000000000000000000000000de0b6b3a7640000",
          "blockHash": "0xbefc051f126fbe077499fd1d914cfa27e7a98b05f3be3c6c527d4be12fc048ee",
          "blockNumber": "0x7266c3",
          "transactionHash": "0xcc83090ca12d6460bb5ec779d892af4f638d3cb5f14b6465e8abcc6c6b484468",
          "transactionIndex": "0x59",
          "logIndex": "0x94",
          "removed": false
        }
      ],
      "logsBloom": "0x00000000000000000000000000000000000000000000000000000000000000000000000000000000000000000000000000000000000000004000000000000000000000000000000000000008000000000000001000000000000000000000000000000000020000000000000000000800020000000000000000000010000000000000000000000000000000000000000000000000000008000000010000000000000000000000000000000000000000004000000000000000000000000000000000000002000000800000000000001000000000000000080000000000000020000000000000000000000000000000000000000000000000000000000000000000",
      "type": "0x2",
      "transactionHash": "0xcc83090ca12d6460bb5ec779d892af4f638d3cb5f14b6465e8abcc6c6b484468",
      "transactionIndex": "0x59",
      "blockHash": "0xbefc051f126fbe077499fd1d914cfa27e7a98b05f3be3c6c527d4be12fc048ee",
      "blockNumber": "0x7266c3",
      "gasUsed": "0x13af6",
      "effectiveGasPrice": "0x2509c55a6",
      "from": "0xc77f7fed3b5cc8249adc428c5f44c9063b9734b4",
      "to": "0xbf4a322f1496e5c3d34a9bcdb4c60567b38c7de2",
      "contractAddress": null
    }
  ],
  "libraries": [],
  "pending": [],
  "returns": {},
  "timestamp": 1736950825,
  "chain": 11155111,
  "commit": "51a374b"
}