{
  "transactions": [
    {
      "hash": "0xc91942f44669f5c12237739fd8a7fa4509f330803f4956e5b672c04ca347cdf2",
      "transactionType": "CALL",
      "contractName": null,
      "contractAddress": "0x8aafd3ede9adb0ff97c7aebce82a919afb1c8764",
      "function": "sell(uint256)",
      "arguments": [
        "11805"
      ],
      "transaction": {
        "from": "0xc77f7fed3b5cc8249adc428c5f44c9063b9734b4",
        "to": "0x8aafd3ede9adb0ff97c7aebce82a919afb1c8764",
        "gas": "0x14e4c",
        "value": "0x0",
        "input": "0xe4849b320000000000000000000000000000000000000000000000000000000000002e1d",
        "nonce": "0x10d5",
        "chainId": "0xaa36a7"
      },
      "additionalContracts": [],
      "isFixedGasLimit": false
    }
  ],
  "receipts": [
    {
      "status": "0x1",
      "cumulativeGasUsed": "0xb11dbc",
      "logs": [
        {
          "address": "0x8aafd3ede9adb0ff97c7aebce82a919afb1c8764",
          "topics": [
            "0xddf252ad1be2c89b69c2b068fc378daa952ba7f163c4a11628f55a4df523b3ef",
            "0x000000000000000000000000c77f7fed3b5cc8249adc428c5f44c9063b9734b4",
            "0x0000000000000000000000000000000000000000000000000000000000000000"
          ],
          "data": "0x0000000000000000000000000000000000000000000000000000000000002dbf",
          "blockHash": "0xc6f1adcdec35f850877c4a99c93a372d3fdadcb19b5ed99eec27543c6f2e5b53",
          "blockNumber": "0x731775",
          "transactionHash": "0xc91942f44669f5c12237739fd8a7fa4509f330803f4956e5b672c04ca347cdf2",
          "transactionIndex": "0x78",
          "logIndex": "0xc3",
          "removed": false
        },
        {
          "address": "0x8aafd3ede9adb0ff97c7aebce82a919afb1c8764",
          "topics": [
            "0xddf252ad1be2c89b69c2b068fc378daa952ba7f163c4a11628f55a4df523b3ef",
            "0x000000000000000000000000c77f7fed3b5cc8249adc428c5f44c9063b9734b4",
            "0x000000000000000000000000c77f7fed3b5cc8249adc428c5f44c9063b9734b4"
          ],
          "data": "0x000000000000000000000000000000000000000000000000000000000000005e",
          "blockHash": "0xc6f1adcdec35f850877c4a99c93a372d3fdadcb19b5ed99eec27543c6f2e5b53",
          "blockNumber": "0x731775",
          "transactionHash": "0xc91942f44669f5c12237739fd8a7fa4509f330803f4956e5b672c04ca347cdf2",
          "transactionIndex": "0x78",
          "logIndex": "0xc4",
          "removed": false
        },
        {
          "address": "0x8aafd3ede9adb0ff97c7aebce82a919afb1c8764",
          "topics": [
            "0x4afcb4a87cdbd9974efdb92ee48bc8d7cd0ae4bf217004db3d080cbaee652ca7"
          ],
          "data": "0x0000000000000000000000000000000000000000000000000000000067901640000000000000000000000000000000000000000000000000000504e586c6ffdd0000000000000000000000000000000000000000000000000000000000000010",
          "blockHash": "0xc6f1adcdec35f850877c4a99c93a372d3fdadcb19b5ed99eec27543c6f2e5b53",
          "blockNumber": "0x731775",
          "transactionHash": "0xc91942f44669f5c12237739fd8a7fa4509f330803f4956e5b672c04ca347cdf2",
          "transactionIndex": "0x78",
          "logIndex": "0xc5",
          "removed": false
        }
      ],
      "logsBloom": "0x00000000000000000000000000000000000000000600000000000000000000000000000000000000000000000000000000000000000000004000000000000000000000000000004000000008000000000000000000000000000000000000000000000000020000000000000000000800020000000000000000000010000000000000000000000000000000000000000000000000000000000000010000000000000000000000000000000000000000004000000000000000000000000000000000000002000000800000000000000000000000000000080000000000000020000000000000000000000000000000000000000000000000000000000000000000",
      "type": "0x2",
      "transactionHash": "0xc91942f44669f5c12237739fd8a7fa4509f330803f4956e5b672c04ca347cdf2",
      "transactionIndex": "0x78",
      "blockHash": "0xc6f1adcdec35f850877c4a99c93a372d3fdadcb19b5ed99eec27543c6f2e5b53",
      "blockNumber": "0x731775",
      "gasUsed": "0xf207",
      "effectiveGasPrice": "0x43734779",
      "from": "0xc77f7fed3b5cc8249adc428c5f44c9063b9734b4",
      "to": "0x8aafd3ede9adb0ff97c7aebce82a919afb1c8764",
      "contractAddress": null
    }
  ],
  "libraries": [],
  "pending": [],
  "returns": {},
  "timestamp": 1737496129,
  "chain": 11155111,
  "commit": "1d2fb70"
}