{
  "transactions": [
    {
      "hash": "0x06d3100d2de845ecda2bb424639ac59ea62263501fe32bdb08b3e9318a785622",
      "transactionType": "CALL",
      "contractName": null,
      "contractAddress": "0xfcd1e9490bdaa8b6c0f830eb671d3136559af099",
      "function": "buy(address)",
      "arguments": [
        "0xC77f7fed3b5Cc8249aDc428c5F44C9063B9734b4"
      ],
      "transaction": {
        "from": "0xc77f7fed3b5cc8249adc428c5f44c9063b9734b4",
        "to": "0xfcd1e9490bdaa8b6c0f830eb671d3136559af099",
        "gas": "0x16acb",
        "value": "0x2386f26fc10000",
        "input": "0xf088d547000000000000000000000000c77f7fed3b5cc8249adc428c5f44c9063b9734b4",
        "nonce": "0x18a9",
        "chainId": "0xaa36a7"
      },
      "additionalContracts": [],
      "isFixedGasLimit": false
    }
  ],
  "receipts": [
    {
      "status": "0x1",
      "cumulativeGasUsed": "0xfe744e",
      "logs": [
        {
          "address": "0xfcd1e9490bdaa8b6c0f830eb671d3136559af099",
          "topics": [
            "0xddf252ad1be2c89b69c2b068fc378daa952ba7f163c4a11628f55a4df523b3ef",
            "0x0000000000000000000000000000000000000000000000000000000000000000",
            "0x000000000000000000000000c77f7fed3b5cc8249adc428c5f44c9063b9734b4"
          ],
          "data": "0x000000000000000000000000000000000000000000000000894b3ebfd013095a",
          "blockHash": "0xe0b7775c8e75f137d0f52022b6b115456cd03650340404bbeb09dc8cf9250c0c",
          "blockNumber": "0x738329",
          "transactionHash": "0x06d3100d2de845ecda2bb424639ac59ea62263501fe32bdb08b3e9318a785622",
          "transactionIndex": "0x4a",
          "logIndex": "0x123",
          "removed": false
        },
        {
          "address": "0xfcd1e9490bdaa8b6c0f830eb671d3136559af099",
          "topics": [
            "0xddf252ad1be2c89b69c2b068fc378daa952ba7f163c4a11628f55a4df523b3ef",
            "0x0000000000000000000000000000000000000000000000000000000000000000",
            "0x000000000000000000000000c77f7fed3b5cc8249adc428c5f44c9063b9734b4"
          ],
          "data": "0x000000000000000000000000000000000000000000000000006a9d08e20b2191",
          "blockHash": "0xe0b7775c8e75f137d0f52022b6b115456cd03650340404bbeb09dc8cf9250c0c",
          "blockNumber": "0x738329",
          "transactionHash": "0x06d3100d2de845ecda2bb424639ac59ea62263501fe32bdb08b3e9318a785622",
          "transactionIndex": "0x4a",
          "logIndex": "0x124",
          "removed": false
        },
        {
          "address": "0xfcd1e9490bdaa8b6c0f830eb671d3136559af099",
          "topics": [
            "0x4afcb4a87cdbd9974efdb92ee48bc8d7cd0ae4bf217004db3d080cbaee652ca7"
          ],
          "data": "0x0000000000000000000000000000000000000000000000000000000067954e9000000000000000000000000000000000000000000000000000039153bab07628000000000000000000000000000000000000000000000000002386f26fc10000",
          "blockHash": "0xe0b7775c8e75f137d0f52022b6b115456cd03650340404bbeb09dc8cf9250c0c",
          "blockNumber": "0x738329",
          "transactionHash": "0x06d3100d2de845ecda2bb424639ac59ea62263501fe32bdb08b3e9318a785622",
          "transactionIndex": "0x4a",
          "logIndex": "0x125",
          "removed": false
        }
      ],
      "logsBloom": "0x00000000000000000000000000000000000000000000000000000000000000000000000000000000000000000000000000000000000000004000000000000000000000000000000000000008000000000000000000000000000000000000000000000080020000000000000000000800020000000000000000000010000000000000000000000000000000000000000000000000000000000000010000000000000000000000000000000000000000004000000000000000000000000000000000000002200000800000000000000000000000000000080000000000000020000000000000000000000000000000000002000000000000000000000000000000",
      "type": "0x2",
      "transactionHash": "0x06d3100d2de845ecda2bb424639ac59ea62263501fe32bdb08b3e9318a785622",
      "transactionIndex": "0x4a",
      "blockHash": "0xe0b7775c8e75f137d0f52022b6b115456cd03650340404bbeb09dc8cf9250c0c",
      "blockNumber": "0x738329",
      "gasUsed": "0xf811",
      "effectiveGasPrice": "0x72f2e1bc",
      "from": "0xc77f7fed3b5cc8249adc428c5f44c9063b9734b4",
      "to": "0xfcd1e9490bdaa8b6c0f830eb671d3136559af099",
      "contractAddress": null
    }
  ],
  "libraries": [],
  "pending": [],
  "returns": {},
  "timestamp": 1737838225,
  "chain": 11155111,
  "commit": "f5162e9"
}