{
  "transactions": [
    {
      "hash": "0x51be6a039b9e2cc53dce7472dc0e53be7369623915026e63f657d3ab13401ce0",
      "transactionType": "CALL",
      "contractName": null,
      "contractAddress": "0xbf4a322f1496e5c3d34a9bcdb4c60567b38c7de2",
      "function": "sell(uint256)",
      "arguments": [
        "974910328330775656749"
      ],
      "transaction": {
        "from": "0xc77f7fed3b5cc8249adc428c5f44c9063b9734b4",
        "to": "0xbf4a322f1496e5c3d34a9bcdb4c60567b38c7de2",
        "gas": "0x16fea",
        "value": "0x0",
        "input": "0xe4849b32000000000000000000000000000000000000000000000034d99942520f53792d",
        "nonce": "0xd95",
        "chainId": "0xaa36a7"
      },
      "additionalContracts": [],
      "isFixedGasLimit": false
    }
  ],
  "receipts": [
    {
      "status": "0x1",
      "cumulativeGasUsed": "0xd1e5f6",
      "logs": [
        {
          "address": "0xbf4a322f1496e5c3d34a9bcdb4c60567b38c7de2",
          "topics": [
            "0xddf252ad1be2c89b69c2b068fc378daa952ba7f163c4a11628f55a4df523b3ef",
            "0x000000000000000000000000c77f7fed3b5cc8249adc428c5f44c9063b9734b4",
            "0x0000000000000000000000000000000000000000000000000000000000000000"
          ],
          "data": "0x000000000000000000000000000000000000000000000034d99942520f53792d",
          "blockHash": "0xe8b2e1d1da00da5962761fb6b159cbb68cbb821b51c3d5ab3d6b5ac23662b076",
          "blockNumber": "0x72666a",
          "transactionHash": "0x51be6a039b9e2cc53dce7472dc0e53be7369623915026e63f657d3ab13401ce0",
          "transactionIndex": "0x83",
          "logIndex": "0xcb",
          "removed": false
        },
        {
          "address": "0xbf4a322f1496e5c3d34a9bcdb4c60567b38c7de2",
          "topics": [
            "0x4afcb4a87cdbd9974efdb92ee48bc8d7cd0ae4bf217004db3d080cbaee652ca7"
          ],
          "data": "0x000000000000000000000000000000000000000000000000000000006787bfc000000000000000000000000000000000000000000000000000039e660c56daad0000000000000000000000000000000000000000000000000dc7e3d63b8ab9cb",
          "blockHash": "0xe8b2e1d1da00da5962761fb6b159cbb68cbb821b51c3d5ab3d6b5ac23662b076",
          "blockNumber": "0x72666a",
          "transactionHash": "0x51be6a039b9e2cc53dce7472dc0e53be7369623915026e63f657d3ab13401ce0",
          "transactionIndex": "0x83",
          "logIndex": "0xcc",
          "removed": false
        }
      ],
      "logsBloom": "0x00000000000000000000000000000000000000000000000000000000000000000000000000000000000000000000000000000000000000004000000000000000000000000000000000000008000000000000001000000000000000000000000000000000020000000000000000000800020000000000000000000010000000000000000000000000000000000000000000000000000008000000010000000000000000000000000000000000000000004000000000000000000000000000000000000002000000800000000000001000000000000000080000000000000020000000000000000000000000000000000000000000000000000000000000000000",
      "type": "0x2",
      "transactionHash": "0x51be6a039b9e2cc53dce7472dc0e53be7369623915026e63f657d3ab13401ce0",
      "transactionIndex": "0x83",
      "blockHash": "0xe8b2e1d1da00da5962761fb6b159cbb68cbb821b51c3d5ab3d6b5ac23662b076",
      "blockNumber": "0x72666a",
      "gasUsed": "0xfb91",
      "effectiveGasPrice": "0x91c315dd",
      "from": "0xc77f7fed3b5cc8249adc428c5f44c9063b9734b4",
      "to": "0xbf4a322f1496e5c3d34a9bcdb4c60567b38c7de2",
      "contractAddress": null
    }
  ],
  "libraries": [],
  "pending": [],
  "returns": {},
  "timestamp": 1736949697,
  "chain": 11155111,
  "commit": "51a374b"
}