{
  "transactions": [
    {
      "hash": "0x5b1905a17a135dfdf12e2db2492d82b5af3a55598a894afabfef692df173d490",
      "transactionType": "CALL",
      "contractName": null,
      "contractAddress": "0x270e88f8683660553e8ba4eb2ad7c91a1710d769",
      "function": "buy(address)",
      "arguments": [
        "0xC77f7fed3b5Cc8249aDc428c5F44C9063B9734b4"
      ],
      "transaction": {
        "from": "0xc77f7fed3b5cc8249adc428c5f44c9063b9734b4",
        "to": "0x270e88f8683660553e8ba4eb2ad7c91a1710d769",
        "gas": "0x1b30c",
        "value": "0xde0b6b3a7640000",
        "input": "0xf088d547000000000000000000000000c77f7fed3b5cc8249adc428c5f44c9063b9734b4",
        "nonce": "0x897",
        "chainId": "0xaa36a7"
      },
      "additionalContracts": [],
      "isFixedGasLimit": false
    }
  ],
  "receipts": [
    {
      "status": "0x1",
      "cumulativeGasUsed": "0xcde244",
      "logs": [
        {
          "address": "0x270e88f8683660553e8ba4eb2ad7c91a1710d769",
          "topics": [
            "0xddf252ad1be2c89b69c2b068fc378daa952ba7f163c4a11628f55a4df523b3ef",
            "0x0000000000000000000000000000000000000000000000000000000000000000",
            "0x000000000000000000000000c77f7fed3b5cc8249adc428c5f44c9063b9734b4"
          ],
          "data": "0x0000000000000000000000000000000000000000000000266320985d07a295d1",
          "blockHash": "0x5a54438ca5f90bd60fe34824628bafe331d186d45a6f29956acaa8d11d3a107f",
          "blockNumber": "0x7255f5",
          "transactionHash": "0x5b1905a17a135dfdf12e2db2492d82b5af3a55598a894afabfef692df173d490",
          "transactionIndex": "0x36",
          "logIndex": "0x66",
          "removed": false
        },
        {
          "address": "0x270e88f8683660553e8ba4eb2ad7c91a1710d769",
          "topics": [
            "0xddf252ad1be2c89b69c2b068fc378daa952ba7f163c4a11628f55a4df523b3ef",
            "0x0000000000000000000000000000000000000000000000000000000000000000",
            "0x000000000000000000000000c77f7fed3b5cc8249adc428c5f44c9063b9734b4"
          ],
          "data": "0x0000000000000000000000000000000000000000000000001dcf197d67b6b8f1",
          "blockHash": "0x5a54438ca5f90bd60fe34824628bafe331d186d45a6f29956acaa8d11d3a107f",
          "blockNumber": "0x7255f5",
          "transactionHash": "0x5b1905a17a135dfdf12e2db2492d82b5af3a55598a894afabfef692df173d490",
          "transactionIndex": "0x36",
          "logIndex": "0x67",
          "removed": false
        },
        {
          "address": "0x270e88f8683660553e8ba4eb2ad7c91a1710d769",
          "topics": [
            "0x4afcb4a87cdbd9974efdb92ee48bc8d7cd0ae4bf217004db3d080cbaee652ca7"
          ],
          "data": "0x000000000000000000000000000000000000000000000000000000006786f9840000000000000000000000000000000000000000000000000004f7a453590b9d0000000000000000000000000000000000000000000000000de0b6b3a7640000",
          "blockHash": "0x5a54438ca5f90bd60fe34824628bafe331d186d45a6f29956acaa8d11d3a107f",
          "blockNumber": "0x7255f5",
          "transactionHash": "0x5b1905a17a135dfdf12e2db2492d82b5af3a55598a894afabfef692df173d490",
          "transactionIndex": "0x36",
          "logIndex": "0x68",
          "removed": false
        }
      ],
      "logsBloom": "0x00000000000000000000000000000000000000000000000000000000000000000000000000000000000000000000000020000000000000004000000000000000000000000000000000000008000000000000000000000000000000000000000000000000020000000000000000000800020000000000000000000010000000000000000000010000000000000000000000000000000000000000010000000000000000000000000000000000000000004000000000000000000000000000000000000002000000800000000000000000000000000000080000008000000020000000000000000000000000000000000000000000000000000000000000000000",
      "type": "0x2",
      "transactionHash": "0x5b1905a17a135dfdf12e2db2492d82b5af3a55598a894afabfef692df173d490",
      "transactionIndex": "0x36",
      "blockHash": "0x5a54438ca5f90bd60fe34824628bafe331d186d45a6f29956acaa8d11d3a107f",
      "blockNumber": "0x7255f5",
      "gasUsed": "0x13af8",
      "effectiveGasPrice": "0x962550d5",
      "from": "0xc77f7fed3b5cc8249adc428c5f44c9063b9734b4",
      "to": "0x270e88f8683660553e8ba4eb2ad7c91a1710d769",
      "contractAddress": null
    }
  ],
  "libraries": [],
  "pending": [],
  "returns": {},
  "timestamp": 1736898950,
  "chain": 11155111,
  "commit": "51a374b"
}