{
  "transactions": [
    {
      "hash": "0x879390b400eb8eee0a8c9a0b6baea9aa23afddb58322bf7497704a8f46911b2b",
      "transactionType": "CALL",
      "contractName": null,
      "contractAddress": "0x270e88f8683660553e8ba4eb2ad7c91a1710d769",
      "function": "sell(uint256)",
      "arguments": [
        "742425403138191166413"
      ],
      "transaction": {
        "from": "0xc77f7fed3b5cc8249adc428c5f44c9063b9734b4",
        "to": "0x270e88f8683660553e8ba4eb2ad7c91a1710d769",
        "gas": "0x16fec",
        "value": "0x0",
        "input": "0xe4849b320000000000000000000000000000000000000000000000283f38e29da6108bcd",
        "nonce": "0x720",
        "chainId": "0xaa36a7"
      },
      "additionalContracts": [],
      "isFixedGasLimit": false
    }
  ],
  "receipts": [
    {
      "status": "0x1",
      "cumulativeGasUsed": "0xf808d6",
      "logs": [
        {
          "address": "0x270e88f8683660553e8ba4eb2ad7c91a1710d769",
          "topics": [
            "0xddf252ad1be2c89b69c2b068fc378daa952ba7f163c4a11628f55a4df523b3ef",
            "0x000000000000000000000000c77f7fed3b5cc8249adc428c5f44c9063b9734b4",
            "0x0000000000000000000000000000000000000000000000000000000000000000"
          ],
          "data": "0x0000000000000000000000000000000000000000000000283f38e29da6108bcd",
          "blockHash": "0xb256dabb55578f08a8a43afab9cf61e7a3a6cfd2931bfb070e5551b1ef5c9055",
          "blockNumber": "0x72543d",
          "transactionHash": "0x879390b400eb8eee0a8c9a0b6baea9aa23afddb58322bf7497704a8f46911b2b",
          "transactionIndex": "0x35",
          "logIndex": "0x52",
          "removed": false
        },
        {
          "address": "0x270e88f8683660553e8ba4eb2ad7c91a1710d769",
          "topics": [
            "0x4afcb4a87cdbd9974efdb92ee48bc8d7cd0ae4bf217004db3d080cbaee652ca7"
          ],
          "data": "0x000000000000000000000000000000000000000000000000000000006786e4e40000000000000000000000000000000000000000000000000004c0c0cecc00be0000000000000000000000000000000000000000000000000dc828c03b2807be",
          "blockHash": "0xb256dabb55578f08a8a43afab9cf61e7a3a6cfd2931bfb070e5551b1ef5c9055",
          "blockNumber": "0x72543d",
          "transactionHash": "0x879390b400eb8eee0a8c9a0b6baea9aa23afddb58322bf7497704a8f46911b2b",
          "transactionIndex": "0x35",
          "logIndex": "0x53",
          "removed": false
        }
      ],
      "logsBloom": "0x00000000000000000000000000000000000000000000000000000000000000000000000000000000000000000000000020000000000000004000000000000000000000000000000000000008000000000000000000000000000000000000000000000000020000000000000000000800020000000000000000000010000000000000000000010000000000000000000000000000000000000000010000000000000000000000000000000000000000004000000000000000000000000000000000000002000000800000000000000000000000000000080000008000000020000000000000000000000000000000000000000000000000000000000000000000",
      "type": "0x2",
      "transactionHash": "0x879390b400eb8eee0a8c9a0b6baea9aa23afddb58322bf7497704a8f46911b2b",
      "transactionIndex": "0x35",
      "blockHash": "0xb256dabb55578f08a8a43afab9cf61e7a3a6cfd2931bfb070e5551b1ef5c9055",
      "blockNumber": "0x72543d",
      "gasUsed": "0xfb93",
      "effectiveGasPrice": "0x17b61657d",
      "from": "0xc77f7fed3b5cc8249adc428c5f44c9063b9734b4",
      "to": "0x270e88f8683660553e8ba4eb2ad7c91a1710d769",
      "contractAddress": null
    }
  ],
  "libraries": [],
  "pending": [],
  "returns": {},
  "timestamp": 1736893669,
  "chain": 11155111,
  "commit": "51a374b"
}