{
  "transactions": [
    {
      "hash": "0x1f789ff5fa476e01c939e4b17f7ff8d1201b909b9500380776b15ffe8879faa1",
      "transactionType": "CALL",
      "contractName": null,
      "contractAddress": "0x8aafd3ede9adb0ff97c7aebce82a919afb1c8764",
      "function": "sell(uint256)",
      "arguments": [
        "326792"
      ],
      "transaction": {
        "from": "0xc77f7fed3b5cc8249adc428c5f44c9063b9734b4",
        "to": "0x8aafd3ede9adb0ff97c7aebce82a919afb1c8764",
        "gas": "0x16208",
        "value": "0x0",
        "input": "0xe4849b32000000000000000000000000000000000000000000000000000000000004fc88",
        "nonce": "0x16ec",
        "chainId": "0xaa36a7"
      },
      "additionalContracts": [],
      "isFixedGasLimit": false
    }
  ],
  "receipts": [
    {
      "status": "0x1",
      "cumulativeGasUsed": "0x14071c5",
      "logs": [
        {
          "address": "0x8aafd3ede9adb0ff97c7aebce82a919afb1c8764",
          "topics": [
            "0xddf252ad1be2c89b69c2b068fc378daa952ba7f163c4a11628f55a4df523b3ef",
            "0x000000000000000000000000c77f7fed3b5cc8249adc428c5f44c9063b9734b4",
            "0x0000000000000000000000000000000000000000000000000000000000000000"
          ],
          "data": "0x000000000000000000000000000000000000000000000000000000000004f252",
          "blockHash": "0x8b8377254e6fe64e80bf17ec2001efe8b20a4ad349e082d3876d3ab4b37a234d",
          "blockNumber": "0x731eab",
          "transactionHash": "0x1f789ff5fa476e01c939e4b17f7ff8d1201b909b9500380776b15ffe8879faa1",
          "transactionIndex": "0x7b",
          "logIndex": "0x108",
          "removed": false
        },
        {
          "address": "0x8aafd3ede9adb0ff97c7aebce82a919afb1c8764",
          "topics": [
            "0xddf252ad1be2c89b69c2b068fc378daa952ba7f163c4a11628f55a4df523b3ef",
            "0x000000000000000000000000c77f7fed3b5cc8249adc428c5f44c9063b9734b4",
            "0x000000000000000000000000c77f7fed3b5cc8249adc428c5f44c9063b9734b4"
          ],
          "data": "0x0000000000000000000000000000000000000000000000000000000000000a36",
          "blockHash": "0x8b8377254e6fe64e80bf17ec2001efe8b20a4ad349e082d3876d3ab4b37a234d",
          "blockNumber": "0x731eab",
          "transactionHash": "0x1f789ff5fa476e01c939e4b17f7ff8d1201b909b9500380776b15ffe8879faa1",
          "transactionIndex": "0x7b",
          "logIndex": "0x109",
          "removed": false
        },
        {
          "address": "0x8aafd3ede9adb0ff97c7aebce82a919afb1c8764",
          "topics": [
            "0x4afcb4a87cdbd9974efdb92ee48bc8d7cd0ae4bf217004db3d080cbaee652ca7"
          ],
          "data": "0x0000000000000000000000000000000000000000000000000000000067906cec0000000000000000000000000000000000000000000000000016bea510ddc00b000000000000000000000000000000000000000000000000000000000000082c",
          "blockHash": "0x8b8377254e6fe64e80bf17ec2001efe8b20a4ad349e082d3876d3ab4b37a234d",
          "blockNumber": "0x731eab",
          "transactionHash": "0x1f789ff5fa476e01c939e4b17f7ff8d1201b909b9500380776b15ffe8879faa1",
          "transactionIndex": "0x7b",
          "logIndex": "0x10a",
          "removed": false
        }
      ],
      "logsBloom": "0x00000000000000000000000000000000000000000600000000000000000000000000000000000000000000000000000000000000000000004000000000000000000000000000004000000008000000000000000000000000000000000000000000000000020000000000000000000800020000000000000000000010000000000000000000000000000000000000000000000000000000000000010000000000000000000000000000000000000000004000000000000000000000000000000000000002000000800000000000000000000000000000080000000000000020000000000000000000000000000000000000000000000000000000000000000000",
      "type": "0x2",
      "transactionHash": "0x1f789ff5fa476e01c939e4b17f7ff8d1201b909b9500380776b15ffe8879faa1",
      "transactionIndex": "0x7b",
      "blockHash": "0x8b8377254e6fe64e80bf17ec2001efe8b20a4ad349e082d3876d3ab4b37a234d",
      "blockNumber": "0x731eab",
      "gasUsed": "0xf213",
      "effectiveGasPrice": "0x46b3d5d1",
      "from": "0xc77f7fed3b5cc8249adc428c5f44c9063b9734b4",
      "to": "0x8aafd3ede9adb0ff97c7aebce82a919afb1c8764",
      "contractAddress": null
    }
  ],
  "libraries": [],
  "pending": [],
  "returns": {},
  "timestamp": 1737518318,
  "chain": 11155111,
  "commit": "1d2fb70"
}