{
  "transactions": [
    {
      "hash": "0x20aa104cd4242391af26b1e2fe2804392cfc10fa30acfb49ffd3e5fe354c351d",
      "transactionType": "CALL",
      "contractName": null,
      "contractAddress": "0xbf4a322f1496e5c3d34a9bcdb4c60567b38c7de2",
      "function": "sell(uint256)",
      "arguments": [
        "992842302219343920069"
      ],
      "transaction": {
        "from": "0xc77f7fed3b5cc8249adc428c5f44c9063b9734b4",
        "to": "0xbf4a322f1496e5c3d34a9bcdb4c60567b38c7de2",
        "gas": "0x16fea",
        "value": "0x0",
        "input": "0xe4849b32000000000000000000000000000000000000000000000035d2746d9085047bc5",
        "nonce": "0x8d2",
        "chainId": "0xaa36a7"
      },
      "additionalContracts": [],
      "isFixedGasLimit": false
    }
  ],
  "receipts": [
    {
      "status": "0x1",
      "cumulativeGasUsed": "0x16ac616",
      "logs": [
        {
          "address": "0xbf4a322f1496e5c3d34a9bcdb4c60567b38c7de2",
          "topics": [
            "0xddf252ad1be2c89b69c2b068fc378daa952ba7f163c4a11628f55a4df523b3ef",
            "0x000000000000000000000000c77f7fed3b5cc8249adc428c5f44c9063b9734b4",
            "0x0000000000000000000000000000000000000000000000000000000000000000"
          ],
          "data": "0x000000000000000000000000000000000000000000000035d2746d9085047bc5",
          "blockHash": "0xb65fcd1eed3eda512294288f6869e1a6bf66c8750fe0e43a9e98b06e6ae846ae",
          "blockNumber": "0x725840",
          "transactionHash": "0x20aa104cd4242391af26b1e2fe2804392cfc10fa30acfb49ffd3e5fe354c351d",
          "transactionIndex": "0xcc",
          "logIndex": "0x155",
          "removed": false
        },
        {
          "address": "0xbf4a322f1496e5c3d34a9bcdb4c60567b38c7de2",
          "topics": [
            "0x4afcb4a87cdbd9974efdb92ee48bc8d7cd0ae4bf217004db3d080cbaee652ca7"
          ],
          "data": "0x000000000000000000000000000000000000000000000000000000006787152000000000000000000000000000000000000000000000000000038dabdb5f7b010000000000000000000000000000000000000000000000000dc7e57ba4c826aa",
          "blockHash": "0xb65fcd1eed3eda512294288f6869e1a6bf66c8750fe0e43a9e98b06e6ae846ae",
          "blockNumber": "0x725840",
          "transactionHash": "0x20aa104cd4242391af26b1e2fe2804392cfc10fa30acfb49ffd3e5fe354c351d",
          "transactionIndex": "0xcc",
          "logIndex": "0x156",
          "removed": false
        }
      ],
      "logsBloom": "0x00000000000000000000000000000000000000000000000000000000000000000000000000000000000000000000000000000000000000004000000000000000000000000000000000000008000000000000001000000000000000000000000000000000020000000000000000000800020000000000000000000010000000000000000000000000000000000000000000000000000008000000010000000000000000000000000000000000000000004000000000000000000000000000000000000002000000800000000000001000000000000000080000000000000020000000000000000000000000000000000000000000000000000000000000000000",
      "type": "0x2",
      "transactionHash": "0x20aa104cd4242391af26b1e2fe2804392cfc10fa30acfb49ffd3e5fe354c351d",
      "transactionIndex": "0xcc",
      "blockHash": "0xb65fcd1eed3eda512294288f6869e1a6bf66c8750fe0e43a9e98b06e6ae846ae",
      "blockNumber": "0x725840",
      "gasUsed": "0xfb91",
      "effectiveGasPrice": "0x218c162a",
      "from": "0xc77f7fed3b5cc8249adc428c5f44c9063b9734b4",
      "to": "0xbf4a322f1496e5c3d34a9bcdb4c60567b38c7de2",
      "contractAddress": null
    }
  ],
  "libraries": [],
  "pending": [],
  "returns": {},
  "timestamp": 1736906019,
  "chain": 11155111,
  "commit": "51a374b"
}