{
  "transactions": [
    {
      "hash": "0xb011500ef602d06969ea4d3d22fd37f5fc3cb0b2b62cfe52f5d0aff7f39aae57",
      "transactionType": "CALL",
      "contractName": null,
      "contractAddress": "0xbf4a322f1496e5c3d34a9bcdb4c60567b38c7de2",
      "function": "buy(address)",
      "arguments": [
        "0xC77f7fed3b5Cc8249aDc428c5F44C9063B9734b4"
      ],
      "transaction": {
        "from": "0xc77f7fed3b5cc8249adc428c5f44c9063b9734b4",
        "to": "0xbf4a322f1496e5c3d34a9bcdb4c60567b38c7de2",
        "gas": "0x1b309",
        "value": "0xde0b6b3a7640000",
        "input": "0xf088d547000000000000000000000000c77f7fed3b5cc8249adc428c5f44c9063b9734b4",
        "nonce": "0xdfc",
        "chainId": "0xaa36a7"
      },
      "additionalContracts": [],
      "isFixedGasLimit": false
    }
  ],
  "receipts": [
    {
      "status": "0x1",
      "cumulativeGasUsed": "0x1aabeb8",
      "logs": [
        {
          "address": "0xbf4a322f1496e5c3d34a9bcdb4c60567b38c7de2",
          "topics": [
            "0xddf252ad1be2c89b69c2b068fc378daa952ba7f163c4a11628f55a4df523b3ef",
            "0x0000000000000000000000000000000000000000000000000000000000000000",
            "0x000000000000000000000000c77f7fed3b5cc8249adc428c5f44c9063b9734b4"
          ],
          "data": "0x0000000000000000000000000000000000000000000000349d971e9731ff0eff",
          "blockHash": "0xf9d8c3f7c2eb685a71f9ab0e4739036b794ad7fc67beb4ba15470adb5251d3f4",
          "blockNumber": "0x7266e3",
          "transactionHash": "0xb011500ef602d06969ea4d3d22fd37f5fc3cb0b2b62cfe52f5d0aff7f39aae57",
          "transactionIndex": "0xc1",
          "logIndex": "0x150",
          "removed": false
        },
        {
          "address": "0xbf4a322f1496e5c3d34a9bcdb4c60567b38c7de2",
          "topics": [
            "0xddf252ad1be2c89b69c2b068fc378daa952ba7f163c4a11628f55a4df523b3ef",
            "0x0000000000000000000000000000000000000000000000000000000000000000",
            "0x000000000000000000000000c77f7fed3b5cc8249adc428c5f44c9063b9734b4"
          ],
          "data": "0x00000000000000000000000000000000000000000000000028db98a8900f17cc",
          "blockHash": "0xf9d8c3f7c2eb685a71f9ab0e4739036b794ad7fc67beb4ba15470adb5251d3f4",
          "blockNumber": "0x7266e3",
          "transactionHash": "0xb011500ef602d06969ea4d3d22fd37f5fc3cb0b2b62cfe52f5d0aff7f39aae57",
          "transactionIndex": "0xc1",
          "logIndex": "0x151",
          "removed": false
        },
        {
          "address": "0xbf4a322f1496e5c3d34a9bcdb4c60567b38c7de2",
          "topics": [
            "0x4afcb4a87cdbd9974efdb92ee48bc8d7cd0ae4bf217004db3d080cbaee652ca7"
          ],
          "data": "0x000000000000000000000000000000000000000000000000000000006787c5e400000000000000000000000000000000000000000000000000039fb210cb9fdf0000000000000000000000000000000000000000000000000de0b6b3a7640000",
          "blockHash": "0xf9d8c3f7c2eb685a71f9ab0e4739036b794ad7fc67beb4ba15470adb5251d3f4",
          "blockNumber": "0x7266e3",
          "transactionHash": "0xb011500ef602d06969ea4d3d22fd37f5fc3cb0b2b62cfe52f5d0aff7f39aae57",
          "transactionIndex": "0xc1",
          "logIndex": "0x152",
          "removed": false
        }
      ],
      "logsBloom": "0x00000000000000000000000000000000000000000000000000000000000000000000000000000000000000000000000000000000000000004000000000000000000000000000000000000008000000000000001000000000000000000000000000000000020000000000000000000800020000000000000000000010000000000000000000000000000000000000000000000000000008000000010000000000000000000000000000000000000000004000000000000000000000000000000000000002000000800000000000001000000000000000080000000000000020000000000000000000000000000000000000000000000000000000000000000000",
      "type": "0x2",
      "transactionHash": "0xb011500ef602d06969ea4d3d22fd37f5fc3cb0b2b62cfe52f5d0aff7f39aae57",
      "transactionIndex": "0xc1",
      "blockHash": "0xf9d8c3f7c2eb685a71f9ab0e4739036b794ad7fc67beb4ba15470adb5251d3f4",
      "blockNumber": "0x7266e3",
      "gasUsed": "0x13af6",
      "effectiveGasPrice": "0x3139f0601",
      "from": "0xc77f7fed3b5cc8249adc428c5f44c9063b9734b4",
      "to": "0xbf4a322f1496e5c3d34a9bcdb4c60567b38c7de2",
      "contractAddress": null
    }
  ],
  "libraries": [],
  "pending": [],
  "returns": {},
  "timestamp": 1736951270,
  "chain": 11155111,
  "commit": "51a374b"
}