{
  "transactions": [
    {
      "hash": "0xcc957d51ed824c6c4772565300644ab2db3f15dbbb33488e120eba47aa8afb89",
      "transactionType": "CALL",
      "contractName": null,
      "contractAddress": "0x270e88f8683660553e8ba4eb2ad7c91a1710d769",
      "function": "buy(address)",
      "arguments": [
        "0xC77f7fed3b5Cc8249aDc428c5F44C9063B9734b4"
      ],
      "transaction": {
        "from": "0xc77f7fed3b5cc8249adc428c5f44c9063b9734b4",
        "to": "0x270e88f8683660553e8ba4eb2ad7c91a1710d769",
        "gas": "0x1b30c",
        "value": "0xde0b6b3a7640000",
        "input": "0xf088d547000000000000000000000000c77f7fed3b5cc8249adc428c5f44c9063b9734b4",
        "nonce": "0x84d",
        "chainId": "0xaa36a7"
      },
      "additionalContracts": [],
      "isFixedGasLimit": false
    }
  ],
  "receipts": [
    {
      "status": "0x1",
      "cumulativeGasUsed": "0xf37bac",
      "logs": [
        {
          "address": "0x270e88f8683660553e8ba4eb2ad7c91a1710d769",
          "topics": [
            "0xddf252ad1be2c89b69c2b068fc378daa952ba7f163c4a11628f55a4df523b3ef",
            "0x0000000000000000000000000000000000000000000000000000000000000000",
            "0x000000000000000000000000c77f7fed3b5cc8249adc428c5f44c9063b9734b4"
          ],
          "data": "0x000000000000000000000000000000000000000000000026b7a0d31e8e878c60",
          "blockHash": "0x00bb578ed6e37e10bea27973e46e98ac2dc6180c857a911ee1494b8f11427754",
          "blockNumber": "0x72559d",
          "transactionHash": "0xcc957d51ed824c6c4772565300644ab2db3f15dbbb33488e120eba47aa8afb89",
          "transactionIndex": "0x6a",
          "logIndex": "0x140",
          "removed": false
        },
        {
          "address": "0x270e88f8683660553e8ba4eb2ad7c91a1710d769",
          "topics": [
            "0xddf252ad1be2c89b69c2b068fc378daa952ba7f163c4a11628f55a4df523b3ef",
            "0x0000000000000000000000000000000000000000000000000000000000000000",
            "0x000000000000000000000000c77f7fed3b5cc8249adc428c5f44c9063b9734b4"
          ],
          "data": "0x0000000000000000000000000000000000000000000000001e10b7a769992dc0",
          "blockHash": "0x00bb578ed6e37e10bea27973e46e98ac2dc6180c857a911ee1494b8f11427754",
          "blockNumber": "0x72559d",
          "transactionHash": "0xcc957d51ed824c6c4772565300644ab2db3f15dbbb33488e120eba47aa8afb89",
          "transactionIndex": "0x6a",
          "logIndex": "0x141",
          "removed": false
        },
        {
          "address": "0x270e88f8683660553e8ba4eb2ad7c91a1710d769",
          "topics": [
            "0x4afcb4a87cdbd9974efdb92ee48bc8d7cd0ae4bf217004db3d080cbaee652ca7"
          ],
          "data": "0x000000000000000000000000000000000000000000000000000000006786f5640000000000000000000000000000000000000000000000000004eccd2e25c8a10000000000000000000000000000000000000000000000000de0b6b3a7640000",
          "blockHash": "0x00bb578ed6e37e10bea27973e46e98ac2dc6180c857a911ee1494b8f11427754",
          "blockNumber": "0x72559d",
          "transactionHash": "0xcc957d51ed824c6c4772565300644ab2db3f15dbbb33488e120eba47aa8afb89",
          "transactionIndex": "0x6a",
          "logIndex": "0x142",
          "removed": false
        }
      ],
      "logsBloom": "0x00000000000000000000000000000000000000000000000000000000000000000000000000000000000000000000000020000000000000004000000000000000000000000000000000000008000000000000000000000000000000000000000000000000020000000000000000000800020000000000000000000010000000000000000000010000000000000000000000000000000000000000010000000000000000000000000000000000000000004000000000000000000000000000000000000002000000800000000000000000000000000000080000008000000020000000000000000000000000000000000000000000000000000000000000000000",
      "type": "0x2",
      "transactionHash": "0xcc957d51ed824c6c4772565300644ab2db3f15dbbb33488e120eba47aa8afb89",
      "transactionIndex": "0x6a",
      "blockHash": "0x00bb578ed6e37e10bea27973e46e98ac2dc6180c857a911ee1494b8f11427754",
      "blockNumber": "0x72559d",
      "gasUsed": "0x13af8",
      "effectiveGasPrice": "0x638b3032",
      "from": "0xc77f7fed3b5cc8249adc428c5f44c9063b9734b4",
      "to": "0x270e88f8683660553e8ba4eb2ad7c91a1710d769",
      "contractAddress": null
    }
  ],
  "libraries": [],
  "pending": [],
  "returns": {},
  "timestamp": 1736897892,
  "chain": 11155111,
  "commit": "51a374b"
}