{
  "transactions": [
    {
      "hash": "0x735a2f1dcdc66d0b0c27d2c83794854dc7b99b71ed09234260219f1d6750a9ef",
      "transactionType": "CALL",
      "contractName": null,
      "contractAddress": "0xbf4a322f1496e5c3d34a9bcdb4c60567b38c7de2",
      "function": "buy(address)",
      "arguments": [
        "0xC77f7fed3b5Cc8249aDc428c5F44C9063B9734b4"
      ],
      "transaction": {
        "from": "0xc77f7fed3b5cc8249adc428c5f44c9063b9734b4",
        "to": "0xbf4a322f1496e5c3d34a9bcdb4c60567b38c7de2",
        "gas": "0x1b309",
        "value": "0xde0b6b3a7640000",
        "input": "0xf088d547000000000000000000000000c77f7fed3b5cc8249adc428c5f44c9063b9734b4",
        "nonce": "0xa0c",
        "chainId": "0xaa36a7"
      },
      "additionalContracts": [],
      "isFixedGasLimit": false
    }
  ],
  "receipts": [
    {
      "status": "0x1",
      "cumulativeGasUsed": "0x68d68f",
      "logs": [
        {
          "address": "0xbf4a322f1496e5c3d34a9bcdb4c60567b38c7de2",
          "topics": [
            "0xddf252ad1be2c89b69c2b068fc378daa952ba7f163c4a11628f55a4df523b3ef",
            "0x0000000000000000000000000000000000000000000000000000000000000000",
            "0x000000000000000000000000c77f7fed3b5cc8249adc428c5f44c9063b9734b4"
          ],
          "data": "0x00000000000000000000000000000000000000000000003558f3326a7634756d",
          "blockHash": "0x508335893eea800e81b5d8e2c4ae444c9cf0bd2378432539232844658909e124",
          "blockNumber": "0x7259c9",
          "transactionHash": "0x735a2f1dcdc66d0b0c27d2c83794854dc7b99b71ed09234260219f1d6750a9ef",
          "transactionIndex": "0x4a",
          "logIndex": "0x64",
          "removed": false
        },
        {
          "address": "0xbf4a322f1496e5c3d34a9bcdb4c60567b38c7de2",
          "topics": [
            "0xddf252ad1be2c89b69c2b068fc378daa952ba7f163c4a11628f55a4df523b3ef",
            "0x0000000000000000000000000000000000000000000000000000000000000000",
            "0x000000000000000000000000c77f7fed3b5cc8249adc428c5f44c9063b9734b4"
          ],
          "data": "0x000000000000000000000000000000000000000000000000296d16668fb8e783",
          "blockHash": "0x508335893eea800e81b5d8e2c4ae444c9cf0bd2378432539232844658909e124",
          "blockNumber": "0x7259c9",
          "transactionHash": "0x735a2f1dcdc66d0b0c27d2c83794854dc7b99b71ed09234260219f1d6750a9ef",
          "transactionIndex": "0x4a",
          "logIndex": "0x65",
          "removed": false
        },
        {
          "address": "0xbf4a322f1496e5c3d34a9bcdb4c60567b38c7de2",
          "topics": [
            "0x4afcb4a87cdbd9974efdb92ee48bc8d7cd0ae4bf217004db3d080cbaee652ca7"
          ],
          "data": "0x00000000000000000000000000000000000000000000000000000000678727b0000000000000000000000000000000000000000000000000000392f7f8bccfa80000000000000000000000000000000000000000000000000de0b6b3a7640000",
          "blockHash": "0x508335893eea800e81b5d8e2c4ae444c9cf0bd2378432539232844658909e124",
          "blockNumber": "0x7259c9",
          "transactionHash": "0x735a2f1dcdc66d0b0c27d2c83794854dc7b99b71ed09234260219f1d6750a9ef",
          "transactionIndex": "0x4a",
          "logIndex": "0x66",
          "removed": false
        }
      ],
      "logsBloom": "0x00000000000000000000000000000000000000000000000000000000000000000000000000000000000000000000000000000000000000004000000000000000000000000000000000000008000000000000001000000000000000000000000000000000020000000000000000000800020000000000000000000010000000000000000000000000000000000000000000000000000008000000010000000000000000000000000000000000000000004000000000000000000000000000000000000002000000800000000000001000000000000000080000000000000020000000000000000000000000000000000000000000000000000000000000000000",
      "type": "0x2",
      "transactionHash": "0x735a2f1dcdc66d0b0c27d2c83794854dc7b99b71ed09234260219f1d6750a9ef",
      "transactionIndex": "0x4a",
      "blockHash": "0x508335893eea800e81b5d8e2c4ae444c9cf0bd2378432539232844658909e124",
      "blockNumber": "0x7259c9",
      "gasUsed": "0x13af6",
      "effectiveGasPrice": "0x3614d1738",
      "from": "0xc77f7fed3b5cc8249adc428c5f44c9063b9734b4",
      "to": "0xbf4a322f1496e5c3d34a9bcdb4c60567b38c7de2",
      "contractAddress": null
    }
  ],
  "libraries": [],
  "pending": [],
  "returns": {},
  "timestamp": 1736910769,
  "chain": 11155111,
  "commit": "51a374b"
}