{
  "transactions": [
    {
      "hash": "0x726ea7eff8a2c2853855835b00c70a326d2952a7571d0771d7fc85360b989c8d",
      "transactionType": "CALL",
      "contractName": null,
      "contractAddress": "0x8aafd3ede9adb0ff97c7aebce82a919afb1c8764",
      "function": "sell(uint256)",
      "arguments": [
        "100719837376008"
      ],
      "transaction": {
        "from": "0xc77f7fed3b5cc8249adc428c5f44c9063b9734b4",
        "to": "0x8aafd3ede9adb0ff97c7aebce82a919afb1c8764",
        "gas": "0x15daa",
        "value": "0x0",
        "input": "0xe4849b3200000000000000000000000000000000000000000000000000005b9aaa20ee08",
        "nonce": "0x1553",
        "chainId": "0xaa36a7"
      },
      "additionalContracts": [],
      "isFixedGasLimit": false
    }
  ],
  "receipts": [
    {
      "status": "0x1",
      "cumulativeGasUsed": "0x845e8a",
      "logs": [
        {
          "address": "0x8aafd3ede9adb0ff97c7aebce82a919afb1c8764",
          "topics": [
            "0xddf252ad1be2c89b69c2b068fc378daa952ba7f163c4a11628f55a4df523b3ef",
            "0x000000000000000000000000c77f7fed3b5cc8249adc428c5f44c9063b9734b4",
            "0x0000000000000000000000000000000000000000000000000000000000000000"
          ],
          "data": "0x00000000000000000000000000000000000000000000000000005adf0f2ae808",
          "blockHash": "0x22a99f4453d100b537f64d10499eda085532616b57297100e76193f0566f2dfc",
          "blockNumber": "0x731cb9",
          "transactionHash": "0x726ea7eff8a2c2853855835b00c70a326d2952a7571d0771d7fc85360b989c8d",
          "transactionIndex": "0x4f",
          "logIndex": "0x6e",
          "removed": false
        },
        {
          "address": "0x8aafd3ede9adb0ff97c7aebce82a919afb1c8764",
          "topics": [
            "0xddf252ad1be2c89b69c2b068fc378daa952ba7f163c4a11628f55a4df523b3ef",
            "0x000000000000000000000000c77f7fed3b5cc8249adc428c5f44c9063b9734b4",
            "0x000000000000000000000000c77f7fed3b5cc8249adc428c5f44c9063b9734b4"
          ],
          "data": "0x000000000000000000000000000000000000000000000000000000bb9af60600",
          "blockHash": "0x22a99f4453d100b537f64d10499eda085532616b57297100e76193f0566f2dfc",
          "blockNumber": "0x731cb9",
          "transactionHash": "0x726ea7eff8a2c2853855835b00c70a326d2952a7571d0771d7fc85360b989c8d",
          "transactionIndex": "0x4f",
          "logIndex": "0x6f",
          "removed": false
        },
        {
          "address": "0x8aafd3ede9adb0ff97c7aebce82a919afb1c8764",
          "topics": [
            "0x4afcb4a87cdbd9974efdb92ee48bc8d7cd0ae4bf217004db3d080cbaee652ca7"
          ],
          "data": "0x00000000000000000000000000000000000000000000000000000000679055880000000000000000000000000000000000000000000000000012099a51cc06e9000000000000000000000000000000000000000000000000000000770fc2224a",
          "blockHash": "0x22a99f4453d100b537f64d10499eda085532616b57297100e76193f0566f2dfc",
          "blockNumber": "0x731cb9",
          "transactionHash": "0x726ea7eff8a2c2853855835b00c70a326d2952a7571d0771d7fc85360b989c8d",
          "transactionIndex": "0x4f",
          "logIndex": "0x70",
          "removed": false
        }
      ],
      "logsBloom": "0x00000000000000000000000000000000000000000600000000000000000000000000000000000000000000000000000000000000000000004000000000000000000000000000004000000008000000000000000000000000000000000000000000000000020000000000000000000800020000000000000000000010000000000000000000000000000000000000000000000000000000000000010000000000000000000000000000000000000000004000000000000000000000000000000000000002000000800000000000000000000000000000080000000000000020000000000000000000000000000000000000000000000000000000000000000000",
      "type": "0x2",
      "transactionHash": "0x726ea7eff8a2c2853855835b00c70a326d2952a7571d0771d7fc85360b989c8d",
      "transactionIndex": "0x4f",
      "blockHash": "0x22a99f4453d100b537f64d10499eda085532616b57297100e76193f0566f2dfc",
      "blockNumber": "0x731cb9",
      "gasUsed": "0xfd27",
      "effectiveGasPrice": "0xe98f76f1",
      "from": "0xc77f7fed3b5cc8249adc428c5f44c9063b9734b4",
      "to": "0x8aafd3ede9adb0ff97c7aebce82a919afb1c8764",
      "contractAddress": null
    }
  ],
  "libraries": [],
  "pending": [],
  "returns": {},
  "timestamp": 1737512329,
  "chain": 11155111,
  "commit": "1d2fb70"
}