{
  "transactions": [
    {
      "hash": "0x3528b92948a9bb446ed2ffbecb787a0903517fd4fd87d31f2b8d4f3418dcdaa2",
      "transactionType": "CALL",
      "contractName": null,
      "contractAddress": "0x5eb9cc76c3506942c1c0ead70e877dd5e4f00cb0",
      "function": "buy(address)",
      "arguments": [
        "0xC77f7fed3b5Cc8249aDc428c5F44C9063B9734b4"
      ],
      "transaction": {
        "from": "0xc77f7fed3b5cc8249adc428c5f44c9063b9734b4",
        "to": "0x5eb9cc76c3506942c1c0ead70e877dd5e4f00cb0",
        "gas": "0x156c8",
        "value": "0xde0b6b3a7640000",
        "input": "0xf088d547000000000000000000000000c77f7fed3b5cc8249adc428c5f44c9063b9734b4",
        "nonce": "0x16d",
        "chainId": "0xaa36a7"
      },
      "additionalContracts": [],
      "isFixedGasLimit": false
    }
  ],
  "receipts": [
    {
      "status": "0x1",
      "cumulativeGasUsed": "0xa71220",
      "logs": [
        {
          "address": "0x5eb9cc76c3506942c1c0ead70e877dd5e4f00cb0",
          "topics": [
            "0xddf252ad1be2c89b69c2b068fc378daa952ba7f163c4a11628f55a4df523b3ef",
            "0x0000000000000000000000000000000000000000000000000000000000000000",
            "0x000000000000000000000000c77f7fed3b5cc8249adc428c5f44c9063b9734b4"
          ],
          "data": "0x000000000000000000000000000000000000000000000035a6d6fa1bb95d8310",
          "blockHash": "0x9c26823852f487640bd275e8de9080415884417b69c670d7245660fb4d761f67",
          "blockNumber": "0x723c29",
          "transactionHash": "0x3528b92948a9bb446ed2ffbecb787a0903517fd4fd87d31f2b8d4f3418dcdaa2",
          "transactionIndex": "0x3e",
          "logIndex": "0x9c",
          "removed": false
        },
        {
          "address": "0x5eb9cc76c3506942c1c0ead70e877dd5e4f00cb0",
          "topics": [
            "0xddf252ad1be2c89b69c2b068fc378daa952ba7f163c4a11628f55a4df523b3ef",
            "0x0000000000000000000000000000000000000000000000000000000000000000",
            "0x000000000000000000000000c77f7fed3b5cc8249adc428c5f44c9063b9734b4"
          ],
          "data": "0x00000000000000000000000000000000000000000000000029a99251ea4e8af2",
          "blockHash": "0x9c26823852f487640bd275e8de9080415884417b69c670d7245660fb4d761f67",
          "blockNumber": "0x723c29",
          "transactionHash": "0x3528b92948a9bb446ed2ffbecb787a0903517fd4fd87d31f2b8d4f3418dcdaa2",
          "transactionIndex": "0x3e",
          "logIndex": "0x9d",
          "removed": false
        },
        {
          "address": "0x5eb9cc76c3506942c1c0ead70e877dd5e4f00cb0",
          "topics": [
            "0x4afcb4a87cdbd9974efdb92ee48bc8d7cd0ae4bf217004db3d080cbaee652ca7"
          ],
          "data": "0x000000000000000000000000000000000000000000000000000000006785c34000000000000000000000000000000000000000000000000000038dc55cacef650000000000000000000000000000000000000000000000000de0b6b3a7640000",
          "blockHash": "0x9c26823852f487640bd275e8de9080415884417b69c670d7245660fb4d761f67",
          "blockNumber": "0x723c29",
          "transactionHash": "0x3528b92948a9bb446ed2ffbecb787a0903517fd4fd87d31f2b8d4f3418dcdaa2",
          "transactionIndex": "0x3e",
          "logIndex": "0x9e",
          "removed": false
        }
      ],
      "logsBloom": "0x00000000000000000000000000000000000000000000000000000000000000000000000000000000000000000000000000000000000000004000000000000000000000000000000000000008000000000000000000000000000000000000000000000000020000000000000004000800020000000000000000000010000000000000000000000000000000000000000000000000000000000000010000000000000000000000000000000000000000004000000000000000000000000000020000000002000000800000008000000000000000000000080000000000000020000000000000000000000000000000000000000000000000000000000000000000",
      "type": "0x2",
      "transactionHash": "0x3528b92948a9bb446ed2ffbecb787a0903517fd4fd87d31f2b8d4f3418dcdaa2",
      "transactionIndex": "0x3e",
      "blockHash": "0x9c26823852f487640bd275e8de9080415884417b69c670d7245660fb4d761f67",
      "blockNumber": "0x723c29",
      "gasUsed": "0xf82c",
      "effectiveGasPrice": "0x201a4cc2d",
      "from": "0xc77f7fed3b5cc8249adc428c5f44c9063b9734b4",
      "to": "0x5eb9cc76c3506942c1c0ead70e877dd5e4f00cb0",
      "contractAddress": null
    }
  ],
  "libraries": [],
  "pending": [],
  "returns": {},
  "timestamp": 1736819522,
  "chain": 11155111,
  "commit": "51a374b"
}