{
  "transactions": [
    {
      "hash": "0xf6d62ffed83d470858729295f98e4e358e80acb7bf41aa9eb7716be73f42a28f",
      "transactionType": "CALL",
      "contractName": null,
      "contractAddress": "0x8aafd3ede9adb0ff97c7aebce82a919afb1c8764",
      "function": "sell(uint256)",
      "arguments": [
        "11686"
      ],
      "transaction": {
        "from": "0xc77f7fed3b5cc8249adc428c5f44c9063b9734b4",
        "to": "0x8aafd3ede9adb0ff97c7aebce82a919afb1c8764",
        "gas": "0x14e4c",
        "value": "0x0",
        "input": "0xe4849b320000000000000000000000000000000000000000000000000000000000002da6",
        "nonce": "0x112f",
        "chainId": "0xaa36a7"
      },
      "additionalContracts": [],
      "isFixedGasLimit": false
    }
  ],
  "receipts": [
    {
      "status": "0x1",
      "cumulativeGasUsed": "0xbfef6f",
      "logs": [
        {
          "address": "0x8aafd3ede9adb0ff97c7aebce82a919afb1c8764",
          "topics": [
            "0xddf252ad1be2c89b69c2b068fc378daa952ba7f163c4a11628f55a4df523b3ef",
            "0x000000000000000000000000c77f7fed3b5cc8249adc428c5f44c9063b9734b4",
            "0x0000000000000000000000000000000000000000000000000000000000000000"
          ],
          "data": "0x0000000000000000000000000000000000000000000000000000000000002d49",
          "blockHash": "0x883a51bf1a72f04474ea1760b5743c4a0887741ca93b538e38bbbcc512736c77",
          "blockNumber": "0x7317e6",
          "transactionHash": "0xf6d62ffed83d470858729295f98e4e358e80acb7bf41aa9eb7716be73f42a28f",
          "transactionIndex": "0x7f",
          "logIndex": "0xea",
          "removed": false
        },
        {
          "address": "0x8aafd3ede9adb0ff97c7aebce82a919afb1c8764",
          "topics": [
            "0xddf252ad1be2c89b69c2b068fc378daa952ba7f163c4a11628f55a4df523b3ef",
            "0x000000000000000000000000c77f7fed3b5cc8249adc428c5f44c9063b9734b4",
            "0x000000000000000000000000c77f7fed3b5cc8249adc428c5f44c9063b9734b4"
          ],
          "data": "0x000000000000000000000000000000000000000000000000000000000000005d",
          "blockHash": "0x883a51bf1a72f04474ea1760b5743c4a0887741ca93b538e38bbbcc512736c77",
          "blockNumber": "0x7317e6",
          "transactionHash": "0xf6d62ffed83d470858729295f98e4e358e80acb7bf41aa9eb7716be73f42a28f",
          "transactionIndex": "0x7f",
          "logIndex": "0xeb",
          "removed": false
        },
        {
          "address": "0x8aafd3ede9adb0ff97c7aebce82a919afb1c8764",
          "topics": [
            "0x4afcb4a87cdbd9974efdb92ee48bc8d7cd0ae4bf217004db3d080cbaee652ca7"
          ],
          "data": "0x0000000000000000000000000000000000000000000000000000000067901b8c000000000000000000000000000000000000000000000000000511f8279d7e460000000000000000000000000000000000000000000000000000000000000010",
          "blockHash": "0x883a51bf1a72f04474ea1760b5743c4a0887741ca93b538e38bbbcc512736c77",
          "blockNumber": "0x7317e6",
          "transactionHash": "0xf6d62ffed83d470858729295f98e4e358e80acb7bf41aa9eb7716be73f42a28f",
          "transactionIndex": "0x7f",
          "logIndex": "0xec",
          "removed": false
        }
      ],
      "logsBloom": "0x00000000000000000000000000000000000000000600000000000000000000000000000000000000000000000000000000000000000000004000000000000000000000000000004000000008000000000000000000000000000000000000000000000000020000000000000000000800020000000000000000000010000000000000000000000000000000000000000000000000000000000000010000000000000000000000000000000000000000004000000000000000000000000000000000000002000000800000000000000000000000000000080000000000000020000000000000000000000000000000000000000000000000000000000000000000",
      "type": "0x2",
      "transactionHash": "0xf6d62ffed83d470858729295f98e4e358e80acb7bf41aa9eb7716be73f42a28f",
      "transactionIndex": "0x7f",
      "blockHash": "0x883a51bf1a72f04474ea1760b5743c4a0887741ca93b538e38bbbcc512736c77",
      "blockNumber": "0x7317e6",
      "gasUsed": "0xf207",
      "effectiveGasPrice": "0x4454ce7b",
      "from": "0xc77f7fed3b5cc8249adc428c5f44c9063b9734b4",
      "to": "0x8aafd3ede9adb0ff97c7aebce82a919afb1c8764",
      "contractAddress": null
    }
  ],
  "libraries": [],
  "pending": [],
  "returns": {},
  "timestamp": 1737497486,
  "chain": 11155111,
  "commit": "1d2fb70"
}