{
  "transactions": [
    {
      "hash": "0xe73b3838ed8133071aa6aca7cda5881d1e9bf02cb46d0dafcd483990c8b825f6",
      "transactionType": "CALL",
      "contractName": null,
      "contractAddress": "0x270e88f8683660553e8ba4eb2ad7c91a1710d769",
      "function": "sell(uint256)",
      "arguments": [
        "724455571492193476591"
      ],
      "transaction": {
        "from": "0xc77f7fed3b5cc8249adc428c5f44c9063b9734b4",
        "to": "0x270e88f8683660553e8ba4eb2ad7c91a1710d769",
        "gas": "0x16fec",
        "value": "0x0",
        "input": "0xe4849b3200000000000000000000000000000000000000000000002745d737f128cc9fef",
        "nonce": "0x7ee",
        "chainId": "0xaa36a7"
      },
      "additionalContracts": [],
      "isFixedGasLimit": false
    }
  ],
  "receipts": [
    {
      "status": "0x1",
      "cumulativeGasUsed": "0x6d1158",
      "logs": [
        {
          "address": "0x270e88f8683660553e8ba4eb2ad7c91a1710d769",
          "topics": [
            "0xddf252ad1be2c89b69c2b068fc378daa952ba7f163c4a11628f55a4df523b3ef",
            "0x000000000000000000000000c77f7fed3b5cc8249adc428c5f44c9063b9734b4",
            "0x0000000000000000000000000000000000000000000000000000000000000000"
          ],
          "data": "0x00000000000000000000000000000000000000000000002745d737f128cc9fef",
          "blockHash": "0x856173f9cb6e6c26d949feab0a016451e9bfb06d29b3d0507968c778a27e6c0e",
          "blockNumber": "0x72552a",
          "transactionHash": "0xe73b3838ed8133071aa6aca7cda5881d1e9bf02cb46d0dafcd483990c8b825f6",
          "transactionIndex": "0x42",
          "logIndex": "0x59",
          "removed": false
        },
        {
          "address": "0x270e88f8683660553e8ba4eb2ad7c91a1710d769",
          "topics": [
            "0x4afcb4a87cdbd9974efdb92ee48bc8d7cd0ae4bf217004db3d080cbaee652ca7"
          ],
          "data": "0x000000000000000000000000000000000000000000000000000000006786f0000000000000000000000000000000000000000000000000000004deed4fabaf1e0000000000000000000000000000000000000000000000000dc826e40769c5b4",
          "blockHash": "0x856173f9cb6e6c26d949feab0a016451e9bfb06d29b3d0507968c778a27e6c0e",
          "blockNumber": "0x72552a",
          "transactionHash": "0xe73b3838ed8133071aa6aca7cda5881d1e9bf02cb46d0dafcd483990c8b825f6",
          "transactionIndex": "0x42",
          "logIndex": "0x5a",
          "removed": false
        }
      ],
      "logsBloom": "0x00000000000000000000000000000000000000000000000000000000000000000000000000000000000000000000000020000000000000004000000000000000000000000000000000000008000000000000000000000000000000000000000000000000020000000000000000000800020000000000000000000010000000000000000000010000000000000000000000000000000000000000010000000000000000000000000000000000000000004000000000000000000000000000000000000002000000800000000000000000000000000000080000008000000020000000000000000000000000000000000000000000000000000000000000000000",
      "type": "0x2",
      "transactionHash": "0xe73b3838ed8133071aa6aca7cda5881d1e9bf02cb46d0dafcd483990c8b825f6",
      "transactionIndex": "0x42",
      "blockHash": "0x856173f9cb6e6c26d949feab0a016451e9bfb06d29b3d0507968c778a27e6c0e",
      "blockNumber": "0x72552a",
      "gasUsed": "0xfb93",
      "effectiveGasPrice": "0xab552765",
      "from": "0xc77f7fed3b5cc8249adc428c5f44c9063b9734b4",
      "to": "0x270e88f8683660553e8ba4eb2ad7c91a1710d769",
      "contractAddress": null
    }
  ],
  "libraries": [],
  "pending": [],
  "returns": {},
  "timestamp": 1736896513,
  "chain": 11155111,
  "commit": "51a374b"
}