{
  "transactions": [
    {
      "hash": "0xa5e9478fb594b1d9ed61b7945af28aba75f0a856e06681a274a8a7d99c7d4328",
      "transactionType": "CALL",
      "contractName": null,
      "contractAddress": "0x5eb9cc76c3506942c1c0ead70e877dd5e4f00cb0",
      "function": "buy(address)",
      "arguments": [
        "0xC77f7fed3b5Cc8249aDc428c5F44C9063B9734b4"
      ],
      "transaction": {
        "from": "0xc77f7fed3b5cc8249adc428c5f44c9063b9734b4",
        "to": "0x5eb9cc76c3506942c1c0ead70e877dd5e4f00cb0",
        "gas": "0x1b30c",
        "value": "0xde0b6b3a7640000",
        "input": "0xf088d547000000000000000000000000c77f7fed3b5cc8249adc428c5f44c9063b9734b4",
        "nonce": "0x33e",
        "chainId": "0xaa36a7"
      },
      "additionalContracts": [],
      "isFixedGasLimit": false
    }
  ],
  "receipts": [
    {
      "status": "0x1",
      "cumulativeGasUsed": "0x15083c1",
      "logs": [
        {
          "address": "0x5eb9cc76c3506942c1c0ead70e877dd5e4f00cb0",
          "topics": [
            "0xddf252ad1be2c89b69c2b068fc378daa952ba7f163c4a11628f55a4df523b3ef",
            "0x0000000000000000000000000000000000000000000000000000000000000000",
            "0x000000000000000000000000c77f7fed3b5cc8249adc428c5f44c9063b9734b4"
          ],
          "data": "0x000000000000000000000000000000000000000000000035756fb8e2c6ad8f73",
          "blockHash": "0xc25f9bb5b3e0bec7f19979617c5c2c3a64a8470216e150d8c3f0190bf53e958e",
          "blockNumber": "0x724f2d",
          "transactionHash": "0xa5e9478fb594b1d9ed61b7945af28aba75f0a856e06681a274a8a7d99c7d4328",
          "transactionIndex": "0xb2",
          "logIndex": "0x13b",
          "removed": false
        },
        {
          "address": "0x5eb9cc76c3506942c1c0ead70e877dd5e4f00cb0",
          "topics": [
            "0xddf252ad1be2c89b69c2b068fc378daa952ba7f163c4a11628f55a4df523b3ef",
            "0x0000000000000000000000000000000000000000000000000000000000000000",
            "0x000000000000000000000000c77f7fed3b5cc8249adc428c5f44c9063b9734b4"
          ],
          "data": "0x0000000000000000000000000000000000000000000000002983354b95a88b8f",
          "blockHash": "0xc25f9bb5b3e0bec7f19979617c5c2c3a64a8470216e150d8c3f0190bf53e958e",
          "blockNumber": "0x724f2d",
          "transactionHash": "0xa5e9478fb594b1d9ed61b7945af28aba75f0a856e06681a274a8a7d99c7d4328",
          "transactionIndex": "0xb2",
          "logIndex": "0x13c",
          "removed": false
        },
        {
          "address": "0x5eb9cc76c3506942c1c0ead70e877dd5e4f00cb0",
          "topics": [
            "0x4afcb4a87cdbd9974efdb92ee48bc8d7cd0ae4bf217004db3d080cbaee652ca7"
          ],
          "data": "0x000000000000000000000000000000000000000000000000000000006786a7d00000000000000000000000000000000000000000000000000003910e1e4522e60000000000000000000000000000000000000000000000000de0b6b3a7640000",
          "blockHash": "0xc25f9bb5b3e0bec7f19979617c5c2c3a64a8470216e150d8c3f0190bf53e958e",
          "blockNumber": "0x724f2d",
          "transactionHash": "0xa5e9478fb594b1d9ed61b7945af28aba75f0a856e06681a274a8a7d99c7d4328",
          "transactionIndex": "0xb2",
          "logIndex": "0x13d",
          "removed": false
        }
      ],
      "logsBloom": "0x00000000000000000000000000000000000000000000000000000000000000000000000000000000000000000000000000000000000000004000000000000000000000000000000000000008000000000000000000000000000000000000000000000000020000000000000004000800020000000000000000000010000000000000000000000000000000000000000000000000000000000000010000000000000000000000000000000000000000004000000000000000000000000000020000000002000000800000008000000000000000000000080000000000000020000000000000000000000000000000000000000000000000000000000000000000",
      "type": "0x2",
      "transactionHash": "0xa5e9478fb594b1d9ed61b7945af28aba75f0a856e06681a274a8a7d99c7d4328",
      "transactionIndex": "0xb2",
      "blockHash": "0xc25f9bb5b3e0bec7f19979617c5c2c3a64a8470216e150d8c3f0190bf53e958e",
      "blockNumber": "0x724f2d",
      "gasUsed": "0x13af8",
      "effectiveGasPrice": "0x62a52ad84",
      "from": "0xc77f7fed3b5cc8249adc428c5f44c9063b9734b4",
      "to": "0x5eb9cc76c3506942c1c0ead70e877dd5e4f00cb0",
      "contractAddress": null
    }
  ],
  "libraries": [],
  "pending": [],
  "returns": {},
  "timestamp": 1736878033,
  "chain": 11155111,
  "commit": "51a374b"
}