{
  "transactions": [
    {
      "hash": "0xa06346acccfa5a8140305a23431ef022fc0431883be606488f2bd83f37f865d6",
      "transactionType": "CALL",
      "contractName": null,
      "contractAddress": "0x5eb9cc76c3506942c1c0ead70e877dd5e4f00cb0",
      "function": "buy(address)",
      "arguments": [
        "0xC77f7fed3b5Cc8249aDc428c5F44C9063B9734b4"
      ],
      "transaction": {
        "from": "0xc77f7fed3b5cc8249adc428c5f44c9063b9734b4",
        "to": "0x5eb9cc76c3506942c1c0ead70e877dd5e4f00cb0",
        "gas": "0x1b30c",
        "value": "0xde0b6b3a7640000",
        "input": "0xf088d547000000000000000000000000c77f7fed3b5cc8249adc428c5f44c9063b9734b4",
        "nonce": "0x3b8",
        "chainId": "0xaa36a7"
      },
      "additionalContracts": [],
      "isFixedGasLimit": false
    }
  ],
  "receipts": [
    {
      "status": "0x1",
      "cumulativeGasUsed": "0x8c168a",
      "logs": [
        {
          "address": "0x5eb9cc76c3506942c1c0ead70e877dd5e4f00cb0",
          "topics": [
            "0xddf252ad1be2c89b69c2b068fc378daa952ba7f163c4a11628f55a4df523b3ef",
            "0x0000000000000000000000000000000000000000000000000000000000000000",
            "0x000000000000000000000000c77f7fed3b5cc8249adc428c5f44c9063b9734b4"
          ],
          "data": "0x000000000000000000000000000000000000000000000035752adc04ac7babe6",
          "blockHash": "0xcabc490655893d245f9780c87da4f82a5dfcdf7714a8491e256f4fe37076c93d",
          "blockNumber": "0x724fb7",
          "transactionHash": "0xa06346acccfa5a8140305a23431ef022fc0431883be606488f2bd83f37f865d6",
          "transactionIndex": "0x55",
          "logIndex": "0x7d",
          "removed": false
        },
        {
          "address": "0x5eb9cc76c3506942c1c0ead70e877dd5e4f00cb0",
          "topics": [
            "0xddf252ad1be2c89b69c2b068fc378daa952ba7f163c4a11628f55a4df523b3ef",
            "0x0000000000000000000000000000000000000000000000000000000000000000",
            "0x000000000000000000000000c77f7fed3b5cc8249adc428c5f44c9063b9734b4"
          ],
          "data": "0x0000000000000000000000000000000000000000000000002982ffd22ae80bdb",
          "blockHash": "0xcabc490655893d245f9780c87da4f82a5dfcdf7714a8491e256f4fe37076c93d",
          "blockNumber": "0x724fb7",
          "transactionHash": "0xa06346acccfa5a8140305a23431ef022fc0431883be606488f2bd83f37f865d6",
          "transactionIndex": "0x55",
          "logIndex": "0x7e",
          "removed": false
        },
        {
          "address": "0x5eb9cc76c3506942c1c0ead70e877dd5e4f00cb0",
          "topics": [
            "0x4afcb4a87cdbd9974efdb92ee48bc8d7cd0ae4bf217004db3d080cbaee652ca7"
          ],
          "data": "0x000000000000000000000000000000000000000000000000000000006786ae5400000000000000000000000000000000000000000000000000039112b67176640000000000000000000000000000000000000000000000000de0b6b3a7640000",
          "blockHash": "0xcabc490655893d245f9780c87da4f82a5dfcdf7714a8491e256f4fe37076c93d",
          "blockNumber": "0x724fb7",
          "transactionHash": "0xa06346acccfa5a8140305a23431ef022fc0431883be606488f2bd83f37f865d6",
          "transactionIndex": "0x55",
          "logIndex": "0x7f",
          "removed": false
        }
      ],
      "logsBloom": "0x00000000000000000000000000000000000000000000000000000000000000000000000000000000000000000000000000000000000000004000000000000000000000000000000000000008000000000000000000000000000000000000000000000000020000000000000004000800020000000000000000000010000000000000000000000000000000000000000000000000000000000000010000000000000000000000000000000000000000004000000000000000000000000000020000000002000000800000008000000000000000000000080000000000000020000000000000000000000000000000000000000000000000000000000000000000",
      "type": "0x2",
      "transactionHash": "0xa06346acccfa5a8140305a23431ef022fc0431883be606488f2bd83f37f865d6",
      "transactionIndex": "0x55",
      "blockHash": "0xcabc490655893d245f9780c87da4f82a5dfcdf7714a8491e256f4fe37076c93d",
      "blockNumber": "0x724fb7",
      "gasUsed": "0x13af8",
      "effectiveGasPrice": "0x3e5ae10f2",
      "from": "0xc77f7fed3b5cc8249adc428c5f44c9063b9734b4",
      "to": "0x5eb9cc76c3506942c1c0ead70e877dd5e4f00cb0",
      "contractAddress": null
    }
  ],
  "libraries": [],
  "pending": [],
  "returns": {},
  "timestamp": 1736879702,
  "chain": 11155111,
  "commit": "51a374b"
}