{
  "transactions": [
    {
      "hash": "0xedb581964c668b8f0749e204363c4d1e65b93fae6c21238aea724d1e0ae794f8",
      "transactionType": "CALL",
      "contractName": null,
      "contractAddress": "0x8aafd3ede9adb0ff97c7aebce82a919afb1c8764",
      "function": "sell(uint256)",
      "arguments": [
        "357050310443678"
      ],
      "transaction": {
        "from": "0xc77f7fed3b5cc8249adc428c5f44c9063b9734b4",
        "to": "0x8aafd3ede9adb0ff97c7aebce82a919afb1c8764",
        "gas": "0x1724d",
        "value": "0x0",
        "input": "0xe4849b32000000000000000000000000000000000000000000000000000144bc40ebc29e",
        "nonce": "0x1120",
        "chainId": "0xaa36a7"
      },
      "additionalContracts": [],
      "isFixedGasLimit": false
    }
  ],
  "receipts": [
    {
      "status": "0x1",
      "cumulativeGasUsed": "0xa56bf3",
      "logs": [
        {
          "address": "0x8aafd3ede9adb0ff97c7aebce82a919afb1c8764",
          "topics": [
            "0xddf252ad1be2c89b69c2b068fc378daa952ba7f163c4a11628f55a4df523b3ef",
            "0x000000000000000000000000c77f7fed3b5cc8249adc428c5f44c9063b9734b4",
            "0x0000000000000000000000000000000000000000000000000000000000000000"
          ],
          "data": "0x000000000000000000000000000000000000000000000000000142233210c941",
          "blockHash": "0x20dabf76fdd4a6c910901b3b8ed6590007fd423d4f37f0763a5bd2145e6ddd70",
          "blockNumber": "0x7317d5",
          "transactionHash": "0xedb581964c668b8f0749e204363c4d1e65b93fae6c21238aea724d1e0ae794f8",
          "transactionIndex": "0x7f",
          "logIndex": "0xaf",
          "removed": false
        },
        {
          "address": "0x8aafd3ede9adb0ff97c7aebce82a919afb1c8764",
          "topics": [
            "0xddf252ad1be2c89b69c2b068fc378daa952ba7f163c4a11628f55a4df523b3ef",
            "0x000000000000000000000000c77f7fed3b5cc8249adc428c5f44c9063b9734b4",
            "0x000000000000000000000000c77f7fed3b5cc8249adc428c5f44c9063b9734b4"
          ],
          "data": "0x000000000000000000000000000000000000000000000000000002990edaf95d",
          "blockHash": "0x20dabf76fdd4a6c910901b3b8ed6590007fd423d4f37f0763a5bd2145e6ddd70",
          "blockNumber": "0x7317d5",
          "transactionHash": "0xedb581964c668b8f0749e204363c4d1e65b93fae6c21238aea724d1e0ae794f8",
          "transactionIndex": "0x7f",
          "logIndex": "0xb0",
          "removed": false
        },
        {
          "address": "0x8aafd3ede9adb0ff97c7aebce82a919afb1c8764",
          "topics": [
            "0x4afcb4a87cdbd9974efdb92ee48bc8d7cd0ae4bf217004db3d080cbaee652ca7"
          ],
          "data": "0x0000000000000000000000000000000000000000000000000000000067901ac000000000000000000000000000000000000000000000000000051084492f8a570000000000000000000000000000000000000000000000000000007682096f52",
          "blockHash": "0x20dabf76fdd4a6c910901b3b8ed6590007fd423d4f37f0763a5bd2145e6ddd70",
          "blockNumber": "0x7317d5",
          "transactionHash": "0xedb581964c668b8f0749e204363c4d1e65b93fae6c21238aea724d1e0ae794f8",
          "transactionIndex": "0x7f",
          "logIndex": "0xb1",
          "removed": false
        }
      ],
      "logsBloom": "0x00000000000000000000000000000000000000000600000000000000000000000000000000000000000000000000000000000000000000004000000000000000000000000000004000000008000000000000000000000000000000000000000000000000020000000000000000000800020000000000000000000010000000000000000000000000000000000000000000000000000000000000010000000000000000000000000000000000000000004000000000000000000000000000000000000002000000800000000000000000000000000000080000000000000020000000000000000000000000000000000000000000000000000000000000000000",
      "type": "0x2",
      "transactionHash": "0xedb581964c668b8f0749e204363c4d1e65b93fae6c21238aea724d1e0ae794f8",
      "transactionIndex": "0x7f",
      "blockHash": "0x20dabf76fdd4a6c910901b3b8ed6590007fd423d4f37f0763a5bd2145e6ddd70",
      "blockNumber": "0x7317d5",
      "gasUsed": "0xfd33",
      "effectiveGasPrice": "0x4455c0c0",
      "from": "0xc77f7fed3b5cc8249adc428c5f44c9063b9734b4",
      "to": "0x8aafd3ede9adb0ff97c7aebce82a919afb1c8764",
      "contractAddress": null
    }
  ],
  "libraries": [],
  "pending": [],
  "returns": {},
  "timestamp": 1737497280,
  "chain": 11155111,
  "commit": "1d2fb70"
}