{
  "transactions": [
    {
      "hash": "0x0e59a04dc79fe38a7ed0595ef14f86a49badf9702ec99a7735aa9ec37c0b6db2",
      "transactionType": "CALL",
      "contractName": null,
      "contractAddress": "0x5eb9cc76c3506942c1c0ead70e877dd5e4f00cb0",
      "function": "sell(uint256)",
      "arguments": [
        "989093624985406909987"
      ],
      "transaction": {
        "from": "0xc77f7fed3b5cc8249adc428c5f44c9063b9734b4",
        "to": "0x5eb9cc76c3506942c1c0ead70e877dd5e4f00cb0",
        "gas": "0x16fec",
        "value": "0x0",
        "input": "0xe4849b320000000000000000000000000000000000000000000000359e6e737b4a9bae23",
        "nonce": "0x429",
        "chainId": "0xaa36a7"
      },
      "additionalContracts": [],
      "isFixedGasLimit": false
    }
  ],
  "receipts": [
    {
      "status": "0x1",
      "cumulativeGasUsed": "0x9c674b",
      "logs": [
        {
          "address": "0x5eb9cc76c3506942c1c0ead70e877dd5e4f00cb0",
          "topics": [
            "0xddf252ad1be2c89b69c2b068fc378daa952ba7f163c4a11628f55a4df523b3ef",
            "0x000000000000000000000000c77f7fed3b5cc8249adc428c5f44c9063b9734b4",
            "0x0000000000000000000000000000000000000000000000000000000000000000"
          ],
          "data": "0x0000000000000000000000000000000000000000000000359e6e737b4a9bae23",
          "blockHash": "0x4c9046feea9e09d95e5ec5569c4f3a64a6383b94160fe06954d4019c09957b31",
          "blockNumber": "0x72503e",
          "transactionHash": "0x0e59a04dc79fe38a7ed0595ef14f86a49badf9702ec99a7735aa9ec37c0b6db2",
          "transactionIndex": "0x54",
          "logIndex": "0x8f",
          "removed": false
        },
        {
          "address": "0x5eb9cc76c3506942c1c0ead70e877dd5e4f00cb0",
          "topics": [
            "0x4afcb4a87cdbd9974efdb92ee48bc8d7cd0ae4bf217004db3d080cbaee652ca7"
          ],
          "data": "0x000000000000000000000000000000000000000000000000000000006786b4b400000000000000000000000000000000000000000000000000039116fa8a1b1f0000000000000000000000000000000000000000000000000dc7db1331dc1ad3",
          "blockHash": "0x4c9046feea9e09d95e5ec5569c4f3a64a6383b94160fe06954d4019c09957b31",
          "blockNumber": "0x72503e",
          "transactionHash": "0x0e59a04dc79fe38a7ed0595ef14f86a49badf9702ec99a7735aa9ec37c0b6db2",
          "transactionIndex": "0x54",
          "logIndex": "0x90",
          "removed": false
        }
      ],
      "logsBloom": "0x00000000000000000000000000000000000000000000000000000000000000000000000000000000000000000000000000000000000000004000000000000000000000000000000000000008000000000000000000000000000000000000000000000000020000000000000004000800020000000000000000000010000000000000000000000000000000000000000000000000000000000000010000000000000000000000000000000000000000004000000000000000000000000000020000000002000000800000008000000000000000000000080000000000000020000000000000000000000000000000000000000000000000000000000000000000",
      "type": "0x2",
      "transactionHash": "0x0e59a04dc79fe38a7ed0595ef14f86a49badf9702ec99a7735aa9ec37c0b6db2",
      "transactionIndex": "0x54",
      "blockHash": "0x4c9046feea9e09d95e5ec5569c4f3a64a6383b94160fe06954d4019c09957b31",
      "blockNumber": "0x72503e",
      "gasUsed": "0xfb93",
      "effectiveGasPrice": "0x28e9668e0",
      "from": "0xc77f7fed3b5cc8249adc428c5f44c9063b9734b4",
      "to": "0x5eb9cc76c3506942c1c0ead70e877dd5e4f00cb0",
      "contractAddress": null
    }
  ],
  "libraries": [],
  "pending": [],
  "returns": {},
  "timestamp": 1736881334,
  "chain": 11155111,
  "commit": "51a374b"
}