{
  "transactions": [
    {
      "hash": "0xdb10fa9a05cd7dc00823b9eaa28b8b058377525af55f0ecda2cb190f69d7ab07",
      "transactionType": "CALL",
      "contractName": null,
      "contractAddress": "0xbf4a322f1496e5c3d34a9bcdb4c60567b38c7de2",
      "function": "sell(uint256)",
      "arguments": [
        "992938592339863008708"
      ],
      "transaction": {
        "from": "0xc77f7fed3b5cc8249adc428c5f44c9063b9734b4",
        "to": "0xbf4a322f1496e5c3d34a9bcdb4c60567b38c7de2",
        "gas": "0x16fea",
        "value": "0x0",
        "input": "0xe4849b32000000000000000000000000000000000000000000000035d3ca84eb41eff5c4",
        "nonce": "0x8cc",
        "chainId": "0xaa36a7"
      },
      "additionalContracts": [],
      "isFixedGasLimit": false
    }
  ],
  "receipts": [
    {
      "status": "0x1",
      "cumulativeGasUsed": "0x17e3e88",
      "logs": [
        {
          "address": "0xbf4a322f1496e5c3d34a9bcdb4c60567b38c7de2",
          "topics": [
            "0xddf252ad1be2c89b69c2b068fc378daa952ba7f163c4a11628f55a4df523b3ef",
            "0x000000000000000000000000c77f7fed3b5cc8249adc428c5f44c9063b9734b4",
            "0x0000000000000000000000000000000000000000000000000000000000000000"
          ],
          "data": "0x000000000000000000000000000000000000000000000035d3ca84eb41eff5c4",
          "blockHash": "0x23c0de9a04979c395af60f6fcd294d53a1aadb4c362d1131a7ad89858df1ef7a",
          "blockNumber": "0x725837",
          "transactionHash": "0xdb10fa9a05cd7dc00823b9eaa28b8b058377525af55f0ecda2cb190f69d7ab07",
          "transactionIndex": "0x83",
          "logIndex": "0xf1",
          "removed": false
        },
        {
          "address": "0xbf4a322f1496e5c3d34a9bcdb4c60567b38c7de2",
          "topics": [
            "0x4afcb4a87cdbd9974efdb92ee48bc8d7cd0ae4bf217004db3d080cbaee652ca7"
          ],
          "data": "0x00000000000000000000000000000000000000000000000000000000678714b400000000000000000000000000000000000000000000000000038d95464867c00000000000000000000000000000000000000000000000000dc7e57be77db888",
          "blockHash": "0x23c0de9a04979c395af60f6fcd294d53a1aadb4c362d1131a7ad89858df1ef7a",
          "blockNumber": "0x725837",
          "transactionHash": "0xdb10fa9a05cd7dc00823b9eaa28b8b058377525af55f0ecda2cb190f69d7ab07",
          "transactionIndex": "0x83",
          "logIndex": "0xf2",
          "removed": false
        }
      ],
      "logsBloom": "0x00000000000000000000000000000000000000000000000000000000000000000000000000000000000000000000000000000000000000004000000000000000000000000000000000000008000000000000001000000000000000000000000000000000020000000000000000000800020000000000000000000010000000000000000000000000000000000000000000000000000008000000010000000000000000000000000000000000000000004000000000000000000000000000000000000002000000800000000000001000000000000000080000000000000020000000000000000000000000000000000000000000000000000000000000000000",
      "type": "0x2",
      "transactionHash": "0xdb10fa9a05cd7dc00823b9eaa28b8b058377525af55f0ecda2cb190f69d7ab07",
      "transactionIndex": "0x83",
      "blockHash": "0x23c0de9a04979c395af60f6fcd294d53a1aadb4c362d1131a7ad89858df1ef7a",
      "blockNumber": "0x725837",
      "gasUsed": "0xfb91",
      "effectiveGasPrice": "0x24fa3592",
      "from": "0xc77f7fed3b5cc8249adc428c5f44c9063b9734b4",
      "to": "0xbf4a322f1496e5c3d34a9bcdb4c60567b38c7de2",
      "contractAddress": null
    }
  ],
  "libraries": [],
  "pending": [],
  "returns": {},
  "timestamp": 1736905909,
  "chain": 11155111,
  "commit": "51a374b"
}