{
  "transactions": [
    {
      "hash": "0xf5cb4a9ff3243fb08d4833f6289288c51183ec23ce4cf39c385c916e580c71da",
      "transactionType": "CALL",
      "contractName": null,
      "contractAddress": "0x270e88f8683660553e8ba4eb2ad7c91a1710d769",
      "function": "buy(address)",
      "arguments": [
        "0xC77f7fed3b5Cc8249aDc428c5F44C9063B9734b4"
      ],
      "transaction": {
        "from": "0xc77f7fed3b5cc8249adc428c5f44c9063b9734b4",
        "to": "0x270e88f8683660553e8ba4eb2ad7c91a1710d769",
        "gas": "0x1b30c",
        "value": "0xde0b6b3a7640000",
        "input": "0xf088d547000000000000000000000000c77f7fed3b5cc8249adc428c5f44c9063b9734b4",
        "nonce": "0x65a",
        "chainId": "0xaa36a7"
      },
      "additionalContracts": [],
      "isFixedGasLimit": false
    }
  ],
  "receipts": [
    {
      "status": "0x1",
      "cumulativeGasUsed": "0x1c4cf8c",
      "logs": [
        {
          "address": "0x270e88f8683660553e8ba4eb2ad7c91a1710d769",
          "topics": [
            "0xddf252ad1be2c89b69c2b068fc378daa952ba7f163c4a11628f55a4df523b3ef",
            "0x0000000000000000000000000000000000000000000000000000000000000000",
            "0x000000000000000000000000c77f7fed3b5cc8249adc428c5f44c9063b9734b4"
          ],
          "data": "0x00000000000000000000000000000000000000000000002c9190b5d420cd1cfd",
          "blockHash": "0xd22df0dee4071dc10e6b34648591d4cb5c2f2f251dee6588823c68908be28dda",
          "blockNumber": "0x72534d",
          "transactionHash": "0xf5cb4a9ff3243fb08d4833f6289288c51183ec23ce4cf39c385c916e580c71da",
          "transactionIndex": "0x47",
          "logIndex": "0x283",
          "removed": false
        },
        {
          "address": "0x270e88f8683660553e8ba4eb2ad7c91a1710d769",
          "topics": [
            "0xddf252ad1be2c89b69c2b068fc378daa952ba7f163c4a11628f55a4df523b3ef",
            "0x0000000000000000000000000000000000000000000000000000000000000000",
            "0x000000000000000000000000c77f7fed3b5cc8249adc428c5f44c9063b9734b4"
          ],
          "data": "0x000000000000000000000000000000000000000000000000229beaa73db7acb0",
          "blockHash": "0xd22df0dee4071dc10e6b34648591d4cb5c2f2f251dee6588823c68908be28dda",
          "blockNumber": "0x72534d",
          "transactionHash": "0xf5cb4a9ff3243fb08d4833f6289288c51183ec23ce4cf39c385c916e580c71da",
          "transactionIndex": "0x47",
          "logIndex": "0x284",
          "removed": false
        },
        {
          "address": "0x270e88f8683660553e8ba4eb2ad7c91a1710d769",
          "topics": [
            "0x4afcb4a87cdbd9974efdb92ee48bc8d7cd0ae4bf217004db3d080cbaee652ca7"
          ],
          "data": "0x000000000000000000000000000000000000000000000000000000006786d9a400000000000000000000000000000000000000000000000000044730986996290000000000000000000000000000000000000000000000000de0b6b3a7640000",
          "blockHash": "0xd22df0dee4071dc10e6b34648591d4cb5c2f2f251dee6588823c68908be28dda",
          "blockNumber": "0x72534d",
          "transactionHash": "0xf5cb4a9ff3243fb08d4833f6289288c51183ec23ce4cf39c385c916e580c71da",
          "transactionIndex": "0x47",
          "logIndex": "0x285",
          "removed": false
        }
      ],
      "logsBloom": "0x00000000000000000000000000000000000000000000000000000000000000000000000000000000000000000000000020000000000000004000000000000000000000000000000000000008000000000000000000000000000000000000000000000000020000000000000000000800020000000000000000000010000000000000000000010000000000000000000000000000000000000000010000000000000000000000000000000000000000004000000000000000000000000000000000000002000000800000000000000000000000000000080000008000000020000000000000000000000000000000000000000000000000000000000000000000",
      "type": "0x2",
      "transactionHash": "0xf5cb4a9ff3243fb08d4833f6289288c51183ec23ce4cf39c385c916e580c71da",
      "transactionIndex": "0x47",
      "blockHash": "0xd22df0dee4071dc10e6b34648591d4cb5c2f2f251dee6588823c68908be28dda",
      "blockNumber": "0x72534d",
      "gasUsed": "0x13af8",
      "effectiveGasPrice": "0x341c7a494",
      "from": "0xc77f7fed3b5cc8249adc428c5f44c9063b9734b4",
      "to": "0x270e88f8683660553e8ba4eb2ad7c91a1710d769",
      "contractAddress": null
    }
  ],
  "libraries": [],
  "pending": [],
  "returns": {},
  "timestamp": 1736890790,
  "chain": 11155111,
  "commit": "51a374b"
}