{
  "transactions": [
    {
      "hash": "0x444630a9e69a80942be6227265174739898f41d9a0f220ffbe12c3a7e5b3df08",
      "transactionType": "CALL",
      "contractName": null,
      "contractAddress": "0x8aafd3ede9adb0ff97c7aebce82a919afb1c8764",
      "function": "sell(uint256)",
      "arguments": [
        "73937663102771"
      ],
      "transaction": {
        "from": "0xc77f7fed3b5cc8249adc428c5f44c9063b9734b4",
        "to": "0x8aafd3ede9adb0ff97c7aebce82a919afb1c8764",
        "gas": "0x15daa",
        "value": "0x0",
        "input": "0xe4849b320000000000000000000000000000000000000000000000000000433ef4250f33",
        "nonce": "0x1781",
        "chainId": "0xaa36a7"
      },
      "additionalContracts": [],
      "isFixedGasLimit": false
    }
  ],
  "receipts": [
    {
      "status": "0x1",
      "cumulativeGasUsed": "0x713aca",
      "logs": [
        {
          "address": "0x8aafd3ede9adb0ff97c7aebce82a919afb1c8764",
          "topics": [
            "0xddf252ad1be2c89b69c2b068fc378daa952ba7f163c4a11628f55a4df523b3ef",
            "0x000000000000000000000000c77f7fed3b5cc8249adc428c5f44c9063b9734b4",
            "0x0000000000000000000000000000000000000000000000000000000000000000"
          ],
          "data": "0x000000000000000000000000000000000000000000000000000042b53beb6b3d",
          "blockHash": "0x1b044b860fc98a9fadff6d14be363eb4f44237458a5bf1319dfeb6ccbc27aae5",
          "blockNumber": "0x731f5c",
          "transactionHash": "0x444630a9e69a80942be6227265174739898f41d9a0f220ffbe12c3a7e5b3df08",
          "transactionIndex": "0x58",
          "logIndex": "0x8a",
          "removed": false
        },
        {
          "address": "0x8aafd3ede9adb0ff97c7aebce82a919afb1c8764",
          "topics": [
            "0xddf252ad1be2c89b69c2b068fc378daa952ba7f163c4a11628f55a4df523b3ef",
            "0x000000000000000000000000c77f7fed3b5cc8249adc428c5f44c9063b9734b4",
            "0x000000000000000000000000c77f7fed3b5cc8249adc428c5f44c9063b9734b4"
          ],
          "data": "0x00000000000000000000000000000000000000000000000000000089b839a3f6",
          "blockHash": "0x1b044b860fc98a9fadff6d14be363eb4f44237458a5bf1319dfeb6ccbc27aae5",
          "blockNumber": "0x731f5c",
          "transactionHash": "0x444630a9e69a80942be6227265174739898f41d9a0f220ffbe12c3a7e5b3df08",
          "transactionIndex": "0x58",
          "logIndex": "0x8b",
          "removed": false
        },
        {
          "address": "0x8aafd3ede9adb0ff97c7aebce82a919afb1c8764",
          "topics": [
            "0x4afcb4a87cdbd9974efdb92ee48bc8d7cd0ae4bf217004db3d080cbaee652ca7"
          ],
          "data": "0x0000000000000000000000000000000000000000000000000000000067907538000000000000000000000000000000000000000000000000001888f5227c40b800000000000000000000000000000000000000000000000000000076e2dfc0f4",
          "blockHash": "0x1b044b860fc98a9fadff6d14be363eb4f44237458a5bf1319dfeb6ccbc27aae5",
          "blockNumber": "0x731f5c",
          "transactionHash": "0x444630a9e69a80942be6227265174739898f41d9a0f220ffbe12c3a7e5b3df08",
          "transactionIndex": "0x58",
          "logIndex": "0x8c",
          "removed": false
        }
      ],
      "logsBloom": "0x00000000000000000000000000000000000000000600000000000000000000000000000000000000000000000000000000000000000000004000000000000000000000000000004000000008000000000000000000000000000000000000000000000000020000000000000000000800020000000000000000000010000000000000000000000000000000000000000000000000000000000000010000000000000000000000000000000000000000004000000000000000000000000000000000000002000000800000000000000000000000000000080000000000000020000000000000000000000000000000000000000000000000000000000000000000",
      "type": "0x2",
      "transactionHash": "0x444630a9e69a80942be6227265174739898f41d9a0f220ffbe12c3a7e5b3df08",
      "transactionIndex": "0x58",
      "blockHash": "0x1b044b860fc98a9fadff6d14be363eb4f44237458a5bf1319dfeb6ccbc27aae5",
      "blockNumber": "0x731f5c",
      "gasUsed": "0xfd27",
      "effectiveGasPrice": "0x4827fe3e",
      "from": "0xc77f7fed3b5cc8249adc428c5f44c9063b9734b4",
      "to": "0x8aafd3ede9adb0ff97c7aebce82a919afb1c8764",
      "contractAddress": null
    }
  ],
  "libraries": [],
  "pending": [],
  "returns": {},
  "timestamp": 1737520442,
  "chain": 11155111,
  "commit": "1d2fb70"
}