{
  "transactions": [
    {
      "hash": "0x4a156dddd081b23a943b7266daaee5ff02e33a1bd4f58c54b0e1f02b8b383362",
      "transactionType": "CALL",
      "contractName": null,
      "contractAddress": "0x270e88f8683660553e8ba4eb2ad7c91a1710d769",
      "function": "buy(address)",
      "arguments": [
        "0xC77f7fed3b5Cc8249aDc428c5F44C9063B9734b4"
      ],
      "transaction": {
        "from": "0xc77f7fed3b5cc8249adc428c5f44c9063b9734b4",
        "to": "0x270e88f8683660553e8ba4eb2ad7c91a1710d769",
        "gas": "0x1b30c",
        "value": "0xde0b6b3a7640000",
        "input": "0xf088d547000000000000000000000000c77f7fed3b5cc8249adc428c5f44c9063b9734b4",
        "nonce": "0x6e3",
        "chainId": "0xaa36a7"
      },
      "additionalContracts": [],
      "isFixedGasLimit": false
    }
  ],
  "receipts": [
    {
      "status": "0x1",
      "cumulativeGasUsed": "0x125913e",
      "logs": [
        {
          "address": "0x270e88f8683660553e8ba4eb2ad7c91a1710d769",
          "topics": [
            "0xddf252ad1be2c89b69c2b068fc378daa952ba7f163c4a11628f55a4df523b3ef",
            "0x0000000000000000000000000000000000000000000000000000000000000000",
            "0x000000000000000000000000c77f7fed3b5cc8249adc428c5f44c9063b9734b4"
          ],
          "data": "0x0000000000000000000000000000000000000000000000286acf7ac373b0a636",
          "blockHash": "0xa8e98659ceb81c01684e3bbc435dd3fa0b0d6d63f1d08950996967aa4820bb07",
          "blockNumber": "0x7253f6",
          "transactionHash": "0x4a156dddd081b23a943b7266daaee5ff02e33a1bd4f58c54b0e1f02b8b383362",
          "transactionIndex": "0x4c",
          "logIndex": "0x81",
          "removed": false
        },
        {
          "address": "0x270e88f8683660553e8ba4eb2ad7c91a1710d769",
          "topics": [
            "0xddf252ad1be2c89b69c2b068fc378daa952ba7f163c4a11628f55a4df523b3ef",
            "0x0000000000000000000000000000000000000000000000000000000000000000",
            "0x000000000000000000000000c77f7fed3b5cc8249adc428c5f44c9063b9734b4"
          ],
          "data": "0x0000000000000000000000000000000000000000000000001f62a6b8b5882853",
          "blockHash": "0xa8e98659ceb81c01684e3bbc435dd3fa0b0d6d63f1d08950996967aa4820bb07",
          "blockNumber": "0x7253f6",
          "transactionHash": "0x4a156dddd081b23a943b7266daaee5ff02e33a1bd4f58c54b0e1f02b8b383362",
          "transactionIndex": "0x4c",
          "logIndex": "0x82",
          "removed": false
        },
        {
          "address": "0x270e88f8683660553e8ba4eb2ad7c91a1710d769",
          "topics": [
            "0x4afcb4a87cdbd9974efdb92ee48bc8d7cd0ae4bf217004db3d080cbaee652ca7"
          ],
          "data": "0x000000000000000000000000000000000000000000000000000000006786e1900000000000000000000000000000000000000000000000000004b7c6ef5baee20000000000000000000000000000000000000000000000000de0b6b3a7640000",
          "blockHash": "0xa8e98659ceb81c01684e3bbc435dd3fa0b0d6d63f1d08950996967aa4820bb07",
          "blockNumber": "0x7253f6",
          "transactionHash": "0x4a156dddd081b23a943b7266daaee5ff02e33a1bd4f58c54b0e1f02b8b383362",
          "transactionIndex": "0x4c",
          "logIndex": "0x83",
          "removed": false
        }
      ],
      "logsBloom": "0x00000000000000000000000000000000000000000000000000000000000000000000000000000000000000000000000020000000000000004000000000000000000000000000000000000008000000000000000000000000000000000000000000000000020000000000000000000800020000000000000000000010000000000000000000010000000000000000000000000000000000000000010000000000000000000000000000000000000000004000000000000000000000000000000000000002000000800000000000000000000000000000080000008000000020000000000000000000000000000000000000000000000000000000000000000000",
      "type": "0x2",
      "transactionHash": "0x4a156dddd081b23a943b7266daaee5ff02e33a1bd4f58c54b0e1f02b8b383362",
      "transactionIndex": "0x4c",
      "blockHash": "0xa8e98659ceb81c01684e3bbc435dd3fa0b0d6d63f1d08950996967aa4820bb07",
      "blockNumber": "0x7253f6",
      "gasUsed": "0x13af8",
      "effectiveGasPrice": "0x155e3586a",
      "from": "0xc77f7fed3b5cc8249adc428c5f44c9063b9734b4",
      "to": "0x270e88f8683660553e8ba4eb2ad7c91a1710d769",
      "contractAddress": null
    }
  ],
  "libraries": [],
  "pending": [],
  "returns": {},
  "timestamp": 1736892817,
  "chain": 11155111,
  "commit": "51a374b"
}