{
  "transactions": [
    {
      "hash": "0xe459b41ee7758ee37a3f2d39c06c9984745b76044cf62b772ca588620412d3c4",
      "transactionType": "CALL",
      "contractName": null,
      "contractAddress": "0xbf4a322f1496e5c3d34a9bcdb4c60567b38c7de2",
      "function": "buy(address)",
      "arguments": [
        "0xC77f7fed3b5Cc8249aDc428c5F44C9063B9734b4"
      ],
      "transaction": {
        "from": "0xc77f7fed3b5cc8249adc428c5f44c9063b9734b4",
        "to": "0xbf4a322f1496e5c3d34a9bcdb4c60567b38c7de2",
        "gas": "0x1b309",
        "value": "0xde0b6b3a7640000",
        "input": "0xf088d547000000000000000000000000c77f7fed3b5cc8249adc428c5f44c9063b9734b4",
        "nonce": "0x910",
        "chainId": "0xaa36a7"
      },
      "additionalContracts": [],
      "isFixedGasLimit": false
    }
  ],
  "receipts": [
    {
      "status": "0x1",
      "cumulativeGasUsed": "0x1d8a563",
      "logs": [
        {
          "address": "0xbf4a322f1496e5c3d34a9bcdb4c60567b38c7de2",
          "topics": [
            "0xddf252ad1be2c89b69c2b068fc378daa952ba7f163c4a11628f55a4df523b3ef",
            "0x0000000000000000000000000000000000000000000000000000000000000000",
            "0x000000000000000000000000c77f7fed3b5cc8249adc428c5f44c9063b9734b4"
          ],
          "data": "0x000000000000000000000000000000000000000000000035889b61cfa39064b1",
          "blockHash": "0x1f816120d479829ba4b4f6ce89ba5d86320c815913ada7fa798c5f9ac06a0601",
          "blockNumber": "0x72588e",
          "transactionHash": "0xe459b41ee7758ee37a3f2d39c06c9984745b76044cf62b772ca588620412d3c4",
          "transactionIndex": "0xbd",
          "logIndex": "0x103",
          "removed": false
        },
        {
          "address": "0xbf4a322f1496e5c3d34a9bcdb4c60567b38c7de2",
          "topics": [
            "0xddf252ad1be2c89b69c2b068fc378daa952ba7f163c4a11628f55a4df523b3ef",
            "0x0000000000000000000000000000000000000000000000000000000000000000",
            "0x000000000000000000000000c77f7fed3b5cc8249adc428c5f44c9063b9734b4"
          ],
          "data": "0x00000000000000000000000000000000000000000000000029921842b2863c1d",
          "blockHash": "0x1f816120d479829ba4b4f6ce89ba5d86320c815913ada7fa798c5f9ac06a0601",
          "blockNumber": "0x72588e",
          "transactionHash": "0xe459b41ee7758ee37a3f2d39c06c9984745b76044cf62b772ca588620412d3c4",
          "transactionIndex": "0xbd",
          "logIndex": "0x104",
          "removed": false
        },
        {
          "address": "0xbf4a322f1496e5c3d34a9bcdb4c60567b38c7de2",
          "topics": [
            "0x4afcb4a87cdbd9974efdb92ee48bc8d7cd0ae4bf217004db3d080cbaee652ca7"
          ],
          "data": "0x00000000000000000000000000000000000000000000000000000000678718d400000000000000000000000000000000000000000000000000038fc973a056dc0000000000000000000000000000000000000000000000000de0b6b3a7640000",
          "blockHash": "0x1f816120d479829ba4b4f6ce89ba5d86320c815913ada7fa798c5f9ac06a0601",
          "blockNumber": "0x72588e",
          "transactionHash": "0xe459b41ee7758ee37a3f2d39c06c9984745b76044cf62b772ca588620412d3c4",
          "transactionIndex": "0xbd",
          "logIndex": "0x105",
          "removed": false
        }
      ],
      "logsBloom": "0x00000000000000000000000000000000000000000000000000000000000000000000000000000000000000000000000000000000000000004000000000000000000000000000000000000008000000000000001000000000000000000000000000000000020000000000000000000800020000000000000000000010000000000000000000000000000000000000000000000000000008000000010000000000000000000000000000000000000000004000000000000000000000000000000000000002000000800000000000001000000000000000080000000000000020000000000000000000000000000000000000000000000000000000000000000000",
      "type": "0x2",
      "transactionHash": "0xe459b41ee7758ee37a3f2d39c06c9984745b76044cf62b772ca588620412d3c4",
      "transactionIndex": "0xbd",
      "blockHash": "0x1f816120d479829ba4b4f6ce89ba5d86320c815913ada7fa798c5f9ac06a0601",
      "blockNumber": "0x72588e",
      "gasUsed": "0x13af6",
      "effectiveGasPrice": "0x320992b9",
      "from": "0xc77f7fed3b5cc8249adc428c5f44c9063b9734b4",
      "to": "0xbf4a322f1496e5c3d34a9bcdb4c60567b38c7de2",
      "contractAddress": null
    }
  ],
  "libraries": [],
  "pending": [],
  "returns": {},
  "timestamp": 1736906965,
  "chain": 11155111,
  "commit": "51a374b"
}