{
  "transactions": [
    {
      "hash": "0xcbc034078b5ca718a1a656b109151c6677e0062fd7029cb98631717aa22f982b",
      "transactionType": "CALL",
      "contractName": null,
      "contractAddress": "0x8aafd3ede9adb0ff97c7aebce82a919afb1c8764",
      "function": "sell(uint256)",
      "arguments": [
        "2793723239679"
      ],
      "transaction": {
        "from": "0xc77f7fed3b5cc8249adc428c5f44c9063b9734b4",
        "to": "0x8aafd3ede9adb0ff97c7aebce82a919afb1c8764",
        "gas": "0x15daa",
        "value": "0x0",
        "input": "0xe4849b320000000000000000000000000000000000000000000000000000028a76e19cff",
        "nonce": "0x11e9",
        "chainId": "0xaa36a7"
      },
      "additionalContracts": [],
      "isFixedGasLimit": false
    }
  ],
  "receipts": [
    {
      "status": "0x1",
      "cumulativeGasUsed": "0xa6e1f1",
      "logs": [
        {
          "address": "0x8aafd3ede9adb0ff97c7aebce82a919afb1c8764",
          "topics": [
            "0xddf252ad1be2c89b69c2b068fc378daa952ba7f163c4a11628f55a4df523b3ef",
            "0x000000000000000000000000c77f7fed3b5cc8249adc428c5f44c9063b9734b4",
            "0x0000000000000000000000000000000000000000000000000000000000000000"
          ],
          "data": "0x0000000000000000000000000000000000000000000000000000028542baf1c2",
          "blockHash": "0x67252f644d58881b215b7be22bbfc206d47c14d03f0757c7ea590371490ecace",
          "blockNumber": "0x7318c0",
          "transactionHash": "0xcbc034078b5ca718a1a656b109151c6677e0062fd7029cb98631717aa22f982b",
          "transactionIndex": "0x73",
          "logIndex": "0x98",
          "removed": false
        },
        {
          "address": "0x8aafd3ede9adb0ff97c7aebce82a919afb1c8764",
          "topics": [
            "0xddf252ad1be2c89b69c2b068fc378daa952ba7f163c4a11628f55a4df523b3ef",
            "0x000000000000000000000000c77f7fed3b5cc8249adc428c5f44c9063b9734b4",
            "0x000000000000000000000000c77f7fed3b5cc8249adc428c5f44c9063b9734b4"
          ],
          "data": "0x000000000000000000000000000000000000000000000000000000053426ab3d",
          "blockHash": "0x67252f644d58881b215b7be22bbfc206d47c14d03f0757c7ea590371490ecace",
          "blockNumber": "0x7318c0",
          "transactionHash": "0xcbc034078b5ca718a1a656b109151c6677e0062fd7029cb98631717aa22f982b",
          "transactionIndex": "0x73",
          "logIndex": "0x99",
          "removed": false
        },
        {
          "address": "0x8aafd3ede9adb0ff97c7aebce82a919afb1c8764",
          "topics": [
            "0x4afcb4a87cdbd9974efdb92ee48bc8d7cd0ae4bf217004db3d080cbaee652ca7"
          ],
          "data": "0x00000000000000000000000000000000000000000000000000000000679025d000000000000000000000000000000000000000000000000000052d92a77317f800000000000000000000000000000000000000000000000000000000f2b2ca7d",
          "blockHash": "0x67252f644d58881b215b7be22bbfc206d47c14d03f0757c7ea590371490ecace",
          "blockNumber": "0x7318c0",
          "transactionHash": "0xcbc034078b5ca718a1a656b109151c6677e0062fd7029cb98631717aa22f982b",
          "transactionIndex": "0x73",
          "logIndex": "0x9a",
          "removed": false
        }
      ],
      "logsBloom": "0x00000000000000000000000000000000000000000600000000000000000000000000000000000000000000000000000000000000000000004000000000000000000000000000004000000008000000000000000000000000000000000000000000000000020000000000000000000800020000000000000000000010000000000000000000000000000000000000000000000000000000000000010000000000000000000000000000000000000000004000000000000000000000000000000000000002000000800000000000000000000000000000080000000000000020000000000000000000000000000000000000000000000000000000000000000000",
      "type": "0x2",
      "transactionHash": "0xcbc034078b5ca718a1a656b109151c6677e0062fd7029cb98631717aa22f982b",
      "transactionIndex": "0x73",
      "blockHash": "0x67252f644d58881b215b7be22bbfc206d47c14d03f0757c7ea590371490ecace",
      "blockNumber": "0x7318c0",
      "gasUsed": "0xfd27",
      "effectiveGasPrice": "0x53a95e75",
      "from": "0xc77f7fed3b5cc8249adc428c5f44c9063b9734b4",
      "to": "0x8aafd3ede9adb0ff97c7aebce82a919afb1c8764",
      "contractAddress": null
    }
  ],
  "libraries": [],
  "pending": [],
  "returns": {},
  "timestamp": 1737500114,
  "chain": 11155111,
  "commit": "1d2fb70"
}