{
  "transactions": [
    {
      "hash": "0xd7c3dc5389def5c53c653e4d0b368d0222dd48392a27ae4e2e576d907ab49f14",
      "transactionType": "CALL",
      "contractName": null,
      "contractAddress": "0xbf4a322f1496e5c3d34a9bcdb4c60567b38c7de2",
      "function": "buy(address)",
      "arguments": [
        "0xC77f7fed3b5Cc8249aDc428c5F44C9063B9734b4"
      ],
      "transaction": {
        "from": "0xc77f7fed3b5cc8249adc428c5f44c9063b9734b4",
        "to": "0xbf4a322f1496e5c3d34a9bcdb4c60567b38c7de2",
        "gas": "0x1b309",
        "value": "0xde0b6b3a7640000",
        "input": "0xf088d547000000000000000000000000c77f7fed3b5cc8249adc428c5f44c9063b9734b4",
        "nonce": "0xd8a",
        "chainId": "0xaa36a7"
      },
      "additionalContracts": [],
      "isFixedGasLimit": false
    }
  ],
  "receipts": [
    {
      "status": "0x1",
      "cumulativeGasUsed": "0x9e71c0",
      "logs": [
        {
          "address": "0xbf4a322f1496e5c3d34a9bcdb4c60567b38c7de2",
          "topics": [
            "0xddf252ad1be2c89b69c2b068fc378daa952ba7f163c4a11628f55a4df523b3ef",
            "0x0000000000000000000000000000000000000000000000000000000000000000",
            "0x000000000000000000000000c77f7fed3b5cc8249adc428c5f44c9063b9734b4"
          ],
          "data": "0x000000000000000000000000000000000000000000000034b2858a231b870fd5",
          "blockHash": "0xe074497694a8bb7556e084b914950527d18914e0db4c89579679efa0111ccf6a",
          "blockNumber": "0x72665c",
          "transactionHash": "0xd7c3dc5389def5c53c653e4d0b368d0222dd48392a27ae4e2e576d907ab49f14",
          "transactionIndex": "0x5c",
          "logIndex": "0x93",
          "removed": false
        },
        {
          "address": "0xbf4a322f1496e5c3d34a9bcdb4c60567b38c7de2",
          "topics": [
            "0xddf252ad1be2c89b69c2b068fc378daa952ba7f163c4a11628f55a4df523b3ef",
            "0x0000000000000000000000000000000000000000000000000000000000000000",
            "0x000000000000000000000000c77f7fed3b5cc8249adc428c5f44c9063b9734b4"
          ],
          "data": "0x00000000000000000000000000000000000000000000000028ebd9a788f6922d",
          "blockHash": "0xe074497694a8bb7556e084b914950527d18914e0db4c89579679efa0111ccf6a",
          "blockNumber": "0x72665c",
          "transactionHash": "0xd7c3dc5389def5c53c653e4d0b368d0222dd48392a27ae4e2e576d907ab49f14",
          "transactionIndex": "0x5c",
          "logIndex": "0x94",
          "removed": false
        },
        {
          "address": "0xbf4a322f1496e5c3d34a9bcdb4c60567b38c7de2",
          "topics": [
            "0x4afcb4a87cdbd9974efdb92ee48bc8d7cd0ae4bf217004db3d080cbaee652ca7"
          ],
          "data": "0x000000000000000000000000000000000000000000000000000000006787bf0000000000000000000000000000000000000000000000000000039e4196ee37a10000000000000000000000000000000000000000000000000de0b6b3a7640000",
          "blockHash": "0xe074497694a8bb7556e084b914950527d18914e0db4c89579679efa0111ccf6a",
          "blockNumber": "0x72665c",
          "transactionHash": "0xd7c3dc5389def5c53c653e4d0b368d0222dd48392a27ae4e2e576d907ab49f14",
          "transactionIndex": "0x5c",
          "logIndex": "0x95",
          "removed": false
        }
      ],
      "logsBloom": "0x00000000000000000000000000000000000000000000000000000000000000000000000000000000000000000000000000000000000000004000000000000000000000000000000000000008000000000000001000000000000000000000000000000000020000000000000000000800020000000000000000000010000000000000000000000000000000000000000000000000000008000000010000000000000000000000000000000000000000004000000000000000000000000000000000000002000000800000000000001000000000000000080000000000000020000000000000000000000000000000000000000000000000000000000000000000",
      "type": "0x2",
      "transactionHash": "0xd7c3dc5389def5c53c653e4d0b368d0222dd48392a27ae4e2e576d907ab49f14",
      "transactionIndex": "0x5c",
      "blockHash": "0xe074497694a8bb7556e084b914950527d18914e0db4c89579679efa0111ccf6a",
      "blockNumber": "0x72665c",
      "gasUsed": "0x13af6",
      "effectiveGasPrice": "0x8ea7314f",
      "from": "0xc77f7fed3b5cc8249adc428c5f44c9063b9734b4",
      "to": "0xbf4a322f1496e5c3d34a9bcdb4c60567b38c7de2",
      "contractAddress": null
    }
  ],
  "libraries": [],
  "pending": [],
  "returns": {},
  "timestamp": 1736949506,
  "chain": 11155111,
  "commit": "51a374b"
}