{
  "transactions": [
    {
      "hash": "0x52d9f8da417d0e3f8fc698941e6a7e98973120eb491969cdc7e76d8045a82195",
      "transactionType": "CALL",
      "contractName": null,
      "contractAddress": "0x270e88f8683660553e8ba4eb2ad7c91a1710d769",
      "function": "sell(uint256)",
      "arguments": [
        "737805919066740496013"
      ],
      "transaction": {
        "from": "0xc77f7fed3b5cc8249adc428c5f44c9063b9734b4",
        "to": "0x270e88f8683660553e8ba4eb2ad7c91a1710d769",
        "gas": "0x16fec",
        "value": "0x0",
        "input": "0xe4849b32000000000000000000000000000000000000000000000027ff1d2e53f1ac168d",
        "nonce": "0x754",
        "chainId": "0xaa36a7"
      },
      "additionalContracts": [],
      "isFixedGasLimit": false
    }
  ],
  "receipts": [
    {
      "status": "0x1",
      "cumulativeGasUsed": "0x12cb37a",
      "logs": [
        {
          "address": "0x270e88f8683660553e8ba4eb2ad7c91a1710d769",
          "topics": [
            "0xddf252ad1be2c89b69c2b068fc378daa952ba7f163c4a11628f55a4df523b3ef",
            "0x000000000000000000000000c77f7fed3b5cc8249adc428c5f44c9063b9734b4",
            "0x0000000000000000000000000000000000000000000000000000000000000000"
          ],
          "data": "0x000000000000000000000000000000000000000000000027ff1d2e53f1ac168d",
          "blockHash": "0xb6c0c74161c40c67400d8b342aec0a98e5b98ee329af7a0b392d125ea93fd387",
          "blockNumber": "0x72547a",
          "transactionHash": "0x52d9f8da417d0e3f8fc698941e6a7e98973120eb491969cdc7e76d8045a82195",
          "transactionIndex": "0x56",
          "logIndex": "0xa8",
          "removed": false
        },
        {
          "address": "0x270e88f8683660553e8ba4eb2ad7c91a1710d769",
          "topics": [
            "0x4afcb4a87cdbd9974efdb92ee48bc8d7cd0ae4bf217004db3d080cbaee652ca7"
          ],
          "data": "0x000000000000000000000000000000000000000000000000000000006786e7c00000000000000000000000000000000000000000000000000004c85e9b22b8fd0000000000000000000000000000000000000000000000000dc82845d75c4e4b",
          "blockHash": "0xb6c0c74161c40c67400d8b342aec0a98e5b98ee329af7a0b392d125ea93fd387",
          "blockNumber": "0x72547a",
          "transactionHash": "0x52d9f8da417d0e3f8fc698941e6a7e98973120eb491969cdc7e76d8045a82195",
          "transactionIndex": "0x56",
          "logIndex": "0xa9",
          "removed": false
        }
      ],
      "logsBloom": "0x00000000000000000000000000000000000000000000000000000000000000000000000000000000000000000000000020000000000000004000000000000000000000000000000000000008000000000000000000000000000000000000000000000000020000000000000000000800020000000000000000000010000000000000000000010000000000000000000000000000000000000000010000000000000000000000000000000000000000004000000000000000000000000000000000000002000000800000000000000000000000000000080000008000000020000000000000000000000000000000000000000000000000000000000000000000",
      "type": "0x2",
      "transactionHash": "0x52d9f8da417d0e3f8fc698941e6a7e98973120eb491969cdc7e76d8045a82195",
      "transactionIndex": "0x56",
      "blockHash": "0xb6c0c74161c40c67400d8b342aec0a98e5b98ee329af7a0b392d125ea93fd387",
      "blockNumber": "0x72547a",
      "gasUsed": "0xfb93",
      "effectiveGasPrice": "0x12f71c8ca",
      "from": "0xc77f7fed3b5cc8249adc428c5f44c9063b9734b4",
      "to": "0x270e88f8683660553e8ba4eb2ad7c91a1710d769",
      "contractAddress": null
    }
  ],
  "libraries": [],
  "pending": [],
  "returns": {},
  "timestamp": 1736894402,
  "chain": 11155111,
  "commit": "51a374b"
}