{
  "transactions": [
    {
      "hash": "0xb2bf9416311653dd78879c0cda2ebdfa719086bb6a542da5aca0602bbc81a76d",
      "transactionType": "CALL",
      "contractName": null,
      "contractAddress": "0x8aafd3ede9adb0ff97c7aebce82a919afb1c8764",
      "function": "sell(uint256)",
      "arguments": [
        "362745864740349"
      ],
      "transaction": {
        "from": "0xc77f7fed3b5cc8249adc428c5f44c9063b9734b4",
        "to": "0x8aafd3ede9adb0ff97c7aebce82a919afb1c8764",
        "gas": "0x1724d",
        "value": "0x0",
        "input": "0xe4849b32000000000000000000000000000000000000000000000000000149ea5a695dfd",
        "nonce": "0x1094",
        "chainId": "0xaa36a7"
      },
      "additionalContracts": [],
      "isFixedGasLimit": false
    }
  ],
  "receipts": [
    {
      "status": "0x1",
      "cumulativeGasUsed": "0x971c6a",
      "logs": [
        {
          "address": "0x8aafd3ede9adb0ff97c7aebce82a919afb1c8764",
          "topics": [
            "0xddf252ad1be2c89b69c2b068fc378daa952ba7f163c4a11628f55a4df523b3ef",
            "0x000000000000000000000000c77f7fed3b5cc8249adc428c5f44c9063b9734b4",
            "0x0000000000000000000000000000000000000000000000000000000000000000"
          ],
          "data": "0x00000000000000000000000000000000000000000000000000014746afb44cdb",
          "blockHash": "0x8cae537a455373d0c34ad13d694f2b026b4b27d677f66a3b86485bcb9e34dfc9",
          "blockNumber": "0x731722",
          "transactionHash": "0xb2bf9416311653dd78879c0cda2ebdfa719086bb6a542da5aca0602bbc81a76d",
          "transactionIndex": "0x7f",
          "logIndex": "0x8d",
          "removed": false
        },
        {
          "address": "0x8aafd3ede9adb0ff97c7aebce82a919afb1c8764",
          "topics": [
            "0xddf252ad1be2c89b69c2b068fc378daa952ba7f163c4a11628f55a4df523b3ef",
            "0x000000000000000000000000c77f7fed3b5cc8249adc428c5f44c9063b9734b4",
            "0x000000000000000000000000c77f7fed3b5cc8249adc428c5f44c9063b9734b4"
          ],
          "data": "0x000000000000000000000000000000000000000000000000000002a3aab51122",
          "blockHash": "0x8cae537a455373d0c34ad13d694f2b026b4b27d677f66a3b86485bcb9e34dfc9",
          "blockNumber": "0x731722",
          "transactionHash": "0xb2bf9416311653dd78879c0cda2ebdfa719086bb6a542da5aca0602bbc81a76d",
          "transactionIndex": "0x7f",
          "logIndex": "0x8e",
          "removed": false
        },
        {
          "address": "0x8aafd3ede9adb0ff97c7aebce82a919afb1c8764",
          "topics": [
            "0x4afcb4a87cdbd9974efdb92ee48bc8d7cd0ae4bf217004db3d080cbaee652ca7"
          ],
          "data": "0x000000000000000000000000000000000000000000000000000000006790125c0000000000000000000000000000000000000000000000000004fc2eaec8612c00000000000000000000000000000000000000000000000000000076829272a3",
          "blockHash": "0x8cae537a455373d0c34ad13d694f2b026b4b27d677f66a3b86485bcb9e34dfc9",
          "blockNumber": "0x731722",
          "transactionHash": "0xb2bf9416311653dd78879c0cda2ebdfa719086bb6a542da5aca0602bbc81a76d",
          "transactionIndex": "0x7f",
          "logIndex": "0x8f",
          "removed": false
        }
      ],
      "logsBloom": "0x00000000000000000000000000000000000000000600000000000000000000000000000000000000000000000000000000000000000000004000000000000000000000000000004000000008000000000000000000000000000000000000000000000000020000000000000000000800020000000000000000000010000000000000000000000000000000000000000000000000000000000000010000000000000000000000000000000000000000004000000000000000000000000000000000000002000000800000000000000000000000000000080000000000000020000000000000000000000000000000000000000000000000000000000000000000",
      "type": "0x2",
      "transactionHash": "0xb2bf9416311653dd78879c0cda2ebdfa719086bb6a542da5aca0602bbc81a76d",
      "transactionIndex": "0x7f",
      "blockHash": "0x8cae537a455373d0c34ad13d694f2b026b4b27d677f66a3b86485bcb9e34dfc9",
      "blockNumber": "0x731722",
      "gasUsed": "0xfd33",
      "effectiveGasPrice": "0x47404cd1",
      "from": "0xc77f7fed3b5cc8249adc428c5f44c9063b9734b4",
      "to": "0x8aafd3ede9adb0ff97c7aebce82a919afb1c8764",
      "contractAddress": null
    }
  ],
  "libraries": [],
  "pending": [],
  "returns": {},
  "timestamp": 1737495133,
  "chain": 11155111,
  "commit": "1d2fb70"
}