{
  "transactions": [
    {
      "hash": "0x25560077d344adfcc266032c4b3f6c1ecc405a6fc6d8816529420deaf9420a4b",
      "transactionType": "CALL",
      "contractName": null,
      "contractAddress": "0x5eb9cc76c3506942c1c0ead70e877dd5e4f00cb0",
      "function": "sell(uint256)",
      "arguments": [
        "989128364785615069236"
      ],
      "transaction": {
        "from": "0xc77f7fed3b5cc8249adc428c5f44c9063b9734b4",
        "to": "0x5eb9cc76c3506942c1c0ead70e877dd5e4f00cb0",
        "gas": "0x16fec",
        "value": "0x0",
        "input": "0xe4849b320000000000000000000000000000000000000000000000359ee9df2555956034",
        "nonce": "0x34f",
        "chainId": "0xaa36a7"
      },
      "additionalContracts": [],
      "isFixedGasLimit": false
    }
  ],
  "receipts": [
    {
      "status": "0x1",
      "cumulativeGasUsed": "0xce9685",
      "logs": [
        {
          "address": "0x5eb9cc76c3506942c1c0ead70e877dd5e4f00cb0",
          "topics": [
            "0xddf252ad1be2c89b69c2b068fc378daa952ba7f163c4a11628f55a4df523b3ef",
            "0x000000000000000000000000c77f7fed3b5cc8249adc428c5f44c9063b9734b4",
            "0x0000000000000000000000000000000000000000000000000000000000000000"
          ],
          "data": "0x0000000000000000000000000000000000000000000000359ee9df2555956034",
          "blockHash": "0x9fc18b87e5f7d392f8f7ff0c8163d0243946da7c40675739fa081a728b44d68f",
          "blockNumber": "0x724f41",
          "transactionHash": "0x25560077d344adfcc266032c4b3f6c1ecc405a6fc6d8816529420deaf9420a4b",
          "transactionIndex": "0x53",
          "logIndex": "0x7a",
          "removed": false
        },
        {
          "address": "0x5eb9cc76c3506942c1c0ead70e877dd5e4f00cb0",
          "topics": [
            "0x4afcb4a87cdbd9974efdb92ee48bc8d7cd0ae4bf217004db3d080cbaee652ca7"
          ],
          "data": "0x000000000000000000000000000000000000000000000000000000006786a8c00000000000000000000000000000000000000000000000000003910ec4da60260000000000000000000000000000000000000000000000000dc7db133219eb73",
          "blockHash": "0x9fc18b87e5f7d392f8f7ff0c8163d0243946da7c40675739fa081a728b44d68f",
          "blockNumber": "0x724f41",
          "transactionHash": "0x25560077d344adfcc266032c4b3f6c1ecc405a6fc6d8816529420deaf9420a4b",
          "transactionIndex": "0x53",
          "logIndex": "0x7b",
          "removed": false
        }
      ],
      "logsBloom": "0x00000000000000000000000000000000000000000000000000000000000000000000000000000000000000000000000000000000000000004000000000000000000000000000000000000008000000000000000000000000000000000000000000000000020000000000000004000800020000000000000000000010000000000000000000000000000000000000000000000000000000000000010000000000000000000000000000000000000000004000000000000000000000000000020000000002000000800000008000000000000000000000080000000000000020000000000000000000000000000000000000000000000000000000000000000000",
      "type": "0x2",
      "transactionHash": "0x25560077d344adfcc266032c4b3f6c1ecc405a6fc6d8816529420deaf9420a4b",
      "transactionIndex": "0x53",
      "blockHash": "0x9fc18b87e5f7d392f8f7ff0c8163d0243946da7c40675739fa081a728b44d68f",
      "blockNumber": "0x724f41",
      "gasUsed": "0xfb93",
      "effectiveGasPrice": "0x571e07468",
      "from": "0xc77f7fed3b5cc8249adc428c5f44c9063b9734b4",
      "to": "0x5eb9cc76c3506942c1c0ead70e877dd5e4f00cb0",
      "contractAddress": null
    }
  ],
  "libraries": [],
  "pending": [],
  "returns": {},
  "timestamp": 1736878272,
  "chain": 11155111,
  "commit": "51a374b"
}