{
  "transactions": [
    {
      "hash": "0x9ce9a452f347f3f7367f2327373f46b163bb2baad4eccec41c7df41515f985f1",
      "transactionType": "CALL",
      "contractName": null,
      "contractAddress": "0x5eb9cc76c3506942c1c0ead70e877dd5e4f00cb0",
      "function": "buy(address)",
      "arguments": [
        "0xC77f7fed3b5Cc8249aDc428c5F44C9063B9734b4"
      ],
      "transaction": {
        "from": "0xc77f7fed3b5cc8249adc428c5f44c9063b9734b4",
        "to": "0x5eb9cc76c3506942c1c0ead70e877dd5e4f00cb0",
        "gas": "0x1b30c",
        "value": "0xde0b6b3a7640000",
        "input": "0xf088d547000000000000000000000000c77f7fed3b5cc8249adc428c5f44c9063b9734b4",
        "nonce": "0x3f2",
        "chainId": "0xaa36a7"
      },
      "additionalContracts": [],
      "isFixedGasLimit": false
    }
  ],
  "receipts": [
    {
      "status": "0x1",
      "cumulativeGasUsed": "0x104d766",
      "logs": [
        {
          "address": "0x5eb9cc76c3506942c1c0ead70e877dd5e4f00cb0",
          "topics": [
            "0xddf252ad1be2c89b69c2b068fc378daa952ba7f163c4a11628f55a4df523b3ef",
            "0x0000000000000000000000000000000000000000000000000000000000000000",
            "0x000000000000000000000000c77f7fed3b5cc8249adc428c5f44c9063b9734b4"
          ],
          "data": "0x000000000000000000000000000000000000000000000035750a1f530228e6d5",
          "blockHash": "0x72e70ed402fc07eafec9d6914de96d2a6c45a518fffc1caba1f0449c87593185",
          "blockNumber": "0x724ff8",
          "transactionHash": "0x9ce9a452f347f3f7367f2327373f46b163bb2baad4eccec41c7df41515f985f1",
          "transactionIndex": "0x4e",
          "logIndex": "0x8f",
          "removed": false
        },
        {
          "address": "0x5eb9cc76c3506942c1c0ead70e877dd5e4f00cb0",
          "topics": [
            "0xddf252ad1be2c89b69c2b068fc378daa952ba7f163c4a11628f55a4df523b3ef",
            "0x0000000000000000000000000000000000000000000000000000000000000000",
            "0x000000000000000000000000c77f7fed3b5cc8249adc428c5f44c9063b9734b4"
          ],
          "data": "0x0000000000000000000000000000000000000000000000002982e66645d91870",
          "blockHash": "0x72e70ed402fc07eafec9d6914de96d2a6c45a518fffc1caba1f0449c87593185",
          "blockNumber": "0x724ff8",
          "transactionHash": "0x9ce9a452f347f3f7367f2327373f46b163bb2baad4eccec41c7df41515f985f1",
          "transactionIndex": "0x4e",
          "logIndex": "0x90",
          "removed": false
        },
        {
          "address": "0x5eb9cc76c3506942c1c0ead70e877dd5e4f00cb0",
          "topics": [
            "0x4afcb4a87cdbd9974efdb92ee48bc8d7cd0ae4bf217004db3d080cbaee652ca7"
          ],
          "data": "0x000000000000000000000000000000000000000000000000000000006786b16c00000000000000000000000000000000000000000000000000039114e59b84e80000000000000000000000000000000000000000000000000de0b6b3a7640000",
          "blockHash": "0x72e70ed402fc07eafec9d6914de96d2a6c45a518fffc1caba1f0449c87593185",
          "blockNumber": "0x724ff8",
          "transactionHash": "0x9ce9a452f347f3f7367f2327373f46b163bb2baad4eccec41c7df41515f985f1",
          "transactionIndex": "0x4e",
          "logIndex": "0x91",
          "removed": false
        }
      ],
      "logsBloom": "0x00000000000000000000000000000000000000000000000000000000000000000000000000000000000000000000000000000000000000004000000000000000000000000000000000000008000000000000000000000000000000000000000000000000020000000000000004000800020000000000000000000010000000000000000000000000000000000000000000000000000000000000010000000000000000000000000000000000000000004000000000000000000000000000020000000002000000800000008000000000000000000000080000000000000020000000000000000000000000000000000000000000000000000000000000000000",
      "type": "0x2",
      "transactionHash": "0x9ce9a452f347f3f7367f2327373f46b163bb2baad4eccec41c7df41515f985f1",
      "transactionIndex": "0x4e",
      "blockHash": "0x72e70ed402fc07eafec9d6914de96d2a6c45a518fffc1caba1f0449c87593185",
      "blockNumber": "0x724ff8",
      "gasUsed": "0x13af8",
      "effectiveGasPrice": "0x3b23dd8de",
      "from": "0xc77f7fed3b5cc8249adc428c5f44c9063b9734b4",
      "to": "0x5eb9cc76c3506942c1c0ead70e877dd5e4f00cb0",
      "contractAddress": null
    }
  ],
  "libraries": [],
  "pending": [],
  "returns": {},
  "timestamp": 1736880493,
  "chain": 11155111,
  "commit": "51a374b"
}