{
  "transactions": [
    {
      "hash": "0x5cdd43ccc40d99927e90419f7b5d0eb1baae04ddc5d186a5166fe37f439bc19b",
      "transactionType": "CALL",
      "contractName": null,
      "contractAddress": "0xbf4a322f1496e5c3d34a9bcdb4c60567b38c7de2",
      "function": "buy(address)",
      "arguments": [
        "0xC77f7fed3b5Cc8249aDc428c5F44C9063B9734b4"
      ],
      "transaction": {
        "from": "0xc77f7fed3b5cc8249adc428c5f44c9063b9734b4",
        "to": "0xbf4a322f1496e5c3d34a9bcdb4c60567b38c7de2",
        "gas": "0x1b309",
        "value": "0xde0b6b3a7640000",
        "input": "0xf088d547000000000000000000000000c77f7fed3b5cc8249adc428c5f44c9063b9734b4",
        "nonce": "0x93c",
        "chainId": "0xaa36a7"
      },
      "additionalContracts": [],
      "isFixedGasLimit": false
    }
  ],
  "receipts": [
    {
      "status": "0x1",
      "cumulativeGasUsed": "0xf6435f",
      "logs": [
        {
          "address": "0xbf4a322f1496e5c3d34a9bcdb4c60567b38c7de2",
          "topics": [
            "0xddf252ad1be2c89b69c2b068fc378daa952ba7f163c4a11628f55a4df523b3ef",
            "0x0000000000000000000000000000000000000000000000000000000000000000",
            "0x000000000000000000000000c77f7fed3b5cc8249adc428c5f44c9063b9734b4"
          ],
          "data": "0x00000000000000000000000000000000000000000000003580430f8caf6ad0aa",
          "blockHash": "0x43d58996830615f4d9915b8e73b5a77bca76959074202d72fe8a75c14032ed28",
          "blockNumber": "0x7258c6",
          "transactionHash": "0x5cdd43ccc40d99927e90419f7b5d0eb1baae04ddc5d186a5166fe37f439bc19b",
          "transactionIndex": "0x60",
          "logIndex": "0x90",
          "removed": false
        },
        {
          "address": "0xbf4a322f1496e5c3d34a9bcdb4c60567b38c7de2",
          "topics": [
            "0xddf252ad1be2c89b69c2b068fc378daa952ba7f163c4a11628f55a4df523b3ef",
            "0x0000000000000000000000000000000000000000000000000000000000000000",
            "0x000000000000000000000000c77f7fed3b5cc8249adc428c5f44c9063b9734b4"
          ],
          "data": "0x000000000000000000000000000000000000000000000000298b9d558aeb11fd",
          "blockHash": "0x43d58996830615f4d9915b8e73b5a77bca76959074202d72fe8a75c14032ed28",
          "blockNumber": "0x7258c6",
          "transactionHash": "0x5cdd43ccc40d99927e90419f7b5d0eb1baae04ddc5d186a5166fe37f439bc19b",
          "transactionIndex": "0x60",
          "logIndex": "0x91",
          "removed": false
        },
        {
          "address": "0xbf4a322f1496e5c3d34a9bcdb4c60567b38c7de2",
          "topics": [
            "0x4afcb4a87cdbd9974efdb92ee48bc8d7cd0ae4bf217004db3d080cbaee652ca7"
          ],
          "data": "0x0000000000000000000000000000000000000000000000000000000067871b7400000000000000000000000000000000000000000000000000039057ab597de70000000000000000000000000000000000000000000000000de0b6b3a7640000",
          "blockHash": "0x43d58996830615f4d9915b8e73b5a77bca76959074202d72fe8a75c14032ed28",
          "blockNumber": "0x7258c6",
          "transactionHash": "0x5cdd43ccc40d99927e90419f7b5d0eb1baae04ddc5d186a5166fe37f439bc19b",
          "transactionIndex": "0x60",
          "logIndex": "0x92",
          "removed": false
        }
      ],
      "logsBloom": "0x00000000000000000000000000000000000000000000000000000000000000000000000000000000000000000000000000000000000000004000000000000000000000000000000000000008000000000000001000000000000000000000000000000000020000000000000000000800020000000000000000000010000000000000000000000000000000000000000000000000000008000000010000000000000000000000000000000000000000004000000000000000000000000000000000000002000000800000000000001000000000000000080000000000000020000000000000000000000000000000000000000000000000000000000000000000",
      "type": "0x2",
      "transactionHash": "0x5cdd43ccc40d99927e90419f7b5d0eb1baae04ddc5d186a5166fe37f439bc19b",
      "transactionIndex": "0x60",
      "blockHash": "0x43d58996830615f4d9915b8e73b5a77bca76959074202d72fe8a75c14032ed28",
      "blockNumber": "0x7258c6",
      "gasUsed": "0x13af6",
      "effectiveGasPrice": "0x5641c2d9",
      "from": "0xc77f7fed3b5cc8249adc428c5f44c9063b9734b4",
      "to": "0xbf4a322f1496e5c3d34a9bcdb4c60567b38c7de2",
      "contractAddress": null
    }
  ],
  "libraries": [],
  "pending": [],
  "returns": {},
  "timestamp": 1736907637,
  "chain": 11155111,
  "commit": "51a374b"
}