{
  "transactions": [
    {
      "hash": "0x94333eaeb2c6a8329848b6da9946e659d0dd52b99b48ff7e04d76fa222517fe1",
      "transactionType": "CALL",
      "contractName": null,
      "contractAddress": "0x270e88f8683660553e8ba4eb2ad7c91a1710d769",
      "function": "sell(uint256)",
      "arguments": [
        "756265614521764008439"
      ],
      "transaction": {
        "from": "0xc77f7fed3b5cc8249adc428c5f44c9063b9734b4",
        "to": "0x270e88f8683660553e8ba4eb2ad7c91a1710d769",
        "gas": "0x16fec",
        "value": "0x0",
        "input": "0xe4849b32000000000000000000000000000000000000000000000028ff4b318a643dd1f7",
        "nonce": "0x688",
        "chainId": "0xaa36a7"
      },
      "additionalContracts": [],
      "isFixedGasLimit": false
    }
  ],
  "receipts": [
    {
      "status": "0x1",
      "cumulativeGasUsed": "0x111d1fd",
      "logs": [
        {
          "address": "0x270e88f8683660553e8ba4eb2ad7c91a1710d769",
          "topics": [
            "0xddf252ad1be2c89b69c2b068fc378daa952ba7f163c4a11628f55a4df523b3ef",
            "0x000000000000000000000000c77f7fed3b5cc8249adc428c5f44c9063b9734b4",
            "0x0000000000000000000000000000000000000000000000000000000000000000"
          ],
          "data": "0x000000000000000000000000000000000000000000000028ff4b318a643dd1f7",
          "blockHash": "0x698515a0e529f54046a0b8bff21648756eed96e17b6fc3d1b3633eb502a8771d",
          "blockNumber": "0x725389",
          "transactionHash": "0x94333eaeb2c6a8329848b6da9946e659d0dd52b99b48ff7e04d76fa222517fe1",
          "transactionIndex": "0x64",
          "logIndex": "0x106",
          "removed": false
        },
        {
          "address": "0x270e88f8683660553e8ba4eb2ad7c91a1710d769",
          "topics": [
            "0x4afcb4a87cdbd9974efdb92ee48bc8d7cd0ae4bf217004db3d080cbaee652ca7"
          ],
          "data": "0x000000000000000000000000000000000000000000000000000000006786dc740000000000000000000000000000000000000000000000000004aa7db3c23a320000000000000000000000000000000000000000000000000dc82a2ece4db4f6",
          "blockHash": "0x698515a0e529f54046a0b8bff21648756eed96e17b6fc3d1b3633eb502a8771d",
          "blockNumber": "0x725389",
          "transactionHash": "0x94333eaeb2c6a8329848b6da9946e659d0dd52b99b48ff7e04d76fa222517fe1",
          "transactionIndex": "0x64",
          "logIndex": "0x107",
          "removed": false
        }
      ],
      "logsBloom": "0x00000000000000000000000000000000000000000000000000000000000000000000000000000000000000000000000020000000000000004000000000000000000000000000000000000008000000000000000000000000000000000000000000000000020000000000000000000800020000000000000000000010000000000000000000010000000000000000000000000000000000000000010000000000000000000000000000000000000000004000000000000000000000000000000000000002000000800000000000000000000000000000080000008000000020000000000000000000000000000000000000000000000000000000000000000000",
      "type": "0x2",
      "transactionHash": "0x94333eaeb2c6a8329848b6da9946e659d0dd52b99b48ff7e04d76fa222517fe1",
      "transactionIndex": "0x64",
      "blockHash": "0x698515a0e529f54046a0b8bff21648756eed96e17b6fc3d1b3633eb502a8771d",
      "blockNumber": "0x725389",
      "gasUsed": "0xfb93",
      "effectiveGasPrice": "0x1eff820fa",
      "from": "0xc77f7fed3b5cc8249adc428c5f44c9063b9734b4",
      "to": "0x270e88f8683660553e8ba4eb2ad7c91a1710d769",
      "contractAddress": null
    }
  ],
  "libraries": [],
  "pending": [],
  "returns": {},
  "timestamp": 1736891509,
  "chain": 11155111,
  "commit": "51a374b"
}