{
  "transactions": [
    {
      "hash": "0xbf4d21b6e0122f21f301104b1fd326fd9ffbdd3c345263fede51380951e2303a",
      "transactionType": "CALL",
      "contractName": null,
      "contractAddress": "0x8aafd3ede9adb0ff97c7aebce82a919afb1c8764",
      "function": "sell(uint256)",
      "arguments": [
        "11726"
      ],
      "transaction": {
        "from": "0xc77f7fed3b5cc8249adc428c5f44c9063b9734b4",
        "to": "0x8aafd3ede9adb0ff97c7aebce82a919afb1c8764",
        "gas": "0x14e4c",
        "value": "0x0",
        "input": "0xe4849b320000000000000000000000000000000000000000000000000000000000002dce",
        "nonce": "0x1111",
        "chainId": "0xaa36a7"
      },
      "additionalContracts": [],
      "isFixedGasLimit": false
    }
  ],
  "receipts": [
    {
      "status": "0x1",
      "cumulativeGasUsed": "0x967143",
      "logs": [
        {
          "address": "0x8aafd3ede9adb0ff97c7aebce82a919afb1c8764",
          "topics": [
            "0xddf252ad1be2c89b69c2b068fc378daa952ba7f163c4a11628f55a4df523b3ef",
            "0x000000000000000000000000c77f7fed3b5cc8249adc428c5f44c9063b9734b4",
            "0x0000000000000000000000000000000000000000000000000000000000000000"
          ],
          "data": "0x0000000000000000000000000000000000000000000000000000000000002d71",
          "blockHash": "0x655fa5f9f95ca892ac48fd01d6328ce0ced1b575ff9302c06fb928f6bcc5228a",
          "blockNumber": "0x7317c3",
          "transactionHash": "0xbf4d21b6e0122f21f301104b1fd326fd9ffbdd3c345263fede51380951e2303a",
          "transactionIndex": "0x7a",
          "logIndex": "0x97",
          "removed": false
        },
        {
          "address": "0x8aafd3ede9adb0ff97c7aebce82a919afb1c8764",
          "topics": [
            "0xddf252ad1be2c89b69c2b068fc378daa952ba7f163c4a11628f55a4df523b3ef",
            "0x000000000000000000000000c77f7fed3b5cc8249adc428c5f44c9063b9734b4",
            "0x000000000000000000000000c77f7fed3b5cc8249adc428c5f44c9063b9734b4"
          ],
          "data": "0x000000000000000000000000000000000000000000000000000000000000005d",
          "blockHash": "0x655fa5f9f95ca892ac48fd01d6328ce0ced1b575ff9302c06fb928f6bcc5228a",
          "blockNumber": "0x7317c3",
          "transactionHash": "0xbf4d21b6e0122f21f301104b1fd326fd9ffbdd3c345263fede51380951e2303a",
          "transactionIndex": "0x7a",
          "logIndex": "0x98",
          "removed": false
        },
        {
          "address": "0x8aafd3ede9adb0ff97c7aebce82a919afb1c8764",
          "topics": [
            "0x4afcb4a87cdbd9974efdb92ee48bc8d7cd0ae4bf217004db3d080cbaee652ca7"
          ],
          "data": "0x00000000000000000000000000000000000000000000000000000000679019e800000000000000000000000000000000000000000000000000050d9c906541880000000000000000000000000000000000000000000000000000000000000010",
          "blockHash": "0x655fa5f9f95ca892ac48fd01d6328ce0ced1b575ff9302c06fb928f6bcc5228a",
          "blockNumber": "0x7317c3",
          "transactionHash": "0xbf4d21b6e0122f21f301104b1fd326fd9ffbdd3c345263fede51380951e2303a",
          "transactionIndex": "0x7a",
          "logIndex": "0x99",
          "removed": false
        }
      ],
      "logsBloom": "0x00000000000000000000000000000000000000000600000000000000000000000000000000000000000000000000000000000000000000004000000000000000000000000000004000000008000000000000000000000000000000000000000000000000020000000000000000000800020000000000000000000010000000000000000000000000000000000000000000000000000000000000010000000000000000000000000000000000000000004000000000000000000000000000000000000002000000800000000000000000000000000000080000000000000020000000000000000000000000000000000000000000000000000000000000000000",
      "type": "0x2",
      "transactionHash": "0xbf4d21b6e0122f21f301104b1fd326fd9ffbdd3c345263fede51380951e2303a",
      "transactionIndex": "0x7a",
      "blockHash": "0x655fa5f9f95ca892ac48fd01d6328ce0ced1b575ff9302c06fb928f6bcc5228a",
      "blockNumber": "0x7317c3",
      "gasUsed": "0xf207",
      "effectiveGasPrice": "0x54fe4ce6",
      "from": "0xc77f7fed3b5cc8249adc428c5f44c9063b9734b4",
      "to": "0x8aafd3ede9adb0ff97c7aebce82a919afb1c8764",
      "contractAddress": null
    }
  ],
  "libraries": [],
  "pending": [],
  "returns": {},
  "timestamp": 1737497065,
  "chain": 11155111,
  "commit": "1d2fb70"
}