{
  "transactions": [
    {
      "hash": "0x7765765e2f98dcd59d292aefc2866e230408ae521f11f46c0b24b2268c47d776",
      "transactionType": "CALL",
      "contractName": null,
      "contractAddress": "0x8aafd3ede9adb0ff97c7aebce82a919afb1c8764",
      "function": "sell(uint256)",
      "arguments": [
        "82068286062636"
      ],
      "transaction": {
        "from": "0xc77f7fed3b5cc8249adc428c5f44c9063b9734b4",
        "to": "0x8aafd3ede9adb0ff97c7aebce82a919afb1c8764",
        "gas": "0x15daa",
        "value": "0x0",
        "input": "0xe4849b3200000000000000000000000000000000000000000000000000004aa40309c02c",
        "nonce": "0x16b2",
        "chainId": "0xaa36a7"
      },
      "additionalContracts": [],
      "isFixedGasLimit": false
    }
  ],
  "receipts": [
    {
      "status": "0x1",
      "cumulativeGasUsed": "0x7ed73b",
      "logs": [
        {
          "address": "0x8aafd3ede9adb0ff97c7aebce82a919afb1c8764",
          "topics": [
            "0xddf252ad1be2c89b69c2b068fc378daa952ba7f163c4a11628f55a4df523b3ef",
            "0x000000000000000000000000c77f7fed3b5cc8249adc428c5f44c9063b9734b4",
            "0x0000000000000000000000000000000000000000000000000000000000000000"
          ],
          "data": "0x00000000000000000000000000000000000000000000000000004a0b25d46cb7",
          "blockHash": "0x070b018178bcdcdc5acd3b14d5a70cabf25fc80f8583fbf0e33a75d79d7e7a26",
          "blockNumber": "0x731e6b",
          "transactionHash": "0x7765765e2f98dcd59d292aefc2866e230408ae521f11f46c0b24b2268c47d776",
          "transactionIndex": "0x5d",
          "logIndex": "0x7d",
          "removed": false
        },
        {
          "address": "0x8aafd3ede9adb0ff97c7aebce82a919afb1c8764",
          "topics": [
            "0xddf252ad1be2c89b69c2b068fc378daa952ba7f163c4a11628f55a4df523b3ef",
            "0x000000000000000000000000c77f7fed3b5cc8249adc428c5f44c9063b9734b4",
            "0x000000000000000000000000c77f7fed3b5cc8249adc428c5f44c9063b9734b4"
          ],
          "data": "0x00000000000000000000000000000000000000000000000000000098dd355375",
          "blockHash": "0x070b018178bcdcdc5acd3b14d5a70cabf25fc80f8583fbf0e33a75d79d7e7a26",
          "blockNumber": "0x731e6b",
          "transactionHash": "0x7765765e2f98dcd59d292aefc2866e230408ae521f11f46c0b24b2268c47d776",
          "transactionIndex": "0x5d",
          "logIndex": "0x7e",
          "removed": false
        },
        {
          "address": "0x8aafd3ede9adb0ff97c7aebce82a919afb1c8764",
          "topics": [
            "0x4afcb4a87cdbd9974efdb92ee48bc8d7cd0ae4bf217004db3d080cbaee652ca7"
          ],
          "data": "0x00000000000000000000000000000000000000000000000000000000679069ec00000000000000000000000000000000000000000000000000161d3fd5afdb2900000000000000000000000000000000000000000000000000000076f09e100b",
          "blockHash": "0x070b018178bcdcdc5acd3b14d5a70cabf25fc80f8583fbf0e33a75d79d7e7a26",
          "blockNumber": "0x731e6b",
          "transactionHash": "0x7765765e2f98dcd59d292aefc2866e230408ae521f11f46c0b24b2268c47d776",
          "transactionIndex": "0x5d",
          "logIndex": "0x7f",
          "removed": false
        }
      ],
      "logsBloom": "0x00000000000000000000000000000000000000000600000000000000000000000000000000000000000000000000000000000000000000004000000000000000000000000000004000000008000000000000000000000000000000000000000000000000020000000000000000000800020000000000000000000010000000000000000000000000000000000000000000000000000000000000010000000000000000000000000000000000000000004000000000000000000000000000000000000002000000800000000000000000000000000000080000000000000020000000000000000000000000000000000000000000000000000000000000000000",
      "type": "0x2",
      "transactionHash": "0x7765765e2f98dcd59d292aefc2866e230408ae521f11f46c0b24b2268c47d776",
      "transactionIndex": "0x5d",
      "blockHash": "0x070b018178bcdcdc5acd3b14d5a70cabf25fc80f8583fbf0e33a75d79d7e7a26",
      "blockNumber": "0x731e6b",
      "gasUsed": "0xfd27",
      "effectiveGasPrice": "0x6786eb98",
      "from": "0xc77f7fed3b5cc8249adc428c5f44c9063b9734b4",
      "to": "0x8aafd3ede9adb0ff97c7aebce82a919afb1c8764",
      "contractAddress": null
    }
  ],
  "libraries": [],
  "pending": [],
  "returns": {},
  "timestamp": 1737517550,
  "chain": 11155111,
  "commit": "1d2fb70"
}