{
  "transactions": [
    {
      "hash": "0x338ae3626bef35162794abb45b1bdb0c64c1262ee83d56f2d820868ffbdc635b",
      "transactionType": "CALL",
      "contractName": null,
      "contractAddress": "0x5eb9cc76c3506942c1c0ead70e877dd5e4f00cb0",
      "function": "sell(uint256)",
      "arguments": [
        "989621497166363167549"
      ],
      "transaction": {
        "from": "0xc77f7fed3b5cc8249adc428c5f44c9063b9734b4",
        "to": "0x5eb9cc76c3506942c1c0ead70e877dd5e4f00cb0",
        "gas": "0x16fec",
        "value": "0x0",
        "input": "0xe4849b32000000000000000000000000000000000000000000000035a5c1d46ef3510b3d",
        "nonce": "0x225",
        "chainId": "0xaa36a7"
      },
      "additionalContracts": [],
      "isFixedGasLimit": false
    }
  ],
  "receipts": [
    {
      "status": "0x1",
      "cumulativeGasUsed": "0xaa2ae4",
      "logs": [
        {
          "address": "0x5eb9cc76c3506942c1c0ead70e877dd5e4f00cb0",
          "topics": [
            "0xddf252ad1be2c89b69c2b068fc378daa952ba7f163c4a11628f55a4df523b3ef",
            "0x000000000000000000000000c77f7fed3b5cc8249adc428c5f44c9063b9734b4",
            "0x0000000000000000000000000000000000000000000000000000000000000000"
          ],
          "data": "0x000000000000000000000000000000000000000000000035a5c1d46ef3510b3d",
          "blockHash": "0xffbc31c5e75257d1a495fd0d0a98da4aae449b757836485f3dfd7bec8c784e39",
          "blockNumber": "0x724dd3",
          "transactionHash": "0x338ae3626bef35162794abb45b1bdb0c64c1262ee83d56f2d820868ffbdc635b",
          "transactionIndex": "0x53",
          "logIndex": "0x95",
          "removed": false
        },
        {
          "address": "0x5eb9cc76c3506942c1c0ead70e877dd5e4f00cb0",
          "topics": [
            "0x4afcb4a87cdbd9974efdb92ee48bc8d7cd0ae4bf217004db3d080cbaee652ca7"
          ],
          "data": "0x00000000000000000000000000000000000000000000000000000000678697980000000000000000000000000000000000000000000000000003909a4a0e28900000000000000000000000000000000000000000000000000dc7db118385a231",
          "blockHash": "0xffbc31c5e75257d1a495fd0d0a98da4aae449b757836485f3dfd7bec8c784e39",
          "blockNumber": "0x724dd3",
          "transactionHash": "0x338ae3626bef35162794abb45b1bdb0c64c1262ee83d56f2d820868ffbdc635b",
          "transactionIndex": "0x53",
          "logIndex": "0x96",
          "removed": false
        }
      ],
      "logsBloom": "0x00000000000000000000000000000000000000000000000000000000000000000000000000000000000000000000000000000000000000004000000000000000000000000000000000000008000000000000000000000000000000000000000000000000020000000000000004000800020000000000000000000010000000000000000000000000000000000000000000000000000000000000010000000000000000000000000000000000000000004000000000000000000000000000020000000002000000800000008000000000000000000000080000000000000020000000000000000000000000000000000000000000000000000000000000000000",
      "type": "0x2",
      "transactionHash": "0x338ae3626bef35162794abb45b1bdb0c64c1262ee83d56f2d820868ffbdc635b",
      "transactionIndex": "0x53",
      "blockHash": "0xffbc31c5e75257d1a495fd0d0a98da4aae449b757836485f3dfd7bec8c784e39",
      "blockNumber": "0x724dd3",
      "gasUsed": "0xfb93",
      "effectiveGasPrice": "0x3e1335059",
      "from": "0xc77f7fed3b5cc8249adc428c5f44c9063b9734b4",
      "to": "0x5eb9cc76c3506942c1c0ead70e877dd5e4f00cb0",
      "contractAddress": null
    }
  ],
  "libraries": [],
  "pending": [],
  "returns": {},
  "timestamp": 1736873882,
  "chain": 11155111,
  "commit": "51a374b"
}