{
  "transactions": [
    {
      "hash": "0xe5c9c34ebefdb7c1b4a7550287b084bec7596906fc69dd127542f8c884639d46",
      "transactionType": "CALL",
      "contractName": null,
      "contractAddress": "0xbf4a322f1496e5c3d34a9bcdb4c60567b38c7de2",
      "function": "buy(address)",
      "arguments": [
        "0xC77f7fed3b5Cc8249aDc428c5F44C9063B9734b4"
      ],
      "transaction": {
        "from": "0xc77f7fed3b5cc8249adc428c5f44c9063b9734b4",
        "to": "0xbf4a322f1496e5c3d34a9bcdb4c60567b38c7de2",
        "gas": "0x1b309",
        "value": "0xde0b6b3a7640000",
        "input": "0xf088d547000000000000000000000000c77f7fed3b5cc8249adc428c5f44c9063b9734b4",
        "nonce": "0xa88",
        "chainId": "0xaa36a7"
      },
      "additionalContracts": [],
      "isFixedGasLimit": false
    }
  ],
  "receipts": [
    {
      "status": "0x1",
      "cumulativeGasUsed": "0x11f1e64",
      "logs": [
        {
          "address": "0xbf4a322f1496e5c3d34a9bcdb4c60567b38c7de2",
          "topics": [
            "0xddf252ad1be2c89b69c2b068fc378daa952ba7f163c4a11628f55a4df523b3ef",
            "0x0000000000000000000000000000000000000000000000000000000000000000",
            "0x000000000000000000000000c77f7fed3b5cc8249adc428c5f44c9063b9734b4"
          ],
          "data": "0x000000000000000000000000000000000000000000000035419f04c20108f456",
          "blockHash": "0x35245b7813fa71bc8feb6b7157eb5204e33030d2a4625fb2f72168928c8f5ee0",
          "blockNumber": "0x725a6b",
          "transactionHash": "0xe5c9c34ebefdb7c1b4a7550287b084bec7596906fc69dd127542f8c884639d46",
          "transactionIndex": "0x8c",
          "logIndex": "0xfa",
          "removed": false
        },
        {
          "address": "0xbf4a322f1496e5c3d34a9bcdb4c60567b38c7de2",
          "topics": [
            "0xddf252ad1be2c89b69c2b068fc378daa952ba7f163c4a11628f55a4df523b3ef",
            "0x0000000000000000000000000000000000000000000000000000000000000000",
            "0x000000000000000000000000c77f7fed3b5cc8249adc428c5f44c9063b9734b4"
          ],
          "data": "0x000000000000000000000000000000000000000000000000295af8cce8fe9336",
          "blockHash": "0x35245b7813fa71bc8feb6b7157eb5204e33030d2a4625fb2f72168928c8f5ee0",
          "blockNumber": "0x725a6b",
          "transactionHash": "0xe5c9c34ebefdb7c1b4a7550287b084bec7596906fc69dd127542f8c884639d46",
          "transactionIndex": "0x8c",
          "logIndex": "0xfb",
          "removed": false
        },
        {
          "address": "0xbf4a322f1496e5c3d34a9bcdb4c60567b38c7de2",
          "topics": [
            "0x4afcb4a87cdbd9974efdb92ee48bc8d7cd0ae4bf217004db3d080cbaee652ca7"
          ],
          "data": "0x0000000000000000000000000000000000000000000000000000000067872f5400000000000000000000000000000000000000000000000000039488c48776640000000000000000000000000000000000000000000000000de0b6b3a7640000",
          "blockHash": "0x35245b7813fa71bc8feb6b7157eb5204e33030d2a4625fb2f72168928c8f5ee0",
          "blockNumber": "0x725a6b",
          "transactionHash": "0xe5c9c34ebefdb7c1b4a7550287b084bec7596906fc69dd127542f8c884639d46",
          "transactionIndex": "0x8c",
          "logIndex": "0xfc",
          "removed": false
        }
      ],
      "logsBloom": "0x00000000000000000000000000000000000000000000000000000000000000000000000000000000000000000000000000000000000000004000000000000000000000000000000000000008000000000000001000000000000000000000000000000000020000000000000000000800020000000000000000000010000000000000000000000000000000000000000000000000000008000000010000000000000000000000000000000000000000004000000000000000000000000000000000000002000000800000000000001000000000000000080000000000000020000000000000000000000000000000000000000000000000000000000000000000",
      "type": "0x2",
      "transactionHash": "0xe5c9c34ebefdb7c1b4a7550287b084bec7596906fc69dd127542f8c884639d46",
      "transactionIndex": "0x8c",
      "blockHash": "0x35245b7813fa71bc8feb6b7157eb5204e33030d2a4625fb2f72168928c8f5ee0",
      "blockNumber": "0x725a6b",
      "gasUsed": "0x13af6",
      "effectiveGasPrice": "0x24de43ff9",
      "from": "0xc77f7fed3b5cc8249adc428c5f44c9063b9734b4",
      "to": "0xbf4a322f1496e5c3d34a9bcdb4c60567b38c7de2",
      "contractAddress": null
    }
  ],
  "libraries": [],
  "pending": [],
  "returns": {},
  "timestamp": 1736912725,
  "chain": 11155111,
  "commit": "51a374b"
}