{
  "transactions": [
    {
      "hash": "0xd6aed579878e4d1f21b5817df6d7f527ca76d8a43e2ddcd40f1009d3322794bc",
      "transactionType": "CALL",
      "contractName": null,
      "contractAddress": "0x270e88f8683660553e8ba4eb2ad7c91a1710d769",
      "function": "sell(uint256)",
      "arguments": [
        "952263036075859527321"
      ],
      "transaction": {
        "from": "0xc77f7fed3b5cc8249adc428c5f44c9063b9734b4",
        "to": "0x270e88f8683660553e8ba4eb2ad7c91a1710d769",
        "gas": "0x16fec",
        "value": "0x0",
        "input": "0xe4849b320000000000000000000000000000000000000000000000339f4dea0154984699",
        "nonce": "0x5df",
        "chainId": "0xaa36a7"
      },
      "additionalContracts": [],
      "isFixedGasLimit": false
    }
  ],
  "receipts": [
    {
      "status": "0x1",
      "cumulativeGasUsed": "0x17e3258",
      "logs": [
        {
          "address": "0x270e88f8683660553e8ba4eb2ad7c91a1710d769",
          "topics": [
            "0xddf252ad1be2c89b69c2b068fc378daa952ba7f163c4a11628f55a4df523b3ef",
            "0x000000000000000000000000c77f7fed3b5cc8249adc428c5f44c9063b9734b4",
            "0x0000000000000000000000000000000000000000000000000000000000000000"
          ],
          "data": "0x0000000000000000000000000000000000000000000000339f4dea0154984699",
          "blockHash": "0x991ae53e6cad1edcb8ecf9bd9074337bba3e6fa3dfbef8cac37066ee1828a3b5",
          "blockNumber": "0x7252a2",
          "transactionHash": "0xd6aed579878e4d1f21b5817df6d7f527ca76d8a43e2ddcd40f1009d3322794bc",
          "transactionIndex": "0x9f",
          "logIndex": "0x157",
          "removed": false
        },
        {
          "address": "0x270e88f8683660553e8ba4eb2ad7c91a1710d769",
          "topics": [
            "0x4afcb4a87cdbd9974efdb92ee48bc8d7cd0ae4bf217004db3d080cbaee652ca7"
          ],
          "data": "0x000000000000000000000000000000000000000000000000000000006786d1a00000000000000000000000000000000000000000000000000003b4b290b8c9ad0000000000000000000000000000000000000000000000000dc83e6429efa15c",
          "blockHash": "0x991ae53e6cad1edcb8ecf9bd9074337bba3e6fa3dfbef8cac37066ee1828a3b5",
          "blockNumber": "0x7252a2",
          "transactionHash": "0xd6aed579878e4d1f21b5817df6d7f527ca76d8a43e2ddcd40f1009d3322794bc",
          "transactionIndex": "0x9f",
          "logIndex": "0x158",
          "removed": false
        }
      ],
      "logsBloom": "0x00000000000000000000000000000000000000000000000000000000000000000000000000000000000000000000000020000000000000004000000000000000000000000000000000000008000000000000000000000000000000000000000000000000020000000000000000000800020000000000000000000010000000000000000000010000000000000000000000000000000000000000010000000000000000000000000000000000000000004000000000000000000000000000000000000002000000800000000000000000000000000000080000008000000020000000000000000000000000000000000000000000000000000000000000000000",
      "type": "0x2",
      "transactionHash": "0xd6aed579878e4d1f21b5817df6d7f527ca76d8a43e2ddcd40f1009d3322794bc",
      "transactionIndex": "0x9f",
      "blockHash": "0x991ae53e6cad1edcb8ecf9bd9074337bba3e6fa3dfbef8cac37066ee1828a3b5",
      "blockNumber": "0x7252a2",
      "gasUsed": "0xfb93",
      "effectiveGasPrice": "0x32317b4d0",
      "from": "0xc77f7fed3b5cc8249adc428c5f44c9063b9734b4",
      "to": "0x270e88f8683660553e8ba4eb2ad7c91a1710d769",
      "contractAddress": null
    }
  ],
  "libraries": [],
  "pending": [],
  "returns": {},
  "timestamp": 1736888739,
  "chain": 11155111,
  "commit": "51a374b"
}