{
  "transactions": [
    {
      "hash": "0xa7ce8624ebcd3edee58792240d435ed4cfa0b1e74e1f15a839ad07a39c56d270",
      "transactionType": "CALL",
      "contractName": null,
      "contractAddress": "0x8aafd3ede9adb0ff97c7aebce82a919afb1c8764",
      "function": "sell(uint256)",
      "arguments": [
        "1087204541477"
      ],
      "transaction": {
        "from": "0xc77f7fed3b5cc8249adc428c5f44c9063b9734b4",
        "to": "0x8aafd3ede9adb0ff97c7aebce82a919afb1c8764",
        "gas": "0x1722a",
        "value": "0x0",
        "input": "0xe4849b32000000000000000000000000000000000000000000000000000000fd2270c425",
        "nonce": "0x13bf",
        "chainId": "0xaa36a7"
      },
      "additionalContracts": [],
      "isFixedGasLimit": false
    }
  ],
  "receipts": [
    {
      "status": "0x1",
      "cumulativeGasUsed": "0x12b0d3b",
      "logs": [
        {
          "address": "0x8aafd3ede9adb0ff97c7aebce82a919afb1c8764",
          "topics": [
            "0xddf252ad1be2c89b69c2b068fc378daa952ba7f163c4a11628f55a4df523b3ef",
            "0x000000000000000000000000c77f7fed3b5cc8249adc428c5f44c9063b9734b4",
            "0x0000000000000000000000000000000000000000000000000000000000000000"
          ],
          "data": "0x000000000000000000000000000000000000000000000000000000fb1c055e3a",
          "blockHash": "0x817ab447c9bc128d1002720d62ab7e5c227718a171c07f170e0d5c51f3a3e81e",
          "blockNumber": "0x731aea",
          "transactionHash": "0xa7ce8624ebcd3edee58792240d435ed4cfa0b1e74e1f15a839ad07a39c56d270",
          "transactionIndex": "0xa9",
          "logIndex": "0xdf",
          "removed": false
        },
        {
          "address": "0x8aafd3ede9adb0ff97c7aebce82a919afb1c8764",
          "topics": [
            "0xddf252ad1be2c89b69c2b068fc378daa952ba7f163c4a11628f55a4df523b3ef",
            "0x000000000000000000000000c77f7fed3b5cc8249adc428c5f44c9063b9734b4",
            "0x000000000000000000000000c77f7fed3b5cc8249adc428c5f44c9063b9734b4"
          ],
          "data": "0x00000000000000000000000000000000000000000000000000000002066b65eb",
          "blockHash": "0x817ab447c9bc128d1002720d62ab7e5c227718a171c07f170e0d5c51f3a3e81e",
          "blockNumber": "0x731aea",
          "transactionHash": "0xa7ce8624ebcd3edee58792240d435ed4cfa0b1e74e1f15a839ad07a39c56d270",
          "transactionIndex": "0xa9",
          "logIndex": "0xe0",
          "removed": false
        },
        {
          "address": "0x8aafd3ede9adb0ff97c7aebce82a919afb1c8764",
          "topics": [
            "0x4afcb4a87cdbd9974efdb92ee48bc8d7cd0ae4bf217004db3d080cbaee652ca7"
          ],
          "data": "0x0000000000000000000000000000000000000000000000000000000067903fc8000000000000000000000000000000000000000000000000000d64b024d3450b00000000000000000000000000000000000000000000000000000000f44c2e29",
          "blockHash": "0x817ab447c9bc128d1002720d62ab7e5c227718a171c07f170e0d5c51f3a3e81e",
          "blockNumber": "0x731aea",
          "transactionHash": "0xa7ce8624ebcd3edee58792240d435ed4cfa0b1e74e1f15a839ad07a39c56d270",
          "transactionIndex": "0xa9",
          "logIndex": "0xe1",
          "removed": false
        }
      ],
      "logsBloom": "0x00000000000000000000000000000000000000000600000000000000000000000000000000000000000000000000000000000000000000004000000000000000000000000000004000000008000000000000000000000000000000000000000000000000020000000000000000000800020000000000000000000010000000000000000000000000000000000000000000000000000000000000010000000000000000000000000000000000000000004000000000000000000000000000000000000002000000800000000000000000000000000000080000000000000020000000000000000000000000000000000000000000000000000000000000000000",
      "type": "0x2",
      "transactionHash": "0xa7ce8624ebcd3edee58792240d435ed4cfa0b1e74e1f15a839ad07a39c56d270",
      "transactionIndex": "0xa9",
      "blockHash": "0x817ab447c9bc128d1002720d62ab7e5c227718a171c07f170e0d5c51f3a3e81e",
      "blockNumber": "0x731aea",
      "gasUsed": "0xfd1b",
      "effectiveGasPrice": "0x82e7eaf9",
      "from": "0xc77f7fed3b5cc8249adc428c5f44c9063b9734b4",
      "to": "0x8aafd3ede9adb0ff97c7aebce82a919afb1c8764",
      "contractAddress": null
    }
  ],
  "libraries": [],
  "pending": [],
  "returns": {},
  "timestamp": 1737506762,
  "chain": 11155111,
  "commit": "1d2fb70"
}