{
  "transactions": [
    {
      "hash": "0x40ca207a0d02692159e373b2fa7a9196b41369a46011d4183b4805f1a090b9cf",
      "transactionType": "CALL",
      "contractName": null,
      "contractAddress": "0xd7bc75898e513accccf720a874d44dab5a4b6223",
      "function": "sell(uint256)",
      "arguments": [
        "9929991811443447715"
      ],
      "transaction": {
        "from": "0xc77f7fed3b5cc8249adc428c5f44c9063b9734b4",
        "to": "0xd7bc75898e513accccf720a874d44dab5a4b6223",
        "gas": "0x15b6b",
        "value": "0x0",
        "input": "0xe4849b3200000000000000000000000000000000000000000000000089ce6af0ef9fd7a3",
        "nonce": "0xe3",
        "chainId": "0xaa36a7"
      },
      "additionalContracts": [],
      "isFixedGasLimit": false
    }
  ],
  "receipts": [
    {
      "status": "0x1",
      "cumulativeGasUsed": "0x3a4f48",
      "logs": [
        {
          "address": "0xd7bc75898e513accccf720a874d44dab5a4b6223",
          "topics": [
            "0xddf252ad1be2c89b69c2b068fc378daa952ba7f163c4a11628f55a4df523b3ef",
            "0x000000000000000000000000c77f7fed3b5cc8249adc428c5f44c9063b9734b4",
            "0x0000000000000000000000000000000000000000000000000000000000000000"
          ],
          "data": "0x00000000000000000000000000000000000000000000000089ce6af0ef9fd7a3",
          "blockHash": "0x13e083ac4c026aa1fa1ebc54e20c7d97d0ded6a6224cbea456f3e45cd47a55f8",
          "blockNumber": "0x723964",
          "transactionHash": "0x40ca207a0d02692159e373b2fa7a9196b41369a46011d4183b4805f1a090b9cf",
          "transactionIndex": "0x28",
          "logIndex": "0x3e",
          "removed": false
        },
        {
          "address": "0xd7bc75898e513accccf720a874d44dab5a4b6223",
          "topics": [
            "0x4afcb4a87cdbd9974efdb92ee48bc8d7cd0ae4bf217004db3d080cbaee652ca7"
          ],
          "data": "0x000000000000000000000000000000000000000000000000000000006785a1f800000000000000000000000000000000000000000000000000038d7f8a5fec740000000000000000000000000000000000000000000000000023474f493d2798",
          "blockHash": "0x13e083ac4c026aa1fa1ebc54e20c7d97d0ded6a6224cbea456f3e45cd47a55f8",
          "blockNumber": "0x723964",
          "transactionHash": "0x40ca207a0d02692159e373b2fa7a9196b41369a46011d4183b4805f1a090b9cf",
          "transactionIndex": "0x28",
          "logIndex": "0x3f",
          "removed": false
        }
      ],
      "logsBloom": "0x00000000000000000000000000000000000000000000000000000000000000000000000000000000000000000000000000000000000000004000000000000000000000000000000000000008000000000000000000000000000000000000000000000000020000000000000000000800020000000000000000000010000000000000000000000000000000000000000000000000000000000000010000000000000000000000000000000000000000004000001000000000000000000000000000000002000000800000000000004000000000000000080000000000000020000000000000000000000000000000000000000000080000000000000000000000",
      "type": "0x2",
      "transactionHash": "0x40ca207a0d02692159e373b2fa7a9196b41369a46011d4183b4805f1a090b9cf",
      "transactionIndex": "0x28",
      "blockHash": "0x13e083ac4c026aa1fa1ebc54e20c7d97d0ded6a6224cbea456f3e45cd47a55f8",
      "blockNumber": "0x723964",
      "gasUsed": "0xfb87",
      "effectiveGasPrice": "0x1f31e8bf",
      "from": "0xc77f7fed3b5cc8249adc428c5f44c9063b9734b4",
      "to": "0xd7bc75898e513accccf720a874d44dab5a4b6223",
      "contractAddress": null
    }
  ],
  "libraries": [],
  "pending": [],
  "returns": {},
  "timestamp": 1736811001,
  "chain": 11155111,
  "commit": "51a374b"
}