{
  "transactions": [
    {
      "hash": "0x3488db743b5fb42f86745083d8f70929f0b4ae16c0b0a7d896f81885aec2ad57",
      "transactionType": "CALL",
      "contractName": null,
      "contractAddress": "0x270e88f8683660553e8ba4eb2ad7c91a1710d769",
      "function": "buy(address)",
      "arguments": [
        "0xC77f7fed3b5Cc8249aDc428c5F44C9063B9734b4"
      ],
      "transaction": {
        "from": "0xc77f7fed3b5cc8249adc428c5f44c9063b9734b4",
        "to": "0x270e88f8683660553e8ba4eb2ad7c91a1710d769",
        "gas": "0x1b30c",
        "value": "0xde0b6b3a7640000",
        "input": "0xf088d547000000000000000000000000c77f7fed3b5cc8249adc428c5f44c9063b9734b4",
        "nonce": "0x713",
        "chainId": "0xaa36a7"
      },
      "additionalContracts": [],
      "isFixedGasLimit": false
    }
  ],
  "receipts": [
    {
      "status": "0x1",
      "cumulativeGasUsed": "0x735e52",
      "logs": [
        {
          "address": "0x270e88f8683660553e8ba4eb2ad7c91a1710d769",
          "topics": [
            "0xddf252ad1be2c89b69c2b068fc378daa952ba7f163c4a11628f55a4df523b3ef",
            "0x0000000000000000000000000000000000000000000000000000000000000000",
            "0x000000000000000000000000c77f7fed3b5cc8249adc428c5f44c9063b9734b4"
          ],
          "data": "0x0000000000000000000000000000000000000000000000282eed374c847d8f89",
          "blockHash": "0xf0280da78e8f71b30c7846d6083e769a21825d7fae2a1f65475e50b657b96062",
          "blockNumber": "0x72542a",
          "transactionHash": "0x3488db743b5fb42f86745083d8f70929f0b4ae16c0b0a7d896f81885aec2ad57",
          "transactionIndex": "0x40",
          "logIndex": "0x78",
          "removed": false
        },
        {
          "address": "0x270e88f8683660553e8ba4eb2ad7c91a1710d769",
          "topics": [
            "0xddf252ad1be2c89b69c2b068fc378daa952ba7f163c4a11628f55a4df523b3ef",
            "0x0000000000000000000000000000000000000000000000000000000000000000",
            "0x000000000000000000000000c77f7fed3b5cc8249adc428c5f44c9063b9734b4"
          ],
          "data": "0x0000000000000000000000000000000000000000000000001f34263fbcb02839",
          "blockHash": "0xf0280da78e8f71b30c7846d6083e769a21825d7fae2a1f65475e50b657b96062",
          "blockNumber": "0x72542a",
          "transactionHash": "0x3488db743b5fb42f86745083d8f70929f0b4ae16c0b0a7d896f81885aec2ad57",
          "transactionIndex": "0x40",
          "logIndex": "0x79",
          "removed": false
        },
        {
          "address": "0x270e88f8683660553e8ba4eb2ad7c91a1710d769",
          "topics": [
            "0x4afcb4a87cdbd9974efdb92ee48bc8d7cd0ae4bf217004db3d080cbaee652ca7"
          ],
          "data": "0x000000000000000000000000000000000000000000000000000000006786e4000000000000000000000000000000000000000000000000000004beceb0d0fa950000000000000000000000000000000000000000000000000de0b6b3a7640000",
          "blockHash": "0xf0280da78e8f71b30c7846d6083e769a21825d7fae2a1f65475e50b657b96062",
          "blockNumber": "0x72542a",
          "transactionHash": "0x3488db743b5fb42f86745083d8f70929f0b4ae16c0b0a7d896f81885aec2ad57",
          "transactionIndex": "0x40",
          "logIndex": "0x7a",
          "removed": false
        }
      ],
      "logsBloom": "0x00000000000000000000000000000000000000000000000000000000000000000000000000000000000000000000000020000000000000004000000000000000000000000000000000000008000000000000000000000000000000000000000000000000020000000000000000000800020000000000000000000010000000000000000000010000000000000000000000000000000000000000010000000000000000000000000000000000000000004000000000000000000000000000000000000002000000800000000000000000000000000000080000008000000020000000000000000000000000000000000000000000000000000000000000000000",
      "type": "0x2",
      "transactionHash": "0x3488db743b5fb42f86745083d8f70929f0b4ae16c0b0a7d896f81885aec2ad57",
      "transactionIndex": "0x40",
      "blockHash": "0xf0280da78e8f71b30c7846d6083e769a21825d7fae2a1f65475e50b657b96062",
      "blockNumber": "0x72542a",
      "gasUsed": "0x13af8",
      "effectiveGasPrice": "0x142670a52",
      "from": "0xc77f7fed3b5cc8249adc428c5f44c9063b9734b4",
      "to": "0x270e88f8683660553e8ba4eb2ad7c91a1710d769",
      "contractAddress": null
    }
  ],
  "libraries": [],
  "pending": [],
  "returns": {},
  "timestamp": 1736893441,
  "chain": 11155111,
  "commit": "51a374b"
}