{
  "transactions": [
    {
      "hash": "0x9c649839aef90c2c6c0188b0008f0404b31b6b631d38207fac64dfae394320a0",
      "transactionType": "CALL",
      "contractName": null,
      "contractAddress": "0x8aafd3ede9adb0ff97c7aebce82a919afb1c8764",
      "function": "sell(uint256)",
      "arguments": [
        "42531641877272241"
      ],
      "transaction": {
        "from": "0xc77f7fed3b5cc8249adc428c5f44c9063b9734b4",
        "to": "0x8aafd3ede9adb0ff97c7aebce82a919afb1c8764",
        "gas": "0x1724d",
        "value": "0x0",
        "input": "0xe4849b3200000000000000000000000000000000000000000000000000971a4d8dcf16b1",
        "nonce": "0x12d7",
        "chainId": "0xaa36a7"
      },
      "additionalContracts": [],
      "isFixedGasLimit": false
    }
  ],
  "receipts": [
    {
      "status": "0x1",
      "cumulativeGasUsed": "0xce368a",
      "logs": [
        {
          "address": "0x8aafd3ede9adb0ff97c7aebce82a919afb1c8764",
          "topics": [
            "0xddf252ad1be2c89b69c2b068fc378daa952ba7f163c4a11628f55a4df523b3ef",
            "0x000000000000000000000000c77f7fed3b5cc8249adc428c5f44c9063b9734b4",
            "0x0000000000000000000000000000000000000000000000000000000000000000"
          ],
          "data": "0x0000000000000000000000000000000000000000000000000095e4d8328ffdf0",
          "blockHash": "0x390f511cd49d538364ff8f2bc0da129fd541762ff0e154cf0d3effbc779b07dd",
          "blockNumber": "0x7319d6",
          "transactionHash": "0x9c649839aef90c2c6c0188b0008f0404b31b6b631d38207fac64dfae394320a0",
          "transactionIndex": "0x77",
          "logIndex": "0x96",
          "removed": false
        },
        {
          "address": "0x8aafd3ede9adb0ff97c7aebce82a919afb1c8764",
          "topics": [
            "0xddf252ad1be2c89b69c2b068fc378daa952ba7f163c4a11628f55a4df523b3ef",
            "0x000000000000000000000000c77f7fed3b5cc8249adc428c5f44c9063b9734b4",
            "0x000000000000000000000000c77f7fed3b5cc8249adc428c5f44c9063b9734b4"
          ],
          "data": "0x000000000000000000000000000000000000000000000000000135755b3f18c1",
          "blockHash": "0x390f511cd49d538364ff8f2bc0da129fd541762ff0e154cf0d3effbc779b07dd",
          "blockNumber": "0x7319d6",
          "transactionHash": "0x9c649839aef90c2c6c0188b0008f0404b31b6b631d38207fac64dfae394320a0",
          "transactionIndex": "0x77",
          "logIndex": "0x97",
          "removed": false
        },
        {
          "address": "0x8aafd3ede9adb0ff97c7aebce82a919afb1c8764",
          "topics": [
            "0x4afcb4a87cdbd9974efdb92ee48bc8d7cd0ae4bf217004db3d080cbaee652ca7"
          ],
          "data": "0x00000000000000000000000000000000000000000000000000000000679032d8000000000000000000000000000000000000000000000000000550735e56a609000000000000000000000000000000000000000000000000000039dcb8f77c99",
          "blockHash": "0x390f511cd49d538364ff8f2bc0da129fd541762ff0e154cf0d3effbc779b07dd",
          "blockNumber": "0x7319d6",
          "transactionHash": "0x9c649839aef90c2c6c0188b0008f0404b31b6b631d38207fac64dfae394320a0",
          "transactionIndex": "0x77",
          "logIndex": "0x98",
          "removed": false
        }
      ],
      "logsBloom": "0x00000000000000000000000000000000000000000600000000000000000000000000000000000000000000000000000000000000000000004000000000000000000000000000004000000008000000000000000000000000000000000000000000000000020000000000000000000800020000000000000000000010000000000000000000000000000000000000000000000000000000000000010000000000000000000000000000000000000000004000000000000000000000000000000000000002000000800000000000000000000000000000080000000000000020000000000000000000000000000000000000000000000000000000000000000000",
      "type": "0x2",
      "transactionHash": "0x9c649839aef90c2c6c0188b0008f0404b31b6b631d38207fac64dfae394320a0",
      "transactionIndex": "0x77",
      "blockHash": "0x390f511cd49d538364ff8f2bc0da129fd541762ff0e154cf0d3effbc779b07dd",
      "blockNumber": "0x7319d6",
      "gasUsed": "0xfd33",
      "effectiveGasPrice": "0x3af5fdea",
      "from": "0xc77f7fed3b5cc8249adc428c5f44c9063b9734b4",
      "to": "0x8aafd3ede9adb0ff97c7aebce82a919afb1c8764",
      "contractAddress": null
    }
  ],
  "libraries": [],
  "pending": [],
  "returns": {},
  "timestamp": 1737503449,
  "chain": 11155111,
  "commit": "1d2fb70"
}