{
  "transactions": [
    {
      "hash": "0x85ab28d2a14854613ce6f4d5f14f23a72b395682a8955473724ed9815a5ff40b",
      "transactionType": "CALL",
      "contractName": null,
      "contractAddress": "0x8aafd3ede9adb0ff97c7aebce82a919afb1c8764",
      "function": "sell(uint256)",
      "arguments": [
        "251848585367903425599"
      ],
      "transaction": {
        "from": "0xc77f7fed3b5cc8249adc428c5f44c9063b9734b4",
        "to": "0x8aafd3ede9adb0ff97c7aebce82a919afb1c8764",
        "gas": "0x17270",
        "value": "0x0",
        "input": "0xe4849b3200000000000000000000000000000000000000000000000da719ea0a8686543f",
        "nonce": "0x13fa",
        "chainId": "0xaa36a7"
      },
      "additionalContracts": [],
      "isFixedGasLimit": false
    }
  ],
  "receipts": [
    {
      "status": "0x1",
      "cumulativeGasUsed": "0xc96507",
      "logs": [
        {
          "address": "0x8aafd3ede9adb0ff97c7aebce82a919afb1c8764",
          "topics": [
            "0xddf252ad1be2c89b69c2b068fc378daa952ba7f163c4a11628f55a4df523b3ef",
            "0x000000000000000000000000c77f7fed3b5cc8249adc428c5f44c9063b9734b4",
            "0x0000000000000000000000000000000000000000000000000000000000000000"
          ],
          "data": "0x00000000000000000000000000000000000000000000000d8b23f268a6376e33",
          "blockHash": "0xbc6e80efda3e053b42851d9f5d23846079b51f7cacba0cfccb3a1f886024b3c2",
          "blockNumber": "0x731b2f",
          "transactionHash": "0x85ab28d2a14854613ce6f4d5f14f23a72b395682a8955473724ed9815a5ff40b",
          "transactionIndex": "0x62",
          "logIndex": "0xa1",
          "removed": false
        },
        {
          "address": "0x8aafd3ede9adb0ff97c7aebce82a919afb1c8764",
          "topics": [
            "0xddf252ad1be2c89b69c2b068fc378daa952ba7f163c4a11628f55a4df523b3ef",
            "0x000000000000000000000000c77f7fed3b5cc8249adc428c5f44c9063b9734b4",
            "0x000000000000000000000000c77f7fed3b5cc8249adc428c5f44c9063b9734b4"
          ],
          "data": "0x0000000000000000000000000000000000000000000000001bf5f7a1e04ee60c",
          "blockHash": "0xbc6e80efda3e053b42851d9f5d23846079b51f7cacba0cfccb3a1f886024b3c2",
          "blockNumber": "0x731b2f",
          "transactionHash": "0x85ab28d2a14854613ce6f4d5f14f23a72b395682a8955473724ed9815a5ff40b",
          "transactionIndex": "0x62",
          "logIndex": "0xa2",
          "removed": false
        },
        {
          "address": "0x8aafd3ede9adb0ff97c7aebce82a919afb1c8764",
          "topics": [
            "0x4afcb4a87cdbd9974efdb92ee48bc8d7cd0ae4bf217004db3d080cbaee652ca7"
          ],
          "data": "0x0000000000000000000000000000000000000000000000000000000067904304000000000000000000000000000000000000000000000000000e1c1b583faa2e0000000000000000000000000000000000000000000000000dcdf8fab0bd5353",
          "blockHash": "0xbc6e80efda3e053b42851d9f5d23846079b51f7cacba0cfccb3a1f886024b3c2",
          "blockNumber": "0x731b2f",
          "transactionHash": "0x85ab28d2a14854613ce6f4d5f14f23a72b395682a8955473724ed9815a5ff40b",
          "transactionIndex": "0x62",
          "logIndex": "0xa3",
          "removed": false
        }
      ],
      "logsBloom": "0x00000000000000000000000000000000000000000600000000000000000000000000000000000000000000000000000000000000000000004000000000000000000000000000004000000008000000000000000000000000000000000000000000000000020000000000000000000800020000000000000000000010000000000000000000000000000000000000000000000000000000000000010000000000000000000000000000000000000000004000000000000000000000000000000000000002000000800000000000000000000000000000080000000000000020000000000000000000000000000000000000000000000000000000000000000000",
      "type": "0x2",
      "transactionHash": "0x85ab28d2a14854613ce6f4d5f14f23a72b395682a8955473724ed9815a5ff40b",
      "transactionIndex": "0x62",
      "blockHash": "0xbc6e80efda3e053b42851d9f5d23846079b51f7cacba0cfccb3a1f886024b3c2",
      "blockNumber": "0x731b2f",
      "gasUsed": "0xfd4b",
      "effectiveGasPrice": "0xa8323e14",
      "from": "0xc77f7fed3b5cc8249adc428c5f44c9063b9734b4",
      "to": "0x8aafd3ede9adb0ff97c7aebce82a919afb1c8764",
      "contractAddress": null
    }
  ],
  "libraries": [],
  "pending": [],
  "returns": {},
  "timestamp": 1737507590,
  "chain": 11155111,
  "commit": "1d2fb70"
}