{
  "transactions": [
    {
      "hash": "0x3e43efc1b84f06a489715c5a67cbd914d2f164e7283adbd0005333b818a4f0c0",
      "transactionType": "CALL",
      "contractName": null,
      "contractAddress": "0x742682fc650b305f190aba4d72fafd4ecdf29c26",
      "function": "buy(address)",
      "arguments": [
        "0xC77f7fed3b5Cc8249aDc428c5F44C9063B9734b4"
      ],
      "transaction": {
        "from": "0xc77f7fed3b5cc8249adc428c5f44c9063b9734b4",
        "to": "0x742682fc650b305f190aba4d72fafd4ecdf29c26",
        "gas": "0x16aab",
        "value": "0xde0b6b3a7640000",
        "input": "0xf088d547000000000000000000000000c77f7fed3b5cc8249adc428c5f44c9063b9734b4",
        "nonce": "0x1836",
        "chainId": "0xaa36a7"
      },
      "additionalContracts": [],
      "isFixedGasLimit": false
    }
  ],
  "receipts": [
    {
      "status": "0x1",
      "cumulativeGasUsed": "0xa53f92",
      "logs": [
        {
          "address": "0x742682fc650b305f190aba4d72fafd4ecdf29c26",
          "topics": [
            "0xddf252ad1be2c89b69c2b068fc378daa952ba7f163c4a11628f55a4df523b3ef",
            "0x0000000000000000000000000000000000000000000000000000000000000000",
            "0x000000000000000000000000c77f7fed3b5cc8249adc428c5f44c9063b9734b4"
          ],
          "data": "0x0000000000000000000000000000000000000000000000354bd4758c12c2e91a",
          "blockHash": "0x8b9d1c6deaec9900615a46734422667ffc52aae5613bb7743989a242cc620d1b",
          "blockNumber": "0x73502f",
          "transactionHash": "0x3e43efc1b84f06a489715c5a67cbd914d2f164e7283adbd0005333b818a4f0c0",
          "transactionIndex": "0x4d",
          "logIndex": "0xaa",
          "removed": false
        },
        {
          "address": "0x742682fc650b305f190aba4d72fafd4ecdf29c26",
          "topics": [
            "0xddf252ad1be2c89b69c2b068fc378daa952ba7f163c4a11628f55a4df523b3ef",
            "0x0000000000000000000000000000000000000000000000000000000000000000",
            "0x000000000000000000000000c77f7fed3b5cc8249adc428c5f44c9063b9734b4"
          ],
          "data": "0x0000000000000000000000000000000000000000000000002962e639e768e334",
          "blockHash": "0x8b9d1c6deaec9900615a46734422667ffc52aae5613bb7743989a242cc620d1b",
          "blockNumber": "0x73502f",
          "transactionHash": "0x3e43efc1b84f06a489715c5a67cbd914d2f164e7283adbd0005333b818a4f0c0",
          "transactionIndex": "0x4d",
          "logIndex": "0xab",
          "removed": false
        },
        {
          "address": "0x742682fc650b305f190aba4d72fafd4ecdf29c26",
          "topics": [
            "0x4afcb4a87cdbd9974efdb92ee48bc8d7cd0ae4bf217004db3d080cbaee652ca7"
          ],
          "data": "0x000000000000000000000000000000000000000000000000000000006792d0ec00000000000000000000000000000000000000000000000000039709e44553590000000000000000000000000000000000000000000000000de0b6b3a7640000",
          "blockHash": "0x8b9d1c6deaec9900615a46734422667ffc52aae5613bb7743989a242cc620d1b",
          "blockNumber": "0x73502f",
          "transactionHash": "0x3e43efc1b84f06a489715c5a67cbd914d2f164e7283adbd0005333b818a4f0c0",
          "transactionIndex": "0x4d",
          "logIndex": "0xac",
          "removed": false
        }
      ],
      "logsBloom": "0x00000000000000000000000000000000000000000000000000000000000000000000000000000000000000020000000000000000000000004000000000000000000002000000000000000008000000000000000000000000000000000000000000000000020000000000000000000800020000000000000000000010000000000100000000000000000000000000000000000000000000000000010000000000000000000000000000000000000000004000000000000000000000000000000000000002000000800000000000000000000000000000080000000000000020000000000000000000000000000000000000000000000000000000000000000000",
      "type": "0x2",
      "transactionHash": "0x3e43efc1b84f06a489715c5a67cbd914d2f164e7283adbd0005333b818a4f0c0",
      "transactionIndex": "0x4d",
      "blockHash": "0x8b9d1c6deaec9900615a46734422667ffc52aae5613bb7743989a242cc620d1b",
      "blockNumber": "0x73502f",
      "gasUsed": "0xf7fb",
      "effectiveGasPrice": "0x414be727",
      "from": "0xc77f7fed3b5cc8249adc428c5f44c9063b9734b4",
      "to": "0x742682fc650b305f190aba4d72fafd4ecdf29c26",
      "contractAddress": null
    }
  ],
  "libraries": [],
  "pending": [],
  "returns": {},
  "timestamp": 1737674989,
  "chain": 11155111,
  "commit": "f5162e9"
}