{
  "transactions": [
    {
      "hash": "0x306ab059d47529d14346d9e689e9ca78da0207d68380ef81569dd79dd559c99e",
      "transactionType": "CALL",
      "contractName": null,
      "contractAddress": "0x5eb9cc76c3506942c1c0ead70e877dd5e4f00cb0",
      "function": "buy(address)",
      "arguments": [
        "0xC77f7fed3b5Cc8249aDc428c5F44C9063B9734b4"
      ],
      "transaction": {
        "from": "0xc77f7fed3b5cc8249adc428c5f44c9063b9734b4",
        "to": "0x5eb9cc76c3506942c1c0ead70e877dd5e4f00cb0",
        "gas": "0x1b30c",
        "value": "0xde0b6b3a7640000",
        "input": "0xf088d547000000000000000000000000c77f7fed3b5cc8249adc428c5f44c9063b9734b4",
        "nonce": "0x2aa",
        "chainId": "0xaa36a7"
      },
      "additionalContracts": [],
      "isFixedGasLimit": false
    }
  ],
  "receipts": [
    {
      "status": "0x1",
      "cumulativeGasUsed": "0x17f3c4",
      "logs": [
        {
          "address": "0x5eb9cc76c3506942c1c0ead70e877dd5e4f00cb0",
          "topics": [
            "0xddf252ad1be2c89b69c2b068fc378daa952ba7f163c4a11628f55a4df523b3ef",
            "0x0000000000000000000000000000000000000000000000000000000000000000",
            "0x000000000000000000000000c77f7fed3b5cc8249adc428c5f44c9063b9734b4"
          ],
          "data": "0x00000000000000000000000000000000000000000000003575c343a7d1247ccb",
          "blockHash": "0x041597b3b90d09bd843d64ddf6bffb88f904cd60c7d22b7eec48224afcc0998e",
          "blockNumber": "0x724e84",
          "transactionHash": "0x306ab059d47529d14346d9e689e9ca78da0207d68380ef81569dd79dd559c99e",
          "transactionIndex": "0x11",
          "logIndex": "0x11",
          "removed": false
        },
        {
          "address": "0x5eb9cc76c3506942c1c0ead70e877dd5e4f00cb0",
          "topics": [
            "0xddf252ad1be2c89b69c2b068fc378daa952ba7f163c4a11628f55a4df523b3ef",
            "0x0000000000000000000000000000000000000000000000000000000000000000",
            "0x000000000000000000000000c77f7fed3b5cc8249adc428c5f44c9063b9734b4"
          ],
          "data": "0x0000000000000000000000000000000000000000000000002983762b24095df1",
          "blockHash": "0x041597b3b90d09bd843d64ddf6bffb88f904cd60c7d22b7eec48224afcc0998e",
          "blockNumber": "0x724e84",
          "transactionHash": "0x306ab059d47529d14346d9e689e9ca78da0207d68380ef81569dd79dd559c99e",
          "transactionIndex": "0x11",
          "logIndex": "0x12",
          "removed": false
        },
        {
          "address": "0x5eb9cc76c3506942c1c0ead70e877dd5e4f00cb0",
          "topics": [
            "0x4afcb4a87cdbd9974efdb92ee48bc8d7cd0ae4bf217004db3d080cbaee652ca7"
          ],
          "data": "0x0000000000000000000000000000000000000000000000000000000067869fe4000000000000000000000000000000000000000000000000000391088b6fe3650000000000000000000000000000000000000000000000000de0b6b3a7640000",
          "blockHash": "0x041597b3b90d09bd843d64ddf6bffb88f904cd60c7d22b7eec48224afcc0998e",
          "blockNumber": "0x724e84",
          "transactionHash": "0x306ab059d47529d14346d9e689e9ca78da0207d68380ef81569dd79dd559c99e",
          "transactionIndex": "0x11",
          "logIndex": "0x13",
          "removed": false
        }
      ],
      "logsBloom": "0x00000000000000000000000000000000000000000000000000000000000000000000000000000000000000000000000000000000000000004000000000000000000000000000000000000008000000000000000000000000000000000000000000000000020000000000000004000800020000000000000000000010000000000000000000000000000000000000000000000000000000000000010000000000000000000000000000000000000000004000000000000000000000000000020000000002000000800000008000000000000000000000080000000000000020000000000000000000000000000000000000000000000000000000000000000000",
      "type": "0x2",
      "transactionHash": "0x306ab059d47529d14346d9e689e9ca78da0207d68380ef81569dd79dd559c99e",
      "transactionIndex": "0x11",
      "blockHash": "0x041597b3b90d09bd843d64ddf6bffb88f904cd60c7d22b7eec48224afcc0998e",
      "blockNumber": "0x724e84",
      "gasUsed": "0x13af8",
      "effectiveGasPrice": "0x43ba53951",
      "from": "0xc77f7fed3b5cc8249adc428c5f44c9063b9734b4",
      "to": "0x5eb9cc76c3506942c1c0ead70e877dd5e4f00cb0",
      "contractAddress": null
    }
  ],
  "libraries": [],
  "pending": [],
  "returns": {},
  "timestamp": 1736876005,
  "chain": 11155111,
  "commit": "51a374b"
}