{
  "transactions": [
    {
      "hash": "0xde4d4f5a661a283aa685ecb843c75b80848e0fc81e645c359ecd86165659aeca",
      "transactionType": "CALL",
      "contractName": null,
      "contractAddress": "0x5eb9cc76c3506942c1c0ead70e877dd5e4f00cb0",
      "function": "sell(uint256)",
      "arguments": [
        "989106691963388999363"
      ],
      "transaction": {
        "from": "0xc77f7fed3b5cc8249adc428c5f44c9063b9734b4",
        "to": "0x5eb9cc76c3506942c1c0ead70e877dd5e4f00cb0",
        "gas": "0x16fec",
        "value": "0x0",
        "input": "0xe4849b320000000000000000000000000000000000000000000000359e9cdfd42f84b6c3",
        "nonce": "0x3d7",
        "chainId": "0xaa36a7"
      },
      "additionalContracts": [],
      "isFixedGasLimit": false
    }
  ],
  "receipts": [
    {
      "status": "0x1",
      "cumulativeGasUsed": "0xd79dce",
      "logs": [
        {
          "address": "0x5eb9cc76c3506942c1c0ead70e877dd5e4f00cb0",
          "topics": [
            "0xddf252ad1be2c89b69c2b068fc378daa952ba7f163c4a11628f55a4df523b3ef",
            "0x000000000000000000000000c77f7fed3b5cc8249adc428c5f44c9063b9734b4",
            "0x0000000000000000000000000000000000000000000000000000000000000000"
          ],
          "data": "0x0000000000000000000000000000000000000000000000359e9cdfd42f84b6c3",
          "blockHash": "0xac18469d79a19792e4f4de2d750a875881a4930b0a7cd99ac27450944263c9b9",
          "blockNumber": "0x724fdc",
          "transactionHash": "0xde4d4f5a661a283aa685ecb843c75b80848e0fc81e645c359ecd86165659aeca",
          "transactionIndex": "0x79",
          "logIndex": "0xce",
          "removed": false
        },
        {
          "address": "0x5eb9cc76c3506942c1c0ead70e877dd5e4f00cb0",
          "topics": [
            "0x4afcb4a87cdbd9974efdb92ee48bc8d7cd0ae4bf217004db3d080cbaee652ca7"
          ],
          "data": "0x000000000000000000000000000000000000000000000000000000006786b01c00000000000000000000000000000000000000000000000000039113e3ff32bc0000000000000000000000000000000000000000000000000dc7db1331f35b13",
          "blockHash": "0xac18469d79a19792e4f4de2d750a875881a4930b0a7cd99ac27450944263c9b9",
          "blockNumber": "0x724fdc",
          "transactionHash": "0xde4d4f5a661a283aa685ecb843c75b80848e0fc81e645c359ecd86165659aeca",
          "transactionIndex": "0x79",
          "logIndex": "0xcf",
          "removed": false
        }
      ],
      "logsBloom": "0x00000000000000000000000000000000000000000000000000000000000000000000000000000000000000000000000000000000000000004000000000000000000000000000000000000008000000000000000000000000000000000000000000000000020000000000000004000800020000000000000000000010000000000000000000000000000000000000000000000000000000000000010000000000000000000000000000000000000000004000000000000000000000000000020000000002000000800000008000000000000000000000080000000000000020000000000000000000000000000000000000000000000000000000000000000000",
      "type": "0x2",
      "transactionHash": "0xde4d4f5a661a283aa685ecb843c75b80848e0fc81e645c359ecd86165659aeca",
      "transactionIndex": "0x79",
      "blockHash": "0xac18469d79a19792e4f4de2d750a875881a4930b0a7cd99ac27450944263c9b9",
      "blockNumber": "0x724fdc",
      "gasUsed": "0xfb93",
      "effectiveGasPrice": "0x3a719f337",
      "from": "0xc77f7fed3b5cc8249adc428c5f44c9063b9734b4",
      "to": "0x5eb9cc76c3506942c1c0ead70e877dd5e4f00cb0",
      "contractAddress": null
    }
  ],
  "libraries": [],
  "pending": [],
  "returns": {},
  "timestamp": 1736880158,
  "chain": 11155111,
  "commit": "51a374b"
}