{
  "transactions": [
    {
      "hash": "0x5cc60dec70af1b42bad28589adb18421aab97ee70e70b8ba8b1d336b1ac46dc3",
      "transactionType": "CALL",
      "contractName": null,
      "contractAddress": "0x8aafd3ede9adb0ff97c7aebce82a919afb1c8764",
      "function": "buy(address)",
      "arguments": [
        "0xC77f7fed3b5Cc8249aDc428c5F44C9063B9734b4"
      ],
      "transaction": {
        "from": "0xc77f7fed3b5cc8249adc428c5f44c9063b9734b4",
        "to": "0x8aafd3ede9adb0ff97c7aebce82a919afb1c8764",
        "gas": "0x156ea",
        "value": "0xde0b6b3a7640000",
        "input": "0xf088d547000000000000000000000000c77f7fed3b5cc8249adc428c5f44c9063b9734b4",
        "nonce": "0xff0",
        "chainId": "0xaa36a7"
      },
      "additionalContracts": [],
      "isFixedGasLimit": false
    }
  ],
  "receipts": [
    {
      "status": "0x1",
      "cumulativeGasUsed": "0xae176b",
      "logs": [
        {
          "address": "0x8aafd3ede9adb0ff97c7aebce82a919afb1c8764",
          "topics": [
            "0xddf252ad1be2c89b69c2b068fc378daa952ba7f163c4a11628f55a4df523b3ef",
            "0x0000000000000000000000000000000000000000000000000000000000000000",
            "0x000000000000000000000000c77f7fed3b5cc8249adc428c5f44c9063b9734b4"
          ],
          "data": "0x000000000000000000000000000000000000000000000027007e804dff53d3d8",
          "blockHash": "0x463094647d61fbe4f974878b1f804fd3675ac48eed177a4ae84d0f2c9fe77af9",
          "blockNumber": "0x731663",
          "transactionHash": "0x5cc60dec70af1b42bad28589adb18421aab97ee70e70b8ba8b1d336b1ac46dc3",
          "transactionIndex": "0x6b",
          "logIndex": "0xa6",
          "removed": false
        },
        {
          "address": "0x8aafd3ede9adb0ff97c7aebce82a919afb1c8764",
          "topics": [
            "0xddf252ad1be2c89b69c2b068fc378daa952ba7f163c4a11628f55a4df523b3ef",
            "0x0000000000000000000000000000000000000000000000000000000000000000",
            "0x000000000000000000000000c77f7fed3b5cc8249adc428c5f44c9063b9734b4"
          ],
          "data": "0x0000000000000000000000000000000000000000000000001e494cdebaa94652",
          "blockHash": "0x463094647d61fbe4f974878b1f804fd3675ac48eed177a4ae84d0f2c9fe77af9",
          "blockNumber": "0x731663",
          "transactionHash": "0x5cc60dec70af1b42bad28589adb18421aab97ee70e70b8ba8b1d336b1ac46dc3",
          "transactionIndex": "0x6b",
          "logIndex": "0xa7",
          "removed": false
        },
        {
          "address": "0x8aafd3ede9adb0ff97c7aebce82a919afb1c8764",
          "topics": [
            "0x4afcb4a87cdbd9974efdb92ee48bc8d7cd0ae4bf217004db3d080cbaee652ca7"
          ],
          "data": "0x00000000000000000000000000000000000000000000000000000000679009500000000000000000000000000000000000000000000000000004e3e7bb4367a50000000000000000000000000000000000000000000000000de0b6b3a7640000",
          "blockHash": "0x463094647d61fbe4f974878b1f804fd3675ac48eed177a4ae84d0f2c9fe77af9",
          "blockNumber": "0x731663",
          "transactionHash": "0x5cc60dec70af1b42bad28589adb18421aab97ee70e70b8ba8b1d336b1ac46dc3",
          "transactionIndex": "0x6b",
          "logIndex": "0xa8",
          "removed": false
        }
      ],
      "logsBloom": "0x00000000000000000000000000000000000000000600000000000000000000000000000000000000000000000000000000000000000000004000000000000000000000000000004000000008000000000000000000000000000000000000000000000000020000000000000000000800020000000000000000000010000000000000000000000000000000000000000000000000000000000000010000000000000000000000000000000000000000004000000000000000000000000000000000000002000000800000000000000000000000000000080000000000000020000000000000000000000000000000000000000000000000000000000000000000",
      "type": "0x2",
      "transactionHash": "0x5cc60dec70af1b42bad28589adb18421aab97ee70e70b8ba8b1d336b1ac46dc3",
      "transactionIndex": "0x6b",
      "blockHash": "0x463094647d61fbe4f974878b1f804fd3675ac48eed177a4ae84d0f2c9fe77af9",
      "blockNumber": "0x731663",
      "gasUsed": "0xf844",
      "effectiveGasPrice": "0x4b5d5afa",
      "from": "0xc77f7fed3b5cc8249adc428c5f44c9063b9734b4",
      "to": "0x8aafd3ede9adb0ff97c7aebce82a919afb1c8764",
      "contractAddress": null
    }
  ],
  "libraries": [],
  "pending": [],
  "returns": {},
  "timestamp": 1737492816,
  "chain": 11155111,
  "commit": "1d2fb70"
}