{
  "transactions": [
    {
      "hash": "0xb414143286cfa12ae8d4b3b3fde62f1accecc35b7ecf47d768b79500dd5acac0",
      "transactionType": "CALL",
      "contractName": null,
      "contractAddress": "0x8aafd3ede9adb0ff97c7aebce82a919afb1c8764",
      "function": "sell(uint256)",
      "arguments": [
        "237891160833452088991"
      ],
      "transaction": {
        "from": "0xc77f7fed3b5cc8249adc428c5f44c9063b9734b4",
        "to": "0x8aafd3ede9adb0ff97c7aebce82a919afb1c8764",
        "gas": "0x17270",
        "value": "0x0",
        "input": "0xe4849b3200000000000000000000000000000000000000000000000ce5672e606b3b1e9f",
        "nonce": "0x1442",
        "chainId": "0xaa36a7"
      },
      "additionalContracts": [],
      "isFixedGasLimit": false
    }
  ],
  "receipts": [
    {
      "status": "0x1",
      "cumulativeGasUsed": "0x1028cd4",
      "logs": [
        {
          "address": "0x8aafd3ede9adb0ff97c7aebce82a919afb1c8764",
          "topics": [
            "0xddf252ad1be2c89b69c2b068fc378daa952ba7f163c4a11628f55a4df523b3ef",
            "0x000000000000000000000000c77f7fed3b5cc8249adc428c5f44c9063b9734b4",
            "0x0000000000000000000000000000000000000000000000000000000000000000"
          ],
          "data": "0x00000000000000000000000000000000000000000000000ccafde85fa5c3dcd8",
          "blockHash": "0x14c75fab044bbc1df8341fe689cf04f728bc6dd7d4a8754915556fe83d8bd01e",
          "blockNumber": "0x731b84",
          "transactionHash": "0xb414143286cfa12ae8d4b3b3fde62f1accecc35b7ecf47d768b79500dd5acac0",
          "transactionIndex": "0x8e",
          "logIndex": "0x7f",
          "removed": false
        },
        {
          "address": "0x8aafd3ede9adb0ff97c7aebce82a919afb1c8764",
          "topics": [
            "0xddf252ad1be2c89b69c2b068fc378daa952ba7f163c4a11628f55a4df523b3ef",
            "0x000000000000000000000000c77f7fed3b5cc8249adc428c5f44c9063b9734b4",
            "0x000000000000000000000000c77f7fed3b5cc8249adc428c5f44c9063b9734b4"
          ],
          "data": "0x0000000000000000000000000000000000000000000000001a694600c57741c7",
          "blockHash": "0x14c75fab044bbc1df8341fe689cf04f728bc6dd7d4a8754915556fe83d8bd01e",
          "blockNumber": "0x731b84",
          "transactionHash": "0xb414143286cfa12ae8d4b3b3fde62f1accecc35b7ecf47d768b79500dd5acac0",
          "transactionIndex": "0x8e",
          "logIndex": "0x80",
          "removed": false
        },
        {
          "address": "0x8aafd3ede9adb0ff97c7aebce82a919afb1c8764",
          "topics": [
            "0x4afcb4a87cdbd9974efdb92ee48bc8d7cd0ae4bf217004db3d080cbaee652ca7"
          ],
          "data": "0x000000000000000000000000000000000000000000000000000000006790470c000000000000000000000000000000000000000000000000000eee972e66e5480000000000000000000000000000000000000000000000000dcdb6a4c3b750f3",
          "blockHash": "0x14c75fab044bbc1df8341fe689cf04f728bc6dd7d4a8754915556fe83d8bd01e",
          "blockNumber": "0x731b84",
          "transactionHash": "0xb414143286cfa12ae8d4b3b3fde62f1accecc35b7ecf47d768b79500dd5acac0",
          "transactionIndex": "0x8e",
          "logIndex": "0x81",
          "removed": false
        }
      ],
      "logsBloom": "0x00000000000000000000000000000000000000000600000000000000000000000000000000000000000000000000000000000000000000004000000000000000000000000000004000000008000000000000000000000000000000000000000000000000020000000000000000000800020000000000000000000010000000000000000000000000000000000000000000000000000000000000010000000000000000000000000000000000000000004000000000000000000000000000000000000002000000800000000000000000000000000000080000000000000020000000000000000000000000000000000000000000000000000000000000000000",
      "type": "0x2",
      "transactionHash": "0xb414143286cfa12ae8d4b3b3fde62f1accecc35b7ecf47d768b79500dd5acac0",
      "transactionIndex": "0x8e",
      "blockHash": "0x14c75fab044bbc1df8341fe689cf04f728bc6dd7d4a8754915556fe83d8bd01e",
      "blockNumber": "0x731b84",
      "gasUsed": "0xfd4b",
      "effectiveGasPrice": "0x105e3dbe9",
      "from": "0xc77f7fed3b5cc8249adc428c5f44c9063b9734b4",
      "to": "0x8aafd3ede9adb0ff97c7aebce82a919afb1c8764",
      "contractAddress": null
    }
  ],
  "libraries": [],
  "pending": [],
  "returns": {},
  "timestamp": 1737508622,
  "chain": 11155111,
  "commit": "1d2fb70"
}