{
  "transactions": [
    {
      "hash": "0x105a4444d695fd28e6050c39581d39c9762d270bdf67308b6fb41b6a64b6deb2",
      "transactionType": "CALL",
      "contractName": null,
      "contractAddress": "0x270e88f8683660553e8ba4eb2ad7c91a1710d769",
      "function": "sell(uint256)",
      "arguments": [
        "824670100113705231401"
      ],
      "transaction": {
        "from": "0xc77f7fed3b5cc8249adc428c5f44c9063b9734b4",
        "to": "0x270e88f8683660553e8ba4eb2ad7c91a1710d769",
        "gas": "0x16fec",
        "value": "0x0",
        "input": "0xe4849b3200000000000000000000000000000000000000000000002cb498bec393396429",
        "nonce": "0x657",
        "chainId": "0xaa36a7"
      },
      "additionalContracts": [],
      "isFixedGasLimit": false
    }
  ],
  "receipts": [
    {
      "status": "0x1",
      "cumulativeGasUsed": "0x67e54c",
      "logs": [
        {
          "address": "0x270e88f8683660553e8ba4eb2ad7c91a1710d769",
          "topics": [
            "0xddf252ad1be2c89b69c2b068fc378daa952ba7f163c4a11628f55a4df523b3ef",
            "0x000000000000000000000000c77f7fed3b5cc8249adc428c5f44c9063b9734b4",
            "0x0000000000000000000000000000000000000000000000000000000000000000"
          ],
          "data": "0x00000000000000000000000000000000000000000000002cb498bec393396429",
          "blockHash": "0xcb709c88f0fb1c89b1bb30e3a01fd293b0ed6b412980b41548f6daf6cb684581",
          "blockNumber": "0x725343",
          "transactionHash": "0x105a4444d695fd28e6050c39581d39c9762d270bdf67308b6fb41b6a64b6deb2",
          "transactionIndex": "0x44",
          "logIndex": "0x5a",
          "removed": false
        },
        {
          "address": "0x270e88f8683660553e8ba4eb2ad7c91a1710d769",
          "topics": [
            "0x4afcb4a87cdbd9974efdb92ee48bc8d7cd0ae4bf217004db3d080cbaee652ca7"
          ],
          "data": "0x000000000000000000000000000000000000000000000000000000006786d92c000000000000000000000000000000000000000000000000000447298ef731410000000000000000000000000000000000000000000000000dc7e0f9518a9eff",
          "blockHash": "0xcb709c88f0fb1c89b1bb30e3a01fd293b0ed6b412980b41548f6daf6cb684581",
          "blockNumber": "0x725343",
          "transactionHash": "0x105a4444d695fd28e6050c39581d39c9762d270bdf67308b6fb41b6a64b6deb2",
          "transactionIndex": "0x44",
          "logIndex": "0x5b",
          "removed": false
        }
      ],
      "logsBloom": "0x00000000000000000000000000000000000000000000000000000000000000000000000000000000000000000000000020000000000000004000000000000000000000000000000000000008000000000000000000000000000000000000000000000000020000000000000000000800020000000000000000000010000000000000000000010000000000000000000000000000000000000000010000000000000000000000000000000000000000004000000000000000000000000000000000000002000000800000000000000000000000000000080000008000000020000000000000000000000000000000000000000000000000000000000000000000",
      "type": "0x2",
      "transactionHash": "0x105a4444d695fd28e6050c39581d39c9762d270bdf67308b6fb41b6a64b6deb2",
      "transactionIndex": "0x44",
      "blockHash": "0xcb709c88f0fb1c89b1bb30e3a01fd293b0ed6b412980b41548f6daf6cb684581",
      "blockNumber": "0x725343",
      "gasUsed": "0xfb93",
      "effectiveGasPrice": "0x19de517b3",
      "from": "0xc77f7fed3b5cc8249adc428c5f44c9063b9734b4",
      "to": "0x270e88f8683660553e8ba4eb2ad7c91a1710d769",
      "contractAddress": null
    }
  ],
  "libraries": [],
  "pending": [],
  "returns": {},
  "timestamp": 1736890669,
  "chain": 11155111,
  "commit": "51a374b"
}