{
  "transactions": [
    {
      "hash": "0x3591b63b67b51581e020ce921257792705921452c1df2901535bf3c7d531ee43",
      "transactionType": "CALL",
      "contractName": null,
      "contractAddress": "0x8aafd3ede9adb0ff97c7aebce82a919afb1c8764",
      "function": "buy(address)",
      "arguments": [
        "0xC77f7fed3b5Cc8249aDc428c5F44C9063B9734b4"
      ],
      "transaction": {
        "from": "0xc77f7fed3b5cc8249adc428c5f44c9063b9734b4",
        "to": "0x8aafd3ede9adb0ff97c7aebce82a919afb1c8764",
        "gas": "0x156ea",
        "value": "0xde0b6b3a7640000",
        "input": "0xf088d547000000000000000000000000c77f7fed3b5cc8249adc428c5f44c9063b9734b4",
        "nonce": "0xeaf",
        "chainId": "0xaa36a7"
      },
      "additionalContracts": [],
      "isFixedGasLimit": false
    }
  ],
  "receipts": [
    {
      "status": "0x1",
      "cumulativeGasUsed": "0xe79383",
      "logs": [
        {
          "address": "0x8aafd3ede9adb0ff97c7aebce82a919afb1c8764",
          "topics": [
            "0xddf252ad1be2c89b69c2b068fc378daa952ba7f163c4a11628f55a4df523b3ef",
            "0x0000000000000000000000000000000000000000000000000000000000000000",
            "0x000000000000000000000000c77f7fed3b5cc8249adc428c5f44c9063b9734b4"
          ],
          "data": "0x00000000000000000000000000000000000000000000002869dbfe612f7af746",
          "blockHash": "0xaf066be45931fe24243df4115a5d68b3852fd1748269eb1f22292813365c2f3e",
          "blockNumber": "0x731412",
          "transactionHash": "0x3591b63b67b51581e020ce921257792705921452c1df2901535bf3c7d531ee43",
          "transactionIndex": "0xb1",
          "logIndex": "0x108",
          "removed": false
        },
        {
          "address": "0x8aafd3ede9adb0ff97c7aebce82a919afb1c8764",
          "topics": [
            "0xddf252ad1be2c89b69c2b068fc378daa952ba7f163c4a11628f55a4df523b3ef",
            "0x0000000000000000000000000000000000000000000000000000000000000000",
            "0x000000000000000000000000c77f7fed3b5cc8249adc428c5f44c9063b9734b4"
          ],
          "data": "0x0000000000000000000000000000000000000000000000001f61e9a57ca54f10",
          "blockHash": "0xaf066be45931fe24243df4115a5d68b3852fd1748269eb1f22292813365c2f3e",
          "blockNumber": "0x731412",
          "transactionHash": "0x3591b63b67b51581e020ce921257792705921452c1df2901535bf3c7d531ee43",
          "transactionIndex": "0xb1",
          "logIndex": "0x109",
          "removed": false
        },
        {
          "address": "0x8aafd3ede9adb0ff97c7aebce82a919afb1c8764",
          "topics": [
            "0x4afcb4a87cdbd9974efdb92ee48bc8d7cd0ae4bf217004db3d080cbaee652ca7"
          ],
          "data": "0x00000000000000000000000000000000000000000000000000000000678fed840000000000000000000000000000000000000000000000000004b7e73c87d4f30000000000000000000000000000000000000000000000000de0b6b3a7640000",
          "blockHash": "0xaf066be45931fe24243df4115a5d68b3852fd1748269eb1f22292813365c2f3e",
          "blockNumber": "0x731412",
          "transactionHash": "0x3591b63b67b51581e020ce921257792705921452c1df2901535bf3c7d531ee43",
          "transactionIndex": "0xb1",
          "logIndex": "0x10a",
          "removed": false
        }
      ],
      "logsBloom": "0x00000000000000000000000000000000000000000600000000000000000000000000000000000000000000000000000000000000000000004000000000000000000000000000004000000008000000000000000000000000000000000000000000000000020000000000000000000800020000000000000000000010000000000000000000000000000000000000000000000000000000000000010000000000000000000000000000000000000000004000000000000000000000000000000000000002000000800000000000000000000000000000080000000000000020000000000000000000000000000000000000000000000000000000000000000000",
      "type": "0x2",
      "transactionHash": "0x3591b63b67b51581e020ce921257792705921452c1df2901535bf3c7d531ee43",
      "transactionIndex": "0xb1",
      "blockHash": "0xaf066be45931fe24243df4115a5d68b3852fd1748269eb1f22292813365c2f3e",
      "blockNumber": "0x731412",
      "gasUsed": "0xf844",
      "effectiveGasPrice": "0x8237432d",
      "from": "0xc77f7fed3b5cc8249adc428c5f44c9063b9734b4",
      "to": "0x8aafd3ede9adb0ff97c7aebce82a919afb1c8764",
      "contractAddress": null
    }
  ],
  "libraries": [],
  "pending": [],
  "returns": {},
  "timestamp": 1737485701,
  "chain": 11155111,
  "commit": "51a374b"
}