{
  "transactions": [
    {
      "hash": "0x29131c36e397110c087b4e0ef1f746e12c4c7b02461d64d1231a82218f21d075",
      "transactionType": "CALL",
      "contractName": null,
      "contractAddress": "0x8aafd3ede9adb0ff97c7aebce82a919afb1c8764",
      "function": "sell(uint256)",
      "arguments": [
        "43699878182949930"
      ],
      "transaction": {
        "from": "0xc77f7fed3b5cc8249adc428c5f44c9063b9734b4",
        "to": "0x8aafd3ede9adb0ff97c7aebce82a919afb1c8764",
        "gas": "0x1724d",
        "value": "0x0",
        "input": "0xe4849b32000000000000000000000000000000000000000000000000009b40cec3d2942a",
        "nonce": "0x11dd",
        "chainId": "0xaa36a7"
      },
      "additionalContracts": [],
      "isFixedGasLimit": false
    }
  ],
  "receipts": [
    {
      "status": "0x1",
      "cumulativeGasUsed": "0xe11993",
      "logs": [
        {
          "address": "0x8aafd3ede9adb0ff97c7aebce82a919afb1c8764",
          "topics": [
            "0xddf252ad1be2c89b69c2b068fc378daa952ba7f163c4a11628f55a4df523b3ef",
            "0x000000000000000000000000c77f7fed3b5cc8249adc428c5f44c9063b9734b4",
            "0x0000000000000000000000000000000000000000000000000000000000000000"
          ],
          "data": "0x000000000000000000000000000000000000000000000000009a02d9661892fb",
          "blockHash": "0xfeb4babe852666504e3462e3acfb145d0f15069bf66e702b29f80275104e5f0a",
          "blockNumber": "0x7318b3",
          "transactionHash": "0x29131c36e397110c087b4e0ef1f746e12c4c7b02461d64d1231a82218f21d075",
          "transactionIndex": "0x94",
          "logIndex": "0xa5",
          "removed": false
        },
        {
          "address": "0x8aafd3ede9adb0ff97c7aebce82a919afb1c8764",
          "topics": [
            "0xddf252ad1be2c89b69c2b068fc378daa952ba7f163c4a11628f55a4df523b3ef",
            "0x000000000000000000000000c77f7fed3b5cc8249adc428c5f44c9063b9734b4",
            "0x000000000000000000000000c77f7fed3b5cc8249adc428c5f44c9063b9734b4"
          ],
          "data": "0x00000000000000000000000000000000000000000000000000013df55dba012f",
          "blockHash": "0xfeb4babe852666504e3462e3acfb145d0f15069bf66e702b29f80275104e5f0a",
          "blockNumber": "0x7318b3",
          "transactionHash": "0x29131c36e397110c087b4e0ef1f746e12c4c7b02461d64d1231a82218f21d075",
          "transactionIndex": "0x94",
          "logIndex": "0xa6",
          "removed": false
        },
        {
          "address": "0x8aafd3ede9adb0ff97c7aebce82a919afb1c8764",
          "topics": [
            "0x4afcb4a87cdbd9974efdb92ee48bc8d7cd0ae4bf217004db3d080cbaee652ca7"
          ],
          "data": "0x000000000000000000000000000000000000000000000000000000006790253400000000000000000000000000000000000000000000000000052c1eafc6da54000000000000000000000000000000000000000000000000000039dd26da78df",
          "blockHash": "0xfeb4babe852666504e3462e3acfb145d0f15069bf66e702b29f80275104e5f0a",
          "blockNumber": "0x7318b3",
          "transactionHash": "0x29131c36e397110c087b4e0ef1f746e12c4c7b02461d64d1231a82218f21d075",
          "transactionIndex": "0x94",
          "logIndex": "0xa7",
          "removed": false
        }
      ],
      "logsBloom": "0x00000000000000000000000000000000000000000600000000000000000000000000000000000000000000000000000000000000000000004000000000000000000000000000004000000008000000000000000000000000000000000000000000000000020000000000000000000800020000000000000000000010000000000000000000000000000000000000000000000000000000000000010000000000000000000000000000000000000000004000000000000000000000000000000000000002000000800000000000000000000000000000080000000000000020000000000000000000000000000000000000000000000000000000000000000000",
      "type": "0x2",
      "transactionHash": "0x29131c36e397110c087b4e0ef1f746e12c4c7b02461d64d1231a82218f21d075",
      "transactionIndex": "0x94",
      "blockHash": "0xfeb4babe852666504e3462e3acfb145d0f15069bf66e702b29f80275104e5f0a",
      "blockNumber": "0x7318b3",
      "gasUsed": "0xfd33",
      "effectiveGasPrice": "0x4077d86b",
      "from": "0xc77f7fed3b5cc8249adc428c5f44c9063b9734b4",
      "to": "0x8aafd3ede9adb0ff97c7aebce82a919afb1c8764",
      "contractAddress": null
    }
  ],
  "libraries": [],
  "pending": [],
  "returns": {},
  "timestamp": 1737499958,
  "chain": 11155111,
  "commit": "1d2fb70"
}