{
  "transactions": [
    {
      "hash": "0xf64c429917094002b1b7935dd86c1356bd782dc09ec21859803859e10ca4cf96",
      "transactionType": "CALL",
      "contractName": null,
      "contractAddress": "0xbf4a322f1496e5c3d34a9bcdb4c60567b38c7de2",
      "function": "sell(uint256)",
      "arguments": [
        "988845934452828214021"
      ],
      "transaction": {
        "from": "0xc77f7fed3b5cc8249adc428c5f44c9063b9734b4",
        "to": "0xbf4a322f1496e5c3d34a9bcdb4c60567b38c7de2",
        "gas": "0x16fea",
        "value": "0x0",
        "input": "0xe4849b320000000000000000000000000000000000000000000000359afe7a412a071305",
        "nonce": "0x98b",
        "chainId": "0xaa36a7"
      },
      "additionalContracts": [],
      "isFixedGasLimit": false
    }
  ],
  "receipts": [
    {
      "status": "0x1",
      "cumulativeGasUsed": "0x146771f",
      "logs": [
        {
          "address": "0xbf4a322f1496e5c3d34a9bcdb4c60567b38c7de2",
          "topics": [
            "0xddf252ad1be2c89b69c2b068fc378daa952ba7f163c4a11628f55a4df523b3ef",
            "0x000000000000000000000000c77f7fed3b5cc8249adc428c5f44c9063b9734b4",
            "0x0000000000000000000000000000000000000000000000000000000000000000"
          ],
          "data": "0x0000000000000000000000000000000000000000000000359afe7a412a071305",
          "blockHash": "0x19168abaea5a101cc43ceeacf7ac8b9a99f66fe2dc86f7f46fef17bdd4fb559d",
          "blockNumber": "0x72592e",
          "transactionHash": "0xf64c429917094002b1b7935dd86c1356bd782dc09ec21859803859e10ca4cf96",
          "transactionIndex": "0xac",
          "logIndex": "0xd6",
          "removed": false
        },
        {
          "address": "0xbf4a322f1496e5c3d34a9bcdb4c60567b38c7de2",
          "topics": [
            "0x4afcb4a87cdbd9974efdb92ee48bc8d7cd0ae4bf217004db3d080cbaee652ca7"
          ],
          "data": "0x000000000000000000000000000000000000000000000000000000006787205400000000000000000000000000000000000000000000000000039157eb3402e90000000000000000000000000000000000000000000000000dc7e3f6a2155ebf",
          "blockHash": "0x19168abaea5a101cc43ceeacf7ac8b9a99f66fe2dc86f7f46fef17bdd4fb559d",
          "blockNumber": "0x72592e",
          "transactionHash": "0xf64c429917094002b1b7935dd86c1356bd782dc09ec21859803859e10ca4cf96",
          "transactionIndex": "0xac",
          "logIndex": "0xd7",
          "removed": false
        }
      ],
      "logsBloom": "0x00000000000000000000000000000000000000000000000000000000000000000000000000000000000000000000000000000000000000004000000000000000000000000000000000000008000000000000001000000000000000000000000000000000020000000000000000000800020000000000000000000010000000000000000000000000000000000000000000000000000008000000010000000000000000000000000000000000000000004000000000000000000000000000000000000002000000800000000000001000000000000000080000000000000020000000000000000000000000000000000000000000000000000000000000000000",
      "type": "0x2",
      "transactionHash": "0xf64c429917094002b1b7935dd86c1356bd782dc09ec21859803859e10ca4cf96",
      "transactionIndex": "0xac",
      "blockHash": "0x19168abaea5a101cc43ceeacf7ac8b9a99f66fe2dc86f7f46fef17bdd4fb559d",
      "blockNumber": "0x72592e",
      "gasUsed": "0xfb91",
      "effectiveGasPrice": "0x11ab4504d",
      "from": "0xc77f7fed3b5cc8249adc428c5f44c9063b9734b4",
      "to": "0xbf4a322f1496e5c3d34a9bcdb4c60567b38c7de2",
      "contractAddress": null
    }
  ],
  "libraries": [],
  "pending": [],
  "returns": {},
  "timestamp": 1736908886,
  "chain": 11155111,
  "commit": "51a374b"
}