{
  "transactions": [
    {
      "hash": "0x3794833d154002637f83fa44220c4fa692e11bfd27a160336dad8e887da7c4dd",
      "transactionType": "CALL",
      "contractName": null,
      "contractAddress": "0x8aafd3ede9adb0ff97c7aebce82a919afb1c8764",
      "function": "sell(uint256)",
      "arguments": [
        "358341"
      ],
      "transaction": {
        "from": "0xc77f7fed3b5cc8249adc428c5f44c9063b9734b4",
        "to": "0x8aafd3ede9adb0ff97c7aebce82a919afb1c8764",
        "gas": "0x16208",
        "value": "0x0",
        "input": "0xe4849b3200000000000000000000000000000000000000000000000000000000000577c5",
        "nonce": "0x1641",
        "chainId": "0xaa36a7"
      },
      "additionalContracts": [],
      "isFixedGasLimit": false
    }
  ],
  "receipts": [
    {
      "status": "0x1",
      "cumulativeGasUsed": "0x797748",
      "logs": [
        {
          "address": "0x8aafd3ede9adb0ff97c7aebce82a919afb1c8764",
          "topics": [
            "0xddf252ad1be2c89b69c2b068fc378daa952ba7f163c4a11628f55a4df523b3ef",
            "0x000000000000000000000000c77f7fed3b5cc8249adc428c5f44c9063b9734b4",
            "0x0000000000000000000000000000000000000000000000000000000000000000"
          ],
          "data": "0x0000000000000000000000000000000000000000000000000000000000056c93",
          "blockHash": "0x8c29d6b0320cf24ab64fddb96ef2566818e05703c6713631257fb43213229913",
          "blockNumber": "0x731dda",
          "transactionHash": "0x3794833d154002637f83fa44220c4fa692e11bfd27a160336dad8e887da7c4dd",
          "transactionIndex": "0x54",
          "logIndex": "0x90",
          "removed": false
        },
        {
          "address": "0x8aafd3ede9adb0ff97c7aebce82a919afb1c8764",
          "topics": [
            "0xddf252ad1be2c89b69c2b068fc378daa952ba7f163c4a11628f55a4df523b3ef",
            "0x000000000000000000000000c77f7fed3b5cc8249adc428c5f44c9063b9734b4",
            "0x000000000000000000000000c77f7fed3b5cc8249adc428c5f44c9063b9734b4"
          ],
          "data": "0x0000000000000000000000000000000000000000000000000000000000000b32",
          "blockHash": "0x8c29d6b0320cf24ab64fddb96ef2566818e05703c6713631257fb43213229913",
          "blockNumber": "0x731dda",
          "transactionHash": "0x3794833d154002637f83fa44220c4fa692e11bfd27a160336dad8e887da7c4dd",
          "transactionIndex": "0x54",
          "logIndex": "0x91",
          "removed": false
        },
        {
          "address": "0x8aafd3ede9adb0ff97c7aebce82a919afb1c8764",
          "topics": [
            "0x4afcb4a87cdbd9974efdb92ee48bc8d7cd0ae4bf217004db3d080cbaee652ca7"
          ],
          "data": "0x00000000000000000000000000000000000000000000000000000000679063200000000000000000000000000000000000000000000000000014c044dfa34867000000000000000000000000000000000000000000000000000000000000082d",
          "blockHash": "0x8c29d6b0320cf24ab64fddb96ef2566818e05703c6713631257fb43213229913",
          "blockNumber": "0x731dda",
          "transactionHash": "0x3794833d154002637f83fa44220c4fa692e11bfd27a160336dad8e887da7c4dd",
          "transactionIndex": "0x54",
          "logIndex": "0x92",
          "removed": false
        }
      ],
      "logsBloom": "0x00000000000000000000000000000000000000000600000000000000000000000000000000000000000000000000000000000000000000004000000000000000000000000000004000000008000000000000000000000000000000000000000000000000020000000000000000000800020000000000000000000010000000000000000000000000000000000000000000000000000000000000010000000000000000000000000000000000000000004000000000000000000000000000000000000002000000800000000000000000000000000000080000000000000020000000000000000000000000000000000000000000000000000000000000000000",
      "type": "0x2",
      "transactionHash": "0x3794833d154002637f83fa44220c4fa692e11bfd27a160336dad8e887da7c4dd",
      "transactionIndex": "0x54",
      "blockHash": "0x8c29d6b0320cf24ab64fddb96ef2566818e05703c6713631257fb43213229913",
      "blockNumber": "0x731dda",
      "gasUsed": "0xf213",
      "effectiveGasPrice": "0x4e71318c",
      "from": "0xc77f7fed3b5cc8249adc428c5f44c9063b9734b4",
      "to": "0x8aafd3ede9adb0ff97c7aebce82a919afb1c8764",
      "contractAddress": null
    }
  ],
  "libraries": [],
  "pending": [],
  "returns": {},
  "timestamp": 1737515810,
  "chain": 11155111,
  "commit": "1d2fb70"
}