{
  "transactions": [
    {
      "hash": "0xe9781ce449054dcbc268017845f879ba2af1f0cee1bef1cdfb750b644a725d8c",
      "transactionType": "CALL",
      "contractName": null,
      "contractAddress": "0x8aafd3ede9adb0ff97c7aebce82a919afb1c8764",
      "function": "sell(uint256)",
      "arguments": [
        "11468"
      ],
      "transaction": {
        "from": "0xc77f7fed3b5cc8249adc428c5f44c9063b9734b4",
        "to": "0x8aafd3ede9adb0ff97c7aebce82a919afb1c8764",
        "gas": "0x14e4c",
        "value": "0x0",
        "input": "0xe4849b320000000000000000000000000000000000000000000000000000000000002ccc",
        "nonce": "0x11d9",
        "chainId": "0xaa36a7"
      },
      "additionalContracts": [],
      "isFixedGasLimit": false
    }
  ],
  "receipts": [
    {
      "status": "0x1",
      "cumulativeGasUsed": "0x9a266b",
      "logs": [
        {
          "address": "0x8aafd3ede9adb0ff97c7aebce82a919afb1c8764",
          "topics": [
            "0xddf252ad1be2c89b69c2b068fc378daa952ba7f163c4a11628f55a4df523b3ef",
            "0x000000000000000000000000c77f7fed3b5cc8249adc428c5f44c9063b9734b4",
            "0x0000000000000000000000000000000000000000000000000000000000000000"
          ],
          "data": "0x0000000000000000000000000000000000000000000000000000000000002c71",
          "blockHash": "0x20763cbadb678f12c307a49ffa73657413af79c184430da69b747e6d35d4aa40",
          "blockNumber": "0x7318ae",
          "transactionHash": "0xe9781ce449054dcbc268017845f879ba2af1f0cee1bef1cdfb750b644a725d8c",
          "transactionIndex": "0x6c",
          "logIndex": "0x95",
          "removed": false
        },
        {
          "address": "0x8aafd3ede9adb0ff97c7aebce82a919afb1c8764",
          "topics": [
            "0xddf252ad1be2c89b69c2b068fc378daa952ba7f163c4a11628f55a4df523b3ef",
            "0x000000000000000000000000c77f7fed3b5cc8249adc428c5f44c9063b9734b4",
            "0x000000000000000000000000c77f7fed3b5cc8249adc428c5f44c9063b9734b4"
          ],
          "data": "0x000000000000000000000000000000000000000000000000000000000000005b",
          "blockHash": "0x20763cbadb678f12c307a49ffa73657413af79c184430da69b747e6d35d4aa40",
          "blockNumber": "0x7318ae",
          "transactionHash": "0xe9781ce449054dcbc268017845f879ba2af1f0cee1bef1cdfb750b644a725d8c",
          "transactionIndex": "0x6c",
          "logIndex": "0x96",
          "removed": false
        },
        {
          "address": "0x8aafd3ede9adb0ff97c7aebce82a919afb1c8764",
          "topics": [
            "0x4afcb4a87cdbd9974efdb92ee48bc8d7cd0ae4bf217004db3d080cbaee652ca7"
          ],
          "data": "0x00000000000000000000000000000000000000000000000000000000679024f800000000000000000000000000000000000000000000000000052aaab979d1730000000000000000000000000000000000000000000000000000000000000010",
          "blockHash": "0x20763cbadb678f12c307a49ffa73657413af79c184430da69b747e6d35d4aa40",
          "blockNumber": "0x7318ae",
          "transactionHash": "0xe9781ce449054dcbc268017845f879ba2af1f0cee1bef1cdfb750b644a725d8c",
          "transactionIndex": "0x6c",
          "logIndex": "0x97",
          "removed": false
        }
      ],
      "logsBloom": "0x00000000000000000000000000000000000000000600000000000000000000000000000000000000000000000000000000000000000000004000000000000000000000000000004000000008000000000000000000000000000000000000000000000000020000000000000000000800020000000000000000000010000000000000000000000000000000000000000000000000000000000000010000000000000000000000000000000000000000004000000000000000000000000000000000000002000000800000000000000000000000000000080000000000000020000000000000000000000000000000000000000000000000000000000000000000",
      "type": "0x2",
      "transactionHash": "0xe9781ce449054dcbc268017845f879ba2af1f0cee1bef1cdfb750b644a725d8c",
      "transactionIndex": "0x6c",
      "blockHash": "0x20763cbadb678f12c307a49ffa73657413af79c184430da69b747e6d35d4aa40",
      "blockNumber": "0x7318ae",
      "gasUsed": "0xf207",
      "effectiveGasPrice": "0x4b4f2fb6",
      "from": "0xc77f7fed3b5cc8249adc428c5f44c9063b9734b4",
      "to": "0x8aafd3ede9adb0ff97c7aebce82a919afb1c8764",
      "contractAddress": null
    }
  ],
  "libraries": [],
  "pending": [],
  "returns": {},
  "timestamp": 1737499898,
  "chain": 11155111,
  "commit": "1d2fb70"
}