{
  "transactions": [
    {
      "hash": "0x0548bc09120cfea003a2d59dd11e1b46e37960e57e265ba95060acca55e6be15",
      "transactionType": "CALL",
      "contractName": null,
      "contractAddress": "0x5eb9cc76c3506942c1c0ead70e877dd5e4f00cb0",
      "function": "buy(address)",
      "arguments": [
        "0xC77f7fed3b5Cc8249aDc428c5F44C9063B9734b4"
      ],
      "transaction": {
        "from": "0xc77f7fed3b5cc8249adc428c5f44c9063b9734b4",
        "to": "0x5eb9cc76c3506942c1c0ead70e877dd5e4f00cb0",
        "gas": "0x1b30c",
        "value": "0xde0b6b3a7640000",
        "input": "0xf088d547000000000000000000000000c77f7fed3b5cc8249adc428c5f44c9063b9734b4",
        "nonce": "0x22c",
        "chainId": "0xaa36a7"
      },
      "additionalContracts": [],
      "isFixedGasLimit": false
    }
  ],
  "receipts": [
    {
      "status": "0x1",
      "cumulativeGasUsed": "0xb9d5ee",
      "logs": [
        {
          "address": "0x5eb9cc76c3506942c1c0ead70e877dd5e4f00cb0",
          "topics": [
            "0xddf252ad1be2c89b69c2b068fc378daa952ba7f163c4a11628f55a4df523b3ef",
            "0x0000000000000000000000000000000000000000000000000000000000000000",
            "0x000000000000000000000000c77f7fed3b5cc8249adc428c5f44c9063b9734b4"
          ],
          "data": "0x0000000000000000000000000000000000000000000000357c351da9860c41a0",
          "blockHash": "0x5120f1273ce9103c2c40603cfea1b6bc82315369d25d8faa327e6237b8045b04",
          "blockNumber": "0x724ddb",
          "transactionHash": "0x0548bc09120cfea003a2d59dd11e1b46e37960e57e265ba95060acca55e6be15",
          "transactionIndex": "0x66",
          "logIndex": "0x79",
          "removed": false
        },
        {
          "address": "0x5eb9cc76c3506942c1c0ead70e877dd5e4f00cb0",
          "topics": [
            "0xddf252ad1be2c89b69c2b068fc378daa952ba7f163c4a11628f55a4df523b3ef",
            "0x0000000000000000000000000000000000000000000000000000000000000000",
            "0x000000000000000000000000c77f7fed3b5cc8249adc428c5f44c9063b9734b4"
          ],
          "data": "0x00000000000000000000000000000000000000000000000029887755a549c0e9",
          "blockHash": "0x5120f1273ce9103c2c40603cfea1b6bc82315369d25d8faa327e6237b8045b04",
          "blockNumber": "0x724ddb",
          "transactionHash": "0x0548bc09120cfea003a2d59dd11e1b46e37960e57e265ba95060acca55e6be15",
          "transactionIndex": "0x66",
          "logIndex": "0x7a",
          "removed": false
        },
        {
          "address": "0x5eb9cc76c3506942c1c0ead70e877dd5e4f00cb0",
          "topics": [
            "0x4afcb4a87cdbd9974efdb92ee48bc8d7cd0ae4bf217004db3d080cbaee652ca7"
          ],
          "data": "0x00000000000000000000000000000000000000000000000000000000678697f80000000000000000000000000000000000000000000000000003909a86c32ae80000000000000000000000000000000000000000000000000de0b6b3a7640000",
          "blockHash": "0x5120f1273ce9103c2c40603cfea1b6bc82315369d25d8faa327e6237b8045b04",
          "blockNumber": "0x724ddb",
          "transactionHash": "0x0548bc09120cfea003a2d59dd11e1b46e37960e57e265ba95060acca55e6be15",
          "transactionIndex": "0x66",
          "logIndex": "0x7b",
          "removed": false
        }
      ],
      "logsBloom": "0x00000000000000000000000000000000000000000000000000000000000000000000000000000000000000000000000000000000000000004000000000000000000000000000000000000008000000000000000000000000000000000000000000000000020000000000000004000800020000000000000000000010000000000000000000000000000000000000000000000000000000000000010000000000000000000000000000000000000000004000000000000000000000000000020000000002000000800000008000000000000000000000080000000000000020000000000000000000000000000000000000000000000000000000000000000000",
      "type": "0x2",
      "transactionHash": "0x0548bc09120cfea003a2d59dd11e1b46e37960e57e265ba95060acca55e6be15",
      "transactionIndex": "0x66",
      "blockHash": "0x5120f1273ce9103c2c40603cfea1b6bc82315369d25d8faa327e6237b8045b04",
      "blockNumber": "0x724ddb",
      "gasUsed": "0x13af8",
      "effectiveGasPrice": "0x41bd63210",
      "from": "0xc77f7fed3b5cc8249adc428c5f44c9063b9734b4",
      "to": "0x5eb9cc76c3506942c1c0ead70e877dd5e4f00cb0",
      "contractAddress": null
    }
  ],
  "libraries": [],
  "pending": [],
  "returns": {},
  "timestamp": 1736873978,
  "chain": 11155111,
  "commit": "51a374b"
}