{
  "transactions": [
    {
      "hash": "0xd082721a6d533bb705664579abf5728514ada67723ddf1399e26520ab62da8ee",
      "transactionType": "CALL",
      "contractName": null,
      "contractAddress": "0xbf4a322f1496e5c3d34a9bcdb4c60567b38c7de2",
      "function": "buy(address)",
      "arguments": [
        "0xC77f7fed3b5Cc8249aDc428c5F44C9063B9734b4"
      ],
      "transaction": {
        "from": "0xc77f7fed3b5cc8249adc428c5f44c9063b9734b4",
        "to": "0xbf4a322f1496e5c3d34a9bcdb4c60567b38c7de2",
        "gas": "0x1b309",
        "value": "0xde0b6b3a7640000",
        "input": "0xf088d547000000000000000000000000c77f7fed3b5cc8249adc428c5f44c9063b9734b4",
        "nonce": "0xb88",
        "chainId": "0xaa36a7"
      },
      "additionalContracts": [],
      "isFixedGasLimit": false
    }
  ],
  "receipts": [
    {
      "status": "0x1",
      "cumulativeGasUsed": "0xa943d5",
      "logs": [
        {
          "address": "0xbf4a322f1496e5c3d34a9bcdb4c60567b38c7de2",
          "topics": [
            "0xddf252ad1be2c89b69c2b068fc378daa952ba7f163c4a11628f55a4df523b3ef",
            "0x0000000000000000000000000000000000000000000000000000000000000000",
            "0x000000000000000000000000c77f7fed3b5cc8249adc428c5f44c9063b9734b4"
          ],
          "data": "0x00000000000000000000000000000000000000000000003511b5a920f8bee3c9",
          "blockHash": "0x3b533a484c232cc816127aab78eda9b507addb82440bb287c551db917738723c",
          "blockNumber": "0x725b97",
          "transactionHash": "0xd082721a6d533bb705664579abf5728514ada67723ddf1399e26520ab62da8ee",
          "transactionIndex": "0x48",
          "logIndex": "0x6b",
          "removed": false
        },
        {
          "address": "0xbf4a322f1496e5c3d34a9bcdb4c60567b38c7de2",
          "topics": [
            "0xddf252ad1be2c89b69c2b068fc378daa952ba7f163c4a11628f55a4df523b3ef",
            "0x0000000000000000000000000000000000000000000000000000000000000000",
            "0x000000000000000000000000c77f7fed3b5cc8249adc428c5f44c9063b9734b4"
          ],
          "data": "0x0000000000000000000000000000000000000000000000002935c454e5c51caf",
          "blockHash": "0x3b533a484c232cc816127aab78eda9b507addb82440bb287c551db917738723c",
          "blockNumber": "0x725b97",
          "transactionHash": "0xd082721a6d533bb705664579abf5728514ada67723ddf1399e26520ab62da8ee",
          "transactionIndex": "0x48",
          "logIndex": "0x6c",
          "removed": false
        },
        {
          "address": "0xbf4a322f1496e5c3d34a9bcdb4c60567b38c7de2",
          "topics": [
            "0x4afcb4a87cdbd9974efdb92ee48bc8d7cd0ae4bf217004db3d080cbaee652ca7"
          ],
          "data": "0x0000000000000000000000000000000000000000000000000000000067873d70000000000000000000000000000000000000000000000000000397c437fd3b160000000000000000000000000000000000000000000000000de0b6b3a7640000",
          "blockHash": "0x3b533a484c232cc816127aab78eda9b507addb82440bb287c551db917738723c",
          "blockNumber": "0x725b97",
          "transactionHash": "0xd082721a6d533bb705664579abf5728514ada67723ddf1399e26520ab62da8ee",
          "transactionIndex": "0x48",
          "logIndex": "0x6d",
          "removed": false
        }
      ],
      "logsBloom": "0x00000000000000000000000000000000000000000000000000000000000000000000000000000000000000000000000000000000000000004000000000000000000000000000000000000008000000000000001000000000000000000000000000000000020000000000000000000800020000000000000000000010000000000000000000000000000000000000000000000000000008000000010000000000000000000000000000000000000000004000000000000000000000000000000000000002000000800000000000001000000000000000080000000000000020000000000000000000000000000000000000000000000000000000000000000000",
      "type": "0x2",
      "transactionHash": "0xd082721a6d533bb705664579abf5728514ada67723ddf1399e26520ab62da8ee",
      "transactionIndex": "0x48",
      "blockHash": "0x3b533a484c232cc816127aab78eda9b507addb82440bb287c551db917738723c",
      "blockNumber": "0x725b97",
      "gasUsed": "0x13af6",
      "effectiveGasPrice": "0x45db76f6",
      "from": "0xc77f7fed3b5cc8249adc428c5f44c9063b9734b4",
      "to": "0xbf4a322f1496e5c3d34a9bcdb4c60567b38c7de2",
      "contractAddress": null
    }
  ],
  "libraries": [],
  "pending": [],
  "returns": {},
  "timestamp": 1736916337,
  "chain": 11155111,
  "commit": "51a374b"
}