{
  "transactions": [
    {
      "hash": "0x39968210d09c11fd8168f25aaa4b465939e2682ea9676fdcf49dd0cee6ba654c",
      "transactionType": "CALL",
      "contractName": null,
      "contractAddress": "0x8aafd3ede9adb0ff97c7aebce82a919afb1c8764",
      "function": "sell(uint256)",
      "arguments": [
        "189039059345357912318"
      ],
      "transaction": {
        "from": "0xc77f7fed3b5cc8249adc428c5f44c9063b9734b4",
        "to": "0x8aafd3ede9adb0ff97c7aebce82a919afb1c8764",
        "gas": "0x17270",
        "value": "0x0",
        "input": "0xe4849b3200000000000000000000000000000000000000000000000a3f71a6e71a0bb8fe",
        "nonce": "0x158f",
        "chainId": "0xaa36a7"
      },
      "additionalContracts": [],
      "isFixedGasLimit": false
    }
  ],
  "receipts": [
    {
      "status": "0x1",
      "cumulativeGasUsed": "0xd869e4",
      "logs": [
        {
          "address": "0x8aafd3ede9adb0ff97c7aebce82a919afb1c8764",
          "topics": [
            "0xddf252ad1be2c89b69c2b068fc378daa952ba7f163c4a11628f55a4df523b3ef",
            "0x000000000000000000000000c77f7fed3b5cc8249adc428c5f44c9063b9734b4",
            "0x0000000000000000000000000000000000000000000000000000000000000000"
          ],
          "data": "0x00000000000000000000000000000000000000000000000a2a74d6b83269d63c",
          "blockHash": "0x54ca1421f32161fd73e4ce92a19b37a7d8b2f2153de3f107a0f50a29e150cb99",
          "blockNumber": "0x731cfe",
          "transactionHash": "0x39968210d09c11fd8168f25aaa4b465939e2682ea9676fdcf49dd0cee6ba654c",
          "transactionIndex": "0x6d",
          "logIndex": "0xc5",
          "removed": false
        },
        {
          "address": "0x8aafd3ede9adb0ff97c7aebce82a919afb1c8764",
          "topics": [
            "0xddf252ad1be2c89b69c2b068fc378daa952ba7f163c4a11628f55a4df523b3ef",
            "0x000000000000000000000000c77f7fed3b5cc8249adc428c5f44c9063b9734b4",
            "0x000000000000000000000000c77f7fed3b5cc8249adc428c5f44c9063b9734b4"
          ],
          "data": "0x00000000000000000000000000000000000000000000000014fcd02ee7a1e2c2",
          "blockHash": "0x54ca1421f32161fd73e4ce92a19b37a7d8b2f2153de3f107a0f50a29e150cb99",
          "blockNumber": "0x731cfe",
          "transactionHash": "0x39968210d09c11fd8168f25aaa4b465939e2682ea9676fdcf49dd0cee6ba654c",
          "transactionIndex": "0x6d",
          "logIndex": "0xc6",
          "removed": false
        },
        {
          "address": "0x8aafd3ede9adb0ff97c7aebce82a919afb1c8764",
          "topics": [
            "0x4afcb4a87cdbd9974efdb92ee48bc8d7cd0ae4bf217004db3d080cbaee652ca7"
          ],
          "data": "0x00000000000000000000000000000000000000000000000000000000679058d00000000000000000000000000000000000000000000000000012c3febee11a780000000000000000000000000000000000000000000000000dccbf48560fa726",
          "blockHash": "0x54ca1421f32161fd73e4ce92a19b37a7d8b2f2153de3f107a0f50a29e150cb99",
          "blockNumber": "0x731cfe",
          "transactionHash": "0x39968210d09c11fd8168f25aaa4b465939e2682ea9676fdcf49dd0cee6ba654c",
          "transactionIndex": "0x6d",
          "logIndex": "0xc7",
          "removed": false
        }
      ],
      "logsBloom": "0x00000000000000000000000000000000000000000600000000000000000000000000000000000000000000000000000000000000000000004000000000000000000000000000004000000008000000000000000000000000000000000000000000000000020000000000000000000800020000000000000000000010000000000000000000000000000000000000000000000000000000000000010000000000000000000000000000000000000000004000000000000000000000000000000000000002000000800000000000000000000000000000080000000000000020000000000000000000000000000000000000000000000000000000000000000000",
      "type": "0x2",
      "transactionHash": "0x39968210d09c11fd8168f25aaa4b465939e2682ea9676fdcf49dd0cee6ba654c",
      "transactionIndex": "0x6d",
      "blockHash": "0x54ca1421f32161fd73e4ce92a19b37a7d8b2f2153de3f107a0f50a29e150cb99",
      "blockNumber": "0x731cfe",
      "gasUsed": "0xfd4b",
      "effectiveGasPrice": "0x6c5fe4c7",
      "from": "0xc77f7fed3b5cc8249adc428c5f44c9063b9734b4",
      "to": "0x8aafd3ede9adb0ff97c7aebce82a919afb1c8764",
      "contractAddress": null
    }
  ],
  "libraries": [],
  "pending": [],
  "returns": {},
  "timestamp": 1737513169,
  "chain": 11155111,
  "commit": "1d2fb70"
}