{
  "transactions": [
    {
      "hash": "0x6abe76ecccabd3a52633b74531105535e1ab229d6fc311aba5118e6fb4deb4c0",
      "transactionType": "CALL",
      "contractName": null,
      "contractAddress": "0xbf4a322f1496e5c3d34a9bcdb4c60567b38c7de2",
      "function": "sell(uint256)",
      "arguments": [
        "981141866522188262357"
      ],
      "transaction": {
        "from": "0xc77f7fed3b5cc8249adc428c5f44c9063b9734b4",
        "to": "0xbf4a322f1496e5c3d34a9bcdb4c60567b38c7de2",
        "gas": "0x16fea",
        "value": "0x0",
        "input": "0xe4849b320000000000000000000000000000000000000000000000353014214a1ec12bd5",
        "nonce": "0xbc3",
        "chainId": "0xaa36a7"
      },
      "additionalContracts": [],
      "isFixedGasLimit": false
    }
  ],
  "receipts": [
    {
      "status": "0x1",
      "cumulativeGasUsed": "0x11c1bad",
      "logs": [
        {
          "address": "0xbf4a322f1496e5c3d34a9bcdb4c60567b38c7de2",
          "topics": [
            "0xddf252ad1be2c89b69c2b068fc378daa952ba7f163c4a11628f55a4df523b3ef",
            "0x000000000000000000000000c77f7fed3b5cc8249adc428c5f44c9063b9734b4",
            "0x0000000000000000000000000000000000000000000000000000000000000000"
          ],
          "data": "0x0000000000000000000000000000000000000000000000353014214a1ec12bd5",
          "blockHash": "0xb7b960b0207d818c4002d955dd438660b86f1be22e45ad3b1de8ae7c0d637f78",
          "blockNumber": "0x725be0",
          "transactionHash": "0x6abe76ecccabd3a52633b74531105535e1ab229d6fc311aba5118e6fb4deb4c0",
          "transactionIndex": "0x8e",
          "logIndex": "0x101",
          "removed": false
        },
        {
          "address": "0xbf4a322f1496e5c3d34a9bcdb4c60567b38c7de2",
          "topics": [
            "0x4afcb4a87cdbd9974efdb92ee48bc8d7cd0ae4bf217004db3d080cbaee652ca7"
          ],
          "data": "0x00000000000000000000000000000000000000000000000000000000678740dc00000000000000000000000000000000000000000000000000039883d30fdd610000000000000000000000000000000000000000000000000dc7e3e4b8a00294",
          "blockHash": "0xb7b960b0207d818c4002d955dd438660b86f1be22e45ad3b1de8ae7c0d637f78",
          "blockNumber": "0x725be0",
          "transactionHash": "0x6abe76ecccabd3a52633b74531105535e1ab229d6fc311aba5118e6fb4deb4c0",
          "transactionIndex": "0x8e",
          "logIndex": "0x102",
          "removed": false
        }
      ],
      "logsBloom": "0x00000000000000000000000000000000000000000000000000000000000000000000000000000000000000000000000000000000000000004000000000000000000000000000000000000008000000000000001000000000000000000000000000000000020000000000000000000800020000000000000000000010000000000000000000000000000000000000000000000000000008000000010000000000000000000000000000000000000000004000000000000000000000000000000000000002000000800000000000001000000000000000080000000000000020000000000000000000000000000000000000000000000000000000000000000000",
      "type": "0x2",
      "transactionHash": "0x6abe76ecccabd3a52633b74531105535e1ab229d6fc311aba5118e6fb4deb4c0",
      "transactionIndex": "0x8e",
      "blockHash": "0xb7b960b0207d818c4002d955dd438660b86f1be22e45ad3b1de8ae7c0d637f78",
      "blockNumber": "0x725be0",
      "gasUsed": "0xfb91",
      "effectiveGasPrice": "0x68ad75b3",
      "from": "0xc77f7fed3b5cc8249adc428c5f44c9063b9734b4",
      "to": "0xbf4a322f1496e5c3d34a9bcdb4c60567b38c7de2",
      "contractAddress": null
    }
  ],
  "libraries": [],
  "pending": [],
  "returns": {},
  "timestamp": 1736917213,
  "chain": 11155111,
  "commit": "51a374b"
}