{
  "transactions": [
    {
      "hash": "0xb52561086db94f6bace70d569b217c648c332affddc5b0a2060c4a4f2825bcd8",
      "transactionType": "CALL",
      "contractName": null,
      "contractAddress": "0x270e88f8683660553e8ba4eb2ad7c91a1710d769",
      "function": "buy(address)",
      "arguments": [
        "0xC77f7fed3b5Cc8249aDc428c5F44C9063B9734b4"
      ],
      "transaction": {
        "from": "0xc77f7fed3b5cc8249adc428c5f44c9063b9734b4",
        "to": "0x270e88f8683660553e8ba4eb2ad7c91a1710d769",
        "gas": "0x1b30c",
        "value": "0xde0b6b3a7640000",
        "input": "0xf088d547000000000000000000000000c77f7fed3b5cc8249adc428c5f44c9063b9734b4",
        "nonce": "0x825",
        "chainId": "0xaa36a7"
      },
      "additionalContracts": [],
      "isFixedGasLimit": false
    }
  ],
  "receipts": [
    {
      "status": "0x1",
      "cumulativeGasUsed": "0x710ad3",
      "logs": [
        {
          "address": "0x270e88f8683660553e8ba4eb2ad7c91a1710d769",
          "topics": [
            "0xddf252ad1be2c89b69c2b068fc378daa952ba7f163c4a11628f55a4df523b3ef",
            "0x0000000000000000000000000000000000000000000000000000000000000000",
            "0x000000000000000000000000c77f7fed3b5cc8249adc428c5f44c9063b9734b4"
          ],
          "data": "0x000000000000000000000000000000000000000000000026e5e93651997fad90",
          "blockHash": "0xbe21bdd9ae8b01ebd3b2e9398c8e9e18c57d11d304d2e55b619951d8bedcf423",
          "blockNumber": "0x72556c",
          "transactionHash": "0xb52561086db94f6bace70d569b217c648c332affddc5b0a2060c4a4f2825bcd8",
          "transactionIndex": "0x4e",
          "logIndex": "0x81",
          "removed": false
        },
        {
          "address": "0x270e88f8683660553e8ba4eb2ad7c91a1710d769",
          "topics": [
            "0xddf252ad1be2c89b69c2b068fc378daa952ba7f163c4a11628f55a4df523b3ef",
            "0x0000000000000000000000000000000000000000000000000000000000000000",
            "0x000000000000000000000000c77f7fed3b5cc8249adc428c5f44c9063b9734b4"
          ],
          "data": "0x0000000000000000000000000000000000000000000000001e34a854bc039e1f",
          "blockHash": "0xbe21bdd9ae8b01ebd3b2e9398c8e9e18c57d11d304d2e55b619951d8bedcf423",
          "blockNumber": "0x72556c",
          "transactionHash": "0xb52561086db94f6bace70d569b217c648c332affddc5b0a2060c4a4f2825bcd8",
          "transactionIndex": "0x4e",
          "logIndex": "0x82",
          "removed": false
        },
        {
          "address": "0x270e88f8683660553e8ba4eb2ad7c91a1710d769",
          "topics": [
            "0x4afcb4a87cdbd9974efdb92ee48bc8d7cd0ae4bf217004db3d080cbaee652ca7"
          ],
          "data": "0x000000000000000000000000000000000000000000000000000000006786f3180000000000000000000000000000000000000000000000000004e6f1249c62e10000000000000000000000000000000000000000000000000de0b6b3a7640000",
          "blockHash": "0xbe21bdd9ae8b01ebd3b2e9398c8e9e18c57d11d304d2e55b619951d8bedcf423",
          "blockNumber": "0x72556c",
          "transactionHash": "0xb52561086db94f6bace70d569b217c648c332affddc5b0a2060c4a4f2825bcd8",
          "transactionIndex": "0x4e",
          "logIndex": "0x83",
          "removed": false
        }
      ],
      "logsBloom": "0x00000000000000000000000000000000000000000000000000000000000000000000000000000000000000000000000020000000000000004000000000000000000000000000000000000008000000000000000000000000000000000000000000000000020000000000000000000800020000000000000000000010000000000000000000010000000000000000000000000000000000000000010000000000000000000000000000000000000000004000000000000000000000000000000000000002000000800000000000000000000000000000080000008000000020000000000000000000000000000000000000000000000000000000000000000000",
      "type": "0x2",
      "transactionHash": "0xb52561086db94f6bace70d569b217c648c332affddc5b0a2060c4a4f2825bcd8",
      "transactionIndex": "0x4e",
      "blockHash": "0xbe21bdd9ae8b01ebd3b2e9398c8e9e18c57d11d304d2e55b619951d8bedcf423",
      "blockNumber": "0x72556c",
      "gasUsed": "0x13af8",
      "effectiveGasPrice": "0x8aa937d4",
      "from": "0xc77f7fed3b5cc8249adc428c5f44c9063b9734b4",
      "to": "0x270e88f8683660553e8ba4eb2ad7c91a1710d769",
      "contractAddress": null
    }
  ],
  "libraries": [],
  "pending": [],
  "returns": {},
  "timestamp": 1736897306,
  "chain": 11155111,
  "commit": "51a374b"
}