{
  "transactions": [
    {
      "hash": "0xb49842c6e0bb7b956616243a6decb7ab4807b69bf80c82c12abcee7cb6054dfe",
      "transactionType": "CALL",
      "contractName": null,
      "contractAddress": "0xbf4a322f1496e5c3d34a9bcdb4c60567b38c7de2",
      "function": "sell(uint256)",
      "arguments": [
        "989502528862285534879"
      ],
      "transaction": {
        "from": "0xc77f7fed3b5cc8249adc428c5f44c9063b9734b4",
        "to": "0xbf4a322f1496e5c3d34a9bcdb4c60567b38c7de2",
        "gas": "0x16fea",
        "value": "0x0",
        "input": "0xe4849b32000000000000000000000000000000000000000000000035a41b2b64233d169f",
        "nonce": "0x95b",
        "chainId": "0xaa36a7"
      },
      "additionalContracts": [],
      "isFixedGasLimit": false
    }
  ],
  "receipts": [
    {
      "status": "0x1",
      "cumulativeGasUsed": "0xfc6758",
      "logs": [
        {
          "address": "0xbf4a322f1496e5c3d34a9bcdb4c60567b38c7de2",
          "topics": [
            "0xddf252ad1be2c89b69c2b068fc378daa952ba7f163c4a11628f55a4df523b3ef",
            "0x000000000000000000000000c77f7fed3b5cc8249adc428c5f44c9063b9734b4",
            "0x0000000000000000000000000000000000000000000000000000000000000000"
          ],
          "data": "0x000000000000000000000000000000000000000000000035a41b2b64233d169f",
          "blockHash": "0x5e9b1806a19bf7d23eae5a84dbdcc8ef4cce03c7409c108b72ed4173d2ebba4f",
          "blockNumber": "0x7258ef",
          "transactionHash": "0xb49842c6e0bb7b956616243a6decb7ab4807b69bf80c82c12abcee7cb6054dfe",
          "transactionIndex": "0x53",
          "logIndex": "0x76",
          "removed": false
        },
        {
          "address": "0xbf4a322f1496e5c3d34a9bcdb4c60567b38c7de2",
          "topics": [
            "0x4afcb4a87cdbd9974efdb92ee48bc8d7cd0ae4bf217004db3d080cbaee652ca7"
          ],
          "data": "0x0000000000000000000000000000000000000000000000000000000067871d60000000000000000000000000000000000000000000000000000390bcc5aa77ea0000000000000000000000000000000000000000000000000dc7e3f828e2311a",
          "blockHash": "0x5e9b1806a19bf7d23eae5a84dbdcc8ef4cce03c7409c108b72ed4173d2ebba4f",
          "blockNumber": "0x7258ef",
          "transactionHash": "0xb49842c6e0bb7b956616243a6decb7ab4807b69bf80c82c12abcee7cb6054dfe",
          "transactionIndex": "0x53",
          "logIndex": "0x77",
          "removed": false
        }
      ],
      "logsBloom": "0x00000000000000000000000000000000000000000000000000000000000000000000000000000000000000000000000000000000000000004000000000000000000000000000000000000008000000000000001000000000000000000000000000000000020000000000000000000800020000000000000000000010000000000000000000000000000000000000000000000000000008000000010000000000000000000000000000000000000000004000000000000000000000000000000000000002000000800000000000001000000000000000080000000000000020000000000000000000000000000000000000000000000000000000000000000000",
      "type": "0x2",
      "transactionHash": "0xb49842c6e0bb7b956616243a6decb7ab4807b69bf80c82c12abcee7cb6054dfe",
      "transactionIndex": "0x53",
      "blockHash": "0x5e9b1806a19bf7d23eae5a84dbdcc8ef4cce03c7409c108b72ed4173d2ebba4f",
      "blockNumber": "0x7258ef",
      "gasUsed": "0xfb91",
      "effectiveGasPrice": "0x86abd374",
      "from": "0xc77f7fed3b5cc8249adc428c5f44c9063b9734b4",
      "to": "0xbf4a322f1496e5c3d34a9bcdb4c60567b38c7de2",
      "contractAddress": null
    }
  ],
  "libraries": [],
  "pending": [],
  "returns": {},
  "timestamp": 1736908130,
  "chain": 11155111,
  "commit": "51a374b"
}