{
  "transactions": [
    {
      "hash": "0x5931e8ec7077617a5364bf87f0d63720d7dcf4f2c73d4c213e551f4ec98b9ef4",
      "transactionType": "CALL",
      "contractName": null,
      "contractAddress": "0xd7bc75898e513accccf720a874d44dab5a4b6223",
      "function": "sell(uint256)",
      "arguments": [
        "9929992132558539177"
      ],
      "transaction": {
        "from": "0xc77f7fed3b5cc8249adc428c5f44c9063b9734b4",
        "to": "0xd7bc75898e513accccf720a874d44dab5a4b6223",
        "gas": "0x15b6b",
        "value": "0x0",
        "input": "0xe4849b3200000000000000000000000000000000000000000000000089ce6b3bb39349a9",
        "nonce": "0xcf",
        "chainId": "0xaa36a7"
      },
      "additionalContracts": [],
      "isFixedGasLimit": false
    }
  ],
  "receipts": [
    {
      "status": "0x1",
      "cumulativeGasUsed": "0x2019135",
      "logs": [
        {
          "address": "0xd7bc75898e513accccf720a874d44dab5a4b6223",
          "topics": [
            "0xddf252ad1be2c89b69c2b068fc378daa952ba7f163c4a11628f55a4df523b3ef",
            "0x000000000000000000000000c77f7fed3b5cc8249adc428c5f44c9063b9734b4",
            "0x0000000000000000000000000000000000000000000000000000000000000000"
          ],
          "data": "0x00000000000000000000000000000000000000000000000089ce6b3bb39349a9",
          "blockHash": "0x17d2f035fe645f1547c3affbfbf200a5054b48cc9d7309524795f560a828f1bf",
          "blockNumber": "0x72394e",
          "transactionHash": "0x5931e8ec7077617a5364bf87f0d63720d7dcf4f2c73d4c213e551f4ec98b9ef4",
          "transactionIndex": "0x46",
          "logIndex": "0x300",
          "removed": false
        },
        {
          "address": "0xd7bc75898e513accccf720a874d44dab5a4b6223",
          "topics": [
            "0x4afcb4a87cdbd9974efdb92ee48bc8d7cd0ae4bf217004db3d080cbaee652ca7"
          ],
          "data": "0x000000000000000000000000000000000000000000000000000000006785a0f000000000000000000000000000000000000000000000000000038d7f88727c0b0000000000000000000000000000000000000000000000000023474f493d2798",
          "blockHash": "0x17d2f035fe645f1547c3affbfbf200a5054b48cc9d7309524795f560a828f1bf",
          "blockNumber": "0x72394e",
          "transactionHash": "0x5931e8ec7077617a5364bf87f0d63720d7dcf4f2c73d4c213e551f4ec98b9ef4",
          "transactionIndex": "0x46",
          "logIndex": "0x301",
          "removed": false
        }
      ],
      "logsBloom": "0x00000000000000000000000000000000000000000000000000000000000000000000000000000000000000000000000000000000000000004000000000000000000000000000000000000008000000000000000000000000000000000000000000000000020000000000000000000800020000000000000000000010000000000000000000000000000000000000000000000000000000000000010000000000000000000000000000000000000000004000001000000000000000000000000000000002000000800000000000004000000000000000080000000000000020000000000000000000000000000000000000000000080000000000000000000000",
      "type": "0x2",
      "transactionHash": "0x5931e8ec7077617a5364bf87f0d63720d7dcf4f2c73d4c213e551f4ec98b9ef4",
      "transactionIndex": "0x46",
      "blockHash": "0x17d2f035fe645f1547c3affbfbf200a5054b48cc9d7309524795f560a828f1bf",
      "blockNumber": "0x72394e",
      "gasUsed": "0xfb87",
      "effectiveGasPrice": "0x1cbb2b3b",
      "from": "0xc77f7fed3b5cc8249adc428c5f44c9063b9734b4",
      "to": "0xd7bc75898e513accccf720a874d44dab5a4b6223",
      "contractAddress": null
    }
  ],
  "libraries": [],
  "pending": [],
  "returns": {},
  "timestamp": 1736810738,
  "chain": 11155111,
  "commit": "51a374b"
}