{
  "transactions": [
    {
      "hash": "0x744d2984b688028dcfbbc021f045e6e70b496f0929a948e08cd57350ba92244b",
      "transactionType": "CALL",
      "contractName": null,
      "contractAddress": "0x270e88f8683660553e8ba4eb2ad7c91a1710d769",
      "function": "sell(uint256)",
      "arguments": [
        "737100315764510343832"
      ],
      "transaction": {
        "from": "0xc77f7fed3b5cc8249adc428c5f44c9063b9734b4",
        "to": "0x270e88f8683660553e8ba4eb2ad7c91a1710d769",
        "gas": "0x16fec",
        "value": "0x0",
        "input": "0xe4849b32000000000000000000000000000000000000000000000027f5525fdcebe6c298",
        "nonce": "0x75c",
        "chainId": "0xaa36a7"
      },
      "additionalContracts": [],
      "isFixedGasLimit": false
    }
  ],
  "receipts": [
    {
      "status": "0x1",
      "cumulativeGasUsed": "0x10d4311",
      "logs": [
        {
          "address": "0x270e88f8683660553e8ba4eb2ad7c91a1710d769",
          "topics": [
            "0xddf252ad1be2c89b69c2b068fc378daa952ba7f163c4a11628f55a4df523b3ef",
            "0x000000000000000000000000c77f7fed3b5cc8249adc428c5f44c9063b9734b4",
            "0x0000000000000000000000000000000000000000000000000000000000000000"
          ],
          "data": "0x000000000000000000000000000000000000000000000027f5525fdcebe6c298",
          "blockHash": "0xe80e57db56827bdb822570a59fbed8b26b0cd349f30038cf941ba01c02332de0",
          "blockNumber": "0x725483",
          "transactionHash": "0x744d2984b688028dcfbbc021f045e6e70b496f0929a948e08cd57350ba92244b",
          "transactionIndex": "0x55",
          "logIndex": "0x72",
          "removed": false
        },
        {
          "address": "0x270e88f8683660553e8ba4eb2ad7c91a1710d769",
          "topics": [
            "0x4afcb4a87cdbd9974efdb92ee48bc8d7cd0ae4bf217004db3d080cbaee652ca7"
          ],
          "data": "0x000000000000000000000000000000000000000000000000000000006786e82c0000000000000000000000000000000000000000000000000004c98a945fd15f0000000000000000000000000000000000000000000000000dc82833252a1787",
          "blockHash": "0xe80e57db56827bdb822570a59fbed8b26b0cd349f30038cf941ba01c02332de0",
          "blockNumber": "0x725483",
          "transactionHash": "0x744d2984b688028dcfbbc021f045e6e70b496f0929a948e08cd57350ba92244b",
          "transactionIndex": "0x55",
          "logIndex": "0x73",
          "removed": false
        }
      ],
      "logsBloom": "0x00000000000000000000000000000000000000000000000000000000000000000000000000000000000000000000000020000000000000004000000000000000000000000000000000000008000000000000000000000000000000000000000000000000020000000000000000000800020000000000000000000010000000000000000000010000000000000000000000000000000000000000010000000000000000000000000000000000000000004000000000000000000000000000000000000002000000800000000000000000000000000000080000008000000020000000000000000000000000000000000000000000000000000000000000000000",
      "type": "0x2",
      "transactionHash": "0x744d2984b688028dcfbbc021f045e6e70b496f0929a948e08cd57350ba92244b",
      "transactionIndex": "0x55",
      "blockHash": "0xe80e57db56827bdb822570a59fbed8b26b0cd349f30038cf941ba01c02332de0",
      "blockNumber": "0x725483",
      "gasUsed": "0xfb93",
      "effectiveGasPrice": "0x12753f42f",
      "from": "0xc77f7fed3b5cc8249adc428c5f44c9063b9734b4",
      "to": "0x270e88f8683660553e8ba4eb2ad7c91a1710d769",
      "contractAddress": null
    }
  ],
  "libraries": [],
  "pending": [],
  "returns": {},
  "timestamp": 1736894510,
  "chain": 11155111,
  "commit": "51a374b"
}