{
  "transactions": [
    {
      "hash": "0x73864dec838f089a7ca586618dfdb26d5390f27d337d1d8d237846add4bdbc51",
      "transactionType": "CALL",
      "contractName": null,
      "contractAddress": "0x270e88f8683660553e8ba4eb2ad7c91a1710d769",
      "function": "sell(uint256)",
      "arguments": [
        "713060262706147275641"
      ],
      "transaction": {
        "from": "0xc77f7fed3b5cc8249adc428c5f44c9063b9734b4",
        "to": "0x270e88f8683660553e8ba4eb2ad7c91a1710d769",
        "gas": "0x16fec",
        "value": "0x0",
        "input": "0xe4849b32000000000000000000000000000000000000000000000026a7b2f2f9dea0b379",
        "nonce": "0x876",
        "chainId": "0xaa36a7"
      },
      "additionalContracts": [],
      "isFixedGasLimit": false
    }
  ],
  "receipts": [
    {
      "status": "0x1",
      "cumulativeGasUsed": "0x1755d43",
      "logs": [
        {
          "address": "0x270e88f8683660553e8ba4eb2ad7c91a1710d769",
          "topics": [
            "0xddf252ad1be2c89b69c2b068fc378daa952ba7f163c4a11628f55a4df523b3ef",
            "0x000000000000000000000000c77f7fed3b5cc8249adc428c5f44c9063b9734b4",
            "0x0000000000000000000000000000000000000000000000000000000000000000"
          ],
          "data": "0x000000000000000000000000000000000000000000000026a7b2f2f9dea0b379",
          "blockHash": "0x79bfc33084f9622afb724867af6f3ada05d977b48faa390210def6332c866cf2",
          "blockNumber": "0x7255ce",
          "transactionHash": "0x73864dec838f089a7ca586618dfdb26d5390f27d337d1d8d237846add4bdbc51",
          "transactionIndex": "0x49",
          "logIndex": "0x15c",
          "removed": false
        },
        {
          "address": "0x270e88f8683660553e8ba4eb2ad7c91a1710d769",
          "topics": [
            "0x4afcb4a87cdbd9974efdb92ee48bc8d7cd0ae4bf217004db3d080cbaee652ca7"
          ],
          "data": "0x000000000000000000000000000000000000000000000000000000006786f7b00000000000000000000000000000000000000000000000000004f2d96ae408040000000000000000000000000000000000000000000000000dc825b5e7fd9c8a",
          "blockHash": "0x79bfc33084f9622afb724867af6f3ada05d977b48faa390210def6332c866cf2",
          "blockNumber": "0x7255ce",
          "transactionHash": "0x73864dec838f089a7ca586618dfdb26d5390f27d337d1d8d237846add4bdbc51",
          "transactionIndex": "0x49",
          "logIndex": "0x15d",
          "removed": false
        }
      ],
      "logsBloom": "0x00000000000000000000000000000000000000000000000000000000000000000000000000000000000000000000000020000000000000004000000000000000000000000000000000000008000000000000000000000000000000000000000000000000020000000000000000000800020000000000000000000010000000000000000000010000000000000000000000000000000000000000010000000000000000000000000000000000000000004000000000000000000000000000000000000002000000800000000000000000000000000000080000008000000020000000000000000000000000000000000000000000000000000000000000000000",
      "type": "0x2",
      "transactionHash": "0x73864dec838f089a7ca586618dfdb26d5390f27d337d1d8d237846add4bdbc51",
      "transactionIndex": "0x49",
      "blockHash": "0x79bfc33084f9622afb724867af6f3ada05d977b48faa390210def6332c866cf2",
      "blockNumber": "0x7255ce",
      "gasUsed": "0xfb93",
      "effectiveGasPrice": "0xa0440854",
      "from": "0xc77f7fed3b5cc8249adc428c5f44c9063b9734b4",
      "to": "0x270e88f8683660553e8ba4eb2ad7c91a1710d769",
      "contractAddress": null
    }
  ],
  "libraries": [],
  "pending": [],
  "returns": {},
  "timestamp": 1736898480,
  "chain": 11155111,
  "commit": "51a374b"
}