{
  "transactions": [
    {
      "hash": "0x208e1f03230122aa32e6ebfb27fa11cb5f51aba7604ff10e4da368011d180128",
      "transactionType": "CALL",
      "contractName": null,
      "contractAddress": "0x8aafd3ede9adb0ff97c7aebce82a919afb1c8764",
      "function": "sell(uint256)",
      "arguments": [
        "10161570480151699"
      ],
      "transaction": {
        "from": "0xc77f7fed3b5cc8249adc428c5f44c9063b9734b4",
        "to": "0x8aafd3ede9adb0ff97c7aebce82a919afb1c8764",
        "gas": "0x1724d",
        "value": "0x0",
        "input": "0xe4849b32000000000000000000000000000000000000000000000000002419e4fed45c93",
        "nonce": "0x16c3",
        "chainId": "0xaa36a7"
      },
      "additionalContracts": [],
      "isFixedGasLimit": false
    }
  ],
  "receipts": [
    {
      "status": "0x1",
      "cumulativeGasUsed": "0x151257c",
      "logs": [
        {
          "address": "0x8aafd3ede9adb0ff97c7aebce82a919afb1c8764",
          "topics": [
            "0xddf252ad1be2c89b69c2b068fc378daa952ba7f163c4a11628f55a4df523b3ef",
            "0x000000000000000000000000c77f7fed3b5cc8249adc428c5f44c9063b9734b4",
            "0x0000000000000000000000000000000000000000000000000000000000000000"
          ],
          "data": "0x0000000000000000000000000000000000000000000000000023cff598705bd6",
          "blockHash": "0x8eaa29e1815733a9e0a0232e80b6189af90a4a1d488744f277bb6696635e55bd",
          "blockNumber": "0x731e7d",
          "transactionHash": "0x208e1f03230122aa32e6ebfb27fa11cb5f51aba7604ff10e4da368011d180128",
          "transactionIndex": "0x6a",
          "logIndex": "0xf1",
          "removed": false
        },
        {
          "address": "0x8aafd3ede9adb0ff97c7aebce82a919afb1c8764",
          "topics": [
            "0xddf252ad1be2c89b69c2b068fc378daa952ba7f163c4a11628f55a4df523b3ef",
            "0x000000000000000000000000c77f7fed3b5cc8249adc428c5f44c9063b9734b4",
            "0x000000000000000000000000c77f7fed3b5cc8249adc428c5f44c9063b9734b4"
          ],
          "data": "0x000000000000000000000000000000000000000000000000000049ef666400bd",
          "blockHash": "0x8eaa29e1815733a9e0a0232e80b6189af90a4a1d488744f277bb6696635e55bd",
          "blockNumber": "0x731e7d",
          "transactionHash": "0x208e1f03230122aa32e6ebfb27fa11cb5f51aba7604ff10e4da368011d180128",
          "transactionIndex": "0x6a",
          "logIndex": "0xf2",
          "removed": false
        },
        {
          "address": "0x8aafd3ede9adb0ff97c7aebce82a919afb1c8764",
          "topics": [
            "0x4afcb4a87cdbd9974efdb92ee48bc8d7cd0ae4bf217004db3d080cbaee652ca7"
          ],
          "data": "0x0000000000000000000000000000000000000000000000000000000067906ac4000000000000000000000000000000000000000000000000001653069562f99600000000000000000000000000000000000000000000000000003a12d8ff526d",
          "blockHash": "0x8eaa29e1815733a9e0a0232e80b6189af90a4a1d488744f277bb6696635e55bd",
          "blockNumber": "0x731e7d",
          "transactionHash": "0x208e1f03230122aa32e6ebfb27fa11cb5f51aba7604ff10e4da368011d180128",
          "transactionIndex": "0x6a",
          "logIndex": "0xf3",
          "removed": false
        }
      ],
      "logsBloom": "0x00000000000000000000000000000000000000000600000000000000000000000000000000000000000000000000000000000000000000004000000000000000000000000000004000000008000000000000000000000000000000000000000000000000020000000000000000000800020000000000000000000010000000000000000000000000000000000000000000000000000000000000010000000000000000000000000000000000000000004000000000000000000000000000000000000002000000800000000000000000000000000000080000000000000020000000000000000000000000000000000000000000000000000000000000000000",
      "type": "0x2",
      "transactionHash": "0x208e1f03230122aa32e6ebfb27fa11cb5f51aba7604ff10e4da368011d180128",
      "transactionIndex": "0x6a",
      "blockHash": "0x8eaa29e1815733a9e0a0232e80b6189af90a4a1d488744f277bb6696635e55bd",
      "blockNumber": "0x731e7d",
      "gasUsed": "0xfd33",
      "effectiveGasPrice": "0x4176b4c1",
      "from": "0xc77f7fed3b5cc8249adc428c5f44c9063b9734b4",
      "to": "0x8aafd3ede9adb0ff97c7aebce82a919afb1c8764",
      "contractAddress": null
    }
  ],
  "libraries": [],
  "pending": [],
  "returns": {},
  "timestamp": 1737517765,
  "chain": 11155111,
  "commit": "1d2fb70"
}