{
  "transactions": [
    {
      "hash": "0x62262399b3dbde3a7f25e86c5d5625cf52446fbe617c701bf3b295e6922a56f6",
      "transactionType": "CALL",
      "contractName": null,
      "contractAddress": "0x270e88f8683660553e8ba4eb2ad7c91a1710d769",
      "function": "sell(uint256)",
      "arguments": [
        "984766097143202857024"
      ],
      "transaction": {
        "from": "0xc77f7fed3b5cc8249adc428c5f44c9063b9734b4",
        "to": "0x270e88f8683660553e8ba4eb2ad7c91a1710d769",
        "gas": "0x16fec",
        "value": "0x0",
        "input": "0xe4849b32000000000000000000000000000000000000000000000035625ffbd65c6c4040",
        "nonce": "0x509",
        "chainId": "0xaa36a7"
      },
      "additionalContracts": [],
      "isFixedGasLimit": false
    }
  ],
  "receipts": [
    {
      "status": "0x1",
      "cumulativeGasUsed": "0x12f2545",
      "logs": [
        {
          "address": "0x270e88f8683660553e8ba4eb2ad7c91a1710d769",
          "topics": [
            "0xddf252ad1be2c89b69c2b068fc378daa952ba7f163c4a11628f55a4df523b3ef",
            "0x000000000000000000000000c77f7fed3b5cc8249adc428c5f44c9063b9734b4",
            "0x0000000000000000000000000000000000000000000000000000000000000000"
          ],
          "data": "0x000000000000000000000000000000000000000000000035625ffbd65c6c4040",
          "blockHash": "0xa712834df98437f5b1f32cc0bc5cd4a4fedce4a70c83372e4b9a85c03387697e",
          "blockNumber": "0x72519e",
          "transactionHash": "0x62262399b3dbde3a7f25e86c5d5625cf52446fbe617c701bf3b295e6922a56f6",
          "transactionIndex": "0x4e",
          "logIndex": "0x92",
          "removed": false
        },
        {
          "address": "0x270e88f8683660553e8ba4eb2ad7c91a1710d769",
          "topics": [
            "0x4afcb4a87cdbd9974efdb92ee48bc8d7cd0ae4bf217004db3d080cbaee652ca7"
          ],
          "data": "0x000000000000000000000000000000000000000000000000000000006786c54c00000000000000000000000000000000000000000000000000039565005454940000000000000000000000000000000000000000000000000dc841bade5d71d7",
          "blockHash": "0xa712834df98437f5b1f32cc0bc5cd4a4fedce4a70c83372e4b9a85c03387697e",
          "blockNumber": "0x72519e",
          "transactionHash": "0x62262399b3dbde3a7f25e86c5d5625cf52446fbe617c701bf3b295e6922a56f6",
          "transactionIndex": "0x4e",
          "logIndex": "0x93",
          "removed": false
        }
      ],
      "logsBloom": "0x00000000000000000000000000000000000000000000000000000000000000000000000000000000000000000000000020000000000000004000000000000000000000000000000000000008000000000000000000000000000000000000000000000000020000000000000000000800020000000000000000000010000000000000000000010000000000000000000000000000000000000000010000000000000000000000000000000000000000004000000000000000000000000000000000000002000000800000000000000000000000000000080000008000000020000000000000000000000000000000000000000000000000000000000000000000",
      "type": "0x2",
      "transactionHash": "0x62262399b3dbde3a7f25e86c5d5625cf52446fbe617c701bf3b295e6922a56f6",
      "transactionIndex": "0x4e",
      "blockHash": "0xa712834df98437f5b1f32cc0bc5cd4a4fedce4a70c83372e4b9a85c03387697e",
      "blockNumber": "0x72519e",
      "gasUsed": "0xfb93",
      "effectiveGasPrice": "0x44d30c96f",
      "from": "0xc77f7fed3b5cc8249adc428c5f44c9063b9734b4",
      "to": "0x270e88f8683660553e8ba4eb2ad7c91a1710d769",
      "contractAddress": null
    }
  ],
  "libraries": [],
  "pending": [],
  "returns": {},
  "timestamp": 1736885581,
  "chain": 11155111,
  "commit": "51a374b"
}