{
  "transactions": [
    {
      "hash": "0x2875a67aaee1188b4c0b61ee20d1eb5f10106db6a2e450e24786b4ecab14c4b0",
      "transactionType": "CALL",
      "contractName": null,
      "contractAddress": "0x8aafd3ede9adb0ff97c7aebce82a919afb1c8764",
      "function": "sell(uint256)",
      "arguments": [
        "158027454848579122532"
      ],
      "transaction": {
        "from": "0xc77f7fed3b5cc8249adc428c5f44c9063b9734b4",
        "to": "0x8aafd3ede9adb0ff97c7aebce82a919afb1c8764",
        "gas": "0x17270",
        "value": "0x0",
        "input": "0xe4849b3200000000000000000000000000000000000000000000000891124ceb60a3b564",
        "nonce": "0x16ca",
        "chainId": "0xaa36a7"
      },
      "additionalContracts": [],
      "isFixedGasLimit": false
    }
  ],
  "receipts": [
    {
      "status": "0x1",
      "cumulativeGasUsed": "0x9a3fce",
      "logs": [
        {
          "address": "0x8aafd3ede9adb0ff97c7aebce82a919afb1c8764",
          "topics": [
            "0xddf252ad1be2c89b69c2b068fc378daa952ba7f163c4a11628f55a4df523b3ef",
            "0x000000000000000000000000c77f7fed3b5cc8249adc428c5f44c9063b9734b4",
            "0x0000000000000000000000000000000000000000000000000000000000000000"
          ],
          "data": "0x0000000000000000000000000000000000000000000000087f86e3db289203d0",
          "blockHash": "0x938ef8e814c888d8655bde16e80ca749aaeae2fe46c1bbd33bf4d288c7019084",
          "blockNumber": "0x731e84",
          "transactionHash": "0x2875a67aaee1188b4c0b61ee20d1eb5f10106db6a2e450e24786b4ecab14c4b0",
          "transactionIndex": "0x5c",
          "logIndex": "0xa7",
          "removed": false
        },
        {
          "address": "0x8aafd3ede9adb0ff97c7aebce82a919afb1c8764",
          "topics": [
            "0xddf252ad1be2c89b69c2b068fc378daa952ba7f163c4a11628f55a4df523b3ef",
            "0x000000000000000000000000c77f7fed3b5cc8249adc428c5f44c9063b9734b4",
            "0x000000000000000000000000c77f7fed3b5cc8249adc428c5f44c9063b9734b4"
          ],
          "data": "0x000000000000000000000000000000000000000000000000118b69103811b194",
          "blockHash": "0x938ef8e814c888d8655bde16e80ca749aaeae2fe46c1bbd33bf4d288c7019084",
          "blockNumber": "0x731e84",
          "transactionHash": "0x2875a67aaee1188b4c0b61ee20d1eb5f10106db6a2e450e24786b4ecab14c4b0",
          "transactionIndex": "0x5c",
          "logIndex": "0xa8",
          "removed": false
        },
        {
          "address": "0x8aafd3ede9adb0ff97c7aebce82a919afb1c8764",
          "topics": [
            "0x4afcb4a87cdbd9974efdb92ee48bc8d7cd0ae4bf217004db3d080cbaee652ca7"
          ],
          "data": "0x0000000000000000000000000000000000000000000000000000000067906b1800000000000000000000000000000000000000000000000000166dc2d3f0425f0000000000000000000000000000000000000000000000000dcc14c4165498d5",
          "blockHash": "0x938ef8e814c888d8655bde16e80ca749aaeae2fe46c1bbd33bf4d288c7019084",
          "blockNumber": "0x731e84",
          "transactionHash": "0x2875a67aaee1188b4c0b61ee20d1eb5f10106db6a2e450e24786b4ecab14c4b0",
          "transactionIndex": "0x5c",
          "logIndex": "0xa9",
          "removed": false
        }
      ],
      "logsBloom": "0x00000000000000000000000000000000000000000600000000000000000000000000000000000000000000000000000000000000000000004000000000000000000000000000004000000008000000000000000000000000000000000000000000000000020000000000000000000800020000000000000000000010000000000000000000000000000000000000000000000000000000000000010000000000000000000000000000000000000000004000000000000000000000000000000000000002000000800000000000000000000000000000080000000000000020000000000000000000000000000000000000000000000000000000000000000000",
      "type": "0x2",
      "transactionHash": "0x2875a67aaee1188b4c0b61ee20d1eb5f10106db6a2e450e24786b4ecab14c4b0",
      "transactionIndex": "0x5c",
      "blockHash": "0x938ef8e814c888d8655bde16e80ca749aaeae2fe46c1bbd33bf4d288c7019084",
      "blockNumber": "0x731e84",
      "gasUsed": "0xfd4b",
      "effectiveGasPrice": "0x4897c9a9",
      "from": "0xc77f7fed3b5cc8249adc428c5f44c9063b9734b4",
      "to": "0x8aafd3ede9adb0ff97c7aebce82a919afb1c8764",
      "contractAddress": null
    }
  ],
  "libraries": [],
  "pending": [],
  "returns": {},
  "timestamp": 1737517851,
  "chain": 11155111,
  "commit": "1d2fb70"
}