{
  "transactions": [
    {
      "hash": "0xcbea2b08f6fe34038c7742df8085285e62a86696b939403c7f1ac347418689f0",
      "transactionType": "CALL",
      "contractName": null,
      "contractAddress": "0x8aafd3ede9adb0ff97c7aebce82a919afb1c8764",
      "function": "sell(uint256)",
      "arguments": [
        "7533587452"
      ],
      "transaction": {
        "from": "0xc77f7fed3b5cc8249adc428c5f44c9063b9734b4",
        "to": "0x8aafd3ede9adb0ff97c7aebce82a919afb1c8764",
        "gas": "0x1722a",
        "value": "0x0",
        "input": "0xe4849b3200000000000000000000000000000000000000000000000000000001c1096bfc",
        "nonce": "0x1474",
        "chainId": "0xaa36a7"
      },
      "additionalContracts": [],
      "isFixedGasLimit": false
    }
  ],
  "receipts": [
    {
      "status": "0x1",
      "cumulativeGasUsed": "0x156e81c",
      "logs": [
        {
          "address": "0x8aafd3ede9adb0ff97c7aebce82a919afb1c8764",
          "topics": [
            "0xddf252ad1be2c89b69c2b068fc378daa952ba7f163c4a11628f55a4df523b3ef",
            "0x000000000000000000000000c77f7fed3b5cc8249adc428c5f44c9063b9734b4",
            "0x0000000000000000000000000000000000000000000000000000000000000000"
          ],
          "data": "0x00000000000000000000000000000000000000000000000000000001bd71cb61",
          "blockHash": "0x3083fd02b2ea0de2084e3f5c2bfa1fc17863d1b7b1898f2671c0346d6297e27c",
          "blockNumber": "0x731bc1",
          "transactionHash": "0xcbea2b08f6fe34038c7742df8085285e62a86696b939403c7f1ac347418689f0",
          "transactionIndex": "0xb1",
          "logIndex": "0xae",
          "removed": false
        },
        {
          "address": "0x8aafd3ede9adb0ff97c7aebce82a919afb1c8764",
          "topics": [
            "0xddf252ad1be2c89b69c2b068fc378daa952ba7f163c4a11628f55a4df523b3ef",
            "0x000000000000000000000000c77f7fed3b5cc8249adc428c5f44c9063b9734b4",
            "0x000000000000000000000000c77f7fed3b5cc8249adc428c5f44c9063b9734b4"
          ],
          "data": "0x000000000000000000000000000000000000000000000000000000000397a09b",
          "blockHash": "0x3083fd02b2ea0de2084e3f5c2bfa1fc17863d1b7b1898f2671c0346d6297e27c",
          "blockNumber": "0x731bc1",
          "transactionHash": "0xcbea2b08f6fe34038c7742df8085285e62a86696b939403c7f1ac347418689f0",
          "transactionIndex": "0xb1",
          "logIndex": "0xaf",
          "removed": false
        },
        {
          "address": "0x8aafd3ede9adb0ff97c7aebce82a919afb1c8764",
          "topics": [
            "0x4afcb4a87cdbd9974efdb92ee48bc8d7cd0ae4bf217004db3d080cbaee652ca7"
          ],
          "data": "0x00000000000000000000000000000000000000000000000000000000679049e8000000000000000000000000000000000000000000000000000f72a58209a0b80000000000000000000000000000000000000000000000000000000001f3d690",
          "blockHash": "0x3083fd02b2ea0de2084e3f5c2bfa1fc17863d1b7b1898f2671c0346d6297e27c",
          "blockNumber": "0x731bc1",
          "transactionHash": "0xcbea2b08f6fe34038c7742df8085285e62a86696b939403c7f1ac347418689f0",
          "transactionIndex": "0xb1",
          "logIndex": "0xb0",
          "removed": false
        }
      ],
      "logsBloom": "0x00000000000000000000000000000000000000000600000000000000000000000000000000000000000000000000000000000000000000004000000000000000000000000000004000000008000000000000000000000000000000000000000000000000020000000000000000000800020000000000000000000010000000000000000000000000000000000000000000000000000000000000010000000000000000000000000000000000000000004000000000000000000000000000000000000002000000800000000000000000000000000000080000000000000020000000000000000000000000000000000000000000000000000000000000000000",
      "type": "0x2",
      "transactionHash": "0xcbea2b08f6fe34038c7742df8085285e62a86696b939403c7f1ac347418689f0",
      "transactionIndex": "0xb1",
      "blockHash": "0x3083fd02b2ea0de2084e3f5c2bfa1fc17863d1b7b1898f2671c0346d6297e27c",
      "blockNumber": "0x731bc1",
      "gasUsed": "0xfd1b",
      "effectiveGasPrice": "0xf10029c3",
      "from": "0xc77f7fed3b5cc8249adc428c5f44c9063b9734b4",
      "to": "0x8aafd3ede9adb0ff97c7aebce82a919afb1c8764",
      "contractAddress": null
    }
  ],
  "libraries": [],
  "pending": [],
  "returns": {},
  "timestamp": 1737509353,
  "chain": 11155111,
  "commit": "1d2fb70"
}