{
  "transactions": [
    {
      "hash": "0xc1bf32474e7773884b52ec2dca2462bde7c91b445a5dc19d444974c1afdc1afb",
      "transactionType": "CALL",
      "contractName": null,
      "contractAddress": "0x8aafd3ede9adb0ff97c7aebce82a919afb1c8764",
      "function": "sell(uint256)",
      "arguments": [
        "11221"
      ],
      "transaction": {
        "from": "0xc77f7fed3b5cc8249adc428c5f44c9063b9734b4",
        "to": "0x8aafd3ede9adb0ff97c7aebce82a919afb1c8764",
        "gas": "0x14e4c",
        "value": "0x0",
        "input": "0xe4849b320000000000000000000000000000000000000000000000000000000000002bd5",
        "nonce": "0x12a1",
        "chainId": "0xaa36a7"
      },
      "additionalContracts": [],
      "isFixedGasLimit": false
    }
  ],
  "receipts": [
    {
      "status": "0x1",
      "cumulativeGasUsed": "0xa68dda",
      "logs": [
        {
          "address": "0x8aafd3ede9adb0ff97c7aebce82a919afb1c8764",
          "topics": [
            "0xddf252ad1be2c89b69c2b068fc378daa952ba7f163c4a11628f55a4df523b3ef",
            "0x000000000000000000000000c77f7fed3b5cc8249adc428c5f44c9063b9734b4",
            "0x0000000000000000000000000000000000000000000000000000000000000000"
          ],
          "data": "0x0000000000000000000000000000000000000000000000000000000000002b7c",
          "blockHash": "0x3a15a63dc4ae06603a85e4c8c9c8ce2718e25d5eaf3e54e2b64e344f236857c3",
          "blockNumber": "0x731994",
          "transactionHash": "0xc1bf32474e7773884b52ec2dca2462bde7c91b445a5dc19d444974c1afdc1afb",
          "transactionIndex": "0x6f",
          "logIndex": "0x75",
          "removed": false
        },
        {
          "address": "0x8aafd3ede9adb0ff97c7aebce82a919afb1c8764",
          "topics": [
            "0xddf252ad1be2c89b69c2b068fc378daa952ba7f163c4a11628f55a4df523b3ef",
            "0x000000000000000000000000c77f7fed3b5cc8249adc428c5f44c9063b9734b4",
            "0x000000000000000000000000c77f7fed3b5cc8249adc428c5f44c9063b9734b4"
          ],
          "data": "0x0000000000000000000000000000000000000000000000000000000000000059",
          "blockHash": "0x3a15a63dc4ae06603a85e4c8c9c8ce2718e25d5eaf3e54e2b64e344f236857c3",
          "blockNumber": "0x731994",
          "transactionHash": "0xc1bf32474e7773884b52ec2dca2462bde7c91b445a5dc19d444974c1afdc1afb",
          "transactionIndex": "0x6f",
          "logIndex": "0x76",
          "removed": false
        },
        {
          "address": "0x8aafd3ede9adb0ff97c7aebce82a919afb1c8764",
          "topics": [
            "0x4afcb4a87cdbd9974efdb92ee48bc8d7cd0ae4bf217004db3d080cbaee652ca7"
          ],
          "data": "0x0000000000000000000000000000000000000000000000000000000067902fc0000000000000000000000000000000000000000000000000000547baec7d39fb0000000000000000000000000000000000000000000000000000000000000010",
          "blockHash": "0x3a15a63dc4ae06603a85e4c8c9c8ce2718e25d5eaf3e54e2b64e344f236857c3",
          "blockNumber": "0x731994",
          "transactionHash": "0xc1bf32474e7773884b52ec2dca2462bde7c91b445a5dc19d444974c1afdc1afb",
          "transactionIndex": "0x6f",
          "logIndex": "0x77",
          "removed": false
        }
      ],
      "logsBloom": "0x00000000000000000000000000000000000000000600000000000000000000000000000000000000000000000000000000000000000000004000000000000000000000000000004000000008000000000000000000000000000000000000000000000000020000000000000000000800020000000000000000000010000000000000000000000000000000000000000000000000000000000000010000000000000000000000000000000000000000004000000000000000000000000000000000000002000000800000000000000000000000000000080000000000000020000000000000000000000000000000000000000000000000000000000000000000",
      "type": "0x2",
      "transactionHash": "0xc1bf32474e7773884b52ec2dca2462bde7c91b445a5dc19d444974c1afdc1afb",
      "transactionIndex": "0x6f",
      "blockHash": "0x3a15a63dc4ae06603a85e4c8c9c8ce2718e25d5eaf3e54e2b64e344f236857c3",
      "blockNumber": "0x731994",
      "gasUsed": "0xf207",
      "effectiveGasPrice": "0x3b07ffee",
      "from": "0xc77f7fed3b5cc8249adc428c5f44c9063b9734b4",
      "to": "0x8aafd3ede9adb0ff97c7aebce82a919afb1c8764",
      "contractAddress": null
    }
  ],
  "libraries": [],
  "pending": [],
  "returns": {},
  "timestamp": 1737502657,
  "chain": 11155111,
  "commit": "1d2fb70"
}