{
  "transactions": [
    {
      "hash": "0x60e1b1cbfb2340b34dde388334a32323a843e396c193bbb17cf1fac97d26d711",
      "transactionType": "CALL",
      "contractName": null,
      "contractAddress": "0xbf4a322f1496e5c3d34a9bcdb4c60567b38c7de2",
      "function": "buy(address)",
      "arguments": [
        "0xC77f7fed3b5Cc8249aDc428c5F44C9063B9734b4"
      ],
      "transaction": {
        "from": "0xc77f7fed3b5cc8249adc428c5f44c9063b9734b4",
        "to": "0xbf4a322f1496e5c3d34a9bcdb4c60567b38c7de2",
        "gas": "0x1b309",
        "value": "0xde0b6b3a7640000",
        "input": "0xf088d547000000000000000000000000c77f7fed3b5cc8249adc428c5f44c9063b9734b4",
        "nonce": "0xda8",
        "chainId": "0xaa36a7"
      },
      "additionalContracts": [],
      "isFixedGasLimit": false
    }
  ],
  "receipts": [
    {
      "status": "0x1",
      "cumulativeGasUsed": "0xa25f15",
      "logs": [
        {
          "address": "0xbf4a322f1496e5c3d34a9bcdb4c60567b38c7de2",
          "topics": [
            "0xddf252ad1be2c89b69c2b068fc378daa952ba7f163c4a11628f55a4df523b3ef",
            "0x0000000000000000000000000000000000000000000000000000000000000000",
            "0x000000000000000000000000c77f7fed3b5cc8249adc428c5f44c9063b9734b4"
          ],
          "data": "0x000000000000000000000000000000000000000000000034ad01d0c3ac2976c8",
          "blockHash": "0x9fd675e20ce9b7d29235c6205edd62c1dd44c82ab21726caa774a41bfad0cebf",
          "blockNumber": "0x72667e",
          "transactionHash": "0x60e1b1cbfb2340b34dde388334a32323a843e396c193bbb17cf1fac97d26d711",
          "transactionIndex": "0x55",
          "logIndex": "0x96",
          "removed": false
        },
        {
          "address": "0xbf4a322f1496e5c3d34a9bcdb4c60567b38c7de2",
          "topics": [
            "0xddf252ad1be2c89b69c2b068fc378daa952ba7f163c4a11628f55a4df523b3ef",
            "0x0000000000000000000000000000000000000000000000000000000000000000",
            "0x000000000000000000000000c77f7fed3b5cc8249adc428c5f44c9063b9734b4"
          ],
          "data": "0x00000000000000000000000000000000000000000000000028e791670aabe920",
          "blockHash": "0x9fd675e20ce9b7d29235c6205edd62c1dd44c82ab21726caa774a41bfad0cebf",
          "blockNumber": "0x72667e",
          "transactionHash": "0x60e1b1cbfb2340b34dde388334a32323a843e396c193bbb17cf1fac97d26d711",
          "transactionIndex": "0x55",
          "logIndex": "0x97",
          "removed": false
        },
        {
          "address": "0xbf4a322f1496e5c3d34a9bcdb4c60567b38c7de2",
          "topics": [
            "0x4afcb4a87cdbd9974efdb92ee48bc8d7cd0ae4bf217004db3d080cbaee652ca7"
          ],
          "data": "0x000000000000000000000000000000000000000000000000000000006787c0c800000000000000000000000000000000000000000000000000039ea28e9278940000000000000000000000000000000000000000000000000de0b6b3a7640000",
          "blockHash": "0x9fd675e20ce9b7d29235c6205edd62c1dd44c82ab21726caa774a41bfad0cebf",
          "blockNumber": "0x72667e",
          "transactionHash": "0x60e1b1cbfb2340b34dde388334a32323a843e396c193bbb17cf1fac97d26d711",
          "transactionIndex": "0x55",
          "logIndex": "0x98",
          "removed": false
        }
      ],
      "logsBloom": "0x00000000000000000000000000000000000000000000000000000000000000000000000000000000000000000000000000000000000000004000000000000000000000000000000000000008000000000000001000000000000000000000000000000000020000000000000000000800020000000000000000000010000000000000000000000000000000000000000000000000000008000000010000000000000000000000000000000000000000004000000000000000000000000000000000000002000000800000000000001000000000000000080000000000000020000000000000000000000000000000000000000000000000000000000000000000",
      "type": "0x2",
      "transactionHash": "0x60e1b1cbfb2340b34dde388334a32323a843e396c193bbb17cf1fac97d26d711",
      "transactionIndex": "0x55",
      "blockHash": "0x9fd675e20ce9b7d29235c6205edd62c1dd44c82ab21726caa774a41bfad0cebf",
      "blockNumber": "0x72667e",
      "gasUsed": "0x13af6",
      "effectiveGasPrice": "0x8dc6d998",
      "from": "0xc77f7fed3b5cc8249adc428c5f44c9063b9734b4",
      "to": "0xbf4a322f1496e5c3d34a9bcdb4c60567b38c7de2",
      "contractAddress": null
    }
  ],
  "libraries": [],
  "pending": [],
  "returns": {},
  "timestamp": 1736949962,
  "chain": 11155111,
  "commit": "51a374b"
}