{
  "transactions": [
    {
      "hash": "0x3393830f41d42501b89be3f7cf50331a6c8e59c306effb718e63dc08797c087a",
      "transactionType": "CALL",
      "contractName": null,
      "contractAddress": "0x8aafd3ede9adb0ff97c7aebce82a919afb1c8764",
      "function": "sell(uint256)",
      "arguments": [
        "174209605"
      ],
      "transaction": {
        "from": "0xc77f7fed3b5cc8249adc428c5f44c9063b9734b4",
        "to": "0x8aafd3ede9adb0ff97c7aebce82a919afb1c8764",
        "gas": "0x14e6c",
        "value": "0x0",
        "input": "0xe4849b32000000000000000000000000000000000000000000000000000000000a623a45",
        "nonce": "0x12db",
        "chainId": "0xaa36a7"
      },
      "additionalContracts": [],
      "isFixedGasLimit": false
    }
  ],
  "receipts": [
    {
      "status": "0x1",
      "cumulativeGasUsed": "0xa4ba8a",
      "logs": [
        {
          "address": "0x8aafd3ede9adb0ff97c7aebce82a919afb1c8764",
          "topics": [
            "0xddf252ad1be2c89b69c2b068fc378daa952ba7f163c4a11628f55a4df523b3ef",
            "0x000000000000000000000000c77f7fed3b5cc8249adc428c5f44c9063b9734b4",
            "0x0000000000000000000000000000000000000000000000000000000000000000"
          ],
          "data": "0x000000000000000000000000000000000000000000000000000000000a4cf639",
          "blockHash": "0xa7fbd9bab84ba01aa93ce738731fc30f4ab35f86ee6abf8e8f06dbc4f6f92da5",
          "blockNumber": "0x7319db",
          "transactionHash": "0x3393830f41d42501b89be3f7cf50331a6c8e59c306effb718e63dc08797c087a",
          "transactionIndex": "0x87",
          "logIndex": "0xad",
          "removed": false
        },
        {
          "address": "0x8aafd3ede9adb0ff97c7aebce82a919afb1c8764",
          "topics": [
            "0xddf252ad1be2c89b69c2b068fc378daa952ba7f163c4a11628f55a4df523b3ef",
            "0x000000000000000000000000c77f7fed3b5cc8249adc428c5f44c9063b9734b4",
            "0x000000000000000000000000c77f7fed3b5cc8249adc428c5f44c9063b9734b4"
          ],
          "data": "0x000000000000000000000000000000000000000000000000000000000015440c",
          "blockHash": "0xa7fbd9bab84ba01aa93ce738731fc30f4ab35f86ee6abf8e8f06dbc4f6f92da5",
          "blockNumber": "0x7319db",
          "transactionHash": "0x3393830f41d42501b89be3f7cf50331a6c8e59c306effb718e63dc08797c087a",
          "transactionIndex": "0x87",
          "logIndex": "0xae",
          "removed": false
        },
        {
          "address": "0x8aafd3ede9adb0ff97c7aebce82a919afb1c8764",
          "topics": [
            "0x4afcb4a87cdbd9974efdb92ee48bc8d7cd0ae4bf217004db3d080cbaee652ca7"
          ],
          "data": "0x0000000000000000000000000000000000000000000000000000000067903314000000000000000000000000000000000000000000000000000550735e5f9e22000000000000000000000000000000000000000000000000000000000003f9ec",
          "blockHash": "0xa7fbd9bab84ba01aa93ce738731fc30f4ab35f86ee6abf8e8f06dbc4f6f92da5",
          "blockNumber": "0x7319db",
          "transactionHash": "0x3393830f41d42501b89be3f7cf50331a6c8e59c306effb718e63dc08797c087a",
          "transactionIndex": "0x87",
          "logIndex": "0xaf",
          "removed": false
        }
      ],
      "logsBloom": "0x00000000000000000000000000000000000000000600000000000000000000000000000000000000000000000000000000000000000000004000000000000000000000000000004000000008000000000000000000000000000000000000000000000000020000000000000000000800020000000000000000000010000000000000000000000000000000000000000000000000000000000000010000000000000000000000000000000000000000004000000000000000000000000000000000000002000000800000000000000000000000000000080000000000000020000000000000000000000000000000000000000000000000000000000000000000",
      "type": "0x2",
      "transactionHash": "0x3393830f41d42501b89be3f7cf50331a6c8e59c306effb718e63dc08797c087a",
      "transactionIndex": "0x87",
      "blockHash": "0xa7fbd9bab84ba01aa93ce738731fc30f4ab35f86ee6abf8e8f06dbc4f6f92da5",
      "blockNumber": "0x7319db",
      "gasUsed": "0xf21f",
      "effectiveGasPrice": "0x45a3966b",
      "from": "0xc77f7fed3b5cc8249adc428c5f44c9063b9734b4",
      "to": "0x8aafd3ede9adb0ff97c7aebce82a919afb1c8764",
      "contractAddress": null
    }
  ],
  "libraries": [],
  "pending": [],
  "returns": {},
  "timestamp": 1737503510,
  "chain": 11155111,
  "commit": "1d2fb70"
}