{
  "transactions": [
    {
      "hash": "0x55e674941fa496fd191242557df716177147927b320fd877c54d1e407ea1baf6",
      "transactionType": "CALL",
      "contractName": null,
      "contractAddress": "0x8aafd3ede9adb0ff97c7aebce82a919afb1c8764",
      "function": "sell(uint256)",
      "arguments": [
        "24247967891"
      ],
      "transaction": {
        "from": "0xc77f7fed3b5cc8249adc428c5f44c9063b9734b4",
        "to": "0x8aafd3ede9adb0ff97c7aebce82a919afb1c8764",
        "gas": "0x1722a",
        "value": "0x0",
        "input": "0xe4849b3200000000000000000000000000000000000000000000000000000005a54aa093",
        "nonce": "0xfd0",
        "chainId": "0xaa36a7"
      },
      "additionalContracts": [],
      "isFixedGasLimit": false
    }
  ],
  "receipts": [
    {
      "status": "0x1",
      "cumulativeGasUsed": "0xad78ec",
      "logs": [
        {
          "address": "0x8aafd3ede9adb0ff97c7aebce82a919afb1c8764",
          "topics": [
            "0xddf252ad1be2c89b69c2b068fc378daa952ba7f163c4a11628f55a4df523b3ef",
            "0x000000000000000000000000c77f7fed3b5cc8249adc428c5f44c9063b9734b4",
            "0x0000000000000000000000000000000000000000000000000000000000000000"
          ],
          "data": "0x0000000000000000000000000000000000000000000000000000000599baab94",
          "blockHash": "0x9016ac090b6cfd5a1b4f6eace70571452a6d6c4641d19a25049baf1ff48be87d",
          "blockNumber": "0x73163d",
          "transactionHash": "0x55e674941fa496fd191242557df716177147927b320fd877c54d1e407ea1baf6",
          "transactionIndex": "0x79",
          "logIndex": "0x8b",
          "removed": false
        },
        {
          "address": "0x8aafd3ede9adb0ff97c7aebce82a919afb1c8764",
          "topics": [
            "0xddf252ad1be2c89b69c2b068fc378daa952ba7f163c4a11628f55a4df523b3ef",
            "0x000000000000000000000000c77f7fed3b5cc8249adc428c5f44c9063b9734b4",
            "0x000000000000000000000000c77f7fed3b5cc8249adc428c5f44c9063b9734b4"
          ],
          "data": "0x000000000000000000000000000000000000000000000000000000000b8ff4ff",
          "blockHash": "0x9016ac090b6cfd5a1b4f6eace70571452a6d6c4641d19a25049baf1ff48be87d",
          "blockNumber": "0x73163d",
          "transactionHash": "0x55e674941fa496fd191242557df716177147927b320fd877c54d1e407ea1baf6",
          "transactionIndex": "0x79",
          "logIndex": "0x8c",
          "removed": false
        },
        {
          "address": "0x8aafd3ede9adb0ff97c7aebce82a919afb1c8764",
          "topics": [
            "0x4afcb4a87cdbd9974efdb92ee48bc8d7cd0ae4bf217004db3d080cbaee652ca7"
          ],
          "data": "0x00000000000000000000000000000000000000000000000000000000679007880000000000000000000000000000000000000000000000000004c4cafb504c020000000000000000000000000000000000000000000000000000000001f0a289",
          "blockHash": "0x9016ac090b6cfd5a1b4f6eace70571452a6d6c4641d19a25049baf1ff48be87d",
          "blockNumber": "0x73163d",
          "transactionHash": "0x55e674941fa496fd191242557df716177147927b320fd877c54d1e407ea1baf6",
          "transactionIndex": "0x79",
          "logIndex": "0x8d",
          "removed": false
        }
      ],
      "logsBloom": "0x00000000000000000000000000000000000000000600000000000000000000000000000000000000000000000000000000000000000000004000000000000000000000000000004000000008000000000000000000000000000000000000000000000000020000000000000000000800020000000000000000000010000000000000000000000000000000000000000000000000000000000000010000000000000000000000000000000000000000004000000000000000000000000000000000000002000000800000000000000000000000000000080000000000000020000000000000000000000000000000000000000000000000000000000000000000",
      "type": "0x2",
      "transactionHash": "0x55e674941fa496fd191242557df716177147927b320fd877c54d1e407ea1baf6",
      "transactionIndex": "0x79",
      "blockHash": "0x9016ac090b6cfd5a1b4f6eace70571452a6d6c4641d19a25049baf1ff48be87d",
      "blockNumber": "0x73163d",
      "gasUsed": "0xfd1b",
      "effectiveGasPrice": "0x5c2e119d",
      "from": "0xc77f7fed3b5cc8249adc428c5f44c9063b9734b4",
      "to": "0x8aafd3ede9adb0ff97c7aebce82a919afb1c8764",
      "contractAddress": null
    }
  ],
  "libraries": [],
  "pending": [],
  "returns": {},
  "timestamp": 1737492362,
  "chain": 11155111,
  "commit": "1d2fb70"
}