{
  "transactions": [
    {
      "hash": "0x02fac56105e38d5f678e91b1e8b65539d883c2ac587a80bab195f60d53234953",
      "transactionType": "CALL",
      "contractName": null,
      "contractAddress": "0x5eb9cc76c3506942c1c0ead70e877dd5e4f00cb0",
      "function": "buy(address)",
      "arguments": [
        "0xC77f7fed3b5Cc8249aDc428c5F44C9063B9734b4"
      ],
      "transaction": {
        "from": "0xc77f7fed3b5cc8249adc428c5f44c9063b9734b4",
        "to": "0x5eb9cc76c3506942c1c0ead70e877dd5e4f00cb0",
        "gas": "0x1b30c",
        "value": "0xde0b6b3a7640000",
        "input": "0xf088d547000000000000000000000000c77f7fed3b5cc8249adc428c5f44c9063b9734b4",
        "nonce": "0x2f8",
        "chainId": "0xaa36a7"
      },
      "additionalContracts": [],
      "isFixedGasLimit": false
    }
  ],
  "receipts": [
    {
      "status": "0x1",
      "cumulativeGasUsed": "0xc84e02",
      "logs": [
        {
          "address": "0x5eb9cc76c3506942c1c0ead70e877dd5e4f00cb0",
          "topics": [
            "0xddf252ad1be2c89b69c2b068fc378daa952ba7f163c4a11628f55a4df523b3ef",
            "0x0000000000000000000000000000000000000000000000000000000000000000",
            "0x000000000000000000000000c77f7fed3b5cc8249adc428c5f44c9063b9734b4"
          ],
          "data": "0x00000000000000000000000000000000000000000000003575973c1f6da80b4f",
          "blockHash": "0xd3481f1309f91167795ef7910dfae2def900f5b00b458a15ca67e79b44f5b2be",
          "blockNumber": "0x724ed9",
          "transactionHash": "0x02fac56105e38d5f678e91b1e8b65539d883c2ac587a80bab195f60d53234953",
          "transactionIndex": "0x6b",
          "logIndex": "0x85",
          "removed": false
        },
        {
          "address": "0x5eb9cc76c3506942c1c0ead70e877dd5e4f00cb0",
          "topics": [
            "0xddf252ad1be2c89b69c2b068fc378daa952ba7f163c4a11628f55a4df523b3ef",
            "0x0000000000000000000000000000000000000000000000000000000000000000",
            "0x000000000000000000000000c77f7fed3b5cc8249adc428c5f44c9063b9734b4"
          ],
          "data": "0x000000000000000000000000000000000000000000000000298353fa693e0cd0",
          "blockHash": "0xd3481f1309f91167795ef7910dfae2def900f5b00b458a15ca67e79b44f5b2be",
          "blockNumber": "0x724ed9",
          "transactionHash": "0x02fac56105e38d5f678e91b1e8b65539d883c2ac587a80bab195f60d53234953",
          "transactionIndex": "0x6b",
          "logIndex": "0x86",
          "removed": false
        },
        {
          "address": "0x5eb9cc76c3506942c1c0ead70e877dd5e4f00cb0",
          "topics": [
            "0x4afcb4a87cdbd9974efdb92ee48bc8d7cd0ae4bf217004db3d080cbaee652ca7"
          ],
          "data": "0x000000000000000000000000000000000000000000000000000000006786a3e00000000000000000000000000000000000000000000000000003910b7b6aa7750000000000000000000000000000000000000000000000000de0b6b3a7640000",
          "blockHash": "0xd3481f1309f91167795ef7910dfae2def900f5b00b458a15ca67e79b44f5b2be",
          "blockNumber": "0x724ed9",
          "transactionHash": "0x02fac56105e38d5f678e91b1e8b65539d883c2ac587a80bab195f60d53234953",
          "transactionIndex": "0x6b",
          "logIndex": "0x87",
          "removed": false
        }
      ],
      "logsBloom": "0x00000000000000000000000000000000000000000000000000000000000000000000000000000000000000000000000000000000000000004000000000000000000000000000000000000008000000000000000000000000000000000000000000000000020000000000000004000800020000000000000000000010000000000000000000000000000000000000000000000000000000000000010000000000000000000000000000000000000000004000000000000000000000000000020000000002000000800000008000000000000000000000080000000000000020000000000000000000000000000000000000000000000000000000000000000000",
      "type": "0x2",
      "transactionHash": "0x02fac56105e38d5f678e91b1e8b65539d883c2ac587a80bab195f60d53234953",
      "transactionIndex": "0x6b",
      "blockHash": "0xd3481f1309f91167795ef7910dfae2def900f5b00b458a15ca67e79b44f5b2be",
      "blockNumber": "0x724ed9",
      "gasUsed": "0x13af8",
      "effectiveGasPrice": "0x69ffbad4a",
      "from": "0xc77f7fed3b5cc8249adc428c5f44c9063b9734b4",
      "to": "0x5eb9cc76c3506942c1c0ead70e877dd5e4f00cb0",
      "contractAddress": null
    }
  ],
  "libraries": [],
  "pending": [],
  "returns": {},
  "timestamp": 1736877025,
  "chain": 11155111,
  "commit": "51a374b"
}