{
  "transactions": [
    {
      "hash": "0x0697500b6cf566f29b3fadae000fceecaa8f764f40a21462acc60356cbdb9fc4",
      "transactionType": "CALL",
      "contractName": null,
      "contractAddress": "0x9a940ef65f8bf33332aa4faea921454828f0c80a",
      "function": "borrow(uint256,uint256)",
      "arguments": [
        "9949748743718592",
        "0"
      ],
      "transaction": {
        "from": "0xf66076775ad1f36dd12c1f1b10c21d1aadf0d6de",
        "to": "0x9a940ef65f8bf33332aa4faea921454828f0c80a",
        "gas": "0x52ca3",
        "value": "0x0",
        "input": "0x0ecbcdab0000000000000000000000000000000000000000000000000023593e677946c00000000000000000000000000000000000000000000000000000000000000000",
        "nonce": "0x53",
        "chainId": "0xaa36a7"
      },
      "additionalContracts": [],
      "isFixedGasLimit": false
    }
  ],
  "receipts": [
    {
      "status": "0x1",
      "cumulativeGasUsed": "0x11f5d1e",
      "logs": [
        {
          "address": "0x9a940ef65f8bf33332aa4faea921454828f0c80a",
          "topics": [
            "0xddf252ad1be2c89b69c2b068fc378daa952ba7f163c4a11628f55a4df523b3ef",
            "0x000000000000000000000000f66076775ad1f36dd12c1f1b10c21d1aadf0d6de",
            "0x0000000000000000000000009a940ef65f8bf33332aa4faea921454828f0c80a"
          ],
          "data": "0x0000000000000000000000000000000000000000000000008963dd8c2c5e22eb",
          "blockHash": "0x986900d064d87699dec03d470629fcf5bc5329a1baa45c985a4f27ed50ea09b6",
          "blockNumber": "0x73d10d",
          "transactionHash": "0x0697500b6cf566f29b3fadae000fceecaa8f764f40a21462acc60356cbdb9fc4",
          "transactionIndex": "0x69",
          "logIndex": "0x9f",
          "removed": false
        },
        {
          "address": "0x9a940ef65f8bf33332aa4faea921454828f0c80a",
          "topics": [
            "0x03bbe564cb1b78e43195eeadbde99e5b89b19345862807fcfb59f884e4165e25"
          ],
          "data": "0x000000000000000000000000f66076775ad1f36dd12c1f1b10c21d1aadf0d6de0000000000000000000000000000000000000000000000000022f5b3bbd6eb18",
          "blockHash": "0x986900d064d87699dec03d470629fcf5bc5329a1baa45c985a4f27ed50ea09b6",
          "blockNumber": "0x73d10d",
          "transactionHash": "0x0697500b6cf566f29b3fadae000fceecaa8f764f40a21462acc60356cbdb9fc4",
          "transactionIndex": "0x69",
          "logIndex": "0xa0",
          "removed": false
        },
        {
          "address": "0x9a940ef65f8bf33332aa4faea921454828f0c80a",
          "topics": [
            "0x03bbe564cb1b78e43195eeadbde99e5b89b19345862807fcfb59f884e4165e25"
          ],
          "data": "0x00000000000000000000000038818e389773445cd73adbaa37b8b169f458c6e1000000000000000000000000000000000000000000000000000002b6fb5f310b",
          "blockHash": "0x986900d064d87699dec03d470629fcf5bc5329a1baa45c985a4f27ed50ea09b6",
          "blockNumber": "0x73d10d",
          "transactionHash": "0x0697500b6cf566f29b3fadae000fceecaa8f764f40a21462acc60356cbdb9fc4",
          "transactionIndex": "0x69",
          "logIndex": "0xa1",
          "removed": false
        },
        {
          "address": "0x9a940ef65f8bf33332aa4faea921454828f0c80a",
          "topics": [
            "0xaec00f5213a37254bc68a26b0685d1a5b2bf513e1e587c94c7df7f4a62b56c9c"
          ],
          "data": "0x0000000000000000000000000000000000000000000000008963dd8c2c5e22eb0000000000000000000000000000000000000000000000000022fec05714393e0000000000000000000000000000000000000000000000000022fec05714393e0000000000000000000000000000000000000000000000008963dd8c2c5e22eb",
          "blockHash": "0x986900d064d87699dec03d470629fcf5bc5329a1baa45c985a4f27ed50ea09b6",
          "blockNumber": "0x73d10d",
          "transactionHash": "0x0697500b6cf566f29b3fadae000fceecaa8f764f40a21462acc60356cbdb9fc4",
          "transactionIndex": "0x69",
          "logIndex": "0xa2",
          "removed": false
        },
        {
          "address": "0x9a940ef65f8bf33332aa4faea921454828f0c80a",
          "topics": [
            "0x4afcb4a87cdbd9974efdb92ee48bc8d7cd0ae4bf217004db3d080cbaee652ca7"
          ],
          "data": "0x00000000000000000000000000000000000000000000000000000000679910100000000000000000000000000000000000000000000000000003926222b3c8db0000000000000000000000000000000000000000000000000000090c9b3d4e26",
          "blockHash": "0x986900d064d87699dec03d470629fcf5bc5329a1baa45c985a4f27ed50ea09b6",
          "blockNumber": "0x73d10d",
          "transactionHash": "0x0697500b6cf566f29b3fadae000fceecaa8f764f40a21462acc60356cbdb9fc4",
          "transactionIndex": "0x69",
          "logIndex": "0xa3",
          "removed": false
        }
      ],
      "logsBloom": "0x80000000000000040000000000000100400000000000000000000000000000000008000000000000000000000000000000002000000000004000000000000000000000000000000000000008000000000000000000000000000000000000000000000000000000000000800000000000220000000000000000000010080000000000000000000000000000000000000000000000000000000000000000000000000000000000000000000400000000004000000000800000000000001000000000000002000000000000000000000000000000000000000000000020000000000000000000000000000000200000000000000000000000000040000000000000",
      "type": "0x2",
      "transactionHash": "0x0697500b6cf566f29b3fadae000fceecaa8f764f40a21462acc60356cbdb9fc4",
      "transactionIndex": "0x69",
      "blockHash": "0x986900d064d87699dec03d470629fcf5bc5329a1baa45c985a4f27ed50ea09b6",
      "blockNumber": "0x73d10d",
      "gasUsed": "0x3bf04",
      "effectiveGasPrice": "0x4a3871ae",
      "from": "0xf66076775ad1f36dd12c1f1b10c21d1aadf0d6de",
      "to": "0x9a940ef65f8bf33332aa4faea921454828f0c80a",
      "contractAddress": null
    }
  ],
  "libraries": [],
  "pending": [],
  "returns": {},
  "timestamp": 1738084369,
  "chain": 11155111,
  "commit": "f5162e9"
}