{
  "transactions": [
    {
      "hash": "0x7dc2da845d8903f1eb971664fef61c66c435db415580bbea35b9e52b76bc05d2",
      "transactionType": "CALL",
      "contractName": null,
      "contractAddress": "0x8aafd3ede9adb0ff97c7aebce82a919afb1c8764",
      "function": "sell(uint256)",
      "arguments": [
        "257500738720206028155"
      ],
      "transaction": {
        "from": "0xc77f7fed3b5cc8249adc428c5f44c9063b9734b4",
        "to": "0x8aafd3ede9adb0ff97c7aebce82a919afb1c8764",
        "gas": "0x17270",
        "value": "0x0",
        "input": "0xe4849b3200000000000000000000000000000000000000000000000df58a6591928dfd7b",
        "nonce": "0x13df",
        "chainId": "0xaa36a7"
      },
      "additionalContracts": [],
      "isFixedGasLimit": false
    }
  ],
  "receipts": [
    {
      "status": "0x1",
      "cumulativeGasUsed": "0x15f5d55",
      "logs": [
        {
          "address": "0x8aafd3ede9adb0ff97c7aebce82a919afb1c8764",
          "topics": [
            "0xddf252ad1be2c89b69c2b068fc378daa952ba7f163c4a11628f55a4df523b3ef",
            "0x000000000000000000000000c77f7fed3b5cc8249adc428c5f44c9063b9734b4",
            "0x0000000000000000000000000000000000000000000000000000000000000000"
          ],
          "data": "0x00000000000000000000000000000000000000000000000dd8f3c91bac01971a",
          "blockHash": "0x331e4f6fb45972581b5da513a1c7ae6e36c33af29822cc99ae1a7c920af5f1e6",
          "blockNumber": "0x731b0e",
          "transactionHash": "0x7dc2da845d8903f1eb971664fef61c66c435db415580bbea35b9e52b76bc05d2",
          "transactionIndex": "0xaa",
          "logIndex": "0xf5",
          "removed": false
        },
        {
          "address": "0x8aafd3ede9adb0ff97c7aebce82a919afb1c8764",
          "topics": [
            "0xddf252ad1be2c89b69c2b068fc378daa952ba7f163c4a11628f55a4df523b3ef",
            "0x000000000000000000000000c77f7fed3b5cc8249adc428c5f44c9063b9734b4",
            "0x000000000000000000000000c77f7fed3b5cc8249adc428c5f44c9063b9734b4"
          ],
          "data": "0x0000000000000000000000000000000000000000000000001c969c75e68c6661",
          "blockHash": "0x331e4f6fb45972581b5da513a1c7ae6e36c33af29822cc99ae1a7c920af5f1e6",
          "blockNumber": "0x731b0e",
          "transactionHash": "0x7dc2da845d8903f1eb971664fef61c66c435db415580bbea35b9e52b76bc05d2",
          "transactionIndex": "0xaa",
          "logIndex": "0xf6",
          "removed": false
        },
        {
          "address": "0x8aafd3ede9adb0ff97c7aebce82a919afb1c8764",
          "topics": [
            "0x4afcb4a87cdbd9974efdb92ee48bc8d7cd0ae4bf217004db3d080cbaee652ca7"
          ],
          "data": "0x0000000000000000000000000000000000000000000000000000000067904178000000000000000000000000000000000000000000000000000dcd5bea2867ba0000000000000000000000000000000000000000000000000dce135497b9e33c",
          "blockHash": "0x331e4f6fb45972581b5da513a1c7ae6e36c33af29822cc99ae1a7c920af5f1e6",
          "blockNumber": "0x731b0e",
          "transactionHash": "0x7dc2da845d8903f1eb971664fef61c66c435db415580bbea35b9e52b76bc05d2",
          "transactionIndex": "0xaa",
          "logIndex": "0xf7",
          "removed": false
        }
      ],
      "logsBloom": "0x00000000000000000000000000000000000000000600000000000000000000000000000000000000000000000000000000000000000000004000000000000000000000000000004000000008000000000000000000000000000000000000000000000000020000000000000000000800020000000000000000000010000000000000000000000000000000000000000000000000000000000000010000000000000000000000000000000000000000004000000000000000000000000000000000000002000000800000000000000000000000000000080000000000000020000000000000000000000000000000000000000000000000000000000000000000",
      "type": "0x2",
      "transactionHash": "0x7dc2da845d8903f1eb971664fef61c66c435db415580bbea35b9e52b76bc05d2",
      "transactionIndex": "0xaa",
      "blockHash": "0x331e4f6fb45972581b5da513a1c7ae6e36c33af29822cc99ae1a7c920af5f1e6",
      "blockNumber": "0x731b0e",
      "gasUsed": "0xfd4b",
      "effectiveGasPrice": "0x8d1f9b88",
      "from": "0xc77f7fed3b5cc8249adc428c5f44c9063b9734b4",
      "to": "0x8aafd3ede9adb0ff97c7aebce82a919afb1c8764",
      "contractAddress": null
    }
  ],
  "libraries": [],
  "pending": [],
  "returns": {},
  "timestamp": 1737507193,
  "chain": 11155111,
  "commit": "1d2fb70"
}