{
  "transactions": [
    {
      "hash": "0x026d008ee5d2ae2a9435fb1082c0b815a91bce87b534b5db014f46647466b762",
      "transactionType": "CALL",
      "contractName": null,
      "contractAddress": "0xbf4a322f1496e5c3d34a9bcdb4c60567b38c7de2",
      "function": "buy(address)",
      "arguments": [
        "0xC77f7fed3b5Cc8249aDc428c5F44C9063B9734b4"
      ],
      "transaction": {
        "from": "0xc77f7fed3b5cc8249adc428c5f44c9063b9734b4",
        "to": "0xbf4a322f1496e5c3d34a9bcdb4c60567b38c7de2",
        "gas": "0x1b309",
        "value": "0xde0b6b3a7640000",
        "input": "0xf088d547000000000000000000000000c77f7fed3b5cc8249adc428c5f44c9063b9734b4",
        "nonce": "0xb70",
        "chainId": "0xaa36a7"
      },
      "additionalContracts": [],
      "isFixedGasLimit": false
    }
  ],
  "receipts": [
    {
      "status": "0x1",
      "cumulativeGasUsed": "0x8a309a",
      "logs": [
        {
          "address": "0xbf4a322f1496e5c3d34a9bcdb4c60567b38c7de2",
          "topics": [
            "0xddf252ad1be2c89b69c2b068fc378daa952ba7f163c4a11628f55a4df523b3ef",
            "0x0000000000000000000000000000000000000000000000000000000000000000",
            "0x000000000000000000000000c77f7fed3b5cc8249adc428c5f44c9063b9734b4"
          ],
          "data": "0x000000000000000000000000000000000000000000000035162fe0265ec756b2",
          "blockHash": "0x688f8cb42d163d69b11cf6689fb81b811d8e28797a374ed4822f55e622cb3d2e",
          "blockNumber": "0x725b7b",
          "transactionHash": "0x026d008ee5d2ae2a9435fb1082c0b815a91bce87b534b5db014f46647466b762",
          "transactionIndex": "0x45",
          "logIndex": "0x5e",
          "removed": false
        },
        {
          "address": "0xbf4a322f1496e5c3d34a9bcdb4c60567b38c7de2",
          "topics": [
            "0xddf252ad1be2c89b69c2b068fc378daa952ba7f163c4a11628f55a4df523b3ef",
            "0x0000000000000000000000000000000000000000000000000000000000000000",
            "0x000000000000000000000000c77f7fed3b5cc8249adc428c5f44c9063b9734b4"
          ],
          "data": "0x00000000000000000000000000000000000000000000000029393e68182482f8",
          "blockHash": "0x688f8cb42d163d69b11cf6689fb81b811d8e28797a374ed4822f55e622cb3d2e",
          "blockNumber": "0x725b7b",
          "transactionHash": "0x026d008ee5d2ae2a9435fb1082c0b815a91bce87b534b5db014f46647466b762",
          "transactionIndex": "0x45",
          "logIndex": "0x5f",
          "removed": false
        },
        {
          "address": "0xbf4a322f1496e5c3d34a9bcdb4c60567b38c7de2",
          "topics": [
            "0x4afcb4a87cdbd9974efdb92ee48bc8d7cd0ae4bf217004db3d080cbaee652ca7"
          ],
          "data": "0x0000000000000000000000000000000000000000000000000000000067873c2000000000000000000000000000000000000000000000000000039776a52623a20000000000000000000000000000000000000000000000000de0b6b3a7640000",
          "blockHash": "0x688f8cb42d163d69b11cf6689fb81b811d8e28797a374ed4822f55e622cb3d2e",
          "blockNumber": "0x725b7b",
          "transactionHash": "0x026d008ee5d2ae2a9435fb1082c0b815a91bce87b534b5db014f46647466b762",
          "transactionIndex": "0x45",
          "logIndex": "0x60",
          "removed": false
        }
      ],
      "logsBloom": "0x00000000000000000000000000000000000000000000000000000000000000000000000000000000000000000000000000000000000000004000000000000000000000000000000000000008000000000000001000000000000000000000000000000000020000000000000000000800020000000000000000000010000000000000000000000000000000000000000000000000000008000000010000000000000000000000000000000000000000004000000000000000000000000000000000000002000000800000000000001000000000000000080000000000000020000000000000000000000000000000000000000000000000000000000000000000",
      "type": "0x2",
      "transactionHash": "0x026d008ee5d2ae2a9435fb1082c0b815a91bce87b534b5db014f46647466b762",
      "transactionIndex": "0x45",
      "blockHash": "0x688f8cb42d163d69b11cf6689fb81b811d8e28797a374ed4822f55e622cb3d2e",
      "blockNumber": "0x725b7b",
      "gasUsed": "0x13af6",
      "effectiveGasPrice": "0x3f2e6419",
      "from": "0xc77f7fed3b5cc8249adc428c5f44c9063b9734b4",
      "to": "0xbf4a322f1496e5c3d34a9bcdb4c60567b38c7de2",
      "contractAddress": null
    }
  ],
  "libraries": [],
  "pending": [],
  "returns": {},
  "timestamp": 1736916002,
  "chain": 11155111,
  "commit": "51a374b"
}