{
  "transactions": [
    {
      "hash": "0xf8698d1707d98c3e5986a25ef4ff9e63fc06b2e1520e240718aedf357ace4963",
      "transactionType": "CALL",
      "contractName": null,
      "contractAddress": "0x5eb9cc76c3506942c1c0ead70e877dd5e4f00cb0",
      "function": "buy(address)",
      "arguments": [
        "0xC77f7fed3b5Cc8249aDc428c5F44C9063B9734b4"
      ],
      "transaction": {
        "from": "0xc77f7fed3b5cc8249adc428c5f44c9063b9734b4",
        "to": "0x5eb9cc76c3506942c1c0ead70e877dd5e4f00cb0",
        "gas": "0x156c8",
        "value": "0xde0b6b3a7640000",
        "input": "0xf088d547000000000000000000000000c77f7fed3b5cc8249adc428c5f44c9063b9734b4",
        "nonce": "0x192",
        "chainId": "0xaa36a7"
      },
      "additionalContracts": [],
      "isFixedGasLimit": false
    }
  ],
  "receipts": [
    {
      "status": "0x1",
      "cumulativeGasUsed": "0xf03cd7",
      "logs": [
        {
          "address": "0x5eb9cc76c3506942c1c0ead70e877dd5e4f00cb0",
          "topics": [
            "0xddf252ad1be2c89b69c2b068fc378daa952ba7f163c4a11628f55a4df523b3ef",
            "0x0000000000000000000000000000000000000000000000000000000000000000",
            "0x000000000000000000000000c77f7fed3b5cc8249adc428c5f44c9063b9734b4"
          ],
          "data": "0x000000000000000000000000000000000000000000000035a37ee0c12afac14a",
          "blockHash": "0x55a0d2c52c04de2a7488114949212800fcbf9065171a53fd9c6be01e07a82b09",
          "blockNumber": "0x723c77",
          "transactionHash": "0xf8698d1707d98c3e5986a25ef4ff9e63fc06b2e1520e240718aedf357ace4963",
          "transactionIndex": "0x50",
          "logIndex": "0xe0",
          "removed": false
        },
        {
          "address": "0x5eb9cc76c3506942c1c0ead70e877dd5e4f00cb0",
          "topics": [
            "0xddf252ad1be2c89b69c2b068fc378daa952ba7f163c4a11628f55a4df523b3ef",
            "0x0000000000000000000000000000000000000000000000000000000000000000",
            "0x000000000000000000000000c77f7fed3b5cc8249adc428c5f44c9063b9734b4"
          ],
          "data": "0x00000000000000000000000000000000000000000000000029a6f987a6057767",
          "blockHash": "0x55a0d2c52c04de2a7488114949212800fcbf9065171a53fd9c6be01e07a82b09",
          "blockNumber": "0x723c77",
          "transactionHash": "0xf8698d1707d98c3e5986a25ef4ff9e63fc06b2e1520e240718aedf357ace4963",
          "transactionIndex": "0x50",
          "logIndex": "0xe1",
          "removed": false
        },
        {
          "address": "0x5eb9cc76c3506942c1c0ead70e877dd5e4f00cb0",
          "topics": [
            "0x4afcb4a87cdbd9974efdb92ee48bc8d7cd0ae4bf217004db3d080cbaee652ca7"
          ],
          "data": "0x000000000000000000000000000000000000000000000000000000006785c6e800000000000000000000000000000000000000000000000000038dfe1549f0d60000000000000000000000000000000000000000000000000de0b6b3a7640000",
          "blockHash": "0x55a0d2c52c04de2a7488114949212800fcbf9065171a53fd9c6be01e07a82b09",
          "blockNumber": "0x723c77",
          "transactionHash": "0xf8698d1707d98c3e5986a25ef4ff9e63fc06b2e1520e240718aedf357ace4963",
          "transactionIndex": "0x50",
          "logIndex": "0xe2",
          "removed": false
        }
      ],
      "logsBloom": "0x00000000000000000000000000000000000000000000000000000000000000000000000000000000000000000000000000000000000000004000000000000000000000000000000000000008000000000000000000000000000000000000000000000000020000000000000004000800020000000000000000000010000000000000000000000000000000000000000000000000000000000000010000000000000000000000000000000000000000004000000000000000000000000000020000000002000000800000008000000000000000000000080000000000000020000000000000000000000000000000000000000000000000000000000000000000",
      "type": "0x2",
      "transactionHash": "0xf8698d1707d98c3e5986a25ef4ff9e63fc06b2e1520e240718aedf357ace4963",
      "transactionIndex": "0x50",
      "blockHash": "0x55a0d2c52c04de2a7488114949212800fcbf9065171a53fd9c6be01e07a82b09",
      "blockNumber": "0x723c77",
      "gasUsed": "0xf82c",
      "effectiveGasPrice": "0x1aec0ea87",
      "from": "0xc77f7fed3b5cc8249adc428c5f44c9063b9734b4",
      "to": "0x5eb9cc76c3506942c1c0ead70e877dd5e4f00cb0",
      "contractAddress": null
    }
  ],
  "libraries": [],
  "pending": [],
  "returns": {},
  "timestamp": 1736820456,
  "chain": 11155111,
  "commit": "51a374b"
}