{
  "transactions": [
    {
      "hash": "0x85d411697914a1e13dd3b77c6cd65863131fc60f369d784dc55336194a458904",
      "transactionType": "CALL",
      "contractName": null,
      "contractAddress": "0x8aafd3ede9adb0ff97c7aebce82a919afb1c8764",
      "function": "buy(address)",
      "arguments": [
        "0xC77f7fed3b5Cc8249aDc428c5F44C9063B9734b4"
      ],
      "transaction": {
        "from": "0xc77f7fed3b5cc8249adc428c5f44c9063b9734b4",
        "to": "0x8aafd3ede9adb0ff97c7aebce82a919afb1c8764",
        "gas": "0x156ea",
        "value": "0xde0b6b3a7640000",
        "input": "0xf088d547000000000000000000000000c77f7fed3b5cc8249adc428c5f44c9063b9734b4",
        "nonce": "0x1054",
        "chainId": "0xaa36a7"
      },
      "additionalContracts": [],
      "isFixedGasLimit": false
    }
  ],
  "receipts": [
    {
      "status": "0x1",
      "cumulativeGasUsed": "0xa7e807",
      "logs": [
        {
          "address": "0x8aafd3ede9adb0ff97c7aebce82a919afb1c8764",
          "topics": [
            "0xddf252ad1be2c89b69c2b068fc378daa952ba7f163c4a11628f55a4df523b3ef",
            "0x0000000000000000000000000000000000000000000000000000000000000000",
            "0x000000000000000000000000c77f7fed3b5cc8249adc428c5f44c9063b9734b4"
          ],
          "data": "0x0000000000000000000000000000000000000000000000268dfa481fefabe7c3",
          "blockHash": "0x70c75ea35e3c752afe2ca2bcedb2e18e99289fd9e512b3ac8bd530159f59f25d",
          "blockNumber": "0x7316d6",
          "transactionHash": "0x85d411697914a1e13dd3b77c6cd65863131fc60f369d784dc55336194a458904",
          "transactionIndex": "0x67",
          "logIndex": "0x84",
          "removed": false
        },
        {
          "address": "0x8aafd3ede9adb0ff97c7aebce82a919afb1c8764",
          "topics": [
            "0xddf252ad1be2c89b69c2b068fc378daa952ba7f163c4a11628f55a4df523b3ef",
            "0x0000000000000000000000000000000000000000000000000000000000000000",
            "0x000000000000000000000000c77f7fed3b5cc8249adc428c5f44c9063b9734b4"
          ],
          "data": "0x0000000000000000000000000000000000000000000000001df05fd35e5693b3",
          "blockHash": "0x70c75ea35e3c752afe2ca2bcedb2e18e99289fd9e512b3ac8bd530159f59f25d",
          "blockNumber": "0x7316d6",
          "transactionHash": "0x85d411697914a1e13dd3b77c6cd65863131fc60f369d784dc55336194a458904",
          "transactionIndex": "0x67",
          "logIndex": "0x85",
          "removed": false
        },
        {
          "address": "0x8aafd3ede9adb0ff97c7aebce82a919afb1c8764",
          "topics": [
            "0x4afcb4a87cdbd9974efdb92ee48bc8d7cd0ae4bf217004db3d080cbaee652ca7"
          ],
          "data": "0x0000000000000000000000000000000000000000000000000000000067900ec00000000000000000000000000000000000000000000000000004f26d0894f5f50000000000000000000000000000000000000000000000000de0b6b3a7640000",
          "blockHash": "0x70c75ea35e3c752afe2ca2bcedb2e18e99289fd9e512b3ac8bd530159f59f25d",
          "blockNumber": "0x7316d6",
          "transactionHash": "0x85d411697914a1e13dd3b77c6cd65863131fc60f369d784dc55336194a458904",
          "transactionIndex": "0x67",
          "logIndex": "0x86",
          "removed": false
        }
      ],
      "logsBloom": "0x00000000000000000000000000000000000000000600000000000000000000000000000000000000000000000000000000000000000000004000000000000000000000000000004000000008000000000000000000000000000000000000000000000000020000000000000000000800020000000000000000000010000000000000000000000000000000000000000000000000000000000000010000000000000000000000000000000000000000004000000000000000000000000000000000000002000000800000000000000000000000000000080000000000000020000000000000000000000000000000000000000000000000000000000000000000",
      "type": "0x2",
      "transactionHash": "0x85d411697914a1e13dd3b77c6cd65863131fc60f369d784dc55336194a458904",
      "transactionIndex": "0x67",
      "blockHash": "0x70c75ea35e3c752afe2ca2bcedb2e18e99289fd9e512b3ac8bd530159f59f25d",
      "blockNumber": "0x7316d6",
      "gasUsed": "0xf844",
      "effectiveGasPrice": "0x460e3ae6",
      "from": "0xc77f7fed3b5cc8249adc428c5f44c9063b9734b4",
      "to": "0x8aafd3ede9adb0ff97c7aebce82a919afb1c8764",
      "contractAddress": null
    }
  ],
  "libraries": [],
  "pending": [],
  "returns": {},
  "timestamp": 1737494209,
  "chain": 11155111,
  "commit": "1d2fb70"
}