{
  "transactions": [
    {
      "hash": "0xf6c91a08d1dde7bfe6d99027cd90036da27521ff88eb1cfe341529ca19274b10",
      "transactionType": "CALL",
      "contractName": null,
      "contractAddress": "0x270e88f8683660553e8ba4eb2ad7c91a1710d769",
      "function": "sell(uint256)",
      "arguments": [
        "731330073477205158626"
      ],
      "transaction": {
        "from": "0xc77f7fed3b5cc8249adc428c5f44c9063b9734b4",
        "to": "0x270e88f8683660553e8ba4eb2ad7c91a1710d769",
        "gas": "0x16fec",
        "value": "0x0",
        "input": "0xe4849b32000000000000000000000000000000000000000000000027a53e5b1321236ae2",
        "nonce": "0x79e",
        "chainId": "0xaa36a7"
      },
      "additionalContracts": [],
      "isFixedGasLimit": false
    }
  ],
  "receipts": [
    {
      "status": "0x1",
      "cumulativeGasUsed": "0x710844",
      "logs": [
        {
          "address": "0x270e88f8683660553e8ba4eb2ad7c91a1710d769",
          "topics": [
            "0xddf252ad1be2c89b69c2b068fc378daa952ba7f163c4a11628f55a4df523b3ef",
            "0x000000000000000000000000c77f7fed3b5cc8249adc428c5f44c9063b9734b4",
            "0x0000000000000000000000000000000000000000000000000000000000000000"
          ],
          "data": "0x000000000000000000000000000000000000000000000027a53e5b1321236ae2",
          "blockHash": "0xa79e0ed19ec2e263d92886ebd6c4ccf37d76b3fb671a2b28c849358ecb0619c1",
          "blockNumber": "0x7254d1",
          "transactionHash": "0xf6c91a08d1dde7bfe6d99027cd90036da27521ff88eb1cfe341529ca19274b10",
          "transactionIndex": "0x51",
          "logIndex": "0x8a",
          "removed": false
        },
        {
          "address": "0x270e88f8683660553e8ba4eb2ad7c91a1710d769",
          "topics": [
            "0x4afcb4a87cdbd9974efdb92ee48bc8d7cd0ae4bf217004db3d080cbaee652ca7"
          ],
          "data": "0x000000000000000000000000000000000000000000000000000000006786ebd40000000000000000000000000000000000000000000000000004d335688c1da00000000000000000000000000000000000000000000000000dc8279a3cb5c37b",
          "blockHash": "0xa79e0ed19ec2e263d92886ebd6c4ccf37d76b3fb671a2b28c849358ecb0619c1",
          "blockNumber": "0x7254d1",
          "transactionHash": "0xf6c91a08d1dde7bfe6d99027cd90036da27521ff88eb1cfe341529ca19274b10",
          "transactionIndex": "0x51",
          "logIndex": "0x8b",
          "removed": false
        }
      ],
      "logsBloom": "0x00000000000000000000000000000000000000000000000000000000000000000000000000000000000000000000000020000000000000004000000000000000000000000000000000000008000000000000000000000000000000000000000000000000020000000000000000000800020000000000000000000010000000000000000000010000000000000000000000000000000000000000010000000000000000000000000000000000000000004000000000000000000000000000000000000002000000800000000000000000000000000000080000008000000020000000000000000000000000000000000000000000000000000000000000000000",
      "type": "0x2",
      "transactionHash": "0xf6c91a08d1dde7bfe6d99027cd90036da27521ff88eb1cfe341529ca19274b10",
      "transactionIndex": "0x51",
      "blockHash": "0xa79e0ed19ec2e263d92886ebd6c4ccf37d76b3fb671a2b28c849358ecb0619c1",
      "blockNumber": "0x7254d1",
      "gasUsed": "0xfb93",
      "effectiveGasPrice": "0xe4d1638e",
      "from": "0xc77f7fed3b5cc8249adc428c5f44c9063b9734b4",
      "to": "0x270e88f8683660553e8ba4eb2ad7c91a1710d769",
      "contractAddress": null
    }
  ],
  "libraries": [],
  "pending": [],
  "returns": {},
  "timestamp": 1736895446,
  "chain": 11155111,
  "commit": "51a374b"
}