{
  "transactions": [
    {
      "hash": "0xf24782db83b666a9e30b06af50037dadc2388cfca4667be18e30e61411fc72fc",
      "transactionType": "CALL",
      "contractName": null,
      "contractAddress": "0x8aafd3ede9adb0ff97c7aebce82a919afb1c8764",
      "function": "sell(uint256)",
      "arguments": [
        "2139902398144232552"
      ],
      "transaction": {
        "from": "0xc77f7fed3b5cc8249adc428c5f44c9063b9734b4",
        "to": "0x8aafd3ede9adb0ff97c7aebce82a919afb1c8764",
        "gas": "0x15dca",
        "value": "0x0",
        "input": "0xe4849b320000000000000000000000000000000000000000000000001db275e4b764bc68",
        "nonce": "0x13b3",
        "chainId": "0xaa36a7"
      },
      "additionalContracts": [],
      "isFixedGasLimit": false
    }
  ],
  "receipts": [
    {
      "status": "0x1",
      "cumulativeGasUsed": "0x102139a",
      "logs": [
        {
          "address": "0x8aafd3ede9adb0ff97c7aebce82a919afb1c8764",
          "topics": [
            "0xddf252ad1be2c89b69c2b068fc378daa952ba7f163c4a11628f55a4df523b3ef",
            "0x000000000000000000000000c77f7fed3b5cc8249adc428c5f44c9063b9734b4",
            "0x0000000000000000000000000000000000000000000000000000000000000000"
          ],
          "data": "0x0000000000000000000000000000000000000000000000001d75a40de507c524",
          "blockHash": "0x5c74c9581c970a855602a404cd8f66a9badc163dc01adc8664b781d600b6b117",
          "blockNumber": "0x731adb",
          "transactionHash": "0xf24782db83b666a9e30b06af50037dadc2388cfca4667be18e30e61411fc72fc",
          "transactionIndex": "0x98",
          "logIndex": "0xa4",
          "removed": false
        },
        {
          "address": "0x8aafd3ede9adb0ff97c7aebce82a919afb1c8764",
          "topics": [
            "0xddf252ad1be2c89b69c2b068fc378daa952ba7f163c4a11628f55a4df523b3ef",
            "0x000000000000000000000000c77f7fed3b5cc8249adc428c5f44c9063b9734b4",
            "0x000000000000000000000000c77f7fed3b5cc8249adc428c5f44c9063b9734b4"
          ],
          "data": "0x000000000000000000000000000000000000000000000000003cd1d6d25cf744",
          "blockHash": "0x5c74c9581c970a855602a404cd8f66a9badc163dc01adc8664b781d600b6b117",
          "blockNumber": "0x731adb",
          "transactionHash": "0xf24782db83b666a9e30b06af50037dadc2388cfca4667be18e30e61411fc72fc",
          "transactionIndex": "0x98",
          "logIndex": "0xa5",
          "removed": false
        },
        {
          "address": "0x8aafd3ede9adb0ff97c7aebce82a919afb1c8764",
          "topics": [
            "0x4afcb4a87cdbd9974efdb92ee48bc8d7cd0ae4bf217004db3d080cbaee652ca7"
          ],
          "data": "0x0000000000000000000000000000000000000000000000000000000067903f14000000000000000000000000000000000000000000000000000d4a824259edd4000000000000000000000000000000000000000000000000001c70b18b54509d",
          "blockHash": "0x5c74c9581c970a855602a404cd8f66a9badc163dc01adc8664b781d600b6b117",
          "blockNumber": "0x731adb",
          "transactionHash": "0xf24782db83b666a9e30b06af50037dadc2388cfca4667be18e30e61411fc72fc",
          "transactionIndex": "0x98",
          "logIndex": "0xa6",
          "removed": false
        }
      ],
      "logsBloom": "0x00000000000000000000000000000000000000000600000000000000000000000000000000000000000000000000000000000000000000004000000000000000000000000000004000000008000000000000000000000000000000000000000000000000020000000000000000000800020000000000000000000010000000000000000000000000000000000000000000000000000000000000010000000000000000000000000000000000000000004000000000000000000000000000000000000002000000800000000000000000000000000000080000000000000020000000000000000000000000000000000000000000000000000000000000000000",
      "type": "0x2",
      "transactionHash": "0xf24782db83b666a9e30b06af50037dadc2388cfca4667be18e30e61411fc72fc",
      "transactionIndex": "0x98",
      "blockHash": "0x5c74c9581c970a855602a404cd8f66a9badc163dc01adc8664b781d600b6b117",
      "blockNumber": "0x731adb",
      "gasUsed": "0xfd3f",
      "effectiveGasPrice": "0x87125798",
      "from": "0xc77f7fed3b5cc8249adc428c5f44c9063b9734b4",
      "to": "0x8aafd3ede9adb0ff97c7aebce82a919afb1c8764",
      "contractAddress": null
    }
  ],
  "libraries": [],
  "pending": [],
  "returns": {},
  "timestamp": 1737506580,
  "chain": 11155111,
  "commit": "1d2fb70"
}