{
  "transactions": [
    {
      "hash": "0xad4dfe112705626225fad42d95316d9ca0f5969b36497737e276563201f14b0e",
      "transactionType": "CALL",
      "contractName": null,
      "contractAddress": "0x8aafd3ede9adb0ff97c7aebce82a919afb1c8764",
      "function": "buy(address)",
      "arguments": [
        "0xC77f7fed3b5Cc8249aDc428c5F44C9063B9734b4"
      ],
      "transaction": {
        "from": "0xc77f7fed3b5cc8249adc428c5f44c9063b9734b4",
        "to": "0x8aafd3ede9adb0ff97c7aebce82a919afb1c8764",
        "gas": "0x156ea",
        "value": "0xde0b6b3a7640000",
        "input": "0xf088d547000000000000000000000000c77f7fed3b5cc8249adc428c5f44c9063b9734b4",
        "nonce": "0x113a",
        "chainId": "0xaa36a7"
      },
      "additionalContracts": [],
      "isFixedGasLimit": false
    }
  ],
  "receipts": [
    {
      "status": "0x1",
      "cumulativeGasUsed": "0xbbe896",
      "logs": [
        {
          "address": "0x8aafd3ede9adb0ff97c7aebce82a919afb1c8764",
          "topics": [
            "0xddf252ad1be2c89b69c2b068fc378daa952ba7f163c4a11628f55a4df523b3ef",
            "0x0000000000000000000000000000000000000000000000000000000000000000",
            "0x000000000000000000000000c77f7fed3b5cc8249adc428c5f44c9063b9734b4"
          ],
          "data": "0x000000000000000000000000000000000000000000000025903e0a11b77f43c0",
          "blockHash": "0x6ae35367a99f2b6a950415d6f5fdf393498b9148285cb6d291f9a09332b520eb",
          "blockNumber": "0x7317f3",
          "transactionHash": "0xad4dfe112705626225fad42d95316d9ca0f5969b36497737e276563201f14b0e",
          "transactionIndex": "0x7f",
          "logIndex": "0xc1",
          "removed": false
        },
        {
          "address": "0x8aafd3ede9adb0ff97c7aebce82a919afb1c8764",
          "topics": [
            "0xddf252ad1be2c89b69c2b068fc378daa952ba7f163c4a11628f55a4df523b3ef",
            "0x0000000000000000000000000000000000000000000000000000000000000000",
            "0x000000000000000000000000c77f7fed3b5cc8249adc428c5f44c9063b9734b4"
          ],
          "data": "0x0000000000000000000000000000000000000000000000001d2b571678e763af",
          "blockHash": "0x6ae35367a99f2b6a950415d6f5fdf393498b9148285cb6d291f9a09332b520eb",
          "blockNumber": "0x7317f3",
          "transactionHash": "0xad4dfe112705626225fad42d95316d9ca0f5969b36497737e276563201f14b0e",
          "transactionIndex": "0x7f",
          "logIndex": "0xc2",
          "removed": false
        },
        {
          "address": "0x8aafd3ede9adb0ff97c7aebce82a919afb1c8764",
          "topics": [
            "0x4afcb4a87cdbd9974efdb92ee48bc8d7cd0ae4bf217004db3d080cbaee652ca7"
          ],
          "data": "0x0000000000000000000000000000000000000000000000000000000067901c28000000000000000000000000000000000000000000000000000513d4e7ef46700000000000000000000000000000000000000000000000000de0b6b3a7640000",
          "blockHash": "0x6ae35367a99f2b6a950415d6f5fdf393498b9148285cb6d291f9a09332b520eb",
          "blockNumber": "0x7317f3",
          "transactionHash": "0xad4dfe112705626225fad42d95316d9ca0f5969b36497737e276563201f14b0e",
          "transactionIndex": "0x7f",
          "logIndex": "0xc3",
          "removed": false
        }
      ],
      "logsBloom": "0x00000000000000000000000000000000000000000600000000000000000000000000000000000000000000000000000000000000000000004000000000000000000000000000004000000008000000000000000000000000000000000000000000000000020000000000000000000800020000000000000000000010000000000000000000000000000000000000000000000000000000000000010000000000000000000000000000000000000000004000000000000000000000000000000000000002000000800000000000000000000000000000080000000000000020000000000000000000000000000000000000000000000000000000000000000000",
      "type": "0x2",
      "transactionHash": "0xad4dfe112705626225fad42d95316d9ca0f5969b36497737e276563201f14b0e",
      "transactionIndex": "0x7f",
      "blockHash": "0x6ae35367a99f2b6a950415d6f5fdf393498b9148285cb6d291f9a09332b520eb",
      "blockNumber": "0x7317f3",
      "gasUsed": "0xf844",
      "effectiveGasPrice": "0x3ebed2eb",
      "from": "0xc77f7fed3b5cc8249adc428c5f44c9063b9734b4",
      "to": "0x8aafd3ede9adb0ff97c7aebce82a919afb1c8764",
      "contractAddress": null
    }
  ],
  "libraries": [],
  "pending": [],
  "returns": {},
  "timestamp": 1737497642,
  "chain": 11155111,
  "commit": "1d2fb70"
}