{
  "transactions": [
    {
      "hash": "0x4c5429baca7473088a7ca5dbc9bc5d69caa50d2bd530273a06b89ee2a7c7e634",
      "transactionType": "CALL",
      "contractName": null,
      "contractAddress": "0x8aafd3ede9adb0ff97c7aebce82a919afb1c8764",
      "function": "sell(uint256)",
      "arguments": [
        "675878152666"
      ],
      "transaction": {
        "from": "0xc77f7fed3b5cc8249adc428c5f44c9063b9734b4",
        "to": "0x8aafd3ede9adb0ff97c7aebce82a919afb1c8764",
        "gas": "0x1722a",
        "value": "0x0",
        "input": "0xe4849b320000000000000000000000000000000000000000000000000000009d5d7a29da",
        "nonce": "0x167d",
        "chainId": "0xaa36a7"
      },
      "additionalContracts": [],
      "isFixedGasLimit": false
    }
  ],
  "receipts": [
    {
      "status": "0x1",
      "cumulativeGasUsed": "0xf14676",
      "logs": [
        {
          "address": "0x8aafd3ede9adb0ff97c7aebce82a919afb1c8764",
          "topics": [
            "0xddf252ad1be2c89b69c2b068fc378daa952ba7f163c4a11628f55a4df523b3ef",
            "0x000000000000000000000000c77f7fed3b5cc8249adc428c5f44c9063b9734b4",
            "0x0000000000000000000000000000000000000000000000000000000000000000"
          ],
          "data": "0x0000000000000000000000000000000000000000000000000000009c1b318195",
          "blockHash": "0xac4febb13173d168e55843c36761c6edb2404f6b0beb5fa5e586f2933712f3f5",
          "blockNumber": "0x731e2e",
          "transactionHash": "0x4c5429baca7473088a7ca5dbc9bc5d69caa50d2bd530273a06b89ee2a7c7e634",
          "transactionIndex": "0x75",
          "logIndex": "0xe0",
          "removed": false
        },
        {
          "address": "0x8aafd3ede9adb0ff97c7aebce82a919afb1c8764",
          "topics": [
            "0xddf252ad1be2c89b69c2b068fc378daa952ba7f163c4a11628f55a4df523b3ef",
            "0x000000000000000000000000c77f7fed3b5cc8249adc428c5f44c9063b9734b4",
            "0x000000000000000000000000c77f7fed3b5cc8249adc428c5f44c9063b9734b4"
          ],
          "data": "0x000000000000000000000000000000000000000000000000000000014248a845",
          "blockHash": "0xac4febb13173d168e55843c36761c6edb2404f6b0beb5fa5e586f2933712f3f5",
          "blockNumber": "0x731e2e",
          "transactionHash": "0x4c5429baca7473088a7ca5dbc9bc5d69caa50d2bd530273a06b89ee2a7c7e634",
          "transactionIndex": "0x75",
          "logIndex": "0xe1",
          "removed": false
        },
        {
          "address": "0x8aafd3ede9adb0ff97c7aebce82a919afb1c8764",
          "topics": [
            "0x4afcb4a87cdbd9974efdb92ee48bc8d7cd0ae4bf217004db3d080cbaee652ca7"
          ],
          "data": "0x000000000000000000000000000000000000000000000000000000006790671000000000000000000000000000000000000000000000000000157c0e9921a5dd00000000000000000000000000000000000000000000000000000000f39f179f",
          "blockHash": "0xac4febb13173d168e55843c36761c6edb2404f6b0beb5fa5e586f2933712f3f5",
          "blockNumber": "0x731e2e",
          "transactionHash": "0x4c5429baca7473088a7ca5dbc9bc5d69caa50d2bd530273a06b89ee2a7c7e634",
          "transactionIndex": "0x75",
          "logIndex": "0xe2",
          "removed": false
        }
      ],
      "logsBloom": "0x00000000000000000000000000000000000000000600000000000000000000000000000000000000000000000000000000000000000000004000000000000000000000000000004000000008000000000000000000000000000000000000000000000000020000000000000000000800020000000000000000000010000000000000000000000000000000000000000000000000000000000000010000000000000000000000000000000000000000004000000000000000000000000000000000000002000000800000000000000000000000000000080000000000000020000000000000000000000000000000000000000000000000000000000000000000",
      "type": "0x2",
      "transactionHash": "0x4c5429baca7473088a7ca5dbc9bc5d69caa50d2bd530273a06b89ee2a7c7e634",
      "transactionIndex": "0x75",
      "blockHash": "0xac4febb13173d168e55843c36761c6edb2404f6b0beb5fa5e586f2933712f3f5",
      "blockNumber": "0x731e2e",
      "gasUsed": "0xfd1b",
      "effectiveGasPrice": "0x5147e48d",
      "from": "0xc77f7fed3b5cc8249adc428c5f44c9063b9734b4",
      "to": "0x8aafd3ede9adb0ff97c7aebce82a919afb1c8764",
      "contractAddress": null
    }
  ],
  "libraries": [],
  "pending": [],
  "returns": {},
  "timestamp": 1737516818,
  "chain": 11155111,
  "commit": "1d2fb70"
}