{
  "transactions": [
    {
      "hash": "0x1118b4c574a803eedabdd9f5fae83a76e19f26758a081e22d984e80b0dc115bf",
      "transactionType": "CALL",
      "contractName": null,
      "contractAddress": "0x8aafd3ede9adb0ff97c7aebce82a919afb1c8764",
      "function": "sell(uint256)",
      "arguments": [
        "7103328236"
      ],
      "transaction": {
        "from": "0xc77f7fed3b5cc8249adc428c5f44c9063b9734b4",
        "to": "0x8aafd3ede9adb0ff97c7aebce82a919afb1c8764",
        "gas": "0x1722a",
        "value": "0x0",
        "input": "0xe4849b3200000000000000000000000000000000000000000000000000000001a7642fec",
        "nonce": "0x14c5",
        "chainId": "0xaa36a7"
      },
      "additionalContracts": [],
      "isFixedGasLimit": false
    }
  ],
  "receipts": [
    {
      "status": "0x1",
      "cumulativeGasUsed": "0x1916750",
      "logs": [
        {
          "address": "0x8aafd3ede9adb0ff97c7aebce82a919afb1c8764",
          "topics": [
            "0xddf252ad1be2c89b69c2b068fc378daa952ba7f163c4a11628f55a4df523b3ef",
            "0x000000000000000000000000c77f7fed3b5cc8249adc428c5f44c9063b9734b4",
            "0x0000000000000000000000000000000000000000000000000000000000000000"
          ],
          "data": "0x00000000000000000000000000000000000000000000000000000001a40114eb",
          "blockHash": "0xf04ed235064e8cf466f4699b7ec31044f8d99010dd532f00954cc8cdde879208",
          "blockNumber": "0x731c23",
          "transactionHash": "0x1118b4c574a803eedabdd9f5fae83a76e19f26758a081e22d984e80b0dc115bf",
          "transactionIndex": "0xe4",
          "logIndex": "0x14f",
          "removed": false
        },
        {
          "address": "0x8aafd3ede9adb0ff97c7aebce82a919afb1c8764",
          "topics": [
            "0xddf252ad1be2c89b69c2b068fc378daa952ba7f163c4a11628f55a4df523b3ef",
            "0x000000000000000000000000c77f7fed3b5cc8249adc428c5f44c9063b9734b4",
            "0x000000000000000000000000c77f7fed3b5cc8249adc428c5f44c9063b9734b4"
          ],
          "data": "0x0000000000000000000000000000000000000000000000000000000003631b01",
          "blockHash": "0xf04ed235064e8cf466f4699b7ec31044f8d99010dd532f00954cc8cdde879208",
          "blockNumber": "0x731c23",
          "transactionHash": "0x1118b4c574a803eedabdd9f5fae83a76e19f26758a081e22d984e80b0dc115bf",
          "transactionIndex": "0xe4",
          "logIndex": "0x150",
          "removed": false
        },
        {
          "address": "0x8aafd3ede9adb0ff97c7aebce82a919afb1c8764",
          "topics": [
            "0x4afcb4a87cdbd9974efdb92ee48bc8d7cd0ae4bf217004db3d080cbaee652ca7"
          ],
          "data": "0x0000000000000000000000000000000000000000000000000000000067904e80000000000000000000000000000000000000000000000000001060ac0617a9360000000000000000000000000000000000000000000000000000000001f3a865",
          "blockHash": "0xf04ed235064e8cf466f4699b7ec31044f8d99010dd532f00954cc8cdde879208",
          "blockNumber": "0x731c23",
          "transactionHash": "0x1118b4c574a803eedabdd9f5fae83a76e19f26758a081e22d984e80b0dc115bf",
          "transactionIndex": "0xe4",
          "logIndex": "0x151",
          "removed": false
        }
      ],
      "logsBloom": "0x00000000000000000000000000000000000000000600000000000000000000000000000000000000000000000000000000000000000000004000000000000000000000000000004000000008000000000000000000000000000000000000000000000000020000000000000000000800020000000000000000000010000000000000000000000000000000000000000000000000000000000000010000000000000000000000000000000000000000004000000000000000000000000000000000000002000000800000000000000000000000000000080000000000000020000000000000000000000000000000000000000000000000000000000000000000",
      "type": "0x2",
      "transactionHash": "0x1118b4c574a803eedabdd9f5fae83a76e19f26758a081e22d984e80b0dc115bf",
      "transactionIndex": "0xe4",
      "blockHash": "0xf04ed235064e8cf466f4699b7ec31044f8d99010dd532f00954cc8cdde879208",
      "blockNumber": "0x731c23",
      "gasUsed": "0xfd1b",
      "effectiveGasPrice": "0xff492ad4",
      "from": "0xc77f7fed3b5cc8249adc428c5f44c9063b9734b4",
      "to": "0x8aafd3ede9adb0ff97c7aebce82a919afb1c8764",
      "contractAddress": null
    }
  ],
  "libraries": [],
  "pending": [],
  "returns": {},
  "timestamp": 1737510529,
  "chain": 11155111,
  "commit": "1d2fb70"
}