{
  "transactions": [
    {
      "hash": "0xf6d4b48ee9ca3bb272587437496afb332cb07b9e966fe7d788df60ce64f3a834",
      "transactionType": "CALL",
      "contractName": null,
      "contractAddress": "0x8aafd3ede9adb0ff97c7aebce82a919afb1c8764",
      "function": "sell(uint256)",
      "arguments": [
        "569787"
      ],
      "transaction": {
        "from": "0xc77f7fed3b5cc8249adc428c5f44c9063b9734b4",
        "to": "0x8aafd3ede9adb0ff97c7aebce82a919afb1c8764",
        "gas": "0x16208",
        "value": "0x0",
        "input": "0xe4849b32000000000000000000000000000000000000000000000000000000000008b1bb",
        "nonce": "0x13a7",
        "chainId": "0xaa36a7"
      },
      "additionalContracts": [],
      "isFixedGasLimit": false
    }
  ],
  "receipts": [
    {
      "status": "0x1",
      "cumulativeGasUsed": "0xfceae1",
      "logs": [
        {
          "address": "0x8aafd3ede9adb0ff97c7aebce82a919afb1c8764",
          "topics": [
            "0xddf252ad1be2c89b69c2b068fc378daa952ba7f163c4a11628f55a4df523b3ef",
            "0x000000000000000000000000c77f7fed3b5cc8249adc428c5f44c9063b9734b4",
            "0x0000000000000000000000000000000000000000000000000000000000000000"
          ],
          "data": "0x0000000000000000000000000000000000000000000000000000000000089fed",
          "blockHash": "0xac5dbe898b6c863fa9a95e87a0440788e0730056b6e98ef0d023f7a67ae0d7e2",
          "blockNumber": "0x731acd",
          "transactionHash": "0xf6d4b48ee9ca3bb272587437496afb332cb07b9e966fe7d788df60ce64f3a834",
          "transactionIndex": "0x8a",
          "logIndex": "0xa5",
          "removed": false
        },
        {
          "address": "0x8aafd3ede9adb0ff97c7aebce82a919afb1c8764",
          "topics": [
            "0xddf252ad1be2c89b69c2b068fc378daa952ba7f163c4a11628f55a4df523b3ef",
            "0x000000000000000000000000c77f7fed3b5cc8249adc428c5f44c9063b9734b4",
            "0x000000000000000000000000c77f7fed3b5cc8249adc428c5f44c9063b9734b4"
          ],
          "data": "0x00000000000000000000000000000000000000000000000000000000000011ce",
          "blockHash": "0xac5dbe898b6c863fa9a95e87a0440788e0730056b6e98ef0d023f7a67ae0d7e2",
          "blockNumber": "0x731acd",
          "transactionHash": "0xf6d4b48ee9ca3bb272587437496afb332cb07b9e966fe7d788df60ce64f3a834",
          "transactionIndex": "0x8a",
          "logIndex": "0xa6",
          "removed": false
        },
        {
          "address": "0x8aafd3ede9adb0ff97c7aebce82a919afb1c8764",
          "topics": [
            "0x4afcb4a87cdbd9974efdb92ee48bc8d7cd0ae4bf217004db3d080cbaee652ca7"
          ],
          "data": "0x0000000000000000000000000000000000000000000000000000000067903e6c000000000000000000000000000000000000000000000000000d16310237ec020000000000000000000000000000000000000000000000000000000000000832",
          "blockHash": "0xac5dbe898b6c863fa9a95e87a0440788e0730056b6e98ef0d023f7a67ae0d7e2",
          "blockNumber": "0x731acd",
          "transactionHash": "0xf6d4b48ee9ca3bb272587437496afb332cb07b9e966fe7d788df60ce64f3a834",
          "transactionIndex": "0x8a",
          "logIndex": "0xa7",
          "removed": false
        }
      ],
      "logsBloom": "0x00000000000000000000000000000000000000000600000000000000000000000000000000000000000000000000000000000000000000004000000000000000000000000000004000000008000000000000000000000000000000000000000000000000020000000000000000000800020000000000000000000010000000000000000000000000000000000000000000000000000000000000010000000000000000000000000000000000000000004000000000000000000000000000000000000002000000800000000000000000000000000000080000000000000020000000000000000000000000000000000000000000000000000000000000000000",
      "type": "0x2",
      "transactionHash": "0xf6d4b48ee9ca3bb272587437496afb332cb07b9e966fe7d788df60ce64f3a834",
      "transactionIndex": "0x8a",
      "blockHash": "0xac5dbe898b6c863fa9a95e87a0440788e0730056b6e98ef0d023f7a67ae0d7e2",
      "blockNumber": "0x731acd",
      "gasUsed": "0xf213",
      "effectiveGasPrice": "0x85076271",
      "from": "0xc77f7fed3b5cc8249adc428c5f44c9063b9734b4",
      "to": "0x8aafd3ede9adb0ff97c7aebce82a919afb1c8764",
      "contractAddress": null
    }
  ],
  "libraries": [],
  "pending": [],
  "returns": {},
  "timestamp": 1737506413,
  "chain": 11155111,
  "commit": "1d2fb70"
}