{
  "transactions": [
    {
      "hash": "0xbe1b35de882f5110de3435b39bb73cde123579958f503e32ed9cc8f57a7d435c",
      "transactionType": "CALL",
      "contractName": null,
      "contractAddress": "0xbf4a322f1496e5c3d34a9bcdb4c60567b38c7de2",
      "function": "sell(uint256)",
      "arguments": [
        "988900617378275333121"
      ],
      "transaction": {
        "from": "0xc77f7fed3b5cc8249adc428c5f44c9063b9734b4",
        "to": "0xbf4a322f1496e5c3d34a9bcdb4c60567b38c7de2",
        "gas": "0x16fea",
        "value": "0x0",
        "input": "0xe4849b320000000000000000000000000000000000000000000000359bc0c015e4951401",
        "nonce": "0x987",
        "chainId": "0xaa36a7"
      },
      "additionalContracts": [],
      "isFixedGasLimit": false
    }
  ],
  "receipts": [
    {
      "status": "0x1",
      "cumulativeGasUsed": "0x153749c",
      "logs": [
        {
          "address": "0xbf4a322f1496e5c3d34a9bcdb4c60567b38c7de2",
          "topics": [
            "0xddf252ad1be2c89b69c2b068fc378daa952ba7f163c4a11628f55a4df523b3ef",
            "0x000000000000000000000000c77f7fed3b5cc8249adc428c5f44c9063b9734b4",
            "0x0000000000000000000000000000000000000000000000000000000000000000"
          ],
          "data": "0x0000000000000000000000000000000000000000000000359bc0c015e4951401",
          "blockHash": "0x0909c473aeec4d36da9e31e643a8326099d544c17b47db3e5fb8336e593c4561",
          "blockNumber": "0x725927",
          "transactionHash": "0xbe1b35de882f5110de3435b39bb73cde123579958f503e32ed9cc8f57a7d435c",
          "transactionIndex": "0xbd",
          "logIndex": "0xca",
          "removed": false
        },
        {
          "address": "0xbf4a322f1496e5c3d34a9bcdb4c60567b38c7de2",
          "topics": [
            "0x4afcb4a87cdbd9974efdb92ee48bc8d7cd0ae4bf217004db3d080cbaee652ca7"
          ],
          "data": "0x00000000000000000000000000000000000000000000000000000000678720000000000000000000000000000000000000000000000000000003914afd686b7d0000000000000000000000000000000000000000000000000dc7e3f6c2a16028",
          "blockHash": "0x0909c473aeec4d36da9e31e643a8326099d544c17b47db3e5fb8336e593c4561",
          "blockNumber": "0x725927",
          "transactionHash": "0xbe1b35de882f5110de3435b39bb73cde123579958f503e32ed9cc8f57a7d435c",
          "transactionIndex": "0xbd",
          "logIndex": "0xcb",
          "removed": false
        }
      ],
      "logsBloom": "0x00000000000000000000000000000000000000000000000000000000000000000000000000000000000000000000000000000000000000004000000000000000000000000000000000000008000000000000001000000000000000000000000000000000020000000000000000000800020000000000000000000010000000000000000000000000000000000000000000000000000008000000010000000000000000000000000000000000000000004000000000000000000000000000000000000002000000800000000000001000000000000000080000000000000020000000000000000000000000000000000000000000000000000000000000000000",
      "type": "0x2",
      "transactionHash": "0xbe1b35de882f5110de3435b39bb73cde123579958f503e32ed9cc8f57a7d435c",
      "transactionIndex": "0xbd",
      "blockHash": "0x0909c473aeec4d36da9e31e643a8326099d544c17b47db3e5fb8336e593c4561",
      "blockNumber": "0x725927",
      "gasUsed": "0xfb91",
      "effectiveGasPrice": "0xc357609d",
      "from": "0xc77f7fed3b5cc8249adc428c5f44c9063b9734b4",
      "to": "0xbf4a322f1496e5c3d34a9bcdb4c60567b38c7de2",
      "contractAddress": null
    }
  ],
  "libraries": [],
  "pending": [],
  "returns": {},
  "timestamp": 1736908802,
  "chain": 11155111,
  "commit": "51a374b"
}