{
  "transactions": [
    {
      "hash": "0x7d490e747da35f590c9ae7ffe35ba7f8ee070eea6e93d3758d27a5924677f5dd",
      "transactionType": "CALL",
      "contractName": null,
      "contractAddress": "0x8aafd3ede9adb0ff97c7aebce82a919afb1c8764",
      "function": "sell(uint256)",
      "arguments": [
        "336151"
      ],
      "transaction": {
        "from": "0xc77f7fed3b5cc8249adc428c5f44c9063b9734b4",
        "to": "0x8aafd3ede9adb0ff97c7aebce82a919afb1c8764",
        "gas": "0x16208",
        "value": "0x0",
        "input": "0xe4849b320000000000000000000000000000000000000000000000000000000000052117",
        "nonce": "0x16b6",
        "chainId": "0xaa36a7"
      },
      "additionalContracts": [],
      "isFixedGasLimit": false
    }
  ],
  "receipts": [
    {
      "status": "0x1",
      "cumulativeGasUsed": "0x10b0486",
      "logs": [
        {
          "address": "0x8aafd3ede9adb0ff97c7aebce82a919afb1c8764",
          "topics": [
            "0xddf252ad1be2c89b69c2b068fc378daa952ba7f163c4a11628f55a4df523b3ef",
            "0x000000000000000000000000c77f7fed3b5cc8249adc428c5f44c9063b9734b4",
            "0x0000000000000000000000000000000000000000000000000000000000000000"
          ],
          "data": "0x0000000000000000000000000000000000000000000000000000000000051696",
          "blockHash": "0x23fe3f686d85f826abe44182f07cf707a06eeec0e924db86c8d220ac71e91120",
          "blockNumber": "0x731e6f",
          "transactionHash": "0x7d490e747da35f590c9ae7ffe35ba7f8ee070eea6e93d3758d27a5924677f5dd",
          "transactionIndex": "0x7e",
          "logIndex": "0xca",
          "removed": false
        },
        {
          "address": "0x8aafd3ede9adb0ff97c7aebce82a919afb1c8764",
          "topics": [
            "0xddf252ad1be2c89b69c2b068fc378daa952ba7f163c4a11628f55a4df523b3ef",
            "0x000000000000000000000000c77f7fed3b5cc8249adc428c5f44c9063b9734b4",
            "0x000000000000000000000000c77f7fed3b5cc8249adc428c5f44c9063b9734b4"
          ],
          "data": "0x0000000000000000000000000000000000000000000000000000000000000a81",
          "blockHash": "0x23fe3f686d85f826abe44182f07cf707a06eeec0e924db86c8d220ac71e91120",
          "blockNumber": "0x731e6f",
          "transactionHash": "0x7d490e747da35f590c9ae7ffe35ba7f8ee070eea6e93d3758d27a5924677f5dd",
          "transactionIndex": "0x7e",
          "logIndex": "0xcb",
          "removed": false
        },
        {
          "address": "0x8aafd3ede9adb0ff97c7aebce82a919afb1c8764",
          "topics": [
            "0x4afcb4a87cdbd9974efdb92ee48bc8d7cd0ae4bf217004db3d080cbaee652ca7"
          ],
          "data": "0x0000000000000000000000000000000000000000000000000000000067906a1c00000000000000000000000000000000000000000000000000161d3fd5b13db9000000000000000000000000000000000000000000000000000000000000082c",
          "blockHash": "0x23fe3f686d85f826abe44182f07cf707a06eeec0e924db86c8d220ac71e91120",
          "blockNumber": "0x731e6f",
          "transactionHash": "0x7d490e747da35f590c9ae7ffe35ba7f8ee070eea6e93d3758d27a5924677f5dd",
          "transactionIndex": "0x7e",
          "logIndex": "0xcc",
          "removed": false
        }
      ],
      "logsBloom": "0x00000000000000000000000000000000000000000600000000000000000000000000000000000000000000000000000000000000000000004000000000000000000000000000004000000008000000000000000000000000000000000000000000000000020000000000000000000800020000000000000000000010000000000000000000000000000000000000000000000000000000000000010000000000000000000000000000000000000000004000000000000000000000000000000000000002000000800000000000000000000000000000080000000000000020000000000000000000000000000000000000000000000000000000000000000000",
      "type": "0x2",
      "transactionHash": "0x7d490e747da35f590c9ae7ffe35ba7f8ee070eea6e93d3758d27a5924677f5dd",
      "transactionIndex": "0x7e",
      "blockHash": "0x23fe3f686d85f826abe44182f07cf707a06eeec0e924db86c8d220ac71e91120",
      "blockNumber": "0x731e6f",
      "gasUsed": "0xf213",
      "effectiveGasPrice": "0x45a64a0c",
      "from": "0xc77f7fed3b5cc8249adc428c5f44c9063b9734b4",
      "to": "0x8aafd3ede9adb0ff97c7aebce82a919afb1c8764",
      "contractAddress": null
    }
  ],
  "libraries": [],
  "pending": [],
  "returns": {},
  "timestamp": 1737517598,
  "chain": 11155111,
  "commit": "1d2fb70"
}