{
  "transactions": [
    {
      "hash": "0xc7ced5e80dcbe8b6757c54d2678179a180dfe1816ada32a4e06002ff81cf3d14",
      "transactionType": "CALL",
      "contractName": null,
      "contractAddress": "0x270e88f8683660553e8ba4eb2ad7c91a1710d769",
      "function": "sell(uint256)",
      "arguments": [
        "824807074578376606486"
      ],
      "transaction": {
        "from": "0xc77f7fed3b5cc8249adc428c5f44c9063b9734b4",
        "to": "0x270e88f8683660553e8ba4eb2ad7c91a1710d769",
        "gas": "0x16fec",
        "value": "0x0",
        "input": "0xe4849b3200000000000000000000000000000000000000000000002cb67f60505942c316",
        "nonce": "0x645",
        "chainId": "0xaa36a7"
      },
      "additionalContracts": [],
      "isFixedGasLimit": false
    }
  ],
  "receipts": [
    {
      "status": "0x1",
      "cumulativeGasUsed": "0xae1439",
      "logs": [
        {
          "address": "0x270e88f8683660553e8ba4eb2ad7c91a1710d769",
          "topics": [
            "0xddf252ad1be2c89b69c2b068fc378daa952ba7f163c4a11628f55a4df523b3ef",
            "0x000000000000000000000000c77f7fed3b5cc8249adc428c5f44c9063b9734b4",
            "0x0000000000000000000000000000000000000000000000000000000000000000"
          ],
          "data": "0x00000000000000000000000000000000000000000000002cb67f60505942c316",
          "blockHash": "0x27c88bd3f209a880d96a4c79f2f0540dccf5a03317d25ea590f75f0b222d60b5",
          "blockNumber": "0x72532e",
          "transactionHash": "0xc7ced5e80dcbe8b6757c54d2678179a180dfe1816ada32a4e06002ff81cf3d14",
          "transactionIndex": "0x59",
          "logIndex": "0xab",
          "removed": false
        },
        {
          "address": "0x270e88f8683660553e8ba4eb2ad7c91a1710d769",
          "topics": [
            "0x4afcb4a87cdbd9974efdb92ee48bc8d7cd0ae4bf217004db3d080cbaee652ca7"
          ],
          "data": "0x000000000000000000000000000000000000000000000000000000006786d830000000000000000000000000000000000000000000000000000446fb000668000000000000000000000000000000000000000000000000000dc7e0f992d5452a",
          "blockHash": "0x27c88bd3f209a880d96a4c79f2f0540dccf5a03317d25ea590f75f0b222d60b5",
          "blockNumber": "0x72532e",
          "transactionHash": "0xc7ced5e80dcbe8b6757c54d2678179a180dfe1816ada32a4e06002ff81cf3d14",
          "transactionIndex": "0x59",
          "logIndex": "0xac",
          "removed": false
        }
      ],
      "logsBloom": "0x00000000000000000000000000000000000000000000000000000000000000000000000000000000000000000000000020000000000000004000000000000000000000000000000000000008000000000000000000000000000000000000000000000000020000000000000000000800020000000000000000000010000000000000000000010000000000000000000000000000000000000000010000000000000000000000000000000000000000004000000000000000000000000000000000000002000000800000000000000000000000000000080000008000000020000000000000000000000000000000000000000000000000000000000000000000",
      "type": "0x2",
      "transactionHash": "0xc7ced5e80dcbe8b6757c54d2678179a180dfe1816ada32a4e06002ff81cf3d14",
      "transactionIndex": "0x59",
      "blockHash": "0x27c88bd3f209a880d96a4c79f2f0540dccf5a03317d25ea590f75f0b222d60b5",
      "blockNumber": "0x72532e",
      "gasUsed": "0xfb93",
      "effectiveGasPrice": "0x1e4fafbf1",
      "from": "0xc77f7fed3b5cc8249adc428c5f44c9063b9734b4",
      "to": "0x270e88f8683660553e8ba4eb2ad7c91a1710d769",
      "contractAddress": null
    }
  ],
  "libraries": [],
  "pending": [],
  "returns": {},
  "timestamp": 1736890417,
  "chain": 11155111,
  "commit": "51a374b"
}