{
  "transactions": [
    {
      "hash": "0x41f9bd00bc212490502813a22552455f462c5632727e02fd75a0a07861d1ba0a",
      "transactionType": "CALL",
      "contractName": null,
      "contractAddress": "0xbf4a322f1496e5c3d34a9bcdb4c60567b38c7de2",
      "function": "buy(address)",
      "arguments": [
        "0xC77f7fed3b5Cc8249aDc428c5F44C9063B9734b4"
      ],
      "transaction": {
        "from": "0xc77f7fed3b5cc8249adc428c5f44c9063b9734b4",
        "to": "0xbf4a322f1496e5c3d34a9bcdb4c60567b38c7de2",
        "gas": "0x1b309",
        "value": "0xde0b6b3a7640000",
        "input": "0xf088d547000000000000000000000000c77f7fed3b5cc8249adc428c5f44c9063b9734b4",
        "nonce": "0xd88",
        "chainId": "0xaa36a7"
      },
      "additionalContracts": [],
      "isFixedGasLimit": false
    }
  ],
  "receipts": [
    {
      "status": "0x1",
      "cumulativeGasUsed": "0xecf7cb",
      "logs": [
        {
          "address": "0xbf4a322f1496e5c3d34a9bcdb4c60567b38c7de2",
          "topics": [
            "0xddf252ad1be2c89b69c2b068fc378daa952ba7f163c4a11628f55a4df523b3ef",
            "0x0000000000000000000000000000000000000000000000000000000000000000",
            "0x000000000000000000000000c77f7fed3b5cc8249adc428c5f44c9063b9734b4"
          ],
          "data": "0x000000000000000000000000000000000000000000000034b2e3b211bb828150",
          "blockHash": "0x21e4cfc680f1bbbe469da076c74281be29997f2780e57e44a6e137466c0d8cd6",
          "blockNumber": "0x72665a",
          "transactionHash": "0x41f9bd00bc212490502813a22552455f462c5632727e02fd75a0a07861d1ba0a",
          "transactionIndex": "0x74",
          "logIndex": "0xec",
          "removed": false
        },
        {
          "address": "0xbf4a322f1496e5c3d34a9bcdb4c60567b38c7de2",
          "topics": [
            "0xddf252ad1be2c89b69c2b068fc378daa952ba7f163c4a11628f55a4df523b3ef",
            "0x0000000000000000000000000000000000000000000000000000000000000000",
            "0x000000000000000000000000c77f7fed3b5cc8249adc428c5f44c9063b9734b4"
          ],
          "data": "0x00000000000000000000000000000000000000000000000028ec22c50f7c6a87",
          "blockHash": "0x21e4cfc680f1bbbe469da076c74281be29997f2780e57e44a6e137466c0d8cd6",
          "blockNumber": "0x72665a",
          "transactionHash": "0x41f9bd00bc212490502813a22552455f462c5632727e02fd75a0a07861d1ba0a",
          "transactionIndex": "0x74",
          "logIndex": "0xed",
          "removed": false
        },
        {
          "address": "0xbf4a322f1496e5c3d34a9bcdb4c60567b38c7de2",
          "topics": [
            "0x4afcb4a87cdbd9974efdb92ee48bc8d7cd0ae4bf217004db3d080cbaee652ca7"
          ],
          "data": "0x000000000000000000000000000000000000000000000000000000006787bee800000000000000000000000000000000000000000000000000039e3b200572380000000000000000000000000000000000000000000000000de0b6b3a7640000",
          "blockHash": "0x21e4cfc680f1bbbe469da076c74281be29997f2780e57e44a6e137466c0d8cd6",
          "blockNumber": "0x72665a",
          "transactionHash": "0x41f9bd00bc212490502813a22552455f462c5632727e02fd75a0a07861d1ba0a",
          "transactionIndex": "0x74",
          "logIndex": "0xee",
          "removed": false
        }
      ],
      "logsBloom": "0x00000000000000000000000000000000000000000000000000000000000000000000000000000000000000000000000000000000000000004000000000000000000000000000000000000008000000000000001000000000000000000000000000000000020000000000000000000800020000000000000000000010000000000000000000000000000000000000000000000000000008000000010000000000000000000000000000000000000000004000000000000000000000000000000000000002000000800000000000001000000000000000080000000000000020000000000000000000000000000000000000000000000000000000000000000000",
      "type": "0x2",
      "transactionHash": "0x41f9bd00bc212490502813a22552455f462c5632727e02fd75a0a07861d1ba0a",
      "transactionIndex": "0x74",
      "blockHash": "0x21e4cfc680f1bbbe469da076c74281be29997f2780e57e44a6e137466c0d8cd6",
      "blockNumber": "0x72665a",
      "gasUsed": "0x13af6",
      "effectiveGasPrice": "0x8f164d04",
      "from": "0xc77f7fed3b5cc8249adc428c5f44c9063b9734b4",
      "to": "0xbf4a322f1496e5c3d34a9bcdb4c60567b38c7de2",
      "contractAddress": null
    }
  ],
  "libraries": [],
  "pending": [],
  "returns": {},
  "timestamp": 1736949481,
  "chain": 11155111,
  "commit": "51a374b"
}