{
  "transactions": [
    {
      "hash": "0xf8ff9b591437cfd6b70b75e2281f28246be034c5265c17696570516804e72745",
      "transactionType": "CALL",
      "contractName": null,
      "contractAddress": "0x5eb9cc76c3506942c1c0ead70e877dd5e4f00cb0",
      "function": "buy(address)",
      "arguments": [
        "0xC77f7fed3b5Cc8249aDc428c5F44C9063B9734b4"
      ],
      "transaction": {
        "from": "0xc77f7fed3b5cc8249adc428c5f44c9063b9734b4",
        "to": "0x5eb9cc76c3506942c1c0ead70e877dd5e4f00cb0",
        "gas": "0x1b30c",
        "value": "0xde0b6b3a7640000",
        "input": "0xf088d547000000000000000000000000c77f7fed3b5cc8249adc428c5f44c9063b9734b4",
        "nonce": "0x464",
        "chainId": "0xaa36a7"
      },
      "additionalContracts": [],
      "isFixedGasLimit": false
    }
  ],
  "receipts": [
    {
      "status": "0x1",
      "cumulativeGasUsed": "0x93da70",
      "logs": [
        {
          "address": "0x5eb9cc76c3506942c1c0ead70e877dd5e4f00cb0",
          "topics": [
            "0xddf252ad1be2c89b69c2b068fc378daa952ba7f163c4a11628f55a4df523b3ef",
            "0x0000000000000000000000000000000000000000000000000000000000000000",
            "0x000000000000000000000000c77f7fed3b5cc8249adc428c5f44c9063b9734b4"
          ],
          "data": "0x00000000000000000000000000000000000000000000003574c9c761d43e2fbb",
          "blockHash": "0x8e410ec00b22a920331c4508a0cb8e5cb6f37cfa6e5a02ec9add9049e01a7682",
          "blockNumber": "0x72508a",
          "transactionHash": "0xf8ff9b591437cfd6b70b75e2281f28246be034c5265c17696570516804e72745",
          "transactionIndex": "0x64",
          "logIndex": "0x81",
          "removed": false
        },
        {
          "address": "0x5eb9cc76c3506942c1c0ead70e877dd5e4f00cb0",
          "topics": [
            "0xddf252ad1be2c89b69c2b068fc378daa952ba7f163c4a11628f55a4df523b3ef",
            "0x0000000000000000000000000000000000000000000000000000000000000000",
            "0x000000000000000000000000c77f7fed3b5cc8249adc428c5f44c9063b9734b4"
          ],
          "data": "0x0000000000000000000000000000000000000000000000002982b46f3f792242",
          "blockHash": "0x8e410ec00b22a920331c4508a0cb8e5cb6f37cfa6e5a02ec9add9049e01a7682",
          "blockNumber": "0x72508a",
          "transactionHash": "0xf8ff9b591437cfd6b70b75e2281f28246be034c5265c17696570516804e72745",
          "transactionIndex": "0x64",
          "logIndex": "0x82",
          "removed": false
        },
        {
          "address": "0x5eb9cc76c3506942c1c0ead70e877dd5e4f00cb0",
          "topics": [
            "0x4afcb4a87cdbd9974efdb92ee48bc8d7cd0ae4bf217004db3d080cbaee652ca7"
          ],
          "data": "0x000000000000000000000000000000000000000000000000000000006786b8440000000000000000000000000000000000000000000000000003911930a78fca0000000000000000000000000000000000000000000000000de0b6b3a7640000",
          "blockHash": "0x8e410ec00b22a920331c4508a0cb8e5cb6f37cfa6e5a02ec9add9049e01a7682",
          "blockNumber": "0x72508a",
          "transactionHash": "0xf8ff9b591437cfd6b70b75e2281f28246be034c5265c17696570516804e72745",
          "transactionIndex": "0x64",
          "logIndex": "0x83",
          "removed": false
        }
      ],
      "logsBloom": "0x00000000000000000000000000000000000000000000000000000000000000000000000000000000000000000000000000000000000000004000000000000000000000000000000000000008000000000000000000000000000000000000000000000000020000000000000004000800020000000000000000000010000000000000000000000000000000000000000000000000000000000000010000000000000000000000000000000000000000004000000000000000000000000000020000000002000000800000008000000000000000000000080000000000000020000000000000000000000000000000000000000000000000000000000000000000",
      "type": "0x2",
      "transactionHash": "0xf8ff9b591437cfd6b70b75e2281f28246be034c5265c17696570516804e72745",
      "transactionIndex": "0x64",
      "blockHash": "0x8e410ec00b22a920331c4508a0cb8e5cb6f37cfa6e5a02ec9add9049e01a7682",
      "blockNumber": "0x72508a",
      "gasUsed": "0x13af8",
      "effectiveGasPrice": "0x1cb058e47",
      "from": "0xc77f7fed3b5cc8249adc428c5f44c9063b9734b4",
      "to": "0x5eb9cc76c3506942c1c0ead70e877dd5e4f00cb0",
      "contractAddress": null
    }
  ],
  "libraries": [],
  "pending": [],
  "returns": {},
  "timestamp": 1736882245,
  "chain": 11155111,
  "commit": "51a374b"
}