{
  "transactions": [
    {
      "hash": "0x42ff593c4b94f2d30c899ae8cef4fa32264bba7321ee5b29c9fcc3897c5761c9",
      "transactionType": "CALL",
      "contractName": null,
      "contractAddress": "0x5eb9cc76c3506942c1c0ead70e877dd5e4f00cb0",
      "function": "sell(uint256)",
      "arguments": [
        "989614323314284592797"
      ],
      "transaction": {
        "from": "0xc77f7fed3b5cc8249adc428c5f44c9063b9734b4",
        "to": "0x5eb9cc76c3506942c1c0ead70e877dd5e4f00cb0",
        "gas": "0x16fec",
        "value": "0x0",
        "input": "0xe4849b32000000000000000000000000000000000000000000000035a5a857da5a807e9d",
        "nonce": "0x255",
        "chainId": "0xaa36a7"
      },
      "additionalContracts": [],
      "isFixedGasLimit": false
    }
  ],
  "receipts": [
    {
      "status": "0x1",
      "cumulativeGasUsed": "0xa2358b",
      "logs": [
        {
          "address": "0x5eb9cc76c3506942c1c0ead70e877dd5e4f00cb0",
          "topics": [
            "0xddf252ad1be2c89b69c2b068fc378daa952ba7f163c4a11628f55a4df523b3ef",
            "0x000000000000000000000000c77f7fed3b5cc8249adc428c5f44c9063b9734b4",
            "0x0000000000000000000000000000000000000000000000000000000000000000"
          ],
          "data": "0x000000000000000000000000000000000000000000000035a5a857da5a807e9d",
          "blockHash": "0x61af2a6d70db09dc78f1f28c4c23a85c740129bc711a5232bdf517d0a7d547ac",
          "blockNumber": "0x724e10",
          "transactionHash": "0x42ff593c4b94f2d30c899ae8cef4fa32264bba7321ee5b29c9fcc3897c5761c9",
          "transactionIndex": "0x79",
          "logIndex": "0xb1",
          "removed": false
        },
        {
          "address": "0x5eb9cc76c3506942c1c0ead70e877dd5e4f00cb0",
          "topics": [
            "0x4afcb4a87cdbd9974efdb92ee48bc8d7cd0ae4bf217004db3d080cbaee652ca7"
          ],
          "data": "0x0000000000000000000000000000000000000000000000000000000067869a740000000000000000000000000000000000000000000000000003909bfb9d35130000000000000000000000000000000000000000000000000dc7db118379ac8c",
          "blockHash": "0x61af2a6d70db09dc78f1f28c4c23a85c740129bc711a5232bdf517d0a7d547ac",
          "blockNumber": "0x724e10",
          "transactionHash": "0x42ff593c4b94f2d30c899ae8cef4fa32264bba7321ee5b29c9fcc3897c5761c9",
          "transactionIndex": "0x79",
          "logIndex": "0xb2",
          "removed": false
        }
      ],
      "logsBloom": "0x00000000000000000000000000000000000000000000000000000000000000000000000000000000000000000000000000000000000000004000000000000000000000000000000000000008000000000000000000000000000000000000000000000000020000000000000004000800020000000000000000000010000000000000000000000000000000000000000000000000000000000000010000000000000000000000000000000000000000004000000000000000000000000000020000000002000000800000008000000000000000000000080000000000000020000000000000000000000000000000000000000000000000000000000000000000",
      "type": "0x2",
      "transactionHash": "0x42ff593c4b94f2d30c899ae8cef4fa32264bba7321ee5b29c9fcc3897c5761c9",
      "transactionIndex": "0x79",
      "blockHash": "0x61af2a6d70db09dc78f1f28c4c23a85c740129bc711a5232bdf517d0a7d547ac",
      "blockNumber": "0x724e10",
      "gasUsed": "0xfb93",
      "effectiveGasPrice": "0x34de4031b",
      "from": "0xc77f7fed3b5cc8249adc428c5f44c9063b9734b4",
      "to": "0x5eb9cc76c3506942c1c0ead70e877dd5e4f00cb0",
      "contractAddress": null
    }
  ],
  "libraries": [],
  "pending": [],
  "returns": {},
  "timestamp": 1736874612,
  "chain": 11155111,
  "commit": "51a374b"
}