{
  "transactions": [
    {
      "hash": "0x7bb37be832d3664fe649e49fdd7263a9731b9e681e37f1c86a1180aae0c09e9e",
      "transactionType": "CALL",
      "contractName": null,
      "contractAddress": "0xbf4a322f1496e5c3d34a9bcdb4c60567b38c7de2",
      "function": "sell(uint256)",
      "arguments": [
        "990955600881813653414"
      ],
      "transaction": {
        "from": "0xc77f7fed3b5cc8249adc428c5f44c9063b9734b4",
        "to": "0xbf4a322f1496e5c3d34a9bcdb4c60567b38c7de2",
        "gas": "0x16fea",
        "value": "0x0",
        "input": "0xe4849b32000000000000000000000000000000000000000000000035b84584b1b84587a6",
        "nonce": "0x8f1",
        "chainId": "0xaa36a7"
      },
      "additionalContracts": [],
      "isFixedGasLimit": false
    }
  ],
  "receipts": [
    {
      "status": "0x1",
      "cumulativeGasUsed": "0x9ec7ff",
      "logs": [
        {
          "address": "0xbf4a322f1496e5c3d34a9bcdb4c60567b38c7de2",
          "topics": [
            "0xddf252ad1be2c89b69c2b068fc378daa952ba7f163c4a11628f55a4df523b3ef",
            "0x000000000000000000000000c77f7fed3b5cc8249adc428c5f44c9063b9734b4",
            "0x0000000000000000000000000000000000000000000000000000000000000000"
          ],
          "data": "0x000000000000000000000000000000000000000000000035b84584b1b84587a6",
          "blockHash": "0x2c0a6d2b15c31d4161f2947b2c390d07779e549d38f5c16d56881cde84d27c94",
          "blockNumber": "0x725868",
          "transactionHash": "0x7bb37be832d3664fe649e49fdd7263a9731b9e681e37f1c86a1180aae0c09e9e",
          "transactionIndex": "0x44",
          "logIndex": "0x6b",
          "removed": false
        },
        {
          "address": "0xbf4a322f1496e5c3d34a9bcdb4c60567b38c7de2",
          "topics": [
            "0x4afcb4a87cdbd9974efdb92ee48bc8d7cd0ae4bf217004db3d080cbaee652ca7"
          ],
          "data": "0x000000000000000000000000000000000000000000000000000000006787170c00000000000000000000000000000000000000000000000000038f662826c3590000000000000000000000000000000000000000000000000dc7e3fb89bd1234",
          "blockHash": "0x2c0a6d2b15c31d4161f2947b2c390d07779e549d38f5c16d56881cde84d27c94",
          "blockNumber": "0x725868",
          "transactionHash": "0x7bb37be832d3664fe649e49fdd7263a9731b9e681e37f1c86a1180aae0c09e9e",
          "transactionIndex": "0x44",
          "logIndex": "0x6c",
          "removed": false
        }
      ],
      "logsBloom": "0x00000000000000000000000000000000000000000000000000000000000000000000000000000000000000000000000000000000000000004000000000000000000000000000000000000008000000000000001000000000000000000000000000000000020000000000000000000800020000000000000000000010000000000000000000000000000000000000000000000000000008000000010000000000000000000000000000000000000000004000000000000000000000000000000000000002000000800000000000001000000000000000080000000000000020000000000000000000000000000000000000000000000000000000000000000000",
      "type": "0x2",
      "transactionHash": "0x7bb37be832d3664fe649e49fdd7263a9731b9e681e37f1c86a1180aae0c09e9e",
      "transactionIndex": "0x44",
      "blockHash": "0x2c0a6d2b15c31d4161f2947b2c390d07779e549d38f5c16d56881cde84d27c94",
      "blockNumber": "0x725868",
      "gasUsed": "0xfb91",
      "effectiveGasPrice": "0x26279674",
      "from": "0xc77f7fed3b5cc8249adc428c5f44c9063b9734b4",
      "to": "0xbf4a322f1496e5c3d34a9bcdb4c60567b38c7de2",
      "contractAddress": null
    }
  ],
  "libraries": [],
  "pending": [],
  "returns": {},
  "timestamp": 1736906510,
  "chain": 11155111,
  "commit": "51a374b"
}