{
  "transactions": [
    {
      "hash": "0xb9cbe4ed714858bd98b70338e0111a2b8cfab4b2ac6eb56de4dd4a74f29d3617",
      "transactionType": "CALL",
      "contractName": null,
      "contractAddress": "0x270e88f8683660553e8ba4eb2ad7c91a1710d769",
      "function": "sell(uint256)",
      "arguments": [
        "944107779566940970898"
      ],
      "transaction": {
        "from": "0xc77f7fed3b5cc8249adc428c5f44c9063b9734b4",
        "to": "0x270e88f8683660553e8ba4eb2ad7c91a1710d769",
        "gas": "0x16fec",
        "value": "0x0",
        "input": "0xe4849b320000000000000000000000000000000000000000000000332e209f6b324fdf92",
        "nonce": "0x617",
        "chainId": "0xaa36a7"
      },
      "additionalContracts": [],
      "isFixedGasLimit": false
    }
  ],
  "receipts": [
    {
      "status": "0x1",
      "cumulativeGasUsed": "0x1318c81",
      "logs": [
        {
          "address": "0x270e88f8683660553e8ba4eb2ad7c91a1710d769",
          "topics": [
            "0xddf252ad1be2c89b69c2b068fc378daa952ba7f163c4a11628f55a4df523b3ef",
            "0x000000000000000000000000c77f7fed3b5cc8249adc428c5f44c9063b9734b4",
            "0x0000000000000000000000000000000000000000000000000000000000000000"
          ],
          "data": "0x0000000000000000000000000000000000000000000000332e209f6b324fdf92",
          "blockHash": "0x845ffbfdd38fd1638c6010169ad69ac10c08463b993b68912304ee8542924a08",
          "blockNumber": "0x7252e3",
          "transactionHash": "0xb9cbe4ed714858bd98b70338e0111a2b8cfab4b2ac6eb56de4dd4a74f29d3617",
          "transactionIndex": "0x4b",
          "logIndex": "0x7b",
          "removed": false
        },
        {
          "address": "0x270e88f8683660553e8ba4eb2ad7c91a1710d769",
          "topics": [
            "0x4afcb4a87cdbd9974efdb92ee48bc8d7cd0ae4bf217004db3d080cbaee652ca7"
          ],
          "data": "0x000000000000000000000000000000000000000000000000000000006786d4ac0000000000000000000000000000000000000000000000000003bce3d128083b0000000000000000000000000000000000000000000000000dc83d8d91ac6f85",
          "blockHash": "0x845ffbfdd38fd1638c6010169ad69ac10c08463b993b68912304ee8542924a08",
          "blockNumber": "0x7252e3",
          "transactionHash": "0xb9cbe4ed714858bd98b70338e0111a2b8cfab4b2ac6eb56de4dd4a74f29d3617",
          "transactionIndex": "0x4b",
          "logIndex": "0x7c",
          "removed": false
        }
      ],
      "logsBloom": "0x00000000000000000000000000000000000000000000000000000000000000000000000000000000000000000000000020000000000000004000000000000000000000000000000000000008000000000000000000000000000000000000000000000000020000000000000000000800020000000000000000000010000000000000000000010000000000000000000000000000000000000000010000000000000000000000000000000000000000004000000000000000000000000000000000000002000000800000000000000000000000000000080000008000000020000000000000000000000000000000000000000000000000000000000000000000",
      "type": "0x2",
      "transactionHash": "0xb9cbe4ed714858bd98b70338e0111a2b8cfab4b2ac6eb56de4dd4a74f29d3617",
      "transactionIndex": "0x4b",
      "blockHash": "0x845ffbfdd38fd1638c6010169ad69ac10c08463b993b68912304ee8542924a08",
      "blockNumber": "0x7252e3",
      "gasUsed": "0xfb93",
      "effectiveGasPrice": "0x28c4504d2",
      "from": "0xc77f7fed3b5cc8249adc428c5f44c9063b9734b4",
      "to": "0x270e88f8683660553e8ba4eb2ad7c91a1710d769",
      "contractAddress": null
    }
  ],
  "libraries": [],
  "pending": [],
  "returns": {},
  "timestamp": 1736889517,
  "chain": 11155111,
  "commit": "51a374b"
}