{
  "transactions": [
    {
      "hash": "0xd0c62fe893c8f10fc2a44fb22d0ec8f157715ff720dc9619e560167ead8354b4",
      "transactionType": "CALL",
      "contractName": null,
      "contractAddress": "0xbf4a322f1496e5c3d34a9bcdb4c60567b38c7de2",
      "function": "sell(uint256)",
      "arguments": [
        "990050357150409936330"
      ],
      "transaction": {
        "from": "0xc77f7fed3b5cc8249adc428c5f44c9063b9734b4",
        "to": "0xbf4a322f1496e5c3d34a9bcdb4c60567b38c7de2",
        "gas": "0x16fea",
        "value": "0x0",
        "input": "0xe4849b32000000000000000000000000000000000000000000000035abb5725112cdcdca",
        "nonce": "0x933",
        "chainId": "0xaa36a7"
      },
      "additionalContracts": [],
      "isFixedGasLimit": false
    }
  ],
  "receipts": [
    {
      "status": "0x1",
      "cumulativeGasUsed": "0xdf59d3",
      "logs": [
        {
          "address": "0xbf4a322f1496e5c3d34a9bcdb4c60567b38c7de2",
          "topics": [
            "0xddf252ad1be2c89b69c2b068fc378daa952ba7f163c4a11628f55a4df523b3ef",
            "0x000000000000000000000000c77f7fed3b5cc8249adc428c5f44c9063b9734b4",
            "0x0000000000000000000000000000000000000000000000000000000000000000"
          ],
          "data": "0x000000000000000000000000000000000000000000000035abb5725112cdcdca",
          "blockHash": "0x66194fef9cc19649800818814246240a4dc196bbdec4d5e34b9c0c5ffca39dba",
          "blockNumber": "0x7258bc",
          "transactionHash": "0xd0c62fe893c8f10fc2a44fb22d0ec8f157715ff720dc9619e560167ead8354b4",
          "transactionIndex": "0x64",
          "logIndex": "0xa2",
          "removed": false
        },
        {
          "address": "0xbf4a322f1496e5c3d34a9bcdb4c60567b38c7de2",
          "topics": [
            "0x4afcb4a87cdbd9974efdb92ee48bc8d7cd0ae4bf217004db3d080cbaee652ca7"
          ],
          "data": "0x0000000000000000000000000000000000000000000000000000000067871afc0000000000000000000000000000000000000000000000000003903b7bba71640000000000000000000000000000000000000000000000000dc7e3f96ef240e6",
          "blockHash": "0x66194fef9cc19649800818814246240a4dc196bbdec4d5e34b9c0c5ffca39dba",
          "blockNumber": "0x7258bc",
          "transactionHash": "0xd0c62fe893c8f10fc2a44fb22d0ec8f157715ff720dc9619e560167ead8354b4",
          "transactionIndex": "0x64",
          "logIndex": "0xa3",
          "removed": false
        }
      ],
      "logsBloom": "0x00000000000000000000000000000000000000000000000000000000000000000000000000000000000000000000000000000000000000004000000000000000000000000000000000000008000000000000001000000000000000000000000000000000020000000000000000000800020000000000000000000010000000000000000000000000000000000000000000000000000008000000010000000000000000000000000000000000000000004000000000000000000000000000000000000002000000800000000000001000000000000000080000000000000020000000000000000000000000000000000000000000000000000000000000000000",
      "type": "0x2",
      "transactionHash": "0xd0c62fe893c8f10fc2a44fb22d0ec8f157715ff720dc9619e560167ead8354b4",
      "transactionIndex": "0x64",
      "blockHash": "0x66194fef9cc19649800818814246240a4dc196bbdec4d5e34b9c0c5ffca39dba",
      "blockNumber": "0x7258bc",
      "gasUsed": "0xfb91",
      "effectiveGasPrice": "0x5447f3a8",
      "from": "0xc77f7fed3b5cc8249adc428c5f44c9063b9734b4",
      "to": "0xbf4a322f1496e5c3d34a9bcdb4c60567b38c7de2",
      "contractAddress": null
    }
  ],
  "libraries": [],
  "pending": [],
  "returns": {},
  "timestamp": 1736907518,
  "chain": 11155111,
  "commit": "51a374b"
}