{
  "transactions": [
    {
      "hash": "0xf908335c6dec3102eb32f6efb45afb42da36e677446e8c82c8ae29c2a3b71521",
      "transactionType": "CALL",
      "contractName": null,
      "contractAddress": "0x8aafd3ede9adb0ff97c7aebce82a919afb1c8764",
      "function": "sell(uint256)",
      "arguments": [
        "91664132063966"
      ],
      "transaction": {
        "from": "0xc77f7fed3b5cc8249adc428c5f44c9063b9734b4",
        "to": "0x8aafd3ede9adb0ff97c7aebce82a919afb1c8764",
        "gas": "0x15daa",
        "value": "0x0",
        "input": "0xe4849b320000000000000000000000000000000000000000000000000000535e3807c2de",
        "nonce": "0x15ec",
        "chainId": "0xaa36a7"
      },
      "additionalContracts": [],
      "isFixedGasLimit": false
    }
  ],
  "receipts": [
    {
      "status": "0x1",
      "cumulativeGasUsed": "0x12189ec",
      "logs": [
        {
          "address": "0x8aafd3ede9adb0ff97c7aebce82a919afb1c8764",
          "topics": [
            "0xddf252ad1be2c89b69c2b068fc378daa952ba7f163c4a11628f55a4df523b3ef",
            "0x000000000000000000000000c77f7fed3b5cc8249adc428c5f44c9063b9734b4",
            "0x0000000000000000000000000000000000000000000000000000000000000000"
          ],
          "data": "0x000000000000000000000000000000000000000000000000000052b37b2a83df",
          "blockHash": "0x43ac0e6db5cb4169b5ec9d69577b904d42cb53f37e39ef31719ac2820ded7969",
          "blockNumber": "0x731d6f",
          "transactionHash": "0xf908335c6dec3102eb32f6efb45afb42da36e677446e8c82c8ae29c2a3b71521",
          "transactionIndex": "0x89",
          "logIndex": "0xf7",
          "removed": false
        },
        {
          "address": "0x8aafd3ede9adb0ff97c7aebce82a919afb1c8764",
          "topics": [
            "0xddf252ad1be2c89b69c2b068fc378daa952ba7f163c4a11628f55a4df523b3ef",
            "0x000000000000000000000000c77f7fed3b5cc8249adc428c5f44c9063b9734b4",
            "0x000000000000000000000000c77f7fed3b5cc8249adc428c5f44c9063b9734b4"
          ],
          "data": "0x000000000000000000000000000000000000000000000000000000aabcdd3eff",
          "blockHash": "0x43ac0e6db5cb4169b5ec9d69577b904d42cb53f37e39ef31719ac2820ded7969",
          "blockNumber": "0x731d6f",
          "transactionHash": "0xf908335c6dec3102eb32f6efb45afb42da36e677446e8c82c8ae29c2a3b71521",
          "transactionIndex": "0x89",
          "logIndex": "0xf8",
          "removed": false
        },
        {
          "address": "0x8aafd3ede9adb0ff97c7aebce82a919afb1c8764",
          "topics": [
            "0x4afcb4a87cdbd9974efdb92ee48bc8d7cd0ae4bf217004db3d080cbaee652ca7"
          ],
          "data": "0x0000000000000000000000000000000000000000000000000000000067905e1c0000000000000000000000000000000000000000000000000013cf47b3a6f8060000000000000000000000000000000000000000000000000000007700b420f3",
          "blockHash": "0x43ac0e6db5cb4169b5ec9d69577b904d42cb53f37e39ef31719ac2820ded7969",
          "blockNumber": "0x731d6f",
          "transactionHash": "0xf908335c6dec3102eb32f6efb45afb42da36e677446e8c82c8ae29c2a3b71521",
          "transactionIndex": "0x89",
          "logIndex": "0xf9",
          "removed": false
        }
      ],
      "logsBloom": "0x00000000000000000000000000000000000000000600000000000000000000000000000000000000000000000000000000000000000000004000000000000000000000000000004000000008000000000000000000000000000000000000000000000000020000000000000000000800020000000000000000000010000000000000000000000000000000000000000000000000000000000000010000000000000000000000000000000000000000004000000000000000000000000000000000000002000000800000000000000000000000000000080000000000000020000000000000000000000000000000000000000000000000000000000000000000",
      "type": "0x2",
      "transactionHash": "0xf908335c6dec3102eb32f6efb45afb42da36e677446e8c82c8ae29c2a3b71521",
      "transactionIndex": "0x89",
      "blockHash": "0x43ac0e6db5cb4169b5ec9d69577b904d42cb53f37e39ef31719ac2820ded7969",
      "blockNumber": "0x731d6f",
      "gasUsed": "0xfd27",
      "effectiveGasPrice": "0x5d09d647",
      "from": "0xc77f7fed3b5cc8249adc428c5f44c9063b9734b4",
      "to": "0x8aafd3ede9adb0ff97c7aebce82a919afb1c8764",
      "contractAddress": null
    }
  ],
  "libraries": [],
  "pending": [],
  "returns": {},
  "timestamp": 1737514525,
  "chain": 11155111,
  "commit": "1d2fb70"
}