{
  "transactions": [
    {
      "hash": "0xe6fb4f0ae7dd5074f716db9adb09872af14b901ae4cb746ca9d7d2f2724c7ed7",
      "transactionType": "CALL",
      "contractName": null,
      "contractAddress": "0x5eb9cc76c3506942c1c0ead70e877dd5e4f00cb0",
      "function": "buy(address)",
      "arguments": [
        "0xC77f7fed3b5Cc8249aDc428c5F44C9063B9734b4"
      ],
      "transaction": {
        "from": "0xc77f7fed3b5cc8249adc428c5f44c9063b9734b4",
        "to": "0x5eb9cc76c3506942c1c0ead70e877dd5e4f00cb0",
        "gas": "0x156c8",
        "value": "0xde0b6b3a7640000",
        "input": "0xf088d547000000000000000000000000c77f7fed3b5cc8249adc428c5f44c9063b9734b4",
        "nonce": "0x176",
        "chainId": "0xaa36a7"
      },
      "additionalContracts": [],
      "isFixedGasLimit": false
    }
  ],
  "receipts": [
    {
      "status": "0x1",
      "cumulativeGasUsed": "0x2116888",
      "logs": [
        {
          "address": "0x5eb9cc76c3506942c1c0ead70e877dd5e4f00cb0",
          "topics": [
            "0xddf252ad1be2c89b69c2b068fc378daa952ba7f163c4a11628f55a4df523b3ef",
            "0x0000000000000000000000000000000000000000000000000000000000000000",
            "0x000000000000000000000000c77f7fed3b5cc8249adc428c5f44c9063b9734b4"
          ],
          "data": "0x000000000000000000000000000000000000000000000035a6d368eece2088f7",
          "blockHash": "0x8ab2ab73a54776f6e8994739df211f3a8c655e310c197158735ebd6c8005da05",
          "blockNumber": "0x723c33",
          "transactionHash": "0xe6fb4f0ae7dd5074f716db9adb09872af14b901ae4cb746ca9d7d2f2724c7ed7",
          "transactionIndex": "0xb1",
          "logIndex": "0x230",
          "removed": false
        },
        {
          "address": "0x5eb9cc76c3506942c1c0ead70e877dd5e4f00cb0",
          "topics": [
            "0xddf252ad1be2c89b69c2b068fc378daa952ba7f163c4a11628f55a4df523b3ef",
            "0x0000000000000000000000000000000000000000000000000000000000000000",
            "0x000000000000000000000000c77f7fed3b5cc8249adc428c5f44c9063b9734b4"
          ],
          "data": "0x00000000000000000000000000000000000000000000000029a98f8ccda94c36",
          "blockHash": "0x8ab2ab73a54776f6e8994739df211f3a8c655e310c197158735ebd6c8005da05",
          "blockNumber": "0x723c33",
          "transactionHash": "0xe6fb4f0ae7dd5074f716db9adb09872af14b901ae4cb746ca9d7d2f2724c7ed7",
          "transactionIndex": "0xb1",
          "logIndex": "0x231",
          "removed": false
        },
        {
          "address": "0x5eb9cc76c3506942c1c0ead70e877dd5e4f00cb0",
          "topics": [
            "0x4afcb4a87cdbd9974efdb92ee48bc8d7cd0ae4bf217004db3d080cbaee652ca7"
          ],
          "data": "0x000000000000000000000000000000000000000000000000000000006785c3b800000000000000000000000000000000000000000000000000038dc5992965910000000000000000000000000000000000000000000000000de0b6b3a7640000",
          "blockHash": "0x8ab2ab73a54776f6e8994739df211f3a8c655e310c197158735ebd6c8005da05",
          "blockNumber": "0x723c33",
          "transactionHash": "0xe6fb4f0ae7dd5074f716db9adb09872af14b901ae4cb746ca9d7d2f2724c7ed7",
          "transactionIndex": "0xb1",
          "logIndex": "0x232",
          "removed": false
        }
      ],
      "logsBloom": "0x00000000000000000000000000000000000000000000000000000000000000000000000000000000000000000000000000000000000000004000000000000000000000000000000000000008000000000000000000000000000000000000000000000000020000000000000004000800020000000000000000000010000000000000000000000000000000000000000000000000000000000000010000000000000000000000000000000000000000004000000000000000000000000000020000000002000000800000008000000000000000000000080000000000000020000000000000000000000000000000000000000000000000000000000000000000",
      "type": "0x2",
      "transactionHash": "0xe6fb4f0ae7dd5074f716db9adb09872af14b901ae4cb746ca9d7d2f2724c7ed7",
      "transactionIndex": "0xb1",
      "blockHash": "0x8ab2ab73a54776f6e8994739df211f3a8c655e310c197158735ebd6c8005da05",
      "blockNumber": "0x723c33",
      "gasUsed": "0xf82c",
      "effectiveGasPrice": "0x1b67313d2",
      "from": "0xc77f7fed3b5cc8249adc428c5f44c9063b9734b4",
      "to": "0x5eb9cc76c3506942c1c0ead70e877dd5e4f00cb0",
      "contractAddress": null
    }
  ],
  "libraries": [],
  "pending": [],
  "returns": {},
  "timestamp": 1736819641,
  "chain": 11155111,
  "commit": "51a374b"
}