{
  "transactions": [
    {
      "hash": "0x6e3039adeb634b260e7edcc0477890108002446acdf84b48a9eb20843216f05d",
      "transactionType": "CALL",
      "contractName": null,
      "contractAddress": "0x270e88f8683660553e8ba4eb2ad7c91a1710d769",
      "function": "buy(address)",
      "arguments": [
        "0xC77f7fed3b5Cc8249aDc428c5F44C9063B9734b4"
      ],
      "transaction": {
        "from": "0xc77f7fed3b5cc8249adc428c5f44c9063b9734b4",
        "to": "0x270e88f8683660553e8ba4eb2ad7c91a1710d769",
        "gas": "0x1b30c",
        "value": "0xde0b6b3a7640000",
        "input": "0xf088d547000000000000000000000000c77f7fed3b5cc8249adc428c5f44c9063b9734b4",
        "nonce": "0x73f",
        "chainId": "0xaa36a7"
      },
      "additionalContracts": [],
      "isFixedGasLimit": false
    }
  ],
  "receipts": [
    {
      "status": "0x1",
      "cumulativeGasUsed": "0xac12d6",
      "logs": [
        {
          "address": "0x270e88f8683660553e8ba4eb2ad7c91a1710d769",
          "topics": [
            "0xddf252ad1be2c89b69c2b068fc378daa952ba7f163c4a11628f55a4df523b3ef",
            "0x0000000000000000000000000000000000000000000000000000000000000000",
            "0x000000000000000000000000c77f7fed3b5cc8249adc428c5f44c9063b9734b4"
          ],
          "data": "0x000000000000000000000000000000000000000000000027f8a3351abb46bef9",
          "blockHash": "0xb29481f33c2b4bea8b6fc449026894bb21deb9d97a0e51980b7d75593a18706c",
          "blockNumber": "0x725460",
          "transactionHash": "0x6e3039adeb634b260e7edcc0477890108002446acdf84b48a9eb20843216f05d",
          "transactionIndex": "0x58",
          "logIndex": "0x8b",
          "removed": false
        },
        {
          "address": "0x270e88f8683660553e8ba4eb2ad7c91a1710d769",
          "topics": [
            "0xddf252ad1be2c89b69c2b068fc378daa952ba7f163c4a11628f55a4df523b3ef",
            "0x0000000000000000000000000000000000000000000000000000000000000000",
            "0x000000000000000000000000c77f7fed3b5cc8249adc428c5f44c9063b9734b4"
          ],
          "data": "0x0000000000000000000000000000000000000000000000001f09fdf8a452d67b",
          "blockHash": "0xb29481f33c2b4bea8b6fc449026894bb21deb9d97a0e51980b7d75593a18706c",
          "blockNumber": "0x725460",
          "transactionHash": "0x6e3039adeb634b260e7edcc0477890108002446acdf84b48a9eb20843216f05d",
          "transactionIndex": "0x58",
          "logIndex": "0x8c",
          "removed": false
        },
        {
          "address": "0x270e88f8683660553e8ba4eb2ad7c91a1710d769",
          "topics": [
            "0x4afcb4a87cdbd9974efdb92ee48bc8d7cd0ae4bf217004db3d080cbaee652ca7"
          ],
          "data": "0x000000000000000000000000000000000000000000000000000000006786e6880000000000000000000000000000000000000000000000000004c540819d1a930000000000000000000000000000000000000000000000000de0b6b3a7640000",
          "blockHash": "0xb29481f33c2b4bea8b6fc449026894bb21deb9d97a0e51980b7d75593a18706c",
          "blockNumber": "0x725460",
          "transactionHash": "0x6e3039adeb634b260e7edcc0477890108002446acdf84b48a9eb20843216f05d",
          "transactionIndex": "0x58",
          "logIndex": "0x8d",
          "removed": false
        }
      ],
      "logsBloom": "0x00000000000000000000000000000000000000000000000000000000000000000000000000000000000000000000000020000000000000004000000000000000000000000000000000000008000000000000000000000000000000000000000000000000020000000000000000000800020000000000000000000010000000000000000000010000000000000000000000000000000000000000010000000000000000000000000000000000000000004000000000000000000000000000000000000002000000800000000000000000000000000000080000008000000020000000000000000000000000000000000000000000000000000000000000000000",
      "type": "0x2",
      "transactionHash": "0x6e3039adeb634b260e7edcc0477890108002446acdf84b48a9eb20843216f05d",
      "transactionIndex": "0x58",
      "blockHash": "0xb29481f33c2b4bea8b6fc449026894bb21deb9d97a0e51980b7d75593a18706c",
      "blockNumber": "0x725460",
      "gasUsed": "0x13af8",
      "effectiveGasPrice": "0x12a3370ec",
      "from": "0xc77f7fed3b5cc8249adc428c5f44c9063b9734b4",
      "to": "0x270e88f8683660553e8ba4eb2ad7c91a1710d769",
      "contractAddress": null
    }
  ],
  "libraries": [],
  "pending": [],
  "returns": {},
  "timestamp": 1736894090,
  "chain": 11155111,
  "commit": "51a374b"
}