{
  "transactions": [
    {
      "hash": "0xf21ced2ce8291887e754079d1978c7749d68ef7ac0288782c3c221448f536efb",
      "transactionType": "CALL",
      "contractName": null,
      "contractAddress": "0x5eb9cc76c3506942c1c0ead70e877dd5e4f00cb0",
      "function": "buy(address)",
      "arguments": [
        "0xC77f7fed3b5Cc8249aDc428c5F44C9063B9734b4"
      ],
      "transaction": {
        "from": "0xc77f7fed3b5cc8249adc428c5f44c9063b9734b4",
        "to": "0x5eb9cc76c3506942c1c0ead70e877dd5e4f00cb0",
        "gas": "0x1b30c",
        "value": "0xde0b6b3a7640000",
        "input": "0xf088d547000000000000000000000000c77f7fed3b5cc8249adc428c5f44c9063b9734b4",
        "nonce": "0x462",
        "chainId": "0xaa36a7"
      },
      "additionalContracts": [],
      "isFixedGasLimit": false
    }
  ],
  "receipts": [
    {
      "status": "0x1",
      "cumulativeGasUsed": "0x100fadc",
      "logs": [
        {
          "address": "0x5eb9cc76c3506942c1c0ead70e877dd5e4f00cb0",
          "topics": [
            "0xddf252ad1be2c89b69c2b068fc378daa952ba7f163c4a11628f55a4df523b3ef",
            "0x0000000000000000000000000000000000000000000000000000000000000000",
            "0x000000000000000000000000c77f7fed3b5cc8249adc428c5f44c9063b9734b4"
          ],
          "data": "0x00000000000000000000000000000000000000000000003574cae85bbe32915a",
          "blockHash": "0xf0a2028428689d5d3224d9fdd524a1e38d8f707a9dc63ea2e839feeb435b5a94",
          "blockNumber": "0x725087",
          "transactionHash": "0xf21ced2ce8291887e754079d1978c7749d68ef7ac0288782c3c221448f536efb",
          "transactionIndex": "0x9c",
          "logIndex": "0xe6",
          "removed": false
        },
        {
          "address": "0x5eb9cc76c3506942c1c0ead70e877dd5e4f00cb0",
          "topics": [
            "0xddf252ad1be2c89b69c2b068fc378daa952ba7f163c4a11628f55a4df523b3ef",
            "0x0000000000000000000000000000000000000000000000000000000000000000",
            "0x000000000000000000000000c77f7fed3b5cc8249adc428c5f44c9063b9734b4"
          ],
          "data": "0x0000000000000000000000000000000000000000000000002982b54fa5d8c086",
          "blockHash": "0xf0a2028428689d5d3224d9fdd524a1e38d8f707a9dc63ea2e839feeb435b5a94",
          "blockNumber": "0x725087",
          "transactionHash": "0xf21ced2ce8291887e754079d1978c7749d68ef7ac0288782c3c221448f536efb",
          "transactionIndex": "0x9c",
          "logIndex": "0xe7",
          "removed": false
        },
        {
          "address": "0x5eb9cc76c3506942c1c0ead70e877dd5e4f00cb0",
          "topics": [
            "0x4afcb4a87cdbd9974efdb92ee48bc8d7cd0ae4bf217004db3d080cbaee652ca7"
          ],
          "data": "0x000000000000000000000000000000000000000000000000000000006786b820000000000000000000000000000000000000000000000000000391191d5f7da20000000000000000000000000000000000000000000000000de0b6b3a7640000",
          "blockHash": "0xf0a2028428689d5d3224d9fdd524a1e38d8f707a9dc63ea2e839feeb435b5a94",
          "blockNumber": "0x725087",
          "transactionHash": "0xf21ced2ce8291887e754079d1978c7749d68ef7ac0288782c3c221448f536efb",
          "transactionIndex": "0x9c",
          "logIndex": "0xe8",
          "removed": false
        }
      ],
      "logsBloom": "0x00000000000000000000000000000000000000000000000000000000000000000000000000000000000000000000000000000000000000004000000000000000000000000000000000000008000000000000000000000000000000000000000000000000020000000000000004000800020000000000000000000010000000000000000000000000000000000000000000000000000000000000010000000000000000000000000000000000000000004000000000000000000000000000020000000002000000800000008000000000000000000000080000000000000020000000000000000000000000000000000000000000000000000000000000000000",
      "type": "0x2",
      "transactionHash": "0xf21ced2ce8291887e754079d1978c7749d68ef7ac0288782c3c221448f536efb",
      "transactionIndex": "0x9c",
      "blockHash": "0xf0a2028428689d5d3224d9fdd524a1e38d8f707a9dc63ea2e839feeb435b5a94",
      "blockNumber": "0x725087",
      "gasUsed": "0x13af8",
      "effectiveGasPrice": "0x1d26279d0",
      "from": "0xc77f7fed3b5cc8249adc428c5f44c9063b9734b4",
      "to": "0x5eb9cc76c3506942c1c0ead70e877dd5e4f00cb0",
      "contractAddress": null
    }
  ],
  "libraries": [],
  "pending": [],
  "returns": {},
  "timestamp": 1736882210,
  "chain": 11155111,
  "commit": "51a374b"
}