{
  "transactions": [
    {
      "hash": "0x6922466b9518faeb71f49d65ef676f4a142854064daaa9ae37fb8e96be523706",
      "transactionType": "CALL",
      "contractName": null,
      "contractAddress": "0x270e88f8683660553e8ba4eb2ad7c91a1710d769",
      "function": "buy(address)",
      "arguments": [
        "0xC77f7fed3b5Cc8249aDc428c5F44C9063B9734b4"
      ],
      "transaction": {
        "from": "0xc77f7fed3b5cc8249adc428c5f44c9063b9734b4",
        "to": "0x270e88f8683660553e8ba4eb2ad7c91a1710d769",
        "gas": "0x1b30c",
        "value": "0xde0b6b3a7640000",
        "input": "0xf088d547000000000000000000000000c77f7fed3b5cc8249adc428c5f44c9063b9734b4",
        "nonce": "0x81d",
        "chainId": "0xaa36a7"
      },
      "additionalContracts": [],
      "isFixedGasLimit": false
    }
  ],
  "receipts": [
    {
      "status": "0x1",
      "cumulativeGasUsed": "0x8405d7",
      "logs": [
        {
          "address": "0x270e88f8683660553e8ba4eb2ad7c91a1710d769",
          "topics": [
            "0xddf252ad1be2c89b69c2b068fc378daa952ba7f163c4a11628f55a4df523b3ef",
            "0x0000000000000000000000000000000000000000000000000000000000000000",
            "0x000000000000000000000000c77f7fed3b5cc8249adc428c5f44c9063b9734b4"
          ],
          "data": "0x000000000000000000000000000000000000000000000026ef38270d38c9a7c0",
          "blockHash": "0xad95f70e393b473272cce9c6acceafbb17790cff0eb0e7e544b3649febb4b81b",
          "blockNumber": "0x725562",
          "transactionHash": "0x6922466b9518faeb71f49d65ef676f4a142854064daaa9ae37fb8e96be523706",
          "transactionIndex": "0x37",
          "logIndex": "0x96",
          "removed": false
        },
        {
          "address": "0x270e88f8683660553e8ba4eb2ad7c91a1710d769",
          "topics": [
            "0xddf252ad1be2c89b69c2b068fc378daa952ba7f163c4a11628f55a4df523b3ef",
            "0x0000000000000000000000000000000000000000000000000000000000000000",
            "0x000000000000000000000000c77f7fed3b5cc8249adc428c5f44c9063b9734b4"
          ],
          "data": "0x0000000000000000000000000000000000000000000000001e3be2c3f5ac6b7b",
          "blockHash": "0xad95f70e393b473272cce9c6acceafbb17790cff0eb0e7e544b3649febb4b81b",
          "blockNumber": "0x725562",
          "transactionHash": "0x6922466b9518faeb71f49d65ef676f4a142854064daaa9ae37fb8e96be523706",
          "transactionIndex": "0x37",
          "logIndex": "0x97",
          "removed": false
        },
        {
          "address": "0x270e88f8683660553e8ba4eb2ad7c91a1710d769",
          "topics": [
            "0x4afcb4a87cdbd9974efdb92ee48bc8d7cd0ae4bf217004db3d080cbaee652ca7"
          ],
          "data": "0x000000000000000000000000000000000000000000000000000000006786f2a00000000000000000000000000000000000000000000000000004e5c5239a23710000000000000000000000000000000000000000000000000de0b6b3a7640000",
          "blockHash": "0xad95f70e393b473272cce9c6acceafbb17790cff0eb0e7e544b3649febb4b81b",
          "blockNumber": "0x725562",
          "transactionHash": "0x6922466b9518faeb71f49d65ef676f4a142854064daaa9ae37fb8e96be523706",
          "transactionIndex": "0x37",
          "logIndex": "0x98",
          "removed": false
        }
      ],
      "logsBloom": "0x00000000000000000000000000000000000000000000000000000000000000000000000000000000000000000000000020000000000000004000000000000000000000000000000000000008000000000000000000000000000000000000000000000000020000000000000000000800020000000000000000000010000000000000000000010000000000000000000000000000000000000000010000000000000000000000000000000000000000004000000000000000000000000000000000000002000000800000000000000000000000000000080000008000000020000000000000000000000000000000000000000000000000000000000000000000",
      "type": "0x2",
      "transactionHash": "0x6922466b9518faeb71f49d65ef676f4a142854064daaa9ae37fb8e96be523706",
      "transactionIndex": "0x37",
      "blockHash": "0xad95f70e393b473272cce9c6acceafbb17790cff0eb0e7e544b3649febb4b81b",
      "blockNumber": "0x725562",
      "gasUsed": "0x13af8",
      "effectiveGasPrice": "0x88cd5c10",
      "from": "0xc77f7fed3b5cc8249adc428c5f44c9063b9734b4",
      "to": "0x270e88f8683660553e8ba4eb2ad7c91a1710d769",
      "contractAddress": null
    }
  ],
  "libraries": [],
  "pending": [],
  "returns": {},
  "timestamp": 1736897185,
  "chain": 11155111,
  "commit": "51a374b"
}