{
  "transactions": [
    {
      "hash": "0xe390cf8b70d431aa0e837b5da27b08f0386feea0f88e7cbb89e2ec41401f9842",
      "transactionType": "CALL",
      "contractName": null,
      "contractAddress": "0xbf4a322f1496e5c3d34a9bcdb4c60567b38c7de2",
      "function": "buy(address)",
      "arguments": [
        "0xC77f7fed3b5Cc8249aDc428c5F44C9063B9734b4"
      ],
      "transaction": {
        "from": "0xc77f7fed3b5cc8249adc428c5f44c9063b9734b4",
        "to": "0xbf4a322f1496e5c3d34a9bcdb4c60567b38c7de2",
        "gas": "0x1b309",
        "value": "0xde0b6b3a7640000",
        "input": "0xf088d547000000000000000000000000c77f7fed3b5cc8249adc428c5f44c9063b9734b4",
        "nonce": "0xdf0",
        "chainId": "0xaa36a7"
      },
      "additionalContracts": [],
      "isFixedGasLimit": false
    }
  ],
  "receipts": [
    {
      "status": "0x1",
      "cumulativeGasUsed": "0x13437b1",
      "logs": [
        {
          "address": "0xbf4a322f1496e5c3d34a9bcdb4c60567b38c7de2",
          "topics": [
            "0xddf252ad1be2c89b69c2b068fc378daa952ba7f163c4a11628f55a4df523b3ef",
            "0x0000000000000000000000000000000000000000000000000000000000000000",
            "0x000000000000000000000000c77f7fed3b5cc8249adc428c5f44c9063b9734b4"
          ],
          "data": "0x0000000000000000000000000000000000000000000000349fca61792c4393b1",
          "blockHash": "0xdcd436a799ab2cdcae1147ba32c4dc0314e1228a877b684675d8e68cdc96ca82",
          "blockNumber": "0x7266d1",
          "transactionHash": "0xe390cf8b70d431aa0e837b5da27b08f0386feea0f88e7cbb89e2ec41401f9842",
          "transactionIndex": "0x54",
          "logIndex": "0xac",
          "removed": false
        },
        {
          "address": "0xbf4a322f1496e5c3d34a9bcdb4c60567b38c7de2",
          "topics": [
            "0xddf252ad1be2c89b69c2b068fc378daa952ba7f163c4a11628f55a4df523b3ef",
            "0x0000000000000000000000000000000000000000000000000000000000000000",
            "0x000000000000000000000000c77f7fed3b5cc8249adc428c5f44c9063b9734b4"
          ],
          "data": "0x00000000000000000000000000000000000000000000000028dd4e0ccec12484",
          "blockHash": "0xdcd436a799ab2cdcae1147ba32c4dc0314e1228a877b684675d8e68cdc96ca82",
          "blockNumber": "0x7266d1",
          "transactionHash": "0xe390cf8b70d431aa0e837b5da27b08f0386feea0f88e7cbb89e2ec41401f9842",
          "transactionIndex": "0x54",
          "logIndex": "0xad",
          "removed": false
        },
        {
          "address": "0xbf4a322f1496e5c3d34a9bcdb4c60567b38c7de2",
          "topics": [
            "0x4afcb4a87cdbd9974efdb92ee48bc8d7cd0ae4bf217004db3d080cbaee652ca7"
          ],
          "data": "0x000000000000000000000000000000000000000000000000000000006787c4dc00000000000000000000000000000000000000000000000000039f8b475520eb0000000000000000000000000000000000000000000000000de0b6b3a7640000",
          "blockHash": "0xdcd436a799ab2cdcae1147ba32c4dc0314e1228a877b684675d8e68cdc96ca82",
          "blockNumber": "0x7266d1",
          "transactionHash": "0xe390cf8b70d431aa0e837b5da27b08f0386feea0f88e7cbb89e2ec41401f9842",
          "transactionIndex": "0x54",
          "logIndex": "0xae",
          "removed": false
        }
      ],
      "logsBloom": "0x00000000000000000000000000000000000000000000000000000000000000000000000000000000000000000000000000000000000000004000000000000000000000000000000000000008000000000000001000000000000000000000000000000000020000000000000000000800020000000000000000000010000000000000000000000000000000000000000000000000000008000000010000000000000000000000000000000000000000004000000000000000000000000000000000000002000000800000000000001000000000000000080000000000000020000000000000000000000000000000000000000000000000000000000000000000",
      "type": "0x2",
      "transactionHash": "0xe390cf8b70d431aa0e837b5da27b08f0386feea0f88e7cbb89e2ec41401f9842",
      "transactionIndex": "0x54",
      "blockHash": "0xdcd436a799ab2cdcae1147ba32c4dc0314e1228a877b684675d8e68cdc96ca82",
      "blockNumber": "0x7266d1",
      "gasUsed": "0x13af6",
      "effectiveGasPrice": "0x28a3d445c",
      "from": "0xc77f7fed3b5cc8249adc428c5f44c9063b9734b4",
      "to": "0xbf4a322f1496e5c3d34a9bcdb4c60567b38c7de2",
      "contractAddress": null
    }
  ],
  "libraries": [],
  "pending": [],
  "returns": {},
  "timestamp": 1736951004,
  "chain": 11155111,
  "commit": "51a374b"
}