{
  "transactions": [
    {
      "hash": "0x0723b734b708e769b4b7d7e1465ce00f6944f4232bcb147c2f55eeaf45ede608",
      "transactionType": "CALL",
      "contractName": null,
      "contractAddress": "0x8aafd3ede9adb0ff97c7aebce82a919afb1c8764",
      "function": "sell(uint256)",
      "arguments": [
        "175712931"
      ],
      "transaction": {
        "from": "0xc77f7fed3b5cc8249adc428c5f44c9063b9734b4",
        "to": "0x8aafd3ede9adb0ff97c7aebce82a919afb1c8764",
        "gas": "0x14e6c",
        "value": "0x0",
        "input": "0xe4849b32000000000000000000000000000000000000000000000000000000000a792aa3",
        "nonce": "0x128b",
        "chainId": "0xaa36a7"
      },
      "additionalContracts": [],
      "isFixedGasLimit": false
    }
  ],
  "receipts": [
    {
      "status": "0x1",
      "cumulativeGasUsed": "0x91d431",
      "logs": [
        {
          "address": "0x8aafd3ede9adb0ff97c7aebce82a919afb1c8764",
          "topics": [
            "0xddf252ad1be2c89b69c2b068fc378daa952ba7f163c4a11628f55a4df523b3ef",
            "0x000000000000000000000000c77f7fed3b5cc8249adc428c5f44c9063b9734b4",
            "0x0000000000000000000000000000000000000000000000000000000000000000"
          ],
          "data": "0x000000000000000000000000000000000000000000000000000000000a63b79c",
          "blockHash": "0x94795fb5e69d56f1c2e2a34a384de802049375960309a7c93d5ce9f2864c6429",
          "blockNumber": "0x731979",
          "transactionHash": "0x0723b734b708e769b4b7d7e1465ce00f6944f4232bcb147c2f55eeaf45ede608",
          "transactionIndex": "0x71",
          "logIndex": "0xaf",
          "removed": false
        },
        {
          "address": "0x8aafd3ede9adb0ff97c7aebce82a919afb1c8764",
          "topics": [
            "0xddf252ad1be2c89b69c2b068fc378daa952ba7f163c4a11628f55a4df523b3ef",
            "0x000000000000000000000000c77f7fed3b5cc8249adc428c5f44c9063b9734b4",
            "0x000000000000000000000000c77f7fed3b5cc8249adc428c5f44c9063b9734b4"
          ],
          "data": "0x0000000000000000000000000000000000000000000000000000000000157307",
          "blockHash": "0x94795fb5e69d56f1c2e2a34a384de802049375960309a7c93d5ce9f2864c6429",
          "blockNumber": "0x731979",
          "transactionHash": "0x0723b734b708e769b4b7d7e1465ce00f6944f4232bcb147c2f55eeaf45ede608",
          "transactionIndex": "0x71",
          "logIndex": "0xb0",
          "removed": false
        },
        {
          "address": "0x8aafd3ede9adb0ff97c7aebce82a919afb1c8764",
          "topics": [
            "0x4afcb4a87cdbd9974efdb92ee48bc8d7cd0ae4bf217004db3d080cbaee652ca7"
          ],
          "data": "0x0000000000000000000000000000000000000000000000000000000067902e7c000000000000000000000000000000000000000000000000000544d2d08393ec000000000000000000000000000000000000000000000000000000000003f9ee",
          "blockHash": "0x94795fb5e69d56f1c2e2a34a384de802049375960309a7c93d5ce9f2864c6429",
          "blockNumber": "0x731979",
          "transactionHash": "0x0723b734b708e769b4b7d7e1465ce00f6944f4232bcb147c2f55eeaf45ede608",
          "transactionIndex": "0x71",
          "logIndex": "0xb1",
          "removed": false
        }
      ],
      "logsBloom": "0x00000000000000000000000000000000000000000600000000000000000000000000000000000000000000000000000000000000000000004000000000000000000000000000004000000008000000000000000000000000000000000000000000000000020000000000000000000800020000000000000000000010000000000000000000000000000000000000000000000000000000000000010000000000000000000000000000000000000000004000000000000000000000000000000000000002000000800000000000000000000000000000080000000000000020000000000000000000000000000000000000000000000000000000000000000000",
      "type": "0x2",
      "transactionHash": "0x0723b734b708e769b4b7d7e1465ce00f6944f4232bcb147c2f55eeaf45ede608",
      "transactionIndex": "0x71",
      "blockHash": "0x94795fb5e69d56f1c2e2a34a384de802049375960309a7c93d5ce9f2864c6429",
      "blockNumber": "0x731979",
      "gasUsed": "0xf21f",
      "effectiveGasPrice": "0x4427f134",
      "from": "0xc77f7fed3b5cc8249adc428c5f44c9063b9734b4",
      "to": "0x8aafd3ede9adb0ff97c7aebce82a919afb1c8764",
      "contractAddress": null
    }
  ],
  "libraries": [],
  "pending": [],
  "returns": {},
  "timestamp": 1737502332,
  "chain": 11155111,
  "commit": "1d2fb70"
}