{
  "transactions": [
    {
      "hash": "0x5ca2ebf2c8fabcb8e2ebbad9fc2fb1c118754bcbb289ccfeb07ab557d9dbd2c5",
      "transactionType": "CALL",
      "contractName": null,
      "contractAddress": "0x8aafd3ede9adb0ff97c7aebce82a919afb1c8764",
      "function": "sell(uint256)",
      "arguments": [
        "1553539"
      ],
      "transaction": {
        "from": "0xc77f7fed3b5cc8249adc428c5f44c9063b9734b4",
        "to": "0x8aafd3ede9adb0ff97c7aebce82a919afb1c8764",
        "gas": "0x16208",
        "value": "0x0",
        "input": "0xe4849b32000000000000000000000000000000000000000000000000000000000017b483",
        "nonce": "0xfaa",
        "chainId": "0xaa36a7"
      },
      "additionalContracts": [],
      "isFixedGasLimit": false
    }
  ],
  "receipts": [
    {
      "status": "0x1",
      "cumulativeGasUsed": "0xdb4c1b",
      "logs": [
        {
          "address": "0x8aafd3ede9adb0ff97c7aebce82a919afb1c8764",
          "topics": [
            "0xddf252ad1be2c89b69c2b068fc378daa952ba7f163c4a11628f55a4df523b3ef",
            "0x000000000000000000000000c77f7fed3b5cc8249adc428c5f44c9063b9734b4",
            "0x0000000000000000000000000000000000000000000000000000000000000000"
          ],
          "data": "0x00000000000000000000000000000000000000000000000000000000001783f7",
          "blockHash": "0xa2d123497d86a5a0975ebd52f72bee689859af6d3d717b94d201ba3488d4a23a",
          "blockNumber": "0x731613",
          "transactionHash": "0x5ca2ebf2c8fabcb8e2ebbad9fc2fb1c118754bcbb289ccfeb07ab557d9dbd2c5",
          "transactionIndex": "0x81",
          "logIndex": "0x10f",
          "removed": false
        },
        {
          "address": "0x8aafd3ede9adb0ff97c7aebce82a919afb1c8764",
          "topics": [
            "0xddf252ad1be2c89b69c2b068fc378daa952ba7f163c4a11628f55a4df523b3ef",
            "0x000000000000000000000000c77f7fed3b5cc8249adc428c5f44c9063b9734b4",
            "0x000000000000000000000000c77f7fed3b5cc8249adc428c5f44c9063b9734b4"
          ],
          "data": "0x000000000000000000000000000000000000000000000000000000000000308c",
          "blockHash": "0xa2d123497d86a5a0975ebd52f72bee689859af6d3d717b94d201ba3488d4a23a",
          "blockNumber": "0x731613",
          "transactionHash": "0x5ca2ebf2c8fabcb8e2ebbad9fc2fb1c118754bcbb289ccfeb07ab557d9dbd2c5",
          "transactionIndex": "0x81",
          "logIndex": "0x110",
          "removed": false
        },
        {
          "address": "0x8aafd3ede9adb0ff97c7aebce82a919afb1c8764",
          "topics": [
            "0x4afcb4a87cdbd9974efdb92ee48bc8d7cd0ae4bf217004db3d080cbaee652ca7"
          ],
          "data": "0x00000000000000000000000000000000000000000000000000000000679005900000000000000000000000000000000000000000000000000004c37b31ab97bc0000000000000000000000000000000000000000000000000000000000000823",
          "blockHash": "0xa2d123497d86a5a0975ebd52f72bee689859af6d3d717b94d201ba3488d4a23a",
          "blockNumber": "0x731613",
          "transactionHash": "0x5ca2ebf2c8fabcb8e2ebbad9fc2fb1c118754bcbb289ccfeb07ab557d9dbd2c5",
          "transactionIndex": "0x81",
          "logIndex": "0x111",
          "removed": false
        }
      ],
      "logsBloom": "0x00000000000000000000000000000000000000000600000000000000000000000000000000000000000000000000000000000000000000004000000000000000000000000000004000000008000000000000000000000000000000000000000000000000020000000000000000000800020000000000000000000010000000000000000000000000000000000000000000000000000000000000010000000000000000000000000000000000000000004000000000000000000000000000000000000002000000800000000000000000000000000000080000000000000020000000000000000000000000000000000000000000000000000000000000000000",
      "type": "0x2",
      "transactionHash": "0x5ca2ebf2c8fabcb8e2ebbad9fc2fb1c118754bcbb289ccfeb07ab557d9dbd2c5",
      "transactionIndex": "0x81",
      "blockHash": "0xa2d123497d86a5a0975ebd52f72bee689859af6d3d717b94d201ba3488d4a23a",
      "blockNumber": "0x731613",
      "gasUsed": "0xf213",
      "effectiveGasPrice": "0x667eb4c2",
      "from": "0xc77f7fed3b5cc8249adc428c5f44c9063b9734b4",
      "to": "0x8aafd3ede9adb0ff97c7aebce82a919afb1c8764",
      "contractAddress": null
    }
  ],
  "libraries": [],
  "pending": [],
  "returns": {},
  "timestamp": 1737491859,
  "chain": 11155111,
  "commit": "1d2fb70"
}