{
  "transactions": [
    {
      "hash": "0x947583c57c0250c6baa65af84ac304f65cb52ba8fdcf19de8f6761f9f61ecabc",
      "transactionType": "CALL",
      "contractName": null,
      "contractAddress": "0x5eb9cc76c3506942c1c0ead70e877dd5e4f00cb0",
      "function": "buy(address)",
      "arguments": [
        "0xC77f7fed3b5Cc8249aDc428c5F44C9063B9734b4"
      ],
      "transaction": {
        "from": "0xc77f7fed3b5cc8249adc428c5f44c9063b9734b4",
        "to": "0x5eb9cc76c3506942c1c0ead70e877dd5e4f00cb0",
        "gas": "0x1b30c",
        "value": "0xde0b6b3a7640000",
        "input": "0xf088d547000000000000000000000000c77f7fed3b5cc8249adc428c5f44c9063b9734b4",
        "nonce": "0x4b0",
        "chainId": "0xaa36a7"
      },
      "additionalContracts": [],
      "isFixedGasLimit": false
    }
  ],
  "receipts": [
    {
      "status": "0x1",
      "cumulativeGasUsed": "0xbfe29a",
      "logs": [
        {
          "address": "0x5eb9cc76c3506942c1c0ead70e877dd5e4f00cb0",
          "topics": [
            "0xddf252ad1be2c89b69c2b068fc378daa952ba7f163c4a11628f55a4df523b3ef",
            "0x0000000000000000000000000000000000000000000000000000000000000000",
            "0x000000000000000000000000c77f7fed3b5cc8249adc428c5f44c9063b9734b4"
          ],
          "data": "0x000000000000000000000000000000000000000000000035749ee26c6d4823d3",
          "blockHash": "0x3e4d434727a3ca4ac61ee56dc12ef6e05fcd5636b8a1117ee610966443c01943",
          "blockNumber": "0x7250ee",
          "transactionHash": "0x947583c57c0250c6baa65af84ac304f65cb52ba8fdcf19de8f6761f9f61ecabc",
          "transactionIndex": "0x4b",
          "logIndex": "0x75",
          "removed": false
        },
        {
          "address": "0x5eb9cc76c3506942c1c0ead70e877dd5e4f00cb0",
          "topics": [
            "0xddf252ad1be2c89b69c2b068fc378daa952ba7f163c4a11628f55a4df523b3ef",
            "0x0000000000000000000000000000000000000000000000000000000000000000",
            "0x000000000000000000000000c77f7fed3b5cc8249adc428c5f44c9063b9734b4"
          ],
          "data": "0x0000000000000000000000000000000000000000000000002982932028b61546",
          "blockHash": "0x3e4d434727a3ca4ac61ee56dc12ef6e05fcd5636b8a1117ee610966443c01943",
          "blockNumber": "0x7250ee",
          "transactionHash": "0x947583c57c0250c6baa65af84ac304f65cb52ba8fdcf19de8f6761f9f61ecabc",
          "transactionIndex": "0x4b",
          "logIndex": "0x76",
          "removed": false
        },
        {
          "address": "0x5eb9cc76c3506942c1c0ead70e877dd5e4f00cb0",
          "topics": [
            "0x4afcb4a87cdbd9974efdb92ee48bc8d7cd0ae4bf217004db3d080cbaee652ca7"
          ],
          "data": "0x000000000000000000000000000000000000000000000000000000006786bd0c0000000000000000000000000000000000000000000000000003911c0d5a41b70000000000000000000000000000000000000000000000000de0b6b3a7640000",
          "blockHash": "0x3e4d434727a3ca4ac61ee56dc12ef6e05fcd5636b8a1117ee610966443c01943",
          "blockNumber": "0x7250ee",
          "transactionHash": "0x947583c57c0250c6baa65af84ac304f65cb52ba8fdcf19de8f6761f9f61ecabc",
          "transactionIndex": "0x4b",
          "logIndex": "0x77",
          "removed": false
        }
      ],
      "logsBloom": "0x00000000000000000000000000000000000000000000000000000000000000000000000000000000000000000000000000000000000000004000000000000000000000000000000000000008000000000000000000000000000000000000000000000000020000000000000004000800020000000000000000000010000000000000000000000000000000000000000000000000000000000000010000000000000000000000000000000000000000004000000000000000000000000000020000000002000000800000008000000000000000000000080000000000000020000000000000000000000000000000000000000000000000000000000000000000",
      "type": "0x2",
      "transactionHash": "0x947583c57c0250c6baa65af84ac304f65cb52ba8fdcf19de8f6761f9f61ecabc",
      "transactionIndex": "0x4b",
      "blockHash": "0x3e4d434727a3ca4ac61ee56dc12ef6e05fcd5636b8a1117ee610966443c01943",
      "blockNumber": "0x7250ee",
      "gasUsed": "0x13af8",
      "effectiveGasPrice": "0x2d08355b2",
      "from": "0xc77f7fed3b5cc8249adc428c5f44c9063b9734b4",
      "to": "0x5eb9cc76c3506942c1c0ead70e877dd5e4f00cb0",
      "contractAddress": null
    }
  ],
  "libraries": [],
  "pending": [],
  "returns": {},
  "timestamp": 1736883469,
  "chain": 11155111,
  "commit": "51a374b"
}