{
  "transactions": [
    {
      "hash": "0x46e94cc3f5e9838f1195030e84cfffe4400284dfde628ba8051eed5483777f13",
      "transactionType": "CALL",
      "contractName": null,
      "contractAddress": "0x270e88f8683660553e8ba4eb2ad7c91a1710d769",
      "function": "sell(uint256)",
      "arguments": [
        "729254091746303914649"
      ],
      "transaction": {
        "from": "0xc77f7fed3b5cc8249adc428c5f44c9063b9734b4",
        "to": "0x270e88f8683660553e8ba4eb2ad7c91a1710d769",
        "gas": "0x16fec",
        "value": "0x0",
        "input": "0xe4849b32000000000000000000000000000000000000000000000027886efcb08291b299",
        "nonce": "0x7b6",
        "chainId": "0xaa36a7"
      },
      "additionalContracts": [],
      "isFixedGasLimit": false
    }
  ],
  "receipts": [
    {
      "status": "0x1",
      "cumulativeGasUsed": "0xd3a326",
      "logs": [
        {
          "address": "0x270e88f8683660553e8ba4eb2ad7c91a1710d769",
          "topics": [
            "0xddf252ad1be2c89b69c2b068fc378daa952ba7f163c4a11628f55a4df523b3ef",
            "0x000000000000000000000000c77f7fed3b5cc8249adc428c5f44c9063b9734b4",
            "0x0000000000000000000000000000000000000000000000000000000000000000"
          ],
          "data": "0x000000000000000000000000000000000000000000000027886efcb08291b299",
          "blockHash": "0x0cc2931ce7380ba17432188b8043bc3e33296ec0b8521568a3256fda4ac5019a",
          "blockNumber": "0x7254ec",
          "transactionHash": "0x46e94cc3f5e9838f1195030e84cfffe4400284dfde628ba8051eed5483777f13",
          "transactionIndex": "0x49",
          "logIndex": "0xac",
          "removed": false
        },
        {
          "address": "0x270e88f8683660553e8ba4eb2ad7c91a1710d769",
          "topics": [
            "0x4afcb4a87cdbd9974efdb92ee48bc8d7cd0ae4bf217004db3d080cbaee652ca7"
          ],
          "data": "0x000000000000000000000000000000000000000000000000000000006786ed180000000000000000000000000000000000000000000000000004d6b95ddb53860000000000000000000000000000000000000000000000000dc8276337be3ef9",
          "blockHash": "0x0cc2931ce7380ba17432188b8043bc3e33296ec0b8521568a3256fda4ac5019a",
          "blockNumber": "0x7254ec",
          "transactionHash": "0x46e94cc3f5e9838f1195030e84cfffe4400284dfde628ba8051eed5483777f13",
          "transactionIndex": "0x49",
          "logIndex": "0xad",
          "removed": false
        }
      ],
      "logsBloom": "0x00000000000000000000000000000000000000000000000000000000000000000000000000000000000000000000000020000000000000004000000000000000000000000000000000000008000000000000000000000000000000000000000000000000020000000000000000000800020000000000000000000010000000000000000000010000000000000000000000000000000000000000010000000000000000000000000000000000000000004000000000000000000000000000000000000002000000800000000000000000000000000000080000008000000020000000000000000000000000000000000000000000000000000000000000000000",
      "type": "0x2",
      "transactionHash": "0x46e94cc3f5e9838f1195030e84cfffe4400284dfde628ba8051eed5483777f13",
      "transactionIndex": "0x49",
      "blockHash": "0x0cc2931ce7380ba17432188b8043bc3e33296ec0b8521568a3256fda4ac5019a",
      "blockNumber": "0x7254ec",
      "gasUsed": "0xfb93",
      "effectiveGasPrice": "0xd159af99",
      "from": "0xc77f7fed3b5cc8249adc428c5f44c9063b9734b4",
      "to": "0x270e88f8683660553e8ba4eb2ad7c91a1710d769",
      "contractAddress": null
    }
  ],
  "libraries": [],
  "pending": [],
  "returns": {},
  "timestamp": 1736895769,
  "chain": 11155111,
  "commit": "51a374b"
}