{
  "transactions": [
    {
      "hash": "0xf0f590287c9bf495e12e1006137f920d43bf869dd483f9665ab01f94752afedd",
      "transactionType": "CALL",
      "contractName": null,
      "contractAddress": "0x8aafd3ede9adb0ff97c7aebce82a919afb1c8764",
      "function": "sell(uint256)",
      "arguments": [
        "1212807888163468357"
      ],
      "transaction": {
        "from": "0xc77f7fed3b5cc8249adc428c5f44c9063b9734b4",
        "to": "0x8aafd3ede9adb0ff97c7aebce82a919afb1c8764",
        "gas": "0x15dca",
        "value": "0x0",
        "input": "0xe4849b3200000000000000000000000000000000000000000000000010d4c2593ac67445",
        "nonce": "0x171c",
        "chainId": "0xaa36a7"
      },
      "additionalContracts": [],
      "isFixedGasLimit": false
    }
  ],
  "receipts": [
    {
      "status": "0x1",
      "cumulativeGasUsed": "0x9d2a7a",
      "logs": [
        {
          "address": "0x8aafd3ede9adb0ff97c7aebce82a919afb1c8764",
          "topics": [
            "0xddf252ad1be2c89b69c2b068fc378daa952ba7f163c4a11628f55a4df523b3ef",
            "0x000000000000000000000000c77f7fed3b5cc8249adc428c5f44c9063b9734b4",
            "0x0000000000000000000000000000000000000000000000000000000000000000"
          ],
          "data": "0x00000000000000000000000000000000000000000000000010b24a027fefdfe3",
          "blockHash": "0xfc9076be15b04484a2d996049c8eaf6537ffea11f42589a0ddbe24c8ab468128",
          "blockNumber": "0x731ee2",
          "transactionHash": "0xf0f590287c9bf495e12e1006137f920d43bf869dd483f9665ab01f94752afedd",
          "transactionIndex": "0x64",
          "logIndex": "0x71",
          "removed": false
        },
        {
          "address": "0x8aafd3ede9adb0ff97c7aebce82a919afb1c8764",
          "topics": [
            "0xddf252ad1be2c89b69c2b068fc378daa952ba7f163c4a11628f55a4df523b3ef",
            "0x000000000000000000000000c77f7fed3b5cc8249adc428c5f44c9063b9734b4",
            "0x000000000000000000000000c77f7fed3b5cc8249adc428c5f44c9063b9734b4"
          ],
          "data": "0x00000000000000000000000000000000000000000000000000227856bad69462",
          "blockHash": "0xfc9076be15b04484a2d996049c8eaf6537ffea11f42589a0ddbe24c8ab468128",
          "blockNumber": "0x731ee2",
          "transactionHash": "0xf0f590287c9bf495e12e1006137f920d43bf869dd483f9665ab01f94752afedd",
          "transactionIndex": "0x64",
          "logIndex": "0x72",
          "removed": false
        },
        {
          "address": "0x8aafd3ede9adb0ff97c7aebce82a919afb1c8764",
          "topics": [
            "0x4afcb4a87cdbd9974efdb92ee48bc8d7cd0ae4bf217004db3d080cbaee652ca7"
          ],
          "data": "0x0000000000000000000000000000000000000000000000000000000067906f800000000000000000000000000000000000000000000000000017603ba1ffb03b000000000000000000000000000000000000000000000000001c5987eea9d3c7",
          "blockHash": "0xfc9076be15b04484a2d996049c8eaf6537ffea11f42589a0ddbe24c8ab468128",
          "blockNumber": "0x731ee2",
          "transactionHash": "0xf0f590287c9bf495e12e1006137f920d43bf869dd483f9665ab01f94752afedd",
          "transactionIndex": "0x64",
          "logIndex": "0x73",
          "removed": false
        }
      ],
      "logsBloom": "0x00000000000000000000000000000000000000000600000000000000000000000000000000000000000000000000000000000000000000004000000000000000000000000000004000000008000000000000000000000000000000000000000000000000020000000000000000000800020000000000000000000010000000000000000000000000000000000000000000000000000000000000010000000000000000000000000000000000000000004000000000000000000000000000000000000002000000800000000000000000000000000000080000000000000020000000000000000000000000000000000000000000000000000000000000000000",
      "type": "0x2",
      "transactionHash": "0xf0f590287c9bf495e12e1006137f920d43bf869dd483f9665ab01f94752afedd",
      "transactionIndex": "0x64",
      "blockHash": "0xfc9076be15b04484a2d996049c8eaf6537ffea11f42589a0ddbe24c8ab468128",
      "blockNumber": "0x731ee2",
      "gasUsed": "0xfd3f",
      "effectiveGasPrice": "0x443104ee",
      "from": "0xc77f7fed3b5cc8249adc428c5f44c9063b9734b4",
      "to": "0x8aafd3ede9adb0ff97c7aebce82a919afb1c8764",
      "contractAddress": null
    }
  ],
  "libraries": [],
  "pending": [],
  "returns": {},
  "timestamp": 1737518977,
  "chain": 11155111,
  "commit": "1d2fb70"
}