{
  "transactions": [
    {
      "hash": "0xdc06745825f4b25cee40fb465123fc6fad7489e9e507195c970e2f3d7743f624",
      "transactionType": "CALL",
      "contractName": null,
      "contractAddress": "0x8aafd3ede9adb0ff97c7aebce82a919afb1c8764",
      "function": "buy(address)",
      "arguments": [
        "0xC77f7fed3b5Cc8249aDc428c5F44C9063B9734b4"
      ],
      "transaction": {
        "from": "0xc77f7fed3b5cc8249adc428c5f44c9063b9734b4",
        "to": "0x8aafd3ede9adb0ff97c7aebce82a919afb1c8764",
        "gas": "0x156ea",
        "value": "0xde0b6b3a7640000",
        "input": "0xf088d547000000000000000000000000c77f7fed3b5cc8249adc428c5f44c9063b9734b4",
        "nonce": "0x13a8",
        "chainId": "0xaa36a7"
      },
      "additionalContracts": [],
      "isFixedGasLimit": false
    }
  ],
  "receipts": [
    {
      "status": "0x1",
      "cumulativeGasUsed": "0x1b3e0c9",
      "logs": [
        {
          "address": "0x8aafd3ede9adb0ff97c7aebce82a919afb1c8764",
          "topics": [
            "0xddf252ad1be2c89b69c2b068fc378daa952ba7f163c4a11628f55a4df523b3ef",
            "0x0000000000000000000000000000000000000000000000000000000000000000",
            "0x000000000000000000000000c77f7fed3b5cc8249adc428c5f44c9063b9734b4"
          ],
          "data": "0x00000000000000000000000000000000000000000000000e91cdc557731b7330",
          "blockHash": "0x589243cdb9db37e10395661c77a3c3943b449d349ab28a7b7b80e384ef67aed7",
          "blockNumber": "0x731acf",
          "transactionHash": "0xdc06745825f4b25cee40fb465123fc6fad7489e9e507195c970e2f3d7743f624",
          "transactionIndex": "0xdb",
          "logIndex": "0x12a",
          "removed": false
        },
        {
          "address": "0x8aafd3ede9adb0ff97c7aebce82a919afb1c8764",
          "topics": [
            "0xddf252ad1be2c89b69c2b068fc378daa952ba7f163c4a11628f55a4df523b3ef",
            "0x0000000000000000000000000000000000000000000000000000000000000000",
            "0x000000000000000000000000c77f7fed3b5cc8249adc428c5f44c9063b9734b4"
          ],
          "data": "0x0000000000000000000000000000000000000000000000000b5051e2dd9d62c2",
          "blockHash": "0x589243cdb9db37e10395661c77a3c3943b449d349ab28a7b7b80e384ef67aed7",
          "blockNumber": "0x731acf",
          "transactionHash": "0xdc06745825f4b25cee40fb465123fc6fad7489e9e507195c970e2f3d7743f624",
          "transactionIndex": "0xdb",
          "logIndex": "0x12b",
          "removed": false
        },
        {
          "address": "0x8aafd3ede9adb0ff97c7aebce82a919afb1c8764",
          "topics": [
            "0x4afcb4a87cdbd9974efdb92ee48bc8d7cd0ae4bf217004db3d080cbaee652ca7"
          ],
          "data": "0x0000000000000000000000000000000000000000000000000000000067903e84000000000000000000000000000000000000000000000000000d1c4dba6d3a910000000000000000000000000000000000000000000000000de0b6b3a7640000",
          "blockHash": "0x589243cdb9db37e10395661c77a3c3943b449d349ab28a7b7b80e384ef67aed7",
          "blockNumber": "0x731acf",
          "transactionHash": "0xdc06745825f4b25cee40fb465123fc6fad7489e9e507195c970e2f3d7743f624",
          "transactionIndex": "0xdb",
          "logIndex": "0x12c",
          "removed": false
        }
      ],
      "logsBloom": "0x00000000000000000000000000000000000000000600000000000000000000000000000000000000000000000000000000000000000000004000000000000000000000000000004000000008000000000000000000000000000000000000000000000000020000000000000000000800020000000000000000000010000000000000000000000000000000000000000000000000000000000000010000000000000000000000000000000000000000004000000000000000000000000000000000000002000000800000000000000000000000000000080000000000000020000000000000000000000000000000000000000000000000000000000000000000",
      "type": "0x2",
      "transactionHash": "0xdc06745825f4b25cee40fb465123fc6fad7489e9e507195c970e2f3d7743f624",
      "transactionIndex": "0xdb",
      "blockHash": "0x589243cdb9db37e10395661c77a3c3943b449d349ab28a7b7b80e384ef67aed7",
      "blockNumber": "0x731acf",
      "gasUsed": "0xf844",
      "effectiveGasPrice": "0x7e9fe413",
      "from": "0xc77f7fed3b5cc8249adc428c5f44c9063b9734b4",
      "to": "0x8aafd3ede9adb0ff97c7aebce82a919afb1c8764",
      "contractAddress": null
    }
  ],
  "libraries": [],
  "pending": [],
  "returns": {},
  "timestamp": 1737506437,
  "chain": 11155111,
  "commit": "1d2fb70"
}