{
  "transactions": [
    {
      "hash": "0x7737dfebf82d653857c9b7786bcc818a7b36e9992c76f8fd28e45fac5fd110ce",
      "transactionType": "CALL",
      "contractName": null,
      "contractAddress": "0x8aafd3ede9adb0ff97c7aebce82a919afb1c8764",
      "function": "sell(uint256)",
      "arguments": [
        "1430386"
      ],
      "transaction": {
        "from": "0xc77f7fed3b5cc8249adc428c5f44c9063b9734b4",
        "to": "0x8aafd3ede9adb0ff97c7aebce82a919afb1c8764",
        "gas": "0x16208",
        "value": "0x0",
        "input": "0xe4849b32000000000000000000000000000000000000000000000000000000000015d372",
        "nonce": "0x11ec",
        "chainId": "0xaa36a7"
      },
      "additionalContracts": [],
      "isFixedGasLimit": false
    }
  ],
  "receipts": [
    {
      "status": "0x1",
      "cumulativeGasUsed": "0x940e65",
      "logs": [
        {
          "address": "0x8aafd3ede9adb0ff97c7aebce82a919afb1c8764",
          "topics": [
            "0xddf252ad1be2c89b69c2b068fc378daa952ba7f163c4a11628f55a4df523b3ef",
            "0x000000000000000000000000c77f7fed3b5cc8249adc428c5f44c9063b9734b4",
            "0x0000000000000000000000000000000000000000000000000000000000000000"
          ],
          "data": "0x000000000000000000000000000000000000000000000000000000000015a6bf",
          "blockHash": "0x77fb63b974bc6f8b307b956a1decd69a1dff95a43acb3aa18358e3ae9ce385f3",
          "blockNumber": "0x7318c4",
          "transactionHash": "0x7737dfebf82d653857c9b7786bcc818a7b36e9992c76f8fd28e45fac5fd110ce",
          "transactionIndex": "0x70",
          "logIndex": "0x89",
          "removed": false
        },
        {
          "address": "0x8aafd3ede9adb0ff97c7aebce82a919afb1c8764",
          "topics": [
            "0xddf252ad1be2c89b69c2b068fc378daa952ba7f163c4a11628f55a4df523b3ef",
            "0x000000000000000000000000c77f7fed3b5cc8249adc428c5f44c9063b9734b4",
            "0x000000000000000000000000c77f7fed3b5cc8249adc428c5f44c9063b9734b4"
          ],
          "data": "0x0000000000000000000000000000000000000000000000000000000000002cb3",
          "blockHash": "0x77fb63b974bc6f8b307b956a1decd69a1dff95a43acb3aa18358e3ae9ce385f3",
          "blockNumber": "0x7318c4",
          "transactionHash": "0x7737dfebf82d653857c9b7786bcc818a7b36e9992c76f8fd28e45fac5fd110ce",
          "transactionIndex": "0x70",
          "logIndex": "0x8a",
          "removed": false
        },
        {
          "address": "0x8aafd3ede9adb0ff97c7aebce82a919afb1c8764",
          "topics": [
            "0x4afcb4a87cdbd9974efdb92ee48bc8d7cd0ae4bf217004db3d080cbaee652ca7"
          ],
          "data": "0x000000000000000000000000000000000000000000000000000000006790260000000000000000000000000000000000000000000000000000052d92a773181d0000000000000000000000000000000000000000000000000000000000000824",
          "blockHash": "0x77fb63b974bc6f8b307b956a1decd69a1dff95a43acb3aa18358e3ae9ce385f3",
          "blockNumber": "0x7318c4",
          "transactionHash": "0x7737dfebf82d653857c9b7786bcc818a7b36e9992c76f8fd28e45fac5fd110ce",
          "transactionIndex": "0x70",
          "logIndex": "0x8b",
          "removed": false
        }
      ],
      "logsBloom": "0x00000000000000000000000000000000000000000600000000000000000000000000000000000000000000000000000000000000000000004000000000000000000000000000004000000008000000000000000000000000000000000000000000000000020000000000000000000800020000000000000000000010000000000000000000000000000000000000000000000000000000000000010000000000000000000000000000000000000000004000000000000000000000000000000000000002000000800000000000000000000000000000080000000000000020000000000000000000000000000000000000000000000000000000000000000000",
      "type": "0x2",
      "transactionHash": "0x7737dfebf82d653857c9b7786bcc818a7b36e9992c76f8fd28e45fac5fd110ce",
      "transactionIndex": "0x70",
      "blockHash": "0x77fb63b974bc6f8b307b956a1decd69a1dff95a43acb3aa18358e3ae9ce385f3",
      "blockNumber": "0x7318c4",
      "gasUsed": "0xf213",
      "effectiveGasPrice": "0x4b56e005",
      "from": "0xc77f7fed3b5cc8249adc428c5f44c9063b9734b4",
      "to": "0x8aafd3ede9adb0ff97c7aebce82a919afb1c8764",
      "contractAddress": null
    }
  ],
  "libraries": [],
  "pending": [],
  "returns": {},
  "timestamp": 1737500160,
  "chain": 11155111,
  "commit": "1d2fb70"
}