{
  "transactions": [
    {
      "hash": "0x408446540ba4176eb9faae46c4862d6509d861f9e6d14bce72d085a24c03512d",
      "transactionType": "CALL",
      "contractName": null,
      "contractAddress": "0x270e88f8683660553e8ba4eb2ad7c91a1710d769",
      "function": "sell(uint256)",
      "arguments": [
        "726162077753964083081"
      ],
      "transaction": {
        "from": "0xc77f7fed3b5cc8249adc428c5f44c9063b9734b4",
        "to": "0x270e88f8683660553e8ba4eb2ad7c91a1710d769",
        "gas": "0x16fec",
        "value": "0x0",
        "input": "0xe4849b320000000000000000000000000000000000000000000000275d85f2587c9db789",
        "nonce": "0x7da",
        "chainId": "0xaa36a7"
      },
      "additionalContracts": [],
      "isFixedGasLimit": false
    }
  ],
  "receipts": [
    {
      "status": "0x1",
      "cumulativeGasUsed": "0xcb08b9",
      "logs": [
        {
          "address": "0x270e88f8683660553e8ba4eb2ad7c91a1710d769",
          "topics": [
            "0xddf252ad1be2c89b69c2b068fc378daa952ba7f163c4a11628f55a4df523b3ef",
            "0x000000000000000000000000c77f7fed3b5cc8249adc428c5f44c9063b9734b4",
            "0x0000000000000000000000000000000000000000000000000000000000000000"
          ],
          "data": "0x0000000000000000000000000000000000000000000000275d85f2587c9db789",
          "blockHash": "0xce87bb5307ab7ec4c4c84e00bb51894bc18e2c08e8e96f25fabb8e95cc4130aa",
          "blockNumber": "0x725513",
          "transactionHash": "0x408446540ba4176eb9faae46c4862d6509d861f9e6d14bce72d085a24c03512d",
          "transactionIndex": "0x3e",
          "logIndex": "0x75",
          "removed": false
        },
        {
          "address": "0x270e88f8683660553e8ba4eb2ad7c91a1710d769",
          "topics": [
            "0x4afcb4a87cdbd9974efdb92ee48bc8d7cd0ae4bf217004db3d080cbaee652ca7"
          ],
          "data": "0x000000000000000000000000000000000000000000000000000000006786eeec0000000000000000000000000000000000000000000000000004dbff53041dfb0000000000000000000000000000000000000000000000000dc82711437d995a",
          "blockHash": "0xce87bb5307ab7ec4c4c84e00bb51894bc18e2c08e8e96f25fabb8e95cc4130aa",
          "blockNumber": "0x725513",
          "transactionHash": "0x408446540ba4176eb9faae46c4862d6509d861f9e6d14bce72d085a24c03512d",
          "transactionIndex": "0x3e",
          "logIndex": "0x76",
          "removed": false
        }
      ],
      "logsBloom": "0x00000000000000000000000000000000000000000000000000000000000000000000000000000000000000000000000020000000000000004000000000000000000000000000000000000008000000000000000000000000000000000000000000000000020000000000000000000800020000000000000000000010000000000000000000010000000000000000000000000000000000000000010000000000000000000000000000000000000000004000000000000000000000000000000000000002000000800000000000000000000000000000080000008000000020000000000000000000000000000000000000000000000000000000000000000000",
      "type": "0x2",
      "transactionHash": "0x408446540ba4176eb9faae46c4862d6509d861f9e6d14bce72d085a24c03512d",
      "transactionIndex": "0x3e",
      "blockHash": "0xce87bb5307ab7ec4c4c84e00bb51894bc18e2c08e8e96f25fabb8e95cc4130aa",
      "blockNumber": "0x725513",
      "gasUsed": "0xfb93",
      "effectiveGasPrice": "0xbecaaf5c",
      "from": "0xc77f7fed3b5cc8249adc428c5f44c9063b9734b4",
      "to": "0x270e88f8683660553e8ba4eb2ad7c91a1710d769",
      "contractAddress": null
    }
  ],
  "libraries": [],
  "pending": [],
  "returns": {},
  "timestamp": 1736896238,
  "chain": 11155111,
  "commit": "51a374b"
}