{
  "transactions": [
    {
      "hash": "0xe3fb429e2d4e0a721b928cc4909b194a0e8653649efcc33e0f5197b11a006549",
      "transactionType": "CALL",
      "contractName": null,
      "contractAddress": "0xbf4a322f1496e5c3d34a9bcdb4c60567b38c7de2",
      "function": "buy(address)",
      "arguments": [
        "0xC77f7fed3b5Cc8249aDc428c5F44C9063B9734b4"
      ],
      "transaction": {
        "from": "0xc77f7fed3b5cc8249adc428c5f44c9063b9734b4",
        "to": "0xbf4a322f1496e5c3d34a9bcdb4c60567b38c7de2",
        "gas": "0x1b309",
        "value": "0xde0b6b3a7640000",
        "input": "0xf088d547000000000000000000000000c77f7fed3b5cc8249adc428c5f44c9063b9734b4",
        "nonce": "0xd44",
        "chainId": "0xaa36a7"
      },
      "additionalContracts": [],
      "isFixedGasLimit": false
    }
  ],
  "receipts": [
    {
      "status": "0x1",
      "cumulativeGasUsed": "0x21f366f",
      "logs": [
        {
          "address": "0xbf4a322f1496e5c3d34a9bcdb4c60567b38c7de2",
          "topics": [
            "0xddf252ad1be2c89b69c2b068fc378daa952ba7f163c4a11628f55a4df523b3ef",
            "0x0000000000000000000000000000000000000000000000000000000000000000",
            "0x000000000000000000000000c77f7fed3b5cc8249adc428c5f44c9063b9734b4"
          ],
          "data": "0x000000000000000000000000000000000000000000000034bf680e4e5d385cee",
          "blockHash": "0xd6a7c12a47cc70c9838f7871be6fdf4c191b69dd00036b142f0fdd3ca8a998ac",
          "blockNumber": "0x725dab",
          "transactionHash": "0xe3fb429e2d4e0a721b928cc4909b194a0e8653649efcc33e0f5197b11a006549",
          "transactionIndex": "0xe4",
          "logIndex": "0x284",
          "removed": false
        },
        {
          "address": "0xbf4a322f1496e5c3d34a9bcdb4c60567b38c7de2",
          "topics": [
            "0xddf252ad1be2c89b69c2b068fc378daa952ba7f163c4a11628f55a4df523b3ef",
            "0x0000000000000000000000000000000000000000000000000000000000000000",
            "0x000000000000000000000000c77f7fed3b5cc8249adc428c5f44c9063b9734b4"
          ],
          "data": "0x00000000000000000000000000000000000000000000000028f5db10996a50bf",
          "blockHash": "0xd6a7c12a47cc70c9838f7871be6fdf4c191b69dd00036b142f0fdd3ca8a998ac",
          "blockNumber": "0x725dab",
          "transactionHash": "0xe3fb429e2d4e0a721b928cc4909b194a0e8653649efcc33e0f5197b11a006549",
          "transactionIndex": "0xe4",
          "logIndex": "0x285",
          "removed": false
        },
        {
          "address": "0xbf4a322f1496e5c3d34a9bcdb4c60567b38c7de2",
          "topics": [
            "0x4afcb4a87cdbd9974efdb92ee48bc8d7cd0ae4bf217004db3d080cbaee652ca7"
          ],
          "data": "0x000000000000000000000000000000000000000000000000000000006787567800000000000000000000000000000000000000000000000000039d5f551ea2cc0000000000000000000000000000000000000000000000000de0b6b3a7640000",
          "blockHash": "0xd6a7c12a47cc70c9838f7871be6fdf4c191b69dd00036b142f0fdd3ca8a998ac",
          "blockNumber": "0x725dab",
          "transactionHash": "0xe3fb429e2d4e0a721b928cc4909b194a0e8653649efcc33e0f5197b11a006549",
          "transactionIndex": "0xe4",
          "logIndex": "0x286",
          "removed": false
        }
      ],
      "logsBloom": "0x00000000000000000000000000000000000000000000000000000000000000000000000000000000000000000000000000000000000000004000000000000000000000000000000000000008000000000000001000000000000000000000000000000000020000000000000000000800020000000000000000000010000000000000000000000000000000000000000000000000000008000000010000000000000000000000000000000000000000004000000000000000000000000000000000000002000000800000000000001000000000000000080000000000000020000000000000000000000000000000000000000000000000000000000000000000",
      "type": "0x2",
      "transactionHash": "0xe3fb429e2d4e0a721b928cc4909b194a0e8653649efcc33e0f5197b11a006549",
      "transactionIndex": "0xe4",
      "blockHash": "0xd6a7c12a47cc70c9838f7871be6fdf4c191b69dd00036b142f0fdd3ca8a998ac",
      "blockNumber": "0x725dab",
      "gasUsed": "0x13af6",
      "effectiveGasPrice": "0x49a4e8057",
      "from": "0xc77f7fed3b5cc8249adc428c5f44c9063b9734b4",
      "to": "0xbf4a322f1496e5c3d34a9bcdb4c60567b38c7de2",
      "contractAddress": null
    }
  ],
  "libraries": [],
  "pending": [],
  "returns": {},
  "timestamp": 1736922746,
  "chain": 11155111,
  "commit": "51a374b"
}