{
  "transactions": [
    {
      "hash": "0xdd6f883fccd31c48b55f0d7fb3a1de84763c5950162c7c11b705524929199a3c",
      "transactionType": "CALL",
      "contractName": null,
      "contractAddress": "0xbf4a322f1496e5c3d34a9bcdb4c60567b38c7de2",
      "function": "buy(address)",
      "arguments": [
        "0xC77f7fed3b5Cc8249aDc428c5F44C9063B9734b4"
      ],
      "transaction": {
        "from": "0xc77f7fed3b5cc8249adc428c5f44c9063b9734b4",
        "to": "0xbf4a322f1496e5c3d34a9bcdb4c60567b38c7de2",
        "gas": "0x1b309",
        "value": "0xde0b6b3a7640000",
        "input": "0xf088d547000000000000000000000000c77f7fed3b5cc8249adc428c5f44c9063b9734b4",
        "nonce": "0xa72",
        "chainId": "0xaa36a7"
      },
      "additionalContracts": [],
      "isFixedGasLimit": false
    }
  ],
  "receipts": [
    {
      "status": "0x1",
      "cumulativeGasUsed": "0xa30b74",
      "logs": [
        {
          "address": "0xbf4a322f1496e5c3d34a9bcdb4c60567b38c7de2",
          "topics": [
            "0xddf252ad1be2c89b69c2b068fc378daa952ba7f163c4a11628f55a4df523b3ef",
            "0x0000000000000000000000000000000000000000000000000000000000000000",
            "0x000000000000000000000000c77f7fed3b5cc8249adc428c5f44c9063b9734b4"
          ],
          "data": "0x00000000000000000000000000000000000000000000003545c11c145c36683e",
          "blockHash": "0x330d1a8ed6f176820ad2e728c22a0a47069d4524ab9eac6432b4f1322930b7cc",
          "blockNumber": "0x725a4f",
          "transactionHash": "0xdd6f883fccd31c48b55f0d7fb3a1de84763c5950162c7c11b705524929199a3c",
          "transactionIndex": "0x57",
          "logIndex": "0xa3",
          "removed": false
        },
        {
          "address": "0xbf4a322f1496e5c3d34a9bcdb4c60567b38c7de2",
          "topics": [
            "0xddf252ad1be2c89b69c2b068fc378daa952ba7f163c4a11628f55a4df523b3ef",
            "0x0000000000000000000000000000000000000000000000000000000000000000",
            "0x000000000000000000000000c77f7fed3b5cc8249adc428c5f44c9063b9734b4"
          ],
          "data": "0x000000000000000000000000000000000000000000000000295e2e71bb172c7a",
          "blockHash": "0x330d1a8ed6f176820ad2e728c22a0a47069d4524ab9eac6432b4f1322930b7cc",
          "blockNumber": "0x725a4f",
          "transactionHash": "0xdd6f883fccd31c48b55f0d7fb3a1de84763c5950162c7c11b705524929199a3c",
          "transactionIndex": "0x57",
          "logIndex": "0xa4",
          "removed": false
        },
        {
          "address": "0xbf4a322f1496e5c3d34a9bcdb4c60567b38c7de2",
          "topics": [
            "0x4afcb4a87cdbd9974efdb92ee48bc8d7cd0ae4bf217004db3d080cbaee652ca7"
          ],
          "data": "0x0000000000000000000000000000000000000000000000000000000067872e0400000000000000000000000000000000000000000000000000039441a89fcd370000000000000000000000000000000000000000000000000de0b6b3a7640000",
          "blockHash": "0x330d1a8ed6f176820ad2e728c22a0a47069d4524ab9eac6432b4f1322930b7cc",
          "blockNumber": "0x725a4f",
          "transactionHash": "0xdd6f883fccd31c48b55f0d7fb3a1de84763c5950162c7c11b705524929199a3c",
          "transactionIndex": "0x57",
          "logIndex": "0xa5",
          "removed": false
        }
      ],
      "logsBloom": "0x00000000000000000000000000000000000000000000000000000000000000000000000000000000000000000000000000000000000000004000000000000000000000000000000000000008000000000000001000000000000000000000000000000000020000000000000000000800020000000000000000000010000000000000000000000000000000000000000000000000000008000000010000000000000000000000000000000000000000004000000000000000000000000000000000000002000000800000000000001000000000000000080000000000000020000000000000000000000000000000000000000000000000000000000000000000",
      "type": "0x2",
      "transactionHash": "0xdd6f883fccd31c48b55f0d7fb3a1de84763c5950162c7c11b705524929199a3c",
      "transactionIndex": "0x57",
      "blockHash": "0x330d1a8ed6f176820ad2e728c22a0a47069d4524ab9eac6432b4f1322930b7cc",
      "blockNumber": "0x725a4f",
      "gasUsed": "0x13af6",
      "effectiveGasPrice": "0x34701da49",
      "from": "0xc77f7fed3b5cc8249adc428c5f44c9063b9734b4",
      "to": "0xbf4a322f1496e5c3d34a9bcdb4c60567b38c7de2",
      "contractAddress": null
    }
  ],
  "libraries": [],
  "pending": [],
  "returns": {},
  "timestamp": 1736912391,
  "chain": 11155111,
  "commit": "51a374b"
}