{
  "transactions": [
    {
      "hash": "0xfe9c8848da32bc4abf5a31c2aba5e8252995bbd25593e54e6f736dd3e192dc23",
      "transactionType": "CALL",
      "contractName": null,
      "contractAddress": "0x5eb9cc76c3506942c1c0ead70e877dd5e4f00cb0",
      "function": "sell(uint256)",
      "arguments": [
        "989154500922714217148"
      ],
      "transaction": {
        "from": "0xc77f7fed3b5cc8249adc428c5f44c9063b9734b4",
        "to": "0x5eb9cc76c3506942c1c0ead70e877dd5e4f00cb0",
        "gas": "0x16fec",
        "value": "0x0",
        "input": "0xe4849b320000000000000000000000000000000000000000000000359f46b9d2f52ddabc",
        "nonce": "0x2ab",
        "chainId": "0xaa36a7"
      },
      "additionalContracts": [],
      "isFixedGasLimit": false
    }
  ],
  "receipts": [
    {
      "status": "0x1",
      "cumulativeGasUsed": "0x184517d",
      "logs": [
        {
          "address": "0x5eb9cc76c3506942c1c0ead70e877dd5e4f00cb0",
          "topics": [
            "0xddf252ad1be2c89b69c2b068fc378daa952ba7f163c4a11628f55a4df523b3ef",
            "0x000000000000000000000000c77f7fed3b5cc8249adc428c5f44c9063b9734b4",
            "0x0000000000000000000000000000000000000000000000000000000000000000"
          ],
          "data": "0x0000000000000000000000000000000000000000000000359f46b9d2f52ddabc",
          "blockHash": "0xaaf22581c55c699b8cc4ab0c30720a9d683ae7626c242821f87e92a74c60d139",
          "blockNumber": "0x724e85",
          "transactionHash": "0xfe9c8848da32bc4abf5a31c2aba5e8252995bbd25593e54e6f736dd3e192dc23",
          "transactionIndex": "0xb9",
          "logIndex": "0x193",
          "removed": false
        },
        {
          "address": "0x5eb9cc76c3506942c1c0ead70e877dd5e4f00cb0",
          "topics": [
            "0x4afcb4a87cdbd9974efdb92ee48bc8d7cd0ae4bf217004db3d080cbaee652ca7"
          ],
          "data": "0x0000000000000000000000000000000000000000000000000000000067869ff00000000000000000000000000000000000000000000000000003910897c48f670000000000000000000000000000000000000000000000000dc7db1332486cf3",
          "blockHash": "0xaaf22581c55c699b8cc4ab0c30720a9d683ae7626c242821f87e92a74c60d139",
          "blockNumber": "0x724e85",
          "transactionHash": "0xfe9c8848da32bc4abf5a31c2aba5e8252995bbd25593e54e6f736dd3e192dc23",
          "transactionIndex": "0xb9",
          "logIndex": "0x194",
          "removed": false
        }
      ],
      "logsBloom": "0x00000000000000000000000000000000000000000000000000000000000000000000000000000000000000000000000000000000000000004000000000000000000000000000000000000008000000000000000000000000000000000000000000000000020000000000000004000800020000000000000000000010000000000000000000000000000000000000000000000000000000000000010000000000000000000000000000000000000000004000000000000000000000000000020000000002000000800000008000000000000000000000080000000000000020000000000000000000000000000000000000000000000000000000000000000000",
      "type": "0x2",
      "transactionHash": "0xfe9c8848da32bc4abf5a31c2aba5e8252995bbd25593e54e6f736dd3e192dc23",
      "transactionIndex": "0xb9",
      "blockHash": "0xaaf22581c55c699b8cc4ab0c30720a9d683ae7626c242821f87e92a74c60d139",
      "blockNumber": "0x724e85",
      "gasUsed": "0xfb93",
      "effectiveGasPrice": "0x3ff382309",
      "from": "0xc77f7fed3b5cc8249adc428c5f44c9063b9734b4",
      "to": "0x5eb9cc76c3506942c1c0ead70e877dd5e4f00cb0",
      "contractAddress": null
    }
  ],
  "libraries": [],
  "pending": [],
  "returns": {},
  "timestamp": 1736876018,
  "chain": 11155111,
  "commit": "51a374b"
}