{
  "transactions": [
    {
      "hash": "0xa424b0c6f8e24cadd05f92c23449a7dff9a01773d286b4b9c3e1b548e576e13c",
      "transactionType": "CALL",
      "contractName": null,
      "contractAddress": "0x8aafd3ede9adb0ff97c7aebce82a919afb1c8764",
      "function": "sell(uint256)",
      "arguments": [
        "187866063"
      ],
      "transaction": {
        "from": "0xc77f7fed3b5cc8249adc428c5f44c9063b9734b4",
        "to": "0x8aafd3ede9adb0ff97c7aebce82a919afb1c8764",
        "gas": "0x14e6c",
        "value": "0x0",
        "input": "0xe4849b32000000000000000000000000000000000000000000000000000000000b329bcf",
        "nonce": "0x1033",
        "chainId": "0xaa36a7"
      },
      "additionalContracts": [],
      "isFixedGasLimit": false
    }
  ],
  "receipts": [
    {
      "status": "0x1",
      "cumulativeGasUsed": "0xea084a",
      "logs": [
        {
          "address": "0x8aafd3ede9adb0ff97c7aebce82a919afb1c8764",
          "topics": [
            "0xddf252ad1be2c89b69c2b068fc378daa952ba7f163c4a11628f55a4df523b3ef",
            "0x000000000000000000000000c77f7fed3b5cc8249adc428c5f44c9063b9734b4",
            "0x0000000000000000000000000000000000000000000000000000000000000000"
          ],
          "data": "0x000000000000000000000000000000000000000000000000000000000b1bacff",
          "blockHash": "0xe9c09d88e1ce5442f67869685570945f2b7ecad86e802fe7c76d526c968fc90d",
          "blockNumber": "0x7316b0",
          "transactionHash": "0xa424b0c6f8e24cadd05f92c23449a7dff9a01773d286b4b9c3e1b548e576e13c",
          "transactionIndex": "0x7d",
          "logIndex": "0xb0",
          "removed": false
        },
        {
          "address": "0x8aafd3ede9adb0ff97c7aebce82a919afb1c8764",
          "topics": [
            "0xddf252ad1be2c89b69c2b068fc378daa952ba7f163c4a11628f55a4df523b3ef",
            "0x000000000000000000000000c77f7fed3b5cc8249adc428c5f44c9063b9734b4",
            "0x000000000000000000000000c77f7fed3b5cc8249adc428c5f44c9063b9734b4"
          ],
          "data": "0x000000000000000000000000000000000000000000000000000000000016eed0",
          "blockHash": "0xe9c09d88e1ce5442f67869685570945f2b7ecad86e802fe7c76d526c968fc90d",
          "blockNumber": "0x7316b0",
          "transactionHash": "0xa424b0c6f8e24cadd05f92c23449a7dff9a01773d286b4b9c3e1b548e576e13c",
          "transactionIndex": "0x7d",
          "logIndex": "0xb1",
          "removed": false
        },
        {
          "address": "0x8aafd3ede9adb0ff97c7aebce82a919afb1c8764",
          "topics": [
            "0x4afcb4a87cdbd9974efdb92ee48bc8d7cd0ae4bf217004db3d080cbaee652ca7"
          ],
          "data": "0x0000000000000000000000000000000000000000000000000000000067900cf80000000000000000000000000000000000000000000000000004eda90c28fe09000000000000000000000000000000000000000000000000000000000003fa01",
          "blockHash": "0xe9c09d88e1ce5442f67869685570945f2b7ecad86e802fe7c76d526c968fc90d",
          "blockNumber": "0x7316b0",
          "transactionHash": "0xa424b0c6f8e24cadd05f92c23449a7dff9a01773d286b4b9c3e1b548e576e13c",
          "transactionIndex": "0x7d",
          "logIndex": "0xb2",
          "removed": false
        }
      ],
      "logsBloom": "0x00000000000000000000000000000000000000000600000000000000000000000000000000000000000000000000000000000000000000004000000000000000000000000000004000000008000000000000000000000000000000000000000000000000020000000000000000000800020000000000000000000010000000000000000000000000000000000000000000000000000000000000010000000000000000000000000000000000000000004000000000000000000000000000000000000002000000800000000000000000000000000000080000000000000020000000000000000000000000000000000000000000000000000000000000000000",
      "type": "0x2",
      "transactionHash": "0xa424b0c6f8e24cadd05f92c23449a7dff9a01773d286b4b9c3e1b548e576e13c",
      "transactionIndex": "0x7d",
      "blockHash": "0xe9c09d88e1ce5442f67869685570945f2b7ecad86e802fe7c76d526c968fc90d",
      "blockNumber": "0x7316b0",
      "gasUsed": "0xf21f",
      "effectiveGasPrice": "0x498ac362",
      "from": "0xc77f7fed3b5cc8249adc428c5f44c9063b9734b4",
      "to": "0x8aafd3ede9adb0ff97c7aebce82a919afb1c8764",
      "contractAddress": null
    }
  ],
  "libraries": [],
  "pending": [],
  "returns": {},
  "timestamp": 1737493753,
  "chain": 11155111,
  "commit": "1d2fb70"
}