{
  "transactions": [
    {
      "hash": "0x3046e65ae2de2e9212f40e564923d6eaf6a0a81cac8bcd383c11b9735f738bd7",
      "transactionType": "CALL",
      "contractName": null,
      "contractAddress": "0xbf4a322f1496e5c3d34a9bcdb4c60567b38c7de2",
      "function": "buy(address)",
      "arguments": [
        "0xC77f7fed3b5Cc8249aDc428c5F44C9063B9734b4"
      ],
      "transaction": {
        "from": "0xc77f7fed3b5cc8249adc428c5f44c9063b9734b4",
        "to": "0xbf4a322f1496e5c3d34a9bcdb4c60567b38c7de2",
        "gas": "0x1b309",
        "value": "0xde0b6b3a7640000",
        "input": "0xf088d547000000000000000000000000c77f7fed3b5cc8249adc428c5f44c9063b9734b4",
        "nonce": "0xb7e",
        "chainId": "0xaa36a7"
      },
      "additionalContracts": [],
      "isFixedGasLimit": false
    }
  ],
  "receipts": [
    {
      "status": "0x1",
      "cumulativeGasUsed": "0xa05d4d",
      "logs": [
        {
          "address": "0xbf4a322f1496e5c3d34a9bcdb4c60567b38c7de2",
          "topics": [
            "0xddf252ad1be2c89b69c2b068fc378daa952ba7f163c4a11628f55a4df523b3ef",
            "0x0000000000000000000000000000000000000000000000000000000000000000",
            "0x000000000000000000000000c77f7fed3b5cc8249adc428c5f44c9063b9734b4"
          ],
          "data": "0x0000000000000000000000000000000000000000000000351393288f557ca987",
          "blockHash": "0x24f7b1d715a9b0e070e2a4c352f173459fb7d8092c322b26506e14b61a74e4d6",
          "blockNumber": "0x725b8d",
          "transactionHash": "0x3046e65ae2de2e9212f40e564923d6eaf6a0a81cac8bcd383c11b9735f738bd7",
          "transactionIndex": "0x55",
          "logIndex": "0x8c",
          "removed": false
        },
        {
          "address": "0xbf4a322f1496e5c3d34a9bcdb4c60567b38c7de2",
          "topics": [
            "0xddf252ad1be2c89b69c2b068fc378daa952ba7f163c4a11628f55a4df523b3ef",
            "0x0000000000000000000000000000000000000000000000000000000000000000",
            "0x000000000000000000000000c77f7fed3b5cc8249adc428c5f44c9063b9734b4"
          ],
          "data": "0x0000000000000000000000000000000000000000000000002937371ffc409cf0",
          "blockHash": "0x24f7b1d715a9b0e070e2a4c352f173459fb7d8092c322b26506e14b61a74e4d6",
          "blockNumber": "0x725b8d",
          "transactionHash": "0x3046e65ae2de2e9212f40e564923d6eaf6a0a81cac8bcd383c11b9735f738bd7",
          "transactionIndex": "0x55",
          "logIndex": "0x8d",
          "removed": false
        },
        {
          "address": "0xbf4a322f1496e5c3d34a9bcdb4c60567b38c7de2",
          "topics": [
            "0x4afcb4a87cdbd9974efdb92ee48bc8d7cd0ae4bf217004db3d080cbaee652ca7"
          ],
          "data": "0x0000000000000000000000000000000000000000000000000000000067873cf8000000000000000000000000000000000000000000000000000397a3e578d74c0000000000000000000000000000000000000000000000000de0b6b3a7640000",
          "blockHash": "0x24f7b1d715a9b0e070e2a4c352f173459fb7d8092c322b26506e14b61a74e4d6",
          "blockNumber": "0x725b8d",
          "transactionHash": "0x3046e65ae2de2e9212f40e564923d6eaf6a0a81cac8bcd383c11b9735f738bd7",
          "transactionIndex": "0x55",
          "logIndex": "0x8e",
          "removed": false
        }
      ],
      "logsBloom": "0x00000000000000000000000000000000000000000000000000000000000000000000000000000000000000000000000000000000000000004000000000000000000000000000000000000008000000000000001000000000000000000000000000000000020000000000000000000800020000000000000000000010000000000000000000000000000000000000000000000000000008000000010000000000000000000000000000000000000000004000000000000000000000000000000000000002000000800000000000001000000000000000080000000000000020000000000000000000000000000000000000000000000000000000000000000000",
      "type": "0x2",
      "transactionHash": "0x3046e65ae2de2e9212f40e564923d6eaf6a0a81cac8bcd383c11b9735f738bd7",
      "transactionIndex": "0x55",
      "blockHash": "0x24f7b1d715a9b0e070e2a4c352f173459fb7d8092c322b26506e14b61a74e4d6",
      "blockNumber": "0x725b8d",
      "gasUsed": "0x13af6",
      "effectiveGasPrice": "0x3d00208b",
      "from": "0xc77f7fed3b5cc8249adc428c5f44c9063b9734b4",
      "to": "0xbf4a322f1496e5c3d34a9bcdb4c60567b38c7de2",
      "contractAddress": null
    }
  ],
  "libraries": [],
  "pending": [],
  "returns": {},
  "timestamp": 1736916217,
  "chain": 11155111,
  "commit": "51a374b"
}