{
  "transactions": [
    {
      "hash": "0x1781c3a183e29fc2198203435fbb020d281035334b5f90d9f95903acae06a844",
      "transactionType": "CALL",
      "contractName": null,
      "contractAddress": "0xbf4a322f1496e5c3d34a9bcdb4c60567b38c7de2",
      "function": "buy(address)",
      "arguments": [
        "0xC77f7fed3b5Cc8249aDc428c5F44C9063B9734b4"
      ],
      "transaction": {
        "from": "0xc77f7fed3b5cc8249adc428c5f44c9063b9734b4",
        "to": "0xbf4a322f1496e5c3d34a9bcdb4c60567b38c7de2",
        "gas": "0x1b309",
        "value": "0xde0b6b3a7640000",
        "input": "0xf088d547000000000000000000000000c77f7fed3b5cc8249adc428c5f44c9063b9734b4",
        "nonce": "0xad8",
        "chainId": "0xaa36a7"
      },
      "additionalContracts": [],
      "isFixedGasLimit": false
    }
  ],
  "receipts": [
    {
      "status": "0x1",
      "cumulativeGasUsed": "0xce0ee4",
      "logs": [
        {
          "address": "0xbf4a322f1496e5c3d34a9bcdb4c60567b38c7de2",
          "topics": [
            "0xddf252ad1be2c89b69c2b068fc378daa952ba7f163c4a11628f55a4df523b3ef",
            "0x0000000000000000000000000000000000000000000000000000000000000000",
            "0x000000000000000000000000c77f7fed3b5cc8249adc428c5f44c9063b9734b4"
          ],
          "data": "0x000000000000000000000000000000000000000000000035329cd04d69abd34b",
          "blockHash": "0x74895c81df5dca61348288b87d6f5c9ab14226da2ccda913a93e5e89b78157ea",
          "blockNumber": "0x725acb",
          "transactionHash": "0x1781c3a183e29fc2198203435fbb020d281035334b5f90d9f95903acae06a844",
          "transactionIndex": "0x79",
          "logIndex": "0xa5",
          "removed": false
        },
        {
          "address": "0xbf4a322f1496e5c3d34a9bcdb4c60567b38c7de2",
          "topics": [
            "0xddf252ad1be2c89b69c2b068fc378daa952ba7f163c4a11628f55a4df523b3ef",
            "0x0000000000000000000000000000000000000000000000000000000000000000",
            "0x000000000000000000000000c77f7fed3b5cc8249adc428c5f44c9063b9734b4"
          ],
          "data": "0x000000000000000000000000000000000000000000000000294f51327ff79b49",
          "blockHash": "0x74895c81df5dca61348288b87d6f5c9ab14226da2ccda913a93e5e89b78157ea",
          "blockNumber": "0x725acb",
          "transactionHash": "0x1781c3a183e29fc2198203435fbb020d281035334b5f90d9f95903acae06a844",
          "transactionIndex": "0x79",
          "logIndex": "0xa6",
          "removed": false
        },
        {
          "address": "0xbf4a322f1496e5c3d34a9bcdb4c60567b38c7de2",
          "topics": [
            "0x4afcb4a87cdbd9974efdb92ee48bc8d7cd0ae4bf217004db3d080cbaee652ca7"
          ],
          "data": "0x00000000000000000000000000000000000000000000000000000000678733d40000000000000000000000000000000000000000000000000003958b589201e00000000000000000000000000000000000000000000000000de0b6b3a7640000",
          "blockHash": "0x74895c81df5dca61348288b87d6f5c9ab14226da2ccda913a93e5e89b78157ea",
          "blockNumber": "0x725acb",
          "transactionHash": "0x1781c3a183e29fc2198203435fbb020d281035334b5f90d9f95903acae06a844",
          "transactionIndex": "0x79",
          "logIndex": "0xa7",
          "removed": false
        }
      ],
      "logsBloom": "0x00000000000000000000000000000000000000000000000000000000000000000000000000000000000000000000000000000000000000004000000000000000000000000000000000000008000000000000001000000000000000000000000000000000020000000000000000000800020000000000000000000010000000000000000000000000000000000000000000000000000008000000010000000000000000000000000000000000000000004000000000000000000000000000000000000002000000800000000000001000000000000000080000000000000020000000000000000000000000000000000000000000000000000000000000000000",
      "type": "0x2",
      "transactionHash": "0x1781c3a183e29fc2198203435fbb020d281035334b5f90d9f95903acae06a844",
      "transactionIndex": "0x79",
      "blockHash": "0x74895c81df5dca61348288b87d6f5c9ab14226da2ccda913a93e5e89b78157ea",
      "blockNumber": "0x725acb",
      "gasUsed": "0x13af6",
      "effectiveGasPrice": "0xd880fbbf",
      "from": "0xc77f7fed3b5cc8249adc428c5f44c9063b9734b4",
      "to": "0xbf4a322f1496e5c3d34a9bcdb4c60567b38c7de2",
      "contractAddress": null
    }
  ],
  "libraries": [],
  "pending": [],
  "returns": {},
  "timestamp": 1736913877,
  "chain": 11155111,
  "commit": "51a374b"
}