{
  "transactions": [
    {
      "hash": "0x112c44643bd27653dad9fcba12e4e036d16b48673cd4eddc69c6a8145397acfe",
      "transactionType": "CALL",
      "contractName": null,
      "contractAddress": "0x8aafd3ede9adb0ff97c7aebce82a919afb1c8764",
      "function": "sell(uint256)",
      "arguments": [
        "1402499479251956142"
      ],
      "transaction": {
        "from": "0xc77f7fed3b5cc8249adc428c5f44c9063b9734b4",
        "to": "0x8aafd3ede9adb0ff97c7aebce82a919afb1c8764",
        "gas": "0x15dca",
        "value": "0x0",
        "input": "0xe4849b320000000000000000000000000000000000000000000000001376add87a7bb1ae",
        "nonce": "0x160e",
        "chainId": "0xaa36a7"
      },
      "additionalContracts": [],
      "isFixedGasLimit": false
    }
  ],
  "receipts": [
    {
      "status": "0x1",
      "cumulativeGasUsed": "0x881bdc",
      "logs": [
        {
          "address": "0x8aafd3ede9adb0ff97c7aebce82a919afb1c8764",
          "topics": [
            "0xddf252ad1be2c89b69c2b068fc378daa952ba7f163c4a11628f55a4df523b3ef",
            "0x000000000000000000000000c77f7fed3b5cc8249adc428c5f44c9063b9734b4",
            "0x0000000000000000000000000000000000000000000000000000000000000000"
          ],
          "data": "0x000000000000000000000000000000000000000000000000134ed151a06a520d",
          "blockHash": "0x5ccbe4994affbe751c7072b53b0ca98e7158a408322a9f206f390b8b5fc5491e",
          "blockNumber": "0x731da2",
          "transactionHash": "0x112c44643bd27653dad9fcba12e4e036d16b48673cd4eddc69c6a8145397acfe",
          "transactionIndex": "0x69",
          "logIndex": "0x7c",
          "removed": false
        },
        {
          "address": "0x8aafd3ede9adb0ff97c7aebce82a919afb1c8764",
          "topics": [
            "0xddf252ad1be2c89b69c2b068fc378daa952ba7f163c4a11628f55a4df523b3ef",
            "0x000000000000000000000000c77f7fed3b5cc8249adc428c5f44c9063b9734b4",
            "0x000000000000000000000000c77f7fed3b5cc8249adc428c5f44c9063b9734b4"
          ],
          "data": "0x0000000000000000000000000000000000000000000000000027dc86da115fa1",
          "blockHash": "0x5ccbe4994affbe751c7072b53b0ca98e7158a408322a9f206f390b8b5fc5491e",
          "blockNumber": "0x731da2",
          "transactionHash": "0x112c44643bd27653dad9fcba12e4e036d16b48673cd4eddc69c6a8145397acfe",
          "transactionIndex": "0x69",
          "logIndex": "0x7d",
          "removed": false
        },
        {
          "address": "0x8aafd3ede9adb0ff97c7aebce82a919afb1c8764",
          "topics": [
            "0x4afcb4a87cdbd9974efdb92ee48bc8d7cd0ae4bf217004db3d080cbaee652ca7"
          ],
          "data": "0x000000000000000000000000000000000000000000000000000000006790608000000000000000000000000000000000000000000000000000143a51ee6beac8000000000000000000000000000000000000000000000000001c5e5de3a7ec08",
          "blockHash": "0x5ccbe4994affbe751c7072b53b0ca98e7158a408322a9f206f390b8b5fc5491e",
          "blockNumber": "0x731da2",
          "transactionHash": "0x112c44643bd27653dad9fcba12e4e036d16b48673cd4eddc69c6a8145397acfe",
          "transactionIndex": "0x69",
          "logIndex": "0x7e",
          "removed": false
        }
      ],
      "logsBloom": "0x00000000000000000000000000000000000000000600000000000000000000000000000000000000000000000000000000000000000000004000000000000000000000000000004000000008000000000000000000000000000000000000000000000000020000000000000000000800020000000000000000000010000000000000000000000000000000000000000000000000000000000000010000000000000000000000000000000000000000004000000000000000000000000000000000000002000000800000000000000000000000000000080000000000000020000000000000000000000000000000000000000000000000000000000000000000",
      "type": "0x2",
      "transactionHash": "0x112c44643bd27653dad9fcba12e4e036d16b48673cd4eddc69c6a8145397acfe",
      "transactionIndex": "0x69",
      "blockHash": "0x5ccbe4994affbe751c7072b53b0ca98e7158a408322a9f206f390b8b5fc5491e",
      "blockNumber": "0x731da2",
      "gasUsed": "0xfd3f",
      "effectiveGasPrice": "0x82e502f1",
      "from": "0xc77f7fed3b5cc8249adc428c5f44c9063b9734b4",
      "to": "0x8aafd3ede9adb0ff97c7aebce82a919afb1c8764",
      "contractAddress": null
    }
  ],
  "libraries": [],
  "pending": [],
  "returns": {},
  "timestamp": 1737515136,
  "chain": 11155111,
  "commit": "1d2fb70"
}