{
  "transactions": [
    {
      "hash": "0x4b760d289886948a791938f5f73ef2d805ba7bd28884eb20f93e351901b6efd5",
      "transactionType": "CALL",
      "contractName": null,
      "contractAddress": "0x8aafd3ede9adb0ff97c7aebce82a919afb1c8764",
      "function": "sell(uint256)",
      "arguments": [
        "5456490702499930034"
      ],
      "transaction": {
        "from": "0xc77f7fed3b5cc8249adc428c5f44c9063b9734b4",
        "to": "0x8aafd3ede9adb0ff97c7aebce82a919afb1c8764",
        "gas": "0x15dca",
        "value": "0x0",
        "input": "0xe4849b320000000000000000000000000000000000000000000000004bb959625abadfb2",
        "nonce": "0x11e6",
        "chainId": "0xaa36a7"
      },
      "additionalContracts": [],
      "isFixedGasLimit": false
    }
  ],
  "receipts": [
    {
      "status": "0x1",
      "cumulativeGasUsed": "0x857cf2",
      "logs": [
        {
          "address": "0x8aafd3ede9adb0ff97c7aebce82a919afb1c8764",
          "topics": [
            "0xddf252ad1be2c89b69c2b068fc378daa952ba7f163c4a11628f55a4df523b3ef",
            "0x000000000000000000000000c77f7fed3b5cc8249adc428c5f44c9063b9734b4",
            "0x0000000000000000000000000000000000000000000000000000000000000000"
          ],
          "data": "0x0000000000000000000000000000000000000000000000004b1e44306a635ce2",
          "blockHash": "0x6bd966a8a77dd25405b59303e3df37d269061e6d452b44f77cc9cb2831c11109",
          "blockNumber": "0x7318bc",
          "transactionHash": "0x4b760d289886948a791938f5f73ef2d805ba7bd28884eb20f93e351901b6efd5",
          "transactionIndex": "0x61",
          "logIndex": "0x7e",
          "removed": false
        },
        {
          "address": "0x8aafd3ede9adb0ff97c7aebce82a919afb1c8764",
          "topics": [
            "0xddf252ad1be2c89b69c2b068fc378daa952ba7f163c4a11628f55a4df523b3ef",
            "0x000000000000000000000000c77f7fed3b5cc8249adc428c5f44c9063b9734b4",
            "0x000000000000000000000000c77f7fed3b5cc8249adc428c5f44c9063b9734b4"
          ],
          "data": "0x000000000000000000000000000000000000000000000000009b1531f05782d0",
          "blockHash": "0x6bd966a8a77dd25405b59303e3df37d269061e6d452b44f77cc9cb2831c11109",
          "blockNumber": "0x7318bc",
          "transactionHash": "0x4b760d289886948a791938f5f73ef2d805ba7bd28884eb20f93e351901b6efd5",
          "transactionIndex": "0x61",
          "logIndex": "0x7f",
          "removed": false
        },
        {
          "address": "0x8aafd3ede9adb0ff97c7aebce82a919afb1c8764",
          "topics": [
            "0x4afcb4a87cdbd9974efdb92ee48bc8d7cd0ae4bf217004db3d080cbaee652ca7"
          ],
          "data": "0x00000000000000000000000000000000000000000000000000000000679025a000000000000000000000000000000000000000000000000000052d92a311eb9e000000000000000000000000000000000000000000000000001c40ee31d09282",
          "blockHash": "0x6bd966a8a77dd25405b59303e3df37d269061e6d452b44f77cc9cb2831c11109",
          "blockNumber": "0x7318bc",
          "transactionHash": "0x4b760d289886948a791938f5f73ef2d805ba7bd28884eb20f93e351901b6efd5",
          "transactionIndex": "0x61",
          "logIndex": "0x80",
          "removed": false
        }
      ],
      "logsBloom": "0x00000000000000000000000000000000000000000600000000000000000000000000000000000000000000000000000000000000000000004000000000000000000000000000004000000008000000000000000000000000000000000000000000000000020000000000000000000800020000000000000000000010000000000000000000000000000000000000000000000000000000000000010000000000000000000000000000000000000000004000000000000000000000000000000000000002000000800000000000000000000000000000080000000000000020000000000000000000000000000000000000000000000000000000000000000000",
      "type": "0x2",
      "transactionHash": "0x4b760d289886948a791938f5f73ef2d805ba7bd28884eb20f93e351901b6efd5",
      "transactionIndex": "0x61",
      "blockHash": "0x6bd966a8a77dd25405b59303e3df37d269061e6d452b44f77cc9cb2831c11109",
      "blockNumber": "0x7318bc",
      "gasUsed": "0xfd3f",
      "effectiveGasPrice": "0x4c612632",
      "from": "0xc77f7fed3b5cc8249adc428c5f44c9063b9734b4",
      "to": "0x8aafd3ede9adb0ff97c7aebce82a919afb1c8764",
      "contractAddress": null
    }
  ],
  "libraries": [],
  "pending": [],
  "returns": {},
  "timestamp": 1737500066,
  "chain": 11155111,
  "commit": "1d2fb70"
}