{
  "transactions": [
    {
      "hash": "0x946054dda6598691c054e50353655dc6892bd417334ae536014e17661ba781d4",
      "transactionType": "CALL",
      "contractName": null,
      "contractAddress": "0x5eb9cc76c3506942c1c0ead70e877dd5e4f00cb0",
      "function": "buy(address)",
      "arguments": [
        "0xC77f7fed3b5Cc8249aDc428c5F44C9063B9734b4"
      ],
      "transaction": {
        "from": "0xc77f7fed3b5cc8249adc428c5f44c9063b9734b4",
        "to": "0x5eb9cc76c3506942c1c0ead70e877dd5e4f00cb0",
        "gas": "0x1b30c",
        "value": "0xde0b6b3a7640000",
        "input": "0xf088d547000000000000000000000000c77f7fed3b5cc8249adc428c5f44c9063b9734b4",
        "nonce": "0x4a8",
        "chainId": "0xaa36a7"
      },
      "additionalContracts": [],
      "isFixedGasLimit": false
    }
  ],
  "receipts": [
    {
      "status": "0x1",
      "cumulativeGasUsed": "0x5ea3ff",
      "logs": [
        {
          "address": "0x5eb9cc76c3506942c1c0ead70e877dd5e4f00cb0",
          "topics": [
            "0xddf252ad1be2c89b69c2b068fc378daa952ba7f163c4a11628f55a4df523b3ef",
            "0x0000000000000000000000000000000000000000000000000000000000000000",
            "0x000000000000000000000000c77f7fed3b5cc8249adc428c5f44c9063b9734b4"
          ],
          "data": "0x00000000000000000000000000000000000000000000003574a3664d1f4bc77c",
          "blockHash": "0x2b5c82cd5c5dac552a0931a4cbd16b4202305dd73054a7bb2c41245cfa81cb36",
          "blockNumber": "0x7250e5",
          "transactionHash": "0x946054dda6598691c054e50353655dc6892bd417334ae536014e17661ba781d4",
          "transactionIndex": "0x49",
          "logIndex": "0x40",
          "removed": false
        },
        {
          "address": "0x5eb9cc76c3506942c1c0ead70e877dd5e4f00cb0",
          "topics": [
            "0xddf252ad1be2c89b69c2b068fc378daa952ba7f163c4a11628f55a4df523b3ef",
            "0x0000000000000000000000000000000000000000000000000000000000000000",
            "0x000000000000000000000000c77f7fed3b5cc8249adc428c5f44c9063b9734b4"
          ],
          "data": "0x000000000000000000000000000000000000000000000000298296a1bcccec9b",
          "blockHash": "0x2b5c82cd5c5dac552a0931a4cbd16b4202305dd73054a7bb2c41245cfa81cb36",
          "blockNumber": "0x7250e5",
          "transactionHash": "0x946054dda6598691c054e50353655dc6892bd417334ae536014e17661ba781d4",
          "transactionIndex": "0x49",
          "logIndex": "0x41",
          "removed": false
        },
        {
          "address": "0x5eb9cc76c3506942c1c0ead70e877dd5e4f00cb0",
          "topics": [
            "0x4afcb4a87cdbd9974efdb92ee48bc8d7cd0ae4bf217004db3d080cbaee652ca7"
          ],
          "data": "0x000000000000000000000000000000000000000000000000000000006786bca00000000000000000000000000000000000000000000000000003911bc039f9170000000000000000000000000000000000000000000000000de0b6b3a7640000",
          "blockHash": "0x2b5c82cd5c5dac552a0931a4cbd16b4202305dd73054a7bb2c41245cfa81cb36",
          "blockNumber": "0x7250e5",
          "transactionHash": "0x946054dda6598691c054e50353655dc6892bd417334ae536014e17661ba781d4",
          "transactionIndex": "0x49",
          "logIndex": "0x42",
          "removed": false
        }
      ],
      "logsBloom": "0x00000000000000000000000000000000000000000000000000000000000000000000000000000000000000000000000000000000000000004000000000000000000000000000000000000008000000000000000000000000000000000000000000000000020000000000000004000800020000000000000000000010000000000000000000000000000000000000000000000000000000000000010000000000000000000000000000000000000000004000000000000000000000000000020000000002000000800000008000000000000000000000080000000000000020000000000000000000000000000000000000000000000000000000000000000000",
      "type": "0x2",
      "transactionHash": "0x946054dda6598691c054e50353655dc6892bd417334ae536014e17661ba781d4",
      "transactionIndex": "0x49",
      "blockHash": "0x2b5c82cd5c5dac552a0931a4cbd16b4202305dd73054a7bb2c41245cfa81cb36",
      "blockNumber": "0x7250e5",
      "gasUsed": "0x13af8",
      "effectiveGasPrice": "0x28b63d296",
      "from": "0xc77f7fed3b5cc8249adc428c5f44c9063b9734b4",
      "to": "0x5eb9cc76c3506942c1c0ead70e877dd5e4f00cb0",
      "contractAddress": null
    }
  ],
  "libraries": [],
  "pending": [],
  "returns": {},
  "timestamp": 1736883361,
  "chain": 11155111,
  "commit": "51a374b"
}