{
  "transactions": [
    {
      "hash": "0xfa3392467844e9b85f5a24c5251a9fea3dfaf4004fb0804365ee59407eacee04",
      "transactionType": "CALL",
      "contractName": null,
      "contractAddress": "0x8aafd3ede9adb0ff97c7aebce82a919afb1c8764",
      "function": "sell(uint256)",
      "arguments": [
        "12408"
      ],
      "transaction": {
        "from": "0xc77f7fed3b5cc8249adc428c5f44c9063b9734b4",
        "to": "0x8aafd3ede9adb0ff97c7aebce82a919afb1c8764",
        "gas": "0x14e4c",
        "value": "0x0",
        "input": "0xe4849b320000000000000000000000000000000000000000000000000000000000003078",
        "nonce": "0xfe7",
        "chainId": "0xaa36a7"
      },
      "additionalContracts": [],
      "isFixedGasLimit": false
    }
  ],
  "receipts": [
    {
      "status": "0x1",
      "cumulativeGasUsed": "0xb16f33",
      "logs": [
        {
          "address": "0x8aafd3ede9adb0ff97c7aebce82a919afb1c8764",
          "topics": [
            "0xddf252ad1be2c89b69c2b068fc378daa952ba7f163c4a11628f55a4df523b3ef",
            "0x000000000000000000000000c77f7fed3b5cc8249adc428c5f44c9063b9734b4",
            "0x0000000000000000000000000000000000000000000000000000000000000000"
          ],
          "data": "0x0000000000000000000000000000000000000000000000000000000000003015",
          "blockHash": "0x5b8e31cb52a0cd885f579e5f07859c99b391a9af965364f728aaed8c8fce7082",
          "blockNumber": "0x731659",
          "transactionHash": "0xfa3392467844e9b85f5a24c5251a9fea3dfaf4004fb0804365ee59407eacee04",
          "transactionIndex": "0x84",
          "logIndex": "0xb2",
          "removed": false
        },
        {
          "address": "0x8aafd3ede9adb0ff97c7aebce82a919afb1c8764",
          "topics": [
            "0xddf252ad1be2c89b69c2b068fc378daa952ba7f163c4a11628f55a4df523b3ef",
            "0x000000000000000000000000c77f7fed3b5cc8249adc428c5f44c9063b9734b4",
            "0x000000000000000000000000c77f7fed3b5cc8249adc428c5f44c9063b9734b4"
          ],
          "data": "0x0000000000000000000000000000000000000000000000000000000000000063",
          "blockHash": "0x5b8e31cb52a0cd885f579e5f07859c99b391a9af965364f728aaed8c8fce7082",
          "blockNumber": "0x731659",
          "transactionHash": "0xfa3392467844e9b85f5a24c5251a9fea3dfaf4004fb0804365ee59407eacee04",
          "transactionIndex": "0x84",
          "logIndex": "0xb3",
          "removed": false
        },
        {
          "address": "0x8aafd3ede9adb0ff97c7aebce82a919afb1c8764",
          "topics": [
            "0x4afcb4a87cdbd9974efdb92ee48bc8d7cd0ae4bf217004db3d080cbaee652ca7"
          ],
          "data": "0x00000000000000000000000000000000000000000000000000000000679008d80000000000000000000000000000000000000000000000000004e344e91ae6330000000000000000000000000000000000000000000000000000000000000011",
          "blockHash": "0x5b8e31cb52a0cd885f579e5f07859c99b391a9af965364f728aaed8c8fce7082",
          "blockNumber": "0x731659",
          "transactionHash": "0xfa3392467844e9b85f5a24c5251a9fea3dfaf4004fb0804365ee59407eacee04",
          "transactionIndex": "0x84",
          "logIndex": "0xb4",
          "removed": false
        }
      ],
      "logsBloom": "0x00000000000000000000000000000000000000000600000000000000000000000000000000000000000000000000000000000000000000004000000000000000000000000000004000000008000000000000000000000000000000000000000000000000020000000000000000000800020000000000000000000010000000000000000000000000000000000000000000000000000000000000010000000000000000000000000000000000000000004000000000000000000000000000000000000002000000800000000000000000000000000000080000000000000020000000000000000000000000000000000000000000000000000000000000000000",
      "type": "0x2",
      "transactionHash": "0xfa3392467844e9b85f5a24c5251a9fea3dfaf4004fb0804365ee59407eacee04",
      "transactionIndex": "0x84",
      "blockHash": "0x5b8e31cb52a0cd885f579e5f07859c99b391a9af965364f728aaed8c8fce7082",
      "blockNumber": "0x731659",
      "gasUsed": "0xf207",
      "effectiveGasPrice": "0x4b07fc10",
      "from": "0xc77f7fed3b5cc8249adc428c5f44c9063b9734b4",
      "to": "0x8aafd3ede9adb0ff97c7aebce82a919afb1c8764",
      "contractAddress": null
    }
  ],
  "libraries": [],
  "pending": [],
  "returns": {},
  "timestamp": 1737492697,
  "chain": 11155111,
  "commit": "1d2fb70"
}