{
  "transactions": [
    {
      "hash": "0xc688c014913711a4d8ced0281a63b6e94f8e9b28dd868123be36ff71076fb981",
      "transactionType": "CALL",
      "contractName": null,
      "contractAddress": "0xbf4a322f1496e5c3d34a9bcdb4c60567b38c7de2",
      "function": "buy(address)",
      "arguments": [
        "0xC77f7fed3b5Cc8249aDc428c5F44C9063B9734b4"
      ],
      "transaction": {
        "from": "0xc77f7fed3b5cc8249adc428c5f44c9063b9734b4",
        "to": "0xbf4a322f1496e5c3d34a9bcdb4c60567b38c7de2",
        "gas": "0x1b309",
        "value": "0xde0b6b3a7640000",
        "input": "0xf088d547000000000000000000000000c77f7fed3b5cc8249adc428c5f44c9063b9734b4",
        "nonce": "0xcac",
        "chainId": "0xaa36a7"
      },
      "additionalContracts": [],
      "isFixedGasLimit": false
    }
  ],
  "receipts": [
    {
      "status": "0x1",
      "cumulativeGasUsed": "0x9345cc",
      "logs": [
        {
          "address": "0xbf4a322f1496e5c3d34a9bcdb4c60567b38c7de2",
          "topics": [
            "0xddf252ad1be2c89b69c2b068fc378daa952ba7f163c4a11628f55a4df523b3ef",
            "0x0000000000000000000000000000000000000000000000000000000000000000",
            "0x000000000000000000000000c77f7fed3b5cc8249adc428c5f44c9063b9734b4"
          ],
          "data": "0x000000000000000000000000000000000000000000000034db7848958cf58d39",
          "blockHash": "0xe6d34387471d179da990a8c870bea18b29a26084558199a51565ec8127ce5dda",
          "blockNumber": "0x725cf7",
          "transactionHash": "0xc688c014913711a4d8ced0281a63b6e94f8e9b28dd868123be36ff71076fb981",
          "transactionIndex": "0x64",
          "logIndex": "0xa4",
          "removed": false
        },
        {
          "address": "0xbf4a322f1496e5c3d34a9bcdb4c60567b38c7de2",
          "topics": [
            "0xddf252ad1be2c89b69c2b068fc378daa952ba7f163c4a11628f55a4df523b3ef",
            "0x0000000000000000000000000000000000000000000000000000000000000000",
            "0x000000000000000000000000c77f7fed3b5cc8249adc428c5f44c9063b9734b4"
          ],
          "data": "0x000000000000000000000000000000000000000000000000290ba5dcd77f183e",
          "blockHash": "0xe6d34387471d179da990a8c870bea18b29a26084558199a51565ec8127ce5dda",
          "blockNumber": "0x725cf7",
          "transactionHash": "0xc688c014913711a4d8ced0281a63b6e94f8e9b28dd868123be36ff71076fb981",
          "transactionIndex": "0x64",
          "logIndex": "0xa5",
          "removed": false
        },
        {
          "address": "0xbf4a322f1496e5c3d34a9bcdb4c60567b38c7de2",
          "topics": [
            "0x4afcb4a87cdbd9974efdb92ee48bc8d7cd0ae4bf217004db3d080cbaee652ca7"
          ],
          "data": "0x0000000000000000000000000000000000000000000000000000000067874e0800000000000000000000000000000000000000000000000000039b740823a3da0000000000000000000000000000000000000000000000000de0b6b3a7640000",
          "blockHash": "0xe6d34387471d179da990a8c870bea18b29a26084558199a51565ec8127ce5dda",
          "blockNumber": "0x725cf7",
          "transactionHash": "0xc688c014913711a4d8ced0281a63b6e94f8e9b28dd868123be36ff71076fb981",
          "transactionIndex": "0x64",
          "logIndex": "0xa6",
          "removed": false
        }
      ],
      "logsBloom": "0x00000000000000000000000000000000000000000000000000000000000000000000000000000000000000000000000000000000000000004000000000000000000000000000000000000008000000000000001000000000000000000000000000000000020000000000000000000800020000000000000000000010000000000000000000000000000000000000000000000000000008000000010000000000000000000000000000000000000000004000000000000000000000000000000000000002000000800000000000001000000000000000080000000000000020000000000000000000000000000000000000000000000000000000000000000000",
      "type": "0x2",
      "transactionHash": "0xc688c014913711a4d8ced0281a63b6e94f8e9b28dd868123be36ff71076fb981",
      "transactionIndex": "0x64",
      "blockHash": "0xe6d34387471d179da990a8c870bea18b29a26084558199a51565ec8127ce5dda",
      "blockNumber": "0x725cf7",
      "gasUsed": "0x13af6",
      "effectiveGasPrice": "0x244696391",
      "from": "0xc77f7fed3b5cc8249adc428c5f44c9063b9734b4",
      "to": "0xbf4a322f1496e5c3d34a9bcdb4c60567b38c7de2",
      "contractAddress": null
    }
  ],
  "libraries": [],
  "pending": [],
  "returns": {},
  "timestamp": 1736920586,
  "chain": 11155111,
  "commit": "51a374b"
}