{
  "transactions": [
    {
      "hash": "0x14b0877cdd483f2abd8e6da2f51335bdb22c30e121d068e29eb2b674cffef9f7",
      "transactionType": "CALL",
      "contractName": null,
      "contractAddress": "0x8aafd3ede9adb0ff97c7aebce82a919afb1c8764",
      "function": "sell(uint256)",
      "arguments": [
        "340253135018177"
      ],
      "transaction": {
        "from": "0xc77f7fed3b5cc8249adc428c5f44c9063b9734b4",
        "to": "0x8aafd3ede9adb0ff97c7aebce82a919afb1c8764",
        "gas": "0x1724d",
        "value": "0x0",
        "input": "0xe4849b32000000000000000000000000000000000000000000000000000135755b3f18c1",
        "nonce": "0x12d8",
        "chainId": "0xaa36a7"
      },
      "additionalContracts": [],
      "isFixedGasLimit": false
    }
  ],
  "receipts": [
    {
      "status": "0x1",
      "cumulativeGasUsed": "0xcc85d5",
      "logs": [
        {
          "address": "0x8aafd3ede9adb0ff97c7aebce82a919afb1c8764",
          "topics": [
            "0xddf252ad1be2c89b69c2b068fc378daa952ba7f163c4a11628f55a4df523b3ef",
            "0x000000000000000000000000c77f7fed3b5cc8249adc428c5f44c9063b9734b4",
            "0x0000000000000000000000000000000000000000000000000000000000000000"
          ],
          "data": "0x000000000000000000000000000000000000000000000000000132fb95e89370",
          "blockHash": "0x9c05b9e91fb788ef465d8b1b809ffda5e25956bb722f40fd310612fd1cf6c79f",
          "blockNumber": "0x7319d7",
          "transactionHash": "0x14b0877cdd483f2abd8e6da2f51335bdb22c30e121d068e29eb2b674cffef9f7",
          "transactionIndex": "0x77",
          "logIndex": "0xd6",
          "removed": false
        },
        {
          "address": "0x8aafd3ede9adb0ff97c7aebce82a919afb1c8764",
          "topics": [
            "0xddf252ad1be2c89b69c2b068fc378daa952ba7f163c4a11628f55a4df523b3ef",
            "0x000000000000000000000000c77f7fed3b5cc8249adc428c5f44c9063b9734b4",
            "0x000000000000000000000000c77f7fed3b5cc8249adc428c5f44c9063b9734b4"
          ],
          "data": "0x00000000000000000000000000000000000000000000000000000279c5568551",
          "blockHash": "0x9c05b9e91fb788ef465d8b1b809ffda5e25956bb722f40fd310612fd1cf6c79f",
          "blockNumber": "0x7319d7",
          "transactionHash": "0x14b0877cdd483f2abd8e6da2f51335bdb22c30e121d068e29eb2b674cffef9f7",
          "transactionIndex": "0x77",
          "logIndex": "0xd7",
          "removed": false
        },
        {
          "address": "0x8aafd3ede9adb0ff97c7aebce82a919afb1c8764",
          "topics": [
            "0x4afcb4a87cdbd9974efdb92ee48bc8d7cd0ae4bf217004db3d080cbaee652ca7"
          ],
          "data": "0x00000000000000000000000000000000000000000000000000000000679032e4000000000000000000000000000000000000000000000000000550735e5f8bc40000000000000000000000000000000000000000000000000000007680750bdb",
          "blockHash": "0x9c05b9e91fb788ef465d8b1b809ffda5e25956bb722f40fd310612fd1cf6c79f",
          "blockNumber": "0x7319d7",
          "transactionHash": "0x14b0877cdd483f2abd8e6da2f51335bdb22c30e121d068e29eb2b674cffef9f7",
          "transactionIndex": "0x77",
          "logIndex": "0xd8",
          "removed": false
        }
      ],
      "logsBloom": "0x00000000000000000000000000000000000000000600000000000000000000000000000000000000000000000000000000000000000000004000000000000000000000000000004000000008000000000000000000000000000000000000000000000000020000000000000000000800020000000000000000000010000000000000000000000000000000000000000000000000000000000000010000000000000000000000000000000000000000004000000000000000000000000000000000000002000000800000000000000000000000000000080000000000000020000000000000000000000000000000000000000000000000000000000000000000",
      "type": "0x2",
      "transactionHash": "0x14b0877cdd483f2abd8e6da2f51335bdb22c30e121d068e29eb2b674cffef9f7",
      "transactionIndex": "0x77",
      "blockHash": "0x9c05b9e91fb788ef465d8b1b809ffda5e25956bb722f40fd310612fd1cf6c79f",
      "blockNumber": "0x7319d7",
      "gasUsed": "0xfd33",
      "effectiveGasPrice": "0x3b3f5762",
      "from": "0xc77f7fed3b5cc8249adc428c5f44c9063b9734b4",
      "to": "0x8aafd3ede9adb0ff97c7aebce82a919afb1c8764",
      "contractAddress": null
    }
  ],
  "libraries": [],
  "pending": [],
  "returns": {},
  "timestamp": 1737503461,
  "chain": 11155111,
  "commit": "1d2fb70"
}