{
  "transactions": [
    {
      "hash": "0x7c6e6c235d8108c10aebeddaaad8899e8ac6ca550a0b428a67c2c440732387ad",
      "transactionType": "CALL",
      "contractName": null,
      "contractAddress": "0x8aafd3ede9adb0ff97c7aebce82a919afb1c8764",
      "function": "sell(uint256)",
      "arguments": [
        "181587662"
      ],
      "transaction": {
        "from": "0xc77f7fed3b5cc8249adc428c5f44c9063b9734b4",
        "to": "0x8aafd3ede9adb0ff97c7aebce82a919afb1c8764",
        "gas": "0x14e6c",
        "value": "0x0",
        "input": "0xe4849b32000000000000000000000000000000000000000000000000000000000ad2cece",
        "nonce": "0x115f",
        "chainId": "0xaa36a7"
      },
      "additionalContracts": [],
      "isFixedGasLimit": false
    }
  ],
  "receipts": [
    {
      "status": "0x1",
      "cumulativeGasUsed": "0xa6327b",
      "logs": [
        {
          "address": "0x8aafd3ede9adb0ff97c7aebce82a919afb1c8764",
          "topics": [
            "0xddf252ad1be2c89b69c2b068fc378daa952ba7f163c4a11628f55a4df523b3ef",
            "0x000000000000000000000000c77f7fed3b5cc8249adc428c5f44c9063b9734b4",
            "0x0000000000000000000000000000000000000000000000000000000000000000"
          ],
          "data": "0x000000000000000000000000000000000000000000000000000000000abca431",
          "blockHash": "0x9dd6f45acf685ad761a5bf19a81b435eb9adcec3a461a8a98e16cec9faa73182",
          "blockNumber": "0x73181c",
          "transactionHash": "0x7c6e6c235d8108c10aebeddaaad8899e8ac6ca550a0b428a67c2c440732387ad",
          "transactionIndex": "0x86",
          "logIndex": "0x9e",
          "removed": false
        },
        {
          "address": "0x8aafd3ede9adb0ff97c7aebce82a919afb1c8764",
          "topics": [
            "0xddf252ad1be2c89b69c2b068fc378daa952ba7f163c4a11628f55a4df523b3ef",
            "0x000000000000000000000000c77f7fed3b5cc8249adc428c5f44c9063b9734b4",
            "0x000000000000000000000000c77f7fed3b5cc8249adc428c5f44c9063b9734b4"
          ],
          "data": "0x0000000000000000000000000000000000000000000000000000000000162a9d",
          "blockHash": "0x9dd6f45acf685ad761a5bf19a81b435eb9adcec3a461a8a98e16cec9faa73182",
          "blockNumber": "0x73181c",
          "transactionHash": "0x7c6e6c235d8108c10aebeddaaad8899e8ac6ca550a0b428a67c2c440732387ad",
          "transactionIndex": "0x86",
          "logIndex": "0x9f",
          "removed": false
        },
        {
          "address": "0x8aafd3ede9adb0ff97c7aebce82a919afb1c8764",
          "topics": [
            "0x4afcb4a87cdbd9974efdb92ee48bc8d7cd0ae4bf217004db3d080cbaee652ca7"
          ],
          "data": "0x0000000000000000000000000000000000000000000000000000000067901e140000000000000000000000000000000000000000000000000005193b93fc8049000000000000000000000000000000000000000000000000000000000003f9f7",
          "blockHash": "0x9dd6f45acf685ad761a5bf19a81b435eb9adcec3a461a8a98e16cec9faa73182",
          "blockNumber": "0x73181c",
          "transactionHash": "0x7c6e6c235d8108c10aebeddaaad8899e8ac6ca550a0b428a67c2c440732387ad",
          "transactionIndex": "0x86",
          "logIndex": "0xa0",
          "removed": false
        }
      ],
      "logsBloom": "0x00000000000000000000000000000000000000000600000000000000000000000000000000000000000000000000000000000000000000004000000000000000000000000000004000000008000000000000000000000000000000000000000000000000020000000000000000000800020000000000000000000010000000000000000000000000000000000000000000000000000000000000010000000000000000000000000000000000000000004000000000000000000000000000000000000002000000800000000000000000000000000000080000000000000020000000000000000000000000000000000000000000000000000000000000000000",
      "type": "0x2",
      "transactionHash": "0x7c6e6c235d8108c10aebeddaaad8899e8ac6ca550a0b428a67c2c440732387ad",
      "transactionIndex": "0x86",
      "blockHash": "0x9dd6f45acf685ad761a5bf19a81b435eb9adcec3a461a8a98e16cec9faa73182",
      "blockNumber": "0x73181c",
      "gasUsed": "0xf21f",
      "effectiveGasPrice": "0x44a49d9a",
      "from": "0xc77f7fed3b5cc8249adc428c5f44c9063b9734b4",
      "to": "0x8aafd3ede9adb0ff97c7aebce82a919afb1c8764",
      "contractAddress": null
    }
  ],
  "libraries": [],
  "pending": [],
  "returns": {},
  "timestamp": 1737498133,
  "chain": 11155111,
  "commit": "1d2fb70"
}