{
  "transactions": [
    {
      "hash": "0x84d10379286c8c4208312cb823e4ba9dc38f991879dfb3f9e72c7a0d72b5f4d5",
      "transactionType": "CALL",
      "contractName": null,
      "contractAddress": "0x8aafd3ede9adb0ff97c7aebce82a919afb1c8764",
      "function": "buy(address)",
      "arguments": [
        "0xC77f7fed3b5Cc8249aDc428c5F44C9063B9734b4"
      ],
      "transaction": {
        "from": "0xc77f7fed3b5cc8249adc428c5f44c9063b9734b4",
        "to": "0x8aafd3ede9adb0ff97c7aebce82a919afb1c8764",
        "gas": "0x156ea",
        "value": "0xde0b6b3a7640000",
        "input": "0xf088d547000000000000000000000000c77f7fed3b5cc8249adc428c5f44c9063b9734b4",
        "nonce": "0xe7d",
        "chainId": "0xaa36a7"
      },
      "additionalContracts": [],
      "isFixedGasLimit": false
    }
  ],
  "receipts": [
    {
      "status": "0x1",
      "cumulativeGasUsed": "0x129d223",
      "logs": [
        {
          "address": "0x8aafd3ede9adb0ff97c7aebce82a919afb1c8764",
          "topics": [
            "0xddf252ad1be2c89b69c2b068fc378daa952ba7f163c4a11628f55a4df523b3ef",
            "0x0000000000000000000000000000000000000000000000000000000000000000",
            "0x000000000000000000000000c77f7fed3b5cc8249adc428c5f44c9063b9734b4"
          ],
          "data": "0x0000000000000000000000000000000000000000000000287bb1cf3030fdccb4",
          "blockHash": "0xd27c3102389eceded0c0d749c214e32804b99bab0ddfe92ca9b99ed4bed1e226",
          "blockNumber": "0x7313d7",
          "transactionHash": "0x84d10379286c8c4208312cb823e4ba9dc38f991879dfb3f9e72c7a0d72b5f4d5",
          "transactionIndex": "0xb0",
          "logIndex": "0x15f",
          "removed": false
        },
        {
          "address": "0x8aafd3ede9adb0ff97c7aebce82a919afb1c8764",
          "topics": [
            "0xddf252ad1be2c89b69c2b068fc378daa952ba7f163c4a11628f55a4df523b3ef",
            "0x0000000000000000000000000000000000000000000000000000000000000000",
            "0x000000000000000000000000c77f7fed3b5cc8249adc428c5f44c9063b9734b4"
          ],
          "data": "0x0000000000000000000000000000000000000000000000001f6fc32874c0c299",
          "blockHash": "0xd27c3102389eceded0c0d749c214e32804b99bab0ddfe92ca9b99ed4bed1e226",
          "blockNumber": "0x7313d7",
          "transactionHash": "0x84d10379286c8c4208312cb823e4ba9dc38f991879dfb3f9e72c7a0d72b5f4d5",
          "transactionIndex": "0xb0",
          "logIndex": "0x160",
          "removed": false
        },
        {
          "address": "0x8aafd3ede9adb0ff97c7aebce82a919afb1c8764",
          "topics": [
            "0x4afcb4a87cdbd9974efdb92ee48bc8d7cd0ae4bf217004db3d080cbaee652ca7"
          ],
          "data": "0x00000000000000000000000000000000000000000000000000000000678feaa80000000000000000000000000000000000000000000000000004b5d322e182360000000000000000000000000000000000000000000000000de0b6b3a7640000",
          "blockHash": "0xd27c3102389eceded0c0d749c214e32804b99bab0ddfe92ca9b99ed4bed1e226",
          "blockNumber": "0x7313d7",
          "transactionHash": "0x84d10379286c8c4208312cb823e4ba9dc38f991879dfb3f9e72c7a0d72b5f4d5",
          "transactionIndex": "0xb0",
          "logIndex": "0x161",
          "removed": false
        }
      ],
      "logsBloom": "0x00000000000000000000000000000000000000000600000000000000000000000000000000000000000000000000000000000000000000004000000000000000000000000000004000000008000000000000000000000000000000000000000000000000020000000000000000000800020000000000000000000010000000000000000000000000000000000000000000000000000000000000010000000000000000000000000000000000000000004000000000000000000000000000000000000002000000800000000000000000000000000000080000000000000020000000000000000000000000000000000000000000000000000000000000000000",
      "type": "0x2",
      "transactionHash": "0x84d10379286c8c4208312cb823e4ba9dc38f991879dfb3f9e72c7a0d72b5f4d5",
      "transactionIndex": "0xb0",
      "blockHash": "0xd27c3102389eceded0c0d749c214e32804b99bab0ddfe92ca9b99ed4bed1e226",
      "blockNumber": "0x7313d7",
      "gasUsed": "0xf844",
      "effectiveGasPrice": "0x648d6871",
      "from": "0xc77f7fed3b5cc8249adc428c5f44c9063b9734b4",
      "to": "0x8aafd3ede9adb0ff97c7aebce82a919afb1c8764",
      "contractAddress": null
    }
  ],
  "libraries": [],
  "pending": [],
  "returns": {},
  "timestamp": 1737484969,
  "chain": 11155111,
  "commit": "51a374b"
}