{
  "transactions": [
    {
      "hash": "0x49c827be6e4c4fb9cea0b11640e2a7c6f6e8b5a298b9d51bffe4ef8d9f2e0ba8",
      "transactionType": "CALL",
      "contractName": null,
      "contractAddress": "0xbf4a322f1496e5c3d34a9bcdb4c60567b38c7de2",
      "function": "buy(address)",
      "arguments": [
        "0xC77f7fed3b5Cc8249aDc428c5F44C9063B9734b4"
      ],
      "transaction": {
        "from": "0xc77f7fed3b5cc8249adc428c5f44c9063b9734b4",
        "to": "0xbf4a322f1496e5c3d34a9bcdb4c60567b38c7de2",
        "gas": "0x1b309",
        "value": "0xde0b6b3a7640000",
        "input": "0xf088d547000000000000000000000000c77f7fed3b5cc8249adc428c5f44c9063b9734b4",
        "nonce": "0x930",
        "chainId": "0xaa36a7"
      },
      "additionalContracts": [],
      "isFixedGasLimit": false
    }
  ],
  "receipts": [
    {
      "status": "0x1",
      "cumulativeGasUsed": "0xa196e6",
      "logs": [
        {
          "address": "0xbf4a322f1496e5c3d34a9bcdb4c60567b38c7de2",
          "topics": [
            "0xddf252ad1be2c89b69c2b068fc378daa952ba7f163c4a11628f55a4df523b3ef",
            "0x0000000000000000000000000000000000000000000000000000000000000000",
            "0x000000000000000000000000c77f7fed3b5cc8249adc428c5f44c9063b9734b4"
          ],
          "data": "0x00000000000000000000000000000000000000000000003582896f92d400b125",
          "blockHash": "0xc6c959f11b5b0d6199b0f684fcb942750951524452fb3e502926a424665a49fa",
          "blockNumber": "0x7258b9",
          "transactionHash": "0x49c827be6e4c4fb9cea0b11640e2a7c6f6e8b5a298b9d51bffe4ef8d9f2e0ba8",
          "transactionIndex": "0x61",
          "logIndex": "0x5d",
          "removed": false
        },
        {
          "address": "0xbf4a322f1496e5c3d34a9bcdb4c60567b38c7de2",
          "topics": [
            "0xddf252ad1be2c89b69c2b068fc378daa952ba7f163c4a11628f55a4df523b3ef",
            "0x0000000000000000000000000000000000000000000000000000000000000000",
            "0x000000000000000000000000c77f7fed3b5cc8249adc428c5f44c9063b9734b4"
          ],
          "data": "0x000000000000000000000000000000000000000000000000298d61917a891f5b",
          "blockHash": "0xc6c959f11b5b0d6199b0f684fcb942750951524452fb3e502926a424665a49fa",
          "blockNumber": "0x7258b9",
          "transactionHash": "0x49c827be6e4c4fb9cea0b11640e2a7c6f6e8b5a298b9d51bffe4ef8d9f2e0ba8",
          "transactionIndex": "0x61",
          "logIndex": "0x5e",
          "removed": false
        },
        {
          "address": "0xbf4a322f1496e5c3d34a9bcdb4c60567b38c7de2",
          "topics": [
            "0x4afcb4a87cdbd9974efdb92ee48bc8d7cd0ae4bf217004db3d080cbaee652ca7"
          ],
          "data": "0x0000000000000000000000000000000000000000000000000000000067871ad800000000000000000000000000000000000000000000000000039030e1f82ab80000000000000000000000000000000000000000000000000de0b6b3a7640000",
          "blockHash": "0xc6c959f11b5b0d6199b0f684fcb942750951524452fb3e502926a424665a49fa",
          "blockNumber": "0x7258b9",
          "transactionHash": "0x49c827be6e4c4fb9cea0b11640e2a7c6f6e8b5a298b9d51bffe4ef8d9f2e0ba8",
          "transactionIndex": "0x61",
          "logIndex": "0x5f",
          "removed": false
        }
      ],
      "logsBloom": "0x00000000000000000000000000000000000000000000000000000000000000000000000000000000000000000000000000000000000000004000000000000000000000000000000000000008000000000000001000000000000000000000000000000000020000000000000000000800020000000000000000000010000000000000000000000000000000000000000000000000000008000000010000000000000000000000000000000000000000004000000000000000000000000000000000000002000000800000000000001000000000000000080000000000000020000000000000000000000000000000000000000000000000000000000000000000",
      "type": "0x2",
      "transactionHash": "0x49c827be6e4c4fb9cea0b11640e2a7c6f6e8b5a298b9d51bffe4ef8d9f2e0ba8",
      "transactionIndex": "0x61",
      "blockHash": "0xc6c959f11b5b0d6199b0f684fcb942750951524452fb3e502926a424665a49fa",
      "blockNumber": "0x7258b9",
      "gasUsed": "0x13af6",
      "effectiveGasPrice": "0x58f64f8d",
      "from": "0xc77f7fed3b5cc8249adc428c5f44c9063b9734b4",
      "to": "0xbf4a322f1496e5c3d34a9bcdb4c60567b38c7de2",
      "contractAddress": null
    }
  ],
  "libraries": [],
  "pending": [],
  "returns": {},
  "timestamp": 1736907480,
  "chain": 11155111,
  "commit": "51a374b"
}