{
  "transactions": [
    {
      "hash": "0x1410618387aa9e0a9b526038de2446632546e0fa8e678f492a6058c4a447ce66",
      "transactionType": "CALL",
      "contractName": null,
      "contractAddress": "0x247e3b06fb8fa4dafaa0bb06ba53d9179be9b681",
      "function": "borrow(uint256,uint256)",
      "arguments": [
        "9989999999999991",
        "0"
      ],
      "transaction": {
        "from": "0xc77f7fed3b5cc8249adc428c5f44c9063b9734b4",
        "to": "0x247e3b06fb8fa4dafaa0bb06ba53d9179be9b681",
        "gas": "0x5dc8a",
        "value": "0x0",
        "input": "0x0ecbcdab00000000000000000000000000000000000000000000000000237dda214e5ff70000000000000000000000000000000000000000000000000000000000000000",
        "nonce": "0x18ee",
        "chainId": "0xaa36a7"
      },
      "additionalContracts": [],
      "isFixedGasLimit": false
    }
  ],
  "receipts": [
    {
      "status": "0x1",
      "cumulativeGasUsed": "0xcc2770",
      "logs": [
        {
          "address": "0x247e3b06fb8fa4dafaa0bb06ba53d9179be9b681",
          "topics": [
            "0x03bbe564cb1b78e43195eeadbde99e5b89b19345862807fcfb59f884e4165e25"
          ],
          "data": "0x00000000000000000000000038818e389773445cd73adbaa37b8b169f458c6e1000000000000000000000000000000000000000000000000000002ba7def2fff",
          "blockHash": "0x6d2f7a95edad403ac8d7061a48c45419d98bf1bfd34698b87516ce9627b19e8a",
          "blockNumber": "0x739828",
          "transactionHash": "0x1410618387aa9e0a9b526038de2446632546e0fa8e678f492a6058c4a447ce66",
          "transactionIndex": "0x64",
          "logIndex": "0x9c",
          "removed": false
        },
        {
          "address": "0x247e3b06fb8fa4dafaa0bb06ba53d9179be9b681",
          "topics": [
            "0xddf252ad1be2c89b69c2b068fc378daa952ba7f163c4a11628f55a4df523b3ef",
            "0x000000000000000000000000c77f7fed3b5cc8249adc428c5f44c9063b9734b4",
            "0x000000000000000000000000247e3b06fb8fa4dafaa0bb06ba53d9179be9b681"
          ],
          "data": "0x0000000000000000000000000000000000000000000000008aae42a4f1298bf5",
          "blockHash": "0x6d2f7a95edad403ac8d7061a48c45419d98bf1bfd34698b87516ce9627b19e8a",
          "blockNumber": "0x739828",
          "transactionHash": "0x1410618387aa9e0a9b526038de2446632546e0fa8e678f492a6058c4a447ce66",
          "transactionIndex": "0x64",
          "logIndex": "0x9d",
          "removed": false
        },
        {
          "address": "0x247e3b06fb8fa4dafaa0bb06ba53d9179be9b681",
          "topics": [
            "0x03bbe564cb1b78e43195eeadbde99e5b89b19345862807fcfb59f884e4165e25"
          ],
          "data": "0x000000000000000000000000c77f7fed3b5cc8249adc428c5f44c9063b9734b4000000000000000000000000000000000000000000000000002310e9a6fe96f9",
          "blockHash": "0x6d2f7a95edad403ac8d7061a48c45419d98bf1bfd34698b87516ce9627b19e8a",
          "blockNumber": "0x739828",
          "transactionHash": "0x1410618387aa9e0a9b526038de2446632546e0fa8e678f492a6058c4a447ce66",
          "transactionIndex": "0x64",
          "logIndex": "0x9e",
          "removed": false
        },
        {
          "address": "0x247e3b06fb8fa4dafaa0bb06ba53d9179be9b681",
          "topics": [
            "0xaec00f5213a37254bc68a26b0685d1a5b2bf513e1e587c94c7df7f4a62b56c9c"
          ],
          "data": "0x0000000000000000000000000000000000000000000000008aae42a4f1298bf5000000000000000000000000000000000000000000000000002319ffa16552f8000000000000000000000000000000000000000000000000002319ffa16552f80000000000000000000000000000000000000000000000008aae42a4f1298bf5",
          "blockHash": "0x6d2f7a95edad403ac8d7061a48c45419d98bf1bfd34698b87516ce9627b19e8a",
          "blockNumber": "0x739828",
          "transactionHash": "0x1410618387aa9e0a9b526038de2446632546e0fa8e678f492a6058c4a447ce66",
          "transactionIndex": "0x64",
          "logIndex": "0x9f",
          "removed": false
        },
        {
          "address": "0x247e3b06fb8fa4dafaa0bb06ba53d9179be9b681",
          "topics": [
            "0x4afcb4a87cdbd9974efdb92ee48bc8d7cd0ae4bf217004db3d080cbaee652ca7"
          ],
          "data": "0x000000000000000000000000000000000000000000000000000000006796563000000000000000000000000000000000000000000000000000038e21646c0dfe00000000000000000000000000000000000000000000000000000915fa66bbff",
          "blockHash": "0x6d2f7a95edad403ac8d7061a48c45419d98bf1bfd34698b87516ce9627b19e8a",
          "blockNumber": "0x739828",
          "transactionHash": "0x1410618387aa9e0a9b526038de2446632546e0fa8e678f492a6058c4a447ce66",
          "transactionIndex": "0x64",
          "logIndex": "0xa0",
          "removed": false
        }
      ],
      "logsBloom": "0x00000000000000000000000000000100400000000000000000000000000000000008000000000000000000000000000000002000000000004000000000000000000000000000000400000008000000000000000000000000200000000000000000000000000000000000000000000000020000000000000000000010000001000000000000000000000000000000000000000000000000000000010000000040000000000000000000000400000000004000000000000000000000001000000000000002000000800000000000040000000000000000080000000000000000000000000000000400000000000000000000000000000000000000000000000000",
      "type": "0x2",
      "transactionHash": "0x1410618387aa9e0a9b526038de2446632546e0fa8e678f492a6058c4a447ce66",
      "transactionIndex": "0x64",
      "blockHash": "0x6d2f7a95edad403ac8d7061a48c45419d98bf1bfd34698b87516ce9627b19e8a",
      "blockNumber": "0x739828",
      "gasUsed": "0x40203",
      "effectiveGasPrice": "0x38eeef93b",
      "from": "0xc77f7fed3b5cc8249adc428c5f44c9063b9734b4",
      "to": "0x247e3b06fb8fa4dafaa0bb06ba53d9179be9b681",
      "contractAddress": null
    }
  ],
  "libraries": [],
  "pending": [],
  "returns": {},
  "timestamp": 1737905713,
  "chain": 11155111,
  "commit": "f5162e9"
}