{
  "transactions": [
    {
      "hash": "0xd18ac1371b74982b3bdaf5ef9eec21500c806b8f58015865216d6664c40b64fb",
      "transactionType": "CALL",
      "contractName": null,
      "contractAddress": "0x8aafd3ede9adb0ff97c7aebce82a919afb1c8764",
      "function": "sell(uint256)",
      "arguments": [
        "1573037"
      ],
      "transaction": {
        "from": "0xc77f7fed3b5cc8249adc428c5f44c9063b9734b4",
        "to": "0x8aafd3ede9adb0ff97c7aebce82a919afb1c8764",
        "gas": "0x14e4c",
        "value": "0x0",
        "input": "0xe4849b3200000000000000000000000000000000000000000000000000000000001800ad",
        "nonce": "0xe5d",
        "chainId": "0xaa36a7"
      },
      "additionalContracts": [],
      "isFixedGasLimit": false
    }
  ],
  "receipts": [
    {
      "status": "0x1",
      "cumulativeGasUsed": "0xcfe425",
      "logs": [
        {
          "address": "0x8aafd3ede9adb0ff97c7aebce82a919afb1c8764",
          "topics": [
            "0xddf252ad1be2c89b69c2b068fc378daa952ba7f163c4a11628f55a4df523b3ef",
            "0x000000000000000000000000c77f7fed3b5cc8249adc428c5f44c9063b9734b4",
            "0x0000000000000000000000000000000000000000000000000000000000000000"
          ],
          "data": "0x000000000000000000000000000000000000000000000000000000000017cf85",
          "blockHash": "0x3833358fecc9cdbd2fc80fa25cdbc8162de7e3f0d94934a5e1b33e1d78bf1e83",
          "blockNumber": "0x7313b0",
          "transactionHash": "0xd18ac1371b74982b3bdaf5ef9eec21500c806b8f58015865216d6664c40b64fb",
          "transactionIndex": "0x95",
          "logIndex": "0xc6",
          "removed": false
        },
        {
          "address": "0x8aafd3ede9adb0ff97c7aebce82a919afb1c8764",
          "topics": [
            "0xddf252ad1be2c89b69c2b068fc378daa952ba7f163c4a11628f55a4df523b3ef",
            "0x000000000000000000000000c77f7fed3b5cc8249adc428c5f44c9063b9734b4",
            "0x000000000000000000000000c77f7fed3b5cc8249adc428c5f44c9063b9734b4"
          ],
          "data": "0x0000000000000000000000000000000000000000000000000000000000003128",
          "blockHash": "0x3833358fecc9cdbd2fc80fa25cdbc8162de7e3f0d94934a5e1b33e1d78bf1e83",
          "blockNumber": "0x7313b0",
          "transactionHash": "0xd18ac1371b74982b3bdaf5ef9eec21500c806b8f58015865216d6664c40b64fb",
          "transactionIndex": "0x95",
          "logIndex": "0xc7",
          "removed": false
        },
        {
          "address": "0x8aafd3ede9adb0ff97c7aebce82a919afb1c8764",
          "topics": [
            "0x4afcb4a87cdbd9974efdb92ee48bc8d7cd0ae4bf217004db3d080cbaee652ca7"
          ],
          "data": "0x00000000000000000000000000000000000000000000000000000000678fe8d40000000000000000000000000000000000000000000000000004b4752e9ec0440000000000000000000000000000000000000000000000000000000000000823",
          "blockHash": "0x3833358fecc9cdbd2fc80fa25cdbc8162de7e3f0d94934a5e1b33e1d78bf1e83",
          "blockNumber": "0x7313b0",
          "transactionHash": "0xd18ac1371b74982b3bdaf5ef9eec21500c806b8f58015865216d6664c40b64fb",
          "transactionIndex": "0x95",
          "logIndex": "0xc8",
          "removed": false
        }
      ],
      "logsBloom": "0x00000000000000000000000000000000000000000600000000000000000000000000000000000000000000000000000000000000000000004000000000000000000000000000004000000008000000000000000000000000000000000000000000000000020000000000000000000800020000000000000000000010000000000000000000000000000000000000000000000000000000000000010000000000000000000000000000000000000000004000000000000000000000000000000000000002000000800000000000000000000000000000080000000000000020000000000000000000000000000000000000000000000000000000000000000000",
      "type": "0x2",
      "transactionHash": "0xd18ac1371b74982b3bdaf5ef9eec21500c806b8f58015865216d6664c40b64fb",
      "transactionIndex": "0x95",
      "blockHash": "0x3833358fecc9cdbd2fc80fa25cdbc8162de7e3f0d94934a5e1b33e1d78bf1e83",
      "blockNumber": "0x7313b0",
      "gasUsed": "0xf207",
      "effectiveGasPrice": "0x785a370b",
      "from": "0xc77f7fed3b5cc8249adc428c5f44c9063b9734b4",
      "to": "0x8aafd3ede9adb0ff97c7aebce82a919afb1c8764",
      "contractAddress": null
    }
  ],
  "libraries": [],
  "pending": [],
  "returns": {},
  "timestamp": 1737484503,
  "chain": 11155111,
  "commit": "51a374b"
}