{
  "transactions": [
    {
      "hash": "0x745fb6a70d5897da810561a2a3cdb042a105e8ad4f22069cea0dd3070f0af6b0",
      "transactionType": "CALL",
      "contractName": null,
      "contractAddress": "0x8aafd3ede9adb0ff97c7aebce82a919afb1c8764",
      "function": "sell(uint256)",
      "arguments": [
        "207531994817367079219"
      ],
      "transaction": {
        "from": "0xc77f7fed3b5cc8249adc428c5f44c9063b9734b4",
        "to": "0x8aafd3ede9adb0ff97c7aebce82a919afb1c8764",
        "gas": "0x17270",
        "value": "0x0",
        "input": "0xe4849b3200000000000000000000000000000000000000000000000b4015c1bc195f7933",
        "nonce": "0x14ff",
        "chainId": "0xaa36a7"
      },
      "additionalContracts": [],
      "isFixedGasLimit": false
    }
  ],
  "receipts": [
    {
      "status": "0x1",
      "cumulativeGasUsed": "0xb6d9c5",
      "logs": [
        {
          "address": "0x8aafd3ede9adb0ff97c7aebce82a919afb1c8764",
          "topics": [
            "0xddf252ad1be2c89b69c2b068fc378daa952ba7f163c4a11628f55a4df523b3ef",
            "0x000000000000000000000000c77f7fed3b5cc8249adc428c5f44c9063b9734b4",
            "0x0000000000000000000000000000000000000000000000000000000000000000"
          ],
          "data": "0x00000000000000000000000000000000000000000000000b290b57bca46f17fa",
          "blockHash": "0xf5f5597d950b3663713374ca413940e14f92edbafd374397e0abed3465a3b248",
          "blockNumber": "0x731c61",
          "transactionHash": "0x745fb6a70d5897da810561a2a3cdb042a105e8ad4f22069cea0dd3070f0af6b0",
          "transactionIndex": "0x6c",
          "logIndex": "0x88",
          "removed": false
        },
        {
          "address": "0x8aafd3ede9adb0ff97c7aebce82a919afb1c8764",
          "topics": [
            "0xddf252ad1be2c89b69c2b068fc378daa952ba7f163c4a11628f55a4df523b3ef",
            "0x000000000000000000000000c77f7fed3b5cc8249adc428c5f44c9063b9734b4",
            "0x000000000000000000000000c77f7fed3b5cc8249adc428c5f44c9063b9734b4"
          ],
          "data": "0x000000000000000000000000000000000000000000000000170a69ff74f06139",
          "blockHash": "0xf5f5597d950b3663713374ca413940e14f92edbafd374397e0abed3465a3b248",
          "blockNumber": "0x731c61",
          "transactionHash": "0x745fb6a70d5897da810561a2a3cdb042a105e8ad4f22069cea0dd3070f0af6b0",
          "transactionIndex": "0x6c",
          "logIndex": "0x89",
          "removed": false
        },
        {
          "address": "0x8aafd3ede9adb0ff97c7aebce82a919afb1c8764",
          "topics": [
            "0x4afcb4a87cdbd9974efdb92ee48bc8d7cd0ae4bf217004db3d080cbaee652ca7"
          ],
          "data": "0x000000000000000000000000000000000000000000000000000000006790516800000000000000000000000000000000000000000000000000111a26fc452dc90000000000000000000000000000000000000000000000000dcd1fd30ab1f7c6",
          "blockHash": "0xf5f5597d950b3663713374ca413940e14f92edbafd374397e0abed3465a3b248",
          "blockNumber": "0x731c61",
          "transactionHash": "0x745fb6a70d5897da810561a2a3cdb042a105e8ad4f22069cea0dd3070f0af6b0",
          "transactionIndex": "0x6c",
          "logIndex": "0x8a",
          "removed": false
        }
      ],
      "logsBloom": "0x00000000000000000000000000000000000000000600000000000000000000000000000000000000000000000000000000000000000000004000000000000000000000000000004000000008000000000000000000000000000000000000000000000000020000000000000000000800020000000000000000000010000000000000000000000000000000000000000000000000000000000000010000000000000000000000000000000000000000004000000000000000000000000000000000000002000000800000000000000000000000000000080000000000000020000000000000000000000000000000000000000000000000000000000000000000",
      "type": "0x2",
      "transactionHash": "0x745fb6a70d5897da810561a2a3cdb042a105e8ad4f22069cea0dd3070f0af6b0",
      "transactionIndex": "0x6c",
      "blockHash": "0xf5f5597d950b3663713374ca413940e14f92edbafd374397e0abed3465a3b248",
      "blockNumber": "0x731c61",
      "gasUsed": "0xfd4b",
      "effectiveGasPrice": "0x18551d4fd",
      "from": "0xc77f7fed3b5cc8249adc428c5f44c9063b9734b4",
      "to": "0x8aafd3ede9adb0ff97c7aebce82a919afb1c8764",
      "contractAddress": null
    }
  ],
  "libraries": [],
  "pending": [],
  "returns": {},
  "timestamp": 1737511273,
  "chain": 11155111,
  "commit": "1d2fb70"
}