{
  "transactions": [
    {
      "hash": "0x7cf9aac6d019573c773fbb74e695c9f443f66f18df3ef052c7a53fd500f0d3c3",
      "transactionType": "CALL",
      "contractName": null,
      "contractAddress": "0xbf4a322f1496e5c3d34a9bcdb4c60567b38c7de2",
      "function": "sell(uint256)",
      "arguments": [
        "985168762738408279991"
      ],
      "transaction": {
        "from": "0xc77f7fed3b5cc8249adc428c5f44c9063b9734b4",
        "to": "0xbf4a322f1496e5c3d34a9bcdb4c60567b38c7de2",
        "gas": "0x16fea",
        "value": "0x0",
        "input": "0xe4849b3200000000000000000000000000000000000000000000003567f68a1011e9cfb7",
        "nonce": "0xa99",
        "chainId": "0xaa36a7"
      },
      "additionalContracts": [],
      "isFixedGasLimit": false
    }
  ],
  "receipts": [
    {
      "status": "0x1",
      "cumulativeGasUsed": "0xa29c04",
      "logs": [
        {
          "address": "0xbf4a322f1496e5c3d34a9bcdb4c60567b38c7de2",
          "topics": [
            "0xddf252ad1be2c89b69c2b068fc378daa952ba7f163c4a11628f55a4df523b3ef",
            "0x000000000000000000000000c77f7fed3b5cc8249adc428c5f44c9063b9734b4",
            "0x0000000000000000000000000000000000000000000000000000000000000000"
          ],
          "data": "0x00000000000000000000000000000000000000000000003567f68a1011e9cfb7",
          "blockHash": "0x034ad17b4bb05aeab6252c1eba2984ba28eb183f5d274cde0e2a3658ff8b0b97",
          "blockNumber": "0x725a81",
          "transactionHash": "0x7cf9aac6d019573c773fbb74e695c9f443f66f18df3ef052c7a53fd500f0d3c3",
          "transactionIndex": "0x4f",
          "logIndex": "0xa2",
          "removed": false
        },
        {
          "address": "0xbf4a322f1496e5c3d34a9bcdb4c60567b38c7de2",
          "topics": [
            "0x4afcb4a87cdbd9974efdb92ee48bc8d7cd0ae4bf217004db3d080cbaee652ca7"
          ],
          "data": "0x000000000000000000000000000000000000000000000000000000006787305c000000000000000000000000000000000000000000000000000394c09e98bf440000000000000000000000000000000000000000000000000dc7e3ee1571de91",
          "blockHash": "0x034ad17b4bb05aeab6252c1eba2984ba28eb183f5d274cde0e2a3658ff8b0b97",
          "blockNumber": "0x725a81",
          "transactionHash": "0x7cf9aac6d019573c773fbb74e695c9f443f66f18df3ef052c7a53fd500f0d3c3",
          "transactionIndex": "0x4f",
          "logIndex": "0xa3",
          "removed": false
        }
      ],
      "logsBloom": "0x00000000000000000000000000000000000000000000000000000000000000000000000000000000000000000000000000000000000000004000000000000000000000000000000000000008000000000000001000000000000000000000000000000000020000000000000000000800020000000000000000000010000000000000000000000000000000000000000000000000000008000000010000000000000000000000000000000000000000004000000000000000000000000000000000000002000000800000000000001000000000000000080000000000000020000000000000000000000000000000000000000000000000000000000000000000",
      "type": "0x2",
      "transactionHash": "0x7cf9aac6d019573c773fbb74e695c9f443f66f18df3ef052c7a53fd500f0d3c3",
      "transactionIndex": "0x4f",
      "blockHash": "0x034ad17b4bb05aeab6252c1eba2984ba28eb183f5d274cde0e2a3658ff8b0b97",
      "blockNumber": "0x725a81",
      "gasUsed": "0xfb91",
      "effectiveGasPrice": "0x1f16a8d87",
      "from": "0xc77f7fed3b5cc8249adc428c5f44c9063b9734b4",
      "to": "0xbf4a322f1496e5c3d34a9bcdb4c60567b38c7de2",
      "contractAddress": null
    }
  ],
  "libraries": [],
  "pending": [],
  "returns": {},
  "timestamp": 1736912991,
  "chain": 11155111,
  "commit": "51a374b"
}