{
  "transactions": [
    {
      "hash": "0xfb7ad6291bd6fc4be8c37e2fff6b0f1246b03b80257d7f3d8ee8a18a0939d20e",
      "transactionType": "CALL",
      "contractName": null,
      "contractAddress": "0x8aafd3ede9adb0ff97c7aebce82a919afb1c8764",
      "function": "buy(address)",
      "arguments": [
        "0xC77f7fed3b5Cc8249aDc428c5F44C9063B9734b4"
      ],
      "transaction": {
        "from": "0xc77f7fed3b5cc8249adc428c5f44c9063b9734b4",
        "to": "0x8aafd3ede9adb0ff97c7aebce82a919afb1c8764",
        "gas": "0x156ea",
        "value": "0xde0b6b3a7640000",
        "input": "0xf088d547000000000000000000000000c77f7fed3b5cc8249adc428c5f44c9063b9734b4",
        "nonce": "0x125c",
        "chainId": "0xaa36a7"
      },
      "additionalContracts": [],
      "isFixedGasLimit": false
    }
  ],
  "receipts": [
    {
      "status": "0x1",
      "cumulativeGasUsed": "0xcddded",
      "logs": [
        {
          "address": "0x8aafd3ede9adb0ff97c7aebce82a919afb1c8764",
          "topics": [
            "0xddf252ad1be2c89b69c2b068fc378daa952ba7f163c4a11628f55a4df523b3ef",
            "0x0000000000000000000000000000000000000000000000000000000000000000",
            "0x000000000000000000000000c77f7fed3b5cc8249adc428c5f44c9063b9734b4"
          ],
          "data": "0x0000000000000000000000000000000000000000000000246238043f312a6a21",
          "blockHash": "0xd24704bab773e611189ed0879aca7bbbb9ae24011fa4023bfe6cc490976715a2",
          "blockNumber": "0x731941",
          "transactionHash": "0xfb7ad6291bd6fc4be8c37e2fff6b0f1246b03b80257d7f3d8ee8a18a0939d20e",
          "transactionIndex": "0x7a",
          "logIndex": "0x78",
          "removed": false
        },
        {
          "address": "0x8aafd3ede9adb0ff97c7aebce82a919afb1c8764",
          "topics": [
            "0xddf252ad1be2c89b69c2b068fc378daa952ba7f163c4a11628f55a4df523b3ef",
            "0x0000000000000000000000000000000000000000000000000000000000000000",
            "0x000000000000000000000000c77f7fed3b5cc8249adc428c5f44c9063b9734b4"
          ],
          "data": "0x0000000000000000000000000000000000000000000000001c40cf017d0dfd62",
          "blockHash": "0xd24704bab773e611189ed0879aca7bbbb9ae24011fa4023bfe6cc490976715a2",
          "blockNumber": "0x731941",
          "transactionHash": "0xfb7ad6291bd6fc4be8c37e2fff6b0f1246b03b80257d7f3d8ee8a18a0939d20e",
          "transactionIndex": "0x7a",
          "logIndex": "0x79",
          "removed": false
        },
        {
          "address": "0x8aafd3ede9adb0ff97c7aebce82a919afb1c8764",
          "topics": [
            "0x4afcb4a87cdbd9974efdb92ee48bc8d7cd0ae4bf217004db3d080cbaee652ca7"
          ],
          "data": "0x0000000000000000000000000000000000000000000000000000000067902bdc00000000000000000000000000000000000000000000000000053df7a6efd1c50000000000000000000000000000000000000000000000000de0b6b3a7640000",
          "blockHash": "0xd24704bab773e611189ed0879aca7bbbb9ae24011fa4023bfe6cc490976715a2",
          "blockNumber": "0x731941",
          "transactionHash": "0xfb7ad6291bd6fc4be8c37e2fff6b0f1246b03b80257d7f3d8ee8a18a0939d20e",
          "transactionIndex": "0x7a",
          "logIndex": "0x7a",
          "removed": false
        }
      ],
      "logsBloom": "0x00000000000000000000000000000000000000000600000000000000000000000000000000000000000000000000000000000000000000004000000000000000000000000000004000000008000000000000000000000000000000000000000000000000020000000000000000000800020000000000000000000010000000000000000000000000000000000000000000000000000000000000010000000000000000000000000000000000000000004000000000000000000000000000000000000002000000800000000000000000000000000000080000000000000020000000000000000000000000000000000000000000000000000000000000000000",
      "type": "0x2",
      "transactionHash": "0xfb7ad6291bd6fc4be8c37e2fff6b0f1246b03b80257d7f3d8ee8a18a0939d20e",
      "transactionIndex": "0x7a",
      "blockHash": "0xd24704bab773e611189ed0879aca7bbbb9ae24011fa4023bfe6cc490976715a2",
      "blockNumber": "0x731941",
      "gasUsed": "0xf844",
      "effectiveGasPrice": "0x3f33e4f7",
      "from": "0xc77f7fed3b5cc8249adc428c5f44c9063b9734b4",
      "to": "0x8aafd3ede9adb0ff97c7aebce82a919afb1c8764",
      "contractAddress": null
    }
  ],
  "libraries": [],
  "pending": [],
  "returns": {},
  "timestamp": 1737501661,
  "chain": 11155111,
  "commit": "1d2fb70"
}