{
  "transactions": [
    {
      "hash": "0xc5440b0c3f231b5d1786708dd1fddab7ce6a80ea56a3ce57710960b33a0e9a45",
      "transactionType": "CALL",
      "contractName": null,
      "contractAddress": "0xbf4a322f1496e5c3d34a9bcdb4c60567b38c7de2",
      "function": "buy(address)",
      "arguments": [
        "0xC77f7fed3b5Cc8249aDc428c5F44C9063B9734b4"
      ],
      "transaction": {
        "from": "0xc77f7fed3b5cc8249adc428c5f44c9063b9734b4",
        "to": "0xbf4a322f1496e5c3d34a9bcdb4c60567b38c7de2",
        "gas": "0x1b309",
        "value": "0xde0b6b3a7640000",
        "input": "0xf088d547000000000000000000000000c77f7fed3b5cc8249adc428c5f44c9063b9734b4",
        "nonce": "0xe06",
        "chainId": "0xaa36a7"
      },
      "additionalContracts": [],
      "isFixedGasLimit": false
    }
  ],
  "receipts": [
    {
      "status": "0x1",
      "cumulativeGasUsed": "0x10d9838",
      "logs": [
        {
          "address": "0xbf4a322f1496e5c3d34a9bcdb4c60567b38c7de2",
          "topics": [
            "0xddf252ad1be2c89b69c2b068fc378daa952ba7f163c4a11628f55a4df523b3ef",
            "0x0000000000000000000000000000000000000000000000000000000000000000",
            "0x000000000000000000000000c77f7fed3b5cc8249adc428c5f44c9063b9734b4"
          ],
          "data": "0x0000000000000000000000000000000000000000000000349bc1e0276c89dbd5",
          "blockHash": "0xcb130e904f9009e9a1c2629a4c902ca49d5a7112e035a85dfb740ef4b5a38adf",
          "blockNumber": "0x7266ed",
          "transactionHash": "0xc5440b0c3f231b5d1786708dd1fddab7ce6a80ea56a3ce57710960b33a0e9a45",
          "transactionIndex": "0x5a",
          "logIndex": "0x96",
          "removed": false
        },
        {
          "address": "0xbf4a322f1496e5c3d34a9bcdb4c60567b38c7de2",
          "topics": [
            "0xddf252ad1be2c89b69c2b068fc378daa952ba7f163c4a11628f55a4df523b3ef",
            "0x0000000000000000000000000000000000000000000000000000000000000000",
            "0x000000000000000000000000c77f7fed3b5cc8249adc428c5f44c9063b9734b4"
          ],
          "data": "0x00000000000000000000000000000000000000000000000028da2c4649867c9e",
          "blockHash": "0xcb130e904f9009e9a1c2629a4c902ca49d5a7112e035a85dfb740ef4b5a38adf",
          "blockNumber": "0x7266ed",
          "transactionHash": "0xc5440b0c3f231b5d1786708dd1fddab7ce6a80ea56a3ce57710960b33a0e9a45",
          "transactionIndex": "0x5a",
          "logIndex": "0x97",
          "removed": false
        },
        {
          "address": "0xbf4a322f1496e5c3d34a9bcdb4c60567b38c7de2",
          "topics": [
            "0x4afcb4a87cdbd9974efdb92ee48bc8d7cd0ae4bf217004db3d080cbaee652ca7"
          ],
          "data": "0x000000000000000000000000000000000000000000000000000000006787c66800000000000000000000000000000000000000000000000000039fd2635931d80000000000000000000000000000000000000000000000000de0b6b3a7640000",
          "blockHash": "0xcb130e904f9009e9a1c2629a4c902ca49d5a7112e035a85dfb740ef4b5a38adf",
          "blockNumber": "0x7266ed",
          "transactionHash": "0xc5440b0c3f231b5d1786708dd1fddab7ce6a80ea56a3ce57710960b33a0e9a45",
          "transactionIndex": "0x5a",
          "logIndex": "0x98",
          "removed": false
        }
      ],
      "logsBloom": "0x00000000000000000000000000000000000000000000000000000000000000000000000000000000000000000000000000000000000000004000000000000000000000000000000000000008000000000000001000000000000000000000000000000000020000000000000000000800020000000000000000000010000000000000000000000000000000000000000000000000000008000000010000000000000000000000000000000000000000004000000000000000000000000000000000000002000000800000000000001000000000000000080000000000000020000000000000000000000000000000000000000000000000000000000000000000",
      "type": "0x2",
      "transactionHash": "0xc5440b0c3f231b5d1786708dd1fddab7ce6a80ea56a3ce57710960b33a0e9a45",
      "transactionIndex": "0x5a",
      "blockHash": "0xcb130e904f9009e9a1c2629a4c902ca49d5a7112e035a85dfb740ef4b5a38adf",
      "blockNumber": "0x7266ed",
      "gasUsed": "0x13af6",
      "effectiveGasPrice": "0x3603bd545",
      "from": "0xc77f7fed3b5cc8249adc428c5f44c9063b9734b4",
      "to": "0xbf4a322f1496e5c3d34a9bcdb4c60567b38c7de2",
      "contractAddress": null
    }
  ],
  "libraries": [],
  "pending": [],
  "returns": {},
  "timestamp": 1736951401,
  "chain": 11155111,
  "commit": "51a374b"
}