{
  "transactions": [
    {
      "hash": "0xba7d82fe1655114841c14b0844c2b82e89cb1791256be17123530a24567dbdbb",
      "transactionType": "CALL",
      "contractName": null,
      "contractAddress": "0x8aafd3ede9adb0ff97c7aebce82a919afb1c8764",
      "function": "sell(uint256)",
      "arguments": [
        "623564"
      ],
      "transaction": {
        "from": "0xc77f7fed3b5cc8249adc428c5f44c9063b9734b4",
        "to": "0x8aafd3ede9adb0ff97c7aebce82a919afb1c8764",
        "gas": "0x17207",
        "value": "0x0",
        "input": "0xe4849b3200000000000000000000000000000000000000000000000000000000000983cc",
        "nonce": "0x1344",
        "chainId": "0xaa36a7"
      },
      "additionalContracts": [],
      "isFixedGasLimit": false
    }
  ],
  "receipts": [
    {
      "status": "0x1",
      "cumulativeGasUsed": "0xc4b8e0",
      "logs": [
        {
          "address": "0x8aafd3ede9adb0ff97c7aebce82a919afb1c8764",
          "topics": [
            "0xddf252ad1be2c89b69c2b068fc378daa952ba7f163c4a11628f55a4df523b3ef",
            "0x000000000000000000000000c77f7fed3b5cc8249adc428c5f44c9063b9734b4",
            "0x0000000000000000000000000000000000000000000000000000000000000000"
          ],
          "data": "0x0000000000000000000000000000000000000000000000000000000000097050",
          "blockHash": "0x85531309ea43a53d07da7071fa56f8c9e75815b65931c41d914633d02da18133",
          "blockNumber": "0x731a5d",
          "transactionHash": "0xba7d82fe1655114841c14b0844c2b82e89cb1791256be17123530a24567dbdbb",
          "transactionIndex": "0x78",
          "logIndex": "0x91",
          "removed": false
        },
        {
          "address": "0x8aafd3ede9adb0ff97c7aebce82a919afb1c8764",
          "topics": [
            "0xddf252ad1be2c89b69c2b068fc378daa952ba7f163c4a11628f55a4df523b3ef",
            "0x000000000000000000000000c77f7fed3b5cc8249adc428c5f44c9063b9734b4",
            "0x000000000000000000000000c77f7fed3b5cc8249adc428c5f44c9063b9734b4"
          ],
          "data": "0x000000000000000000000000000000000000000000000000000000000000137c",
          "blockHash": "0x85531309ea43a53d07da7071fa56f8c9e75815b65931c41d914633d02da18133",
          "blockNumber": "0x731a5d",
          "transactionHash": "0xba7d82fe1655114841c14b0844c2b82e89cb1791256be17123530a24567dbdbb",
          "transactionIndex": "0x78",
          "logIndex": "0x92",
          "removed": false
        },
        {
          "address": "0x8aafd3ede9adb0ff97c7aebce82a919afb1c8764",
          "topics": [
            "0x4afcb4a87cdbd9974efdb92ee48bc8d7cd0ae4bf217004db3d080cbaee652ca7"
          ],
          "data": "0x000000000000000000000000000000000000000000000000000000006790392c000000000000000000000000000000000000000000000000000bf75fc99025b70000000000000000000000000000000000000000000000000000000000000834",
          "blockHash": "0x85531309ea43a53d07da7071fa56f8c9e75815b65931c41d914633d02da18133",
          "blockNumber": "0x731a5d",
          "transactionHash": "0xba7d82fe1655114841c14b0844c2b82e89cb1791256be17123530a24567dbdbb",
          "transactionIndex": "0x78",
          "logIndex": "0x93",
          "removed": false
        }
      ],
      "logsBloom": "0x00000000000000000000000000000000000000000600000000000000000000000000000000000000000000000000000000000000000000004000000000000000000000000000004000000008000000000000000000000000000000000000000000000000020000000000000000000800020000000000000000000010000000000000000000000000000000000000000000000000000000000000010000000000000000000000000000000000000000004000000000000000000000000000000000000002000000800000000000000000000000000000080000000000000020000000000000000000000000000000000000000000000000000000000000000000",
      "type": "0x2",
      "transactionHash": "0xba7d82fe1655114841c14b0844c2b82e89cb1791256be17123530a24567dbdbb",
      "transactionIndex": "0x78",
      "blockHash": "0x85531309ea43a53d07da7071fa56f8c9e75815b65931c41d914633d02da18133",
      "blockNumber": "0x731a5d",
      "gasUsed": "0xfd03",
      "effectiveGasPrice": "0x43c49682",
      "from": "0xc77f7fed3b5cc8249adc428c5f44c9063b9734b4",
      "to": "0x8aafd3ede9adb0ff97c7aebce82a919afb1c8764",
      "contractAddress": null
    }
  ],
  "libraries": [],
  "pending": [],
  "returns": {},
  "timestamp": 1737505070,
  "chain": 11155111,
  "commit": "1d2fb70"
}