{
  "transactions": [
    {
      "hash": "0x740ecab721d40f650b160fe7a9caca310bb0ff8a90b7347be9a906734c45e889",
      "transactionType": "CALL",
      "contractName": null,
      "contractAddress": "0x8aafd3ede9adb0ff97c7aebce82a919afb1c8764",
      "function": "buy(address)",
      "arguments": [
        "0xC77f7fed3b5Cc8249aDc428c5F44C9063B9734b4"
      ],
      "transaction": {
        "from": "0xc77f7fed3b5cc8249adc428c5f44c9063b9734b4",
        "to": "0x8aafd3ede9adb0ff97c7aebce82a919afb1c8764",
        "gas": "0x156ea",
        "value": "0xde0b6b3a7640000",
        "input": "0xf088d547000000000000000000000000c77f7fed3b5cc8249adc428c5f44c9063b9734b4",
        "nonce": "0x1220",
        "chainId": "0xaa36a7"
      },
      "additionalContracts": [],
      "isFixedGasLimit": false
    }
  ],
  "receipts": [
    {
      "status": "0x1",
      "cumulativeGasUsed": "0x871412",
      "logs": [
        {
          "address": "0x8aafd3ede9adb0ff97c7aebce82a919afb1c8764",
          "topics": [
            "0xddf252ad1be2c89b69c2b068fc378daa952ba7f163c4a11628f55a4df523b3ef",
            "0x0000000000000000000000000000000000000000000000000000000000000000",
            "0x000000000000000000000000c77f7fed3b5cc8249adc428c5f44c9063b9734b4"
          ],
          "data": "0x0000000000000000000000000000000000000000000000249f263c6c80564b6a",
          "blockHash": "0x552267b12f6a99dc1aae6b6d73b929a319e74e1727870e67eeca8be69e86715e",
          "blockNumber": "0x7318fc",
          "transactionHash": "0x740ecab721d40f650b160fe7a9caca310bb0ff8a90b7347be9a906734c45e889",
          "transactionIndex": "0x68",
          "logIndex": "0x82",
          "removed": false
        },
        {
          "address": "0x8aafd3ede9adb0ff97c7aebce82a919afb1c8764",
          "topics": [
            "0xddf252ad1be2c89b69c2b068fc378daa952ba7f163c4a11628f55a4df523b3ef",
            "0x0000000000000000000000000000000000000000000000000000000000000000",
            "0x000000000000000000000000c77f7fed3b5cc8249adc428c5f44c9063b9734b4"
          ],
          "data": "0x0000000000000000000000000000000000000000000000001c701f8e25c58a4d",
          "blockHash": "0x552267b12f6a99dc1aae6b6d73b929a319e74e1727870e67eeca8be69e86715e",
          "blockNumber": "0x7318fc",
          "transactionHash": "0x740ecab721d40f650b160fe7a9caca310bb0ff8a90b7347be9a906734c45e889",
          "transactionIndex": "0x68",
          "logIndex": "0x83",
          "removed": false
        },
        {
          "address": "0x8aafd3ede9adb0ff97c7aebce82a919afb1c8764",
          "topics": [
            "0x4afcb4a87cdbd9974efdb92ee48bc8d7cd0ae4bf217004db3d080cbaee652ca7"
          ],
          "data": "0x00000000000000000000000000000000000000000000000000000000679028a00000000000000000000000000000000000000000000000000005353f8fc2e7c60000000000000000000000000000000000000000000000000de0b6b3a7640000",
          "blockHash": "0x552267b12f6a99dc1aae6b6d73b929a319e74e1727870e67eeca8be69e86715e",
          "blockNumber": "0x7318fc",
          "transactionHash": "0x740ecab721d40f650b160fe7a9caca310bb0ff8a90b7347be9a906734c45e889",
          "transactionIndex": "0x68",
          "logIndex": "0x84",
          "removed": false
        }
      ],
      "logsBloom": "0x00000000000000000000000000000000000000000600000000000000000000000000000000000000000000000000000000000000000000004000000000000000000000000000004000000008000000000000000000000000000000000000000000000000020000000000000000000800020000000000000000000010000000000000000000000000000000000000000000000000000000000000010000000000000000000000000000000000000000004000000000000000000000000000000000000002000000800000000000000000000000000000080000000000000020000000000000000000000000000000000000000000000000000000000000000000",
      "type": "0x2",
      "transactionHash": "0x740ecab721d40f650b160fe7a9caca310bb0ff8a90b7347be9a906734c45e889",
      "transactionIndex": "0x68",
      "blockHash": "0x552267b12f6a99dc1aae6b6d73b929a319e74e1727870e67eeca8be69e86715e",
      "blockNumber": "0x7318fc",
      "gasUsed": "0xf844",
      "effectiveGasPrice": "0x5099f185",
      "from": "0xc77f7fed3b5cc8249adc428c5f44c9063b9734b4",
      "to": "0x8aafd3ede9adb0ff97c7aebce82a919afb1c8764",
      "contractAddress": null
    }
  ],
  "libraries": [],
  "pending": [],
  "returns": {},
  "timestamp": 1737500835,
  "chain": 11155111,
  "commit": "1d2fb70"
}