{
  "transactions": [
    {
      "hash": "0x9ae3ca2d2d4132b68c2a3d1d9c5269e7878ebcb2ea0959d7cd339f496f8fcc7e",
      "transactionType": "CALL",
      "contractName": null,
      "contractAddress": "0x8aafd3ede9adb0ff97c7aebce82a919afb1c8764",
      "function": "sell(uint256)",
      "arguments": [
        "23537499165"
      ],
      "transaction": {
        "from": "0xc77f7fed3b5cc8249adc428c5f44c9063b9734b4",
        "to": "0x8aafd3ede9adb0ff97c7aebce82a919afb1c8764",
        "gas": "0x1722a",
        "value": "0x0",
        "input": "0xe4849b32000000000000000000000000000000000000000000000000000000057af1bc1d",
        "nonce": "0x101e",
        "chainId": "0xaa36a7"
      },
      "additionalContracts": [],
      "isFixedGasLimit": false
    }
  ],
  "receipts": [
    {
      "status": "0x1",
      "cumulativeGasUsed": "0xa4975a",
      "logs": [
        {
          "address": "0x8aafd3ede9adb0ff97c7aebce82a919afb1c8764",
          "topics": [
            "0xddf252ad1be2c89b69c2b068fc378daa952ba7f163c4a11628f55a4df523b3ef",
            "0x000000000000000000000000c77f7fed3b5cc8249adc428c5f44c9063b9734b4",
            "0x0000000000000000000000000000000000000000000000000000000000000000"
          ],
          "data": "0x000000000000000000000000000000000000000000000000000000056fb88144",
          "blockHash": "0xf44c409735c7ed5218eb2a3fd8a8c86a396d43f158d4a2e104e562ca524e2e2f",
          "blockNumber": "0x731696",
          "transactionHash": "0x9ae3ca2d2d4132b68c2a3d1d9c5269e7878ebcb2ea0959d7cd339f496f8fcc7e",
          "transactionIndex": "0x61",
          "logIndex": "0x8e",
          "removed": false
        },
        {
          "address": "0x8aafd3ede9adb0ff97c7aebce82a919afb1c8764",
          "topics": [
            "0xddf252ad1be2c89b69c2b068fc378daa952ba7f163c4a11628f55a4df523b3ef",
            "0x000000000000000000000000c77f7fed3b5cc8249adc428c5f44c9063b9734b4",
            "0x000000000000000000000000c77f7fed3b5cc8249adc428c5f44c9063b9734b4"
          ],
          "data": "0x000000000000000000000000000000000000000000000000000000000b393ad9",
          "blockHash": "0xf44c409735c7ed5218eb2a3fd8a8c86a396d43f158d4a2e104e562ca524e2e2f",
          "blockNumber": "0x731696",
          "transactionHash": "0x9ae3ca2d2d4132b68c2a3d1d9c5269e7878ebcb2ea0959d7cd339f496f8fcc7e",
          "transactionIndex": "0x61",
          "logIndex": "0x8f",
          "removed": false
        },
        {
          "address": "0x8aafd3ede9adb0ff97c7aebce82a919afb1c8764",
          "topics": [
            "0x4afcb4a87cdbd9974efdb92ee48bc8d7cd0ae4bf217004db3d080cbaee652ca7"
          ],
          "data": "0x0000000000000000000000000000000000000000000000000000000067900bb40000000000000000000000000000000000000000000000000004eac19642c43d0000000000000000000000000000000000000000000000000000000001f1132c",
          "blockHash": "0xf44c409735c7ed5218eb2a3fd8a8c86a396d43f158d4a2e104e562ca524e2e2f",
          "blockNumber": "0x731696",
          "transactionHash": "0x9ae3ca2d2d4132b68c2a3d1d9c5269e7878ebcb2ea0959d7cd339f496f8fcc7e",
          "transactionIndex": "0x61",
          "logIndex": "0x90",
          "removed": false
        }
      ],
      "logsBloom": "0x00000000000000000000000000000000000000000600000000000000000000000000000000000000000000000000000000000000000000004000000000000000000000000000004000000008000000000000000000000000000000000000000000000000020000000000000000000800020000000000000000000010000000000000000000000000000000000000000000000000000000000000010000000000000000000000000000000000000000004000000000000000000000000000000000000002000000800000000000000000000000000000080000000000000020000000000000000000000000000000000000000000000000000000000000000000",
      "type": "0x2",
      "transactionHash": "0x9ae3ca2d2d4132b68c2a3d1d9c5269e7878ebcb2ea0959d7cd339f496f8fcc7e",
      "transactionIndex": "0x61",
      "blockHash": "0xf44c409735c7ed5218eb2a3fd8a8c86a396d43f158d4a2e104e562ca524e2e2f",
      "blockNumber": "0x731696",
      "gasUsed": "0xfd1b",
      "effectiveGasPrice": "0x40f28d6d",
      "from": "0xc77f7fed3b5cc8249adc428c5f44c9063b9734b4",
      "to": "0x8aafd3ede9adb0ff97c7aebce82a919afb1c8764",
      "contractAddress": null
    }
  ],
  "libraries": [],
  "pending": [],
  "returns": {},
  "timestamp": 1737493428,
  "chain": 11155111,
  "commit": "1d2fb70"
}