{
  "transactions": [
    {
      "hash": "0x725f07b0b8e10a1ef3433b083162572adc7add8614287e5ee8fb12e5c1dbfdc4",
      "transactionType": "CALL",
      "contractName": null,
      "contractAddress": "0x8aafd3ede9adb0ff97c7aebce82a919afb1c8764",
      "function": "sell(uint256)",
      "arguments": [
        "4671497029"
      ],
      "transaction": {
        "from": "0xc77f7fed3b5cc8249adc428c5f44c9063b9734b4",
        "to": "0x8aafd3ede9adb0ff97c7aebce82a919afb1c8764",
        "gas": "0x1722a",
        "value": "0x0",
        "input": "0xe4849b320000000000000000000000000000000000000000000000000000000116716345",
        "nonce": "0x179e",
        "chainId": "0xaa36a7"
      },
      "additionalContracts": [],
      "isFixedGasLimit": false
    }
  ],
  "receipts": [
    {
      "status": "0x1",
      "cumulativeGasUsed": "0xa1e6a3",
      "logs": [
        {
          "address": "0x8aafd3ede9adb0ff97c7aebce82a919afb1c8764",
          "topics": [
            "0xddf252ad1be2c89b69c2b068fc378daa952ba7f163c4a11628f55a4df523b3ef",
            "0x000000000000000000000000c77f7fed3b5cc8249adc428c5f44c9063b9734b4",
            "0x0000000000000000000000000000000000000000000000000000000000000000"
          ],
          "data": "0x00000000000000000000000000000000000000000000000000000001143722fd",
          "blockHash": "0x309166d71f3fed15f4e886154afa0ffb64316623632c296bfc591ecce343e223",
          "blockNumber": "0x731f7d",
          "transactionHash": "0x725f07b0b8e10a1ef3433b083162572adc7add8614287e5ee8fb12e5c1dbfdc4",
          "transactionIndex": "0x5f",
          "logIndex": "0x85",
          "removed": false
        },
        {
          "address": "0x8aafd3ede9adb0ff97c7aebce82a919afb1c8764",
          "topics": [
            "0xddf252ad1be2c89b69c2b068fc378daa952ba7f163c4a11628f55a4df523b3ef",
            "0x000000000000000000000000c77f7fed3b5cc8249adc428c5f44c9063b9734b4",
            "0x000000000000000000000000c77f7fed3b5cc8249adc428c5f44c9063b9734b4"
          ],
          "data": "0x00000000000000000000000000000000000000000000000000000000023a4048",
          "blockHash": "0x309166d71f3fed15f4e886154afa0ffb64316623632c296bfc591ecce343e223",
          "blockNumber": "0x731f7d",
          "transactionHash": "0x725f07b0b8e10a1ef3433b083162572adc7add8614287e5ee8fb12e5c1dbfdc4",
          "transactionIndex": "0x5f",
          "logIndex": "0x86",
          "removed": false
        },
        {
          "address": "0x8aafd3ede9adb0ff97c7aebce82a919afb1c8764",
          "topics": [
            "0x4afcb4a87cdbd9974efdb92ee48bc8d7cd0ae4bf217004db3d080cbaee652ca7"
          ],
          "data": "0x00000000000000000000000000000000000000000000000000000000679076c40000000000000000000000000000000000000000000000000018d9fbe3bea40e0000000000000000000000000000000000000000000000000000000001f29e61",
          "blockHash": "0x309166d71f3fed15f4e886154afa0ffb64316623632c296bfc591ecce343e223",
          "blockNumber": "0x731f7d",
          "transactionHash": "0x725f07b0b8e10a1ef3433b083162572adc7add8614287e5ee8fb12e5c1dbfdc4",
          "transactionIndex": "0x5f",
          "logIndex": "0x87",
          "removed": false
        }
      ],
      "logsBloom": "0x00000000000000000000000000000000000000000600000000000000000000000000000000000000000000000000000000000000000000004000000000000000000000000000004000000008000000000000000000000000000000000000000000000000020000000000000000000800020000000000000000000010000000000000000000000000000000000000000000000000000000000000010000000000000000000000000000000000000000004000000000000000000000000000000000000002000000800000000000000000000000000000080000000000000020000000000000000000000000000000000000000000000000000000000000000000",
      "type": "0x2",
      "transactionHash": "0x725f07b0b8e10a1ef3433b083162572adc7add8614287e5ee8fb12e5c1dbfdc4",
      "transactionIndex": "0x5f",
      "blockHash": "0x309166d71f3fed15f4e886154afa0ffb64316623632c296bfc591ecce343e223",
      "blockNumber": "0x731f7d",
      "gasUsed": "0xfd1b",
      "effectiveGasPrice": "0x4d5ea259",
      "from": "0xc77f7fed3b5cc8249adc428c5f44c9063b9734b4",
      "to": "0x8aafd3ede9adb0ff97c7aebce82a919afb1c8764",
      "contractAddress": null
    }
  ],
  "libraries": [],
  "pending": [],
  "returns": {},
  "timestamp": 1737520837,
  "chain": 11155111,
  "commit": "1d2fb70"
}