{
  "transactions": [
    {
      "hash": "0x4ef67e46bc854c7eb7caaa5c08cddfa445db5a1d64daae2477956ce178e47304",
      "transactionType": "CALL",
      "contractName": null,
      "contractAddress": "0x8aafd3ede9adb0ff97c7aebce82a919afb1c8764",
      "function": "sell(uint256)",
      "arguments": [
        "437896"
      ],
      "transaction": {
        "from": "0xc77f7fed3b5cc8249adc428c5f44c9063b9734b4",
        "to": "0x8aafd3ede9adb0ff97c7aebce82a919afb1c8764",
        "gas": "0x16208",
        "value": "0x0",
        "input": "0xe4849b32000000000000000000000000000000000000000000000000000000000006ae88",
        "nonce": "0x14fd",
        "chainId": "0xaa36a7"
      },
      "additionalContracts": [],
      "isFixedGasLimit": false
    }
  ],
  "receipts": [
    {
      "status": "0x1",
      "cumulativeGasUsed": "0xd4481d",
      "logs": [
        {
          "address": "0x8aafd3ede9adb0ff97c7aebce82a919afb1c8764",
          "topics": [
            "0xddf252ad1be2c89b69c2b068fc378daa952ba7f163c4a11628f55a4df523b3ef",
            "0x000000000000000000000000c77f7fed3b5cc8249adc428c5f44c9063b9734b4",
            "0x0000000000000000000000000000000000000000000000000000000000000000"
          ],
          "data": "0x000000000000000000000000000000000000000000000000000000000006a0d9",
          "blockHash": "0x3f112f31bf29101eeaddd0bed22265386390ce411d0f6cbc9522aebdf2a08680",
          "blockNumber": "0x731c5f",
          "transactionHash": "0x4ef67e46bc854c7eb7caaa5c08cddfa445db5a1d64daae2477956ce178e47304",
          "transactionIndex": "0x8b",
          "logIndex": "0x94",
          "removed": false
        },
        {
          "address": "0x8aafd3ede9adb0ff97c7aebce82a919afb1c8764",
          "topics": [
            "0xddf252ad1be2c89b69c2b068fc378daa952ba7f163c4a11628f55a4df523b3ef",
            "0x000000000000000000000000c77f7fed3b5cc8249adc428c5f44c9063b9734b4",
            "0x000000000000000000000000c77f7fed3b5cc8249adc428c5f44c9063b9734b4"
          ],
          "data": "0x0000000000000000000000000000000000000000000000000000000000000daf",
          "blockHash": "0x3f112f31bf29101eeaddd0bed22265386390ce411d0f6cbc9522aebdf2a08680",
          "blockNumber": "0x731c5f",
          "transactionHash": "0x4ef67e46bc854c7eb7caaa5c08cddfa445db5a1d64daae2477956ce178e47304",
          "transactionIndex": "0x8b",
          "logIndex": "0x95",
          "removed": false
        },
        {
          "address": "0x8aafd3ede9adb0ff97c7aebce82a919afb1c8764",
          "topics": [
            "0x4afcb4a87cdbd9974efdb92ee48bc8d7cd0ae4bf217004db3d080cbaee652ca7"
          ],
          "data": "0x00000000000000000000000000000000000000000000000000000000679051500000000000000000000000000000000000000000000000000010ffc47481da39000000000000000000000000000000000000000000000000000000000000082f",
          "blockHash": "0x3f112f31bf29101eeaddd0bed22265386390ce411d0f6cbc9522aebdf2a08680",
          "blockNumber": "0x731c5f",
          "transactionHash": "0x4ef67e46bc854c7eb7caaa5c08cddfa445db5a1d64daae2477956ce178e47304",
          "transactionIndex": "0x8b",
          "logIndex": "0x96",
          "removed": false
        }
      ],
      "logsBloom": "0x00000000000000000000000000000000000000000600000000000000000000000000000000000000000000000000000000000000000000004000000000000000000000000000004000000008000000000000000000000000000000000000000000000000020000000000000000000800020000000000000000000010000000000000000000000000000000000000000000000000000000000000010000000000000000000000000000000000000000004000000000000000000000000000000000000002000000800000000000000000000000000000080000000000000020000000000000000000000000000000000000000000000000000000000000000000",
      "type": "0x2",
      "transactionHash": "0x4ef67e46bc854c7eb7caaa5c08cddfa445db5a1d64daae2477956ce178e47304",
      "transactionIndex": "0x8b",
      "blockHash": "0x3f112f31bf29101eeaddd0bed22265386390ce411d0f6cbc9522aebdf2a08680",
      "blockNumber": "0x731c5f",
      "gasUsed": "0xf213",
      "effectiveGasPrice": "0x17d8113cc",
      "from": "0xc77f7fed3b5cc8249adc428c5f44c9063b9734b4",
      "to": "0x8aafd3ede9adb0ff97c7aebce82a919afb1c8764",
      "contractAddress": null
    }
  ],
  "libraries": [],
  "pending": [],
  "returns": {},
  "timestamp": 1737511250,
  "chain": 11155111,
  "commit": "1d2fb70"
}