{
  "transactions": [
    {
      "hash": "0x0d1a0c3f49519d725e48dbc2f062ef768af518979267e922e68052828a4897d6",
      "transactionType": "CALL",
      "contractName": null,
      "contractAddress": "0x8aafd3ede9adb0ff97c7aebce82a919afb1c8764",
      "function": "sell(uint256)",
      "arguments": [
        "1207347086132690315"
      ],
      "transaction": {
        "from": "0xc77f7fed3b5cc8249adc428c5f44c9063b9734b4",
        "to": "0x8aafd3ede9adb0ff97c7aebce82a919afb1c8764",
        "gas": "0x15dca",
        "value": "0x0",
        "input": "0xe4849b3200000000000000000000000000000000000000000000000010c15bc72d8abd8b",
        "nonce": "0x1725",
        "chainId": "0xaa36a7"
      },
      "additionalContracts": [],
      "isFixedGasLimit": false
    }
  ],
  "receipts": [
    {
      "status": "0x1",
      "cumulativeGasUsed": "0x14f4615",
      "logs": [
        {
          "address": "0x8aafd3ede9adb0ff97c7aebce82a919afb1c8764",
          "topics": [
            "0xddf252ad1be2c89b69c2b068fc378daa952ba7f163c4a11628f55a4df523b3ef",
            "0x000000000000000000000000c77f7fed3b5cc8249adc428c5f44c9063b9734b4",
            "0x0000000000000000000000000000000000000000000000000000000000000000"
          ],
          "data": "0x000000000000000000000000000000000000000000000000109f0b2bfc068ef9",
          "blockHash": "0x6a48824ca70b830438ca1f1d0ccb0841e31668bf108ac40552ed0b77c4771228",
          "blockNumber": "0x731eed",
          "transactionHash": "0x0d1a0c3f49519d725e48dbc2f062ef768af518979267e922e68052828a4897d6",
          "transactionIndex": "0x8a",
          "logIndex": "0xea",
          "removed": false
        },
        {
          "address": "0x8aafd3ede9adb0ff97c7aebce82a919afb1c8764",
          "topics": [
            "0xddf252ad1be2c89b69c2b068fc378daa952ba7f163c4a11628f55a4df523b3ef",
            "0x000000000000000000000000c77f7fed3b5cc8249adc428c5f44c9063b9734b4",
            "0x000000000000000000000000c77f7fed3b5cc8249adc428c5f44c9063b9734b4"
          ],
          "data": "0x0000000000000000000000000000000000000000000000000022509b31842e92",
          "blockHash": "0x6a48824ca70b830438ca1f1d0ccb0841e31668bf108ac40552ed0b77c4771228",
          "blockNumber": "0x731eed",
          "transactionHash": "0x0d1a0c3f49519d725e48dbc2f062ef768af518979267e922e68052828a4897d6",
          "transactionIndex": "0x8a",
          "logIndex": "0xeb",
          "removed": false
        },
        {
          "address": "0x8aafd3ede9adb0ff97c7aebce82a919afb1c8764",
          "topics": [
            "0x4afcb4a87cdbd9974efdb92ee48bc8d7cd0ae4bf217004db3d080cbaee652ca7"
          ],
          "data": "0x000000000000000000000000000000000000000000000000000000006790700400000000000000000000000000000000000000000000000000177b2eca0d3621000000000000000000000000000000000000000000000000001c596415459bc7",
          "blockHash": "0x6a48824ca70b830438ca1f1d0ccb0841e31668bf108ac40552ed0b77c4771228",
          "blockNumber": "0x731eed",
          "transactionHash": "0x0d1a0c3f49519d725e48dbc2f062ef768af518979267e922e68052828a4897d6",
          "transactionIndex": "0x8a",
          "logIndex": "0xec",
          "removed": false
        }
      ],
      "logsBloom": "0x00000000000000000000000000000000000000000600000000000000000000000000000000000000000000000000000000000000000000004000000000000000000000000000004000000008000000000000000000000000000000000000000000000000020000000000000000000800020000000000000000000010000000000000000000000000000000000000000000000000000000000000010000000000000000000000000000000000000000004000000000000000000000000000000000000002000000800000000000000000000000000000080000000000000020000000000000000000000000000000000000000000000000000000000000000000",
      "type": "0x2",
      "transactionHash": "0x0d1a0c3f49519d725e48dbc2f062ef768af518979267e922e68052828a4897d6",
      "transactionIndex": "0x8a",
      "blockHash": "0x6a48824ca70b830438ca1f1d0ccb0841e31668bf108ac40552ed0b77c4771228",
      "blockNumber": "0x731eed",
      "gasUsed": "0xfd3f",
      "effectiveGasPrice": "0x3f7a1279",
      "from": "0xc77f7fed3b5cc8249adc428c5f44c9063b9734b4",
      "to": "0x8aafd3ede9adb0ff97c7aebce82a919afb1c8764",
      "contractAddress": null
    }
  ],
  "libraries": [],
  "pending": [],
  "returns": {},
  "timestamp": 1737519109,
  "chain": 11155111,
  "commit": "1d2fb70"
}