{
  "transactions": [
    {
      "hash": "0x2998659537303a0a6e21c5a3df056135e94c049458b1157b7f60cdb8a3e376bb",
      "transactionType": "CALL",
      "contractName": null,
      "contractAddress": "0x5eb9cc76c3506942c1c0ead70e877dd5e4f00cb0",
      "function": "sell(uint256)",
      "arguments": [
        "989126452439567419955"
      ],
      "transaction": {
        "from": "0xc77f7fed3b5cc8249adc428c5f44c9063b9734b4",
        "to": "0x5eb9cc76c3506942c1c0ead70e877dd5e4f00cb0",
        "gas": "0x16fec",
        "value": "0x0",
        "input": "0xe4849b320000000000000000000000000000000000000000000000359ee313e092b9ca33",
        "nonce": "0x35b",
        "chainId": "0xaa36a7"
      },
      "additionalContracts": [],
      "isFixedGasLimit": false
    }
  ],
  "receipts": [
    {
      "status": "0x1",
      "cumulativeGasUsed": "0x1406de0",
      "logs": [
        {
          "address": "0x5eb9cc76c3506942c1c0ead70e877dd5e4f00cb0",
          "topics": [
            "0xddf252ad1be2c89b69c2b068fc378daa952ba7f163c4a11628f55a4df523b3ef",
            "0x000000000000000000000000c77f7fed3b5cc8249adc428c5f44c9063b9734b4",
            "0x0000000000000000000000000000000000000000000000000000000000000000"
          ],
          "data": "0x0000000000000000000000000000000000000000000000359ee313e092b9ca33",
          "blockHash": "0x254cd2f8be61bceacc7e41535a01528f6d6bbb50c3ae0d4cbca4af4f5736134c",
          "blockNumber": "0x724f51",
          "transactionHash": "0x2998659537303a0a6e21c5a3df056135e94c049458b1157b7f60cdb8a3e376bb",
          "transactionIndex": "0x89",
          "logIndex": "0xe3",
          "removed": false
        },
        {
          "address": "0x5eb9cc76c3506942c1c0ead70e877dd5e4f00cb0",
          "topics": [
            "0x4afcb4a87cdbd9974efdb92ee48bc8d7cd0ae4bf217004db3d080cbaee652ca7"
          ],
          "data": "0x000000000000000000000000000000000000000000000000000000006786a9800000000000000000000000000000000000000000000000000003910f388acd150000000000000000000000000000000000000000000000000dc7db1332168457",
          "blockHash": "0x254cd2f8be61bceacc7e41535a01528f6d6bbb50c3ae0d4cbca4af4f5736134c",
          "blockNumber": "0x724f51",
          "transactionHash": "0x2998659537303a0a6e21c5a3df056135e94c049458b1157b7f60cdb8a3e376bb",
          "transactionIndex": "0x89",
          "logIndex": "0xe4",
          "removed": false
        }
      ],
      "logsBloom": "0x00000000000000000000000000000000000000000000000000000000000000000000000000000000000000000000000000000000000000004000000000000000000000000000000000000008000000000000000000000000000000000000000000000000020000000000000004000800020000000000000000000010000000000000000000000000000000000000000000000000000000000000010000000000000000000000000000000000000000004000000000000000000000000000020000000002000000800000008000000000000000000000080000000000000020000000000000000000000000000000000000000000000000000000000000000000",
      "type": "0x2",
      "transactionHash": "0x2998659537303a0a6e21c5a3df056135e94c049458b1157b7f60cdb8a3e376bb",
      "transactionIndex": "0x89",
      "blockHash": "0x254cd2f8be61bceacc7e41535a01528f6d6bbb50c3ae0d4cbca4af4f5736134c",
      "blockNumber": "0x724f51",
      "gasUsed": "0xfb93",
      "effectiveGasPrice": "0x52ba797dd",
      "from": "0xc77f7fed3b5cc8249adc428c5f44c9063b9734b4",
      "to": "0x5eb9cc76c3506942c1c0ead70e877dd5e4f00cb0",
      "contractAddress": null
    }
  ],
  "libraries": [],
  "pending": [],
  "returns": {},
  "timestamp": 1736878466,
  "chain": 11155111,
  "commit": "51a374b"
}