{
  "transactions": [
    {
      "hash": "0x4e0859a95580f9ece36f4ce2a3c87f1fe2bf18752f1278a8a12d0bfea5fe1234",
      "transactionType": "CALL",
      "contractName": null,
      "contractAddress": "0x8aafd3ede9adb0ff97c7aebce82a919afb1c8764",
      "function": "sell(uint256)",
      "arguments": [
        "24536349824"
      ],
      "transaction": {
        "from": "0xc77f7fed3b5cc8249adc428c5f44c9063b9734b4",
        "to": "0x8aafd3ede9adb0ff97c7aebce82a919afb1c8764",
        "gas": "0x1722a",
        "value": "0x0",
        "input": "0xe4849b3200000000000000000000000000000000000000000000000000000005b67afc80",
        "nonce": "0xe8d",
        "chainId": "0xaa36a7"
      },
      "additionalContracts": [],
      "isFixedGasLimit": false
    }
  ],
  "receipts": [
    {
      "status": "0x1",
      "cumulativeGasUsed": "0xfeab44",
      "logs": [
        {
          "address": "0x8aafd3ede9adb0ff97c7aebce82a919afb1c8764",
          "topics": [
            "0xddf252ad1be2c89b69c2b068fc378daa952ba7f163c4a11628f55a4df523b3ef",
            "0x000000000000000000000000c77f7fed3b5cc8249adc428c5f44c9063b9734b4",
            "0x0000000000000000000000000000000000000000000000000000000000000000"
          ],
          "data": "0x00000000000000000000000000000000000000000000000000000005aac7d392",
          "blockHash": "0xc8de8b1f4aea38096c9f17fd69c0e1b563ef4051dfed3c46400c4c0bf9691bbf",
          "blockNumber": "0x7313ea",
          "transactionHash": "0x4e0859a95580f9ece36f4ce2a3c87f1fe2bf18752f1278a8a12d0bfea5fe1234",
          "transactionIndex": "0x87",
          "logIndex": "0xc9",
          "removed": false
        },
        {
          "address": "0x8aafd3ede9adb0ff97c7aebce82a919afb1c8764",
          "topics": [
            "0xddf252ad1be2c89b69c2b068fc378daa952ba7f163c4a11628f55a4df523b3ef",
            "0x000000000000000000000000c77f7fed3b5cc8249adc428c5f44c9063b9734b4",
            "0x000000000000000000000000c77f7fed3b5cc8249adc428c5f44c9063b9734b4"
          ],
          "data": "0x000000000000000000000000000000000000000000000000000000000bb328ee",
          "blockHash": "0xc8de8b1f4aea38096c9f17fd69c0e1b563ef4051dfed3c46400c4c0bf9691bbf",
          "blockNumber": "0x7313ea",
          "transactionHash": "0x4e0859a95580f9ece36f4ce2a3c87f1fe2bf18752f1278a8a12d0bfea5fe1234",
          "transactionIndex": "0x87",
          "logIndex": "0xca",
          "removed": false
        },
        {
          "address": "0x8aafd3ede9adb0ff97c7aebce82a919afb1c8764",
          "topics": [
            "0x4afcb4a87cdbd9974efdb92ee48bc8d7cd0ae4bf217004db3d080cbaee652ca7"
          ],
          "data": "0x00000000000000000000000000000000000000000000000000000000678feb8c0000000000000000000000000000000000000000000000000004b689478112840000000000000000000000000000000000000000000000000000000001f0ac31",
          "blockHash": "0xc8de8b1f4aea38096c9f17fd69c0e1b563ef4051dfed3c46400c4c0bf9691bbf",
          "blockNumber": "0x7313ea",
          "transactionHash": "0x4e0859a95580f9ece36f4ce2a3c87f1fe2bf18752f1278a8a12d0bfea5fe1234",
          "transactionIndex": "0x87",
          "logIndex": "0xcb",
          "removed": false
        }
      ],
      "logsBloom": "0x00000000000000000000000000000000000000000600000000000000000000000000000000000000000000000000000000000000000000004000000000000000000000000000004000000008000000000000000000000000000000000000000000000000020000000000000000000800020000000000000000000010000000000000000000000000000000000000000000000000000000000000010000000000000000000000000000000000000000004000000000000000000000000000000000000002000000800000000000000000000000000000080000000000000020000000000000000000000000000000000000000000000000000000000000000000",
      "type": "0x2",
      "transactionHash": "0x4e0859a95580f9ece36f4ce2a3c87f1fe2bf18752f1278a8a12d0bfea5fe1234",
      "transactionIndex": "0x87",
      "blockHash": "0xc8de8b1f4aea38096c9f17fd69c0e1b563ef4051dfed3c46400c4c0bf9691bbf",
      "blockNumber": "0x7313ea",
      "gasUsed": "0xfd1b",
      "effectiveGasPrice": "0x7e6466b4",
      "from": "0xc77f7fed3b5cc8249adc428c5f44c9063b9734b4",
      "to": "0x8aafd3ede9adb0ff97c7aebce82a919afb1c8764",
      "contractAddress": null
    }
  ],
  "libraries": [],
  "pending": [],
  "returns": {},
  "timestamp": 1737485198,
  "chain": 11155111,
  "commit": "51a374b"
}