{
  "transactions": [
    {
      "hash": "0x2faf607201b57e81f69bdd2773002788593fc1d0ec09baf4aa43fdcb89f3c193",
      "transactionType": "CALL",
      "contractName": null,
      "contractAddress": "0x8aafd3ede9adb0ff97c7aebce82a919afb1c8764",
      "function": "sell(uint256)",
      "arguments": [
        "10113757110309063"
      ],
      "transaction": {
        "from": "0xc77f7fed3b5cc8249adc428c5f44c9063b9734b4",
        "to": "0x8aafd3ede9adb0ff97c7aebce82a919afb1c8764",
        "gas": "0x1724d",
        "value": "0x0",
        "input": "0xe4849b320000000000000000000000000000000000000000000000000023ee6893e790c7",
        "nonce": "0x16cc",
        "chainId": "0xaa36a7"
      },
      "additionalContracts": [],
      "isFixedGasLimit": false
    }
  ],
  "receipts": [
    {
      "status": "0x1",
      "cumulativeGasUsed": "0xbffa3f",
      "logs": [
        {
          "address": "0x8aafd3ede9adb0ff97c7aebce82a919afb1c8764",
          "topics": [
            "0xddf252ad1be2c89b69c2b068fc378daa952ba7f163c4a11628f55a4df523b3ef",
            "0x000000000000000000000000c77f7fed3b5cc8249adc428c5f44c9063b9734b4",
            "0x0000000000000000000000000000000000000000000000000000000000000000"
          ],
          "data": "0x0000000000000000000000000000000000000000000000000023a4d23cb48f9f",
          "blockHash": "0x8f61b76e9d021d9ef0afe93173db84b8857211cf7058103366a4cf0a6d8853f6",
          "blockNumber": "0x731e86",
          "transactionHash": "0x2faf607201b57e81f69bdd2773002788593fc1d0ec09baf4aa43fdcb89f3c193",
          "transactionIndex": "0x6e",
          "logIndex": "0x8f",
          "removed": false
        },
        {
          "address": "0x8aafd3ede9adb0ff97c7aebce82a919afb1c8764",
          "topics": [
            "0xddf252ad1be2c89b69c2b068fc378daa952ba7f163c4a11628f55a4df523b3ef",
            "0x000000000000000000000000c77f7fed3b5cc8249adc428c5f44c9063b9734b4",
            "0x000000000000000000000000c77f7fed3b5cc8249adc428c5f44c9063b9734b4"
          ],
          "data": "0x0000000000000000000000000000000000000000000000000000499657330128",
          "blockHash": "0x8f61b76e9d021d9ef0afe93173db84b8857211cf7058103366a4cf0a6d8853f6",
          "blockNumber": "0x731e86",
          "transactionHash": "0x2faf607201b57e81f69bdd2773002788593fc1d0ec09baf4aa43fdcb89f3c193",
          "transactionIndex": "0x6e",
          "logIndex": "0x90",
          "removed": false
        },
        {
          "address": "0x8aafd3ede9adb0ff97c7aebce82a919afb1c8764",
          "topics": [
            "0x4afcb4a87cdbd9974efdb92ee48bc8d7cd0ae4bf217004db3d080cbaee652ca7"
          ],
          "data": "0x0000000000000000000000000000000000000000000000000000000067906b3000000000000000000000000000000000000000000000000000166dec18fa7a3e00000000000000000000000000000000000000000000000000003a12886b86c8",
          "blockHash": "0x8f61b76e9d021d9ef0afe93173db84b8857211cf7058103366a4cf0a6d8853f6",
          "blockNumber": "0x731e86",
          "transactionHash": "0x2faf607201b57e81f69bdd2773002788593fc1d0ec09baf4aa43fdcb89f3c193",
          "transactionIndex": "0x6e",
          "logIndex": "0x91",
          "removed": false
        }
      ],
      "logsBloom": "0x00000000000000000000000000000000000000000600000000000000000000000000000000000000000000000000000000000000000000004000000000000000000000000000004000000008000000000000000000000000000000000000000000000000020000000000000000000800020000000000000000000010000000000000000000000000000000000000000000000000000000000000010000000000000000000000000000000000000000004000000000000000000000000000000000000002000000800000000000000000000000000000080000000000000020000000000000000000000000000000000000000000000000000000000000000000",
      "type": "0x2",
      "transactionHash": "0x2faf607201b57e81f69bdd2773002788593fc1d0ec09baf4aa43fdcb89f3c193",
      "transactionIndex": "0x6e",
      "blockHash": "0x8f61b76e9d021d9ef0afe93173db84b8857211cf7058103366a4cf0a6d8853f6",
      "blockNumber": "0x731e86",
      "gasUsed": "0xfd33",
      "effectiveGasPrice": "0x45f87e5f",
      "from": "0xc77f7fed3b5cc8249adc428c5f44c9063b9734b4",
      "to": "0x8aafd3ede9adb0ff97c7aebce82a919afb1c8764",
      "contractAddress": null
    }
  ],
  "libraries": [],
  "pending": [],
  "returns": {},
  "timestamp": 1737517873,
  "chain": 11155111,
  "commit": "1d2fb70"
}