{
  "transactions": [
    {
      "hash": "0x1a1e0d10749b869b978063d756c25fb4111d59a4909e8f5ffb793fa295cf55da",
      "transactionType": "CALL",
      "contractName": null,
      "contractAddress": "0xbf4a322f1496e5c3d34a9bcdb4c60567b38c7de2",
      "function": "sell(uint256)",
      "arguments": [
        "974087199450835974374"
      ],
      "transaction": {
        "from": "0xc77f7fed3b5cc8249adc428c5f44c9063b9734b4",
        "to": "0xbf4a322f1496e5c3d34a9bcdb4c60567b38c7de2",
        "gas": "0x16fea",
        "value": "0x0",
        "input": "0xe4849b32000000000000000000000000000000000000000000000034ce2ceaf72227f8e6",
        "nonce": "0xdd3",
        "chainId": "0xaa36a7"
      },
      "additionalContracts": [],
      "isFixedGasLimit": false
    }
  ],
  "receipts": [
    {
      "status": "0x1",
      "cumulativeGasUsed": "0xd50dc9",
      "logs": [
        {
          "address": "0xbf4a322f1496e5c3d34a9bcdb4c60567b38c7de2",
          "topics": [
            "0xddf252ad1be2c89b69c2b068fc378daa952ba7f163c4a11628f55a4df523b3ef",
            "0x000000000000000000000000c77f7fed3b5cc8249adc428c5f44c9063b9734b4",
            "0x0000000000000000000000000000000000000000000000000000000000000000"
          ],
          "data": "0x000000000000000000000000000000000000000000000034ce2ceaf72227f8e6",
          "blockHash": "0x74419568ab1b1d502d5875cdfbb36581a04363a0f654b441fcf6eb3b5cfadb87",
          "blockNumber": "0x7266b1",
          "transactionHash": "0x1a1e0d10749b869b978063d756c25fb4111d59a4909e8f5ffb793fa295cf55da",
          "transactionIndex": "0x35",
          "logIndex": "0x5c",
          "removed": false
        },
        {
          "address": "0xbf4a322f1496e5c3d34a9bcdb4c60567b38c7de2",
          "topics": [
            "0x4afcb4a87cdbd9974efdb92ee48bc8d7cd0ae4bf217004db3d080cbaee652ca7"
          ],
          "data": "0x000000000000000000000000000000000000000000000000000000006787c35000000000000000000000000000000000000000000000000000039f2e728a7b2d0000000000000000000000000000000000000000000000000dc7e3d45199e78b",
          "blockHash": "0x74419568ab1b1d502d5875cdfbb36581a04363a0f654b441fcf6eb3b5cfadb87",
          "blockNumber": "0x7266b1",
          "transactionHash": "0x1a1e0d10749b869b978063d756c25fb4111d59a4909e8f5ffb793fa295cf55da",
          "transactionIndex": "0x35",
          "logIndex": "0x5d",
          "removed": false
        }
      ],
      "logsBloom": "0x00000000000000000000000000000000000000000000000000000000000000000000000000000000000000000000000000000000000000004000000000000000000000000000000000000008000000000000001000000000000000000000000000000000020000000000000000000800020000000000000000000010000000000000000000000000000000000000000000000000000008000000010000000000000000000000000000000000000000004000000000000000000000000000000000000002000000800000000000001000000000000000080000000000000020000000000000000000000000000000000000000000000000000000000000000000",
      "type": "0x2",
      "transactionHash": "0x1a1e0d10749b869b978063d756c25fb4111d59a4909e8f5ffb793fa295cf55da",
      "transactionIndex": "0x35",
      "blockHash": "0x74419568ab1b1d502d5875cdfbb36581a04363a0f654b441fcf6eb3b5cfadb87",
      "blockNumber": "0x7266b1",
      "gasUsed": "0xfb91",
      "effectiveGasPrice": "0x1bf457d38",
      "from": "0xc77f7fed3b5cc8249adc428c5f44c9063b9734b4",
      "to": "0xbf4a322f1496e5c3d34a9bcdb4c60567b38c7de2",
      "contractAddress": null
    }
  ],
  "libraries": [],
  "pending": [],
  "returns": {},
  "timestamp": 1736950609,
  "chain": 11155111,
  "commit": "51a374b"
}