{
  "transactions": [
    {
      "hash": "0xccf51a1894cb1c999f736a5e9a9728b69557191f3afd3b0255cf3c5417f2a908",
      "transactionType": "CALL",
      "contractName": null,
      "contractAddress": "0x8aafd3ede9adb0ff97c7aebce82a919afb1c8764",
      "function": "sell(uint256)",
      "arguments": [
        "4773212874"
      ],
      "transaction": {
        "from": "0xc77f7fed3b5cc8249adc428c5f44c9063b9734b4",
        "to": "0x8aafd3ede9adb0ff97c7aebce82a919afb1c8764",
        "gas": "0x1722a",
        "value": "0x0",
        "input": "0xe4849b32000000000000000000000000000000000000000000000000000000011c8172ca",
        "nonce": "0x1771",
        "chainId": "0xaa36a7"
      },
      "additionalContracts": [],
      "isFixedGasLimit": false
    }
  ],
  "receipts": [
    {
      "status": "0x1",
      "cumulativeGasUsed": "0x977a24",
      "logs": [
        {
          "address": "0x8aafd3ede9adb0ff97c7aebce82a919afb1c8764",
          "topics": [
            "0xddf252ad1be2c89b69c2b068fc378daa952ba7f163c4a11628f55a4df523b3ef",
            "0x000000000000000000000000c77f7fed3b5cc8249adc428c5f44c9063b9734b4",
            "0x0000000000000000000000000000000000000000000000000000000000000000"
          ],
          "data": "0x000000000000000000000000000000000000000000000000000000011a3ac7e4",
          "blockHash": "0x8c673ead936180d041a435074d92cb4fa3d58277a5fe48580cb60b50a090fd79",
          "blockNumber": "0x731f49",
          "transactionHash": "0xccf51a1894cb1c999f736a5e9a9728b69557191f3afd3b0255cf3c5417f2a908",
          "transactionIndex": "0x5b",
          "logIndex": "0x8d",
          "removed": false
        },
        {
          "address": "0x8aafd3ede9adb0ff97c7aebce82a919afb1c8764",
          "topics": [
            "0xddf252ad1be2c89b69c2b068fc378daa952ba7f163c4a11628f55a4df523b3ef",
            "0x000000000000000000000000c77f7fed3b5cc8249adc428c5f44c9063b9734b4",
            "0x000000000000000000000000c77f7fed3b5cc8249adc428c5f44c9063b9734b4"
          ],
          "data": "0x000000000000000000000000000000000000000000000000000000000246aae6",
          "blockHash": "0x8c673ead936180d041a435074d92cb4fa3d58277a5fe48580cb60b50a090fd79",
          "blockNumber": "0x731f49",
          "transactionHash": "0xccf51a1894cb1c999f736a5e9a9728b69557191f3afd3b0255cf3c5417f2a908",
          "transactionIndex": "0x5b",
          "logIndex": "0x8e",
          "removed": false
        },
        {
          "address": "0x8aafd3ede9adb0ff97c7aebce82a919afb1c8764",
          "topics": [
            "0x4afcb4a87cdbd9974efdb92ee48bc8d7cd0ae4bf217004db3d080cbaee652ca7"
          ],
          "data": "0x0000000000000000000000000000000000000000000000000000000067907454000000000000000000000000000000000000000000000000001852f6b498eda10000000000000000000000000000000000000000000000000000000001f2a9b1",
          "blockHash": "0x8c673ead936180d041a435074d92cb4fa3d58277a5fe48580cb60b50a090fd79",
          "blockNumber": "0x731f49",
          "transactionHash": "0xccf51a1894cb1c999f736a5e9a9728b69557191f3afd3b0255cf3c5417f2a908",
          "transactionIndex": "0x5b",
          "logIndex": "0x8f",
          "removed": false
        }
      ],
      "logsBloom": "0x00000000000000000000000000000000000000000600000000000000000000000000000000000000000000000000000000000000000000004000000000000000000000000000004000000008000000000000000000000000000000000000000000000000020000000000000000000800020000000000000000000010000000000000000000000000000000000000000000000000000000000000010000000000000000000000000000000000000000004000000000000000000000000000000000000002000000800000000000000000000000000000080000000000000020000000000000000000000000000000000000000000000000000000000000000000",
      "type": "0x2",
      "transactionHash": "0xccf51a1894cb1c999f736a5e9a9728b69557191f3afd3b0255cf3c5417f2a908",
      "transactionIndex": "0x5b",
      "blockHash": "0x8c673ead936180d041a435074d92cb4fa3d58277a5fe48580cb60b50a090fd79",
      "blockNumber": "0x731f49",
      "gasUsed": "0xfd1b",
      "effectiveGasPrice": "0x456e9e69",
      "from": "0xc77f7fed3b5cc8249adc428c5f44c9063b9734b4",
      "to": "0x8aafd3ede9adb0ff97c7aebce82a919afb1c8764",
      "contractAddress": null
    }
  ],
  "libraries": [],
  "pending": [],
  "returns": {},
  "timestamp": 1737520213,
  "chain": 11155111,
  "commit": "1d2fb70"
}