{
  "transactions": [
    {
      "hash": "0x6a97a5faafe56b136905e5adb8355e337ecd6aa527a3c4dccf4566b165984a39",
      "transactionType": "CALL",
      "contractName": null,
      "contractAddress": "0x270e88f8683660553e8ba4eb2ad7c91a1710d769",
      "function": "sell(uint256)",
      "arguments": [
        "969002430556797031077"
      ],
      "transaction": {
        "from": "0xc77f7fed3b5cc8249adc428c5f44c9063b9734b4",
        "to": "0x270e88f8683660553e8ba4eb2ad7c91a1710d769",
        "gas": "0x16fec",
        "value": "0x0",
        "input": "0xe4849b32000000000000000000000000000000000000000000000034879c3098b40252a5",
        "nonce": "0x56f",
        "chainId": "0xaa36a7"
      },
      "additionalContracts": [],
      "isFixedGasLimit": false
    }
  ],
  "receipts": [
    {
      "status": "0x1",
      "cumulativeGasUsed": "0x686ad4",
      "logs": [
        {
          "address": "0x270e88f8683660553e8ba4eb2ad7c91a1710d769",
          "topics": [
            "0xddf252ad1be2c89b69c2b068fc378daa952ba7f163c4a11628f55a4df523b3ef",
            "0x000000000000000000000000c77f7fed3b5cc8249adc428c5f44c9063b9734b4",
            "0x0000000000000000000000000000000000000000000000000000000000000000"
          ],
          "data": "0x000000000000000000000000000000000000000000000034879c3098b40252a5",
          "blockHash": "0xe7c237d42505d788b14516afc94d4d0e18f3e68f696f947bf3348796fecf4ca9",
          "blockNumber": "0x725219",
          "transactionHash": "0x6a97a5faafe56b136905e5adb8355e337ecd6aa527a3c4dccf4566b165984a39",
          "transactionIndex": "0x42",
          "logIndex": "0x92",
          "removed": false
        },
        {
          "address": "0x270e88f8683660553e8ba4eb2ad7c91a1710d769",
          "topics": [
            "0x4afcb4a87cdbd9974efdb92ee48bc8d7cd0ae4bf217004db3d080cbaee652ca7"
          ],
          "data": "0x000000000000000000000000000000000000000000000000000000006786cb1c0000000000000000000000000000000000000000000000000003a4505cdd303b0000000000000000000000000000000000000000000000000dc8401c757e4346",
          "blockHash": "0xe7c237d42505d788b14516afc94d4d0e18f3e68f696f947bf3348796fecf4ca9",
          "blockNumber": "0x725219",
          "transactionHash": "0x6a97a5faafe56b136905e5adb8355e337ecd6aa527a3c4dccf4566b165984a39",
          "transactionIndex": "0x42",
          "logIndex": "0x93",
          "removed": false
        }
      ],
      "logsBloom": "0x00000000000000000000000000000000000000000000000000000000000000000000000000000000000000000000000020000000000000004000000000000000000000000000000000000008000000000000000000000000000000000000000000000000020000000000000000000800020000000000000000000010000000000000000000010000000000000000000000000000000000000000010000000000000000000000000000000000000000004000000000000000000000000000000000000002000000800000000000000000000000000000080000008000000020000000000000000000000000000000000000000000000000000000000000000000",
      "type": "0x2",
      "transactionHash": "0x6a97a5faafe56b136905e5adb8355e337ecd6aa527a3c4dccf4566b165984a39",
      "transactionIndex": "0x42",
      "blockHash": "0xe7c237d42505d788b14516afc94d4d0e18f3e68f696f947bf3348796fecf4ca9",
      "blockNumber": "0x725219",
      "gasUsed": "0xfb93",
      "effectiveGasPrice": "0x5095ff966",
      "from": "0xc77f7fed3b5cc8249adc428c5f44c9063b9734b4",
      "to": "0x270e88f8683660553e8ba4eb2ad7c91a1710d769",
      "contractAddress": null
    }
  ],
  "libraries": [],
  "pending": [],
  "returns": {},
  "timestamp": 1736887069,
  "chain": 11155111,
  "commit": "51a374b"
}