{
  "transactions": [
    {
      "hash": "0x2160af93b1239d5e0eb5b9da198511307646e21ab5f046ff433a5839f9b343db",
      "transactionType": "CALL",
      "contractName": null,
      "contractAddress": "0x270e88f8683660553e8ba4eb2ad7c91a1710d769",
      "function": "sell(uint256)",
      "arguments": [
        "727189837787776919217"
      ],
      "transaction": {
        "from": "0xc77f7fed3b5cc8249adc428c5f44c9063b9734b4",
        "to": "0x270e88f8683660553e8ba4eb2ad7c91a1710d769",
        "gas": "0x16fec",
        "value": "0x0",
        "input": "0xe4849b320000000000000000000000000000000000000000000000276bc948a6ae5fa6b1",
        "nonce": "0x7ce",
        "chainId": "0xaa36a7"
      },
      "additionalContracts": [],
      "isFixedGasLimit": false
    }
  ],
  "receipts": [
    {
      "status": "0x1",
      "cumulativeGasUsed": "0x1268f77",
      "logs": [
        {
          "address": "0x270e88f8683660553e8ba4eb2ad7c91a1710d769",
          "topics": [
            "0xddf252ad1be2c89b69c2b068fc378daa952ba7f163c4a11628f55a4df523b3ef",
            "0x000000000000000000000000c77f7fed3b5cc8249adc428c5f44c9063b9734b4",
            "0x0000000000000000000000000000000000000000000000000000000000000000"
          ],
          "data": "0x0000000000000000000000000000000000000000000000276bc948a6ae5fa6b1",
          "blockHash": "0x61cf8d130f38663c455a5ae41fd740a33108bf0fd68c6e01f14d13eab246073b",
          "blockNumber": "0x725506",
          "transactionHash": "0x2160af93b1239d5e0eb5b9da198511307646e21ab5f046ff433a5839f9b343db",
          "transactionIndex": "0x5a",
          "logIndex": "0x82",
          "removed": false
        },
        {
          "address": "0x270e88f8683660553e8ba4eb2ad7c91a1710d769",
          "topics": [
            "0x4afcb4a87cdbd9974efdb92ee48bc8d7cd0ae4bf217004db3d080cbaee652ca7"
          ],
          "data": "0x000000000000000000000000000000000000000000000000000000006786ee500000000000000000000000000000000000000000000000000004da3d55f084590000000000000000000000000000000000000000000000000dc8272c81642248",
          "blockHash": "0x61cf8d130f38663c455a5ae41fd740a33108bf0fd68c6e01f14d13eab246073b",
          "blockNumber": "0x725506",
          "transactionHash": "0x2160af93b1239d5e0eb5b9da198511307646e21ab5f046ff433a5839f9b343db",
          "transactionIndex": "0x5a",
          "logIndex": "0x83",
          "removed": false
        }
      ],
      "logsBloom": "0x00000000000000000000000000000000000000000000000000000000000000000000000000000000000000000000000020000000000000004000000000000000000000000000000000000008000000000000000000000000000000000000000000000000020000000000000000000800020000000000000000000010000000000000000000010000000000000000000000000000000000000000010000000000000000000000000000000000000000004000000000000000000000000000000000000002000000800000000000000000000000000000080000008000000020000000000000000000000000000000000000000000000000000000000000000000",
      "type": "0x2",
      "transactionHash": "0x2160af93b1239d5e0eb5b9da198511307646e21ab5f046ff433a5839f9b343db",
      "transactionIndex": "0x5a",
      "blockHash": "0x61cf8d130f38663c455a5ae41fd740a33108bf0fd68c6e01f14d13eab246073b",
      "blockNumber": "0x725506",
      "gasUsed": "0xfb93",
      "effectiveGasPrice": "0xb7bd4d8d",
      "from": "0xc77f7fed3b5cc8249adc428c5f44c9063b9734b4",
      "to": "0x270e88f8683660553e8ba4eb2ad7c91a1710d769",
      "contractAddress": null
    }
  ],
  "libraries": [],
  "pending": [],
  "returns": {},
  "timestamp": 1736896081,
  "chain": 11155111,
  "commit": "51a374b"
}