{
  "transactions": [
    {
      "hash": "0xd7f5b10de5ae2c4705a4bee9dd4b291255f8def9598b6683cad87eda99e5a37a",
      "transactionType": "CALL",
      "contractName": null,
      "contractAddress": "0x5eb9cc76c3506942c1c0ead70e877dd5e4f00cb0",
      "function": "sell(uint256)",
      "arguments": [
        "13538920364600518088824"
      ],
      "transaction": {
        "from": "0xc77f7fed3b5cc8249adc428c5f44c9063b9734b4",
        "to": "0x5eb9cc76c3506942c1c0ead70e877dd5e4f00cb0",
        "gas": "0x15b8c",
        "value": "0x0",
        "input": "0xe4849b320000000000000000000000000000000000000000000002ddf24393546c019878",
        "nonce": "0x279",
        "chainId": "0xaa36a7"
      },
      "additionalContracts": [],
      "isFixedGasLimit": false
    }
  ],
  "receipts": [
    {
      "status": "0x1",
      "cumulativeGasUsed": "0x101f3d9",
      "logs": [
        {
          "address": "0x5eb9cc76c3506942c1c0ead70e877dd5e4f00cb0",
          "topics": [
            "0xddf252ad1be2c89b69c2b068fc378daa952ba7f163c4a11628f55a4df523b3ef",
            "0x000000000000000000000000c77f7fed3b5cc8249adc428c5f44c9063b9734b4",
            "0x0000000000000000000000000000000000000000000000000000000000000000"
          ],
          "data": "0x0000000000000000000000000000000000000000000002ddf24393546c019878",
          "blockHash": "0xace7b6dd9368af501293d279d46489dd2796cc711e6f89c8906bb9c65be65adb",
          "blockNumber": "0x724e45",
          "transactionHash": "0xd7f5b10de5ae2c4705a4bee9dd4b291255f8def9598b6683cad87eda99e5a37a",
          "transactionIndex": "0x83",
          "logIndex": "0x11f",
          "removed": false
        },
        {
          "address": "0x5eb9cc76c3506942c1c0ead70e877dd5e4f00cb0",
          "topics": [
            "0x4afcb4a87cdbd9974efdb92ee48bc8d7cd0ae4bf217004db3d080cbaee652ca7"
          ],
          "data": "0x0000000000000000000000000000000000000000000000000000000067869cf000000000000000000000000000000000000000000000000000039106b5bac984000000000000000000000000000000000000000000000000bc9e8a49b16a37bc",
          "blockHash": "0xace7b6dd9368af501293d279d46489dd2796cc711e6f89c8906bb9c65be65adb",
          "blockNumber": "0x724e45",
          "transactionHash": "0xd7f5b10de5ae2c4705a4bee9dd4b291255f8def9598b6683cad87eda99e5a37a",
          "transactionIndex": "0x83",
          "logIndex": "0x120",
          "removed": false
        }
      ],
      "logsBloom": "0x00000000000000000000000000000000000000000000000000000000000000000000000000000000000000000000000000000000000000004000000000000000000000000000000000000008000000000000000000000000000000000000000000000000020000000000000004000800020000000000000000000010000000000000000000000000000000000000000000000000000000000000010000000000000000000000000000000000000000004000000000000000000000000000020000000002000000800000008000000000000000000000080000000000000020000000000000000000000000000000000000000000000000000000000000000000",
      "type": "0x2",
      "transactionHash": "0xd7f5b10de5ae2c4705a4bee9dd4b291255f8def9598b6683cad87eda99e5a37a",
      "transactionIndex": "0x83",
      "blockHash": "0xace7b6dd9368af501293d279d46489dd2796cc711e6f89c8906bb9c65be65adb",
      "blockNumber": "0x724e45",
      "gasUsed": "0xfb9f",
      "effectiveGasPrice": "0x3cc6e6d39",
      "from": "0xc77f7fed3b5cc8249adc428c5f44c9063b9734b4",
      "to": "0x5eb9cc76c3506942c1c0ead70e877dd5e4f00cb0",
      "contractAddress": null
    }
  ],
  "libraries": [],
  "pending": [],
  "returns": {},
  "timestamp": 1736875250,
  "chain": 11155111,
  "commit": "51a374b"
}