{
  "transactions": [
    {
      "hash": "0x13a291c086cc56d238c0eff58f354802862b9708eef8187eeb70733e79b49f76",
      "transactionType": "CALL",
      "contractName": null,
      "contractAddress": "0xbf4a322f1496e5c3d34a9bcdb4c60567b38c7de2",
      "function": "sell(uint256)",
      "arguments": [
        "981626588536441669914"
      ],
      "transaction": {
        "from": "0xc77f7fed3b5cc8249adc428c5f44c9063b9734b4",
        "to": "0xbf4a322f1496e5c3d34a9bcdb4c60567b38c7de2",
        "gas": "0x16fea",
        "value": "0x0",
        "input": "0xe4849b3200000000000000000000000000000000000000000000003536ce3564b124091a",
        "nonce": "0xb9f",
        "chainId": "0xaa36a7"
      },
      "additionalContracts": [],
      "isFixedGasLimit": false
    }
  ],
  "receipts": [
    {
      "status": "0x1",
      "cumulativeGasUsed": "0xb0f52d",
      "logs": [
        {
          "address": "0xbf4a322f1496e5c3d34a9bcdb4c60567b38c7de2",
          "topics": [
            "0xddf252ad1be2c89b69c2b068fc378daa952ba7f163c4a11628f55a4df523b3ef",
            "0x000000000000000000000000c77f7fed3b5cc8249adc428c5f44c9063b9734b4",
            "0x0000000000000000000000000000000000000000000000000000000000000000"
          ],
          "data": "0x00000000000000000000000000000000000000000000003536ce3564b124091a",
          "blockHash": "0x8b10ef249da07b6829bd2ca164123a9e3d68877d403f5bfbc4024b20cc30fa9a",
          "blockNumber": "0x725bb4",
          "transactionHash": "0x13a291c086cc56d238c0eff58f354802862b9708eef8187eeb70733e79b49f76",
          "transactionIndex": "0x48",
          "logIndex": "0x75",
          "removed": false
        },
        {
          "address": "0xbf4a322f1496e5c3d34a9bcdb4c60567b38c7de2",
          "topics": [
            "0x4afcb4a87cdbd9974efdb92ee48bc8d7cd0ae4bf217004db3d080cbaee652ca7"
          ],
          "data": "0x0000000000000000000000000000000000000000000000000000000067873ecc0000000000000000000000000000000000000000000000000003980f76ca834b0000000000000000000000000000000000000000000000000dc7e3e5d92266ee",
          "blockHash": "0x8b10ef249da07b6829bd2ca164123a9e3d68877d403f5bfbc4024b20cc30fa9a",
          "blockNumber": "0x725bb4",
          "transactionHash": "0x13a291c086cc56d238c0eff58f354802862b9708eef8187eeb70733e79b49f76",
          "transactionIndex": "0x48",
          "logIndex": "0x76",
          "removed": false
        }
      ],
      "logsBloom": "0x00000000000000000000000000000000000000000000000000000000000000000000000000000000000000000000000000000000000000004000000000000000000000000000000000000008000000000000001000000000000000000000000000000000020000000000000000000800020000000000000000000010000000000000000000000000000000000000000000000000000008000000010000000000000000000000000000000000000000004000000000000000000000000000000000000002000000800000000000001000000000000000080000000000000020000000000000000000000000000000000000000000000000000000000000000000",
      "type": "0x2",
      "transactionHash": "0x13a291c086cc56d238c0eff58f354802862b9708eef8187eeb70733e79b49f76",
      "transactionIndex": "0x48",
      "blockHash": "0x8b10ef249da07b6829bd2ca164123a9e3d68877d403f5bfbc4024b20cc30fa9a",
      "blockNumber": "0x725bb4",
      "gasUsed": "0xfb91",
      "effectiveGasPrice": "0x56361638",
      "from": "0xc77f7fed3b5cc8249adc428c5f44c9063b9734b4",
      "to": "0xbf4a322f1496e5c3d34a9bcdb4c60567b38c7de2",
      "contractAddress": null
    }
  ],
  "libraries": [],
  "pending": [],
  "returns": {},
  "timestamp": 1736916686,
  "chain": 11155111,
  "commit": "51a374b"
}