{
  "transactions": [
    {
      "hash": "0x69a4350328ba0e19696d696c395501959a202d208ca3af9f92bd70eced7d15b9",
      "transactionType": "CALL",
      "contractName": null,
      "contractAddress": "0x5eb9cc76c3506942c1c0ead70e877dd5e4f00cb0",
      "function": "buy(address)",
      "arguments": [
        "0xC77f7fed3b5Cc8249aDc428c5F44C9063B9734b4"
      ],
      "transaction": {
        "from": "0xc77f7fed3b5cc8249adc428c5f44c9063b9734b4",
        "to": "0x5eb9cc76c3506942c1c0ead70e877dd5e4f00cb0",
        "gas": "0x156c8",
        "value": "0xde0b6b3a7640000",
        "input": "0xf088d547000000000000000000000000c77f7fed3b5cc8249adc428c5f44c9063b9734b4",
        "nonce": "0x13d",
        "chainId": "0xaa36a7"
      },
      "additionalContracts": [],
      "isFixedGasLimit": false
    }
  ],
  "receipts": [
    {
      "status": "0x1",
      "cumulativeGasUsed": "0x1c54a9c",
      "logs": [
        {
          "address": "0x5eb9cc76c3506942c1c0ead70e877dd5e4f00cb0",
          "topics": [
            "0xddf252ad1be2c89b69c2b068fc378daa952ba7f163c4a11628f55a4df523b3ef",
            "0x0000000000000000000000000000000000000000000000000000000000000000",
            "0x000000000000000000000000c77f7fed3b5cc8249adc428c5f44c9063b9734b4"
          ],
          "data": "0x000000000000000000000000000000000000000000000035aaf9e6c820b2458c",
          "blockHash": "0xaa5d39f987c54a3b9cd6447c1dcae91c5eef167e0186508ef839eb7b6f2772b3",
          "blockNumber": "0x723b27",
          "transactionHash": "0x69a4350328ba0e19696d696c395501959a202d208ca3af9f92bd70eced7d15b9",
          "transactionIndex": "0x77",
          "logIndex": "0x13c",
          "removed": false
        },
        {
          "address": "0x5eb9cc76c3506942c1c0ead70e877dd5e4f00cb0",
          "topics": [
            "0xddf252ad1be2c89b69c2b068fc378daa952ba7f163c4a11628f55a4df523b3ef",
            "0x0000000000000000000000000000000000000000000000000000000000000000",
            "0x000000000000000000000000c77f7fed3b5cc8249adc428c5f44c9063b9734b4"
          ],
          "data": "0x00000000000000000000000000000000000000000000000029acc89c692e05b9",
          "blockHash": "0xaa5d39f987c54a3b9cd6447c1dcae91c5eef167e0186508ef839eb7b6f2772b3",
          "blockNumber": "0x723b27",
          "transactionHash": "0x69a4350328ba0e19696d696c395501959a202d208ca3af9f92bd70eced7d15b9",
          "transactionIndex": "0x77",
          "logIndex": "0x13d",
          "removed": false
        },
        {
          "address": "0x5eb9cc76c3506942c1c0ead70e877dd5e4f00cb0",
          "topics": [
            "0x4afcb4a87cdbd9974efdb92ee48bc8d7cd0ae4bf217004db3d080cbaee652ca7"
          ],
          "data": "0x000000000000000000000000000000000000000000000000000000006785b72800000000000000000000000000000000000000000000000000038d7f3e26fba00000000000000000000000000000000000000000000000000de0b6b3a7640000",
          "blockHash": "0xaa5d39f987c54a3b9cd6447c1dcae91c5eef167e0186508ef839eb7b6f2772b3",
          "blockNumber": "0x723b27",
          "transactionHash": "0x69a4350328ba0e19696d696c395501959a202d208ca3af9f92bd70eced7d15b9",
          "transactionIndex": "0x77",
          "logIndex": "0x13e",
          "removed": false
        }
      ],
      "logsBloom": "0x00000000000000000000000000000000000000000000000000000000000000000000000000000000000000000000000000000000000000004000000000000000000000000000000000000008000000000000000000000000000000000000000000000000020000000000000004000800020000000000000000000010000000000000000000000000000000000000000000000000000000000000010000000000000000000000000000000000000000004000000000000000000000000000020000000002000000800000008000000000000000000000080000000000000020000000000000000000000000000000000000000000000000000000000000000000",
      "type": "0x2",
      "transactionHash": "0x69a4350328ba0e19696d696c395501959a202d208ca3af9f92bd70eced7d15b9",
      "transactionIndex": "0x77",
      "blockHash": "0xaa5d39f987c54a3b9cd6447c1dcae91c5eef167e0186508ef839eb7b6f2772b3",
      "blockNumber": "0x723b27",
      "gasUsed": "0xf82c",
      "effectiveGasPrice": "0x3da15aa6a",
      "from": "0xc77f7fed3b5cc8249adc428c5f44c9063b9734b4",
      "to": "0x5eb9cc76c3506942c1c0ead70e877dd5e4f00cb0",
      "contractAddress": null
    }
  ],
  "libraries": [],
  "pending": [],
  "returns": {},
  "timestamp": 1736816426,
  "chain": 11155111,
  "commit": "51a374b"
}