{
  "transactions": [
    {
      "hash": "0x4468bf789bed2bef392d1634bea982efa645d71768f9ca93c5fe4c3febeabc45",
      "transactionType": "CALL",
      "contractName": null,
      "contractAddress": "0x8aafd3ede9adb0ff97c7aebce82a919afb1c8764",
      "function": "sell(uint256)",
      "arguments": [
        "114629203597929"
      ],
      "transaction": {
        "from": "0xc77f7fed3b5cc8249adc428c5f44c9063b9734b4",
        "to": "0x8aafd3ede9adb0ff97c7aebce82a919afb1c8764",
        "gas": "0x15daa",
        "value": "0x0",
        "input": "0xe4849b320000000000000000000000000000000000000000000000000000684130f61a69",
        "nonce": "0x1496",
        "chainId": "0xaa36a7"
      },
      "additionalContracts": [],
      "isFixedGasLimit": false
    }
  ],
  "receipts": [
    {
      "status": "0x1",
      "cumulativeGasUsed": "0x893834",
      "logs": [
        {
          "address": "0x8aafd3ede9adb0ff97c7aebce82a919afb1c8764",
          "topics": [
            "0xddf252ad1be2c89b69c2b068fc378daa952ba7f163c4a11628f55a4df523b3ef",
            "0x000000000000000000000000c77f7fed3b5cc8249adc428c5f44c9063b9734b4",
            "0x0000000000000000000000000000000000000000000000000000000000000000"
          ],
          "data": "0x0000000000000000000000000000000000000000000000000000676bad7f65fa",
          "blockHash": "0x4ec6607017230b2786a2f20e3d0c7d3e3c460fca03d5a24edd4ba8d8604a9494",
          "blockNumber": "0x731be8",
          "transactionHash": "0x4468bf789bed2bef392d1634bea982efa645d71768f9ca93c5fe4c3febeabc45",
          "transactionIndex": "0x77",
          "logIndex": "0xa8",
          "removed": false
        },
        {
          "address": "0x8aafd3ede9adb0ff97c7aebce82a919afb1c8764",
          "topics": [
            "0xddf252ad1be2c89b69c2b068fc378daa952ba7f163c4a11628f55a4df523b3ef",
            "0x000000000000000000000000c77f7fed3b5cc8249adc428c5f44c9063b9734b4",
            "0x000000000000000000000000c77f7fed3b5cc8249adc428c5f44c9063b9734b4"
          ],
          "data": "0x000000000000000000000000000000000000000000000000000000d58376b46f",
          "blockHash": "0x4ec6607017230b2786a2f20e3d0c7d3e3c460fca03d5a24edd4ba8d8604a9494",
          "blockNumber": "0x731be8",
          "transactionHash": "0x4468bf789bed2bef392d1634bea982efa645d71768f9ca93c5fe4c3febeabc45",
          "transactionIndex": "0x77",
          "logIndex": "0xa9",
          "removed": false
        },
        {
          "address": "0x8aafd3ede9adb0ff97c7aebce82a919afb1c8764",
          "topics": [
            "0x4afcb4a87cdbd9974efdb92ee48bc8d7cd0ae4bf217004db3d080cbaee652ca7"
          ],
          "data": "0x0000000000000000000000000000000000000000000000000000000067904bbc000000000000000000000000000000000000000000000000000fdc573e7f66250000000000000000000000000000000000000000000000000000007726a88e98",
          "blockHash": "0x4ec6607017230b2786a2f20e3d0c7d3e3c460fca03d5a24edd4ba8d8604a9494",
          "blockNumber": "0x731be8",
          "transactionHash": "0x4468bf789bed2bef392d1634bea982efa645d71768f9ca93c5fe4c3febeabc45",
          "transactionIndex": "0x77",
          "logIndex": "0xaa",
          "removed": false
        }
      ],
      "logsBloom": "0x00000000000000000000000000000000000000000600000000000000000000000000000000000000000000000000000000000000000000004000000000000000000000000000004000000008000000000000000000000000000000000000000000000000020000000000000000000800020000000000000000000010000000000000000000000000000000000000000000000000000000000000010000000000000000000000000000000000000000004000000000000000000000000000000000000002000000800000000000000000000000000000080000000000000020000000000000000000000000000000000000000000000000000000000000000000",
      "type": "0x2",
      "transactionHash": "0x4468bf789bed2bef392d1634bea982efa645d71768f9ca93c5fe4c3febeabc45",
      "transactionIndex": "0x77",
      "blockHash": "0x4ec6607017230b2786a2f20e3d0c7d3e3c460fca03d5a24edd4ba8d8604a9494",
      "blockNumber": "0x731be8",
      "gasUsed": "0xfd27",
      "effectiveGasPrice": "0x113c6af6e",
      "from": "0xc77f7fed3b5cc8249adc428c5f44c9063b9734b4",
      "to": "0x8aafd3ede9adb0ff97c7aebce82a919afb1c8764",
      "contractAddress": null
    }
  ],
  "libraries": [],
  "pending": [],
  "returns": {},
  "timestamp": 1737509820,
  "chain": 11155111,
  "commit": "1d2fb70"
}