{
  "transactions": [
    {
      "hash": "0xd26a771a5f1c1eb2781b8b35fa21bbf694e5cad93e187aafd48a991671aee661",
      "transactionType": "CALL",
      "contractName": null,
      "contractAddress": "0x8aafd3ede9adb0ff97c7aebce82a919afb1c8764",
      "function": "buy(address)",
      "arguments": [
        "0xC77f7fed3b5Cc8249aDc428c5F44C9063B9734b4"
      ],
      "transaction": {
        "from": "0xc77f7fed3b5cc8249adc428c5f44c9063b9734b4",
        "to": "0x8aafd3ede9adb0ff97c7aebce82a919afb1c8764",
        "gas": "0x156ea",
        "value": "0xde0b6b3a7640000",
        "input": "0xf088d547000000000000000000000000c77f7fed3b5cc8249adc428c5f44c9063b9734b4",
        "nonce": "0x104a",
        "chainId": "0xaa36a7"
      },
      "additionalContracts": [],
      "isFixedGasLimit": false
    }
  ],
  "receipts": [
    {
      "status": "0x1",
      "cumulativeGasUsed": "0xec1ab5",
      "logs": [
        {
          "address": "0x8aafd3ede9adb0ff97c7aebce82a919afb1c8764",
          "topics": [
            "0xddf252ad1be2c89b69c2b068fc378daa952ba7f163c4a11628f55a4df523b3ef",
            "0x0000000000000000000000000000000000000000000000000000000000000000",
            "0x000000000000000000000000c77f7fed3b5cc8249adc428c5f44c9063b9734b4"
          ],
          "data": "0x000000000000000000000000000000000000000000000026994fcdb870c894be",
          "blockHash": "0x8af166dc27ce186a551f4c566322ac769c8abc51ed0d27fa748e68109d5e4aef",
          "blockNumber": "0x7316cb",
          "transactionHash": "0xd26a771a5f1c1eb2781b8b35fa21bbf694e5cad93e187aafd48a991671aee661",
          "transactionIndex": "0x94",
          "logIndex": "0xc2",
          "removed": false
        },
        {
          "address": "0x8aafd3ede9adb0ff97c7aebce82a919afb1c8764",
          "topics": [
            "0xddf252ad1be2c89b69c2b068fc378daa952ba7f163c4a11628f55a4df523b3ef",
            "0x0000000000000000000000000000000000000000000000000000000000000000",
            "0x000000000000000000000000c77f7fed3b5cc8249adc428c5f44c9063b9734b4"
          ],
          "data": "0x0000000000000000000000000000000000000000000000001df92cf4d3775927",
          "blockHash": "0x8af166dc27ce186a551f4c566322ac769c8abc51ed0d27fa748e68109d5e4aef",
          "blockNumber": "0x7316cb",
          "transactionHash": "0xd26a771a5f1c1eb2781b8b35fa21bbf694e5cad93e187aafd48a991671aee661",
          "transactionIndex": "0x94",
          "logIndex": "0xc3",
          "removed": false
        },
        {
          "address": "0x8aafd3ede9adb0ff97c7aebce82a919afb1c8764",
          "topics": [
            "0x4afcb4a87cdbd9974efdb92ee48bc8d7cd0ae4bf217004db3d080cbaee652ca7"
          ],
          "data": "0x0000000000000000000000000000000000000000000000000000000067900e3c0000000000000000000000000000000000000000000000000004f0f9473ba2cc0000000000000000000000000000000000000000000000000de0b6b3a7640000",
          "blockHash": "0x8af166dc27ce186a551f4c566322ac769c8abc51ed0d27fa748e68109d5e4aef",
          "blockNumber": "0x7316cb",
          "transactionHash": "0xd26a771a5f1c1eb2781b8b35fa21bbf694e5cad93e187aafd48a991671aee661",
          "transactionIndex": "0x94",
          "logIndex": "0xc4",
          "removed": false
        }
      ],
      "logsBloom": "0x00000000000000000000000000000000000000000600000000000000000000000000000000000000000000000000000000000000000000004000000000000000000000000000004000000008000000000000000000000000000000000000000000000000020000000000000000000800020000000000000000000010000000000000000000000000000000000000000000000000000000000000010000000000000000000000000000000000000000004000000000000000000000000000000000000002000000800000000000000000000000000000080000000000000020000000000000000000000000000000000000000000000000000000000000000000",
      "type": "0x2",
      "transactionHash": "0xd26a771a5f1c1eb2781b8b35fa21bbf694e5cad93e187aafd48a991671aee661",
      "transactionIndex": "0x94",
      "blockHash": "0x8af166dc27ce186a551f4c566322ac769c8abc51ed0d27fa748e68109d5e4aef",
      "blockNumber": "0x7316cb",
      "gasUsed": "0xf844",
      "effectiveGasPrice": "0x3f7059ce",
      "from": "0xc77f7fed3b5cc8249adc428c5f44c9063b9734b4",
      "to": "0x8aafd3ede9adb0ff97c7aebce82a919afb1c8764",
      "contractAddress": null
    }
  ],
  "libraries": [],
  "pending": [],
  "returns": {},
  "timestamp": 1737494077,
  "chain": 11155111,
  "commit": "1d2fb70"
}