{
  "transactions": [
    {
      "hash": "0x8d4cc545d20cae4e527389be729763ffacc7b9d679058e3b9b987739e493e9e6",
      "transactionType": "CALL",
      "contractName": null,
      "contractAddress": "0x8aafd3ede9adb0ff97c7aebce82a919afb1c8764",
      "function": "sell(uint256)",
      "arguments": [
        "369576"
      ],
      "transaction": {
        "from": "0xc77f7fed3b5cc8249adc428c5f44c9063b9734b4",
        "to": "0x8aafd3ede9adb0ff97c7aebce82a919afb1c8764",
        "gas": "0x16208",
        "value": "0x0",
        "input": "0xe4849b32000000000000000000000000000000000000000000000000000000000005a3a8",
        "nonce": "0x160b",
        "chainId": "0xaa36a7"
      },
      "additionalContracts": [],
      "isFixedGasLimit": false
    }
  ],
  "receipts": [
    {
      "status": "0x1",
      "cumulativeGasUsed": "0x14eec5a",
      "logs": [
        {
          "address": "0x8aafd3ede9adb0ff97c7aebce82a919afb1c8764",
          "topics": [
            "0xddf252ad1be2c89b69c2b068fc378daa952ba7f163c4a11628f55a4df523b3ef",
            "0x000000000000000000000000c77f7fed3b5cc8249adc428c5f44c9063b9734b4",
            "0x0000000000000000000000000000000000000000000000000000000000000000"
          ],
          "data": "0x000000000000000000000000000000000000000000000000000000000005981c",
          "blockHash": "0xf626dda5ef8a319128abaf82593364d783ac0a5a48e3f3e03827c88d763a920b",
          "blockNumber": "0x731d9f",
          "transactionHash": "0x8d4cc545d20cae4e527389be729763ffacc7b9d679058e3b9b987739e493e9e6",
          "transactionIndex": "0x87",
          "logIndex": "0xc7",
          "removed": false
        },
        {
          "address": "0x8aafd3ede9adb0ff97c7aebce82a919afb1c8764",
          "topics": [
            "0xddf252ad1be2c89b69c2b068fc378daa952ba7f163c4a11628f55a4df523b3ef",
            "0x000000000000000000000000c77f7fed3b5cc8249adc428c5f44c9063b9734b4",
            "0x000000000000000000000000c77f7fed3b5cc8249adc428c5f44c9063b9734b4"
          ],
          "data": "0x0000000000000000000000000000000000000000000000000000000000000b8c",
          "blockHash": "0xf626dda5ef8a319128abaf82593364d783ac0a5a48e3f3e03827c88d763a920b",
          "blockNumber": "0x731d9f",
          "transactionHash": "0x8d4cc545d20cae4e527389be729763ffacc7b9d679058e3b9b987739e493e9e6",
          "transactionIndex": "0x87",
          "logIndex": "0xc8",
          "removed": false
        },
        {
          "address": "0x8aafd3ede9adb0ff97c7aebce82a919afb1c8764",
          "topics": [
            "0x4afcb4a87cdbd9974efdb92ee48bc8d7cd0ae4bf217004db3d080cbaee652ca7"
          ],
          "data": "0x000000000000000000000000000000000000000000000000000000006790605c00000000000000000000000000000000000000000000000000141f8d1614fad1000000000000000000000000000000000000000000000000000000000000082d",
          "blockHash": "0xf626dda5ef8a319128abaf82593364d783ac0a5a48e3f3e03827c88d763a920b",
          "blockNumber": "0x731d9f",
          "transactionHash": "0x8d4cc545d20cae4e527389be729763ffacc7b9d679058e3b9b987739e493e9e6",
          "transactionIndex": "0x87",
          "logIndex": "0xc9",
          "removed": false
        }
      ],
      "logsBloom": "0x00000000000000000000000000000000000000000600000000000000000000000000000000000000000000000000000000000000000000004000000000000000000000000000004000000008000000000000000000000000000000000000000000000000020000000000000000000800020000000000000000000010000000000000000000000000000000000000000000000000000000000000010000000000000000000000000000000000000000004000000000000000000000000000000000000002000000800000000000000000000000000000080000000000000020000000000000000000000000000000000000000000000000000000000000000000",
      "type": "0x2",
      "transactionHash": "0x8d4cc545d20cae4e527389be729763ffacc7b9d679058e3b9b987739e493e9e6",
      "transactionIndex": "0x87",
      "blockHash": "0xf626dda5ef8a319128abaf82593364d783ac0a5a48e3f3e03827c88d763a920b",
      "blockNumber": "0x731d9f",
      "gasUsed": "0xf213",
      "effectiveGasPrice": "0x744c5076",
      "from": "0xc77f7fed3b5cc8249adc428c5f44c9063b9734b4",
      "to": "0x8aafd3ede9adb0ff97c7aebce82a919afb1c8764",
      "contractAddress": null
    }
  ],
  "libraries": [],
  "pending": [],
  "returns": {},
  "timestamp": 1737515102,
  "chain": 11155111,
  "commit": "1d2fb70"
}