{
  "transactions": [
    {
      "hash": "0x3361768c126c1af6d11afad1412977784a1a39524c09542f3403ed4b0cf065ec",
      "transactionType": "CALL",
      "contractName": null,
      "contractAddress": "0xbf4a322f1496e5c3d34a9bcdb4c60567b38c7de2",
      "function": "buy(address)",
      "arguments": [
        "0xC77f7fed3b5Cc8249aDc428c5F44C9063B9734b4"
      ],
      "transaction": {
        "from": "0xc77f7fed3b5cc8249adc428c5f44c9063b9734b4",
        "to": "0xbf4a322f1496e5c3d34a9bcdb4c60567b38c7de2",
        "gas": "0x1b309",
        "value": "0xde0b6b3a7640000",
        "input": "0xf088d547000000000000000000000000c77f7fed3b5cc8249adc428c5f44c9063b9734b4",
        "nonce": "0xcca",
        "chainId": "0xaa36a7"
      },
      "additionalContracts": [],
      "isFixedGasLimit": false
    }
  ],
  "receipts": [
    {
      "status": "0x1",
      "cumulativeGasUsed": "0x18826b2",
      "logs": [
        {
          "address": "0xbf4a322f1496e5c3d34a9bcdb4c60567b38c7de2",
          "topics": [
            "0xddf252ad1be2c89b69c2b068fc378daa952ba7f163c4a11628f55a4df523b3ef",
            "0x0000000000000000000000000000000000000000000000000000000000000000",
            "0x000000000000000000000000c77f7fed3b5cc8249adc428c5f44c9063b9734b4"
          ],
          "data": "0x000000000000000000000000000000000000000000000034d5ebfaeec94eed56",
          "blockHash": "0xbea38fb515f7703fbb8e05d67d704d43d0d3d2df3fbaec7b302e5fdcd708ff39",
          "blockNumber": "0x725d1a",
          "transactionHash": "0x3361768c126c1af6d11afad1412977784a1a39524c09542f3403ed4b0cf065ec",
          "transactionIndex": "0xb8",
          "logIndex": "0x10e",
          "removed": false
        },
        {
          "address": "0xbf4a322f1496e5c3d34a9bcdb4c60567b38c7de2",
          "topics": [
            "0xddf252ad1be2c89b69c2b068fc378daa952ba7f163c4a11628f55a4df523b3ef",
            "0x0000000000000000000000000000000000000000000000000000000000000000",
            "0x000000000000000000000000c77f7fed3b5cc8249adc428c5f44c9063b9734b4"
          ],
          "data": "0x000000000000000000000000000000000000000000000000290756f2dcf9b96b",
          "blockHash": "0xbea38fb515f7703fbb8e05d67d704d43d0d3d2df3fbaec7b302e5fdcd708ff39",
          "blockNumber": "0x725d1a",
          "transactionHash": "0x3361768c126c1af6d11afad1412977784a1a39524c09542f3403ed4b0cf065ec",
          "transactionIndex": "0xb8",
          "logIndex": "0x10f",
          "removed": false
        },
        {
          "address": "0xbf4a322f1496e5c3d34a9bcdb4c60567b38c7de2",
          "topics": [
            "0x4afcb4a87cdbd9974efdb92ee48bc8d7cd0ae4bf217004db3d080cbaee652ca7"
          ],
          "data": "0x0000000000000000000000000000000000000000000000000000000067874fac00000000000000000000000000000000000000000000000000039bd4ffbe56770000000000000000000000000000000000000000000000000de0b6b3a7640000",
          "blockHash": "0xbea38fb515f7703fbb8e05d67d704d43d0d3d2df3fbaec7b302e5fdcd708ff39",
          "blockNumber": "0x725d1a",
          "transactionHash": "0x3361768c126c1af6d11afad1412977784a1a39524c09542f3403ed4b0cf065ec",
          "transactionIndex": "0xb8",
          "logIndex": "0x110",
          "removed": false
        }
      ],
      "logsBloom": "0x00000000000000000000000000000000000000000000000000000000000000000000000000000000000000000000000000000000000000004000000000000000000000000000000000000008000000000000001000000000000000000000000000000000020000000000000000000800020000000000000000000010000000000000000000000000000000000000000000000000000008000000010000000000000000000000000000000000000000004000000000000000000000000000000000000002000000800000000000001000000000000000080000000000000020000000000000000000000000000000000000000000000000000000000000000000",
      "type": "0x2",
      "transactionHash": "0x3361768c126c1af6d11afad1412977784a1a39524c09542f3403ed4b0cf065ec",
      "transactionIndex": "0xb8",
      "blockHash": "0xbea38fb515f7703fbb8e05d67d704d43d0d3d2df3fbaec7b302e5fdcd708ff39",
      "blockNumber": "0x725d1a",
      "gasUsed": "0x13af6",
      "effectiveGasPrice": "0x3760acd82",
      "from": "0xc77f7fed3b5cc8249adc428c5f44c9063b9734b4",
      "to": "0xbf4a322f1496e5c3d34a9bcdb4c60567b38c7de2",
      "contractAddress": null
    }
  ],
  "libraries": [],
  "pending": [],
  "returns": {},
  "timestamp": 1736921006,
  "chain": 11155111,
  "commit": "51a374b"
}