{
  "transactions": [
    {
      "hash": "0xe108567760ccc01ef3c7a554baa807c934105e9fd62379c4437ada2ff98c8b22",
      "transactionType": "CALL",
      "contractName": null,
      "contractAddress": "0x8aafd3ede9adb0ff97c7aebce82a919afb1c8764",
      "function": "buy(address)",
      "arguments": [
        "0xC77f7fed3b5Cc8249aDc428c5F44C9063B9734b4"
      ],
      "transaction": {
        "from": "0xc77f7fed3b5cc8249adc428c5f44c9063b9734b4",
        "to": "0x8aafd3ede9adb0ff97c7aebce82a919afb1c8764",
        "gas": "0x156ea",
        "value": "0xde0b6b3a7640000",
        "input": "0xf088d547000000000000000000000000c77f7fed3b5cc8249adc428c5f44c9063b9734b4",
        "nonce": "0x12de",
        "chainId": "0xaa36a7"
      },
      "additionalContracts": [],
      "isFixedGasLimit": false
    }
  ],
  "receipts": [
    {
      "status": "0x1",
      "cumulativeGasUsed": "0xb570e4",
      "logs": [
        {
          "address": "0x8aafd3ede9adb0ff97c7aebce82a919afb1c8764",
          "topics": [
            "0xddf252ad1be2c89b69c2b068fc378daa952ba7f163c4a11628f55a4df523b3ef",
            "0x0000000000000000000000000000000000000000000000000000000000000000",
            "0x000000000000000000000000c77f7fed3b5cc8249adc428c5f44c9063b9734b4"
          ],
          "data": "0x000000000000000000000000000000000000000000000023e0dda590f70ed7cc",
          "blockHash": "0xaa2f89bcfa37651cb8fa3bd860bf5591adb27d5848697eba9626fb5c5fa5710d",
          "blockNumber": "0x7319df",
          "transactionHash": "0xe108567760ccc01ef3c7a554baa807c934105e9fd62379c4437ada2ff98c8b22",
          "transactionIndex": "0x6c",
          "logIndex": "0x68",
          "removed": false
        },
        {
          "address": "0x8aafd3ede9adb0ff97c7aebce82a919afb1c8764",
          "topics": [
            "0xddf252ad1be2c89b69c2b068fc378daa952ba7f163c4a11628f55a4df523b3ef",
            "0x0000000000000000000000000000000000000000000000000000000000000000",
            "0x000000000000000000000000c77f7fed3b5cc8249adc428c5f44c9063b9734b4"
          ],
          "data": "0x0000000000000000000000000000000000000000000000001bdc5c916f263630",
          "blockHash": "0xaa2f89bcfa37651cb8fa3bd860bf5591adb27d5848697eba9626fb5c5fa5710d",
          "blockNumber": "0x7319df",
          "transactionHash": "0xe108567760ccc01ef3c7a554baa807c934105e9fd62379c4437ada2ff98c8b22",
          "transactionIndex": "0x6c",
          "logIndex": "0x69",
          "removed": false
        },
        {
          "address": "0x8aafd3ede9adb0ff97c7aebce82a919afb1c8764",
          "topics": [
            "0x4afcb4a87cdbd9974efdb92ee48bc8d7cd0ae4bf217004db3d080cbaee652ca7"
          ],
          "data": "0x0000000000000000000000000000000000000000000000000000000067903344000000000000000000000000000000000000000000000000000550dc74e8ba990000000000000000000000000000000000000000000000000de0b6b3a7640000",
          "blockHash": "0xaa2f89bcfa37651cb8fa3bd860bf5591adb27d5848697eba9626fb5c5fa5710d",
          "blockNumber": "0x7319df",
          "transactionHash": "0xe108567760ccc01ef3c7a554baa807c934105e9fd62379c4437ada2ff98c8b22",
          "transactionIndex": "0x6c",
          "logIndex": "0x6a",
          "removed": false
        }
      ],
      "logsBloom": "0x00000000000000000000000000000000000000000600000000000000000000000000000000000000000000000000000000000000000000004000000000000000000000000000004000000008000000000000000000000000000000000000000000000000020000000000000000000800020000000000000000000010000000000000000000000000000000000000000000000000000000000000010000000000000000000000000000000000000000004000000000000000000000000000000000000002000000800000000000000000000000000000080000000000000020000000000000000000000000000000000000000000000000000000000000000000",
      "type": "0x2",
      "transactionHash": "0xe108567760ccc01ef3c7a554baa807c934105e9fd62379c4437ada2ff98c8b22",
      "transactionIndex": "0x6c",
      "blockHash": "0xaa2f89bcfa37651cb8fa3bd860bf5591adb27d5848697eba9626fb5c5fa5710d",
      "blockNumber": "0x7319df",
      "gasUsed": "0xf844",
      "effectiveGasPrice": "0x4a817de3",
      "from": "0xc77f7fed3b5cc8249adc428c5f44c9063b9734b4",
      "to": "0x8aafd3ede9adb0ff97c7aebce82a919afb1c8764",
      "contractAddress": null
    }
  ],
  "libraries": [],
  "pending": [],
  "returns": {},
  "timestamp": 1737503556,
  "chain": 11155111,
  "commit": "1d2fb70"
}