{
  "transactions": [
    {
      "hash": "0x25d92bca7f59a8fbcc0844bffad78489a052eb69302c459371e8c9ebecbce982",
      "transactionType": "CALL",
      "contractName": null,
      "contractAddress": "0xbf4a322f1496e5c3d34a9bcdb4c60567b38c7de2",
      "function": "buy(address)",
      "arguments": [
        "0xC77f7fed3b5Cc8249aDc428c5F44C9063B9734b4"
      ],
      "transaction": {
        "from": "0xc77f7fed3b5cc8249adc428c5f44c9063b9734b4",
        "to": "0xbf4a322f1496e5c3d34a9bcdb4c60567b38c7de2",
        "gas": "0x1b309",
        "value": "0xde0b6b3a7640000",
        "input": "0xf088d547000000000000000000000000c77f7fed3b5cc8249adc428c5f44c9063b9734b4",
        "nonce": "0xa92",
        "chainId": "0xaa36a7"
      },
      "additionalContracts": [],
      "isFixedGasLimit": false
    }
  ],
  "receipts": [
    {
      "status": "0x1",
      "cumulativeGasUsed": "0xd366f0",
      "logs": [
        {
          "address": "0xbf4a322f1496e5c3d34a9bcdb4c60567b38c7de2",
          "topics": [
            "0xddf252ad1be2c89b69c2b068fc378daa952ba7f163c4a11628f55a4df523b3ef",
            "0x0000000000000000000000000000000000000000000000000000000000000000",
            "0x000000000000000000000000c77f7fed3b5cc8249adc428c5f44c9063b9734b4"
          ],
          "data": "0x0000000000000000000000000000000000000000000000353fbe47af4a0ff5f9",
          "blockHash": "0x68cee7f57257cec912bbb5c65c2c4aa0e42c4eec3087fc6aa75058a4be696a28",
          "blockNumber": "0x725a76",
          "transactionHash": "0x25d92bca7f59a8fbcc0844bffad78489a052eb69302c459371e8c9ebecbce982",
          "transactionIndex": "0x68",
          "logIndex": "0xa0",
          "removed": false
        },
        {
          "address": "0xbf4a322f1496e5c3d34a9bcdb4c60567b38c7de2",
          "topics": [
            "0xddf252ad1be2c89b69c2b068fc378daa952ba7f163c4a11628f55a4df523b3ef",
            "0x0000000000000000000000000000000000000000000000000000000000000000",
            "0x000000000000000000000000c77f7fed3b5cc8249adc428c5f44c9063b9734b4"
          ],
          "data": "0x0000000000000000000000000000000000000000000000002959837d93b6372e",
          "blockHash": "0x68cee7f57257cec912bbb5c65c2c4aa0e42c4eec3087fc6aa75058a4be696a28",
          "blockNumber": "0x725a76",
          "transactionHash": "0x25d92bca7f59a8fbcc0844bffad78489a052eb69302c459371e8c9ebecbce982",
          "transactionIndex": "0x68",
          "logIndex": "0xa1",
          "removed": false
        },
        {
          "address": "0xbf4a322f1496e5c3d34a9bcdb4c60567b38c7de2",
          "topics": [
            "0x4afcb4a87cdbd9974efdb92ee48bc8d7cd0ae4bf217004db3d080cbaee652ca7"
          ],
          "data": "0x0000000000000000000000000000000000000000000000000000000067872fd8000000000000000000000000000000000000000000000000000394a9170844fa0000000000000000000000000000000000000000000000000de0b6b3a7640000",
          "blockHash": "0x68cee7f57257cec912bbb5c65c2c4aa0e42c4eec3087fc6aa75058a4be696a28",
          "blockNumber": "0x725a76",
          "transactionHash": "0x25d92bca7f59a8fbcc0844bffad78489a052eb69302c459371e8c9ebecbce982",
          "transactionIndex": "0x68",
          "logIndex": "0xa2",
          "removed": false
        }
      ],
      "logsBloom": "0x00000000000000000000000000000000000000000000000000000000000000000000000000000000000000000000000000000000000000004000000000000000000000000000000000000008000000000000001000000000000000000000000000000000020000000000000000000800020000000000000000000010000000000000000000000000000000000000000000000000000008000000010000000000000000000000000000000000000000004000000000000000000000000000000000000002000000800000000000001000000000000000080000000000000020000000000000000000000000000000000000000000000000000000000000000000",
      "type": "0x2",
      "transactionHash": "0x25d92bca7f59a8fbcc0844bffad78489a052eb69302c459371e8c9ebecbce982",
      "transactionIndex": "0x68",
      "blockHash": "0x68cee7f57257cec912bbb5c65c2c4aa0e42c4eec3087fc6aa75058a4be696a28",
      "blockNumber": "0x725a76",
      "gasUsed": "0x13af6",
      "effectiveGasPrice": "0x21e6bb166",
      "from": "0xc77f7fed3b5cc8249adc428c5f44c9063b9734b4",
      "to": "0xbf4a322f1496e5c3d34a9bcdb4c60567b38c7de2",
      "contractAddress": null
    }
  ],
  "libraries": [],
  "pending": [],
  "returns": {},
  "timestamp": 1736912859,
  "chain": 11155111,
  "commit": "51a374b"
}