{
  "transactions": [
    {
      "hash": "0x071bf30a511347576ce90d0493aa7d2a8b11c869bbfa7389ff2f6bec0d74a265",
      "transactionType": "CALL",
      "contractName": null,
      "contractAddress": "0xbf4a322f1496e5c3d34a9bcdb4c60567b38c7de2",
      "function": "sell(uint256)",
      "arguments": [
        "978886143896529740568"
      ],
      "transaction": {
        "from": "0xc77f7fed3b5cc8249adc428c5f44c9063b9734b4",
        "to": "0xbf4a322f1496e5c3d34a9bcdb4c60567b38c7de2",
        "gas": "0x16fea",
        "value": "0x0",
        "input": "0xe4849b3200000000000000000000000000000000000000000000003510c6318348912318",
        "nonce": "0xc6b",
        "chainId": "0xaa36a7"
      },
      "additionalContracts": [],
      "isFixedGasLimit": false
    }
  ],
  "receipts": [
    {
      "status": "0x1",
      "cumulativeGasUsed": "0x8de18a",
      "logs": [
        {
          "address": "0xbf4a322f1496e5c3d34a9bcdb4c60567b38c7de2",
          "topics": [
            "0xddf252ad1be2c89b69c2b068fc378daa952ba7f163c4a11628f55a4df523b3ef",
            "0x000000000000000000000000c77f7fed3b5cc8249adc428c5f44c9063b9734b4",
            "0x0000000000000000000000000000000000000000000000000000000000000000"
          ],
          "data": "0x00000000000000000000000000000000000000000000003510c6318348912318",
          "blockHash": "0xfe4219fdbb4d813e19e223957528551ca0bdb33cd8d2f48f7248e2598d804657",
          "blockNumber": "0x725ca9",
          "transactionHash": "0x071bf30a511347576ce90d0493aa7d2a8b11c869bbfa7389ff2f6bec0d74a265",
          "transactionIndex": "0x48",
          "logIndex": "0x62",
          "removed": false
        },
        {
          "address": "0xbf4a322f1496e5c3d34a9bcdb4c60567b38c7de2",
          "topics": [
            "0x4afcb4a87cdbd9974efdb92ee48bc8d7cd0ae4bf217004db3d080cbaee652ca7"
          ],
          "data": "0x0000000000000000000000000000000000000000000000000000000067874a6000000000000000000000000000000000000000000000000000039aa2d716f9590000000000000000000000000000000000000000000000000dc7e3df7a0029ed",
          "blockHash": "0xfe4219fdbb4d813e19e223957528551ca0bdb33cd8d2f48f7248e2598d804657",
          "blockNumber": "0x725ca9",
          "transactionHash": "0x071bf30a511347576ce90d0493aa7d2a8b11c869bbfa7389ff2f6bec0d74a265",
          "transactionIndex": "0x48",
          "logIndex": "0x63",
          "removed": false
        }
      ],
      "logsBloom": "0x00000000000000000000000000000000000000000000000000000000000000000000000000000000000000000000000000000000000000004000000000000000000000000000000000000008000000000000001000000000000000000000000000000000020000000000000000000800020000000000000000000010000000000000000000000000000000000000000000000000000008000000010000000000000000000000000000000000000000004000000000000000000000000000000000000002000000800000000000001000000000000000080000000000000020000000000000000000000000000000000000000000000000000000000000000000",
      "type": "0x2",
      "transactionHash": "0x071bf30a511347576ce90d0493aa7d2a8b11c869bbfa7389ff2f6bec0d74a265",
      "transactionIndex": "0x48",
      "blockHash": "0xfe4219fdbb4d813e19e223957528551ca0bdb33cd8d2f48f7248e2598d804657",
      "blockNumber": "0x725ca9",
      "gasUsed": "0xfb91",
      "effectiveGasPrice": "0x27ec9be50",
      "from": "0xc77f7fed3b5cc8249adc428c5f44c9063b9734b4",
      "to": "0xbf4a322f1496e5c3d34a9bcdb4c60567b38c7de2",
      "contractAddress": null
    }
  ],
  "libraries": [],
  "pending": [],
  "returns": {},
  "timestamp": 1736919650,
  "chain": 11155111,
  "commit": "51a374b"
}