{
  "transactions": [
    {
      "hash": "0x51ad2852f789591034bc042b0fa0a7c85bf37f0c229e799596c68969c1eae98e",
      "transactionType": "CALL",
      "contractName": null,
      "contractAddress": "0x270e88f8683660553e8ba4eb2ad7c91a1710d769",
      "function": "buy(address)",
      "arguments": [
        "0xC77f7fed3b5Cc8249aDc428c5F44C9063B9734b4"
      ],
      "transaction": {
        "from": "0xc77f7fed3b5cc8249adc428c5f44c9063b9734b4",
        "to": "0x270e88f8683660553e8ba4eb2ad7c91a1710d769",
        "gas": "0x1b30c",
        "value": "0xde0b6b3a7640000",
        "input": "0xf088d547000000000000000000000000c77f7fed3b5cc8249adc428c5f44c9063b9734b4",
        "nonce": "0x85f",
        "chainId": "0xaa36a7"
      },
      "additionalContracts": [],
      "isFixedGasLimit": false
    }
  ],
  "receipts": [
    {
      "status": "0x1",
      "cumulativeGasUsed": "0xd240e9",
      "logs": [
        {
          "address": "0x270e88f8683660553e8ba4eb2ad7c91a1710d769",
          "topics": [
            "0xddf252ad1be2c89b69c2b068fc378daa952ba7f163c4a11628f55a4df523b3ef",
            "0x0000000000000000000000000000000000000000000000000000000000000000",
            "0x000000000000000000000000c77f7fed3b5cc8249adc428c5f44c9063b9734b4"
          ],
          "data": "0x000000000000000000000000000000000000000000000026a2f0d56ec6a3188a",
          "blockHash": "0x4689b87a1b30a863d8b15cb210f0a4208381a41327cf75af3cc802510fd11039",
          "blockNumber": "0x7255b4",
          "transactionHash": "0x51ad2852f789591034bc042b0fa0a7c85bf37f0c229e799596c68969c1eae98e",
          "transactionIndex": "0x37",
          "logIndex": "0x174",
          "removed": false
        },
        {
          "address": "0x270e88f8683660553e8ba4eb2ad7c91a1710d769",
          "topics": [
            "0xddf252ad1be2c89b69c2b068fc378daa952ba7f163c4a11628f55a4df523b3ef",
            "0x0000000000000000000000000000000000000000000000000000000000000000",
            "0x000000000000000000000000c77f7fed3b5cc8249adc428c5f44c9063b9734b4"
          ],
          "data": "0x0000000000000000000000000000000000000000000000001e00a722e64929ac",
          "blockHash": "0x4689b87a1b30a863d8b15cb210f0a4208381a41327cf75af3cc802510fd11039",
          "blockNumber": "0x7255b4",
          "transactionHash": "0x51ad2852f789591034bc042b0fa0a7c85bf37f0c229e799596c68969c1eae98e",
          "transactionIndex": "0x37",
          "logIndex": "0x175",
          "removed": false
        },
        {
          "address": "0x270e88f8683660553e8ba4eb2ad7c91a1710d769",
          "topics": [
            "0x4afcb4a87cdbd9974efdb92ee48bc8d7cd0ae4bf217004db3d080cbaee652ca7"
          ],
          "data": "0x000000000000000000000000000000000000000000000000000000006786f6780000000000000000000000000000000000000000000000000004ef7034dea9290000000000000000000000000000000000000000000000000de0b6b3a7640000",
          "blockHash": "0x4689b87a1b30a863d8b15cb210f0a4208381a41327cf75af3cc802510fd11039",
          "blockNumber": "0x7255b4",
          "transactionHash": "0x51ad2852f789591034bc042b0fa0a7c85bf37f0c229e799596c68969c1eae98e",
          "transactionIndex": "0x37",
          "logIndex": "0x176",
          "removed": false
        }
      ],
      "logsBloom": "0x00000000000000000000000000000000000000000000000000000000000000000000000000000000000000000000000020000000000000004000000000000000000000000000000000000008000000000000000000000000000000000000000000000000020000000000000000000800020000000000000000000010000000000000000000010000000000000000000000000000000000000000010000000000000000000000000000000000000000004000000000000000000000000000000000000002000000800000000000000000000000000000080000008000000020000000000000000000000000000000000000000000000000000000000000000000",
      "type": "0x2",
      "transactionHash": "0x51ad2852f789591034bc042b0fa0a7c85bf37f0c229e799596c68969c1eae98e",
      "transactionIndex": "0x37",
      "blockHash": "0x4689b87a1b30a863d8b15cb210f0a4208381a41327cf75af3cc802510fd11039",
      "blockNumber": "0x7255b4",
      "gasUsed": "0x13af8",
      "effectiveGasPrice": "0x84ccebe7",
      "from": "0xc77f7fed3b5cc8249adc428c5f44c9063b9734b4",
      "to": "0x270e88f8683660553e8ba4eb2ad7c91a1710d769",
      "contractAddress": null
    }
  ],
  "libraries": [],
  "pending": [],
  "returns": {},
  "timestamp": 1736898169,
  "chain": 11155111,
  "commit": "51a374b"
}