{
  "transactions": [
    {
      "hash": "0x584eba0d4256d3bf2564450209a18c5b37fb5d45884313bd2bd6a01b27fa43f8",
      "transactionType": "CALL",
      "contractName": null,
      "contractAddress": "0x8aafd3ede9adb0ff97c7aebce82a919afb1c8764",
      "function": "sell(uint256)",
      "arguments": [
        "796520430598"
      ],
      "transaction": {
        "from": "0xc77f7fed3b5cc8249adc428c5f44c9063b9734b4",
        "to": "0x8aafd3ede9adb0ff97c7aebce82a919afb1c8764",
        "gas": "0x1722a",
        "value": "0x0",
        "input": "0xe4849b32000000000000000000000000000000000000000000000000000000b974513c06",
        "nonce": "0x1566",
        "chainId": "0xaa36a7"
      },
      "additionalContracts": [],
      "isFixedGasLimit": false
    }
  ],
  "receipts": [
    {
      "status": "0x1",
      "cumulativeGasUsed": "0xf0aeb8",
      "logs": [
        {
          "address": "0x8aafd3ede9adb0ff97c7aebce82a919afb1c8764",
          "topics": [
            "0xddf252ad1be2c89b69c2b068fc378daa952ba7f163c4a11628f55a4df523b3ef",
            "0x000000000000000000000000c77f7fed3b5cc8249adc428c5f44c9063b9734b4",
            "0x0000000000000000000000000000000000000000000000000000000000000000"
          ],
          "data": "0x000000000000000000000000000000000000000000000000000000b7f881bc92",
          "blockHash": "0x7fb844c871637896cd93aa4942c59f29da5c381046d2a9806cbdc467cb6b7e79",
          "blockNumber": "0x731cce",
          "transactionHash": "0x584eba0d4256d3bf2564450209a18c5b37fb5d45884313bd2bd6a01b27fa43f8",
          "transactionIndex": "0x7f",
          "logIndex": "0xd0",
          "removed": false
        },
        {
          "address": "0x8aafd3ede9adb0ff97c7aebce82a919afb1c8764",
          "topics": [
            "0xddf252ad1be2c89b69c2b068fc378daa952ba7f163c4a11628f55a4df523b3ef",
            "0x000000000000000000000000c77f7fed3b5cc8249adc428c5f44c9063b9734b4",
            "0x000000000000000000000000c77f7fed3b5cc8249adc428c5f44c9063b9734b4"
          ],
          "data": "0x000000000000000000000000000000000000000000000000000000017bcf7f74",
          "blockHash": "0x7fb844c871637896cd93aa4942c59f29da5c381046d2a9806cbdc467cb6b7e79",
          "blockNumber": "0x731cce",
          "transactionHash": "0x584eba0d4256d3bf2564450209a18c5b37fb5d45884313bd2bd6a01b27fa43f8",
          "transactionIndex": "0x7f",
          "logIndex": "0xd1",
          "removed": false
        },
        {
          "address": "0x8aafd3ede9adb0ff97c7aebce82a919afb1c8764",
          "topics": [
            "0x4afcb4a87cdbd9974efdb92ee48bc8d7cd0ae4bf217004db3d080cbaee652ca7"
          ],
          "data": "0x000000000000000000000000000000000000000000000000000000006790569000000000000000000000000000000000000000000000000000123edda9299c1600000000000000000000000000000000000000000000000000000000f3d2a081",
          "blockHash": "0x7fb844c871637896cd93aa4942c59f29da5c381046d2a9806cbdc467cb6b7e79",
          "blockNumber": "0x731cce",
          "transactionHash": "0x584eba0d4256d3bf2564450209a18c5b37fb5d45884313bd2bd6a01b27fa43f8",
          "transactionIndex": "0x7f",
          "logIndex": "0xd2",
          "removed": false
        }
      ],
      "logsBloom": "0x00000000000000000000000000000000000000000600000000000000000000000000000000000000000000000000000000000000000000004000000000000000000000000000004000000008000000000000000000000000000000000000000000000000020000000000000000000800020000000000000000000010000000000000000000000000000000000000000000000000000000000000010000000000000000000000000000000000000000004000000000000000000000000000000000000002000000800000000000000000000000000000080000000000000020000000000000000000000000000000000000000000000000000000000000000000",
      "type": "0x2",
      "transactionHash": "0x584eba0d4256d3bf2564450209a18c5b37fb5d45884313bd2bd6a01b27fa43f8",
      "transactionIndex": "0x7f",
      "blockHash": "0x7fb844c871637896cd93aa4942c59f29da5c381046d2a9806cbdc467cb6b7e79",
      "blockNumber": "0x731cce",
      "gasUsed": "0xfd1b",
      "effectiveGasPrice": "0x9762a61b",
      "from": "0xc77f7fed3b5cc8249adc428c5f44c9063b9734b4",
      "to": "0x8aafd3ede9adb0ff97c7aebce82a919afb1c8764",
      "contractAddress": null
    }
  ],
  "libraries": [],
  "pending": [],
  "returns": {},
  "timestamp": 1737512593,
  "chain": 11155111,
  "commit": "1d2fb70"
}