{
  "transactions": [
    {
      "hash": "0x7ea7bf63ca59528866338ff2e830b06bea796fbd3dab89948f1a4dc1771a7ab2",
      "transactionType": "CALL",
      "contractName": null,
      "contractAddress": "0x270e88f8683660553e8ba4eb2ad7c91a1710d769",
      "function": "sell(uint256)",
      "arguments": [
        "758311571579659130795"
      ],
      "transaction": {
        "from": "0xc77f7fed3b5cc8249adc428c5f44c9063b9734b4",
        "to": "0x270e88f8683660553e8ba4eb2ad7c91a1710d769",
        "gas": "0x16fec",
        "value": "0x0",
        "input": "0xe4849b320000000000000000000000000000000000000000000000291bafe4a511c897ab",
        "nonce": "0x672",
        "chainId": "0xaa36a7"
      },
      "additionalContracts": [],
      "isFixedGasLimit": false
    }
  ],
  "receipts": [
    {
      "status": "0x1",
      "cumulativeGasUsed": "0x71c550",
      "logs": [
        {
          "address": "0x270e88f8683660553e8ba4eb2ad7c91a1710d769",
          "topics": [
            "0xddf252ad1be2c89b69c2b068fc378daa952ba7f163c4a11628f55a4df523b3ef",
            "0x000000000000000000000000c77f7fed3b5cc8249adc428c5f44c9063b9734b4",
            "0x0000000000000000000000000000000000000000000000000000000000000000"
          ],
          "data": "0x0000000000000000000000000000000000000000000000291bafe4a511c897ab",
          "blockHash": "0x478262da552af4e972b1902202818d1a0d7734d49d46286e595bb466de60b7f1",
          "blockNumber": "0x72536c",
          "transactionHash": "0x7ea7bf63ca59528866338ff2e830b06bea796fbd3dab89948f1a4dc1771a7ab2",
          "transactionIndex": "0x43",
          "logIndex": "0x6e",
          "removed": false
        },
        {
          "address": "0x270e88f8683660553e8ba4eb2ad7c91a1710d769",
          "topics": [
            "0x4afcb4a87cdbd9974efdb92ee48bc8d7cd0ae4bf217004db3d080cbaee652ca7"
          ],
          "data": "0x000000000000000000000000000000000000000000000000000000006786db180000000000000000000000000000000000000000000000000004a744deb238030000000000000000000000000000000000000000000000000dc82a64fb3a6841",
          "blockHash": "0x478262da552af4e972b1902202818d1a0d7734d49d46286e595bb466de60b7f1",
          "blockNumber": "0x72536c",
          "transactionHash": "0x7ea7bf63ca59528866338ff2e830b06bea796fbd3dab89948f1a4dc1771a7ab2",
          "transactionIndex": "0x43",
          "logIndex": "0x6f",
          "removed": false
        }
      ],
      "logsBloom": "0x00000000000000000000000000000000000000000000000000000000000000000000000000000000000000000000000020000000000000004000000000000000000000000000000000000008000000000000000000000000000000000000000000000000020000000000000000000800020000000000000000000010000000000000000000010000000000000000000000000000000000000000010000000000000000000000000000000000000000004000000000000000000000000000000000000002000000800000000000000000000000000000080000008000000020000000000000000000000000000000000000000000000000000000000000000000",
      "type": "0x2",
      "transactionHash": "0x7ea7bf63ca59528866338ff2e830b06bea796fbd3dab89948f1a4dc1771a7ab2",
      "transactionIndex": "0x43",
      "blockHash": "0x478262da552af4e972b1902202818d1a0d7734d49d46286e595bb466de60b7f1",
      "blockNumber": "0x72536c",
      "gasUsed": "0xfb93",
      "effectiveGasPrice": "0x26a49ef24",
      "from": "0xc77f7fed3b5cc8249adc428c5f44c9063b9734b4",
      "to": "0x270e88f8683660553e8ba4eb2ad7c91a1710d769",
      "contractAddress": null
    }
  ],
  "libraries": [],
  "pending": [],
  "returns": {},
  "timestamp": 1736891161,
  "chain": 11155111,
  "commit": "51a374b"
}