{
  "transactions": [
    {
      "hash": "0xf8cc2ba34b6472781e9570b6985ba8fcb05ab212a3ada7bca8cd33f610d23d21",
      "transactionType": "CALL",
      "contractName": null,
      "contractAddress": "0x5eb9cc76c3506942c1c0ead70e877dd5e4f00cb0",
      "function": "buy(address)",
      "arguments": [
        "0xC77f7fed3b5Cc8249aDc428c5F44C9063B9734b4"
      ],
      "transaction": {
        "from": "0xc77f7fed3b5cc8249adc428c5f44c9063b9734b4",
        "to": "0x5eb9cc76c3506942c1c0ead70e877dd5e4f00cb0",
        "gas": "0x1b30c",
        "value": "0xde0b6b3a7640000",
        "input": "0xf088d547000000000000000000000000c77f7fed3b5cc8249adc428c5f44c9063b9734b4",
        "nonce": "0x492",
        "chainId": "0xaa36a7"
      },
      "additionalContracts": [],
      "isFixedGasLimit": false
    }
  ],
  "receipts": [
    {
      "status": "0x1",
      "cumulativeGasUsed": "0xa44c26",
      "logs": [
        {
          "address": "0x5eb9cc76c3506942c1c0ead70e877dd5e4f00cb0",
          "topics": [
            "0xddf252ad1be2c89b69c2b068fc378daa952ba7f163c4a11628f55a4df523b3ef",
            "0x0000000000000000000000000000000000000000000000000000000000000000",
            "0x000000000000000000000000c77f7fed3b5cc8249adc428c5f44c9063b9734b4"
          ],
          "data": "0x00000000000000000000000000000000000000000000003574afd0faf7a9bb84",
          "blockHash": "0xbd207f5240b3389eda07e05f7eb2bbf41207795c9b27997666b53bacbc30a93e",
          "blockNumber": "0x7250c6",
          "transactionHash": "0xf8cc2ba34b6472781e9570b6985ba8fcb05ab212a3ada7bca8cd33f610d23d21",
          "transactionIndex": "0x3c",
          "logIndex": "0x7c",
          "removed": false
        },
        {
          "address": "0x5eb9cc76c3506942c1c0ead70e877dd5e4f00cb0",
          "topics": [
            "0xddf252ad1be2c89b69c2b068fc378daa952ba7f163c4a11628f55a4df523b3ef",
            "0x0000000000000000000000000000000000000000000000000000000000000000",
            "0x000000000000000000000000c77f7fed3b5cc8249adc428c5f44c9063b9734b4"
          ],
          "data": "0x0000000000000000000000000000000000000000000000002982a046171992d8",
          "blockHash": "0xbd207f5240b3389eda07e05f7eb2bbf41207795c9b27997666b53bacbc30a93e",
          "blockNumber": "0x7250c6",
          "transactionHash": "0xf8cc2ba34b6472781e9570b6985ba8fcb05ab212a3ada7bca8cd33f610d23d21",
          "transactionIndex": "0x3c",
          "logIndex": "0x7d",
          "removed": false
        },
        {
          "address": "0x5eb9cc76c3506942c1c0ead70e877dd5e4f00cb0",
          "topics": [
            "0x4afcb4a87cdbd9974efdb92ee48bc8d7cd0ae4bf217004db3d080cbaee652ca7"
          ],
          "data": "0x000000000000000000000000000000000000000000000000000000006786bb140000000000000000000000000000000000000000000000000003911aec2131600000000000000000000000000000000000000000000000000de0b6b3a7640000",
          "blockHash": "0xbd207f5240b3389eda07e05f7eb2bbf41207795c9b27997666b53bacbc30a93e",
          "blockNumber": "0x7250c6",
          "transactionHash": "0xf8cc2ba34b6472781e9570b6985ba8fcb05ab212a3ada7bca8cd33f610d23d21",
          "transactionIndex": "0x3c",
          "logIndex": "0x7e",
          "removed": false
        }
      ],
      "logsBloom": "0x00000000000000000000000000000000000000000000000000000000000000000000000000000000000000000000000000000000000000004000000000000000000000000000000000000008000000000000000000000000000000000000000000000000020000000000000004000800020000000000000000000010000000000000000000000000000000000000000000000000000000000000010000000000000000000000000000000000000000004000000000000000000000000000020000000002000000800000008000000000000000000000080000000000000020000000000000000000000000000000000000000000000000000000000000000000",
      "type": "0x2",
      "transactionHash": "0xf8cc2ba34b6472781e9570b6985ba8fcb05ab212a3ada7bca8cd33f610d23d21",
      "transactionIndex": "0x3c",
      "blockHash": "0xbd207f5240b3389eda07e05f7eb2bbf41207795c9b27997666b53bacbc30a93e",
      "blockNumber": "0x7250c6",
      "gasUsed": "0x13af8",
      "effectiveGasPrice": "0x25be431a4",
      "from": "0xc77f7fed3b5cc8249adc428c5f44c9063b9734b4",
      "to": "0x5eb9cc76c3506942c1c0ead70e877dd5e4f00cb0",
      "contractAddress": null
    }
  ],
  "libraries": [],
  "pending": [],
  "returns": {},
  "timestamp": 1736882965,
  "chain": 11155111,
  "commit": "51a374b"
}