{
  "transactions": [
    {
      "hash": "0x6783477a287b03fc9375e9b24630720c7ccb860ddbfe4edab91adb3131f20f03",
      "transactionType": "CALL",
      "contractName": null,
      "contractAddress": "0x8aafd3ede9adb0ff97c7aebce82a919afb1c8764",
      "function": "sell(uint256)",
      "arguments": [
        "2824717385741"
      ],
      "transaction": {
        "from": "0xc77f7fed3b5cc8249adc428c5f44c9063b9734b4",
        "to": "0x8aafd3ede9adb0ff97c7aebce82a919afb1c8764",
        "gas": "0x15daa",
        "value": "0x0",
        "input": "0xe4849b3200000000000000000000000000000000000000000000000000000291ae46c00d",
        "nonce": "0x1185",
        "chainId": "0xaa36a7"
      },
      "additionalContracts": [],
      "isFixedGasLimit": false
    }
  ],
  "receipts": [
    {
      "status": "0x1",
      "cumulativeGasUsed": "0xbb3d67",
      "logs": [
        {
          "address": "0x8aafd3ede9adb0ff97c7aebce82a919afb1c8764",
          "topics": [
            "0xddf252ad1be2c89b69c2b068fc378daa952ba7f163c4a11628f55a4df523b3ef",
            "0x000000000000000000000000c77f7fed3b5cc8249adc428c5f44c9063b9734b4",
            "0x0000000000000000000000000000000000000000000000000000000000000000"
          ],
          "data": "0x0000000000000000000000000000000000000000000000000000028c6b589dc0",
          "blockHash": "0xdfd88b6f96b5a820b2bd34de0041c87cc8519348a5063b48cd8fdb96bad95ccb",
          "blockNumber": "0x731848",
          "transactionHash": "0x6783477a287b03fc9375e9b24630720c7ccb860ddbfe4edab91adb3131f20f03",
          "transactionIndex": "0x8e",
          "logIndex": "0x97",
          "removed": false
        },
        {
          "address": "0x8aafd3ede9adb0ff97c7aebce82a919afb1c8764",
          "topics": [
            "0xddf252ad1be2c89b69c2b068fc378daa952ba7f163c4a11628f55a4df523b3ef",
            "0x000000000000000000000000c77f7fed3b5cc8249adc428c5f44c9063b9734b4",
            "0x000000000000000000000000c77f7fed3b5cc8249adc428c5f44c9063b9734b4"
          ],
          "data": "0x0000000000000000000000000000000000000000000000000000000542ee224d",
          "blockHash": "0xdfd88b6f96b5a820b2bd34de0041c87cc8519348a5063b48cd8fdb96bad95ccb",
          "blockNumber": "0x731848",
          "transactionHash": "0x6783477a287b03fc9375e9b24630720c7ccb860ddbfe4edab91adb3131f20f03",
          "transactionIndex": "0x8e",
          "logIndex": "0x98",
          "removed": false
        },
        {
          "address": "0x8aafd3ede9adb0ff97c7aebce82a919afb1c8764",
          "topics": [
            "0x4afcb4a87cdbd9974efdb92ee48bc8d7cd0ae4bf217004db3d080cbaee652ca7"
          ],
          "data": "0x000000000000000000000000000000000000000000000000000000006790202400000000000000000000000000000000000000000000000000051f0b35fb815600000000000000000000000000000000000000000000000000000000f2b3897a",
          "blockHash": "0xdfd88b6f96b5a820b2bd34de0041c87cc8519348a5063b48cd8fdb96bad95ccb",
          "blockNumber": "0x731848",
          "transactionHash": "0x6783477a287b03fc9375e9b24630720c7ccb860ddbfe4edab91adb3131f20f03",
          "transactionIndex": "0x8e",
          "logIndex": "0x99",
          "removed": false
        }
      ],
      "logsBloom": "0x00000000000000000000000000000000000000000600000000000000000000000000000000000000000000000000000000000000000000004000000000000000000000000000004000000008000000000000000000000000000000000000000000000000020000000000000000000800020000000000000000000010000000000000000000000000000000000000000000000000000000000000010000000000000000000000000000000000000000004000000000000000000000000000000000000002000000800000000000000000000000000000080000000000000020000000000000000000000000000000000000000000000000000000000000000000",
      "type": "0x2",
      "transactionHash": "0x6783477a287b03fc9375e9b24630720c7ccb860ddbfe4edab91adb3131f20f03",
      "transactionIndex": "0x8e",
      "blockHash": "0xdfd88b6f96b5a820b2bd34de0041c87cc8519348a5063b48cd8fdb96bad95ccb",
      "blockNumber": "0x731848",
      "gasUsed": "0xfd27",
      "effectiveGasPrice": "0x408a8836",
      "from": "0xc77f7fed3b5cc8249adc428c5f44c9063b9734b4",
      "to": "0x8aafd3ede9adb0ff97c7aebce82a919afb1c8764",
      "contractAddress": null
    }
  ],
  "libraries": [],
  "pending": [],
  "returns": {},
  "timestamp": 1737498661,
  "chain": 11155111,
  "commit": "1d2fb70"
}