{
  "transactions": [
    {
      "hash": "0xabe1d4cdf473a3ad59021cb1367e621a5f8a14cbf7a8939258eb8ac1420e119a",
      "transactionType": "CALL",
      "contractName": null,
      "contractAddress": "0x8aafd3ede9adb0ff97c7aebce82a919afb1c8764",
      "function": "sell(uint256)",
      "arguments": [
        "351141919790192"
      ],
      "transaction": {
        "from": "0xc77f7fed3b5cc8249adc428c5f44c9063b9734b4",
        "to": "0x8aafd3ede9adb0ff97c7aebce82a919afb1c8764",
        "gas": "0x1724d",
        "value": "0x0",
        "input": "0xe4849b3200000000000000000000000000000000000000000000000000013f5c99651470",
        "nonce": "0x11b6",
        "chainId": "0xaa36a7"
      },
      "additionalContracts": [],
      "isFixedGasLimit": false
    }
  ],
  "receipts": [
    {
      "status": "0x1",
      "cumulativeGasUsed": "0xbf9043",
      "logs": [
        {
          "address": "0x8aafd3ede9adb0ff97c7aebce82a919afb1c8764",
          "topics": [
            "0xddf252ad1be2c89b69c2b068fc378daa952ba7f163c4a11628f55a4df523b3ef",
            "0x000000000000000000000000c77f7fed3b5cc8249adc428c5f44c9063b9734b4",
            "0x0000000000000000000000000000000000000000000000000000000000000000"
          ],
          "data": "0x00000000000000000000000000000000000000000000000000013cce8be132ff",
          "blockHash": "0x40b5f9b14805045958de68e8be3efe6699f636e709ac37acac5a41563a5a23ea",
          "blockNumber": "0x731884",
          "transactionHash": "0xabe1d4cdf473a3ad59021cb1367e621a5f8a14cbf7a8939258eb8ac1420e119a",
          "transactionIndex": "0x86",
          "logIndex": "0xbb",
          "removed": false
        },
        {
          "address": "0x8aafd3ede9adb0ff97c7aebce82a919afb1c8764",
          "topics": [
            "0xddf252ad1be2c89b69c2b068fc378daa952ba7f163c4a11628f55a4df523b3ef",
            "0x000000000000000000000000c77f7fed3b5cc8249adc428c5f44c9063b9734b4",
            "0x000000000000000000000000c77f7fed3b5cc8249adc428c5f44c9063b9734b4"
          ],
          "data": "0x0000000000000000000000000000000000000000000000000000028e0d83e171",
          "blockHash": "0x40b5f9b14805045958de68e8be3efe6699f636e709ac37acac5a41563a5a23ea",
          "blockNumber": "0x731884",
          "transactionHash": "0xabe1d4cdf473a3ad59021cb1367e621a5f8a14cbf7a8939258eb8ac1420e119a",
          "transactionIndex": "0x86",
          "logIndex": "0xbc",
          "removed": false
        },
        {
          "address": "0x8aafd3ede9adb0ff97c7aebce82a919afb1c8764",
          "topics": [
            "0x4afcb4a87cdbd9974efdb92ee48bc8d7cd0ae4bf217004db3d080cbaee652ca7"
          ],
          "data": "0x00000000000000000000000000000000000000000000000000000000679023000000000000000000000000000000000000000000000000000005264ede4e520100000000000000000000000000000000000000000000000000000076817b3ebb",
          "blockHash": "0x40b5f9b14805045958de68e8be3efe6699f636e709ac37acac5a41563a5a23ea",
          "blockNumber": "0x731884",
          "transactionHash": "0xabe1d4cdf473a3ad59021cb1367e621a5f8a14cbf7a8939258eb8ac1420e119a",
          "transactionIndex": "0x86",
          "logIndex": "0xbd",
          "removed": false
        }
      ],
      "logsBloom": "0x00000000000000000000000000000000000000000600000000000000000000000000000000000000000000000000000000000000000000004000000000000000000000000000004000000008000000000000000000000000000000000000000000000000020000000000000000000800020000000000000000000010000000000000000000000000000000000000000000000000000000000000010000000000000000000000000000000000000000004000000000000000000000000000000000000002000000800000000000000000000000000000080000000000000020000000000000000000000000000000000000000000000000000000000000000000",
      "type": "0x2",
      "transactionHash": "0xabe1d4cdf473a3ad59021cb1367e621a5f8a14cbf7a8939258eb8ac1420e119a",
      "transactionIndex": "0x86",
      "blockHash": "0x40b5f9b14805045958de68e8be3efe6699f636e709ac37acac5a41563a5a23ea",
      "blockNumber": "0x731884",
      "gasUsed": "0xfd33",
      "effectiveGasPrice": "0x43504250",
      "from": "0xc77f7fed3b5cc8249adc428c5f44c9063b9734b4",
      "to": "0x8aafd3ede9adb0ff97c7aebce82a919afb1c8764",
      "contractAddress": null
    }
  ],
  "libraries": [],
  "pending": [],
  "returns": {},
  "timestamp": 1737499393,
  "chain": 11155111,
  "commit": "1d2fb70"
}