{
  "transactions": [
    {
      "hash": "0x396e0102af77b7e7f58976699755a60ecaaa10880a1e8bce177cf3a739c36290",
      "transactionType": "CALL",
      "contractName": null,
      "contractAddress": "0x8aafd3ede9adb0ff97c7aebce82a919afb1c8764",
      "function": "sell(uint256)",
      "arguments": [
        "1447595058598578843"
      ],
      "transaction": {
        "from": "0xc77f7fed3b5cc8249adc428c5f44c9063b9734b4",
        "to": "0x8aafd3ede9adb0ff97c7aebce82a919afb1c8764",
        "gas": "0x15dca",
        "value": "0x0",
        "input": "0xe4849b320000000000000000000000000000000000000000000000001416e4093e610a9b",
        "nonce": "0x15d8",
        "chainId": "0xaa36a7"
      },
      "additionalContracts": [],
      "isFixedGasLimit": false
    }
  ],
  "receipts": [
    {
      "status": "0x1",
      "cumulativeGasUsed": "0xf3956d",
      "logs": [
        {
          "address": "0x8aafd3ede9adb0ff97c7aebce82a919afb1c8764",
          "topics": [
            "0xddf252ad1be2c89b69c2b068fc378daa952ba7f163c4a11628f55a4df523b3ef",
            "0x000000000000000000000000c77f7fed3b5cc8249adc428c5f44c9063b9734b4",
            "0x0000000000000000000000000000000000000000000000000000000000000000"
          ],
          "data": "0x00000000000000000000000000000000000000000000000013edbf6554687505",
          "blockHash": "0x0ae77823f314dda67d6ecf4de0dfb23de5b827cc3e1df5931c2c5b4557defb0a",
          "blockNumber": "0x731d55",
          "transactionHash": "0x396e0102af77b7e7f58976699755a60ecaaa10880a1e8bce177cf3a739c36290",
          "transactionIndex": "0x7a",
          "logIndex": "0xb6",
          "removed": false
        },
        {
          "address": "0x8aafd3ede9adb0ff97c7aebce82a919afb1c8764",
          "topics": [
            "0xddf252ad1be2c89b69c2b068fc378daa952ba7f163c4a11628f55a4df523b3ef",
            "0x000000000000000000000000c77f7fed3b5cc8249adc428c5f44c9063b9734b4",
            "0x000000000000000000000000c77f7fed3b5cc8249adc428c5f44c9063b9734b4"
          ],
          "data": "0x000000000000000000000000000000000000000000000000002924a3e9f89596",
          "blockHash": "0x0ae77823f314dda67d6ecf4de0dfb23de5b827cc3e1df5931c2c5b4557defb0a",
          "blockNumber": "0x731d55",
          "transactionHash": "0x396e0102af77b7e7f58976699755a60ecaaa10880a1e8bce177cf3a739c36290",
          "transactionIndex": "0x7a",
          "logIndex": "0xb7",
          "removed": false
        },
        {
          "address": "0x8aafd3ede9adb0ff97c7aebce82a919afb1c8764",
          "topics": [
            "0x4afcb4a87cdbd9974efdb92ee48bc8d7cd0ae4bf217004db3d080cbaee652ca7"
          ],
          "data": "0x0000000000000000000000000000000000000000000000000000000067905ce4000000000000000000000000000000000000000000000000001399cc602c66c2000000000000000000000000000000000000000000000000001c5f822805f1c9",
          "blockHash": "0x0ae77823f314dda67d6ecf4de0dfb23de5b827cc3e1df5931c2c5b4557defb0a",
          "blockNumber": "0x731d55",
          "transactionHash": "0x396e0102af77b7e7f58976699755a60ecaaa10880a1e8bce177cf3a739c36290",
          "transactionIndex": "0x7a",
          "logIndex": "0xb8",
          "removed": false
        }
      ],
      "logsBloom": "0x00000000000000000000000000000000000000000600000000000000000000000000000000000000000000000000000000000000000000004000000000000000000000000000004000000008000000000000000000000000000000000000000000000000020000000000000000000800020000000000000000000010000000000000000000000000000000000000000000000000000000000000010000000000000000000000000000000000000000004000000000000000000000000000000000000002000000800000000000000000000000000000080000000000000020000000000000000000000000000000000000000000000000000000000000000000",
      "type": "0x2",
      "transactionHash": "0x396e0102af77b7e7f58976699755a60ecaaa10880a1e8bce177cf3a739c36290",
      "transactionIndex": "0x7a",
      "blockHash": "0x0ae77823f314dda67d6ecf4de0dfb23de5b827cc3e1df5931c2c5b4557defb0a",
      "blockNumber": "0x731d55",
      "gasUsed": "0xfd3f",
      "effectiveGasPrice": "0x5fd78bff",
      "from": "0xc77f7fed3b5cc8249adc428c5f44c9063b9734b4",
      "to": "0x8aafd3ede9adb0ff97c7aebce82a919afb1c8764",
      "contractAddress": null
    }
  ],
  "libraries": [],
  "pending": [],
  "returns": {},
  "timestamp": 1737514213,
  "chain": 11155111,
  "commit": "1d2fb70"
}