{
  "transactions": [
    {
      "hash": "0x15f8a756e86638e3584abb68f69f24c8d17f9bf0c29adfe68308719ecd88899a",
      "transactionType": "CALL",
      "contractName": null,
      "contractAddress": "0xbf4a322f1496e5c3d34a9bcdb4c60567b38c7de2",
      "function": "sell(uint256)",
      "arguments": [
        "989119409557268743880"
      ],
      "transaction": {
        "from": "0xc77f7fed3b5cc8249adc428c5f44c9063b9734b4",
        "to": "0xbf4a322f1496e5c3d34a9bcdb4c60567b38c7de2",
        "gas": "0x16fea",
        "value": "0x0",
        "input": "0xe4849b320000000000000000000000000000000000000000000000359eca0e69c11e46c8",
        "nonce": "0x977",
        "chainId": "0xaa36a7"
      },
      "additionalContracts": [],
      "isFixedGasLimit": false
    }
  ],
  "receipts": [
    {
      "status": "0x1",
      "cumulativeGasUsed": "0x111f12c",
      "logs": [
        {
          "address": "0xbf4a322f1496e5c3d34a9bcdb4c60567b38c7de2",
          "topics": [
            "0xddf252ad1be2c89b69c2b068fc378daa952ba7f163c4a11628f55a4df523b3ef",
            "0x000000000000000000000000c77f7fed3b5cc8249adc428c5f44c9063b9734b4",
            "0x0000000000000000000000000000000000000000000000000000000000000000"
          ],
          "data": "0x0000000000000000000000000000000000000000000000359eca0e69c11e46c8",
          "blockHash": "0xf9b389c932a5bd2ca986074cdbef68e0aa3ad0349b62d53105e89c0ce986a2b2",
          "blockNumber": "0x725912",
          "transactionHash": "0x15f8a756e86638e3584abb68f69f24c8d17f9bf0c29adfe68308719ecd88899a",
          "transactionIndex": "0x6f",
          "logIndex": "0x99",
          "removed": false
        },
        {
          "address": "0xbf4a322f1496e5c3d34a9bcdb4c60567b38c7de2",
          "topics": [
            "0x4afcb4a87cdbd9974efdb92ee48bc8d7cd0ae4bf217004db3d080cbaee652ca7"
          ],
          "data": "0x0000000000000000000000000000000000000000000000000000000067871f0400000000000000000000000000000000000000000000000000039117463a4a180000000000000000000000000000000000000000000000000dc7e3f744da9976",
          "blockHash": "0xf9b389c932a5bd2ca986074cdbef68e0aa3ad0349b62d53105e89c0ce986a2b2",
          "blockNumber": "0x725912",
          "transactionHash": "0x15f8a756e86638e3584abb68f69f24c8d17f9bf0c29adfe68308719ecd88899a",
          "transactionIndex": "0x6f",
          "logIndex": "0x9a",
          "removed": false
        }
      ],
      "logsBloom": "0x00000000000000000000000000000000000000000000000000000000000000000000000000000000000000000000000000000000000000004000000000000000000000000000000000000008000000000000001000000000000000000000000000000000020000000000000000000800020000000000000000000010000000000000000000000000000000000000000000000000000008000000010000000000000000000000000000000000000000004000000000000000000000000000000000000002000000800000000000001000000000000000080000000000000020000000000000000000000000000000000000000000000000000000000000000000",
      "type": "0x2",
      "transactionHash": "0x15f8a756e86638e3584abb68f69f24c8d17f9bf0c29adfe68308719ecd88899a",
      "transactionIndex": "0x6f",
      "blockHash": "0xf9b389c932a5bd2ca986074cdbef68e0aa3ad0349b62d53105e89c0ce986a2b2",
      "blockNumber": "0x725912",
      "gasUsed": "0xfb91",
      "effectiveGasPrice": "0xaa46cd66",
      "from": "0xc77f7fed3b5cc8249adc428c5f44c9063b9734b4",
      "to": "0xbf4a322f1496e5c3d34a9bcdb4c60567b38c7de2",
      "contractAddress": null
    }
  ],
  "libraries": [],
  "pending": [],
  "returns": {},
  "timestamp": 1736908550,
  "chain": 11155111,
  "commit": "51a374b"
}