{
  "transactions": [
    {
      "hash": "0x7848639dd8c4f6c1d9408134a314531819daf88b94e054e09d9299cf3b4d839d",
      "transactionType": "CALL",
      "contractName": null,
      "contractAddress": "0x8aafd3ede9adb0ff97c7aebce82a919afb1c8764",
      "function": "sell(uint256)",
      "arguments": [
        "177152918369540276232"
      ],
      "transaction": {
        "from": "0xc77f7fed3b5cc8249adc428c5f44c9063b9734b4",
        "to": "0x8aafd3ede9adb0ff97c7aebce82a919afb1c8764",
        "gas": "0x17270",
        "value": "0x0",
        "input": "0xe4849b320000000000000000000000000000000000000000000000099a7d98a924388008",
        "nonce": "0x15fb",
        "chainId": "0xaa36a7"
      },
      "additionalContracts": [],
      "isFixedGasLimit": false
    }
  ],
  "receipts": [
    {
      "status": "0x1",
      "cumulativeGasUsed": "0xe5217a",
      "logs": [
        {
          "address": "0x8aafd3ede9adb0ff97c7aebce82a919afb1c8764",
          "topics": [
            "0xddf252ad1be2c89b69c2b068fc378daa952ba7f163c4a11628f55a4df523b3ef",
            "0x000000000000000000000000c77f7fed3b5cc8249adc428c5f44c9063b9734b4",
            "0x0000000000000000000000000000000000000000000000000000000000000000"
          ],
          "data": "0x00000000000000000000000000000000000000000000000986d29b89117fba67",
          "blockHash": "0x0ef9d3ec6650b2f4946274c9babe9de2e4c729c34f78944ffb3b7a31e0ed0c87",
          "blockNumber": "0x731d8b",
          "transactionHash": "0x7848639dd8c4f6c1d9408134a314531819daf88b94e054e09d9299cf3b4d839d",
          "transactionIndex": "0x70",
          "logIndex": "0xab",
          "removed": false
        },
        {
          "address": "0x8aafd3ede9adb0ff97c7aebce82a919afb1c8764",
          "topics": [
            "0xddf252ad1be2c89b69c2b068fc378daa952ba7f163c4a11628f55a4df523b3ef",
            "0x000000000000000000000000c77f7fed3b5cc8249adc428c5f44c9063b9734b4",
            "0x000000000000000000000000c77f7fed3b5cc8249adc428c5f44c9063b9734b4"
          ],
          "data": "0x00000000000000000000000000000000000000000000000013aafd2012b8c5a1",
          "blockHash": "0x0ef9d3ec6650b2f4946274c9babe9de2e4c729c34f78944ffb3b7a31e0ed0c87",
          "blockNumber": "0x731d8b",
          "transactionHash": "0x7848639dd8c4f6c1d9408134a314531819daf88b94e054e09d9299cf3b4d839d",
          "transactionIndex": "0x70",
          "logIndex": "0xac",
          "removed": false
        },
        {
          "address": "0x8aafd3ede9adb0ff97c7aebce82a919afb1c8764",
          "topics": [
            "0x4afcb4a87cdbd9974efdb92ee48bc8d7cd0ae4bf217004db3d080cbaee652ca7"
          ],
          "data": "0x0000000000000000000000000000000000000000000000000000000067905f6c000000000000000000000000000000000000000000000000001404a04c1f65c60000000000000000000000000000000000000000000000000dcc7f3e90851d37",
          "blockHash": "0x0ef9d3ec6650b2f4946274c9babe9de2e4c729c34f78944ffb3b7a31e0ed0c87",
          "blockNumber": "0x731d8b",
          "transactionHash": "0x7848639dd8c4f6c1d9408134a314531819daf88b94e054e09d9299cf3b4d839d",
          "transactionIndex": "0x70",
          "logIndex": "0xad",
          "removed": false
        }
      ],
      "logsBloom": "0x00000000000000000000000000000000000000000600000000000000000000000000000000000000000000000000000000000000000000004000000000000000000000000000004000000008000000000000000000000000000000000000000000000000020000000000000000000800020000000000000000000010000000000000000000000000000000000000000000000000000000000000010000000000000000000000000000000000000000004000000000000000000000000000000000000002000000800000000000000000000000000000080000000000000020000000000000000000000000000000000000000000000000000000000000000000",
      "type": "0x2",
      "transactionHash": "0x7848639dd8c4f6c1d9408134a314531819daf88b94e054e09d9299cf3b4d839d",
      "transactionIndex": "0x70",
      "blockHash": "0x0ef9d3ec6650b2f4946274c9babe9de2e4c729c34f78944ffb3b7a31e0ed0c87",
      "blockNumber": "0x731d8b",
      "gasUsed": "0xfd4b",
      "effectiveGasPrice": "0x61f00688",
      "from": "0xc77f7fed3b5cc8249adc428c5f44c9063b9734b4",
      "to": "0x8aafd3ede9adb0ff97c7aebce82a919afb1c8764",
      "contractAddress": null
    }
  ],
  "libraries": [],
  "pending": [],
  "returns": {},
  "timestamp": 1737514860,
  "chain": 11155111,
  "commit": "1d2fb70"
}