{
  "transactions": [
    {
      "hash": "0x2876601ae79f80a38fb9a2c176667aad988b4c4f09643b39ff291bde4bc585fc",
      "transactionType": "CALL",
      "contractName": null,
      "contractAddress": "0xbf4a322f1496e5c3d34a9bcdb4c60567b38c7de2",
      "function": "sell(uint256)",
      "arguments": [
        "991120368489129960202"
      ],
      "transaction": {
        "from": "0xc77f7fed3b5cc8249adc428c5f44c9063b9734b4",
        "to": "0xbf4a322f1496e5c3d34a9bcdb4c60567b38c7de2",
        "gas": "0x16fea",
        "value": "0x0",
        "input": "0xe4849b32000000000000000000000000000000000000000000000035ba8ee3f5c8d9e30a",
        "nonce": "0x8e5",
        "chainId": "0xaa36a7"
      },
      "additionalContracts": [],
      "isFixedGasLimit": false
    }
  ],
  "receipts": [
    {
      "status": "0x1",
      "cumulativeGasUsed": "0xb041ff",
      "logs": [
        {
          "address": "0xbf4a322f1496e5c3d34a9bcdb4c60567b38c7de2",
          "topics": [
            "0xddf252ad1be2c89b69c2b068fc378daa952ba7f163c4a11628f55a4df523b3ef",
            "0x000000000000000000000000c77f7fed3b5cc8249adc428c5f44c9063b9734b4",
            "0x0000000000000000000000000000000000000000000000000000000000000000"
          ],
          "data": "0x000000000000000000000000000000000000000000000035ba8ee3f5c8d9e30a",
          "blockHash": "0x5b329a5593416fd6f719b9dd0aac9a659b952572b794a86582361843e7f8a62f",
          "blockNumber": "0x72585c",
          "transactionHash": "0x2876601ae79f80a38fb9a2c176667aad988b4c4f09643b39ff291bde4bc585fc",
          "transactionIndex": "0x5c",
          "logIndex": "0x77",
          "removed": false
        },
        {
          "address": "0xbf4a322f1496e5c3d34a9bcdb4c60567b38c7de2",
          "topics": [
            "0x4afcb4a87cdbd9974efdb92ee48bc8d7cd0ae4bf217004db3d080cbaee652ca7"
          ],
          "data": "0x000000000000000000000000000000000000000000000000000000006787167c00000000000000000000000000000000000000000000000000038f3f5ec6c9120000000000000000000000000000000000000000000000000dc7e3fbebce75cb",
          "blockHash": "0x5b329a5593416fd6f719b9dd0aac9a659b952572b794a86582361843e7f8a62f",
          "blockNumber": "0x72585c",
          "transactionHash": "0x2876601ae79f80a38fb9a2c176667aad988b4c4f09643b39ff291bde4bc585fc",
          "transactionIndex": "0x5c",
          "logIndex": "0x78",
          "removed": false
        }
      ],
      "logsBloom": "0x00000000000000000000000000000000000000000000000000000000000000000000000000000000000000000000000000000000000000004000000000000000000000000000000000000008000000000000001000000000000000000000000000000000020000000000000000000800020000000000000000000010000000000000000000000000000000000000000000000000000008000000010000000000000000000000000000000000000000004000000000000000000000000000000000000002000000800000000000001000000000000000080000000000000020000000000000000000000000000000000000000000000000000000000000000000",
      "type": "0x2",
      "transactionHash": "0x2876601ae79f80a38fb9a2c176667aad988b4c4f09643b39ff291bde4bc585fc",
      "transactionIndex": "0x5c",
      "blockHash": "0x5b329a5593416fd6f719b9dd0aac9a659b952572b794a86582361843e7f8a62f",
      "blockNumber": "0x72585c",
      "gasUsed": "0xfb91",
      "effectiveGasPrice": "0x26adb2ab",
      "from": "0xc77f7fed3b5cc8249adc428c5f44c9063b9734b4",
      "to": "0xbf4a322f1496e5c3d34a9bcdb4c60567b38c7de2",
      "contractAddress": null
    }
  ],
  "libraries": [],
  "pending": [],
  "returns": {},
  "timestamp": 1736906365,
  "chain": 11155111,
  "commit": "51a374b"
}