{
  "transactions": [
    {
      "hash": "0xe74e670d5a22960c98e4e79c44e318ceb8431bbbdd83da5dc128ce2b7dc85b91",
      "transactionType": "CALL",
      "contractName": null,
      "contractAddress": "0x270e88f8683660553e8ba4eb2ad7c91a1710d769",
      "function": "sell(uint256)",
      "arguments": [
        "738159226460871788814"
      ],
      "transaction": {
        "from": "0xc77f7fed3b5cc8249adc428c5f44c9063b9734b4",
        "to": "0x270e88f8683660553e8ba4eb2ad7c91a1710d769",
        "gas": "0x16fec",
        "value": "0x0",
        "input": "0xe4849b3200000000000000000000000000000000000000000000002804046187ed63090e",
        "nonce": "0x750",
        "chainId": "0xaa36a7"
      },
      "additionalContracts": [],
      "isFixedGasLimit": false
    }
  ],
  "receipts": [
    {
      "status": "0x1",
      "cumulativeGasUsed": "0x983969",
      "logs": [
        {
          "address": "0x270e88f8683660553e8ba4eb2ad7c91a1710d769",
          "topics": [
            "0xddf252ad1be2c89b69c2b068fc378daa952ba7f163c4a11628f55a4df523b3ef",
            "0x000000000000000000000000c77f7fed3b5cc8249adc428c5f44c9063b9734b4",
            "0x0000000000000000000000000000000000000000000000000000000000000000"
          ],
          "data": "0x00000000000000000000000000000000000000000000002804046187ed63090e",
          "blockHash": "0x2f70d81b521038a71ad940005036db364af335016054281d3c6d86c7f60a5091",
          "blockNumber": "0x725476",
          "transactionHash": "0xe74e670d5a22960c98e4e79c44e318ceb8431bbbdd83da5dc128ce2b7dc85b91",
          "transactionIndex": "0x4a",
          "logIndex": "0x82",
          "removed": false
        },
        {
          "address": "0x270e88f8683660553e8ba4eb2ad7c91a1710d769",
          "topics": [
            "0x4afcb4a87cdbd9974efdb92ee48bc8d7cd0ae4bf217004db3d080cbaee652ca7"
          ],
          "data": "0x000000000000000000000000000000000000000000000000000000006786e7900000000000000000000000000000000000000000000000000004c7c89ea26f870000000000000000000000000000000000000000000000000dc8284f33d8edfa",
          "blockHash": "0x2f70d81b521038a71ad940005036db364af335016054281d3c6d86c7f60a5091",
          "blockNumber": "0x725476",
          "transactionHash": "0xe74e670d5a22960c98e4e79c44e318ceb8431bbbdd83da5dc128ce2b7dc85b91",
          "transactionIndex": "0x4a",
          "logIndex": "0x83",
          "removed": false
        }
      ],
      "logsBloom": "0x00000000000000000000000000000000000000000000000000000000000000000000000000000000000000000000000020000000000000004000000000000000000000000000000000000008000000000000000000000000000000000000000000000000020000000000000000000800020000000000000000000010000000000000000000010000000000000000000000000000000000000000010000000000000000000000000000000000000000004000000000000000000000000000000000000002000000800000000000000000000000000000080000008000000020000000000000000000000000000000000000000000000000000000000000000000",
      "type": "0x2",
      "transactionHash": "0xe74e670d5a22960c98e4e79c44e318ceb8431bbbdd83da5dc128ce2b7dc85b91",
      "transactionIndex": "0x4a",
      "blockHash": "0x2f70d81b521038a71ad940005036db364af335016054281d3c6d86c7f60a5091",
      "blockNumber": "0x725476",
      "gasUsed": "0xfb93",
      "effectiveGasPrice": "0x14056a675",
      "from": "0xc77f7fed3b5cc8249adc428c5f44c9063b9734b4",
      "to": "0x270e88f8683660553e8ba4eb2ad7c91a1710d769",
      "contractAddress": null
    }
  ],
  "libraries": [],
  "pending": [],
  "returns": {},
  "timestamp": 1736894354,
  "chain": 11155111,
  "commit": "51a374b"
}