{
  "transactions": [
    {
      "hash": "0xe3dcf59a7f174b38cb14e2d693dd70803006d2ebe9e41998559a46a49db9edd9",
      "transactionType": "CALL",
      "contractName": null,
      "contractAddress": "0x270e88f8683660553e8ba4eb2ad7c91a1710d769",
      "function": "sell(uint256)",
      "arguments": [
        "10000000000000000000"
      ],
      "transaction": {
        "from": "0xc77f7fed3b5cc8249adc428c5f44c9063b9734b4",
        "to": "0x270e88f8683660553e8ba4eb2ad7c91a1710d769",
        "gas": "0x1d169",
        "value": "0x0",
        "input": "0xe4849b320000000000000000000000000000000000000000000000008ac7230489e80000",
        "nonce": "0x4d3",
        "chainId": "0xaa36a7"
      },
      "additionalContracts": [],
      "isFixedGasLimit": false
    }
  ],
  "receipts": [
    {
      "status": "0x1",
      "cumulativeGasUsed": "0xc86363",
      "logs": [
        {
          "address": "0x270e88f8683660553e8ba4eb2ad7c91a1710d769",
          "topics": [
            "0xddf252ad1be2c89b69c2b068fc378daa952ba7f163c4a11628f55a4df523b3ef",
            "0x000000000000000000000000c77f7fed3b5cc8249adc428c5f44c9063b9734b4",
            "0x0000000000000000000000000000000000000000000000000000000000000000"
          ],
          "data": "0x0000000000000000000000000000000000000000000000008ac7230489e80000",
          "blockHash": "0x7a91cb4bccc00c54410978cb4bff010c1a9377bec86b51de50306e554971bee5",
          "blockNumber": "0x725145",
          "transactionHash": "0xe3dcf59a7f174b38cb14e2d693dd70803006d2ebe9e41998559a46a49db9edd9",
          "transactionIndex": "0x42",
          "logIndex": "0xfa",
          "removed": false
        },
        {
          "address": "0x270e88f8683660553e8ba4eb2ad7c91a1710d769",
          "topics": [
            "0x4afcb4a87cdbd9974efdb92ee48bc8d7cd0ae4bf217004db3d080cbaee652ca7"
          ],
          "data": "0x000000000000000000000000000000000000000000000000000000006786c12000000000000000000000000000000000000000000000000000038d7f20f3a4d5000000000000000000000000000000000000000000000000002386f26fc0ffff",
          "blockHash": "0x7a91cb4bccc00c54410978cb4bff010c1a9377bec86b51de50306e554971bee5",
          "blockNumber": "0x725145",
          "transactionHash": "0xe3dcf59a7f174b38cb14e2d693dd70803006d2ebe9e41998559a46a49db9edd9",
          "transactionIndex": "0x42",
          "logIndex": "0xfb",
          "removed": false
        }
      ],
      "logsBloom": "0x00000000000000000000000000000000000000000000000000000000000000000000000000000000000000000000000020000000000000004000000000000000000000000000000000000008000000000000000000000000000000000000000000000000020000000000000000000800020000000000000000000010000000000000000000010000000000000000000000000000000000000000010000000000000000000000000000000000000000004000000000000000000000000000000000000002000000800000000000000000000000000000080000008000000020000000000000000000000000000000000000000000000000000000000000000000",
      "type": "0x2",
      "transactionHash": "0xe3dcf59a7f174b38cb14e2d693dd70803006d2ebe9e41998559a46a49db9edd9",
      "transactionIndex": "0x42",
      "blockHash": "0x7a91cb4bccc00c54410978cb4bff010c1a9377bec86b51de50306e554971bee5",
      "blockNumber": "0x725145",
      "gasUsed": "0x13e3b",
      "effectiveGasPrice": "0x363d00a5a",
      "from": "0xc77f7fed3b5cc8249adc428c5f44c9063b9734b4",
      "to": "0x270e88f8683660553e8ba4eb2ad7c91a1710d769",
      "contractAddress": null
    }
  ],
  "libraries": [],
  "pending": [],
  "returns": {},
  "timestamp": 1736884513,
  "chain": 11155111,
  "commit": "51a374b"
}