{
  "transactions": [
    {
      "hash": "0xeb590eaf1be0460fe658fd7c0885b6df560d2dc089babbf3f69631a1a6be1d50",
      "transactionType": "CALL",
      "contractName": null,
      "contractAddress": "0x5eb9cc76c3506942c1c0ead70e877dd5e4f00cb0",
      "function": "buy(address)",
      "arguments": [
        "0xC77f7fed3b5Cc8249aDc428c5F44C9063B9734b4"
      ],
      "transaction": {
        "from": "0xc77f7fed3b5cc8249adc428c5f44c9063b9734b4",
        "to": "0x5eb9cc76c3506942c1c0ead70e877dd5e4f00cb0",
        "gas": "0x1b30c",
        "value": "0xde0b6b3a7640000",
        "input": "0xf088d547000000000000000000000000c77f7fed3b5cc8249adc428c5f44c9063b9734b4",
        "nonce": "0x3f0",
        "chainId": "0xaa36a7"
      },
      "additionalContracts": [],
      "isFixedGasLimit": false
    }
  ],
  "receipts": [
    {
      "status": "0x1",
      "cumulativeGasUsed": "0xd56d5c",
      "logs": [
        {
          "address": "0x5eb9cc76c3506942c1c0ead70e877dd5e4f00cb0",
          "topics": [
            "0xddf252ad1be2c89b69c2b068fc378daa952ba7f163c4a11628f55a4df523b3ef",
            "0x0000000000000000000000000000000000000000000000000000000000000000",
            "0x000000000000000000000000c77f7fed3b5cc8249adc428c5f44c9063b9734b4"
          ],
          "data": "0x000000000000000000000000000000000000000000000035750b404fa3c81ffd",
          "blockHash": "0x7daec4ce6a1417bc4bab1b39d31d3b32f160180d177f5a05ba62488b15692c23",
          "blockNumber": "0x724ff6",
          "transactionHash": "0xeb590eaf1be0460fe658fd7c0885b6df560d2dc089babbf3f69631a1a6be1d50",
          "transactionIndex": "0x4c",
          "logIndex": "0x8e",
          "removed": false
        },
        {
          "address": "0x5eb9cc76c3506942c1c0ead70e877dd5e4f00cb0",
          "topics": [
            "0xddf252ad1be2c89b69c2b068fc378daa952ba7f163c4a11628f55a4df523b3ef",
            "0x0000000000000000000000000000000000000000000000000000000000000000",
            "0x000000000000000000000000c77f7fed3b5cc8249adc428c5f44c9063b9734b4"
          ],
          "data": "0x0000000000000000000000000000000000000000000000002982e746ae54ec51",
          "blockHash": "0x7daec4ce6a1417bc4bab1b39d31d3b32f160180d177f5a05ba62488b15692c23",
          "blockNumber": "0x724ff6",
          "transactionHash": "0xeb590eaf1be0460fe658fd7c0885b6df560d2dc089babbf3f69631a1a6be1d50",
          "transactionIndex": "0x4c",
          "logIndex": "0x8f",
          "removed": false
        },
        {
          "address": "0x5eb9cc76c3506942c1c0ead70e877dd5e4f00cb0",
          "topics": [
            "0x4afcb4a87cdbd9974efdb92ee48bc8d7cd0ae4bf217004db3d080cbaee652ca7"
          ],
          "data": "0x000000000000000000000000000000000000000000000000000000006786b15400000000000000000000000000000000000000000000000000039114d25372c00000000000000000000000000000000000000000000000000de0b6b3a7640000",
          "blockHash": "0x7daec4ce6a1417bc4bab1b39d31d3b32f160180d177f5a05ba62488b15692c23",
          "blockNumber": "0x724ff6",
          "transactionHash": "0xeb590eaf1be0460fe658fd7c0885b6df560d2dc089babbf3f69631a1a6be1d50",
          "transactionIndex": "0x4c",
          "logIndex": "0x90",
          "removed": false
        }
      ],
      "logsBloom": "0x00000000000000000000000000000000000000000000000000000000000000000000000000000000000000000000000000000000000000004000000000000000000000000000000000000008000000000000000000000000000000000000000000000000020000000000000004000800020000000000000000000010000000000000000000000000000000000000000000000000000000000000010000000000000000000000000000000000000000004000000000000000000000000000020000000002000000800000008000000000000000000000080000000000000020000000000000000000000000000000000000000000000000000000000000000000",
      "type": "0x2",
      "transactionHash": "0xeb590eaf1be0460fe658fd7c0885b6df560d2dc089babbf3f69631a1a6be1d50",
      "transactionIndex": "0x4c",
      "blockHash": "0x7daec4ce6a1417bc4bab1b39d31d3b32f160180d177f5a05ba62488b15692c23",
      "blockNumber": "0x724ff6",
      "gasUsed": "0x13af8",
      "effectiveGasPrice": "0x3940507db",
      "from": "0xc77f7fed3b5cc8249adc428c5f44c9063b9734b4",
      "to": "0x5eb9cc76c3506942c1c0ead70e877dd5e4f00cb0",
      "contractAddress": null
    }
  ],
  "libraries": [],
  "pending": [],
  "returns": {},
  "timestamp": 1736880470,
  "chain": 11155111,
  "commit": "51a374b"
}