{
  "transactions": [
    {
      "hash": "0xe7c69b6c55fc80283222579a9865bd080dada3d95571139f39f1a14f2f4e5316",
      "transactionType": "CALL",
      "contractName": null,
      "contractAddress": "0x270e88f8683660553e8ba4eb2ad7c91a1710d769",
      "function": "buy(address)",
      "arguments": [
        "0xC77f7fed3b5Cc8249aDc428c5F44C9063B9734b4"
      ],
      "transaction": {
        "from": "0xc77f7fed3b5cc8249adc428c5f44c9063b9734b4",
        "to": "0x270e88f8683660553e8ba4eb2ad7c91a1710d769",
        "gas": "0x1b30c",
        "value": "0xde0b6b3a7640000",
        "input": "0xf088d547000000000000000000000000c77f7fed3b5cc8249adc428c5f44c9063b9734b4",
        "nonce": "0x4f6",
        "chainId": "0xaa36a7"
      },
      "additionalContracts": [],
      "isFixedGasLimit": false
    }
  ],
  "receipts": [
    {
      "status": "0x1",
      "cumulativeGasUsed": "0x7bd889",
      "logs": [
        {
          "address": "0x270e88f8683660553e8ba4eb2ad7c91a1710d769",
          "topics": [
            "0xddf252ad1be2c89b69c2b068fc378daa952ba7f163c4a11628f55a4df523b3ef",
            "0x0000000000000000000000000000000000000000000000000000000000000000",
            "0x000000000000000000000000c77f7fed3b5cc8249adc428c5f44c9063b9734b4"
          ],
          "data": "0x000000000000000000000000000000000000000000000035604561b3a44e47c8",
          "blockHash": "0xc53546b546493e97473f311eb6c1b7afa13bc119126c2139b909fb60cc1aea98",
          "blockNumber": "0x725187",
          "transactionHash": "0xe7c69b6c55fc80283222579a9865bd080dada3d95571139f39f1a14f2f4e5316",
          "transactionIndex": "0x49",
          "logIndex": "0x83",
          "removed": false
        },
        {
          "address": "0x270e88f8683660553e8ba4eb2ad7c91a1710d769",
          "topics": [
            "0xddf252ad1be2c89b69c2b068fc378daa952ba7f163c4a11628f55a4df523b3ef",
            "0x0000000000000000000000000000000000000000000000000000000000000000",
            "0x000000000000000000000000c77f7fed3b5cc8249adc428c5f44c9063b9734b4"
          ],
          "data": "0x0000000000000000000000000000000000000000000000002972c5c4dc49e24a",
          "blockHash": "0xc53546b546493e97473f311eb6c1b7afa13bc119126c2139b909fb60cc1aea98",
          "blockNumber": "0x725187",
          "transactionHash": "0xe7c69b6c55fc80283222579a9865bd080dada3d95571139f39f1a14f2f4e5316",
          "transactionIndex": "0x49",
          "logIndex": "0x84",
          "removed": false
        },
        {
          "address": "0x270e88f8683660553e8ba4eb2ad7c91a1710d769",
          "topics": [
            "0x4afcb4a87cdbd9974efdb92ee48bc8d7cd0ae4bf217004db3d080cbaee652ca7"
          ],
          "data": "0x000000000000000000000000000000000000000000000000000000006786c43800000000000000000000000000000000000000000000000000039292dc35e6ee0000000000000000000000000000000000000000000000000de0b6b3a7640000",
          "blockHash": "0xc53546b546493e97473f311eb6c1b7afa13bc119126c2139b909fb60cc1aea98",
          "blockNumber": "0x725187",
          "transactionHash": "0xe7c69b6c55fc80283222579a9865bd080dada3d95571139f39f1a14f2f4e5316",
          "transactionIndex": "0x49",
          "logIndex": "0x85",
          "removed": false
        }
      ],
      "logsBloom": "0x00000000000000000000000000000000000000000000000000000000000000000000000000000000000000000000000020000000000000004000000000000000000000000000000000000008000000000000000000000000000000000000000000000000020000000000000000000800020000000000000000000010000000000000000000010000000000000000000000000000000000000000010000000000000000000000000000000000000000004000000000000000000000000000000000000002000000800000000000000000000000000000080000008000000020000000000000000000000000000000000000000000000000000000000000000000",
      "type": "0x2",
      "transactionHash": "0xe7c69b6c55fc80283222579a9865bd080dada3d95571139f39f1a14f2f4e5316",
      "transactionIndex": "0x49",
      "blockHash": "0xc53546b546493e97473f311eb6c1b7afa13bc119126c2139b909fb60cc1aea98",
      "blockNumber": "0x725187",
      "gasUsed": "0x13af8",
      "effectiveGasPrice": "0x483840de5",
      "from": "0xc77f7fed3b5cc8249adc428c5f44c9063b9734b4",
      "to": "0x270e88f8683660553e8ba4eb2ad7c91a1710d769",
      "contractAddress": null
    }
  ],
  "libraries": [],
  "pending": [],
  "returns": {},
  "timestamp": 1736885306,
  "chain": 11155111,
  "commit": "51a374b"
}