{
  "transactions": [
    {
      "hash": "0x2e077c256617436fb1ca6437bfd13df0db7ec54c93e785d48a3da6febf348d08",
      "transactionType": "CALL",
      "contractName": null,
      "contractAddress": "0x8aafd3ede9adb0ff97c7aebce82a919afb1c8764",
      "function": "sell(uint256)",
      "arguments": [
        "12009"
      ],
      "transaction": {
        "from": "0xc77f7fed3b5cc8249adc428c5f44c9063b9734b4",
        "to": "0x8aafd3ede9adb0ff97c7aebce82a919afb1c8764",
        "gas": "0x14e4c",
        "value": "0x0",
        "input": "0xe4849b320000000000000000000000000000000000000000000000000000000000002ee9",
        "nonce": "0x103f",
        "chainId": "0xaa36a7"
      },
      "additionalContracts": [],
      "isFixedGasLimit": false
    }
  ],
  "receipts": [
    {
      "status": "0x1",
      "cumulativeGasUsed": "0x11acf7f",
      "logs": [
        {
          "address": "0x8aafd3ede9adb0ff97c7aebce82a919afb1c8764",
          "topics": [
            "0xddf252ad1be2c89b69c2b068fc378daa952ba7f163c4a11628f55a4df523b3ef",
            "0x000000000000000000000000c77f7fed3b5cc8249adc428c5f44c9063b9734b4",
            "0x0000000000000000000000000000000000000000000000000000000000000000"
          ],
          "data": "0x0000000000000000000000000000000000000000000000000000000000002e89",
          "blockHash": "0x1d25ae3c8cde37b3393a9262ec972c5fdde7c9c67ffd9d2edceb9ee1df47d474",
          "blockNumber": "0x7316bf",
          "transactionHash": "0x2e077c256617436fb1ca6437bfd13df0db7ec54c93e785d48a3da6febf348d08",
          "transactionIndex": "0x88",
          "logIndex": "0xc4",
          "removed": false
        },
        {
          "address": "0x8aafd3ede9adb0ff97c7aebce82a919afb1c8764",
          "topics": [
            "0xddf252ad1be2c89b69c2b068fc378daa952ba7f163c4a11628f55a4df523b3ef",
            "0x000000000000000000000000c77f7fed3b5cc8249adc428c5f44c9063b9734b4",
            "0x000000000000000000000000c77f7fed3b5cc8249adc428c5f44c9063b9734b4"
          ],
          "data": "0x0000000000000000000000000000000000000000000000000000000000000060",
          "blockHash": "0x1d25ae3c8cde37b3393a9262ec972c5fdde7c9c67ffd9d2edceb9ee1df47d474",
          "blockNumber": "0x7316bf",
          "transactionHash": "0x2e077c256617436fb1ca6437bfd13df0db7ec54c93e785d48a3da6febf348d08",
          "transactionIndex": "0x88",
          "logIndex": "0xc5",
          "removed": false
        },
        {
          "address": "0x8aafd3ede9adb0ff97c7aebce82a919afb1c8764",
          "topics": [
            "0x4afcb4a87cdbd9974efdb92ee48bc8d7cd0ae4bf217004db3d080cbaee652ca7"
          ],
          "data": "0x0000000000000000000000000000000000000000000000000000000067900dac0000000000000000000000000000000000000000000000000004ef1cc9407a6a0000000000000000000000000000000000000000000000000000000000000010",
          "blockHash": "0x1d25ae3c8cde37b3393a9262ec972c5fdde7c9c67ffd9d2edceb9ee1df47d474",
          "blockNumber": "0x7316bf",
          "transactionHash": "0x2e077c256617436fb1ca6437bfd13df0db7ec54c93e785d48a3da6febf348d08",
          "transactionIndex": "0x88",
          "logIndex": "0xc6",
          "removed": false
        }
      ],
      "logsBloom": "0x00000000000000000000000000000000000000000600000000000000000000000000000000000000000000000000000000000000000000004000000000000000000000000000004000000008000000000000000000000000000000000000000000000000020000000000000000000800020000000000000000000010000000000000000000000000000000000000000000000000000000000000010000000000000000000000000000000000000000004000000000000000000000000000000000000002000000800000000000000000000000000000080000000000000020000000000000000000000000000000000000000000000000000000000000000000",
      "type": "0x2",
      "transactionHash": "0x2e077c256617436fb1ca6437bfd13df0db7ec54c93e785d48a3da6febf348d08",
      "transactionIndex": "0x88",
      "blockHash": "0x1d25ae3c8cde37b3393a9262ec972c5fdde7c9c67ffd9d2edceb9ee1df47d474",
      "blockNumber": "0x7316bf",
      "gasUsed": "0xf207",
      "effectiveGasPrice": "0x4691b658",
      "from": "0xc77f7fed3b5cc8249adc428c5f44c9063b9734b4",
      "to": "0x8aafd3ede9adb0ff97c7aebce82a919afb1c8764",
      "contractAddress": null
    }
  ],
  "libraries": [],
  "pending": [],
  "returns": {},
  "timestamp": 1737493934,
  "chain": 11155111,
  "commit": "1d2fb70"
}