{
  "transactions": [
    {
      "hash": "0xbf3970c4f141315a3799fd241f3557f39a0e81678631a06ff7dddf7b4c286995",
      "transactionType": "CALL",
      "contractName": null,
      "contractAddress": "0x8aafd3ede9adb0ff97c7aebce82a919afb1c8764",
      "function": "sell(uint256)",
      "arguments": [
        "12093"
      ],
      "transaction": {
        "from": "0xc77f7fed3b5cc8249adc428c5f44c9063b9734b4",
        "to": "0x8aafd3ede9adb0ff97c7aebce82a919afb1c8764",
        "gas": "0x14e4c",
        "value": "0x0",
        "input": "0xe4849b320000000000000000000000000000000000000000000000000000000000002f3d",
        "nonce": "0x1003",
        "chainId": "0xaa36a7"
      },
      "additionalContracts": [],
      "isFixedGasLimit": false
    }
  ],
  "receipts": [
    {
      "status": "0x1",
      "cumulativeGasUsed": "0xbee65d",
      "logs": [
        {
          "address": "0x8aafd3ede9adb0ff97c7aebce82a919afb1c8764",
          "topics": [
            "0xddf252ad1be2c89b69c2b068fc378daa952ba7f163c4a11628f55a4df523b3ef",
            "0x000000000000000000000000c77f7fed3b5cc8249adc428c5f44c9063b9734b4",
            "0x0000000000000000000000000000000000000000000000000000000000000000"
          ],
          "data": "0x0000000000000000000000000000000000000000000000000000000000002edd",
          "blockHash": "0xdd9a3014ed2e5da0a63a87e08e2e0af14976b4af902447d7eeed1a110799797e",
          "blockNumber": "0x731678",
          "transactionHash": "0xbf3970c4f141315a3799fd241f3557f39a0e81678631a06ff7dddf7b4c286995",
          "transactionIndex": "0x8f",
          "logIndex": "0xad",
          "removed": false
        },
        {
          "address": "0x8aafd3ede9adb0ff97c7aebce82a919afb1c8764",
          "topics": [
            "0xddf252ad1be2c89b69c2b068fc378daa952ba7f163c4a11628f55a4df523b3ef",
            "0x000000000000000000000000c77f7fed3b5cc8249adc428c5f44c9063b9734b4",
            "0x000000000000000000000000c77f7fed3b5cc8249adc428c5f44c9063b9734b4"
          ],
          "data": "0x0000000000000000000000000000000000000000000000000000000000000060",
          "blockHash": "0xdd9a3014ed2e5da0a63a87e08e2e0af14976b4af902447d7eeed1a110799797e",
          "blockNumber": "0x731678",
          "transactionHash": "0xbf3970c4f141315a3799fd241f3557f39a0e81678631a06ff7dddf7b4c286995",
          "transactionIndex": "0x8f",
          "logIndex": "0xae",
          "removed": false
        },
        {
          "address": "0x8aafd3ede9adb0ff97c7aebce82a919afb1c8764",
          "topics": [
            "0x4afcb4a87cdbd9974efdb92ee48bc8d7cd0ae4bf217004db3d080cbaee652ca7"
          ],
          "data": "0x0000000000000000000000000000000000000000000000000000000067900a4c0000000000000000000000000000000000000000000000000004e666702b52360000000000000000000000000000000000000000000000000000000000000010",
          "blockHash": "0xdd9a3014ed2e5da0a63a87e08e2e0af14976b4af902447d7eeed1a110799797e",
          "blockNumber": "0x731678",
          "transactionHash": "0xbf3970c4f141315a3799fd241f3557f39a0e81678631a06ff7dddf7b4c286995",
          "transactionIndex": "0x8f",
          "logIndex": "0xaf",
          "removed": false
        }
      ],
      "logsBloom": "0x00000000000000000000000000000000000000000600000000000000000000000000000000000000000000000000000000000000000000004000000000000000000000000000004000000008000000000000000000000000000000000000000000000000020000000000000000000800020000000000000000000010000000000000000000000000000000000000000000000000000000000000010000000000000000000000000000000000000000004000000000000000000000000000000000000002000000800000000000000000000000000000080000000000000020000000000000000000000000000000000000000000000000000000000000000000",
      "type": "0x2",
      "transactionHash": "0xbf3970c4f141315a3799fd241f3557f39a0e81678631a06ff7dddf7b4c286995",
      "transactionIndex": "0x8f",
      "blockHash": "0xdd9a3014ed2e5da0a63a87e08e2e0af14976b4af902447d7eeed1a110799797e",
      "blockNumber": "0x731678",
      "gasUsed": "0xf207",
      "effectiveGasPrice": "0x3f8cae6e",
      "from": "0xc77f7fed3b5cc8249adc428c5f44c9063b9734b4",
      "to": "0x8aafd3ede9adb0ff97c7aebce82a919afb1c8764",
      "contractAddress": null
    }
  ],
  "libraries": [],
  "pending": [],
  "returns": {},
  "timestamp": 1737493069,
  "chain": 11155111,
  "commit": "1d2fb70"
}