{
  "transactions": [
    {
      "hash": "0xe110908d0cfc4db50d07eac8760369b36a9466d491a4654ef9838a7b1d279a4c",
      "transactionType": "CALL",
      "contractName": null,
      "contractAddress": "0x8aafd3ede9adb0ff97c7aebce82a919afb1c8764",
      "function": "buy(address)",
      "arguments": [
        "0xC77f7fed3b5Cc8249aDc428c5F44C9063B9734b4"
      ],
      "transaction": {
        "from": "0xc77f7fed3b5cc8249adc428c5f44c9063b9734b4",
        "to": "0x8aafd3ede9adb0ff97c7aebce82a919afb1c8764",
        "gas": "0x156ea",
        "value": "0xde0b6b3a7640000",
        "input": "0xf088d547000000000000000000000000c77f7fed3b5cc8249adc428c5f44c9063b9734b4",
        "nonce": "0xf8e",
        "chainId": "0xaa36a7"
      },
      "additionalContracts": [],
      "isFixedGasLimit": false
    }
  ],
  "receipts": [
    {
      "status": "0x1",
      "cumulativeGasUsed": "0xd0246d",
      "logs": [
        {
          "address": "0x8aafd3ede9adb0ff97c7aebce82a919afb1c8764",
          "topics": [
            "0xddf252ad1be2c89b69c2b068fc378daa952ba7f163c4a11628f55a4df523b3ef",
            "0x0000000000000000000000000000000000000000000000000000000000000000",
            "0x000000000000000000000000c77f7fed3b5cc8249adc428c5f44c9063b9734b4"
          ],
          "data": "0x0000000000000000000000000000000000000000000000280ee3a953b54234e1",
          "blockHash": "0x47b67e52264ef8cd0a6300db19702f22ef5feb9a9833dfd3305d495b880e327f",
          "blockNumber": "0x7315f3",
          "transactionHash": "0xe110908d0cfc4db50d07eac8760369b36a9466d491a4654ef9838a7b1d279a4c",
          "transactionIndex": "0x8b",
          "logIndex": "0xe6",
          "removed": false
        },
        {
          "address": "0x8aafd3ede9adb0ff97c7aebce82a919afb1c8764",
          "topics": [
            "0xddf252ad1be2c89b69c2b068fc378daa952ba7f163c4a11628f55a4df523b3ef",
            "0x0000000000000000000000000000000000000000000000000000000000000000",
            "0x000000000000000000000000c77f7fed3b5cc8249adc428c5f44c9063b9734b4"
          ],
          "data": "0x0000000000000000000000000000000000000000000000001f1b45764b7c408c",
          "blockHash": "0x47b67e52264ef8cd0a6300db19702f22ef5feb9a9833dfd3305d495b880e327f",
          "blockNumber": "0x7315f3",
          "transactionHash": "0xe110908d0cfc4db50d07eac8760369b36a9466d491a4654ef9838a7b1d279a4c",
          "transactionIndex": "0x8b",
          "logIndex": "0xe7",
          "removed": false
        },
        {
          "address": "0x8aafd3ede9adb0ff97c7aebce82a919afb1c8764",
          "topics": [
            "0x4afcb4a87cdbd9974efdb92ee48bc8d7cd0ae4bf217004db3d080cbaee652ca7"
          ],
          "data": "0x00000000000000000000000000000000000000000000000000000000679004100000000000000000000000000000000000000000000000000004c2979f2590c70000000000000000000000000000000000000000000000000de0b6b3a7640000",
          "blockHash": "0x47b67e52264ef8cd0a6300db19702f22ef5feb9a9833dfd3305d495b880e327f",
          "blockNumber": "0x7315f3",
          "transactionHash": "0xe110908d0cfc4db50d07eac8760369b36a9466d491a4654ef9838a7b1d279a4c",
          "transactionIndex": "0x8b",
          "logIndex": "0xe8",
          "removed": false
        }
      ],
      "logsBloom": "0x00000000000000000000000000000000000000000600000000000000000000000000000000000000000000000000000000000000000000004000000000000000000000000000004000000008000000000000000000000000000000000000000000000000020000000000000000000800020000000000000000000010000000000000000000000000000000000000000000000000000000000000010000000000000000000000000000000000000000004000000000000000000000000000000000000002000000800000000000000000000000000000080000000000000020000000000000000000000000000000000000000000000000000000000000000000",
      "type": "0x2",
      "transactionHash": "0xe110908d0cfc4db50d07eac8760369b36a9466d491a4654ef9838a7b1d279a4c",
      "transactionIndex": "0x8b",
      "blockHash": "0x47b67e52264ef8cd0a6300db19702f22ef5feb9a9833dfd3305d495b880e327f",
      "blockNumber": "0x7315f3",
      "gasUsed": "0xf844",
      "effectiveGasPrice": "0x6a42af79",
      "from": "0xc77f7fed3b5cc8249adc428c5f44c9063b9734b4",
      "to": "0x8aafd3ede9adb0ff97c7aebce82a919afb1c8764",
      "contractAddress": null
    }
  ],
  "libraries": [],
  "pending": [],
  "returns": {},
  "timestamp": 1737491473,
  "chain": 11155111,
  "commit": "1d2fb70"
}