{
  "transactions": [
    {
      "hash": "0x53de973dd84db0a147126a6f56bba7aaa435cb60e7bd1f498786c434f99fe9fd",
      "transactionType": "CALL",
      "contractName": null,
      "contractAddress": "0x8aafd3ede9adb0ff97c7aebce82a919afb1c8764",
      "function": "buy(address)",
      "arguments": [
        "0xC77f7fed3b5Cc8249aDc428c5F44C9063B9734b4"
      ],
      "transaction": {
        "from": "0xc77f7fed3b5cc8249adc428c5f44c9063b9734b4",
        "to": "0x8aafd3ede9adb0ff97c7aebce82a919afb1c8764",
        "gas": "0x156ea",
        "value": "0xde0b6b3a7640000",
        "input": "0xf088d547000000000000000000000000c77f7fed3b5cc8249adc428c5f44c9063b9734b4",
        "nonce": "0x1176",
        "chainId": "0xaa36a7"
      },
      "additionalContracts": [],
      "isFixedGasLimit": false
    }
  ],
  "receipts": [
    {
      "status": "0x1",
      "cumulativeGasUsed": "0xb2085c",
      "logs": [
        {
          "address": "0x8aafd3ede9adb0ff97c7aebce82a919afb1c8764",
          "topics": [
            "0xddf252ad1be2c89b69c2b068fc378daa952ba7f163c4a11628f55a4df523b3ef",
            "0x0000000000000000000000000000000000000000000000000000000000000000",
            "0x000000000000000000000000c77f7fed3b5cc8249adc428c5f44c9063b9734b4"
          ],
          "data": "0x000000000000000000000000000000000000000000000025502b254cf298c5b5",
          "blockHash": "0xe634c52955791b446ced5ee1f1172e545941e091bf8f43d72fb3c8049bd781af",
          "blockNumber": "0x731836",
          "transactionHash": "0x53de973dd84db0a147126a6f56bba7aaa435cb60e7bd1f498786c434f99fe9fd",
          "transactionIndex": "0x8b",
          "logIndex": "0xac",
          "removed": false
        },
        {
          "address": "0x8aafd3ede9adb0ff97c7aebce82a919afb1c8764",
          "topics": [
            "0xddf252ad1be2c89b69c2b068fc378daa952ba7f163c4a11628f55a4df523b3ef",
            "0x0000000000000000000000000000000000000000000000000000000000000000",
            "0x000000000000000000000000c77f7fed3b5cc8249adc428c5f44c9063b9734b4"
          ],
          "data": "0x0000000000000000000000000000000000000000000000001cf995ae6eed12c7",
          "blockHash": "0xe634c52955791b446ced5ee1f1172e545941e091bf8f43d72fb3c8049bd781af",
          "blockNumber": "0x731836",
          "transactionHash": "0x53de973dd84db0a147126a6f56bba7aaa435cb60e7bd1f498786c434f99fe9fd",
          "transactionIndex": "0x8b",
          "logIndex": "0xad",
          "removed": false
        },
        {
          "address": "0x8aafd3ede9adb0ff97c7aebce82a919afb1c8764",
          "topics": [
            "0x4afcb4a87cdbd9974efdb92ee48bc8d7cd0ae4bf217004db3d080cbaee652ca7"
          ],
          "data": "0x0000000000000000000000000000000000000000000000000000000067901f4c00000000000000000000000000000000000000000000000000051c8c4add5d1f0000000000000000000000000000000000000000000000000de0b6b3a7640000",
          "blockHash": "0xe634c52955791b446ced5ee1f1172e545941e091bf8f43d72fb3c8049bd781af",
          "blockNumber": "0x731836",
          "transactionHash": "0x53de973dd84db0a147126a6f56bba7aaa435cb60e7bd1f498786c434f99fe9fd",
          "transactionIndex": "0x8b",
          "logIndex": "0xae",
          "removed": false
        }
      ],
      "logsBloom": "0x00000000000000000000000000000000000000000600000000000000000000000000000000000000000000000000000000000000000000004000000000000000000000000000004000000008000000000000000000000000000000000000000000000000020000000000000000000800020000000000000000000010000000000000000000000000000000000000000000000000000000000000010000000000000000000000000000000000000000004000000000000000000000000000000000000002000000800000000000000000000000000000080000000000000020000000000000000000000000000000000000000000000000000000000000000000",
      "type": "0x2",
      "transactionHash": "0x53de973dd84db0a147126a6f56bba7aaa435cb60e7bd1f498786c434f99fe9fd",
      "transactionIndex": "0x8b",
      "blockHash": "0xe634c52955791b446ced5ee1f1172e545941e091bf8f43d72fb3c8049bd781af",
      "blockNumber": "0x731836",
      "gasUsed": "0xf844",
      "effectiveGasPrice": "0x3b05ae2a",
      "from": "0xc77f7fed3b5cc8249adc428c5f44c9063b9734b4",
      "to": "0x8aafd3ede9adb0ff97c7aebce82a919afb1c8764",
      "contractAddress": null
    }
  ],
  "libraries": [],
  "pending": [],
  "returns": {},
  "timestamp": 1737498446,
  "chain": 11155111,
  "commit": "1d2fb70"
}