{
  "transactions": [
    {
      "hash": "0xf4d2159a35fa16aa66c9a53a7d996fc3fc286ada03b05466b5d313b7e69941a6",
      "transactionType": "CALL",
      "contractName": null,
      "contractAddress": "0x5eb9cc76c3506942c1c0ead70e877dd5e4f00cb0",
      "function": "buy(address)",
      "arguments": [
        "0xC77f7fed3b5Cc8249aDc428c5F44C9063B9734b4"
      ],
      "transaction": {
        "from": "0xc77f7fed3b5cc8249adc428c5f44c9063b9734b4",
        "to": "0x5eb9cc76c3506942c1c0ead70e877dd5e4f00cb0",
        "gas": "0x1b30c",
        "value": "0xde0b6b3a7640000",
        "input": "0xf088d547000000000000000000000000c77f7fed3b5cc8249adc428c5f44c9063b9734b4",
        "nonce": "0x48e",
        "chainId": "0xaa36a7"
      },
      "additionalContracts": [],
      "isFixedGasLimit": false
    }
  ],
  "receipts": [
    {
      "status": "0x1",
      "cumulativeGasUsed": "0xd44c1f",
      "logs": [
        {
          "address": "0x5eb9cc76c3506942c1c0ead70e877dd5e4f00cb0",
          "topics": [
            "0xddf252ad1be2c89b69c2b068fc378daa952ba7f163c4a11628f55a4df523b3ef",
            "0x0000000000000000000000000000000000000000000000000000000000000000",
            "0x000000000000000000000000c77f7fed3b5cc8249adc428c5f44c9063b9734b4"
          ],
          "data": "0x00000000000000000000000000000000000000000000003574b212eca661dd76",
          "blockHash": "0xffceb5af55a5e02c9943a45664bf413fe9478346aee0fe26b43cc3d1698fc9cd",
          "blockNumber": "0x7250c0",
          "transactionHash": "0xf4d2159a35fa16aa66c9a53a7d996fc3fc286ada03b05466b5d313b7e69941a6",
          "transactionIndex": "0x56",
          "logIndex": "0xbc",
          "removed": false
        },
        {
          "address": "0x5eb9cc76c3506942c1c0ead70e877dd5e4f00cb0",
          "topics": [
            "0xddf252ad1be2c89b69c2b068fc378daa952ba7f163c4a11628f55a4df523b3ef",
            "0x0000000000000000000000000000000000000000000000000000000000000000",
            "0x000000000000000000000000c77f7fed3b5cc8249adc428c5f44c9063b9734b4"
          ],
          "data": "0x0000000000000000000000000000000000000000000000002982a206e22e5867",
          "blockHash": "0xffceb5af55a5e02c9943a45664bf413fe9478346aee0fe26b43cc3d1698fc9cd",
          "blockNumber": "0x7250c0",
          "transactionHash": "0xf4d2159a35fa16aa66c9a53a7d996fc3fc286ada03b05466b5d313b7e69941a6",
          "transactionIndex": "0x56",
          "logIndex": "0xbd",
          "removed": false
        },
        {
          "address": "0x5eb9cc76c3506942c1c0ead70e877dd5e4f00cb0",
          "topics": [
            "0x4afcb4a87cdbd9974efdb92ee48bc8d7cd0ae4bf217004db3d080cbaee652ca7"
          ],
          "data": "0x000000000000000000000000000000000000000000000000000000006786bacc0000000000000000000000000000000000000000000000000003911ac5910d100000000000000000000000000000000000000000000000000de0b6b3a7640000",
          "blockHash": "0xffceb5af55a5e02c9943a45664bf413fe9478346aee0fe26b43cc3d1698fc9cd",
          "blockNumber": "0x7250c0",
          "transactionHash": "0xf4d2159a35fa16aa66c9a53a7d996fc3fc286ada03b05466b5d313b7e69941a6",
          "transactionIndex": "0x56",
          "logIndex": "0xbe",
          "removed": false
        }
      ],
      "logsBloom": "0x00000000000000000000000000000000000000000000000000000000000000000000000000000000000000000000000000000000000000004000000000000000000000000000000000000008000000000000000000000000000000000000000000000000020000000000000004000800020000000000000000000010000000000000000000000000000000000000000000000000000000000000010000000000000000000000000000000000000000004000000000000000000000000000020000000002000000800000008000000000000000000000080000000000000020000000000000000000000000000000000000000000000000000000000000000000",
      "type": "0x2",
      "transactionHash": "0xf4d2159a35fa16aa66c9a53a7d996fc3fc286ada03b05466b5d313b7e69941a6",
      "transactionIndex": "0x56",
      "blockHash": "0xffceb5af55a5e02c9943a45664bf413fe9478346aee0fe26b43cc3d1698fc9cd",
      "blockNumber": "0x7250c0",
      "gasUsed": "0x13af8",
      "effectiveGasPrice": "0x2362ed1e4",
      "from": "0xc77f7fed3b5cc8249adc428c5f44c9063b9734b4",
      "to": "0x5eb9cc76c3506942c1c0ead70e877dd5e4f00cb0",
      "contractAddress": null
    }
  ],
  "libraries": [],
  "pending": [],
  "returns": {},
  "timestamp": 1736882893,
  "chain": 11155111,
  "commit": "51a374b"
}