{
  "transactions": [
    {
      "hash": "0xe3cd21429691a5d79b7c10902da055df25f17c5ac29913c4304fe80d199c3910",
      "transactionType": "CALL",
      "contractName": null,
      "contractAddress": "0x8aafd3ede9adb0ff97c7aebce82a919afb1c8764",
      "function": "sell(uint256)",
      "arguments": [
        "650340510729"
      ],
      "transaction": {
        "from": "0xc77f7fed3b5cc8249adc428c5f44c9063b9734b4",
        "to": "0x8aafd3ede9adb0ff97c7aebce82a919afb1c8764",
        "gas": "0x1722a",
        "value": "0x0",
        "input": "0xe4849b32000000000000000000000000000000000000000000000000000000976b50ac09",
        "nonce": "0x16c5",
        "chainId": "0xaa36a7"
      },
      "additionalContracts": [],
      "isFixedGasLimit": false
    }
  ],
  "receipts": [
    {
      "status": "0x1",
      "cumulativeGasUsed": "0xb5354b",
      "logs": [
        {
          "address": "0x8aafd3ede9adb0ff97c7aebce82a919afb1c8764",
          "topics": [
            "0xddf252ad1be2c89b69c2b068fc378daa952ba7f163c4a11628f55a4df523b3ef",
            "0x000000000000000000000000c77f7fed3b5cc8249adc428c5f44c9063b9734b4",
            "0x0000000000000000000000000000000000000000000000000000000000000000"
          ],
          "data": "0x0000000000000000000000000000000000000000000000000000009635356714",
          "blockHash": "0x266be1f49b74a08706380283caf5e70c05699184ef63ad5751f49922b8f33597",
          "blockNumber": "0x731e7f",
          "transactionHash": "0xe3cd21429691a5d79b7c10902da055df25f17c5ac29913c4304fe80d199c3910",
          "transactionIndex": "0x5d",
          "logIndex": "0x9d",
          "removed": false
        },
        {
          "address": "0x8aafd3ede9adb0ff97c7aebce82a919afb1c8764",
          "topics": [
            "0xddf252ad1be2c89b69c2b068fc378daa952ba7f163c4a11628f55a4df523b3ef",
            "0x000000000000000000000000c77f7fed3b5cc8249adc428c5f44c9063b9734b4",
            "0x000000000000000000000000c77f7fed3b5cc8249adc428c5f44c9063b9734b4"
          ],
          "data": "0x00000000000000000000000000000000000000000000000000000001361b44f5",
          "blockHash": "0x266be1f49b74a08706380283caf5e70c05699184ef63ad5751f49922b8f33597",
          "blockNumber": "0x731e7f",
          "transactionHash": "0xe3cd21429691a5d79b7c10902da055df25f17c5ac29913c4304fe80d199c3910",
          "transactionIndex": "0x5d",
          "logIndex": "0x9e",
          "removed": false
        },
        {
          "address": "0x8aafd3ede9adb0ff97c7aebce82a919afb1c8764",
          "topics": [
            "0x4afcb4a87cdbd9974efdb92ee48bc8d7cd0ae4bf217004db3d080cbaee652ca7"
          ],
          "data": "0x0000000000000000000000000000000000000000000000000000000067906adc000000000000000000000000000000000000000000000000001653069610155300000000000000000000000000000000000000000000000000000000f39417b6",
          "blockHash": "0x266be1f49b74a08706380283caf5e70c05699184ef63ad5751f49922b8f33597",
          "blockNumber": "0x731e7f",
          "transactionHash": "0xe3cd21429691a5d79b7c10902da055df25f17c5ac29913c4304fe80d199c3910",
          "transactionIndex": "0x5d",
          "logIndex": "0x9f",
          "removed": false
        }
      ],
      "logsBloom": "0x00000000000000000000000000000000000000000600000000000000000000000000000000000000000000000000000000000000000000004000000000000000000000000000004000000008000000000000000000000000000000000000000000000000020000000000000000000800020000000000000000000010000000000000000000000000000000000000000000000000000000000000010000000000000000000000000000000000000000004000000000000000000000000000000000000002000000800000000000000000000000000000080000000000000020000000000000000000000000000000000000000000000000000000000000000000",
      "type": "0x2",
      "transactionHash": "0xe3cd21429691a5d79b7c10902da055df25f17c5ac29913c4304fe80d199c3910",
      "transactionIndex": "0x5d",
      "blockHash": "0x266be1f49b74a08706380283caf5e70c05699184ef63ad5751f49922b8f33597",
      "blockNumber": "0x731e7f",
      "gasUsed": "0xfd1b",
      "effectiveGasPrice": "0x454a7989",
      "from": "0xc77f7fed3b5cc8249adc428c5f44c9063b9734b4",
      "to": "0x8aafd3ede9adb0ff97c7aebce82a919afb1c8764",
      "contractAddress": null
    }
  ],
  "libraries": [],
  "pending": [],
  "returns": {},
  "timestamp": 1737517788,
  "chain": 11155111,
  "commit": "1d2fb70"
}