{
  "transactions": [
    {
      "hash": "0x604162953c37434829f5f02ed4f3e7511769db3a60d74993857ee5a149bad3d9",
      "transactionType": "CALL",
      "contractName": null,
      "contractAddress": "0x270e88f8683660553e8ba4eb2ad7c91a1710d769",
      "function": "sell(uint256)",
      "arguments": [
        "939509874528860788182"
      ],
      "transaction": {
        "from": "0xc77f7fed3b5cc8249adc428c5f44c9063b9734b4",
        "to": "0x270e88f8683660553e8ba4eb2ad7c91a1710d769",
        "gas": "0x16fec",
        "value": "0x0",
        "input": "0xe4849b32000000000000000000000000000000000000000000000032ee519525b89055d6",
        "nonce": "0x637",
        "chainId": "0xaa36a7"
      },
      "additionalContracts": [],
      "isFixedGasLimit": false
    }
  ],
  "receipts": [
    {
      "status": "0x1",
      "cumulativeGasUsed": "0xa3a349",
      "logs": [
        {
          "address": "0x270e88f8683660553e8ba4eb2ad7c91a1710d769",
          "topics": [
            "0xddf252ad1be2c89b69c2b068fc378daa952ba7f163c4a11628f55a4df523b3ef",
            "0x000000000000000000000000c77f7fed3b5cc8249adc428c5f44c9063b9734b4",
            "0x0000000000000000000000000000000000000000000000000000000000000000"
          ],
          "data": "0x000000000000000000000000000000000000000000000032ee519525b89055d6",
          "blockHash": "0xb1cddf68c926c5f7b4ff0d988160c209238514814f4edf658d6d4f6227217edc",
          "blockNumber": "0x72530a",
          "transactionHash": "0x604162953c37434829f5f02ed4f3e7511769db3a60d74993857ee5a149bad3d9",
          "transactionIndex": "0x53",
          "logIndex": "0xcf",
          "removed": false
        },
        {
          "address": "0x270e88f8683660553e8ba4eb2ad7c91a1710d769",
          "topics": [
            "0x4afcb4a87cdbd9974efdb92ee48bc8d7cd0ae4bf217004db3d080cbaee652ca7"
          ],
          "data": "0x000000000000000000000000000000000000000000000000000000006786d6800000000000000000000000000000000000000000000000000003c1924a69f9480000000000000000000000000000000000000000000000000dc83d148e51c7c4",
          "blockHash": "0xb1cddf68c926c5f7b4ff0d988160c209238514814f4edf658d6d4f6227217edc",
          "blockNumber": "0x72530a",
          "transactionHash": "0x604162953c37434829f5f02ed4f3e7511769db3a60d74993857ee5a149bad3d9",
          "transactionIndex": "0x53",
          "logIndex": "0xd0",
          "removed": false
        }
      ],
      "logsBloom": "0x00000000000000000000000000000000000000000000000000000000000000000000000000000000000000000000000020000000000000004000000000000000000000000000000000000008000000000000000000000000000000000000000000000000020000000000000000000800020000000000000000000010000000000000000000010000000000000000000000000000000000000000010000000000000000000000000000000000000000004000000000000000000000000000000000000002000000800000000000000000000000000000080000008000000020000000000000000000000000000000000000000000000000000000000000000000",
      "type": "0x2",
      "transactionHash": "0x604162953c37434829f5f02ed4f3e7511769db3a60d74993857ee5a149bad3d9",
      "transactionIndex": "0x53",
      "blockHash": "0xb1cddf68c926c5f7b4ff0d988160c209238514814f4edf658d6d4f6227217edc",
      "blockNumber": "0x72530a",
      "gasUsed": "0xfb93",
      "effectiveGasPrice": "0x282babdae",
      "from": "0xc77f7fed3b5cc8249adc428c5f44c9063b9734b4",
      "to": "0x270e88f8683660553e8ba4eb2ad7c91a1710d769",
      "contractAddress": null
    }
  ],
  "libraries": [],
  "pending": [],
  "returns": {},
  "timestamp": 1736889986,
  "chain": 11155111,
  "commit": "51a374b"
}