{
  "transactions": [
    {
      "hash": "0x66940f9470f2898725258808c093ab95d34a08f8874d2b23f26b247c25a9b6fe",
      "transactionType": "CALL",
      "contractName": null,
      "contractAddress": "0x8aafd3ede9adb0ff97c7aebce82a919afb1c8764",
      "function": "sell(uint256)",
      "arguments": [
        "1346476493047781564"
      ],
      "transaction": {
        "from": "0xc77f7fed3b5cc8249adc428c5f44c9063b9734b4",
        "to": "0x8aafd3ede9adb0ff97c7aebce82a919afb1c8764",
        "gas": "0x15dca",
        "value": "0x0",
        "input": "0xe4849b3200000000000000000000000000000000000000000000000012afa53c8a86d8bc",
        "nonce": "0x1656",
        "chainId": "0xaa36a7"
      },
      "additionalContracts": [],
      "isFixedGasLimit": false
    }
  ],
  "receipts": [
    {
      "status": "0x1",
      "cumulativeGasUsed": "0x9bdbde",
      "logs": [
        {
          "address": "0x8aafd3ede9adb0ff97c7aebce82a919afb1c8764",
          "topics": [
            "0xddf252ad1be2c89b69c2b068fc378daa952ba7f163c4a11628f55a4df523b3ef",
            "0x000000000000000000000000c77f7fed3b5cc8249adc428c5f44c9063b9734b4",
            "0x0000000000000000000000000000000000000000000000000000000000000000"
          ],
          "data": "0x00000000000000000000000000000000000000000000000012896054a1fe9990",
          "blockHash": "0x2e62725159b69823dee24cac64aa1a7ee39ab1fa05abcaf35b5130d7be581f6a",
          "blockNumber": "0x731df5",
          "transactionHash": "0x66940f9470f2898725258808c093ab95d34a08f8874d2b23f26b247c25a9b6fe",
          "transactionIndex": "0x7b",
          "logIndex": "0x99",
          "removed": false
        },
        {
          "address": "0x8aafd3ede9adb0ff97c7aebce82a919afb1c8764",
          "topics": [
            "0xddf252ad1be2c89b69c2b068fc378daa952ba7f163c4a11628f55a4df523b3ef",
            "0x000000000000000000000000c77f7fed3b5cc8249adc428c5f44c9063b9734b4",
            "0x000000000000000000000000c77f7fed3b5cc8249adc428c5f44c9063b9734b4"
          ],
          "data": "0x000000000000000000000000000000000000000000000000002644e7e8883f2c",
          "blockHash": "0x2e62725159b69823dee24cac64aa1a7ee39ab1fa05abcaf35b5130d7be581f6a",
          "blockNumber": "0x731df5",
          "transactionHash": "0x66940f9470f2898725258808c093ab95d34a08f8874d2b23f26b247c25a9b6fe",
          "transactionIndex": "0x7b",
          "logIndex": "0x9a",
          "removed": false
        },
        {
          "address": "0x8aafd3ede9adb0ff97c7aebce82a919afb1c8764",
          "topics": [
            "0x4afcb4a87cdbd9974efdb92ee48bc8d7cd0ae4bf217004db3d080cbaee652ca7"
          ],
          "data": "0x0000000000000000000000000000000000000000000000000000000067906464000000000000000000000000000000000000000000000000001510b6385393e4000000000000000000000000000000000000000000000000001c5cf1bb4a9e29",
          "blockHash": "0x2e62725159b69823dee24cac64aa1a7ee39ab1fa05abcaf35b5130d7be581f6a",
          "blockNumber": "0x731df5",
          "transactionHash": "0x66940f9470f2898725258808c093ab95d34a08f8874d2b23f26b247c25a9b6fe",
          "transactionIndex": "0x7b",
          "logIndex": "0x9b",
          "removed": false
        }
      ],
      "logsBloom": "0x00000000000000000000000000000000000000000600000000000000000000000000000000000000000000000000000000000000000000004000000000000000000000000000004000000008000000000000000000000000000000000000000000000000020000000000000000000800020000000000000000000010000000000000000000000000000000000000000000000000000000000000010000000000000000000000000000000000000000004000000000000000000000000000000000000002000000800000000000000000000000000000080000000000000020000000000000000000000000000000000000000000000000000000000000000000",
      "type": "0x2",
      "transactionHash": "0x66940f9470f2898725258808c093ab95d34a08f8874d2b23f26b247c25a9b6fe",
      "transactionIndex": "0x7b",
      "blockHash": "0x2e62725159b69823dee24cac64aa1a7ee39ab1fa05abcaf35b5130d7be581f6a",
      "blockNumber": "0x731df5",
      "gasUsed": "0xfd3f",
      "effectiveGasPrice": "0x68f73eed",
      "from": "0xc77f7fed3b5cc8249adc428c5f44c9063b9734b4",
      "to": "0x8aafd3ede9adb0ff97c7aebce82a919afb1c8764",
      "contractAddress": null
    }
  ],
  "libraries": [],
  "pending": [],
  "returns": {},
  "timestamp": 1737516134,
  "chain": 11155111,
  "commit": "1d2fb70"
}