{
  "transactions": [
    {
      "hash": "0x09914e80b0aa96dfe5cad105511d029c09e3be675c1a881b55c7a8561e997b55",
      "transactionType": "CALL",
      "contractName": null,
      "contractAddress": "0xbf4a322f1496e5c3d34a9bcdb4c60567b38c7de2",
      "function": "sell(uint256)",
      "arguments": [
        "987153757474657682810"
      ],
      "transaction": {
        "from": "0xc77f7fed3b5cc8249adc428c5f44c9063b9734b4",
        "to": "0xbf4a322f1496e5c3d34a9bcdb4c60567b38c7de2",
        "gas": "0x16fea",
        "value": "0x0",
        "input": "0xe4849b320000000000000000000000000000000000000000000000358382a8422914457a",
        "nonce": "0xa07",
        "chainId": "0xaa36a7"
      },
      "additionalContracts": [],
      "isFixedGasLimit": false
    }
  ],
  "receipts": [
    {
      "status": "0x1",
      "cumulativeGasUsed": "0x7a3b93",
      "logs": [
        {
          "address": "0xbf4a322f1496e5c3d34a9bcdb4c60567b38c7de2",
          "topics": [
            "0xddf252ad1be2c89b69c2b068fc378daa952ba7f163c4a11628f55a4df523b3ef",
            "0x000000000000000000000000c77f7fed3b5cc8249adc428c5f44c9063b9734b4",
            "0x0000000000000000000000000000000000000000000000000000000000000000"
          ],
          "data": "0x0000000000000000000000000000000000000000000000358382a8422914457a",
          "blockHash": "0x17c24ab957e541dcb48414a16b41250af5b97bfdfd76d7056fd7360bab3fceb0",
          "blockNumber": "0x7259c3",
          "transactionHash": "0x09914e80b0aa96dfe5cad105511d029c09e3be675c1a881b55c7a8561e997b55",
          "transactionIndex": "0x5f",
          "logIndex": "0x82",
          "removed": false
        },
        {
          "address": "0xbf4a322f1496e5c3d34a9bcdb4c60567b38c7de2",
          "topics": [
            "0x4afcb4a87cdbd9974efdb92ee48bc8d7cd0ae4bf217004db3d080cbaee652ca7"
          ],
          "data": "0x0000000000000000000000000000000000000000000000000000000067872768000000000000000000000000000000000000000000000000000392e8b6e703e60000000000000000000000000000000000000000000000000dc7e3f2b2e8b4b0",
          "blockHash": "0x17c24ab957e541dcb48414a16b41250af5b97bfdfd76d7056fd7360bab3fceb0",
          "blockNumber": "0x7259c3",
          "transactionHash": "0x09914e80b0aa96dfe5cad105511d029c09e3be675c1a881b55c7a8561e997b55",
          "transactionIndex": "0x5f",
          "logIndex": "0x83",
          "removed": false
        }
      ],
      "logsBloom": "0x00000000000000000000000000000000000000000000000000000000000000000000000000000000000000000000000000000000000000004000000000000000000000000000000000000008000000000000001000000000000000000000000000000000020000000000000000000800020000000000000000000010000000000000000000000000000000000000000000000000000008000000010000000000000000000000000000000000000000004000000000000000000000000000000000000002000000800000000000001000000000000000080000000000000020000000000000000000000000000000000000000000000000000000000000000000",
      "type": "0x2",
      "transactionHash": "0x09914e80b0aa96dfe5cad105511d029c09e3be675c1a881b55c7a8561e997b55",
      "transactionIndex": "0x5f",
      "blockHash": "0x17c24ab957e541dcb48414a16b41250af5b97bfdfd76d7056fd7360bab3fceb0",
      "blockNumber": "0x7259c3",
      "gasUsed": "0xfb91",
      "effectiveGasPrice": "0x368be5a18",
      "from": "0xc77f7fed3b5cc8249adc428c5f44c9063b9734b4",
      "to": "0xbf4a322f1496e5c3d34a9bcdb4c60567b38c7de2",
      "contractAddress": null
    }
  ],
  "libraries": [],
  "pending": [],
  "returns": {},
  "timestamp": 1736910697,
  "chain": 11155111,
  "commit": "51a374b"
}