{
  "transactions": [
    {
      "hash": "0x124b4967b83594c706078f7a901e020aefad55fd2fad5ec641d0184775d3d26b",
      "transactionType": "CALL",
      "contractName": null,
      "contractAddress": "0x270e88f8683660553e8ba4eb2ad7c91a1710d769",
      "function": "sell(uint256)",
      "arguments": [
        "942666120407004858875"
      ],
      "transaction": {
        "from": "0xc77f7fed3b5cc8249adc428c5f44c9063b9734b4",
        "to": "0x270e88f8683660553e8ba4eb2ad7c91a1710d769",
        "gas": "0x16fec",
        "value": "0x0",
        "input": "0xe4849b320000000000000000000000000000000000000000000000331a1ed20d0f21c9fb",
        "nonce": "0x621",
        "chainId": "0xaa36a7"
      },
      "additionalContracts": [],
      "isFixedGasLimit": false
    }
  ],
  "receipts": [
    {
      "status": "0x1",
      "cumulativeGasUsed": "0x115d4ff",
      "logs": [
        {
          "address": "0x270e88f8683660553e8ba4eb2ad7c91a1710d769",
          "topics": [
            "0xddf252ad1be2c89b69c2b068fc378daa952ba7f163c4a11628f55a4df523b3ef",
            "0x000000000000000000000000c77f7fed3b5cc8249adc428c5f44c9063b9734b4",
            "0x0000000000000000000000000000000000000000000000000000000000000000"
          ],
          "data": "0x0000000000000000000000000000000000000000000000331a1ed20d0f21c9fb",
          "blockHash": "0x627e6acbbf65b8219c7ac4581c5b69b62e79e917235c6f21916d53a587f9f0b5",
          "blockNumber": "0x7252f0",
          "transactionHash": "0x124b4967b83594c706078f7a901e020aefad55fd2fad5ec641d0184775d3d26b",
          "transactionIndex": "0x65",
          "logIndex": "0xcf",
          "removed": false
        },
        {
          "address": "0x270e88f8683660553e8ba4eb2ad7c91a1710d769",
          "topics": [
            "0x4afcb4a87cdbd9974efdb92ee48bc8d7cd0ae4bf217004db3d080cbaee652ca7"
          ],
          "data": "0x000000000000000000000000000000000000000000000000000000006786d5480000000000000000000000000000000000000000000000000003be5a562c3aeb0000000000000000000000000000000000000000000000000dc83d67a0b1ba32",
          "blockHash": "0x627e6acbbf65b8219c7ac4581c5b69b62e79e917235c6f21916d53a587f9f0b5",
          "blockNumber": "0x7252f0",
          "transactionHash": "0x124b4967b83594c706078f7a901e020aefad55fd2fad5ec641d0184775d3d26b",
          "transactionIndex": "0x65",
          "logIndex": "0xd0",
          "removed": false
        }
      ],
      "logsBloom": "0x00000000000000000000000000000000000000000000000000000000000000000000000000000000000000000000000020000000000000004000000000000000000000000000000000000008000000000000000000000000000000000000000000000000020000000000000000000800020000000000000000000010000000000000000000010000000000000000000000000000000000000000010000000000000000000000000000000000000000004000000000000000000000000000000000000002000000800000000000000000000000000000080000008000000020000000000000000000000000000000000000000000000000000000000000000000",
      "type": "0x2",
      "transactionHash": "0x124b4967b83594c706078f7a901e020aefad55fd2fad5ec641d0184775d3d26b",
      "transactionIndex": "0x65",
      "blockHash": "0x627e6acbbf65b8219c7ac4581c5b69b62e79e917235c6f21916d53a587f9f0b5",
      "blockNumber": "0x7252f0",
      "gasUsed": "0xfb93",
      "effectiveGasPrice": "0x296ca1742",
      "from": "0xc77f7fed3b5cc8249adc428c5f44c9063b9734b4",
      "to": "0x270e88f8683660553e8ba4eb2ad7c91a1710d769",
      "contractAddress": null
    }
  ],
  "libraries": [],
  "pending": [],
  "returns": {},
  "timestamp": 1736889673,
  "chain": 11155111,
  "commit": "51a374b"
}