{
  "transactions": [
    {
      "hash": "0x3d4578c61b968875f137247c6dbd472b59847aed98a5e1775df12468be153b4c",
      "transactionType": "CALL",
      "contractName": null,
      "contractAddress": "0x8aafd3ede9adb0ff97c7aebce82a919afb1c8764",
      "function": "sell(uint256)",
      "arguments": [
        "72942620"
      ],
      "transaction": {
        "from": "0xc77f7fed3b5cc8249adc428c5f44c9063b9734b4",
        "to": "0x8aafd3ede9adb0ff97c7aebce82a919afb1c8764",
        "gas": "0x15d88",
        "value": "0x0",
        "input": "0xe4849b32000000000000000000000000000000000000000000000000000000000459041c",
        "nonce": "0x138b",
        "chainId": "0xaa36a7"
      },
      "additionalContracts": [],
      "isFixedGasLimit": false
    }
  ],
  "receipts": [
    {
      "status": "0x1",
      "cumulativeGasUsed": "0x11aac3c",
      "logs": [
        {
          "address": "0x8aafd3ede9adb0ff97c7aebce82a919afb1c8764",
          "topics": [
            "0xddf252ad1be2c89b69c2b068fc378daa952ba7f163c4a11628f55a4df523b3ef",
            "0x000000000000000000000000c77f7fed3b5cc8249adc428c5f44c9063b9734b4",
            "0x0000000000000000000000000000000000000000000000000000000000000000"
          ],
          "data": "0x0000000000000000000000000000000000000000000000000000000004501ca8",
          "blockHash": "0x73f3c5e303851315b2b1970574c50f562d077bc4a05662b333aa1142a4713adb",
          "blockNumber": "0x731aaf",
          "transactionHash": "0x3d4578c61b968875f137247c6dbd472b59847aed98a5e1775df12468be153b4c",
          "transactionIndex": "0x8f",
          "logIndex": "0xb8",
          "removed": false
        },
        {
          "address": "0x8aafd3ede9adb0ff97c7aebce82a919afb1c8764",
          "topics": [
            "0xddf252ad1be2c89b69c2b068fc378daa952ba7f163c4a11628f55a4df523b3ef",
            "0x000000000000000000000000c77f7fed3b5cc8249adc428c5f44c9063b9734b4",
            "0x000000000000000000000000c77f7fed3b5cc8249adc428c5f44c9063b9734b4"
          ],
          "data": "0x000000000000000000000000000000000000000000000000000000000008e774",
          "blockHash": "0x73f3c5e303851315b2b1970574c50f562d077bc4a05662b333aa1142a4713adb",
          "blockNumber": "0x731aaf",
          "transactionHash": "0x3d4578c61b968875f137247c6dbd472b59847aed98a5e1775df12468be153b4c",
          "transactionIndex": "0x8f",
          "logIndex": "0xb9",
          "removed": false
        },
        {
          "address": "0x8aafd3ede9adb0ff97c7aebce82a919afb1c8764",
          "topics": [
            "0x4afcb4a87cdbd9974efdb92ee48bc8d7cd0ae4bf217004db3d080cbaee652ca7"
          ],
          "data": "0x0000000000000000000000000000000000000000000000000000000067903d04000000000000000000000000000000000000000000000000000cc7cefd9bd5a10000000000000000000000000000000000000000000000000000000000040103",
          "blockHash": "0x73f3c5e303851315b2b1970574c50f562d077bc4a05662b333aa1142a4713adb",
          "blockNumber": "0x731aaf",
          "transactionHash": "0x3d4578c61b968875f137247c6dbd472b59847aed98a5e1775df12468be153b4c",
          "transactionIndex": "0x8f",
          "logIndex": "0xba",
          "removed": false
        }
      ],
      "logsBloom": "0x00000000000000000000000000000000000000000600000000000000000000000000000000000000000000000000000000000000000000004000000000000000000000000000004000000008000000000000000000000000000000000000000000000000020000000000000000000800020000000000000000000010000000000000000000000000000000000000000000000000000000000000010000000000000000000000000000000000000000004000000000000000000000000000000000000002000000800000000000000000000000000000080000000000000020000000000000000000000000000000000000000000000000000000000000000000",
      "type": "0x2",
      "transactionHash": "0x3d4578c61b968875f137247c6dbd472b59847aed98a5e1775df12468be153b4c",
      "transactionIndex": "0x8f",
      "blockHash": "0x73f3c5e303851315b2b1970574c50f562d077bc4a05662b333aa1142a4713adb",
      "blockNumber": "0x731aaf",
      "gasUsed": "0xfd0f",
      "effectiveGasPrice": "0x5b562ad5",
      "from": "0xc77f7fed3b5cc8249adc428c5f44c9063b9734b4",
      "to": "0x8aafd3ede9adb0ff97c7aebce82a919afb1c8764",
      "contractAddress": null
    }
  ],
  "libraries": [],
  "pending": [],
  "returns": {},
  "timestamp": 1737506053,
  "chain": 11155111,
  "commit": "1d2fb70"
}