{
  "transactions": [
    {
      "hash": "0x2b1b719666547bf755432e665a1589fff3b3e862cfbba6a2652c33b4a5f0e9d3",
      "transactionType": "CALL",
      "contractName": null,
      "contractAddress": "0xbf4a322f1496e5c3d34a9bcdb4c60567b38c7de2",
      "function": "buy(address)",
      "arguments": [
        "0xC77f7fed3b5Cc8249aDc428c5F44C9063B9734b4"
      ],
      "transaction": {
        "from": "0xc77f7fed3b5cc8249adc428c5f44c9063b9734b4",
        "to": "0xbf4a322f1496e5c3d34a9bcdb4c60567b38c7de2",
        "gas": "0x1b309",
        "value": "0xde0b6b3a7640000",
        "input": "0xf088d547000000000000000000000000c77f7fed3b5cc8249adc428c5f44c9063b9734b4",
        "nonce": "0x98c",
        "chainId": "0xaa36a7"
      },
      "additionalContracts": [],
      "isFixedGasLimit": false
    }
  ],
  "receipts": [
    {
      "status": "0x1",
      "cumulativeGasUsed": "0x1e825e7",
      "logs": [
        {
          "address": "0xbf4a322f1496e5c3d34a9bcdb4c60567b38c7de2",
          "topics": [
            "0xddf252ad1be2c89b69c2b068fc378daa952ba7f163c4a11628f55a4df523b3ef",
            "0x0000000000000000000000000000000000000000000000000000000000000000",
            "0x000000000000000000000000c77f7fed3b5cc8249adc428c5f44c9063b9734b4"
          ],
          "data": "0x000000000000000000000000000000000000000000000035711d7f20b3fa9393",
          "blockHash": "0xa935142e3c5747cb4ebc7a6cc11a06b20226b700154601e07e4b3c0979715186",
          "blockNumber": "0x725931",
          "transactionHash": "0x2b1b719666547bf755432e665a1589fff3b3e862cfbba6a2652c33b4a5f0e9d3",
          "transactionIndex": "0xc4",
          "logIndex": "0x101",
          "removed": false
        },
        {
          "address": "0xbf4a322f1496e5c3d34a9bcdb4c60567b38c7de2",
          "topics": [
            "0xddf252ad1be2c89b69c2b068fc378daa952ba7f163c4a11628f55a4df523b3ef",
            "0x0000000000000000000000000000000000000000000000000000000000000000",
            "0x000000000000000000000000c77f7fed3b5cc8249adc428c5f44c9063b9734b4"
          ],
          "data": "0x000000000000000000000000000000000000000000000000297fda45f8c3db44",
          "blockHash": "0xa935142e3c5747cb4ebc7a6cc11a06b20226b700154601e07e4b3c0979715186",
          "blockNumber": "0x725931",
          "transactionHash": "0x2b1b719666547bf755432e665a1589fff3b3e862cfbba6a2652c33b4a5f0e9d3",
          "transactionIndex": "0xc4",
          "logIndex": "0x102",
          "removed": false
        },
        {
          "address": "0xbf4a322f1496e5c3d34a9bcdb4c60567b38c7de2",
          "topics": [
            "0x4afcb4a87cdbd9974efdb92ee48bc8d7cd0ae4bf217004db3d080cbaee652ca7"
          ],
          "data": "0x00000000000000000000000000000000000000000000000000000000678720780000000000000000000000000000000000000000000000000003915a3f3d15280000000000000000000000000000000000000000000000000de0b6b3a7640000",
          "blockHash": "0xa935142e3c5747cb4ebc7a6cc11a06b20226b700154601e07e4b3c0979715186",
          "blockNumber": "0x725931",
          "transactionHash": "0x2b1b719666547bf755432e665a1589fff3b3e862cfbba6a2652c33b4a5f0e9d3",
          "transactionIndex": "0xc4",
          "logIndex": "0x103",
          "removed": false
        }
      ],
      "logsBloom": "0x00000000000000000000000000000000000000000000000000000000000000000000000000000000000000000000000000000000000000004000000000000000000000000000000000000008000000000000001000000000000000000000000000000000020000000000000000000800020000000000000000000010000000000000000000000000000000000000000000000000000008000000010000000000000000000000000000000000000000004000000000000000000000000000000000000002000000800000000000001000000000000000080000000000000020000000000000000000000000000000000000000000000000000000000000000000",
      "type": "0x2",
      "transactionHash": "0x2b1b719666547bf755432e665a1589fff3b3e862cfbba6a2652c33b4a5f0e9d3",
      "transactionIndex": "0xc4",
      "blockHash": "0xa935142e3c5747cb4ebc7a6cc11a06b20226b700154601e07e4b3c0979715186",
      "blockNumber": "0x725931",
      "gasUsed": "0x13af6",
      "effectiveGasPrice": "0x14dbffa3f",
      "from": "0xc77f7fed3b5cc8249adc428c5f44c9063b9734b4",
      "to": "0xbf4a322f1496e5c3d34a9bcdb4c60567b38c7de2",
      "contractAddress": null
    }
  ],
  "libraries": [],
  "pending": [],
  "returns": {},
  "timestamp": 1736908921,
  "chain": 11155111,
  "commit": "51a374b"
}