{
  "transactions": [
    {
      "hash": "0x0ebd34d8c8282ed54e25e5a9c7ed69ddf968fe83cc5317135f03ce49cd406e72",
      "transactionType": "CALL",
      "contractName": null,
      "contractAddress": "0x270e88f8683660553e8ba4eb2ad7c91a1710d769",
      "function": "sell(uint256)",
      "arguments": [
        "977284676855793611583"
      ],
      "transaction": {
        "from": "0xc77f7fed3b5cc8249adc428c5f44c9063b9734b4",
        "to": "0x270e88f8683660553e8ba4eb2ad7c91a1710d769",
        "gas": "0x16fec",
        "value": "0x0",
        "input": "0xe4849b32000000000000000000000000000000000000000000000034fa8ca3b965fe733f",
        "nonce": "0x539",
        "chainId": "0xaa36a7"
      },
      "additionalContracts": [],
      "isFixedGasLimit": false
    }
  ],
  "receipts": [
    {
      "status": "0x1",
      "cumulativeGasUsed": "0x1448d58",
      "logs": [
        {
          "address": "0x270e88f8683660553e8ba4eb2ad7c91a1710d769",
          "topics": [
            "0xddf252ad1be2c89b69c2b068fc378daa952ba7f163c4a11628f55a4df523b3ef",
            "0x000000000000000000000000c77f7fed3b5cc8249adc428c5f44c9063b9734b4",
            "0x0000000000000000000000000000000000000000000000000000000000000000"
          ],
          "data": "0x000000000000000000000000000000000000000000000034fa8ca3b965fe733f",
          "blockHash": "0xb5e424bd7108995dd61b257dbaa8d6e65ba81f9d31a12e958e7949c0e1542e72",
          "blockNumber": "0x7251d4",
          "transactionHash": "0x0ebd34d8c8282ed54e25e5a9c7ed69ddf968fe83cc5317135f03ce49cd406e72",
          "transactionIndex": "0x4a",
          "logIndex": "0xb0",
          "removed": false
        },
        {
          "address": "0x270e88f8683660553e8ba4eb2ad7c91a1710d769",
          "topics": [
            "0x4afcb4a87cdbd9974efdb92ee48bc8d7cd0ae4bf217004db3d080cbaee652ca7"
          ],
          "data": "0x000000000000000000000000000000000000000000000000000000006786c7d400000000000000000000000000000000000000000000000000039c6a4df59b420000000000000000000000000000000000000000000000000dc840f63788340f",
          "blockHash": "0xb5e424bd7108995dd61b257dbaa8d6e65ba81f9d31a12e958e7949c0e1542e72",
          "blockNumber": "0x7251d4",
          "transactionHash": "0x0ebd34d8c8282ed54e25e5a9c7ed69ddf968fe83cc5317135f03ce49cd406e72",
          "transactionIndex": "0x4a",
          "logIndex": "0xb1",
          "removed": false
        }
      ],
      "logsBloom": "0x00000000000000000000000000000000000000000000000000000000000000000000000000000000000000000000000020000000000000004000000000000000000000000000000000000008000000000000000000000000000000000000000000000000020000000000000000000800020000000000000000000010000000000000000000010000000000000000000000000000000000000000010000000000000000000000000000000000000000004000000000000000000000000000000000000002000000800000000000000000000000000000080000008000000020000000000000000000000000000000000000000000000000000000000000000000",
      "type": "0x2",
      "transactionHash": "0x0ebd34d8c8282ed54e25e5a9c7ed69ddf968fe83cc5317135f03ce49cd406e72",
      "transactionIndex": "0x4a",
      "blockHash": "0xb5e424bd7108995dd61b257dbaa8d6e65ba81f9d31a12e958e7949c0e1542e72",
      "blockNumber": "0x7251d4",
      "gasUsed": "0xfb93",
      "effectiveGasPrice": "0x41f6f9edb",
      "from": "0xc77f7fed3b5cc8249adc428c5f44c9063b9734b4",
      "to": "0x270e88f8683660553e8ba4eb2ad7c91a1710d769",
      "contractAddress": null
    }
  ],
  "libraries": [],
  "pending": [],
  "returns": {},
  "timestamp": 1736886229,
  "chain": 11155111,
  "commit": "51a374b"
}