{
  "transactions": [
    {
      "hash": "0x25e9e75ef7dc03c1a755d33eb467f043cc83ca410dea90da9af9146aa3a103ab",
      "transactionType": "CALL",
      "contractName": null,
      "contractAddress": "0x270e88f8683660553e8ba4eb2ad7c91a1710d769",
      "function": "buy(address)",
      "arguments": [
        "0xC77f7fed3b5Cc8249aDc428c5F44C9063B9734b4"
      ],
      "transaction": {
        "from": "0xc77f7fed3b5cc8249adc428c5f44c9063b9734b4",
        "to": "0x270e88f8683660553e8ba4eb2ad7c91a1710d769",
        "gas": "0x1b30c",
        "value": "0xde0b6b3a7640000",
        "input": "0xf088d547000000000000000000000000c77f7fed3b5cc8249adc428c5f44c9063b9734b4",
        "nonce": "0x7cb",
        "chainId": "0xaa36a7"
      },
      "additionalContracts": [],
      "isFixedGasLimit": false
    }
  ],
  "receipts": [
    {
      "status": "0x1",
      "cumulativeGasUsed": "0x10b808c",
      "logs": [
        {
          "address": "0x270e88f8683660553e8ba4eb2ad7c91a1710d769",
          "topics": [
            "0xddf252ad1be2c89b69c2b068fc378daa952ba7f163c4a11628f55a4df523b3ef",
            "0x0000000000000000000000000000000000000000000000000000000000000000",
            "0x000000000000000000000000c77f7fed3b5cc8249adc428c5f44c9063b9734b4"
          ],
          "data": "0x0000000000000000000000000000000000000000000000274fa4151dce5cbc24",
          "blockHash": "0x58940aea5b2e2b5e2e15f9699c5970e212012dc5a7b3d2dcd237c7f6aafd175c",
          "blockNumber": "0x725503",
          "transactionHash": "0x25e9e75ef7dc03c1a755d33eb467f043cc83ca410dea90da9af9146aa3a103ab",
          "transactionIndex": "0x44",
          "logIndex": "0x6c",
          "removed": false
        },
        {
          "address": "0x270e88f8683660553e8ba4eb2ad7c91a1710d769",
          "topics": [
            "0xddf252ad1be2c89b69c2b068fc378daa952ba7f163c4a11628f55a4df523b3ef",
            "0x0000000000000000000000000000000000000000000000000000000000000000",
            "0x000000000000000000000000c77f7fed3b5cc8249adc428c5f44c9063b9734b4"
          ],
          "data": "0x0000000000000000000000000000000000000000000000001e86c2add50805f9",
          "blockHash": "0x58940aea5b2e2b5e2e15f9699c5970e212012dc5a7b3d2dcd237c7f6aafd175c",
          "blockNumber": "0x725503",
          "transactionHash": "0x25e9e75ef7dc03c1a755d33eb467f043cc83ca410dea90da9af9146aa3a103ab",
          "transactionIndex": "0x44",
          "logIndex": "0x6d",
          "removed": false
        },
        {
          "address": "0x270e88f8683660553e8ba4eb2ad7c91a1710d769",
          "topics": [
            "0x4afcb4a87cdbd9974efdb92ee48bc8d7cd0ae4bf217004db3d080cbaee652ca7"
          ],
          "data": "0x000000000000000000000000000000000000000000000000000000006786ee2c0000000000000000000000000000000000000000000000000004d9c22ab473360000000000000000000000000000000000000000000000000de0b6b3a7640000",
          "blockHash": "0x58940aea5b2e2b5e2e15f9699c5970e212012dc5a7b3d2dcd237c7f6aafd175c",
          "blockNumber": "0x725503",
          "transactionHash": "0x25e9e75ef7dc03c1a755d33eb467f043cc83ca410dea90da9af9146aa3a103ab",
          "transactionIndex": "0x44",
          "logIndex": "0x6e",
          "removed": false
        }
      ],
      "logsBloom": "0x00000000000000000000000000000000000000000000000000000000000000000000000000000000000000000000000020000000000000004000000000000000000000000000000000000008000000000000000000000000000000000000000000000000020000000000000000000800020000000000000000000010000000000000000000010000000000000000000000000000000000000000010000000000000000000000000000000000000000004000000000000000000000000000000000000002000000800000000000000000000000000000080000008000000020000000000000000000000000000000000000000000000000000000000000000000",
      "type": "0x2",
      "transactionHash": "0x25e9e75ef7dc03c1a755d33eb467f043cc83ca410dea90da9af9146aa3a103ab",
      "transactionIndex": "0x44",
      "blockHash": "0x58940aea5b2e2b5e2e15f9699c5970e212012dc5a7b3d2dcd237c7f6aafd175c",
      "blockNumber": "0x725503",
      "gasUsed": "0x13af8",
      "effectiveGasPrice": "0xc573fec5",
      "from": "0xc77f7fed3b5cc8249adc428c5f44c9063b9734b4",
      "to": "0x270e88f8683660553e8ba4eb2ad7c91a1710d769",
      "contractAddress": null
    }
  ],
  "libraries": [],
  "pending": [],
  "returns": {},
  "timestamp": 1736896047,
  "chain": 11155111,
  "commit": "51a374b"
}