{
  "transactions": [
    {
      "hash": "0xf5dcb0da2114970d4ed8b525d66377ff0364bdcbdeb397d34d7809518c1c78a7",
      "transactionType": "CALL",
      "contractName": null,
      "contractAddress": "0xbf4a322f1496e5c3d34a9bcdb4c60567b38c7de2",
      "function": "sell(uint256)",
      "arguments": [
        "980200720209914331078"
      ],
      "transaction": {
        "from": "0xc77f7fed3b5cc8249adc428c5f44c9063b9734b4",
        "to": "0xbf4a322f1496e5c3d34a9bcdb4c60567b38c7de2",
        "gas": "0x16fea",
        "value": "0x0",
        "input": "0xe4849b32000000000000000000000000000000000000000000000035230481b475ff7fc6",
        "nonce": "0xc09",
        "chainId": "0xaa36a7"
      },
      "additionalContracts": [],
      "isFixedGasLimit": false
    }
  ],
  "receipts": [
    {
      "status": "0x1",
      "cumulativeGasUsed": "0x50cb2d",
      "logs": [
        {
          "address": "0xbf4a322f1496e5c3d34a9bcdb4c60567b38c7de2",
          "topics": [
            "0xddf252ad1be2c89b69c2b068fc378daa952ba7f163c4a11628f55a4df523b3ef",
            "0x000000000000000000000000c77f7fed3b5cc8249adc428c5f44c9063b9734b4",
            "0x0000000000000000000000000000000000000000000000000000000000000000"
          ],
          "data": "0x000000000000000000000000000000000000000000000035230481b475ff7fc6",
          "blockHash": "0x4f29b3aa7a017d7398417227ff33c082f318827d9ffe159ca8bdf72ce8eb689e",
          "blockNumber": "0x725c34",
          "transactionHash": "0xf5dcb0da2114970d4ed8b525d66377ff0364bdcbdeb397d34d7809518c1c78a7",
          "transactionIndex": "0x38",
          "logIndex": "0x35",
          "removed": false
        },
        {
          "address": "0xbf4a322f1496e5c3d34a9bcdb4c60567b38c7de2",
          "topics": [
            "0x4afcb4a87cdbd9974efdb92ee48bc8d7cd0ae4bf217004db3d080cbaee652ca7"
          ],
          "data": "0x00000000000000000000000000000000000000000000000000000000678744cc0000000000000000000000000000000000000000000000000003996614b888c60000000000000000000000000000000000000000000000000dc7e3e28872bb90",
          "blockHash": "0x4f29b3aa7a017d7398417227ff33c082f318827d9ffe159ca8bdf72ce8eb689e",
          "blockNumber": "0x725c34",
          "transactionHash": "0xf5dcb0da2114970d4ed8b525d66377ff0364bdcbdeb397d34d7809518c1c78a7",
          "transactionIndex": "0x38",
          "logIndex": "0x36",
          "removed": false
        }
      ],
      "logsBloom": "0x00000000000000000000000000000000000000000000000000000000000000000000000000000000000000000000000000000000000000004000000000000000000000000000000000000008000000000000001000000000000000000000000000000000020000000000000000000800020000000000000000000010000000000000000000000000000000000000000000000000000008000000010000000000000000000000000000000000000000004000000000000000000000000000000000000002000000800000000000001000000000000000080000000000000020000000000000000000000000000000000000000000000000000000000000000000",
      "type": "0x2",
      "transactionHash": "0xf5dcb0da2114970d4ed8b525d66377ff0364bdcbdeb397d34d7809518c1c78a7",
      "transactionIndex": "0x38",
      "blockHash": "0x4f29b3aa7a017d7398417227ff33c082f318827d9ffe159ca8bdf72ce8eb689e",
      "blockNumber": "0x725c34",
      "gasUsed": "0xfb91",
      "effectiveGasPrice": "0x11ee19bd1",
      "from": "0xc77f7fed3b5cc8249adc428c5f44c9063b9734b4",
      "to": "0xbf4a322f1496e5c3d34a9bcdb4c60567b38c7de2",
      "contractAddress": null
    }
  ],
  "libraries": [],
  "pending": [],
  "returns": {},
  "timestamp": 1736918221,
  "chain": 11155111,
  "commit": "51a374b"
}