{
  "transactions": [
    {
      "hash": "0xb8e16704de304815e13eccf61361dded6a512e1806baecc6c60f82903cb7ce05",
      "transactionType": "CALL",
      "contractName": null,
      "contractAddress": "0x5eb9cc76c3506942c1c0ead70e877dd5e4f00cb0",
      "function": "sell(uint256)",
      "arguments": [
        "989109560370621770496"
      ],
      "transaction": {
        "from": "0xc77f7fed3b5cc8249adc428c5f44c9063b9734b4",
        "to": "0x5eb9cc76c3506942c1c0ead70e877dd5e4f00cb0",
        "gas": "0x15b6b",
        "value": "0x0",
        "input": "0xe4849b320000000000000000000000000000000000000000000000359ea710a149b2eb00",
        "nonce": "0x3c5",
        "chainId": "0xaa36a7"
      },
      "additionalContracts": [],
      "isFixedGasLimit": false
    }
  ],
  "receipts": [
    {
      "status": "0x1",
      "cumulativeGasUsed": "0xcbe5ea",
      "logs": [
        {
          "address": "0x5eb9cc76c3506942c1c0ead70e877dd5e4f00cb0",
          "topics": [
            "0xddf252ad1be2c89b69c2b068fc378daa952ba7f163c4a11628f55a4df523b3ef",
            "0x000000000000000000000000c77f7fed3b5cc8249adc428c5f44c9063b9734b4",
            "0x0000000000000000000000000000000000000000000000000000000000000000"
          ],
          "data": "0x0000000000000000000000000000000000000000000000359ea710a149b2eb00",
          "blockHash": "0x982bb76b306ad3d9082e2c71839e8782713bf19515634f8df9db8690a0eab776",
          "blockNumber": "0x724fc5",
          "transactionHash": "0xb8e16704de304815e13eccf61361dded6a512e1806baecc6c60f82903cb7ce05",
          "transactionIndex": "0x41",
          "logIndex": "0x67",
          "removed": false
        },
        {
          "address": "0x5eb9cc76c3506942c1c0ead70e877dd5e4f00cb0",
          "topics": [
            "0x4afcb4a87cdbd9974efdb92ee48bc8d7cd0ae4bf217004db3d080cbaee652ca7"
          ],
          "data": "0x000000000000000000000000000000000000000000000000000000006786af080000000000000000000000000000000000000000000000000003911336768f550000000000000000000000000000000000000000000000000dc7db1331f875b0",
          "blockHash": "0x982bb76b306ad3d9082e2c71839e8782713bf19515634f8df9db8690a0eab776",
          "blockNumber": "0x724fc5",
          "transactionHash": "0xb8e16704de304815e13eccf61361dded6a512e1806baecc6c60f82903cb7ce05",
          "transactionIndex": "0x41",
          "logIndex": "0x68",
          "removed": false
        }
      ],
      "logsBloom": "0x00000000000000000000000000000000000000000000000000000000000000000000000000000000000000000000000000000000000000004000000000000000000000000000000000000008000000000000000000000000000000000000000000000000020000000000000004000800020000000000000000000010000000000000000000000000000000000000000000000000000000000000010000000000000000000000000000000000000000004000000000000000000000000000020000000002000000800000008000000000000000000000080000000000000020000000000000000000000000000000000000000000000000000000000000000000",
      "type": "0x2",
      "transactionHash": "0xb8e16704de304815e13eccf61361dded6a512e1806baecc6c60f82903cb7ce05",
      "transactionIndex": "0x41",
      "blockHash": "0x982bb76b306ad3d9082e2c71839e8782713bf19515634f8df9db8690a0eab776",
      "blockNumber": "0x724fc5",
      "gasUsed": "0xfb87",
      "effectiveGasPrice": "0x3e656841f",
      "from": "0xc77f7fed3b5cc8249adc428c5f44c9063b9734b4",
      "to": "0x5eb9cc76c3506942c1c0ead70e877dd5e4f00cb0",
      "contractAddress": null
    }
  ],
  "libraries": [],
  "pending": [],
  "returns": {},
  "timestamp": 1736879881,
  "chain": 11155111,
  "commit": "51a374b"
}