{
  "transactions": [
    {
      "hash": "0x39af07582953126d02ccef246ebfd1c4fbe5e857fc422a23e88f3f90d0a9556c",
      "transactionType": "CALL",
      "contractName": null,
      "contractAddress": "0x5eb9cc76c3506942c1c0ead70e877dd5e4f00cb0",
      "function": "buy(address)",
      "arguments": [
        "0xC77f7fed3b5Cc8249aDc428c5F44C9063B9734b4"
      ],
      "transaction": {
        "from": "0xc77f7fed3b5cc8249adc428c5f44c9063b9734b4",
        "to": "0x5eb9cc76c3506942c1c0ead70e877dd5e4f00cb0",
        "gas": "0x1b30c",
        "value": "0xde0b6b3a7640000",
        "input": "0xf088d547000000000000000000000000c77f7fed3b5cc8249adc428c5f44c9063b9734b4",
        "nonce": "0x2f6",
        "chainId": "0xaa36a7"
      },
      "additionalContracts": [],
      "isFixedGasLimit": false
    }
  ],
  "receipts": [
    {
      "status": "0x1",
      "cumulativeGasUsed": "0x184c022",
      "logs": [
        {
          "address": "0x5eb9cc76c3506942c1c0ead70e877dd5e4f00cb0",
          "topics": [
            "0xddf252ad1be2c89b69c2b068fc378daa952ba7f163c4a11628f55a4df523b3ef",
            "0x0000000000000000000000000000000000000000000000000000000000000000",
            "0x000000000000000000000000c77f7fed3b5cc8249adc428c5f44c9063b9734b4"
          ],
          "data": "0x00000000000000000000000000000000000000000000003575985d2204ffb75d",
          "blockHash": "0x30875342b742076f129bd2f01ef6584d37cd6cc39dd5437328cf187043d9ebd1",
          "blockNumber": "0x724ed7",
          "transactionHash": "0x39af07582953126d02ccef246ebfd1c4fbe5e857fc422a23e88f3f90d0a9556c",
          "transactionIndex": "0x90",
          "logIndex": "0xe6",
          "removed": false
        },
        {
          "address": "0x5eb9cc76c3506942c1c0ead70e877dd5e4f00cb0",
          "topics": [
            "0xddf252ad1be2c89b69c2b068fc378daa952ba7f163c4a11628f55a4df523b3ef",
            "0x0000000000000000000000000000000000000000000000000000000000000000",
            "0x000000000000000000000000c77f7fed3b5cc8249adc428c5f44c9063b9734b4"
          ],
          "data": "0x000000000000000000000000000000000000000000000000298354dad65aa6d7",
          "blockHash": "0x30875342b742076f129bd2f01ef6584d37cd6cc39dd5437328cf187043d9ebd1",
          "blockNumber": "0x724ed7",
          "transactionHash": "0x39af07582953126d02ccef246ebfd1c4fbe5e857fc422a23e88f3f90d0a9556c",
          "transactionIndex": "0x90",
          "logIndex": "0xe7",
          "removed": false
        },
        {
          "address": "0x5eb9cc76c3506942c1c0ead70e877dd5e4f00cb0",
          "topics": [
            "0x4afcb4a87cdbd9974efdb92ee48bc8d7cd0ae4bf217004db3d080cbaee652ca7"
          ],
          "data": "0x000000000000000000000000000000000000000000000000000000006786a3c80000000000000000000000000000000000000000000000000003910b6822954d0000000000000000000000000000000000000000000000000de0b6b3a7640000",
          "blockHash": "0x30875342b742076f129bd2f01ef6584d37cd6cc39dd5437328cf187043d9ebd1",
          "blockNumber": "0x724ed7",
          "transactionHash": "0x39af07582953126d02ccef246ebfd1c4fbe5e857fc422a23e88f3f90d0a9556c",
          "transactionIndex": "0x90",
          "logIndex": "0xe8",
          "removed": false
        }
      ],
      "logsBloom": "0x00000000000000000000000000000000000000000000000000000000000000000000000000000000000000000000000000000000000000004000000000000000000000000000000000000008000000000000000000000000000000000000000000000000020000000000000004000800020000000000000000000010000000000000000000000000000000000000000000000000000000000000010000000000000000000000000000000000000000004000000000000000000000000000020000000002000000800000008000000000000000000000080000000000000020000000000000000000000000000000000000000000000000000000000000000000",
      "type": "0x2",
      "transactionHash": "0x39af07582953126d02ccef246ebfd1c4fbe5e857fc422a23e88f3f90d0a9556c",
      "transactionIndex": "0x90",
      "blockHash": "0x30875342b742076f129bd2f01ef6584d37cd6cc39dd5437328cf187043d9ebd1",
      "blockNumber": "0x724ed7",
      "gasUsed": "0x13af8",
      "effectiveGasPrice": "0x5af13156e",
      "from": "0xc77f7fed3b5cc8249adc428c5f44c9063b9734b4",
      "to": "0x5eb9cc76c3506942c1c0ead70e877dd5e4f00cb0",
      "contractAddress": null
    }
  ],
  "libraries": [],
  "pending": [],
  "returns": {},
  "timestamp": 1736877000,
  "chain": 11155111,
  "commit": "51a374b"
}