{
  "transactions": [
    {
      "hash": "0x402f251d45cb1f65617c6f9c2453101988898e236ba8731a3b56c924d29f5980",
      "transactionType": "CALL",
      "contractName": null,
      "contractAddress": "0xbf4a322f1496e5c3d34a9bcdb4c60567b38c7de2",
      "function": "sell(uint256)",
      "arguments": [
        "989557284414579233133"
      ],
      "transaction": {
        "from": "0xc77f7fed3b5cc8249adc428c5f44c9063b9734b4",
        "to": "0xbf4a322f1496e5c3d34a9bcdb4c60567b38c7de2",
        "gas": "0x16fea",
        "value": "0x0",
        "input": "0xe4849b32000000000000000000000000000000000000000000000035a4ddb3469f2f516d",
        "nonce": "0x957",
        "chainId": "0xaa36a7"
      },
      "additionalContracts": [],
      "isFixedGasLimit": false
    }
  ],
  "receipts": [
    {
      "status": "0x1",
      "cumulativeGasUsed": "0xa2988e",
      "logs": [
        {
          "address": "0xbf4a322f1496e5c3d34a9bcdb4c60567b38c7de2",
          "topics": [
            "0xddf252ad1be2c89b69c2b068fc378daa952ba7f163c4a11628f55a4df523b3ef",
            "0x000000000000000000000000c77f7fed3b5cc8249adc428c5f44c9063b9734b4",
            "0x0000000000000000000000000000000000000000000000000000000000000000"
          ],
          "data": "0x000000000000000000000000000000000000000000000035a4ddb3469f2f516d",
          "blockHash": "0x5e8df23bf6bacc9d2e3412961e17894540f71a0ecc551bc06527432413cc05d5",
          "blockNumber": "0x7258e7",
          "transactionHash": "0x402f251d45cb1f65617c6f9c2453101988898e236ba8731a3b56c924d29f5980",
          "transactionIndex": "0x4d",
          "logIndex": "0x7b",
          "removed": false
        },
        {
          "address": "0xbf4a322f1496e5c3d34a9bcdb4c60567b38c7de2",
          "topics": [
            "0x4afcb4a87cdbd9974efdb92ee48bc8d7cd0ae4bf217004db3d080cbaee652ca7"
          ],
          "data": "0x0000000000000000000000000000000000000000000000000000000067871d00000000000000000000000000000000000000000000000000000390afd7df28e30000000000000000000000000000000000000000000000000dc7e3f849793f6d",
          "blockHash": "0x5e8df23bf6bacc9d2e3412961e17894540f71a0ecc551bc06527432413cc05d5",
          "blockNumber": "0x7258e7",
          "transactionHash": "0x402f251d45cb1f65617c6f9c2453101988898e236ba8731a3b56c924d29f5980",
          "transactionIndex": "0x4d",
          "logIndex": "0x7c",
          "removed": false
        }
      ],
      "logsBloom": "0x00000000000000000000000000000000000000000000000000000000000000000000000000000000000000000000000000000000000000004000000000000000000000000000000000000008000000000000001000000000000000000000000000000000020000000000000000000800020000000000000000000010000000000000000000000000000000000000000000000000000008000000010000000000000000000000000000000000000000004000000000000000000000000000000000000002000000800000000000001000000000000000080000000000000020000000000000000000000000000000000000000000000000000000000000000000",
      "type": "0x2",
      "transactionHash": "0x402f251d45cb1f65617c6f9c2453101988898e236ba8731a3b56c924d29f5980",
      "transactionIndex": "0x4d",
      "blockHash": "0x5e8df23bf6bacc9d2e3412961e17894540f71a0ecc551bc06527432413cc05d5",
      "blockNumber": "0x7258e7",
      "gasUsed": "0xfb91",
      "effectiveGasPrice": "0x7075862e",
      "from": "0xc77f7fed3b5cc8249adc428c5f44c9063b9734b4",
      "to": "0xbf4a322f1496e5c3d34a9bcdb4c60567b38c7de2",
      "contractAddress": null
    }
  ],
  "libraries": [],
  "pending": [],
  "returns": {},
  "timestamp": 1736908033,
  "chain": 11155111,
  "commit": "51a374b"
}