{
  "transactions": [
    {
      "hash": "0xa18a7bd142c498faaafe927f336005b3f6838b53d319ee20ffa6f077523bfd0e",
      "transactionType": "CALL",
      "contractName": null,
      "contractAddress": "0x8aafd3ede9adb0ff97c7aebce82a919afb1c8764",
      "function": "sell(uint256)",
      "arguments": [
        "111699337939440"
      ],
      "transaction": {
        "from": "0xc77f7fed3b5cc8249adc428c5f44c9063b9734b4",
        "to": "0x8aafd3ede9adb0ff97c7aebce82a919afb1c8764",
        "gas": "0x15daa",
        "value": "0x0",
        "input": "0xe4849b3200000000000000000000000000000000000000000000000000006597075c09f0",
        "nonce": "0x14ba",
        "chainId": "0xaa36a7"
      },
      "additionalContracts": [],
      "isFixedGasLimit": false
    }
  ],
  "receipts": [
    {
      "status": "0x1",
      "cumulativeGasUsed": "0xb63401",
      "logs": [
        {
          "address": "0x8aafd3ede9adb0ff97c7aebce82a919afb1c8764",
          "topics": [
            "0xddf252ad1be2c89b69c2b068fc378daa952ba7f163c4a11628f55a4df523b3ef",
            "0x000000000000000000000000c77f7fed3b5cc8249adc428c5f44c9063b9734b4",
            "0x0000000000000000000000000000000000000000000000000000000000000000"
          ],
          "data": "0x000000000000000000000000000000000000000000000000000064c6f8f6f355",
          "blockHash": "0x8e1ee2aaf3e70ea6f0054d52ed114dc19a88e771b01fa527429545d3fa0791a2",
          "blockNumber": "0x731c15",
          "transactionHash": "0xa18a7bd142c498faaafe927f336005b3f6838b53d319ee20ffa6f077523bfd0e",
          "transactionIndex": "0x7c",
          "logIndex": "0xaf",
          "removed": false
        },
        {
          "address": "0x8aafd3ede9adb0ff97c7aebce82a919afb1c8764",
          "topics": [
            "0xddf252ad1be2c89b69c2b068fc378daa952ba7f163c4a11628f55a4df523b3ef",
            "0x000000000000000000000000c77f7fed3b5cc8249adc428c5f44c9063b9734b4",
            "0x000000000000000000000000c77f7fed3b5cc8249adc428c5f44c9063b9734b4"
          ],
          "data": "0x000000000000000000000000000000000000000000000000000000d00e65169b",
          "blockHash": "0x8e1ee2aaf3e70ea6f0054d52ed114dc19a88e771b01fa527429545d3fa0791a2",
          "blockNumber": "0x731c15",
          "transactionHash": "0xa18a7bd142c498faaafe927f336005b3f6838b53d319ee20ffa6f077523bfd0e",
          "transactionIndex": "0x7c",
          "logIndex": "0xb0",
          "removed": false
        },
        {
          "address": "0x8aafd3ede9adb0ff97c7aebce82a919afb1c8764",
          "topics": [
            "0x4afcb4a87cdbd9974efdb92ee48bc8d7cd0ae4bf217004db3d080cbaee652ca7"
          ],
          "data": "0x0000000000000000000000000000000000000000000000000000000067904dd80000000000000000000000000000000000000000000000000010462ff082dcd10000000000000000000000000000000000000000000000000000007721db3e31",
          "blockHash": "0x8e1ee2aaf3e70ea6f0054d52ed114dc19a88e771b01fa527429545d3fa0791a2",
          "blockNumber": "0x731c15",
          "transactionHash": "0xa18a7bd142c498faaafe927f336005b3f6838b53d319ee20ffa6f077523bfd0e",
          "transactionIndex": "0x7c",
          "logIndex": "0xb1",
          "removed": false
        }
      ],
      "logsBloom": "0x00000000000000000000000000000000000000000600000000000000000000000000000000000000000000000000000000000000000000004000000000000000000000000000004000000008000000000000000000000000000000000000000000000000020000000000000000000800020000000000000000000010000000000000000000000000000000000000000000000000000000000000010000000000000000000000000000000000000000004000000000000000000000000000000000000002000000800000000000000000000000000000080000000000000020000000000000000000000000000000000000000000000000000000000000000000",
      "type": "0x2",
      "transactionHash": "0xa18a7bd142c498faaafe927f336005b3f6838b53d319ee20ffa6f077523bfd0e",
      "transactionIndex": "0x7c",
      "blockHash": "0x8e1ee2aaf3e70ea6f0054d52ed114dc19a88e771b01fa527429545d3fa0791a2",
      "blockNumber": "0x731c15",
      "gasUsed": "0xfd27",
      "effectiveGasPrice": "0xfea0acc5",
      "from": "0xc77f7fed3b5cc8249adc428c5f44c9063b9734b4",
      "to": "0x8aafd3ede9adb0ff97c7aebce82a919afb1c8764",
      "contractAddress": null
    }
  ],
  "libraries": [],
  "pending": [],
  "returns": {},
  "timestamp": 1737510361,
  "chain": 11155111,
  "commit": "1d2fb70"
}