{
  "transactions": [
    {
      "hash": "0x0aa5aa29a9248cf0ee81d8e0edbca5b3ae7cc15d56e0bc626009ad8da726d2ab",
      "transactionType": "CALL",
      "contractName": null,
      "contractAddress": "0xbf4a322f1496e5c3d34a9bcdb4c60567b38c7de2",
      "function": "sell(uint256)",
      "arguments": [
        "973795455388576219492"
      ],
      "transaction": {
        "from": "0xc77f7fed3b5cc8249adc428c5f44c9063b9734b4",
        "to": "0xbf4a322f1496e5c3d34a9bcdb4c60567b38c7de2",
        "gas": "0x16fea",
        "value": "0x0",
        "input": "0xe4849b32000000000000000000000000000000000000000000000034ca206f4955d58164",
        "nonce": "0xde9",
        "chainId": "0xaa36a7"
      },
      "additionalContracts": [],
      "isFixedGasLimit": false
    }
  ],
  "receipts": [
    {
      "status": "0x1",
      "cumulativeGasUsed": "0xb97b79",
      "logs": [
        {
          "address": "0xbf4a322f1496e5c3d34a9bcdb4c60567b38c7de2",
          "topics": [
            "0xddf252ad1be2c89b69c2b068fc378daa952ba7f163c4a11628f55a4df523b3ef",
            "0x000000000000000000000000c77f7fed3b5cc8249adc428c5f44c9063b9734b4",
            "0x0000000000000000000000000000000000000000000000000000000000000000"
          ],
          "data": "0x000000000000000000000000000000000000000000000034ca206f4955d58164",
          "blockHash": "0x6f2907deec3f11b679c9bbc4219a5a779a509e704a29698b330a61309c5ac247",
          "blockNumber": "0x7266c9",
          "transactionHash": "0x0aa5aa29a9248cf0ee81d8e0edbca5b3ae7cc15d56e0bc626009ad8da726d2ab",
          "transactionIndex": "0x76",
          "logIndex": "0x9e",
          "removed": false
        },
        {
          "address": "0xbf4a322f1496e5c3d34a9bcdb4c60567b38c7de2",
          "topics": [
            "0x4afcb4a87cdbd9974efdb92ee48bc8d7cd0ae4bf217004db3d080cbaee652ca7"
          ],
          "data": "0x000000000000000000000000000000000000000000000000000000006787c47000000000000000000000000000000000000000000000000000039f758e8d9abf0000000000000000000000000000000000000000000000000dc7e3d3a3f32262",
          "blockHash": "0x6f2907deec3f11b679c9bbc4219a5a779a509e704a29698b330a61309c5ac247",
          "blockNumber": "0x7266c9",
          "transactionHash": "0x0aa5aa29a9248cf0ee81d8e0edbca5b3ae7cc15d56e0bc626009ad8da726d2ab",
          "transactionIndex": "0x76",
          "logIndex": "0x9f",
          "removed": false
        }
      ],
      "logsBloom": "0x00000000000000000000000000000000000000000000000000000000000000000000000000000000000000000000000000000000000000004000000000000000000000000000000000000008000000000000001000000000000000000000000000000000020000000000000000000800020000000000000000000010000000000000000000000000000000000000000000000000000008000000010000000000000000000000000000000000000000004000000000000000000000000000000000000002000000800000000000001000000000000000080000000000000020000000000000000000000000000000000000000000000000000000000000000000",
      "type": "0x2",
      "transactionHash": "0x0aa5aa29a9248cf0ee81d8e0edbca5b3ae7cc15d56e0bc626009ad8da726d2ab",
      "transactionIndex": "0x76",
      "blockHash": "0x6f2907deec3f11b679c9bbc4219a5a779a509e704a29698b330a61309c5ac247",
      "blockNumber": "0x7266c9",
      "gasUsed": "0xfb91",
      "effectiveGasPrice": "0x26beaaa6c",
      "from": "0xc77f7fed3b5cc8249adc428c5f44c9063b9734b4",
      "to": "0xbf4a322f1496e5c3d34a9bcdb4c60567b38c7de2",
      "contractAddress": null
    }
  ],
  "libraries": [],
  "pending": [],
  "returns": {},
  "timestamp": 1736950897,
  "chain": 11155111,
  "commit": "51a374b"
}