{
  "transactions": [
    {
      "hash": "0x7712957ba773028068907ad60509cbd4075d3b780a92c5b82e87d5d37734f560",
      "transactionType": "CALL",
      "contractName": null,
      "contractAddress": "0x5eb9cc76c3506942c1c0ead70e877dd5e4f00cb0",
      "function": "buy(address)",
      "arguments": [
        "0xC77f7fed3b5Cc8249aDc428c5F44C9063B9734b4"
      ],
      "transaction": {
        "from": "0xc77f7fed3b5cc8249adc428c5f44c9063b9734b4",
        "to": "0x5eb9cc76c3506942c1c0ead70e877dd5e4f00cb0",
        "gas": "0x1b30c",
        "value": "0xde0b6b3a7640000",
        "input": "0xf088d547000000000000000000000000c77f7fed3b5cc8249adc428c5f44c9063b9734b4",
        "nonce": "0x2ec",
        "chainId": "0xaa36a7"
      },
      "additionalContracts": [],
      "isFixedGasLimit": false
    }
  ],
  "receipts": [
    {
      "status": "0x1",
      "cumulativeGasUsed": "0xdef434",
      "logs": [
        {
          "address": "0x5eb9cc76c3506942c1c0ead70e877dd5e4f00cb0",
          "topics": [
            "0xddf252ad1be2c89b69c2b068fc378daa952ba7f163c4a11628f55a4df523b3ef",
            "0x0000000000000000000000000000000000000000000000000000000000000000",
            "0x000000000000000000000000c77f7fed3b5cc8249adc428c5f44c9063b9734b4"
          ],
          "data": "0x000000000000000000000000000000000000000000000035759e022fb0cf2020",
          "blockHash": "0x258ed93d134532fcef96471948452fdffc2d3f902397fda5d1b412969dabd108",
          "blockNumber": "0x724ecc",
          "transactionHash": "0x7712957ba773028068907ad60509cbd4075d3b780a92c5b82e87d5d37734f560",
          "transactionIndex": "0x8a",
          "logIndex": "0xa2",
          "removed": false
        },
        {
          "address": "0x5eb9cc76c3506942c1c0ead70e877dd5e4f00cb0",
          "topics": [
            "0xddf252ad1be2c89b69c2b068fc378daa952ba7f163c4a11628f55a4df523b3ef",
            "0x0000000000000000000000000000000000000000000000000000000000000000",
            "0x000000000000000000000000c77f7fed3b5cc8249adc428c5f44c9063b9734b4"
          ],
          "data": "0x0000000000000000000000000000000000000000000000002983593cf877d780",
          "blockHash": "0x258ed93d134532fcef96471948452fdffc2d3f902397fda5d1b412969dabd108",
          "blockNumber": "0x724ecc",
          "transactionHash": "0x7712957ba773028068907ad60509cbd4075d3b780a92c5b82e87d5d37734f560",
          "transactionIndex": "0x8a",
          "logIndex": "0xa3",
          "removed": false
        },
        {
          "address": "0x5eb9cc76c3506942c1c0ead70e877dd5e4f00cb0",
          "topics": [
            "0x4afcb4a87cdbd9974efdb92ee48bc8d7cd0ae4bf217004db3d080cbaee652ca7"
          ],
          "data": "0x000000000000000000000000000000000000000000000000000000006786a3440000000000000000000000000000000000000000000000000003910b07ba3a860000000000000000000000000000000000000000000000000de0b6b3a7640000",
          "blockHash": "0x258ed93d134532fcef96471948452fdffc2d3f902397fda5d1b412969dabd108",
          "blockNumber": "0x724ecc",
          "transactionHash": "0x7712957ba773028068907ad60509cbd4075d3b780a92c5b82e87d5d37734f560",
          "transactionIndex": "0x8a",
          "logIndex": "0xa4",
          "removed": false
        }
      ],
      "logsBloom": "0x00000000000000000000000000000000000000000000000000000000000000000000000000000000000000000000000000000000000000004000000000000000000000000000000000000008000000000000000000000000000000000000000000000000020000000000000004000800020000000000000000000010000000000000000000000000000000000000000000000000000000000000010000000000000000000000000000000000000000004000000000000000000000000000020000000002000000800000008000000000000000000000080000000000000020000000000000000000000000000000000000000000000000000000000000000000",
      "type": "0x2",
      "transactionHash": "0x7712957ba773028068907ad60509cbd4075d3b780a92c5b82e87d5d37734f560",
      "transactionIndex": "0x8a",
      "blockHash": "0x258ed93d134532fcef96471948452fdffc2d3f902397fda5d1b412969dabd108",
      "blockNumber": "0x724ecc",
      "gasUsed": "0x13af8",
      "effectiveGasPrice": "0x4ed079fdc",
      "from": "0xc77f7fed3b5cc8249adc428c5f44c9063b9734b4",
      "to": "0x5eb9cc76c3506942c1c0ead70e877dd5e4f00cb0",
      "contractAddress": null
    }
  ],
  "libraries": [],
  "pending": [],
  "returns": {},
  "timestamp": 1736876869,
  "chain": 11155111,
  "commit": "51a374b"
}