{
  "transactions": [
    {
      "hash": "0xf11c16488263daf55d7efd2720bf367af640f25e9c9c8edde36f045086ded0f6",
      "transactionType": "CALL",
      "contractName": null,
      "contractAddress": "0xbf4a322f1496e5c3d34a9bcdb4c60567b38c7de2",
      "function": "buy(address)",
      "arguments": [
        "0xC77f7fed3b5Cc8249aDc428c5F44C9063B9734b4"
      ],
      "transaction": {
        "from": "0xc77f7fed3b5cc8249adc428c5f44c9063b9734b4",
        "to": "0xbf4a322f1496e5c3d34a9bcdb4c60567b38c7de2",
        "gas": "0x1b309",
        "value": "0xde0b6b3a7640000",
        "input": "0xf088d547000000000000000000000000c77f7fed3b5cc8249adc428c5f44c9063b9734b4",
        "nonce": "0xade",
        "chainId": "0xaa36a7"
      },
      "additionalContracts": [],
      "isFixedGasLimit": false
    }
  ],
  "receipts": [
    {
      "status": "0x1",
      "cumulativeGasUsed": "0xc5db98",
      "logs": [
        {
          "address": "0xbf4a322f1496e5c3d34a9bcdb4c60567b38c7de2",
          "topics": [
            "0xddf252ad1be2c89b69c2b068fc378daa952ba7f163c4a11628f55a4df523b3ef",
            "0x0000000000000000000000000000000000000000000000000000000000000000",
            "0x000000000000000000000000c77f7fed3b5cc8249adc428c5f44c9063b9734b4"
          ],
          "data": "0x000000000000000000000000000000000000000000000035317cfd3d82362d9e",
          "blockHash": "0x6e875a14c658cbb0c7e8d81741ca83bf5224c6507155457e6c00dd06ac513273",
          "blockNumber": "0x725ad1",
          "transactionHash": "0xf11c16488263daf55d7efd2720bf367af640f25e9c9c8edde36f045086ded0f6",
          "transactionIndex": "0x51",
          "logIndex": "0x81",
          "removed": false
        },
        {
          "address": "0xbf4a322f1496e5c3d34a9bcdb4c60567b38c7de2",
          "topics": [
            "0xddf252ad1be2c89b69c2b068fc378daa952ba7f163c4a11628f55a4df523b3ef",
            "0x0000000000000000000000000000000000000000000000000000000000000000",
            "0x000000000000000000000000c77f7fed3b5cc8249adc428c5f44c9063b9734b4"
          ],
          "data": "0x000000000000000000000000000000000000000000000000294e71b116bc6174",
          "blockHash": "0x6e875a14c658cbb0c7e8d81741ca83bf5224c6507155457e6c00dd06ac513273",
          "blockNumber": "0x725ad1",
          "transactionHash": "0xf11c16488263daf55d7efd2720bf367af640f25e9c9c8edde36f045086ded0f6",
          "transactionIndex": "0x51",
          "logIndex": "0x82",
          "removed": false
        },
        {
          "address": "0xbf4a322f1496e5c3d34a9bcdb4c60567b38c7de2",
          "topics": [
            "0x4afcb4a87cdbd9974efdb92ee48bc8d7cd0ae4bf217004db3d080cbaee652ca7"
          ],
          "data": "0x000000000000000000000000000000000000000000000000000000006787341c0000000000000000000000000000000000000000000000000003959ebd465fec0000000000000000000000000000000000000000000000000de0b6b3a7640000",
          "blockHash": "0x6e875a14c658cbb0c7e8d81741ca83bf5224c6507155457e6c00dd06ac513273",
          "blockNumber": "0x725ad1",
          "transactionHash": "0xf11c16488263daf55d7efd2720bf367af640f25e9c9c8edde36f045086ded0f6",
          "transactionIndex": "0x51",
          "logIndex": "0x83",
          "removed": false
        }
      ],
      "logsBloom": "0x00000000000000000000000000000000000000000000000000000000000000000000000000000000000000000000000000000000000000004000000000000000000000000000000000000008000000000000001000000000000000000000000000000000020000000000000000000800020000000000000000000010000000000000000000000000000000000000000000000000000008000000010000000000000000000000000000000000000000004000000000000000000000000000000000000002000000800000000000001000000000000000080000000000000020000000000000000000000000000000000000000000000000000000000000000000",
      "type": "0x2",
      "transactionHash": "0xf11c16488263daf55d7efd2720bf367af640f25e9c9c8edde36f045086ded0f6",
      "transactionIndex": "0x51",
      "blockHash": "0x6e875a14c658cbb0c7e8d81741ca83bf5224c6507155457e6c00dd06ac513273",
      "blockNumber": "0x725ad1",
      "gasUsed": "0x13af6",
      "effectiveGasPrice": "0xc931d9dc",
      "from": "0xc77f7fed3b5cc8249adc428c5f44c9063b9734b4",
      "to": "0xbf4a322f1496e5c3d34a9bcdb4c60567b38c7de2",
      "contractAddress": null
    }
  ],
  "libraries": [],
  "pending": [],
  "returns": {},
  "timestamp": 1736913948,
  "chain": 11155111,
  "commit": "51a374b"
}