{
  "transactions": [
    {
      "hash": "0x807204bd3fd95d1683cf8f68f9a41a0ea4f34743b1675b5c2a7bb73d12bccfb1",
      "transactionType": "CALL",
      "contractName": null,
      "contractAddress": "0xbf4a322f1496e5c3d34a9bcdb4c60567b38c7de2",
      "function": "sell(uint256)",
      "arguments": [
        "974990059778952470613"
      ],
      "transaction": {
        "from": "0xc77f7fed3b5cc8249adc428c5f44c9063b9734b4",
        "to": "0xbf4a322f1496e5c3d34a9bcdb4c60567b38c7de2",
        "gas": "0x16fea",
        "value": "0x0",
        "input": "0xe4849b32000000000000000000000000000000000000000000000034dab485a675552055",
        "nonce": "0xd8f",
        "chainId": "0xaa36a7"
      },
      "additionalContracts": [],
      "isFixedGasLimit": false
    }
  ],
  "receipts": [
    {
      "status": "0x1",
      "cumulativeGasUsed": "0x124beab",
      "logs": [
        {
          "address": "0xbf4a322f1496e5c3d34a9bcdb4c60567b38c7de2",
          "topics": [
            "0xddf252ad1be2c89b69c2b068fc378daa952ba7f163c4a11628f55a4df523b3ef",
            "0x000000000000000000000000c77f7fed3b5cc8249adc428c5f44c9063b9734b4",
            "0x0000000000000000000000000000000000000000000000000000000000000000"
          ],
          "data": "0x000000000000000000000000000000000000000000000034dab485a675552055",
          "blockHash": "0xb5bb740a4ec57d25a5633606f92fb68370b46ba9d2b40bfee83cd0b56e792187",
          "blockNumber": "0x726661",
          "transactionHash": "0x807204bd3fd95d1683cf8f68f9a41a0ea4f34743b1675b5c2a7bb73d12bccfb1",
          "transactionIndex": "0x76",
          "logIndex": "0xa6",
          "removed": false
        },
        {
          "address": "0xbf4a322f1496e5c3d34a9bcdb4c60567b38c7de2",
          "topics": [
            "0x4afcb4a87cdbd9974efdb92ee48bc8d7cd0ae4bf217004db3d080cbaee652ca7"
          ],
          "data": "0x000000000000000000000000000000000000000000000000000000006787bf3c00000000000000000000000000000000000000000000000000039e52a79c78eb0000000000000000000000000000000000000000000000000dc7e3d66affd7f4",
          "blockHash": "0xb5bb740a4ec57d25a5633606f92fb68370b46ba9d2b40bfee83cd0b56e792187",
          "blockNumber": "0x726661",
          "transactionHash": "0x807204bd3fd95d1683cf8f68f9a41a0ea4f34743b1675b5c2a7bb73d12bccfb1",
          "transactionIndex": "0x76",
          "logIndex": "0xa7",
          "removed": false
        }
      ],
      "logsBloom": "0x00000000000000000000000000000000000000000000000000000000000000000000000000000000000000000000000000000000000000004000000000000000000000000000000000000008000000000000001000000000000000000000000000000000020000000000000000000800020000000000000000000010000000000000000000000000000000000000000000000000000008000000010000000000000000000000000000000000000000004000000000000000000000000000000000000002000000800000000000001000000000000000080000000000000020000000000000000000000000000000000000000000000000000000000000000000",
      "type": "0x2",
      "transactionHash": "0x807204bd3fd95d1683cf8f68f9a41a0ea4f34743b1675b5c2a7bb73d12bccfb1",
      "transactionIndex": "0x76",
      "blockHash": "0xb5bb740a4ec57d25a5633606f92fb68370b46ba9d2b40bfee83cd0b56e792187",
      "blockNumber": "0x726661",
      "gasUsed": "0xfb91",
      "effectiveGasPrice": "0x858faf2b",
      "from": "0xc77f7fed3b5cc8249adc428c5f44c9063b9734b4",
      "to": "0xbf4a322f1496e5c3d34a9bcdb4c60567b38c7de2",
      "contractAddress": null
    }
  ],
  "libraries": [],
  "pending": [],
  "returns": {},
  "timestamp": 1736949566,
  "chain": 11155111,
  "commit": "51a374b"
}