{
  "transactions": [
    {
      "hash": "0x7f4e63f4f274bed4b575736fd224ab7b838321c7260954efff0ab9ecde16e258",
      "transactionType": "CALL",
      "contractName": null,
      "contractAddress": "0x8aafd3ede9adb0ff97c7aebce82a919afb1c8764",
      "function": "sell(uint256)",
      "arguments": [
        "179983237"
      ],
      "transaction": {
        "from": "0xc77f7fed3b5cc8249adc428c5f44c9063b9734b4",
        "to": "0x8aafd3ede9adb0ff97c7aebce82a919afb1c8764",
        "gas": "0x15d88",
        "value": "0x0",
        "input": "0xe4849b32000000000000000000000000000000000000000000000000000000000aba5385",
        "nonce": "0x11af",
        "chainId": "0xaa36a7"
      },
      "additionalContracts": [],
      "isFixedGasLimit": false
    }
  ],
  "receipts": [
    {
      "status": "0x1",
      "cumulativeGasUsed": "0x1791446",
      "logs": [
        {
          "address": "0x8aafd3ede9adb0ff97c7aebce82a919afb1c8764",
          "topics": [
            "0xddf252ad1be2c89b69c2b068fc378daa952ba7f163c4a11628f55a4df523b3ef",
            "0x000000000000000000000000c77f7fed3b5cc8249adc428c5f44c9063b9734b4",
            "0x0000000000000000000000000000000000000000000000000000000000000000"
          ],
          "data": "0x000000000000000000000000000000000000000000000000000000000aa45b0c",
          "blockHash": "0x3f081219ddfb23b711e4ee62481a55167a9b48306ad3e68c89685106c4b4c8cc",
          "blockNumber": "0x73187c",
          "transactionHash": "0x7f4e63f4f274bed4b575736fd224ab7b838321c7260954efff0ab9ecde16e258",
          "transactionIndex": "0xd9",
          "logIndex": "0x11c",
          "removed": false
        },
        {
          "address": "0x8aafd3ede9adb0ff97c7aebce82a919afb1c8764",
          "topics": [
            "0xddf252ad1be2c89b69c2b068fc378daa952ba7f163c4a11628f55a4df523b3ef",
            "0x000000000000000000000000c77f7fed3b5cc8249adc428c5f44c9063b9734b4",
            "0x000000000000000000000000c77f7fed3b5cc8249adc428c5f44c9063b9734b4"
          ],
          "data": "0x000000000000000000000000000000000000000000000000000000000015f879",
          "blockHash": "0x3f081219ddfb23b711e4ee62481a55167a9b48306ad3e68c89685106c4b4c8cc",
          "blockNumber": "0x73187c",
          "transactionHash": "0x7f4e63f4f274bed4b575736fd224ab7b838321c7260954efff0ab9ecde16e258",
          "transactionIndex": "0xd9",
          "logIndex": "0x11d",
          "removed": false
        },
        {
          "address": "0x8aafd3ede9adb0ff97c7aebce82a919afb1c8764",
          "topics": [
            "0x4afcb4a87cdbd9974efdb92ee48bc8d7cd0ae4bf217004db3d080cbaee652ca7"
          ],
          "data": "0x00000000000000000000000000000000000000000000000000000000679022a0000000000000000000000000000000000000000000000000000524daed34730c000000000000000000000000000000000000000000000000000000000003f9f5",
          "blockHash": "0x3f081219ddfb23b711e4ee62481a55167a9b48306ad3e68c89685106c4b4c8cc",
          "blockNumber": "0x73187c",
          "transactionHash": "0x7f4e63f4f274bed4b575736fd224ab7b838321c7260954efff0ab9ecde16e258",
          "transactionIndex": "0xd9",
          "logIndex": "0x11e",
          "removed": false
        }
      ],
      "logsBloom": "0x00000000000000000000000000000000000000000600000000000000000000000000000000000000000000000000000000000000000000004000000000000000000000000000004000000008000000000000000000000000000000000000000000000000020000000000000000000800020000000000000000000010000000000000000000000000000000000000000000000000000000000000010000000000000000000000000000000000000000004000000000000000000000000000000000000002000000800000000000000000000000000000080000000000000020000000000000000000000000000000000000000000000000000000000000000000",
      "type": "0x2",
      "transactionHash": "0x7f4e63f4f274bed4b575736fd224ab7b838321c7260954efff0ab9ecde16e258",
      "transactionIndex": "0xd9",
      "blockHash": "0x3f081219ddfb23b711e4ee62481a55167a9b48306ad3e68c89685106c4b4c8cc",
      "blockNumber": "0x73187c",
      "gasUsed": "0xfd0f",
      "effectiveGasPrice": "0x40d32785",
      "from": "0xc77f7fed3b5cc8249adc428c5f44c9063b9734b4",
      "to": "0x8aafd3ede9adb0ff97c7aebce82a919afb1c8764",
      "contractAddress": null
    }
  ],
  "libraries": [],
  "pending": [],
  "returns": {},
  "timestamp": 1737499298,
  "chain": 11155111,
  "commit": "1d2fb70"
}