{
  "transactions": [
    {
      "hash": "0xbaf1a414228ab7fffbce63ceaa74130f5111c8af6e69314d5706f77586c947ec",
      "transactionType": "CALL",
      "contractName": null,
      "contractAddress": "0xbf4a322f1496e5c3d34a9bcdb4c60567b38c7de2",
      "function": "sell(uint256)",
      "arguments": [
        "990681109879002168759"
      ],
      "transaction": {
        "from": "0xc77f7fed3b5cc8249adc428c5f44c9063b9734b4",
        "to": "0xbf4a322f1496e5c3d34a9bcdb4c60567b38c7de2",
        "gas": "0x16fea",
        "value": "0x0",
        "input": "0xe4849b32000000000000000000000000000000000000000000000035b4765494dba6fdb7",
        "nonce": "0x905",
        "chainId": "0xaa36a7"
      },
      "additionalContracts": [],
      "isFixedGasLimit": false
    }
  ],
  "receipts": [
    {
      "status": "0x1",
      "cumulativeGasUsed": "0xd4f0e6",
      "logs": [
        {
          "address": "0xbf4a322f1496e5c3d34a9bcdb4c60567b38c7de2",
          "topics": [
            "0xddf252ad1be2c89b69c2b068fc378daa952ba7f163c4a11628f55a4df523b3ef",
            "0x000000000000000000000000c77f7fed3b5cc8249adc428c5f44c9063b9734b4",
            "0x0000000000000000000000000000000000000000000000000000000000000000"
          ],
          "data": "0x000000000000000000000000000000000000000000000035b4765494dba6fdb7",
          "blockHash": "0x6d342ca351f2ed0ac6d290941596bcfca14a9e46b70f6aa81e87d10750d72197",
          "blockNumber": "0x72587f",
          "transactionHash": "0xbaf1a414228ab7fffbce63ceaa74130f5111c8af6e69314d5706f77586c947ec",
          "transactionIndex": "0x54",
          "logIndex": "0x96",
          "removed": false
        },
        {
          "address": "0xbf4a322f1496e5c3d34a9bcdb4c60567b38c7de2",
          "topics": [
            "0x4afcb4a87cdbd9974efdb92ee48bc8d7cd0ae4bf217004db3d080cbaee652ca7"
          ],
          "data": "0x000000000000000000000000000000000000000000000000000000006787182000000000000000000000000000000000000000000000000000038fa6cd1c883a0000000000000000000000000000000000000000000000000dc7e3fae65d44f8",
          "blockHash": "0x6d342ca351f2ed0ac6d290941596bcfca14a9e46b70f6aa81e87d10750d72197",
          "blockNumber": "0x72587f",
          "transactionHash": "0xbaf1a414228ab7fffbce63ceaa74130f5111c8af6e69314d5706f77586c947ec",
          "transactionIndex": "0x54",
          "logIndex": "0x97",
          "removed": false
        }
      ],
      "logsBloom": "0x00000000000000000000000000000000000000000000000000000000000000000000000000000000000000000000000000000000000000004000000000000000000000000000000000000008000000000000001000000000000000000000000000000000020000000000000000000800020000000000000000000010000000000000000000000000000000000000000000000000000008000000010000000000000000000000000000000000000000004000000000000000000000000000000000000002000000800000000000001000000000000000080000000000000020000000000000000000000000000000000000000000000000000000000000000000",
      "type": "0x2",
      "transactionHash": "0xbaf1a414228ab7fffbce63ceaa74130f5111c8af6e69314d5706f77586c947ec",
      "transactionIndex": "0x54",
      "blockHash": "0x6d342ca351f2ed0ac6d290941596bcfca14a9e46b70f6aa81e87d10750d72197",
      "blockNumber": "0x72587f",
      "gasUsed": "0xfb91",
      "effectiveGasPrice": "0x2e94407d",
      "from": "0xc77f7fed3b5cc8249adc428c5f44c9063b9734b4",
      "to": "0xbf4a322f1496e5c3d34a9bcdb4c60567b38c7de2",
      "contractAddress": null
    }
  ],
  "libraries": [],
  "pending": [],
  "returns": {},
  "timestamp": 1736906785,
  "chain": 11155111,
  "commit": "51a374b"
}