{
  "transactions": [
    {
      "hash": "0xc960623d04b9adf5c789cac77ba110d0e385857e21ffe62e3b8f16ccf179e76d",
      "transactionType": "CALL",
      "contractName": null,
      "contractAddress": "0xbf4a322f1496e5c3d34a9bcdb4c60567b38c7de2",
      "function": "sell(uint256)",
      "arguments": [
        "989995547033003387172"
      ],
      "transaction": {
        "from": "0xc77f7fed3b5cc8249adc428c5f44c9063b9734b4",
        "to": "0xbf4a322f1496e5c3d34a9bcdb4c60567b38c7de2",
        "gas": "0x16fea",
        "value": "0x0",
        "input": "0xe4849b32000000000000000000000000000000000000000000000035aaf2b8ce28b06924",
        "nonce": "0x937",
        "chainId": "0xaa36a7"
      },
      "additionalContracts": [],
      "isFixedGasLimit": false
    }
  ],
  "receipts": [
    {
      "status": "0x1",
      "cumulativeGasUsed": "0x1cbb5e5",
      "logs": [
        {
          "address": "0xbf4a322f1496e5c3d34a9bcdb4c60567b38c7de2",
          "topics": [
            "0xddf252ad1be2c89b69c2b068fc378daa952ba7f163c4a11628f55a4df523b3ef",
            "0x000000000000000000000000c77f7fed3b5cc8249adc428c5f44c9063b9734b4",
            "0x0000000000000000000000000000000000000000000000000000000000000000"
          ],
          "data": "0x000000000000000000000000000000000000000000000035aaf2b8ce28b06924",
          "blockHash": "0x688283090f9c7aca3e32cbbcfd8af92fc32d175fe67076de383c2de6bbe90eab",
          "blockNumber": "0x7258c1",
          "transactionHash": "0xc960623d04b9adf5c789cac77ba110d0e385857e21ffe62e3b8f16ccf179e76d",
          "transactionIndex": "0xae",
          "logIndex": "0xfe",
          "removed": false
        },
        {
          "address": "0xbf4a322f1496e5c3d34a9bcdb4c60567b38c7de2",
          "topics": [
            "0x4afcb4a87cdbd9974efdb92ee48bc8d7cd0ae4bf217004db3d080cbaee652ca7"
          ],
          "data": "0x0000000000000000000000000000000000000000000000000000000067871b380000000000000000000000000000000000000000000000000003904869858a0f0000000000000000000000000000000000000000000000000dc7e3f94e52e531",
          "blockHash": "0x688283090f9c7aca3e32cbbcfd8af92fc32d175fe67076de383c2de6bbe90eab",
          "blockNumber": "0x7258c1",
          "transactionHash": "0xc960623d04b9adf5c789cac77ba110d0e385857e21ffe62e3b8f16ccf179e76d",
          "transactionIndex": "0xae",
          "logIndex": "0xff",
          "removed": false
        }
      ],
      "logsBloom": "0x00000000000000000000000000000000000000000000000000000000000000000000000000000000000000000000000000000000000000004000000000000000000000000000000000000008000000000000001000000000000000000000000000000000020000000000000000000800020000000000000000000010000000000000000000000000000000000000000000000000000008000000010000000000000000000000000000000000000000004000000000000000000000000000000000000002000000800000000000001000000000000000080000000000000020000000000000000000000000000000000000000000000000000000000000000000",
      "type": "0x2",
      "transactionHash": "0xc960623d04b9adf5c789cac77ba110d0e385857e21ffe62e3b8f16ccf179e76d",
      "transactionIndex": "0xae",
      "blockHash": "0x688283090f9c7aca3e32cbbcfd8af92fc32d175fe67076de383c2de6bbe90eab",
      "blockNumber": "0x7258c1",
      "gasUsed": "0xfb91",
      "effectiveGasPrice": "0x4eb04740",
      "from": "0xc77f7fed3b5cc8249adc428c5f44c9063b9734b4",
      "to": "0xbf4a322f1496e5c3d34a9bcdb4c60567b38c7de2",
      "contractAddress": null
    }
  ],
  "libraries": [],
  "pending": [],
  "returns": {},
  "timestamp": 1736907577,
  "chain": 11155111,
  "commit": "51a374b"
}