{
  "transactions": [
    {
      "hash": "0x8177ad0ea21ed3be8695a136aa7c4b81cfb0534bbcce204372a228db84b6ae95",
      "transactionType": "CALL",
      "contractName": null,
      "contractAddress": "0x8aafd3ede9adb0ff97c7aebce82a919afb1c8764",
      "function": "buy(address)",
      "arguments": [
        "0xC77f7fed3b5Cc8249aDc428c5F44C9063B9734b4"
      ],
      "transaction": {
        "from": "0xc77f7fed3b5cc8249adc428c5f44c9063b9734b4",
        "to": "0x8aafd3ede9adb0ff97c7aebce82a919afb1c8764",
        "gas": "0x156ea",
        "value": "0xde0b6b3a7640000",
        "input": "0xf088d547000000000000000000000000c77f7fed3b5cc8249adc428c5f44c9063b9734b4",
        "nonce": "0xea5",
        "chainId": "0xaa36a7"
      },
      "additionalContracts": [],
      "isFixedGasLimit": false
    }
  ],
  "receipts": [
    {
      "status": "0x1",
      "cumulativeGasUsed": "0xdc7cb9",
      "logs": [
        {
          "address": "0x8aafd3ede9adb0ff97c7aebce82a919afb1c8764",
          "topics": [
            "0xddf252ad1be2c89b69c2b068fc378daa952ba7f163c4a11628f55a4df523b3ef",
            "0x0000000000000000000000000000000000000000000000000000000000000000",
            "0x000000000000000000000000c77f7fed3b5cc8249adc428c5f44c9063b9734b4"
          ],
          "data": "0x0000000000000000000000000000000000000000000000286d6be6d851a6f620",
          "blockHash": "0xff9a6f8e0ea9a0c553d9d5ae37e4936955ccbfa96da8defd69081984343399b4",
          "blockNumber": "0x731408",
          "transactionHash": "0x8177ad0ea21ed3be8695a136aa7c4b81cfb0534bbcce204372a228db84b6ae95",
          "transactionIndex": "0xa8",
          "logIndex": "0xfc",
          "removed": false
        },
        {
          "address": "0x8aafd3ede9adb0ff97c7aebce82a919afb1c8764",
          "topics": [
            "0xddf252ad1be2c89b69c2b068fc378daa952ba7f163c4a11628f55a4df523b3ef",
            "0x0000000000000000000000000000000000000000000000000000000000000000",
            "0x000000000000000000000000c77f7fed3b5cc8249adc428c5f44c9063b9734b4"
          ],
          "data": "0x0000000000000000000000000000000000000000000000001f64adc62ee2e5af",
          "blockHash": "0xff9a6f8e0ea9a0c553d9d5ae37e4936955ccbfa96da8defd69081984343399b4",
          "blockNumber": "0x731408",
          "transactionHash": "0x8177ad0ea21ed3be8695a136aa7c4b81cfb0534bbcce204372a228db84b6ae95",
          "transactionIndex": "0xa8",
          "logIndex": "0xfd",
          "removed": false
        },
        {
          "address": "0x8aafd3ede9adb0ff97c7aebce82a919afb1c8764",
          "topics": [
            "0x4afcb4a87cdbd9974efdb92ee48bc8d7cd0ae4bf217004db3d080cbaee652ca7"
          ],
          "data": "0x00000000000000000000000000000000000000000000000000000000678fed0c0000000000000000000000000000000000000000000000000004b77cd0ec96ad0000000000000000000000000000000000000000000000000de0b6b3a7640000",
          "blockHash": "0xff9a6f8e0ea9a0c553d9d5ae37e4936955ccbfa96da8defd69081984343399b4",
          "blockNumber": "0x731408",
          "transactionHash": "0x8177ad0ea21ed3be8695a136aa7c4b81cfb0534bbcce204372a228db84b6ae95",
          "transactionIndex": "0xa8",
          "logIndex": "0xfe",
          "removed": false
        }
      ],
      "logsBloom": "0x00000000000000000000000000000000000000000600000000000000000000000000000000000000000000000000000000000000000000004000000000000000000000000000004000000008000000000000000000000000000000000000000000000000020000000000000000000800020000000000000000000010000000000000000000000000000000000000000000000000000000000000010000000000000000000000000000000000000000004000000000000000000000000000000000000002000000800000000000000000000000000000080000000000000020000000000000000000000000000000000000000000000000000000000000000000",
      "type": "0x2",
      "transactionHash": "0x8177ad0ea21ed3be8695a136aa7c4b81cfb0534bbcce204372a228db84b6ae95",
      "transactionIndex": "0xa8",
      "blockHash": "0xff9a6f8e0ea9a0c553d9d5ae37e4936955ccbfa96da8defd69081984343399b4",
      "blockNumber": "0x731408",
      "gasUsed": "0xf844",
      "effectiveGasPrice": "0x7ddf2a37",
      "from": "0xc77f7fed3b5cc8249adc428c5f44c9063b9734b4",
      "to": "0x8aafd3ede9adb0ff97c7aebce82a919afb1c8764",
      "contractAddress": null
    }
  ],
  "libraries": [],
  "pending": [],
  "returns": {},
  "timestamp": 1737485580,
  "chain": 11155111,
  "commit": "51a374b"
}