{
  "transactions": [
    {
      "hash": "0x01e1319f8b2ab2eb844f949289e351223f94da0fadbf2a586cdea1789d6738dc",
      "transactionType": "CALL",
      "contractName": null,
      "contractAddress": "0xbf4a322f1496e5c3d34a9bcdb4c60567b38c7de2",
      "function": "buy(address)",
      "arguments": [
        "0xC77f7fed3b5Cc8249aDc428c5F44C9063B9734b4"
      ],
      "transaction": {
        "from": "0xc77f7fed3b5cc8249adc428c5f44c9063b9734b4",
        "to": "0xbf4a322f1496e5c3d34a9bcdb4c60567b38c7de2",
        "gas": "0x1b309",
        "value": "0xde0b6b3a7640000",
        "input": "0xf088d547000000000000000000000000c77f7fed3b5cc8249adc428c5f44c9063b9734b4",
        "nonce": "0xe22",
        "chainId": "0xaa36a7"
      },
      "additionalContracts": [],
      "isFixedGasLimit": false
    }
  ],
  "receipts": [
    {
      "status": "0x1",
      "cumulativeGasUsed": "0x64c598",
      "logs": [
        {
          "address": "0xbf4a322f1496e5c3d34a9bcdb4c60567b38c7de2",
          "topics": [
            "0xddf252ad1be2c89b69c2b068fc378daa952ba7f163c4a11628f55a4df523b3ef",
            "0x0000000000000000000000000000000000000000000000000000000000000000",
            "0x000000000000000000000000c77f7fed3b5cc8249adc428c5f44c9063b9734b4"
          ],
          "data": "0x00000000000000000000000000000000000000000000003496a0abf4ce36fecb",
          "blockHash": "0x1a9c37f30c5b96dfff8535f01f7b09a67b76761c0ec10e3a44a740b626aaf39f",
          "blockNumber": "0x72670f",
          "transactionHash": "0x01e1319f8b2ab2eb844f949289e351223f94da0fadbf2a586cdea1789d6738dc",
          "transactionIndex": "0x4b",
          "logIndex": "0x50",
          "removed": false
        },
        {
          "address": "0xbf4a322f1496e5c3d34a9bcdb4c60567b38c7de2",
          "topics": [
            "0xddf252ad1be2c89b69c2b068fc378daa952ba7f163c4a11628f55a4df523b3ef",
            "0x0000000000000000000000000000000000000000000000000000000000000000",
            "0x000000000000000000000000c77f7fed3b5cc8249adc428c5f44c9063b9734b4"
          ],
          "data": "0x00000000000000000000000000000000000000000000000028d63086e5884121",
          "blockHash": "0x1a9c37f30c5b96dfff8535f01f7b09a67b76761c0ec10e3a44a740b626aaf39f",
          "blockNumber": "0x72670f",
          "transactionHash": "0x01e1319f8b2ab2eb844f949289e351223f94da0fadbf2a586cdea1789d6738dc",
          "transactionIndex": "0x4b",
          "logIndex": "0x51",
          "removed": false
        },
        {
          "address": "0xbf4a322f1496e5c3d34a9bcdb4c60567b38c7de2",
          "topics": [
            "0x4afcb4a87cdbd9974efdb92ee48bc8d7cd0ae4bf217004db3d080cbaee652ca7"
          ],
          "data": "0x000000000000000000000000000000000000000000000000000000006787c8240000000000000000000000000000000000000000000000000003a02ce4198cc80000000000000000000000000000000000000000000000000de0b6b3a7640000",
          "blockHash": "0x1a9c37f30c5b96dfff8535f01f7b09a67b76761c0ec10e3a44a740b626aaf39f",
          "blockNumber": "0x72670f",
          "transactionHash": "0x01e1319f8b2ab2eb844f949289e351223f94da0fadbf2a586cdea1789d6738dc",
          "transactionIndex": "0x4b",
          "logIndex": "0x52",
          "removed": false
        }
      ],
      "logsBloom": "0x00000000000000000000000000000000000000000000000000000000000000000000000000000000000000000000000000000000000000004000000000000000000000000000000000000008000000000000001000000000000000000000000000000000020000000000000000000800020000000000000000000010000000000000000000000000000000000000000000000000000008000000010000000000000000000000000000000000000000004000000000000000000000000000000000000002000000800000000000001000000000000000080000000000000020000000000000000000000000000000000000000000000000000000000000000000",
      "type": "0x2",
      "transactionHash": "0x01e1319f8b2ab2eb844f949289e351223f94da0fadbf2a586cdea1789d6738dc",
      "transactionIndex": "0x4b",
      "blockHash": "0x1a9c37f30c5b96dfff8535f01f7b09a67b76761c0ec10e3a44a740b626aaf39f",
      "blockNumber": "0x72670f",
      "gasUsed": "0x13af6",
      "effectiveGasPrice": "0x4cd181c81",
      "from": "0xc77f7fed3b5cc8249adc428c5f44c9063b9734b4",
      "to": "0xbf4a322f1496e5c3d34a9bcdb4c60567b38c7de2",
      "contractAddress": null
    }
  ],
  "libraries": [],
  "pending": [],
  "returns": {},
  "timestamp": 1736951845,
  "chain": 11155111,
  "commit": "51a374b"
}