{
  "transactions": [
    {
      "hash": "0xbbb893337222f0f7ff43f0f2a240e7b3d978013682b56ac44f848508043fc091",
      "transactionType": "CALL",
      "contractName": null,
      "contractAddress": "0x8aafd3ede9adb0ff97c7aebce82a919afb1c8764",
      "function": "sell(uint256)",
      "arguments": [
        "1791081306217641615"
      ],
      "transaction": {
        "from": "0xc77f7fed3b5cc8249adc428c5f44c9063b9734b4",
        "to": "0x8aafd3ede9adb0ff97c7aebce82a919afb1c8764",
        "gas": "0x15dca",
        "value": "0x0",
        "input": "0xe4849b3200000000000000000000000000000000000000000000000018db32f55cf1f68f",
        "nonce": "0x1494",
        "chainId": "0xaa36a7"
      },
      "additionalContracts": [],
      "isFixedGasLimit": false
    }
  ],
  "receipts": [
    {
      "status": "0x1",
      "cumulativeGasUsed": "0x15a7061",
      "logs": [
        {
          "address": "0x8aafd3ede9adb0ff97c7aebce82a919afb1c8764",
          "topics": [
            "0xddf252ad1be2c89b69c2b068fc378daa952ba7f163c4a11628f55a4df523b3ef",
            "0x000000000000000000000000c77f7fed3b5cc8249adc428c5f44c9063b9734b4",
            "0x0000000000000000000000000000000000000000000000000000000000000000"
          ],
          "data": "0x00000000000000000000000000000000000000000000000018a84b2074c71143",
          "blockHash": "0x843c0689421ebd5001c94dfcb3011ee0288b4f1f2aab8e1832770c82ebb6a967",
          "blockNumber": "0x731be6",
          "transactionHash": "0xbbb893337222f0f7ff43f0f2a240e7b3d978013682b56ac44f848508043fc091",
          "transactionIndex": "0xae",
          "logIndex": "0xd0",
          "removed": false
        },
        {
          "address": "0x8aafd3ede9adb0ff97c7aebce82a919afb1c8764",
          "topics": [
            "0xddf252ad1be2c89b69c2b068fc378daa952ba7f163c4a11628f55a4df523b3ef",
            "0x000000000000000000000000c77f7fed3b5cc8249adc428c5f44c9063b9734b4",
            "0x000000000000000000000000c77f7fed3b5cc8249adc428c5f44c9063b9734b4"
          ],
          "data": "0x0000000000000000000000000000000000000000000000000032e7d4e82ae54c",
          "blockHash": "0x843c0689421ebd5001c94dfcb3011ee0288b4f1f2aab8e1832770c82ebb6a967",
          "blockNumber": "0x731be6",
          "transactionHash": "0xbbb893337222f0f7ff43f0f2a240e7b3d978013682b56ac44f848508043fc091",
          "transactionIndex": "0xae",
          "logIndex": "0xd1",
          "removed": false
        },
        {
          "address": "0x8aafd3ede9adb0ff97c7aebce82a919afb1c8764",
          "topics": [
            "0x4afcb4a87cdbd9974efdb92ee48bc8d7cd0ae4bf217004db3d080cbaee652ca7"
          ],
          "data": "0x0000000000000000000000000000000000000000000000000000000067904ba4000000000000000000000000000000000000000000000000000fdc56e9d187b3000000000000000000000000000000000000000000000000001c681c7894d3e0",
          "blockHash": "0x843c0689421ebd5001c94dfcb3011ee0288b4f1f2aab8e1832770c82ebb6a967",
          "blockNumber": "0x731be6",
          "transactionHash": "0xbbb893337222f0f7ff43f0f2a240e7b3d978013682b56ac44f848508043fc091",
          "transactionIndex": "0xae",
          "logIndex": "0xd2",
          "removed": false
        }
      ],
      "logsBloom": "0x00000000000000000000000000000000000000000600000000000000000000000000000000000000000000000000000000000000000000004000000000000000000000000000004000000008000000000000000000000000000000000000000000000000020000000000000000000800020000000000000000000010000000000000000000000000000000000000000000000000000000000000010000000000000000000000000000000000000000004000000000000000000000000000000000000002000000800000000000000000000000000000080000000000000020000000000000000000000000000000000000000000000000000000000000000000",
      "type": "0x2",
      "transactionHash": "0xbbb893337222f0f7ff43f0f2a240e7b3d978013682b56ac44f848508043fc091",
      "transactionIndex": "0xae",
      "blockHash": "0x843c0689421ebd5001c94dfcb3011ee0288b4f1f2aab8e1832770c82ebb6a967",
      "blockNumber": "0x731be6",
      "gasUsed": "0xfd3f",
      "effectiveGasPrice": "0x115d29088",
      "from": "0xc77f7fed3b5cc8249adc428c5f44c9063b9734b4",
      "to": "0x8aafd3ede9adb0ff97c7aebce82a919afb1c8764",
      "contractAddress": null
    }
  ],
  "libraries": [],
  "pending": [],
  "returns": {},
  "timestamp": 1737509797,
  "chain": 11155111,
  "commit": "1d2fb70"
}