{
  "transactions": [
    {
      "hash": "0x282a610597e1b48e69bb27580dbff4e1806a86d7a386e4cc63c9f6df330589b1",
      "transactionType": "CALL",
      "contractName": null,
      "contractAddress": "0x3b71253dcecbaf453f48043c75f311253fd0ad31",
      "function": "buy(address)",
      "arguments": [
        "0xC77f7fed3b5Cc8249aDc428c5F44C9063B9734b4"
      ],
      "transaction": {
        "from": "0xc77f7fed3b5cc8249adc428c5f44c9063b9734b4",
        "to": "0x3b71253dcecbaf453f48043c75f311253fd0ad31",
        "gas": "0x1b30c",
        "value": "0xde0b6b3a7640000",
        "input": "0xf088d547000000000000000000000000c77f7fed3b5cc8249adc428c5f44c9063b9734b4",
        "nonce": "0x4cc",
        "chainId": "0xaa36a7"
      },
      "additionalContracts": [],
      "isFixedGasLimit": false
    }
  ],
  "receipts": [
    {
      "status": "0x1",
      "cumulativeGasUsed": "0x1c7472e",
      "logs": [
        {
          "address": "0x3b71253dcecbaf453f48043c75f311253fd0ad31",
          "topics": [
            "0xddf252ad1be2c89b69c2b068fc378daa952ba7f163c4a11628f55a4df523b3ef",
            "0x0000000000000000000000000000000000000000000000000000000000000000",
            "0x000000000000000000000000c77f7fed3b5cc8249adc428c5f44c9063b9734b4"
          ],
          "data": "0x00000000000000000000000000000000000000000000d17895ee90b5c4d741e5",
          "blockHash": "0x472a7107038d1ede634605945f4d74e1c546816c48065309bf202f012c8e91fb",
          "blockNumber": "0x72511d",
          "transactionHash": "0x282a610597e1b48e69bb27580dbff4e1806a86d7a386e4cc63c9f6df330589b1",
          "transactionIndex": "0x88",
          "logIndex": "0x12c",
          "removed": false
        },
        {
          "address": "0x3b71253dcecbaf453f48043c75f311253fd0ad31",
          "topics": [
            "0xddf252ad1be2c89b69c2b068fc378daa952ba7f163c4a11628f55a4df523b3ef",
            "0x0000000000000000000000000000000000000000000000000000000000000000",
            "0x000000000000000000000000c77f7fed3b5cc8249adc428c5f44c9063b9734b4"
          ],
          "data": "0x0000000000000000000000000000000000000000000000a2a951e50ef0c77218",
          "blockHash": "0x472a7107038d1ede634605945f4d74e1c546816c48065309bf202f012c8e91fb",
          "blockNumber": "0x72511d",
          "transactionHash": "0x282a610597e1b48e69bb27580dbff4e1806a86d7a386e4cc63c9f6df330589b1",
          "transactionIndex": "0x88",
          "logIndex": "0x12d",
          "removed": false
        },
        {
          "address": "0x3b71253dcecbaf453f48043c75f311253fd0ad31",
          "topics": [
            "0x4afcb4a87cdbd9974efdb92ee48bc8d7cd0ae4bf217004db3d080cbaee652ca7"
          ],
          "data": "0x000000000000000000000000000000000000000000000000000000006786bf40000000000000000000000000000000000000000000000000000000e90bbf2a640000000000000000000000000000000000000000000000000de0b6b3a7640000",
          "blockHash": "0x472a7107038d1ede634605945f4d74e1c546816c48065309bf202f012c8e91fb",
          "blockNumber": "0x72511d",
          "transactionHash": "0x282a610597e1b48e69bb27580dbff4e1806a86d7a386e4cc63c9f6df330589b1",
          "transactionIndex": "0x88",
          "logIndex": "0x12e",
          "removed": false
        }
      ],
      "logsBloom": "0x00000000000000000000000000000000000000000000000000000000000000000000000000000000000000000000000000000000000000004000020000000000000000000000000000000008000000000000000000000000000000000000000000000000020000000000000000000800020000000000000000000010002000000000000000000000000000000000000000000000000000000000010000000000000000000000000000000000000000004000000000000000000000000000000000000002000000800000000000000000000000000000080000000000000020000000000000000000008000000000000000000000000000000000000000000000",
      "type": "0x2",
      "transactionHash": "0x282a610597e1b48e69bb27580dbff4e1806a86d7a386e4cc63c9f6df330589b1",
      "transactionIndex": "0x88",
      "blockHash": "0x472a7107038d1ede634605945f4d74e1c546816c48065309bf202f012c8e91fb",
      "blockNumber": "0x72511d",
      "gasUsed": "0x13af8",
      "effectiveGasPrice": "0x27c683844",
      "from": "0xc77f7fed3b5cc8249adc428c5f44c9063b9734b4",
      "to": "0x3b71253dcecbaf453f48043c75f311253fd0ad31",
      "contractAddress": null
    }
  ],
  "libraries": [],
  "pending": [],
  "returns": {},
  "timestamp": 1736884033,
  "chain": 11155111,
  "commit": "51a374b"
}