{
  "transactions": [
    {
      "hash": "0xb8fcbf0716fc5d2c1b54c0bf91a8fe3e1e1348e8e0921948a0229be897b6ac31",
      "transactionType": "CALL",
      "contractName": null,
      "contractAddress": "0x8aafd3ede9adb0ff97c7aebce82a919afb1c8764",
      "function": "buy(address)",
      "arguments": [
        "0xC77f7fed3b5Cc8249aDc428c5F44C9063B9734b4"
      ],
      "transaction": {
        "from": "0xc77f7fed3b5cc8249adc428c5f44c9063b9734b4",
        "to": "0x8aafd3ede9adb0ff97c7aebce82a919afb1c8764",
        "gas": "0x156ea",
        "value": "0xde0b6b3a7640000",
        "input": "0xf088d547000000000000000000000000c77f7fed3b5cc8249adc428c5f44c9063b9734b4",
        "nonce": "0x1130",
        "chainId": "0xaa36a7"
      },
      "additionalContracts": [],
      "isFixedGasLimit": false
    }
  ],
  "receipts": [
    {
      "status": "0x1",
      "cumulativeGasUsed": "0x793268",
      "logs": [
        {
          "address": "0x8aafd3ede9adb0ff97c7aebce82a919afb1c8764",
          "topics": [
            "0xddf252ad1be2c89b69c2b068fc378daa952ba7f163c4a11628f55a4df523b3ef",
            "0x0000000000000000000000000000000000000000000000000000000000000000",
            "0x000000000000000000000000c77f7fed3b5cc8249adc428c5f44c9063b9734b4"
          ],
          "data": "0x0000000000000000000000000000000000000000000000259b0122fc9beb8595",
          "blockHash": "0xff68bd86a93edbf08e543dddb23fef37eaa31cf9941983ca7aa4ed438980f68e",
          "blockNumber": "0x7317e7",
          "transactionHash": "0xb8fcbf0716fc5d2c1b54c0bf91a8fe3e1e1348e8e0921948a0229be897b6ac31",
          "transactionIndex": "0x64",
          "logIndex": "0x88",
          "removed": false
        },
        {
          "address": "0x8aafd3ede9adb0ff97c7aebce82a919afb1c8764",
          "topics": [
            "0xddf252ad1be2c89b69c2b068fc378daa952ba7f163c4a11628f55a4df523b3ef",
            "0x0000000000000000000000000000000000000000000000000000000000000000",
            "0x000000000000000000000000c77f7fed3b5cc8249adc428c5f44c9063b9734b4"
          ],
          "data": "0x0000000000000000000000000000000000000000000000001d33b283cc71f6d2",
          "blockHash": "0xff68bd86a93edbf08e543dddb23fef37eaa31cf9941983ca7aa4ed438980f68e",
          "blockNumber": "0x7317e7",
          "transactionHash": "0xb8fcbf0716fc5d2c1b54c0bf91a8fe3e1e1348e8e0921948a0229be897b6ac31",
          "transactionIndex": "0x64",
          "logIndex": "0x89",
          "removed": false
        },
        {
          "address": "0x8aafd3ede9adb0ff97c7aebce82a919afb1c8764",
          "topics": [
            "0x4afcb4a87cdbd9974efdb92ee48bc8d7cd0ae4bf217004db3d080cbaee652ca7"
          ],
          "data": "0x0000000000000000000000000000000000000000000000000000000067901b980000000000000000000000000000000000000000000000000005126106cf154c0000000000000000000000000000000000000000000000000de0b6b3a7640000",
          "blockHash": "0xff68bd86a93edbf08e543dddb23fef37eaa31cf9941983ca7aa4ed438980f68e",
          "blockNumber": "0x7317e7",
          "transactionHash": "0xb8fcbf0716fc5d2c1b54c0bf91a8fe3e1e1348e8e0921948a0229be897b6ac31",
          "transactionIndex": "0x64",
          "logIndex": "0x8a",
          "removed": false
        }
      ],
      "logsBloom": "0x00000000000000000000000000000000000000000600000000000000000000000000000000000000000000000000000000000000000000004000000000000000000000000000004000000008000000000000000000000000000000000000000000000000020000000000000000000800020000000000000000000010000000000000000000000000000000000000000000000000000000000000010000000000000000000000000000000000000000004000000000000000000000000000000000000002000000800000000000000000000000000000080000000000000020000000000000000000000000000000000000000000000000000000000000000000",
      "type": "0x2",
      "transactionHash": "0xb8fcbf0716fc5d2c1b54c0bf91a8fe3e1e1348e8e0921948a0229be897b6ac31",
      "transactionIndex": "0x64",
      "blockHash": "0xff68bd86a93edbf08e543dddb23fef37eaa31cf9941983ca7aa4ed438980f68e",
      "blockNumber": "0x7317e7",
      "gasUsed": "0xf844",
      "effectiveGasPrice": "0x3fbc4fa9",
      "from": "0xc77f7fed3b5cc8249adc428c5f44c9063b9734b4",
      "to": "0x8aafd3ede9adb0ff97c7aebce82a919afb1c8764",
      "contractAddress": null
    }
  ],
  "libraries": [],
  "pending": [],
  "returns": {},
  "timestamp": 1737497497,
  "chain": 11155111,
  "commit": "1d2fb70"
}