{
  "transactions": [
    {
      "hash": "0x7f02ca787a5caef9f38d54c13802eb2cac6f0ccd4b34dfe80de41b6be7d85739",
      "transactionType": "CALL",
      "contractName": null,
      "contractAddress": "0x8aafd3ede9adb0ff97c7aebce82a919afb1c8764",
      "function": "sell(uint256)",
      "arguments": [
        "5462484772868741369"
      ],
      "transaction": {
        "from": "0xc77f7fed3b5cc8249adc428c5f44c9063b9734b4",
        "to": "0x8aafd3ede9adb0ff97c7aebce82a919afb1c8764",
        "gas": "0x15dca",
        "value": "0x0",
        "input": "0xe4849b320000000000000000000000000000000000000000000000004bcea4f59dd258f9",
        "nonce": "0x11dc",
        "chainId": "0xaa36a7"
      },
      "additionalContracts": [],
      "isFixedGasLimit": false
    }
  ],
  "receipts": [
    {
      "status": "0x1",
      "cumulativeGasUsed": "0xb5a81f",
      "logs": [
        {
          "address": "0x8aafd3ede9adb0ff97c7aebce82a919afb1c8764",
          "topics": [
            "0xddf252ad1be2c89b69c2b068fc378daa952ba7f163c4a11628f55a4df523b3ef",
            "0x000000000000000000000000c77f7fed3b5cc8249adc428c5f44c9063b9734b4",
            "0x0000000000000000000000000000000000000000000000000000000000000000"
          ],
          "data": "0x0000000000000000000000000000000000000000000000004b336426d9ffc4cf",
          "blockHash": "0xb65088eb9b8b0be0589e36cea068ff4937a7c18405380aed6cf6890fbb42c179",
          "blockNumber": "0x7318b2",
          "transactionHash": "0x7f02ca787a5caef9f38d54c13802eb2cac6f0ccd4b34dfe80de41b6be7d85739",
          "transactionIndex": "0x7f",
          "logIndex": "0x7f",
          "removed": false
        },
        {
          "address": "0x8aafd3ede9adb0ff97c7aebce82a919afb1c8764",
          "topics": [
            "0xddf252ad1be2c89b69c2b068fc378daa952ba7f163c4a11628f55a4df523b3ef",
            "0x000000000000000000000000c77f7fed3b5cc8249adc428c5f44c9063b9734b4",
            "0x000000000000000000000000c77f7fed3b5cc8249adc428c5f44c9063b9734b4"
          ],
          "data": "0x000000000000000000000000000000000000000000000000009b40cec3d2942a",
          "blockHash": "0xb65088eb9b8b0be0589e36cea068ff4937a7c18405380aed6cf6890fbb42c179",
          "blockNumber": "0x7318b2",
          "transactionHash": "0x7f02ca787a5caef9f38d54c13802eb2cac6f0ccd4b34dfe80de41b6be7d85739",
          "transactionIndex": "0x7f",
          "logIndex": "0x80",
          "removed": false
        },
        {
          "address": "0x8aafd3ede9adb0ff97c7aebce82a919afb1c8764",
          "topics": [
            "0x4afcb4a87cdbd9974efdb92ee48bc8d7cd0ae4bf217004db3d080cbaee652ca7"
          ],
          "data": "0x000000000000000000000000000000000000000000000000000000006790252800000000000000000000000000000000000000000000000000052c1eab6ea5a8000000000000000000000000000000000000000000000000001c40f062321ded",
          "blockHash": "0xb65088eb9b8b0be0589e36cea068ff4937a7c18405380aed6cf6890fbb42c179",
          "blockNumber": "0x7318b2",
          "transactionHash": "0x7f02ca787a5caef9f38d54c13802eb2cac6f0ccd4b34dfe80de41b6be7d85739",
          "transactionIndex": "0x7f",
          "logIndex": "0x81",
          "removed": false
        }
      ],
      "logsBloom": "0x00000000000000000000000000000000000000000600000000000000000000000000000000000000000000000000000000000000000000004000000000000000000000000000004000000008000000000000000000000000000000000000000000000000020000000000000000000800020000000000000000000010000000000000000000000000000000000000000000000000000000000000010000000000000000000000000000000000000000004000000000000000000000000000000000000002000000800000000000000000000000000000080000000000000020000000000000000000000000000000000000000000000000000000000000000000",
      "type": "0x2",
      "transactionHash": "0x7f02ca787a5caef9f38d54c13802eb2cac6f0ccd4b34dfe80de41b6be7d85739",
      "transactionIndex": "0x7f",
      "blockHash": "0xb65088eb9b8b0be0589e36cea068ff4937a7c18405380aed6cf6890fbb42c179",
      "blockNumber": "0x7318b2",
      "gasUsed": "0xfd3f",
      "effectiveGasPrice": "0x4236dbd1",
      "from": "0xc77f7fed3b5cc8249adc428c5f44c9063b9734b4",
      "to": "0x8aafd3ede9adb0ff97c7aebce82a919afb1c8764",
      "contractAddress": null
    }
  ],
  "libraries": [],
  "pending": [],
  "returns": {},
  "timestamp": 1737499945,
  "chain": 11155111,
  "commit": "1d2fb70"
}