{
  "transactions": [
    {
      "hash": "0xc2a49c69936bcb664eba8f78201c5c86bf4b87a49f2227e1efd6c806eadbc6c3",
      "transactionType": "CALL",
      "contractName": null,
      "contractAddress": "0x270e88f8683660553e8ba4eb2ad7c91a1710d769",
      "function": "sell(uint256)",
      "arguments": [
        "711907492311784398690"
      ],
      "transaction": {
        "from": "0xc77f7fed3b5cc8249adc428c5f44c9063b9734b4",
        "to": "0x270e88f8683660553e8ba4eb2ad7c91a1710d769",
        "gas": "0x16fec",
        "value": "0x0",
        "input": "0xe4849b3200000000000000000000000000000000000000000000002697b37c68f70a9f62",
        "nonce": "0x884",
        "chainId": "0xaa36a7"
      },
      "additionalContracts": [],
      "isFixedGasLimit": false
    }
  ],
  "receipts": [
    {
      "status": "0x1",
      "cumulativeGasUsed": "0xb92320",
      "logs": [
        {
          "address": "0x270e88f8683660553e8ba4eb2ad7c91a1710d769",
          "topics": [
            "0xddf252ad1be2c89b69c2b068fc378daa952ba7f163c4a11628f55a4df523b3ef",
            "0x000000000000000000000000c77f7fed3b5cc8249adc428c5f44c9063b9734b4",
            "0x0000000000000000000000000000000000000000000000000000000000000000"
          ],
          "data": "0x00000000000000000000000000000000000000000000002697b37c68f70a9f62",
          "blockHash": "0x95c59f36f782338c38aaed68e3e53e10f3978b1f124aaf221ef808c6707a8384",
          "blockNumber": "0x7255e0",
          "transactionHash": "0xc2a49c69936bcb664eba8f78201c5c86bf4b87a49f2227e1efd6c806eadbc6c3",
          "transactionIndex": "0x2a",
          "logIndex": "0x156",
          "removed": false
        },
        {
          "address": "0x270e88f8683660553e8ba4eb2ad7c91a1710d769",
          "topics": [
            "0x4afcb4a87cdbd9974efdb92ee48bc8d7cd0ae4bf217004db3d080cbaee652ca7"
          ],
          "data": "0x000000000000000000000000000000000000000000000000000000006786f8880000000000000000000000000000000000000000000000000004f4e6729327a40000000000000000000000000000000000000000000000000dc82597562bb1a7",
          "blockHash": "0x95c59f36f782338c38aaed68e3e53e10f3978b1f124aaf221ef808c6707a8384",
          "blockNumber": "0x7255e0",
          "transactionHash": "0xc2a49c69936bcb664eba8f78201c5c86bf4b87a49f2227e1efd6c806eadbc6c3",
          "transactionIndex": "0x2a",
          "logIndex": "0x157",
          "removed": false
        }
      ],
      "logsBloom": "0x00000000000000000000000000000000000000000000000000000000000000000000000000000000000000000000000020000000000000004000000000000000000000000000000000000008000000000000000000000000000000000000000000000000020000000000000000000800020000000000000000000010000000000000000000010000000000000000000000000000000000000000010000000000000000000000000000000000000000004000000000000000000000000000000000000002000000800000000000000000000000000000080000008000000020000000000000000000000000000000000000000000000000000000000000000000",
      "type": "0x2",
      "transactionHash": "0xc2a49c69936bcb664eba8f78201c5c86bf4b87a49f2227e1efd6c806eadbc6c3",
      "transactionIndex": "0x2a",
      "blockHash": "0x95c59f36f782338c38aaed68e3e53e10f3978b1f124aaf221ef808c6707a8384",
      "blockNumber": "0x7255e0",
      "gasUsed": "0xfb93",
      "effectiveGasPrice": "0xc33413d2",
      "from": "0xc77f7fed3b5cc8249adc428c5f44c9063b9734b4",
      "to": "0x270e88f8683660553e8ba4eb2ad7c91a1710d769",
      "contractAddress": null
    }
  ],
  "libraries": [],
  "pending": [],
  "returns": {},
  "timestamp": 1736898697,
  "chain": 11155111,
  "commit": "51a374b"
}