{
  "transactions": [
    {
      "hash": "0xa4df55d5d55c2d6f80b49c85b102058bf57d96319b3099f59b602fc486c67a91",
      "transactionType": "CALL",
      "contractName": null,
      "contractAddress": "0x8aafd3ede9adb0ff97c7aebce82a919afb1c8764",
      "function": "sell(uint256)",
      "arguments": [
        "5460573297"
      ],
      "transaction": {
        "from": "0xc77f7fed3b5cc8249adc428c5f44c9063b9734b4",
        "to": "0x8aafd3ede9adb0ff97c7aebce82a919afb1c8764",
        "gas": "0x1722a",
        "value": "0x0",
        "input": "0xe4849b32000000000000000000000000000000000000000000000000000000014579bc71",
        "nonce": "0x166c",
        "chainId": "0xaa36a7"
      },
      "additionalContracts": [],
      "isFixedGasLimit": false
    }
  ],
  "receipts": [
    {
      "status": "0x1",
      "cumulativeGasUsed": "0xec5bb7",
      "logs": [
        {
          "address": "0x8aafd3ede9adb0ff97c7aebce82a919afb1c8764",
          "topics": [
            "0xddf252ad1be2c89b69c2b068fc378daa952ba7f163c4a11628f55a4df523b3ef",
            "0x000000000000000000000000c77f7fed3b5cc8249adc428c5f44c9063b9734b4",
            "0x0000000000000000000000000000000000000000000000000000000000000000"
          ],
          "data": "0x0000000000000000000000000000000000000000000000000000000142df2987",
          "blockHash": "0x723882d7e5669d42f19e31bd809c7e8ce6a09b9c8fe6f9712ac8da661696dc37",
          "blockNumber": "0x731e1b",
          "transactionHash": "0xa4df55d5d55c2d6f80b49c85b102058bf57d96319b3099f59b602fc486c67a91",
          "transactionIndex": "0x73",
          "logIndex": "0xd3",
          "removed": false
        },
        {
          "address": "0x8aafd3ede9adb0ff97c7aebce82a919afb1c8764",
          "topics": [
            "0xddf252ad1be2c89b69c2b068fc378daa952ba7f163c4a11628f55a4df523b3ef",
            "0x000000000000000000000000c77f7fed3b5cc8249adc428c5f44c9063b9734b4",
            "0x000000000000000000000000c77f7fed3b5cc8249adc428c5f44c9063b9734b4"
          ],
          "data": "0x00000000000000000000000000000000000000000000000000000000029a92ea",
          "blockHash": "0x723882d7e5669d42f19e31bd809c7e8ce6a09b9c8fe6f9712ac8da661696dc37",
          "blockNumber": "0x731e1b",
          "transactionHash": "0xa4df55d5d55c2d6f80b49c85b102058bf57d96319b3099f59b602fc486c67a91",
          "transactionIndex": "0x73",
          "logIndex": "0xd4",
          "removed": false
        },
        {
          "address": "0x8aafd3ede9adb0ff97c7aebce82a919afb1c8764",
          "topics": [
            "0x4afcb4a87cdbd9974efdb92ee48bc8d7cd0ae4bf217004db3d080cbaee652ca7"
          ],
          "data": "0x000000000000000000000000000000000000000000000000000000006790662c0000000000000000000000000000000000000000000000000015465f7fe309be0000000000000000000000000000000000000000000000000000000001f2f5b2",
          "blockHash": "0x723882d7e5669d42f19e31bd809c7e8ce6a09b9c8fe6f9712ac8da661696dc37",
          "blockNumber": "0x731e1b",
          "transactionHash": "0xa4df55d5d55c2d6f80b49c85b102058bf57d96319b3099f59b602fc486c67a91",
          "transactionIndex": "0x73",
          "logIndex": "0xd5",
          "removed": false
        }
      ],
      "logsBloom": "0x00000000000000000000000000000000000000000600000000000000000000000000000000000000000000000000000000000000000000004000000000000000000000000000004000000008000000000000000000000000000000000000000000000000020000000000000000000800020000000000000000000010000000000000000000000000000000000000000000000000000000000000010000000000000000000000000000000000000000004000000000000000000000000000000000000002000000800000000000000000000000000000080000000000000020000000000000000000000000000000000000000000000000000000000000000000",
      "type": "0x2",
      "transactionHash": "0xa4df55d5d55c2d6f80b49c85b102058bf57d96319b3099f59b602fc486c67a91",
      "transactionIndex": "0x73",
      "blockHash": "0x723882d7e5669d42f19e31bd809c7e8ce6a09b9c8fe6f9712ac8da661696dc37",
      "blockNumber": "0x731e1b",
      "gasUsed": "0xfd1b",
      "effectiveGasPrice": "0x3bf33880",
      "from": "0xc77f7fed3b5cc8249adc428c5f44c9063b9734b4",
      "to": "0x8aafd3ede9adb0ff97c7aebce82a919afb1c8764",
      "contractAddress": null
    }
  ],
  "libraries": [],
  "pending": [],
  "returns": {},
  "timestamp": 1737516589,
  "chain": 11155111,
  "commit": "1d2fb70"
}