{
  "transactions": [
    {
      "hash": "0x0808090c9945eac22438de1ad474c7e93e527008224404298d6c721e5679fad1",
      "transactionType": "CALL",
      "contractName": null,
      "contractAddress": "0xbf4a322f1496e5c3d34a9bcdb4c60567b38c7de2",
      "function": "sell(uint256)",
      "arguments": [
        "991065439867196215119"
      ],
      "transaction": {
        "from": "0xc77f7fed3b5cc8249adc428c5f44c9063b9734b4",
        "to": "0xbf4a322f1496e5c3d34a9bcdb4c60567b38c7de2",
        "gas": "0x16fea",
        "value": "0x0",
        "input": "0xe4849b32000000000000000000000000000000000000000000000035b9cbbeab627d0f4f",
        "nonce": "0x8e9",
        "chainId": "0xaa36a7"
      },
      "additionalContracts": [],
      "isFixedGasLimit": false
    }
  ],
  "receipts": [
    {
      "status": "0x1",
      "cumulativeGasUsed": "0x9888f9",
      "logs": [
        {
          "address": "0xbf4a322f1496e5c3d34a9bcdb4c60567b38c7de2",
          "topics": [
            "0xddf252ad1be2c89b69c2b068fc378daa952ba7f163c4a11628f55a4df523b3ef",
            "0x000000000000000000000000c77f7fed3b5cc8249adc428c5f44c9063b9734b4",
            "0x0000000000000000000000000000000000000000000000000000000000000000"
          ],
          "data": "0x000000000000000000000000000000000000000000000035b9cbbeab627d0f4f",
          "blockHash": "0xd2383b80abde581d0b1d752210705ccd941cca4d1982e457697754143d8114b3",
          "blockNumber": "0x725860",
          "transactionHash": "0x0808090c9945eac22438de1ad474c7e93e527008224404298d6c721e5679fad1",
          "transactionIndex": "0x50",
          "logIndex": "0x8c",
          "removed": false
        },
        {
          "address": "0xbf4a322f1496e5c3d34a9bcdb4c60567b38c7de2",
          "topics": [
            "0x4afcb4a87cdbd9974efdb92ee48bc8d7cd0ae4bf217004db3d080cbaee652ca7"
          ],
          "data": "0x00000000000000000000000000000000000000000000000000000000678716ac00000000000000000000000000000000000000000000000000038f4c4c916bc60000000000000000000000000000000000000000000000000dc7e3fbcb1d1233",
          "blockHash": "0xd2383b80abde581d0b1d752210705ccd941cca4d1982e457697754143d8114b3",
          "blockNumber": "0x725860",
          "transactionHash": "0x0808090c9945eac22438de1ad474c7e93e527008224404298d6c721e5679fad1",
          "transactionIndex": "0x50",
          "logIndex": "0x8d",
          "removed": false
        }
      ],
      "logsBloom": "0x00000000000000000000000000000000000000000000000000000000000000000000000000000000000000000000000000000000000000004000000000000000000000000000000000000008000000000000001000000000000000000000000000000000020000000000000000000800020000000000000000000010000000000000000000000000000000000000000000000000000008000000010000000000000000000000000000000000000000004000000000000000000000000000000000000002000000800000000000001000000000000000080000000000000020000000000000000000000000000000000000000000000000000000000000000000",
      "type": "0x2",
      "transactionHash": "0x0808090c9945eac22438de1ad474c7e93e527008224404298d6c721e5679fad1",
      "transactionIndex": "0x50",
      "blockHash": "0xd2383b80abde581d0b1d752210705ccd941cca4d1982e457697754143d8114b3",
      "blockNumber": "0x725860",
      "gasUsed": "0xfb91",
      "effectiveGasPrice": "0x25b91d64",
      "from": "0xc77f7fed3b5cc8249adc428c5f44c9063b9734b4",
      "to": "0xbf4a322f1496e5c3d34a9bcdb4c60567b38c7de2",
      "contractAddress": null
    }
  ],
  "libraries": [],
  "pending": [],
  "returns": {},
  "timestamp": 1736906414,
  "chain": 11155111,
  "commit": "51a374b"
}