{
  "transactions": [
    {
      "hash": "0x281b67c44fda765bb05d241817fda27fb3359cec1594f884e16f8d0d32b92bc4",
      "transactionType": "CALL",
      "contractName": null,
      "contractAddress": "0x270e88f8683660553e8ba4eb2ad7c91a1710d769",
      "function": "buy(address)",
      "arguments": [
        "0xC77f7fed3b5Cc8249aDc428c5F44C9063B9734b4"
      ],
      "transaction": {
        "from": "0xc77f7fed3b5cc8249adc428c5f44c9063b9734b4",
        "to": "0x270e88f8683660553e8ba4eb2ad7c91a1710d769",
        "gas": "0x1b30c",
        "value": "0xde0b6b3a7640000",
        "input": "0xf088d547000000000000000000000000c77f7fed3b5cc8249adc428c5f44c9063b9734b4",
        "nonce": "0x590",
        "chainId": "0xaa36a7"
      },
      "additionalContracts": [],
      "isFixedGasLimit": false
    }
  ],
  "receipts": [
    {
      "status": "0x1",
      "cumulativeGasUsed": "0x218b391",
      "logs": [
        {
          "address": "0x270e88f8683660553e8ba4eb2ad7c91a1710d769",
          "topics": [
            "0xddf252ad1be2c89b69c2b068fc378daa952ba7f163c4a11628f55a4df523b3ef",
            "0x0000000000000000000000000000000000000000000000000000000000000000",
            "0x000000000000000000000000c77f7fed3b5cc8249adc428c5f44c9063b9734b4"
          ],
          "data": "0x00000000000000000000000000000000000000000000003417c7cc356dce7aa4",
          "blockHash": "0x5ed11c48eb534757c1ef12342f846020ad5beea638b332d92e6dd623f695ace9",
          "blockNumber": "0x725245",
          "transactionHash": "0x281b67c44fda765bb05d241817fda27fb3359cec1594f884e16f8d0d32b92bc4",
          "transactionIndex": "0x78",
          "logIndex": "0x169",
          "removed": false
        },
        {
          "address": "0x270e88f8683660553e8ba4eb2ad7c91a1710d769",
          "topics": [
            "0xddf252ad1be2c89b69c2b068fc378daa952ba7f163c4a11628f55a4df523b3ef",
            "0x0000000000000000000000000000000000000000000000000000000000000000",
            "0x000000000000000000000000c77f7fed3b5cc8249adc428c5f44c9063b9734b4"
          ],
          "data": "0x0000000000000000000000000000000000000000000000002873b03b8d28549c",
          "blockHash": "0x5ed11c48eb534757c1ef12342f846020ad5beea638b332d92e6dd623f695ace9",
          "blockNumber": "0x725245",
          "transactionHash": "0x281b67c44fda765bb05d241817fda27fb3359cec1594f884e16f8d0d32b92bc4",
          "transactionIndex": "0x78",
          "logIndex": "0x16a",
          "removed": false
        },
        {
          "address": "0x270e88f8683660553e8ba4eb2ad7c91a1710d769",
          "topics": [
            "0x4afcb4a87cdbd9974efdb92ee48bc8d7cd0ae4bf217004db3d080cbaee652ca7"
          ],
          "data": "0x000000000000000000000000000000000000000000000000000000006786cd2c0000000000000000000000000000000000000000000000000003a91963324d7b0000000000000000000000000000000000000000000000000de0b6b3a7640000",
          "blockHash": "0x5ed11c48eb534757c1ef12342f846020ad5beea638b332d92e6dd623f695ace9",
          "blockNumber": "0x725245",
          "transactionHash": "0x281b67c44fda765bb05d241817fda27fb3359cec1594f884e16f8d0d32b92bc4",
          "transactionIndex": "0x78",
          "logIndex": "0x16b",
          "removed": false
        }
      ],
      "logsBloom": "0x00000000000000000000000000000000000000000000000000000000000000000000000000000000000000000000000020000000000000004000000000000000000000000000000000000008000000000000000000000000000000000000000000000000020000000000000000000800020000000000000000000010000000000000000000010000000000000000000000000000000000000000010000000000000000000000000000000000000000004000000000000000000000000000000000000002000000800000000000000000000000000000080000008000000020000000000000000000000000000000000000000000000000000000000000000000",
      "type": "0x2",
      "transactionHash": "0x281b67c44fda765bb05d241817fda27fb3359cec1594f884e16f8d0d32b92bc4",
      "transactionIndex": "0x78",
      "blockHash": "0x5ed11c48eb534757c1ef12342f846020ad5beea638b332d92e6dd623f695ace9",
      "blockNumber": "0x725245",
      "gasUsed": "0x13af8",
      "effectiveGasPrice": "0x4a2228baf",
      "from": "0xc77f7fed3b5cc8249adc428c5f44c9063b9734b4",
      "to": "0x270e88f8683660553e8ba4eb2ad7c91a1710d769",
      "contractAddress": null
    }
  ],
  "libraries": [],
  "pending": [],
  "returns": {},
  "timestamp": 1736887598,
  "chain": 11155111,
  "commit": "51a374b"
}