{
  "transactions": [
    {
      "hash": "0x29703fc64df3187f2e5069bfd66670e5d2fb4c46f726d6313f2fa6b84468fda3",
      "transactionType": "CALL",
      "contractName": null,
      "contractAddress": "0x8aafd3ede9adb0ff97c7aebce82a919afb1c8764",
      "function": "sell(uint256)",
      "arguments": [
        "5687342304090804641"
      ],
      "transaction": {
        "from": "0xc77f7fed3b5cc8249adc428c5f44c9063b9734b4",
        "to": "0x8aafd3ede9adb0ff97c7aebce82a919afb1c8764",
        "gas": "0x15dca",
        "value": "0x0",
        "input": "0xe4849b320000000000000000000000000000000000000000000000004eed7fb1576251a1",
        "nonce": "0x1074",
        "chainId": "0xaa36a7"
      },
      "additionalContracts": [],
      "isFixedGasLimit": false
    }
  ],
  "receipts": [
    {
      "status": "0x1",
      "cumulativeGasUsed": "0x9e33e2",
      "logs": [
        {
          "address": "0x8aafd3ede9adb0ff97c7aebce82a919afb1c8764",
          "topics": [
            "0xddf252ad1be2c89b69c2b068fc378daa952ba7f163c4a11628f55a4df523b3ef",
            "0x000000000000000000000000c77f7fed3b5cc8249adc428c5f44c9063b9734b4",
            "0x0000000000000000000000000000000000000000000000000000000000000000"
          ],
          "data": "0x0000000000000000000000000000000000000000000000004e4bdad4c95f7bfc",
          "blockHash": "0xb644ad3c8b3091feff1ddc16a60c52418d9c220e4b4d8766b4d02995a20debbe",
          "blockNumber": "0x7316fc",
          "transactionHash": "0x29703fc64df3187f2e5069bfd66670e5d2fb4c46f726d6313f2fa6b84468fda3",
          "transactionIndex": "0x81",
          "logIndex": "0xa9",
          "removed": false
        },
        {
          "address": "0x8aafd3ede9adb0ff97c7aebce82a919afb1c8764",
          "topics": [
            "0xddf252ad1be2c89b69c2b068fc378daa952ba7f163c4a11628f55a4df523b3ef",
            "0x000000000000000000000000c77f7fed3b5cc8249adc428c5f44c9063b9734b4",
            "0x000000000000000000000000c77f7fed3b5cc8249adc428c5f44c9063b9734b4"
          ],
          "data": "0x00000000000000000000000000000000000000000000000000a1a4dc8e02d5a5",
          "blockHash": "0xb644ad3c8b3091feff1ddc16a60c52418d9c220e4b4d8766b4d02995a20debbe",
          "blockNumber": "0x7316fc",
          "transactionHash": "0x29703fc64df3187f2e5069bfd66670e5d2fb4c46f726d6313f2fa6b84468fda3",
          "transactionIndex": "0x81",
          "logIndex": "0xaa",
          "removed": false
        },
        {
          "address": "0x8aafd3ede9adb0ff97c7aebce82a919afb1c8764",
          "topics": [
            "0x4afcb4a87cdbd9974efdb92ee48bc8d7cd0ae4bf217004db3d080cbaee652ca7"
          ],
          "data": "0x00000000000000000000000000000000000000000000000000000000679010880000000000000000000000000000000000000000000000000004f7d351375ccc000000000000000000000000000000000000000000000000001c4142752dd5f4",
          "blockHash": "0xb644ad3c8b3091feff1ddc16a60c52418d9c220e4b4d8766b4d02995a20debbe",
          "blockNumber": "0x7316fc",
          "transactionHash": "0x29703fc64df3187f2e5069bfd66670e5d2fb4c46f726d6313f2fa6b84468fda3",
          "transactionIndex": "0x81",
          "logIndex": "0xab",
          "removed": false
        }
      ],
      "logsBloom": "0x00000000000000000000000000000000000000000600000000000000000000000000000000000000000000000000000000000000000000004000000000000000000000000000004000000008000000000000000000000000000000000000000000000000020000000000000000000800020000000000000000000010000000000000000000000000000000000000000000000000000000000000010000000000000000000000000000000000000000004000000000000000000000000000000000000002000000800000000000000000000000000000080000000000000020000000000000000000000000000000000000000000000000000000000000000000",
      "type": "0x2",
      "transactionHash": "0x29703fc64df3187f2e5069bfd66670e5d2fb4c46f726d6313f2fa6b84468fda3",
      "transactionIndex": "0x81",
      "blockHash": "0xb644ad3c8b3091feff1ddc16a60c52418d9c220e4b4d8766b4d02995a20debbe",
      "blockNumber": "0x7316fc",
      "gasUsed": "0xfd3f",
      "effectiveGasPrice": "0x4d23a3e5",
      "from": "0xc77f7fed3b5cc8249adc428c5f44c9063b9734b4",
      "to": "0x8aafd3ede9adb0ff97c7aebce82a919afb1c8764",
      "contractAddress": null
    }
  ],
  "libraries": [],
  "pending": [],
  "returns": {},
  "timestamp": 1737494665,
  "chain": 11155111,
  "commit": "1d2fb70"
}