{
  "transactions": [
    {
      "hash": "0x643bbb4f130e32349f6faf316e5480d46d841aad592f6528e65df44fe24e6c03",
      "transactionType": "CALL",
      "contractName": null,
      "contractAddress": "0xbf4a322f1496e5c3d34a9bcdb4c60567b38c7de2",
      "function": "sell(uint256)",
      "arguments": [
        "978002801679786091895"
      ],
      "transaction": {
        "from": "0xc77f7fed3b5cc8249adc428c5f44c9063b9734b4",
        "to": "0xbf4a322f1496e5c3d34a9bcdb4c60567b38c7de2",
        "gas": "0x16fea",
        "value": "0x0",
        "input": "0xe4849b320000000000000000000000000000000000000000000000350483ee726474a577",
        "nonce": "0xcad",
        "chainId": "0xaa36a7"
      },
      "additionalContracts": [],
      "isFixedGasLimit": false
    }
  ],
  "receipts": [
    {
      "status": "0x1",
      "cumulativeGasUsed": "0xa6619c",
      "logs": [
        {
          "address": "0xbf4a322f1496e5c3d34a9bcdb4c60567b38c7de2",
          "topics": [
            "0xddf252ad1be2c89b69c2b068fc378daa952ba7f163c4a11628f55a4df523b3ef",
            "0x000000000000000000000000c77f7fed3b5cc8249adc428c5f44c9063b9734b4",
            "0x0000000000000000000000000000000000000000000000000000000000000000"
          ],
          "data": "0x0000000000000000000000000000000000000000000000350483ee726474a577",
          "blockHash": "0x6366b832b76cc31b785cdbf20786976626bbc95a92d98d36e482a7408ebd7062",
          "blockNumber": "0x725cf9",
          "transactionHash": "0x643bbb4f130e32349f6faf316e5480d46d841aad592f6528e65df44fe24e6c03",
          "transactionIndex": "0x69",
          "logIndex": "0x9b",
          "removed": false
        },
        {
          "address": "0xbf4a322f1496e5c3d34a9bcdb4c60567b38c7de2",
          "topics": [
            "0x4afcb4a87cdbd9974efdb92ee48bc8d7cd0ae4bf217004db3d080cbaee652ca7"
          ],
          "data": "0x0000000000000000000000000000000000000000000000000000000067874e2000000000000000000000000000000000000000000000000000039b782b0058080000000000000000000000000000000000000000000000000dc7e3dd6c39d000",
          "blockHash": "0x6366b832b76cc31b785cdbf20786976626bbc95a92d98d36e482a7408ebd7062",
          "blockNumber": "0x725cf9",
          "transactionHash": "0x643bbb4f130e32349f6faf316e5480d46d841aad592f6528e65df44fe24e6c03",
          "transactionIndex": "0x69",
          "logIndex": "0x9c",
          "removed": false
        }
      ],
      "logsBloom": "0x00000000000000000000000000000000000000000000000000000000000000000000000000000000000000000000000000000000000000004000000000000000000000000000000000000008000000000000001000000000000000000000000000000000020000000000000000000800020000000000000000000010000000000000000000000000000000000000000000000000000008000000010000000000000000000000000000000000000000004000000000000000000000000000000000000002000000800000000000001000000000000000080000000000000020000000000000000000000000000000000000000000000000000000000000000000",
      "type": "0x2",
      "transactionHash": "0x643bbb4f130e32349f6faf316e5480d46d841aad592f6528e65df44fe24e6c03",
      "transactionIndex": "0x69",
      "blockHash": "0x6366b832b76cc31b785cdbf20786976626bbc95a92d98d36e482a7408ebd7062",
      "blockNumber": "0x725cf9",
      "gasUsed": "0xfb91",
      "effectiveGasPrice": "0x22d608e47",
      "from": "0xc77f7fed3b5cc8249adc428c5f44c9063b9734b4",
      "to": "0xbf4a322f1496e5c3d34a9bcdb4c60567b38c7de2",
      "contractAddress": null
    }
  ],
  "libraries": [],
  "pending": [],
  "returns": {},
  "timestamp": 1736920609,
  "chain": 11155111,
  "commit": "51a374b"
}