{
  "transactions": [
    {
      "hash": "0xd680a9e1ea3dde41511313ff0a8fa424a5eb7fcd3e9a2da686c2e66763a11823",
      "transactionType": "CALL",
      "contractName": null,
      "contractAddress": "0xbf4a322f1496e5c3d34a9bcdb4c60567b38c7de2",
      "function": "buy(address)",
      "arguments": [
        "0xC77f7fed3b5Cc8249aDc428c5F44C9063B9734b4"
      ],
      "transaction": {
        "from": "0xc77f7fed3b5cc8249adc428c5f44c9063b9734b4",
        "to": "0xbf4a322f1496e5c3d34a9bcdb4c60567b38c7de2",
        "gas": "0x1b309",
        "value": "0xde0b6b3a7640000",
        "input": "0xf088d547000000000000000000000000c77f7fed3b5cc8249adc428c5f44c9063b9734b4",
        "nonce": "0x9bc",
        "chainId": "0xaa36a7"
      },
      "additionalContracts": [],
      "isFixedGasLimit": false
    }
  ],
  "receipts": [
    {
      "status": "0x1",
      "cumulativeGasUsed": "0x1443d10",
      "logs": [
        {
          "address": "0xbf4a322f1496e5c3d34a9bcdb4c60567b38c7de2",
          "topics": [
            "0xddf252ad1be2c89b69c2b068fc378daa952ba7f163c4a11628f55a4df523b3ef",
            "0x0000000000000000000000000000000000000000000000000000000000000000",
            "0x000000000000000000000000c77f7fed3b5cc8249adc428c5f44c9063b9734b4"
          ],
          "data": "0x000000000000000000000000000000000000000000000035680b122e8d4f311b",
          "blockHash": "0x517f8491e33ccdf48ec9cac7ea0722d4431dc823006f2afbb868692a2dd85720",
          "blockNumber": "0x725967",
          "transactionHash": "0xd680a9e1ea3dde41511313ff0a8fa424a5eb7fcd3e9a2da686c2e66763a11823",
          "transactionIndex": "0x6a",
          "logIndex": "0xc9",
          "removed": false
        },
        {
          "address": "0xbf4a322f1496e5c3d34a9bcdb4c60567b38c7de2",
          "topics": [
            "0xddf252ad1be2c89b69c2b068fc378daa952ba7f163c4a11628f55a4df523b3ef",
            "0x0000000000000000000000000000000000000000000000000000000000000000",
            "0x000000000000000000000000c77f7fed3b5cc8249adc428c5f44c9063b9734b4"
          ],
          "data": "0x0000000000000000000000000000000000000000000000002978ced4a5c4ae17",
          "blockHash": "0x517f8491e33ccdf48ec9cac7ea0722d4431dc823006f2afbb868692a2dd85720",
          "blockNumber": "0x725967",
          "transactionHash": "0xd680a9e1ea3dde41511313ff0a8fa424a5eb7fcd3e9a2da686c2e66763a11823",
          "transactionIndex": "0x6a",
          "logIndex": "0xca",
          "removed": false
        },
        {
          "address": "0xbf4a322f1496e5c3d34a9bcdb4c60567b38c7de2",
          "topics": [
            "0x4afcb4a87cdbd9974efdb92ee48bc8d7cd0ae4bf217004db3d080cbaee652ca7"
          ],
          "data": "0x0000000000000000000000000000000000000000000000000000000067872300000000000000000000000000000000000000000000000000000391f564ca28e00000000000000000000000000000000000000000000000000de0b6b3a7640000",
          "blockHash": "0x517f8491e33ccdf48ec9cac7ea0722d4431dc823006f2afbb868692a2dd85720",
          "blockNumber": "0x725967",
          "transactionHash": "0xd680a9e1ea3dde41511313ff0a8fa424a5eb7fcd3e9a2da686c2e66763a11823",
          "transactionIndex": "0x6a",
          "logIndex": "0xcb",
          "removed": false
        }
      ],
      "logsBloom": "0x00000000000000000000000000000000000000000000000000000000000000000000000000000000000000000000000000000000000000004000000000000000000000000000000000000008000000000000001000000000000000000000000000000000020000000000000000000800020000000000000000000010000000000000000000000000000000000000000000000000000008000000010000000000000000000000000000000000000000004000000000000000000000000000000000000002000000800000000000001000000000000000080000000000000020000000000000000000000000000000000000000000000000000000000000000000",
      "type": "0x2",
      "transactionHash": "0xd680a9e1ea3dde41511313ff0a8fa424a5eb7fcd3e9a2da686c2e66763a11823",
      "transactionIndex": "0x6a",
      "blockHash": "0x517f8491e33ccdf48ec9cac7ea0722d4431dc823006f2afbb868692a2dd85720",
      "blockNumber": "0x725967",
      "gasUsed": "0x13af6",
      "effectiveGasPrice": "0x2d3a08d1f",
      "from": "0xc77f7fed3b5cc8249adc428c5f44c9063b9734b4",
      "to": "0xbf4a322f1496e5c3d34a9bcdb4c60567b38c7de2",
      "contractAddress": null
    }
  ],
  "libraries": [],
  "pending": [],
  "returns": {},
  "timestamp": 1736909570,
  "chain": 11155111,
  "commit": "51a374b"
}