{
  "transactions": [
    {
      "hash": "0x72dab9968064f8900b057baf525c8df93f4f92526ca69ac6086f1a9d557e1016",
      "transactionType": "CALL",
      "contractName": null,
      "contractAddress": "0x3b71253dcecbaf453f48043c75f311253fd0ad31",
      "function": "buy(address)",
      "arguments": [
        "0xC77f7fed3b5Cc8249aDc428c5F44C9063B9734b4"
      ],
      "transaction": {
        "from": "0xc77f7fed3b5cc8249adc428c5f44c9063b9734b4",
        "to": "0x3b71253dcecbaf453f48043c75f311253fd0ad31",
        "gas": "0x1b30c",
        "value": "0xde0b6b3a7640000",
        "input": "0xf088d547000000000000000000000000c77f7fed3b5cc8249adc428c5f44c9063b9734b4",
        "nonce": "0x4ca",
        "chainId": "0xaa36a7"
      },
      "additionalContracts": [],
      "isFixedGasLimit": false
    }
  ],
  "receipts": [
    {
      "status": "0x1",
      "cumulativeGasUsed": "0xea22a5",
      "logs": [
        {
          "address": "0x3b71253dcecbaf453f48043c75f311253fd0ad31",
          "topics": [
            "0xddf252ad1be2c89b69c2b068fc378daa952ba7f163c4a11628f55a4df523b3ef",
            "0x0000000000000000000000000000000000000000000000000000000000000000",
            "0x000000000000000000000000c77f7fed3b5cc8249adc428c5f44c9063b9734b4"
          ],
          "data": "0x00000000000000000000000000000000000000000000d189d2eb66c32d58d31f",
          "blockHash": "0xb324abd74afd75fda52ebe54fe103d58da688d69c5cab1e872797c8b9752aea1",
          "blockNumber": "0x72511b",
          "transactionHash": "0x72dab9968064f8900b057baf525c8df93f4f92526ca69ac6086f1a9d557e1016",
          "transactionIndex": "0x5d",
          "logIndex": "0x85",
          "removed": false
        },
        {
          "address": "0x3b71253dcecbaf453f48043c75f311253fd0ad31",
          "topics": [
            "0xddf252ad1be2c89b69c2b068fc378daa952ba7f163c4a11628f55a4df523b3ef",
            "0x0000000000000000000000000000000000000000000000000000000000000000",
            "0x000000000000000000000000c77f7fed3b5cc8249adc428c5f44c9063b9734b4"
          ],
          "data": "0x0000000000000000000000000000000000000000000000a2b6b4baedaafb9a3b",
          "blockHash": "0xb324abd74afd75fda52ebe54fe103d58da688d69c5cab1e872797c8b9752aea1",
          "blockNumber": "0x72511b",
          "transactionHash": "0x72dab9968064f8900b057baf525c8df93f4f92526ca69ac6086f1a9d557e1016",
          "transactionIndex": "0x5d",
          "logIndex": "0x86",
          "removed": false
        },
        {
          "address": "0x3b71253dcecbaf453f48043c75f311253fd0ad31",
          "topics": [
            "0x4afcb4a87cdbd9974efdb92ee48bc8d7cd0ae4bf217004db3d080cbaee652ca7"
          ],
          "data": "0x000000000000000000000000000000000000000000000000000000006786bf28000000000000000000000000000000000000000000000000000000e8f893a69f0000000000000000000000000000000000000000000000000de0b6b3a7640000",
          "blockHash": "0xb324abd74afd75fda52ebe54fe103d58da688d69c5cab1e872797c8b9752aea1",
          "blockNumber": "0x72511b",
          "transactionHash": "0x72dab9968064f8900b057baf525c8df93f4f92526ca69ac6086f1a9d557e1016",
          "transactionIndex": "0x5d",
          "logIndex": "0x87",
          "removed": false
        }
      ],
      "logsBloom": "0x00000000000000000000000000000000000000000000000000000000000000000000000000000000000000000000000000000000000000004000020000000000000000000000000000000008000000000000000000000000000000000000000000000000020000000000000000000800020000000000000000000010002000000000000000000000000000000000000000000000000000000000010000000000000000000000000000000000000000004000000000000000000000000000000000000002000000800000000000000000000000000000080000000000000020000000000000000000008000000000000000000000000000000000000000000000",
      "type": "0x2",
      "transactionHash": "0x72dab9968064f8900b057baf525c8df93f4f92526ca69ac6086f1a9d557e1016",
      "transactionIndex": "0x5d",
      "blockHash": "0xb324abd74afd75fda52ebe54fe103d58da688d69c5cab1e872797c8b9752aea1",
      "blockNumber": "0x72511b",
      "gasUsed": "0x13af8",
      "effectiveGasPrice": "0x2a9f64718",
      "from": "0xc77f7fed3b5cc8249adc428c5f44c9063b9734b4",
      "to": "0x3b71253dcecbaf453f48043c75f311253fd0ad31",
      "contractAddress": null
    }
  ],
  "libraries": [],
  "pending": [],
  "returns": {},
  "timestamp": 1736884009,
  "chain": 11155111,
  "commit": "51a374b"
}