{
  "transactions": [
    {
      "hash": "0xb62ec0e95502105d43bb3a585aee09d01229d3abead39a85ee9a4a569db22c29",
      "transactionType": "CALL",
      "contractName": null,
      "contractAddress": "0x8aafd3ede9adb0ff97c7aebce82a919afb1c8764",
      "function": "sell(uint256)",
      "arguments": [
        "49555455"
      ],
      "transaction": {
        "from": "0xc77f7fed3b5cc8249adc428c5f44c9063b9734b4",
        "to": "0x8aafd3ede9adb0ff97c7aebce82a919afb1c8764",
        "gas": "0x15d88",
        "value": "0x0",
        "input": "0xe4849b320000000000000000000000000000000000000000000000000000000002f427ff",
        "nonce": "0x1595",
        "chainId": "0xaa36a7"
      },
      "additionalContracts": [],
      "isFixedGasLimit": false
    }
  ],
  "receipts": [
    {
      "status": "0x1",
      "cumulativeGasUsed": "0x88f355",
      "logs": [
        {
          "address": "0x8aafd3ede9adb0ff97c7aebce82a919afb1c8764",
          "topics": [
            "0xddf252ad1be2c89b69c2b068fc378daa952ba7f163c4a11628f55a4df523b3ef",
            "0x000000000000000000000000c77f7fed3b5cc8249adc428c5f44c9063b9734b4",
            "0x0000000000000000000000000000000000000000000000000000000000000000"
          ],
          "data": "0x0000000000000000000000000000000000000000000000000000000002ee1b64",
          "blockHash": "0x04be7d053cf81aed68fc9fc64f2f1ea0db43384fed264ffbd33ac7a13732bf84",
          "blockNumber": "0x731d05",
          "transactionHash": "0xb62ec0e95502105d43bb3a585aee09d01229d3abead39a85ee9a4a569db22c29",
          "transactionIndex": "0x4c",
          "logIndex": "0xaf",
          "removed": false
        },
        {
          "address": "0x8aafd3ede9adb0ff97c7aebce82a919afb1c8764",
          "topics": [
            "0xddf252ad1be2c89b69c2b068fc378daa952ba7f163c4a11628f55a4df523b3ef",
            "0x000000000000000000000000c77f7fed3b5cc8249adc428c5f44c9063b9734b4",
            "0x000000000000000000000000c77f7fed3b5cc8249adc428c5f44c9063b9734b4"
          ],
          "data": "0x0000000000000000000000000000000000000000000000000000000000060c9b",
          "blockHash": "0x04be7d053cf81aed68fc9fc64f2f1ea0db43384fed264ffbd33ac7a13732bf84",
          "blockNumber": "0x731d05",
          "transactionHash": "0xb62ec0e95502105d43bb3a585aee09d01229d3abead39a85ee9a4a569db22c29",
          "transactionIndex": "0x4c",
          "logIndex": "0xb0",
          "removed": false
        },
        {
          "address": "0x8aafd3ede9adb0ff97c7aebce82a919afb1c8764",
          "topics": [
            "0x4afcb4a87cdbd9974efdb92ee48bc8d7cd0ae4bf217004db3d080cbaee652ca7"
          ],
          "data": "0x00000000000000000000000000000000000000000000000000000000679059240000000000000000000000000000000000000000000000000012c4280dbb2f46000000000000000000000000000000000000000000000000000000000003fe83",
          "blockHash": "0x04be7d053cf81aed68fc9fc64f2f1ea0db43384fed264ffbd33ac7a13732bf84",
          "blockNumber": "0x731d05",
          "transactionHash": "0xb62ec0e95502105d43bb3a585aee09d01229d3abead39a85ee9a4a569db22c29",
          "transactionIndex": "0x4c",
          "logIndex": "0xb1",
          "removed": false
        }
      ],
      "logsBloom": "0x00000000000000000000000000000000000000000600000000000000000000000000000000000000000000000000000000000000000000004000000000000000000000000000004000000008000000000000000000000000000000000000000000000000020000000000000000000800020000000000000000000010000000000000000000000000000000000000000000000000000000000000010000000000000000000000000000000000000000004000000000000000000000000000000000000002000000800000000000000000000000000000080000000000000020000000000000000000000000000000000000000000000000000000000000000000",
      "type": "0x2",
      "transactionHash": "0xb62ec0e95502105d43bb3a585aee09d01229d3abead39a85ee9a4a569db22c29",
      "transactionIndex": "0x4c",
      "blockHash": "0x04be7d053cf81aed68fc9fc64f2f1ea0db43384fed264ffbd33ac7a13732bf84",
      "blockNumber": "0x731d05",
      "gasUsed": "0xfd0f",
      "effectiveGasPrice": "0x70447566",
      "from": "0xc77f7fed3b5cc8249adc428c5f44c9063b9734b4",
      "to": "0x8aafd3ede9adb0ff97c7aebce82a919afb1c8764",
      "contractAddress": null
    }
  ],
  "libraries": [],
  "pending": [],
  "returns": {},
  "timestamp": 1737513252,
  "chain": 11155111,
  "commit": "1d2fb70"
}