{
  "transactions": [
    {
      "hash": "0xd6d0f325c108b5dfb039e2fafe5daa6cc0085b29aca6cbbf37df5275b5f05347",
      "transactionType": "CALL",
      "contractName": null,
      "contractAddress": "0x5eb9cc76c3506942c1c0ead70e877dd5e4f00cb0",
      "function": "buy(address)",
      "arguments": [
        "0xC77f7fed3b5Cc8249aDc428c5F44C9063B9734b4"
      ],
      "transaction": {
        "from": "0xc77f7fed3b5cc8249adc428c5f44c9063b9734b4",
        "to": "0x5eb9cc76c3506942c1c0ead70e877dd5e4f00cb0",
        "gas": "0x1b30c",
        "value": "0xde0b6b3a7640000",
        "input": "0xf088d547000000000000000000000000c77f7fed3b5cc8249adc428c5f44c9063b9734b4",
        "nonce": "0x42c",
        "chainId": "0xaa36a7"
      },
      "additionalContracts": [],
      "isFixedGasLimit": false
    }
  ],
  "receipts": [
    {
      "status": "0x1",
      "cumulativeGasUsed": "0xe847fd",
      "logs": [
        {
          "address": "0x5eb9cc76c3506942c1c0ead70e877dd5e4f00cb0",
          "topics": [
            "0xddf252ad1be2c89b69c2b068fc378daa952ba7f163c4a11628f55a4df523b3ef",
            "0x0000000000000000000000000000000000000000000000000000000000000000",
            "0x000000000000000000000000c77f7fed3b5cc8249adc428c5f44c9063b9734b4"
          ],
          "data": "0x00000000000000000000000000000000000000000000003574e962c970424555",
          "blockHash": "0x16f238094fe150097b1525a1d1cad112d97cde993f1b476175236ad1c3980938",
          "blockNumber": "0x725041",
          "transactionHash": "0xd6d0f325c108b5dfb039e2fafe5daa6cc0085b29aca6cbbf37df5275b5f05347",
          "transactionIndex": "0x8e",
          "logIndex": "0xd7",
          "removed": false
        },
        {
          "address": "0x5eb9cc76c3506942c1c0ead70e877dd5e4f00cb0",
          "topics": [
            "0xddf252ad1be2c89b69c2b068fc378daa952ba7f163c4a11628f55a4df523b3ef",
            "0x0000000000000000000000000000000000000000000000000000000000000000",
            "0x000000000000000000000000c77f7fed3b5cc8249adc428c5f44c9063b9734b4"
          ],
          "data": "0x0000000000000000000000000000000000000000000000002982ccfa7fecd198",
          "blockHash": "0x16f238094fe150097b1525a1d1cad112d97cde993f1b476175236ad1c3980938",
          "blockNumber": "0x725041",
          "transactionHash": "0xd6d0f325c108b5dfb039e2fafe5daa6cc0085b29aca6cbbf37df5275b5f05347",
          "transactionIndex": "0x8e",
          "logIndex": "0xd8",
          "removed": false
        },
        {
          "address": "0x5eb9cc76c3506942c1c0ead70e877dd5e4f00cb0",
          "topics": [
            "0x4afcb4a87cdbd9974efdb92ee48bc8d7cd0ae4bf217004db3d080cbaee652ca7"
          ],
          "data": "0x000000000000000000000000000000000000000000000000000000006786b4d80000000000000000000000000000000000000000000000000003911714c5936d0000000000000000000000000000000000000000000000000de0b6b3a7640000",
          "blockHash": "0x16f238094fe150097b1525a1d1cad112d97cde993f1b476175236ad1c3980938",
          "blockNumber": "0x725041",
          "transactionHash": "0xd6d0f325c108b5dfb039e2fafe5daa6cc0085b29aca6cbbf37df5275b5f05347",
          "transactionIndex": "0x8e",
          "logIndex": "0xd9",
          "removed": false
        }
      ],
      "logsBloom": "0x00000000000000000000000000000000000000000000000000000000000000000000000000000000000000000000000000000000000000004000000000000000000000000000000000000008000000000000000000000000000000000000000000000000020000000000000004000800020000000000000000000010000000000000000000000000000000000000000000000000000000000000010000000000000000000000000000000000000000004000000000000000000000000000020000000002000000800000008000000000000000000000080000000000000020000000000000000000000000000000000000000000000000000000000000000000",
      "type": "0x2",
      "transactionHash": "0xd6d0f325c108b5dfb039e2fafe5daa6cc0085b29aca6cbbf37df5275b5f05347",
      "transactionIndex": "0x8e",
      "blockHash": "0x16f238094fe150097b1525a1d1cad112d97cde993f1b476175236ad1c3980938",
      "blockNumber": "0x725041",
      "gasUsed": "0x13af8",
      "effectiveGasPrice": "0x275828b0c",
      "from": "0xc77f7fed3b5cc8249adc428c5f44c9063b9734b4",
      "to": "0x5eb9cc76c3506942c1c0ead70e877dd5e4f00cb0",
      "contractAddress": null
    }
  ],
  "libraries": [],
  "pending": [],
  "returns": {},
  "timestamp": 1736881369,
  "chain": 11155111,
  "commit": "51a374b"
}