{
  "transactions": [
    {
      "hash": "0x59cacd97483167f85f87a2a730eb76cdf902ebe680974d337fe1a172e7cd035c",
      "transactionType": "CALL",
      "contractName": null,
      "contractAddress": "0x8aafd3ede9adb0ff97c7aebce82a919afb1c8764",
      "function": "buy(address)",
      "arguments": [
        "0xC77f7fed3b5Cc8249aDc428c5F44C9063B9734b4"
      ],
      "transaction": {
        "from": "0xc77f7fed3b5cc8249adc428c5f44c9063b9734b4",
        "to": "0x8aafd3ede9adb0ff97c7aebce82a919afb1c8764",
        "gas": "0x156ea",
        "value": "0xde0b6b3a7640000",
        "input": "0xf088d547000000000000000000000000c77f7fed3b5cc8249adc428c5f44c9063b9734b4",
        "nonce": "0x12fc",
        "chainId": "0xaa36a7"
      },
      "additionalContracts": [],
      "isFixedGasLimit": false
    }
  ],
  "receipts": [
    {
      "status": "0x1",
      "cumulativeGasUsed": "0x792b33",
      "logs": [
        {
          "address": "0x8aafd3ede9adb0ff97c7aebce82a919afb1c8764",
          "topics": [
            "0xddf252ad1be2c89b69c2b068fc378daa952ba7f163c4a11628f55a4df523b3ef",
            "0x0000000000000000000000000000000000000000000000000000000000000000",
            "0x000000000000000000000000c77f7fed3b5cc8249adc428c5f44c9063b9734b4"
          ],
          "data": "0x000000000000000000000000000000000000000000000023c385494b8512cf5f",
          "blockHash": "0xdadabac934aaafd021057ff9a520735d9c0f60c1c5f9dfda877871297043cbc5",
          "blockNumber": "0x731a03",
          "transactionHash": "0x59cacd97483167f85f87a2a730eb76cdf902ebe680974d337fe1a172e7cd035c",
          "transactionIndex": "0x63",
          "logIndex": "0x8c",
          "removed": false
        },
        {
          "address": "0x8aafd3ede9adb0ff97c7aebce82a919afb1c8764",
          "topics": [
            "0xddf252ad1be2c89b69c2b068fc378daa952ba7f163c4a11628f55a4df523b3ef",
            "0x0000000000000000000000000000000000000000000000000000000000000000",
            "0x000000000000000000000000c77f7fed3b5cc8249adc428c5f44c9063b9734b4"
          ],
          "data": "0x0000000000000000000000000000000000000000000000001bc592f6c7560ee6",
          "blockHash": "0xdadabac934aaafd021057ff9a520735d9c0f60c1c5f9dfda877871297043cbc5",
          "blockNumber": "0x731a03",
          "transactionHash": "0x59cacd97483167f85f87a2a730eb76cdf902ebe680974d337fe1a172e7cd035c",
          "transactionIndex": "0x63",
          "logIndex": "0x8d",
          "removed": false
        },
        {
          "address": "0x8aafd3ede9adb0ff97c7aebce82a919afb1c8764",
          "topics": [
            "0x4afcb4a87cdbd9974efdb92ee48bc8d7cd0ae4bf217004db3d080cbaee652ca7"
          ],
          "data": "0x00000000000000000000000000000000000000000000000000000000679034f400000000000000000000000000000000000000000000000000055538c24235c70000000000000000000000000000000000000000000000000de0b6b3a7640000",
          "blockHash": "0xdadabac934aaafd021057ff9a520735d9c0f60c1c5f9dfda877871297043cbc5",
          "blockNumber": "0x731a03",
          "transactionHash": "0x59cacd97483167f85f87a2a730eb76cdf902ebe680974d337fe1a172e7cd035c",
          "transactionIndex": "0x63",
          "logIndex": "0x8e",
          "removed": false
        }
      ],
      "logsBloom": "0x00000000000000000000000000000000000000000600000000000000000000000000000000000000000000000000000000000000000000004000000000000000000000000000004000000008000000000000000000000000000000000000000000000000020000000000000000000800020000000000000000000010000000000000000000000000000000000000000000000000000000000000010000000000000000000000000000000000000000004000000000000000000000000000000000000002000000800000000000000000000000000000080000000000000020000000000000000000000000000000000000000000000000000000000000000000",
      "type": "0x2",
      "transactionHash": "0x59cacd97483167f85f87a2a730eb76cdf902ebe680974d337fe1a172e7cd035c",
      "transactionIndex": "0x63",
      "blockHash": "0xdadabac934aaafd021057ff9a520735d9c0f60c1c5f9dfda877871297043cbc5",
      "blockNumber": "0x731a03",
      "gasUsed": "0xf844",
      "effectiveGasPrice": "0x4dadcea1",
      "from": "0xc77f7fed3b5cc8249adc428c5f44c9063b9734b4",
      "to": "0x8aafd3ede9adb0ff97c7aebce82a919afb1c8764",
      "contractAddress": null
    }
  ],
  "libraries": [],
  "pending": [],
  "returns": {},
  "timestamp": 1737503991,
  "chain": 11155111,
  "commit": "1d2fb70"
}