{
  "transactions": [
    {
      "hash": "0x6a950cf0fb40a6134e8b2628bffa3764df311425c2cf5eede5439f5293c3b57f",
      "transactionType": "CALL",
      "contractName": null,
      "contractAddress": "0x270e88f8683660553e8ba4eb2ad7c91a1710d769",
      "function": "buy(address)",
      "arguments": [
        "0xC77f7fed3b5Cc8249aDc428c5F44C9063B9734b4"
      ],
      "transaction": {
        "from": "0xc77f7fed3b5cc8249adc428c5f44c9063b9734b4",
        "to": "0x270e88f8683660553e8ba4eb2ad7c91a1710d769",
        "gas": "0x1b30c",
        "value": "0xde0b6b3a7640000",
        "input": "0xf088d547000000000000000000000000c77f7fed3b5cc8249adc428c5f44c9063b9734b4",
        "nonce": "0x556",
        "chainId": "0xaa36a7"
      },
      "additionalContracts": [],
      "isFixedGasLimit": false
    }
  ],
  "receipts": [
    {
      "status": "0x1",
      "cumulativeGasUsed": "0x7e8c6a",
      "logs": [
        {
          "address": "0x270e88f8683660553e8ba4eb2ad7c91a1710d769",
          "topics": [
            "0xddf252ad1be2c89b69c2b068fc378daa952ba7f163c4a11628f55a4df523b3ef",
            "0x0000000000000000000000000000000000000000000000000000000000000000",
            "0x000000000000000000000000c77f7fed3b5cc8249adc428c5f44c9063b9734b4"
          ],
          "data": "0x00000000000000000000000000000000000000000000003491a1c835fb9c3cfc",
          "blockHash": "0xa915d3a652c1bc291c4ec0f17894ed3225856d59fb4c9d537416ff29a1787540",
          "blockNumber": "0x7251f9",
          "transactionHash": "0x6a950cf0fb40a6134e8b2628bffa3764df311425c2cf5eede5439f5293c3b57f",
          "transactionIndex": "0x52",
          "logIndex": "0x87",
          "removed": false
        },
        {
          "address": "0x270e88f8683660553e8ba4eb2ad7c91a1710d769",
          "topics": [
            "0xddf252ad1be2c89b69c2b068fc378daa952ba7f163c4a11628f55a4df523b3ef",
            "0x0000000000000000000000000000000000000000000000000000000000000000",
            "0x000000000000000000000000c77f7fed3b5cc8249adc428c5f44c9063b9734b4"
          ],
          "data": "0x00000000000000000000000000000000000000000000000028d24f6ceed148b0",
          "blockHash": "0xa915d3a652c1bc291c4ec0f17894ed3225856d59fb4c9d537416ff29a1787540",
          "blockNumber": "0x7251f9",
          "transactionHash": "0x6a950cf0fb40a6134e8b2628bffa3764df311425c2cf5eede5439f5293c3b57f",
          "transactionIndex": "0x52",
          "logIndex": "0x88",
          "removed": false
        },
        {
          "address": "0x270e88f8683660553e8ba4eb2ad7c91a1710d769",
          "topics": [
            "0x4afcb4a87cdbd9974efdb92ee48bc8d7cd0ae4bf217004db3d080cbaee652ca7"
          ],
          "data": "0x000000000000000000000000000000000000000000000000000000006786c99c0000000000000000000000000000000000000000000000000003a09d7c61e9e80000000000000000000000000000000000000000000000000de0b6b3a7640000",
          "blockHash": "0xa915d3a652c1bc291c4ec0f17894ed3225856d59fb4c9d537416ff29a1787540",
          "blockNumber": "0x7251f9",
          "transactionHash": "0x6a950cf0fb40a6134e8b2628bffa3764df311425c2cf5eede5439f5293c3b57f",
          "transactionIndex": "0x52",
          "logIndex": "0x89",
          "removed": false
        }
      ],
      "logsBloom": "0x00000000000000000000000000000000000000000000000000000000000000000000000000000000000000000000000020000000000000004000000000000000000000000000000000000008000000000000000000000000000000000000000000000000020000000000000000000800020000000000000000000010000000000000000000010000000000000000000000000000000000000000010000000000000000000000000000000000000000004000000000000000000000000000000000000002000000800000000000000000000000000000080000008000000020000000000000000000000000000000000000000000000000000000000000000000",
      "type": "0x2",
      "transactionHash": "0x6a950cf0fb40a6134e8b2628bffa3764df311425c2cf5eede5439f5293c3b57f",
      "transactionIndex": "0x52",
      "blockHash": "0xa915d3a652c1bc291c4ec0f17894ed3225856d59fb4c9d537416ff29a1787540",
      "blockNumber": "0x7251f9",
      "gasUsed": "0x13af8",
      "effectiveGasPrice": "0x442c4c082",
      "from": "0xc77f7fed3b5cc8249adc428c5f44c9063b9734b4",
      "to": "0x270e88f8683660553e8ba4eb2ad7c91a1710d769",
      "contractAddress": null
    }
  ],
  "libraries": [],
  "pending": [],
  "returns": {},
  "timestamp": 1736886686,
  "chain": 11155111,
  "commit": "51a374b"
}