{
  "transactions": [
    {
      "hash": "0xf604a40d1fc01f6e2c71ac88fa95b614987aee35e20ceebcc72c8d54309618e6",
      "transactionType": "CALL",
      "contractName": null,
      "contractAddress": "0x270e88f8683660553e8ba4eb2ad7c91a1710d769",
      "function": "buy(address)",
      "arguments": [
        "0xC77f7fed3b5Cc8249aDc428c5F44C9063B9734b4"
      ],
      "transaction": {
        "from": "0xc77f7fed3b5cc8249adc428c5f44c9063b9734b4",
        "to": "0x270e88f8683660553e8ba4eb2ad7c91a1710d769",
        "gas": "0x1b30c",
        "value": "0xde0b6b3a7640000",
        "input": "0xf088d547000000000000000000000000c77f7fed3b5cc8249adc428c5f44c9063b9734b4",
        "nonce": "0x66f",
        "chainId": "0xaa36a7"
      },
      "additionalContracts": [],
      "isFixedGasLimit": false
    }
  ],
  "receipts": [
    {
      "status": "0x1",
      "cumulativeGasUsed": "0x7f3aae",
      "logs": [
        {
          "address": "0x270e88f8683660553e8ba4eb2ad7c91a1710d769",
          "topics": [
            "0xddf252ad1be2c89b69c2b068fc378daa952ba7f163c4a11628f55a4df523b3ef",
            "0x0000000000000000000000000000000000000000000000000000000000000000",
            "0x000000000000000000000000c77f7fed3b5cc8249adc428c5f44c9063b9734b4"
          ],
          "data": "0x000000000000000000000000000000000000000000000028fe71566f27e11291",
          "blockHash": "0xe17916baccff3b8da7a880609804f71aadb426f9c87e8eb5643f850f913b30ff",
          "blockNumber": "0x725369",
          "transactionHash": "0xf604a40d1fc01f6e2c71ac88fa95b614987aee35e20ceebcc72c8d54309618e6",
          "transactionIndex": "0x38",
          "logIndex": "0x68",
          "removed": false
        },
        {
          "address": "0x270e88f8683660553e8ba4eb2ad7c91a1710d769",
          "topics": [
            "0xddf252ad1be2c89b69c2b068fc378daa952ba7f163c4a11628f55a4df523b3ef",
            "0x0000000000000000000000000000000000000000000000000000000000000000",
            "0x000000000000000000000000c77f7fed3b5cc8249adc428c5f44c9063b9734b4"
          ],
          "data": "0x0000000000000000000000000000000000000000000000001fd54af10422b9d9",
          "blockHash": "0xe17916baccff3b8da7a880609804f71aadb426f9c87e8eb5643f850f913b30ff",
          "blockNumber": "0x725369",
          "transactionHash": "0xf604a40d1fc01f6e2c71ac88fa95b614987aee35e20ceebcc72c8d54309618e6",
          "transactionIndex": "0x38",
          "logIndex": "0x69",
          "removed": false
        },
        {
          "address": "0x270e88f8683660553e8ba4eb2ad7c91a1710d769",
          "topics": [
            "0x4afcb4a87cdbd9974efdb92ee48bc8d7cd0ae4bf217004db3d080cbaee652ca7"
          ],
          "data": "0x000000000000000000000000000000000000000000000000000000006786daf40000000000000000000000000000000000000000000000000004a6c9b6e42e2f0000000000000000000000000000000000000000000000000de0b6b3a7640000",
          "blockHash": "0xe17916baccff3b8da7a880609804f71aadb426f9c87e8eb5643f850f913b30ff",
          "blockNumber": "0x725369",
          "transactionHash": "0xf604a40d1fc01f6e2c71ac88fa95b614987aee35e20ceebcc72c8d54309618e6",
          "transactionIndex": "0x38",
          "logIndex": "0x6a",
          "removed": false
        }
      ],
      "logsBloom": "0x00000000000000000000000000000000000000000000000000000000000000000000000000000000000000000000000020000000000000004000000000000000000000000000000000000008000000000000000000000000000000000000000000000000020000000000000000000800020000000000000000000010000000000000000000010000000000000000000000000000000000000000010000000000000000000000000000000000000000004000000000000000000000000000000000000002000000800000000000000000000000000000080000008000000020000000000000000000000000000000000000000000000000000000000000000000",
      "type": "0x2",
      "transactionHash": "0xf604a40d1fc01f6e2c71ac88fa95b614987aee35e20ceebcc72c8d54309618e6",
      "transactionIndex": "0x38",
      "blockHash": "0xe17916baccff3b8da7a880609804f71aadb426f9c87e8eb5643f850f913b30ff",
      "blockNumber": "0x725369",
      "gasUsed": "0x13af8",
      "effectiveGasPrice": "0x28914e995",
      "from": "0xc77f7fed3b5cc8249adc428c5f44c9063b9734b4",
      "to": "0x270e88f8683660553e8ba4eb2ad7c91a1710d769",
      "contractAddress": null
    }
  ],
  "libraries": [],
  "pending": [],
  "returns": {},
  "timestamp": 1736891125,
  "chain": 11155111,
  "commit": "51a374b"
}