{
  "transactions": [
    {
      "hash": "0x04749c9be8206bad4aa6856af96c2040d6467e558fd811650061ff8bc9eb773e",
      "transactionType": "CALL",
      "contractName": null,
      "contractAddress": "0x8aafd3ede9adb0ff97c7aebce82a919afb1c8764",
      "function": "buy(address)",
      "arguments": [
        "0xC77f7fed3b5Cc8249aDc428c5F44C9063B9734b4"
      ],
      "transaction": {
        "from": "0xc77f7fed3b5cc8249adc428c5f44c9063b9734b4",
        "to": "0x8aafd3ede9adb0ff97c7aebce82a919afb1c8764",
        "gas": "0x156ea",
        "value": "0xde0b6b3a7640000",
        "input": "0xf088d547000000000000000000000000c77f7fed3b5cc8249adc428c5f44c9063b9734b4",
        "nonce": "0x1144",
        "chainId": "0xaa36a7"
      },
      "additionalContracts": [],
      "isFixedGasLimit": false
    }
  ],
  "receipts": [
    {
      "status": "0x1",
      "cumulativeGasUsed": "0xd07619",
      "logs": [
        {
          "address": "0x8aafd3ede9adb0ff97c7aebce82a919afb1c8764",
          "topics": [
            "0xddf252ad1be2c89b69c2b068fc378daa952ba7f163c4a11628f55a4df523b3ef",
            "0x0000000000000000000000000000000000000000000000000000000000000000",
            "0x000000000000000000000000c77f7fed3b5cc8249adc428c5f44c9063b9734b4"
          ],
          "data": "0x00000000000000000000000000000000000000000000002585810e5be21d477a",
          "blockHash": "0xa894f8be0083bd520010fcc3305aee07b865aad7ea325262445c390c716510ca",
          "blockNumber": "0x7317fd",
          "transactionHash": "0x04749c9be8206bad4aa6856af96c2040d6467e558fd811650061ff8bc9eb773e",
          "transactionIndex": "0xa0",
          "logIndex": "0xdf",
          "removed": false
        },
        {
          "address": "0x8aafd3ede9adb0ff97c7aebce82a919afb1c8764",
          "topics": [
            "0xddf252ad1be2c89b69c2b068fc378daa952ba7f163c4a11628f55a4df523b3ef",
            "0x0000000000000000000000000000000000000000000000000000000000000000",
            "0x000000000000000000000000c77f7fed3b5cc8249adc428c5f44c9063b9734b4"
          ],
          "data": "0x0000000000000000000000000000000000000000000000001d2300689530b526",
          "blockHash": "0xa894f8be0083bd520010fcc3305aee07b865aad7ea325262445c390c716510ca",
          "blockNumber": "0x7317fd",
          "transactionHash": "0x04749c9be8206bad4aa6856af96c2040d6467e558fd811650061ff8bc9eb773e",
          "transactionIndex": "0xa0",
          "logIndex": "0xe0",
          "removed": false
        },
        {
          "address": "0x8aafd3ede9adb0ff97c7aebce82a919afb1c8764",
          "topics": [
            "0x4afcb4a87cdbd9974efdb92ee48bc8d7cd0ae4bf217004db3d080cbaee652ca7"
          ],
          "data": "0x0000000000000000000000000000000000000000000000000000000067901ca000000000000000000000000000000000000000000000000000051548ca6827660000000000000000000000000000000000000000000000000de0b6b3a7640000",
          "blockHash": "0xa894f8be0083bd520010fcc3305aee07b865aad7ea325262445c390c716510ca",
          "blockNumber": "0x7317fd",
          "transactionHash": "0x04749c9be8206bad4aa6856af96c2040d6467e558fd811650061ff8bc9eb773e",
          "transactionIndex": "0xa0",
          "logIndex": "0xe1",
          "removed": false
        }
      ],
      "logsBloom": "0x00000000000000000000000000000000000000000600000000000000000000000000000000000000000000000000000000000000000000004000000000000000000000000000004000000008000000000000000000000000000000000000000000000000020000000000000000000800020000000000000000000010000000000000000000000000000000000000000000000000000000000000010000000000000000000000000000000000000000004000000000000000000000000000000000000002000000800000000000000000000000000000080000000000000020000000000000000000000000000000000000000000000000000000000000000000",
      "type": "0x2",
      "transactionHash": "0x04749c9be8206bad4aa6856af96c2040d6467e558fd811650061ff8bc9eb773e",
      "transactionIndex": "0xa0",
      "blockHash": "0xa894f8be0083bd520010fcc3305aee07b865aad7ea325262445c390c716510ca",
      "blockNumber": "0x7317fd",
      "gasUsed": "0xf844",
      "effectiveGasPrice": "0x369e1e23",
      "from": "0xc77f7fed3b5cc8249adc428c5f44c9063b9734b4",
      "to": "0x8aafd3ede9adb0ff97c7aebce82a919afb1c8764",
      "contractAddress": null
    }
  ],
  "libraries": [],
  "pending": [],
  "returns": {},
  "timestamp": 1737497763,
  "chain": 11155111,
  "commit": "1d2fb70"
}