{
  "transactions": [
    {
      "hash": "0xae377b794f64ab10c4ec82e94f819db9ef3fc179e022acca094bd4163a3a9b7a",
      "transactionType": "CALL",
      "contractName": null,
      "contractAddress": "0x8aafd3ede9adb0ff97c7aebce82a919afb1c8764",
      "function": "sell(uint256)",
      "arguments": [
        "701296721111741513116"
      ],
      "transaction": {
        "from": "0xc77f7fed3b5cc8249adc428c5f44c9063b9734b4",
        "to": "0x8aafd3ede9adb0ff97c7aebce82a919afb1c8764",
        "gas": "0x17270",
        "value": "0x0",
        "input": "0xe4849b3200000000000000000000000000000000000000000000002604727438cb8a3d9c",
        "nonce": "0x10eb",
        "chainId": "0xaa36a7"
      },
      "additionalContracts": [],
      "isFixedGasLimit": false
    }
  ],
  "receipts": [
    {
      "status": "0x1",
      "cumulativeGasUsed": "0xadf2ee",
      "logs": [
        {
          "address": "0x8aafd3ede9adb0ff97c7aebce82a919afb1c8764",
          "topics": [
            "0xddf252ad1be2c89b69c2b068fc378daa952ba7f163c4a11628f55a4df523b3ef",
            "0x000000000000000000000000c77f7fed3b5cc8249adc428c5f44c9063b9734b4",
            "0x0000000000000000000000000000000000000000000000000000000000000000"
          ],
          "data": "0x000000000000000000000000000000000000000000000025b69667010b729b54",
          "blockHash": "0x0b8cebe1977d080a38b04e6dad983e0ba2c8bc56c20ad00807d04a26253f0043",
          "blockNumber": "0x731790",
          "transactionHash": "0xae377b794f64ab10c4ec82e94f819db9ef3fc179e022acca094bd4163a3a9b7a",
          "transactionIndex": "0x71",
          "logIndex": "0x8e",
          "removed": false
        },
        {
          "address": "0x8aafd3ede9adb0ff97c7aebce82a919afb1c8764",
          "topics": [
            "0xddf252ad1be2c89b69c2b068fc378daa952ba7f163c4a11628f55a4df523b3ef",
            "0x000000000000000000000000c77f7fed3b5cc8249adc428c5f44c9063b9734b4",
            "0x000000000000000000000000c77f7fed3b5cc8249adc428c5f44c9063b9734b4"
          ],
          "data": "0x0000000000000000000000000000000000000000000000004ddc0d37c017a248",
          "blockHash": "0x0b8cebe1977d080a38b04e6dad983e0ba2c8bc56c20ad00807d04a26253f0043",
          "blockNumber": "0x731790",
          "transactionHash": "0xae377b794f64ab10c4ec82e94f819db9ef3fc179e022acca094bd4163a3a9b7a",
          "transactionIndex": "0x71",
          "logIndex": "0x8f",
          "removed": false
        },
        {
          "address": "0x8aafd3ede9adb0ff97c7aebce82a919afb1c8764",
          "topics": [
            "0x4afcb4a87cdbd9974efdb92ee48bc8d7cd0ae4bf217004db3d080cbaee652ca7"
          ],
          "data": "0x00000000000000000000000000000000000000000000000000000000679017840000000000000000000000000000000000000000000000000005093ee1f6acf80000000000000000000000000000000000000000000000000dc8fa289fb1b9a3",
          "blockHash": "0x0b8cebe1977d080a38b04e6dad983e0ba2c8bc56c20ad00807d04a26253f0043",
          "blockNumber": "0x731790",
          "transactionHash": "0xae377b794f64ab10c4ec82e94f819db9ef3fc179e022acca094bd4163a3a9b7a",
          "transactionIndex": "0x71",
          "logIndex": "0x90",
          "removed": false
        }
      ],
      "logsBloom": "0x00000000000000000000000000000000000000000600000000000000000000000000000000000000000000000000000000000000000000004000000000000000000000000000004000000008000000000000000000000000000000000000000000000000020000000000000000000800020000000000000000000010000000000000000000000000000000000000000000000000000000000000010000000000000000000000000000000000000000004000000000000000000000000000000000000002000000800000000000000000000000000000080000000000000020000000000000000000000000000000000000000000000000000000000000000000",
      "type": "0x2",
      "transactionHash": "0xae377b794f64ab10c4ec82e94f819db9ef3fc179e022acca094bd4163a3a9b7a",
      "transactionIndex": "0x71",
      "blockHash": "0x0b8cebe1977d080a38b04e6dad983e0ba2c8bc56c20ad00807d04a26253f0043",
      "blockNumber": "0x731790",
      "gasUsed": "0xfd4b",
      "effectiveGasPrice": "0x40646523",
      "from": "0xc77f7fed3b5cc8249adc428c5f44c9063b9734b4",
      "to": "0x8aafd3ede9adb0ff97c7aebce82a919afb1c8764",
      "contractAddress": null
    }
  ],
  "libraries": [],
  "pending": [],
  "returns": {},
  "timestamp": 1737496452,
  "chain": 11155111,
  "commit": "1d2fb70"
}