{
  "transactions": [
    {
      "hash": "0xe5bff0d601b66be27121197c2e8a4080df00f824d5b6a672ba56192fdedcabd1",
      "transactionType": "CALL",
      "contractName": null,
      "contractAddress": "0x5eb9cc76c3506942c1c0ead70e877dd5e4f00cb0",
      "function": "buy(address)",
      "arguments": [
        "0xC77f7fed3b5Cc8249aDc428c5F44C9063B9734b4"
      ],
      "transaction": {
        "from": "0xc77f7fed3b5cc8249adc428c5f44c9063b9734b4",
        "to": "0x5eb9cc76c3506942c1c0ead70e877dd5e4f00cb0",
        "gas": "0x1b30c",
        "value": "0xde0b6b3a7640000",
        "input": "0xf088d547000000000000000000000000c77f7fed3b5cc8249adc428c5f44c9063b9734b4",
        "nonce": "0x2ae",
        "chainId": "0xaa36a7"
      },
      "additionalContracts": [],
      "isFixedGasLimit": false
    }
  ],
  "receipts": [
    {
      "status": "0x1",
      "cumulativeGasUsed": "0xf46da8",
      "logs": [
        {
          "address": "0x5eb9cc76c3506942c1c0ead70e877dd5e4f00cb0",
          "topics": [
            "0xddf252ad1be2c89b69c2b068fc378daa952ba7f163c4a11628f55a4df523b3ef",
            "0x0000000000000000000000000000000000000000000000000000000000000000",
            "0x000000000000000000000000c77f7fed3b5cc8249adc428c5f44c9063b9734b4"
          ],
          "data": "0x00000000000000000000000000000000000000000000003575c1019f0ef410e7",
          "blockHash": "0x0d8cc9d45a8c807c8f8f5aa97f27d8511c921da90375c0e8c969f330c86760fb",
          "blockNumber": "0x724e89",
          "transactionHash": "0xe5bff0d601b66be27121197c2e8a4080df00f824d5b6a672ba56192fdedcabd1",
          "transactionIndex": "0x6b",
          "logIndex": "0x100",
          "removed": false
        },
        {
          "address": "0x5eb9cc76c3506942c1c0ead70e877dd5e4f00cb0",
          "topics": [
            "0xddf252ad1be2c89b69c2b068fc378daa952ba7f163c4a11628f55a4df523b3ef",
            "0x0000000000000000000000000000000000000000000000000000000000000000",
            "0x000000000000000000000000c77f7fed3b5cc8249adc428c5f44c9063b9734b4"
          ],
          "data": "0x0000000000000000000000000000000000000000000000002983746a47093e4e",
          "blockHash": "0x0d8cc9d45a8c807c8f8f5aa97f27d8511c921da90375c0e8c969f330c86760fb",
          "blockNumber": "0x724e89",
          "transactionHash": "0xe5bff0d601b66be27121197c2e8a4080df00f824d5b6a672ba56192fdedcabd1",
          "transactionIndex": "0x6b",
          "logIndex": "0x101",
          "removed": false
        },
        {
          "address": "0x5eb9cc76c3506942c1c0ead70e877dd5e4f00cb0",
          "topics": [
            "0x4afcb4a87cdbd9974efdb92ee48bc8d7cd0ae4bf217004db3d080cbaee652ca7"
          ],
          "data": "0x000000000000000000000000000000000000000000000000000000006786a02000000000000000000000000000000000000000000000000000039108b20007b50000000000000000000000000000000000000000000000000de0b6b3a7640000",
          "blockHash": "0x0d8cc9d45a8c807c8f8f5aa97f27d8511c921da90375c0e8c969f330c86760fb",
          "blockNumber": "0x724e89",
          "transactionHash": "0xe5bff0d601b66be27121197c2e8a4080df00f824d5b6a672ba56192fdedcabd1",
          "transactionIndex": "0x6b",
          "logIndex": "0x102",
          "removed": false
        }
      ],
      "logsBloom": "0x00000000000000000000000000000000000000000000000000000000000000000000000000000000000000000000000000000000000000004000000000000000000000000000000000000008000000000000000000000000000000000000000000000000020000000000000004000800020000000000000000000010000000000000000000000000000000000000000000000000000000000000010000000000000000000000000000000000000000004000000000000000000000000000020000000002000000800000008000000000000000000000080000000000000020000000000000000000000000000000000000000000000000000000000000000000",
      "type": "0x2",
      "transactionHash": "0xe5bff0d601b66be27121197c2e8a4080df00f824d5b6a672ba56192fdedcabd1",
      "transactionIndex": "0x6b",
      "blockHash": "0x0d8cc9d45a8c807c8f8f5aa97f27d8511c921da90375c0e8c969f330c86760fb",
      "blockNumber": "0x724e89",
      "gasUsed": "0x13af8",
      "effectiveGasPrice": "0x4433b8d30",
      "from": "0xc77f7fed3b5cc8249adc428c5f44c9063b9734b4",
      "to": "0x5eb9cc76c3506942c1c0ead70e877dd5e4f00cb0",
      "contractAddress": null
    }
  ],
  "libraries": [],
  "pending": [],
  "returns": {},
  "timestamp": 1736876066,
  "chain": 11155111,
  "commit": "51a374b"
}