{
  "transactions": [
    {
      "hash": "0x848d525db0d79474c6f501b5f3332bbf3ef51660db2c3de6259066a001c92eab",
      "transactionType": "CALL",
      "contractName": null,
      "contractAddress": "0x8aafd3ede9adb0ff97c7aebce82a919afb1c8764",
      "function": "sell(uint256)",
      "arguments": [
        "5433670331"
      ],
      "transaction": {
        "from": "0xc77f7fed3b5cc8249adc428c5f44c9063b9734b4",
        "to": "0x8aafd3ede9adb0ff97c7aebce82a919afb1c8764",
        "gas": "0x1722a",
        "value": "0x0",
        "input": "0xe4849b320000000000000000000000000000000000000000000000000000000143df3abb",
        "nonce": "0x1675",
        "chainId": "0xaa36a7"
      },
      "additionalContracts": [],
      "isFixedGasLimit": false
    }
  ],
  "receipts": [
    {
      "status": "0x1",
      "cumulativeGasUsed": "0xc40d24",
      "logs": [
        {
          "address": "0x8aafd3ede9adb0ff97c7aebce82a919afb1c8764",
          "topics": [
            "0xddf252ad1be2c89b69c2b068fc378daa952ba7f163c4a11628f55a4df523b3ef",
            "0x000000000000000000000000c77f7fed3b5cc8249adc428c5f44c9063b9734b4",
            "0x0000000000000000000000000000000000000000000000000000000000000000"
          ],
          "data": "0x000000000000000000000000000000000000000000000000000000014147f089",
          "blockHash": "0xa011f89d991545a58b2de47da867508006f2ce989ed25e208a2aeaed8dbf846d",
          "blockNumber": "0x731e26",
          "transactionHash": "0x848d525db0d79474c6f501b5f3332bbf3ef51660db2c3de6259066a001c92eab",
          "transactionIndex": "0x80",
          "logIndex": "0xb0",
          "removed": false
        },
        {
          "address": "0x8aafd3ede9adb0ff97c7aebce82a919afb1c8764",
          "topics": [
            "0xddf252ad1be2c89b69c2b068fc378daa952ba7f163c4a11628f55a4df523b3ef",
            "0x000000000000000000000000c77f7fed3b5cc8249adc428c5f44c9063b9734b4",
            "0x000000000000000000000000c77f7fed3b5cc8249adc428c5f44c9063b9734b4"
          ],
          "data": "0x0000000000000000000000000000000000000000000000000000000002974a32",
          "blockHash": "0xa011f89d991545a58b2de47da867508006f2ce989ed25e208a2aeaed8dbf846d",
          "blockNumber": "0x731e26",
          "transactionHash": "0x848d525db0d79474c6f501b5f3332bbf3ef51660db2c3de6259066a001c92eab",
          "transactionIndex": "0x80",
          "logIndex": "0xb1",
          "removed": false
        },
        {
          "address": "0x8aafd3ede9adb0ff97c7aebce82a919afb1c8764",
          "topics": [
            "0x4afcb4a87cdbd9974efdb92ee48bc8d7cd0ae4bf217004db3d080cbaee652ca7"
          ],
          "data": "0x00000000000000000000000000000000000000000000000000000000679066b000000000000000000000000000000000000000000000000000156136494a14230000000000000000000000000000000000000000000000000000000001f2f2bc",
          "blockHash": "0xa011f89d991545a58b2de47da867508006f2ce989ed25e208a2aeaed8dbf846d",
          "blockNumber": "0x731e26",
          "transactionHash": "0x848d525db0d79474c6f501b5f3332bbf3ef51660db2c3de6259066a001c92eab",
          "transactionIndex": "0x80",
          "logIndex": "0xb2",
          "removed": false
        }
      ],
      "logsBloom": "0x00000000000000000000000000000000000000000600000000000000000000000000000000000000000000000000000000000000000000004000000000000000000000000000004000000008000000000000000000000000000000000000000000000000020000000000000000000800020000000000000000000010000000000000000000000000000000000000000000000000000000000000010000000000000000000000000000000000000000004000000000000000000000000000000000000002000000800000000000000000000000000000080000000000000020000000000000000000000000000000000000000000000000000000000000000000",
      "type": "0x2",
      "transactionHash": "0x848d525db0d79474c6f501b5f3332bbf3ef51660db2c3de6259066a001c92eab",
      "transactionIndex": "0x80",
      "blockHash": "0xa011f89d991545a58b2de47da867508006f2ce989ed25e208a2aeaed8dbf846d",
      "blockNumber": "0x731e26",
      "gasUsed": "0xfd1b",
      "effectiveGasPrice": "0x4f61e82b",
      "from": "0xc77f7fed3b5cc8249adc428c5f44c9063b9734b4",
      "to": "0x8aafd3ede9adb0ff97c7aebce82a919afb1c8764",
      "contractAddress": null
    }
  ],
  "libraries": [],
  "pending": [],
  "returns": {},
  "timestamp": 1737516721,
  "chain": 11155111,
  "commit": "1d2fb70"
}