{
  "transactions": [
    {
      "hash": "0x0b57f6e84649801534698e86b81dd48c3eb0021d85043d2a35273f3b19e7abb0",
      "transactionType": "CALL",
      "contractName": null,
      "contractAddress": "0x5eb9cc76c3506942c1c0ead70e877dd5e4f00cb0",
      "function": "buy(address)",
      "arguments": [
        "0xC77f7fed3b5Cc8249aDc428c5F44C9063B9734b4"
      ],
      "transaction": {
        "from": "0xc77f7fed3b5cc8249adc428c5f44c9063b9734b4",
        "to": "0x5eb9cc76c3506942c1c0ead70e877dd5e4f00cb0",
        "gas": "0x1b30c",
        "value": "0xde0b6b3a7640000",
        "input": "0xf088d547000000000000000000000000c77f7fed3b5cc8249adc428c5f44c9063b9734b4",
        "nonce": "0x2c8",
        "chainId": "0xaa36a7"
      },
      "additionalContracts": [],
      "isFixedGasLimit": false
    }
  ],
  "receipts": [
    {
      "status": "0x1",
      "cumulativeGasUsed": "0xdd812a",
      "logs": [
        {
          "address": "0x5eb9cc76c3506942c1c0ead70e877dd5e4f00cb0",
          "topics": [
            "0xddf252ad1be2c89b69c2b068fc378daa952ba7f163c4a11628f55a4df523b3ef",
            "0x0000000000000000000000000000000000000000000000000000000000000000",
            "0x000000000000000000000000c77f7fed3b5cc8249adc428c5f44c9063b9734b4"
          ],
          "data": "0x00000000000000000000000000000000000000000000003575b2546ac6e5462c",
          "blockHash": "0x5ebd0c8fe63de9450d59b4a0246d2fd15d93b9751373500d4fd254a87ba4207c",
          "blockNumber": "0x724ea4",
          "transactionHash": "0x0b57f6e84649801534698e86b81dd48c3eb0021d85043d2a35273f3b19e7abb0",
          "transactionIndex": "0x62",
          "logIndex": "0xbb",
          "removed": false
        },
        {
          "address": "0x5eb9cc76c3506942c1c0ead70e877dd5e4f00cb0",
          "topics": [
            "0xddf252ad1be2c89b69c2b068fc378daa952ba7f163c4a11628f55a4df523b3ef",
            "0x0000000000000000000000000000000000000000000000000000000000000000",
            "0x000000000000000000000000c77f7fed3b5cc8249adc428c5f44c9063b9734b4"
          ],
          "data": "0x00000000000000000000000000000000000000000000000029836904ae24a624",
          "blockHash": "0x5ebd0c8fe63de9450d59b4a0246d2fd15d93b9751373500d4fd254a87ba4207c",
          "blockNumber": "0x724ea4",
          "transactionHash": "0x0b57f6e84649801534698e86b81dd48c3eb0021d85043d2a35273f3b19e7abb0",
          "transactionIndex": "0x62",
          "logIndex": "0xbc",
          "removed": false
        },
        {
          "address": "0x5eb9cc76c3506942c1c0ead70e877dd5e4f00cb0",
          "topics": [
            "0x4afcb4a87cdbd9974efdb92ee48bc8d7cd0ae4bf217004db3d080cbaee652ca7"
          ],
          "data": "0x000000000000000000000000000000000000000000000000000000006786a16400000000000000000000000000000000000000000000000000039109aca8f3ba0000000000000000000000000000000000000000000000000de0b6b3a7640000",
          "blockHash": "0x5ebd0c8fe63de9450d59b4a0246d2fd15d93b9751373500d4fd254a87ba4207c",
          "blockNumber": "0x724ea4",
          "transactionHash": "0x0b57f6e84649801534698e86b81dd48c3eb0021d85043d2a35273f3b19e7abb0",
          "transactionIndex": "0x62",
          "logIndex": "0xbd",
          "removed": false
        }
      ],
      "logsBloom": "0x00000000000000000000000000000000000000000000000000000000000000000000000000000000000000000000000000000000000000004000000000000000000000000000000000000008000000000000000000000000000000000000000000000000020000000000000004000800020000000000000000000010000000000000000000000000000000000000000000000000000000000000010000000000000000000000000000000000000000004000000000000000000000000000020000000002000000800000008000000000000000000000080000000000000020000000000000000000000000000000000000000000000000000000000000000000",
      "type": "0x2",
      "transactionHash": "0x0b57f6e84649801534698e86b81dd48c3eb0021d85043d2a35273f3b19e7abb0",
      "transactionIndex": "0x62",
      "blockHash": "0x5ebd0c8fe63de9450d59b4a0246d2fd15d93b9751373500d4fd254a87ba4207c",
      "blockNumber": "0x724ea4",
      "gasUsed": "0x13af8",
      "effectiveGasPrice": "0x4ac6c6ae5",
      "from": "0xc77f7fed3b5cc8249adc428c5f44c9063b9734b4",
      "to": "0x5eb9cc76c3506942c1c0ead70e877dd5e4f00cb0",
      "contractAddress": null
    }
  ],
  "libraries": [],
  "pending": [],
  "returns": {},
  "timestamp": 1736876389,
  "chain": 11155111,
  "commit": "51a374b"
}