{
  "transactions": [
    {
      "hash": "0xe7ac88d7588c56561a6825a5f1ff8b334db366f1db48e05346bac989e61b3c3b",
      "transactionType": "CALL",
      "contractName": null,
      "contractAddress": "0x8aafd3ede9adb0ff97c7aebce82a919afb1c8764",
      "function": "sell(uint256)",
      "arguments": [
        "5517026144026300580"
      ],
      "transaction": {
        "from": "0xc77f7fed3b5cc8249adc428c5f44c9063b9734b4",
        "to": "0x8aafd3ede9adb0ff97c7aebce82a919afb1c8764",
        "gas": "0x15dca",
        "value": "0x0",
        "input": "0xe4849b320000000000000000000000000000000000000000000000004c906a0c2b3b10a4",
        "nonce": "0x1182",
        "chainId": "0xaa36a7"
      },
      "additionalContracts": [],
      "isFixedGasLimit": false
    }
  ],
  "receipts": [
    {
      "status": "0x1",
      "cumulativeGasUsed": "0x1cc8865",
      "logs": [
        {
          "address": "0x8aafd3ede9adb0ff97c7aebce82a919afb1c8764",
          "topics": [
            "0xddf252ad1be2c89b69c2b068fc378daa952ba7f163c4a11628f55a4df523b3ef",
            "0x000000000000000000000000c77f7fed3b5cc8249adc428c5f44c9063b9734b4",
            "0x0000000000000000000000000000000000000000000000000000000000000000"
          ],
          "data": "0x0000000000000000000000000000000000000000000000004bf39c662efb1ac0",
          "blockHash": "0x5716d32c7877283cf49d578ce8a4b7bdb65e4622594abbc3333479dd4668e654",
          "blockNumber": "0x731845",
          "transactionHash": "0xe7ac88d7588c56561a6825a5f1ff8b334db366f1db48e05346bac989e61b3c3b",
          "transactionIndex": "0xc9",
          "logIndex": "0x8a3",
          "removed": false
        },
        {
          "address": "0x8aafd3ede9adb0ff97c7aebce82a919afb1c8764",
          "topics": [
            "0xddf252ad1be2c89b69c2b068fc378daa952ba7f163c4a11628f55a4df523b3ef",
            "0x000000000000000000000000c77f7fed3b5cc8249adc428c5f44c9063b9734b4",
            "0x000000000000000000000000c77f7fed3b5cc8249adc428c5f44c9063b9734b4"
          ],
          "data": "0x000000000000000000000000000000000000000000000000009ccda5fc3ff5e4",
          "blockHash": "0x5716d32c7877283cf49d578ce8a4b7bdb65e4622594abbc3333479dd4668e654",
          "blockNumber": "0x731845",
          "transactionHash": "0xe7ac88d7588c56561a6825a5f1ff8b334db366f1db48e05346bac989e61b3c3b",
          "transactionIndex": "0xc9",
          "logIndex": "0x8a4",
          "removed": false
        },
        {
          "address": "0x8aafd3ede9adb0ff97c7aebce82a919afb1c8764",
          "topics": [
            "0x4afcb4a87cdbd9974efdb92ee48bc8d7cd0ae4bf217004db3d080cbaee652ca7"
          ],
          "data": "0x000000000000000000000000000000000000000000000000000000006790200000000000000000000000000000000000000000000000000000051f0b319a518a000000000000000000000000000000000000000000000000001c41044c8a588c",
          "blockHash": "0x5716d32c7877283cf49d578ce8a4b7bdb65e4622594abbc3333479dd4668e654",
          "blockNumber": "0x731845",
          "transactionHash": "0xe7ac88d7588c56561a6825a5f1ff8b334db366f1db48e05346bac989e61b3c3b",
          "transactionIndex": "0xc9",
          "logIndex": "0x8a5",
          "removed": false
        }
      ],
      "logsBloom": "0x00000000000000000000000000000000000000000600000000000000000000000000000000000000000000000000000000000000000000004000000000000000000000000000004000000008000000000000000000000000000000000000000000000000020000000000000000000800020000000000000000000010000000000000000000000000000000000000000000000000000000000000010000000000000000000000000000000000000000004000000000000000000000000000000000000002000000800000000000000000000000000000080000000000000020000000000000000000000000000000000000000000000000000000000000000000",
      "type": "0x2",
      "transactionHash": "0xe7ac88d7588c56561a6825a5f1ff8b334db366f1db48e05346bac989e61b3c3b",
      "transactionIndex": "0xc9",
      "blockHash": "0x5716d32c7877283cf49d578ce8a4b7bdb65e4622594abbc3333479dd4668e654",
      "blockNumber": "0x731845",
      "gasUsed": "0xfd3f",
      "effectiveGasPrice": "0x3f2f1602",
      "from": "0xc77f7fed3b5cc8249adc428c5f44c9063b9734b4",
      "to": "0x8aafd3ede9adb0ff97c7aebce82a919afb1c8764",
      "contractAddress": null
    }
  ],
  "libraries": [],
  "pending": [],
  "returns": {},
  "timestamp": 1737498626,
  "chain": 11155111,
  "commit": "1d2fb70"
}