{
  "transactions": [
    {
      "hash": "0x172ab754fe7a21415584bf2ac2fb668e5abf9825f870151d7f8c72fcb01be266",
      "transactionType": "CALL",
      "contractName": null,
      "contractAddress": "0xbf4a322f1496e5c3d34a9bcdb4c60567b38c7de2",
      "function": "buy(address)",
      "arguments": [
        "0xC77f7fed3b5Cc8249aDc428c5F44C9063B9734b4"
      ],
      "transaction": {
        "from": "0xc77f7fed3b5cc8249adc428c5f44c9063b9734b4",
        "to": "0xbf4a322f1496e5c3d34a9bcdb4c60567b38c7de2",
        "gas": "0x1b309",
        "value": "0xde0b6b3a7640000",
        "input": "0xf088d547000000000000000000000000c77f7fed3b5cc8249adc428c5f44c9063b9734b4",
        "nonce": "0xb86",
        "chainId": "0xaa36a7"
      },
      "additionalContracts": [],
      "isFixedGasLimit": false
    }
  ],
  "receipts": [
    {
      "status": "0x1",
      "cumulativeGasUsed": "0x1020c3b",
      "logs": [
        {
          "address": "0xbf4a322f1496e5c3d34a9bcdb4c60567b38c7de2",
          "topics": [
            "0xddf252ad1be2c89b69c2b068fc378daa952ba7f163c4a11628f55a4df523b3ef",
            "0x0000000000000000000000000000000000000000000000000000000000000000",
            "0x000000000000000000000000c77f7fed3b5cc8249adc428c5f44c9063b9734b4"
          ],
          "data": "0x00000000000000000000000000000000000000000000003512152654ac8e86c3",
          "blockHash": "0xba5e29d0eb07a7cf645e98cf1ab217771e43385ea8b4e492eb9e9949e0070aaf",
          "blockNumber": "0x725b95",
          "transactionHash": "0x172ab754fe7a21415584bf2ac2fb668e5abf9825f870151d7f8c72fcb01be266",
          "transactionIndex": "0x63",
          "logIndex": "0x9d",
          "removed": false
        },
        {
          "address": "0xbf4a322f1496e5c3d34a9bcdb4c60567b38c7de2",
          "topics": [
            "0xddf252ad1be2c89b69c2b068fc378daa952ba7f163c4a11628f55a4df523b3ef",
            "0x0000000000000000000000000000000000000000000000000000000000000000",
            "0x000000000000000000000000c77f7fed3b5cc8249adc428c5f44c9063b9734b4"
          ],
          "data": "0x00000000000000000000000000000000000000000000000029360e7b6e4165ad",
          "blockHash": "0xba5e29d0eb07a7cf645e98cf1ab217771e43385ea8b4e492eb9e9949e0070aaf",
          "blockNumber": "0x725b95",
          "transactionHash": "0x172ab754fe7a21415584bf2ac2fb668e5abf9825f870151d7f8c72fcb01be266",
          "transactionIndex": "0x63",
          "logIndex": "0x9e",
          "removed": false
        },
        {
          "address": "0xbf4a322f1496e5c3d34a9bcdb4c60567b38c7de2",
          "topics": [
            "0x4afcb4a87cdbd9974efdb92ee48bc8d7cd0ae4bf217004db3d080cbaee652ca7"
          ],
          "data": "0x0000000000000000000000000000000000000000000000000000000067873d58000000000000000000000000000000000000000000000000000397bdc115f0f50000000000000000000000000000000000000000000000000de0b6b3a7640000",
          "blockHash": "0xba5e29d0eb07a7cf645e98cf1ab217771e43385ea8b4e492eb9e9949e0070aaf",
          "blockNumber": "0x725b95",
          "transactionHash": "0x172ab754fe7a21415584bf2ac2fb668e5abf9825f870151d7f8c72fcb01be266",
          "transactionIndex": "0x63",
          "logIndex": "0x9f",
          "removed": false
        }
      ],
      "logsBloom": "0x00000000000000000000000000000000000000000000000000000000000000000000000000000000000000000000000000000000000000004000000000000000000000000000000000000008000000000000001000000000000000000000000000000000020000000000000000000800020000000000000000000010000000000000000000000000000000000000000000000000000008000000010000000000000000000000000000000000000000004000000000000000000000000000000000000002000000800000000000001000000000000000080000000000000020000000000000000000000000000000000000000000000000000000000000000000",
      "type": "0x2",
      "transactionHash": "0x172ab754fe7a21415584bf2ac2fb668e5abf9825f870151d7f8c72fcb01be266",
      "transactionIndex": "0x63",
      "blockHash": "0xba5e29d0eb07a7cf645e98cf1ab217771e43385ea8b4e492eb9e9949e0070aaf",
      "blockNumber": "0x725b95",
      "gasUsed": "0x13af6",
      "effectiveGasPrice": "0x42bf186b",
      "from": "0xc77f7fed3b5cc8249adc428c5f44c9063b9734b4",
      "to": "0xbf4a322f1496e5c3d34a9bcdb4c60567b38c7de2",
      "contractAddress": null
    }
  ],
  "libraries": [],
  "pending": [],
  "returns": {},
  "timestamp": 1736916313,
  "chain": 11155111,
  "commit": "51a374b"
}