{
  "transactions": [
    {
      "hash": "0x27cc4083994951096738fbc5460026bea15a48c9f11c2c81ecb055b204fd5063",
      "transactionType": "CALL",
      "contractName": null,
      "contractAddress": "0x8aafd3ede9adb0ff97c7aebce82a919afb1c8764",
      "function": "sell(uint256)",
      "arguments": [
        "5572660597478093477"
      ],
      "transaction": {
        "from": "0xc77f7fed3b5cc8249adc428c5f44c9063b9734b4",
        "to": "0x8aafd3ede9adb0ff97c7aebce82a919afb1c8764",
        "gas": "0x15dca",
        "value": "0x0",
        "input": "0xe4849b320000000000000000000000000000000000000000000000004d561149c67f72a5",
        "nonce": "0x1128",
        "chainId": "0xaa36a7"
      },
      "additionalContracts": [],
      "isFixedGasLimit": false
    }
  ],
  "receipts": [
    {
      "status": "0x1",
      "cumulativeGasUsed": "0x122d700",
      "logs": [
        {
          "address": "0x8aafd3ede9adb0ff97c7aebce82a919afb1c8764",
          "topics": [
            "0xddf252ad1be2c89b69c2b068fc378daa952ba7f163c4a11628f55a4df523b3ef",
            "0x000000000000000000000000c77f7fed3b5cc8249adc428c5f44c9063b9734b4",
            "0x0000000000000000000000000000000000000000000000000000000000000000"
          ],
          "data": "0x0000000000000000000000000000000000000000000000004cb7aed88b90dc3a",
          "blockHash": "0xf0923dce1ca1a209a4464549738cd3625bbc1e66802e0ce8ebef6410c9a61233",
          "blockNumber": "0x7317de",
          "transactionHash": "0x27cc4083994951096738fbc5460026bea15a48c9f11c2c81ecb055b204fd5063",
          "transactionIndex": "0xb5",
          "logIndex": "0xcb",
          "removed": false
        },
        {
          "address": "0x8aafd3ede9adb0ff97c7aebce82a919afb1c8764",
          "topics": [
            "0xddf252ad1be2c89b69c2b068fc378daa952ba7f163c4a11628f55a4df523b3ef",
            "0x000000000000000000000000c77f7fed3b5cc8249adc428c5f44c9063b9734b4",
            "0x000000000000000000000000c77f7fed3b5cc8249adc428c5f44c9063b9734b4"
          ],
          "data": "0x000000000000000000000000000000000000000000000000009e62713aee966b",
          "blockHash": "0xf0923dce1ca1a209a4464549738cd3625bbc1e66802e0ce8ebef6410c9a61233",
          "blockNumber": "0x7317de",
          "transactionHash": "0x27cc4083994951096738fbc5460026bea15a48c9f11c2c81ecb055b204fd5063",
          "transactionIndex": "0xb5",
          "logIndex": "0xcc",
          "removed": false
        },
        {
          "address": "0x8aafd3ede9adb0ff97c7aebce82a919afb1c8764",
          "topics": [
            "0x4afcb4a87cdbd9974efdb92ee48bc8d7cd0ae4bf217004db3d080cbaee652ca7"
          ],
          "data": "0x0000000000000000000000000000000000000000000000000000000067901b2c000000000000000000000000000000000000000000000000000511f8233c4b2a000000000000000000000000000000000000000000000000001c41189bca3616",
          "blockHash": "0xf0923dce1ca1a209a4464549738cd3625bbc1e66802e0ce8ebef6410c9a61233",
          "blockNumber": "0x7317de",
          "transactionHash": "0x27cc4083994951096738fbc5460026bea15a48c9f11c2c81ecb055b204fd5063",
          "transactionIndex": "0xb5",
          "logIndex": "0xcd",
          "removed": false
        }
      ],
      "logsBloom": "0x00000000000000000000000000000000000000000600000000000000000000000000000000000000000000000000000000000000000000004000000000000000000000000000004000000008000000000000000000000000000000000000000000000000020000000000000000000800020000000000000000000010000000000000000000000000000000000000000000000000000000000000010000000000000000000000000000000000000000004000000000000000000000000000000000000002000000800000000000000000000000000000080000000000000020000000000000000000000000000000000000000000000000000000000000000000",
      "type": "0x2",
      "transactionHash": "0x27cc4083994951096738fbc5460026bea15a48c9f11c2c81ecb055b204fd5063",
      "transactionIndex": "0xb5",
      "blockHash": "0xf0923dce1ca1a209a4464549738cd3625bbc1e66802e0ce8ebef6410c9a61233",
      "blockNumber": "0x7317de",
      "gasUsed": "0xfd3f",
      "effectiveGasPrice": "0x3ba45dc5",
      "from": "0xc77f7fed3b5cc8249adc428c5f44c9063b9734b4",
      "to": "0x8aafd3ede9adb0ff97c7aebce82a919afb1c8764",
      "contractAddress": null
    }
  ],
  "libraries": [],
  "pending": [],
  "returns": {},
  "timestamp": 1737497389,
  "chain": 11155111,
  "commit": "1d2fb70"
}