{
  "transactions": [
    {
      "hash": "0x27f457069472f492cfeff2e47110f6ac9f96e03984ad060aa9a4c4becf65b940",
      "transactionType": "CALL",
      "contractName": null,
      "contractAddress": "0x270e88f8683660553e8ba4eb2ad7c91a1710d769",
      "function": "sell(uint256)",
      "arguments": [
        "746560251933032860299"
      ],
      "transaction": {
        "from": "0xc77f7fed3b5cc8249adc428c5f44c9063b9734b4",
        "to": "0x270e88f8683660553e8ba4eb2ad7c91a1710d769",
        "gas": "0x16fec",
        "value": "0x0",
        "input": "0xe4849b32000000000000000000000000000000000000000000000028789ad1aff68e4a8b",
        "nonce": "0x6f2",
        "chainId": "0xaa36a7"
      },
      "additionalContracts": [],
      "isFixedGasLimit": false
    }
  ],
  "receipts": [
    {
      "status": "0x1",
      "cumulativeGasUsed": "0x111b321",
      "logs": [
        {
          "address": "0x270e88f8683660553e8ba4eb2ad7c91a1710d769",
          "topics": [
            "0xddf252ad1be2c89b69c2b068fc378daa952ba7f163c4a11628f55a4df523b3ef",
            "0x000000000000000000000000c77f7fed3b5cc8249adc428c5f44c9063b9734b4",
            "0x0000000000000000000000000000000000000000000000000000000000000000"
          ],
          "data": "0x000000000000000000000000000000000000000000000028789ad1aff68e4a8b",
          "blockHash": "0xb9bd837fdac9651ac2bbc8d0a6166fddc877371b5b2413920f3aad44ccba835c",
          "blockNumber": "0x725406",
          "transactionHash": "0x27f457069472f492cfeff2e47110f6ac9f96e03984ad060aa9a4c4becf65b940",
          "transactionIndex": "0x3f",
          "logIndex": "0x68",
          "removed": false
        },
        {
          "address": "0x270e88f8683660553e8ba4eb2ad7c91a1710d769",
          "topics": [
            "0x4afcb4a87cdbd9974efdb92ee48bc8d7cd0ae4bf217004db3d080cbaee652ca7"
          ],
          "data": "0x000000000000000000000000000000000000000000000000000000006786e2500000000000000000000000000000000000000000000000000004ba0407bc093f0000000000000000000000000000000000000000000000000dc8292dc3db4947",
          "blockHash": "0xb9bd837fdac9651ac2bbc8d0a6166fddc877371b5b2413920f3aad44ccba835c",
          "blockNumber": "0x725406",
          "transactionHash": "0x27f457069472f492cfeff2e47110f6ac9f96e03984ad060aa9a4c4becf65b940",
          "transactionIndex": "0x3f",
          "logIndex": "0x69",
          "removed": false
        }
      ],
      "logsBloom": "0x00000000000000000000000000000000000000000000000000000000000000000000000000000000000000000000000020000000000000004000000000000000000000000000000000000008000000000000000000000000000000000000000000000000020000000000000000000800020000000000000000000010000000000000000000010000000000000000000000000000000000000000010000000000000000000000000000000000000000004000000000000000000000000000000000000002000000800000000000000000000000000000080000008000000020000000000000000000000000000000000000000000000000000000000000000000",
      "type": "0x2",
      "transactionHash": "0x27f457069472f492cfeff2e47110f6ac9f96e03984ad060aa9a4c4becf65b940",
      "transactionIndex": "0x3f",
      "blockHash": "0xb9bd837fdac9651ac2bbc8d0a6166fddc877371b5b2413920f3aad44ccba835c",
      "blockNumber": "0x725406",
      "gasUsed": "0xfb93",
      "effectiveGasPrice": "0x1576b2333",
      "from": "0xc77f7fed3b5cc8249adc428c5f44c9063b9734b4",
      "to": "0x270e88f8683660553e8ba4eb2ad7c91a1710d769",
      "contractAddress": null
    }
  ],
  "libraries": [],
  "pending": [],
  "returns": {},
  "timestamp": 1736893009,
  "chain": 11155111,
  "commit": "51a374b"
}