{
  "transactions": [
    {
      "hash": "0xf449545b1ae9b881c8e4eaead6391388f29c83028d73b4b1a2ac50a69bf2e4e8",
      "transactionType": "CALL",
      "contractName": null,
      "contractAddress": "0x8aafd3ede9adb0ff97c7aebce82a919afb1c8764",
      "function": "sell(uint256)",
      "arguments": [
        "3057559295553"
      ],
      "transaction": {
        "from": "0xc77f7fed3b5cc8249adc428c5f44c9063b9734b4",
        "to": "0x8aafd3ede9adb0ff97c7aebce82a919afb1c8764",
        "gas": "0x15daa",
        "value": "0x0",
        "input": "0xe4849b32000000000000000000000000000000000000000000000000000002c7e4bc5641",
        "nonce": "0xee6",
        "chainId": "0xaa36a7"
      },
      "additionalContracts": [],
      "isFixedGasLimit": false
    }
  ],
  "receipts": [
    {
      "status": "0x1",
      "cumulativeGasUsed": "0xfb4bba",
      "logs": [
        {
          "address": "0x8aafd3ede9adb0ff97c7aebce82a919afb1c8764",
          "topics": [
            "0xddf252ad1be2c89b69c2b068fc378daa952ba7f163c4a11628f55a4df523b3ef",
            "0x000000000000000000000000c77f7fed3b5cc8249adc428c5f44c9063b9734b4",
            "0x0000000000000000000000000000000000000000000000000000000000000000"
          ],
          "data": "0x000000000000000000000000000000000000000000000000000002c232c71e45",
          "blockHash": "0xdd212b9db2a281c3772462c045a0aae92145fcfb5eb35bab9963641735d99a38",
          "blockNumber": "0x73145d",
          "transactionHash": "0xf449545b1ae9b881c8e4eaead6391388f29c83028d73b4b1a2ac50a69bf2e4e8",
          "transactionIndex": "0x8d",
          "logIndex": "0xc5",
          "removed": false
        },
        {
          "address": "0x8aafd3ede9adb0ff97c7aebce82a919afb1c8764",
          "topics": [
            "0xddf252ad1be2c89b69c2b068fc378daa952ba7f163c4a11628f55a4df523b3ef",
            "0x000000000000000000000000c77f7fed3b5cc8249adc428c5f44c9063b9734b4",
            "0x000000000000000000000000c77f7fed3b5cc8249adc428c5f44c9063b9734b4"
          ],
          "data": "0x00000000000000000000000000000000000000000000000000000005b1f537fc",
          "blockHash": "0xdd212b9db2a281c3772462c045a0aae92145fcfb5eb35bab9963641735d99a38",
          "blockNumber": "0x73145d",
          "transactionHash": "0xf449545b1ae9b881c8e4eaead6391388f29c83028d73b4b1a2ac50a69bf2e4e8",
          "transactionIndex": "0x8d",
          "logIndex": "0xc6",
          "removed": false
        },
        {
          "address": "0x8aafd3ede9adb0ff97c7aebce82a919afb1c8764",
          "topics": [
            "0x4afcb4a87cdbd9974efdb92ee48bc8d7cd0ae4bf217004db3d080cbaee652ca7"
          ],
          "data": "0x00000000000000000000000000000000000000000000000000000000678ff1080000000000000000000000000000000000000000000000000004ba47104e419d00000000000000000000000000000000000000000000000000000000f284032a",
          "blockHash": "0xdd212b9db2a281c3772462c045a0aae92145fcfb5eb35bab9963641735d99a38",
          "blockNumber": "0x73145d",
          "transactionHash": "0xf449545b1ae9b881c8e4eaead6391388f29c83028d73b4b1a2ac50a69bf2e4e8",
          "transactionIndex": "0x8d",
          "logIndex": "0xc7",
          "removed": false
        }
      ],
      "logsBloom": "0x00000000000000000000000000000000000000000600000000000000000000000000000000000000000000000000000000000000000000004000000000000000000000000000004000000008000000000000000000000000000000000000000000000000020000000000000000000800020000000000000000000010000000000000000000000000000000000000000000000000000000000000010000000000000000000000000000000000000000004000000000000000000000000000000000000002000000800000000000000000000000000000080000000000000020000000000000000000000000000000000000000000000000000000000000000000",
      "type": "0x2",
      "transactionHash": "0xf449545b1ae9b881c8e4eaead6391388f29c83028d73b4b1a2ac50a69bf2e4e8",
      "transactionIndex": "0x8d",
      "blockHash": "0xdd212b9db2a281c3772462c045a0aae92145fcfb5eb35bab9963641735d99a38",
      "blockNumber": "0x73145d",
      "gasUsed": "0xfd27",
      "effectiveGasPrice": "0xbe046532",
      "from": "0xc77f7fed3b5cc8249adc428c5f44c9063b9734b4",
      "to": "0x8aafd3ede9adb0ff97c7aebce82a919afb1c8764",
      "contractAddress": null
    }
  ],
  "libraries": [],
  "pending": [],
  "returns": {},
  "timestamp": 1737486602,
  "chain": 11155111,
  "commit": "51a374b"
}