{
  "transactions": [
    {
      "hash": "0xf79db65dd17de83851faa2e209365a91a307fc1115216779881c7ced82455f06",
      "transactionType": "CALL",
      "contractName": null,
      "contractAddress": "0xbf4a322f1496e5c3d34a9bcdb4c60567b38c7de2",
      "function": "buy(address)",
      "arguments": [
        "0xC77f7fed3b5Cc8249aDc428c5F44C9063B9734b4"
      ],
      "transaction": {
        "from": "0xc77f7fed3b5cc8249adc428c5f44c9063b9734b4",
        "to": "0xbf4a322f1496e5c3d34a9bcdb4c60567b38c7de2",
        "gas": "0x1b309",
        "value": "0xde0b6b3a7640000",
        "input": "0xf088d547000000000000000000000000c77f7fed3b5cc8249adc428c5f44c9063b9734b4",
        "nonce": "0xaec",
        "chainId": "0xaa36a7"
      },
      "additionalContracts": [],
      "isFixedGasLimit": false
    }
  ],
  "receipts": [
    {
      "status": "0x1",
      "cumulativeGasUsed": "0x20265b9",
      "logs": [
        {
          "address": "0xbf4a322f1496e5c3d34a9bcdb4c60567b38c7de2",
          "topics": [
            "0xddf252ad1be2c89b69c2b068fc378daa952ba7f163c4a11628f55a4df523b3ef",
            "0x0000000000000000000000000000000000000000000000000000000000000000",
            "0x000000000000000000000000c77f7fed3b5cc8249adc428c5f44c9063b9734b4"
          ],
          "data": "0x0000000000000000000000000000000000000000000000352edd9563193e8f6e",
          "blockHash": "0xedda70e329576157e749efb32b445efd034c8d3e600122f735ca8691558f5c2c",
          "blockNumber": "0x725ae0",
          "transactionHash": "0xf79db65dd17de83851faa2e209365a91a307fc1115216779881c7ced82455f06",
          "transactionIndex": "0x6a",
          "logIndex": "0xca",
          "removed": false
        },
        {
          "address": "0xbf4a322f1496e5c3d34a9bcdb4c60567b38c7de2",
          "topics": [
            "0xddf252ad1be2c89b69c2b068fc378daa952ba7f163c4a11628f55a4df523b3ef",
            "0x0000000000000000000000000000000000000000000000000000000000000000",
            "0x000000000000000000000000c77f7fed3b5cc8249adc428c5f44c9063b9734b4"
          ],
          "data": "0x000000000000000000000000000000000000000000000000294c68528520bff5",
          "blockHash": "0xedda70e329576157e749efb32b445efd034c8d3e600122f735ca8691558f5c2c",
          "blockNumber": "0x725ae0",
          "transactionHash": "0xf79db65dd17de83851faa2e209365a91a307fc1115216779881c7ced82455f06",
          "transactionIndex": "0x6a",
          "logIndex": "0xcb",
          "removed": false
        },
        {
          "address": "0xbf4a322f1496e5c3d34a9bcdb4c60567b38c7de2",
          "topics": [
            "0x4afcb4a87cdbd9974efdb92ee48bc8d7cd0ae4bf217004db3d080cbaee652ca7"
          ],
          "data": "0x00000000000000000000000000000000000000000000000000000000678734d0000000000000000000000000000000000000000000000000000395cbfd961a4a0000000000000000000000000000000000000000000000000de0b6b3a7640000",
          "blockHash": "0xedda70e329576157e749efb32b445efd034c8d3e600122f735ca8691558f5c2c",
          "blockNumber": "0x725ae0",
          "transactionHash": "0xf79db65dd17de83851faa2e209365a91a307fc1115216779881c7ced82455f06",
          "transactionIndex": "0x6a",
          "logIndex": "0xcc",
          "removed": false
        }
      ],
      "logsBloom": "0x00000000000000000000000000000000000000000000000000000000000000000000000000000000000000000000000000000000000000004000000000000000000000000000000000000008000000000000001000000000000000000000000000000000020000000000000000000800020000000000000000000010000000000000000000000000000000000000000000000000000008000000010000000000000000000000000000000000000000004000000000000000000000000000000000000002000000800000000000001000000000000000080000000000000020000000000000000000000000000000000000000000000000000000000000000000",
      "type": "0x2",
      "transactionHash": "0xf79db65dd17de83851faa2e209365a91a307fc1115216779881c7ced82455f06",
      "transactionIndex": "0x6a",
      "blockHash": "0xedda70e329576157e749efb32b445efd034c8d3e600122f735ca8691558f5c2c",
      "blockNumber": "0x725ae0",
      "gasUsed": "0x13af6",
      "effectiveGasPrice": "0xa284e8e8",
      "from": "0xc77f7fed3b5cc8249adc428c5f44c9063b9734b4",
      "to": "0xbf4a322f1496e5c3d34a9bcdb4c60567b38c7de2",
      "contractAddress": null
    }
  ],
  "libraries": [],
  "pending": [],
  "returns": {},
  "timestamp": 1736914130,
  "chain": 11155111,
  "commit": "51a374b"
}