{
  "transactions": [
    {
      "hash": "0xec2886444050f0d29aba0a7d7aad5567d57c3faf29b39b75d8b1efd781145131",
      "transactionType": "CALL",
      "contractName": null,
      "contractAddress": "0xbf4a322f1496e5c3d34a9bcdb4c60567b38c7de2",
      "function": "sell(uint256)",
      "arguments": [
        "992906493558448813124"
      ],
      "transaction": {
        "from": "0xc77f7fed3b5cc8249adc428c5f44c9063b9734b4",
        "to": "0xbf4a322f1496e5c3d34a9bcdb4c60567b38c7de2",
        "gas": "0x16fea",
        "value": "0x0",
        "input": "0xe4849b32000000000000000000000000000000000000000000000035d3587b3f52057444",
        "nonce": "0x8ce",
        "chainId": "0xaa36a7"
      },
      "additionalContracts": [],
      "isFixedGasLimit": false
    }
  ],
  "receipts": [
    {
      "status": "0x1",
      "cumulativeGasUsed": "0xdf8876",
      "logs": [
        {
          "address": "0xbf4a322f1496e5c3d34a9bcdb4c60567b38c7de2",
          "topics": [
            "0xddf252ad1be2c89b69c2b068fc378daa952ba7f163c4a11628f55a4df523b3ef",
            "0x000000000000000000000000c77f7fed3b5cc8249adc428c5f44c9063b9734b4",
            "0x0000000000000000000000000000000000000000000000000000000000000000"
          ],
          "data": "0x000000000000000000000000000000000000000000000035d3587b3f52057444",
          "blockHash": "0x9a352a5d64ea40ff0ef56ead92b1ca22335ca351c0bdc85a9b1a6f687b7db938",
          "blockNumber": "0x72583a",
          "transactionHash": "0xec2886444050f0d29aba0a7d7aad5567d57c3faf29b39b75d8b1efd781145131",
          "transactionIndex": "0x45",
          "logIndex": "0x79",
          "removed": false
        },
        {
          "address": "0xbf4a322f1496e5c3d34a9bcdb4c60567b38c7de2",
          "topics": [
            "0x4afcb4a87cdbd9974efdb92ee48bc8d7cd0ae4bf217004db3d080cbaee652ca7"
          ],
          "data": "0x00000000000000000000000000000000000000000000000000000000678714d800000000000000000000000000000000000000000000000000038d9ccd50166f0000000000000000000000000000000000000000000000000dc7e57bd140d48a",
          "blockHash": "0x9a352a5d64ea40ff0ef56ead92b1ca22335ca351c0bdc85a9b1a6f687b7db938",
          "blockNumber": "0x72583a",
          "transactionHash": "0xec2886444050f0d29aba0a7d7aad5567d57c3faf29b39b75d8b1efd781145131",
          "transactionIndex": "0x45",
          "logIndex": "0x7a",
          "removed": false
        }
      ],
      "logsBloom": "0x00000000000000000000000000000000000000000000000000000000000000000000000000000000000000000000000000000000000000004000000000000000000000000000000000000008000000000000001000000000000000000000000000000000020000000000000000000800020000000000000000000010000000000000000000000000000000000000000000000000000008000000010000000000000000000000000000000000000000004000000000000000000000000000000000000002000000800000000000001000000000000000080000000000000020000000000000000000000000000000000000000000000000000000000000000000",
      "type": "0x2",
      "transactionHash": "0xec2886444050f0d29aba0a7d7aad5567d57c3faf29b39b75d8b1efd781145131",
      "transactionIndex": "0x45",
      "blockHash": "0x9a352a5d64ea40ff0ef56ead92b1ca22335ca351c0bdc85a9b1a6f687b7db938",
      "blockNumber": "0x72583a",
      "gasUsed": "0xfb91",
      "effectiveGasPrice": "0x26c843f5",
      "from": "0xc77f7fed3b5cc8249adc428c5f44c9063b9734b4",
      "to": "0xbf4a322f1496e5c3d34a9bcdb4c60567b38c7de2",
      "contractAddress": null
    }
  ],
  "libraries": [],
  "pending": [],
  "returns": {},
  "timestamp": 1736905945,
  "chain": 11155111,
  "commit": "51a374b"
}