{
  "transactions": [
    {
      "hash": "0x828636f7a98dea25c55781a75b551609cf8f96577e067374fb91286f837d6322",
      "transactionType": "CALL",
      "contractName": null,
      "contractAddress": "0xbf4a322f1496e5c3d34a9bcdb4c60567b38c7de2",
      "function": "buy(address)",
      "arguments": [
        "0xC77f7fed3b5Cc8249aDc428c5F44C9063B9734b4"
      ],
      "transaction": {
        "from": "0xc77f7fed3b5cc8249adc428c5f44c9063b9734b4",
        "to": "0xbf4a322f1496e5c3d34a9bcdb4c60567b38c7de2",
        "gas": "0x1b309",
        "value": "0xde0b6b3a7640000",
        "input": "0xf088d547000000000000000000000000c77f7fed3b5cc8249adc428c5f44c9063b9734b4",
        "nonce": "0xdc2",
        "chainId": "0xaa36a7"
      },
      "additionalContracts": [],
      "isFixedGasLimit": false
    }
  ],
  "receipts": [
    {
      "status": "0x1",
      "cumulativeGasUsed": "0x14c916c",
      "logs": [
        {
          "address": "0xbf4a322f1496e5c3d34a9bcdb4c60567b38c7de2",
          "topics": [
            "0xddf252ad1be2c89b69c2b068fc378daa952ba7f163c4a11628f55a4df523b3ef",
            "0x0000000000000000000000000000000000000000000000000000000000000000",
            "0x000000000000000000000000c77f7fed3b5cc8249adc428c5f44c9063b9734b4"
          ],
          "data": "0x000000000000000000000000000000000000000000000034a83b4117cfd38603",
          "blockHash": "0xb04b1c3aa46af79fb43153dd3f7562747b25ba4404c79b3d92d021df742d3d45",
          "blockNumber": "0x72669e",
          "transactionHash": "0x828636f7a98dea25c55781a75b551609cf8f96577e067374fb91286f837d6322",
          "transactionIndex": "0x83",
          "logIndex": "0xee",
          "removed": false
        },
        {
          "address": "0xbf4a322f1496e5c3d34a9bcdb4c60567b38c7de2",
          "topics": [
            "0xddf252ad1be2c89b69c2b068fc378daa952ba7f163c4a11628f55a4df523b3ef",
            "0x0000000000000000000000000000000000000000000000000000000000000000",
            "0x000000000000000000000000c77f7fed3b5cc8249adc428c5f44c9063b9734b4"
          ],
          "data": "0x00000000000000000000000000000000000000000000000028e3dc0ac1e0f189",
          "blockHash": "0xb04b1c3aa46af79fb43153dd3f7562747b25ba4404c79b3d92d021df742d3d45",
          "blockNumber": "0x72669e",
          "transactionHash": "0x828636f7a98dea25c55781a75b551609cf8f96577e067374fb91286f837d6322",
          "transactionIndex": "0x83",
          "logIndex": "0xef",
          "removed": false
        },
        {
          "address": "0xbf4a322f1496e5c3d34a9bcdb4c60567b38c7de2",
          "topics": [
            "0x4afcb4a87cdbd9974efdb92ee48bc8d7cd0ae4bf217004db3d080cbaee652ca7"
          ],
          "data": "0x000000000000000000000000000000000000000000000000000000006787c26000000000000000000000000000000000000000000000000000039ef6986621c50000000000000000000000000000000000000000000000000de0b6b3a7640000",
          "blockHash": "0xb04b1c3aa46af79fb43153dd3f7562747b25ba4404c79b3d92d021df742d3d45",
          "blockNumber": "0x72669e",
          "transactionHash": "0x828636f7a98dea25c55781a75b551609cf8f96577e067374fb91286f837d6322",
          "transactionIndex": "0x83",
          "logIndex": "0xf0",
          "removed": false
        }
      ],
      "logsBloom": "0x00000000000000000000000000000000000000000000000000000000000000000000000000000000000000000000000000000000000000004000000000000000000000000000000000000008000000000000001000000000000000000000000000000000020000000000000000000800020000000000000000000010000000000000000000000000000000000000000000000000000008000000010000000000000000000000000000000000000000004000000000000000000000000000000000000002000000800000000000001000000000000000080000000000000020000000000000000000000000000000000000000000000000000000000000000000",
      "type": "0x2",
      "transactionHash": "0x828636f7a98dea25c55781a75b551609cf8f96577e067374fb91286f837d6322",
      "transactionIndex": "0x83",
      "blockHash": "0xb04b1c3aa46af79fb43153dd3f7562747b25ba4404c79b3d92d021df742d3d45",
      "blockNumber": "0x72669e",
      "gasUsed": "0x13af6",
      "effectiveGasPrice": "0xcf7e6364",
      "from": "0xc77f7fed3b5cc8249adc428c5f44c9063b9734b4",
      "to": "0xbf4a322f1496e5c3d34a9bcdb4c60567b38c7de2",
      "contractAddress": null
    }
  ],
  "libraries": [],
  "pending": [],
  "returns": {},
  "timestamp": 1736950369,
  "chain": 11155111,
  "commit": "51a374b"
}