{
  "transactions": [
    {
      "hash": "0x648c5f4cf46ab921ce7460ac3b1e233df0ea442ebc3c1529a7bbcb6e4f2d44d1",
      "transactionType": "CALL",
      "contractName": null,
      "contractAddress": "0x8aafd3ede9adb0ff97c7aebce82a919afb1c8764",
      "function": "sell(uint256)",
      "arguments": [
        "141329496694567"
      ],
      "transaction": {
        "from": "0xc77f7fed3b5cc8249adc428c5f44c9063b9734b4",
        "to": "0x8aafd3ede9adb0ff97c7aebce82a919afb1c8764",
        "gas": "0x15daa",
        "value": "0x0",
        "input": "0xe4849b3200000000000000000000000000000000000000000000000000008089d6725f27",
        "nonce": "0x1391",
        "chainId": "0xaa36a7"
      },
      "additionalContracts": [],
      "isFixedGasLimit": false
    }
  ],
  "receipts": [
    {
      "status": "0x1",
      "cumulativeGasUsed": "0x118e216",
      "logs": [
        {
          "address": "0x8aafd3ede9adb0ff97c7aebce82a919afb1c8764",
          "topics": [
            "0xddf252ad1be2c89b69c2b068fc378daa952ba7f163c4a11628f55a4df523b3ef",
            "0x000000000000000000000000c77f7fed3b5cc8249adc428c5f44c9063b9734b4",
            "0x0000000000000000000000000000000000000000000000000000000000000000"
          ],
          "data": "0x00000000000000000000000000000000000000000000000000007f82974a8b73",
          "blockHash": "0xa05f468f7907235bef54414e56f87a8de70c7e4f1ebee01eb8f1f3e26f14a37c",
          "blockNumber": "0x731ab5",
          "transactionHash": "0x648c5f4cf46ab921ce7460ac3b1e233df0ea442ebc3c1529a7bbcb6e4f2d44d1",
          "transactionIndex": "0x9a",
          "logIndex": "0xa9",
          "removed": false
        },
        {
          "address": "0x8aafd3ede9adb0ff97c7aebce82a919afb1c8764",
          "topics": [
            "0xddf252ad1be2c89b69c2b068fc378daa952ba7f163c4a11628f55a4df523b3ef",
            "0x000000000000000000000000c77f7fed3b5cc8249adc428c5f44c9063b9734b4",
            "0x000000000000000000000000c77f7fed3b5cc8249adc428c5f44c9063b9734b4"
          ],
          "data": "0x000000000000000000000000000000000000000000000000000001073f27d3b4",
          "blockHash": "0xa05f468f7907235bef54414e56f87a8de70c7e4f1ebee01eb8f1f3e26f14a37c",
          "blockNumber": "0x731ab5",
          "transactionHash": "0x648c5f4cf46ab921ce7460ac3b1e233df0ea442ebc3c1529a7bbcb6e4f2d44d1",
          "transactionIndex": "0x9a",
          "logIndex": "0xaa",
          "removed": false
        },
        {
          "address": "0x8aafd3ede9adb0ff97c7aebce82a919afb1c8764",
          "topics": [
            "0x4afcb4a87cdbd9974efdb92ee48bc8d7cd0ae4bf217004db3d080cbaee652ca7"
          ],
          "data": "0x0000000000000000000000000000000000000000000000000000000067903d4c000000000000000000000000000000000000000000000000000ce1ec5ded71ff0000000000000000000000000000000000000000000000000000007751ed06f7",
          "blockHash": "0xa05f468f7907235bef54414e56f87a8de70c7e4f1ebee01eb8f1f3e26f14a37c",
          "blockNumber": "0x731ab5",
          "transactionHash": "0x648c5f4cf46ab921ce7460ac3b1e233df0ea442ebc3c1529a7bbcb6e4f2d44d1",
          "transactionIndex": "0x9a",
          "logIndex": "0xab",
          "removed": false
        }
      ],
      "logsBloom": "0x00000000000000000000000000000000000000000600000000000000000000000000000000000000000000000000000000000000000000004000000000000000000000000000004000000008000000000000000000000000000000000000000000000000020000000000000000000800020000000000000000000010000000000000000000000000000000000000000000000000000000000000010000000000000000000000000000000000000000004000000000000000000000000000000000000002000000800000000000000000000000000000080000000000000020000000000000000000000000000000000000000000000000000000000000000000",
      "type": "0x2",
      "transactionHash": "0x648c5f4cf46ab921ce7460ac3b1e233df0ea442ebc3c1529a7bbcb6e4f2d44d1",
      "transactionIndex": "0x9a",
      "blockHash": "0xa05f468f7907235bef54414e56f87a8de70c7e4f1ebee01eb8f1f3e26f14a37c",
      "blockNumber": "0x731ab5",
      "gasUsed": "0xfd27",
      "effectiveGasPrice": "0x63eb843d",
      "from": "0xc77f7fed3b5cc8249adc428c5f44c9063b9734b4",
      "to": "0x8aafd3ede9adb0ff97c7aebce82a919afb1c8764",
      "contractAddress": null
    }
  ],
  "libraries": [],
  "pending": [],
  "returns": {},
  "timestamp": 1737506125,
  "chain": 11155111,
  "commit": "1d2fb70"
}