{
  "transactions": [
    {
      "hash": "0xe1869f2738711ab4a384ad9484bcddb5071ee056e18ec7052d1ab167e6b16e5b",
      "transactionType": "CALL",
      "contractName": null,
      "contractAddress": "0x8aafd3ede9adb0ff97c7aebce82a919afb1c8764",
      "function": "sell(uint256)",
      "arguments": [
        "1223875803630903825"
      ],
      "transaction": {
        "from": "0xc77f7fed3b5cc8249adc428c5f44c9063b9734b4",
        "to": "0x8aafd3ede9adb0ff97c7aebce82a919afb1c8764",
        "gas": "0x15dca",
        "value": "0x0",
        "input": "0xe4849b3200000000000000000000000000000000000000000000000010fc148f1c9da211",
        "nonce": "0x170a",
        "chainId": "0xaa36a7"
      },
      "additionalContracts": [],
      "isFixedGasLimit": false
    }
  ],
  "receipts": [
    {
      "status": "0x1",
      "cumulativeGasUsed": "0x11408d2",
      "logs": [
        {
          "address": "0x8aafd3ede9adb0ff97c7aebce82a919afb1c8764",
          "topics": [
            "0xddf252ad1be2c89b69c2b068fc378daa952ba7f163c4a11628f55a4df523b3ef",
            "0x000000000000000000000000c77f7fed3b5cc8249adc428c5f44c9063b9734b4",
            "0x0000000000000000000000000000000000000000000000000000000000000000"
          ],
          "data": "0x00000000000000000000000000000000000000000000000010d94bb0c86b3853",
          "blockHash": "0x3dd779d3e4582b43b64b8c55a83abb4200a537081efa8d7cab3a891d2aa168f4",
          "blockNumber": "0x731ece",
          "transactionHash": "0xe1869f2738711ab4a384ad9484bcddb5071ee056e18ec7052d1ab167e6b16e5b",
          "transactionIndex": "0x72",
          "logIndex": "0xf3",
          "removed": false
        },
        {
          "address": "0x8aafd3ede9adb0ff97c7aebce82a919afb1c8764",
          "topics": [
            "0xddf252ad1be2c89b69c2b068fc378daa952ba7f163c4a11628f55a4df523b3ef",
            "0x000000000000000000000000c77f7fed3b5cc8249adc428c5f44c9063b9734b4",
            "0x000000000000000000000000c77f7fed3b5cc8249adc428c5f44c9063b9734b4"
          ],
          "data": "0x0000000000000000000000000000000000000000000000000022c8de543269be",
          "blockHash": "0x3dd779d3e4582b43b64b8c55a83abb4200a537081efa8d7cab3a891d2aa168f4",
          "blockNumber": "0x731ece",
          "transactionHash": "0xe1869f2738711ab4a384ad9484bcddb5071ee056e18ec7052d1ab167e6b16e5b",
          "transactionIndex": "0x72",
          "logIndex": "0xf4",
          "removed": false
        },
        {
          "address": "0x8aafd3ede9adb0ff97c7aebce82a919afb1c8764",
          "topics": [
            "0x4afcb4a87cdbd9974efdb92ee48bc8d7cd0ae4bf217004db3d080cbaee652ca7"
          ],
          "data": "0x0000000000000000000000000000000000000000000000000000000067906e9000000000000000000000000000000000000000000000000000172a59493cb3a8000000000000000000000000000000000000000000000000001c59d08dd75b4b",
          "blockHash": "0x3dd779d3e4582b43b64b8c55a83abb4200a537081efa8d7cab3a891d2aa168f4",
          "blockNumber": "0x731ece",
          "transactionHash": "0xe1869f2738711ab4a384ad9484bcddb5071ee056e18ec7052d1ab167e6b16e5b",
          "transactionIndex": "0x72",
          "logIndex": "0xf5",
          "removed": false
        }
      ],
      "logsBloom": "0x00000000000000000000000000000000000000000600000000000000000000000000000000000000000000000000000000000000000000004000000000000000000000000000004000000008000000000000000000000000000000000000000000000000020000000000000000000800020000000000000000000010000000000000000000000000000000000000000000000000000000000000010000000000000000000000000000000000000000004000000000000000000000000000000000000002000000800000000000000000000000000000080000000000000020000000000000000000000000000000000000000000000000000000000000000000",
      "type": "0x2",
      "transactionHash": "0xe1869f2738711ab4a384ad9484bcddb5071ee056e18ec7052d1ab167e6b16e5b",
      "transactionIndex": "0x72",
      "blockHash": "0x3dd779d3e4582b43b64b8c55a83abb4200a537081efa8d7cab3a891d2aa168f4",
      "blockNumber": "0x731ece",
      "gasUsed": "0xfd3f",
      "effectiveGasPrice": "0x39bb344d",
      "from": "0xc77f7fed3b5cc8249adc428c5f44c9063b9734b4",
      "to": "0x8aafd3ede9adb0ff97c7aebce82a919afb1c8764",
      "contractAddress": null
    }
  ],
  "libraries": [],
  "pending": [],
  "returns": {},
  "timestamp": 1737518738,
  "chain": 11155111,
  "commit": "1d2fb70"
}