{
  "transactions": [
    {
      "hash": "0x888262c8426b85b57da6808cadc4c6e80808b722163137ffa7b0a704b6b0d722",
      "transactionType": "CALL",
      "contractName": null,
      "contractAddress": "0x8aafd3ede9adb0ff97c7aebce82a919afb1c8764",
      "function": "sell(uint256)",
      "arguments": [
        "47333876670380134"
      ],
      "transaction": {
        "from": "0xc77f7fed3b5cc8249adc428c5f44c9063b9734b4",
        "to": "0x8aafd3ede9adb0ff97c7aebce82a919afb1c8764",
        "gas": "0x1724d",
        "value": "0x0",
        "input": "0xe4849b3200000000000000000000000000000000000000000000000000a829e8f8c7b866",
        "nonce": "0xfe1",
        "chainId": "0xaa36a7"
      },
      "additionalContracts": [],
      "isFixedGasLimit": false
    }
  ],
  "receipts": [
    {
      "status": "0x1",
      "cumulativeGasUsed": "0x13ad974",
      "logs": [
        {
          "address": "0x8aafd3ede9adb0ff97c7aebce82a919afb1c8764",
          "topics": [
            "0xddf252ad1be2c89b69c2b068fc378daa952ba7f163c4a11628f55a4df523b3ef",
            "0x000000000000000000000000c77f7fed3b5cc8249adc428c5f44c9063b9734b4",
            "0x0000000000000000000000000000000000000000000000000000000000000000"
          ],
          "data": "0x00000000000000000000000000000000000000000000000000a6d182c18abb05",
          "blockHash": "0x2156ef8fb6c73709784dfb239abb9c69a733e35fb8661e922b23ad087fb311fe",
          "blockNumber": "0x731653",
          "transactionHash": "0x888262c8426b85b57da6808cadc4c6e80808b722163137ffa7b0a704b6b0d722",
          "transactionIndex": "0x97",
          "logIndex": "0xf5",
          "removed": false
        },
        {
          "address": "0x8aafd3ede9adb0ff97c7aebce82a919afb1c8764",
          "topics": [
            "0xddf252ad1be2c89b69c2b068fc378daa952ba7f163c4a11628f55a4df523b3ef",
            "0x000000000000000000000000c77f7fed3b5cc8249adc428c5f44c9063b9734b4",
            "0x000000000000000000000000c77f7fed3b5cc8249adc428c5f44c9063b9734b4"
          ],
          "data": "0x00000000000000000000000000000000000000000000000000015866373cfd61",
          "blockHash": "0x2156ef8fb6c73709784dfb239abb9c69a733e35fb8661e922b23ad087fb311fe",
          "blockNumber": "0x731653",
          "transactionHash": "0x888262c8426b85b57da6808cadc4c6e80808b722163137ffa7b0a704b6b0d722",
          "transactionIndex": "0x97",
          "logIndex": "0xf6",
          "removed": false
        },
        {
          "address": "0x8aafd3ede9adb0ff97c7aebce82a919afb1c8764",
          "topics": [
            "0x4afcb4a87cdbd9974efdb92ee48bc8d7cd0ae4bf217004db3d080cbaee652ca7"
          ],
          "data": "0x00000000000000000000000000000000000000000000000000000000679008900000000000000000000000000000000000000000000000000004c572e03cf9a1000000000000000000000000000000000000000000000000000039d0df0582f6",
          "blockHash": "0x2156ef8fb6c73709784dfb239abb9c69a733e35fb8661e922b23ad087fb311fe",
          "blockNumber": "0x731653",
          "transactionHash": "0x888262c8426b85b57da6808cadc4c6e80808b722163137ffa7b0a704b6b0d722",
          "transactionIndex": "0x97",
          "logIndex": "0xf7",
          "removed": false
        }
      ],
      "logsBloom": "0x00000000000000000000000000000000000000000600000000000000000000000000000000000000000000000000000000000000000000004000000000000000000000000000004000000008000000000000000000000000000000000000000000000000020000000000000000000800020000000000000000000010000000000000000000000000000000000000000000000000000000000000010000000000000000000000000000000000000000004000000000000000000000000000000000000002000000800000000000000000000000000000080000000000000020000000000000000000000000000000000000000000000000000000000000000000",
      "type": "0x2",
      "transactionHash": "0x888262c8426b85b57da6808cadc4c6e80808b722163137ffa7b0a704b6b0d722",
      "transactionIndex": "0x97",
      "blockHash": "0x2156ef8fb6c73709784dfb239abb9c69a733e35fb8661e922b23ad087fb311fe",
      "blockNumber": "0x731653",
      "gasUsed": "0xfd33",
      "effectiveGasPrice": "0x4f8b3788",
      "from": "0xc77f7fed3b5cc8249adc428c5f44c9063b9734b4",
      "to": "0x8aafd3ede9adb0ff97c7aebce82a919afb1c8764",
      "contractAddress": null
    }
  ],
  "libraries": [],
  "pending": [],
  "returns": {},
  "timestamp": 1737492626,
  "chain": 11155111,
  "commit": "1d2fb70"
}