{
  "transactions": [
    {
      "hash": "0xe4932e622f92e646edbb46a8946144fb515d37a87ecc5745b5701bb992f119f1",
      "transactionType": "CALL",
      "contractName": null,
      "contractAddress": "0x8aafd3ede9adb0ff97c7aebce82a919afb1c8764",
      "function": "sell(uint256)",
      "arguments": [
        "379792889042942"
      ],
      "transaction": {
        "from": "0xc77f7fed3b5cc8249adc428c5f44c9063b9734b4",
        "to": "0x8aafd3ede9adb0ff97c7aebce82a919afb1c8764",
        "gas": "0x1724d",
        "value": "0x0",
        "input": "0xe4849b320000000000000000000000000000000000000000000000000001596b6c3d57fe",
        "nonce": "0xf74",
        "chainId": "0xaa36a7"
      },
      "additionalContracts": [],
      "isFixedGasLimit": false
    }
  ],
  "receipts": [
    {
      "status": "0x1",
      "cumulativeGasUsed": "0x1014bbe",
      "logs": [
        {
          "address": "0x8aafd3ede9adb0ff97c7aebce82a919afb1c8764",
          "topics": [
            "0xddf252ad1be2c89b69c2b068fc378daa952ba7f163c4a11628f55a4df523b3ef",
            "0x000000000000000000000000c77f7fed3b5cc8249adc428c5f44c9063b9734b4",
            "0x0000000000000000000000000000000000000000000000000000000000000000"
          ],
          "data": "0x000000000000000000000000000000000000000000000000000156a800e0b167",
          "blockHash": "0xea3c865075b646af98aa2c9ba5751b41f330a7bab29694b7bca725ae74055be8",
          "blockNumber": "0x7315d4",
          "transactionHash": "0xe4932e622f92e646edbb46a8946144fb515d37a87ecc5745b5701bb992f119f1",
          "transactionIndex": "0x91",
          "logIndex": "0xea",
          "removed": false
        },
        {
          "address": "0x8aafd3ede9adb0ff97c7aebce82a919afb1c8764",
          "topics": [
            "0xddf252ad1be2c89b69c2b068fc378daa952ba7f163c4a11628f55a4df523b3ef",
            "0x000000000000000000000000c77f7fed3b5cc8249adc428c5f44c9063b9734b4",
            "0x000000000000000000000000c77f7fed3b5cc8249adc428c5f44c9063b9734b4"
          ],
          "data": "0x000000000000000000000000000000000000000000000000000002c36b5ca697",
          "blockHash": "0xea3c865075b646af98aa2c9ba5751b41f330a7bab29694b7bca725ae74055be8",
          "blockNumber": "0x7315d4",
          "transactionHash": "0xe4932e622f92e646edbb46a8946144fb515d37a87ecc5745b5701bb992f119f1",
          "transactionIndex": "0x91",
          "logIndex": "0xeb",
          "removed": false
        },
        {
          "address": "0x8aafd3ede9adb0ff97c7aebce82a919afb1c8764",
          "topics": [
            "0x4afcb4a87cdbd9974efdb92ee48bc8d7cd0ae4bf217004db3d080cbaee652ca7"
          ],
          "data": "0x000000000000000000000000000000000000000000000000000000006790029c0000000000000000000000000000000000000000000000000004c1d77608234a00000000000000000000000000000000000000000000000000000076683564fa",
          "blockHash": "0xea3c865075b646af98aa2c9ba5751b41f330a7bab29694b7bca725ae74055be8",
          "blockNumber": "0x7315d4",
          "transactionHash": "0xe4932e622f92e646edbb46a8946144fb515d37a87ecc5745b5701bb992f119f1",
          "transactionIndex": "0x91",
          "logIndex": "0xec",
          "removed": false
        }
      ],
      "logsBloom": "0x00000000000000000000000000000000000000000600000000000000000000000000000000000000000000000000000000000000000000004000000000000000000000000000004000000008000000000000000000000000000000000000000000000000020000000000000000000800020000000000000000000010000000000000000000000000000000000000000000000000000000000000010000000000000000000000000000000000000000004000000000000000000000000000000000000002000000800000000000000000000000000000080000000000000020000000000000000000000000000000000000000000000000000000000000000000",
      "type": "0x2",
      "transactionHash": "0xe4932e622f92e646edbb46a8946144fb515d37a87ecc5745b5701bb992f119f1",
      "transactionIndex": "0x91",
      "blockHash": "0xea3c865075b646af98aa2c9ba5751b41f330a7bab29694b7bca725ae74055be8",
      "blockNumber": "0x7315d4",
      "gasUsed": "0xfd33",
      "effectiveGasPrice": "0x6fe4f0fc",
      "from": "0xc77f7fed3b5cc8249adc428c5f44c9063b9734b4",
      "to": "0x8aafd3ede9adb0ff97c7aebce82a919afb1c8764",
      "contractAddress": null
    }
  ],
  "libraries": [],
  "pending": [],
  "returns": {},
  "timestamp": 1737491101,
  "chain": 11155111,
  "commit": "1d2fb70"
}