{
  "transactions": [
    {
      "hash": "0x3cf575e56212ea5aa531058a786d50d98899cf4d1834ca13d595fe98df06ca8c",
      "transactionType": "CALL",
      "contractName": null,
      "contractAddress": "0x270e88f8683660553e8ba4eb2ad7c91a1710d769",
      "function": "sell(uint256)",
      "arguments": [
        "941515950650634104767"
      ],
      "transaction": {
        "from": "0xc77f7fed3b5cc8249adc428c5f44c9063b9734b4",
        "to": "0x270e88f8683660553e8ba4eb2ad7c91a1710d769",
        "gas": "0x16fec",
        "value": "0x0",
        "input": "0xe4849b320000000000000000000000000000000000000000000000330a2898c05f416fbf",
        "nonce": "0x629",
        "chainId": "0xaa36a7"
      },
      "additionalContracts": [],
      "isFixedGasLimit": false
    }
  ],
  "receipts": [
    {
      "status": "0x1",
      "cumulativeGasUsed": "0x10fb475",
      "logs": [
        {
          "address": "0x270e88f8683660553e8ba4eb2ad7c91a1710d769",
          "topics": [
            "0xddf252ad1be2c89b69c2b068fc378daa952ba7f163c4a11628f55a4df523b3ef",
            "0x000000000000000000000000c77f7fed3b5cc8249adc428c5f44c9063b9734b4",
            "0x0000000000000000000000000000000000000000000000000000000000000000"
          ],
          "data": "0x0000000000000000000000000000000000000000000000330a2898c05f416fbf",
          "blockHash": "0xce250517800091305fbe84bf0a530ea45419d8985b08c2d87b4c303419f47b0d",
          "blockNumber": "0x7252f9",
          "transactionHash": "0x3cf575e56212ea5aa531058a786d50d98899cf4d1834ca13d595fe98df06ca8c",
          "transactionIndex": "0x61",
          "logIndex": "0xc9",
          "removed": false
        },
        {
          "address": "0x270e88f8683660553e8ba4eb2ad7c91a1710d769",
          "topics": [
            "0x4afcb4a87cdbd9974efdb92ee48bc8d7cd0ae4bf217004db3d080cbaee652ca7"
          ],
          "data": "0x000000000000000000000000000000000000000000000000000000006786d5b40000000000000000000000000000000000000000000000000003bf85f45c47910000000000000000000000000000000000000000000000000dc83d495b414251",
          "blockHash": "0xce250517800091305fbe84bf0a530ea45419d8985b08c2d87b4c303419f47b0d",
          "blockNumber": "0x7252f9",
          "transactionHash": "0x3cf575e56212ea5aa531058a786d50d98899cf4d1834ca13d595fe98df06ca8c",
          "transactionIndex": "0x61",
          "logIndex": "0xca",
          "removed": false
        }
      ],
      "logsBloom": "0x00000000000000000000000000000000000000000000000000000000000000000000000000000000000000000000000020000000000000004000000000000000000000000000000000000008000000000000000000000000000000000000000000000000020000000000000000000800020000000000000000000010000000000000000000010000000000000000000000000000000000000000010000000000000000000000000000000000000000004000000000000000000000000000000000000002000000800000000000000000000000000000080000008000000020000000000000000000000000000000000000000000000000000000000000000000",
      "type": "0x2",
      "transactionHash": "0x3cf575e56212ea5aa531058a786d50d98899cf4d1834ca13d595fe98df06ca8c",
      "transactionIndex": "0x61",
      "blockHash": "0xce250517800091305fbe84bf0a530ea45419d8985b08c2d87b4c303419f47b0d",
      "blockNumber": "0x7252f9",
      "gasUsed": "0xfb93",
      "effectiveGasPrice": "0x2a28e113e",
      "from": "0xc77f7fed3b5cc8249adc428c5f44c9063b9734b4",
      "to": "0x270e88f8683660553e8ba4eb2ad7c91a1710d769",
      "contractAddress": null
    }
  ],
  "libraries": [],
  "pending": [],
  "returns": {},
  "timestamp": 1736889781,
  "chain": 11155111,
  "commit": "51a374b"
}