{
  "transactions": [
    {
      "hash": "0x9955e0f1733b3e56e557f6ca3ede1b061358a17427063c409af4f1890cdadd39",
      "transactionType": "CALL",
      "contractName": null,
      "contractAddress": "0xbf4a322f1496e5c3d34a9bcdb4c60567b38c7de2",
      "function": "sell(uint256)",
      "arguments": [
        "980872783254419836211"
      ],
      "transaction": {
        "from": "0xc77f7fed3b5cc8249adc428c5f44c9063b9734b4",
        "to": "0xbf4a322f1496e5c3d34a9bcdb4c60567b38c7de2",
        "gas": "0x16fea",
        "value": "0x0",
        "input": "0xe4849b320000000000000000000000000000000000000000000000352c58277bb06a8d33",
        "nonce": "0xbd7",
        "chainId": "0xaa36a7"
      },
      "additionalContracts": [],
      "isFixedGasLimit": false
    }
  ],
  "receipts": [
    {
      "status": "0x1",
      "cumulativeGasUsed": "0xb04797",
      "logs": [
        {
          "address": "0xbf4a322f1496e5c3d34a9bcdb4c60567b38c7de2",
          "topics": [
            "0xddf252ad1be2c89b69c2b068fc378daa952ba7f163c4a11628f55a4df523b3ef",
            "0x000000000000000000000000c77f7fed3b5cc8249adc428c5f44c9063b9734b4",
            "0x0000000000000000000000000000000000000000000000000000000000000000"
          ],
          "data": "0x0000000000000000000000000000000000000000000000352c58277bb06a8d33",
          "blockHash": "0xc30b233b01202c8f810d4dea6271dbc7db348841f141641fb9909a806cfa9c01",
          "blockNumber": "0x725bfa",
          "transactionHash": "0x9955e0f1733b3e56e557f6ca3ede1b061358a17427063c409af4f1890cdadd39",
          "transactionIndex": "0x56",
          "logIndex": "0x7c",
          "removed": false
        },
        {
          "address": "0xbf4a322f1496e5c3d34a9bcdb4c60567b38c7de2",
          "topics": [
            "0x4afcb4a87cdbd9974efdb92ee48bc8d7cd0ae4bf217004db3d080cbaee652ca7"
          ],
          "data": "0x0000000000000000000000000000000000000000000000000000000067874214000000000000000000000000000000000000000000000000000398c4781ac2bd0000000000000000000000000000000000000000000000000dc7e3e418770706",
          "blockHash": "0xc30b233b01202c8f810d4dea6271dbc7db348841f141641fb9909a806cfa9c01",
          "blockNumber": "0x725bfa",
          "transactionHash": "0x9955e0f1733b3e56e557f6ca3ede1b061358a17427063c409af4f1890cdadd39",
          "transactionIndex": "0x56",
          "logIndex": "0x7d",
          "removed": false
        }
      ],
      "logsBloom": "0x00000000000000000000000000000000000000000000000000000000000000000000000000000000000000000000000000000000000000004000000000000000000000000000000000000008000000000000001000000000000000000000000000000000020000000000000000000800020000000000000000000010000000000000000000000000000000000000000000000000000008000000010000000000000000000000000000000000000000004000000000000000000000000000000000000002000000800000000000001000000000000000080000000000000020000000000000000000000000000000000000000000000000000000000000000000",
      "type": "0x2",
      "transactionHash": "0x9955e0f1733b3e56e557f6ca3ede1b061358a17427063c409af4f1890cdadd39",
      "transactionIndex": "0x56",
      "blockHash": "0xc30b233b01202c8f810d4dea6271dbc7db348841f141641fb9909a806cfa9c01",
      "blockNumber": "0x725bfa",
      "gasUsed": "0xfb91",
      "effectiveGasPrice": "0x8e917724",
      "from": "0xc77f7fed3b5cc8249adc428c5f44c9063b9734b4",
      "to": "0xbf4a322f1496e5c3d34a9bcdb4c60567b38c7de2",
      "contractAddress": null
    }
  ],
  "libraries": [],
  "pending": [],
  "returns": {},
  "timestamp": 1736917525,
  "chain": 11155111,
  "commit": "51a374b"
}