{
  "transactions": [
    {
      "hash": "0x7cd89b39d97c1c10406794185d8cd1b2aab497acebb42385cd170fa7c745aeae",
      "transactionType": "CALL",
      "contractName": null,
      "contractAddress": "0xd7bc75898e513accccf720a874d44dab5a4b6223",
      "function": "sell(uint256)",
      "arguments": [
        "9929990944432804505"
      ],
      "transaction": {
        "from": "0xc77f7fed3b5cc8249adc428c5f44c9063b9734b4",
        "to": "0xd7bc75898e513accccf720a874d44dab5a4b6223",
        "gas": "0x15b6b",
        "value": "0x0",
        "input": "0xe4849b3200000000000000000000000000000000000000000000000089ce6a2711c35299",
        "nonce": "0x119",
        "chainId": "0xaa36a7"
      },
      "additionalContracts": [],
      "isFixedGasLimit": false
    }
  ],
  "receipts": [
    {
      "status": "0x1",
      "cumulativeGasUsed": "0x69eec4",
      "logs": [
        {
          "address": "0xd7bc75898e513accccf720a874d44dab5a4b6223",
          "topics": [
            "0xddf252ad1be2c89b69c2b068fc378daa952ba7f163c4a11628f55a4df523b3ef",
            "0x000000000000000000000000c77f7fed3b5cc8249adc428c5f44c9063b9734b4",
            "0x0000000000000000000000000000000000000000000000000000000000000000"
          ],
          "data": "0x00000000000000000000000000000000000000000000000089ce6a2711c35299",
          "blockHash": "0x27119f608da89d5ec56397b77a58eb21a52d2b76a96cc8dde22d66de3ca1f158",
          "blockNumber": "0x7239af",
          "transactionHash": "0x7cd89b39d97c1c10406794185d8cd1b2aab497acebb42385cd170fa7c745aeae",
          "transactionIndex": "0x2e",
          "logIndex": "0x60",
          "removed": false
        },
        {
          "address": "0xd7bc75898e513accccf720a874d44dab5a4b6223",
          "topics": [
            "0x4afcb4a87cdbd9974efdb92ee48bc8d7cd0ae4bf217004db3d080cbaee652ca7"
          ],
          "data": "0x000000000000000000000000000000000000000000000000000000006785a58800000000000000000000000000000000000000000000000000038d7f8f94358e0000000000000000000000000000000000000000000000000023474f493d2797",
          "blockHash": "0x27119f608da89d5ec56397b77a58eb21a52d2b76a96cc8dde22d66de3ca1f158",
          "blockNumber": "0x7239af",
          "transactionHash": "0x7cd89b39d97c1c10406794185d8cd1b2aab497acebb42385cd170fa7c745aeae",
          "transactionIndex": "0x2e",
          "logIndex": "0x61",
          "removed": false
        }
      ],
      "logsBloom": "0x00000000000000000000000000000000000000000000000000000000000000000000000000000000000000000000000000000000000000004000000000000000000000000000000000000008000000000000000000000000000000000000000000000000020000000000000000000800020000000000000000000010000000000000000000000000000000000000000000000000000000000000010000000000000000000000000000000000000000004000001000000000000000000000000000000002000000800000000000004000000000000000080000000000000020000000000000000000000000000000000000000000080000000000000000000000",
      "type": "0x2",
      "transactionHash": "0x7cd89b39d97c1c10406794185d8cd1b2aab497acebb42385cd170fa7c745aeae",
      "transactionIndex": "0x2e",
      "blockHash": "0x27119f608da89d5ec56397b77a58eb21a52d2b76a96cc8dde22d66de3ca1f158",
      "blockNumber": "0x7239af",
      "gasUsed": "0xfb87",
      "effectiveGasPrice": "0x1c177055d",
      "from": "0xc77f7fed3b5cc8249adc428c5f44c9063b9734b4",
      "to": "0xd7bc75898e513accccf720a874d44dab5a4b6223",
      "contractAddress": null
    }
  ],
  "libraries": [],
  "pending": [],
  "returns": {},
  "timestamp": 1736811913,
  "chain": 11155111,
  "commit": "51a374b"
}