{
  "transactions": [
    {
      "hash": "0x9c50af4a7c39071d1b2c9084fa0f9e21027029894226533a49f458ca83b896c4",
      "transactionType": "CALL",
      "contractName": null,
      "contractAddress": "0xbf4a322f1496e5c3d34a9bcdb4c60567b38c7de2",
      "function": "sell(uint256)",
      "arguments": [
        "987971829181804447096"
      ],
      "transaction": {
        "from": "0xc77f7fed3b5cc8249adc428c5f44c9063b9734b4",
        "to": "0xbf4a322f1496e5c3d34a9bcdb4c60567b38c7de2",
        "gas": "0x16fea",
        "value": "0x0",
        "input": "0xe4849b320000000000000000000000000000000000000000000000358edd08244a5c0578",
        "nonce": "0x9cb",
        "chainId": "0xaa36a7"
      },
      "additionalContracts": [],
      "isFixedGasLimit": false
    }
  ],
  "receipts": [
    {
      "status": "0x1",
      "cumulativeGasUsed": "0xae3735",
      "logs": [
        {
          "address": "0xbf4a322f1496e5c3d34a9bcdb4c60567b38c7de2",
          "topics": [
            "0xddf252ad1be2c89b69c2b068fc378daa952ba7f163c4a11628f55a4df523b3ef",
            "0x000000000000000000000000c77f7fed3b5cc8249adc428c5f44c9063b9734b4",
            "0x0000000000000000000000000000000000000000000000000000000000000000"
          ],
          "data": "0x0000000000000000000000000000000000000000000000358edd08244a5c0578",
          "blockHash": "0x791d01528c35e58e9a28c08bc211572a10774aed4fce7b5b3bff240b28dd10b2",
          "blockNumber": "0x725978",
          "transactionHash": "0x9c50af4a7c39071d1b2c9084fa0f9e21027029894226533a49f458ca83b896c4",
          "transactionIndex": "0x44",
          "logIndex": "0x72",
          "removed": false
        },
        {
          "address": "0xbf4a322f1496e5c3d34a9bcdb4c60567b38c7de2",
          "topics": [
            "0x4afcb4a87cdbd9974efdb92ee48bc8d7cd0ae4bf217004db3d080cbaee652ca7"
          ],
          "data": "0x00000000000000000000000000000000000000000000000000000000678723d800000000000000000000000000000000000000000000000000039226c7f0ad1c0000000000000000000000000000000000000000000000000dc7e3f499d24843",
          "blockHash": "0x791d01528c35e58e9a28c08bc211572a10774aed4fce7b5b3bff240b28dd10b2",
          "blockNumber": "0x725978",
          "transactionHash": "0x9c50af4a7c39071d1b2c9084fa0f9e21027029894226533a49f458ca83b896c4",
          "transactionIndex": "0x44",
          "logIndex": "0x73",
          "removed": false
        }
      ],
      "logsBloom": "0x00000000000000000000000000000000000000000000000000000000000000000000000000000000000000000000000000000000000000004000000000000000000000000000000000000008000000000000001000000000000000000000000000000000020000000000000000000800020000000000000000000010000000000000000000000000000000000000000000000000000008000000010000000000000000000000000000000000000000004000000000000000000000000000000000000002000000800000000000001000000000000000080000000000000020000000000000000000000000000000000000000000000000000000000000000000",
      "type": "0x2",
      "transactionHash": "0x9c50af4a7c39071d1b2c9084fa0f9e21027029894226533a49f458ca83b896c4",
      "transactionIndex": "0x44",
      "blockHash": "0x791d01528c35e58e9a28c08bc211572a10774aed4fce7b5b3bff240b28dd10b2",
      "blockNumber": "0x725978",
      "gasUsed": "0xfb91",
      "effectiveGasPrice": "0x2f3e3c73c",
      "from": "0xc77f7fed3b5cc8249adc428c5f44c9063b9734b4",
      "to": "0xbf4a322f1496e5c3d34a9bcdb4c60567b38c7de2",
      "contractAddress": null
    }
  ],
  "libraries": [],
  "pending": [],
  "returns": {},
  "timestamp": 1736909785,
  "chain": 11155111,
  "commit": "51a374b"
}