{
  "transactions": [
    {
      "hash": "0x9ce8fb1f5bab05123bf2ecc31d1db1322bbfa4595c1c1934fcb98bf74b106750",
      "transactionType": "CALL",
      "contractName": null,
      "contractAddress": "0xbf4a322f1496e5c3d34a9bcdb4c60567b38c7de2",
      "function": "sell(uint256)",
      "arguments": [
        "991230243996540589846"
      ],
      "transaction": {
        "from": "0xc77f7fed3b5cc8249adc428c5f44c9063b9734b4",
        "to": "0xbf4a322f1496e5c3d34a9bcdb4c60567b38c7de2",
        "gas": "0x16fea",
        "value": "0x0",
        "input": "0xe4849b32000000000000000000000000000000000000000000000035bc153f26e593d716",
        "nonce": "0x8dd",
        "chainId": "0xaa36a7"
      },
      "additionalContracts": [],
      "isFixedGasLimit": false
    }
  ],
  "receipts": [
    {
      "status": "0x1",
      "cumulativeGasUsed": "0xcdb53a",
      "logs": [
        {
          "address": "0xbf4a322f1496e5c3d34a9bcdb4c60567b38c7de2",
          "topics": [
            "0xddf252ad1be2c89b69c2b068fc378daa952ba7f163c4a11628f55a4df523b3ef",
            "0x000000000000000000000000c77f7fed3b5cc8249adc428c5f44c9063b9734b4",
            "0x0000000000000000000000000000000000000000000000000000000000000000"
          ],
          "data": "0x000000000000000000000000000000000000000000000035bc153f26e593d716",
          "blockHash": "0x1563f92b079c6252443e9315c3b3a293c794e7ac1c657e71e2de3666a8046fbc",
          "blockNumber": "0x725850",
          "transactionHash": "0x9ce8fb1f5bab05123bf2ecc31d1db1322bbfa4595c1c1934fcb98bf74b106750",
          "transactionIndex": "0x7e",
          "logIndex": "0xad",
          "removed": false
        },
        {
          "address": "0xbf4a322f1496e5c3d34a9bcdb4c60567b38c7de2",
          "topics": [
            "0x4afcb4a87cdbd9974efdb92ee48bc8d7cd0ae4bf217004db3d080cbaee652ca7"
          ],
          "data": "0x00000000000000000000000000000000000000000000000000000000678715ec00000000000000000000000000000000000000000000000000038f25833195d40000000000000000000000000000000000000000000000000dc7e3fc2d34045d",
          "blockHash": "0x1563f92b079c6252443e9315c3b3a293c794e7ac1c657e71e2de3666a8046fbc",
          "blockNumber": "0x725850",
          "transactionHash": "0x9ce8fb1f5bab05123bf2ecc31d1db1322bbfa4595c1c1934fcb98bf74b106750",
          "transactionIndex": "0x7e",
          "logIndex": "0xae",
          "removed": false
        }
      ],
      "logsBloom": "0x00000000000000000000000000000000000000000000000000000000000000000000000000000000000000000000000000000000000000004000000000000000000000000000000000000008000000000000001000000000000000000000000000000000020000000000000000000800020000000000000000000010000000000000000000000000000000000000000000000000000008000000010000000000000000000000000000000000000000004000000000000000000000000000000000000002000000800000000000001000000000000000080000000000000020000000000000000000000000000000000000000000000000000000000000000000",
      "type": "0x2",
      "transactionHash": "0x9ce8fb1f5bab05123bf2ecc31d1db1322bbfa4595c1c1934fcb98bf74b106750",
      "transactionIndex": "0x7e",
      "blockHash": "0x1563f92b079c6252443e9315c3b3a293c794e7ac1c657e71e2de3666a8046fbc",
      "blockNumber": "0x725850",
      "gasUsed": "0xfb91",
      "effectiveGasPrice": "0x2118e235",
      "from": "0xc77f7fed3b5cc8249adc428c5f44c9063b9734b4",
      "to": "0xbf4a322f1496e5c3d34a9bcdb4c60567b38c7de2",
      "contractAddress": null
    }
  ],
  "libraries": [],
  "pending": [],
  "returns": {},
  "timestamp": 1736906222,
  "chain": 11155111,
  "commit": "51a374b"
}