{
  "transactions": [
    {
      "hash": "0x01bf42929b071316576e883f9d85ad43453a71b52846d49609c38e519ecc11d9",
      "transactionType": "CALL",
      "contractName": null,
      "contractAddress": "0x270e88f8683660553e8ba4eb2ad7c91a1710d769",
      "function": "sell(uint256)",
      "arguments": [
        "969611126596359473068"
      ],
      "transaction": {
        "from": "0xc77f7fed3b5cc8249adc428c5f44c9063b9734b4",
        "to": "0x270e88f8683660553e8ba4eb2ad7c91a1710d769",
        "gas": "0x16fec",
        "value": "0x0",
        "input": "0xe4849b32000000000000000000000000000000000000000000000034900eb66b6250c7ac",
        "nonce": "0x56b",
        "chainId": "0xaa36a7"
      },
      "additionalContracts": [],
      "isFixedGasLimit": false
    }
  ],
  "receipts": [
    {
      "status": "0x1",
      "cumulativeGasUsed": "0xf0b583",
      "logs": [
        {
          "address": "0x270e88f8683660553e8ba4eb2ad7c91a1710d769",
          "topics": [
            "0xddf252ad1be2c89b69c2b068fc378daa952ba7f163c4a11628f55a4df523b3ef",
            "0x000000000000000000000000c77f7fed3b5cc8249adc428c5f44c9063b9734b4",
            "0x0000000000000000000000000000000000000000000000000000000000000000"
          ],
          "data": "0x000000000000000000000000000000000000000000000034900eb66b6250c7ac",
          "blockHash": "0x6e5d1df6121e830b04ba523a21c51c8ea592d62a160aceed7a9017dc2cd0eb90",
          "blockNumber": "0x725212",
          "transactionHash": "0x01bf42929b071316576e883f9d85ad43453a71b52846d49609c38e519ecc11d9",
          "transactionIndex": "0x4e",
          "logIndex": "0x7d",
          "removed": false
        },
        {
          "address": "0x270e88f8683660553e8ba4eb2ad7c91a1710d769",
          "topics": [
            "0x4afcb4a87cdbd9974efdb92ee48bc8d7cd0ae4bf217004db3d080cbaee652ca7"
          ],
          "data": "0x000000000000000000000000000000000000000000000000000000006786cac80000000000000000000000000000000000000000000000000003a3ba93cd368f0000000000000000000000000000000000000000000000000dc8402c7703319d",
          "blockHash": "0x6e5d1df6121e830b04ba523a21c51c8ea592d62a160aceed7a9017dc2cd0eb90",
          "blockNumber": "0x725212",
          "transactionHash": "0x01bf42929b071316576e883f9d85ad43453a71b52846d49609c38e519ecc11d9",
          "transactionIndex": "0x4e",
          "logIndex": "0x7e",
          "removed": false
        }
      ],
      "logsBloom": "0x00000000000000000000000000000000000000000000000000000000000000000000000000000000000000000000000020000000000000004000000000000000000000000000000000000008000000000000000000000000000000000000000000000000020000000000000000000800020000000000000000000010000000000000000000010000000000000000000000000000000000000000010000000000000000000000000000000000000000004000000000000000000000000000000000000002000000800000000000000000000000000000080000008000000020000000000000000000000000000000000000000000000000000000000000000000",
      "type": "0x2",
      "transactionHash": "0x01bf42929b071316576e883f9d85ad43453a71b52846d49609c38e519ecc11d9",
      "transactionIndex": "0x4e",
      "blockHash": "0x6e5d1df6121e830b04ba523a21c51c8ea592d62a160aceed7a9017dc2cd0eb90",
      "blockNumber": "0x725212",
      "gasUsed": "0xfb93",
      "effectiveGasPrice": "0x4d04912fb",
      "from": "0xc77f7fed3b5cc8249adc428c5f44c9063b9734b4",
      "to": "0x270e88f8683660553e8ba4eb2ad7c91a1710d769",
      "contractAddress": null
    }
  ],
  "libraries": [],
  "pending": [],
  "returns": {},
  "timestamp": 1736886986,
  "chain": 11155111,
  "commit": "51a374b"
}