{
  "transactions": [
    {
      "hash": "0x66708a7a7f19b1c0954c71593ce060c6eb11c74ef7b4ee95c6a5e461fd245ea6",
      "transactionType": "CALL",
      "contractName": null,
      "contractAddress": "0x8aafd3ede9adb0ff97c7aebce82a919afb1c8764",
      "function": "sell(uint256)",
      "arguments": [
        "72374848171013"
      ],
      "transaction": {
        "from": "0xc77f7fed3b5cc8249adc428c5f44c9063b9734b4",
        "to": "0x8aafd3ede9adb0ff97c7aebce82a919afb1c8764",
        "gas": "0x15daa",
        "value": "0x0",
        "input": "0xe4849b32000000000000000000000000000000000000000000000000000041d3151dac05",
        "nonce": "0x17ae",
        "chainId": "0xaa36a7"
      },
      "additionalContracts": [],
      "isFixedGasLimit": false
    }
  ],
  "receipts": [
    {
      "status": "0x1",
      "cumulativeGasUsed": "0x126c97c",
      "logs": [
        {
          "address": "0x8aafd3ede9adb0ff97c7aebce82a919afb1c8764",
          "topics": [
            "0xddf252ad1be2c89b69c2b068fc378daa952ba7f163c4a11628f55a4df523b3ef",
            "0x000000000000000000000000c77f7fed3b5cc8249adc428c5f44c9063b9734b4",
            "0x0000000000000000000000000000000000000000000000000000000000000000"
          ],
          "data": "0x0000000000000000000000000000000000000000000000000000414c461956ad",
          "blockHash": "0x20b821dab5efcf1ddabd1503576302c298a7aaad8601e343a78b4cdb5a13ff88",
          "blockNumber": "0x731f92",
          "transactionHash": "0x66708a7a7f19b1c0954c71593ce060c6eb11c74ef7b4ee95c6a5e461fd245ea6",
          "transactionIndex": "0x87",
          "logIndex": "0xdb",
          "removed": false
        },
        {
          "address": "0x8aafd3ede9adb0ff97c7aebce82a919afb1c8764",
          "topics": [
            "0xddf252ad1be2c89b69c2b068fc378daa952ba7f163c4a11628f55a4df523b3ef",
            "0x000000000000000000000000c77f7fed3b5cc8249adc428c5f44c9063b9734b4",
            "0x000000000000000000000000c77f7fed3b5cc8249adc428c5f44c9063b9734b4"
          ],
          "data": "0x00000000000000000000000000000000000000000000000000000086cf045558",
          "blockHash": "0x20b821dab5efcf1ddabd1503576302c298a7aaad8601e343a78b4cdb5a13ff88",
          "blockNumber": "0x731f92",
          "transactionHash": "0x66708a7a7f19b1c0954c71593ce060c6eb11c74ef7b4ee95c6a5e461fd245ea6",
          "transactionIndex": "0x87",
          "logIndex": "0xdc",
          "removed": false
        },
        {
          "address": "0x8aafd3ede9adb0ff97c7aebce82a919afb1c8764",
          "topics": [
            "0x4afcb4a87cdbd9974efdb92ee48bc8d7cd0ae4bf217004db3d080cbaee652ca7"
          ],
          "data": "0x00000000000000000000000000000000000000000000000000000000679077c0000000000000000000000000000000000000000000000000001910065e07c06900000000000000000000000000000000000000000000000000000076e0385011",
          "blockHash": "0x20b821dab5efcf1ddabd1503576302c298a7aaad8601e343a78b4cdb5a13ff88",
          "blockNumber": "0x731f92",
          "transactionHash": "0x66708a7a7f19b1c0954c71593ce060c6eb11c74ef7b4ee95c6a5e461fd245ea6",
          "transactionIndex": "0x87",
          "logIndex": "0xdd",
          "removed": false
        }
      ],
      "logsBloom": "0x00000000000000000000000000000000000000000600000000000000000000000000000000000000000000000000000000000000000000004000000000000000000000000000004000000008000000000000000000000000000000000000000000000000020000000000000000000800020000000000000000000010000000000000000000000000000000000000000000000000000000000000010000000000000000000000000000000000000000004000000000000000000000000000000000000002000000800000000000000000000000000000080000000000000020000000000000000000000000000000000000000000000000000000000000000000",
      "type": "0x2",
      "transactionHash": "0x66708a7a7f19b1c0954c71593ce060c6eb11c74ef7b4ee95c6a5e461fd245ea6",
      "transactionIndex": "0x87",
      "blockHash": "0x20b821dab5efcf1ddabd1503576302c298a7aaad8601e343a78b4cdb5a13ff88",
      "blockNumber": "0x731f92",
      "gasUsed": "0xfd27",
      "effectiveGasPrice": "0x43515ef2",
      "from": "0xc77f7fed3b5cc8249adc428c5f44c9063b9734b4",
      "to": "0x8aafd3ede9adb0ff97c7aebce82a919afb1c8764",
      "contractAddress": null
    }
  ],
  "libraries": [],
  "pending": [],
  "returns": {},
  "timestamp": 1737521089,
  "chain": 11155111,
  "commit": "1d2fb70"
}