{
  "transactions": [
    {
      "hash": "0xdafe15fc35f18f5bd6b2813068ed26be76ef40f00c4b1e0076f2c25ce60a92d8",
      "transactionType": "CALL",
      "contractName": null,
      "contractAddress": "0x8aafd3ede9adb0ff97c7aebce82a919afb1c8764",
      "function": "sell(uint256)",
      "arguments": [
        "11712"
      ],
      "transaction": {
        "from": "0xc77f7fed3b5cc8249adc428c5f44c9063b9734b4",
        "to": "0x8aafd3ede9adb0ff97c7aebce82a919afb1c8764",
        "gas": "0x14e4c",
        "value": "0x0",
        "input": "0xe4849b320000000000000000000000000000000000000000000000000000000000002dc0",
        "nonce": "0x111b",
        "chainId": "0xaa36a7"
      },
      "additionalContracts": [],
      "isFixedGasLimit": false
    }
  ],
  "receipts": [
    {
      "status": "0x1",
      "cumulativeGasUsed": "0x219e473",
      "logs": [
        {
          "address": "0x8aafd3ede9adb0ff97c7aebce82a919afb1c8764",
          "topics": [
            "0xddf252ad1be2c89b69c2b068fc378daa952ba7f163c4a11628f55a4df523b3ef",
            "0x000000000000000000000000c77f7fed3b5cc8249adc428c5f44c9063b9734b4",
            "0x0000000000000000000000000000000000000000000000000000000000000000"
          ],
          "data": "0x0000000000000000000000000000000000000000000000000000000000002d63",
          "blockHash": "0xb36f1a7dc4a926f10b087e8279359f4ae10e7f13279fd59f5783f0fe7833ff82",
          "blockNumber": "0x7317cf",
          "transactionHash": "0xdafe15fc35f18f5bd6b2813068ed26be76ef40f00c4b1e0076f2c25ce60a92d8",
          "transactionIndex": "0x6e",
          "logIndex": "0x10fa",
          "removed": false
        },
        {
          "address": "0x8aafd3ede9adb0ff97c7aebce82a919afb1c8764",
          "topics": [
            "0xddf252ad1be2c89b69c2b068fc378daa952ba7f163c4a11628f55a4df523b3ef",
            "0x000000000000000000000000c77f7fed3b5cc8249adc428c5f44c9063b9734b4",
            "0x000000000000000000000000c77f7fed3b5cc8249adc428c5f44c9063b9734b4"
          ],
          "data": "0x000000000000000000000000000000000000000000000000000000000000005d",
          "blockHash": "0xb36f1a7dc4a926f10b087e8279359f4ae10e7f13279fd59f5783f0fe7833ff82",
          "blockNumber": "0x7317cf",
          "transactionHash": "0xdafe15fc35f18f5bd6b2813068ed26be76ef40f00c4b1e0076f2c25ce60a92d8",
          "transactionIndex": "0x6e",
          "logIndex": "0x10fb",
          "removed": false
        },
        {
          "address": "0x8aafd3ede9adb0ff97c7aebce82a919afb1c8764",
          "topics": [
            "0x4afcb4a87cdbd9974efdb92ee48bc8d7cd0ae4bf217004db3d080cbaee652ca7"
          ],
          "data": "0x0000000000000000000000000000000000000000000000000000000067901a7800000000000000000000000000000000000000000000000000050f106c1c9eab0000000000000000000000000000000000000000000000000000000000000010",
          "blockHash": "0xb36f1a7dc4a926f10b087e8279359f4ae10e7f13279fd59f5783f0fe7833ff82",
          "blockNumber": "0x7317cf",
          "transactionHash": "0xdafe15fc35f18f5bd6b2813068ed26be76ef40f00c4b1e0076f2c25ce60a92d8",
          "transactionIndex": "0x6e",
          "logIndex": "0x10fc",
          "removed": false
        }
      ],
      "logsBloom": "0x00000000000000000000000000000000000000000600000000000000000000000000000000000000000000000000000000000000000000004000000000000000000000000000004000000008000000000000000000000000000000000000000000000000020000000000000000000800020000000000000000000010000000000000000000000000000000000000000000000000000000000000010000000000000000000000000000000000000000004000000000000000000000000000000000000002000000800000000000000000000000000000080000000000000020000000000000000000000000000000000000000000000000000000000000000000",
      "type": "0x2",
      "transactionHash": "0xdafe15fc35f18f5bd6b2813068ed26be76ef40f00c4b1e0076f2c25ce60a92d8",
      "transactionIndex": "0x6e",
      "blockHash": "0xb36f1a7dc4a926f10b087e8279359f4ae10e7f13279fd59f5783f0fe7833ff82",
      "blockNumber": "0x7317cf",
      "gasUsed": "0xf207",
      "effectiveGasPrice": "0x37dad6f7",
      "from": "0xc77f7fed3b5cc8249adc428c5f44c9063b9734b4",
      "to": "0x8aafd3ede9adb0ff97c7aebce82a919afb1c8764",
      "contractAddress": null
    }
  ],
  "libraries": [],
  "pending": [],
  "returns": {},
  "timestamp": 1737497209,
  "chain": 11155111,
  "commit": "1d2fb70"
}