{
  "transactions": [
    {
      "hash": "0x1d131de020fa6611268694d8458759c72d712b1aae6cdc0cb81d475d168ea246",
      "transactionType": "CALL",
      "contractName": null,
      "contractAddress": "0x8aafd3ede9adb0ff97c7aebce82a919afb1c8764",
      "function": "sell(uint256)",
      "arguments": [
        "45602998718351957"
      ],
      "transaction": {
        "from": "0xc77f7fed3b5cc8249adc428c5f44c9063b9734b4",
        "to": "0x8aafd3ede9adb0ff97c7aebce82a919afb1c8764",
        "gas": "0x1724d",
        "value": "0x0",
        "input": "0xe4849b3200000000000000000000000000000000000000000000000000a203af8b4cca55",
        "nonce": "0x1061",
        "chainId": "0xaa36a7"
      },
      "additionalContracts": [],
      "isFixedGasLimit": false
    }
  ],
  "receipts": [
    {
      "status": "0x1",
      "cumulativeGasUsed": "0xf39167",
      "logs": [
        {
          "address": "0x8aafd3ede9adb0ff97c7aebce82a919afb1c8764",
          "topics": [
            "0xddf252ad1be2c89b69c2b068fc378daa952ba7f163c4a11628f55a4df523b3ef",
            "0x000000000000000000000000c77f7fed3b5cc8249adc428c5f44c9063b9734b4",
            "0x0000000000000000000000000000000000000000000000000000000000000000"
          ],
          "data": "0x00000000000000000000000000000000000000000000000000a0b7e156fc4dd6",
          "blockHash": "0x5e57f00d5bcaa611ee1f05f2e90d2168518b3890f1bd981714d6205f04bf5869",
          "blockNumber": "0x7316e7",
          "transactionHash": "0x1d131de020fa6611268694d8458759c72d712b1aae6cdc0cb81d475d168ea246",
          "transactionIndex": "0x90",
          "logIndex": "0xda",
          "removed": false
        },
        {
          "address": "0x8aafd3ede9adb0ff97c7aebce82a919afb1c8764",
          "topics": [
            "0xddf252ad1be2c89b69c2b068fc378daa952ba7f163c4a11628f55a4df523b3ef",
            "0x000000000000000000000000c77f7fed3b5cc8249adc428c5f44c9063b9734b4",
            "0x000000000000000000000000c77f7fed3b5cc8249adc428c5f44c9063b9734b4"
          ],
          "data": "0x00000000000000000000000000000000000000000000000000014bce34507c7f",
          "blockHash": "0x5e57f00d5bcaa611ee1f05f2e90d2168518b3890f1bd981714d6205f04bf5869",
          "blockNumber": "0x7316e7",
          "transactionHash": "0x1d131de020fa6611268694d8458759c72d712b1aae6cdc0cb81d475d168ea246",
          "transactionIndex": "0x90",
          "logIndex": "0xdb",
          "removed": false
        },
        {
          "address": "0x8aafd3ede9adb0ff97c7aebce82a919afb1c8764",
          "topics": [
            "0x4afcb4a87cdbd9974efdb92ee48bc8d7cd0ae4bf217004db3d080cbaee652ca7"
          ],
          "data": "0x0000000000000000000000000000000000000000000000000000000067900f8c0000000000000000000000000000000000000000000000000004f4ebcbcab681000000000000000000000000000000000000000000000000000039ddd9b688fc",
          "blockHash": "0x5e57f00d5bcaa611ee1f05f2e90d2168518b3890f1bd981714d6205f04bf5869",
          "blockNumber": "0x7316e7",
          "transactionHash": "0x1d131de020fa6611268694d8458759c72d712b1aae6cdc0cb81d475d168ea246",
          "transactionIndex": "0x90",
          "logIndex": "0xdc",
          "removed": false
        }
      ],
      "logsBloom": "0x00000000000000000000000000000000000000000600000000000000000000000000000000000000000000000000000000000000000000004000000000000000000000000000004000000008000000000000000000000000000000000000000000000000020000000000000000000800020000000000000000000010000000000000000000000000000000000000000000000000000000000000010000000000000000000000000000000000000000004000000000000000000000000000000000000002000000800000000000000000000000000000080000000000000020000000000000000000000000000000000000000000000000000000000000000000",
      "type": "0x2",
      "transactionHash": "0x1d131de020fa6611268694d8458759c72d712b1aae6cdc0cb81d475d168ea246",
      "transactionIndex": "0x90",
      "blockHash": "0x5e57f00d5bcaa611ee1f05f2e90d2168518b3890f1bd981714d6205f04bf5869",
      "blockNumber": "0x7316e7",
      "gasUsed": "0xfd33",
      "effectiveGasPrice": "0x3e3ef8f9",
      "from": "0xc77f7fed3b5cc8249adc428c5f44c9063b9734b4",
      "to": "0x8aafd3ede9adb0ff97c7aebce82a919afb1c8764",
      "contractAddress": null
    }
  ],
  "libraries": [],
  "pending": [],
  "returns": {},
  "timestamp": 1737494413,
  "chain": 11155111,
  "commit": "1d2fb70"
}