{
  "transactions": [
    {
      "hash": "0x819d99994020df39bb82b38e9f5d95fc710ba1dda8a44c176a05beb8d1164341",
      "transactionType": "CALL",
      "contractName": null,
      "contractAddress": "0x270e88f8683660553e8ba4eb2ad7c91a1710d769",
      "function": "sell(uint256)",
      "arguments": [
        "715709208045170330267"
      ],
      "transaction": {
        "from": "0xc77f7fed3b5cc8249adc428c5f44c9063b9734b4",
        "to": "0x270e88f8683660553e8ba4eb2ad7c91a1710d769",
        "gas": "0x16fec",
        "value": "0x0",
        "input": "0xe4849b32000000000000000000000000000000000000000000000026cc75e4ba28860a9b",
        "nonce": "0x856",
        "chainId": "0xaa36a7"
      },
      "additionalContracts": [],
      "isFixedGasLimit": false
    }
  ],
  "receipts": [
    {
      "status": "0x1",
      "cumulativeGasUsed": "0x1448787",
      "logs": [
        {
          "address": "0x270e88f8683660553e8ba4eb2ad7c91a1710d769",
          "topics": [
            "0xddf252ad1be2c89b69c2b068fc378daa952ba7f163c4a11628f55a4df523b3ef",
            "0x000000000000000000000000c77f7fed3b5cc8249adc428c5f44c9063b9734b4",
            "0x0000000000000000000000000000000000000000000000000000000000000000"
          ],
          "data": "0x000000000000000000000000000000000000000000000026cc75e4ba28860a9b",
          "blockHash": "0xc1959c0692d360a7fb2eed9079dcbe6129016bd5d91b7ce953ff7a1249a31893",
          "blockNumber": "0x7255aa",
          "transactionHash": "0x819d99994020df39bb82b38e9f5d95fc710ba1dda8a44c176a05beb8d1164341",
          "transactionIndex": "0x49",
          "logIndex": "0x70",
          "removed": false
        },
        {
          "address": "0x270e88f8683660553e8ba4eb2ad7c91a1710d769",
          "topics": [
            "0x4afcb4a87cdbd9974efdb92ee48bc8d7cd0ae4bf217004db3d080cbaee652ca7"
          ],
          "data": "0x000000000000000000000000000000000000000000000000000000006786f6000000000000000000000000000000000000000000000000000004ee295cb8d7260000000000000000000000000000000000000000000000000dc825fc25c702f4",
          "blockHash": "0xc1959c0692d360a7fb2eed9079dcbe6129016bd5d91b7ce953ff7a1249a31893",
          "blockNumber": "0x7255aa",
          "transactionHash": "0x819d99994020df39bb82b38e9f5d95fc710ba1dda8a44c176a05beb8d1164341",
          "transactionIndex": "0x49",
          "logIndex": "0x71",
          "removed": false
        }
      ],
      "logsBloom": "0x00000000000000000000000000000000000000000000000000000000000000000000000000000000000000000000000020000000000000004000000000000000000000000000000000000008000000000000000000000000000000000000000000000000020000000000000000000800020000000000000000000010000000000000000000010000000000000000000000000000000000000000010000000000000000000000000000000000000000004000000000000000000000000000000000000002000000800000000000000000000000000000080000008000000020000000000000000000000000000000000000000000000000000000000000000000",
      "type": "0x2",
      "transactionHash": "0x819d99994020df39bb82b38e9f5d95fc710ba1dda8a44c176a05beb8d1164341",
      "transactionIndex": "0x49",
      "blockHash": "0xc1959c0692d360a7fb2eed9079dcbe6129016bd5d91b7ce953ff7a1249a31893",
      "blockNumber": "0x7255aa",
      "gasUsed": "0xfb93",
      "effectiveGasPrice": "0x5cd47d09",
      "from": "0xc77f7fed3b5cc8249adc428c5f44c9063b9734b4",
      "to": "0x270e88f8683660553e8ba4eb2ad7c91a1710d769",
      "contractAddress": null
    }
  ],
  "libraries": [],
  "pending": [],
  "returns": {},
  "timestamp": 1736898049,
  "chain": 11155111,
  "commit": "51a374b"
}