{
  "transactions": [
    {
      "hash": "0xc40b016dc9c4dcabaff50afde54f2967f395c85f5b5b77471bf82847a3a14cdd",
      "transactionType": "CALL",
      "contractName": null,
      "contractAddress": "0x270e88f8683660553e8ba4eb2ad7c91a1710d769",
      "function": "sell(uint256)",
      "arguments": [
        "824822296771676044933"
      ],
      "transaction": {
        "from": "0xc77f7fed3b5cc8249adc428c5f44c9063b9734b4",
        "to": "0x270e88f8683660553e8ba4eb2ad7c91a1710d769",
        "gas": "0x16fec",
        "value": "0x0",
        "input": "0xe4849b3200000000000000000000000000000000000000000000002cb6b574d169937e85",
        "nonce": "0x643",
        "chainId": "0xaa36a7"
      },
      "additionalContracts": [],
      "isFixedGasLimit": false
    }
  ],
  "receipts": [
    {
      "status": "0x1",
      "cumulativeGasUsed": "0x1948226",
      "logs": [
        {
          "address": "0x270e88f8683660553e8ba4eb2ad7c91a1710d769",
          "topics": [
            "0xddf252ad1be2c89b69c2b068fc378daa952ba7f163c4a11628f55a4df523b3ef",
            "0x000000000000000000000000c77f7fed3b5cc8249adc428c5f44c9063b9734b4",
            "0x0000000000000000000000000000000000000000000000000000000000000000"
          ],
          "data": "0x00000000000000000000000000000000000000000000002cb6b574d169937e85",
          "blockHash": "0x6208a8af86293aa9e742e4a4c1c0ee506c0271c93929f6aedafd149f65cfe645",
          "blockNumber": "0x72532c",
          "transactionHash": "0xc40b016dc9c4dcabaff50afde54f2967f395c85f5b5b77471bf82847a3a14cdd",
          "transactionIndex": "0x6a",
          "logIndex": "0xeb",
          "removed": false
        },
        {
          "address": "0x270e88f8683660553e8ba4eb2ad7c91a1710d769",
          "topics": [
            "0x4afcb4a87cdbd9974efdb92ee48bc8d7cd0ae4bf217004db3d080cbaee652ca7"
          ],
          "data": "0x000000000000000000000000000000000000000000000000000000006786d818000000000000000000000000000000000000000000000000000446f5d3b2c61a0000000000000000000000000000000000000000000000000dc7e0f99a16cbb8",
          "blockHash": "0x6208a8af86293aa9e742e4a4c1c0ee506c0271c93929f6aedafd149f65cfe645",
          "blockNumber": "0x72532c",
          "transactionHash": "0xc40b016dc9c4dcabaff50afde54f2967f395c85f5b5b77471bf82847a3a14cdd",
          "transactionIndex": "0x6a",
          "logIndex": "0xec",
          "removed": false
        }
      ],
      "logsBloom": "0x00000000000000000000000000000000000000000000000000000000000000000000000000000000000000000000000020000000000000004000000000000000000000000000000000000008000000000000000000000000000000000000000000000000020000000000000000000800020000000000000000000010000000000000000000010000000000000000000000000000000000000000010000000000000000000000000000000000000000004000000000000000000000000000000000000002000000800000000000000000000000000000080000008000000020000000000000000000000000000000000000000000000000000000000000000000",
      "type": "0x2",
      "transactionHash": "0xc40b016dc9c4dcabaff50afde54f2967f395c85f5b5b77471bf82847a3a14cdd",
      "transactionIndex": "0x6a",
      "blockHash": "0x6208a8af86293aa9e742e4a4c1c0ee506c0271c93929f6aedafd149f65cfe645",
      "blockNumber": "0x72532c",
      "gasUsed": "0xfb93",
      "effectiveGasPrice": "0x1d8eea22e",
      "from": "0xc77f7fed3b5cc8249adc428c5f44c9063b9734b4",
      "to": "0x270e88f8683660553e8ba4eb2ad7c91a1710d769",
      "contractAddress": null
    }
  ],
  "libraries": [],
  "pending": [],
  "returns": {},
  "timestamp": 1736890393,
  "chain": 11155111,
  "commit": "51a374b"
}