{
  "transactions": [
    {
      "hash": "0x9cfb615537f65031f03dcb524ef37897db5b5c214b7790cf5f346b8190e1f761",
      "transactionType": "CALL",
      "contractName": null,
      "contractAddress": "0xd7bc75898e513accccf720a874d44dab5a4b6223",
      "function": "sell(uint256)",
      "arguments": [
        "9929992967457874173"
      ],
      "transaction": {
        "from": "0xc77f7fed3b5cc8249adc428c5f44c9063b9734b4",
        "to": "0xd7bc75898e513accccf720a874d44dab5a4b6223",
        "gas": "0x15b6b",
        "value": "0x0",
        "input": "0xe4849b3200000000000000000000000000000000000000000000000089ce6bfe177420fd",
        "nonce": "0x9b",
        "chainId": "0xaa36a7"
      },
      "additionalContracts": [],
      "isFixedGasLimit": false
    }
  ],
  "receipts": [
    {
      "status": "0x1",
      "cumulativeGasUsed": "0x5a4e37",
      "logs": [
        {
          "address": "0xd7bc75898e513accccf720a874d44dab5a4b6223",
          "topics": [
            "0xddf252ad1be2c89b69c2b068fc378daa952ba7f163c4a11628f55a4df523b3ef",
            "0x000000000000000000000000c77f7fed3b5cc8249adc428c5f44c9063b9734b4",
            "0x0000000000000000000000000000000000000000000000000000000000000000"
          ],
          "data": "0x00000000000000000000000000000000000000000000000089ce6bfe177420fd",
          "blockHash": "0x034459d33ef7ad71c17d2f8959a7f0ea2e11f87c61765ff26fe34d05215417aa",
          "blockNumber": "0x72390d",
          "transactionHash": "0x9cfb615537f65031f03dcb524ef37897db5b5c214b7790cf5f346b8190e1f761",
          "transactionIndex": "0x3b",
          "logIndex": "0x5b",
          "removed": false
        },
        {
          "address": "0xd7bc75898e513accccf720a874d44dab5a4b6223",
          "topics": [
            "0x4afcb4a87cdbd9974efdb92ee48bc8d7cd0ae4bf217004db3d080cbaee652ca7"
          ],
          "data": "0x0000000000000000000000000000000000000000000000000000000067859de400000000000000000000000000000000000000000000000000038d7f836f8afc0000000000000000000000000000000000000000000000000023474f493d2799",
          "blockHash": "0x034459d33ef7ad71c17d2f8959a7f0ea2e11f87c61765ff26fe34d05215417aa",
          "blockNumber": "0x72390d",
          "transactionHash": "0x9cfb615537f65031f03dcb524ef37897db5b5c214b7790cf5f346b8190e1f761",
          "transactionIndex": "0x3b",
          "logIndex": "0x5c",
          "removed": false
        }
      ],
      "logsBloom": "0x00000000000000000000000000000000000000000000000000000000000000000000000000000000000000000000000000000000000000004000000000000000000000000000000000000008000000000000000000000000000000000000000000000000020000000000000000000800020000000000000000000010000000000000000000000000000000000000000000000000000000000000010000000000000000000000000000000000000000004000001000000000000000000000000000000002000000800000000000004000000000000000080000000000000020000000000000000000000000000000000000000000080000000000000000000000",
      "type": "0x2",
      "transactionHash": "0x9cfb615537f65031f03dcb524ef37897db5b5c214b7790cf5f346b8190e1f761",
      "transactionIndex": "0x3b",
      "blockHash": "0x034459d33ef7ad71c17d2f8959a7f0ea2e11f87c61765ff26fe34d05215417aa",
      "blockNumber": "0x72390d",
      "gasUsed": "0xfb87",
      "effectiveGasPrice": "0x9d9531",
      "from": "0xc77f7fed3b5cc8249adc428c5f44c9063b9734b4",
      "to": "0xd7bc75898e513accccf720a874d44dab5a4b6223",
      "contractAddress": null
    }
  ],
  "libraries": [],
  "pending": [],
  "returns": {},
  "timestamp": 1736809957,
  "chain": 11155111,
  "commit": "51a374b"
}