{
  "transactions": [
    {
      "hash": "0xabd17e2ee7e76421200cc6d6c22bc175a616a7cfcde3b5feb3739b6c5b39c8a0",
      "transactionType": "CALL",
      "contractName": null,
      "contractAddress": "0xd7bc75898e513accccf720a874d44dab5a4b6223",
      "function": "buy(address)",
      "arguments": [
        "0xC77f7fed3b5Cc8249aDc428c5F44C9063B9734b4"
      ],
      "transaction": {
        "from": "0xc77f7fed3b5cc8249adc428c5f44c9063b9734b4",
        "to": "0xd7bc75898e513accccf720a874d44dab5a4b6223",
        "gas": "0x1b30c",
        "value": "0x2386f26fc10000",
        "input": "0xf088d547000000000000000000000000c77f7fed3b5cc8249adc428c5f44c9063b9734b4",
        "nonce": "0x9c",
        "chainId": "0xaa36a7"
      },
      "additionalContracts": [],
      "isFixedGasLimit": false
    }
  ],
  "receipts": [
    {
      "status": "0x1",
      "cumulativeGasUsed": "0xae2fdd",
      "logs": [
        {
          "address": "0xd7bc75898e513accccf720a874d44dab5a4b6223",
          "topics": [
            "0xddf252ad1be2c89b69c2b068fc378daa952ba7f163c4a11628f55a4df523b3ef",
            "0x0000000000000000000000000000000000000000000000000000000000000000",
            "0x000000000000000000000000c77f7fed3b5cc8249adc428c5f44c9063b9734b4"
          ],
          "data": "0x0000000000000000000000000000000000000000000000008963bbe9836527b3",
          "blockHash": "0x3ede5c51d159ef4e13e5648d55deb853c8f99c12c79eb76cd084c60c3d6c50a8",
          "blockNumber": "0x72390e",
          "transactionHash": "0xabd17e2ee7e76421200cc6d6c22bc175a616a7cfcde3b5feb3739b6c5b39c8a0",
          "transactionIndex": "0x4b",
          "logIndex": "0xa8",
          "removed": false
        },
        {
          "address": "0xd7bc75898e513accccf720a874d44dab5a4b6223",
          "topics": [
            "0xddf252ad1be2c89b69c2b068fc378daa952ba7f163c4a11628f55a4df523b3ef",
            "0x0000000000000000000000000000000000000000000000000000000000000000",
            "0x000000000000000000000000c77f7fed3b5cc8249adc428c5f44c9063b9734b4"
          ],
          "data": "0x000000000000000000000000000000000000000000000000006ab00d1a1021f2",
          "blockHash": "0x3ede5c51d159ef4e13e5648d55deb853c8f99c12c79eb76cd084c60c3d6c50a8",
          "blockNumber": "0x72390e",
          "transactionHash": "0xabd17e2ee7e76421200cc6d6c22bc175a616a7cfcde3b5feb3739b6c5b39c8a0",
          "transactionIndex": "0x4b",
          "logIndex": "0xa9",
          "removed": false
        },
        {
          "address": "0xd7bc75898e513accccf720a874d44dab5a4b6223",
          "topics": [
            "0x4afcb4a87cdbd9974efdb92ee48bc8d7cd0ae4bf217004db3d080cbaee652ca7"
          ],
          "data": "0x0000000000000000000000000000000000000000000000000000000067859df000000000000000000000000000000000000000000000000000038d7f838154be000000000000000000000000000000000000000000000000002386f26fc10000",
          "blockHash": "0x3ede5c51d159ef4e13e5648d55deb853c8f99c12c79eb76cd084c60c3d6c50a8",
          "blockNumber": "0x72390e",
          "transactionHash": "0xabd17e2ee7e76421200cc6d6c22bc175a616a7cfcde3b5feb3739b6c5b39c8a0",
          "transactionIndex": "0x4b",
          "logIndex": "0xaa",
          "removed": false
        }
      ],
      "logsBloom": "0x00000000000000000000000000000000000000000000000000000000000000000000000000000000000000000000000000000000000000004000000000000000000000000000000000000008000000000000000000000000000000000000000000000000020000000000000000000800020000000000000000000010000000000000000000000000000000000000000000000000000000000000010000000000000000000000000000000000000000004000001000000000000000000000000000000002000000800000000000004000000000000000080000000000000020000000000000000000000000000000000000000000080000000000000000000000",
      "type": "0x2",
      "transactionHash": "0xabd17e2ee7e76421200cc6d6c22bc175a616a7cfcde3b5feb3739b6c5b39c8a0",
      "transactionIndex": "0x4b",
      "blockHash": "0x3ede5c51d159ef4e13e5648d55deb853c8f99c12c79eb76cd084c60c3d6c50a8",
      "blockNumber": "0x72390e",
      "gasUsed": "0x13af8",
      "effectiveGasPrice": "0x97e004",
      "from": "0xc77f7fed3b5cc8249adc428c5f44c9063b9734b4",
      "to": "0xd7bc75898e513accccf720a874d44dab5a4b6223",
      "contractAddress": null
    }
  ],
  "libraries": [],
  "pending": [],
  "returns": {},
  "timestamp": 1736809969,
  "chain": 11155111,
  "commit": "51a374b"
}