{
  "transactions": [
    {
      "hash": "0xe1903a66b02329f4e3d321fdfb5eb6c8c6689c36e873ee4d72c89122d034d0a2",
      "transactionType": "CALL",
      "contractName": null,
      "contractAddress": "0x270e88f8683660553e8ba4eb2ad7c91a1710d769",
      "function": "sell(uint256)",
      "arguments": [
        "727018342893056752117"
      ],
      "transaction": {
        "from": "0xc77f7fed3b5cc8249adc428c5f44c9063b9734b4",
        "to": "0x270e88f8683660553e8ba4eb2ad7c91a1710d769",
        "gas": "0x16fec",
        "value": "0x0",
        "input": "0xe4849b32000000000000000000000000000000000000000000000027696802f3f5c8f9f5",
        "nonce": "0x7d0",
        "chainId": "0xaa36a7"
      },
      "additionalContracts": [],
      "isFixedGasLimit": false
    }
  ],
  "receipts": [
    {
      "status": "0x1",
      "cumulativeGasUsed": "0x8a3485",
      "logs": [
        {
          "address": "0x270e88f8683660553e8ba4eb2ad7c91a1710d769",
          "topics": [
            "0xddf252ad1be2c89b69c2b068fc378daa952ba7f163c4a11628f55a4df523b3ef",
            "0x000000000000000000000000c77f7fed3b5cc8249adc428c5f44c9063b9734b4",
            "0x0000000000000000000000000000000000000000000000000000000000000000"
          ],
          "data": "0x000000000000000000000000000000000000000000000027696802f3f5c8f9f5",
          "blockHash": "0x943950db44747a112ddcc00e287b1d00215918709e641f37187f9f66342c7766",
          "blockNumber": "0x725508",
          "transactionHash": "0xe1903a66b02329f4e3d321fdfb5eb6c8c6689c36e873ee4d72c89122d034d0a2",
          "transactionIndex": "0x50",
          "logIndex": "0x81",
          "removed": false
        },
        {
          "address": "0x270e88f8683660553e8ba4eb2ad7c91a1710d769",
          "topics": [
            "0x4afcb4a87cdbd9974efdb92ee48bc8d7cd0ae4bf217004db3d080cbaee652ca7"
          ],
          "data": "0x000000000000000000000000000000000000000000000000000000006786ee680000000000000000000000000000000000000000000000000004da8855678a260000000000000000000000000000000000000000000000000dc82727f5b91f9a",
          "blockHash": "0x943950db44747a112ddcc00e287b1d00215918709e641f37187f9f66342c7766",
          "blockNumber": "0x725508",
          "transactionHash": "0xe1903a66b02329f4e3d321fdfb5eb6c8c6689c36e873ee4d72c89122d034d0a2",
          "transactionIndex": "0x50",
          "logIndex": "0x82",
          "removed": false
        }
      ],
      "logsBloom": "0x00000000000000000000000000000000000000000000000000000000000000000000000000000000000000000000000020000000000000004000000000000000000000000000000000000008000000000000000000000000000000000000000000000000020000000000000000000800020000000000000000000010000000000000000000010000000000000000000000000000000000000000010000000000000000000000000000000000000000004000000000000000000000000000000000000002000000800000000000000000000000000000080000008000000020000000000000000000000000000000000000000000000000000000000000000000",
      "type": "0x2",
      "transactionHash": "0xe1903a66b02329f4e3d321fdfb5eb6c8c6689c36e873ee4d72c89122d034d0a2",
      "transactionIndex": "0x50",
      "blockHash": "0x943950db44747a112ddcc00e287b1d00215918709e641f37187f9f66342c7766",
      "blockNumber": "0x725508",
      "gasUsed": "0xfb93",
      "effectiveGasPrice": "0xb5ab1dd4",
      "from": "0xc77f7fed3b5cc8249adc428c5f44c9063b9734b4",
      "to": "0x270e88f8683660553e8ba4eb2ad7c91a1710d769",
      "contractAddress": null
    }
  ],
  "libraries": [],
  "pending": [],
  "returns": {},
  "timestamp": 1736896105,
  "chain": 11155111,
  "commit": "51a374b"
}