{
  "transactions": [
    {
      "hash": "0x7d577d8945cba455d7eee488a1496d3157afae91ba9c05793f76ff2c9b673cc0",
      "transactionType": "CALL",
      "contractName": null,
      "contractAddress": "0x5eb9cc76c3506942c1c0ead70e877dd5e4f00cb0",
      "function": "sell(uint256)",
      "arguments": [
        "989114659802336292752"
      ],
      "transaction": {
        "from": "0xc77f7fed3b5cc8249adc428c5f44c9063b9734b4",
        "to": "0x5eb9cc76c3506942c1c0ead70e877dd5e4f00cb0",
        "gas": "0x16fec",
        "value": "0x0",
        "input": "0xe4849b320000000000000000000000000000000000000000000000359eb92e8941996f90",
        "nonce": "0x3a5",
        "chainId": "0xaa36a7"
      },
      "additionalContracts": [],
      "isFixedGasLimit": false
    }
  ],
  "receipts": [
    {
      "status": "0x1",
      "cumulativeGasUsed": "0x8c567d",
      "logs": [
        {
          "address": "0x5eb9cc76c3506942c1c0ead70e877dd5e4f00cb0",
          "topics": [
            "0xddf252ad1be2c89b69c2b068fc378daa952ba7f163c4a11628f55a4df523b3ef",
            "0x000000000000000000000000c77f7fed3b5cc8249adc428c5f44c9063b9734b4",
            "0x0000000000000000000000000000000000000000000000000000000000000000"
          ],
          "data": "0x0000000000000000000000000000000000000000000000359eb92e8941996f90",
          "blockHash": "0x22e1e2081a80e5e33f722e3b2f248a41b87c89502312bcabc9ace341b6703446",
          "blockNumber": "0x724fa3",
          "transactionHash": "0x7d577d8945cba455d7eee488a1496d3157afae91ba9c05793f76ff2c9b673cc0",
          "transactionIndex": "0x61",
          "logIndex": "0x88",
          "removed": false
        },
        {
          "address": "0x5eb9cc76c3506942c1c0ead70e877dd5e4f00cb0",
          "topics": [
            "0x4afcb4a87cdbd9974efdb92ee48bc8d7cd0ae4bf217004db3d080cbaee652ca7"
          ],
          "data": "0x000000000000000000000000000000000000000000000000000000006786ad640000000000000000000000000000000000000000000000000003911201f56cd70000000000000000000000000000000000000000000000000dc7db1332018893",
          "blockHash": "0x22e1e2081a80e5e33f722e3b2f248a41b87c89502312bcabc9ace341b6703446",
          "blockNumber": "0x724fa3",
          "transactionHash": "0x7d577d8945cba455d7eee488a1496d3157afae91ba9c05793f76ff2c9b673cc0",
          "transactionIndex": "0x61",
          "logIndex": "0x89",
          "removed": false
        }
      ],
      "logsBloom": "0x00000000000000000000000000000000000000000000000000000000000000000000000000000000000000000000000000000000000000004000000000000000000000000000000000000008000000000000000000000000000000000000000000000000020000000000000004000800020000000000000000000010000000000000000000000000000000000000000000000000000000000000010000000000000000000000000000000000000000004000000000000000000000000000020000000002000000800000008000000000000000000000080000000000000020000000000000000000000000000000000000000000000000000000000000000000",
      "type": "0x2",
      "transactionHash": "0x7d577d8945cba455d7eee488a1496d3157afae91ba9c05793f76ff2c9b673cc0",
      "transactionIndex": "0x61",
      "blockHash": "0x22e1e2081a80e5e33f722e3b2f248a41b87c89502312bcabc9ace341b6703446",
      "blockNumber": "0x724fa3",
      "gasUsed": "0xfb93",
      "effectiveGasPrice": "0x5494f7cf0",
      "from": "0xc77f7fed3b5cc8249adc428c5f44c9063b9734b4",
      "to": "0x5eb9cc76c3506942c1c0ead70e877dd5e4f00cb0",
      "contractAddress": null
    }
  ],
  "libraries": [],
  "pending": [],
  "returns": {},
  "timestamp": 1736879462,
  "chain": 11155111,
  "commit": "51a374b"
}