{
  "transactions": [
    {
      "hash": "0xeb63560c89ab300448c5bc7f4c508180111bbfdd61e16176ac9da281ddeacfd2",
      "transactionType": "CALL",
      "contractName": null,
      "contractAddress": "0x8aafd3ede9adb0ff97c7aebce82a919afb1c8764",
      "function": "sell(uint256)",
      "arguments": [
        "38690806"
      ],
      "transaction": {
        "from": "0xc77f7fed3b5cc8249adc428c5f44c9063b9734b4",
        "to": "0x8aafd3ede9adb0ff97c7aebce82a919afb1c8764",
        "gas": "0x15d88",
        "value": "0x0",
        "input": "0xe4849b3200000000000000000000000000000000000000000000000000000000024e5ff6",
        "nonce": "0x1757",
        "chainId": "0xaa36a7"
      },
      "additionalContracts": [],
      "isFixedGasLimit": false
    }
  ],
  "receipts": [
    {
      "status": "0x1",
      "cumulativeGasUsed": "0x99f7a9",
      "logs": [
        {
          "address": "0x8aafd3ede9adb0ff97c7aebce82a919afb1c8764",
          "topics": [
            "0xddf252ad1be2c89b69c2b068fc378daa952ba7f163c4a11628f55a4df523b3ef",
            "0x000000000000000000000000c77f7fed3b5cc8249adc428c5f44c9063b9734b4",
            "0x0000000000000000000000000000000000000000000000000000000000000000"
          ],
          "data": "0x000000000000000000000000000000000000000000000000000000000249a6e0",
          "blockHash": "0xb6dde02a99f5ad8b816f1a53795bec58463bee397119efc498bf833bfa18c600",
          "blockNumber": "0x731f28",
          "transactionHash": "0xeb63560c89ab300448c5bc7f4c508180111bbfdd61e16176ac9da281ddeacfd2",
          "transactionIndex": "0x49",
          "logIndex": "0x6e",
          "removed": false
        },
        {
          "address": "0x8aafd3ede9adb0ff97c7aebce82a919afb1c8764",
          "topics": [
            "0xddf252ad1be2c89b69c2b068fc378daa952ba7f163c4a11628f55a4df523b3ef",
            "0x000000000000000000000000c77f7fed3b5cc8249adc428c5f44c9063b9734b4",
            "0x000000000000000000000000c77f7fed3b5cc8249adc428c5f44c9063b9734b4"
          ],
          "data": "0x000000000000000000000000000000000000000000000000000000000004b916",
          "blockHash": "0xb6dde02a99f5ad8b816f1a53795bec58463bee397119efc498bf833bfa18c600",
          "blockNumber": "0x731f28",
          "transactionHash": "0xeb63560c89ab300448c5bc7f4c508180111bbfdd61e16176ac9da281ddeacfd2",
          "transactionIndex": "0x49",
          "logIndex": "0x6f",
          "removed": false
        },
        {
          "address": "0x8aafd3ede9adb0ff97c7aebce82a919afb1c8764",
          "topics": [
            "0x4afcb4a87cdbd9974efdb92ee48bc8d7cd0ae4bf217004db3d080cbaee652ca7"
          ],
          "data": "0x00000000000000000000000000000000000000000000000000000000679072c8000000000000000000000000000000000000000000000000001802025906c94b000000000000000000000000000000000000000000000000000000000003fd51",
          "blockHash": "0xb6dde02a99f5ad8b816f1a53795bec58463bee397119efc498bf833bfa18c600",
          "blockNumber": "0x731f28",
          "transactionHash": "0xeb63560c89ab300448c5bc7f4c508180111bbfdd61e16176ac9da281ddeacfd2",
          "transactionIndex": "0x49",
          "logIndex": "0x70",
          "removed": false
        }
      ],
      "logsBloom": "0x00000000000000000000000000000000000000000600000000000000000000000000000000000000000000000000000000000000000000004000000000000000000000000000004000000008000000000000000000000000000000000000000000000000020000000000000000000800020000000000000000000010000000000000000000000000000000000000000000000000000000000000010000000000000000000000000000000000000000004000000000000000000000000000000000000002000000800000000000000000000000000000080000000000000020000000000000000000000000000000000000000000000000000000000000000000",
      "type": "0x2",
      "transactionHash": "0xeb63560c89ab300448c5bc7f4c508180111bbfdd61e16176ac9da281ddeacfd2",
      "transactionIndex": "0x49",
      "blockHash": "0xb6dde02a99f5ad8b816f1a53795bec58463bee397119efc498bf833bfa18c600",
      "blockNumber": "0x731f28",
      "gasUsed": "0xfd0f",
      "effectiveGasPrice": "0x3bb758f6",
      "from": "0xc77f7fed3b5cc8249adc428c5f44c9063b9734b4",
      "to": "0x8aafd3ede9adb0ff97c7aebce82a919afb1c8764",
      "contractAddress": null
    }
  ],
  "libraries": [],
  "pending": [],
  "returns": {},
  "timestamp": 1737519817,
  "chain": 11155111,
  "commit": "1d2fb70"
}