{
  "transactions": [
    {
      "hash": "0xe86c37ad51b600dcf2c24bf59d81a2a44d4f5933d450b2f1691fd9a39bfd97a6",
      "transactionType": "CALL",
      "contractName": null,
      "contractAddress": "0xbf4a322f1496e5c3d34a9bcdb4c60567b38c7de2",
      "function": "buy(address)",
      "arguments": [
        "0xC77f7fed3b5Cc8249aDc428c5F44C9063B9734b4"
      ],
      "transaction": {
        "from": "0xc77f7fed3b5cc8249adc428c5f44c9063b9734b4",
        "to": "0xbf4a322f1496e5c3d34a9bcdb4c60567b38c7de2",
        "gas": "0x1b309",
        "value": "0xde0b6b3a7640000",
        "input": "0xf088d547000000000000000000000000c77f7fed3b5cc8249adc428c5f44c9063b9734b4",
        "nonce": "0x8fe",
        "chainId": "0xaa36a7"
      },
      "additionalContracts": [],
      "isFixedGasLimit": false
    }
  ],
  "receipts": [
    {
      "status": "0x1",
      "cumulativeGasUsed": "0x153b48a",
      "logs": [
        {
          "address": "0xbf4a322f1496e5c3d34a9bcdb4c60567b38c7de2",
          "topics": [
            "0xddf252ad1be2c89b69c2b068fc378daa952ba7f163c4a11628f55a4df523b3ef",
            "0x0000000000000000000000000000000000000000000000000000000000000000",
            "0x000000000000000000000000c77f7fed3b5cc8249adc428c5f44c9063b9734b4"
          ],
          "data": "0x0000000000000000000000000000000000000000000000358c06150042fbea2f",
          "blockHash": "0xb5a1de19c19a3aca0e66e1590b9b1342a5d3b111124b3eca1e2cd2524811324a",
          "blockNumber": "0x725876",
          "transactionHash": "0xe86c37ad51b600dcf2c24bf59d81a2a44d4f5933d450b2f1691fd9a39bfd97a6",
          "transactionIndex": "0x54",
          "logIndex": "0xaa",
          "removed": false
        },
        {
          "address": "0xbf4a322f1496e5c3d34a9bcdb4c60567b38c7de2",
          "topics": [
            "0xddf252ad1be2c89b69c2b068fc378daa952ba7f163c4a11628f55a4df523b3ef",
            "0x0000000000000000000000000000000000000000000000000000000000000000",
            "0x000000000000000000000000c77f7fed3b5cc8249adc428c5f44c9063b9734b4"
          ],
          "data": "0x0000000000000000000000000000000000000000000000002994bf7eb13cc84f",
          "blockHash": "0xb5a1de19c19a3aca0e66e1590b9b1342a5d3b111124b3eca1e2cd2524811324a",
          "blockNumber": "0x725876",
          "transactionHash": "0xe86c37ad51b600dcf2c24bf59d81a2a44d4f5933d450b2f1691fd9a39bfd97a6",
          "transactionIndex": "0x54",
          "logIndex": "0xab",
          "removed": false
        },
        {
          "address": "0xbf4a322f1496e5c3d34a9bcdb4c60567b38c7de2",
          "topics": [
            "0x4afcb4a87cdbd9974efdb92ee48bc8d7cd0ae4bf217004db3d080cbaee652ca7"
          ],
          "data": "0x00000000000000000000000000000000000000000000000000000000678717b400000000000000000000000000000000000000000000000000038f8f458f99cb0000000000000000000000000000000000000000000000000de0b6b3a7640000",
          "blockHash": "0xb5a1de19c19a3aca0e66e1590b9b1342a5d3b111124b3eca1e2cd2524811324a",
          "blockNumber": "0x725876",
          "transactionHash": "0xe86c37ad51b600dcf2c24bf59d81a2a44d4f5933d450b2f1691fd9a39bfd97a6",
          "transactionIndex": "0x54",
          "logIndex": "0xac",
          "removed": false
        }
      ],
      "logsBloom": "0x00000000000000000000000000000000000000000000000000000000000000000000000000000000000000000000000000000000000000004000000000000000000000000000000000000008000000000000001000000000000000000000000000000000020000000000000000000800020000000000000000000010000000000000000000000000000000000000000000000000000008000000010000000000000000000000000000000000000000004000000000000000000000000000000000000002000000800000000000001000000000000000080000000000000020000000000000000000000000000000000000000000000000000000000000000000",
      "type": "0x2",
      "transactionHash": "0xe86c37ad51b600dcf2c24bf59d81a2a44d4f5933d450b2f1691fd9a39bfd97a6",
      "transactionIndex": "0x54",
      "blockHash": "0xb5a1de19c19a3aca0e66e1590b9b1342a5d3b111124b3eca1e2cd2524811324a",
      "blockNumber": "0x725876",
      "gasUsed": "0x13af6",
      "effectiveGasPrice": "0x26faa165",
      "from": "0xc77f7fed3b5cc8249adc428c5f44c9063b9734b4",
      "to": "0xbf4a322f1496e5c3d34a9bcdb4c60567b38c7de2",
      "contractAddress": null
    }
  ],
  "libraries": [],
  "pending": [],
  "returns": {},
  "timestamp": 1736906677,
  "chain": 11155111,
  "commit": "51a374b"
}