{
  "transactions": [
    {
      "hash": "0x3b70bfd2b3728594df9839fd27959db55725d7de3b65b16de5aea385d12b4769",
      "transactionType": "CALL",
      "contractName": null,
      "contractAddress": "0x270e88f8683660553e8ba4eb2ad7c91a1710d769",
      "function": "buy(address)",
      "arguments": [
        "0xC77f7fed3b5Cc8249aDc428c5F44C9063B9734b4"
      ],
      "transaction": {
        "from": "0xc77f7fed3b5cc8249adc428c5f44c9063b9734b4",
        "to": "0x270e88f8683660553e8ba4eb2ad7c91a1710d769",
        "gas": "0x1b30c",
        "value": "0xde0b6b3a7640000",
        "input": "0xf088d547000000000000000000000000c77f7fed3b5cc8249adc428c5f44c9063b9734b4",
        "nonce": "0x75d",
        "chainId": "0xaa36a7"
      },
      "additionalContracts": [],
      "isFixedGasLimit": false
    }
  ],
  "receipts": [
    {
      "status": "0x1",
      "cumulativeGasUsed": "0xa3c17a",
      "logs": [
        {
          "address": "0x270e88f8683660553e8ba4eb2ad7c91a1710d769",
          "topics": [
            "0xddf252ad1be2c89b69c2b068fc378daa952ba7f163c4a11628f55a4df523b3ef",
            "0x0000000000000000000000000000000000000000000000000000000000000000",
            "0x000000000000000000000000c77f7fed3b5cc8249adc428c5f44c9063b9734b4"
          ],
          "data": "0x000000000000000000000000000000000000000000000027d3f2eb0b1a6cbe0a",
          "blockHash": "0xb0bfd115f911f2e5e22cb206bc04b4672f8e98d4e13f53866b24b627f12261d0",
          "blockNumber": "0x725484",
          "transactionHash": "0x3b70bfd2b3728594df9839fd27959db55725d7de3b65b16de5aea385d12b4769",
          "transactionIndex": "0x2f",
          "logIndex": "0x54",
          "removed": false
        },
        {
          "address": "0x270e88f8683660553e8ba4eb2ad7c91a1710d769",
          "topics": [
            "0xddf252ad1be2c89b69c2b068fc378daa952ba7f163c4a11628f55a4df523b3ef",
            "0x0000000000000000000000000000000000000000000000000000000000000000",
            "0x000000000000000000000000c77f7fed3b5cc8249adc428c5f44c9063b9734b4"
          ],
          "data": "0x0000000000000000000000000000000000000000000000001eed8089ca73e4c6",
          "blockHash": "0xb0bfd115f911f2e5e22cb206bc04b4672f8e98d4e13f53866b24b627f12261d0",
          "blockNumber": "0x725484",
          "transactionHash": "0x3b70bfd2b3728594df9839fd27959db55725d7de3b65b16de5aea385d12b4769",
          "transactionIndex": "0x2f",
          "logIndex": "0x55",
          "removed": false
        },
        {
          "address": "0x270e88f8683660553e8ba4eb2ad7c91a1710d769",
          "topics": [
            "0x4afcb4a87cdbd9974efdb92ee48bc8d7cd0ae4bf217004db3d080cbaee652ca7"
          ],
          "data": "0x000000000000000000000000000000000000000000000000000000006786e8380000000000000000000000000000000000000000000000000004c9a566ee47760000000000000000000000000000000000000000000000000de0b6b3a7640000",
          "blockHash": "0xb0bfd115f911f2e5e22cb206bc04b4672f8e98d4e13f53866b24b627f12261d0",
          "blockNumber": "0x725484",
          "transactionHash": "0x3b70bfd2b3728594df9839fd27959db55725d7de3b65b16de5aea385d12b4769",
          "transactionIndex": "0x2f",
          "logIndex": "0x56",
          "removed": false
        }
      ],
      "logsBloom": "0x00000000000000000000000000000000000000000000000000000000000000000000000000000000000000000000000020000000000000004000000000000000000000000000000000000008000000000000000000000000000000000000000000000000020000000000000000000800020000000000000000000010000000000000000000010000000000000000000000000000000000000000010000000000000000000000000000000000000000004000000000000000000000000000000000000002000000800000000000000000000000000000080000008000000020000000000000000000000000000000000000000000000000000000000000000000",
      "type": "0x2",
      "transactionHash": "0x3b70bfd2b3728594df9839fd27959db55725d7de3b65b16de5aea385d12b4769",
      "transactionIndex": "0x2f",
      "blockHash": "0xb0bfd115f911f2e5e22cb206bc04b4672f8e98d4e13f53866b24b627f12261d0",
      "blockNumber": "0x725484",
      "gasUsed": "0x13af8",
      "effectiveGasPrice": "0x131a38300",
      "from": "0xc77f7fed3b5cc8249adc428c5f44c9063b9734b4",
      "to": "0x270e88f8683660553e8ba4eb2ad7c91a1710d769",
      "contractAddress": null
    }
  ],
  "libraries": [],
  "pending": [],
  "returns": {},
  "timestamp": 1736894521,
  "chain": 11155111,
  "commit": "51a374b"
}