{
  "transactions": [
    {
      "hash": "0xb959adc14f97eac58fbb1f0100e9e9aff0021c649654973b7f6de64f1d867681",
      "transactionType": "CALL",
      "contractName": null,
      "contractAddress": "0x5eb9cc76c3506942c1c0ead70e877dd5e4f00cb0",
      "function": "buy(address)",
      "arguments": [
        "0xC77f7fed3b5Cc8249aDc428c5F44C9063B9734b4"
      ],
      "transaction": {
        "from": "0xc77f7fed3b5cc8249adc428c5f44c9063b9734b4",
        "to": "0x5eb9cc76c3506942c1c0ead70e877dd5e4f00cb0",
        "gas": "0x1b30c",
        "value": "0xde0b6b3a7640000",
        "input": "0xf088d547000000000000000000000000c77f7fed3b5cc8249adc428c5f44c9063b9734b4",
        "nonce": "0x2c2",
        "chainId": "0xaa36a7"
      },
      "additionalContracts": [],
      "isFixedGasLimit": false
    }
  ],
  "receipts": [
    {
      "status": "0x1",
      "cumulativeGasUsed": "0xcf2379",
      "logs": [
        {
          "address": "0x5eb9cc76c3506942c1c0ead70e877dd5e4f00cb0",
          "topics": [
            "0xddf252ad1be2c89b69c2b068fc378daa952ba7f163c4a11628f55a4df523b3ef",
            "0x0000000000000000000000000000000000000000000000000000000000000000",
            "0x000000000000000000000000c77f7fed3b5cc8249adc428c5f44c9063b9734b4"
          ],
          "data": "0x00000000000000000000000000000000000000000000003575b5b776206bf432",
          "blockHash": "0xfa856cc70dae336feb709b4af9ef95539c05191ff74ec3b4f9ed46d70dd470c2",
          "blockNumber": "0x724e9d",
          "transactionHash": "0xb959adc14f97eac58fbb1f0100e9e9aff0021c649654973b7f6de64f1d867681",
          "transactionIndex": "0x50",
          "logIndex": "0xd7",
          "removed": false
        },
        {
          "address": "0x5eb9cc76c3506942c1c0ead70e877dd5e4f00cb0",
          "topics": [
            "0xddf252ad1be2c89b69c2b068fc378daa952ba7f163c4a11628f55a4df523b3ef",
            "0x0000000000000000000000000000000000000000000000000000000000000000",
            "0x000000000000000000000000c77f7fed3b5cc8249adc428c5f44c9063b9734b4"
          ],
          "data": "0x00000000000000000000000000000000000000000000000029836ba5f8415eb5",
          "blockHash": "0xfa856cc70dae336feb709b4af9ef95539c05191ff74ec3b4f9ed46d70dd470c2",
          "blockNumber": "0x724e9d",
          "transactionHash": "0xb959adc14f97eac58fbb1f0100e9e9aff0021c649654973b7f6de64f1d867681",
          "transactionIndex": "0x50",
          "logIndex": "0xd8",
          "removed": false
        },
        {
          "address": "0x5eb9cc76c3506942c1c0ead70e877dd5e4f00cb0",
          "topics": [
            "0x4afcb4a87cdbd9974efdb92ee48bc8d7cd0ae4bf217004db3d080cbaee652ca7"
          ],
          "data": "0x000000000000000000000000000000000000000000000000000000006786a1100000000000000000000000000000000000000000000000000003910972d0bd420000000000000000000000000000000000000000000000000de0b6b3a7640000",
          "blockHash": "0xfa856cc70dae336feb709b4af9ef95539c05191ff74ec3b4f9ed46d70dd470c2",
          "blockNumber": "0x724e9d",
          "transactionHash": "0xb959adc14f97eac58fbb1f0100e9e9aff0021c649654973b7f6de64f1d867681",
          "transactionIndex": "0x50",
          "logIndex": "0xd9",
          "removed": false
        }
      ],
      "logsBloom": "0x00000000000000000000000000000000000000000000000000000000000000000000000000000000000000000000000000000000000000004000000000000000000000000000000000000008000000000000000000000000000000000000000000000000020000000000000004000800020000000000000000000010000000000000000000000000000000000000000000000000000000000000010000000000000000000000000000000000000000004000000000000000000000000000020000000002000000800000008000000000000000000000080000000000000020000000000000000000000000000000000000000000000000000000000000000000",
      "type": "0x2",
      "transactionHash": "0xb959adc14f97eac58fbb1f0100e9e9aff0021c649654973b7f6de64f1d867681",
      "transactionIndex": "0x50",
      "blockHash": "0xfa856cc70dae336feb709b4af9ef95539c05191ff74ec3b4f9ed46d70dd470c2",
      "blockNumber": "0x724e9d",
      "gasUsed": "0x13af8",
      "effectiveGasPrice": "0x47a86b932",
      "from": "0xc77f7fed3b5cc8249adc428c5f44c9063b9734b4",
      "to": "0x5eb9cc76c3506942c1c0ead70e877dd5e4f00cb0",
      "contractAddress": null
    }
  ],
  "libraries": [],
  "pending": [],
  "returns": {},
  "timestamp": 1736876305,
  "chain": 11155111,
  "commit": "51a374b"
}