{
  "transactions": [
    {
      "hash": "0x92c1f940b3dad3f8f1dc6d8ea33be636475dd8bb3c99898e40cf5fe8977244dd",
      "transactionType": "CALL",
      "contractName": null,
      "contractAddress": "0xbf4a322f1496e5c3d34a9bcdb4c60567b38c7de2",
      "function": "sell(uint256)",
      "arguments": [
        "976027756341943234258"
      ],
      "transaction": {
        "from": "0xc77f7fed3b5cc8249adc428c5f44c9063b9734b4",
        "to": "0xbf4a322f1496e5c3d34a9bcdb4c60567b38c7de2",
        "gas": "0x16fea",
        "value": "0x0",
        "input": "0xe4849b32000000000000000000000000000000000000000000000034e91b292d230a6ed2",
        "nonce": "0xd41",
        "chainId": "0xaa36a7"
      },
      "additionalContracts": [],
      "isFixedGasLimit": false
    }
  ],
  "receipts": [
    {
      "status": "0x1",
      "cumulativeGasUsed": "0x12e86e2",
      "logs": [
        {
          "address": "0xbf4a322f1496e5c3d34a9bcdb4c60567b38c7de2",
          "topics": [
            "0xddf252ad1be2c89b69c2b068fc378daa952ba7f163c4a11628f55a4df523b3ef",
            "0x000000000000000000000000c77f7fed3b5cc8249adc428c5f44c9063b9734b4",
            "0x0000000000000000000000000000000000000000000000000000000000000000"
          ],
          "data": "0x000000000000000000000000000000000000000000000034e91b292d230a6ed2",
          "blockHash": "0x938f0787581d39c50676c289af1205e343a2e3fe41e3bd683dbbe85b368ce3af",
          "blockNumber": "0x725da7",
          "transactionHash": "0x92c1f940b3dad3f8f1dc6d8ea33be636475dd8bb3c99898e40cf5fe8977244dd",
          "transactionIndex": "0x96",
          "logIndex": "0xb7",
          "removed": false
        },
        {
          "address": "0xbf4a322f1496e5c3d34a9bcdb4c60567b38c7de2",
          "topics": [
            "0x4afcb4a87cdbd9974efdb92ee48bc8d7cd0ae4bf217004db3d080cbaee652ca7"
          ],
          "data": "0x000000000000000000000000000000000000000000000000000000006787564800000000000000000000000000000000000000000000000000039d568a2a32ed0000000000000000000000000000000000000000000000000dc7e3d8d4a71ac2",
          "blockHash": "0x938f0787581d39c50676c289af1205e343a2e3fe41e3bd683dbbe85b368ce3af",
          "blockNumber": "0x725da7",
          "transactionHash": "0x92c1f940b3dad3f8f1dc6d8ea33be636475dd8bb3c99898e40cf5fe8977244dd",
          "transactionIndex": "0x96",
          "logIndex": "0xb8",
          "removed": false
        }
      ],
      "logsBloom": "0x00000000000000000000000000000000000000000000000000000000000000000000000000000000000000000000000000000000000000004000000000000000000000000000000000000008000000000000001000000000000000000000000000000000020000000000000000000800020000000000000000000010000000000000000000000000000000000000000000000000000008000000010000000000000000000000000000000000000000004000000000000000000000000000000000000002000000800000000000001000000000000000080000000000000020000000000000000000000000000000000000000000000000000000000000000000",
      "type": "0x2",
      "transactionHash": "0x92c1f940b3dad3f8f1dc6d8ea33be636475dd8bb3c99898e40cf5fe8977244dd",
      "transactionIndex": "0x96",
      "blockHash": "0x938f0787581d39c50676c289af1205e343a2e3fe41e3bd683dbbe85b368ce3af",
      "blockNumber": "0x725da7",
      "gasUsed": "0xfb91",
      "effectiveGasPrice": "0x4a3312ba4",
      "from": "0xc77f7fed3b5cc8249adc428c5f44c9063b9734b4",
      "to": "0xbf4a322f1496e5c3d34a9bcdb4c60567b38c7de2",
      "contractAddress": null
    }
  ],
  "libraries": [],
  "pending": [],
  "returns": {},
  "timestamp": 1736922697,
  "chain": 11155111,
  "commit": "51a374b"
}