{
  "transactions": [
    {
      "hash": "0xbdd76acc0f3410722aa617d741b03ccfa44849504d11a737d8b186da92e61e4a",
      "transactionType": "CALL",
      "contractName": null,
      "contractAddress": "0x8aafd3ede9adb0ff97c7aebce82a919afb1c8764",
      "function": "sell(uint256)",
      "arguments": [
        "52173319"
      ],
      "transaction": {
        "from": "0xc77f7fed3b5cc8249adc428c5f44c9063b9734b4",
        "to": "0x8aafd3ede9adb0ff97c7aebce82a919afb1c8764",
        "gas": "0x15d88",
        "value": "0x0",
        "input": "0xe4849b3200000000000000000000000000000000000000000000000000000000031c1a07",
        "nonce": "0x1544",
        "chainId": "0xaa36a7"
      },
      "additionalContracts": [],
      "isFixedGasLimit": false
    }
  ],
  "receipts": [
    {
      "status": "0x1",
      "cumulativeGasUsed": "0x117ffbc",
      "logs": [
        {
          "address": "0x8aafd3ede9adb0ff97c7aebce82a919afb1c8764",
          "topics": [
            "0xddf252ad1be2c89b69c2b068fc378daa952ba7f163c4a11628f55a4df523b3ef",
            "0x000000000000000000000000c77f7fed3b5cc8249adc428c5f44c9063b9734b4",
            "0x0000000000000000000000000000000000000000000000000000000000000000"
          ],
          "data": "0x000000000000000000000000000000000000000000000000000000000315bb9d",
          "blockHash": "0xdc33b985339cdae64b0edbd7d8d98b6afd710fc25a0f9e5f7bae3a92cf72e35c",
          "blockNumber": "0x731ca9",
          "transactionHash": "0xbdd76acc0f3410722aa617d741b03ccfa44849504d11a737d8b186da92e61e4a",
          "transactionIndex": "0x80",
          "logIndex": "0x1a7",
          "removed": false
        },
        {
          "address": "0x8aafd3ede9adb0ff97c7aebce82a919afb1c8764",
          "topics": [
            "0xddf252ad1be2c89b69c2b068fc378daa952ba7f163c4a11628f55a4df523b3ef",
            "0x000000000000000000000000c77f7fed3b5cc8249adc428c5f44c9063b9734b4",
            "0x000000000000000000000000c77f7fed3b5cc8249adc428c5f44c9063b9734b4"
          ],
          "data": "0x0000000000000000000000000000000000000000000000000000000000065e6a",
          "blockHash": "0xdc33b985339cdae64b0edbd7d8d98b6afd710fc25a0f9e5f7bae3a92cf72e35c",
          "blockNumber": "0x731ca9",
          "transactionHash": "0xbdd76acc0f3410722aa617d741b03ccfa44849504d11a737d8b186da92e61e4a",
          "transactionIndex": "0x80",
          "logIndex": "0x1a8",
          "removed": false
        },
        {
          "address": "0x8aafd3ede9adb0ff97c7aebce82a919afb1c8764",
          "topics": [
            "0x4afcb4a87cdbd9974efdb92ee48bc8d7cd0ae4bf217004db3d080cbaee652ca7"
          ],
          "data": "0x00000000000000000000000000000000000000000000000000000000679054c80000000000000000000000000000000000000000000000000011d45ef833b6b9000000000000000000000000000000000000000000000000000000000003fecb",
          "blockHash": "0xdc33b985339cdae64b0edbd7d8d98b6afd710fc25a0f9e5f7bae3a92cf72e35c",
          "blockNumber": "0x731ca9",
          "transactionHash": "0xbdd76acc0f3410722aa617d741b03ccfa44849504d11a737d8b186da92e61e4a",
          "transactionIndex": "0x80",
          "logIndex": "0x1a9",
          "removed": false
        }
      ],
      "logsBloom": "0x00000000000000000000000000000000000000000600000000000000000000000000000000000000000000000000000000000000000000004000000000000000000000000000004000000008000000000000000000000000000000000000000000000000020000000000000000000800020000000000000000000010000000000000000000000000000000000000000000000000000000000000010000000000000000000000000000000000000000004000000000000000000000000000000000000002000000800000000000000000000000000000080000000000000020000000000000000000000000000000000000000000000000000000000000000000",
      "type": "0x2",
      "transactionHash": "0xbdd76acc0f3410722aa617d741b03ccfa44849504d11a737d8b186da92e61e4a",
      "transactionIndex": "0x80",
      "blockHash": "0xdc33b985339cdae64b0edbd7d8d98b6afd710fc25a0f9e5f7bae3a92cf72e35c",
      "blockNumber": "0x731ca9",
      "gasUsed": "0xfd0f",
      "effectiveGasPrice": "0xdce97c18",
      "from": "0xc77f7fed3b5cc8249adc428c5f44c9063b9734b4",
      "to": "0x8aafd3ede9adb0ff97c7aebce82a919afb1c8764",
      "contractAddress": null
    }
  ],
  "libraries": [],
  "pending": [],
  "returns": {},
  "timestamp": 1737512137,
  "chain": 11155111,
  "commit": "1d2fb70"
}