{
  "transactions": [
    {
      "hash": "0xd795d2c5c7db604355e30d8ef7218cfa0f6115e063df6b7ca701bf11d0a48f4c",
      "transactionType": "CALL",
      "contractName": null,
      "contractAddress": "0x8aafd3ede9adb0ff97c7aebce82a919afb1c8764",
      "function": "sell(uint256)",
      "arguments": [
        "1490902"
      ],
      "transaction": {
        "from": "0xc77f7fed3b5cc8249adc428c5f44c9063b9734b4",
        "to": "0x8aafd3ede9adb0ff97c7aebce82a919afb1c8764",
        "gas": "0x16208",
        "value": "0x0",
        "input": "0xe4849b32000000000000000000000000000000000000000000000000000000000016bfd6",
        "nonce": "0x107a",
        "chainId": "0xaa36a7"
      },
      "additionalContracts": [],
      "isFixedGasLimit": false
    }
  ],
  "receipts": [
    {
      "status": "0x1",
      "cumulativeGasUsed": "0x808d7c",
      "logs": [
        {
          "address": "0x8aafd3ede9adb0ff97c7aebce82a919afb1c8764",
          "topics": [
            "0xddf252ad1be2c89b69c2b068fc378daa952ba7f163c4a11628f55a4df523b3ef",
            "0x000000000000000000000000c77f7fed3b5cc8249adc428c5f44c9063b9734b4",
            "0x0000000000000000000000000000000000000000000000000000000000000000"
          ],
          "data": "0x000000000000000000000000000000000000000000000000000000000016913f",
          "blockHash": "0x6d252a1d4ec24e924add8df61b80855e2853786414d1daec77ce72da0e1dda86",
          "blockNumber": "0x731703",
          "transactionHash": "0xd795d2c5c7db604355e30d8ef7218cfa0f6115e063df6b7ca701bf11d0a48f4c",
          "transactionIndex": "0x6e",
          "logIndex": "0x80",
          "removed": false
        },
        {
          "address": "0x8aafd3ede9adb0ff97c7aebce82a919afb1c8764",
          "topics": [
            "0xddf252ad1be2c89b69c2b068fc378daa952ba7f163c4a11628f55a4df523b3ef",
            "0x000000000000000000000000c77f7fed3b5cc8249adc428c5f44c9063b9734b4",
            "0x000000000000000000000000c77f7fed3b5cc8249adc428c5f44c9063b9734b4"
          ],
          "data": "0x0000000000000000000000000000000000000000000000000000000000002e97",
          "blockHash": "0x6d252a1d4ec24e924add8df61b80855e2853786414d1daec77ce72da0e1dda86",
          "blockNumber": "0x731703",
          "transactionHash": "0xd795d2c5c7db604355e30d8ef7218cfa0f6115e063df6b7ca701bf11d0a48f4c",
          "transactionIndex": "0x6e",
          "logIndex": "0x81",
          "removed": false
        },
        {
          "address": "0x8aafd3ede9adb0ff97c7aebce82a919afb1c8764",
          "topics": [
            "0x4afcb4a87cdbd9974efdb92ee48bc8d7cd0ae4bf217004db3d080cbaee652ca7"
          ],
          "data": "0x00000000000000000000000000000000000000000000000000000000679010dc0000000000000000000000000000000000000000000000000004f7d35598966f0000000000000000000000000000000000000000000000000000000000000824",
          "blockHash": "0x6d252a1d4ec24e924add8df61b80855e2853786414d1daec77ce72da0e1dda86",
          "blockNumber": "0x731703",
          "transactionHash": "0xd795d2c5c7db604355e30d8ef7218cfa0f6115e063df6b7ca701bf11d0a48f4c",
          "transactionIndex": "0x6e",
          "logIndex": "0x82",
          "removed": false
        }
      ],
      "logsBloom": "0x00000000000000000000000000000000000000000600000000000000000000000000000000000000000000000000000000000000000000004000000000000000000000000000004000000008000000000000000000000000000000000000000000000000020000000000000000000800020000000000000000000010000000000000000000000000000000000000000000000000000000000000010000000000000000000000000000000000000000004000000000000000000000000000000000000002000000800000000000000000000000000000080000000000000020000000000000000000000000000000000000000000000000000000000000000000",
      "type": "0x2",
      "transactionHash": "0xd795d2c5c7db604355e30d8ef7218cfa0f6115e063df6b7ca701bf11d0a48f4c",
      "transactionIndex": "0x6e",
      "blockHash": "0x6d252a1d4ec24e924add8df61b80855e2853786414d1daec77ce72da0e1dda86",
      "blockNumber": "0x731703",
      "gasUsed": "0xf213",
      "effectiveGasPrice": "0x44605d79",
      "from": "0xc77f7fed3b5cc8249adc428c5f44c9063b9734b4",
      "to": "0x8aafd3ede9adb0ff97c7aebce82a919afb1c8764",
      "contractAddress": null
    }
  ],
  "libraries": [],
  "pending": [],
  "returns": {},
  "timestamp": 1737494749,
  "chain": 11155111,
  "commit": "1d2fb70"
}