{
  "transactions": [
    {
      "hash": "0x33a468f99312ea8dc5e579a07ae0d7e3dcb02feed947c6c87a58a8cf0a1b3b53",
      "transactionType": "CALL",
      "contractName": null,
      "contractAddress": "0x8aafd3ede9adb0ff97c7aebce82a919afb1c8764",
      "function": "sell(uint256)",
      "arguments": [
        "1489200"
      ],
      "transaction": {
        "from": "0xc77f7fed3b5cc8249adc428c5f44c9063b9734b4",
        "to": "0x8aafd3ede9adb0ff97c7aebce82a919afb1c8764",
        "gas": "0x16208",
        "value": "0x0",
        "input": "0xe4849b32000000000000000000000000000000000000000000000000000000000016b930",
        "nonce": "0x1084",
        "chainId": "0xaa36a7"
      },
      "additionalContracts": [],
      "isFixedGasLimit": false
    }
  ],
  "receipts": [
    {
      "status": "0x1",
      "cumulativeGasUsed": "0x2115458",
      "logs": [
        {
          "address": "0x8aafd3ede9adb0ff97c7aebce82a919afb1c8764",
          "topics": [
            "0xddf252ad1be2c89b69c2b068fc378daa952ba7f163c4a11628f55a4df523b3ef",
            "0x000000000000000000000000c77f7fed3b5cc8249adc428c5f44c9063b9734b4",
            "0x0000000000000000000000000000000000000000000000000000000000000000"
          ],
          "data": "0x0000000000000000000000000000000000000000000000000000000000168aa7",
          "blockHash": "0x6fcb462a8967f06fe045a79e11754a1419c8eb631e18741264ac04284fd12d85",
          "blockNumber": "0x73170f",
          "transactionHash": "0x33a468f99312ea8dc5e579a07ae0d7e3dcb02feed947c6c87a58a8cf0a1b3b53",
          "transactionIndex": "0x37",
          "logIndex": "0x110a",
          "removed": false
        },
        {
          "address": "0x8aafd3ede9adb0ff97c7aebce82a919afb1c8764",
          "topics": [
            "0xddf252ad1be2c89b69c2b068fc378daa952ba7f163c4a11628f55a4df523b3ef",
            "0x000000000000000000000000c77f7fed3b5cc8249adc428c5f44c9063b9734b4",
            "0x000000000000000000000000c77f7fed3b5cc8249adc428c5f44c9063b9734b4"
          ],
          "data": "0x0000000000000000000000000000000000000000000000000000000000002e89",
          "blockHash": "0x6fcb462a8967f06fe045a79e11754a1419c8eb631e18741264ac04284fd12d85",
          "blockNumber": "0x73170f",
          "transactionHash": "0x33a468f99312ea8dc5e579a07ae0d7e3dcb02feed947c6c87a58a8cf0a1b3b53",
          "transactionIndex": "0x37",
          "logIndex": "0x110b",
          "removed": false
        },
        {
          "address": "0x8aafd3ede9adb0ff97c7aebce82a919afb1c8764",
          "topics": [
            "0x4afcb4a87cdbd9974efdb92ee48bc8d7cd0ae4bf217004db3d080cbaee652ca7"
          ],
          "data": "0x00000000000000000000000000000000000000000000000000000000679011780000000000000000000000000000000000000000000000000004f9471c971ebf0000000000000000000000000000000000000000000000000000000000000824",
          "blockHash": "0x6fcb462a8967f06fe045a79e11754a1419c8eb631e18741264ac04284fd12d85",
          "blockNumber": "0x73170f",
          "transactionHash": "0x33a468f99312ea8dc5e579a07ae0d7e3dcb02feed947c6c87a58a8cf0a1b3b53",
          "transactionIndex": "0x37",
          "logIndex": "0x110c",
          "removed": false
        }
      ],
      "logsBloom": "0x00000000000000000000000000000000000000000600000000000000000000000000000000000000000000000000000000000000000000004000000000000000000000000000004000000008000000000000000000000000000000000000000000000000020000000000000000000800020000000000000000000010000000000000000000000000000000000000000000000000000000000000010000000000000000000000000000000000000000004000000000000000000000000000000000000002000000800000000000000000000000000000080000000000000020000000000000000000000000000000000000000000000000000000000000000000",
      "type": "0x2",
      "transactionHash": "0x33a468f99312ea8dc5e579a07ae0d7e3dcb02feed947c6c87a58a8cf0a1b3b53",
      "transactionIndex": "0x37",
      "blockHash": "0x6fcb462a8967f06fe045a79e11754a1419c8eb631e18741264ac04284fd12d85",
      "blockNumber": "0x73170f",
      "gasUsed": "0xf213",
      "effectiveGasPrice": "0x40594424",
      "from": "0xc77f7fed3b5cc8249adc428c5f44c9063b9734b4",
      "to": "0x8aafd3ede9adb0ff97c7aebce82a919afb1c8764",
      "contractAddress": null
    }
  ],
  "libraries": [],
  "pending": [],
  "returns": {},
  "timestamp": 1737494907,
  "chain": 11155111,
  "commit": "1d2fb70"
}