{
  "transactions": [
    {
      "hash": "0x181a71d0960404011275c4e9c8a971754f49bc6d86feb83c62d6723bb6eb26b3",
      "transactionType": "CALL",
      "contractName": null,
      "contractAddress": "0xbf4a322f1496e5c3d34a9bcdb4c60567b38c7de2",
      "function": "buy(address)",
      "arguments": [
        "0xC77f7fed3b5Cc8249aDc428c5F44C9063B9734b4"
      ],
      "transaction": {
        "from": "0xc77f7fed3b5cc8249adc428c5f44c9063b9734b4",
        "to": "0xbf4a322f1496e5c3d34a9bcdb4c60567b38c7de2",
        "gas": "0x1b309",
        "value": "0xde0b6b3a7640000",
        "input": "0xf088d547000000000000000000000000c77f7fed3b5cc8249adc428c5f44c9063b9734b4",
        "nonce": "0xd8c",
        "chainId": "0xaa36a7"
      },
      "additionalContracts": [],
      "isFixedGasLimit": false
    }
  ],
  "receipts": [
    {
      "status": "0x1",
      "cumulativeGasUsed": "0x10be1aa",
      "logs": [
        {
          "address": "0xbf4a322f1496e5c3d34a9bcdb4c60567b38c7de2",
          "topics": [
            "0xddf252ad1be2c89b69c2b068fc378daa952ba7f163c4a11628f55a4df523b3ef",
            "0x0000000000000000000000000000000000000000000000000000000000000000",
            "0x000000000000000000000000c77f7fed3b5cc8249adc428c5f44c9063b9734b4"
          ],
          "data": "0x000000000000000000000000000000000000000000000034b2276384d7fcad9e",
          "blockHash": "0x88d610f576b341d734643032a4871d13a7e241612e630ac83ecca00da9a474ba",
          "blockNumber": "0x72665e",
          "transactionHash": "0x181a71d0960404011275c4e9c8a971754f49bc6d86feb83c62d6723bb6eb26b3",
          "transactionIndex": "0xa6",
          "logIndex": "0x10b",
          "removed": false
        },
        {
          "address": "0xbf4a322f1496e5c3d34a9bcdb4c60567b38c7de2",
          "topics": [
            "0xddf252ad1be2c89b69c2b068fc378daa952ba7f163c4a11628f55a4df523b3ef",
            "0x0000000000000000000000000000000000000000000000000000000000000000",
            "0x000000000000000000000000c77f7fed3b5cc8249adc428c5f44c9063b9734b4"
          ],
          "data": "0x00000000000000000000000000000000000000000000000028eb908b07a2de32",
          "blockHash": "0x88d610f576b341d734643032a4871d13a7e241612e630ac83ecca00da9a474ba",
          "blockNumber": "0x72665e",
          "transactionHash": "0x181a71d0960404011275c4e9c8a971754f49bc6d86feb83c62d6723bb6eb26b3",
          "transactionIndex": "0xa6",
          "logIndex": "0x10c",
          "removed": false
        },
        {
          "address": "0xbf4a322f1496e5c3d34a9bcdb4c60567b38c7de2",
          "topics": [
            "0x4afcb4a87cdbd9974efdb92ee48bc8d7cd0ae4bf217004db3d080cbaee652ca7"
          ],
          "data": "0x000000000000000000000000000000000000000000000000000000006787bf1800000000000000000000000000000000000000000000000000039e480dd6fe810000000000000000000000000000000000000000000000000de0b6b3a7640000",
          "blockHash": "0x88d610f576b341d734643032a4871d13a7e241612e630ac83ecca00da9a474ba",
          "blockNumber": "0x72665e",
          "transactionHash": "0x181a71d0960404011275c4e9c8a971754f49bc6d86feb83c62d6723bb6eb26b3",
          "transactionIndex": "0xa6",
          "logIndex": "0x10d",
          "removed": false
        }
      ],
      "logsBloom": "0x00000000000000000000000000000000000000000000000000000000000000000000000000000000000000000000000000000000000000004000000000000000000000000000000000000008000000000000001000000000000000000000000000000000020000000000000000000800020000000000000000000010000000000000000000000000000000000000000000000000000008000000010000000000000000000000000000000000000000004000000000000000000000000000000000000002000000800000000000001000000000000000080000000000000020000000000000000000000000000000000000000000000000000000000000000000",
      "type": "0x2",
      "transactionHash": "0x181a71d0960404011275c4e9c8a971754f49bc6d86feb83c62d6723bb6eb26b3",
      "transactionIndex": "0xa6",
      "blockHash": "0x88d610f576b341d734643032a4871d13a7e241612e630ac83ecca00da9a474ba",
      "blockNumber": "0x72665e",
      "gasUsed": "0x13af6",
      "effectiveGasPrice": "0x8598c7a4",
      "from": "0xc77f7fed3b5cc8249adc428c5f44c9063b9734b4",
      "to": "0xbf4a322f1496e5c3d34a9bcdb4c60567b38c7de2",
      "contractAddress": null
    }
  ],
  "libraries": [],
  "pending": [],
  "returns": {},
  "timestamp": 1736949529,
  "chain": 11155111,
  "commit": "51a374b"
}