{
  "transactions": [
    {
      "hash": "0xd7c65dcbff563be311e1a655b60c08d71d2f535c059ff1d3750a43ecad18037d",
      "transactionType": "CALL",
      "contractName": null,
      "contractAddress": "0x8aafd3ede9adb0ff97c7aebce82a919afb1c8764",
      "function": "sell(uint256)",
      "arguments": [
        "674657660101061247618"
      ],
      "transaction": {
        "from": "0xc77f7fed3b5cc8249adc428c5f44c9063b9734b4",
        "to": "0x8aafd3ede9adb0ff97c7aebce82a919afb1c8764",
        "gas": "0x17270",
        "value": "0x0",
        "input": "0xe4849b3200000000000000000000000000000000000000000000002492c17f5f57fc0282",
        "nonce": "0x1249",
        "chainId": "0xaa36a7"
      },
      "additionalContracts": [],
      "isFixedGasLimit": false
    }
  ],
  "receipts": [
    {
      "status": "0x1",
      "cumulativeGasUsed": "0xc72aa6",
      "logs": [
        {
          "address": "0x8aafd3ede9adb0ff97c7aebce82a919afb1c8764",
          "topics": [
            "0xddf252ad1be2c89b69c2b068fc378daa952ba7f163c4a11628f55a4df523b3ef",
            "0x000000000000000000000000c77f7fed3b5cc8249adc428c5f44c9063b9734b4",
            "0x0000000000000000000000000000000000000000000000000000000000000000"
          ],
          "data": "0x00000000000000000000000000000000000000000000002447da92d55d6cae86",
          "blockHash": "0x16e698ab20a7354744a5bdd156791c2c1dab0cd3d28f6c25934bae6be8021b7a",
          "blockNumber": "0x73192a",
          "transactionHash": "0xd7c65dcbff563be311e1a655b60c08d71d2f535c059ff1d3750a43ecad18037d",
          "transactionIndex": "0x8a",
          "logIndex": "0xa1",
          "removed": false
        },
        {
          "address": "0x8aafd3ede9adb0ff97c7aebce82a919afb1c8764",
          "topics": [
            "0xddf252ad1be2c89b69c2b068fc378daa952ba7f163c4a11628f55a4df523b3ef",
            "0x000000000000000000000000c77f7fed3b5cc8249adc428c5f44c9063b9734b4",
            "0x000000000000000000000000c77f7fed3b5cc8249adc428c5f44c9063b9734b4"
          ],
          "data": "0x0000000000000000000000000000000000000000000000004ae6ec89fa8f53fc",
          "blockHash": "0x16e698ab20a7354744a5bdd156791c2c1dab0cd3d28f6c25934bae6be8021b7a",
          "blockNumber": "0x73192a",
          "transactionHash": "0xd7c65dcbff563be311e1a655b60c08d71d2f535c059ff1d3750a43ecad18037d",
          "transactionIndex": "0x8a",
          "logIndex": "0xa2",
          "removed": false
        },
        {
          "address": "0x8aafd3ede9adb0ff97c7aebce82a919afb1c8764",
          "topics": [
            "0x4afcb4a87cdbd9974efdb92ee48bc8d7cd0ae4bf217004db3d080cbaee652ca7"
          ],
          "data": "0x0000000000000000000000000000000000000000000000000000000067902ac800000000000000000000000000000000000000000000000000053c187765f75e0000000000000000000000000000000000000000000000000dc8efb96055b43f",
          "blockHash": "0x16e698ab20a7354744a5bdd156791c2c1dab0cd3d28f6c25934bae6be8021b7a",
          "blockNumber": "0x73192a",
          "transactionHash": "0xd7c65dcbff563be311e1a655b60c08d71d2f535c059ff1d3750a43ecad18037d",
          "transactionIndex": "0x8a",
          "logIndex": "0xa3",
          "removed": false
        }
      ],
      "logsBloom": "0x00000000000000000000000000000000000000000600000000000000000000000000000000000000000000000000000000000000000000004000000000000000000000000000004000000008000000000000000000000000000000000000000000000000020000000000000000000800020000000000000000000010000000000000000000000000000000000000000000000000000000000000010000000000000000000000000000000000000000004000000000000000000000000000000000000002000000800000000000000000000000000000080000000000000020000000000000000000000000000000000000000000000000000000000000000000",
      "type": "0x2",
      "transactionHash": "0xd7c65dcbff563be311e1a655b60c08d71d2f535c059ff1d3750a43ecad18037d",
      "transactionIndex": "0x8a",
      "blockHash": "0x16e698ab20a7354744a5bdd156791c2c1dab0cd3d28f6c25934bae6be8021b7a",
      "blockNumber": "0x73192a",
      "gasUsed": "0xfd4b",
      "effectiveGasPrice": "0x3d68e643",
      "from": "0xc77f7fed3b5cc8249adc428c5f44c9063b9734b4",
      "to": "0x8aafd3ede9adb0ff97c7aebce82a919afb1c8764",
      "contractAddress": null
    }
  ],
  "libraries": [],
  "pending": [],
  "returns": {},
  "timestamp": 1737501384,
  "chain": 11155111,
  "commit": "1d2fb70"
}