{
  "transactions": [
    {
      "hash": "0x87eeeef410cd9f717d1d8475063b321578460124aa160902077cc0aa6831aa35",
      "transactionType": "CALL",
      "contractName": null,
      "contractAddress": "0x270e88f8683660553e8ba4eb2ad7c91a1710d769",
      "function": "buy(address)",
      "arguments": [
        "0xC77f7fed3b5Cc8249aDc428c5F44C9063B9734b4"
      ],
      "transaction": {
        "from": "0xc77f7fed3b5cc8249adc428c5f44c9063b9734b4",
        "to": "0x270e88f8683660553e8ba4eb2ad7c91a1710d769",
        "gas": "0x1b30c",
        "value": "0xde0b6b3a7640000",
        "input": "0xf088d547000000000000000000000000c77f7fed3b5cc8249adc428c5f44c9063b9734b4",
        "nonce": "0x82f",
        "chainId": "0xaa36a7"
      },
      "additionalContracts": [],
      "isFixedGasLimit": false
    }
  ],
  "receipts": [
    {
      "status": "0x1",
      "cumulativeGasUsed": "0x7b280a",
      "logs": [
        {
          "address": "0x270e88f8683660553e8ba4eb2ad7c91a1710d769",
          "topics": [
            "0xddf252ad1be2c89b69c2b068fc378daa952ba7f163c4a11628f55a4df523b3ef",
            "0x0000000000000000000000000000000000000000000000000000000000000000",
            "0x000000000000000000000000c77f7fed3b5cc8249adc428c5f44c9063b9734b4"
          ],
          "data": "0x000000000000000000000000000000000000000000000026da4cc67e83a7c201",
          "blockHash": "0x30ea88dc202b34f9691fcd64bfc958f4ee7c5f77bc0fb222cd0079b2eccc66b8",
          "blockNumber": "0x725578",
          "transactionHash": "0x87eeeef410cd9f717d1d8475063b321578460124aa160902077cc0aa6831aa35",
          "transactionIndex": "0x44",
          "logIndex": "0x5f",
          "removed": false
        },
        {
          "address": "0x270e88f8683660553e8ba4eb2ad7c91a1710d769",
          "topics": [
            "0xddf252ad1be2c89b69c2b068fc378daa952ba7f163c4a11628f55a4df523b3ef",
            "0x0000000000000000000000000000000000000000000000000000000000000000",
            "0x000000000000000000000000c77f7fed3b5cc8249adc428c5f44c9063b9734b4"
          ],
          "data": "0x0000000000000000000000000000000000000000000000001e2ba421e623108b",
          "blockHash": "0x30ea88dc202b34f9691fcd64bfc958f4ee7c5f77bc0fb222cd0079b2eccc66b8",
          "blockNumber": "0x725578",
          "transactionHash": "0x87eeeef410cd9f717d1d8475063b321578460124aa160902077cc0aa6831aa35",
          "transactionIndex": "0x44",
          "logIndex": "0x60",
          "removed": false
        },
        {
          "address": "0x270e88f8683660553e8ba4eb2ad7c91a1710d769",
          "topics": [
            "0x4afcb4a87cdbd9974efdb92ee48bc8d7cd0ae4bf217004db3d080cbaee652ca7"
          ],
          "data": "0x000000000000000000000000000000000000000000000000000000006786f3a80000000000000000000000000000000000000000000000000004e868264b45720000000000000000000000000000000000000000000000000de0b6b3a7640000",
          "blockHash": "0x30ea88dc202b34f9691fcd64bfc958f4ee7c5f77bc0fb222cd0079b2eccc66b8",
          "blockNumber": "0x725578",
          "transactionHash": "0x87eeeef410cd9f717d1d8475063b321578460124aa160902077cc0aa6831aa35",
          "transactionIndex": "0x44",
          "logIndex": "0x61",
          "removed": false
        }
      ],
      "logsBloom": "0x00000000000000000000000000000000000000000000000000000000000000000000000000000000000000000000000020000000000000004000000000000000000000000000000000000008000000000000000000000000000000000000000000000000020000000000000000000800020000000000000000000010000000000000000000010000000000000000000000000000000000000000010000000000000000000000000000000000000000004000000000000000000000000000000000000002000000800000000000000000000000000000080000008000000020000000000000000000000000000000000000000000000000000000000000000000",
      "type": "0x2",
      "transactionHash": "0x87eeeef410cd9f717d1d8475063b321578460124aa160902077cc0aa6831aa35",
      "transactionIndex": "0x44",
      "blockHash": "0x30ea88dc202b34f9691fcd64bfc958f4ee7c5f77bc0fb222cd0079b2eccc66b8",
      "blockNumber": "0x725578",
      "gasUsed": "0x13af8",
      "effectiveGasPrice": "0x7f9bb2ff",
      "from": "0xc77f7fed3b5cc8249adc428c5f44c9063b9734b4",
      "to": "0x270e88f8683660553e8ba4eb2ad7c91a1710d769",
      "contractAddress": null
    }
  ],
  "libraries": [],
  "pending": [],
  "returns": {},
  "timestamp": 1736897448,
  "chain": 11155111,
  "commit": "51a374b"
}