{
  "transactions": [
    {
      "hash": "0xe2b38c3d280fd329b1f098bc816eb5cd0b4f3a78c3b956f414bb03c3f90fa05a",
      "transactionType": "CALL",
      "contractName": null,
      "contractAddress": "0x8aafd3ede9adb0ff97c7aebce82a919afb1c8764",
      "function": "sell(uint256)",
      "arguments": [
        "1390702"
      ],
      "transaction": {
        "from": "0xc77f7fed3b5cc8249adc428c5f44c9063b9734b4",
        "to": "0x8aafd3ede9adb0ff97c7aebce82a919afb1c8764",
        "gas": "0x16208",
        "value": "0x0",
        "input": "0xe4849b32000000000000000000000000000000000000000000000000000000000015386e",
        "nonce": "0x12f0",
        "chainId": "0xaa36a7"
      },
      "additionalContracts": [],
      "isFixedGasLimit": false
    }
  ],
  "receipts": [
    {
      "status": "0x1",
      "cumulativeGasUsed": "0x94c862",
      "logs": [
        {
          "address": "0x8aafd3ede9adb0ff97c7aebce82a919afb1c8764",
          "topics": [
            "0xddf252ad1be2c89b69c2b068fc378daa952ba7f163c4a11628f55a4df523b3ef",
            "0x000000000000000000000000c77f7fed3b5cc8249adc428c5f44c9063b9734b4",
            "0x0000000000000000000000000000000000000000000000000000000000000000"
          ],
          "data": "0x0000000000000000000000000000000000000000000000000000000000150cf9",
          "blockHash": "0xcc2e9fe45843756b2c76723c31ab5aed7f5b506d94a979dcba0c16025bf67b67",
          "blockNumber": "0x7319f5",
          "transactionHash": "0xe2b38c3d280fd329b1f098bc816eb5cd0b4f3a78c3b956f414bb03c3f90fa05a",
          "transactionIndex": "0x74",
          "logIndex": "0xd1",
          "removed": false
        },
        {
          "address": "0x8aafd3ede9adb0ff97c7aebce82a919afb1c8764",
          "topics": [
            "0xddf252ad1be2c89b69c2b068fc378daa952ba7f163c4a11628f55a4df523b3ef",
            "0x000000000000000000000000c77f7fed3b5cc8249adc428c5f44c9063b9734b4",
            "0x000000000000000000000000c77f7fed3b5cc8249adc428c5f44c9063b9734b4"
          ],
          "data": "0x0000000000000000000000000000000000000000000000000000000000002b75",
          "blockHash": "0xcc2e9fe45843756b2c76723c31ab5aed7f5b506d94a979dcba0c16025bf67b67",
          "blockNumber": "0x7319f5",
          "transactionHash": "0xe2b38c3d280fd329b1f098bc816eb5cd0b4f3a78c3b956f414bb03c3f90fa05a",
          "transactionIndex": "0x74",
          "logIndex": "0xd2",
          "removed": false
        },
        {
          "address": "0x8aafd3ede9adb0ff97c7aebce82a919afb1c8764",
          "topics": [
            "0x4afcb4a87cdbd9974efdb92ee48bc8d7cd0ae4bf217004db3d080cbaee652ca7"
          ],
          "data": "0x000000000000000000000000000000000000000000000000000000006790344c0000000000000000000000000000000000000000000000000005535b8e40e4b60000000000000000000000000000000000000000000000000000000000000824",
          "blockHash": "0xcc2e9fe45843756b2c76723c31ab5aed7f5b506d94a979dcba0c16025bf67b67",
          "blockNumber": "0x7319f5",
          "transactionHash": "0xe2b38c3d280fd329b1f098bc816eb5cd0b4f3a78c3b956f414bb03c3f90fa05a",
          "transactionIndex": "0x74",
          "logIndex": "0xd3",
          "removed": false
        }
      ],
      "logsBloom": "0x00000000000000000000000000000000000000000600000000000000000000000000000000000000000000000000000000000000000000004000000000000000000000000000004000000008000000000000000000000000000000000000000000000000020000000000000000000800020000000000000000000010000000000000000000000000000000000000000000000000000000000000010000000000000000000000000000000000000000004000000000000000000000000000000000000002000000800000000000000000000000000000080000000000000020000000000000000000000000000000000000000000000000000000000000000000",
      "type": "0x2",
      "transactionHash": "0xe2b38c3d280fd329b1f098bc816eb5cd0b4f3a78c3b956f414bb03c3f90fa05a",
      "transactionIndex": "0x74",
      "blockHash": "0xcc2e9fe45843756b2c76723c31ab5aed7f5b506d94a979dcba0c16025bf67b67",
      "blockNumber": "0x7319f5",
      "gasUsed": "0xf213",
      "effectiveGasPrice": "0x3cb464fb",
      "from": "0xc77f7fed3b5cc8249adc428c5f44c9063b9734b4",
      "to": "0x8aafd3ede9adb0ff97c7aebce82a919afb1c8764",
      "contractAddress": null
    }
  ],
  "libraries": [],
  "pending": [],
  "returns": {},
  "timestamp": 1737503821,
  "chain": 11155111,
  "commit": "1d2fb70"
}