{
  "transactions": [
    {
      "hash": "0x7683e1d4f4ca580c453ceeac6aa8db4f7a6241173cdebab6ffa611ed709b53f8",
      "transactionType": "CALL",
      "contractName": null,
      "contractAddress": "0xbf4a322f1496e5c3d34a9bcdb4c60567b38c7de2",
      "function": "sell(uint256)",
      "arguments": [
        "973477388334840513985"
      ],
      "transaction": {
        "from": "0xc77f7fed3b5cc8249adc428c5f44c9063b9734b4",
        "to": "0xbf4a322f1496e5c3d34a9bcdb4c60567b38c7de2",
        "gas": "0x16fea",
        "value": "0x0",
        "input": "0xe4849b32000000000000000000000000000000000000000000000034c5b66efc7d2985c1",
        "nonce": "0xe01",
        "chainId": "0xaa36a7"
      },
      "additionalContracts": [],
      "isFixedGasLimit": false
    }
  ],
  "receipts": [
    {
      "status": "0x1",
      "cumulativeGasUsed": "0x164cc28",
      "logs": [
        {
          "address": "0xbf4a322f1496e5c3d34a9bcdb4c60567b38c7de2",
          "topics": [
            "0xddf252ad1be2c89b69c2b068fc378daa952ba7f163c4a11628f55a4df523b3ef",
            "0x000000000000000000000000c77f7fed3b5cc8249adc428c5f44c9063b9734b4",
            "0x0000000000000000000000000000000000000000000000000000000000000000"
          ],
          "data": "0x000000000000000000000000000000000000000000000034c5b66efc7d2985c1",
          "blockHash": "0x749535a087bb1254f511e8d03100066a9f89f0b0f4ee7c1de2891e0aa613a386",
          "blockNumber": "0x7266e8",
          "transactionHash": "0x7683e1d4f4ca580c453ceeac6aa8db4f7a6241173cdebab6ffa611ed709b53f8",
          "transactionIndex": "0xa6",
          "logIndex": "0x11e",
          "removed": false
        },
        {
          "address": "0xbf4a322f1496e5c3d34a9bcdb4c60567b38c7de2",
          "topics": [
            "0x4afcb4a87cdbd9974efdb92ee48bc8d7cd0ae4bf217004db3d080cbaee652ca7"
          ],
          "data": "0x000000000000000000000000000000000000000000000000000000006787c62c00000000000000000000000000000000000000000000000000039fc3217a86e60000000000000000000000000000000000000000000000000dc7e3d2e6a154f3",
          "blockHash": "0x749535a087bb1254f511e8d03100066a9f89f0b0f4ee7c1de2891e0aa613a386",
          "blockNumber": "0x7266e8",
          "transactionHash": "0x7683e1d4f4ca580c453ceeac6aa8db4f7a6241173cdebab6ffa611ed709b53f8",
          "transactionIndex": "0xa6",
          "logIndex": "0x11f",
          "removed": false
        }
      ],
      "logsBloom": "0x00000000000000000000000000000000000000000000000000000000000000000000000000000000000000000000000000000000000000004000000000000000000000000000000000000008000000000000001000000000000000000000000000000000020000000000000000000800020000000000000000000010000000000000000000000000000000000000000000000000000008000000010000000000000000000000000000000000000000004000000000000000000000000000000000000002000000800000000000001000000000000000080000000000000020000000000000000000000000000000000000000000000000000000000000000000",
      "type": "0x2",
      "transactionHash": "0x7683e1d4f4ca580c453ceeac6aa8db4f7a6241173cdebab6ffa611ed709b53f8",
      "transactionIndex": "0xa6",
      "blockHash": "0x749535a087bb1254f511e8d03100066a9f89f0b0f4ee7c1de2891e0aa613a386",
      "blockNumber": "0x7266e8",
      "gasUsed": "0xfb91",
      "effectiveGasPrice": "0x367704e0d",
      "from": "0xc77f7fed3b5cc8249adc428c5f44c9063b9734b4",
      "to": "0xbf4a322f1496e5c3d34a9bcdb4c60567b38c7de2",
      "contractAddress": null
    }
  ],
  "libraries": [],
  "pending": [],
  "returns": {},
  "timestamp": 1736951341,
  "chain": 11155111,
  "commit": "51a374b"
}