{
  "transactions": [
    {
      "hash": "0xd71ad7389a6bc636b6a26337ac746b4e1b3fba0d46f278952b3247276a34472c",
      "transactionType": "CALL",
      "contractName": null,
      "contractAddress": "0x270e88f8683660553e8ba4eb2ad7c91a1710d769",
      "function": "sell(uint256)",
      "arguments": [
        "725137212639446560119"
      ],
      "transaction": {
        "from": "0xc77f7fed3b5cc8249adc428c5f44c9063b9734b4",
        "to": "0x270e88f8683660553e8ba4eb2ad7c91a1710d769",
        "gas": "0x16fec",
        "value": "0x0",
        "input": "0xe4849b320000000000000000000000000000000000000000000000274f4ce4f4371bed77",
        "nonce": "0x7e6",
        "chainId": "0xaa36a7"
      },
      "additionalContracts": [],
      "isFixedGasLimit": false
    }
  ],
  "receipts": [
    {
      "status": "0x1",
      "cumulativeGasUsed": "0x951d98",
      "logs": [
        {
          "address": "0x270e88f8683660553e8ba4eb2ad7c91a1710d769",
          "topics": [
            "0xddf252ad1be2c89b69c2b068fc378daa952ba7f163c4a11628f55a4df523b3ef",
            "0x000000000000000000000000c77f7fed3b5cc8249adc428c5f44c9063b9734b4",
            "0x0000000000000000000000000000000000000000000000000000000000000000"
          ],
          "data": "0x0000000000000000000000000000000000000000000000274f4ce4f4371bed77",
          "blockHash": "0xfbe731b3d3ce4f818168defb858cd0137be7fc0c4b1c440e11e26855803b462b",
          "blockNumber": "0x725521",
          "transactionHash": "0xd71ad7389a6bc636b6a26337ac746b4e1b3fba0d46f278952b3247276a34472c",
          "transactionIndex": "0x34",
          "logIndex": "0xb3",
          "removed": false
        },
        {
          "address": "0x270e88f8683660553e8ba4eb2ad7c91a1710d769",
          "topics": [
            "0x4afcb4a87cdbd9974efdb92ee48bc8d7cd0ae4bf217004db3d080cbaee652ca7"
          ],
          "data": "0x000000000000000000000000000000000000000000000000000000006786ef940000000000000000000000000000000000000000000000000004ddc150c7bb270000000000000000000000000000000000000000000000000dc826f618ffa443",
          "blockHash": "0xfbe731b3d3ce4f818168defb858cd0137be7fc0c4b1c440e11e26855803b462b",
          "blockNumber": "0x725521",
          "transactionHash": "0xd71ad7389a6bc636b6a26337ac746b4e1b3fba0d46f278952b3247276a34472c",
          "transactionIndex": "0x34",
          "logIndex": "0xb4",
          "removed": false
        }
      ],
      "logsBloom": "0x00000000000000000000000000000000000000000000000000000000000000000000000000000000000000000000000020000000000000004000000000000000000000000000000000000008000000000000000000000000000000000000000000000000020000000000000000000800020000000000000000000010000000000000000000010000000000000000000000000000000000000000010000000000000000000000000000000000000000004000000000000000000000000000000000000002000000800000000000000000000000000000080000008000000020000000000000000000000000000000000000000000000000000000000000000000",
      "type": "0x2",
      "transactionHash": "0xd71ad7389a6bc636b6a26337ac746b4e1b3fba0d46f278952b3247276a34472c",
      "transactionIndex": "0x34",
      "blockHash": "0xfbe731b3d3ce4f818168defb858cd0137be7fc0c4b1c440e11e26855803b462b",
      "blockNumber": "0x725521",
      "gasUsed": "0xfb93",
      "effectiveGasPrice": "0xb1fdef9e",
      "from": "0xc77f7fed3b5cc8249adc428c5f44c9063b9734b4",
      "to": "0x270e88f8683660553e8ba4eb2ad7c91a1710d769",
      "contractAddress": null
    }
  ],
  "libraries": [],
  "pending": [],
  "returns": {},
  "timestamp": 1736896406,
  "chain": 11155111,
  "commit": "51a374b"
}