{
  "transactions": [
    {
      "hash": "0x7e3c24c2e2dd360d1d1bde8352eb7f3d8b1abd2f73bd9742e944341b1c331d82",
      "transactionType": "CALL",
      "contractName": null,
      "contractAddress": "0x5eb9cc76c3506942c1c0ead70e877dd5e4f00cb0",
      "function": "sell(uint256)",
      "arguments": [
        "989115615951636502556"
      ],
      "transaction": {
        "from": "0xc77f7fed3b5cc8249adc428c5f44c9063b9734b4",
        "to": "0x5eb9cc76c3506942c1c0ead70e877dd5e4f00cb0",
        "gas": "0x16fec",
        "value": "0x0",
        "input": "0xe4849b320000000000000000000000000000000000000000000000359ebc94261cfd981c",
        "nonce": "0x39f",
        "chainId": "0xaa36a7"
      },
      "additionalContracts": [],
      "isFixedGasLimit": false
    }
  ],
  "receipts": [
    {
      "status": "0x1",
      "cumulativeGasUsed": "0xbc0be0",
      "logs": [
        {
          "address": "0x5eb9cc76c3506942c1c0ead70e877dd5e4f00cb0",
          "topics": [
            "0xddf252ad1be2c89b69c2b068fc378daa952ba7f163c4a11628f55a4df523b3ef",
            "0x000000000000000000000000c77f7fed3b5cc8249adc428c5f44c9063b9734b4",
            "0x0000000000000000000000000000000000000000000000000000000000000000"
          ],
          "data": "0x0000000000000000000000000000000000000000000000359ebc94261cfd981c",
          "blockHash": "0xac5baf6c6047296bf20fe591bed29bc6835fa5a12e513a3fc3b7f853401b6a46",
          "blockNumber": "0x724f9b",
          "transactionHash": "0x7e3c24c2e2dd360d1d1bde8352eb7f3d8b1abd2f73bd9742e944341b1c331d82",
          "transactionIndex": "0x54",
          "logIndex": "0x7e",
          "removed": false
        },
        {
          "address": "0x5eb9cc76c3506942c1c0ead70e877dd5e4f00cb0",
          "topics": [
            "0x4afcb4a87cdbd9974efdb92ee48bc8d7cd0ae4bf217004db3d080cbaee652ca7"
          ],
          "data": "0x000000000000000000000000000000000000000000000000000000006786ad0400000000000000000000000000000000000000000000000000039111c81d36600000000000000000000000000000000000000000000000000dc7db1332033c1e",
          "blockHash": "0xac5baf6c6047296bf20fe591bed29bc6835fa5a12e513a3fc3b7f853401b6a46",
          "blockNumber": "0x724f9b",
          "transactionHash": "0x7e3c24c2e2dd360d1d1bde8352eb7f3d8b1abd2f73bd9742e944341b1c331d82",
          "transactionIndex": "0x54",
          "logIndex": "0x7f",
          "removed": false
        }
      ],
      "logsBloom": "0x00000000000000000000000000000000000000000000000000000000000000000000000000000000000000000000000000000000000000004000000000000000000000000000000000000008000000000000000000000000000000000000000000000000020000000000000004000800020000000000000000000010000000000000000000000000000000000000000000000000000000000000010000000000000000000000000000000000000000004000000000000000000000000000020000000002000000800000008000000000000000000000080000000000000020000000000000000000000000000000000000000000000000000000000000000000",
      "type": "0x2",
      "transactionHash": "0x7e3c24c2e2dd360d1d1bde8352eb7f3d8b1abd2f73bd9742e944341b1c331d82",
      "transactionIndex": "0x54",
      "blockHash": "0xac5baf6c6047296bf20fe591bed29bc6835fa5a12e513a3fc3b7f853401b6a46",
      "blockNumber": "0x724f9b",
      "gasUsed": "0xfb93",
      "effectiveGasPrice": "0x560056aa5",
      "from": "0xc77f7fed3b5cc8249adc428c5f44c9063b9734b4",
      "to": "0x5eb9cc76c3506942c1c0ead70e877dd5e4f00cb0",
      "contractAddress": null
    }
  ],
  "libraries": [],
  "pending": [],
  "returns": {},
  "timestamp": 1736879366,
  "chain": 11155111,
  "commit": "51a374b"
}