{
  "transactions": [
    {
      "hash": "0x71e973009c2a534e64f4f0d22f1e7307340e350e8d039b312dd558b96844a6e1",
      "transactionType": "CALL",
      "contractName": null,
      "contractAddress": "0x8aafd3ede9adb0ff97c7aebce82a919afb1c8764",
      "function": "sell(uint256)",
      "arguments": [
        "10088000805"
      ],
      "transaction": {
        "from": "0xc77f7fed3b5cc8249adc428c5f44c9063b9734b4",
        "to": "0x8aafd3ede9adb0ff97c7aebce82a919afb1c8764",
        "gas": "0x1722a",
        "value": "0x0",
        "input": "0xe4849b3200000000000000000000000000000000000000000000000000000002594aad25",
        "nonce": "0x131e",
        "chainId": "0xaa36a7"
      },
      "additionalContracts": [],
      "isFixedGasLimit": false
    }
  ],
  "receipts": [
    {
      "status": "0x1",
      "cumulativeGasUsed": "0xdffdf6",
      "logs": [
        {
          "address": "0x8aafd3ede9adb0ff97c7aebce82a919afb1c8764",
          "topics": [
            "0xddf252ad1be2c89b69c2b068fc378daa952ba7f163c4a11628f55a4df523b3ef",
            "0x000000000000000000000000c77f7fed3b5cc8249adc428c5f44c9063b9734b4",
            "0x0000000000000000000000000000000000000000000000000000000000000000"
          ],
          "data": "0x00000000000000000000000000000000000000000000000000000002547b3b1f",
          "blockHash": "0x3e41b4c4b4a7fa83d061690d2818a9bd0be3778ba6d7c3c1e30e287988424620",
          "blockNumber": "0x731a2b",
          "transactionHash": "0x71e973009c2a534e64f4f0d22f1e7307340e350e8d039b312dd558b96844a6e1",
          "transactionIndex": "0x9e",
          "logIndex": "0xb5",
          "removed": false
        },
        {
          "address": "0x8aafd3ede9adb0ff97c7aebce82a919afb1c8764",
          "topics": [
            "0xddf252ad1be2c89b69c2b068fc378daa952ba7f163c4a11628f55a4df523b3ef",
            "0x000000000000000000000000c77f7fed3b5cc8249adc428c5f44c9063b9734b4",
            "0x000000000000000000000000c77f7fed3b5cc8249adc428c5f44c9063b9734b4"
          ],
          "data": "0x0000000000000000000000000000000000000000000000000000000004cf7206",
          "blockHash": "0x3e41b4c4b4a7fa83d061690d2818a9bd0be3778ba6d7c3c1e30e287988424620",
          "blockNumber": "0x731a2b",
          "transactionHash": "0x71e973009c2a534e64f4f0d22f1e7307340e350e8d039b312dd558b96844a6e1",
          "transactionIndex": "0x9e",
          "logIndex": "0xb6",
          "removed": false
        },
        {
          "address": "0x8aafd3ede9adb0ff97c7aebce82a919afb1c8764",
          "topics": [
            "0x4afcb4a87cdbd9974efdb92ee48bc8d7cd0ae4bf217004db3d080cbaee652ca7"
          ],
          "data": "0x00000000000000000000000000000000000000000000000000000000679036d4000000000000000000000000000000000000000000000000000b8f7f09a7bded0000000000000000000000000000000000000000000000000000000001f4e3f7",
          "blockHash": "0x3e41b4c4b4a7fa83d061690d2818a9bd0be3778ba6d7c3c1e30e287988424620",
          "blockNumber": "0x731a2b",
          "transactionHash": "0x71e973009c2a534e64f4f0d22f1e7307340e350e8d039b312dd558b96844a6e1",
          "transactionIndex": "0x9e",
          "logIndex": "0xb7",
          "removed": false
        }
      ],
      "logsBloom": "0x00000000000000000000000000000000000000000600000000000000000000000000000000000000000000000000000000000000000000004000000000000000000000000000004000000008000000000000000000000000000000000000000000000000020000000000000000000800020000000000000000000010000000000000000000000000000000000000000000000000000000000000010000000000000000000000000000000000000000004000000000000000000000000000000000000002000000800000000000000000000000000000080000000000000020000000000000000000000000000000000000000000000000000000000000000000",
      "type": "0x2",
      "transactionHash": "0x71e973009c2a534e64f4f0d22f1e7307340e350e8d039b312dd558b96844a6e1",
      "transactionIndex": "0x9e",
      "blockHash": "0x3e41b4c4b4a7fa83d061690d2818a9bd0be3778ba6d7c3c1e30e287988424620",
      "blockNumber": "0x731a2b",
      "gasUsed": "0xfd1b",
      "effectiveGasPrice": "0x4106af75",
      "from": "0xc77f7fed3b5cc8249adc428c5f44c9063b9734b4",
      "to": "0x8aafd3ede9adb0ff97c7aebce82a919afb1c8764",
      "contractAddress": null
    }
  ],
  "libraries": [],
  "pending": [],
  "returns": {},
  "timestamp": 1737504469,
  "chain": 11155111,
  "commit": "1d2fb70"
}