{
  "transactions": [
    {
      "hash": "0x11fe10030ce775c80d7e172b783748caa360829358d894c46e6621e587c30115",
      "transactionType": "CALL",
      "contractName": null,
      "contractAddress": "0x270e88f8683660553e8ba4eb2ad7c91a1710d769",
      "function": "buy(address)",
      "arguments": [
        "0xC77f7fed3b5Cc8249aDc428c5F44C9063B9734b4"
      ],
      "transaction": {
        "from": "0xc77f7fed3b5cc8249adc428c5f44c9063b9734b4",
        "to": "0x270e88f8683660553e8ba4eb2ad7c91a1710d769",
        "gas": "0x1b30c",
        "value": "0xde0b6b3a7640000",
        "input": "0xf088d547000000000000000000000000c77f7fed3b5cc8249adc428c5f44c9063b9734b4",
        "nonce": "0x4d6",
        "chainId": "0xaa36a7"
      },
      "additionalContracts": [],
      "isFixedGasLimit": false
    }
  ],
  "receipts": [
    {
      "status": "0x1",
      "cumulativeGasUsed": "0x1678950",
      "logs": [
        {
          "address": "0x270e88f8683660553e8ba4eb2ad7c91a1710d769",
          "topics": [
            "0xddf252ad1be2c89b69c2b068fc378daa952ba7f163c4a11628f55a4df523b3ef",
            "0x0000000000000000000000000000000000000000000000000000000000000000",
            "0x000000000000000000000000c77f7fed3b5cc8249adc428c5f44c9063b9734b4"
          ],
          "data": "0x000000000000000000000000000000000000000000000035a6906504e8ea938b",
          "blockHash": "0x912e1af6856e6efd05cc9e232a607d9ecd70167797a4cd9fdb500cf969834d5e",
          "blockNumber": "0x725157",
          "transactionHash": "0x11fe10030ce775c80d7e172b783748caa360829358d894c46e6621e587c30115",
          "transactionIndex": "0x3f",
          "logIndex": "0x9c",
          "removed": false
        },
        {
          "address": "0x270e88f8683660553e8ba4eb2ad7c91a1710d769",
          "topics": [
            "0xddf252ad1be2c89b69c2b068fc378daa952ba7f163c4a11628f55a4df523b3ef",
            "0x0000000000000000000000000000000000000000000000000000000000000000",
            "0x000000000000000000000000c77f7fed3b5cc8249adc428c5f44c9063b9734b4"
          ],
          "data": "0x00000000000000000000000000000000000000000000000029a95b82a6b6c719",
          "blockHash": "0x912e1af6856e6efd05cc9e232a607d9ecd70167797a4cd9fdb500cf969834d5e",
          "blockNumber": "0x725157",
          "transactionHash": "0x11fe10030ce775c80d7e172b783748caa360829358d894c46e6621e587c30115",
          "transactionIndex": "0x3f",
          "logIndex": "0x9d",
          "removed": false
        },
        {
          "address": "0x270e88f8683660553e8ba4eb2ad7c91a1710d769",
          "topics": [
            "0x4afcb4a87cdbd9974efdb92ee48bc8d7cd0ae4bf217004db3d080cbaee652ca7"
          ],
          "data": "0x000000000000000000000000000000000000000000000000000000006786c1f800000000000000000000000000000000000000000000000000038de4b89af3d40000000000000000000000000000000000000000000000000de0b6b3a7640000",
          "blockHash": "0x912e1af6856e6efd05cc9e232a607d9ecd70167797a4cd9fdb500cf969834d5e",
          "blockNumber": "0x725157",
          "transactionHash": "0x11fe10030ce775c80d7e172b783748caa360829358d894c46e6621e587c30115",
          "transactionIndex": "0x3f",
          "logIndex": "0x9e",
          "removed": false
        }
      ],
      "logsBloom": "0x00000000000000000000000000000000000000000000000000000000000000000000000000000000000000000000000020000000000000004000000000000000000000000000000000000008000000000000000000000000000000000000000000000000020000000000000000000800020000000000000000000010000000000000000000010000000000000000000000000000000000000000010000000000000000000000000000000000000000004000000000000000000000000000000000000002000000800000000000000000000000000000080000008000000020000000000000000000000000000000000000000000000000000000000000000000",
      "type": "0x2",
      "transactionHash": "0x11fe10030ce775c80d7e172b783748caa360829358d894c46e6621e587c30115",
      "transactionIndex": "0x3f",
      "blockHash": "0x912e1af6856e6efd05cc9e232a607d9ecd70167797a4cd9fdb500cf969834d5e",
      "blockNumber": "0x725157",
      "gasUsed": "0x13af8",
      "effectiveGasPrice": "0x3a5a2fa62",
      "from": "0xc77f7fed3b5cc8249adc428c5f44c9063b9734b4",
      "to": "0x270e88f8683660553e8ba4eb2ad7c91a1710d769",
      "contractAddress": null
    }
  ],
  "libraries": [],
  "pending": [],
  "returns": {},
  "timestamp": 1736884729,
  "chain": 11155111,
  "commit": "51a374b"
}