{
  "transactions": [
    {
      "hash": "0xdb8f985346baf20f4002f4adb243e66a2ae5149202e17c528b2fc8433884d856",
      "transactionType": "CALL",
      "contractName": null,
      "contractAddress": "0xbf4a322f1496e5c3d34a9bcdb4c60567b38c7de2",
      "function": "sell(uint256)",
      "arguments": [
        "979529577258602333243"
      ],
      "transaction": {
        "from": "0xc77f7fed3b5cc8249adc428c5f44c9063b9734b4",
        "to": "0xbf4a322f1496e5c3d34a9bcdb4c60567b38c7de2",
        "gas": "0x16fea",
        "value": "0x0",
        "input": "0xe4849b3200000000000000000000000000000000000000000000003519b420bf1f8a043b",
        "nonce": "0xc3b",
        "chainId": "0xaa36a7"
      },
      "additionalContracts": [],
      "isFixedGasLimit": false
    }
  ],
  "receipts": [
    {
      "status": "0x1",
      "cumulativeGasUsed": "0xc8229a",
      "logs": [
        {
          "address": "0xbf4a322f1496e5c3d34a9bcdb4c60567b38c7de2",
          "topics": [
            "0xddf252ad1be2c89b69c2b068fc378daa952ba7f163c4a11628f55a4df523b3ef",
            "0x000000000000000000000000c77f7fed3b5cc8249adc428c5f44c9063b9734b4",
            "0x0000000000000000000000000000000000000000000000000000000000000000"
          ],
          "data": "0x00000000000000000000000000000000000000000000003519b420bf1f8a043b",
          "blockHash": "0x9d68a8fa293f28ce0ec9c9e75076cfe875a457229cddc372fe52b8b32975d37a",
          "blockNumber": "0x725c6e",
          "transactionHash": "0xdb8f985346baf20f4002f4adb243e66a2ae5149202e17c528b2fc8433884d856",
          "transactionIndex": "0x41",
          "logIndex": "0x64",
          "removed": false
        },
        {
          "address": "0xbf4a322f1496e5c3d34a9bcdb4c60567b38c7de2",
          "topics": [
            "0x4afcb4a87cdbd9974efdb92ee48bc8d7cd0ae4bf217004db3d080cbaee652ca7"
          ],
          "data": "0x000000000000000000000000000000000000000000000000000000006787478400000000000000000000000000000000000000000000000000039a07b159ec660000000000000000000000000000000000000000000000000dc7e3e0f8fa7060",
          "blockHash": "0x9d68a8fa293f28ce0ec9c9e75076cfe875a457229cddc372fe52b8b32975d37a",
          "blockNumber": "0x725c6e",
          "transactionHash": "0xdb8f985346baf20f4002f4adb243e66a2ae5149202e17c528b2fc8433884d856",
          "transactionIndex": "0x41",
          "logIndex": "0x65",
          "removed": false
        }
      ],
      "logsBloom": "0x00000000000000000000000000000000000000000000000000000000000000000000000000000000000000000000000000000000000000004000000000000000000000000000000000000008000000000000001000000000000000000000000000000000020000000000000000000800020000000000000000000010000000000000000000000000000000000000000000000000000008000000010000000000000000000000000000000000000000004000000000000000000000000000000000000002000000800000000000001000000000000000080000000000000020000000000000000000000000000000000000000000000000000000000000000000",
      "type": "0x2",
      "transactionHash": "0xdb8f985346baf20f4002f4adb243e66a2ae5149202e17c528b2fc8433884d856",
      "transactionIndex": "0x41",
      "blockHash": "0x9d68a8fa293f28ce0ec9c9e75076cfe875a457229cddc372fe52b8b32975d37a",
      "blockNumber": "0x725c6e",
      "gasUsed": "0xfb91",
      "effectiveGasPrice": "0x1acfc788a",
      "from": "0xc77f7fed3b5cc8249adc428c5f44c9063b9734b4",
      "to": "0xbf4a322f1496e5c3d34a9bcdb4c60567b38c7de2",
      "contractAddress": null
    }
  ],
  "libraries": [],
  "pending": [],
  "returns": {},
  "timestamp": 1736918918,
  "chain": 11155111,
  "commit": "51a374b"
}