{
  "transactions": [
    {
      "hash": "0xefb7ac4d350ee9bcc9338b28ea373468128b76313de0981ba7217c2434f2887c",
      "transactionType": "CALL",
      "contractName": null,
      "contractAddress": "0x270e88f8683660553e8ba4eb2ad7c91a1710d769",
      "function": "sell(uint256)",
      "arguments": [
        "741532563414456464241"
      ],
      "transaction": {
        "from": "0xc77f7fed3b5cc8249adc428c5f44c9063b9734b4",
        "to": "0x270e88f8683660553e8ba4eb2ad7c91a1710d769",
        "gas": "0x16fec",
        "value": "0x0",
        "input": "0xe4849b3200000000000000000000000000000000000000000000002832d4e19e177ff371",
        "nonce": "0x72a",
        "chainId": "0xaa36a7"
      },
      "additionalContracts": [],
      "isFixedGasLimit": false
    }
  ],
  "receipts": [
    {
      "status": "0x1",
      "cumulativeGasUsed": "0xdba094",
      "logs": [
        {
          "address": "0x270e88f8683660553e8ba4eb2ad7c91a1710d769",
          "topics": [
            "0xddf252ad1be2c89b69c2b068fc378daa952ba7f163c4a11628f55a4df523b3ef",
            "0x000000000000000000000000c77f7fed3b5cc8249adc428c5f44c9063b9734b4",
            "0x0000000000000000000000000000000000000000000000000000000000000000"
          ],
          "data": "0x00000000000000000000000000000000000000000000002832d4e19e177ff371",
          "blockHash": "0x5c261e3817ec4645d6260cd2f9954ef9e752e4ab2d460402525de8ecdc239bcb",
          "blockNumber": "0x725449",
          "transactionHash": "0xefb7ac4d350ee9bcc9338b28ea373468128b76313de0981ba7217c2434f2887c",
          "transactionIndex": "0x47",
          "logIndex": "0xed",
          "removed": false
        },
        {
          "address": "0x270e88f8683660553e8ba4eb2ad7c91a1710d769",
          "topics": [
            "0x4afcb4a87cdbd9974efdb92ee48bc8d7cd0ae4bf217004db3d080cbaee652ca7"
          ],
          "data": "0x000000000000000000000000000000000000000000000000000000006786e5740000000000000000000000000000000000000000000000000004c237c3d1d8980000000000000000000000000000000000000000000000000dc828a893d07eb9",
          "blockHash": "0x5c261e3817ec4645d6260cd2f9954ef9e752e4ab2d460402525de8ecdc239bcb",
          "blockNumber": "0x725449",
          "transactionHash": "0xefb7ac4d350ee9bcc9338b28ea373468128b76313de0981ba7217c2434f2887c",
          "transactionIndex": "0x47",
          "logIndex": "0xee",
          "removed": false
        }
      ],
      "logsBloom": "0x00000000000000000000000000000000000000000000000000000000000000000000000000000000000000000000000020000000000000004000000000000000000000000000000000000008000000000000000000000000000000000000000000000000020000000000000000000800020000000000000000000010000000000000000000010000000000000000000000000000000000000000010000000000000000000000000000000000000000004000000000000000000000000000000000000002000000800000000000000000000000000000080000008000000020000000000000000000000000000000000000000000000000000000000000000000",
      "type": "0x2",
      "transactionHash": "0xefb7ac4d350ee9bcc9338b28ea373468128b76313de0981ba7217c2434f2887c",
      "transactionIndex": "0x47",
      "blockHash": "0x5c261e3817ec4645d6260cd2f9954ef9e752e4ab2d460402525de8ecdc239bcb",
      "blockNumber": "0x725449",
      "gasUsed": "0xfb93",
      "effectiveGasPrice": "0x137fcda86",
      "from": "0xc77f7fed3b5cc8249adc428c5f44c9063b9734b4",
      "to": "0x270e88f8683660553e8ba4eb2ad7c91a1710d769",
      "contractAddress": null
    }
  ],
  "libraries": [],
  "pending": [],
  "returns": {},
  "timestamp": 1736893812,
  "chain": 11155111,
  "commit": "51a374b"
}