{
  "transactions": [
    {
      "hash": "0xdbd28e7ed0e6d93e076ff796854c16404c4240a974c1bb876777262af0e49c64",
      "transactionType": "CALL",
      "contractName": null,
      "contractAddress": "0xd7bc75898e513accccf720a874d44dab5a4b6223",
      "function": "buy(address)",
      "arguments": [
        "0xC77f7fed3b5Cc8249aDc428c5F44C9063B9734b4"
      ],
      "transaction": {
        "from": "0xc77f7fed3b5cc8249adc428c5f44c9063b9734b4",
        "to": "0xd7bc75898e513accccf720a874d44dab5a4b6223",
        "gas": "0x1b30c",
        "value": "0x2386f26fc10000",
        "input": "0xf088d547000000000000000000000000c77f7fed3b5cc8249adc428c5f44c9063b9734b4",
        "nonce": "0x8c",
        "chainId": "0xaa36a7"
      },
      "additionalContracts": [],
      "isFixedGasLimit": false
    }
  ],
  "receipts": [
    {
      "status": "0x1",
      "cumulativeGasUsed": "0xe04058",
      "logs": [
        {
          "address": "0xd7bc75898e513accccf720a874d44dab5a4b6223",
          "topics": [
            "0xddf252ad1be2c89b69c2b068fc378daa952ba7f163c4a11628f55a4df523b3ef",
            "0x0000000000000000000000000000000000000000000000000000000000000000",
            "0x000000000000000000000000c77f7fed3b5cc8249adc428c5f44c9063b9734b4"
          ],
          "data": "0x0000000000000000000000000000000000000000000000008963bc25250dab45",
          "blockHash": "0xad3f4b35140dc9bc6867df9d43da0ed542b80e6dccbb900b7616bd1449bcaec5",
          "blockNumber": "0x7238fc",
          "transactionHash": "0xdbd28e7ed0e6d93e076ff796854c16404c4240a974c1bb876777262af0e49c64",
          "transactionIndex": "0x69",
          "logIndex": "0xa0",
          "removed": false
        },
        {
          "address": "0xd7bc75898e513accccf720a874d44dab5a4b6223",
          "topics": [
            "0xddf252ad1be2c89b69c2b068fc378daa952ba7f163c4a11628f55a4df523b3ef",
            "0x0000000000000000000000000000000000000000000000000000000000000000",
            "0x000000000000000000000000c77f7fed3b5cc8249adc428c5f44c9063b9734b4"
          ],
          "data": "0x000000000000000000000000000000000000000000000000006ab00d485e6fdb",
          "blockHash": "0xad3f4b35140dc9bc6867df9d43da0ed542b80e6dccbb900b7616bd1449bcaec5",
          "blockNumber": "0x7238fc",
          "transactionHash": "0xdbd28e7ed0e6d93e076ff796854c16404c4240a974c1bb876777262af0e49c64",
          "transactionIndex": "0x69",
          "logIndex": "0xa1",
          "removed": false
        },
        {
          "address": "0xd7bc75898e513accccf720a874d44dab5a4b6223",
          "topics": [
            "0x4afcb4a87cdbd9974efdb92ee48bc8d7cd0ae4bf217004db3d080cbaee652ca7"
          ],
          "data": "0x0000000000000000000000000000000000000000000000000000000067859d1800000000000000000000000000000000000000000000000000038d7f81f6946b000000000000000000000000000000000000000000000000002386f26fc10000",
          "blockHash": "0xad3f4b35140dc9bc6867df9d43da0ed542b80e6dccbb900b7616bd1449bcaec5",
          "blockNumber": "0x7238fc",
          "transactionHash": "0xdbd28e7ed0e6d93e076ff796854c16404c4240a974c1bb876777262af0e49c64",
          "transactionIndex": "0x69",
          "logIndex": "0xa2",
          "removed": false
        }
      ],
      "logsBloom": "0x00000000000000000000000000000000000000000000000000000000000000000000000000000000000000000000000000000000000000004000000000000000000000000000000000000008000000000000000000000000000000000000000000000000020000000000000000000800020000000000000000000010000000000000000000000000000000000000000000000000000000000000010000000000000000000000000000000000000000004000001000000000000000000000000000000002000000800000000000004000000000000000080000000000000020000000000000000000000000000000000000000000080000000000000000000000",
      "type": "0x2",
      "transactionHash": "0xdbd28e7ed0e6d93e076ff796854c16404c4240a974c1bb876777262af0e49c64",
      "transactionIndex": "0x69",
      "blockHash": "0xad3f4b35140dc9bc6867df9d43da0ed542b80e6dccbb900b7616bd1449bcaec5",
      "blockNumber": "0x7238fc",
      "gasUsed": "0x13af8",
      "effectiveGasPrice": "0xc4d1f9",
      "from": "0xc77f7fed3b5cc8249adc428c5f44c9063b9734b4",
      "to": "0xd7bc75898e513accccf720a874d44dab5a4b6223",
      "contractAddress": null
    }
  ],
  "libraries": [],
  "pending": [],
  "returns": {},
  "timestamp": 1736809754,
  "chain": 11155111,
  "commit": "51a374b"
}