{
  "transactions": [
    {
      "hash": "0x2c23588ba1e1e2db52e1377d9669bdec9808bc958356b07b6c2af4a36fb1ab49",
      "transactionType": "CALL",
      "contractName": null,
      "contractAddress": "0x8aafd3ede9adb0ff97c7aebce82a919afb1c8764",
      "function": "sell(uint256)",
      "arguments": [
        "16237164213055094"
      ],
      "transaction": {
        "from": "0xc77f7fed3b5cc8249adc428c5f44c9063b9734b4",
        "to": "0x8aafd3ede9adb0ff97c7aebce82a919afb1c8764",
        "gas": "0x1724d",
        "value": "0x0",
        "input": "0xe4849b320000000000000000000000000000000000000000000000000039af9d65142e76",
        "nonce": "0x13f3",
        "chainId": "0xaa36a7"
      },
      "additionalContracts": [],
      "isFixedGasLimit": false
    }
  ],
  "receipts": [
    {
      "status": "0x1",
      "cumulativeGasUsed": "0xc1b994",
      "logs": [
        {
          "address": "0x8aafd3ede9adb0ff97c7aebce82a919afb1c8764",
          "topics": [
            "0xddf252ad1be2c89b69c2b068fc378daa952ba7f163c4a11628f55a4df523b3ef",
            "0x000000000000000000000000c77f7fed3b5cc8249adc428c5f44c9063b9734b4",
            "0x0000000000000000000000000000000000000000000000000000000000000000"
          ],
          "data": "0x0000000000000000000000000000000000000000000000000039397951d6947e",
          "blockHash": "0xb7bc7482890267f1b2b5781b3a5bd163aa33b33dffe54464f602e644203cd5d1",
          "blockNumber": "0x731b25",
          "transactionHash": "0x2c23588ba1e1e2db52e1377d9669bdec9808bc958356b07b6c2af4a36fb1ab49",
          "transactionIndex": "0x5a",
          "logIndex": "0x79",
          "removed": false
        },
        {
          "address": "0x8aafd3ede9adb0ff97c7aebce82a919afb1c8764",
          "topics": [
            "0xddf252ad1be2c89b69c2b068fc378daa952ba7f163c4a11628f55a4df523b3ef",
            "0x000000000000000000000000c77f7fed3b5cc8249adc428c5f44c9063b9734b4",
            "0x000000000000000000000000c77f7fed3b5cc8249adc428c5f44c9063b9734b4"
          ],
          "data": "0x00000000000000000000000000000000000000000000000000007624133d99f8",
          "blockHash": "0xb7bc7482890267f1b2b5781b3a5bd163aa33b33dffe54464f602e644203cd5d1",
          "blockNumber": "0x731b25",
          "transactionHash": "0x2c23588ba1e1e2db52e1377d9669bdec9808bc958356b07b6c2af4a36fb1ab49",
          "transactionIndex": "0x5a",
          "logIndex": "0x7a",
          "removed": false
        },
        {
          "address": "0x8aafd3ede9adb0ff97c7aebce82a919afb1c8764",
          "topics": [
            "0x4afcb4a87cdbd9974efdb92ee48bc8d7cd0ae4bf217004db3d080cbaee652ca7"
          ],
          "data": "0x000000000000000000000000000000000000000000000000000000006790428c000000000000000000000000000000000000000000000000000e0201f8ea4bc800000000000000000000000000000000000000000000000000003a3a00d3fb07",
          "blockHash": "0xb7bc7482890267f1b2b5781b3a5bd163aa33b33dffe54464f602e644203cd5d1",
          "blockNumber": "0x731b25",
          "transactionHash": "0x2c23588ba1e1e2db52e1377d9669bdec9808bc958356b07b6c2af4a36fb1ab49",
          "transactionIndex": "0x5a",
          "logIndex": "0x7b",
          "removed": false
        }
      ],
      "logsBloom": "0x00000000000000000000000000000000000000000600000000000000000000000000000000000000000000000000000000000000000000004000000000000000000000000000004000000008000000000000000000000000000000000000000000000000020000000000000000000800020000000000000000000010000000000000000000000000000000000000000000000000000000000000010000000000000000000000000000000000000000004000000000000000000000000000000000000002000000800000000000000000000000000000080000000000000020000000000000000000000000000000000000000000000000000000000000000000",
      "type": "0x2",
      "transactionHash": "0x2c23588ba1e1e2db52e1377d9669bdec9808bc958356b07b6c2af4a36fb1ab49",
      "transactionIndex": "0x5a",
      "blockHash": "0xb7bc7482890267f1b2b5781b3a5bd163aa33b33dffe54464f602e644203cd5d1",
      "blockNumber": "0x731b25",
      "gasUsed": "0xfd33",
      "effectiveGasPrice": "0x9e567b7f",
      "from": "0xc77f7fed3b5cc8249adc428c5f44c9063b9734b4",
      "to": "0x8aafd3ede9adb0ff97c7aebce82a919afb1c8764",
      "contractAddress": null
    }
  ],
  "libraries": [],
  "pending": [],
  "returns": {},
  "timestamp": 1737507469,
  "chain": 11155111,
  "commit": "1d2fb70"
}