{
  "transactions": [
    {
      "hash": "0xc4c68fe2f619d04bf90f2606c14ac7895da78116f0c63a3333584bebdd445699",
      "transactionType": "CALL",
      "contractName": null,
      "contractAddress": "0x8aafd3ede9adb0ff97c7aebce82a919afb1c8764",
      "function": "sell(uint256)",
      "arguments": [
        "12579"
      ],
      "transaction": {
        "from": "0xc77f7fed3b5cc8249adc428c5f44c9063b9734b4",
        "to": "0x8aafd3ede9adb0ff97c7aebce82a919afb1c8764",
        "gas": "0x14e4c",
        "value": "0x0",
        "input": "0xe4849b320000000000000000000000000000000000000000000000000000000000003123",
        "nonce": "0xe68",
        "chainId": "0xaa36a7"
      },
      "additionalContracts": [],
      "isFixedGasLimit": false
    }
  ],
  "receipts": [
    {
      "status": "0x1",
      "cumulativeGasUsed": "0xac2706",
      "logs": [
        {
          "address": "0x8aafd3ede9adb0ff97c7aebce82a919afb1c8764",
          "topics": [
            "0xddf252ad1be2c89b69c2b068fc378daa952ba7f163c4a11628f55a4df523b3ef",
            "0x000000000000000000000000c77f7fed3b5cc8249adc428c5f44c9063b9734b4",
            "0x0000000000000000000000000000000000000000000000000000000000000000"
          ],
          "data": "0x00000000000000000000000000000000000000000000000000000000000030bf",
          "blockHash": "0x7e854ab5738adbb9a6a12b9886a13033b478834f3f5daeaef1e097e370a6e55a",
          "blockNumber": "0x7313be",
          "transactionHash": "0xc4c68fe2f619d04bf90f2606c14ac7895da78116f0c63a3333584bebdd445699",
          "transactionIndex": "0x7b",
          "logIndex": "0xa3",
          "removed": false
        },
        {
          "address": "0x8aafd3ede9adb0ff97c7aebce82a919afb1c8764",
          "topics": [
            "0xddf252ad1be2c89b69c2b068fc378daa952ba7f163c4a11628f55a4df523b3ef",
            "0x000000000000000000000000c77f7fed3b5cc8249adc428c5f44c9063b9734b4",
            "0x000000000000000000000000c77f7fed3b5cc8249adc428c5f44c9063b9734b4"
          ],
          "data": "0x0000000000000000000000000000000000000000000000000000000000000064",
          "blockHash": "0x7e854ab5738adbb9a6a12b9886a13033b478834f3f5daeaef1e097e370a6e55a",
          "blockNumber": "0x7313be",
          "transactionHash": "0xc4c68fe2f619d04bf90f2606c14ac7895da78116f0c63a3333584bebdd445699",
          "transactionIndex": "0x7b",
          "logIndex": "0xa4",
          "removed": false
        },
        {
          "address": "0x8aafd3ede9adb0ff97c7aebce82a919afb1c8764",
          "topics": [
            "0x4afcb4a87cdbd9974efdb92ee48bc8d7cd0ae4bf217004db3d080cbaee652ca7"
          ],
          "data": "0x00000000000000000000000000000000000000000000000000000000678fe97c0000000000000000000000000000000000000000000000000004b4df99eb91f80000000000000000000000000000000000000000000000000000000000000010",
          "blockHash": "0x7e854ab5738adbb9a6a12b9886a13033b478834f3f5daeaef1e097e370a6e55a",
          "blockNumber": "0x7313be",
          "transactionHash": "0xc4c68fe2f619d04bf90f2606c14ac7895da78116f0c63a3333584bebdd445699",
          "transactionIndex": "0x7b",
          "logIndex": "0xa5",
          "removed": false
        }
      ],
      "logsBloom": "0x00000000000000000000000000000000000000000600000000000000000000000000000000000000000000000000000000000000000000004000000000000000000000000000004000000008000000000000000000000000000000000000000000000000020000000000000000000800020000000000000000000010000000000000000000000000000000000000000000000000000000000000010000000000000000000000000000000000000000004000000000000000000000000000000000000002000000800000000000000000000000000000080000000000000020000000000000000000000000000000000000000000000000000000000000000000",
      "type": "0x2",
      "transactionHash": "0xc4c68fe2f619d04bf90f2606c14ac7895da78116f0c63a3333584bebdd445699",
      "transactionIndex": "0x7b",
      "blockHash": "0x7e854ab5738adbb9a6a12b9886a13033b478834f3f5daeaef1e097e370a6e55a",
      "blockNumber": "0x7313be",
      "gasUsed": "0xf207",
      "effectiveGasPrice": "0x771dcb5a",
      "from": "0xc77f7fed3b5cc8249adc428c5f44c9063b9734b4",
      "to": "0x8aafd3ede9adb0ff97c7aebce82a919afb1c8764",
      "contractAddress": null
    }
  ],
  "libraries": [],
  "pending": [],
  "returns": {},
  "timestamp": 1737484669,
  "chain": 11155111,
  "commit": "51a374b"
}