{
  "transactions": [
    {
      "hash": "0x5dcdde4d4df2d0afe59e2b261c55064b523d407e15e6ae0204018f63da8cd4fb",
      "transactionType": "CALL",
      "contractName": null,
      "contractAddress": "0x270e88f8683660553e8ba4eb2ad7c91a1710d769",
      "function": "buy(address)",
      "arguments": [
        "0xC77f7fed3b5Cc8249aDc428c5F44C9063B9734b4"
      ],
      "transaction": {
        "from": "0xc77f7fed3b5cc8249adc428c5f44c9063b9734b4",
        "to": "0x270e88f8683660553e8ba4eb2ad7c91a1710d769",
        "gas": "0x1b30c",
        "value": "0xde0b6b3a7640000",
        "input": "0xf088d547000000000000000000000000c77f7fed3b5cc8249adc428c5f44c9063b9734b4",
        "nonce": "0x7dd",
        "chainId": "0xaa36a7"
      },
      "additionalContracts": [],
      "isFixedGasLimit": false
    }
  ],
  "receipts": [
    {
      "status": "0x1",
      "cumulativeGasUsed": "0x89f3d0",
      "logs": [
        {
          "address": "0x270e88f8683660553e8ba4eb2ad7c91a1710d769",
          "topics": [
            "0xddf252ad1be2c89b69c2b068fc378daa952ba7f163c4a11628f55a4df523b3ef",
            "0x0000000000000000000000000000000000000000000000000000000000000000",
            "0x000000000000000000000000c77f7fed3b5cc8249adc428c5f44c9063b9734b4"
          ],
          "data": "0x0000000000000000000000000000000000000000000000273a50ebc3aa84650e",
          "blockHash": "0xfe3502292ee7178191c271975b6df650931e9d17ae8250a84d34e1a04e509b29",
          "blockNumber": "0x725516",
          "transactionHash": "0x5dcdde4d4df2d0afe59e2b261c55064b523d407e15e6ae0204018f63da8cd4fb",
          "transactionIndex": "0x48",
          "logIndex": "0x75",
          "removed": false
        },
        {
          "address": "0x270e88f8683660553e8ba4eb2ad7c91a1710d769",
          "topics": [
            "0xddf252ad1be2c89b69c2b068fc378daa952ba7f163c4a11628f55a4df523b3ef",
            "0x0000000000000000000000000000000000000000000000000000000000000000",
            "0x000000000000000000000000c77f7fed3b5cc8249adc428c5f44c9063b9734b4"
          ],
          "data": "0x0000000000000000000000000000000000000000000000001e763374323725b2",
          "blockHash": "0xfe3502292ee7178191c271975b6df650931e9d17ae8250a84d34e1a04e509b29",
          "blockNumber": "0x725516",
          "transactionHash": "0x5dcdde4d4df2d0afe59e2b261c55064b523d407e15e6ae0204018f63da8cd4fb",
          "transactionIndex": "0x48",
          "logIndex": "0x76",
          "removed": false
        },
        {
          "address": "0x270e88f8683660553e8ba4eb2ad7c91a1710d769",
          "topics": [
            "0x4afcb4a87cdbd9974efdb92ee48bc8d7cd0ae4bf217004db3d080cbaee652ca7"
          ],
          "data": "0x000000000000000000000000000000000000000000000000000000006786ef100000000000000000000000000000000000000000000000000004dc65266866450000000000000000000000000000000000000000000000000de0b6b3a7640000",
          "blockHash": "0xfe3502292ee7178191c271975b6df650931e9d17ae8250a84d34e1a04e509b29",
          "blockNumber": "0x725516",
          "transactionHash": "0x5dcdde4d4df2d0afe59e2b261c55064b523d407e15e6ae0204018f63da8cd4fb",
          "transactionIndex": "0x48",
          "logIndex": "0x77",
          "removed": false
        }
      ],
      "logsBloom": "0x00000000000000000000000000000000000000000000000000000000000000000000000000000000000000000000000020000000000000004000000000000000000000000000000000000008000000000000000000000000000000000000000000000000020000000000000000000800020000000000000000000010000000000000000000010000000000000000000000000000000000000000010000000000000000000000000000000000000000004000000000000000000000000000000000000002000000800000000000000000000000000000080000008000000020000000000000000000000000000000000000000000000000000000000000000000",
      "type": "0x2",
      "transactionHash": "0x5dcdde4d4df2d0afe59e2b261c55064b523d407e15e6ae0204018f63da8cd4fb",
      "transactionIndex": "0x48",
      "blockHash": "0xfe3502292ee7178191c271975b6df650931e9d17ae8250a84d34e1a04e509b29",
      "blockNumber": "0x725516",
      "gasUsed": "0x13af8",
      "effectiveGasPrice": "0xb52fb515",
      "from": "0xc77f7fed3b5cc8249adc428c5f44c9063b9734b4",
      "to": "0x270e88f8683660553e8ba4eb2ad7c91a1710d769",
      "contractAddress": null
    }
  ],
  "libraries": [],
  "pending": [],
  "returns": {},
  "timestamp": 1736896274,
  "chain": 11155111,
  "commit": "51a374b"
}