{
  "transactions": [
    {
      "hash": "0x3a9f34e30a2fe097ac17db1278bc60b1baddd6be72588c7c2a130ce2fb390253",
      "transactionType": "CALL",
      "contractName": null,
      "contractAddress": "0x8aafd3ede9adb0ff97c7aebce82a919afb1c8764",
      "function": "sell(uint256)",
      "arguments": [
        "77270213512492"
      ],
      "transaction": {
        "from": "0xc77f7fed3b5cc8249adc428c5f44c9063b9734b4",
        "to": "0x8aafd3ede9adb0ff97c7aebce82a919afb1c8764",
        "gas": "0x15daa",
        "value": "0x0",
        "input": "0xe4849b3200000000000000000000000000000000000000000000000000004646dfa0cd2c",
        "nonce": "0x1727",
        "chainId": "0xaa36a7"
      },
      "additionalContracts": [],
      "isFixedGasLimit": false
    }
  ],
  "receipts": [
    {
      "status": "0x1",
      "cumulativeGasUsed": "0x821b2b",
      "logs": [
        {
          "address": "0x8aafd3ede9adb0ff97c7aebce82a919afb1c8764",
          "topics": [
            "0xddf252ad1be2c89b69c2b068fc378daa952ba7f163c4a11628f55a4df523b3ef",
            "0x000000000000000000000000c77f7fed3b5cc8249adc428c5f44c9063b9734b4",
            "0x0000000000000000000000000000000000000000000000000000000000000000"
          ],
          "data": "0x000000000000000000000000000000000000000000000000000045b6f251b0e9",
          "blockHash": "0x8f6ccf95a2c63a499c3acb33def7fa7a8a1b93792dbc87d3a4a7da5933140909",
          "blockNumber": "0x731ef0",
          "transactionHash": "0x3a9f34e30a2fe097ac17db1278bc60b1baddd6be72588c7c2a130ce2fb390253",
          "transactionIndex": "0x59",
          "logIndex": "0x7c",
          "removed": false
        },
        {
          "address": "0x8aafd3ede9adb0ff97c7aebce82a919afb1c8764",
          "topics": [
            "0xddf252ad1be2c89b69c2b068fc378daa952ba7f163c4a11628f55a4df523b3ef",
            "0x000000000000000000000000c77f7fed3b5cc8249adc428c5f44c9063b9734b4",
            "0x000000000000000000000000c77f7fed3b5cc8249adc428c5f44c9063b9734b4"
          ],
          "data": "0x0000000000000000000000000000000000000000000000000000008fed4f1c43",
          "blockHash": "0x8f6ccf95a2c63a499c3acb33def7fa7a8a1b93792dbc87d3a4a7da5933140909",
          "blockNumber": "0x731ef0",
          "transactionHash": "0x3a9f34e30a2fe097ac17db1278bc60b1baddd6be72588c7c2a130ce2fb390253",
          "transactionIndex": "0x59",
          "logIndex": "0x7d",
          "removed": false
        },
        {
          "address": "0x8aafd3ede9adb0ff97c7aebce82a919afb1c8764",
          "topics": [
            "0x4afcb4a87cdbd9974efdb92ee48bc8d7cd0ae4bf217004db3d080cbaee652ca7"
          ],
          "data": "0x000000000000000000000000000000000000000000000000000000006790702800000000000000000000000000000000000000000000000000177b2f1e8eec3300000000000000000000000000000000000000000000000000000076e885248d",
          "blockHash": "0x8f6ccf95a2c63a499c3acb33def7fa7a8a1b93792dbc87d3a4a7da5933140909",
          "blockNumber": "0x731ef0",
          "transactionHash": "0x3a9f34e30a2fe097ac17db1278bc60b1baddd6be72588c7c2a130ce2fb390253",
          "transactionIndex": "0x59",
          "logIndex": "0x7e",
          "removed": false
        }
      ],
      "logsBloom": "0x00000000000000000000000000000000000000000600000000000000000000000000000000000000000000000000000000000000000000004000000000000000000000000000004000000008000000000000000000000000000000000000000000000000020000000000000000000800020000000000000000000010000000000000000000000000000000000000000000000000000000000000010000000000000000000000000000000000000000004000000000000000000000000000000000000002000000800000000000000000000000000000080000000000000020000000000000000000000000000000000000000000000000000000000000000000",
      "type": "0x2",
      "transactionHash": "0x3a9f34e30a2fe097ac17db1278bc60b1baddd6be72588c7c2a130ce2fb390253",
      "transactionIndex": "0x59",
      "blockHash": "0x8f6ccf95a2c63a499c3acb33def7fa7a8a1b93792dbc87d3a4a7da5933140909",
      "blockNumber": "0x731ef0",
      "gasUsed": "0xfd27",
      "effectiveGasPrice": "0x4a657c8f",
      "from": "0xc77f7fed3b5cc8249adc428c5f44c9063b9734b4",
      "to": "0x8aafd3ede9adb0ff97c7aebce82a919afb1c8764",
      "contractAddress": null
    }
  ],
  "libraries": [],
  "pending": [],
  "returns": {},
  "timestamp": 1737519146,
  "chain": 11155111,
  "commit": "1d2fb70"
}