{
  "transactions": [
    {
      "hash": "0x15484d11595adf5edcb868ea337135f07e4738df60dd2f00ebc5384221eece97",
      "transactionType": "CALL",
      "contractName": null,
      "contractAddress": "0x270e88f8683660553e8ba4eb2ad7c91a1710d769",
      "function": "sell(uint256)",
      "arguments": [
        "726846928696405699617"
      ],
      "transaction": {
        "from": "0xc77f7fed3b5cc8249adc428c5f44c9063b9734b4",
        "to": "0x270e88f8683660553e8ba4eb2ad7c91a1710d769",
        "gas": "0x16fec",
        "value": "0x0",
        "input": "0xe4849b32000000000000000000000000000000000000000000000027670706a638f0ac21",
        "nonce": "0x7d2",
        "chainId": "0xaa36a7"
      },
      "additionalContracts": [],
      "isFixedGasLimit": false
    }
  ],
  "receipts": [
    {
      "status": "0x1",
      "cumulativeGasUsed": "0xa6d5ef",
      "logs": [
        {
          "address": "0x270e88f8683660553e8ba4eb2ad7c91a1710d769",
          "topics": [
            "0xddf252ad1be2c89b69c2b068fc378daa952ba7f163c4a11628f55a4df523b3ef",
            "0x000000000000000000000000c77f7fed3b5cc8249adc428c5f44c9063b9734b4",
            "0x0000000000000000000000000000000000000000000000000000000000000000"
          ],
          "data": "0x000000000000000000000000000000000000000000000027670706a638f0ac21",
          "blockHash": "0x840bdc43beb411ea585e2a2b036ea48f3a451a4d8c94775daba9b0432e0f94ae",
          "blockNumber": "0x72550a",
          "transactionHash": "0x15484d11595adf5edcb868ea337135f07e4738df60dd2f00ebc5384221eece97",
          "transactionIndex": "0x3c",
          "logIndex": "0x6f",
          "removed": false
        },
        {
          "address": "0x270e88f8683660553e8ba4eb2ad7c91a1710d769",
          "topics": [
            "0x4afcb4a87cdbd9974efdb92ee48bc8d7cd0ae4bf217004db3d080cbaee652ca7"
          ],
          "data": "0x000000000000000000000000000000000000000000000000000000006786ee800000000000000000000000000000000000000000000000000004dad354e376850000000000000000000000000000000000000000000000000dc827236a989c27",
          "blockHash": "0x840bdc43beb411ea585e2a2b036ea48f3a451a4d8c94775daba9b0432e0f94ae",
          "blockNumber": "0x72550a",
          "transactionHash": "0x15484d11595adf5edcb868ea337135f07e4738df60dd2f00ebc5384221eece97",
          "transactionIndex": "0x3c",
          "logIndex": "0x70",
          "removed": false
        }
      ],
      "logsBloom": "0x00000000000000000000000000000000000000000000000000000000000000000000000000000000000000000000000020000000000000004000000000000000000000000000000000000008000000000000000000000000000000000000000000000000020000000000000000000800020000000000000000000010000000000000000000010000000000000000000000000000000000000000010000000000000000000000000000000000000000004000000000000000000000000000000000000002000000800000000000000000000000000000080000008000000020000000000000000000000000000000000000000000000000000000000000000000",
      "type": "0x2",
      "transactionHash": "0x15484d11595adf5edcb868ea337135f07e4738df60dd2f00ebc5384221eece97",
      "transactionIndex": "0x3c",
      "blockHash": "0x840bdc43beb411ea585e2a2b036ea48f3a451a4d8c94775daba9b0432e0f94ae",
      "blockNumber": "0x72550a",
      "gasUsed": "0xfb93",
      "effectiveGasPrice": "0xc14b0de2",
      "from": "0xc77f7fed3b5cc8249adc428c5f44c9063b9734b4",
      "to": "0x270e88f8683660553e8ba4eb2ad7c91a1710d769",
      "contractAddress": null
    }
  ],
  "libraries": [],
  "pending": [],
  "returns": {},
  "timestamp": 1736896129,
  "chain": 11155111,
  "commit": "51a374b"
}