{
  "transactions": [
    {
      "hash": "0xd6efa0af5665b3decf824437e131eff9a6f461acb7d218575bfc78b7ac860346",
      "transactionType": "CALL",
      "contractName": null,
      "contractAddress": "0xfa935d1e2f0cf680aa398289c9e98bce16752068",
      "function": "buy(address)",
      "arguments": [
        "0xC77f7fed3b5Cc8249aDc428c5F44C9063B9734b4"
      ],
      "transaction": {
        "from": "0xc77f7fed3b5cc8249adc428c5f44c9063b9734b4",
        "to": "0xfa935d1e2f0cf680aa398289c9e98bce16752068",
        "gas": "0x1b2c8",
        "value": "0xde0b6b3a7640000",
        "input": "0xf088d547000000000000000000000000c77f7fed3b5cc8249adc428c5f44c9063b9734b4",
        "nonce": "0x17bb",
        "chainId": "0xaa36a7"
      },
      "additionalContracts": [],
      "isFixedGasLimit": false
    },
    {
      "hash": "0x7638735f3fe0bc38702d48c0a567d926d94af488dbe96b4a5867a2ed68875112",
      "transactionType": "CALL",
      "contractName": null,
      "contractAddress": "0xfa935d1e2f0cf680aa398289c9e98bce16752068",
      "function": "liquidate()",
      "arguments": [],
      "transaction": {
        "from": "0xc77f7fed3b5cc8249adc428c5f44c9063b9734b4",
        "to": "0xfa935d1e2f0cf680aa398289c9e98bce16752068",
        "gas": "0x8705",
        "value": "0x0",
        "input": "0x28a07025",
        "nonce": "0x17bc",
        "chainId": "0xaa36a7"
      },
      "additionalContracts": [],
      "isFixedGasLimit": false
    }
  ],
  "receipts": [
    {
      "status": "0x1",
      "cumulativeGasUsed": "0x12debf5",
      "logs": [
        {
          "address": "0xfa935d1e2f0cf680aa398289c9e98bce16752068",
          "topics": [
            "0xddf252ad1be2c89b69c2b068fc378daa952ba7f163c4a11628f55a4df523b3ef",
            "0x0000000000000000000000000000000000000000000000000000000000000000",
            "0x000000000000000000000000c77f7fed3b5cc8249adc428c5f44c9063b9734b4"
          ],
          "data": "0x000000000000000000000000000000000000000000000035ab028ac154c71b30",
          "blockHash": "0xa208fdb2c97525a6d7137caecbd23215efc1fd2cc486893d8f2b7f0825013f2c",
          "blockNumber": "0x7349cf",
          "transactionHash": "0xd6efa0af5665b3decf824437e131eff9a6f461acb7d218575bfc78b7ac860346",
          "transactionIndex": "0xaf",
          "logIndex": "0x174",
          "removed": false
        },
        {
          "address": "0xfa935d1e2f0cf680aa398289c9e98bce16752068",
          "topics": [
            "0xddf252ad1be2c89b69c2b068fc378daa952ba7f163c4a11628f55a4df523b3ef",
            "0x0000000000000000000000000000000000000000000000000000000000000000",
            "0x000000000000000000000000c77f7fed3b5cc8249adc428c5f44c9063b9734b4"
          ],
          "data": "0x00000000000000000000000000000000000000000000000029accf52156cec36",
          "blockHash": "0xa208fdb2c97525a6d7137caecbd23215efc1fd2cc486893d8f2b7f0825013f2c",
          "blockNumber": "0x7349cf",
          "transactionHash": "0xd6efa0af5665b3decf824437e131eff9a6f461acb7d218575bfc78b7ac860346",
          "transactionIndex": "0xaf",
          "logIndex": "0x175",
          "removed": false
        },
        {
          "address": "0xfa935d1e2f0cf680aa398289c9e98bce16752068",
          "topics": [
            "0x4afcb4a87cdbd9974efdb92ee48bc8d7cd0ae4bf217004db3d080cbaee652ca7"
          ],
          "data": "0x0000000000000000000000000000000000000000000000000000000067928190000000000000000000000000000000000000000000000000000393d6e1a1f5be0000000000000000000000000000000000000000000000000de0b6b3a7640000",
          "blockHash": "0xa208fdb2c97525a6d7137caecbd23215efc1fd2cc486893d8f2b7f0825013f2c",
          "blockNumber": "0x7349cf",
          "transactionHash": "0xd6efa0af5665b3decf824437e131eff9a6f461acb7d218575bfc78b7ac860346",
          "transactionIndex": "0xaf",
          "logIndex": "0x176",
          "removed": false
        }
      ],
      "logsBloom": "0x00000000000000000000000000000000000000000000000000000000000000040000000000000000000000000000000000000000000000004000000000000000000000000000000000000008000000000000000000000000000000000000000000000000020000000000000000000800020000000000000000000010000000000000000000000000000000000000000000000000000000000000010000000000000000000000000000000000000000004000000000000000000000000000000000000002000000800000000000000000000000000000080020000000000020000000000000000040000000000000000000000000000000000000000000000000",
      "type": "0x2",
      "transactionHash": "0xd6efa0af5665b3decf824437e131eff9a6f461acb7d218575bfc78b7ac860346",
      "transactionIndex": "0xaf",
      "blockHash": "0xa208fdb2c97525a6d7137caecbd23215efc1fd2cc486893d8f2b7f0825013f2c",
      "blockNumber": "0x7349cf",
      "gasUsed": "0x13ac7",
      "effectiveGasPrice": "0xb4aae96f6",
      "from": "0xc77f7fed3b5cc8249adc428c5f44c9063b9734b4",
      "to": "0xfa935d1e2f0cf680aa398289c9e98bce16752068",
      "contractAddress": null
    },
    {
      "status": "0x1",
      "cumulativeGasUsed": "0x12e4848",
      "logs": [],
      "logsBloom": "0x00000000000000000000000000000000000000000000000000000000000000000000000000000000000000000000000000000000000000000000000000000000000000000000000000000000000000000000000000000000000000000000000000000000000000000000000000000000000000000000000000000000000000000000000000000000000000000000000000000000000000000000000000000000000000000000000000000000000000000000000000000000000000000000000000000000000000000000000000000000000000000000000000000000000000000000000000000000000000000000000000000000000000000000000000000000",
      "type": "0x2",
      "transactionHash": "0x7638735f3fe0bc38702d48c0a567d926d94af488dbe96b4a5867a2ed68875112",
      "transactionIndex": "0xb0",
      "blockHash": "0xa208fdb2c97525a6d7137caecbd23215efc1fd2cc486893d8f2b7f0825013f2c",
      "blockNumber": "0x7349cf",
      "gasUsed": "0x5c53",
      "effectiveGasPrice": "0xb4aae96f6",
      "from": "0xc77f7fed3b5cc8249adc428c5f44c9063b9734b4",
      "to": "0xfa935d1e2f0cf680aa398289c9e98bce16752068",
      "contractAddress": null
    }
  ],
  "libraries": [],
  "pending": [],
  "returns": {},
  "timestamp": 1737654674,
  "chain": 11155111,
  "commit": "f5162e9"
}