{
  "transactions": [
    {
      "hash": "0xc8d8595c122db478d5e262ba73dd04e75096b166d72b79ea74350847a18c6bf1",
      "transactionType": "CALL",
      "contractName": null,
      "contractAddress": "0x270e88f8683660553e8ba4eb2ad7c91a1710d769",
      "function": "sell(uint256)",
      "arguments": [
        "749463878554755021355"
      ],
      "transaction": {
        "from": "0xc77f7fed3b5cc8249adc428c5f44c9063b9734b4",
        "to": "0x270e88f8683660553e8ba4eb2ad7c91a1710d769",
        "gas": "0x16fec",
        "value": "0x0",
        "input": "0xe4849b32000000000000000000000000000000000000000000000028a0e692b73aac3a2b",
        "nonce": "0x6d2",
        "chainId": "0xaa36a7"
      },
      "additionalContracts": [],
      "isFixedGasLimit": false
    }
  ],
  "receipts": [
    {
      "status": "0x1",
      "cumulativeGasUsed": "0x4d71cf",
      "logs": [
        {
          "address": "0x270e88f8683660553e8ba4eb2ad7c91a1710d769",
          "topics": [
            "0xddf252ad1be2c89b69c2b068fc378daa952ba7f163c4a11628f55a4df523b3ef",
            "0x000000000000000000000000c77f7fed3b5cc8249adc428c5f44c9063b9734b4",
            "0x0000000000000000000000000000000000000000000000000000000000000000"
          ],
          "data": "0x000000000000000000000000000000000000000000000028a0e692b73aac3a2b",
          "blockHash": "0x96f5193c155b62fc6788f1842f060da831c8cd3098b85ef7c6cd7fb4420894dd",
          "blockNumber": "0x7253e1",
          "transactionHash": "0xc8d8595c122db478d5e262ba73dd04e75096b166d72b79ea74350847a18c6bf1",
          "transactionIndex": "0x2b",
          "logIndex": "0x65",
          "removed": false
        },
        {
          "address": "0x270e88f8683660553e8ba4eb2ad7c91a1710d769",
          "topics": [
            "0x4afcb4a87cdbd9974efdb92ee48bc8d7cd0ae4bf217004db3d080cbaee652ca7"
          ],
          "data": "0x000000000000000000000000000000000000000000000000000000006786e0940000000000000000000000000000000000000000000000000004b55435a12ec50000000000000000000000000000000000000000000000000dc8297aacacffbb",
          "blockHash": "0x96f5193c155b62fc6788f1842f060da831c8cd3098b85ef7c6cd7fb4420894dd",
          "blockNumber": "0x7253e1",
          "transactionHash": "0xc8d8595c122db478d5e262ba73dd04e75096b166d72b79ea74350847a18c6bf1",
          "transactionIndex": "0x2b",
          "logIndex": "0x66",
          "removed": false
        }
      ],
      "logsBloom": "0x00000000000000000000000000000000000000000000000000000000000000000000000000000000000000000000000020000000000000004000000000000000000000000000000000000008000000000000000000000000000000000000000000000000020000000000000000000800020000000000000000000010000000000000000000010000000000000000000000000000000000000000010000000000000000000000000000000000000000004000000000000000000000000000000000000002000000800000000000000000000000000000080000008000000020000000000000000000000000000000000000000000000000000000000000000000",
      "type": "0x2",
      "transactionHash": "0xc8d8595c122db478d5e262ba73dd04e75096b166d72b79ea74350847a18c6bf1",
      "transactionIndex": "0x2b",
      "blockHash": "0x96f5193c155b62fc6788f1842f060da831c8cd3098b85ef7c6cd7fb4420894dd",
      "blockNumber": "0x7253e1",
      "gasUsed": "0xfb93",
      "effectiveGasPrice": "0x1619bf5c3",
      "from": "0xc77f7fed3b5cc8249adc428c5f44c9063b9734b4",
      "to": "0x270e88f8683660553e8ba4eb2ad7c91a1710d769",
      "contractAddress": null
    }
  ],
  "libraries": [],
  "pending": [],
  "returns": {},
  "timestamp": 1736892564,
  "chain": 11155111,
  "commit": "51a374b"
}