{
  "transactions": [
    {
      "hash": "0x915706a66d74196264622bbc37e6718b5ed595c2561ebc6a1212663f45a5ac1b",
      "transactionType": "CALL",
      "contractName": null,
      "contractAddress": "0x8aafd3ede9adb0ff97c7aebce82a919afb1c8764",
      "function": "sell(uint256)",
      "arguments": [
        "117712303948096"
      ],
      "transaction": {
        "from": "0xc77f7fed3b5cc8249adc428c5f44c9063b9734b4",
        "to": "0x8aafd3ede9adb0ff97c7aebce82a919afb1c8764",
        "gas": "0x15daa",
        "value": "0x0",
        "input": "0xe4849b3200000000000000000000000000000000000000000000000000006b0f08100140",
        "nonce": "0x1472",
        "chainId": "0xaa36a7"
      },
      "additionalContracts": [],
      "isFixedGasLimit": false
    }
  ],
  "receipts": [
    {
      "status": "0x1",
      "cumulativeGasUsed": "0x1432c30",
      "logs": [
        {
          "address": "0x8aafd3ede9adb0ff97c7aebce82a919afb1c8764",
          "topics": [
            "0xddf252ad1be2c89b69c2b068fc378daa952ba7f163c4a11628f55a4df523b3ef",
            "0x000000000000000000000000c77f7fed3b5cc8249adc428c5f44c9063b9734b4",
            "0x0000000000000000000000000000000000000000000000000000000000000000"
          ],
          "data": "0x00000000000000000000000000000000000000000000000000006a33c67646e0",
          "blockHash": "0xa917bd8f7717f0688a36065f6115896e9ff4caeca49db995d06d055226bf247a",
          "blockNumber": "0x731bbf",
          "transactionHash": "0x915706a66d74196264622bbc37e6718b5ed595c2561ebc6a1212663f45a5ac1b",
          "transactionIndex": "0xab",
          "logIndex": "0xf1",
          "removed": false
        },
        {
          "address": "0x8aafd3ede9adb0ff97c7aebce82a919afb1c8764",
          "topics": [
            "0xddf252ad1be2c89b69c2b068fc378daa952ba7f163c4a11628f55a4df523b3ef",
            "0x000000000000000000000000c77f7fed3b5cc8249adc428c5f44c9063b9734b4",
            "0x000000000000000000000000c77f7fed3b5cc8249adc428c5f44c9063b9734b4"
          ],
          "data": "0x000000000000000000000000000000000000000000000000000000db4199ba60",
          "blockHash": "0xa917bd8f7717f0688a36065f6115896e9ff4caeca49db995d06d055226bf247a",
          "blockNumber": "0x731bbf",
          "transactionHash": "0x915706a66d74196264622bbc37e6718b5ed595c2561ebc6a1212663f45a5ac1b",
          "transactionIndex": "0xab",
          "logIndex": "0xf2",
          "removed": false
        },
        {
          "address": "0x8aafd3ede9adb0ff97c7aebce82a919afb1c8764",
          "topics": [
            "0x4afcb4a87cdbd9974efdb92ee48bc8d7cd0ae4bf217004db3d080cbaee652ca7"
          ],
          "data": "0x00000000000000000000000000000000000000000000000000000000679049d0000000000000000000000000000000000000000000000000000f72a582083d7d000000000000000000000000000000000000000000000000000000772bb31249",
          "blockHash": "0xa917bd8f7717f0688a36065f6115896e9ff4caeca49db995d06d055226bf247a",
          "blockNumber": "0x731bbf",
          "transactionHash": "0x915706a66d74196264622bbc37e6718b5ed595c2561ebc6a1212663f45a5ac1b",
          "transactionIndex": "0xab",
          "logIndex": "0xf3",
          "removed": false
        }
      ],
      "logsBloom": "0x00000000000000000000000000000000000000000600000000000000000000000000000000000000000000000000000000000000000000004000000000000000000000000000004000000008000000000000000000000000000000000000000000000000020000000000000000000800020000000000000000000010000000000000000000000000000000000000000000000000000000000000010000000000000000000000000000000000000000004000000000000000000000000000000000000002000000800000000000000000000000000000080000000000000020000000000000000000000000000000000000000000000000000000000000000000",
      "type": "0x2",
      "transactionHash": "0x915706a66d74196264622bbc37e6718b5ed595c2561ebc6a1212663f45a5ac1b",
      "transactionIndex": "0xab",
      "blockHash": "0xa917bd8f7717f0688a36065f6115896e9ff4caeca49db995d06d055226bf247a",
      "blockNumber": "0x731bbf",
      "gasUsed": "0xfd27",
      "effectiveGasPrice": "0xf41d9ced",
      "from": "0xc77f7fed3b5cc8249adc428c5f44c9063b9734b4",
      "to": "0x8aafd3ede9adb0ff97c7aebce82a919afb1c8764",
      "contractAddress": null
    }
  ],
  "libraries": [],
  "pending": [],
  "returns": {},
  "timestamp": 1737509330,
  "chain": 11155111,
  "commit": "1d2fb70"
}