{
  "transactions": [
    {
      "hash": "0x1144dd266dd19587edd9bc191aef394497532b8be89916c14b92d9e74a119a3c",
      "transactionType": "CALL",
      "contractName": null,
      "contractAddress": "0xbf4a322f1496e5c3d34a9bcdb4c60567b38c7de2",
      "function": "sell(uint256)",
      "arguments": [
        "993002796127420476469"
      ],
      "transaction": {
        "from": "0xc77f7fed3b5cc8249adc428c5f44c9063b9734b4",
        "to": "0xbf4a322f1496e5c3d34a9bcdb4c60567b38c7de2",
        "gas": "0x16fea",
        "value": "0x0",
        "input": "0xe4849b32000000000000000000000000000000000000000000000035d4ae9dec7088ec35",
        "nonce": "0x8c8",
        "chainId": "0xaa36a7"
      },
      "additionalContracts": [],
      "isFixedGasLimit": false
    }
  ],
  "receipts": [
    {
      "status": "0x1",
      "cumulativeGasUsed": "0xb627c9",
      "logs": [
        {
          "address": "0xbf4a322f1496e5c3d34a9bcdb4c60567b38c7de2",
          "topics": [
            "0xddf252ad1be2c89b69c2b068fc378daa952ba7f163c4a11628f55a4df523b3ef",
            "0x000000000000000000000000c77f7fed3b5cc8249adc428c5f44c9063b9734b4",
            "0x0000000000000000000000000000000000000000000000000000000000000000"
          ],
          "data": "0x000000000000000000000000000000000000000000000035d4ae9dec7088ec35",
          "blockHash": "0x542842140e2d931f955f628b8ff42778d385c576285bbb056bb3584ee6d881f2",
          "blockNumber": "0x725833",
          "transactionHash": "0x1144dd266dd19587edd9bc191aef394497532b8be89916c14b92d9e74a119a3c",
          "transactionIndex": "0x56",
          "logIndex": "0x7f",
          "removed": false
        },
        {
          "address": "0xbf4a322f1496e5c3d34a9bcdb4c60567b38c7de2",
          "topics": [
            "0x4afcb4a87cdbd9974efdb92ee48bc8d7cd0ae4bf217004db3d080cbaee652ca7"
          ],
          "data": "0x000000000000000000000000000000000000000000000000000000006787148400000000000000000000000000000000000000000000000000038d86383911920000000000000000000000000000000000000000000000000dc7e57c13f89aaa",
          "blockHash": "0x542842140e2d931f955f628b8ff42778d385c576285bbb056bb3584ee6d881f2",
          "blockNumber": "0x725833",
          "transactionHash": "0x1144dd266dd19587edd9bc191aef394497532b8be89916c14b92d9e74a119a3c",
          "transactionIndex": "0x56",
          "logIndex": "0x80",
          "removed": false
        }
      ],
      "logsBloom": "0x00000000000000000000000000000000000000000000000000000000000000000000000000000000000000000000000000000000000000004000000000000000000000000000000000000008000000000000001000000000000000000000000000000000020000000000000000000800020000000000000000000010000000000000000000000000000000000000000000000000000008000000010000000000000000000000000000000000000000004000000000000000000000000000000000000002000000800000000000001000000000000000080000000000000020000000000000000000000000000000000000000000000000000000000000000000",
      "type": "0x2",
      "transactionHash": "0x1144dd266dd19587edd9bc191aef394497532b8be89916c14b92d9e74a119a3c",
      "transactionIndex": "0x56",
      "blockHash": "0x542842140e2d931f955f628b8ff42778d385c576285bbb056bb3584ee6d881f2",
      "blockNumber": "0x725833",
      "gasUsed": "0xfb91",
      "effectiveGasPrice": "0x24d675ee",
      "from": "0xc77f7fed3b5cc8249adc428c5f44c9063b9734b4",
      "to": "0xbf4a322f1496e5c3d34a9bcdb4c60567b38c7de2",
      "contractAddress": null
    }
  ],
  "libraries": [],
  "pending": [],
  "returns": {},
  "timestamp": 1736905860,
  "chain": 11155111,
  "commit": "51a374b"
}