{
  "transactions": [
    {
      "hash": "0x59d67d4a9e21de9feb8e94f6441aea35d8bb6cb687d06135b5b1f97660ca13d5",
      "transactionType": "CALL",
      "contractName": null,
      "contractAddress": "0x270e88f8683660553e8ba4eb2ad7c91a1710d769",
      "function": "sell(uint256)",
      "arguments": [
        "752206571413971800250"
      ],
      "transaction": {
        "from": "0xc77f7fed3b5cc8249adc428c5f44c9063b9734b4",
        "to": "0x270e88f8683660553e8ba4eb2ad7c91a1710d769",
        "gas": "0x16fec",
        "value": "0x0",
        "input": "0xe4849b32000000000000000000000000000000000000000000000028c6f69356fc4a10ba",
        "nonce": "0x6b4",
        "chainId": "0xaa36a7"
      },
      "additionalContracts": [],
      "isFixedGasLimit": false
    }
  ],
  "receipts": [
    {
      "status": "0x1",
      "cumulativeGasUsed": "0x6d3e3c",
      "logs": [
        {
          "address": "0x270e88f8683660553e8ba4eb2ad7c91a1710d769",
          "topics": [
            "0xddf252ad1be2c89b69c2b068fc378daa952ba7f163c4a11628f55a4df523b3ef",
            "0x000000000000000000000000c77f7fed3b5cc8249adc428c5f44c9063b9734b4",
            "0x0000000000000000000000000000000000000000000000000000000000000000"
          ],
          "data": "0x000000000000000000000000000000000000000000000028c6f69356fc4a10ba",
          "blockHash": "0x6a3893be2d6623b3a02883f6b00ba0854cc47fbc3dfa51a96e489e42e4922e96",
          "blockNumber": "0x7253bd",
          "transactionHash": "0x59d67d4a9e21de9feb8e94f6441aea35d8bb6cb687d06135b5b1f97660ca13d5",
          "transactionIndex": "0x3f",
          "logIndex": "0x67",
          "removed": false
        },
        {
          "address": "0x270e88f8683660553e8ba4eb2ad7c91a1710d769",
          "topics": [
            "0x4afcb4a87cdbd9974efdb92ee48bc8d7cd0ae4bf217004db3d080cbaee652ca7"
          ],
          "data": "0x000000000000000000000000000000000000000000000000000000006786dee40000000000000000000000000000000000000000000000000004b0ef656199eb0000000000000000000000000000000000000000000000000dc829c350830fda",
          "blockHash": "0x6a3893be2d6623b3a02883f6b00ba0854cc47fbc3dfa51a96e489e42e4922e96",
          "blockNumber": "0x7253bd",
          "transactionHash": "0x59d67d4a9e21de9feb8e94f6441aea35d8bb6cb687d06135b5b1f97660ca13d5",
          "transactionIndex": "0x3f",
          "logIndex": "0x68",
          "removed": false
        }
      ],
      "logsBloom": "0x00000000000000000000000000000000000000000000000000000000000000000000000000000000000000000000000020000000000000004000000000000000000000000000000000000008000000000000000000000000000000000000000000000000020000000000000000000800020000000000000000000010000000000000000000010000000000000000000000000000000000000000010000000000000000000000000000000000000000004000000000000000000000000000000000000002000000800000000000000000000000000000080000008000000020000000000000000000000000000000000000000000000000000000000000000000",
      "type": "0x2",
      "transactionHash": "0x59d67d4a9e21de9feb8e94f6441aea35d8bb6cb687d06135b5b1f97660ca13d5",
      "transactionIndex": "0x3f",
      "blockHash": "0x6a3893be2d6623b3a02883f6b00ba0854cc47fbc3dfa51a96e489e42e4922e96",
      "blockNumber": "0x7253bd",
      "gasUsed": "0xfb93",
      "effectiveGasPrice": "0x1a53b3ef1",
      "from": "0xc77f7fed3b5cc8249adc428c5f44c9063b9734b4",
      "to": "0x270e88f8683660553e8ba4eb2ad7c91a1710d769",
      "contractAddress": null
    }
  ],
  "libraries": [],
  "pending": [],
  "returns": {},
  "timestamp": 1736892132,
  "chain": 11155111,
  "commit": "51a374b"
}