{
  "transactions": [
    {
      "hash": "0xabc48506fc8a4fb3e0242ad3e28e826556b31330f3ae7063535caafcaf74a67e",
      "transactionType": "CALL",
      "contractName": null,
      "contractAddress": "0x8aafd3ede9adb0ff97c7aebce82a919afb1c8764",
      "function": "buy(address)",
      "arguments": [
        "0xC77f7fed3b5Cc8249aDc428c5F44C9063B9734b4"
      ],
      "transaction": {
        "from": "0xc77f7fed3b5cc8249adc428c5f44c9063b9734b4",
        "to": "0x8aafd3ede9adb0ff97c7aebce82a919afb1c8764",
        "gas": "0x156ea",
        "value": "0xde0b6b3a7640000",
        "input": "0xf088d547000000000000000000000000c77f7fed3b5cc8249adc428c5f44c9063b9734b4",
        "nonce": "0x137b",
        "chainId": "0xaa36a7"
      },
      "additionalContracts": [],
      "isFixedGasLimit": false
    }
  ],
  "receipts": [
    {
      "status": "0x1",
      "cumulativeGasUsed": "0xc896d6",
      "logs": [
        {
          "address": "0x8aafd3ede9adb0ff97c7aebce82a919afb1c8764",
          "topics": [
            "0xddf252ad1be2c89b69c2b068fc378daa952ba7f163c4a11628f55a4df523b3ef",
            "0x0000000000000000000000000000000000000000000000000000000000000000",
            "0x000000000000000000000000c77f7fed3b5cc8249adc428c5f44c9063b9734b4"
          ],
          "data": "0x00000000000000000000000000000000000000000000000f29114ddff79fd1cb",
          "blockHash": "0x90263d63d33273a4efd54ba28e328889f7598220eac6eb6c453b3d0db74b7524",
          "blockNumber": "0x731a9f",
          "transactionHash": "0xabc48506fc8a4fb3e0242ad3e28e826556b31330f3ae7063535caafcaf74a67e",
          "transactionIndex": "0x8f",
          "logIndex": "0xce",
          "removed": false
        },
        {
          "address": "0x8aafd3ede9adb0ff97c7aebce82a919afb1c8764",
          "topics": [
            "0xddf252ad1be2c89b69c2b068fc378daa952ba7f163c4a11628f55a4df523b3ef",
            "0x0000000000000000000000000000000000000000000000000000000000000000",
            "0x000000000000000000000000c77f7fed3b5cc8249adc428c5f44c9063b9734b4"
          ],
          "data": "0x0000000000000000000000000000000000000000000000000bc5c807dac35927",
          "blockHash": "0x90263d63d33273a4efd54ba28e328889f7598220eac6eb6c453b3d0db74b7524",
          "blockNumber": "0x731a9f",
          "transactionHash": "0xabc48506fc8a4fb3e0242ad3e28e826556b31330f3ae7063535caafcaf74a67e",
          "transactionIndex": "0x8f",
          "logIndex": "0xcf",
          "removed": false
        },
        {
          "address": "0x8aafd3ede9adb0ff97c7aebce82a919afb1c8764",
          "topics": [
            "0x4afcb4a87cdbd9974efdb92ee48bc8d7cd0ae4bf217004db3d080cbaee652ca7"
          ],
          "data": "0x0000000000000000000000000000000000000000000000000000000067903c44000000000000000000000000000000000000000000000000000c99aac6d999830000000000000000000000000000000000000000000000000de0b6b3a7640000",
          "blockHash": "0x90263d63d33273a4efd54ba28e328889f7598220eac6eb6c453b3d0db74b7524",
          "blockNumber": "0x731a9f",
          "transactionHash": "0xabc48506fc8a4fb3e0242ad3e28e826556b31330f3ae7063535caafcaf74a67e",
          "transactionIndex": "0x8f",
          "logIndex": "0xd0",
          "removed": false
        }
      ],
      "logsBloom": "0x00000000000000000000000000000000000000000600000000000000000000000000000000000000000000000000000000000000000000004000000000000000000000000000004000000008000000000000000000000000000000000000000000000000020000000000000000000800020000000000000000000010000000000000000000000000000000000000000000000000000000000000010000000000000000000000000000000000000000004000000000000000000000000000000000000002000000800000000000000000000000000000080000000000000020000000000000000000000000000000000000000000000000000000000000000000",
      "type": "0x2",
      "transactionHash": "0xabc48506fc8a4fb3e0242ad3e28e826556b31330f3ae7063535caafcaf74a67e",
      "transactionIndex": "0x8f",
      "blockHash": "0x90263d63d33273a4efd54ba28e328889f7598220eac6eb6c453b3d0db74b7524",
      "blockNumber": "0x731a9f",
      "gasUsed": "0xf844",
      "effectiveGasPrice": "0x7b4f19cb",
      "from": "0xc77f7fed3b5cc8249adc428c5f44c9063b9734b4",
      "to": "0x8aafd3ede9adb0ff97c7aebce82a919afb1c8764",
      "contractAddress": null
    }
  ],
  "libraries": [],
  "pending": [],
  "returns": {},
  "timestamp": 1737505862,
  "chain": 11155111,
  "commit": "1d2fb70"
}