{
  "transactions": [
    {
      "hash": "0x2dc026cee379df9b0641acef78d9e3e672463d57f44107a79113ae566838cf62",
      "transactionType": "CALL",
      "contractName": null,
      "contractAddress": "0xbf4a322f1496e5c3d34a9bcdb4c60567b38c7de2",
      "function": "sell(uint256)",
      "arguments": [
        "978029546207638755054"
      ],
      "transaction": {
        "from": "0xc77f7fed3b5cc8249adc428c5f44c9063b9734b4",
        "to": "0xbf4a322f1496e5c3d34a9bcdb4c60567b38c7de2",
        "gas": "0x16fea",
        "value": "0x0",
        "input": "0xe4849b3200000000000000000000000000000000000000000000003504e2f27406cc96ee",
        "nonce": "0xcab",
        "chainId": "0xaa36a7"
      },
      "additionalContracts": [],
      "isFixedGasLimit": false
    }
  ],
  "receipts": [
    {
      "status": "0x1",
      "cumulativeGasUsed": "0xca23d3",
      "logs": [
        {
          "address": "0xbf4a322f1496e5c3d34a9bcdb4c60567b38c7de2",
          "topics": [
            "0xddf252ad1be2c89b69c2b068fc378daa952ba7f163c4a11628f55a4df523b3ef",
            "0x000000000000000000000000c77f7fed3b5cc8249adc428c5f44c9063b9734b4",
            "0x0000000000000000000000000000000000000000000000000000000000000000"
          ],
          "data": "0x00000000000000000000000000000000000000000000003504e2f27406cc96ee",
          "blockHash": "0x67507c6d8df33d922198a732368f6de90f3d89a1b7b995d1b5378cf8c7a9f5f1",
          "blockNumber": "0x725cf6",
          "transactionHash": "0x2dc026cee379df9b0641acef78d9e3e672463d57f44107a79113ae566838cf62",
          "transactionIndex": "0x5b",
          "logIndex": "0xba",
          "removed": false
        },
        {
          "address": "0xbf4a322f1496e5c3d34a9bcdb4c60567b38c7de2",
          "topics": [
            "0x4afcb4a87cdbd9974efdb92ee48bc8d7cd0ae4bf217004db3d080cbaee652ca7"
          ],
          "data": "0x0000000000000000000000000000000000000000000000000000000067874dfc00000000000000000000000000000000000000000000000000039b71b41835cd0000000000000000000000000000000000000000000000000dc7e3dd7c24fcb2",
          "blockHash": "0x67507c6d8df33d922198a732368f6de90f3d89a1b7b995d1b5378cf8c7a9f5f1",
          "blockNumber": "0x725cf6",
          "transactionHash": "0x2dc026cee379df9b0641acef78d9e3e672463d57f44107a79113ae566838cf62",
          "transactionIndex": "0x5b",
          "logIndex": "0xbb",
          "removed": false
        }
      ],
      "logsBloom": "0x00000000000000000000000000000000000000000000000000000000000000000000000000000000000000000000000000000000000000004000000000000000000000000000000000000008000000000000001000000000000000000000000000000000020000000000000000000800020000000000000000000010000000000000000000000000000000000000000000000000000008000000010000000000000000000000000000000000000000004000000000000000000000000000000000000002000000800000000000001000000000000000080000000000000020000000000000000000000000000000000000000000000000000000000000000000",
      "type": "0x2",
      "transactionHash": "0x2dc026cee379df9b0641acef78d9e3e672463d57f44107a79113ae566838cf62",
      "transactionIndex": "0x5b",
      "blockHash": "0x67507c6d8df33d922198a732368f6de90f3d89a1b7b995d1b5378cf8c7a9f5f1",
      "blockNumber": "0x725cf6",
      "gasUsed": "0xfb91",
      "effectiveGasPrice": "0x24b540a39",
      "from": "0xc77f7fed3b5cc8249adc428c5f44c9063b9734b4",
      "to": "0xbf4a322f1496e5c3d34a9bcdb4c60567b38c7de2",
      "contractAddress": null
    }
  ],
  "libraries": [],
  "pending": [],
  "returns": {},
  "timestamp": 1736920573,
  "chain": 11155111,
  "commit": "51a374b"
}