{
  "transactions": [
    {
      "hash": "0xe67dba63d8a8b201c6cea060f86378f7b873ecd795e0215db03fbc71888da9fb",
      "transactionType": "CALL",
      "contractName": null,
      "contractAddress": "0x8aafd3ede9adb0ff97c7aebce82a919afb1c8764",
      "function": "buy(address)",
      "arguments": [
        "0xC77f7fed3b5Cc8249aDc428c5F44C9063B9734b4"
      ],
      "transaction": {
        "from": "0xc77f7fed3b5cc8249adc428c5f44c9063b9734b4",
        "to": "0x8aafd3ede9adb0ff97c7aebce82a919afb1c8764",
        "gas": "0x156ea",
        "value": "0xde0b6b3a7640000",
        "input": "0xf088d547000000000000000000000000c77f7fed3b5cc8249adc428c5f44c9063b9734b4",
        "nonce": "0xf34",
        "chainId": "0xaa36a7"
      },
      "additionalContracts": [],
      "isFixedGasLimit": false
    }
  ],
  "receipts": [
    {
      "status": "0x1",
      "cumulativeGasUsed": "0x16aa1c4",
      "logs": [
        {
          "address": "0x8aafd3ede9adb0ff97c7aebce82a919afb1c8764",
          "topics": [
            "0xddf252ad1be2c89b69c2b068fc378daa952ba7f163c4a11628f55a4df523b3ef",
            "0x0000000000000000000000000000000000000000000000000000000000000000",
            "0x000000000000000000000000c77f7fed3b5cc8249adc428c5f44c9063b9734b4"
          ],
          "data": "0x00000000000000000000000000000000000000000000002827c9880bc40ddfd1",
          "blockHash": "0x9ae25ba07d7c9e506d48cbc2b82452a519ebafd26f1e2e45b3d413b56c6c4f6c",
          "blockNumber": "0x73158c",
          "transactionHash": "0xe67dba63d8a8b201c6cea060f86378f7b873ecd795e0215db03fbc71888da9fb",
          "transactionIndex": "0xb8",
          "logIndex": "0x14d",
          "removed": false
        },
        {
          "address": "0x8aafd3ede9adb0ff97c7aebce82a919afb1c8764",
          "topics": [
            "0xddf252ad1be2c89b69c2b068fc378daa952ba7f163c4a11628f55a4df523b3ef",
            "0x0000000000000000000000000000000000000000000000000000000000000000",
            "0x000000000000000000000000c77f7fed3b5cc8249adc428c5f44c9063b9734b4"
          ],
          "data": "0x0000000000000000000000000000000000000000000000001f2e9afd53599590",
          "blockHash": "0x9ae25ba07d7c9e506d48cbc2b82452a519ebafd26f1e2e45b3d413b56c6c4f6c",
          "blockNumber": "0x73158c",
          "transactionHash": "0xe67dba63d8a8b201c6cea060f86378f7b873ecd795e0215db03fbc71888da9fb",
          "transactionIndex": "0xb8",
          "logIndex": "0x14e",
          "removed": false
        },
        {
          "address": "0x8aafd3ede9adb0ff97c7aebce82a919afb1c8764",
          "topics": [
            "0x4afcb4a87cdbd9974efdb92ee48bc8d7cd0ae4bf217004db3d080cbaee652ca7"
          ],
          "data": "0x00000000000000000000000000000000000000000000000000000000678fff3c0000000000000000000000000000000000000000000000000004bfa41add68aa0000000000000000000000000000000000000000000000000de0b6b3a7640000",
          "blockHash": "0x9ae25ba07d7c9e506d48cbc2b82452a519ebafd26f1e2e45b3d413b56c6c4f6c",
          "blockNumber": "0x73158c",
          "transactionHash": "0xe67dba63d8a8b201c6cea060f86378f7b873ecd795e0215db03fbc71888da9fb",
          "transactionIndex": "0xb8",
          "logIndex": "0x14f",
          "removed": false
        }
      ],
      "logsBloom": "0x00000000000000000000000000000000000000000600000000000000000000000000000000000000000000000000000000000000000000004000000000000000000000000000004000000008000000000000000000000000000000000000000000000000020000000000000000000800020000000000000000000010000000000000000000000000000000000000000000000000000000000000010000000000000000000000000000000000000000004000000000000000000000000000000000000002000000800000000000000000000000000000080000000000000020000000000000000000000000000000000000000000000000000000000000000000",
      "type": "0x2",
      "transactionHash": "0xe67dba63d8a8b201c6cea060f86378f7b873ecd795e0215db03fbc71888da9fb",
      "transactionIndex": "0xb8",
      "blockHash": "0x9ae25ba07d7c9e506d48cbc2b82452a519ebafd26f1e2e45b3d413b56c6c4f6c",
      "blockNumber": "0x73158c",
      "gasUsed": "0xf844",
      "effectiveGasPrice": "0x61d96f58",
      "from": "0xc77f7fed3b5cc8249adc428c5f44c9063b9734b4",
      "to": "0x8aafd3ede9adb0ff97c7aebce82a919afb1c8764",
      "contractAddress": null
    }
  ],
  "libraries": [],
  "pending": [],
  "returns": {},
  "timestamp": 1737490237,
  "chain": 11155111,
  "commit": "1d2fb70"
}