{
  "transactions": [
    {
      "hash": "0x02c8c88383af0785faf73f721a4fdb835ced65fa634cd43b4ff88c1f006ace4f",
      "transactionType": "CALL",
      "contractName": null,
      "contractAddress": "0x8aafd3ede9adb0ff97c7aebce82a919afb1c8764",
      "function": "sell(uint256)",
      "arguments": [
        "362011"
      ],
      "transaction": {
        "from": "0xc77f7fed3b5cc8249adc428c5f44c9063b9734b4",
        "to": "0x8aafd3ede9adb0ff97c7aebce82a919afb1c8764",
        "gas": "0x16208",
        "value": "0x0",
        "input": "0xe4849b32000000000000000000000000000000000000000000000000000000000005861b",
        "nonce": "0x162f",
        "chainId": "0xaa36a7"
      },
      "additionalContracts": [],
      "isFixedGasLimit": false
    }
  ],
  "receipts": [
    {
      "status": "0x1",
      "cumulativeGasUsed": "0x14f4dd0",
      "logs": [
        {
          "address": "0x8aafd3ede9adb0ff97c7aebce82a919afb1c8764",
          "topics": [
            "0xddf252ad1be2c89b69c2b068fc378daa952ba7f163c4a11628f55a4df523b3ef",
            "0x000000000000000000000000c77f7fed3b5cc8249adc428c5f44c9063b9734b4",
            "0x0000000000000000000000000000000000000000000000000000000000000000"
          ],
          "data": "0x0000000000000000000000000000000000000000000000000000000000057acb",
          "blockHash": "0xdcefc426b5e40b9fd656b18bad84237d828da93ac9266a5250eb85d4b7ea6207",
          "blockNumber": "0x731dc7",
          "transactionHash": "0x02c8c88383af0785faf73f721a4fdb835ced65fa634cd43b4ff88c1f006ace4f",
          "transactionIndex": "0x95",
          "logIndex": "0x135",
          "removed": false
        },
        {
          "address": "0x8aafd3ede9adb0ff97c7aebce82a919afb1c8764",
          "topics": [
            "0xddf252ad1be2c89b69c2b068fc378daa952ba7f163c4a11628f55a4df523b3ef",
            "0x000000000000000000000000c77f7fed3b5cc8249adc428c5f44c9063b9734b4",
            "0x000000000000000000000000c77f7fed3b5cc8249adc428c5f44c9063b9734b4"
          ],
          "data": "0x0000000000000000000000000000000000000000000000000000000000000b50",
          "blockHash": "0xdcefc426b5e40b9fd656b18bad84237d828da93ac9266a5250eb85d4b7ea6207",
          "blockNumber": "0x731dc7",
          "transactionHash": "0x02c8c88383af0785faf73f721a4fdb835ced65fa634cd43b4ff88c1f006ace4f",
          "transactionIndex": "0x95",
          "logIndex": "0x136",
          "removed": false
        },
        {
          "address": "0x8aafd3ede9adb0ff97c7aebce82a919afb1c8764",
          "topics": [
            "0x4afcb4a87cdbd9974efdb92ee48bc8d7cd0ae4bf217004db3d080cbaee652ca7"
          ],
          "data": "0x000000000000000000000000000000000000000000000000000000006790623c00000000000000000000000000000000000000000000000000148aabbc5df5b5000000000000000000000000000000000000000000000000000000000000082d",
          "blockHash": "0xdcefc426b5e40b9fd656b18bad84237d828da93ac9266a5250eb85d4b7ea6207",
          "blockNumber": "0x731dc7",
          "transactionHash": "0x02c8c88383af0785faf73f721a4fdb835ced65fa634cd43b4ff88c1f006ace4f",
          "transactionIndex": "0x95",
          "logIndex": "0x137",
          "removed": false
        }
      ],
      "logsBloom": "0x00000000000000000000000000000000000000000600000000000000000000000000000000000000000000000000000000000000000000004000000000000000000000000000004000000008000000000000000000000000000000000000000000000000020000000000000000000800020000000000000000000010000000000000000000000000000000000000000000000000000000000000010000000000000000000000000000000000000000004000000000000000000000000000000000000002000000800000000000000000000000000000080000000000000020000000000000000000000000000000000000000000000000000000000000000000",
      "type": "0x2",
      "transactionHash": "0x02c8c88383af0785faf73f721a4fdb835ced65fa634cd43b4ff88c1f006ace4f",
      "transactionIndex": "0x95",
      "blockHash": "0xdcefc426b5e40b9fd656b18bad84237d828da93ac9266a5250eb85d4b7ea6207",
      "blockNumber": "0x731dc7",
      "gasUsed": "0xf213",
      "effectiveGasPrice": "0x546f44db",
      "from": "0xc77f7fed3b5cc8249adc428c5f44c9063b9734b4",
      "to": "0x8aafd3ede9adb0ff97c7aebce82a919afb1c8764",
      "contractAddress": null
    }
  ],
  "libraries": [],
  "pending": [],
  "returns": {},
  "timestamp": 1737515581,
  "chain": 11155111,
  "commit": "1d2fb70"
}