{
  "transactions": [
    {
      "hash": "0xd332a7c021a46cbf4a13a4a5189e2f0261d39d75cd988c48d94fe2628724d1c2",
      "transactionType": "CALL",
      "contractName": null,
      "contractAddress": "0x8aafd3ede9adb0ff97c7aebce82a919afb1c8764",
      "function": "sell(uint256)",
      "arguments": [
        "43469362"
      ],
      "transaction": {
        "from": "0xc77f7fed3b5cc8249adc428c5f44c9063b9734b4",
        "to": "0x8aafd3ede9adb0ff97c7aebce82a919afb1c8764",
        "gas": "0x15d88",
        "value": "0x0",
        "input": "0xe4849b320000000000000000000000000000000000000000000000000000000002974a32",
        "nonce": "0x1676",
        "chainId": "0xaa36a7"
      },
      "additionalContracts": [],
      "isFixedGasLimit": false
    }
  ],
  "receipts": [
    {
      "status": "0x1",
      "cumulativeGasUsed": "0x73d9ae",
      "logs": [
        {
          "address": "0x8aafd3ede9adb0ff97c7aebce82a919afb1c8764",
          "topics": [
            "0xddf252ad1be2c89b69c2b068fc378daa952ba7f163c4a11628f55a4df523b3ef",
            "0x000000000000000000000000c77f7fed3b5cc8249adc428c5f44c9063b9734b4",
            "0x0000000000000000000000000000000000000000000000000000000000000000"
          ],
          "data": "0x000000000000000000000000000000000000000000000000000000000291fbc8",
          "blockHash": "0x949eeb020d80f9d2a750244aa1a4845b6d880fd2d53a645625b88925c3671a23",
          "blockNumber": "0x731e27",
          "transactionHash": "0xd332a7c021a46cbf4a13a4a5189e2f0261d39d75cd988c48d94fe2628724d1c2",
          "transactionIndex": "0x54",
          "logIndex": "0x76",
          "removed": false
        },
        {
          "address": "0x8aafd3ede9adb0ff97c7aebce82a919afb1c8764",
          "topics": [
            "0xddf252ad1be2c89b69c2b068fc378daa952ba7f163c4a11628f55a4df523b3ef",
            "0x000000000000000000000000c77f7fed3b5cc8249adc428c5f44c9063b9734b4",
            "0x000000000000000000000000c77f7fed3b5cc8249adc428c5f44c9063b9734b4"
          ],
          "data": "0x0000000000000000000000000000000000000000000000000000000000054e6a",
          "blockHash": "0x949eeb020d80f9d2a750244aa1a4845b6d880fd2d53a645625b88925c3671a23",
          "blockNumber": "0x731e27",
          "transactionHash": "0xd332a7c021a46cbf4a13a4a5189e2f0261d39d75cd988c48d94fe2628724d1c2",
          "transactionIndex": "0x54",
          "logIndex": "0x77",
          "removed": false
        },
        {
          "address": "0x8aafd3ede9adb0ff97c7aebce82a919afb1c8764",
          "topics": [
            "0x4afcb4a87cdbd9974efdb92ee48bc8d7cd0ae4bf217004db3d080cbaee652ca7"
          ],
          "data": "0x00000000000000000000000000000000000000000000000000000000679066bc00000000000000000000000000000000000000000000000000156136494a1429000000000000000000000000000000000000000000000000000000000003fdd8",
          "blockHash": "0x949eeb020d80f9d2a750244aa1a4845b6d880fd2d53a645625b88925c3671a23",
          "blockNumber": "0x731e27",
          "transactionHash": "0xd332a7c021a46cbf4a13a4a5189e2f0261d39d75cd988c48d94fe2628724d1c2",
          "transactionIndex": "0x54",
          "logIndex": "0x78",
          "removed": false
        }
      ],
      "logsBloom": "0x00000000000000000000000000000000000000000600000000000000000000000000000000000000000000000000000000000000000000004000000000000000000000000000004000000008000000000000000000000000000000000000000000000000020000000000000000000800020000000000000000000010000000000000000000000000000000000000000000000000000000000000010000000000000000000000000000000000000000004000000000000000000000000000000000000002000000800000000000000000000000000000080000000000000020000000000000000000000000000000000000000000000000000000000000000000",
      "type": "0x2",
      "transactionHash": "0xd332a7c021a46cbf4a13a4a5189e2f0261d39d75cd988c48d94fe2628724d1c2",
      "transactionIndex": "0x54",
      "blockHash": "0x949eeb020d80f9d2a750244aa1a4845b6d880fd2d53a645625b88925c3671a23",
      "blockNumber": "0x731e27",
      "gasUsed": "0xfd0f",
      "effectiveGasPrice": "0x46d73086",
      "from": "0xc77f7fed3b5cc8249adc428c5f44c9063b9734b4",
      "to": "0x8aafd3ede9adb0ff97c7aebce82a919afb1c8764",
      "contractAddress": null
    }
  ],
  "libraries": [],
  "pending": [],
  "returns": {},
  "timestamp": 1737516734,
  "chain": 11155111,
  "commit": "1d2fb70"
}