{
  "transactions": [
    {
      "hash": "0xbce68f6da9f9a4f783a59c5ed01be5f7ee8196e29075e9f412e17e578e29a857",
      "transactionType": "CALL",
      "contractName": null,
      "contractAddress": "0xbf4a322f1496e5c3d34a9bcdb4c60567b38c7de2",
      "function": "buy(address)",
      "arguments": [
        "0xC77f7fed3b5Cc8249aDc428c5F44C9063B9734b4"
      ],
      "transaction": {
        "from": "0xc77f7fed3b5cc8249adc428c5f44c9063b9734b4",
        "to": "0xbf4a322f1496e5c3d34a9bcdb4c60567b38c7de2",
        "gas": "0x1b309",
        "value": "0xde0b6b3a7640000",
        "input": "0xf088d547000000000000000000000000c77f7fed3b5cc8249adc428c5f44c9063b9734b4",
        "nonce": "0xd12",
        "chainId": "0xaa36a7"
      },
      "additionalContracts": [],
      "isFixedGasLimit": false
    }
  ],
  "receipts": [
    {
      "status": "0x1",
      "cumulativeGasUsed": "0xb173ea",
      "logs": [
        {
          "address": "0xbf4a322f1496e5c3d34a9bcdb4c60567b38c7de2",
          "topics": [
            "0xddf252ad1be2c89b69c2b068fc378daa952ba7f163c4a11628f55a4df523b3ef",
            "0x0000000000000000000000000000000000000000000000000000000000000000",
            "0x000000000000000000000000c77f7fed3b5cc8249adc428c5f44c9063b9734b4"
          ],
          "data": "0x000000000000000000000000000000000000000000000034c89fff8f0e5d2a3b",
          "blockHash": "0x9dd45fc96adbeeb59e564aa8d8466a30185b293792c29d615ef0f66520d1b906",
          "blockNumber": "0x725d6d",
          "transactionHash": "0xbce68f6da9f9a4f783a59c5ed01be5f7ee8196e29075e9f412e17e578e29a857",
          "transactionIndex": "0x5a",
          "logIndex": "0x72",
          "removed": false
        },
        {
          "address": "0xbf4a322f1496e5c3d34a9bcdb4c60567b38c7de2",
          "topics": [
            "0xddf252ad1be2c89b69c2b068fc378daa952ba7f163c4a11628f55a4df523b3ef",
            "0x0000000000000000000000000000000000000000000000000000000000000000",
            "0x000000000000000000000000c77f7fed3b5cc8249adc428c5f44c9063b9734b4"
          ],
          "data": "0x00000000000000000000000000000000000000000000000028fd03a3fecd15f0",
          "blockHash": "0x9dd45fc96adbeeb59e564aa8d8466a30185b293792c29d615ef0f66520d1b906",
          "blockNumber": "0x725d6d",
          "transactionHash": "0xbce68f6da9f9a4f783a59c5ed01be5f7ee8196e29075e9f412e17e578e29a857",
          "transactionIndex": "0x5a",
          "logIndex": "0x73",
          "removed": false
        },
        {
          "address": "0xbf4a322f1496e5c3d34a9bcdb4c60567b38c7de2",
          "topics": [
            "0x4afcb4a87cdbd9974efdb92ee48bc8d7cd0ae4bf217004db3d080cbaee652ca7"
          ],
          "data": "0x000000000000000000000000000000000000000000000000000000006787539000000000000000000000000000000000000000000000000000039cbdb86a17be0000000000000000000000000000000000000000000000000de0b6b3a7640000",
          "blockHash": "0x9dd45fc96adbeeb59e564aa8d8466a30185b293792c29d615ef0f66520d1b906",
          "blockNumber": "0x725d6d",
          "transactionHash": "0xbce68f6da9f9a4f783a59c5ed01be5f7ee8196e29075e9f412e17e578e29a857",
          "transactionIndex": "0x5a",
          "logIndex": "0x74",
          "removed": false
        }
      ],
      "logsBloom": "0x00000000000000000000000000000000000000000000000000000000000000000000000000000000000000000000000000000000000000004000000000000000000000000000000000000008000000000000001000000000000000000000000000000000020000000000000000000800020000000000000000000010000000000000000000000000000000000000000000000000000008000000010000000000000000000000000000000000000000004000000000000000000000000000000000000002000000800000000000001000000000000000080000000000000020000000000000000000000000000000000000000000000000000000000000000000",
      "type": "0x2",
      "transactionHash": "0xbce68f6da9f9a4f783a59c5ed01be5f7ee8196e29075e9f412e17e578e29a857",
      "transactionIndex": "0x5a",
      "blockHash": "0x9dd45fc96adbeeb59e564aa8d8466a30185b293792c29d615ef0f66520d1b906",
      "blockNumber": "0x725d6d",
      "gasUsed": "0x13af6",
      "effectiveGasPrice": "0x29b380479",
      "from": "0xc77f7fed3b5cc8249adc428c5f44c9063b9734b4",
      "to": "0xbf4a322f1496e5c3d34a9bcdb4c60567b38c7de2",
      "contractAddress": null
    }
  ],
  "libraries": [],
  "pending": [],
  "returns": {},
  "timestamp": 1736922001,
  "chain": 11155111,
  "commit": "51a374b"
}