{
  "transactions": [
    {
      "hash": "0x81b02b92f35881e399a724d0748517250942e29130cb4c989c74b91a63bc68ea",
      "transactionType": "CALL",
      "contractName": null,
      "contractAddress": "0xbf4a322f1496e5c3d34a9bcdb4c60567b38c7de2",
      "function": "sell(uint256)",
      "arguments": [
        "988463323198597933830"
      ],
      "transaction": {
        "from": "0xc77f7fed3b5cc8249adc428c5f44c9063b9734b4",
        "to": "0xbf4a322f1496e5c3d34a9bcdb4c60567b38c7de2",
        "gas": "0x16fea",
        "value": "0x0",
        "input": "0xe4849b3200000000000000000000000000000000000000000000003595af2b589290ab06",
        "nonce": "0x9a7",
        "chainId": "0xaa36a7"
      },
      "additionalContracts": [],
      "isFixedGasLimit": false
    }
  ],
  "receipts": [
    {
      "status": "0x1",
      "cumulativeGasUsed": "0x18a3d2f",
      "logs": [
        {
          "address": "0xbf4a322f1496e5c3d34a9bcdb4c60567b38c7de2",
          "topics": [
            "0xddf252ad1be2c89b69c2b068fc378daa952ba7f163c4a11628f55a4df523b3ef",
            "0x000000000000000000000000c77f7fed3b5cc8249adc428c5f44c9063b9734b4",
            "0x0000000000000000000000000000000000000000000000000000000000000000"
          ],
          "data": "0x00000000000000000000000000000000000000000000003595af2b589290ab06",
          "blockHash": "0xd59c064c857f77b96055e255cd8edad8e07e341e3cef4e021152d58971c32993",
          "blockNumber": "0x72594f",
          "transactionHash": "0x81b02b92f35881e399a724d0748517250942e29130cb4c989c74b91a63bc68ea",
          "transactionIndex": "0xe9",
          "logIndex": "0x14f",
          "removed": false
        },
        {
          "address": "0xbf4a322f1496e5c3d34a9bcdb4c60567b38c7de2",
          "topics": [
            "0x4afcb4a87cdbd9974efdb92ee48bc8d7cd0ae4bf217004db3d080cbaee652ca7"
          ],
          "data": "0x00000000000000000000000000000000000000000000000000000000678721e0000000000000000000000000000000000000000000000000000391b26bc5cfa20000000000000000000000000000000000000000000000000dc7e3f5be5b1468",
          "blockHash": "0xd59c064c857f77b96055e255cd8edad8e07e341e3cef4e021152d58971c32993",
          "blockNumber": "0x72594f",
          "transactionHash": "0x81b02b92f35881e399a724d0748517250942e29130cb4c989c74b91a63bc68ea",
          "transactionIndex": "0xe9",
          "logIndex": "0x150",
          "removed": false
        }
      ],
      "logsBloom": "0x00000000000000000000000000000000000000000000000000000000000000000000000000000000000000000000000000000000000000004000000000000000000000000000000000000008000000000000001000000000000000000000000000000000020000000000000000000800020000000000000000000010000000000000000000000000000000000000000000000000000008000000010000000000000000000000000000000000000000004000000000000000000000000000000000000002000000800000000000001000000000000000080000000000000020000000000000000000000000000000000000000000000000000000000000000000",
      "type": "0x2",
      "transactionHash": "0x81b02b92f35881e399a724d0748517250942e29130cb4c989c74b91a63bc68ea",
      "transactionIndex": "0xe9",
      "blockHash": "0xd59c064c857f77b96055e255cd8edad8e07e341e3cef4e021152d58971c32993",
      "blockNumber": "0x72594f",
      "gasUsed": "0xfb91",
      "effectiveGasPrice": "0x1bd65d805",
      "from": "0xc77f7fed3b5cc8249adc428c5f44c9063b9734b4",
      "to": "0xbf4a322f1496e5c3d34a9bcdb4c60567b38c7de2",
      "contractAddress": null
    }
  ],
  "libraries": [],
  "pending": [],
  "returns": {},
  "timestamp": 1736909282,
  "chain": 11155111,
  "commit": "51a374b"
}