{
  "transactions": [
    {
      "hash": "0xeb8c175e4531f543b26646132499d2959a80d1a11385d12690720a4c1f79736b",
      "transactionType": "CALL",
      "contractName": null,
      "contractAddress": "0x8aafd3ede9adb0ff97c7aebce82a919afb1c8764",
      "function": "sell(uint256)",
      "arguments": [
        "588269"
      ],
      "transaction": {
        "from": "0xc77f7fed3b5cc8249adc428c5f44c9063b9734b4",
        "to": "0x8aafd3ede9adb0ff97c7aebce82a919afb1c8764",
        "gas": "0x16208",
        "value": "0x0",
        "input": "0xe4849b32000000000000000000000000000000000000000000000000000000000008f9ed",
        "nonce": "0x1383",
        "chainId": "0xaa36a7"
      },
      "additionalContracts": [],
      "isFixedGasLimit": false
    }
  ],
  "receipts": [
    {
      "status": "0x1",
      "cumulativeGasUsed": "0x78f7f6",
      "logs": [
        {
          "address": "0x8aafd3ede9adb0ff97c7aebce82a919afb1c8764",
          "topics": [
            "0xddf252ad1be2c89b69c2b068fc378daa952ba7f163c4a11628f55a4df523b3ef",
            "0x000000000000000000000000c77f7fed3b5cc8249adc428c5f44c9063b9734b4",
            "0x0000000000000000000000000000000000000000000000000000000000000000"
          ],
          "data": "0x000000000000000000000000000000000000000000000000000000000008e78b",
          "blockHash": "0x1cab82cdbe1263bafe96db6751cd9845276a32bea9f388a0fdca903bcce1d008",
          "blockNumber": "0x731aa7",
          "transactionHash": "0xeb8c175e4531f543b26646132499d2959a80d1a11385d12690720a4c1f79736b",
          "transactionIndex": "0x44",
          "logIndex": "0x4d",
          "removed": false
        },
        {
          "address": "0x8aafd3ede9adb0ff97c7aebce82a919afb1c8764",
          "topics": [
            "0xddf252ad1be2c89b69c2b068fc378daa952ba7f163c4a11628f55a4df523b3ef",
            "0x000000000000000000000000c77f7fed3b5cc8249adc428c5f44c9063b9734b4",
            "0x000000000000000000000000c77f7fed3b5cc8249adc428c5f44c9063b9734b4"
          ],
          "data": "0x0000000000000000000000000000000000000000000000000000000000001262",
          "blockHash": "0x1cab82cdbe1263bafe96db6751cd9845276a32bea9f388a0fdca903bcce1d008",
          "blockNumber": "0x731aa7",
          "transactionHash": "0xeb8c175e4531f543b26646132499d2959a80d1a11385d12690720a4c1f79736b",
          "transactionIndex": "0x44",
          "logIndex": "0x4e",
          "removed": false
        },
        {
          "address": "0x8aafd3ede9adb0ff97c7aebce82a919afb1c8764",
          "topics": [
            "0x4afcb4a87cdbd9974efdb92ee48bc8d7cd0ae4bf217004db3d080cbaee652ca7"
          ],
          "data": "0x0000000000000000000000000000000000000000000000000000000067903ca4000000000000000000000000000000000000000000000000000cadb4f60e43560000000000000000000000000000000000000000000000000000000000000833",
          "blockHash": "0x1cab82cdbe1263bafe96db6751cd9845276a32bea9f388a0fdca903bcce1d008",
          "blockNumber": "0x731aa7",
          "transactionHash": "0xeb8c175e4531f543b26646132499d2959a80d1a11385d12690720a4c1f79736b",
          "transactionIndex": "0x44",
          "logIndex": "0x4f",
          "removed": false
        }
      ],
      "logsBloom": "0x00000000000000000000000000000000000000000600000000000000000000000000000000000000000000000000000000000000000000004000000000000000000000000000004000000008000000000000000000000000000000000000000000000000020000000000000000000800020000000000000000000010000000000000000000000000000000000000000000000000000000000000010000000000000000000000000000000000000000004000000000000000000000000000000000000002000000800000000000000000000000000000080000000000000020000000000000000000000000000000000000000000000000000000000000000000",
      "type": "0x2",
      "transactionHash": "0xeb8c175e4531f543b26646132499d2959a80d1a11385d12690720a4c1f79736b",
      "transactionIndex": "0x44",
      "blockHash": "0x1cab82cdbe1263bafe96db6751cd9845276a32bea9f388a0fdca903bcce1d008",
      "blockNumber": "0x731aa7",
      "gasUsed": "0xf213",
      "effectiveGasPrice": "0x7cf2b37f",
      "from": "0xc77f7fed3b5cc8249adc428c5f44c9063b9734b4",
      "to": "0x8aafd3ede9adb0ff97c7aebce82a919afb1c8764",
      "contractAddress": null
    }
  ],
  "libraries": [],
  "pending": [],
  "returns": {},
  "timestamp": 1737505957,
  "chain": 11155111,
  "commit": "1d2fb70"
}