{
  "transactions": [
    {
      "hash": "0xd33c30fe5186ce62060664a4739e93ab15023759033c694ce4faa2b1ba27b827",
      "transactionType": "CALL",
      "contractName": null,
      "contractAddress": "0x8aafd3ede9adb0ff97c7aebce82a919afb1c8764",
      "function": "sell(uint256)",
      "arguments": [
        "1443053"
      ],
      "transaction": {
        "from": "0xc77f7fed3b5cc8249adc428c5f44c9063b9734b4",
        "to": "0x8aafd3ede9adb0ff97c7aebce82a919afb1c8764",
        "gas": "0x16208",
        "value": "0x0",
        "input": "0xe4849b3200000000000000000000000000000000000000000000000000000000001604ed",
        "nonce": "0x119c",
        "chainId": "0xaa36a7"
      },
      "additionalContracts": [],
      "isFixedGasLimit": false
    }
  ],
  "receipts": [
    {
      "status": "0x1",
      "cumulativeGasUsed": "0xf8275f",
      "logs": [
        {
          "address": "0x8aafd3ede9adb0ff97c7aebce82a919afb1c8764",
          "topics": [
            "0xddf252ad1be2c89b69c2b068fc378daa952ba7f163c4a11628f55a4df523b3ef",
            "0x000000000000000000000000c77f7fed3b5cc8249adc428c5f44c9063b9734b4",
            "0x0000000000000000000000000000000000000000000000000000000000000000"
          ],
          "data": "0x000000000000000000000000000000000000000000000000000000000015d7d5",
          "blockHash": "0xf0301006e75b43bccccce3118c76cb5beef9922d6bb14fb6e54875295b39bd6f",
          "blockNumber": "0x731864",
          "transactionHash": "0xd33c30fe5186ce62060664a4739e93ab15023759033c694ce4faa2b1ba27b827",
          "transactionIndex": "0xba",
          "logIndex": "0xf7",
          "removed": false
        },
        {
          "address": "0x8aafd3ede9adb0ff97c7aebce82a919afb1c8764",
          "topics": [
            "0xddf252ad1be2c89b69c2b068fc378daa952ba7f163c4a11628f55a4df523b3ef",
            "0x000000000000000000000000c77f7fed3b5cc8249adc428c5f44c9063b9734b4",
            "0x000000000000000000000000c77f7fed3b5cc8249adc428c5f44c9063b9734b4"
          ],
          "data": "0x0000000000000000000000000000000000000000000000000000000000002d18",
          "blockHash": "0xf0301006e75b43bccccce3118c76cb5beef9922d6bb14fb6e54875295b39bd6f",
          "blockNumber": "0x731864",
          "transactionHash": "0xd33c30fe5186ce62060664a4739e93ab15023759033c694ce4faa2b1ba27b827",
          "transactionIndex": "0xba",
          "logIndex": "0xf8",
          "removed": false
        },
        {
          "address": "0x8aafd3ede9adb0ff97c7aebce82a919afb1c8764",
          "topics": [
            "0x4afcb4a87cdbd9974efdb92ee48bc8d7cd0ae4bf217004db3d080cbaee652ca7"
          ],
          "data": "0x0000000000000000000000000000000000000000000000000000000067902180000000000000000000000000000000000000000000000000000521f30ef397de0000000000000000000000000000000000000000000000000000000000000824",
          "blockHash": "0xf0301006e75b43bccccce3118c76cb5beef9922d6bb14fb6e54875295b39bd6f",
          "blockNumber": "0x731864",
          "transactionHash": "0xd33c30fe5186ce62060664a4739e93ab15023759033c694ce4faa2b1ba27b827",
          "transactionIndex": "0xba",
          "logIndex": "0xf9",
          "removed": false
        }
      ],
      "logsBloom": "0x00000000000000000000000000000000000000000600000000000000000000000000000000000000000000000000000000000000000000004000000000000000000000000000004000000008000000000000000000000000000000000000000000000000020000000000000000000800020000000000000000000010000000000000000000000000000000000000000000000000000000000000010000000000000000000000000000000000000000004000000000000000000000000000000000000002000000800000000000000000000000000000080000000000000020000000000000000000000000000000000000000000000000000000000000000000",
      "type": "0x2",
      "transactionHash": "0xd33c30fe5186ce62060664a4739e93ab15023759033c694ce4faa2b1ba27b827",
      "transactionIndex": "0xba",
      "blockHash": "0xf0301006e75b43bccccce3118c76cb5beef9922d6bb14fb6e54875295b39bd6f",
      "blockNumber": "0x731864",
      "gasUsed": "0xf213",
      "effectiveGasPrice": "0x35baa058",
      "from": "0xc77f7fed3b5cc8249adc428c5f44c9063b9734b4",
      "to": "0x8aafd3ede9adb0ff97c7aebce82a919afb1c8764",
      "contractAddress": null
    }
  ],
  "libraries": [],
  "pending": [],
  "returns": {},
  "timestamp": 1737499009,
  "chain": 11155111,
  "commit": "1d2fb70"
}