{
  "transactions": [
    {
      "hash": "0xb04cb330ccb328988a9ed5a6b911f915afd69f270e85ce5c7eb9e11c11ac20de",
      "transactionType": "CALL",
      "contractName": null,
      "contractAddress": "0x270e88f8683660553e8ba4eb2ad7c91a1710d769",
      "function": "sell(uint256)",
      "arguments": [
        "824867966722385856097"
      ],
      "transaction": {
        "from": "0xc77f7fed3b5cc8249adc428c5f44c9063b9734b4",
        "to": "0x270e88f8683660553e8ba4eb2ad7c91a1710d769",
        "gas": "0x16fec",
        "value": "0x0",
        "input": "0xe4849b3200000000000000000000000000000000000000000000002cb757b5656e8b4661",
        "nonce": "0x63d",
        "chainId": "0xaa36a7"
      },
      "additionalContracts": [],
      "isFixedGasLimit": false
    }
  ],
  "receipts": [
    {
      "status": "0x1",
      "cumulativeGasUsed": "0x143b54e",
      "logs": [
        {
          "address": "0x270e88f8683660553e8ba4eb2ad7c91a1710d769",
          "topics": [
            "0xddf252ad1be2c89b69c2b068fc378daa952ba7f163c4a11628f55a4df523b3ef",
            "0x000000000000000000000000c77f7fed3b5cc8249adc428c5f44c9063b9734b4",
            "0x0000000000000000000000000000000000000000000000000000000000000000"
          ],
          "data": "0x00000000000000000000000000000000000000000000002cb757b5656e8b4661",
          "blockHash": "0x8b0188dbe09ed930721e82d6329e23576d4f0bb048def5adeec2544ef43f6b2b",
          "blockNumber": "0x725326",
          "transactionHash": "0xb04cb330ccb328988a9ed5a6b911f915afd69f270e85ce5c7eb9e11c11ac20de",
          "transactionIndex": "0x5c",
          "logIndex": "0x95",
          "removed": false
        },
        {
          "address": "0x270e88f8683660553e8ba4eb2ad7c91a1710d769",
          "topics": [
            "0x4afcb4a87cdbd9974efdb92ee48bc8d7cd0ae4bf217004db3d080cbaee652ca7"
          ],
          "data": "0x000000000000000000000000000000000000000000000000000000006786d7d0000000000000000000000000000000000000000000000000000446e64eb7e3a40000000000000000000000000000000000000000000000000dc7e0f9afdbc895",
          "blockHash": "0x8b0188dbe09ed930721e82d6329e23576d4f0bb048def5adeec2544ef43f6b2b",
          "blockNumber": "0x725326",
          "transactionHash": "0xb04cb330ccb328988a9ed5a6b911f915afd69f270e85ce5c7eb9e11c11ac20de",
          "transactionIndex": "0x5c",
          "logIndex": "0x96",
          "removed": false
        }
      ],
      "logsBloom": "0x00000000000000000000000000000000000000000000000000000000000000000000000000000000000000000000000020000000000000004000000000000000000000000000000000000008000000000000000000000000000000000000000000000000020000000000000000000800020000000000000000000010000000000000000000010000000000000000000000000000000000000000010000000000000000000000000000000000000000004000000000000000000000000000000000000002000000800000000000000000000000000000080000008000000020000000000000000000000000000000000000000000000000000000000000000000",
      "type": "0x2",
      "transactionHash": "0xb04cb330ccb328988a9ed5a6b911f915afd69f270e85ce5c7eb9e11c11ac20de",
      "transactionIndex": "0x5c",
      "blockHash": "0x8b0188dbe09ed930721e82d6329e23576d4f0bb048def5adeec2544ef43f6b2b",
      "blockNumber": "0x725326",
      "gasUsed": "0xfb93",
      "effectiveGasPrice": "0x1d91d734e",
      "from": "0xc77f7fed3b5cc8249adc428c5f44c9063b9734b4",
      "to": "0x270e88f8683660553e8ba4eb2ad7c91a1710d769",
      "contractAddress": null
    }
  ],
  "libraries": [],
  "pending": [],
  "returns": {},
  "timestamp": 1736890321,
  "chain": 11155111,
  "commit": "51a374b"
}