{
  "transactions": [
    {
      "hash": "0x7b5e51a9f5730a44abbfc9fa287472e67a77306a25cb3467f430d1fb1aa139ba",
      "transactionType": "CALL",
      "contractName": null,
      "contractAddress": "0x8aafd3ede9adb0ff97c7aebce82a919afb1c8764",
      "function": "sell(uint256)",
      "arguments": [
        "12438"
      ],
      "transaction": {
        "from": "0xc77f7fed3b5cc8249adc428c5f44c9063b9734b4",
        "to": "0x8aafd3ede9adb0ff97c7aebce82a919afb1c8764",
        "gas": "0x14e4c",
        "value": "0x0",
        "input": "0xe4849b320000000000000000000000000000000000000000000000000000000000003096",
        "nonce": "0xf8d",
        "chainId": "0xaa36a7"
      },
      "additionalContracts": [],
      "isFixedGasLimit": false
    }
  ],
  "receipts": [
    {
      "status": "0x1",
      "cumulativeGasUsed": "0x1121801",
      "logs": [
        {
          "address": "0x8aafd3ede9adb0ff97c7aebce82a919afb1c8764",
          "topics": [
            "0xddf252ad1be2c89b69c2b068fc378daa952ba7f163c4a11628f55a4df523b3ef",
            "0x000000000000000000000000c77f7fed3b5cc8249adc428c5f44c9063b9734b4",
            "0x0000000000000000000000000000000000000000000000000000000000000000"
          ],
          "data": "0x0000000000000000000000000000000000000000000000000000000000003033",
          "blockHash": "0x93f703d28a395ea2822797b91fad70ad43792668e257d748efab3129ba5c7a30",
          "blockNumber": "0x7315f2",
          "transactionHash": "0x7b5e51a9f5730a44abbfc9fa287472e67a77306a25cb3467f430d1fb1aa139ba",
          "transactionIndex": "0x95",
          "logIndex": "0xe9",
          "removed": false
        },
        {
          "address": "0x8aafd3ede9adb0ff97c7aebce82a919afb1c8764",
          "topics": [
            "0xddf252ad1be2c89b69c2b068fc378daa952ba7f163c4a11628f55a4df523b3ef",
            "0x000000000000000000000000c77f7fed3b5cc8249adc428c5f44c9063b9734b4",
            "0x000000000000000000000000c77f7fed3b5cc8249adc428c5f44c9063b9734b4"
          ],
          "data": "0x0000000000000000000000000000000000000000000000000000000000000063",
          "blockHash": "0x93f703d28a395ea2822797b91fad70ad43792668e257d748efab3129ba5c7a30",
          "blockNumber": "0x7315f2",
          "transactionHash": "0x7b5e51a9f5730a44abbfc9fa287472e67a77306a25cb3467f430d1fb1aa139ba",
          "transactionIndex": "0x95",
          "logIndex": "0xea",
          "removed": false
        },
        {
          "address": "0x8aafd3ede9adb0ff97c7aebce82a919afb1c8764",
          "topics": [
            "0x4afcb4a87cdbd9974efdb92ee48bc8d7cd0ae4bf217004db3d080cbaee652ca7"
          ],
          "data": "0x00000000000000000000000000000000000000000000000000000000679004040000000000000000000000000000000000000000000000000004c27f5aa1b8390000000000000000000000000000000000000000000000000000000000000010",
          "blockHash": "0x93f703d28a395ea2822797b91fad70ad43792668e257d748efab3129ba5c7a30",
          "blockNumber": "0x7315f2",
          "transactionHash": "0x7b5e51a9f5730a44abbfc9fa287472e67a77306a25cb3467f430d1fb1aa139ba",
          "transactionIndex": "0x95",
          "logIndex": "0xeb",
          "removed": false
        }
      ],
      "logsBloom": "0x00000000000000000000000000000000000000000600000000000000000000000000000000000000000000000000000000000000000000004000000000000000000000000000004000000008000000000000000000000000000000000000000000000000020000000000000000000800020000000000000000000010000000000000000000000000000000000000000000000000000000000000010000000000000000000000000000000000000000004000000000000000000000000000000000000002000000800000000000000000000000000000080000000000000020000000000000000000000000000000000000000000000000000000000000000000",
      "type": "0x2",
      "transactionHash": "0x7b5e51a9f5730a44abbfc9fa287472e67a77306a25cb3467f430d1fb1aa139ba",
      "transactionIndex": "0x95",
      "blockHash": "0x93f703d28a395ea2822797b91fad70ad43792668e257d748efab3129ba5c7a30",
      "blockNumber": "0x7315f2",
      "gasUsed": "0xf207",
      "effectiveGasPrice": "0x6786ee3c",
      "from": "0xc77f7fed3b5cc8249adc428c5f44c9063b9734b4",
      "to": "0x8aafd3ede9adb0ff97c7aebce82a919afb1c8764",
      "contractAddress": null
    }
  ],
  "libraries": [],
  "pending": [],
  "returns": {},
  "timestamp": 1737491462,
  "chain": 11155111,
  "commit": "1d2fb70"
}