{
  "transactions": [
    {
      "hash": "0xa298dd01eefd8fad6063145c2eb5880086f776215037566cef706150203e2599",
      "transactionType": "CALL",
      "contractName": null,
      "contractAddress": "0x8aafd3ede9adb0ff97c7aebce82a919afb1c8764",
      "function": "sell(uint256)",
      "arguments": [
        "741168670002"
      ],
      "transaction": {
        "from": "0xc77f7fed3b5cc8249adc428c5f44c9063b9734b4",
        "to": "0x8aafd3ede9adb0ff97c7aebce82a919afb1c8764",
        "gas": "0x1722a",
        "value": "0x0",
        "input": "0xe4849b32000000000000000000000000000000000000000000000000000000ac91186532",
        "nonce": "0x15db",
        "chainId": "0xaa36a7"
      },
      "additionalContracts": [],
      "isFixedGasLimit": false
    }
  ],
  "receipts": [
    {
      "status": "0x1",
      "cumulativeGasUsed": "0xbc526e",
      "logs": [
        {
          "address": "0x8aafd3ede9adb0ff97c7aebce82a919afb1c8764",
          "topics": [
            "0xddf252ad1be2c89b69c2b068fc378daa952ba7f163c4a11628f55a4df523b3ef",
            "0x000000000000000000000000c77f7fed3b5cc8249adc428c5f44c9063b9734b4",
            "0x0000000000000000000000000000000000000000000000000000000000000000"
          ],
          "data": "0x000000000000000000000000000000000000000000000000000000ab2fadb442",
          "blockHash": "0xc509d5668b42964d4135d5d0abca510048069e23cbd4268693874480263776f6",
          "blockNumber": "0x731d5a",
          "transactionHash": "0xa298dd01eefd8fad6063145c2eb5880086f776215037566cef706150203e2599",
          "transactionIndex": "0x7b",
          "logIndex": "0xdd",
          "removed": false
        },
        {
          "address": "0x8aafd3ede9adb0ff97c7aebce82a919afb1c8764",
          "topics": [
            "0xddf252ad1be2c89b69c2b068fc378daa952ba7f163c4a11628f55a4df523b3ef",
            "0x000000000000000000000000c77f7fed3b5cc8249adc428c5f44c9063b9734b4",
            "0x000000000000000000000000c77f7fed3b5cc8249adc428c5f44c9063b9734b4"
          ],
          "data": "0x00000000000000000000000000000000000000000000000000000001616ab0f0",
          "blockHash": "0xc509d5668b42964d4135d5d0abca510048069e23cbd4268693874480263776f6",
          "blockNumber": "0x731d5a",
          "transactionHash": "0xa298dd01eefd8fad6063145c2eb5880086f776215037566cef706150203e2599",
          "transactionIndex": "0x7b",
          "logIndex": "0xde",
          "removed": false
        },
        {
          "address": "0x8aafd3ede9adb0ff97c7aebce82a919afb1c8764",
          "topics": [
            "0x4afcb4a87cdbd9974efdb92ee48bc8d7cd0ae4bf217004db3d080cbaee652ca7"
          ],
          "data": "0x0000000000000000000000000000000000000000000000000000000067905d20000000000000000000000000000000000000000000000000001399ccb4c1d65500000000000000000000000000000000000000000000000000000000f3bb117a",
          "blockHash": "0xc509d5668b42964d4135d5d0abca510048069e23cbd4268693874480263776f6",
          "blockNumber": "0x731d5a",
          "transactionHash": "0xa298dd01eefd8fad6063145c2eb5880086f776215037566cef706150203e2599",
          "transactionIndex": "0x7b",
          "logIndex": "0xdf",
          "removed": false
        }
      ],
      "logsBloom": "0x00000000000000000000000000000000000000000600000000000000000000000000000000000000000000000000000000000000000000004000000000000000000000000000004000000008000000000000000000000000000000000000000000000000020000000000000000000800020000000000000000000010000000000000000000000000000000000000000000000000000000000000010000000000000000000000000000000000000000004000000000000000000000000000000000000002000000800000000000000000000000000000080000000000000020000000000000000000000000000000000000000000000000000000000000000000",
      "type": "0x2",
      "transactionHash": "0xa298dd01eefd8fad6063145c2eb5880086f776215037566cef706150203e2599",
      "transactionIndex": "0x7b",
      "blockHash": "0xc509d5668b42964d4135d5d0abca510048069e23cbd4268693874480263776f6",
      "blockNumber": "0x731d5a",
      "gasUsed": "0xfd1b",
      "effectiveGasPrice": "0x5a2ea635",
      "from": "0xc77f7fed3b5cc8249adc428c5f44c9063b9734b4",
      "to": "0x8aafd3ede9adb0ff97c7aebce82a919afb1c8764",
      "contractAddress": null
    }
  ],
  "libraries": [],
  "pending": [],
  "returns": {},
  "timestamp": 1737514272,
  "chain": 11155111,
  "commit": "1d2fb70"
}