{
  "transactions": [
    {
      "hash": "0xc5217216398c3569f7058d56fa49ad6eadcddb291dda18ebbb34a45b8432932d",
      "transactionType": "CALL",
      "contractName": null,
      "contractAddress": "0x8aafd3ede9adb0ff97c7aebce82a919afb1c8764",
      "function": "sell(uint256)",
      "arguments": [
        "2872511369673"
      ],
      "transaction": {
        "from": "0xc77f7fed3b5cc8249adc428c5f44c9063b9734b4",
        "to": "0x8aafd3ede9adb0ff97c7aebce82a919afb1c8764",
        "gas": "0x15daa",
        "value": "0x0",
        "input": "0xe4849b320000000000000000000000000000000000000000000000000000029ccf0511c9",
        "nonce": "0x10ef",
        "chainId": "0xaa36a7"
      },
      "additionalContracts": [],
      "isFixedGasLimit": false
    }
  ],
  "receipts": [
    {
      "status": "0x1",
      "cumulativeGasUsed": "0xf991ca",
      "logs": [
        {
          "address": "0x8aafd3ede9adb0ff97c7aebce82a919afb1c8764",
          "topics": [
            "0xddf252ad1be2c89b69c2b068fc378daa952ba7f163c4a11628f55a4df523b3ef",
            "0x000000000000000000000000c77f7fed3b5cc8249adc428c5f44c9063b9734b4",
            "0x0000000000000000000000000000000000000000000000000000000000000000"
          ],
          "data": "0x00000000000000000000000000000000000000000000000000000297754cb57c",
          "blockHash": "0x37b8a8e74342350352ed58e9f331bb8b3246dfc50b43c37b16771f59751324ee",
          "blockNumber": "0x731795",
          "transactionHash": "0xc5217216398c3569f7058d56fa49ad6eadcddb291dda18ebbb34a45b8432932d",
          "transactionIndex": "0x92",
          "logIndex": "0xcc",
          "removed": false
        },
        {
          "address": "0x8aafd3ede9adb0ff97c7aebce82a919afb1c8764",
          "topics": [
            "0xddf252ad1be2c89b69c2b068fc378daa952ba7f163c4a11628f55a4df523b3ef",
            "0x000000000000000000000000c77f7fed3b5cc8249adc428c5f44c9063b9734b4",
            "0x000000000000000000000000c77f7fed3b5cc8249adc428c5f44c9063b9734b4"
          ],
          "data": "0x0000000000000000000000000000000000000000000000000000000559b85c4d",
          "blockHash": "0x37b8a8e74342350352ed58e9f331bb8b3246dfc50b43c37b16771f59751324ee",
          "blockNumber": "0x731795",
          "transactionHash": "0xc5217216398c3569f7058d56fa49ad6eadcddb291dda18ebbb34a45b8432932d",
          "transactionIndex": "0x92",
          "logIndex": "0xcd",
          "removed": false
        },
        {
          "address": "0x8aafd3ede9adb0ff97c7aebce82a919afb1c8764",
          "topics": [
            "0x4afcb4a87cdbd9974efdb92ee48bc8d7cd0ae4bf217004db3d080cbaee652ca7"
          ],
          "data": "0x00000000000000000000000000000000000000000000000000000000679017c000000000000000000000000000000000000000000000000000050941056c5e5f00000000000000000000000000000000000000000000000000000000f2b4afe3",
          "blockHash": "0x37b8a8e74342350352ed58e9f331bb8b3246dfc50b43c37b16771f59751324ee",
          "blockNumber": "0x731795",
          "transactionHash": "0xc5217216398c3569f7058d56fa49ad6eadcddb291dda18ebbb34a45b8432932d",
          "transactionIndex": "0x92",
          "logIndex": "0xce",
          "removed": false
        }
      ],
      "logsBloom": "0x00000000000000000000000000000000000000000600000000000000000000000000000000000000000000000000000000000000000000004000000000000000000000000000004000000008000000000000000000000000000000000000000000000000020000000000000000000800020000000000000000000010000000000000000000000000000000000000000000000000000000000000010000000000000000000000000000000000000000004000000000000000000000000000000000000002000000800000000000000000000000000000080000000000000020000000000000000000000000000000000000000000000000000000000000000000",
      "type": "0x2",
      "transactionHash": "0xc5217216398c3569f7058d56fa49ad6eadcddb291dda18ebbb34a45b8432932d",
      "transactionIndex": "0x92",
      "blockHash": "0x37b8a8e74342350352ed58e9f331bb8b3246dfc50b43c37b16771f59751324ee",
      "blockNumber": "0x731795",
      "gasUsed": "0xfd27",
      "effectiveGasPrice": "0x44aea074",
      "from": "0xc77f7fed3b5cc8249adc428c5f44c9063b9734b4",
      "to": "0x8aafd3ede9adb0ff97c7aebce82a919afb1c8764",
      "contractAddress": null
    }
  ],
  "libraries": [],
  "pending": [],
  "returns": {},
  "timestamp": 1737496512,
  "chain": 11155111,
  "commit": "1d2fb70"
}