{
  "transactions": [
    {
      "hash": "0xf957b4fe437ee3133dfdc7465e94b1f02a17e22e5779287a8a9bf938d4a2d953",
      "transactionType": "CALL",
      "contractName": null,
      "contractAddress": "0x8aafd3ede9adb0ff97c7aebce82a919afb1c8764",
      "function": "sell(uint256)",
      "arguments": [
        "403193"
      ],
      "transaction": {
        "from": "0xc77f7fed3b5cc8249adc428c5f44c9063b9734b4",
        "to": "0x8aafd3ede9adb0ff97c7aebce82a919afb1c8764",
        "gas": "0x16208",
        "value": "0x0",
        "input": "0xe4849b3200000000000000000000000000000000000000000000000000000000000626f9",
        "nonce": "0x157b",
        "chainId": "0xaa36a7"
      },
      "additionalContracts": [],
      "isFixedGasLimit": false
    }
  ],
  "receipts": [
    {
      "status": "0x1",
      "cumulativeGasUsed": "0xbb8a40",
      "logs": [
        {
          "address": "0x8aafd3ede9adb0ff97c7aebce82a919afb1c8764",
          "topics": [
            "0xddf252ad1be2c89b69c2b068fc378daa952ba7f163c4a11628f55a4df523b3ef",
            "0x000000000000000000000000c77f7fed3b5cc8249adc428c5f44c9063b9734b4",
            "0x0000000000000000000000000000000000000000000000000000000000000000"
          ],
          "data": "0x0000000000000000000000000000000000000000000000000000000000061a60",
          "blockHash": "0xfb35f73f3aba77a4d1cab3bb9aa814032f5393b39a80a1e4c2b092e72baaf3ad",
          "blockNumber": "0x731ce5",
          "transactionHash": "0xf957b4fe437ee3133dfdc7465e94b1f02a17e22e5779287a8a9bf938d4a2d953",
          "transactionIndex": "0xa0",
          "logIndex": "0xd0",
          "removed": false
        },
        {
          "address": "0x8aafd3ede9adb0ff97c7aebce82a919afb1c8764",
          "topics": [
            "0xddf252ad1be2c89b69c2b068fc378daa952ba7f163c4a11628f55a4df523b3ef",
            "0x000000000000000000000000c77f7fed3b5cc8249adc428c5f44c9063b9734b4",
            "0x000000000000000000000000c77f7fed3b5cc8249adc428c5f44c9063b9734b4"
          ],
          "data": "0x0000000000000000000000000000000000000000000000000000000000000c99",
          "blockHash": "0xfb35f73f3aba77a4d1cab3bb9aa814032f5393b39a80a1e4c2b092e72baaf3ad",
          "blockNumber": "0x731ce5",
          "transactionHash": "0xf957b4fe437ee3133dfdc7465e94b1f02a17e22e5779287a8a9bf938d4a2d953",
          "transactionIndex": "0xa0",
          "logIndex": "0xd1",
          "removed": false
        },
        {
          "address": "0x8aafd3ede9adb0ff97c7aebce82a919afb1c8764",
          "topics": [
            "0x4afcb4a87cdbd9974efdb92ee48bc8d7cd0ae4bf217004db3d080cbaee652ca7"
          ],
          "data": "0x00000000000000000000000000000000000000000000000000000000679057a400000000000000000000000000000000000000000000000000127428d9f7076b000000000000000000000000000000000000000000000000000000000000082e",
          "blockHash": "0xfb35f73f3aba77a4d1cab3bb9aa814032f5393b39a80a1e4c2b092e72baaf3ad",
          "blockNumber": "0x731ce5",
          "transactionHash": "0xf957b4fe437ee3133dfdc7465e94b1f02a17e22e5779287a8a9bf938d4a2d953",
          "transactionIndex": "0xa0",
          "logIndex": "0xd2",
          "removed": false
        }
      ],
      "logsBloom": "0x00000000000000000000000000000000000000000600000000000000000000000000000000000000000000000000000000000000000000004000000000000000000000000000004000000008000000000000000000000000000000000000000000000000020000000000000000000800020000000000000000000010000000000000000000000000000000000000000000000000000000000000010000000000000000000000000000000000000000004000000000000000000000000000000000000002000000800000000000000000000000000000080000000000000020000000000000000000000000000000000000000000000000000000000000000000",
      "type": "0x2",
      "transactionHash": "0xf957b4fe437ee3133dfdc7465e94b1f02a17e22e5779287a8a9bf938d4a2d953",
      "transactionIndex": "0xa0",
      "blockHash": "0xfb35f73f3aba77a4d1cab3bb9aa814032f5393b39a80a1e4c2b092e72baaf3ad",
      "blockNumber": "0x731ce5",
      "gasUsed": "0xf213",
      "effectiveGasPrice": "0x85a3ab29",
      "from": "0xc77f7fed3b5cc8249adc428c5f44c9063b9734b4",
      "to": "0x8aafd3ede9adb0ff97c7aebce82a919afb1c8764",
      "contractAddress": null
    }
  ],
  "libraries": [],
  "pending": [],
  "returns": {},
  "timestamp": 1737512869,
  "chain": 11155111,
  "commit": "1d2fb70"
}