{
  "transactions": [
    {
      "hash": "0xec7ffcb59e55116f0411dccdfaafe80bff0ed0e4b0d3482eca836d3d2977595c",
      "transactionType": "CALL",
      "contractName": null,
      "contractAddress": "0xbf4a322f1496e5c3d34a9bcdb4c60567b38c7de2",
      "function": "buy(address)",
      "arguments": [
        "0xC77f7fed3b5Cc8249aDc428c5F44C9063B9734b4"
      ],
      "transaction": {
        "from": "0xc77f7fed3b5cc8249adc428c5f44c9063b9734b4",
        "to": "0xbf4a322f1496e5c3d34a9bcdb4c60567b38c7de2",
        "gas": "0x1b309",
        "value": "0xde0b6b3a7640000",
        "input": "0xf088d547000000000000000000000000c77f7fed3b5cc8249adc428c5f44c9063b9734b4",
        "nonce": "0xb62",
        "chainId": "0xaa36a7"
      },
      "additionalContracts": [],
      "isFixedGasLimit": false
    }
  ],
  "receipts": [
    {
      "status": "0x1",
      "cumulativeGasUsed": "0x1821307",
      "logs": [
        {
          "address": "0xbf4a322f1496e5c3d34a9bcdb4c60567b38c7de2",
          "topics": [
            "0xddf252ad1be2c89b69c2b068fc378daa952ba7f163c4a11628f55a4df523b3ef",
            "0x0000000000000000000000000000000000000000000000000000000000000000",
            "0x000000000000000000000000c77f7fed3b5cc8249adc428c5f44c9063b9734b4"
          ],
          "data": "0x00000000000000000000000000000000000000000000003518ccd98ef1649ed5",
          "blockHash": "0xa0acd233c39ea08a5e5cd4a4ed82753c9ac8daae3d6049525c088498aa20aa82",
          "blockNumber": "0x725b6d",
          "transactionHash": "0xec7ffcb59e55116f0411dccdfaafe80bff0ed0e4b0d3482eca836d3d2977595c",
          "transactionIndex": "0x71",
          "logIndex": "0xb0",
          "removed": false
        },
        {
          "address": "0xbf4a322f1496e5c3d34a9bcdb4c60567b38c7de2",
          "topics": [
            "0xddf252ad1be2c89b69c2b068fc378daa952ba7f163c4a11628f55a4df523b3ef",
            "0x0000000000000000000000000000000000000000000000000000000000000000",
            "0x000000000000000000000000c77f7fed3b5cc8249adc428c5f44c9063b9734b4"
          ],
          "data": "0x000000000000000000000000000000000000000000000000293b45e35045ca1b",
          "blockHash": "0xa0acd233c39ea08a5e5cd4a4ed82753c9ac8daae3d6049525c088498aa20aa82",
          "blockNumber": "0x725b6d",
          "transactionHash": "0xec7ffcb59e55116f0411dccdfaafe80bff0ed0e4b0d3482eca836d3d2977595c",
          "transactionIndex": "0x71",
          "logIndex": "0xb1",
          "removed": false
        },
        {
          "address": "0xbf4a322f1496e5c3d34a9bcdb4c60567b38c7de2",
          "topics": [
            "0x4afcb4a87cdbd9974efdb92ee48bc8d7cd0ae4bf217004db3d080cbaee652ca7"
          ],
          "data": "0x0000000000000000000000000000000000000000000000000000000067873b780000000000000000000000000000000000000000000000000003974964d3b8d60000000000000000000000000000000000000000000000000de0b6b3a7640000",
          "blockHash": "0xa0acd233c39ea08a5e5cd4a4ed82753c9ac8daae3d6049525c088498aa20aa82",
          "blockNumber": "0x725b6d",
          "transactionHash": "0xec7ffcb59e55116f0411dccdfaafe80bff0ed0e4b0d3482eca836d3d2977595c",
          "transactionIndex": "0x71",
          "logIndex": "0xb2",
          "removed": false
        }
      ],
      "logsBloom": "0x00000000000000000000000000000000000000000000000000000000000000000000000000000000000000000000000000000000000000004000000000000000000000000000000000000008000000000000001000000000000000000000000000000000020000000000000000000800020000000000000000000010000000000000000000000000000000000000000000000000000008000000010000000000000000000000000000000000000000004000000000000000000000000000000000000002000000800000000000001000000000000000080000000000000020000000000000000000000000000000000000000000000000000000000000000000",
      "type": "0x2",
      "transactionHash": "0xec7ffcb59e55116f0411dccdfaafe80bff0ed0e4b0d3482eca836d3d2977595c",
      "transactionIndex": "0x71",
      "blockHash": "0xa0acd233c39ea08a5e5cd4a4ed82753c9ac8daae3d6049525c088498aa20aa82",
      "blockNumber": "0x725b6d",
      "gasUsed": "0x13af6",
      "effectiveGasPrice": "0x3d967ea5",
      "from": "0xc77f7fed3b5cc8249adc428c5f44c9063b9734b4",
      "to": "0xbf4a322f1496e5c3d34a9bcdb4c60567b38c7de2",
      "contractAddress": null
    }
  ],
  "libraries": [],
  "pending": [],
  "returns": {},
  "timestamp": 1736915834,
  "chain": 11155111,
  "commit": "51a374b"
}