{
  "transactions": [
    {
      "hash": "0xebe57d5098f54ec54b33ef8b6db0063f181d3c489487f1a8e409290a63c6269c",
      "transactionType": "CALL",
      "contractName": null,
      "contractAddress": "0xbf4a322f1496e5c3d34a9bcdb4c60567b38c7de2",
      "function": "sell(uint256)",
      "arguments": [
        "984057398735797654441"
      ],
      "transaction": {
        "from": "0xc77f7fed3b5cc8249adc428c5f44c9063b9734b4",
        "to": "0xbf4a322f1496e5c3d34a9bcdb4c60567b38c7de2",
        "gas": "0x16fea",
        "value": "0x0",
        "input": "0xe4849b32000000000000000000000000000000000000000000000035588a2e64022693a9",
        "nonce": "0xaeb",
        "chainId": "0xaa36a7"
      },
      "additionalContracts": [],
      "isFixedGasLimit": false
    }
  ],
  "receipts": [
    {
      "status": "0x1",
      "cumulativeGasUsed": "0x1bcfadc",
      "logs": [
        {
          "address": "0xbf4a322f1496e5c3d34a9bcdb4c60567b38c7de2",
          "topics": [
            "0xddf252ad1be2c89b69c2b068fc378daa952ba7f163c4a11628f55a4df523b3ef",
            "0x000000000000000000000000c77f7fed3b5cc8249adc428c5f44c9063b9734b4",
            "0x0000000000000000000000000000000000000000000000000000000000000000"
          ],
          "data": "0x000000000000000000000000000000000000000000000035588a2e64022693a9",
          "blockHash": "0x376ed53c61b82c8f7e323e985ee95a62a2ae7c06ed09f530501469dc81bfdab8",
          "blockNumber": "0x725adf",
          "transactionHash": "0xebe57d5098f54ec54b33ef8b6db0063f181d3c489487f1a8e409290a63c6269c",
          "transactionIndex": "0x10b",
          "logIndex": "0x17c",
          "removed": false
        },
        {
          "address": "0xbf4a322f1496e5c3d34a9bcdb4c60567b38c7de2",
          "topics": [
            "0x4afcb4a87cdbd9974efdb92ee48bc8d7cd0ae4bf217004db3d080cbaee652ca7"
          ],
          "data": "0x00000000000000000000000000000000000000000000000000000000678734c4000000000000000000000000000000000000000000000000000395c9a98bfcbb0000000000000000000000000000000000000000000000000dc7e3eb7ff5ebec",
          "blockHash": "0x376ed53c61b82c8f7e323e985ee95a62a2ae7c06ed09f530501469dc81bfdab8",
          "blockNumber": "0x725adf",
          "transactionHash": "0xebe57d5098f54ec54b33ef8b6db0063f181d3c489487f1a8e409290a63c6269c",
          "transactionIndex": "0x10b",
          "logIndex": "0x17d",
          "removed": false
        }
      ],
      "logsBloom": "0x00000000000000000000000000000000000000000000000000000000000000000000000000000000000000000000000000000000000000004000000000000000000000000000000000000008000000000000001000000000000000000000000000000000020000000000000000000800020000000000000000000010000000000000000000000000000000000000000000000000000008000000010000000000000000000000000000000000000000004000000000000000000000000000000000000002000000800000000000001000000000000000080000000000000020000000000000000000000000000000000000000000000000000000000000000000",
      "type": "0x2",
      "transactionHash": "0xebe57d5098f54ec54b33ef8b6db0063f181d3c489487f1a8e409290a63c6269c",
      "transactionIndex": "0x10b",
      "blockHash": "0x376ed53c61b82c8f7e323e985ee95a62a2ae7c06ed09f530501469dc81bfdab8",
      "blockNumber": "0x725adf",
      "gasUsed": "0xfb91",
      "effectiveGasPrice": "0x90d495a2",
      "from": "0xc77f7fed3b5cc8249adc428c5f44c9063b9734b4",
      "to": "0xbf4a322f1496e5c3d34a9bcdb4c60567b38c7de2",
      "contractAddress": null
    }
  ],
  "libraries": [],
  "pending": [],
  "returns": {},
  "timestamp": 1736914118,
  "chain": 11155111,
  "commit": "51a374b"
}