{
  "transactions": [
    {
      "hash": "0x7b8094abdf58987a6d1e5760df71b84fb620975070540c66610cac38dc9c59f4",
      "transactionType": "CALL",
      "contractName": null,
      "contractAddress": "0xbf4a322f1496e5c3d34a9bcdb4c60567b38c7de2",
      "function": "sell(uint256)",
      "arguments": [
        "977708708356962405247"
      ],
      "transaction": {
        "from": "0xc77f7fed3b5cc8249adc428c5f44c9063b9734b4",
        "to": "0xbf4a322f1496e5c3d34a9bcdb4c60567b38c7de2",
        "gas": "0x15b68",
        "value": "0x0",
        "input": "0xe4849b32000000000000000000000000000000000000000000000035006f1a20bebc4b7f",
        "nonce": "0xcc3",
        "chainId": "0xaa36a7"
      },
      "additionalContracts": [],
      "isFixedGasLimit": false
    }
  ],
  "receipts": [
    {
      "status": "0x1",
      "cumulativeGasUsed": "0x173b3e2",
      "logs": [
        {
          "address": "0xbf4a322f1496e5c3d34a9bcdb4c60567b38c7de2",
          "topics": [
            "0xddf252ad1be2c89b69c2b068fc378daa952ba7f163c4a11628f55a4df523b3ef",
            "0x000000000000000000000000c77f7fed3b5cc8249adc428c5f44c9063b9734b4",
            "0x0000000000000000000000000000000000000000000000000000000000000000"
          ],
          "data": "0x000000000000000000000000000000000000000000000035006f1a20bebc4b7f",
          "blockHash": "0x23d5b32407528821e63ea95893b7c2bef7adbb396ec58c3e168a2d038740b986",
          "blockNumber": "0x725d13",
          "transactionHash": "0x7b8094abdf58987a6d1e5760df71b84fb620975070540c66610cac38dc9c59f4",
          "transactionIndex": "0xae",
          "logIndex": "0x118",
          "removed": false
        },
        {
          "address": "0xbf4a322f1496e5c3d34a9bcdb4c60567b38c7de2",
          "topics": [
            "0x4afcb4a87cdbd9974efdb92ee48bc8d7cd0ae4bf217004db3d080cbaee652ca7"
          ],
          "data": "0x0000000000000000000000000000000000000000000000000000000067874f5800000000000000000000000000000000000000000000000000039bbf46fa31db0000000000000000000000000000000000000000000000000dc7e3dcbd2d92af",
          "blockHash": "0x23d5b32407528821e63ea95893b7c2bef7adbb396ec58c3e168a2d038740b986",
          "blockNumber": "0x725d13",
          "transactionHash": "0x7b8094abdf58987a6d1e5760df71b84fb620975070540c66610cac38dc9c59f4",
          "transactionIndex": "0xae",
          "logIndex": "0x119",
          "removed": false
        }
      ],
      "logsBloom": "0x00000000000000000000000000000000000000000000000000000000000000000000000000000000000000000000000000000000000000004000000000000000000000000000000000000008000000000000001000000000000000000000000000000000020000000000000000000800020000000000000000000010000000000000000000000000000000000000000000000000000008000000010000000000000000000000000000000000000000004000000000000000000000000000000000000002000000800000000000001000000000000000080000000000000020000000000000000000000000000000000000000000000000000000000000000000",
      "type": "0x2",
      "transactionHash": "0x7b8094abdf58987a6d1e5760df71b84fb620975070540c66610cac38dc9c59f4",
      "transactionIndex": "0xae",
      "blockHash": "0x23d5b32407528821e63ea95893b7c2bef7adbb396ec58c3e168a2d038740b986",
      "blockNumber": "0x725d13",
      "gasUsed": "0xfb85",
      "effectiveGasPrice": "0x25e36986e",
      "from": "0xc77f7fed3b5cc8249adc428c5f44c9063b9734b4",
      "to": "0xbf4a322f1496e5c3d34a9bcdb4c60567b38c7de2",
      "contractAddress": null
    }
  ],
  "libraries": [],
  "pending": [],
  "returns": {},
  "timestamp": 1736920922,
  "chain": 11155111,
  "commit": "51a374b"
}