{
  "transactions": [
    {
      "hash": "0xcc121cb02d8692e29f753c6b9ee4b3eadbec40722468feda39c6c63810ca18e0",
      "transactionType": "CALL",
      "contractName": null,
      "contractAddress": "0x8aafd3ede9adb0ff97c7aebce82a919afb1c8764",
      "function": "sell(uint256)",
      "arguments": [
        "5916734583797516839"
      ],
      "transaction": {
        "from": "0xc77f7fed3b5cc8249adc428c5f44c9063b9734b4",
        "to": "0x8aafd3ede9adb0ff97c7aebce82a919afb1c8764",
        "gas": "0x15dca",
        "value": "0x0",
        "input": "0xe4849b32000000000000000000000000000000000000000000000000521c76c179850a27",
        "nonce": "0xfe0",
        "chainId": "0xaa36a7"
      },
      "additionalContracts": [],
      "isFixedGasLimit": false
    }
  ],
  "receipts": [
    {
      "status": "0x1",
      "cumulativeGasUsed": "0xc98983",
      "logs": [
        {
          "address": "0x8aafd3ede9adb0ff97c7aebce82a919afb1c8764",
          "topics": [
            "0xddf252ad1be2c89b69c2b068fc378daa952ba7f163c4a11628f55a4df523b3ef",
            "0x000000000000000000000000c77f7fed3b5cc8249adc428c5f44c9063b9734b4",
            "0x0000000000000000000000000000000000000000000000000000000000000000"
          ],
          "data": "0x00000000000000000000000000000000000000000000000051744cd880bd51c1",
          "blockHash": "0x102ad9751d6b1ee5fae206cd51b44939613150321db486b6d7ffdd6390a1d708",
          "blockNumber": "0x731652",
          "transactionHash": "0xcc121cb02d8692e29f753c6b9ee4b3eadbec40722468feda39c6c63810ca18e0",
          "transactionIndex": "0x80",
          "logIndex": "0x94",
          "removed": false
        },
        {
          "address": "0x8aafd3ede9adb0ff97c7aebce82a919afb1c8764",
          "topics": [
            "0xddf252ad1be2c89b69c2b068fc378daa952ba7f163c4a11628f55a4df523b3ef",
            "0x000000000000000000000000c77f7fed3b5cc8249adc428c5f44c9063b9734b4",
            "0x000000000000000000000000c77f7fed3b5cc8249adc428c5f44c9063b9734b4"
          ],
          "data": "0x00000000000000000000000000000000000000000000000000a829e8f8c7b866",
          "blockHash": "0x102ad9751d6b1ee5fae206cd51b44939613150321db486b6d7ffdd6390a1d708",
          "blockNumber": "0x731652",
          "transactionHash": "0xcc121cb02d8692e29f753c6b9ee4b3eadbec40722468feda39c6c63810ca18e0",
          "transactionIndex": "0x80",
          "logIndex": "0x95",
          "removed": false
        },
        {
          "address": "0x8aafd3ede9adb0ff97c7aebce82a919afb1c8764",
          "topics": [
            "0x4afcb4a87cdbd9974efdb92ee48bc8d7cd0ae4bf217004db3d080cbaee652ca7"
          ],
          "data": "0x00000000000000000000000000000000000000000000000000000000679008840000000000000000000000000000000000000000000000000004c572df4498d1000000000000000000000000000000000000000000000000001c3afa181ee3ca",
          "blockHash": "0x102ad9751d6b1ee5fae206cd51b44939613150321db486b6d7ffdd6390a1d708",
          "blockNumber": "0x731652",
          "transactionHash": "0xcc121cb02d8692e29f753c6b9ee4b3eadbec40722468feda39c6c63810ca18e0",
          "transactionIndex": "0x80",
          "logIndex": "0x96",
          "removed": false
        }
      ],
      "logsBloom": "0x00000000000000000000000000000000000000000600000000000000000000000000000000000000000000000000000000000000000000004000000000000000000000000000004000000008000000000000000000000000000000000000000000000000020000000000000000000800020000000000000000000010000000000000000000000000000000000000000000000000000000000000010000000000000000000000000000000000000000004000000000000000000000000000000000000002000000800000000000000000000000000000080000000000000020000000000000000000000000000000000000000000000000000000000000000000",
      "type": "0x2",
      "transactionHash": "0xcc121cb02d8692e29f753c6b9ee4b3eadbec40722468feda39c6c63810ca18e0",
      "transactionIndex": "0x80",
      "blockHash": "0x102ad9751d6b1ee5fae206cd51b44939613150321db486b6d7ffdd6390a1d708",
      "blockNumber": "0x731652",
      "gasUsed": "0xfd3f",
      "effectiveGasPrice": "0x51c791af",
      "from": "0xc77f7fed3b5cc8249adc428c5f44c9063b9734b4",
      "to": "0x8aafd3ede9adb0ff97c7aebce82a919afb1c8764",
      "contractAddress": null
    }
  ],
  "libraries": [],
  "pending": [],
  "returns": {},
  "timestamp": 1737492613,
  "chain": 11155111,
  "commit": "1d2fb70"
}