{
  "transactions": [
    {
      "hash": "0x71cdfcd5c7024cc08effc63902bbcc5ad61e3f2bedcddc87c8d9dd90df838d2c",
      "transactionType": "CALL",
      "contractName": null,
      "contractAddress": "0x8aafd3ede9adb0ff97c7aebce82a919afb1c8764",
      "function": "buy(address)",
      "arguments": [
        "0xC77f7fed3b5Cc8249aDc428c5F44C9063B9734b4"
      ],
      "transaction": {
        "from": "0xc77f7fed3b5cc8249adc428c5f44c9063b9734b4",
        "to": "0x8aafd3ede9adb0ff97c7aebce82a919afb1c8764",
        "gas": "0x156ea",
        "value": "0xde0b6b3a7640000",
        "input": "0xf088d547000000000000000000000000c77f7fed3b5cc8249adc428c5f44c9063b9734b4",
        "nonce": "0x13f0",
        "chainId": "0xaa36a7"
      },
      "additionalContracts": [],
      "isFixedGasLimit": false
    }
  ],
  "receipts": [
    {
      "status": "0x1",
      "cumulativeGasUsed": "0x13cc8ee",
      "logs": [
        {
          "address": "0x8aafd3ede9adb0ff97c7aebce82a919afb1c8764",
          "topics": [
            "0xddf252ad1be2c89b69c2b068fc378daa952ba7f163c4a11628f55a4df523b3ef",
            "0x0000000000000000000000000000000000000000000000000000000000000000",
            "0x000000000000000000000000c77f7fed3b5cc8249adc428c5f44c9063b9734b4"
          ],
          "data": "0x00000000000000000000000000000000000000000000000db639de3141ec1fc6",
          "blockHash": "0x49d74147c137c4345ef6ec81ad5b4616ee1aba469084a2a998766a9cc9e55d63",
          "blockNumber": "0x731b22",
          "transactionHash": "0x71cdfcd5c7024cc08effc63902bbcc5ad61e3f2bedcddc87c8d9dd90df838d2c",
          "transactionIndex": "0xa4",
          "logIndex": "0x7f",
          "removed": false
        },
        {
          "address": "0x8aafd3ede9adb0ff97c7aebce82a919afb1c8764",
          "topics": [
            "0xddf252ad1be2c89b69c2b068fc378daa952ba7f163c4a11628f55a4df523b3ef",
            "0x0000000000000000000000000000000000000000000000000000000000000000",
            "0x000000000000000000000000c77f7fed3b5cc8249adc428c5f44c9063b9734b4"
          ],
          "data": "0x0000000000000000000000000000000000000000000000000aa5cf6d1adbbed6",
          "blockHash": "0x49d74147c137c4345ef6ec81ad5b4616ee1aba469084a2a998766a9cc9e55d63",
          "blockNumber": "0x731b22",
          "transactionHash": "0x71cdfcd5c7024cc08effc63902bbcc5ad61e3f2bedcddc87c8d9dd90df838d2c",
          "transactionIndex": "0xa4",
          "logIndex": "0x80",
          "removed": false
        },
        {
          "address": "0x8aafd3ede9adb0ff97c7aebce82a919afb1c8764",
          "topics": [
            "0x4afcb4a87cdbd9974efdb92ee48bc8d7cd0ae4bf217004db3d080cbaee652ca7"
          ],
          "data": "0x0000000000000000000000000000000000000000000000000000000067904268000000000000000000000000000000000000000000000000000dedf7189b00760000000000000000000000000000000000000000000000000de0b6b3a7640000",
          "blockHash": "0x49d74147c137c4345ef6ec81ad5b4616ee1aba469084a2a998766a9cc9e55d63",
          "blockNumber": "0x731b22",
          "transactionHash": "0x71cdfcd5c7024cc08effc63902bbcc5ad61e3f2bedcddc87c8d9dd90df838d2c",
          "transactionIndex": "0xa4",
          "logIndex": "0x81",
          "removed": false
        }
      ],
      "logsBloom": "0x00000000000000000000000000000000000000000600000000000000000000000000000000000000000000000000000000000000000000004000000000000000000000000000004000000008000000000000000000000000000000000000000000000000020000000000000000000800020000000000000000000010000000000000000000000000000000000000000000000000000000000000010000000000000000000000000000000000000000004000000000000000000000000000000000000002000000800000000000000000000000000000080000000000000020000000000000000000000000000000000000000000000000000000000000000000",
      "type": "0x2",
      "transactionHash": "0x71cdfcd5c7024cc08effc63902bbcc5ad61e3f2bedcddc87c8d9dd90df838d2c",
      "transactionIndex": "0xa4",
      "blockHash": "0x49d74147c137c4345ef6ec81ad5b4616ee1aba469084a2a998766a9cc9e55d63",
      "blockNumber": "0x731b22",
      "gasUsed": "0xf844",
      "effectiveGasPrice": "0x9309f3a1",
      "from": "0xc77f7fed3b5cc8249adc428c5f44c9063b9734b4",
      "to": "0x8aafd3ede9adb0ff97c7aebce82a919afb1c8764",
      "contractAddress": null
    }
  ],
  "libraries": [],
  "pending": [],
  "returns": {},
  "timestamp": 1737507433,
  "chain": 11155111,
  "commit": "1d2fb70"
}