{
  "transactions": [
    {
      "hash": "0xb900aa700ff6c6f29bc0fd5239950f999c3d8c2c33e1a1636fbe84c8c4fa8502",
      "transactionType": "CALL",
      "contractName": null,
      "contractAddress": "0x270e88f8683660553e8ba4eb2ad7c91a1710d769",
      "function": "buy(address)",
      "arguments": [
        "0xC77f7fed3b5Cc8249aDc428c5F44C9063B9734b4"
      ],
      "transaction": {
        "from": "0xc77f7fed3b5cc8249adc428c5f44c9063b9734b4",
        "to": "0x270e88f8683660553e8ba4eb2ad7c91a1710d769",
        "gas": "0x1b30c",
        "value": "0xde0b6b3a7640000",
        "input": "0xf088d547000000000000000000000000c77f7fed3b5cc8249adc428c5f44c9063b9734b4",
        "nonce": "0x620",
        "chainId": "0xaa36a7"
      },
      "additionalContracts": [],
      "isFixedGasLimit": false
    }
  ],
  "receipts": [
    {
      "status": "0x1",
      "cumulativeGasUsed": "0x142f5fc",
      "logs": [
        {
          "address": "0x270e88f8683660553e8ba4eb2ad7c91a1710d769",
          "topics": [
            "0xddf252ad1be2c89b69c2b068fc378daa952ba7f163c4a11628f55a4df523b3ef",
            "0x0000000000000000000000000000000000000000000000000000000000000000",
            "0x000000000000000000000000c77f7fed3b5cc8249adc428c5f44c9063b9734b4"
          ],
          "data": "0x000000000000000000000000000000000000000000000032f28ed453a40e1798",
          "blockHash": "0x57300cda7b162ca79b2a75d5db258619f45489641410dc169e57f5c0598621ba",
          "blockNumber": "0x7252ef",
          "transactionHash": "0xb900aa700ff6c6f29bc0fd5239950f999c3d8c2c33e1a1636fbe84c8c4fa8502",
          "transactionIndex": "0x60",
          "logIndex": "0xc2",
          "removed": false
        },
        {
          "address": "0x270e88f8683660553e8ba4eb2ad7c91a1710d769",
          "topics": [
            "0xddf252ad1be2c89b69c2b068fc378daa952ba7f163c4a11628f55a4df523b3ef",
            "0x0000000000000000000000000000000000000000000000000000000000000000",
            "0x000000000000000000000000c77f7fed3b5cc8249adc428c5f44c9063b9734b4"
          ],
          "data": "0x000000000000000000000000000000000000000000000000278ffdb96b13b263",
          "blockHash": "0x57300cda7b162ca79b2a75d5db258619f45489641410dc169e57f5c0598621ba",
          "blockNumber": "0x7252ef",
          "transactionHash": "0xb900aa700ff6c6f29bc0fd5239950f999c3d8c2c33e1a1636fbe84c8c4fa8502",
          "transactionIndex": "0x60",
          "logIndex": "0xc3",
          "removed": false
        },
        {
          "address": "0x270e88f8683660553e8ba4eb2ad7c91a1710d769",
          "topics": [
            "0x4afcb4a87cdbd9974efdb92ee48bc8d7cd0ae4bf217004db3d080cbaee652ca7"
          ],
          "data": "0x000000000000000000000000000000000000000000000000000000006786d53c0000000000000000000000000000000000000000000000000003be2a2a14a46c0000000000000000000000000000000000000000000000000de0b6b3a7640000",
          "blockHash": "0x57300cda7b162ca79b2a75d5db258619f45489641410dc169e57f5c0598621ba",
          "blockNumber": "0x7252ef",
          "transactionHash": "0xb900aa700ff6c6f29bc0fd5239950f999c3d8c2c33e1a1636fbe84c8c4fa8502",
          "transactionIndex": "0x60",
          "logIndex": "0xc4",
          "removed": false
        }
      ],
      "logsBloom": "0x00000000000000000000000000000000000000000000000000000000000000000000000000000000000000000000000020000000000000004000000000000000000000000000000000000008000000000000000000000000000000000000000000000000020000000000000000000800020000000000000000000010000000000000000000010000000000000000000000000000000000000000010000000000000000000000000000000000000000004000000000000000000000000000000000000002000000800000000000000000000000000000080000008000000020000000000000000000000000000000000000000000000000000000000000000000",
      "type": "0x2",
      "transactionHash": "0xb900aa700ff6c6f29bc0fd5239950f999c3d8c2c33e1a1636fbe84c8c4fa8502",
      "transactionIndex": "0x60",
      "blockHash": "0x57300cda7b162ca79b2a75d5db258619f45489641410dc169e57f5c0598621ba",
      "blockNumber": "0x7252ef",
      "gasUsed": "0x13af8",
      "effectiveGasPrice": "0x2772bf3b4",
      "from": "0xc77f7fed3b5cc8249adc428c5f44c9063b9734b4",
      "to": "0x270e88f8683660553e8ba4eb2ad7c91a1710d769",
      "contractAddress": null
    }
  ],
  "libraries": [],
  "pending": [],
  "returns": {},
  "timestamp": 1736889661,
  "chain": 11155111,
  "commit": "51a374b"
}