{
  "transactions": [
    {
      "hash": "0x567f92f9cdbe5b722d46eee4a7892ae875c2548e2626b09c3c296782afb20d83",
      "transactionType": "CALL",
      "contractName": null,
      "contractAddress": "0x5eb9cc76c3506942c1c0ead70e877dd5e4f00cb0",
      "function": "sell(uint256)",
      "arguments": [
        "989153544698234845200"
      ],
      "transaction": {
        "from": "0xc77f7fed3b5cc8249adc428c5f44c9063b9734b4",
        "to": "0x5eb9cc76c3506942c1c0ead70e877dd5e4f00cb0",
        "gas": "0x16fec",
        "value": "0x0",
        "input": "0xe4849b320000000000000000000000000000000000000000000000359f43542498c2b810",
        "nonce": "0x2b1",
        "chainId": "0xaa36a7"
      },
      "additionalContracts": [],
      "isFixedGasLimit": false
    }
  ],
  "receipts": [
    {
      "status": "0x1",
      "cumulativeGasUsed": "0x7ca2d4",
      "logs": [
        {
          "address": "0x5eb9cc76c3506942c1c0ead70e877dd5e4f00cb0",
          "topics": [
            "0xddf252ad1be2c89b69c2b068fc378daa952ba7f163c4a11628f55a4df523b3ef",
            "0x000000000000000000000000c77f7fed3b5cc8249adc428c5f44c9063b9734b4",
            "0x0000000000000000000000000000000000000000000000000000000000000000"
          ],
          "data": "0x0000000000000000000000000000000000000000000000359f43542498c2b810",
          "blockHash": "0xa93ba3caf2216676d709fc49568cadcdf3ec9b64c4d3dea2524f67bc9feb1b60",
          "blockNumber": "0x724e8c",
          "transactionHash": "0x567f92f9cdbe5b722d46eee4a7892ae875c2548e2626b09c3c296782afb20d83",
          "transactionIndex": "0x38",
          "logIndex": "0x6b",
          "removed": false
        },
        {
          "address": "0x5eb9cc76c3506942c1c0ead70e877dd5e4f00cb0",
          "topics": [
            "0x4afcb4a87cdbd9974efdb92ee48bc8d7cd0ae4bf217004db3d080cbaee652ca7"
          ],
          "data": "0x000000000000000000000000000000000000000000000000000000006786a04400000000000000000000000000000000000000000000000000039108d19cc5de0000000000000000000000000000000000000000000000000dc7db133246b95f",
          "blockHash": "0xa93ba3caf2216676d709fc49568cadcdf3ec9b64c4d3dea2524f67bc9feb1b60",
          "blockNumber": "0x724e8c",
          "transactionHash": "0x567f92f9cdbe5b722d46eee4a7892ae875c2548e2626b09c3c296782afb20d83",
          "transactionIndex": "0x38",
          "logIndex": "0x6c",
          "removed": false
        }
      ],
      "logsBloom": "0x00000000000000000000000000000000000000000000000000000000000000000000000000000000000000000000000000000000000000004000000000000000000000000000000000000008000000000000000000000000000000000000000000000000020000000000000004000800020000000000000000000010000000000000000000000000000000000000000000000000000000000000010000000000000000000000000000000000000000004000000000000000000000000000020000000002000000800000008000000000000000000000080000000000000020000000000000000000000000000000000000000000000000000000000000000000",
      "type": "0x2",
      "transactionHash": "0x567f92f9cdbe5b722d46eee4a7892ae875c2548e2626b09c3c296782afb20d83",
      "transactionIndex": "0x38",
      "blockHash": "0xa93ba3caf2216676d709fc49568cadcdf3ec9b64c4d3dea2524f67bc9feb1b60",
      "blockNumber": "0x724e8c",
      "gasUsed": "0xfb93",
      "effectiveGasPrice": "0x4ae55e39b",
      "from": "0xc77f7fed3b5cc8249adc428c5f44c9063b9734b4",
      "to": "0x5eb9cc76c3506942c1c0ead70e877dd5e4f00cb0",
      "contractAddress": null
    }
  ],
  "libraries": [],
  "pending": [],
  "returns": {},
  "timestamp": 1736876101,
  "chain": 11155111,
  "commit": "51a374b"
}