{
  "transactions": [
    {
      "hash": "0x7d3a56dee56e0dc1c1034542ade488f159779534a6957be2a61d001d5b3c2ad0",
      "transactionType": "CALL",
      "contractName": null,
      "contractAddress": "0xbf4a322f1496e5c3d34a9bcdb4c60567b38c7de2",
      "function": "sell(uint256)",
      "arguments": [
        "981734369572134764525"
      ],
      "transaction": {
        "from": "0xc77f7fed3b5cc8249adc428c5f44c9063b9734b4",
        "to": "0xbf4a322f1496e5c3d34a9bcdb4c60567b38c7de2",
        "gas": "0x16fea",
        "value": "0x0",
        "input": "0xe4849b32000000000000000000000000000000000000000000000035384d1fac9b26bfed",
        "nonce": "0xb97",
        "chainId": "0xaa36a7"
      },
      "additionalContracts": [],
      "isFixedGasLimit": false
    }
  ],
  "receipts": [
    {
      "status": "0x1",
      "cumulativeGasUsed": "0xbc4c56",
      "logs": [
        {
          "address": "0xbf4a322f1496e5c3d34a9bcdb4c60567b38c7de2",
          "topics": [
            "0xddf252ad1be2c89b69c2b068fc378daa952ba7f163c4a11628f55a4df523b3ef",
            "0x000000000000000000000000c77f7fed3b5cc8249adc428c5f44c9063b9734b4",
            "0x0000000000000000000000000000000000000000000000000000000000000000"
          ],
          "data": "0x000000000000000000000000000000000000000000000035384d1fac9b26bfed",
          "blockHash": "0x65846841a0a3927b5878d509a74b451af5460fc07798e1d8a1041df9017d76b0",
          "blockNumber": "0x725ba9",
          "transactionHash": "0x7d3a56dee56e0dc1c1034542ade488f159779534a6957be2a61d001d5b3c2ad0",
          "transactionIndex": "0x57",
          "logIndex": "0x68",
          "removed": false
        },
        {
          "address": "0xbf4a322f1496e5c3d34a9bcdb4c60567b38c7de2",
          "topics": [
            "0x4afcb4a87cdbd9974efdb92ee48bc8d7cd0ae4bf217004db3d080cbaee652ca7"
          ],
          "data": "0x0000000000000000000000000000000000000000000000000000000067873e48000000000000000000000000000000000000000000000000000397f59b2d22630000000000000000000000000000000000000000000000000dc7e3e6194945fa",
          "blockHash": "0x65846841a0a3927b5878d509a74b451af5460fc07798e1d8a1041df9017d76b0",
          "blockNumber": "0x725ba9",
          "transactionHash": "0x7d3a56dee56e0dc1c1034542ade488f159779534a6957be2a61d001d5b3c2ad0",
          "transactionIndex": "0x57",
          "logIndex": "0x69",
          "removed": false
        }
      ],
      "logsBloom": "0x00000000000000000000000000000000000000000000000000000000000000000000000000000000000000000000000000000000000000004000000000000000000000000000000000000008000000000000001000000000000000000000000000000000020000000000000000000800020000000000000000000010000000000000000000000000000000000000000000000000000008000000010000000000000000000000000000000000000000004000000000000000000000000000000000000002000000800000000000001000000000000000080000000000000020000000000000000000000000000000000000000000000000000000000000000000",
      "type": "0x2",
      "transactionHash": "0x7d3a56dee56e0dc1c1034542ade488f159779534a6957be2a61d001d5b3c2ad0",
      "transactionIndex": "0x57",
      "blockHash": "0x65846841a0a3927b5878d509a74b451af5460fc07798e1d8a1041df9017d76b0",
      "blockNumber": "0x725ba9",
      "gasUsed": "0xfb91",
      "effectiveGasPrice": "0x4ff40cb7",
      "from": "0xc77f7fed3b5cc8249adc428c5f44c9063b9734b4",
      "to": "0xbf4a322f1496e5c3d34a9bcdb4c60567b38c7de2",
      "contractAddress": null
    }
  ],
  "libraries": [],
  "pending": [],
  "returns": {},
  "timestamp": 1736916555,
  "chain": 11155111,
  "commit": "51a374b"
}