{
  "transactions": [
    {
      "hash": "0xdd02a324b473e9d9c51256ff53ee9c2b077d43ec3567312601bb3dd6fdd9eb11",
      "transactionType": "CALL",
      "contractName": null,
      "contractAddress": "0x8aafd3ede9adb0ff97c7aebce82a919afb1c8764",
      "function": "buy(address)",
      "arguments": [
        "0xC77f7fed3b5Cc8249aDc428c5F44C9063B9734b4"
      ],
      "transaction": {
        "from": "0xc77f7fed3b5cc8249adc428c5f44c9063b9734b4",
        "to": "0x8aafd3ede9adb0ff97c7aebce82a919afb1c8764",
        "gas": "0x156ea",
        "value": "0xde0b6b3a7640000",
        "input": "0xf088d547000000000000000000000000c77f7fed3b5cc8249adc428c5f44c9063b9734b4",
        "nonce": "0x1654",
        "chainId": "0xaa36a7"
      },
      "additionalContracts": [],
      "isFixedGasLimit": false
    }
  ],
  "receipts": [
    {
      "status": "0x1",
      "cumulativeGasUsed": "0x19fe78c",
      "logs": [
        {
          "address": "0x8aafd3ede9adb0ff97c7aebce82a919afb1c8764",
          "topics": [
            "0xddf252ad1be2c89b69c2b068fc378daa952ba7f163c4a11628f55a4df523b3ef",
            "0x0000000000000000000000000000000000000000000000000000000000000000",
            "0x000000000000000000000000c77f7fed3b5cc8249adc428c5f44c9063b9734b4"
          ],
          "data": "0x00000000000000000000000000000000000000000000000918b35dcbeccd5aad",
          "blockHash": "0x5a91ffd989e521f8745f2f3a7f875e2613ec4de6f5becd457b8edaa2c2a7c19d",
          "blockNumber": "0x731df3",
          "transactionHash": "0xdd02a324b473e9d9c51256ff53ee9c2b077d43ec3567312601bb3dd6fdd9eb11",
          "transactionIndex": "0x9f",
          "logIndex": "0xf8",
          "removed": false
        },
        {
          "address": "0x8aafd3ede9adb0ff97c7aebce82a919afb1c8764",
          "topics": [
            "0xddf252ad1be2c89b69c2b068fc378daa952ba7f163c4a11628f55a4df523b3ef",
            "0x0000000000000000000000000000000000000000000000000000000000000000",
            "0x000000000000000000000000c77f7fed3b5cc8249adc428c5f44c9063b9734b4"
          ],
          "data": "0x000000000000000000000000000000000000000000000000071050c3b70a6e37",
          "blockHash": "0x5a91ffd989e521f8745f2f3a7f875e2613ec4de6f5becd457b8edaa2c2a7c19d",
          "blockNumber": "0x731df3",
          "transactionHash": "0xdd02a324b473e9d9c51256ff53ee9c2b077d43ec3567312601bb3dd6fdd9eb11",
          "transactionIndex": "0x9f",
          "logIndex": "0xf9",
          "removed": false
        },
        {
          "address": "0x8aafd3ede9adb0ff97c7aebce82a919afb1c8764",
          "topics": [
            "0x4afcb4a87cdbd9974efdb92ee48bc8d7cd0ae4bf217004db3d080cbaee652ca7"
          ],
          "data": "0x000000000000000000000000000000000000000000000000000000006790644c0000000000000000000000000000000000000000000000000014fca9b838dde70000000000000000000000000000000000000000000000000de0b6b3a7640000",
          "blockHash": "0x5a91ffd989e521f8745f2f3a7f875e2613ec4de6f5becd457b8edaa2c2a7c19d",
          "blockNumber": "0x731df3",
          "transactionHash": "0xdd02a324b473e9d9c51256ff53ee9c2b077d43ec3567312601bb3dd6fdd9eb11",
          "transactionIndex": "0x9f",
          "logIndex": "0xfa",
          "removed": false
        }
      ],
      "logsBloom": "0x00000000000000000000000000000000000000000600000000000000000000000000000000000000000000000000000000000000000000004000000000000000000000000000004000000008000000000000000000000000000000000000000000000000020000000000000000000800020000000000000000000010000000000000000000000000000000000000000000000000000000000000010000000000000000000000000000000000000000004000000000000000000000000000000000000002000000800000000000000000000000000000080000000000000020000000000000000000000000000000000000000000000000000000000000000000",
      "type": "0x2",
      "transactionHash": "0xdd02a324b473e9d9c51256ff53ee9c2b077d43ec3567312601bb3dd6fdd9eb11",
      "transactionIndex": "0x9f",
      "blockHash": "0x5a91ffd989e521f8745f2f3a7f875e2613ec4de6f5becd457b8edaa2c2a7c19d",
      "blockNumber": "0x731df3",
      "gasUsed": "0xf844",
      "effectiveGasPrice": "0x4644b6d2",
      "from": "0xc77f7fed3b5cc8249adc428c5f44c9063b9734b4",
      "to": "0x8aafd3ede9adb0ff97c7aebce82a919afb1c8764",
      "contractAddress": null
    }
  ],
  "libraries": [],
  "pending": [],
  "returns": {},
  "timestamp": 1737516109,
  "chain": 11155111,
  "commit": "1d2fb70"
}