{
  "transactions": [
    {
      "hash": "0x841039102c01c31343e393a3603e1433a13594af5febe9259fbcde486535a32d",
      "transactionType": "CALL",
      "contractName": null,
      "contractAddress": "0x270e88f8683660553e8ba4eb2ad7c91a1710d769",
      "function": "sell(uint256)",
      "arguments": [
        "983824679226214864572"
      ],
      "transaction": {
        "from": "0xc77f7fed3b5cc8249adc428c5f44c9063b9734b4",
        "to": "0x270e88f8683660553e8ba4eb2ad7c91a1710d769",
        "gas": "0x16fec",
        "value": "0x0",
        "input": "0xe4849b32000000000000000000000000000000000000000000000035554f653acd2a56bc",
        "nonce": "0x50f",
        "chainId": "0xaa36a7"
      },
      "additionalContracts": [],
      "isFixedGasLimit": false
    }
  ],
  "receipts": [
    {
      "status": "0x1",
      "cumulativeGasUsed": "0x112a4a3",
      "logs": [
        {
          "address": "0x270e88f8683660553e8ba4eb2ad7c91a1710d769",
          "topics": [
            "0xddf252ad1be2c89b69c2b068fc378daa952ba7f163c4a11628f55a4df523b3ef",
            "0x000000000000000000000000c77f7fed3b5cc8249adc428c5f44c9063b9734b4",
            "0x0000000000000000000000000000000000000000000000000000000000000000"
          ],
          "data": "0x000000000000000000000000000000000000000000000035554f653acd2a56bc",
          "blockHash": "0xaa4229888cbfd7310a6b28a7e5df96c9175ff4dc443e75638c4e1f9ab8621215",
          "blockNumber": "0x7251a6",
          "transactionHash": "0x841039102c01c31343e393a3603e1433a13594af5febe9259fbcde486535a32d",
          "transactionIndex": "0x60",
          "logIndex": "0x109",
          "removed": false
        },
        {
          "address": "0x270e88f8683660553e8ba4eb2ad7c91a1710d769",
          "topics": [
            "0x4afcb4a87cdbd9974efdb92ee48bc8d7cd0ae4bf217004db3d080cbaee652ca7"
          ],
          "data": "0x000000000000000000000000000000000000000000000000000000006786c5ac00000000000000000000000000000000000000000000000000039645a8f1a9430000000000000000000000000000000000000000000000000dc841a22032cc9b",
          "blockHash": "0xaa4229888cbfd7310a6b28a7e5df96c9175ff4dc443e75638c4e1f9ab8621215",
          "blockNumber": "0x7251a6",
          "transactionHash": "0x841039102c01c31343e393a3603e1433a13594af5febe9259fbcde486535a32d",
          "transactionIndex": "0x60",
          "logIndex": "0x10a",
          "removed": false
        }
      ],
      "logsBloom": "0x00000000000000000000000000000000000000000000000000000000000000000000000000000000000000000000000020000000000000004000000000000000000000000000000000000008000000000000000000000000000000000000000000000000020000000000000000000800020000000000000000000010000000000000000000010000000000000000000000000000000000000000010000000000000000000000000000000000000000004000000000000000000000000000000000000002000000800000000000000000000000000000080000008000000020000000000000000000000000000000000000000000000000000000000000000000",
      "type": "0x2",
      "transactionHash": "0x841039102c01c31343e393a3603e1433a13594af5febe9259fbcde486535a32d",
      "transactionIndex": "0x60",
      "blockHash": "0xaa4229888cbfd7310a6b28a7e5df96c9175ff4dc443e75638c4e1f9ab8621215",
      "blockNumber": "0x7251a6",
      "gasUsed": "0xfb93",
      "effectiveGasPrice": "0x44955175c",
      "from": "0xc77f7fed3b5cc8249adc428c5f44c9063b9734b4",
      "to": "0x270e88f8683660553e8ba4eb2ad7c91a1710d769",
      "contractAddress": null
    }
  ],
  "libraries": [],
  "pending": [],
  "returns": {},
  "timestamp": 1736885677,
  "chain": 11155111,
  "commit": "51a374b"
}