{
  "transactions": [
    {
      "hash": "0x5fe18fe5b99f101352c75ac1add1621585e8a91e4141ccc535845ede3b948d64",
      "transactionType": "CALL",
      "contractName": null,
      "contractAddress": "0xd7bc75898e513accccf720a874d44dab5a4b6223",
      "function": "buy(address)",
      "arguments": [
        "0xC77f7fed3b5Cc8249aDc428c5F44C9063B9734b4"
      ],
      "transaction": {
        "from": "0xc77f7fed3b5cc8249adc428c5f44c9063b9734b4",
        "to": "0xd7bc75898e513accccf720a874d44dab5a4b6223",
        "gas": "0x1b30c",
        "value": "0x2386f26fc10000",
        "input": "0xf088d547000000000000000000000000c77f7fed3b5cc8249adc428c5f44c9063b9734b4",
        "nonce": "0xe6",
        "chainId": "0xaa36a7"
      },
      "additionalContracts": [],
      "isFixedGasLimit": false
    }
  ],
  "receipts": [
    {
      "status": "0x1",
      "cumulativeGasUsed": "0xb915b9",
      "logs": [
        {
          "address": "0xd7bc75898e513accccf720a874d44dab5a4b6223",
          "topics": [
            "0xddf252ad1be2c89b69c2b068fc378daa952ba7f163c4a11628f55a4df523b3ef",
            "0x0000000000000000000000000000000000000000000000000000000000000000",
            "0x000000000000000000000000c77f7fed3b5cc8249adc428c5f44c9063b9734b4"
          ],
          "data": "0x0000000000000000000000000000000000000000000000008963bad5b7bc6886",
          "blockHash": "0x51c5c3ec40c77bff4ab86962ce37b5cc64a3cdfc4168a5430c9b2eb67a1d3e87",
          "blockNumber": "0x723967",
          "transactionHash": "0x5fe18fe5b99f101352c75ac1add1621585e8a91e4141ccc535845ede3b948d64",
          "transactionIndex": "0x35",
          "logIndex": "0xdf",
          "removed": false
        },
        {
          "address": "0xd7bc75898e513accccf720a874d44dab5a4b6223",
          "topics": [
            "0xddf252ad1be2c89b69c2b068fc378daa952ba7f163c4a11628f55a4df523b3ef",
            "0x0000000000000000000000000000000000000000000000000000000000000000",
            "0x000000000000000000000000c77f7fed3b5cc8249adc428c5f44c9063b9734b4"
          ],
          "data": "0x000000000000000000000000000000000000000000000000006ab00c43e5fba4",
          "blockHash": "0x51c5c3ec40c77bff4ab86962ce37b5cc64a3cdfc4168a5430c9b2eb67a1d3e87",
          "blockNumber": "0x723967",
          "transactionHash": "0x5fe18fe5b99f101352c75ac1add1621585e8a91e4141ccc535845ede3b948d64",
          "transactionIndex": "0x35",
          "logIndex": "0xe0",
          "removed": false
        },
        {
          "address": "0xd7bc75898e513accccf720a874d44dab5a4b6223",
          "topics": [
            "0x4afcb4a87cdbd9974efdb92ee48bc8d7cd0ae4bf217004db3d080cbaee652ca7"
          ],
          "data": "0x000000000000000000000000000000000000000000000000000000006785a21c00000000000000000000000000000000000000000000000000038d7f8aa30e41000000000000000000000000000000000000000000000000002386f26fc10000",
          "blockHash": "0x51c5c3ec40c77bff4ab86962ce37b5cc64a3cdfc4168a5430c9b2eb67a1d3e87",
          "blockNumber": "0x723967",
          "transactionHash": "0x5fe18fe5b99f101352c75ac1add1621585e8a91e4141ccc535845ede3b948d64",
          "transactionIndex": "0x35",
          "logIndex": "0xe1",
          "removed": false
        }
      ],
      "logsBloom": "0x00000000000000000000000000000000000000000000000000000000000000000000000000000000000000000000000000000000000000004000000000000000000000000000000000000008000000000000000000000000000000000000000000000000020000000000000000000800020000000000000000000010000000000000000000000000000000000000000000000000000000000000010000000000000000000000000000000000000000004000001000000000000000000000000000000002000000800000000000004000000000000000080000000000000020000000000000000000000000000000000000000000080000000000000000000000",
      "type": "0x2",
      "transactionHash": "0x5fe18fe5b99f101352c75ac1add1621585e8a91e4141ccc535845ede3b948d64",
      "transactionIndex": "0x35",
      "blockHash": "0x51c5c3ec40c77bff4ab86962ce37b5cc64a3cdfc4168a5430c9b2eb67a1d3e87",
      "blockNumber": "0x723967",
      "gasUsed": "0x13af8",
      "effectiveGasPrice": "0x22e5432d",
      "from": "0xc77f7fed3b5cc8249adc428c5f44c9063b9734b4",
      "to": "0xd7bc75898e513accccf720a874d44dab5a4b6223",
      "contractAddress": null
    }
  ],
  "libraries": [],
  "pending": [],
  "returns": {},
  "timestamp": 1736811037,
  "chain": 11155111,
  "commit": "51a374b"
}