{
  "transactions": [
    {
      "hash": "0xeed850fe8fc50a11d3b0cbdf967f727c2e8afa99338d091af63c63373628691d",
      "transactionType": "CALL",
      "contractName": null,
      "contractAddress": "0xbf4a322f1496e5c3d34a9bcdb4c60567b38c7de2",
      "function": "sell(uint256)",
      "arguments": [
        "985983547218877051427"
      ],
      "transaction": {
        "from": "0xc77f7fed3b5cc8249adc428c5f44c9063b9734b4",
        "to": "0xbf4a322f1496e5c3d34a9bcdb4c60567b38c7de2",
        "gas": "0x16fea",
        "value": "0x0",
        "input": "0xe4849b3200000000000000000000000000000000000000000000003573453c3b18c17223",
        "nonce": "0xa5d",
        "chainId": "0xaa36a7"
      },
      "additionalContracts": [],
      "isFixedGasLimit": false
    }
  ],
  "receipts": [
    {
      "status": "0x1",
      "cumulativeGasUsed": "0xea19eb",
      "logs": [
        {
          "address": "0xbf4a322f1496e5c3d34a9bcdb4c60567b38c7de2",
          "topics": [
            "0xddf252ad1be2c89b69c2b068fc378daa952ba7f163c4a11628f55a4df523b3ef",
            "0x000000000000000000000000c77f7fed3b5cc8249adc428c5f44c9063b9734b4",
            "0x0000000000000000000000000000000000000000000000000000000000000000"
          ],
          "data": "0x00000000000000000000000000000000000000000000003573453c3b18c17223",
          "blockHash": "0xd1911788ed4461b009ecb2cd8dcdaa50c149da24eebb7ad98aff8399c99b8998",
          "blockNumber": "0x725a37",
          "transactionHash": "0xeed850fe8fc50a11d3b0cbdf967f727c2e8afa99338d091af63c63373628691d",
          "transactionIndex": "0x68",
          "logIndex": "0x8f",
          "removed": false
        },
        {
          "address": "0xbf4a322f1496e5c3d34a9bcdb4c60567b38c7de2",
          "topics": [
            "0x4afcb4a87cdbd9974efdb92ee48bc8d7cd0ae4bf217004db3d080cbaee652ca7"
          ],
          "data": "0x0000000000000000000000000000000000000000000000000000000067872ce4000000000000000000000000000000000000000000000000000393feaf9592fd0000000000000000000000000000000000000000000000000dc7e3effa6746b2",
          "blockHash": "0xd1911788ed4461b009ecb2cd8dcdaa50c149da24eebb7ad98aff8399c99b8998",
          "blockNumber": "0x725a37",
          "transactionHash": "0xeed850fe8fc50a11d3b0cbdf967f727c2e8afa99338d091af63c63373628691d",
          "transactionIndex": "0x68",
          "logIndex": "0x90",
          "removed": false
        }
      ],
      "logsBloom": "0x00000000000000000000000000000000000000000000000000000000000000000000000000000000000000000000000000000000000000004000000000000000000000000000000000000008000000000000001000000000000000000000000000000000020000000000000000000800020000000000000000000010000000000000000000000000000000000000000000000000000008000000010000000000000000000000000000000000000000004000000000000000000000000000000000000002000000800000000000001000000000000000080000000000000020000000000000000000000000000000000000000000000000000000000000000000",
      "type": "0x2",
      "transactionHash": "0xeed850fe8fc50a11d3b0cbdf967f727c2e8afa99338d091af63c63373628691d",
      "transactionIndex": "0x68",
      "blockHash": "0xd1911788ed4461b009ecb2cd8dcdaa50c149da24eebb7ad98aff8399c99b8998",
      "blockNumber": "0x725a37",
      "gasUsed": "0xfb91",
      "effectiveGasPrice": "0x470c30217",
      "from": "0xc77f7fed3b5cc8249adc428c5f44c9063b9734b4",
      "to": "0xbf4a322f1496e5c3d34a9bcdb4c60567b38c7de2",
      "contractAddress": null
    }
  ],
  "libraries": [],
  "pending": [],
  "returns": {},
  "timestamp": 1736912101,
  "chain": 11155111,
  "commit": "51a374b"
}