{
  "transactions": [
    {
      "hash": "0x73370eafa7be40de446c0dd39b27659fb50da0ca26b84200b297b980f11bd53f",
      "transactionType": "CALL",
      "contractName": null,
      "contractAddress": "0xbf4a322f1496e5c3d34a9bcdb4c60567b38c7de2",
      "function": "sell(uint256)",
      "arguments": [
        "977681981368458633444"
      ],
      "transaction": {
        "from": "0xc77f7fed3b5cc8249adc428c5f44c9063b9734b4",
        "to": "0xbf4a322f1496e5c3d34a9bcdb4c60567b38c7de2",
        "gas": "0x15b68",
        "value": "0x0",
        "input": "0xe4849b3200000000000000000000000000000000000000000000003500102612cf0d60e4",
        "nonce": "0xcc5",
        "chainId": "0xaa36a7"
      },
      "additionalContracts": [],
      "isFixedGasLimit": false
    }
  ],
  "receipts": [
    {
      "status": "0x1",
      "cumulativeGasUsed": "0x14138de",
      "logs": [
        {
          "address": "0xbf4a322f1496e5c3d34a9bcdb4c60567b38c7de2",
          "topics": [
            "0xddf252ad1be2c89b69c2b068fc378daa952ba7f163c4a11628f55a4df523b3ef",
            "0x000000000000000000000000c77f7fed3b5cc8249adc428c5f44c9063b9734b4",
            "0x0000000000000000000000000000000000000000000000000000000000000000"
          ],
          "data": "0x00000000000000000000000000000000000000000000003500102612cf0d60e4",
          "blockHash": "0x3ce126f0e69dbd89bede84ad7b5fd0398442ba4393ce2d44b107de74ffc6490a",
          "blockNumber": "0x725d15",
          "transactionHash": "0x73370eafa7be40de446c0dd39b27659fb50da0ca26b84200b297b980f11bd53f",
          "transactionIndex": "0xa7",
          "logIndex": "0xd9",
          "removed": false
        },
        {
          "address": "0xbf4a322f1496e5c3d34a9bcdb4c60567b38c7de2",
          "topics": [
            "0x4afcb4a87cdbd9974efdb92ee48bc8d7cd0ae4bf217004db3d080cbaee652ca7"
          ],
          "data": "0x0000000000000000000000000000000000000000000000000000000067874f7000000000000000000000000000000000000000000000000000039bc5bde265c50000000000000000000000000000000000000000000000000dc7e3dcad451134",
          "blockHash": "0x3ce126f0e69dbd89bede84ad7b5fd0398442ba4393ce2d44b107de74ffc6490a",
          "blockNumber": "0x725d15",
          "transactionHash": "0x73370eafa7be40de446c0dd39b27659fb50da0ca26b84200b297b980f11bd53f",
          "transactionIndex": "0xa7",
          "logIndex": "0xda",
          "removed": false
        }
      ],
      "logsBloom": "0x00000000000000000000000000000000000000000000000000000000000000000000000000000000000000000000000000000000000000004000000000000000000000000000000000000008000000000000001000000000000000000000000000000000020000000000000000000800020000000000000000000010000000000000000000000000000000000000000000000000000008000000010000000000000000000000000000000000000000004000000000000000000000000000000000000002000000800000000000001000000000000000080000000000000020000000000000000000000000000000000000000000000000000000000000000000",
      "type": "0x2",
      "transactionHash": "0x73370eafa7be40de446c0dd39b27659fb50da0ca26b84200b297b980f11bd53f",
      "transactionIndex": "0xa7",
      "blockHash": "0x3ce126f0e69dbd89bede84ad7b5fd0398442ba4393ce2d44b107de74ffc6490a",
      "blockNumber": "0x725d15",
      "gasUsed": "0xfb85",
      "effectiveGasPrice": "0x2e1d1489f",
      "from": "0xc77f7fed3b5cc8249adc428c5f44c9063b9734b4",
      "to": "0xbf4a322f1496e5c3d34a9bcdb4c60567b38c7de2",
      "contractAddress": null
    }
  ],
  "libraries": [],
  "pending": [],
  "returns": {},
  "timestamp": 1736920945,
  "chain": 11155111,
  "commit": "51a374b"
}