{
  "transactions": [
    {
      "hash": "0x6dba813a97c306f513dc1c8d0a0e089df3c79f15d0b31ccb5df819c9e608c6b8",
      "transactionType": "CALL",
      "contractName": null,
      "contractAddress": "0xbf4a322f1496e5c3d34a9bcdb4c60567b38c7de2",
      "function": "buy(address)",
      "arguments": [
        "0xC77f7fed3b5Cc8249aDc428c5F44C9063B9734b4"
      ],
      "transaction": {
        "from": "0xc77f7fed3b5cc8249adc428c5f44c9063b9734b4",
        "to": "0xbf4a322f1496e5c3d34a9bcdb4c60567b38c7de2",
        "gas": "0x1b309",
        "value": "0xde0b6b3a7640000",
        "input": "0xf088d547000000000000000000000000c77f7fed3b5cc8249adc428c5f44c9063b9734b4",
        "nonce": "0xe18",
        "chainId": "0xaa36a7"
      },
      "additionalContracts": [],
      "isFixedGasLimit": false
    }
  ],
  "receipts": [
    {
      "status": "0x1",
      "cumulativeGasUsed": "0xc0f90f",
      "logs": [
        {
          "address": "0xbf4a322f1496e5c3d34a9bcdb4c60567b38c7de2",
          "topics": [
            "0xddf252ad1be2c89b69c2b068fc378daa952ba7f163c4a11628f55a4df523b3ef",
            "0x0000000000000000000000000000000000000000000000000000000000000000",
            "0x000000000000000000000000c77f7fed3b5cc8249adc428c5f44c9063b9734b4"
          ],
          "data": "0x00000000000000000000000000000000000000000000003498758eead7bdee73",
          "blockHash": "0xbf1bcfb747bd54699b2455f3503c65cef5f7a508fe60d429e87c81b1653e5e9b",
          "blockNumber": "0x726702",
          "transactionHash": "0x6dba813a97c306f513dc1c8d0a0e089df3c79f15d0b31ccb5df819c9e608c6b8",
          "transactionIndex": "0x48",
          "logIndex": "0x85",
          "removed": false
        },
        {
          "address": "0xbf4a322f1496e5c3d34a9bcdb4c60567b38c7de2",
          "topics": [
            "0xddf252ad1be2c89b69c2b068fc378daa952ba7f163c4a11628f55a4df523b3ef",
            "0x0000000000000000000000000000000000000000000000000000000000000000",
            "0x000000000000000000000000c77f7fed3b5cc8249adc428c5f44c9063b9734b4"
          ],
          "data": "0x00000000000000000000000000000000000000000000000028d79ca22365848e",
          "blockHash": "0xbf1bcfb747bd54699b2455f3503c65cef5f7a508fe60d429e87c81b1653e5e9b",
          "blockNumber": "0x726702",
          "transactionHash": "0x6dba813a97c306f513dc1c8d0a0e089df3c79f15d0b31ccb5df819c9e608c6b8",
          "transactionIndex": "0x48",
          "logIndex": "0x86",
          "removed": false
        },
        {
          "address": "0xbf4a322f1496e5c3d34a9bcdb4c60567b38c7de2",
          "topics": [
            "0x4afcb4a87cdbd9974efdb92ee48bc8d7cd0ae4bf217004db3d080cbaee652ca7"
          ],
          "data": "0x000000000000000000000000000000000000000000000000000000006787c7880000000000000000000000000000000000000000000000000003a00c918b94990000000000000000000000000000000000000000000000000de0b6b3a7640000",
          "blockHash": "0xbf1bcfb747bd54699b2455f3503c65cef5f7a508fe60d429e87c81b1653e5e9b",
          "blockNumber": "0x726702",
          "transactionHash": "0x6dba813a97c306f513dc1c8d0a0e089df3c79f15d0b31ccb5df819c9e608c6b8",
          "transactionIndex": "0x48",
          "logIndex": "0x87",
          "removed": false
        }
      ],
      "logsBloom": "0x00000000000000000000000000000000000000000000000000000000000000000000000000000000000000000000000000000000000000004000000000000000000000000000000000000008000000000000001000000000000000000000000000000000020000000000000000000800020000000000000000000010000000000000000000000000000000000000000000000000000008000000010000000000000000000000000000000000000000004000000000000000000000000000000000000002000000800000000000001000000000000000080000000000000020000000000000000000000000000000000000000000000000000000000000000000",
      "type": "0x2",
      "transactionHash": "0x6dba813a97c306f513dc1c8d0a0e089df3c79f15d0b31ccb5df819c9e608c6b8",
      "transactionIndex": "0x48",
      "blockHash": "0xbf1bcfb747bd54699b2455f3503c65cef5f7a508fe60d429e87c81b1653e5e9b",
      "blockNumber": "0x726702",
      "gasUsed": "0x13af6",
      "effectiveGasPrice": "0x3e1cb48b1",
      "from": "0xc77f7fed3b5cc8249adc428c5f44c9063b9734b4",
      "to": "0xbf4a322f1496e5c3d34a9bcdb4c60567b38c7de2",
      "contractAddress": null
    }
  ],
  "libraries": [],
  "pending": [],
  "returns": {},
  "timestamp": 1736951689,
  "chain": 11155111,
  "commit": "51a374b"
}