{
  "transactions": [
    {
      "hash": "0x33c26ef105f873a0571e6dcc00b581657cbc2ff1f70eaa18247e61ef745d9dd0",
      "transactionType": "CALL",
      "contractName": null,
      "contractAddress": "0x5eb9cc76c3506942c1c0ead70e877dd5e4f00cb0",
      "function": "buy(address)",
      "arguments": [
        "0xC77f7fed3b5Cc8249aDc428c5F44C9063B9734b4"
      ],
      "transaction": {
        "from": "0xc77f7fed3b5cc8249adc428c5f44c9063b9734b4",
        "to": "0x5eb9cc76c3506942c1c0ead70e877dd5e4f00cb0",
        "gas": "0x156c8",
        "value": "0xde0b6b3a7640000",
        "input": "0xf088d547000000000000000000000000c77f7fed3b5cc8249adc428c5f44c9063b9734b4",
        "nonce": "0x1ee",
        "chainId": "0xaa36a7"
      },
      "additionalContracts": [],
      "isFixedGasLimit": false
    }
  ],
  "receipts": [
    {
      "status": "0x1",
      "cumulativeGasUsed": "0xcba5aa",
      "logs": [
        {
          "address": "0x5eb9cc76c3506942c1c0ead70e877dd5e4f00cb0",
          "topics": [
            "0xddf252ad1be2c89b69c2b068fc378daa952ba7f163c4a11628f55a4df523b3ef",
            "0x0000000000000000000000000000000000000000000000000000000000000000",
            "0x000000000000000000000000c77f7fed3b5cc8249adc428c5f44c9063b9734b4"
          ],
          "data": "0x00000000000000000000000000000000000000000000003584c45973bc427f7f",
          "blockHash": "0x93f3af95386bbafac6cac35778de056d9b86afa746dfa9ef8d9ab4c593993b8b",
          "blockNumber": "0x724b05",
          "transactionHash": "0x33c26ef105f873a0571e6dcc00b581657cbc2ff1f70eaa18247e61ef745d9dd0",
          "transactionIndex": "0x61",
          "logIndex": "0xa1",
          "removed": false
        },
        {
          "address": "0x5eb9cc76c3506942c1c0ead70e877dd5e4f00cb0",
          "topics": [
            "0xddf252ad1be2c89b69c2b068fc378daa952ba7f163c4a11628f55a4df523b3ef",
            "0x0000000000000000000000000000000000000000000000000000000000000000",
            "0x000000000000000000000000c77f7fed3b5cc8249adc428c5f44c9063b9734b4"
          ],
          "data": "0x000000000000000000000000000000000000000000000000298f1ce6f35cb9ca",
          "blockHash": "0x93f3af95386bbafac6cac35778de056d9b86afa746dfa9ef8d9ab4c593993b8b",
          "blockNumber": "0x724b05",
          "transactionHash": "0x33c26ef105f873a0571e6dcc00b581657cbc2ff1f70eaa18247e61ef745d9dd0",
          "transactionIndex": "0x61",
          "logIndex": "0xa2",
          "removed": false
        },
        {
          "address": "0x5eb9cc76c3506942c1c0ead70e877dd5e4f00cb0",
          "topics": [
            "0x4afcb4a87cdbd9974efdb92ee48bc8d7cd0ae4bf217004db3d080cbaee652ca7"
          ],
          "data": "0x00000000000000000000000000000000000000000000000000000000678675e400000000000000000000000000000000000000000000000000039008921f3fb20000000000000000000000000000000000000000000000000de0b6b3a7640000",
          "blockHash": "0x93f3af95386bbafac6cac35778de056d9b86afa746dfa9ef8d9ab4c593993b8b",
          "blockNumber": "0x724b05",
          "transactionHash": "0x33c26ef105f873a0571e6dcc00b581657cbc2ff1f70eaa18247e61ef745d9dd0",
          "transactionIndex": "0x61",
          "logIndex": "0xa3",
          "removed": false
        }
      ],
      "logsBloom": "0x00000000000000000000000000000000000000000000000000000000000000000000000000000000000000000000000000000000000000004000000000000000000000000000000000000008000000000000000000000000000000000000000000000000020000000000000004000800020000000000000000000010000000000000000000000000000000000000000000000000000000000000010000000000000000000000000000000000000000004000000000000000000000000000020000000002000000800000008000000000000000000000080000000000000020000000000000000000000000000000000000000000000000000000000000000000",
      "type": "0x2",
      "transactionHash": "0x33c26ef105f873a0571e6dcc00b581657cbc2ff1f70eaa18247e61ef745d9dd0",
      "transactionIndex": "0x61",
      "blockHash": "0x93f3af95386bbafac6cac35778de056d9b86afa746dfa9ef8d9ab4c593993b8b",
      "blockNumber": "0x724b05",
      "gasUsed": "0xf82c",
      "effectiveGasPrice": "0x49e2154b3",
      "from": "0xc77f7fed3b5cc8249adc428c5f44c9063b9734b4",
      "to": "0x5eb9cc76c3506942c1c0ead70e877dd5e4f00cb0",
      "contractAddress": null
    }
  ],
  "libraries": [],
  "pending": [],
  "returns": {},
  "timestamp": 1736865253,
  "chain": 11155111,
  "commit": "51a374b"
}