{
  "transactions": [
    {
      "hash": "0xbbf92adc1f638389158dbf58175afde3ca2ffeadf2200ad58cdb371d9b0d06b2",
      "transactionType": "CALL",
      "contractName": null,
      "contractAddress": "0x8aafd3ede9adb0ff97c7aebce82a919afb1c8764",
      "function": "sell(uint256)",
      "arguments": [
        "11608"
      ],
      "transaction": {
        "from": "0xc77f7fed3b5cc8249adc428c5f44c9063b9734b4",
        "to": "0x8aafd3ede9adb0ff97c7aebce82a919afb1c8764",
        "gas": "0x14e4c",
        "value": "0x0",
        "input": "0xe4849b320000000000000000000000000000000000000000000000000000000000002d58",
        "nonce": "0x116b",
        "chainId": "0xaa36a7"
      },
      "additionalContracts": [],
      "isFixedGasLimit": false
    }
  ],
  "receipts": [
    {
      "status": "0x1",
      "cumulativeGasUsed": "0xb223ed",
      "logs": [
        {
          "address": "0x8aafd3ede9adb0ff97c7aebce82a919afb1c8764",
          "topics": [
            "0xddf252ad1be2c89b69c2b068fc378daa952ba7f163c4a11628f55a4df523b3ef",
            "0x000000000000000000000000c77f7fed3b5cc8249adc428c5f44c9063b9734b4",
            "0x0000000000000000000000000000000000000000000000000000000000000000"
          ],
          "data": "0x0000000000000000000000000000000000000000000000000000000000002cfc",
          "blockHash": "0xd43fd967043f765d1ac956a8d172dbba7f277cfe15886a982dd0a91c227c6fe8",
          "blockNumber": "0x731829",
          "transactionHash": "0xbbf92adc1f638389158dbf58175afde3ca2ffeadf2200ad58cdb371d9b0d06b2",
          "transactionIndex": "0x79",
          "logIndex": "0x9e",
          "removed": false
        },
        {
          "address": "0x8aafd3ede9adb0ff97c7aebce82a919afb1c8764",
          "topics": [
            "0xddf252ad1be2c89b69c2b068fc378daa952ba7f163c4a11628f55a4df523b3ef",
            "0x000000000000000000000000c77f7fed3b5cc8249adc428c5f44c9063b9734b4",
            "0x000000000000000000000000c77f7fed3b5cc8249adc428c5f44c9063b9734b4"
          ],
          "data": "0x000000000000000000000000000000000000000000000000000000000000005c",
          "blockHash": "0xd43fd967043f765d1ac956a8d172dbba7f277cfe15886a982dd0a91c227c6fe8",
          "blockNumber": "0x731829",
          "transactionHash": "0xbbf92adc1f638389158dbf58175afde3ca2ffeadf2200ad58cdb371d9b0d06b2",
          "transactionIndex": "0x79",
          "logIndex": "0x9f",
          "removed": false
        },
        {
          "address": "0x8aafd3ede9adb0ff97c7aebce82a919afb1c8764",
          "topics": [
            "0x4afcb4a87cdbd9974efdb92ee48bc8d7cd0ae4bf217004db3d080cbaee652ca7"
          ],
          "data": "0x0000000000000000000000000000000000000000000000000000000067901eb000000000000000000000000000000000000000000000000000051aaf7a7c4f550000000000000000000000000000000000000000000000000000000000000010",
          "blockHash": "0xd43fd967043f765d1ac956a8d172dbba7f277cfe15886a982dd0a91c227c6fe8",
          "blockNumber": "0x731829",
          "transactionHash": "0xbbf92adc1f638389158dbf58175afde3ca2ffeadf2200ad58cdb371d9b0d06b2",
          "transactionIndex": "0x79",
          "logIndex": "0xa0",
          "removed": false
        }
      ],
      "logsBloom": "0x00000000000000000000000000000000000000000600000000000000000000000000000000000000000000000000000000000000000000004000000000000000000000000000004000000008000000000000000000000000000000000000000000000000020000000000000000000800020000000000000000000010000000000000000000000000000000000000000000000000000000000000010000000000000000000000000000000000000000004000000000000000000000000000000000000002000000800000000000000000000000000000080000000000000020000000000000000000000000000000000000000000000000000000000000000000",
      "type": "0x2",
      "transactionHash": "0xbbf92adc1f638389158dbf58175afde3ca2ffeadf2200ad58cdb371d9b0d06b2",
      "transactionIndex": "0x79",
      "blockHash": "0xd43fd967043f765d1ac956a8d172dbba7f277cfe15886a982dd0a91c227c6fe8",
      "blockNumber": "0x731829",
      "gasUsed": "0xf207",
      "effectiveGasPrice": "0x4097853a",
      "from": "0xc77f7fed3b5cc8249adc428c5f44c9063b9734b4",
      "to": "0x8aafd3ede9adb0ff97c7aebce82a919afb1c8764",
      "contractAddress": null
    }
  ],
  "libraries": [],
  "pending": [],
  "returns": {},
  "timestamp": 1737498289,
  "chain": 11155111,
  "commit": "1d2fb70"
}