{
  "transactions": [
    {
      "hash": "0x1476b6c8f7bdf25d32e47962c1af5c4c672511a69adadc76e6f6ba75a96b9089",
      "transactionType": "CALL",
      "contractName": null,
      "contractAddress": "0xbf4a322f1496e5c3d34a9bcdb4c60567b38c7de2",
      "function": "sell(uint256)",
      "arguments": [
        "974618091193799369789"
      ],
      "transaction": {
        "from": "0xc77f7fed3b5cc8249adc428c5f44c9063b9734b4",
        "to": "0xbf4a322f1496e5c3d34a9bcdb4c60567b38c7de2",
        "gas": "0x16fea",
        "value": "0x0",
        "input": "0xe4849b32000000000000000000000000000000000000000000000034d58b06315bad643d",
        "nonce": "0xdab",
        "chainId": "0xaa36a7"
      },
      "additionalContracts": [],
      "isFixedGasLimit": false
    }
  ],
  "receipts": [
    {
      "status": "0x1",
      "cumulativeGasUsed": "0xf8c14a",
      "logs": [
        {
          "address": "0xbf4a322f1496e5c3d34a9bcdb4c60567b38c7de2",
          "topics": [
            "0xddf252ad1be2c89b69c2b068fc378daa952ba7f163c4a11628f55a4df523b3ef",
            "0x000000000000000000000000c77f7fed3b5cc8249adc428c5f44c9063b9734b4",
            "0x0000000000000000000000000000000000000000000000000000000000000000"
          ],
          "data": "0x000000000000000000000000000000000000000000000034d58b06315bad643d",
          "blockHash": "0x871edf97c65837326555a3d49a6d7e5ec774804014a290539e86b42e116a024d",
          "blockNumber": "0x726681",
          "transactionHash": "0x1476b6c8f7bdf25d32e47962c1af5c4c672511a69adadc76e6f6ba75a96b9089",
          "transactionIndex": "0x6d",
          "logIndex": "0xd5",
          "removed": false
        },
        {
          "address": "0xbf4a322f1496e5c3d34a9bcdb4c60567b38c7de2",
          "topics": [
            "0x4afcb4a87cdbd9974efdb92ee48bc8d7cd0ae4bf217004db3d080cbaee652ca7"
          ],
          "data": "0x000000000000000000000000000000000000000000000000000000006787c0ec00000000000000000000000000000000000000000000000000039ead2858073e0000000000000000000000000000000000000000000000000dc7e3d58d98ed78",
          "blockHash": "0x871edf97c65837326555a3d49a6d7e5ec774804014a290539e86b42e116a024d",
          "blockNumber": "0x726681",
          "transactionHash": "0x1476b6c8f7bdf25d32e47962c1af5c4c672511a69adadc76e6f6ba75a96b9089",
          "transactionIndex": "0x6d",
          "logIndex": "0xd6",
          "removed": false
        }
      ],
      "logsBloom": "0x00000000000000000000000000000000000000000000000000000000000000000000000000000000000000000000000000000000000000004000000000000000000000000000000000000008000000000000001000000000000000000000000000000000020000000000000000000800020000000000000000000010000000000000000000000000000000000000000000000000000008000000010000000000000000000000000000000000000000004000000000000000000000000000000000000002000000800000000000001000000000000000080000000000000020000000000000000000000000000000000000000000000000000000000000000000",
      "type": "0x2",
      "transactionHash": "0x1476b6c8f7bdf25d32e47962c1af5c4c672511a69adadc76e6f6ba75a96b9089",
      "transactionIndex": "0x6d",
      "blockHash": "0x871edf97c65837326555a3d49a6d7e5ec774804014a290539e86b42e116a024d",
      "blockNumber": "0x726681",
      "gasUsed": "0xfb91",
      "effectiveGasPrice": "0x88b11039",
      "from": "0xc77f7fed3b5cc8249adc428c5f44c9063b9734b4",
      "to": "0xbf4a322f1496e5c3d34a9bcdb4c60567b38c7de2",
      "contractAddress": null
    }
  ],
  "libraries": [],
  "pending": [],
  "returns": {},
  "timestamp": 1736949998,
  "chain": 11155111,
  "commit": "51a374b"
}