{
  "transactions": [
    {
      "hash": "0x490af0ad2485a426c9ea28e9c18dc22decfd831e806adc15bfcfcf088c32429c",
      "transactionType": "CALL",
      "contractName": null,
      "contractAddress": "0x8aafd3ede9adb0ff97c7aebce82a919afb1c8764",
      "function": "sell(uint256)",
      "arguments": [
        "1592203358223438317"
      ],
      "transaction": {
        "from": "0xc77f7fed3b5cc8249adc428c5f44c9063b9734b4",
        "to": "0x8aafd3ede9adb0ff97c7aebce82a919afb1c8764",
        "gas": "0x15dca",
        "value": "0x0",
        "input": "0xe4849b320000000000000000000000000000000000000000000000001618a484b91791ed",
        "nonce": "0x153f",
        "chainId": "0xaa36a7"
      },
      "additionalContracts": [],
      "isFixedGasLimit": false
    }
  ],
  "receipts": [
    {
      "status": "0x1",
      "cumulativeGasUsed": "0xce5045",
      "logs": [
        {
          "address": "0x8aafd3ede9adb0ff97c7aebce82a919afb1c8764",
          "topics": [
            "0xddf252ad1be2c89b69c2b068fc378daa952ba7f163c4a11628f55a4df523b3ef",
            "0x000000000000000000000000c77f7fed3b5cc8249adc428c5f44c9063b9734b4",
            "0x0000000000000000000000000000000000000000000000000000000000000000"
          ],
          "data": "0x00000000000000000000000000000000000000000000000015eb63b6dc79af7b",
          "blockHash": "0x72d4344f5e20c378446a7467c5a416db75265b02369b60952e4e5b35eec71ff6",
          "blockNumber": "0x731ca3",
          "transactionHash": "0x490af0ad2485a426c9ea28e9c18dc22decfd831e806adc15bfcfcf088c32429c",
          "transactionIndex": "0x92",
          "logIndex": "0xe1",
          "removed": false
        },
        {
          "address": "0x8aafd3ede9adb0ff97c7aebce82a919afb1c8764",
          "topics": [
            "0xddf252ad1be2c89b69c2b068fc378daa952ba7f163c4a11628f55a4df523b3ef",
            "0x000000000000000000000000c77f7fed3b5cc8249adc428c5f44c9063b9734b4",
            "0x000000000000000000000000c77f7fed3b5cc8249adc428c5f44c9063b9734b4"
          ],
          "data": "0x000000000000000000000000000000000000000000000000002d40cddc9de272",
          "blockHash": "0x72d4344f5e20c378446a7467c5a416db75265b02369b60952e4e5b35eec71ff6",
          "blockNumber": "0x731ca3",
          "transactionHash": "0x490af0ad2485a426c9ea28e9c18dc22decfd831e806adc15bfcfcf088c32429c",
          "transactionIndex": "0x92",
          "logIndex": "0xe2",
          "removed": false
        },
        {
          "address": "0x8aafd3ede9adb0ff97c7aebce82a919afb1c8764",
          "topics": [
            "0x4afcb4a87cdbd9974efdb92ee48bc8d7cd0ae4bf217004db3d080cbaee652ca7"
          ],
          "data": "0x00000000000000000000000000000000000000000000000000000000679054800000000000000000000000000000000000000000000000000011d45ea39357b8000000000000000000000000000000000000000000000000001c632659b5992f",
          "blockHash": "0x72d4344f5e20c378446a7467c5a416db75265b02369b60952e4e5b35eec71ff6",
          "blockNumber": "0x731ca3",
          "transactionHash": "0x490af0ad2485a426c9ea28e9c18dc22decfd831e806adc15bfcfcf088c32429c",
          "transactionIndex": "0x92",
          "logIndex": "0xe3",
          "removed": false
        }
      ],
      "logsBloom": "0x00000000000000000000000000000000000000000600000000000000000000000000000000000000000000000000000000000000000000004000000000000000000000000000004000000008000000000000000000000000000000000000000000000000020000000000000000000800020000000000000000000010000000000000000000000000000000000000000000000000000000000000010000000000000000000000000000000000000000004000000000000000000000000000000000000002000000800000000000000000000000000000080000000000000020000000000000000000000000000000000000000000000000000000000000000000",
      "type": "0x2",
      "transactionHash": "0x490af0ad2485a426c9ea28e9c18dc22decfd831e806adc15bfcfcf088c32429c",
      "transactionIndex": "0x92",
      "blockHash": "0x72d4344f5e20c378446a7467c5a416db75265b02369b60952e4e5b35eec71ff6",
      "blockNumber": "0x731ca3",
      "gasUsed": "0xfd3f",
      "effectiveGasPrice": "0xf747791f",
      "from": "0xc77f7fed3b5cc8249adc428c5f44c9063b9734b4",
      "to": "0x8aafd3ede9adb0ff97c7aebce82a919afb1c8764",
      "contractAddress": null
    }
  ],
  "libraries": [],
  "pending": [],
  "returns": {},
  "timestamp": 1737512066,
  "chain": 11155111,
  "commit": "1d2fb70"
}