{
  "transactions": [
    {
      "hash": "0xf970cd00af18f541f00bfef92635bbedbf3306491e0782fc1b707ac96bd5291f",
      "transactionType": "CALL",
      "contractName": null,
      "contractAddress": "0x8aafd3ede9adb0ff97c7aebce82a919afb1c8764",
      "function": "sell(uint256)",
      "arguments": [
        "161833237799057322098"
      ],
      "transaction": {
        "from": "0xc77f7fed3b5cc8249adc428c5f44c9063b9734b4",
        "to": "0x8aafd3ede9adb0ff97c7aebce82a919afb1c8764",
        "gas": "0x17270",
        "value": "0x0",
        "input": "0xe4849b32000000000000000000000000000000000000000000000008c5e3285958217072",
        "nonce": "0x169d",
        "chainId": "0xaa36a7"
      },
      "additionalContracts": [],
      "isFixedGasLimit": false
    }
  ],
  "receipts": [
    {
      "status": "0x1",
      "cumulativeGasUsed": "0x10102d5",
      "logs": [
        {
          "address": "0x8aafd3ede9adb0ff97c7aebce82a919afb1c8764",
          "topics": [
            "0xddf252ad1be2c89b69c2b068fc378daa952ba7f163c4a11628f55a4df523b3ef",
            "0x000000000000000000000000c77f7fed3b5cc8249adc428c5f44c9063b9734b4",
            "0x0000000000000000000000000000000000000000000000000000000000000000"
          ],
          "data": "0x000000000000000000000000000000000000000000000008b3eb9491f937b322",
          "blockHash": "0x78f5633b0f161d44848ef122b534cd5986bf6efdb4d4dad9e880b158665e92be",
          "blockNumber": "0x731e54",
          "transactionHash": "0xf970cd00af18f541f00bfef92635bbedbf3306491e0782fc1b707ac96bd5291f",
          "transactionIndex": "0x6a",
          "logIndex": "0xde",
          "removed": false
        },
        {
          "address": "0x8aafd3ede9adb0ff97c7aebce82a919afb1c8764",
          "topics": [
            "0xddf252ad1be2c89b69c2b068fc378daa952ba7f163c4a11628f55a4df523b3ef",
            "0x000000000000000000000000c77f7fed3b5cc8249adc428c5f44c9063b9734b4",
            "0x000000000000000000000000c77f7fed3b5cc8249adc428c5f44c9063b9734b4"
          ],
          "data": "0x00000000000000000000000000000000000000000000000011f793c75ee9bd50",
          "blockHash": "0x78f5633b0f161d44848ef122b534cd5986bf6efdb4d4dad9e880b158665e92be",
          "blockNumber": "0x731e54",
          "transactionHash": "0xf970cd00af18f541f00bfef92635bbedbf3306491e0782fc1b707ac96bd5291f",
          "transactionIndex": "0x6a",
          "logIndex": "0xdf",
          "removed": false
        },
        {
          "address": "0x8aafd3ede9adb0ff97c7aebce82a919afb1c8764",
          "topics": [
            "0x4afcb4a87cdbd9974efdb92ee48bc8d7cd0ae4bf217004db3d080cbaee652ca7"
          ],
          "data": "0x00000000000000000000000000000000000000000000000000000000679068d80000000000000000000000000000000000000000000000000015e75595168e670000000000000000000000000000000000000000000000000dcc2a4d493fad35",
          "blockHash": "0x78f5633b0f161d44848ef122b534cd5986bf6efdb4d4dad9e880b158665e92be",
          "blockNumber": "0x731e54",
          "transactionHash": "0xf970cd00af18f541f00bfef92635bbedbf3306491e0782fc1b707ac96bd5291f",
          "transactionIndex": "0x6a",
          "logIndex": "0xe0",
          "removed": false
        }
      ],
      "logsBloom": "0x00000000000000000000000000000000000000000600000000000000000000000000000000000000000000000000000000000000000000004000000000000000000000000000004000000008000000000000000000000000000000000000000000000000020000000000000000000800020000000000000000000010000000000000000000000000000000000000000000000000000000000000010000000000000000000000000000000000000000004000000000000000000000000000000000000002000000800000000000000000000000000000080000000000000020000000000000000000000000000000000000000000000000000000000000000000",
      "type": "0x2",
      "transactionHash": "0xf970cd00af18f541f00bfef92635bbedbf3306491e0782fc1b707ac96bd5291f",
      "transactionIndex": "0x6a",
      "blockHash": "0x78f5633b0f161d44848ef122b534cd5986bf6efdb4d4dad9e880b158665e92be",
      "blockNumber": "0x731e54",
      "gasUsed": "0xfd4b",
      "effectiveGasPrice": "0x63fdb5a7",
      "from": "0xc77f7fed3b5cc8249adc428c5f44c9063b9734b4",
      "to": "0x8aafd3ede9adb0ff97c7aebce82a919afb1c8764",
      "contractAddress": null
    }
  ],
  "libraries": [],
  "pending": [],
  "returns": {},
  "timestamp": 1737517274,
  "chain": 11155111,
  "commit": "1d2fb70"
}