{
  "transactions": [
    {
      "hash": "0x1d47974bce873422661a8fc796f242a7cfc65fd7bc2c557e44839b4a756ff06a",
      "transactionType": "CALL",
      "contractName": null,
      "contractAddress": "0x270e88f8683660553e8ba4eb2ad7c91a1710d769",
      "function": "buy(address)",
      "arguments": [
        "0xC77f7fed3b5Cc8249aDc428c5F44C9063B9734b4"
      ],
      "transaction": {
        "from": "0xc77f7fed3b5cc8249adc428c5f44c9063b9734b4",
        "to": "0x270e88f8683660553e8ba4eb2ad7c91a1710d769",
        "gas": "0x1b30c",
        "value": "0xde0b6b3a7640000",
        "input": "0xf088d547000000000000000000000000c77f7fed3b5cc8249adc428c5f44c9063b9734b4",
        "nonce": "0x681",
        "chainId": "0xaa36a7"
      },
      "additionalContracts": [],
      "isFixedGasLimit": false
    }
  ],
  "receipts": [
    {
      "status": "0x1",
      "cumulativeGasUsed": "0x620d9a",
      "logs": [
        {
          "address": "0x270e88f8683660553e8ba4eb2ad7c91a1710d769",
          "topics": [
            "0xddf252ad1be2c89b69c2b068fc378daa952ba7f163c4a11628f55a4df523b3ef",
            "0x0000000000000000000000000000000000000000000000000000000000000000",
            "0x000000000000000000000000c77f7fed3b5cc8249adc428c5f44c9063b9734b4"
          ],
          "data": "0x000000000000000000000000000000000000000000000028e7426456b2567737",
          "blockHash": "0x700b73f731a9faf18610aff321523e6e8ca877ff5313c1c6a93c90d0e63745cc",
          "blockNumber": "0x725380",
          "transactionHash": "0x1d47974bce873422661a8fc796f242a7cfc65fd7bc2c557e44839b4a756ff06a",
          "transactionIndex": "0x3d",
          "logIndex": "0x5f",
          "removed": false
        },
        {
          "address": "0x270e88f8683660553e8ba4eb2ad7c91a1710d769",
          "topics": [
            "0xddf252ad1be2c89b69c2b068fc378daa952ba7f163c4a11628f55a4df523b3ef",
            "0x0000000000000000000000000000000000000000000000000000000000000000",
            "0x000000000000000000000000c77f7fed3b5cc8249adc428c5f44c9063b9734b4"
          ],
          "data": "0x0000000000000000000000000000000000000000000000001fc34a40f2c1ea13",
          "blockHash": "0x700b73f731a9faf18610aff321523e6e8ca877ff5313c1c6a93c90d0e63745cc",
          "blockNumber": "0x725380",
          "transactionHash": "0x1d47974bce873422661a8fc796f242a7cfc65fd7bc2c557e44839b4a756ff06a",
          "transactionIndex": "0x3d",
          "logIndex": "0x60",
          "removed": false
        },
        {
          "address": "0x270e88f8683660553e8ba4eb2ad7c91a1710d769",
          "topics": [
            "0x4afcb4a87cdbd9974efdb92ee48bc8d7cd0ae4bf217004db3d080cbaee652ca7"
          ],
          "data": "0x000000000000000000000000000000000000000000000000000000006786dc080000000000000000000000000000000000000000000000000004a96c9363bbf00000000000000000000000000000000000000000000000000de0b6b3a7640000",
          "blockHash": "0x700b73f731a9faf18610aff321523e6e8ca877ff5313c1c6a93c90d0e63745cc",
          "blockNumber": "0x725380",
          "transactionHash": "0x1d47974bce873422661a8fc796f242a7cfc65fd7bc2c557e44839b4a756ff06a",
          "transactionIndex": "0x3d",
          "logIndex": "0x61",
          "removed": false
        }
      ],
      "logsBloom": "0x00000000000000000000000000000000000000000000000000000000000000000000000000000000000000000000000020000000000000004000000000000000000000000000000000000008000000000000000000000000000000000000000000000000020000000000000000000800020000000000000000000010000000000000000000010000000000000000000000000000000000000000010000000000000000000000000000000000000000004000000000000000000000000000000000000002000000800000000000000000000000000000080000008000000020000000000000000000000000000000000000000000000000000000000000000000",
      "type": "0x2",
      "transactionHash": "0x1d47974bce873422661a8fc796f242a7cfc65fd7bc2c557e44839b4a756ff06a",
      "transactionIndex": "0x3d",
      "blockHash": "0x700b73f731a9faf18610aff321523e6e8ca877ff5313c1c6a93c90d0e63745cc",
      "blockNumber": "0x725380",
      "gasUsed": "0x13af8",
      "effectiveGasPrice": "0x259d4f415",
      "from": "0xc77f7fed3b5cc8249adc428c5f44c9063b9734b4",
      "to": "0x270e88f8683660553e8ba4eb2ad7c91a1710d769",
      "contractAddress": null
    }
  ],
  "libraries": [],
  "pending": [],
  "returns": {},
  "timestamp": 1736891402,
  "chain": 11155111,
  "commit": "51a374b"
}