{
  "transactions": [
    {
      "hash": "0xcd183ed79b34d02735382ab4a29b78a4682900218490370d5bb35457bbf756d9",
      "transactionType": "CALL",
      "contractName": null,
      "contractAddress": "0x8aafd3ede9adb0ff97c7aebce82a919afb1c8764",
      "function": "sell(uint256)",
      "arguments": [
        "669311759536"
      ],
      "transaction": {
        "from": "0xc77f7fed3b5cc8249adc428c5f44c9063b9734b4",
        "to": "0x8aafd3ede9adb0ff97c7aebce82a919afb1c8764",
        "gas": "0x1722a",
        "value": "0x0",
        "input": "0xe4849b320000000000000000000000000000000000000000000000000000009bd616f4b0",
        "nonce": "0x168f",
        "chainId": "0xaa36a7"
      },
      "additionalContracts": [],
      "isFixedGasLimit": false
    }
  ],
  "receipts": [
    {
      "status": "0x1",
      "cumulativeGasUsed": "0xafc13f",
      "logs": [
        {
          "address": "0x8aafd3ede9adb0ff97c7aebce82a919afb1c8764",
          "topics": [
            "0xddf252ad1be2c89b69c2b068fc378daa952ba7f163c4a11628f55a4df523b3ef",
            "0x000000000000000000000000c77f7fed3b5cc8249adc428c5f44c9063b9734b4",
            "0x0000000000000000000000000000000000000000000000000000000000000000"
          ],
          "data": "0x0000000000000000000000000000000000000000000000000000009a96efdc34",
          "blockHash": "0x68f851bc77e7bd9701df9a66414c0174ea40a8f10c33ea0c90a256ee6e0df67d",
          "blockNumber": "0x731e45",
          "transactionHash": "0xcd183ed79b34d02735382ab4a29b78a4682900218490370d5bb35457bbf756d9",
          "transactionIndex": "0x5e",
          "logIndex": "0x8a",
          "removed": false
        },
        {
          "address": "0x8aafd3ede9adb0ff97c7aebce82a919afb1c8764",
          "topics": [
            "0xddf252ad1be2c89b69c2b068fc378daa952ba7f163c4a11628f55a4df523b3ef",
            "0x000000000000000000000000c77f7fed3b5cc8249adc428c5f44c9063b9734b4",
            "0x000000000000000000000000c77f7fed3b5cc8249adc428c5f44c9063b9734b4"
          ],
          "data": "0x000000000000000000000000000000000000000000000000000000013f27187c",
          "blockHash": "0x68f851bc77e7bd9701df9a66414c0174ea40a8f10c33ea0c90a256ee6e0df67d",
          "blockNumber": "0x731e45",
          "transactionHash": "0xcd183ed79b34d02735382ab4a29b78a4682900218490370d5bb35457bbf756d9",
          "transactionIndex": "0x5e",
          "logIndex": "0x8b",
          "removed": false
        },
        {
          "address": "0x8aafd3ede9adb0ff97c7aebce82a919afb1c8764",
          "topics": [
            "0x4afcb4a87cdbd9974efdb92ee48bc8d7cd0ae4bf217004db3d080cbaee652ca7"
          ],
          "data": "0x00000000000000000000000000000000000000000000000000000000679068240000000000000000000000000000000000000000000000000015b1c3bfdf145900000000000000000000000000000000000000000000000000000000f39c4461",
          "blockHash": "0x68f851bc77e7bd9701df9a66414c0174ea40a8f10c33ea0c90a256ee6e0df67d",
          "blockNumber": "0x731e45",
          "transactionHash": "0xcd183ed79b34d02735382ab4a29b78a4682900218490370d5bb35457bbf756d9",
          "transactionIndex": "0x5e",
          "logIndex": "0x8c",
          "removed": false
        }
      ],
      "logsBloom": "0x00000000000000000000000000000000000000000600000000000000000000000000000000000000000000000000000000000000000000004000000000000000000000000000004000000008000000000000000000000000000000000000000000000000020000000000000000000800020000000000000000000010000000000000000000000000000000000000000000000000000000000000010000000000000000000000000000000000000000004000000000000000000000000000000000000002000000800000000000000000000000000000080000000000000020000000000000000000000000000000000000000000000000000000000000000000",
      "type": "0x2",
      "transactionHash": "0xcd183ed79b34d02735382ab4a29b78a4682900218490370d5bb35457bbf756d9",
      "transactionIndex": "0x5e",
      "blockHash": "0x68f851bc77e7bd9701df9a66414c0174ea40a8f10c33ea0c90a256ee6e0df67d",
      "blockNumber": "0x731e45",
      "gasUsed": "0xfd1b",
      "effectiveGasPrice": "0x51d76725",
      "from": "0xc77f7fed3b5cc8249adc428c5f44c9063b9734b4",
      "to": "0x8aafd3ede9adb0ff97c7aebce82a919afb1c8764",
      "contractAddress": null
    }
  ],
  "libraries": [],
  "pending": [],
  "returns": {},
  "timestamp": 1737517094,
  "chain": 11155111,
  "commit": "1d2fb70"
}