{
  "transactions": [
    {
      "hash": "0x3e291de34a66af8516ed7a635cce4c6b5716bd8eb4616e3b27a64e5d412ea71b",
      "transactionType": "CALL",
      "contractName": null,
      "contractAddress": "0x8aafd3ede9adb0ff97c7aebce82a919afb1c8764",
      "function": "sell(uint256)",
      "arguments": [
        "87485755774541"
      ],
      "transaction": {
        "from": "0xc77f7fed3b5cc8249adc428c5f44c9063b9734b4",
        "to": "0x8aafd3ede9adb0ff97c7aebce82a919afb1c8764",
        "gas": "0x15daa",
        "value": "0x0",
        "input": "0xe4849b3200000000000000000000000000000000000000000000000000004f915d65564d",
        "nonce": "0x163d",
        "chainId": "0xaa36a7"
      },
      "additionalContracts": [],
      "isFixedGasLimit": false
    }
  ],
  "receipts": [
    {
      "status": "0x1",
      "cumulativeGasUsed": "0x9fa698",
      "logs": [
        {
          "address": "0x8aafd3ede9adb0ff97c7aebce82a919afb1c8764",
          "topics": [
            "0xddf252ad1be2c89b69c2b068fc378daa952ba7f163c4a11628f55a4df523b3ef",
            "0x000000000000000000000000c77f7fed3b5cc8249adc428c5f44c9063b9734b4",
            "0x0000000000000000000000000000000000000000000000000000000000000000"
          ],
          "data": "0x00000000000000000000000000000000000000000000000000004eee68efca59",
          "blockHash": "0x435f4d6ab6139ce5f3874152028bdc18093f50bd579d3f65590a0504246d5960",
          "blockNumber": "0x731dd6",
          "transactionHash": "0x3e291de34a66af8516ed7a635cce4c6b5716bd8eb4616e3b27a64e5d412ea71b",
          "transactionIndex": "0x74",
          "logIndex": "0xbd",
          "removed": false
        },
        {
          "address": "0x8aafd3ede9adb0ff97c7aebce82a919afb1c8764",
          "topics": [
            "0xddf252ad1be2c89b69c2b068fc378daa952ba7f163c4a11628f55a4df523b3ef",
            "0x000000000000000000000000c77f7fed3b5cc8249adc428c5f44c9063b9734b4",
            "0x000000000000000000000000c77f7fed3b5cc8249adc428c5f44c9063b9734b4"
          ],
          "data": "0x000000000000000000000000000000000000000000000000000000a2f4758bf4",
          "blockHash": "0x435f4d6ab6139ce5f3874152028bdc18093f50bd579d3f65590a0504246d5960",
          "blockNumber": "0x731dd6",
          "transactionHash": "0x3e291de34a66af8516ed7a635cce4c6b5716bd8eb4616e3b27a64e5d412ea71b",
          "transactionIndex": "0x74",
          "logIndex": "0xbe",
          "removed": false
        },
        {
          "address": "0x8aafd3ede9adb0ff97c7aebce82a919afb1c8764",
          "topics": [
            "0x4afcb4a87cdbd9974efdb92ee48bc8d7cd0ae4bf217004db3d080cbaee652ca7"
          ],
          "data": "0x00000000000000000000000000000000000000000000000000000000679062f00000000000000000000000000000000000000000000000000014c044dfa1e5bc00000000000000000000000000000000000000000000000000000076f9b7699b",
          "blockHash": "0x435f4d6ab6139ce5f3874152028bdc18093f50bd579d3f65590a0504246d5960",
          "blockNumber": "0x731dd6",
          "transactionHash": "0x3e291de34a66af8516ed7a635cce4c6b5716bd8eb4616e3b27a64e5d412ea71b",
          "transactionIndex": "0x74",
          "logIndex": "0xbf",
          "removed": false
        }
      ],
      "logsBloom": "0x00000000000000000000000000000000000000000600000000000000000000000000000000000000000000000000000000000000000000004000000000000000000000000000004000000008000000000000000000000000000000000000000000000000020000000000000000000800020000000000000000000010000000000000000000000000000000000000000000000000000000000000010000000000000000000000000000000000000000004000000000000000000000000000000000000002000000800000000000000000000000000000080000000000000020000000000000000000000000000000000000000000000000000000000000000000",
      "type": "0x2",
      "transactionHash": "0x3e291de34a66af8516ed7a635cce4c6b5716bd8eb4616e3b27a64e5d412ea71b",
      "transactionIndex": "0x74",
      "blockHash": "0x435f4d6ab6139ce5f3874152028bdc18093f50bd579d3f65590a0504246d5960",
      "blockNumber": "0x731dd6",
      "gasUsed": "0xfd27",
      "effectiveGasPrice": "0x502b8eb9",
      "from": "0xc77f7fed3b5cc8249adc428c5f44c9063b9734b4",
      "to": "0x8aafd3ede9adb0ff97c7aebce82a919afb1c8764",
      "contractAddress": null
    }
  ],
  "libraries": [],
  "pending": [],
  "returns": {},
  "timestamp": 1737515761,
  "chain": 11155111,
  "commit": "1d2fb70"
}