{
  "transactions": [
    {
      "hash": "0x7fedbd7e1441f44e62633fe54472995794ddffe2ce28c6f02b5f225aa1d0ff35",
      "transactionType": "CALL",
      "contractName": null,
      "contractAddress": "0x8aafd3ede9adb0ff97c7aebce82a919afb1c8764",
      "function": "sell(uint256)",
      "arguments": [
        "173467489"
      ],
      "transaction": {
        "from": "0xc77f7fed3b5cc8249adc428c5f44c9063b9734b4",
        "to": "0x8aafd3ede9adb0ff97c7aebce82a919afb1c8764",
        "gas": "0x15d88",
        "value": "0x0",
        "input": "0xe4849b32000000000000000000000000000000000000000000000000000000000a56e761",
        "nonce": "0x1303",
        "chainId": "0xaa36a7"
      },
      "additionalContracts": [],
      "isFixedGasLimit": false
    }
  ],
  "receipts": [
    {
      "status": "0x1",
      "cumulativeGasUsed": "0x12f1b64",
      "logs": [
        {
          "address": "0x8aafd3ede9adb0ff97c7aebce82a919afb1c8764",
          "topics": [
            "0xddf252ad1be2c89b69c2b068fc378daa952ba7f163c4a11628f55a4df523b3ef",
            "0x000000000000000000000000c77f7fed3b5cc8249adc428c5f44c9063b9734b4",
            "0x0000000000000000000000000000000000000000000000000000000000000000"
          ],
          "data": "0x000000000000000000000000000000000000000000000000000000000a41ba86",
          "blockHash": "0xa2fba96e531d51fb66be6940b266e2e28b81df0a99222895a8083aa969ab9fb7",
          "blockNumber": "0x731a0c",
          "transactionHash": "0x7fedbd7e1441f44e62633fe54472995794ddffe2ce28c6f02b5f225aa1d0ff35",
          "transactionIndex": "0xba",
          "logIndex": "0x110",
          "removed": false
        },
        {
          "address": "0x8aafd3ede9adb0ff97c7aebce82a919afb1c8764",
          "topics": [
            "0xddf252ad1be2c89b69c2b068fc378daa952ba7f163c4a11628f55a4df523b3ef",
            "0x000000000000000000000000c77f7fed3b5cc8249adc428c5f44c9063b9734b4",
            "0x000000000000000000000000c77f7fed3b5cc8249adc428c5f44c9063b9734b4"
          ],
          "data": "0x0000000000000000000000000000000000000000000000000000000000152cdb",
          "blockHash": "0xa2fba96e531d51fb66be6940b266e2e28b81df0a99222895a8083aa969ab9fb7",
          "blockNumber": "0x731a0c",
          "transactionHash": "0x7fedbd7e1441f44e62633fe54472995794ddffe2ce28c6f02b5f225aa1d0ff35",
          "transactionIndex": "0xba",
          "logIndex": "0x111",
          "removed": false
        },
        {
          "address": "0x8aafd3ede9adb0ff97c7aebce82a919afb1c8764",
          "topics": [
            "0x4afcb4a87cdbd9974efdb92ee48bc8d7cd0ae4bf217004db3d080cbaee652ca7"
          ],
          "data": "0x0000000000000000000000000000000000000000000000000000000067903560000000000000000000000000000000000000000000000000000b41bece9ee6660000000000000000000000000000000000000000000000000000000000086301",
          "blockHash": "0xa2fba96e531d51fb66be6940b266e2e28b81df0a99222895a8083aa969ab9fb7",
          "blockNumber": "0x731a0c",
          "transactionHash": "0x7fedbd7e1441f44e62633fe54472995794ddffe2ce28c6f02b5f225aa1d0ff35",
          "transactionIndex": "0xba",
          "logIndex": "0x112",
          "removed": false
        }
      ],
      "logsBloom": "0x00000000000000000000000000000000000000000600000000000000000000000000000000000000000000000000000000000000000000004000000000000000000000000000004000000008000000000000000000000000000000000000000000000000020000000000000000000800020000000000000000000010000000000000000000000000000000000000000000000000000000000000010000000000000000000000000000000000000000004000000000000000000000000000000000000002000000800000000000000000000000000000080000000000000020000000000000000000000000000000000000000000000000000000000000000000",
      "type": "0x2",
      "transactionHash": "0x7fedbd7e1441f44e62633fe54472995794ddffe2ce28c6f02b5f225aa1d0ff35",
      "transactionIndex": "0xba",
      "blockHash": "0xa2fba96e531d51fb66be6940b266e2e28b81df0a99222895a8083aa969ab9fb7",
      "blockNumber": "0x731a0c",
      "gasUsed": "0xfd0f",
      "effectiveGasPrice": "0x3ab449a1",
      "from": "0xc77f7fed3b5cc8249adc428c5f44c9063b9734b4",
      "to": "0x8aafd3ede9adb0ff97c7aebce82a919afb1c8764",
      "contractAddress": null
    }
  ],
  "libraries": [],
  "pending": [],
  "returns": {},
  "timestamp": 1737504097,
  "chain": 11155111,
  "commit": "1d2fb70"
}