{
  "transactions": [
    {
      "hash": "0xfc4f24fb3bf00f4de088eaab4b7f5353291edc5bc935af70e793f205572713d9",
      "transactionType": "CALL",
      "contractName": null,
      "contractAddress": "0x8aafd3ede9adb0ff97c7aebce82a919afb1c8764",
      "function": "sell(uint256)",
      "arguments": [
        "75236310883726"
      ],
      "transaction": {
        "from": "0xc77f7fed3b5cc8249adc428c5f44c9063b9734b4",
        "to": "0x8aafd3ede9adb0ff97c7aebce82a919afb1c8764",
        "gas": "0x15daa",
        "value": "0x0",
        "input": "0xe4849b320000000000000000000000000000000000000000000000000000446d51959d8e",
        "nonce": "0x175d",
        "chainId": "0xaa36a7"
      },
      "additionalContracts": [],
      "isFixedGasLimit": false
    }
  ],
  "receipts": [
    {
      "status": "0x1",
      "cumulativeGasUsed": "0x2202cd6",
      "logs": [
        {
          "address": "0x8aafd3ede9adb0ff97c7aebce82a919afb1c8764",
          "topics": [
            "0xddf252ad1be2c89b69c2b068fc378daa952ba7f163c4a11628f55a4df523b3ef",
            "0x000000000000000000000000c77f7fed3b5cc8249adc428c5f44c9063b9734b4",
            "0x0000000000000000000000000000000000000000000000000000000000000000"
          ],
          "data": "0x000000000000000000000000000000000000000000000000000043e12e1da271",
          "blockHash": "0x0e1b613fb0eea07e36469e05ede60dc851edfc0eb736f0cc8a15371cacb43284",
          "blockNumber": "0x731f30",
          "transactionHash": "0xfc4f24fb3bf00f4de088eaab4b7f5353291edc5bc935af70e793f205572713d9",
          "transactionIndex": "0x62",
          "logIndex": "0x10dd",
          "removed": false
        },
        {
          "address": "0x8aafd3ede9adb0ff97c7aebce82a919afb1c8764",
          "topics": [
            "0xddf252ad1be2c89b69c2b068fc378daa952ba7f163c4a11628f55a4df523b3ef",
            "0x000000000000000000000000c77f7fed3b5cc8249adc428c5f44c9063b9734b4",
            "0x000000000000000000000000c77f7fed3b5cc8249adc428c5f44c9063b9734b4"
          ],
          "data": "0x0000000000000000000000000000000000000000000000000000008c2377fb1d",
          "blockHash": "0x0e1b613fb0eea07e36469e05ede60dc851edfc0eb736f0cc8a15371cacb43284",
          "blockNumber": "0x731f30",
          "transactionHash": "0xfc4f24fb3bf00f4de088eaab4b7f5353291edc5bc935af70e793f205572713d9",
          "transactionIndex": "0x62",
          "logIndex": "0x10de",
          "removed": false
        },
        {
          "address": "0x8aafd3ede9adb0ff97c7aebce82a919afb1c8764",
          "topics": [
            "0x4afcb4a87cdbd9974efdb92ee48bc8d7cd0ae4bf217004db3d080cbaee652ca7"
          ],
          "data": "0x000000000000000000000000000000000000000000000000000000006790732800000000000000000000000000000000000000000000000000181cfd37878e6700000000000000000000000000000000000000000000000000000076e5138e9d",
          "blockHash": "0x0e1b613fb0eea07e36469e05ede60dc851edfc0eb736f0cc8a15371cacb43284",
          "blockNumber": "0x731f30",
          "transactionHash": "0xfc4f24fb3bf00f4de088eaab4b7f5353291edc5bc935af70e793f205572713d9",
          "transactionIndex": "0x62",
          "logIndex": "0x10df",
          "removed": false
        }
      ],
      "logsBloom": "0x00000000000000000000000000000000000000000600000000000000000000000000000000000000000000000000000000000000000000004000000000000000000000000000004000000008000000000000000000000000000000000000000000000000020000000000000000000800020000000000000000000010000000000000000000000000000000000000000000000000000000000000010000000000000000000000000000000000000000004000000000000000000000000000000000000002000000800000000000000000000000000000080000000000000020000000000000000000000000000000000000000000000000000000000000000000",
      "type": "0x2",
      "transactionHash": "0xfc4f24fb3bf00f4de088eaab4b7f5353291edc5bc935af70e793f205572713d9",
      "transactionIndex": "0x62",
      "blockHash": "0x0e1b613fb0eea07e36469e05ede60dc851edfc0eb736f0cc8a15371cacb43284",
      "blockNumber": "0x731f30",
      "gasUsed": "0xfd27",
      "effectiveGasPrice": "0x42b9fd38",
      "from": "0xc77f7fed3b5cc8249adc428c5f44c9063b9734b4",
      "to": "0x8aafd3ede9adb0ff97c7aebce82a919afb1c8764",
      "contractAddress": null
    }
  ],
  "libraries": [],
  "pending": [],
  "returns": {},
  "timestamp": 1737519913,
  "chain": 11155111,
  "commit": "1d2fb70"
}