{
  "transactions": [
    {
      "hash": "0x6f7a4e6ddfdedf04434b3d6e9bea66cfb4352a8e327b385eb96adeebb1322df9",
      "transactionType": "CALL",
      "contractName": null,
      "contractAddress": "0x8aafd3ede9adb0ff97c7aebce82a919afb1c8764",
      "function": "sell(uint256)",
      "arguments": [
        "5597746483953372574"
      ],
      "transaction": {
        "from": "0xc77f7fed3b5cc8249adc428c5f44c9063b9734b4",
        "to": "0x8aafd3ede9adb0ff97c7aebce82a919afb1c8764",
        "gas": "0x15dca",
        "value": "0x0",
        "input": "0xe4849b320000000000000000000000000000000000000000000000004daf30c4debb8d9e",
        "nonce": "0x1100",
        "chainId": "0xaa36a7"
      },
      "additionalContracts": [],
      "isFixedGasLimit": false
    }
  ],
  "receipts": [
    {
      "status": "0x1",
      "cumulativeGasUsed": "0xdf68cc",
      "logs": [
        {
          "address": "0x8aafd3ede9adb0ff97c7aebce82a919afb1c8764",
          "topics": [
            "0xddf252ad1be2c89b69c2b068fc378daa952ba7f163c4a11628f55a4df523b3ef",
            "0x000000000000000000000000c77f7fed3b5cc8249adc428c5f44c9063b9734b4",
            "0x0000000000000000000000000000000000000000000000000000000000000000"
          ],
          "data": "0x0000000000000000000000000000000000000000000000004d1017cd88fb96ba",
          "blockHash": "0xf5717ebb5f956d16db868ff640ca6d1eb1b95bca2f7861a15537427d6b98f44c",
          "blockNumber": "0x7317ae",
          "transactionHash": "0x6f7a4e6ddfdedf04434b3d6e9bea66cfb4352a8e327b385eb96adeebb1322df9",
          "transactionIndex": "0x9a",
          "logIndex": "0xa5",
          "removed": false
        },
        {
          "address": "0x8aafd3ede9adb0ff97c7aebce82a919afb1c8764",
          "topics": [
            "0xddf252ad1be2c89b69c2b068fc378daa952ba7f163c4a11628f55a4df523b3ef",
            "0x000000000000000000000000c77f7fed3b5cc8249adc428c5f44c9063b9734b4",
            "0x000000000000000000000000c77f7fed3b5cc8249adc428c5f44c9063b9734b4"
          ],
          "data": "0x000000000000000000000000000000000000000000000000009f18f755bff6e4",
          "blockHash": "0xf5717ebb5f956d16db868ff640ca6d1eb1b95bca2f7861a15537427d6b98f44c",
          "blockNumber": "0x7317ae",
          "transactionHash": "0x6f7a4e6ddfdedf04434b3d6e9bea66cfb4352a8e327b385eb96adeebb1322df9",
          "transactionIndex": "0x9a",
          "logIndex": "0xa6",
          "removed": false
        },
        {
          "address": "0x8aafd3ede9adb0ff97c7aebce82a919afb1c8764",
          "topics": [
            "0x4afcb4a87cdbd9974efdb92ee48bc8d7cd0ae4bf217004db3d080cbaee652ca7"
          ],
          "data": "0x00000000000000000000000000000000000000000000000000000000679018ec00000000000000000000000000000000000000000000000000050c28b1a90ec2000000000000000000000000000000000000000000000000001c4121c3bd93b8",
          "blockHash": "0xf5717ebb5f956d16db868ff640ca6d1eb1b95bca2f7861a15537427d6b98f44c",
          "blockNumber": "0x7317ae",
          "transactionHash": "0x6f7a4e6ddfdedf04434b3d6e9bea66cfb4352a8e327b385eb96adeebb1322df9",
          "transactionIndex": "0x9a",
          "logIndex": "0xa7",
          "removed": false
        }
      ],
      "logsBloom": "0x00000000000000000000000000000000000000000600000000000000000000000000000000000000000000000000000000000000000000004000000000000000000000000000004000000008000000000000000000000000000000000000000000000000020000000000000000000800020000000000000000000010000000000000000000000000000000000000000000000000000000000000010000000000000000000000000000000000000000004000000000000000000000000000000000000002000000800000000000000000000000000000080000000000000020000000000000000000000000000000000000000000000000000000000000000000",
      "type": "0x2",
      "transactionHash": "0x6f7a4e6ddfdedf04434b3d6e9bea66cfb4352a8e327b385eb96adeebb1322df9",
      "transactionIndex": "0x9a",
      "blockHash": "0xf5717ebb5f956d16db868ff640ca6d1eb1b95bca2f7861a15537427d6b98f44c",
      "blockNumber": "0x7317ae",
      "gasUsed": "0xfd3f",
      "effectiveGasPrice": "0x3b0d876e",
      "from": "0xc77f7fed3b5cc8249adc428c5f44c9063b9734b4",
      "to": "0x8aafd3ede9adb0ff97c7aebce82a919afb1c8764",
      "contractAddress": null
    }
  ],
  "libraries": [],
  "pending": [],
  "returns": {},
  "timestamp": 1737496813,
  "chain": 11155111,
  "commit": "1d2fb70"
}