{
  "transactions": [
    {
      "hash": "0x99aaa27c7074df1aa51952b44f4d6557f4bb326afe6756f8e4e101b082fac0b5",
      "transactionType": "CALL",
      "contractName": null,
      "contractAddress": "0x8aafd3ede9adb0ff97c7aebce82a919afb1c8764",
      "function": "sell(uint256)",
      "arguments": [
        "188517705"
      ],
      "transaction": {
        "from": "0xc77f7fed3b5cc8249adc428c5f44c9063b9734b4",
        "to": "0x8aafd3ede9adb0ff97c7aebce82a919afb1c8764",
        "gas": "0x15d88",
        "value": "0x0",
        "input": "0xe4849b32000000000000000000000000000000000000000000000000000000000b3c8d49",
        "nonce": "0x1015",
        "chainId": "0xaa36a7"
      },
      "additionalContracts": [],
      "isFixedGasLimit": false
    }
  ],
  "receipts": [
    {
      "status": "0x1",
      "cumulativeGasUsed": "0x220d0b1",
      "logs": [
        {
          "address": "0x8aafd3ede9adb0ff97c7aebce82a919afb1c8764",
          "topics": [
            "0xddf252ad1be2c89b69c2b068fc378daa952ba7f163c4a11628f55a4df523b3ef",
            "0x000000000000000000000000c77f7fed3b5cc8249adc428c5f44c9063b9734b4",
            "0x0000000000000000000000000000000000000000000000000000000000000000"
          ],
          "data": "0x000000000000000000000000000000000000000000000000000000000b258a1c",
          "blockHash": "0x1883c5e5052cb2cf920b19b3d400d20ed36b7a46f954cc6b98264a397fbcfbfa",
          "blockNumber": "0x73168d",
          "transactionHash": "0x99aaa27c7074df1aa51952b44f4d6557f4bb326afe6756f8e4e101b082fac0b5",
          "transactionIndex": "0x69",
          "logIndex": "0x10ff",
          "removed": false
        },
        {
          "address": "0x8aafd3ede9adb0ff97c7aebce82a919afb1c8764",
          "topics": [
            "0xddf252ad1be2c89b69c2b068fc378daa952ba7f163c4a11628f55a4df523b3ef",
            "0x000000000000000000000000c77f7fed3b5cc8249adc428c5f44c9063b9734b4",
            "0x000000000000000000000000c77f7fed3b5cc8249adc428c5f44c9063b9734b4"
          ],
          "data": "0x000000000000000000000000000000000000000000000000000000000017032d",
          "blockHash": "0x1883c5e5052cb2cf920b19b3d400d20ed36b7a46f954cc6b98264a397fbcfbfa",
          "blockNumber": "0x73168d",
          "transactionHash": "0x99aaa27c7074df1aa51952b44f4d6557f4bb326afe6756f8e4e101b082fac0b5",
          "transactionIndex": "0x69",
          "logIndex": "0x1100",
          "removed": false
        },
        {
          "address": "0x8aafd3ede9adb0ff97c7aebce82a919afb1c8764",
          "topics": [
            "0x4afcb4a87cdbd9974efdb92ee48bc8d7cd0ae4bf217004db3d080cbaee652ca7"
          ],
          "data": "0x0000000000000000000000000000000000000000000000000000000067900b480000000000000000000000000000000000000000000000000004e94ddd75a0b9000000000000000000000000000000000000000000000000000000000003fa02",
          "blockHash": "0x1883c5e5052cb2cf920b19b3d400d20ed36b7a46f954cc6b98264a397fbcfbfa",
          "blockNumber": "0x73168d",
          "transactionHash": "0x99aaa27c7074df1aa51952b44f4d6557f4bb326afe6756f8e4e101b082fac0b5",
          "transactionIndex": "0x69",
          "logIndex": "0x1101",
          "removed": false
        }
      ],
      "logsBloom": "0x00000000000000000000000000000000000000000600000000000000000000000000000000000000000000000000000000000000000000004000000000000000000000000000004000000008000000000000000000000000000000000000000000000000020000000000000000000800020000000000000000000010000000000000000000000000000000000000000000000000000000000000010000000000000000000000000000000000000000004000000000000000000000000000000000000002000000800000000000000000000000000000080000000000000020000000000000000000000000000000000000000000000000000000000000000000",
      "type": "0x2",
      "transactionHash": "0x99aaa27c7074df1aa51952b44f4d6557f4bb326afe6756f8e4e101b082fac0b5",
      "transactionIndex": "0x69",
      "blockHash": "0x1883c5e5052cb2cf920b19b3d400d20ed36b7a46f954cc6b98264a397fbcfbfa",
      "blockNumber": "0x73168d",
      "gasUsed": "0xfd0f",
      "effectiveGasPrice": "0x3a0891f4",
      "from": "0xc77f7fed3b5cc8249adc428c5f44c9063b9734b4",
      "to": "0x8aafd3ede9adb0ff97c7aebce82a919afb1c8764",
      "contractAddress": null
    }
  ],
  "libraries": [],
  "pending": [],
  "returns": {},
  "timestamp": 1737493320,
  "chain": 11155111,
  "commit": "1d2fb70"
}