{
  "transactions": [
    {
      "hash": "0xd2e1617e36bc72123db51b03c5404d3a59b31c0a5b638c9ed95176293b09aae1",
      "transactionType": "CALL",
      "contractName": null,
      "contractAddress": "0x270e88f8683660553e8ba4eb2ad7c91a1710d769",
      "function": "sell(uint256)",
      "arguments": [
        "717207888702090510626"
      ],
      "transaction": {
        "from": "0xc77f7fed3b5cc8249adc428c5f44c9063b9734b4",
        "to": "0x270e88f8683660553e8ba4eb2ad7c91a1710d769",
        "gas": "0x15b6b",
        "value": "0x0",
        "input": "0xe4849b32000000000000000000000000000000000000000000000026e14246d824000122",
        "nonce": "0x844",
        "chainId": "0xaa36a7"
      },
      "additionalContracts": [],
      "isFixedGasLimit": false
    }
  ],
  "receipts": [
    {
      "status": "0x1",
      "cumulativeGasUsed": "0x1957d98",
      "logs": [
        {
          "address": "0x270e88f8683660553e8ba4eb2ad7c91a1710d769",
          "topics": [
            "0xddf252ad1be2c89b69c2b068fc378daa952ba7f163c4a11628f55a4df523b3ef",
            "0x000000000000000000000000c77f7fed3b5cc8249adc428c5f44c9063b9734b4",
            "0x0000000000000000000000000000000000000000000000000000000000000000"
          ],
          "data": "0x000000000000000000000000000000000000000000000026e14246d824000122",
          "blockHash": "0x3dbd293bda65c8425f3e1ed9ffe55c829e1d69be446cb75cee8d0cd80b07fe72",
          "blockNumber": "0x725592",
          "transactionHash": "0xd2e1617e36bc72123db51b03c5404d3a59b31c0a5b638c9ed95176293b09aae1",
          "transactionIndex": "0x59",
          "logIndex": "0x112",
          "removed": false
        },
        {
          "address": "0x270e88f8683660553e8ba4eb2ad7c91a1710d769",
          "topics": [
            "0x4afcb4a87cdbd9974efdb92ee48bc8d7cd0ae4bf217004db3d080cbaee652ca7"
          ],
          "data": "0x000000000000000000000000000000000000000000000000000000006786f4e00000000000000000000000000000000000000000000000000004eb8656d684470000000000000000000000000000000000000000000000000dc82623e28c74c1",
          "blockHash": "0x3dbd293bda65c8425f3e1ed9ffe55c829e1d69be446cb75cee8d0cd80b07fe72",
          "blockNumber": "0x725592",
          "transactionHash": "0xd2e1617e36bc72123db51b03c5404d3a59b31c0a5b638c9ed95176293b09aae1",
          "transactionIndex": "0x59",
          "logIndex": "0x113",
          "removed": false
        }
      ],
      "logsBloom": "0x00000000000000000000000000000000000000000000000000000000000000000000000000000000000000000000000020000000000000004000000000000000000000000000000000000008000000000000000000000000000000000000000000000000020000000000000000000800020000000000000000000010000000000000000000010000000000000000000000000000000000000000010000000000000000000000000000000000000000004000000000000000000000000000000000000002000000800000000000000000000000000000080000008000000020000000000000000000000000000000000000000000000000000000000000000000",
      "type": "0x2",
      "transactionHash": "0xd2e1617e36bc72123db51b03c5404d3a59b31c0a5b638c9ed95176293b09aae1",
      "transactionIndex": "0x59",
      "blockHash": "0x3dbd293bda65c8425f3e1ed9ffe55c829e1d69be446cb75cee8d0cd80b07fe72",
      "blockNumber": "0x725592",
      "gasUsed": "0xfb87",
      "effectiveGasPrice": "0x6811a21c",
      "from": "0xc77f7fed3b5cc8249adc428c5f44c9063b9734b4",
      "to": "0x270e88f8683660553e8ba4eb2ad7c91a1710d769",
      "contractAddress": null
    }
  ],
  "libraries": [],
  "pending": [],
  "returns": {},
  "timestamp": 1736897763,
  "chain": 11155111,
  "commit": "51a374b"
}