{
  "transactions": [
    {
      "hash": "0x4abf302edc5d2c61cabd0c3dec42b2bf0fa3d0a269a7ad0805e0548f61d5c2f2",
      "transactionType": "CALL",
      "contractName": null,
      "contractAddress": "0x270e88f8683660553e8ba4eb2ad7c91a1710d769",
      "function": "sell(uint256)",
      "arguments": [
        "824776631876996910409"
      ],
      "transaction": {
        "from": "0xc77f7fed3b5cc8249adc428c5f44c9063b9734b4",
        "to": "0x270e88f8683660553e8ba4eb2ad7c91a1710d769",
        "gas": "0x16fec",
        "value": "0x0",
        "input": "0xe4849b3200000000000000000000000000000000000000000000002cb61338d697854d49",
        "nonce": "0x649",
        "chainId": "0xaa36a7"
      },
      "additionalContracts": [],
      "isFixedGasLimit": false
    }
  ],
  "receipts": [
    {
      "status": "0x1",
      "cumulativeGasUsed": "0x12afb6e",
      "logs": [
        {
          "address": "0x270e88f8683660553e8ba4eb2ad7c91a1710d769",
          "topics": [
            "0xddf252ad1be2c89b69c2b068fc378daa952ba7f163c4a11628f55a4df523b3ef",
            "0x000000000000000000000000c77f7fed3b5cc8249adc428c5f44c9063b9734b4",
            "0x0000000000000000000000000000000000000000000000000000000000000000"
          ],
          "data": "0x00000000000000000000000000000000000000000000002cb61338d697854d49",
          "blockHash": "0x6c640dfe7b1e73c362cf46760ea03729f32b38f36de15e20dde705c8b072c9da",
          "blockNumber": "0x725332",
          "transactionHash": "0x4abf302edc5d2c61cabd0c3dec42b2bf0fa3d0a269a7ad0805e0548f61d5c2f2",
          "transactionIndex": "0x46",
          "logIndex": "0x71",
          "removed": false
        },
        {
          "address": "0x270e88f8683660553e8ba4eb2ad7c91a1710d769",
          "topics": [
            "0x4afcb4a87cdbd9974efdb92ee48bc8d7cd0ae4bf217004db3d080cbaee652ca7"
          ],
          "data": "0x000000000000000000000000000000000000000000000000000000006786d8600000000000000000000000000000000000000000000000000004470558adad670000000000000000000000000000000000000000000000000dc7e0f984526ca6",
          "blockHash": "0x6c640dfe7b1e73c362cf46760ea03729f32b38f36de15e20dde705c8b072c9da",
          "blockNumber": "0x725332",
          "transactionHash": "0x4abf302edc5d2c61cabd0c3dec42b2bf0fa3d0a269a7ad0805e0548f61d5c2f2",
          "transactionIndex": "0x46",
          "logIndex": "0x72",
          "removed": false
        }
      ],
      "logsBloom": "0x00000000000000000000000000000000000000000000000000000000000000000000000000000000000000000000000020000000000000004000000000000000000000000000000000000008000000000000000000000000000000000000000000000000020000000000000000000800020000000000000000000010000000000000000000010000000000000000000000000000000000000000010000000000000000000000000000000000000000004000000000000000000000000000000000000002000000800000000000000000000000000000080000008000000020000000000000000000000000000000000000000000000000000000000000000000",
      "type": "0x2",
      "transactionHash": "0x4abf302edc5d2c61cabd0c3dec42b2bf0fa3d0a269a7ad0805e0548f61d5c2f2",
      "transactionIndex": "0x46",
      "blockHash": "0x6c640dfe7b1e73c362cf46760ea03729f32b38f36de15e20dde705c8b072c9da",
      "blockNumber": "0x725332",
      "gasUsed": "0xfb93",
      "effectiveGasPrice": "0x1d8adf407",
      "from": "0xc77f7fed3b5cc8249adc428c5f44c9063b9734b4",
      "to": "0x270e88f8683660553e8ba4eb2ad7c91a1710d769",
      "contractAddress": null
    }
  ],
  "libraries": [],
  "pending": [],
  "returns": {},
  "timestamp": 1736890464,
  "chain": 11155111,
  "commit": "51a374b"
}