{
  "transactions": [
    {
      "hash": "0x8bce70701e142e082fd5720fef3c35c07afcb914efeff53a00e620479911e374",
      "transactionType": "CALL",
      "contractName": null,
      "contractAddress": "0x270e88f8683660553e8ba4eb2ad7c91a1710d769",
      "function": "sell(uint256)",
      "arguments": [
        "755154274217053554128"
      ],
      "transaction": {
        "from": "0xc77f7fed3b5cc8249adc428c5f44c9063b9734b4",
        "to": "0x270e88f8683660553e8ba4eb2ad7c91a1710d769",
        "gas": "0x16fec",
        "value": "0x0",
        "input": "0xe4849b32000000000000000000000000000000000000000000000028efdeeb6bed6685d0",
        "nonce": "0x694",
        "chainId": "0xaa36a7"
      },
      "additionalContracts": [],
      "isFixedGasLimit": false
    }
  ],
  "receipts": [
    {
      "status": "0x1",
      "cumulativeGasUsed": "0x626b47",
      "logs": [
        {
          "address": "0x270e88f8683660553e8ba4eb2ad7c91a1710d769",
          "topics": [
            "0xddf252ad1be2c89b69c2b068fc378daa952ba7f163c4a11628f55a4df523b3ef",
            "0x000000000000000000000000c77f7fed3b5cc8249adc428c5f44c9063b9734b4",
            "0x0000000000000000000000000000000000000000000000000000000000000000"
          ],
          "data": "0x000000000000000000000000000000000000000000000028efdeeb6bed6685d0",
          "blockHash": "0x55815dd0b4496f88608bcadbc78f3ce73a120253732cf27dbaa095db267b2420",
          "blockNumber": "0x725398",
          "transactionHash": "0x8bce70701e142e082fd5720fef3c35c07afcb914efeff53a00e620479911e374",
          "transactionIndex": "0x3c",
          "logIndex": "0x56",
          "removed": false
        },
        {
          "address": "0x270e88f8683660553e8ba4eb2ad7c91a1710d769",
          "topics": [
            "0x4afcb4a87cdbd9974efdb92ee48bc8d7cd0ae4bf217004db3d080cbaee652ca7"
          ],
          "data": "0x000000000000000000000000000000000000000000000000000000006786dd280000000000000000000000000000000000000000000000000004ac3f9d64f3960000000000000000000000000000000000000000000000000dc82a116078d2dc",
          "blockHash": "0x55815dd0b4496f88608bcadbc78f3ce73a120253732cf27dbaa095db267b2420",
          "blockNumber": "0x725398",
          "transactionHash": "0x8bce70701e142e082fd5720fef3c35c07afcb914efeff53a00e620479911e374",
          "transactionIndex": "0x3c",
          "logIndex": "0x57",
          "removed": false
        }
      ],
      "logsBloom": "0x00000000000000000000000000000000000000000000000000000000000000000000000000000000000000000000000020000000000000004000000000000000000000000000000000000008000000000000000000000000000000000000000000000000020000000000000000000800020000000000000000000010000000000000000000010000000000000000000000000000000000000000010000000000000000000000000000000000000000004000000000000000000000000000000000000002000000800000000000000000000000000000080000008000000020000000000000000000000000000000000000000000000000000000000000000000",
      "type": "0x2",
      "transactionHash": "0x8bce70701e142e082fd5720fef3c35c07afcb914efeff53a00e620479911e374",
      "transactionIndex": "0x3c",
      "blockHash": "0x55815dd0b4496f88608bcadbc78f3ce73a120253732cf27dbaa095db267b2420",
      "blockNumber": "0x725398",
      "gasUsed": "0xfb93",
      "effectiveGasPrice": "0x1e2fe3325",
      "from": "0xc77f7fed3b5cc8249adc428c5f44c9063b9734b4",
      "to": "0x270e88f8683660553e8ba4eb2ad7c91a1710d769",
      "contractAddress": null
    }
  ],
  "libraries": [],
  "pending": [],
  "returns": {},
  "timestamp": 1736891689,
  "chain": 11155111,
  "commit": "51a374b"
}