{
  "transactions": [
    {
      "hash": "0x2773d8b6548b72c2e9c2a50b9a0f3e70742e3e2bc54001c516ba8868823f62d6",
      "transactionType": "CALL",
      "contractName": null,
      "contractAddress": "0x8aafd3ede9adb0ff97c7aebce82a919afb1c8764",
      "function": "sell(uint256)",
      "arguments": [
        "12545"
      ],
      "transaction": {
        "from": "0xc77f7fed3b5cc8249adc428c5f44c9063b9734b4",
        "to": "0x8aafd3ede9adb0ff97c7aebce82a919afb1c8764",
        "gas": "0x14e4c",
        "value": "0x0",
        "input": "0xe4849b320000000000000000000000000000000000000000000000000000000000003101",
        "nonce": "0xeb8",
        "chainId": "0xaa36a7"
      },
      "additionalContracts": [],
      "isFixedGasLimit": false
    }
  ],
  "receipts": [
    {
      "status": "0x1",
      "cumulativeGasUsed": "0x1227b0e",
      "logs": [
        {
          "address": "0x8aafd3ede9adb0ff97c7aebce82a919afb1c8764",
          "topics": [
            "0xddf252ad1be2c89b69c2b068fc378daa952ba7f163c4a11628f55a4df523b3ef",
            "0x000000000000000000000000c77f7fed3b5cc8249adc428c5f44c9063b9734b4",
            "0x0000000000000000000000000000000000000000000000000000000000000000"
          ],
          "data": "0x000000000000000000000000000000000000000000000000000000000000309d",
          "blockHash": "0x9f20c1091514c709924e4883b30cbd48b114b8e518f5efa65ef05363cab0ccbe",
          "blockNumber": "0x73141b",
          "transactionHash": "0x2773d8b6548b72c2e9c2a50b9a0f3e70742e3e2bc54001c516ba8868823f62d6",
          "transactionIndex": "0xa8",
          "logIndex": "0x117",
          "removed": false
        },
        {
          "address": "0x8aafd3ede9adb0ff97c7aebce82a919afb1c8764",
          "topics": [
            "0xddf252ad1be2c89b69c2b068fc378daa952ba7f163c4a11628f55a4df523b3ef",
            "0x000000000000000000000000c77f7fed3b5cc8249adc428c5f44c9063b9734b4",
            "0x000000000000000000000000c77f7fed3b5cc8249adc428c5f44c9063b9734b4"
          ],
          "data": "0x0000000000000000000000000000000000000000000000000000000000000064",
          "blockHash": "0x9f20c1091514c709924e4883b30cbd48b114b8e518f5efa65ef05363cab0ccbe",
          "blockNumber": "0x73141b",
          "transactionHash": "0x2773d8b6548b72c2e9c2a50b9a0f3e70742e3e2bc54001c516ba8868823f62d6",
          "transactionIndex": "0xa8",
          "logIndex": "0x118",
          "removed": false
        },
        {
          "address": "0x8aafd3ede9adb0ff97c7aebce82a919afb1c8764",
          "topics": [
            "0x4afcb4a87cdbd9974efdb92ee48bc8d7cd0ae4bf217004db3d080cbaee652ca7"
          ],
          "data": "0x00000000000000000000000000000000000000000000000000000000678fedf00000000000000000000000000000000000000000000000000004b832f5b36a720000000000000000000000000000000000000000000000000000000000000010",
          "blockHash": "0x9f20c1091514c709924e4883b30cbd48b114b8e518f5efa65ef05363cab0ccbe",
          "blockNumber": "0x73141b",
          "transactionHash": "0x2773d8b6548b72c2e9c2a50b9a0f3e70742e3e2bc54001c516ba8868823f62d6",
          "transactionIndex": "0xa8",
          "logIndex": "0x119",
          "removed": false
        }
      ],
      "logsBloom": "0x00000000000000000000000000000000000000000600000000000000000000000000000000000000000000000000000000000000000000004000000000000000000000000000004000000008000000000000000000000000000000000000000000000000020000000000000000000800020000000000000000000010000000000000000000000000000000000000000000000000000000000000010000000000000000000000000000000000000000004000000000000000000000000000000000000002000000800000000000000000000000000000080000000000000020000000000000000000000000000000000000000000000000000000000000000000",
      "type": "0x2",
      "transactionHash": "0x2773d8b6548b72c2e9c2a50b9a0f3e70742e3e2bc54001c516ba8868823f62d6",
      "transactionIndex": "0xa8",
      "blockHash": "0x9f20c1091514c709924e4883b30cbd48b114b8e518f5efa65ef05363cab0ccbe",
      "blockNumber": "0x73141b",
      "gasUsed": "0xf207",
      "effectiveGasPrice": "0xad710343",
      "from": "0xc77f7fed3b5cc8249adc428c5f44c9063b9734b4",
      "to": "0x8aafd3ede9adb0ff97c7aebce82a919afb1c8764",
      "contractAddress": null
    }
  ],
  "libraries": [],
  "pending": [],
  "returns": {},
  "timestamp": 1737485810,
  "chain": 11155111,
  "commit": "51a374b"
}