{
  "transactions": [
    {
      "hash": "0xdecfbd1c3000ee146ba1e87635bb799a1c49d4e432544c76b431fa9ae058a4e2",
      "transactionType": "CALL",
      "contractName": null,
      "contractAddress": "0x5eb9cc76c3506942c1c0ead70e877dd5e4f00cb0",
      "function": "buy(address)",
      "arguments": [
        "0xC77f7fed3b5Cc8249aDc428c5F44C9063B9734b4"
      ],
      "transaction": {
        "from": "0xc77f7fed3b5cc8249adc428c5f44c9063b9734b4",
        "to": "0x5eb9cc76c3506942c1c0ead70e877dd5e4f00cb0",
        "gas": "0x1b30c",
        "value": "0xde0b6b3a7640000",
        "input": "0xf088d547000000000000000000000000c77f7fed3b5cc8249adc428c5f44c9063b9734b4",
        "nonce": "0x306",
        "chainId": "0xaa36a7"
      },
      "additionalContracts": [],
      "isFixedGasLimit": false
    }
  ],
  "receipts": [
    {
      "status": "0x1",
      "cumulativeGasUsed": "0x97bb76",
      "logs": [
        {
          "address": "0x5eb9cc76c3506942c1c0ead70e877dd5e4f00cb0",
          "topics": [
            "0xddf252ad1be2c89b69c2b068fc378daa952ba7f163c4a11628f55a4df523b3ef",
            "0x0000000000000000000000000000000000000000000000000000000000000000",
            "0x000000000000000000000000c77f7fed3b5cc8249adc428c5f44c9063b9734b4"
          ],
          "data": "0x000000000000000000000000000000000000000000000035758f550ea00a54a9",
          "blockHash": "0xa707129a1cbd73753acd264b2d80cc971e5d208eca7173daae7771f4470461c6",
          "blockNumber": "0x724ee9",
          "transactionHash": "0xdecfbd1c3000ee146ba1e87635bb799a1c49d4e432544c76b431fa9ae058a4e2",
          "transactionIndex": "0x4e",
          "logIndex": "0x6e",
          "removed": false
        },
        {
          "address": "0x5eb9cc76c3506942c1c0ead70e877dd5e4f00cb0",
          "topics": [
            "0xddf252ad1be2c89b69c2b068fc378daa952ba7f163c4a11628f55a4df523b3ef",
            "0x0000000000000000000000000000000000000000000000000000000000000000",
            "0x000000000000000000000000c77f7fed3b5cc8249adc428c5f44c9063b9734b4"
          ],
          "data": "0x00000000000000000000000000000000000000000000000029834dd76e7f3e3f",
          "blockHash": "0xa707129a1cbd73753acd264b2d80cc971e5d208eca7173daae7771f4470461c6",
          "blockNumber": "0x724ee9",
          "transactionHash": "0xdecfbd1c3000ee146ba1e87635bb799a1c49d4e432544c76b431fa9ae058a4e2",
          "transactionIndex": "0x4e",
          "logIndex": "0x6f",
          "removed": false
        },
        {
          "address": "0x5eb9cc76c3506942c1c0ead70e877dd5e4f00cb0",
          "topics": [
            "0x4afcb4a87cdbd9974efdb92ee48bc8d7cd0ae4bf217004db3d080cbaee652ca7"
          ],
          "data": "0x000000000000000000000000000000000000000000000000000000006786a4a00000000000000000000000000000000000000000000000000003910c0263268b0000000000000000000000000000000000000000000000000de0b6b3a7640000",
          "blockHash": "0xa707129a1cbd73753acd264b2d80cc971e5d208eca7173daae7771f4470461c6",
          "blockNumber": "0x724ee9",
          "transactionHash": "0xdecfbd1c3000ee146ba1e87635bb799a1c49d4e432544c76b431fa9ae058a4e2",
          "transactionIndex": "0x4e",
          "logIndex": "0x70",
          "removed": false
        }
      ],
      "logsBloom": "0x00000000000000000000000000000000000000000000000000000000000000000000000000000000000000000000000000000000000000004000000000000000000000000000000000000008000000000000000000000000000000000000000000000000020000000000000004000800020000000000000000000010000000000000000000000000000000000000000000000000000000000000010000000000000000000000000000000000000000004000000000000000000000000000020000000002000000800000008000000000000000000000080000000000000020000000000000000000000000000000000000000000000000000000000000000000",
      "type": "0x2",
      "transactionHash": "0xdecfbd1c3000ee146ba1e87635bb799a1c49d4e432544c76b431fa9ae058a4e2",
      "transactionIndex": "0x4e",
      "blockHash": "0xa707129a1cbd73753acd264b2d80cc971e5d208eca7173daae7771f4470461c6",
      "blockNumber": "0x724ee9",
      "gasUsed": "0x13af8",
      "effectiveGasPrice": "0x67ee3876c",
      "from": "0xc77f7fed3b5cc8249adc428c5f44c9063b9734b4",
      "to": "0x5eb9cc76c3506942c1c0ead70e877dd5e4f00cb0",
      "contractAddress": null
    }
  ],
  "libraries": [],
  "pending": [],
  "returns": {},
  "timestamp": 1736877217,
  "chain": 11155111,
  "commit": "51a374b"
}