{
  "transactions": [
    {
      "hash": "0x2f2d47329fa5db7a5ba770108909715d65ec27dee9a12eeb8a232b5e30e547af",
      "transactionType": "CALL",
      "contractName": null,
      "contractAddress": "0x8aafd3ede9adb0ff97c7aebce82a919afb1c8764",
      "function": "sell(uint256)",
      "arguments": [
        "1851694011225747264"
      ],
      "transaction": {
        "from": "0xc77f7fed3b5cc8249adc428c5f44c9063b9734b4",
        "to": "0x8aafd3ede9adb0ff97c7aebce82a919afb1c8764",
        "gas": "0x15dca",
        "value": "0x0",
        "input": "0xe4849b3200000000000000000000000000000000000000000000000019b289e47bd42f40",
        "nonce": "0x1467",
        "chainId": "0xaa36a7"
      },
      "additionalContracts": [],
      "isFixedGasLimit": false
    }
  ],
  "receipts": [
    {
      "status": "0x1",
      "cumulativeGasUsed": "0x6368f0",
      "logs": [
        {
          "address": "0x8aafd3ede9adb0ff97c7aebce82a919afb1c8764",
          "topics": [
            "0xddf252ad1be2c89b69c2b068fc378daa952ba7f163c4a11628f55a4df523b3ef",
            "0x000000000000000000000000c77f7fed3b5cc8249adc428c5f44c9063b9734b4",
            "0x0000000000000000000000000000000000000000000000000000000000000000"
          ],
          "data": "0x000000000000000000000000000000000000000000000000197de90b9da77aa6",
          "blockHash": "0x77a4b4b067ffc4da0e77bba6069ba51a2d19b5ccc05bb4ece99a040d8a1595aa",
          "blockNumber": "0x731bb2",
          "transactionHash": "0x2f2d47329fa5db7a5ba770108909715d65ec27dee9a12eeb8a232b5e30e547af",
          "transactionIndex": "0x45",
          "logIndex": "0x5b",
          "removed": false
        },
        {
          "address": "0x8aafd3ede9adb0ff97c7aebce82a919afb1c8764",
          "topics": [
            "0xddf252ad1be2c89b69c2b068fc378daa952ba7f163c4a11628f55a4df523b3ef",
            "0x000000000000000000000000c77f7fed3b5cc8249adc428c5f44c9063b9734b4",
            "0x000000000000000000000000c77f7fed3b5cc8249adc428c5f44c9063b9734b4"
          ],
          "data": "0x0000000000000000000000000000000000000000000000000034a0d8de2cb49a",
          "blockHash": "0x77a4b4b067ffc4da0e77bba6069ba51a2d19b5ccc05bb4ece99a040d8a1595aa",
          "blockNumber": "0x731bb2",
          "transactionHash": "0x2f2d47329fa5db7a5ba770108909715d65ec27dee9a12eeb8a232b5e30e547af",
          "transactionIndex": "0x45",
          "logIndex": "0x5c",
          "removed": false
        },
        {
          "address": "0x8aafd3ede9adb0ff97c7aebce82a919afb1c8764",
          "topics": [
            "0x4afcb4a87cdbd9974efdb92ee48bc8d7cd0ae4bf217004db3d080cbaee652ca7"
          ],
          "data": "0x0000000000000000000000000000000000000000000000000000000067904934000000000000000000000000000000000000000000000000000f583f038c02e7000000000000000000000000000000000000000000000000001c699cf5b50531",
          "blockHash": "0x77a4b4b067ffc4da0e77bba6069ba51a2d19b5ccc05bb4ece99a040d8a1595aa",
          "blockNumber": "0x731bb2",
          "transactionHash": "0x2f2d47329fa5db7a5ba770108909715d65ec27dee9a12eeb8a232b5e30e547af",
          "transactionIndex": "0x45",
          "logIndex": "0x5d",
          "removed": false
        }
      ],
      "logsBloom": "0x00000000000000000000000000000000000000000600000000000000000000000000000000000000000000000000000000000000000000004000000000000000000000000000004000000008000000000000000000000000000000000000000000000000020000000000000000000800020000000000000000000010000000000000000000000000000000000000000000000000000000000000010000000000000000000000000000000000000000004000000000000000000000000000000000000002000000800000000000000000000000000000080000000000000020000000000000000000000000000000000000000000000000000000000000000000",
      "type": "0x2",
      "transactionHash": "0x2f2d47329fa5db7a5ba770108909715d65ec27dee9a12eeb8a232b5e30e547af",
      "transactionIndex": "0x45",
      "blockHash": "0x77a4b4b067ffc4da0e77bba6069ba51a2d19b5ccc05bb4ece99a040d8a1595aa",
      "blockNumber": "0x731bb2",
      "gasUsed": "0xfd3f",
      "effectiveGasPrice": "0x107412883",
      "from": "0xc77f7fed3b5cc8249adc428c5f44c9063b9734b4",
      "to": "0x8aafd3ede9adb0ff97c7aebce82a919afb1c8764",
      "contractAddress": null
    }
  ],
  "libraries": [],
  "pending": [],
  "returns": {},
  "timestamp": 1737509173,
  "chain": 11155111,
  "commit": "1d2fb70"
}