{
  "transactions": [
    {
      "hash": "0x372d1e4a297bb4047763a040519eded85daf9a377c771d0a73e609d1e343a4d0",
      "transactionType": "CALL",
      "contractName": null,
      "contractAddress": "0x5eb9cc76c3506942c1c0ead70e877dd5e4f00cb0",
      "function": "sell(uint256)",
      "arguments": [
        "989111472651352913857"
      ],
      "transaction": {
        "from": "0xc77f7fed3b5cc8249adc428c5f44c9063b9734b4",
        "to": "0x5eb9cc76c3506942c1c0ead70e877dd5e4f00cb0",
        "gas": "0x16fec",
        "value": "0x0",
        "input": "0xe4849b320000000000000000000000000000000000000000000000359eaddbd6d763b7c1",
        "nonce": "0x3b9",
        "chainId": "0xaa36a7"
      },
      "additionalContracts": [],
      "isFixedGasLimit": false
    }
  ],
  "receipts": [
    {
      "status": "0x1",
      "cumulativeGasUsed": "0x1294f0b",
      "logs": [
        {
          "address": "0x5eb9cc76c3506942c1c0ead70e877dd5e4f00cb0",
          "topics": [
            "0xddf252ad1be2c89b69c2b068fc378daa952ba7f163c4a11628f55a4df523b3ef",
            "0x000000000000000000000000c77f7fed3b5cc8249adc428c5f44c9063b9734b4",
            "0x0000000000000000000000000000000000000000000000000000000000000000"
          ],
          "data": "0x0000000000000000000000000000000000000000000000359eaddbd6d763b7c1",
          "blockHash": "0x72c44db4506e8b2cfe7427ea616d33159870bae695d8b67fe9f40989dae0453b",
          "blockNumber": "0x724fb8",
          "transactionHash": "0x372d1e4a297bb4047763a040519eded85daf9a377c771d0a73e609d1e343a4d0",
          "transactionIndex": "0x90",
          "logIndex": "0x159",
          "removed": false
        },
        {
          "address": "0x5eb9cc76c3506942c1c0ead70e877dd5e4f00cb0",
          "topics": [
            "0x4afcb4a87cdbd9974efdb92ee48bc8d7cd0ae4bf217004db3d080cbaee652ca7"
          ],
          "data": "0x000000000000000000000000000000000000000000000000000000006786ae6c00000000000000000000000000000000000000000000000000039112c2c622660000000000000000000000000000000000000000000000000dc7db1331fbdcc5",
          "blockHash": "0x72c44db4506e8b2cfe7427ea616d33159870bae695d8b67fe9f40989dae0453b",
          "blockNumber": "0x724fb8",
          "transactionHash": "0x372d1e4a297bb4047763a040519eded85daf9a377c771d0a73e609d1e343a4d0",
          "transactionIndex": "0x90",
          "logIndex": "0x15a",
          "removed": false
        }
      ],
      "logsBloom": "0x00000000000000000000000000000000000000000000000000000000000000000000000000000000000000000000000000000000000000004000000000000000000000000000000000000008000000000000000000000000000000000000000000000000020000000000000004000800020000000000000000000010000000000000000000000000000000000000000000000000000000000000010000000000000000000000000000000000000000004000000000000000000000000000020000000002000000800000008000000000000000000000080000000000000020000000000000000000000000000000000000000000000000000000000000000000",
      "type": "0x2",
      "transactionHash": "0x372d1e4a297bb4047763a040519eded85daf9a377c771d0a73e609d1e343a4d0",
      "transactionIndex": "0x90",
      "blockHash": "0x72c44db4506e8b2cfe7427ea616d33159870bae695d8b67fe9f40989dae0453b",
      "blockNumber": "0x724fb8",
      "gasUsed": "0xfb93",
      "effectiveGasPrice": "0x3c9060881",
      "from": "0xc77f7fed3b5cc8249adc428c5f44c9063b9734b4",
      "to": "0x5eb9cc76c3506942c1c0ead70e877dd5e4f00cb0",
      "contractAddress": null
    }
  ],
  "libraries": [],
  "pending": [],
  "returns": {},
  "timestamp": 1736879725,
  "chain": 11155111,
  "commit": "51a374b"
}