{
  "transactions": [
    {
      "hash": "0x1090f7adf588ffd3fe09468bb1c285ca572aa096dbf926275b0c73fc40ad0115",
      "transactionType": "CALL",
      "contractName": null,
      "contractAddress": "0x8aafd3ede9adb0ff97c7aebce82a919afb1c8764",
      "function": "sell(uint256)",
      "arguments": [
        "3041619928807"
      ],
      "transaction": {
        "from": "0xc77f7fed3b5cc8249adc428c5f44c9063b9734b4",
        "to": "0x8aafd3ede9adb0ff97c7aebce82a919afb1c8764",
        "gas": "0x15daa",
        "value": "0x0",
        "input": "0xe4849b32000000000000000000000000000000000000000000000000000002c42eace6e7",
        "nonce": "0xf4d",
        "chainId": "0xaa36a7"
      },
      "additionalContracts": [],
      "isFixedGasLimit": false
    }
  ],
  "receipts": [
    {
      "status": "0x1",
      "cumulativeGasUsed": "0xf96678",
      "logs": [
        {
          "address": "0x8aafd3ede9adb0ff97c7aebce82a919afb1c8764",
          "topics": [
            "0xddf252ad1be2c89b69c2b068fc378daa952ba7f163c4a11628f55a4df523b3ef",
            "0x000000000000000000000000c77f7fed3b5cc8249adc428c5f44c9063b9734b4",
            "0x0000000000000000000000000000000000000000000000000000000000000000"
          ],
          "data": "0x000000000000000000000000000000000000000000000000000002be84516821",
          "blockHash": "0xe479a0aa045b345eab08f9e846b24d702d1abaf45b4ec442027810496e136c58",
          "blockNumber": "0x7315a8",
          "transactionHash": "0x1090f7adf588ffd3fe09468bb1c285ca572aa096dbf926275b0c73fc40ad0115",
          "transactionIndex": "0x9b",
          "logIndex": "0xe3",
          "removed": false
        },
        {
          "address": "0x8aafd3ede9adb0ff97c7aebce82a919afb1c8764",
          "topics": [
            "0xddf252ad1be2c89b69c2b068fc378daa952ba7f163c4a11628f55a4df523b3ef",
            "0x000000000000000000000000c77f7fed3b5cc8249adc428c5f44c9063b9734b4",
            "0x000000000000000000000000c77f7fed3b5cc8249adc428c5f44c9063b9734b4"
          ],
          "data": "0x00000000000000000000000000000000000000000000000000000005aa5b7ec6",
          "blockHash": "0xe479a0aa045b345eab08f9e846b24d702d1abaf45b4ec442027810496e136c58",
          "blockNumber": "0x7315a8",
          "transactionHash": "0x1090f7adf588ffd3fe09468bb1c285ca572aa096dbf926275b0c73fc40ad0115",
          "transactionIndex": "0x9b",
          "logIndex": "0xe4",
          "removed": false
        },
        {
          "address": "0x8aafd3ede9adb0ff97c7aebce82a919afb1c8764",
          "topics": [
            "0x4afcb4a87cdbd9974efdb92ee48bc8d7cd0ae4bf217004db3d080cbaee652ca7"
          ],
          "data": "0x000000000000000000000000000000000000000000000000000000006790008c0000000000000000000000000000000000000000000000000004c087ad0df3bf00000000000000000000000000000000000000000000000000000000f27f6bcf",
          "blockHash": "0xe479a0aa045b345eab08f9e846b24d702d1abaf45b4ec442027810496e136c58",
          "blockNumber": "0x7315a8",
          "transactionHash": "0x1090f7adf588ffd3fe09468bb1c285ca572aa096dbf926275b0c73fc40ad0115",
          "transactionIndex": "0x9b",
          "logIndex": "0xe5",
          "removed": false
        }
      ],
      "logsBloom": "0x00000000000000000000000000000000000000000600000000000000000000000000000000000000000000000000000000000000000000004000000000000000000000000000004000000008000000000000000000000000000000000000000000000000020000000000000000000800020000000000000000000010000000000000000000000000000000000000000000000000000000000000010000000000000000000000000000000000000000004000000000000000000000000000000000000002000000800000000000000000000000000000080000000000000020000000000000000000000000000000000000000000000000000000000000000000",
      "type": "0x2",
      "transactionHash": "0x1090f7adf588ffd3fe09468bb1c285ca572aa096dbf926275b0c73fc40ad0115",
      "transactionIndex": "0x9b",
      "blockHash": "0xe479a0aa045b345eab08f9e846b24d702d1abaf45b4ec442027810496e136c58",
      "blockNumber": "0x7315a8",
      "gasUsed": "0xfd27",
      "effectiveGasPrice": "0x786fdb91",
      "from": "0xc77f7fed3b5cc8249adc428c5f44c9063b9734b4",
      "to": "0x8aafd3ede9adb0ff97c7aebce82a919afb1c8764",
      "contractAddress": null
    }
  ],
  "libraries": [],
  "pending": [],
  "returns": {},
  "timestamp": 1737490573,
  "chain": 11155111,
  "commit": "1d2fb70"
}