{
  "transactions": [
    {
      "hash": "0xe9260c95d10470d4d652ddb150bd85a4294a10db722c751c181d1d8fd656dddf",
      "transactionType": "CALL",
      "contractName": null,
      "contractAddress": "0x5eb9cc76c3506942c1c0ead70e877dd5e4f00cb0",
      "function": "buy(address)",
      "arguments": [
        "0xC77f7fed3b5Cc8249aDc428c5F44C9063B9734b4"
      ],
      "transaction": {
        "from": "0xc77f7fed3b5cc8249adc428c5f44c9063b9734b4",
        "to": "0x5eb9cc76c3506942c1c0ead70e877dd5e4f00cb0",
        "gas": "0x1b30c",
        "value": "0xde0b6b3a7640000",
        "input": "0xf088d547000000000000000000000000c77f7fed3b5cc8249adc428c5f44c9063b9734b4",
        "nonce": "0x3ea",
        "chainId": "0xaa36a7"
      },
      "additionalContracts": [],
      "isFixedGasLimit": false
    }
  ],
  "receipts": [
    {
      "status": "0x1",
      "cumulativeGasUsed": "0xd722ba",
      "logs": [
        {
          "address": "0x5eb9cc76c3506942c1c0ead70e877dd5e4f00cb0",
          "topics": [
            "0xddf252ad1be2c89b69c2b068fc378daa952ba7f163c4a11628f55a4df523b3ef",
            "0x0000000000000000000000000000000000000000000000000000000000000000",
            "0x000000000000000000000000c77f7fed3b5cc8249adc428c5f44c9063b9734b4"
          ],
          "data": "0x000000000000000000000000000000000000000000000035750ea345d1e0bc9d",
          "blockHash": "0xc7a4e5de17b5b35e894b9564265d1bef6d29773145e8e452b7b3d58516e04506",
          "blockNumber": "0x724ff0",
          "transactionHash": "0xe9260c95d10470d4d652ddb150bd85a4294a10db722c751c181d1d8fd656dddf",
          "transactionIndex": "0x64",
          "logIndex": "0xc6",
          "removed": false
        },
        {
          "address": "0x5eb9cc76c3506942c1c0ead70e877dd5e4f00cb0",
          "topics": [
            "0xddf252ad1be2c89b69c2b068fc378daa952ba7f163c4a11628f55a4df523b3ef",
            "0x0000000000000000000000000000000000000000000000000000000000000000",
            "0x000000000000000000000000c77f7fed3b5cc8249adc428c5f44c9063b9734b4"
          ],
          "data": "0x0000000000000000000000000000000000000000000000002982e9e7e8014599",
          "blockHash": "0xc7a4e5de17b5b35e894b9564265d1bef6d29773145e8e452b7b3d58516e04506",
          "blockNumber": "0x724ff0",
          "transactionHash": "0xe9260c95d10470d4d652ddb150bd85a4294a10db722c751c181d1d8fd656dddf",
          "transactionIndex": "0x64",
          "logIndex": "0xc7",
          "removed": false
        },
        {
          "address": "0x5eb9cc76c3506942c1c0ead70e877dd5e4f00cb0",
          "topics": [
            "0x4afcb4a87cdbd9974efdb92ee48bc8d7cd0ae4bf217004db3d080cbaee652ca7"
          ],
          "data": "0x000000000000000000000000000000000000000000000000000000006786b10c00000000000000000000000000000000000000000000000000039114987b3c490000000000000000000000000000000000000000000000000de0b6b3a7640000",
          "blockHash": "0xc7a4e5de17b5b35e894b9564265d1bef6d29773145e8e452b7b3d58516e04506",
          "blockNumber": "0x724ff0",
          "transactionHash": "0xe9260c95d10470d4d652ddb150bd85a4294a10db722c751c181d1d8fd656dddf",
          "transactionIndex": "0x64",
          "logIndex": "0xc8",
          "removed": false
        }
      ],
      "logsBloom": "0x00000000000000000000000000000000000000000000000000000000000000000000000000000000000000000000000000000000000000004000000000000000000000000000000000000008000000000000000000000000000000000000000000000000020000000000000004000800020000000000000000000010000000000000000000000000000000000000000000000000000000000000010000000000000000000000000000000000000000004000000000000000000000000000020000000002000000800000008000000000000000000000080000000000000020000000000000000000000000000000000000000000000000000000000000000000",
      "type": "0x2",
      "transactionHash": "0xe9260c95d10470d4d652ddb150bd85a4294a10db722c751c181d1d8fd656dddf",
      "transactionIndex": "0x64",
      "blockHash": "0xc7a4e5de17b5b35e894b9564265d1bef6d29773145e8e452b7b3d58516e04506",
      "blockNumber": "0x724ff0",
      "gasUsed": "0x13af8",
      "effectiveGasPrice": "0x37e93e92e",
      "from": "0xc77f7fed3b5cc8249adc428c5f44c9063b9734b4",
      "to": "0x5eb9cc76c3506942c1c0ead70e877dd5e4f00cb0",
      "contractAddress": null
    }
  ],
  "libraries": [],
  "pending": [],
  "returns": {},
  "timestamp": 1736880397,
  "chain": 11155111,
  "commit": "51a374b"
}