{
  "transactions": [
    {
      "hash": "0x0dae353e7de1781b25379488745728f0ce9cf38173f045ee8db4d26204cd0c7a",
      "transactionType": "CALL",
      "contractName": null,
      "contractAddress": "0xbf4a322f1496e5c3d34a9bcdb4c60567b38c7de2",
      "function": "buy(address)",
      "arguments": [
        "0xC77f7fed3b5Cc8249aDc428c5F44C9063B9734b4"
      ],
      "transaction": {
        "from": "0xc77f7fed3b5cc8249adc428c5f44c9063b9734b4",
        "to": "0xbf4a322f1496e5c3d34a9bcdb4c60567b38c7de2",
        "gas": "0x1b309",
        "value": "0xde0b6b3a7640000",
        "input": "0xf088d547000000000000000000000000c77f7fed3b5cc8249adc428c5f44c9063b9734b4",
        "nonce": "0xace",
        "chainId": "0xaa36a7"
      },
      "additionalContracts": [],
      "isFixedGasLimit": false
    }
  ],
  "receipts": [
    {
      "status": "0x1",
      "cumulativeGasUsed": "0x117ac74",
      "logs": [
        {
          "address": "0xbf4a322f1496e5c3d34a9bcdb4c60567b38c7de2",
          "topics": [
            "0xddf252ad1be2c89b69c2b068fc378daa952ba7f163c4a11628f55a4df523b3ef",
            "0x0000000000000000000000000000000000000000000000000000000000000000",
            "0x000000000000000000000000c77f7fed3b5cc8249adc428c5f44c9063b9734b4"
          ],
          "data": "0x000000000000000000000000000000000000000000000035347ca070e38e2fd4",
          "blockHash": "0x709684bac43503e231c3976b535c680891ae4cae468bd58673276fd06b354810",
          "blockNumber": "0x725abe",
          "transactionHash": "0x0dae353e7de1781b25379488745728f0ce9cf38173f045ee8db4d26204cd0c7a",
          "transactionIndex": "0xc9",
          "logIndex": "0xe3",
          "removed": false
        },
        {
          "address": "0xbf4a322f1496e5c3d34a9bcdb4c60567b38c7de2",
          "topics": [
            "0xddf252ad1be2c89b69c2b068fc378daa952ba7f163c4a11628f55a4df523b3ef",
            "0x0000000000000000000000000000000000000000000000000000000000000000",
            "0x000000000000000000000000c77f7fed3b5cc8249adc428c5f44c9063b9734b4"
          ],
          "data": "0x0000000000000000000000000000000000000000000000002950c5c9d8635c9b",
          "blockHash": "0x709684bac43503e231c3976b535c680891ae4cae468bd58673276fd06b354810",
          "blockNumber": "0x725abe",
          "transactionHash": "0x0dae353e7de1781b25379488745728f0ce9cf38173f045ee8db4d26204cd0c7a",
          "transactionIndex": "0xc9",
          "logIndex": "0xe4",
          "removed": false
        },
        {
          "address": "0xbf4a322f1496e5c3d34a9bcdb4c60567b38c7de2",
          "topics": [
            "0x4afcb4a87cdbd9974efdb92ee48bc8d7cd0ae4bf217004db3d080cbaee652ca7"
          ],
          "data": "0x00000000000000000000000000000000000000000000000000000000678733380000000000000000000000000000000000000000000000000003956b06102daa0000000000000000000000000000000000000000000000000de0b6b3a7640000",
          "blockHash": "0x709684bac43503e231c3976b535c680891ae4cae468bd58673276fd06b354810",
          "blockNumber": "0x725abe",
          "transactionHash": "0x0dae353e7de1781b25379488745728f0ce9cf38173f045ee8db4d26204cd0c7a",
          "transactionIndex": "0xc9",
          "logIndex": "0xe5",
          "removed": false
        }
      ],
      "logsBloom": "0x00000000000000000000000000000000000000000000000000000000000000000000000000000000000000000000000000000000000000004000000000000000000000000000000000000008000000000000001000000000000000000000000000000000020000000000000000000800020000000000000000000010000000000000000000000000000000000000000000000000000008000000010000000000000000000000000000000000000000004000000000000000000000000000000000000002000000800000000000001000000000000000080000000000000020000000000000000000000000000000000000000000000000000000000000000000",
      "type": "0x2",
      "transactionHash": "0x0dae353e7de1781b25379488745728f0ce9cf38173f045ee8db4d26204cd0c7a",
      "transactionIndex": "0xc9",
      "blockHash": "0x709684bac43503e231c3976b535c680891ae4cae468bd58673276fd06b354810",
      "blockNumber": "0x725abe",
      "gasUsed": "0x13af6",
      "effectiveGasPrice": "0xd6cc1c7a",
      "from": "0xc77f7fed3b5cc8249adc428c5f44c9063b9734b4",
      "to": "0xbf4a322f1496e5c3d34a9bcdb4c60567b38c7de2",
      "contractAddress": null
    }
  ],
  "libraries": [],
  "pending": [],
  "returns": {},
  "timestamp": 1736913723,
  "chain": 11155111,
  "commit": "51a374b"
}