{
  "transactions": [
    {
      "hash": "0x3e851deb8811832b58d70acdb4057966be383eeff17ad2ce3d33e901b224b061",
      "transactionType": "CALL",
      "contractName": null,
      "contractAddress": "0x8aafd3ede9adb0ff97c7aebce82a919afb1c8764",
      "function": "sell(uint256)",
      "arguments": [
        "110989503689159"
      ],
      "transaction": {
        "from": "0xc77f7fed3b5cc8249adc428c5f44c9063b9734b4",
        "to": "0x8aafd3ede9adb0ff97c7aebce82a919afb1c8764",
        "gas": "0x15daa",
        "value": "0x0",
        "input": "0xe4849b32000000000000000000000000000000000000000000000000000064f1c1f0f1c7",
        "nonce": "0x14c3",
        "chainId": "0xaa36a7"
      },
      "additionalContracts": [],
      "isFixedGasLimit": false
    }
  ],
  "receipts": [
    {
      "status": "0x1",
      "cumulativeGasUsed": "0xb8ead1",
      "logs": [
        {
          "address": "0x8aafd3ede9adb0ff97c7aebce82a919afb1c8764",
          "topics": [
            "0xddf252ad1be2c89b69c2b068fc378daa952ba7f163c4a11628f55a4df523b3ef",
            "0x000000000000000000000000c77f7fed3b5cc8249adc428c5f44c9063b9734b4",
            "0x0000000000000000000000000000000000000000000000000000000000000000"
          ],
          "data": "0x0000000000000000000000000000000000000000000000000000642306058b7e",
          "blockHash": "0x616f4e21da5ab7f9c4c759f4b47d2b95ee6c999b46ac020dac11de9b18117bf6",
          "blockNumber": "0x731c20",
          "transactionHash": "0x3e851deb8811832b58d70acdb4057966be383eeff17ad2ce3d33e901b224b061",
          "transactionIndex": "0x62",
          "logIndex": "0x77",
          "removed": false
        },
        {
          "address": "0x8aafd3ede9adb0ff97c7aebce82a919afb1c8764",
          "topics": [
            "0xddf252ad1be2c89b69c2b068fc378daa952ba7f163c4a11628f55a4df523b3ef",
            "0x000000000000000000000000c77f7fed3b5cc8249adc428c5f44c9063b9734b4",
            "0x000000000000000000000000c77f7fed3b5cc8249adc428c5f44c9063b9734b4"
          ],
          "data": "0x000000000000000000000000000000000000000000000000000000cebbeb6649",
          "blockHash": "0x616f4e21da5ab7f9c4c759f4b47d2b95ee6c999b46ac020dac11de9b18117bf6",
          "blockNumber": "0x731c20",
          "transactionHash": "0x3e851deb8811832b58d70acdb4057966be383eeff17ad2ce3d33e901b224b061",
          "transactionIndex": "0x62",
          "logIndex": "0x78",
          "removed": false
        },
        {
          "address": "0x8aafd3ede9adb0ff97c7aebce82a919afb1c8764",
          "topics": [
            "0x4afcb4a87cdbd9974efdb92ee48bc8d7cd0ae4bf217004db3d080cbaee652ca7"
          ],
          "data": "0x0000000000000000000000000000000000000000000000000000000067904e5c000000000000000000000000000000000000000000000000001060ac0616461c0000000000000000000000000000000000000000000000000000007720b0f948",
          "blockHash": "0x616f4e21da5ab7f9c4c759f4b47d2b95ee6c999b46ac020dac11de9b18117bf6",
          "blockNumber": "0x731c20",
          "transactionHash": "0x3e851deb8811832b58d70acdb4057966be383eeff17ad2ce3d33e901b224b061",
          "transactionIndex": "0x62",
          "logIndex": "0x79",
          "removed": false
        }
      ],
      "logsBloom": "0x00000000000000000000000000000000000000000600000000000000000000000000000000000000000000000000000000000000000000004000000000000000000000000000004000000008000000000000000000000000000000000000000000000000020000000000000000000800020000000000000000000010000000000000000000000000000000000000000000000000000000000000010000000000000000000000000000000000000000004000000000000000000000000000000000000002000000800000000000000000000000000000080000000000000020000000000000000000000000000000000000000000000000000000000000000000",
      "type": "0x2",
      "transactionHash": "0x3e851deb8811832b58d70acdb4057966be383eeff17ad2ce3d33e901b224b061",
      "transactionIndex": "0x62",
      "blockHash": "0x616f4e21da5ab7f9c4c759f4b47d2b95ee6c999b46ac020dac11de9b18117bf6",
      "blockNumber": "0x731c20",
      "gasUsed": "0xfd27",
      "effectiveGasPrice": "0x116c887f3",
      "from": "0xc77f7fed3b5cc8249adc428c5f44c9063b9734b4",
      "to": "0x8aafd3ede9adb0ff97c7aebce82a919afb1c8764",
      "contractAddress": null
    }
  ],
  "libraries": [],
  "pending": [],
  "returns": {},
  "timestamp": 1737510494,
  "chain": 11155111,
  "commit": "1d2fb70"
}