{
  "transactions": [
    {
      "hash": "0x693bca914de98965449aa5954343ae1ac8bdc698aa00392fdc3e48bc1c429638",
      "transactionType": "CALL",
      "contractName": null,
      "contractAddress": "0x270e88f8683660553e8ba4eb2ad7c91a1710d769",
      "function": "buy(address)",
      "arguments": [
        "0xC77f7fed3b5Cc8249aDc428c5F44C9063B9734b4"
      ],
      "transaction": {
        "from": "0xc77f7fed3b5cc8249adc428c5f44c9063b9734b4",
        "to": "0x270e88f8683660553e8ba4eb2ad7c91a1710d769",
        "gas": "0x1b30c",
        "value": "0xde0b6b3a7640000",
        "input": "0xf088d547000000000000000000000000c77f7fed3b5cc8249adc428c5f44c9063b9734b4",
        "nonce": "0x6d1",
        "chainId": "0xaa36a7"
      },
      "additionalContracts": [],
      "isFixedGasLimit": false
    }
  ],
  "receipts": [
    {
      "status": "0x1",
      "cumulativeGasUsed": "0x1227767",
      "logs": [
        {
          "address": "0x270e88f8683660553e8ba4eb2ad7c91a1710d769",
          "topics": [
            "0xddf252ad1be2c89b69c2b068fc378daa952ba7f163c4a11628f55a4df523b3ef",
            "0x0000000000000000000000000000000000000000000000000000000000000000",
            "0x000000000000000000000000c77f7fed3b5cc8249adc428c5f44c9063b9734b4"
          ],
          "data": "0x0000000000000000000000000000000000000000000000288172581591285da3",
          "blockHash": "0xc3c811146a1d22502c79c5b13e2914955d8bb6d0f0406d8460c4ea7be6a591cb",
          "blockNumber": "0x7253e0",
          "transactionHash": "0x693bca914de98965449aa5954343ae1ac8bdc698aa00392fdc3e48bc1c429638",
          "transactionIndex": "0x4e",
          "logIndex": "0x96",
          "removed": false
        },
        {
          "address": "0x270e88f8683660553e8ba4eb2ad7c91a1710d769",
          "topics": [
            "0xddf252ad1be2c89b69c2b068fc378daa952ba7f163c4a11628f55a4df523b3ef",
            "0x0000000000000000000000000000000000000000000000000000000000000000",
            "0x000000000000000000000000c77f7fed3b5cc8249adc428c5f44c9063b9734b4"
          ],
          "data": "0x0000000000000000000000000000000000000000000000001f743aa1a983dc88",
          "blockHash": "0xc3c811146a1d22502c79c5b13e2914955d8bb6d0f0406d8460c4ea7be6a591cb",
          "blockNumber": "0x7253e0",
          "transactionHash": "0x693bca914de98965449aa5954343ae1ac8bdc698aa00392fdc3e48bc1c429638",
          "transactionIndex": "0x4e",
          "logIndex": "0x97",
          "removed": false
        },
        {
          "address": "0x270e88f8683660553e8ba4eb2ad7c91a1710d769",
          "topics": [
            "0x4afcb4a87cdbd9974efdb92ee48bc8d7cd0ae4bf217004db3d080cbaee652ca7"
          ],
          "data": "0x000000000000000000000000000000000000000000000000000000006786e0880000000000000000000000000000000000000000000000000004b52409cf3d660000000000000000000000000000000000000000000000000de0b6b3a7640000",
          "blockHash": "0xc3c811146a1d22502c79c5b13e2914955d8bb6d0f0406d8460c4ea7be6a591cb",
          "blockNumber": "0x7253e0",
          "transactionHash": "0x693bca914de98965449aa5954343ae1ac8bdc698aa00392fdc3e48bc1c429638",
          "transactionIndex": "0x4e",
          "logIndex": "0x98",
          "removed": false
        }
      ],
      "logsBloom": "0x00000000000000000000000000000000000000000000000000000000000000000000000000000000000000000000000020000000000000004000000000000000000000000000000000000008000000000000000000000000000000000000000000000000020000000000000000000800020000000000000000000010000000000000000000010000000000000000000000000000000000000000010000000000000000000000000000000000000000004000000000000000000000000000000000000002000000800000000000000000000000000000080000008000000020000000000000000000000000000000000000000000000000000000000000000000",
      "type": "0x2",
      "transactionHash": "0x693bca914de98965449aa5954343ae1ac8bdc698aa00392fdc3e48bc1c429638",
      "transactionIndex": "0x4e",
      "blockHash": "0xc3c811146a1d22502c79c5b13e2914955d8bb6d0f0406d8460c4ea7be6a591cb",
      "blockNumber": "0x7253e0",
      "gasUsed": "0x13af8",
      "effectiveGasPrice": "0x1515161cc",
      "from": "0xc77f7fed3b5cc8249adc428c5f44c9063b9734b4",
      "to": "0x270e88f8683660553e8ba4eb2ad7c91a1710d769",
      "contractAddress": null
    }
  ],
  "libraries": [],
  "pending": [],
  "returns": {},
  "timestamp": 1736892554,
  "chain": 11155111,
  "commit": "51a374b"
}