{
  "transactions": [
    {
      "hash": "0x51096f637b6f119dd8fa4801623d8f3eeaa9f7f11e3a2cf05336dfb2dcdf4da3",
      "transactionType": "CALL",
      "contractName": null,
      "contractAddress": "0x8aafd3ede9adb0ff97c7aebce82a919afb1c8764",
      "function": "sell(uint256)",
      "arguments": [
        "128946475708366"
      ],
      "transaction": {
        "from": "0xc77f7fed3b5cc8249adc428c5f44c9063b9734b4",
        "to": "0x8aafd3ede9adb0ff97c7aebce82a919afb1c8764",
        "gas": "0x15daa",
        "value": "0x0",
        "input": "0xe4849b3200000000000000000000000000000000000000000000000000007546b0e12fce",
        "nonce": "0x13fd",
        "chainId": "0xaa36a7"
      },
      "additionalContracts": [],
      "isFixedGasLimit": false
    }
  ],
  "receipts": [
    {
      "status": "0x1",
      "cumulativeGasUsed": "0xadc0b4",
      "logs": [
        {
          "address": "0x8aafd3ede9adb0ff97c7aebce82a919afb1c8764",
          "topics": [
            "0xddf252ad1be2c89b69c2b068fc378daa952ba7f163c4a11628f55a4df523b3ef",
            "0x000000000000000000000000c77f7fed3b5cc8249adc428c5f44c9063b9734b4",
            "0x0000000000000000000000000000000000000000000000000000000000000000"
          ],
          "data": "0x00000000000000000000000000000000000000000000000000007456826899ec",
          "blockHash": "0xd156c1275596a5e222968f6f85ddd0272f43d301a91de7218675525fc8bbf240",
          "blockNumber": "0x731b32",
          "transactionHash": "0x51096f637b6f119dd8fa4801623d8f3eeaa9f7f11e3a2cf05336dfb2dcdf4da3",
          "transactionIndex": "0x59",
          "logIndex": "0x78",
          "removed": false
        },
        {
          "address": "0x8aafd3ede9adb0ff97c7aebce82a919afb1c8764",
          "topics": [
            "0xddf252ad1be2c89b69c2b068fc378daa952ba7f163c4a11628f55a4df523b3ef",
            "0x000000000000000000000000c77f7fed3b5cc8249adc428c5f44c9063b9734b4",
            "0x000000000000000000000000c77f7fed3b5cc8249adc428c5f44c9063b9734b4"
          ],
          "data": "0x000000000000000000000000000000000000000000000000000000f02e7895e2",
          "blockHash": "0xd156c1275596a5e222968f6f85ddd0272f43d301a91de7218675525fc8bbf240",
          "blockNumber": "0x731b32",
          "transactionHash": "0x51096f637b6f119dd8fa4801623d8f3eeaa9f7f11e3a2cf05336dfb2dcdf4da3",
          "transactionIndex": "0x59",
          "logIndex": "0x79",
          "removed": false
        },
        {
          "address": "0x8aafd3ede9adb0ff97c7aebce82a919afb1c8764",
          "topics": [
            "0x4afcb4a87cdbd9974efdb92ee48bc8d7cd0ae4bf217004db3d080cbaee652ca7"
          ],
          "data": "0x0000000000000000000000000000000000000000000000000000000067904328000000000000000000000000000000000000000000000000000e1c44b938ba88000000000000000000000000000000000000000000000000000000773df770f3",
          "blockHash": "0xd156c1275596a5e222968f6f85ddd0272f43d301a91de7218675525fc8bbf240",
          "blockNumber": "0x731b32",
          "transactionHash": "0x51096f637b6f119dd8fa4801623d8f3eeaa9f7f11e3a2cf05336dfb2dcdf4da3",
          "transactionIndex": "0x59",
          "logIndex": "0x7a",
          "removed": false
        }
      ],
      "logsBloom": "0x00000000000000000000000000000000000000000600000000000000000000000000000000000000000000000000000000000000000000004000000000000000000000000000004000000008000000000000000000000000000000000000000000000000020000000000000000000800020000000000000000000010000000000000000000000000000000000000000000000000000000000000010000000000000000000000000000000000000000004000000000000000000000000000000000000002000000800000000000000000000000000000080000000000000020000000000000000000000000000000000000000000000000000000000000000000",
      "type": "0x2",
      "transactionHash": "0x51096f637b6f119dd8fa4801623d8f3eeaa9f7f11e3a2cf05336dfb2dcdf4da3",
      "transactionIndex": "0x59",
      "blockHash": "0xd156c1275596a5e222968f6f85ddd0272f43d301a91de7218675525fc8bbf240",
      "blockNumber": "0x731b32",
      "gasUsed": "0xfd27",
      "effectiveGasPrice": "0xb2393d80",
      "from": "0xc77f7fed3b5cc8249adc428c5f44c9063b9734b4",
      "to": "0x8aafd3ede9adb0ff97c7aebce82a919afb1c8764",
      "contractAddress": null
    }
  ],
  "libraries": [],
  "pending": [],
  "returns": {},
  "timestamp": 1737507625,
  "chain": 11155111,
  "commit": "1d2fb70"
}