{
  "transactions": [
    {
      "hash": "0xf3221fd8f0b563a8492976694032e24ca548ee5949cdebf38cbd71bc861c7504",
      "transactionType": "CALL",
      "contractName": null,
      "contractAddress": "0x8aafd3ede9adb0ff97c7aebce82a919afb1c8764",
      "function": "sell(uint256)",
      "arguments": [
        "177822609"
      ],
      "transaction": {
        "from": "0xc77f7fed3b5cc8249adc428c5f44c9063b9734b4",
        "to": "0x8aafd3ede9adb0ff97c7aebce82a919afb1c8764",
        "gas": "0x14e6c",
        "value": "0x0",
        "input": "0xe4849b32000000000000000000000000000000000000000000000000000000000a995b91",
        "nonce": "0x121d",
        "chainId": "0xaa36a7"
      },
      "additionalContracts": [],
      "isFixedGasLimit": false
    }
  ],
  "receipts": [
    {
      "status": "0x1",
      "cumulativeGasUsed": "0x95fce4",
      "logs": [
        {
          "address": "0x8aafd3ede9adb0ff97c7aebce82a919afb1c8764",
          "topics": [
            "0xddf252ad1be2c89b69c2b068fc378daa952ba7f163c4a11628f55a4df523b3ef",
            "0x000000000000000000000000c77f7fed3b5cc8249adc428c5f44c9063b9734b4",
            "0x0000000000000000000000000000000000000000000000000000000000000000"
          ],
          "data": "0x000000000000000000000000000000000000000000000000000000000a83a69d",
          "blockHash": "0x1ae916f24cadf38868a1a115a9cb60e3c0edcf792b1e09055088abfc6867f95f",
          "blockNumber": "0x7318f9",
          "transactionHash": "0xf3221fd8f0b563a8492976694032e24ca548ee5949cdebf38cbd71bc861c7504",
          "transactionIndex": "0x7c",
          "logIndex": "0xa6",
          "removed": false
        },
        {
          "address": "0x8aafd3ede9adb0ff97c7aebce82a919afb1c8764",
          "topics": [
            "0xddf252ad1be2c89b69c2b068fc378daa952ba7f163c4a11628f55a4df523b3ef",
            "0x000000000000000000000000c77f7fed3b5cc8249adc428c5f44c9063b9734b4",
            "0x000000000000000000000000c77f7fed3b5cc8249adc428c5f44c9063b9734b4"
          ],
          "data": "0x000000000000000000000000000000000000000000000000000000000015b4f4",
          "blockHash": "0x1ae916f24cadf38868a1a115a9cb60e3c0edcf792b1e09055088abfc6867f95f",
          "blockNumber": "0x7318f9",
          "transactionHash": "0xf3221fd8f0b563a8492976694032e24ca548ee5949cdebf38cbd71bc861c7504",
          "transactionIndex": "0x7c",
          "logIndex": "0xa7",
          "removed": false
        },
        {
          "address": "0x8aafd3ede9adb0ff97c7aebce82a919afb1c8764",
          "topics": [
            "0x4afcb4a87cdbd9974efdb92ee48bc8d7cd0ae4bf217004db3d080cbaee652ca7"
          ],
          "data": "0x000000000000000000000000000000000000000000000000000000006790287c000000000000000000000000000000000000000000000000000534d691123c12000000000000000000000000000000000000000000000000000000000003f9f1",
          "blockHash": "0x1ae916f24cadf38868a1a115a9cb60e3c0edcf792b1e09055088abfc6867f95f",
          "blockNumber": "0x7318f9",
          "transactionHash": "0xf3221fd8f0b563a8492976694032e24ca548ee5949cdebf38cbd71bc861c7504",
          "transactionIndex": "0x7c",
          "logIndex": "0xa8",
          "removed": false
        }
      ],
      "logsBloom": "0x00000000000000000000000000000000000000000600000000000000000000000000000000000000000000000000000000000000000000004000000000000000000000000000004000000008000000000000000000000000000000000000000000000000020000000000000000000800020000000000000000000010000000000000000000000000000000000000000000000000000000000000010000000000000000000000000000000000000000004000000000000000000000000000000000000002000000800000000000000000000000000000080000000000000020000000000000000000000000000000000000000000000000000000000000000000",
      "type": "0x2",
      "transactionHash": "0xf3221fd8f0b563a8492976694032e24ca548ee5949cdebf38cbd71bc861c7504",
      "transactionIndex": "0x7c",
      "blockHash": "0x1ae916f24cadf38868a1a115a9cb60e3c0edcf792b1e09055088abfc6867f95f",
      "blockNumber": "0x7318f9",
      "gasUsed": "0xf21f",
      "effectiveGasPrice": "0x4625972d",
      "from": "0xc77f7fed3b5cc8249adc428c5f44c9063b9734b4",
      "to": "0x8aafd3ede9adb0ff97c7aebce82a919afb1c8764",
      "contractAddress": null
    }
  ],
  "libraries": [],
  "pending": [],
  "returns": {},
  "timestamp": 1737500798,
  "chain": 11155111,
  "commit": "1d2fb70"
}