{
  "transactions": [
    {
      "hash": "0xb10b757a49416b55c90606056250f9232eecd2aff9193f47241c1fbbeb337d79",
      "transactionType": "CALL",
      "contractName": null,
      "contractAddress": "0x270e88f8683660553e8ba4eb2ad7c91a1710d769",
      "function": "buy(address)",
      "arguments": [
        "0xC77f7fed3b5Cc8249aDc428c5F44C9063B9734b4"
      ],
      "transaction": {
        "from": "0xc77f7fed3b5cc8249adc428c5f44c9063b9734b4",
        "to": "0x270e88f8683660553e8ba4eb2ad7c91a1710d769",
        "gas": "0x1b30c",
        "value": "0xde0b6b3a7640000",
        "input": "0xf088d547000000000000000000000000c77f7fed3b5cc8249adc428c5f44c9063b9734b4",
        "nonce": "0x66b",
        "chainId": "0xaa36a7"
      },
      "additionalContracts": [],
      "isFixedGasLimit": false
    }
  ],
  "receipts": [
    {
      "status": "0x1",
      "cumulativeGasUsed": "0x8b3dcf",
      "logs": [
        {
          "address": "0x270e88f8683660553e8ba4eb2ad7c91a1710d769",
          "topics": [
            "0xddf252ad1be2c89b69c2b068fc378daa952ba7f163c4a11628f55a4df523b3ef",
            "0x0000000000000000000000000000000000000000000000000000000000000000",
            "0x000000000000000000000000c77f7fed3b5cc8249adc428c5f44c9063b9734b4"
          ],
          "data": "0x000000000000000000000000000000000000000000000029039bc6f718a6f8c0",
          "blockHash": "0x2219b8779d98e2f133f307b5b527633561eb67c1e7ce96b95142ee653bfc18e3",
          "blockNumber": "0x725364",
          "transactionHash": "0xb10b757a49416b55c90606056250f9232eecd2aff9193f47241c1fbbeb337d79",
          "transactionIndex": "0x47",
          "logIndex": "0x62",
          "removed": false
        },
        {
          "address": "0x270e88f8683660553e8ba4eb2ad7c91a1710d769",
          "topics": [
            "0xddf252ad1be2c89b69c2b068fc378daa952ba7f163c4a11628f55a4df523b3ef",
            "0x0000000000000000000000000000000000000000000000000000000000000000",
            "0x000000000000000000000000c77f7fed3b5cc8249adc428c5f44c9063b9734b4"
          ],
          "data": "0x0000000000000000000000000000000000000000000000001fd94ddc64672a0e",
          "blockHash": "0x2219b8779d98e2f133f307b5b527633561eb67c1e7ce96b95142ee653bfc18e3",
          "blockNumber": "0x725364",
          "transactionHash": "0xb10b757a49416b55c90606056250f9232eecd2aff9193f47241c1fbbeb337d79",
          "transactionIndex": "0x47",
          "logIndex": "0x63",
          "removed": false
        },
        {
          "address": "0x270e88f8683660553e8ba4eb2ad7c91a1710d769",
          "topics": [
            "0x4afcb4a87cdbd9974efdb92ee48bc8d7cd0ae4bf217004db3d080cbaee652ca7"
          ],
          "data": "0x000000000000000000000000000000000000000000000000000000006786dab80000000000000000000000000000000000000000000000000004a633bf025f7b0000000000000000000000000000000000000000000000000de0b6b3a7640000",
          "blockHash": "0x2219b8779d98e2f133f307b5b527633561eb67c1e7ce96b95142ee653bfc18e3",
          "blockNumber": "0x725364",
          "transactionHash": "0xb10b757a49416b55c90606056250f9232eecd2aff9193f47241c1fbbeb337d79",
          "transactionIndex": "0x47",
          "logIndex": "0x64",
          "removed": false
        }
      ],
      "logsBloom": "0x00000000000000000000000000000000000000000000000000000000000000000000000000000000000000000000000020000000000000004000000000000000000000000000000000000008000000000000000000000000000000000000000000000000020000000000000000000800020000000000000000000010000000000000000000010000000000000000000000000000000000000000010000000000000000000000000000000000000000004000000000000000000000000000000000000002000000800000000000000000000000000000080000008000000020000000000000000000000000000000000000000000000000000000000000000000",
      "type": "0x2",
      "transactionHash": "0xb10b757a49416b55c90606056250f9232eecd2aff9193f47241c1fbbeb337d79",
      "transactionIndex": "0x47",
      "blockHash": "0x2219b8779d98e2f133f307b5b527633561eb67c1e7ce96b95142ee653bfc18e3",
      "blockNumber": "0x725364",
      "gasUsed": "0x13af8",
      "effectiveGasPrice": "0x2eb5ae5ed",
      "from": "0xc77f7fed3b5cc8249adc428c5f44c9063b9734b4",
      "to": "0x270e88f8683660553e8ba4eb2ad7c91a1710d769",
      "contractAddress": null
    }
  ],
  "libraries": [],
  "pending": [],
  "returns": {},
  "timestamp": 1736891066,
  "chain": 11155111,
  "commit": "51a374b"
}