{
  "transactions": [
    {
      "hash": "0x686363e3888d3cacd81460e7a2388ea863541102da39ab98d3542a52206b4a01",
      "transactionType": "CALL",
      "contractName": null,
      "contractAddress": "0x8aafd3ede9adb0ff97c7aebce82a919afb1c8764",
      "function": "sell(uint256)",
      "arguments": [
        "354268665786160"
      ],
      "transaction": {
        "from": "0xc77f7fed3b5cc8249adc428c5f44c9063b9734b4",
        "to": "0x8aafd3ede9adb0ff97c7aebce82a919afb1c8764",
        "gas": "0x1724d",
        "value": "0x0",
        "input": "0xe4849b320000000000000000000000000000000000000000000000000001423499faaf30",
        "nonce": "0x1166",
        "chainId": "0xaa36a7"
      },
      "additionalContracts": [],
      "isFixedGasLimit": false
    }
  ],
  "receipts": [
    {
      "status": "0x1",
      "cumulativeGasUsed": "0xb9061c",
      "logs": [
        {
          "address": "0x8aafd3ede9adb0ff97c7aebce82a919afb1c8764",
          "topics": [
            "0xddf252ad1be2c89b69c2b068fc378daa952ba7f163c4a11628f55a4df523b3ef",
            "0x000000000000000000000000c77f7fed3b5cc8249adc428c5f44c9063b9734b4",
            "0x0000000000000000000000000000000000000000000000000000000000000000"
          ],
          "data": "0x00000000000000000000000000000000000000000000000000013fa0b983f15f",
          "blockHash": "0xdcd6cd8556f689fce2b2ed46c62a556f9601e854aa6597dded20a6fa9f6120fa",
          "blockNumber": "0x731824",
          "transactionHash": "0x686363e3888d3cacd81460e7a2388ea863541102da39ab98d3542a52206b4a01",
          "transactionIndex": "0x7f",
          "logIndex": "0x9e",
          "removed": false
        },
        {
          "address": "0x8aafd3ede9adb0ff97c7aebce82a919afb1c8764",
          "topics": [
            "0xddf252ad1be2c89b69c2b068fc378daa952ba7f163c4a11628f55a4df523b3ef",
            "0x000000000000000000000000c77f7fed3b5cc8249adc428c5f44c9063b9734b4",
            "0x000000000000000000000000c77f7fed3b5cc8249adc428c5f44c9063b9734b4"
          ],
          "data": "0x00000000000000000000000000000000000000000000000000000293e076bdd1",
          "blockHash": "0xdcd6cd8556f689fce2b2ed46c62a556f9601e854aa6597dded20a6fa9f6120fa",
          "blockNumber": "0x731824",
          "transactionHash": "0x686363e3888d3cacd81460e7a2388ea863541102da39ab98d3542a52206b4a01",
          "transactionIndex": "0x7f",
          "logIndex": "0x9f",
          "removed": false
        },
        {
          "address": "0x8aafd3ede9adb0ff97c7aebce82a919afb1c8764",
          "topics": [
            "0x4afcb4a87cdbd9974efdb92ee48bc8d7cd0ae4bf217004db3d080cbaee652ca7"
          ],
          "data": "0x0000000000000000000000000000000000000000000000000000000067901e7400000000000000000000000000000000000000000000000000051aaf7a7c3cf60000000000000000000000000000000000000000000000000000007681c67fee",
          "blockHash": "0xdcd6cd8556f689fce2b2ed46c62a556f9601e854aa6597dded20a6fa9f6120fa",
          "blockNumber": "0x731824",
          "transactionHash": "0x686363e3888d3cacd81460e7a2388ea863541102da39ab98d3542a52206b4a01",
          "transactionIndex": "0x7f",
          "logIndex": "0xa0",
          "removed": false
        }
      ],
      "logsBloom": "0x00000000000000000000000000000000000000000600000000000000000000000000000000000000000000000000000000000000000000004000000000000000000000000000004000000008000000000000000000000000000000000000000000000000020000000000000000000800020000000000000000000010000000000000000000000000000000000000000000000000000000000000010000000000000000000000000000000000000000004000000000000000000000000000000000000002000000800000000000000000000000000000080000000000000020000000000000000000000000000000000000000000000000000000000000000000",
      "type": "0x2",
      "transactionHash": "0x686363e3888d3cacd81460e7a2388ea863541102da39ab98d3542a52206b4a01",
      "transactionIndex": "0x7f",
      "blockHash": "0xdcd6cd8556f689fce2b2ed46c62a556f9601e854aa6597dded20a6fa9f6120fa",
      "blockNumber": "0x731824",
      "gasUsed": "0xfd33",
      "effectiveGasPrice": "0x44a7e3f2",
      "from": "0xc77f7fed3b5cc8249adc428c5f44c9063b9734b4",
      "to": "0x8aafd3ede9adb0ff97c7aebce82a919afb1c8764",
      "contractAddress": null
    }
  ],
  "libraries": [],
  "pending": [],
  "returns": {},
  "timestamp": 1737498228,
  "chain": 11155111,
  "commit": "1d2fb70"
}