{
  "transactions": [
    {
      "hash": "0xcb0ba9a2d42d2e2f6764c0c52db558bde40ec7e6a2232731cbd7deb122e9aa7f",
      "transactionType": "CALL",
      "contractName": null,
      "contractAddress": "0x8aafd3ede9adb0ff97c7aebce82a919afb1c8764",
      "function": "sell(uint256)",
      "arguments": [
        "365242456672986"
      ],
      "transaction": {
        "from": "0xc77f7fed3b5cc8249adc428c5f44c9063b9734b4",
        "to": "0x8aafd3ede9adb0ff97c7aebce82a919afb1c8764",
        "gas": "0x1724d",
        "value": "0x0",
        "input": "0xe4849b3200000000000000000000000000000000000000000000000000014c2fa2e30ada",
        "nonce": "0x1058",
        "chainId": "0xaa36a7"
      },
      "additionalContracts": [],
      "isFixedGasLimit": false
    }
  ],
  "receipts": [
    {
      "status": "0x1",
      "cumulativeGasUsed": "0xb02c0f",
      "logs": [
        {
          "address": "0x8aafd3ede9adb0ff97c7aebce82a919afb1c8764",
          "topics": [
            "0xddf252ad1be2c89b69c2b068fc378daa952ba7f163c4a11628f55a4df523b3ef",
            "0x000000000000000000000000c77f7fed3b5cc8249adc428c5f44c9063b9734b4",
            "0x0000000000000000000000000000000000000000000000000000000000000000"
          ],
          "data": "0x0000000000000000000000000000000000000000000000000001498751b637d3",
          "blockHash": "0x2a77aadb9ff5d58c318dacfe00d3b55c18b3cd3f90695ac0a20c4f7efd85bb82",
          "blockNumber": "0x7316db",
          "transactionHash": "0xcb0ba9a2d42d2e2f6764c0c52db558bde40ec7e6a2232731cbd7deb122e9aa7f",
          "transactionIndex": "0x7d",
          "logIndex": "0x9c",
          "removed": false
        },
        {
          "address": "0x8aafd3ede9adb0ff97c7aebce82a919afb1c8764",
          "topics": [
            "0xddf252ad1be2c89b69c2b068fc378daa952ba7f163c4a11628f55a4df523b3ef",
            "0x000000000000000000000000c77f7fed3b5cc8249adc428c5f44c9063b9734b4",
            "0x000000000000000000000000c77f7fed3b5cc8249adc428c5f44c9063b9734b4"
          ],
          "data": "0x000000000000000000000000000000000000000000000000000002a8512cd307",
          "blockHash": "0x2a77aadb9ff5d58c318dacfe00d3b55c18b3cd3f90695ac0a20c4f7efd85bb82",
          "blockNumber": "0x7316db",
          "transactionHash": "0xcb0ba9a2d42d2e2f6764c0c52db558bde40ec7e6a2232731cbd7deb122e9aa7f",
          "transactionIndex": "0x7d",
          "logIndex": "0x9d",
          "removed": false
        },
        {
          "address": "0x8aafd3ede9adb0ff97c7aebce82a919afb1c8764",
          "topics": [
            "0x4afcb4a87cdbd9974efdb92ee48bc8d7cd0ae4bf217004db3d080cbaee652ca7"
          ],
          "data": "0x0000000000000000000000000000000000000000000000000000000067900efc0000000000000000000000000000000000000000000000000004f378090ecdbd0000000000000000000000000000000000000000000000000000007682ce7d3b",
          "blockHash": "0x2a77aadb9ff5d58c318dacfe00d3b55c18b3cd3f90695ac0a20c4f7efd85bb82",
          "blockNumber": "0x7316db",
          "transactionHash": "0xcb0ba9a2d42d2e2f6764c0c52db558bde40ec7e6a2232731cbd7deb122e9aa7f",
          "transactionIndex": "0x7d",
          "logIndex": "0x9e",
          "removed": false
        }
      ],
      "logsBloom": "0x00000000000000000000000000000000000000000600000000000000000000000000000000000000000000000000000000000000000000004000000000000000000000000000004000000008000000000000000000000000000000000000000000000000020000000000000000000800020000000000000000000010000000000000000000000000000000000000000000000000000000000000010000000000000000000000000000000000000000004000000000000000000000000000000000000002000000800000000000000000000000000000080000000000000020000000000000000000000000000000000000000000000000000000000000000000",
      "type": "0x2",
      "transactionHash": "0xcb0ba9a2d42d2e2f6764c0c52db558bde40ec7e6a2232731cbd7deb122e9aa7f",
      "transactionIndex": "0x7d",
      "blockHash": "0x2a77aadb9ff5d58c318dacfe00d3b55c18b3cd3f90695ac0a20c4f7efd85bb82",
      "blockNumber": "0x7316db",
      "gasUsed": "0xfd33",
      "effectiveGasPrice": "0x3ecfb069",
      "from": "0xc77f7fed3b5cc8249adc428c5f44c9063b9734b4",
      "to": "0x8aafd3ede9adb0ff97c7aebce82a919afb1c8764",
      "contractAddress": null
    }
  ],
  "libraries": [],
  "pending": [],
  "returns": {},
  "timestamp": 1737494269,
  "chain": 11155111,
  "commit": "1d2fb70"
}