{
  "transactions": [
    {
      "hash": "0x1b792a1814367d18fc20b7f6487c1c67be82c8c3bd023cd147e50097b8404147",
      "transactionType": "CALL",
      "contractName": null,
      "contractAddress": "0x8aafd3ede9adb0ff97c7aebce82a919afb1c8764",
      "function": "sell(uint256)",
      "arguments": [
        "3061767361861"
      ],
      "transaction": {
        "from": "0xc77f7fed3b5cc8249adc428c5f44c9063b9734b4",
        "to": "0x8aafd3ede9adb0ff97c7aebce82a919afb1c8764",
        "gas": "0x15daa",
        "value": "0x0",
        "input": "0xe4849b32000000000000000000000000000000000000000000000000000002c8df8e5545",
        "nonce": "0xebe",
        "chainId": "0xaa36a7"
      },
      "additionalContracts": [],
      "isFixedGasLimit": false
    }
  ],
  "receipts": [
    {
      "status": "0x1",
      "cumulativeGasUsed": "0x9e18fb",
      "logs": [
        {
          "address": "0x8aafd3ede9adb0ff97c7aebce82a919afb1c8764",
          "topics": [
            "0xddf252ad1be2c89b69c2b068fc378daa952ba7f163c4a11628f55a4df523b3ef",
            "0x000000000000000000000000c77f7fed3b5cc8249adc428c5f44c9063b9734b4",
            "0x0000000000000000000000000000000000000000000000000000000000000000"
          ],
          "data": "0x000000000000000000000000000000000000000000000000000002c32b976f37",
          "blockHash": "0x570525144ad9f7661a1975d6d6215de82d132e560d83463d4d1e67c6849096ad",
          "blockNumber": "0x731423",
          "transactionHash": "0x1b792a1814367d18fc20b7f6487c1c67be82c8c3bd023cd147e50097b8404147",
          "transactionIndex": "0x7d",
          "logIndex": "0x92",
          "removed": false
        },
        {
          "address": "0x8aafd3ede9adb0ff97c7aebce82a919afb1c8764",
          "topics": [
            "0xddf252ad1be2c89b69c2b068fc378daa952ba7f163c4a11628f55a4df523b3ef",
            "0x000000000000000000000000c77f7fed3b5cc8249adc428c5f44c9063b9734b4",
            "0x000000000000000000000000c77f7fed3b5cc8249adc428c5f44c9063b9734b4"
          ],
          "data": "0x00000000000000000000000000000000000000000000000000000005b3f6e60e",
          "blockHash": "0x570525144ad9f7661a1975d6d6215de82d132e560d83463d4d1e67c6849096ad",
          "blockNumber": "0x731423",
          "transactionHash": "0x1b792a1814367d18fc20b7f6487c1c67be82c8c3bd023cd147e50097b8404147",
          "transactionIndex": "0x7d",
          "logIndex": "0x93",
          "removed": false
        },
        {
          "address": "0x8aafd3ede9adb0ff97c7aebce82a919afb1c8764",
          "topics": [
            "0x4afcb4a87cdbd9974efdb92ee48bc8d7cd0ae4bf217004db3d080cbaee652ca7"
          ],
          "data": "0x00000000000000000000000000000000000000000000000000000000678fee500000000000000000000000000000000000000000000000000004b89d6158754a00000000000000000000000000000000000000000000000000000000f2840aa5",
          "blockHash": "0x570525144ad9f7661a1975d6d6215de82d132e560d83463d4d1e67c6849096ad",
          "blockNumber": "0x731423",
          "transactionHash": "0x1b792a1814367d18fc20b7f6487c1c67be82c8c3bd023cd147e50097b8404147",
          "transactionIndex": "0x7d",
          "logIndex": "0x94",
          "removed": false
        }
      ],
      "logsBloom": "0x00000000000000000000000000000000000000000600000000000000000000000000000000000000000000000000000000000000000000004000000000000000000000000000004000000008000000000000000000000000000000000000000000000000020000000000000000000800020000000000000000000010000000000000000000000000000000000000000000000000000000000000010000000000000000000000000000000000000000004000000000000000000000000000000000000002000000800000000000000000000000000000080000000000000020000000000000000000000000000000000000000000000000000000000000000000",
      "type": "0x2",
      "transactionHash": "0x1b792a1814367d18fc20b7f6487c1c67be82c8c3bd023cd147e50097b8404147",
      "transactionIndex": "0x7d",
      "blockHash": "0x570525144ad9f7661a1975d6d6215de82d132e560d83463d4d1e67c6849096ad",
      "blockNumber": "0x731423",
      "gasUsed": "0xfd27",
      "effectiveGasPrice": "0xc122f82b",
      "from": "0xc77f7fed3b5cc8249adc428c5f44c9063b9734b4",
      "to": "0x8aafd3ede9adb0ff97c7aebce82a919afb1c8764",
      "contractAddress": null
    }
  ],
  "libraries": [],
  "pending": [],
  "returns": {},
  "timestamp": 1737485905,
  "chain": 11155111,
  "commit": "51a374b"
}