{
  "transactions": [
    {
      "hash": "0xd8825c4f4e18b4fa7ef2dc9944709abd2cfe37643e4f74a6dad75312c445a188",
      "transactionType": "CALL",
      "contractName": null,
      "contractAddress": "0x8aafd3ede9adb0ff97c7aebce82a919afb1c8764",
      "function": "sell(uint256)",
      "arguments": [
        "236251512020964392814"
      ],
      "transaction": {
        "from": "0xc77f7fed3b5cc8249adc428c5f44c9063b9734b4",
        "to": "0x8aafd3ede9adb0ff97c7aebce82a919afb1c8764",
        "gas": "0x17270",
        "value": "0x0",
        "input": "0xe4849b3200000000000000000000000000000000000000000000000ccea5fa780a82bf6e",
        "nonce": "0x144b",
        "chainId": "0xaa36a7"
      },
      "additionalContracts": [],
      "isFixedGasLimit": false
    }
  ],
  "receipts": [
    {
      "status": "0x1",
      "cumulativeGasUsed": "0x1150c8f",
      "logs": [
        {
          "address": "0x8aafd3ede9adb0ff97c7aebce82a919afb1c8764",
          "topics": [
            "0xddf252ad1be2c89b69c2b068fc378daa952ba7f163c4a11628f55a4df523b3ef",
            "0x000000000000000000000000c77f7fed3b5cc8249adc428c5f44c9063b9734b4",
            "0x0000000000000000000000000000000000000000000000000000000000000000"
          ],
          "data": "0x00000000000000000000000000000000000000000000000cb46b4e7b2d3e1e28",
          "blockHash": "0xbca2cd261d8b44ae35ce96aa19ad86cad67ede3fe9ec6bda898900818fc2b0fe",
          "blockNumber": "0x731b90",
          "transactionHash": "0xd8825c4f4e18b4fa7ef2dc9944709abd2cfe37643e4f74a6dad75312c445a188",
          "transactionIndex": "0x99",
          "logIndex": "0xb0",
          "removed": false
        },
        {
          "address": "0x8aafd3ede9adb0ff97c7aebce82a919afb1c8764",
          "topics": [
            "0xddf252ad1be2c89b69c2b068fc378daa952ba7f163c4a11628f55a4df523b3ef",
            "0x000000000000000000000000c77f7fed3b5cc8249adc428c5f44c9063b9734b4",
            "0x000000000000000000000000c77f7fed3b5cc8249adc428c5f44c9063b9734b4"
          ],
          "data": "0x0000000000000000000000000000000000000000000000001a3aabfcdd44a146",
          "blockHash": "0xbca2cd261d8b44ae35ce96aa19ad86cad67ede3fe9ec6bda898900818fc2b0fe",
          "blockNumber": "0x731b90",
          "transactionHash": "0xd8825c4f4e18b4fa7ef2dc9944709abd2cfe37643e4f74a6dad75312c445a188",
          "transactionIndex": "0x99",
          "logIndex": "0xb1",
          "removed": false
        },
        {
          "address": "0x8aafd3ede9adb0ff97c7aebce82a919afb1c8764",
          "topics": [
            "0x4afcb4a87cdbd9974efdb92ee48bc8d7cd0ae4bf217004db3d080cbaee652ca7"
          ],
          "data": "0x000000000000000000000000000000000000000000000000000000006790479c000000000000000000000000000000000000000000000000000f08f2f3d0fbdb0000000000000000000000000000000000000000000000000dcdaebaf04c7ddf",
          "blockHash": "0xbca2cd261d8b44ae35ce96aa19ad86cad67ede3fe9ec6bda898900818fc2b0fe",
          "blockNumber": "0x731b90",
          "transactionHash": "0xd8825c4f4e18b4fa7ef2dc9944709abd2cfe37643e4f74a6dad75312c445a188",
          "transactionIndex": "0x99",
          "logIndex": "0xb2",
          "removed": false
        }
      ],
      "logsBloom": "0x00000000000000000000000000000000000000000600000000000000000000000000000000000000000000000000000000000000000000004000000000000000000000000000004000000008000000000000000000000000000000000000000000000000020000000000000000000800020000000000000000000010000000000000000000000000000000000000000000000000000000000000010000000000000000000000000000000000000000004000000000000000000000000000000000000002000000800000000000000000000000000000080000000000000020000000000000000000000000000000000000000000000000000000000000000000",
      "type": "0x2",
      "transactionHash": "0xd8825c4f4e18b4fa7ef2dc9944709abd2cfe37643e4f74a6dad75312c445a188",
      "transactionIndex": "0x99",
      "blockHash": "0xbca2cd261d8b44ae35ce96aa19ad86cad67ede3fe9ec6bda898900818fc2b0fe",
      "blockNumber": "0x731b90",
      "gasUsed": "0xfd4b",
      "effectiveGasPrice": "0x118c17da1",
      "from": "0xc77f7fed3b5cc8249adc428c5f44c9063b9734b4",
      "to": "0x8aafd3ede9adb0ff97c7aebce82a919afb1c8764",
      "contractAddress": null
    }
  ],
  "libraries": [],
  "pending": [],
  "returns": {},
  "timestamp": 1737508765,
  "chain": 11155111,
  "commit": "1d2fb70"
}