{
  "transactions": [
    {
      "hash": "0xf72be29d7d8c20c93d6eca5a6c83ab938f5e682a3e6f8c5b5855ba035a33cf98",
      "transactionType": "CALL",
      "contractName": null,
      "contractAddress": "0x8aafd3ede9adb0ff97c7aebce82a919afb1c8764",
      "function": "sell(uint256)",
      "arguments": [
        "1826976882092968013"
      ],
      "transaction": {
        "from": "0xc77f7fed3b5cc8249adc428c5f44c9063b9734b4",
        "to": "0x8aafd3ede9adb0ff97c7aebce82a919afb1c8764",
        "gas": "0x1724d",
        "value": "0x0",
        "input": "0xe4849b32000000000000000000000000000000000000000000000000195ab9cb6600884d",
        "nonce": "0x1479",
        "chainId": "0xaa36a7"
      },
      "additionalContracts": [],
      "isFixedGasLimit": false
    }
  ],
  "receipts": [
    {
      "status": "0x1",
      "cumulativeGasUsed": "0x7d36a9",
      "logs": [
        {
          "address": "0x8aafd3ede9adb0ff97c7aebce82a919afb1c8764",
          "topics": [
            "0xddf252ad1be2c89b69c2b068fc378daa952ba7f163c4a11628f55a4df523b3ef",
            "0x000000000000000000000000c77f7fed3b5cc8249adc428c5f44c9063b9734b4",
            "0x0000000000000000000000000000000000000000000000000000000000000000"
          ],
          "data": "0x0000000000000000000000000000000000000000000000001926ccc9c5712b0d",
          "blockHash": "0xcbc47987fd8b6e4eb91ae2261472a350c3b480d72d67a033da667286dbd07a38",
          "blockNumber": "0x731bc6",
          "transactionHash": "0xf72be29d7d8c20c93d6eca5a6c83ab938f5e682a3e6f8c5b5855ba035a33cf98",
          "transactionIndex": "0x41",
          "logIndex": "0x62",
          "removed": false
        },
        {
          "address": "0x8aafd3ede9adb0ff97c7aebce82a919afb1c8764",
          "topics": [
            "0xddf252ad1be2c89b69c2b068fc378daa952ba7f163c4a11628f55a4df523b3ef",
            "0x000000000000000000000000c77f7fed3b5cc8249adc428c5f44c9063b9734b4",
            "0x000000000000000000000000c77f7fed3b5cc8249adc428c5f44c9063b9734b4"
          ],
          "data": "0x0000000000000000000000000000000000000000000000000033ed01a08f5d40",
          "blockHash": "0xcbc47987fd8b6e4eb91ae2261472a350c3b480d72d67a033da667286dbd07a38",
          "blockNumber": "0x731bc6",
          "transactionHash": "0xf72be29d7d8c20c93d6eca5a6c83ab938f5e682a3e6f8c5b5855ba035a33cf98",
          "transactionIndex": "0x41",
          "logIndex": "0x63",
          "removed": false
        },
        {
          "address": "0x8aafd3ede9adb0ff97c7aebce82a919afb1c8764",
          "topics": [
            "0x4afcb4a87cdbd9974efdb92ee48bc8d7cd0ae4bf217004db3d080cbaee652ca7"
          ],
          "data": "0x0000000000000000000000000000000000000000000000000000000067904a24000000000000000000000000000000000000000000000000000f8d0ddfaf1a8d000000000000000000000000000000000000000000000000001c69005020fd71",
          "blockHash": "0xcbc47987fd8b6e4eb91ae2261472a350c3b480d72d67a033da667286dbd07a38",
          "blockNumber": "0x731bc6",
          "transactionHash": "0xf72be29d7d8c20c93d6eca5a6c83ab938f5e682a3e6f8c5b5855ba035a33cf98",
          "transactionIndex": "0x41",
          "logIndex": "0x64",
          "removed": false
        }
      ],
      "logsBloom": "0x00000000000000000000000000000000000000000600000000000000000000000000000000000000000000000000000000000000000000004000000000000000000000000000004000000008000000000000000000000000000000000000000000000000020000000000000000000800020000000000000000000010000000000000000000000000000000000000000000000000000000000000010000000000000000000000000000000000000000004000000000000000000000000000000000000002000000800000000000000000000000000000080000000000000020000000000000000000000000000000000000000000000000000000000000000000",
      "type": "0x2",
      "transactionHash": "0xf72be29d7d8c20c93d6eca5a6c83ab938f5e682a3e6f8c5b5855ba035a33cf98",
      "transactionIndex": "0x41",
      "blockHash": "0xcbc47987fd8b6e4eb91ae2261472a350c3b480d72d67a033da667286dbd07a38",
      "blockNumber": "0x731bc6",
      "gasUsed": "0xfd33",
      "effectiveGasPrice": "0xfc602650",
      "from": "0xc77f7fed3b5cc8249adc428c5f44c9063b9734b4",
      "to": "0x8aafd3ede9adb0ff97c7aebce82a919afb1c8764",
      "contractAddress": null
    }
  ],
  "libraries": [],
  "pending": [],
  "returns": {},
  "timestamp": 1737509413,
  "chain": 11155111,
  "commit": "1d2fb70"
}