{
  "transactions": [
    {
      "hash": "0x4f4771f262d44eb4cc544dc9211849fd97043d08f16851ee45fa69e182d19a22",
      "transactionType": "CALL",
      "contractName": null,
      "contractAddress": "0x5eb9cc76c3506942c1c0ead70e877dd5e4f00cb0",
      "function": "buy(address)",
      "arguments": [
        "0xC77f7fed3b5Cc8249aDc428c5F44C9063B9734b4"
      ],
      "transaction": {
        "from": "0xc77f7fed3b5cc8249adc428c5f44c9063b9734b4",
        "to": "0x5eb9cc76c3506942c1c0ead70e877dd5e4f00cb0",
        "gas": "0x156c8",
        "value": "0xde0b6b3a7640000",
        "input": "0xf088d547000000000000000000000000c77f7fed3b5cc8249adc428c5f44c9063b9734b4",
        "nonce": "0x19f",
        "chainId": "0xaa36a7"
      },
      "additionalContracts": [],
      "isFixedGasLimit": false
    }
  ],
  "receipts": [
    {
      "status": "0x1",
      "cumulativeGasUsed": "0xd8b163",
      "logs": [
        {
          "address": "0x5eb9cc76c3506942c1c0ead70e877dd5e4f00cb0",
          "topics": [
            "0xddf252ad1be2c89b69c2b068fc378daa952ba7f163c4a11628f55a4df523b3ef",
            "0x0000000000000000000000000000000000000000000000000000000000000000",
            "0x000000000000000000000000c77f7fed3b5cc8249adc428c5f44c9063b9734b4"
          ],
          "data": "0x000000000000000000000000000000000000000000000035a3798db994869aaa",
          "blockHash": "0x5fee486cb1b657b924ecff4fa7c76adcdab101075ec4dc9e448c5b9b1988c219",
          "blockNumber": "0x723c85",
          "transactionHash": "0x4f4771f262d44eb4cc544dc9211849fd97043d08f16851ee45fa69e182d19a22",
          "transactionIndex": "0x60",
          "logIndex": "0xb7",
          "removed": false
        },
        {
          "address": "0x5eb9cc76c3506942c1c0ead70e877dd5e4f00cb0",
          "topics": [
            "0xddf252ad1be2c89b69c2b068fc378daa952ba7f163c4a11628f55a4df523b3ef",
            "0x0000000000000000000000000000000000000000000000000000000000000000",
            "0x000000000000000000000000c77f7fed3b5cc8249adc428c5f44c9063b9734b4"
          ],
          "data": "0x00000000000000000000000000000000000000000000000029a6f56535a2a64a",
          "blockHash": "0x5fee486cb1b657b924ecff4fa7c76adcdab101075ec4dc9e448c5b9b1988c219",
          "blockNumber": "0x723c85",
          "transactionHash": "0x4f4771f262d44eb4cc544dc9211849fd97043d08f16851ee45fa69e182d19a22",
          "transactionIndex": "0x60",
          "logIndex": "0xb8",
          "removed": false
        },
        {
          "address": "0x5eb9cc76c3506942c1c0ead70e877dd5e4f00cb0",
          "topics": [
            "0x4afcb4a87cdbd9974efdb92ee48bc8d7cd0ae4bf217004db3d080cbaee652ca7"
          ],
          "data": "0x000000000000000000000000000000000000000000000000000000006785c79000000000000000000000000000000000000000000000000000038dfe6f9db6510000000000000000000000000000000000000000000000000de0b6b3a7640000",
          "blockHash": "0x5fee486cb1b657b924ecff4fa7c76adcdab101075ec4dc9e448c5b9b1988c219",
          "blockNumber": "0x723c85",
          "transactionHash": "0x4f4771f262d44eb4cc544dc9211849fd97043d08f16851ee45fa69e182d19a22",
          "transactionIndex": "0x60",
          "logIndex": "0xb9",
          "removed": false
        }
      ],
      "logsBloom": "0x00000000000000000000000000000000000000000000000000000000000000000000000000000000000000000000000000000000000000004000000000000000000000000000000000000008000000000000000000000000000000000000000000000000020000000000000004000800020000000000000000000010000000000000000000000000000000000000000000000000000000000000010000000000000000000000000000000000000000004000000000000000000000000000020000000002000000800000008000000000000000000000080000000000000020000000000000000000000000000000000000000000000000000000000000000000",
      "type": "0x2",
      "transactionHash": "0x4f4771f262d44eb4cc544dc9211849fd97043d08f16851ee45fa69e182d19a22",
      "transactionIndex": "0x60",
      "blockHash": "0x5fee486cb1b657b924ecff4fa7c76adcdab101075ec4dc9e448c5b9b1988c219",
      "blockNumber": "0x723c85",
      "gasUsed": "0xf82c",
      "effectiveGasPrice": "0x1cedbbca5",
      "from": "0xc77f7fed3b5cc8249adc428c5f44c9063b9734b4",
      "to": "0x5eb9cc76c3506942c1c0ead70e877dd5e4f00cb0",
      "contractAddress": null
    }
  ],
  "libraries": [],
  "pending": [],
  "returns": {},
  "timestamp": 1736820626,
  "chain": 11155111,
  "commit": "51a374b"
}