{
  "transactions": [
    {
      "hash": "0x74c57c77b55c8a8fe3572d7875e49a850d5c166a2eba123469a70c07354fb9d3",
      "transactionType": "CALL",
      "contractName": null,
      "contractAddress": "0x8aafd3ede9adb0ff97c7aebce82a919afb1c8764",
      "function": "sell(uint256)",
      "arguments": [
        "10258535757829537"
      ],
      "transaction": {
        "from": "0xc77f7fed3b5cc8249adc428c5f44c9063b9734b4",
        "to": "0x8aafd3ede9adb0ff97c7aebce82a919afb1c8764",
        "gas": "0x1724d",
        "value": "0x0",
        "input": "0xe4849b32000000000000000000000000000000000000000000000000002472157bc2d5a1",
        "nonce": "0x16b1",
        "chainId": "0xaa36a7"
      },
      "additionalContracts": [],
      "isFixedGasLimit": false
    }
  ],
  "receipts": [
    {
      "status": "0x1",
      "cumulativeGasUsed": "0xf8f22d",
      "logs": [
        {
          "address": "0x8aafd3ede9adb0ff97c7aebce82a919afb1c8764",
          "topics": [
            "0xddf252ad1be2c89b69c2b068fc378daa952ba7f163c4a11628f55a4df523b3ef",
            "0x000000000000000000000000c77f7fed3b5cc8249adc428c5f44c9063b9734b4",
            "0x0000000000000000000000000000000000000000000000000000000000000000"
          ],
          "data": "0x0000000000000000000000000000000000000000000000000024277178b91575",
          "blockHash": "0xb72b4a0399ea7cf845a4907ded5331dadf74f7fa9a64d2656d7407bff2e4e918",
          "blockNumber": "0x731e6a",
          "transactionHash": "0x74c57c77b55c8a8fe3572d7875e49a850d5c166a2eba123469a70c07354fb9d3",
          "transactionIndex": "0x67",
          "logIndex": "0xda",
          "removed": false
        },
        {
          "address": "0x8aafd3ede9adb0ff97c7aebce82a919afb1c8764",
          "topics": [
            "0xddf252ad1be2c89b69c2b068fc378daa952ba7f163c4a11628f55a4df523b3ef",
            "0x000000000000000000000000c77f7fed3b5cc8249adc428c5f44c9063b9734b4",
            "0x000000000000000000000000c77f7fed3b5cc8249adc428c5f44c9063b9734b4"
          ],
          "data": "0x00000000000000000000000000000000000000000000000000004aa40309c02c",
          "blockHash": "0xb72b4a0399ea7cf845a4907ded5331dadf74f7fa9a64d2656d7407bff2e4e918",
          "blockNumber": "0x731e6a",
          "transactionHash": "0x74c57c77b55c8a8fe3572d7875e49a850d5c166a2eba123469a70c07354fb9d3",
          "transactionIndex": "0x67",
          "logIndex": "0xdb",
          "removed": false
        },
        {
          "address": "0x8aafd3ede9adb0ff97c7aebce82a919afb1c8764",
          "topics": [
            "0x4afcb4a87cdbd9974efdb92ee48bc8d7cd0ae4bf217004db3d080cbaee652ca7"
          ],
          "data": "0x00000000000000000000000000000000000000000000000000000000679069e000000000000000000000000000000000000000000000000000161d3fd5041d3f00000000000000000000000000000000000000000000000000003a137c519b90",
          "blockHash": "0xb72b4a0399ea7cf845a4907ded5331dadf74f7fa9a64d2656d7407bff2e4e918",
          "blockNumber": "0x731e6a",
          "transactionHash": "0x74c57c77b55c8a8fe3572d7875e49a850d5c166a2eba123469a70c07354fb9d3",
          "transactionIndex": "0x67",
          "logIndex": "0xdc",
          "removed": false
        }
      ],
      "logsBloom": "0x00000000000000000000000000000000000000000600000000000000000000000000000000000000000000000000000000000000000000004000000000000000000000000000004000000008000000000000000000000000000000000000000000000000020000000000000000000800020000000000000000000010000000000000000000000000000000000000000000000000000000000000010000000000000000000000000000000000000000004000000000000000000000000000000000000002000000800000000000000000000000000000080000000000000020000000000000000000000000000000000000000000000000000000000000000000",
      "type": "0x2",
      "transactionHash": "0x74c57c77b55c8a8fe3572d7875e49a850d5c166a2eba123469a70c07354fb9d3",
      "transactionIndex": "0x67",
      "blockHash": "0xb72b4a0399ea7cf845a4907ded5331dadf74f7fa9a64d2656d7407bff2e4e918",
      "blockNumber": "0x731e6a",
      "gasUsed": "0xfd33",
      "effectiveGasPrice": "0x65a2d317",
      "from": "0xc77f7fed3b5cc8249adc428c5f44c9063b9734b4",
      "to": "0x8aafd3ede9adb0ff97c7aebce82a919afb1c8764",
      "contractAddress": null
    }
  ],
  "libraries": [],
  "pending": [],
  "returns": {},
  "timestamp": 1737517537,
  "chain": 11155111,
  "commit": "1d2fb70"
}