{
  "transactions": [
    {
      "hash": "0x3689d1fb494e27348345702409446035ac977f4c5c10f7bb4f0089d3d80c810c",
      "transactionType": "CALL",
      "contractName": null,
      "contractAddress": "0x8aafd3ede9adb0ff97c7aebce82a919afb1c8764",
      "function": "sell(uint256)",
      "arguments": [
        "485410"
      ],
      "transaction": {
        "from": "0xc77f7fed3b5cc8249adc428c5f44c9063b9734b4",
        "to": "0x8aafd3ede9adb0ff97c7aebce82a919afb1c8764",
        "gas": "0x16208",
        "value": "0x0",
        "input": "0xe4849b320000000000000000000000000000000000000000000000000000000000076822",
        "nonce": "0x146d",
        "chainId": "0xaa36a7"
      },
      "additionalContracts": [],
      "isFixedGasLimit": false
    }
  ],
  "receipts": [
    {
      "status": "0x1",
      "cumulativeGasUsed": "0x9ade62",
      "logs": [
        {
          "address": "0x8aafd3ede9adb0ff97c7aebce82a919afb1c8764",
          "topics": [
            "0xddf252ad1be2c89b69c2b068fc378daa952ba7f163c4a11628f55a4df523b3ef",
            "0x000000000000000000000000c77f7fed3b5cc8249adc428c5f44c9063b9734b4",
            "0x0000000000000000000000000000000000000000000000000000000000000000"
          ],
          "data": "0x00000000000000000000000000000000000000000000000000000000000758f7",
          "blockHash": "0xe2d313161b55b6d7afc1a7c9a66291805cd0a852dc17634a1eb81948e3981e57",
          "blockNumber": "0x731bba",
          "transactionHash": "0x3689d1fb494e27348345702409446035ac977f4c5c10f7bb4f0089d3d80c810c",
          "transactionIndex": "0x83",
          "logIndex": "0x93",
          "removed": false
        },
        {
          "address": "0x8aafd3ede9adb0ff97c7aebce82a919afb1c8764",
          "topics": [
            "0xddf252ad1be2c89b69c2b068fc378daa952ba7f163c4a11628f55a4df523b3ef",
            "0x000000000000000000000000c77f7fed3b5cc8249adc428c5f44c9063b9734b4",
            "0x000000000000000000000000c77f7fed3b5cc8249adc428c5f44c9063b9734b4"
          ],
          "data": "0x0000000000000000000000000000000000000000000000000000000000000f2b",
          "blockHash": "0xe2d313161b55b6d7afc1a7c9a66291805cd0a852dc17634a1eb81948e3981e57",
          "blockNumber": "0x731bba",
          "transactionHash": "0x3689d1fb494e27348345702409446035ac977f4c5c10f7bb4f0089d3d80c810c",
          "transactionIndex": "0x83",
          "logIndex": "0x94",
          "removed": false
        },
        {
          "address": "0x8aafd3ede9adb0ff97c7aebce82a919afb1c8764",
          "topics": [
            "0x4afcb4a87cdbd9974efdb92ee48bc8d7cd0ae4bf217004db3d080cbaee652ca7"
          ],
          "data": "0x0000000000000000000000000000000000000000000000000000000067904994000000000000000000000000000000000000000000000000000f583f583fc6250000000000000000000000000000000000000000000000000000000000000830",
          "blockHash": "0xe2d313161b55b6d7afc1a7c9a66291805cd0a852dc17634a1eb81948e3981e57",
          "blockNumber": "0x731bba",
          "transactionHash": "0x3689d1fb494e27348345702409446035ac977f4c5c10f7bb4f0089d3d80c810c",
          "transactionIndex": "0x83",
          "logIndex": "0x95",
          "removed": false
        }
      ],
      "logsBloom": "0x00000000000000000000000000000000000000000600000000000000000000000000000000000000000000000000000000000000000000004000000000000000000000000000004000000008000000000000000000000000000000000000000000000000020000000000000000000800020000000000000000000010000000000000000000000000000000000000000000000000000000000000010000000000000000000000000000000000000000004000000000000000000000000000000000000002000000800000000000000000000000000000080000000000000020000000000000000000000000000000000000000000000000000000000000000000",
      "type": "0x2",
      "transactionHash": "0x3689d1fb494e27348345702409446035ac977f4c5c10f7bb4f0089d3d80c810c",
      "transactionIndex": "0x83",
      "blockHash": "0xe2d313161b55b6d7afc1a7c9a66291805cd0a852dc17634a1eb81948e3981e57",
      "blockNumber": "0x731bba",
      "gasUsed": "0xf213",
      "effectiveGasPrice": "0x100ab48c1",
      "from": "0xc77f7fed3b5cc8249adc428c5f44c9063b9734b4",
      "to": "0x8aafd3ede9adb0ff97c7aebce82a919afb1c8764",
      "contractAddress": null
    }
  ],
  "libraries": [],
  "pending": [],
  "returns": {},
  "timestamp": 1737509269,
  "chain": 11155111,
  "commit": "1d2fb70"
}