{
  "transactions": [
    {
      "hash": "0xb229a8f5843a77aa8e21b27d235eace8f38ce1b886f4253ce0a7ef8eeaf7f418",
      "transactionType": "CALL",
      "contractName": null,
      "contractAddress": "0x5eb9cc76c3506942c1c0ead70e877dd5e4f00cb0",
      "function": "sell(uint256)",
      "arguments": [
        "989111791365526979289"
      ],
      "transaction": {
        "from": "0xc77f7fed3b5cc8249adc428c5f44c9063b9734b4",
        "to": "0x5eb9cc76c3506942c1c0ead70e877dd5e4f00cb0",
        "gas": "0x16fec",
        "value": "0x0",
        "input": "0xe4849b320000000000000000000000000000000000000000000000359eaefdb5448502d9",
        "nonce": "0x3b7",
        "chainId": "0xaa36a7"
      },
      "additionalContracts": [],
      "isFixedGasLimit": false
    }
  ],
  "receipts": [
    {
      "status": "0x1",
      "cumulativeGasUsed": "0xc3ca2e",
      "logs": [
        {
          "address": "0x5eb9cc76c3506942c1c0ead70e877dd5e4f00cb0",
          "topics": [
            "0xddf252ad1be2c89b69c2b068fc378daa952ba7f163c4a11628f55a4df523b3ef",
            "0x000000000000000000000000c77f7fed3b5cc8249adc428c5f44c9063b9734b4",
            "0x0000000000000000000000000000000000000000000000000000000000000000"
          ],
          "data": "0x0000000000000000000000000000000000000000000000359eaefdb5448502d9",
          "blockHash": "0x350e7f91465479cd9bd8e367b506ad3ff8a5175dcd4d9267fa283d9a2961c526",
          "blockNumber": "0x724fb6",
          "transactionHash": "0xb229a8f5843a77aa8e21b27d235eace8f38ce1b886f4253ce0a7ef8eeaf7f418",
          "transactionIndex": "0x7e",
          "logIndex": "0xbb",
          "removed": false
        },
        {
          "address": "0x5eb9cc76c3506942c1c0ead70e877dd5e4f00cb0",
          "topics": [
            "0x4afcb4a87cdbd9974efdb92ee48bc8d7cd0ae4bf217004db3d080cbaee652ca7"
          ],
          "data": "0x000000000000000000000000000000000000000000000000000000006786ae4800000000000000000000000000000000000000000000000000039112af7e103e0000000000000000000000000000000000000000000000000dc7db1331fc6df3",
          "blockHash": "0x350e7f91465479cd9bd8e367b506ad3ff8a5175dcd4d9267fa283d9a2961c526",
          "blockNumber": "0x724fb6",
          "transactionHash": "0xb229a8f5843a77aa8e21b27d235eace8f38ce1b886f4253ce0a7ef8eeaf7f418",
          "transactionIndex": "0x7e",
          "logIndex": "0xbc",
          "removed": false
        }
      ],
      "logsBloom": "0x00000000000000000000000000000000000000000000000000000000000000000000000000000000000000000000000000000000000000004000000000000000000000000000000000000008000000000000000000000000000000000000000000000000020000000000000004000800020000000000000000000010000000000000000000000000000000000000000000000000000000000000010000000000000000000000000000000000000000004000000000000000000000000000020000000002000000800000008000000000000000000000080000000000000020000000000000000000000000000000000000000000000000000000000000000000",
      "type": "0x2",
      "transactionHash": "0xb229a8f5843a77aa8e21b27d235eace8f38ce1b886f4253ce0a7ef8eeaf7f418",
      "transactionIndex": "0x7e",
      "blockHash": "0x350e7f91465479cd9bd8e367b506ad3ff8a5175dcd4d9267fa283d9a2961c526",
      "blockNumber": "0x724fb6",
      "gasUsed": "0xfb93",
      "effectiveGasPrice": "0x3e602acca",
      "from": "0xc77f7fed3b5cc8249adc428c5f44c9063b9734b4",
      "to": "0x5eb9cc76c3506942c1c0ead70e877dd5e4f00cb0",
      "contractAddress": null
    }
  ],
  "libraries": [],
  "pending": [],
  "returns": {},
  "timestamp": 1736879689,
  "chain": 11155111,
  "commit": "51a374b"
}