{
  "transactions": [
    {
      "hash": "0x27fa0f63fe9c4241f27c732e684452cecb1d45df3f94311c6b591ade0b90e15e",
      "transactionType": "CALL",
      "contractName": null,
      "contractAddress": "0x8aafd3ede9adb0ff97c7aebce82a919afb1c8764",
      "function": "sell(uint256)",
      "arguments": [
        "107568102748572"
      ],
      "transaction": {
        "from": "0xc77f7fed3b5cc8249adc428c5f44c9063b9734b4",
        "to": "0x8aafd3ede9adb0ff97c7aebce82a919afb1c8764",
        "gas": "0x15daa",
        "value": "0x0",
        "input": "0xe4849b32000000000000000000000000000000000000000000000000000061d5268db19c",
        "nonce": "0x14f0",
        "chainId": "0xaa36a7"
      },
      "additionalContracts": [],
      "isFixedGasLimit": false
    }
  ],
  "receipts": [
    {
      "status": "0x1",
      "cumulativeGasUsed": "0x1097a9d",
      "logs": [
        {
          "address": "0x8aafd3ede9adb0ff97c7aebce82a919afb1c8764",
          "topics": [
            "0xddf252ad1be2c89b69c2b068fc378daa952ba7f163c4a11628f55a4df523b3ef",
            "0x000000000000000000000000c77f7fed3b5cc8249adc428c5f44c9063b9734b4",
            "0x0000000000000000000000000000000000000000000000000000000000000000"
          ],
          "data": "0x0000000000000000000000000000000000000000000000000000610cca15c6b8",
          "blockHash": "0x2f17a546449ade5c1e3a5352844c06797d43b1698b99e2bdba3ed2c82c3d488d",
          "blockNumber": "0x731c50",
          "transactionHash": "0x27fa0f63fe9c4241f27c732e684452cecb1d45df3f94311c6b591ade0b90e15e",
          "transactionIndex": "0x80",
          "logIndex": "0xc3",
          "removed": false
        },
        {
          "address": "0x8aafd3ede9adb0ff97c7aebce82a919afb1c8764",
          "topics": [
            "0xddf252ad1be2c89b69c2b068fc378daa952ba7f163c4a11628f55a4df523b3ef",
            "0x000000000000000000000000c77f7fed3b5cc8249adc428c5f44c9063b9734b4",
            "0x000000000000000000000000c77f7fed3b5cc8249adc428c5f44c9063b9734b4"
          ],
          "data": "0x000000000000000000000000000000000000000000000000000000c85c77eae4",
          "blockHash": "0x2f17a546449ade5c1e3a5352844c06797d43b1698b99e2bdba3ed2c82c3d488d",
          "blockNumber": "0x731c50",
          "transactionHash": "0x27fa0f63fe9c4241f27c732e684452cecb1d45df3f94311c6b591ade0b90e15e",
          "transactionIndex": "0x80",
          "logIndex": "0xc4",
          "removed": false
        },
        {
          "address": "0x8aafd3ede9adb0ff97c7aebce82a919afb1c8764",
          "topics": [
            "0x4afcb4a87cdbd9974efdb92ee48bc8d7cd0ae4bf217004db3d080cbaee652ca7"
          ],
          "data": "0x000000000000000000000000000000000000000000000000000000006790509c0000000000000000000000000000000000000000000000000010e53ac9246855000000000000000000000000000000000000000000000000000000771b10e523",
          "blockHash": "0x2f17a546449ade5c1e3a5352844c06797d43b1698b99e2bdba3ed2c82c3d488d",
          "blockNumber": "0x731c50",
          "transactionHash": "0x27fa0f63fe9c4241f27c732e684452cecb1d45df3f94311c6b591ade0b90e15e",
          "transactionIndex": "0x80",
          "logIndex": "0xc5",
          "removed": false
        }
      ],
      "logsBloom": "0x00000000000000000000000000000000000000000600000000000000000000000000000000000000000000000000000000000000000000004000000000000000000000000000004000000008000000000000000000000000000000000000000000000000020000000000000000000800020000000000000000000010000000000000000000000000000000000000000000000000000000000000010000000000000000000000000000000000000000004000000000000000000000000000000000000002000000800000000000000000000000000000080000000000000020000000000000000000000000000000000000000000000000000000000000000000",
      "type": "0x2",
      "transactionHash": "0x27fa0f63fe9c4241f27c732e684452cecb1d45df3f94311c6b591ade0b90e15e",
      "transactionIndex": "0x80",
      "blockHash": "0x2f17a546449ade5c1e3a5352844c06797d43b1698b99e2bdba3ed2c82c3d488d",
      "blockNumber": "0x731c50",
      "gasUsed": "0xfd27",
      "effectiveGasPrice": "0x157a3e4f9",
      "from": "0xc77f7fed3b5cc8249adc428c5f44c9063b9734b4",
      "to": "0x8aafd3ede9adb0ff97c7aebce82a919afb1c8764",
      "contractAddress": null
    }
  ],
  "libraries": [],
  "pending": [],
  "returns": {},
  "timestamp": 1737511070,
  "chain": 11155111,
  "commit": "1d2fb70"
}