{
  "transactions": [
    {
      "hash": "0x7ade8407b7e49be205fe09e389b40cdb706d6da4e15eab836a310bb6b15f14e4",
      "transactionType": "CALL",
      "contractName": null,
      "contractAddress": "0x270e88f8683660553e8ba4eb2ad7c91a1710d769",
      "function": "buy(address)",
      "arguments": [
        "0xC77f7fed3b5Cc8249aDc428c5F44C9063B9734b4"
      ],
      "transaction": {
        "from": "0xc77f7fed3b5cc8249adc428c5f44c9063b9734b4",
        "to": "0x270e88f8683660553e8ba4eb2ad7c91a1710d769",
        "gas": "0x1b30c",
        "value": "0xde0b6b3a7640000",
        "input": "0xf088d547000000000000000000000000c77f7fed3b5cc8249adc428c5f44c9063b9734b4",
        "nonce": "0x767",
        "chainId": "0xaa36a7"
      },
      "additionalContracts": [],
      "isFixedGasLimit": false
    }
  ],
  "receipts": [
    {
      "status": "0x1",
      "cumulativeGasUsed": "0x398579",
      "logs": [
        {
          "address": "0x270e88f8683660553e8ba4eb2ad7c91a1710d769",
          "topics": [
            "0xddf252ad1be2c89b69c2b068fc378daa952ba7f163c4a11628f55a4df523b3ef",
            "0x0000000000000000000000000000000000000000000000000000000000000000",
            "0x000000000000000000000000c77f7fed3b5cc8249adc428c5f44c9063b9734b4"
          ],
          "data": "0x000000000000000000000000000000000000000000000027c7c71279b59f7106",
          "blockHash": "0xb8b16199c1825215411c3bbba7dc5bf8a7d342f4ef74c4258cce6f6401e83e5f",
          "blockNumber": "0x725490",
          "transactionHash": "0x7ade8407b7e49be205fe09e389b40cdb706d6da4e15eab836a310bb6b15f14e4",
          "transactionIndex": "0x28",
          "logIndex": "0x37",
          "removed": false
        },
        {
          "address": "0x270e88f8683660553e8ba4eb2ad7c91a1710d769",
          "topics": [
            "0xddf252ad1be2c89b69c2b068fc378daa952ba7f163c4a11628f55a4df523b3ef",
            "0x0000000000000000000000000000000000000000000000000000000000000000",
            "0x000000000000000000000000c77f7fed3b5cc8249adc428c5f44c9063b9734b4"
          ],
          "data": "0x0000000000000000000000000000000000000000000000001ee40cfa4203437d",
          "blockHash": "0xb8b16199c1825215411c3bbba7dc5bf8a7d342f4ef74c4258cce6f6401e83e5f",
          "blockNumber": "0x725490",
          "transactionHash": "0x7ade8407b7e49be205fe09e389b40cdb706d6da4e15eab836a310bb6b15f14e4",
          "transactionIndex": "0x28",
          "logIndex": "0x38",
          "removed": false
        },
        {
          "address": "0x270e88f8683660553e8ba4eb2ad7c91a1710d769",
          "topics": [
            "0x4afcb4a87cdbd9974efdb92ee48bc8d7cd0ae4bf217004db3d080cbaee652ca7"
          ],
          "data": "0x000000000000000000000000000000000000000000000000000000006786e8c80000000000000000000000000000000000000000000000000004cb1c5f0563d50000000000000000000000000000000000000000000000000de0b6b3a7640000",
          "blockHash": "0xb8b16199c1825215411c3bbba7dc5bf8a7d342f4ef74c4258cce6f6401e83e5f",
          "blockNumber": "0x725490",
          "transactionHash": "0x7ade8407b7e49be205fe09e389b40cdb706d6da4e15eab836a310bb6b15f14e4",
          "transactionIndex": "0x28",
          "logIndex": "0x39",
          "removed": false
        }
      ],
      "logsBloom": "0x00000000000000000000000000000000000000000000000000000000000000000000000000000000000000000000000020000000000000004000000000000000000000000000000000000008000000000000000000000000000000000000000000000000020000000000000000000800020000000000000000000010000000000000000000010000000000000000000000000000000000000000010000000000000000000000000000000000000000004000000000000000000000000000000000000002000000800000000000000000000000000000080000008000000020000000000000000000000000000000000000000000000000000000000000000000",
      "type": "0x2",
      "transactionHash": "0x7ade8407b7e49be205fe09e389b40cdb706d6da4e15eab836a310bb6b15f14e4",
      "transactionIndex": "0x28",
      "blockHash": "0xb8b16199c1825215411c3bbba7dc5bf8a7d342f4ef74c4258cce6f6401e83e5f",
      "blockNumber": "0x725490",
      "gasUsed": "0x13af8",
      "effectiveGasPrice": "0x15a154f65",
      "from": "0xc77f7fed3b5cc8249adc428c5f44c9063b9734b4",
      "to": "0x270e88f8683660553e8ba4eb2ad7c91a1710d769",
      "contractAddress": null
    }
  ],
  "libraries": [],
  "pending": [],
  "returns": {},
  "timestamp": 1736894666,
  "chain": 11155111,
  "commit": "51a374b"
}