{
  "transactions": [
    {
      "hash": "0x3ebf51924f34bb2512a3376721a75289a7330fe275e8e49fe5f9b2d0902f0a82",
      "transactionType": "CALL",
      "contractName": null,
      "contractAddress": "0xbf4a322f1496e5c3d34a9bcdb4c60567b38c7de2",
      "function": "buy(address)",
      "arguments": [
        "0xC77f7fed3b5Cc8249aDc428c5F44C9063B9734b4"
      ],
      "transaction": {
        "from": "0xc77f7fed3b5cc8249adc428c5f44c9063b9734b4",
        "to": "0xbf4a322f1496e5c3d34a9bcdb4c60567b38c7de2",
        "gas": "0x1b309",
        "value": "0xde0b6b3a7640000",
        "input": "0xf088d547000000000000000000000000c77f7fed3b5cc8249adc428c5f44c9063b9734b4",
        "nonce": "0xb72",
        "chainId": "0xaa36a7"
      },
      "additionalContracts": [],
      "isFixedGasLimit": false
    }
  ],
  "receipts": [
    {
      "status": "0x1",
      "cumulativeGasUsed": "0x222d9c4",
      "logs": [
        {
          "address": "0xbf4a322f1496e5c3d34a9bcdb4c60567b38c7de2",
          "topics": [
            "0xddf252ad1be2c89b69c2b068fc378daa952ba7f163c4a11628f55a4df523b3ef",
            "0x0000000000000000000000000000000000000000000000000000000000000000",
            "0x000000000000000000000000c77f7fed3b5cc8249adc428c5f44c9063b9734b4"
          ],
          "data": "0x00000000000000000000000000000000000000000000003515d0542dfcc18c85",
          "blockHash": "0x000018e6aaf66611a0a8b8c1e0d2cee996956694ff79c30423197d94113b4219",
          "blockNumber": "0x725b7e",
          "transactionHash": "0x3ebf51924f34bb2512a3376721a75289a7330fe275e8e49fe5f9b2d0902f0a82",
          "transactionIndex": "0xd7",
          "logIndex": "0x13c",
          "removed": false
        },
        {
          "address": "0xbf4a322f1496e5c3d34a9bcdb4c60567b38c7de2",
          "topics": [
            "0xddf252ad1be2c89b69c2b068fc378daa952ba7f163c4a11628f55a4df523b3ef",
            "0x0000000000000000000000000000000000000000000000000000000000000000",
            "0x000000000000000000000000c77f7fed3b5cc8249adc428c5f44c9063b9734b4"
          ],
          "data": "0x0000000000000000000000000000000000000000000000002938f43617d46af7",
          "blockHash": "0x000018e6aaf66611a0a8b8c1e0d2cee996956694ff79c30423197d94113b4219",
          "blockNumber": "0x725b7e",
          "transactionHash": "0x3ebf51924f34bb2512a3376721a75289a7330fe275e8e49fe5f9b2d0902f0a82",
          "transactionIndex": "0xd7",
          "logIndex": "0x13d",
          "removed": false
        },
        {
          "address": "0xbf4a322f1496e5c3d34a9bcdb4c60567b38c7de2",
          "topics": [
            "0x4afcb4a87cdbd9974efdb92ee48bc8d7cd0ae4bf217004db3d080cbaee652ca7"
          ],
          "data": "0x0000000000000000000000000000000000000000000000000000000067873c440000000000000000000000000000000000000000000000000003977d1c0d5d690000000000000000000000000000000000000000000000000de0b6b3a7640000",
          "blockHash": "0x000018e6aaf66611a0a8b8c1e0d2cee996956694ff79c30423197d94113b4219",
          "blockNumber": "0x725b7e",
          "transactionHash": "0x3ebf51924f34bb2512a3376721a75289a7330fe275e8e49fe5f9b2d0902f0a82",
          "transactionIndex": "0xd7",
          "logIndex": "0x13e",
          "removed": false
        }
      ],
      "logsBloom": "0x00000000000000000000000000000000000000000000000000000000000000000000000000000000000000000000000000000000000000004000000000000000000000000000000000000008000000000000001000000000000000000000000000000000020000000000000000000800020000000000000000000010000000000000000000000000000000000000000000000000000008000000010000000000000000000000000000000000000000004000000000000000000000000000000000000002000000800000000000001000000000000000080000000000000020000000000000000000000000000000000000000000000000000000000000000000",
      "type": "0x2",
      "transactionHash": "0x3ebf51924f34bb2512a3376721a75289a7330fe275e8e49fe5f9b2d0902f0a82",
      "transactionIndex": "0xd7",
      "blockHash": "0x000018e6aaf66611a0a8b8c1e0d2cee996956694ff79c30423197d94113b4219",
      "blockNumber": "0x725b7e",
      "gasUsed": "0x13af6",
      "effectiveGasPrice": "0x3af15f20",
      "from": "0xc77f7fed3b5cc8249adc428c5f44c9063b9734b4",
      "to": "0xbf4a322f1496e5c3d34a9bcdb4c60567b38c7de2",
      "contractAddress": null
    }
  ],
  "libraries": [],
  "pending": [],
  "returns": {},
  "timestamp": 1736916037,
  "chain": 11155111,
  "commit": "51a374b"
}