{
  "transactions": [
    {
      "hash": "0xe061b3131b5f32b573bbcc3c5dc752fdef6b4fd2bfc6f5e14cc9a908a5c67e4b",
      "transactionType": "CALL",
      "contractName": null,
      "contractAddress": "0x270e88f8683660553e8ba4eb2ad7c91a1710d769",
      "function": "buy(address)",
      "arguments": [
        "0xC77f7fed3b5Cc8249aDc428c5F44C9063B9734b4"
      ],
      "transaction": {
        "from": "0xc77f7fed3b5cc8249adc428c5f44c9063b9734b4",
        "to": "0x270e88f8683660553e8ba4eb2ad7c91a1710d769",
        "gas": "0x1b30c",
        "value": "0xde0b6b3a7640000",
        "input": "0xf088d547000000000000000000000000c77f7fed3b5cc8249adc428c5f44c9063b9734b4",
        "nonce": "0x7f3",
        "chainId": "0xaa36a7"
      },
      "additionalContracts": [],
      "isFixedGasLimit": false
    }
  ],
  "receipts": [
    {
      "status": "0x1",
      "cumulativeGasUsed": "0x85dd36",
      "logs": [
        {
          "address": "0x270e88f8683660553e8ba4eb2ad7c91a1710d769",
          "topics": [
            "0xddf252ad1be2c89b69c2b068fc378daa952ba7f163c4a11628f55a4df523b3ef",
            "0x0000000000000000000000000000000000000000000000000000000000000000",
            "0x000000000000000000000000c77f7fed3b5cc8249adc428c5f44c9063b9734b4"
          ],
          "data": "0x000000000000000000000000000000000000000000000027205fe272e5d6d85d",
          "blockHash": "0x8cb48a5eaf7e146b6f7dee341662bc3ca51efaa36a2c0659dd4258f8535810c1",
          "blockNumber": "0x72552f",
          "transactionHash": "0xe061b3131b5f32b573bbcc3c5dc752fdef6b4fd2bfc6f5e14cc9a908a5c67e4b",
          "transactionIndex": "0x4f",
          "logIndex": "0x72",
          "removed": false
        },
        {
          "address": "0x270e88f8683660553e8ba4eb2ad7c91a1710d769",
          "topics": [
            "0xddf252ad1be2c89b69c2b068fc378daa952ba7f163c4a11628f55a4df523b3ef",
            "0x0000000000000000000000000000000000000000000000000000000000000000",
            "0x000000000000000000000000c77f7fed3b5cc8249adc428c5f44c9063b9734b4"
          ],
          "data": "0x0000000000000000000000000000000000000000000000001e620e766da5192b",
          "blockHash": "0x8cb48a5eaf7e146b6f7dee341662bc3ca51efaa36a2c0659dd4258f8535810c1",
          "blockNumber": "0x72552f",
          "transactionHash": "0xe061b3131b5f32b573bbcc3c5dc752fdef6b4fd2bfc6f5e14cc9a908a5c67e4b",
          "transactionIndex": "0x4f",
          "logIndex": "0x73",
          "removed": false
        },
        {
          "address": "0x270e88f8683660553e8ba4eb2ad7c91a1710d769",
          "topics": [
            "0x4afcb4a87cdbd9974efdb92ee48bc8d7cd0ae4bf217004db3d080cbaee652ca7"
          ],
          "data": "0x000000000000000000000000000000000000000000000000000000006786f03c0000000000000000000000000000000000000000000000000004df9e23410bac0000000000000000000000000000000000000000000000000de0b6b3a7640000",
          "blockHash": "0x8cb48a5eaf7e146b6f7dee341662bc3ca51efaa36a2c0659dd4258f8535810c1",
          "blockNumber": "0x72552f",
          "transactionHash": "0xe061b3131b5f32b573bbcc3c5dc752fdef6b4fd2bfc6f5e14cc9a908a5c67e4b",
          "transactionIndex": "0x4f",
          "logIndex": "0x74",
          "removed": false
        }
      ],
      "logsBloom": "0x00000000000000000000000000000000000000000000000000000000000000000000000000000000000000000000000020000000000000004000000000000000000000000000000000000008000000000000000000000000000000000000000000000000020000000000000000000800020000000000000000000010000000000000000000010000000000000000000000000000000000000000010000000000000000000000000000000000000000004000000000000000000000000000000000000002000000800000000000000000000000000000080000008000000020000000000000000000000000000000000000000000000000000000000000000000",
      "type": "0x2",
      "transactionHash": "0xe061b3131b5f32b573bbcc3c5dc752fdef6b4fd2bfc6f5e14cc9a908a5c67e4b",
      "transactionIndex": "0x4f",
      "blockHash": "0x8cb48a5eaf7e146b6f7dee341662bc3ca51efaa36a2c0659dd4258f8535810c1",
      "blockNumber": "0x72552f",
      "gasUsed": "0x13af8",
      "effectiveGasPrice": "0x9b2165e0",
      "from": "0xc77f7fed3b5cc8249adc428c5f44c9063b9734b4",
      "to": "0x270e88f8683660553e8ba4eb2ad7c91a1710d769",
      "contractAddress": null
    }
  ],
  "libraries": [],
  "pending": [],
  "returns": {},
  "timestamp": 1736896572,
  "chain": 11155111,
  "commit": "51a374b"
}