{
  "transactions": [
    {
      "hash": "0xd283a119faf9e46385e9fae75c301038788f63ab9a0092dcf1ea84a1a18b7564",
      "transactionType": "CALL",
      "contractName": null,
      "contractAddress": "0xbf4a322f1496e5c3d34a9bcdb4c60567b38c7de2",
      "function": "buy(address)",
      "arguments": [
        "0xC77f7fed3b5Cc8249aDc428c5F44C9063B9734b4"
      ],
      "transaction": {
        "from": "0xc77f7fed3b5cc8249adc428c5f44c9063b9734b4",
        "to": "0xbf4a322f1496e5c3d34a9bcdb4c60567b38c7de2",
        "gas": "0x1b309",
        "value": "0xde0b6b3a7640000",
        "input": "0xf088d547000000000000000000000000c77f7fed3b5cc8249adc428c5f44c9063b9734b4",
        "nonce": "0xd06",
        "chainId": "0xaa36a7"
      },
      "additionalContracts": [],
      "isFixedGasLimit": false
    }
  ],
  "receipts": [
    {
      "status": "0x1",
      "cumulativeGasUsed": "0xad8887",
      "logs": [
        {
          "address": "0xbf4a322f1496e5c3d34a9bcdb4c60567b38c7de2",
          "topics": [
            "0xddf252ad1be2c89b69c2b068fc378daa952ba7f163c4a11628f55a4df523b3ef",
            "0x0000000000000000000000000000000000000000000000000000000000000000",
            "0x000000000000000000000000c77f7fed3b5cc8249adc428c5f44c9063b9734b4"
          ],
          "data": "0x000000000000000000000000000000000000000000000034cad6dd269ebed01f",
          "blockHash": "0x330bf26aa6370a75b38f9a5c76d7b36db6f45d26a711d53af3eaec8e62dda048",
          "blockNumber": "0x725d5e",
          "transactionHash": "0xd283a119faf9e46385e9fae75c301038788f63ab9a0092dcf1ea84a1a18b7564",
          "transactionIndex": "0x54",
          "logIndex": "0xcd",
          "removed": false
        },
        {
          "address": "0xbf4a322f1496e5c3d34a9bcdb4c60567b38c7de2",
          "topics": [
            "0xddf252ad1be2c89b69c2b068fc378daa952ba7f163c4a11628f55a4df523b3ef",
            "0x0000000000000000000000000000000000000000000000000000000000000000",
            "0x000000000000000000000000c77f7fed3b5cc8249adc428c5f44c9063b9734b4"
          ],
          "data": "0x00000000000000000000000000000000000000000000000028febbd4c167566a",
          "blockHash": "0x330bf26aa6370a75b38f9a5c76d7b36db6f45d26a711d53af3eaec8e62dda048",
          "blockNumber": "0x725d5e",
          "transactionHash": "0xd283a119faf9e46385e9fae75c301038788f63ab9a0092dcf1ea84a1a18b7564",
          "transactionIndex": "0x54",
          "logIndex": "0xce",
          "removed": false
        },
        {
          "address": "0xbf4a322f1496e5c3d34a9bcdb4c60567b38c7de2",
          "topics": [
            "0x4afcb4a87cdbd9974efdb92ee48bc8d7cd0ae4bf217004db3d080cbaee652ca7"
          ],
          "data": "0x00000000000000000000000000000000000000000000000000000000678752dc00000000000000000000000000000000000000000000000000039c96eef79dc60000000000000000000000000000000000000000000000000de0b6b3a7640000",
          "blockHash": "0x330bf26aa6370a75b38f9a5c76d7b36db6f45d26a711d53af3eaec8e62dda048",
          "blockNumber": "0x725d5e",
          "transactionHash": "0xd283a119faf9e46385e9fae75c301038788f63ab9a0092dcf1ea84a1a18b7564",
          "transactionIndex": "0x54",
          "logIndex": "0xcf",
          "removed": false
        }
      ],
      "logsBloom": "0x00000000000000000000000000000000000000000000000000000000000000000000000000000000000000000000000000000000000000004000000000000000000000000000000000000008000000000000001000000000000000000000000000000000020000000000000000000800020000000000000000000010000000000000000000000000000000000000000000000000000008000000010000000000000000000000000000000000000000004000000000000000000000000000000000000002000000800000000000001000000000000000080000000000000020000000000000000000000000000000000000000000000000000000000000000000",
      "type": "0x2",
      "transactionHash": "0xd283a119faf9e46385e9fae75c301038788f63ab9a0092dcf1ea84a1a18b7564",
      "transactionIndex": "0x54",
      "blockHash": "0x330bf26aa6370a75b38f9a5c76d7b36db6f45d26a711d53af3eaec8e62dda048",
      "blockNumber": "0x725d5e",
      "gasUsed": "0x13af6",
      "effectiveGasPrice": "0x36ccceeb4",
      "from": "0xc77f7fed3b5cc8249adc428c5f44c9063b9734b4",
      "to": "0xbf4a322f1496e5c3d34a9bcdb4c60567b38c7de2",
      "contractAddress": null
    }
  ],
  "libraries": [],
  "pending": [],
  "returns": {},
  "timestamp": 1736921821,
  "chain": 11155111,
  "commit": "51a374b"
}