{
  "transactions": [
    {
      "hash": "0xc30892a25bd6723ec97de6a9852b3459850be484335e24688595bde9f3bc96bc",
      "transactionType": "CALL",
      "contractName": null,
      "contractAddress": "0x8aafd3ede9adb0ff97c7aebce82a919afb1c8764",
      "function": "sell(uint256)",
      "arguments": [
        "389911"
      ],
      "transaction": {
        "from": "0xc77f7fed3b5cc8249adc428c5f44c9063b9734b4",
        "to": "0x8aafd3ede9adb0ff97c7aebce82a919afb1c8764",
        "gas": "0x16208",
        "value": "0x0",
        "input": "0xe4849b32000000000000000000000000000000000000000000000000000000000005f317",
        "nonce": "0x15b1",
        "chainId": "0xaa36a7"
      },
      "additionalContracts": [],
      "isFixedGasLimit": false
    }
  ],
  "receipts": [
    {
      "status": "0x1",
      "cumulativeGasUsed": "0x847529",
      "logs": [
        {
          "address": "0x8aafd3ede9adb0ff97c7aebce82a919afb1c8764",
          "topics": [
            "0xddf252ad1be2c89b69c2b068fc378daa952ba7f163c4a11628f55a4df523b3ef",
            "0x000000000000000000000000c77f7fed3b5cc8249adc428c5f44c9063b9734b4",
            "0x0000000000000000000000000000000000000000000000000000000000000000"
          ],
          "data": "0x000000000000000000000000000000000000000000000000000000000005e6e8",
          "blockHash": "0xf50af141eb8a190d784494a52674e3cbff774fbf55979e74ee8abdb3c7f62379",
          "blockNumber": "0x731d2a",
          "transactionHash": "0xc30892a25bd6723ec97de6a9852b3459850be484335e24688595bde9f3bc96bc",
          "transactionIndex": "0x67",
          "logIndex": "0x80",
          "removed": false
        },
        {
          "address": "0x8aafd3ede9adb0ff97c7aebce82a919afb1c8764",
          "topics": [
            "0xddf252ad1be2c89b69c2b068fc378daa952ba7f163c4a11628f55a4df523b3ef",
            "0x000000000000000000000000c77f7fed3b5cc8249adc428c5f44c9063b9734b4",
            "0x000000000000000000000000c77f7fed3b5cc8249adc428c5f44c9063b9734b4"
          ],
          "data": "0x0000000000000000000000000000000000000000000000000000000000000c2f",
          "blockHash": "0xf50af141eb8a190d784494a52674e3cbff774fbf55979e74ee8abdb3c7f62379",
          "blockNumber": "0x731d2a",
          "transactionHash": "0xc30892a25bd6723ec97de6a9852b3459850be484335e24688595bde9f3bc96bc",
          "transactionIndex": "0x67",
          "logIndex": "0x81",
          "removed": false
        },
        {
          "address": "0x8aafd3ede9adb0ff97c7aebce82a919afb1c8764",
          "topics": [
            "0x4afcb4a87cdbd9974efdb92ee48bc8d7cd0ae4bf217004db3d080cbaee652ca7"
          ],
          "data": "0x0000000000000000000000000000000000000000000000000000000067905ae00000000000000000000000000000000000000000000000000013143827bf6b7d000000000000000000000000000000000000000000000000000000000000082d",
          "blockHash": "0xf50af141eb8a190d784494a52674e3cbff774fbf55979e74ee8abdb3c7f62379",
          "blockNumber": "0x731d2a",
          "transactionHash": "0xc30892a25bd6723ec97de6a9852b3459850be484335e24688595bde9f3bc96bc",
          "transactionIndex": "0x67",
          "logIndex": "0x82",
          "removed": false
        }
      ],
      "logsBloom": "0x00000000000000000000000000000000000000000600000000000000000000000000000000000000000000000000000000000000000000004000000000000000000000000000004000000008000000000000000000000000000000000000000000000000020000000000000000000800020000000000000000000010000000000000000000000000000000000000000000000000000000000000010000000000000000000000000000000000000000004000000000000000000000000000000000000002000000800000000000000000000000000000080000000000000020000000000000000000000000000000000000000000000000000000000000000000",
      "type": "0x2",
      "transactionHash": "0xc30892a25bd6723ec97de6a9852b3459850be484335e24688595bde9f3bc96bc",
      "transactionIndex": "0x67",
      "blockHash": "0xf50af141eb8a190d784494a52674e3cbff774fbf55979e74ee8abdb3c7f62379",
      "blockNumber": "0x731d2a",
      "gasUsed": "0xf213",
      "effectiveGasPrice": "0x4a37f315",
      "from": "0xc77f7fed3b5cc8249adc428c5f44c9063b9734b4",
      "to": "0x8aafd3ede9adb0ff97c7aebce82a919afb1c8764",
      "contractAddress": null
    }
  ],
  "libraries": [],
  "pending": [],
  "returns": {},
  "timestamp": 1737513696,
  "chain": 11155111,
  "commit": "1d2fb70"
}