{
  "transactions": [
    {
      "hash": "0x8c297ee32bdf546d480059f8b8cdc7f8b35f71f78cdfce835c241f1b553816ae",
      "transactionType": "CALL",
      "contractName": null,
      "contractAddress": "0x5eb9cc76c3506942c1c0ead70e877dd5e4f00cb0",
      "function": "buy(address)",
      "arguments": [
        "0xC77f7fed3b5Cc8249aDc428c5F44C9063B9734b4"
      ],
      "transaction": {
        "from": "0xc77f7fed3b5cc8249adc428c5f44c9063b9734b4",
        "to": "0x5eb9cc76c3506942c1c0ead70e877dd5e4f00cb0",
        "gas": "0x1b30c",
        "value": "0xde0b6b3a7640000",
        "input": "0xf088d547000000000000000000000000c77f7fed3b5cc8249adc428c5f44c9063b9734b4",
        "nonce": "0x3f8",
        "chainId": "0xaa36a7"
      },
      "additionalContracts": [],
      "isFixedGasLimit": false
    }
  ],
  "receipts": [
    {
      "status": "0x1",
      "cumulativeGasUsed": "0xc0421e",
      "logs": [
        {
          "address": "0x5eb9cc76c3506942c1c0ead70e877dd5e4f00cb0",
          "topics": [
            "0xddf252ad1be2c89b69c2b068fc378daa952ba7f163c4a11628f55a4df523b3ef",
            "0x0000000000000000000000000000000000000000000000000000000000000000",
            "0x000000000000000000000000c77f7fed3b5cc8249adc428c5f44c9063b9734b4"
          ],
          "data": "0x0000000000000000000000000000000000000000000000357506bc5d668621b2",
          "blockHash": "0x03747d38c0fa405977cd66eb6cf3f072a0b7410c13b70be4917bfe3ecea8ef00",
          "blockNumber": "0x724fff",
          "transactionHash": "0x8c297ee32bdf546d480059f8b8cdc7f8b35f71f78cdfce835c241f1b553816ae",
          "transactionIndex": "0x59",
          "logIndex": "0x87",
          "removed": false
        },
        {
          "address": "0x5eb9cc76c3506942c1c0ead70e877dd5e4f00cb0",
          "topics": [
            "0xddf252ad1be2c89b69c2b068fc378daa952ba7f163c4a11628f55a4df523b3ef",
            "0x0000000000000000000000000000000000000000000000000000000000000000",
            "0x000000000000000000000000c77f7fed3b5cc8249adc428c5f44c9063b9734b4"
          ],
          "data": "0x0000000000000000000000000000000000000000000000002982e3c50c9e7a68",
          "blockHash": "0x03747d38c0fa405977cd66eb6cf3f072a0b7410c13b70be4917bfe3ecea8ef00",
          "blockNumber": "0x724fff",
          "transactionHash": "0x8c297ee32bdf546d480059f8b8cdc7f8b35f71f78cdfce835c241f1b553816ae",
          "transactionIndex": "0x59",
          "logIndex": "0x88",
          "removed": false
        },
        {
          "address": "0x5eb9cc76c3506942c1c0ead70e877dd5e4f00cb0",
          "topics": [
            "0x4afcb4a87cdbd9974efdb92ee48bc8d7cd0ae4bf217004db3d080cbaee652ca7"
          ],
          "data": "0x000000000000000000000000000000000000000000000000000000006786b1c0000000000000000000000000000000000000000000000000000391151f73bb600000000000000000000000000000000000000000000000000de0b6b3a7640000",
          "blockHash": "0x03747d38c0fa405977cd66eb6cf3f072a0b7410c13b70be4917bfe3ecea8ef00",
          "blockNumber": "0x724fff",
          "transactionHash": "0x8c297ee32bdf546d480059f8b8cdc7f8b35f71f78cdfce835c241f1b553816ae",
          "transactionIndex": "0x59",
          "logIndex": "0x89",
          "removed": false
        }
      ],
      "logsBloom": "0x00000000000000000000000000000000000000000000000000000000000000000000000000000000000000000000000000000000000000004000000000000000000000000000000000000008000000000000000000000000000000000000000000000000020000000000000004000800020000000000000000000010000000000000000000000000000000000000000000000000000000000000010000000000000000000000000000000000000000004000000000000000000000000000020000000002000000800000008000000000000000000000080000000000000020000000000000000000000000000000000000000000000000000000000000000000",
      "type": "0x2",
      "transactionHash": "0x8c297ee32bdf546d480059f8b8cdc7f8b35f71f78cdfce835c241f1b553816ae",
      "transactionIndex": "0x59",
      "blockHash": "0x03747d38c0fa405977cd66eb6cf3f072a0b7410c13b70be4917bfe3ecea8ef00",
      "blockNumber": "0x724fff",
      "gasUsed": "0x13af8",
      "effectiveGasPrice": "0x3cbfad3ce",
      "from": "0xc77f7fed3b5cc8249adc428c5f44c9063b9734b4",
      "to": "0x5eb9cc76c3506942c1c0ead70e877dd5e4f00cb0",
      "contractAddress": null
    }
  ],
  "libraries": [],
  "pending": [],
  "returns": {},
  "timestamp": 1736880578,
  "chain": 11155111,
  "commit": "51a374b"
}