{
  "transactions": [
    {
      "hash": "0x7718bf693b00c9d4658f01ea8a54d07f431b768a74f08f87e8a7df49209fc248",
      "transactionType": "CALL",
      "contractName": null,
      "contractAddress": "0x5eb9cc76c3506942c1c0ead70e877dd5e4f00cb0",
      "function": "buy(address)",
      "arguments": [
        "0xC77f7fed3b5Cc8249aDc428c5F44C9063B9734b4"
      ],
      "transaction": {
        "from": "0xc77f7fed3b5cc8249adc428c5f44c9063b9734b4",
        "to": "0x5eb9cc76c3506942c1c0ead70e877dd5e4f00cb0",
        "gas": "0x1b30c",
        "value": "0xde0b6b3a7640000",
        "input": "0xf088d547000000000000000000000000c77f7fed3b5cc8249adc428c5f44c9063b9734b4",
        "nonce": "0x48a",
        "chainId": "0xaa36a7"
      },
      "additionalContracts": [],
      "isFixedGasLimit": false
    }
  ],
  "receipts": [
    {
      "status": "0x1",
      "cumulativeGasUsed": "0x9219fb",
      "logs": [
        {
          "address": "0x5eb9cc76c3506942c1c0ead70e877dd5e4f00cb0",
          "topics": [
            "0xddf252ad1be2c89b69c2b068fc378daa952ba7f163c4a11628f55a4df523b3ef",
            "0x0000000000000000000000000000000000000000000000000000000000000000",
            "0x000000000000000000000000c77f7fed3b5cc8249adc428c5f44c9063b9734b4"
          ],
          "data": "0x00000000000000000000000000000000000000000000003574b454de85eaff22",
          "blockHash": "0x7f22b8152675330eb0dbb03b94c12e5102f9d89f1aeb4a71ad6b34760cc87e06",
          "blockNumber": "0x7250bb",
          "transactionHash": "0x7718bf693b00c9d4658f01ea8a54d07f431b768a74f08f87e8a7df49209fc248",
          "transactionIndex": "0x5c",
          "logIndex": "0x89",
          "removed": false
        },
        {
          "address": "0x5eb9cc76c3506942c1c0ead70e877dd5e4f00cb0",
          "topics": [
            "0xddf252ad1be2c89b69c2b068fc378daa952ba7f163c4a11628f55a4df523b3ef",
            "0x0000000000000000000000000000000000000000000000000000000000000000",
            "0x000000000000000000000000c77f7fed3b5cc8249adc428c5f44c9063b9734b4"
          ],
          "data": "0x0000000000000000000000000000000000000000000000002982a3c7ad69064f",
          "blockHash": "0x7f22b8152675330eb0dbb03b94c12e5102f9d89f1aeb4a71ad6b34760cc87e06",
          "blockNumber": "0x7250bb",
          "transactionHash": "0x7718bf693b00c9d4658f01ea8a54d07f431b768a74f08f87e8a7df49209fc248",
          "transactionIndex": "0x5c",
          "logIndex": "0x8a",
          "removed": false
        },
        {
          "address": "0x5eb9cc76c3506942c1c0ead70e877dd5e4f00cb0",
          "topics": [
            "0x4afcb4a87cdbd9974efdb92ee48bc8d7cd0ae4bf217004db3d080cbaee652ca7"
          ],
          "data": "0x000000000000000000000000000000000000000000000000000000006786ba900000000000000000000000000000000000000000000000000003911a9f00e8c10000000000000000000000000000000000000000000000000de0b6b3a7640000",
          "blockHash": "0x7f22b8152675330eb0dbb03b94c12e5102f9d89f1aeb4a71ad6b34760cc87e06",
          "blockNumber": "0x7250bb",
          "transactionHash": "0x7718bf693b00c9d4658f01ea8a54d07f431b768a74f08f87e8a7df49209fc248",
          "transactionIndex": "0x5c",
          "logIndex": "0x8b",
          "removed": false
        }
      ],
      "logsBloom": "0x00000000000000000000000000000000000000000000000000000000000000000000000000000000000000000000000000000000000000004000000000000000000000000000000000000008000000000000000000000000000000000000000000000000020000000000000004000800020000000000000000000010000000000000000000000000000000000000000000000000000000000000010000000000000000000000000000000000000000004000000000000000000000000000020000000002000000800000008000000000000000000000080000000000000020000000000000000000000000000000000000000000000000000000000000000000",
      "type": "0x2",
      "transactionHash": "0x7718bf693b00c9d4658f01ea8a54d07f431b768a74f08f87e8a7df49209fc248",
      "transactionIndex": "0x5c",
      "blockHash": "0x7f22b8152675330eb0dbb03b94c12e5102f9d89f1aeb4a71ad6b34760cc87e06",
      "blockNumber": "0x7250bb",
      "gasUsed": "0x13af8",
      "effectiveGasPrice": "0x234c8b605",
      "from": "0xc77f7fed3b5cc8249adc428c5f44c9063b9734b4",
      "to": "0x5eb9cc76c3506942c1c0ead70e877dd5e4f00cb0",
      "contractAddress": null
    }
  ],
  "libraries": [],
  "pending": [],
  "returns": {},
  "timestamp": 1736882834,
  "chain": 11155111,
  "commit": "51a374b"
}