{
  "transactions": [
    {
      "hash": "0xed541588a2b142f68ebe4f17a55a6f16297fbcc5561e270d734bfbfa69f32d0e",
      "transactionType": "CALL",
      "contractName": null,
      "contractAddress": "0x270e88f8683660553e8ba4eb2ad7c91a1710d769",
      "function": "buy(address)",
      "arguments": [
        "0xC77f7fed3b5Cc8249aDc428c5F44C9063B9734b4"
      ],
      "transaction": {
        "from": "0xc77f7fed3b5cc8249adc428c5f44c9063b9734b4",
        "to": "0x270e88f8683660553e8ba4eb2ad7c91a1710d769",
        "gas": "0x1b30c",
        "value": "0xde0b6b3a7640000",
        "input": "0xf088d547000000000000000000000000c77f7fed3b5cc8249adc428c5f44c9063b9734b4",
        "nonce": "0x5c6",
        "chainId": "0xaa36a7"
      },
      "additionalContracts": [],
      "isFixedGasLimit": false
    }
  ],
  "receipts": [
    {
      "status": "0x1",
      "cumulativeGasUsed": "0xcfd4b6",
      "logs": [
        {
          "address": "0x270e88f8683660553e8ba4eb2ad7c91a1710d769",
          "topics": [
            "0xddf252ad1be2c89b69c2b068fc378daa952ba7f163c4a11628f55a4df523b3ef",
            "0x0000000000000000000000000000000000000000000000000000000000000000",
            "0x000000000000000000000000c77f7fed3b5cc8249adc428c5f44c9063b9734b4"
          ],
          "data": "0x000000000000000000000000000000000000000000000033a84b4b39451ad047",
          "blockHash": "0x4d618d5091d9522c070c571df910095a6976c7a3ee306139504219c10aad9cd7",
          "blockNumber": "0x725285",
          "transactionHash": "0xed541588a2b142f68ebe4f17a55a6f16297fbcc5561e270d734bfbfa69f32d0e",
          "transactionIndex": "0x61",
          "logIndex": "0xad",
          "removed": false
        },
        {
          "address": "0x270e88f8683660553e8ba4eb2ad7c91a1710d769",
          "topics": [
            "0xddf252ad1be2c89b69c2b068fc378daa952ba7f163c4a11628f55a4df523b3ef",
            "0x0000000000000000000000000000000000000000000000000000000000000000",
            "0x000000000000000000000000c77f7fed3b5cc8249adc428c5f44c9063b9734b4"
          ],
          "data": "0x000000000000000000000000000000000000000000000000281d1d8ed0b582c1",
          "blockHash": "0x4d618d5091d9522c070c571df910095a6976c7a3ee306139504219c10aad9cd7",
          "blockNumber": "0x725285",
          "transactionHash": "0xed541588a2b142f68ebe4f17a55a6f16297fbcc5561e270d734bfbfa69f32d0e",
          "transactionIndex": "0x61",
          "logIndex": "0xae",
          "removed": false
        },
        {
          "address": "0x270e88f8683660553e8ba4eb2ad7c91a1710d769",
          "topics": [
            "0x4afcb4a87cdbd9974efdb92ee48bc8d7cd0ae4bf217004db3d080cbaee652ca7"
          ],
          "data": "0x000000000000000000000000000000000000000000000000000000006786d02c0000000000000000000000000000000000000000000000000003b0ff99ed74e80000000000000000000000000000000000000000000000000de0b6b3a7640000",
          "blockHash": "0x4d618d5091d9522c070c571df910095a6976c7a3ee306139504219c10aad9cd7",
          "blockNumber": "0x725285",
          "transactionHash": "0xed541588a2b142f68ebe4f17a55a6f16297fbcc5561e270d734bfbfa69f32d0e",
          "transactionIndex": "0x61",
          "logIndex": "0xaf",
          "removed": false
        }
      ],
      "logsBloom": "0x00000000000000000000000000000000000000000000000000000000000000000000000000000000000000000000000020000000000000004000000000000000000000000000000000000008000000000000000000000000000000000000000000000000020000000000000000000800020000000000000000000010000000000000000000010000000000000000000000000000000000000000010000000000000000000000000000000000000000004000000000000000000000000000000000000002000000800000000000000000000000000000080000008000000020000000000000000000000000000000000000000000000000000000000000000000",
      "type": "0x2",
      "transactionHash": "0xed541588a2b142f68ebe4f17a55a6f16297fbcc5561e270d734bfbfa69f32d0e",
      "transactionIndex": "0x61",
      "blockHash": "0x4d618d5091d9522c070c571df910095a6976c7a3ee306139504219c10aad9cd7",
      "blockNumber": "0x725285",
      "gasUsed": "0x13af8",
      "effectiveGasPrice": "0x3f5aa2f6a",
      "from": "0xc77f7fed3b5cc8249adc428c5f44c9063b9734b4",
      "to": "0x270e88f8683660553e8ba4eb2ad7c91a1710d769",
      "contractAddress": null
    }
  ],
  "libraries": [],
  "pending": [],
  "returns": {},
  "timestamp": 1736888366,
  "chain": 11155111,
  "commit": "51a374b"
}