{
  "transactions": [
    {
      "hash": "0xc127107f6cfb2ab774a24b2819f2181772561ab7f4813bff78c11dfaf8b3083f",
      "transactionType": "CALL",
      "contractName": null,
      "contractAddress": "0x5eb9cc76c3506942c1c0ead70e877dd5e4f00cb0",
      "function": "buy(address)",
      "arguments": [
        "0xC77f7fed3b5Cc8249aDc428c5F44C9063B9734b4"
      ],
      "transaction": {
        "from": "0xc77f7fed3b5cc8249adc428c5f44c9063b9734b4",
        "to": "0x5eb9cc76c3506942c1c0ead70e877dd5e4f00cb0",
        "gas": "0x1b30c",
        "value": "0xde0b6b3a7640000",
        "input": "0xf088d547000000000000000000000000c77f7fed3b5cc8249adc428c5f44c9063b9734b4",
        "nonce": "0x430",
        "chainId": "0xaa36a7"
      },
      "additionalContracts": [],
      "isFixedGasLimit": false
    }
  ],
  "receipts": [
    {
      "status": "0x1",
      "cumulativeGasUsed": "0xc8d6a6",
      "logs": [
        {
          "address": "0x5eb9cc76c3506942c1c0ead70e877dd5e4f00cb0",
          "topics": [
            "0xddf252ad1be2c89b69c2b068fc378daa952ba7f163c4a11628f55a4df523b3ef",
            "0x0000000000000000000000000000000000000000000000000000000000000000",
            "0x000000000000000000000000c77f7fed3b5cc8249adc428c5f44c9063b9734b4"
          ],
          "data": "0x00000000000000000000000000000000000000000000003574e720d31582b59e",
          "blockHash": "0x0fb2d0d9dd3d6b180f8b1ff561927a59783256b53e785c7c42747071ca891134",
          "blockNumber": "0x725048",
          "transactionHash": "0xc127107f6cfb2ab774a24b2819f2181772561ab7f4813bff78c11dfaf8b3083f",
          "transactionIndex": "0x57",
          "logIndex": "0xd0",
          "removed": false
        },
        {
          "address": "0x5eb9cc76c3506942c1c0ead70e877dd5e4f00cb0",
          "topics": [
            "0xddf252ad1be2c89b69c2b068fc378daa952ba7f163c4a11628f55a4df523b3ef",
            "0x0000000000000000000000000000000000000000000000000000000000000000",
            "0x000000000000000000000000c77f7fed3b5cc8249adc428c5f44c9063b9734b4"
          ],
          "data": "0x0000000000000000000000000000000000000000000000002982cb39b1374a28",
          "blockHash": "0x0fb2d0d9dd3d6b180f8b1ff561927a59783256b53e785c7c42747071ca891134",
          "blockNumber": "0x725048",
          "transactionHash": "0xc127107f6cfb2ab774a24b2819f2181772561ab7f4813bff78c11dfaf8b3083f",
          "transactionIndex": "0x57",
          "logIndex": "0xd1",
          "removed": false
        },
        {
          "address": "0x5eb9cc76c3506942c1c0ead70e877dd5e4f00cb0",
          "topics": [
            "0x4afcb4a87cdbd9974efdb92ee48bc8d7cd0ae4bf217004db3d080cbaee652ca7"
          ],
          "data": "0x000000000000000000000000000000000000000000000000000000006786b52c000000000000000000000000000000000000000000000000000391173b55b7bd0000000000000000000000000000000000000000000000000de0b6b3a7640000",
          "blockHash": "0x0fb2d0d9dd3d6b180f8b1ff561927a59783256b53e785c7c42747071ca891134",
          "blockNumber": "0x725048",
          "transactionHash": "0xc127107f6cfb2ab774a24b2819f2181772561ab7f4813bff78c11dfaf8b3083f",
          "transactionIndex": "0x57",
          "logIndex": "0xd2",
          "removed": false
        }
      ],
      "logsBloom": "0x00000000000000000000000000000000000000000000000000000000000000000000000000000000000000000000000000000000000000004000000000000000000000000000000000000008000000000000000000000000000000000000000000000000020000000000000004000800020000000000000000000010000000000000000000000000000000000000000000000000000000000000010000000000000000000000000000000000000000004000000000000000000000000000020000000002000000800000008000000000000000000000080000000000000020000000000000000000000000000000000000000000000000000000000000000000",
      "type": "0x2",
      "transactionHash": "0xc127107f6cfb2ab774a24b2819f2181772561ab7f4813bff78c11dfaf8b3083f",
      "transactionIndex": "0x57",
      "blockHash": "0x0fb2d0d9dd3d6b180f8b1ff561927a59783256b53e785c7c42747071ca891134",
      "blockNumber": "0x725048",
      "gasUsed": "0x13af8",
      "effectiveGasPrice": "0x283eca7fb",
      "from": "0xc77f7fed3b5cc8249adc428c5f44c9063b9734b4",
      "to": "0x5eb9cc76c3506942c1c0ead70e877dd5e4f00cb0",
      "contractAddress": null
    }
  ],
  "libraries": [],
  "pending": [],
  "returns": {},
  "timestamp": 1736881453,
  "chain": 11155111,
  "commit": "51a374b"
}