{
  "transactions": [
    {
      "hash": "0xbe1103e23b9da3855df5b98e6d70cb9f957d58ca0bb998f37b3fba73549a65c3",
      "transactionType": "CALL",
      "contractName": null,
      "contractAddress": "0x5eb9cc76c3506942c1c0ead70e877dd5e4f00cb0",
      "function": "sell(uint256)",
      "arguments": [
        "989086613578576409276"
      ],
      "transaction": {
        "from": "0xc77f7fed3b5cc8249adc428c5f44c9063b9734b4",
        "to": "0x5eb9cc76c3506942c1c0ead70e877dd5e4f00cb0",
        "gas": "0x16fec",
        "value": "0x0",
        "input": "0xe4849b320000000000000000000000000000000000000000000000359e558aa4ed19b2bc",
        "nonce": "0x455",
        "chainId": "0xaa36a7"
      },
      "additionalContracts": [],
      "isFixedGasLimit": false
    }
  ],
  "receipts": [
    {
      "status": "0x1",
      "cumulativeGasUsed": "0xa12344",
      "logs": [
        {
          "address": "0x5eb9cc76c3506942c1c0ead70e877dd5e4f00cb0",
          "topics": [
            "0xddf252ad1be2c89b69c2b068fc378daa952ba7f163c4a11628f55a4df523b3ef",
            "0x000000000000000000000000c77f7fed3b5cc8249adc428c5f44c9063b9734b4",
            "0x0000000000000000000000000000000000000000000000000000000000000000"
          ],
          "data": "0x0000000000000000000000000000000000000000000000359e558aa4ed19b2bc",
          "blockHash": "0x252b20ca9a74a192c7f66d6d02db25552407ea4fbc4568d1488c912707e371ae",
          "blockNumber": "0x725077",
          "transactionHash": "0xbe1103e23b9da3855df5b98e6d70cb9f957d58ca0bb998f37b3fba73549a65c3",
          "transactionIndex": "0x52",
          "logIndex": "0x96",
          "removed": false
        },
        {
          "address": "0x5eb9cc76c3506942c1c0ead70e877dd5e4f00cb0",
          "topics": [
            "0x4afcb4a87cdbd9974efdb92ee48bc8d7cd0ae4bf217004db3d080cbaee652ca7"
          ],
          "data": "0x000000000000000000000000000000000000000000000000000000006786b76000000000000000000000000000000000000000000000000000039118a2bbaa8d0000000000000000000000000000000000000000000000000dc7db1331cfa0ff",
          "blockHash": "0x252b20ca9a74a192c7f66d6d02db25552407ea4fbc4568d1488c912707e371ae",
          "blockNumber": "0x725077",
          "transactionHash": "0xbe1103e23b9da3855df5b98e6d70cb9f957d58ca0bb998f37b3fba73549a65c3",
          "transactionIndex": "0x52",
          "logIndex": "0x97",
          "removed": false
        }
      ],
      "logsBloom": "0x00000000000000000000000000000000000000000000000000000000000000000000000000000000000000000000000000000000000000004000000000000000000000000000000000000008000000000000000000000000000000000000000000000000020000000000000004000800020000000000000000000010000000000000000000000000000000000000000000000000000000000000010000000000000000000000000000000000000000004000000000000000000000000000020000000002000000800000008000000000000000000000080000000000000020000000000000000000000000000000000000000000000000000000000000000000",
      "type": "0x2",
      "transactionHash": "0xbe1103e23b9da3855df5b98e6d70cb9f957d58ca0bb998f37b3fba73549a65c3",
      "transactionIndex": "0x52",
      "blockHash": "0x252b20ca9a74a192c7f66d6d02db25552407ea4fbc4568d1488c912707e371ae",
      "blockNumber": "0x725077",
      "gasUsed": "0xfb93",
      "effectiveGasPrice": "0x229729726",
      "from": "0xc77f7fed3b5cc8249adc428c5f44c9063b9734b4",
      "to": "0x5eb9cc76c3506942c1c0ead70e877dd5e4f00cb0",
      "contractAddress": null
    }
  ],
  "libraries": [],
  "pending": [],
  "returns": {},
  "timestamp": 1736882017,
  "chain": 11155111,
  "commit": "51a374b"
}