{
  "transactions": [
    {
      "hash": "0x1cf9dc5904a2c15aa7fd9a26a3ac335fc4ee6ce0c752fafe694c7c4bacc21dad",
      "transactionType": "CALL",
      "contractName": null,
      "contractAddress": "0x270e88f8683660553e8ba4eb2ad7c91a1710d769",
      "function": "buy(address)",
      "arguments": [
        "0xC77f7fed3b5Cc8249aDc428c5F44C9063B9734b4"
      ],
      "transaction": {
        "from": "0xc77f7fed3b5cc8249adc428c5f44c9063b9734b4",
        "to": "0x270e88f8683660553e8ba4eb2ad7c91a1710d769",
        "gas": "0x1b30c",
        "value": "0xde0b6b3a7640000",
        "input": "0xf088d547000000000000000000000000c77f7fed3b5cc8249adc428c5f44c9063b9734b4",
        "nonce": "0x5e6",
        "chainId": "0xaa36a7"
      },
      "additionalContracts": [],
      "isFixedGasLimit": false
    }
  ],
  "receipts": [
    {
      "status": "0x1",
      "cumulativeGasUsed": "0xb1e2a2",
      "logs": [
        {
          "address": "0x270e88f8683660553e8ba4eb2ad7c91a1710d769",
          "topics": [
            "0xddf252ad1be2c89b69c2b068fc378daa952ba7f163c4a11628f55a4df523b3ef",
            "0x0000000000000000000000000000000000000000000000000000000000000000",
            "0x000000000000000000000000c77f7fed3b5cc8249adc428c5f44c9063b9734b4"
          ],
          "data": "0x0000000000000000000000000000000000000000000000336719dbae7b587a92",
          "blockHash": "0x0e2335a8b2e90289cf522a06dc775f9f94ba35ce172f143d97ef7214a34eb95a",
          "blockNumber": "0x7252ab",
          "transactionHash": "0x1cf9dc5904a2c15aa7fd9a26a3ac335fc4ee6ce0c752fafe694c7c4bacc21dad",
          "transactionIndex": "0x66",
          "logIndex": "0xa8",
          "removed": false
        },
        {
          "address": "0x270e88f8683660553e8ba4eb2ad7c91a1710d769",
          "topics": [
            "0xddf252ad1be2c89b69c2b068fc378daa952ba7f163c4a11628f55a4df523b3ef",
            "0x0000000000000000000000000000000000000000000000000000000000000000",
            "0x000000000000000000000000c77f7fed3b5cc8249adc428c5f44c9063b9734b4"
          ],
          "data": "0x00000000000000000000000000000000000000000000000027ea7da44ae3eec2",
          "blockHash": "0x0e2335a8b2e90289cf522a06dc775f9f94ba35ce172f143d97ef7214a34eb95a",
          "blockNumber": "0x7252ab",
          "transactionHash": "0x1cf9dc5904a2c15aa7fd9a26a3ac335fc4ee6ce0c752fafe694c7c4bacc21dad",
          "transactionIndex": "0x66",
          "logIndex": "0xa9",
          "removed": false
        },
        {
          "address": "0x270e88f8683660553e8ba4eb2ad7c91a1710d769",
          "topics": [
            "0x4afcb4a87cdbd9974efdb92ee48bc8d7cd0ae4bf217004db3d080cbaee652ca7"
          ],
          "data": "0x000000000000000000000000000000000000000000000000000000006786d20c0000000000000000000000000000000000000000000000000003b5adfe8e4ea10000000000000000000000000000000000000000000000000de0b6b3a7640000",
          "blockHash": "0x0e2335a8b2e90289cf522a06dc775f9f94ba35ce172f143d97ef7214a34eb95a",
          "blockNumber": "0x7252ab",
          "transactionHash": "0x1cf9dc5904a2c15aa7fd9a26a3ac335fc4ee6ce0c752fafe694c7c4bacc21dad",
          "transactionIndex": "0x66",
          "logIndex": "0xaa",
          "removed": false
        }
      ],
      "logsBloom": "0x00000000000000000000000000000000000000000000000000000000000000000000000000000000000000000000000020000000000000004000000000000000000000000000000000000008000000000000000000000000000000000000000000000000020000000000000000000800020000000000000000000010000000000000000000010000000000000000000000000000000000000000010000000000000000000000000000000000000000004000000000000000000000000000000000000002000000800000000000000000000000000000080000008000000020000000000000000000000000000000000000000000000000000000000000000000",
      "type": "0x2",
      "transactionHash": "0x1cf9dc5904a2c15aa7fd9a26a3ac335fc4ee6ce0c752fafe694c7c4bacc21dad",
      "transactionIndex": "0x66",
      "blockHash": "0x0e2335a8b2e90289cf522a06dc775f9f94ba35ce172f143d97ef7214a34eb95a",
      "blockNumber": "0x7252ab",
      "gasUsed": "0x13af8",
      "effectiveGasPrice": "0x35a99d08a",
      "from": "0xc77f7fed3b5cc8249adc428c5f44c9063b9734b4",
      "to": "0x270e88f8683660553e8ba4eb2ad7c91a1710d769",
      "contractAddress": null
    }
  ],
  "libraries": [],
  "pending": [],
  "returns": {},
  "timestamp": 1736888846,
  "chain": 11155111,
  "commit": "51a374b"
}