{
  "transactions": [
    {
      "hash": "0x51c0d9512c900d360e454f069ba14f730646fbc91830caeff8d88f09235da76f",
      "transactionType": "CALL",
      "contractName": null,
      "contractAddress": "0x8aafd3ede9adb0ff97c7aebce82a919afb1c8764",
      "function": "sell(uint256)",
      "arguments": [
        "844897072902"
      ],
      "transaction": {
        "from": "0xc77f7fed3b5cc8249adc428c5f44c9063b9734b4",
        "to": "0x8aafd3ede9adb0ff97c7aebce82a919afb1c8764",
        "gas": "0x1722a",
        "value": "0x0",
        "input": "0xe4849b32000000000000000000000000000000000000000000000000000000c4b7ca3706",
        "nonce": "0x150c",
        "chainId": "0xaa36a7"
      },
      "additionalContracts": [],
      "isFixedGasLimit": false
    }
  ],
  "receipts": [
    {
      "status": "0x1",
      "cumulativeGasUsed": "0xc63837",
      "logs": [
        {
          "address": "0x8aafd3ede9adb0ff97c7aebce82a919afb1c8764",
          "topics": [
            "0xddf252ad1be2c89b69c2b068fc378daa952ba7f163c4a11628f55a4df523b3ef",
            "0x000000000000000000000000c77f7fed3b5cc8249adc428c5f44c9063b9734b4",
            "0x0000000000000000000000000000000000000000000000000000000000000000"
          ],
          "data": "0x000000000000000000000000000000000000000000000000000000c324e95d7f",
          "blockHash": "0x97fb546005f438b344dcde0068d9d19e163629eadc4479f22ef7700f726dbc78",
          "blockNumber": "0x731c6e",
          "transactionHash": "0x51c0d9512c900d360e454f069ba14f730646fbc91830caeff8d88f09235da76f",
          "transactionIndex": "0x6e",
          "logIndex": "0xad",
          "removed": false
        },
        {
          "address": "0x8aafd3ede9adb0ff97c7aebce82a919afb1c8764",
          "topics": [
            "0xddf252ad1be2c89b69c2b068fc378daa952ba7f163c4a11628f55a4df523b3ef",
            "0x000000000000000000000000c77f7fed3b5cc8249adc428c5f44c9063b9734b4",
            "0x000000000000000000000000c77f7fed3b5cc8249adc428c5f44c9063b9734b4"
          ],
          "data": "0x0000000000000000000000000000000000000000000000000000000192e0d987",
          "blockHash": "0x97fb546005f438b344dcde0068d9d19e163629eadc4479f22ef7700f726dbc78",
          "blockNumber": "0x731c6e",
          "transactionHash": "0x51c0d9512c900d360e454f069ba14f730646fbc91830caeff8d88f09235da76f",
          "transactionIndex": "0x6e",
          "logIndex": "0xae",
          "removed": false
        },
        {
          "address": "0x8aafd3ede9adb0ff97c7aebce82a919afb1c8764",
          "topics": [
            "0x4afcb4a87cdbd9974efdb92ee48bc8d7cd0ae4bf217004db3d080cbaee652ca7"
          ],
          "data": "0x0000000000000000000000000000000000000000000000000000000067905204000000000000000000000000000000000000000000000000001134de57ecd0ed00000000000000000000000000000000000000000000000000000000f3e71a3f",
          "blockHash": "0x97fb546005f438b344dcde0068d9d19e163629eadc4479f22ef7700f726dbc78",
          "blockNumber": "0x731c6e",
          "transactionHash": "0x51c0d9512c900d360e454f069ba14f730646fbc91830caeff8d88f09235da76f",
          "transactionIndex": "0x6e",
          "logIndex": "0xaf",
          "removed": false
        }
      ],
      "logsBloom": "0x00000000000000000000000000000000000000000600000000000000000000000000000000000000000000000000000000000000000000004000000000000000000000000000004000000008000000000000000000000000000000000000000000000000020000000000000000000800020000000000000000000010000000000000000000000000000000000000000000000000000000000000010000000000000000000000000000000000000000004000000000000000000000000000000000000002000000800000000000000000000000000000080000000000000020000000000000000000000000000000000000000000000000000000000000000000",
      "type": "0x2",
      "transactionHash": "0x51c0d9512c900d360e454f069ba14f730646fbc91830caeff8d88f09235da76f",
      "transactionIndex": "0x6e",
      "blockHash": "0x97fb546005f438b344dcde0068d9d19e163629eadc4479f22ef7700f726dbc78",
      "blockNumber": "0x731c6e",
      "gasUsed": "0xfd1b",
      "effectiveGasPrice": "0x1aa00232f",
      "from": "0xc77f7fed3b5cc8249adc428c5f44c9063b9734b4",
      "to": "0x8aafd3ede9adb0ff97c7aebce82a919afb1c8764",
      "contractAddress": null
    }
  ],
  "libraries": [],
  "pending": [],
  "returns": {},
  "timestamp": 1737511431,
  "chain": 11155111,
  "commit": "1d2fb70"
}