{
  "transactions": [
    {
      "hash": "0x09ce3c4e2283237f029b34f3f80ccc3ef9f0b7964ddd959142044f7e7b25955a",
      "transactionType": "CALL",
      "contractName": null,
      "contractAddress": "0xc51306616a5253b1d8b52af3a1c536ea5fbc478c",
      "function": "borrowMore(uint256)",
      "arguments": [
        "8036832835016508"
      ],
      "transaction": {
        "from": "0xc77f7fed3b5cc8249adc428c5f44c9063b9734b4",
        "to": "0xc51306616a5253b1d8b52af3a1c536ea5fbc478c",
        "gas": "0x1f6be",
        "value": "0x0",
        "input": "0x9d0bf2e9000000000000000000000000000000000000000000000000001c8d74f640173c",
        "nonce": "0x1926",
        "chainId": "0xaa36a7"
      },
      "additionalContracts": [],
      "isFixedGasLimit": false
    }
  ],
  "receipts": [
    {
      "status": "0x1",
      "cumulativeGasUsed": "0x7505ca",
      "logs": [
        {
          "address": "0xc51306616a5253b1d8b52af3a1c536ea5fbc478c",
          "topics": [
            "0x03bbe564cb1b78e43195eeadbde99e5b89b19345862807fcfb59f884e4165e25"
          ],
          "data": "0x00000000000000000000000038818e389773445cd73adbaa37b8b169f458c6e1000000000000000000000000000000000000000000000000000002315dc51688",
          "blockHash": "0xb438a543a877fe19bfbdf1b41a4c9ec92e6416927757347f53efc554bba54a7c",
          "blockNumber": "0x739b56",
          "transactionHash": "0x09ce3c4e2283237f029b34f3f80ccc3ef9f0b7964ddd959142044f7e7b25955a",
          "transactionIndex": "0x4d",
          "logIndex": "0x8f",
          "removed": false
        },
        {
          "address": "0xc51306616a5253b1d8b52af3a1c536ea5fbc478c",
          "topics": [
            "0x03bbe564cb1b78e43195eeadbde99e5b89b19345862807fcfb59f884e4165e25"
          ],
          "data": "0x000000000000000000000000c77f7fed3b5cc8249adc428c5f44c9063b9734b4000000000000000000000000000000000000000000000000001c3d0d8805879e",
          "blockHash": "0xb438a543a877fe19bfbdf1b41a4c9ec92e6416927757347f53efc554bba54a7c",
          "blockNumber": "0x739b56",
          "transactionHash": "0x09ce3c4e2283237f029b34f3f80ccc3ef9f0b7964ddd959142044f7e7b25955a",
          "transactionIndex": "0x4d",
          "logIndex": "0x90",
          "removed": false
        },
        {
          "address": "0xc51306616a5253b1d8b52af3a1c536ea5fbc478c",
          "topics": [
            "0xaec00f5213a37254bc68a26b0685d1a5b2bf513e1e587c94c7df7f4a62b56c9c"
          ],
          "data": "0x0000000000000000000000000000000000000000000000001fa5f83914a62a8b000000000000000000000000000000000000000000000000007f4b32ddd3d324000000000000000000000000000000000000000000000000007f4b32ddd3d3240000000000000000000000000000000000000000000000001fa5f83914a62a8b",
          "blockHash": "0xb438a543a877fe19bfbdf1b41a4c9ec92e6416927757347f53efc554bba54a7c",
          "blockNumber": "0x739b56",
          "transactionHash": "0x09ce3c4e2283237f029b34f3f80ccc3ef9f0b7964ddd959142044f7e7b25955a",
          "transactionIndex": "0x4d",
          "logIndex": "0x91",
          "removed": false
        },
        {
          "address": "0xc51306616a5253b1d8b52af3a1c536ea5fbc478c",
          "topics": [
            "0x4afcb4a87cdbd9974efdb92ee48bc8d7cd0ae4bf217004db3d080cbaee652ca7"
          ],
          "data": "0x0000000000000000000000000000000000000000000000000000000067967df00000000000000000000000000000000000000000000000000037d94ec88c99b80000000000000000000000000000000000000000000000000000074f3890f5c8",
          "blockHash": "0xb438a543a877fe19bfbdf1b41a4c9ec92e6416927757347f53efc554bba54a7c",
          "blockNumber": "0x739b56",
          "transactionHash": "0x09ce3c4e2283237f029b34f3f80ccc3ef9f0b7964ddd959142044f7e7b25955a",
          "transactionIndex": "0x4d",
          "logIndex": "0x92",
          "removed": false
        }
      ],
      "logsBloom": "0x00000000000000000000000000000100400000000000000000000000000000000008000000000000000010000000000000002000000000004000000000000000000000000000000000000000000000000000000000000000000000000000000000000000000000000000000000000000020000000000000000000000000000000000000000000000000000000000400000000000000000000000000000000000000000000000000000000400000000004000000000000000000000001000000000000000000000000000000000000000000000000000000000000000000000000000000000000000010000000000000000000000000000000000000000000000",
      "type": "0x2",
      "transactionHash": "0x09ce3c4e2283237f029b34f3f80ccc3ef9f0b7964ddd959142044f7e7b25955a",
      "transactionIndex": "0x4d",
      "blockHash": "0xb438a543a877fe19bfbdf1b41a4c9ec92e6416927757347f53efc554bba54a7c",
      "blockNumber": "0x739b56",
      "gasUsed": "0x157c2",
      "effectiveGasPrice": "0x276c95e15",
      "from": "0xc77f7fed3b5cc8249adc428c5f44c9063b9734b4",
      "to": "0xc51306616a5253b1d8b52af3a1c536ea5fbc478c",
      "contractAddress": null
    }
  ],
  "libraries": [],
  "pending": [],
  "returns": {},
  "timestamp": 1737915889,
  "chain": 11155111,
  "commit": "f5162e9"
}