{
  "transactions": [
    {
      "hash": "0x3dbf07a4badfdd1da2ec57d212e8df8abc56b322c4eb22112d33ce8bf9055514",
      "transactionType": "CALL",
      "contractName": null,
      "contractAddress": "0x5eb9cc76c3506942c1c0ead70e877dd5e4f00cb0",
      "function": "buy(address)",
      "arguments": [
        "0xC77f7fed3b5Cc8249aDc428c5F44C9063B9734b4"
      ],
      "transaction": {
        "from": "0xc77f7fed3b5cc8249adc428c5f44c9063b9734b4",
        "to": "0x5eb9cc76c3506942c1c0ead70e877dd5e4f00cb0",
        "gas": "0x156c8",
        "value": "0xde0b6b3a7640000",
        "input": "0xf088d547000000000000000000000000c77f7fed3b5cc8249adc428c5f44c9063b9734b4",
        "nonce": "0x1c6",
        "chainId": "0xaa36a7"
      },
      "additionalContracts": [],
      "isFixedGasLimit": false
    }
  ],
  "receipts": [
    {
      "status": "0x1",
      "cumulativeGasUsed": "0x72a495",
      "logs": [
        {
          "address": "0x5eb9cc76c3506942c1c0ead70e877dd5e4f00cb0",
          "topics": [
            "0xddf252ad1be2c89b69c2b068fc378daa952ba7f163c4a11628f55a4df523b3ef",
            "0x0000000000000000000000000000000000000000000000000000000000000000",
            "0x000000000000000000000000c77f7fed3b5cc8249adc428c5f44c9063b9734b4"
          ],
          "data": "0x000000000000000000000000000000000000000000000035a369966af5b70c2e",
          "blockHash": "0x1aa7ead8826444dd141eb188afe6e9406c27dde6c2ca9539e869153f01f5e4f9",
          "blockNumber": "0x723cb4",
          "transactionHash": "0x3dbf07a4badfdd1da2ec57d212e8df8abc56b322c4eb22112d33ce8bf9055514",
          "transactionIndex": "0x51",
          "logIndex": "0x6e",
          "removed": false
        },
        {
          "address": "0x5eb9cc76c3506942c1c0ead70e877dd5e4f00cb0",
          "topics": [
            "0xddf252ad1be2c89b69c2b068fc378daa952ba7f163c4a11628f55a4df523b3ef",
            "0x0000000000000000000000000000000000000000000000000000000000000000",
            "0x000000000000000000000000c77f7fed3b5cc8249adc428c5f44c9063b9734b4"
          ],
          "data": "0x00000000000000000000000000000000000000000000000029a6e8ff46b01146",
          "blockHash": "0x1aa7ead8826444dd141eb188afe6e9406c27dde6c2ca9539e869153f01f5e4f9",
          "blockNumber": "0x723cb4",
          "transactionHash": "0x3dbf07a4badfdd1da2ec57d212e8df8abc56b322c4eb22112d33ce8bf9055514",
          "transactionIndex": "0x51",
          "logIndex": "0x6f",
          "removed": false
        },
        {
          "address": "0x5eb9cc76c3506942c1c0ead70e877dd5e4f00cb0",
          "topics": [
            "0x4afcb4a87cdbd9974efdb92ee48bc8d7cd0ae4bf217004db3d080cbaee652ca7"
          ],
          "data": "0x000000000000000000000000000000000000000000000000000000006785c9c400000000000000000000000000000000000000000000000000038dff7e7b37f20000000000000000000000000000000000000000000000000de0b6b3a7640000",
          "blockHash": "0x1aa7ead8826444dd141eb188afe6e9406c27dde6c2ca9539e869153f01f5e4f9",
          "blockNumber": "0x723cb4",
          "transactionHash": "0x3dbf07a4badfdd1da2ec57d212e8df8abc56b322c4eb22112d33ce8bf9055514",
          "transactionIndex": "0x51",
          "logIndex": "0x70",
          "removed": false
        }
      ],
      "logsBloom": "0x00000000000000000000000000000000000000000000000000000000000000000000000000000000000000000000000000000000000000004000000000000000000000000000000000000008000000000000000000000000000000000000000000000000020000000000000004000800020000000000000000000010000000000000000000000000000000000000000000000000000000000000010000000000000000000000000000000000000000004000000000000000000000000000020000000002000000800000008000000000000000000000080000000000000020000000000000000000000000000000000000000000000000000000000000000000",
      "type": "0x2",
      "transactionHash": "0x3dbf07a4badfdd1da2ec57d212e8df8abc56b322c4eb22112d33ce8bf9055514",
      "transactionIndex": "0x51",
      "blockHash": "0x1aa7ead8826444dd141eb188afe6e9406c27dde6c2ca9539e869153f01f5e4f9",
      "blockNumber": "0x723cb4",
      "gasUsed": "0xf82c",
      "effectiveGasPrice": "0x1aa1b44e6",
      "from": "0xc77f7fed3b5cc8249adc428c5f44c9063b9734b4",
      "to": "0x5eb9cc76c3506942c1c0ead70e877dd5e4f00cb0",
      "contractAddress": null
    }
  ],
  "libraries": [],
  "pending": [],
  "returns": {},
  "timestamp": 1736821190,
  "chain": 11155111,
  "commit": "51a374b"
}