{
  "transactions": [
    {
      "hash": "0x979ca69b8b0960aaa68940a3cc205074d353d6ccf2253d1b46e02d3cd66c73ff",
      "transactionType": "CALL",
      "contractName": null,
      "contractAddress": "0x270e88f8683660553e8ba4eb2ad7c91a1710d769",
      "function": "sell(uint256)",
      "arguments": [
        "730290610411316445854"
      ],
      "transaction": {
        "from": "0xc77f7fed3b5cc8249adc428c5f44c9063b9734b4",
        "to": "0x270e88f8683660553e8ba4eb2ad7c91a1710d769",
        "gas": "0x16fec",
        "value": "0x0",
        "input": "0xe4849b3200000000000000000000000000000000000000000000002796d170ec71b4029e",
        "nonce": "0x7aa",
        "chainId": "0xaa36a7"
      },
      "additionalContracts": [],
      "isFixedGasLimit": false
    }
  ],
  "receipts": [
    {
      "status": "0x1",
      "cumulativeGasUsed": "0x15ebd1a",
      "logs": [
        {
          "address": "0x270e88f8683660553e8ba4eb2ad7c91a1710d769",
          "topics": [
            "0xddf252ad1be2c89b69c2b068fc378daa952ba7f163c4a11628f55a4df523b3ef",
            "0x000000000000000000000000c77f7fed3b5cc8249adc428c5f44c9063b9734b4",
            "0x0000000000000000000000000000000000000000000000000000000000000000"
          ],
          "data": "0x00000000000000000000000000000000000000000000002796d170ec71b4029e",
          "blockHash": "0x898caf45b5835f6fd2714e474d36cbbfb38d15bd3311e90b967866b9fc9e7d9f",
          "blockNumber": "0x7254de",
          "transactionHash": "0x979ca69b8b0960aaa68940a3cc205074d353d6ccf2253d1b46e02d3cd66c73ff",
          "transactionIndex": "0x46",
          "logIndex": "0x7c",
          "removed": false
        },
        {
          "address": "0x270e88f8683660553e8ba4eb2ad7c91a1710d769",
          "topics": [
            "0x4afcb4a87cdbd9974efdb92ee48bc8d7cd0ae4bf217004db3d080cbaee652ca7"
          ],
          "data": "0x000000000000000000000000000000000000000000000000000000006786ec700000000000000000000000000000000000000000000000000004d4f762dab9910000000000000000000000000000000000000000000000000dc8277eb05bc4eb",
          "blockHash": "0x898caf45b5835f6fd2714e474d36cbbfb38d15bd3311e90b967866b9fc9e7d9f",
          "blockNumber": "0x7254de",
          "transactionHash": "0x979ca69b8b0960aaa68940a3cc205074d353d6ccf2253d1b46e02d3cd66c73ff",
          "transactionIndex": "0x46",
          "logIndex": "0x7d",
          "removed": false
        }
      ],
      "logsBloom": "0x00000000000000000000000000000000000000000000000000000000000000000000000000000000000000000000000020000000000000004000000000000000000000000000000000000008000000000000000000000000000000000000000000000000020000000000000000000800020000000000000000000010000000000000000000010000000000000000000000000000000000000000010000000000000000000000000000000000000000004000000000000000000000000000000000000002000000800000000000000000000000000000080000008000000020000000000000000000000000000000000000000000000000000000000000000000",
      "type": "0x2",
      "transactionHash": "0x979ca69b8b0960aaa68940a3cc205074d353d6ccf2253d1b46e02d3cd66c73ff",
      "transactionIndex": "0x46",
      "blockHash": "0x898caf45b5835f6fd2714e474d36cbbfb38d15bd3311e90b967866b9fc9e7d9f",
      "blockNumber": "0x7254de",
      "gasUsed": "0xfb93",
      "effectiveGasPrice": "0xec6d96b7",
      "from": "0xc77f7fed3b5cc8249adc428c5f44c9063b9734b4",
      "to": "0x270e88f8683660553e8ba4eb2ad7c91a1710d769",
      "contractAddress": null
    }
  ],
  "libraries": [],
  "pending": [],
  "returns": {},
  "timestamp": 1736895602,
  "chain": 11155111,
  "commit": "51a374b"
}