{
  "transactions": [
    {
      "hash": "0x174e0e0094d40bfec1fbd0720bc6bbb7344ae92a3ab955d1ffa19c4e8a5e385c",
      "transactionType": "CALL",
      "contractName": null,
      "contractAddress": "0xbf4a322f1496e5c3d34a9bcdb4c60567b38c7de2",
      "function": "sell(uint256)",
      "arguments": [
        "982138759286595196213"
      ],
      "transaction": {
        "from": "0xc77f7fed3b5cc8249adc428c5f44c9063b9734b4",
        "to": "0xbf4a322f1496e5c3d34a9bcdb4c60567b38c7de2",
        "gas": "0x16fea",
        "value": "0x0",
        "input": "0xe4849b320000000000000000000000000000000000000000000000353de9cdfa1c631535",
        "nonce": "0xb79",
        "chainId": "0xaa36a7"
      },
      "additionalContracts": [],
      "isFixedGasLimit": false
    }
  ],
  "receipts": [
    {
      "status": "0x1",
      "cumulativeGasUsed": "0xc884c5",
      "logs": [
        {
          "address": "0xbf4a322f1496e5c3d34a9bcdb4c60567b38c7de2",
          "topics": [
            "0xddf252ad1be2c89b69c2b068fc378daa952ba7f163c4a11628f55a4df523b3ef",
            "0x000000000000000000000000c77f7fed3b5cc8249adc428c5f44c9063b9734b4",
            "0x0000000000000000000000000000000000000000000000000000000000000000"
          ],
          "data": "0x0000000000000000000000000000000000000000000000353de9cdfa1c631535",
          "blockHash": "0x1ea7d6a3037344506028d437aa1049ce0950ba425f7d26695cc79ffca33e10bf",
          "blockNumber": "0x725b86",
          "transactionHash": "0x174e0e0094d40bfec1fbd0720bc6bbb7344ae92a3ab955d1ffa19c4e8a5e385c",
          "transactionIndex": "0x58",
          "logIndex": "0x6c",
          "removed": false
        },
        {
          "address": "0xbf4a322f1496e5c3d34a9bcdb4c60567b38c7de2",
          "topics": [
            "0x4afcb4a87cdbd9974efdb92ee48bc8d7cd0ae4bf217004db3d080cbaee652ca7"
          ],
          "data": "0x0000000000000000000000000000000000000000000000000000000067873ca400000000000000000000000000000000000000000000000000039794a39fcaba0000000000000000000000000000000000000000000000000dc7e3e709fb1ecd",
          "blockHash": "0x1ea7d6a3037344506028d437aa1049ce0950ba425f7d26695cc79ffca33e10bf",
          "blockNumber": "0x725b86",
          "transactionHash": "0x174e0e0094d40bfec1fbd0720bc6bbb7344ae92a3ab955d1ffa19c4e8a5e385c",
          "transactionIndex": "0x58",
          "logIndex": "0x6d",
          "removed": false
        }
      ],
      "logsBloom": "0x00000000000000000000000000000000000000000000000000000000000000000000000000000000000000000000000000000000000000004000000000000000000000000000000000000008000000000000001000000000000000000000000000000000020000000000000000000800020000000000000000000010000000000000000000000000000000000000000000000000000008000000010000000000000000000000000000000000000000004000000000000000000000000000000000000002000000800000000000001000000000000000080000000000000020000000000000000000000000000000000000000000000000000000000000000000",
      "type": "0x2",
      "transactionHash": "0x174e0e0094d40bfec1fbd0720bc6bbb7344ae92a3ab955d1ffa19c4e8a5e385c",
      "transactionIndex": "0x58",
      "blockHash": "0x1ea7d6a3037344506028d437aa1049ce0950ba425f7d26695cc79ffca33e10bf",
      "blockNumber": "0x725b86",
      "gasUsed": "0xfb91",
      "effectiveGasPrice": "0x443403ac",
      "from": "0xc77f7fed3b5cc8249adc428c5f44c9063b9734b4",
      "to": "0xbf4a322f1496e5c3d34a9bcdb4c60567b38c7de2",
      "contractAddress": null
    }
  ],
  "libraries": [],
  "pending": [],
  "returns": {},
  "timestamp": 1736916133,
  "chain": 11155111,
  "commit": "51a374b"
}