{
  "transactions": [
    {
      "hash": "0x56b0fffd98c560ae5ae9a85d41a696acabfe31f043a33c9ac511b7acfb2629fe",
      "transactionType": "CALL",
      "contractName": null,
      "contractAddress": "0x8aafd3ede9adb0ff97c7aebce82a919afb1c8764",
      "function": "sell(uint256)",
      "arguments": [
        "39209161"
      ],
      "transaction": {
        "from": "0xc77f7fed3b5cc8249adc428c5f44c9063b9734b4",
        "to": "0x8aafd3ede9adb0ff97c7aebce82a919afb1c8764",
        "gas": "0x15d88",
        "value": "0x0",
        "input": "0xe4849b3200000000000000000000000000000000000000000000000000000000025648c9",
        "nonce": "0x173c",
        "chainId": "0xaa36a7"
      },
      "additionalContracts": [],
      "isFixedGasLimit": false
    }
  ],
  "receipts": [
    {
      "status": "0x1",
      "cumulativeGasUsed": "0xa0a06c",
      "logs": [
        {
          "address": "0x8aafd3ede9adb0ff97c7aebce82a919afb1c8764",
          "topics": [
            "0xddf252ad1be2c89b69c2b068fc378daa952ba7f163c4a11628f55a4df523b3ef",
            "0x000000000000000000000000c77f7fed3b5cc8249adc428c5f44c9063b9734b4",
            "0x0000000000000000000000000000000000000000000000000000000000000000"
          ],
          "data": "0x0000000000000000000000000000000000000000000000000000000002517f80",
          "blockHash": "0xda9dccbe2abae5435882f2c27c3080434b555534f8b3b361af693bf22856ecd5",
          "blockNumber": "0x731f07",
          "transactionHash": "0x56b0fffd98c560ae5ae9a85d41a696acabfe31f043a33c9ac511b7acfb2629fe",
          "transactionIndex": "0x62",
          "logIndex": "0xb8",
          "removed": false
        },
        {
          "address": "0x8aafd3ede9adb0ff97c7aebce82a919afb1c8764",
          "topics": [
            "0xddf252ad1be2c89b69c2b068fc378daa952ba7f163c4a11628f55a4df523b3ef",
            "0x000000000000000000000000c77f7fed3b5cc8249adc428c5f44c9063b9734b4",
            "0x000000000000000000000000c77f7fed3b5cc8249adc428c5f44c9063b9734b4"
          ],
          "data": "0x000000000000000000000000000000000000000000000000000000000004c949",
          "blockHash": "0xda9dccbe2abae5435882f2c27c3080434b555534f8b3b361af693bf22856ecd5",
          "blockNumber": "0x731f07",
          "transactionHash": "0x56b0fffd98c560ae5ae9a85d41a696acabfe31f043a33c9ac511b7acfb2629fe",
          "transactionIndex": "0x62",
          "logIndex": "0xb9",
          "removed": false
        },
        {
          "address": "0x8aafd3ede9adb0ff97c7aebce82a919afb1c8764",
          "topics": [
            "0x4afcb4a87cdbd9974efdb92ee48bc8d7cd0ae4bf217004db3d080cbaee652ca7"
          ],
          "data": "0x000000000000000000000000000000000000000000000000000000006790713c0000000000000000000000000000000000000000000000000017b11959989f03000000000000000000000000000000000000000000000000000000000003fd60",
          "blockHash": "0xda9dccbe2abae5435882f2c27c3080434b555534f8b3b361af693bf22856ecd5",
          "blockNumber": "0x731f07",
          "transactionHash": "0x56b0fffd98c560ae5ae9a85d41a696acabfe31f043a33c9ac511b7acfb2629fe",
          "transactionIndex": "0x62",
          "logIndex": "0xba",
          "removed": false
        }
      ],
      "logsBloom": "0x00000000000000000000000000000000000000000600000000000000000000000000000000000000000000000000000000000000000000004000000000000000000000000000004000000008000000000000000000000000000000000000000000000000020000000000000000000800020000000000000000000010000000000000000000000000000000000000000000000000000000000000010000000000000000000000000000000000000000004000000000000000000000000000000000000002000000800000000000000000000000000000080000000000000020000000000000000000000000000000000000000000000000000000000000000000",
      "type": "0x2",
      "transactionHash": "0x56b0fffd98c560ae5ae9a85d41a696acabfe31f043a33c9ac511b7acfb2629fe",
      "transactionIndex": "0x62",
      "blockHash": "0xda9dccbe2abae5435882f2c27c3080434b555534f8b3b361af693bf22856ecd5",
      "blockNumber": "0x731f07",
      "gasUsed": "0xfd0f",
      "effectiveGasPrice": "0x3fa43778",
      "from": "0xc77f7fed3b5cc8249adc428c5f44c9063b9734b4",
      "to": "0x8aafd3ede9adb0ff97c7aebce82a919afb1c8764",
      "contractAddress": null
    }
  ],
  "libraries": [],
  "pending": [],
  "returns": {},
  "timestamp": 1737519420,
  "chain": 11155111,
  "commit": "1d2fb70"
}