{
  "transactions": [
    {
      "hash": "0x0e6a973ad0eeb4ca8d93a41894071b07dfa34ec77e114f0c18a9395316d88031",
      "transactionType": "CALL",
      "contractName": null,
      "contractAddress": "0x8aafd3ede9adb0ff97c7aebce82a919afb1c8764",
      "function": "sell(uint256)",
      "arguments": [
        "5510912604275300689"
      ],
      "transaction": {
        "from": "0xc77f7fed3b5cc8249adc428c5f44c9063b9734b4",
        "to": "0x8aafd3ede9adb0ff97c7aebce82a919afb1c8764",
        "gas": "0x15dca",
        "value": "0x0",
        "input": "0xe4849b320000000000000000000000000000000000000000000000004c7ab1d0c60d5951",
        "nonce": "0x118c",
        "chainId": "0xaa36a7"
      },
      "additionalContracts": [],
      "isFixedGasLimit": false
    }
  ],
  "receipts": [
    {
      "status": "0x1",
      "cumulativeGasUsed": "0xacb59b",
      "logs": [
        {
          "address": "0x8aafd3ede9adb0ff97c7aebce82a919afb1c8764",
          "topics": [
            "0xddf252ad1be2c89b69c2b068fc378daa952ba7f163c4a11628f55a4df523b3ef",
            "0x000000000000000000000000c77f7fed3b5cc8249adc428c5f44c9063b9734b4",
            "0x0000000000000000000000000000000000000000000000000000000000000000"
          ],
          "data": "0x0000000000000000000000000000000000000000000000004bde10a624b9462c",
          "blockHash": "0xd278c883278a835b135cf33363990a237590f6d5c2d2028e0cb7ead8e38fea8a",
          "blockNumber": "0x731850",
          "transactionHash": "0x0e6a973ad0eeb4ca8d93a41894071b07dfa34ec77e114f0c18a9395316d88031",
          "transactionIndex": "0x86",
          "logIndex": "0x86",
          "removed": false
        },
        {
          "address": "0x8aafd3ede9adb0ff97c7aebce82a919afb1c8764",
          "topics": [
            "0xddf252ad1be2c89b69c2b068fc378daa952ba7f163c4a11628f55a4df523b3ef",
            "0x000000000000000000000000c77f7fed3b5cc8249adc428c5f44c9063b9734b4",
            "0x000000000000000000000000c77f7fed3b5cc8249adc428c5f44c9063b9734b4"
          ],
          "data": "0x000000000000000000000000000000000000000000000000009ca12aa1541325",
          "blockHash": "0xd278c883278a835b135cf33363990a237590f6d5c2d2028e0cb7ead8e38fea8a",
          "blockNumber": "0x731850",
          "transactionHash": "0x0e6a973ad0eeb4ca8d93a41894071b07dfa34ec77e114f0c18a9395316d88031",
          "transactionIndex": "0x86",
          "logIndex": "0x87",
          "removed": false
        },
        {
          "address": "0x8aafd3ede9adb0ff97c7aebce82a919afb1c8764",
          "topics": [
            "0x4afcb4a87cdbd9974efdb92ee48bc8d7cd0ae4bf217004db3d080cbaee652ca7"
          ],
          "data": "0x00000000000000000000000000000000000000000000000000000000679020900000000000000000000000000000000000000000000000000005207f1d6ce962000000000000000000000000000000000000000000000000001c41021120f31e",
          "blockHash": "0xd278c883278a835b135cf33363990a237590f6d5c2d2028e0cb7ead8e38fea8a",
          "blockNumber": "0x731850",
          "transactionHash": "0x0e6a973ad0eeb4ca8d93a41894071b07dfa34ec77e114f0c18a9395316d88031",
          "transactionIndex": "0x86",
          "logIndex": "0x88",
          "removed": false
        }
      ],
      "logsBloom": "0x00000000000000000000000000000000000000000600000000000000000000000000000000000000000000000000000000000000000000004000000000000000000000000000004000000008000000000000000000000000000000000000000000000000020000000000000000000800020000000000000000000010000000000000000000000000000000000000000000000000000000000000010000000000000000000000000000000000000000004000000000000000000000000000000000000002000000800000000000000000000000000000080000000000000020000000000000000000000000000000000000000000000000000000000000000000",
      "type": "0x2",
      "transactionHash": "0x0e6a973ad0eeb4ca8d93a41894071b07dfa34ec77e114f0c18a9395316d88031",
      "transactionIndex": "0x86",
      "blockHash": "0xd278c883278a835b135cf33363990a237590f6d5c2d2028e0cb7ead8e38fea8a",
      "blockNumber": "0x731850",
      "gasUsed": "0xfd3f",
      "effectiveGasPrice": "0x3d21c627",
      "from": "0xc77f7fed3b5cc8249adc428c5f44c9063b9734b4",
      "to": "0x8aafd3ede9adb0ff97c7aebce82a919afb1c8764",
      "contractAddress": null
    }
  ],
  "libraries": [],
  "pending": [],
  "returns": {},
  "timestamp": 1737498770,
  "chain": 11155111,
  "commit": "1d2fb70"
}