{
  "transactions": [
    {
      "hash": "0xbe145e4f8e7e3ec9c2cf9495a1f23b9a46651706a599e067725a53aab648bd4e",
      "transactionType": "CALL",
      "contractName": null,
      "contractAddress": "0x8aafd3ede9adb0ff97c7aebce82a919afb1c8764",
      "function": "sell(uint256)",
      "arguments": [
        "13290"
      ],
      "transaction": {
        "from": "0xc77f7fed3b5cc8249adc428c5f44c9063b9734b4",
        "to": "0x8aafd3ede9adb0ff97c7aebce82a919afb1c8764",
        "gas": "0x14e4c",
        "value": "0x0",
        "input": "0xe4849b3200000000000000000000000000000000000000000000000000000000000033ea",
        "nonce": "0xf1f",
        "chainId": "0xaa36a7"
      },
      "additionalContracts": [],
      "isFixedGasLimit": false
    }
  ],
  "receipts": [
    {
      "status": "0x1",
      "cumulativeGasUsed": "0xd0256a",
      "logs": [
        {
          "address": "0x8aafd3ede9adb0ff97c7aebce82a919afb1c8764",
          "topics": [
            "0xddf252ad1be2c89b69c2b068fc378daa952ba7f163c4a11628f55a4df523b3ef",
            "0x000000000000000000000000c77f7fed3b5cc8249adc428c5f44c9063b9734b4",
            "0x0000000000000000000000000000000000000000000000000000000000000000"
          ],
          "data": "0x0000000000000000000000000000000000000000000000000000000000003380",
          "blockHash": "0x6f91826de6b32f0ef9b382581fabd36ccba756b001649d9f587b7ac5e6723507",
          "blockNumber": "0x731570",
          "transactionHash": "0xbe145e4f8e7e3ec9c2cf9495a1f23b9a46651706a599e067725a53aab648bd4e",
          "transactionIndex": "0x6a",
          "logIndex": "0xd8",
          "removed": false
        },
        {
          "address": "0x8aafd3ede9adb0ff97c7aebce82a919afb1c8764",
          "topics": [
            "0xddf252ad1be2c89b69c2b068fc378daa952ba7f163c4a11628f55a4df523b3ef",
            "0x000000000000000000000000c77f7fed3b5cc8249adc428c5f44c9063b9734b4",
            "0x000000000000000000000000c77f7fed3b5cc8249adc428c5f44c9063b9734b4"
          ],
          "data": "0x000000000000000000000000000000000000000000000000000000000000006a",
          "blockHash": "0x6f91826de6b32f0ef9b382581fabd36ccba756b001649d9f587b7ac5e6723507",
          "blockNumber": "0x731570",
          "transactionHash": "0xbe145e4f8e7e3ec9c2cf9495a1f23b9a46651706a599e067725a53aab648bd4e",
          "transactionIndex": "0x6a",
          "logIndex": "0xd9",
          "removed": false
        },
        {
          "address": "0x8aafd3ede9adb0ff97c7aebce82a919afb1c8764",
          "topics": [
            "0x4afcb4a87cdbd9974efdb92ee48bc8d7cd0ae4bf217004db3d080cbaee652ca7"
          ],
          "data": "0x00000000000000000000000000000000000000000000000000000000678ffdec0000000000000000000000000000000000000000000000000004bee3f24027040000000000000000000000000000000000000000000000000000000000000011",
          "blockHash": "0x6f91826de6b32f0ef9b382581fabd36ccba756b001649d9f587b7ac5e6723507",
          "blockNumber": "0x731570",
          "transactionHash": "0xbe145e4f8e7e3ec9c2cf9495a1f23b9a46651706a599e067725a53aab648bd4e",
          "transactionIndex": "0x6a",
          "logIndex": "0xda",
          "removed": false
        }
      ],
      "logsBloom": "0x00000000000000000000000000000000000000000600000000000000000000000000000000000000000000000000000000000000000000004000000000000000000000000000004000000008000000000000000000000000000000000000000000000000020000000000000000000800020000000000000000000010000000000000000000000000000000000000000000000000000000000000010000000000000000000000000000000000000000004000000000000000000000000000000000000002000000800000000000000000000000000000080000000000000020000000000000000000000000000000000000000000000000000000000000000000",
      "type": "0x2",
      "transactionHash": "0xbe145e4f8e7e3ec9c2cf9495a1f23b9a46651706a599e067725a53aab648bd4e",
      "transactionIndex": "0x6a",
      "blockHash": "0x6f91826de6b32f0ef9b382581fabd36ccba756b001649d9f587b7ac5e6723507",
      "blockNumber": "0x731570",
      "gasUsed": "0xf207",
      "effectiveGasPrice": "0x94f306c1",
      "from": "0xc77f7fed3b5cc8249adc428c5f44c9063b9734b4",
      "to": "0x8aafd3ede9adb0ff97c7aebce82a919afb1c8764",
      "contractAddress": null
    }
  ],
  "libraries": [],
  "pending": [],
  "returns": {},
  "timestamp": 1737489901,
  "chain": 11155111,
  "commit": "1d2fb70"
}