{
  "transactions": [
    {
      "hash": "0xfc558d8e5aee65e84f3e25e116e9cf4137610a67b17cca96c273f7ff2d891acf",
      "transactionType": "CALL",
      "contractName": null,
      "contractAddress": "0xd7bc75898e513accccf720a874d44dab5a4b6223",
      "function": "sell(uint256)",
      "arguments": [
        "9929991843554955926"
      ],
      "transaction": {
        "from": "0xc77f7fed3b5cc8249adc428c5f44c9063b9734b4",
        "to": "0xd7bc75898e513accccf720a874d44dab5a4b6223",
        "gas": "0x15b6b",
        "value": "0x0",
        "input": "0xe4849b3200000000000000000000000000000000000000000000000089ce6af8699e9296",
        "nonce": "0xe1",
        "chainId": "0xaa36a7"
      },
      "additionalContracts": [],
      "isFixedGasLimit": false
    }
  ],
  "receipts": [
    {
      "status": "0x1",
      "cumulativeGasUsed": "0x6e6238",
      "logs": [
        {
          "address": "0xd7bc75898e513accccf720a874d44dab5a4b6223",
          "topics": [
            "0xddf252ad1be2c89b69c2b068fc378daa952ba7f163c4a11628f55a4df523b3ef",
            "0x000000000000000000000000c77f7fed3b5cc8249adc428c5f44c9063b9734b4",
            "0x0000000000000000000000000000000000000000000000000000000000000000"
          ],
          "data": "0x00000000000000000000000000000000000000000000000089ce6af8699e9296",
          "blockHash": "0xa4aba9d3c226f8e3aa6e035549636a74d6f361330af1b9a2be2fb7fd819cf3a4",
          "blockNumber": "0x723961",
          "transactionHash": "0xfc558d8e5aee65e84f3e25e116e9cf4137610a67b17cca96c273f7ff2d891acf",
          "transactionIndex": "0x36",
          "logIndex": "0x64",
          "removed": false
        },
        {
          "address": "0xd7bc75898e513accccf720a874d44dab5a4b6223",
          "topics": [
            "0x4afcb4a87cdbd9974efdb92ee48bc8d7cd0ae4bf217004db3d080cbaee652ca7"
          ],
          "data": "0x000000000000000000000000000000000000000000000000000000006785a1d400000000000000000000000000000000000000000000000000038d7f8a2e94690000000000000000000000000000000000000000000000000023474f493d2798",
          "blockHash": "0xa4aba9d3c226f8e3aa6e035549636a74d6f361330af1b9a2be2fb7fd819cf3a4",
          "blockNumber": "0x723961",
          "transactionHash": "0xfc558d8e5aee65e84f3e25e116e9cf4137610a67b17cca96c273f7ff2d891acf",
          "transactionIndex": "0x36",
          "logIndex": "0x65",
          "removed": false
        }
      ],
      "logsBloom": "0x00000000000000000000000000000000000000000000000000000000000000000000000000000000000000000000000000000000000000004000000000000000000000000000000000000008000000000000000000000000000000000000000000000000020000000000000000000800020000000000000000000010000000000000000000000000000000000000000000000000000000000000010000000000000000000000000000000000000000004000001000000000000000000000000000000002000000800000000000004000000000000000080000000000000020000000000000000000000000000000000000000000080000000000000000000000",
      "type": "0x2",
      "transactionHash": "0xfc558d8e5aee65e84f3e25e116e9cf4137610a67b17cca96c273f7ff2d891acf",
      "transactionIndex": "0x36",
      "blockHash": "0xa4aba9d3c226f8e3aa6e035549636a74d6f361330af1b9a2be2fb7fd819cf3a4",
      "blockNumber": "0x723961",
      "gasUsed": "0xfb87",
      "effectiveGasPrice": "0x1e15f762",
      "from": "0xc77f7fed3b5cc8249adc428c5f44c9063b9734b4",
      "to": "0xd7bc75898e513accccf720a874d44dab5a4b6223",
      "contractAddress": null
    }
  ],
  "libraries": [],
  "pending": [],
  "returns": {},
  "timestamp": 1736810964,
  "chain": 11155111,
  "commit": "51a374b"
}