{
  "transactions": [
    {
      "hash": "0xfa8fb7b9be2374d0688025d625d3d1f5ac12bcf3ffd17c21937ee4d86de478fb",
      "transactionType": "CALL",
      "contractName": null,
      "contractAddress": "0x270e88f8683660553e8ba4eb2ad7c91a1710d769",
      "function": "sell(uint256)",
      "arguments": [
        "751839722304085979173"
      ],
      "transaction": {
        "from": "0xc77f7fed3b5cc8249adc428c5f44c9063b9734b4",
        "to": "0x270e88f8683660553e8ba4eb2ad7c91a1710d769",
        "gas": "0x16fec",
        "value": "0x0",
        "input": "0xe4849b32000000000000000000000000000000000000000000000028c1df44049b607025",
        "nonce": "0x6b8",
        "chainId": "0xaa36a7"
      },
      "additionalContracts": [],
      "isFixedGasLimit": false
    }
  ],
  "receipts": [
    {
      "status": "0x1",
      "cumulativeGasUsed": "0x668b2b",
      "logs": [
        {
          "address": "0x270e88f8683660553e8ba4eb2ad7c91a1710d769",
          "topics": [
            "0xddf252ad1be2c89b69c2b068fc378daa952ba7f163c4a11628f55a4df523b3ef",
            "0x000000000000000000000000c77f7fed3b5cc8249adc428c5f44c9063b9734b4",
            "0x0000000000000000000000000000000000000000000000000000000000000000"
          ],
          "data": "0x000000000000000000000000000000000000000000000028c1df44049b607025",
          "blockHash": "0x56c7024ed132acf9e0223f17f88d1701d6f23da816fca1788546bf2ed3d5ba65",
          "blockNumber": "0x7253c3",
          "transactionHash": "0xfa8fb7b9be2374d0688025d625d3d1f5ac12bcf3ffd17c21937ee4d86de478fb",
          "transactionIndex": "0x3b",
          "logIndex": "0x5c",
          "removed": false
        },
        {
          "address": "0x270e88f8683660553e8ba4eb2ad7c91a1710d769",
          "topics": [
            "0x4afcb4a87cdbd9974efdb92ee48bc8d7cd0ae4bf217004db3d080cbaee652ca7"
          ],
          "data": "0x000000000000000000000000000000000000000000000000000000006786df2c0000000000000000000000000000000000000000000000000004b1855ebfbb4d0000000000000000000000000000000000000000000000000dc829b99952562d",
          "blockHash": "0x56c7024ed132acf9e0223f17f88d1701d6f23da816fca1788546bf2ed3d5ba65",
          "blockNumber": "0x7253c3",
          "transactionHash": "0xfa8fb7b9be2374d0688025d625d3d1f5ac12bcf3ffd17c21937ee4d86de478fb",
          "transactionIndex": "0x3b",
          "logIndex": "0x5d",
          "removed": false
        }
      ],
      "logsBloom": "0x00000000000000000000000000000000000000000000000000000000000000000000000000000000000000000000000020000000000000004000000000000000000000000000000000000008000000000000000000000000000000000000000000000000020000000000000000000800020000000000000000000010000000000000000000010000000000000000000000000000000000000000010000000000000000000000000000000000000000004000000000000000000000000000000000000002000000800000000000000000000000000000080000008000000020000000000000000000000000000000000000000000000000000000000000000000",
      "type": "0x2",
      "transactionHash": "0xfa8fb7b9be2374d0688025d625d3d1f5ac12bcf3ffd17c21937ee4d86de478fb",
      "transactionIndex": "0x3b",
      "blockHash": "0x56c7024ed132acf9e0223f17f88d1701d6f23da816fca1788546bf2ed3d5ba65",
      "blockNumber": "0x7253c3",
      "gasUsed": "0xfb93",
      "effectiveGasPrice": "0x1869dbb34",
      "from": "0xc77f7fed3b5cc8249adc428c5f44c9063b9734b4",
      "to": "0x270e88f8683660553e8ba4eb2ad7c91a1710d769",
      "contractAddress": null
    }
  ],
  "libraries": [],
  "pending": [],
  "returns": {},
  "timestamp": 1736892205,
  "chain": 11155111,
  "commit": "51a374b"
}