{
  "transactions": [
    {
      "hash": "0xf222298e05a9acbd0fa2dcdc30a8ddb9b9a052e661458fe51af0c09af73205e2",
      "transactionType": "CALL",
      "contractName": null,
      "contractAddress": "0x8aafd3ede9adb0ff97c7aebce82a919afb1c8764",
      "function": "sell(uint256)",
      "arguments": [
        "280508697201019665786"
      ],
      "transaction": {
        "from": "0xc77f7fed3b5cc8249adc428c5f44c9063b9734b4",
        "to": "0x8aafd3ede9adb0ff97c7aebce82a919afb1c8764",
        "gas": "0x17270",
        "value": "0x0",
        "input": "0xe4849b3200000000000000000000000000000000000000000000000f34d715e7d2633d7a",
        "nonce": "0x137c",
        "chainId": "0xaa36a7"
      },
      "additionalContracts": [],
      "isFixedGasLimit": false
    }
  ],
  "receipts": [
    {
      "status": "0x1",
      "cumulativeGasUsed": "0xdbef23",
      "logs": [
        {
          "address": "0x8aafd3ede9adb0ff97c7aebce82a919afb1c8764",
          "topics": [
            "0xddf252ad1be2c89b69c2b068fc378daa952ba7f163c4a11628f55a4df523b3ef",
            "0x000000000000000000000000c77f7fed3b5cc8249adc428c5f44c9063b9734b4",
            "0x0000000000000000000000000000000000000000000000000000000000000000"
          ],
          "data": "0x00000000000000000000000000000000000000000000000f15b28c83a9cae4ec",
          "blockHash": "0x0be17cab93ad7d4832010fd00915b46e850d905ff0aa43cb28c80a0fcf6c5109",
          "blockNumber": "0x731aa0",
          "transactionHash": "0xf222298e05a9acbd0fa2dcdc30a8ddb9b9a052e661458fe51af0c09af73205e2",
          "transactionIndex": "0x8f",
          "logIndex": "0xaf",
          "removed": false
        },
        {
          "address": "0x8aafd3ede9adb0ff97c7aebce82a919afb1c8764",
          "topics": [
            "0xddf252ad1be2c89b69c2b068fc378daa952ba7f163c4a11628f55a4df523b3ef",
            "0x000000000000000000000000c77f7fed3b5cc8249adc428c5f44c9063b9734b4",
            "0x000000000000000000000000c77f7fed3b5cc8249adc428c5f44c9063b9734b4"
          ],
          "data": "0x0000000000000000000000000000000000000000000000001f2489642898588e",
          "blockHash": "0x0be17cab93ad7d4832010fd00915b46e850d905ff0aa43cb28c80a0fcf6c5109",
          "blockNumber": "0x731aa0",
          "transactionHash": "0xf222298e05a9acbd0fa2dcdc30a8ddb9b9a052e661458fe51af0c09af73205e2",
          "transactionIndex": "0x8f",
          "logIndex": "0xb0",
          "removed": false
        },
        {
          "address": "0x8aafd3ede9adb0ff97c7aebce82a919afb1c8764",
          "topics": [
            "0x4afcb4a87cdbd9974efdb92ee48bc8d7cd0ae4bf217004db3d080cbaee652ca7"
          ],
          "data": "0x0000000000000000000000000000000000000000000000000000000067903c50000000000000000000000000000000000000000000000000000cad8b8cf47d340000000000000000000000000000000000000000000000000dce7bacc666d565",
          "blockHash": "0x0be17cab93ad7d4832010fd00915b46e850d905ff0aa43cb28c80a0fcf6c5109",
          "blockNumber": "0x731aa0",
          "transactionHash": "0xf222298e05a9acbd0fa2dcdc30a8ddb9b9a052e661458fe51af0c09af73205e2",
          "transactionIndex": "0x8f",
          "logIndex": "0xb1",
          "removed": false
        }
      ],
      "logsBloom": "0x00000000000000000000000000000000000000000600000000000000000000000000000000000000000000000000000000000000000000004000000000000000000000000000004000000008000000000000000000000000000000000000000000000000020000000000000000000800020000000000000000000010000000000000000000000000000000000000000000000000000000000000010000000000000000000000000000000000000000004000000000000000000000000000000000000002000000800000000000000000000000000000080000000000000020000000000000000000000000000000000000000000000000000000000000000000",
      "type": "0x2",
      "transactionHash": "0xf222298e05a9acbd0fa2dcdc30a8ddb9b9a052e661458fe51af0c09af73205e2",
      "transactionIndex": "0x8f",
      "blockHash": "0x0be17cab93ad7d4832010fd00915b46e850d905ff0aa43cb28c80a0fcf6c5109",
      "blockNumber": "0x731aa0",
      "gasUsed": "0xfd4b",
      "effectiveGasPrice": "0x7aaaef42",
      "from": "0xc77f7fed3b5cc8249adc428c5f44c9063b9734b4",
      "to": "0x8aafd3ede9adb0ff97c7aebce82a919afb1c8764",
      "contractAddress": null
    }
  ],
  "libraries": [],
  "pending": [],
  "returns": {},
  "timestamp": 1737505873,
  "chain": 11155111,
  "commit": "1d2fb70"
}