{
  "transactions": [
    {
      "hash": "0x17a5e42dbcdcb081b3921545160474792bc4c7599587cd34ce44f68e531177b5",
      "transactionType": "CALL",
      "contractName": null,
      "contractAddress": "0xbf4a322f1496e5c3d34a9bcdb4c60567b38c7de2",
      "function": "sell(uint256)",
      "arguments": [
        "981411097429088442090"
      ],
      "transaction": {
        "from": "0xc77f7fed3b5cc8249adc428c5f44c9063b9734b4",
        "to": "0xbf4a322f1496e5c3d34a9bcdb4c60567b38c7de2",
        "gas": "0x16fea",
        "value": "0x0",
        "input": "0xe4849b3200000000000000000000000000000000000000000000003533d0a15f771896ea",
        "nonce": "0xbaf",
        "chainId": "0xaa36a7"
      },
      "additionalContracts": [],
      "isFixedGasLimit": false
    }
  ],
  "receipts": [
    {
      "status": "0x1",
      "cumulativeGasUsed": "0x8324a4",
      "logs": [
        {
          "address": "0xbf4a322f1496e5c3d34a9bcdb4c60567b38c7de2",
          "topics": [
            "0xddf252ad1be2c89b69c2b068fc378daa952ba7f163c4a11628f55a4df523b3ef",
            "0x000000000000000000000000c77f7fed3b5cc8249adc428c5f44c9063b9734b4",
            "0x0000000000000000000000000000000000000000000000000000000000000000"
          ],
          "data": "0x00000000000000000000000000000000000000000000003533d0a15f771896ea",
          "blockHash": "0xc3c7ebd4c6f10ec81ce94e40b8acd30d9a37c9c0fb28b0fda851bcda08684979",
          "blockNumber": "0x725bc7",
          "transactionHash": "0x17a5e42dbcdcb081b3921545160474792bc4c7599587cd34ce44f68e531177b5",
          "transactionIndex": "0x3c",
          "logIndex": "0x4d",
          "removed": false
        },
        {
          "address": "0xbf4a322f1496e5c3d34a9bcdb4c60567b38c7de2",
          "topics": [
            "0x4afcb4a87cdbd9974efdb92ee48bc8d7cd0ae4bf217004db3d080cbaee652ca7"
          ],
          "data": "0x0000000000000000000000000000000000000000000000000000000067873fb0000000000000000000000000000000000000000000000000000398432e058c650000000000000000000000000000000000000000000000000dc7e3e558df7513",
          "blockHash": "0xc3c7ebd4c6f10ec81ce94e40b8acd30d9a37c9c0fb28b0fda851bcda08684979",
          "blockNumber": "0x725bc7",
          "transactionHash": "0x17a5e42dbcdcb081b3921545160474792bc4c7599587cd34ce44f68e531177b5",
          "transactionIndex": "0x3c",
          "logIndex": "0x4e",
          "removed": false
        }
      ],
      "logsBloom": "0x00000000000000000000000000000000000000000000000000000000000000000000000000000000000000000000000000000000000000004000000000000000000000000000000000000008000000000000001000000000000000000000000000000000020000000000000000000800020000000000000000000010000000000000000000000000000000000000000000000000000008000000010000000000000000000000000000000000000000004000000000000000000000000000000000000002000000800000000000001000000000000000080000000000000020000000000000000000000000000000000000000000000000000000000000000000",
      "type": "0x2",
      "transactionHash": "0x17a5e42dbcdcb081b3921545160474792bc4c7599587cd34ce44f68e531177b5",
      "transactionIndex": "0x3c",
      "blockHash": "0xc3c7ebd4c6f10ec81ce94e40b8acd30d9a37c9c0fb28b0fda851bcda08684979",
      "blockNumber": "0x725bc7",
      "gasUsed": "0xfb91",
      "effectiveGasPrice": "0x5a175d3e",
      "from": "0xc77f7fed3b5cc8249adc428c5f44c9063b9734b4",
      "to": "0xbf4a322f1496e5c3d34a9bcdb4c60567b38c7de2",
      "contractAddress": null
    }
  ],
  "libraries": [],
  "pending": [],
  "returns": {},
  "timestamp": 1736916914,
  "chain": 11155111,
  "commit": "51a374b"
}