{
  "transactions": [
    {
      "hash": "0xc60beb14d55a4ef040ed837495ea773dce73c5efaca5031fdf0593a5145009e5",
      "transactionType": "CALL",
      "contractName": null,
      "contractAddress": "0x270e88f8683660553e8ba4eb2ad7c91a1710d769",
      "function": "sell(uint256)",
      "arguments": [
        "716874307533585529391"
      ],
      "transaction": {
        "from": "0xc77f7fed3b5cc8249adc428c5f44c9063b9734b4",
        "to": "0x270e88f8683660553e8ba4eb2ad7c91a1710d769",
        "gas": "0x16fec",
        "value": "0x0",
        "input": "0xe4849b32000000000000000000000000000000000000000000000026dca12889f7803a2f",
        "nonce": "0x848",
        "chainId": "0xaa36a7"
      },
      "additionalContracts": [],
      "isFixedGasLimit": false
    }
  ],
  "receipts": [
    {
      "status": "0x1",
      "cumulativeGasUsed": "0x5a4c52",
      "logs": [
        {
          "address": "0x270e88f8683660553e8ba4eb2ad7c91a1710d769",
          "topics": [
            "0xddf252ad1be2c89b69c2b068fc378daa952ba7f163c4a11628f55a4df523b3ef",
            "0x000000000000000000000000c77f7fed3b5cc8249adc428c5f44c9063b9734b4",
            "0x0000000000000000000000000000000000000000000000000000000000000000"
          ],
          "data": "0x000000000000000000000000000000000000000000000026dca12889f7803a2f",
          "blockHash": "0x28858376d0105e31af97bd5c2a38030538392dc90a8528309b921aeb8816f53d",
          "blockNumber": "0x725597",
          "transactionHash": "0xc60beb14d55a4ef040ed837495ea773dce73c5efaca5031fdf0593a5145009e5",
          "transactionIndex": "0x37",
          "logIndex": "0x54",
          "removed": false
        },
        {
          "address": "0x270e88f8683660553e8ba4eb2ad7c91a1710d769",
          "topics": [
            "0x4afcb4a87cdbd9974efdb92ee48bc8d7cd0ae4bf217004db3d080cbaee652ca7"
          ],
          "data": "0x000000000000000000000000000000000000000000000000000000006786f51c0000000000000000000000000000000000000000000000000004ec1c5803e9e70000000000000000000000000000000000000000000000000dc8261b0a4dccd1",
          "blockHash": "0x28858376d0105e31af97bd5c2a38030538392dc90a8528309b921aeb8816f53d",
          "blockNumber": "0x725597",
          "transactionHash": "0xc60beb14d55a4ef040ed837495ea773dce73c5efaca5031fdf0593a5145009e5",
          "transactionIndex": "0x37",
          "logIndex": "0x55",
          "removed": false
        }
      ],
      "logsBloom": "0x00000000000000000000000000000000000000000000000000000000000000000000000000000000000000000000000020000000000000004000000000000000000000000000000000000008000000000000000000000000000000000000000000000000020000000000000000000800020000000000000000000010000000000000000000010000000000000000000000000000000000000000010000000000000000000000000000000000000000004000000000000000000000000000000000000002000000800000000000000000000000000000080000008000000020000000000000000000000000000000000000000000000000000000000000000000",
      "type": "0x2",
      "transactionHash": "0xc60beb14d55a4ef040ed837495ea773dce73c5efaca5031fdf0593a5145009e5",
      "transactionIndex": "0x37",
      "blockHash": "0x28858376d0105e31af97bd5c2a38030538392dc90a8528309b921aeb8816f53d",
      "blockNumber": "0x725597",
      "gasUsed": "0xfb93",
      "effectiveGasPrice": "0x78a2ed21",
      "from": "0xc77f7fed3b5cc8249adc428c5f44c9063b9734b4",
      "to": "0x270e88f8683660553e8ba4eb2ad7c91a1710d769",
      "contractAddress": null
    }
  ],
  "libraries": [],
  "pending": [],
  "returns": {},
  "timestamp": 1736897823,
  "chain": 11155111,
  "commit": "51a374b"
}