{
  "transactions": [
    {
      "hash": "0xae03b9798bb4da43d5fd69e5484fbe7eece417b55b9e44f40ed2a65a0476e6c7",
      "transactionType": "CALL",
      "contractName": null,
      "contractAddress": "0x8aafd3ede9adb0ff97c7aebce82a919afb1c8764",
      "function": "sell(uint256)",
      "arguments": [
        "2812238081951"
      ],
      "transaction": {
        "from": "0xc77f7fed3b5cc8249adc428c5f44c9063b9734b4",
        "to": "0x8aafd3ede9adb0ff97c7aebce82a919afb1c8764",
        "gas": "0x15daa",
        "value": "0x0",
        "input": "0xe4849b320000000000000000000000000000000000000000000000000000028ec673af9f",
        "nonce": "0x11ad",
        "chainId": "0xaa36a7"
      },
      "additionalContracts": [],
      "isFixedGasLimit": false
    }
  ],
  "receipts": [
    {
      "status": "0x1",
      "cumulativeGasUsed": "0xab914f",
      "logs": [
        {
          "address": "0x8aafd3ede9adb0ff97c7aebce82a919afb1c8764",
          "topics": [
            "0xddf252ad1be2c89b69c2b068fc378daa952ba7f163c4a11628f55a4df523b3ef",
            "0x000000000000000000000000c77f7fed3b5cc8249adc428c5f44c9063b9734b4",
            "0x0000000000000000000000000000000000000000000000000000000000000000"
          ],
          "data": "0x000000000000000000000000000000000000000000000000000002898978e790",
          "blockHash": "0x0d8b3773d161ca1a20ce4197dbe9f29783d95b8d4a37fc180e99d901eb23e902",
          "blockNumber": "0x731878",
          "transactionHash": "0xae03b9798bb4da43d5fd69e5484fbe7eece417b55b9e44f40ed2a65a0476e6c7",
          "transactionIndex": "0x83",
          "logIndex": "0xa1",
          "removed": false
        },
        {
          "address": "0x8aafd3ede9adb0ff97c7aebce82a919afb1c8764",
          "topics": [
            "0xddf252ad1be2c89b69c2b068fc378daa952ba7f163c4a11628f55a4df523b3ef",
            "0x000000000000000000000000c77f7fed3b5cc8249adc428c5f44c9063b9734b4",
            "0x000000000000000000000000c77f7fed3b5cc8249adc428c5f44c9063b9734b4"
          ],
          "data": "0x000000000000000000000000000000000000000000000000000000053cfac80f",
          "blockHash": "0x0d8b3773d161ca1a20ce4197dbe9f29783d95b8d4a37fc180e99d901eb23e902",
          "blockNumber": "0x731878",
          "transactionHash": "0xae03b9798bb4da43d5fd69e5484fbe7eece417b55b9e44f40ed2a65a0476e6c7",
          "transactionIndex": "0x83",
          "logIndex": "0xa2",
          "removed": false
        },
        {
          "address": "0x8aafd3ede9adb0ff97c7aebce82a919afb1c8764",
          "topics": [
            "0x4afcb4a87cdbd9974efdb92ee48bc8d7cd0ae4bf217004db3d080cbaee652ca7"
          ],
          "data": "0x0000000000000000000000000000000000000000000000000000000067902270000000000000000000000000000000000000000000000000000524daed3472e600000000000000000000000000000000000000000000000000000000f2b33c96",
          "blockHash": "0x0d8b3773d161ca1a20ce4197dbe9f29783d95b8d4a37fc180e99d901eb23e902",
          "blockNumber": "0x731878",
          "transactionHash": "0xae03b9798bb4da43d5fd69e5484fbe7eece417b55b9e44f40ed2a65a0476e6c7",
          "transactionIndex": "0x83",
          "logIndex": "0xa3",
          "removed": false
        }
      ],
      "logsBloom": "0x00000000000000000000000000000000000000000600000000000000000000000000000000000000000000000000000000000000000000004000000000000000000000000000004000000008000000000000000000000000000000000000000000000000020000000000000000000800020000000000000000000010000000000000000000000000000000000000000000000000000000000000010000000000000000000000000000000000000000004000000000000000000000000000000000000002000000800000000000000000000000000000080000000000000020000000000000000000000000000000000000000000000000000000000000000000",
      "type": "0x2",
      "transactionHash": "0xae03b9798bb4da43d5fd69e5484fbe7eece417b55b9e44f40ed2a65a0476e6c7",
      "transactionIndex": "0x83",
      "blockHash": "0x0d8b3773d161ca1a20ce4197dbe9f29783d95b8d4a37fc180e99d901eb23e902",
      "blockNumber": "0x731878",
      "gasUsed": "0xfd27",
      "effectiveGasPrice": "0x493abe6f",
      "from": "0xc77f7fed3b5cc8249adc428c5f44c9063b9734b4",
      "to": "0x8aafd3ede9adb0ff97c7aebce82a919afb1c8764",
      "contractAddress": null
    }
  ],
  "libraries": [],
  "pending": [],
  "returns": {},
  "timestamp": 1737499249,
  "chain": 11155111,
  "commit": "1d2fb70"
}