{
  "transactions": [
    {
      "hash": "0x4f88a782f1ffb285b13f166e43be5315cf7d20c044736cf3965bf80e3f878646",
      "transactionType": "CALL",
      "contractName": null,
      "contractAddress": "0x270e88f8683660553e8ba4eb2ad7c91a1710d769",
      "function": "buy(address)",
      "arguments": [
        "0xC77f7fed3b5Cc8249aDc428c5F44C9063B9734b4"
      ],
      "transaction": {
        "from": "0xc77f7fed3b5cc8249adc428c5f44c9063b9734b4",
        "to": "0x270e88f8683660553e8ba4eb2ad7c91a1710d769",
        "gas": "0x1b30c",
        "value": "0xde0b6b3a7640000",
        "input": "0xf088d547000000000000000000000000c77f7fed3b5cc8249adc428c5f44c9063b9734b4",
        "nonce": "0x5fe",
        "chainId": "0xaa36a7"
      },
      "additionalContracts": [],
      "isFixedGasLimit": false
    }
  ],
  "receipts": [
    {
      "status": "0x1",
      "cumulativeGasUsed": "0x18253f3",
      "logs": [
        {
          "address": "0x270e88f8683660553e8ba4eb2ad7c91a1710d769",
          "topics": [
            "0xddf252ad1be2c89b69c2b068fc378daa952ba7f163c4a11628f55a4df523b3ef",
            "0x0000000000000000000000000000000000000000000000000000000000000000",
            "0x000000000000000000000000c77f7fed3b5cc8249adc428c5f44c9063b9734b4"
          ],
          "data": "0x00000000000000000000000000000000000000000000003336a0139e042ca0bc",
          "blockHash": "0xe6557d43248bedd8f8e2dda9daea8e38b6658e3acd4623b70e7bad9c47d853d8",
          "blockNumber": "0x7252c5",
          "transactionHash": "0x4f88a782f1ffb285b13f166e43be5315cf7d20c044736cf3965bf80e3f878646",
          "transactionIndex": "0x5c",
          "logIndex": "0xae",
          "removed": false
        },
        {
          "address": "0x270e88f8683660553e8ba4eb2ad7c91a1710d769",
          "topics": [
            "0xddf252ad1be2c89b69c2b068fc378daa952ba7f163c4a11628f55a4df523b3ef",
            "0x0000000000000000000000000000000000000000000000000000000000000000",
            "0x000000000000000000000000c77f7fed3b5cc8249adc428c5f44c9063b9734b4"
          ],
          "data": "0x00000000000000000000000000000000000000000000000027c4d905ec3dfa82",
          "blockHash": "0xe6557d43248bedd8f8e2dda9daea8e38b6658e3acd4623b70e7bad9c47d853d8",
          "blockNumber": "0x7252c5",
          "transactionHash": "0x4f88a782f1ffb285b13f166e43be5315cf7d20c044736cf3965bf80e3f878646",
          "transactionIndex": "0x5c",
          "logIndex": "0xaf",
          "removed": false
        },
        {
          "address": "0x270e88f8683660553e8ba4eb2ad7c91a1710d769",
          "topics": [
            "0x4afcb4a87cdbd9974efdb92ee48bc8d7cd0ae4bf217004db3d080cbaee652ca7"
          ],
          "data": "0x000000000000000000000000000000000000000000000000000000006786d3440000000000000000000000000000000000000000000000000003b930cf7cd4460000000000000000000000000000000000000000000000000de0b6b3a7640000",
          "blockHash": "0xe6557d43248bedd8f8e2dda9daea8e38b6658e3acd4623b70e7bad9c47d853d8",
          "blockNumber": "0x7252c5",
          "transactionHash": "0x4f88a782f1ffb285b13f166e43be5315cf7d20c044736cf3965bf80e3f878646",
          "transactionIndex": "0x5c",
          "logIndex": "0xb0",
          "removed": false
        }
      ],
      "logsBloom": "0x00000000000000000000000000000000000000000000000000000000000000000000000000000000000000000000000020000000000000004000000000000000000000000000000000000008000000000000000000000000000000000000000000000000020000000000000000000800020000000000000000000010000000000000000000010000000000000000000000000000000000000000010000000000000000000000000000000000000000004000000000000000000000000000000000000002000000800000000000000000000000000000080000008000000020000000000000000000000000000000000000000000000000000000000000000000",
      "type": "0x2",
      "transactionHash": "0x4f88a782f1ffb285b13f166e43be5315cf7d20c044736cf3965bf80e3f878646",
      "transactionIndex": "0x5c",
      "blockHash": "0xe6557d43248bedd8f8e2dda9daea8e38b6658e3acd4623b70e7bad9c47d853d8",
      "blockNumber": "0x7252c5",
      "gasUsed": "0x13af8",
      "effectiveGasPrice": "0x2b65e8683",
      "from": "0xc77f7fed3b5cc8249adc428c5f44c9063b9734b4",
      "to": "0x270e88f8683660553e8ba4eb2ad7c91a1710d769",
      "contractAddress": null
    }
  ],
  "libraries": [],
  "pending": [],
  "returns": {},
  "timestamp": 1736889158,
  "chain": 11155111,
  "commit": "51a374b"
}