{
  "transactions": [
    {
      "hash": "0xf5a0059acae3837a19bf9931559023154b6f9ba87ade225d977025f001ebf976",
      "transactionType": "CALL",
      "contractName": null,
      "contractAddress": "0x270e88f8683660553e8ba4eb2ad7c91a1710d769",
      "function": "buy(address)",
      "arguments": [
        "0xC77f7fed3b5Cc8249aDc428c5F44C9063B9734b4"
      ],
      "transaction": {
        "from": "0xc77f7fed3b5cc8249adc428c5f44c9063b9734b4",
        "to": "0x270e88f8683660553e8ba4eb2ad7c91a1710d769",
        "gas": "0x1b30c",
        "value": "0xde0b6b3a7640000",
        "input": "0xf088d547000000000000000000000000c77f7fed3b5cc8249adc428c5f44c9063b9734b4",
        "nonce": "0x5cc",
        "chainId": "0xaa36a7"
      },
      "additionalContracts": [],
      "isFixedGasLimit": false
    }
  ],
  "receipts": [
    {
      "status": "0x1",
      "cumulativeGasUsed": "0xf049ab",
      "logs": [
        {
          "address": "0x270e88f8683660553e8ba4eb2ad7c91a1710d769",
          "topics": [
            "0xddf252ad1be2c89b69c2b068fc378daa952ba7f163c4a11628f55a4df523b3ef",
            "0x0000000000000000000000000000000000000000000000000000000000000000",
            "0x000000000000000000000000c77f7fed3b5cc8249adc428c5f44c9063b9734b4"
          ],
          "data": "0x0000000000000000000000000000000000000000000000339c057990135cd7f8",
          "blockHash": "0x7f8dce272a1e94c3cb2f187c62d1e66a2fe7a27c1da495fd6b3897f1b0ac7db7",
          "blockNumber": "0x72528b",
          "transactionHash": "0xf5a0059acae3837a19bf9931559023154b6f9ba87ade225d977025f001ebf976",
          "transactionIndex": "0x48",
          "logIndex": "0xc9",
          "removed": false
        },
        {
          "address": "0x270e88f8683660553e8ba4eb2ad7c91a1710d769",
          "topics": [
            "0xddf252ad1be2c89b69c2b068fc378daa952ba7f163c4a11628f55a4df523b3ef",
            "0x0000000000000000000000000000000000000000000000000000000000000000",
            "0x000000000000000000000000c77f7fed3b5cc8249adc428c5f44c9063b9734b4"
          ],
          "data": "0x000000000000000000000000000000000000000000000000281395d408e945de",
          "blockHash": "0x7f8dce272a1e94c3cb2f187c62d1e66a2fe7a27c1da495fd6b3897f1b0ac7db7",
          "blockNumber": "0x72528b",
          "transactionHash": "0xf5a0059acae3837a19bf9931559023154b6f9ba87ade225d977025f001ebf976",
          "transactionIndex": "0x48",
          "logIndex": "0xca",
          "removed": false
        },
        {
          "address": "0x270e88f8683660553e8ba4eb2ad7c91a1710d769",
          "topics": [
            "0x4afcb4a87cdbd9974efdb92ee48bc8d7cd0ae4bf217004db3d080cbaee652ca7"
          ],
          "data": "0x000000000000000000000000000000000000000000000000000000006786d0740000000000000000000000000000000000000000000000000003b1e04c288a9b0000000000000000000000000000000000000000000000000de0b6b3a7640000",
          "blockHash": "0x7f8dce272a1e94c3cb2f187c62d1e66a2fe7a27c1da495fd6b3897f1b0ac7db7",
          "blockNumber": "0x72528b",
          "transactionHash": "0xf5a0059acae3837a19bf9931559023154b6f9ba87ade225d977025f001ebf976",
          "transactionIndex": "0x48",
          "logIndex": "0xcb",
          "removed": false
        }
      ],
      "logsBloom": "0x00000000000000000000000000000000000000000000000000000000000000000000000000000000000000000000000020000000000000004000000000000000000000000000000000000008000000000000000000000000000000000000000000000000020000000000000000000800020000000000000000000010000000000000000000010000000000000000000000000000000000000000010000000000000000000000000000000000000000004000000000000000000000000000000000000002000000800000000000000000000000000000080000008000000020000000000000000000000000000000000000000000000000000000000000000000",
      "type": "0x2",
      "transactionHash": "0xf5a0059acae3837a19bf9931559023154b6f9ba87ade225d977025f001ebf976",
      "transactionIndex": "0x48",
      "blockHash": "0x7f8dce272a1e94c3cb2f187c62d1e66a2fe7a27c1da495fd6b3897f1b0ac7db7",
      "blockNumber": "0x72528b",
      "gasUsed": "0x13af8",
      "effectiveGasPrice": "0x3be920055",
      "from": "0xc77f7fed3b5cc8249adc428c5f44c9063b9734b4",
      "to": "0x270e88f8683660553e8ba4eb2ad7c91a1710d769",
      "contractAddress": null
    }
  ],
  "libraries": [],
  "pending": [],
  "returns": {},
  "timestamp": 1736888438,
  "chain": 11155111,
  "commit": "51a374b"
}