{
  "transactions": [
    {
      "hash": "0xd7499c1158d45427083b5416275715853fd0ba237a8e97e18d10a7ce98bcfd99",
      "transactionType": "CALL",
      "contractName": null,
      "contractAddress": "0x8aafd3ede9adb0ff97c7aebce82a919afb1c8764",
      "function": "sell(uint256)",
      "arguments": [
        "720804728486188113793"
      ],
      "transaction": {
        "from": "0xc77f7fed3b5cc8249adc428c5f44c9063b9734b4",
        "to": "0x8aafd3ede9adb0ff97c7aebce82a919afb1c8764",
        "gas": "0x17270",
        "value": "0x0",
        "input": "0xe4849b32000000000000000000000000000000000000000000000027132cd19231215f81",
        "nonce": "0xffb",
        "chainId": "0xaa36a7"
      },
      "additionalContracts": [],
      "isFixedGasLimit": false
    }
  ],
  "receipts": [
    {
      "status": "0x1",
      "cumulativeGasUsed": "0xa3e3ed",
      "logs": [
        {
          "address": "0x8aafd3ede9adb0ff97c7aebce82a919afb1c8764",
          "topics": [
            "0xddf252ad1be2c89b69c2b068fc378daa952ba7f163c4a11628f55a4df523b3ef",
            "0x000000000000000000000000c77f7fed3b5cc8249adc428c5f44c9063b9734b4",
            "0x0000000000000000000000000000000000000000000000000000000000000000"
          ],
          "data": "0x000000000000000000000000000000000000000000000026c32650eb2266bcf3",
          "blockHash": "0x113b3d401820ad64d7166e73c3800bf8ba87bec8e3d85af5aa1bea8c5d15b5ad",
          "blockNumber": "0x731670",
          "transactionHash": "0xd7499c1158d45427083b5416275715853fd0ba237a8e97e18d10a7ce98bcfd99",
          "transactionIndex": "0x7a",
          "logIndex": "0xa7",
          "removed": false
        },
        {
          "address": "0x8aafd3ede9adb0ff97c7aebce82a919afb1c8764",
          "topics": [
            "0xddf252ad1be2c89b69c2b068fc378daa952ba7f163c4a11628f55a4df523b3ef",
            "0x000000000000000000000000c77f7fed3b5cc8249adc428c5f44c9063b9734b4",
            "0x000000000000000000000000c77f7fed3b5cc8249adc428c5f44c9063b9734b4"
          ],
          "data": "0x000000000000000000000000000000000000000000000000500680a70ebaa28e",
          "blockHash": "0x113b3d401820ad64d7166e73c3800bf8ba87bec8e3d85af5aa1bea8c5d15b5ad",
          "blockNumber": "0x731670",
          "transactionHash": "0xd7499c1158d45427083b5416275715853fd0ba237a8e97e18d10a7ce98bcfd99",
          "transactionIndex": "0x7a",
          "logIndex": "0xa8",
          "removed": false
        },
        {
          "address": "0x8aafd3ede9adb0ff97c7aebce82a919afb1c8764",
          "topics": [
            "0x4afcb4a87cdbd9974efdb92ee48bc8d7cd0ae4bf217004db3d080cbaee652ca7"
          ],
          "data": "0x00000000000000000000000000000000000000000000000000000000679009ec0000000000000000000000000000000000000000000000000004e6644cb1546c0000000000000000000000000000000000000000000000000dc901c6ffba1e60",
          "blockHash": "0x113b3d401820ad64d7166e73c3800bf8ba87bec8e3d85af5aa1bea8c5d15b5ad",
          "blockNumber": "0x731670",
          "transactionHash": "0xd7499c1158d45427083b5416275715853fd0ba237a8e97e18d10a7ce98bcfd99",
          "transactionIndex": "0x7a",
          "logIndex": "0xa9",
          "removed": false
        }
      ],
      "logsBloom": "0x00000000000000000000000000000000000000000600000000000000000000000000000000000000000000000000000000000000000000004000000000000000000000000000004000000008000000000000000000000000000000000000000000000000020000000000000000000800020000000000000000000010000000000000000000000000000000000000000000000000000000000000010000000000000000000000000000000000000000004000000000000000000000000000000000000002000000800000000000000000000000000000080000000000000020000000000000000000000000000000000000000000000000000000000000000000",
      "type": "0x2",
      "transactionHash": "0xd7499c1158d45427083b5416275715853fd0ba237a8e97e18d10a7ce98bcfd99",
      "transactionIndex": "0x7a",
      "blockHash": "0x113b3d401820ad64d7166e73c3800bf8ba87bec8e3d85af5aa1bea8c5d15b5ad",
      "blockNumber": "0x731670",
      "gasUsed": "0xfd4b",
      "effectiveGasPrice": "0x40504996",
      "from": "0xc77f7fed3b5cc8249adc428c5f44c9063b9734b4",
      "to": "0x8aafd3ede9adb0ff97c7aebce82a919afb1c8764",
      "contractAddress": null
    }
  ],
  "libraries": [],
  "pending": [],
  "returns": {},
  "timestamp": 1737492973,
  "chain": 11155111,
  "commit": "1d2fb70"
}