{
  "transactions": [
    {
      "hash": "0x5cef3dc2725d72b618bca258a9e61c992856063b356ea915e98524301d229b03",
      "transactionType": "CALL",
      "contractName": null,
      "contractAddress": "0x3b71253dcecbaf453f48043c75f311253fd0ad31",
      "function": "sell(uint256)",
      "arguments": [
        "992199581264926272828413"
      ],
      "transaction": {
        "from": "0xc77f7fed3b5cc8249adc428c5f44c9063b9734b4",
        "to": "0x3b71253dcecbaf453f48043c75f311253fd0ad31",
        "gas": "0x15b8c",
        "value": "0x0",
        "input": "0xe4849b3200000000000000000000000000000000000000000000d21b3f4075c4b59eb3fd",
        "nonce": "0x4cd",
        "chainId": "0xaa36a7"
      },
      "additionalContracts": [],
      "isFixedGasLimit": false
    }
  ],
  "receipts": [
    {
      "status": "0x1",
      "cumulativeGasUsed": "0x6aac4a",
      "logs": [
        {
          "address": "0x3b71253dcecbaf453f48043c75f311253fd0ad31",
          "topics": [
            "0xddf252ad1be2c89b69c2b068fc378daa952ba7f163c4a11628f55a4df523b3ef",
            "0x000000000000000000000000c77f7fed3b5cc8249adc428c5f44c9063b9734b4",
            "0x0000000000000000000000000000000000000000000000000000000000000000"
          ],
          "data": "0x00000000000000000000000000000000000000000000d21b3f4075c4b59eb3fd",
          "blockHash": "0x5a8dfcc73da2a3123ab3b914c6386129c206856e3f05836b97a3dc839debcb4e",
          "blockNumber": "0x72511e",
          "transactionHash": "0x5cef3dc2725d72b618bca258a9e61c992856063b356ea915e98524301d229b03",
          "transactionIndex": "0x38",
          "logIndex": "0x7c",
          "removed": false
        },
        {
          "address": "0x3b71253dcecbaf453f48043c75f311253fd0ad31",
          "topics": [
            "0x4afcb4a87cdbd9974efdb92ee48bc8d7cd0ae4bf217004db3d080cbaee652ca7"
          ],
          "data": "0x000000000000000000000000000000000000000000000000000000006786bf4c000000000000000000000000000000000000000000000000000000e9181432ef0000000000000000000000000000000000000000000000000dc8427e3666c246",
          "blockHash": "0x5a8dfcc73da2a3123ab3b914c6386129c206856e3f05836b97a3dc839debcb4e",
          "blockNumber": "0x72511e",
          "transactionHash": "0x5cef3dc2725d72b618bca258a9e61c992856063b356ea915e98524301d229b03",
          "transactionIndex": "0x38",
          "logIndex": "0x7d",
          "removed": false
        }
      ],
      "logsBloom": "0x00000000000000000000000000000000000000000000000000000000000000000000000000000000000000000000000000000000000000004000020000000000000000000000000000000008000000000000000000000000000000000000000000000000020000000000000000000800020000000000000000000010002000000000000000000000000000000000000000000000000000000000010000000000000000000000000000000000000000004000000000000000000000000000000000000002000000800000000000000000000000000000080000000000000020000000000000000000008000000000000000000000000000000000000000000000",
      "type": "0x2",
      "transactionHash": "0x5cef3dc2725d72b618bca258a9e61c992856063b356ea915e98524301d229b03",
      "transactionIndex": "0x38",
      "blockHash": "0x5a8dfcc73da2a3123ab3b914c6386129c206856e3f05836b97a3dc839debcb4e",
      "blockNumber": "0x72511e",
      "gasUsed": "0xfb9f",
      "effectiveGasPrice": "0x2d2183e25",
      "from": "0xc77f7fed3b5cc8249adc428c5f44c9063b9734b4",
      "to": "0x3b71253dcecbaf453f48043c75f311253fd0ad31",
      "contractAddress": null
    }
  ],
  "libraries": [],
  "pending": [],
  "returns": {},
  "timestamp": 1736884045,
  "chain": 11155111,
  "commit": "51a374b"
}