{
  "transactions": [
    {
      "hash": "0xbbf676053556f1222ddc614602392628e0925eade7e6c1e568538f5a58f34495",
      "transactionType": "CALL",
      "contractName": null,
      "contractAddress": "0x5eb9cc76c3506942c1c0ead70e877dd5e4f00cb0",
      "function": "sell(uint256)",
      "arguments": [
        "989147807390182685228"
      ],
      "transaction": {
        "from": "0xc77f7fed3b5cc8249adc428c5f44c9063b9734b4",
        "to": "0x5eb9cc76c3506942c1c0ead70e877dd5e4f00cb0",
        "gas": "0x16fec",
        "value": "0x0",
        "input": "0xe4849b320000000000000000000000000000000000000000000000359f2ef21778583a2c",
        "nonce": "0x2d5",
        "chainId": "0xaa36a7"
      },
      "additionalContracts": [],
      "isFixedGasLimit": false
    }
  ],
  "receipts": [
    {
      "status": "0x1",
      "cumulativeGasUsed": "0x19a1bcf",
      "logs": [
        {
          "address": "0x5eb9cc76c3506942c1c0ead70e877dd5e4f00cb0",
          "topics": [
            "0xddf252ad1be2c89b69c2b068fc378daa952ba7f163c4a11628f55a4df523b3ef",
            "0x000000000000000000000000c77f7fed3b5cc8249adc428c5f44c9063b9734b4",
            "0x0000000000000000000000000000000000000000000000000000000000000000"
          ],
          "data": "0x0000000000000000000000000000000000000000000000359f2ef21778583a2c",
          "blockHash": "0x9243111acf6449fe728e37baf1d780789e0a6bb84bd0091d4a6d55705029ace4",
          "blockNumber": "0x724eb2",
          "transactionHash": "0xbbf676053556f1222ddc614602392628e0925eade7e6c1e568538f5a58f34495",
          "transactionIndex": "0x10b",
          "logIndex": "0x19b",
          "removed": false
        },
        {
          "address": "0x5eb9cc76c3506942c1c0ead70e877dd5e4f00cb0",
          "topics": [
            "0x4afcb4a87cdbd9974efdb92ee48bc8d7cd0ae4bf217004db3d080cbaee652ca7"
          ],
          "data": "0x000000000000000000000000000000000000000000000000000000006786a20c0000000000000000000000000000000000000000000000000003910a2cae0caa0000000000000000000000000000000000000000000000000dc7db13323c83eb",
          "blockHash": "0x9243111acf6449fe728e37baf1d780789e0a6bb84bd0091d4a6d55705029ace4",
          "blockNumber": "0x724eb2",
          "transactionHash": "0xbbf676053556f1222ddc614602392628e0925eade7e6c1e568538f5a58f34495",
          "transactionIndex": "0x10b",
          "logIndex": "0x19c",
          "removed": false
        }
      ],
      "logsBloom": "0x00000000000000000000000000000000000000000000000000000000000000000000000000000000000000000000000000000000000000004000000000000000000000000000000000000008000000000000000000000000000000000000000000000000020000000000000004000800020000000000000000000010000000000000000000000000000000000000000000000000000000000000010000000000000000000000000000000000000000004000000000000000000000000000020000000002000000800000008000000000000000000000080000000000000020000000000000000000000000000000000000000000000000000000000000000000",
      "type": "0x2",
      "transactionHash": "0xbbf676053556f1222ddc614602392628e0925eade7e6c1e568538f5a58f34495",
      "transactionIndex": "0x10b",
      "blockHash": "0x9243111acf6449fe728e37baf1d780789e0a6bb84bd0091d4a6d55705029ace4",
      "blockNumber": "0x724eb2",
      "gasUsed": "0xfb93",
      "effectiveGasPrice": "0x3e418464a",
      "from": "0xc77f7fed3b5cc8249adc428c5f44c9063b9734b4",
      "to": "0x5eb9cc76c3506942c1c0ead70e877dd5e4f00cb0",
      "contractAddress": null
    }
  ],
  "libraries": [],
  "pending": [],
  "returns": {},
  "timestamp": 1736876557,
  "chain": 11155111,
  "commit": "51a374b"
}