{
  "transactions": [
    {
      "hash": "0x1c008fad8e134df96bb549cb040735a8d24f82cc5c429a32fa4705fea5491a36",
      "transactionType": "CALL",
      "contractName": null,
      "contractAddress": "0x8aafd3ede9adb0ff97c7aebce82a919afb1c8764",
      "function": "sell(uint256)",
      "arguments": [
        "961059537394"
      ],
      "transaction": {
        "from": "0xc77f7fed3b5cc8249adc428c5f44c9063b9734b4",
        "to": "0x8aafd3ede9adb0ff97c7aebce82a919afb1c8764",
        "gas": "0x1722a",
        "value": "0x0",
        "input": "0xe4849b32000000000000000000000000000000000000000000000000000000dfc39cc1f2",
        "nonce": "0x1458",
        "chainId": "0xaa36a7"
      },
      "additionalContracts": [],
      "isFixedGasLimit": false
    }
  ],
  "receipts": [
    {
      "status": "0x1",
      "cumulativeGasUsed": "0x142db56",
      "logs": [
        {
          "address": "0x8aafd3ede9adb0ff97c7aebce82a919afb1c8764",
          "topics": [
            "0xddf252ad1be2c89b69c2b068fc378daa952ba7f163c4a11628f55a4df523b3ef",
            "0x000000000000000000000000c77f7fed3b5cc8249adc428c5f44c9063b9734b4",
            "0x0000000000000000000000000000000000000000000000000000000000000000"
          ],
          "data": "0x000000000000000000000000000000000000000000000000000000ddf957eb67",
          "blockHash": "0xef3f820f8f18a4a06a0d3ab85ea29b38d37034a952b851a7d1439f17100062bf",
          "blockNumber": "0x731b9f",
          "transactionHash": "0x1c008fad8e134df96bb549cb040735a8d24f82cc5c429a32fa4705fea5491a36",
          "transactionIndex": "0xa3",
          "logIndex": "0xb6",
          "removed": false
        },
        {
          "address": "0x8aafd3ede9adb0ff97c7aebce82a919afb1c8764",
          "topics": [
            "0xddf252ad1be2c89b69c2b068fc378daa952ba7f163c4a11628f55a4df523b3ef",
            "0x000000000000000000000000c77f7fed3b5cc8249adc428c5f44c9063b9734b4",
            "0x000000000000000000000000c77f7fed3b5cc8249adc428c5f44c9063b9734b4"
          ],
          "data": "0x00000000000000000000000000000000000000000000000000000001ca44d68b",
          "blockHash": "0xef3f820f8f18a4a06a0d3ab85ea29b38d37034a952b851a7d1439f17100062bf",
          "blockNumber": "0x731b9f",
          "transactionHash": "0x1c008fad8e134df96bb549cb040735a8d24f82cc5c429a32fa4705fea5491a36",
          "transactionIndex": "0xa3",
          "logIndex": "0xb7",
          "removed": false
        },
        {
          "address": "0x8aafd3ede9adb0ff97c7aebce82a919afb1c8764",
          "topics": [
            "0x4afcb4a87cdbd9974efdb92ee48bc8d7cd0ae4bf217004db3d080cbaee652ca7"
          ],
          "data": "0x0000000000000000000000000000000000000000000000000000000067904850000000000000000000000000000000000000000000000000000f237ab8afc98400000000000000000000000000000000000000000000000000000000f417daf7",
          "blockHash": "0xef3f820f8f18a4a06a0d3ab85ea29b38d37034a952b851a7d1439f17100062bf",
          "blockNumber": "0x731b9f",
          "transactionHash": "0x1c008fad8e134df96bb549cb040735a8d24f82cc5c429a32fa4705fea5491a36",
          "transactionIndex": "0xa3",
          "logIndex": "0xb8",
          "removed": false
        }
      ],
      "logsBloom": "0x00000000000000000000000000000000000000000600000000000000000000000000000000000000000000000000000000000000000000004000000000000000000000000000004000000008000000000000000000000000000000000000000000000000020000000000000000000800020000000000000000000010000000000000000000000000000000000000000000000000000000000000010000000000000000000000000000000000000000004000000000000000000000000000000000000002000000800000000000000000000000000000080000000000000020000000000000000000000000000000000000000000000000000000000000000000",
      "type": "0x2",
      "transactionHash": "0x1c008fad8e134df96bb549cb040735a8d24f82cc5c429a32fa4705fea5491a36",
      "transactionIndex": "0xa3",
      "blockHash": "0xef3f820f8f18a4a06a0d3ab85ea29b38d37034a952b851a7d1439f17100062bf",
      "blockNumber": "0x731b9f",
      "gasUsed": "0xfd1b",
      "effectiveGasPrice": "0x110019c85",
      "from": "0xc77f7fed3b5cc8249adc428c5f44c9063b9734b4",
      "to": "0x8aafd3ede9adb0ff97c7aebce82a919afb1c8764",
      "contractAddress": null
    }
  ],
  "libraries": [],
  "pending": [],
  "returns": {},
  "timestamp": 1737508946,
  "chain": 11155111,
  "commit": "1d2fb70"
}