{
  "transactions": [
    {
      "hash": "0x8d79663a6e581d2f412b76440bfe3f6700a16b864cf892f91813716afded07de",
      "transactionType": "CALL",
      "contractName": null,
      "contractAddress": "0x8aafd3ede9adb0ff97c7aebce82a919afb1c8764",
      "function": "sell(uint256)",
      "arguments": [
        "43178090246467919"
      ],
      "transaction": {
        "from": "0xc77f7fed3b5cc8249adc428c5f44c9063b9734b4",
        "to": "0x8aafd3ede9adb0ff97c7aebce82a919afb1c8764",
        "gas": "0x1724d",
        "value": "0x0",
        "input": "0xe4849b320000000000000000000000000000000000000000000000000099663e8b38714f",
        "nonce": "0x124b",
        "chainId": "0xaa36a7"
      },
      "additionalContracts": [],
      "isFixedGasLimit": false
    }
  ],
  "receipts": [
    {
      "status": "0x1",
      "cumulativeGasUsed": "0x47ca3a",
      "logs": [
        {
          "address": "0x8aafd3ede9adb0ff97c7aebce82a919afb1c8764",
          "topics": [
            "0xddf252ad1be2c89b69c2b068fc378daa952ba7f163c4a11628f55a4df523b3ef",
            "0x000000000000000000000000c77f7fed3b5cc8249adc428c5f44c9063b9734b4",
            "0x0000000000000000000000000000000000000000000000000000000000000000"
          ],
          "data": "0x00000000000000000000000000000000000000000000000000982c15155ee730",
          "blockHash": "0x6e1dc97ae08c9122ea865bdee6f34fc6b7d125a2b2975eac383c946f95593d29",
          "blockNumber": "0x73192e",
          "transactionHash": "0x8d79663a6e581d2f412b76440bfe3f6700a16b864cf892f91813716afded07de",
          "transactionIndex": "0x28",
          "logIndex": "0x3e",
          "removed": false
        },
        {
          "address": "0x8aafd3ede9adb0ff97c7aebce82a919afb1c8764",
          "topics": [
            "0xddf252ad1be2c89b69c2b068fc378daa952ba7f163c4a11628f55a4df523b3ef",
            "0x000000000000000000000000c77f7fed3b5cc8249adc428c5f44c9063b9734b4",
            "0x000000000000000000000000c77f7fed3b5cc8249adc428c5f44c9063b9734b4"
          ],
          "data": "0x00000000000000000000000000000000000000000000000000013a2975d98a1f",
          "blockHash": "0x6e1dc97ae08c9122ea865bdee6f34fc6b7d125a2b2975eac383c946f95593d29",
          "blockNumber": "0x73192e",
          "transactionHash": "0x8d79663a6e581d2f412b76440bfe3f6700a16b864cf892f91813716afded07de",
          "transactionIndex": "0x28",
          "logIndex": "0x3f",
          "removed": false
        },
        {
          "address": "0x8aafd3ede9adb0ff97c7aebce82a919afb1c8764",
          "topics": [
            "0x4afcb4a87cdbd9974efdb92ee48bc8d7cd0ae4bf217004db3d080cbaee652ca7"
          ],
          "data": "0x0000000000000000000000000000000000000000000000000000000067902af800000000000000000000000000000000000000000000000000053c1a9accd11e000000000000000000000000000000000000000000000000000039dcf5c82157",
          "blockHash": "0x6e1dc97ae08c9122ea865bdee6f34fc6b7d125a2b2975eac383c946f95593d29",
          "blockNumber": "0x73192e",
          "transactionHash": "0x8d79663a6e581d2f412b76440bfe3f6700a16b864cf892f91813716afded07de",
          "transactionIndex": "0x28",
          "logIndex": "0x40",
          "removed": false
        }
      ],
      "logsBloom": "0x00000000000000000000000000000000000000000600000000000000000000000000000000000000000000000000000000000000000000004000000000000000000000000000004000000008000000000000000000000000000000000000000000000000020000000000000000000800020000000000000000000010000000000000000000000000000000000000000000000000000000000000010000000000000000000000000000000000000000004000000000000000000000000000000000000002000000800000000000000000000000000000080000000000000020000000000000000000000000000000000000000000000000000000000000000000",
      "type": "0x2",
      "transactionHash": "0x8d79663a6e581d2f412b76440bfe3f6700a16b864cf892f91813716afded07de",
      "transactionIndex": "0x28",
      "blockHash": "0x6e1dc97ae08c9122ea865bdee6f34fc6b7d125a2b2975eac383c946f95593d29",
      "blockNumber": "0x73192e",
      "gasUsed": "0xfd33",
      "effectiveGasPrice": "0x42752669",
      "from": "0xc77f7fed3b5cc8249adc428c5f44c9063b9734b4",
      "to": "0x8aafd3ede9adb0ff97c7aebce82a919afb1c8764",
      "contractAddress": null
    }
  ],
  "libraries": [],
  "pending": [],
  "returns": {},
  "timestamp": 1737501433,
  "chain": 11155111,
  "commit": "1d2fb70"
}