{
  "transactions": [
    {
      "hash": "0x9df2f169d44b452b62f7977d9c0e6edcb00d9f479ca2182596edc94eebcd60f3",
      "transactionType": "CALL",
      "contractName": null,
      "contractAddress": "0xbf4a322f1496e5c3d34a9bcdb4c60567b38c7de2",
      "function": "sell(uint256)",
      "arguments": [
        "978618296017968990670"
      ],
      "transaction": {
        "from": "0xc77f7fed3b5cc8249adc428c5f44c9063b9734b4",
        "to": "0xbf4a322f1496e5c3d34a9bcdb4c60567b38c7de2",
        "gas": "0x16fea",
        "value": "0x0",
        "input": "0xe4849b320000000000000000000000000000000000000000000000350d0e9b49511c89ce",
        "nonce": "0xc7f",
        "chainId": "0xaa36a7"
      },
      "additionalContracts": [],
      "isFixedGasLimit": false
    }
  ],
  "receipts": [
    {
      "status": "0x1",
      "cumulativeGasUsed": "0x130cd5f",
      "logs": [
        {
          "address": "0xbf4a322f1496e5c3d34a9bcdb4c60567b38c7de2",
          "topics": [
            "0xddf252ad1be2c89b69c2b068fc378daa952ba7f163c4a11628f55a4df523b3ef",
            "0x000000000000000000000000c77f7fed3b5cc8249adc428c5f44c9063b9734b4",
            "0x0000000000000000000000000000000000000000000000000000000000000000"
          ],
          "data": "0x0000000000000000000000000000000000000000000000350d0e9b49511c89ce",
          "blockHash": "0x94029790e9772828c891d51afebacef79c8a304303f8f83caa7d60f96a8dd465",
          "blockNumber": "0x725cbf",
          "transactionHash": "0x9df2f169d44b452b62f7977d9c0e6edcb00d9f479ca2182596edc94eebcd60f3",
          "transactionIndex": "0x59",
          "logIndex": "0x204",
          "removed": false
        },
        {
          "address": "0xbf4a322f1496e5c3d34a9bcdb4c60567b38c7de2",
          "topics": [
            "0x4afcb4a87cdbd9974efdb92ee48bc8d7cd0ae4bf217004db3d080cbaee652ca7"
          ],
          "data": "0x0000000000000000000000000000000000000000000000000000000067874b6800000000000000000000000000000000000000000000000000039ae37c26b9e50000000000000000000000000000000000000000000000000dc7e3deda932868",
          "blockHash": "0x94029790e9772828c891d51afebacef79c8a304303f8f83caa7d60f96a8dd465",
          "blockNumber": "0x725cbf",
          "transactionHash": "0x9df2f169d44b452b62f7977d9c0e6edcb00d9f479ca2182596edc94eebcd60f3",
          "transactionIndex": "0x59",
          "logIndex": "0x205",
          "removed": false
        }
      ],
      "logsBloom": "0x00000000000000000000000000000000000000000000000000000000000000000000000000000000000000000000000000000000000000004000000000000000000000000000000000000008000000000000001000000000000000000000000000000000020000000000000000000800020000000000000000000010000000000000000000000000000000000000000000000000000008000000010000000000000000000000000000000000000000004000000000000000000000000000000000000002000000800000000000001000000000000000080000000000000020000000000000000000000000000000000000000000000000000000000000000000",
      "type": "0x2",
      "transactionHash": "0x9df2f169d44b452b62f7977d9c0e6edcb00d9f479ca2182596edc94eebcd60f3",
      "transactionIndex": "0x59",
      "blockHash": "0x94029790e9772828c891d51afebacef79c8a304303f8f83caa7d60f96a8dd465",
      "blockNumber": "0x725cbf",
      "gasUsed": "0xfb91",
      "effectiveGasPrice": "0x2a5d42419",
      "from": "0xc77f7fed3b5cc8249adc428c5f44c9063b9734b4",
      "to": "0xbf4a322f1496e5c3d34a9bcdb4c60567b38c7de2",
      "contractAddress": null
    }
  ],
  "libraries": [],
  "pending": [],
  "returns": {},
  "timestamp": 1736919913,
  "chain": 11155111,
  "commit": "51a374b"
}