{
  "transactions": [
    {
      "hash": "0xa5e434ff6ebd8b01f3a3813d315a6053832a110cf6a833ec5af15fae8a0a258d",
      "transactionType": "CALL",
      "contractName": null,
      "contractAddress": "0x270e88f8683660553e8ba4eb2ad7c91a1710d769",
      "function": "buy(address)",
      "arguments": [
        "0xC77f7fed3b5Cc8249aDc428c5F44C9063B9734b4"
      ],
      "transaction": {
        "from": "0xc77f7fed3b5cc8249adc428c5f44c9063b9734b4",
        "to": "0x270e88f8683660553e8ba4eb2ad7c91a1710d769",
        "gas": "0x1b30c",
        "value": "0xde0b6b3a7640000",
        "input": "0xf088d547000000000000000000000000c77f7fed3b5cc8249adc428c5f44c9063b9734b4",
        "nonce": "0x564",
        "chainId": "0xaa36a7"
      },
      "additionalContracts": [],
      "isFixedGasLimit": false
    }
  ],
  "receipts": [
    {
      "status": "0x1",
      "cumulativeGasUsed": "0xd46b0c",
      "logs": [
        {
          "address": "0x270e88f8683660553e8ba4eb2ad7c91a1710d769",
          "topics": [
            "0xddf252ad1be2c89b69c2b068fc378daa952ba7f163c4a11628f55a4df523b3ef",
            "0x0000000000000000000000000000000000000000000000000000000000000000",
            "0x000000000000000000000000c77f7fed3b5cc8249adc428c5f44c9063b9734b4"
          ],
          "data": "0x000000000000000000000000000000000000000000000034740444b013422ea0",
          "blockHash": "0xb68ec30bb15bb5a9e9bf95caddb502404b5fc3f4355e8728266562b8a8930076",
          "blockNumber": "0x725209",
          "transactionHash": "0xa5e434ff6ebd8b01f3a3813d315a6053832a110cf6a833ec5af15fae8a0a258d",
          "transactionIndex": "0x52",
          "logIndex": "0xbd",
          "removed": false
        },
        {
          "address": "0x270e88f8683660553e8ba4eb2ad7c91a1710d769",
          "topics": [
            "0xddf252ad1be2c89b69c2b068fc378daa952ba7f163c4a11628f55a4df523b3ef",
            "0x0000000000000000000000000000000000000000000000000000000000000000",
            "0x000000000000000000000000c77f7fed3b5cc8249adc428c5f44c9063b9734b4"
          ],
          "data": "0x00000000000000000000000000000000000000000000000028bb501f1935d9fb",
          "blockHash": "0xb68ec30bb15bb5a9e9bf95caddb502404b5fc3f4355e8728266562b8a8930076",
          "blockNumber": "0x725209",
          "transactionHash": "0xa5e434ff6ebd8b01f3a3813d315a6053832a110cf6a833ec5af15fae8a0a258d",
          "transactionIndex": "0x52",
          "logIndex": "0xbe",
          "removed": false
        },
        {
          "address": "0x270e88f8683660553e8ba4eb2ad7c91a1710d769",
          "topics": [
            "0x4afcb4a87cdbd9974efdb92ee48bc8d7cd0ae4bf217004db3d080cbaee652ca7"
          ],
          "data": "0x000000000000000000000000000000000000000000000000000000006786ca5c0000000000000000000000000000000000000000000000000003a2a9ba546e1c0000000000000000000000000000000000000000000000000de0b6b3a7640000",
          "blockHash": "0xb68ec30bb15bb5a9e9bf95caddb502404b5fc3f4355e8728266562b8a8930076",
          "blockNumber": "0x725209",
          "transactionHash": "0xa5e434ff6ebd8b01f3a3813d315a6053832a110cf6a833ec5af15fae8a0a258d",
          "transactionIndex": "0x52",
          "logIndex": "0xbf",
          "removed": false
        }
      ],
      "logsBloom": "0x00000000000000000000000000000000000000000000000000000000000000000000000000000000000000000000000020000000000000004000000000000000000000000000000000000008000000000000000000000000000000000000000000000000020000000000000000000800020000000000000000000010000000000000000000010000000000000000000000000000000000000000010000000000000000000000000000000000000000004000000000000000000000000000000000000002000000800000000000000000000000000000080000008000000020000000000000000000000000000000000000000000000000000000000000000000",
      "type": "0x2",
      "transactionHash": "0xa5e434ff6ebd8b01f3a3813d315a6053832a110cf6a833ec5af15fae8a0a258d",
      "transactionIndex": "0x52",
      "blockHash": "0xb68ec30bb15bb5a9e9bf95caddb502404b5fc3f4355e8728266562b8a8930076",
      "blockNumber": "0x725209",
      "gasUsed": "0x13af8",
      "effectiveGasPrice": "0x45ef8e671",
      "from": "0xc77f7fed3b5cc8249adc428c5f44c9063b9734b4",
      "to": "0x270e88f8683660553e8ba4eb2ad7c91a1710d769",
      "contractAddress": null
    }
  ],
  "libraries": [],
  "pending": [],
  "returns": {},
  "timestamp": 1736886877,
  "chain": 11155111,
  "commit": "51a374b"
}