{
  "transactions": [
    {
      "hash": "0x7b81da966b8db1b3e4100c72abee1c49f0de83ca3a85cef996d538f6071450cd",
      "transactionType": "CALL",
      "contractName": null,
      "contractAddress": "0x8aafd3ede9adb0ff97c7aebce82a919afb1c8764",
      "function": "buy(address)",
      "arguments": [
        "0xC77f7fed3b5Cc8249aDc428c5F44C9063B9734b4"
      ],
      "transaction": {
        "from": "0xc77f7fed3b5cc8249adc428c5f44c9063b9734b4",
        "to": "0x8aafd3ede9adb0ff97c7aebce82a919afb1c8764",
        "gas": "0x156ea",
        "value": "0xde0b6b3a7640000",
        "input": "0xf088d547000000000000000000000000c77f7fed3b5cc8249adc428c5f44c9063b9734b4",
        "nonce": "0x130f",
        "chainId": "0xaa36a7"
      },
      "additionalContracts": [],
      "isFixedGasLimit": false
    }
  ],
  "receipts": [
    {
      "status": "0x1",
      "cumulativeGasUsed": "0x132031c",
      "logs": [
        {
          "address": "0x8aafd3ede9adb0ff97c7aebce82a919afb1c8764",
          "topics": [
            "0xddf252ad1be2c89b69c2b068fc378daa952ba7f163c4a11628f55a4df523b3ef",
            "0x0000000000000000000000000000000000000000000000000000000000000000",
            "0x000000000000000000000000c77f7fed3b5cc8249adc428c5f44c9063b9734b4"
          ],
          "data": "0x000000000000000000000000000000000000000000000010c97b12b7fe715e84",
          "blockHash": "0xec81621557c66264b2d986a65f10301f4dfecbef9cd1ca5db6c0bb66942654fb",
          "blockNumber": "0x731a1a",
          "transactionHash": "0x7b81da966b8db1b3e4100c72abee1c49f0de83ca3a85cef996d538f6071450cd",
          "transactionIndex": "0x8a",
          "logIndex": "0xb1",
          "removed": false
        },
        {
          "address": "0x8aafd3ede9adb0ff97c7aebce82a919afb1c8764",
          "topics": [
            "0xddf252ad1be2c89b69c2b068fc378daa952ba7f163c4a11628f55a4df523b3ef",
            "0x0000000000000000000000000000000000000000000000000000000000000000",
            "0x000000000000000000000000c77f7fed3b5cc8249adc428c5f44c9063b9734b4"
          ],
          "data": "0x0000000000000000000000000000000000000000000000000d0923f0bf752079",
          "blockHash": "0xec81621557c66264b2d986a65f10301f4dfecbef9cd1ca5db6c0bb66942654fb",
          "blockNumber": "0x731a1a",
          "transactionHash": "0x7b81da966b8db1b3e4100c72abee1c49f0de83ca3a85cef996d538f6071450cd",
          "transactionIndex": "0x8a",
          "logIndex": "0xb2",
          "removed": false
        },
        {
          "address": "0x8aafd3ede9adb0ff97c7aebce82a919afb1c8764",
          "topics": [
            "0x4afcb4a87cdbd9974efdb92ee48bc8d7cd0ae4bf217004db3d080cbaee652ca7"
          ],
          "data": "0x0000000000000000000000000000000000000000000000000000000067903608000000000000000000000000000000000000000000000000000b618702ad5cab0000000000000000000000000000000000000000000000000de0b6b3a7640000",
          "blockHash": "0xec81621557c66264b2d986a65f10301f4dfecbef9cd1ca5db6c0bb66942654fb",
          "blockNumber": "0x731a1a",
          "transactionHash": "0x7b81da966b8db1b3e4100c72abee1c49f0de83ca3a85cef996d538f6071450cd",
          "transactionIndex": "0x8a",
          "logIndex": "0xb3",
          "removed": false
        }
      ],
      "logsBloom": "0x00000000000000000000000000000000000000000600000000000000000000000000000000000000000000000000000000000000000000004000000000000000000000000000004000000008000000000000000000000000000000000000000000000000020000000000000000000800020000000000000000000010000000000000000000000000000000000000000000000000000000000000010000000000000000000000000000000000000000004000000000000000000000000000000000000002000000800000000000000000000000000000080000000000000020000000000000000000000000000000000000000000000000000000000000000000",
      "type": "0x2",
      "transactionHash": "0x7b81da966b8db1b3e4100c72abee1c49f0de83ca3a85cef996d538f6071450cd",
      "transactionIndex": "0x8a",
      "blockHash": "0xec81621557c66264b2d986a65f10301f4dfecbef9cd1ca5db6c0bb66942654fb",
      "blockNumber": "0x731a1a",
      "gasUsed": "0xf844",
      "effectiveGasPrice": "0x3c6de5fd",
      "from": "0xc77f7fed3b5cc8249adc428c5f44c9063b9734b4",
      "to": "0x8aafd3ede9adb0ff97c7aebce82a919afb1c8764",
      "contractAddress": null
    }
  ],
  "libraries": [],
  "pending": [],
  "returns": {},
  "timestamp": 1737504265,
  "chain": 11155111,
  "commit": "1d2fb70"
}