{
  "transactions": [
    {
      "hash": "0x7674e1573709d0984ddd0a53df19f89d129fc89f57b7a0fa34032c79151932a5",
      "transactionType": "CALL",
      "contractName": null,
      "contractAddress": "0x8aafd3ede9adb0ff97c7aebce82a919afb1c8764",
      "function": "sell(uint256)",
      "arguments": [
        "24326400506"
      ],
      "transaction": {
        "from": "0xc77f7fed3b5cc8249adc428c5f44c9063b9734b4",
        "to": "0x8aafd3ede9adb0ff97c7aebce82a919afb1c8764",
        "gas": "0x1722a",
        "value": "0x0",
        "input": "0xe4849b3200000000000000000000000000000000000000000000000000000005a9f769fa",
        "nonce": "0xf58",
        "chainId": "0xaa36a7"
      },
      "additionalContracts": [],
      "isFixedGasLimit": false
    }
  ],
  "receipts": [
    {
      "status": "0x1",
      "cumulativeGasUsed": "0x144eb06",
      "logs": [
        {
          "address": "0x8aafd3ede9adb0ff97c7aebce82a919afb1c8764",
          "topics": [
            "0xddf252ad1be2c89b69c2b068fc378daa952ba7f163c4a11628f55a4df523b3ef",
            "0x000000000000000000000000c77f7fed3b5cc8249adc428c5f44c9063b9734b4",
            "0x0000000000000000000000000000000000000000000000000000000000000000"
          ],
          "data": "0x000000000000000000000000000000000000000000000000000000059e5de1f6",
          "blockHash": "0x76a1051ec4ead3e2af72b2df8350ce5c90b988c157c08480c105020031d63716",
          "blockNumber": "0x7315b5",
          "transactionHash": "0x7674e1573709d0984ddd0a53df19f89d129fc89f57b7a0fa34032c79151932a5",
          "transactionIndex": "0xc6",
          "logIndex": "0x10d",
          "removed": false
        },
        {
          "address": "0x8aafd3ede9adb0ff97c7aebce82a919afb1c8764",
          "topics": [
            "0xddf252ad1be2c89b69c2b068fc378daa952ba7f163c4a11628f55a4df523b3ef",
            "0x000000000000000000000000c77f7fed3b5cc8249adc428c5f44c9063b9734b4",
            "0x000000000000000000000000c77f7fed3b5cc8249adc428c5f44c9063b9734b4"
          ],
          "data": "0x000000000000000000000000000000000000000000000000000000000b998804",
          "blockHash": "0x76a1051ec4ead3e2af72b2df8350ce5c90b988c157c08480c105020031d63716",
          "blockNumber": "0x7315b5",
          "transactionHash": "0x7674e1573709d0984ddd0a53df19f89d129fc89f57b7a0fa34032c79151932a5",
          "transactionIndex": "0xc6",
          "logIndex": "0x10e",
          "removed": false
        },
        {
          "address": "0x8aafd3ede9adb0ff97c7aebce82a919afb1c8764",
          "topics": [
            "0x4afcb4a87cdbd9974efdb92ee48bc8d7cd0ae4bf217004db3d080cbaee652ca7"
          ],
          "data": "0x00000000000000000000000000000000000000000000000000000000679001280000000000000000000000000000000000000000000000000004c0db9f45614f0000000000000000000000000000000000000000000000000000000001f0a2a5",
          "blockHash": "0x76a1051ec4ead3e2af72b2df8350ce5c90b988c157c08480c105020031d63716",
          "blockNumber": "0x7315b5",
          "transactionHash": "0x7674e1573709d0984ddd0a53df19f89d129fc89f57b7a0fa34032c79151932a5",
          "transactionIndex": "0xc6",
          "logIndex": "0x10f",
          "removed": false
        }
      ],
      "logsBloom": "0x00000000000000000000000000000000000000000600000000000000000000000000000000000000000000000000000000000000000000004000000000000000000000000000004000000008000000000000000000000000000000000000000000000000020000000000000000000800020000000000000000000010000000000000000000000000000000000000000000000000000000000000010000000000000000000000000000000000000000004000000000000000000000000000000000000002000000800000000000000000000000000000080000000000000020000000000000000000000000000000000000000000000000000000000000000000",
      "type": "0x2",
      "transactionHash": "0x7674e1573709d0984ddd0a53df19f89d129fc89f57b7a0fa34032c79151932a5",
      "transactionIndex": "0xc6",
      "blockHash": "0x76a1051ec4ead3e2af72b2df8350ce5c90b988c157c08480c105020031d63716",
      "blockNumber": "0x7315b5",
      "gasUsed": "0xfd1b",
      "effectiveGasPrice": "0x6f5bcd42",
      "from": "0xc77f7fed3b5cc8249adc428c5f44c9063b9734b4",
      "to": "0x8aafd3ede9adb0ff97c7aebce82a919afb1c8764",
      "contractAddress": null
    }
  ],
  "libraries": [],
  "pending": [],
  "returns": {},
  "timestamp": 1737490730,
  "chain": 11155111,
  "commit": "1d2fb70"
}