{
  "transactions": [
    {
      "hash": "0x67dba27099ef68e5bc654b6259d3611dd353c1724a3fd95e7cf54533fca303b5",
      "transactionType": "CALL",
      "contractName": null,
      "contractAddress": "0xa5eb8a42085d0ba183d821fcca7ff67788426f77",
      "function": "leverage(uint256,uint256)",
      "arguments": [
        "10000000000000000000",
        "0"
      ],
      "transaction": {
        "from": "0xc77f7fed3b5cc8249adc428c5f44c9063b9734b4",
        "to": "0xa5eb8a42085d0ba183d821fcca7ff67788426f77",
        "gas": "0x5b055",
        "value": "0x2e6297175944000",
        "input": "0x5e96263c0000000000000000000000000000000000000000000000008ac7230489e800000000000000000000000000000000000000000000000000000000000000000000",
        "nonce": "0x182d",
        "chainId": "0xaa36a7"
      },
      "additionalContracts": [],
      "isFixedGasLimit": false
    }
  ],
  "receipts": [
    {
      "status": "0x1",
      "cumulativeGasUsed": "0xa0ad91",
      "logs": [
        {
          "address": "0xa5eb8a42085d0ba183d821fcca7ff67788426f77",
          "topics": [
            "0xddf252ad1be2c89b69c2b068fc378daa952ba7f163c4a11628f55a4df523b3ef",
            "0x0000000000000000000000000000000000000000000000000000000000000000",
            "0x000000000000000000000000a5eb8a42085d0ba183d821fcca7ff67788426f77"
          ],
          "data": "0x00000000000000000000000000000000000000000000003da00392a2d8f35e70",
          "blockHash": "0x409a400603044ca0c87690ea8d3aad76485371d38874239f68ee932d6a8cb6d3",
          "blockNumber": "0x735014",
          "transactionHash": "0x67dba27099ef68e5bc654b6259d3611dd353c1724a3fd95e7cf54533fca303b5",
          "transactionIndex": "0x5a",
          "logIndex": "0x8d",
          "removed": false
        },
        {
          "address": "0xa5eb8a42085d0ba183d821fcca7ff67788426f77",
          "topics": [
            "0xddf252ad1be2c89b69c2b068fc378daa952ba7f163c4a11628f55a4df523b3ef",
            "0x0000000000000000000000000000000000000000000000000000000000000000",
            "0x000000000000000000000000c77f7fed3b5cc8249adc428c5f44c9063b9734b4"
          ],
          "data": "0x00000000000000000000000000000000000000000000000034a3cf7d4ecad105",
          "blockHash": "0x409a400603044ca0c87690ea8d3aad76485371d38874239f68ee932d6a8cb6d3",
          "blockNumber": "0x735014",
          "transactionHash": "0x67dba27099ef68e5bc654b6259d3611dd353c1724a3fd95e7cf54533fca303b5",
          "transactionIndex": "0x5a",
          "logIndex": "0x8e",
          "removed": false
        },
        {
          "address": "0xa5eb8a42085d0ba183d821fcca7ff67788426f77",
          "topics": [
            "0xaec00f5213a37254bc68a26b0685d1a5b2bf513e1e587c94c7df7f4a62b56c9c"
          ],
          "data": "0x00000000000000000000000000000000000000000000003da00392a2d8f35e7000000000000000000000000000000000000000000000000087e0f9931453c00000000000000000000000000000000000000000000000000087e0f9931453c00000000000000000000000000000000000000000000000003da00392a2d8f35e70",
          "blockHash": "0x409a400603044ca0c87690ea8d3aad76485371d38874239f68ee932d6a8cb6d3",
          "blockNumber": "0x735014",
          "transactionHash": "0x67dba27099ef68e5bc654b6259d3611dd353c1724a3fd95e7cf54533fca303b5",
          "transactionIndex": "0x5a",
          "logIndex": "0x8f",
          "removed": false
        },
        {
          "address": "0xa5eb8a42085d0ba183d821fcca7ff67788426f77",
          "topics": [
            "0x4afcb4a87cdbd9974efdb92ee48bc8d7cd0ae4bf217004db3d080cbaee652ca7"
          ],
          "data": "0x000000000000000000000000000000000000000000000000000000006792cf90000000000000000000000000000000000000000000000000001ee89a998bbff70000000000000000000000000000000000000000000000008ac7230489e80000",
          "blockHash": "0x409a400603044ca0c87690ea8d3aad76485371d38874239f68ee932d6a8cb6d3",
          "blockNumber": "0x735014",
          "transactionHash": "0x67dba27099ef68e5bc654b6259d3611dd353c1724a3fd95e7cf54533fca303b5",
          "transactionIndex": "0x5a",
          "logIndex": "0x90",
          "removed": false
        }
      ],
      "logsBloom": "0x40000000000000000000000000000000400000000008000000000000000000000000000001000000000000000000000000000000000000004000001000000000000000000000000000000008000000000000000000000000000000000000000000000000020000000000000000000800020000000000000000000010000000000000000000000000000000000000000000000000000000000000010000000000000000000000000000000400000000004000000000000000000000001000000000000002100000800000000000000000000000000000080000000000000020000000000000000000000008000000000000000000000000000000000000000000",
      "type": "0x2",
      "transactionHash": "0x67dba27099ef68e5bc654b6259d3611dd353c1724a3fd95e7cf54533fca303b5",
      "transactionIndex": "0x5a",
      "blockHash": "0x409a400603044ca0c87690ea8d3aad76485371d38874239f68ee932d6a8cb6d3",
      "blockNumber": "0x735014",
      "gasUsed": "0x3e3c9",
      "effectiveGasPrice": "0x47f6a1b2",
      "from": "0xc77f7fed3b5cc8249adc428c5f44c9063b9734b4",
      "to": "0xa5eb8a42085d0ba183d821fcca7ff67788426f77",
      "contractAddress": null
    }
  ],
  "libraries": [],
  "pending": [],
  "returns": {},
  "timestamp": 1737674642,
  "chain": 11155111,
  "commit": "f5162e9"
}