{
  "transactions": [
    {
      "hash": "0xef570ea386d55ca0fd01a076d63b2ef37e5d54e594a240f3323b67a401a513a7",
      "transactionType": "CALL",
      "contractName": null,
      "contractAddress": "0xbf4a322f1496e5c3d34a9bcdb4c60567b38c7de2",
      "function": "buy(address)",
      "arguments": [
        "0xC77f7fed3b5Cc8249aDc428c5F44C9063B9734b4"
      ],
      "transaction": {
        "from": "0xc77f7fed3b5cc8249adc428c5f44c9063b9734b4",
        "to": "0xbf4a322f1496e5c3d34a9bcdb4c60567b38c7de2",
        "gas": "0x1b309",
        "value": "0xde0b6b3a7640000",
        "input": "0xf088d547000000000000000000000000c77f7fed3b5cc8249adc428c5f44c9063b9734b4",
        "nonce": "0xb1c",
        "chainId": "0xaa36a7"
      },
      "additionalContracts": [],
      "isFixedGasLimit": false
    }
  ],
  "receipts": [
    {
      "status": "0x1",
      "cumulativeGasUsed": "0x9f6091",
      "logs": [
        {
          "address": "0xbf4a322f1496e5c3d34a9bcdb4c60567b38c7de2",
          "topics": [
            "0xddf252ad1be2c89b69c2b068fc378daa952ba7f163c4a11628f55a4df523b3ef",
            "0x0000000000000000000000000000000000000000000000000000000000000000",
            "0x000000000000000000000000c77f7fed3b5cc8249adc428c5f44c9063b9734b4"
          ],
          "data": "0x00000000000000000000000000000000000000000000003525e195353a644107",
          "blockHash": "0x9ca16f96e29c72d2b276425a25de4717f67809cfd055202ee484411a3fbf3a00",
          "blockNumber": "0x725b17",
          "transactionHash": "0xef570ea386d55ca0fd01a076d63b2ef37e5d54e594a240f3323b67a401a513a7",
          "transactionIndex": "0x46",
          "logIndex": "0x67",
          "removed": false
        },
        {
          "address": "0xbf4a322f1496e5c3d34a9bcdb4c60567b38c7de2",
          "topics": [
            "0xddf252ad1be2c89b69c2b068fc378daa952ba7f163c4a11628f55a4df523b3ef",
            "0x0000000000000000000000000000000000000000000000000000000000000000",
            "0x000000000000000000000000c77f7fed3b5cc8249adc428c5f44c9063b9734b4"
          ],
          "data": "0x00000000000000000000000000000000000000000000000029456e4b18d50327",
          "blockHash": "0x9ca16f96e29c72d2b276425a25de4717f67809cfd055202ee484411a3fbf3a00",
          "blockNumber": "0x725b17",
          "transactionHash": "0xef570ea386d55ca0fd01a076d63b2ef37e5d54e594a240f3323b67a401a513a7",
          "transactionIndex": "0x46",
          "logIndex": "0x68",
          "removed": false
        },
        {
          "address": "0xbf4a322f1496e5c3d34a9bcdb4c60567b38c7de2",
          "topics": [
            "0x4afcb4a87cdbd9974efdb92ee48bc8d7cd0ae4bf217004db3d080cbaee652ca7"
          ],
          "data": "0x000000000000000000000000000000000000000000000000000000006787377000000000000000000000000000000000000000000000000000039667233be8df0000000000000000000000000000000000000000000000000de0b6b3a7640000",
          "blockHash": "0x9ca16f96e29c72d2b276425a25de4717f67809cfd055202ee484411a3fbf3a00",
          "blockNumber": "0x725b17",
          "transactionHash": "0xef570ea386d55ca0fd01a076d63b2ef37e5d54e594a240f3323b67a401a513a7",
          "transactionIndex": "0x46",
          "logIndex": "0x69",
          "removed": false
        }
      ],
      "logsBloom": "0x00000000000000000000000000000000000000000000000000000000000000000000000000000000000000000000000000000000000000004000000000000000000000000000000000000008000000000000001000000000000000000000000000000000020000000000000000000800020000000000000000000010000000000000000000000000000000000000000000000000000008000000010000000000000000000000000000000000000000004000000000000000000000000000000000000002000000800000000000001000000000000000080000000000000020000000000000000000000000000000000000000000000000000000000000000000",
      "type": "0x2",
      "transactionHash": "0xef570ea386d55ca0fd01a076d63b2ef37e5d54e594a240f3323b67a401a513a7",
      "transactionIndex": "0x46",
      "blockHash": "0x9ca16f96e29c72d2b276425a25de4717f67809cfd055202ee484411a3fbf3a00",
      "blockNumber": "0x725b17",
      "gasUsed": "0x13af6",
      "effectiveGasPrice": "0x7b33edff",
      "from": "0xc77f7fed3b5cc8249adc428c5f44c9063b9734b4",
      "to": "0xbf4a322f1496e5c3d34a9bcdb4c60567b38c7de2",
      "contractAddress": null
    }
  ],
  "libraries": [],
  "pending": [],
  "returns": {},
  "timestamp": 1736914801,
  "chain": 11155111,
  "commit": "51a374b"
}