{
  "transactions": [
    {
      "hash": "0xa0e22eebb2981fdc9d19713bc05367af42e27c0371bf7f5d7004851807789e52",
      "transactionType": "CALL",
      "contractName": null,
      "contractAddress": "0x8aafd3ede9adb0ff97c7aebce82a919afb1c8764",
      "function": "sell(uint256)",
      "arguments": [
        "702882223097729636558"
      ],
      "transaction": {
        "from": "0xc77f7fed3b5cc8249adc428c5f44c9063b9734b4",
        "to": "0x8aafd3ede9adb0ff97c7aebce82a919afb1c8764",
        "gas": "0x17270",
        "value": "0x0",
        "input": "0xe4849b320000000000000000000000000000000000000000000000261a7349e0b509d8ce",
        "nonce": "0x10d7",
        "chainId": "0xaa36a7"
      },
      "additionalContracts": [],
      "isFixedGasLimit": false
    }
  ],
  "receipts": [
    {
      "status": "0x1",
      "cumulativeGasUsed": "0xb76899",
      "logs": [
        {
          "address": "0x8aafd3ede9adb0ff97c7aebce82a919afb1c8764",
          "topics": [
            "0xddf252ad1be2c89b69c2b068fc378daa952ba7f163c4a11628f55a4df523b3ef",
            "0x000000000000000000000000c77f7fed3b5cc8249adc428c5f44c9063b9734b4",
            "0x0000000000000000000000000000000000000000000000000000000000000000"
          ],
          "data": "0x000000000000000000000000000000000000000000000025cc6a2c9d5f9f45aa",
          "blockHash": "0xaa072fb03c1e70d1ade30de7da310d9b0a1fdc588700850ea0b3e59021dfdfc4",
          "blockNumber": "0x731777",
          "transactionHash": "0xa0e22eebb2981fdc9d19713bc05367af42e27c0371bf7f5d7004851807789e52",
          "transactionIndex": "0x7d",
          "logIndex": "0x8b",
          "removed": false
        },
        {
          "address": "0x8aafd3ede9adb0ff97c7aebce82a919afb1c8764",
          "topics": [
            "0xddf252ad1be2c89b69c2b068fc378daa952ba7f163c4a11628f55a4df523b3ef",
            "0x000000000000000000000000c77f7fed3b5cc8249adc428c5f44c9063b9734b4",
            "0x000000000000000000000000c77f7fed3b5cc8249adc428c5f44c9063b9734b4"
          ],
          "data": "0x0000000000000000000000000000000000000000000000004e091d43556a9324",
          "blockHash": "0xaa072fb03c1e70d1ade30de7da310d9b0a1fdc588700850ea0b3e59021dfdfc4",
          "blockNumber": "0x731777",
          "transactionHash": "0xa0e22eebb2981fdc9d19713bc05367af42e27c0371bf7f5d7004851807789e52",
          "transactionIndex": "0x7d",
          "logIndex": "0x8c",
          "removed": false
        },
        {
          "address": "0x8aafd3ede9adb0ff97c7aebce82a919afb1c8764",
          "topics": [
            "0x4afcb4a87cdbd9974efdb92ee48bc8d7cd0ae4bf217004db3d080cbaee652ca7"
          ],
          "data": "0x00000000000000000000000000000000000000000000000000000000679016580000000000000000000000000000000000000000000000000005065736d2e16e0000000000000000000000000000000000000000000000000dc8fac7527ca8f8",
          "blockHash": "0xaa072fb03c1e70d1ade30de7da310d9b0a1fdc588700850ea0b3e59021dfdfc4",
          "blockNumber": "0x731777",
          "transactionHash": "0xa0e22eebb2981fdc9d19713bc05367af42e27c0371bf7f5d7004851807789e52",
          "transactionIndex": "0x7d",
          "logIndex": "0x8d",
          "removed": false
        }
      ],
      "logsBloom": "0x00000000000000000000000000000000000000000600000000000000000000000000000000000000000000000000000000000000000000004000000000000000000000000000004000000008000000000000000000000000000000000000000000000000020000000000000000000800020000000000000000000010000000000000000000000000000000000000000000000000000000000000010000000000000000000000000000000000000000004000000000000000000000000000000000000002000000800000000000000000000000000000080000000000000020000000000000000000000000000000000000000000000000000000000000000000",
      "type": "0x2",
      "transactionHash": "0xa0e22eebb2981fdc9d19713bc05367af42e27c0371bf7f5d7004851807789e52",
      "transactionIndex": "0x7d",
      "blockHash": "0xaa072fb03c1e70d1ade30de7da310d9b0a1fdc588700850ea0b3e59021dfdfc4",
      "blockNumber": "0x731777",
      "gasUsed": "0xfd4b",
      "effectiveGasPrice": "0x412b1ea2",
      "from": "0xc77f7fed3b5cc8249adc428c5f44c9063b9734b4",
      "to": "0x8aafd3ede9adb0ff97c7aebce82a919afb1c8764",
      "contractAddress": null
    }
  ],
  "libraries": [],
  "pending": [],
  "returns": {},
  "timestamp": 1737496153,
  "chain": 11155111,
  "commit": "1d2fb70"
}