{
  "transactions": [
    {
      "hash": "0xf1c985ee0d79b56cf0fd32fec6e80361e86f6adf43f953c3c8f905d4ccd2ca38",
      "transactionType": "CALL",
      "contractName": null,
      "contractAddress": "0x5eb9cc76c3506942c1c0ead70e877dd5e4f00cb0",
      "function": "sell(uint256)",
      "arguments": [
        "989114341086313680022"
      ],
      "transaction": {
        "from": "0xc77f7fed3b5cc8249adc428c5f44c9063b9734b4",
        "to": "0x5eb9cc76c3506942c1c0ead70e877dd5e4f00cb0",
        "gas": "0x16fec",
        "value": "0x0",
        "input": "0xe4849b320000000000000000000000000000000000000000000000359eb80caa66498c96",
        "nonce": "0x3a7",
        "chainId": "0xaa36a7"
      },
      "additionalContracts": [],
      "isFixedGasLimit": false
    }
  ],
  "receipts": [
    {
      "status": "0x1",
      "cumulativeGasUsed": "0x9a4c8c",
      "logs": [
        {
          "address": "0x5eb9cc76c3506942c1c0ead70e877dd5e4f00cb0",
          "topics": [
            "0xddf252ad1be2c89b69c2b068fc378daa952ba7f163c4a11628f55a4df523b3ef",
            "0x000000000000000000000000c77f7fed3b5cc8249adc428c5f44c9063b9734b4",
            "0x0000000000000000000000000000000000000000000000000000000000000000"
          ],
          "data": "0x0000000000000000000000000000000000000000000000359eb80caa66498c96",
          "blockHash": "0x6c1fd7a2fc597db057b22d706c9c07b09e3862192030b373d7c771a0fc86e6bb",
          "blockNumber": "0x724fa5",
          "transactionHash": "0xf1c985ee0d79b56cf0fd32fec6e80361e86f6adf43f953c3c8f905d4ccd2ca38",
          "transactionIndex": "0x5e",
          "logIndex": "0x96",
          "removed": false
        },
        {
          "address": "0x5eb9cc76c3506942c1c0ead70e877dd5e4f00cb0",
          "topics": [
            "0x4afcb4a87cdbd9974efdb92ee48bc8d7cd0ae4bf217004db3d080cbaee652ca7"
          ],
          "data": "0x000000000000000000000000000000000000000000000000000000006786ad7c00000000000000000000000000000000000000000000000000039112153d7eff0000000000000000000000000000000000000000000000000dc7db133200f765",
          "blockHash": "0x6c1fd7a2fc597db057b22d706c9c07b09e3862192030b373d7c771a0fc86e6bb",
          "blockNumber": "0x724fa5",
          "transactionHash": "0xf1c985ee0d79b56cf0fd32fec6e80361e86f6adf43f953c3c8f905d4ccd2ca38",
          "transactionIndex": "0x5e",
          "logIndex": "0x97",
          "removed": false
        }
      ],
      "logsBloom": "0x00000000000000000000000000000000000000000000000000000000000000000000000000000000000000000000000000000000000000004000000000000000000000000000000000000008000000000000000000000000000000000000000000000000020000000000000004000800020000000000000000000010000000000000000000000000000000000000000000000000000000000000010000000000000000000000000000000000000000004000000000000000000000000000020000000002000000800000008000000000000000000000080000000000000020000000000000000000000000000000000000000000000000000000000000000000",
      "type": "0x2",
      "transactionHash": "0xf1c985ee0d79b56cf0fd32fec6e80361e86f6adf43f953c3c8f905d4ccd2ca38",
      "transactionIndex": "0x5e",
      "blockHash": "0x6c1fd7a2fc597db057b22d706c9c07b09e3862192030b373d7c771a0fc86e6bb",
      "blockNumber": "0x724fa5",
      "gasUsed": "0xfb93",
      "effectiveGasPrice": "0x4df354ba5",
      "from": "0xc77f7fed3b5cc8249adc428c5f44c9063b9734b4",
      "to": "0x5eb9cc76c3506942c1c0ead70e877dd5e4f00cb0",
      "contractAddress": null
    }
  ],
  "libraries": [],
  "pending": [],
  "returns": {},
  "timestamp": 1736879485,
  "chain": 11155111,
  "commit": "51a374b"
}