{
  "transactions": [
    {
      "hash": "0x7baa490d61c3ed1cb4062a705a4135f6752fdb98644f85b1c037113741902400",
      "transactionType": "CALL",
      "contractName": null,
      "contractAddress": "0xbf4a322f1496e5c3d34a9bcdb4c60567b38c7de2",
      "function": "buy(address)",
      "arguments": [
        "0xC77f7fed3b5Cc8249aDc428c5F44C9063B9734b4"
      ],
      "transaction": {
        "from": "0xc77f7fed3b5cc8249adc428c5f44c9063b9734b4",
        "to": "0xbf4a322f1496e5c3d34a9bcdb4c60567b38c7de2",
        "gas": "0x1b309",
        "value": "0xde0b6b3a7640000",
        "input": "0xf088d547000000000000000000000000c77f7fed3b5cc8249adc428c5f44c9063b9734b4",
        "nonce": "0xd1c",
        "chainId": "0xaa36a7"
      },
      "additionalContracts": [],
      "isFixedGasLimit": false
    }
  ],
  "receipts": [
    {
      "status": "0x1",
      "cumulativeGasUsed": "0x14125b6",
      "logs": [
        {
          "address": "0xbf4a322f1496e5c3d34a9bcdb4c60567b38c7de2",
          "topics": [
            "0xddf252ad1be2c89b69c2b068fc378daa952ba7f163c4a11628f55a4df523b3ef",
            "0x0000000000000000000000000000000000000000000000000000000000000000",
            "0x000000000000000000000000c77f7fed3b5cc8249adc428c5f44c9063b9734b4"
          ],
          "data": "0x000000000000000000000000000000000000000000000034c6c7c08b2024e8cc",
          "blockHash": "0x566491a8eb13f6a0eceb084a0316ccd93f182147fb7d11cb40163d18eed3a7b9",
          "blockNumber": "0x725d79",
          "transactionHash": "0x7baa490d61c3ed1cb4062a705a4135f6752fdb98644f85b1c037113741902400",
          "transactionIndex": "0x87",
          "logIndex": "0x11c",
          "removed": false
        },
        {
          "address": "0xbf4a322f1496e5c3d34a9bcdb4c60567b38c7de2",
          "topics": [
            "0xddf252ad1be2c89b69c2b068fc378daa952ba7f163c4a11628f55a4df523b3ef",
            "0x0000000000000000000000000000000000000000000000000000000000000000",
            "0x000000000000000000000000c77f7fed3b5cc8249adc428c5f44c9063b9734b4"
          ],
          "data": "0x00000000000000000000000000000000000000000000000028fb94ece4660638",
          "blockHash": "0x566491a8eb13f6a0eceb084a0316ccd93f182147fb7d11cb40163d18eed3a7b9",
          "blockNumber": "0x725d79",
          "transactionHash": "0x7baa490d61c3ed1cb4062a705a4135f6752fdb98644f85b1c037113741902400",
          "transactionIndex": "0x87",
          "logIndex": "0x11d",
          "removed": false
        },
        {
          "address": "0xbf4a322f1496e5c3d34a9bcdb4c60567b38c7de2",
          "topics": [
            "0x4afcb4a87cdbd9974efdb92ee48bc8d7cd0ae4bf217004db3d080cbaee652ca7"
          ],
          "data": "0x000000000000000000000000000000000000000000000000000000006787542000000000000000000000000000000000000000000000000000039cde0af4507b0000000000000000000000000000000000000000000000000de0b6b3a7640000",
          "blockHash": "0x566491a8eb13f6a0eceb084a0316ccd93f182147fb7d11cb40163d18eed3a7b9",
          "blockNumber": "0x725d79",
          "transactionHash": "0x7baa490d61c3ed1cb4062a705a4135f6752fdb98644f85b1c037113741902400",
          "transactionIndex": "0x87",
          "logIndex": "0x11e",
          "removed": false
        }
      ],
      "logsBloom": "0x00000000000000000000000000000000000000000000000000000000000000000000000000000000000000000000000000000000000000004000000000000000000000000000000000000008000000000000001000000000000000000000000000000000020000000000000000000800020000000000000000000010000000000000000000000000000000000000000000000000000008000000010000000000000000000000000000000000000000004000000000000000000000000000000000000002000000800000000000001000000000000000080000000000000020000000000000000000000000000000000000000000000000000000000000000000",
      "type": "0x2",
      "transactionHash": "0x7baa490d61c3ed1cb4062a705a4135f6752fdb98644f85b1c037113741902400",
      "transactionIndex": "0x87",
      "blockHash": "0x566491a8eb13f6a0eceb084a0316ccd93f182147fb7d11cb40163d18eed3a7b9",
      "blockNumber": "0x725d79",
      "gasUsed": "0x13af6",
      "effectiveGasPrice": "0x22cacee4f",
      "from": "0xc77f7fed3b5cc8249adc428c5f44c9063b9734b4",
      "to": "0xbf4a322f1496e5c3d34a9bcdb4c60567b38c7de2",
      "contractAddress": null
    }
  ],
  "libraries": [],
  "pending": [],
  "returns": {},
  "timestamp": 1736922145,
  "chain": 11155111,
  "commit": "51a374b"
}