{
  "transactions": [
    {
      "hash": "0x1c017c78445fd4bcc7fadf24d9ffbd07375a573b4dcdf9c4bf52edadf45e5a14",
      "transactionType": "CALL",
      "contractName": null,
      "contractAddress": "0x270e88f8683660553e8ba4eb2ad7c91a1710d769",
      "function": "sell(uint256)",
      "arguments": [
        "747465220707279339014"
      ],
      "transaction": {
        "from": "0xc77f7fed3b5cc8249adc428c5f44c9063b9734b4",
        "to": "0x270e88f8683660553e8ba4eb2ad7c91a1710d769",
        "gas": "0x16fec",
        "value": "0x0",
        "input": "0xe4849b320000000000000000000000000000000000000000000000288529e9fe28567e06",
        "nonce": "0x6e8",
        "chainId": "0xaa36a7"
      },
      "additionalContracts": [],
      "isFixedGasLimit": false
    }
  ],
  "receipts": [
    {
      "status": "0x1",
      "cumulativeGasUsed": "0xd699f9",
      "logs": [
        {
          "address": "0x270e88f8683660553e8ba4eb2ad7c91a1710d769",
          "topics": [
            "0xddf252ad1be2c89b69c2b068fc378daa952ba7f163c4a11628f55a4df523b3ef",
            "0x000000000000000000000000c77f7fed3b5cc8249adc428c5f44c9063b9734b4",
            "0x0000000000000000000000000000000000000000000000000000000000000000"
          ],
          "data": "0x0000000000000000000000000000000000000000000000288529e9fe28567e06",
          "blockHash": "0x706a58563b7a950531c5d44175da47d5149e9051f0ebd5e34d03f834bd74e201",
          "blockNumber": "0x7253fb",
          "transactionHash": "0x1c017c78445fd4bcc7fadf24d9ffbd07375a573b4dcdf9c4bf52edadf45e5a14",
          "transactionIndex": "0x57",
          "logIndex": "0x94",
          "removed": false
        },
        {
          "address": "0x270e88f8683660553e8ba4eb2ad7c91a1710d769",
          "topics": [
            "0x4afcb4a87cdbd9974efdb92ee48bc8d7cd0ae4bf217004db3d080cbaee652ca7"
          ],
          "data": "0x000000000000000000000000000000000000000000000000000000006786e1cc0000000000000000000000000000000000000000000000000004b88d15852ac20000000000000000000000000000000000000000000000000dc82945bc712762",
          "blockHash": "0x706a58563b7a950531c5d44175da47d5149e9051f0ebd5e34d03f834bd74e201",
          "blockNumber": "0x7253fb",
          "transactionHash": "0x1c017c78445fd4bcc7fadf24d9ffbd07375a573b4dcdf9c4bf52edadf45e5a14",
          "transactionIndex": "0x57",
          "logIndex": "0x95",
          "removed": false
        }
      ],
      "logsBloom": "0x00000000000000000000000000000000000000000000000000000000000000000000000000000000000000000000000020000000000000004000000000000000000000000000000000000008000000000000000000000000000000000000000000000000020000000000000000000800020000000000000000000010000000000000000000010000000000000000000000000000000000000000010000000000000000000000000000000000000000004000000000000000000000000000000000000002000000800000000000000000000000000000080000008000000020000000000000000000000000000000000000000000000000000000000000000000",
      "type": "0x2",
      "transactionHash": "0x1c017c78445fd4bcc7fadf24d9ffbd07375a573b4dcdf9c4bf52edadf45e5a14",
      "transactionIndex": "0x57",
      "blockHash": "0x706a58563b7a950531c5d44175da47d5149e9051f0ebd5e34d03f834bd74e201",
      "blockNumber": "0x7253fb",
      "gasUsed": "0xfb93",
      "effectiveGasPrice": "0x157a5b137",
      "from": "0xc77f7fed3b5cc8249adc428c5f44c9063b9734b4",
      "to": "0x270e88f8683660553e8ba4eb2ad7c91a1710d769",
      "contractAddress": null
    }
  ],
  "libraries": [],
  "pending": [],
  "returns": {},
  "timestamp": 1736892877,
  "chain": 11155111,
  "commit": "51a374b"
}