{
  "transactions": [
    {
      "hash": "0x567103b22ff84f9c54056ebe384c4db4d1e66c6c359ddacfcc904a38813390cd",
      "transactionType": "CALL",
      "contractName": null,
      "contractAddress": "0x8aafd3ede9adb0ff97c7aebce82a919afb1c8764",
      "function": "sell(uint256)",
      "arguments": [
        "16987570960589754"
      ],
      "transaction": {
        "from": "0xc77f7fed3b5cc8249adc428c5f44c9063b9734b4",
        "to": "0x8aafd3ede9adb0ff97c7aebce82a919afb1c8764",
        "gas": "0x1724d",
        "value": "0x0",
        "input": "0xe4849b32000000000000000000000000000000000000000000000000003c5a1b14b3e3ba",
        "nonce": "0x13bd",
        "chainId": "0xaa36a7"
      },
      "additionalContracts": [],
      "isFixedGasLimit": false
    }
  ],
  "receipts": [
    {
      "status": "0x1",
      "cumulativeGasUsed": "0x1bd4b0d",
      "logs": [
        {
          "address": "0x8aafd3ede9adb0ff97c7aebce82a919afb1c8764",
          "topics": [
            "0xddf252ad1be2c89b69c2b068fc378daa952ba7f163c4a11628f55a4df523b3ef",
            "0x000000000000000000000000c77f7fed3b5cc8249adc428c5f44c9063b9734b4",
            "0x0000000000000000000000000000000000000000000000000000000000000000"
          ],
          "data": "0x000000000000000000000000000000000000000000000000003bde8143a41d4c",
          "blockHash": "0x596eb4f9769bd90399808b498d619b225c2bd6ca9dd80afbfb0d59a145da8e0c",
          "blockNumber": "0x731ae8",
          "transactionHash": "0x567103b22ff84f9c54056ebe384c4db4d1e66c6c359ddacfcc904a38813390cd",
          "transactionIndex": "0xe5",
          "logIndex": "0x148",
          "removed": false
        },
        {
          "address": "0x8aafd3ede9adb0ff97c7aebce82a919afb1c8764",
          "topics": [
            "0xddf252ad1be2c89b69c2b068fc378daa952ba7f163c4a11628f55a4df523b3ef",
            "0x000000000000000000000000c77f7fed3b5cc8249adc428c5f44c9063b9734b4",
            "0x000000000000000000000000c77f7fed3b5cc8249adc428c5f44c9063b9734b4"
          ],
          "data": "0x00000000000000000000000000000000000000000000000000007b99d10fc66e",
          "blockHash": "0x596eb4f9769bd90399808b498d619b225c2bd6ca9dd80afbfb0d59a145da8e0c",
          "blockNumber": "0x731ae8",
          "transactionHash": "0x567103b22ff84f9c54056ebe384c4db4d1e66c6c359ddacfcc904a38813390cd",
          "transactionIndex": "0xe5",
          "logIndex": "0x149",
          "removed": false
        },
        {
          "address": "0x8aafd3ede9adb0ff97c7aebce82a919afb1c8764",
          "topics": [
            "0x4afcb4a87cdbd9974efdb92ee48bc8d7cd0ae4bf217004db3d080cbaee652ca7"
          ],
          "data": "0x0000000000000000000000000000000000000000000000000000000067903fb0000000000000000000000000000000000000000000000000000d64b02425a67a00000000000000000000000000000000000000000000000000003a3ebc3cd1e3",
          "blockHash": "0x596eb4f9769bd90399808b498d619b225c2bd6ca9dd80afbfb0d59a145da8e0c",
          "blockNumber": "0x731ae8",
          "transactionHash": "0x567103b22ff84f9c54056ebe384c4db4d1e66c6c359ddacfcc904a38813390cd",
          "transactionIndex": "0xe5",
          "logIndex": "0x14a",
          "removed": false
        }
      ],
      "logsBloom": "0x00000000000000000000000000000000000000000600000000000000000000000000000000000000000000000000000000000000000000004000000000000000000000000000004000000008000000000000000000000000000000000000000000000000020000000000000000000800020000000000000000000010000000000000000000000000000000000000000000000000000000000000010000000000000000000000000000000000000000004000000000000000000000000000000000000002000000800000000000000000000000000000080000000000000020000000000000000000000000000000000000000000000000000000000000000000",
      "type": "0x2",
      "transactionHash": "0x567103b22ff84f9c54056ebe384c4db4d1e66c6c359ddacfcc904a38813390cd",
      "transactionIndex": "0xe5",
      "blockHash": "0x596eb4f9769bd90399808b498d619b225c2bd6ca9dd80afbfb0d59a145da8e0c",
      "blockNumber": "0x731ae8",
      "gasUsed": "0xfd33",
      "effectiveGasPrice": "0x7e54b529",
      "from": "0xc77f7fed3b5cc8249adc428c5f44c9063b9734b4",
      "to": "0x8aafd3ede9adb0ff97c7aebce82a919afb1c8764",
      "contractAddress": null
    }
  ],
  "libraries": [],
  "pending": [],
  "returns": {},
  "timestamp": 1737506737,
  "chain": 11155111,
  "commit": "1d2fb70"
}