{
  "transactions": [
    {
      "hash": "0x27bf45197e792e094afbd5cec8f4cbc7e192bfd555234e593d47bdc716f6f2bc",
      "transactionType": "CALL",
      "contractName": null,
      "contractAddress": "0x8aafd3ede9adb0ff97c7aebce82a919afb1c8764",
      "function": "sell(uint256)",
      "arguments": [
        "1929901251147917383"
      ],
      "transaction": {
        "from": "0xc77f7fed3b5cc8249adc428c5f44c9063b9734b4",
        "to": "0x8aafd3ede9adb0ff97c7aebce82a919afb1c8764",
        "gas": "0x15dca",
        "value": "0x0",
        "input": "0xe4849b320000000000000000000000000000000000000000000000001ac862f67e40e847",
        "nonce": "0x1431",
        "chainId": "0xaa36a7"
      },
      "additionalContracts": [],
      "isFixedGasLimit": false
    }
  ],
  "receipts": [
    {
      "status": "0x1",
      "cumulativeGasUsed": "0x102f51d",
      "logs": [
        {
          "address": "0x8aafd3ede9adb0ff97c7aebce82a919afb1c8764",
          "topics": [
            "0xddf252ad1be2c89b69c2b068fc378daa952ba7f163c4a11628f55a4df523b3ef",
            "0x000000000000000000000000c77f7fed3b5cc8249adc428c5f44c9063b9734b4",
            "0x0000000000000000000000000000000000000000000000000000000000000000"
          ],
          "data": "0x0000000000000000000000000000000000000000000000001a9189154a0b23dc",
          "blockHash": "0x83de3dcb84273834599e8deda63b5c3129a91caae6593caae09ca2d5a9b3f87c",
          "blockNumber": "0x731b6f",
          "transactionHash": "0x27bf45197e792e094afbd5cec8f4cbc7e192bfd555234e593d47bdc716f6f2bc",
          "transactionIndex": "0x9a",
          "logIndex": "0x78",
          "removed": false
        },
        {
          "address": "0x8aafd3ede9adb0ff97c7aebce82a919afb1c8764",
          "topics": [
            "0xddf252ad1be2c89b69c2b068fc378daa952ba7f163c4a11628f55a4df523b3ef",
            "0x000000000000000000000000c77f7fed3b5cc8249adc428c5f44c9063b9734b4",
            "0x000000000000000000000000c77f7fed3b5cc8249adc428c5f44c9063b9734b4"
          ],
          "data": "0x0000000000000000000000000000000000000000000000000036d9e13435c46b",
          "blockHash": "0x83de3dcb84273834599e8deda63b5c3129a91caae6593caae09ca2d5a9b3f87c",
          "blockNumber": "0x731b6f",
          "transactionHash": "0x27bf45197e792e094afbd5cec8f4cbc7e192bfd555234e593d47bdc716f6f2bc",
          "transactionIndex": "0x9a",
          "logIndex": "0x79",
          "removed": false
        },
        {
          "address": "0x8aafd3ede9adb0ff97c7aebce82a919afb1c8764",
          "topics": [
            "0x4afcb4a87cdbd9974efdb92ee48bc8d7cd0ae4bf217004db3d080cbaee652ca7"
          ],
          "data": "0x0000000000000000000000000000000000000000000000000000000067904610000000000000000000000000000000000000000000000000000eba10b2f8037a000000000000000000000000000000000000000000000000001c6b8b53df7d41",
          "blockHash": "0x83de3dcb84273834599e8deda63b5c3129a91caae6593caae09ca2d5a9b3f87c",
          "blockNumber": "0x731b6f",
          "transactionHash": "0x27bf45197e792e094afbd5cec8f4cbc7e192bfd555234e593d47bdc716f6f2bc",
          "transactionIndex": "0x9a",
          "logIndex": "0x7a",
          "removed": false
        }
      ],
      "logsBloom": "0x00000000000000000000000000000000000000000600000000000000000000000000000000000000000000000000000000000000000000004000000000000000000000000000004000000008000000000000000000000000000000000000000000000000020000000000000000000800020000000000000000000010000000000000000000000000000000000000000000000000000000000000010000000000000000000000000000000000000000004000000000000000000000000000000000000002000000800000000000000000000000000000080000000000000020000000000000000000000000000000000000000000000000000000000000000000",
      "type": "0x2",
      "transactionHash": "0x27bf45197e792e094afbd5cec8f4cbc7e192bfd555234e593d47bdc716f6f2bc",
      "transactionIndex": "0x9a",
      "blockHash": "0x83de3dcb84273834599e8deda63b5c3129a91caae6593caae09ca2d5a9b3f87c",
      "blockNumber": "0x731b6f",
      "gasUsed": "0xfd3f",
      "effectiveGasPrice": "0x109f31942",
      "from": "0xc77f7fed3b5cc8249adc428c5f44c9063b9734b4",
      "to": "0x8aafd3ede9adb0ff97c7aebce82a919afb1c8764",
      "contractAddress": null
    }
  ],
  "libraries": [],
  "pending": [],
  "returns": {},
  "timestamp": 1737508368,
  "chain": 11155111,
  "commit": "1d2fb70"
}