{
  "transactions": [
    {
      "hash": "0xddfa0b59f1164d0fa09d7ab40c5a0147f6aec540efb92a956a2fbceacd2b32f4",
      "transactionType": "CALL",
      "contractName": null,
      "contractAddress": "0x270e88f8683660553e8ba4eb2ad7c91a1710d769",
      "function": "sell(uint256)",
      "arguments": [
        "736396057900399381741"
      ],
      "transaction": {
        "from": "0xc77f7fed3b5cc8249adc428c5f44c9063b9734b4",
        "to": "0x270e88f8683660553e8ba4eb2ad7c91a1710d769",
        "gas": "0x16fec",
        "value": "0x0",
        "input": "0xe4849b32000000000000000000000000000000000000000000000027eb8c59111f4acced",
        "nonce": "0x764",
        "chainId": "0xaa36a7"
      },
      "additionalContracts": [],
      "isFixedGasLimit": false
    }
  ],
  "receipts": [
    {
      "status": "0x1",
      "cumulativeGasUsed": "0x1160c28",
      "logs": [
        {
          "address": "0x270e88f8683660553e8ba4eb2ad7c91a1710d769",
          "topics": [
            "0xddf252ad1be2c89b69c2b068fc378daa952ba7f163c4a11628f55a4df523b3ef",
            "0x000000000000000000000000c77f7fed3b5cc8249adc428c5f44c9063b9734b4",
            "0x0000000000000000000000000000000000000000000000000000000000000000"
          ],
          "data": "0x000000000000000000000000000000000000000000000027eb8c59111f4acced",
          "blockHash": "0x37c3e8cc053a15a866246176526815a491f65346e77697b3018704817680804e",
          "blockNumber": "0x72548d",
          "transactionHash": "0xddfa0b59f1164d0fa09d7ab40c5a0147f6aec540efb92a956a2fbceacd2b32f4",
          "transactionIndex": "0x48",
          "logIndex": "0x82",
          "removed": false
        },
        {
          "address": "0x270e88f8683660553e8ba4eb2ad7c91a1710d769",
          "topics": [
            "0x4afcb4a87cdbd9974efdb92ee48bc8d7cd0ae4bf217004db3d080cbaee652ca7"
          ],
          "data": "0x000000000000000000000000000000000000000000000000000000006786e8a40000000000000000000000000000000000000000000000000004cab68ded7b410000000000000000000000000000000000000000000000000dc828207bfbd12e",
          "blockHash": "0x37c3e8cc053a15a866246176526815a491f65346e77697b3018704817680804e",
          "blockNumber": "0x72548d",
          "transactionHash": "0xddfa0b59f1164d0fa09d7ab40c5a0147f6aec540efb92a956a2fbceacd2b32f4",
          "transactionIndex": "0x48",
          "logIndex": "0x83",
          "removed": false
        }
      ],
      "logsBloom": "0x00000000000000000000000000000000000000000000000000000000000000000000000000000000000000000000000020000000000000004000000000000000000000000000000000000008000000000000000000000000000000000000000000000000020000000000000000000800020000000000000000000010000000000000000000010000000000000000000000000000000000000000010000000000000000000000000000000000000000004000000000000000000000000000000000000002000000800000000000000000000000000000080000008000000020000000000000000000000000000000000000000000000000000000000000000000",
      "type": "0x2",
      "transactionHash": "0xddfa0b59f1164d0fa09d7ab40c5a0147f6aec540efb92a956a2fbceacd2b32f4",
      "transactionIndex": "0x48",
      "blockHash": "0x37c3e8cc053a15a866246176526815a491f65346e77697b3018704817680804e",
      "blockNumber": "0x72548d",
      "gasUsed": "0xfb93",
      "effectiveGasPrice": "0x14670288e",
      "from": "0xc77f7fed3b5cc8249adc428c5f44c9063b9734b4",
      "to": "0x270e88f8683660553e8ba4eb2ad7c91a1710d769",
      "contractAddress": null
    }
  ],
  "libraries": [],
  "pending": [],
  "returns": {},
  "timestamp": 1736894629,
  "chain": 11155111,
  "commit": "51a374b"
}