{
  "transactions": [
    {
      "hash": "0x998f4959443ca64a96290dfbc6c3c0293366d9f144ac03fa5b20f1fd07dfb442",
      "transactionType": "CALL",
      "contractName": null,
      "contractAddress": "0x270e88f8683660553e8ba4eb2ad7c91a1710d769",
      "function": "sell(uint256)",
      "arguments": [
        "710922359769618361061"
      ],
      "transaction": {
        "from": "0xc77f7fed3b5cc8249adc428c5f44c9063b9734b4",
        "to": "0x270e88f8683660553e8ba4eb2ad7c91a1710d769",
        "gas": "0x16fec",
        "value": "0x0",
        "input": "0xe4849b320000000000000000000000000000000000000000000000268a079795168eaae5",
        "nonce": "0x890",
        "chainId": "0xaa36a7"
      },
      "additionalContracts": [],
      "isFixedGasLimit": false
    }
  ],
  "receipts": [
    {
      "status": "0x1",
      "cumulativeGasUsed": "0x6cb34f",
      "logs": [
        {
          "address": "0x270e88f8683660553e8ba4eb2ad7c91a1710d769",
          "topics": [
            "0xddf252ad1be2c89b69c2b068fc378daa952ba7f163c4a11628f55a4df523b3ef",
            "0x000000000000000000000000c77f7fed3b5cc8249adc428c5f44c9063b9734b4",
            "0x0000000000000000000000000000000000000000000000000000000000000000"
          ],
          "data": "0x0000000000000000000000000000000000000000000000268a079795168eaae5",
          "blockHash": "0xaec7a2e80e6605a369ec1ea918abaaef2c2542e225918609eb89b82c06915818",
          "blockNumber": "0x7255ed",
          "transactionHash": "0x998f4959443ca64a96290dfbc6c3c0293366d9f144ac03fa5b20f1fd07dfb442",
          "transactionIndex": "0x45",
          "logIndex": "0x6d",
          "removed": false
        },
        {
          "address": "0x270e88f8683660553e8ba4eb2ad7c91a1710d769",
          "topics": [
            "0x4afcb4a87cdbd9974efdb92ee48bc8d7cd0ae4bf217004db3d080cbaee652ca7"
          ],
          "data": "0x000000000000000000000000000000000000000000000000000000006786f9240000000000000000000000000000000000000000000000000004f6a879e0a8e00000000000000000000000000000000000000000000000000dc8257d3628ccf1",
          "blockHash": "0xaec7a2e80e6605a369ec1ea918abaaef2c2542e225918609eb89b82c06915818",
          "blockNumber": "0x7255ed",
          "transactionHash": "0x998f4959443ca64a96290dfbc6c3c0293366d9f144ac03fa5b20f1fd07dfb442",
          "transactionIndex": "0x45",
          "logIndex": "0x6e",
          "removed": false
        }
      ],
      "logsBloom": "0x00000000000000000000000000000000000000000000000000000000000000000000000000000000000000000000000020000000000000004000000000000000000000000000000000000008000000000000000000000000000000000000000000000000020000000000000000000800020000000000000000000010000000000000000000010000000000000000000000000000000000000000010000000000000000000000000000000000000000004000000000000000000000000000000000000002000000800000000000000000000000000000080000008000000020000000000000000000000000000000000000000000000000000000000000000000",
      "type": "0x2",
      "transactionHash": "0x998f4959443ca64a96290dfbc6c3c0293366d9f144ac03fa5b20f1fd07dfb442",
      "transactionIndex": "0x45",
      "blockHash": "0xaec7a2e80e6605a369ec1ea918abaaef2c2542e225918609eb89b82c06915818",
      "blockNumber": "0x7255ed",
      "gasUsed": "0xfb93",
      "effectiveGasPrice": "0xc75fdcff",
      "from": "0xc77f7fed3b5cc8249adc428c5f44c9063b9734b4",
      "to": "0x270e88f8683660553e8ba4eb2ad7c91a1710d769",
      "contractAddress": null
    }
  ],
  "libraries": [],
  "pending": [],
  "returns": {},
  "timestamp": 1736898853,
  "chain": 11155111,
  "commit": "51a374b"
}