{
  "transactions": [
    {
      "hash": "0xeb777a5a539f59304dd92312d93724c473836e1edf523a27299a0beae5262cb9",
      "transactionType": "CALL",
      "contractName": null,
      "contractAddress": "0x270e88f8683660553e8ba4eb2ad7c91a1710d769",
      "function": "buy(address)",
      "arguments": [
        "0xC77f7fed3b5Cc8249aDc428c5F44C9063B9734b4"
      ],
      "transaction": {
        "from": "0xc77f7fed3b5cc8249adc428c5f44c9063b9734b4",
        "to": "0x270e88f8683660553e8ba4eb2ad7c91a1710d769",
        "gas": "0x1b30c",
        "value": "0xde0b6b3a7640000",
        "input": "0xf088d547000000000000000000000000c77f7fed3b5cc8249adc428c5f44c9063b9734b4",
        "nonce": "0x86f",
        "chainId": "0xaa36a7"
      },
      "additionalContracts": [],
      "isFixedGasLimit": false
    }
  ],
  "receipts": [
    {
      "status": "0x1",
      "cumulativeGasUsed": "0x191c3b7",
      "logs": [
        {
          "address": "0x270e88f8683660553e8ba4eb2ad7c91a1710d769",
          "topics": [
            "0xddf252ad1be2c89b69c2b068fc378daa952ba7f163c4a11628f55a4df523b3ef",
            "0x0000000000000000000000000000000000000000000000000000000000000000",
            "0x000000000000000000000000c77f7fed3b5cc8249adc428c5f44c9063b9734b4"
          ],
          "data": "0x000000000000000000000000000000000000000000000026909fc5d72c6d7537",
          "blockHash": "0xa385403629aa7a06559529d72f892242c22ab5b0676b42a07fbda498f8f46ce7",
          "blockNumber": "0x7255c6",
          "transactionHash": "0xeb777a5a539f59304dd92312d93724c473836e1edf523a27299a0beae5262cb9",
          "transactionIndex": "0x4b",
          "logIndex": "0x192",
          "removed": false
        },
        {
          "address": "0x270e88f8683660553e8ba4eb2ad7c91a1710d769",
          "topics": [
            "0xddf252ad1be2c89b69c2b068fc378daa952ba7f163c4a11628f55a4df523b3ef",
            "0x0000000000000000000000000000000000000000000000000000000000000000",
            "0x000000000000000000000000c77f7fed3b5cc8249adc428c5f44c9063b9734b4"
          ],
          "data": "0x0000000000000000000000000000000000000000000000001df26debabb5c0f1",
          "blockHash": "0xa385403629aa7a06559529d72f892242c22ab5b0676b42a07fbda498f8f46ce7",
          "blockNumber": "0x7255c6",
          "transactionHash": "0xeb777a5a539f59304dd92312d93724c473836e1edf523a27299a0beae5262cb9",
          "transactionIndex": "0x4b",
          "logIndex": "0x193",
          "removed": false
        },
        {
          "address": "0x270e88f8683660553e8ba4eb2ad7c91a1710d769",
          "topics": [
            "0x4afcb4a87cdbd9974efdb92ee48bc8d7cd0ae4bf217004db3d080cbaee652ca7"
          ],
          "data": "0x000000000000000000000000000000000000000000000000000000006786f7500000000000000000000000000000000000000000000000000004f1c83c1abcfc0000000000000000000000000000000000000000000000000de0b6b3a7640000",
          "blockHash": "0xa385403629aa7a06559529d72f892242c22ab5b0676b42a07fbda498f8f46ce7",
          "blockNumber": "0x7255c6",
          "transactionHash": "0xeb777a5a539f59304dd92312d93724c473836e1edf523a27299a0beae5262cb9",
          "transactionIndex": "0x4b",
          "logIndex": "0x194",
          "removed": false
        }
      ],
      "logsBloom": "0x00000000000000000000000000000000000000000000000000000000000000000000000000000000000000000000000020000000000000004000000000000000000000000000000000000008000000000000000000000000000000000000000000000000020000000000000000000800020000000000000000000010000000000000000000010000000000000000000000000000000000000000010000000000000000000000000000000000000000004000000000000000000000000000000000000002000000800000000000000000000000000000080000008000000020000000000000000000000000000000000000000000000000000000000000000000",
      "type": "0x2",
      "transactionHash": "0xeb777a5a539f59304dd92312d93724c473836e1edf523a27299a0beae5262cb9",
      "transactionIndex": "0x4b",
      "blockHash": "0xa385403629aa7a06559529d72f892242c22ab5b0676b42a07fbda498f8f46ce7",
      "blockNumber": "0x7255c6",
      "gasUsed": "0x13af8",
      "effectiveGasPrice": "0x96390e0e",
      "from": "0xc77f7fed3b5cc8249adc428c5f44c9063b9734b4",
      "to": "0x270e88f8683660553e8ba4eb2ad7c91a1710d769",
      "contractAddress": null
    }
  ],
  "libraries": [],
  "pending": [],
  "returns": {},
  "timestamp": 1736898385,
  "chain": 11155111,
  "commit": "51a374b"
}