{
  "transactions": [
    {
      "hash": "0x8b351ad18f2d4806043c29008a761d0c7f4e5dd137b8b0435346f209407ef89a",
      "transactionType": "CALL",
      "contractName": null,
      "contractAddress": "0xbf4a322f1496e5c3d34a9bcdb4c60567b38c7de2",
      "function": "sell(uint256)",
      "arguments": [
        "986065099779955383284"
      ],
      "transaction": {
        "from": "0xc77f7fed3b5cc8249adc428c5f44c9063b9734b4",
        "to": "0xbf4a322f1496e5c3d34a9bcdb4c60567b38c7de2",
        "gas": "0x16fea",
        "value": "0x0",
        "input": "0xe4849b320000000000000000000000000000000000000000000000357466f7da625a5bf4",
        "nonce": "0xa57",
        "chainId": "0xaa36a7"
      },
      "additionalContracts": [],
      "isFixedGasLimit": false
    }
  ],
  "receipts": [
    {
      "status": "0x1",
      "cumulativeGasUsed": "0xa916ad",
      "logs": [
        {
          "address": "0xbf4a322f1496e5c3d34a9bcdb4c60567b38c7de2",
          "topics": [
            "0xddf252ad1be2c89b69c2b068fc378daa952ba7f163c4a11628f55a4df523b3ef",
            "0x000000000000000000000000c77f7fed3b5cc8249adc428c5f44c9063b9734b4",
            "0x0000000000000000000000000000000000000000000000000000000000000000"
          ],
          "data": "0x0000000000000000000000000000000000000000000000357466f7da625a5bf4",
          "blockHash": "0xb4bb98f803408dbe4bd5c6ca29c5630b3d63d22a51b2a95ceb242e59a630dd21",
          "blockNumber": "0x725a30",
          "transactionHash": "0x8b351ad18f2d4806043c29008a761d0c7f4e5dd137b8b0435346f209407ef89a",
          "transactionIndex": "0x5b",
          "logIndex": "0xbb",
          "removed": false
        },
        {
          "address": "0xbf4a322f1496e5c3d34a9bcdb4c60567b38c7de2",
          "topics": [
            "0x4afcb4a87cdbd9974efdb92ee48bc8d7cd0ae4bf217004db3d080cbaee652ca7"
          ],
          "data": "0x0000000000000000000000000000000000000000000000000000000067872c90000000000000000000000000000000000000000000000000000393eb4ae258b20000000000000000000000000000000000000000000000000dc7e3f02af17e5b",
          "blockHash": "0xb4bb98f803408dbe4bd5c6ca29c5630b3d63d22a51b2a95ceb242e59a630dd21",
          "blockNumber": "0x725a30",
          "transactionHash": "0x8b351ad18f2d4806043c29008a761d0c7f4e5dd137b8b0435346f209407ef89a",
          "transactionIndex": "0x5b",
          "logIndex": "0xbc",
          "removed": false
        }
      ],
      "logsBloom": "0x00000000000000000000000000000000000000000000000000000000000000000000000000000000000000000000000000000000000000004000000000000000000000000000000000000008000000000000001000000000000000000000000000000000020000000000000000000800020000000000000000000010000000000000000000000000000000000000000000000000000008000000010000000000000000000000000000000000000000004000000000000000000000000000000000000002000000800000000000001000000000000000080000000000000020000000000000000000000000000000000000000000000000000000000000000000",
      "type": "0x2",
      "transactionHash": "0x8b351ad18f2d4806043c29008a761d0c7f4e5dd137b8b0435346f209407ef89a",
      "transactionIndex": "0x5b",
      "blockHash": "0xb4bb98f803408dbe4bd5c6ca29c5630b3d63d22a51b2a95ceb242e59a630dd21",
      "blockNumber": "0x725a30",
      "gasUsed": "0xfb91",
      "effectiveGasPrice": "0x4a694e8c7",
      "from": "0xc77f7fed3b5cc8249adc428c5f44c9063b9734b4",
      "to": "0xbf4a322f1496e5c3d34a9bcdb4c60567b38c7de2",
      "contractAddress": null
    }
  ],
  "libraries": [],
  "pending": [],
  "returns": {},
  "timestamp": 1736912018,
  "chain": 11155111,
  "commit": "51a374b"
}