{
  "transactions": [
    {
      "hash": "0xce1479330865c19e33d5c8bb2f0e878d8fdb90f7c219d4c8202aa2fd7fd92239",
      "transactionType": "CALL",
      "contractName": null,
      "contractAddress": "0x270e88f8683660553e8ba4eb2ad7c91a1710d769",
      "function": "buy(address)",
      "arguments": [
        "0xC77f7fed3b5Cc8249aDc428c5F44C9063B9734b4"
      ],
      "transaction": {
        "from": "0xc77f7fed3b5cc8249adc428c5f44c9063b9734b4",
        "to": "0x270e88f8683660553e8ba4eb2ad7c91a1710d769",
        "gas": "0x1b30c",
        "value": "0xde0b6b3a7640000",
        "input": "0xf088d547000000000000000000000000c77f7fed3b5cc8249adc428c5f44c9063b9734b4",
        "nonce": "0x69f",
        "chainId": "0xaa36a7"
      },
      "additionalContracts": [],
      "isFixedGasLimit": false
    }
  ],
  "receipts": [
    {
      "status": "0x1",
      "cumulativeGasUsed": "0xc1c328",
      "logs": [
        {
          "address": "0x270e88f8683660553e8ba4eb2ad7c91a1710d769",
          "topics": [
            "0xddf252ad1be2c89b69c2b068fc378daa952ba7f163c4a11628f55a4df523b3ef",
            "0x0000000000000000000000000000000000000000000000000000000000000000",
            "0x000000000000000000000000c77f7fed3b5cc8249adc428c5f44c9063b9734b4"
          ],
          "data": "0x000000000000000000000000000000000000000000000028c0d8beffa16af786",
          "blockHash": "0x214feb958683badad7b891cb41b0bf4ce770fd1dae957d0b9f33b0b458687018",
          "blockNumber": "0x7253a3",
          "transactionHash": "0xce1479330865c19e33d5c8bb2f0e878d8fdb90f7c219d4c8202aa2fd7fd92239",
          "transactionIndex": "0x3d",
          "logIndex": "0x53",
          "removed": false
        },
        {
          "address": "0x270e88f8683660553e8ba4eb2ad7c91a1710d769",
          "topics": [
            "0xddf252ad1be2c89b69c2b068fc378daa952ba7f163c4a11628f55a4df523b3ef",
            "0x0000000000000000000000000000000000000000000000000000000000000000",
            "0x000000000000000000000000c77f7fed3b5cc8249adc428c5f44c9063b9734b4"
          ],
          "data": "0x0000000000000000000000000000000000000000000000001fa576179efcee56",
          "blockHash": "0x214feb958683badad7b891cb41b0bf4ce770fd1dae957d0b9f33b0b458687018",
          "blockNumber": "0x7253a3",
          "transactionHash": "0xce1479330865c19e33d5c8bb2f0e878d8fdb90f7c219d4c8202aa2fd7fd92239",
          "transactionIndex": "0x3d",
          "logIndex": "0x54",
          "removed": false
        },
        {
          "address": "0x270e88f8683660553e8ba4eb2ad7c91a1710d769",
          "topics": [
            "0x4afcb4a87cdbd9974efdb92ee48bc8d7cd0ae4bf217004db3d080cbaee652ca7"
          ],
          "data": "0x000000000000000000000000000000000000000000000000000000006786ddac0000000000000000000000000000000000000000000000000004add15bf235ad0000000000000000000000000000000000000000000000000de0b6b3a7640000",
          "blockHash": "0x214feb958683badad7b891cb41b0bf4ce770fd1dae957d0b9f33b0b458687018",
          "blockNumber": "0x7253a3",
          "transactionHash": "0xce1479330865c19e33d5c8bb2f0e878d8fdb90f7c219d4c8202aa2fd7fd92239",
          "transactionIndex": "0x3d",
          "logIndex": "0x55",
          "removed": false
        }
      ],
      "logsBloom": "0x00000000000000000000000000000000000000000000000000000000000000000000000000000000000000000000000020000000000000004000000000000000000000000000000000000008000000000000000000000000000000000000000000000000020000000000000000000800020000000000000000000010000000000000000000010000000000000000000000000000000000000000010000000000000000000000000000000000000000004000000000000000000000000000000000000002000000800000000000000000000000000000080000008000000020000000000000000000000000000000000000000000000000000000000000000000",
      "type": "0x2",
      "transactionHash": "0xce1479330865c19e33d5c8bb2f0e878d8fdb90f7c219d4c8202aa2fd7fd92239",
      "transactionIndex": "0x3d",
      "blockHash": "0x214feb958683badad7b891cb41b0bf4ce770fd1dae957d0b9f33b0b458687018",
      "blockNumber": "0x7253a3",
      "gasUsed": "0x13af8",
      "effectiveGasPrice": "0x1c66c17fc",
      "from": "0xc77f7fed3b5cc8249adc428c5f44c9063b9734b4",
      "to": "0x270e88f8683660553e8ba4eb2ad7c91a1710d769",
      "contractAddress": null
    }
  ],
  "libraries": [],
  "pending": [],
  "returns": {},
  "timestamp": 1736891821,
  "chain": 11155111,
  "commit": "51a374b"
}