{
  "transactions": [
    {
      "hash": "0x89af176fa98befba4156b4a0a175f4a5c35ae00a17bcc31a509188faecf1b9fe",
      "transactionType": "CALL",
      "contractName": null,
      "contractAddress": "0x8aafd3ede9adb0ff97c7aebce82a919afb1c8764",
      "function": "sell(uint256)",
      "arguments": [
        "3031810581366"
      ],
      "transaction": {
        "from": "0xc77f7fed3b5cc8249adc428c5f44c9063b9734b4",
        "to": "0x8aafd3ede9adb0ff97c7aebce82a919afb1c8764",
        "gas": "0x15daa",
        "value": "0x0",
        "input": "0xe4849b32000000000000000000000000000000000000000000000000000002c1e5fe2376",
        "nonce": "0xfc5",
        "chainId": "0xaa36a7"
      },
      "additionalContracts": [],
      "isFixedGasLimit": false
    }
  ],
  "receipts": [
    {
      "status": "0x1",
      "cumulativeGasUsed": "0xc400d5",
      "logs": [
        {
          "address": "0x8aafd3ede9adb0ff97c7aebce82a919afb1c8764",
          "topics": [
            "0xddf252ad1be2c89b69c2b068fc378daa952ba7f163c4a11628f55a4df523b3ef",
            "0x000000000000000000000000c77f7fed3b5cc8249adc428c5f44c9063b9734b4",
            "0x0000000000000000000000000000000000000000000000000000000000000000"
          ],
          "data": "0x000000000000000000000000000000000000000000000000000002bc405012cc",
          "blockHash": "0xf9d416a7d2084224bf73718444b416f35f5853171d3cafb58e865835205596b5",
          "blockNumber": "0x731631",
          "transactionHash": "0x89af176fa98befba4156b4a0a175f4a5c35ae00a17bcc31a509188faecf1b9fe",
          "transactionIndex": "0x9c",
          "logIndex": "0xf8",
          "removed": false
        },
        {
          "address": "0x8aafd3ede9adb0ff97c7aebce82a919afb1c8764",
          "topics": [
            "0xddf252ad1be2c89b69c2b068fc378daa952ba7f163c4a11628f55a4df523b3ef",
            "0x000000000000000000000000c77f7fed3b5cc8249adc428c5f44c9063b9734b4",
            "0x000000000000000000000000c77f7fed3b5cc8249adc428c5f44c9063b9734b4"
          ],
          "data": "0x00000000000000000000000000000000000000000000000000000005a5ae10aa",
          "blockHash": "0xf9d416a7d2084224bf73718444b416f35f5853171d3cafb58e865835205596b5",
          "blockNumber": "0x731631",
          "transactionHash": "0x89af176fa98befba4156b4a0a175f4a5c35ae00a17bcc31a509188faecf1b9fe",
          "transactionIndex": "0x9c",
          "logIndex": "0xf9",
          "removed": false
        },
        {
          "address": "0x8aafd3ede9adb0ff97c7aebce82a919afb1c8764",
          "topics": [
            "0x4afcb4a87cdbd9974efdb92ee48bc8d7cd0ae4bf217004db3d080cbaee652ca7"
          ],
          "data": "0x00000000000000000000000000000000000000000000000000000000679006f80000000000000000000000000000000000000000000000000004c47708e008e100000000000000000000000000000000000000000000000000000000f27f5e09",
          "blockHash": "0xf9d416a7d2084224bf73718444b416f35f5853171d3cafb58e865835205596b5",
          "blockNumber": "0x731631",
          "transactionHash": "0x89af176fa98befba4156b4a0a175f4a5c35ae00a17bcc31a509188faecf1b9fe",
          "transactionIndex": "0x9c",
          "logIndex": "0xfa",
          "removed": false
        }
      ],
      "logsBloom": "0x00000000000000000000000000000000000000000600000000000000000000000000000000000000000000000000000000000000000000004000000000000000000000000000004000000008000000000000000000000000000000000000000000000000020000000000000000000800020000000000000000000010000000000000000000000000000000000000000000000000000000000000010000000000000000000000000000000000000000004000000000000000000000000000000000000002000000800000000000000000000000000000080000000000000020000000000000000000000000000000000000000000000000000000000000000000",
      "type": "0x2",
      "transactionHash": "0x89af176fa98befba4156b4a0a175f4a5c35ae00a17bcc31a509188faecf1b9fe",
      "transactionIndex": "0x9c",
      "blockHash": "0xf9d416a7d2084224bf73718444b416f35f5853171d3cafb58e865835205596b5",
      "blockNumber": "0x731631",
      "gasUsed": "0xfd27",
      "effectiveGasPrice": "0x5846ed61",
      "from": "0xc77f7fed3b5cc8249adc428c5f44c9063b9734b4",
      "to": "0x8aafd3ede9adb0ff97c7aebce82a919afb1c8764",
      "contractAddress": null
    }
  ],
  "libraries": [],
  "pending": [],
  "returns": {},
  "timestamp": 1737492217,
  "chain": 11155111,
  "commit": "1d2fb70"
}