{
  "transactions": [
    {
      "hash": "0x00b8a5f9d1b0230746ec0fc4595a10b0ed22cb557a2e2ff455f63db6e796cf00",
      "transactionType": "CALL",
      "contractName": null,
      "contractAddress": "0x270e88f8683660553e8ba4eb2ad7c91a1710d769",
      "function": "sell(uint256)",
      "arguments": [
        "973893445057821779561"
      ],
      "transaction": {
        "from": "0xc77f7fed3b5cc8249adc428c5f44c9063b9734b4",
        "to": "0x270e88f8683660553e8ba4eb2ad7c91a1710d769",
        "gas": "0x16fec",
        "value": "0x0",
        "input": "0xe4849b32000000000000000000000000000000000000000000000034cb7c905f18dfa669",
        "nonce": "0x54f",
        "chainId": "0xaa36a7"
      },
      "additionalContracts": [],
      "isFixedGasLimit": false
    }
  ],
  "receipts": [
    {
      "status": "0x1",
      "cumulativeGasUsed": "0x1c6b347",
      "logs": [
        {
          "address": "0x270e88f8683660553e8ba4eb2ad7c91a1710d769",
          "topics": [
            "0xddf252ad1be2c89b69c2b068fc378daa952ba7f163c4a11628f55a4df523b3ef",
            "0x000000000000000000000000c77f7fed3b5cc8249adc428c5f44c9063b9734b4",
            "0x0000000000000000000000000000000000000000000000000000000000000000"
          ],
          "data": "0x000000000000000000000000000000000000000000000034cb7c905f18dfa669",
          "blockHash": "0x5dc7776c8d28652d7f5548eba297aebb5dc9d81c672a8bf2c2e9cb90331fe4c4",
          "blockNumber": "0x7251ee",
          "transactionHash": "0x00b8a5f9d1b0230746ec0fc4595a10b0ed22cb557a2e2ff455f63db6e796cf00",
          "transactionIndex": "0x88",
          "logIndex": "0x128",
          "removed": false
        },
        {
          "address": "0x270e88f8683660553e8ba4eb2ad7c91a1710d769",
          "topics": [
            "0x4afcb4a87cdbd9974efdb92ee48bc8d7cd0ae4bf217004db3d080cbaee652ca7"
          ],
          "data": "0x000000000000000000000000000000000000000000000000000000006786c91800000000000000000000000000000000000000000000000000039fa21826df430000000000000000000000000000000000000000000000000dc8409d0fb3ec9a",
          "blockHash": "0x5dc7776c8d28652d7f5548eba297aebb5dc9d81c672a8bf2c2e9cb90331fe4c4",
          "blockNumber": "0x7251ee",
          "transactionHash": "0x00b8a5f9d1b0230746ec0fc4595a10b0ed22cb557a2e2ff455f63db6e796cf00",
          "transactionIndex": "0x88",
          "logIndex": "0x129",
          "removed": false
        }
      ],
      "logsBloom": "0x00000000000000000000000000000000000000000000000000000000000000000000000000000000000000000000000020000000000000004000000000000000000000000000000000000008000000000000000000000000000000000000000000000000020000000000000000000800020000000000000000000010000000000000000000010000000000000000000000000000000000000000010000000000000000000000000000000000000000004000000000000000000000000000000000000002000000800000000000000000000000000000080000008000000020000000000000000000000000000000000000000000000000000000000000000000",
      "type": "0x2",
      "transactionHash": "0x00b8a5f9d1b0230746ec0fc4595a10b0ed22cb557a2e2ff455f63db6e796cf00",
      "transactionIndex": "0x88",
      "blockHash": "0x5dc7776c8d28652d7f5548eba297aebb5dc9d81c672a8bf2c2e9cb90331fe4c4",
      "blockNumber": "0x7251ee",
      "gasUsed": "0xfb93",
      "effectiveGasPrice": "0x4070edc88",
      "from": "0xc77f7fed3b5cc8249adc428c5f44c9063b9734b4",
      "to": "0x270e88f8683660553e8ba4eb2ad7c91a1710d769",
      "contractAddress": null
    }
  ],
  "libraries": [],
  "pending": [],
  "returns": {},
  "timestamp": 1736886553,
  "chain": 11155111,
  "commit": "51a374b"
}