{
  "transactions": [
    {
      "hash": "0xde6df538e96c0c4fb95f629d4496dab32051e1fca34d91be875f2e18794876c7",
      "transactionType": "CALL",
      "contractName": null,
      "contractAddress": "0x8aafd3ede9adb0ff97c7aebce82a919afb1c8764",
      "function": "sell(uint256)",
      "arguments": [
        "359875698226037"
      ],
      "transaction": {
        "from": "0xc77f7fed3b5cc8249adc428c5f44c9063b9734b4",
        "to": "0x8aafd3ede9adb0ff97c7aebce82a919afb1c8764",
        "gas": "0x1724d",
        "value": "0x0",
        "input": "0xe4849b320000000000000000000000000000000000000000000000000001474e1727f375",
        "nonce": "0x10da",
        "chainId": "0xaa36a7"
      },
      "additionalContracts": [],
      "isFixedGasLimit": false
    }
  ],
  "receipts": [
    {
      "status": "0x1",
      "cumulativeGasUsed": "0x95e20d",
      "logs": [
        {
          "address": "0x8aafd3ede9adb0ff97c7aebce82a919afb1c8764",
          "topics": [
            "0xddf252ad1be2c89b69c2b068fc378daa952ba7f163c4a11628f55a4df523b3ef",
            "0x000000000000000000000000c77f7fed3b5cc8249adc428c5f44c9063b9734b4",
            "0x0000000000000000000000000000000000000000000000000000000000000000"
          ],
          "data": "0x000000000000000000000000000000000000000000000000000144afc50d01e5",
          "blockHash": "0x5203c159fb0e044d254a5ba81d102f8466f458133a7fe5ad01ed02091138ed53",
          "blockNumber": "0x73177b",
          "transactionHash": "0xde6df538e96c0c4fb95f629d4496dab32051e1fca34d91be875f2e18794876c7",
          "transactionIndex": "0x87",
          "logIndex": "0xa5",
          "removed": false
        },
        {
          "address": "0x8aafd3ede9adb0ff97c7aebce82a919afb1c8764",
          "topics": [
            "0xddf252ad1be2c89b69c2b068fc378daa952ba7f163c4a11628f55a4df523b3ef",
            "0x000000000000000000000000c77f7fed3b5cc8249adc428c5f44c9063b9734b4",
            "0x000000000000000000000000c77f7fed3b5cc8249adc428c5f44c9063b9734b4"
          ],
          "data": "0x0000000000000000000000000000000000000000000000000000029e521af190",
          "blockHash": "0x5203c159fb0e044d254a5ba81d102f8466f458133a7fe5ad01ed02091138ed53",
          "blockNumber": "0x73177b",
          "transactionHash": "0xde6df538e96c0c4fb95f629d4496dab32051e1fca34d91be875f2e18794876c7",
          "transactionIndex": "0x87",
          "logIndex": "0xa6",
          "removed": false
        },
        {
          "address": "0x8aafd3ede9adb0ff97c7aebce82a919afb1c8764",
          "topics": [
            "0x4afcb4a87cdbd9974efdb92ee48bc8d7cd0ae4bf217004db3d080cbaee652ca7"
          ],
          "data": "0x0000000000000000000000000000000000000000000000000000000067901688000000000000000000000000000000000000000000000000000506595a48da0f00000000000000000000000000000000000000000000000000000076824d68d1",
          "blockHash": "0x5203c159fb0e044d254a5ba81d102f8466f458133a7fe5ad01ed02091138ed53",
          "blockNumber": "0x73177b",
          "transactionHash": "0xde6df538e96c0c4fb95f629d4496dab32051e1fca34d91be875f2e18794876c7",
          "transactionIndex": "0x87",
          "logIndex": "0xa7",
          "removed": false
        }
      ],
      "logsBloom": "0x00000000000000000000000000000000000000000600000000000000000000000000000000000000000000000000000000000000000000004000000000000000000000000000004000000008000000000000000000000000000000000000000000000000020000000000000000000800020000000000000000000010000000000000000000000000000000000000000000000000000000000000010000000000000000000000000000000000000000004000000000000000000000000000000000000002000000800000000000000000000000000000080000000000000020000000000000000000000000000000000000000000000000000000000000000000",
      "type": "0x2",
      "transactionHash": "0xde6df538e96c0c4fb95f629d4496dab32051e1fca34d91be875f2e18794876c7",
      "transactionIndex": "0x87",
      "blockHash": "0x5203c159fb0e044d254a5ba81d102f8466f458133a7fe5ad01ed02091138ed53",
      "blockNumber": "0x73177b",
      "gasUsed": "0xfd33",
      "effectiveGasPrice": "0x40254e5a",
      "from": "0xc77f7fed3b5cc8249adc428c5f44c9063b9734b4",
      "to": "0x8aafd3ede9adb0ff97c7aebce82a919afb1c8764",
      "contractAddress": null
    }
  ],
  "libraries": [],
  "pending": [],
  "returns": {},
  "timestamp": 1737496203,
  "chain": 11155111,
  "commit": "1d2fb70"
}