{
  "transactions": [
    {
      "hash": "0x822ebcb2318abf0837fed0bc2bca6c43fc246001095942cf3933b7420b3506f6",
      "transactionType": "CALL",
      "contractName": null,
      "contractAddress": "0xbf4a322f1496e5c3d34a9bcdb4c60567b38c7de2",
      "function": "sell(uint256)",
      "arguments": [
        "990351921285514682966"
      ],
      "transaction": {
        "from": "0xc77f7fed3b5cc8249adc428c5f44c9063b9734b4",
        "to": "0xbf4a322f1496e5c3d34a9bcdb4c60567b38c7de2",
        "gas": "0x16fea",
        "value": "0x0",
        "input": "0xe4849b32000000000000000000000000000000000000000000000035afe4d14cc0b86256",
        "nonce": "0x91d",
        "chainId": "0xaa36a7"
      },
      "additionalContracts": [],
      "isFixedGasLimit": false
    }
  ],
  "receipts": [
    {
      "status": "0x1",
      "cumulativeGasUsed": "0x14430bf",
      "logs": [
        {
          "address": "0xbf4a322f1496e5c3d34a9bcdb4c60567b38c7de2",
          "topics": [
            "0xddf252ad1be2c89b69c2b068fc378daa952ba7f163c4a11628f55a4df523b3ef",
            "0x000000000000000000000000c77f7fed3b5cc8249adc428c5f44c9063b9734b4",
            "0x0000000000000000000000000000000000000000000000000000000000000000"
          ],
          "data": "0x000000000000000000000000000000000000000000000035afe4d14cc0b86256",
          "blockHash": "0x0d291a78012f59d246fca9d9ff7ffdba9ae81fe21d22edfdaf868aea6ef97330",
          "blockNumber": "0x7258a0",
          "transactionHash": "0x822ebcb2318abf0837fed0bc2bca6c43fc246001095942cf3933b7420b3506f6",
          "transactionIndex": "0x49",
          "logIndex": "0x8c",
          "removed": false
        },
        {
          "address": "0xbf4a322f1496e5c3d34a9bcdb4c60567b38c7de2",
          "topics": [
            "0x4afcb4a87cdbd9974efdb92ee48bc8d7cd0ae4bf217004db3d080cbaee652ca7"
          ],
          "data": "0x00000000000000000000000000000000000000000000000000000000678719ac00000000000000000000000000000000000000000000000000038ff45fddd5c10000000000000000000000000000000000000000000000000dc7e3fa226f3b11",
          "blockHash": "0x0d291a78012f59d246fca9d9ff7ffdba9ae81fe21d22edfdaf868aea6ef97330",
          "blockNumber": "0x7258a0",
          "transactionHash": "0x822ebcb2318abf0837fed0bc2bca6c43fc246001095942cf3933b7420b3506f6",
          "transactionIndex": "0x49",
          "logIndex": "0x8d",
          "removed": false
        }
      ],
      "logsBloom": "0x00000000000000000000000000000000000000000000000000000000000000000000000000000000000000000000000000000000000000004000000000000000000000000000000000000008000000000000001000000000000000000000000000000000020000000000000000000800020000000000000000000010000000000000000000000000000000000000000000000000000008000000010000000000000000000000000000000000000000004000000000000000000000000000000000000002000000800000000000001000000000000000080000000000000020000000000000000000000000000000000000000000000000000000000000000000",
      "type": "0x2",
      "transactionHash": "0x822ebcb2318abf0837fed0bc2bca6c43fc246001095942cf3933b7420b3506f6",
      "transactionIndex": "0x49",
      "blockHash": "0x0d291a78012f59d246fca9d9ff7ffdba9ae81fe21d22edfdaf868aea6ef97330",
      "blockNumber": "0x7258a0",
      "gasUsed": "0xfb91",
      "effectiveGasPrice": "0x4ea5f067",
      "from": "0xc77f7fed3b5cc8249adc428c5f44c9063b9734b4",
      "to": "0xbf4a322f1496e5c3d34a9bcdb4c60567b38c7de2",
      "contractAddress": null
    }
  ],
  "libraries": [],
  "pending": [],
  "returns": {},
  "timestamp": 1736907182,
  "chain": 11155111,
  "commit": "51a374b"
}