{
  "transactions": [
    {
      "hash": "0x8a5189d9b03bf850ddac5f1a60c308ace221deca468f418b2f2e4c0579079d2f",
      "transactionType": "CALL",
      "contractName": null,
      "contractAddress": "0x8aafd3ede9adb0ff97c7aebce82a919afb1c8764",
      "function": "sell(uint256)",
      "arguments": [
        "513124"
      ],
      "transaction": {
        "from": "0xc77f7fed3b5cc8249adc428c5f44c9063b9734b4",
        "to": "0x8aafd3ede9adb0ff97c7aebce82a919afb1c8764",
        "gas": "0x16208",
        "value": "0x0",
        "input": "0xe4849b32000000000000000000000000000000000000000000000000000000000007d464",
        "nonce": "0x1425",
        "chainId": "0xaa36a7"
      },
      "additionalContracts": [],
      "isFixedGasLimit": false
    }
  ],
  "receipts": [
    {
      "status": "0x1",
      "cumulativeGasUsed": "0x14b287f",
      "logs": [
        {
          "address": "0x8aafd3ede9adb0ff97c7aebce82a919afb1c8764",
          "topics": [
            "0xddf252ad1be2c89b69c2b068fc378daa952ba7f163c4a11628f55a4df523b3ef",
            "0x000000000000000000000000c77f7fed3b5cc8249adc428c5f44c9063b9734b4",
            "0x0000000000000000000000000000000000000000000000000000000000000000"
          ],
          "data": "0x000000000000000000000000000000000000000000000000000000000007c45c",
          "blockHash": "0x89d89f3bca5c09b77085d5c8fec2ea1707c0e8f4f3f1953ef57e83e0427407dc",
          "blockNumber": "0x731b61",
          "transactionHash": "0x8a5189d9b03bf850ddac5f1a60c308ace221deca468f418b2f2e4c0579079d2f",
          "transactionIndex": "0xbb",
          "logIndex": "0x8f",
          "removed": false
        },
        {
          "address": "0x8aafd3ede9adb0ff97c7aebce82a919afb1c8764",
          "topics": [
            "0xddf252ad1be2c89b69c2b068fc378daa952ba7f163c4a11628f55a4df523b3ef",
            "0x000000000000000000000000c77f7fed3b5cc8249adc428c5f44c9063b9734b4",
            "0x000000000000000000000000c77f7fed3b5cc8249adc428c5f44c9063b9734b4"
          ],
          "data": "0x0000000000000000000000000000000000000000000000000000000000001008",
          "blockHash": "0x89d89f3bca5c09b77085d5c8fec2ea1707c0e8f4f3f1953ef57e83e0427407dc",
          "blockNumber": "0x731b61",
          "transactionHash": "0x8a5189d9b03bf850ddac5f1a60c308ace221deca468f418b2f2e4c0579079d2f",
          "transactionIndex": "0xbb",
          "logIndex": "0x90",
          "removed": false
        },
        {
          "address": "0x8aafd3ede9adb0ff97c7aebce82a919afb1c8764",
          "topics": [
            "0x4afcb4a87cdbd9974efdb92ee48bc8d7cd0ae4bf217004db3d080cbaee652ca7"
          ],
          "data": "0x000000000000000000000000000000000000000000000000000000006790455c000000000000000000000000000000000000000000000000000e856c669bda890000000000000000000000000000000000000000000000000000000000000831",
          "blockHash": "0x89d89f3bca5c09b77085d5c8fec2ea1707c0e8f4f3f1953ef57e83e0427407dc",
          "blockNumber": "0x731b61",
          "transactionHash": "0x8a5189d9b03bf850ddac5f1a60c308ace221deca468f418b2f2e4c0579079d2f",
          "transactionIndex": "0xbb",
          "logIndex": "0x91",
          "removed": false
        }
      ],
      "logsBloom": "0x00000000000000000000000000000000000000000600000000000000000000000000000000000000000000000000000000000000000000004000000000000000000000000000004000000008000000000000000000000000000000000000000000000000020000000000000000000800020000000000000000000010000000000000000000000000000000000000000000000000000000000000010000000000000000000000000000000000000000004000000000000000000000000000000000000002000000800000000000000000000000000000080000000000000020000000000000000000000000000000000000000000000000000000000000000000",
      "type": "0x2",
      "transactionHash": "0x8a5189d9b03bf850ddac5f1a60c308ace221deca468f418b2f2e4c0579079d2f",
      "transactionIndex": "0xbb",
      "blockHash": "0x89d89f3bca5c09b77085d5c8fec2ea1707c0e8f4f3f1953ef57e83e0427407dc",
      "blockNumber": "0x731b61",
      "gasUsed": "0xf213",
      "effectiveGasPrice": "0xf59c6964",
      "from": "0xc77f7fed3b5cc8249adc428c5f44c9063b9734b4",
      "to": "0x8aafd3ede9adb0ff97c7aebce82a919afb1c8764",
      "contractAddress": null
    }
  ],
  "libraries": [],
  "pending": [],
  "returns": {},
  "timestamp": 1737508190,
  "chain": 11155111,
  "commit": "1d2fb70"
}