{
  "transactions": [
    {
      "hash": "0xed85cf02a31ead1ce6cd45085d526a1ffc4eba3382fb9f10af2c0ce1ef58f056",
      "transactionType": "CALL",
      "contractName": null,
      "contractAddress": "0x8aafd3ede9adb0ff97c7aebce82a919afb1c8764",
      "function": "sell(uint256)",
      "arguments": [
        "215407018955173113949"
      ],
      "transaction": {
        "from": "0xc77f7fed3b5cc8249adc428c5f44c9063b9734b4",
        "to": "0x8aafd3ede9adb0ff97c7aebce82a919afb1c8764",
        "gas": "0x17270",
        "value": "0x0",
        "input": "0xe4849b3200000000000000000000000000000000000000000000000bad5f7676e4edb05d",
        "nonce": "0x14c9",
        "chainId": "0xaa36a7"
      },
      "additionalContracts": [],
      "isFixedGasLimit": false
    }
  ],
  "receipts": [
    {
      "status": "0x1",
      "cumulativeGasUsed": "0x116192c",
      "logs": [
        {
          "address": "0x8aafd3ede9adb0ff97c7aebce82a919afb1c8764",
          "topics": [
            "0xddf252ad1be2c89b69c2b068fc378daa952ba7f163c4a11628f55a4df523b3ef",
            "0x000000000000000000000000c77f7fed3b5cc8249adc428c5f44c9063b9734b4",
            "0x0000000000000000000000000000000000000000000000000000000000000000"
          ],
          "data": "0x00000000000000000000000000000000000000000000000b95753a1fed56488e",
          "blockHash": "0x5d0962fb0e156c0202b4c6e20fb53de747bb26632797ccc15950327eb4376c3b",
          "blockNumber": "0x731c27",
          "transactionHash": "0xed85cf02a31ead1ce6cd45085d526a1ffc4eba3382fb9f10af2c0ce1ef58f056",
          "transactionIndex": "0x98",
          "logIndex": "0xac",
          "removed": false
        },
        {
          "address": "0x8aafd3ede9adb0ff97c7aebce82a919afb1c8764",
          "topics": [
            "0xddf252ad1be2c89b69c2b068fc378daa952ba7f163c4a11628f55a4df523b3ef",
            "0x000000000000000000000000c77f7fed3b5cc8249adc428c5f44c9063b9734b4",
            "0x000000000000000000000000c77f7fed3b5cc8249adc428c5f44c9063b9734b4"
          ],
          "data": "0x00000000000000000000000000000000000000000000000017ea3c56f79767cf",
          "blockHash": "0x5d0962fb0e156c0202b4c6e20fb53de747bb26632797ccc15950327eb4376c3b",
          "blockNumber": "0x731c27",
          "transactionHash": "0xed85cf02a31ead1ce6cd45085d526a1ffc4eba3382fb9f10af2c0ce1ef58f056",
          "transactionIndex": "0x98",
          "logIndex": "0xad",
          "removed": false
        },
        {
          "address": "0x8aafd3ede9adb0ff97c7aebce82a919afb1c8764",
          "topics": [
            "0x4afcb4a87cdbd9974efdb92ee48bc8d7cd0ae4bf217004db3d080cbaee652ca7"
          ],
          "data": "0x0000000000000000000000000000000000000000000000000000000067904eb000000000000000000000000000000000000000000000000000107b0116b9bd750000000000000000000000000000000000000000000000000dcd47d65f8c1865",
          "blockHash": "0x5d0962fb0e156c0202b4c6e20fb53de747bb26632797ccc15950327eb4376c3b",
          "blockNumber": "0x731c27",
          "transactionHash": "0xed85cf02a31ead1ce6cd45085d526a1ffc4eba3382fb9f10af2c0ce1ef58f056",
          "transactionIndex": "0x98",
          "logIndex": "0xae",
          "removed": false
        }
      ],
      "logsBloom": "0x00000000000000000000000000000000000000000600000000000000000000000000000000000000000000000000000000000000000000004000000000000000000000000000004000000008000000000000000000000000000000000000000000000000020000000000000000000800020000000000000000000010000000000000000000000000000000000000000000000000000000000000010000000000000000000000000000000000000000004000000000000000000000000000000000000002000000800000000000000000000000000000080000000000000020000000000000000000000000000000000000000000000000000000000000000000",
      "type": "0x2",
      "transactionHash": "0xed85cf02a31ead1ce6cd45085d526a1ffc4eba3382fb9f10af2c0ce1ef58f056",
      "transactionIndex": "0x98",
      "blockHash": "0x5d0962fb0e156c0202b4c6e20fb53de747bb26632797ccc15950327eb4376c3b",
      "blockNumber": "0x731c27",
      "gasUsed": "0xfd4b",
      "effectiveGasPrice": "0x10e16924e",
      "from": "0xc77f7fed3b5cc8249adc428c5f44c9063b9734b4",
      "to": "0x8aafd3ede9adb0ff97c7aebce82a919afb1c8764",
      "contractAddress": null
    }
  ],
  "libraries": [],
  "pending": [],
  "returns": {},
  "timestamp": 1737510577,
  "chain": 11155111,
  "commit": "1d2fb70"
}