{
  "transactions": [
    {
      "hash": "0x131d3d9300691a32ce1fabddd7612bb68eb167e3b876d78e34f6616210cf1e4c",
      "transactionType": "CALL",
      "contractName": null,
      "contractAddress": "0xbf4a322f1496e5c3d34a9bcdb4c60567b38c7de2",
      "function": "buy(address)",
      "arguments": [
        "0xC77f7fed3b5Cc8249aDc428c5F44C9063B9734b4"
      ],
      "transaction": {
        "from": "0xc77f7fed3b5cc8249adc428c5f44c9063b9734b4",
        "to": "0xbf4a322f1496e5c3d34a9bcdb4c60567b38c7de2",
        "gas": "0x1b309",
        "value": "0xde0b6b3a7640000",
        "input": "0xf088d547000000000000000000000000c77f7fed3b5cc8249adc428c5f44c9063b9734b4",
        "nonce": "0xcfe",
        "chainId": "0xaa36a7"
      },
      "additionalContracts": [],
      "isFixedGasLimit": false
    }
  ],
  "receipts": [
    {
      "status": "0x1",
      "cumulativeGasUsed": "0x8a58b8",
      "logs": [
        {
          "address": "0xbf4a322f1496e5c3d34a9bcdb4c60567b38c7de2",
          "topics": [
            "0xddf252ad1be2c89b69c2b068fc378daa952ba7f163c4a11628f55a4df523b3ef",
            "0x0000000000000000000000000000000000000000000000000000000000000000",
            "0x000000000000000000000000c77f7fed3b5cc8249adc428c5f44c9063b9734b4"
          ],
          "data": "0x000000000000000000000000000000000000000000000034cc50e0a19c9ae254",
          "blockHash": "0x666944d26f5022f7a174ea8f903d6ef346e792d46d4860868a7dbcb57dbe3564",
          "blockNumber": "0x725d54",
          "transactionHash": "0x131d3d9300691a32ce1fabddd7612bb68eb167e3b876d78e34f6616210cf1e4c",
          "transactionIndex": "0x4a",
          "logIndex": "0x6b",
          "removed": false
        },
        {
          "address": "0xbf4a322f1496e5c3d34a9bcdb4c60567b38c7de2",
          "topics": [
            "0xddf252ad1be2c89b69c2b068fc378daa952ba7f163c4a11628f55a4df523b3ef",
            "0x0000000000000000000000000000000000000000000000000000000000000000",
            "0x000000000000000000000000c77f7fed3b5cc8249adc428c5f44c9063b9734b4"
          ],
          "data": "0x00000000000000000000000000000000000000000000000028ffe15f1c643536",
          "blockHash": "0x666944d26f5022f7a174ea8f903d6ef346e792d46d4860868a7dbcb57dbe3564",
          "blockNumber": "0x725d54",
          "transactionHash": "0x131d3d9300691a32ce1fabddd7612bb68eb167e3b876d78e34f6616210cf1e4c",
          "transactionIndex": "0x4a",
          "logIndex": "0x6c",
          "removed": false
        },
        {
          "address": "0xbf4a322f1496e5c3d34a9bcdb4c60567b38c7de2",
          "topics": [
            "0x4afcb4a87cdbd9974efdb92ee48bc8d7cd0ae4bf217004db3d080cbaee652ca7"
          ],
          "data": "0x000000000000000000000000000000000000000000000000000000006787526400000000000000000000000000000000000000000000000000039c7d1356148b0000000000000000000000000000000000000000000000000de0b6b3a7640000",
          "blockHash": "0x666944d26f5022f7a174ea8f903d6ef346e792d46d4860868a7dbcb57dbe3564",
          "blockNumber": "0x725d54",
          "transactionHash": "0x131d3d9300691a32ce1fabddd7612bb68eb167e3b876d78e34f6616210cf1e4c",
          "transactionIndex": "0x4a",
          "logIndex": "0x6d",
          "removed": false
        }
      ],
      "logsBloom": "0x00000000000000000000000000000000000000000000000000000000000000000000000000000000000000000000000000000000000000004000000000000000000000000000000000000008000000000000001000000000000000000000000000000000020000000000000000000800020000000000000000000010000000000000000000000000000000000000000000000000000008000000010000000000000000000000000000000000000000004000000000000000000000000000000000000002000000800000000000001000000000000000080000000000000020000000000000000000000000000000000000000000000000000000000000000000",
      "type": "0x2",
      "transactionHash": "0x131d3d9300691a32ce1fabddd7612bb68eb167e3b876d78e34f6616210cf1e4c",
      "transactionIndex": "0x4a",
      "blockHash": "0x666944d26f5022f7a174ea8f903d6ef346e792d46d4860868a7dbcb57dbe3564",
      "blockNumber": "0x725d54",
      "gasUsed": "0x13af6",
      "effectiveGasPrice": "0x3c24aec2d",
      "from": "0xc77f7fed3b5cc8249adc428c5f44c9063b9734b4",
      "to": "0xbf4a322f1496e5c3d34a9bcdb4c60567b38c7de2",
      "contractAddress": null
    }
  ],
  "libraries": [],
  "pending": [],
  "returns": {},
  "timestamp": 1736921702,
  "chain": 11155111,
  "commit": "51a374b"
}