{
  "transactions": [
    {
      "hash": "0x420c1f76b6a62b9bf91c9a02825d779a540a9deadf5f0229c2e060eacd849979",
      "transactionType": "CALL",
      "contractName": null,
      "contractAddress": "0x8aafd3ede9adb0ff97c7aebce82a919afb1c8764",
      "function": "sell(uint256)",
      "arguments": [
        "2378708388540424497"
      ],
      "transaction": {
        "from": "0xc77f7fed3b5cc8249adc428c5f44c9063b9734b4",
        "to": "0x8aafd3ede9adb0ff97c7aebce82a919afb1c8764",
        "gas": "0x15dca",
        "value": "0x0",
        "input": "0xe4849b320000000000000000000000000000000000000000000000002102dead2b31a131",
        "nonce": "0x133e",
        "chainId": "0xaa36a7"
      },
      "additionalContracts": [],
      "isFixedGasLimit": false
    }
  ],
  "receipts": [
    {
      "status": "0x1",
      "cumulativeGasUsed": "0x2178360",
      "logs": [
        {
          "address": "0x8aafd3ede9adb0ff97c7aebce82a919afb1c8764",
          "topics": [
            "0xddf252ad1be2c89b69c2b068fc378daa952ba7f163c4a11628f55a4df523b3ef",
            "0x000000000000000000000000c77f7fed3b5cc8249adc428c5f44c9063b9734b4",
            "0x0000000000000000000000000000000000000000000000000000000000000000"
          ],
          "data": "0x00000000000000000000000000000000000000000000000020bf434b870220ee",
          "blockHash": "0xa1bbb5a8007b4b69dd9491901f136004f185bf37f1297357f35daae8a9136049",
          "blockNumber": "0x731a57",
          "transactionHash": "0x420c1f76b6a62b9bf91c9a02825d779a540a9deadf5f0229c2e060eacd849979",
          "transactionIndex": "0x4e",
          "logIndex": "0x110c",
          "removed": false
        },
        {
          "address": "0x8aafd3ede9adb0ff97c7aebce82a919afb1c8764",
          "topics": [
            "0xddf252ad1be2c89b69c2b068fc378daa952ba7f163c4a11628f55a4df523b3ef",
            "0x000000000000000000000000c77f7fed3b5cc8249adc428c5f44c9063b9734b4",
            "0x000000000000000000000000c77f7fed3b5cc8249adc428c5f44c9063b9734b4"
          ],
          "data": "0x00000000000000000000000000000000000000000000000000439b61a42f8043",
          "blockHash": "0xa1bbb5a8007b4b69dd9491901f136004f185bf37f1297357f35daae8a9136049",
          "blockNumber": "0x731a57",
          "transactionHash": "0x420c1f76b6a62b9bf91c9a02825d779a540a9deadf5f0229c2e060eacd849979",
          "transactionIndex": "0x4e",
          "logIndex": "0x110d",
          "removed": false
        },
        {
          "address": "0x8aafd3ede9adb0ff97c7aebce82a919afb1c8764",
          "topics": [
            "0x4afcb4a87cdbd9974efdb92ee48bc8d7cd0ae4bf217004db3d080cbaee652ca7"
          ],
          "data": "0x00000000000000000000000000000000000000000000000000000000679038e4000000000000000000000000000000000000000000000000000bf75f74b5bfae000000000000000000000000000000000000000000000000001c767d2766076d",
          "blockHash": "0xa1bbb5a8007b4b69dd9491901f136004f185bf37f1297357f35daae8a9136049",
          "blockNumber": "0x731a57",
          "transactionHash": "0x420c1f76b6a62b9bf91c9a02825d779a540a9deadf5f0229c2e060eacd849979",
          "transactionIndex": "0x4e",
          "logIndex": "0x110e",
          "removed": false
        }
      ],
      "logsBloom": "0x00000000000000000000000000000000000000000600000000000000000000000000000000000000000000000000000000000000000000004000000000000000000000000000004000000008000000000000000000000000000000000000000000000000020000000000000000000800020000000000000000000010000000000000000000000000000000000000000000000000000000000000010000000000000000000000000000000000000000004000000000000000000000000000000000000002000000800000000000000000000000000000080000000000000020000000000000000000000000000000000000000000000000000000000000000000",
      "type": "0x2",
      "transactionHash": "0x420c1f76b6a62b9bf91c9a02825d779a540a9deadf5f0229c2e060eacd849979",
      "transactionIndex": "0x4e",
      "blockHash": "0xa1bbb5a8007b4b69dd9491901f136004f185bf37f1297357f35daae8a9136049",
      "blockNumber": "0x731a57",
      "gasUsed": "0xfd3f",
      "effectiveGasPrice": "0x3f0e0994",
      "from": "0xc77f7fed3b5cc8249adc428c5f44c9063b9734b4",
      "to": "0x8aafd3ede9adb0ff97c7aebce82a919afb1c8764",
      "contractAddress": null
    }
  ],
  "libraries": [],
  "pending": [],
  "returns": {},
  "timestamp": 1737504998,
  "chain": 11155111,
  "commit": "1d2fb70"
}