{
  "transactions": [
    {
      "hash": "0x66e941f777aa87686f9798729d988e2c0090abdd236d500ea5dd2d67d75f7cf5",
      "transactionType": "CALL",
      "contractName": null,
      "contractAddress": "0x8aafd3ede9adb0ff97c7aebce82a919afb1c8764",
      "function": "buy(address)",
      "arguments": [
        "0xC77f7fed3b5Cc8249aDc428c5F44C9063B9734b4"
      ],
      "transaction": {
        "from": "0xc77f7fed3b5cc8249adc428c5f44c9063b9734b4",
        "to": "0x8aafd3ede9adb0ff97c7aebce82a919afb1c8764",
        "gas": "0x156ea",
        "value": "0xde0b6b3a7640000",
        "input": "0xf088d547000000000000000000000000c77f7fed3b5cc8249adc428c5f44c9063b9734b4",
        "nonce": "0x1666",
        "chainId": "0xaa36a7"
      },
      "additionalContracts": [],
      "isFixedGasLimit": false
    }
  ],
  "receipts": [
    {
      "status": "0x1",
      "cumulativeGasUsed": "0xed064f",
      "logs": [
        {
          "address": "0x8aafd3ede9adb0ff97c7aebce82a919afb1c8764",
          "topics": [
            "0xddf252ad1be2c89b69c2b068fc378daa952ba7f163c4a11628f55a4df523b3ef",
            "0x0000000000000000000000000000000000000000000000000000000000000000",
            "0x000000000000000000000000c77f7fed3b5cc8249adc428c5f44c9063b9734b4"
          ],
          "data": "0x00000000000000000000000000000000000000000000000901a620d3162e66b8",
          "blockHash": "0x743ff5a3200567c7fb5c5fa462e73516eb5393208a876801f6cd9878c9d5051d",
          "blockNumber": "0x731e15",
          "transactionHash": "0x66e941f777aa87686f9798729d988e2c0090abdd236d500ea5dd2d67d75f7cf5",
          "transactionIndex": "0x8c",
          "logIndex": "0xd4",
          "removed": false
        },
        {
          "address": "0x8aafd3ede9adb0ff97c7aebce82a919afb1c8764",
          "topics": [
            "0xddf252ad1be2c89b69c2b068fc378daa952ba7f163c4a11628f55a4df523b3ef",
            "0x0000000000000000000000000000000000000000000000000000000000000000",
            "0x000000000000000000000000c77f7fed3b5cc8249adc428c5f44c9063b9734b4"
          ],
          "data": "0x00000000000000000000000000000000000000000000000006fe6a4074b3e492",
          "blockHash": "0x743ff5a3200567c7fb5c5fa462e73516eb5393208a876801f6cd9878c9d5051d",
          "blockNumber": "0x731e15",
          "transactionHash": "0x66e941f777aa87686f9798729d988e2c0090abdd236d500ea5dd2d67d75f7cf5",
          "transactionIndex": "0x8c",
          "logIndex": "0xd5",
          "removed": false
        },
        {
          "address": "0x8aafd3ede9adb0ff97c7aebce82a919afb1c8764",
          "topics": [
            "0x4afcb4a87cdbd9974efdb92ee48bc8d7cd0ae4bf217004db3d080cbaee652ca7"
          ],
          "data": "0x00000000000000000000000000000000000000000000000000000000679065e400000000000000000000000000000000000000000000000000153252a29da7000000000000000000000000000000000000000000000000000de0b6b3a7640000",
          "blockHash": "0x743ff5a3200567c7fb5c5fa462e73516eb5393208a876801f6cd9878c9d5051d",
          "blockNumber": "0x731e15",
          "transactionHash": "0x66e941f777aa87686f9798729d988e2c0090abdd236d500ea5dd2d67d75f7cf5",
          "transactionIndex": "0x8c",
          "logIndex": "0xd6",
          "removed": false
        }
      ],
      "logsBloom": "0x00000000000000000000000000000000000000000600000000000000000000000000000000000000000000000000000000000000000000004000000000000000000000000000004000000008000000000000000000000000000000000000000000000000020000000000000000000800020000000000000000000010000000000000000000000000000000000000000000000000000000000000010000000000000000000000000000000000000000004000000000000000000000000000000000000002000000800000000000000000000000000000080000000000000020000000000000000000000000000000000000000000000000000000000000000000",
      "type": "0x2",
      "transactionHash": "0x66e941f777aa87686f9798729d988e2c0090abdd236d500ea5dd2d67d75f7cf5",
      "transactionIndex": "0x8c",
      "blockHash": "0x743ff5a3200567c7fb5c5fa462e73516eb5393208a876801f6cd9878c9d5051d",
      "blockNumber": "0x731e15",
      "gasUsed": "0xf844",
      "effectiveGasPrice": "0x40e15b49",
      "from": "0xc77f7fed3b5cc8249adc428c5f44c9063b9734b4",
      "to": "0x8aafd3ede9adb0ff97c7aebce82a919afb1c8764",
      "contractAddress": null
    }
  ],
  "libraries": [],
  "pending": [],
  "returns": {},
  "timestamp": 1737516517,
  "chain": 11155111,
  "commit": "1d2fb70"
}