{
  "transactions": [
    {
      "hash": "0x46d70de58f9d31c444f634bb309bbf8e9bbd9f52a0534efd1c417cb9769fffee",
      "transactionType": "CALL",
      "contractName": null,
      "contractAddress": "0xfcd1e9490bdaa8b6c0f830eb671d3136559af099",
      "function": "borrow(uint256,uint256)",
      "arguments": [
        "9967904831587544",
        "0"
      ],
      "transaction": {
        "from": "0xc77f7fed3b5cc8249adc428c5f44c9063b9734b4",
        "to": "0xfcd1e9490bdaa8b6c0f830eb671d3136559af099",
        "gas": "0x242d4",
        "value": "0x0",
        "input": "0x0ecbcdab000000000000000000000000000000000000000000000000002369c1b2a444d80000000000000000000000000000000000000000000000000000000000000000",
        "nonce": "0x18aa",
        "chainId": "0xaa36a7"
      },
      "additionalContracts": [],
      "isFixedGasLimit": false
    }
  ],
  "receipts": [
    {
      "status": "0x1",
      "cumulativeGasUsed": "0xe94ff8",
      "logs": [
        {
          "address": "0xfcd1e9490bdaa8b6c0f830eb671d3136559af099",
          "topics": [
            "0xddf252ad1be2c89b69c2b068fc378daa952ba7f163c4a11628f55a4df523b3ef",
            "0x000000000000000000000000c77f7fed3b5cc8249adc428c5f44c9063b9734b4",
            "0x000000000000000000000000fcd1e9490bdaa8b6c0f830eb671d3136559af099"
          ],
          "data": "0x00000000000000000000000000000000000000000000000089c08444a071a830",
          "blockHash": "0x177ec16153301ef964b764fd4fd8fd12414b7d102d8fcb41de41b4727297efa4",
          "blockNumber": "0x73832c",
          "transactionHash": "0x46d70de58f9d31c444f634bb309bbf8e9bbd9f52a0534efd1c417cb9769fffee",
          "transactionIndex": "0x3d",
          "logIndex": "0x128",
          "removed": false
        },
        {
          "address": "0xfcd1e9490bdaa8b6c0f830eb671d3136559af099",
          "topics": [
            "0xddf252ad1be2c89b69c2b068fc378daa952ba7f163c4a11628f55a4df523b3ef",
            "0x000000000000000000000000fcd1e9490bdaa8b6c0f830eb671d3136559af099",
            "0x000000000000000000000000c77f7fed3b5cc8249adc428c5f44c9063b9734b4"
          ],
          "data": "0x0000000000000000000000000000000000000000000000000015137d6afe32ba",
          "blockHash": "0x177ec16153301ef964b764fd4fd8fd12414b7d102d8fcb41de41b4727297efa4",
          "blockNumber": "0x73832c",
          "transactionHash": "0x46d70de58f9d31c444f634bb309bbf8e9bbd9f52a0534efd1c417cb9769fffee",
          "transactionIndex": "0x3d",
          "logIndex": "0x129",
          "removed": false
        },
        {
          "address": "0xfcd1e9490bdaa8b6c0f830eb671d3136559af099",
          "topics": [
            "0xddf252ad1be2c89b69c2b068fc378daa952ba7f163c4a11628f55a4df523b3ef",
            "0x000000000000000000000000fcd1e9490bdaa8b6c0f830eb671d3136559af099",
            "0x0000000000000000000000000000000000000000000000000000000000000000"
          ],
          "data": "0x00000000000000000000000000000000000000000000000000312d79f9a6765d",
          "blockHash": "0x177ec16153301ef964b764fd4fd8fd12414b7d102d8fcb41de41b4727297efa4",
          "blockNumber": "0x73832c",
          "transactionHash": "0x46d70de58f9d31c444f634bb309bbf8e9bbd9f52a0534efd1c417cb9769fffee",
          "transactionIndex": "0x3d",
          "logIndex": "0x12a",
          "removed": false
        },
        {
          "address": "0xfcd1e9490bdaa8b6c0f830eb671d3136559af099",
          "topics": [
            "0x03bbe564cb1b78e43195eeadbde99e5b89b19345862807fcfb59f884e4165e25"
          ],
          "data": "0x000000000000000000000000c77f7fed3b5cc8249adc428c5f44c9063b9734b40000000000000000000000000000000000000000000000000022fd380b58354d",
          "blockHash": "0x177ec16153301ef964b764fd4fd8fd12414b7d102d8fcb41de41b4727297efa4",
          "blockNumber": "0x73832c",
          "transactionHash": "0x46d70de58f9d31c444f634bb309bbf8e9bbd9f52a0534efd1c417cb9769fffee",
          "transactionIndex": "0x3d",
          "logIndex": "0x12b",
          "removed": false
        },
        {
          "address": "0xfcd1e9490bdaa8b6c0f830eb671d3136559af099",
          "topics": [
            "0xaec00f5213a37254bc68a26b0685d1a5b2bf513e1e587c94c7df7f4a62b56c9c"
          ],
          "data": "0x0000000000000000000000000000000000000000000000000000000000000000000000000000000000000000000000000000000000000000000000000000000000000000000000000000000000000000000000000000000000000000000000000000000000000000000000000000000000000000000000000000000000000000",
          "blockHash": "0x177ec16153301ef964b764fd4fd8fd12414b7d102d8fcb41de41b4727297efa4",
          "blockNumber": "0x73832c",
          "transactionHash": "0x46d70de58f9d31c444f634bb309bbf8e9bbd9f52a0534efd1c417cb9769fffee",
          "transactionIndex": "0x3d",
          "logIndex": "0x12c",
          "removed": false
        },
        {
          "address": "0xfcd1e9490bdaa8b6c0f830eb671d3136559af099",
          "topics": [
            "0xaec00f5213a37254bc68a26b0685d1a5b2bf513e1e587c94c7df7f4a62b56c9c"
          ],
          "data": "0x000000000000000000000000000000000000000000000001141ddf5f55f402f70000000000000000000000000000000000000000000000000046203664a33d440000000000000000000000000000000000000000000000000046203664a33d44000000000000000000000000000000000000000000000001141ddf5f55f402f7",
          "blockHash": "0x177ec16153301ef964b764fd4fd8fd12414b7d102d8fcb41de41b4727297efa4",
          "blockNumber": "0x73832c",
          "transactionHash": "0x46d70de58f9d31c444f634bb309bbf8e9bbd9f52a0534efd1c417cb9769fffee",
          "transactionIndex": "0x3d",
          "logIndex": "0x12d",
          "removed": false
        },
        {
          "address": "0xfcd1e9490bdaa8b6c0f830eb671d3136559af099",
          "topics": [
            "0x4afcb4a87cdbd9974efdb92ee48bc8d7cd0ae4bf217004db3d080cbaee652ca7"
          ],
          "data": "0x0000000000000000000000000000000000000000000000000000000067954eb4000000000000000000000000000000000000000000000000000391f65936624e0000000000000000000000000000000000000000000000000000120f8d52ed63",
          "blockHash": "0x177ec16153301ef964b764fd4fd8fd12414b7d102d8fcb41de41b4727297efa4",
          "blockNumber": "0x73832c",
          "transactionHash": "0x46d70de58f9d31c444f634bb309bbf8e9bbd9f52a0534efd1c417cb9769fffee",
          "transactionIndex": "0x3d",
          "logIndex": "0x12e",
          "removed": false
        }
      ],
      "logsBloom": "0x00000000000000000000000000000100400000000000000000000000000000000008000000000000000000000000000000002800000000004000000000000000000000000000000000000008000000000000000000000000000000000000000000000080020000000000000000000800020000000000000000000010000000000000000000000000000000000000000000000000000000000000010000000000002000000000000000000400000000004000000000000000000000001000000000000002200000800000000000000000000000000000080100000000000020000000000000000000000000000000000002000000000000000000000000000000",
      "type": "0x2",
      "transactionHash": "0x46d70de58f9d31c444f634bb309bbf8e9bbd9f52a0534efd1c417cb9769fffee",
      "transactionIndex": "0x3d",
      "blockHash": "0x177ec16153301ef964b764fd4fd8fd12414b7d102d8fcb41de41b4727297efa4",
      "blockNumber": "0x73832c",
      "gasUsed": "0x1a310",
      "effectiveGasPrice": "0x70eddcc3",
      "from": "0xc77f7fed3b5cc8249adc428c5f44c9063b9734b4",
      "to": "0xfcd1e9490bdaa8b6c0f830eb671d3136559af099",
      "contractAddress": null
    }
  ],
  "libraries": [],
  "pending": [],
  "returns": {},
  "timestamp": 1737838261,
  "chain": 11155111,
  "commit": "f5162e9"
}