{
  "transactions": [
    {
      "hash": "0xc59bdd48351415e93a49406de52f9634a758488fabc2111b247fe7014656c55d",
      "transactionType": "CALL",
      "contractName": null,
      "contractAddress": "0x8aafd3ede9adb0ff97c7aebce82a919afb1c8764",
      "function": "sell(uint256)",
      "arguments": [
        "133840623764587"
      ],
      "transaction": {
        "from": "0xc77f7fed3b5cc8249adc428c5f44c9063b9734b4",
        "to": "0x8aafd3ede9adb0ff97c7aebce82a919afb1c8764",
        "gas": "0x15daa",
        "value": "0x0",
        "input": "0xe4849b32000000000000000000000000000000000000000000000000000079ba32d6046b",
        "nonce": "0x13d0",
        "chainId": "0xaa36a7"
      },
      "additionalContracts": [],
      "isFixedGasLimit": false
    }
  ],
  "receipts": [
    {
      "status": "0x1",
      "cumulativeGasUsed": "0x1191583",
      "logs": [
        {
          "address": "0x8aafd3ede9adb0ff97c7aebce82a919afb1c8764",
          "topics": [
            "0xddf252ad1be2c89b69c2b068fc378daa952ba7f163c4a11628f55a4df523b3ef",
            "0x000000000000000000000000c77f7fed3b5cc8249adc428c5f44c9063b9734b4",
            "0x0000000000000000000000000000000000000000000000000000000000000000"
          ],
          "data": "0x000000000000000000000000000000000000000000000000000078c0e6a73fc7",
          "blockHash": "0xe2687f1b8ce5d5614f94545a23cada8f769ff566e42d9632385fa769b3cb1909",
          "blockNumber": "0x731afd",
          "transactionHash": "0xc59bdd48351415e93a49406de52f9634a758488fabc2111b247fe7014656c55d",
          "transactionIndex": "0xab",
          "logIndex": "0xad",
          "removed": false
        },
        {
          "address": "0x8aafd3ede9adb0ff97c7aebce82a919afb1c8764",
          "topics": [
            "0xddf252ad1be2c89b69c2b068fc378daa952ba7f163c4a11628f55a4df523b3ef",
            "0x000000000000000000000000c77f7fed3b5cc8249adc428c5f44c9063b9734b4",
            "0x000000000000000000000000c77f7fed3b5cc8249adc428c5f44c9063b9734b4"
          ],
          "data": "0x000000000000000000000000000000000000000000000000000000f94c2ec4a4",
          "blockHash": "0xe2687f1b8ce5d5614f94545a23cada8f769ff566e42d9632385fa769b3cb1909",
          "blockNumber": "0x731afd",
          "transactionHash": "0xc59bdd48351415e93a49406de52f9634a758488fabc2111b247fe7014656c55d",
          "transactionIndex": "0xab",
          "logIndex": "0xae",
          "removed": false
        },
        {
          "address": "0x8aafd3ede9adb0ff97c7aebce82a919afb1c8764",
          "topics": [
            "0x4afcb4a87cdbd9974efdb92ee48bc8d7cd0ae4bf217004db3d080cbaee652ca7"
          ],
          "data": "0x00000000000000000000000000000000000000000000000000000000679040ac000000000000000000000000000000000000000000000000000d991499efce0c0000000000000000000000000000000000000000000000000000007745e061ab",
          "blockHash": "0xe2687f1b8ce5d5614f94545a23cada8f769ff566e42d9632385fa769b3cb1909",
          "blockNumber": "0x731afd",
          "transactionHash": "0xc59bdd48351415e93a49406de52f9634a758488fabc2111b247fe7014656c55d",
          "transactionIndex": "0xab",
          "logIndex": "0xaf",
          "removed": false
        }
      ],
      "logsBloom": "0x00000000000000000000000000000000000000000600000000000000000000000000000000000000000000000000000000000000000000004000000000000000000000000000004000000008000000000000000000000000000000000000000000000000020000000000000000000800020000000000000000000010000000000000000000000000000000000000000000000000000000000000010000000000000000000000000000000000000000004000000000000000000000000000000000000002000000800000000000000000000000000000080000000000000020000000000000000000000000000000000000000000000000000000000000000000",
      "type": "0x2",
      "transactionHash": "0xc59bdd48351415e93a49406de52f9634a758488fabc2111b247fe7014656c55d",
      "transactionIndex": "0xab",
      "blockHash": "0xe2687f1b8ce5d5614f94545a23cada8f769ff566e42d9632385fa769b3cb1909",
      "blockNumber": "0x731afd",
      "gasUsed": "0xfd27",
      "effectiveGasPrice": "0x7cdfb492",
      "from": "0xc77f7fed3b5cc8249adc428c5f44c9063b9734b4",
      "to": "0x8aafd3ede9adb0ff97c7aebce82a919afb1c8764",
      "contractAddress": null
    }
  ],
  "libraries": [],
  "pending": [],
  "returns": {},
  "timestamp": 1737506990,
  "chain": 11155111,
  "commit": "1d2fb70"
}