{
  "transactions": [
    {
      "hash": "0x1a2193e1fcc22a7ae160d365c09d9e979fbed1817a3f95de3967fc81a6f73899",
      "transactionType": "CALL",
      "contractName": null,
      "contractAddress": "0x8aafd3ede9adb0ff97c7aebce82a919afb1c8764",
      "function": "sell(uint256)",
      "arguments": [
        "45655307084123302"
      ],
      "transaction": {
        "from": "0xc77f7fed3b5cc8249adc428c5f44c9063b9734b4",
        "to": "0x8aafd3ede9adb0ff97c7aebce82a919afb1c8764",
        "gas": "0x1724d",
        "value": "0x0",
        "input": "0xe4849b3200000000000000000000000000000000000000000000000000a2334288dc4ca6",
        "nonce": "0x1057",
        "chainId": "0xaa36a7"
      },
      "additionalContracts": [],
      "isFixedGasLimit": false
    }
  ],
  "receipts": [
    {
      "status": "0x1",
      "cumulativeGasUsed": "0xbe0895",
      "logs": [
        {
          "address": "0x8aafd3ede9adb0ff97c7aebce82a919afb1c8764",
          "topics": [
            "0xddf252ad1be2c89b69c2b068fc378daa952ba7f163c4a11628f55a4df523b3ef",
            "0x000000000000000000000000c77f7fed3b5cc8249adc428c5f44c9063b9734b4",
            "0x0000000000000000000000000000000000000000000000000000000000000000"
          ],
          "data": "0x00000000000000000000000000000000000000000000000000a0e712e5f941cc",
          "blockHash": "0x33d4a28ea702221b2f7e5b55ed285e08473c42580ca6876fecc29a674526249f",
          "blockNumber": "0x7316da",
          "transactionHash": "0x1a2193e1fcc22a7ae160d365c09d9e979fbed1817a3f95de3967fc81a6f73899",
          "transactionIndex": "0x7f",
          "logIndex": "0x8b",
          "removed": false
        },
        {
          "address": "0x8aafd3ede9adb0ff97c7aebce82a919afb1c8764",
          "topics": [
            "0xddf252ad1be2c89b69c2b068fc378daa952ba7f163c4a11628f55a4df523b3ef",
            "0x000000000000000000000000c77f7fed3b5cc8249adc428c5f44c9063b9734b4",
            "0x000000000000000000000000c77f7fed3b5cc8249adc428c5f44c9063b9734b4"
          ],
          "data": "0x00000000000000000000000000000000000000000000000000014c2fa2e30ada",
          "blockHash": "0x33d4a28ea702221b2f7e5b55ed285e08473c42580ca6876fecc29a674526249f",
          "blockNumber": "0x7316da",
          "transactionHash": "0x1a2193e1fcc22a7ae160d365c09d9e979fbed1817a3f95de3967fc81a6f73899",
          "transactionIndex": "0x7f",
          "logIndex": "0x8c",
          "removed": false
        },
        {
          "address": "0x8aafd3ede9adb0ff97c7aebce82a919afb1c8764",
          "topics": [
            "0x4afcb4a87cdbd9974efdb92ee48bc8d7cd0ae4bf217004db3d080cbaee652ca7"
          ],
          "data": "0x0000000000000000000000000000000000000000000000000000000067900ef00000000000000000000000000000000000000000000000000004f3780905e7d4000000000000000000000000000000000000000000000000000039dddea05e68",
          "blockHash": "0x33d4a28ea702221b2f7e5b55ed285e08473c42580ca6876fecc29a674526249f",
          "blockNumber": "0x7316da",
          "transactionHash": "0x1a2193e1fcc22a7ae160d365c09d9e979fbed1817a3f95de3967fc81a6f73899",
          "transactionIndex": "0x7f",
          "logIndex": "0x8d",
          "removed": false
        }
      ],
      "logsBloom": "0x00000000000000000000000000000000000000000600000000000000000000000000000000000000000000000000000000000000000000004000000000000000000000000000004000000008000000000000000000000000000000000000000000000000020000000000000000000800020000000000000000000010000000000000000000000000000000000000000000000000000000000000010000000000000000000000000000000000000000004000000000000000000000000000000000000002000000800000000000000000000000000000080000000000000020000000000000000000000000000000000000000000000000000000000000000000",
      "type": "0x2",
      "transactionHash": "0x1a2193e1fcc22a7ae160d365c09d9e979fbed1817a3f95de3967fc81a6f73899",
      "transactionIndex": "0x7f",
      "blockHash": "0x33d4a28ea702221b2f7e5b55ed285e08473c42580ca6876fecc29a674526249f",
      "blockNumber": "0x7316da",
      "gasUsed": "0xfd33",
      "effectiveGasPrice": "0x3f1bd83c",
      "from": "0xc77f7fed3b5cc8249adc428c5f44c9063b9734b4",
      "to": "0x8aafd3ede9adb0ff97c7aebce82a919afb1c8764",
      "contractAddress": null
    }
  ],
  "libraries": [],
  "pending": [],
  "returns": {},
  "timestamp": 1737494256,
  "chain": 11155111,
  "commit": "1d2fb70"
}