{
  "transactions": [
    {
      "hash": "0x45adf9cd3914473f5359ee61ffd2fa56e9c128f893f153c3cc70f8d1d207781e",
      "transactionType": "CALL",
      "contractName": null,
      "contractAddress": "0xbf4a322f1496e5c3d34a9bcdb4c60567b38c7de2",
      "function": "sell(uint256)",
      "arguments": [
        "989666813696470831127"
      ],
      "transaction": {
        "from": "0xc77f7fed3b5cc8249adc428c5f44c9063b9734b4",
        "to": "0xbf4a322f1496e5c3d34a9bcdb4c60567b38c7de2",
        "gas": "0x16fea",
        "value": "0x0",
        "input": "0xe4849b32000000000000000000000000000000000000000000000035a662d393d2d65017",
        "nonce": "0x94f",
        "chainId": "0xaa36a7"
      },
      "additionalContracts": [],
      "isFixedGasLimit": false
    }
  ],
  "receipts": [
    {
      "status": "0x1",
      "cumulativeGasUsed": "0x12163dd",
      "logs": [
        {
          "address": "0xbf4a322f1496e5c3d34a9bcdb4c60567b38c7de2",
          "topics": [
            "0xddf252ad1be2c89b69c2b068fc378daa952ba7f163c4a11628f55a4df523b3ef",
            "0x000000000000000000000000c77f7fed3b5cc8249adc428c5f44c9063b9734b4",
            "0x0000000000000000000000000000000000000000000000000000000000000000"
          ],
          "data": "0x000000000000000000000000000000000000000000000035a662d393d2d65017",
          "blockHash": "0x9133a7d6cf90db4b4fdeacfdb4292c62252f0960e9295c61d5d4819efab1280f",
          "blockNumber": "0x7258de",
          "transactionHash": "0x45adf9cd3914473f5359ee61ffd2fa56e9c128f893f153c3cc70f8d1d207781e",
          "transactionIndex": "0xa9",
          "logIndex": "0x111",
          "removed": false
        },
        {
          "address": "0xbf4a322f1496e5c3d34a9bcdb4c60567b38c7de2",
          "topics": [
            "0x4afcb4a87cdbd9974efdb92ee48bc8d7cd0ae4bf217004db3d080cbaee652ca7"
          ],
          "data": "0x0000000000000000000000000000000000000000000000000000000067871c9400000000000000000000000000000000000000000000000000039095fc489cf10000000000000000000000000000000000000000000000000dc7e3f88aaa201a",
          "blockHash": "0x9133a7d6cf90db4b4fdeacfdb4292c62252f0960e9295c61d5d4819efab1280f",
          "blockNumber": "0x7258de",
          "transactionHash": "0x45adf9cd3914473f5359ee61ffd2fa56e9c128f893f153c3cc70f8d1d207781e",
          "transactionIndex": "0xa9",
          "logIndex": "0x112",
          "removed": false
        }
      ],
      "logsBloom": "0x00000000000000000000000000000000000000000000000000000000000000000000000000000000000000000000000000000000000000004000000000000000000000000000000000000008000000000000001000000000000000000000000000000000020000000000000000000800020000000000000000000010000000000000000000000000000000000000000000000000000008000000010000000000000000000000000000000000000000004000000000000000000000000000000000000002000000800000000000001000000000000000080000000000000020000000000000000000000000000000000000000000000000000000000000000000",
      "type": "0x2",
      "transactionHash": "0x45adf9cd3914473f5359ee61ffd2fa56e9c128f893f153c3cc70f8d1d207781e",
      "transactionIndex": "0xa9",
      "blockHash": "0x9133a7d6cf90db4b4fdeacfdb4292c62252f0960e9295c61d5d4819efab1280f",
      "blockNumber": "0x7258de",
      "gasUsed": "0xfb91",
      "effectiveGasPrice": "0x5d0481c8",
      "from": "0xc77f7fed3b5cc8249adc428c5f44c9063b9734b4",
      "to": "0xbf4a322f1496e5c3d34a9bcdb4c60567b38c7de2",
      "contractAddress": null
    }
  ],
  "libraries": [],
  "pending": [],
  "returns": {},
  "timestamp": 1736907926,
  "chain": 11155111,
  "commit": "51a374b"
}