{
  "transactions": [
    {
      "hash": "0xb4782f94a82851142e789c6afeca3cf76f3c8dfeca40f7eb684e9b84c1997b77",
      "transactionType": "CALL",
      "contractName": null,
      "contractAddress": "0x270e88f8683660553e8ba4eb2ad7c91a1710d769",
      "function": "buy(address)",
      "arguments": [
        "0xC77f7fed3b5Cc8249aDc428c5F44C9063B9734b4"
      ],
      "transaction": {
        "from": "0xc77f7fed3b5cc8249adc428c5f44c9063b9734b4",
        "to": "0x270e88f8683660553e8ba4eb2ad7c91a1710d769",
        "gas": "0x1b30c",
        "value": "0xde0b6b3a7640000",
        "input": "0xf088d547000000000000000000000000c77f7fed3b5cc8249adc428c5f44c9063b9734b4",
        "nonce": "0x7b5",
        "chainId": "0xaa36a7"
      },
      "additionalContracts": [],
      "isFixedGasLimit": false
    }
  ],
  "receipts": [
    {
      "status": "0x1",
      "cumulativeGasUsed": "0xf08a3d",
      "logs": [
        {
          "address": "0x270e88f8683660553e8ba4eb2ad7c91a1710d769",
          "topics": [
            "0xddf252ad1be2c89b69c2b068fc378daa952ba7f163c4a11628f55a4df523b3ef",
            "0x0000000000000000000000000000000000000000000000000000000000000000",
            "0x000000000000000000000000c77f7fed3b5cc8249adc428c5f44c9063b9734b4"
          ],
          "data": "0x00000000000000000000000000000000000000000000002769d3e446212b362d",
          "blockHash": "0x92fd37822bd2938ce814de4457ef62816663cfbb7648b3e43cbf76f72dfe2c2c",
          "blockNumber": "0x7254eb",
          "transactionHash": "0xb4782f94a82851142e789c6afeca3cf76f3c8dfeca40f7eb684e9b84c1997b77",
          "transactionIndex": "0x32",
          "logIndex": "0x59",
          "removed": false
        },
        {
          "address": "0x270e88f8683660553e8ba4eb2ad7c91a1710d769",
          "topics": [
            "0xddf252ad1be2c89b69c2b068fc378daa952ba7f163c4a11628f55a4df523b3ef",
            "0x0000000000000000000000000000000000000000000000000000000000000000",
            "0x000000000000000000000000c77f7fed3b5cc8249adc428c5f44c9063b9734b4"
          ],
          "data": "0x0000000000000000000000000000000000000000000000001e9b186a61667c6c",
          "blockHash": "0x92fd37822bd2938ce814de4457ef62816663cfbb7648b3e43cbf76f72dfe2c2c",
          "blockNumber": "0x7254eb",
          "transactionHash": "0xb4782f94a82851142e789c6afeca3cf76f3c8dfeca40f7eb684e9b84c1997b77",
          "transactionIndex": "0x32",
          "logIndex": "0x5a",
          "removed": false
        },
        {
          "address": "0x270e88f8683660553e8ba4eb2ad7c91a1710d769",
          "topics": [
            "0x4afcb4a87cdbd9974efdb92ee48bc8d7cd0ae4bf217004db3d080cbaee652ca7"
          ],
          "data": "0x000000000000000000000000000000000000000000000000000000006786ed0c0000000000000000000000000000000000000000000000000004d6893210b1b50000000000000000000000000000000000000000000000000de0b6b3a7640000",
          "blockHash": "0x92fd37822bd2938ce814de4457ef62816663cfbb7648b3e43cbf76f72dfe2c2c",
          "blockNumber": "0x7254eb",
          "transactionHash": "0xb4782f94a82851142e789c6afeca3cf76f3c8dfeca40f7eb684e9b84c1997b77",
          "transactionIndex": "0x32",
          "logIndex": "0x5b",
          "removed": false
        }
      ],
      "logsBloom": "0x00000000000000000000000000000000000000000000000000000000000000000000000000000000000000000000000020000000000000004000000000000000000000000000000000000008000000000000000000000000000000000000000000000000020000000000000000000800020000000000000000000010000000000000000000010000000000000000000000000000000000000000010000000000000000000000000000000000000000004000000000000000000000000000000000000002000000800000000000000000000000000000080000008000000020000000000000000000000000000000000000000000000000000000000000000000",
      "type": "0x2",
      "transactionHash": "0xb4782f94a82851142e789c6afeca3cf76f3c8dfeca40f7eb684e9b84c1997b77",
      "transactionIndex": "0x32",
      "blockHash": "0x92fd37822bd2938ce814de4457ef62816663cfbb7648b3e43cbf76f72dfe2c2c",
      "blockNumber": "0x7254eb",
      "gasUsed": "0x13af8",
      "effectiveGasPrice": "0xd0b30c08",
      "from": "0xc77f7fed3b5cc8249adc428c5f44c9063b9734b4",
      "to": "0x270e88f8683660553e8ba4eb2ad7c91a1710d769",
      "contractAddress": null
    }
  ],
  "libraries": [],
  "pending": [],
  "returns": {},
  "timestamp": 1736895758,
  "chain": 11155111,
  "commit": "51a374b"
}