{
  "transactions": [
    {
      "hash": "0x59ea2c1995b80c9d38928352b0d5084974913ad9d7beb1d763dc20c74848e23d",
      "transactionType": "CALL",
      "contractName": null,
      "contractAddress": "0x270e88f8683660553e8ba4eb2ad7c91a1710d769",
      "function": "sell(uint256)",
      "arguments": [
        "723435504172299204728"
      ],
      "transaction": {
        "from": "0xc77f7fed3b5cc8249adc428c5f44c9063b9734b4",
        "to": "0x270e88f8683660553e8ba4eb2ad7c91a1710d769",
        "gas": "0x16fec",
        "value": "0x0",
        "input": "0xe4849b3200000000000000000000000000000000000000000000002737af361e7f843878",
        "nonce": "0x7fa",
        "chainId": "0xaa36a7"
      },
      "additionalContracts": [],
      "isFixedGasLimit": false
    }
  ],
  "receipts": [
    {
      "status": "0x1",
      "cumulativeGasUsed": "0x657a5a",
      "logs": [
        {
          "address": "0x270e88f8683660553e8ba4eb2ad7c91a1710d769",
          "topics": [
            "0xddf252ad1be2c89b69c2b068fc378daa952ba7f163c4a11628f55a4df523b3ef",
            "0x000000000000000000000000c77f7fed3b5cc8249adc428c5f44c9063b9734b4",
            "0x0000000000000000000000000000000000000000000000000000000000000000"
          ],
          "data": "0x00000000000000000000000000000000000000000000002737af361e7f843878",
          "blockHash": "0x534395ca8cf2c590541073e13f8d84771237fa15bf0ba14cc40bc15341734a9a",
          "blockNumber": "0x725537",
          "transactionHash": "0x59ea2c1995b80c9d38928352b0d5084974913ad9d7beb1d763dc20c74848e23d",
          "transactionIndex": "0x47",
          "logIndex": "0x6e",
          "removed": false
        },
        {
          "address": "0x270e88f8683660553e8ba4eb2ad7c91a1710d769",
          "topics": [
            "0x4afcb4a87cdbd9974efdb92ee48bc8d7cd0ae4bf217004db3d080cbaee652ca7"
          ],
          "data": "0x000000000000000000000000000000000000000000000000000000006786f09c0000000000000000000000000000000000000000000000000004e0af4e9391560000000000000000000000000000000000000000000000000dc826c8fd16df1a",
          "blockHash": "0x534395ca8cf2c590541073e13f8d84771237fa15bf0ba14cc40bc15341734a9a",
          "blockNumber": "0x725537",
          "transactionHash": "0x59ea2c1995b80c9d38928352b0d5084974913ad9d7beb1d763dc20c74848e23d",
          "transactionIndex": "0x47",
          "logIndex": "0x6f",
          "removed": false
        }
      ],
      "logsBloom": "0x00000000000000000000000000000000000000000000000000000000000000000000000000000000000000000000000020000000000000004000000000000000000000000000000000000008000000000000000000000000000000000000000000000000020000000000000000000800020000000000000000000010000000000000000000010000000000000000000000000000000000000000010000000000000000000000000000000000000000004000000000000000000000000000000000000002000000800000000000000000000000000000080000008000000020000000000000000000000000000000000000000000000000000000000000000000",
      "type": "0x2",
      "transactionHash": "0x59ea2c1995b80c9d38928352b0d5084974913ad9d7beb1d763dc20c74848e23d",
      "transactionIndex": "0x47",
      "blockHash": "0x534395ca8cf2c590541073e13f8d84771237fa15bf0ba14cc40bc15341734a9a",
      "blockNumber": "0x725537",
      "gasUsed": "0xfb93",
      "effectiveGasPrice": "0x9cd5dead",
      "from": "0xc77f7fed3b5cc8249adc428c5f44c9063b9734b4",
      "to": "0x270e88f8683660553e8ba4eb2ad7c91a1710d769",
      "contractAddress": null
    }
  ],
  "libraries": [],
  "pending": [],
  "returns": {},
  "timestamp": 1736896669,
  "chain": 11155111,
  "commit": "51a374b"
}