{
  "transactions": [
    {
      "hash": "0xa3c466730945af95ec7a2ce4741cc91cd2540aece3e4ac4142903a1404d6cb02",
      "transactionType": "CALL",
      "contractName": null,
      "contractAddress": "0x5eb9cc76c3506942c1c0ead70e877dd5e4f00cb0",
      "function": "sell(uint256)",
      "arguments": [
        "989149082341775926847"
      ],
      "transaction": {
        "from": "0xc77f7fed3b5cc8249adc428c5f44c9063b9734b4",
        "to": "0x5eb9cc76c3506942c1c0ead70e877dd5e4f00cb0",
        "gas": "0x16fec",
        "value": "0x0",
        "input": "0xe4849b320000000000000000000000000000000000000000000000359f3379a7452a663f",
        "nonce": "0x2cd",
        "chainId": "0xaa36a7"
      },
      "additionalContracts": [],
      "isFixedGasLimit": false
    }
  ],
  "receipts": [
    {
      "status": "0x1",
      "cumulativeGasUsed": "0xaf9565",
      "logs": [
        {
          "address": "0x5eb9cc76c3506942c1c0ead70e877dd5e4f00cb0",
          "topics": [
            "0xddf252ad1be2c89b69c2b068fc378daa952ba7f163c4a11628f55a4df523b3ef",
            "0x000000000000000000000000c77f7fed3b5cc8249adc428c5f44c9063b9734b4",
            "0x0000000000000000000000000000000000000000000000000000000000000000"
          ],
          "data": "0x0000000000000000000000000000000000000000000000359f3379a7452a663f",
          "blockHash": "0x64c30110103174a6c61250a59f4bf914466ef43085786bda81eb79a27afce162",
          "blockNumber": "0x724ea9",
          "transactionHash": "0xa3c466730945af95ec7a2ce4741cc91cd2540aece3e4ac4142903a1404d6cb02",
          "transactionIndex": "0x57",
          "logIndex": "0x72",
          "removed": false
        },
        {
          "address": "0x5eb9cc76c3506942c1c0ead70e877dd5e4f00cb0",
          "topics": [
            "0x4afcb4a87cdbd9974efdb92ee48bc8d7cd0ae4bf217004db3d080cbaee652ca7"
          ],
          "data": "0x000000000000000000000000000000000000000000000000000000006786a1a000000000000000000000000000000000000000000000000000039109df8dc40b0000000000000000000000000000000000000000000000000dc7db13323ec8af",
          "blockHash": "0x64c30110103174a6c61250a59f4bf914466ef43085786bda81eb79a27afce162",
          "blockNumber": "0x724ea9",
          "transactionHash": "0xa3c466730945af95ec7a2ce4741cc91cd2540aece3e4ac4142903a1404d6cb02",
          "transactionIndex": "0x57",
          "logIndex": "0x73",
          "removed": false
        }
      ],
      "logsBloom": "0x00000000000000000000000000000000000000000000000000000000000000000000000000000000000000000000000000000000000000004000000000000000000000000000000000000008000000000000000000000000000000000000000000000000020000000000000004000800020000000000000000000010000000000000000000000000000000000000000000000000000000000000010000000000000000000000000000000000000000004000000000000000000000000000020000000002000000800000008000000000000000000000080000000000000020000000000000000000000000000000000000000000000000000000000000000000",
      "type": "0x2",
      "transactionHash": "0xa3c466730945af95ec7a2ce4741cc91cd2540aece3e4ac4142903a1404d6cb02",
      "transactionIndex": "0x57",
      "blockHash": "0x64c30110103174a6c61250a59f4bf914466ef43085786bda81eb79a27afce162",
      "blockNumber": "0x724ea9",
      "gasUsed": "0xfb93",
      "effectiveGasPrice": "0x4838a5618",
      "from": "0xc77f7fed3b5cc8249adc428c5f44c9063b9734b4",
      "to": "0x5eb9cc76c3506942c1c0ead70e877dd5e4f00cb0",
      "contractAddress": null
    }
  ],
  "libraries": [],
  "pending": [],
  "returns": {},
  "timestamp": 1736876450,
  "chain": 11155111,
  "commit": "51a374b"
}