{
  "transactions": [
    {
      "hash": "0x927970597c220cdb8fffdf051382a4f4fcd1131c033ba9f7c5a2965a7823588b",
      "transactionType": "CALL",
      "contractName": null,
      "contractAddress": "0xd7bc75898e513accccf720a874d44dab5a4b6223",
      "function": "buy(address)",
      "arguments": [
        "0xC77f7fed3b5Cc8249aDc428c5F44C9063B9734b4"
      ],
      "transaction": {
        "from": "0xc77f7fed3b5cc8249adc428c5f44c9063b9734b4",
        "to": "0xd7bc75898e513accccf720a874d44dab5a4b6223",
        "gas": "0x1b30c",
        "value": "0x2386f26fc10000",
        "input": "0xf088d547000000000000000000000000c77f7fed3b5cc8249adc428c5f44c9063b9734b4",
        "nonce": "0xea",
        "chainId": "0xaa36a7"
      },
      "additionalContracts": [],
      "isFixedGasLimit": false
    }
  ],
  "receipts": [
    {
      "status": "0x1",
      "cumulativeGasUsed": "0x7622f3",
      "logs": [
        {
          "address": "0xd7bc75898e513accccf720a874d44dab5a4b6223",
          "topics": [
            "0xddf252ad1be2c89b69c2b068fc378daa952ba7f163c4a11628f55a4df523b3ef",
            "0x0000000000000000000000000000000000000000000000000000000000000000",
            "0x000000000000000000000000c77f7fed3b5cc8249adc428c5f44c9063b9734b4"
          ],
          "data": "0x0000000000000000000000000000000000000000000000008963bac6cf528b93",
          "blockHash": "0x18ebfd230a6c6d58be14dc9f2c4169058518f685712fdc88c981c80e2db4c358",
          "blockNumber": "0x72396d",
          "transactionHash": "0x927970597c220cdb8fffdf051382a4f4fcd1131c033ba9f7c5a2965a7823588b",
          "transactionIndex": "0x3b",
          "logIndex": "0x45",
          "removed": false
        },
        {
          "address": "0xd7bc75898e513accccf720a874d44dab5a4b6223",
          "topics": [
            "0xddf252ad1be2c89b69c2b068fc378daa952ba7f163c4a11628f55a4df523b3ef",
            "0x0000000000000000000000000000000000000000000000000000000000000000",
            "0x000000000000000000000000c77f7fed3b5cc8249adc428c5f44c9063b9734b4"
          ],
          "data": "0x000000000000000000000000000000000000000000000000006ab00c3852685e",
          "blockHash": "0x18ebfd230a6c6d58be14dc9f2c4169058518f685712fdc88c981c80e2db4c358",
          "blockNumber": "0x72396d",
          "transactionHash": "0x927970597c220cdb8fffdf051382a4f4fcd1131c033ba9f7c5a2965a7823588b",
          "transactionIndex": "0x3b",
          "logIndex": "0x46",
          "removed": false
        },
        {
          "address": "0xd7bc75898e513accccf720a874d44dab5a4b6223",
          "topics": [
            "0x4afcb4a87cdbd9974efdb92ee48bc8d7cd0ae4bf217004db3d080cbaee652ca7"
          ],
          "data": "0x000000000000000000000000000000000000000000000000000000006785a26400000000000000000000000000000000000000000000000000038d7f8b05be55000000000000000000000000000000000000000000000000002386f26fc10000",
          "blockHash": "0x18ebfd230a6c6d58be14dc9f2c4169058518f685712fdc88c981c80e2db4c358",
          "blockNumber": "0x72396d",
          "transactionHash": "0x927970597c220cdb8fffdf051382a4f4fcd1131c033ba9f7c5a2965a7823588b",
          "transactionIndex": "0x3b",
          "logIndex": "0x47",
          "removed": false
        }
      ],
      "logsBloom": "0x00000000000000000000000000000000000000000000000000000000000000000000000000000000000000000000000000000000000000004000000000000000000000000000000000000008000000000000000000000000000000000000000000000000020000000000000000000800020000000000000000000010000000000000000000000000000000000000000000000000000000000000010000000000000000000000000000000000000000004000001000000000000000000000000000000002000000800000000000004000000000000000080000000000000020000000000000000000000000000000000000000000080000000000000000000000",
      "type": "0x2",
      "transactionHash": "0x927970597c220cdb8fffdf051382a4f4fcd1131c033ba9f7c5a2965a7823588b",
      "transactionIndex": "0x3b",
      "blockHash": "0x18ebfd230a6c6d58be14dc9f2c4169058518f685712fdc88c981c80e2db4c358",
      "blockNumber": "0x72396d",
      "gasUsed": "0x13af8",
      "effectiveGasPrice": "0x431ffae6",
      "from": "0xc77f7fed3b5cc8249adc428c5f44c9063b9734b4",
      "to": "0xd7bc75898e513accccf720a874d44dab5a4b6223",
      "contractAddress": null
    }
  ],
  "libraries": [],
  "pending": [],
  "returns": {},
  "timestamp": 1736811110,
  "chain": 11155111,
  "commit": "51a374b"
}