{
  "transactions": [
    {
      "hash": "0xf69b7d0ee9bdb9a70715301650f82627c380400f06c2ff77a7422149a949c1c1",
      "transactionType": "CALL",
      "contractName": null,
      "contractAddress": "0x8aafd3ede9adb0ff97c7aebce82a919afb1c8764",
      "function": "sell(uint256)",
      "arguments": [
        "55762800"
      ],
      "transaction": {
        "from": "0xc77f7fed3b5cc8249adc428c5f44c9063b9734b4",
        "to": "0x8aafd3ede9adb0ff97c7aebce82a919afb1c8764",
        "gas": "0x15d88",
        "value": "0x0",
        "input": "0xe4849b32000000000000000000000000000000000000000000000000000000000352df70",
        "nonce": "0x14e1",
        "chainId": "0xaa36a7"
      },
      "additionalContracts": [],
      "isFixedGasLimit": false
    }
  ],
  "receipts": [
    {
      "status": "0x1",
      "cumulativeGasUsed": "0x120cf86",
      "logs": [
        {
          "address": "0x8aafd3ede9adb0ff97c7aebce82a919afb1c8764",
          "topics": [
            "0xddf252ad1be2c89b69c2b068fc378daa952ba7f163c4a11628f55a4df523b3ef",
            "0x000000000000000000000000c77f7fed3b5cc8249adc428c5f44c9063b9734b4",
            "0x0000000000000000000000000000000000000000000000000000000000000000"
          ],
          "data": "0x00000000000000000000000000000000000000000000000000000000034c10da",
          "blockHash": "0x6aa4c78ddd4405e0235164d69c73d720ff9b4fd6f8dbef0f55c733c7602eda4e",
          "blockNumber": "0x731c3f",
          "transactionHash": "0xf69b7d0ee9bdb9a70715301650f82627c380400f06c2ff77a7422149a949c1c1",
          "transactionIndex": "0xa1",
          "logIndex": "0x106",
          "removed": false
        },
        {
          "address": "0x8aafd3ede9adb0ff97c7aebce82a919afb1c8764",
          "topics": [
            "0xddf252ad1be2c89b69c2b068fc378daa952ba7f163c4a11628f55a4df523b3ef",
            "0x000000000000000000000000c77f7fed3b5cc8249adc428c5f44c9063b9734b4",
            "0x000000000000000000000000c77f7fed3b5cc8249adc428c5f44c9063b9734b4"
          ],
          "data": "0x000000000000000000000000000000000000000000000000000000000006ce96",
          "blockHash": "0x6aa4c78ddd4405e0235164d69c73d720ff9b4fd6f8dbef0f55c733c7602eda4e",
          "blockNumber": "0x731c3f",
          "transactionHash": "0xf69b7d0ee9bdb9a70715301650f82627c380400f06c2ff77a7422149a949c1c1",
          "transactionIndex": "0xa1",
          "logIndex": "0x107",
          "removed": false
        },
        {
          "address": "0x8aafd3ede9adb0ff97c7aebce82a919afb1c8764",
          "topics": [
            "0x4afcb4a87cdbd9974efdb92ee48bc8d7cd0ae4bf217004db3d080cbaee652ca7"
          ],
          "data": "0x0000000000000000000000000000000000000000000000000000000067904fd00000000000000000000000000000000000000000000000000010b02e19a0ddf8000000000000000000000000000000000000000000000000000000000003ff2f",
          "blockHash": "0x6aa4c78ddd4405e0235164d69c73d720ff9b4fd6f8dbef0f55c733c7602eda4e",
          "blockNumber": "0x731c3f",
          "transactionHash": "0xf69b7d0ee9bdb9a70715301650f82627c380400f06c2ff77a7422149a949c1c1",
          "transactionIndex": "0xa1",
          "logIndex": "0x108",
          "removed": false
        }
      ],
      "logsBloom": "0x00000000000000000000000000000000000000000600000000000000000000000000000000000000000000000000000000000000000000004000000000000000000000000000004000000008000000000000000000000000000000000000000000000000020000000000000000000800020000000000000000000010000000000000000000000000000000000000000000000000000000000000010000000000000000000000000000000000000000004000000000000000000000000000000000000002000000800000000000000000000000000000080000000000000020000000000000000000000000000000000000000000000000000000000000000000",
      "type": "0x2",
      "transactionHash": "0xf69b7d0ee9bdb9a70715301650f82627c380400f06c2ff77a7422149a949c1c1",
      "transactionIndex": "0xa1",
      "blockHash": "0x6aa4c78ddd4405e0235164d69c73d720ff9b4fd6f8dbef0f55c733c7602eda4e",
      "blockNumber": "0x731c3f",
      "gasUsed": "0xfd0f",
      "effectiveGasPrice": "0x156848c12",
      "from": "0xc77f7fed3b5cc8249adc428c5f44c9063b9734b4",
      "to": "0x8aafd3ede9adb0ff97c7aebce82a919afb1c8764",
      "contractAddress": null
    }
  ],
  "libraries": [],
  "pending": [],
  "returns": {},
  "timestamp": 1737510868,
  "chain": 11155111,
  "commit": "1d2fb70"
}