{
  "transactions": [
    {
      "hash": "0xcaa73e92e88011c75eb7883c2f81e439debb4c9160d18ee4d35b86422a74ff54",
      "transactionType": "CALL",
      "contractName": null,
      "contractAddress": "0x8aafd3ede9adb0ff97c7aebce82a919afb1c8764",
      "function": "sell(uint256)",
      "arguments": [
        "19029667108323395"
      ],
      "transaction": {
        "from": "0xc77f7fed3b5cc8249adc428c5f44c9063b9734b4",
        "to": "0x8aafd3ede9adb0ff97c7aebce82a919afb1c8764",
        "gas": "0x1724d",
        "value": "0x0",
        "input": "0xe4849b3200000000000000000000000000000000000000000000000000439b61a42f8043",
        "nonce": "0x133f",
        "chainId": "0xaa36a7"
      },
      "additionalContracts": [],
      "isFixedGasLimit": false
    }
  ],
  "receipts": [
    {
      "status": "0x1",
      "cumulativeGasUsed": "0x203294e",
      "logs": [
        {
          "address": "0x8aafd3ede9adb0ff97c7aebce82a919afb1c8764",
          "topics": [
            "0xddf252ad1be2c89b69c2b068fc378daa952ba7f163c4a11628f55a4df523b3ef",
            "0x000000000000000000000000c77f7fed3b5cc8249adc428c5f44c9063b9734b4",
            "0x0000000000000000000000000000000000000000000000000000000000000000"
          ],
          "data": "0x000000000000000000000000000000000000000000000000004310ec1fccd128",
          "blockHash": "0x93e0a1270e5f8034cd15251a8a2ff272a75476b5451283ac3326a00591e0337f",
          "blockNumber": "0x731a58",
          "transactionHash": "0xcaa73e92e88011c75eb7883c2f81e439debb4c9160d18ee4d35b86422a74ff54",
          "transactionIndex": "0x5f",
          "logIndex": "0x110d",
          "removed": false
        },
        {
          "address": "0x8aafd3ede9adb0ff97c7aebce82a919afb1c8764",
          "topics": [
            "0xddf252ad1be2c89b69c2b068fc378daa952ba7f163c4a11628f55a4df523b3ef",
            "0x000000000000000000000000c77f7fed3b5cc8249adc428c5f44c9063b9734b4",
            "0x000000000000000000000000c77f7fed3b5cc8249adc428c5f44c9063b9734b4"
          ],
          "data": "0x00000000000000000000000000000000000000000000000000008a758462af1b",
          "blockHash": "0x93e0a1270e5f8034cd15251a8a2ff272a75476b5451283ac3326a00591e0337f",
          "blockNumber": "0x731a58",
          "transactionHash": "0xcaa73e92e88011c75eb7883c2f81e439debb4c9160d18ee4d35b86422a74ff54",
          "transactionIndex": "0x5f",
          "logIndex": "0x110e",
          "removed": false
        },
        {
          "address": "0x8aafd3ede9adb0ff97c7aebce82a919afb1c8764",
          "topics": [
            "0x4afcb4a87cdbd9974efdb92ee48bc8d7cd0ae4bf217004db3d080cbaee652ca7"
          ],
          "data": "0x00000000000000000000000000000000000000000000000000000000679038f0000000000000000000000000000000000000000000000000000bf75fc8e25e3700000000000000000000000000000000000000000000000000003a4b82e4d665",
          "blockHash": "0x93e0a1270e5f8034cd15251a8a2ff272a75476b5451283ac3326a00591e0337f",
          "blockNumber": "0x731a58",
          "transactionHash": "0xcaa73e92e88011c75eb7883c2f81e439debb4c9160d18ee4d35b86422a74ff54",
          "transactionIndex": "0x5f",
          "logIndex": "0x110f",
          "removed": false
        }
      ],
      "logsBloom": "0x00000000000000000000000000000000000000000600000000000000000000000000000000000000000000000000000000000000000000004000000000000000000000000000004000000008000000000000000000000000000000000000000000000000020000000000000000000800020000000000000000000010000000000000000000000000000000000000000000000000000000000000010000000000000000000000000000000000000000004000000000000000000000000000000000000002000000800000000000000000000000000000080000000000000020000000000000000000000000000000000000000000000000000000000000000000",
      "type": "0x2",
      "transactionHash": "0xcaa73e92e88011c75eb7883c2f81e439debb4c9160d18ee4d35b86422a74ff54",
      "transactionIndex": "0x5f",
      "blockHash": "0x93e0a1270e5f8034cd15251a8a2ff272a75476b5451283ac3326a00591e0337f",
      "blockNumber": "0x731a58",
      "gasUsed": "0xfd33",
      "effectiveGasPrice": "0x465d51db",
      "from": "0xc77f7fed3b5cc8249adc428c5f44c9063b9734b4",
      "to": "0x8aafd3ede9adb0ff97c7aebce82a919afb1c8764",
      "contractAddress": null
    }
  ],
  "libraries": [],
  "pending": [],
  "returns": {},
  "timestamp": 1737505009,
  "chain": 11155111,
  "commit": "1d2fb70"
}