{
  "transactions": [
    {
      "hash": "0xefe0b179053d22c4a79169b0ca3ce68ed6d76a3a91e01a70b1d0fbd039fb5707",
      "transactionType": "CALL",
      "contractName": null,
      "contractAddress": "0x5eb9cc76c3506942c1c0ead70e877dd5e4f00cb0",
      "function": "sell(uint256)",
      "arguments": [
        "989138564089422345917"
      ],
      "transaction": {
        "from": "0xc77f7fed3b5cc8249adc428c5f44c9063b9734b4",
        "to": "0x5eb9cc76c3506942c1c0ead70e877dd5e4f00cb0",
        "gas": "0x16fec",
        "value": "0x0",
        "input": "0xe4849b320000000000000000000000000000000000000000000000359f0e1b5bcdf8f6bd",
        "nonce": "0x30f",
        "chainId": "0xaa36a7"
      },
      "additionalContracts": [],
      "isFixedGasLimit": false
    }
  ],
  "receipts": [
    {
      "status": "0x1",
      "cumulativeGasUsed": "0xf624be",
      "logs": [
        {
          "address": "0x5eb9cc76c3506942c1c0ead70e877dd5e4f00cb0",
          "topics": [
            "0xddf252ad1be2c89b69c2b068fc378daa952ba7f163c4a11628f55a4df523b3ef",
            "0x000000000000000000000000c77f7fed3b5cc8249adc428c5f44c9063b9734b4",
            "0x0000000000000000000000000000000000000000000000000000000000000000"
          ],
          "data": "0x0000000000000000000000000000000000000000000000359f0e1b5bcdf8f6bd",
          "blockHash": "0x6484f98127a1fb778a9f17821211ab7c93e99712575214c28f6229696ba8a31e",
          "blockNumber": "0x724ef3",
          "transactionHash": "0xefe0b179053d22c4a79169b0ca3ce68ed6d76a3a91e01a70b1d0fbd039fb5707",
          "transactionIndex": "0x5a",
          "logIndex": "0x97",
          "removed": false
        },
        {
          "address": "0x5eb9cc76c3506942c1c0ead70e877dd5e4f00cb0",
          "topics": [
            "0x4afcb4a87cdbd9974efdb92ee48bc8d7cd0ae4bf217004db3d080cbaee652ca7"
          ],
          "data": "0x000000000000000000000000000000000000000000000000000000006786a5180000000000000000000000000000000000000000000000000003910c5bd81b2c0000000000000000000000000000000000000000000000000dc7db13322c116c",
          "blockHash": "0x6484f98127a1fb778a9f17821211ab7c93e99712575214c28f6229696ba8a31e",
          "blockNumber": "0x724ef3",
          "transactionHash": "0xefe0b179053d22c4a79169b0ca3ce68ed6d76a3a91e01a70b1d0fbd039fb5707",
          "transactionIndex": "0x5a",
          "logIndex": "0x98",
          "removed": false
        }
      ],
      "logsBloom": "0x00000000000000000000000000000000000000000000000000000000000000000000000000000000000000000000000000000000000000004000000000000000000000000000000000000008000000000000000000000000000000000000000000000000020000000000000004000800020000000000000000000010000000000000000000000000000000000000000000000000000000000000010000000000000000000000000000000000000000004000000000000000000000000000020000000002000000800000008000000000000000000000080000000000000020000000000000000000000000000000000000000000000000000000000000000000",
      "type": "0x2",
      "transactionHash": "0xefe0b179053d22c4a79169b0ca3ce68ed6d76a3a91e01a70b1d0fbd039fb5707",
      "transactionIndex": "0x5a",
      "blockHash": "0x6484f98127a1fb778a9f17821211ab7c93e99712575214c28f6229696ba8a31e",
      "blockNumber": "0x724ef3",
      "gasUsed": "0xfb93",
      "effectiveGasPrice": "0x6088c3c3c",
      "from": "0xc77f7fed3b5cc8249adc428c5f44c9063b9734b4",
      "to": "0x5eb9cc76c3506942c1c0ead70e877dd5e4f00cb0",
      "contractAddress": null
    }
  ],
  "libraries": [],
  "pending": [],
  "returns": {},
  "timestamp": 1736877337,
  "chain": 11155111,
  "commit": "51a374b"
}