{
  "transactions": [
    {
      "hash": "0xbc25d7c1ecb33d44b356f9fab3b82926607f33a0e83fc53b68cf838013dfe0e3",
      "transactionType": "CALL",
      "contractName": null,
      "contractAddress": "0x00972455a43df7d89f165c5b82f30c20247bb610",
      "function": "buy(address)",
      "arguments": [
        "0xC77f7fed3b5Cc8249aDc428c5F44C9063B9734b4"
      ],
      "transaction": {
        "from": "0xc77f7fed3b5cc8249adc428c5f44c9063b9734b4",
        "to": "0x00972455a43df7d89f165c5b82f30c20247bb610",
        "gas": "0x16aab",
        "value": "0x38d7ea4c68000",
        "input": "0xf088d547000000000000000000000000c77f7fed3b5cc8249adc428c5f44c9063b9734b4",
        "nonce": "0x1870",
        "chainId": "0xaa36a7"
      },
      "additionalContracts": [],
      "isFixedGasLimit": false
    }
  ],
  "receipts": [
    {
      "status": "0x1",
      "cumulativeGasUsed": "0x864371",
      "logs": [
        {
          "address": "0x00972455a43df7d89f165c5b82f30c20247bb610",
          "topics": [
            "0xddf252ad1be2c89b69c2b068fc378daa952ba7f163c4a11628f55a4df523b3ef",
            "0x0000000000000000000000000000000000000000000000000000000000000000",
            "0x000000000000000000000000c77f7fed3b5cc8249adc428c5f44c9063b9734b4"
          ],
          "data": "0x0000000000000000000000000000000000000000000000000dbabfc718fee822",
          "blockHash": "0xa9445d1634d2e13dbc371d2662ff89a3b6fb03ccb62ba26be945d60691222e99",
          "blockNumber": "0x737e4e",
          "transactionHash": "0xbc25d7c1ecb33d44b356f9fab3b82926607f33a0e83fc53b68cf838013dfe0e3",
          "transactionIndex": "0x67",
          "logIndex": "0xab",
          "removed": false
        },
        {
          "address": "0x00972455a43df7d89f165c5b82f30c20247bb610",
          "topics": [
            "0xddf252ad1be2c89b69c2b068fc378daa952ba7f163c4a11628f55a4df523b3ef",
            "0x0000000000000000000000000000000000000000000000000000000000000000",
            "0x000000000000000000000000c77f7fed3b5cc8249adc428c5f44c9063b9734b4"
          ],
          "data": "0x000000000000000000000000000000000000000000000000000aa9529527a385",
          "blockHash": "0xa9445d1634d2e13dbc371d2662ff89a3b6fb03ccb62ba26be945d60691222e99",
          "blockNumber": "0x737e4e",
          "transactionHash": "0xbc25d7c1ecb33d44b356f9fab3b82926607f33a0e83fc53b68cf838013dfe0e3",
          "transactionIndex": "0x67",
          "logIndex": "0xac",
          "removed": false
        },
        {
          "address": "0x00972455a43df7d89f165c5b82f30c20247bb610",
          "topics": [
            "0x4afcb4a87cdbd9974efdb92ee48bc8d7cd0ae4bf217004db3d080cbaee652ca7"
          ],
          "data": "0x000000000000000000000000000000000000000000000000000000006795115800000000000000000000000000000000000000000000000000038eb467d641cc00000000000000000000000000000000000000000000000000038d7ea4c68000",
          "blockHash": "0xa9445d1634d2e13dbc371d2662ff89a3b6fb03ccb62ba26be945d60691222e99",
          "blockNumber": "0x737e4e",
          "transactionHash": "0xbc25d7c1ecb33d44b356f9fab3b82926607f33a0e83fc53b68cf838013dfe0e3",
          "transactionIndex": "0x67",
          "logIndex": "0xad",
          "removed": false
        }
      ],
      "logsBloom": "0x00000000000000000000000000000000000000000000000000000000000000000000000000000000000000000000000000000000000000004400000000000000000000000000000000000008000000000000000000000000000000000000000000000000020000000000000000000800020000000000000000000010000000000000000000000000000000000000000000000000000000000000010000000000000000000000000000000000000000004000000000400000000040000000000000000002000000800000000000000000000000000000080000000000000020000000000000000000000000000000000000000000000000000000000000000000",
      "type": "0x2",
      "transactionHash": "0xbc25d7c1ecb33d44b356f9fab3b82926607f33a0e83fc53b68cf838013dfe0e3",
      "transactionIndex": "0x67",
      "blockHash": "0xa9445d1634d2e13dbc371d2662ff89a3b6fb03ccb62ba26be945d60691222e99",
      "blockNumber": "0x737e4e",
      "gasUsed": "0xf7fb",
      "effectiveGasPrice": "0x1f56d81fd",
      "from": "0xc77f7fed3b5cc8249adc428c5f44c9063b9734b4",
      "to": "0x00972455a43df7d89f165c5b82f30c20247bb610",
      "contractAddress": null
    }
  ],
  "libraries": [],
  "pending": [],
  "returns": {},
  "timestamp": 1737822554,
  "chain": 11155111,
  "commit": "f5162e9"
}