{
  "transactions": [
    {
      "hash": "0x0dae3555782ecb71bc3f49f4bae3ce6c6898884ac47c525c98671a984ae5e00b",
      "transactionType": "CALL",
      "contractName": null,
      "contractAddress": "0x8aafd3ede9adb0ff97c7aebce82a919afb1c8764",
      "function": "sell(uint256)",
      "arguments": [
        "1460839"
      ],
      "transaction": {
        "from": "0xc77f7fed3b5cc8249adc428c5f44c9063b9734b4",
        "to": "0x8aafd3ede9adb0ff97c7aebce82a919afb1c8764",
        "gas": "0x16208",
        "value": "0x0",
        "input": "0xe4849b320000000000000000000000000000000000000000000000000000000000164a67",
        "nonce": "0x112e",
        "chainId": "0xaa36a7"
      },
      "additionalContracts": [],
      "isFixedGasLimit": false
    }
  ],
  "receipts": [
    {
      "status": "0x1",
      "cumulativeGasUsed": "0x916aeb",
      "logs": [
        {
          "address": "0x8aafd3ede9adb0ff97c7aebce82a919afb1c8764",
          "topics": [
            "0xddf252ad1be2c89b69c2b068fc378daa952ba7f163c4a11628f55a4df523b3ef",
            "0x000000000000000000000000c77f7fed3b5cc8249adc428c5f44c9063b9734b4",
            "0x0000000000000000000000000000000000000000000000000000000000000000"
          ],
          "data": "0x0000000000000000000000000000000000000000000000000000000000161cc1",
          "blockHash": "0x13648761e5c61b19115cdd258184d9316a7448b5d89adfd0ac96acec547bed20",
          "blockNumber": "0x7317e5",
          "transactionHash": "0x0dae3555782ecb71bc3f49f4bae3ce6c6898884ac47c525c98671a984ae5e00b",
          "transactionIndex": "0x83",
          "logIndex": "0x82",
          "removed": false
        },
        {
          "address": "0x8aafd3ede9adb0ff97c7aebce82a919afb1c8764",
          "topics": [
            "0xddf252ad1be2c89b69c2b068fc378daa952ba7f163c4a11628f55a4df523b3ef",
            "0x000000000000000000000000c77f7fed3b5cc8249adc428c5f44c9063b9734b4",
            "0x000000000000000000000000c77f7fed3b5cc8249adc428c5f44c9063b9734b4"
          ],
          "data": "0x0000000000000000000000000000000000000000000000000000000000002da6",
          "blockHash": "0x13648761e5c61b19115cdd258184d9316a7448b5d89adfd0ac96acec547bed20",
          "blockNumber": "0x7317e5",
          "transactionHash": "0x0dae3555782ecb71bc3f49f4bae3ce6c6898884ac47c525c98671a984ae5e00b",
          "transactionIndex": "0x83",
          "logIndex": "0x83",
          "removed": false
        },
        {
          "address": "0x8aafd3ede9adb0ff97c7aebce82a919afb1c8764",
          "topics": [
            "0x4afcb4a87cdbd9974efdb92ee48bc8d7cd0ae4bf217004db3d080cbaee652ca7"
          ],
          "data": "0x0000000000000000000000000000000000000000000000000000000067901b80000000000000000000000000000000000000000000000000000511f8279d7e460000000000000000000000000000000000000000000000000000000000000824",
          "blockHash": "0x13648761e5c61b19115cdd258184d9316a7448b5d89adfd0ac96acec547bed20",
          "blockNumber": "0x7317e5",
          "transactionHash": "0x0dae3555782ecb71bc3f49f4bae3ce6c6898884ac47c525c98671a984ae5e00b",
          "transactionIndex": "0x83",
          "logIndex": "0x84",
          "removed": false
        }
      ],
      "logsBloom": "0x00000000000000000000000000000000000000000600000000000000000000000000000000000000000000000000000000000000000000004000000000000000000000000000004000000008000000000000000000000000000000000000000000000000020000000000000000000800020000000000000000000010000000000000000000000000000000000000000000000000000000000000010000000000000000000000000000000000000000004000000000000000000000000000000000000002000000800000000000000000000000000000080000000000000020000000000000000000000000000000000000000000000000000000000000000000",
      "type": "0x2",
      "transactionHash": "0x0dae3555782ecb71bc3f49f4bae3ce6c6898884ac47c525c98671a984ae5e00b",
      "transactionIndex": "0x83",
      "blockHash": "0x13648761e5c61b19115cdd258184d9316a7448b5d89adfd0ac96acec547bed20",
      "blockNumber": "0x7317e5",
      "gasUsed": "0xf213",
      "effectiveGasPrice": "0x45ec19f9",
      "from": "0xc77f7fed3b5cc8249adc428c5f44c9063b9734b4",
      "to": "0x8aafd3ede9adb0ff97c7aebce82a919afb1c8764",
      "contractAddress": null
    }
  ],
  "libraries": [],
  "pending": [],
  "returns": {},
  "timestamp": 1737497473,
  "chain": 11155111,
  "commit": "1d2fb70"
}