{
  "transactions": [
    {
      "hash": "0x051c56e514e8aa4fa9250ca6f98ae4fdedf313ad76acf2e8538bffc7a95473de",
      "transactionType": "CALL",
      "contractName": null,
      "contractAddress": "0x8aafd3ede9adb0ff97c7aebce82a919afb1c8764",
      "function": "sell(uint256)",
      "arguments": [
        "14235352392304630"
      ],
      "transaction": {
        "from": "0xc77f7fed3b5cc8249adc428c5f44c9063b9734b4",
        "to": "0x8aafd3ede9adb0ff97c7aebce82a919afb1c8764",
        "gas": "0x1724d",
        "value": "0x0",
        "input": "0xe4849b32000000000000000000000000000000000000000000000000003292fa429887f6",
        "nonce": "0x149e",
        "chainId": "0xaa36a7"
      },
      "additionalContracts": [],
      "isFixedGasLimit": false
    }
  ],
  "receipts": [
    {
      "status": "0x1",
      "cumulativeGasUsed": "0xb7fcae",
      "logs": [
        {
          "address": "0x8aafd3ede9adb0ff97c7aebce82a919afb1c8764",
          "topics": [
            "0xddf252ad1be2c89b69c2b068fc378daa952ba7f163c4a11628f55a4df523b3ef",
            "0x000000000000000000000000c77f7fed3b5cc8249adc428c5f44c9063b9734b4",
            "0x0000000000000000000000000000000000000000000000000000000000000000"
          ],
          "data": "0x00000000000000000000000000000000000000000000000000322b66d99d7471",
          "blockHash": "0x464624bb05afc297851172a9d63193c7b5d1a82135a195401b2a135e86adf0a9",
          "blockNumber": "0x731bf0",
          "transactionHash": "0x051c56e514e8aa4fa9250ca6f98ae4fdedf313ad76acf2e8538bffc7a95473de",
          "transactionIndex": "0x86",
          "logIndex": "0xc4",
          "removed": false
        },
        {
          "address": "0x8aafd3ede9adb0ff97c7aebce82a919afb1c8764",
          "topics": [
            "0xddf252ad1be2c89b69c2b068fc378daa952ba7f163c4a11628f55a4df523b3ef",
            "0x000000000000000000000000c77f7fed3b5cc8249adc428c5f44c9063b9734b4",
            "0x000000000000000000000000c77f7fed3b5cc8249adc428c5f44c9063b9734b4"
          ],
          "data": "0x0000000000000000000000000000000000000000000000000000679368fb1385",
          "blockHash": "0x464624bb05afc297851172a9d63193c7b5d1a82135a195401b2a135e86adf0a9",
          "blockNumber": "0x731bf0",
          "transactionHash": "0x051c56e514e8aa4fa9250ca6f98ae4fdedf313ad76acf2e8538bffc7a95473de",
          "transactionIndex": "0x86",
          "logIndex": "0xc5",
          "removed": false
        },
        {
          "address": "0x8aafd3ede9adb0ff97c7aebce82a919afb1c8764",
          "topics": [
            "0x4afcb4a87cdbd9974efdb92ee48bc8d7cd0ae4bf217004db3d080cbaee652ca7"
          ],
          "data": "0x0000000000000000000000000000000000000000000000000000000067904c1c000000000000000000000000000000000000000000000000000ff6c9d29fcb9700000000000000000000000000000000000000000000000000003a2d4653b542",
          "blockHash": "0x464624bb05afc297851172a9d63193c7b5d1a82135a195401b2a135e86adf0a9",
          "blockNumber": "0x731bf0",
          "transactionHash": "0x051c56e514e8aa4fa9250ca6f98ae4fdedf313ad76acf2e8538bffc7a95473de",
          "transactionIndex": "0x86",
          "logIndex": "0xc6",
          "removed": false
        }
      ],
      "logsBloom": "0x00000000000000000000000000000000000000000600000000000000000000000000000000000000000000000000000000000000000000004000000000000000000000000000004000000008000000000000000000000000000000000000000000000000020000000000000000000800020000000000000000000010000000000000000000000000000000000000000000000000000000000000010000000000000000000000000000000000000000004000000000000000000000000000000000000002000000800000000000000000000000000000080000000000000020000000000000000000000000000000000000000000000000000000000000000000",
      "type": "0x2",
      "transactionHash": "0x051c56e514e8aa4fa9250ca6f98ae4fdedf313ad76acf2e8538bffc7a95473de",
      "transactionIndex": "0x86",
      "blockHash": "0x464624bb05afc297851172a9d63193c7b5d1a82135a195401b2a135e86adf0a9",
      "blockNumber": "0x731bf0",
      "gasUsed": "0xfd33",
      "effectiveGasPrice": "0x10acc305e",
      "from": "0xc77f7fed3b5cc8249adc428c5f44c9063b9734b4",
      "to": "0x8aafd3ede9adb0ff97c7aebce82a919afb1c8764",
      "contractAddress": null
    }
  ],
  "libraries": [],
  "pending": [],
  "returns": {},
  "timestamp": 1737509917,
  "chain": 11155111,
  "commit": "1d2fb70"
}