{
  "transactions": [
    {
      "hash": "0xbc9937f8ee34a33185f0756a6a6eb398164ece5dc110ca2c2e9b8034a871066e",
      "transactionType": "CALL",
      "contractName": null,
      "contractAddress": "0x270e88f8683660553e8ba4eb2ad7c91a1710d769",
      "function": "buy(address)",
      "arguments": [
        "0xC77f7fed3b5Cc8249aDc428c5F44C9063B9734b4"
      ],
      "transaction": {
        "from": "0xc77f7fed3b5cc8249adc428c5f44c9063b9734b4",
        "to": "0x270e88f8683660553e8ba4eb2ad7c91a1710d769",
        "gas": "0x1b30c",
        "value": "0xde0b6b3a7640000",
        "input": "0xf088d547000000000000000000000000c77f7fed3b5cc8249adc428c5f44c9063b9734b4",
        "nonce": "0x7ed",
        "chainId": "0xaa36a7"
      },
      "additionalContracts": [],
      "isFixedGasLimit": false
    }
  ],
  "receipts": [
    {
      "status": "0x1",
      "cumulativeGasUsed": "0xa27860",
      "logs": [
        {
          "address": "0x270e88f8683660553e8ba4eb2ad7c91a1710d769",
          "topics": [
            "0xddf252ad1be2c89b69c2b068fc378daa952ba7f163c4a11628f55a4df523b3ef",
            "0x0000000000000000000000000000000000000000000000000000000000000000",
            "0x000000000000000000000000c77f7fed3b5cc8249adc428c5f44c9063b9734b4"
          ],
          "data": "0x000000000000000000000000000000000000000000000027276fadaa758b7a41",
          "blockHash": "0xd2aa498fd65046c1f977ba16a7e1a4b5630dd053952540d6161511b28d118883",
          "blockNumber": "0x725529",
          "transactionHash": "0xbc9937f8ee34a33185f0756a6a6eb398164ece5dc110ca2c2e9b8034a871066e",
          "transactionIndex": "0x5b",
          "logIndex": "0x9e",
          "removed": false
        },
        {
          "address": "0x270e88f8683660553e8ba4eb2ad7c91a1710d769",
          "topics": [
            "0xddf252ad1be2c89b69c2b068fc378daa952ba7f163c4a11628f55a4df523b3ef",
            "0x0000000000000000000000000000000000000000000000000000000000000000",
            "0x000000000000000000000000c77f7fed3b5cc8249adc428c5f44c9063b9734b4"
          ],
          "data": "0x0000000000000000000000000000000000000000000000001e678a46b34125ae",
          "blockHash": "0xd2aa498fd65046c1f977ba16a7e1a4b5630dd053952540d6161511b28d118883",
          "blockNumber": "0x725529",
          "transactionHash": "0xbc9937f8ee34a33185f0756a6a6eb398164ece5dc110ca2c2e9b8034a871066e",
          "transactionIndex": "0x5b",
          "logIndex": "0x9f",
          "removed": false
        },
        {
          "address": "0x270e88f8683660553e8ba4eb2ad7c91a1710d769",
          "topics": [
            "0x4afcb4a87cdbd9974efdb92ee48bc8d7cd0ae4bf217004db3d080cbaee652ca7"
          ],
          "data": "0x000000000000000000000000000000000000000000000000000000006786eff40000000000000000000000000000000000000000000000000004debd23e2c9dc0000000000000000000000000000000000000000000000000de0b6b3a7640000",
          "blockHash": "0xd2aa498fd65046c1f977ba16a7e1a4b5630dd053952540d6161511b28d118883",
          "blockNumber": "0x725529",
          "transactionHash": "0xbc9937f8ee34a33185f0756a6a6eb398164ece5dc110ca2c2e9b8034a871066e",
          "transactionIndex": "0x5b",
          "logIndex": "0xa0",
          "removed": false
        }
      ],
      "logsBloom": "0x00000000000000000000000000000000000000000000000000000000000000000000000000000000000000000000000020000000000000004000000000000000000000000000000000000008000000000000000000000000000000000000000000000000020000000000000000000800020000000000000000000010000000000000000000010000000000000000000000000000000000000000010000000000000000000000000000000000000000004000000000000000000000000000000000000002000000800000000000000000000000000000080000008000000020000000000000000000000000000000000000000000000000000000000000000000",
      "type": "0x2",
      "transactionHash": "0xbc9937f8ee34a33185f0756a6a6eb398164ece5dc110ca2c2e9b8034a871066e",
      "transactionIndex": "0x5b",
      "blockHash": "0xd2aa498fd65046c1f977ba16a7e1a4b5630dd053952540d6161511b28d118883",
      "blockNumber": "0x725529",
      "gasUsed": "0x13af8",
      "effectiveGasPrice": "0xad077912",
      "from": "0xc77f7fed3b5cc8249adc428c5f44c9063b9734b4",
      "to": "0x270e88f8683660553e8ba4eb2ad7c91a1710d769",
      "contractAddress": null
    }
  ],
  "libraries": [],
  "pending": [],
  "returns": {},
  "timestamp": 1736896502,
  "chain": 11155111,
  "commit": "51a374b"
}