{
  "transactions": [
    {
      "hash": "0x6106a13c3be8cde871185b5594fc10089db8e69ed034239b9af994233e414c2d",
      "transactionType": "CALL",
      "contractName": null,
      "contractAddress": "0x8aafd3ede9adb0ff97c7aebce82a919afb1c8764",
      "function": "sell(uint256)",
      "arguments": [
        "710917788011350580248"
      ],
      "transaction": {
        "from": "0xc77f7fed3b5cc8249adc428c5f44c9063b9734b4",
        "to": "0x8aafd3ede9adb0ff97c7aebce82a919afb1c8764",
        "gas": "0x17270",
        "value": "0x0",
        "input": "0xe4849b3200000000000000000000000000000000000000000000002689f75997ab01dc18",
        "nonce": "0x1073",
        "chainId": "0xaa36a7"
      },
      "additionalContracts": [],
      "isFixedGasLimit": false
    }
  ],
  "receipts": [
    {
      "status": "0x1",
      "cumulativeGasUsed": "0x10164bc",
      "logs": [
        {
          "address": "0x8aafd3ede9adb0ff97c7aebce82a919afb1c8764",
          "topics": [
            "0xddf252ad1be2c89b69c2b068fc378daa952ba7f163c4a11628f55a4df523b3ef",
            "0x000000000000000000000000c77f7fed3b5cc8249adc428c5f44c9063b9734b4",
            "0x0000000000000000000000000000000000000000000000000000000000000000"
          ],
          "data": "0x0000000000000000000000000000000000000000000000263b09d9e6539f8a77",
          "blockHash": "0x2f1e86d2d556825942105dfc6ccd8562a2bad974376452c83e9bff82b5b49bc9",
          "blockNumber": "0x7316fa",
          "transactionHash": "0x6106a13c3be8cde871185b5594fc10089db8e69ed034239b9af994233e414c2d",
          "transactionIndex": "0x8e",
          "logIndex": "0xd5",
          "removed": false
        },
        {
          "address": "0x8aafd3ede9adb0ff97c7aebce82a919afb1c8764",
          "topics": [
            "0xddf252ad1be2c89b69c2b068fc378daa952ba7f163c4a11628f55a4df523b3ef",
            "0x000000000000000000000000c77f7fed3b5cc8249adc428c5f44c9063b9734b4",
            "0x000000000000000000000000c77f7fed3b5cc8249adc428c5f44c9063b9734b4"
          ],
          "data": "0x0000000000000000000000000000000000000000000000004eed7fb1576251a1",
          "blockHash": "0x2f1e86d2d556825942105dfc6ccd8562a2bad974376452c83e9bff82b5b49bc9",
          "blockNumber": "0x7316fa",
          "transactionHash": "0x6106a13c3be8cde871185b5594fc10089db8e69ed034239b9af994233e414c2d",
          "transactionIndex": "0x8e",
          "logIndex": "0xd6",
          "removed": false
        },
        {
          "address": "0x8aafd3ede9adb0ff97c7aebce82a919afb1c8764",
          "topics": [
            "0x4afcb4a87cdbd9974efdb92ee48bc8d7cd0ae4bf217004db3d080cbaee652ca7"
          ],
          "data": "0x00000000000000000000000000000000000000000000000000000000679010700000000000000000000000000000000000000000000000000004f7d13220c62a0000000000000000000000000000000000000000000000000dc8fdeb21d7fd55",
          "blockHash": "0x2f1e86d2d556825942105dfc6ccd8562a2bad974376452c83e9bff82b5b49bc9",
          "blockNumber": "0x7316fa",
          "transactionHash": "0x6106a13c3be8cde871185b5594fc10089db8e69ed034239b9af994233e414c2d",
          "transactionIndex": "0x8e",
          "logIndex": "0xd7",
          "removed": false
        }
      ],
      "logsBloom": "0x00000000000000000000000000000000000000000600000000000000000000000000000000000000000000000000000000000000000000004000000000000000000000000000004000000008000000000000000000000000000000000000000000000000020000000000000000000800020000000000000000000010000000000000000000000000000000000000000000000000000000000000010000000000000000000000000000000000000000004000000000000000000000000000000000000002000000800000000000000000000000000000080000000000000020000000000000000000000000000000000000000000000000000000000000000000",
      "type": "0x2",
      "transactionHash": "0x6106a13c3be8cde871185b5594fc10089db8e69ed034239b9af994233e414c2d",
      "transactionIndex": "0x8e",
      "blockHash": "0x2f1e86d2d556825942105dfc6ccd8562a2bad974376452c83e9bff82b5b49bc9",
      "blockNumber": "0x7316fa",
      "gasUsed": "0xfd4b",
      "effectiveGasPrice": "0x44640f03",
      "from": "0xc77f7fed3b5cc8249adc428c5f44c9063b9734b4",
      "to": "0x8aafd3ede9adb0ff97c7aebce82a919afb1c8764",
      "contractAddress": null
    }
  ],
  "libraries": [],
  "pending": [],
  "returns": {},
  "timestamp": 1737494641,
  "chain": 11155111,
  "commit": "1d2fb70"
}