{
  "transactions": [
    {
      "hash": "0xca054e60ffc0432375d5005b60334d7aa09c62a4feda13f2b24f7386b7b0dce5",
      "transactionType": "CALL",
      "contractName": null,
      "contractAddress": "0x8aafd3ede9adb0ff97c7aebce82a919afb1c8764",
      "function": "sell(uint256)",
      "arguments": [
        "42852443136296338"
      ],
      "transaction": {
        "from": "0xc77f7fed3b5cc8249adc428c5f44c9063b9734b4",
        "to": "0x8aafd3ede9adb0ff97c7aebce82a919afb1c8764",
        "gas": "0x1724d",
        "value": "0x0",
        "input": "0xe4849b3200000000000000000000000000000000000000000000000000983e11eae58592",
        "nonce": "0x1291",
        "chainId": "0xaa36a7"
      },
      "additionalContracts": [],
      "isFixedGasLimit": false
    }
  ],
  "receipts": [
    {
      "status": "0x1",
      "cumulativeGasUsed": "0xb41c3e",
      "logs": [
        {
          "address": "0x8aafd3ede9adb0ff97c7aebce82a919afb1c8764",
          "topics": [
            "0xddf252ad1be2c89b69c2b068fc378daa952ba7f163c4a11628f55a4df523b3ef",
            "0x000000000000000000000000c77f7fed3b5cc8249adc428c5f44c9063b9734b4",
            "0x0000000000000000000000000000000000000000000000000000000000000000"
          ],
          "data": "0x0000000000000000000000000000000000000000000000000097064705b07c50",
          "blockHash": "0x5ebf6d1d97d74210e3d5169b21bb4de4117fb363bce06eec4357e9c2387b0551",
          "blockNumber": "0x731981",
          "transactionHash": "0xca054e60ffc0432375d5005b60334d7aa09c62a4feda13f2b24f7386b7b0dce5",
          "transactionIndex": "0x89",
          "logIndex": "0x89",
          "removed": false
        },
        {
          "address": "0x8aafd3ede9adb0ff97c7aebce82a919afb1c8764",
          "topics": [
            "0xddf252ad1be2c89b69c2b068fc378daa952ba7f163c4a11628f55a4df523b3ef",
            "0x000000000000000000000000c77f7fed3b5cc8249adc428c5f44c9063b9734b4",
            "0x000000000000000000000000c77f7fed3b5cc8249adc428c5f44c9063b9734b4"
          ],
          "data": "0x000000000000000000000000000000000000000000000000000137cae5350942",
          "blockHash": "0x5ebf6d1d97d74210e3d5169b21bb4de4117fb363bce06eec4357e9c2387b0551",
          "blockNumber": "0x731981",
          "transactionHash": "0xca054e60ffc0432375d5005b60334d7aa09c62a4feda13f2b24f7386b7b0dce5",
          "transactionIndex": "0x89",
          "logIndex": "0x8a",
          "removed": false
        },
        {
          "address": "0x8aafd3ede9adb0ff97c7aebce82a919afb1c8764",
          "topics": [
            "0x4afcb4a87cdbd9974efdb92ee48bc8d7cd0ae4bf217004db3d080cbaee652ca7"
          ],
          "data": "0x0000000000000000000000000000000000000000000000000000000067902edc00000000000000000000000000000000000000000000000000054646ddd6e39f000000000000000000000000000000000000000000000000000039dcd726271d",
          "blockHash": "0x5ebf6d1d97d74210e3d5169b21bb4de4117fb363bce06eec4357e9c2387b0551",
          "blockNumber": "0x731981",
          "transactionHash": "0xca054e60ffc0432375d5005b60334d7aa09c62a4feda13f2b24f7386b7b0dce5",
          "transactionIndex": "0x89",
          "logIndex": "0x8b",
          "removed": false
        }
      ],
      "logsBloom": "0x00000000000000000000000000000000000000000600000000000000000000000000000000000000000000000000000000000000000000004000000000000000000000000000004000000008000000000000000000000000000000000000000000000000020000000000000000000800020000000000000000000010000000000000000000000000000000000000000000000000000000000000010000000000000000000000000000000000000000004000000000000000000000000000000000000002000000800000000000000000000000000000080000000000000020000000000000000000000000000000000000000000000000000000000000000000",
      "type": "0x2",
      "transactionHash": "0xca054e60ffc0432375d5005b60334d7aa09c62a4feda13f2b24f7386b7b0dce5",
      "transactionIndex": "0x89",
      "blockHash": "0x5ebf6d1d97d74210e3d5169b21bb4de4117fb363bce06eec4357e9c2387b0551",
      "blockNumber": "0x731981",
      "gasUsed": "0xfd33",
      "effectiveGasPrice": "0x45bcfbb7",
      "from": "0xc77f7fed3b5cc8249adc428c5f44c9063b9734b4",
      "to": "0x8aafd3ede9adb0ff97c7aebce82a919afb1c8764",
      "contractAddress": null
    }
  ],
  "libraries": [],
  "pending": [],
  "returns": {},
  "timestamp": 1737502430,
  "chain": 11155111,
  "commit": "1d2fb70"
}