{
  "transactions": [
    {
      "hash": "0x1d4725314ed5f67cfd443c97eedccd298ddc58c2f61b97d1a502c5a613d773de",
      "transactionType": "CALL",
      "contractName": null,
      "contractAddress": "0x8aafd3ede9adb0ff97c7aebce82a919afb1c8764",
      "function": "sell(uint256)",
      "arguments": [
        "343189319463822"
      ],
      "transaction": {
        "from": "0xc77f7fed3b5cc8249adc428c5f44c9063b9734b4",
        "to": "0x8aafd3ede9adb0ff97c7aebce82a919afb1c8764",
        "gas": "0x1724d",
        "value": "0x0",
        "input": "0xe4849b3200000000000000000000000000000000000000000000000000013820fd7a338e",
        "nonce": "0x1288",
        "chainId": "0xaa36a7"
      },
      "additionalContracts": [],
      "isFixedGasLimit": false
    }
  ],
  "receipts": [
    {
      "status": "0x1",
      "cumulativeGasUsed": "0x9bc444",
      "logs": [
        {
          "address": "0x8aafd3ede9adb0ff97c7aebce82a919afb1c8764",
          "topics": [
            "0xddf252ad1be2c89b69c2b068fc378daa952ba7f163c4a11628f55a4df523b3ef",
            "0x000000000000000000000000c77f7fed3b5cc8249adc428c5f44c9063b9734b4",
            "0x0000000000000000000000000000000000000000000000000000000000000000"
          ],
          "data": "0x000000000000000000000000000000000000000000000000000135a1c00eba50",
          "blockHash": "0x4f9c3e8aa1475d1a339f562dd21a58307002fef64bb095de187b9b843ba06b05",
          "blockNumber": "0x731976",
          "transactionHash": "0x1d4725314ed5f67cfd443c97eedccd298ddc58c2f61b97d1a502c5a613d773de",
          "transactionIndex": "0x7e",
          "logIndex": "0x7b",
          "removed": false
        },
        {
          "address": "0x8aafd3ede9adb0ff97c7aebce82a919afb1c8764",
          "topics": [
            "0xddf252ad1be2c89b69c2b068fc378daa952ba7f163c4a11628f55a4df523b3ef",
            "0x000000000000000000000000c77f7fed3b5cc8249adc428c5f44c9063b9734b4",
            "0x000000000000000000000000c77f7fed3b5cc8249adc428c5f44c9063b9734b4"
          ],
          "data": "0x0000000000000000000000000000000000000000000000000000027f3d6b793e",
          "blockHash": "0x4f9c3e8aa1475d1a339f562dd21a58307002fef64bb095de187b9b843ba06b05",
          "blockNumber": "0x731976",
          "transactionHash": "0x1d4725314ed5f67cfd443c97eedccd298ddc58c2f61b97d1a502c5a613d773de",
          "transactionIndex": "0x7e",
          "logIndex": "0x7c",
          "removed": false
        },
        {
          "address": "0x8aafd3ede9adb0ff97c7aebce82a919afb1c8764",
          "topics": [
            "0x4afcb4a87cdbd9974efdb92ee48bc8d7cd0ae4bf217004db3d080cbaee652ca7"
          ],
          "data": "0x0000000000000000000000000000000000000000000000000000000067902e58000000000000000000000000000000000000000000000000000544d2d083818e0000000000000000000000000000000000000000000000000000007680bbc4a9",
          "blockHash": "0x4f9c3e8aa1475d1a339f562dd21a58307002fef64bb095de187b9b843ba06b05",
          "blockNumber": "0x731976",
          "transactionHash": "0x1d4725314ed5f67cfd443c97eedccd298ddc58c2f61b97d1a502c5a613d773de",
          "transactionIndex": "0x7e",
          "logIndex": "0x7d",
          "removed": false
        }
      ],
      "logsBloom": "0x00000000000000000000000000000000000000000600000000000000000000000000000000000000000000000000000000000000000000004000000000000000000000000000004000000008000000000000000000000000000000000000000000000000020000000000000000000800020000000000000000000010000000000000000000000000000000000000000000000000000000000000010000000000000000000000000000000000000000004000000000000000000000000000000000000002000000800000000000000000000000000000080000000000000020000000000000000000000000000000000000000000000000000000000000000000",
      "type": "0x2",
      "transactionHash": "0x1d4725314ed5f67cfd443c97eedccd298ddc58c2f61b97d1a502c5a613d773de",
      "transactionIndex": "0x7e",
      "blockHash": "0x4f9c3e8aa1475d1a339f562dd21a58307002fef64bb095de187b9b843ba06b05",
      "blockNumber": "0x731976",
      "gasUsed": "0xfd33",
      "effectiveGasPrice": "0x49b8a04b",
      "from": "0xc77f7fed3b5cc8249adc428c5f44c9063b9734b4",
      "to": "0x8aafd3ede9adb0ff97c7aebce82a919afb1c8764",
      "contractAddress": null
    }
  ],
  "libraries": [],
  "pending": [],
  "returns": {},
  "timestamp": 1737502296,
  "chain": 11155111,
  "commit": "1d2fb70"
}