{
  "transactions": [
    {
      "hash": "0x30f6f8bf6c646452b28edd1f51526eba69986e524649fa4819ae0b13e93572a9",
      "transactionType": "CALL",
      "contractName": null,
      "contractAddress": "0x8aafd3ede9adb0ff97c7aebce82a919afb1c8764",
      "function": "sell(uint256)",
      "arguments": [
        "285125858842137108712"
      ],
      "transaction": {
        "from": "0xc77f7fed3b5cc8249adc428c5f44c9063b9734b4",
        "to": "0x8aafd3ede9adb0ff97c7aebce82a919afb1c8764",
        "gas": "0x17270",
        "value": "0x0",
        "input": "0xe4849b3200000000000000000000000000000000000000000000000f74ea89f493c0a0e8",
        "nonce": "0x136a",
        "chainId": "0xaa36a7"
      },
      "additionalContracts": [],
      "isFixedGasLimit": false
    }
  ],
  "receipts": [
    {
      "status": "0x1",
      "cumulativeGasUsed": "0xc6cd6e",
      "logs": [
        {
          "address": "0x8aafd3ede9adb0ff97c7aebce82a919afb1c8764",
          "topics": [
            "0xddf252ad1be2c89b69c2b068fc378daa952ba7f163c4a11628f55a4df523b3ef",
            "0x000000000000000000000000c77f7fed3b5cc8249adc428c5f44c9063b9734b4",
            "0x0000000000000000000000000000000000000000000000000000000000000000"
          ],
          "data": "0x00000000000000000000000000000000000000000000000f5542c64aaf3e1043",
          "blockHash": "0x88f0b2d2b6e082ad7e975232a93babd388dcca0a246dea65e521c44cb803fa57",
          "blockNumber": "0x731a8a",
          "transactionHash": "0x30f6f8bf6c646452b28edd1f51526eba69986e524649fa4819ae0b13e93572a9",
          "transactionIndex": "0x82",
          "logIndex": "0x7c",
          "removed": false
        },
        {
          "address": "0x8aafd3ede9adb0ff97c7aebce82a919afb1c8764",
          "topics": [
            "0xddf252ad1be2c89b69c2b068fc378daa952ba7f163c4a11628f55a4df523b3ef",
            "0x000000000000000000000000c77f7fed3b5cc8249adc428c5f44c9063b9734b4",
            "0x000000000000000000000000c77f7fed3b5cc8249adc428c5f44c9063b9734b4"
          ],
          "data": "0x0000000000000000000000000000000000000000000000001fa7c3a9e48290a5",
          "blockHash": "0x88f0b2d2b6e082ad7e975232a93babd388dcca0a246dea65e521c44cb803fa57",
          "blockNumber": "0x731a8a",
          "transactionHash": "0x30f6f8bf6c646452b28edd1f51526eba69986e524649fa4819ae0b13e93572a9",
          "transactionIndex": "0x82",
          "logIndex": "0x7d",
          "removed": false
        },
        {
          "address": "0x8aafd3ede9adb0ff97c7aebce82a919afb1c8764",
          "topics": [
            "0x4afcb4a87cdbd9974efdb92ee48bc8d7cd0ae4bf217004db3d080cbaee652ca7"
          ],
          "data": "0x0000000000000000000000000000000000000000000000000000000067903b48000000000000000000000000000000000000000000000000000c7961ae84bb650000000000000000000000000000000000000000000000000dce9011265b1bbc",
          "blockHash": "0x88f0b2d2b6e082ad7e975232a93babd388dcca0a246dea65e521c44cb803fa57",
          "blockNumber": "0x731a8a",
          "transactionHash": "0x30f6f8bf6c646452b28edd1f51526eba69986e524649fa4819ae0b13e93572a9",
          "transactionIndex": "0x82",
          "logIndex": "0x7e",
          "removed": false
        }
      ],
      "logsBloom": "0x00000000000000000000000000000000000000000600000000000000000000000000000000000000000000000000000000000000000000004000000000000000000000000000004000000008000000000000000000000000000000000000000000000000020000000000000000000800020000000000000000000010000000000000000000000000000000000000000000000000000000000000010000000000000000000000000000000000000000004000000000000000000000000000000000000002000000800000000000000000000000000000080000000000000020000000000000000000000000000000000000000000000000000000000000000000",
      "type": "0x2",
      "transactionHash": "0x30f6f8bf6c646452b28edd1f51526eba69986e524649fa4819ae0b13e93572a9",
      "transactionIndex": "0x82",
      "blockHash": "0x88f0b2d2b6e082ad7e975232a93babd388dcca0a246dea65e521c44cb803fa57",
      "blockNumber": "0x731a8a",
      "gasUsed": "0xfd4b",
      "effectiveGasPrice": "0x5463618d",
      "from": "0xc77f7fed3b5cc8249adc428c5f44c9063b9734b4",
      "to": "0x8aafd3ede9adb0ff97c7aebce82a919afb1c8764",
      "contractAddress": null
    }
  ],
  "libraries": [],
  "pending": [],
  "returns": {},
  "timestamp": 1737505609,
  "chain": 11155111,
  "commit": "1d2fb70"
}