{
  "transactions": [
    {
      "hash": "0x96d8c8df245e2cb9958a4950220575804a9d6041cd174389650288e6a1331ebe",
      "transactionType": "CALL",
      "contractName": null,
      "contractAddress": "0x8aafd3ede9adb0ff97c7aebce82a919afb1c8764",
      "function": "sell(uint256)",
      "arguments": [
        "12445631728093902"
      ],
      "transaction": {
        "from": "0xc77f7fed3b5cc8249adc428c5f44c9063b9734b4",
        "to": "0x8aafd3ede9adb0ff97c7aebce82a919afb1c8764",
        "gas": "0x1724d",
        "value": "0x0",
        "input": "0xe4849b32000000000000000000000000000000000000000000000000002c373c72288ace",
        "nonce": "0x1564",
        "chainId": "0xaa36a7"
      },
      "additionalContracts": [],
      "isFixedGasLimit": false
    }
  ],
  "receipts": [
    {
      "status": "0x1",
      "cumulativeGasUsed": "0x10a559e",
      "logs": [
        {
          "address": "0x8aafd3ede9adb0ff97c7aebce82a919afb1c8764",
          "topics": [
            "0xddf252ad1be2c89b69c2b068fc378daa952ba7f163c4a11628f55a4df523b3ef",
            "0x000000000000000000000000c77f7fed3b5cc8249adc428c5f44c9063b9734b4",
            "0x0000000000000000000000000000000000000000000000000000000000000000"
          ],
          "data": "0x000000000000000000000000000000000000000000000000002bdcaea67e3bdf",
          "blockHash": "0xea90062294740682b507dfe880a13bb173828e2df12b7bb2e2142c0bb6650d03",
          "blockNumber": "0x731ccc",
          "transactionHash": "0x96d8c8df245e2cb9958a4950220575804a9d6041cd174389650288e6a1331ebe",
          "transactionIndex": "0x91",
          "logIndex": "0x112",
          "removed": false
        },
        {
          "address": "0x8aafd3ede9adb0ff97c7aebce82a919afb1c8764",
          "topics": [
            "0xddf252ad1be2c89b69c2b068fc378daa952ba7f163c4a11628f55a4df523b3ef",
            "0x000000000000000000000000c77f7fed3b5cc8249adc428c5f44c9063b9734b4",
            "0x000000000000000000000000c77f7fed3b5cc8249adc428c5f44c9063b9734b4"
          ],
          "data": "0x00000000000000000000000000000000000000000000000000005a8dcbaa4eef",
          "blockHash": "0xea90062294740682b507dfe880a13bb173828e2df12b7bb2e2142c0bb6650d03",
          "blockNumber": "0x731ccc",
          "transactionHash": "0x96d8c8df245e2cb9958a4950220575804a9d6041cd174389650288e6a1331ebe",
          "transactionIndex": "0x91",
          "logIndex": "0x113",
          "removed": false
        },
        {
          "address": "0x8aafd3ede9adb0ff97c7aebce82a919afb1c8764",
          "topics": [
            "0x4afcb4a87cdbd9974efdb92ee48bc8d7cd0ae4bf217004db3d080cbaee652ca7"
          ],
          "data": "0x000000000000000000000000000000000000000000000000000000006790567800000000000000000000000000000000000000000000000000123edda87c53e800000000000000000000000000000000000000000000000000003a21c198d887",
          "blockHash": "0xea90062294740682b507dfe880a13bb173828e2df12b7bb2e2142c0bb6650d03",
          "blockNumber": "0x731ccc",
          "transactionHash": "0x96d8c8df245e2cb9958a4950220575804a9d6041cd174389650288e6a1331ebe",
          "transactionIndex": "0x91",
          "logIndex": "0x114",
          "removed": false
        }
      ],
      "logsBloom": "0x00000000000000000000000000000000000000000600000000000000000000000000000000000000000000000000000000000000000000004000000000000000000000000000004000000008000000000000000000000000000000000000000000000000020000000000000000000800020000000000000000000010000000000000000000000000000000000000000000000000000000000000010000000000000000000000000000000000000000004000000000000000000000000000000000000002000000800000000000000000000000000000080000000000000020000000000000000000000000000000000000000000000000000000000000000000",
      "type": "0x2",
      "transactionHash": "0x96d8c8df245e2cb9958a4950220575804a9d6041cd174389650288e6a1331ebe",
      "transactionIndex": "0x91",
      "blockHash": "0xea90062294740682b507dfe880a13bb173828e2df12b7bb2e2142c0bb6650d03",
      "blockNumber": "0x731ccc",
      "gasUsed": "0xfd33",
      "effectiveGasPrice": "0x95d532a2",
      "from": "0xc77f7fed3b5cc8249adc428c5f44c9063b9734b4",
      "to": "0x8aafd3ede9adb0ff97c7aebce82a919afb1c8764",
      "contractAddress": null
    }
  ],
  "libraries": [],
  "pending": [],
  "returns": {},
  "timestamp": 1737512569,
  "chain": 11155111,
  "commit": "1d2fb70"
}