{
  "transactions": [
    {
      "hash": "0xff56f9a16346eb711d0b4aad658bb1c18145646f980262dc56bf9f387540fd9b",
      "transactionType": "CALL",
      "contractName": null,
      "contractAddress": "0x270e88f8683660553e8ba4eb2ad7c91a1710d769",
      "function": "sell(uint256)",
      "arguments": [
        "728736932662824540134"
      ],
      "transaction": {
        "from": "0xc77f7fed3b5cc8249adc428c5f44c9063b9734b4",
        "to": "0x270e88f8683660553e8ba4eb2ad7c91a1710d769",
        "gas": "0x16fec",
        "value": "0x0",
        "input": "0xe4849b320000000000000000000000000000000000000000000000278141ab3e3b6a17e6",
        "nonce": "0x7bc",
        "chainId": "0xaa36a7"
      },
      "additionalContracts": [],
      "isFixedGasLimit": false
    }
  ],
  "receipts": [
    {
      "status": "0x1",
      "cumulativeGasUsed": "0xdab029",
      "logs": [
        {
          "address": "0x270e88f8683660553e8ba4eb2ad7c91a1710d769",
          "topics": [
            "0xddf252ad1be2c89b69c2b068fc378daa952ba7f163c4a11628f55a4df523b3ef",
            "0x000000000000000000000000c77f7fed3b5cc8249adc428c5f44c9063b9734b4",
            "0x0000000000000000000000000000000000000000000000000000000000000000"
          ],
          "data": "0x0000000000000000000000000000000000000000000000278141ab3e3b6a17e6",
          "blockHash": "0x83e160d6eb2f563fcd74eba6b2a050c0fc3bedebf7b879d4c2d681fbdbbbf914",
          "blockNumber": "0x7254f3",
          "transactionHash": "0xff56f9a16346eb711d0b4aad658bb1c18145646f980262dc56bf9f387540fd9b",
          "transactionIndex": "0x8f",
          "logIndex": "0xf8",
          "removed": false
        },
        {
          "address": "0x270e88f8683660553e8ba4eb2ad7c91a1710d769",
          "topics": [
            "0x4afcb4a87cdbd9974efdb92ee48bc8d7cd0ae4bf217004db3d080cbaee652ca7"
          ],
          "data": "0x000000000000000000000000000000000000000000000000000000006786ed6c0000000000000000000000000000000000000000000000000004d79a5b9e37eb0000000000000000000000000000000000000000000000000dc8275582cf8c1d",
          "blockHash": "0x83e160d6eb2f563fcd74eba6b2a050c0fc3bedebf7b879d4c2d681fbdbbbf914",
          "blockNumber": "0x7254f3",
          "transactionHash": "0xff56f9a16346eb711d0b4aad658bb1c18145646f980262dc56bf9f387540fd9b",
          "transactionIndex": "0x8f",
          "logIndex": "0xf9",
          "removed": false
        }
      ],
      "logsBloom": "0x00000000000000000000000000000000000000000000000000000000000000000000000000000000000000000000000020000000000000004000000000000000000000000000000000000008000000000000000000000000000000000000000000000000020000000000000000000800020000000000000000000010000000000000000000010000000000000000000000000000000000000000010000000000000000000000000000000000000000004000000000000000000000000000000000000002000000800000000000000000000000000000080000008000000020000000000000000000000000000000000000000000000000000000000000000000",
      "type": "0x2",
      "transactionHash": "0xff56f9a16346eb711d0b4aad658bb1c18145646f980262dc56bf9f387540fd9b",
      "transactionIndex": "0x8f",
      "blockHash": "0x83e160d6eb2f563fcd74eba6b2a050c0fc3bedebf7b879d4c2d681fbdbbbf914",
      "blockNumber": "0x7254f3",
      "gasUsed": "0xfb93",
      "effectiveGasPrice": "0xb6032fed",
      "from": "0xc77f7fed3b5cc8249adc428c5f44c9063b9734b4",
      "to": "0x270e88f8683660553e8ba4eb2ad7c91a1710d769",
      "contractAddress": null
    }
  ],
  "libraries": [],
  "pending": [],
  "returns": {},
  "timestamp": 1736895854,
  "chain": 11155111,
  "commit": "51a374b"
}