{
  "transactions": [
    {
      "hash": "0x589e073d7b209d36743f1342b25a1d023d9b42bfb8a802a79118d9564013e2e0",
      "transactionType": "CALL",
      "contractName": null,
      "contractAddress": "0x8aafd3ede9adb0ff97c7aebce82a919afb1c8764",
      "function": "sell(uint256)",
      "arguments": [
        "78686989613785"
      ],
      "transaction": {
        "from": "0xc77f7fed3b5cc8249adc428c5f44c9063b9734b4",
        "to": "0x8aafd3ede9adb0ff97c7aebce82a919afb1c8764",
        "gas": "0x15daa",
        "value": "0x0",
        "input": "0xe4849b3200000000000000000000000000000000000000000000000000004790be107ad9",
        "nonce": "0x1703",
        "chainId": "0xaa36a7"
      },
      "additionalContracts": [],
      "isFixedGasLimit": false
    }
  ],
  "receipts": [
    {
      "status": "0x1",
      "cumulativeGasUsed": "0x8fe173",
      "logs": [
        {
          "address": "0x8aafd3ede9adb0ff97c7aebce82a919afb1c8764",
          "topics": [
            "0xddf252ad1be2c89b69c2b068fc378daa952ba7f163c4a11628f55a4df523b3ef",
            "0x000000000000000000000000c77f7fed3b5cc8249adc428c5f44c9063b9734b4",
            "0x0000000000000000000000000000000000000000000000000000000000000000"
          ],
          "data": "0x000000000000000000000000000000000000000000000000000046fe2d2f116b",
          "blockHash": "0x3917196eec12dcba2bbb84768968cab6e1581c2660043ffaa961b299190bdd33",
          "blockNumber": "0x731ec7",
          "transactionHash": "0x589e073d7b209d36743f1342b25a1d023d9b42bfb8a802a79118d9564013e2e0",
          "transactionIndex": "0x55",
          "logIndex": "0x8c",
          "removed": false
        },
        {
          "address": "0x8aafd3ede9adb0ff97c7aebce82a919afb1c8764",
          "topics": [
            "0xddf252ad1be2c89b69c2b068fc378daa952ba7f163c4a11628f55a4df523b3ef",
            "0x000000000000000000000000c77f7fed3b5cc8249adc428c5f44c9063b9734b4",
            "0x000000000000000000000000c77f7fed3b5cc8249adc428c5f44c9063b9734b4"
          ],
          "data": "0x0000000000000000000000000000000000000000000000000000009290e1696e",
          "blockHash": "0x3917196eec12dcba2bbb84768968cab6e1581c2660043ffaa961b299190bdd33",
          "blockNumber": "0x731ec7",
          "transactionHash": "0x589e073d7b209d36743f1342b25a1d023d9b42bfb8a802a79118d9564013e2e0",
          "transactionIndex": "0x55",
          "logIndex": "0x8d",
          "removed": false
        },
        {
          "address": "0x8aafd3ede9adb0ff97c7aebce82a919afb1c8764",
          "topics": [
            "0x4afcb4a87cdbd9974efdb92ee48bc8d7cd0ae4bf217004db3d080cbaee652ca7"
          ],
          "data": "0x0000000000000000000000000000000000000000000000000000000067906e3c00000000000000000000000000000000000000000000000000170f6a7216cc9a00000000000000000000000000000000000000000000000000000076eaea3824",
          "blockHash": "0x3917196eec12dcba2bbb84768968cab6e1581c2660043ffaa961b299190bdd33",
          "blockNumber": "0x731ec7",
          "transactionHash": "0x589e073d7b209d36743f1342b25a1d023d9b42bfb8a802a79118d9564013e2e0",
          "transactionIndex": "0x55",
          "logIndex": "0x8e",
          "removed": false
        }
      ],
      "logsBloom": "0x00000000000000000000000000000000000000000600000000000000000000000000000000000000000000000000000000000000000000004000000000000000000000000000004000000008000000000000000000000000000000000000000000000000020000000000000000000800020000000000000000000010000000000000000000000000000000000000000000000000000000000000010000000000000000000000000000000000000000004000000000000000000000000000000000000002000000800000000000000000000000000000080000000000000020000000000000000000000000000000000000000000000000000000000000000000",
      "type": "0x2",
      "transactionHash": "0x589e073d7b209d36743f1342b25a1d023d9b42bfb8a802a79118d9564013e2e0",
      "transactionIndex": "0x55",
      "blockHash": "0x3917196eec12dcba2bbb84768968cab6e1581c2660043ffaa961b299190bdd33",
      "blockNumber": "0x731ec7",
      "gasUsed": "0xfd27",
      "effectiveGasPrice": "0x774350fd",
      "from": "0xc77f7fed3b5cc8249adc428c5f44c9063b9734b4",
      "to": "0x8aafd3ede9adb0ff97c7aebce82a919afb1c8764",
      "contractAddress": null
    }
  ],
  "libraries": [],
  "pending": [],
  "returns": {},
  "timestamp": 1737518654,
  "chain": 11155111,
  "commit": "1d2fb70"
}