{
  "transactions": [
    {
      "hash": "0xf10b7828934f58dbc89ff31e34ce28fec2ca97183a579f5cb3a92d009ac09e6d",
      "transactionType": "CALL",
      "contractName": null,
      "contractAddress": "0x5eb9cc76c3506942c1c0ead70e877dd5e4f00cb0",
      "function": "buy(address)",
      "arguments": [
        "0xC77f7fed3b5Cc8249aDc428c5F44C9063B9734b4"
      ],
      "transaction": {
        "from": "0xc77f7fed3b5cc8249adc428c5f44c9063b9734b4",
        "to": "0x5eb9cc76c3506942c1c0ead70e877dd5e4f00cb0",
        "gas": "0x1b30c",
        "value": "0xde0b6b3a7640000",
        "input": "0xf088d547000000000000000000000000c77f7fed3b5cc8249adc428c5f44c9063b9734b4",
        "nonce": "0x2be",
        "chainId": "0xaa36a7"
      },
      "additionalContracts": [],
      "isFixedGasLimit": false
    }
  ],
  "receipts": [
    {
      "status": "0x1",
      "cumulativeGasUsed": "0x100e14b",
      "logs": [
        {
          "address": "0x5eb9cc76c3506942c1c0ead70e877dd5e4f00cb0",
          "topics": [
            "0xddf252ad1be2c89b69c2b068fc378daa952ba7f163c4a11628f55a4df523b3ef",
            "0x0000000000000000000000000000000000000000000000000000000000000000",
            "0x000000000000000000000000c77f7fed3b5cc8249adc428c5f44c9063b9734b4"
          ],
          "data": "0x00000000000000000000000000000000000000000000003575b7f97dee791fcb",
          "blockHash": "0xc5867e61a752719643f659908dadf9b79266bcb05a286762e1790c74588a3681",
          "blockNumber": "0x724e99",
          "transactionHash": "0xf10b7828934f58dbc89ff31e34ce28fec2ca97183a579f5cb3a92d009ac09e6d",
          "transactionIndex": "0x6e",
          "logIndex": "0xaf",
          "removed": false
        },
        {
          "address": "0x5eb9cc76c3506942c1c0ead70e877dd5e4f00cb0",
          "topics": [
            "0xddf252ad1be2c89b69c2b068fc378daa952ba7f163c4a11628f55a4df523b3ef",
            "0x0000000000000000000000000000000000000000000000000000000000000000",
            "0x000000000000000000000000c77f7fed3b5cc8249adc428c5f44c9063b9734b4"
          ],
          "data": "0x00000000000000000000000000000000000000000000000029836d66d483e98b",
          "blockHash": "0xc5867e61a752719643f659908dadf9b79266bcb05a286762e1790c74588a3681",
          "blockNumber": "0x724e99",
          "transactionHash": "0xf10b7828934f58dbc89ff31e34ce28fec2ca97183a579f5cb3a92d009ac09e6d",
          "transactionIndex": "0x6e",
          "logIndex": "0xb0",
          "removed": false
        },
        {
          "address": "0x5eb9cc76c3506942c1c0ead70e877dd5e4f00cb0",
          "topics": [
            "0x4afcb4a87cdbd9974efdb92ee48bc8d7cd0ae4bf217004db3d080cbaee652ca7"
          ],
          "data": "0x000000000000000000000000000000000000000000000000000000006786a0e0000000000000000000000000000000000000000000000000000391094c4098f30000000000000000000000000000000000000000000000000de0b6b3a7640000",
          "blockHash": "0xc5867e61a752719643f659908dadf9b79266bcb05a286762e1790c74588a3681",
          "blockNumber": "0x724e99",
          "transactionHash": "0xf10b7828934f58dbc89ff31e34ce28fec2ca97183a579f5cb3a92d009ac09e6d",
          "transactionIndex": "0x6e",
          "logIndex": "0xb1",
          "removed": false
        }
      ],
      "logsBloom": "0x00000000000000000000000000000000000000000000000000000000000000000000000000000000000000000000000000000000000000004000000000000000000000000000000000000008000000000000000000000000000000000000000000000000020000000000000004000800020000000000000000000010000000000000000000000000000000000000000000000000000000000000010000000000000000000000000000000000000000004000000000000000000000000000020000000002000000800000008000000000000000000000080000000000000020000000000000000000000000000000000000000000000000000000000000000000",
      "type": "0x2",
      "transactionHash": "0xf10b7828934f58dbc89ff31e34ce28fec2ca97183a579f5cb3a92d009ac09e6d",
      "transactionIndex": "0x6e",
      "blockHash": "0xc5867e61a752719643f659908dadf9b79266bcb05a286762e1790c74588a3681",
      "blockNumber": "0x724e99",
      "gasUsed": "0x13af8",
      "effectiveGasPrice": "0x440961cb4",
      "from": "0xc77f7fed3b5cc8249adc428c5f44c9063b9734b4",
      "to": "0x5eb9cc76c3506942c1c0ead70e877dd5e4f00cb0",
      "contractAddress": null
    }
  ],
  "libraries": [],
  "pending": [],
  "returns": {},
  "timestamp": 1736876258,
  "chain": 11155111,
  "commit": "51a374b"
}