{
  "transactions": [
    {
      "hash": "0xf122f207b6714d10d55231ef7d77b12c70842633834df572f945c3a66a0c684b",
      "transactionType": "CALL",
      "contractName": null,
      "contractAddress": "0x8aafd3ede9adb0ff97c7aebce82a919afb1c8764",
      "function": "sell(uint256)",
      "arguments": [
        "75567981128250"
      ],
      "transaction": {
        "from": "0xc77f7fed3b5cc8249adc428c5f44c9063b9734b4",
        "to": "0x8aafd3ede9adb0ff97c7aebce82a919afb1c8764",
        "gas": "0x15daa",
        "value": "0x0",
        "input": "0xe4849b32000000000000000000000000000000000000000000000000000044ba8aabea3a",
        "nonce": "0x1754",
        "chainId": "0xaa36a7"
      },
      "additionalContracts": [],
      "isFixedGasLimit": false
    }
  ],
  "receipts": [
    {
      "status": "0x1",
      "cumulativeGasUsed": "0x11dbded",
      "logs": [
        {
          "address": "0x8aafd3ede9adb0ff97c7aebce82a919afb1c8764",
          "topics": [
            "0xddf252ad1be2c89b69c2b068fc378daa952ba7f163c4a11628f55a4df523b3ef",
            "0x000000000000000000000000c77f7fed3b5cc8249adc428c5f44c9063b9734b4",
            "0x0000000000000000000000000000000000000000000000000000000000000000"
          ],
          "data": "0x0000000000000000000000000000000000000000000000000000442dc90cd7f8",
          "blockHash": "0x2c48cf4f7c0020164ee9bbf5c00b2f550275445772a78dbd89bb472105c7d125",
          "blockNumber": "0x731f24",
          "transactionHash": "0xf122f207b6714d10d55231ef7d77b12c70842633834df572f945c3a66a0c684b",
          "transactionIndex": "0x97",
          "logIndex": "0x113",
          "removed": false
        },
        {
          "address": "0x8aafd3ede9adb0ff97c7aebce82a919afb1c8764",
          "topics": [
            "0xddf252ad1be2c89b69c2b068fc378daa952ba7f163c4a11628f55a4df523b3ef",
            "0x000000000000000000000000c77f7fed3b5cc8249adc428c5f44c9063b9734b4",
            "0x000000000000000000000000c77f7fed3b5cc8249adc428c5f44c9063b9734b4"
          ],
          "data": "0x0000000000000000000000000000000000000000000000000000008cc19f1242",
          "blockHash": "0x2c48cf4f7c0020164ee9bbf5c00b2f550275445772a78dbd89bb472105c7d125",
          "blockNumber": "0x731f24",
          "transactionHash": "0xf122f207b6714d10d55231ef7d77b12c70842633834df572f945c3a66a0c684b",
          "transactionIndex": "0x97",
          "logIndex": "0x114",
          "removed": false
        },
        {
          "address": "0x8aafd3ede9adb0ff97c7aebce82a919afb1c8764",
          "topics": [
            "0x4afcb4a87cdbd9974efdb92ee48bc8d7cd0ae4bf217004db3d080cbaee652ca7"
          ],
          "data": "0x000000000000000000000000000000000000000000000000000000006790729800000000000000000000000000000000000000000000000000180202590566db00000000000000000000000000000000000000000000000000000076e5a36fb7",
          "blockHash": "0x2c48cf4f7c0020164ee9bbf5c00b2f550275445772a78dbd89bb472105c7d125",
          "blockNumber": "0x731f24",
          "transactionHash": "0xf122f207b6714d10d55231ef7d77b12c70842633834df572f945c3a66a0c684b",
          "transactionIndex": "0x97",
          "logIndex": "0x115",
          "removed": false
        }
      ],
      "logsBloom": "0x00000000000000000000000000000000000000000600000000000000000000000000000000000000000000000000000000000000000000004000000000000000000000000000004000000008000000000000000000000000000000000000000000000000020000000000000000000800020000000000000000000010000000000000000000000000000000000000000000000000000000000000010000000000000000000000000000000000000000004000000000000000000000000000000000000002000000800000000000000000000000000000080000000000000020000000000000000000000000000000000000000000000000000000000000000000",
      "type": "0x2",
      "transactionHash": "0xf122f207b6714d10d55231ef7d77b12c70842633834df572f945c3a66a0c684b",
      "transactionIndex": "0x97",
      "blockHash": "0x2c48cf4f7c0020164ee9bbf5c00b2f550275445772a78dbd89bb472105c7d125",
      "blockNumber": "0x731f24",
      "gasUsed": "0xfd27",
      "effectiveGasPrice": "0x3fad65a3",
      "from": "0xc77f7fed3b5cc8249adc428c5f44c9063b9734b4",
      "to": "0x8aafd3ede9adb0ff97c7aebce82a919afb1c8764",
      "contractAddress": null
    }
  ],
  "libraries": [],
  "pending": [],
  "returns": {},
  "timestamp": 1737519769,
  "chain": 11155111,
  "commit": "1d2fb70"
}