{
  "transactions": [
    {
      "hash": "0x0011eb6992bdd6d1c99936d0e0343c267f36f3ae16544dd32eda47fcca3afb34",
      "transactionType": "CALL",
      "contractName": null,
      "contractAddress": "0x270e88f8683660553e8ba4eb2ad7c91a1710d769",
      "function": "buy(address)",
      "arguments": [
        "0xC77f7fed3b5Cc8249aDc428c5F44C9063B9734b4"
      ],
      "transaction": {
        "from": "0xc77f7fed3b5cc8249adc428c5f44c9063b9734b4",
        "to": "0x270e88f8683660553e8ba4eb2ad7c91a1710d769",
        "gas": "0x1b30c",
        "value": "0xde0b6b3a7640000",
        "input": "0xf088d547000000000000000000000000c77f7fed3b5cc8249adc428c5f44c9063b9734b4",
        "nonce": "0x5e4",
        "chainId": "0xaa36a7"
      },
      "additionalContracts": [],
      "isFixedGasLimit": false
    }
  ],
  "receipts": [
    {
      "status": "0x1",
      "cumulativeGasUsed": "0x7acd58",
      "logs": [
        {
          "address": "0x270e88f8683660553e8ba4eb2ad7c91a1710d769",
          "topics": [
            "0xddf252ad1be2c89b69c2b068fc378daa952ba7f163c4a11628f55a4df523b3ef",
            "0x0000000000000000000000000000000000000000000000000000000000000000",
            "0x000000000000000000000000c77f7fed3b5cc8249adc428c5f44c9063b9734b4"
          ],
          "data": "0x0000000000000000000000000000000000000000000000336b282387c7565bab",
          "blockHash": "0xef563df3530e8b5d5ffe2cad120ada8b408770c0f5c596a349c59b3e5e3ca2b5",
          "blockNumber": "0x7252a8",
          "transactionHash": "0x0011eb6992bdd6d1c99936d0e0343c267f36f3ae16544dd32eda47fcca3afb34",
          "transactionIndex": "0x44",
          "logIndex": "0x84",
          "removed": false
        },
        {
          "address": "0x270e88f8683660553e8ba4eb2ad7c91a1710d769",
          "topics": [
            "0xddf252ad1be2c89b69c2b068fc378daa952ba7f163c4a11628f55a4df523b3ef",
            "0x0000000000000000000000000000000000000000000000000000000000000000",
            "0x000000000000000000000000c77f7fed3b5cc8249adc428c5f44c9063b9734b4"
          ],
          "data": "0x00000000000000000000000000000000000000000000000027eda3e6f108ff7a",
          "blockHash": "0xef563df3530e8b5d5ffe2cad120ada8b408770c0f5c596a349c59b3e5e3ca2b5",
          "blockNumber": "0x7252a8",
          "transactionHash": "0x0011eb6992bdd6d1c99936d0e0343c267f36f3ae16544dd32eda47fcca3afb34",
          "transactionIndex": "0x44",
          "logIndex": "0x85",
          "removed": false
        },
        {
          "address": "0x270e88f8683660553e8ba4eb2ad7c91a1710d769",
          "topics": [
            "0x4afcb4a87cdbd9974efdb92ee48bc8d7cd0ae4bf217004db3d080cbaee652ca7"
          ],
          "data": "0x000000000000000000000000000000000000000000000000000000006786d1e80000000000000000000000000000000000000000000000000003b5631805af510000000000000000000000000000000000000000000000000de0b6b3a7640000",
          "blockHash": "0xef563df3530e8b5d5ffe2cad120ada8b408770c0f5c596a349c59b3e5e3ca2b5",
          "blockNumber": "0x7252a8",
          "transactionHash": "0x0011eb6992bdd6d1c99936d0e0343c267f36f3ae16544dd32eda47fcca3afb34",
          "transactionIndex": "0x44",
          "logIndex": "0x86",
          "removed": false
        }
      ],
      "logsBloom": "0x00000000000000000000000000000000000000000000000000000000000000000000000000000000000000000000000020000000000000004000000000000000000000000000000000000008000000000000000000000000000000000000000000000000020000000000000000000800020000000000000000000010000000000000000000010000000000000000000000000000000000000000010000000000000000000000000000000000000000004000000000000000000000000000000000000002000000800000000000000000000000000000080000008000000020000000000000000000000000000000000000000000000000000000000000000000",
      "type": "0x2",
      "transactionHash": "0x0011eb6992bdd6d1c99936d0e0343c267f36f3ae16544dd32eda47fcca3afb34",
      "transactionIndex": "0x44",
      "blockHash": "0xef563df3530e8b5d5ffe2cad120ada8b408770c0f5c596a349c59b3e5e3ca2b5",
      "blockNumber": "0x7252a8",
      "gasUsed": "0x13af8",
      "effectiveGasPrice": "0x33fa666e0",
      "from": "0xc77f7fed3b5cc8249adc428c5f44c9063b9734b4",
      "to": "0x270e88f8683660553e8ba4eb2ad7c91a1710d769",
      "contractAddress": null
    }
  ],
  "libraries": [],
  "pending": [],
  "returns": {},
  "timestamp": 1736888809,
  "chain": 11155111,
  "commit": "51a374b"
}