{
  "transactions": [
    {
      "hash": "0x128a6d6833f2580fd64c0cb26ef5f41c0c707c6e5d23a1f7a5051f6abbf3fff6",
      "transactionType": "CALL",
      "contractName": null,
      "contractAddress": "0x5eb9cc76c3506942c1c0ead70e877dd5e4f00cb0",
      "function": "buy(address)",
      "arguments": [
        "0xC77f7fed3b5Cc8249aDc428c5F44C9063B9734b4"
      ],
      "transaction": {
        "from": "0xc77f7fed3b5cc8249adc428c5f44c9063b9734b4",
        "to": "0x5eb9cc76c3506942c1c0ead70e877dd5e4f00cb0",
        "gas": "0x1b30c",
        "value": "0xde0b6b3a7640000",
        "input": "0xf088d547000000000000000000000000c77f7fed3b5cc8249adc428c5f44c9063b9734b4",
        "nonce": "0x3b2",
        "chainId": "0xaa36a7"
      },
      "additionalContracts": [],
      "isFixedGasLimit": false
    }
  ],
  "receipts": [
    {
      "status": "0x1",
      "cumulativeGasUsed": "0xa24df1",
      "logs": [
        {
          "address": "0x5eb9cc76c3506942c1c0ead70e877dd5e4f00cb0",
          "topics": [
            "0xddf252ad1be2c89b69c2b068fc378daa952ba7f163c4a11628f55a4df523b3ef",
            "0x0000000000000000000000000000000000000000000000000000000000000000",
            "0x000000000000000000000000c77f7fed3b5cc8249adc428c5f44c9063b9734b4"
          ],
          "data": "0x000000000000000000000000000000000000000000000035752e3efedbd13c1e",
          "blockHash": "0xa1b96b39134650daa46b98c43c7c98ffce79b551112bbf9693fd4ba7bd43ef58",
          "blockNumber": "0x724fb1",
          "transactionHash": "0x128a6d6833f2580fd64c0cb26ef5f41c0c707c6e5d23a1f7a5051f6abbf3fff6",
          "transactionIndex": "0x6c",
          "logIndex": "0xb9",
          "removed": false
        },
        {
          "address": "0x5eb9cc76c3506942c1c0ead70e877dd5e4f00cb0",
          "topics": [
            "0xddf252ad1be2c89b69c2b068fc378daa952ba7f163c4a11628f55a4df523b3ef",
            "0x0000000000000000000000000000000000000000000000000000000000000000",
            "0x000000000000000000000000c77f7fed3b5cc8249adc428c5f44c9063b9734b4"
          ],
          "data": "0x0000000000000000000000000000000000000000000000002983027367b08705",
          "blockHash": "0xa1b96b39134650daa46b98c43c7c98ffce79b551112bbf9693fd4ba7bd43ef58",
          "blockNumber": "0x724fb1",
          "transactionHash": "0x128a6d6833f2580fd64c0cb26ef5f41c0c707c6e5d23a1f7a5051f6abbf3fff6",
          "transactionIndex": "0x6c",
          "logIndex": "0xba",
          "removed": false
        },
        {
          "address": "0x5eb9cc76c3506942c1c0ead70e877dd5e4f00cb0",
          "topics": [
            "0x4afcb4a87cdbd9974efdb92ee48bc8d7cd0ae4bf217004db3d080cbaee652ca7"
          ],
          "data": "0x000000000000000000000000000000000000000000000000000000006786ae0c000000000000000000000000000000000000000000000000000391127c993fed0000000000000000000000000000000000000000000000000de0b6b3a7640000",
          "blockHash": "0xa1b96b39134650daa46b98c43c7c98ffce79b551112bbf9693fd4ba7bd43ef58",
          "blockNumber": "0x724fb1",
          "transactionHash": "0x128a6d6833f2580fd64c0cb26ef5f41c0c707c6e5d23a1f7a5051f6abbf3fff6",
          "transactionIndex": "0x6c",
          "logIndex": "0xbb",
          "removed": false
        }
      ],
      "logsBloom": "0x00000000000000000000000000000000000000000000000000000000000000000000000000000000000000000000000000000000000000004000000000000000000000000000000000000008000000000000000000000000000000000000000000000000020000000000000004000800020000000000000000000010000000000000000000000000000000000000000000000000000000000000010000000000000000000000000000000000000000004000000000000000000000000000020000000002000000800000008000000000000000000000080000000000000020000000000000000000000000000000000000000000000000000000000000000000",
      "type": "0x2",
      "transactionHash": "0x128a6d6833f2580fd64c0cb26ef5f41c0c707c6e5d23a1f7a5051f6abbf3fff6",
      "transactionIndex": "0x6c",
      "blockHash": "0xa1b96b39134650daa46b98c43c7c98ffce79b551112bbf9693fd4ba7bd43ef58",
      "blockNumber": "0x724fb1",
      "gasUsed": "0x13af8",
      "effectiveGasPrice": "0x46eaaa00a",
      "from": "0xc77f7fed3b5cc8249adc428c5f44c9063b9734b4",
      "to": "0x5eb9cc76c3506942c1c0ead70e877dd5e4f00cb0",
      "contractAddress": null
    }
  ],
  "libraries": [],
  "pending": [],
  "returns": {},
  "timestamp": 1736879629,
  "chain": 11155111,
  "commit": "51a374b"
}