{
  "transactions": [
    {
      "hash": "0x048c98db93403e742e4297465a7788bceb88a876f35004c36f946dec08dfa3a6",
      "transactionType": "CALL",
      "contractName": null,
      "contractAddress": "0xbf4a322f1496e5c3d34a9bcdb4c60567b38c7de2",
      "function": "sell(uint256)",
      "arguments": [
        "976107670631005263239"
      ],
      "transaction": {
        "from": "0xc77f7fed3b5cc8249adc428c5f44c9063b9734b4",
        "to": "0xbf4a322f1496e5c3d34a9bcdb4c60567b38c7de2",
        "gas": "0x16fea",
        "value": "0x0",
        "input": "0xe4849b32000000000000000000000000000000000000000000000034ea3712cc7f0f9587",
        "nonce": "0xd3b",
        "chainId": "0xaa36a7"
      },
      "additionalContracts": [],
      "isFixedGasLimit": false
    }
  ],
  "receipts": [
    {
      "status": "0x1",
      "cumulativeGasUsed": "0x1538dc8",
      "logs": [
        {
          "address": "0xbf4a322f1496e5c3d34a9bcdb4c60567b38c7de2",
          "topics": [
            "0xddf252ad1be2c89b69c2b068fc378daa952ba7f163c4a11628f55a4df523b3ef",
            "0x000000000000000000000000c77f7fed3b5cc8249adc428c5f44c9063b9734b4",
            "0x0000000000000000000000000000000000000000000000000000000000000000"
          ],
          "data": "0x000000000000000000000000000000000000000000000034ea3712cc7f0f9587",
          "blockHash": "0x10d548ed5030f095c2739b2576731374c2e8a1a14d9f8b26a8afde34a8b0fc67",
          "blockNumber": "0x725d9f",
          "transactionHash": "0x048c98db93403e742e4297465a7788bceb88a876f35004c36f946dec08dfa3a6",
          "transactionIndex": "0x95",
          "logIndex": "0xcb",
          "removed": false
        },
        {
          "address": "0xbf4a322f1496e5c3d34a9bcdb4c60567b38c7de2",
          "topics": [
            "0x4afcb4a87cdbd9974efdb92ee48bc8d7cd0ae4bf217004db3d080cbaee652ca7"
          ],
          "data": "0x00000000000000000000000000000000000000000000000000000000678755e800000000000000000000000000000000000000000000000000039d43257089fd0000000000000000000000000000000000000000000000000dc7e3d904380b3d",
          "blockHash": "0x10d548ed5030f095c2739b2576731374c2e8a1a14d9f8b26a8afde34a8b0fc67",
          "blockNumber": "0x725d9f",
          "transactionHash": "0x048c98db93403e742e4297465a7788bceb88a876f35004c36f946dec08dfa3a6",
          "transactionIndex": "0x95",
          "logIndex": "0xcc",
          "removed": false
        }
      ],
      "logsBloom": "0x00000000000000000000000000000000000000000000000000000000000000000000000000000000000000000000000000000000000000004000000000000000000000000000000000000008000000000000001000000000000000000000000000000000020000000000000000000800020000000000000000000010000000000000000000000000000000000000000000000000000008000000010000000000000000000000000000000000000000004000000000000000000000000000000000000002000000800000000000001000000000000000080000000000000020000000000000000000000000000000000000000000000000000000000000000000",
      "type": "0x2",
      "transactionHash": "0x048c98db93403e742e4297465a7788bceb88a876f35004c36f946dec08dfa3a6",
      "transactionIndex": "0x95",
      "blockHash": "0x10d548ed5030f095c2739b2576731374c2e8a1a14d9f8b26a8afde34a8b0fc67",
      "blockNumber": "0x725d9f",
      "gasUsed": "0xfb91",
      "effectiveGasPrice": "0x3b9286160",
      "from": "0xc77f7fed3b5cc8249adc428c5f44c9063b9734b4",
      "to": "0xbf4a322f1496e5c3d34a9bcdb4c60567b38c7de2",
      "contractAddress": null
    }
  ],
  "libraries": [],
  "pending": [],
  "returns": {},
  "timestamp": 1736922601,
  "chain": 11155111,
  "commit": "51a374b"
}