{
  "transactions": [
    {
      "hash": "0xd692666aa69bdc727e77e160c9dbab5246bad44fdbb1361989b74b54e270a761",
      "transactionType": "CALL",
      "contractName": null,
      "contractAddress": "0x5eb9cc76c3506942c1c0ead70e877dd5e4f00cb0",
      "function": "sell(uint256)",
      "arguments": [
        "989134420596882869057"
      ],
      "transaction": {
        "from": "0xc77f7fed3b5cc8249adc428c5f44c9063b9734b4",
        "to": "0x5eb9cc76c3506942c1c0ead70e877dd5e4f00cb0",
        "gas": "0x16fec",
        "value": "0x0",
        "input": "0xe4849b320000000000000000000000000000000000000000000000359eff62dfc5070b41",
        "nonce": "0x329",
        "chainId": "0xaa36a7"
      },
      "additionalContracts": [],
      "isFixedGasLimit": false
    }
  ],
  "receipts": [
    {
      "status": "0x1",
      "cumulativeGasUsed": "0xc4cdee",
      "logs": [
        {
          "address": "0x5eb9cc76c3506942c1c0ead70e877dd5e4f00cb0",
          "topics": [
            "0xddf252ad1be2c89b69c2b068fc378daa952ba7f163c4a11628f55a4df523b3ef",
            "0x000000000000000000000000c77f7fed3b5cc8249adc428c5f44c9063b9734b4",
            "0x0000000000000000000000000000000000000000000000000000000000000000"
          ],
          "data": "0x0000000000000000000000000000000000000000000000359eff62dfc5070b41",
          "blockHash": "0x21d527272c891cb28aeab768e67703e6b5ae9c5a8c089ab957ef5ad9b211e0b5",
          "blockNumber": "0x724f12",
          "transactionHash": "0xd692666aa69bdc727e77e160c9dbab5246bad44fdbb1361989b74b54e270a761",
          "transactionIndex": "0x7c",
          "logIndex": "0x98",
          "removed": false
        },
        {
          "address": "0x5eb9cc76c3506942c1c0ead70e877dd5e4f00cb0",
          "topics": [
            "0x4afcb4a87cdbd9974efdb92ee48bc8d7cd0ae4bf217004db3d080cbaee652ca7"
          ],
          "data": "0x000000000000000000000000000000000000000000000000000000006786a68c0000000000000000000000000000000000000000000000000003910d568107320000000000000000000000000000000000000000000000000dc7db133224b1fc",
          "blockHash": "0x21d527272c891cb28aeab768e67703e6b5ae9c5a8c089ab957ef5ad9b211e0b5",
          "blockNumber": "0x724f12",
          "transactionHash": "0xd692666aa69bdc727e77e160c9dbab5246bad44fdbb1361989b74b54e270a761",
          "transactionIndex": "0x7c",
          "logIndex": "0x99",
          "removed": false
        }
      ],
      "logsBloom": "0x00000000000000000000000000000000000000000000000000000000000000000000000000000000000000000000000000000000000000004000000000000000000000000000000000000008000000000000000000000000000000000000000000000000020000000000000004000800020000000000000000000010000000000000000000000000000000000000000000000000000000000000010000000000000000000000000000000000000000004000000000000000000000000000020000000002000000800000008000000000000000000000080000000000000020000000000000000000000000000000000000000000000000000000000000000000",
      "type": "0x2",
      "transactionHash": "0xd692666aa69bdc727e77e160c9dbab5246bad44fdbb1361989b74b54e270a761",
      "transactionIndex": "0x7c",
      "blockHash": "0x21d527272c891cb28aeab768e67703e6b5ae9c5a8c089ab957ef5ad9b211e0b5",
      "blockNumber": "0x724f12",
      "gasUsed": "0xfb93",
      "effectiveGasPrice": "0x62744d4cb",
      "from": "0xc77f7fed3b5cc8249adc428c5f44c9063b9734b4",
      "to": "0x5eb9cc76c3506942c1c0ead70e877dd5e4f00cb0",
      "contractAddress": null
    }
  ],
  "libraries": [],
  "pending": [],
  "returns": {},
  "timestamp": 1736877708,
  "chain": 11155111,
  "commit": "51a374b"
}