{
  "transactions": [
    {
      "hash": "0x2ddd80195cb266ba8506263cbc1128a686cf48e03a7261f3720aec3413056e18",
      "transactionType": "CALL",
      "contractName": null,
      "contractAddress": "0x5eb9cc76c3506942c1c0ead70e877dd5e4f00cb0",
      "function": "buy(address)",
      "arguments": [
        "0xC77f7fed3b5Cc8249aDc428c5F44C9063B9734b4"
      ],
      "transaction": {
        "from": "0xc77f7fed3b5cc8249adc428c5f44c9063b9734b4",
        "to": "0x5eb9cc76c3506942c1c0ead70e877dd5e4f00cb0",
        "gas": "0x156c8",
        "value": "0xde0b6b3a7640000",
        "input": "0xf088d547000000000000000000000000c77f7fed3b5cc8249adc428c5f44c9063b9734b4",
        "nonce": "0x16b",
        "chainId": "0xaa36a7"
      },
      "additionalContracts": [],
      "isFixedGasLimit": false
    }
  ],
  "receipts": [
    {
      "status": "0x1",
      "cumulativeGasUsed": "0x91e0cf",
      "logs": [
        {
          "address": "0x5eb9cc76c3506942c1c0ead70e877dd5e4f00cb0",
          "topics": [
            "0xddf252ad1be2c89b69c2b068fc378daa952ba7f163c4a11628f55a4df523b3ef",
            "0x0000000000000000000000000000000000000000000000000000000000000000",
            "0x000000000000000000000000c77f7fed3b5cc8249adc428c5f44c9063b9734b4"
          ],
          "data": "0x000000000000000000000000000000000000000000000035a6d7c50de5ab986f",
          "blockHash": "0xd14a6d6ac2e2d6ea7952c1e6bb5ffaea8cdd26bb14cea00f52b0b075e1f899c8",
          "blockNumber": "0x723c27",
          "transactionHash": "0x2ddd80195cb266ba8506263cbc1128a686cf48e03a7261f3720aec3413056e18",
          "transactionIndex": "0x56",
          "logIndex": "0x84",
          "removed": false
        },
        {
          "address": "0x5eb9cc76c3506942c1c0ead70e877dd5e4f00cb0",
          "topics": [
            "0xddf252ad1be2c89b69c2b068fc378daa952ba7f163c4a11628f55a4df523b3ef",
            "0x0000000000000000000000000000000000000000000000000000000000000000",
            "0x000000000000000000000000c77f7fed3b5cc8249adc428c5f44c9063b9734b4"
          ],
          "data": "0x00000000000000000000000000000000000000000000000029a992ef827e8d4f",
          "blockHash": "0xd14a6d6ac2e2d6ea7952c1e6bb5ffaea8cdd26bb14cea00f52b0b075e1f899c8",
          "blockNumber": "0x723c27",
          "transactionHash": "0x2ddd80195cb266ba8506263cbc1128a686cf48e03a7261f3720aec3413056e18",
          "transactionIndex": "0x56",
          "logIndex": "0x85",
          "removed": false
        },
        {
          "address": "0x5eb9cc76c3506942c1c0ead70e877dd5e4f00cb0",
          "topics": [
            "0x4afcb4a87cdbd9974efdb92ee48bc8d7cd0ae4bf217004db3d080cbaee652ca7"
          ],
          "data": "0x000000000000000000000000000000000000000000000000000000006785c32800000000000000000000000000000000000000000000000000038dc54f3ba4110000000000000000000000000000000000000000000000000de0b6b3a7640000",
          "blockHash": "0xd14a6d6ac2e2d6ea7952c1e6bb5ffaea8cdd26bb14cea00f52b0b075e1f899c8",
          "blockNumber": "0x723c27",
          "transactionHash": "0x2ddd80195cb266ba8506263cbc1128a686cf48e03a7261f3720aec3413056e18",
          "transactionIndex": "0x56",
          "logIndex": "0x86",
          "removed": false
        }
      ],
      "logsBloom": "0x00000000000000000000000000000000000000000000000000000000000000000000000000000000000000000000000000000000000000004000000000000000000000000000000000000008000000000000000000000000000000000000000000000000020000000000000004000800020000000000000000000010000000000000000000000000000000000000000000000000000000000000010000000000000000000000000000000000000000004000000000000000000000000000020000000002000000800000008000000000000000000000080000000000000020000000000000000000000000000000000000000000000000000000000000000000",
      "type": "0x2",
      "transactionHash": "0x2ddd80195cb266ba8506263cbc1128a686cf48e03a7261f3720aec3413056e18",
      "transactionIndex": "0x56",
      "blockHash": "0xd14a6d6ac2e2d6ea7952c1e6bb5ffaea8cdd26bb14cea00f52b0b075e1f899c8",
      "blockNumber": "0x723c27",
      "gasUsed": "0xf82c",
      "effectiveGasPrice": "0x212778442",
      "from": "0xc77f7fed3b5cc8249adc428c5f44c9063b9734b4",
      "to": "0x5eb9cc76c3506942c1c0ead70e877dd5e4f00cb0",
      "contractAddress": null
    }
  ],
  "libraries": [],
  "pending": [],
  "returns": {},
  "timestamp": 1736819496,
  "chain": 11155111,
  "commit": "51a374b"
}