{
  "transactions": [
    {
      "hash": "0xaed37f8034d45847e0948376c936d368f86f014ace2598a15f3a9758de62a470",
      "transactionType": "CALL",
      "contractName": null,
      "contractAddress": "0xbf4a322f1496e5c3d34a9bcdb4c60567b38c7de2",
      "function": "sell(uint256)",
      "arguments": [
        "991147835082850005489"
      ],
      "transaction": {
        "from": "0xc77f7fed3b5cc8249adc428c5f44c9063b9734b4",
        "to": "0xbf4a322f1496e5c3d34a9bcdb4c60567b38c7de2",
        "gas": "0x16fea",
        "value": "0x0",
        "input": "0xe4849b32000000000000000000000000000000000000000000000035baf078ae7ab971f1",
        "nonce": "0x8e3",
        "chainId": "0xaa36a7"
      },
      "additionalContracts": [],
      "isFixedGasLimit": false
    }
  ],
  "receipts": [
    {
      "status": "0x1",
      "cumulativeGasUsed": "0x18e4cb2",
      "logs": [
        {
          "address": "0xbf4a322f1496e5c3d34a9bcdb4c60567b38c7de2",
          "topics": [
            "0xddf252ad1be2c89b69c2b068fc378daa952ba7f163c4a11628f55a4df523b3ef",
            "0x000000000000000000000000c77f7fed3b5cc8249adc428c5f44c9063b9734b4",
            "0x0000000000000000000000000000000000000000000000000000000000000000"
          ],
          "data": "0x000000000000000000000000000000000000000000000035baf078ae7ab971f1",
          "blockHash": "0x5672294a0cd69048c7a362f8bd7bb4697e76894bc205eb903aa28a10668a735a",
          "blockNumber": "0x725858",
          "transactionHash": "0xaed37f8034d45847e0948376c936d368f86f014ace2598a15f3a9758de62a470",
          "transactionIndex": "0x59",
          "logIndex": "0xd8",
          "removed": false
        },
        {
          "address": "0xbf4a322f1496e5c3d34a9bcdb4c60567b38c7de2",
          "topics": [
            "0x4afcb4a87cdbd9974efdb92ee48bc8d7cd0ae4bf217004db3d080cbaee652ca7"
          ],
          "data": "0x000000000000000000000000000000000000000000000000000000006787164c00000000000000000000000000000000000000000000000000038f38e7e179fd0000000000000000000000000000000000000000000000000dc7e3fbfc278081",
          "blockHash": "0x5672294a0cd69048c7a362f8bd7bb4697e76894bc205eb903aa28a10668a735a",
          "blockNumber": "0x725858",
          "transactionHash": "0xaed37f8034d45847e0948376c936d368f86f014ace2598a15f3a9758de62a470",
          "transactionIndex": "0x59",
          "logIndex": "0xd9",
          "removed": false
        }
      ],
      "logsBloom": "0x00000000000000000000000000000000000000000000000000000000000000000000000000000000000000000000000000000000000000004000000000000000000000000000000000000008000000000000001000000000000000000000000000000000020000000000000000000800020000000000000000000010000000000000000000000000000000000000000000000000000008000000010000000000000000000000000000000000000000004000000000000000000000000000000000000002000000800000000000001000000000000000080000000000000020000000000000000000000000000000000000000000000000000000000000000000",
      "type": "0x2",
      "transactionHash": "0xaed37f8034d45847e0948376c936d368f86f014ace2598a15f3a9758de62a470",
      "transactionIndex": "0x59",
      "blockHash": "0x5672294a0cd69048c7a362f8bd7bb4697e76894bc205eb903aa28a10668a735a",
      "blockNumber": "0x725858",
      "gasUsed": "0xfb91",
      "effectiveGasPrice": "0x24b407a6",
      "from": "0xc77f7fed3b5cc8249adc428c5f44c9063b9734b4",
      "to": "0xbf4a322f1496e5c3d34a9bcdb4c60567b38c7de2",
      "contractAddress": null
    }
  ],
  "libraries": [],
  "pending": [],
  "returns": {},
  "timestamp": 1736906317,
  "chain": 11155111,
  "commit": "51a374b"
}