{
  "transactions": [
    {
      "hash": "0x26bc99441a6f560703f09c390a5bfdd493ea6087f52b89249ef8c94b64fab882",
      "transactionType": "CALL",
      "contractName": null,
      "contractAddress": "0x8aafd3ede9adb0ff97c7aebce82a919afb1c8764",
      "function": "sell(uint256)",
      "arguments": [
        "578885"
      ],
      "transaction": {
        "from": "0xc77f7fed3b5cc8249adc428c5f44c9063b9734b4",
        "to": "0x8aafd3ede9adb0ff97c7aebce82a919afb1c8764",
        "gas": "0x16208",
        "value": "0x0",
        "input": "0xe4849b32000000000000000000000000000000000000000000000000000000000008d545",
        "nonce": "0x1395",
        "chainId": "0xaa36a7"
      },
      "additionalContracts": [],
      "isFixedGasLimit": false
    }
  ],
  "receipts": [
    {
      "status": "0x1",
      "cumulativeGasUsed": "0x102e6ea",
      "logs": [
        {
          "address": "0x8aafd3ede9adb0ff97c7aebce82a919afb1c8764",
          "topics": [
            "0xddf252ad1be2c89b69c2b068fc378daa952ba7f163c4a11628f55a4df523b3ef",
            "0x000000000000000000000000c77f7fed3b5cc8249adc428c5f44c9063b9734b4",
            "0x0000000000000000000000000000000000000000000000000000000000000000"
          ],
          "data": "0x000000000000000000000000000000000000000000000000000000000008c32e",
          "blockHash": "0xc4ec1257c49eb9f03a6a053ef704c695241248e2b63e228e07a974ccd9ce2dec",
          "blockNumber": "0x731ab9",
          "transactionHash": "0x26bc99441a6f560703f09c390a5bfdd493ea6087f52b89249ef8c94b64fab882",
          "transactionIndex": "0x81",
          "logIndex": "0xbb",
          "removed": false
        },
        {
          "address": "0x8aafd3ede9adb0ff97c7aebce82a919afb1c8764",
          "topics": [
            "0xddf252ad1be2c89b69c2b068fc378daa952ba7f163c4a11628f55a4df523b3ef",
            "0x000000000000000000000000c77f7fed3b5cc8249adc428c5f44c9063b9734b4",
            "0x000000000000000000000000c77f7fed3b5cc8249adc428c5f44c9063b9734b4"
          ],
          "data": "0x0000000000000000000000000000000000000000000000000000000000001217",
          "blockHash": "0xc4ec1257c49eb9f03a6a053ef704c695241248e2b63e228e07a974ccd9ce2dec",
          "blockNumber": "0x731ab9",
          "transactionHash": "0x26bc99441a6f560703f09c390a5bfdd493ea6087f52b89249ef8c94b64fab882",
          "transactionIndex": "0x81",
          "logIndex": "0xbc",
          "removed": false
        },
        {
          "address": "0x8aafd3ede9adb0ff97c7aebce82a919afb1c8764",
          "topics": [
            "0x4afcb4a87cdbd9974efdb92ee48bc8d7cd0ae4bf217004db3d080cbaee652ca7"
          ],
          "data": "0x0000000000000000000000000000000000000000000000000000000067903d7c000000000000000000000000000000000000000000000000000ce1ec5deed5b10000000000000000000000000000000000000000000000000000000000000833",
          "blockHash": "0xc4ec1257c49eb9f03a6a053ef704c695241248e2b63e228e07a974ccd9ce2dec",
          "blockNumber": "0x731ab9",
          "transactionHash": "0x26bc99441a6f560703f09c390a5bfdd493ea6087f52b89249ef8c94b64fab882",
          "transactionIndex": "0x81",
          "logIndex": "0xbd",
          "removed": false
        }
      ],
      "logsBloom": "0x00000000000000000000000000000000000000000600000000000000000000000000000000000000000000000000000000000000000000004000000000000000000000000000004000000008000000000000000000000000000000000000000000000000020000000000000000000800020000000000000000000010000000000000000000000000000000000000000000000000000000000000010000000000000000000000000000000000000000004000000000000000000000000000000000000002000000800000000000000000000000000000080000000000000020000000000000000000000000000000000000000000000000000000000000000000",
      "type": "0x2",
      "transactionHash": "0x26bc99441a6f560703f09c390a5bfdd493ea6087f52b89249ef8c94b64fab882",
      "transactionIndex": "0x81",
      "blockHash": "0xc4ec1257c49eb9f03a6a053ef704c695241248e2b63e228e07a974ccd9ce2dec",
      "blockNumber": "0x731ab9",
      "gasUsed": "0xf213",
      "effectiveGasPrice": "0x731f16be",
      "from": "0xc77f7fed3b5cc8249adc428c5f44c9063b9734b4",
      "to": "0x8aafd3ede9adb0ff97c7aebce82a919afb1c8764",
      "contractAddress": null
    }
  ],
  "libraries": [],
  "pending": [],
  "returns": {},
  "timestamp": 1737506173,
  "chain": 11155111,
  "commit": "1d2fb70"
}