{
  "transactions": [
    {
      "hash": "0xa4ceb3eb951174b08b3fc6e7fc3647c281ad2b76079cc10a84ac0b1cb851874d",
      "transactionType": "CALL",
      "contractName": null,
      "contractAddress": "0x270e88f8683660553e8ba4eb2ad7c91a1710d769",
      "function": "sell(uint256)",
      "arguments": [
        "746921976927970107246"
      ],
      "transaction": {
        "from": "0xc77f7fed3b5cc8249adc428c5f44c9063b9734b4",
        "to": "0x270e88f8683660553e8ba4eb2ad7c91a1710d769",
        "gas": "0x16fec",
        "value": "0x0",
        "input": "0xe4849b320000000000000000000000000000000000000000000000287d9feca75c2b9f6e",
        "nonce": "0x6ee",
        "chainId": "0xaa36a7"
      },
      "additionalContracts": [],
      "isFixedGasLimit": false
    }
  ],
  "receipts": [
    {
      "status": "0x1",
      "cumulativeGasUsed": "0xd67c74",
      "logs": [
        {
          "address": "0x270e88f8683660553e8ba4eb2ad7c91a1710d769",
          "topics": [
            "0xddf252ad1be2c89b69c2b068fc378daa952ba7f163c4a11628f55a4df523b3ef",
            "0x000000000000000000000000c77f7fed3b5cc8249adc428c5f44c9063b9734b4",
            "0x0000000000000000000000000000000000000000000000000000000000000000"
          ],
          "data": "0x0000000000000000000000000000000000000000000000287d9feca75c2b9f6e",
          "blockHash": "0x63c297f7dfd09eaaa9a36ccf60be83770bf2d3cd9f0d9f21acdab636b632c799",
          "blockNumber": "0x725402",
          "transactionHash": "0xa4ceb3eb951174b08b3fc6e7fc3647c281ad2b76079cc10a84ac0b1cb851874d",
          "transactionIndex": "0x5e",
          "logIndex": "0xa1",
          "removed": false
        },
        {
          "address": "0x270e88f8683660553e8ba4eb2ad7c91a1710d769",
          "topics": [
            "0x4afcb4a87cdbd9974efdb92ee48bc8d7cd0ae4bf217004db3d080cbaee652ca7"
          ],
          "data": "0x000000000000000000000000000000000000000000000000000000006786e2200000000000000000000000000000000000000000000000000004b96e0d302e1d0000000000000000000000000000000000000000000000000dc8293758bb8a5b",
          "blockHash": "0x63c297f7dfd09eaaa9a36ccf60be83770bf2d3cd9f0d9f21acdab636b632c799",
          "blockNumber": "0x725402",
          "transactionHash": "0xa4ceb3eb951174b08b3fc6e7fc3647c281ad2b76079cc10a84ac0b1cb851874d",
          "transactionIndex": "0x5e",
          "logIndex": "0xa2",
          "removed": false
        }
      ],
      "logsBloom": "0x00000000000000000000000000000000000000000000000000000000000000000000000000000000000000000000000020000000000000004000000000000000000000000000000000000008000000000000000000000000000000000000000000000000020000000000000000000800020000000000000000000010000000000000000000010000000000000000000000000000000000000000010000000000000000000000000000000000000000004000000000000000000000000000000000000002000000800000000000000000000000000000080000008000000020000000000000000000000000000000000000000000000000000000000000000000",
      "type": "0x2",
      "transactionHash": "0xa4ceb3eb951174b08b3fc6e7fc3647c281ad2b76079cc10a84ac0b1cb851874d",
      "transactionIndex": "0x5e",
      "blockHash": "0x63c297f7dfd09eaaa9a36ccf60be83770bf2d3cd9f0d9f21acdab636b632c799",
      "blockNumber": "0x725402",
      "gasUsed": "0xfb93",
      "effectiveGasPrice": "0x1497a3bb9",
      "from": "0xc77f7fed3b5cc8249adc428c5f44c9063b9734b4",
      "to": "0x270e88f8683660553e8ba4eb2ad7c91a1710d769",
      "contractAddress": null
    }
  ],
  "libraries": [],
  "pending": [],
  "returns": {},
  "timestamp": 1736892961,
  "chain": 11155111,
  "commit": "51a374b"
}