{
  "transactions": [
    {
      "hash": "0x1a476c40ba35b67e45a12f37e0532df9a23a254ce6d92e9476a14f207afdf78a",
      "transactionType": "CALL",
      "contractName": null,
      "contractAddress": "0x5eb9cc76c3506942c1c0ead70e877dd5e4f00cb0",
      "function": "sell(uint256)",
      "arguments": [
        "989096174612536461241"
      ],
      "transaction": {
        "from": "0xc77f7fed3b5cc8249adc428c5f44c9063b9734b4",
        "to": "0x5eb9cc76c3506942c1c0ead70e877dd5e4f00cb0",
        "gas": "0x16fec",
        "value": "0x0",
        "input": "0xe4849b320000000000000000000000000000000000000000000000359e77825a9df987b9",
        "nonce": "0x419",
        "chainId": "0xaa36a7"
      },
      "additionalContracts": [],
      "isFixedGasLimit": false
    }
  ],
  "receipts": [
    {
      "status": "0x1",
      "cumulativeGasUsed": "0x1029036",
      "logs": [
        {
          "address": "0x5eb9cc76c3506942c1c0ead70e877dd5e4f00cb0",
          "topics": [
            "0xddf252ad1be2c89b69c2b068fc378daa952ba7f163c4a11628f55a4df523b3ef",
            "0x000000000000000000000000c77f7fed3b5cc8249adc428c5f44c9063b9734b4",
            "0x0000000000000000000000000000000000000000000000000000000000000000"
          ],
          "data": "0x0000000000000000000000000000000000000000000000359e77825a9df987b9",
          "blockHash": "0x052ddfa14ecfe7c7ac2fd5986dae68f9d3c025ac7071454bce4e36e9723060e6",
          "blockNumber": "0x72502d",
          "transactionHash": "0x1a476c40ba35b67e45a12f37e0532df9a23a254ce6d92e9476a14f207afdf78a",
          "transactionIndex": "0x4a",
          "logIndex": "0xac",
          "removed": false
        },
        {
          "address": "0x5eb9cc76c3506942c1c0ead70e877dd5e4f00cb0",
          "topics": [
            "0x4afcb4a87cdbd9974efdb92ee48bc8d7cd0ae4bf217004db3d080cbaee652ca7"
          ],
          "data": "0x000000000000000000000000000000000000000000000000000000006786b3e800000000000000000000000000000000000000000000000000039116604989e00000000000000000000000000000000000000000000000000dc7db1331e0a43a",
          "blockHash": "0x052ddfa14ecfe7c7ac2fd5986dae68f9d3c025ac7071454bce4e36e9723060e6",
          "blockNumber": "0x72502d",
          "transactionHash": "0x1a476c40ba35b67e45a12f37e0532df9a23a254ce6d92e9476a14f207afdf78a",
          "transactionIndex": "0x4a",
          "logIndex": "0xad",
          "removed": false
        }
      ],
      "logsBloom": "0x00000000000000000000000000000000000000000000000000000000000000000000000000000000000000000000000000000000000000004000000000000000000000000000000000000008000000000000000000000000000000000000000000000000020000000000000004000800020000000000000000000010000000000000000000000000000000000000000000000000000000000000010000000000000000000000000000000000000000004000000000000000000000000000020000000002000000800000008000000000000000000000080000000000000020000000000000000000000000000000000000000000000000000000000000000000",
      "type": "0x2",
      "transactionHash": "0x1a476c40ba35b67e45a12f37e0532df9a23a254ce6d92e9476a14f207afdf78a",
      "transactionIndex": "0x4a",
      "blockHash": "0x052ddfa14ecfe7c7ac2fd5986dae68f9d3c025ac7071454bce4e36e9723060e6",
      "blockNumber": "0x72502d",
      "gasUsed": "0xfb93",
      "effectiveGasPrice": "0x330f723ef",
      "from": "0xc77f7fed3b5cc8249adc428c5f44c9063b9734b4",
      "to": "0x5eb9cc76c3506942c1c0ead70e877dd5e4f00cb0",
      "contractAddress": null
    }
  ],
  "libraries": [],
  "pending": [],
  "returns": {},
  "timestamp": 1736881129,
  "chain": 11155111,
  "commit": "51a374b"
}