{
  "transactions": [
    {
      "hash": "0x9dbae2efafec447f31e17f123cfd53147e71176435e32f3f9c4a498dedd85d45",
      "transactionType": "CALL",
      "contractName": null,
      "contractAddress": "0x5eb9cc76c3506942c1c0ead70e877dd5e4f00cb0",
      "function": "buy(address)",
      "arguments": [
        "0xC77f7fed3b5Cc8249aDc428c5F44C9063B9734b4"
      ],
      "transaction": {
        "from": "0xc77f7fed3b5cc8249adc428c5f44c9063b9734b4",
        "to": "0x5eb9cc76c3506942c1c0ead70e877dd5e4f00cb0",
        "gas": "0x1b30c",
        "value": "0xde0b6b3a7640000",
        "input": "0xf088d547000000000000000000000000c77f7fed3b5cc8249adc428c5f44c9063b9734b4",
        "nonce": "0x286",
        "chainId": "0xaa36a7"
      },
      "additionalContracts": [],
      "isFixedGasLimit": false
    }
  ],
  "receipts": [
    {
      "status": "0x1",
      "cumulativeGasUsed": "0xb2b7c0",
      "logs": [
        {
          "address": "0x5eb9cc76c3506942c1c0ead70e877dd5e4f00cb0",
          "topics": [
            "0xddf252ad1be2c89b69c2b068fc378daa952ba7f163c4a11628f55a4df523b3ef",
            "0x0000000000000000000000000000000000000000000000000000000000000000",
            "0x000000000000000000000000c77f7fed3b5cc8249adc428c5f44c9063b9734b4"
          ],
          "data": "0x00000000000000000000000000000000000000000000003575d795ff3a1bb418",
          "blockHash": "0x923711e946804f6b46db10027353b961f1350392244c7cb3777428ac6b119258",
          "blockNumber": "0x724e55",
          "transactionHash": "0x9dbae2efafec447f31e17f123cfd53147e71176435e32f3f9c4a498dedd85d45",
          "transactionIndex": "0x57",
          "logIndex": "0xb0",
          "removed": false
        },
        {
          "address": "0x5eb9cc76c3506942c1c0ead70e877dd5e4f00cb0",
          "topics": [
            "0xddf252ad1be2c89b69c2b068fc378daa952ba7f163c4a11628f55a4df523b3ef",
            "0x0000000000000000000000000000000000000000000000000000000000000000",
            "0x000000000000000000000000c77f7fed3b5cc8249adc428c5f44c9063b9734b4"
          ],
          "data": "0x000000000000000000000000000000000000000000000000298385f2efb4baaa",
          "blockHash": "0x923711e946804f6b46db10027353b961f1350392244c7cb3777428ac6b119258",
          "blockNumber": "0x724e55",
          "transactionHash": "0x9dbae2efafec447f31e17f123cfd53147e71176435e32f3f9c4a498dedd85d45",
          "transactionIndex": "0x57",
          "logIndex": "0xb1",
          "removed": false
        },
        {
          "address": "0x5eb9cc76c3506942c1c0ead70e877dd5e4f00cb0",
          "topics": [
            "0x4afcb4a87cdbd9974efdb92ee48bc8d7cd0ae4bf217004db3d080cbaee652ca7"
          ],
          "data": "0x0000000000000000000000000000000000000000000000000000000067869db000000000000000000000000000000000000000000000000000039107305e9c990000000000000000000000000000000000000000000000000de0b6b3a7640000",
          "blockHash": "0x923711e946804f6b46db10027353b961f1350392244c7cb3777428ac6b119258",
          "blockNumber": "0x724e55",
          "transactionHash": "0x9dbae2efafec447f31e17f123cfd53147e71176435e32f3f9c4a498dedd85d45",
          "transactionIndex": "0x57",
          "logIndex": "0xb2",
          "removed": false
        }
      ],
      "logsBloom": "0x00000000000000000000000000000000000000000000000000000000000000000000000000000000000000000000000000000000000000004000000000000000000000000000000000000008000000000000000000000000000000000000000000000000020000000000000004000800020000000000000000000010000000000000000000000000000000000000000000000000000000000000010000000000000000000000000000000000000000004000000000000000000000000000020000000002000000800000008000000000000000000000080000000000000020000000000000000000000000000000000000000000000000000000000000000000",
      "type": "0x2",
      "transactionHash": "0x9dbae2efafec447f31e17f123cfd53147e71176435e32f3f9c4a498dedd85d45",
      "transactionIndex": "0x57",
      "blockHash": "0x923711e946804f6b46db10027353b961f1350392244c7cb3777428ac6b119258",
      "blockNumber": "0x724e55",
      "gasUsed": "0x13af8",
      "effectiveGasPrice": "0x40064403b",
      "from": "0xc77f7fed3b5cc8249adc428c5f44c9063b9734b4",
      "to": "0x5eb9cc76c3506942c1c0ead70e877dd5e4f00cb0",
      "contractAddress": null
    }
  ],
  "libraries": [],
  "pending": [],
  "returns": {},
  "timestamp": 1736875441,
  "chain": 11155111,
  "commit": "51a374b"
}