{
  "transactions": [
    {
      "hash": "0x6b400970d2b5e2524cfb75d04773e48a2e736dbc1d390c482ab86d989168e91b",
      "transactionType": "CALL",
      "contractName": null,
      "contractAddress": "0xbf4a322f1496e5c3d34a9bcdb4c60567b38c7de2",
      "function": "sell(uint256)",
      "arguments": [
        "983137679397229983494"
      ],
      "transaction": {
        "from": "0xc77f7fed3b5cc8249adc428c5f44c9063b9734b4",
        "to": "0xbf4a322f1496e5c3d34a9bcdb4c60567b38c7de2",
        "gas": "0x16fea",
        "value": "0x0",
        "input": "0xe4849b320000000000000000000000000000000000000000000000354bc6ae866dc47706",
        "nonce": "0xb2f",
        "chainId": "0xaa36a7"
      },
      "additionalContracts": [],
      "isFixedGasLimit": false
    }
  ],
  "receipts": [
    {
      "status": "0x1",
      "cumulativeGasUsed": "0x8b37b5",
      "logs": [
        {
          "address": "0xbf4a322f1496e5c3d34a9bcdb4c60567b38c7de2",
          "topics": [
            "0xddf252ad1be2c89b69c2b068fc378daa952ba7f163c4a11628f55a4df523b3ef",
            "0x000000000000000000000000c77f7fed3b5cc8249adc428c5f44c9063b9734b4",
            "0x0000000000000000000000000000000000000000000000000000000000000000"
          ],
          "data": "0x0000000000000000000000000000000000000000000000354bc6ae866dc47706",
          "blockHash": "0x1928ead5c53c1035afe7c5160ceb90ae6204dc178d2046434dd7d8dad39b218e",
          "blockNumber": "0x725b2d",
          "transactionHash": "0x6b400970d2b5e2524cfb75d04773e48a2e736dbc1d390c482ab86d989168e91b",
          "transactionIndex": "0x6e",
          "logIndex": "0x8e",
          "removed": false
        },
        {
          "address": "0xbf4a322f1496e5c3d34a9bcdb4c60567b38c7de2",
          "topics": [
            "0x4afcb4a87cdbd9974efdb92ee48bc8d7cd0ae4bf217004db3d080cbaee652ca7"
          ],
          "data": "0x0000000000000000000000000000000000000000000000000000000067873878000000000000000000000000000000000000000000000000000396a57437ab830000000000000000000000000000000000000000000000000dc7e3e95c8ab558",
          "blockHash": "0x1928ead5c53c1035afe7c5160ceb90ae6204dc178d2046434dd7d8dad39b218e",
          "blockNumber": "0x725b2d",
          "transactionHash": "0x6b400970d2b5e2524cfb75d04773e48a2e736dbc1d390c482ab86d989168e91b",
          "transactionIndex": "0x6e",
          "logIndex": "0x8f",
          "removed": false
        }
      ],
      "logsBloom": "0x00000000000000000000000000000000000000000000000000000000000000000000000000000000000000000000000000000000000000004000000000000000000000000000000000000008000000000000001000000000000000000000000000000000020000000000000000000800020000000000000000000010000000000000000000000000000000000000000000000000000008000000010000000000000000000000000000000000000000004000000000000000000000000000000000000002000000800000000000001000000000000000080000000000000020000000000000000000000000000000000000000000000000000000000000000000",
      "type": "0x2",
      "transactionHash": "0x6b400970d2b5e2524cfb75d04773e48a2e736dbc1d390c482ab86d989168e91b",
      "transactionIndex": "0x6e",
      "blockHash": "0x1928ead5c53c1035afe7c5160ceb90ae6204dc178d2046434dd7d8dad39b218e",
      "blockNumber": "0x725b2d",
      "gasUsed": "0xfb91",
      "effectiveGasPrice": "0x531c1c42",
      "from": "0xc77f7fed3b5cc8249adc428c5f44c9063b9734b4",
      "to": "0xbf4a322f1496e5c3d34a9bcdb4c60567b38c7de2",
      "contractAddress": null
    }
  ],
  "libraries": [],
  "pending": [],
  "returns": {},
  "timestamp": 1736915065,
  "chain": 11155111,
  "commit": "51a374b"
}