{
  "transactions": [
    {
      "hash": "0x2ed67f23f186b3236f2bd46c28d5eb708bf0d2c96304e558b50014a5c3139534",
      "transactionType": "CALL",
      "contractName": null,
      "contractAddress": "0x5eb9cc76c3506942c1c0ead70e877dd5e4f00cb0",
      "function": "sell(uint256)",
      "arguments": [
        "989082151825985032151"
      ],
      "transaction": {
        "from": "0xc77f7fed3b5cc8249adc428c5f44c9063b9734b4",
        "to": "0x5eb9cc76c3506942c1c0ead70e877dd5e4f00cb0",
        "gas": "0x16fec",
        "value": "0x0",
        "input": "0xe4849b320000000000000000000000000000000000000000000000359e45b0b432d0cfd7",
        "nonce": "0x471",
        "chainId": "0xaa36a7"
      },
      "additionalContracts": [],
      "isFixedGasLimit": false
    }
  ],
  "receipts": [
    {
      "status": "0x1",
      "cumulativeGasUsed": "0x749cbe",
      "logs": [
        {
          "address": "0x5eb9cc76c3506942c1c0ead70e877dd5e4f00cb0",
          "topics": [
            "0xddf252ad1be2c89b69c2b068fc378daa952ba7f163c4a11628f55a4df523b3ef",
            "0x000000000000000000000000c77f7fed3b5cc8249adc428c5f44c9063b9734b4",
            "0x0000000000000000000000000000000000000000000000000000000000000000"
          ],
          "data": "0x0000000000000000000000000000000000000000000000359e45b0b432d0cfd7",
          "blockHash": "0x4ffed2990daecaa858e987d69c7d70fd568310f1332760de45d811ddb384afab",
          "blockNumber": "0x72509c",
          "transactionHash": "0x2ed67f23f186b3236f2bd46c28d5eb708bf0d2c96304e558b50014a5c3139534",
          "transactionIndex": "0x4f",
          "logIndex": "0x58",
          "removed": false
        },
        {
          "address": "0x5eb9cc76c3506942c1c0ead70e877dd5e4f00cb0",
          "topics": [
            "0x4afcb4a87cdbd9974efdb92ee48bc8d7cd0ae4bf217004db3d080cbaee652ca7"
          ],
          "data": "0x000000000000000000000000000000000000000000000000000000006786b91c00000000000000000000000000000000000000000000000000039119b0aca8bb0000000000000000000000000000000000000000000000000dc7db1331c7b096",
          "blockHash": "0x4ffed2990daecaa858e987d69c7d70fd568310f1332760de45d811ddb384afab",
          "blockNumber": "0x72509c",
          "transactionHash": "0x2ed67f23f186b3236f2bd46c28d5eb708bf0d2c96304e558b50014a5c3139534",
          "transactionIndex": "0x4f",
          "logIndex": "0x59",
          "removed": false
        }
      ],
      "logsBloom": "0x00000000000000000000000000000000000000000000000000000000000000000000000000000000000000000000000000000000000000004000000000000000000000000000000000000008000000000000000000000000000000000000000000000000020000000000000004000800020000000000000000000010000000000000000000000000000000000000000000000000000000000000010000000000000000000000000000000000000000004000000000000000000000000000020000000002000000800000008000000000000000000000080000000000000020000000000000000000000000000000000000000000000000000000000000000000",
      "type": "0x2",
      "transactionHash": "0x2ed67f23f186b3236f2bd46c28d5eb708bf0d2c96304e558b50014a5c3139534",
      "transactionIndex": "0x4f",
      "blockHash": "0x4ffed2990daecaa858e987d69c7d70fd568310f1332760de45d811ddb384afab",
      "blockNumber": "0x72509c",
      "gasUsed": "0xfb93",
      "effectiveGasPrice": "0x20167093e",
      "from": "0xc77f7fed3b5cc8249adc428c5f44c9063b9734b4",
      "to": "0x5eb9cc76c3506942c1c0ead70e877dd5e4f00cb0",
      "contractAddress": null
    }
  ],
  "libraries": [],
  "pending": [],
  "returns": {},
  "timestamp": 1736882461,
  "chain": 11155111,
  "commit": "51a374b"
}