{
  "transactions": [
    {
      "hash": "0x8032a7b446d9ede3780e68935fa8eb3b7fd89daa8ace86a8202e3af26c65e7ce",
      "transactionType": "CALL",
      "contractName": null,
      "contractAddress": "0x8aafd3ede9adb0ff97c7aebce82a919afb1c8764",
      "function": "sell(uint256)",
      "arguments": [
        "341714958574129"
      ],
      "transaction": {
        "from": "0xc77f7fed3b5cc8249adc428c5f44c9063b9734b4",
        "to": "0x8aafd3ede9adb0ff97c7aebce82a919afb1c8764",
        "gas": "0x1724d",
        "value": "0x0",
        "input": "0xe4849b32000000000000000000000000000000000000000000000000000136c9b6b86231",
        "nonce": "0x12b0",
        "chainId": "0xaa36a7"
      },
      "additionalContracts": [],
      "isFixedGasLimit": false
    }
  ],
  "receipts": [
    {
      "status": "0x1",
      "cumulativeGasUsed": "0x993094",
      "logs": [
        {
          "address": "0x8aafd3ede9adb0ff97c7aebce82a919afb1c8764",
          "topics": [
            "0xddf252ad1be2c89b69c2b068fc378daa952ba7f163c4a11628f55a4df523b3ef",
            "0x000000000000000000000000c77f7fed3b5cc8249adc428c5f44c9063b9734b4",
            "0x0000000000000000000000000000000000000000000000000000000000000000"
          ],
          "data": "0x0000000000000000000000000000000000000000000000000001344d38549ac0",
          "blockHash": "0x83485728fc9746a7fc7f2bf989cde5f7f5338d5471d142d66fdbbff64d4108c8",
          "blockNumber": "0x7319a6",
          "transactionHash": "0x8032a7b446d9ede3780e68935fa8eb3b7fd89daa8ace86a8202e3af26c65e7ce",
          "transactionIndex": "0x83",
          "logIndex": "0x86",
          "removed": false
        },
        {
          "address": "0x8aafd3ede9adb0ff97c7aebce82a919afb1c8764",
          "topics": [
            "0xddf252ad1be2c89b69c2b068fc378daa952ba7f163c4a11628f55a4df523b3ef",
            "0x000000000000000000000000c77f7fed3b5cc8249adc428c5f44c9063b9734b4",
            "0x000000000000000000000000c77f7fed3b5cc8249adc428c5f44c9063b9734b4"
          ],
          "data": "0x0000000000000000000000000000000000000000000000000000027c7e63c771",
          "blockHash": "0x83485728fc9746a7fc7f2bf989cde5f7f5338d5471d142d66fdbbff64d4108c8",
          "blockNumber": "0x7319a6",
          "transactionHash": "0x8032a7b446d9ede3780e68935fa8eb3b7fd89daa8ace86a8202e3af26c65e7ce",
          "transactionIndex": "0x83",
          "logIndex": "0x87",
          "removed": false
        },
        {
          "address": "0x8aafd3ede9adb0ff97c7aebce82a919afb1c8764",
          "topics": [
            "0x4afcb4a87cdbd9974efdb92ee48bc8d7cd0ae4bf217004db3d080cbaee652ca7"
          ],
          "data": "0x000000000000000000000000000000000000000000000000000000006790309800000000000000000000000000000000000000000000000000054aa30d7887060000000000000000000000000000000000000000000000000000007680984211",
          "blockHash": "0x83485728fc9746a7fc7f2bf989cde5f7f5338d5471d142d66fdbbff64d4108c8",
          "blockNumber": "0x7319a6",
          "transactionHash": "0x8032a7b446d9ede3780e68935fa8eb3b7fd89daa8ace86a8202e3af26c65e7ce",
          "transactionIndex": "0x83",
          "logIndex": "0x88",
          "removed": false
        }
      ],
      "logsBloom": "0x00000000000000000000000000000000000000000600000000000000000000000000000000000000000000000000000000000000000000004000000000000000000000000000004000000008000000000000000000000000000000000000000000000000020000000000000000000800020000000000000000000010000000000000000000000000000000000000000000000000000000000000010000000000000000000000000000000000000000004000000000000000000000000000000000000002000000800000000000000000000000000000080000000000000020000000000000000000000000000000000000000000000000000000000000000000",
      "type": "0x2",
      "transactionHash": "0x8032a7b446d9ede3780e68935fa8eb3b7fd89daa8ace86a8202e3af26c65e7ce",
      "transactionIndex": "0x83",
      "blockHash": "0x83485728fc9746a7fc7f2bf989cde5f7f5338d5471d142d66fdbbff64d4108c8",
      "blockNumber": "0x7319a6",
      "gasUsed": "0xfd33",
      "effectiveGasPrice": "0x42c240a7",
      "from": "0xc77f7fed3b5cc8249adc428c5f44c9063b9734b4",
      "to": "0x8aafd3ede9adb0ff97c7aebce82a919afb1c8764",
      "contractAddress": null
    }
  ],
  "libraries": [],
  "pending": [],
  "returns": {},
  "timestamp": 1737502874,
  "chain": 11155111,
  "commit": "1d2fb70"
}