{
  "transactions": [
    {
      "hash": "0xabc237f8d853e2b98f67322b1eccf927a0b37be9992c167bb40d09e92773f546",
      "transactionType": "CALL",
      "contractName": null,
      "contractAddress": "0x8aafd3ede9adb0ff97c7aebce82a919afb1c8764",
      "function": "sell(uint256)",
      "arguments": [
        "604543849026"
      ],
      "transaction": {
        "from": "0xc77f7fed3b5cc8249adc428c5f44c9063b9734b4",
        "to": "0x8aafd3ede9adb0ff97c7aebce82a919afb1c8764",
        "gas": "0x1722a",
        "value": "0x0",
        "input": "0xe4849b320000000000000000000000000000000000000000000000000000008cc19f1242",
        "nonce": "0x1755",
        "chainId": "0xaa36a7"
      },
      "additionalContracts": [],
      "isFixedGasLimit": false
    }
  ],
  "receipts": [
    {
      "status": "0x1",
      "cumulativeGasUsed": "0xa6872f",
      "logs": [
        {
          "address": "0x8aafd3ede9adb0ff97c7aebce82a919afb1c8764",
          "topics": [
            "0xddf252ad1be2c89b69c2b068fc378daa952ba7f163c4a11628f55a4df523b3ef",
            "0x000000000000000000000000c77f7fed3b5cc8249adc428c5f44c9063b9734b4",
            "0x0000000000000000000000000000000000000000000000000000000000000000"
          ],
          "data": "0x0000000000000000000000000000000000000000000000000000008ba15a36fa",
          "blockHash": "0x271095b23ebf4033c57ff8cbfab59a2ab2821b061be68789daaf72ae5dcd6217",
          "blockNumber": "0x731f25",
          "transactionHash": "0xabc237f8d853e2b98f67322b1eccf927a0b37be9992c167bb40d09e92773f546",
          "transactionIndex": "0x5f",
          "logIndex": "0x95",
          "removed": false
        },
        {
          "address": "0x8aafd3ede9adb0ff97c7aebce82a919afb1c8764",
          "topics": [
            "0xddf252ad1be2c89b69c2b068fc378daa952ba7f163c4a11628f55a4df523b3ef",
            "0x000000000000000000000000c77f7fed3b5cc8249adc428c5f44c9063b9734b4",
            "0x000000000000000000000000c77f7fed3b5cc8249adc428c5f44c9063b9734b4"
          ],
          "data": "0x000000000000000000000000000000000000000000000000000000012044db48",
          "blockHash": "0x271095b23ebf4033c57ff8cbfab59a2ab2821b061be68789daaf72ae5dcd6217",
          "blockNumber": "0x731f25",
          "transactionHash": "0xabc237f8d853e2b98f67322b1eccf927a0b37be9992c167bb40d09e92773f546",
          "transactionIndex": "0x5f",
          "logIndex": "0x96",
          "removed": false
        },
        {
          "address": "0x8aafd3ede9adb0ff97c7aebce82a919afb1c8764",
          "topics": [
            "0x4afcb4a87cdbd9974efdb92ee48bc8d7cd0ae4bf217004db3d080cbaee652ca7"
          ],
          "data": "0x00000000000000000000000000000000000000000000000000000000679072a4000000000000000000000000000000000000000000000000001802025906c67500000000000000000000000000000000000000000000000000000000f3804899",
          "blockHash": "0x271095b23ebf4033c57ff8cbfab59a2ab2821b061be68789daaf72ae5dcd6217",
          "blockNumber": "0x731f25",
          "transactionHash": "0xabc237f8d853e2b98f67322b1eccf927a0b37be9992c167bb40d09e92773f546",
          "transactionIndex": "0x5f",
          "logIndex": "0x97",
          "removed": false
        }
      ],
      "logsBloom": "0x00000000000000000000000000000000000000000600000000000000000000000000000000000000000000000000000000000000000000004000000000000000000000000000004000000008000000000000000000000000000000000000000000000000020000000000000000000800020000000000000000000010000000000000000000000000000000000000000000000000000000000000010000000000000000000000000000000000000000004000000000000000000000000000000000000002000000800000000000000000000000000000080000000000000020000000000000000000000000000000000000000000000000000000000000000000",
      "type": "0x2",
      "transactionHash": "0xabc237f8d853e2b98f67322b1eccf927a0b37be9992c167bb40d09e92773f546",
      "transactionIndex": "0x5f",
      "blockHash": "0x271095b23ebf4033c57ff8cbfab59a2ab2821b061be68789daaf72ae5dcd6217",
      "blockNumber": "0x731f25",
      "gasUsed": "0xfd1b",
      "effectiveGasPrice": "0x43f47f7d",
      "from": "0xc77f7fed3b5cc8249adc428c5f44c9063b9734b4",
      "to": "0x8aafd3ede9adb0ff97c7aebce82a919afb1c8764",
      "contractAddress": null
    }
  ],
  "libraries": [],
  "pending": [],
  "returns": {},
  "timestamp": 1737519783,
  "chain": 11155111,
  "commit": "1d2fb70"
}