{
  "transactions": [
    {
      "hash": "0xd649d85fe977db976e24b5eb798983047c51a10a1deb4d9429d0f5211dc65f0d",
      "transactionType": "CALL",
      "contractName": null,
      "contractAddress": "0x270e88f8683660553e8ba4eb2ad7c91a1710d769",
      "function": "sell(uint256)",
      "arguments": [
        "713225248387037024607"
      ],
      "transaction": {
        "from": "0xc77f7fed3b5cc8249adc428c5f44c9063b9734b4",
        "to": "0x270e88f8683660553e8ba4eb2ad7c91a1710d769",
        "gas": "0x16fec",
        "value": "0x0",
        "input": "0xe4849b32000000000000000000000000000000000000000000000026a9fd18942516515f",
        "nonce": "0x874",
        "chainId": "0xaa36a7"
      },
      "additionalContracts": [],
      "isFixedGasLimit": false
    }
  ],
  "receipts": [
    {
      "status": "0x1",
      "cumulativeGasUsed": "0xe701e7",
      "logs": [
        {
          "address": "0x270e88f8683660553e8ba4eb2ad7c91a1710d769",
          "topics": [
            "0xddf252ad1be2c89b69c2b068fc378daa952ba7f163c4a11628f55a4df523b3ef",
            "0x000000000000000000000000c77f7fed3b5cc8249adc428c5f44c9063b9734b4",
            "0x0000000000000000000000000000000000000000000000000000000000000000"
          ],
          "data": "0x000000000000000000000000000000000000000000000026a9fd18942516515f",
          "blockHash": "0x357a0bdc37a957a1acf98c650064094e61690c6fee02de62017a98e2c930f599",
          "blockNumber": "0x7255cc",
          "transactionHash": "0xd649d85fe977db976e24b5eb798983047c51a10a1deb4d9429d0f5211dc65f0d",
          "transactionIndex": "0x41",
          "logIndex": "0x18b",
          "removed": false
        },
        {
          "address": "0x270e88f8683660553e8ba4eb2ad7c91a1710d769",
          "topics": [
            "0x4afcb4a87cdbd9974efdb92ee48bc8d7cd0ae4bf217004db3d080cbaee652ca7"
          ],
          "data": "0x000000000000000000000000000000000000000000000000000000006786f7980000000000000000000000000000000000000000000000000004f28e69dddd250000000000000000000000000000000000000000000000000dc825ba48017846",
          "blockHash": "0x357a0bdc37a957a1acf98c650064094e61690c6fee02de62017a98e2c930f599",
          "blockNumber": "0x7255cc",
          "transactionHash": "0xd649d85fe977db976e24b5eb798983047c51a10a1deb4d9429d0f5211dc65f0d",
          "transactionIndex": "0x41",
          "logIndex": "0x18c",
          "removed": false
        }
      ],
      "logsBloom": "0x00000000000000000000000000000000000000000000000000000000000000000000000000000000000000000000000020000000000000004000000000000000000000000000000000000008000000000000000000000000000000000000000000000000020000000000000000000800020000000000000000000010000000000000000000010000000000000000000000000000000000000000010000000000000000000000000000000000000000004000000000000000000000000000000000000002000000800000000000000000000000000000080000008000000020000000000000000000000000000000000000000000000000000000000000000000",
      "type": "0x2",
      "transactionHash": "0xd649d85fe977db976e24b5eb798983047c51a10a1deb4d9429d0f5211dc65f0d",
      "transactionIndex": "0x41",
      "blockHash": "0x357a0bdc37a957a1acf98c650064094e61690c6fee02de62017a98e2c930f599",
      "blockNumber": "0x7255cc",
      "gasUsed": "0xfb93",
      "effectiveGasPrice": "0xabc5f8d9",
      "from": "0xc77f7fed3b5cc8249adc428c5f44c9063b9734b4",
      "to": "0x270e88f8683660553e8ba4eb2ad7c91a1710d769",
      "contractAddress": null
    }
  ],
  "libraries": [],
  "pending": [],
  "returns": {},
  "timestamp": 1736898457,
  "chain": 11155111,
  "commit": "51a374b"
}