{
  "transactions": [
    {
      "hash": "0xdec0d4e3dc62121e9e64a6639df1eac747728388328df0d135910fb3dffea2e3",
      "transactionType": "CALL",
      "contractName": null,
      "contractAddress": "0x8aafd3ede9adb0ff97c7aebce82a919afb1c8764",
      "function": "sell(uint256)",
      "arguments": [
        "13282047668311493"
      ],
      "transaction": {
        "from": "0xc77f7fed3b5cc8249adc428c5f44c9063b9734b4",
        "to": "0x8aafd3ede9adb0ff97c7aebce82a919afb1c8764",
        "gas": "0x1724d",
        "value": "0x0",
        "input": "0xe4849b32000000000000000000000000000000000000000000000000002f2ff3b528d5c5",
        "nonce": "0x1501",
        "chainId": "0xaa36a7"
      },
      "additionalContracts": [],
      "isFixedGasLimit": false
    }
  ],
  "receipts": [
    {
      "status": "0x1",
      "cumulativeGasUsed": "0xce3f2d",
      "logs": [
        {
          "address": "0x8aafd3ede9adb0ff97c7aebce82a919afb1c8764",
          "topics": [
            "0xddf252ad1be2c89b69c2b068fc378daa952ba7f163c4a11628f55a4df523b3ef",
            "0x000000000000000000000000c77f7fed3b5cc8249adc428c5f44c9063b9734b4",
            "0x0000000000000000000000000000000000000000000000000000000000000000"
          ],
          "data": "0x000000000000000000000000000000000000000000000000002ecf4ff74b530a",
          "blockHash": "0xbb6f97438f2d519ff41b26c2a9c52ac729f58ea82a3ba5c1767de067ae078828",
          "blockNumber": "0x731c63",
          "transactionHash": "0xdec0d4e3dc62121e9e64a6639df1eac747728388328df0d135910fb3dffea2e3",
          "transactionIndex": "0x7e",
          "logIndex": "0xb9",
          "removed": false
        },
        {
          "address": "0x8aafd3ede9adb0ff97c7aebce82a919afb1c8764",
          "topics": [
            "0xddf252ad1be2c89b69c2b068fc378daa952ba7f163c4a11628f55a4df523b3ef",
            "0x000000000000000000000000c77f7fed3b5cc8249adc428c5f44c9063b9734b4",
            "0x000000000000000000000000c77f7fed3b5cc8249adc428c5f44c9063b9734b4"
          ],
          "data": "0x000000000000000000000000000000000000000000000000000060a3bddd82bb",
          "blockHash": "0xbb6f97438f2d519ff41b26c2a9c52ac729f58ea82a3ba5c1767de067ae078828",
          "blockNumber": "0x731c63",
          "transactionHash": "0xdec0d4e3dc62121e9e64a6639df1eac747728388328df0d135910fb3dffea2e3",
          "transactionIndex": "0x7e",
          "logIndex": "0xba",
          "removed": false
        },
        {
          "address": "0x8aafd3ede9adb0ff97c7aebce82a919afb1c8764",
          "topics": [
            "0x4afcb4a87cdbd9974efdb92ee48bc8d7cd0ae4bf217004db3d080cbaee652ca7"
          ],
          "data": "0x000000000000000000000000000000000000000000000000000000006790518000000000000000000000000000000000000000000000000000111a504fd4ebb400000000000000000000000000000000000000000000000000003a2728069229",
          "blockHash": "0xbb6f97438f2d519ff41b26c2a9c52ac729f58ea82a3ba5c1767de067ae078828",
          "blockNumber": "0x731c63",
          "transactionHash": "0xdec0d4e3dc62121e9e64a6639df1eac747728388328df0d135910fb3dffea2e3",
          "transactionIndex": "0x7e",
          "logIndex": "0xbb",
          "removed": false
        }
      ],
      "logsBloom": "0x00000000000000000000000000000000000000000600000000000000000000000000000000000000000000000000000000000000000000004000000000000000000000000000004000000008000000000000000000000000000000000000000000000000020000000000000000000800020000000000000000000010000000000000000000000000000000000000000000000000000000000000010000000000000000000000000000000000000000004000000000000000000000000000000000000002000000800000000000000000000000000000080000000000000020000000000000000000000000000000000000000000000000000000000000000000",
      "type": "0x2",
      "transactionHash": "0xdec0d4e3dc62121e9e64a6639df1eac747728388328df0d135910fb3dffea2e3",
      "transactionIndex": "0x7e",
      "blockHash": "0xbb6f97438f2d519ff41b26c2a9c52ac729f58ea82a3ba5c1767de067ae078828",
      "blockNumber": "0x731c63",
      "gasUsed": "0xfd33",
      "effectiveGasPrice": "0x1859388b9",
      "from": "0xc77f7fed3b5cc8249adc428c5f44c9063b9734b4",
      "to": "0x8aafd3ede9adb0ff97c7aebce82a919afb1c8764",
      "contractAddress": null
    }
  ],
  "libraries": [],
  "pending": [],
  "returns": {},
  "timestamp": 1737511297,
  "chain": 11155111,
  "commit": "1d2fb70"
}