{
  "transactions": [
    {
      "hash": "0x399cf17f81c97e67a7f8eacb28d2f107af3e0c695a2bf80364b180a711927d58",
      "transactionType": "CALL",
      "contractName": null,
      "contractAddress": "0x270e88f8683660553e8ba4eb2ad7c91a1710d769",
      "function": "sell(uint256)",
      "arguments": [
        "756636786948061036639"
      ],
      "transaction": {
        "from": "0xc77f7fed3b5cc8249adc428c5f44c9063b9734b4",
        "to": "0x270e88f8683660553e8ba4eb2ad7c91a1710d769",
        "gas": "0x16fec",
        "value": "0x0",
        "input": "0xe4849b320000000000000000000000000000000000000000000000290471dce55018805f",
        "nonce": "0x684",
        "chainId": "0xaa36a7"
      },
      "additionalContracts": [],
      "isFixedGasLimit": false
    }
  ],
  "receipts": [
    {
      "status": "0x1",
      "cumulativeGasUsed": "0xb45e90",
      "logs": [
        {
          "address": "0x270e88f8683660553e8ba4eb2ad7c91a1710d769",
          "topics": [
            "0xddf252ad1be2c89b69c2b068fc378daa952ba7f163c4a11628f55a4df523b3ef",
            "0x000000000000000000000000c77f7fed3b5cc8249adc428c5f44c9063b9734b4",
            "0x0000000000000000000000000000000000000000000000000000000000000000"
          ],
          "data": "0x0000000000000000000000000000000000000000000000290471dce55018805f",
          "blockHash": "0x2e2e64224d71554b776d51b1b72ed403ddd11beee77e00ed8c12d1fa9e40f58b",
          "blockNumber": "0x725383",
          "transactionHash": "0x399cf17f81c97e67a7f8eacb28d2f107af3e0c695a2bf80364b180a711927d58",
          "transactionIndex": "0x51",
          "logIndex": "0x5c",
          "removed": false
        },
        {
          "address": "0x270e88f8683660553e8ba4eb2ad7c91a1710d769",
          "topics": [
            "0x4afcb4a87cdbd9974efdb92ee48bc8d7cd0ae4bf217004db3d080cbaee652ca7"
          ],
          "data": "0x000000000000000000000000000000000000000000000000000000006786dc2c0000000000000000000000000000000000000000000000000004a9e7bb60fff60000000000000000000000000000000000000000000000000dc82a38a27048b1",
          "blockHash": "0x2e2e64224d71554b776d51b1b72ed403ddd11beee77e00ed8c12d1fa9e40f58b",
          "blockNumber": "0x725383",
          "transactionHash": "0x399cf17f81c97e67a7f8eacb28d2f107af3e0c695a2bf80364b180a711927d58",
          "transactionIndex": "0x51",
          "logIndex": "0x5d",
          "removed": false
        }
      ],
      "logsBloom": "0x00000000000000000000000000000000000000000000000000000000000000000000000000000000000000000000000020000000000000004000000000000000000000000000000000000008000000000000000000000000000000000000000000000000020000000000000000000800020000000000000000000010000000000000000000010000000000000000000000000000000000000000010000000000000000000000000000000000000000004000000000000000000000000000000000000002000000800000000000000000000000000000080000008000000020000000000000000000000000000000000000000000000000000000000000000000",
      "type": "0x2",
      "transactionHash": "0x399cf17f81c97e67a7f8eacb28d2f107af3e0c695a2bf80364b180a711927d58",
      "transactionIndex": "0x51",
      "blockHash": "0x2e2e64224d71554b776d51b1b72ed403ddd11beee77e00ed8c12d1fa9e40f58b",
      "blockNumber": "0x725383",
      "gasUsed": "0xfb93",
      "effectiveGasPrice": "0x23b284bda",
      "from": "0xc77f7fed3b5cc8249adc428c5f44c9063b9734b4",
      "to": "0x270e88f8683660553e8ba4eb2ad7c91a1710d769",
      "contractAddress": null
    }
  ],
  "libraries": [],
  "pending": [],
  "returns": {},
  "timestamp": 1736891438,
  "chain": 11155111,
  "commit": "51a374b"
}