{
  "transactions": [
    {
      "hash": "0xd34bbdc73ba4dede0a798b9c983c04d068cb38d5012f0f03aeb54ff52034f669",
      "transactionType": "CALL",
      "contractName": null,
      "contractAddress": "0x8aafd3ede9adb0ff97c7aebce82a919afb1c8764",
      "function": "sell(uint256)",
      "arguments": [
        "208805322945684408855"
      ],
      "transaction": {
        "from": "0xc77f7fed3b5cc8249adc428c5f44c9063b9734b4",
        "to": "0x8aafd3ede9adb0ff97c7aebce82a919afb1c8764",
        "gas": "0x17270",
        "value": "0x0",
        "input": "0xe4849b3200000000000000000000000000000000000000000000000b51c186ebcc3d8a17",
        "nonce": "0x14f6",
        "chainId": "0xaa36a7"
      },
      "additionalContracts": [],
      "isFixedGasLimit": false
    }
  ],
  "receipts": [
    {
      "status": "0x1",
      "cumulativeGasUsed": "0xd53677",
      "logs": [
        {
          "address": "0x8aafd3ede9adb0ff97c7aebce82a919afb1c8764",
          "topics": [
            "0xddf252ad1be2c89b69c2b068fc378daa952ba7f163c4a11628f55a4df523b3ef",
            "0x000000000000000000000000c77f7fed3b5cc8249adc428c5f44c9063b9734b4",
            "0x0000000000000000000000000000000000000000000000000000000000000000"
          ],
          "data": "0x00000000000000000000000000000000000000000000000b3a92ec3de1226c51",
          "blockHash": "0x1e78236069ac6a7872db5405aef932bea6af318973a5523bbc8627c4d5a9cb32",
          "blockNumber": "0x731c57",
          "transactionHash": "0xd34bbdc73ba4dede0a798b9c983c04d068cb38d5012f0f03aeb54ff52034f669",
          "transactionIndex": "0x93",
          "logIndex": "0xb0",
          "removed": false
        },
        {
          "address": "0x8aafd3ede9adb0ff97c7aebce82a919afb1c8764",
          "topics": [
            "0xddf252ad1be2c89b69c2b068fc378daa952ba7f163c4a11628f55a4df523b3ef",
            "0x000000000000000000000000c77f7fed3b5cc8249adc428c5f44c9063b9734b4",
            "0x000000000000000000000000c77f7fed3b5cc8249adc428c5f44c9063b9734b4"
          ],
          "data": "0x000000000000000000000000000000000000000000000000172e9aadeb1b1dc6",
          "blockHash": "0x1e78236069ac6a7872db5405aef932bea6af318973a5523bbc8627c4d5a9cb32",
          "blockNumber": "0x731c57",
          "transactionHash": "0xd34bbdc73ba4dede0a798b9c983c04d068cb38d5012f0f03aeb54ff52034f669",
          "transactionIndex": "0x93",
          "logIndex": "0xb1",
          "removed": false
        },
        {
          "address": "0x8aafd3ede9adb0ff97c7aebce82a919afb1c8764",
          "topics": [
            "0x4afcb4a87cdbd9974efdb92ee48bc8d7cd0ae4bf217004db3d080cbaee652ca7"
          ],
          "data": "0x00000000000000000000000000000000000000000000000000000000679050f00000000000000000000000000000000000000000000000000010ff9b1fe636050000000000000000000000000000000000000000000000000dcd265675876e47",
          "blockHash": "0x1e78236069ac6a7872db5405aef932bea6af318973a5523bbc8627c4d5a9cb32",
          "blockNumber": "0x731c57",
          "transactionHash": "0xd34bbdc73ba4dede0a798b9c983c04d068cb38d5012f0f03aeb54ff52034f669",
          "transactionIndex": "0x93",
          "logIndex": "0xb2",
          "removed": false
        }
      ],
      "logsBloom": "0x00000000000000000000000000000000000000000600000000000000000000000000000000000000000000000000000000000000000000004000000000000000000000000000004000000008000000000000000000000000000000000000000000000000020000000000000000000800020000000000000000000010000000000000000000000000000000000000000000000000000000000000010000000000000000000000000000000000000000004000000000000000000000000000000000000002000000800000000000000000000000000000080000000000000020000000000000000000000000000000000000000000000000000000000000000000",
      "type": "0x2",
      "transactionHash": "0xd34bbdc73ba4dede0a798b9c983c04d068cb38d5012f0f03aeb54ff52034f669",
      "transactionIndex": "0x93",
      "blockHash": "0x1e78236069ac6a7872db5405aef932bea6af318973a5523bbc8627c4d5a9cb32",
      "blockNumber": "0x731c57",
      "gasUsed": "0xfd4b",
      "effectiveGasPrice": "0x159bf2476",
      "from": "0xc77f7fed3b5cc8249adc428c5f44c9063b9734b4",
      "to": "0x8aafd3ede9adb0ff97c7aebce82a919afb1c8764",
      "contractAddress": null
    }
  ],
  "libraries": [],
  "pending": [],
  "returns": {},
  "timestamp": 1737511153,
  "chain": 11155111,
  "commit": "1d2fb70"
}