{
  "transactions": [
    {
      "hash": "0x43bd5e4b74ff057334ca176027fe1a0856dc8a5f324e0a72e5ca2cc4018cea64",
      "transactionType": "CALL",
      "contractName": null,
      "contractAddress": "0x5eb9cc76c3506942c1c0ead70e877dd5e4f00cb0",
      "function": "buy(address)",
      "arguments": [
        "0xC77f7fed3b5Cc8249aDc428c5F44C9063B9734b4"
      ],
      "transaction": {
        "from": "0xc77f7fed3b5cc8249adc428c5f44c9063b9734b4",
        "to": "0x5eb9cc76c3506942c1c0ead70e877dd5e4f00cb0",
        "gas": "0x1b30c",
        "value": "0xde0b6b3a7640000",
        "input": "0xf088d547000000000000000000000000c77f7fed3b5cc8249adc428c5f44c9063b9734b4",
        "nonce": "0x3e8",
        "chainId": "0xaa36a7"
      },
      "additionalContracts": [],
      "isFixedGasLimit": false
    }
  ],
  "receipts": [
    {
      "status": "0x1",
      "cumulativeGasUsed": "0x972e40",
      "logs": [
        {
          "address": "0x5eb9cc76c3506942c1c0ead70e877dd5e4f00cb0",
          "topics": [
            "0xddf252ad1be2c89b69c2b068fc378daa952ba7f163c4a11628f55a4df523b3ef",
            "0x0000000000000000000000000000000000000000000000000000000000000000",
            "0x000000000000000000000000c77f7fed3b5cc8249adc428c5f44c9063b9734b4"
          ],
          "data": "0x000000000000000000000000000000000000000000000035750fc442a451ee74",
          "blockHash": "0xb0875038d6aa1ce6880c3b6b0d0f8975b29fc6db0561a16a76b2eda6bf922349",
          "blockNumber": "0x724fee",
          "transactionHash": "0x43bd5e4b74ff057334ca176027fe1a0856dc8a5f324e0a72e5ca2cc4018cea64",
          "transactionIndex": "0x56",
          "logIndex": "0x91",
          "removed": false
        },
        {
          "address": "0x5eb9cc76c3506942c1c0ead70e877dd5e4f00cb0",
          "topics": [
            "0xddf252ad1be2c89b69c2b068fc378daa952ba7f163c4a11628f55a4df523b3ef",
            "0x0000000000000000000000000000000000000000000000000000000000000000",
            "0x000000000000000000000000c77f7fed3b5cc8249adc428c5f44c9063b9734b4"
          ],
          "data": "0x0000000000000000000000000000000000000000000000002982eac850a30294",
          "blockHash": "0xb0875038d6aa1ce6880c3b6b0d0f8975b29fc6db0561a16a76b2eda6bf922349",
          "blockNumber": "0x724fee",
          "transactionHash": "0x43bd5e4b74ff057334ca176027fe1a0856dc8a5f324e0a72e5ca2cc4018cea64",
          "transactionIndex": "0x56",
          "logIndex": "0x92",
          "removed": false
        },
        {
          "address": "0x5eb9cc76c3506942c1c0ead70e877dd5e4f00cb0",
          "topics": [
            "0x4afcb4a87cdbd9974efdb92ee48bc8d7cd0ae4bf217004db3d080cbaee652ca7"
          ],
          "data": "0x000000000000000000000000000000000000000000000000000000006786b0f40000000000000000000000000000000000000000000000000003911485332a210000000000000000000000000000000000000000000000000de0b6b3a7640000",
          "blockHash": "0xb0875038d6aa1ce6880c3b6b0d0f8975b29fc6db0561a16a76b2eda6bf922349",
          "blockNumber": "0x724fee",
          "transactionHash": "0x43bd5e4b74ff057334ca176027fe1a0856dc8a5f324e0a72e5ca2cc4018cea64",
          "transactionIndex": "0x56",
          "logIndex": "0x93",
          "removed": false
        }
      ],
      "logsBloom": "0x00000000000000000000000000000000000000000000000000000000000000000000000000000000000000000000000000000000000000004000000000000000000000000000000000000008000000000000000000000000000000000000000000000000020000000000000004000800020000000000000000000010000000000000000000000000000000000000000000000000000000000000010000000000000000000000000000000000000000004000000000000000000000000000020000000002000000800000008000000000000000000000080000000000000020000000000000000000000000000000000000000000000000000000000000000000",
      "type": "0x2",
      "transactionHash": "0x43bd5e4b74ff057334ca176027fe1a0856dc8a5f324e0a72e5ca2cc4018cea64",
      "transactionIndex": "0x56",
      "blockHash": "0xb0875038d6aa1ce6880c3b6b0d0f8975b29fc6db0561a16a76b2eda6bf922349",
      "blockNumber": "0x724fee",
      "gasUsed": "0x13af8",
      "effectiveGasPrice": "0x3b25d8663",
      "from": "0xc77f7fed3b5cc8249adc428c5f44c9063b9734b4",
      "to": "0x5eb9cc76c3506942c1c0ead70e877dd5e4f00cb0",
      "contractAddress": null
    }
  ],
  "libraries": [],
  "pending": [],
  "returns": {},
  "timestamp": 1736880373,
  "chain": 11155111,
  "commit": "51a374b"
}