{
  "transactions": [
    {
      "hash": "0x1a60bbe459aa4f80664973b62d64c85cdcbfc376acfb316cbfe98f677abe2e76",
      "transactionType": "CALL",
      "contractName": null,
      "contractAddress": "0x8aafd3ede9adb0ff97c7aebce82a919afb1c8764",
      "function": "sell(uint256)",
      "arguments": [
        "2905276846518"
      ],
      "transaction": {
        "from": "0xc77f7fed3b5cc8249adc428c5f44c9063b9734b4",
        "to": "0x8aafd3ede9adb0ff97c7aebce82a919afb1c8764",
        "gas": "0x15daa",
        "value": "0x0",
        "input": "0xe4849b32000000000000000000000000000000000000000000000000000002a46ffe91b6",
        "nonce": "0x108b",
        "chainId": "0xaa36a7"
      },
      "additionalContracts": [],
      "isFixedGasLimit": false
    }
  ],
  "receipts": [
    {
      "status": "0x1",
      "cumulativeGasUsed": "0x7cec1e",
      "logs": [
        {
          "address": "0x8aafd3ede9adb0ff97c7aebce82a919afb1c8764",
          "topics": [
            "0xddf252ad1be2c89b69c2b068fc378daa952ba7f163c4a11628f55a4df523b3ef",
            "0x000000000000000000000000c77f7fed3b5cc8249adc428c5f44c9063b9734b4",
            "0x0000000000000000000000000000000000000000000000000000000000000000"
          ],
          "data": "0x0000000000000000000000000000000000000000000000000000029f06a68442",
          "blockHash": "0xa2db37adcdb4d921b9184e4b5c996212ee9f9332eaa45b927b329a962681d141",
          "blockNumber": "0x731717",
          "transactionHash": "0x1a60bbe459aa4f80664973b62d64c85cdcbfc376acfb316cbfe98f677abe2e76",
          "transactionIndex": "0x79",
          "logIndex": "0x6b",
          "removed": false
        },
        {
          "address": "0x8aafd3ede9adb0ff97c7aebce82a919afb1c8764",
          "topics": [
            "0xddf252ad1be2c89b69c2b068fc378daa952ba7f163c4a11628f55a4df523b3ef",
            "0x000000000000000000000000c77f7fed3b5cc8249adc428c5f44c9063b9734b4",
            "0x000000000000000000000000c77f7fed3b5cc8249adc428c5f44c9063b9734b4"
          ],
          "data": "0x0000000000000000000000000000000000000000000000000000000569580d74",
          "blockHash": "0xa2db37adcdb4d921b9184e4b5c996212ee9f9332eaa45b927b329a962681d141",
          "blockNumber": "0x731717",
          "transactionHash": "0x1a60bbe459aa4f80664973b62d64c85cdcbfc376acfb316cbfe98f677abe2e76",
          "transactionIndex": "0x79",
          "logIndex": "0x6c",
          "removed": false
        },
        {
          "address": "0x8aafd3ede9adb0ff97c7aebce82a919afb1c8764",
          "topics": [
            "0x4afcb4a87cdbd9974efdb92ee48bc8d7cd0ae4bf217004db3d080cbaee652ca7"
          ],
          "data": "0x00000000000000000000000000000000000000000000000000000000679011d80000000000000000000000000000000000000000000000000004fabae4fcaa8b00000000000000000000000000000000000000000000000000000000f2b579a7",
          "blockHash": "0xa2db37adcdb4d921b9184e4b5c996212ee9f9332eaa45b927b329a962681d141",
          "blockNumber": "0x731717",
          "transactionHash": "0x1a60bbe459aa4f80664973b62d64c85cdcbfc376acfb316cbfe98f677abe2e76",
          "transactionIndex": "0x79",
          "logIndex": "0x6d",
          "removed": false
        }
      ],
      "logsBloom": "0x00000000000000000000000000000000000000000600000000000000000000000000000000000000000000000000000000000000000000004000000000000000000000000000004000000008000000000000000000000000000000000000000000000000020000000000000000000800020000000000000000000010000000000000000000000000000000000000000000000000000000000000010000000000000000000000000000000000000000004000000000000000000000000000000000000002000000800000000000000000000000000000080000000000000020000000000000000000000000000000000000000000000000000000000000000000",
      "type": "0x2",
      "transactionHash": "0x1a60bbe459aa4f80664973b62d64c85cdcbfc376acfb316cbfe98f677abe2e76",
      "transactionIndex": "0x79",
      "blockHash": "0xa2db37adcdb4d921b9184e4b5c996212ee9f9332eaa45b927b329a962681d141",
      "blockNumber": "0x731717",
      "gasUsed": "0xfd27",
      "effectiveGasPrice": "0x4345d322",
      "from": "0xc77f7fed3b5cc8249adc428c5f44c9063b9734b4",
      "to": "0x8aafd3ede9adb0ff97c7aebce82a919afb1c8764",
      "contractAddress": null
    }
  ],
  "libraries": [],
  "pending": [],
  "returns": {},
  "timestamp": 1737495001,
  "chain": 11155111,
  "commit": "1d2fb70"
}