{
  "transactions": [
    {
      "hash": "0xad4b35ebf5e2102bab3b299f41f506cce23e3495444ca6d43a4f385d2b663b7f",
      "transactionType": "CALL",
      "contractName": null,
      "contractAddress": "0x8aafd3ede9adb0ff97c7aebce82a919afb1c8764",
      "function": "sell(uint256)",
      "arguments": [
        "11518"
      ],
      "transaction": {
        "from": "0xc77f7fed3b5cc8249adc428c5f44c9063b9734b4",
        "to": "0x8aafd3ede9adb0ff97c7aebce82a919afb1c8764",
        "gas": "0x14e4c",
        "value": "0x0",
        "input": "0xe4849b320000000000000000000000000000000000000000000000000000000000002cfe",
        "nonce": "0x11b1",
        "chainId": "0xaa36a7"
      },
      "additionalContracts": [],
      "isFixedGasLimit": false
    }
  ],
  "receipts": [
    {
      "status": "0x1",
      "cumulativeGasUsed": "0xaba456",
      "logs": [
        {
          "address": "0x8aafd3ede9adb0ff97c7aebce82a919afb1c8764",
          "topics": [
            "0xddf252ad1be2c89b69c2b068fc378daa952ba7f163c4a11628f55a4df523b3ef",
            "0x000000000000000000000000c77f7fed3b5cc8249adc428c5f44c9063b9734b4",
            "0x0000000000000000000000000000000000000000000000000000000000000000"
          ],
          "data": "0x0000000000000000000000000000000000000000000000000000000000002ca2",
          "blockHash": "0xe606b558981eeb8fde4d193a50191c9284a09235925c319be47494ae4e7be601",
          "blockNumber": "0x73187e",
          "transactionHash": "0xad4b35ebf5e2102bab3b299f41f506cce23e3495444ca6d43a4f385d2b663b7f",
          "transactionIndex": "0x83",
          "logIndex": "0xd8",
          "removed": false
        },
        {
          "address": "0x8aafd3ede9adb0ff97c7aebce82a919afb1c8764",
          "topics": [
            "0xddf252ad1be2c89b69c2b068fc378daa952ba7f163c4a11628f55a4df523b3ef",
            "0x000000000000000000000000c77f7fed3b5cc8249adc428c5f44c9063b9734b4",
            "0x000000000000000000000000c77f7fed3b5cc8249adc428c5f44c9063b9734b4"
          ],
          "data": "0x000000000000000000000000000000000000000000000000000000000000005c",
          "blockHash": "0xe606b558981eeb8fde4d193a50191c9284a09235925c319be47494ae4e7be601",
          "blockNumber": "0x73187e",
          "transactionHash": "0xad4b35ebf5e2102bab3b299f41f506cce23e3495444ca6d43a4f385d2b663b7f",
          "transactionIndex": "0x83",
          "logIndex": "0xd9",
          "removed": false
        },
        {
          "address": "0x8aafd3ede9adb0ff97c7aebce82a919afb1c8764",
          "topics": [
            "0x4afcb4a87cdbd9974efdb92ee48bc8d7cd0ae4bf217004db3d080cbaee652ca7"
          ],
          "data": "0x00000000000000000000000000000000000000000000000000000000679022b8000000000000000000000000000000000000000000000000000524daed34730c0000000000000000000000000000000000000000000000000000000000000010",
          "blockHash": "0xe606b558981eeb8fde4d193a50191c9284a09235925c319be47494ae4e7be601",
          "blockNumber": "0x73187e",
          "transactionHash": "0xad4b35ebf5e2102bab3b299f41f506cce23e3495444ca6d43a4f385d2b663b7f",
          "transactionIndex": "0x83",
          "logIndex": "0xda",
          "removed": false
        }
      ],
      "logsBloom": "0x00000000000000000000000000000000000000000600000000000000000000000000000000000000000000000000000000000000000000004000000000000000000000000000004000000008000000000000000000000000000000000000000000000000020000000000000000000800020000000000000000000010000000000000000000000000000000000000000000000000000000000000010000000000000000000000000000000000000000004000000000000000000000000000000000000002000000800000000000000000000000000000080000000000000020000000000000000000000000000000000000000000000000000000000000000000",
      "type": "0x2",
      "transactionHash": "0xad4b35ebf5e2102bab3b299f41f506cce23e3495444ca6d43a4f385d2b663b7f",
      "transactionIndex": "0x83",
      "blockHash": "0xe606b558981eeb8fde4d193a50191c9284a09235925c319be47494ae4e7be601",
      "blockNumber": "0x73187e",
      "gasUsed": "0xf207",
      "effectiveGasPrice": "0x4f711ba2",
      "from": "0xc77f7fed3b5cc8249adc428c5f44c9063b9734b4",
      "to": "0x8aafd3ede9adb0ff97c7aebce82a919afb1c8764",
      "contractAddress": null
    }
  ],
  "libraries": [],
  "pending": [],
  "returns": {},
  "timestamp": 1737499322,
  "chain": 11155111,
  "commit": "1d2fb70"
}