{
  "transactions": [
    {
      "hash": "0x53883d0d85abbd8ea83817f9999633496d7a0f9d0fd83a84e5e1b9984f2d5502",
      "transactionType": "CALL",
      "contractName": null,
      "contractAddress": "0xbf4a322f1496e5c3d34a9bcdb4c60567b38c7de2",
      "function": "sell(uint256)",
      "arguments": [
        "982057854700772738679"
      ],
      "transaction": {
        "from": "0xc77f7fed3b5cc8249adc428c5f44c9063b9734b4",
        "to": "0xbf4a322f1496e5c3d34a9bcdb4c60567b38c7de2",
        "gas": "0x16fea",
        "value": "0x0",
        "input": "0xe4849b320000000000000000000000000000000000000000000000353cca5faf51bd4677",
        "nonce": "0xb7f",
        "chainId": "0xaa36a7"
      },
      "additionalContracts": [],
      "isFixedGasLimit": false
    }
  ],
  "receipts": [
    {
      "status": "0x1",
      "cumulativeGasUsed": "0x117ef39",
      "logs": [
        {
          "address": "0xbf4a322f1496e5c3d34a9bcdb4c60567b38c7de2",
          "topics": [
            "0xddf252ad1be2c89b69c2b068fc378daa952ba7f163c4a11628f55a4df523b3ef",
            "0x000000000000000000000000c77f7fed3b5cc8249adc428c5f44c9063b9734b4",
            "0x0000000000000000000000000000000000000000000000000000000000000000"
          ],
          "data": "0x0000000000000000000000000000000000000000000000353cca5faf51bd4677",
          "blockHash": "0x7e0a66ceb1ed586a4277b03d2af290f51929ae5379f4ea05793789ed9fc10c2c",
          "blockNumber": "0x725b8e",
          "transactionHash": "0x53883d0d85abbd8ea83817f9999633496d7a0f9d0fd83a84e5e1b9984f2d5502",
          "transactionIndex": "0x55",
          "logIndex": "0x58",
          "removed": false
        },
        {
          "address": "0xbf4a322f1496e5c3d34a9bcdb4c60567b38c7de2",
          "topics": [
            "0x4afcb4a87cdbd9974efdb92ee48bc8d7cd0ae4bf217004db3d080cbaee652ca7"
          ],
          "data": "0x0000000000000000000000000000000000000000000000000000000067873d04000000000000000000000000000000000000000000000000000397a808558e4e0000000000000000000000000000000000000000000000000dc7e3e6d9d37f3a",
          "blockHash": "0x7e0a66ceb1ed586a4277b03d2af290f51929ae5379f4ea05793789ed9fc10c2c",
          "blockNumber": "0x725b8e",
          "transactionHash": "0x53883d0d85abbd8ea83817f9999633496d7a0f9d0fd83a84e5e1b9984f2d5502",
          "transactionIndex": "0x55",
          "logIndex": "0x59",
          "removed": false
        }
      ],
      "logsBloom": "0x00000000000000000000000000000000000000000000000000000000000000000000000000000000000000000000000000000000000000004000000000000000000000000000000000000008000000000000001000000000000000000000000000000000020000000000000000000800020000000000000000000010000000000000000000000000000000000000000000000000000008000000010000000000000000000000000000000000000000004000000000000000000000000000000000000002000000800000000000001000000000000000080000000000000020000000000000000000000000000000000000000000000000000000000000000000",
      "type": "0x2",
      "transactionHash": "0x53883d0d85abbd8ea83817f9999633496d7a0f9d0fd83a84e5e1b9984f2d5502",
      "transactionIndex": "0x55",
      "blockHash": "0x7e0a66ceb1ed586a4277b03d2af290f51929ae5379f4ea05793789ed9fc10c2c",
      "blockNumber": "0x725b8e",
      "gasUsed": "0xfb91",
      "effectiveGasPrice": "0x3f312167",
      "from": "0xc77f7fed3b5cc8249adc428c5f44c9063b9734b4",
      "to": "0xbf4a322f1496e5c3d34a9bcdb4c60567b38c7de2",
      "contractAddress": null
    }
  ],
  "libraries": [],
  "pending": [],
  "returns": {},
  "timestamp": 1736916230,
  "chain": 11155111,
  "commit": "51a374b"
}