{
  "transactions": [
    {
      "hash": "0x57dc7aca2ba48c7de50992b7433c4d5740916adef0caa88c232ccab696f0c2ff",
      "transactionType": "CALL",
      "contractName": null,
      "contractAddress": "0x8aafd3ede9adb0ff97c7aebce82a919afb1c8764",
      "function": "sell(uint256)",
      "arguments": [
        "339889619440551"
      ],
      "transaction": {
        "from": "0xc77f7fed3b5cc8249adc428c5f44c9063b9734b4",
        "to": "0x8aafd3ede9adb0ff97c7aebce82a919afb1c8764",
        "gas": "0x1724d",
        "value": "0x0",
        "input": "0xe4849b3200000000000000000000000000000000000000000000000000013520b80793a7",
        "nonce": "0x12e2",
        "chainId": "0xaa36a7"
      },
      "additionalContracts": [],
      "isFixedGasLimit": false
    }
  ],
  "receipts": [
    {
      "status": "0x1",
      "cumulativeGasUsed": "0x92c2b4",
      "logs": [
        {
          "address": "0x8aafd3ede9adb0ff97c7aebce82a919afb1c8764",
          "topics": [
            "0xddf252ad1be2c89b69c2b068fc378daa952ba7f163c4a11628f55a4df523b3ef",
            "0x000000000000000000000000c77f7fed3b5cc8249adc428c5f44c9063b9734b4",
            "0x0000000000000000000000000000000000000000000000000000000000000000"
          ],
          "data": "0x000000000000000000000000000000000000000000000000000132a7a0078423",
          "blockHash": "0x111a8988f6c6b1894fac01aa3a16f9cfe454d1861621a7e8e18736c354eaf7b2",
          "blockNumber": "0x7319e4",
          "transactionHash": "0x57dc7aca2ba48c7de50992b7433c4d5740916adef0caa88c232ccab696f0c2ff",
          "transactionIndex": "0x68",
          "logIndex": "0x8b",
          "removed": false
        },
        {
          "address": "0x8aafd3ede9adb0ff97c7aebce82a919afb1c8764",
          "topics": [
            "0xddf252ad1be2c89b69c2b068fc378daa952ba7f163c4a11628f55a4df523b3ef",
            "0x000000000000000000000000c77f7fed3b5cc8249adc428c5f44c9063b9734b4",
            "0x000000000000000000000000c77f7fed3b5cc8249adc428c5f44c9063b9734b4"
          ],
          "data": "0x0000000000000000000000000000000000000000000000000000027918000f84",
          "blockHash": "0x111a8988f6c6b1894fac01aa3a16f9cfe454d1861621a7e8e18736c354eaf7b2",
          "blockNumber": "0x7319e4",
          "transactionHash": "0x57dc7aca2ba48c7de50992b7433c4d5740916adef0caa88c232ccab696f0c2ff",
          "transactionIndex": "0x68",
          "logIndex": "0x8c",
          "removed": false
        },
        {
          "address": "0x8aafd3ede9adb0ff97c7aebce82a919afb1c8764",
          "topics": [
            "0x4afcb4a87cdbd9974efdb92ee48bc8d7cd0ae4bf217004db3d080cbaee652ca7"
          ],
          "data": "0x0000000000000000000000000000000000000000000000000000000067903380000000000000000000000000000000000000000000000000000551e775b23d9200000000000000000000000000000000000000000000000000000076806c4a20",
          "blockHash": "0x111a8988f6c6b1894fac01aa3a16f9cfe454d1861621a7e8e18736c354eaf7b2",
          "blockNumber": "0x7319e4",
          "transactionHash": "0x57dc7aca2ba48c7de50992b7433c4d5740916adef0caa88c232ccab696f0c2ff",
          "transactionIndex": "0x68",
          "logIndex": "0x8d",
          "removed": false
        }
      ],
      "logsBloom": "0x00000000000000000000000000000000000000000600000000000000000000000000000000000000000000000000000000000000000000004000000000000000000000000000004000000008000000000000000000000000000000000000000000000000020000000000000000000800020000000000000000000010000000000000000000000000000000000000000000000000000000000000010000000000000000000000000000000000000000004000000000000000000000000000000000000002000000800000000000000000000000000000080000000000000020000000000000000000000000000000000000000000000000000000000000000000",
      "type": "0x2",
      "transactionHash": "0x57dc7aca2ba48c7de50992b7433c4d5740916adef0caa88c232ccab696f0c2ff",
      "transactionIndex": "0x68",
      "blockHash": "0x111a8988f6c6b1894fac01aa3a16f9cfe454d1861621a7e8e18736c354eaf7b2",
      "blockNumber": "0x7319e4",
      "gasUsed": "0xfd33",
      "effectiveGasPrice": "0x4313ab52",
      "from": "0xc77f7fed3b5cc8249adc428c5f44c9063b9734b4",
      "to": "0x8aafd3ede9adb0ff97c7aebce82a919afb1c8764",
      "contractAddress": null
    }
  ],
  "libraries": [],
  "pending": [],
  "returns": {},
  "timestamp": 1737503617,
  "chain": 11155111,
  "commit": "1d2fb70"
}