{
  "transactions": [
    {
      "hash": "0xc5a5a93b0255b285cdcac2afaf93059b050157d8467c0e1612773ff35559f42d",
      "transactionType": "CALL",
      "contractName": null,
      "contractAddress": "0x270e88f8683660553e8ba4eb2ad7c91a1710d769",
      "function": "sell(uint256)",
      "arguments": [
        "988549803018697574428"
      ],
      "transaction": {
        "from": "0xc77f7fed3b5cc8249adc428c5f44c9063b9734b4",
        "to": "0x270e88f8683660553e8ba4eb2ad7c91a1710d769",
        "gas": "0x16fec",
        "value": "0x0",
        "input": "0xe4849b3200000000000000000000000000000000000000000000003596e26848bfd8081c",
        "nonce": "0x4f1",
        "chainId": "0xaa36a7"
      },
      "additionalContracts": [],
      "isFixedGasLimit": false
    }
  ],
  "receipts": [
    {
      "status": "0x1",
      "cumulativeGasUsed": "0xa49566",
      "logs": [
        {
          "address": "0x270e88f8683660553e8ba4eb2ad7c91a1710d769",
          "topics": [
            "0xddf252ad1be2c89b69c2b068fc378daa952ba7f163c4a11628f55a4df523b3ef",
            "0x000000000000000000000000c77f7fed3b5cc8249adc428c5f44c9063b9734b4",
            "0x0000000000000000000000000000000000000000000000000000000000000000"
          ],
          "data": "0x00000000000000000000000000000000000000000000003596e26848bfd8081c",
          "blockHash": "0x6c2bbcdf7de7488873955119de7c00e83e64dc3187ef2f33bc672aa82553a43d",
          "blockNumber": "0x725182",
          "transactionHash": "0xc5a5a93b0255b285cdcac2afaf93059b050157d8467c0e1612773ff35559f42d",
          "transactionIndex": "0x5f",
          "logIndex": "0x98",
          "removed": false
        },
        {
          "address": "0x270e88f8683660553e8ba4eb2ad7c91a1710d769",
          "topics": [
            "0x4afcb4a87cdbd9974efdb92ee48bc8d7cd0ae4bf217004db3d080cbaee652ca7"
          ],
          "data": "0x000000000000000000000000000000000000000000000000000000006786c3fc000000000000000000000000000000000000000000000000000391e26101a7bc0000000000000000000000000000000000000000000000000dc8421e4e66253c",
          "blockHash": "0x6c2bbcdf7de7488873955119de7c00e83e64dc3187ef2f33bc672aa82553a43d",
          "blockNumber": "0x725182",
          "transactionHash": "0xc5a5a93b0255b285cdcac2afaf93059b050157d8467c0e1612773ff35559f42d",
          "transactionIndex": "0x5f",
          "logIndex": "0x99",
          "removed": false
        }
      ],
      "logsBloom": "0x00000000000000000000000000000000000000000000000000000000000000000000000000000000000000000000000020000000000000004000000000000000000000000000000000000008000000000000000000000000000000000000000000000000020000000000000000000800020000000000000000000010000000000000000000010000000000000000000000000000000000000000010000000000000000000000000000000000000000004000000000000000000000000000000000000002000000800000000000000000000000000000080000008000000020000000000000000000000000000000000000000000000000000000000000000000",
      "type": "0x2",
      "transactionHash": "0xc5a5a93b0255b285cdcac2afaf93059b050157d8467c0e1612773ff35559f42d",
      "transactionIndex": "0x5f",
      "blockHash": "0x6c2bbcdf7de7488873955119de7c00e83e64dc3187ef2f33bc672aa82553a43d",
      "blockNumber": "0x725182",
      "gasUsed": "0xfb93",
      "effectiveGasPrice": "0x450e98e28",
      "from": "0xc77f7fed3b5cc8249adc428c5f44c9063b9734b4",
      "to": "0x270e88f8683660553e8ba4eb2ad7c91a1710d769",
      "contractAddress": null
    }
  ],
  "libraries": [],
  "pending": [],
  "returns": {},
  "timestamp": 1736885246,
  "chain": 11155111,
  "commit": "51a374b"
}