{
  "transactions": [
    {
      "hash": "0x51576b94b3678260cc60e5944a65d25e806ed5e4e2ad02c7ebf283caef669e9d",
      "transactionType": "CALL",
      "contractName": null,
      "contractAddress": "0xbf4a322f1496e5c3d34a9bcdb4c60567b38c7de2",
      "function": "buy(address)",
      "arguments": [
        "0xC77f7fed3b5Cc8249aDc428c5F44C9063B9734b4"
      ],
      "transaction": {
        "from": "0xc77f7fed3b5cc8249adc428c5f44c9063b9734b4",
        "to": "0xbf4a322f1496e5c3d34a9bcdb4c60567b38c7de2",
        "gas": "0x1b309",
        "value": "0xde0b6b3a7640000",
        "input": "0xf088d547000000000000000000000000c77f7fed3b5cc8249adc428c5f44c9063b9734b4",
        "nonce": "0xe0e",
        "chainId": "0xaa36a7"
      },
      "additionalContracts": [],
      "isFixedGasLimit": false
    }
  ],
  "receipts": [
    {
      "status": "0x1",
      "cumulativeGasUsed": "0xaa3aab",
      "logs": [
        {
          "address": "0xbf4a322f1496e5c3d34a9bcdb4c60567b38c7de2",
          "topics": [
            "0xddf252ad1be2c89b69c2b068fc378daa952ba7f163c4a11628f55a4df523b3ef",
            "0x0000000000000000000000000000000000000000000000000000000000000000",
            "0x000000000000000000000000c77f7fed3b5cc8249adc428c5f44c9063b9734b4"
          ],
          "data": "0x0000000000000000000000000000000000000000000000349a4a9289490c31f7",
          "blockHash": "0x1a64e8c2bcb3b3303c22547b80d2c16856032587a8c5d4544c37e2e934271ff9",
          "blockNumber": "0x7266f6",
          "transactionHash": "0x51576b94b3678260cc60e5944a65d25e806ed5e4e2ad02c7ebf283caef669e9d",
          "transactionIndex": "0x53",
          "logIndex": "0x81",
          "removed": false
        },
        {
          "address": "0xbf4a322f1496e5c3d34a9bcdb4c60567b38c7de2",
          "topics": [
            "0xddf252ad1be2c89b69c2b068fc378daa952ba7f163c4a11628f55a4df523b3ef",
            "0x0000000000000000000000000000000000000000000000000000000000000000",
            "0x000000000000000000000000c77f7fed3b5cc8249adc428c5f44c9063b9734b4"
          ],
          "data": "0x00000000000000000000000000000000000000000000000028d908d6bd669c00",
          "blockHash": "0x1a64e8c2bcb3b3303c22547b80d2c16856032587a8c5d4544c37e2e934271ff9",
          "blockNumber": "0x7266f6",
          "transactionHash": "0x51576b94b3678260cc60e5944a65d25e806ed5e4e2ad02c7ebf283caef669e9d",
          "transactionIndex": "0x53",
          "logIndex": "0x82",
          "removed": false
        },
        {
          "address": "0xbf4a322f1496e5c3d34a9bcdb4c60567b38c7de2",
          "topics": [
            "0x4afcb4a87cdbd9974efdb92ee48bc8d7cd0ae4bf217004db3d080cbaee652ca7"
          ],
          "data": "0x000000000000000000000000000000000000000000000000000000006787c6d400000000000000000000000000000000000000000000000000039fec3efdc0e90000000000000000000000000000000000000000000000000de0b6b3a7640000",
          "blockHash": "0x1a64e8c2bcb3b3303c22547b80d2c16856032587a8c5d4544c37e2e934271ff9",
          "blockNumber": "0x7266f6",
          "transactionHash": "0x51576b94b3678260cc60e5944a65d25e806ed5e4e2ad02c7ebf283caef669e9d",
          "transactionIndex": "0x53",
          "logIndex": "0x83",
          "removed": false
        }
      ],
      "logsBloom": "0x00000000000000000000000000000000000000000000000000000000000000000000000000000000000000000000000000000000000000004000000000000000000000000000000000000008000000000000001000000000000000000000000000000000020000000000000000000800020000000000000000000010000000000000000000000000000000000000000000000000000008000000010000000000000000000000000000000000000000004000000000000000000000000000000000000002000000800000000000001000000000000000080000000000000020000000000000000000000000000000000000000000000000000000000000000000",
      "type": "0x2",
      "transactionHash": "0x51576b94b3678260cc60e5944a65d25e806ed5e4e2ad02c7ebf283caef669e9d",
      "transactionIndex": "0x53",
      "blockHash": "0x1a64e8c2bcb3b3303c22547b80d2c16856032587a8c5d4544c37e2e934271ff9",
      "blockNumber": "0x7266f6",
      "gasUsed": "0x13af6",
      "effectiveGasPrice": "0x38c054f07",
      "from": "0xc77f7fed3b5cc8249adc428c5f44c9063b9734b4",
      "to": "0xbf4a322f1496e5c3d34a9bcdb4c60567b38c7de2",
      "contractAddress": null
    }
  ],
  "libraries": [],
  "pending": [],
  "returns": {},
  "timestamp": 1736951510,
  "chain": 11155111,
  "commit": "51a374b"
}