{
  "transactions": [
    {
      "hash": "0x8aa24f55bdf6930ca1eca5eeb963987f9e2d0fd81ce0e3679b9a0ae14cf28756",
      "transactionType": "CALL",
      "contractName": null,
      "contractAddress": "0x8aafd3ede9adb0ff97c7aebce82a919afb1c8764",
      "function": "sell(uint256)",
      "arguments": [
        "22349785917"
      ],
      "transaction": {
        "from": "0xc77f7fed3b5cc8249adc428c5f44c9063b9734b4",
        "to": "0x8aafd3ede9adb0ff97c7aebce82a919afb1c8764",
        "gas": "0x1722a",
        "value": "0x0",
        "input": "0xe4849b32000000000000000000000000000000000000000000000000000000053426ab3d",
        "nonce": "0x11ea",
        "chainId": "0xaa36a7"
      },
      "additionalContracts": [],
      "isFixedGasLimit": false
    }
  ],
  "receipts": [
    {
      "status": "0x1",
      "cumulativeGasUsed": "0x3452fa",
      "logs": [
        {
          "address": "0x8aafd3ede9adb0ff97c7aebce82a919afb1c8764",
          "topics": [
            "0xddf252ad1be2c89b69c2b068fc378daa952ba7f163c4a11628f55a4df523b3ef",
            "0x000000000000000000000000c77f7fed3b5cc8249adc428c5f44c9063b9734b4",
            "0x0000000000000000000000000000000000000000000000000000000000000000"
          ],
          "data": "0x00000000000000000000000000000000000000000000000000000005297e6c6e",
          "blockHash": "0x9ba0e06b3c8d316e07b8d3cf5c10307471f605c242e83dc6eb0f7ccf6603f519",
          "blockNumber": "0x7318c2",
          "transactionHash": "0x8aa24f55bdf6930ca1eca5eeb963987f9e2d0fd81ce0e3679b9a0ae14cf28756",
          "transactionIndex": "0x17",
          "logIndex": "0x31",
          "removed": false
        },
        {
          "address": "0x8aafd3ede9adb0ff97c7aebce82a919afb1c8764",
          "topics": [
            "0xddf252ad1be2c89b69c2b068fc378daa952ba7f163c4a11628f55a4df523b3ef",
            "0x000000000000000000000000c77f7fed3b5cc8249adc428c5f44c9063b9734b4",
            "0x000000000000000000000000c77f7fed3b5cc8249adc428c5f44c9063b9734b4"
          ],
          "data": "0x000000000000000000000000000000000000000000000000000000000aa83ecf",
          "blockHash": "0x9ba0e06b3c8d316e07b8d3cf5c10307471f605c242e83dc6eb0f7ccf6603f519",
          "blockNumber": "0x7318c2",
          "transactionHash": "0x8aa24f55bdf6930ca1eca5eeb963987f9e2d0fd81ce0e3679b9a0ae14cf28756",
          "transactionIndex": "0x17",
          "logIndex": "0x32",
          "removed": false
        },
        {
          "address": "0x8aafd3ede9adb0ff97c7aebce82a919afb1c8764",
          "topics": [
            "0x4afcb4a87cdbd9974efdb92ee48bc8d7cd0ae4bf217004db3d080cbaee652ca7"
          ],
          "data": "0x00000000000000000000000000000000000000000000000000000000679025e800000000000000000000000000000000000000000000000000052d92a773181d0000000000000000000000000000000000000000000000000000000001f10bdc",
          "blockHash": "0x9ba0e06b3c8d316e07b8d3cf5c10307471f605c242e83dc6eb0f7ccf6603f519",
          "blockNumber": "0x7318c2",
          "transactionHash": "0x8aa24f55bdf6930ca1eca5eeb963987f9e2d0fd81ce0e3679b9a0ae14cf28756",
          "transactionIndex": "0x17",
          "logIndex": "0x33",
          "removed": false
        }
      ],
      "logsBloom": "0x00000000000000000000000000000000000000000600000000000000000000000000000000000000000000000000000000000000000000004000000000000000000000000000004000000008000000000000000000000000000000000000000000000000020000000000000000000800020000000000000000000010000000000000000000000000000000000000000000000000000000000000010000000000000000000000000000000000000000004000000000000000000000000000000000000002000000800000000000000000000000000000080000000000000020000000000000000000000000000000000000000000000000000000000000000000",
      "type": "0x2",
      "transactionHash": "0x8aa24f55bdf6930ca1eca5eeb963987f9e2d0fd81ce0e3679b9a0ae14cf28756",
      "transactionIndex": "0x17",
      "blockHash": "0x9ba0e06b3c8d316e07b8d3cf5c10307471f605c242e83dc6eb0f7ccf6603f519",
      "blockNumber": "0x7318c2",
      "gasUsed": "0xfd1b",
      "effectiveGasPrice": "0x4d0e2fa8",
      "from": "0xc77f7fed3b5cc8249adc428c5f44c9063b9734b4",
      "to": "0x8aafd3ede9adb0ff97c7aebce82a919afb1c8764",
      "contractAddress": null
    }
  ],
  "libraries": [],
  "pending": [],
  "returns": {},
  "timestamp": 1737500137,
  "chain": 11155111,
  "commit": "1d2fb70"
}