{
  "transactions": [
    {
      "hash": "0xdc2d396cae89777a3d74e85ec9308c79e213e09b838b6b8a0d304cdbdab1e201",
      "transactionType": "CALL",
      "contractName": null,
      "contractAddress": "0x8aafd3ede9adb0ff97c7aebce82a919afb1c8764",
      "function": "sell(uint256)",
      "arguments": [
        "396443"
      ],
      "transaction": {
        "from": "0xc77f7fed3b5cc8249adc428c5f44c9063b9734b4",
        "to": "0x8aafd3ede9adb0ff97c7aebce82a919afb1c8764",
        "gas": "0x16208",
        "value": "0x0",
        "input": "0xe4849b320000000000000000000000000000000000000000000000000000000000060c9b",
        "nonce": "0x1596",
        "chainId": "0xaa36a7"
      },
      "additionalContracts": [],
      "isFixedGasLimit": false
    }
  ],
  "receipts": [
    {
      "status": "0x1",
      "cumulativeGasUsed": "0x1317811",
      "logs": [
        {
          "address": "0x8aafd3ede9adb0ff97c7aebce82a919afb1c8764",
          "topics": [
            "0xddf252ad1be2c89b69c2b068fc378daa952ba7f163c4a11628f55a4df523b3ef",
            "0x000000000000000000000000c77f7fed3b5cc8249adc428c5f44c9063b9734b4",
            "0x0000000000000000000000000000000000000000000000000000000000000000"
          ],
          "data": "0x0000000000000000000000000000000000000000000000000000000000060038",
          "blockHash": "0xf33f621e9737278717c480400a88387f5da0d76fc98efc76bb87eb4348504d4c",
          "blockNumber": "0x731d06",
          "transactionHash": "0xdc2d396cae89777a3d74e85ec9308c79e213e09b838b6b8a0d304cdbdab1e201",
          "transactionIndex": "0xbe",
          "logIndex": "0x19d",
          "removed": false
        },
        {
          "address": "0x8aafd3ede9adb0ff97c7aebce82a919afb1c8764",
          "topics": [
            "0xddf252ad1be2c89b69c2b068fc378daa952ba7f163c4a11628f55a4df523b3ef",
            "0x000000000000000000000000c77f7fed3b5cc8249adc428c5f44c9063b9734b4",
            "0x000000000000000000000000c77f7fed3b5cc8249adc428c5f44c9063b9734b4"
          ],
          "data": "0x0000000000000000000000000000000000000000000000000000000000000c63",
          "blockHash": "0xf33f621e9737278717c480400a88387f5da0d76fc98efc76bb87eb4348504d4c",
          "blockNumber": "0x731d06",
          "transactionHash": "0xdc2d396cae89777a3d74e85ec9308c79e213e09b838b6b8a0d304cdbdab1e201",
          "transactionIndex": "0xbe",
          "logIndex": "0x19e",
          "removed": false
        },
        {
          "address": "0x8aafd3ede9adb0ff97c7aebce82a919afb1c8764",
          "topics": [
            "0x4afcb4a87cdbd9974efdb92ee48bc8d7cd0ae4bf217004db3d080cbaee652ca7"
          ],
          "data": "0x00000000000000000000000000000000000000000000000000000000679059300000000000000000000000000000000000000000000000000012c4280dbb2f46000000000000000000000000000000000000000000000000000000000000082e",
          "blockHash": "0xf33f621e9737278717c480400a88387f5da0d76fc98efc76bb87eb4348504d4c",
          "blockNumber": "0x731d06",
          "transactionHash": "0xdc2d396cae89777a3d74e85ec9308c79e213e09b838b6b8a0d304cdbdab1e201",
          "transactionIndex": "0xbe",
          "logIndex": "0x19f",
          "removed": false
        }
      ],
      "logsBloom": "0x00000000000000000000000000000000000000000600000000000000000000000000000000000000000000000000000000000000000000004000000000000000000000000000004000000008000000000000000000000000000000000000000000000000020000000000000000000800020000000000000000000010000000000000000000000000000000000000000000000000000000000000010000000000000000000000000000000000000000004000000000000000000000000000000000000002000000800000000000000000000000000000080000000000000020000000000000000000000000000000000000000000000000000000000000000000",
      "type": "0x2",
      "transactionHash": "0xdc2d396cae89777a3d74e85ec9308c79e213e09b838b6b8a0d304cdbdab1e201",
      "transactionIndex": "0xbe",
      "blockHash": "0xf33f621e9737278717c480400a88387f5da0d76fc98efc76bb87eb4348504d4c",
      "blockNumber": "0x731d06",
      "gasUsed": "0xf213",
      "effectiveGasPrice": "0x6ec42acb",
      "from": "0xc77f7fed3b5cc8249adc428c5f44c9063b9734b4",
      "to": "0x8aafd3ede9adb0ff97c7aebce82a919afb1c8764",
      "contractAddress": null
    }
  ],
  "libraries": [],
  "pending": [],
  "returns": {},
  "timestamp": 1737513265,
  "chain": 11155111,
  "commit": "1d2fb70"
}