{
  "transactions": [
    {
      "hash": "0x74a3b1daf196658b12c03ea26eba9dc0f0d4cc3bde0eecb634eeae772376c568",
      "transactionType": "CALL",
      "contractName": null,
      "contractAddress": "0xd7bc75898e513accccf720a874d44dab5a4b6223",
      "function": "sell(uint256)",
      "arguments": [
        "9929992004112500100"
      ],
      "transaction": {
        "from": "0xc77f7fed3b5cc8249adc428c5f44c9063b9734b4",
        "to": "0xd7bc75898e513accccf720a874d44dab5a4b6223",
        "gas": "0x15b6b",
        "value": "0x0",
        "input": "0xe4849b3200000000000000000000000000000000000000000000000089ce6b1dcb984584",
        "nonce": "0xd7",
        "chainId": "0xaa36a7"
      },
      "additionalContracts": [],
      "isFixedGasLimit": false
    }
  ],
  "receipts": [
    {
      "status": "0x1",
      "cumulativeGasUsed": "0x60f69a",
      "logs": [
        {
          "address": "0xd7bc75898e513accccf720a874d44dab5a4b6223",
          "topics": [
            "0xddf252ad1be2c89b69c2b068fc378daa952ba7f163c4a11628f55a4df523b3ef",
            "0x000000000000000000000000c77f7fed3b5cc8249adc428c5f44c9063b9734b4",
            "0x0000000000000000000000000000000000000000000000000000000000000000"
          ],
          "data": "0x00000000000000000000000000000000000000000000000089ce6b1dcb984584",
          "blockHash": "0x6e92e2d9514dbd0813a0881345ce4e9c9609fb3e03bf076bca2b999d4ba808f3",
          "blockNumber": "0x723957",
          "transactionHash": "0x74a3b1daf196658b12c03ea26eba9dc0f0d4cc3bde0eecb634eeae772376c568",
          "transactionIndex": "0x32",
          "logIndex": "0x4e",
          "removed": false
        },
        {
          "address": "0xd7bc75898e513accccf720a874d44dab5a4b6223",
          "topics": [
            "0x4afcb4a87cdbd9974efdb92ee48bc8d7cd0ae4bf217004db3d080cbaee652ca7"
          ],
          "data": "0x000000000000000000000000000000000000000000000000000000006785a15c00000000000000000000000000000000000000000000000000038d7f8937dc350000000000000000000000000000000000000000000000000023474f493d2798",
          "blockHash": "0x6e92e2d9514dbd0813a0881345ce4e9c9609fb3e03bf076bca2b999d4ba808f3",
          "blockNumber": "0x723957",
          "transactionHash": "0x74a3b1daf196658b12c03ea26eba9dc0f0d4cc3bde0eecb634eeae772376c568",
          "transactionIndex": "0x32",
          "logIndex": "0x4f",
          "removed": false
        }
      ],
      "logsBloom": "0x00000000000000000000000000000000000000000000000000000000000000000000000000000000000000000000000000000000000000004000000000000000000000000000000000000008000000000000000000000000000000000000000000000000020000000000000000000800020000000000000000000010000000000000000000000000000000000000000000000000000000000000010000000000000000000000000000000000000000004000001000000000000000000000000000000002000000800000000000004000000000000000080000000000000020000000000000000000000000000000000000000000080000000000000000000000",
      "type": "0x2",
      "transactionHash": "0x74a3b1daf196658b12c03ea26eba9dc0f0d4cc3bde0eecb634eeae772376c568",
      "transactionIndex": "0x32",
      "blockHash": "0x6e92e2d9514dbd0813a0881345ce4e9c9609fb3e03bf076bca2b999d4ba808f3",
      "blockNumber": "0x723957",
      "gasUsed": "0xfb87",
      "effectiveGasPrice": "0x1f08c36b",
      "from": "0xc77f7fed3b5cc8249adc428c5f44c9063b9734b4",
      "to": "0xd7bc75898e513accccf720a874d44dab5a4b6223",
      "contractAddress": null
    }
  ],
  "libraries": [],
  "pending": [],
  "returns": {},
  "timestamp": 1736810846,
  "chain": 11155111,
  "commit": "51a374b"
}