{
  "transactions": [
    {
      "hash": "0x6129cdfc665245b74b958247a6e2fdcdf523a30530cb9ed2c5d94c78677006f7",
      "transactionType": "CALL",
      "contractName": null,
      "contractAddress": "0xbf4a322f1496e5c3d34a9bcdb4c60567b38c7de2",
      "function": "sell(uint256)",
      "arguments": [
        "987753544212163101184"
      ],
      "transaction": {
        "from": "0xc77f7fed3b5cc8249adc428c5f44c9063b9734b4",
        "to": "0xbf4a322f1496e5c3d34a9bcdb4c60567b38c7de2",
        "gas": "0x15b68",
        "value": "0x0",
        "input": "0xe4849b320000000000000000000000000000000000000000000000358bd5871e4f148200",
        "nonce": "0x9db",
        "chainId": "0xaa36a7"
      },
      "additionalContracts": [],
      "isFixedGasLimit": false
    }
  ],
  "receipts": [
    {
      "status": "0x1",
      "cumulativeGasUsed": "0x7c22fb",
      "logs": [
        {
          "address": "0xbf4a322f1496e5c3d34a9bcdb4c60567b38c7de2",
          "topics": [
            "0xddf252ad1be2c89b69c2b068fc378daa952ba7f163c4a11628f55a4df523b3ef",
            "0x000000000000000000000000c77f7fed3b5cc8249adc428c5f44c9063b9734b4",
            "0x0000000000000000000000000000000000000000000000000000000000000000"
          ],
          "data": "0x0000000000000000000000000000000000000000000000358bd5871e4f148200",
          "blockHash": "0xff9d8788aea735fbb6473b908ae801bc1fe2cc593ff8664798be2cf2476c4580",
          "blockNumber": "0x72598d",
          "transactionHash": "0x6129cdfc665245b74b958247a6e2fdcdf523a30530cb9ed2c5d94c78677006f7",
          "transactionIndex": "0x54",
          "logIndex": "0x91",
          "removed": false
        },
        {
          "address": "0xbf4a322f1496e5c3d34a9bcdb4c60567b38c7de2",
          "topics": [
            "0x4afcb4a87cdbd9974efdb92ee48bc8d7cd0ae4bf217004db3d080cbaee652ca7"
          ],
          "data": "0x00000000000000000000000000000000000000000000000000000000678724d40000000000000000000000000000000000000000000000000003925a7f20c87c0000000000000000000000000000000000000000000000000dc7e3f417e63b86",
          "blockHash": "0xff9d8788aea735fbb6473b908ae801bc1fe2cc593ff8664798be2cf2476c4580",
          "blockNumber": "0x72598d",
          "transactionHash": "0x6129cdfc665245b74b958247a6e2fdcdf523a30530cb9ed2c5d94c78677006f7",
          "transactionIndex": "0x54",
          "logIndex": "0x92",
          "removed": false
        }
      ],
      "logsBloom": "0x00000000000000000000000000000000000000000000000000000000000000000000000000000000000000000000000000000000000000004000000000000000000000000000000000000008000000000000001000000000000000000000000000000000020000000000000000000800020000000000000000000010000000000000000000000000000000000000000000000000000008000000010000000000000000000000000000000000000000004000000000000000000000000000000000000002000000800000000000001000000000000000080000000000000020000000000000000000000000000000000000000000000000000000000000000000",
      "type": "0x2",
      "transactionHash": "0x6129cdfc665245b74b958247a6e2fdcdf523a30530cb9ed2c5d94c78677006f7",
      "transactionIndex": "0x54",
      "blockHash": "0xff9d8788aea735fbb6473b908ae801bc1fe2cc593ff8664798be2cf2476c4580",
      "blockNumber": "0x72598d",
      "gasUsed": "0xfb85",
      "effectiveGasPrice": "0x2917884ad",
      "from": "0xc77f7fed3b5cc8249adc428c5f44c9063b9734b4",
      "to": "0xbf4a322f1496e5c3d34a9bcdb4c60567b38c7de2",
      "contractAddress": null
    }
  ],
  "libraries": [],
  "pending": [],
  "returns": {},
  "timestamp": 1736910037,
  "chain": 11155111,
  "commit": "51a374b"
}