{
  "transactions": [
    {
      "hash": "0x2a04b32ea0d4c01808de61ea36faacea8c794576d741c0e2d88285d5a2810681",
      "transactionType": "CALL",
      "contractName": null,
      "contractAddress": "0x5eb9cc76c3506942c1c0ead70e877dd5e4f00cb0",
      "function": "sell(uint256)",
      "arguments": [
        "989614622222711328169"
      ],
      "transaction": {
        "from": "0xc77f7fed3b5cc8249adc428c5f44c9063b9734b4",
        "to": "0x5eb9cc76c3506942c1c0ead70e877dd5e4f00cb0",
        "gas": "0x16fec",
        "value": "0x0",
        "input": "0xe4849b32000000000000000000000000000000000000000000000035a5a967b565190da9",
        "nonce": "0x253",
        "chainId": "0xaa36a7"
      },
      "additionalContracts": [],
      "isFixedGasLimit": false
    }
  ],
  "receipts": [
    {
      "status": "0x1",
      "cumulativeGasUsed": "0xb95a57",
      "logs": [
        {
          "address": "0x5eb9cc76c3506942c1c0ead70e877dd5e4f00cb0",
          "topics": [
            "0xddf252ad1be2c89b69c2b068fc378daa952ba7f163c4a11628f55a4df523b3ef",
            "0x000000000000000000000000c77f7fed3b5cc8249adc428c5f44c9063b9734b4",
            "0x0000000000000000000000000000000000000000000000000000000000000000"
          ],
          "data": "0x000000000000000000000000000000000000000000000035a5a967b565190da9",
          "blockHash": "0x1cbb5a85af7702b438868e4f20e48448d09a91bf9414a81cc51102fb85ac11d4",
          "blockNumber": "0x724e0c",
          "transactionHash": "0x2a04b32ea0d4c01808de61ea36faacea8c794576d741c0e2d88285d5a2810681",
          "transactionIndex": "0x5a",
          "logIndex": "0xb9",
          "removed": false
        },
        {
          "address": "0x5eb9cc76c3506942c1c0ead70e877dd5e4f00cb0",
          "topics": [
            "0x4afcb4a87cdbd9974efdb92ee48bc8d7cd0ae4bf217004db3d080cbaee652ca7"
          ],
          "data": "0x0000000000000000000000000000000000000000000000000000000067869a440000000000000000000000000000000000000000000000000003909be98c948d0000000000000000000000000000000000000000000000000dc7db11837a2c1d",
          "blockHash": "0x1cbb5a85af7702b438868e4f20e48448d09a91bf9414a81cc51102fb85ac11d4",
          "blockNumber": "0x724e0c",
          "transactionHash": "0x2a04b32ea0d4c01808de61ea36faacea8c794576d741c0e2d88285d5a2810681",
          "transactionIndex": "0x5a",
          "logIndex": "0xba",
          "removed": false
        }
      ],
      "logsBloom": "0x00000000000000000000000000000000000000000000000000000000000000000000000000000000000000000000000000000000000000004000000000000000000000000000000000000008000000000000000000000000000000000000000000000000020000000000000004000800020000000000000000000010000000000000000000000000000000000000000000000000000000000000010000000000000000000000000000000000000000004000000000000000000000000000020000000002000000800000008000000000000000000000080000000000000020000000000000000000000000000000000000000000000000000000000000000000",
      "type": "0x2",
      "transactionHash": "0x2a04b32ea0d4c01808de61ea36faacea8c794576d741c0e2d88285d5a2810681",
      "transactionIndex": "0x5a",
      "blockHash": "0x1cbb5a85af7702b438868e4f20e48448d09a91bf9414a81cc51102fb85ac11d4",
      "blockNumber": "0x724e0c",
      "gasUsed": "0xfb93",
      "effectiveGasPrice": "0x36faf7473",
      "from": "0xc77f7fed3b5cc8249adc428c5f44c9063b9734b4",
      "to": "0x5eb9cc76c3506942c1c0ead70e877dd5e4f00cb0",
      "contractAddress": null
    }
  ],
  "libraries": [],
  "pending": [],
  "returns": {},
  "timestamp": 1736874567,
  "chain": 11155111,
  "commit": "51a374b"
}