{
  "transactions": [
    {
      "hash": "0xbcc3488b08762a34a6761a892660abaf566f267f25154adb701ecfc1913aac52",
      "transactionType": "CALL",
      "contractName": null,
      "contractAddress": "0x270e88f8683660553e8ba4eb2ad7c91a1710d769",
      "function": "sell(uint256)",
      "arguments": [
        "745837849724263414372"
      ],
      "transaction": {
        "from": "0xc77f7fed3b5cc8249adc428c5f44c9063b9734b4",
        "to": "0x270e88f8683660553e8ba4eb2ad7c91a1710d769",
        "gas": "0x16fec",
        "value": "0x0",
        "input": "0xe4849b320000000000000000000000000000000000000000000000286e9454b4b7e53a64",
        "nonce": "0x6fa",
        "chainId": "0xaa36a7"
      },
      "additionalContracts": [],
      "isFixedGasLimit": false
    }
  ],
  "receipts": [
    {
      "status": "0x1",
      "cumulativeGasUsed": "0xdfcec2",
      "logs": [
        {
          "address": "0x270e88f8683660553e8ba4eb2ad7c91a1710d769",
          "topics": [
            "0xddf252ad1be2c89b69c2b068fc378daa952ba7f163c4a11628f55a4df523b3ef",
            "0x000000000000000000000000c77f7fed3b5cc8249adc428c5f44c9063b9734b4",
            "0x0000000000000000000000000000000000000000000000000000000000000000"
          ],
          "data": "0x0000000000000000000000000000000000000000000000286e9454b4b7e53a64",
          "blockHash": "0x878544a555a1f084377539d0ff27308d00b04bb436f1c68c39d7277ecdee1875",
          "blockNumber": "0x72540f",
          "transactionHash": "0xbcc3488b08762a34a6761a892660abaf566f267f25154adb701ecfc1913aac52",
          "transactionIndex": "0x5a",
          "logIndex": "0x96",
          "removed": false
        },
        {
          "address": "0x270e88f8683660553e8ba4eb2ad7c91a1710d769",
          "topics": [
            "0x4afcb4a87cdbd9974efdb92ee48bc8d7cd0ae4bf217004db3d080cbaee652ca7"
          ],
          "data": "0x000000000000000000000000000000000000000000000000000000006786e2bc0000000000000000000000000000000000000000000000000004bb2ffd11b1550000000000000000000000000000000000000000000000000dc8291aa11f4aab",
          "blockHash": "0x878544a555a1f084377539d0ff27308d00b04bb436f1c68c39d7277ecdee1875",
          "blockNumber": "0x72540f",
          "transactionHash": "0xbcc3488b08762a34a6761a892660abaf566f267f25154adb701ecfc1913aac52",
          "transactionIndex": "0x5a",
          "logIndex": "0x97",
          "removed": false
        }
      ],
      "logsBloom": "0x00000000000000000000000000000000000000000000000000000000000000000000000000000000000000000000000020000000000000004000000000000000000000000000000000000008000000000000000000000000000000000000000000000000020000000000000000000800020000000000000000000010000000000000000000010000000000000000000000000000000000000000010000000000000000000000000000000000000000004000000000000000000000000000000000000002000000800000000000000000000000000000080000008000000020000000000000000000000000000000000000000000000000000000000000000000",
      "type": "0x2",
      "transactionHash": "0xbcc3488b08762a34a6761a892660abaf566f267f25154adb701ecfc1913aac52",
      "transactionIndex": "0x5a",
      "blockHash": "0x878544a555a1f084377539d0ff27308d00b04bb436f1c68c39d7277ecdee1875",
      "blockNumber": "0x72540f",
      "gasUsed": "0xfb93",
      "effectiveGasPrice": "0x13b5191ab",
      "from": "0xc77f7fed3b5cc8249adc428c5f44c9063b9734b4",
      "to": "0x270e88f8683660553e8ba4eb2ad7c91a1710d769",
      "contractAddress": null
    }
  ],
  "libraries": [],
  "pending": [],
  "returns": {},
  "timestamp": 1736893118,
  "chain": 11155111,
  "commit": "51a374b"
}