{
  "transactions": [
    {
      "hash": "0x1b90e1008315ff68c270d1264200a0cddd0ea3dd221d0a920a6709272a9133d8",
      "transactionType": "CALL",
      "contractName": null,
      "contractAddress": "0x8aafd3ede9adb0ff97c7aebce82a919afb1c8764",
      "function": "sell(uint256)",
      "arguments": [
        "5937462185477195888"
      ],
      "transaction": {
        "from": "0xc77f7fed3b5cc8249adc428c5f44c9063b9734b4",
        "to": "0x8aafd3ede9adb0ff97c7aebce82a919afb1c8764",
        "gas": "0x15dca",
        "value": "0x0",
        "input": "0xe4849b3200000000000000000000000000000000000000000000000052661a6650aec870",
        "nonce": "0xf5e",
        "chainId": "0xaa36a7"
      },
      "additionalContracts": [],
      "isFixedGasLimit": false
    }
  ],
  "receipts": [
    {
      "status": "0x1",
      "cumulativeGasUsed": "0x188ee07",
      "logs": [
        {
          "address": "0x8aafd3ede9adb0ff97c7aebce82a919afb1c8764",
          "topics": [
            "0xddf252ad1be2c89b69c2b068fc378daa952ba7f163c4a11628f55a4df523b3ef",
            "0x000000000000000000000000c77f7fed3b5cc8249adc428c5f44c9063b9734b4",
            "0x0000000000000000000000000000000000000000000000000000000000000000"
          ],
          "data": "0x00000000000000000000000000000000000000000000000051bd59ad2d38a611",
          "blockHash": "0x44d70809ae40d401d0951770725c27cbed2baa518ce752482974e697e3789c54",
          "blockNumber": "0x7315bc",
          "transactionHash": "0x1b90e1008315ff68c270d1264200a0cddd0ea3dd221d0a920a6709272a9133d8",
          "transactionIndex": "0xcb",
          "logIndex": "0x18c",
          "removed": false
        },
        {
          "address": "0x8aafd3ede9adb0ff97c7aebce82a919afb1c8764",
          "topics": [
            "0xddf252ad1be2c89b69c2b068fc378daa952ba7f163c4a11628f55a4df523b3ef",
            "0x000000000000000000000000c77f7fed3b5cc8249adc428c5f44c9063b9734b4",
            "0x000000000000000000000000c77f7fed3b5cc8249adc428c5f44c9063b9734b4"
          ],
          "data": "0x00000000000000000000000000000000000000000000000000a8c0b92376225f",
          "blockHash": "0x44d70809ae40d401d0951770725c27cbed2baa518ce752482974e697e3789c54",
          "blockNumber": "0x7315bc",
          "transactionHash": "0x1b90e1008315ff68c270d1264200a0cddd0ea3dd221d0a920a6709272a9133d8",
          "transactionIndex": "0xcb",
          "logIndex": "0x18d",
          "removed": false
        },
        {
          "address": "0x8aafd3ede9adb0ff97c7aebce82a919afb1c8764",
          "topics": [
            "0x4afcb4a87cdbd9974efdb92ee48bc8d7cd0ae4bf217004db3d080cbaee652ca7"
          ],
          "data": "0x000000000000000000000000000000000000000000000000000000006790017c0000000000000000000000000000000000000000000000000004c12f90872d33000000000000000000000000000000000000000000000000001c3afbd19ae448",
          "blockHash": "0x44d70809ae40d401d0951770725c27cbed2baa518ce752482974e697e3789c54",
          "blockNumber": "0x7315bc",
          "transactionHash": "0x1b90e1008315ff68c270d1264200a0cddd0ea3dd221d0a920a6709272a9133d8",
          "transactionIndex": "0xcb",
          "logIndex": "0x18e",
          "removed": false
        }
      ],
      "logsBloom": "0x00000000000000000000000000000000000000000600000000000000000000000000000000000000000000000000000000000000000000004000000000000000000000000000004000000008000000000000000000000000000000000000000000000000020000000000000000000800020000000000000000000010000000000000000000000000000000000000000000000000000000000000010000000000000000000000000000000000000000004000000000000000000000000000000000000002000000800000000000000000000000000000080000000000000020000000000000000000000000000000000000000000000000000000000000000000",
      "type": "0x2",
      "transactionHash": "0x1b90e1008315ff68c270d1264200a0cddd0ea3dd221d0a920a6709272a9133d8",
      "transactionIndex": "0xcb",
      "blockHash": "0x44d70809ae40d401d0951770725c27cbed2baa518ce752482974e697e3789c54",
      "blockNumber": "0x7315bc",
      "gasUsed": "0xfd3f",
      "effectiveGasPrice": "0x6f77b34d",
      "from": "0xc77f7fed3b5cc8249adc428c5f44c9063b9734b4",
      "to": "0x8aafd3ede9adb0ff97c7aebce82a919afb1c8764",
      "contractAddress": null
    }
  ],
  "libraries": [],
  "pending": [],
  "returns": {},
  "timestamp": 1737490814,
  "chain": 11155111,
  "commit": "1d2fb70"
}