{
  "transactions": [
    {
      "hash": "0xb71d5a4e487c399764258459fb822215b34332bde3372fa016ac0b58c52b024f",
      "transactionType": "CALL",
      "contractName": null,
      "contractAddress": "0xbf4a322f1496e5c3d34a9bcdb4c60567b38c7de2",
      "function": "buy(address)",
      "arguments": [
        "0xC77f7fed3b5Cc8249aDc428c5F44C9063B9734b4"
      ],
      "transaction": {
        "from": "0xc77f7fed3b5cc8249adc428c5f44c9063b9734b4",
        "to": "0xbf4a322f1496e5c3d34a9bcdb4c60567b38c7de2",
        "gas": "0x1b309",
        "value": "0xde0b6b3a7640000",
        "input": "0xf088d547000000000000000000000000c77f7fed3b5cc8249adc428c5f44c9063b9734b4",
        "nonce": "0xaee",
        "chainId": "0xaa36a7"
      },
      "additionalContracts": [],
      "isFixedGasLimit": false
    }
  ],
  "receipts": [
    {
      "status": "0x1",
      "cumulativeGasUsed": "0x91de12",
      "logs": [
        {
          "address": "0xbf4a322f1496e5c3d34a9bcdb4c60567b38c7de2",
          "topics": [
            "0xddf252ad1be2c89b69c2b068fc378daa952ba7f163c4a11628f55a4df523b3ef",
            "0x0000000000000000000000000000000000000000000000000000000000000000",
            "0x000000000000000000000000c77f7fed3b5cc8249adc428c5f44c9063b9734b4"
          ],
          "data": "0x0000000000000000000000000000000000000000000000352e7db08687adc100",
          "blockHash": "0x1e2b3e04a75c125e183f9aff618bf57484ea0b9e3d1358387be1f2d875f38daa",
          "blockNumber": "0x725ae3",
          "transactionHash": "0xb71d5a4e487c399764258459fb822215b34332bde3372fa016ac0b58c52b024f",
          "transactionIndex": "0x4a",
          "logIndex": "0x58",
          "removed": false
        },
        {
          "address": "0xbf4a322f1496e5c3d34a9bcdb4c60567b38c7de2",
          "topics": [
            "0xddf252ad1be2c89b69c2b068fc378daa952ba7f163c4a11628f55a4df523b3ef",
            "0x0000000000000000000000000000000000000000000000000000000000000000",
            "0x000000000000000000000000c77f7fed3b5cc8249adc428c5f44c9063b9734b4"
          ],
          "data": "0x000000000000000000000000000000000000000000000000294c1ddb7ddc5335",
          "blockHash": "0x1e2b3e04a75c125e183f9aff618bf57484ea0b9e3d1358387be1f2d875f38daa",
          "blockNumber": "0x725ae3",
          "transactionHash": "0xb71d5a4e487c399764258459fb822215b34332bde3372fa016ac0b58c52b024f",
          "transactionIndex": "0x4a",
          "logIndex": "0x59",
          "removed": false
        },
        {
          "address": "0xbf4a322f1496e5c3d34a9bcdb4c60567b38c7de2",
          "topics": [
            "0x4afcb4a87cdbd9974efdb92ee48bc8d7cd0ae4bf217004db3d080cbaee652ca7"
          ],
          "data": "0x00000000000000000000000000000000000000000000000000000000678734f4000000000000000000000000000000000000000000000000000395d2747cf1bd0000000000000000000000000000000000000000000000000de0b6b3a7640000",
          "blockHash": "0x1e2b3e04a75c125e183f9aff618bf57484ea0b9e3d1358387be1f2d875f38daa",
          "blockNumber": "0x725ae3",
          "transactionHash": "0xb71d5a4e487c399764258459fb822215b34332bde3372fa016ac0b58c52b024f",
          "transactionIndex": "0x4a",
          "logIndex": "0x5a",
          "removed": false
        }
      ],
      "logsBloom": "0x00000000000000000000000000000000000000000000000000000000000000000000000000000000000000000000000000000000000000004000000000000000000000000000000000000008000000000000001000000000000000000000000000000000020000000000000000000800020000000000000000000010000000000000000000000000000000000000000000000000000008000000010000000000000000000000000000000000000000004000000000000000000000000000000000000002000000800000000000001000000000000000080000000000000020000000000000000000000000000000000000000000000000000000000000000000",
      "type": "0x2",
      "transactionHash": "0xb71d5a4e487c399764258459fb822215b34332bde3372fa016ac0b58c52b024f",
      "transactionIndex": "0x4a",
      "blockHash": "0x1e2b3e04a75c125e183f9aff618bf57484ea0b9e3d1358387be1f2d875f38daa",
      "blockNumber": "0x725ae3",
      "gasUsed": "0x13af6",
      "effectiveGasPrice": "0xab8d6eca",
      "from": "0xc77f7fed3b5cc8249adc428c5f44c9063b9734b4",
      "to": "0xbf4a322f1496e5c3d34a9bcdb4c60567b38c7de2",
      "contractAddress": null
    }
  ],
  "libraries": [],
  "pending": [],
  "returns": {},
  "timestamp": 1736914166,
  "chain": 11155111,
  "commit": "51a374b"
}