{
  "transactions": [
    {
      "hash": "0x32fc0fa1a37b5d20188531feac59c28748323925b1a77ff3e67333ef4930b754",
      "transactionType": "CALL",
      "contractName": null,
      "contractAddress": "0x5eb9cc76c3506942c1c0ead70e877dd5e4f00cb0",
      "function": "sell(uint256)",
      "arguments": [
        "989073865820824145435"
      ],
      "transaction": {
        "from": "0xc77f7fed3b5cc8249adc428c5f44c9063b9734b4",
        "to": "0x5eb9cc76c3506942c1c0ead70e877dd5e4f00cb0",
        "gas": "0x16fec",
        "value": "0x0",
        "input": "0xe4849b320000000000000000000000000000000000000000000000359e2840a048980e1b",
        "nonce": "0x4a5",
        "chainId": "0xaa36a7"
      },
      "additionalContracts": [],
      "isFixedGasLimit": false
    }
  ],
  "receipts": [
    {
      "status": "0x1",
      "cumulativeGasUsed": "0x7618c0",
      "logs": [
        {
          "address": "0x5eb9cc76c3506942c1c0ead70e877dd5e4f00cb0",
          "topics": [
            "0xddf252ad1be2c89b69c2b068fc378daa952ba7f163c4a11628f55a4df523b3ef",
            "0x000000000000000000000000c77f7fed3b5cc8249adc428c5f44c9063b9734b4",
            "0x0000000000000000000000000000000000000000000000000000000000000000"
          ],
          "data": "0x0000000000000000000000000000000000000000000000359e2840a048980e1b",
          "blockHash": "0xf21b86a7eee7b07f1a40bb1c28820fc2dd881a04089b51f96f83104c8f42b9dc",
          "blockNumber": "0x7250e1",
          "transactionHash": "0x32fc0fa1a37b5d20188531feac59c28748323925b1a77ff3e67333ef4930b754",
          "transactionIndex": "0x43",
          "logIndex": "0x5c",
          "removed": false
        },
        {
          "address": "0x5eb9cc76c3506942c1c0ead70e877dd5e4f00cb0",
          "topics": [
            "0x4afcb4a87cdbd9974efdb92ee48bc8d7cd0ae4bf217004db3d080cbaee652ca7"
          ],
          "data": "0x000000000000000000000000000000000000000000000000000000006786bc700000000000000000000000000000000000000000000000000003911ba5fe80c90000000000000000000000000000000000000000000000000dc7db1331b8f228",
          "blockHash": "0xf21b86a7eee7b07f1a40bb1c28820fc2dd881a04089b51f96f83104c8f42b9dc",
          "blockNumber": "0x7250e1",
          "transactionHash": "0x32fc0fa1a37b5d20188531feac59c28748323925b1a77ff3e67333ef4930b754",
          "transactionIndex": "0x43",
          "logIndex": "0x5d",
          "removed": false
        }
      ],
      "logsBloom": "0x00000000000000000000000000000000000000000000000000000000000000000000000000000000000000000000000000000000000000004000000000000000000000000000000000000008000000000000000000000000000000000000000000000000020000000000000004000800020000000000000000000010000000000000000000000000000000000000000000000000000000000000010000000000000000000000000000000000000000004000000000000000000000000000020000000002000000800000008000000000000000000000080000000000000020000000000000000000000000000000000000000000000000000000000000000000",
      "type": "0x2",
      "transactionHash": "0x32fc0fa1a37b5d20188531feac59c28748323925b1a77ff3e67333ef4930b754",
      "transactionIndex": "0x43",
      "blockHash": "0xf21b86a7eee7b07f1a40bb1c28820fc2dd881a04089b51f96f83104c8f42b9dc",
      "blockNumber": "0x7250e1",
      "gasUsed": "0xfb93",
      "effectiveGasPrice": "0x2ad097fda",
      "from": "0xc77f7fed3b5cc8249adc428c5f44c9063b9734b4",
      "to": "0x5eb9cc76c3506942c1c0ead70e877dd5e4f00cb0",
      "contractAddress": null
    }
  ],
  "libraries": [],
  "pending": [],
  "returns": {},
  "timestamp": 1736883314,
  "chain": 11155111,
  "commit": "51a374b"
}