{
  "transactions": [
    {
      "hash": "0x81e93affadf1dccd5ab9dcb8613f5f10c0e0d05e536e19bdf4efa52667ce7faa",
      "transactionType": "CALL",
      "contractName": null,
      "contractAddress": "0x270e88f8683660553e8ba4eb2ad7c91a1710d769",
      "function": "sell(uint256)",
      "arguments": [
        "757008323090947095354"
      ],
      "transaction": {
        "from": "0xc77f7fed3b5cc8249adc428c5f44c9063b9734b4",
        "to": "0x270e88f8683660553e8ba4eb2ad7c91a1710d769",
        "gas": "0x16fec",
        "value": "0x0",
        "input": "0xe4849b320000000000000000000000000000000000000000000000290999d30c9a09bb3a",
        "nonce": "0x680",
        "chainId": "0xaa36a7"
      },
      "additionalContracts": [],
      "isFixedGasLimit": false
    }
  ],
  "receipts": [
    {
      "status": "0x1",
      "cumulativeGasUsed": "0x56d05c",
      "logs": [
        {
          "address": "0x270e88f8683660553e8ba4eb2ad7c91a1710d769",
          "topics": [
            "0xddf252ad1be2c89b69c2b068fc378daa952ba7f163c4a11628f55a4df523b3ef",
            "0x000000000000000000000000c77f7fed3b5cc8249adc428c5f44c9063b9734b4",
            "0x0000000000000000000000000000000000000000000000000000000000000000"
          ],
          "data": "0x0000000000000000000000000000000000000000000000290999d30c9a09bb3a",
          "blockHash": "0x13c5a2298aae806284ea160955b46972d87c2e7ca39ca1ac8c3c1edb80d47aa4",
          "blockNumber": "0x72537f",
          "transactionHash": "0x81e93affadf1dccd5ab9dcb8613f5f10c0e0d05e536e19bdf4efa52667ce7faa",
          "transactionIndex": "0x30",
          "logIndex": "0x5e",
          "removed": false
        },
        {
          "address": "0x270e88f8683660553e8ba4eb2ad7c91a1710d769",
          "topics": [
            "0x4afcb4a87cdbd9974efdb92ee48bc8d7cd0ae4bf217004db3d080cbaee652ca7"
          ],
          "data": "0x000000000000000000000000000000000000000000000000000000006786dbfc0000000000000000000000000000000000000000000000000004a951c314fae90000000000000000000000000000000000000000000000000dc82a4279022bcb",
          "blockHash": "0x13c5a2298aae806284ea160955b46972d87c2e7ca39ca1ac8c3c1edb80d47aa4",
          "blockNumber": "0x72537f",
          "transactionHash": "0x81e93affadf1dccd5ab9dcb8613f5f10c0e0d05e536e19bdf4efa52667ce7faa",
          "transactionIndex": "0x30",
          "logIndex": "0x5f",
          "removed": false
        }
      ],
      "logsBloom": "0x00000000000000000000000000000000000000000000000000000000000000000000000000000000000000000000000020000000000000004000000000000000000000000000000000000008000000000000000000000000000000000000000000000000020000000000000000000800020000000000000000000010000000000000000000010000000000000000000000000000000000000000010000000000000000000000000000000000000000004000000000000000000000000000000000000002000000800000000000000000000000000000080000008000000020000000000000000000000000000000000000000000000000000000000000000000",
      "type": "0x2",
      "transactionHash": "0x81e93affadf1dccd5ab9dcb8613f5f10c0e0d05e536e19bdf4efa52667ce7faa",
      "transactionIndex": "0x30",
      "blockHash": "0x13c5a2298aae806284ea160955b46972d87c2e7ca39ca1ac8c3c1edb80d47aa4",
      "blockNumber": "0x72537f",
      "gasUsed": "0xfb93",
      "effectiveGasPrice": "0x285a65700",
      "from": "0xc77f7fed3b5cc8249adc428c5f44c9063b9734b4",
      "to": "0x270e88f8683660553e8ba4eb2ad7c91a1710d769",
      "contractAddress": null
    }
  ],
  "libraries": [],
  "pending": [],
  "returns": {},
  "timestamp": 1736891389,
  "chain": 11155111,
  "commit": "51a374b"
}