{
  "transactions": [
    {
      "hash": "0xa8143c9d926d4ce01ccebe225ba37c0e7d2bfc780cf6881f5521220999a86475",
      "transactionType": "CALL",
      "contractName": null,
      "contractAddress": "0xbf4a322f1496e5c3d34a9bcdb4c60567b38c7de2",
      "function": "sell(uint256)",
      "arguments": [
        "976907533678685394826"
      ],
      "transaction": {
        "from": "0xc77f7fed3b5cc8249adc428c5f44c9063b9734b4",
        "to": "0xbf4a322f1496e5c3d34a9bcdb4c60567b38c7de2",
        "gas": "0x15b68",
        "value": "0x0",
        "input": "0xe4849b32000000000000000000000000000000000000000000000034f550c200b8ff178a",
        "nonce": "0xcff",
        "chainId": "0xaa36a7"
      },
      "additionalContracts": [],
      "isFixedGasLimit": false
    }
  ],
  "receipts": [
    {
      "status": "0x1",
      "cumulativeGasUsed": "0x725cfb",
      "logs": [
        {
          "address": "0xbf4a322f1496e5c3d34a9bcdb4c60567b38c7de2",
          "topics": [
            "0xddf252ad1be2c89b69c2b068fc378daa952ba7f163c4a11628f55a4df523b3ef",
            "0x000000000000000000000000c77f7fed3b5cc8249adc428c5f44c9063b9734b4",
            "0x0000000000000000000000000000000000000000000000000000000000000000"
          ],
          "data": "0x000000000000000000000000000000000000000000000034f550c200b8ff178a",
          "blockHash": "0xe72f8c4aceace1c3f3893a24c5a56bbed2f585c54c70fdd076d0785115d1b231",
          "blockNumber": "0x725d55",
          "transactionHash": "0xa8143c9d926d4ce01ccebe225ba37c0e7d2bfc780cf6881f5521220999a86475",
          "transactionIndex": "0x43",
          "logIndex": "0x76",
          "removed": false
        },
        {
          "address": "0xbf4a322f1496e5c3d34a9bcdb4c60567b38c7de2",
          "topics": [
            "0x4afcb4a87cdbd9974efdb92ee48bc8d7cd0ae4bf217004db3d080cbaee652ca7"
          ],
          "data": "0x000000000000000000000000000000000000000000000000000000006787527000000000000000000000000000000000000000000000000000039c813632c7f50000000000000000000000000000000000000000000000000dc7e3dae04f04b5",
          "blockHash": "0xe72f8c4aceace1c3f3893a24c5a56bbed2f585c54c70fdd076d0785115d1b231",
          "blockNumber": "0x725d55",
          "transactionHash": "0xa8143c9d926d4ce01ccebe225ba37c0e7d2bfc780cf6881f5521220999a86475",
          "transactionIndex": "0x43",
          "logIndex": "0x77",
          "removed": false
        }
      ],
      "logsBloom": "0x00000000000000000000000000000000000000000000000000000000000000000000000000000000000000000000000000000000000000004000000000000000000000000000000000000008000000000000001000000000000000000000000000000000020000000000000000000800020000000000000000000010000000000000000000000000000000000000000000000000000008000000010000000000000000000000000000000000000000004000000000000000000000000000000000000002000000800000000000001000000000000000080000000000000020000000000000000000000000000000000000000000000000000000000000000000",
      "type": "0x2",
      "transactionHash": "0xa8143c9d926d4ce01ccebe225ba37c0e7d2bfc780cf6881f5521220999a86475",
      "transactionIndex": "0x43",
      "blockHash": "0xe72f8c4aceace1c3f3893a24c5a56bbed2f585c54c70fdd076d0785115d1b231",
      "blockNumber": "0x725d55",
      "gasUsed": "0xfb85",
      "effectiveGasPrice": "0x3a310aa3d",
      "from": "0xc77f7fed3b5cc8249adc428c5f44c9063b9734b4",
      "to": "0xbf4a322f1496e5c3d34a9bcdb4c60567b38c7de2",
      "contractAddress": null
    }
  ],
  "libraries": [],
  "pending": [],
  "returns": {},
  "timestamp": 1736921713,
  "chain": 11155111,
  "commit": "51a374b"
}