{
  "transactions": [
    {
      "hash": "0x412e4a1094377740d24b5d0f965b1ac4aa4bca7abf22f721ee562f0a00df7be1",
      "transactionType": "CALL",
      "contractName": null,
      "contractAddress": "0x8aafd3ede9adb0ff97c7aebce82a919afb1c8764",
      "function": "sell(uint256)",
      "arguments": [
        "188299993"
      ],
      "transaction": {
        "from": "0xc77f7fed3b5cc8249adc428c5f44c9063b9734b4",
        "to": "0x8aafd3ede9adb0ff97c7aebce82a919afb1c8764",
        "gas": "0x15d88",
        "value": "0x0",
        "input": "0xe4849b32000000000000000000000000000000000000000000000000000000000b393ad9",
        "nonce": "0x101f",
        "chainId": "0xaa36a7"
      },
      "additionalContracts": [],
      "isFixedGasLimit": false
    }
  ],
  "receipts": [
    {
      "status": "0x1",
      "cumulativeGasUsed": "0xc8a267",
      "logs": [
        {
          "address": "0x8aafd3ede9adb0ff97c7aebce82a919afb1c8764",
          "topics": [
            "0xddf252ad1be2c89b69c2b068fc378daa952ba7f163c4a11628f55a4df523b3ef",
            "0x000000000000000000000000c77f7fed3b5cc8249adc428c5f44c9063b9734b4",
            "0x0000000000000000000000000000000000000000000000000000000000000000"
          ],
          "data": "0x000000000000000000000000000000000000000000000000000000000b223e7a",
          "blockHash": "0x310c04ffe816fbe98ad7744b75eb4d119ca237671145b67554a7f8b1a5a99067",
          "blockNumber": "0x731697",
          "transactionHash": "0x412e4a1094377740d24b5d0f965b1ac4aa4bca7abf22f721ee562f0a00df7be1",
          "transactionIndex": "0x6d",
          "logIndex": "0xe5",
          "removed": false
        },
        {
          "address": "0x8aafd3ede9adb0ff97c7aebce82a919afb1c8764",
          "topics": [
            "0xddf252ad1be2c89b69c2b068fc378daa952ba7f163c4a11628f55a4df523b3ef",
            "0x000000000000000000000000c77f7fed3b5cc8249adc428c5f44c9063b9734b4",
            "0x000000000000000000000000c77f7fed3b5cc8249adc428c5f44c9063b9734b4"
          ],
          "data": "0x000000000000000000000000000000000000000000000000000000000016fc5f",
          "blockHash": "0x310c04ffe816fbe98ad7744b75eb4d119ca237671145b67554a7f8b1a5a99067",
          "blockNumber": "0x731697",
          "transactionHash": "0x412e4a1094377740d24b5d0f965b1ac4aa4bca7abf22f721ee562f0a00df7be1",
          "transactionIndex": "0x6d",
          "logIndex": "0xe6",
          "removed": false
        },
        {
          "address": "0x8aafd3ede9adb0ff97c7aebce82a919afb1c8764",
          "topics": [
            "0x4afcb4a87cdbd9974efdb92ee48bc8d7cd0ae4bf217004db3d080cbaee652ca7"
          ],
          "data": "0x0000000000000000000000000000000000000000000000000000000067900bc00000000000000000000000000000000000000000000000000004eac19642c43e000000000000000000000000000000000000000000000000000000000003fa02",
          "blockHash": "0x310c04ffe816fbe98ad7744b75eb4d119ca237671145b67554a7f8b1a5a99067",
          "blockNumber": "0x731697",
          "transactionHash": "0x412e4a1094377740d24b5d0f965b1ac4aa4bca7abf22f721ee562f0a00df7be1",
          "transactionIndex": "0x6d",
          "logIndex": "0xe7",
          "removed": false
        }
      ],
      "logsBloom": "0x00000000000000000000000000000000000000000600000000000000000000000000000000000000000000000000000000000000000000004000000000000000000000000000004000000008000000000000000000000000000000000000000000000000020000000000000000000800020000000000000000000010000000000000000000000000000000000000000000000000000000000000010000000000000000000000000000000000000000004000000000000000000000000000000000000002000000800000000000000000000000000000080000000000000020000000000000000000000000000000000000000000000000000000000000000000",
      "type": "0x2",
      "transactionHash": "0x412e4a1094377740d24b5d0f965b1ac4aa4bca7abf22f721ee562f0a00df7be1",
      "transactionIndex": "0x6d",
      "blockHash": "0x310c04ffe816fbe98ad7744b75eb4d119ca237671145b67554a7f8b1a5a99067",
      "blockNumber": "0x731697",
      "gasUsed": "0xfd0f",
      "effectiveGasPrice": "0x40aa126c",
      "from": "0xc77f7fed3b5cc8249adc428c5f44c9063b9734b4",
      "to": "0x8aafd3ede9adb0ff97c7aebce82a919afb1c8764",
      "contractAddress": null
    }
  ],
  "libraries": [],
  "pending": [],
  "returns": {},
  "timestamp": 1737493441,
  "chain": 11155111,
  "commit": "1d2fb70"
}