{
  "transactions": [
    {
      "hash": "0x9467b677fe30b1d0e94ac50e93c9ee41c28ddffe0706abea653a107af342c9ae",
      "transactionType": "CALL",
      "contractName": null,
      "contractAddress": "0x8aafd3ede9adb0ff97c7aebce82a919afb1c8764",
      "function": "buy(address)",
      "arguments": [
        "0xC77f7fed3b5Cc8249aDc428c5F44C9063B9734b4"
      ],
      "transaction": {
        "from": "0xc77f7fed3b5cc8249adc428c5f44c9063b9734b4",
        "to": "0x8aafd3ede9adb0ff97c7aebce82a919afb1c8764",
        "gas": "0x156ea",
        "value": "0xde0b6b3a7640000",
        "input": "0xf088d547000000000000000000000000c77f7fed3b5cc8249adc428c5f44c9063b9734b4",
        "nonce": "0x158e",
        "chainId": "0xaa36a7"
      },
      "additionalContracts": [],
      "isFixedGasLimit": false
    }
  ],
  "receipts": [
    {
      "status": "0x1",
      "cumulativeGasUsed": "0x138fe4a",
      "logs": [
        {
          "address": "0x8aafd3ede9adb0ff97c7aebce82a919afb1c8764",
          "topics": [
            "0xddf252ad1be2c89b69c2b068fc378daa952ba7f163c4a11628f55a4df523b3ef",
            "0x0000000000000000000000000000000000000000000000000000000000000000",
            "0x000000000000000000000000c77f7fed3b5cc8249adc428c5f44c9063b9734b4"
          ],
          "data": "0x00000000000000000000000000000000000000000000000a37829e7a6371deb2",
          "blockHash": "0x7658d3baa1497b92525910c5920c146560a1a7e9d9b728d11e5a8fc2b1a6fa01",
          "blockNumber": "0x731cfd",
          "transactionHash": "0x9467b677fe30b1d0e94ac50e93c9ee41c28ddffe0706abea653a107af342c9ae",
          "transactionIndex": "0xab",
          "logIndex": "0x146",
          "removed": false
        },
        {
          "address": "0x8aafd3ede9adb0ff97c7aebce82a919afb1c8764",
          "topics": [
            "0xddf252ad1be2c89b69c2b068fc378daa952ba7f163c4a11628f55a4df523b3ef",
            "0x0000000000000000000000000000000000000000000000000000000000000000",
            "0x000000000000000000000000c77f7fed3b5cc8249adc428c5f44c9063b9734b4"
          ],
          "data": "0x00000000000000000000000000000000000000000000000007ef086cb699cdd7",
          "blockHash": "0x7658d3baa1497b92525910c5920c146560a1a7e9d9b728d11e5a8fc2b1a6fa01",
          "blockNumber": "0x731cfd",
          "transactionHash": "0x9467b677fe30b1d0e94ac50e93c9ee41c28ddffe0706abea653a107af342c9ae",
          "transactionIndex": "0xab",
          "logIndex": "0x147",
          "removed": false
        },
        {
          "address": "0x8aafd3ede9adb0ff97c7aebce82a919afb1c8764",
          "topics": [
            "0x4afcb4a87cdbd9974efdb92ee48bc8d7cd0ae4bf217004db3d080cbaee652ca7"
          ],
          "data": "0x00000000000000000000000000000000000000000000000000000000679058c40000000000000000000000000000000000000000000000000012b01ba81e933a0000000000000000000000000000000000000000000000000de0b6b3a7640000",
          "blockHash": "0x7658d3baa1497b92525910c5920c146560a1a7e9d9b728d11e5a8fc2b1a6fa01",
          "blockNumber": "0x731cfd",
          "transactionHash": "0x9467b677fe30b1d0e94ac50e93c9ee41c28ddffe0706abea653a107af342c9ae",
          "transactionIndex": "0xab",
          "logIndex": "0x148",
          "removed": false
        }
      ],
      "logsBloom": "0x00000000000000000000000000000000000000000600000000000000000000000000000000000000000000000000000000000000000000004000000000000000000000000000004000000008000000000000000000000000000000000000000000000000020000000000000000000800020000000000000000000010000000000000000000000000000000000000000000000000000000000000010000000000000000000000000000000000000000004000000000000000000000000000000000000002000000800000000000000000000000000000080000000000000020000000000000000000000000000000000000000000000000000000000000000000",
      "type": "0x2",
      "transactionHash": "0x9467b677fe30b1d0e94ac50e93c9ee41c28ddffe0706abea653a107af342c9ae",
      "transactionIndex": "0xab",
      "blockHash": "0x7658d3baa1497b92525910c5920c146560a1a7e9d9b728d11e5a8fc2b1a6fa01",
      "blockNumber": "0x731cfd",
      "gasUsed": "0xf844",
      "effectiveGasPrice": "0x61de32b9",
      "from": "0xc77f7fed3b5cc8249adc428c5f44c9063b9734b4",
      "to": "0x8aafd3ede9adb0ff97c7aebce82a919afb1c8764",
      "contractAddress": null
    }
  ],
  "libraries": [],
  "pending": [],
  "returns": {},
  "timestamp": 1737513157,
  "chain": 11155111,
  "commit": "1d2fb70"
}