{
  "transactions": [
    {
      "hash": "0x5d65d6eedf7a63454f8a8136f1c3c34b8020f0959638193ecbd8c95369e8d50e",
      "transactionType": "CALL",
      "contractName": null,
      "contractAddress": "0x5eb9cc76c3506942c1c0ead70e877dd5e4f00cb0",
      "function": "buy(address)",
      "arguments": [
        "0xC77f7fed3b5Cc8249aDc428c5F44C9063B9734b4"
      ],
      "transaction": {
        "from": "0xc77f7fed3b5cc8249adc428c5f44c9063b9734b4",
        "to": "0x5eb9cc76c3506942c1c0ead70e877dd5e4f00cb0",
        "gas": "0x156c8",
        "value": "0xde0b6b3a7640000",
        "input": "0xf088d547000000000000000000000000c77f7fed3b5cc8249adc428c5f44c9063b9734b4",
        "nonce": "0x1a0",
        "chainId": "0xaa36a7"
      },
      "additionalContracts": [],
      "isFixedGasLimit": false
    }
  ],
  "receipts": [
    {
      "status": "0x1",
      "cumulativeGasUsed": "0xaac867",
      "logs": [
        {
          "address": "0x5eb9cc76c3506942c1c0ead70e877dd5e4f00cb0",
          "topics": [
            "0xddf252ad1be2c89b69c2b068fc378daa952ba7f163c4a11628f55a4df523b3ef",
            "0x0000000000000000000000000000000000000000000000000000000000000000",
            "0x000000000000000000000000c77f7fed3b5cc8249adc428c5f44c9063b9734b4"
          ],
          "data": "0x000000000000000000000000000000000000000000000035a37924e38807f981",
          "blockHash": "0x76e1994d867df0a54f2ab5e009cecd31958e2893a550d7253baa24206cfaf06b",
          "blockNumber": "0x723c86",
          "transactionHash": "0x5d65d6eedf7a63454f8a8136f1c3c34b8020f0959638193ecbd8c95369e8d50e",
          "transactionIndex": "0x6b",
          "logIndex": "0xc2",
          "removed": false
        },
        {
          "address": "0x5eb9cc76c3506942c1c0ead70e877dd5e4f00cb0",
          "topics": [
            "0xddf252ad1be2c89b69c2b068fc378daa952ba7f163c4a11628f55a4df523b3ef",
            "0x0000000000000000000000000000000000000000000000000000000000000000",
            "0x000000000000000000000000c77f7fed3b5cc8249adc428c5f44c9063b9734b4"
          ],
          "data": "0x00000000000000000000000000000000000000000000000029a6f513ccf99a2d",
          "blockHash": "0x76e1994d867df0a54f2ab5e009cecd31958e2893a550d7253baa24206cfaf06b",
          "blockNumber": "0x723c86",
          "transactionHash": "0x5d65d6eedf7a63454f8a8136f1c3c34b8020f0959638193ecbd8c95369e8d50e",
          "transactionIndex": "0x6b",
          "logIndex": "0xc3",
          "removed": false
        },
        {
          "address": "0x5eb9cc76c3506942c1c0ead70e877dd5e4f00cb0",
          "topics": [
            "0x4afcb4a87cdbd9974efdb92ee48bc8d7cd0ae4bf217004db3d080cbaee652ca7"
          ],
          "data": "0x000000000000000000000000000000000000000000000000000000006785c79c00000000000000000000000000000000000000000000000000038dfe7690420a0000000000000000000000000000000000000000000000000de0b6b3a7640000",
          "blockHash": "0x76e1994d867df0a54f2ab5e009cecd31958e2893a550d7253baa24206cfaf06b",
          "blockNumber": "0x723c86",
          "transactionHash": "0x5d65d6eedf7a63454f8a8136f1c3c34b8020f0959638193ecbd8c95369e8d50e",
          "transactionIndex": "0x6b",
          "logIndex": "0xc4",
          "removed": false
        }
      ],
      "logsBloom": "0x00000000000000000000000000000000000000000000000000000000000000000000000000000000000000000000000000000000000000004000000000000000000000000000000000000008000000000000000000000000000000000000000000000000020000000000000004000800020000000000000000000010000000000000000000000000000000000000000000000000000000000000010000000000000000000000000000000000000000004000000000000000000000000000020000000002000000800000008000000000000000000000080000000000000020000000000000000000000000000000000000000000000000000000000000000000",
      "type": "0x2",
      "transactionHash": "0x5d65d6eedf7a63454f8a8136f1c3c34b8020f0959638193ecbd8c95369e8d50e",
      "transactionIndex": "0x6b",
      "blockHash": "0x76e1994d867df0a54f2ab5e009cecd31958e2893a550d7253baa24206cfaf06b",
      "blockNumber": "0x723c86",
      "gasUsed": "0xf82c",
      "effectiveGasPrice": "0x1d1e33ba5",
      "from": "0xc77f7fed3b5cc8249adc428c5f44c9063b9734b4",
      "to": "0x5eb9cc76c3506942c1c0ead70e877dd5e4f00cb0",
      "contractAddress": null
    }
  ],
  "libraries": [],
  "pending": [],
  "returns": {},
  "timestamp": 1736820639,
  "chain": 11155111,
  "commit": "51a374b"
}