{
  "transactions": [
    {
      "hash": "0x3d7a0e4d364929b42070a48fbeb96842cebead8fca6189e04a6d22b5d9b09f9e",
      "transactionType": "CALL",
      "contractName": null,
      "contractAddress": "0x270e88f8683660553e8ba4eb2ad7c91a1710d769",
      "function": "buy(address)",
      "arguments": [
        "0xC77f7fed3b5Cc8249aDc428c5F44C9063B9734b4"
      ],
      "transaction": {
        "from": "0xc77f7fed3b5cc8249adc428c5f44c9063b9734b4",
        "to": "0x270e88f8683660553e8ba4eb2ad7c91a1710d769",
        "gas": "0x1b30c",
        "value": "0xde0b6b3a7640000",
        "input": "0xf088d547000000000000000000000000c77f7fed3b5cc8249adc428c5f44c9063b9734b4",
        "nonce": "0x522",
        "chainId": "0xaa36a7"
      },
      "additionalContracts": [],
      "isFixedGasLimit": false
    }
  ],
  "receipts": [
    {
      "status": "0x1",
      "cumulativeGasUsed": "0x1123dbf",
      "logs": [
        {
          "address": "0x270e88f8683660553e8ba4eb2ad7c91a1710d769",
          "topics": [
            "0xddf252ad1be2c89b69c2b068fc378daa952ba7f163c4a11628f55a4df523b3ef",
            "0x0000000000000000000000000000000000000000000000000000000000000000",
            "0x000000000000000000000000c77f7fed3b5cc8249adc428c5f44c9063b9734b4"
          ],
          "data": "0x00000000000000000000000000000000000000000000003500c80dabfced80d1",
          "blockHash": "0xf42b0da1d33cebc5f6f5cc4fbc5d87c83419052e1484f26df1928075c909f487",
          "blockNumber": "0x7251bb",
          "transactionHash": "0x3d7a0e4d364929b42070a48fbeb96842cebead8fca6189e04a6d22b5d9b09f9e",
          "transactionIndex": "0x75",
          "logIndex": "0xba",
          "removed": false
        },
        {
          "address": "0x270e88f8683660553e8ba4eb2ad7c91a1710d769",
          "topics": [
            "0xddf252ad1be2c89b69c2b068fc378daa952ba7f163c4a11628f55a4df523b3ef",
            "0x0000000000000000000000000000000000000000000000000000000000000000",
            "0x000000000000000000000000c77f7fed3b5cc8249adc428c5f44c9063b9734b4"
          ],
          "data": "0x00000000000000000000000000000000000000000000000029289f23458780e2",
          "blockHash": "0xf42b0da1d33cebc5f6f5cc4fbc5d87c83419052e1484f26df1928075c909f487",
          "blockNumber": "0x7251bb",
          "transactionHash": "0x3d7a0e4d364929b42070a48fbeb96842cebead8fca6189e04a6d22b5d9b09f9e",
          "transactionIndex": "0x75",
          "logIndex": "0xbb",
          "removed": false
        },
        {
          "address": "0x270e88f8683660553e8ba4eb2ad7c91a1710d769",
          "topics": [
            "0x4afcb4a87cdbd9974efdb92ee48bc8d7cd0ae4bf217004db3d080cbaee652ca7"
          ],
          "data": "0x000000000000000000000000000000000000000000000000000000006786c6a8000000000000000000000000000000000000000000000000000399025bc431970000000000000000000000000000000000000000000000000de0b6b3a7640000",
          "blockHash": "0xf42b0da1d33cebc5f6f5cc4fbc5d87c83419052e1484f26df1928075c909f487",
          "blockNumber": "0x7251bb",
          "transactionHash": "0x3d7a0e4d364929b42070a48fbeb96842cebead8fca6189e04a6d22b5d9b09f9e",
          "transactionIndex": "0x75",
          "logIndex": "0xbc",
          "removed": false
        }
      ],
      "logsBloom": "0x00000000000000000000000000000000000000000000000000000000000000000000000000000000000000000000000020000000000000004000000000000000000000000000000000000008000000000000000000000000000000000000000000000000020000000000000000000800020000000000000000000010000000000000000000010000000000000000000000000000000000000000010000000000000000000000000000000000000000004000000000000000000000000000000000000002000000800000000000000000000000000000080000008000000020000000000000000000000000000000000000000000000000000000000000000000",
      "type": "0x2",
      "transactionHash": "0x3d7a0e4d364929b42070a48fbeb96842cebead8fca6189e04a6d22b5d9b09f9e",
      "transactionIndex": "0x75",
      "blockHash": "0xf42b0da1d33cebc5f6f5cc4fbc5d87c83419052e1484f26df1928075c909f487",
      "blockNumber": "0x7251bb",
      "gasUsed": "0x13af8",
      "effectiveGasPrice": "0x41f282d4e",
      "from": "0xc77f7fed3b5cc8249adc428c5f44c9063b9734b4",
      "to": "0x270e88f8683660553e8ba4eb2ad7c91a1710d769",
      "contractAddress": null
    }
  ],
  "libraries": [],
  "pending": [],
  "returns": {},
  "timestamp": 1736885930,
  "chain": 11155111,
  "commit": "51a374b"
}