{
  "transactions": [
    {
      "hash": "0xabea94a3cd987f23e78ee03496500ea43eca9732bc893d4b5b929e9a86848a84",
      "transactionType": "CALL",
      "contractName": null,
      "contractAddress": "0x8aafd3ede9adb0ff97c7aebce82a919afb1c8764",
      "function": "sell(uint256)",
      "arguments": [
        "152984475453862978232"
      ],
      "transaction": {
        "from": "0xc77f7fed3b5cc8249adc428c5f44c9063b9734b4",
        "to": "0x8aafd3ede9adb0ff97c7aebce82a919afb1c8764",
        "gas": "0x17270",
        "value": "0x0",
        "input": "0xe4849b320000000000000000000000000000000000000000000000084b1609e0f8f822b8",
        "nonce": "0x1709",
        "chainId": "0xaa36a7"
      },
      "additionalContracts": [],
      "isFixedGasLimit": false
    }
  ],
  "receipts": [
    {
      "status": "0x1",
      "cumulativeGasUsed": "0xcc0a8e",
      "logs": [
        {
          "address": "0x8aafd3ede9adb0ff97c7aebce82a919afb1c8764",
          "topics": [
            "0xddf252ad1be2c89b69c2b068fc378daa952ba7f163c4a11628f55a4df523b3ef",
            "0x000000000000000000000000c77f7fed3b5cc8249adc428c5f44c9063b9734b4",
            "0x0000000000000000000000000000000000000000000000000000000000000000"
          ],
          "data": "0x0000000000000000000000000000000000000000000000083a19f551dc5a80a7",
          "blockHash": "0xe0d65ebb186cca24a56eda323ec4637d97200e630bb5cbbe0baa35e1a7ce420b",
          "blockNumber": "0x731ecd",
          "transactionHash": "0xabea94a3cd987f23e78ee03496500ea43eca9732bc893d4b5b929e9a86848a84",
          "transactionIndex": "0x7a",
          "logIndex": "0xe3",
          "removed": false
        },
        {
          "address": "0x8aafd3ede9adb0ff97c7aebce82a919afb1c8764",
          "topics": [
            "0xddf252ad1be2c89b69c2b068fc378daa952ba7f163c4a11628f55a4df523b3ef",
            "0x000000000000000000000000c77f7fed3b5cc8249adc428c5f44c9063b9734b4",
            "0x000000000000000000000000c77f7fed3b5cc8249adc428c5f44c9063b9734b4"
          ],
          "data": "0x00000000000000000000000000000000000000000000000010fc148f1c9da211",
          "blockHash": "0xe0d65ebb186cca24a56eda323ec4637d97200e630bb5cbbe0baa35e1a7ce420b",
          "blockNumber": "0x731ecd",
          "transactionHash": "0xabea94a3cd987f23e78ee03496500ea43eca9732bc893d4b5b929e9a86848a84",
          "transactionIndex": "0x7a",
          "logIndex": "0xe4",
          "removed": false
        },
        {
          "address": "0x8aafd3ede9adb0ff97c7aebce82a919afb1c8764",
          "topics": [
            "0x4afcb4a87cdbd9974efdb92ee48bc8d7cd0ae4bf217004db3d080cbaee652ca7"
          ],
          "data": "0x0000000000000000000000000000000000000000000000000000000067906e8400000000000000000000000000000000000000000000000000172a30598955590000000000000000000000000000000000000000000000000dcbf7f4b88c9a4d",
          "blockHash": "0xe0d65ebb186cca24a56eda323ec4637d97200e630bb5cbbe0baa35e1a7ce420b",
          "blockNumber": "0x731ecd",
          "transactionHash": "0xabea94a3cd987f23e78ee03496500ea43eca9732bc893d4b5b929e9a86848a84",
          "transactionIndex": "0x7a",
          "logIndex": "0xe5",
          "removed": false
        }
      ],
      "logsBloom": "0x00000000000000000000000000000000000000000600000000000000000000000000000000000000000000000000000000000000000000004000000000000000000000000000004000000008000000000000000000000000000000000000000000000000020000000000000000000800020000000000000000000010000000000000000000000000000000000000000000000000000000000000010000000000000000000000000000000000000000004000000000000000000000000000000000000002000000800000000000000000000000000000080000000000000020000000000000000000000000000000000000000000000000000000000000000000",
      "type": "0x2",
      "transactionHash": "0xabea94a3cd987f23e78ee03496500ea43eca9732bc893d4b5b929e9a86848a84",
      "transactionIndex": "0x7a",
      "blockHash": "0xe0d65ebb186cca24a56eda323ec4637d97200e630bb5cbbe0baa35e1a7ce420b",
      "blockNumber": "0x731ecd",
      "gasUsed": "0xfd4b",
      "effectiveGasPrice": "0x3a8ba5f1",
      "from": "0xc77f7fed3b5cc8249adc428c5f44c9063b9734b4",
      "to": "0x8aafd3ede9adb0ff97c7aebce82a919afb1c8764",
      "contractAddress": null
    }
  ],
  "libraries": [],
  "pending": [],
  "returns": {},
  "timestamp": 1737518726,
  "chain": 11155111,
  "commit": "1d2fb70"
}