{
  "transactions": [
    {
      "hash": "0x03f5673af3abb505fc475c3f72448cc7a736e07626b2f039022d82d3c0e51be0",
      "transactionType": "CALL",
      "contractName": null,
      "contractAddress": "0x8aafd3ede9adb0ff97c7aebce82a919afb1c8764",
      "function": "sell(uint256)",
      "arguments": [
        "182604942"
      ],
      "transaction": {
        "from": "0xc77f7fed3b5cc8249adc428c5f44c9063b9734b4",
        "to": "0x8aafd3ede9adb0ff97c7aebce82a919afb1c8764",
        "gas": "0x14e6c",
        "value": "0x0",
        "input": "0xe4849b32000000000000000000000000000000000000000000000000000000000ae2548e",
        "nonce": "0x112d",
        "chainId": "0xaa36a7"
      },
      "additionalContracts": [],
      "isFixedGasLimit": false
    }
  ],
  "receipts": [
    {
      "status": "0x1",
      "cumulativeGasUsed": "0x9580ca",
      "logs": [
        {
          "address": "0x8aafd3ede9adb0ff97c7aebce82a919afb1c8764",
          "topics": [
            "0xddf252ad1be2c89b69c2b068fc378daa952ba7f163c4a11628f55a4df523b3ef",
            "0x000000000000000000000000c77f7fed3b5cc8249adc428c5f44c9063b9734b4",
            "0x0000000000000000000000000000000000000000000000000000000000000000"
          ],
          "data": "0x000000000000000000000000000000000000000000000000000000000acc0a27",
          "blockHash": "0x1ee4d239fa7f72f46cbbd7e97130b10b2e096f4c6e677ca03126a21cb8b75756",
          "blockNumber": "0x7317e4",
          "transactionHash": "0x03f5673af3abb505fc475c3f72448cc7a736e07626b2f039022d82d3c0e51be0",
          "transactionIndex": "0x81",
          "logIndex": "0x95",
          "removed": false
        },
        {
          "address": "0x8aafd3ede9adb0ff97c7aebce82a919afb1c8764",
          "topics": [
            "0xddf252ad1be2c89b69c2b068fc378daa952ba7f163c4a11628f55a4df523b3ef",
            "0x000000000000000000000000c77f7fed3b5cc8249adc428c5f44c9063b9734b4",
            "0x000000000000000000000000c77f7fed3b5cc8249adc428c5f44c9063b9734b4"
          ],
          "data": "0x0000000000000000000000000000000000000000000000000000000000164a67",
          "blockHash": "0x1ee4d239fa7f72f46cbbd7e97130b10b2e096f4c6e677ca03126a21cb8b75756",
          "blockNumber": "0x7317e4",
          "transactionHash": "0x03f5673af3abb505fc475c3f72448cc7a736e07626b2f039022d82d3c0e51be0",
          "transactionIndex": "0x81",
          "logIndex": "0x96",
          "removed": false
        },
        {
          "address": "0x8aafd3ede9adb0ff97c7aebce82a919afb1c8764",
          "topics": [
            "0x4afcb4a87cdbd9974efdb92ee48bc8d7cd0ae4bf217004db3d080cbaee652ca7"
          ],
          "data": "0x0000000000000000000000000000000000000000000000000000000067901b74000000000000000000000000000000000000000000000000000511f8279d7e46000000000000000000000000000000000000000000000000000000000003f9f9",
          "blockHash": "0x1ee4d239fa7f72f46cbbd7e97130b10b2e096f4c6e677ca03126a21cb8b75756",
          "blockNumber": "0x7317e4",
          "transactionHash": "0x03f5673af3abb505fc475c3f72448cc7a736e07626b2f039022d82d3c0e51be0",
          "transactionIndex": "0x81",
          "logIndex": "0x97",
          "removed": false
        }
      ],
      "logsBloom": "0x00000000000000000000000000000000000000000600000000000000000000000000000000000000000000000000000000000000000000004000000000000000000000000000004000000008000000000000000000000000000000000000000000000000020000000000000000000800020000000000000000000010000000000000000000000000000000000000000000000000000000000000010000000000000000000000000000000000000000004000000000000000000000000000000000000002000000800000000000000000000000000000080000000000000020000000000000000000000000000000000000000000000000000000000000000000",
      "type": "0x2",
      "transactionHash": "0x03f5673af3abb505fc475c3f72448cc7a736e07626b2f039022d82d3c0e51be0",
      "transactionIndex": "0x81",
      "blockHash": "0x1ee4d239fa7f72f46cbbd7e97130b10b2e096f4c6e677ca03126a21cb8b75756",
      "blockNumber": "0x7317e4",
      "gasUsed": "0xf21f",
      "effectiveGasPrice": "0x4516cd91",
      "from": "0xc77f7fed3b5cc8249adc428c5f44c9063b9734b4",
      "to": "0x8aafd3ede9adb0ff97c7aebce82a919afb1c8764",
      "contractAddress": null
    }
  ],
  "libraries": [],
  "pending": [],
  "returns": {},
  "timestamp": 1737497460,
  "chain": 11155111,
  "commit": "1d2fb70"
}