{
  "transactions": [
    {
      "hash": "0xf9c8568d6e341b020f1c05883922b0dc7dcffe3ff53c49575f01e0df84d29ef9",
      "transactionType": "CALL",
      "contractName": null,
      "contractAddress": "0x270e88f8683660553e8ba4eb2ad7c91a1710d769",
      "function": "sell(uint256)",
      "arguments": [
        "732198550943188844339"
      ],
      "transaction": {
        "from": "0xc77f7fed3b5cc8249adc428c5f44c9063b9734b4",
        "to": "0x270e88f8683660553e8ba4eb2ad7c91a1710d769",
        "gas": "0x16fec",
        "value": "0x0",
        "input": "0xe4849b32000000000000000000000000000000000000000000000027b14bceba8886ff33",
        "nonce": "0x794",
        "chainId": "0xaa36a7"
      },
      "additionalContracts": [],
      "isFixedGasLimit": false
    }
  ],
  "receipts": [
    {
      "status": "0x1",
      "cumulativeGasUsed": "0xabefc7",
      "logs": [
        {
          "address": "0x270e88f8683660553e8ba4eb2ad7c91a1710d769",
          "topics": [
            "0xddf252ad1be2c89b69c2b068fc378daa952ba7f163c4a11628f55a4df523b3ef",
            "0x000000000000000000000000c77f7fed3b5cc8249adc428c5f44c9063b9734b4",
            "0x0000000000000000000000000000000000000000000000000000000000000000"
          ],
          "data": "0x000000000000000000000000000000000000000000000027b14bceba8886ff33",
          "blockHash": "0x6c0adf007e6c6081864cc364f8ac1ef88569fb8adb2fbb17f118094d23f02932",
          "blockNumber": "0x7254c7",
          "transactionHash": "0xf9c8568d6e341b020f1c05883922b0dc7dcffe3ff53c49575f01e0df84d29ef9",
          "transactionIndex": "0x44",
          "logIndex": "0x72",
          "removed": false
        },
        {
          "address": "0x270e88f8683660553e8ba4eb2ad7c91a1710d769",
          "topics": [
            "0x4afcb4a87cdbd9974efdb92ee48bc8d7cd0ae4bf217004db3d080cbaee652ca7"
          ],
          "data": "0x000000000000000000000000000000000000000000000000000000006786eb5c0000000000000000000000000000000000000000000000000004d1be6dd2ef560000000000000000000000000000000000000000000000000dc827b140ce4ad2",
          "blockHash": "0x6c0adf007e6c6081864cc364f8ac1ef88569fb8adb2fbb17f118094d23f02932",
          "blockNumber": "0x7254c7",
          "transactionHash": "0xf9c8568d6e341b020f1c05883922b0dc7dcffe3ff53c49575f01e0df84d29ef9",
          "transactionIndex": "0x44",
          "logIndex": "0x73",
          "removed": false
        }
      ],
      "logsBloom": "0x00000000000000000000000000000000000000000000000000000000000000000000000000000000000000000000000020000000000000004000000000000000000000000000000000000008000000000000000000000000000000000000000000000000020000000000000000000800020000000000000000000010000000000000000000010000000000000000000000000000000000000000010000000000000000000000000000000000000000004000000000000000000000000000000000000002000000800000000000000000000000000000080000008000000020000000000000000000000000000000000000000000000000000000000000000000",
      "type": "0x2",
      "transactionHash": "0xf9c8568d6e341b020f1c05883922b0dc7dcffe3ff53c49575f01e0df84d29ef9",
      "transactionIndex": "0x44",
      "blockHash": "0x6c0adf007e6c6081864cc364f8ac1ef88569fb8adb2fbb17f118094d23f02932",
      "blockNumber": "0x7254c7",
      "gasUsed": "0xfb93",
      "effectiveGasPrice": "0x1082fec42",
      "from": "0xc77f7fed3b5cc8249adc428c5f44c9063b9734b4",
      "to": "0x270e88f8683660553e8ba4eb2ad7c91a1710d769",
      "contractAddress": null
    }
  ],
  "libraries": [],
  "pending": [],
  "returns": {},
  "timestamp": 1736895325,
  "chain": 11155111,
  "commit": "51a374b"
}