{
  "transactions": [
    {
      "hash": "0x8cc678a3b16424cfce64206b3cf2e6466ac1d6110041eee03a786f850ab4354a",
      "transactionType": "CALL",
      "contractName": null,
      "contractAddress": "0x270e88f8683660553e8ba4eb2ad7c91a1710d769",
      "function": "buy(address)",
      "arguments": [
        "0xC77f7fed3b5Cc8249aDc428c5F44C9063B9734b4"
      ],
      "transaction": {
        "from": "0xc77f7fed3b5cc8249adc428c5f44c9063b9734b4",
        "to": "0x270e88f8683660553e8ba4eb2ad7c91a1710d769",
        "gas": "0x1b30c",
        "value": "0xde0b6b3a7640000",
        "input": "0xf088d547000000000000000000000000c77f7fed3b5cc8249adc428c5f44c9063b9734b4",
        "nonce": "0x560",
        "chainId": "0xaa36a7"
      },
      "additionalContracts": [],
      "isFixedGasLimit": false
    }
  ],
  "receipts": [
    {
      "status": "0x1",
      "cumulativeGasUsed": "0xb5f387",
      "logs": [
        {
          "address": "0x270e88f8683660553e8ba4eb2ad7c91a1710d769",
          "topics": [
            "0xddf252ad1be2c89b69c2b068fc378daa952ba7f163c4a11628f55a4df523b3ef",
            "0x0000000000000000000000000000000000000000000000000000000000000000",
            "0x000000000000000000000000c77f7fed3b5cc8249adc428c5f44c9063b9734b4"
          ],
          "data": "0x0000000000000000000000000000000000000000000000347c7704812d68c8be",
          "blockHash": "0xe3d47aacdaf1207b7bcf608ff60164b9606140b6b792d5afcbf5068f30f7d3b5",
          "blockNumber": "0x725204",
          "transactionHash": "0x8cc678a3b16424cfce64206b3cf2e6466ac1d6110041eee03a786f850ab4354a",
          "transactionIndex": "0x5b",
          "logIndex": "0x88",
          "removed": false
        },
        {
          "address": "0x270e88f8683660553e8ba4eb2ad7c91a1710d769",
          "topics": [
            "0xddf252ad1be2c89b69c2b068fc378daa952ba7f163c4a11628f55a4df523b3ef",
            "0x0000000000000000000000000000000000000000000000000000000000000000",
            "0x000000000000000000000000c77f7fed3b5cc8249adc428c5f44c9063b9734b4"
          ],
          "data": "0x00000000000000000000000000000000000000000000000028c1df91f0084cf5",
          "blockHash": "0xe3d47aacdaf1207b7bcf608ff60164b9606140b6b792d5afcbf5068f30f7d3b5",
          "blockNumber": "0x725204",
          "transactionHash": "0x8cc678a3b16424cfce64206b3cf2e6466ac1d6110041eee03a786f850ab4354a",
          "transactionIndex": "0x5b",
          "logIndex": "0x89",
          "removed": false
        },
        {
          "address": "0x270e88f8683660553e8ba4eb2ad7c91a1710d769",
          "topics": [
            "0x4afcb4a87cdbd9974efdb92ee48bc8d7cd0ae4bf217004db3d080cbaee652ca7"
          ],
          "data": "0x000000000000000000000000000000000000000000000000000000006786ca200000000000000000000000000000000000000000000000000003a213f19aa9ca0000000000000000000000000000000000000000000000000de0b6b3a7640000",
          "blockHash": "0xe3d47aacdaf1207b7bcf608ff60164b9606140b6b792d5afcbf5068f30f7d3b5",
          "blockNumber": "0x725204",
          "transactionHash": "0x8cc678a3b16424cfce64206b3cf2e6466ac1d6110041eee03a786f850ab4354a",
          "transactionIndex": "0x5b",
          "logIndex": "0x8a",
          "removed": false
        }
      ],
      "logsBloom": "0x00000000000000000000000000000000000000000000000000000000000000000000000000000000000000000000000020000000000000004000000000000000000000000000000000000008000000000000000000000000000000000000000000000000020000000000000000000800020000000000000000000010000000000000000000010000000000000000000000000000000000000000010000000000000000000000000000000000000000004000000000000000000000000000000000000002000000800000000000000000000000000000080000008000000020000000000000000000000000000000000000000000000000000000000000000000",
      "type": "0x2",
      "transactionHash": "0x8cc678a3b16424cfce64206b3cf2e6466ac1d6110041eee03a786f850ab4354a",
      "transactionIndex": "0x5b",
      "blockHash": "0xe3d47aacdaf1207b7bcf608ff60164b9606140b6b792d5afcbf5068f30f7d3b5",
      "blockNumber": "0x725204",
      "gasUsed": "0x13af8",
      "effectiveGasPrice": "0x4348e0f32",
      "from": "0xc77f7fed3b5cc8249adc428c5f44c9063b9734b4",
      "to": "0x270e88f8683660553e8ba4eb2ad7c91a1710d769",
      "contractAddress": null
    }
  ],
  "libraries": [],
  "pending": [],
  "returns": {},
  "timestamp": 1736886818,
  "chain": 11155111,
  "commit": "51a374b"
}