{
  "transactions": [
    {
      "hash": "0xc607550defe905b3cfa3008aecf707a3f57643e927a415389515eccaf89da65c",
      "transactionType": "CALL",
      "contractName": null,
      "contractAddress": "0x8aafd3ede9adb0ff97c7aebce82a919afb1c8764",
      "function": "sell(uint256)",
      "arguments": [
        "3030181828373"
      ],
      "transaction": {
        "from": "0xc77f7fed3b5cc8249adc428c5f44c9063b9734b4",
        "to": "0x8aafd3ede9adb0ff97c7aebce82a919afb1c8764",
        "gas": "0x15daa",
        "value": "0x0",
        "input": "0xe4849b32000000000000000000000000000000000000000000000000000002c184e95715",
        "nonce": "0xfd9",
        "chainId": "0xaa36a7"
      },
      "additionalContracts": [],
      "isFixedGasLimit": false
    }
  ],
  "receipts": [
    {
      "status": "0x1",
      "cumulativeGasUsed": "0xe73f34",
      "logs": [
        {
          "address": "0x8aafd3ede9adb0ff97c7aebce82a919afb1c8764",
          "topics": [
            "0xddf252ad1be2c89b69c2b068fc378daa952ba7f163c4a11628f55a4df523b3ef",
            "0x000000000000000000000000c77f7fed3b5cc8249adc428c5f44c9063b9734b4",
            "0x0000000000000000000000000000000000000000000000000000000000000000"
          ],
          "data": "0x000000000000000000000000000000000000000000000000000002bbe00218f3",
          "blockHash": "0xfe9291986868dee445225a1dbb2688c4c5870b31d19f8c24ce1595feb38c148e",
          "blockNumber": "0x73164a",
          "transactionHash": "0xc607550defe905b3cfa3008aecf707a3f57643e927a415389515eccaf89da65c",
          "transactionIndex": "0x80",
          "logIndex": "0x95",
          "removed": false
        },
        {
          "address": "0x8aafd3ede9adb0ff97c7aebce82a919afb1c8764",
          "topics": [
            "0xddf252ad1be2c89b69c2b068fc378daa952ba7f163c4a11628f55a4df523b3ef",
            "0x000000000000000000000000c77f7fed3b5cc8249adc428c5f44c9063b9734b4",
            "0x000000000000000000000000c77f7fed3b5cc8249adc428c5f44c9063b9734b4"
          ],
          "data": "0x00000000000000000000000000000000000000000000000000000005a4e73e22",
          "blockHash": "0xfe9291986868dee445225a1dbb2688c4c5870b31d19f8c24ce1595feb38c148e",
          "blockNumber": "0x73164a",
          "transactionHash": "0xc607550defe905b3cfa3008aecf707a3f57643e927a415389515eccaf89da65c",
          "transactionIndex": "0x80",
          "logIndex": "0x96",
          "removed": false
        },
        {
          "address": "0x8aafd3ede9adb0ff97c7aebce82a919afb1c8764",
          "topics": [
            "0x4afcb4a87cdbd9974efdb92ee48bc8d7cd0ae4bf217004db3d080cbaee652ca7"
          ],
          "data": "0x00000000000000000000000000000000000000000000000000000000679008240000000000000000000000000000000000000000000000000004c51eedc5475b00000000000000000000000000000000000000000000000000000000f27f5bc0",
          "blockHash": "0xfe9291986868dee445225a1dbb2688c4c5870b31d19f8c24ce1595feb38c148e",
          "blockNumber": "0x73164a",
          "transactionHash": "0xc607550defe905b3cfa3008aecf707a3f57643e927a415389515eccaf89da65c",
          "transactionIndex": "0x80",
          "logIndex": "0x97",
          "removed": false
        }
      ],
      "logsBloom": "0x00000000000000000000000000000000000000000600000000000000000000000000000000000000000000000000000000000000000000004000000000000000000000000000004000000008000000000000000000000000000000000000000000000000020000000000000000000800020000000000000000000010000000000000000000000000000000000000000000000000000000000000010000000000000000000000000000000000000000004000000000000000000000000000000000000002000000800000000000000000000000000000080000000000000020000000000000000000000000000000000000000000000000000000000000000000",
      "type": "0x2",
      "transactionHash": "0xc607550defe905b3cfa3008aecf707a3f57643e927a415389515eccaf89da65c",
      "transactionIndex": "0x80",
      "blockHash": "0xfe9291986868dee445225a1dbb2688c4c5870b31d19f8c24ce1595feb38c148e",
      "blockNumber": "0x73164a",
      "gasUsed": "0xfd27",
      "effectiveGasPrice": "0x4f2a9f1a",
      "from": "0xc77f7fed3b5cc8249adc428c5f44c9063b9734b4",
      "to": "0x8aafd3ede9adb0ff97c7aebce82a919afb1c8764",
      "contractAddress": null
    }
  ],
  "libraries": [],
  "pending": [],
  "returns": {},
  "timestamp": 1737492518,
  "chain": 11155111,
  "commit": "1d2fb70"
}