{
  "transactions": [
    {
      "hash": "0x51ca92b95001779dda1a6d33ce73dee03039914a6f371bba524a44eb76560452",
      "transactionType": "CALL",
      "contractName": null,
      "contractAddress": "0x270e88f8683660553e8ba4eb2ad7c91a1710d769",
      "function": "buy(address)",
      "arguments": [
        "0xC77f7fed3b5Cc8249aDc428c5F44C9063B9734b4"
      ],
      "transaction": {
        "from": "0xc77f7fed3b5cc8249adc428c5f44c9063b9734b4",
        "to": "0x270e88f8683660553e8ba4eb2ad7c91a1710d769",
        "gas": "0x1b30c",
        "value": "0xde0b6b3a7640000",
        "input": "0xf088d547000000000000000000000000c77f7fed3b5cc8249adc428c5f44c9063b9734b4",
        "nonce": "0x5b0",
        "chainId": "0xaa36a7"
      },
      "additionalContracts": [],
      "isFixedGasLimit": false
    }
  ],
  "receipts": [
    {
      "status": "0x1",
      "cumulativeGasUsed": "0x18f574e",
      "logs": [
        {
          "address": "0x270e88f8683660553e8ba4eb2ad7c91a1710d769",
          "topics": [
            "0xddf252ad1be2c89b69c2b068fc378daa952ba7f163c4a11628f55a4df523b3ef",
            "0x0000000000000000000000000000000000000000000000000000000000000000",
            "0x000000000000000000000000c77f7fed3b5cc8249adc428c5f44c9063b9734b4"
          ],
          "data": "0x000000000000000000000000000000000000000000000033d57d44249ff2909b",
          "blockHash": "0xda93cc109f721d349bcf8cd5df7e65642d6b3f2acca662b71c9df9e02af2ba41",
          "blockNumber": "0x72526b",
          "transactionHash": "0x51ca92b95001779dda1a6d33ce73dee03039914a6f371bba524a44eb76560452",
          "transactionIndex": "0x73",
          "logIndex": "0xc8",
          "removed": false
        },
        {
          "address": "0x270e88f8683660553e8ba4eb2ad7c91a1710d769",
          "topics": [
            "0xddf252ad1be2c89b69c2b068fc378daa952ba7f163c4a11628f55a4df523b3ef",
            "0x0000000000000000000000000000000000000000000000000000000000000000",
            "0x000000000000000000000000c77f7fed3b5cc8249adc428c5f44c9063b9734b4"
          ],
          "data": "0x000000000000000000000000000000000000000000000000284036093a445f34",
          "blockHash": "0xda93cc109f721d349bcf8cd5df7e65642d6b3f2acca662b71c9df9e02af2ba41",
          "blockNumber": "0x72526b",
          "transactionHash": "0x51ca92b95001779dda1a6d33ce73dee03039914a6f371bba524a44eb76560452",
          "transactionIndex": "0x73",
          "logIndex": "0xc9",
          "removed": false
        },
        {
          "address": "0x270e88f8683660553e8ba4eb2ad7c91a1710d769",
          "topics": [
            "0x4afcb4a87cdbd9974efdb92ee48bc8d7cd0ae4bf217004db3d080cbaee652ca7"
          ],
          "data": "0x000000000000000000000000000000000000000000000000000000006786cef40000000000000000000000000000000000000000000000000003adc7b99c472a0000000000000000000000000000000000000000000000000de0b6b3a7640000",
          "blockHash": "0xda93cc109f721d349bcf8cd5df7e65642d6b3f2acca662b71c9df9e02af2ba41",
          "blockNumber": "0x72526b",
          "transactionHash": "0x51ca92b95001779dda1a6d33ce73dee03039914a6f371bba524a44eb76560452",
          "transactionIndex": "0x73",
          "logIndex": "0xca",
          "removed": false
        }
      ],
      "logsBloom": "0x00000000000000000000000000000000000000000000000000000000000000000000000000000000000000000000000020000000000000004000000000000000000000000000000000000008000000000000000000000000000000000000000000000000020000000000000000000800020000000000000000000010000000000000000000010000000000000000000000000000000000000000010000000000000000000000000000000000000000004000000000000000000000000000000000000002000000800000000000000000000000000000080000008000000020000000000000000000000000000000000000000000000000000000000000000000",
      "type": "0x2",
      "transactionHash": "0x51ca92b95001779dda1a6d33ce73dee03039914a6f371bba524a44eb76560452",
      "transactionIndex": "0x73",
      "blockHash": "0xda93cc109f721d349bcf8cd5df7e65642d6b3f2acca662b71c9df9e02af2ba41",
      "blockNumber": "0x72526b",
      "gasUsed": "0x13af8",
      "effectiveGasPrice": "0x4282fcabd",
      "from": "0xc77f7fed3b5cc8249adc428c5f44c9063b9734b4",
      "to": "0x270e88f8683660553e8ba4eb2ad7c91a1710d769",
      "contractAddress": null
    }
  ],
  "libraries": [],
  "pending": [],
  "returns": {},
  "timestamp": 1736888052,
  "chain": 11155111,
  "commit": "51a374b"
}