{
  "transactions": [
    {
      "hash": "0xb5a189349e63db36964b846092ffb6007b5449144fc2290cf3f4e169d8414ddb",
      "transactionType": "CALL",
      "contractName": null,
      "contractAddress": "0xbf4a322f1496e5c3d34a9bcdb4c60567b38c7de2",
      "function": "buy(address)",
      "arguments": [
        "0xC77f7fed3b5Cc8249aDc428c5F44C9063B9734b4"
      ],
      "transaction": {
        "from": "0xc77f7fed3b5cc8249adc428c5f44c9063b9734b4",
        "to": "0xbf4a322f1496e5c3d34a9bcdb4c60567b38c7de2",
        "gas": "0x1b309",
        "value": "0xde0b6b3a7640000",
        "input": "0xf088d547000000000000000000000000c77f7fed3b5cc8249adc428c5f44c9063b9734b4",
        "nonce": "0x9be",
        "chainId": "0xaa36a7"
      },
      "additionalContracts": [],
      "isFixedGasLimit": false
    }
  ],
  "receipts": [
    {
      "status": "0x1",
      "cumulativeGasUsed": "0xea76d1",
      "logs": [
        {
          "address": "0xbf4a322f1496e5c3d34a9bcdb4c60567b38c7de2",
          "topics": [
            "0xddf252ad1be2c89b69c2b068fc378daa952ba7f163c4a11628f55a4df523b3ef",
            "0x0000000000000000000000000000000000000000000000000000000000000000",
            "0x000000000000000000000000c77f7fed3b5cc8249adc428c5f44c9063b9734b4"
          ],
          "data": "0x00000000000000000000000000000000000000000000003567aa5ebfb3476688",
          "blockHash": "0x76fb2d63d7d18e7596f739259ccb999821103d2b5c316e93bce6d8ff8d6c0400",
          "blockNumber": "0x725969",
          "transactionHash": "0xb5a189349e63db36964b846092ffb6007b5449144fc2290cf3f4e169d8414ddb",
          "transactionIndex": "0xa4",
          "logIndex": "0x118",
          "removed": false
        },
        {
          "address": "0xbf4a322f1496e5c3d34a9bcdb4c60567b38c7de2",
          "topics": [
            "0xddf252ad1be2c89b69c2b068fc378daa952ba7f163c4a11628f55a4df523b3ef",
            "0x0000000000000000000000000000000000000000000000000000000000000000",
            "0x000000000000000000000000c77f7fed3b5cc8249adc428c5f44c9063b9734b4"
          ],
          "data": "0x000000000000000000000000000000000000000000000000297883bd359ab93c",
          "blockHash": "0x76fb2d63d7d18e7596f739259ccb999821103d2b5c316e93bce6d8ff8d6c0400",
          "blockNumber": "0x725969",
          "transactionHash": "0xb5a189349e63db36964b846092ffb6007b5449144fc2290cf3f4e169d8414ddb",
          "transactionIndex": "0xa4",
          "logIndex": "0x119",
          "removed": false
        },
        {
          "address": "0xbf4a322f1496e5c3d34a9bcdb4c60567b38c7de2",
          "topics": [
            "0x4afcb4a87cdbd9974efdb92ee48bc8d7cd0ae4bf217004db3d080cbaee652ca7"
          ],
          "data": "0x0000000000000000000000000000000000000000000000000000000067872318000000000000000000000000000000000000000000000000000391fbdbb01c840000000000000000000000000000000000000000000000000de0b6b3a7640000",
          "blockHash": "0x76fb2d63d7d18e7596f739259ccb999821103d2b5c316e93bce6d8ff8d6c0400",
          "blockNumber": "0x725969",
          "transactionHash": "0xb5a189349e63db36964b846092ffb6007b5449144fc2290cf3f4e169d8414ddb",
          "transactionIndex": "0xa4",
          "logIndex": "0x11a",
          "removed": false
        }
      ],
      "logsBloom": "0x00000000000000000000000000000000000000000000000000000000000000000000000000000000000000000000000000000000000000004000000000000000000000000000000000000008000000000000001000000000000000000000000000000000020000000000000000000800020000000000000000000010000000000000000000000000000000000000000000000000000008000000010000000000000000000000000000000000000000004000000000000000000000000000000000000002000000800000000000001000000000000000080000000000000020000000000000000000000000000000000000000000000000000000000000000000",
      "type": "0x2",
      "transactionHash": "0xb5a189349e63db36964b846092ffb6007b5449144fc2290cf3f4e169d8414ddb",
      "transactionIndex": "0xa4",
      "blockHash": "0x76fb2d63d7d18e7596f739259ccb999821103d2b5c316e93bce6d8ff8d6c0400",
      "blockNumber": "0x725969",
      "gasUsed": "0x13af6",
      "effectiveGasPrice": "0x2bafc4dd7",
      "from": "0xc77f7fed3b5cc8249adc428c5f44c9063b9734b4",
      "to": "0xbf4a322f1496e5c3d34a9bcdb4c60567b38c7de2",
      "contractAddress": null
    }
  ],
  "libraries": [],
  "pending": [],
  "returns": {},
  "timestamp": 1736909594,
  "chain": 11155111,
  "commit": "51a374b"
}