{
  "transactions": [
    {
      "hash": "0x7934c3213dd55268136bfbbc9a64e97655db9ef3dbf02d24dc71ebbecb7a9b67",
      "transactionType": "CALL",
      "contractName": null,
      "contractAddress": "0x5eb9cc76c3506942c1c0ead70e877dd5e4f00cb0",
      "function": "buy(address)",
      "arguments": [
        "0xC77f7fed3b5Cc8249aDc428c5F44C9063B9734b4"
      ],
      "transaction": {
        "from": "0xc77f7fed3b5cc8249adc428c5f44c9063b9734b4",
        "to": "0x5eb9cc76c3506942c1c0ead70e877dd5e4f00cb0",
        "gas": "0x1b30c",
        "value": "0xde0b6b3a7640000",
        "input": "0xf088d547000000000000000000000000c77f7fed3b5cc8249adc428c5f44c9063b9734b4",
        "nonce": "0x3e2",
        "chainId": "0xaa36a7"
      },
      "additionalContracts": [],
      "isFixedGasLimit": false
    }
  ],
  "receipts": [
    {
      "status": "0x1",
      "cumulativeGasUsed": "0xb8da81",
      "logs": [
        {
          "address": "0x5eb9cc76c3506942c1c0ead70e877dd5e4f00cb0",
          "topics": [
            "0xddf252ad1be2c89b69c2b068fc378daa952ba7f163c4a11628f55a4df523b3ef",
            "0x0000000000000000000000000000000000000000000000000000000000000000",
            "0x000000000000000000000000c77f7fed3b5cc8249adc428c5f44c9063b9734b4"
          ],
          "data": "0x0000000000000000000000000000000000000000000000357513273964e087ae",
          "blockHash": "0x4187b15afff97ed0d5858dc438d9316461d237241c2fc0573b4ef0fd33b19835",
          "blockNumber": "0x724fe8",
          "transactionHash": "0x7934c3213dd55268136bfbbc9a64e97655db9ef3dbf02d24dc71ebbecb7a9b67",
          "transactionIndex": "0x47",
          "logIndex": "0x8a",
          "removed": false
        },
        {
          "address": "0x5eb9cc76c3506942c1c0ead70e877dd5e4f00cb0",
          "topics": [
            "0xddf252ad1be2c89b69c2b068fc378daa952ba7f163c4a11628f55a4df523b3ef",
            "0x0000000000000000000000000000000000000000000000000000000000000000",
            "0x000000000000000000000000c77f7fed3b5cc8249adc428c5f44c9063b9734b4"
          ],
          "data": "0x0000000000000000000000000000000000000000000000002982ed698ac11737",
          "blockHash": "0x4187b15afff97ed0d5858dc438d9316461d237241c2fc0573b4ef0fd33b19835",
          "blockNumber": "0x724fe8",
          "transactionHash": "0x7934c3213dd55268136bfbbc9a64e97655db9ef3dbf02d24dc71ebbecb7a9b67",
          "transactionIndex": "0x47",
          "logIndex": "0x8b",
          "removed": false
        },
        {
          "address": "0x5eb9cc76c3506942c1c0ead70e877dd5e4f00cb0",
          "topics": [
            "0x4afcb4a87cdbd9974efdb92ee48bc8d7cd0ae4bf217004db3d080cbaee652ca7"
          ],
          "data": "0x000000000000000000000000000000000000000000000000000000006786b0ac000000000000000000000000000000000000000000000000000391144b5af3a90000000000000000000000000000000000000000000000000de0b6b3a7640000",
          "blockHash": "0x4187b15afff97ed0d5858dc438d9316461d237241c2fc0573b4ef0fd33b19835",
          "blockNumber": "0x724fe8",
          "transactionHash": "0x7934c3213dd55268136bfbbc9a64e97655db9ef3dbf02d24dc71ebbecb7a9b67",
          "transactionIndex": "0x47",
          "logIndex": "0x8c",
          "removed": false
        }
      ],
      "logsBloom": "0x00000000000000000000000000000000000000000000000000000000000000000000000000000000000000000000000000000000000000004000000000000000000000000000000000000008000000000000000000000000000000000000000000000000020000000000000004000800020000000000000000000010000000000000000000000000000000000000000000000000000000000000010000000000000000000000000000000000000000004000000000000000000000000000020000000002000000800000008000000000000000000000080000000000000020000000000000000000000000000000000000000000000000000000000000000000",
      "type": "0x2",
      "transactionHash": "0x7934c3213dd55268136bfbbc9a64e97655db9ef3dbf02d24dc71ebbecb7a9b67",
      "transactionIndex": "0x47",
      "blockHash": "0x4187b15afff97ed0d5858dc438d9316461d237241c2fc0573b4ef0fd33b19835",
      "blockNumber": "0x724fe8",
      "gasUsed": "0x13af8",
      "effectiveGasPrice": "0x3a876f0bb",
      "from": "0xc77f7fed3b5cc8249adc428c5f44c9063b9734b4",
      "to": "0x5eb9cc76c3506942c1c0ead70e877dd5e4f00cb0",
      "contractAddress": null
    }
  ],
  "libraries": [],
  "pending": [],
  "returns": {},
  "timestamp": 1736880301,
  "chain": 11155111,
  "commit": "51a374b"
}