{
  "transactions": [
    {
      "hash": "0x87e127da897cbde5db7d1cdb6daa7a7321c76f9646527600bf04dfcad96d6b5b",
      "transactionType": "CALL",
      "contractName": null,
      "contractAddress": "0xbf4a322f1496e5c3d34a9bcdb4c60567b38c7de2",
      "function": "sell(uint256)",
      "arguments": [
        "988955306350439998209"
      ],
      "transaction": {
        "from": "0xc77f7fed3b5cc8249adc428c5f44c9063b9734b4",
        "to": "0xbf4a322f1496e5c3d34a9bcdb4c60567b38c7de2",
        "gas": "0x16fea",
        "value": "0x0",
        "input": "0xe4849b320000000000000000000000000000000000000000000000359c830b6a7b96a301",
        "nonce": "0x983",
        "chainId": "0xaa36a7"
      },
      "additionalContracts": [],
      "isFixedGasLimit": false
    }
  ],
  "receipts": [
    {
      "status": "0x1",
      "cumulativeGasUsed": "0xba8804",
      "logs": [
        {
          "address": "0xbf4a322f1496e5c3d34a9bcdb4c60567b38c7de2",
          "topics": [
            "0xddf252ad1be2c89b69c2b068fc378daa952ba7f163c4a11628f55a4df523b3ef",
            "0x000000000000000000000000c77f7fed3b5cc8249adc428c5f44c9063b9734b4",
            "0x0000000000000000000000000000000000000000000000000000000000000000"
          ],
          "data": "0x0000000000000000000000000000000000000000000000359c830b6a7b96a301",
          "blockHash": "0x44b436a1d49775e8c17f9582d6ae51f9592f4089f40fba6a966604efe7987dc7",
          "blockNumber": "0x725923",
          "transactionHash": "0x87e127da897cbde5db7d1cdb6daa7a7321c76f9646527600bf04dfcad96d6b5b",
          "transactionIndex": "0x6c",
          "logIndex": "0x90",
          "removed": false
        },
        {
          "address": "0xbf4a322f1496e5c3d34a9bcdb4c60567b38c7de2",
          "topics": [
            "0x4afcb4a87cdbd9974efdb92ee48bc8d7cd0ae4bf217004db3d080cbaee652ca7"
          ],
          "data": "0x0000000000000000000000000000000000000000000000000000000067871fd00000000000000000000000000000000000000000000000000003913e0f9cda180000000000000000000000000000000000000000000000000dc7e3f6e32e4d18",
          "blockHash": "0x44b436a1d49775e8c17f9582d6ae51f9592f4089f40fba6a966604efe7987dc7",
          "blockNumber": "0x725923",
          "transactionHash": "0x87e127da897cbde5db7d1cdb6daa7a7321c76f9646527600bf04dfcad96d6b5b",
          "transactionIndex": "0x6c",
          "logIndex": "0x91",
          "removed": false
        }
      ],
      "logsBloom": "0x00000000000000000000000000000000000000000000000000000000000000000000000000000000000000000000000000000000000000004000000000000000000000000000000000000008000000000000001000000000000000000000000000000000020000000000000000000800020000000000000000000010000000000000000000000000000000000000000000000000000008000000010000000000000000000000000000000000000000004000000000000000000000000000000000000002000000800000000000001000000000000000080000000000000020000000000000000000000000000000000000000000000000000000000000000000",
      "type": "0x2",
      "transactionHash": "0x87e127da897cbde5db7d1cdb6daa7a7321c76f9646527600bf04dfcad96d6b5b",
      "transactionIndex": "0x6c",
      "blockHash": "0x44b436a1d49775e8c17f9582d6ae51f9592f4089f40fba6a966604efe7987dc7",
      "blockNumber": "0x725923",
      "gasUsed": "0xfb91",
      "effectiveGasPrice": "0xad91c081",
      "from": "0xc77f7fed3b5cc8249adc428c5f44c9063b9734b4",
      "to": "0xbf4a322f1496e5c3d34a9bcdb4c60567b38c7de2",
      "contractAddress": null
    }
  ],
  "libraries": [],
  "pending": [],
  "returns": {},
  "timestamp": 1736908752,
  "chain": 11155111,
  "commit": "51a374b"
}