{
  "transactions": [
    {
      "hash": "0x101e3d36ee0cc697c80e8bdac57c22353697a57693cf073cfd3e7bdf2fbb9cbb",
      "transactionType": "CALL",
      "contractName": null,
      "contractAddress": "0x8aafd3ede9adb0ff97c7aebce82a919afb1c8764",
      "function": "buy(address)",
      "arguments": [
        "0xC77f7fed3b5Cc8249aDc428c5F44C9063B9734b4"
      ],
      "transaction": {
        "from": "0xc77f7fed3b5cc8249adc428c5f44c9063b9734b4",
        "to": "0x8aafd3ede9adb0ff97c7aebce82a919afb1c8764",
        "gas": "0x156ea",
        "value": "0xde0b6b3a7640000",
        "input": "0xf088d547000000000000000000000000c77f7fed3b5cc8249adc428c5f44c9063b9734b4",
        "nonce": "0x11a8",
        "chainId": "0xaa36a7"
      },
      "additionalContracts": [],
      "isFixedGasLimit": false
    }
  ],
  "receipts": [
    {
      "status": "0x1",
      "cumulativeGasUsed": "0x74418f",
      "logs": [
        {
          "address": "0x8aafd3ede9adb0ff97c7aebce82a919afb1c8764",
          "topics": [
            "0xddf252ad1be2c89b69c2b068fc378daa952ba7f163c4a11628f55a4df523b3ef",
            "0x0000000000000000000000000000000000000000000000000000000000000000",
            "0x000000000000000000000000c77f7fed3b5cc8249adc428c5f44c9063b9734b4"
          ],
          "data": "0x0000000000000000000000000000000000000000000000251b6b168ac4a8dd66",
          "blockHash": "0xf836782538be8c557e621b7e385babbaad9aa0173c2fdf27bda049904b2262d2",
          "blockNumber": "0x731872",
          "transactionHash": "0x101e3d36ee0cc697c80e8bdac57c22353697a57693cf073cfd3e7bdf2fbb9cbb",
          "transactionIndex": "0x5f",
          "logIndex": "0x67",
          "removed": false
        },
        {
          "address": "0x8aafd3ede9adb0ff97c7aebce82a919afb1c8764",
          "topics": [
            "0xddf252ad1be2c89b69c2b068fc378daa952ba7f163c4a11628f55a4df523b3ef",
            "0x0000000000000000000000000000000000000000000000000000000000000000",
            "0x000000000000000000000000c77f7fed3b5cc8249adc428c5f44c9063b9734b4"
          ],
          "data": "0x0000000000000000000000000000000000000000000000001cd09f51eb0e33d8",
          "blockHash": "0xf836782538be8c557e621b7e385babbaad9aa0173c2fdf27bda049904b2262d2",
          "blockNumber": "0x731872",
          "transactionHash": "0x101e3d36ee0cc697c80e8bdac57c22353697a57693cf073cfd3e7bdf2fbb9cbb",
          "transactionIndex": "0x5f",
          "logIndex": "0x68",
          "removed": false
        },
        {
          "address": "0x8aafd3ede9adb0ff97c7aebce82a919afb1c8764",
          "topics": [
            "0x4afcb4a87cdbd9974efdb92ee48bc8d7cd0ae4bf217004db3d080cbaee652ca7"
          ],
          "data": "0x0000000000000000000000000000000000000000000000000000000067902228000000000000000000000000000000000000000000000000000523cfec8f25a50000000000000000000000000000000000000000000000000de0b6b3a7640000",
          "blockHash": "0xf836782538be8c557e621b7e385babbaad9aa0173c2fdf27bda049904b2262d2",
          "blockNumber": "0x731872",
          "transactionHash": "0x101e3d36ee0cc697c80e8bdac57c22353697a57693cf073cfd3e7bdf2fbb9cbb",
          "transactionIndex": "0x5f",
          "logIndex": "0x69",
          "removed": false
        }
      ],
      "logsBloom": "0x00000000000000000000000000000000000000000600000000000000000000000000000000000000000000000000000000000000000000004000000000000000000000000000004000000008000000000000000000000000000000000000000000000000020000000000000000000800020000000000000000000010000000000000000000000000000000000000000000000000000000000000010000000000000000000000000000000000000000004000000000000000000000000000000000000002000000800000000000000000000000000000080000000000000020000000000000000000000000000000000000000000000000000000000000000000",
      "type": "0x2",
      "transactionHash": "0x101e3d36ee0cc697c80e8bdac57c22353697a57693cf073cfd3e7bdf2fbb9cbb",
      "transactionIndex": "0x5f",
      "blockHash": "0xf836782538be8c557e621b7e385babbaad9aa0173c2fdf27bda049904b2262d2",
      "blockNumber": "0x731872",
      "gasUsed": "0xf844",
      "effectiveGasPrice": "0x544a6409",
      "from": "0xc77f7fed3b5cc8249adc428c5f44c9063b9734b4",
      "to": "0x8aafd3ede9adb0ff97c7aebce82a919afb1c8764",
      "contractAddress": null
    }
  ],
  "libraries": [],
  "pending": [],
  "returns": {},
  "timestamp": 1737499177,
  "chain": 11155111,
  "commit": "1d2fb70"
}