{
  "transactions": [
    {
      "hash": "0x3abee719766c2eeb86d4c9708da150d7f0e66d35f9c7bb65b23eb4e0c5fd82cf",
      "transactionType": "CALL",
      "contractName": null,
      "contractAddress": "0x270e88f8683660553e8ba4eb2ad7c91a1710d769",
      "function": "sell(uint256)",
      "arguments": [
        "986339125686674002900"
      ],
      "transaction": {
        "from": "0xc77f7fed3b5cc8249adc428c5f44c9063b9734b4",
        "to": "0x270e88f8683660553e8ba4eb2ad7c91a1710d769",
        "gas": "0x16fec",
        "value": "0x0",
        "input": "0xe4849b32000000000000000000000000000000000000000000000035783480f69f9213d4",
        "nonce": "0x4ff",
        "chainId": "0xaa36a7"
      },
      "additionalContracts": [],
      "isFixedGasLimit": false
    }
  ],
  "receipts": [
    {
      "status": "0x1",
      "cumulativeGasUsed": "0x8401ea",
      "logs": [
        {
          "address": "0x270e88f8683660553e8ba4eb2ad7c91a1710d769",
          "topics": [
            "0xddf252ad1be2c89b69c2b068fc378daa952ba7f163c4a11628f55a4df523b3ef",
            "0x000000000000000000000000c77f7fed3b5cc8249adc428c5f44c9063b9734b4",
            "0x0000000000000000000000000000000000000000000000000000000000000000"
          ],
          "data": "0x000000000000000000000000000000000000000000000035783480f69f9213d4",
          "blockHash": "0xc65347ef560c95bb0617b5ab737ae039dd5e86f0b1ed35683a7c3c2dbbd8ef32",
          "blockNumber": "0x725191",
          "transactionHash": "0x3abee719766c2eeb86d4c9708da150d7f0e66d35f9c7bb65b23eb4e0c5fd82cf",
          "transactionIndex": "0x4e",
          "logIndex": "0xb8",
          "removed": false
        },
        {
          "address": "0x270e88f8683660553e8ba4eb2ad7c91a1710d769",
          "topics": [
            "0x4afcb4a87cdbd9974efdb92ee48bc8d7cd0ae4bf217004db3d080cbaee652ca7"
          ],
          "data": "0x000000000000000000000000000000000000000000000000000000006786c4b0000000000000000000000000000000000000000000000000000393ee92aae26f0000000000000000000000000000000000000000000000000dc841e435c70313",
          "blockHash": "0xc65347ef560c95bb0617b5ab737ae039dd5e86f0b1ed35683a7c3c2dbbd8ef32",
          "blockNumber": "0x725191",
          "transactionHash": "0x3abee719766c2eeb86d4c9708da150d7f0e66d35f9c7bb65b23eb4e0c5fd82cf",
          "transactionIndex": "0x4e",
          "logIndex": "0xb9",
          "removed": false
        }
      ],
      "logsBloom": "0x00000000000000000000000000000000000000000000000000000000000000000000000000000000000000000000000020000000000000004000000000000000000000000000000000000008000000000000000000000000000000000000000000000000020000000000000000000800020000000000000000000010000000000000000000010000000000000000000000000000000000000000010000000000000000000000000000000000000000004000000000000000000000000000000000000002000000800000000000000000000000000000080000008000000020000000000000000000000000000000000000000000000000000000000000000000",
      "type": "0x2",
      "transactionHash": "0x3abee719766c2eeb86d4c9708da150d7f0e66d35f9c7bb65b23eb4e0c5fd82cf",
      "transactionIndex": "0x4e",
      "blockHash": "0xc65347ef560c95bb0617b5ab737ae039dd5e86f0b1ed35683a7c3c2dbbd8ef32",
      "blockNumber": "0x725191",
      "gasUsed": "0xfb93",
      "effectiveGasPrice": "0x4bb6c9d15",
      "from": "0xc77f7fed3b5cc8249adc428c5f44c9063b9734b4",
      "to": "0x270e88f8683660553e8ba4eb2ad7c91a1710d769",
      "contractAddress": null
    }
  ],
  "libraries": [],
  "pending": [],
  "returns": {},
  "timestamp": 1736885426,
  "chain": 11155111,
  "commit": "51a374b"
}