{
  "transactions": [
    {
      "hash": "0x59767f393c6cc6a652b6a7479629c8a0d660d009efef8e2af0b5f8b656928ef6",
      "transactionType": "CALL",
      "contractName": null,
      "contractAddress": "0x8aafd3ede9adb0ff97c7aebce82a919afb1c8764",
      "function": "sell(uint256)",
      "arguments": [
        "581457684595"
      ],
      "transaction": {
        "from": "0xc77f7fed3b5cc8249adc428c5f44c9063b9734b4",
        "to": "0x8aafd3ede9adb0ff97c7aebce82a919afb1c8764",
        "gas": "0x1722a",
        "value": "0x0",
        "input": "0xe4849b320000000000000000000000000000000000000000000000000000008761942873",
        "nonce": "0x17a6",
        "chainId": "0xaa36a7"
      },
      "additionalContracts": [],
      "isFixedGasLimit": false
    }
  ],
  "receipts": [
    {
      "status": "0x1",
      "cumulativeGasUsed": "0x161a490",
      "logs": [
        {
          "address": "0x8aafd3ede9adb0ff97c7aebce82a919afb1c8764",
          "topics": [
            "0xddf252ad1be2c89b69c2b068fc378daa952ba7f163c4a11628f55a4df523b3ef",
            "0x000000000000000000000000c77f7fed3b5cc8249adc428c5f44c9063b9734b4",
            "0x0000000000000000000000000000000000000000000000000000000000000000"
          ],
          "data": "0x000000000000000000000000000000000000000000000000000000864c516fcf",
          "blockHash": "0x3bc83644c733202f133dea77d8e75c80a9293863878920af68db8eb6e89ca646",
          "blockNumber": "0x731f86",
          "transactionHash": "0x59767f393c6cc6a652b6a7479629c8a0d660d009efef8e2af0b5f8b656928ef6",
          "transactionIndex": "0x84",
          "logIndex": "0xfa",
          "removed": false
        },
        {
          "address": "0x8aafd3ede9adb0ff97c7aebce82a919afb1c8764",
          "topics": [
            "0xddf252ad1be2c89b69c2b068fc378daa952ba7f163c4a11628f55a4df523b3ef",
            "0x000000000000000000000000c77f7fed3b5cc8249adc428c5f44c9063b9734b4",
            "0x000000000000000000000000c77f7fed3b5cc8249adc428c5f44c9063b9734b4"
          ],
          "data": "0x000000000000000000000000000000000000000000000000000000011542b8a4",
          "blockHash": "0x3bc83644c733202f133dea77d8e75c80a9293863878920af68db8eb6e89ca646",
          "blockNumber": "0x731f86",
          "transactionHash": "0x59767f393c6cc6a652b6a7479629c8a0d660d009efef8e2af0b5f8b656928ef6",
          "transactionIndex": "0x84",
          "logIndex": "0xfb",
          "removed": false
        },
        {
          "address": "0x8aafd3ede9adb0ff97c7aebce82a919afb1c8764",
          "topics": [
            "0x4afcb4a87cdbd9974efdb92ee48bc8d7cd0ae4bf217004db3d080cbaee652ca7"
          ],
          "data": "0x00000000000000000000000000000000000000000000000000000000679077300000000000000000000000000000000000000000000000000018f5008960de4100000000000000000000000000000000000000000000000000000000f376419b",
          "blockHash": "0x3bc83644c733202f133dea77d8e75c80a9293863878920af68db8eb6e89ca646",
          "blockNumber": "0x731f86",
          "transactionHash": "0x59767f393c6cc6a652b6a7479629c8a0d660d009efef8e2af0b5f8b656928ef6",
          "transactionIndex": "0x84",
          "logIndex": "0xfc",
          "removed": false
        }
      ],
      "logsBloom": "0x00000000000000000000000000000000000000000600000000000000000000000000000000000000000000000000000000000000000000004000000000000000000000000000004000000008000000000000000000000000000000000000000000000000020000000000000000000800020000000000000000000010000000000000000000000000000000000000000000000000000000000000010000000000000000000000000000000000000000004000000000000000000000000000000000000002000000800000000000000000000000000000080000000000000020000000000000000000000000000000000000000000000000000000000000000000",
      "type": "0x2",
      "transactionHash": "0x59767f393c6cc6a652b6a7479629c8a0d660d009efef8e2af0b5f8b656928ef6",
      "transactionIndex": "0x84",
      "blockHash": "0x3bc83644c733202f133dea77d8e75c80a9293863878920af68db8eb6e89ca646",
      "blockNumber": "0x731f86",
      "gasUsed": "0xfd1b",
      "effectiveGasPrice": "0x3eb0b442",
      "from": "0xc77f7fed3b5cc8249adc428c5f44c9063b9734b4",
      "to": "0x8aafd3ede9adb0ff97c7aebce82a919afb1c8764",
      "contractAddress": null
    }
  ],
  "libraries": [],
  "pending": [],
  "returns": {},
  "timestamp": 1737520947,
  "chain": 11155111,
  "commit": "1d2fb70"
}