{
  "transactions": [
    {
      "hash": "0x60587d8eb09d90590c8a767a69448428daa3ea3257cfec926cac394815702936",
      "transactionType": "CALL",
      "contractName": null,
      "contractAddress": "0x8aafd3ede9adb0ff97c7aebce82a919afb1c8764",
      "function": "sell(uint256)",
      "arguments": [
        "663138427865845797176"
      ],
      "transaction": {
        "from": "0xc77f7fed3b5cc8249adc428c5f44c9063b9734b4",
        "to": "0x8aafd3ede9adb0ff97c7aebce82a919afb1c8764",
        "gas": "0x17270",
        "value": "0x0",
        "input": "0xe4849b32000000000000000000000000000000000000000000000023f2e4f6af9ebd1138",
        "nonce": "0x12e9",
        "chainId": "0xaa36a7"
      },
      "additionalContracts": [],
      "isFixedGasLimit": false
    }
  ],
  "receipts": [
    {
      "status": "0x1",
      "cumulativeGasUsed": "0x2159fe0",
      "logs": [
        {
          "address": "0x8aafd3ede9adb0ff97c7aebce82a919afb1c8764",
          "topics": [
            "0xddf252ad1be2c89b69c2b068fc378daa952ba7f163c4a11628f55a4df523b3ef",
            "0x000000000000000000000000c77f7fed3b5cc8249adc428c5f44c9063b9734b4",
            "0x0000000000000000000000000000000000000000000000000000000000000000"
          ],
          "data": "0x000000000000000000000000000000000000000000000023a9456f97afe6900f",
          "blockHash": "0x50e9bfde95ecb4cda41e5d266de5451d6b95987c9b7a0f6e965b7290b97585d9",
          "blockNumber": "0x7319ed",
          "transactionHash": "0x60587d8eb09d90590c8a767a69448428daa3ea3257cfec926cac394815702936",
          "transactionIndex": "0x55",
          "logIndex": "0x10fd",
          "removed": false
        },
        {
          "address": "0x8aafd3ede9adb0ff97c7aebce82a919afb1c8764",
          "topics": [
            "0xddf252ad1be2c89b69c2b068fc378daa952ba7f163c4a11628f55a4df523b3ef",
            "0x000000000000000000000000c77f7fed3b5cc8249adc428c5f44c9063b9734b4",
            "0x000000000000000000000000c77f7fed3b5cc8249adc428c5f44c9063b9734b4"
          ],
          "data": "0x000000000000000000000000000000000000000000000000499f8717eed68129",
          "blockHash": "0x50e9bfde95ecb4cda41e5d266de5451d6b95987c9b7a0f6e965b7290b97585d9",
          "blockNumber": "0x7319ed",
          "transactionHash": "0x60587d8eb09d90590c8a767a69448428daa3ea3257cfec926cac394815702936",
          "transactionIndex": "0x55",
          "logIndex": "0x10fe",
          "removed": false
        },
        {
          "address": "0x8aafd3ede9adb0ff97c7aebce82a919afb1c8764",
          "topics": [
            "0x4afcb4a87cdbd9974efdb92ee48bc8d7cd0ae4bf217004db3d080cbaee652ca7"
          ],
          "data": "0x00000000000000000000000000000000000000000000000000000000679033ec000000000000000000000000000000000000000000000000000553596ad39d7b0000000000000000000000000000000000000000000000000dc8eb336f68441b",
          "blockHash": "0x50e9bfde95ecb4cda41e5d266de5451d6b95987c9b7a0f6e965b7290b97585d9",
          "blockNumber": "0x7319ed",
          "transactionHash": "0x60587d8eb09d90590c8a767a69448428daa3ea3257cfec926cac394815702936",
          "transactionIndex": "0x55",
          "logIndex": "0x10ff",
          "removed": false
        }
      ],
      "logsBloom": "0x00000000000000000000000000000000000000000600000000000000000000000000000000000000000000000000000000000000000000004000000000000000000000000000004000000008000000000000000000000000000000000000000000000000020000000000000000000800020000000000000000000010000000000000000000000000000000000000000000000000000000000000010000000000000000000000000000000000000000004000000000000000000000000000000000000002000000800000000000000000000000000000080000000000000020000000000000000000000000000000000000000000000000000000000000000000",
      "type": "0x2",
      "transactionHash": "0x60587d8eb09d90590c8a767a69448428daa3ea3257cfec926cac394815702936",
      "transactionIndex": "0x55",
      "blockHash": "0x50e9bfde95ecb4cda41e5d266de5451d6b95987c9b7a0f6e965b7290b97585d9",
      "blockNumber": "0x7319ed",
      "gasUsed": "0xfd4b",
      "effectiveGasPrice": "0x3dc404b6",
      "from": "0xc77f7fed3b5cc8249adc428c5f44c9063b9734b4",
      "to": "0x8aafd3ede9adb0ff97c7aebce82a919afb1c8764",
      "contractAddress": null
    }
  ],
  "libraries": [],
  "pending": [],
  "returns": {},
  "timestamp": 1737503725,
  "chain": 11155111,
  "commit": "1d2fb70"
}