{
  "transactions": [
    {
      "hash": "0x58d8ea7e9613215c63c4177a404a006f83ea4d3e835d40d41c84317479ae7389",
      "transactionType": "CALL",
      "contractName": null,
      "contractAddress": "0x270e88f8683660553e8ba4eb2ad7c91a1710d769",
      "function": "sell(uint256)",
      "arguments": [
        "756451155303679242856"
      ],
      "transaction": {
        "from": "0xc77f7fed3b5cc8249adc428c5f44c9063b9734b4",
        "to": "0x270e88f8683660553e8ba4eb2ad7c91a1710d769",
        "gas": "0x16fec",
        "value": "0x0",
        "input": "0xe4849b3200000000000000000000000000000000000000000000002901de5de611a5b268",
        "nonce": "0x686",
        "chainId": "0xaa36a7"
      },
      "additionalContracts": [],
      "isFixedGasLimit": false
    }
  ],
  "receipts": [
    {
      "status": "0x1",
      "cumulativeGasUsed": "0xdff803",
      "logs": [
        {
          "address": "0x270e88f8683660553e8ba4eb2ad7c91a1710d769",
          "topics": [
            "0xddf252ad1be2c89b69c2b068fc378daa952ba7f163c4a11628f55a4df523b3ef",
            "0x000000000000000000000000c77f7fed3b5cc8249adc428c5f44c9063b9734b4",
            "0x0000000000000000000000000000000000000000000000000000000000000000"
          ],
          "data": "0x00000000000000000000000000000000000000000000002901de5de611a5b268",
          "blockHash": "0x5820411fdbb8e4a28ae95d6a56629c25cb42c8002f34341eb2d4d311563d9af5",
          "blockNumber": "0x725387",
          "transactionHash": "0x58d8ea7e9613215c63c4177a404a006f83ea4d3e835d40d41c84317479ae7389",
          "transactionIndex": "0x60",
          "logIndex": "0x9d",
          "removed": false
        },
        {
          "address": "0x270e88f8683660553e8ba4eb2ad7c91a1710d769",
          "topics": [
            "0x4afcb4a87cdbd9974efdb92ee48bc8d7cd0ae4bf217004db3d080cbaee652ca7"
          ],
          "data": "0x000000000000000000000000000000000000000000000000000000006786dc5c0000000000000000000000000000000000000000000000000004aa32b78ef6c20000000000000000000000000000000000000000000000000dc82a33b811235a",
          "blockHash": "0x5820411fdbb8e4a28ae95d6a56629c25cb42c8002f34341eb2d4d311563d9af5",
          "blockNumber": "0x725387",
          "transactionHash": "0x58d8ea7e9613215c63c4177a404a006f83ea4d3e835d40d41c84317479ae7389",
          "transactionIndex": "0x60",
          "logIndex": "0x9e",
          "removed": false
        }
      ],
      "logsBloom": "0x00000000000000000000000000000000000000000000000000000000000000000000000000000000000000000000000020000000000000004000000000000000000000000000000000000008000000000000000000000000000000000000000000000000020000000000000000000800020000000000000000000010000000000000000000010000000000000000000000000000000000000000010000000000000000000000000000000000000000004000000000000000000000000000000000000002000000800000000000000000000000000000080000008000000020000000000000000000000000000000000000000000000000000000000000000000",
      "type": "0x2",
      "transactionHash": "0x58d8ea7e9613215c63c4177a404a006f83ea4d3e835d40d41c84317479ae7389",
      "transactionIndex": "0x60",
      "blockHash": "0x5820411fdbb8e4a28ae95d6a56629c25cb42c8002f34341eb2d4d311563d9af5",
      "blockNumber": "0x725387",
      "gasUsed": "0xfb93",
      "effectiveGasPrice": "0x20f54a163",
      "from": "0xc77f7fed3b5cc8249adc428c5f44c9063b9734b4",
      "to": "0x270e88f8683660553e8ba4eb2ad7c91a1710d769",
      "contractAddress": null
    }
  ],
  "libraries": [],
  "pending": [],
  "returns": {},
  "timestamp": 1736891485,
  "chain": 11155111,
  "commit": "51a374b"
}