{
  "transactions": [
    {
      "hash": "0x27fb6d0988eb8eeb2b15af1f0e8306ddb917647ad4eb9d54781dfffaf847237b",
      "transactionType": "CALL",
      "contractName": null,
      "contractAddress": "0x5eb9cc76c3506942c1c0ead70e877dd5e4f00cb0",
      "function": "buy(address)",
      "arguments": [
        "0xC77f7fed3b5Cc8249aDc428c5F44C9063B9734b4"
      ],
      "transaction": {
        "from": "0xc77f7fed3b5cc8249adc428c5f44c9063b9734b4",
        "to": "0x5eb9cc76c3506942c1c0ead70e877dd5e4f00cb0",
        "gas": "0x156c8",
        "value": "0xde0b6b3a7640000",
        "input": "0xf088d547000000000000000000000000c77f7fed3b5cc8249adc428c5f44c9063b9734b4",
        "nonce": "0x1d6",
        "chainId": "0xaa36a7"
      },
      "additionalContracts": [],
      "isFixedGasLimit": false
    }
  ],
  "receipts": [
    {
      "status": "0x1",
      "cumulativeGasUsed": "0xaf926e",
      "logs": [
        {
          "address": "0x5eb9cc76c3506942c1c0ead70e877dd5e4f00cb0",
          "topics": [
            "0xddf252ad1be2c89b69c2b068fc378daa952ba7f163c4a11628f55a4df523b3ef",
            "0x0000000000000000000000000000000000000000000000000000000000000000",
            "0x000000000000000000000000c77f7fed3b5cc8249adc428c5f44c9063b9734b4"
          ],
          "data": "0x000000000000000000000000000000000000000000000035a3630a58b1420b8a",
          "blockHash": "0xace071885ce421d94edecfd363b3b8504e7a9f625936a4d04195d34b8f4d26a5",
          "blockNumber": "0x723cc6",
          "transactionHash": "0x27fb6d0988eb8eeb2b15af1f0e8306ddb917647ad4eb9d54781dfffaf847237b",
          "transactionIndex": "0x5d",
          "logIndex": "0xa0",
          "removed": false
        },
        {
          "address": "0x5eb9cc76c3506942c1c0ead70e877dd5e4f00cb0",
          "topics": [
            "0xddf252ad1be2c89b69c2b068fc378daa952ba7f163c4a11628f55a4df523b3ef",
            "0x0000000000000000000000000000000000000000000000000000000000000000",
            "0x000000000000000000000000c77f7fed3b5cc8249adc428c5f44c9063b9734b4"
          ],
          "data": "0x00000000000000000000000000000000000000000000000029a6e3e9bfe229fb",
          "blockHash": "0xace071885ce421d94edecfd363b3b8504e7a9f625936a4d04195d34b8f4d26a5",
          "blockNumber": "0x723cc6",
          "transactionHash": "0x27fb6d0988eb8eeb2b15af1f0e8306ddb917647ad4eb9d54781dfffaf847237b",
          "transactionIndex": "0x5d",
          "logIndex": "0xa1",
          "removed": false
        },
        {
          "address": "0x5eb9cc76c3506942c1c0ead70e877dd5e4f00cb0",
          "topics": [
            "0x4afcb4a87cdbd9974efdb92ee48bc8d7cd0ae4bf217004db3d080cbaee652ca7"
          ],
          "data": "0x000000000000000000000000000000000000000000000000000000006785ca9c00000000000000000000000000000000000000000000000000038dffed8e17640000000000000000000000000000000000000000000000000de0b6b3a7640000",
          "blockHash": "0xace071885ce421d94edecfd363b3b8504e7a9f625936a4d04195d34b8f4d26a5",
          "blockNumber": "0x723cc6",
          "transactionHash": "0x27fb6d0988eb8eeb2b15af1f0e8306ddb917647ad4eb9d54781dfffaf847237b",
          "transactionIndex": "0x5d",
          "logIndex": "0xa2",
          "removed": false
        }
      ],
      "logsBloom": "0x00000000000000000000000000000000000000000000000000000000000000000000000000000000000000000000000000000000000000004000000000000000000000000000000000000008000000000000000000000000000000000000000000000000020000000000000004000800020000000000000000000010000000000000000000000000000000000000000000000000000000000000010000000000000000000000000000000000000000004000000000000000000000000000020000000002000000800000008000000000000000000000080000000000000020000000000000000000000000000000000000000000000000000000000000000000",
      "type": "0x2",
      "transactionHash": "0x27fb6d0988eb8eeb2b15af1f0e8306ddb917647ad4eb9d54781dfffaf847237b",
      "transactionIndex": "0x5d",
      "blockHash": "0xace071885ce421d94edecfd363b3b8504e7a9f625936a4d04195d34b8f4d26a5",
      "blockNumber": "0x723cc6",
      "gasUsed": "0xf82c",
      "effectiveGasPrice": "0x1f9cb83b9",
      "from": "0xc77f7fed3b5cc8249adc428c5f44c9063b9734b4",
      "to": "0x5eb9cc76c3506942c1c0ead70e877dd5e4f00cb0",
      "contractAddress": null
    }
  ],
  "libraries": [],
  "pending": [],
  "returns": {},
  "timestamp": 1736821405,
  "chain": 11155111,
  "commit": "51a374b"
}