{
  "transactions": [
    {
      "hash": "0x4c99e4967db6032c4530588d7e96bb4756bdb3d4c6f859076980e86b528a5d18",
      "transactionType": "CALL",
      "contractName": null,
      "contractAddress": "0x8aafd3ede9adb0ff97c7aebce82a919afb1c8764",
      "function": "sell(uint256)",
      "arguments": [
        "24346087877"
      ],
      "transaction": {
        "from": "0xc77f7fed3b5cc8249adc428c5f44c9063b9734b4",
        "to": "0x8aafd3ede9adb0ff97c7aebce82a919afb1c8764",
        "gas": "0x1722a",
        "value": "0x0",
        "input": "0xe4849b3200000000000000000000000000000000000000000000000000000005ab23d1c5",
        "nonce": "0xf3a",
        "chainId": "0xaa36a7"
      },
      "additionalContracts": [],
      "isFixedGasLimit": false
    }
  ],
  "receipts": [
    {
      "status": "0x1",
      "cumulativeGasUsed": "0x1062884",
      "logs": [
        {
          "address": "0x8aafd3ede9adb0ff97c7aebce82a919afb1c8764",
          "topics": [
            "0xddf252ad1be2c89b69c2b068fc378daa952ba7f163c4a11628f55a4df523b3ef",
            "0x000000000000000000000000c77f7fed3b5cc8249adc428c5f44c9063b9734b4",
            "0x0000000000000000000000000000000000000000000000000000000000000000"
          ],
          "data": "0x000000000000000000000000000000000000000000000000000000059f87e286",
          "blockHash": "0xee43c2b1b486cfebac72720c9b491ced07ee97436c4bd7c611f8bd869f9ea7f8",
          "blockNumber": "0x731594",
          "transactionHash": "0x4c99e4967db6032c4530588d7e96bb4756bdb3d4c6f859076980e86b528a5d18",
          "transactionIndex": "0x9c",
          "logIndex": "0xfd",
          "removed": false
        },
        {
          "address": "0x8aafd3ede9adb0ff97c7aebce82a919afb1c8764",
          "topics": [
            "0xddf252ad1be2c89b69c2b068fc378daa952ba7f163c4a11628f55a4df523b3ef",
            "0x000000000000000000000000c77f7fed3b5cc8249adc428c5f44c9063b9734b4",
            "0x000000000000000000000000c77f7fed3b5cc8249adc428c5f44c9063b9734b4"
          ],
          "data": "0x000000000000000000000000000000000000000000000000000000000b9bef3f",
          "blockHash": "0xee43c2b1b486cfebac72720c9b491ced07ee97436c4bd7c611f8bd869f9ea7f8",
          "blockNumber": "0x731594",
          "transactionHash": "0x4c99e4967db6032c4530588d7e96bb4756bdb3d4c6f859076980e86b528a5d18",
          "transactionIndex": "0x9c",
          "logIndex": "0xfe",
          "removed": false
        },
        {
          "address": "0x8aafd3ede9adb0ff97c7aebce82a919afb1c8764",
          "topics": [
            "0x4afcb4a87cdbd9974efdb92ee48bc8d7cd0ae4bf217004db3d080cbaee652ca7"
          ],
          "data": "0x00000000000000000000000000000000000000000000000000000000678fff9c0000000000000000000000000000000000000000000000000004bfdfc8ad5b5a0000000000000000000000000000000000000000000000000000000001f0a2ac",
          "blockHash": "0xee43c2b1b486cfebac72720c9b491ced07ee97436c4bd7c611f8bd869f9ea7f8",
          "blockNumber": "0x731594",
          "transactionHash": "0x4c99e4967db6032c4530588d7e96bb4756bdb3d4c6f859076980e86b528a5d18",
          "transactionIndex": "0x9c",
          "logIndex": "0xff",
          "removed": false
        }
      ],
      "logsBloom": "0x00000000000000000000000000000000000000000600000000000000000000000000000000000000000000000000000000000000000000004000000000000000000000000000004000000008000000000000000000000000000000000000000000000000020000000000000000000800020000000000000000000010000000000000000000000000000000000000000000000000000000000000010000000000000000000000000000000000000000004000000000000000000000000000000000000002000000800000000000000000000000000000080000000000000020000000000000000000000000000000000000000000000000000000000000000000",
      "type": "0x2",
      "transactionHash": "0x4c99e4967db6032c4530588d7e96bb4756bdb3d4c6f859076980e86b528a5d18",
      "transactionIndex": "0x9c",
      "blockHash": "0xee43c2b1b486cfebac72720c9b491ced07ee97436c4bd7c611f8bd869f9ea7f8",
      "blockNumber": "0x731594",
      "gasUsed": "0xfd1b",
      "effectiveGasPrice": "0x5fa4abec",
      "from": "0xc77f7fed3b5cc8249adc428c5f44c9063b9734b4",
      "to": "0x8aafd3ede9adb0ff97c7aebce82a919afb1c8764",
      "contractAddress": null
    }
  ],
  "libraries": [],
  "pending": [],
  "returns": {},
  "timestamp": 1737490334,
  "chain": 11155111,
  "commit": "1d2fb70"
}