{
  "transactions": [
    {
      "hash": "0x653bf2d9594228191525e8e7ffccd00f4c88022f6855e0fd1ad45185f88a441b",
      "transactionType": "CALL",
      "contractName": null,
      "contractAddress": "0x5eb9cc76c3506942c1c0ead70e877dd5e4f00cb0",
      "function": "buy(address)",
      "arguments": [
        "0xC77f7fed3b5Cc8249aDc428c5F44C9063B9734b4"
      ],
      "transaction": {
        "from": "0xc77f7fed3b5cc8249adc428c5f44c9063b9734b4",
        "to": "0x5eb9cc76c3506942c1c0ead70e877dd5e4f00cb0",
        "gas": "0x156c8",
        "value": "0xde0b6b3a7640000",
        "input": "0xf088d547000000000000000000000000c77f7fed3b5cc8249adc428c5f44c9063b9734b4",
        "nonce": "0x161",
        "chainId": "0xaa36a7"
      },
      "additionalContracts": [],
      "isFixedGasLimit": false
    }
  ],
  "receipts": [
    {
      "status": "0x1",
      "cumulativeGasUsed": "0x21c9df3",
      "logs": [
        {
          "address": "0x5eb9cc76c3506942c1c0ead70e877dd5e4f00cb0",
          "topics": [
            "0xddf252ad1be2c89b69c2b068fc378daa952ba7f163c4a11628f55a4df523b3ef",
            "0x0000000000000000000000000000000000000000000000000000000000000000",
            "0x000000000000000000000000c77f7fed3b5cc8249adc428c5f44c9063b9734b4"
          ],
          "data": "0x000000000000000000000000000000000000000000000035a6dbbbe20d8d0293",
          "blockHash": "0xe9ae153121c0436b1277d06c948e4a8238055b9d4748b47734b06471100e0cb3",
          "blockNumber": "0x723c1b",
          "transactionHash": "0x653bf2d9594228191525e8e7ffccd00f4c88022f6855e0fd1ad45185f88a441b",
          "transactionIndex": "0xea",
          "logIndex": "0x1d4",
          "removed": false
        },
        {
          "address": "0x5eb9cc76c3506942c1c0ead70e877dd5e4f00cb0",
          "topics": [
            "0xddf252ad1be2c89b69c2b068fc378daa952ba7f163c4a11628f55a4df523b3ef",
            "0x0000000000000000000000000000000000000000000000000000000000000000",
            "0x000000000000000000000000c77f7fed3b5cc8249adc428c5f44c9063b9734b4"
          ],
          "data": "0x00000000000000000000000000000000000000000000000029a996038f1227ef",
          "blockHash": "0xe9ae153121c0436b1277d06c948e4a8238055b9d4748b47734b06471100e0cb3",
          "blockNumber": "0x723c1b",
          "transactionHash": "0x653bf2d9594228191525e8e7ffccd00f4c88022f6855e0fd1ad45185f88a441b",
          "transactionIndex": "0xea",
          "logIndex": "0x1d5",
          "removed": false
        },
        {
          "address": "0x5eb9cc76c3506942c1c0ead70e877dd5e4f00cb0",
          "topics": [
            "0x4afcb4a87cdbd9974efdb92ee48bc8d7cd0ae4bf217004db3d080cbaee652ca7"
          ],
          "data": "0x000000000000000000000000000000000000000000000000000000006785c29800000000000000000000000000000000000000000000000000038dc50c03848f0000000000000000000000000000000000000000000000000de0b6b3a7640000",
          "blockHash": "0xe9ae153121c0436b1277d06c948e4a8238055b9d4748b47734b06471100e0cb3",
          "blockNumber": "0x723c1b",
          "transactionHash": "0x653bf2d9594228191525e8e7ffccd00f4c88022f6855e0fd1ad45185f88a441b",
          "transactionIndex": "0xea",
          "logIndex": "0x1d6",
          "removed": false
        }
      ],
      "logsBloom": "0x00000000000000000000000000000000000000000000000000000000000000000000000000000000000000000000000000000000000000004000000000000000000000000000000000000008000000000000000000000000000000000000000000000000020000000000000004000800020000000000000000000010000000000000000000000000000000000000000000000000000000000000010000000000000000000000000000000000000000004000000000000000000000000000020000000002000000800000008000000000000000000000080000000000000020000000000000000000000000000000000000000000000000000000000000000000",
      "type": "0x2",
      "transactionHash": "0x653bf2d9594228191525e8e7ffccd00f4c88022f6855e0fd1ad45185f88a441b",
      "transactionIndex": "0xea",
      "blockHash": "0xe9ae153121c0436b1277d06c948e4a8238055b9d4748b47734b06471100e0cb3",
      "blockNumber": "0x723c1b",
      "gasUsed": "0xf82c",
      "effectiveGasPrice": "0x1e90042fb",
      "from": "0xc77f7fed3b5cc8249adc428c5f44c9063b9734b4",
      "to": "0x5eb9cc76c3506942c1c0ead70e877dd5e4f00cb0",
      "contractAddress": null
    }
  ],
  "libraries": [],
  "pending": [],
  "returns": {},
  "timestamp": 1736819354,
  "chain": 11155111,
  "commit": "51a374b"
}