{
  "transactions": [
    {
      "hash": "0x1dbd57a6b1307ac3b66acce968419e51d9c239205e4efabe736794ec40ca90f9",
      "transactionType": "CALL",
      "contractName": null,
      "contractAddress": "0x5eb9cc76c3506942c1c0ead70e877dd5e4f00cb0",
      "function": "sell(uint256)",
      "arguments": [
        "989148444865568473667"
      ],
      "transaction": {
        "from": "0xc77f7fed3b5cc8249adc428c5f44c9063b9734b4",
        "to": "0x5eb9cc76c3506942c1c0ead70e877dd5e4f00cb0",
        "gas": "0x16fec",
        "value": "0x0",
        "input": "0xe4849b320000000000000000000000000000000000000000000000359f3135df46448243",
        "nonce": "0x2d1",
        "chainId": "0xaa36a7"
      },
      "additionalContracts": [],
      "isFixedGasLimit": false
    }
  ],
  "receipts": [
    {
      "status": "0x1",
      "cumulativeGasUsed": "0xd07c18",
      "logs": [
        {
          "address": "0x5eb9cc76c3506942c1c0ead70e877dd5e4f00cb0",
          "topics": [
            "0xddf252ad1be2c89b69c2b068fc378daa952ba7f163c4a11628f55a4df523b3ef",
            "0x000000000000000000000000c77f7fed3b5cc8249adc428c5f44c9063b9734b4",
            "0x0000000000000000000000000000000000000000000000000000000000000000"
          ],
          "data": "0x0000000000000000000000000000000000000000000000359f3135df46448243",
          "blockHash": "0x1edae6a482af39b040ec2336b404bb1269e007c7504b6f040d2826e88041d15e",
          "blockNumber": "0x724ead",
          "transactionHash": "0x1dbd57a6b1307ac3b66acce968419e51d9c239205e4efabe736794ec40ca90f9",
          "transactionIndex": "0x61",
          "logIndex": "0xa5",
          "removed": false
        },
        {
          "address": "0x5eb9cc76c3506942c1c0ead70e877dd5e4f00cb0",
          "topics": [
            "0x4afcb4a87cdbd9974efdb92ee48bc8d7cd0ae4bf217004db3d080cbaee652ca7"
          ],
          "data": "0x000000000000000000000000000000000000000000000000000000006786a1d00000000000000000000000000000000000000000000000000003910a061de85a0000000000000000000000000000000000000000000000000dc7db13323da64d",
          "blockHash": "0x1edae6a482af39b040ec2336b404bb1269e007c7504b6f040d2826e88041d15e",
          "blockNumber": "0x724ead",
          "transactionHash": "0x1dbd57a6b1307ac3b66acce968419e51d9c239205e4efabe736794ec40ca90f9",
          "transactionIndex": "0x61",
          "logIndex": "0xa6",
          "removed": false
        }
      ],
      "logsBloom": "0x00000000000000000000000000000000000000000000000000000000000000000000000000000000000000000000000000000000000000004000000000000000000000000000000000000008000000000000000000000000000000000000000000000000020000000000000004000800020000000000000000000010000000000000000000000000000000000000000000000000000000000000010000000000000000000000000000000000000000004000000000000000000000000000020000000002000000800000008000000000000000000000080000000000000020000000000000000000000000000000000000000000000000000000000000000000",
      "type": "0x2",
      "transactionHash": "0x1dbd57a6b1307ac3b66acce968419e51d9c239205e4efabe736794ec40ca90f9",
      "transactionIndex": "0x61",
      "blockHash": "0x1edae6a482af39b040ec2336b404bb1269e007c7504b6f040d2826e88041d15e",
      "blockNumber": "0x724ead",
      "gasUsed": "0xfb93",
      "effectiveGasPrice": "0x46be315e3",
      "from": "0xc77f7fed3b5cc8249adc428c5f44c9063b9734b4",
      "to": "0x5eb9cc76c3506942c1c0ead70e877dd5e4f00cb0",
      "contractAddress": null
    }
  ],
  "libraries": [],
  "pending": [],
  "returns": {},
  "timestamp": 1736876498,
  "chain": 11155111,
  "commit": "51a374b"
}