{
  "transactions": [
    {
      "hash": "0x4f9b6b3e75ad00968e5a2c93a7e7655a2df841774c2e3d8c8a503534d2f4dfbb",
      "transactionType": "CALL",
      "contractName": null,
      "contractAddress": "0x8aafd3ede9adb0ff97c7aebce82a919afb1c8764",
      "function": "sell(uint256)",
      "arguments": [
        "10209827984269606"
      ],
      "transaction": {
        "from": "0xc77f7fed3b5cc8249adc428c5f44c9063b9734b4",
        "to": "0x8aafd3ede9adb0ff97c7aebce82a919afb1c8764",
        "gas": "0x1724d",
        "value": "0x0",
        "input": "0xe4849b32000000000000000000000000000000000000000000000000002445c8d2386126",
        "nonce": "0x16ba",
        "chainId": "0xaa36a7"
      },
      "additionalContracts": [],
      "isFixedGasLimit": false
    }
  ],
  "receipts": [
    {
      "status": "0x1",
      "cumulativeGasUsed": "0xb3c23d",
      "logs": [
        {
          "address": "0x8aafd3ede9adb0ff97c7aebce82a919afb1c8764",
          "topics": [
            "0xddf252ad1be2c89b69c2b068fc378daa952ba7f163c4a11628f55a4df523b3ef",
            "0x000000000000000000000000c77f7fed3b5cc8249adc428c5f44c9063b9734b4",
            "0x0000000000000000000000000000000000000000000000000000000000000000"
          ],
          "data": "0x0000000000000000000000000000000000000000000000000023fb7f88dbc4ba",
          "blockHash": "0x7691b3966995d5274bf637f36eddbb36e70aa67cd736c984606eb342aca98bd4",
          "blockNumber": "0x731e73",
          "transactionHash": "0x4f9b6b3e75ad00968e5a2c93a7e7655a2df841774c2e3d8c8a503534d2f4dfbb",
          "transactionIndex": "0x5a",
          "logIndex": "0xc9",
          "removed": false
        },
        {
          "address": "0x8aafd3ede9adb0ff97c7aebce82a919afb1c8764",
          "topics": [
            "0xddf252ad1be2c89b69c2b068fc378daa952ba7f163c4a11628f55a4df523b3ef",
            "0x000000000000000000000000c77f7fed3b5cc8249adc428c5f44c9063b9734b4",
            "0x000000000000000000000000c77f7fed3b5cc8249adc428c5f44c9063b9734b4"
          ],
          "data": "0x00000000000000000000000000000000000000000000000000004a49495c9c6c",
          "blockHash": "0x7691b3966995d5274bf637f36eddbb36e70aa67cd736c984606eb342aca98bd4",
          "blockNumber": "0x731e73",
          "transactionHash": "0x4f9b6b3e75ad00968e5a2c93a7e7655a2df841774c2e3d8c8a503534d2f4dfbb",
          "transactionIndex": "0x5a",
          "logIndex": "0xca",
          "removed": false
        },
        {
          "address": "0x8aafd3ede9adb0ff97c7aebce82a919afb1c8764",
          "topics": [
            "0x4afcb4a87cdbd9974efdb92ee48bc8d7cd0ae4bf217004db3d080cbaee652ca7"
          ],
          "data": "0x0000000000000000000000000000000000000000000000000000000067906a4c000000000000000000000000000000000000000000000000001638227dcc29e300000000000000000000000000000000000000000000000000003a132a4b32a5",
          "blockHash": "0x7691b3966995d5274bf637f36eddbb36e70aa67cd736c984606eb342aca98bd4",
          "blockNumber": "0x731e73",
          "transactionHash": "0x4f9b6b3e75ad00968e5a2c93a7e7655a2df841774c2e3d8c8a503534d2f4dfbb",
          "transactionIndex": "0x5a",
          "logIndex": "0xcb",
          "removed": false
        }
      ],
      "logsBloom": "0x00000000000000000000000000000000000000000600000000000000000000000000000000000000000000000000000000000000000000004000000000000000000000000000004000000008000000000000000000000000000000000000000000000000020000000000000000000800020000000000000000000010000000000000000000000000000000000000000000000000000000000000010000000000000000000000000000000000000000004000000000000000000000000000000000000002000000800000000000000000000000000000080000000000000020000000000000000000000000000000000000000000000000000000000000000000",
      "type": "0x2",
      "transactionHash": "0x4f9b6b3e75ad00968e5a2c93a7e7655a2df841774c2e3d8c8a503534d2f4dfbb",
      "transactionIndex": "0x5a",
      "blockHash": "0x7691b3966995d5274bf637f36eddbb36e70aa67cd736c984606eb342aca98bd4",
      "blockNumber": "0x731e73",
      "gasUsed": "0xfd33",
      "effectiveGasPrice": "0x44b48dba",
      "from": "0xc77f7fed3b5cc8249adc428c5f44c9063b9734b4",
      "to": "0x8aafd3ede9adb0ff97c7aebce82a919afb1c8764",
      "contractAddress": null
    }
  ],
  "libraries": [],
  "pending": [],
  "returns": {},
  "timestamp": 1737517645,
  "chain": 11155111,
  "commit": "1d2fb70"
}