{
  "transactions": [
    {
      "hash": "0x0bb020bc9022ed516237793a0c2ccfbf30c03b24702572a3300a8622473a230c",
      "transactionType": "CALL",
      "contractName": null,
      "contractAddress": "0x5eb9cc76c3506942c1c0ead70e877dd5e4f00cb0",
      "function": "buy(address)",
      "arguments": [
        "0xC77f7fed3b5Cc8249aDc428c5F44C9063B9734b4"
      ],
      "transaction": {
        "from": "0xc77f7fed3b5cc8249adc428c5f44c9063b9734b4",
        "to": "0x5eb9cc76c3506942c1c0ead70e877dd5e4f00cb0",
        "gas": "0x1b30c",
        "value": "0xde0b6b3a7640000",
        "input": "0xf088d547000000000000000000000000c77f7fed3b5cc8249adc428c5f44c9063b9734b4",
        "nonce": "0x3c6",
        "chainId": "0xaa36a7"
      },
      "additionalContracts": [],
      "isFixedGasLimit": false
    }
  ],
  "receipts": [
    {
      "status": "0x1",
      "cumulativeGasUsed": "0x8b59ce",
      "logs": [
        {
          "address": "0x5eb9cc76c3506942c1c0ead70e877dd5e4f00cb0",
          "topics": [
            "0xddf252ad1be2c89b69c2b068fc378daa952ba7f163c4a11628f55a4df523b3ef",
            "0x0000000000000000000000000000000000000000000000000000000000000000",
            "0x000000000000000000000000c77f7fed3b5cc8249adc428c5f44c9063b9734b4"
          ],
          "data": "0x0000000000000000000000000000000000000000000000357522f513e939446c",
          "blockHash": "0xb1ed9584f514eeb4e18e1471511f1f845b1b042106442988137f379cc11b36fc",
          "blockNumber": "0x724fc6",
          "transactionHash": "0x0bb020bc9022ed516237793a0c2ccfbf30c03b24702572a3300a8622473a230c",
          "transactionIndex": "0x36",
          "logIndex": "0x5e",
          "removed": false
        },
        {
          "address": "0x5eb9cc76c3506942c1c0ead70e877dd5e4f00cb0",
          "topics": [
            "0xddf252ad1be2c89b69c2b068fc378daa952ba7f163c4a11628f55a4df523b3ef",
            "0x0000000000000000000000000000000000000000000000000000000000000000",
            "0x000000000000000000000000c77f7fed3b5cc8249adc428c5f44c9063b9734b4"
          ],
          "data": "0x0000000000000000000000000000000000000000000000002982f9af490aa62f",
          "blockHash": "0xb1ed9584f514eeb4e18e1471511f1f845b1b042106442988137f379cc11b36fc",
          "blockNumber": "0x724fc6",
          "transactionHash": "0x0bb020bc9022ed516237793a0c2ccfbf30c03b24702572a3300a8622473a230c",
          "transactionIndex": "0x36",
          "logIndex": "0x5f",
          "removed": false
        },
        {
          "address": "0x5eb9cc76c3506942c1c0ead70e877dd5e4f00cb0",
          "topics": [
            "0x4afcb4a87cdbd9974efdb92ee48bc8d7cd0ae4bf217004db3d080cbaee652ca7"
          ],
          "data": "0x000000000000000000000000000000000000000000000000000000006786af14000000000000000000000000000000000000000000000000000391133d69f57b0000000000000000000000000000000000000000000000000de0b6b3a7640000",
          "blockHash": "0xb1ed9584f514eeb4e18e1471511f1f845b1b042106442988137f379cc11b36fc",
          "blockNumber": "0x724fc6",
          "transactionHash": "0x0bb020bc9022ed516237793a0c2ccfbf30c03b24702572a3300a8622473a230c",
          "transactionIndex": "0x36",
          "logIndex": "0x60",
          "removed": false
        }
      ],
      "logsBloom": "0x00000000000000000000000000000000000000000000000000000000000000000000000000000000000000000000000000000000000000004000000000000000000000000000000000000008000000000000000000000000000000000000000000000000020000000000000004000800020000000000000000000010000000000000000000000000000000000000000000000000000000000000010000000000000000000000000000000000000000004000000000000000000000000000020000000002000000800000008000000000000000000000080000000000000020000000000000000000000000000000000000000000000000000000000000000000",
      "type": "0x2",
      "transactionHash": "0x0bb020bc9022ed516237793a0c2ccfbf30c03b24702572a3300a8622473a230c",
      "transactionIndex": "0x36",
      "blockHash": "0xb1ed9584f514eeb4e18e1471511f1f845b1b042106442988137f379cc11b36fc",
      "blockNumber": "0x724fc6",
      "gasUsed": "0x13af8",
      "effectiveGasPrice": "0x3e517bfea",
      "from": "0xc77f7fed3b5cc8249adc428c5f44c9063b9734b4",
      "to": "0x5eb9cc76c3506942c1c0ead70e877dd5e4f00cb0",
      "contractAddress": null
    }
  ],
  "libraries": [],
  "pending": [],
  "returns": {},
  "timestamp": 1736879894,
  "chain": 11155111,
  "commit": "51a374b"
}