{
  "transactions": [
    {
      "hash": "0xf259626c78b7e426478aaa4110f1ce344334dcd278cff6d44a02bc85053dbd8f",
      "transactionType": "CALL",
      "contractName": null,
      "contractAddress": "0x8aafd3ede9adb0ff97c7aebce82a919afb1c8764",
      "function": "sell(uint256)",
      "arguments": [
        "205030176066135891989"
      ],
      "transaction": {
        "from": "0xc77f7fed3b5cc8249adc428c5f44c9063b9734b4",
        "to": "0x8aafd3ede9adb0ff97c7aebce82a919afb1c8764",
        "gas": "0x17270",
        "value": "0x0",
        "input": "0xe4849b3200000000000000000000000000000000000000000000000b1d5d82d5f1d3a015",
        "nonce": "0x1511",
        "chainId": "0xaa36a7"
      },
      "additionalContracts": [],
      "isFixedGasLimit": false
    }
  ],
  "receipts": [
    {
      "status": "0x1",
      "cumulativeGasUsed": "0x915a35",
      "logs": [
        {
          "address": "0x8aafd3ede9adb0ff97c7aebce82a919afb1c8764",
          "topics": [
            "0xddf252ad1be2c89b69c2b068fc378daa952ba7f163c4a11628f55a4df523b3ef",
            "0x000000000000000000000000c77f7fed3b5cc8249adc428c5f44c9063b9734b4",
            "0x0000000000000000000000000000000000000000000000000000000000000000"
          ],
          "data": "0x00000000000000000000000000000000000000000000000b069a33f70c906576",
          "blockHash": "0xff90468a8cb2bbf1c009b03053470cfe9144f441190cd1a75f8986b01d617fb3",
          "blockNumber": "0x731c73",
          "transactionHash": "0xf259626c78b7e426478aaa4110f1ce344334dcd278cff6d44a02bc85053dbd8f",
          "transactionIndex": "0x5a",
          "logIndex": "0x77",
          "removed": false
        },
        {
          "address": "0x8aafd3ede9adb0ff97c7aebce82a919afb1c8764",
          "topics": [
            "0xddf252ad1be2c89b69c2b068fc378daa952ba7f163c4a11628f55a4df523b3ef",
            "0x000000000000000000000000c77f7fed3b5cc8249adc428c5f44c9063b9734b4",
            "0x000000000000000000000000c77f7fed3b5cc8249adc428c5f44c9063b9734b4"
          ],
          "data": "0x00000000000000000000000000000000000000000000000016c34edee5433a9f",
          "blockHash": "0xff90468a8cb2bbf1c009b03053470cfe9144f441190cd1a75f8986b01d617fb3",
          "blockNumber": "0x731c73",
          "transactionHash": "0xf259626c78b7e426478aaa4110f1ce344334dcd278cff6d44a02bc85053dbd8f",
          "transactionIndex": "0x5a",
          "logIndex": "0x78",
          "removed": false
        },
        {
          "address": "0x8aafd3ede9adb0ff97c7aebce82a919afb1c8764",
          "topics": [
            "0x4afcb4a87cdbd9974efdb92ee48bc8d7cd0ae4bf217004db3d080cbaee652ca7"
          ],
          "data": "0x000000000000000000000000000000000000000000000000000000006790524000000000000000000000000000000000000000000000000000114f4532164d6e0000000000000000000000000000000000000000000000000dcd12fa41f13343",
          "blockHash": "0xff90468a8cb2bbf1c009b03053470cfe9144f441190cd1a75f8986b01d617fb3",
          "blockNumber": "0x731c73",
          "transactionHash": "0xf259626c78b7e426478aaa4110f1ce344334dcd278cff6d44a02bc85053dbd8f",
          "transactionIndex": "0x5a",
          "logIndex": "0x79",
          "removed": false
        }
      ],
      "logsBloom": "0x00000000000000000000000000000000000000000600000000000000000000000000000000000000000000000000000000000000000000004000000000000000000000000000004000000008000000000000000000000000000000000000000000000000020000000000000000000800020000000000000000000010000000000000000000000000000000000000000000000000000000000000010000000000000000000000000000000000000000004000000000000000000000000000000000000002000000800000000000000000000000000000080000000000000020000000000000000000000000000000000000000000000000000000000000000000",
      "type": "0x2",
      "transactionHash": "0xf259626c78b7e426478aaa4110f1ce344334dcd278cff6d44a02bc85053dbd8f",
      "transactionIndex": "0x5a",
      "blockHash": "0xff90468a8cb2bbf1c009b03053470cfe9144f441190cd1a75f8986b01d617fb3",
      "blockNumber": "0x731c73",
      "gasUsed": "0xfd4b",
      "effectiveGasPrice": "0x170a15e05",
      "from": "0xc77f7fed3b5cc8249adc428c5f44c9063b9734b4",
      "to": "0x8aafd3ede9adb0ff97c7aebce82a919afb1c8764",
      "contractAddress": null
    }
  ],
  "libraries": [],
  "pending": [],
  "returns": {},
  "timestamp": 1737511490,
  "chain": 11155111,
  "commit": "1d2fb70"
}