{
  "transactions": [
    {
      "hash": "0x77d2441fe034fb88a153e116143f632a1d1f0ebf4f6e9e4201cacd3da30c77c4",
      "transactionType": "CALL",
      "contractName": null,
      "contractAddress": "0x270e88f8683660553e8ba4eb2ad7c91a1710d769",
      "function": "buy(address)",
      "arguments": [
        "0xC77f7fed3b5Cc8249aDc428c5F44C9063B9734b4"
      ],
      "transaction": {
        "from": "0xc77f7fed3b5cc8249adc428c5f44c9063b9734b4",
        "to": "0x270e88f8683660553e8ba4eb2ad7c91a1710d769",
        "gas": "0x1b30c",
        "value": "0xde0b6b3a7640000",
        "input": "0xf088d547000000000000000000000000c77f7fed3b5cc8249adc428c5f44c9063b9734b4",
        "nonce": "0x534",
        "chainId": "0xaa36a7"
      },
      "additionalContracts": [],
      "isFixedGasLimit": false
    }
  ],
  "receipts": [
    {
      "status": "0x1",
      "cumulativeGasUsed": "0x15643c6",
      "logs": [
        {
          "address": "0x270e88f8683660553e8ba4eb2ad7c91a1710d769",
          "topics": [
            "0xddf252ad1be2c89b69c2b068fc378daa952ba7f163c4a11628f55a4df523b3ef",
            "0x0000000000000000000000000000000000000000000000000000000000000000",
            "0x000000000000000000000000c77f7fed3b5cc8249adc428c5f44c9063b9734b4"
          ],
          "data": "0x000000000000000000000000000000000000000000000034da199c04c6d731fa",
          "blockHash": "0xcf517a00d09e546c93021ca05b20c07d3cc342cbf08c1e63ad743ed2415f60d9",
          "blockNumber": "0x7251ce",
          "transactionHash": "0x77d2441fe034fb88a153e116143f632a1d1f0ebf4f6e9e4201cacd3da30c77c4",
          "transactionIndex": "0x67",
          "logIndex": "0xae",
          "removed": false
        },
        {
          "address": "0x270e88f8683660553e8ba4eb2ad7c91a1710d769",
          "topics": [
            "0xddf252ad1be2c89b69c2b068fc378daa952ba7f163c4a11628f55a4df523b3ef",
            "0x0000000000000000000000000000000000000000000000000000000000000000",
            "0x000000000000000000000000c77f7fed3b5cc8249adc428c5f44c9063b9734b4"
          ],
          "data": "0x000000000000000000000000000000000000000000000000290a958d61ed1981",
          "blockHash": "0xcf517a00d09e546c93021ca05b20c07d3cc342cbf08c1e63ad743ed2415f60d9",
          "blockNumber": "0x7251ce",
          "transactionHash": "0x77d2441fe034fb88a153e116143f632a1d1f0ebf4f6e9e4201cacd3da30c77c4",
          "transactionIndex": "0x67",
          "logIndex": "0xaf",
          "removed": false
        },
        {
          "address": "0x270e88f8683660553e8ba4eb2ad7c91a1710d769",
          "topics": [
            "0x4afcb4a87cdbd9974efdb92ee48bc8d7cd0ae4bf217004db3d080cbaee652ca7"
          ],
          "data": "0x000000000000000000000000000000000000000000000000000000006786c78c00000000000000000000000000000000000000000000000000039ba45a9749840000000000000000000000000000000000000000000000000de0b6b3a7640000",
          "blockHash": "0xcf517a00d09e546c93021ca05b20c07d3cc342cbf08c1e63ad743ed2415f60d9",
          "blockNumber": "0x7251ce",
          "transactionHash": "0x77d2441fe034fb88a153e116143f632a1d1f0ebf4f6e9e4201cacd3da30c77c4",
          "transactionIndex": "0x67",
          "logIndex": "0xb0",
          "removed": false
        }
      ],
      "logsBloom": "0x00000000000000000000000000000000000000000000000000000000000000000000000000000000000000000000000020000000000000004000000000000000000000000000000000000008000000000000000000000000000000000000000000000000020000000000000000000800020000000000000000000010000000000000000000010000000000000000000000000000000000000000010000000000000000000000000000000000000000004000000000000000000000000000000000000002000000800000000000000000000000000000080000008000000020000000000000000000000000000000000000000000000000000000000000000000",
      "type": "0x2",
      "transactionHash": "0x77d2441fe034fb88a153e116143f632a1d1f0ebf4f6e9e4201cacd3da30c77c4",
      "transactionIndex": "0x67",
      "blockHash": "0xcf517a00d09e546c93021ca05b20c07d3cc342cbf08c1e63ad743ed2415f60d9",
      "blockNumber": "0x7251ce",
      "gasUsed": "0x13af8",
      "effectiveGasPrice": "0x3ffe3dfc5",
      "from": "0xc77f7fed3b5cc8249adc428c5f44c9063b9734b4",
      "to": "0x270e88f8683660553e8ba4eb2ad7c91a1710d769",
      "contractAddress": null
    }
  ],
  "libraries": [],
  "pending": [],
  "returns": {},
  "timestamp": 1736886158,
  "chain": 11155111,
  "commit": "51a374b"
}