{
  "transactions": [
    {
      "hash": "0x1b1530154051e4c9ff188c72a8be51ce0ca6094ba8c8084a69efc722ca17e528",
      "transactionType": "CALL",
      "contractName": null,
      "contractAddress": "0x5eb9cc76c3506942c1c0ead70e877dd5e4f00cb0",
      "function": "buy(address)",
      "arguments": [
        "0xC77f7fed3b5Cc8249aDc428c5F44C9063B9734b4"
      ],
      "transaction": {
        "from": "0xc77f7fed3b5cc8249adc428c5f44c9063b9734b4",
        "to": "0x5eb9cc76c3506942c1c0ead70e877dd5e4f00cb0",
        "gas": "0x1b30c",
        "value": "0xde0b6b3a7640000",
        "input": "0xf088d547000000000000000000000000c77f7fed3b5cc8249adc428c5f44c9063b9734b4",
        "nonce": "0x24a",
        "chainId": "0xaa36a7"
      },
      "additionalContracts": [],
      "isFixedGasLimit": false
    }
  ],
  "receipts": [
    {
      "status": "0x1",
      "cumulativeGasUsed": "0xb3b8e8",
      "logs": [
        {
          "address": "0x5eb9cc76c3506942c1c0ead70e877dd5e4f00cb0",
          "topics": [
            "0xddf252ad1be2c89b69c2b068fc378daa952ba7f163c4a11628f55a4df523b3ef",
            "0x0000000000000000000000000000000000000000000000000000000000000000",
            "0x000000000000000000000000c77f7fed3b5cc8249adc428c5f44c9063b9734b4"
          ],
          "data": "0x0000000000000000000000000000000000000000000000357c253c215c032ae1",
          "blockHash": "0x6ae4c5a238e0972eacc5ac3f2d380322df822f82fec1b801ef3744601dd05a1e",
          "blockNumber": "0x724e03",
          "transactionHash": "0x1b1530154051e4c9ff188c72a8be51ce0ca6094ba8c8084a69efc722ca17e528",
          "transactionIndex": "0x73",
          "logIndex": "0xe7",
          "removed": false
        },
        {
          "address": "0x5eb9cc76c3506942c1c0ead70e877dd5e4f00cb0",
          "topics": [
            "0xddf252ad1be2c89b69c2b068fc378daa952ba7f163c4a11628f55a4df523b3ef",
            "0x0000000000000000000000000000000000000000000000000000000000000000",
            "0x000000000000000000000000c77f7fed3b5cc8249adc428c5f44c9063b9734b4"
          ],
          "data": "0x00000000000000000000000000000000000000000000000029886b009f188a52",
          "blockHash": "0x6ae4c5a238e0972eacc5ac3f2d380322df822f82fec1b801ef3744601dd05a1e",
          "blockNumber": "0x724e03",
          "transactionHash": "0x1b1530154051e4c9ff188c72a8be51ce0ca6094ba8c8084a69efc722ca17e528",
          "transactionIndex": "0x73",
          "logIndex": "0xe8",
          "removed": false
        },
        {
          "address": "0x5eb9cc76c3506942c1c0ead70e877dd5e4f00cb0",
          "topics": [
            "0x4afcb4a87cdbd9974efdb92ee48bc8d7cd0ae4bf217004db3d080cbaee652ca7"
          ],
          "data": "0x00000000000000000000000000000000000000000000000000000000678699d80000000000000000000000000000000000000000000000000003909b95bc92ba0000000000000000000000000000000000000000000000000de0b6b3a7640000",
          "blockHash": "0x6ae4c5a238e0972eacc5ac3f2d380322df822f82fec1b801ef3744601dd05a1e",
          "blockNumber": "0x724e03",
          "transactionHash": "0x1b1530154051e4c9ff188c72a8be51ce0ca6094ba8c8084a69efc722ca17e528",
          "transactionIndex": "0x73",
          "logIndex": "0xe9",
          "removed": false
        }
      ],
      "logsBloom": "0x00000000000000000000000000000000000000000000000000000000000000000000000000000000000000000000000000000000000000004000000000000000000000000000000000000008000000000000000000000000000000000000000000000000020000000000000004000800020000000000000000000010000000000000000000000000000000000000000000000000000000000000010000000000000000000000000000000000000000004000000000000000000000000000020000000002000000800000008000000000000000000000080000000000000020000000000000000000000000000000000000000000000000000000000000000000",
      "type": "0x2",
      "transactionHash": "0x1b1530154051e4c9ff188c72a8be51ce0ca6094ba8c8084a69efc722ca17e528",
      "transactionIndex": "0x73",
      "blockHash": "0x6ae4c5a238e0972eacc5ac3f2d380322df822f82fec1b801ef3744601dd05a1e",
      "blockNumber": "0x724e03",
      "gasUsed": "0x13af8",
      "effectiveGasPrice": "0x39b8187ab",
      "from": "0xc77f7fed3b5cc8249adc428c5f44c9063b9734b4",
      "to": "0x5eb9cc76c3506942c1c0ead70e877dd5e4f00cb0",
      "contractAddress": null
    }
  ],
  "libraries": [],
  "pending": [],
  "returns": {},
  "timestamp": 1736874457,
  "chain": 11155111,
  "commit": "51a374b"
}