{
  "transactions": [
    {
      "hash": "0x2f28eaeaef2d16f0f491b25ba8e75c318ba34cd2b99c9e5c74802e25cb437004",
      "transactionType": "CALL",
      "contractName": null,
      "contractAddress": "0xbf4a322f1496e5c3d34a9bcdb4c60567b38c7de2",
      "function": "sell(uint256)",
      "arguments": [
        "980146994939423447711"
      ],
      "transaction": {
        "from": "0xc77f7fed3b5cc8249adc428c5f44c9063b9734b4",
        "to": "0xbf4a322f1496e5c3d34a9bcdb4c60567b38c7de2",
        "gas": "0x16fea",
        "value": "0x0",
        "input": "0xe4849b320000000000000000000000000000000000000000000000352245a2db26ed5a9f",
        "nonce": "0xc0d",
        "chainId": "0xaa36a7"
      },
      "additionalContracts": [],
      "isFixedGasLimit": false
    }
  ],
  "receipts": [
    {
      "status": "0x1",
      "cumulativeGasUsed": "0x11bfb00",
      "logs": [
        {
          "address": "0xbf4a322f1496e5c3d34a9bcdb4c60567b38c7de2",
          "topics": [
            "0xddf252ad1be2c89b69c2b068fc378daa952ba7f163c4a11628f55a4df523b3ef",
            "0x000000000000000000000000c77f7fed3b5cc8249adc428c5f44c9063b9734b4",
            "0x0000000000000000000000000000000000000000000000000000000000000000"
          ],
          "data": "0x0000000000000000000000000000000000000000000000352245a2db26ed5a9f",
          "blockHash": "0x79601e3724ba35a522758d6a6cffc14391dbca5e66c527957f9263f537c35a18",
          "blockNumber": "0x725c38",
          "transactionHash": "0x2f28eaeaef2d16f0f491b25ba8e75c318ba34cd2b99c9e5c74802e25cb437004",
          "transactionIndex": "0x55",
          "logIndex": "0x91",
          "removed": false
        },
        {
          "address": "0xbf4a322f1496e5c3d34a9bcdb4c60567b38c7de2",
          "topics": [
            "0x4afcb4a87cdbd9974efdb92ee48bc8d7cd0ae4bf217004db3d080cbaee652ca7"
          ],
          "data": "0x00000000000000000000000000000000000000000000000000000000678744fc000000000000000000000000000000000000000000000000000399730287df570000000000000000000000000000000000000000000000000dc7e3e2687870e1",
          "blockHash": "0x79601e3724ba35a522758d6a6cffc14391dbca5e66c527957f9263f537c35a18",
          "blockNumber": "0x725c38",
          "transactionHash": "0x2f28eaeaef2d16f0f491b25ba8e75c318ba34cd2b99c9e5c74802e25cb437004",
          "transactionIndex": "0x55",
          "logIndex": "0x92",
          "removed": false
        }
      ],
      "logsBloom": "0x00000000000000000000000000000000000000000000000000000000000000000000000000000000000000000000000000000000000000004000000000000000000000000000000000000008000000000000001000000000000000000000000000000000020000000000000000000800020000000000000000000010000000000000000000000000000000000000000000000000000008000000010000000000000000000000000000000000000000004000000000000000000000000000000000000002000000800000000000001000000000000000080000000000000020000000000000000000000000000000000000000000000000000000000000000000",
      "type": "0x2",
      "transactionHash": "0x2f28eaeaef2d16f0f491b25ba8e75c318ba34cd2b99c9e5c74802e25cb437004",
      "transactionIndex": "0x55",
      "blockHash": "0x79601e3724ba35a522758d6a6cffc14391dbca5e66c527957f9263f537c35a18",
      "blockNumber": "0x725c38",
      "gasUsed": "0xfb91",
      "effectiveGasPrice": "0x115b12afd",
      "from": "0xc77f7fed3b5cc8249adc428c5f44c9063b9734b4",
      "to": "0xbf4a322f1496e5c3d34a9bcdb4c60567b38c7de2",
      "contractAddress": null
    }
  ],
  "libraries": [],
  "pending": [],
  "returns": {},
  "timestamp": 1736918269,
  "chain": 11155111,
  "commit": "51a374b"
}