{
  "transactions": [
    {
      "hash": "0xabd0895747ef17253ca287f8025da0a1612b09cac0de8a72d348b1915b072e37",
      "transactionType": "CALL",
      "contractName": null,
      "contractAddress": "0x5eb9cc76c3506942c1c0ead70e877dd5e4f00cb0",
      "function": "buy(address)",
      "arguments": [
        "0xC77f7fed3b5Cc8249aDc428c5F44C9063B9734b4"
      ],
      "transaction": {
        "from": "0xc77f7fed3b5cc8249adc428c5f44c9063b9734b4",
        "to": "0x5eb9cc76c3506942c1c0ead70e877dd5e4f00cb0",
        "gas": "0x1b30c",
        "value": "0xde0b6b3a7640000",
        "input": "0xf088d547000000000000000000000000c77f7fed3b5cc8249adc428c5f44c9063b9734b4",
        "nonce": "0x3f6",
        "chainId": "0xaa36a7"
      },
      "additionalContracts": [],
      "isFixedGasLimit": false
    }
  ],
  "receipts": [
    {
      "status": "0x1",
      "cumulativeGasUsed": "0xa7a416",
      "logs": [
        {
          "address": "0x5eb9cc76c3506942c1c0ead70e877dd5e4f00cb0",
          "topics": [
            "0xddf252ad1be2c89b69c2b068fc378daa952ba7f163c4a11628f55a4df523b3ef",
            "0x0000000000000000000000000000000000000000000000000000000000000000",
            "0x000000000000000000000000c77f7fed3b5cc8249adc428c5f44c9063b9734b4"
          ],
          "data": "0x0000000000000000000000000000000000000000000000357507dd59e387e875",
          "blockHash": "0x96412ba7a5ae49b5303bc9d543d047b9029b779a2e10b10996fd093695d100c4",
          "blockNumber": "0x724ffd",
          "transactionHash": "0xabd0895747ef17253ca287f8025da0a1612b09cac0de8a72d348b1915b072e37",
          "transactionIndex": "0x57",
          "logIndex": "0x9b",
          "removed": false
        },
        {
          "address": "0x5eb9cc76c3506942c1c0ead70e877dd5e4f00cb0",
          "topics": [
            "0xddf252ad1be2c89b69c2b068fc378daa952ba7f163c4a11628f55a4df523b3ef",
            "0x0000000000000000000000000000000000000000000000000000000000000000",
            "0x000000000000000000000000c77f7fed3b5cc8249adc428c5f44c9063b9734b4"
          ],
          "data": "0x0000000000000000000000000000000000000000000000002982e4a574fddf7c",
          "blockHash": "0x96412ba7a5ae49b5303bc9d543d047b9029b779a2e10b10996fd093695d100c4",
          "blockNumber": "0x724ffd",
          "transactionHash": "0xabd0895747ef17253ca287f8025da0a1612b09cac0de8a72d348b1915b072e37",
          "transactionIndex": "0x57",
          "logIndex": "0x9c",
          "removed": false
        },
        {
          "address": "0x5eb9cc76c3506942c1c0ead70e877dd5e4f00cb0",
          "topics": [
            "0x4afcb4a87cdbd9974efdb92ee48bc8d7cd0ae4bf217004db3d080cbaee652ca7"
          ],
          "data": "0x000000000000000000000000000000000000000000000000000000006786b1a8000000000000000000000000000000000000000000000000000391150c2ba9380000000000000000000000000000000000000000000000000de0b6b3a7640000",
          "blockHash": "0x96412ba7a5ae49b5303bc9d543d047b9029b779a2e10b10996fd093695d100c4",
          "blockNumber": "0x724ffd",
          "transactionHash": "0xabd0895747ef17253ca287f8025da0a1612b09cac0de8a72d348b1915b072e37",
          "transactionIndex": "0x57",
          "logIndex": "0x9d",
          "removed": false
        }
      ],
      "logsBloom": "0x00000000000000000000000000000000000000000000000000000000000000000000000000000000000000000000000000000000000000004000000000000000000000000000000000000008000000000000000000000000000000000000000000000000020000000000000004000800020000000000000000000010000000000000000000000000000000000000000000000000000000000000010000000000000000000000000000000000000000004000000000000000000000000000020000000002000000800000008000000000000000000000080000000000000020000000000000000000000000000000000000000000000000000000000000000000",
      "type": "0x2",
      "transactionHash": "0xabd0895747ef17253ca287f8025da0a1612b09cac0de8a72d348b1915b072e37",
      "transactionIndex": "0x57",
      "blockHash": "0x96412ba7a5ae49b5303bc9d543d047b9029b779a2e10b10996fd093695d100c4",
      "blockNumber": "0x724ffd",
      "gasUsed": "0x13af8",
      "effectiveGasPrice": "0x3eab23c51",
      "from": "0xc77f7fed3b5cc8249adc428c5f44c9063b9734b4",
      "to": "0x5eb9cc76c3506942c1c0ead70e877dd5e4f00cb0",
      "contractAddress": null
    }
  ],
  "libraries": [],
  "pending": [],
  "returns": {},
  "timestamp": 1736880553,
  "chain": 11155111,
  "commit": "51a374b"
}