{
  "transactions": [
    {
      "hash": "0x74978c06e61ef9428ef1d69f4194eb06547d26d5cb444a23909ab43cf1782396",
      "transactionType": "CALL",
      "contractName": null,
      "contractAddress": "0x5eb9cc76c3506942c1c0ead70e877dd5e4f00cb0",
      "function": "sell(uint256)",
      "arguments": [
        "989116253385530287424"
      ],
      "transaction": {
        "from": "0xc77f7fed3b5cc8249adc428c5f44c9063b9734b4",
        "to": "0x5eb9cc76c3506942c1c0ead70e877dd5e4f00cb0",
        "gas": "0x16fec",
        "value": "0x0",
        "input": "0xe4849b320000000000000000000000000000000000000000000000359ebed7e441cc2540",
        "nonce": "0x39b",
        "chainId": "0xaa36a7"
      },
      "additionalContracts": [],
      "isFixedGasLimit": false
    }
  ],
  "receipts": [
    {
      "status": "0x1",
      "cumulativeGasUsed": "0xd6d82e",
      "logs": [
        {
          "address": "0x5eb9cc76c3506942c1c0ead70e877dd5e4f00cb0",
          "topics": [
            "0xddf252ad1be2c89b69c2b068fc378daa952ba7f163c4a11628f55a4df523b3ef",
            "0x000000000000000000000000c77f7fed3b5cc8249adc428c5f44c9063b9734b4",
            "0x0000000000000000000000000000000000000000000000000000000000000000"
          ],
          "data": "0x0000000000000000000000000000000000000000000000359ebed7e441cc2540",
          "blockHash": "0x35e3fde290e967515a5028c3ae16a63832c77b05d960505d6afe39724d52c09d",
          "blockNumber": "0x724f97",
          "transactionHash": "0x74978c06e61ef9428ef1d69f4194eb06547d26d5cb444a23909ab43cf1782396",
          "transactionIndex": "0x75",
          "logIndex": "0xb5",
          "removed": false
        },
        {
          "address": "0x5eb9cc76c3506942c1c0ead70e877dd5e4f00cb0",
          "topics": [
            "0x4afcb4a87cdbd9974efdb92ee48bc8d7cd0ae4bf217004db3d080cbaee652ca7"
          ],
          "data": "0x000000000000000000000000000000000000000000000000000000006786acc800000000000000000000000000000000000000000000000000039111a18d12100000000000000000000000000000000000000000000000000dc7db1332045e7b",
          "blockHash": "0x35e3fde290e967515a5028c3ae16a63832c77b05d960505d6afe39724d52c09d",
          "blockNumber": "0x724f97",
          "transactionHash": "0x74978c06e61ef9428ef1d69f4194eb06547d26d5cb444a23909ab43cf1782396",
          "transactionIndex": "0x75",
          "logIndex": "0xb6",
          "removed": false
        }
      ],
      "logsBloom": "0x00000000000000000000000000000000000000000000000000000000000000000000000000000000000000000000000000000000000000004000000000000000000000000000000000000008000000000000000000000000000000000000000000000000020000000000000004000800020000000000000000000010000000000000000000000000000000000000000000000000000000000000010000000000000000000000000000000000000000004000000000000000000000000000020000000002000000800000008000000000000000000000080000000000000020000000000000000000000000000000000000000000000000000000000000000000",
      "type": "0x2",
      "transactionHash": "0x74978c06e61ef9428ef1d69f4194eb06547d26d5cb444a23909ab43cf1782396",
      "transactionIndex": "0x75",
      "blockHash": "0x35e3fde290e967515a5028c3ae16a63832c77b05d960505d6afe39724d52c09d",
      "blockNumber": "0x724f97",
      "gasUsed": "0xfb93",
      "effectiveGasPrice": "0x52ea0e046",
      "from": "0xc77f7fed3b5cc8249adc428c5f44c9063b9734b4",
      "to": "0x5eb9cc76c3506942c1c0ead70e877dd5e4f00cb0",
      "contractAddress": null
    }
  ],
  "libraries": [],
  "pending": [],
  "returns": {},
  "timestamp": 1736879305,
  "chain": 11155111,
  "commit": "51a374b"
}