{
  "transactions": [
    {
      "hash": "0x3f93901cf9f0d473de407f74ba106907518774d55acdce3dbfe15d48c6413b95",
      "transactionType": "CALL",
      "contractName": null,
      "contractAddress": "0xbf4a322f1496e5c3d34a9bcdb4c60567b38c7de2",
      "function": "sell(uint256)",
      "arguments": [
        "975468722404170222214"
      ],
      "transaction": {
        "from": "0xc77f7fed3b5cc8249adc428c5f44c9063b9734b4",
        "to": "0xbf4a322f1496e5c3d34a9bcdb4c60567b38c7de2",
        "gas": "0x16fea",
        "value": "0x0",
        "input": "0xe4849b32000000000000000000000000000000000000000000000034e15912c594b14a86",
        "nonce": "0xd6b",
        "chainId": "0xaa36a7"
      },
      "additionalContracts": [],
      "isFixedGasLimit": false
    }
  ],
  "receipts": [
    {
      "status": "0x1",
      "cumulativeGasUsed": "0x896e1d",
      "logs": [
        {
          "address": "0xbf4a322f1496e5c3d34a9bcdb4c60567b38c7de2",
          "topics": [
            "0xddf252ad1be2c89b69c2b068fc378daa952ba7f163c4a11628f55a4df523b3ef",
            "0x000000000000000000000000c77f7fed3b5cc8249adc428c5f44c9063b9734b4",
            "0x0000000000000000000000000000000000000000000000000000000000000000"
          ],
          "data": "0x000000000000000000000000000000000000000000000034e15912c594b14a86",
          "blockHash": "0x7d48aa09565776e721429989a7fcb0599e89783afe15739ca159677e6e497671",
          "blockNumber": "0x726615",
          "transactionHash": "0x3f93901cf9f0d473de407f74ba106907518774d55acdce3dbfe15d48c6413b95",
          "transactionIndex": "0x4d",
          "logIndex": "0x7b",
          "removed": false
        },
        {
          "address": "0xbf4a322f1496e5c3d34a9bcdb4c60567b38c7de2",
          "topics": [
            "0x4afcb4a87cdbd9974efdb92ee48bc8d7cd0ae4bf217004db3d080cbaee652ca7"
          ],
          "data": "0x000000000000000000000000000000000000000000000000000000006787bbac00000000000000000000000000000000000000000000000000039dde4b3f43640000000000000000000000000000000000000000000000000dc7e3d787e83bbe",
          "blockHash": "0x7d48aa09565776e721429989a7fcb0599e89783afe15739ca159677e6e497671",
          "blockNumber": "0x726615",
          "transactionHash": "0x3f93901cf9f0d473de407f74ba106907518774d55acdce3dbfe15d48c6413b95",
          "transactionIndex": "0x4d",
          "logIndex": "0x7c",
          "removed": false
        }
      ],
      "logsBloom": "0x00000000000000000000000000000000000000000000000000000000000000000000000000000000000000000000000000000000000000004000000000000000000000000000000000000008000000000000001000000000000000000000000000000000020000000000000000000800020000000000000000000010000000000000000000000000000000000000000000000000000008000000010000000000000000000000000000000000000000004000000000000000000000000000000000000002000000800000000000001000000000000000080000000000000020000000000000000000000000000000000000000000000000000000000000000000",
      "type": "0x2",
      "transactionHash": "0x3f93901cf9f0d473de407f74ba106907518774d55acdce3dbfe15d48c6413b95",
      "transactionIndex": "0x4d",
      "blockHash": "0x7d48aa09565776e721429989a7fcb0599e89783afe15739ca159677e6e497671",
      "blockNumber": "0x726615",
      "gasUsed": "0xfb91",
      "effectiveGasPrice": "0x79768a22",
      "from": "0xc77f7fed3b5cc8249adc428c5f44c9063b9734b4",
      "to": "0xbf4a322f1496e5c3d34a9bcdb4c60567b38c7de2",
      "contractAddress": null
    }
  ],
  "libraries": [],
  "pending": [],
  "returns": {},
  "timestamp": 1736948653,
  "chain": 11155111,
  "commit": "51a374b"
}