{
  "transactions": [
    {
      "hash": "0x4fbb976b79751f8a3d0dac040ca9f770bcaa523d5541440205ea0b91b846f8f4",
      "transactionType": "CALL",
      "contractName": null,
      "contractAddress": "0xbf4a322f1496e5c3d34a9bcdb4c60567b38c7de2",
      "function": "sell(uint256)",
      "arguments": [
        "973583387602837325730"
      ],
      "transaction": {
        "from": "0xc77f7fed3b5cc8249adc428c5f44c9063b9734b4",
        "to": "0xbf4a322f1496e5c3d34a9bcdb4c60567b38c7de2",
        "gas": "0x16fea",
        "value": "0x0",
        "input": "0xe4849b32000000000000000000000000000000000000000000000034c72f04c2489047a2",
        "nonce": "0xdf9",
        "chainId": "0xaa36a7"
      },
      "additionalContracts": [],
      "isFixedGasLimit": false
    }
  ],
  "receipts": [
    {
      "status": "0x1",
      "cumulativeGasUsed": "0x1e6bec2",
      "logs": [
        {
          "address": "0xbf4a322f1496e5c3d34a9bcdb4c60567b38c7de2",
          "topics": [
            "0xddf252ad1be2c89b69c2b068fc378daa952ba7f163c4a11628f55a4df523b3ef",
            "0x000000000000000000000000c77f7fed3b5cc8249adc428c5f44c9063b9734b4",
            "0x0000000000000000000000000000000000000000000000000000000000000000"
          ],
          "data": "0x000000000000000000000000000000000000000000000034c72f04c2489047a2",
          "blockHash": "0xc757406306101acedb67686ef33a2dfa6cb2080034aa95f8aa4ad85077c00323",
          "blockNumber": "0x7266dd",
          "transactionHash": "0x4fbb976b79751f8a3d0dac040ca9f770bcaa523d5541440205ea0b91b846f8f4",
          "transactionIndex": "0x9b",
          "logIndex": "0xe8",
          "removed": false
        },
        {
          "address": "0xbf4a322f1496e5c3d34a9bcdb4c60567b38c7de2",
          "topics": [
            "0x4afcb4a87cdbd9974efdb92ee48bc8d7cd0ae4bf217004db3d080cbaee652ca7"
          ],
          "data": "0x000000000000000000000000000000000000000000000000000000006787c59c00000000000000000000000000000000000000000000000000039fa945d620ce0000000000000000000000000000000000000000000000000dc7e3d325b9163e",
          "blockHash": "0xc757406306101acedb67686ef33a2dfa6cb2080034aa95f8aa4ad85077c00323",
          "blockNumber": "0x7266dd",
          "transactionHash": "0x4fbb976b79751f8a3d0dac040ca9f770bcaa523d5541440205ea0b91b846f8f4",
          "transactionIndex": "0x9b",
          "logIndex": "0xe9",
          "removed": false
        }
      ],
      "logsBloom": "0x00000000000000000000000000000000000000000000000000000000000000000000000000000000000000000000000000000000000000004000000000000000000000000000000000000008000000000000001000000000000000000000000000000000020000000000000000000800020000000000000000000010000000000000000000000000000000000000000000000000000008000000010000000000000000000000000000000000000000004000000000000000000000000000000000000002000000800000000000001000000000000000080000000000000020000000000000000000000000000000000000000000000000000000000000000000",
      "type": "0x2",
      "transactionHash": "0x4fbb976b79751f8a3d0dac040ca9f770bcaa523d5541440205ea0b91b846f8f4",
      "transactionIndex": "0x9b",
      "blockHash": "0xc757406306101acedb67686ef33a2dfa6cb2080034aa95f8aa4ad85077c00323",
      "blockNumber": "0x7266dd",
      "gasUsed": "0xfb91",
      "effectiveGasPrice": "0x2ee4a2a0a",
      "from": "0xc77f7fed3b5cc8249adc428c5f44c9063b9734b4",
      "to": "0xbf4a322f1496e5c3d34a9bcdb4c60567b38c7de2",
      "contractAddress": null
    }
  ],
  "libraries": [],
  "pending": [],
  "returns": {},
  "timestamp": 1736951197,
  "chain": 11155111,
  "commit": "51a374b"
}