{
  "transactions": [
    {
      "hash": "0xe0f320161bf3938911060f7307fbc41bdf06eed89bcb063712408ede6021d1f9",
      "transactionType": "CALL",
      "contractName": null,
      "contractAddress": "0x8aafd3ede9adb0ff97c7aebce82a919afb1c8764",
      "function": "sell(uint256)",
      "arguments": [
        "3063875732755"
      ],
      "transaction": {
        "from": "0xc77f7fed3b5cc8249adc428c5f44c9063b9734b4",
        "to": "0x8aafd3ede9adb0ff97c7aebce82a919afb1c8764",
        "gas": "0x15daa",
        "value": "0x0",
        "input": "0xe4849b32000000000000000000000000000000000000000000000000000002c95d398513",
        "nonce": "0xeaa",
        "chainId": "0xaa36a7"
      },
      "additionalContracts": [],
      "isFixedGasLimit": false
    }
  ],
  "receipts": [
    {
      "status": "0x1",
      "cumulativeGasUsed": "0x10cfb28",
      "logs": [
        {
          "address": "0x8aafd3ede9adb0ff97c7aebce82a919afb1c8764",
          "topics": [
            "0xddf252ad1be2c89b69c2b068fc378daa952ba7f163c4a11628f55a4df523b3ef",
            "0x000000000000000000000000c77f7fed3b5cc8249adc428c5f44c9063b9734b4",
            "0x0000000000000000000000000000000000000000000000000000000000000000"
          ],
          "data": "0x000000000000000000000000000000000000000000000000000002c3a841406d",
          "blockHash": "0xdac5a436651a1cc40e418fd27007b51b0464a80d4aa42c54da10c0c00adedc55",
          "blockNumber": "0x73140d",
          "transactionHash": "0xe0f320161bf3938911060f7307fbc41bdf06eed89bcb063712408ede6021d1f9",
          "transactionIndex": "0xa9",
          "logIndex": "0x13c",
          "removed": false
        },
        {
          "address": "0x8aafd3ede9adb0ff97c7aebce82a919afb1c8764",
          "topics": [
            "0xddf252ad1be2c89b69c2b068fc378daa952ba7f163c4a11628f55a4df523b3ef",
            "0x000000000000000000000000c77f7fed3b5cc8249adc428c5f44c9063b9734b4",
            "0x000000000000000000000000c77f7fed3b5cc8249adc428c5f44c9063b9734b4"
          ],
          "data": "0x00000000000000000000000000000000000000000000000000000005b4f844a6",
          "blockHash": "0xdac5a436651a1cc40e418fd27007b51b0464a80d4aa42c54da10c0c00adedc55",
          "blockNumber": "0x73140d",
          "transactionHash": "0xe0f320161bf3938911060f7307fbc41bdf06eed89bcb063712408ede6021d1f9",
          "transactionIndex": "0xa9",
          "logIndex": "0x13d",
          "removed": false
        },
        {
          "address": "0x8aafd3ede9adb0ff97c7aebce82a919afb1c8764",
          "topics": [
            "0x4afcb4a87cdbd9974efdb92ee48bc8d7cd0ae4bf217004db3d080cbaee652ca7"
          ],
          "data": "0x00000000000000000000000000000000000000000000000000000000678fed480000000000000000000000000000000000000000000000000004b7c88a18262e00000000000000000000000000000000000000000000000000000000f2840e65",
          "blockHash": "0xdac5a436651a1cc40e418fd27007b51b0464a80d4aa42c54da10c0c00adedc55",
          "blockNumber": "0x73140d",
          "transactionHash": "0xe0f320161bf3938911060f7307fbc41bdf06eed89bcb063712408ede6021d1f9",
          "transactionIndex": "0xa9",
          "logIndex": "0x13e",
          "removed": false
        }
      ],
      "logsBloom": "0x00000000000000000000000000000000000000000600000000000000000000000000000000000000000000000000000000000000000000004000000000000000000000000000004000000008000000000000000000000000000000000000000000000000020000000000000000000800020000000000000000000010000000000000000000000000000000000000000000000000000000000000010000000000000000000000000000000000000000004000000000000000000000000000000000000002000000800000000000000000000000000000080000000000000020000000000000000000000000000000000000000000000000000000000000000000",
      "type": "0x2",
      "transactionHash": "0xe0f320161bf3938911060f7307fbc41bdf06eed89bcb063712408ede6021d1f9",
      "transactionIndex": "0xa9",
      "blockHash": "0xdac5a436651a1cc40e418fd27007b51b0464a80d4aa42c54da10c0c00adedc55",
      "blockNumber": "0x73140d",
      "gasUsed": "0xfd27",
      "effectiveGasPrice": "0x8027e250",
      "from": "0xc77f7fed3b5cc8249adc428c5f44c9063b9734b4",
      "to": "0x8aafd3ede9adb0ff97c7aebce82a919afb1c8764",
      "contractAddress": null
    }
  ],
  "libraries": [],
  "pending": [],
  "returns": {},
  "timestamp": 1737485641,
  "chain": 11155111,
  "commit": "51a374b"
}