{
  "transactions": [
    {
      "hash": "0xebc81f97330f7ca97c5b1311b01bf240c148b3ace6f367ca3056071276f834bd",
      "transactionType": "CALL",
      "contractName": null,
      "contractAddress": "0x8aafd3ede9adb0ff97c7aebce82a919afb1c8764",
      "function": "sell(uint256)",
      "arguments": [
        "2733719668593"
      ],
      "transaction": {
        "from": "0xc77f7fed3b5cc8249adc428c5f44c9063b9734b4",
        "to": "0x8aafd3ede9adb0ff97c7aebce82a919afb1c8764",
        "gas": "0x15daa",
        "value": "0x0",
        "input": "0xe4849b320000000000000000000000000000000000000000000000000000027c7e63c771",
        "nonce": "0x12b1",
        "chainId": "0xaa36a7"
      },
      "additionalContracts": [],
      "isFixedGasLimit": false
    }
  ],
  "receipts": [
    {
      "status": "0x1",
      "cumulativeGasUsed": "0xae323a",
      "logs": [
        {
          "address": "0x8aafd3ede9adb0ff97c7aebce82a919afb1c8764",
          "topics": [
            "0xddf252ad1be2c89b69c2b068fc378daa952ba7f163c4a11628f55a4df523b3ef",
            "0x000000000000000000000000c77f7fed3b5cc8249adc428c5f44c9063b9734b4",
            "0x0000000000000000000000000000000000000000000000000000000000000000"
          ],
          "data": "0x0000000000000000000000000000000000000000000000000000027766d9c3cd",
          "blockHash": "0xd428ed6db0c29e7d84c74700ce33ba60e2f18c1c65cfb0d9fde4e57ac9753f84",
          "blockNumber": "0x7319a7",
          "transactionHash": "0xebc81f97330f7ca97c5b1311b01bf240c148b3ace6f367ca3056071276f834bd",
          "transactionIndex": "0x74",
          "logIndex": "0x7d",
          "removed": false
        },
        {
          "address": "0x8aafd3ede9adb0ff97c7aebce82a919afb1c8764",
          "topics": [
            "0xddf252ad1be2c89b69c2b068fc378daa952ba7f163c4a11628f55a4df523b3ef",
            "0x000000000000000000000000c77f7fed3b5cc8249adc428c5f44c9063b9734b4",
            "0x000000000000000000000000c77f7fed3b5cc8249adc428c5f44c9063b9734b4"
          ],
          "data": "0x00000000000000000000000000000000000000000000000000000005178a03a4",
          "blockHash": "0xd428ed6db0c29e7d84c74700ce33ba60e2f18c1c65cfb0d9fde4e57ac9753f84",
          "blockNumber": "0x7319a7",
          "transactionHash": "0xebc81f97330f7ca97c5b1311b01bf240c148b3ace6f367ca3056071276f834bd",
          "transactionIndex": "0x74",
          "logIndex": "0x7e",
          "removed": false
        },
        {
          "address": "0x8aafd3ede9adb0ff97c7aebce82a919afb1c8764",
          "topics": [
            "0x4afcb4a87cdbd9974efdb92ee48bc8d7cd0ae4bf217004db3d080cbaee652ca7"
          ],
          "data": "0x00000000000000000000000000000000000000000000000000000000679030a400000000000000000000000000000000000000000000000000054aa30d78993f00000000000000000000000000000000000000000000000000000000f2b15899",
          "blockHash": "0xd428ed6db0c29e7d84c74700ce33ba60e2f18c1c65cfb0d9fde4e57ac9753f84",
          "blockNumber": "0x7319a7",
          "transactionHash": "0xebc81f97330f7ca97c5b1311b01bf240c148b3ace6f367ca3056071276f834bd",
          "transactionIndex": "0x74",
          "logIndex": "0x7f",
          "removed": false
        }
      ],
      "logsBloom": "0x00000000000000000000000000000000000000000600000000000000000000000000000000000000000000000000000000000000000000004000000000000000000000000000004000000008000000000000000000000000000000000000000000000000020000000000000000000800020000000000000000000010000000000000000000000000000000000000000000000000000000000000010000000000000000000000000000000000000000004000000000000000000000000000000000000002000000800000000000000000000000000000080000000000000020000000000000000000000000000000000000000000000000000000000000000000",
      "type": "0x2",
      "transactionHash": "0xebc81f97330f7ca97c5b1311b01bf240c148b3ace6f367ca3056071276f834bd",
      "transactionIndex": "0x74",
      "blockHash": "0xd428ed6db0c29e7d84c74700ce33ba60e2f18c1c65cfb0d9fde4e57ac9753f84",
      "blockNumber": "0x7319a7",
      "gasUsed": "0xfd27",
      "effectiveGasPrice": "0x419be95a",
      "from": "0xc77f7fed3b5cc8249adc428c5f44c9063b9734b4",
      "to": "0x8aafd3ede9adb0ff97c7aebce82a919afb1c8764",
      "contractAddress": null
    }
  ],
  "libraries": [],
  "pending": [],
  "returns": {},
  "timestamp": 1737502885,
  "chain": 11155111,
  "commit": "1d2fb70"
}