{
  "transactions": [
    {
      "hash": "0x5f47db734d9f53364adb2c969c0aa0d776cc0d20f9fde0664080f986fc235321",
      "transactionType": "CALL",
      "contractName": null,
      "contractAddress": "0x8aafd3ede9adb0ff97c7aebce82a919afb1c8764",
      "function": "sell(uint256)",
      "arguments": [
        "9827236043"
      ],
      "transaction": {
        "from": "0xc77f7fed3b5cc8249adc428c5f44c9063b9734b4",
        "to": "0x8aafd3ede9adb0ff97c7aebce82a919afb1c8764",
        "gas": "0x1722a",
        "value": "0x0",
        "input": "0xe4849b320000000000000000000000000000000000000000000000000000000249bfb8cb",
        "nonce": "0x1339",
        "chainId": "0xaa36a7"
      },
      "additionalContracts": [],
      "isFixedGasLimit": false
    }
  ],
  "receipts": [
    {
      "status": "0x1",
      "cumulativeGasUsed": "0x959522",
      "logs": [
        {
          "address": "0x8aafd3ede9adb0ff97c7aebce82a919afb1c8764",
          "topics": [
            "0xddf252ad1be2c89b69c2b068fc378daa952ba7f163c4a11628f55a4df523b3ef",
            "0x000000000000000000000000c77f7fed3b5cc8249adc428c5f44c9063b9734b4",
            "0x0000000000000000000000000000000000000000000000000000000000000000"
          ],
          "data": "0x0000000000000000000000000000000000000000000000000000000245101bab",
          "blockHash": "0xa301421dd751b98bdc8e07136c18d1f82aa4a9725a586711f387ce697885e395",
          "blockNumber": "0x731a4f",
          "transactionHash": "0x5f47db734d9f53364adb2c969c0aa0d776cc0d20f9fde0664080f986fc235321",
          "transactionIndex": "0x7c",
          "logIndex": "0x9a",
          "removed": false
        },
        {
          "address": "0x8aafd3ede9adb0ff97c7aebce82a919afb1c8764",
          "topics": [
            "0xddf252ad1be2c89b69c2b068fc378daa952ba7f163c4a11628f55a4df523b3ef",
            "0x000000000000000000000000c77f7fed3b5cc8249adc428c5f44c9063b9734b4",
            "0x000000000000000000000000c77f7fed3b5cc8249adc428c5f44c9063b9734b4"
          ],
          "data": "0x0000000000000000000000000000000000000000000000000000000004af9d20",
          "blockHash": "0xa301421dd751b98bdc8e07136c18d1f82aa4a9725a586711f387ce697885e395",
          "blockNumber": "0x731a4f",
          "transactionHash": "0x5f47db734d9f53364adb2c969c0aa0d776cc0d20f9fde0664080f986fc235321",
          "transactionIndex": "0x7c",
          "logIndex": "0x9b",
          "removed": false
        },
        {
          "address": "0x8aafd3ede9adb0ff97c7aebce82a919afb1c8764",
          "topics": [
            "0x4afcb4a87cdbd9974efdb92ee48bc8d7cd0ae4bf217004db3d080cbaee652ca7"
          ],
          "data": "0x0000000000000000000000000000000000000000000000000000000067903884000000000000000000000000000000000000000000000000000bdd61fa15bc450000000000000000000000000000000000000000000000000000000001f4c8cf",
          "blockHash": "0xa301421dd751b98bdc8e07136c18d1f82aa4a9725a586711f387ce697885e395",
          "blockNumber": "0x731a4f",
          "transactionHash": "0x5f47db734d9f53364adb2c969c0aa0d776cc0d20f9fde0664080f986fc235321",
          "transactionIndex": "0x7c",
          "logIndex": "0x9c",
          "removed": false
        }
      ],
      "logsBloom": "0x00000000000000000000000000000000000000000600000000000000000000000000000000000000000000000000000000000000000000004000000000000000000000000000004000000008000000000000000000000000000000000000000000000000020000000000000000000800020000000000000000000010000000000000000000000000000000000000000000000000000000000000010000000000000000000000000000000000000000004000000000000000000000000000000000000002000000800000000000000000000000000000080000000000000020000000000000000000000000000000000000000000000000000000000000000000",
      "type": "0x2",
      "transactionHash": "0x5f47db734d9f53364adb2c969c0aa0d776cc0d20f9fde0664080f986fc235321",
      "transactionIndex": "0x7c",
      "blockHash": "0xa301421dd751b98bdc8e07136c18d1f82aa4a9725a586711f387ce697885e395",
      "blockNumber": "0x731a4f",
      "gasUsed": "0xfd1b",
      "effectiveGasPrice": "0x3cdfae2c",
      "from": "0xc77f7fed3b5cc8249adc428c5f44c9063b9734b4",
      "to": "0x8aafd3ede9adb0ff97c7aebce82a919afb1c8764",
      "contractAddress": null
    }
  ],
  "libraries": [],
  "pending": [],
  "returns": {},
  "timestamp": 1737504902,
  "chain": 11155111,
  "commit": "1d2fb70"
}