{
  "transactions": [
    {
      "hash": "0xb1ec4b7697dda5c39c245bb6d5523f10371e882160fec8544eb33d338104d8f3",
      "transactionType": "CALL",
      "contractName": null,
      "contractAddress": "0x8aafd3ede9adb0ff97c7aebce82a919afb1c8764",
      "function": "sell(uint256)",
      "arguments": [
        "189173854"
      ],
      "transaction": {
        "from": "0xc77f7fed3b5cc8249adc428c5f44c9063b9734b4",
        "to": "0x8aafd3ede9adb0ff97c7aebce82a919afb1c8764",
        "gas": "0x14e6c",
        "value": "0x0",
        "input": "0xe4849b32000000000000000000000000000000000000000000000000000000000b46905e",
        "nonce": "0xff7",
        "chainId": "0xaa36a7"
      },
      "additionalContracts": [],
      "isFixedGasLimit": false
    }
  ],
  "receipts": [
    {
      "status": "0x1",
      "cumulativeGasUsed": "0xc3b68b",
      "logs": [
        {
          "address": "0x8aafd3ede9adb0ff97c7aebce82a919afb1c8764",
          "topics": [
            "0xddf252ad1be2c89b69c2b068fc378daa952ba7f163c4a11628f55a4df523b3ef",
            "0x000000000000000000000000c77f7fed3b5cc8249adc428c5f44c9063b9734b4",
            "0x0000000000000000000000000000000000000000000000000000000000000000"
          ],
          "data": "0x000000000000000000000000000000000000000000000000000000000b2f78b0",
          "blockHash": "0x1c7efbe0e0962399c8de72d42bb1b55dceedafccbe482ff93c9a94ea9530358f",
          "blockNumber": "0x73166c",
          "transactionHash": "0xb1ec4b7697dda5c39c245bb6d5523f10371e882160fec8544eb33d338104d8f3",
          "transactionIndex": "0x83",
          "logIndex": "0xbb",
          "removed": false
        },
        {
          "address": "0x8aafd3ede9adb0ff97c7aebce82a919afb1c8764",
          "topics": [
            "0xddf252ad1be2c89b69c2b068fc378daa952ba7f163c4a11628f55a4df523b3ef",
            "0x000000000000000000000000c77f7fed3b5cc8249adc428c5f44c9063b9734b4",
            "0x000000000000000000000000c77f7fed3b5cc8249adc428c5f44c9063b9734b4"
          ],
          "data": "0x00000000000000000000000000000000000000000000000000000000001717ae",
          "blockHash": "0x1c7efbe0e0962399c8de72d42bb1b55dceedafccbe482ff93c9a94ea9530358f",
          "blockNumber": "0x73166c",
          "transactionHash": "0xb1ec4b7697dda5c39c245bb6d5523f10371e882160fec8544eb33d338104d8f3",
          "transactionIndex": "0x83",
          "logIndex": "0xbc",
          "removed": false
        },
        {
          "address": "0x8aafd3ede9adb0ff97c7aebce82a919afb1c8764",
          "topics": [
            "0x4afcb4a87cdbd9974efdb92ee48bc8d7cd0ae4bf217004db3d080cbaee652ca7"
          ],
          "data": "0x00000000000000000000000000000000000000000000000000000000679009bc0000000000000000000000000000000000000000000000000004e4f2bbafc528000000000000000000000000000000000000000000000000000000000003fa03",
          "blockHash": "0x1c7efbe0e0962399c8de72d42bb1b55dceedafccbe482ff93c9a94ea9530358f",
          "blockNumber": "0x73166c",
          "transactionHash": "0xb1ec4b7697dda5c39c245bb6d5523f10371e882160fec8544eb33d338104d8f3",
          "transactionIndex": "0x83",
          "logIndex": "0xbd",
          "removed": false
        }
      ],
      "logsBloom": "0x00000000000000000000000000000000000000000600000000000000000000000000000000000000000000000000000000000000000000004000000000000000000000000000004000000008000000000000000000000000000000000000000000000000020000000000000000000800020000000000000000000010000000000000000000000000000000000000000000000000000000000000010000000000000000000000000000000000000000004000000000000000000000000000000000000002000000800000000000000000000000000000080000000000000020000000000000000000000000000000000000000000000000000000000000000000",
      "type": "0x2",
      "transactionHash": "0xb1ec4b7697dda5c39c245bb6d5523f10371e882160fec8544eb33d338104d8f3",
      "transactionIndex": "0x83",
      "blockHash": "0x1c7efbe0e0962399c8de72d42bb1b55dceedafccbe482ff93c9a94ea9530358f",
      "blockNumber": "0x73166c",
      "gasUsed": "0xf21f",
      "effectiveGasPrice": "0x47b82914",
      "from": "0xc77f7fed3b5cc8249adc428c5f44c9063b9734b4",
      "to": "0x8aafd3ede9adb0ff97c7aebce82a919afb1c8764",
      "contractAddress": null
    }
  ],
  "libraries": [],
  "pending": [],
  "returns": {},
  "timestamp": 1737492924,
  "chain": 11155111,
  "commit": "1d2fb70"
}