{
  "transactions": [
    {
      "hash": "0x898dcb71dd996f48a8937c8f007bb6433de2053c3ac52ed63b8bddf3ace34229",
      "transactionType": "CALL",
      "contractName": null,
      "contractAddress": "0x8aafd3ede9adb0ff97c7aebce82a919afb1c8764",
      "function": "sell(uint256)",
      "arguments": [
        "18248054965896774"
      ],
      "transaction": {
        "from": "0xc77f7fed3b5cc8249adc428c5f44c9063b9734b4",
        "to": "0x8aafd3ede9adb0ff97c7aebce82a919afb1c8764",
        "gas": "0x1724d",
        "value": "0x0",
        "input": "0xe4849b320000000000000000000000000000000000000000000000000040d48262158646",
        "nonce": "0x136c",
        "chainId": "0xaa36a7"
      },
      "additionalContracts": [],
      "isFixedGasLimit": false
    }
  ],
  "receipts": [
    {
      "status": "0x1",
      "cumulativeGasUsed": "0x151e8bf",
      "logs": [
        {
          "address": "0x8aafd3ede9adb0ff97c7aebce82a919afb1c8764",
          "topics": [
            "0xddf252ad1be2c89b69c2b068fc378daa952ba7f163c4a11628f55a4df523b3ef",
            "0x000000000000000000000000c77f7fed3b5cc8249adc428c5f44c9063b9734b4",
            "0x0000000000000000000000000000000000000000000000000000000000000000"
          ],
          "data": "0x00000000000000000000000000000000000000000000000000404fbcbb695200",
          "blockHash": "0x35f6237fb37580785712ab78a99bf6f2860be5c1cc7a32b69e7333d6b93bf9d4",
          "blockNumber": "0x731a8c",
          "transactionHash": "0x898dcb71dd996f48a8937c8f007bb6433de2053c3ac52ed63b8bddf3ace34229",
          "transactionIndex": "0x91",
          "logIndex": "0xb5",
          "removed": false
        },
        {
          "address": "0x8aafd3ede9adb0ff97c7aebce82a919afb1c8764",
          "topics": [
            "0xddf252ad1be2c89b69c2b068fc378daa952ba7f163c4a11628f55a4df523b3ef",
            "0x000000000000000000000000c77f7fed3b5cc8249adc428c5f44c9063b9734b4",
            "0x000000000000000000000000c77f7fed3b5cc8249adc428c5f44c9063b9734b4"
          ],
          "data": "0x000000000000000000000000000000000000000000000000000084c5a6ac3446",
          "blockHash": "0x35f6237fb37580785712ab78a99bf6f2860be5c1cc7a32b69e7333d6b93bf9d4",
          "blockNumber": "0x731a8c",
          "transactionHash": "0x898dcb71dd996f48a8937c8f007bb6433de2053c3ac52ed63b8bddf3ace34229",
          "transactionIndex": "0x91",
          "logIndex": "0xb6",
          "removed": false
        },
        {
          "address": "0x8aafd3ede9adb0ff97c7aebce82a919afb1c8764",
          "topics": [
            "0x4afcb4a87cdbd9974efdb92ee48bc8d7cd0ae4bf217004db3d080cbaee652ca7"
          ],
          "data": "0x0000000000000000000000000000000000000000000000000000000067903b60000000000000000000000000000000000000000000000000000c798b183db9b700000000000000000000000000000000000000000000000000003a46a369237e",
          "blockHash": "0x35f6237fb37580785712ab78a99bf6f2860be5c1cc7a32b69e7333d6b93bf9d4",
          "blockNumber": "0x731a8c",
          "transactionHash": "0x898dcb71dd996f48a8937c8f007bb6433de2053c3ac52ed63b8bddf3ace34229",
          "transactionIndex": "0x91",
          "logIndex": "0xb7",
          "removed": false
        }
      ],
      "logsBloom": "0x00000000000000000000000000000000000000000600000000000000000000000000000000000000000000000000000000000000000000004000000000000000000000000000004000000008000000000000000000000000000000000000000000000000020000000000000000000800020000000000000000000010000000000000000000000000000000000000000000000000000000000000010000000000000000000000000000000000000000004000000000000000000000000000000000000002000000800000000000000000000000000000080000000000000020000000000000000000000000000000000000000000000000000000000000000000",
      "type": "0x2",
      "transactionHash": "0x898dcb71dd996f48a8937c8f007bb6433de2053c3ac52ed63b8bddf3ace34229",
      "transactionIndex": "0x91",
      "blockHash": "0x35f6237fb37580785712ab78a99bf6f2860be5c1cc7a32b69e7333d6b93bf9d4",
      "blockNumber": "0x731a8c",
      "gasUsed": "0xfd33",
      "effectiveGasPrice": "0x4fd139d5",
      "from": "0xc77f7fed3b5cc8249adc428c5f44c9063b9734b4",
      "to": "0x8aafd3ede9adb0ff97c7aebce82a919afb1c8764",
      "contractAddress": null
    }
  ],
  "libraries": [],
  "pending": [],
  "returns": {},
  "timestamp": 1737505634,
  "chain": 11155111,
  "commit": "1d2fb70"
}