{
  "transactions": [
    {
      "hash": "0x48d1a012167ddb5b8f0e34df629fa49c353b47664ea24617c16c1eef5b99c4a2",
      "transactionType": "CALL",
      "contractName": null,
      "contractAddress": "0x58aea2fdd292e5a4d256cd00b6ffbd69d1abe2b0",
      "function": "leverage(uint256,uint256)",
      "arguments": [
        "10000000000000000000",
        "0"
      ],
      "transaction": {
        "from": "0xc77f7fed3b5cc8249adc428c5f44c9063b9734b4",
        "to": "0x58aea2fdd292e5a4d256cd00b6ffbd69d1abe2b0",
        "gas": "0x5d67c",
        "value": "0x186cc6acd4b0000",
        "input": "0x5e96263c0000000000000000000000000000000000000000000000008ac7230489e800000000000000000000000000000000000000000000000000000000000000000000",
        "nonce": "0x1801",
        "chainId": "0xaa36a7"
      },
      "additionalContracts": [],
      "isFixedGasLimit": false
    }
  ],
  "receipts": [
    {
      "status": "0x1",
      "cumulativeGasUsed": "0xda9286",
      "logs": [
        {
          "address": "0x58aea2fdd292e5a4d256cd00b6ffbd69d1abe2b0",
          "topics": [
            "0xddf252ad1be2c89b69c2b068fc378daa952ba7f163c4a11628f55a4df523b3ef",
            "0x0000000000000000000000000000000000000000000000000000000000000000",
            "0x00000000000000000000000058aea2fdd292e5a4d256cd00b6ffbd69d1abe2b0"
          ],
          "data": "0x00000000000000000000000000000000000000000000003da00392a2d8f35e70",
          "blockHash": "0x4b3c70c193d12d223ee4f878c217868cefb6edcebc8b0e24a56b108c04de1f8d",
          "blockNumber": "0x734b8e",
          "transactionHash": "0x48d1a012167ddb5b8f0e34df629fa49c353b47664ea24617c16c1eef5b99c4a2",
          "transactionIndex": "0x7b",
          "logIndex": "0x105",
          "removed": false
        },
        {
          "address": "0x58aea2fdd292e5a4d256cd00b6ffbd69d1abe2b0",
          "topics": [
            "0xddf252ad1be2c89b69c2b068fc378daa952ba7f163c4a11628f55a4df523b3ef",
            "0x0000000000000000000000000000000000000000000000000000000000000000",
            "0x000000000000000000000000c77f7fed3b5cc8249adc428c5f44c9063b9734b4"
          ],
          "data": "0x00000000000000000000000000000000000000000000000034a3cf7d4ecad105",
          "blockHash": "0x4b3c70c193d12d223ee4f878c217868cefb6edcebc8b0e24a56b108c04de1f8d",
          "blockNumber": "0x734b8e",
          "transactionHash": "0x48d1a012167ddb5b8f0e34df629fa49c353b47664ea24617c16c1eef5b99c4a2",
          "transactionIndex": "0x7b",
          "logIndex": "0x106",
          "removed": false
        },
        {
          "address": "0x58aea2fdd292e5a4d256cd00b6ffbd69d1abe2b0",
          "topics": [
            "0xaec00f5213a37254bc68a26b0685d1a5b2bf513e1e587c94c7df7f4a62b56c9c"
          ],
          "data": "0x00000000000000000000000000000000000000000000003da00392a2d8f35e7000000000000000000000000000000000000000000000000089405699bc9d000000000000000000000000000000000000000000000000000089405699bc9d000000000000000000000000000000000000000000000000003da00392a2d8f35e70",
          "blockHash": "0x4b3c70c193d12d223ee4f878c217868cefb6edcebc8b0e24a56b108c04de1f8d",
          "blockNumber": "0x734b8e",
          "transactionHash": "0x48d1a012167ddb5b8f0e34df629fa49c353b47664ea24617c16c1eef5b99c4a2",
          "transactionIndex": "0x7b",
          "logIndex": "0x107",
          "removed": false
        },
        {
          "address": "0x58aea2fdd292e5a4d256cd00b6ffbd69d1abe2b0",
          "topics": [
            "0x4afcb4a87cdbd9974efdb92ee48bc8d7cd0ae4bf217004db3d080cbaee652ca7"
          ],
          "data": "0x0000000000000000000000000000000000000000000000000000000067929744000000000000000000000000000000000000000000000000001ee89a998bbff70000000000000000000000000000000000000000000000008ac7230489e80000",
          "blockHash": "0x4b3c70c193d12d223ee4f878c217868cefb6edcebc8b0e24a56b108c04de1f8d",
          "blockNumber": "0x734b8e",
          "transactionHash": "0x48d1a012167ddb5b8f0e34df629fa49c353b47664ea24617c16c1eef5b99c4a2",
          "transactionIndex": "0x7b",
          "logIndex": "0x108",
          "removed": false
        }
      ],
      "logsBloom": "0x00000000000000000000000000000000400000000000000000000000000000000000000000000000020000000000000000000000000000004000000000000000000000000000000000000008000000000000000000000000000000000000400000000000020000000008000000000800020000000000000000000010000000000000000000000000000000000000000000000000000000000000010000200000000000000000000000000400000000004000000000000000000000001000000000000002000000800000000000000000000000000000080000000000000020000000000000000000000010000000000080000000000000000000000000000000",
      "type": "0x2",
      "transactionHash": "0x48d1a012167ddb5b8f0e34df629fa49c353b47664ea24617c16c1eef5b99c4a2",
      "transactionIndex": "0x7b",
      "blockHash": "0x4b3c70c193d12d223ee4f878c217868cefb6edcebc8b0e24a56b108c04de1f8d",
      "blockNumber": "0x734b8e",
      "gasUsed": "0x439fc",
      "effectiveGasPrice": "0x2627e7598",
      "from": "0xc77f7fed3b5cc8249adc428c5f44c9063b9734b4",
      "to": "0x58aea2fdd292e5a4d256cd00b6ffbd69d1abe2b0",
      "contractAddress": null
    }
  ],
  "libraries": [],
  "pending": [],
  "returns": {},
  "timestamp": 1737660230,
  "chain": 11155111,
  "commit": "f5162e9"
}