{
  "transactions": [
    {
      "hash": "0x8d4dac73a6962c4fe0ecde2fcbbd4dbbad8e2772e2e92061d4eb7b75b1a52bff",
      "transactionType": "CALL",
      "contractName": null,
      "contractAddress": "0xbf4a322f1496e5c3d34a9bcdb4c60567b38c7de2",
      "function": "sell(uint256)",
      "arguments": [
        "986473064979287536614"
      ],
      "transaction": {
        "from": "0xc77f7fed3b5cc8249adc428c5f44c9063b9734b4",
        "to": "0xbf4a322f1496e5c3d34a9bcdb4c60567b38c7de2",
        "gas": "0x16fea",
        "value": "0x0",
        "input": "0xe4849b320000000000000000000000000000000000000000000000357a105a0a554473e6",
        "nonce": "0xa39",
        "chainId": "0xaa36a7"
      },
      "additionalContracts": [],
      "isFixedGasLimit": false
    }
  ],
  "receipts": [
    {
      "status": "0x1",
      "cumulativeGasUsed": "0x7369ce",
      "logs": [
        {
          "address": "0xbf4a322f1496e5c3d34a9bcdb4c60567b38c7de2",
          "topics": [
            "0xddf252ad1be2c89b69c2b068fc378daa952ba7f163c4a11628f55a4df523b3ef",
            "0x000000000000000000000000c77f7fed3b5cc8249adc428c5f44c9063b9734b4",
            "0x0000000000000000000000000000000000000000000000000000000000000000"
          ],
          "data": "0x0000000000000000000000000000000000000000000000357a105a0a554473e6",
          "blockHash": "0x88133d09b286a5a74f254d7ba38712ff9267a374006abab7f68e8e78598ad0a2",
          "blockNumber": "0x725a0f",
          "transactionHash": "0x8d4dac73a6962c4fe0ecde2fcbbd4dbbad8e2772e2e92061d4eb7b75b1a52bff",
          "transactionIndex": "0x3a",
          "logIndex": "0x54",
          "removed": false
        },
        {
          "address": "0xbf4a322f1496e5c3d34a9bcdb4c60567b38c7de2",
          "topics": [
            "0x4afcb4a87cdbd9974efdb92ee48bc8d7cd0ae4bf217004db3d080cbaee652ca7"
          ],
          "data": "0x0000000000000000000000000000000000000000000000000000000067872b040000000000000000000000000000000000000000000000000003938a5362ff9c0000000000000000000000000000000000000000000000000dc7e3f11dc36048",
          "blockHash": "0x88133d09b286a5a74f254d7ba38712ff9267a374006abab7f68e8e78598ad0a2",
          "blockNumber": "0x725a0f",
          "transactionHash": "0x8d4dac73a6962c4fe0ecde2fcbbd4dbbad8e2772e2e92061d4eb7b75b1a52bff",
          "transactionIndex": "0x3a",
          "logIndex": "0x55",
          "removed": false
        }
      ],
      "logsBloom": "0x00000000000000000000000000000000000000000000000000000000000000000000000000000000000000000000000000000000000000004000000000000000000000000000000000000008000000000000001000000000000000000000000000000000020000000000000000000800020000000000000000000010000000000000000000000000000000000000000000000000000008000000010000000000000000000000000000000000000000004000000000000000000000000000000000000002000000800000000000001000000000000000080000000000000020000000000000000000000000000000000000000000000000000000000000000000",
      "type": "0x2",
      "transactionHash": "0x8d4dac73a6962c4fe0ecde2fcbbd4dbbad8e2772e2e92061d4eb7b75b1a52bff",
      "transactionIndex": "0x3a",
      "blockHash": "0x88133d09b286a5a74f254d7ba38712ff9267a374006abab7f68e8e78598ad0a2",
      "blockNumber": "0x725a0f",
      "gasUsed": "0xfb91",
      "effectiveGasPrice": "0x752d48f6d",
      "from": "0xc77f7fed3b5cc8249adc428c5f44c9063b9734b4",
      "to": "0xbf4a322f1496e5c3d34a9bcdb4c60567b38c7de2",
      "contractAddress": null
    }
  ],
  "libraries": [],
  "pending": [],
  "returns": {},
  "timestamp": 1736911620,
  "chain": 11155111,
  "commit": "51a374b"
}