{
  "transactions": [
    {
      "hash": "0xb753b92033aa241c7a5e7bcdea9e030fef140510bafd8892ae53d47aaf126ea1",
      "transactionType": "CALL",
      "contractName": null,
      "contractAddress": "0xbf4a322f1496e5c3d34a9bcdb4c60567b38c7de2",
      "function": "buy(address)",
      "arguments": [
        "0xC77f7fed3b5Cc8249aDc428c5F44C9063B9734b4"
      ],
      "transaction": {
        "from": "0xc77f7fed3b5cc8249adc428c5f44c9063b9734b4",
        "to": "0xbf4a322f1496e5c3d34a9bcdb4c60567b38c7de2",
        "gas": "0x1b309",
        "value": "0xde0b6b3a7640000",
        "input": "0xf088d547000000000000000000000000c77f7fed3b5cc8249adc428c5f44c9063b9734b4",
        "nonce": "0xa26",
        "chainId": "0xaa36a7"
      },
      "additionalContracts": [],
      "isFixedGasLimit": false
    }
  ],
  "receipts": [
    {
      "status": "0x1",
      "cumulativeGasUsed": "0x10a33ea",
      "logs": [
        {
          "address": "0xbf4a322f1496e5c3d34a9bcdb4c60567b38c7de2",
          "topics": [
            "0xddf252ad1be2c89b69c2b068fc378daa952ba7f163c4a11628f55a4df523b3ef",
            "0x0000000000000000000000000000000000000000000000000000000000000000",
            "0x000000000000000000000000c77f7fed3b5cc8249adc428c5f44c9063b9734b4"
          ],
          "data": "0x000000000000000000000000000000000000000000000035540d46097848799f",
          "blockHash": "0x71170f83ebe3832692da7db0cdd2788b3276fb3292cd384fe7565b1400a27264",
          "blockNumber": "0x7259e9",
          "transactionHash": "0xb753b92033aa241c7a5e7bcdea9e030fef140510bafd8892ae53d47aaf126ea1",
          "transactionIndex": "0x85",
          "logIndex": "0xd9",
          "removed": false
        },
        {
          "address": "0xbf4a322f1496e5c3d34a9bcdb4c60567b38c7de2",
          "topics": [
            "0xddf252ad1be2c89b69c2b068fc378daa952ba7f163c4a11628f55a4df523b3ef",
            "0x0000000000000000000000000000000000000000000000000000000000000000",
            "0x000000000000000000000000c77f7fed3b5cc8249adc428c5f44c9063b9734b4"
          ],
          "data": "0x000000000000000000000000000000000000000000000000296948afb638ac82",
          "blockHash": "0x71170f83ebe3832692da7db0cdd2788b3276fb3292cd384fe7565b1400a27264",
          "blockNumber": "0x7259e9",
          "transactionHash": "0xb753b92033aa241c7a5e7bcdea9e030fef140510bafd8892ae53d47aaf126ea1",
          "transactionIndex": "0x85",
          "logIndex": "0xda",
          "removed": false
        },
        {
          "address": "0xbf4a322f1496e5c3d34a9bcdb4c60567b38c7de2",
          "topics": [
            "0x4afcb4a87cdbd9974efdb92ee48bc8d7cd0ae4bf217004db3d080cbaee652ca7"
          ],
          "data": "0x00000000000000000000000000000000000000000000000000000000678729300000000000000000000000000000000000000000000000000003934c026db1df0000000000000000000000000000000000000000000000000de0b6b3a7640000",
          "blockHash": "0x71170f83ebe3832692da7db0cdd2788b3276fb3292cd384fe7565b1400a27264",
          "blockNumber": "0x7259e9",
          "transactionHash": "0xb753b92033aa241c7a5e7bcdea9e030fef140510bafd8892ae53d47aaf126ea1",
          "transactionIndex": "0x85",
          "logIndex": "0xdb",
          "removed": false
        }
      ],
      "logsBloom": "0x00000000000000000000000000000000000000000000000000000000000000000000000000000000000000000000000000000000000000004000000000000000000000000000000000000008000000000000001000000000000000000000000000000000020000000000000000000800020000000000000000000010000000000000000000000000000000000000000000000000000008000000010000000000000000000000000000000000000000004000000000000000000000000000000000000002000000800000000000001000000000000000080000000000000020000000000000000000000000000000000000000000000000000000000000000000",
      "type": "0x2",
      "transactionHash": "0xb753b92033aa241c7a5e7bcdea9e030fef140510bafd8892ae53d47aaf126ea1",
      "transactionIndex": "0x85",
      "blockHash": "0x71170f83ebe3832692da7db0cdd2788b3276fb3292cd384fe7565b1400a27264",
      "blockNumber": "0x7259e9",
      "gasUsed": "0x13af6",
      "effectiveGasPrice": "0x67762ca42",
      "from": "0xc77f7fed3b5cc8249adc428c5f44c9063b9734b4",
      "to": "0xbf4a322f1496e5c3d34a9bcdb4c60567b38c7de2",
      "contractAddress": null
    }
  ],
  "libraries": [],
  "pending": [],
  "returns": {},
  "timestamp": 1736911153,
  "chain": 11155111,
  "commit": "51a374b"
}