{
  "transactions": [
    {
      "hash": "0x9e3b356064c0cd7ecf456550d6100e4eaef93152698f00a6306340fca93acb48",
      "transactionType": "CALL",
      "contractName": null,
      "contractAddress": "0x270e88f8683660553e8ba4eb2ad7c91a1710d769",
      "function": "sell(uint256)",
      "arguments": [
        "959664161466250970136"
      ],
      "transaction": {
        "from": "0xc77f7fed3b5cc8249adc428c5f44c9063b9734b4",
        "to": "0x270e88f8683660553e8ba4eb2ad7c91a1710d769",
        "gas": "0x15b6b",
        "value": "0x0",
        "input": "0xe4849b320000000000000000000000000000000000000000000000340603fe55bd004418",
        "nonce": "0x5ad",
        "chainId": "0xaa36a7"
      },
      "additionalContracts": [],
      "isFixedGasLimit": false
    }
  ],
  "receipts": [
    {
      "status": "0x1",
      "cumulativeGasUsed": "0xb394ab",
      "logs": [
        {
          "address": "0x270e88f8683660553e8ba4eb2ad7c91a1710d769",
          "topics": [
            "0xddf252ad1be2c89b69c2b068fc378daa952ba7f163c4a11628f55a4df523b3ef",
            "0x000000000000000000000000c77f7fed3b5cc8249adc428c5f44c9063b9734b4",
            "0x0000000000000000000000000000000000000000000000000000000000000000"
          ],
          "data": "0x0000000000000000000000000000000000000000000000340603fe55bd004418",
          "blockHash": "0x6667647d6efdd8667ed25be4defa6b08f5347ff49761e7c661ef0123eec54cdd",
          "blockNumber": "0x725267",
          "transactionHash": "0x9e3b356064c0cd7ecf456550d6100e4eaef93152698f00a6306340fca93acb48",
          "transactionIndex": "0x5a",
          "logIndex": "0xa6",
          "removed": false
        },
        {
          "address": "0x270e88f8683660553e8ba4eb2ad7c91a1710d769",
          "topics": [
            "0x4afcb4a87cdbd9974efdb92ee48bc8d7cd0ae4bf217004db3d080cbaee652ca7"
          ],
          "data": "0x000000000000000000000000000000000000000000000000000000006786cec40000000000000000000000000000000000000000000000000003ad621a75f8980000000000000000000000000000000000000000000000000dc83f26dd6be4db",
          "blockHash": "0x6667647d6efdd8667ed25be4defa6b08f5347ff49761e7c661ef0123eec54cdd",
          "blockNumber": "0x725267",
          "transactionHash": "0x9e3b356064c0cd7ecf456550d6100e4eaef93152698f00a6306340fca93acb48",
          "transactionIndex": "0x5a",
          "logIndex": "0xa7",
          "removed": false
        }
      ],
      "logsBloom": "0x00000000000000000000000000000000000000000000000000000000000000000000000000000000000000000000000020000000000000004000000000000000000000000000000000000008000000000000000000000000000000000000000000000000020000000000000000000800020000000000000000000010000000000000000000010000000000000000000000000000000000000000010000000000000000000000000000000000000000004000000000000000000000000000000000000002000000800000000000000000000000000000080000008000000020000000000000000000000000000000000000000000000000000000000000000000",
      "type": "0x2",
      "transactionHash": "0x9e3b356064c0cd7ecf456550d6100e4eaef93152698f00a6306340fca93acb48",
      "transactionIndex": "0x5a",
      "blockHash": "0x6667647d6efdd8667ed25be4defa6b08f5347ff49761e7c661ef0123eec54cdd",
      "blockNumber": "0x725267",
      "gasUsed": "0xfb87",
      "effectiveGasPrice": "0x4642ddbe1",
      "from": "0xc77f7fed3b5cc8249adc428c5f44c9063b9734b4",
      "to": "0x270e88f8683660553e8ba4eb2ad7c91a1710d769",
      "contractAddress": null
    }
  ],
  "libraries": [],
  "pending": [],
  "returns": {},
  "timestamp": 1736888006,
  "chain": 11155111,
  "commit": "51a374b"
}