{
  "transactions": [
    {
      "hash": "0x5d44d07620887ac458815a5a7ce5f9de20c9a5a6c0b88e53f7c50e1c3c452031",
      "transactionType": "CALL",
      "contractName": null,
      "contractAddress": "0x270e88f8683660553e8ba4eb2ad7c91a1710d769",
      "function": "buy(address)",
      "arguments": [
        "0xC77f7fed3b5Cc8249aDc428c5F44C9063B9734b4"
      ],
      "transaction": {
        "from": "0xc77f7fed3b5cc8249adc428c5f44c9063b9734b4",
        "to": "0x270e88f8683660553e8ba4eb2ad7c91a1710d769",
        "gas": "0x1b30c",
        "value": "0xde0b6b3a7640000",
        "input": "0xf088d547000000000000000000000000c77f7fed3b5cc8249adc428c5f44c9063b9734b4",
        "nonce": "0x56c",
        "chainId": "0xaa36a7"
      },
      "additionalContracts": [],
      "isFixedGasLimit": false
    }
  ],
  "receipts": [
    {
      "status": "0x1",
      "cumulativeGasUsed": "0xf07a1a",
      "logs": [
        {
          "address": "0x270e88f8683660553e8ba4eb2ad7c91a1710d769",
          "topics": [
            "0xddf252ad1be2c89b69c2b068fc378daa952ba7f163c4a11628f55a4df523b3ef",
            "0x0000000000000000000000000000000000000000000000000000000000000000",
            "0x000000000000000000000000c77f7fed3b5cc8249adc428c5f44c9063b9734b4"
          ],
          "data": "0x0000000000000000000000000000000000000000000000346326e54e1737959d",
          "blockHash": "0x69fb8a9744a2741bd609f4660e79c11b985c1c59cea486c1d4c0bb112882a833",
          "blockNumber": "0x725216",
          "transactionHash": "0x5d44d07620887ac458815a5a7ce5f9de20c9a5a6c0b88e53f7c50e1c3c452031",
          "transactionIndex": "0x6c",
          "logIndex": "0xb6",
          "removed": false
        },
        {
          "address": "0x270e88f8683660553e8ba4eb2ad7c91a1710d769",
          "topics": [
            "0xddf252ad1be2c89b69c2b068fc378daa952ba7f163c4a11628f55a4df523b3ef",
            "0x0000000000000000000000000000000000000000000000000000000000000000",
            "0x000000000000000000000000c77f7fed3b5cc8249adc428c5f44c9063b9734b4"
          ],
          "data": "0x00000000000000000000000000000000000000000000000028ae3788ce5160e8",
          "blockHash": "0x69fb8a9744a2741bd609f4660e79c11b985c1c59cea486c1d4c0bb112882a833",
          "blockNumber": "0x725216",
          "transactionHash": "0x5d44d07620887ac458815a5a7ce5f9de20c9a5a6c0b88e53f7c50e1c3c452031",
          "transactionIndex": "0x6c",
          "logIndex": "0xb7",
          "removed": false
        },
        {
          "address": "0x270e88f8683660553e8ba4eb2ad7c91a1710d769",
          "topics": [
            "0x4afcb4a87cdbd9974efdb92ee48bc8d7cd0ae4bf217004db3d080cbaee652ca7"
          ],
          "data": "0x000000000000000000000000000000000000000000000000000000006786caf80000000000000000000000000000000000000000000000000003a3d54c2fbabf0000000000000000000000000000000000000000000000000de0b6b3a7640000",
          "blockHash": "0x69fb8a9744a2741bd609f4660e79c11b985c1c59cea486c1d4c0bb112882a833",
          "blockNumber": "0x725216",
          "transactionHash": "0x5d44d07620887ac458815a5a7ce5f9de20c9a5a6c0b88e53f7c50e1c3c452031",
          "transactionIndex": "0x6c",
          "logIndex": "0xb8",
          "removed": false
        }
      ],
      "logsBloom": "0x00000000000000000000000000000000000000000000000000000000000000000000000000000000000000000000000020000000000000004000000000000000000000000000000000000008000000000000000000000000000000000000000000000000020000000000000000000800020000000000000000000010000000000000000000010000000000000000000000000000000000000000010000000000000000000000000000000000000000004000000000000000000000000000000000000002000000800000000000000000000000000000080000008000000020000000000000000000000000000000000000000000000000000000000000000000",
      "type": "0x2",
      "transactionHash": "0x5d44d07620887ac458815a5a7ce5f9de20c9a5a6c0b88e53f7c50e1c3c452031",
      "transactionIndex": "0x6c",
      "blockHash": "0x69fb8a9744a2741bd609f4660e79c11b985c1c59cea486c1d4c0bb112882a833",
      "blockNumber": "0x725216",
      "gasUsed": "0x13af8",
      "effectiveGasPrice": "0x4a5198811",
      "from": "0xc77f7fed3b5cc8249adc428c5f44c9063b9734b4",
      "to": "0x270e88f8683660553e8ba4eb2ad7c91a1710d769",
      "contractAddress": null
    }
  ],
  "libraries": [],
  "pending": [],
  "returns": {},
  "timestamp": 1736887034,
  "chain": 11155111,
  "commit": "51a374b"
}