{
  "transactions": [
    {
      "hash": "0xf68e106896c95ed23aa9bcdfc894324a4ce22438a9c914ec12e08f1c046d84f4",
      "transactionType": "CALL",
      "contractName": null,
      "contractAddress": "0x270e88f8683660553e8ba4eb2ad7c91a1710d769",
      "function": "sell(uint256)",
      "arguments": [
        "729426640915161808276"
      ],
      "transaction": {
        "from": "0xc77f7fed3b5cc8249adc428c5f44c9063b9734b4",
        "to": "0x270e88f8683660553e8ba4eb2ad7c91a1710d769",
        "gas": "0x16fec",
        "value": "0x0",
        "input": "0xe4849b320000000000000000000000000000000000000000000000278ad4013e8ea1fd94",
        "nonce": "0x7b4",
        "chainId": "0xaa36a7"
      },
      "additionalContracts": [],
      "isFixedGasLimit": false
    }
  ],
  "receipts": [
    {
      "status": "0x1",
      "cumulativeGasUsed": "0x574b3c",
      "logs": [
        {
          "address": "0x270e88f8683660553e8ba4eb2ad7c91a1710d769",
          "topics": [
            "0xddf252ad1be2c89b69c2b068fc378daa952ba7f163c4a11628f55a4df523b3ef",
            "0x000000000000000000000000c77f7fed3b5cc8249adc428c5f44c9063b9734b4",
            "0x0000000000000000000000000000000000000000000000000000000000000000"
          ],
          "data": "0x0000000000000000000000000000000000000000000000278ad4013e8ea1fd94",
          "blockHash": "0xafdca3331474b1244d75c62c4bc7adeb418ad07f9c98597fde71f05bf1f1fb68",
          "blockNumber": "0x7254ea",
          "transactionHash": "0xf68e106896c95ed23aa9bcdfc894324a4ce22438a9c914ec12e08f1c046d84f4",
          "transactionIndex": "0x3d",
          "logIndex": "0x63",
          "removed": false
        },
        {
          "address": "0x270e88f8683660553e8ba4eb2ad7c91a1710d769",
          "topics": [
            "0x4afcb4a87cdbd9974efdb92ee48bc8d7cd0ae4bf217004db3d080cbaee652ca7"
          ],
          "data": "0x000000000000000000000000000000000000000000000000000000006786ed000000000000000000000000000000000000000000000000000004d66e5ea4384e0000000000000000000000000000000000000000000000000dc82767ca7a8866",
          "blockHash": "0xafdca3331474b1244d75c62c4bc7adeb418ad07f9c98597fde71f05bf1f1fb68",
          "blockNumber": "0x7254ea",
          "transactionHash": "0xf68e106896c95ed23aa9bcdfc894324a4ce22438a9c914ec12e08f1c046d84f4",
          "transactionIndex": "0x3d",
          "logIndex": "0x64",
          "removed": false
        }
      ],
      "logsBloom": "0x00000000000000000000000000000000000000000000000000000000000000000000000000000000000000000000000020000000000000004000000000000000000000000000000000000008000000000000000000000000000000000000000000000000020000000000000000000800020000000000000000000010000000000000000000010000000000000000000000000000000000000000010000000000000000000000000000000000000000004000000000000000000000000000000000000002000000800000000000000000000000000000080000008000000020000000000000000000000000000000000000000000000000000000000000000000",
      "type": "0x2",
      "transactionHash": "0xf68e106896c95ed23aa9bcdfc894324a4ce22438a9c914ec12e08f1c046d84f4",
      "transactionIndex": "0x3d",
      "blockHash": "0xafdca3331474b1244d75c62c4bc7adeb418ad07f9c98597fde71f05bf1f1fb68",
      "blockNumber": "0x7254ea",
      "gasUsed": "0xfb93",
      "effectiveGasPrice": "0xdd8da5d5",
      "from": "0xc77f7fed3b5cc8249adc428c5f44c9063b9734b4",
      "to": "0x270e88f8683660553e8ba4eb2ad7c91a1710d769",
      "contractAddress": null
    }
  ],
  "libraries": [],
  "pending": [],
  "returns": {},
  "timestamp": 1736895744,
  "chain": 11155111,
  "commit": "51a374b"
}