{
  "transactions": [
    {
      "hash": "0xceee804f4eb95a7c72f4163388b4ee93e9485fec135e3317c28263563676727a",
      "transactionType": "CALL",
      "contractName": null,
      "contractAddress": "0xd7bc75898e513accccf720a874d44dab5a4b6223",
      "function": "sell(uint256)",
      "arguments": [
        "9929991458216871094"
      ],
      "transaction": {
        "from": "0xc77f7fed3b5cc8249adc428c5f44c9063b9734b4",
        "to": "0xd7bc75898e513accccf720a874d44dab5a4b6223",
        "gas": "0x15b6b",
        "value": "0x0",
        "input": "0xe4849b3200000000000000000000000000000000000000000000000089ce6a9eb1ae04b6",
        "nonce": "0xf9",
        "chainId": "0xaa36a7"
      },
      "additionalContracts": [],
      "isFixedGasLimit": false
    }
  ],
  "receipts": [
    {
      "status": "0x1",
      "cumulativeGasUsed": "0xccdb7",
      "logs": [
        {
          "address": "0xd7bc75898e513accccf720a874d44dab5a4b6223",
          "topics": [
            "0xddf252ad1be2c89b69c2b068fc378daa952ba7f163c4a11628f55a4df523b3ef",
            "0x000000000000000000000000c77f7fed3b5cc8249adc428c5f44c9063b9734b4",
            "0x0000000000000000000000000000000000000000000000000000000000000000"
          ],
          "data": "0x00000000000000000000000000000000000000000000000089ce6a9eb1ae04b6",
          "blockHash": "0xef6bf71dcc9f484cab9e3b973378bc20821eb1517b7893a3f16ac7eaace8981e",
          "blockNumber": "0x72398a",
          "transactionHash": "0xceee804f4eb95a7c72f4163388b4ee93e9485fec135e3317c28263563676727a",
          "transactionIndex": "0x5",
          "logIndex": "0xd",
          "removed": false
        },
        {
          "address": "0xd7bc75898e513accccf720a874d44dab5a4b6223",
          "topics": [
            "0x4afcb4a87cdbd9974efdb92ee48bc8d7cd0ae4bf217004db3d080cbaee652ca7"
          ],
          "data": "0x000000000000000000000000000000000000000000000000000000006785a3cc00000000000000000000000000000000000000000000000000038d7f8c7eb4e70000000000000000000000000000000000000000000000000023474f493d2797",
          "blockHash": "0xef6bf71dcc9f484cab9e3b973378bc20821eb1517b7893a3f16ac7eaace8981e",
          "blockNumber": "0x72398a",
          "transactionHash": "0xceee804f4eb95a7c72f4163388b4ee93e9485fec135e3317c28263563676727a",
          "transactionIndex": "0x5",
          "logIndex": "0xe",
          "removed": false
        }
      ],
      "logsBloom": "0x00000000000000000000000000000000000000000000000000000000000000000000000000000000000000000000000000000000000000004000000000000000000000000000000000000008000000000000000000000000000000000000000000000000020000000000000000000800020000000000000000000010000000000000000000000000000000000000000000000000000000000000010000000000000000000000000000000000000000004000001000000000000000000000000000000002000000800000000000004000000000000000080000000000000020000000000000000000000000000000000000000000080000000000000000000000",
      "type": "0x2",
      "transactionHash": "0xceee804f4eb95a7c72f4163388b4ee93e9485fec135e3317c28263563676727a",
      "transactionIndex": "0x5",
      "blockHash": "0xef6bf71dcc9f484cab9e3b973378bc20821eb1517b7893a3f16ac7eaace8981e",
      "blockNumber": "0x72398a",
      "gasUsed": "0xfb87",
      "effectiveGasPrice": "0x13a38aea2",
      "from": "0xc77f7fed3b5cc8249adc428c5f44c9063b9734b4",
      "to": "0xd7bc75898e513accccf720a874d44dab5a4b6223",
      "contractAddress": null
    }
  ],
  "libraries": [],
  "pending": [],
  "returns": {},
  "timestamp": 1736811469,
  "chain": 11155111,
  "commit": "51a374b"
}