{
  "transactions": [
    {
      "hash": "0x12c95c744140cb248061b9102285a76d10470f45c2268515e353728f546b388f",
      "transactionType": "CALL",
      "contractName": null,
      "contractAddress": "0x8aafd3ede9adb0ff97c7aebce82a919afb1c8764",
      "function": "buy(address)",
      "arguments": [
        "0xC77f7fed3b5Cc8249aDc428c5F44C9063B9734b4"
      ],
      "transaction": {
        "from": "0xc77f7fed3b5cc8249adc428c5f44c9063b9734b4",
        "to": "0x8aafd3ede9adb0ff97c7aebce82a919afb1c8764",
        "gas": "0x156ea",
        "value": "0xde0b6b3a7640000",
        "input": "0xf088d547000000000000000000000000c77f7fed3b5cc8249adc428c5f44c9063b9734b4",
        "nonce": "0x14bf",
        "chainId": "0xaa36a7"
      },
      "additionalContracts": [],
      "isFixedGasLimit": false
    }
  ],
  "receipts": [
    {
      "status": "0x1",
      "cumulativeGasUsed": "0xb0da5b",
      "logs": [
        {
          "address": "0x8aafd3ede9adb0ff97c7aebce82a919afb1c8764",
          "topics": [
            "0xddf252ad1be2c89b69c2b068fc378daa952ba7f163c4a11628f55a4df523b3ef",
            "0x0000000000000000000000000000000000000000000000000000000000000000",
            "0x000000000000000000000000c77f7fed3b5cc8249adc428c5f44c9063b9734b4"
          ],
          "data": "0x00000000000000000000000000000000000000000000000bb747592bfc785008",
          "blockHash": "0xfdcaba106c4f8fcde57cc47881738cfd6e27abfe9567b614ff651a7974b55c4f",
          "blockNumber": "0x731c1c",
          "transactionHash": "0x12c95c744140cb248061b9102285a76d10470f45c2268515e353728f546b388f",
          "transactionIndex": "0x7e",
          "logIndex": "0x8e",
          "removed": false
        },
        {
          "address": "0x8aafd3ede9adb0ff97c7aebce82a919afb1c8764",
          "topics": [
            "0xddf252ad1be2c89b69c2b068fc378daa952ba7f163c4a11628f55a4df523b3ef",
            "0x0000000000000000000000000000000000000000000000000000000000000000",
            "0x000000000000000000000000c77f7fed3b5cc8249adc428c5f44c9063b9734b4"
          ],
          "data": "0x00000000000000000000000000000000000000000000000009190acedcc20855",
          "blockHash": "0xfdcaba106c4f8fcde57cc47881738cfd6e27abfe9567b614ff651a7974b55c4f",
          "blockNumber": "0x731c1c",
          "transactionHash": "0x12c95c744140cb248061b9102285a76d10470f45c2268515e353728f546b388f",
          "transactionIndex": "0x7e",
          "logIndex": "0x8f",
          "removed": false
        },
        {
          "address": "0x8aafd3ede9adb0ff97c7aebce82a919afb1c8764",
          "topics": [
            "0x4afcb4a87cdbd9974efdb92ee48bc8d7cd0ae4bf217004db3d080cbaee652ca7"
          ],
          "data": "0x0000000000000000000000000000000000000000000000000000000067904e2c00000000000000000000000000000000000000000000000000104ca03fbbcff40000000000000000000000000000000000000000000000000de0b6b3a7640000",
          "blockHash": "0xfdcaba106c4f8fcde57cc47881738cfd6e27abfe9567b614ff651a7974b55c4f",
          "blockNumber": "0x731c1c",
          "transactionHash": "0x12c95c744140cb248061b9102285a76d10470f45c2268515e353728f546b388f",
          "transactionIndex": "0x7e",
          "logIndex": "0x90",
          "removed": false
        }
      ],
      "logsBloom": "0x00000000000000000000000000000000000000000600000000000000000000000000000000000000000000000000000000000000000000004000000000000000000000000000004000000008000000000000000000000000000000000000000000000000020000000000000000000800020000000000000000000010000000000000000000000000000000000000000000000000000000000000010000000000000000000000000000000000000000004000000000000000000000000000000000000002000000800000000000000000000000000000080000000000000020000000000000000000000000000000000000000000000000000000000000000000",
      "type": "0x2",
      "transactionHash": "0x12c95c744140cb248061b9102285a76d10470f45c2268515e353728f546b388f",
      "transactionIndex": "0x7e",
      "blockHash": "0xfdcaba106c4f8fcde57cc47881738cfd6e27abfe9567b614ff651a7974b55c4f",
      "blockNumber": "0x731c1c",
      "gasUsed": "0xf844",
      "effectiveGasPrice": "0x10ba79003",
      "from": "0xc77f7fed3b5cc8249adc428c5f44c9063b9734b4",
      "to": "0x8aafd3ede9adb0ff97c7aebce82a919afb1c8764",
      "contractAddress": null
    }
  ],
  "libraries": [],
  "pending": [],
  "returns": {},
  "timestamp": 1737510445,
  "chain": 11155111,
  "commit": "1d2fb70"
}