{
  "transactions": [
    {
      "hash": "0x2c0054f082e4af8d0b0e0a30045361844807511a8a99735c363bbd9a602e93ed",
      "transactionType": "CALL",
      "contractName": null,
      "contractAddress": "0xbf4a322f1496e5c3d34a9bcdb4c60567b38c7de2",
      "function": "buy(address)",
      "arguments": [
        "0xC77f7fed3b5Cc8249aDc428c5F44C9063B9734b4"
      ],
      "transaction": {
        "from": "0xc77f7fed3b5cc8249adc428c5f44c9063b9734b4",
        "to": "0xbf4a322f1496e5c3d34a9bcdb4c60567b38c7de2",
        "gas": "0x1b309",
        "value": "0xde0b6b3a7640000",
        "input": "0xf088d547000000000000000000000000c77f7fed3b5cc8249adc428c5f44c9063b9734b4",
        "nonce": "0xa4a",
        "chainId": "0xaa36a7"
      },
      "additionalContracts": [],
      "isFixedGasLimit": false
    }
  ],
  "receipts": [
    {
      "status": "0x1",
      "cumulativeGasUsed": "0xacd0c2",
      "logs": [
        {
          "address": "0xbf4a322f1496e5c3d34a9bcdb4c60567b38c7de2",
          "topics": [
            "0xddf252ad1be2c89b69c2b068fc378daa952ba7f163c4a11628f55a4df523b3ef",
            "0x0000000000000000000000000000000000000000000000000000000000000000",
            "0x000000000000000000000000c77f7fed3b5cc8249adc428c5f44c9063b9734b4"
          ],
          "data": "0x0000000000000000000000000000000000000000000000354d468e48e6264587",
          "blockHash": "0x6cf543fb772c9e8495962d6b5e1d390f592c365345a8da3609758af0a975b353",
          "blockNumber": "0x725a22",
          "transactionHash": "0x2c0054f082e4af8d0b0e0a30045361844807511a8a99735c363bbd9a602e93ed",
          "transactionIndex": "0x4a",
          "logIndex": "0x68",
          "removed": false
        },
        {
          "address": "0xbf4a322f1496e5c3d34a9bcdb4c60567b38c7de2",
          "topics": [
            "0xddf252ad1be2c89b69c2b068fc378daa952ba7f163c4a11628f55a4df523b3ef",
            "0x0000000000000000000000000000000000000000000000000000000000000000",
            "0x000000000000000000000000c77f7fed3b5cc8249adc428c5f44c9063b9734b4"
          ],
          "data": "0x0000000000000000000000000000000000000000000000002964059e6ca6e272",
          "blockHash": "0x6cf543fb772c9e8495962d6b5e1d390f592c365345a8da3609758af0a975b353",
          "blockNumber": "0x725a22",
          "transactionHash": "0x2c0054f082e4af8d0b0e0a30045361844807511a8a99735c363bbd9a602e93ed",
          "transactionIndex": "0x4a",
          "logIndex": "0x69",
          "removed": false
        },
        {
          "address": "0xbf4a322f1496e5c3d34a9bcdb4c60567b38c7de2",
          "topics": [
            "0x4afcb4a87cdbd9974efdb92ee48bc8d7cd0ae4bf217004db3d080cbaee652ca7"
          ],
          "data": "0x0000000000000000000000000000000000000000000000000000000067872be8000000000000000000000000000000000000000000000000000393c05e9f52aa0000000000000000000000000000000000000000000000000de0b6b3a7640000",
          "blockHash": "0x6cf543fb772c9e8495962d6b5e1d390f592c365345a8da3609758af0a975b353",
          "blockNumber": "0x725a22",
          "transactionHash": "0x2c0054f082e4af8d0b0e0a30045361844807511a8a99735c363bbd9a602e93ed",
          "transactionIndex": "0x4a",
          "logIndex": "0x6a",
          "removed": false
        }
      ],
      "logsBloom": "0x00000000000000000000000000000000000000000000000000000000000000000000000000000000000000000000000000000000000000004000000000000000000000000000000000000008000000000000001000000000000000000000000000000000020000000000000000000800020000000000000000000010000000000000000000000000000000000000000000000000000008000000010000000000000000000000000000000000000000004000000000000000000000000000000000000002000000800000000000001000000000000000080000000000000020000000000000000000000000000000000000000000000000000000000000000000",
      "type": "0x2",
      "transactionHash": "0x2c0054f082e4af8d0b0e0a30045361844807511a8a99735c363bbd9a602e93ed",
      "transactionIndex": "0x4a",
      "blockHash": "0x6cf543fb772c9e8495962d6b5e1d390f592c365345a8da3609758af0a975b353",
      "blockNumber": "0x725a22",
      "gasUsed": "0x13af6",
      "effectiveGasPrice": "0x5e4d63ff2",
      "from": "0xc77f7fed3b5cc8249adc428c5f44c9063b9734b4",
      "to": "0xbf4a322f1496e5c3d34a9bcdb4c60567b38c7de2",
      "contractAddress": null
    }
  ],
  "libraries": [],
  "pending": [],
  "returns": {},
  "timestamp": 1736911849,
  "chain": 11155111,
  "commit": "51a374b"
}