{
  "transactions": [
    {
      "hash": "0x59cbbf650a4a7647c6951cd683e10de72ffd6f9e78b52f292750cf009611c9a0",
      "transactionType": "CALL",
      "contractName": null,
      "contractAddress": "0x270e88f8683660553e8ba4eb2ad7c91a1710d769",
      "function": "sell(uint256)",
      "arguments": [
        "753125258902863382896"
      ],
      "transaction": {
        "from": "0xc77f7fed3b5cc8249adc428c5f44c9063b9734b4",
        "to": "0x270e88f8683660553e8ba4eb2ad7c91a1710d769",
        "gas": "0x16fec",
        "value": "0x0",
        "input": "0xe4849b32000000000000000000000000000000000000000000000028d3b668be57448970",
        "nonce": "0x6aa",
        "chainId": "0xaa36a7"
      },
      "additionalContracts": [],
      "isFixedGasLimit": false
    }
  ],
  "receipts": [
    {
      "status": "0x1",
      "cumulativeGasUsed": "0x1fa11b1",
      "logs": [
        {
          "address": "0x270e88f8683660553e8ba4eb2ad7c91a1710d769",
          "topics": [
            "0xddf252ad1be2c89b69c2b068fc378daa952ba7f163c4a11628f55a4df523b3ef",
            "0x000000000000000000000000c77f7fed3b5cc8249adc428c5f44c9063b9734b4",
            "0x0000000000000000000000000000000000000000000000000000000000000000"
          ],
          "data": "0x000000000000000000000000000000000000000000000028d3b668be57448970",
          "blockHash": "0x3246887f8569c418a807cdfd47bb597b94c96a2d52202dd38d543b2ebbfbced1",
          "blockNumber": "0x7253b1",
          "transactionHash": "0x59cbbf650a4a7647c6951cd683e10de72ffd6f9e78b52f292750cf009611c9a0",
          "transactionIndex": "0xbf",
          "logIndex": "0x268",
          "removed": false
        },
        {
          "address": "0x270e88f8683660553e8ba4eb2ad7c91a1710d769",
          "topics": [
            "0x4afcb4a87cdbd9974efdb92ee48bc8d7cd0ae4bf217004db3d080cbaee652ca7"
          ],
          "data": "0x000000000000000000000000000000000000000000000000000000006786de540000000000000000000000000000000000000000000000000004af787652092a0000000000000000000000000000000000000000000000000dc829dba4f6ed66",
          "blockHash": "0x3246887f8569c418a807cdfd47bb597b94c96a2d52202dd38d543b2ebbfbced1",
          "blockNumber": "0x7253b1",
          "transactionHash": "0x59cbbf650a4a7647c6951cd683e10de72ffd6f9e78b52f292750cf009611c9a0",
          "transactionIndex": "0xbf",
          "logIndex": "0x269",
          "removed": false
        }
      ],
      "logsBloom": "0x00000000000000000000000000000000000000000000000000000000000000000000000000000000000000000000000020000000000000004000000000000000000000000000000000000008000000000000000000000000000000000000000000000000020000000000000000000800020000000000000000000010000000000000000000010000000000000000000000000000000000000000010000000000000000000000000000000000000000004000000000000000000000000000000000000002000000800000000000000000000000000000080000008000000020000000000000000000000000000000000000000000000000000000000000000000",
      "type": "0x2",
      "transactionHash": "0x59cbbf650a4a7647c6951cd683e10de72ffd6f9e78b52f292750cf009611c9a0",
      "transactionIndex": "0xbf",
      "blockHash": "0x3246887f8569c418a807cdfd47bb597b94c96a2d52202dd38d543b2ebbfbced1",
      "blockNumber": "0x7253b1",
      "gasUsed": "0xfb93",
      "effectiveGasPrice": "0x175fabdb5",
      "from": "0xc77f7fed3b5cc8249adc428c5f44c9063b9734b4",
      "to": "0x270e88f8683660553e8ba4eb2ad7c91a1710d769",
      "contractAddress": null
    }
  ],
  "libraries": [],
  "pending": [],
  "returns": {},
  "timestamp": 1736891989,
  "chain": 11155111,
  "commit": "51a374b"
}