{
  "transactions": [
    {
      "hash": "0x6bf6743f1c0270dfb335811cc22a0d4457c8225c38454080c3022edb9e214b41",
      "transactionType": "CALL",
      "contractName": null,
      "contractAddress": "0xbf4a322f1496e5c3d34a9bcdb4c60567b38c7de2",
      "function": "buy(address)",
      "arguments": [
        "0xC77f7fed3b5Cc8249aDc428c5F44C9063B9734b4"
      ],
      "transaction": {
        "from": "0xc77f7fed3b5cc8249adc428c5f44c9063b9734b4",
        "to": "0xbf4a322f1496e5c3d34a9bcdb4c60567b38c7de2",
        "gas": "0x1b309",
        "value": "0xde0b6b3a7640000",
        "input": "0xf088d547000000000000000000000000c77f7fed3b5cc8249adc428c5f44c9063b9734b4",
        "nonce": "0x90e",
        "chainId": "0xaa36a7"
      },
      "additionalContracts": [],
      "isFixedGasLimit": false
    }
  ],
  "receipts": [
    {
      "status": "0x1",
      "cumulativeGasUsed": "0x82b835",
      "logs": [
        {
          "address": "0xbf4a322f1496e5c3d34a9bcdb4c60567b38c7de2",
          "topics": [
            "0xddf252ad1be2c89b69c2b068fc378daa952ba7f163c4a11628f55a4df523b3ef",
            "0x0000000000000000000000000000000000000000000000000000000000000000",
            "0x000000000000000000000000c77f7fed3b5cc8249adc428c5f44c9063b9734b4"
          ],
          "data": "0x00000000000000000000000000000000000000000000003588fc8ca77de883c9",
          "blockHash": "0x86f49c6fc69a08716c0ddec22a386af8d5c47b1a9fd18ec17d8884a722bf9c2e",
          "blockNumber": "0x72588a",
          "transactionHash": "0x6bf6743f1c0270dfb335811cc22a0d4457c8225c38454080c3022edb9e214b41",
          "transactionIndex": "0x4a",
          "logIndex": "0x79",
          "removed": false
        },
        {
          "address": "0xbf4a322f1496e5c3d34a9bcdb4c60567b38c7de2",
          "topics": [
            "0xddf252ad1be2c89b69c2b068fc378daa952ba7f163c4a11628f55a4df523b3ef",
            "0x0000000000000000000000000000000000000000000000000000000000000000",
            "0x000000000000000000000000c77f7fed3b5cc8249adc428c5f44c9063b9734b4"
          ],
          "data": "0x000000000000000000000000000000000000000000000000299263b6dc8f769c",
          "blockHash": "0x86f49c6fc69a08716c0ddec22a386af8d5c47b1a9fd18ec17d8884a722bf9c2e",
          "blockNumber": "0x72588a",
          "transactionHash": "0x6bf6743f1c0270dfb335811cc22a0d4457c8225c38454080c3022edb9e214b41",
          "transactionIndex": "0x4a",
          "logIndex": "0x7a",
          "removed": false
        },
        {
          "address": "0xbf4a322f1496e5c3d34a9bcdb4c60567b38c7de2",
          "topics": [
            "0x4afcb4a87cdbd9974efdb92ee48bc8d7cd0ae4bf217004db3d080cbaee652ca7"
          ],
          "data": "0x00000000000000000000000000000000000000000000000000000000678718a400000000000000000000000000000000000000000000000000038fc2fcbae6780000000000000000000000000000000000000000000000000de0b6b3a7640000",
          "blockHash": "0x86f49c6fc69a08716c0ddec22a386af8d5c47b1a9fd18ec17d8884a722bf9c2e",
          "blockNumber": "0x72588a",
          "transactionHash": "0x6bf6743f1c0270dfb335811cc22a0d4457c8225c38454080c3022edb9e214b41",
          "transactionIndex": "0x4a",
          "logIndex": "0x7b",
          "removed": false
        }
      ],
      "logsBloom": "0x00000000000000000000000000000000000000000000000000000000000000000000000000000000000000000000000000000000000000004000000000000000000000000000000000000008000000000000001000000000000000000000000000000000020000000000000000000800020000000000000000000010000000000000000000000000000000000000000000000000000008000000010000000000000000000000000000000000000000004000000000000000000000000000000000000002000000800000000000001000000000000000080000000000000020000000000000000000000000000000000000000000000000000000000000000000",
      "type": "0x2",
      "transactionHash": "0x6bf6743f1c0270dfb335811cc22a0d4457c8225c38454080c3022edb9e214b41",
      "transactionIndex": "0x4a",
      "blockHash": "0x86f49c6fc69a08716c0ddec22a386af8d5c47b1a9fd18ec17d8884a722bf9c2e",
      "blockNumber": "0x72588a",
      "gasUsed": "0x13af6",
      "effectiveGasPrice": "0x340e8de8",
      "from": "0xc77f7fed3b5cc8249adc428c5f44c9063b9734b4",
      "to": "0xbf4a322f1496e5c3d34a9bcdb4c60567b38c7de2",
      "contractAddress": null
    }
  ],
  "libraries": [],
  "pending": [],
  "returns": {},
  "timestamp": 1736906916,
  "chain": 11155111,
  "commit": "51a374b"
}