{
  "transactions": [
    {
      "hash": "0x850d37f8089a00e7ce277caa98cfbcbe97c6753dd71b72219da83d46ef7748fc",
      "transactionType": "CALL",
      "contractName": null,
      "contractAddress": "0x5eb9cc76c3506942c1c0ead70e877dd5e4f00cb0",
      "function": "buy(address)",
      "arguments": [
        "0xC77f7fed3b5Cc8249aDc428c5F44C9063B9734b4"
      ],
      "transaction": {
        "from": "0xc77f7fed3b5cc8249adc428c5f44c9063b9734b4",
        "to": "0x5eb9cc76c3506942c1c0ead70e877dd5e4f00cb0",
        "gas": "0x1b30c",
        "value": "0xde0b6b3a7640000",
        "input": "0xf088d547000000000000000000000000c77f7fed3b5cc8249adc428c5f44c9063b9734b4",
        "nonce": "0x40a",
        "chainId": "0xaa36a7"
      },
      "additionalContracts": [],
      "isFixedGasLimit": false
    }
  ],
  "receipts": [
    {
      "status": "0x1",
      "cumulativeGasUsed": "0xae824f",
      "logs": [
        {
          "address": "0x5eb9cc76c3506942c1c0ead70e877dd5e4f00cb0",
          "topics": [
            "0xddf252ad1be2c89b69c2b068fc378daa952ba7f163c4a11628f55a4df523b3ef",
            "0x0000000000000000000000000000000000000000000000000000000000000000",
            "0x000000000000000000000000c77f7fed3b5cc8249adc428c5f44c9063b9734b4"
          ],
          "data": "0x00000000000000000000000000000000000000000000003574fc937f26af3652",
          "blockHash": "0xc84df3e788dac66be0c33e1d89153a539523bece594de91c1a21372d2f0b3586",
          "blockNumber": "0x725017",
          "transactionHash": "0x850d37f8089a00e7ce277caa98cfbcbe97c6753dd71b72219da83d46ef7748fc",
          "transactionIndex": "0x68",
          "logIndex": "0x8c",
          "removed": false
        },
        {
          "address": "0x5eb9cc76c3506942c1c0ead70e877dd5e4f00cb0",
          "topics": [
            "0xddf252ad1be2c89b69c2b068fc378daa952ba7f163c4a11628f55a4df523b3ef",
            "0x0000000000000000000000000000000000000000000000000000000000000000",
            "0x000000000000000000000000c77f7fed3b5cc8249adc428c5f44c9063b9734b4"
          ],
          "data": "0x0000000000000000000000000000000000000000000000002982dbe162ee6a39",
          "blockHash": "0xc84df3e788dac66be0c33e1d89153a539523bece594de91c1a21372d2f0b3586",
          "blockNumber": "0x725017",
          "transactionHash": "0x850d37f8089a00e7ce277caa98cfbcbe97c6753dd71b72219da83d46ef7748fc",
          "transactionIndex": "0x68",
          "logIndex": "0x8d",
          "removed": false
        },
        {
          "address": "0x5eb9cc76c3506942c1c0ead70e877dd5e4f00cb0",
          "topics": [
            "0x4afcb4a87cdbd9974efdb92ee48bc8d7cd0ae4bf217004db3d080cbaee652ca7"
          ],
          "data": "0x000000000000000000000000000000000000000000000000000000006786b2e000000000000000000000000000000000000000000000000000039115ccfc5ec70000000000000000000000000000000000000000000000000de0b6b3a7640000",
          "blockHash": "0xc84df3e788dac66be0c33e1d89153a539523bece594de91c1a21372d2f0b3586",
          "blockNumber": "0x725017",
          "transactionHash": "0x850d37f8089a00e7ce277caa98cfbcbe97c6753dd71b72219da83d46ef7748fc",
          "transactionIndex": "0x68",
          "logIndex": "0x8e",
          "removed": false
        }
      ],
      "logsBloom": "0x00000000000000000000000000000000000000000000000000000000000000000000000000000000000000000000000000000000000000004000000000000000000000000000000000000008000000000000000000000000000000000000000000000000020000000000000004000800020000000000000000000010000000000000000000000000000000000000000000000000000000000000010000000000000000000000000000000000000000004000000000000000000000000000020000000002000000800000008000000000000000000000080000000000000020000000000000000000000000000000000000000000000000000000000000000000",
      "type": "0x2",
      "transactionHash": "0x850d37f8089a00e7ce277caa98cfbcbe97c6753dd71b72219da83d46ef7748fc",
      "transactionIndex": "0x68",
      "blockHash": "0xc84df3e788dac66be0c33e1d89153a539523bece594de91c1a21372d2f0b3586",
      "blockNumber": "0x725017",
      "gasUsed": "0x13af8",
      "effectiveGasPrice": "0x31c755d6d",
      "from": "0xc77f7fed3b5cc8249adc428c5f44c9063b9734b4",
      "to": "0x5eb9cc76c3506942c1c0ead70e877dd5e4f00cb0",
      "contractAddress": null
    }
  ],
  "libraries": [],
  "pending": [],
  "returns": {},
  "timestamp": 1736880865,
  "chain": 11155111,
  "commit": "51a374b"
}