{
  "transactions": [
    {
      "hash": "0x4996367f079f350fbdc80e2f0241ec090ca137ec0b4bf44bce4fa8ee244e8558",
      "transactionType": "CALL",
      "contractName": null,
      "contractAddress": "0xbf4a322f1496e5c3d34a9bcdb4c60567b38c7de2",
      "function": "sell(uint256)",
      "arguments": [
        "984355323432077360201"
      ],
      "transaction": {
        "from": "0xc77f7fed3b5cc8249adc428c5f44c9063b9734b4",
        "to": "0xbf4a322f1496e5c3d34a9bcdb4c60567b38c7de2",
        "gas": "0x16fea",
        "value": "0x0",
        "input": "0xe4849b320000000000000000000000000000000000000000000000355cac9f52cdb7fc49",
        "nonce": "0xad5",
        "chainId": "0xaa36a7"
      },
      "additionalContracts": [],
      "isFixedGasLimit": false
    }
  ],
  "receipts": [
    {
      "status": "0x1",
      "cumulativeGasUsed": "0x3b24ca",
      "logs": [
        {
          "address": "0xbf4a322f1496e5c3d34a9bcdb4c60567b38c7de2",
          "topics": [
            "0xddf252ad1be2c89b69c2b068fc378daa952ba7f163c4a11628f55a4df523b3ef",
            "0x000000000000000000000000c77f7fed3b5cc8249adc428c5f44c9063b9734b4",
            "0x0000000000000000000000000000000000000000000000000000000000000000"
          ],
          "data": "0x0000000000000000000000000000000000000000000000355cac9f52cdb7fc49",
          "blockHash": "0xb620f9525fc2d5e7649db8f1ca5bc3b5d57ad17062b28f6f2ba8db766fee5723",
          "blockNumber": "0x725ac8",
          "transactionHash": "0x4996367f079f350fbdc80e2f0241ec090ca137ec0b4bf44bce4fa8ee244e8558",
          "transactionIndex": "0x22",
          "logIndex": "0x33",
          "removed": false
        },
        {
          "address": "0xbf4a322f1496e5c3d34a9bcdb4c60567b38c7de2",
          "topics": [
            "0x4afcb4a87cdbd9974efdb92ee48bc8d7cd0ae4bf217004db3d080cbaee652ca7"
          ],
          "data": "0x00000000000000000000000000000000000000000000000000000000678733b0000000000000000000000000000000000000000000000000000395828da12dec0000000000000000000000000000000000000000000000000dc7e3ec314923bb",
          "blockHash": "0xb620f9525fc2d5e7649db8f1ca5bc3b5d57ad17062b28f6f2ba8db766fee5723",
          "blockNumber": "0x725ac8",
          "transactionHash": "0x4996367f079f350fbdc80e2f0241ec090ca137ec0b4bf44bce4fa8ee244e8558",
          "transactionIndex": "0x22",
          "logIndex": "0x34",
          "removed": false
        }
      ],
      "logsBloom": "0x00000000000000000000000000000000000000000000000000000000000000000000000000000000000000000000000000000000000000004000000000000000000000000000000000000008000000000000001000000000000000000000000000000000020000000000000000000800020000000000000000000010000000000000000000000000000000000000000000000000000008000000010000000000000000000000000000000000000000004000000000000000000000000000000000000002000000800000000000001000000000000000080000000000000020000000000000000000000000000000000000000000000000000000000000000000",
      "type": "0x2",
      "transactionHash": "0x4996367f079f350fbdc80e2f0241ec090ca137ec0b4bf44bce4fa8ee244e8558",
      "transactionIndex": "0x22",
      "blockHash": "0xb620f9525fc2d5e7649db8f1ca5bc3b5d57ad17062b28f6f2ba8db766fee5723",
      "blockNumber": "0x725ac8",
      "gasUsed": "0xfb91",
      "effectiveGasPrice": "0xf399a107",
      "from": "0xc77f7fed3b5cc8249adc428c5f44c9063b9734b4",
      "to": "0xbf4a322f1496e5c3d34a9bcdb4c60567b38c7de2",
      "contractAddress": null
    }
  ],
  "libraries": [],
  "pending": [],
  "returns": {},
  "timestamp": 1736913841,
  "chain": 11155111,
  "commit": "51a374b"
}