{
  "transactions": [
    {
      "hash": "0x5408914e2db9497487cd72cc8d86fb3696bb8b522c3d314d5bf46d449f7fd2ab",
      "transactionType": "CALL",
      "contractName": null,
      "contractAddress": "0x270e88f8683660553e8ba4eb2ad7c91a1710d769",
      "function": "sell(uint256)",
      "arguments": [
        "739398465739906348887"
      ],
      "transaction": {
        "from": "0xc77f7fed3b5cc8249adc428c5f44c9063b9734b4",
        "to": "0x270e88f8683660553e8ba4eb2ad7c91a1710d769",
        "gas": "0x16fec",
        "value": "0x0",
        "input": "0xe4849b3200000000000000000000000000000000000000000000002815370b16e7f3f757",
        "nonce": "0x742",
        "chainId": "0xaa36a7"
      },
      "additionalContracts": [],
      "isFixedGasLimit": false
    }
  ],
  "receipts": [
    {
      "status": "0x1",
      "cumulativeGasUsed": "0xe6af5f",
      "logs": [
        {
          "address": "0x270e88f8683660553e8ba4eb2ad7c91a1710d769",
          "topics": [
            "0xddf252ad1be2c89b69c2b068fc378daa952ba7f163c4a11628f55a4df523b3ef",
            "0x000000000000000000000000c77f7fed3b5cc8249adc428c5f44c9063b9734b4",
            "0x0000000000000000000000000000000000000000000000000000000000000000"
          ],
          "data": "0x00000000000000000000000000000000000000000000002815370b16e7f3f757",
          "blockHash": "0xfd44a00550a40c3c3291d589adac460c9b577bbcef84d88d82e2673e42ccb2c3",
          "blockNumber": "0x725464",
          "transactionHash": "0x5408914e2db9497487cd72cc8d86fb3696bb8b522c3d314d5bf46d449f7fd2ab",
          "transactionIndex": "0x3a",
          "logIndex": "0x43",
          "removed": false
        },
        {
          "address": "0x270e88f8683660553e8ba4eb2ad7c91a1710d769",
          "topics": [
            "0x4afcb4a87cdbd9974efdb92ee48bc8d7cd0ae4bf217004db3d080cbaee652ca7"
          ],
          "data": "0x000000000000000000000000000000000000000000000000000000006786e6b80000000000000000000000000000000000000000000000000004c5bbab809ffc0000000000000000000000000000000000000000000000000dc8287009658d5c",
          "blockHash": "0xfd44a00550a40c3c3291d589adac460c9b577bbcef84d88d82e2673e42ccb2c3",
          "blockNumber": "0x725464",
          "transactionHash": "0x5408914e2db9497487cd72cc8d86fb3696bb8b522c3d314d5bf46d449f7fd2ab",
          "transactionIndex": "0x3a",
          "logIndex": "0x44",
          "removed": false
        }
      ],
      "logsBloom": "0x00000000000000000000000000000000000000000000000000000000000000000000000000000000000000000000000020000000000000004000000000000000000000000000000000000008000000000000000000000000000000000000000000000000020000000000000000000800020000000000000000000010000000000000000000010000000000000000000000000000000000000000010000000000000000000000000000000000000000004000000000000000000000000000000000000002000000800000000000000000000000000000080000008000000020000000000000000000000000000000000000000000000000000000000000000000",
      "type": "0x2",
      "transactionHash": "0x5408914e2db9497487cd72cc8d86fb3696bb8b522c3d314d5bf46d449f7fd2ab",
      "transactionIndex": "0x3a",
      "blockHash": "0xfd44a00550a40c3c3291d589adac460c9b577bbcef84d88d82e2673e42ccb2c3",
      "blockNumber": "0x725464",
      "gasUsed": "0xfb93",
      "effectiveGasPrice": "0x145d58325",
      "from": "0xc77f7fed3b5cc8249adc428c5f44c9063b9734b4",
      "to": "0x270e88f8683660553e8ba4eb2ad7c91a1710d769",
      "contractAddress": null
    }
  ],
  "libraries": [],
  "pending": [],
  "returns": {},
  "timestamp": 1736894137,
  "chain": 11155111,
  "commit": "51a374b"
}