{
  "transactions": [
    {
      "hash": "0x3932c8bf8c39ac39500a80d132f648c41395415a4346639200dd894f18c39677",
      "transactionType": "CALL",
      "contractName": null,
      "contractAddress": "0x8aafd3ede9adb0ff97c7aebce82a919afb1c8764",
      "function": "sell(uint256)",
      "arguments": [
        "8631230106"
      ],
      "transaction": {
        "from": "0xc77f7fed3b5cc8249adc428c5f44c9063b9734b4",
        "to": "0x8aafd3ede9adb0ff97c7aebce82a919afb1c8764",
        "gas": "0x1722a",
        "value": "0x0",
        "input": "0xe4849b320000000000000000000000000000000000000000000000000000000202761e9a",
        "nonce": "0x13c9",
        "chainId": "0xaa36a7"
      },
      "additionalContracts": [],
      "isFixedGasLimit": false
    }
  ],
  "receipts": [
    {
      "status": "0x1",
      "cumulativeGasUsed": "0x149405b",
      "logs": [
        {
          "address": "0x8aafd3ede9adb0ff97c7aebce82a919afb1c8764",
          "topics": [
            "0xddf252ad1be2c89b69c2b068fc378daa952ba7f163c4a11628f55a4df523b3ef",
            "0x000000000000000000000000c77f7fed3b5cc8249adc428c5f44c9063b9734b4",
            "0x0000000000000000000000000000000000000000000000000000000000000000"
          ],
          "data": "0x00000000000000000000000000000000000000000000000000000001fe5880aa",
          "blockHash": "0xffd7056a123743df8ebb6ecb7ba7dcf62f337edb1461ea6411095a499342368f",
          "blockNumber": "0x731af4",
          "transactionHash": "0x3932c8bf8c39ac39500a80d132f648c41395415a4346639200dd894f18c39677",
          "transactionIndex": "0x93",
          "logIndex": "0xcd",
          "removed": false
        },
        {
          "address": "0x8aafd3ede9adb0ff97c7aebce82a919afb1c8764",
          "topics": [
            "0xddf252ad1be2c89b69c2b068fc378daa952ba7f163c4a11628f55a4df523b3ef",
            "0x000000000000000000000000c77f7fed3b5cc8249adc428c5f44c9063b9734b4",
            "0x000000000000000000000000c77f7fed3b5cc8249adc428c5f44c9063b9734b4"
          ],
          "data": "0x00000000000000000000000000000000000000000000000000000000041d9df0",
          "blockHash": "0xffd7056a123743df8ebb6ecb7ba7dcf62f337edb1461ea6411095a499342368f",
          "blockNumber": "0x731af4",
          "transactionHash": "0x3932c8bf8c39ac39500a80d132f648c41395415a4346639200dd894f18c39677",
          "transactionIndex": "0x93",
          "logIndex": "0xce",
          "removed": false
        },
        {
          "address": "0x8aafd3ede9adb0ff97c7aebce82a919afb1c8764",
          "topics": [
            "0x4afcb4a87cdbd9974efdb92ee48bc8d7cd0ae4bf217004db3d080cbaee652ca7"
          ],
          "data": "0x0000000000000000000000000000000000000000000000000000000067904040000000000000000000000000000000000000000000000000000d7ee0d35c4b2b0000000000000000000000000000000000000000000000000000000001f44b46",
          "blockHash": "0xffd7056a123743df8ebb6ecb7ba7dcf62f337edb1461ea6411095a499342368f",
          "blockNumber": "0x731af4",
          "transactionHash": "0x3932c8bf8c39ac39500a80d132f648c41395415a4346639200dd894f18c39677",
          "transactionIndex": "0x93",
          "logIndex": "0xcf",
          "removed": false
        }
      ],
      "logsBloom": "0x00000000000000000000000000000000000000000600000000000000000000000000000000000000000000000000000000000000000000004000000000000000000000000000004000000008000000000000000000000000000000000000000000000000020000000000000000000800020000000000000000000010000000000000000000000000000000000000000000000000000000000000010000000000000000000000000000000000000000004000000000000000000000000000000000000002000000800000000000000000000000000000080000000000000020000000000000000000000000000000000000000000000000000000000000000000",
      "type": "0x2",
      "transactionHash": "0x3932c8bf8c39ac39500a80d132f648c41395415a4346639200dd894f18c39677",
      "transactionIndex": "0x93",
      "blockHash": "0xffd7056a123743df8ebb6ecb7ba7dcf62f337edb1461ea6411095a499342368f",
      "blockNumber": "0x731af4",
      "gasUsed": "0xfd1b",
      "effectiveGasPrice": "0x8509256a",
      "from": "0xc77f7fed3b5cc8249adc428c5f44c9063b9734b4",
      "to": "0x8aafd3ede9adb0ff97c7aebce82a919afb1c8764",
      "contractAddress": null
    }
  ],
  "libraries": [],
  "pending": [],
  "returns": {},
  "timestamp": 1737506882,
  "chain": 11155111,
  "commit": "1d2fb70"
}