{
  "transactions": [
    {
      "hash": "0x7c2051db5b574910ea1501b74ed6356a2471e4b5f79a7fdf578dc2823183e80f",
      "transactionType": "CALL",
      "contractName": null,
      "contractAddress": "0x5eb9cc76c3506942c1c0ead70e877dd5e4f00cb0",
      "function": "sell(uint256)",
      "arguments": [
        "989082470521263758733"
      ],
      "transaction": {
        "from": "0xc77f7fed3b5cc8249adc428c5f44c9063b9734b4",
        "to": "0x5eb9cc76c3506942c1c0ead70e877dd5e4f00cb0",
        "gas": "0x16fec",
        "value": "0x0",
        "input": "0xe4849b320000000000000000000000000000000000000000000000359e46d28e39b21d8d",
        "nonce": "0x46f",
        "chainId": "0xaa36a7"
      },
      "additionalContracts": [],
      "isFixedGasLimit": false
    }
  ],
  "receipts": [
    {
      "status": "0x1",
      "cumulativeGasUsed": "0xc622a8",
      "logs": [
        {
          "address": "0x5eb9cc76c3506942c1c0ead70e877dd5e4f00cb0",
          "topics": [
            "0xddf252ad1be2c89b69c2b068fc378daa952ba7f163c4a11628f55a4df523b3ef",
            "0x000000000000000000000000c77f7fed3b5cc8249adc428c5f44c9063b9734b4",
            "0x0000000000000000000000000000000000000000000000000000000000000000"
          ],
          "data": "0x0000000000000000000000000000000000000000000000359e46d28e39b21d8d",
          "blockHash": "0x6290c90f6543e8dc9d70dcd194ad52ef3e2171c66f02bce475146483265e8483",
          "blockNumber": "0x72509a",
          "transactionHash": "0x7c2051db5b574910ea1501b74ed6356a2471e4b5f79a7fdf578dc2823183e80f",
          "transactionIndex": "0x51",
          "logIndex": "0x8a",
          "removed": false
        },
        {
          "address": "0x5eb9cc76c3506942c1c0ead70e877dd5e4f00cb0",
          "topics": [
            "0x4afcb4a87cdbd9974efdb92ee48bc8d7cd0ae4bf217004db3d080cbaee652ca7"
          ],
          "data": "0x000000000000000000000000000000000000000000000000000000006786b904000000000000000000000000000000000000000000000000000391199d6496930000000000000000000000000000000000000000000000000dc7db1331c841c2",
          "blockHash": "0x6290c90f6543e8dc9d70dcd194ad52ef3e2171c66f02bce475146483265e8483",
          "blockNumber": "0x72509a",
          "transactionHash": "0x7c2051db5b574910ea1501b74ed6356a2471e4b5f79a7fdf578dc2823183e80f",
          "transactionIndex": "0x51",
          "logIndex": "0x8b",
          "removed": false
        }
      ],
      "logsBloom": "0x00000000000000000000000000000000000000000000000000000000000000000000000000000000000000000000000000000000000000004000000000000000000000000000000000000008000000000000000000000000000000000000000000000000020000000000000004000800020000000000000000000010000000000000000000000000000000000000000000000000000000000000010000000000000000000000000000000000000000004000000000000000000000000000020000000002000000800000008000000000000000000000080000000000000020000000000000000000000000000000000000000000000000000000000000000000",
      "type": "0x2",
      "transactionHash": "0x7c2051db5b574910ea1501b74ed6356a2471e4b5f79a7fdf578dc2823183e80f",
      "transactionIndex": "0x51",
      "blockHash": "0x6290c90f6543e8dc9d70dcd194ad52ef3e2171c66f02bce475146483265e8483",
      "blockNumber": "0x72509a",
      "gasUsed": "0xfb93",
      "effectiveGasPrice": "0x1f08cb4e9",
      "from": "0xc77f7fed3b5cc8249adc428c5f44c9063b9734b4",
      "to": "0x5eb9cc76c3506942c1c0ead70e877dd5e4f00cb0",
      "contractAddress": null
    }
  ],
  "libraries": [],
  "pending": [],
  "returns": {},
  "timestamp": 1736882437,
  "chain": 11155111,
  "commit": "51a374b"
}