{
  "transactions": [
    {
      "hash": "0x3057a007e4d0980b3527aff4de0f687cc8d6bdcaeed58c0e3ace21c5629db8b9",
      "transactionType": "CALL",
      "contractName": null,
      "contractAddress": "0x5eb9cc76c3506942c1c0ead70e877dd5e4f00cb0",
      "function": "sell(uint256)",
      "arguments": [
        "989157369607245032138"
      ],
      "transaction": {
        "from": "0xc77f7fed3b5cc8249adc428c5f44c9063b9734b4",
        "to": "0x5eb9cc76c3506942c1c0ead70e877dd5e4f00cb0",
        "gas": "0x16fec",
        "value": "0x0",
        "input": "0xe4849b320000000000000000000000000000000000000000000000359f50eae09f9c6aca",
        "nonce": "0x299",
        "chainId": "0xaa36a7"
      },
      "additionalContracts": [],
      "isFixedGasLimit": false
    }
  ],
  "receipts": [
    {
      "status": "0x1",
      "cumulativeGasUsed": "0x1943dae",
      "logs": [
        {
          "address": "0x5eb9cc76c3506942c1c0ead70e877dd5e4f00cb0",
          "topics": [
            "0xddf252ad1be2c89b69c2b068fc378daa952ba7f163c4a11628f55a4df523b3ef",
            "0x000000000000000000000000c77f7fed3b5cc8249adc428c5f44c9063b9734b4",
            "0x0000000000000000000000000000000000000000000000000000000000000000"
          ],
          "data": "0x0000000000000000000000000000000000000000000000359f50eae09f9c6aca",
          "blockHash": "0x80ef1dfea9ae52f5e5eec4ad3ff75bb49a5ebc5b92cfab189056585b6076466f",
          "blockNumber": "0x724e6e",
          "transactionHash": "0x3057a007e4d0980b3527aff4de0f687cc8d6bdcaeed58c0e3ace21c5629db8b9",
          "transactionIndex": "0xc6",
          "logIndex": "0x1b7",
          "removed": false
        },
        {
          "address": "0x5eb9cc76c3506942c1c0ead70e877dd5e4f00cb0",
          "topics": [
            "0x4afcb4a87cdbd9974efdb92ee48bc8d7cd0ae4bf217004db3d080cbaee652ca7"
          ],
          "data": "0x0000000000000000000000000000000000000000000000000000000067869edc00000000000000000000000000000000000000000000000000039107ea3bec010000000000000000000000000000000000000000000000000dc7db13324d87b0",
          "blockHash": "0x80ef1dfea9ae52f5e5eec4ad3ff75bb49a5ebc5b92cfab189056585b6076466f",
          "blockNumber": "0x724e6e",
          "transactionHash": "0x3057a007e4d0980b3527aff4de0f687cc8d6bdcaeed58c0e3ace21c5629db8b9",
          "transactionIndex": "0xc6",
          "logIndex": "0x1b8",
          "removed": false
        }
      ],
      "logsBloom": "0x00000000000000000000000000000000000000000000000000000000000000000000000000000000000000000000000000000000000000004000000000000000000000000000000000000008000000000000000000000000000000000000000000000000020000000000000004000800020000000000000000000010000000000000000000000000000000000000000000000000000000000000010000000000000000000000000000000000000000004000000000000000000000000000020000000002000000800000008000000000000000000000080000000000000020000000000000000000000000000000000000000000000000000000000000000000",
      "type": "0x2",
      "transactionHash": "0x3057a007e4d0980b3527aff4de0f687cc8d6bdcaeed58c0e3ace21c5629db8b9",
      "transactionIndex": "0xc6",
      "blockHash": "0x80ef1dfea9ae52f5e5eec4ad3ff75bb49a5ebc5b92cfab189056585b6076466f",
      "blockNumber": "0x724e6e",
      "gasUsed": "0xfb93",
      "effectiveGasPrice": "0x45f9504fd",
      "from": "0xc77f7fed3b5cc8249adc428c5f44c9063b9734b4",
      "to": "0x5eb9cc76c3506942c1c0ead70e877dd5e4f00cb0",
      "contractAddress": null
    }
  ],
  "libraries": [],
  "pending": [],
  "returns": {},
  "timestamp": 1736875742,
  "chain": 11155111,
  "commit": "51a374b"
}