{
  "transactions": [
    {
      "hash": "0x544bd4c4ee0bd7ad4777dd3163ffee63b71a533517c863c5e35a5c0c45a500ac",
      "transactionType": "CALL",
      "contractName": null,
      "contractAddress": "0x5eb9cc76c3506942c1c0ead70e877dd5e4f00cb0",
      "function": "buy(address)",
      "arguments": [
        "0xC77f7fed3b5Cc8249aDc428c5F44C9063B9734b4"
      ],
      "transaction": {
        "from": "0xc77f7fed3b5cc8249adc428c5f44c9063b9734b4",
        "to": "0x5eb9cc76c3506942c1c0ead70e877dd5e4f00cb0",
        "gas": "0x156c8",
        "value": "0xde0b6b3a7640000",
        "input": "0xf088d547000000000000000000000000c77f7fed3b5cc8249adc428c5f44c9063b9734b4",
        "nonce": "0x17c",
        "chainId": "0xaa36a7"
      },
      "additionalContracts": [],
      "isFixedGasLimit": false
    }
  ],
  "receipts": [
    {
      "status": "0x1",
      "cumulativeGasUsed": "0xb9e1bc",
      "logs": [
        {
          "address": "0x5eb9cc76c3506942c1c0ead70e877dd5e4f00cb0",
          "topics": [
            "0xddf252ad1be2c89b69c2b068fc378daa952ba7f163c4a11628f55a4df523b3ef",
            "0x0000000000000000000000000000000000000000000000000000000000000000",
            "0x000000000000000000000000c77f7fed3b5cc8249adc428c5f44c9063b9734b4"
          ],
          "data": "0x000000000000000000000000000000000000000000000035a6d10839271472ac",
          "blockHash": "0x4e4f064c1064138a107b1f6b528ce7339dc4c073afc518c4fcccf34da67c7800",
          "blockNumber": "0x723c39",
          "transactionHash": "0x544bd4c4ee0bd7ad4777dd3163ffee63b71a533517c863c5e35a5c0c45a500ac",
          "transactionIndex": "0x63",
          "logIndex": "0x8a",
          "removed": false
        },
        {
          "address": "0x5eb9cc76c3506942c1c0ead70e877dd5e4f00cb0",
          "topics": [
            "0xddf252ad1be2c89b69c2b068fc378daa952ba7f163c4a11628f55a4df523b3ef",
            "0x0000000000000000000000000000000000000000000000000000000000000000",
            "0x000000000000000000000000c77f7fed3b5cc8249adc428c5f44c9063b9734b4"
          ],
          "data": "0x00000000000000000000000000000000000000000000000029a98db41e9eece5",
          "blockHash": "0x4e4f064c1064138a107b1f6b528ce7339dc4c073afc518c4fcccf34da67c7800",
          "blockNumber": "0x723c39",
          "transactionHash": "0x544bd4c4ee0bd7ad4777dd3163ffee63b71a533517c863c5e35a5c0c45a500ac",
          "transactionIndex": "0x63",
          "logIndex": "0x8b",
          "removed": false
        },
        {
          "address": "0x5eb9cc76c3506942c1c0ead70e877dd5e4f00cb0",
          "topics": [
            "0x4afcb4a87cdbd9974efdb92ee48bc8d7cd0ae4bf217004db3d080cbaee652ca7"
          ],
          "data": "0x000000000000000000000000000000000000000000000000000000006785c40000000000000000000000000000000000000000000000000000038dc5c17b21fd0000000000000000000000000000000000000000000000000de0b6b3a7640000",
          "blockHash": "0x4e4f064c1064138a107b1f6b528ce7339dc4c073afc518c4fcccf34da67c7800",
          "blockNumber": "0x723c39",
          "transactionHash": "0x544bd4c4ee0bd7ad4777dd3163ffee63b71a533517c863c5e35a5c0c45a500ac",
          "transactionIndex": "0x63",
          "logIndex": "0x8c",
          "removed": false
        }
      ],
      "logsBloom": "0x00000000000000000000000000000000000000000000000000000000000000000000000000000000000000000000000000000000000000004000000000000000000000000000000000000008000000000000000000000000000000000000000000000000020000000000000004000800020000000000000000000010000000000000000000000000000000000000000000000000000000000000010000000000000000000000000000000000000000004000000000000000000000000000020000000002000000800000008000000000000000000000080000000000000020000000000000000000000000000000000000000000000000000000000000000000",
      "type": "0x2",
      "transactionHash": "0x544bd4c4ee0bd7ad4777dd3163ffee63b71a533517c863c5e35a5c0c45a500ac",
      "transactionIndex": "0x63",
      "blockHash": "0x4e4f064c1064138a107b1f6b528ce7339dc4c073afc518c4fcccf34da67c7800",
      "blockNumber": "0x723c39",
      "gasUsed": "0xf82c",
      "effectiveGasPrice": "0x1c569fe21",
      "from": "0xc77f7fed3b5cc8249adc428c5f44c9063b9734b4",
      "to": "0x5eb9cc76c3506942c1c0ead70e877dd5e4f00cb0",
      "contractAddress": null
    }
  ],
  "libraries": [],
  "pending": [],
  "returns": {},
  "timestamp": 1736819713,
  "chain": 11155111,
  "commit": "51a374b"
}