{
  "transactions": [
    {
      "hash": "0x0957aae0a2d6c6594861117e564cd38a24e5f449fe42eea54b76cf4ca906dac0",
      "transactionType": "CALL",
      "contractName": null,
      "contractAddress": "0x8aafd3ede9adb0ff97c7aebce82a919afb1c8764",
      "function": "sell(uint256)",
      "arguments": [
        "905166626958"
      ],
      "transaction": {
        "from": "0xc77f7fed3b5cc8249adc428c5f44c9063b9734b4",
        "to": "0x8aafd3ede9adb0ff97c7aebce82a919afb1c8764",
        "gas": "0x1722a",
        "value": "0x0",
        "input": "0xe4849b32000000000000000000000000000000000000000000000000000000d2c022a08e",
        "nonce": "0x14a9",
        "chainId": "0xaa36a7"
      },
      "additionalContracts": [],
      "isFixedGasLimit": false
    }
  ],
  "receipts": [
    {
      "status": "0x1",
      "cumulativeGasUsed": "0xdb3ebc",
      "logs": [
        {
          "address": "0x8aafd3ede9adb0ff97c7aebce82a919afb1c8764",
          "topics": [
            "0xddf252ad1be2c89b69c2b068fc378daa952ba7f163c4a11628f55a4df523b3ef",
            "0x000000000000000000000000c77f7fed3b5cc8249adc428c5f44c9063b9734b4",
            "0x0000000000000000000000000000000000000000000000000000000000000000"
          ],
          "data": "0x000000000000000000000000000000000000000000000000000000d11084a777",
          "blockHash": "0xf8cb2f961e77b8cc62ced7b3bc7f34d81576cb3fe859cb15d44a3a434cd3d400",
          "blockNumber": "0x731bfe",
          "transactionHash": "0x0957aae0a2d6c6594861117e564cd38a24e5f449fe42eea54b76cf4ca906dac0",
          "transactionIndex": "0x67",
          "logIndex": "0x8c",
          "removed": false
        },
        {
          "address": "0x8aafd3ede9adb0ff97c7aebce82a919afb1c8764",
          "topics": [
            "0xddf252ad1be2c89b69c2b068fc378daa952ba7f163c4a11628f55a4df523b3ef",
            "0x000000000000000000000000c77f7fed3b5cc8249adc428c5f44c9063b9734b4",
            "0x000000000000000000000000c77f7fed3b5cc8249adc428c5f44c9063b9734b4"
          ],
          "data": "0x00000000000000000000000000000000000000000000000000000001af9df917",
          "blockHash": "0xf8cb2f961e77b8cc62ced7b3bc7f34d81576cb3fe859cb15d44a3a434cd3d400",
          "blockNumber": "0x731bfe",
          "transactionHash": "0x0957aae0a2d6c6594861117e564cd38a24e5f449fe42eea54b76cf4ca906dac0",
          "transactionIndex": "0x67",
          "logIndex": "0x8d",
          "removed": false
        },
        {
          "address": "0x8aafd3ede9adb0ff97c7aebce82a919afb1c8764",
          "topics": [
            "0x4afcb4a87cdbd9974efdb92ee48bc8d7cd0ae4bf217004db3d080cbaee652ca7"
          ],
          "data": "0x0000000000000000000000000000000000000000000000000000000067904cc40000000000000000000000000000000000000000000000000010113ed13ba32500000000000000000000000000000000000000000000000000000000f40077e5",
          "blockHash": "0xf8cb2f961e77b8cc62ced7b3bc7f34d81576cb3fe859cb15d44a3a434cd3d400",
          "blockNumber": "0x731bfe",
          "transactionHash": "0x0957aae0a2d6c6594861117e564cd38a24e5f449fe42eea54b76cf4ca906dac0",
          "transactionIndex": "0x67",
          "logIndex": "0x8e",
          "removed": false
        }
      ],
      "logsBloom": "0x00000000000000000000000000000000000000000600000000000000000000000000000000000000000000000000000000000000000000004000000000000000000000000000004000000008000000000000000000000000000000000000000000000000020000000000000000000800020000000000000000000010000000000000000000000000000000000000000000000000000000000000010000000000000000000000000000000000000000004000000000000000000000000000000000000002000000800000000000000000000000000000080000000000000020000000000000000000000000000000000000000000000000000000000000000000",
      "type": "0x2",
      "transactionHash": "0x0957aae0a2d6c6594861117e564cd38a24e5f449fe42eea54b76cf4ca906dac0",
      "transactionIndex": "0x67",
      "blockHash": "0xf8cb2f961e77b8cc62ced7b3bc7f34d81576cb3fe859cb15d44a3a434cd3d400",
      "blockNumber": "0x731bfe",
      "gasUsed": "0xfd1b",
      "effectiveGasPrice": "0xfea9c153",
      "from": "0xc77f7fed3b5cc8249adc428c5f44c9063b9734b4",
      "to": "0x8aafd3ede9adb0ff97c7aebce82a919afb1c8764",
      "contractAddress": null
    }
  ],
  "libraries": [],
  "pending": [],
  "returns": {},
  "timestamp": 1737510085,
  "chain": 11155111,
  "commit": "1d2fb70"
}