{
  "transactions": [
    {
      "hash": "0xc214e809fe9b05dff2a7cdecaaa62b49580ac13a51432e13ac69de3c5b4f0c8b",
      "transactionType": "CALL",
      "contractName": null,
      "contractAddress": "0x8aafd3ede9adb0ff97c7aebce82a919afb1c8764",
      "function": "sell(uint256)",
      "arguments": [
        "118508416718447"
      ],
      "transaction": {
        "from": "0xc77f7fed3b5cc8249adc428c5f44c9063b9734b4",
        "to": "0x8aafd3ede9adb0ff97c7aebce82a919afb1c8764",
        "gas": "0x15daa",
        "value": "0x0",
        "input": "0xe4849b3200000000000000000000000000000000000000000000000000006bc86414d66f",
        "nonce": "0x1469",
        "chainId": "0xaa36a7"
      },
      "additionalContracts": [],
      "isFixedGasLimit": false
    }
  ],
  "receipts": [
    {
      "status": "0x1",
      "cumulativeGasUsed": "0xc4d018",
      "logs": [
        {
          "address": "0x8aafd3ede9adb0ff97c7aebce82a919afb1c8764",
          "topics": [
            "0xddf252ad1be2c89b69c2b068fc378daa952ba7f163c4a11628f55a4df523b3ef",
            "0x000000000000000000000000c77f7fed3b5cc8249adc428c5f44c9063b9734b4",
            "0x0000000000000000000000000000000000000000000000000000000000000000"
          ],
          "data": "0x00000000000000000000000000000000000000000000000000006aeba6dd5ffc",
          "blockHash": "0x468fdca06f09f0c7afe8547e96bb70ff082dc1cbec2b0052751f9ca250c879fc",
          "blockNumber": "0x731bb5",
          "transactionHash": "0xc214e809fe9b05dff2a7cdecaaa62b49580ac13a51432e13ac69de3c5b4f0c8b",
          "transactionIndex": "0x84",
          "logIndex": "0x9b",
          "removed": false
        },
        {
          "address": "0x8aafd3ede9adb0ff97c7aebce82a919afb1c8764",
          "topics": [
            "0xddf252ad1be2c89b69c2b068fc378daa952ba7f163c4a11628f55a4df523b3ef",
            "0x000000000000000000000000c77f7fed3b5cc8249adc428c5f44c9063b9734b4",
            "0x000000000000000000000000c77f7fed3b5cc8249adc428c5f44c9063b9734b4"
          ],
          "data": "0x000000000000000000000000000000000000000000000000000000dcbd377673",
          "blockHash": "0x468fdca06f09f0c7afe8547e96bb70ff082dc1cbec2b0052751f9ca250c879fc",
          "blockNumber": "0x731bb5",
          "transactionHash": "0xc214e809fe9b05dff2a7cdecaaa62b49580ac13a51432e13ac69de3c5b4f0c8b",
          "transactionIndex": "0x84",
          "logIndex": "0x9c",
          "removed": false
        },
        {
          "address": "0x8aafd3ede9adb0ff97c7aebce82a919afb1c8764",
          "topics": [
            "0x4afcb4a87cdbd9974efdb92ee48bc8d7cd0ae4bf217004db3d080cbaee652ca7"
          ],
          "data": "0x0000000000000000000000000000000000000000000000000000000067904958000000000000000000000000000000000000000000000000000f583f583e62e1000000000000000000000000000000000000000000000000000000772cffcc05",
          "blockHash": "0x468fdca06f09f0c7afe8547e96bb70ff082dc1cbec2b0052751f9ca250c879fc",
          "blockNumber": "0x731bb5",
          "transactionHash": "0xc214e809fe9b05dff2a7cdecaaa62b49580ac13a51432e13ac69de3c5b4f0c8b",
          "transactionIndex": "0x84",
          "logIndex": "0x9d",
          "removed": false
        }
      ],
      "logsBloom": "0x00000000000000000000000000000000000000000600000000000000000000000000000000000000000000000000000000000000000000004000000000000000000000000000004000000008000000000000000000000000000000000000000000000000020000000000000000000800020000000000000000000010000000000000000000000000000000000000000000000000000000000000010000000000000000000000000000000000000000004000000000000000000000000000000000000002000000800000000000000000000000000000080000000000000020000000000000000000000000000000000000000000000000000000000000000000",
      "type": "0x2",
      "transactionHash": "0xc214e809fe9b05dff2a7cdecaaa62b49580ac13a51432e13ac69de3c5b4f0c8b",
      "transactionIndex": "0x84",
      "blockHash": "0x468fdca06f09f0c7afe8547e96bb70ff082dc1cbec2b0052751f9ca250c879fc",
      "blockNumber": "0x731bb5",
      "gasUsed": "0xfd27",
      "effectiveGasPrice": "0xfe4794aa",
      "from": "0xc77f7fed3b5cc8249adc428c5f44c9063b9734b4",
      "to": "0x8aafd3ede9adb0ff97c7aebce82a919afb1c8764",
      "contractAddress": null
    }
  ],
  "libraries": [],
  "pending": [],
  "returns": {},
  "timestamp": 1737509209,
  "chain": 11155111,
  "commit": "1d2fb70"
}