{
  "transactions": [
    {
      "hash": "0x00a9268dfeb17bdbb6631cef7347b20306ab17c9dd8a0005fe24e4ed80b650a2",
      "transactionType": "CALL",
      "contractName": null,
      "contractAddress": "0x8aafd3ede9adb0ff97c7aebce82a919afb1c8764",
      "function": "sell(uint256)",
      "arguments": [
        "101901014926300"
      ],
      "transaction": {
        "from": "0xc77f7fed3b5cc8249adc428c5f44c9063b9734b4",
        "to": "0x8aafd3ede9adb0ff97c7aebce82a919afb1c8764",
        "gas": "0x15daa",
        "value": "0x0",
        "input": "0xe4849b3200000000000000000000000000000000000000000000000000005cadadcc03dc",
        "nonce": "0x1541",
        "chainId": "0xaa36a7"
      },
      "additionalContracts": [],
      "isFixedGasLimit": false
    }
  ],
  "receipts": [
    {
      "status": "0x1",
      "cumulativeGasUsed": "0x124fd9a",
      "logs": [
        {
          "address": "0x8aafd3ede9adb0ff97c7aebce82a919afb1c8764",
          "topics": [
            "0xddf252ad1be2c89b69c2b068fc378daa952ba7f163c4a11628f55a4df523b3ef",
            "0x000000000000000000000000c77f7fed3b5cc8249adc428c5f44c9063b9734b4",
            "0x0000000000000000000000000000000000000000000000000000000000000000"
          ],
          "data": "0x00000000000000000000000000000000000000000000000000005befdf9b476a",
          "blockHash": "0x2d8c6c318f17c7f81cca0678eb15d93c0026818c5dd8679fb603af053d9b46ae",
          "blockNumber": "0x731ca5",
          "transactionHash": "0x00a9268dfeb17bdbb6631cef7347b20306ab17c9dd8a0005fe24e4ed80b650a2",
          "transactionIndex": "0x92",
          "logIndex": "0x15b",
          "removed": false
        },
        {
          "address": "0x8aafd3ede9adb0ff97c7aebce82a919afb1c8764",
          "topics": [
            "0xddf252ad1be2c89b69c2b068fc378daa952ba7f163c4a11628f55a4df523b3ef",
            "0x000000000000000000000000c77f7fed3b5cc8249adc428c5f44c9063b9734b4",
            "0x000000000000000000000000c77f7fed3b5cc8249adc428c5f44c9063b9734b4"
          ],
          "data": "0x000000000000000000000000000000000000000000000000000000bdce30bc72",
          "blockHash": "0x2d8c6c318f17c7f81cca0678eb15d93c0026818c5dd8679fb603af053d9b46ae",
          "blockNumber": "0x731ca5",
          "transactionHash": "0x00a9268dfeb17bdbb6631cef7347b20306ab17c9dd8a0005fe24e4ed80b650a2",
          "transactionIndex": "0x92",
          "logIndex": "0x15c",
          "removed": false
        },
        {
          "address": "0x8aafd3ede9adb0ff97c7aebce82a919afb1c8764",
          "topics": [
            "0x4afcb4a87cdbd9974efdb92ee48bc8d7cd0ae4bf217004db3d080cbaee652ca7"
          ],
          "data": "0x00000000000000000000000000000000000000000000000000000000679054980000000000000000000000000000000000000000000000000011d45ef83253c60000000000000000000000000000000000000000000000000000007711b69bfa",
          "blockHash": "0x2d8c6c318f17c7f81cca0678eb15d93c0026818c5dd8679fb603af053d9b46ae",
          "blockNumber": "0x731ca5",
          "transactionHash": "0x00a9268dfeb17bdbb6631cef7347b20306ab17c9dd8a0005fe24e4ed80b650a2",
          "transactionIndex": "0x92",
          "logIndex": "0x15d",
          "removed": false
        }
      ],
      "logsBloom": "0x00000000000000000000000000000000000000000600000000000000000000000000000000000000000000000000000000000000000000004000000000000000000000000000004000000008000000000000000000000000000000000000000000000000020000000000000000000800020000000000000000000010000000000000000000000000000000000000000000000000000000000000010000000000000000000000000000000000000000004000000000000000000000000000000000000002000000800000000000000000000000000000080000000000000020000000000000000000000000000000000000000000000000000000000000000000",
      "type": "0x2",
      "transactionHash": "0x00a9268dfeb17bdbb6631cef7347b20306ab17c9dd8a0005fe24e4ed80b650a2",
      "transactionIndex": "0x92",
      "blockHash": "0x2d8c6c318f17c7f81cca0678eb15d93c0026818c5dd8679fb603af053d9b46ae",
      "blockNumber": "0x731ca5",
      "gasUsed": "0xfd27",
      "effectiveGasPrice": "0xd6730e66",
      "from": "0xc77f7fed3b5cc8249adc428c5f44c9063b9734b4",
      "to": "0x8aafd3ede9adb0ff97c7aebce82a919afb1c8764",
      "contractAddress": null
    }
  ],
  "libraries": [],
  "pending": [],
  "returns": {},
  "timestamp": 1737512089,
  "chain": 11155111,
  "commit": "1d2fb70"
}