{
  "transactions": [
    {
      "hash": "0x2244684e2f70064a498c6961d565c48f2079bf5d3b23cd5c4491a291cf6358ff",
      "transactionType": "CALL",
      "contractName": null,
      "contractAddress": "0x270e88f8683660553e8ba4eb2ad7c91a1710d769",
      "function": "sell(uint256)",
      "arguments": [
        "730117653165983350284"
      ],
      "transaction": {
        "from": "0xc77f7fed3b5cc8249adc428c5f44c9063b9734b4",
        "to": "0x270e88f8683660553e8ba4eb2ad7c91a1710d769",
        "gas": "0x16fec",
        "value": "0x0",
        "input": "0xe4849b32000000000000000000000000000000000000000000000027946af939b04b3e0c",
        "nonce": "0x7ac",
        "chainId": "0xaa36a7"
      },
      "additionalContracts": [],
      "isFixedGasLimit": false
    }
  ],
  "receipts": [
    {
      "status": "0x1",
      "cumulativeGasUsed": "0x785c0f",
      "logs": [
        {
          "address": "0x270e88f8683660553e8ba4eb2ad7c91a1710d769",
          "topics": [
            "0xddf252ad1be2c89b69c2b068fc378daa952ba7f163c4a11628f55a4df523b3ef",
            "0x000000000000000000000000c77f7fed3b5cc8249adc428c5f44c9063b9734b4",
            "0x0000000000000000000000000000000000000000000000000000000000000000"
          ],
          "data": "0x000000000000000000000000000000000000000000000027946af939b04b3e0c",
          "blockHash": "0x6596c5116e6ca7f975d6429a720fb866d2c2782644a603a8aa04c96bfbbf7d03",
          "blockNumber": "0x7254e0",
          "transactionHash": "0x2244684e2f70064a498c6961d565c48f2079bf5d3b23cd5c4491a291cf6358ff",
          "transactionIndex": "0x52",
          "logIndex": "0x7a",
          "removed": false
        },
        {
          "address": "0x270e88f8683660553e8ba4eb2ad7c91a1710d769",
          "topics": [
            "0x4afcb4a87cdbd9974efdb92ee48bc8d7cd0ae4bf217004db3d080cbaee652ca7"
          ],
          "data": "0x000000000000000000000000000000000000000000000000000000006786ec880000000000000000000000000000000000000000000000000004d54261f925090000000000000000000000000000000000000000000000000dc8277a1ae338cf",
          "blockHash": "0x6596c5116e6ca7f975d6429a720fb866d2c2782644a603a8aa04c96bfbbf7d03",
          "blockNumber": "0x7254e0",
          "transactionHash": "0x2244684e2f70064a498c6961d565c48f2079bf5d3b23cd5c4491a291cf6358ff",
          "transactionIndex": "0x52",
          "logIndex": "0x7b",
          "removed": false
        }
      ],
      "logsBloom": "0x00000000000000000000000000000000000000000000000000000000000000000000000000000000000000000000000020000000000000004000000000000000000000000000000000000008000000000000000000000000000000000000000000000000020000000000000000000800020000000000000000000010000000000000000000010000000000000000000000000000000000000000010000000000000000000000000000000000000000004000000000000000000000000000000000000002000000800000000000000000000000000000080000008000000020000000000000000000000000000000000000000000000000000000000000000000",
      "type": "0x2",
      "transactionHash": "0x2244684e2f70064a498c6961d565c48f2079bf5d3b23cd5c4491a291cf6358ff",
      "transactionIndex": "0x52",
      "blockHash": "0x6596c5116e6ca7f975d6429a720fb866d2c2782644a603a8aa04c96bfbbf7d03",
      "blockNumber": "0x7254e0",
      "gasUsed": "0xfb93",
      "effectiveGasPrice": "0xe97aff2f",
      "from": "0xc77f7fed3b5cc8249adc428c5f44c9063b9734b4",
      "to": "0x270e88f8683660553e8ba4eb2ad7c91a1710d769",
      "contractAddress": null
    }
  ],
  "libraries": [],
  "pending": [],
  "returns": {},
  "timestamp": 1736895627,
  "chain": 11155111,
  "commit": "51a374b"
}