{
  "transactions": [
    {
      "hash": "0x163d8337354fa3ad90981047a2f48b5349315a52565480dab8424218c5046974",
      "transactionType": "CALL",
      "contractName": null,
      "contractAddress": "0x8aafd3ede9adb0ff97c7aebce82a919afb1c8764",
      "function": "sell(uint256)",
      "arguments": [
        "729445897554"
      ],
      "transaction": {
        "from": "0xc77f7fed3b5cc8249adc428c5f44c9063b9734b4",
        "to": "0x8aafd3ede9adb0ff97c7aebce82a919afb1c8764",
        "gas": "0x1722a",
        "value": "0x0",
        "input": "0xe4849b32000000000000000000000000000000000000000000000000000000a9d65d1552",
        "nonce": "0x15f6",
        "chainId": "0xaa36a7"
      },
      "additionalContracts": [],
      "isFixedGasLimit": false
    }
  ],
  "receipts": [
    {
      "status": "0x1",
      "cumulativeGasUsed": "0x656e39",
      "logs": [
        {
          "address": "0x8aafd3ede9adb0ff97c7aebce82a919afb1c8764",
          "topics": [
            "0xddf252ad1be2c89b69c2b068fc378daa952ba7f163c4a11628f55a4df523b3ef",
            "0x000000000000000000000000c77f7fed3b5cc8249adc428c5f44c9063b9734b4",
            "0x0000000000000000000000000000000000000000000000000000000000000000"
          ],
          "data": "0x000000000000000000000000000000000000000000000000000000a87a896506",
          "blockHash": "0x0934491766325eddd214d6f1c2cb51c2368ff91ab2a75dc46f7f46f25cdf4332",
          "blockNumber": "0x731d83",
          "transactionHash": "0x163d8337354fa3ad90981047a2f48b5349315a52565480dab8424218c5046974",
          "transactionIndex": "0x49",
          "logIndex": "0x60",
          "removed": false
        },
        {
          "address": "0x8aafd3ede9adb0ff97c7aebce82a919afb1c8764",
          "topics": [
            "0xddf252ad1be2c89b69c2b068fc378daa952ba7f163c4a11628f55a4df523b3ef",
            "0x000000000000000000000000c77f7fed3b5cc8249adc428c5f44c9063b9734b4",
            "0x000000000000000000000000c77f7fed3b5cc8249adc428c5f44c9063b9734b4"
          ],
          "data": "0x000000000000000000000000000000000000000000000000000000015bd3b04c",
          "blockHash": "0x0934491766325eddd214d6f1c2cb51c2368ff91ab2a75dc46f7f46f25cdf4332",
          "blockNumber": "0x731d83",
          "transactionHash": "0x163d8337354fa3ad90981047a2f48b5349315a52565480dab8424218c5046974",
          "transactionIndex": "0x49",
          "logIndex": "0x61",
          "removed": false
        },
        {
          "address": "0x8aafd3ede9adb0ff97c7aebce82a919afb1c8764",
          "topics": [
            "0x4afcb4a87cdbd9974efdb92ee48bc8d7cd0ae4bf217004db3d080cbaee652ca7"
          ],
          "data": "0x0000000000000000000000000000000000000000000000000000000067905f0c0000000000000000000000000000000000000000000000000013ea07cacd60b900000000000000000000000000000000000000000000000000000000f3b60f77",
          "blockHash": "0x0934491766325eddd214d6f1c2cb51c2368ff91ab2a75dc46f7f46f25cdf4332",
          "blockNumber": "0x731d83",
          "transactionHash": "0x163d8337354fa3ad90981047a2f48b5349315a52565480dab8424218c5046974",
          "transactionIndex": "0x49",
          "logIndex": "0x62",
          "removed": false
        }
      ],
      "logsBloom": "0x00000000000000000000000000000000000000000600000000000000000000000000000000000000000000000000000000000000000000004000000000000000000000000000004000000008000000000000000000000000000000000000000000000000020000000000000000000800020000000000000000000010000000000000000000000000000000000000000000000000000000000000010000000000000000000000000000000000000000004000000000000000000000000000000000000002000000800000000000000000000000000000080000000000000020000000000000000000000000000000000000000000000000000000000000000000",
      "type": "0x2",
      "transactionHash": "0x163d8337354fa3ad90981047a2f48b5349315a52565480dab8424218c5046974",
      "transactionIndex": "0x49",
      "blockHash": "0x0934491766325eddd214d6f1c2cb51c2368ff91ab2a75dc46f7f46f25cdf4332",
      "blockNumber": "0x731d83",
      "gasUsed": "0xfd1b",
      "effectiveGasPrice": "0x6e75b664",
      "from": "0xc77f7fed3b5cc8249adc428c5f44c9063b9734b4",
      "to": "0x8aafd3ede9adb0ff97c7aebce82a919afb1c8764",
      "contractAddress": null
    }
  ],
  "libraries": [],
  "pending": [],
  "returns": {},
  "timestamp": 1737514766,
  "chain": 11155111,
  "commit": "1d2fb70"
}