{
  "transactions": [
    {
      "hash": "0x4bf6e5e6810c09f542f29723636f2a58e193c469945910c571283a644277bdd3",
      "transactionType": "CALL",
      "contractName": null,
      "contractAddress": "0x270e88f8683660553e8ba4eb2ad7c91a1710d769",
      "function": "sell(uint256)",
      "arguments": [
        "976357462054991762272"
      ],
      "transaction": {
        "from": "0xc77f7fed3b5cc8249adc428c5f44c9063b9734b4",
        "to": "0x270e88f8683660553e8ba4eb2ad7c91a1710d769",
        "gas": "0x16fec",
        "value": "0x0",
        "input": "0xe4849b32000000000000000000000000000000000000000000000034edae82c685b71360",
        "nonce": "0x53f",
        "chainId": "0xaa36a7"
      },
      "additionalContracts": [],
      "isFixedGasLimit": false
    }
  ],
  "receipts": [
    {
      "status": "0x1",
      "cumulativeGasUsed": "0x97a693",
      "logs": [
        {
          "address": "0x270e88f8683660553e8ba4eb2ad7c91a1710d769",
          "topics": [
            "0xddf252ad1be2c89b69c2b068fc378daa952ba7f163c4a11628f55a4df523b3ef",
            "0x000000000000000000000000c77f7fed3b5cc8249adc428c5f44c9063b9734b4",
            "0x0000000000000000000000000000000000000000000000000000000000000000"
          ],
          "data": "0x000000000000000000000000000000000000000000000034edae82c685b71360",
          "blockHash": "0x468dfcb6c6b682164650f16e0d33b3c426f1f9d84c74a84b50691db7ee017134",
          "blockNumber": "0x7251dc",
          "transactionHash": "0x4bf6e5e6810c09f542f29723636f2a58e193c469945910c571283a644277bdd3",
          "transactionIndex": "0x4b",
          "logIndex": "0x7c",
          "removed": false
        },
        {
          "address": "0x270e88f8683660553e8ba4eb2ad7c91a1710d769",
          "topics": [
            "0x4afcb4a87cdbd9974efdb92ee48bc8d7cd0ae4bf217004db3d080cbaee652ca7"
          ],
          "data": "0x000000000000000000000000000000000000000000000000000000006786c84000000000000000000000000000000000000000000000000000039d4af90e7a600000000000000000000000000000000000000000000000000dc840ddd7662ec0",
          "blockHash": "0x468dfcb6c6b682164650f16e0d33b3c426f1f9d84c74a84b50691db7ee017134",
          "blockNumber": "0x7251dc",
          "transactionHash": "0x4bf6e5e6810c09f542f29723636f2a58e193c469945910c571283a644277bdd3",
          "transactionIndex": "0x4b",
          "logIndex": "0x7d",
          "removed": false
        }
      ],
      "logsBloom": "0x00000000000000000000000000000000000000000000000000000000000000000000000000000000000000000000000020000000000000004000000000000000000000000000000000000008000000000000000000000000000000000000000000000000020000000000000000000800020000000000000000000010000000000000000000010000000000000000000000000000000000000000010000000000000000000000000000000000000000004000000000000000000000000000000000000002000000800000000000000000000000000000080000008000000020000000000000000000000000000000000000000000000000000000000000000000",
      "type": "0x2",
      "transactionHash": "0x4bf6e5e6810c09f542f29723636f2a58e193c469945910c571283a644277bdd3",
      "transactionIndex": "0x4b",
      "blockHash": "0x468dfcb6c6b682164650f16e0d33b3c426f1f9d84c74a84b50691db7ee017134",
      "blockNumber": "0x7251dc",
      "gasUsed": "0xfb93",
      "effectiveGasPrice": "0x43e2924df",
      "from": "0xc77f7fed3b5cc8249adc428c5f44c9063b9734b4",
      "to": "0x270e88f8683660553e8ba4eb2ad7c91a1710d769",
      "contractAddress": null
    }
  ],
  "libraries": [],
  "pending": [],
  "returns": {},
  "timestamp": 1736886336,
  "chain": 11155111,
  "commit": "51a374b"
}