{
  "transactions": [
    {
      "hash": "0x3f038589ca560a61aae741c9063644a64f363e04aecce5f115a813fb60d004df",
      "transactionType": "CALL",
      "contractName": null,
      "contractAddress": "0x8aafd3ede9adb0ff97c7aebce82a919afb1c8764",
      "function": "sell(uint256)",
      "arguments": [
        "22698457845"
      ],
      "transaction": {
        "from": "0xc77f7fed3b5cc8249adc428c5f44c9063b9734b4",
        "to": "0x8aafd3ede9adb0ff97c7aebce82a919afb1c8764",
        "gas": "0x1722a",
        "value": "0x0",
        "input": "0xe4849b320000000000000000000000000000000000000000000000000000000548eefaf5",
        "nonce": "0x115e",
        "chainId": "0xaa36a7"
      },
      "additionalContracts": [],
      "isFixedGasLimit": false
    }
  ],
  "receipts": [
    {
      "status": "0x1",
      "cumulativeGasUsed": "0xeac24a",
      "logs": [
        {
          "address": "0x8aafd3ede9adb0ff97c7aebce82a919afb1c8764",
          "topics": [
            "0xddf252ad1be2c89b69c2b068fc378daa952ba7f163c4a11628f55a4df523b3ef",
            "0x000000000000000000000000c77f7fed3b5cc8249adc428c5f44c9063b9734b4",
            "0x0000000000000000000000000000000000000000000000000000000000000000"
          ],
          "data": "0x000000000000000000000000000000000000000000000000000000053e1c2c27",
          "blockHash": "0xdea41e63f93f27d98d1ff3a7e07b435b3a8defd6c5d2b60b7565e673a2c65b22",
          "blockNumber": "0x73181b",
          "transactionHash": "0x3f038589ca560a61aae741c9063644a64f363e04aecce5f115a813fb60d004df",
          "transactionIndex": "0x96",
          "logIndex": "0xbb",
          "removed": false
        },
        {
          "address": "0x8aafd3ede9adb0ff97c7aebce82a919afb1c8764",
          "topics": [
            "0xddf252ad1be2c89b69c2b068fc378daa952ba7f163c4a11628f55a4df523b3ef",
            "0x000000000000000000000000c77f7fed3b5cc8249adc428c5f44c9063b9734b4",
            "0x000000000000000000000000c77f7fed3b5cc8249adc428c5f44c9063b9734b4"
          ],
          "data": "0x000000000000000000000000000000000000000000000000000000000ad2cece",
          "blockHash": "0xdea41e63f93f27d98d1ff3a7e07b435b3a8defd6c5d2b60b7565e673a2c65b22",
          "blockNumber": "0x73181b",
          "transactionHash": "0x3f038589ca560a61aae741c9063644a64f363e04aecce5f115a813fb60d004df",
          "transactionIndex": "0x96",
          "logIndex": "0xbc",
          "removed": false
        },
        {
          "address": "0x8aafd3ede9adb0ff97c7aebce82a919afb1c8764",
          "topics": [
            "0x4afcb4a87cdbd9974efdb92ee48bc8d7cd0ae4bf217004db3d080cbaee652ca7"
          ],
          "data": "0x0000000000000000000000000000000000000000000000000000000067901e080000000000000000000000000000000000000000000000000005193b93fc80490000000000000000000000000000000000000000000000000000000001f10e02",
          "blockHash": "0xdea41e63f93f27d98d1ff3a7e07b435b3a8defd6c5d2b60b7565e673a2c65b22",
          "blockNumber": "0x73181b",
          "transactionHash": "0x3f038589ca560a61aae741c9063644a64f363e04aecce5f115a813fb60d004df",
          "transactionIndex": "0x96",
          "logIndex": "0xbd",
          "removed": false
        }
      ],
      "logsBloom": "0x00000000000000000000000000000000000000000600000000000000000000000000000000000000000000000000000000000000000000004000000000000000000000000000004000000008000000000000000000000000000000000000000000000000020000000000000000000800020000000000000000000010000000000000000000000000000000000000000000000000000000000000010000000000000000000000000000000000000000004000000000000000000000000000000000000002000000800000000000000000000000000000080000000000000020000000000000000000000000000000000000000000000000000000000000000000",
      "type": "0x2",
      "transactionHash": "0x3f038589ca560a61aae741c9063644a64f363e04aecce5f115a813fb60d004df",
      "transactionIndex": "0x96",
      "blockHash": "0xdea41e63f93f27d98d1ff3a7e07b435b3a8defd6c5d2b60b7565e673a2c65b22",
      "blockNumber": "0x73181b",
      "gasUsed": "0xfd1b",
      "effectiveGasPrice": "0x447c9346",
      "from": "0xc77f7fed3b5cc8249adc428c5f44c9063b9734b4",
      "to": "0x8aafd3ede9adb0ff97c7aebce82a919afb1c8764",
      "contractAddress": null
    }
  ],
  "libraries": [],
  "pending": [],
  "returns": {},
  "timestamp": 1737498122,
  "chain": 11155111,
  "commit": "1d2fb70"
}