{
  "transactions": [
    {
      "hash": "0xa52ddd5a48679d4787f796a7a45dea61e7816554837e58d6bdb77e32439ab629",
      "transactionType": "CALL",
      "contractName": null,
      "contractAddress": "0x8aafd3ede9adb0ff97c7aebce82a919afb1c8764",
      "function": "sell(uint256)",
      "arguments": [
        "2724939394019"
      ],
      "transaction": {
        "from": "0xc77f7fed3b5cc8249adc428c5f44c9063b9734b4",
        "to": "0x8aafd3ede9adb0ff97c7aebce82a919afb1c8764",
        "gas": "0x15daa",
        "value": "0x0",
        "input": "0xe4849b320000000000000000000000000000000000000000000000000000027a730b6be3",
        "nonce": "0x12cf",
        "chainId": "0xaa36a7"
      },
      "additionalContracts": [],
      "isFixedGasLimit": false
    }
  ],
  "receipts": [
    {
      "status": "0x1",
      "cumulativeGasUsed": "0x909ca0",
      "logs": [
        {
          "address": "0x8aafd3ede9adb0ff97c7aebce82a919afb1c8764",
          "topics": [
            "0xddf252ad1be2c89b69c2b068fc378daa952ba7f163c4a11628f55a4df523b3ef",
            "0x000000000000000000000000c77f7fed3b5cc8249adc428c5f44c9063b9734b4",
            "0x0000000000000000000000000000000000000000000000000000000000000000"
          ],
          "data": "0x000000000000000000000000000000000000000000000000000002755fb137d3",
          "blockHash": "0x04e5bad2644c2e900030c67a2dd054592fe05a54a9e7888986dc7a2a154e1be5",
          "blockNumber": "0x7319cc",
          "transactionHash": "0xa52ddd5a48679d4787f796a7a45dea61e7816554837e58d6bdb77e32439ab629",
          "transactionIndex": "0x63",
          "logIndex": "0x72",
          "removed": false
        },
        {
          "address": "0x8aafd3ede9adb0ff97c7aebce82a919afb1c8764",
          "topics": [
            "0xddf252ad1be2c89b69c2b068fc378daa952ba7f163c4a11628f55a4df523b3ef",
            "0x000000000000000000000000c77f7fed3b5cc8249adc428c5f44c9063b9734b4",
            "0x000000000000000000000000c77f7fed3b5cc8249adc428c5f44c9063b9734b4"
          ],
          "data": "0x00000000000000000000000000000000000000000000000000000005135a3410",
          "blockHash": "0x04e5bad2644c2e900030c67a2dd054592fe05a54a9e7888986dc7a2a154e1be5",
          "blockNumber": "0x7319cc",
          "transactionHash": "0xa52ddd5a48679d4787f796a7a45dea61e7816554837e58d6bdb77e32439ab629",
          "transactionIndex": "0x63",
          "logIndex": "0x73",
          "removed": false
        },
        {
          "address": "0x8aafd3ede9adb0ff97c7aebce82a919afb1c8764",
          "topics": [
            "0x4afcb4a87cdbd9974efdb92ee48bc8d7cd0ae4bf217004db3d080cbaee652ca7"
          ],
          "data": "0x000000000000000000000000000000000000000000000000000000006790326000000000000000000000000000000000000000000000000000054eff484973d000000000000000000000000000000000000000000000000000000000f2b12274",
          "blockHash": "0x04e5bad2644c2e900030c67a2dd054592fe05a54a9e7888986dc7a2a154e1be5",
          "blockNumber": "0x7319cc",
          "transactionHash": "0xa52ddd5a48679d4787f796a7a45dea61e7816554837e58d6bdb77e32439ab629",
          "transactionIndex": "0x63",
          "logIndex": "0x74",
          "removed": false
        }
      ],
      "logsBloom": "0x00000000000000000000000000000000000000000600000000000000000000000000000000000000000000000000000000000000000000004000000000000000000000000000004000000008000000000000000000000000000000000000000000000000020000000000000000000800020000000000000000000010000000000000000000000000000000000000000000000000000000000000010000000000000000000000000000000000000000004000000000000000000000000000000000000002000000800000000000000000000000000000080000000000000020000000000000000000000000000000000000000000000000000000000000000000",
      "type": "0x2",
      "transactionHash": "0xa52ddd5a48679d4787f796a7a45dea61e7816554837e58d6bdb77e32439ab629",
      "transactionIndex": "0x63",
      "blockHash": "0x04e5bad2644c2e900030c67a2dd054592fe05a54a9e7888986dc7a2a154e1be5",
      "blockNumber": "0x7319cc",
      "gasUsed": "0xfd27",
      "effectiveGasPrice": "0x47accb68",
      "from": "0xc77f7fed3b5cc8249adc428c5f44c9063b9734b4",
      "to": "0x8aafd3ede9adb0ff97c7aebce82a919afb1c8764",
      "contractAddress": null
    }
  ],
  "libraries": [],
  "pending": [],
  "returns": {},
  "timestamp": 1737503329,
  "chain": 11155111,
  "commit": "1d2fb70"
}