{
  "transactions": [
    {
      "hash": "0x7932af2082da67591b7d28b560a4cdadb2717be88caa7033225cbe5b510a9fd2",
      "transactionType": "CALL",
      "contractName": null,
      "contractAddress": "0x8aafd3ede9adb0ff97c7aebce82a919afb1c8764",
      "function": "sell(uint256)",
      "arguments": [
        "1546832637320052002"
      ],
      "transaction": {
        "from": "0xc77f7fed3b5cc8249adc428c5f44c9063b9734b4",
        "to": "0x8aafd3ede9adb0ff97c7aebce82a919afb1c8764",
        "gas": "0x15dca",
        "value": "0x0",
        "input": "0xe4849b320000000000000000000000000000000000000000000000001577741692713d22",
        "nonce": "0x156c",
        "chainId": "0xaa36a7"
      },
      "additionalContracts": [],
      "isFixedGasLimit": false
    }
  ],
  "receipts": [
    {
      "status": "0x1",
      "cumulativeGasUsed": "0xa84a8e",
      "logs": [
        {
          "address": "0x8aafd3ede9adb0ff97c7aebce82a919afb1c8764",
          "topics": [
            "0xddf252ad1be2c89b69c2b068fc378daa952ba7f163c4a11628f55a4df523b3ef",
            "0x000000000000000000000000c77f7fed3b5cc8249adc428c5f44c9063b9734b4",
            "0x0000000000000000000000000000000000000000000000000000000000000000"
          ],
          "data": "0x000000000000000000000000000000000000000000000000154b7d6643726182",
          "blockHash": "0xbcd4c707fb8cfb976815e308055d4f33159fc1046c245a0ee44cad9e9d3b5826",
          "blockNumber": "0x731cd5",
          "transactionHash": "0x7932af2082da67591b7d28b560a4cdadb2717be88caa7033225cbe5b510a9fd2",
          "transactionIndex": "0x71",
          "logIndex": "0xcd",
          "removed": false
        },
        {
          "address": "0x8aafd3ede9adb0ff97c7aebce82a919afb1c8764",
          "topics": [
            "0xddf252ad1be2c89b69c2b068fc378daa952ba7f163c4a11628f55a4df523b3ef",
            "0x000000000000000000000000c77f7fed3b5cc8249adc428c5f44c9063b9734b4",
            "0x000000000000000000000000c77f7fed3b5cc8249adc428c5f44c9063b9734b4"
          ],
          "data": "0x000000000000000000000000000000000000000000000000002bf6b04efedba0",
          "blockHash": "0xbcd4c707fb8cfb976815e308055d4f33159fc1046c245a0ee44cad9e9d3b5826",
          "blockNumber": "0x731cd5",
          "transactionHash": "0x7932af2082da67591b7d28b560a4cdadb2717be88caa7033225cbe5b510a9fd2",
          "transactionIndex": "0x71",
          "logIndex": "0xce",
          "removed": false
        },
        {
          "address": "0x8aafd3ede9adb0ff97c7aebce82a919afb1c8764",
          "topics": [
            "0x4afcb4a87cdbd9974efdb92ee48bc8d7cd0ae4bf217004db3d080cbaee652ca7"
          ],
          "data": "0x00000000000000000000000000000000000000000000000000000000679056e400000000000000000000000000000000000000000000000000125981f400d0d0000000000000000000000000000000000000000000000000001c6202af3fc5bb",
          "blockHash": "0xbcd4c707fb8cfb976815e308055d4f33159fc1046c245a0ee44cad9e9d3b5826",
          "blockNumber": "0x731cd5",
          "transactionHash": "0x7932af2082da67591b7d28b560a4cdadb2717be88caa7033225cbe5b510a9fd2",
          "transactionIndex": "0x71",
          "logIndex": "0xcf",
          "removed": false
        }
      ],
      "logsBloom": "0x00000000000000000000000000000000000000000600000000000000000000000000000000000000000000000000000000000000000000004000000000000000000000000000004000000008000000000000000000000000000000000000000000000000020000000000000000000800020000000000000000000010000000000000000000000000000000000000000000000000000000000000010000000000000000000000000000000000000000004000000000000000000000000000000000000002000000800000000000000000000000000000080000000000000020000000000000000000000000000000000000000000000000000000000000000000",
      "type": "0x2",
      "transactionHash": "0x7932af2082da67591b7d28b560a4cdadb2717be88caa7033225cbe5b510a9fd2",
      "transactionIndex": "0x71",
      "blockHash": "0xbcd4c707fb8cfb976815e308055d4f33159fc1046c245a0ee44cad9e9d3b5826",
      "blockNumber": "0x731cd5",
      "gasUsed": "0xfd3f",
      "effectiveGasPrice": "0x8a5e7deb",
      "from": "0xc77f7fed3b5cc8249adc428c5f44c9063b9734b4",
      "to": "0x8aafd3ede9adb0ff97c7aebce82a919afb1c8764",
      "contractAddress": null
    }
  ],
  "libraries": [],
  "pending": [],
  "returns": {},
  "timestamp": 1737512677,
  "chain": 11155111,
  "commit": "1d2fb70"
}