{
  "transactions": [
    {
      "hash": "0xe508f3112c65138e311d296ca6d2baa974fc44631f92d21046e623e622b2b7c1",
      "transactionType": "CALL",
      "contractName": null,
      "contractAddress": "0x5eb9cc76c3506942c1c0ead70e877dd5e4f00cb0",
      "function": "buy(address)",
      "arguments": [
        "0xC77f7fed3b5Cc8249aDc428c5F44C9063B9734b4"
      ],
      "transaction": {
        "from": "0xc77f7fed3b5cc8249adc428c5f44c9063b9734b4",
        "to": "0x5eb9cc76c3506942c1c0ead70e877dd5e4f00cb0",
        "gas": "0x156c8",
        "value": "0xde0b6b3a7640000",
        "input": "0xf088d547000000000000000000000000c77f7fed3b5cc8249adc428c5f44c9063b9734b4",
        "nonce": "0x1f7",
        "chainId": "0xaa36a7"
      },
      "additionalContracts": [],
      "isFixedGasLimit": false
    }
  ],
  "receipts": [
    {
      "status": "0x1",
      "cumulativeGasUsed": "0xf1d689",
      "logs": [
        {
          "address": "0x5eb9cc76c3506942c1c0ead70e877dd5e4f00cb0",
          "topics": [
            "0xddf252ad1be2c89b69c2b068fc378daa952ba7f163c4a11628f55a4df523b3ef",
            "0x0000000000000000000000000000000000000000000000000000000000000000",
            "0x000000000000000000000000c77f7fed3b5cc8249adc428c5f44c9063b9734b4"
          ],
          "data": "0x00000000000000000000000000000000000000000000003584c0ade0ed8290ec",
          "blockHash": "0x6dc3483d6296bd9677b40e066cd4e0baaf1333ff35d2d4a81c6d71c9b8807c43",
          "blockNumber": "0x724b0f",
          "transactionHash": "0xe508f3112c65138e311d296ca6d2baa974fc44631f92d21046e623e622b2b7c1",
          "transactionIndex": "0x6d",
          "logIndex": "0x94",
          "removed": false
        },
        {
          "address": "0x5eb9cc76c3506942c1c0ead70e877dd5e4f00cb0",
          "topics": [
            "0xddf252ad1be2c89b69c2b068fc378daa952ba7f163c4a11628f55a4df523b3ef",
            "0x0000000000000000000000000000000000000000000000000000000000000000",
            "0x000000000000000000000000c77f7fed3b5cc8249adc428c5f44c9063b9734b4"
          ],
          "data": "0x000000000000000000000000000000000000000000000000298f1a0d56fc51ba",
          "blockHash": "0x6dc3483d6296bd9677b40e066cd4e0baaf1333ff35d2d4a81c6d71c9b8807c43",
          "blockNumber": "0x724b0f",
          "transactionHash": "0xe508f3112c65138e311d296ca6d2baa974fc44631f92d21046e623e622b2b7c1",
          "transactionIndex": "0x6d",
          "logIndex": "0x95",
          "removed": false
        },
        {
          "address": "0x5eb9cc76c3506942c1c0ead70e877dd5e4f00cb0",
          "topics": [
            "0x4afcb4a87cdbd9974efdb92ee48bc8d7cd0ae4bf217004db3d080cbaee652ca7"
          ],
          "data": "0x000000000000000000000000000000000000000000000000000000006786765c00000000000000000000000000000000000000000000000000039008d0aaab330000000000000000000000000000000000000000000000000de0b6b3a7640000",
          "blockHash": "0x6dc3483d6296bd9677b40e066cd4e0baaf1333ff35d2d4a81c6d71c9b8807c43",
          "blockNumber": "0x724b0f",
          "transactionHash": "0xe508f3112c65138e311d296ca6d2baa974fc44631f92d21046e623e622b2b7c1",
          "transactionIndex": "0x6d",
          "logIndex": "0x96",
          "removed": false
        }
      ],
      "logsBloom": "0x00000000000000000000000000000000000000000000000000000000000000000000000000000000000000000000000000000000000000004000000000000000000000000000000000000008000000000000000000000000000000000000000000000000020000000000000004000800020000000000000000000010000000000000000000000000000000000000000000000000000000000000010000000000000000000000000000000000000000004000000000000000000000000000020000000002000000800000008000000000000000000000080000000000000020000000000000000000000000000000000000000000000000000000000000000000",
      "type": "0x2",
      "transactionHash": "0xe508f3112c65138e311d296ca6d2baa974fc44631f92d21046e623e622b2b7c1",
      "transactionIndex": "0x6d",
      "blockHash": "0x6dc3483d6296bd9677b40e066cd4e0baaf1333ff35d2d4a81c6d71c9b8807c43",
      "blockNumber": "0x724b0f",
      "gasUsed": "0xf82c",
      "effectiveGasPrice": "0x5287f35d1",
      "from": "0xc77f7fed3b5cc8249adc428c5f44c9063b9734b4",
      "to": "0x5eb9cc76c3506942c1c0ead70e877dd5e4f00cb0",
      "contractAddress": null
    }
  ],
  "libraries": [],
  "pending": [],
  "returns": {},
  "timestamp": 1736865374,
  "chain": 11155111,
  "commit": "51a374b"
}