{
  "transactions": [
    {
      "hash": "0xc8fe632bcf90971b4b5bb5f2fa5b08103b8db8881765ed33c83d492eb81a4d4d",
      "transactionType": "CALL",
      "contractName": null,
      "contractAddress": "0xbf4a322f1496e5c3d34a9bcdb4c60567b38c7de2",
      "function": "sell(uint256)",
      "arguments": [
        "973556885622313535432"
      ],
      "transaction": {
        "from": "0xc77f7fed3b5cc8249adc428c5f44c9063b9734b4",
        "to": "0xbf4a322f1496e5c3d34a9bcdb4c60567b38c7de2",
        "gas": "0x16fea",
        "value": "0x0",
        "input": "0xe4849b32000000000000000000000000000000000000000000000034c6d0dd59199947c8",
        "nonce": "0xdfb",
        "chainId": "0xaa36a7"
      },
      "additionalContracts": [],
      "isFixedGasLimit": false
    }
  ],
  "receipts": [
    {
      "status": "0x1",
      "cumulativeGasUsed": "0x75f2c8",
      "logs": [
        {
          "address": "0xbf4a322f1496e5c3d34a9bcdb4c60567b38c7de2",
          "topics": [
            "0xddf252ad1be2c89b69c2b068fc378daa952ba7f163c4a11628f55a4df523b3ef",
            "0x000000000000000000000000c77f7fed3b5cc8249adc428c5f44c9063b9734b4",
            "0x0000000000000000000000000000000000000000000000000000000000000000"
          ],
          "data": "0x000000000000000000000000000000000000000000000034c6d0dd59199947c8",
          "blockHash": "0xeacdf0e80bcacfa8011ec76bbd41400956bd94ee3fcae2baa0a06c2254d892c5",
          "blockNumber": "0x7266e1",
          "transactionHash": "0xc8fe632bcf90971b4b5bb5f2fa5b08103b8db8881765ed33c83d492eb81a4d4d",
          "transactionIndex": "0x44",
          "logIndex": "0x6e",
          "removed": false
        },
        {
          "address": "0xbf4a322f1496e5c3d34a9bcdb4c60567b38c7de2",
          "topics": [
            "0x4afcb4a87cdbd9974efdb92ee48bc8d7cd0ae4bf217004db3d080cbaee652ca7"
          ],
          "data": "0x000000000000000000000000000000000000000000000000000000006787c5cc00000000000000000000000000000000000000000000000000039fafbcbf38230000000000000000000000000000000000000000000000000dc7e3d315f2d1a4",
          "blockHash": "0xeacdf0e80bcacfa8011ec76bbd41400956bd94ee3fcae2baa0a06c2254d892c5",
          "blockNumber": "0x7266e1",
          "transactionHash": "0xc8fe632bcf90971b4b5bb5f2fa5b08103b8db8881765ed33c83d492eb81a4d4d",
          "transactionIndex": "0x44",
          "logIndex": "0x6f",
          "removed": false
        }
      ],
      "logsBloom": "0x00000000000000000000000000000000000000000000000000000000000000000000000000000000000000000000000000000000000000004000000000000000000000000000000000000008000000000000001000000000000000000000000000000000020000000000000000000800020000000000000000000010000000000000000000000000000000000000000000000000000008000000010000000000000000000000000000000000000000004000000000000000000000000000000000000002000000800000000000001000000000000000080000000000000020000000000000000000000000000000000000000000000000000000000000000000",
      "type": "0x2",
      "transactionHash": "0xc8fe632bcf90971b4b5bb5f2fa5b08103b8db8881765ed33c83d492eb81a4d4d",
      "transactionIndex": "0x44",
      "blockHash": "0xeacdf0e80bcacfa8011ec76bbd41400956bd94ee3fcae2baa0a06c2254d892c5",
      "blockNumber": "0x7266e1",
      "gasUsed": "0xfb91",
      "effectiveGasPrice": "0x3786e5b2e",
      "from": "0xc77f7fed3b5cc8249adc428c5f44c9063b9734b4",
      "to": "0xbf4a322f1496e5c3d34a9bcdb4c60567b38c7de2",
      "contractAddress": null
    }
  ],
  "libraries": [],
  "pending": [],
  "returns": {},
  "timestamp": 1736951245,
  "chain": 11155111,
  "commit": "51a374b"
}