{
  "transactions": [
    {
      "hash": "0x4c8c8da373db4ae78e1c0be9a03b679203e05f4a05f2e16b0af7faa3f7432b06",
      "transactionType": "CALL",
      "contractName": null,
      "contractAddress": "0xbf4a322f1496e5c3d34a9bcdb4c60567b38c7de2",
      "function": "sell(uint256)",
      "arguments": [
        "974379118332177972252"
      ],
      "transaction": {
        "from": "0xc77f7fed3b5cc8249adc428c5f44c9063b9734b4",
        "to": "0xbf4a322f1496e5c3d34a9bcdb4c60567b38c7de2",
        "gas": "0x16fea",
        "value": "0x0",
        "input": "0xe4849b32000000000000000000000000000000000000000000000034d23a05a42bc67c1c",
        "nonce": "0xdbd",
        "chainId": "0xaa36a7"
      },
      "additionalContracts": [],
      "isFixedGasLimit": false
    }
  ],
  "receipts": [
    {
      "status": "0x1",
      "cumulativeGasUsed": "0x100c462",
      "logs": [
        {
          "address": "0xbf4a322f1496e5c3d34a9bcdb4c60567b38c7de2",
          "topics": [
            "0xddf252ad1be2c89b69c2b068fc378daa952ba7f163c4a11628f55a4df523b3ef",
            "0x000000000000000000000000c77f7fed3b5cc8249adc428c5f44c9063b9734b4",
            "0x0000000000000000000000000000000000000000000000000000000000000000"
          ],
          "data": "0x000000000000000000000000000000000000000000000034d23a05a42bc67c1c",
          "blockHash": "0xb2d05e869e89e72362a12164b8c8000d2caa8a2507aaf4a4e79c22bda91c6f49",
          "blockNumber": "0x726698",
          "transactionHash": "0x4c8c8da373db4ae78e1c0be9a03b679203e05f4a05f2e16b0af7faa3f7432b06",
          "transactionIndex": "0x69",
          "logIndex": "0x9d",
          "removed": false
        },
        {
          "address": "0xbf4a322f1496e5c3d34a9bcdb4c60567b38c7de2",
          "topics": [
            "0x4afcb4a87cdbd9974efdb92ee48bc8d7cd0ae4bf217004db3d080cbaee652ca7"
          ],
          "data": "0x000000000000000000000000000000000000000000000000000000006787c21800000000000000000000000000000000000000000000000000039ee756880c930000000000000000000000000000000000000000000000000dc7e3d4ff5b4697",
          "blockHash": "0xb2d05e869e89e72362a12164b8c8000d2caa8a2507aaf4a4e79c22bda91c6f49",
          "blockNumber": "0x726698",
          "transactionHash": "0x4c8c8da373db4ae78e1c0be9a03b679203e05f4a05f2e16b0af7faa3f7432b06",
          "transactionIndex": "0x69",
          "logIndex": "0x9e",
          "removed": false
        }
      ],
      "logsBloom": "0x00000000000000000000000000000000000000000000000000000000000000000000000000000000000000000000000000000000000000004000000000000000000000000000000000000008000000000000001000000000000000000000000000000000020000000000000000000800020000000000000000000010000000000000000000000000000000000000000000000000000008000000010000000000000000000000000000000000000000004000000000000000000000000000000000000002000000800000000000001000000000000000080000000000000020000000000000000000000000000000000000000000000000000000000000000000",
      "type": "0x2",
      "transactionHash": "0x4c8c8da373db4ae78e1c0be9a03b679203e05f4a05f2e16b0af7faa3f7432b06",
      "transactionIndex": "0x69",
      "blockHash": "0xb2d05e869e89e72362a12164b8c8000d2caa8a2507aaf4a4e79c22bda91c6f49",
      "blockNumber": "0x726698",
      "gasUsed": "0xfb91",
      "effectiveGasPrice": "0xb6bf6d30",
      "from": "0xc77f7fed3b5cc8249adc428c5f44c9063b9734b4",
      "to": "0xbf4a322f1496e5c3d34a9bcdb4c60567b38c7de2",
      "contractAddress": null
    }
  ],
  "libraries": [],
  "pending": [],
  "returns": {},
  "timestamp": 1736950298,
  "chain": 11155111,
  "commit": "51a374b"
}