{
  "transactions": [
    {
      "hash": "0xb5e3d75b5617f7c5b97b10101dea2f3d64dcc270f6ba9355889e55a24bc3178b",
      "transactionType": "CALL",
      "contractName": null,
      "contractAddress": "0x8aafd3ede9adb0ff97c7aebce82a919afb1c8764",
      "function": "sell(uint256)",
      "arguments": [
        "47774363993023100"
      ],
      "transaction": {
        "from": "0xc77f7fed3b5cc8249adc428c5f44c9063b9734b4",
        "to": "0x8aafd3ede9adb0ff97c7aebce82a919afb1c8764",
        "gas": "0x1724d",
        "value": "0x0",
        "input": "0xe4849b3200000000000000000000000000000000000000000000000000a9ba87eb2ca27c",
        "nonce": "0xee4",
        "chainId": "0xaa36a7"
      },
      "additionalContracts": [],
      "isFixedGasLimit": false
    }
  ],
  "receipts": [
    {
      "status": "0x1",
      "cumulativeGasUsed": "0xc35424",
      "logs": [
        {
          "address": "0x8aafd3ede9adb0ff97c7aebce82a919afb1c8764",
          "topics": [
            "0xddf252ad1be2c89b69c2b068fc378daa952ba7f163c4a11628f55a4df523b3ef",
            "0x000000000000000000000000c77f7fed3b5cc8249adc428c5f44c9063b9734b4",
            "0x0000000000000000000000000000000000000000000000000000000000000000"
          ],
          "data": "0x00000000000000000000000000000000000000000000000000a85eed3b368484",
          "blockHash": "0x9a53561d1d20d75f7e5692071aa871daaf7258c7532b684f6423a0d6e184c889",
          "blockNumber": "0x73145b",
          "transactionHash": "0xb5e3d75b5617f7c5b97b10101dea2f3d64dcc270f6ba9355889e55a24bc3178b",
          "transactionIndex": "0x95",
          "logIndex": "0xca",
          "removed": false
        },
        {
          "address": "0x8aafd3ede9adb0ff97c7aebce82a919afb1c8764",
          "topics": [
            "0xddf252ad1be2c89b69c2b068fc378daa952ba7f163c4a11628f55a4df523b3ef",
            "0x000000000000000000000000c77f7fed3b5cc8249adc428c5f44c9063b9734b4",
            "0x000000000000000000000000c77f7fed3b5cc8249adc428c5f44c9063b9734b4"
          ],
          "data": "0x00000000000000000000000000000000000000000000000000015b9aaff61df8",
          "blockHash": "0x9a53561d1d20d75f7e5692071aa871daaf7258c7532b684f6423a0d6e184c889",
          "blockNumber": "0x73145b",
          "transactionHash": "0xb5e3d75b5617f7c5b97b10101dea2f3d64dcc270f6ba9355889e55a24bc3178b",
          "transactionIndex": "0x95",
          "logIndex": "0xcb",
          "removed": false
        },
        {
          "address": "0x8aafd3ede9adb0ff97c7aebce82a919afb1c8764",
          "topics": [
            "0x4afcb4a87cdbd9974efdb92ee48bc8d7cd0ae4bf217004db3d080cbaee652ca7"
          ],
          "data": "0x00000000000000000000000000000000000000000000000000000000678ff0f00000000000000000000000000000000000000000000000000004ba47104bb6f7000000000000000000000000000000000000000000000000000039d1fb560aea",
          "blockHash": "0x9a53561d1d20d75f7e5692071aa871daaf7258c7532b684f6423a0d6e184c889",
          "blockNumber": "0x73145b",
          "transactionHash": "0xb5e3d75b5617f7c5b97b10101dea2f3d64dcc270f6ba9355889e55a24bc3178b",
          "transactionIndex": "0x95",
          "logIndex": "0xcc",
          "removed": false
        }
      ],
      "logsBloom": "0x00000000000000000000000000000000000000000600000000000000000000000000000000000000000000000000000000000000000000004000000000000000000000000000004000000008000000000000000000000000000000000000000000000000020000000000000000000800020000000000000000000010000000000000000000000000000000000000000000000000000000000000010000000000000000000000000000000000000000004000000000000000000000000000000000000002000000800000000000000000000000000000080000000000000020000000000000000000000000000000000000000000000000000000000000000000",
      "type": "0x2",
      "transactionHash": "0xb5e3d75b5617f7c5b97b10101dea2f3d64dcc270f6ba9355889e55a24bc3178b",
      "transactionIndex": "0x95",
      "blockHash": "0x9a53561d1d20d75f7e5692071aa871daaf7258c7532b684f6423a0d6e184c889",
      "blockNumber": "0x73145b",
      "gasUsed": "0xfd33",
      "effectiveGasPrice": "0xc168849b",
      "from": "0xc77f7fed3b5cc8249adc428c5f44c9063b9734b4",
      "to": "0x8aafd3ede9adb0ff97c7aebce82a919afb1c8764",
      "contractAddress": null
    }
  ],
  "libraries": [],
  "pending": [],
  "returns": {},
  "timestamp": 1737486576,
  "chain": 11155111,
  "commit": "51a374b"
}