{
  "transactions": [
    {
      "hash": "0xf884f06b3e78b16a76f1abc6208b4e00c727e5154bfe567e10990ff06310dbcf",
      "transactionType": "CALL",
      "contractName": null,
      "contractAddress": "0x5eb9cc76c3506942c1c0ead70e877dd5e4f00cb0",
      "function": "buy(address)",
      "arguments": [
        "0xC77f7fed3b5Cc8249aDc428c5F44C9063B9734b4"
      ],
      "transaction": {
        "from": "0xc77f7fed3b5cc8249adc428c5f44c9063b9734b4",
        "to": "0x5eb9cc76c3506942c1c0ead70e877dd5e4f00cb0",
        "gas": "0x1b30c",
        "value": "0xde0b6b3a7640000",
        "input": "0xf088d547000000000000000000000000c77f7fed3b5cc8249adc428c5f44c9063b9734b4",
        "nonce": "0x26c",
        "chainId": "0xaa36a7"
      },
      "additionalContracts": [],
      "isFixedGasLimit": false
    }
  ],
  "receipts": [
    {
      "status": "0x1",
      "cumulativeGasUsed": "0x9e965b",
      "logs": [
        {
          "address": "0x5eb9cc76c3506942c1c0ead70e877dd5e4f00cb0",
          "topics": [
            "0xddf252ad1be2c89b69c2b068fc378daa952ba7f163c4a11628f55a4df523b3ef",
            "0x0000000000000000000000000000000000000000000000000000000000000000",
            "0x000000000000000000000000c77f7fed3b5cc8249adc428c5f44c9063b9734b4"
          ],
          "data": "0x0000000000000000000000000000000000000000000000357c133c9270d62263",
          "blockHash": "0x68338f7714dc60d127e692813636053edae288d2209883d0a479c49ace365bbb",
          "blockNumber": "0x724e33",
          "transactionHash": "0xf884f06b3e78b16a76f1abc6208b4e00c727e5154bfe567e10990ff06310dbcf",
          "transactionIndex": "0x6b",
          "logIndex": "0xbf",
          "removed": false
        },
        {
          "address": "0x5eb9cc76c3506942c1c0ead70e877dd5e4f00cb0",
          "topics": [
            "0xddf252ad1be2c89b69c2b068fc378daa952ba7f163c4a11628f55a4df523b3ef",
            "0x0000000000000000000000000000000000000000000000000000000000000000",
            "0x000000000000000000000000c77f7fed3b5cc8249adc428c5f44c9063b9734b4"
          ],
          "data": "0x00000000000000000000000000000000000000000000000029885d06b1ff6c30",
          "blockHash": "0x68338f7714dc60d127e692813636053edae288d2209883d0a479c49ace365bbb",
          "blockNumber": "0x724e33",
          "transactionHash": "0xf884f06b3e78b16a76f1abc6208b4e00c727e5154bfe567e10990ff06310dbcf",
          "transactionIndex": "0x6b",
          "logIndex": "0xc0",
          "removed": false
        },
        {
          "address": "0x5eb9cc76c3506942c1c0ead70e877dd5e4f00cb0",
          "topics": [
            "0x4afcb4a87cdbd9974efdb92ee48bc8d7cd0ae4bf217004db3d080cbaee652ca7"
          ],
          "data": "0x0000000000000000000000000000000000000000000000000000000067869c180000000000000000000000000000000000000000000000000003909cc8d73b970000000000000000000000000000000000000000000000000de0b6b3a7640000",
          "blockHash": "0x68338f7714dc60d127e692813636053edae288d2209883d0a479c49ace365bbb",
          "blockNumber": "0x724e33",
          "transactionHash": "0xf884f06b3e78b16a76f1abc6208b4e00c727e5154bfe567e10990ff06310dbcf",
          "transactionIndex": "0x6b",
          "logIndex": "0xc1",
          "removed": false
        }
      ],
      "logsBloom": "0x00000000000000000000000000000000000000000000000000000000000000000000000000000000000000000000000000000000000000004000000000000000000000000000000000000008000000000000000000000000000000000000000000000000020000000000000004000800020000000000000000000010000000000000000000000000000000000000000000000000000000000000010000000000000000000000000000000000000000004000000000000000000000000000020000000002000000800000008000000000000000000000080000000000000020000000000000000000000000000000000000000000000000000000000000000000",
      "type": "0x2",
      "transactionHash": "0xf884f06b3e78b16a76f1abc6208b4e00c727e5154bfe567e10990ff06310dbcf",
      "transactionIndex": "0x6b",
      "blockHash": "0x68338f7714dc60d127e692813636053edae288d2209883d0a479c49ace365bbb",
      "blockNumber": "0x724e33",
      "gasUsed": "0x13af8",
      "effectiveGasPrice": "0x317fa6992",
      "from": "0xc77f7fed3b5cc8249adc428c5f44c9063b9734b4",
      "to": "0x5eb9cc76c3506942c1c0ead70e877dd5e4f00cb0",
      "contractAddress": null
    }
  ],
  "libraries": [],
  "pending": [],
  "returns": {},
  "timestamp": 1736875034,
  "chain": 11155111,
  "commit": "51a374b"
}