{
  "transactions": [
    {
      "hash": "0xbedb3e5f9ee6b359b0f1da03382b56c7c0ea7fc8f753190a1f77a33d6e3bbee0",
      "transactionType": "CALL",
      "contractName": null,
      "contractAddress": "0x8aafd3ede9adb0ff97c7aebce82a919afb1c8764",
      "function": "sell(uint256)",
      "arguments": [
        "14714037993512070"
      ],
      "transaction": {
        "from": "0xc77f7fed3b5cc8249adc428c5f44c9063b9734b4",
        "to": "0x8aafd3ede9adb0ff97c7aebce82a919afb1c8764",
        "gas": "0x1724d",
        "value": "0x0",
        "input": "0xe4849b3200000000000000000000000000000000000000000000000000344656efd09c86",
        "nonce": "0x1471",
        "chainId": "0xaa36a7"
      },
      "additionalContracts": [],
      "isFixedGasLimit": false
    }
  ],
  "receipts": [
    {
      "status": "0x1",
      "cumulativeGasUsed": "0x7b2e1d",
      "logs": [
        {
          "address": "0x8aafd3ede9adb0ff97c7aebce82a919afb1c8764",
          "topics": [
            "0xddf252ad1be2c89b69c2b068fc378daa952ba7f163c4a11628f55a4df523b3ef",
            "0x000000000000000000000000c77f7fed3b5cc8249adc428c5f44c9063b9734b4",
            "0x0000000000000000000000000000000000000000000000000000000000000000"
          ],
          "data": "0x0000000000000000000000000000000000000000000000000033db47e7c09b46",
          "blockHash": "0xbf7005b1a45f9d841b3fd63bce814b408018d215cb8917297550b93ba0a0cfb1",
          "blockNumber": "0x731bbe",
          "transactionHash": "0xbedb3e5f9ee6b359b0f1da03382b56c7c0ea7fc8f753190a1f77a33d6e3bbee0",
          "transactionIndex": "0x49",
          "logIndex": "0x68",
          "removed": false
        },
        {
          "address": "0x8aafd3ede9adb0ff97c7aebce82a919afb1c8764",
          "topics": [
            "0xddf252ad1be2c89b69c2b068fc378daa952ba7f163c4a11628f55a4df523b3ef",
            "0x000000000000000000000000c77f7fed3b5cc8249adc428c5f44c9063b9734b4",
            "0x000000000000000000000000c77f7fed3b5cc8249adc428c5f44c9063b9734b4"
          ],
          "data": "0x00000000000000000000000000000000000000000000000000006b0f08100140",
          "blockHash": "0xbf7005b1a45f9d841b3fd63bce814b408018d215cb8917297550b93ba0a0cfb1",
          "blockNumber": "0x731bbe",
          "transactionHash": "0xbedb3e5f9ee6b359b0f1da03382b56c7c0ea7fc8f753190a1f77a33d6e3bbee0",
          "transactionIndex": "0x49",
          "logIndex": "0x69",
          "removed": false
        },
        {
          "address": "0x8aafd3ede9adb0ff97c7aebce82a919afb1c8764",
          "topics": [
            "0x4afcb4a87cdbd9974efdb92ee48bc8d7cd0ae4bf217004db3d080cbaee652ca7"
          ],
          "data": "0x00000000000000000000000000000000000000000000000000000000679049c4000000000000000000000000000000000000000000000000000f72a5815c2a4400000000000000000000000000000000000000000000000000003a3055337075",
          "blockHash": "0xbf7005b1a45f9d841b3fd63bce814b408018d215cb8917297550b93ba0a0cfb1",
          "blockNumber": "0x731bbe",
          "transactionHash": "0xbedb3e5f9ee6b359b0f1da03382b56c7c0ea7fc8f753190a1f77a33d6e3bbee0",
          "transactionIndex": "0x49",
          "logIndex": "0x6a",
          "removed": false
        }
      ],
      "logsBloom": "0x00000000000000000000000000000000000000000600000000000000000000000000000000000000000000000000000000000000000000004000000000000000000000000000004000000008000000000000000000000000000000000000000000000000020000000000000000000800020000000000000000000010000000000000000000000000000000000000000000000000000000000000010000000000000000000000000000000000000000004000000000000000000000000000000000000002000000800000000000000000000000000000080000000000000020000000000000000000000000000000000000000000000000000000000000000000",
      "type": "0x2",
      "transactionHash": "0xbedb3e5f9ee6b359b0f1da03382b56c7c0ea7fc8f753190a1f77a33d6e3bbee0",
      "transactionIndex": "0x49",
      "blockHash": "0xbf7005b1a45f9d841b3fd63bce814b408018d215cb8917297550b93ba0a0cfb1",
      "blockNumber": "0x731bbe",
      "gasUsed": "0xfd33",
      "effectiveGasPrice": "0xf9a91087",
      "from": "0xc77f7fed3b5cc8249adc428c5f44c9063b9734b4",
      "to": "0x8aafd3ede9adb0ff97c7aebce82a919afb1c8764",
      "contractAddress": null
    }
  ],
  "libraries": [],
  "pending": [],
  "returns": {},
  "timestamp": 1737509317,
  "chain": 11155111,
  "commit": "1d2fb70"
}