{
  "transactions": [
    {
      "hash": "0x5246fdb3af86014ae46fecd8513060e26b9fc28c963b6a2ae3344584af5c279c",
      "transactionType": "CALL",
      "contractName": null,
      "contractAddress": "0x8aafd3ede9adb0ff97c7aebce82a919afb1c8764",
      "function": "sell(uint256)",
      "arguments": [
        "615390315191"
      ],
      "transaction": {
        "from": "0xc77f7fed3b5cc8249adc428c5f44c9063b9734b4",
        "to": "0x8aafd3ede9adb0ff97c7aebce82a919afb1c8764",
        "gas": "0x1722a",
        "value": "0x0",
        "input": "0xe4849b320000000000000000000000000000000000000000000000000000008f481f02b7",
        "nonce": "0x1731",
        "chainId": "0xaa36a7"
      },
      "additionalContracts": [],
      "isFixedGasLimit": false
    }
  ],
  "receipts": [
    {
      "status": "0x1",
      "cumulativeGasUsed": "0x2163397",
      "logs": [
        {
          "address": "0x8aafd3ede9adb0ff97c7aebce82a919afb1c8764",
          "topics": [
            "0xddf252ad1be2c89b69c2b068fc378daa952ba7f163c4a11628f55a4df523b3ef",
            "0x000000000000000000000000c77f7fed3b5cc8249adc428c5f44c9063b9734b4",
            "0x0000000000000000000000000000000000000000000000000000000000000000"
          ],
          "data": "0x0000000000000000000000000000000000000000000000000000008e22ae1f5e",
          "blockHash": "0xa001c1daa52c8bd21ce7c7a505f094f15f815002b83db217d98808c933a2f44c",
          "blockNumber": "0x731efc",
          "transactionHash": "0x5246fdb3af86014ae46fecd8513060e26b9fc28c963b6a2ae3344584af5c279c",
          "transactionIndex": "0x44",
          "logIndex": "0x10fd",
          "removed": false
        },
        {
          "address": "0x8aafd3ede9adb0ff97c7aebce82a919afb1c8764",
          "topics": [
            "0xddf252ad1be2c89b69c2b068fc378daa952ba7f163c4a11628f55a4df523b3ef",
            "0x000000000000000000000000c77f7fed3b5cc8249adc428c5f44c9063b9734b4",
            "0x000000000000000000000000c77f7fed3b5cc8249adc428c5f44c9063b9734b4"
          ],
          "data": "0x000000000000000000000000000000000000000000000000000000012570e359",
          "blockHash": "0xa001c1daa52c8bd21ce7c7a505f094f15f815002b83db217d98808c933a2f44c",
          "blockNumber": "0x731efc",
          "transactionHash": "0x5246fdb3af86014ae46fecd8513060e26b9fc28c963b6a2ae3344584af5c279c",
          "transactionIndex": "0x44",
          "logIndex": "0x10fe",
          "removed": false
        },
        {
          "address": "0x8aafd3ede9adb0ff97c7aebce82a919afb1c8764",
          "topics": [
            "0x4afcb4a87cdbd9974efdb92ee48bc8d7cd0ae4bf217004db3d080cbaee652ca7"
          ],
          "data": "0x00000000000000000000000000000000000000000000000000000000679070b80000000000000000000000000000000000000000000000000017962395be562e00000000000000000000000000000000000000000000000000000000f384fc27",
          "blockHash": "0xa001c1daa52c8bd21ce7c7a505f094f15f815002b83db217d98808c933a2f44c",
          "blockNumber": "0x731efc",
          "transactionHash": "0x5246fdb3af86014ae46fecd8513060e26b9fc28c963b6a2ae3344584af5c279c",
          "transactionIndex": "0x44",
          "logIndex": "0x10ff",
          "removed": false
        }
      ],
      "logsBloom": "0x00000000000000000000000000000000000000000600000000000000000000000000000000000000000000000000000000000000000000004000000000000000000000000000004000000008000000000000000000000000000000000000000000000000020000000000000000000800020000000000000000000010000000000000000000000000000000000000000000000000000000000000010000000000000000000000000000000000000000004000000000000000000000000000000000000002000000800000000000000000000000000000080000000000000020000000000000000000000000000000000000000000000000000000000000000000",
      "type": "0x2",
      "transactionHash": "0x5246fdb3af86014ae46fecd8513060e26b9fc28c963b6a2ae3344584af5c279c",
      "transactionIndex": "0x44",
      "blockHash": "0xa001c1daa52c8bd21ce7c7a505f094f15f815002b83db217d98808c933a2f44c",
      "blockNumber": "0x731efc",
      "gasUsed": "0xfd1b",
      "effectiveGasPrice": "0x3ef6a90e",
      "from": "0xc77f7fed3b5cc8249adc428c5f44c9063b9734b4",
      "to": "0x8aafd3ede9adb0ff97c7aebce82a919afb1c8764",
      "contractAddress": null
    }
  ],
  "libraries": [],
  "pending": [],
  "returns": {},
  "timestamp": 1737519289,
  "chain": 11155111,
  "commit": "1d2fb70"
}