{
  "transactions": [
    {
      "hash": "0xf6269af4635498a4c1170adb576e14cc99443d69fc2116e73e9d06d910987370",
      "transactionType": "CALL",
      "contractName": null,
      "contractAddress": "0x8aafd3ede9adb0ff97c7aebce82a919afb1c8764",
      "function": "sell(uint256)",
      "arguments": [
        "5866504452"
      ],
      "transaction": {
        "from": "0xc77f7fed3b5cc8249adc428c5f44c9063b9734b4",
        "to": "0x8aafd3ede9adb0ff97c7aebce82a919afb1c8764",
        "gas": "0x1722a",
        "value": "0x0",
        "input": "0xe4849b32000000000000000000000000000000000000000000000000000000015dabc104",
        "nonce": "0x15ee",
        "chainId": "0xaa36a7"
      },
      "additionalContracts": [],
      "isFixedGasLimit": false
    }
  ],
  "receipts": [
    {
      "status": "0x1",
      "cumulativeGasUsed": "0x113264d",
      "logs": [
        {
          "address": "0x8aafd3ede9adb0ff97c7aebce82a919afb1c8764",
          "topics": [
            "0xddf252ad1be2c89b69c2b068fc378daa952ba7f163c4a11628f55a4df523b3ef",
            "0x000000000000000000000000c77f7fed3b5cc8249adc428c5f44c9063b9734b4",
            "0x0000000000000000000000000000000000000000000000000000000000000000"
          ],
          "data": "0x000000000000000000000000000000000000000000000000000000015adfa0c1",
          "blockHash": "0xe9f202f78892c42d5c9c0fd28c874462069c478b06f888a114ca2e6fedf23436",
          "blockNumber": "0x731d71",
          "transactionHash": "0xf6269af4635498a4c1170adb576e14cc99443d69fc2116e73e9d06d910987370",
          "transactionIndex": "0x8b",
          "logIndex": "0xc9",
          "removed": false
        },
        {
          "address": "0x8aafd3ede9adb0ff97c7aebce82a919afb1c8764",
          "topics": [
            "0xddf252ad1be2c89b69c2b068fc378daa952ba7f163c4a11628f55a4df523b3ef",
            "0x000000000000000000000000c77f7fed3b5cc8249adc428c5f44c9063b9734b4",
            "0x000000000000000000000000c77f7fed3b5cc8249adc428c5f44c9063b9734b4"
          ],
          "data": "0x0000000000000000000000000000000000000000000000000000000002cc2043",
          "blockHash": "0xe9f202f78892c42d5c9c0fd28c874462069c478b06f888a114ca2e6fedf23436",
          "blockNumber": "0x731d71",
          "transactionHash": "0xf6269af4635498a4c1170adb576e14cc99443d69fc2116e73e9d06d910987370",
          "transactionIndex": "0x8b",
          "logIndex": "0xca",
          "removed": false
        },
        {
          "address": "0x8aafd3ede9adb0ff97c7aebce82a919afb1c8764",
          "topics": [
            "0x4afcb4a87cdbd9974efdb92ee48bc8d7cd0ae4bf217004db3d080cbaee652ca7"
          ],
          "data": "0x0000000000000000000000000000000000000000000000000000000067905e340000000000000000000000000000000000000000000000000013cf47b3a85ac10000000000000000000000000000000000000000000000000000000001f3223a",
          "blockHash": "0xe9f202f78892c42d5c9c0fd28c874462069c478b06f888a114ca2e6fedf23436",
          "blockNumber": "0x731d71",
          "transactionHash": "0xf6269af4635498a4c1170adb576e14cc99443d69fc2116e73e9d06d910987370",
          "transactionIndex": "0x8b",
          "logIndex": "0xcb",
          "removed": false
        }
      ],
      "logsBloom": "0x00000000000000000000000000000000000000000600000000000000000000000000000000000000000000000000000000000000000000004000000000000000000000000000004000000008000000000000000000000000000000000000000000000000020000000000000000000800020000000000000000000010000000000000000000000000000000000000000000000000000000000000010000000000000000000000000000000000000000004000000000000000000000000000000000000002000000800000000000000000000000000000080000000000000020000000000000000000000000000000000000000000000000000000000000000000",
      "type": "0x2",
      "transactionHash": "0xf6269af4635498a4c1170adb576e14cc99443d69fc2116e73e9d06d910987370",
      "transactionIndex": "0x8b",
      "blockHash": "0xe9f202f78892c42d5c9c0fd28c874462069c478b06f888a114ca2e6fedf23436",
      "blockNumber": "0x731d71",
      "gasUsed": "0xfd1b",
      "effectiveGasPrice": "0x6901a854",
      "from": "0xc77f7fed3b5cc8249adc428c5f44c9063b9734b4",
      "to": "0x8aafd3ede9adb0ff97c7aebce82a919afb1c8764",
      "contractAddress": null
    }
  ],
  "libraries": [],
  "pending": [],
  "returns": {},
  "timestamp": 1737514550,
  "chain": 11155111,
  "commit": "1d2fb70"
}