{
  "transactions": [
    {
      "hash": "0xb3bbeb740ecae27be44cad56b318904ed681ccf42aa7359c284dc201fc095d77",
      "transactionType": "CALL",
      "contractName": null,
      "contractAddress": "0xbf4a322f1496e5c3d34a9bcdb4c60567b38c7de2",
      "function": "sell(uint256)",
      "arguments": [
        "987099267515998032366"
      ],
      "transaction": {
        "from": "0xc77f7fed3b5cc8249adc428c5f44c9063b9734b4",
        "to": "0xbf4a322f1496e5c3d34a9bcdb4c60567b38c7de2",
        "gas": "0x16fea",
        "value": "0x0",
        "input": "0xe4849b3200000000000000000000000000000000000000000000003582c111ee035851ee",
        "nonce": "0xa0b",
        "chainId": "0xaa36a7"
      },
      "additionalContracts": [],
      "isFixedGasLimit": false
    }
  ],
  "receipts": [
    {
      "status": "0x1",
      "cumulativeGasUsed": "0xdab065",
      "logs": [
        {
          "address": "0xbf4a322f1496e5c3d34a9bcdb4c60567b38c7de2",
          "topics": [
            "0xddf252ad1be2c89b69c2b068fc378daa952ba7f163c4a11628f55a4df523b3ef",
            "0x000000000000000000000000c77f7fed3b5cc8249adc428c5f44c9063b9734b4",
            "0x0000000000000000000000000000000000000000000000000000000000000000"
          ],
          "data": "0x00000000000000000000000000000000000000000000003582c111ee035851ee",
          "blockHash": "0x41ba3547aa83fd965346963b05bd19375a8384db8e0627911f2ab5c7c29eb706",
          "blockNumber": "0x7259c8",
          "transactionHash": "0xb3bbeb740ecae27be44cad56b318904ed681ccf42aa7359c284dc201fc095d77",
          "transactionIndex": "0x77",
          "logIndex": "0xc9",
          "removed": false
        },
        {
          "address": "0xbf4a322f1496e5c3d34a9bcdb4c60567b38c7de2",
          "topics": [
            "0x4afcb4a87cdbd9974efdb92ee48bc8d7cd0ae4bf217004db3d080cbaee652ca7"
          ],
          "data": "0x00000000000000000000000000000000000000000000000000000000678727a4000000000000000000000000000000000000000000000000000392f5a4b35be80000000000000000000000000000000000000000000000000dc7e3f2927a0fa4",
          "blockHash": "0x41ba3547aa83fd965346963b05bd19375a8384db8e0627911f2ab5c7c29eb706",
          "blockNumber": "0x7259c8",
          "transactionHash": "0xb3bbeb740ecae27be44cad56b318904ed681ccf42aa7359c284dc201fc095d77",
          "transactionIndex": "0x77",
          "logIndex": "0xca",
          "removed": false
        }
      ],
      "logsBloom": "0x00000000000000000000000000000000000000000000000000000000000000000000000000000000000000000000000000000000000000004000000000000000000000000000000000000008000000000000001000000000000000000000000000000000020000000000000000000800020000000000000000000010000000000000000000000000000000000000000000000000000008000000010000000000000000000000000000000000000000004000000000000000000000000000000000000002000000800000000000001000000000000000080000000000000020000000000000000000000000000000000000000000000000000000000000000000",
      "type": "0x2",
      "transactionHash": "0xb3bbeb740ecae27be44cad56b318904ed681ccf42aa7359c284dc201fc095d77",
      "transactionIndex": "0x77",
      "blockHash": "0x41ba3547aa83fd965346963b05bd19375a8384db8e0627911f2ab5c7c29eb706",
      "blockNumber": "0x7259c8",
      "gasUsed": "0xfb91",
      "effectiveGasPrice": "0x3499b7eaf",
      "from": "0xc77f7fed3b5cc8249adc428c5f44c9063b9734b4",
      "to": "0xbf4a322f1496e5c3d34a9bcdb4c60567b38c7de2",
      "contractAddress": null
    }
  ],
  "libraries": [],
  "pending": [],
  "returns": {},
  "timestamp": 1736910757,
  "chain": 11155111,
  "commit": "51a374b"
}