{
  "transactions": [
    {
      "hash": "0x9ab5afe3b04c2e735e56f002168e0f8b216bab3015947d343cc7381dcf37f306",
      "transactionType": "CALL",
      "contractName": null,
      "contractAddress": "0xd7bc75898e513accccf720a874d44dab5a4b6223",
      "function": "sell(uint256)",
      "arguments": [
        "9929992453673651406"
      ],
      "transaction": {
        "from": "0xc77f7fed3b5cc8249adc428c5f44c9063b9734b4",
        "to": "0xd7bc75898e513accccf720a874d44dab5a4b6223",
        "gas": "0x15b6b",
        "value": "0x0",
        "input": "0xe4849b3200000000000000000000000000000000000000000000000089ce6b8677870cce",
        "nonce": "0xbb",
        "chainId": "0xaa36a7"
      },
      "additionalContracts": [],
      "isFixedGasLimit": false
    }
  ],
  "receipts": [
    {
      "status": "0x1",
      "cumulativeGasUsed": "0x5fdb3d",
      "logs": [
        {
          "address": "0xd7bc75898e513accccf720a874d44dab5a4b6223",
          "topics": [
            "0xddf252ad1be2c89b69c2b068fc378daa952ba7f163c4a11628f55a4df523b3ef",
            "0x000000000000000000000000c77f7fed3b5cc8249adc428c5f44c9063b9734b4",
            "0x0000000000000000000000000000000000000000000000000000000000000000"
          ],
          "data": "0x00000000000000000000000000000000000000000000000089ce6b8677870cce",
          "blockHash": "0x1e1aa5931297dfc69f0c6407092668539d323ed0b9486e6620b489e095d16312",
          "blockNumber": "0x723936",
          "transactionHash": "0x9ab5afe3b04c2e735e56f002168e0f8b216bab3015947d343cc7381dcf37f306",
          "transactionIndex": "0x27",
          "logIndex": "0x36",
          "removed": false
        },
        {
          "address": "0xd7bc75898e513accccf720a874d44dab5a4b6223",
          "topics": [
            "0x4afcb4a87cdbd9974efdb92ee48bc8d7cd0ae4bf217004db3d080cbaee652ca7"
          ],
          "data": "0x0000000000000000000000000000000000000000000000000000000067859fd000000000000000000000000000000000000000000000000000038d7f86850ba30000000000000000000000000000000000000000000000000023474f493d2798",
          "blockHash": "0x1e1aa5931297dfc69f0c6407092668539d323ed0b9486e6620b489e095d16312",
          "blockNumber": "0x723936",
          "transactionHash": "0x9ab5afe3b04c2e735e56f002168e0f8b216bab3015947d343cc7381dcf37f306",
          "transactionIndex": "0x27",
          "logIndex": "0x37",
          "removed": false
        }
      ],
      "logsBloom": "0x00000000000000000000000000000000000000000000000000000000000000000000000000000000000000000000000000000000000000004000000000000000000000000000000000000008000000000000000000000000000000000000000000000000020000000000000000000800020000000000000000000010000000000000000000000000000000000000000000000000000000000000010000000000000000000000000000000000000000004000001000000000000000000000000000000002000000800000000000004000000000000000080000000000000020000000000000000000000000000000000000000000080000000000000000000000",
      "type": "0x2",
      "transactionHash": "0x9ab5afe3b04c2e735e56f002168e0f8b216bab3015947d343cc7381dcf37f306",
      "transactionIndex": "0x27",
      "blockHash": "0x1e1aa5931297dfc69f0c6407092668539d323ed0b9486e6620b489e095d16312",
      "blockNumber": "0x723936",
      "gasUsed": "0xfb87",
      "effectiveGasPrice": "0x19c934e9",
      "from": "0xc77f7fed3b5cc8249adc428c5f44c9063b9734b4",
      "to": "0xd7bc75898e513accccf720a874d44dab5a4b6223",
      "contractAddress": null
    }
  ],
  "libraries": [],
  "pending": [],
  "returns": {},
  "timestamp": 1736810449,
  "chain": 11155111,
  "commit": "51a374b"
}