{
  "transactions": [
    {
      "hash": "0x97627d3daf89866f4ae0f7a4c0069f3057239182ec110eec37c15c1053920d56",
      "transactionType": "CALL",
      "contractName": null,
      "contractAddress": "0x5eb9cc76c3506942c1c0ead70e877dd5e4f00cb0",
      "function": "sell(uint256)",
      "arguments": [
        "989096812021372681299"
      ],
      "transaction": {
        "from": "0xc77f7fed3b5cc8249adc428c5f44c9063b9734b4",
        "to": "0x5eb9cc76c3506942c1c0ead70e877dd5e4f00cb0",
        "gas": "0x16fec",
        "value": "0x0",
        "input": "0xe4849b320000000000000000000000000000000000000000000000359e79c612ed3bfc53",
        "nonce": "0x415",
        "chainId": "0xaa36a7"
      },
      "additionalContracts": [],
      "isFixedGasLimit": false
    }
  ],
  "receipts": [
    {
      "status": "0x1",
      "cumulativeGasUsed": "0x88250a",
      "logs": [
        {
          "address": "0x5eb9cc76c3506942c1c0ead70e877dd5e4f00cb0",
          "topics": [
            "0xddf252ad1be2c89b69c2b068fc378daa952ba7f163c4a11628f55a4df523b3ef",
            "0x000000000000000000000000c77f7fed3b5cc8249adc428c5f44c9063b9734b4",
            "0x0000000000000000000000000000000000000000000000000000000000000000"
          ],
          "data": "0x0000000000000000000000000000000000000000000000359e79c612ed3bfc53",
          "blockHash": "0x86602df8d6fa234d909ed1b617518cbdcf9cd728e6447ed469326e3312355d0b",
          "blockNumber": "0x725027",
          "transactionHash": "0x97627d3daf89866f4ae0f7a4c0069f3057239182ec110eec37c15c1053920d56",
          "transactionIndex": "0x44",
          "logIndex": "0x72",
          "removed": false
        },
        {
          "address": "0x5eb9cc76c3506942c1c0ead70e877dd5e4f00cb0",
          "topics": [
            "0x4afcb4a87cdbd9974efdb92ee48bc8d7cd0ae4bf217004db3d080cbaee652ca7"
          ],
          "data": "0x000000000000000000000000000000000000000000000000000000006786b3a00000000000000000000000000000000000000000000000000003911639b965900000000000000000000000000000000000000000000000000dc7db1331e1c694",
          "blockHash": "0x86602df8d6fa234d909ed1b617518cbdcf9cd728e6447ed469326e3312355d0b",
          "blockNumber": "0x725027",
          "transactionHash": "0x97627d3daf89866f4ae0f7a4c0069f3057239182ec110eec37c15c1053920d56",
          "transactionIndex": "0x44",
          "logIndex": "0x73",
          "removed": false
        }
      ],
      "logsBloom": "0x00000000000000000000000000000000000000000000000000000000000000000000000000000000000000000000000000000000000000004000000000000000000000000000000000000008000000000000000000000000000000000000000000000000020000000000000004000800020000000000000000000010000000000000000000000000000000000000000000000000000000000000010000000000000000000000000000000000000000004000000000000000000000000000020000000002000000800000008000000000000000000000080000000000000020000000000000000000000000000000000000000000000000000000000000000000",
      "type": "0x2",
      "transactionHash": "0x97627d3daf89866f4ae0f7a4c0069f3057239182ec110eec37c15c1053920d56",
      "transactionIndex": "0x44",
      "blockHash": "0x86602df8d6fa234d909ed1b617518cbdcf9cd728e6447ed469326e3312355d0b",
      "blockNumber": "0x725027",
      "gasUsed": "0xfb93",
      "effectiveGasPrice": "0x2e37944bf",
      "from": "0xc77f7fed3b5cc8249adc428c5f44c9063b9734b4",
      "to": "0x5eb9cc76c3506942c1c0ead70e877dd5e4f00cb0",
      "contractAddress": null
    }
  ],
  "libraries": [],
  "pending": [],
  "returns": {},
  "timestamp": 1736881056,
  "chain": 11155111,
  "commit": "51a374b"
}