{
  "transactions": [
    {
      "hash": "0xc1d78b70d67f7bfc4e5302f8f0e6ed4f925d9bf6838173cd6d9ac804ef122981",
      "transactionType": "CALL",
      "contractName": null,
      "contractAddress": "0x8aafd3ede9adb0ff97c7aebce82a919afb1c8764",
      "function": "sell(uint256)",
      "arguments": [
        "1557729"
      ],
      "transaction": {
        "from": "0xc77f7fed3b5cc8249adc428c5f44c9063b9734b4",
        "to": "0x8aafd3ede9adb0ff97c7aebce82a919afb1c8764",
        "gas": "0x16208",
        "value": "0x0",
        "input": "0xe4849b32000000000000000000000000000000000000000000000000000000000017c4e1",
        "nonce": "0xf46",
        "chainId": "0xaa36a7"
      },
      "additionalContracts": [],
      "isFixedGasLimit": false
    }
  ],
  "receipts": [
    {
      "status": "0x1",
      "cumulativeGasUsed": "0xd83d96",
      "logs": [
        {
          "address": "0x8aafd3ede9adb0ff97c7aebce82a919afb1c8764",
          "topics": [
            "0xddf252ad1be2c89b69c2b068fc378daa952ba7f163c4a11628f55a4df523b3ef",
            "0x000000000000000000000000c77f7fed3b5cc8249adc428c5f44c9063b9734b4",
            "0x0000000000000000000000000000000000000000000000000000000000000000"
          ],
          "data": "0x0000000000000000000000000000000000000000000000000000000000179434",
          "blockHash": "0x6ea7f59730533c126885cbcb0e9af5cff518967bcee3d24643f4b824e2e5b800",
          "blockNumber": "0x7315a1",
          "transactionHash": "0xc1d78b70d67f7bfc4e5302f8f0e6ed4f925d9bf6838173cd6d9ac804ef122981",
          "transactionIndex": "0x8f",
          "logIndex": "0xa9",
          "removed": false
        },
        {
          "address": "0x8aafd3ede9adb0ff97c7aebce82a919afb1c8764",
          "topics": [
            "0xddf252ad1be2c89b69c2b068fc378daa952ba7f163c4a11628f55a4df523b3ef",
            "0x000000000000000000000000c77f7fed3b5cc8249adc428c5f44c9063b9734b4",
            "0x000000000000000000000000c77f7fed3b5cc8249adc428c5f44c9063b9734b4"
          ],
          "data": "0x00000000000000000000000000000000000000000000000000000000000030ad",
          "blockHash": "0x6ea7f59730533c126885cbcb0e9af5cff518967bcee3d24643f4b824e2e5b800",
          "blockNumber": "0x7315a1",
          "transactionHash": "0xc1d78b70d67f7bfc4e5302f8f0e6ed4f925d9bf6838173cd6d9ac804ef122981",
          "transactionIndex": "0x8f",
          "logIndex": "0xaa",
          "removed": false
        },
        {
          "address": "0x8aafd3ede9adb0ff97c7aebce82a919afb1c8764",
          "topics": [
            "0x4afcb4a87cdbd9974efdb92ee48bc8d7cd0ae4bf217004db3d080cbaee652ca7"
          ],
          "data": "0x00000000000000000000000000000000000000000000000000000000679000380000000000000000000000000000000000000000000000000004c033badb46e90000000000000000000000000000000000000000000000000000000000000823",
          "blockHash": "0x6ea7f59730533c126885cbcb0e9af5cff518967bcee3d24643f4b824e2e5b800",
          "blockNumber": "0x7315a1",
          "transactionHash": "0xc1d78b70d67f7bfc4e5302f8f0e6ed4f925d9bf6838173cd6d9ac804ef122981",
          "transactionIndex": "0x8f",
          "logIndex": "0xab",
          "removed": false
        }
      ],
      "logsBloom": "0x00000000000000000000000000000000000000000600000000000000000000000000000000000000000000000000000000000000000000004000000000000000000000000000004000000008000000000000000000000000000000000000000000000000020000000000000000000800020000000000000000000010000000000000000000000000000000000000000000000000000000000000010000000000000000000000000000000000000000004000000000000000000000000000000000000002000000800000000000000000000000000000080000000000000020000000000000000000000000000000000000000000000000000000000000000000",
      "type": "0x2",
      "transactionHash": "0xc1d78b70d67f7bfc4e5302f8f0e6ed4f925d9bf6838173cd6d9ac804ef122981",
      "transactionIndex": "0x8f",
      "blockHash": "0x6ea7f59730533c126885cbcb0e9af5cff518967bcee3d24643f4b824e2e5b800",
      "blockNumber": "0x7315a1",
      "gasUsed": "0xf213",
      "effectiveGasPrice": "0x6dd9d06d",
      "from": "0xc77f7fed3b5cc8249adc428c5f44c9063b9734b4",
      "to": "0x8aafd3ede9adb0ff97c7aebce82a919afb1c8764",
      "contractAddress": null
    }
  ],
  "libraries": [],
  "pending": [],
  "returns": {},
  "timestamp": 1737490490,
  "chain": 11155111,
  "commit": "1d2fb70"
}