{
  "transactions": [
    {
      "hash": "0x320bd3ae7b10c64f4342872f54d82f71946eba8c2cb1597988e8384b6cf910e1",
      "transactionType": "CALL",
      "contractName": null,
      "contractAddress": "0x8aafd3ede9adb0ff97c7aebce82a919afb1c8764",
      "function": "sell(uint256)",
      "arguments": [
        "1569244"
      ],
      "transaction": {
        "from": "0xc77f7fed3b5cc8249adc428c5f44c9063b9734b4",
        "to": "0x8aafd3ede9adb0ff97c7aebce82a919afb1c8764",
        "gas": "0x16208",
        "value": "0x0",
        "input": "0xe4849b32000000000000000000000000000000000000000000000000000000000017f1dc",
        "nonce": "0xea3",
        "chainId": "0xaa36a7"
      },
      "additionalContracts": [],
      "isFixedGasLimit": false
    }
  ],
  "receipts": [
    {
      "status": "0x1",
      "cumulativeGasUsed": "0xe45235",
      "logs": [
        {
          "address": "0x8aafd3ede9adb0ff97c7aebce82a919afb1c8764",
          "topics": [
            "0xddf252ad1be2c89b69c2b068fc378daa952ba7f163c4a11628f55a4df523b3ef",
            "0x000000000000000000000000c77f7fed3b5cc8249adc428c5f44c9063b9734b4",
            "0x0000000000000000000000000000000000000000000000000000000000000000"
          ],
          "data": "0x000000000000000000000000000000000000000000000000000000000017c0d3",
          "blockHash": "0x404dd0fc5a787c9b96909f5b9d7259f4db6944f84d239fa2c202aef2b37ac1e4",
          "blockNumber": "0x731406",
          "transactionHash": "0x320bd3ae7b10c64f4342872f54d82f71946eba8c2cb1597988e8384b6cf910e1",
          "transactionIndex": "0xb3",
          "logIndex": "0xf3",
          "removed": false
        },
        {
          "address": "0x8aafd3ede9adb0ff97c7aebce82a919afb1c8764",
          "topics": [
            "0xddf252ad1be2c89b69c2b068fc378daa952ba7f163c4a11628f55a4df523b3ef",
            "0x000000000000000000000000c77f7fed3b5cc8249adc428c5f44c9063b9734b4",
            "0x000000000000000000000000c77f7fed3b5cc8249adc428c5f44c9063b9734b4"
          ],
          "data": "0x0000000000000000000000000000000000000000000000000000000000003109",
          "blockHash": "0x404dd0fc5a787c9b96909f5b9d7259f4db6944f84d239fa2c202aef2b37ac1e4",
          "blockNumber": "0x731406",
          "transactionHash": "0x320bd3ae7b10c64f4342872f54d82f71946eba8c2cb1597988e8384b6cf910e1",
          "transactionIndex": "0xb3",
          "logIndex": "0xf4",
          "removed": false
        },
        {
          "address": "0x8aafd3ede9adb0ff97c7aebce82a919afb1c8764",
          "topics": [
            "0x4afcb4a87cdbd9974efdb92ee48bc8d7cd0ae4bf217004db3d080cbaee652ca7"
          ],
          "data": "0x00000000000000000000000000000000000000000000000000000000678fecf40000000000000000000000000000000000000000000000000004b75e1e86aa5d0000000000000000000000000000000000000000000000000000000000000823",
          "blockHash": "0x404dd0fc5a787c9b96909f5b9d7259f4db6944f84d239fa2c202aef2b37ac1e4",
          "blockNumber": "0x731406",
          "transactionHash": "0x320bd3ae7b10c64f4342872f54d82f71946eba8c2cb1597988e8384b6cf910e1",
          "transactionIndex": "0xb3",
          "logIndex": "0xf5",
          "removed": false
        }
      ],
      "logsBloom": "0x00000000000000000000000000000000000000000600000000000000000000000000000000000000000000000000000000000000000000004000000000000000000000000000004000000008000000000000000000000000000000000000000000000000020000000000000000000800020000000000000000000010000000000000000000000000000000000000000000000000000000000000010000000000000000000000000000000000000000004000000000000000000000000000000000000002000000800000000000000000000000000000080000000000000020000000000000000000000000000000000000000000000000000000000000000000",
      "type": "0x2",
      "transactionHash": "0x320bd3ae7b10c64f4342872f54d82f71946eba8c2cb1597988e8384b6cf910e1",
      "transactionIndex": "0xb3",
      "blockHash": "0x404dd0fc5a787c9b96909f5b9d7259f4db6944f84d239fa2c202aef2b37ac1e4",
      "blockNumber": "0x731406",
      "gasUsed": "0xf213",
      "effectiveGasPrice": "0x7a62b8db",
      "from": "0xc77f7fed3b5cc8249adc428c5f44c9063b9734b4",
      "to": "0x8aafd3ede9adb0ff97c7aebce82a919afb1c8764",
      "contractAddress": null
    }
  ],
  "libraries": [],
  "pending": [],
  "returns": {},
  "timestamp": 1737485559,
  "chain": 11155111,
  "commit": "51a374b"
}