{
  "transactions": [
    {
      "hash": "0x090959fb2e6b5c01057a21fe1753cc5fcfbc7da0c09ecd3116e864cc41eb9b32",
      "transactionType": "CALL",
      "contractName": null,
      "contractAddress": "0x8aafd3ede9adb0ff97c7aebce82a919afb1c8764",
      "function": "sell(uint256)",
      "arguments": [
        "12455"
      ],
      "transaction": {
        "from": "0xc77f7fed3b5cc8249adc428c5f44c9063b9734b4",
        "to": "0x8aafd3ede9adb0ff97c7aebce82a919afb1c8764",
        "gas": "0x14e4c",
        "value": "0x0",
        "input": "0xe4849b3200000000000000000000000000000000000000000000000000000000000030a7",
        "nonce": "0xf5b",
        "chainId": "0xaa36a7"
      },
      "additionalContracts": [],
      "isFixedGasLimit": false
    }
  ],
  "receipts": [
    {
      "status": "0x1",
      "cumulativeGasUsed": "0x1146420",
      "logs": [
        {
          "address": "0x8aafd3ede9adb0ff97c7aebce82a919afb1c8764",
          "topics": [
            "0xddf252ad1be2c89b69c2b068fc378daa952ba7f163c4a11628f55a4df523b3ef",
            "0x000000000000000000000000c77f7fed3b5cc8249adc428c5f44c9063b9734b4",
            "0x0000000000000000000000000000000000000000000000000000000000000000"
          ],
          "data": "0x0000000000000000000000000000000000000000000000000000000000003044",
          "blockHash": "0x22319b2bd02befb537153254790748a50a4eb1d8d68562dd12f20973c96f8078",
          "blockNumber": "0x7315b8",
          "transactionHash": "0x090959fb2e6b5c01057a21fe1753cc5fcfbc7da0c09ecd3116e864cc41eb9b32",
          "transactionIndex": "0x9e",
          "logIndex": "0xec",
          "removed": false
        },
        {
          "address": "0x8aafd3ede9adb0ff97c7aebce82a919afb1c8764",
          "topics": [
            "0xddf252ad1be2c89b69c2b068fc378daa952ba7f163c4a11628f55a4df523b3ef",
            "0x000000000000000000000000c77f7fed3b5cc8249adc428c5f44c9063b9734b4",
            "0x000000000000000000000000c77f7fed3b5cc8249adc428c5f44c9063b9734b4"
          ],
          "data": "0x0000000000000000000000000000000000000000000000000000000000000063",
          "blockHash": "0x22319b2bd02befb537153254790748a50a4eb1d8d68562dd12f20973c96f8078",
          "blockNumber": "0x7315b8",
          "transactionHash": "0x090959fb2e6b5c01057a21fe1753cc5fcfbc7da0c09ecd3116e864cc41eb9b32",
          "transactionIndex": "0x9e",
          "logIndex": "0xed",
          "removed": false
        },
        {
          "address": "0x8aafd3ede9adb0ff97c7aebce82a919afb1c8764",
          "topics": [
            "0x4afcb4a87cdbd9974efdb92ee48bc8d7cd0ae4bf217004db3d080cbaee652ca7"
          ],
          "data": "0x000000000000000000000000000000000000000000000000000000006790014c0000000000000000000000000000000000000000000000000004c0db9f45614f0000000000000000000000000000000000000000000000000000000000000010",
          "blockHash": "0x22319b2bd02befb537153254790748a50a4eb1d8d68562dd12f20973c96f8078",
          "blockNumber": "0x7315b8",
          "transactionHash": "0x090959fb2e6b5c01057a21fe1753cc5fcfbc7da0c09ecd3116e864cc41eb9b32",
          "transactionIndex": "0x9e",
          "logIndex": "0xee",
          "removed": false
        }
      ],
      "logsBloom": "0x00000000000000000000000000000000000000000600000000000000000000000000000000000000000000000000000000000000000000004000000000000000000000000000004000000008000000000000000000000000000000000000000000000000020000000000000000000800020000000000000000000010000000000000000000000000000000000000000000000000000000000000010000000000000000000000000000000000000000004000000000000000000000000000000000000002000000800000000000000000000000000000080000000000000020000000000000000000000000000000000000000000000000000000000000000000",
      "type": "0x2",
      "transactionHash": "0x090959fb2e6b5c01057a21fe1753cc5fcfbc7da0c09ecd3116e864cc41eb9b32",
      "transactionIndex": "0x9e",
      "blockHash": "0x22319b2bd02befb537153254790748a50a4eb1d8d68562dd12f20973c96f8078",
      "blockNumber": "0x7315b8",
      "gasUsed": "0xf207",
      "effectiveGasPrice": "0x7c1dc33b",
      "from": "0xc77f7fed3b5cc8249adc428c5f44c9063b9734b4",
      "to": "0x8aafd3ede9adb0ff97c7aebce82a919afb1c8764",
      "contractAddress": null
    }
  ],
  "libraries": [],
  "pending": [],
  "returns": {},
  "timestamp": 1737490765,
  "chain": 11155111,
  "commit": "1d2fb70"
}