{
  "transactions": [
    {
      "hash": "0xc3c300904c5c6793735fb3236ba0dbf303a5f9412488785edf776724eedd0b96",
      "transactionType": "CALL",
      "contractName": null,
      "contractAddress": "0x8aafd3ede9adb0ff97c7aebce82a919afb1c8764",
      "function": "sell(uint256)",
      "arguments": [
        "47372040333852550"
      ],
      "transaction": {
        "from": "0xc77f7fed3b5cc8249adc428c5f44c9063b9734b4",
        "to": "0x8aafd3ede9adb0ff97c7aebce82a919afb1c8764",
        "gas": "0x1724d",
        "value": "0x0",
        "input": "0xe4849b3200000000000000000000000000000000000000000000000000a84c9ea4627f86",
        "nonce": "0xfc3",
        "chainId": "0xaa36a7"
      },
      "additionalContracts": [],
      "isFixedGasLimit": false
    }
  ],
  "receipts": [
    {
      "status": "0x1",
      "cumulativeGasUsed": "0x11da5e5",
      "logs": [
        {
          "address": "0x8aafd3ede9adb0ff97c7aebce82a919afb1c8764",
          "topics": [
            "0xddf252ad1be2c89b69c2b068fc378daa952ba7f163c4a11628f55a4df523b3ef",
            "0x000000000000000000000000c77f7fed3b5cc8249adc428c5f44c9063b9734b4",
            "0x0000000000000000000000000000000000000000000000000000000000000000"
          ],
          "data": "0x00000000000000000000000000000000000000000000000000a6f3f1574b2ea2",
          "blockHash": "0x5b7188e139b41e69b6f6119d2d8b079a1c60376158ab0b379a18de5802199181",
          "blockNumber": "0x73162f",
          "transactionHash": "0xc3c300904c5c6793735fb3236ba0dbf303a5f9412488785edf776724eedd0b96",
          "transactionIndex": "0xae",
          "logIndex": "0x15d",
          "removed": false
        },
        {
          "address": "0x8aafd3ede9adb0ff97c7aebce82a919afb1c8764",
          "topics": [
            "0xddf252ad1be2c89b69c2b068fc378daa952ba7f163c4a11628f55a4df523b3ef",
            "0x000000000000000000000000c77f7fed3b5cc8249adc428c5f44c9063b9734b4",
            "0x000000000000000000000000c77f7fed3b5cc8249adc428c5f44c9063b9734b4"
          ],
          "data": "0x000000000000000000000000000000000000000000000000000158ad4d1750e4",
          "blockHash": "0x5b7188e139b41e69b6f6119d2d8b079a1c60376158ab0b379a18de5802199181",
          "blockNumber": "0x73162f",
          "transactionHash": "0xc3c300904c5c6793735fb3236ba0dbf303a5f9412488785edf776724eedd0b96",
          "transactionIndex": "0xae",
          "logIndex": "0x15e",
          "removed": false
        },
        {
          "address": "0x8aafd3ede9adb0ff97c7aebce82a919afb1c8764",
          "topics": [
            "0x4afcb4a87cdbd9974efdb92ee48bc8d7cd0ae4bf217004db3d080cbaee652ca7"
          ],
          "data": "0x00000000000000000000000000000000000000000000000000000000679006e00000000000000000000000000000000000000000000000000004c47708de0822000000000000000000000000000000000000000000000000000039d0dfd6ca7e",
          "blockHash": "0x5b7188e139b41e69b6f6119d2d8b079a1c60376158ab0b379a18de5802199181",
          "blockNumber": "0x73162f",
          "transactionHash": "0xc3c300904c5c6793735fb3236ba0dbf303a5f9412488785edf776724eedd0b96",
          "transactionIndex": "0xae",
          "logIndex": "0x15f",
          "removed": false
        }
      ],
      "logsBloom": "0x00000000000000000000000000000000000000000600000000000000000000000000000000000000000000000000000000000000000000004000000000000000000000000000004000000008000000000000000000000000000000000000000000000000020000000000000000000800020000000000000000000010000000000000000000000000000000000000000000000000000000000000010000000000000000000000000000000000000000004000000000000000000000000000000000000002000000800000000000000000000000000000080000000000000020000000000000000000000000000000000000000000000000000000000000000000",
      "type": "0x2",
      "transactionHash": "0xc3c300904c5c6793735fb3236ba0dbf303a5f9412488785edf776724eedd0b96",
      "transactionIndex": "0xae",
      "blockHash": "0x5b7188e139b41e69b6f6119d2d8b079a1c60376158ab0b379a18de5802199181",
      "blockNumber": "0x73162f",
      "gasUsed": "0xfd33",
      "effectiveGasPrice": "0x59e407e2",
      "from": "0xc77f7fed3b5cc8249adc428c5f44c9063b9734b4",
      "to": "0x8aafd3ede9adb0ff97c7aebce82a919afb1c8764",
      "contractAddress": null
    }
  ],
  "libraries": [],
  "pending": [],
  "returns": {},
  "timestamp": 1737492193,
  "chain": 11155111,
  "commit": "1d2fb70"
}