{
  "transactions": [
    {
      "hash": "0x7b5043fe283c0c2c98c8011ce244a09381194d2013c8ca1272a42c0cefd33ad3",
      "transactionType": "CALL",
      "contractName": null,
      "contractAddress": "0x8aafd3ede9adb0ff97c7aebce82a919afb1c8764",
      "function": "sell(uint256)",
      "arguments": [
        "578998785368"
      ],
      "transaction": {
        "from": "0xc77f7fed3b5cc8249adc428c5f44c9063b9734b4",
        "to": "0x8aafd3ede9adb0ff97c7aebce82a919afb1c8764",
        "gas": "0x1722a",
        "value": "0x0",
        "input": "0xe4849b3200000000000000000000000000000000000000000000000000000086cf045558",
        "nonce": "0x17af",
        "chainId": "0xaa36a7"
      },
      "additionalContracts": [],
      "isFixedGasLimit": false
    }
  ],
  "receipts": [
    {
      "status": "0x1",
      "cumulativeGasUsed": "0x1090173",
      "logs": [
        {
          "address": "0x8aafd3ede9adb0ff97c7aebce82a919afb1c8764",
          "topics": [
            "0xddf252ad1be2c89b69c2b068fc378daa952ba7f163c4a11628f55a4df523b3ef",
            "0x000000000000000000000000c77f7fed3b5cc8249adc428c5f44c9063b9734b4",
            "0x0000000000000000000000000000000000000000000000000000000000000000"
          ],
          "data": "0x00000000000000000000000000000000000000000000000000000085baedc54e",
          "blockHash": "0x3efa06ab231a41f590ce786cdd1802411aca3267c238f6bf77d8f3630da40de0",
          "blockNumber": "0x731f93",
          "transactionHash": "0x7b5043fe283c0c2c98c8011ce244a09381194d2013c8ca1272a42c0cefd33ad3",
          "transactionIndex": "0x73",
          "logIndex": "0xaa",
          "removed": false
        },
        {
          "address": "0x8aafd3ede9adb0ff97c7aebce82a919afb1c8764",
          "topics": [
            "0xddf252ad1be2c89b69c2b068fc378daa952ba7f163c4a11628f55a4df523b3ef",
            "0x000000000000000000000000c77f7fed3b5cc8249adc428c5f44c9063b9734b4",
            "0x000000000000000000000000c77f7fed3b5cc8249adc428c5f44c9063b9734b4"
          ],
          "data": "0x000000000000000000000000000000000000000000000000000000011416900a",
          "blockHash": "0x3efa06ab231a41f590ce786cdd1802411aca3267c238f6bf77d8f3630da40de0",
          "blockNumber": "0x731f93",
          "transactionHash": "0x7b5043fe283c0c2c98c8011ce244a09381194d2013c8ca1272a42c0cefd33ad3",
          "transactionIndex": "0x73",
          "logIndex": "0xab",
          "removed": false
        },
        {
          "address": "0x8aafd3ede9adb0ff97c7aebce82a919afb1c8764",
          "topics": [
            "0x4afcb4a87cdbd9974efdb92ee48bc8d7cd0ae4bf217004db3d080cbaee652ca7"
          ],
          "data": "0x00000000000000000000000000000000000000000000000000000000679077cc000000000000000000000000000000000000000000000000001910065e091ff300000000000000000000000000000000000000000000000000000000f3752fc5",
          "blockHash": "0x3efa06ab231a41f590ce786cdd1802411aca3267c238f6bf77d8f3630da40de0",
          "blockNumber": "0x731f93",
          "transactionHash": "0x7b5043fe283c0c2c98c8011ce244a09381194d2013c8ca1272a42c0cefd33ad3",
          "transactionIndex": "0x73",
          "logIndex": "0xac",
          "removed": false
        }
      ],
      "logsBloom": "0x00000000000000000000000000000000000000000600000000000000000000000000000000000000000000000000000000000000000000004000000000000000000000000000004000000008000000000000000000000000000000000000000000000000020000000000000000000800020000000000000000000010000000000000000000000000000000000000000000000000000000000000010000000000000000000000000000000000000000004000000000000000000000000000000000000002000000800000000000000000000000000000080000000000000020000000000000000000000000000000000000000000000000000000000000000000",
      "type": "0x2",
      "transactionHash": "0x7b5043fe283c0c2c98c8011ce244a09381194d2013c8ca1272a42c0cefd33ad3",
      "transactionIndex": "0x73",
      "blockHash": "0x3efa06ab231a41f590ce786cdd1802411aca3267c238f6bf77d8f3630da40de0",
      "blockNumber": "0x731f93",
      "gasUsed": "0xfd1b",
      "effectiveGasPrice": "0x48b1e22d",
      "from": "0xc77f7fed3b5cc8249adc428c5f44c9063b9734b4",
      "to": "0x8aafd3ede9adb0ff97c7aebce82a919afb1c8764",
      "contractAddress": null
    }
  ],
  "libraries": [],
  "pending": [],
  "returns": {},
  "timestamp": 1737521101,
  "chain": 11155111,
  "commit": "1d2fb70"
}