{
  "transactions": [
    {
      "hash": "0xc9c8c4529cb666efeb5c7f6c3d755e98fcc28f69283395076aeb046c43f93478",
      "transactionType": "CALL",
      "contractName": null,
      "contractAddress": "0x5eb9cc76c3506942c1c0ead70e877dd5e4f00cb0",
      "function": "sell(uint256)",
      "arguments": [
        "989117209537911436193"
      ],
      "transaction": {
        "from": "0xc77f7fed3b5cc8249adc428c5f44c9063b9734b4",
        "to": "0x5eb9cc76c3506942c1c0ead70e877dd5e4f00cb0",
        "gas": "0x16fec",
        "value": "0x0",
        "input": "0xe4849b320000000000000000000000000000000000000000000000359ec23d81d4d3b3a1",
        "nonce": "0x395",
        "chainId": "0xaa36a7"
      },
      "additionalContracts": [],
      "isFixedGasLimit": false
    }
  ],
  "receipts": [
    {
      "status": "0x1",
      "cumulativeGasUsed": "0xd95f0f",
      "logs": [
        {
          "address": "0x5eb9cc76c3506942c1c0ead70e877dd5e4f00cb0",
          "topics": [
            "0xddf252ad1be2c89b69c2b068fc378daa952ba7f163c4a11628f55a4df523b3ef",
            "0x000000000000000000000000c77f7fed3b5cc8249adc428c5f44c9063b9734b4",
            "0x0000000000000000000000000000000000000000000000000000000000000000"
          ],
          "data": "0x0000000000000000000000000000000000000000000000359ec23d81d4d3b3a1",
          "blockHash": "0x928701465d78e3960d0f6781fa6c5bcc9c9a546fc91a21c2c520d24783295c69",
          "blockNumber": "0x724f91",
          "transactionHash": "0xc9c8c4529cb666efeb5c7f6c3d755e98fcc28f69283395076aeb046c43f93478",
          "transactionIndex": "0x4d",
          "logIndex": "0x71",
          "removed": false
        },
        {
          "address": "0x5eb9cc76c3506942c1c0ead70e877dd5e4f00cb0",
          "topics": [
            "0x4afcb4a87cdbd9974efdb92ee48bc8d7cd0ae4bf217004db3d080cbaee652ca7"
          ],
          "data": "0x000000000000000000000000000000000000000000000000000000006786ac800000000000000000000000000000000000000000000000000003911167b4db980000000000000000000000000000000000000000000000000dc7db1332061207",
          "blockHash": "0x928701465d78e3960d0f6781fa6c5bcc9c9a546fc91a21c2c520d24783295c69",
          "blockNumber": "0x724f91",
          "transactionHash": "0xc9c8c4529cb666efeb5c7f6c3d755e98fcc28f69283395076aeb046c43f93478",
          "transactionIndex": "0x4d",
          "logIndex": "0x72",
          "removed": false
        }
      ],
      "logsBloom": "0x00000000000000000000000000000000000000000000000000000000000000000000000000000000000000000000000000000000000000004000000000000000000000000000000000000008000000000000000000000000000000000000000000000000020000000000000004000800020000000000000000000010000000000000000000000000000000000000000000000000000000000000010000000000000000000000000000000000000000004000000000000000000000000000020000000002000000800000008000000000000000000000080000000000000020000000000000000000000000000000000000000000000000000000000000000000",
      "type": "0x2",
      "transactionHash": "0xc9c8c4529cb666efeb5c7f6c3d755e98fcc28f69283395076aeb046c43f93478",
      "transactionIndex": "0x4d",
      "blockHash": "0x928701465d78e3960d0f6781fa6c5bcc9c9a546fc91a21c2c520d24783295c69",
      "blockNumber": "0x724f91",
      "gasUsed": "0xfb93",
      "effectiveGasPrice": "0x5688d5dbe",
      "from": "0xc77f7fed3b5cc8249adc428c5f44c9063b9734b4",
      "to": "0x5eb9cc76c3506942c1c0ead70e877dd5e4f00cb0",
      "contractAddress": null
    }
  ],
  "libraries": [],
  "pending": [],
  "returns": {},
  "timestamp": 1736879233,
  "chain": 11155111,
  "commit": "51a374b"
}