{
  "transactions": [
    {
      "hash": "0x1d006eff2affda2b5608bae37c127e4db4b23b0d209ddcf1b6e995f14856a0f4",
      "transactionType": "CALL",
      "contractName": null,
      "contractAddress": "0x8aafd3ede9adb0ff97c7aebce82a919afb1c8764",
      "function": "buy(address)",
      "arguments": [
        "0xC77f7fed3b5Cc8249aDc428c5F44C9063B9734b4"
      ],
      "transaction": {
        "from": "0xc77f7fed3b5cc8249adc428c5f44c9063b9734b4",
        "to": "0x8aafd3ede9adb0ff97c7aebce82a919afb1c8764",
        "gas": "0x156ea",
        "value": "0xde0b6b3a7640000",
        "input": "0xf088d547000000000000000000000000c77f7fed3b5cc8249adc428c5f44c9063b9734b4",
        "nonce": "0xe40",
        "chainId": "0xaa36a7"
      },
      "additionalContracts": [],
      "isFixedGasLimit": false
    }
  ],
  "receipts": [
    {
      "status": "0x1",
      "cumulativeGasUsed": "0x1595c91",
      "logs": [
        {
          "address": "0x8aafd3ede9adb0ff97c7aebce82a919afb1c8764",
          "topics": [
            "0xddf252ad1be2c89b69c2b068fc378daa952ba7f163c4a11628f55a4df523b3ef",
            "0x0000000000000000000000000000000000000000000000000000000000000000",
            "0x000000000000000000000000c77f7fed3b5cc8249adc428c5f44c9063b9734b4"
          ],
          "data": "0x0000000000000000000000000000000000000000000000289c0945713c2c7b00",
          "blockHash": "0xcbb0448ac9df33f47a4b0bf4cbb09da824bac2ae0279d64c7810430a47bb17aa",
          "blockNumber": "0x73137e",
          "transactionHash": "0x1d006eff2affda2b5608bae37c127e4db4b23b0d209ddcf1b6e995f14856a0f4",
          "transactionIndex": "0xe4",
          "logIndex": "0x160",
          "removed": false
        },
        {
          "address": "0x8aafd3ede9adb0ff97c7aebce82a919afb1c8764",
          "topics": [
            "0xddf252ad1be2c89b69c2b068fc378daa952ba7f163c4a11628f55a4df523b3ef",
            "0x0000000000000000000000000000000000000000000000000000000000000000",
            "0x000000000000000000000000c77f7fed3b5cc8249adc428c5f44c9063b9734b4"
          ],
          "data": "0x0000000000000000000000000000000000000000000000001f88e071504c2c53",
          "blockHash": "0xcbb0448ac9df33f47a4b0bf4cbb09da824bac2ae0279d64c7810430a47bb17aa",
          "blockNumber": "0x73137e",
          "transactionHash": "0x1d006eff2affda2b5608bae37c127e4db4b23b0d209ddcf1b6e995f14856a0f4",
          "transactionIndex": "0xe4",
          "logIndex": "0x161",
          "removed": false
        },
        {
          "address": "0x8aafd3ede9adb0ff97c7aebce82a919afb1c8764",
          "topics": [
            "0x4afcb4a87cdbd9974efdb92ee48bc8d7cd0ae4bf217004db3d080cbaee652ca7"
          ],
          "data": "0x00000000000000000000000000000000000000000000000000000000678fe67c0000000000000000000000000000000000000000000000000004b211b39357580000000000000000000000000000000000000000000000000de0b6b3a7640000",
          "blockHash": "0xcbb0448ac9df33f47a4b0bf4cbb09da824bac2ae0279d64c7810430a47bb17aa",
          "blockNumber": "0x73137e",
          "transactionHash": "0x1d006eff2affda2b5608bae37c127e4db4b23b0d209ddcf1b6e995f14856a0f4",
          "transactionIndex": "0xe4",
          "logIndex": "0x162",
          "removed": false
        }
      ],
      "logsBloom": "0x00000000000000000000000000000000000000000600000000000000000000000000000000000000000000000000000000000000000000004000000000000000000000000000004000000008000000000000000000000000000000000000000000000000020000000000000000000800020000000000000000000010000000000000000000000000000000000000000000000000000000000000010000000000000000000000000000000000000000004000000000000000000000000000000000000002000000800000000000000000000000000000080000000000000020000000000000000000000000000000000000000000000000000000000000000000",
      "type": "0x2",
      "transactionHash": "0x1d006eff2affda2b5608bae37c127e4db4b23b0d209ddcf1b6e995f14856a0f4",
      "transactionIndex": "0xe4",
      "blockHash": "0xcbb0448ac9df33f47a4b0bf4cbb09da824bac2ae0279d64c7810430a47bb17aa",
      "blockNumber": "0x73137e",
      "gasUsed": "0xf844",
      "effectiveGasPrice": "0x6509e04c",
      "from": "0xc77f7fed3b5cc8249adc428c5f44c9063b9734b4",
      "to": "0x8aafd3ede9adb0ff97c7aebce82a919afb1c8764",
      "contractAddress": null
    }
  ],
  "libraries": [],
  "pending": [],
  "returns": {},
  "timestamp": 1737483902,
  "chain": 11155111,
  "commit": "51a374b"
}