{
  "transactions": [
    {
      "hash": "0x61439df025838da9a0d3b1f737e2747a361a483bb01d4a3b0fb6bd90975d68bf",
      "transactionType": "CALL",
      "contractName": null,
      "contractAddress": "0x8aafd3ede9adb0ff97c7aebce82a919afb1c8764",
      "function": "buy(address)",
      "arguments": [
        "0xC77f7fed3b5Cc8249aDc428c5F44C9063B9734b4"
      ],
      "transaction": {
        "from": "0xc77f7fed3b5cc8249adc428c5f44c9063b9734b4",
        "to": "0x8aafd3ede9adb0ff97c7aebce82a919afb1c8764",
        "gas": "0x156ea",
        "value": "0xde0b6b3a7640000",
        "input": "0xf088d547000000000000000000000000c77f7fed3b5cc8249adc428c5f44c9063b9734b4",
        "nonce": "0x1681",
        "chainId": "0xaa36a7"
      },
      "additionalContracts": [],
      "isFixedGasLimit": false
    }
  ],
  "receipts": [
    {
      "status": "0x1",
      "cumulativeGasUsed": "0x9618fe",
      "logs": [
        {
          "address": "0x8aafd3ede9adb0ff97c7aebce82a919afb1c8764",
          "topics": [
            "0xddf252ad1be2c89b69c2b068fc378daa952ba7f163c4a11628f55a4df523b3ef",
            "0x0000000000000000000000000000000000000000000000000000000000000000",
            "0x000000000000000000000000c77f7fed3b5cc8249adc428c5f44c9063b9734b4"
          ],
          "data": "0x000000000000000000000000000000000000000000000008dfe5568e2637f64b",
          "blockHash": "0xb772e554c1bd266d7c25daca72d1f05259c84e19c002cb829c4f4ded0ffa38c5",
          "blockNumber": "0x731e32",
          "transactionHash": "0x61439df025838da9a0d3b1f737e2747a361a483bb01d4a3b0fb6bd90975d68bf",
          "transactionIndex": "0x67",
          "logIndex": "0xae",
          "removed": false
        },
        {
          "address": "0x8aafd3ede9adb0ff97c7aebce82a919afb1c8764",
          "topics": [
            "0xddf252ad1be2c89b69c2b068fc378daa952ba7f163c4a11628f55a4df523b3ef",
            "0x0000000000000000000000000000000000000000000000000000000000000000",
            "0x000000000000000000000000c77f7fed3b5cc8249adc428c5f44c9063b9734b4"
          ],
          "data": "0x00000000000000000000000000000000000000000000000006e434622e69b363",
          "blockHash": "0xb772e554c1bd266d7c25daca72d1f05259c84e19c002cb829c4f4ded0ffa38c5",
          "blockNumber": "0x731e32",
          "transactionHash": "0x61439df025838da9a0d3b1f737e2747a361a483bb01d4a3b0fb6bd90975d68bf",
          "transactionIndex": "0x67",
          "logIndex": "0xaf",
          "removed": false
        },
        {
          "address": "0x8aafd3ede9adb0ff97c7aebce82a919afb1c8764",
          "topics": [
            "0x4afcb4a87cdbd9974efdb92ee48bc8d7cd0ae4bf217004db3d080cbaee652ca7"
          ],
          "data": "0x0000000000000000000000000000000000000000000000000000000067906740000000000000000000000000000000000000000000000000001582db828acb080000000000000000000000000000000000000000000000000de0b6b3a7640000",
          "blockHash": "0xb772e554c1bd266d7c25daca72d1f05259c84e19c002cb829c4f4ded0ffa38c5",
          "blockNumber": "0x731e32",
          "transactionHash": "0x61439df025838da9a0d3b1f737e2747a361a483bb01d4a3b0fb6bd90975d68bf",
          "transactionIndex": "0x67",
          "logIndex": "0xb0",
          "removed": false
        }
      ],
      "logsBloom": "0x00000000000000000000000000000000000000000600000000000000000000000000000000000000000000000000000000000000000000004000000000000000000000000000004000000008000000000000000000000000000000000000000000000000020000000000000000000800020000000000000000000010000000000000000000000000000000000000000000000000000000000000010000000000000000000000000000000000000000004000000000000000000000000000000000000002000000800000000000000000000000000000080000000000000020000000000000000000000000000000000000000000000000000000000000000000",
      "type": "0x2",
      "transactionHash": "0x61439df025838da9a0d3b1f737e2747a361a483bb01d4a3b0fb6bd90975d68bf",
      "transactionIndex": "0x67",
      "blockHash": "0xb772e554c1bd266d7c25daca72d1f05259c84e19c002cb829c4f4ded0ffa38c5",
      "blockNumber": "0x731e32",
      "gasUsed": "0xf844",
      "effectiveGasPrice": "0x45ce9731",
      "from": "0xc77f7fed3b5cc8249adc428c5f44c9063b9734b4",
      "to": "0x8aafd3ede9adb0ff97c7aebce82a919afb1c8764",
      "contractAddress": null
    }
  ],
  "libraries": [],
  "pending": [],
  "returns": {},
  "timestamp": 1737516866,
  "chain": 11155111,
  "commit": "1d2fb70"
}