{
  "transactions": [
    {
      "hash": "0x7d67e8e9828dd4573156120133c3c3fa0b9898fb31d4401b683e62a06799cb83",
      "transactionType": "CALL",
      "contractName": null,
      "contractAddress": "0x270e88f8683660553e8ba4eb2ad7c91a1710d769",
      "function": "sell(uint256)",
      "arguments": [
        "714879305290745659958"
      ],
      "transaction": {
        "from": "0xc77f7fed3b5cc8249adc428c5f44c9063b9734b4",
        "to": "0x270e88f8683660553e8ba4eb2ad7c91a1710d769",
        "gas": "0x16fec",
        "value": "0x0",
        "input": "0xe4849b32000000000000000000000000000000000000000000000026c0f17c91acec4236",
        "nonce": "0x860",
        "chainId": "0xaa36a7"
      },
      "additionalContracts": [],
      "isFixedGasLimit": false
    }
  ],
  "receipts": [
    {
      "status": "0x1",
      "cumulativeGasUsed": "0xdd6c9d",
      "logs": [
        {
          "address": "0x270e88f8683660553e8ba4eb2ad7c91a1710d769",
          "topics": [
            "0xddf252ad1be2c89b69c2b068fc378daa952ba7f163c4a11628f55a4df523b3ef",
            "0x000000000000000000000000c77f7fed3b5cc8249adc428c5f44c9063b9734b4",
            "0x0000000000000000000000000000000000000000000000000000000000000000"
          ],
          "data": "0x000000000000000000000000000000000000000000000026c0f17c91acec4236",
          "blockHash": "0x5b4121dbaa5323e55a77e4394f99d2339a7b8e543c9815b5b2fa469dd7eb3c77",
          "blockNumber": "0x7255b5",
          "transactionHash": "0x7d67e8e9828dd4573156120133c3c3fa0b9898fb31d4401b683e62a06799cb83",
          "transactionIndex": "0x3c",
          "logIndex": "0x173",
          "removed": false
        },
        {
          "address": "0x270e88f8683660553e8ba4eb2ad7c91a1710d769",
          "topics": [
            "0x4afcb4a87cdbd9974efdb92ee48bc8d7cd0ae4bf217004db3d080cbaee652ca7"
          ],
          "data": "0x000000000000000000000000000000000000000000000000000000006786f6840000000000000000000000000000000000000000000000000004efa060a417050000000000000000000000000000000000000000000000000dc825e62455278a",
          "blockHash": "0x5b4121dbaa5323e55a77e4394f99d2339a7b8e543c9815b5b2fa469dd7eb3c77",
          "blockNumber": "0x7255b5",
          "transactionHash": "0x7d67e8e9828dd4573156120133c3c3fa0b9898fb31d4401b683e62a06799cb83",
          "transactionIndex": "0x3c",
          "logIndex": "0x174",
          "removed": false
        }
      ],
      "logsBloom": "0x00000000000000000000000000000000000000000000000000000000000000000000000000000000000000000000000020000000000000004000000000000000000000000000000000000008000000000000000000000000000000000000000000000000020000000000000000000800020000000000000000000010000000000000000000010000000000000000000000000000000000000000010000000000000000000000000000000000000000004000000000000000000000000000000000000002000000800000000000000000000000000000080000008000000020000000000000000000000000000000000000000000000000000000000000000000",
      "type": "0x2",
      "transactionHash": "0x7d67e8e9828dd4573156120133c3c3fa0b9898fb31d4401b683e62a06799cb83",
      "transactionIndex": "0x3c",
      "blockHash": "0x5b4121dbaa5323e55a77e4394f99d2339a7b8e543c9815b5b2fa469dd7eb3c77",
      "blockNumber": "0x7255b5",
      "gasUsed": "0xfb93",
      "effectiveGasPrice": "0x830a72cb",
      "from": "0xc77f7fed3b5cc8249adc428c5f44c9063b9734b4",
      "to": "0x270e88f8683660553e8ba4eb2ad7c91a1710d769",
      "contractAddress": null
    }
  ],
  "libraries": [],
  "pending": [],
  "returns": {},
  "timestamp": 1736898182,
  "chain": 11155111,
  "commit": "51a374b"
}