{
  "transactions": [
    {
      "hash": "0x74396da6376e02a4b45f037c807c41dbdb2cc2272d5de6440117b00af3847604",
      "transactionType": "CALL",
      "contractName": null,
      "contractAddress": "0x5eb9cc76c3506942c1c0ead70e877dd5e4f00cb0",
      "function": "buy(address)",
      "arguments": [
        "0xC77f7fed3b5Cc8249aDc428c5F44C9063B9734b4"
      ],
      "transaction": {
        "from": "0xc77f7fed3b5cc8249adc428c5f44c9063b9734b4",
        "to": "0x5eb9cc76c3506942c1c0ead70e877dd5e4f00cb0",
        "gas": "0x156c8",
        "value": "0xde0b6b3a7640000",
        "input": "0xf088d547000000000000000000000000c77f7fed3b5cc8249adc428c5f44c9063b9734b4",
        "nonce": "0x157",
        "chainId": "0xaa36a7"
      },
      "additionalContracts": [],
      "isFixedGasLimit": false
    }
  ],
  "receipts": [
    {
      "status": "0x1",
      "cumulativeGasUsed": "0x8a320c",
      "logs": [
        {
          "address": "0x5eb9cc76c3506942c1c0ead70e877dd5e4f00cb0",
          "topics": [
            "0xddf252ad1be2c89b69c2b068fc378daa952ba7f163c4a11628f55a4df523b3ef",
            "0x0000000000000000000000000000000000000000000000000000000000000000",
            "0x000000000000000000000000c77f7fed3b5cc8249adc428c5f44c9063b9734b4"
          ],
          "data": "0x000000000000000000000000000000000000000000000035aaef3e52f13c7367",
          "blockHash": "0x6083ac650c998e1b2097899f4bd601800f88e74528ceb67810e55e1a63effb60",
          "blockNumber": "0x723b50",
          "transactionHash": "0x74396da6376e02a4b45f037c807c41dbdb2cc2272d5de6440117b00af3847604",
          "transactionIndex": "0x38",
          "logIndex": "0x55",
          "removed": false
        },
        {
          "address": "0x5eb9cc76c3506942c1c0ead70e877dd5e4f00cb0",
          "topics": [
            "0xddf252ad1be2c89b69c2b068fc378daa952ba7f163c4a11628f55a4df523b3ef",
            "0x0000000000000000000000000000000000000000000000000000000000000000",
            "0x000000000000000000000000c77f7fed3b5cc8249adc428c5f44c9063b9734b4"
          ],
          "data": "0x00000000000000000000000000000000000000000000000029acc055ab9bab35",
          "blockHash": "0x6083ac650c998e1b2097899f4bd601800f88e74528ceb67810e55e1a63effb60",
          "blockNumber": "0x723b50",
          "transactionHash": "0x74396da6376e02a4b45f037c807c41dbdb2cc2272d5de6440117b00af3847604",
          "transactionIndex": "0x38",
          "logIndex": "0x56",
          "removed": false
        },
        {
          "address": "0x5eb9cc76c3506942c1c0ead70e877dd5e4f00cb0",
          "topics": [
            "0x4afcb4a87cdbd9974efdb92ee48bc8d7cd0ae4bf217004db3d080cbaee652ca7"
          ],
          "data": "0x000000000000000000000000000000000000000000000000000000006785b91400000000000000000000000000000000000000000000000000038d7ff2c4e4c30000000000000000000000000000000000000000000000000de0b6b3a7640000",
          "blockHash": "0x6083ac650c998e1b2097899f4bd601800f88e74528ceb67810e55e1a63effb60",
          "blockNumber": "0x723b50",
          "transactionHash": "0x74396da6376e02a4b45f037c807c41dbdb2cc2272d5de6440117b00af3847604",
          "transactionIndex": "0x38",
          "logIndex": "0x57",
          "removed": false
        }
      ],
      "logsBloom": "0x00000000000000000000000000000000000000000000000000000000000000000000000000000000000000000000000000000000000000004000000000000000000000000000000000000008000000000000000000000000000000000000000000000000020000000000000004000800020000000000000000000010000000000000000000000000000000000000000000000000000000000000010000000000000000000000000000000000000000004000000000000000000000000000020000000002000000800000008000000000000000000000080000000000000020000000000000000000000000000000000000000000000000000000000000000000",
      "type": "0x2",
      "transactionHash": "0x74396da6376e02a4b45f037c807c41dbdb2cc2272d5de6440117b00af3847604",
      "transactionIndex": "0x38",
      "blockHash": "0x6083ac650c998e1b2097899f4bd601800f88e74528ceb67810e55e1a63effb60",
      "blockNumber": "0x723b50",
      "gasUsed": "0xf82c",
      "effectiveGasPrice": "0x64be09211",
      "from": "0xc77f7fed3b5cc8249adc428c5f44c9063b9734b4",
      "to": "0x5eb9cc76c3506942c1c0ead70e877dd5e4f00cb0",
      "contractAddress": null
    }
  ],
  "libraries": [],
  "pending": [],
  "returns": {},
  "timestamp": 1736816918,
  "chain": 11155111,
  "commit": "51a374b"
}