{
  "transactions": [
    {
      "hash": "0xefc3627948af8b5a4b171236bc652c23939749d606cb8fa33db105da83c7e8c9",
      "transactionType": "CALL",
      "contractName": null,
      "contractAddress": "0x8aafd3ede9adb0ff97c7aebce82a919afb1c8764",
      "function": "sell(uint256)",
      "arguments": [
        "276034173231576348161"
      ],
      "transaction": {
        "from": "0xc77f7fed3b5cc8249adc428c5f44c9063b9734b4",
        "to": "0x8aafd3ede9adb0ff97c7aebce82a919afb1c8764",
        "gas": "0x17270",
        "value": "0x0",
        "input": "0xe4849b3200000000000000000000000000000000000000000000000ef6be620ff8bf7601",
        "nonce": "0x138e",
        "chainId": "0xaa36a7"
      },
      "additionalContracts": [],
      "isFixedGasLimit": false
    }
  ],
  "receipts": [
    {
      "status": "0x1",
      "cumulativeGasUsed": "0xe1209f",
      "logs": [
        {
          "address": "0x8aafd3ede9adb0ff97c7aebce82a919afb1c8764",
          "topics": [
            "0xddf252ad1be2c89b69c2b068fc378daa952ba7f163c4a11628f55a4df523b3ef",
            "0x000000000000000000000000c77f7fed3b5cc8249adc428c5f44c9063b9734b4",
            "0x0000000000000000000000000000000000000000000000000000000000000000"
          ],
          "data": "0x00000000000000000000000000000000000000000000000ed819051e2e0dcd20",
          "blockHash": "0xd978c9a2c9d1569d33f2947f4b94e85cab5ee731053315baa33ab11e2ecf205e",
          "blockNumber": "0x731ab2",
          "transactionHash": "0xefc3627948af8b5a4b171236bc652c23939749d606cb8fa33db105da83c7e8c9",
          "transactionIndex": "0x85",
          "logIndex": "0x80",
          "removed": false
        },
        {
          "address": "0x8aafd3ede9adb0ff97c7aebce82a919afb1c8764",
          "topics": [
            "0xddf252ad1be2c89b69c2b068fc378daa952ba7f163c4a11628f55a4df523b3ef",
            "0x000000000000000000000000c77f7fed3b5cc8249adc428c5f44c9063b9734b4",
            "0x000000000000000000000000c77f7fed3b5cc8249adc428c5f44c9063b9734b4"
          ],
          "data": "0x0000000000000000000000000000000000000000000000001ea55cf1cab1a8e1",
          "blockHash": "0xd978c9a2c9d1569d33f2947f4b94e85cab5ee731053315baa33ab11e2ecf205e",
          "blockNumber": "0x731ab2",
          "transactionHash": "0xefc3627948af8b5a4b171236bc652c23939749d606cb8fa33db105da83c7e8c9",
          "transactionIndex": "0x85",
          "logIndex": "0x81",
          "removed": false
        },
        {
          "address": "0x8aafd3ede9adb0ff97c7aebce82a919afb1c8764",
          "topics": [
            "0x4afcb4a87cdbd9974efdb92ee48bc8d7cd0ae4bf217004db3d080cbaee652ca7"
          ],
          "data": "0x0000000000000000000000000000000000000000000000000000000067903d28000000000000000000000000000000000000000000000000000ce1c2f6183eb60000000000000000000000000000000000000000000000000dce67bdc480455c",
          "blockHash": "0xd978c9a2c9d1569d33f2947f4b94e85cab5ee731053315baa33ab11e2ecf205e",
          "blockNumber": "0x731ab2",
          "transactionHash": "0xefc3627948af8b5a4b171236bc652c23939749d606cb8fa33db105da83c7e8c9",
          "transactionIndex": "0x85",
          "logIndex": "0x82",
          "removed": false
        }
      ],
      "logsBloom": "0x00000000000000000000000000000000000000000600000000000000000000000000000000000000000000000000000000000000000000004000000000000000000000000000004000000008000000000000000000000000000000000000000000000000020000000000000000000800020000000000000000000010000000000000000000000000000000000000000000000000000000000000010000000000000000000000000000000000000000004000000000000000000000000000000000000002000000800000000000000000000000000000080000000000000020000000000000000000000000000000000000000000000000000000000000000000",
      "type": "0x2",
      "transactionHash": "0xefc3627948af8b5a4b171236bc652c23939749d606cb8fa33db105da83c7e8c9",
      "transactionIndex": "0x85",
      "blockHash": "0xd978c9a2c9d1569d33f2947f4b94e85cab5ee731053315baa33ab11e2ecf205e",
      "blockNumber": "0x731ab2",
      "gasUsed": "0xfd4b",
      "effectiveGasPrice": "0x5b82156f",
      "from": "0xc77f7fed3b5cc8249adc428c5f44c9063b9734b4",
      "to": "0x8aafd3ede9adb0ff97c7aebce82a919afb1c8764",
      "contractAddress": null
    }
  ],
  "libraries": [],
  "pending": [],
  "returns": {},
  "timestamp": 1737506090,
  "chain": 11155111,
  "commit": "1d2fb70"
}