{
  "transactions": [
    {
      "hash": "0x5af4aa35a39476199456c3e2b6a30a6c4a82a09c749670b5965ba0730b01814e",
      "transactionType": "CALL",
      "contractName": null,
      "contractAddress": "0x270e88f8683660553e8ba4eb2ad7c91a1710d769",
      "function": "sell(uint256)",
      "arguments": [
        "754230643842455018599"
      ],
      "transaction": {
        "from": "0xc77f7fed3b5cc8249adc428c5f44c9063b9734b4",
        "to": "0x270e88f8683660553e8ba4eb2ad7c91a1710d769",
        "gas": "0x16fec",
        "value": "0x0",
        "input": "0xe4849b32000000000000000000000000000000000000000000000028e30d867d4fb19c67",
        "nonce": "0x69e",
        "chainId": "0xaa36a7"
      },
      "additionalContracts": [],
      "isFixedGasLimit": false
    }
  ],
  "receipts": [
    {
      "status": "0x1",
      "cumulativeGasUsed": "0x1431174",
      "logs": [
        {
          "address": "0x270e88f8683660553e8ba4eb2ad7c91a1710d769",
          "topics": [
            "0xddf252ad1be2c89b69c2b068fc378daa952ba7f163c4a11628f55a4df523b3ef",
            "0x000000000000000000000000c77f7fed3b5cc8249adc428c5f44c9063b9734b4",
            "0x0000000000000000000000000000000000000000000000000000000000000000"
          ],
          "data": "0x000000000000000000000000000000000000000000000028e30d867d4fb19c67",
          "blockHash": "0x028103b8b76edd5226422f65e24218f8ce436059bf7d7bd61419f3af362ba762",
          "blockNumber": "0x7253a2",
          "transactionHash": "0x5af4aa35a39476199456c3e2b6a30a6c4a82a09c749670b5965ba0730b01814e",
          "transactionIndex": "0x88",
          "logIndex": "0x10e",
          "removed": false
        },
        {
          "address": "0x270e88f8683660553e8ba4eb2ad7c91a1710d769",
          "topics": [
            "0x4afcb4a87cdbd9974efdb92ee48bc8d7cd0ae4bf217004db3d080cbaee652ca7"
          ],
          "data": "0x000000000000000000000000000000000000000000000000000000006786dda00000000000000000000000000000000000000000000000000004adb68b53271c0000000000000000000000000000000000000000000000000dc829f8eaecf99d",
          "blockHash": "0x028103b8b76edd5226422f65e24218f8ce436059bf7d7bd61419f3af362ba762",
          "blockNumber": "0x7253a2",
          "transactionHash": "0x5af4aa35a39476199456c3e2b6a30a6c4a82a09c749670b5965ba0730b01814e",
          "transactionIndex": "0x88",
          "logIndex": "0x10f",
          "removed": false
        }
      ],
      "logsBloom": "0x00000000000000000000000000000000000000000000000000000000000000000000000000000000000000000000000020000000000000004000000000000000000000000000000000000008000000000000000000000000000000000000000000000000020000000000000000000800020000000000000000000010000000000000000000010000000000000000000000000000000000000000010000000000000000000000000000000000000000004000000000000000000000000000000000000002000000800000000000000000000000000000080000008000000020000000000000000000000000000000000000000000000000000000000000000000",
      "type": "0x2",
      "transactionHash": "0x5af4aa35a39476199456c3e2b6a30a6c4a82a09c749670b5965ba0730b01814e",
      "transactionIndex": "0x88",
      "blockHash": "0x028103b8b76edd5226422f65e24218f8ce436059bf7d7bd61419f3af362ba762",
      "blockNumber": "0x7253a2",
      "gasUsed": "0xfb93",
      "effectiveGasPrice": "0x19cdd1ff0",
      "from": "0xc77f7fed3b5cc8249adc428c5f44c9063b9734b4",
      "to": "0x270e88f8683660553e8ba4eb2ad7c91a1710d769",
      "contractAddress": null
    }
  ],
  "libraries": [],
  "pending": [],
  "returns": {},
  "timestamp": 1736891810,
  "chain": 11155111,
  "commit": "51a374b"
}