{
  "transactions": [
    {
      "hash": "0xc6d6b452abaf9f46e33b01ff3bb984fc055d59a936a9e4c340cc049934075e19",
      "transactionType": "CALL",
      "contractName": null,
      "contractAddress": "0x270e88f8683660553e8ba4eb2ad7c91a1710d769",
      "function": "sell(uint256)",
      "arguments": [
        "939795934708816425499"
      ],
      "transaction": {
        "from": "0xc77f7fed3b5cc8249adc428c5f44c9063b9734b4",
        "to": "0x270e88f8683660553e8ba4eb2ad7c91a1710d769",
        "gas": "0x16fec",
        "value": "0x0",
        "input": "0xe4849b32000000000000000000000000000000000000000000000032f249df5d8b34321b",
        "nonce": "0x635",
        "chainId": "0xaa36a7"
      },
      "additionalContracts": [],
      "isFixedGasLimit": false
    }
  ],
  "receipts": [
    {
      "status": "0x1",
      "cumulativeGasUsed": "0x68e072",
      "logs": [
        {
          "address": "0x270e88f8683660553e8ba4eb2ad7c91a1710d769",
          "topics": [
            "0xddf252ad1be2c89b69c2b068fc378daa952ba7f163c4a11628f55a4df523b3ef",
            "0x000000000000000000000000c77f7fed3b5cc8249adc428c5f44c9063b9734b4",
            "0x0000000000000000000000000000000000000000000000000000000000000000"
          ],
          "data": "0x000000000000000000000000000000000000000000000032f249df5d8b34321b",
          "blockHash": "0xd20a0025bc2a9a5d3e77f8c27261dc892ae12216b18486407b55d052e0c2cd72",
          "blockNumber": "0x725307",
          "transactionHash": "0xc6d6b452abaf9f46e33b01ff3bb984fc055d59a936a9e4c340cc049934075e19",
          "transactionIndex": "0x43",
          "logIndex": "0x54",
          "removed": false
        },
        {
          "address": "0x270e88f8683660553e8ba4eb2ad7c91a1710d769",
          "topics": [
            "0x4afcb4a87cdbd9974efdb92ee48bc8d7cd0ae4bf217004db3d080cbaee652ca7"
          ],
          "data": "0x000000000000000000000000000000000000000000000000000000006786d65c0000000000000000000000000000000000000000000000000003c1476298c5a50000000000000000000000000000000000000000000000000dc83d1c15d8b905",
          "blockHash": "0xd20a0025bc2a9a5d3e77f8c27261dc892ae12216b18486407b55d052e0c2cd72",
          "blockNumber": "0x725307",
          "transactionHash": "0xc6d6b452abaf9f46e33b01ff3bb984fc055d59a936a9e4c340cc049934075e19",
          "transactionIndex": "0x43",
          "logIndex": "0x55",
          "removed": false
        }
      ],
      "logsBloom": "0x00000000000000000000000000000000000000000000000000000000000000000000000000000000000000000000000020000000000000004000000000000000000000000000000000000008000000000000000000000000000000000000000000000000020000000000000000000800020000000000000000000010000000000000000000010000000000000000000000000000000000000000010000000000000000000000000000000000000000004000000000000000000000000000000000000002000000800000000000000000000000000000080000008000000020000000000000000000000000000000000000000000000000000000000000000000",
      "type": "0x2",
      "transactionHash": "0xc6d6b452abaf9f46e33b01ff3bb984fc055d59a936a9e4c340cc049934075e19",
      "transactionIndex": "0x43",
      "blockHash": "0xd20a0025bc2a9a5d3e77f8c27261dc892ae12216b18486407b55d052e0c2cd72",
      "blockNumber": "0x725307",
      "gasUsed": "0xfb93",
      "effectiveGasPrice": "0x2928df103",
      "from": "0xc77f7fed3b5cc8249adc428c5f44c9063b9734b4",
      "to": "0x270e88f8683660553e8ba4eb2ad7c91a1710d769",
      "contractAddress": null
    }
  ],
  "libraries": [],
  "pending": [],
  "returns": {},
  "timestamp": 1736889949,
  "chain": 11155111,
  "commit": "51a374b"
}