{
  "transactions": [
    {
      "hash": "0xe9ee4d308647d83917971f91e6537472d1c53b38e5514cc02b7674f1c63e966c",
      "transactionType": "CALL",
      "contractName": null,
      "contractAddress": "0x5eb9cc76c3506942c1c0ead70e877dd5e4f00cb0",
      "function": "sell(uint256)",
      "arguments": [
        "989159919563018875157"
      ],
      "transaction": {
        "from": "0xc77f7fed3b5cc8249adc428c5f44c9063b9734b4",
        "to": "0x5eb9cc76c3506942c1c0ead70e877dd5e4f00cb0",
        "gas": "0x16fec",
        "value": "0x0",
        "input": "0xe4849b320000000000000000000000000000000000000000000000359f59fa0c77b43115",
        "nonce": "0x289",
        "chainId": "0xaa36a7"
      },
      "additionalContracts": [],
      "isFixedGasLimit": false
    }
  ],
  "receipts": [
    {
      "status": "0x1",
      "cumulativeGasUsed": "0x10453cb",
      "logs": [
        {
          "address": "0x5eb9cc76c3506942c1c0ead70e877dd5e4f00cb0",
          "topics": [
            "0xddf252ad1be2c89b69c2b068fc378daa952ba7f163c4a11628f55a4df523b3ef",
            "0x000000000000000000000000c77f7fed3b5cc8249adc428c5f44c9063b9734b4",
            "0x0000000000000000000000000000000000000000000000000000000000000000"
          ],
          "data": "0x0000000000000000000000000000000000000000000000359f59fa0c77b43115",
          "blockHash": "0xe822564df9ab9a78aedde77232d71895de1908b3add410e8e605a528668e3f05",
          "blockNumber": "0x724e58",
          "transactionHash": "0xe9ee4d308647d83917971f91e6537472d1c53b38e5514cc02b7674f1c63e966c",
          "transactionIndex": "0x6e",
          "logIndex": "0x104",
          "removed": false
        },
        {
          "address": "0x5eb9cc76c3506942c1c0ead70e877dd5e4f00cb0",
          "topics": [
            "0x4afcb4a87cdbd9974efdb92ee48bc8d7cd0ae4bf217004db3d080cbaee652ca7"
          ],
          "data": "0x0000000000000000000000000000000000000000000000000000000067869dd4000000000000000000000000000000000000000000000000000391074ffb5ac30000000000000000000000000000000000000000000000000dc7db133252113d",
          "blockHash": "0xe822564df9ab9a78aedde77232d71895de1908b3add410e8e605a528668e3f05",
          "blockNumber": "0x724e58",
          "transactionHash": "0xe9ee4d308647d83917971f91e6537472d1c53b38e5514cc02b7674f1c63e966c",
          "transactionIndex": "0x6e",
          "logIndex": "0x105",
          "removed": false
        }
      ],
      "logsBloom": "0x00000000000000000000000000000000000000000000000000000000000000000000000000000000000000000000000000000000000000004000000000000000000000000000000000000008000000000000000000000000000000000000000000000000020000000000000004000800020000000000000000000010000000000000000000000000000000000000000000000000000000000000010000000000000000000000000000000000000000004000000000000000000000000000020000000002000000800000008000000000000000000000080000000000000020000000000000000000000000000000000000000000000000000000000000000000",
      "type": "0x2",
      "transactionHash": "0xe9ee4d308647d83917971f91e6537472d1c53b38e5514cc02b7674f1c63e966c",
      "transactionIndex": "0x6e",
      "blockHash": "0xe822564df9ab9a78aedde77232d71895de1908b3add410e8e605a528668e3f05",
      "blockNumber": "0x724e58",
      "gasUsed": "0xfb93",
      "effectiveGasPrice": "0x3fa04ab54",
      "from": "0xc77f7fed3b5cc8249adc428c5f44c9063b9734b4",
      "to": "0x5eb9cc76c3506942c1c0ead70e877dd5e4f00cb0",
      "contractAddress": null
    }
  ],
  "libraries": [],
  "pending": [],
  "returns": {},
  "timestamp": 1736875477,
  "chain": 11155111,
  "commit": "51a374b"
}