{
  "transactions": [
    {
      "hash": "0x0fb33ed0a1845a59426d355bb85a7db7477924fc6bf070a89397598cad0a0fa9",
      "transactionType": "CALL",
      "contractName": null,
      "contractAddress": "0x8aafd3ede9adb0ff97c7aebce82a919afb1c8764",
      "function": "sell(uint256)",
      "arguments": [
        "180949382324822355454"
      ],
      "transaction": {
        "from": "0xc77f7fed3b5cc8249adc428c5f44c9063b9734b4",
        "to": "0x8aafd3ede9adb0ff97c7aebce82a919afb1c8764",
        "gas": "0x17270",
        "value": "0x0",
        "input": "0xe4849b32000000000000000000000000000000000000000000000009cf2d588375622dfe",
        "nonce": "0x15d7",
        "chainId": "0xaa36a7"
      },
      "additionalContracts": [],
      "isFixedGasLimit": false
    }
  ],
  "receipts": [
    {
      "status": "0x1",
      "cumulativeGasUsed": "0x805793",
      "logs": [
        {
          "address": "0x8aafd3ede9adb0ff97c7aebce82a919afb1c8764",
          "topics": [
            "0xddf252ad1be2c89b69c2b068fc378daa952ba7f163c4a11628f55a4df523b3ef",
            "0x000000000000000000000000c77f7fed3b5cc8249adc428c5f44c9063b9734b4",
            "0x0000000000000000000000000000000000000000000000000000000000000000"
          ],
          "data": "0x000000000000000000000000000000000000000000000009bb16747a37012363",
          "blockHash": "0x6fbc1f6df50f0daba3fcc10c13692b6673f7ecf45fd55b2416428542876ee65f",
          "blockNumber": "0x731d54",
          "transactionHash": "0x0fb33ed0a1845a59426d355bb85a7db7477924fc6bf070a89397598cad0a0fa9",
          "transactionIndex": "0x5d",
          "logIndex": "0x89",
          "removed": false
        },
        {
          "address": "0x8aafd3ede9adb0ff97c7aebce82a919afb1c8764",
          "topics": [
            "0xddf252ad1be2c89b69c2b068fc378daa952ba7f163c4a11628f55a4df523b3ef",
            "0x000000000000000000000000c77f7fed3b5cc8249adc428c5f44c9063b9734b4",
            "0x000000000000000000000000c77f7fed3b5cc8249adc428c5f44c9063b9734b4"
          ],
          "data": "0x0000000000000000000000000000000000000000000000001416e4093e610a9b",
          "blockHash": "0x6fbc1f6df50f0daba3fcc10c13692b6673f7ecf45fd55b2416428542876ee65f",
          "blockNumber": "0x731d54",
          "transactionHash": "0x0fb33ed0a1845a59426d355bb85a7db7477924fc6bf070a89397598cad0a0fa9",
          "transactionIndex": "0x5d",
          "logIndex": "0x8a",
          "removed": false
        },
        {
          "address": "0x8aafd3ede9adb0ff97c7aebce82a919afb1c8764",
          "topics": [
            "0x4afcb4a87cdbd9974efdb92ee48bc8d7cd0ae4bf217004db3d080cbaee652ca7"
          ],
          "data": "0x0000000000000000000000000000000000000000000000000000000067905cd8000000000000000000000000000000000000000000000000001399a3684699b10000000000000000000000000000000000000000000000000dcc93df3f6640c0",
          "blockHash": "0x6fbc1f6df50f0daba3fcc10c13692b6673f7ecf45fd55b2416428542876ee65f",
          "blockNumber": "0x731d54",
          "transactionHash": "0x0fb33ed0a1845a59426d355bb85a7db7477924fc6bf070a89397598cad0a0fa9",
          "transactionIndex": "0x5d",
          "logIndex": "0x8b",
          "removed": false
        }
      ],
      "logsBloom": "0x00000000000000000000000000000000000000000600000000000000000000000000000000000000000000000000000000000000000000004000000000000000000000000000004000000008000000000000000000000000000000000000000000000000020000000000000000000800020000000000000000000010000000000000000000000000000000000000000000000000000000000000010000000000000000000000000000000000000000004000000000000000000000000000000000000002000000800000000000000000000000000000080000000000000020000000000000000000000000000000000000000000000000000000000000000000",
      "type": "0x2",
      "transactionHash": "0x0fb33ed0a1845a59426d355bb85a7db7477924fc6bf070a89397598cad0a0fa9",
      "transactionIndex": "0x5d",
      "blockHash": "0x6fbc1f6df50f0daba3fcc10c13692b6673f7ecf45fd55b2416428542876ee65f",
      "blockNumber": "0x731d54",
      "gasUsed": "0xfd4b",
      "effectiveGasPrice": "0x653c5604",
      "from": "0xc77f7fed3b5cc8249adc428c5f44c9063b9734b4",
      "to": "0x8aafd3ede9adb0ff97c7aebce82a919afb1c8764",
      "contractAddress": null
    }
  ],
  "libraries": [],
  "pending": [],
  "returns": {},
  "timestamp": 1737514201,
  "chain": 11155111,
  "commit": "1d2fb70"
}