{
  "transactions": [
    {
      "hash": "0xe9dfd3d5d6bbb061986d5c685a0eb90fbc38bb5d7633e0a9b16c60c39f14331b",
      "transactionType": "CALL",
      "contractName": null,
      "contractAddress": "0x8aafd3ede9adb0ff97c7aebce82a919afb1c8764",
      "function": "sell(uint256)",
      "arguments": [
        "5992385116863422823"
      ],
      "transaction": {
        "from": "0xc77f7fed3b5cc8249adc428c5f44c9063b9734b4",
        "to": "0x8aafd3ede9adb0ff97c7aebce82a919afb1c8764",
        "gas": "0x15dca",
        "value": "0x0",
        "input": "0xe4849b3200000000000000000000000000000000000000000000000053293a83c7fb6167",
        "nonce": "0xe7f",
        "chainId": "0xaa36a7"
      },
      "additionalContracts": [],
      "isFixedGasLimit": false
    }
  ],
  "receipts": [
    {
      "status": "0x1",
      "cumulativeGasUsed": "0xfe021c",
      "logs": [
        {
          "address": "0x8aafd3ede9adb0ff97c7aebce82a919afb1c8764",
          "topics": [
            "0xddf252ad1be2c89b69c2b068fc378daa952ba7f163c4a11628f55a4df523b3ef",
            "0x000000000000000000000000c77f7fed3b5cc8249adc428c5f44c9063b9734b4",
            "0x0000000000000000000000000000000000000000000000000000000000000000"
          ],
          "data": "0x000000000000000000000000000000000000000000000000527eea2cb5ff8371",
          "blockHash": "0x978e5bb0c3e17ee58765279de686c008823949fa71ea28d4d81637e4cc6e1bb8",
          "blockNumber": "0x7313d9",
          "transactionHash": "0xe9dfd3d5d6bbb061986d5c685a0eb90fbc38bb5d7633e0a9b16c60c39f14331b",
          "transactionIndex": "0x95",
          "logIndex": "0x141",
          "removed": false
        },
        {
          "address": "0x8aafd3ede9adb0ff97c7aebce82a919afb1c8764",
          "topics": [
            "0xddf252ad1be2c89b69c2b068fc378daa952ba7f163c4a11628f55a4df523b3ef",
            "0x000000000000000000000000c77f7fed3b5cc8249adc428c5f44c9063b9734b4",
            "0x000000000000000000000000c77f7fed3b5cc8249adc428c5f44c9063b9734b4"
          ],
          "data": "0x00000000000000000000000000000000000000000000000000aa505711fbddf6",
          "blockHash": "0x978e5bb0c3e17ee58765279de686c008823949fa71ea28d4d81637e4cc6e1bb8",
          "blockNumber": "0x7313d9",
          "transactionHash": "0xe9dfd3d5d6bbb061986d5c685a0eb90fbc38bb5d7633e0a9b16c60c39f14331b",
          "transactionIndex": "0x95",
          "logIndex": "0x142",
          "removed": false
        },
        {
          "address": "0x8aafd3ede9adb0ff97c7aebce82a919afb1c8764",
          "topics": [
            "0x4afcb4a87cdbd9974efdb92ee48bc8d7cd0ae4bf217004db3d080cbaee652ca7"
          ],
          "data": "0x00000000000000000000000000000000000000000000000000000000678feac00000000000000000000000000000000000000000000000000004b61edacf419c000000000000000000000000000000000000000000000000001c3b864d703f0a",
          "blockHash": "0x978e5bb0c3e17ee58765279de686c008823949fa71ea28d4d81637e4cc6e1bb8",
          "blockNumber": "0x7313d9",
          "transactionHash": "0xe9dfd3d5d6bbb061986d5c685a0eb90fbc38bb5d7633e0a9b16c60c39f14331b",
          "transactionIndex": "0x95",
          "logIndex": "0x143",
          "removed": false
        }
      ],
      "logsBloom": "0x00000000000000000000000000000000000000000600000000000000000000000000000000000000000000000000000000000000000000004000000000000000000000000000004000000008000000000000000000000000000000000000000000000000020000000000000000000800020000000000000000000010000000000000000000000000000000000000000000000000000000000000010000000000000000000000000000000000000000004000000000000000000000000000000000000002000000800000000000000000000000000000080000000000000020000000000000000000000000000000000000000000000000000000000000000000",
      "type": "0x2",
      "transactionHash": "0xe9dfd3d5d6bbb061986d5c685a0eb90fbc38bb5d7633e0a9b16c60c39f14331b",
      "transactionIndex": "0x95",
      "blockHash": "0x978e5bb0c3e17ee58765279de686c008823949fa71ea28d4d81637e4cc6e1bb8",
      "blockNumber": "0x7313d9",
      "gasUsed": "0xfd3f",
      "effectiveGasPrice": "0x6c7920c7",
      "from": "0xc77f7fed3b5cc8249adc428c5f44c9063b9734b4",
      "to": "0x8aafd3ede9adb0ff97c7aebce82a919afb1c8764",
      "contractAddress": null
    }
  ],
  "libraries": [],
  "pending": [],
  "returns": {},
  "timestamp": 1737484994,
  "chain": 11155111,
  "commit": "51a374b"
}