{
  "transactions": [
    {
      "hash": "0x1b257d17e85d3110be1750c364171b460c6908abd9ebdbe63b159b0b01eeb20f",
      "transactionType": "CALL",
      "contractName": null,
      "contractAddress": "0xbf4a322f1496e5c3d34a9bcdb4c60567b38c7de2",
      "function": "sell(uint256)",
      "arguments": [
        "987262755437203227107"
      ],
      "transaction": {
        "from": "0xc77f7fed3b5cc8249adc428c5f44c9063b9734b4",
        "to": "0xbf4a322f1496e5c3d34a9bcdb4c60567b38c7de2",
        "gas": "0x16fea",
        "value": "0x0",
        "input": "0xe4849b320000000000000000000000000000000000000000000000358505e553efd901e3",
        "nonce": "0x9ff",
        "chainId": "0xaa36a7"
      },
      "additionalContracts": [],
      "isFixedGasLimit": false
    }
  ],
  "receipts": [
    {
      "status": "0x1",
      "cumulativeGasUsed": "0x844155",
      "logs": [
        {
          "address": "0xbf4a322f1496e5c3d34a9bcdb4c60567b38c7de2",
          "topics": [
            "0xddf252ad1be2c89b69c2b068fc378daa952ba7f163c4a11628f55a4df523b3ef",
            "0x000000000000000000000000c77f7fed3b5cc8249adc428c5f44c9063b9734b4",
            "0x0000000000000000000000000000000000000000000000000000000000000000"
          ],
          "data": "0x0000000000000000000000000000000000000000000000358505e553efd901e3",
          "blockHash": "0x48b5c5c469bad4f1adb0263b213115caccfb3d00c9825da7b3488a1a9df51fc2",
          "blockNumber": "0x7259ba",
          "transactionHash": "0x1b257d17e85d3110be1750c364171b460c6908abd9ebdbe63b159b0b01eeb20f",
          "transactionIndex": "0x41",
          "logIndex": "0x7f",
          "removed": false
        },
        {
          "address": "0xbf4a322f1496e5c3d34a9bcdb4c60567b38c7de2",
          "topics": [
            "0x4afcb4a87cdbd9974efdb92ee48bc8d7cd0ae4bf217004db3d080cbaee652ca7"
          ],
          "data": "0x00000000000000000000000000000000000000000000000000000000678726fc000000000000000000000000000000000000000000000000000392cedb4e65e80000000000000000000000000000000000000000000000000dc7e3f2f3c8bdad",
          "blockHash": "0x48b5c5c469bad4f1adb0263b213115caccfb3d00c9825da7b3488a1a9df51fc2",
          "blockNumber": "0x7259ba",
          "transactionHash": "0x1b257d17e85d3110be1750c364171b460c6908abd9ebdbe63b159b0b01eeb20f",
          "transactionIndex": "0x41",
          "logIndex": "0x80",
          "removed": false
        }
      ],
      "logsBloom": "0x00000000000000000000000000000000000000000000000000000000000000000000000000000000000000000000000000000000000000004000000000000000000000000000000000000008000000000000001000000000000000000000000000000000020000000000000000000800020000000000000000000010000000000000000000000000000000000000000000000000000008000000010000000000000000000000000000000000000000004000000000000000000000000000000000000002000000800000000000001000000000000000080000000000000020000000000000000000000000000000000000000000000000000000000000000000",
      "type": "0x2",
      "transactionHash": "0x1b257d17e85d3110be1750c364171b460c6908abd9ebdbe63b159b0b01eeb20f",
      "transactionIndex": "0x41",
      "blockHash": "0x48b5c5c469bad4f1adb0263b213115caccfb3d00c9825da7b3488a1a9df51fc2",
      "blockNumber": "0x7259ba",
      "gasUsed": "0xfb91",
      "effectiveGasPrice": "0x41ada2dae",
      "from": "0xc77f7fed3b5cc8249adc428c5f44c9063b9734b4",
      "to": "0xbf4a322f1496e5c3d34a9bcdb4c60567b38c7de2",
      "contractAddress": null
    }
  ],
  "libraries": [],
  "pending": [],
  "returns": {},
  "timestamp": 1736910589,
  "chain": 11155111,
  "commit": "51a374b"
}