{
  "transactions": [
    {
      "hash": "0x5ecdb45662ee41e46e691b3658617a9a2244c5c82f23129984c6e4a6f66e3afd",
      "transactionType": "CALL",
      "contractName": null,
      "contractAddress": "0xbf4a322f1496e5c3d34a9bcdb4c60567b38c7de2",
      "function": "buy(address)",
      "arguments": [
        "0xC77f7fed3b5Cc8249aDc428c5F44C9063B9734b4"
      ],
      "transaction": {
        "from": "0xc77f7fed3b5cc8249adc428c5f44c9063b9734b4",
        "to": "0xbf4a322f1496e5c3d34a9bcdb4c60567b38c7de2",
        "gas": "0x1b309",
        "value": "0xde0b6b3a7640000",
        "input": "0xf088d547000000000000000000000000c77f7fed3b5cc8249adc428c5f44c9063b9734b4",
        "nonce": "0xbb4",
        "chainId": "0xaa36a7"
      },
      "additionalContracts": [],
      "isFixedGasLimit": false
    }
  ],
  "receipts": [
    {
      "status": "0x1",
      "cumulativeGasUsed": "0x9ea659",
      "logs": [
        {
          "address": "0xbf4a322f1496e5c3d34a9bcdb4c60567b38c7de2",
          "topics": [
            "0xddf252ad1be2c89b69c2b068fc378daa952ba7f163c4a11628f55a4df523b3ef",
            "0x0000000000000000000000000000000000000000000000000000000000000000",
            "0x000000000000000000000000c77f7fed3b5cc8249adc428c5f44c9063b9734b4"
          ],
          "data": "0x000000000000000000000000000000000000000000000035098239fe293065dc",
          "blockHash": "0x5f44c397501c237d4180247f6acce21ee29feb4a7fbda63e727eb4e159447c37",
          "blockNumber": "0x725bce",
          "transactionHash": "0x5ecdb45662ee41e46e691b3658617a9a2244c5c82f23129984c6e4a6f66e3afd",
          "transactionIndex": "0x45",
          "logIndex": "0x5d",
          "removed": false
        },
        {
          "address": "0xbf4a322f1496e5c3d34a9bcdb4c60567b38c7de2",
          "topics": [
            "0xddf252ad1be2c89b69c2b068fc378daa952ba7f163c4a11628f55a4df523b3ef",
            "0x0000000000000000000000000000000000000000000000000000000000000000",
            "0x000000000000000000000000c77f7fed3b5cc8249adc428c5f44c9063b9734b4"
          ],
          "data": "0x000000000000000000000000000000000000000000000000292f660ca6e4b63c",
          "blockHash": "0x5f44c397501c237d4180247f6acce21ee29feb4a7fbda63e727eb4e159447c37",
          "blockNumber": "0x725bce",
          "transactionHash": "0x5ecdb45662ee41e46e691b3658617a9a2244c5c82f23129984c6e4a6f66e3afd",
          "transactionIndex": "0x45",
          "logIndex": "0x5e",
          "removed": false
        },
        {
          "address": "0xbf4a322f1496e5c3d34a9bcdb4c60567b38c7de2",
          "topics": [
            "0x4afcb4a87cdbd9974efdb92ee48bc8d7cd0ae4bf217004db3d080cbaee652ca7"
          ],
          "data": "0x0000000000000000000000000000000000000000000000000000000067874004000000000000000000000000000000000000000000000000000398526fdf11ce0000000000000000000000000000000000000000000000000de0b6b3a7640000",
          "blockHash": "0x5f44c397501c237d4180247f6acce21ee29feb4a7fbda63e727eb4e159447c37",
          "blockNumber": "0x725bce",
          "transactionHash": "0x5ecdb45662ee41e46e691b3658617a9a2244c5c82f23129984c6e4a6f66e3afd",
          "transactionIndex": "0x45",
          "logIndex": "0x5f",
          "removed": false
        }
      ],
      "logsBloom": "0x00000000000000000000000000000000000000000000000000000000000000000000000000000000000000000000000000000000000000004000000000000000000000000000000000000008000000000000001000000000000000000000000000000000020000000000000000000800020000000000000000000010000000000000000000000000000000000000000000000000000008000000010000000000000000000000000000000000000000004000000000000000000000000000000000000002000000800000000000001000000000000000080000000000000020000000000000000000000000000000000000000000000000000000000000000000",
      "type": "0x2",
      "transactionHash": "0x5ecdb45662ee41e46e691b3658617a9a2244c5c82f23129984c6e4a6f66e3afd",
      "transactionIndex": "0x45",
      "blockHash": "0x5f44c397501c237d4180247f6acce21ee29feb4a7fbda63e727eb4e159447c37",
      "blockNumber": "0x725bce",
      "gasUsed": "0x13af6",
      "effectiveGasPrice": "0x6026e54b",
      "from": "0xc77f7fed3b5cc8249adc428c5f44c9063b9734b4",
      "to": "0xbf4a322f1496e5c3d34a9bcdb4c60567b38c7de2",
      "contractAddress": null
    }
  ],
  "libraries": [],
  "pending": [],
  "returns": {},
  "timestamp": 1736916997,
  "chain": 11155111,
  "commit": "51a374b"
}