{
  "transactions": [
    {
      "hash": "0x26368d8c6b2ad38ce273bc4e3325be89a4ebd9a508028b6bec1ec2e28f8e38cd",
      "transactionType": "CALL",
      "contractName": null,
      "contractAddress": "0x8aafd3ede9adb0ff97c7aebce82a919afb1c8764",
      "function": "sell(uint256)",
      "arguments": [
        "98997288788483"
      ],
      "transaction": {
        "from": "0xc77f7fed3b5cc8249adc428c5f44c9063b9734b4",
        "to": "0x8aafd3ede9adb0ff97c7aebce82a919afb1c8764",
        "gas": "0x15daa",
        "value": "0x0",
        "input": "0xe4849b3200000000000000000000000000000000000000000000000000005a099a3b6203",
        "nonce": "0x156e",
        "chainId": "0xaa36a7"
      },
      "additionalContracts": [],
      "isFixedGasLimit": false
    }
  ],
  "receipts": [
    {
      "status": "0x1",
      "cumulativeGasUsed": "0xa6bf15",
      "logs": [
        {
          "address": "0x8aafd3ede9adb0ff97c7aebce82a919afb1c8764",
          "topics": [
            "0xddf252ad1be2c89b69c2b068fc378daa952ba7f163c4a11628f55a4df523b3ef",
            "0x000000000000000000000000c77f7fed3b5cc8249adc428c5f44c9063b9734b4",
            "0x0000000000000000000000000000000000000000000000000000000000000000"
          ],
          "data": "0x0000000000000000000000000000000000000000000000000000595134a56760",
          "blockHash": "0xe286d1dcec04a49eee8bacb48652cc22316466d45d3a7e80d2dc21930cd4764e",
          "blockNumber": "0x731cd7",
          "transactionHash": "0x26368d8c6b2ad38ce273bc4e3325be89a4ebd9a508028b6bec1ec2e28f8e38cd",
          "transactionIndex": "0x66",
          "logIndex": "0xa7",
          "removed": false
        },
        {
          "address": "0x8aafd3ede9adb0ff97c7aebce82a919afb1c8764",
          "topics": [
            "0xddf252ad1be2c89b69c2b068fc378daa952ba7f163c4a11628f55a4df523b3ef",
            "0x000000000000000000000000c77f7fed3b5cc8249adc428c5f44c9063b9734b4",
            "0x000000000000000000000000c77f7fed3b5cc8249adc428c5f44c9063b9734b4"
          ],
          "data": "0x000000000000000000000000000000000000000000000000000000b86595faa3",
          "blockHash": "0xe286d1dcec04a49eee8bacb48652cc22316466d45d3a7e80d2dc21930cd4764e",
          "blockNumber": "0x731cd7",
          "transactionHash": "0x26368d8c6b2ad38ce273bc4e3325be89a4ebd9a508028b6bec1ec2e28f8e38cd",
          "transactionIndex": "0x66",
          "logIndex": "0xa8",
          "removed": false
        },
        {
          "address": "0x8aafd3ede9adb0ff97c7aebce82a919afb1c8764",
          "topics": [
            "0x4afcb4a87cdbd9974efdb92ee48bc8d7cd0ae4bf217004db3d080cbaee652ca7"
          ],
          "data": "0x00000000000000000000000000000000000000000000000000000000679056fc00000000000000000000000000000000000000000000000000125982489c61e8000000000000000000000000000000000000000000000000000000770ce75e9c",
          "blockHash": "0xe286d1dcec04a49eee8bacb48652cc22316466d45d3a7e80d2dc21930cd4764e",
          "blockNumber": "0x731cd7",
          "transactionHash": "0x26368d8c6b2ad38ce273bc4e3325be89a4ebd9a508028b6bec1ec2e28f8e38cd",
          "transactionIndex": "0x66",
          "logIndex": "0xa9",
          "removed": false
        }
      ],
      "logsBloom": "0x00000000000000000000000000000000000000000600000000000000000000000000000000000000000000000000000000000000000000004000000000000000000000000000004000000008000000000000000000000000000000000000000000000000020000000000000000000800020000000000000000000010000000000000000000000000000000000000000000000000000000000000010000000000000000000000000000000000000000004000000000000000000000000000000000000002000000800000000000000000000000000000080000000000000020000000000000000000000000000000000000000000000000000000000000000000",
      "type": "0x2",
      "transactionHash": "0x26368d8c6b2ad38ce273bc4e3325be89a4ebd9a508028b6bec1ec2e28f8e38cd",
      "transactionIndex": "0x66",
      "blockHash": "0xe286d1dcec04a49eee8bacb48652cc22316466d45d3a7e80d2dc21930cd4764e",
      "blockNumber": "0x731cd7",
      "gasUsed": "0xfd27",
      "effectiveGasPrice": "0x858437cd",
      "from": "0xc77f7fed3b5cc8249adc428c5f44c9063b9734b4",
      "to": "0x8aafd3ede9adb0ff97c7aebce82a919afb1c8764",
      "contractAddress": null
    }
  ],
  "libraries": [],
  "pending": [],
  "returns": {},
  "timestamp": 1737512702,
  "chain": 11155111,
  "commit": "1d2fb70"
}