{
  "transactions": [
    {
      "hash": "0x80aa1844f818de4b0a1322fc32d307bdb63244d2aa46ed41376fe4048af94af6",
      "transactionType": "CALL",
      "contractName": null,
      "contractAddress": "0x270e88f8683660553e8ba4eb2ad7c91a1710d769",
      "function": "sell(uint256)",
      "arguments": [
        "714713555162237851329"
      ],
      "transaction": {
        "from": "0xc77f7fed3b5cc8249adc428c5f44c9063b9734b4",
        "to": "0x270e88f8683660553e8ba4eb2ad7c91a1710d769",
        "gas": "0x16fec",
        "value": "0x0",
        "input": "0xe4849b32000000000000000000000000000000000000000000000026bea49fb491bd56c1",
        "nonce": "0x862",
        "chainId": "0xaa36a7"
      },
      "additionalContracts": [],
      "isFixedGasLimit": false
    }
  ],
  "receipts": [
    {
      "status": "0x1",
      "cumulativeGasUsed": "0x1bada08",
      "logs": [
        {
          "address": "0x270e88f8683660553e8ba4eb2ad7c91a1710d769",
          "topics": [
            "0xddf252ad1be2c89b69c2b068fc378daa952ba7f163c4a11628f55a4df523b3ef",
            "0x000000000000000000000000c77f7fed3b5cc8249adc428c5f44c9063b9734b4",
            "0x0000000000000000000000000000000000000000000000000000000000000000"
          ],
          "data": "0x000000000000000000000000000000000000000000000026bea49fb491bd56c1",
          "blockHash": "0xe751c234bec2574ca6bdf81fe143138173dfc7fd551e2bfca2cca03a2ed087b5",
          "blockNumber": "0x7255b7",
          "transactionHash": "0x80aa1844f818de4b0a1322fc32d307bdb63244d2aa46ed41376fe4048af94af6",
          "transactionIndex": "0x47",
          "logIndex": "0x16d",
          "removed": false
        },
        {
          "address": "0x270e88f8683660553e8ba4eb2ad7c91a1710d769",
          "topics": [
            "0x4afcb4a87cdbd9974efdb92ee48bc8d7cd0ae4bf217004db3d080cbaee652ca7"
          ],
          "data": "0x000000000000000000000000000000000000000000000000000000006786f69c0000000000000000000000000000000000000000000000000004efeb617af8660000000000000000000000000000000000000000000000000dc825e1bf3079c5",
          "blockHash": "0xe751c234bec2574ca6bdf81fe143138173dfc7fd551e2bfca2cca03a2ed087b5",
          "blockNumber": "0x7255b7",
          "transactionHash": "0x80aa1844f818de4b0a1322fc32d307bdb63244d2aa46ed41376fe4048af94af6",
          "transactionIndex": "0x47",
          "logIndex": "0x16e",
          "removed": false
        }
      ],
      "logsBloom": "0x00000000000000000000000000000000000000000000000000000000000000000000000000000000000000000000000020000000000000004000000000000000000000000000000000000008000000000000000000000000000000000000000000000000020000000000000000000800020000000000000000000010000000000000000000010000000000000000000000000000000000000000010000000000000000000000000000000000000000004000000000000000000000000000000000000002000000800000000000000000000000000000080000008000000020000000000000000000000000000000000000000000000000000000000000000000",
      "type": "0x2",
      "transactionHash": "0x80aa1844f818de4b0a1322fc32d307bdb63244d2aa46ed41376fe4048af94af6",
      "transactionIndex": "0x47",
      "blockHash": "0xe751c234bec2574ca6bdf81fe143138173dfc7fd551e2bfca2cca03a2ed087b5",
      "blockNumber": "0x7255b7",
      "gasUsed": "0xfb93",
      "effectiveGasPrice": "0x8cecc855",
      "from": "0xc77f7fed3b5cc8249adc428c5f44c9063b9734b4",
      "to": "0x270e88f8683660553e8ba4eb2ad7c91a1710d769",
      "contractAddress": null
    }
  ],
  "libraries": [],
  "pending": [],
  "returns": {},
  "timestamp": 1736898205,
  "chain": 11155111,
  "commit": "51a374b"
}