{
  "transactions": [
    {
      "hash": "0x93d4a834b024e033b17d8c78c188a2334ea6793d0c0b01cd884f8f163116328c",
      "transactionType": "CALL",
      "contractName": null,
      "contractAddress": "0x8aafd3ede9adb0ff97c7aebce82a919afb1c8764",
      "function": "sell(uint256)",
      "arguments": [
        "206273699439031444611"
      ],
      "transaction": {
        "from": "0xc77f7fed3b5cc8249adc428c5f44c9063b9734b4",
        "to": "0x8aafd3ede9adb0ff97c7aebce82a919afb1c8764",
        "gas": "0x17270",
        "value": "0x0",
        "input": "0xe4849b3200000000000000000000000000000000000000000000000b2e9f64c141296483",
        "nonce": "0x1508",
        "chainId": "0xaa36a7"
      },
      "additionalContracts": [],
      "isFixedGasLimit": false
    }
  ],
  "receipts": [
    {
      "status": "0x1",
      "cumulativeGasUsed": "0xc5d2cb",
      "logs": [
        {
          "address": "0x8aafd3ede9adb0ff97c7aebce82a919afb1c8764",
          "topics": [
            "0xddf252ad1be2c89b69c2b068fc378daa952ba7f163c4a11628f55a4df523b3ef",
            "0x000000000000000000000000c77f7fed3b5cc8249adc428c5f44c9063b9734b4",
            "0x0000000000000000000000000000000000000000000000000000000000000000"
          ],
          "data": "0x00000000000000000000000000000000000000000000000b17b8be0f949bbfdf",
          "blockHash": "0x8e9dd52a3a0daf91e181a4614457f9d0a88585458ae8291d0ab78b812a486676",
          "blockNumber": "0x731c6a",
          "transactionHash": "0x93d4a834b024e033b17d8c78c188a2334ea6793d0c0b01cd884f8f163116328c",
          "transactionIndex": "0x62",
          "logIndex": "0x8d",
          "removed": false
        },
        {
          "address": "0x8aafd3ede9adb0ff97c7aebce82a919afb1c8764",
          "topics": [
            "0xddf252ad1be2c89b69c2b068fc378daa952ba7f163c4a11628f55a4df523b3ef",
            "0x000000000000000000000000c77f7fed3b5cc8249adc428c5f44c9063b9734b4",
            "0x000000000000000000000000c77f7fed3b5cc8249adc428c5f44c9063b9734b4"
          ],
          "data": "0x00000000000000000000000000000000000000000000000016e6a6b1ac8da4a4",
          "blockHash": "0x8e9dd52a3a0daf91e181a4614457f9d0a88585458ae8291d0ab78b812a486676",
          "blockNumber": "0x731c6a",
          "transactionHash": "0x93d4a834b024e033b17d8c78c188a2334ea6793d0c0b01cd884f8f163116328c",
          "transactionIndex": "0x62",
          "logIndex": "0x8e",
          "removed": false
        },
        {
          "address": "0x8aafd3ede9adb0ff97c7aebce82a919afb1c8764",
          "topics": [
            "0x4afcb4a87cdbd9974efdb92ee48bc8d7cd0ae4bf217004db3d080cbaee652ca7"
          ],
          "data": "0x00000000000000000000000000000000000000000000000000000000679051d4000000000000000000000000000000000000000000000000001134b5040d352c0000000000000000000000000000000000000000000000000dcd195f0b3a5b23",
          "blockHash": "0x8e9dd52a3a0daf91e181a4614457f9d0a88585458ae8291d0ab78b812a486676",
          "blockNumber": "0x731c6a",
          "transactionHash": "0x93d4a834b024e033b17d8c78c188a2334ea6793d0c0b01cd884f8f163116328c",
          "transactionIndex": "0x62",
          "logIndex": "0x8f",
          "removed": false
        }
      ],
      "logsBloom": "0x00000000000000000000000000000000000000000600000000000000000000000000000000000000000000000000000000000000000000004000000000000000000000000000004000000008000000000000000000000000000000000000000000000000020000000000000000000800020000000000000000000010000000000000000000000000000000000000000000000000000000000000010000000000000000000000000000000000000000004000000000000000000000000000000000000002000000800000000000000000000000000000080000000000000020000000000000000000000000000000000000000000000000000000000000000000",
      "type": "0x2",
      "transactionHash": "0x93d4a834b024e033b17d8c78c188a2334ea6793d0c0b01cd884f8f163116328c",
      "transactionIndex": "0x62",
      "blockHash": "0x8e9dd52a3a0daf91e181a4614457f9d0a88585458ae8291d0ab78b812a486676",
      "blockNumber": "0x731c6a",
      "gasUsed": "0xfd4b",
      "effectiveGasPrice": "0x1b8a6f734",
      "from": "0xc77f7fed3b5cc8249adc428c5f44c9063b9734b4",
      "to": "0x8aafd3ede9adb0ff97c7aebce82a919afb1c8764",
      "contractAddress": null
    }
  ],
  "libraries": [],
  "pending": [],
  "returns": {},
  "timestamp": 1737511382,
  "chain": 11155111,
  "commit": "1d2fb70"
}