{
  "transactions": [
    {
      "hash": "0x1950444142c4b7e74af851fc034631806aa03c2f074efb65b27f09bc27a28e50",
      "transactionType": "CALL",
      "contractName": null,
      "contractAddress": "0x8aafd3ede9adb0ff97c7aebce82a919afb1c8764",
      "function": "sell(uint256)",
      "arguments": [
        "47397516928766333"
      ],
      "transaction": {
        "from": "0xc77f7fed3b5cc8249adc428c5f44c9063b9734b4",
        "to": "0x8aafd3ede9adb0ff97c7aebce82a919afb1c8764",
        "gas": "0x1724d",
        "value": "0x0",
        "input": "0xe4849b3200000000000000000000000000000000000000000000000000a863ca5fc6517d",
        "nonce": "0xfaf",
        "chainId": "0xaa36a7"
      },
      "additionalContracts": [],
      "isFixedGasLimit": false
    }
  ],
  "receipts": [
    {
      "status": "0x1",
      "cumulativeGasUsed": "0xd94abb",
      "logs": [
        {
          "address": "0x8aafd3ede9adb0ff97c7aebce82a919afb1c8764",
          "topics": [
            "0xddf252ad1be2c89b69c2b068fc378daa952ba7f163c4a11628f55a4df523b3ef",
            "0x000000000000000000000000c77f7fed3b5cc8249adc428c5f44c9063b9734b4",
            "0x0000000000000000000000000000000000000000000000000000000000000000"
          ],
          "data": "0x00000000000000000000000000000000000000000000000000a70aed9e7f198b",
          "blockHash": "0x16b3aa71d05f16e1c9b6ce36f04d59b5cd9e823e3cfaaa190507acd0bd03d66c",
          "blockNumber": "0x731619",
          "transactionHash": "0x1950444142c4b7e74af851fc034631806aa03c2f074efb65b27f09bc27a28e50",
          "transactionIndex": "0x8a",
          "logIndex": "0xd2",
          "removed": false
        },
        {
          "address": "0x8aafd3ede9adb0ff97c7aebce82a919afb1c8764",
          "topics": [
            "0xddf252ad1be2c89b69c2b068fc378daa952ba7f163c4a11628f55a4df523b3ef",
            "0x000000000000000000000000c77f7fed3b5cc8249adc428c5f44c9063b9734b4",
            "0x000000000000000000000000c77f7fed3b5cc8249adc428c5f44c9063b9734b4"
          ],
          "data": "0x000000000000000000000000000000000000000000000000000158dcc14737f2",
          "blockHash": "0x16b3aa71d05f16e1c9b6ce36f04d59b5cd9e823e3cfaaa190507acd0bd03d66c",
          "blockNumber": "0x731619",
          "transactionHash": "0x1950444142c4b7e74af851fc034631806aa03c2f074efb65b27f09bc27a28e50",
          "transactionIndex": "0x8a",
          "logIndex": "0xd3",
          "removed": false
        },
        {
          "address": "0x8aafd3ede9adb0ff97c7aebce82a919afb1c8764",
          "topics": [
            "0x4afcb4a87cdbd9974efdb92ee48bc8d7cd0ae4bf217004db3d080cbaee652ca7"
          ],
          "data": "0x00000000000000000000000000000000000000000000000000000000679005d80000000000000000000000000000000000000000000000000004c3cf240bad5a000000000000000000000000000000000000000000000000000039d0e0627f4f",
          "blockHash": "0x16b3aa71d05f16e1c9b6ce36f04d59b5cd9e823e3cfaaa190507acd0bd03d66c",
          "blockNumber": "0x731619",
          "transactionHash": "0x1950444142c4b7e74af851fc034631806aa03c2f074efb65b27f09bc27a28e50",
          "transactionIndex": "0x8a",
          "logIndex": "0xd4",
          "removed": false
        }
      ],
      "logsBloom": "0x00000000000000000000000000000000000000000600000000000000000000000000000000000000000000000000000000000000000000004000000000000000000000000000004000000008000000000000000000000000000000000000000000000000020000000000000000000800020000000000000000000010000000000000000000000000000000000000000000000000000000000000010000000000000000000000000000000000000000004000000000000000000000000000000000000002000000800000000000000000000000000000080000000000000020000000000000000000000000000000000000000000000000000000000000000000",
      "type": "0x2",
      "transactionHash": "0x1950444142c4b7e74af851fc034631806aa03c2f074efb65b27f09bc27a28e50",
      "transactionIndex": "0x8a",
      "blockHash": "0x16b3aa71d05f16e1c9b6ce36f04d59b5cd9e823e3cfaaa190507acd0bd03d66c",
      "blockNumber": "0x731619",
      "gasUsed": "0xfd33",
      "effectiveGasPrice": "0x5e5f34cd",
      "from": "0xc77f7fed3b5cc8249adc428c5f44c9063b9734b4",
      "to": "0x8aafd3ede9adb0ff97c7aebce82a919afb1c8764",
      "contractAddress": null
    }
  ],
  "libraries": [],
  "pending": [],
  "returns": {},
  "timestamp": 1737491930,
  "chain": 11155111,
  "commit": "1d2fb70"
}