{
  "transactions": [
    {
      "hash": "0x07b922adf8ba89f71145d5faf7fac0810ad545a2086f2f1ec60e871d21164392",
      "transactionType": "CALL",
      "contractName": null,
      "contractAddress": "0x270e88f8683660553e8ba4eb2ad7c91a1710d769",
      "function": "sell(uint256)",
      "arguments": [
        "990770383683625003273"
      ],
      "transaction": {
        "from": "0xc77f7fed3b5cc8249adc428c5f44c9063b9734b4",
        "to": "0x270e88f8683660553e8ba4eb2ad7c91a1710d769",
        "gas": "0x16fec",
        "value": "0x0",
        "input": "0xe4849b32000000000000000000000000000000000000000000000035b5b37ea23ff1a909",
        "nonce": "0x4e3",
        "chainId": "0xaa36a7"
      },
      "additionalContracts": [],
      "isFixedGasLimit": false
    }
  ],
  "receipts": [
    {
      "status": "0x1",
      "cumulativeGasUsed": "0x6166f0",
      "logs": [
        {
          "address": "0x270e88f8683660553e8ba4eb2ad7c91a1710d769",
          "topics": [
            "0xddf252ad1be2c89b69c2b068fc378daa952ba7f163c4a11628f55a4df523b3ef",
            "0x000000000000000000000000c77f7fed3b5cc8249adc428c5f44c9063b9734b4",
            "0x0000000000000000000000000000000000000000000000000000000000000000"
          ],
          "data": "0x000000000000000000000000000000000000000000000035b5b37ea23ff1a909",
          "blockHash": "0x113e52d2d89105b81dd142b0bd1b3e1f9124c88c1cfede87b0c01c050f7884a2",
          "blockNumber": "0x725171",
          "transactionHash": "0x07b922adf8ba89f71145d5faf7fac0810ad545a2086f2f1ec60e871d21164392",
          "transactionIndex": "0x38",
          "logIndex": "0x65",
          "removed": false
        },
        {
          "address": "0x270e88f8683660553e8ba4eb2ad7c91a1710d769",
          "topics": [
            "0x4afcb4a87cdbd9974efdb92ee48bc8d7cd0ae4bf217004db3d080cbaee652ca7"
          ],
          "data": "0x000000000000000000000000000000000000000000000000000000006786c33000000000000000000000000000000000000000000000000000038fd6310fe5800000000000000000000000000000000000000000000000000dc84258a88fa9ef",
          "blockHash": "0x113e52d2d89105b81dd142b0bd1b3e1f9124c88c1cfede87b0c01c050f7884a2",
          "blockNumber": "0x725171",
          "transactionHash": "0x07b922adf8ba89f71145d5faf7fac0810ad545a2086f2f1ec60e871d21164392",
          "transactionIndex": "0x38",
          "logIndex": "0x66",
          "removed": false
        }
      ],
      "logsBloom": "0x00000000000000000000000000000000000000000000000000000000000000000000000000000000000000000000000020000000000000004000000000000000000000000000000000000008000000000000000000000000000000000000000000000000020000000000000000000800020000000000000000000010000000000000000000010000000000000000000000000000000000000000010000000000000000000000000000000000000000004000000000000000000000000000000000000002000000800000000000000000000000000000080000008000000020000000000000000000000000000000000000000000000000000000000000000000",
      "type": "0x2",
      "transactionHash": "0x07b922adf8ba89f71145d5faf7fac0810ad545a2086f2f1ec60e871d21164392",
      "transactionIndex": "0x38",
      "blockHash": "0x113e52d2d89105b81dd142b0bd1b3e1f9124c88c1cfede87b0c01c050f7884a2",
      "blockNumber": "0x725171",
      "gasUsed": "0xfb93",
      "effectiveGasPrice": "0x478f3cc12",
      "from": "0xc77f7fed3b5cc8249adc428c5f44c9063b9734b4",
      "to": "0x270e88f8683660553e8ba4eb2ad7c91a1710d769",
      "contractAddress": null
    }
  ],
  "libraries": [],
  "pending": [],
  "returns": {},
  "timestamp": 1736885040,
  "chain": 11155111,
  "commit": "51a374b"
}