{
  "transactions": [
    {
      "hash": "0x5be0de9c9718f8365d64003cf45db0e70e0f0af999b497d42e9c1bff1485f6e6",
      "transactionType": "CALL",
      "contractName": null,
      "contractAddress": "0x8aafd3ede9adb0ff97c7aebce82a919afb1c8764",
      "function": "sell(uint256)",
      "arguments": [
        "194663675"
      ],
      "transaction": {
        "from": "0xc77f7fed3b5cc8249adc428c5f44c9063b9734b4",
        "to": "0x8aafd3ede9adb0ff97c7aebce82a919afb1c8764",
        "gas": "0x14e6c",
        "value": "0x0",
        "input": "0xe4849b32000000000000000000000000000000000000000000000000000000000b9a54fb",
        "nonce": "0xf4f",
        "chainId": "0xaa36a7"
      },
      "additionalContracts": [],
      "isFixedGasLimit": false
    }
  ],
  "receipts": [
    {
      "status": "0x1",
      "cumulativeGasUsed": "0xd1ca02",
      "logs": [
        {
          "address": "0x8aafd3ede9adb0ff97c7aebce82a919afb1c8764",
          "topics": [
            "0xddf252ad1be2c89b69c2b068fc378daa952ba7f163c4a11628f55a4df523b3ef",
            "0x000000000000000000000000c77f7fed3b5cc8249adc428c5f44c9063b9734b4",
            "0x0000000000000000000000000000000000000000000000000000000000000000"
          ],
          "data": "0x000000000000000000000000000000000000000000000000000000000b8291be",
          "blockHash": "0x40da2f622c9b8027cad492ab7416cd3aa794d4a6f3783d94eeb350267cf167cb",
          "blockNumber": "0x7315aa",
          "transactionHash": "0x5be0de9c9718f8365d64003cf45db0e70e0f0af999b497d42e9c1bff1485f6e6",
          "transactionIndex": "0x83",
          "logIndex": "0xde",
          "removed": false
        },
        {
          "address": "0x8aafd3ede9adb0ff97c7aebce82a919afb1c8764",
          "topics": [
            "0xddf252ad1be2c89b69c2b068fc378daa952ba7f163c4a11628f55a4df523b3ef",
            "0x000000000000000000000000c77f7fed3b5cc8249adc428c5f44c9063b9734b4",
            "0x000000000000000000000000c77f7fed3b5cc8249adc428c5f44c9063b9734b4"
          ],
          "data": "0x000000000000000000000000000000000000000000000000000000000017c33d",
          "blockHash": "0x40da2f622c9b8027cad492ab7416cd3aa794d4a6f3783d94eeb350267cf167cb",
          "blockNumber": "0x7315aa",
          "transactionHash": "0x5be0de9c9718f8365d64003cf45db0e70e0f0af999b497d42e9c1bff1485f6e6",
          "transactionIndex": "0x83",
          "logIndex": "0xdf",
          "removed": false
        },
        {
          "address": "0x8aafd3ede9adb0ff97c7aebce82a919afb1c8764",
          "topics": [
            "0x4afcb4a87cdbd9974efdb92ee48bc8d7cd0ae4bf217004db3d080cbaee652ca7"
          ],
          "data": "0x00000000000000000000000000000000000000000000000000000000679000a40000000000000000000000000000000000000000000000000004c087ad0df3c8000000000000000000000000000000000000000000000000000000000003f91b",
          "blockHash": "0x40da2f622c9b8027cad492ab7416cd3aa794d4a6f3783d94eeb350267cf167cb",
          "blockNumber": "0x7315aa",
          "transactionHash": "0x5be0de9c9718f8365d64003cf45db0e70e0f0af999b497d42e9c1bff1485f6e6",
          "transactionIndex": "0x83",
          "logIndex": "0xe0",
          "removed": false
        }
      ],
      "logsBloom": "0x00000000000000000000000000000000000000000600000000000000000000000000000000000000000000000000000000000000000000004000000000000000000000000000004000000008000000000000000000000000000000000000000000000000020000000000000000000800020000000000000000000010000000000000000000000000000000000000000000000000000000000000010000000000000000000000000000000000000000004000000000000000000000000000000000000002000000800000000000000000000000000000080000000000000020000000000000000000000000000000000000000000000000000000000000000000",
      "type": "0x2",
      "transactionHash": "0x5be0de9c9718f8365d64003cf45db0e70e0f0af999b497d42e9c1bff1485f6e6",
      "transactionIndex": "0x83",
      "blockHash": "0x40da2f622c9b8027cad492ab7416cd3aa794d4a6f3783d94eeb350267cf167cb",
      "blockNumber": "0x7315aa",
      "gasUsed": "0xf21f",
      "effectiveGasPrice": "0x77661d23",
      "from": "0xc77f7fed3b5cc8249adc428c5f44c9063b9734b4",
      "to": "0x8aafd3ede9adb0ff97c7aebce82a919afb1c8764",
      "contractAddress": null
    }
  ],
  "libraries": [],
  "pending": [],
  "returns": {},
  "timestamp": 1737490598,
  "chain": 11155111,
  "commit": "1d2fb70"
}