{
  "transactions": [
    {
      "hash": "0xece4fb8f5ae23cf7b82cebcac9afc6d35a492fbda08e9061892c7f3b7937c00f",
      "transactionType": "CALL",
      "contractName": null,
      "contractAddress": "0x8aafd3ede9adb0ff97c7aebce82a919afb1c8764",
      "function": "sell(uint256)",
      "arguments": [
        "2921939653383"
      ],
      "transaction": {
        "from": "0xc77f7fed3b5cc8249adc428c5f44c9063b9734b4",
        "to": "0x8aafd3ede9adb0ff97c7aebce82a919afb1c8764",
        "gas": "0x15daa",
        "value": "0x0",
        "input": "0xe4849b32000000000000000000000000000000000000000000000000000002a8512cd307",
        "nonce": "0x1059",
        "chainId": "0xaa36a7"
      },
      "additionalContracts": [],
      "isFixedGasLimit": false
    }
  ],
  "receipts": [
    {
      "status": "0x1",
      "cumulativeGasUsed": "0x97ba5d",
      "logs": [
        {
          "address": "0x8aafd3ede9adb0ff97c7aebce82a919afb1c8764",
          "topics": [
            "0xddf252ad1be2c89b69c2b068fc378daa952ba7f163c4a11628f55a4df523b3ef",
            "0x000000000000000000000000c77f7fed3b5cc8249adc428c5f44c9063b9734b4",
            "0x0000000000000000000000000000000000000000000000000000000000000000"
          ],
          "data": "0x000000000000000000000000000000000000000000000000000002a2dfe2bcdc",
          "blockHash": "0xd051ae133e69c778eae85b2870651e05e1f666ceac7de6a5edd4bd778b136d2a",
          "blockNumber": "0x7316dc",
          "transactionHash": "0xece4fb8f5ae23cf7b82cebcac9afc6d35a492fbda08e9061892c7f3b7937c00f",
          "transactionIndex": "0x6c",
          "logIndex": "0x91",
          "removed": false
        },
        {
          "address": "0x8aafd3ede9adb0ff97c7aebce82a919afb1c8764",
          "topics": [
            "0xddf252ad1be2c89b69c2b068fc378daa952ba7f163c4a11628f55a4df523b3ef",
            "0x000000000000000000000000c77f7fed3b5cc8249adc428c5f44c9063b9734b4",
            "0x000000000000000000000000c77f7fed3b5cc8249adc428c5f44c9063b9734b4"
          ],
          "data": "0x00000000000000000000000000000000000000000000000000000005714a162b",
          "blockHash": "0xd051ae133e69c778eae85b2870651e05e1f666ceac7de6a5edd4bd778b136d2a",
          "blockNumber": "0x7316dc",
          "transactionHash": "0xece4fb8f5ae23cf7b82cebcac9afc6d35a492fbda08e9061892c7f3b7937c00f",
          "transactionIndex": "0x6c",
          "logIndex": "0x92",
          "removed": false
        },
        {
          "address": "0x8aafd3ede9adb0ff97c7aebce82a919afb1c8764",
          "topics": [
            "0x4afcb4a87cdbd9974efdb92ee48bc8d7cd0ae4bf217004db3d080cbaee652ca7"
          ],
          "data": "0x0000000000000000000000000000000000000000000000000000000067900f080000000000000000000000000000000000000000000000000004f378090edff600000000000000000000000000000000000000000000000000000000f2b5e03d",
          "blockHash": "0xd051ae133e69c778eae85b2870651e05e1f666ceac7de6a5edd4bd778b136d2a",
          "blockNumber": "0x7316dc",
          "transactionHash": "0xece4fb8f5ae23cf7b82cebcac9afc6d35a492fbda08e9061892c7f3b7937c00f",
          "transactionIndex": "0x6c",
          "logIndex": "0x93",
          "removed": false
        }
      ],
      "logsBloom": "0x00000000000000000000000000000000000000000600000000000000000000000000000000000000000000000000000000000000000000004000000000000000000000000000004000000008000000000000000000000000000000000000000000000000020000000000000000000800020000000000000000000010000000000000000000000000000000000000000000000000000000000000010000000000000000000000000000000000000000004000000000000000000000000000000000000002000000800000000000000000000000000000080000000000000020000000000000000000000000000000000000000000000000000000000000000000",
      "type": "0x2",
      "transactionHash": "0xece4fb8f5ae23cf7b82cebcac9afc6d35a492fbda08e9061892c7f3b7937c00f",
      "transactionIndex": "0x6c",
      "blockHash": "0xd051ae133e69c778eae85b2870651e05e1f666ceac7de6a5edd4bd778b136d2a",
      "blockNumber": "0x7316dc",
      "gasUsed": "0xfd27",
      "effectiveGasPrice": "0x3dd39a87",
      "from": "0xc77f7fed3b5cc8249adc428c5f44c9063b9734b4",
      "to": "0x8aafd3ede9adb0ff97c7aebce82a919afb1c8764",
      "contractAddress": null
    }
  ],
  "libraries": [],
  "pending": [],
  "returns": {},
  "timestamp": 1737494281,
  "chain": 11155111,
  "commit": "1d2fb70"
}