{
  "transactions": [
    {
      "hash": "0xda6a41c347144edcfa49b81b5eaf9b6a09770601d85e7bbc8ca27bac9ab6b252",
      "transactionType": "CALL",
      "contractName": null,
      "contractAddress": "0x270e88f8683660553e8ba4eb2ad7c91a1710d769",
      "function": "sell(uint256)",
      "arguments": [
        "956097356544236348439"
      ],
      "transaction": {
        "from": "0xc77f7fed3b5cc8249adc428c5f44c9063b9734b4",
        "to": "0x270e88f8683660553e8ba4eb2ad7c91a1710d769",
        "gas": "0x16fec",
        "value": "0x0",
        "input": "0xe4849b32000000000000000000000000000000000000000000000033d4842827f5346417",
        "nonce": "0x5c5",
        "chainId": "0xaa36a7"
      },
      "additionalContracts": [],
      "isFixedGasLimit": false
    }
  ],
  "receipts": [
    {
      "status": "0x1",
      "cumulativeGasUsed": "0x6d6322",
      "logs": [
        {
          "address": "0x270e88f8683660553e8ba4eb2ad7c91a1710d769",
          "topics": [
            "0xddf252ad1be2c89b69c2b068fc378daa952ba7f163c4a11628f55a4df523b3ef",
            "0x000000000000000000000000c77f7fed3b5cc8249adc428c5f44c9063b9734b4",
            "0x0000000000000000000000000000000000000000000000000000000000000000"
          ],
          "data": "0x000000000000000000000000000000000000000000000033d4842827f5346417",
          "blockHash": "0x307dfdcb5ed5f7de3bb60408bce213eb6971e72af5e0d520b6a132dbfaab52a2",
          "blockNumber": "0x725284",
          "transactionHash": "0xda6a41c347144edcfa49b81b5eaf9b6a09770601d85e7bbc8ca27bac9ab6b252",
          "transactionIndex": "0x45",
          "logIndex": "0x80",
          "removed": false
        },
        {
          "address": "0x270e88f8683660553e8ba4eb2ad7c91a1710d769",
          "topics": [
            "0x4afcb4a87cdbd9974efdb92ee48bc8d7cd0ae4bf217004db3d080cbaee652ca7"
          ],
          "data": "0x000000000000000000000000000000000000000000000000000000006786d0200000000000000000000000000000000000000000000000000003b0e4e006f5440000000000000000000000000000000000000000000000000dc83ec909fe0ff6",
          "blockHash": "0x307dfdcb5ed5f7de3bb60408bce213eb6971e72af5e0d520b6a132dbfaab52a2",
          "blockNumber": "0x725284",
          "transactionHash": "0xda6a41c347144edcfa49b81b5eaf9b6a09770601d85e7bbc8ca27bac9ab6b252",
          "transactionIndex": "0x45",
          "logIndex": "0x81",
          "removed": false
        }
      ],
      "logsBloom": "0x00000000000000000000000000000000000000000000000000000000000000000000000000000000000000000000000020000000000000004000000000000000000000000000000000000008000000000000000000000000000000000000000000000000020000000000000000000800020000000000000000000010000000000000000000010000000000000000000000000000000000000000010000000000000000000000000000000000000000004000000000000000000000000000000000000002000000800000000000000000000000000000080000008000000020000000000000000000000000000000000000000000000000000000000000000000",
      "type": "0x2",
      "transactionHash": "0xda6a41c347144edcfa49b81b5eaf9b6a09770601d85e7bbc8ca27bac9ab6b252",
      "transactionIndex": "0x45",
      "blockHash": "0x307dfdcb5ed5f7de3bb60408bce213eb6971e72af5e0d520b6a132dbfaab52a2",
      "blockNumber": "0x725284",
      "gasUsed": "0xfb93",
      "effectiveGasPrice": "0x43c5dd582",
      "from": "0xc77f7fed3b5cc8249adc428c5f44c9063b9734b4",
      "to": "0x270e88f8683660553e8ba4eb2ad7c91a1710d769",
      "contractAddress": null
    }
  ],
  "libraries": [],
  "pending": [],
  "returns": {},
  "timestamp": 1736888354,
  "chain": 11155111,
  "commit": "51a374b"
}