{
  "transactions": [
    {
      "hash": "0xf8252ce88bd0178f2e53231e9ce3d1063c512366a87b7793a57a2df90189241b",
      "transactionType": "CALL",
      "contractName": null,
      "contractAddress": "0xbf4a322f1496e5c3d34a9bcdb4c60567b38c7de2",
      "function": "sell(uint256)",
      "arguments": [
        "978350594642720440543"
      ],
      "transaction": {
        "from": "0xc77f7fed3b5cc8249adc428c5f44c9063b9734b4",
        "to": "0xbf4a322f1496e5c3d34a9bcdb4c60567b38c7de2",
        "gas": "0x16fea",
        "value": "0x0",
        "input": "0xe4849b3200000000000000000000000000000000000000000000003509578a4dcf89c0df",
        "nonce": "0xc93",
        "chainId": "0xaa36a7"
      },
      "additionalContracts": [],
      "isFixedGasLimit": false
    }
  ],
  "receipts": [
    {
      "status": "0x1",
      "cumulativeGasUsed": "0x712bd6",
      "logs": [
        {
          "address": "0xbf4a322f1496e5c3d34a9bcdb4c60567b38c7de2",
          "topics": [
            "0xddf252ad1be2c89b69c2b068fc378daa952ba7f163c4a11628f55a4df523b3ef",
            "0x000000000000000000000000c77f7fed3b5cc8249adc428c5f44c9063b9734b4",
            "0x0000000000000000000000000000000000000000000000000000000000000000"
          ],
          "data": "0x00000000000000000000000000000000000000000000003509578a4dcf89c0df",
          "blockHash": "0xf55a19c2df327256fd0a828bb4b30fa1279deb6d45d1556e27485358f7bfb416",
          "blockNumber": "0x725cda",
          "transactionHash": "0xf8252ce88bd0178f2e53231e9ce3d1063c512366a87b7793a57a2df90189241b",
          "transactionIndex": "0x48",
          "logIndex": "0x6d",
          "removed": false
        },
        {
          "address": "0xbf4a322f1496e5c3d34a9bcdb4c60567b38c7de2",
          "topics": [
            "0x4afcb4a87cdbd9974efdb92ee48bc8d7cd0ae4bf217004db3d080cbaee652ca7"
          ],
          "data": "0x0000000000000000000000000000000000000000000000000000000067874cac00000000000000000000000000000000000000000000000000039b2421370e0f0000000000000000000000000000000000000000000000000dc7e3de3b3c71a7",
          "blockHash": "0xf55a19c2df327256fd0a828bb4b30fa1279deb6d45d1556e27485358f7bfb416",
          "blockNumber": "0x725cda",
          "transactionHash": "0xf8252ce88bd0178f2e53231e9ce3d1063c512366a87b7793a57a2df90189241b",
          "transactionIndex": "0x48",
          "logIndex": "0x6e",
          "removed": false
        }
      ],
      "logsBloom": "0x00000000000000000000000000000000000000000000000000000000000000000000000000000000000000000000000000000000000000004000000000000000000000000000000000000008000000000000001000000000000000000000000000000000020000000000000000000800020000000000000000000010000000000000000000000000000000000000000000000000000008000000010000000000000000000000000000000000000000004000000000000000000000000000000000000002000000800000000000001000000000000000080000000000000020000000000000000000000000000000000000000000000000000000000000000000",
      "type": "0x2",
      "transactionHash": "0xf8252ce88bd0178f2e53231e9ce3d1063c512366a87b7793a57a2df90189241b",
      "transactionIndex": "0x48",
      "blockHash": "0xf55a19c2df327256fd0a828bb4b30fa1279deb6d45d1556e27485358f7bfb416",
      "blockNumber": "0x725cda",
      "gasUsed": "0xfb91",
      "effectiveGasPrice": "0x2732c351b",
      "from": "0xc77f7fed3b5cc8249adc428c5f44c9063b9734b4",
      "to": "0xbf4a322f1496e5c3d34a9bcdb4c60567b38c7de2",
      "contractAddress": null
    }
  ],
  "libraries": [],
  "pending": [],
  "returns": {},
  "timestamp": 1736920238,
  "chain": 11155111,
  "commit": "51a374b"
}