{
  "transactions": [
    {
      "hash": "0x66008876706f7d171f5cb70b758ef3ced35f7bce11664fb6871a504b111f5d73",
      "transactionType": "CALL",
      "contractName": null,
      "contractAddress": "0x8aafd3ede9adb0ff97c7aebce82a919afb1c8764",
      "function": "sell(uint256)",
      "arguments": [
        "11968"
      ],
      "transaction": {
        "from": "0xc77f7fed3b5cc8249adc428c5f44c9063b9734b4",
        "to": "0x8aafd3ede9adb0ff97c7aebce82a919afb1c8764",
        "gas": "0x14e4c",
        "value": "0x0",
        "input": "0xe4849b320000000000000000000000000000000000000000000000000000000000002ec0",
        "nonce": "0x105d",
        "chainId": "0xaa36a7"
      },
      "additionalContracts": [],
      "isFixedGasLimit": false
    }
  ],
  "receipts": [
    {
      "status": "0x1",
      "cumulativeGasUsed": "0x10162db",
      "logs": [
        {
          "address": "0x8aafd3ede9adb0ff97c7aebce82a919afb1c8764",
          "topics": [
            "0xddf252ad1be2c89b69c2b068fc378daa952ba7f163c4a11628f55a4df523b3ef",
            "0x000000000000000000000000c77f7fed3b5cc8249adc428c5f44c9063b9734b4",
            "0x0000000000000000000000000000000000000000000000000000000000000000"
          ],
          "data": "0x0000000000000000000000000000000000000000000000000000000000002e61",
          "blockHash": "0xcb8f976023fafc33a0ab09e913c139c9e7c22232135d40d7a4f3ecea5c1e142f",
          "blockNumber": "0x7316e3",
          "transactionHash": "0x66008876706f7d171f5cb70b758ef3ced35f7bce11664fb6871a504b111f5d73",
          "transactionIndex": "0x8d",
          "logIndex": "0xd0",
          "removed": false
        },
        {
          "address": "0x8aafd3ede9adb0ff97c7aebce82a919afb1c8764",
          "topics": [
            "0xddf252ad1be2c89b69c2b068fc378daa952ba7f163c4a11628f55a4df523b3ef",
            "0x000000000000000000000000c77f7fed3b5cc8249adc428c5f44c9063b9734b4",
            "0x000000000000000000000000c77f7fed3b5cc8249adc428c5f44c9063b9734b4"
          ],
          "data": "0x000000000000000000000000000000000000000000000000000000000000005f",
          "blockHash": "0xcb8f976023fafc33a0ab09e913c139c9e7c22232135d40d7a4f3ecea5c1e142f",
          "blockNumber": "0x7316e3",
          "transactionHash": "0x66008876706f7d171f5cb70b758ef3ced35f7bce11664fb6871a504b111f5d73",
          "transactionIndex": "0x8d",
          "logIndex": "0xd1",
          "removed": false
        },
        {
          "address": "0x8aafd3ede9adb0ff97c7aebce82a919afb1c8764",
          "topics": [
            "0x4afcb4a87cdbd9974efdb92ee48bc8d7cd0ae4bf217004db3d080cbaee652ca7"
          ],
          "data": "0x0000000000000000000000000000000000000000000000000000000067900f5c0000000000000000000000000000000000000000000000000004f378090ee01c0000000000000000000000000000000000000000000000000000000000000010",
          "blockHash": "0xcb8f976023fafc33a0ab09e913c139c9e7c22232135d40d7a4f3ecea5c1e142f",
          "blockNumber": "0x7316e3",
          "transactionHash": "0x66008876706f7d171f5cb70b758ef3ced35f7bce11664fb6871a504b111f5d73",
          "transactionIndex": "0x8d",
          "logIndex": "0xd2",
          "removed": false
        }
      ],
      "logsBloom": "0x00000000000000000000000000000000000000000600000000000000000000000000000000000000000000000000000000000000000000004000000000000000000000000000004000000008000000000000000000000000000000000000000000000000020000000000000000000800020000000000000000000010000000000000000000000000000000000000000000000000000000000000010000000000000000000000000000000000000000004000000000000000000000000000000000000002000000800000000000000000000000000000080000000000000020000000000000000000000000000000000000000000000000000000000000000000",
      "type": "0x2",
      "transactionHash": "0x66008876706f7d171f5cb70b758ef3ced35f7bce11664fb6871a504b111f5d73",
      "transactionIndex": "0x8d",
      "blockHash": "0xcb8f976023fafc33a0ab09e913c139c9e7c22232135d40d7a4f3ecea5c1e142f",
      "blockNumber": "0x7316e3",
      "gasUsed": "0xf207",
      "effectiveGasPrice": "0x3da93af8",
      "from": "0xc77f7fed3b5cc8249adc428c5f44c9063b9734b4",
      "to": "0x8aafd3ede9adb0ff97c7aebce82a919afb1c8764",
      "contractAddress": null
    }
  ],
  "libraries": [],
  "pending": [],
  "returns": {},
  "timestamp": 1737494366,
  "chain": 11155111,
  "commit": "1d2fb70"
}