{
  "transactions": [
    {
      "hash": "0x116c320617de0d6782982ed33c10b7b9ff287bf033774aa2e5ac1297389726b9",
      "transactionType": "CALL",
      "contractName": null,
      "contractAddress": "0x8aafd3ede9adb0ff97c7aebce82a919afb1c8764",
      "function": "sell(uint256)",
      "arguments": [
        "703677648242574020180"
      ],
      "transaction": {
        "from": "0xc77f7fed3b5cc8249adc428c5f44c9063b9734b4",
        "to": "0x8aafd3ede9adb0ff97c7aebce82a919afb1c8764",
        "gas": "0x17270",
        "value": "0x0",
        "input": "0xe4849b32000000000000000000000000000000000000000000000026257d34d528e6ce54",
        "nonce": "0x10cd",
        "chainId": "0xaa36a7"
      },
      "additionalContracts": [],
      "isFixedGasLimit": false
    }
  ],
  "receipts": [
    {
      "status": "0x1",
      "cumulativeGasUsed": "0x7ac4fc",
      "logs": [
        {
          "address": "0x8aafd3ede9adb0ff97c7aebce82a919afb1c8764",
          "topics": [
            "0xddf252ad1be2c89b69c2b068fc378daa952ba7f163c4a11628f55a4df523b3ef",
            "0x000000000000000000000000c77f7fed3b5cc8249adc428c5f44c9063b9734b4",
            "0x0000000000000000000000000000000000000000000000000000000000000000"
          ],
          "data": "0x000000000000000000000000000000000000000000000025d75d7c1709dab833",
          "blockHash": "0x516c5faf9684ece6894a233017a6a8245e7a90d8edcd376df0b4deacc48f6e46",
          "blockNumber": "0x73176a",
          "transactionHash": "0x116c320617de0d6782982ed33c10b7b9ff287bf033774aa2e5ac1297389726b9",
          "transactionIndex": "0x51",
          "logIndex": "0x86",
          "removed": false
        },
        {
          "address": "0x8aafd3ede9adb0ff97c7aebce82a919afb1c8764",
          "topics": [
            "0xddf252ad1be2c89b69c2b068fc378daa952ba7f163c4a11628f55a4df523b3ef",
            "0x000000000000000000000000c77f7fed3b5cc8249adc428c5f44c9063b9734b4",
            "0x000000000000000000000000c77f7fed3b5cc8249adc428c5f44c9063b9734b4"
          ],
          "data": "0x0000000000000000000000000000000000000000000000004e1fb8be1f0c1621",
          "blockHash": "0x516c5faf9684ece6894a233017a6a8245e7a90d8edcd376df0b4deacc48f6e46",
          "blockNumber": "0x73176a",
          "transactionHash": "0x116c320617de0d6782982ed33c10b7b9ff287bf033774aa2e5ac1297389726b9",
          "transactionIndex": "0x51",
          "logIndex": "0x87",
          "removed": false
        },
        {
          "address": "0x8aafd3ede9adb0ff97c7aebce82a919afb1c8764",
          "topics": [
            "0x4afcb4a87cdbd9974efdb92ee48bc8d7cd0ae4bf217004db3d080cbaee652ca7"
          ],
          "data": "0x00000000000000000000000000000000000000000000000000000000679015bc000000000000000000000000000000000000000000000000000504e36350c7fd0000000000000000000000000000000000000000000000000dc8fb16ed488421",
          "blockHash": "0x516c5faf9684ece6894a233017a6a8245e7a90d8edcd376df0b4deacc48f6e46",
          "blockNumber": "0x73176a",
          "transactionHash": "0x116c320617de0d6782982ed33c10b7b9ff287bf033774aa2e5ac1297389726b9",
          "transactionIndex": "0x51",
          "logIndex": "0x88",
          "removed": false
        }
      ],
      "logsBloom": "0x00000000000000000000000000000000000000000600000000000000000000000000000000000000000000000000000000000000000000004000000000000000000000000000004000000008000000000000000000000000000000000000000000000000020000000000000000000800020000000000000000000010000000000000000000000000000000000000000000000000000000000000010000000000000000000000000000000000000000004000000000000000000000000000000000000002000000800000000000000000000000000000080000000000000020000000000000000000000000000000000000000000000000000000000000000000",
      "type": "0x2",
      "transactionHash": "0x116c320617de0d6782982ed33c10b7b9ff287bf033774aa2e5ac1297389726b9",
      "transactionIndex": "0x51",
      "blockHash": "0x516c5faf9684ece6894a233017a6a8245e7a90d8edcd376df0b4deacc48f6e46",
      "blockNumber": "0x73176a",
      "gasUsed": "0xfd4b",
      "effectiveGasPrice": "0x45654b15",
      "from": "0xc77f7fed3b5cc8249adc428c5f44c9063b9734b4",
      "to": "0x8aafd3ede9adb0ff97c7aebce82a919afb1c8764",
      "contractAddress": null
    }
  ],
  "libraries": [],
  "pending": [],
  "returns": {},
  "timestamp": 1737495997,
  "chain": 11155111,
  "commit": "1d2fb70"
}