{
  "transactions": [
    {
      "hash": "0x72d9b3fd3cbae9555db735fb89e8ee30548c6d5406c842b254e1d9446eb7ccf3",
      "transactionType": "CALL",
      "contractName": null,
      "contractAddress": "0x270e88f8683660553e8ba4eb2ad7c91a1710d769",
      "function": "buy(address)",
      "arguments": [
        "0xC77f7fed3b5Cc8249aDc428c5F44C9063B9734b4"
      ],
      "transaction": {
        "from": "0xc77f7fed3b5cc8249adc428c5f44c9063b9734b4",
        "to": "0x270e88f8683660553e8ba4eb2ad7c91a1710d769",
        "gas": "0x1b30c",
        "value": "0xde0b6b3a7640000",
        "input": "0xf088d547000000000000000000000000c77f7fed3b5cc8249adc428c5f44c9063b9734b4",
        "nonce": "0x5b8",
        "chainId": "0xaa36a7"
      },
      "additionalContracts": [],
      "isFixedGasLimit": false
    }
  ],
  "receipts": [
    {
      "status": "0x1",
      "cumulativeGasUsed": "0x14f9a85",
      "logs": [
        {
          "address": "0x270e88f8683660553e8ba4eb2ad7c91a1710d769",
          "topics": [
            "0xddf252ad1be2c89b69c2b068fc378daa952ba7f163c4a11628f55a4df523b3ef",
            "0x0000000000000000000000000000000000000000000000000000000000000000",
            "0x000000000000000000000000c77f7fed3b5cc8249adc428c5f44c9063b9734b4"
          ],
          "data": "0x000000000000000000000000000000000000000000000033c504e3de2ab4d8f4",
          "blockHash": "0x33d39535239de8140f5a7c4b8402b3e5067707958b22e0d8ddfb9d957747cd28",
          "blockNumber": "0x725275",
          "transactionHash": "0x72d9b3fd3cbae9555db735fb89e8ee30548c6d5406c842b254e1d9446eb7ccf3",
          "transactionIndex": "0xa8",
          "logIndex": "0x11d",
          "removed": false
        },
        {
          "address": "0x270e88f8683660553e8ba4eb2ad7c91a1710d769",
          "topics": [
            "0xddf252ad1be2c89b69c2b068fc378daa952ba7f163c4a11628f55a4df523b3ef",
            "0x0000000000000000000000000000000000000000000000000000000000000000",
            "0x000000000000000000000000c77f7fed3b5cc8249adc428c5f44c9063b9734b4"
          ],
          "data": "0x00000000000000000000000000000000000000000000000028336be04ed6cb59",
          "blockHash": "0x33d39535239de8140f5a7c4b8402b3e5067707958b22e0d8ddfb9d957747cd28",
          "blockNumber": "0x725275",
          "transactionHash": "0x72d9b3fd3cbae9555db735fb89e8ee30548c6d5406c842b254e1d9446eb7ccf3",
          "transactionIndex": "0xa8",
          "logIndex": "0x11e",
          "removed": false
        },
        {
          "address": "0x270e88f8683660553e8ba4eb2ad7c91a1710d769",
          "topics": [
            "0x4afcb4a87cdbd9974efdb92ee48bc8d7cd0ae4bf217004db3d080cbaee652ca7"
          ],
          "data": "0x000000000000000000000000000000000000000000000000000000006786cf6c0000000000000000000000000000000000000000000000000003aef35089a7e20000000000000000000000000000000000000000000000000de0b6b3a7640000",
          "blockHash": "0x33d39535239de8140f5a7c4b8402b3e5067707958b22e0d8ddfb9d957747cd28",
          "blockNumber": "0x725275",
          "transactionHash": "0x72d9b3fd3cbae9555db735fb89e8ee30548c6d5406c842b254e1d9446eb7ccf3",
          "transactionIndex": "0xa8",
          "logIndex": "0x11f",
          "removed": false
        }
      ],
      "logsBloom": "0x00000000000000000000000000000000000000000000000000000000000000000000000000000000000000000000000020000000000000004000000000000000000000000000000000000008000000000000000000000000000000000000000000000000020000000000000000000800020000000000000000000010000000000000000000010000000000000000000000000000000000000000010000000000000000000000000000000000000000004000000000000000000000000000000000000002000000800000000000000000000000000000080000008000000020000000000000000000000000000000000000000000000000000000000000000000",
      "type": "0x2",
      "transactionHash": "0x72d9b3fd3cbae9555db735fb89e8ee30548c6d5406c842b254e1d9446eb7ccf3",
      "transactionIndex": "0xa8",
      "blockHash": "0x33d39535239de8140f5a7c4b8402b3e5067707958b22e0d8ddfb9d957747cd28",
      "blockNumber": "0x725275",
      "gasUsed": "0x13af8",
      "effectiveGasPrice": "0x3ccd1c539",
      "from": "0xc77f7fed3b5cc8249adc428c5f44c9063b9734b4",
      "to": "0x270e88f8683660553e8ba4eb2ad7c91a1710d769",
      "contractAddress": null
    }
  ],
  "libraries": [],
  "pending": [],
  "returns": {},
  "timestamp": 1736888174,
  "chain": 11155111,
  "commit": "51a374b"
}