{
  "transactions": [
    {
      "hash": "0xa954c8d304979f29de63d6c948e1a3153477493fd77cc0d71874dd05e9be1d5e",
      "transactionType": "CALL",
      "contractName": null,
      "contractAddress": "0x8aafd3ede9adb0ff97c7aebce82a919afb1c8764",
      "function": "sell(uint256)",
      "arguments": [
        "334555"
      ],
      "transaction": {
        "from": "0xc77f7fed3b5cc8249adc428c5f44c9063b9734b4",
        "to": "0x8aafd3ede9adb0ff97c7aebce82a919afb1c8764",
        "gas": "0x16208",
        "value": "0x0",
        "input": "0xe4849b320000000000000000000000000000000000000000000000000000000000051adb",
        "nonce": "0x16bf",
        "chainId": "0xaa36a7"
      },
      "additionalContracts": [],
      "isFixedGasLimit": false
    }
  ],
  "receipts": [
    {
      "status": "0x1",
      "cumulativeGasUsed": "0xc3f362",
      "logs": [
        {
          "address": "0x8aafd3ede9adb0ff97c7aebce82a919afb1c8764",
          "topics": [
            "0xddf252ad1be2c89b69c2b068fc378daa952ba7f163c4a11628f55a4df523b3ef",
            "0x000000000000000000000000c77f7fed3b5cc8249adc428c5f44c9063b9734b4",
            "0x0000000000000000000000000000000000000000000000000000000000000000"
          ],
          "data": "0x0000000000000000000000000000000000000000000000000000000000051067",
          "blockHash": "0x2573311e8bd28669044498ab773012a10c1c7bed4f5c8b1009268c86e0f993ed",
          "blockNumber": "0x731e79",
          "transactionHash": "0xa954c8d304979f29de63d6c948e1a3153477493fd77cc0d71874dd05e9be1d5e",
          "transactionIndex": "0x59",
          "logIndex": "0xae",
          "removed": false
        },
        {
          "address": "0x8aafd3ede9adb0ff97c7aebce82a919afb1c8764",
          "topics": [
            "0xddf252ad1be2c89b69c2b068fc378daa952ba7f163c4a11628f55a4df523b3ef",
            "0x000000000000000000000000c77f7fed3b5cc8249adc428c5f44c9063b9734b4",
            "0x000000000000000000000000c77f7fed3b5cc8249adc428c5f44c9063b9734b4"
          ],
          "data": "0x0000000000000000000000000000000000000000000000000000000000000a74",
          "blockHash": "0x2573311e8bd28669044498ab773012a10c1c7bed4f5c8b1009268c86e0f993ed",
          "blockNumber": "0x731e79",
          "transactionHash": "0xa954c8d304979f29de63d6c948e1a3153477493fd77cc0d71874dd05e9be1d5e",
          "transactionIndex": "0x59",
          "logIndex": "0xaf",
          "removed": false
        },
        {
          "address": "0x8aafd3ede9adb0ff97c7aebce82a919afb1c8764",
          "topics": [
            "0x4afcb4a87cdbd9974efdb92ee48bc8d7cd0ae4bf217004db3d080cbaee652ca7"
          ],
          "data": "0x0000000000000000000000000000000000000000000000000000000067906a94000000000000000000000000000000000000000000000000001638227e794968000000000000000000000000000000000000000000000000000000000000082c",
          "blockHash": "0x2573311e8bd28669044498ab773012a10c1c7bed4f5c8b1009268c86e0f993ed",
          "blockNumber": "0x731e79",
          "transactionHash": "0xa954c8d304979f29de63d6c948e1a3153477493fd77cc0d71874dd05e9be1d5e",
          "transactionIndex": "0x59",
          "logIndex": "0xb0",
          "removed": false
        }
      ],
      "logsBloom": "0x00000000000000000000000000000000000000000600000000000000000000000000000000000000000000000000000000000000000000004000000000000000000000000000004000000008000000000000000000000000000000000000000000000000020000000000000000000800020000000000000000000010000000000000000000000000000000000000000000000000000000000000010000000000000000000000000000000000000000004000000000000000000000000000000000000002000000800000000000000000000000000000080000000000000020000000000000000000000000000000000000000000000000000000000000000000",
      "type": "0x2",
      "transactionHash": "0xa954c8d304979f29de63d6c948e1a3153477493fd77cc0d71874dd05e9be1d5e",
      "transactionIndex": "0x59",
      "blockHash": "0x2573311e8bd28669044498ab773012a10c1c7bed4f5c8b1009268c86e0f993ed",
      "blockNumber": "0x731e79",
      "gasUsed": "0xf213",
      "effectiveGasPrice": "0x4516c44d",
      "from": "0xc77f7fed3b5cc8249adc428c5f44c9063b9734b4",
      "to": "0x8aafd3ede9adb0ff97c7aebce82a919afb1c8764",
      "contractAddress": null
    }
  ],
  "libraries": [],
  "pending": [],
  "returns": {},
  "timestamp": 1737517718,
  "chain": 11155111,
  "commit": "1d2fb70"
}