{
  "transactions": [
    {
      "hash": "0x969927b90b091c0ba1ee08d954e38cb77cb113ad69d0fa71ef0f2ac5c8bb53b6",
      "transactionType": "CALL",
      "contractName": null,
      "contractAddress": "0x8aafd3ede9adb0ff97c7aebce82a919afb1c8764",
      "function": "sell(uint256)",
      "arguments": [
        "4711669416"
      ],
      "transaction": {
        "from": "0xc77f7fed3b5cc8249adc428c5f44c9063b9734b4",
        "to": "0x8aafd3ede9adb0ff97c7aebce82a919afb1c8764",
        "gas": "0x1722a",
        "value": "0x0",
        "input": "0xe4849b320000000000000000000000000000000000000000000000000000000118d65ea8",
        "nonce": "0x178c",
        "chainId": "0xaa36a7"
      },
      "additionalContracts": [],
      "isFixedGasLimit": false
    }
  ],
  "receipts": [
    {
      "status": "0x1",
      "cumulativeGasUsed": "0x221971f",
      "logs": [
        {
          "address": "0x8aafd3ede9adb0ff97c7aebce82a919afb1c8764",
          "topics": [
            "0xddf252ad1be2c89b69c2b068fc378daa952ba7f163c4a11628f55a4df523b3ef",
            "0x000000000000000000000000c77f7fed3b5cc8249adc428c5f44c9063b9734b4",
            "0x0000000000000000000000000000000000000000000000000000000000000000"
          ],
          "data": "0x00000000000000000000000000000000000000000000000000000001169736fd",
          "blockHash": "0x069a2eabf2e2278408e7e2554d72312ab83c33bc9422c7cde42d66223a5da5e6",
          "blockNumber": "0x731f68",
          "transactionHash": "0x969927b90b091c0ba1ee08d954e38cb77cb113ad69d0fa71ef0f2ac5c8bb53b6",
          "transactionIndex": "0x4d",
          "logIndex": "0x1107",
          "removed": false
        },
        {
          "address": "0x8aafd3ede9adb0ff97c7aebce82a919afb1c8764",
          "topics": [
            "0xddf252ad1be2c89b69c2b068fc378daa952ba7f163c4a11628f55a4df523b3ef",
            "0x000000000000000000000000c77f7fed3b5cc8249adc428c5f44c9063b9734b4",
            "0x000000000000000000000000c77f7fed3b5cc8249adc428c5f44c9063b9734b4"
          ],
          "data": "0x00000000000000000000000000000000000000000000000000000000023f27ab",
          "blockHash": "0x069a2eabf2e2278408e7e2554d72312ab83c33bc9422c7cde42d66223a5da5e6",
          "blockNumber": "0x731f68",
          "transactionHash": "0x969927b90b091c0ba1ee08d954e38cb77cb113ad69d0fa71ef0f2ac5c8bb53b6",
          "transactionIndex": "0x4d",
          "logIndex": "0x1108",
          "removed": false
        },
        {
          "address": "0x8aafd3ede9adb0ff97c7aebce82a919afb1c8764",
          "topics": [
            "0x4afcb4a87cdbd9974efdb92ee48bc8d7cd0ae4bf217004db3d080cbaee652ca7"
          ],
          "data": "0x00000000000000000000000000000000000000000000000000000000679075c80000000000000000000000000000000000000000000000000018a3f62e20b3b40000000000000000000000000000000000000000000000000000000001f2a2da",
          "blockHash": "0x069a2eabf2e2278408e7e2554d72312ab83c33bc9422c7cde42d66223a5da5e6",
          "blockNumber": "0x731f68",
          "transactionHash": "0x969927b90b091c0ba1ee08d954e38cb77cb113ad69d0fa71ef0f2ac5c8bb53b6",
          "transactionIndex": "0x4d",
          "logIndex": "0x1109",
          "removed": false
        }
      ],
      "logsBloom": "0x00000000000000000000000000000000000000000600000000000000000000000000000000000000000000000000000000000000000000004000000000000000000000000000004000000008000000000000000000000000000000000000000000000000020000000000000000000800020000000000000000000010000000000000000000000000000000000000000000000000000000000000010000000000000000000000000000000000000000004000000000000000000000000000000000000002000000800000000000000000000000000000080000000000000020000000000000000000000000000000000000000000000000000000000000000000",
      "type": "0x2",
      "transactionHash": "0x969927b90b091c0ba1ee08d954e38cb77cb113ad69d0fa71ef0f2ac5c8bb53b6",
      "transactionIndex": "0x4d",
      "blockHash": "0x069a2eabf2e2278408e7e2554d72312ab83c33bc9422c7cde42d66223a5da5e6",
      "blockNumber": "0x731f68",
      "gasUsed": "0xfd1b",
      "effectiveGasPrice": "0x435ec72c",
      "from": "0xc77f7fed3b5cc8249adc428c5f44c9063b9734b4",
      "to": "0x8aafd3ede9adb0ff97c7aebce82a919afb1c8764",
      "contractAddress": null
    }
  ],
  "libraries": [],
  "pending": [],
  "returns": {},
  "timestamp": 1737520586,
  "chain": 11155111,
  "commit": "1d2fb70"
}