{
  "transactions": [
    {
      "hash": "0x86d60d470a2fc992a97d6701ff8b55b43fae5f61011624714479ab3cf879da10",
      "transactionType": "CALL",
      "contractName": null,
      "contractAddress": "0x8aafd3ede9adb0ff97c7aebce82a919afb1c8764",
      "function": "sell(uint256)",
      "arguments": [
        "899344461988"
      ],
      "transaction": {
        "from": "0xc77f7fed3b5cc8249adc428c5f44c9063b9734b4",
        "to": "0x8aafd3ede9adb0ff97c7aebce82a919afb1c8764",
        "gas": "0x1722a",
        "value": "0x0",
        "input": "0xe4849b32000000000000000000000000000000000000000000000000000000d1651b70a4",
        "nonce": "0x14b2",
        "chainId": "0xaa36a7"
      },
      "additionalContracts": [],
      "isFixedGasLimit": false
    }
  ],
  "receipts": [
    {
      "status": "0x1",
      "cumulativeGasUsed": "0x692bb5",
      "logs": [
        {
          "address": "0x8aafd3ede9adb0ff97c7aebce82a919afb1c8764",
          "topics": [
            "0xddf252ad1be2c89b69c2b068fc378daa952ba7f163c4a11628f55a4df523b3ef",
            "0x000000000000000000000000c77f7fed3b5cc8249adc428c5f44c9063b9734b4",
            "0x0000000000000000000000000000000000000000000000000000000000000000"
          ],
          "data": "0x000000000000000000000000000000000000000000000000000000cfb8442e35",
          "blockHash": "0x4ab39b7e6561089ce2231f631455c81a29b49325d7c2ba4862a1e8d91187190c",
          "blockNumber": "0x731c09",
          "transactionHash": "0x86d60d470a2fc992a97d6701ff8b55b43fae5f61011624714479ab3cf879da10",
          "transactionIndex": "0x59",
          "logIndex": "0x64",
          "removed": false
        },
        {
          "address": "0x8aafd3ede9adb0ff97c7aebce82a919afb1c8764",
          "topics": [
            "0xddf252ad1be2c89b69c2b068fc378daa952ba7f163c4a11628f55a4df523b3ef",
            "0x000000000000000000000000c77f7fed3b5cc8249adc428c5f44c9063b9734b4",
            "0x000000000000000000000000c77f7fed3b5cc8249adc428c5f44c9063b9734b4"
          ],
          "data": "0x00000000000000000000000000000000000000000000000000000001acd7426f",
          "blockHash": "0x4ab39b7e6561089ce2231f631455c81a29b49325d7c2ba4862a1e8d91187190c",
          "blockNumber": "0x731c09",
          "transactionHash": "0x86d60d470a2fc992a97d6701ff8b55b43fae5f61011624714479ab3cf879da10",
          "transactionIndex": "0x59",
          "logIndex": "0x65",
          "removed": false
        },
        {
          "address": "0x8aafd3ede9adb0ff97c7aebce82a919afb1c8764",
          "topics": [
            "0x4afcb4a87cdbd9974efdb92ee48bc8d7cd0ae4bf217004db3d080cbaee652ca7"
          ],
          "data": "0x0000000000000000000000000000000000000000000000000000000067904d4800000000000000000000000000000000000000000000000000102bb6324805dd00000000000000000000000000000000000000000000000000000000f3fe0654",
          "blockHash": "0x4ab39b7e6561089ce2231f631455c81a29b49325d7c2ba4862a1e8d91187190c",
          "blockNumber": "0x731c09",
          "transactionHash": "0x86d60d470a2fc992a97d6701ff8b55b43fae5f61011624714479ab3cf879da10",
          "transactionIndex": "0x59",
          "logIndex": "0x66",
          "removed": false
        }
      ],
      "logsBloom": "0x00000000000000000000000000000000000000000600000000000000000000000000000000000000000000000000000000000000000000004000000000000000000000000000004000000008000000000000000000000000000000000000000000000000020000000000000000000800020000000000000000000010000000000000000000000000000000000000000000000000000000000000010000000000000000000000000000000000000000004000000000000000000000000000000000000002000000800000000000000000000000000000080000000000000020000000000000000000000000000000000000000000000000000000000000000000",
      "type": "0x2",
      "transactionHash": "0x86d60d470a2fc992a97d6701ff8b55b43fae5f61011624714479ab3cf879da10",
      "transactionIndex": "0x59",
      "blockHash": "0x4ab39b7e6561089ce2231f631455c81a29b49325d7c2ba4862a1e8d91187190c",
      "blockNumber": "0x731c09",
      "gasUsed": "0xfd1b",
      "effectiveGasPrice": "0x11720f1d0",
      "from": "0xc77f7fed3b5cc8249adc428c5f44c9063b9734b4",
      "to": "0x8aafd3ede9adb0ff97c7aebce82a919afb1c8764",
      "contractAddress": null
    }
  ],
  "libraries": [],
  "pending": [],
  "returns": {},
  "timestamp": 1737510219,
  "chain": 11155111,
  "commit": "1d2fb70"
}