{
  "transactions": [
    {
      "hash": "0x729766fe136a10aadd21aee25ac84668bc94bd3376db4bbb71d8f0eda9b8f18d",
      "transactionType": "CALL",
      "contractName": null,
      "contractAddress": "0x8aafd3ede9adb0ff97c7aebce82a919afb1c8764",
      "function": "sell(uint256)",
      "arguments": [
        "54073412"
      ],
      "transaction": {
        "from": "0xc77f7fed3b5cc8249adc428c5f44c9063b9734b4",
        "to": "0x8aafd3ede9adb0ff97c7aebce82a919afb1c8764",
        "gas": "0x15d88",
        "value": "0x0",
        "input": "0xe4849b320000000000000000000000000000000000000000000000000000000003391844",
        "nonce": "0x150e",
        "chainId": "0xaa36a7"
      },
      "additionalContracts": [],
      "isFixedGasLimit": false
    }
  ],
  "receipts": [
    {
      "status": "0x1",
      "cumulativeGasUsed": "0xfb5692",
      "logs": [
        {
          "address": "0x8aafd3ede9adb0ff97c7aebce82a919afb1c8764",
          "topics": [
            "0xddf252ad1be2c89b69c2b068fc378daa952ba7f163c4a11628f55a4df523b3ef",
            "0x000000000000000000000000c77f7fed3b5cc8249adc428c5f44c9063b9734b4",
            "0x0000000000000000000000000000000000000000000000000000000000000000"
          ],
          "data": "0x0000000000000000000000000000000000000000000000000000000003327e79",
          "blockHash": "0xe114278401ec394127602b7c9725367f889080eec8a26c01d1cdb573fea778ad",
          "blockNumber": "0x731c70",
          "transactionHash": "0x729766fe136a10aadd21aee25ac84668bc94bd3376db4bbb71d8f0eda9b8f18d",
          "transactionIndex": "0x81",
          "logIndex": "0xfa",
          "removed": false
        },
        {
          "address": "0x8aafd3ede9adb0ff97c7aebce82a919afb1c8764",
          "topics": [
            "0xddf252ad1be2c89b69c2b068fc378daa952ba7f163c4a11628f55a4df523b3ef",
            "0x000000000000000000000000c77f7fed3b5cc8249adc428c5f44c9063b9734b4",
            "0x000000000000000000000000c77f7fed3b5cc8249adc428c5f44c9063b9734b4"
          ],
          "data": "0x00000000000000000000000000000000000000000000000000000000000699cb",
          "blockHash": "0xe114278401ec394127602b7c9725367f889080eec8a26c01d1cdb573fea778ad",
          "blockNumber": "0x731c70",
          "transactionHash": "0x729766fe136a10aadd21aee25ac84668bc94bd3376db4bbb71d8f0eda9b8f18d",
          "transactionIndex": "0x81",
          "logIndex": "0xfb",
          "removed": false
        },
        {
          "address": "0x8aafd3ede9adb0ff97c7aebce82a919afb1c8764",
          "topics": [
            "0x4afcb4a87cdbd9974efdb92ee48bc8d7cd0ae4bf217004db3d080cbaee652ca7"
          ],
          "data": "0x000000000000000000000000000000000000000000000000000000006790521c000000000000000000000000000000000000000000000000001134de57ecd3c4000000000000000000000000000000000000000000000000000000000003ff00",
          "blockHash": "0xe114278401ec394127602b7c9725367f889080eec8a26c01d1cdb573fea778ad",
          "blockNumber": "0x731c70",
          "transactionHash": "0x729766fe136a10aadd21aee25ac84668bc94bd3376db4bbb71d8f0eda9b8f18d",
          "transactionIndex": "0x81",
          "logIndex": "0xfc",
          "removed": false
        }
      ],
      "logsBloom": "0x00000000000000000000000000000000000000000600000000000000000000000000000000000000000000000000000000000000000000004000000000000000000000000000004000000008000000000000000000000000000000000000000000000000020000000000000000000800020000000000000000000010000000000000000000000000000000000000000000000000000000000000010000000000000000000000000000000000000000004000000000000000000000000000000000000002000000800000000000000000000000000000080000000000000020000000000000000000000000000000000000000000000000000000000000000000",
      "type": "0x2",
      "transactionHash": "0x729766fe136a10aadd21aee25ac84668bc94bd3376db4bbb71d8f0eda9b8f18d",
      "transactionIndex": "0x81",
      "blockHash": "0xe114278401ec394127602b7c9725367f889080eec8a26c01d1cdb573fea778ad",
      "blockNumber": "0x731c70",
      "gasUsed": "0xfd0f",
      "effectiveGasPrice": "0x18a68a5c4",
      "from": "0xc77f7fed3b5cc8249adc428c5f44c9063b9734b4",
      "to": "0x8aafd3ede9adb0ff97c7aebce82a919afb1c8764",
      "contractAddress": null
    }
  ],
  "libraries": [],
  "pending": [],
  "returns": {},
  "timestamp": 1737511453,
  "chain": 11155111,
  "commit": "1d2fb70"
}