{
  "transactions": [
    {
      "hash": "0x8ea7443368622a9c378e50aa3cfcb1513981792189fbc4c56c9ec54e0693b328",
      "transactionType": "CALL",
      "contractName": null,
      "contractAddress": "0x270e88f8683660553e8ba4eb2ad7c91a1710d769",
      "function": "sell(uint256)",
      "arguments": [
        "728564708917657173646"
      ],
      "transaction": {
        "from": "0xc77f7fed3b5cc8249adc428c5f44c9063b9734b4",
        "to": "0x270e88f8683660553e8ba4eb2ad7c91a1710d769",
        "gas": "0x16fec",
        "value": "0x0",
        "input": "0xe4849b320000000000000000000000000000000000000000000000277eddcea8cad37e8e",
        "nonce": "0x7be",
        "chainId": "0xaa36a7"
      },
      "additionalContracts": [],
      "isFixedGasLimit": false
    }
  ],
  "receipts": [
    {
      "status": "0x1",
      "cumulativeGasUsed": "0xdcfd4f",
      "logs": [
        {
          "address": "0x270e88f8683660553e8ba4eb2ad7c91a1710d769",
          "topics": [
            "0xddf252ad1be2c89b69c2b068fc378daa952ba7f163c4a11628f55a4df523b3ef",
            "0x000000000000000000000000c77f7fed3b5cc8249adc428c5f44c9063b9734b4",
            "0x0000000000000000000000000000000000000000000000000000000000000000"
          ],
          "data": "0x0000000000000000000000000000000000000000000000277eddcea8cad37e8e",
          "blockHash": "0xaf497a235599b36f2255859ee32946eacef5fe8153b4ccbe322f5420f1da46b4",
          "blockNumber": "0x7254f6",
          "transactionHash": "0x8ea7443368622a9c378e50aa3cfcb1513981792189fbc4c56c9ec54e0693b328",
          "transactionIndex": "0x5a",
          "logIndex": "0xb4",
          "removed": false
        },
        {
          "address": "0x270e88f8683660553e8ba4eb2ad7c91a1710d769",
          "topics": [
            "0x4afcb4a87cdbd9974efdb92ee48bc8d7cd0ae4bf217004db3d080cbaee652ca7"
          ],
          "data": "0x000000000000000000000000000000000000000000000000000000006786ed900000000000000000000000000000000000000000000000000004d7e55ae908560000000000000000000000000000000000000000000000000dc82750f241b5c4",
          "blockHash": "0xaf497a235599b36f2255859ee32946eacef5fe8153b4ccbe322f5420f1da46b4",
          "blockNumber": "0x7254f6",
          "transactionHash": "0x8ea7443368622a9c378e50aa3cfcb1513981792189fbc4c56c9ec54e0693b328",
          "transactionIndex": "0x5a",
          "logIndex": "0xb5",
          "removed": false
        }
      ],
      "logsBloom": "0x00000000000000000000000000000000000000000000000000000000000000000000000000000000000000000000000020000000000000004000000000000000000000000000000000000008000000000000000000000000000000000000000000000000020000000000000000000800020000000000000000000010000000000000000000010000000000000000000000000000000000000000010000000000000000000000000000000000000000004000000000000000000000000000000000000002000000800000000000000000000000000000080000008000000020000000000000000000000000000000000000000000000000000000000000000000",
      "type": "0x2",
      "transactionHash": "0x8ea7443368622a9c378e50aa3cfcb1513981792189fbc4c56c9ec54e0693b328",
      "transactionIndex": "0x5a",
      "blockHash": "0xaf497a235599b36f2255859ee32946eacef5fe8153b4ccbe322f5420f1da46b4",
      "blockNumber": "0x7254f6",
      "gasUsed": "0xfb93",
      "effectiveGasPrice": "0xc541205c",
      "from": "0xc77f7fed3b5cc8249adc428c5f44c9063b9734b4",
      "to": "0x270e88f8683660553e8ba4eb2ad7c91a1710d769",
      "contractAddress": null
    }
  ],
  "libraries": [],
  "pending": [],
  "returns": {},
  "timestamp": 1736895889,
  "chain": 11155111,
  "commit": "51a374b"
}