{
  "transactions": [
    {
      "hash": "0x6d939139eb9795b5657d84284c84d054d9bf21ba3121ff0de36f70065d68a689",
      "transactionType": "CALL",
      "contractName": null,
      "contractAddress": "0x8aafd3ede9adb0ff97c7aebce82a919afb1c8764",
      "function": "sell(uint256)",
      "arguments": [
        "383248375427556"
      ],
      "transaction": {
        "from": "0xc77f7fed3b5cc8249adc428c5f44c9063b9734b4",
        "to": "0x8aafd3ede9adb0ff97c7aebce82a919afb1c8764",
        "gas": "0x1724d",
        "value": "0x0",
        "input": "0xe4849b3200000000000000000000000000000000000000000000000000015c8ff74731e4",
        "nonce": "0xe95",
        "chainId": "0xaa36a7"
      },
      "additionalContracts": [],
      "isFixedGasLimit": false
    }
  ],
  "receipts": [
    {
      "status": "0x1",
      "cumulativeGasUsed": "0x12d3a3a",
      "logs": [
        {
          "address": "0x8aafd3ede9adb0ff97c7aebce82a919afb1c8764",
          "topics": [
            "0xddf252ad1be2c89b69c2b068fc378daa952ba7f163c4a11628f55a4df523b3ef",
            "0x000000000000000000000000c77f7fed3b5cc8249adc428c5f44c9063b9734b4",
            "0x0000000000000000000000000000000000000000000000000000000000000000"
          ],
          "data": "0x000000000000000000000000000000000000000000000000000159c61c363dc8",
          "blockHash": "0x08b35bcbb77267b9207c5d0d91388c99159c2396c79fdb7d2d3e2f3f156830c1",
          "blockNumber": "0x7313f2",
          "transactionHash": "0x6d939139eb9795b5657d84284c84d054d9bf21ba3121ff0de36f70065d68a689",
          "transactionIndex": "0x91",
          "logIndex": "0x93",
          "removed": false
        },
        {
          "address": "0x8aafd3ede9adb0ff97c7aebce82a919afb1c8764",
          "topics": [
            "0xddf252ad1be2c89b69c2b068fc378daa952ba7f163c4a11628f55a4df523b3ef",
            "0x000000000000000000000000c77f7fed3b5cc8249adc428c5f44c9063b9734b4",
            "0x000000000000000000000000c77f7fed3b5cc8249adc428c5f44c9063b9734b4"
          ],
          "data": "0x000000000000000000000000000000000000000000000000000002c9db10f41c",
          "blockHash": "0x08b35bcbb77267b9207c5d0d91388c99159c2396c79fdb7d2d3e2f3f156830c1",
          "blockNumber": "0x7313f2",
          "transactionHash": "0x6d939139eb9795b5657d84284c84d054d9bf21ba3121ff0de36f70065d68a689",
          "transactionIndex": "0x91",
          "logIndex": "0x94",
          "removed": false
        },
        {
          "address": "0x8aafd3ede9adb0ff97c7aebce82a919afb1c8764",
          "topics": [
            "0x4afcb4a87cdbd9974efdb92ee48bc8d7cd0ae4bf217004db3d080cbaee652ca7"
          ],
          "data": "0x00000000000000000000000000000000000000000000000000000000678fec040000000000000000000000000000000000000000000000000004b6f3b2fef35b000000000000000000000000000000000000000000000000000000766a7cdcb4",
          "blockHash": "0x08b35bcbb77267b9207c5d0d91388c99159c2396c79fdb7d2d3e2f3f156830c1",
          "blockNumber": "0x7313f2",
          "transactionHash": "0x6d939139eb9795b5657d84284c84d054d9bf21ba3121ff0de36f70065d68a689",
          "transactionIndex": "0x91",
          "logIndex": "0x95",
          "removed": false
        }
      ],
      "logsBloom": "0x00000000000000000000000000000000000000000600000000000000000000000000000000000000000000000000000000000000000000004000000000000000000000000000004000000008000000000000000000000000000000000000000000000000020000000000000000000800020000000000000000000010000000000000000000000000000000000000000000000000000000000000010000000000000000000000000000000000000000004000000000000000000000000000000000000002000000800000000000000000000000000000080000000000000020000000000000000000000000000000000000000000000000000000000000000000",
      "type": "0x2",
      "transactionHash": "0x6d939139eb9795b5657d84284c84d054d9bf21ba3121ff0de36f70065d68a689",
      "transactionIndex": "0x91",
      "blockHash": "0x08b35bcbb77267b9207c5d0d91388c99159c2396c79fdb7d2d3e2f3f156830c1",
      "blockNumber": "0x7313f2",
      "gasUsed": "0xfd33",
      "effectiveGasPrice": "0x891d84ac",
      "from": "0xc77f7fed3b5cc8249adc428c5f44c9063b9734b4",
      "to": "0x8aafd3ede9adb0ff97c7aebce82a919afb1c8764",
      "contractAddress": null
    }
  ],
  "libraries": [],
  "pending": [],
  "returns": {},
  "timestamp": 1737485317,
  "chain": 11155111,
  "commit": "51a374b"
}