{
  "transactions": [
    {
      "hash": "0xc70c78ce7a0bc5a12dab6bff391109f25e3a2d164c1c4eef4e35776f47e1a4bf",
      "transactionType": "CALL",
      "contractName": null,
      "contractAddress": "0xbf4a322f1496e5c3d34a9bcdb4c60567b38c7de2",
      "function": "sell(uint256)",
      "arguments": [
        "978966526846221803224"
      ],
      "transaction": {
        "from": "0xc77f7fed3b5cc8249adc428c5f44c9063b9734b4",
        "to": "0xbf4a322f1496e5c3d34a9bcdb4c60567b38c7de2",
        "gas": "0x16fea",
        "value": "0x0",
        "input": "0xe4849b3200000000000000000000000000000000000000000000003511e3c56132f5ded8",
        "nonce": "0xc65",
        "chainId": "0xaa36a7"
      },
      "additionalContracts": [],
      "isFixedGasLimit": false
    }
  ],
  "receipts": [
    {
      "status": "0x1",
      "cumulativeGasUsed": "0xc05306",
      "logs": [
        {
          "address": "0xbf4a322f1496e5c3d34a9bcdb4c60567b38c7de2",
          "topics": [
            "0xddf252ad1be2c89b69c2b068fc378daa952ba7f163c4a11628f55a4df523b3ef",
            "0x000000000000000000000000c77f7fed3b5cc8249adc428c5f44c9063b9734b4",
            "0x0000000000000000000000000000000000000000000000000000000000000000"
          ],
          "data": "0x00000000000000000000000000000000000000000000003511e3c56132f5ded8",
          "blockHash": "0xb63c58ad31283ecb39b551b07b4f8b0750cc75ded68cbf23fba0d474dde8cb51",
          "blockNumber": "0x725ca1",
          "transactionHash": "0xc70c78ce7a0bc5a12dab6bff391109f25e3a2d164c1c4eef4e35776f47e1a4bf",
          "transactionIndex": "0x48",
          "logIndex": "0x6a",
          "removed": false
        },
        {
          "address": "0xbf4a322f1496e5c3d34a9bcdb4c60567b38c7de2",
          "topics": [
            "0x4afcb4a87cdbd9974efdb92ee48bc8d7cd0ae4bf217004db3d080cbaee652ca7"
          ],
          "data": "0x0000000000000000000000000000000000000000000000000000000067874a0000000000000000000000000000000000000000000000000000039a8f725f292e0000000000000000000000000000000000000000000000000dc7e3dfa9d86a4c",
          "blockHash": "0xb63c58ad31283ecb39b551b07b4f8b0750cc75ded68cbf23fba0d474dde8cb51",
          "blockNumber": "0x725ca1",
          "transactionHash": "0xc70c78ce7a0bc5a12dab6bff391109f25e3a2d164c1c4eef4e35776f47e1a4bf",
          "transactionIndex": "0x48",
          "logIndex": "0x6b",
          "removed": false
        }
      ],
      "logsBloom": "0x00000000000000000000000000000000000000000000000000000000000000000000000000000000000000000000000000000000000000004000000000000000000000000000000000000008000000000000001000000000000000000000000000000000020000000000000000000800020000000000000000000010000000000000000000000000000000000000000000000000000008000000010000000000000000000000000000000000000000004000000000000000000000000000000000000002000000800000000000001000000000000000080000000000000020000000000000000000000000000000000000000000000000000000000000000000",
      "type": "0x2",
      "transactionHash": "0xc70c78ce7a0bc5a12dab6bff391109f25e3a2d164c1c4eef4e35776f47e1a4bf",
      "transactionIndex": "0x48",
      "blockHash": "0xb63c58ad31283ecb39b551b07b4f8b0750cc75ded68cbf23fba0d474dde8cb51",
      "blockNumber": "0x725ca1",
      "gasUsed": "0xfb91",
      "effectiveGasPrice": "0x246ecf4e6",
      "from": "0xc77f7fed3b5cc8249adc428c5f44c9063b9734b4",
      "to": "0xbf4a322f1496e5c3d34a9bcdb4c60567b38c7de2",
      "contractAddress": null
    }
  ],
  "libraries": [],
  "pending": [],
  "returns": {},
  "timestamp": 1736919553,
  "chain": 11155111,
  "commit": "51a374b"
}