{
  "transactions": [
    {
      "hash": "0x29e51ae50f4b0615ea3571746ef477be7655aedce59c2195f18846d5729bf4f2",
      "transactionType": "CALL",
      "contractName": null,
      "contractAddress": "0xd7bc75898e513accccf720a874d44dab5a4b6223",
      "function": "buy(address)",
      "arguments": [
        "0xC77f7fed3b5Cc8249aDc428c5F44C9063B9734b4"
      ],
      "transaction": {
        "from": "0xc77f7fed3b5cc8249adc428c5f44c9063b9734b4",
        "to": "0xd7bc75898e513accccf720a874d44dab5a4b6223",
        "gas": "0x1b30c",
        "value": "0x16345785d8a0000",
        "input": "0xf088d547000000000000000000000000c77f7fed3b5cc8249adc428c5f44c9063b9734b4",
        "nonce": "0x6d",
        "chainId": "0xaa36a7"
      },
      "additionalContracts": [],
      "isFixedGasLimit": false
    },
    {
      "hash": "0xf90947be7996735e6f20be6f97a8b22d892540672acc9f85aae922cd01a7271c",
      "transactionType": "CALL",
      "contractName": null,
      "contractAddress": "0xd7bc75898e513accccf720a874d44dab5a4b6223",
      "function": "sell(uint256)",
      "arguments": [
        "99300280700083079116"
      ],
      "transaction": {
        "from": "0xc77f7fed3b5cc8249adc428c5f44c9063b9734b4",
        "to": "0xd7bc75898e513accccf720a874d44dab5a4b6223",
        "gas": "0x16fec",
        "value": "0x0",
        "input": "0xe4849b320000000000000000000000000000000000000000000000056211772e690787cc",
        "nonce": "0x6e",
        "chainId": "0xaa36a7"
      },
      "additionalContracts": [],
      "isFixedGasLimit": false
    }
  ],
  "receipts": [
    {
      "status": "0x1",
      "cumulativeGasUsed": "0xde72b0",
      "logs": [
        {
          "address": "0xd7bc75898e513accccf720a874d44dab5a4b6223",
          "topics": [
            "0xddf252ad1be2c89b69c2b068fc378daa952ba7f163c4a11628f55a4df523b3ef",
            "0x0000000000000000000000000000000000000000000000000000000000000000",
            "0x000000000000000000000000c77f7fed3b5cc8249adc428c5f44c9063b9734b4"
          ],
          "data": "0x0000000000000000000000000000000000000000000000055de695b400b52a51",
          "blockHash": "0x0255e1f402b18b28cbe8f5a6951bcde00832762de0fbb6cce95071ec178d269a",
          "blockNumber": "0x72389b",
          "transactionHash": "0x29e51ae50f4b0615ea3571746ef477be7655aedce59c2195f18846d5729bf4f2",
          "transactionIndex": "0x6d",
          "logIndex": "0xb9",
          "removed": false
        },
        {
          "address": "0xd7bc75898e513accccf720a874d44dab5a4b6223",
          "topics": [
            "0xddf252ad1be2c89b69c2b068fc378daa952ba7f163c4a11628f55a4df523b3ef",
            "0x0000000000000000000000000000000000000000000000000000000000000000",
            "0x000000000000000000000000c77f7fed3b5cc8249adc428c5f44c9063b9734b4"
          ],
          "data": "0x000000000000000000000000000000000000000000000000042ae17a68525d7b",
          "blockHash": "0x0255e1f402b18b28cbe8f5a6951bcde00832762de0fbb6cce95071ec178d269a",
          "blockNumber": "0x72389b",
          "transactionHash": "0x29e51ae50f4b0615ea3571746ef477be7655aedce59c2195f18846d5729bf4f2",
          "transactionIndex": "0x6d",
          "logIndex": "0xba",
          "removed": false
        },
        {
          "address": "0xd7bc75898e513accccf720a874d44dab5a4b6223",
          "topics": [
            "0x4afcb4a87cdbd9974efdb92ee48bc8d7cd0ae4bf217004db3d080cbaee652ca7"
          ],
          "data": "0x000000000000000000000000000000000000000000000000000000006785988c00000000000000000000000000000000000000000000000000038d7eb13c45cd000000000000000000000000000000000000000000000000016345785d8a0000",
          "blockHash": "0x0255e1f402b18b28cbe8f5a6951bcde00832762de0fbb6cce95071ec178d269a",
          "blockNumber": "0x72389b",
          "transactionHash": "0x29e51ae50f4b0615ea3571746ef477be7655aedce59c2195f18846d5729bf4f2",
          "transactionIndex": "0x6d",
          "logIndex": "0xbb",
          "removed": false
        }
      ],
      "logsBloom": "0x00000000000000000000000000000000000000000000000000000000000000000000000000000000000000000000000000000000000000004000000000000000000000000000000000000008000000000000000000000000000000000000000000000000020000000000000000000800020000000000000000000010000000000000000000000000000000000000000000000000000000000000010000000000000000000000000000000000000000004000001000000000000000000000000000000002000000800000000000004000000000000000080000000000000020000000000000000000000000000000000000000000080000000000000000000000",
      "type": "0x2",
      "transactionHash": "0x29e51ae50f4b0615ea3571746ef477be7655aedce59c2195f18846d5729bf4f2",
      "transactionIndex": "0x6d",
      "blockHash": "0x0255e1f402b18b28cbe8f5a6951bcde00832762de0fbb6cce95071ec178d269a",
      "blockNumber": "0x72389b",
      "gasUsed": "0x13af8",
      "effectiveGasPrice": "0x21c9411",
      "from": "0xc77f7fed3b5cc8249adc428c5f44c9063b9734b4",
      "to": "0xd7bc75898e513accccf720a874d44dab5a4b6223",
      "contractAddress": null
    },
    {
      "status": "0x1",
      "cumulativeGasUsed": "0xdf6e43",
      "logs": [
        {
          "address": "0xd7bc75898e513accccf720a874d44dab5a4b6223",
          "topics": [
            "0xddf252ad1be2c89b69c2b068fc378daa952ba7f163c4a11628f55a4df523b3ef",
            "0x000000000000000000000000c77f7fed3b5cc8249adc428c5f44c9063b9734b4",
            "0x0000000000000000000000000000000000000000000000000000000000000000"
          ],
          "data": "0x0000000000000000000000000000000000000000000000056211772e690787cc",
          "blockHash": "0x0255e1f402b18b28cbe8f5a6951bcde00832762de0fbb6cce95071ec178d269a",
          "blockNumber": "0x72389b",
          "transactionHash": "0xf90947be7996735e6f20be6f97a8b22d892540672acc9f85aae922cd01a7271c",
          "transactionIndex": "0x6e",
          "logIndex": "0xbc",
          "removed": false
        },
        {
          "address": "0xd7bc75898e513accccf720a874d44dab5a4b6223",
          "topics": [
            "0x4afcb4a87cdbd9974efdb92ee48bc8d7cd0ae4bf217004db3d080cbaee652ca7"
          ],
          "data": "0x000000000000000000000000000000000000000000000000000000006785988c00000000000000000000000000000000000000000000000000038d7eb277f0950000000000000000000000000000000000000000000000000160c9191a82edd5",
          "blockHash": "0x0255e1f402b18b28cbe8f5a6951bcde00832762de0fbb6cce95071ec178d269a",
          "blockNumber": "0x72389b",
          "transactionHash": "0xf90947be7996735e6f20be6f97a8b22d892540672acc9f85aae922cd01a7271c",
          "transactionIndex": "0x6e",
          "logIndex": "0xbd",
          "removed": false
        }
      ],
      "logsBloom": "0x00000000000000000000000000000000000000000000000000000000000000000000000000000000000000000000000000000000000000004000000000000000000000000000000000000008000000000000000000000000000000000000000000000000020000000000000000000800020000000000000000000010000000000000000000000000000000000000000000000000000000000000010000000000000000000000000000000000000000004000001000000000000000000000000000000002000000800000000000004000000000000000080000000000000020000000000000000000000000000000000000000000080000000000000000000000",
      "type": "0x2",
      "transactionHash": "0xf90947be7996735e6f20be6f97a8b22d892540672acc9f85aae922cd01a7271c",
      "transactionIndex": "0x6e",
      "blockHash": "0x0255e1f402b18b28cbe8f5a6951bcde00832762de0fbb6cce95071ec178d269a",
      "blockNumber": "0x72389b",
      "gasUsed": "0xfb93",
      "effectiveGasPrice": "0x21c9411",
      "from": "0xc77f7fed3b5cc8249adc428c5f44c9063b9734b4",
      "to": "0xd7bc75898e513accccf720a874d44dab5a4b6223",
      "contractAddress": null
    }
  ],
  "libraries": [],
  "pending": [],
  "returns": {},
  "timestamp": 1736808590,
  "chain": 11155111,
  "commit": "51a374b"
}