{
  "transactions": [
    {
      "hash": "0xf84ef8f02c5668e11d6beafddc8263cd4df0a71d4971bfc5fc8a92828b1612ef",
      "transactionType": "CALL",
      "contractName": null,
      "contractAddress": "0x270e88f8683660553e8ba4eb2ad7c91a1710d769",
      "function": "sell(uint256)",
      "arguments": [
        "722587635249764703590"
      ],
      "transaction": {
        "from": "0xc77f7fed3b5cc8249adc428c5f44c9063b9734b4",
        "to": "0x270e88f8683660553e8ba4eb2ad7c91a1710d769",
        "gas": "0x16fec",
        "value": "0x0",
        "input": "0xe4849b320000000000000000000000000000000000000000000000272beaf9d387c11d66",
        "nonce": "0x804",
        "chainId": "0xaa36a7"
      },
      "additionalContracts": [],
      "isFixedGasLimit": false
    }
  ],
  "receipts": [
    {
      "status": "0x1",
      "cumulativeGasUsed": "0x47072a",
      "logs": [
        {
          "address": "0x270e88f8683660553e8ba4eb2ad7c91a1710d769",
          "topics": [
            "0xddf252ad1be2c89b69c2b068fc378daa952ba7f163c4a11628f55a4df523b3ef",
            "0x000000000000000000000000c77f7fed3b5cc8249adc428c5f44c9063b9734b4",
            "0x0000000000000000000000000000000000000000000000000000000000000000"
          ],
          "data": "0x0000000000000000000000000000000000000000000000272beaf9d387c11d66",
          "blockHash": "0xa73e9198592437d0e08dbacf0d99f286a5248e4f075466d1e778a6cd5527daf1",
          "blockNumber": "0x725541",
          "transactionHash": "0xf84ef8f02c5668e11d6beafddc8263cd4df0a71d4971bfc5fc8a92828b1612ef",
          "transactionIndex": "0x2f",
          "logIndex": "0x49",
          "removed": false
        },
        {
          "address": "0x270e88f8683660553e8ba4eb2ad7c91a1710d769",
          "topics": [
            "0x4afcb4a87cdbd9974efdb92ee48bc8d7cd0ae4bf217004db3d080cbaee652ca7"
          ],
          "data": "0x000000000000000000000000000000000000000000000000000000006786f1140000000000000000000000000000000000000000000000000004e2264e2f9e930000000000000000000000000000000000000000000000000dc826b28326d2ca",
          "blockHash": "0xa73e9198592437d0e08dbacf0d99f286a5248e4f075466d1e778a6cd5527daf1",
          "blockNumber": "0x725541",
          "transactionHash": "0xf84ef8f02c5668e11d6beafddc8263cd4df0a71d4971bfc5fc8a92828b1612ef",
          "transactionIndex": "0x2f",
          "logIndex": "0x4a",
          "removed": false
        }
      ],
      "logsBloom": "0x00000000000000000000000000000000000000000000000000000000000000000000000000000000000000000000000020000000000000004000000000000000000000000000000000000008000000000000000000000000000000000000000000000000020000000000000000000800020000000000000000000010000000000000000000010000000000000000000000000000000000000000010000000000000000000000000000000000000000004000000000000000000000000000000000000002000000800000000000000000000000000000080000008000000020000000000000000000000000000000000000000000000000000000000000000000",
      "type": "0x2",
      "transactionHash": "0xf84ef8f02c5668e11d6beafddc8263cd4df0a71d4971bfc5fc8a92828b1612ef",
      "transactionIndex": "0x2f",
      "blockHash": "0xa73e9198592437d0e08dbacf0d99f286a5248e4f075466d1e778a6cd5527daf1",
      "blockNumber": "0x725541",
      "gasUsed": "0xfb93",
      "effectiveGasPrice": "0x9b5e2bf7",
      "from": "0xc77f7fed3b5cc8249adc428c5f44c9063b9734b4",
      "to": "0x270e88f8683660553e8ba4eb2ad7c91a1710d769",
      "contractAddress": null
    }
  ],
  "libraries": [],
  "pending": [],
  "returns": {},
  "timestamp": 1736896789,
  "chain": 11155111,
  "commit": "51a374b"
}