{
  "transactions": [
    {
      "hash": "0xa162152368c01bf098e073ac8a710b66a7b2ad63ae44cb35db68e2b08c3ff7f7",
      "transactionType": "CALL",
      "contractName": null,
      "contractAddress": "0x8aafd3ede9adb0ff97c7aebce82a919afb1c8764",
      "function": "sell(uint256)",
      "arguments": [
        "5927877612134790944"
      ],
      "transaction": {
        "from": "0xc77f7fed3b5cc8249adc428c5f44c9063b9734b4",
        "to": "0x8aafd3ede9adb0ff97c7aebce82a919afb1c8764",
        "gas": "0x15dca",
        "value": "0x0",
        "input": "0xe4849b3200000000000000000000000000000000000000000000000052440d47ef48f720",
        "nonce": "0xf9a",
        "chainId": "0xaa36a7"
      },
      "additionalContracts": [],
      "isFixedGasLimit": false
    }
  ],
  "receipts": [
    {
      "status": "0x1",
      "cumulativeGasUsed": "0x149fb9d",
      "logs": [
        {
          "address": "0x8aafd3ede9adb0ff97c7aebce82a919afb1c8764",
          "topics": [
            "0xddf252ad1be2c89b69c2b068fc378daa952ba7f163c4a11628f55a4df523b3ef",
            "0x000000000000000000000000c77f7fed3b5cc8249adc428c5f44c9063b9734b4",
            "0x0000000000000000000000000000000000000000000000000000000000000000"
          ],
          "data": "0x000000000000000000000000000000000000000000000000519b924b7489eae9",
          "blockHash": "0x030d71ea6dab927532ed3c00e5ec26202d2d50a4f9d08e1f5f74360c2be854d4",
          "blockNumber": "0x731600",
          "transactionHash": "0xa162152368c01bf098e073ac8a710b66a7b2ad63ae44cb35db68e2b08c3ff7f7",
          "transactionIndex": "0xa1",
          "logIndex": "0x12e",
          "removed": false
        },
        {
          "address": "0x8aafd3ede9adb0ff97c7aebce82a919afb1c8764",
          "topics": [
            "0xddf252ad1be2c89b69c2b068fc378daa952ba7f163c4a11628f55a4df523b3ef",
            "0x000000000000000000000000c77f7fed3b5cc8249adc428c5f44c9063b9734b4",
            "0x000000000000000000000000c77f7fed3b5cc8249adc428c5f44c9063b9734b4"
          ],
          "data": "0x00000000000000000000000000000000000000000000000000a87afc7abf0c37",
          "blockHash": "0x030d71ea6dab927532ed3c00e5ec26202d2d50a4f9d08e1f5f74360c2be854d4",
          "blockNumber": "0x731600",
          "transactionHash": "0xa162152368c01bf098e073ac8a710b66a7b2ad63ae44cb35db68e2b08c3ff7f7",
          "transactionIndex": "0xa1",
          "logIndex": "0x12f",
          "removed": false
        },
        {
          "address": "0x8aafd3ede9adb0ff97c7aebce82a919afb1c8764",
          "topics": [
            "0x4afcb4a87cdbd9974efdb92ee48bc8d7cd0ae4bf217004db3d080cbaee652ca7"
          ],
          "data": "0x00000000000000000000000000000000000000000000000000000000679004ac0000000000000000000000000000000000000000000000000004c3273e53da90000000000000000000000000000000000000000000000000001c3afb05760bc2",
          "blockHash": "0x030d71ea6dab927532ed3c00e5ec26202d2d50a4f9d08e1f5f74360c2be854d4",
          "blockNumber": "0x731600",
          "transactionHash": "0xa162152368c01bf098e073ac8a710b66a7b2ad63ae44cb35db68e2b08c3ff7f7",
          "transactionIndex": "0xa1",
          "logIndex": "0x130",
          "removed": false
        }
      ],
      "logsBloom": "0x00000000000000000000000000000000000000000600000000000000000000000000000000000000000000000000000000000000000000004000000000000000000000000000004000000008000000000000000000000000000000000000000000000000020000000000000000000800020000000000000000000010000000000000000000000000000000000000000000000000000000000000010000000000000000000000000000000000000000004000000000000000000000000000000000000002000000800000000000000000000000000000080000000000000020000000000000000000000000000000000000000000000000000000000000000000",
      "type": "0x2",
      "transactionHash": "0xa162152368c01bf098e073ac8a710b66a7b2ad63ae44cb35db68e2b08c3ff7f7",
      "transactionIndex": "0xa1",
      "blockHash": "0x030d71ea6dab927532ed3c00e5ec26202d2d50a4f9d08e1f5f74360c2be854d4",
      "blockNumber": "0x731600",
      "gasUsed": "0xfd3f",
      "effectiveGasPrice": "0x63385251",
      "from": "0xc77f7fed3b5cc8249adc428c5f44c9063b9734b4",
      "to": "0x8aafd3ede9adb0ff97c7aebce82a919afb1c8764",
      "contractAddress": null
    }
  ],
  "libraries": [],
  "pending": [],
  "returns": {},
  "timestamp": 1737491630,
  "chain": 11155111,
  "commit": "1d2fb70"
}