{
  "transactions": [
    {
      "hash": "0xc65772266086cb4b4c0bddc5e201b1adb94f070bd6a8524f2505da760d77ba96",
      "transactionType": "CALL",
      "contractName": null,
      "contractAddress": "0x5eb9cc76c3506942c1c0ead70e877dd5e4f00cb0",
      "function": "buy(address)",
      "arguments": [
        "0xC77f7fed3b5Cc8249aDc428c5F44C9063B9734b4"
      ],
      "transaction": {
        "from": "0xc77f7fed3b5cc8249adc428c5f44c9063b9734b4",
        "to": "0x5eb9cc76c3506942c1c0ead70e877dd5e4f00cb0",
        "gas": "0x156c8",
        "value": "0x2386f26fc10000",
        "input": "0xf088d547000000000000000000000000c77f7fed3b5cc8249adc428c5f44c9063b9734b4",
        "nonce": "0x125",
        "chainId": "0xaa36a7"
      },
      "additionalContracts": [],
      "isFixedGasLimit": false
    }
  ],
  "receipts": [
    {
      "status": "0x1",
      "cumulativeGasUsed": "0x8449cc",
      "logs": [
        {
          "address": "0x5eb9cc76c3506942c1c0ead70e877dd5e4f00cb0",
          "topics": [
            "0xddf252ad1be2c89b69c2b068fc378daa952ba7f163c4a11628f55a4df523b3ef",
            "0x0000000000000000000000000000000000000000000000000000000000000000",
            "0x000000000000000000000000c77f7fed3b5cc8249adc428c5f44c9063b9734b4"
          ],
          "data": "0x0000000000000000000000000000000000000000000000008963dd816bd0c8b6",
          "blockHash": "0x5a6131451d626e4426fcb22fe608b641bb08f7b4237139b4dd7b8ebe5c4c3d4c",
          "blockNumber": "0x723b02",
          "transactionHash": "0xc65772266086cb4b4c0bddc5e201b1adb94f070bd6a8524f2505da760d77ba96",
          "transactionIndex": "0x40",
          "logIndex": "0x8c",
          "removed": false
        },
        {
          "address": "0x5eb9cc76c3506942c1c0ead70e877dd5e4f00cb0",
          "topics": [
            "0xddf252ad1be2c89b69c2b068fc378daa952ba7f163c4a11628f55a4df523b3ef",
            "0x0000000000000000000000000000000000000000000000000000000000000000",
            "0x000000000000000000000000c77f7fed3b5cc8249adc428c5f44c9063b9734b4"
          ],
          "data": "0x000000000000000000000000000000000000000000000000006ab027302f518c",
          "blockHash": "0x5a6131451d626e4426fcb22fe608b641bb08f7b4237139b4dd7b8ebe5c4c3d4c",
          "blockNumber": "0x723b02",
          "transactionHash": "0xc65772266086cb4b4c0bddc5e201b1adb94f070bd6a8524f2505da760d77ba96",
          "transactionIndex": "0x40",
          "logIndex": "0x8d",
          "removed": false
        },
        {
          "address": "0x5eb9cc76c3506942c1c0ead70e877dd5e4f00cb0",
          "topics": [
            "0x4afcb4a87cdbd9974efdb92ee48bc8d7cd0ae4bf217004db3d080cbaee652ca7"
          ],
          "data": "0x000000000000000000000000000000000000000000000000000000006785b56c00000000000000000000000000000000000000000000000000038d7ea51f78aa000000000000000000000000000000000000000000000000002386f26fc10000",
          "blockHash": "0x5a6131451d626e4426fcb22fe608b641bb08f7b4237139b4dd7b8ebe5c4c3d4c",
          "blockNumber": "0x723b02",
          "transactionHash": "0xc65772266086cb4b4c0bddc5e201b1adb94f070bd6a8524f2505da760d77ba96",
          "transactionIndex": "0x40",
          "logIndex": "0x8e",
          "removed": false
        }
      ],
      "logsBloom": "0x00000000000000000000000000000000000000000000000000000000000000000000000000000000000000000000000000000000000000004000000000000000000000000000000000000008000000000000000000000000000000000000000000000000020000000000000004000800020000000000000000000010000000000000000000000000000000000000000000000000000000000000010000000000000000000000000000000000000000004000000000000000000000000000020000000002000000800000008000000000000000000000080000000000000020000000000000000000000000000000000000000000000000000000000000000000",
      "type": "0x2",
      "transactionHash": "0xc65772266086cb4b4c0bddc5e201b1adb94f070bd6a8524f2505da760d77ba96",
      "transactionIndex": "0x40",
      "blockHash": "0x5a6131451d626e4426fcb22fe608b641bb08f7b4237139b4dd7b8ebe5c4c3d4c",
      "blockNumber": "0x723b02",
      "gasUsed": "0xf82c",
      "effectiveGasPrice": "0x2688f6f77",
      "from": "0xc77f7fed3b5cc8249adc428c5f44c9063b9734b4",
      "to": "0x5eb9cc76c3506942c1c0ead70e877dd5e4f00cb0",
      "contractAddress": null
    }
  ],
  "libraries": [],
  "pending": [],
  "returns": {},
  "timestamp": 1736815980,
  "chain": 11155111,
  "commit": "51a374b"
}