{
  "transactions": [
    {
      "hash": "0xce6454b2c76911fe79b8c64426411adea56301d112bd61195df1624764d8b0da",
      "transactionType": "CALL",
      "contractName": null,
      "contractAddress": "0x5eb9cc76c3506942c1c0ead70e877dd5e4f00cb0",
      "function": "buy(address)",
      "arguments": [
        "0xC77f7fed3b5Cc8249aDc428c5F44C9063B9734b4"
      ],
      "transaction": {
        "from": "0xc77f7fed3b5cc8249adc428c5f44c9063b9734b4",
        "to": "0x5eb9cc76c3506942c1c0ead70e877dd5e4f00cb0",
        "gas": "0x156c8",
        "value": "0xde0b6b3a7640000",
        "input": "0xf088d547000000000000000000000000c77f7fed3b5cc8249adc428c5f44c9063b9734b4",
        "nonce": "0x211",
        "chainId": "0xaa36a7"
      },
      "additionalContracts": [],
      "isFixedGasLimit": false
    }
  ],
  "receipts": [
    {
      "status": "0x1",
      "cumulativeGasUsed": "0xf55794",
      "logs": [
        {
          "address": "0x5eb9cc76c3506942c1c0ead70e877dd5e4f00cb0",
          "topics": [
            "0xddf252ad1be2c89b69c2b068fc378daa952ba7f163c4a11628f55a4df523b3ef",
            "0x0000000000000000000000000000000000000000000000000000000000000000",
            "0x000000000000000000000000c77f7fed3b5cc8249adc428c5f44c9063b9734b4"
          ],
          "data": "0x00000000000000000000000000000000000000000000003584b614598f70e1df",
          "blockHash": "0x574165a89e05e0288592ce2e8858b7c2f3854af08031490e304d6f25569fdafd",
          "blockNumber": "0x724b2c",
          "transactionHash": "0xce6454b2c76911fe79b8c64426411adea56301d112bd61195df1624764d8b0da",
          "transactionIndex": "0x79",
          "logIndex": "0xd0",
          "removed": false
        },
        {
          "address": "0x5eb9cc76c3506942c1c0ead70e877dd5e4f00cb0",
          "topics": [
            "0xddf252ad1be2c89b69c2b068fc378daa952ba7f163c4a11628f55a4df523b3ef",
            "0x0000000000000000000000000000000000000000000000000000000000000000",
            "0x000000000000000000000000c77f7fed3b5cc8249adc428c5f44c9063b9734b4"
          ],
          "data": "0x000000000000000000000000000000000000000000000000298f11d2312f9831",
          "blockHash": "0x574165a89e05e0288592ce2e8858b7c2f3854af08031490e304d6f25569fdafd",
          "blockNumber": "0x724b2c",
          "transactionHash": "0xce6454b2c76911fe79b8c64426411adea56301d112bd61195df1624764d8b0da",
          "transactionIndex": "0x79",
          "logIndex": "0xd1",
          "removed": false
        },
        {
          "address": "0x5eb9cc76c3506942c1c0ead70e877dd5e4f00cb0",
          "topics": [
            "0x4afcb4a87cdbd9974efdb92ee48bc8d7cd0ae4bf217004db3d080cbaee652ca7"
          ],
          "data": "0x00000000000000000000000000000000000000000000000000000000678677b800000000000000000000000000000000000000000000000000039009854c87a50000000000000000000000000000000000000000000000000de0b6b3a7640000",
          "blockHash": "0x574165a89e05e0288592ce2e8858b7c2f3854af08031490e304d6f25569fdafd",
          "blockNumber": "0x724b2c",
          "transactionHash": "0xce6454b2c76911fe79b8c64426411adea56301d112bd61195df1624764d8b0da",
          "transactionIndex": "0x79",
          "logIndex": "0xd2",
          "removed": false
        }
      ],
      "logsBloom": "0x00000000000000000000000000000000000000000000000000000000000000000000000000000000000000000000000000000000000000004000000000000000000000000000000000000008000000000000000000000000000000000000000000000000020000000000000004000800020000000000000000000010000000000000000000000000000000000000000000000000000000000000010000000000000000000000000000000000000000004000000000000000000000000000020000000002000000800000008000000000000000000000080000000000000020000000000000000000000000000000000000000000000000000000000000000000",
      "type": "0x2",
      "transactionHash": "0xce6454b2c76911fe79b8c64426411adea56301d112bd61195df1624764d8b0da",
      "transactionIndex": "0x79",
      "blockHash": "0x574165a89e05e0288592ce2e8858b7c2f3854af08031490e304d6f25569fdafd",
      "blockNumber": "0x724b2c",
      "gasUsed": "0xf82c",
      "effectiveGasPrice": "0x4eb4c39d4",
      "from": "0xc77f7fed3b5cc8249adc428c5f44c9063b9734b4",
      "to": "0x5eb9cc76c3506942c1c0ead70e877dd5e4f00cb0",
      "contractAddress": null
    }
  ],
  "libraries": [],
  "pending": [],
  "returns": {},
  "timestamp": 1736865722,
  "chain": 11155111,
  "commit": "51a374b"
}