{
  "transactions": [
    {
      "hash": "0x7b203777e00eb84e5e289291f0b03ad05ab6fbad5fe4c027a7d50cdcb8fd8aaa",
      "transactionType": "CALL",
      "contractName": null,
      "contractAddress": "0xbf4a322f1496e5c3d34a9bcdb4c60567b38c7de2",
      "function": "buy(address)",
      "arguments": [
        "0xC77f7fed3b5Cc8249aDc428c5F44C9063B9734b4"
      ],
      "transaction": {
        "from": "0xc77f7fed3b5cc8249adc428c5f44c9063b9734b4",
        "to": "0xbf4a322f1496e5c3d34a9bcdb4c60567b38c7de2",
        "gas": "0x1b309",
        "value": "0xde0b6b3a7640000",
        "input": "0xf088d547000000000000000000000000c77f7fed3b5cc8249adc428c5f44c9063b9734b4",
        "nonce": "0xbf6",
        "chainId": "0xaa36a7"
      },
      "additionalContracts": [],
      "isFixedGasLimit": false
    }
  ],
  "receipts": [
    {
      "status": "0x1",
      "cumulativeGasUsed": "0x1175baf",
      "logs": [
        {
          "address": "0xbf4a322f1496e5c3d34a9bcdb4c60567b38c7de2",
          "topics": [
            "0xddf252ad1be2c89b69c2b068fc378daa952ba7f163c4a11628f55a4df523b3ef",
            "0x0000000000000000000000000000000000000000000000000000000000000000",
            "0x000000000000000000000000c77f7fed3b5cc8249adc428c5f44c9063b9734b4"
          ],
          "data": "0x000000000000000000000000000000000000000000000034fd39d28059b6a7f9",
          "blockHash": "0xee70b9446cc4836cfe0150aa7584ad979ac091966bff26810a98beedc34fcb85",
          "blockNumber": "0x725c1d",
          "transactionHash": "0x7b203777e00eb84e5e289291f0b03ad05ab6fbad5fe4c027a7d50cdcb8fd8aaa",
          "transactionIndex": "0x58",
          "logIndex": "0xae",
          "removed": false
        },
        {
          "address": "0xbf4a322f1496e5c3d34a9bcdb4c60567b38c7de2",
          "topics": [
            "0xddf252ad1be2c89b69c2b068fc378daa952ba7f163c4a11628f55a4df523b3ef",
            "0x0000000000000000000000000000000000000000000000000000000000000000",
            "0x000000000000000000000000c77f7fed3b5cc8249adc428c5f44c9063b9734b4"
          ],
          "data": "0x0000000000000000000000000000000000000000000000002925dc4feffef84d",
          "blockHash": "0xee70b9446cc4836cfe0150aa7584ad979ac091966bff26810a98beedc34fcb85",
          "blockNumber": "0x725c1d",
          "transactionHash": "0x7b203777e00eb84e5e289291f0b03ad05ab6fbad5fe4c027a7d50cdcb8fd8aaa",
          "transactionIndex": "0x58",
          "logIndex": "0xaf",
          "removed": false
        },
        {
          "address": "0xbf4a322f1496e5c3d34a9bcdb4c60567b38c7de2",
          "topics": [
            "0x4afcb4a87cdbd9974efdb92ee48bc8d7cd0ae4bf217004db3d080cbaee652ca7"
          ],
          "data": "0x00000000000000000000000000000000000000000000000000000000678743b800000000000000000000000000000000000000000000000000039927c3b716aa0000000000000000000000000000000000000000000000000de0b6b3a7640000",
          "blockHash": "0xee70b9446cc4836cfe0150aa7584ad979ac091966bff26810a98beedc34fcb85",
          "blockNumber": "0x725c1d",
          "transactionHash": "0x7b203777e00eb84e5e289291f0b03ad05ab6fbad5fe4c027a7d50cdcb8fd8aaa",
          "transactionIndex": "0x58",
          "logIndex": "0xb0",
          "removed": false
        }
      ],
      "logsBloom": "0x00000000000000000000000000000000000000000000000000000000000000000000000000000000000000000000000000000000000000004000000000000000000000000000000000000008000000000000001000000000000000000000000000000000020000000000000000000800020000000000000000000010000000000000000000000000000000000000000000000000000008000000010000000000000000000000000000000000000000004000000000000000000000000000000000000002000000800000000000001000000000000000080000000000000020000000000000000000000000000000000000000000000000000000000000000000",
      "type": "0x2",
      "transactionHash": "0x7b203777e00eb84e5e289291f0b03ad05ab6fbad5fe4c027a7d50cdcb8fd8aaa",
      "transactionIndex": "0x58",
      "blockHash": "0xee70b9446cc4836cfe0150aa7584ad979ac091966bff26810a98beedc34fcb85",
      "blockNumber": "0x725c1d",
      "gasUsed": "0x13af6",
      "effectiveGasPrice": "0xd6208d32",
      "from": "0xc77f7fed3b5cc8249adc428c5f44c9063b9734b4",
      "to": "0xbf4a322f1496e5c3d34a9bcdb4c60567b38c7de2",
      "contractAddress": null
    }
  ],
  "libraries": [],
  "pending": [],
  "returns": {},
  "timestamp": 1736917945,
  "chain": 11155111,
  "commit": "51a374b"
}