{
  "transactions": [
    {
      "hash": "0xd38980064368d762e85a8dff53138c32e50ac75220bafa93da61b4e75bfa0ffc",
      "transactionType": "CALL",
      "contractName": null,
      "contractAddress": "0x270e88f8683660553e8ba4eb2ad7c91a1710d769",
      "function": "buy(address)",
      "arguments": [
        "0xC77f7fed3b5Cc8249aDc428c5F44C9063B9734b4"
      ],
      "transaction": {
        "from": "0xc77f7fed3b5cc8249adc428c5f44c9063b9734b4",
        "to": "0x270e88f8683660553e8ba4eb2ad7c91a1710d769",
        "gas": "0x1b30c",
        "value": "0xde0b6b3a7640000",
        "input": "0xf088d547000000000000000000000000c77f7fed3b5cc8249adc428c5f44c9063b9734b4",
        "nonce": "0x598",
        "chainId": "0xaa36a7"
      },
      "additionalContracts": [],
      "isFixedGasLimit": false
    }
  ],
  "receipts": [
    {
      "status": "0x1",
      "cumulativeGasUsed": "0x111dfec",
      "logs": [
        {
          "address": "0x270e88f8683660553e8ba4eb2ad7c91a1710d769",
          "topics": [
            "0xddf252ad1be2c89b69c2b068fc378daa952ba7f163c4a11628f55a4df523b3ef",
            "0x0000000000000000000000000000000000000000000000000000000000000000",
            "0x000000000000000000000000c77f7fed3b5cc8249adc428c5f44c9063b9734b4"
          ],
          "data": "0x0000000000000000000000000000000000000000000000340725551e10da3621",
          "blockHash": "0x7251255810616840ded2a78c9341d165169ce507ff7742eb3f8fba753ab31e9f",
          "blockNumber": "0x72524d",
          "transactionHash": "0xd38980064368d762e85a8dff53138c32e50ac75220bafa93da61b4e75bfa0ffc",
          "transactionIndex": "0x41",
          "logIndex": "0x6b",
          "removed": false
        },
        {
          "address": "0x270e88f8683660553e8ba4eb2ad7c91a1710d769",
          "topics": [
            "0xddf252ad1be2c89b69c2b068fc378daa952ba7f163c4a11628f55a4df523b3ef",
            "0x0000000000000000000000000000000000000000000000000000000000000000",
            "0x000000000000000000000000c77f7fed3b5cc8249adc428c5f44c9063b9734b4"
          ],
          "data": "0x0000000000000000000000000000000000000000000000002866c5639e9c930d",
          "blockHash": "0x7251255810616840ded2a78c9341d165169ce507ff7742eb3f8fba753ab31e9f",
          "blockNumber": "0x72524d",
          "transactionHash": "0xd38980064368d762e85a8dff53138c32e50ac75220bafa93da61b4e75bfa0ffc",
          "transactionIndex": "0x41",
          "logIndex": "0x6c",
          "removed": false
        },
        {
          "address": "0x270e88f8683660553e8ba4eb2ad7c91a1710d769",
          "topics": [
            "0x4afcb4a87cdbd9974efdb92ee48bc8d7cd0ae4bf217004db3d080cbaee652ca7"
          ],
          "data": "0x000000000000000000000000000000000000000000000000000000006786cd8c0000000000000000000000000000000000000000000000000003aa44f800cd860000000000000000000000000000000000000000000000000de0b6b3a7640000",
          "blockHash": "0x7251255810616840ded2a78c9341d165169ce507ff7742eb3f8fba753ab31e9f",
          "blockNumber": "0x72524d",
          "transactionHash": "0xd38980064368d762e85a8dff53138c32e50ac75220bafa93da61b4e75bfa0ffc",
          "transactionIndex": "0x41",
          "logIndex": "0x6d",
          "removed": false
        }
      ],
      "logsBloom": "0x00000000000000000000000000000000000000000000000000000000000000000000000000000000000000000000000020000000000000004000000000000000000000000000000000000008000000000000000000000000000000000000000000000000020000000000000000000800020000000000000000000010000000000000000000010000000000000000000000000000000000000000010000000000000000000000000000000000000000004000000000000000000000000000000000000002000000800000000000000000000000000000080000008000000020000000000000000000000000000000000000000000000000000000000000000000",
      "type": "0x2",
      "transactionHash": "0xd38980064368d762e85a8dff53138c32e50ac75220bafa93da61b4e75bfa0ffc",
      "transactionIndex": "0x41",
      "blockHash": "0x7251255810616840ded2a78c9341d165169ce507ff7742eb3f8fba753ab31e9f",
      "blockNumber": "0x72524d",
      "gasUsed": "0x13af8",
      "effectiveGasPrice": "0x48bd9b829",
      "from": "0xc77f7fed3b5cc8249adc428c5f44c9063b9734b4",
      "to": "0x270e88f8683660553e8ba4eb2ad7c91a1710d769",
      "contractAddress": null
    }
  ],
  "libraries": [],
  "pending": [],
  "returns": {},
  "timestamp": 1736887693,
  "chain": 11155111,
  "commit": "51a374b"
}