{
  "transactions": [
    {
      "hash": "0xbc51a3ae4491f89f7b3917cb6ba1a897e59d39153901e85007912494504a0342",
      "transactionType": "CALL",
      "contractName": null,
      "contractAddress": "0x8aafd3ede9adb0ff97c7aebce82a919afb1c8764",
      "function": "sell(uint256)",
      "arguments": [
        "641244081947"
      ],
      "transaction": {
        "from": "0xc77f7fed3b5cc8249adc428c5f44c9063b9734b4",
        "to": "0x8aafd3ede9adb0ff97c7aebce82a919afb1c8764",
        "gas": "0x1722a",
        "value": "0x0",
        "input": "0xe4849b32000000000000000000000000000000000000000000000000000000954d202f1b",
        "nonce": "0x16e0",
        "chainId": "0xaa36a7"
      },
      "additionalContracts": [],
      "isFixedGasLimit": false
    }
  ],
  "receipts": [
    {
      "status": "0x1",
      "cumulativeGasUsed": "0x7c0d88",
      "logs": [
        {
          "address": "0x8aafd3ede9adb0ff97c7aebce82a919afb1c8764",
          "topics": [
            "0xddf252ad1be2c89b69c2b068fc378daa952ba7f163c4a11628f55a4df523b3ef",
            "0x000000000000000000000000c77f7fed3b5cc8249adc428c5f44c9063b9734b4",
            "0x0000000000000000000000000000000000000000000000000000000000000000"
          ],
          "data": "0x000000000000000000000000000000000000000000000000000000941b5b518c",
          "blockHash": "0x564a9231c4073cd3b55cd83a82c413f2753e6a10a2078586f5ab9032d6df591d",
          "blockNumber": "0x731e9d",
          "transactionHash": "0xbc51a3ae4491f89f7b3917cb6ba1a897e59d39153901e85007912494504a0342",
          "transactionIndex": "0x5d",
          "logIndex": "0x75",
          "removed": false
        },
        {
          "address": "0x8aafd3ede9adb0ff97c7aebce82a919afb1c8764",
          "topics": [
            "0xddf252ad1be2c89b69c2b068fc378daa952ba7f163c4a11628f55a4df523b3ef",
            "0x000000000000000000000000c77f7fed3b5cc8249adc428c5f44c9063b9734b4",
            "0x000000000000000000000000c77f7fed3b5cc8249adc428c5f44c9063b9734b4"
          ],
          "data": "0x0000000000000000000000000000000000000000000000000000000131c4dd8f",
          "blockHash": "0x564a9231c4073cd3b55cd83a82c413f2753e6a10a2078586f5ab9032d6df591d",
          "blockNumber": "0x731e9d",
          "transactionHash": "0xbc51a3ae4491f89f7b3917cb6ba1a897e59d39153901e85007912494504a0342",
          "transactionIndex": "0x5d",
          "logIndex": "0x76",
          "removed": false
        },
        {
          "address": "0x8aafd3ede9adb0ff97c7aebce82a919afb1c8764",
          "topics": [
            "0x4afcb4a87cdbd9974efdb92ee48bc8d7cd0ae4bf217004db3d080cbaee652ca7"
          ],
          "data": "0x0000000000000000000000000000000000000000000000000000000067906c440000000000000000000000000000000000000000000000000016a3bb59c88fe200000000000000000000000000000000000000000000000000000000f3902aa7",
          "blockHash": "0x564a9231c4073cd3b55cd83a82c413f2753e6a10a2078586f5ab9032d6df591d",
          "blockNumber": "0x731e9d",
          "transactionHash": "0xbc51a3ae4491f89f7b3917cb6ba1a897e59d39153901e85007912494504a0342",
          "transactionIndex": "0x5d",
          "logIndex": "0x77",
          "removed": false
        }
      ],
      "logsBloom": "0x00000000000000000000000000000000000000000600000000000000000000000000000000000000000000000000000000000000000000004000000000000000000000000000004000000008000000000000000000000000000000000000000000000000020000000000000000000800020000000000000000000010000000000000000000000000000000000000000000000000000000000000010000000000000000000000000000000000000000004000000000000000000000000000000000000002000000800000000000000000000000000000080000000000000020000000000000000000000000000000000000000000000000000000000000000000",
      "type": "0x2",
      "transactionHash": "0xbc51a3ae4491f89f7b3917cb6ba1a897e59d39153901e85007912494504a0342",
      "transactionIndex": "0x5d",
      "blockHash": "0x564a9231c4073cd3b55cd83a82c413f2753e6a10a2078586f5ab9032d6df591d",
      "blockNumber": "0x731e9d",
      "gasUsed": "0xfd1b",
      "effectiveGasPrice": "0x48577c4f",
      "from": "0xc77f7fed3b5cc8249adc428c5f44c9063b9734b4",
      "to": "0x8aafd3ede9adb0ff97c7aebce82a919afb1c8764",
      "contractAddress": null
    }
  ],
  "libraries": [],
  "pending": [],
  "returns": {},
  "timestamp": 1737518150,
  "chain": 11155111,
  "commit": "1d2fb70"
}