{
  "transactions": [
    {
      "hash": "0xae58910712ae0cd172f5b0dfc7775efe80010065a0ac6378eb656381c9b661e1",
      "transactionType": "CALL",
      "contractName": null,
      "contractAddress": "0x8aafd3ede9adb0ff97c7aebce82a919afb1c8764",
      "function": "sell(uint256)",
      "arguments": [
        "43941220030492719"
      ],
      "transaction": {
        "from": "0xc77f7fed3b5cc8249adc428c5f44c9063b9734b4",
        "to": "0x8aafd3ede9adb0ff97c7aebce82a919afb1c8764",
        "gas": "0x1724d",
        "value": "0x0",
        "input": "0xe4849b32000000000000000000000000000000000000000000000000009c1c4e8aea302f",
        "nonce": "0x11ab",
        "chainId": "0xaa36a7"
      },
      "additionalContracts": [],
      "isFixedGasLimit": false
    }
  ],
  "receipts": [
    {
      "status": "0x1",
      "cumulativeGasUsed": "0x530de4",
      "logs": [
        {
          "address": "0x8aafd3ede9adb0ff97c7aebce82a919afb1c8764",
          "topics": [
            "0xddf252ad1be2c89b69c2b068fc378daa952ba7f163c4a11628f55a4df523b3ef",
            "0x000000000000000000000000c77f7fed3b5cc8249adc428c5f44c9063b9734b4",
            "0x0000000000000000000000000000000000000000000000000000000000000000"
          ],
          "data": "0x000000000000000000000000000000000000000000000000009adc97a46d6f4a",
          "blockHash": "0x188b0fe494b267224f1f5e3917d4889ba3bd98c843e41e8ebe695b59e34a3d4a",
          "blockNumber": "0x731876",
          "transactionHash": "0xae58910712ae0cd172f5b0dfc7775efe80010065a0ac6378eb656381c9b661e1",
          "transactionIndex": "0x1a",
          "logIndex": "0x33",
          "removed": false
        },
        {
          "address": "0x8aafd3ede9adb0ff97c7aebce82a919afb1c8764",
          "topics": [
            "0xddf252ad1be2c89b69c2b068fc378daa952ba7f163c4a11628f55a4df523b3ef",
            "0x000000000000000000000000c77f7fed3b5cc8249adc428c5f44c9063b9734b4",
            "0x000000000000000000000000c77f7fed3b5cc8249adc428c5f44c9063b9734b4"
          ],
          "data": "0x00000000000000000000000000000000000000000000000000013fb6e67cc0e5",
          "blockHash": "0x188b0fe494b267224f1f5e3917d4889ba3bd98c843e41e8ebe695b59e34a3d4a",
          "blockNumber": "0x731876",
          "transactionHash": "0xae58910712ae0cd172f5b0dfc7775efe80010065a0ac6378eb656381c9b661e1",
          "transactionIndex": "0x1a",
          "logIndex": "0x34",
          "removed": false
        },
        {
          "address": "0x8aafd3ede9adb0ff97c7aebce82a919afb1c8764",
          "topics": [
            "0x4afcb4a87cdbd9974efdb92ee48bc8d7cd0ae4bf217004db3d080cbaee652ca7"
          ],
          "data": "0x0000000000000000000000000000000000000000000000000000000067902258000000000000000000000000000000000000000000000000000524daed2b7add000000000000000000000000000000000000000000000000000039dd3d8bb084",
          "blockHash": "0x188b0fe494b267224f1f5e3917d4889ba3bd98c843e41e8ebe695b59e34a3d4a",
          "blockNumber": "0x731876",
          "transactionHash": "0xae58910712ae0cd172f5b0dfc7775efe80010065a0ac6378eb656381c9b661e1",
          "transactionIndex": "0x1a",
          "logIndex": "0x35",
          "removed": false
        }
      ],
      "logsBloom": "0x00000000000000000000000000000000000000000600000000000000000000000000000000000000000000000000000000000000000000004000000000000000000000000000004000000008000000000000000000000000000000000000000000000000020000000000000000000800020000000000000000000010000000000000000000000000000000000000000000000000000000000000010000000000000000000000000000000000000000004000000000000000000000000000000000000002000000800000000000000000000000000000080000000000000020000000000000000000000000000000000000000000000000000000000000000000",
      "type": "0x2",
      "transactionHash": "0xae58910712ae0cd172f5b0dfc7775efe80010065a0ac6378eb656381c9b661e1",
      "transactionIndex": "0x1a",
      "blockHash": "0x188b0fe494b267224f1f5e3917d4889ba3bd98c843e41e8ebe695b59e34a3d4a",
      "blockNumber": "0x731876",
      "gasUsed": "0xfd33",
      "effectiveGasPrice": "0x481bc896",
      "from": "0xc77f7fed3b5cc8249adc428c5f44c9063b9734b4",
      "to": "0x8aafd3ede9adb0ff97c7aebce82a919afb1c8764",
      "contractAddress": null
    }
  ],
  "libraries": [],
  "pending": [],
  "returns": {},
  "timestamp": 1737499224,
  "chain": 11155111,
  "commit": "1d2fb70"
}