{
  "transactions": [
    {
      "hash": "0xab6e8c6b7acd90da11ec3958e8e92c203f7a0077458de57c6ab4970ae1dac777",
      "transactionType": "CALL",
      "contractName": null,
      "contractAddress": "0x8aafd3ede9adb0ff97c7aebce82a919afb1c8764",
      "function": "buy(address)",
      "arguments": [
        "0xC77f7fed3b5Cc8249aDc428c5F44C9063B9734b4"
      ],
      "transaction": {
        "from": "0xc77f7fed3b5cc8249adc428c5f44c9063b9734b4",
        "to": "0x8aafd3ede9adb0ff97c7aebce82a919afb1c8764",
        "gas": "0x156ea",
        "value": "0xde0b6b3a7640000",
        "input": "0xf088d547000000000000000000000000c77f7fed3b5cc8249adc428c5f44c9063b9734b4",
        "nonce": "0x1004",
        "chainId": "0xaa36a7"
      },
      "additionalContracts": [],
      "isFixedGasLimit": false
    }
  ],
  "receipts": [
    {
      "status": "0x1",
      "cumulativeGasUsed": "0xd4b6a2",
      "logs": [
        {
          "address": "0x8aafd3ede9adb0ff97c7aebce82a919afb1c8764",
          "topics": [
            "0xddf252ad1be2c89b69c2b068fc378daa952ba7f163c4a11628f55a4df523b3ef",
            "0x0000000000000000000000000000000000000000000000000000000000000000",
            "0x000000000000000000000000c77f7fed3b5cc8249adc428c5f44c9063b9734b4"
          ],
          "data": "0x000000000000000000000000000000000000000000000026e961512d800f4b06",
          "blockHash": "0x751a2c8365f938483f263e657b8246d4a4f00df4b61413e7a72242c036366646",
          "blockNumber": "0x731679",
          "transactionHash": "0xab6e8c6b7acd90da11ec3958e8e92c203f7a0077458de57c6ab4970ae1dac777",
          "transactionIndex": "0x64",
          "logIndex": "0xd8",
          "removed": false
        },
        {
          "address": "0x8aafd3ede9adb0ff97c7aebce82a919afb1c8764",
          "topics": [
            "0xddf252ad1be2c89b69c2b068fc378daa952ba7f163c4a11628f55a4df523b3ef",
            "0x0000000000000000000000000000000000000000000000000000000000000000",
            "0x000000000000000000000000c77f7fed3b5cc8249adc428c5f44c9063b9734b4"
          ],
          "data": "0x0000000000000000000000000000000000000000000000001e3759f98998216e",
          "blockHash": "0x751a2c8365f938483f263e657b8246d4a4f00df4b61413e7a72242c036366646",
          "blockNumber": "0x731679",
          "transactionHash": "0xab6e8c6b7acd90da11ec3958e8e92c203f7a0077458de57c6ab4970ae1dac777",
          "transactionIndex": "0x64",
          "logIndex": "0xd9",
          "removed": false
        },
        {
          "address": "0x8aafd3ede9adb0ff97c7aebce82a919afb1c8764",
          "topics": [
            "0x4afcb4a87cdbd9974efdb92ee48bc8d7cd0ae4bf217004db3d080cbaee652ca7"
          ],
          "data": "0x0000000000000000000000000000000000000000000000000000000067900a580000000000000000000000000000000000000000000000000004e6cf25a91ad80000000000000000000000000000000000000000000000000de0b6b3a7640000",
          "blockHash": "0x751a2c8365f938483f263e657b8246d4a4f00df4b61413e7a72242c036366646",
          "blockNumber": "0x731679",
          "transactionHash": "0xab6e8c6b7acd90da11ec3958e8e92c203f7a0077458de57c6ab4970ae1dac777",
          "transactionIndex": "0x64",
          "logIndex": "0xda",
          "removed": false
        }
      ],
      "logsBloom": "0x00000000000000000000000000000000000000000600000000000000000000000000000000000000000000000000000000000000000000004000000000000000000000000000004000000008000000000000000000000000000000000000000000000000020000000000000000000800020000000000000000000010000000000000000000000000000000000000000000000000000000000000010000000000000000000000000000000000000000004000000000000000000000000000000000000002000000800000000000000000000000000000080000000000000020000000000000000000000000000000000000000000000000000000000000000000",
      "type": "0x2",
      "transactionHash": "0xab6e8c6b7acd90da11ec3958e8e92c203f7a0077458de57c6ab4970ae1dac777",
      "transactionIndex": "0x64",
      "blockHash": "0x751a2c8365f938483f263e657b8246d4a4f00df4b61413e7a72242c036366646",
      "blockNumber": "0x731679",
      "gasUsed": "0xf844",
      "effectiveGasPrice": "0x3e9fc9a3",
      "from": "0xc77f7fed3b5cc8249adc428c5f44c9063b9734b4",
      "to": "0x8aafd3ede9adb0ff97c7aebce82a919afb1c8764",
      "contractAddress": null
    }
  ],
  "libraries": [],
  "pending": [],
  "returns": {},
  "timestamp": 1737493080,
  "chain": 11155111,
  "commit": "1d2fb70"
}