{
  "transactions": [
    {
      "hash": "0x8ab193f8bea1e87768de27d57e56a6596fdfc70139b6b29a278a6f374a76f103",
      "transactionType": "CALL",
      "contractName": null,
      "contractAddress": "0x5eb9cc76c3506942c1c0ead70e877dd5e4f00cb0",
      "function": "buy(address)",
      "arguments": [
        "0xC77f7fed3b5Cc8249aDc428c5F44C9063B9734b4"
      ],
      "transaction": {
        "from": "0xc77f7fed3b5cc8249adc428c5f44c9063b9734b4",
        "to": "0x5eb9cc76c3506942c1c0ead70e877dd5e4f00cb0",
        "gas": "0x1b30c",
        "value": "0xde0b6b3a7640000",
        "input": "0xf088d547000000000000000000000000c77f7fed3b5cc8249adc428c5f44c9063b9734b4",
        "nonce": "0x48c",
        "chainId": "0xaa36a7"
      },
      "additionalContracts": [],
      "isFixedGasLimit": false
    }
  ],
  "receipts": [
    {
      "status": "0x1",
      "cumulativeGasUsed": "0x83d721",
      "logs": [
        {
          "address": "0x5eb9cc76c3506942c1c0ead70e877dd5e4f00cb0",
          "topics": [
            "0xddf252ad1be2c89b69c2b068fc378daa952ba7f163c4a11628f55a4df523b3ef",
            "0x0000000000000000000000000000000000000000000000000000000000000000",
            "0x000000000000000000000000c77f7fed3b5cc8249adc428c5f44c9063b9734b4"
          ],
          "data": "0x00000000000000000000000000000000000000000000003574b333e5900c4df2",
          "blockHash": "0x1cb42e3fc705e237972be6bd694abc3fdc61a3b73d27a3c925964ae5f32d7f86",
          "blockNumber": "0x7250bd",
          "transactionHash": "0x8ab193f8bea1e87768de27d57e56a6596fdfc70139b6b29a278a6f374a76f103",
          "transactionIndex": "0x53",
          "logIndex": "0x88",
          "removed": false
        },
        {
          "address": "0x5eb9cc76c3506942c1c0ead70e877dd5e4f00cb0",
          "topics": [
            "0xddf252ad1be2c89b69c2b068fc378daa952ba7f163c4a11628f55a4df523b3ef",
            "0x0000000000000000000000000000000000000000000000000000000000000000",
            "0x000000000000000000000000c77f7fed3b5cc8249adc428c5f44c9063b9734b4"
          ],
          "data": "0x0000000000000000000000000000000000000000000000002982a2e747c6f250",
          "blockHash": "0x1cb42e3fc705e237972be6bd694abc3fdc61a3b73d27a3c925964ae5f32d7f86",
          "blockNumber": "0x7250bd",
          "transactionHash": "0x8ab193f8bea1e87768de27d57e56a6596fdfc70139b6b29a278a6f374a76f103",
          "transactionIndex": "0x53",
          "logIndex": "0x89",
          "removed": false
        },
        {
          "address": "0x5eb9cc76c3506942c1c0ead70e877dd5e4f00cb0",
          "topics": [
            "0x4afcb4a87cdbd9974efdb92ee48bc8d7cd0ae4bf217004db3d080cbaee652ca7"
          ],
          "data": "0x000000000000000000000000000000000000000000000000000000006786baa80000000000000000000000000000000000000000000000000003911ab248fae80000000000000000000000000000000000000000000000000de0b6b3a7640000",
          "blockHash": "0x1cb42e3fc705e237972be6bd694abc3fdc61a3b73d27a3c925964ae5f32d7f86",
          "blockNumber": "0x7250bd",
          "transactionHash": "0x8ab193f8bea1e87768de27d57e56a6596fdfc70139b6b29a278a6f374a76f103",
          "transactionIndex": "0x53",
          "logIndex": "0x8a",
          "removed": false
        }
      ],
      "logsBloom": "0x00000000000000000000000000000000000000000000000000000000000000000000000000000000000000000000000000000000000000004000000000000000000000000000000000000008000000000000000000000000000000000000000000000000020000000000000004000800020000000000000000000010000000000000000000000000000000000000000000000000000000000000010000000000000000000000000000000000000000004000000000000000000000000000020000000002000000800000008000000000000000000000080000000000000020000000000000000000000000000000000000000000000000000000000000000000",
      "type": "0x2",
      "transactionHash": "0x8ab193f8bea1e87768de27d57e56a6596fdfc70139b6b29a278a6f374a76f103",
      "transactionIndex": "0x53",
      "blockHash": "0x1cb42e3fc705e237972be6bd694abc3fdc61a3b73d27a3c925964ae5f32d7f86",
      "blockNumber": "0x7250bd",
      "gasUsed": "0x13af8",
      "effectiveGasPrice": "0x24127a4fb",
      "from": "0xc77f7fed3b5cc8249adc428c5f44c9063b9734b4",
      "to": "0x5eb9cc76c3506942c1c0ead70e877dd5e4f00cb0",
      "contractAddress": null
    }
  ],
  "libraries": [],
  "pending": [],
  "returns": {},
  "timestamp": 1736882859,
  "chain": 11155111,
  "commit": "51a374b"
}