{
  "transactions": [
    {
      "hash": "0x7ecb8b4df380dc6f842b349e51a334fc212f53f991321c91584df6f3826feef9",
      "transactionType": "CALL",
      "contractName": null,
      "contractAddress": "0xbf4a322f1496e5c3d34a9bcdb4c60567b38c7de2",
      "function": "sell(uint256)",
      "arguments": [
        "976214243370050947205"
      ],
      "transaction": {
        "from": "0xc77f7fed3b5cc8249adc428c5f44c9063b9734b4",
        "to": "0xbf4a322f1496e5c3d34a9bcdb4c60567b38c7de2",
        "gas": "0x16fea",
        "value": "0x0",
        "input": "0xe4849b32000000000000000000000000000000000000000000000034ebb1b223ec9e8885",
        "nonce": "0xd33",
        "chainId": "0xaa36a7"
      },
      "additionalContracts": [],
      "isFixedGasLimit": false
    }
  ],
  "receipts": [
    {
      "status": "0x1",
      "cumulativeGasUsed": "0x13803ad",
      "logs": [
        {
          "address": "0xbf4a322f1496e5c3d34a9bcdb4c60567b38c7de2",
          "topics": [
            "0xddf252ad1be2c89b69c2b068fc378daa952ba7f163c4a11628f55a4df523b3ef",
            "0x000000000000000000000000c77f7fed3b5cc8249adc428c5f44c9063b9734b4",
            "0x0000000000000000000000000000000000000000000000000000000000000000"
          ],
          "data": "0x000000000000000000000000000000000000000000000034ebb1b223ec9e8885",
          "blockHash": "0xb1b120f3f8ff2ae1b9e07ac3cadedace66ba65dacf06b97ad9114e46b9434b77",
          "blockNumber": "0x725d97",
          "transactionHash": "0x7ecb8b4df380dc6f842b349e51a334fc212f53f991321c91584df6f3826feef9",
          "transactionIndex": "0x90",
          "logIndex": "0xc8",
          "removed": false
        },
        {
          "address": "0xbf4a322f1496e5c3d34a9bcdb4c60567b38c7de2",
          "topics": [
            "0x4afcb4a87cdbd9974efdb92ee48bc8d7cd0ae4bf217004db3d080cbaee652ca7"
          ],
          "data": "0x000000000000000000000000000000000000000000000000000000006787558800000000000000000000000000000000000000000000000000039d2949ce67f80000000000000000000000000000000000000000000000000dc7e3d943a70f65",
          "blockHash": "0xb1b120f3f8ff2ae1b9e07ac3cadedace66ba65dacf06b97ad9114e46b9434b77",
          "blockNumber": "0x725d97",
          "transactionHash": "0x7ecb8b4df380dc6f842b349e51a334fc212f53f991321c91584df6f3826feef9",
          "transactionIndex": "0x90",
          "logIndex": "0xc9",
          "removed": false
        }
      ],
      "logsBloom": "0x00000000000000000000000000000000000000000000000000000000000000000000000000000000000000000000000000000000000000004000000000000000000000000000000000000008000000000000001000000000000000000000000000000000020000000000000000000800020000000000000000000010000000000000000000000000000000000000000000000000000008000000010000000000000000000000000000000000000000004000000000000000000000000000000000000002000000800000000000001000000000000000080000000000000020000000000000000000000000000000000000000000000000000000000000000000",
      "type": "0x2",
      "transactionHash": "0x7ecb8b4df380dc6f842b349e51a334fc212f53f991321c91584df6f3826feef9",
      "transactionIndex": "0x90",
      "blockHash": "0xb1b120f3f8ff2ae1b9e07ac3cadedace66ba65dacf06b97ad9114e46b9434b77",
      "blockNumber": "0x725d97",
      "gasUsed": "0xfb91",
      "effectiveGasPrice": "0x2b229cacc",
      "from": "0xc77f7fed3b5cc8249adc428c5f44c9063b9734b4",
      "to": "0xbf4a322f1496e5c3d34a9bcdb4c60567b38c7de2",
      "contractAddress": null
    }
  ],
  "libraries": [],
  "pending": [],
  "returns": {},
  "timestamp": 1736922505,
  "chain": 11155111,
  "commit": "51a374b"
}