{
  "transactions": [
    {
      "hash": "0x7a6d0cbdb27aca3e6ee80a58e510fdf4442b56ee8a29d748c5b1e92d6915f66f",
      "transactionType": "CALL",
      "contractName": null,
      "contractAddress": "0x8aafd3ede9adb0ff97c7aebce82a919afb1c8764",
      "function": "sell(uint256)",
      "arguments": [
        "680567711917369864255"
      ],
      "transaction": {
        "from": "0xc77f7fed3b5cc8249adc428c5f44c9063b9734b4",
        "to": "0x8aafd3ede9adb0ff97c7aebce82a919afb1c8764",
        "gas": "0x17270",
        "value": "0x0",
        "input": "0xe4849b32000000000000000000000000000000000000000000000024e4c6382fc336303f",
        "nonce": "0x11f9",
        "chainId": "0xaa36a7"
      },
      "additionalContracts": [],
      "isFixedGasLimit": false
    }
  ],
  "receipts": [
    {
      "status": "0x1",
      "cumulativeGasUsed": "0x9e944b",
      "logs": [
        {
          "address": "0x8aafd3ede9adb0ff97c7aebce82a919afb1c8764",
          "topics": [
            "0xddf252ad1be2c89b69c2b068fc378daa952ba7f163c4a11628f55a4df523b3ef",
            "0x000000000000000000000000c77f7fed3b5cc8249adc428c5f44c9063b9734b4",
            "0x0000000000000000000000000000000000000000000000000000000000000000"
          ],
          "data": "0x0000000000000000000000000000000000000000000000249937525c6fbadffd",
          "blockHash": "0x45f7242169a15818b7b14a0129fcb7017078f500884adedc4cfafb470df0b71d",
          "blockNumber": "0x7318d3",
          "transactionHash": "0x7a6d0cbdb27aca3e6ee80a58e510fdf4442b56ee8a29d748c5b1e92d6915f66f",
          "transactionIndex": "0x8a",
          "logIndex": "0x8f",
          "removed": false
        },
        {
          "address": "0x8aafd3ede9adb0ff97c7aebce82a919afb1c8764",
          "topics": [
            "0xddf252ad1be2c89b69c2b068fc378daa952ba7f163c4a11628f55a4df523b3ef",
            "0x000000000000000000000000c77f7fed3b5cc8249adc428c5f44c9063b9734b4",
            "0x000000000000000000000000c77f7fed3b5cc8249adc428c5f44c9063b9734b4"
          ],
          "data": "0x0000000000000000000000000000000000000000000000004b8ee5d3537b5042",
          "blockHash": "0x45f7242169a15818b7b14a0129fcb7017078f500884adedc4cfafb470df0b71d",
          "blockNumber": "0x7318d3",
          "transactionHash": "0x7a6d0cbdb27aca3e6ee80a58e510fdf4442b56ee8a29d748c5b1e92d6915f66f",
          "transactionIndex": "0x8a",
          "logIndex": "0x90",
          "removed": false
        },
        {
          "address": "0x8aafd3ede9adb0ff97c7aebce82a919afb1c8764",
          "topics": [
            "0x4afcb4a87cdbd9974efdb92ee48bc8d7cd0ae4bf217004db3d080cbaee652ca7"
          ],
          "data": "0x00000000000000000000000000000000000000000000000000000000679026b400000000000000000000000000000000000000000000000000053078772d8ab20000000000000000000000000000000000000000000000000dc8f20acd43a04a",
          "blockHash": "0x45f7242169a15818b7b14a0129fcb7017078f500884adedc4cfafb470df0b71d",
          "blockNumber": "0x7318d3",
          "transactionHash": "0x7a6d0cbdb27aca3e6ee80a58e510fdf4442b56ee8a29d748c5b1e92d6915f66f",
          "transactionIndex": "0x8a",
          "logIndex": "0x91",
          "removed": false
        }
      ],
      "logsBloom": "0x00000000000000000000000000000000000000000600000000000000000000000000000000000000000000000000000000000000000000004000000000000000000000000000004000000008000000000000000000000000000000000000000000000000020000000000000000000800020000000000000000000010000000000000000000000000000000000000000000000000000000000000010000000000000000000000000000000000000000004000000000000000000000000000000000000002000000800000000000000000000000000000080000000000000020000000000000000000000000000000000000000000000000000000000000000000",
      "type": "0x2",
      "transactionHash": "0x7a6d0cbdb27aca3e6ee80a58e510fdf4442b56ee8a29d748c5b1e92d6915f66f",
      "transactionIndex": "0x8a",
      "blockHash": "0x45f7242169a15818b7b14a0129fcb7017078f500884adedc4cfafb470df0b71d",
      "blockNumber": "0x7318d3",
      "gasUsed": "0xfd4b",
      "effectiveGasPrice": "0x43cfe318",
      "from": "0xc77f7fed3b5cc8249adc428c5f44c9063b9734b4",
      "to": "0x8aafd3ede9adb0ff97c7aebce82a919afb1c8764",
      "contractAddress": null
    }
  ],
  "libraries": [],
  "pending": [],
  "returns": {},
  "timestamp": 1737500341,
  "chain": 11155111,
  "commit": "1d2fb70"
}