{
  "transactions": [
    {
      "hash": "0xca79d43cb8f24367d0e2e2f999a0b7b414ce85d51a73c42e346adcd1b6b82889",
      "transactionType": "CALL",
      "contractName": null,
      "contractAddress": "0xbf4a322f1496e5c3d34a9bcdb4c60567b38c7de2",
      "function": "buy(address)",
      "arguments": [
        "0xC77f7fed3b5Cc8249aDc428c5F44C9063B9734b4"
      ],
      "transaction": {
        "from": "0xc77f7fed3b5cc8249adc428c5f44c9063b9734b4",
        "to": "0xbf4a322f1496e5c3d34a9bcdb4c60567b38c7de2",
        "gas": "0x1b309",
        "value": "0xde0b6b3a7640000",
        "input": "0xf088d547000000000000000000000000c77f7fed3b5cc8249adc428c5f44c9063b9734b4",
        "nonce": "0xdd0",
        "chainId": "0xaa36a7"
      },
      "additionalContracts": [],
      "isFixedGasLimit": false
    }
  ],
  "receipts": [
    {
      "status": "0x1",
      "cumulativeGasUsed": "0x1814daa",
      "logs": [
        {
          "address": "0xbf4a322f1496e5c3d34a9bcdb4c60567b38c7de2",
          "topics": [
            "0xddf252ad1be2c89b69c2b068fc378daa952ba7f163c4a11628f55a4df523b3ef",
            "0x0000000000000000000000000000000000000000000000000000000000000000",
            "0x000000000000000000000000c77f7fed3b5cc8249adc428c5f44c9063b9734b4"
          ],
          "data": "0x000000000000000000000000000000000000000000000034a5a94f8292b6bb0b",
          "blockHash": "0x71e74646ced94b217bbe9af7c61feb25cf506ab699906e42676b20f121c33cb4",
          "blockNumber": "0x7266ae",
          "transactionHash": "0xca79d43cb8f24367d0e2e2f999a0b7b414ce85d51a73c42e346adcd1b6b82889",
          "transactionIndex": "0x63",
          "logIndex": "0xc9",
          "removed": false
        },
        {
          "address": "0xbf4a322f1496e5c3d34a9bcdb4c60567b38c7de2",
          "topics": [
            "0xddf252ad1be2c89b69c2b068fc378daa952ba7f163c4a11628f55a4df523b3ef",
            "0x0000000000000000000000000000000000000000000000000000000000000000",
            "0x000000000000000000000000c77f7fed3b5cc8249adc428c5f44c9063b9734b4"
          ],
          "data": "0x00000000000000000000000000000000000000000000000028e1dd2055bd526b",
          "blockHash": "0x71e74646ced94b217bbe9af7c61feb25cf506ab699906e42676b20f121c33cb4",
          "blockNumber": "0x7266ae",
          "transactionHash": "0xca79d43cb8f24367d0e2e2f999a0b7b414ce85d51a73c42e346adcd1b6b82889",
          "transactionIndex": "0x63",
          "logIndex": "0xca",
          "removed": false
        },
        {
          "address": "0xbf4a322f1496e5c3d34a9bcdb4c60567b38c7de2",
          "topics": [
            "0x4afcb4a87cdbd9974efdb92ee48bc8d7cd0ae4bf217004db3d080cbaee652ca7"
          ],
          "data": "0x000000000000000000000000000000000000000000000000000000006787c32c00000000000000000000000000000000000000000000000000039f23d8c4cf9d0000000000000000000000000000000000000000000000000de0b6b3a7640000",
          "blockHash": "0x71e74646ced94b217bbe9af7c61feb25cf506ab699906e42676b20f121c33cb4",
          "blockNumber": "0x7266ae",
          "transactionHash": "0xca79d43cb8f24367d0e2e2f999a0b7b414ce85d51a73c42e346adcd1b6b82889",
          "transactionIndex": "0x63",
          "logIndex": "0xcb",
          "removed": false
        }
      ],
      "logsBloom": "0x00000000000000000000000000000000000000000000000000000000000000000000000000000000000000000000000000000000000000004000000000000000000000000000000000000008000000000000001000000000000000000000000000000000020000000000000000000800020000000000000000000010000000000000000000000000000000000000000000000000000008000000010000000000000000000000000000000000000000004000000000000000000000000000000000000002000000800000000000001000000000000000080000000000000020000000000000000000000000000000000000000000000000000000000000000000",
      "type": "0x2",
      "transactionHash": "0xca79d43cb8f24367d0e2e2f999a0b7b414ce85d51a73c42e346adcd1b6b82889",
      "transactionIndex": "0x63",
      "blockHash": "0x71e74646ced94b217bbe9af7c61feb25cf506ab699906e42676b20f121c33cb4",
      "blockNumber": "0x7266ae",
      "gasUsed": "0x13af6",
      "effectiveGasPrice": "0x17ecf19f7",
      "from": "0xc77f7fed3b5cc8249adc428c5f44c9063b9734b4",
      "to": "0xbf4a322f1496e5c3d34a9bcdb4c60567b38c7de2",
      "contractAddress": null
    }
  ],
  "libraries": [],
  "pending": [],
  "returns": {},
  "timestamp": 1736950574,
  "chain": 11155111,
  "commit": "51a374b"
}