{
  "transactions": [
    {
      "hash": "0xbf7d6c3fd1a21e9d3535b79201183c9139f6c5142d4d2328de74042fb3c4679a",
      "transactionType": "CALL",
      "contractName": null,
      "contractAddress": "0xbf4a322f1496e5c3d34a9bcdb4c60567b38c7de2",
      "function": "sell(uint256)",
      "arguments": [
        "986255441550070250190"
      ],
      "transaction": {
        "from": "0xc77f7fed3b5cc8249adc428c5f44c9063b9734b4",
        "to": "0xbf4a322f1496e5c3d34a9bcdb4c60567b38c7de2",
        "gas": "0x16fea",
        "value": "0x0",
        "input": "0xe4849b32000000000000000000000000000000000000000000000035770b32af3bf7face",
        "nonce": "0xa49",
        "chainId": "0xaa36a7"
      },
      "additionalContracts": [],
      "isFixedGasLimit": false
    }
  ],
  "receipts": [
    {
      "status": "0x1",
      "cumulativeGasUsed": "0x102e57e",
      "logs": [
        {
          "address": "0xbf4a322f1496e5c3d34a9bcdb4c60567b38c7de2",
          "topics": [
            "0xddf252ad1be2c89b69c2b068fc378daa952ba7f163c4a11628f55a4df523b3ef",
            "0x000000000000000000000000c77f7fed3b5cc8249adc428c5f44c9063b9734b4",
            "0x0000000000000000000000000000000000000000000000000000000000000000"
          ],
          "data": "0x000000000000000000000000000000000000000000000035770b32af3bf7face",
          "blockHash": "0xdc751b5ceab8c9d7abcb9697a76e98ca35b2bdf3c05d3c1dffb6d0bac7ad5998",
          "blockNumber": "0x725a21",
          "transactionHash": "0xbf7d6c3fd1a21e9d3535b79201183c9139f6c5142d4d2328de74042fb3c4679a",
          "transactionIndex": "0x79",
          "logIndex": "0xb5",
          "removed": false
        },
        {
          "address": "0xbf4a322f1496e5c3d34a9bcdb4c60567b38c7de2",
          "topics": [
            "0x4afcb4a87cdbd9974efdb92ee48bc8d7cd0ae4bf217004db3d080cbaee652ca7"
          ],
          "data": "0x0000000000000000000000000000000000000000000000000000000067872bdc000000000000000000000000000000000000000000000000000393be0a95afcf0000000000000000000000000000000000000000000000000dc7e3f09c3bfbae",
          "blockHash": "0xdc751b5ceab8c9d7abcb9697a76e98ca35b2bdf3c05d3c1dffb6d0bac7ad5998",
          "blockNumber": "0x725a21",
          "transactionHash": "0xbf7d6c3fd1a21e9d3535b79201183c9139f6c5142d4d2328de74042fb3c4679a",
          "transactionIndex": "0x79",
          "logIndex": "0xb6",
          "removed": false
        }
      ],
      "logsBloom": "0x00000000000000000000000000000000000000000000000000000000000000000000000000000000000000000000000000000000000000004000000000000000000000000000000000000008000000000000001000000000000000000000000000000000020000000000000000000800020000000000000000000010000000000000000000000000000000000000000000000000000008000000010000000000000000000000000000000000000000004000000000000000000000000000000000000002000000800000000000001000000000000000080000000000000020000000000000000000000000000000000000000000000000000000000000000000",
      "type": "0x2",
      "transactionHash": "0xbf7d6c3fd1a21e9d3535b79201183c9139f6c5142d4d2328de74042fb3c4679a",
      "transactionIndex": "0x79",
      "blockHash": "0xdc751b5ceab8c9d7abcb9697a76e98ca35b2bdf3c05d3c1dffb6d0bac7ad5998",
      "blockNumber": "0x725a21",
      "gasUsed": "0xfb91",
      "effectiveGasPrice": "0x5b1005816",
      "from": "0xc77f7fed3b5cc8249adc428c5f44c9063b9734b4",
      "to": "0xbf4a322f1496e5c3d34a9bcdb4c60567b38c7de2",
      "contractAddress": null
    }
  ],
  "libraries": [],
  "pending": [],
  "returns": {},
  "timestamp": 1736911837,
  "chain": 11155111,
  "commit": "51a374b"
}