{
  "transactions": [
    {
      "hash": "0x8e330b00efab6efce1ae2b770eef3c5b73b2380df04291ca718fb0a040211ad0",
      "transactionType": "CALL",
      "contractName": null,
      "contractAddress": "0xbf4a322f1496e5c3d34a9bcdb4c60567b38c7de2",
      "function": "sell(uint256)",
      "arguments": [
        "980227585053321911409"
      ],
      "transaction": {
        "from": "0xc77f7fed3b5cc8249adc428c5f44c9063b9734b4",
        "to": "0xbf4a322f1496e5c3d34a9bcdb4c60567b38c7de2",
        "gas": "0x16fea",
        "value": "0x0",
        "input": "0xe4849b320000000000000000000000000000000000000000000000352363f3233e40dc71",
        "nonce": "0xc07",
        "chainId": "0xaa36a7"
      },
      "additionalContracts": [],
      "isFixedGasLimit": false
    }
  ],
  "receipts": [
    {
      "status": "0x1",
      "cumulativeGasUsed": "0x1672bdf",
      "logs": [
        {
          "address": "0xbf4a322f1496e5c3d34a9bcdb4c60567b38c7de2",
          "topics": [
            "0xddf252ad1be2c89b69c2b068fc378daa952ba7f163c4a11628f55a4df523b3ef",
            "0x000000000000000000000000c77f7fed3b5cc8249adc428c5f44c9063b9734b4",
            "0x0000000000000000000000000000000000000000000000000000000000000000"
          ],
          "data": "0x0000000000000000000000000000000000000000000000352363f3233e40dc71",
          "blockHash": "0x77daf73a57eb6fc979f5699acd9a4ce13ce52042914091360551b04dde8516bb",
          "blockNumber": "0x725c32",
          "transactionHash": "0x8e330b00efab6efce1ae2b770eef3c5b73b2380df04291ca718fb0a040211ad0",
          "transactionIndex": "0x77",
          "logIndex": "0x108",
          "removed": false
        },
        {
          "address": "0xbf4a322f1496e5c3d34a9bcdb4c60567b38c7de2",
          "topics": [
            "0x4afcb4a87cdbd9974efdb92ee48bc8d7cd0ae4bf217004db3d080cbaee652ca7"
          ],
          "data": "0x00000000000000000000000000000000000000000000000000000000678744b40000000000000000000000000000000000000000000000000003995f9dd0dfb60000000000000000000000000000000000000000000000000dc7e3e2987036eb",
          "blockHash": "0x77daf73a57eb6fc979f5699acd9a4ce13ce52042914091360551b04dde8516bb",
          "blockNumber": "0x725c32",
          "transactionHash": "0x8e330b00efab6efce1ae2b770eef3c5b73b2380df04291ca718fb0a040211ad0",
          "transactionIndex": "0x77",
          "logIndex": "0x109",
          "removed": false
        }
      ],
      "logsBloom": "0x00000000000000000000000000000000000000000000000000000000000000000000000000000000000000000000000000000000000000004000000000000000000000000000000000000008000000000000001000000000000000000000000000000000020000000000000000000800020000000000000000000010000000000000000000000000000000000000000000000000000008000000010000000000000000000000000000000000000000004000000000000000000000000000000000000002000000800000000000001000000000000000080000000000000020000000000000000000000000000000000000000000000000000000000000000000",
      "type": "0x2",
      "transactionHash": "0x8e330b00efab6efce1ae2b770eef3c5b73b2380df04291ca718fb0a040211ad0",
      "transactionIndex": "0x77",
      "blockHash": "0x77daf73a57eb6fc979f5699acd9a4ce13ce52042914091360551b04dde8516bb",
      "blockNumber": "0x725c32",
      "gasUsed": "0xfb91",
      "effectiveGasPrice": "0xfb857037",
      "from": "0xc77f7fed3b5cc8249adc428c5f44c9063b9734b4",
      "to": "0xbf4a322f1496e5c3d34a9bcdb4c60567b38c7de2",
      "contractAddress": null
    }
  ],
  "libraries": [],
  "pending": [],
  "returns": {},
  "timestamp": 1736918197,
  "chain": 11155111,
  "commit": "51a374b"
}