{
  "transactions": [
    {
      "hash": "0x22127b5db99ca4ed6a2c5a53a53696bbeae85a273c14898b21032ed31c95d72d",
      "transactionType": "CALL",
      "contractName": null,
      "contractAddress": "0xbf4a322f1496e5c3d34a9bcdb4c60567b38c7de2",
      "function": "sell(uint256)",
      "arguments": [
        "973636395891640568808"
      ],
      "transaction": {
        "from": "0xc77f7fed3b5cc8249adc428c5f44c9063b9734b4",
        "to": "0xbf4a322f1496e5c3d34a9bcdb4c60567b38c7de2",
        "gas": "0x16fea",
        "value": "0x0",
        "input": "0xe4849b32000000000000000000000000000000000000000000000034c7eb578448d50be8",
        "nonce": "0xdf5",
        "chainId": "0xaa36a7"
      },
      "additionalContracts": [],
      "isFixedGasLimit": false
    }
  ],
  "receipts": [
    {
      "status": "0x1",
      "cumulativeGasUsed": "0x92116c",
      "logs": [
        {
          "address": "0xbf4a322f1496e5c3d34a9bcdb4c60567b38c7de2",
          "topics": [
            "0xddf252ad1be2c89b69c2b068fc378daa952ba7f163c4a11628f55a4df523b3ef",
            "0x000000000000000000000000c77f7fed3b5cc8249adc428c5f44c9063b9734b4",
            "0x0000000000000000000000000000000000000000000000000000000000000000"
          ],
          "data": "0x000000000000000000000000000000000000000000000034c7eb578448d50be8",
          "blockHash": "0x99f0b80e053176a5fd2181b4ffda4a6b9eb5f7725b36e5b4a23e4b8190992693",
          "blockNumber": "0x7266d9",
          "transactionHash": "0x22127b5db99ca4ed6a2c5a53a53696bbeae85a273c14898b21032ed31c95d72d",
          "transactionIndex": "0x46",
          "logIndex": "0x77",
          "removed": false
        },
        {
          "address": "0xbf4a322f1496e5c3d34a9bcdb4c60567b38c7de2",
          "topics": [
            "0x4afcb4a87cdbd9974efdb92ee48bc8d7cd0ae4bf217004db3d080cbaee652ca7"
          ],
          "data": "0x000000000000000000000000000000000000000000000000000000006787c56000000000000000000000000000000000000000000000000000039f9c5803f6850000000000000000000000000000000000000000000000000dc7e3d345464807",
          "blockHash": "0x99f0b80e053176a5fd2181b4ffda4a6b9eb5f7725b36e5b4a23e4b8190992693",
          "blockNumber": "0x7266d9",
          "transactionHash": "0x22127b5db99ca4ed6a2c5a53a53696bbeae85a273c14898b21032ed31c95d72d",
          "transactionIndex": "0x46",
          "logIndex": "0x78",
          "removed": false
        }
      ],
      "logsBloom": "0x00000000000000000000000000000000000000000000000000000000000000000000000000000000000000000000000000000000000000004000000000000000000000000000000000000008000000000000001000000000000000000000000000000000020000000000000000000800020000000000000000000010000000000000000000000000000000000000000000000000000008000000010000000000000000000000000000000000000000004000000000000000000000000000000000000002000000800000000000001000000000000000080000000000000020000000000000000000000000000000000000000000000000000000000000000000",
      "type": "0x2",
      "transactionHash": "0x22127b5db99ca4ed6a2c5a53a53696bbeae85a273c14898b21032ed31c95d72d",
      "transactionIndex": "0x46",
      "blockHash": "0x99f0b80e053176a5fd2181b4ffda4a6b9eb5f7725b36e5b4a23e4b8190992693",
      "blockNumber": "0x7266d9",
      "gasUsed": "0xfb91",
      "effectiveGasPrice": "0x2f84bd909",
      "from": "0xc77f7fed3b5cc8249adc428c5f44c9063b9734b4",
      "to": "0xbf4a322f1496e5c3d34a9bcdb4c60567b38c7de2",
      "contractAddress": null
    }
  ],
  "libraries": [],
  "pending": [],
  "returns": {},
  "timestamp": 1736951137,
  "chain": 11155111,
  "commit": "51a374b"
}