{
  "transactions": [
    {
      "hash": "0x06854257f1673a77b47e52286a3aea74df0e9854ce605fcc3ed6e5e11c7cdaab",
      "transactionType": "CALL",
      "contractName": null,
      "contractAddress": "0x5eb9cc76c3506942c1c0ead70e877dd5e4f00cb0",
      "function": "buy(address)",
      "arguments": [
        "0xC77f7fed3b5Cc8249aDc428c5F44C9063B9734b4"
      ],
      "transaction": {
        "from": "0xc77f7fed3b5cc8249adc428c5f44c9063b9734b4",
        "to": "0x5eb9cc76c3506942c1c0ead70e877dd5e4f00cb0",
        "gas": "0x1b30c",
        "value": "0xde0b6b3a7640000",
        "input": "0xf088d547000000000000000000000000c77f7fed3b5cc8249adc428c5f44c9063b9734b4",
        "nonce": "0x4be",
        "chainId": "0xaa36a7"
      },
      "additionalContracts": [],
      "isFixedGasLimit": false
    }
  ],
  "receipts": [
    {
      "status": "0x1",
      "cumulativeGasUsed": "0xce1a76",
      "logs": [
        {
          "address": "0x5eb9cc76c3506942c1c0ead70e877dd5e4f00cb0",
          "topics": [
            "0xddf252ad1be2c89b69c2b068fc378daa952ba7f163c4a11628f55a4df523b3ef",
            "0x0000000000000000000000000000000000000000000000000000000000000000",
            "0x000000000000000000000000c77f7fed3b5cc8249adc428c5f44c9063b9734b4"
          ],
          "data": "0x0000000000000000000000000000000000000000000000357496fba50b9b4aff",
          "blockHash": "0xf209c85be307b5d165ddb3671349505070df1a41e56fd712e1a85127275a9e6e",
          "blockNumber": "0x7250fe",
          "transactionHash": "0x06854257f1673a77b47e52286a3aea74df0e9854ce605fcc3ed6e5e11c7cdaab",
          "transactionIndex": "0x50",
          "logIndex": "0xb7",
          "removed": false
        },
        {
          "address": "0x5eb9cc76c3506942c1c0ead70e877dd5e4f00cb0",
          "topics": [
            "0xddf252ad1be2c89b69c2b068fc378daa952ba7f163c4a11628f55a4df523b3ef",
            "0x0000000000000000000000000000000000000000000000000000000000000000",
            "0x000000000000000000000000c77f7fed3b5cc8249adc428c5f44c9063b9734b4"
          ],
          "data": "0x00000000000000000000000000000000000000000000000029828cfd66faf726",
          "blockHash": "0xf209c85be307b5d165ddb3671349505070df1a41e56fd712e1a85127275a9e6e",
          "blockNumber": "0x7250fe",
          "transactionHash": "0x06854257f1673a77b47e52286a3aea74df0e9854ce605fcc3ed6e5e11c7cdaab",
          "transactionIndex": "0x50",
          "logIndex": "0xb8",
          "removed": false
        },
        {
          "address": "0x5eb9cc76c3506942c1c0ead70e877dd5e4f00cb0",
          "topics": [
            "0x4afcb4a87cdbd9974efdb92ee48bc8d7cd0ae4bf217004db3d080cbaee652ca7"
          ],
          "data": "0x000000000000000000000000000000000000000000000000000000006786bdcc0000000000000000000000000000000000000000000000000003911c9452c0cf0000000000000000000000000000000000000000000000000de0b6b3a7640000",
          "blockHash": "0xf209c85be307b5d165ddb3671349505070df1a41e56fd712e1a85127275a9e6e",
          "blockNumber": "0x7250fe",
          "transactionHash": "0x06854257f1673a77b47e52286a3aea74df0e9854ce605fcc3ed6e5e11c7cdaab",
          "transactionIndex": "0x50",
          "logIndex": "0xb9",
          "removed": false
        }
      ],
      "logsBloom": "0x00000000000000000000000000000000000000000000000000000000000000000000000000000000000000000000000000000000000000004000000000000000000000000000000000000008000000000000000000000000000000000000000000000000020000000000000004000800020000000000000000000010000000000000000000000000000000000000000000000000000000000000010000000000000000000000000000000000000000004000000000000000000000000000020000000002000000800000008000000000000000000000080000000000000020000000000000000000000000000000000000000000000000000000000000000000",
      "type": "0x2",
      "transactionHash": "0x06854257f1673a77b47e52286a3aea74df0e9854ce605fcc3ed6e5e11c7cdaab",
      "transactionIndex": "0x50",
      "blockHash": "0xf209c85be307b5d165ddb3671349505070df1a41e56fd712e1a85127275a9e6e",
      "blockNumber": "0x7250fe",
      "gasUsed": "0x13af8",
      "effectiveGasPrice": "0x2b2c82b28",
      "from": "0xc77f7fed3b5cc8249adc428c5f44c9063b9734b4",
      "to": "0x5eb9cc76c3506942c1c0ead70e877dd5e4f00cb0",
      "contractAddress": null
    }
  ],
  "libraries": [],
  "pending": [],
  "returns": {},
  "timestamp": 1736883661,
  "chain": 11155111,
  "commit": "51a374b"
}