{
  "transactions": [
    {
      "hash": "0x1f0ad6fa59ad4078d68ac2874f25a5767103de9023486c992d8ba2946dfb39a0",
      "transactionType": "CALL",
      "contractName": null,
      "contractAddress": "0x5eb9cc76c3506942c1c0ead70e877dd5e4f00cb0",
      "function": "sell(uint256)",
      "arguments": [
        "989070041557574398501"
      ],
      "transaction": {
        "from": "0xc77f7fed3b5cc8249adc428c5f44c9063b9734b4",
        "to": "0x5eb9cc76c3506942c1c0ead70e877dd5e4f00cb0",
        "gas": "0x16fec",
        "value": "0x0",
        "input": "0xe4849b320000000000000000000000000000000000000000000000359e1aaa7a9c10b225",
        "nonce": "0x4bd",
        "chainId": "0xaa36a7"
      },
      "additionalContracts": [],
      "isFixedGasLimit": false
    }
  ],
  "receipts": [
    {
      "status": "0x1",
      "cumulativeGasUsed": "0xb44fac",
      "logs": [
        {
          "address": "0x5eb9cc76c3506942c1c0ead70e877dd5e4f00cb0",
          "topics": [
            "0xddf252ad1be2c89b69c2b068fc378daa952ba7f163c4a11628f55a4df523b3ef",
            "0x000000000000000000000000c77f7fed3b5cc8249adc428c5f44c9063b9734b4",
            "0x0000000000000000000000000000000000000000000000000000000000000000"
          ],
          "data": "0x0000000000000000000000000000000000000000000000359e1aaa7a9c10b225",
          "blockHash": "0xdc64c9645d7e3640130b2919ed3492cea72d1352542c020ad9c335241136146d",
          "blockNumber": "0x7250fd",
          "transactionHash": "0x1f0ad6fa59ad4078d68ac2874f25a5767103de9023486c992d8ba2946dfb39a0",
          "transactionIndex": "0x57",
          "logIndex": "0xa9",
          "removed": false
        },
        {
          "address": "0x5eb9cc76c3506942c1c0ead70e877dd5e4f00cb0",
          "topics": [
            "0x4afcb4a87cdbd9974efdb92ee48bc8d7cd0ae4bf217004db3d080cbaee652ca7"
          ],
          "data": "0x000000000000000000000000000000000000000000000000000000006786bdc00000000000000000000000000000000000000000000000000003911c8d5f5aa80000000000000000000000000000000000000000000000000dc7db1331b22422",
          "blockHash": "0xdc64c9645d7e3640130b2919ed3492cea72d1352542c020ad9c335241136146d",
          "blockNumber": "0x7250fd",
          "transactionHash": "0x1f0ad6fa59ad4078d68ac2874f25a5767103de9023486c992d8ba2946dfb39a0",
          "transactionIndex": "0x57",
          "logIndex": "0xaa",
          "removed": false
        }
      ],
      "logsBloom": "0x00000000000000000000000000000000000000000000000000000000000000000000000000000000000000000000000000000000000000004000000000000000000000000000000000000008000000000000000000000000000000000000000000000000020000000000000004000800020000000000000000000010000000000000000000000000000000000000000000000000000000000000010000000000000000000000000000000000000000004000000000000000000000000000020000000002000000800000008000000000000000000000080000000000000020000000000000000000000000000000000000000000000000000000000000000000",
      "type": "0x2",
      "transactionHash": "0x1f0ad6fa59ad4078d68ac2874f25a5767103de9023486c992d8ba2946dfb39a0",
      "transactionIndex": "0x57",
      "blockHash": "0xdc64c9645d7e3640130b2919ed3492cea72d1352542c020ad9c335241136146d",
      "blockNumber": "0x7250fd",
      "gasUsed": "0xfb93",
      "effectiveGasPrice": "0x2bcf58df9",
      "from": "0xc77f7fed3b5cc8249adc428c5f44c9063b9734b4",
      "to": "0x5eb9cc76c3506942c1c0ead70e877dd5e4f00cb0",
      "contractAddress": null
    }
  ],
  "libraries": [],
  "pending": [],
  "returns": {},
  "timestamp": 1736883649,
  "chain": 11155111,
  "commit": "51a374b"
}