{
  "transactions": [
    {
      "hash": "0xaf674b388365a3721da815a7b76db876736ee311909971df83993f52b272a0d7",
      "transactionType": "CALL",
      "contractName": null,
      "contractAddress": "0x8aafd3ede9adb0ff97c7aebce82a919afb1c8764",
      "function": "sell(uint256)",
      "arguments": [
        "119315060478471"
      ],
      "transaction": {
        "from": "0xc77f7fed3b5cc8249adc428c5f44c9063b9734b4",
        "to": "0x8aafd3ede9adb0ff97c7aebce82a919afb1c8764",
        "gas": "0x15daa",
        "value": "0x0",
        "input": "0xe4849b3200000000000000000000000000000000000000000000000000006c8433cbd207",
        "nonce": "0x1460",
        "chainId": "0xaa36a7"
      },
      "additionalContracts": [],
      "isFixedGasLimit": false
    }
  ],
  "receipts": [
    {
      "status": "0x1",
      "cumulativeGasUsed": "0xa0cc1c",
      "logs": [
        {
          "address": "0x8aafd3ede9adb0ff97c7aebce82a919afb1c8764",
          "topics": [
            "0xddf252ad1be2c89b69c2b068fc378daa952ba7f163c4a11628f55a4df523b3ef",
            "0x000000000000000000000000c77f7fed3b5cc8249adc428c5f44c9063b9734b4",
            "0x0000000000000000000000000000000000000000000000000000000000000000"
          ],
          "data": "0x00000000000000000000000000000000000000000000000000006ba5f5f11a14",
          "blockHash": "0xfaf2bf7b0cf2807694290e1b8e9e7bf1c9f4eb238d4662a03ad3762f74943ae8",
          "blockNumber": "0x731baa",
          "transactionHash": "0xaf674b388365a3721da815a7b76db876736ee311909971df83993f52b272a0d7",
          "transactionIndex": "0x78",
          "logIndex": "0x7e",
          "removed": false
        },
        {
          "address": "0x8aafd3ede9adb0ff97c7aebce82a919afb1c8764",
          "topics": [
            "0xddf252ad1be2c89b69c2b068fc378daa952ba7f163c4a11628f55a4df523b3ef",
            "0x000000000000000000000000c77f7fed3b5cc8249adc428c5f44c9063b9734b4",
            "0x000000000000000000000000c77f7fed3b5cc8249adc428c5f44c9063b9734b4"
          ],
          "data": "0x000000000000000000000000000000000000000000000000000000de3ddab7f3",
          "blockHash": "0xfaf2bf7b0cf2807694290e1b8e9e7bf1c9f4eb238d4662a03ad3762f74943ae8",
          "blockNumber": "0x731baa",
          "transactionHash": "0xaf674b388365a3721da815a7b76db876736ee311909971df83993f52b272a0d7",
          "transactionIndex": "0x78",
          "logIndex": "0x7f",
          "removed": false
        },
        {
          "address": "0x8aafd3ede9adb0ff97c7aebce82a919afb1c8764",
          "topics": [
            "0x4afcb4a87cdbd9974efdb92ee48bc8d7cd0ae4bf217004db3d080cbaee652ca7"
          ],
          "data": "0x00000000000000000000000000000000000000000000000000000000679048d4000000000000000000000000000000000000000000000000000f3ddbbd92989e000000000000000000000000000000000000000000000000000000772e50b66f",
          "blockHash": "0xfaf2bf7b0cf2807694290e1b8e9e7bf1c9f4eb238d4662a03ad3762f74943ae8",
          "blockNumber": "0x731baa",
          "transactionHash": "0xaf674b388365a3721da815a7b76db876736ee311909971df83993f52b272a0d7",
          "transactionIndex": "0x78",
          "logIndex": "0x80",
          "removed": false
        }
      ],
      "logsBloom": "0x00000000000000000000000000000000000000000600000000000000000000000000000000000000000000000000000000000000000000004000000000000000000000000000004000000008000000000000000000000000000000000000000000000000020000000000000000000800020000000000000000000010000000000000000000000000000000000000000000000000000000000000010000000000000000000000000000000000000000004000000000000000000000000000000000000002000000800000000000000000000000000000080000000000000020000000000000000000000000000000000000000000000000000000000000000000",
      "type": "0x2",
      "transactionHash": "0xaf674b388365a3721da815a7b76db876736ee311909971df83993f52b272a0d7",
      "transactionIndex": "0x78",
      "blockHash": "0xfaf2bf7b0cf2807694290e1b8e9e7bf1c9f4eb238d4662a03ad3762f74943ae8",
      "blockNumber": "0x731baa",
      "gasUsed": "0xfd27",
      "effectiveGasPrice": "0x10ff03b27",
      "from": "0xc77f7fed3b5cc8249adc428c5f44c9063b9734b4",
      "to": "0x8aafd3ede9adb0ff97c7aebce82a919afb1c8764",
      "contractAddress": null
    }
  ],
  "libraries": [],
  "pending": [],
  "returns": {},
  "timestamp": 1737509077,
  "chain": 11155111,
  "commit": "1d2fb70"
}