{
  "transactions": [
    {
      "hash": "0xbe76d6f9cda094ddd453af529c96264d2211fe41aa8887cb4e7b0329e91cb7c4",
      "transactionType": "CALL",
      "contractName": null,
      "contractAddress": "0x8aafd3ede9adb0ff97c7aebce82a919afb1c8764",
      "function": "sell(uint256)",
      "arguments": [
        "194035877"
      ],
      "transaction": {
        "from": "0xc77f7fed3b5cc8249adc428c5f44c9063b9734b4",
        "to": "0x8aafd3ede9adb0ff97c7aebce82a919afb1c8764",
        "gas": "0x14e6c",
        "value": "0x0",
        "input": "0xe4849b32000000000000000000000000000000000000000000000000000000000b90c0a5",
        "nonce": "0xfc7",
        "chainId": "0xaa36a7"
      },
      "additionalContracts": [],
      "isFixedGasLimit": false
    }
  ],
  "receipts": [
    {
      "status": "0x1",
      "cumulativeGasUsed": "0x134ddec",
      "logs": [
        {
          "address": "0x8aafd3ede9adb0ff97c7aebce82a919afb1c8764",
          "topics": [
            "0xddf252ad1be2c89b69c2b068fc378daa952ba7f163c4a11628f55a4df523b3ef",
            "0x000000000000000000000000c77f7fed3b5cc8249adc428c5f44c9063b9734b4",
            "0x0000000000000000000000000000000000000000000000000000000000000000"
          ],
          "data": "0x000000000000000000000000000000000000000000000000000000000b791106",
          "blockHash": "0x05423309a752b366ad0f13f5db6d9f2b824617eebde9dd3114a474d4689e61f4",
          "blockNumber": "0x731633",
          "transactionHash": "0xbe76d6f9cda094ddd453af529c96264d2211fe41aa8887cb4e7b0329e91cb7c4",
          "transactionIndex": "0x8c",
          "logIndex": "0xd1",
          "removed": false
        },
        {
          "address": "0x8aafd3ede9adb0ff97c7aebce82a919afb1c8764",
          "topics": [
            "0xddf252ad1be2c89b69c2b068fc378daa952ba7f163c4a11628f55a4df523b3ef",
            "0x000000000000000000000000c77f7fed3b5cc8249adc428c5f44c9063b9734b4",
            "0x000000000000000000000000c77f7fed3b5cc8249adc428c5f44c9063b9734b4"
          ],
          "data": "0x000000000000000000000000000000000000000000000000000000000017af9f",
          "blockHash": "0x05423309a752b366ad0f13f5db6d9f2b824617eebde9dd3114a474d4689e61f4",
          "blockNumber": "0x731633",
          "transactionHash": "0xbe76d6f9cda094ddd453af529c96264d2211fe41aa8887cb4e7b0329e91cb7c4",
          "transactionIndex": "0x8c",
          "logIndex": "0xd2",
          "removed": false
        },
        {
          "address": "0x8aafd3ede9adb0ff97c7aebce82a919afb1c8764",
          "topics": [
            "0x4afcb4a87cdbd9974efdb92ee48bc8d7cd0ae4bf217004db3d080cbaee652ca7"
          ],
          "data": "0x00000000000000000000000000000000000000000000000000000000679007100000000000000000000000000000000000000000000000000004c47708e008ea000000000000000000000000000000000000000000000000000000000003f91b",
          "blockHash": "0x05423309a752b366ad0f13f5db6d9f2b824617eebde9dd3114a474d4689e61f4",
          "blockNumber": "0x731633",
          "transactionHash": "0xbe76d6f9cda094ddd453af529c96264d2211fe41aa8887cb4e7b0329e91cb7c4",
          "transactionIndex": "0x8c",
          "logIndex": "0xd3",
          "removed": false
        }
      ],
      "logsBloom": "0x00000000000000000000000000000000000000000600000000000000000000000000000000000000000000000000000000000000000000004000000000000000000000000000004000000008000000000000000000000000000000000000000000000000020000000000000000000800020000000000000000000010000000000000000000000000000000000000000000000000000000000000010000000000000000000000000000000000000000004000000000000000000000000000000000000002000000800000000000000000000000000000080000000000000020000000000000000000000000000000000000000000000000000000000000000000",
      "type": "0x2",
      "transactionHash": "0xbe76d6f9cda094ddd453af529c96264d2211fe41aa8887cb4e7b0329e91cb7c4",
      "transactionIndex": "0x8c",
      "blockHash": "0x05423309a752b366ad0f13f5db6d9f2b824617eebde9dd3114a474d4689e61f4",
      "blockNumber": "0x731633",
      "gasUsed": "0xf21f",
      "effectiveGasPrice": "0x55ef6a0e",
      "from": "0xc77f7fed3b5cc8249adc428c5f44c9063b9734b4",
      "to": "0x8aafd3ede9adb0ff97c7aebce82a919afb1c8764",
      "contractAddress": null
    }
  ],
  "libraries": [],
  "pending": [],
  "returns": {},
  "timestamp": 1737492241,
  "chain": 11155111,
  "commit": "1d2fb70"
}