{
  "transactions": [
    {
      "hash": "0x7d785eb575f57267579749f2a551363332775262410f27e4b0a47b9d0a813e54",
      "transactionType": "CALL",
      "contractName": null,
      "contractAddress": "0x8aafd3ede9adb0ff97c7aebce82a919afb1c8764",
      "function": "sell(uint256)",
      "arguments": [
        "4879359020"
      ],
      "transaction": {
        "from": "0xc77f7fed3b5cc8249adc428c5f44c9063b9734b4",
        "to": "0x8aafd3ede9adb0ff97c7aebce82a919afb1c8764",
        "gas": "0x1722a",
        "value": "0x0",
        "input": "0xe4849b320000000000000000000000000000000000000000000000000000000122d51c2c",
        "nonce": "0x1744",
        "chainId": "0xaa36a7"
      },
      "additionalContracts": [],
      "isFixedGasLimit": false
    }
  ],
  "receipts": [
    {
      "status": "0x1",
      "cumulativeGasUsed": "0xc6326a",
      "logs": [
        {
          "address": "0x8aafd3ede9adb0ff97c7aebce82a919afb1c8764",
          "topics": [
            "0xddf252ad1be2c89b69c2b068fc378daa952ba7f163c4a11628f55a4df523b3ef",
            "0x000000000000000000000000c77f7fed3b5cc8249adc428c5f44c9063b9734b4",
            "0x0000000000000000000000000000000000000000000000000000000000000000"
          ],
          "data": "0x0000000000000000000000000000000000000000000000000000000120817c34",
          "blockHash": "0xf127a95d2bc2991adc9a664891d74ec29800d2e41f2b87b3c0e582caa11c4bb5",
          "blockNumber": "0x731f12",
          "transactionHash": "0x7d785eb575f57267579749f2a551363332775262410f27e4b0a47b9d0a813e54",
          "transactionIndex": "0x6d",
          "logIndex": "0xbc",
          "removed": false
        },
        {
          "address": "0x8aafd3ede9adb0ff97c7aebce82a919afb1c8764",
          "topics": [
            "0xddf252ad1be2c89b69c2b068fc378daa952ba7f163c4a11628f55a4df523b3ef",
            "0x000000000000000000000000c77f7fed3b5cc8249adc428c5f44c9063b9734b4",
            "0x000000000000000000000000c77f7fed3b5cc8249adc428c5f44c9063b9734b4"
          ],
          "data": "0x0000000000000000000000000000000000000000000000000000000002539ff8",
          "blockHash": "0xf127a95d2bc2991adc9a664891d74ec29800d2e41f2b87b3c0e582caa11c4bb5",
          "blockNumber": "0x731f12",
          "transactionHash": "0x7d785eb575f57267579749f2a551363332775262410f27e4b0a47b9d0a813e54",
          "transactionIndex": "0x6d",
          "logIndex": "0xbd",
          "removed": false
        },
        {
          "address": "0x8aafd3ede9adb0ff97c7aebce82a919afb1c8764",
          "topics": [
            "0x4afcb4a87cdbd9974efdb92ee48bc8d7cd0ae4bf217004db3d080cbaee652ca7"
          ],
          "data": "0x00000000000000000000000000000000000000000000000000000000679071c00000000000000000000000000000000000000000000000000017cc1067b131a50000000000000000000000000000000000000000000000000000000001f2b57b",
          "blockHash": "0xf127a95d2bc2991adc9a664891d74ec29800d2e41f2b87b3c0e582caa11c4bb5",
          "blockNumber": "0x731f12",
          "transactionHash": "0x7d785eb575f57267579749f2a551363332775262410f27e4b0a47b9d0a813e54",
          "transactionIndex": "0x6d",
          "logIndex": "0xbe",
          "removed": false
        }
      ],
      "logsBloom": "0x00000000000000000000000000000000000000000600000000000000000000000000000000000000000000000000000000000000000000004000000000000000000000000000004000000008000000000000000000000000000000000000000000000000020000000000000000000800020000000000000000000010000000000000000000000000000000000000000000000000000000000000010000000000000000000000000000000000000000004000000000000000000000000000000000000002000000800000000000000000000000000000080000000000000020000000000000000000000000000000000000000000000000000000000000000000",
      "type": "0x2",
      "transactionHash": "0x7d785eb575f57267579749f2a551363332775262410f27e4b0a47b9d0a813e54",
      "transactionIndex": "0x6d",
      "blockHash": "0xf127a95d2bc2991adc9a664891d74ec29800d2e41f2b87b3c0e582caa11c4bb5",
      "blockNumber": "0x731f12",
      "gasUsed": "0xfd1b",
      "effectiveGasPrice": "0x3c775669",
      "from": "0xc77f7fed3b5cc8249adc428c5f44c9063b9734b4",
      "to": "0x8aafd3ede9adb0ff97c7aebce82a919afb1c8764",
      "contractAddress": null
    }
  ],
  "libraries": [],
  "pending": [],
  "returns": {},
  "timestamp": 1737519554,
  "chain": 11155111,
  "commit": "1d2fb70"
}