{
  "transactions": [
    {
      "hash": "0xf92e022f5dd90859a76af74296ce39391db34e12ba3abd73d2e25c1e86aed487",
      "transactionType": "CALL",
      "contractName": null,
      "contractAddress": "0x5eb9cc76c3506942c1c0ead70e877dd5e4f00cb0",
      "function": "buy(address)",
      "arguments": [
        "0xC77f7fed3b5Cc8249aDc428c5F44C9063B9734b4"
      ],
      "transaction": {
        "from": "0xc77f7fed3b5cc8249adc428c5f44c9063b9734b4",
        "to": "0x5eb9cc76c3506942c1c0ead70e877dd5e4f00cb0",
        "gas": "0x156c8",
        "value": "0xde0b6b3a7640000",
        "input": "0xf088d547000000000000000000000000c77f7fed3b5cc8249adc428c5f44c9063b9734b4",
        "nonce": "0x1dc",
        "chainId": "0xaa36a7"
      },
      "additionalContracts": [],
      "isFixedGasLimit": false
    }
  ],
  "receipts": [
    {
      "status": "0x1",
      "cumulativeGasUsed": "0xa0700d",
      "logs": [
        {
          "address": "0x5eb9cc76c3506942c1c0ead70e877dd5e4f00cb0",
          "topics": [
            "0xddf252ad1be2c89b69c2b068fc378daa952ba7f163c4a11628f55a4df523b3ef",
            "0x0000000000000000000000000000000000000000000000000000000000000000",
            "0x000000000000000000000000c77f7fed3b5cc8249adc428c5f44c9063b9734b4"
          ],
          "data": "0x000000000000000000000000000000000000000000000035a36095ef7d4222e3",
          "blockHash": "0x408ca58d830e5c965fbc9781809258d2aaf1b0aa5c5242eef0c42c08d3a8be6e",
          "blockNumber": "0x723ccf",
          "transactionHash": "0xf92e022f5dd90859a76af74296ce39391db34e12ba3abd73d2e25c1e86aed487",
          "transactionIndex": "0x54",
          "logIndex": "0x71",
          "removed": false
        },
        {
          "address": "0x5eb9cc76c3506942c1c0ead70e877dd5e4f00cb0",
          "topics": [
            "0xddf252ad1be2c89b69c2b068fc378daa952ba7f163c4a11628f55a4df523b3ef",
            "0x0000000000000000000000000000000000000000000000000000000000000000",
            "0x000000000000000000000000c77f7fed3b5cc8249adc428c5f44c9063b9734b4"
          ],
          "data": "0x00000000000000000000000000000000000000000000000029a6e201c45a96d4",
          "blockHash": "0x408ca58d830e5c965fbc9781809258d2aaf1b0aa5c5242eef0c42c08d3a8be6e",
          "blockNumber": "0x723ccf",
          "transactionHash": "0xf92e022f5dd90859a76af74296ce39391db34e12ba3abd73d2e25c1e86aed487",
          "transactionIndex": "0x54",
          "logIndex": "0x72",
          "removed": false
        },
        {
          "address": "0x5eb9cc76c3506942c1c0ead70e877dd5e4f00cb0",
          "topics": [
            "0x4afcb4a87cdbd9974efdb92ee48bc8d7cd0ae4bf217004db3d080cbaee652ca7"
          ],
          "data": "0x000000000000000000000000000000000000000000000000000000006785cb0800000000000000000000000000000000000000000000000000038e0017333b360000000000000000000000000000000000000000000000000de0b6b3a7640000",
          "blockHash": "0x408ca58d830e5c965fbc9781809258d2aaf1b0aa5c5242eef0c42c08d3a8be6e",
          "blockNumber": "0x723ccf",
          "transactionHash": "0xf92e022f5dd90859a76af74296ce39391db34e12ba3abd73d2e25c1e86aed487",
          "transactionIndex": "0x54",
          "logIndex": "0x73",
          "removed": false
        }
      ],
      "logsBloom": "0x00000000000000000000000000000000000000000000000000000000000000000000000000000000000000000000000000000000000000004000000000000000000000000000000000000008000000000000000000000000000000000000000000000000020000000000000004000800020000000000000000000010000000000000000000000000000000000000000000000000000000000000010000000000000000000000000000000000000000004000000000000000000000000000020000000002000000800000008000000000000000000000080000000000000020000000000000000000000000000000000000000000000000000000000000000000",
      "type": "0x2",
      "transactionHash": "0xf92e022f5dd90859a76af74296ce39391db34e12ba3abd73d2e25c1e86aed487",
      "transactionIndex": "0x54",
      "blockHash": "0x408ca58d830e5c965fbc9781809258d2aaf1b0aa5c5242eef0c42c08d3a8be6e",
      "blockNumber": "0x723ccf",
      "gasUsed": "0xf82c",
      "effectiveGasPrice": "0x1e6d78beb",
      "from": "0xc77f7fed3b5cc8249adc428c5f44c9063b9734b4",
      "to": "0x5eb9cc76c3506942c1c0ead70e877dd5e4f00cb0",
      "contractAddress": null
    }
  ],
  "libraries": [],
  "pending": [],
  "returns": {},
  "timestamp": 1736821513,
  "chain": 11155111,
  "commit": "51a374b"
}