{
  "transactions": [
    {
      "hash": "0x3634359e3f493d166008efe29f5f200f7226a515da9d86d2ce7107f38040433b",
      "transactionType": "CALL",
      "contractName": null,
      "contractAddress": "0x5eb9cc76c3506942c1c0ead70e877dd5e4f00cb0",
      "function": "buy(address)",
      "arguments": [
        "0xC77f7fed3b5Cc8249aDc428c5F44C9063B9734b4"
      ],
      "transaction": {
        "from": "0xc77f7fed3b5cc8249adc428c5f44c9063b9734b4",
        "to": "0x5eb9cc76c3506942c1c0ead70e877dd5e4f00cb0",
        "gas": "0x1b30c",
        "value": "0xde0b6b3a7640000",
        "input": "0xf088d547000000000000000000000000c77f7fed3b5cc8249adc428c5f44c9063b9734b4",
        "nonce": "0x25c",
        "chainId": "0xaa36a7"
      },
      "additionalContracts": [],
      "isFixedGasLimit": false
    }
  ],
  "receipts": [
    {
      "status": "0x1",
      "cumulativeGasUsed": "0x16017d9",
      "logs": [
        {
          "address": "0x5eb9cc76c3506942c1c0ead70e877dd5e4f00cb0",
          "topics": [
            "0xddf252ad1be2c89b69c2b068fc378daa952ba7f163c4a11628f55a4df523b3ef",
            "0x0000000000000000000000000000000000000000000000000000000000000000",
            "0x000000000000000000000000c77f7fed3b5cc8249adc428c5f44c9063b9734b4"
          ],
          "data": "0x0000000000000000000000000000000000000000000000357c1bb4d4300c7fc0",
          "blockHash": "0x58ae94d2cb690a7c817c41e0b66bc8d911d18293c92009526a589bb03226420e",
          "blockNumber": "0x724e17",
          "transactionHash": "0x3634359e3f493d166008efe29f5f200f7226a515da9d86d2ce7107f38040433b",
          "transactionIndex": "0x6c",
          "logIndex": "0x99",
          "removed": false
        },
        {
          "address": "0x5eb9cc76c3506942c1c0ead70e877dd5e4f00cb0",
          "topics": [
            "0xddf252ad1be2c89b69c2b068fc378daa952ba7f163c4a11628f55a4df523b3ef",
            "0x0000000000000000000000000000000000000000000000000000000000000000",
            "0x000000000000000000000000c77f7fed3b5cc8249adc428c5f44c9063b9734b4"
          ],
          "data": "0x0000000000000000000000000000000000000000000000002988639a6bb21ade",
          "blockHash": "0x58ae94d2cb690a7c817c41e0b66bc8d911d18293c92009526a589bb03226420e",
          "blockNumber": "0x724e17",
          "transactionHash": "0x3634359e3f493d166008efe29f5f200f7226a515da9d86d2ce7107f38040433b",
          "transactionIndex": "0x6c",
          "logIndex": "0x9a",
          "removed": false
        },
        {
          "address": "0x5eb9cc76c3506942c1c0ead70e877dd5e4f00cb0",
          "topics": [
            "0x4afcb4a87cdbd9974efdb92ee48bc8d7cd0ae4bf217004db3d080cbaee652ca7"
          ],
          "data": "0x0000000000000000000000000000000000000000000000000000000067869ac80000000000000000000000000000000000000000000000000003909c3852376b0000000000000000000000000000000000000000000000000de0b6b3a7640000",
          "blockHash": "0x58ae94d2cb690a7c817c41e0b66bc8d911d18293c92009526a589bb03226420e",
          "blockNumber": "0x724e17",
          "transactionHash": "0x3634359e3f493d166008efe29f5f200f7226a515da9d86d2ce7107f38040433b",
          "transactionIndex": "0x6c",
          "logIndex": "0x9b",
          "removed": false
        }
      ],
      "logsBloom": "0x00000000000000000000000000000000000000000000000000000000000000000000000000000000000000000000000000000000000000004000000000000000000000000000000000000008000000000000000000000000000000000000000000000000020000000000000004000800020000000000000000000010000000000000000000000000000000000000000000000000000000000000010000000000000000000000000000000000000000004000000000000000000000000000020000000002000000800000008000000000000000000000080000000000000020000000000000000000000000000000000000000000000000000000000000000000",
      "type": "0x2",
      "transactionHash": "0x3634359e3f493d166008efe29f5f200f7226a515da9d86d2ce7107f38040433b",
      "transactionIndex": "0x6c",
      "blockHash": "0x58ae94d2cb690a7c817c41e0b66bc8d911d18293c92009526a589bb03226420e",
      "blockNumber": "0x724e17",
      "gasUsed": "0x13af8",
      "effectiveGasPrice": "0x389f44f97",
      "from": "0xc77f7fed3b5cc8249adc428c5f44c9063b9734b4",
      "to": "0x5eb9cc76c3506942c1c0ead70e877dd5e4f00cb0",
      "contractAddress": null
    }
  ],
  "libraries": [],
  "pending": [],
  "returns": {},
  "timestamp": 1736874697,
  "chain": 11155111,
  "commit": "51a374b"
}