{
  "transactions": [
    {
      "hash": "0xb8bbaecb8b8e65fac0afe64aaae04f3ae9cc215c6de5c90a5448a30a973f8881",
      "transactionType": "CALL",
      "contractName": null,
      "contractAddress": "0xbf4a322f1496e5c3d34a9bcdb4c60567b38c7de2",
      "function": "buy(address)",
      "arguments": [
        "0xC77f7fed3b5Cc8249aDc428c5F44C9063B9734b4"
      ],
      "transaction": {
        "from": "0xc77f7fed3b5cc8249adc428c5f44c9063b9734b4",
        "to": "0xbf4a322f1496e5c3d34a9bcdb4c60567b38c7de2",
        "gas": "0x1b309",
        "value": "0xde0b6b3a7640000",
        "input": "0xf088d547000000000000000000000000c77f7fed3b5cc8249adc428c5f44c9063b9734b4",
        "nonce": "0xd7e",
        "chainId": "0xaa36a7"
      },
      "additionalContracts": [],
      "isFixedGasLimit": false
    }
  ],
  "receipts": [
    {
      "status": "0x1",
      "cumulativeGasUsed": "0xd3ba4d",
      "logs": [
        {
          "address": "0xbf4a322f1496e5c3d34a9bcdb4c60567b38c7de2",
          "topics": [
            "0xddf252ad1be2c89b69c2b068fc378daa952ba7f163c4a11628f55a4df523b3ef",
            "0x0000000000000000000000000000000000000000000000000000000000000000",
            "0x000000000000000000000000c77f7fed3b5cc8249adc428c5f44c9063b9734b4"
          ],
          "data": "0x000000000000000000000000000000000000000000000034b4ba8d713c79c4dc",
          "blockHash": "0x05ed27d0b9f2e7b43e3ac1273c6351d930dc472b0f6a8240dd251509af46a10b",
          "blockNumber": "0x72664d",
          "transactionHash": "0xb8bbaecb8b8e65fac0afe64aaae04f3ae9cc215c6de5c90a5448a30a973f8881",
          "transactionIndex": "0x55",
          "logIndex": "0xa4",
          "removed": false
        },
        {
          "address": "0xbf4a322f1496e5c3d34a9bcdb4c60567b38c7de2",
          "topics": [
            "0xddf252ad1be2c89b69c2b068fc378daa952ba7f163c4a11628f55a4df523b3ef",
            "0x0000000000000000000000000000000000000000000000000000000000000000",
            "0x000000000000000000000000c77f7fed3b5cc8249adc428c5f44c9063b9734b4"
          ],
          "data": "0x00000000000000000000000000000000000000000000000028ed9067fec9226e",
          "blockHash": "0x05ed27d0b9f2e7b43e3ac1273c6351d930dc472b0f6a8240dd251509af46a10b",
          "blockNumber": "0x72664d",
          "transactionHash": "0xb8bbaecb8b8e65fac0afe64aaae04f3ae9cc215c6de5c90a5448a30a973f8881",
          "transactionIndex": "0x55",
          "logIndex": "0xa5",
          "removed": false
        },
        {
          "address": "0xbf4a322f1496e5c3d34a9bcdb4c60567b38c7de2",
          "topics": [
            "0x4afcb4a87cdbd9974efdb92ee48bc8d7cd0ae4bf217004db3d080cbaee652ca7"
          ],
          "data": "0x000000000000000000000000000000000000000000000000000000006787be4c00000000000000000000000000000000000000000000000000039e1acd79ad280000000000000000000000000000000000000000000000000de0b6b3a7640000",
          "blockHash": "0x05ed27d0b9f2e7b43e3ac1273c6351d930dc472b0f6a8240dd251509af46a10b",
          "blockNumber": "0x72664d",
          "transactionHash": "0xb8bbaecb8b8e65fac0afe64aaae04f3ae9cc215c6de5c90a5448a30a973f8881",
          "transactionIndex": "0x55",
          "logIndex": "0xa6",
          "removed": false
        }
      ],
      "logsBloom": "0x00000000000000000000000000000000000000000000000000000000000000000000000000000000000000000000000000000000000000004000000000000000000000000000000000000008000000000000001000000000000000000000000000000000020000000000000000000800020000000000000000000010000000000000000000000000000000000000000000000000000008000000010000000000000000000000000000000000000000004000000000000000000000000000000000000002000000800000000000001000000000000000080000000000000020000000000000000000000000000000000000000000000000000000000000000000",
      "type": "0x2",
      "transactionHash": "0xb8bbaecb8b8e65fac0afe64aaae04f3ae9cc215c6de5c90a5448a30a973f8881",
      "transactionIndex": "0x55",
      "blockHash": "0x05ed27d0b9f2e7b43e3ac1273c6351d930dc472b0f6a8240dd251509af46a10b",
      "blockNumber": "0x72664d",
      "gasUsed": "0x13af6",
      "effectiveGasPrice": "0x9035b003",
      "from": "0xc77f7fed3b5cc8249adc428c5f44c9063b9734b4",
      "to": "0xbf4a322f1496e5c3d34a9bcdb4c60567b38c7de2",
      "contractAddress": null
    }
  ],
  "libraries": [],
  "pending": [],
  "returns": {},
  "timestamp": 1736949326,
  "chain": 11155111,
  "commit": "51a374b"
}