{
  "transactions": [
    {
      "hash": "0x2407fd08eda1840cad29f1ba6c418d892e4f641870c7991a9b5871ad3f5395c7",
      "transactionType": "CALL",
      "contractName": null,
      "contractAddress": "0x8aafd3ede9adb0ff97c7aebce82a919afb1c8764",
      "function": "sell(uint256)",
      "arguments": [
        "12428"
      ],
      "transaction": {
        "from": "0xc77f7fed3b5cc8249adc428c5f44c9063b9734b4",
        "to": "0x8aafd3ede9adb0ff97c7aebce82a919afb1c8764",
        "gas": "0x14e4c",
        "value": "0x0",
        "input": "0xe4849b32000000000000000000000000000000000000000000000000000000000000308c",
        "nonce": "0xfab",
        "chainId": "0xaa36a7"
      },
      "additionalContracts": [],
      "isFixedGasLimit": false
    }
  ],
  "receipts": [
    {
      "status": "0x1",
      "cumulativeGasUsed": "0xd1b5ae",
      "logs": [
        {
          "address": "0x8aafd3ede9adb0ff97c7aebce82a919afb1c8764",
          "topics": [
            "0xddf252ad1be2c89b69c2b068fc378daa952ba7f163c4a11628f55a4df523b3ef",
            "0x000000000000000000000000c77f7fed3b5cc8249adc428c5f44c9063b9734b4",
            "0x0000000000000000000000000000000000000000000000000000000000000000"
          ],
          "data": "0x0000000000000000000000000000000000000000000000000000000000003029",
          "blockHash": "0x59a5cf7b7e363a149c82fe93f90969bb108a1238856a239fbee5909ad0f5f8c6",
          "blockNumber": "0x731614",
          "transactionHash": "0x2407fd08eda1840cad29f1ba6c418d892e4f641870c7991a9b5871ad3f5395c7",
          "transactionIndex": "0x7d",
          "logIndex": "0xdf",
          "removed": false
        },
        {
          "address": "0x8aafd3ede9adb0ff97c7aebce82a919afb1c8764",
          "topics": [
            "0xddf252ad1be2c89b69c2b068fc378daa952ba7f163c4a11628f55a4df523b3ef",
            "0x000000000000000000000000c77f7fed3b5cc8249adc428c5f44c9063b9734b4",
            "0x000000000000000000000000c77f7fed3b5cc8249adc428c5f44c9063b9734b4"
          ],
          "data": "0x0000000000000000000000000000000000000000000000000000000000000063",
          "blockHash": "0x59a5cf7b7e363a149c82fe93f90969bb108a1238856a239fbee5909ad0f5f8c6",
          "blockNumber": "0x731614",
          "transactionHash": "0x2407fd08eda1840cad29f1ba6c418d892e4f641870c7991a9b5871ad3f5395c7",
          "transactionIndex": "0x7d",
          "logIndex": "0xe0",
          "removed": false
        },
        {
          "address": "0x8aafd3ede9adb0ff97c7aebce82a919afb1c8764",
          "topics": [
            "0x4afcb4a87cdbd9974efdb92ee48bc8d7cd0ae4bf217004db3d080cbaee652ca7"
          ],
          "data": "0x000000000000000000000000000000000000000000000000000000006790059c0000000000000000000000000000000000000000000000000004c37b31ab97bc0000000000000000000000000000000000000000000000000000000000000010",
          "blockHash": "0x59a5cf7b7e363a149c82fe93f90969bb108a1238856a239fbee5909ad0f5f8c6",
          "blockNumber": "0x731614",
          "transactionHash": "0x2407fd08eda1840cad29f1ba6c418d892e4f641870c7991a9b5871ad3f5395c7",
          "transactionIndex": "0x7d",
          "logIndex": "0xe1",
          "removed": false
        }
      ],
      "logsBloom": "0x00000000000000000000000000000000000000000600000000000000000000000000000000000000000000000000000000000000000000004000000000000000000000000000004000000008000000000000000000000000000000000000000000000000020000000000000000000800020000000000000000000010000000000000000000000000000000000000000000000000000000000000010000000000000000000000000000000000000000004000000000000000000000000000000000000002000000800000000000000000000000000000080000000000000020000000000000000000000000000000000000000000000000000000000000000000",
      "type": "0x2",
      "transactionHash": "0x2407fd08eda1840cad29f1ba6c418d892e4f641870c7991a9b5871ad3f5395c7",
      "transactionIndex": "0x7d",
      "blockHash": "0x59a5cf7b7e363a149c82fe93f90969bb108a1238856a239fbee5909ad0f5f8c6",
      "blockNumber": "0x731614",
      "gasUsed": "0xf207",
      "effectiveGasPrice": "0x645d7edd",
      "from": "0xc77f7fed3b5cc8249adc428c5f44c9063b9734b4",
      "to": "0x8aafd3ede9adb0ff97c7aebce82a919afb1c8764",
      "contractAddress": null
    }
  ],
  "libraries": [],
  "pending": [],
  "returns": {},
  "timestamp": 1737491869,
  "chain": 11155111,
  "commit": "1d2fb70"
}