{
  "transactions": [
    {
      "hash": "0x34077a75b6fbb823cccb9435f724dedf86409c271c51431d27d18640f7aba868",
      "transactionType": "CALL",
      "contractName": null,
      "contractAddress": "0x270e88f8683660553e8ba4eb2ad7c91a1710d769",
      "function": "sell(uint256)",
      "arguments": [
        "824624452066399857969"
      ],
      "transaction": {
        "from": "0xc77f7fed3b5cc8249adc428c5f44c9063b9734b4",
        "to": "0x270e88f8683660553e8ba4eb2ad7c91a1710d769",
        "gas": "0x16fec",
        "value": "0x0",
        "input": "0xe4849b3200000000000000000000000000000000000000000000002cb3f6921b56e5ad31",
        "nonce": "0x65d",
        "chainId": "0xaa36a7"
      },
      "additionalContracts": [],
      "isFixedGasLimit": false
    }
  ],
  "receipts": [
    {
      "status": "0x1",
      "cumulativeGasUsed": "0x79c9d1",
      "logs": [
        {
          "address": "0x270e88f8683660553e8ba4eb2ad7c91a1710d769",
          "topics": [
            "0xddf252ad1be2c89b69c2b068fc378daa952ba7f163c4a11628f55a4df523b3ef",
            "0x000000000000000000000000c77f7fed3b5cc8249adc428c5f44c9063b9734b4",
            "0x0000000000000000000000000000000000000000000000000000000000000000"
          ],
          "data": "0x00000000000000000000000000000000000000000000002cb3f6921b56e5ad31",
          "blockHash": "0x2e2ecd185c07807c9aed1dfd44afc7ff7b6f5ec6cbb0066aead5a5395160fb92",
          "blockNumber": "0x725351",
          "transactionHash": "0x34077a75b6fbb823cccb9435f724dedf86409c271c51431d27d18640f7aba868",
          "transactionIndex": "0x4a",
          "logIndex": "0x94",
          "removed": false
        },
        {
          "address": "0x270e88f8683660553e8ba4eb2ad7c91a1710d769",
          "topics": [
            "0x4afcb4a87cdbd9974efdb92ee48bc8d7cd0ae4bf217004db3d080cbaee652ca7"
          ],
          "data": "0x000000000000000000000000000000000000000000000000000000006786d9d40000000000000000000000000000000000000000000000000004473913f228ae0000000000000000000000000000000000000000000000000dc7e0f93bc84dba",
          "blockHash": "0x2e2ecd185c07807c9aed1dfd44afc7ff7b6f5ec6cbb0066aead5a5395160fb92",
          "blockNumber": "0x725351",
          "transactionHash": "0x34077a75b6fbb823cccb9435f724dedf86409c271c51431d27d18640f7aba868",
          "transactionIndex": "0x4a",
          "logIndex": "0x95",
          "removed": false
        }
      ],
      "logsBloom": "0x00000000000000000000000000000000000000000000000000000000000000000000000000000000000000000000000020000000000000004000000000000000000000000000000000000008000000000000000000000000000000000000000000000000020000000000000000000800020000000000000000000010000000000000000000010000000000000000000000000000000000000000010000000000000000000000000000000000000000004000000000000000000000000000000000000002000000800000000000000000000000000000080000008000000020000000000000000000000000000000000000000000000000000000000000000000",
      "type": "0x2",
      "transactionHash": "0x34077a75b6fbb823cccb9435f724dedf86409c271c51431d27d18640f7aba868",
      "transactionIndex": "0x4a",
      "blockHash": "0x2e2ecd185c07807c9aed1dfd44afc7ff7b6f5ec6cbb0066aead5a5395160fb92",
      "blockNumber": "0x725351",
      "gasUsed": "0xfb93",
      "effectiveGasPrice": "0x3d97b3247",
      "from": "0xc77f7fed3b5cc8249adc428c5f44c9063b9734b4",
      "to": "0x270e88f8683660553e8ba4eb2ad7c91a1710d769",
      "contractAddress": null
    }
  ],
  "libraries": [],
  "pending": [],
  "returns": {},
  "timestamp": 1736890839,
  "chain": 11155111,
  "commit": "51a374b"
}