{
  "transactions": [
    {
      "hash": "0x2c8272c3958dda2937a7b64a961594c462cffa13ca0444b36a32ecd77ababac1",
      "transactionType": "CALL",
      "contractName": null,
      "contractAddress": "0x270e88f8683660553e8ba4eb2ad7c91a1710d769",
      "function": "sell(uint256)",
      "arguments": [
        "750375889345016209257"
      ],
      "transaction": {
        "from": "0xc77f7fed3b5cc8249adc428c5f44c9063b9734b4",
        "to": "0x270e88f8683660553e8ba4eb2ad7c91a1710d769",
        "gas": "0x16fec",
        "value": "0x0",
        "input": "0xe4849b32000000000000000000000000000000000000000000000028ad8eafb28b839f69",
        "nonce": "0x6c8",
        "chainId": "0xaa36a7"
      },
      "additionalContracts": [],
      "isFixedGasLimit": false
    }
  ],
  "receipts": [
    {
      "status": "0x1",
      "cumulativeGasUsed": "0xa29423",
      "logs": [
        {
          "address": "0x270e88f8683660553e8ba4eb2ad7c91a1710d769",
          "topics": [
            "0xddf252ad1be2c89b69c2b068fc378daa952ba7f163c4a11628f55a4df523b3ef",
            "0x000000000000000000000000c77f7fed3b5cc8249adc428c5f44c9063b9734b4",
            "0x0000000000000000000000000000000000000000000000000000000000000000"
          ],
          "data": "0x000000000000000000000000000000000000000000000028ad8eafb28b839f69",
          "blockHash": "0xc24b916100c08ff0fa2e72daf525131d54b68c729bae5e740f9b4add01b6efb5",
          "blockNumber": "0x7253d6",
          "transactionHash": "0x2c8272c3958dda2937a7b64a961594c462cffa13ca0444b36a32ecd77ababac1",
          "transactionIndex": "0x68",
          "logIndex": "0x92",
          "removed": false
        },
        {
          "address": "0x270e88f8683660553e8ba4eb2ad7c91a1710d769",
          "topics": [
            "0x4afcb4a87cdbd9974efdb92ee48bc8d7cd0ae4bf217004db3d080cbaee652ca7"
          ],
          "data": "0x000000000000000000000000000000000000000000000000000000006786e0100000000000000000000000000000000000000000000000000004b3dd45097d0f0000000000000000000000000000000000000000000000000dc82992d46bd190",
          "blockHash": "0xc24b916100c08ff0fa2e72daf525131d54b68c729bae5e740f9b4add01b6efb5",
          "blockNumber": "0x7253d6",
          "transactionHash": "0x2c8272c3958dda2937a7b64a961594c462cffa13ca0444b36a32ecd77ababac1",
          "transactionIndex": "0x68",
          "logIndex": "0x93",
          "removed": false
        }
      ],
      "logsBloom": "0x00000000000000000000000000000000000000000000000000000000000000000000000000000000000000000000000020000000000000004000000000000000000000000000000000000008000000000000000000000000000000000000000000000000020000000000000000000800020000000000000000000010000000000000000000010000000000000000000000000000000000000000010000000000000000000000000000000000000000004000000000000000000000000000000000000002000000800000000000000000000000000000080000008000000020000000000000000000000000000000000000000000000000000000000000000000",
      "type": "0x2",
      "transactionHash": "0x2c8272c3958dda2937a7b64a961594c462cffa13ca0444b36a32ecd77ababac1",
      "transactionIndex": "0x68",
      "blockHash": "0xc24b916100c08ff0fa2e72daf525131d54b68c729bae5e740f9b4add01b6efb5",
      "blockNumber": "0x7253d6",
      "gasUsed": "0xfb93",
      "effectiveGasPrice": "0x15ce16b4f",
      "from": "0xc77f7fed3b5cc8249adc428c5f44c9063b9734b4",
      "to": "0x270e88f8683660553e8ba4eb2ad7c91a1710d769",
      "contractAddress": null
    }
  ],
  "libraries": [],
  "pending": [],
  "returns": {},
  "timestamp": 1736892434,
  "chain": 11155111,
  "commit": "51a374b"
}