{
  "transactions": [
    {
      "hash": "0x4a9b09d5dc706ccfc9c050469ec087715b2dc070f5c5fcb8e8cf2bee38ce3a82",
      "transactionType": "CALL",
      "contractName": null,
      "contractAddress": "0x270e88f8683660553e8ba4eb2ad7c91a1710d769",
      "function": "sell(uint256)",
      "arguments": [
        "716707633043898976407"
      ],
      "transaction": {
        "from": "0xc77f7fed3b5cc8249adc428c5f44c9063b9734b4",
        "to": "0x270e88f8683660553e8ba4eb2ad7c91a1710d769",
        "gas": "0x16fec",
        "value": "0x0",
        "input": "0xe4849b32000000000000000000000000000000000000000000000026da5102f9409d4897",
        "nonce": "0x84a",
        "chainId": "0xaa36a7"
      },
      "additionalContracts": [],
      "isFixedGasLimit": false
    }
  ],
  "receipts": [
    {
      "status": "0x1",
      "cumulativeGasUsed": "0x58778a",
      "logs": [
        {
          "address": "0x270e88f8683660553e8ba4eb2ad7c91a1710d769",
          "topics": [
            "0xddf252ad1be2c89b69c2b068fc378daa952ba7f163c4a11628f55a4df523b3ef",
            "0x000000000000000000000000c77f7fed3b5cc8249adc428c5f44c9063b9734b4",
            "0x0000000000000000000000000000000000000000000000000000000000000000"
          ],
          "data": "0x000000000000000000000000000000000000000000000026da5102f9409d4897",
          "blockHash": "0x05ce036e96f494017aad6bd959432595745ba27de9c9e3ca2c115664a2bd53b7",
          "blockNumber": "0x72559a",
          "transactionHash": "0x4a9b09d5dc706ccfc9c050469ec087715b2dc070f5c5fcb8e8cf2bee38ce3a82",
          "transactionIndex": "0x3c",
          "logIndex": "0x4f",
          "removed": false
        },
        {
          "address": "0x270e88f8683660553e8ba4eb2ad7c91a1710d769",
          "topics": [
            "0x4afcb4a87cdbd9974efdb92ee48bc8d7cd0ae4bf217004db3d080cbaee652ca7"
          ],
          "data": "0x000000000000000000000000000000000000000000000000000000006786f5400000000000000000000000000000000000000000000000000004ec6758a1c36b0000000000000000000000000000000000000000000000000dc826169ef5d13b",
          "blockHash": "0x05ce036e96f494017aad6bd959432595745ba27de9c9e3ca2c115664a2bd53b7",
          "blockNumber": "0x72559a",
          "transactionHash": "0x4a9b09d5dc706ccfc9c050469ec087715b2dc070f5c5fcb8e8cf2bee38ce3a82",
          "transactionIndex": "0x3c",
          "logIndex": "0x50",
          "removed": false
        }
      ],
      "logsBloom": "0x00000000000000000000000000000000000000000000000000000000000000000000000000000000000000000000000020000000000000004000000000000000000000000000000000000008000000000000000000000000000000000000000000000000020000000000000000000800020000000000000000000010000000000000000000010000000000000000000000000000000000000000010000000000000000000000000000000000000000004000000000000000000000000000000000000002000000800000000000000000000000000000080000008000000020000000000000000000000000000000000000000000000000000000000000000000",
      "type": "0x2",
      "transactionHash": "0x4a9b09d5dc706ccfc9c050469ec087715b2dc070f5c5fcb8e8cf2bee38ce3a82",
      "transactionIndex": "0x3c",
      "blockHash": "0x05ce036e96f494017aad6bd959432595745ba27de9c9e3ca2c115664a2bd53b7",
      "blockNumber": "0x72559a",
      "gasUsed": "0xfb93",
      "effectiveGasPrice": "0x705a74c4",
      "from": "0xc77f7fed3b5cc8249adc428c5f44c9063b9734b4",
      "to": "0x270e88f8683660553e8ba4eb2ad7c91a1710d769",
      "contractAddress": null
    }
  ],
  "libraries": [],
  "pending": [],
  "returns": {},
  "timestamp": 1736897857,
  "chain": 11155111,
  "commit": "51a374b"
}