{
  "transactions": [
    {
      "hash": "0x748cbe07ced9d6dff4736e16d5cea6dea69d52ee286390b597eb0567c1271174",
      "transactionType": "CALL",
      "contractName": null,
      "contractAddress": "0x8aafd3ede9adb0ff97c7aebce82a919afb1c8764",
      "function": "sell(uint256)",
      "arguments": [
        "143173186747859591169"
      ],
      "transaction": {
        "from": "0xc77f7fed3b5cc8249adc428c5f44c9063b9734b4",
        "to": "0x8aafd3ede9adb0ff97c7aebce82a919afb1c8764",
        "gas": "0x17270",
        "value": "0x0",
        "input": "0xe4849b32000000000000000000000000000000000000000000000007c2ed56c87ad5e001",
        "nonce": "0x1790",
        "chainId": "0xaa36a7"
      },
      "additionalContracts": [],
      "isFixedGasLimit": false
    }
  ],
  "receipts": [
    {
      "status": "0x1",
      "cumulativeGasUsed": "0xfdfed9",
      "logs": [
        {
          "address": "0x8aafd3ede9adb0ff97c7aebce82a919afb1c8764",
          "topics": [
            "0xddf252ad1be2c89b69c2b068fc378daa952ba7f163c4a11628f55a4df523b3ef",
            "0x000000000000000000000000c77f7fed3b5cc8249adc428c5f44c9063b9734b4",
            "0x0000000000000000000000000000000000000000000000000000000000000000"
          ],
          "data": "0x000000000000000000000000000000000000000000000007b3081cbeaf19cbc8",
          "blockHash": "0x178cd4c33506896e9928948182f3423635cc5121826c9220802f422c55bf0d46",
          "blockNumber": "0x731f6c",
          "transactionHash": "0x748cbe07ced9d6dff4736e16d5cea6dea69d52ee286390b597eb0567c1271174",
          "transactionIndex": "0x84",
          "logIndex": "0xda",
          "removed": false
        },
        {
          "address": "0x8aafd3ede9adb0ff97c7aebce82a919afb1c8764",
          "topics": [
            "0xddf252ad1be2c89b69c2b068fc378daa952ba7f163c4a11628f55a4df523b3ef",
            "0x000000000000000000000000c77f7fed3b5cc8249adc428c5f44c9063b9734b4",
            "0x000000000000000000000000c77f7fed3b5cc8249adc428c5f44c9063b9734b4"
          ],
          "data": "0x0000000000000000000000000000000000000000000000000fe53a09cbbc1439",
          "blockHash": "0x178cd4c33506896e9928948182f3423635cc5121826c9220802f422c55bf0d46",
          "blockNumber": "0x731f6c",
          "transactionHash": "0x748cbe07ced9d6dff4736e16d5cea6dea69d52ee286390b597eb0567c1271174",
          "transactionIndex": "0x84",
          "logIndex": "0xdb",
          "removed": false
        },
        {
          "address": "0x8aafd3ede9adb0ff97c7aebce82a919afb1c8764",
          "topics": [
            "0x4afcb4a87cdbd9974efdb92ee48bc8d7cd0ae4bf217004db3d080cbaee652ca7"
          ],
          "data": "0x00000000000000000000000000000000000000000000000000000000679075f80000000000000000000000000000000000000000000000000018becf2dfb6fd60000000000000000000000000000000000000000000000000dcbbefeaf9d4f2f",
          "blockHash": "0x178cd4c33506896e9928948182f3423635cc5121826c9220802f422c55bf0d46",
          "blockNumber": "0x731f6c",
          "transactionHash": "0x748cbe07ced9d6dff4736e16d5cea6dea69d52ee286390b597eb0567c1271174",
          "transactionIndex": "0x84",
          "logIndex": "0xdc",
          "removed": false
        }
      ],
      "logsBloom": "0x00000000000000000000000000000000000000000600000000000000000000000000000000000000000000000000000000000000000000004000000000000000000000000000004000000008000000000000000000000000000000000000000000000000020000000000000000000800020000000000000000000010000000000000000000000000000000000000000000000000000000000000010000000000000000000000000000000000000000004000000000000000000000000000000000000002000000800000000000000000000000000000080000000000000020000000000000000000000000000000000000000000000000000000000000000000",
      "type": "0x2",
      "transactionHash": "0x748cbe07ced9d6dff4736e16d5cea6dea69d52ee286390b597eb0567c1271174",
      "transactionIndex": "0x84",
      "blockHash": "0x178cd4c33506896e9928948182f3423635cc5121826c9220802f422c55bf0d46",
      "blockNumber": "0x731f6c",
      "gasUsed": "0xfd4b",
      "effectiveGasPrice": "0x4772292d",
      "from": "0xc77f7fed3b5cc8249adc428c5f44c9063b9734b4",
      "to": "0x8aafd3ede9adb0ff97c7aebce82a919afb1c8764",
      "contractAddress": null
    }
  ],
  "libraries": [],
  "pending": [],
  "returns": {},
  "timestamp": 1737520633,
  "chain": 11155111,
  "commit": "1d2fb70"
}