{
  "transactions": [
    {
      "hash": "0x12f234a60ffdca30992a8ade80c7d6e96f12e674f9673266b805ab0b662e5004",
      "transactionType": "CALL",
      "contractName": null,
      "contractAddress": "0x270e88f8683660553e8ba4eb2ad7c91a1710d769",
      "function": "sell(uint256)",
      "arguments": [
        "970830809288553283357"
      ],
      "transaction": {
        "from": "0xc77f7fed3b5cc8249adc428c5f44c9063b9734b4",
        "to": "0x270e88f8683660553e8ba4eb2ad7c91a1710d769",
        "gas": "0x16fec",
        "value": "0x0",
        "input": "0xe4849b32000000000000000000000000000000000000000000000034a0fbe55da9383f1d",
        "nonce": "0x563",
        "chainId": "0xaa36a7"
      },
      "additionalContracts": [],
      "isFixedGasLimit": false
    }
  ],
  "receipts": [
    {
      "status": "0x1",
      "cumulativeGasUsed": "0x1d88b17",
      "logs": [
        {
          "address": "0x270e88f8683660553e8ba4eb2ad7c91a1710d769",
          "topics": [
            "0xddf252ad1be2c89b69c2b068fc378daa952ba7f163c4a11628f55a4df523b3ef",
            "0x000000000000000000000000c77f7fed3b5cc8249adc428c5f44c9063b9734b4",
            "0x0000000000000000000000000000000000000000000000000000000000000000"
          ],
          "data": "0x000000000000000000000000000000000000000000000034a0fbe55da9383f1d",
          "blockHash": "0xd693df3542e7a100e9dc587a371be1018d16058ffd066f5067cc66ecf64b5ee0",
          "blockNumber": "0x725208",
          "transactionHash": "0x12f234a60ffdca30992a8ade80c7d6e96f12e674f9673266b805ab0b662e5004",
          "transactionIndex": "0xac",
          "logIndex": "0x149",
          "removed": false
        },
        {
          "address": "0x270e88f8683660553e8ba4eb2ad7c91a1710d769",
          "topics": [
            "0x4afcb4a87cdbd9974efdb92ee48bc8d7cd0ae4bf217004db3d080cbaee652ca7"
          ],
          "data": "0x000000000000000000000000000000000000000000000000000000006786ca500000000000000000000000000000000000000000000000000003a28f0214ec230000000000000000000000000000000000000000000000000dc8404c89396f67",
          "blockHash": "0xd693df3542e7a100e9dc587a371be1018d16058ffd066f5067cc66ecf64b5ee0",
          "blockNumber": "0x725208",
          "transactionHash": "0x12f234a60ffdca30992a8ade80c7d6e96f12e674f9673266b805ab0b662e5004",
          "transactionIndex": "0xac",
          "logIndex": "0x14a",
          "removed": false
        }
      ],
      "logsBloom": "0x00000000000000000000000000000000000000000000000000000000000000000000000000000000000000000000000020000000000000004000000000000000000000000000000000000008000000000000000000000000000000000000000000000000020000000000000000000800020000000000000000000010000000000000000000010000000000000000000000000000000000000000010000000000000000000000000000000000000000004000000000000000000000000000000000000002000000800000000000000000000000000000080000008000000020000000000000000000000000000000000000000000000000000000000000000000",
      "type": "0x2",
      "transactionHash": "0x12f234a60ffdca30992a8ade80c7d6e96f12e674f9673266b805ab0b662e5004",
      "transactionIndex": "0xac",
      "blockHash": "0xd693df3542e7a100e9dc587a371be1018d16058ffd066f5067cc66ecf64b5ee0",
      "blockNumber": "0x725208",
      "gasUsed": "0xfb93",
      "effectiveGasPrice": "0x3e8afa909",
      "from": "0xc77f7fed3b5cc8249adc428c5f44c9063b9734b4",
      "to": "0x270e88f8683660553e8ba4eb2ad7c91a1710d769",
      "contractAddress": null
    }
  ],
  "libraries": [],
  "pending": [],
  "returns": {},
  "timestamp": 1736886865,
  "chain": 11155111,
  "commit": "51a374b"
}