{
  "transactions": [
    {
      "hash": "0x23a11a5d9a10b525e468e791aa096211d689729f9c6bdcbaffb72ad6769bc069",
      "transactionType": "CALL",
      "contractName": null,
      "contractAddress": "0x8aafd3ede9adb0ff97c7aebce82a919afb1c8764",
      "function": "sell(uint256)",
      "arguments": [
        "740984701516848868067"
      ],
      "transaction": {
        "from": "0xc77f7fed3b5cc8249adc428c5f44c9063b9734b4",
        "to": "0x8aafd3ede9adb0ff97c7aebce82a919afb1c8764",
        "gas": "0x17270",
        "value": "0x0",
        "input": "0xe4849b320000000000000000000000000000000000000000000000282b3a7c1fd6a0aae3",
        "nonce": "0xf99",
        "chainId": "0xaa36a7"
      },
      "additionalContracts": [],
      "isFixedGasLimit": false
    }
  ],
  "receipts": [
    {
      "status": "0x1",
      "cumulativeGasUsed": "0xc47bbb",
      "logs": [
        {
          "address": "0x8aafd3ede9adb0ff97c7aebce82a919afb1c8764",
          "topics": [
            "0xddf252ad1be2c89b69c2b068fc378daa952ba7f163c4a11628f55a4df523b3ef",
            "0x000000000000000000000000c77f7fed3b5cc8249adc428c5f44c9063b9734b4",
            "0x0000000000000000000000000000000000000000000000000000000000000000"
          ],
          "data": "0x000000000000000000000000000000000000000000000027d8f66ed7e757b3c3",
          "blockHash": "0xa6555f572e4d05749a4ec55cf56389b354ec32a9a4c518a453d4e51a4945396e",
          "blockNumber": "0x7315fe",
          "transactionHash": "0x23a11a5d9a10b525e468e791aa096211d689729f9c6bdcbaffb72ad6769bc069",
          "transactionIndex": "0x8a",
          "logIndex": "0xaa",
          "removed": false
        },
        {
          "address": "0x8aafd3ede9adb0ff97c7aebce82a919afb1c8764",
          "topics": [
            "0xddf252ad1be2c89b69c2b068fc378daa952ba7f163c4a11628f55a4df523b3ef",
            "0x000000000000000000000000c77f7fed3b5cc8249adc428c5f44c9063b9734b4",
            "0x000000000000000000000000c77f7fed3b5cc8249adc428c5f44c9063b9734b4"
          ],
          "data": "0x00000000000000000000000000000000000000000000000052440d47ef48f720",
          "blockHash": "0xa6555f572e4d05749a4ec55cf56389b354ec32a9a4c518a453d4e51a4945396e",
          "blockNumber": "0x7315fe",
          "transactionHash": "0x23a11a5d9a10b525e468e791aa096211d689729f9c6bdcbaffb72ad6769bc069",
          "transactionIndex": "0x8a",
          "logIndex": "0xab",
          "removed": false
        },
        {
          "address": "0x8aafd3ede9adb0ff97c7aebce82a919afb1c8764",
          "topics": [
            "0x4afcb4a87cdbd9974efdb92ee48bc8d7cd0ae4bf217004db3d080cbaee652ca7"
          ],
          "data": "0x00000000000000000000000000000000000000000000000000000000679004940000000000000000000000000000000000000000000000000004c326c50ca2bc0000000000000000000000000000000000000000000000000dc8213657278754",
          "blockHash": "0xa6555f572e4d05749a4ec55cf56389b354ec32a9a4c518a453d4e51a4945396e",
          "blockNumber": "0x7315fe",
          "transactionHash": "0x23a11a5d9a10b525e468e791aa096211d689729f9c6bdcbaffb72ad6769bc069",
          "transactionIndex": "0x8a",
          "logIndex": "0xac",
          "removed": false
        }
      ],
      "logsBloom": "0x00000000000000000000000000000000000000000600000000000000000000000000000000000000000000000000000000000000000000004000000000000000000000000000004000000008000000000000000000000000000000000000000000000000020000000000000000000800020000000000000000000010000000000000000000000000000000000000000000000000000000000000010000000000000000000000000000000000000000004000000000000000000000000000000000000002000000800000000000000000000000000000080000000000000020000000000000000000000000000000000000000000000000000000000000000000",
      "type": "0x2",
      "transactionHash": "0x23a11a5d9a10b525e468e791aa096211d689729f9c6bdcbaffb72ad6769bc069",
      "transactionIndex": "0x8a",
      "blockHash": "0xa6555f572e4d05749a4ec55cf56389b354ec32a9a4c518a453d4e51a4945396e",
      "blockNumber": "0x7315fe",
      "gasUsed": "0xfd4b",
      "effectiveGasPrice": "0x664ab689",
      "from": "0xc77f7fed3b5cc8249adc428c5f44c9063b9734b4",
      "to": "0x8aafd3ede9adb0ff97c7aebce82a919afb1c8764",
      "contractAddress": null
    }
  ],
  "libraries": [],
  "pending": [],
  "returns": {},
  "timestamp": 1737491606,
  "chain": 11155111,
  "commit": "1d2fb70"
}