{
  "transactions": [
    {
      "hash": "0x7d3590bf0d143b6cb70f795321b8d37ef88abec15f45fab0137ec0bc49b659ae",
      "transactionType": "CALL",
      "contractName": null,
      "contractAddress": "0xbf4a322f1496e5c3d34a9bcdb4c60567b38c7de2",
      "function": "buy(address)",
      "arguments": [
        "0xC77f7fed3b5Cc8249aDc428c5F44C9063B9734b4"
      ],
      "transaction": {
        "from": "0xc77f7fed3b5cc8249adc428c5f44c9063b9734b4",
        "to": "0xbf4a322f1496e5c3d34a9bcdb4c60567b38c7de2",
        "gas": "0x1b309",
        "value": "0xde0b6b3a7640000",
        "input": "0xf088d547000000000000000000000000c77f7fed3b5cc8249adc428c5f44c9063b9734b4",
        "nonce": "0xa70",
        "chainId": "0xaa36a7"
      },
      "additionalContracts": [],
      "isFixedGasLimit": false
    }
  ],
  "receipts": [
    {
      "status": "0x1",
      "cumulativeGasUsed": "0xaaeb65",
      "logs": [
        {
          "address": "0xbf4a322f1496e5c3d34a9bcdb4c60567b38c7de2",
          "topics": [
            "0xddf252ad1be2c89b69c2b068fc378daa952ba7f163c4a11628f55a4df523b3ef",
            "0x0000000000000000000000000000000000000000000000000000000000000000",
            "0x000000000000000000000000c77f7fed3b5cc8249adc428c5f44c9063b9734b4"
          ],
          "data": "0x000000000000000000000000000000000000000000000035462154e31f2afd58",
          "blockHash": "0xd1b38dfe74e2ad39ca80d0f5a1d297b01155463e6a3457fc440a0da43834ed6f",
          "blockNumber": "0x725a4d",
          "transactionHash": "0x7d3590bf0d143b6cb70f795321b8d37ef88abec15f45fab0137ec0bc49b659ae",
          "transactionIndex": "0x61",
          "logIndex": "0xc1",
          "removed": false
        },
        {
          "address": "0xbf4a322f1496e5c3d34a9bcdb4c60567b38c7de2",
          "topics": [
            "0xddf252ad1be2c89b69c2b068fc378daa952ba7f163c4a11628f55a4df523b3ef",
            "0x0000000000000000000000000000000000000000000000000000000000000000",
            "0x000000000000000000000000c77f7fed3b5cc8249adc428c5f44c9063b9734b4"
          ],
          "data": "0x000000000000000000000000000000000000000000000000295e7929f239c3c7",
          "blockHash": "0xd1b38dfe74e2ad39ca80d0f5a1d297b01155463e6a3457fc440a0da43834ed6f",
          "blockNumber": "0x725a4d",
          "transactionHash": "0x7d3590bf0d143b6cb70f795321b8d37ef88abec15f45fab0137ec0bc49b659ae",
          "transactionIndex": "0x61",
          "logIndex": "0xc2",
          "removed": false
        },
        {
          "address": "0xbf4a322f1496e5c3d34a9bcdb4c60567b38c7de2",
          "topics": [
            "0x4afcb4a87cdbd9974efdb92ee48bc8d7cd0ae4bf217004db3d080cbaee652ca7"
          ],
          "data": "0x0000000000000000000000000000000000000000000000000000000067872dec0000000000000000000000000000000000000000000000000003943b31b952740000000000000000000000000000000000000000000000000de0b6b3a7640000",
          "blockHash": "0xd1b38dfe74e2ad39ca80d0f5a1d297b01155463e6a3457fc440a0da43834ed6f",
          "blockNumber": "0x725a4d",
          "transactionHash": "0x7d3590bf0d143b6cb70f795321b8d37ef88abec15f45fab0137ec0bc49b659ae",
          "transactionIndex": "0x61",
          "logIndex": "0xc3",
          "removed": false
        }
      ],
      "logsBloom": "0x00000000000000000000000000000000000000000000000000000000000000000000000000000000000000000000000000000000000000004000000000000000000000000000000000000008000000000000001000000000000000000000000000000000020000000000000000000800020000000000000000000010000000000000000000000000000000000000000000000000000008000000010000000000000000000000000000000000000000004000000000000000000000000000000000000002000000800000000000001000000000000000080000000000000020000000000000000000000000000000000000000000000000000000000000000000",
      "type": "0x2",
      "transactionHash": "0x7d3590bf0d143b6cb70f795321b8d37ef88abec15f45fab0137ec0bc49b659ae",
      "transactionIndex": "0x61",
      "blockHash": "0xd1b38dfe74e2ad39ca80d0f5a1d297b01155463e6a3457fc440a0da43834ed6f",
      "blockNumber": "0x725a4d",
      "gasUsed": "0x13af6",
      "effectiveGasPrice": "0x3465a1a84",
      "from": "0xc77f7fed3b5cc8249adc428c5f44c9063b9734b4",
      "to": "0xbf4a322f1496e5c3d34a9bcdb4c60567b38c7de2",
      "contractAddress": null
    }
  ],
  "libraries": [],
  "pending": [],
  "returns": {},
  "timestamp": 1736912366,
  "chain": 11155111,
  "commit": "51a374b"
}