{
  "transactions": [
    {
      "hash": "0xbb6b5f4be9015c5915e057b5fac741e87118ad3b9a9a25b9b33638a2b81d51e9",
      "transactionType": "CALL",
      "contractName": null,
      "contractAddress": "0x8aafd3ede9adb0ff97c7aebce82a919afb1c8764",
      "function": "sell(uint256)",
      "arguments": [
        "346176301348938"
      ],
      "transaction": {
        "from": "0xc77f7fed3b5cc8249adc428c5f44c9063b9734b4",
        "to": "0x8aafd3ede9adb0ff97c7aebce82a919afb1c8764",
        "gas": "0x1724d",
        "value": "0x0",
        "input": "0xe4849b3200000000000000000000000000000000000000000000000000013ad87378b84a",
        "nonce": "0x1238",
        "chainId": "0xaa36a7"
      },
      "additionalContracts": [],
      "isFixedGasLimit": false
    }
  ],
  "receipts": [
    {
      "status": "0x1",
      "cumulativeGasUsed": "0x21acf39",
      "logs": [
        {
          "address": "0x8aafd3ede9adb0ff97c7aebce82a919afb1c8764",
          "topics": [
            "0xddf252ad1be2c89b69c2b068fc378daa952ba7f163c4a11628f55a4df523b3ef",
            "0x000000000000000000000000c77f7fed3b5cc8249adc428c5f44c9063b9734b4",
            "0x0000000000000000000000000000000000000000000000000000000000000000"
          ],
          "data": "0x00000000000000000000000000000000000000000000000000013853a5bf6f23",
          "blockHash": "0x8638ebb76c4306a9f731d00a2be57d39f8df55a1c895cebe9d0858caffbbdcb7",
          "blockNumber": "0x731918",
          "transactionHash": "0xbb6b5f4be9015c5915e057b5fac741e87118ad3b9a9a25b9b33638a2b81d51e9",
          "transactionIndex": "0x6a",
          "logIndex": "0x10f0",
          "removed": false
        },
        {
          "address": "0x8aafd3ede9adb0ff97c7aebce82a919afb1c8764",
          "topics": [
            "0xddf252ad1be2c89b69c2b068fc378daa952ba7f163c4a11628f55a4df523b3ef",
            "0x000000000000000000000000c77f7fed3b5cc8249adc428c5f44c9063b9734b4",
            "0x000000000000000000000000c77f7fed3b5cc8249adc428c5f44c9063b9734b4"
          ],
          "data": "0x00000000000000000000000000000000000000000000000000000284cdb94927",
          "blockHash": "0x8638ebb76c4306a9f731d00a2be57d39f8df55a1c895cebe9d0858caffbbdcb7",
          "blockNumber": "0x731918",
          "transactionHash": "0xbb6b5f4be9015c5915e057b5fac741e87118ad3b9a9a25b9b33638a2b81d51e9",
          "transactionIndex": "0x6a",
          "logIndex": "0x10f1",
          "removed": false
        },
        {
          "address": "0x8aafd3ede9adb0ff97c7aebce82a919afb1c8764",
          "topics": [
            "0x4afcb4a87cdbd9974efdb92ee48bc8d7cd0ae4bf217004db3d080cbaee652ca7"
          ],
          "data": "0x00000000000000000000000000000000000000000000000000000000679029f0000000000000000000000000000000000000000000000000000539329317ef54000000000000000000000000000000000000000000000000000000768103b2eb",
          "blockHash": "0x8638ebb76c4306a9f731d00a2be57d39f8df55a1c895cebe9d0858caffbbdcb7",
          "blockNumber": "0x731918",
          "transactionHash": "0xbb6b5f4be9015c5915e057b5fac741e87118ad3b9a9a25b9b33638a2b81d51e9",
          "transactionIndex": "0x6a",
          "logIndex": "0x10f2",
          "removed": false
        }
      ],
      "logsBloom": "0x00000000000000000000000000000000000000000600000000000000000000000000000000000000000000000000000000000000000000004000000000000000000000000000004000000008000000000000000000000000000000000000000000000000020000000000000000000800020000000000000000000010000000000000000000000000000000000000000000000000000000000000010000000000000000000000000000000000000000004000000000000000000000000000000000000002000000800000000000000000000000000000080000000000000020000000000000000000000000000000000000000000000000000000000000000000",
      "type": "0x2",
      "transactionHash": "0xbb6b5f4be9015c5915e057b5fac741e87118ad3b9a9a25b9b33638a2b81d51e9",
      "transactionIndex": "0x6a",
      "blockHash": "0x8638ebb76c4306a9f731d00a2be57d39f8df55a1c895cebe9d0858caffbbdcb7",
      "blockNumber": "0x731918",
      "gasUsed": "0xfd33",
      "effectiveGasPrice": "0x382bd256",
      "from": "0xc77f7fed3b5cc8249adc428c5f44c9063b9734b4",
      "to": "0x8aafd3ede9adb0ff97c7aebce82a919afb1c8764",
      "contractAddress": null
    }
  ],
  "libraries": [],
  "pending": [],
  "returns": {},
  "timestamp": 1737501168,
  "chain": 11155111,
  "commit": "1d2fb70"
}