{
  "transactions": [
    {
      "hash": "0xcf8b72131193af68c1cb35c560dfbd0bc0767ab3b0b34d03fe6331b0861ca07d",
      "transactionType": "CALL",
      "contractName": null,
      "contractAddress": "0x8aafd3ede9adb0ff97c7aebce82a919afb1c8764",
      "function": "sell(uint256)",
      "arguments": [
        "5759763155308416558"
      ],
      "transaction": {
        "from": "0xc77f7fed3b5cc8249adc428c5f44c9063b9734b4",
        "to": "0x8aafd3ede9adb0ff97c7aebce82a919afb1c8764",
        "gas": "0x15dca",
        "value": "0x0",
        "input": "0xe4849b320000000000000000000000000000000000000000000000004feeca12be8a8e2e",
        "nonce": "0x1006",
        "chainId": "0xaa36a7"
      },
      "additionalContracts": [],
      "isFixedGasLimit": false
    }
  ],
  "receipts": [
    {
      "status": "0x1",
      "cumulativeGasUsed": "0x110b6d2",
      "logs": [
        {
          "address": "0x8aafd3ede9adb0ff97c7aebce82a919afb1c8764",
          "topics": [
            "0xddf252ad1be2c89b69c2b068fc378daa952ba7f163c4a11628f55a4df523b3ef",
            "0x000000000000000000000000c77f7fed3b5cc8249adc428c5f44c9063b9734b4",
            "0x0000000000000000000000000000000000000000000000000000000000000000"
          ],
          "data": "0x0000000000000000000000000000000000000000000000004f4b1647d7a4122a",
          "blockHash": "0x93ed8be64797bcec77f29197fa7b71a56f7089516b74c8f66b0545166af7f3da",
          "blockNumber": "0x73167b",
          "transactionHash": "0xcf8b72131193af68c1cb35c560dfbd0bc0767ab3b0b34d03fe6331b0861ca07d",
          "transactionIndex": "0xb4",
          "logIndex": "0xfd",
          "removed": false
        },
        {
          "address": "0x8aafd3ede9adb0ff97c7aebce82a919afb1c8764",
          "topics": [
            "0xddf252ad1be2c89b69c2b068fc378daa952ba7f163c4a11628f55a4df523b3ef",
            "0x000000000000000000000000c77f7fed3b5cc8249adc428c5f44c9063b9734b4",
            "0x000000000000000000000000c77f7fed3b5cc8249adc428c5f44c9063b9734b4"
          ],
          "data": "0x00000000000000000000000000000000000000000000000000a3b3cae6e67c04",
          "blockHash": "0x93ed8be64797bcec77f29197fa7b71a56f7089516b74c8f66b0545166af7f3da",
          "blockNumber": "0x73167b",
          "transactionHash": "0xcf8b72131193af68c1cb35c560dfbd0bc0767ab3b0b34d03fe6331b0861ca07d",
          "transactionIndex": "0xb4",
          "logIndex": "0xfe",
          "removed": false
        },
        {
          "address": "0x8aafd3ede9adb0ff97c7aebce82a919afb1c8764",
          "topics": [
            "0x4afcb4a87cdbd9974efdb92ee48bc8d7cd0ae4bf217004db3d080cbaee652ca7"
          ],
          "data": "0x0000000000000000000000000000000000000000000000000000000067900a700000000000000000000000000000000000000000000000000004e7da21b6f815000000000000000000000000000000000000000000000000001c415cdfd20a87",
          "blockHash": "0x93ed8be64797bcec77f29197fa7b71a56f7089516b74c8f66b0545166af7f3da",
          "blockNumber": "0x73167b",
          "transactionHash": "0xcf8b72131193af68c1cb35c560dfbd0bc0767ab3b0b34d03fe6331b0861ca07d",
          "transactionIndex": "0xb4",
          "logIndex": "0xff",
          "removed": false
        }
      ],
      "logsBloom": "0x00000000000000000000000000000000000000000600000000000000000000000000000000000000000000000000000000000000000000004000000000000000000000000000004000000008000000000000000000000000000000000000000000000000020000000000000000000800020000000000000000000010000000000000000000000000000000000000000000000000000000000000010000000000000000000000000000000000000000004000000000000000000000000000000000000002000000800000000000000000000000000000080000000000000020000000000000000000000000000000000000000000000000000000000000000000",
      "type": "0x2",
      "transactionHash": "0xcf8b72131193af68c1cb35c560dfbd0bc0767ab3b0b34d03fe6331b0861ca07d",
      "transactionIndex": "0xb4",
      "blockHash": "0x93ed8be64797bcec77f29197fa7b71a56f7089516b74c8f66b0545166af7f3da",
      "blockNumber": "0x73167b",
      "gasUsed": "0xfd3f",
      "effectiveGasPrice": "0x3c80d7b4",
      "from": "0xc77f7fed3b5cc8249adc428c5f44c9063b9734b4",
      "to": "0x8aafd3ede9adb0ff97c7aebce82a919afb1c8764",
      "contractAddress": null
    }
  ],
  "libraries": [],
  "pending": [],
  "returns": {},
  "timestamp": 1737493105,
  "chain": 11155111,
  "commit": "1d2fb70"
}