{
  "transactions": [
    {
      "hash": "0xb6be9ab8530547b7ba88c55e4ac75dd9d956d8fa700dae4ec5d1807d96cb22e6",
      "transactionType": "CALL",
      "contractName": null,
      "contractAddress": "0x8aafd3ede9adb0ff97c7aebce82a919afb1c8764",
      "function": "sell(uint256)",
      "arguments": [
        "12540"
      ],
      "transaction": {
        "from": "0xc77f7fed3b5cc8249adc428c5f44c9063b9734b4",
        "to": "0x8aafd3ede9adb0ff97c7aebce82a919afb1c8764",
        "gas": "0x14e4c",
        "value": "0x0",
        "input": "0xe4849b3200000000000000000000000000000000000000000000000000000000000030fc",
        "nonce": "0xec2",
        "chainId": "0xaa36a7"
      },
      "additionalContracts": [],
      "isFixedGasLimit": false
    }
  ],
  "receipts": [
    {
      "status": "0x1",
      "cumulativeGasUsed": "0xc9b174",
      "logs": [
        {
          "address": "0x8aafd3ede9adb0ff97c7aebce82a919afb1c8764",
          "topics": [
            "0xddf252ad1be2c89b69c2b068fc378daa952ba7f163c4a11628f55a4df523b3ef",
            "0x000000000000000000000000c77f7fed3b5cc8249adc428c5f44c9063b9734b4",
            "0x0000000000000000000000000000000000000000000000000000000000000000"
          ],
          "data": "0x0000000000000000000000000000000000000000000000000000000000003098",
          "blockHash": "0xb7a318b4719782bb9dfd2f3676321d881bc48db9cc97d6a9c22bae4284a1534d",
          "blockNumber": "0x73142a",
          "transactionHash": "0xb6be9ab8530547b7ba88c55e4ac75dd9d956d8fa700dae4ec5d1807d96cb22e6",
          "transactionIndex": "0xa0",
          "logIndex": "0xf5",
          "removed": false
        },
        {
          "address": "0x8aafd3ede9adb0ff97c7aebce82a919afb1c8764",
          "topics": [
            "0xddf252ad1be2c89b69c2b068fc378daa952ba7f163c4a11628f55a4df523b3ef",
            "0x000000000000000000000000c77f7fed3b5cc8249adc428c5f44c9063b9734b4",
            "0x000000000000000000000000c77f7fed3b5cc8249adc428c5f44c9063b9734b4"
          ],
          "data": "0x0000000000000000000000000000000000000000000000000000000000000064",
          "blockHash": "0xb7a318b4719782bb9dfd2f3676321d881bc48db9cc97d6a9c22bae4284a1534d",
          "blockNumber": "0x73142a",
          "transactionHash": "0xb6be9ab8530547b7ba88c55e4ac75dd9d956d8fa700dae4ec5d1807d96cb22e6",
          "transactionIndex": "0xa0",
          "logIndex": "0xf6",
          "removed": false
        },
        {
          "address": "0x8aafd3ede9adb0ff97c7aebce82a919afb1c8764",
          "topics": [
            "0x4afcb4a87cdbd9974efdb92ee48bc8d7cd0ae4bf217004db3d080cbaee652ca7"
          ],
          "data": "0x00000000000000000000000000000000000000000000000000000000678feea40000000000000000000000000000000000000000000000000004b89d615875540000000000000000000000000000000000000000000000000000000000000010",
          "blockHash": "0xb7a318b4719782bb9dfd2f3676321d881bc48db9cc97d6a9c22bae4284a1534d",
          "blockNumber": "0x73142a",
          "transactionHash": "0xb6be9ab8530547b7ba88c55e4ac75dd9d956d8fa700dae4ec5d1807d96cb22e6",
          "transactionIndex": "0xa0",
          "logIndex": "0xf7",
          "removed": false
        }
      ],
      "logsBloom": "0x00000000000000000000000000000000000000000600000000000000000000000000000000000000000000000000000000000000000000004000000000000000000000000000004000000008000000000000000000000000000000000000000000000000020000000000000000000800020000000000000000000010000000000000000000000000000000000000000000000000000000000000010000000000000000000000000000000000000000004000000000000000000000000000000000000002000000800000000000000000000000000000080000000000000020000000000000000000000000000000000000000000000000000000000000000000",
      "type": "0x2",
      "transactionHash": "0xb6be9ab8530547b7ba88c55e4ac75dd9d956d8fa700dae4ec5d1807d96cb22e6",
      "transactionIndex": "0xa0",
      "blockHash": "0xb7a318b4719782bb9dfd2f3676321d881bc48db9cc97d6a9c22bae4284a1534d",
      "blockNumber": "0x73142a",
      "gasUsed": "0xf207",
      "effectiveGasPrice": "0xbc7a986a",
      "from": "0xc77f7fed3b5cc8249adc428c5f44c9063b9734b4",
      "to": "0x8aafd3ede9adb0ff97c7aebce82a919afb1c8764",
      "contractAddress": null
    }
  ],
  "libraries": [],
  "pending": [],
  "returns": {},
  "timestamp": 1737485990,
  "chain": 11155111,
  "commit": "51a374b"
}