{
  "transactions": [
    {
      "hash": "0xf6ef6c6500238d4f4a086a7e697ce53451540dfb6a1305a36719af1b64a1e918",
      "transactionType": "CALL",
      "contractName": null,
      "contractAddress": "0xbf4a322f1496e5c3d34a9bcdb4c60567b38c7de2",
      "function": "buy(address)",
      "arguments": [
        "0xC77f7fed3b5Cc8249aDc428c5F44C9063B9734b4"
      ],
      "transaction": {
        "from": "0xc77f7fed3b5cc8249adc428c5f44c9063b9734b4",
        "to": "0xbf4a322f1496e5c3d34a9bcdb4c60567b38c7de2",
        "gas": "0x1b309",
        "value": "0xde0b6b3a7640000",
        "input": "0xf088d547000000000000000000000000c77f7fed3b5cc8249adc428c5f44c9063b9734b4",
        "nonce": "0xcf4",
        "chainId": "0xaa36a7"
      },
      "additionalContracts": [],
      "isFixedGasLimit": false
    }
  ],
  "receipts": [
    {
      "status": "0x1",
      "cumulativeGasUsed": "0x140b8e3",
      "logs": [
        {
          "address": "0xbf4a322f1496e5c3d34a9bcdb4c60567b38c7de2",
          "topics": [
            "0xddf252ad1be2c89b69c2b068fc378daa952ba7f163c4a11628f55a4df523b3ef",
            "0x0000000000000000000000000000000000000000000000000000000000000000",
            "0x000000000000000000000000c77f7fed3b5cc8249adc428c5f44c9063b9734b4"
          ],
          "data": "0x000000000000000000000000000000000000000000000034ce2982b729142115",
          "blockHash": "0xb2419bcac7914498caf518c2586acc141f3341ea5f2024bd934123812e59c74a",
          "blockNumber": "0x725d47",
          "transactionHash": "0xf6ef6c6500238d4f4a086a7e697ce53451540dfb6a1305a36719af1b64a1e918",
          "transactionIndex": "0x85",
          "logIndex": "0xc4",
          "removed": false
        },
        {
          "address": "0xbf4a322f1496e5c3d34a9bcdb4c60567b38c7de2",
          "topics": [
            "0xddf252ad1be2c89b69c2b068fc378daa952ba7f163c4a11628f55a4df523b3ef",
            "0x0000000000000000000000000000000000000000000000000000000000000000",
            "0x000000000000000000000000c77f7fed3b5cc8249adc428c5f44c9063b9734b4"
          ],
          "data": "0x0000000000000000000000000000000000000000000000002901506324f4a363",
          "blockHash": "0xb2419bcac7914498caf518c2586acc141f3341ea5f2024bd934123812e59c74a",
          "blockNumber": "0x725d47",
          "transactionHash": "0xf6ef6c6500238d4f4a086a7e697ce53451540dfb6a1305a36719af1b64a1e918",
          "transactionIndex": "0x85",
          "logIndex": "0xc5",
          "removed": false
        },
        {
          "address": "0xbf4a322f1496e5c3d34a9bcdb4c60567b38c7de2",
          "topics": [
            "0x4afcb4a87cdbd9974efdb92ee48bc8d7cd0ae4bf217004db3d080cbaee652ca7"
          ],
          "data": "0x00000000000000000000000000000000000000000000000000000000678751c800000000000000000000000000000000000000000000000000039c5cc0cc4a1a0000000000000000000000000000000000000000000000000de0b6b3a7640000",
          "blockHash": "0xb2419bcac7914498caf518c2586acc141f3341ea5f2024bd934123812e59c74a",
          "blockNumber": "0x725d47",
          "transactionHash": "0xf6ef6c6500238d4f4a086a7e697ce53451540dfb6a1305a36719af1b64a1e918",
          "transactionIndex": "0x85",
          "logIndex": "0xc6",
          "removed": false
        }
      ],
      "logsBloom": "0x00000000000000000000000000000000000000000000000000000000000000000000000000000000000000000000000000000000000000004000000000000000000000000000000000000008000000000000001000000000000000000000000000000000020000000000000000000800020000000000000000000010000000000000000000000000000000000000000000000000000008000000010000000000000000000000000000000000000000004000000000000000000000000000000000000002000000800000000000001000000000000000080000000000000020000000000000000000000000000000000000000000000000000000000000000000",
      "type": "0x2",
      "transactionHash": "0xf6ef6c6500238d4f4a086a7e697ce53451540dfb6a1305a36719af1b64a1e918",
      "transactionIndex": "0x85",
      "blockHash": "0xb2419bcac7914498caf518c2586acc141f3341ea5f2024bd934123812e59c74a",
      "blockNumber": "0x725d47",
      "gasUsed": "0x13af6",
      "effectiveGasPrice": "0x435fd9614",
      "from": "0xc77f7fed3b5cc8249adc428c5f44c9063b9734b4",
      "to": "0xbf4a322f1496e5c3d34a9bcdb4c60567b38c7de2",
      "contractAddress": null
    }
  ],
  "libraries": [],
  "pending": [],
  "returns": {},
  "timestamp": 1736921545,
  "chain": 11155111,
  "commit": "51a374b"
}