{
  "transactions": [
    {
      "hash": "0x9a2fc9083683edb774edba1d791025c2526d9b4f2fb1e9d66d3948d631d99b36",
      "transactionType": "CALL",
      "contractName": null,
      "contractAddress": "0xbf4a322f1496e5c3d34a9bcdb4c60567b38c7de2",
      "function": "sell(uint256)",
      "arguments": [
        "984003249978619860021"
      ],
      "transaction": {
        "from": "0xc77f7fed3b5cc8249adc428c5f44c9063b9734b4",
        "to": "0xbf4a322f1496e5c3d34a9bcdb4c60567b38c7de2",
        "gas": "0x16fea",
        "value": "0x0",
        "input": "0xe4849b3200000000000000000000000000000000000000000000003557c9ce62058a1435",
        "nonce": "0xaef",
        "chainId": "0xaa36a7"
      },
      "additionalContracts": [],
      "isFixedGasLimit": false
    }
  ],
  "receipts": [
    {
      "status": "0x1",
      "cumulativeGasUsed": "0xa8cdb8",
      "logs": [
        {
          "address": "0xbf4a322f1496e5c3d34a9bcdb4c60567b38c7de2",
          "topics": [
            "0xddf252ad1be2c89b69c2b068fc378daa952ba7f163c4a11628f55a4df523b3ef",
            "0x000000000000000000000000c77f7fed3b5cc8249adc428c5f44c9063b9734b4",
            "0x0000000000000000000000000000000000000000000000000000000000000000"
          ],
          "data": "0x00000000000000000000000000000000000000000000003557c9ce62058a1435",
          "blockHash": "0x2df8f65c0edd33d16c64d38247815b62b45ca32916200c21cef4c4076089674c",
          "blockNumber": "0x725ae4",
          "transactionHash": "0x9a2fc9083683edb774edba1d791025c2526d9b4f2fb1e9d66d3948d631d99b36",
          "transactionIndex": "0x77",
          "logIndex": "0x9d",
          "removed": false
        },
        {
          "address": "0xbf4a322f1496e5c3d34a9bcdb4c60567b38c7de2",
          "topics": [
            "0x4afcb4a87cdbd9974efdb92ee48bc8d7cd0ae4bf217004db3d080cbaee652ca7"
          ],
          "data": "0x0000000000000000000000000000000000000000000000000000000067873500000000000000000000000000000000000000000000000000000395d69759aa1b0000000000000000000000000000000000000000000000000dc7e3eb5fbb3159",
          "blockHash": "0x2df8f65c0edd33d16c64d38247815b62b45ca32916200c21cef4c4076089674c",
          "blockNumber": "0x725ae4",
          "transactionHash": "0x9a2fc9083683edb774edba1d791025c2526d9b4f2fb1e9d66d3948d631d99b36",
          "transactionIndex": "0x77",
          "logIndex": "0x9e",
          "removed": false
        }
      ],
      "logsBloom": "0x00000000000000000000000000000000000000000000000000000000000000000000000000000000000000000000000000000000000000004000000000000000000000000000000000000008000000000000001000000000000000000000000000000000020000000000000000000800020000000000000000000010000000000000000000000000000000000000000000000000000008000000010000000000000000000000000000000000000000004000000000000000000000000000000000000002000000800000000000001000000000000000080000000000000020000000000000000000000000000000000000000000000000000000000000000000",
      "type": "0x2",
      "transactionHash": "0x9a2fc9083683edb774edba1d791025c2526d9b4f2fb1e9d66d3948d631d99b36",
      "transactionIndex": "0x77",
      "blockHash": "0x2df8f65c0edd33d16c64d38247815b62b45ca32916200c21cef4c4076089674c",
      "blockNumber": "0x725ae4",
      "gasUsed": "0xfb91",
      "effectiveGasPrice": "0xa53f31ef",
      "from": "0xc77f7fed3b5cc8249adc428c5f44c9063b9734b4",
      "to": "0xbf4a322f1496e5c3d34a9bcdb4c60567b38c7de2",
      "contractAddress": null
    }
  ],
  "libraries": [],
  "pending": [],
  "returns": {},
  "timestamp": 1736914178,
  "chain": 11155111,
  "commit": "51a374b"
}