{
  "transactions": [
    {
      "hash": "0xa9a25bf5084176afd50c757edce5d996cf2c72379d68c298e423ea2451d51a18",
      "transactionType": "CALL",
      "contractName": null,
      "contractAddress": "0x8aafd3ede9adb0ff97c7aebce82a919afb1c8764",
      "function": "sell(uint256)",
      "arguments": [
        "71223445"
      ],
      "transaction": {
        "from": "0xc77f7fed3b5cc8249adc428c5f44c9063b9734b4",
        "to": "0x8aafd3ede9adb0ff97c7aebce82a919afb1c8764",
        "gas": "0x15d88",
        "value": "0x0",
        "input": "0xe4849b3200000000000000000000000000000000000000000000000000000000043ec895",
        "nonce": "0x13a6",
        "chainId": "0xaa36a7"
      },
      "additionalContracts": [],
      "isFixedGasLimit": false
    }
  ],
  "receipts": [
    {
      "status": "0x1",
      "cumulativeGasUsed": "0x6aea6d",
      "logs": [
        {
          "address": "0x8aafd3ede9adb0ff97c7aebce82a919afb1c8764",
          "topics": [
            "0xddf252ad1be2c89b69c2b068fc378daa952ba7f163c4a11628f55a4df523b3ef",
            "0x000000000000000000000000c77f7fed3b5cc8249adc428c5f44c9063b9734b4",
            "0x0000000000000000000000000000000000000000000000000000000000000000"
          ],
          "data": "0x00000000000000000000000000000000000000000000000000000000043616da",
          "blockHash": "0x451d6b89b8eea371e2a1ada2e0e5ef4cb9e699054680ccdca01a0d6e6170a534",
          "blockNumber": "0x731acc",
          "transactionHash": "0xa9a25bf5084176afd50c757edce5d996cf2c72379d68c298e423ea2451d51a18",
          "transactionIndex": "0x45",
          "logIndex": "0x50",
          "removed": false
        },
        {
          "address": "0x8aafd3ede9adb0ff97c7aebce82a919afb1c8764",
          "topics": [
            "0xddf252ad1be2c89b69c2b068fc378daa952ba7f163c4a11628f55a4df523b3ef",
            "0x000000000000000000000000c77f7fed3b5cc8249adc428c5f44c9063b9734b4",
            "0x000000000000000000000000c77f7fed3b5cc8249adc428c5f44c9063b9734b4"
          ],
          "data": "0x000000000000000000000000000000000000000000000000000000000008b1bb",
          "blockHash": "0x451d6b89b8eea371e2a1ada2e0e5ef4cb9e699054680ccdca01a0d6e6170a534",
          "blockNumber": "0x731acc",
          "transactionHash": "0xa9a25bf5084176afd50c757edce5d996cf2c72379d68c298e423ea2451d51a18",
          "transactionIndex": "0x45",
          "logIndex": "0x51",
          "removed": false
        },
        {
          "address": "0x8aafd3ede9adb0ff97c7aebce82a919afb1c8764",
          "topics": [
            "0x4afcb4a87cdbd9974efdb92ee48bc8d7cd0ae4bf217004db3d080cbaee652ca7"
          ],
          "data": "0x0000000000000000000000000000000000000000000000000000000067903e60000000000000000000000000000000000000000000000000000d16310237ec0200000000000000000000000000000000000000000000000000000000000400d4",
          "blockHash": "0x451d6b89b8eea371e2a1ada2e0e5ef4cb9e699054680ccdca01a0d6e6170a534",
          "blockNumber": "0x731acc",
          "transactionHash": "0xa9a25bf5084176afd50c757edce5d996cf2c72379d68c298e423ea2451d51a18",
          "transactionIndex": "0x45",
          "logIndex": "0x52",
          "removed": false
        }
      ],
      "logsBloom": "0x00000000000000000000000000000000000000000600000000000000000000000000000000000000000000000000000000000000000000004000000000000000000000000000004000000008000000000000000000000000000000000000000000000000020000000000000000000800020000000000000000000010000000000000000000000000000000000000000000000000000000000000010000000000000000000000000000000000000000004000000000000000000000000000000000000002000000800000000000000000000000000000080000000000000020000000000000000000000000000000000000000000000000000000000000000000",
      "type": "0x2",
      "transactionHash": "0xa9a25bf5084176afd50c757edce5d996cf2c72379d68c298e423ea2451d51a18",
      "transactionIndex": "0x45",
      "blockHash": "0x451d6b89b8eea371e2a1ada2e0e5ef4cb9e699054680ccdca01a0d6e6170a534",
      "blockNumber": "0x731acc",
      "gasUsed": "0xfd0f",
      "effectiveGasPrice": "0x892ecb99",
      "from": "0xc77f7fed3b5cc8249adc428c5f44c9063b9734b4",
      "to": "0x8aafd3ede9adb0ff97c7aebce82a919afb1c8764",
      "contractAddress": null
    }
  ],
  "libraries": [],
  "pending": [],
  "returns": {},
  "timestamp": 1737506402,
  "chain": 11155111,
  "commit": "1d2fb70"
}