{
  "transactions": [
    {
      "hash": "0x49b38cdc0715fc58347e4b9ae88a42720c24dc5133bdc02fc8f017b4f580613f",
      "transactionType": "CALL",
      "contractName": null,
      "contractAddress": "0x8aafd3ede9adb0ff97c7aebce82a919afb1c8764",
      "function": "sell(uint256)",
      "arguments": [
        "5661454051029348438"
      ],
      "transaction": {
        "from": "0xc77f7fed3b5cc8249adc428c5f44c9063b9734b4",
        "to": "0x8aafd3ede9adb0ff97c7aebce82a919afb1c8764",
        "gas": "0x15dca",
        "value": "0x0",
        "input": "0xe4849b320000000000000000000000000000000000000000000000004e918676b7ccf056",
        "nonce": "0x109c",
        "chainId": "0xaa36a7"
      },
      "additionalContracts": [],
      "isFixedGasLimit": false
    }
  ],
  "receipts": [
    {
      "status": "0x1",
      "cumulativeGasUsed": "0xb55405",
      "logs": [
        {
          "address": "0x8aafd3ede9adb0ff97c7aebce82a919afb1c8764",
          "topics": [
            "0xddf252ad1be2c89b69c2b068fc378daa952ba7f163c4a11628f55a4df523b3ef",
            "0x000000000000000000000000c77f7fed3b5cc8249adc428c5f44c9063b9734b4",
            "0x0000000000000000000000000000000000000000000000000000000000000000"
          ],
          "data": "0x0000000000000000000000000000000000000000000000004df09df6cacf6533",
          "blockHash": "0xc2f70a51d715d02edfa540c757cc14d05f543ab6b922a46ee372a050b349992f",
          "blockNumber": "0x73172d",
          "transactionHash": "0x49b38cdc0715fc58347e4b9ae88a42720c24dc5133bdc02fc8f017b4f580613f",
          "transactionIndex": "0x8a",
          "logIndex": "0xac",
          "removed": false
        },
        {
          "address": "0x8aafd3ede9adb0ff97c7aebce82a919afb1c8764",
          "topics": [
            "0xddf252ad1be2c89b69c2b068fc378daa952ba7f163c4a11628f55a4df523b3ef",
            "0x000000000000000000000000c77f7fed3b5cc8249adc428c5f44c9063b9734b4",
            "0x000000000000000000000000c77f7fed3b5cc8249adc428c5f44c9063b9734b4"
          ],
          "data": "0x00000000000000000000000000000000000000000000000000a0e87fecfd8b23",
          "blockHash": "0xc2f70a51d715d02edfa540c757cc14d05f543ab6b922a46ee372a050b349992f",
          "blockNumber": "0x73172d",
          "transactionHash": "0x49b38cdc0715fc58347e4b9ae88a42720c24dc5133bdc02fc8f017b4f580613f",
          "transactionIndex": "0x8a",
          "logIndex": "0xad",
          "removed": false
        },
        {
          "address": "0x8aafd3ede9adb0ff97c7aebce82a919afb1c8764",
          "topics": [
            "0x4afcb4a87cdbd9974efdb92ee48bc8d7cd0ae4bf217004db3d080cbaee652ca7"
          ],
          "data": "0x00000000000000000000000000000000000000000000000000000000679012e00000000000000000000000000000000000000000000000000004fda275987b0f000000000000000000000000000000000000000000000000001c41390336cf5a",
          "blockHash": "0xc2f70a51d715d02edfa540c757cc14d05f543ab6b922a46ee372a050b349992f",
          "blockNumber": "0x73172d",
          "transactionHash": "0x49b38cdc0715fc58347e4b9ae88a42720c24dc5133bdc02fc8f017b4f580613f",
          "transactionIndex": "0x8a",
          "logIndex": "0xae",
          "removed": false
        }
      ],
      "logsBloom": "0x00000000000000000000000000000000000000000600000000000000000000000000000000000000000000000000000000000000000000004000000000000000000000000000004000000008000000000000000000000000000000000000000000000000020000000000000000000800020000000000000000000010000000000000000000000000000000000000000000000000000000000000010000000000000000000000000000000000000000004000000000000000000000000000000000000002000000800000000000000000000000000000080000000000000020000000000000000000000000000000000000000000000000000000000000000000",
      "type": "0x2",
      "transactionHash": "0x49b38cdc0715fc58347e4b9ae88a42720c24dc5133bdc02fc8f017b4f580613f",
      "transactionIndex": "0x8a",
      "blockHash": "0xc2f70a51d715d02edfa540c757cc14d05f543ab6b922a46ee372a050b349992f",
      "blockNumber": "0x73172d",
      "gasUsed": "0xfd3f",
      "effectiveGasPrice": "0x3ded2bd7",
      "from": "0xc77f7fed3b5cc8249adc428c5f44c9063b9734b4",
      "to": "0x8aafd3ede9adb0ff97c7aebce82a919afb1c8764",
      "contractAddress": null
    }
  ],
  "libraries": [],
  "pending": [],
  "returns": {},
  "timestamp": 1737495266,
  "chain": 11155111,
  "commit": "1d2fb70"
}