{
  "transactions": [
    {
      "hash": "0x0261484aa5bbd442b7167aeef205898b2269cd4aa9b42c6aba313faaed7aba75",
      "transactionType": "CALL",
      "contractName": null,
      "contractAddress": "0x270e88f8683660553e8ba4eb2ad7c91a1710d769",
      "function": "sell(uint256)",
      "arguments": [
        "962356729773306569869"
      ],
      "transaction": {
        "from": "0xc77f7fed3b5cc8249adc428c5f44c9063b9734b4",
        "to": "0x270e88f8683660553e8ba4eb2ad7c91a1710d769",
        "gas": "0x16fec",
        "value": "0x0",
        "input": "0xe4849b320000000000000000000000000000000000000000000000342b61eaf1c086648d",
        "nonce": "0x59b",
        "chainId": "0xaa36a7"
      },
      "additionalContracts": [],
      "isFixedGasLimit": false
    }
  ],
  "receipts": [
    {
      "status": "0x1",
      "cumulativeGasUsed": "0xe4aad9",
      "logs": [
        {
          "address": "0x270e88f8683660553e8ba4eb2ad7c91a1710d769",
          "topics": [
            "0xddf252ad1be2c89b69c2b068fc378daa952ba7f163c4a11628f55a4df523b3ef",
            "0x000000000000000000000000c77f7fed3b5cc8249adc428c5f44c9063b9734b4",
            "0x0000000000000000000000000000000000000000000000000000000000000000"
          ],
          "data": "0x0000000000000000000000000000000000000000000000342b61eaf1c086648d",
          "blockHash": "0x55188c53d0612994e991796c54789b64c2aa8086c90a81fde62cc39c99f0e68a",
          "blockNumber": "0x725250",
          "transactionHash": "0x0261484aa5bbd442b7167aeef205898b2269cd4aa9b42c6aba313faaed7aba75",
          "transactionIndex": "0x51",
          "logIndex": "0xa5",
          "removed": false
        },
        {
          "address": "0x270e88f8683660553e8ba4eb2ad7c91a1710d769",
          "topics": [
            "0x4afcb4a87cdbd9974efdb92ee48bc8d7cd0ae4bf217004db3d080cbaee652ca7"
          ],
          "data": "0x000000000000000000000000000000000000000000000000000000006786cdb00000000000000000000000000000000000000000000000000003aac0096862cf0000000000000000000000000000000000000000000000000dc83f6dafbdb0c6",
          "blockHash": "0x55188c53d0612994e991796c54789b64c2aa8086c90a81fde62cc39c99f0e68a",
          "blockNumber": "0x725250",
          "transactionHash": "0x0261484aa5bbd442b7167aeef205898b2269cd4aa9b42c6aba313faaed7aba75",
          "transactionIndex": "0x51",
          "logIndex": "0xa6",
          "removed": false
        }
      ],
      "logsBloom": "0x00000000000000000000000000000000000000000000000000000000000000000000000000000000000000000000000020000000000000004000000000000000000000000000000000000008000000000000000000000000000000000000000000000000020000000000000000000800020000000000000000000010000000000000000000010000000000000000000000000000000000000000010000000000000000000000000000000000000000004000000000000000000000000000000000000002000000800000000000000000000000000000080000008000000020000000000000000000000000000000000000000000000000000000000000000000",
      "type": "0x2",
      "transactionHash": "0x0261484aa5bbd442b7167aeef205898b2269cd4aa9b42c6aba313faaed7aba75",
      "transactionIndex": "0x51",
      "blockHash": "0x55188c53d0612994e991796c54789b64c2aa8086c90a81fde62cc39c99f0e68a",
      "blockNumber": "0x725250",
      "gasUsed": "0xfb93",
      "effectiveGasPrice": "0x4673eed5b",
      "from": "0xc77f7fed3b5cc8249adc428c5f44c9063b9734b4",
      "to": "0x270e88f8683660553e8ba4eb2ad7c91a1710d769",
      "contractAddress": null
    }
  ],
  "libraries": [],
  "pending": [],
  "returns": {},
  "timestamp": 1736887730,
  "chain": 11155111,
  "commit": "51a374b"
}