{
  "transactions": [
    {
      "hash": "0x7507ed05e2e1ef07a86d8f8d056da1e0411b8eb66d73e909857a311258b15141",
      "transactionType": "CALL",
      "contractName": null,
      "contractAddress": "0xd7bc75898e513accccf720a874d44dab5a4b6223",
      "function": "buy(address)",
      "arguments": [
        "0xC77f7fed3b5Cc8249aDc428c5F44C9063B9734b4"
      ],
      "transaction": {
        "from": "0xc77f7fed3b5cc8249adc428c5f44c9063b9734b4",
        "to": "0xd7bc75898e513accccf720a874d44dab5a4b6223",
        "gas": "0x1b30c",
        "value": "0x2386f26fc10000",
        "input": "0xf088d547000000000000000000000000c77f7fed3b5cc8249adc428c5f44c9063b9734b4",
        "nonce": "0xd2",
        "chainId": "0xaa36a7"
      },
      "additionalContracts": [],
      "isFixedGasLimit": false
    }
  ],
  "receipts": [
    {
      "status": "0x1",
      "cumulativeGasUsed": "0x87a2f4",
      "logs": [
        {
          "address": "0xd7bc75898e513accccf720a874d44dab5a4b6223",
          "topics": [
            "0xddf252ad1be2c89b69c2b068fc378daa952ba7f163c4a11628f55a4df523b3ef",
            "0x0000000000000000000000000000000000000000000000000000000000000000",
            "0x000000000000000000000000c77f7fed3b5cc8249adc428c5f44c9063b9734b4"
          ],
          "data": "0x0000000000000000000000000000000000000000000000008963bb2041cde9d1",
          "blockHash": "0x72ff4c3ae56ff20cd9bb8e204911785b9d3121758bf1007d60cde44aea3e6ea5",
          "blockNumber": "0x723952",
          "transactionHash": "0x7507ed05e2e1ef07a86d8f8d056da1e0411b8eb66d73e909857a311258b15141",
          "transactionIndex": "0x39",
          "logIndex": "0x69",
          "removed": false
        },
        {
          "address": "0xd7bc75898e513accccf720a874d44dab5a4b6223",
          "topics": [
            "0xddf252ad1be2c89b69c2b068fc378daa952ba7f163c4a11628f55a4df523b3ef",
            "0x0000000000000000000000000000000000000000000000000000000000000000",
            "0x000000000000000000000000c77f7fed3b5cc8249adc428c5f44c9063b9734b4"
          ],
          "data": "0x000000000000000000000000000000000000000000000000006ab00c7dc7dc26",
          "blockHash": "0x72ff4c3ae56ff20cd9bb8e204911785b9d3121758bf1007d60cde44aea3e6ea5",
          "blockNumber": "0x723952",
          "transactionHash": "0x7507ed05e2e1ef07a86d8f8d056da1e0411b8eb66d73e909857a311258b15141",
          "transactionIndex": "0x39",
          "logIndex": "0x6a",
          "removed": false
        },
        {
          "address": "0xd7bc75898e513accccf720a874d44dab5a4b6223",
          "topics": [
            "0x4afcb4a87cdbd9974efdb92ee48bc8d7cd0ae4bf217004db3d080cbaee652ca7"
          ],
          "data": "0x000000000000000000000000000000000000000000000000000000006785a12000000000000000000000000000000000000000000000000000038d7f88b59dd8000000000000000000000000000000000000000000000000002386f26fc10000",
          "blockHash": "0x72ff4c3ae56ff20cd9bb8e204911785b9d3121758bf1007d60cde44aea3e6ea5",
          "blockNumber": "0x723952",
          "transactionHash": "0x7507ed05e2e1ef07a86d8f8d056da1e0411b8eb66d73e909857a311258b15141",
          "transactionIndex": "0x39",
          "logIndex": "0x6b",
          "removed": false
        }
      ],
      "logsBloom": "0x00000000000000000000000000000000000000000000000000000000000000000000000000000000000000000000000000000000000000004000000000000000000000000000000000000008000000000000000000000000000000000000000000000000020000000000000000000800020000000000000000000010000000000000000000000000000000000000000000000000000000000000010000000000000000000000000000000000000000004000001000000000000000000000000000000002000000800000000000004000000000000000080000000000000020000000000000000000000000000000000000000000080000000000000000000000",
      "type": "0x2",
      "transactionHash": "0x7507ed05e2e1ef07a86d8f8d056da1e0411b8eb66d73e909857a311258b15141",
      "transactionIndex": "0x39",
      "blockHash": "0x72ff4c3ae56ff20cd9bb8e204911785b9d3121758bf1007d60cde44aea3e6ea5",
      "blockNumber": "0x723952",
      "gasUsed": "0x13af8",
      "effectiveGasPrice": "0x298febde",
      "from": "0xc77f7fed3b5cc8249adc428c5f44c9063b9734b4",
      "to": "0xd7bc75898e513accccf720a874d44dab5a4b6223",
      "contractAddress": null
    }
  ],
  "libraries": [],
  "pending": [],
  "returns": {},
  "timestamp": 1736810786,
  "chain": 11155111,
  "commit": "51a374b"
}