{
  "transactions": [
    {
      "hash": "0x1b780f020737b583ba8db6a9657d90bc08c283a352d30d019a4cf6bc7a28b6a5",
      "transactionType": "CALL",
      "contractName": null,
      "contractAddress": "0xbf4a322f1496e5c3d34a9bcdb4c60567b38c7de2",
      "function": "sell(uint256)",
      "arguments": [
        "990324498774952571629"
      ],
      "transaction": {
        "from": "0xc77f7fed3b5cc8249adc428c5f44c9063b9734b4",
        "to": "0xbf4a322f1496e5c3d34a9bcdb4c60567b38c7de2",
        "gas": "0x16fea",
        "value": "0x0",
        "input": "0xe4849b32000000000000000000000000000000000000000000000035af8364abf7d0f2ed",
        "nonce": "0x91f",
        "chainId": "0xaa36a7"
      },
      "additionalContracts": [],
      "isFixedGasLimit": false
    }
  ],
  "receipts": [
    {
      "status": "0x1",
      "cumulativeGasUsed": "0xb060f3",
      "logs": [
        {
          "address": "0xbf4a322f1496e5c3d34a9bcdb4c60567b38c7de2",
          "topics": [
            "0xddf252ad1be2c89b69c2b068fc378daa952ba7f163c4a11628f55a4df523b3ef",
            "0x000000000000000000000000c77f7fed3b5cc8249adc428c5f44c9063b9734b4",
            "0x0000000000000000000000000000000000000000000000000000000000000000"
          ],
          "data": "0x000000000000000000000000000000000000000000000035af8364abf7d0f2ed",
          "blockHash": "0xfb3b2b83867340b7dfbf5a8085df954e5325af3548bd28c736834ba49c89df24",
          "blockNumber": "0x7258a3",
          "transactionHash": "0x1b780f020737b583ba8db6a9657d90bc08c283a352d30d019a4cf6bc7a28b6a5",
          "transactionIndex": "0x49",
          "logIndex": "0x57",
          "removed": false
        },
        {
          "address": "0xbf4a322f1496e5c3d34a9bcdb4c60567b38c7de2",
          "topics": [
            "0x4afcb4a87cdbd9974efdb92ee48bc8d7cd0ae4bf217004db3d080cbaee652ca7"
          ],
          "data": "0x00000000000000000000000000000000000000000000000000000000678719d000000000000000000000000000000000000000000000000000038ffad6c350b50000000000000000000000000000000000000000000000000dc7e3fa121ce572",
          "blockHash": "0xfb3b2b83867340b7dfbf5a8085df954e5325af3548bd28c736834ba49c89df24",
          "blockNumber": "0x7258a3",
          "transactionHash": "0x1b780f020737b583ba8db6a9657d90bc08c283a352d30d019a4cf6bc7a28b6a5",
          "transactionIndex": "0x49",
          "logIndex": "0x58",
          "removed": false
        }
      ],
      "logsBloom": "0x00000000000000000000000000000000000000000000000000000000000000000000000000000000000000000000000000000000000000004000000000000000000000000000000000000008000000000000001000000000000000000000000000000000020000000000000000000800020000000000000000000010000000000000000000000000000000000000000000000000000008000000010000000000000000000000000000000000000000004000000000000000000000000000000000000002000000800000000000001000000000000000080000000000000020000000000000000000000000000000000000000000000000000000000000000000",
      "type": "0x2",
      "transactionHash": "0x1b780f020737b583ba8db6a9657d90bc08c283a352d30d019a4cf6bc7a28b6a5",
      "transactionIndex": "0x49",
      "blockHash": "0xfb3b2b83867340b7dfbf5a8085df954e5325af3548bd28c736834ba49c89df24",
      "blockNumber": "0x7258a3",
      "gasUsed": "0xfb91",
      "effectiveGasPrice": "0x5b19c7f8",
      "from": "0xc77f7fed3b5cc8249adc428c5f44c9063b9734b4",
      "to": "0xbf4a322f1496e5c3d34a9bcdb4c60567b38c7de2",
      "contractAddress": null
    }
  ],
  "libraries": [],
  "pending": [],
  "returns": {},
  "timestamp": 1736907218,
  "chain": 11155111,
  "commit": "51a374b"
}