{
  "transactions": [
    {
      "hash": "0x790a9f1f4bb4c53b9719630f0703bd8479e7ef40415085ed0f0a324c755d2942",
      "transactionType": "CALL",
      "contractName": null,
      "contractAddress": "0x8aafd3ede9adb0ff97c7aebce82a919afb1c8764",
      "function": "sell(uint256)",
      "arguments": [
        "2850009085855"
      ],
      "transaction": {
        "from": "0xc77f7fed3b5cc8249adc428c5f44c9063b9734b4",
        "to": "0x8aafd3ede9adb0ff97c7aebce82a919afb1c8764",
        "gas": "0x15daa",
        "value": "0x0",
        "input": "0xe4849b320000000000000000000000000000000000000000000000000000029791c7779f",
        "nonce": "0x1135",
        "chainId": "0xaa36a7"
      },
      "additionalContracts": [],
      "isFixedGasLimit": false
    }
  ],
  "receipts": [
    {
      "status": "0x1",
      "cumulativeGasUsed": "0x96139e",
      "logs": [
        {
          "address": "0x8aafd3ede9adb0ff97c7aebce82a919afb1c8764",
          "topics": [
            "0xddf252ad1be2c89b69c2b068fc378daa952ba7f163c4a11628f55a4df523b3ef",
            "0x000000000000000000000000c77f7fed3b5cc8249adc428c5f44c9063b9734b4",
            "0x0000000000000000000000000000000000000000000000000000000000000000"
          ],
          "data": "0x0000000000000000000000000000000000000000000000000000029242c9f7b1",
          "blockHash": "0x65aee89364d2ec8abf0231a83fd6ac37a5e3e73c894415f6e5be09d4e86f615d",
          "blockNumber": "0x7317ee",
          "transactionHash": "0x790a9f1f4bb4c53b9719630f0703bd8479e7ef40415085ed0f0a324c755d2942",
          "transactionIndex": "0x82",
          "logIndex": "0xad",
          "removed": false
        },
        {
          "address": "0x8aafd3ede9adb0ff97c7aebce82a919afb1c8764",
          "topics": [
            "0xddf252ad1be2c89b69c2b068fc378daa952ba7f163c4a11628f55a4df523b3ef",
            "0x000000000000000000000000c77f7fed3b5cc8249adc428c5f44c9063b9734b4",
            "0x000000000000000000000000c77f7fed3b5cc8249adc428c5f44c9063b9734b4"
          ],
          "data": "0x000000000000000000000000000000000000000000000000000000054efd7fee",
          "blockHash": "0x65aee89364d2ec8abf0231a83fd6ac37a5e3e73c894415f6e5be09d4e86f615d",
          "blockNumber": "0x7317ee",
          "transactionHash": "0x790a9f1f4bb4c53b9719630f0703bd8479e7ef40415085ed0f0a324c755d2942",
          "transactionIndex": "0x82",
          "logIndex": "0xae",
          "removed": false
        },
        {
          "address": "0x8aafd3ede9adb0ff97c7aebce82a919afb1c8764",
          "topics": [
            "0x4afcb4a87cdbd9974efdb92ee48bc8d7cd0ae4bf217004db3d080cbaee652ca7"
          ],
          "data": "0x0000000000000000000000000000000000000000000000000000000067901bec0000000000000000000000000000000000000000000000000005136c0765866c00000000000000000000000000000000000000000000000000000000f2b4254a",
          "blockHash": "0x65aee89364d2ec8abf0231a83fd6ac37a5e3e73c894415f6e5be09d4e86f615d",
          "blockNumber": "0x7317ee",
          "transactionHash": "0x790a9f1f4bb4c53b9719630f0703bd8479e7ef40415085ed0f0a324c755d2942",
          "transactionIndex": "0x82",
          "logIndex": "0xaf",
          "removed": false
        }
      ],
      "logsBloom": "0x00000000000000000000000000000000000000000600000000000000000000000000000000000000000000000000000000000000000000004000000000000000000000000000004000000008000000000000000000000000000000000000000000000000020000000000000000000800020000000000000000000010000000000000000000000000000000000000000000000000000000000000010000000000000000000000000000000000000000004000000000000000000000000000000000000002000000800000000000000000000000000000080000000000000020000000000000000000000000000000000000000000000000000000000000000000",
      "type": "0x2",
      "transactionHash": "0x790a9f1f4bb4c53b9719630f0703bd8479e7ef40415085ed0f0a324c755d2942",
      "transactionIndex": "0x82",
      "blockHash": "0x65aee89364d2ec8abf0231a83fd6ac37a5e3e73c894415f6e5be09d4e86f615d",
      "blockNumber": "0x7317ee",
      "gasUsed": "0xfd27",
      "effectiveGasPrice": "0x49ac6bf3",
      "from": "0xc77f7fed3b5cc8249adc428c5f44c9063b9734b4",
      "to": "0x8aafd3ede9adb0ff97c7aebce82a919afb1c8764",
      "contractAddress": null
    }
  ],
  "libraries": [],
  "pending": [],
  "returns": {},
  "timestamp": 1737497581,
  "chain": 11155111,
  "commit": "1d2fb70"
}