{
  "transactions": [
    {
      "hash": "0x0c425c0cf257df509e07734b2a33e55dd5d443862378a14b515bcfc275d1f8ac",
      "transactionType": "CALL",
      "contractName": null,
      "contractAddress": "0x8aafd3ede9adb0ff97c7aebce82a919afb1c8764",
      "function": "sell(uint256)",
      "arguments": [
        "23295354077"
      ],
      "transaction": {
        "from": "0xc77f7fed3b5cc8249adc428c5f44c9063b9734b4",
        "to": "0x8aafd3ede9adb0ff97c7aebce82a919afb1c8764",
        "gas": "0x1722a",
        "value": "0x0",
        "input": "0xe4849b32000000000000000000000000000000000000000000000000000000056c82e4dd",
        "nonce": "0x1078",
        "chainId": "0xaa36a7"
      },
      "additionalContracts": [],
      "isFixedGasLimit": false
    }
  ],
  "receipts": [
    {
      "status": "0x1",
      "cumulativeGasUsed": "0xcfdd1a",
      "logs": [
        {
          "address": "0x8aafd3ede9adb0ff97c7aebce82a919afb1c8764",
          "topics": [
            "0xddf252ad1be2c89b69c2b068fc378daa952ba7f163c4a11628f55a4df523b3ef",
            "0x000000000000000000000000c77f7fed3b5cc8249adc428c5f44c9063b9734b4",
            "0x0000000000000000000000000000000000000000000000000000000000000000"
          ],
          "data": "0x000000000000000000000000000000000000000000000000000000056167390d",
          "blockHash": "0xad31799b701b750f280090aaed79f46350fbaf8550277dd0866a9787be6d7897",
          "blockNumber": "0x731701",
          "transactionHash": "0x0c425c0cf257df509e07734b2a33e55dd5d443862378a14b515bcfc275d1f8ac",
          "transactionIndex": "0x6a",
          "logIndex": "0xa5",
          "removed": false
        },
        {
          "address": "0x8aafd3ede9adb0ff97c7aebce82a919afb1c8764",
          "topics": [
            "0xddf252ad1be2c89b69c2b068fc378daa952ba7f163c4a11628f55a4df523b3ef",
            "0x000000000000000000000000c77f7fed3b5cc8249adc428c5f44c9063b9734b4",
            "0x000000000000000000000000c77f7fed3b5cc8249adc428c5f44c9063b9734b4"
          ],
          "data": "0x000000000000000000000000000000000000000000000000000000000b1babd0",
          "blockHash": "0xad31799b701b750f280090aaed79f46350fbaf8550277dd0866a9787be6d7897",
          "blockNumber": "0x731701",
          "transactionHash": "0x0c425c0cf257df509e07734b2a33e55dd5d443862378a14b515bcfc275d1f8ac",
          "transactionIndex": "0x6a",
          "logIndex": "0xa6",
          "removed": false
        },
        {
          "address": "0x8aafd3ede9adb0ff97c7aebce82a919afb1c8764",
          "topics": [
            "0x4afcb4a87cdbd9974efdb92ee48bc8d7cd0ae4bf217004db3d080cbaee652ca7"
          ],
          "data": "0x00000000000000000000000000000000000000000000000000000000679010c40000000000000000000000000000000000000000000000000004f7d35598966e0000000000000000000000000000000000000000000000000000000001f111af",
          "blockHash": "0xad31799b701b750f280090aaed79f46350fbaf8550277dd0866a9787be6d7897",
          "blockNumber": "0x731701",
          "transactionHash": "0x0c425c0cf257df509e07734b2a33e55dd5d443862378a14b515bcfc275d1f8ac",
          "transactionIndex": "0x6a",
          "logIndex": "0xa7",
          "removed": false
        }
      ],
      "logsBloom": "0x00000000000000000000000000000000000000000600000000000000000000000000000000000000000000000000000000000000000000004000000000000000000000000000004000000008000000000000000000000000000000000000000000000000020000000000000000000800020000000000000000000010000000000000000000000000000000000000000000000000000000000000010000000000000000000000000000000000000000004000000000000000000000000000000000000002000000800000000000000000000000000000080000000000000020000000000000000000000000000000000000000000000000000000000000000000",
      "type": "0x2",
      "transactionHash": "0x0c425c0cf257df509e07734b2a33e55dd5d443862378a14b515bcfc275d1f8ac",
      "transactionIndex": "0x6a",
      "blockHash": "0xad31799b701b750f280090aaed79f46350fbaf8550277dd0866a9787be6d7897",
      "blockNumber": "0x731701",
      "gasUsed": "0xfd1b",
      "effectiveGasPrice": "0x4609f138",
      "from": "0xc77f7fed3b5cc8249adc428c5f44c9063b9734b4",
      "to": "0x8aafd3ede9adb0ff97c7aebce82a919afb1c8764",
      "contractAddress": null
    }
  ],
  "libraries": [],
  "pending": [],
  "returns": {},
  "timestamp": 1737494727,
  "chain": 11155111,
  "commit": "1d2fb70"
}