{
  "transactions": [
    {
      "hash": "0xf13347f1fdc24643393991d55df6873bbd2e5900c56dde75be9e83fd1032d442",
      "transactionType": "CALL",
      "contractName": null,
      "contractAddress": "0x8aafd3ede9adb0ff97c7aebce82a919afb1c8764",
      "function": "sell(uint256)",
      "arguments": [
        "21706553565"
      ],
      "transaction": {
        "from": "0xc77f7fed3b5cc8249adc428c5f44c9063b9734b4",
        "to": "0x8aafd3ede9adb0ff97c7aebce82a919afb1c8764",
        "gas": "0x1722a",
        "value": "0x0",
        "input": "0xe4849b32000000000000000000000000000000000000000000000000000000050dcfb8dd",
        "nonce": "0x12f8",
        "chainId": "0xaa36a7"
      },
      "additionalContracts": [],
      "isFixedGasLimit": false
    }
  ],
  "receipts": [
    {
      "status": "0x1",
      "cumulativeGasUsed": "0xb7cc17",
      "logs": [
        {
          "address": "0x8aafd3ede9adb0ff97c7aebce82a919afb1c8764",
          "topics": [
            "0xddf252ad1be2c89b69c2b068fc378daa952ba7f163c4a11628f55a4df523b3ef",
            "0x000000000000000000000000c77f7fed3b5cc8249adc428c5f44c9063b9734b4",
            "0x0000000000000000000000000000000000000000000000000000000000000000"
          ],
          "data": "0x000000000000000000000000000000000000000000000000000000050375ff11",
          "blockHash": "0x5a1f639c3e081468a072ef4869e919982c15fe2396cc602c4f9779739bd9f18d",
          "blockNumber": "0x7319ff",
          "transactionHash": "0xf13347f1fdc24643393991d55df6873bbd2e5900c56dde75be9e83fd1032d442",
          "transactionIndex": "0x86",
          "logIndex": "0x92",
          "removed": false
        },
        {
          "address": "0x8aafd3ede9adb0ff97c7aebce82a919afb1c8764",
          "topics": [
            "0xddf252ad1be2c89b69c2b068fc378daa952ba7f163c4a11628f55a4df523b3ef",
            "0x000000000000000000000000c77f7fed3b5cc8249adc428c5f44c9063b9734b4",
            "0x000000000000000000000000c77f7fed3b5cc8249adc428c5f44c9063b9734b4"
          ],
          "data": "0x000000000000000000000000000000000000000000000000000000000a59b9cc",
          "blockHash": "0x5a1f639c3e081468a072ef4869e919982c15fe2396cc602c4f9779739bd9f18d",
          "blockNumber": "0x7319ff",
          "transactionHash": "0xf13347f1fdc24643393991d55df6873bbd2e5900c56dde75be9e83fd1032d442",
          "transactionIndex": "0x86",
          "logIndex": "0x93",
          "removed": false
        },
        {
          "address": "0x8aafd3ede9adb0ff97c7aebce82a919afb1c8764",
          "topics": [
            "0x4afcb4a87cdbd9974efdb92ee48bc8d7cd0ae4bf217004db3d080cbaee652ca7"
          ],
          "data": "0x00000000000000000000000000000000000000000000000000000000679034c4000000000000000000000000000000000000000000000000000554cfa80ab84a0000000000000000000000000000000000000000000000000000000001f107e4",
          "blockHash": "0x5a1f639c3e081468a072ef4869e919982c15fe2396cc602c4f9779739bd9f18d",
          "blockNumber": "0x7319ff",
          "transactionHash": "0xf13347f1fdc24643393991d55df6873bbd2e5900c56dde75be9e83fd1032d442",
          "transactionIndex": "0x86",
          "logIndex": "0x94",
          "removed": false
        }
      ],
      "logsBloom": "0x00000000000000000000000000000000000000000600000000000000000000000000000000000000000000000000000000000000000000004000000000000000000000000000004000000008000000000000000000000000000000000000000000000000020000000000000000000800020000000000000000000010000000000000000000000000000000000000000000000000000000000000010000000000000000000000000000000000000000004000000000000000000000000000000000000002000000800000000000000000000000000000080000000000000020000000000000000000000000000000000000000000000000000000000000000000",
      "type": "0x2",
      "transactionHash": "0xf13347f1fdc24643393991d55df6873bbd2e5900c56dde75be9e83fd1032d442",
      "transactionIndex": "0x86",
      "blockHash": "0x5a1f639c3e081468a072ef4869e919982c15fe2396cc602c4f9779739bd9f18d",
      "blockNumber": "0x7319ff",
      "gasUsed": "0xfd1b",
      "effectiveGasPrice": "0x408dc922",
      "from": "0xc77f7fed3b5cc8249adc428c5f44c9063b9734b4",
      "to": "0x8aafd3ede9adb0ff97c7aebce82a919afb1c8764",
      "contractAddress": null
    }
  ],
  "libraries": [],
  "pending": [],
  "returns": {},
  "timestamp": 1737503942,
  "chain": 11155111,
  "commit": "1d2fb70"
}