{
  "transactions": [
    {
      "hash": "0xd5dfd9fae439be530a4fa56d296c9565b5552d515c2ba203cdf8a43828cab2f7",
      "transactionType": "CALL",
      "contractName": null,
      "contractAddress": "0x8aafd3ede9adb0ff97c7aebce82a919afb1c8764",
      "function": "sell(uint256)",
      "arguments": [
        "6372163444"
      ],
      "transaction": {
        "from": "0xc77f7fed3b5cc8249adc428c5f44c9063b9734b4",
        "to": "0x8aafd3ede9adb0ff97c7aebce82a919afb1c8764",
        "gas": "0x1722a",
        "value": "0x0",
        "input": "0xe4849b32000000000000000000000000000000000000000000000000000000017bcf7f74",
        "nonce": "0x1567",
        "chainId": "0xaa36a7"
      },
      "additionalContracts": [],
      "isFixedGasLimit": false
    }
  ],
  "receipts": [
    {
      "status": "0x1",
      "cumulativeGasUsed": "0x9c465d",
      "logs": [
        {
          "address": "0x8aafd3ede9adb0ff97c7aebce82a919afb1c8764",
          "topics": [
            "0xddf252ad1be2c89b69c2b068fc378daa952ba7f163c4a11628f55a4df523b3ef",
            "0x000000000000000000000000c77f7fed3b5cc8249adc428c5f44c9063b9734b4",
            "0x0000000000000000000000000000000000000000000000000000000000000000"
          ],
          "data": "0x0000000000000000000000000000000000000000000000000000000178c5a559",
          "blockHash": "0xca22556ea3de9d64e1d3656722eb4013dbc8162482c1965c2cd7dc92b3a22873",
          "blockNumber": "0x731ccf",
          "transactionHash": "0xd5dfd9fae439be530a4fa56d296c9565b5552d515c2ba203cdf8a43828cab2f7",
          "transactionIndex": "0x64",
          "logIndex": "0xa8",
          "removed": false
        },
        {
          "address": "0x8aafd3ede9adb0ff97c7aebce82a919afb1c8764",
          "topics": [
            "0xddf252ad1be2c89b69c2b068fc378daa952ba7f163c4a11628f55a4df523b3ef",
            "0x000000000000000000000000c77f7fed3b5cc8249adc428c5f44c9063b9734b4",
            "0x000000000000000000000000c77f7fed3b5cc8249adc428c5f44c9063b9734b4"
          ],
          "data": "0x000000000000000000000000000000000000000000000000000000000309da1b",
          "blockHash": "0xca22556ea3de9d64e1d3656722eb4013dbc8162482c1965c2cd7dc92b3a22873",
          "blockNumber": "0x731ccf",
          "transactionHash": "0xd5dfd9fae439be530a4fa56d296c9565b5552d515c2ba203cdf8a43828cab2f7",
          "transactionIndex": "0x64",
          "logIndex": "0xa9",
          "removed": false
        },
        {
          "address": "0x8aafd3ede9adb0ff97c7aebce82a919afb1c8764",
          "topics": [
            "0x4afcb4a87cdbd9974efdb92ee48bc8d7cd0ae4bf217004db3d080cbaee652ca7"
          ],
          "data": "0x000000000000000000000000000000000000000000000000000000006790569c00000000000000000000000000000000000000000000000000123edda9299ee70000000000000000000000000000000000000000000000000000000001f35959",
          "blockHash": "0xca22556ea3de9d64e1d3656722eb4013dbc8162482c1965c2cd7dc92b3a22873",
          "blockNumber": "0x731ccf",
          "transactionHash": "0xd5dfd9fae439be530a4fa56d296c9565b5552d515c2ba203cdf8a43828cab2f7",
          "transactionIndex": "0x64",
          "logIndex": "0xaa",
          "removed": false
        }
      ],
      "logsBloom": "0x00000000000000000000000000000000000000000600000000000000000000000000000000000000000000000000000000000000000000004000000000000000000000000000004000000008000000000000000000000000000000000000000000000000020000000000000000000800020000000000000000000010000000000000000000000000000000000000000000000000000000000000010000000000000000000000000000000000000000004000000000000000000000000000000000000002000000800000000000000000000000000000080000000000000020000000000000000000000000000000000000000000000000000000000000000000",
      "type": "0x2",
      "transactionHash": "0xd5dfd9fae439be530a4fa56d296c9565b5552d515c2ba203cdf8a43828cab2f7",
      "transactionIndex": "0x64",
      "blockHash": "0xca22556ea3de9d64e1d3656722eb4013dbc8162482c1965c2cd7dc92b3a22873",
      "blockNumber": "0x731ccf",
      "gasUsed": "0xfd1b",
      "effectiveGasPrice": "0x9832f4b9",
      "from": "0xc77f7fed3b5cc8249adc428c5f44c9063b9734b4",
      "to": "0x8aafd3ede9adb0ff97c7aebce82a919afb1c8764",
      "contractAddress": null
    }
  ],
  "libraries": [],
  "pending": [],
  "returns": {},
  "timestamp": 1737512604,
  "chain": 11155111,
  "commit": "1d2fb70"
}