{
  "transactions": [
    {
      "hash": "0x48f268088eda37d6da8ff771f20537449538bd3c7ce75714f885e280fdf244d3",
      "transactionType": "CALL",
      "contractName": null,
      "contractAddress": "0xbf4a322f1496e5c3d34a9bcdb4c60567b38c7de2",
      "function": "buy(address)",
      "arguments": [
        "0xC77f7fed3b5Cc8249aDc428c5F44C9063B9734b4"
      ],
      "transaction": {
        "from": "0xc77f7fed3b5cc8249adc428c5f44c9063b9734b4",
        "to": "0xbf4a322f1496e5c3d34a9bcdb4c60567b38c7de2",
        "gas": "0x1b309",
        "value": "0xde0b6b3a7640000",
        "input": "0xf088d547000000000000000000000000c77f7fed3b5cc8249adc428c5f44c9063b9734b4",
        "nonce": "0xbe4",
        "chainId": "0xaa36a7"
      },
      "additionalContracts": [],
      "isFixedGasLimit": false
    }
  ],
  "receipts": [
    {
      "status": "0x1",
      "cumulativeGasUsed": "0xa1366c",
      "logs": [
        {
          "address": "0xbf4a322f1496e5c3d34a9bcdb4c60567b38c7de2",
          "topics": [
            "0xddf252ad1be2c89b69c2b068fc378daa952ba7f163c4a11628f55a4df523b3ef",
            "0x0000000000000000000000000000000000000000000000000000000000000000",
            "0x000000000000000000000000c77f7fed3b5cc8249adc428c5f44c9063b9734b4"
          ],
          "data": "0x0000000000000000000000000000000000000000000000350092d2a6e63caa4c",
          "blockHash": "0x00200ecca5c1d33af580499ddc8fe357862e391b8957a0a580a47542e8aa8dff",
          "blockNumber": "0x725c0a",
          "transactionHash": "0x48f268088eda37d6da8ff771f20537449538bd3c7ce75714f885e280fdf244d3",
          "transactionIndex": "0x4a",
          "logIndex": "0x5f",
          "removed": false
        },
        {
          "address": "0xbf4a322f1496e5c3d34a9bcdb4c60567b38c7de2",
          "topics": [
            "0xddf252ad1be2c89b69c2b068fc378daa952ba7f163c4a11628f55a4df523b3ef",
            "0x0000000000000000000000000000000000000000000000000000000000000000",
            "0x000000000000000000000000c77f7fed3b5cc8249adc428c5f44c9063b9734b4"
          ],
          "data": "0x000000000000000000000000000000000000000000000000292875cd6d046293",
          "blockHash": "0x00200ecca5c1d33af580499ddc8fe357862e391b8957a0a580a47542e8aa8dff",
          "blockNumber": "0x725c0a",
          "transactionHash": "0x48f268088eda37d6da8ff771f20537449538bd3c7ce75714f885e280fdf244d3",
          "transactionIndex": "0x4a",
          "logIndex": "0x60",
          "removed": false
        },
        {
          "address": "0xbf4a322f1496e5c3d34a9bcdb4c60567b38c7de2",
          "topics": [
            "0x4afcb4a87cdbd9974efdb92ee48bc8d7cd0ae4bf217004db3d080cbaee652ca7"
          ],
          "data": "0x00000000000000000000000000000000000000000000000000000000678742d4000000000000000000000000000000000000000000000000000398ed9592d2490000000000000000000000000000000000000000000000000de0b6b3a7640000",
          "blockHash": "0x00200ecca5c1d33af580499ddc8fe357862e391b8957a0a580a47542e8aa8dff",
          "blockNumber": "0x725c0a",
          "transactionHash": "0x48f268088eda37d6da8ff771f20537449538bd3c7ce75714f885e280fdf244d3",
          "transactionIndex": "0x4a",
          "logIndex": "0x61",
          "removed": false
        }
      ],
      "logsBloom": "0x00000000000000000000000000000000000000000000000000000000000000000000000000000000000000000000000000000000000000004000000000000000000000000000000000000008000000000000001000000000000000000000000000000000020000000000000000000800020000000000000000000010000000000000000000000000000000000000000000000000000008000000010000000000000000000000000000000000000000004000000000000000000000000000000000000002000000800000000000001000000000000000080000000000000020000000000000000000000000000000000000000000000000000000000000000000",
      "type": "0x2",
      "transactionHash": "0x48f268088eda37d6da8ff771f20537449538bd3c7ce75714f885e280fdf244d3",
      "transactionIndex": "0x4a",
      "blockHash": "0x00200ecca5c1d33af580499ddc8fe357862e391b8957a0a580a47542e8aa8dff",
      "blockNumber": "0x725c0a",
      "gasUsed": "0x13af6",
      "effectiveGasPrice": "0xb5898e69",
      "from": "0xc77f7fed3b5cc8249adc428c5f44c9063b9734b4",
      "to": "0xbf4a322f1496e5c3d34a9bcdb4c60567b38c7de2",
      "contractAddress": null
    }
  ],
  "libraries": [],
  "pending": [],
  "returns": {},
  "timestamp": 1736917718,
  "chain": 11155111,
  "commit": "51a374b"
}