{
  "transactions": [
    {
      "hash": "0x695ff9b15a8fb6b4917b5032bcc861fbf6117f4c3f403f5fd6166584428b3d78",
      "transactionType": "CALL",
      "contractName": null,
      "contractAddress": "0xbf4a322f1496e5c3d34a9bcdb4c60567b38c7de2",
      "function": "buy(address)",
      "arguments": [
        "0xC77f7fed3b5Cc8249aDc428c5F44C9063B9734b4"
      ],
      "transaction": {
        "from": "0xc77f7fed3b5cc8249adc428c5f44c9063b9734b4",
        "to": "0xbf4a322f1496e5c3d34a9bcdb4c60567b38c7de2",
        "gas": "0x1b309",
        "value": "0xde0b6b3a7640000",
        "input": "0xf088d547000000000000000000000000c77f7fed3b5cc8249adc428c5f44c9063b9734b4",
        "nonce": "0xa12",
        "chainId": "0xaa36a7"
      },
      "additionalContracts": [],
      "isFixedGasLimit": false
    }
  ],
  "receipts": [
    {
      "status": "0x1",
      "cumulativeGasUsed": "0xb1697e",
      "logs": [
        {
          "address": "0xbf4a322f1496e5c3d34a9bcdb4c60567b38c7de2",
          "topics": [
            "0xddf252ad1be2c89b69c2b068fc378daa952ba7f163c4a11628f55a4df523b3ef",
            "0x0000000000000000000000000000000000000000000000000000000000000000",
            "0x000000000000000000000000c77f7fed3b5cc8249adc428c5f44c9063b9734b4"
          ],
          "data": "0x00000000000000000000000000000000000000000000003557d1c00b647236e9",
          "blockHash": "0xfb0d81ec0b65024a7958d0d1d4e9b96ff8d9f82194057e38855bf9858ab92d9a",
          "blockNumber": "0x7259d1",
          "transactionHash": "0x695ff9b15a8fb6b4917b5032bcc861fbf6117f4c3f403f5fd6166584428b3d78",
          "transactionIndex": "0x55",
          "logIndex": "0x5e",
          "removed": false
        },
        {
          "address": "0xbf4a322f1496e5c3d34a9bcdb4c60567b38c7de2",
          "topics": [
            "0xddf252ad1be2c89b69c2b068fc378daa952ba7f163c4a11628f55a4df523b3ef",
            "0x0000000000000000000000000000000000000000000000000000000000000000",
            "0x000000000000000000000000c77f7fed3b5cc8249adc428c5f44c9063b9734b4"
          ],
          "data": "0x000000000000000000000000000000000000000000000000296c35a2a6085841",
          "blockHash": "0xfb0d81ec0b65024a7958d0d1d4e9b96ff8d9f82194057e38855bf9858ab92d9a",
          "blockNumber": "0x7259d1",
          "transactionHash": "0x695ff9b15a8fb6b4917b5032bcc861fbf6117f4c3f403f5fd6166584428b3d78",
          "transactionIndex": "0x55",
          "logIndex": "0x5f",
          "removed": false
        },
        {
          "address": "0xbf4a322f1496e5c3d34a9bcdb4c60567b38c7de2",
          "topics": [
            "0x4afcb4a87cdbd9974efdb92ee48bc8d7cd0ae4bf217004db3d080cbaee652ca7"
          ],
          "data": "0x00000000000000000000000000000000000000000000000000000000678728100000000000000000000000000000000000000000000000000003930b5d6f637e0000000000000000000000000000000000000000000000000de0b6b3a7640000",
          "blockHash": "0xfb0d81ec0b65024a7958d0d1d4e9b96ff8d9f82194057e38855bf9858ab92d9a",
          "blockNumber": "0x7259d1",
          "transactionHash": "0x695ff9b15a8fb6b4917b5032bcc861fbf6117f4c3f403f5fd6166584428b3d78",
          "transactionIndex": "0x55",
          "logIndex": "0x60",
          "removed": false
        }
      ],
      "logsBloom": "0x00000000000000000000000000000000000000000000000000000000000000000000000000000000000000000000000000000000000000004000000000000000000000000000000000000008000000000000001000000000000000000000000000000000020000000000000000000800020000000000000000000010000000000000000000000000000000000000000000000000000008000000010000000000000000000000000000000000000000004000000000000000000000000000000000000002000000800000000000001000000000000000080000000000000020000000000000000000000000000000000000000000000000000000000000000000",
      "type": "0x2",
      "transactionHash": "0x695ff9b15a8fb6b4917b5032bcc861fbf6117f4c3f403f5fd6166584428b3d78",
      "transactionIndex": "0x55",
      "blockHash": "0xfb0d81ec0b65024a7958d0d1d4e9b96ff8d9f82194057e38855bf9858ab92d9a",
      "blockNumber": "0x7259d1",
      "gasUsed": "0x13af6",
      "effectiveGasPrice": "0x438c19321",
      "from": "0xc77f7fed3b5cc8249adc428c5f44c9063b9734b4",
      "to": "0xbf4a322f1496e5c3d34a9bcdb4c60567b38c7de2",
      "contractAddress": null
    }
  ],
  "libraries": [],
  "pending": [],
  "returns": {},
  "timestamp": 1736910866,
  "chain": 11155111,
  "commit": "51a374b"
}