{
  "transactions": [
    {
      "hash": "0xd3a0f5cf9bf956ee29c1011de1057ed81d3078895fd196382e22dbc8ca01c2ab",
      "transactionType": "CALL",
      "contractName": null,
      "contractAddress": "0xbf4a322f1496e5c3d34a9bcdb4c60567b38c7de2",
      "function": "buy(address)",
      "arguments": [
        "0xC77f7fed3b5Cc8249aDc428c5F44C9063B9734b4"
      ],
      "transaction": {
        "from": "0xc77f7fed3b5cc8249adc428c5f44c9063b9734b4",
        "to": "0xbf4a322f1496e5c3d34a9bcdb4c60567b38c7de2",
        "gas": "0x1b309",
        "value": "0xde0b6b3a7640000",
        "input": "0xf088d547000000000000000000000000c77f7fed3b5cc8249adc428c5f44c9063b9734b4",
        "nonce": "0xc8a",
        "chainId": "0xaa36a7"
      },
      "additionalContracts": [],
      "isFixedGasLimit": false
    }
  ],
  "receipts": [
    {
      "status": "0x1",
      "cumulativeGasUsed": "0x1b42d0f",
      "logs": [
        {
          "address": "0xbf4a322f1496e5c3d34a9bcdb4c60567b38c7de2",
          "topics": [
            "0xddf252ad1be2c89b69c2b068fc378daa952ba7f163c4a11628f55a4df523b3ef",
            "0x0000000000000000000000000000000000000000000000000000000000000000",
            "0x000000000000000000000000c77f7fed3b5cc8249adc428c5f44c9063b9734b4"
          ],
          "data": "0x000000000000000000000000000000000000000000000034e1c35e96ba73b0d1",
          "blockHash": "0xfd5037aaabb402f669d2a33e7fcb21abb31907ae02c3456ad8fac2cbb9277267",
          "blockNumber": "0x725cce",
          "transactionHash": "0xd3a0f5cf9bf956ee29c1011de1057ed81d3078895fd196382e22dbc8ca01c2ab",
          "transactionIndex": "0xf0",
          "logIndex": "0x160",
          "removed": false
        },
        {
          "address": "0xbf4a322f1496e5c3d34a9bcdb4c60567b38c7de2",
          "topics": [
            "0xddf252ad1be2c89b69c2b068fc378daa952ba7f163c4a11628f55a4df523b3ef",
            "0x0000000000000000000000000000000000000000000000000000000000000000",
            "0x000000000000000000000000c77f7fed3b5cc8249adc428c5f44c9063b9734b4"
          ],
          "data": "0x000000000000000000000000000000000000000000000000291088ed05437b78",
          "blockHash": "0xfd5037aaabb402f669d2a33e7fcb21abb31907ae02c3456ad8fac2cbb9277267",
          "blockNumber": "0x725cce",
          "transactionHash": "0xd3a0f5cf9bf956ee29c1011de1057ed81d3078895fd196382e22dbc8ca01c2ab",
          "transactionIndex": "0xf0",
          "logIndex": "0x161",
          "removed": false
        },
        {
          "address": "0xbf4a322f1496e5c3d34a9bcdb4c60567b38c7de2",
          "topics": [
            "0x4afcb4a87cdbd9974efdb92ee48bc8d7cd0ae4bf217004db3d080cbaee652ca7"
          ],
          "data": "0x0000000000000000000000000000000000000000000000000000000067874c1c00000000000000000000000000000000000000000000000000039b0622ba26300000000000000000000000000000000000000000000000000de0b6b3a7640000",
          "blockHash": "0xfd5037aaabb402f669d2a33e7fcb21abb31907ae02c3456ad8fac2cbb9277267",
          "blockNumber": "0x725cce",
          "transactionHash": "0xd3a0f5cf9bf956ee29c1011de1057ed81d3078895fd196382e22dbc8ca01c2ab",
          "transactionIndex": "0xf0",
          "logIndex": "0x162",
          "removed": false
        }
      ],
      "logsBloom": "0x00000000000000000000000000000000000000000000000000000000000000000000000000000000000000000000000000000000000000004000000000000000000000000000000000000008000000000000001000000000000000000000000000000000020000000000000000000800020000000000000000000010000000000000000000000000000000000000000000000000000008000000010000000000000000000000000000000000000000004000000000000000000000000000000000000002000000800000000000001000000000000000080000000000000020000000000000000000000000000000000000000000000000000000000000000000",
      "type": "0x2",
      "transactionHash": "0xd3a0f5cf9bf956ee29c1011de1057ed81d3078895fd196382e22dbc8ca01c2ab",
      "transactionIndex": "0xf0",
      "blockHash": "0xfd5037aaabb402f669d2a33e7fcb21abb31907ae02c3456ad8fac2cbb9277267",
      "blockNumber": "0x725cce",
      "gasUsed": "0x13af6",
      "effectiveGasPrice": "0x23918d554",
      "from": "0xc77f7fed3b5cc8249adc428c5f44c9063b9734b4",
      "to": "0xbf4a322f1496e5c3d34a9bcdb4c60567b38c7de2",
      "contractAddress": null
    }
  ],
  "libraries": [],
  "pending": [],
  "returns": {},
  "timestamp": 1736920094,
  "chain": 11155111,
  "commit": "51a374b"
}