{
  "transactions": [
    {
      "hash": "0x9d3f703bb10a86c695f9d671c4875715c771d15732a1d5c9f932246da5bd5aff",
      "transactionType": "CALL",
      "contractName": null,
      "contractAddress": "0x8aafd3ede9adb0ff97c7aebce82a919afb1c8764",
      "function": "sell(uint256)",
      "arguments": [
        "65067398"
      ],
      "transaction": {
        "from": "0xc77f7fed3b5cc8249adc428c5f44c9063b9734b4",
        "to": "0x8aafd3ede9adb0ff97c7aebce82a919afb1c8764",
        "gas": "0x15d88",
        "value": "0x0",
        "input": "0xe4849b320000000000000000000000000000000000000000000000000000000003e0d986",
        "nonce": "0x1412",
        "chainId": "0xaa36a7"
      },
      "additionalContracts": [],
      "isFixedGasLimit": false
    }
  ],
  "receipts": [
    {
      "status": "0x1",
      "cumulativeGasUsed": "0x6e6a36",
      "logs": [
        {
          "address": "0x8aafd3ede9adb0ff97c7aebce82a919afb1c8764",
          "topics": [
            "0xddf252ad1be2c89b69c2b068fc378daa952ba7f163c4a11628f55a4df523b3ef",
            "0x000000000000000000000000c77f7fed3b5cc8249adc428c5f44c9063b9734b4",
            "0x0000000000000000000000000000000000000000000000000000000000000000"
          ],
          "data": "0x0000000000000000000000000000000000000000000000000000000003d8e82b",
          "blockHash": "0xa6728edec0d41fd5894fc899decbd3f7031f45b9fc86d360651b308537ca51f7",
          "blockNumber": "0x731b4d",
          "transactionHash": "0x9d3f703bb10a86c695f9d671c4875715c771d15732a1d5c9f932246da5bd5aff",
          "transactionIndex": "0x4c",
          "logIndex": "0x6f",
          "removed": false
        },
        {
          "address": "0x8aafd3ede9adb0ff97c7aebce82a919afb1c8764",
          "topics": [
            "0xddf252ad1be2c89b69c2b068fc378daa952ba7f163c4a11628f55a4df523b3ef",
            "0x000000000000000000000000c77f7fed3b5cc8249adc428c5f44c9063b9734b4",
            "0x000000000000000000000000c77f7fed3b5cc8249adc428c5f44c9063b9734b4"
          ],
          "data": "0x000000000000000000000000000000000000000000000000000000000007f15b",
          "blockHash": "0xa6728edec0d41fd5894fc899decbd3f7031f45b9fc86d360651b308537ca51f7",
          "blockNumber": "0x731b4d",
          "transactionHash": "0x9d3f703bb10a86c695f9d671c4875715c771d15732a1d5c9f932246da5bd5aff",
          "transactionIndex": "0x4c",
          "logIndex": "0x70",
          "removed": false
        },
        {
          "address": "0x8aafd3ede9adb0ff97c7aebce82a919afb1c8764",
          "topics": [
            "0x4afcb4a87cdbd9974efdb92ee48bc8d7cd0ae4bf217004db3d080cbaee652ca7"
          ],
          "data": "0x000000000000000000000000000000000000000000000000000000006790446c000000000000000000000000000000000000000000000000000e50d2e2eaa30d000000000000000000000000000000000000000000000000000000000004002e",
          "blockHash": "0xa6728edec0d41fd5894fc899decbd3f7031f45b9fc86d360651b308537ca51f7",
          "blockNumber": "0x731b4d",
          "transactionHash": "0x9d3f703bb10a86c695f9d671c4875715c771d15732a1d5c9f932246da5bd5aff",
          "transactionIndex": "0x4c",
          "logIndex": "0x71",
          "removed": false
        }
      ],
      "logsBloom": "0x00000000000000000000000000000000000000000600000000000000000000000000000000000000000000000000000000000000000000004000000000000000000000000000004000000008000000000000000000000000000000000000000000000000020000000000000000000800020000000000000000000010000000000000000000000000000000000000000000000000000000000000010000000000000000000000000000000000000000004000000000000000000000000000000000000002000000800000000000000000000000000000080000000000000020000000000000000000000000000000000000000000000000000000000000000000",
      "type": "0x2",
      "transactionHash": "0x9d3f703bb10a86c695f9d671c4875715c771d15732a1d5c9f932246da5bd5aff",
      "transactionIndex": "0x4c",
      "blockHash": "0xa6728edec0d41fd5894fc899decbd3f7031f45b9fc86d360651b308537ca51f7",
      "blockNumber": "0x731b4d",
      "gasUsed": "0xfd0f",
      "effectiveGasPrice": "0xd2b0ddc1",
      "from": "0xc77f7fed3b5cc8249adc428c5f44c9063b9734b4",
      "to": "0x8aafd3ede9adb0ff97c7aebce82a919afb1c8764",
      "contractAddress": null
    }
  ],
  "libraries": [],
  "pending": [],
  "returns": {},
  "timestamp": 1737507950,
  "chain": 11155111,
  "commit": "1d2fb70"
}