{
  "transactions": [
    {
      "hash": "0xcf6bcdeced0563e84a1e64141c6b02452cd6f4ead36aeb628b4695fed5c0bc7c",
      "transactionType": "CALL",
      "contractName": null,
      "contractAddress": "0x8aafd3ede9adb0ff97c7aebce82a919afb1c8764",
      "function": "sell(uint256)",
      "arguments": [
        "5733217272677417936"
      ],
      "transaction": {
        "from": "0xc77f7fed3b5cc8249adc428c5f44c9063b9734b4",
        "to": "0x8aafd3ede9adb0ff97c7aebce82a919afb1c8764",
        "gas": "0x15dca",
        "value": "0x0",
        "input": "0xe4849b320000000000000000000000000000000000000000000000004f907abbce1243d0",
        "nonce": "0x102e",
        "chainId": "0xaa36a7"
      },
      "additionalContracts": [],
      "isFixedGasLimit": false
    }
  ],
  "receipts": [
    {
      "status": "0x1",
      "cumulativeGasUsed": "0xb09d97",
      "logs": [
        {
          "address": "0x8aafd3ede9adb0ff97c7aebce82a919afb1c8764",
          "topics": [
            "0xddf252ad1be2c89b69c2b068fc378daa952ba7f163c4a11628f55a4df523b3ef",
            "0x000000000000000000000000c77f7fed3b5cc8249adc428c5f44c9063b9734b4",
            "0x0000000000000000000000000000000000000000000000000000000000000000"
          ],
          "data": "0x0000000000000000000000000000000000000000000000004eed881676682281",
          "blockHash": "0x6715ce972e7b46b7fcfb5c2eed55ace330103c30add4f4feea044fc7737aa1a6",
          "blockNumber": "0x7316a9",
          "transactionHash": "0xcf6bcdeced0563e84a1e64141c6b02452cd6f4ead36aeb628b4695fed5c0bc7c",
          "transactionIndex": "0x8b",
          "logIndex": "0x95",
          "removed": false
        },
        {
          "address": "0x8aafd3ede9adb0ff97c7aebce82a919afb1c8764",
          "topics": [
            "0xddf252ad1be2c89b69c2b068fc378daa952ba7f163c4a11628f55a4df523b3ef",
            "0x000000000000000000000000c77f7fed3b5cc8249adc428c5f44c9063b9734b4",
            "0x000000000000000000000000c77f7fed3b5cc8249adc428c5f44c9063b9734b4"
          ],
          "data": "0x00000000000000000000000000000000000000000000000000a2f2a557aa214f",
          "blockHash": "0x6715ce972e7b46b7fcfb5c2eed55ace330103c30add4f4feea044fc7737aa1a6",
          "blockNumber": "0x7316a9",
          "transactionHash": "0xcf6bcdeced0563e84a1e64141c6b02452cd6f4ead36aeb628b4695fed5c0bc7c",
          "transactionIndex": "0x8b",
          "logIndex": "0x96",
          "removed": false
        },
        {
          "address": "0x8aafd3ede9adb0ff97c7aebce82a919afb1c8764",
          "topics": [
            "0x4afcb4a87cdbd9974efdb92ee48bc8d7cd0ae4bf217004db3d080cbaee652ca7"
          ],
          "data": "0x0000000000000000000000000000000000000000000000000000000067900c980000000000000000000000000000000000000000000000000004eda907c7c1ca000000000000000000000000000000000000000000000000001c415331395c12",
          "blockHash": "0x6715ce972e7b46b7fcfb5c2eed55ace330103c30add4f4feea044fc7737aa1a6",
          "blockNumber": "0x7316a9",
          "transactionHash": "0xcf6bcdeced0563e84a1e64141c6b02452cd6f4ead36aeb628b4695fed5c0bc7c",
          "transactionIndex": "0x8b",
          "logIndex": "0x97",
          "removed": false
        }
      ],
      "logsBloom": "0x00000000000000000000000000000000000000000600000000000000000000000000000000000000000000000000000000000000000000004000000000000000000000000000004000000008000000000000000000000000000000000000000000000000020000000000000000000800020000000000000000000010000000000000000000000000000000000000000000000000000000000000010000000000000000000000000000000000000000004000000000000000000000000000000000000002000000800000000000000000000000000000080000000000000020000000000000000000000000000000000000000000000000000000000000000000",
      "type": "0x2",
      "transactionHash": "0xcf6bcdeced0563e84a1e64141c6b02452cd6f4ead36aeb628b4695fed5c0bc7c",
      "transactionIndex": "0x8b",
      "blockHash": "0x6715ce972e7b46b7fcfb5c2eed55ace330103c30add4f4feea044fc7737aa1a6",
      "blockNumber": "0x7316a9",
      "gasUsed": "0xfd3f",
      "effectiveGasPrice": "0x46d9e7a5",
      "from": "0xc77f7fed3b5cc8249adc428c5f44c9063b9734b4",
      "to": "0x8aafd3ede9adb0ff97c7aebce82a919afb1c8764",
      "contractAddress": null
    }
  ],
  "libraries": [],
  "pending": [],
  "returns": {},
  "timestamp": 1737493657,
  "chain": 11155111,
  "commit": "1d2fb70"
}