{
  "transactions": [
    {
      "hash": "0xebb10c3a9025ea0896454c4b7b9093aaf68a4725d8cdaf21af2946706a9ae7fd",
      "transactionType": "CALL",
      "contractName": null,
      "contractAddress": "0xbf4a322f1496e5c3d34a9bcdb4c60567b38c7de2",
      "function": "sell(uint256)",
      "arguments": [
        "979475925513941770353"
      ],
      "transaction": {
        "from": "0xc77f7fed3b5cc8249adc428c5f44c9063b9734b4",
        "to": "0xbf4a322f1496e5c3d34a9bcdb4c60567b38c7de2",
        "gas": "0x16fea",
        "value": "0x0",
        "input": "0xe4849b3200000000000000000000000000000000000000000000003518f584c4e1776071",
        "nonce": "0xc3f",
        "chainId": "0xaa36a7"
      },
      "additionalContracts": [],
      "isFixedGasLimit": false
    }
  ],
  "receipts": [
    {
      "status": "0x1",
      "cumulativeGasUsed": "0x14773a8",
      "logs": [
        {
          "address": "0xbf4a322f1496e5c3d34a9bcdb4c60567b38c7de2",
          "topics": [
            "0xddf252ad1be2c89b69c2b068fc378daa952ba7f163c4a11628f55a4df523b3ef",
            "0x000000000000000000000000c77f7fed3b5cc8249adc428c5f44c9063b9734b4",
            "0x0000000000000000000000000000000000000000000000000000000000000000"
          ],
          "data": "0x00000000000000000000000000000000000000000000003518f584c4e1776071",
          "blockHash": "0x28f25a844a3708cf934b6b76c3a7320d2f34f234f27334547e8264b9d6587352",
          "blockNumber": "0x725c74",
          "transactionHash": "0xebb10c3a9025ea0896454c4b7b9093aaf68a4725d8cdaf21af2946706a9ae7fd",
          "transactionIndex": "0x79",
          "logIndex": "0xc9",
          "removed": false
        },
        {
          "address": "0xbf4a322f1496e5c3d34a9bcdb4c60567b38c7de2",
          "topics": [
            "0x4afcb4a87cdbd9974efdb92ee48bc8d7cd0ae4bf217004db3d080cbaee652ca7"
          ],
          "data": "0x00000000000000000000000000000000000000000000000000000000678747cc00000000000000000000000000000000000000000000000000039a149f298cf50000000000000000000000000000000000000000000000000dc7e3e0d90b55bd",
          "blockHash": "0x28f25a844a3708cf934b6b76c3a7320d2f34f234f27334547e8264b9d6587352",
          "blockNumber": "0x725c74",
          "transactionHash": "0xebb10c3a9025ea0896454c4b7b9093aaf68a4725d8cdaf21af2946706a9ae7fd",
          "transactionIndex": "0x79",
          "logIndex": "0xca",
          "removed": false
        }
      ],
      "logsBloom": "0x00000000000000000000000000000000000000000000000000000000000000000000000000000000000000000000000000000000000000004000000000000000000000000000000000000008000000000000001000000000000000000000000000000000020000000000000000000800020000000000000000000010000000000000000000000000000000000000000000000000000008000000010000000000000000000000000000000000000000004000000000000000000000000000000000000002000000800000000000001000000000000000080000000000000020000000000000000000000000000000000000000000000000000000000000000000",
      "type": "0x2",
      "transactionHash": "0xebb10c3a9025ea0896454c4b7b9093aaf68a4725d8cdaf21af2946706a9ae7fd",
      "transactionIndex": "0x79",
      "blockHash": "0x28f25a844a3708cf934b6b76c3a7320d2f34f234f27334547e8264b9d6587352",
      "blockNumber": "0x725c74",
      "gasUsed": "0xfb91",
      "effectiveGasPrice": "0x1a63403bb",
      "from": "0xc77f7fed3b5cc8249adc428c5f44c9063b9734b4",
      "to": "0xbf4a322f1496e5c3d34a9bcdb4c60567b38c7de2",
      "contractAddress": null
    }
  ],
  "libraries": [],
  "pending": [],
  "returns": {},
  "timestamp": 1736918989,
  "chain": 11155111,
  "commit": "51a374b"
}