{
  "transactions": [
    {
      "hash": "0x9e1ccd01b41eb04fb3803936c2613e3a08fd7c04795fe1ec8c4bd67c1c382c36",
      "transactionType": "CALL",
      "contractName": null,
      "contractAddress": "0x8aafd3ede9adb0ff97c7aebce82a919afb1c8764",
      "function": "sell(uint256)",
      "arguments": [
        "45020951"
      ],
      "transaction": {
        "from": "0xc77f7fed3b5cc8249adc428c5f44c9063b9734b4",
        "to": "0x8aafd3ede9adb0ff97c7aebce82a919afb1c8764",
        "gas": "0x15d88",
        "value": "0x0",
        "input": "0xe4849b320000000000000000000000000000000000000000000000000000000002aef717",
        "nonce": "0x1637",
        "chainId": "0xaa36a7"
      },
      "additionalContracts": [],
      "isFixedGasLimit": false
    }
  ],
  "receipts": [
    {
      "status": "0x1",
      "cumulativeGasUsed": "0x6b7be9",
      "logs": [
        {
          "address": "0x8aafd3ede9adb0ff97c7aebce82a919afb1c8764",
          "topics": [
            "0xddf252ad1be2c89b69c2b068fc378daa952ba7f163c4a11628f55a4df523b3ef",
            "0x000000000000000000000000c77f7fed3b5cc8249adc428c5f44c9063b9734b4",
            "0x0000000000000000000000000000000000000000000000000000000000000000"
          ],
          "data": "0x0000000000000000000000000000000000000000000000000000000002a97830",
          "blockHash": "0x493ea1693b41168e6e79ae0b76c24e2bd27a68328288a660af36057f762db258",
          "blockNumber": "0x731dcf",
          "transactionHash": "0x9e1ccd01b41eb04fb3803936c2613e3a08fd7c04795fe1ec8c4bd67c1c382c36",
          "transactionIndex": "0x58",
          "logIndex": "0x67",
          "removed": false
        },
        {
          "address": "0x8aafd3ede9adb0ff97c7aebce82a919afb1c8764",
          "topics": [
            "0xddf252ad1be2c89b69c2b068fc378daa952ba7f163c4a11628f55a4df523b3ef",
            "0x000000000000000000000000c77f7fed3b5cc8249adc428c5f44c9063b9734b4",
            "0x000000000000000000000000c77f7fed3b5cc8249adc428c5f44c9063b9734b4"
          ],
          "data": "0x0000000000000000000000000000000000000000000000000000000000057ee7",
          "blockHash": "0x493ea1693b41168e6e79ae0b76c24e2bd27a68328288a660af36057f762db258",
          "blockNumber": "0x731dcf",
          "transactionHash": "0x9e1ccd01b41eb04fb3803936c2613e3a08fd7c04795fe1ec8c4bd67c1c382c36",
          "transactionIndex": "0x58",
          "logIndex": "0x68",
          "removed": false
        },
        {
          "address": "0x8aafd3ede9adb0ff97c7aebce82a919afb1c8764",
          "topics": [
            "0x4afcb4a87cdbd9974efdb92ee48bc8d7cd0ae4bf217004db3d080cbaee652ca7"
          ],
          "data": "0x000000000000000000000000000000000000000000000000000000006790629c0000000000000000000000000000000000000000000000000014a5777f801591000000000000000000000000000000000000000000000000000000000003fe04",
          "blockHash": "0x493ea1693b41168e6e79ae0b76c24e2bd27a68328288a660af36057f762db258",
          "blockNumber": "0x731dcf",
          "transactionHash": "0x9e1ccd01b41eb04fb3803936c2613e3a08fd7c04795fe1ec8c4bd67c1c382c36",
          "transactionIndex": "0x58",
          "logIndex": "0x69",
          "removed": false
        }
      ],
      "logsBloom": "0x00000000000000000000000000000000000000000600000000000000000000000000000000000000000000000000000000000000000000004000000000000000000000000000004000000008000000000000000000000000000000000000000000000000020000000000000000000800020000000000000000000010000000000000000000000000000000000000000000000000000000000000010000000000000000000000000000000000000000004000000000000000000000000000000000000002000000800000000000000000000000000000080000000000000020000000000000000000000000000000000000000000000000000000000000000000",
      "type": "0x2",
      "transactionHash": "0x9e1ccd01b41eb04fb3803936c2613e3a08fd7c04795fe1ec8c4bd67c1c382c36",
      "transactionIndex": "0x58",
      "blockHash": "0x493ea1693b41168e6e79ae0b76c24e2bd27a68328288a660af36057f762db258",
      "blockNumber": "0x731dcf",
      "gasUsed": "0xfd0f",
      "effectiveGasPrice": "0x56ebb849",
      "from": "0xc77f7fed3b5cc8249adc428c5f44c9063b9734b4",
      "to": "0x8aafd3ede9adb0ff97c7aebce82a919afb1c8764",
      "contractAddress": null
    }
  ],
  "libraries": [],
  "pending": [],
  "returns": {},
  "timestamp": 1737515676,
  "chain": 11155111,
  "commit": "1d2fb70"
}