{
  "transactions": [
    {
      "hash": "0xa72d6bc7b3b7c0fc1d88793d8c28fbb1ce9ad8490fcbeb46eee3a34a0cea80fd",
      "transactionType": "CALL",
      "contractName": null,
      "contractAddress": "0xbf4a322f1496e5c3d34a9bcdb4c60567b38c7de2",
      "function": "buy(address)",
      "arguments": [
        "0xC77f7fed3b5Cc8249aDc428c5F44C9063B9734b4"
      ],
      "transaction": {
        "from": "0xc77f7fed3b5cc8249adc428c5f44c9063b9734b4",
        "to": "0xbf4a322f1496e5c3d34a9bcdb4c60567b38c7de2",
        "gas": "0x1b309",
        "value": "0xde0b6b3a7640000",
        "input": "0xf088d547000000000000000000000000c77f7fed3b5cc8249adc428c5f44c9063b9734b4",
        "nonce": "0xb7a",
        "chainId": "0xaa36a7"
      },
      "additionalContracts": [],
      "isFixedGasLimit": false
    }
  ],
  "receipts": [
    {
      "status": "0x1",
      "cumulativeGasUsed": "0x1f753bf",
      "logs": [
        {
          "address": "0xbf4a322f1496e5c3d34a9bcdb4c60567b38c7de2",
          "topics": [
            "0xddf252ad1be2c89b69c2b068fc378daa952ba7f163c4a11628f55a4df523b3ef",
            "0x0000000000000000000000000000000000000000000000000000000000000000",
            "0x000000000000000000000000c77f7fed3b5cc8249adc428c5f44c9063b9734b4"
          ],
          "data": "0x000000000000000000000000000000000000000000000035145231ba91f7266b",
          "blockHash": "0x8f0c2756555fa9915a7b0d8673562a5cfea14705425c7d341995c93b8cb68448",
          "blockNumber": "0x725b88",
          "transactionHash": "0xa72d6bc7b3b7c0fc1d88793d8c28fbb1ce9ad8490fcbeb46eee3a34a0cea80fd",
          "transactionIndex": "0x80",
          "logIndex": "0xdb",
          "removed": false
        },
        {
          "address": "0xbf4a322f1496e5c3d34a9bcdb4c60567b38c7de2",
          "topics": [
            "0xddf252ad1be2c89b69c2b068fc378daa952ba7f163c4a11628f55a4df523b3ef",
            "0x0000000000000000000000000000000000000000000000000000000000000000",
            "0x000000000000000000000000c77f7fed3b5cc8249adc428c5f44c9063b9734b4"
          ],
          "data": "0x0000000000000000000000000000000000000000000000002937cb788464354b",
          "blockHash": "0x8f0c2756555fa9915a7b0d8673562a5cfea14705425c7d341995c93b8cb68448",
          "blockNumber": "0x725b88",
          "transactionHash": "0xa72d6bc7b3b7c0fc1d88793d8c28fbb1ce9ad8490fcbeb46eee3a34a0cea80fd",
          "transactionIndex": "0x80",
          "logIndex": "0xdc",
          "removed": false
        },
        {
          "address": "0xbf4a322f1496e5c3d34a9bcdb4c60567b38c7de2",
          "topics": [
            "0x4afcb4a87cdbd9974efdb92ee48bc8d7cd0ae4bf217004db3d080cbaee652ca7"
          ],
          "data": "0x0000000000000000000000000000000000000000000000000000000067873cbc00000000000000000000000000000000000000000000000000039796f7aa53630000000000000000000000000000000000000000000000000de0b6b3a7640000",
          "blockHash": "0x8f0c2756555fa9915a7b0d8673562a5cfea14705425c7d341995c93b8cb68448",
          "blockNumber": "0x725b88",
          "transactionHash": "0xa72d6bc7b3b7c0fc1d88793d8c28fbb1ce9ad8490fcbeb46eee3a34a0cea80fd",
          "transactionIndex": "0x80",
          "logIndex": "0xdd",
          "removed": false
        }
      ],
      "logsBloom": "0x00000000000000000000000000000000000000000000000000000000000000000000000000000000000000000000000000000000000000004000000000000000000000000000000000000008000000000000001000000000000000000000000000000000020000000000000000000800020000000000000000000010000000000000000000000000000000000000000000000000000008000000010000000000000000000000000000000000000000004000000000000000000000000000000000000002000000800000000000001000000000000000080000000000000020000000000000000000000000000000000000000000000000000000000000000000",
      "type": "0x2",
      "transactionHash": "0xa72d6bc7b3b7c0fc1d88793d8c28fbb1ce9ad8490fcbeb46eee3a34a0cea80fd",
      "transactionIndex": "0x80",
      "blockHash": "0x8f0c2756555fa9915a7b0d8673562a5cfea14705425c7d341995c93b8cb68448",
      "blockNumber": "0x725b88",
      "gasUsed": "0x13af6",
      "effectiveGasPrice": "0x3e82810f",
      "from": "0xc77f7fed3b5cc8249adc428c5f44c9063b9734b4",
      "to": "0xbf4a322f1496e5c3d34a9bcdb4c60567b38c7de2",
      "contractAddress": null
    }
  ],
  "libraries": [],
  "pending": [],
  "returns": {},
  "timestamp": 1736916156,
  "chain": 11155111,
  "commit": "51a374b"
}