{
  "transactions": [
    {
      "hash": "0xa943fc5cc7c72ceafa384d9a9a121e817be9e8e7c51706ddf82b472fedb2ebdc",
      "transactionType": "CALL",
      "contractName": null,
      "contractAddress": "0x5eb9cc76c3506942c1c0ead70e877dd5e4f00cb0",
      "function": "sell(uint256)",
      "arguments": [
        "989129639687088239604"
      ],
      "transaction": {
        "from": "0xc77f7fed3b5cc8249adc428c5f44c9063b9734b4",
        "to": "0x5eb9cc76c3506942c1c0ead70e877dd5e4f00cb0",
        "gas": "0x16fec",
        "value": "0x0",
        "input": "0xe4849b320000000000000000000000000000000000000000000000359eee66a97703f3f4",
        "nonce": "0x347",
        "chainId": "0xaa36a7"
      },
      "additionalContracts": [],
      "isFixedGasLimit": false
    }
  ],
  "receipts": [
    {
      "status": "0x1",
      "cumulativeGasUsed": "0x77f901",
      "logs": [
        {
          "address": "0x5eb9cc76c3506942c1c0ead70e877dd5e4f00cb0",
          "topics": [
            "0xddf252ad1be2c89b69c2b068fc378daa952ba7f163c4a11628f55a4df523b3ef",
            "0x000000000000000000000000c77f7fed3b5cc8249adc428c5f44c9063b9734b4",
            "0x0000000000000000000000000000000000000000000000000000000000000000"
          ],
          "data": "0x0000000000000000000000000000000000000000000000359eee66a97703f3f4",
          "blockHash": "0xdc2052f86fc61e0c3d5dafcf8b167834a824ae255bb11c031b574a259ffabd51",
          "blockNumber": "0x724f36",
          "transactionHash": "0xa943fc5cc7c72ceafa384d9a9a121e817be9e8e7c51706ddf82b472fedb2ebdc",
          "transactionIndex": "0x47",
          "logIndex": "0x4f",
          "removed": false
        },
        {
          "address": "0x5eb9cc76c3506942c1c0ead70e877dd5e4f00cb0",
          "topics": [
            "0x4afcb4a87cdbd9974efdb92ee48bc8d7cd0ae4bf217004db3d080cbaee652ca7"
          ],
          "data": "0x000000000000000000000000000000000000000000000000000000006786a83c0000000000000000000000000000000000000000000000000003910e77ba17870000000000000000000000000000000000000000000000000dc7db13321c3031",
          "blockHash": "0xdc2052f86fc61e0c3d5dafcf8b167834a824ae255bb11c031b574a259ffabd51",
          "blockNumber": "0x724f36",
          "transactionHash": "0xa943fc5cc7c72ceafa384d9a9a121e817be9e8e7c51706ddf82b472fedb2ebdc",
          "transactionIndex": "0x47",
          "logIndex": "0x50",
          "removed": false
        }
      ],
      "logsBloom": "0x00000000000000000000000000000000000000000000000000000000000000000000000000000000000000000000000000000000000000004000000000000000000000000000000000000008000000000000000000000000000000000000000000000000020000000000000004000800020000000000000000000010000000000000000000000000000000000000000000000000000000000000010000000000000000000000000000000000000000004000000000000000000000000000020000000002000000800000008000000000000000000000080000000000000020000000000000000000000000000000000000000000000000000000000000000000",
      "type": "0x2",
      "transactionHash": "0xa943fc5cc7c72ceafa384d9a9a121e817be9e8e7c51706ddf82b472fedb2ebdc",
      "transactionIndex": "0x47",
      "blockHash": "0xdc2052f86fc61e0c3d5dafcf8b167834a824ae255bb11c031b574a259ffabd51",
      "blockNumber": "0x724f36",
      "gasUsed": "0xfb93",
      "effectiveGasPrice": "0x60865d30c",
      "from": "0xc77f7fed3b5cc8249adc428c5f44c9063b9734b4",
      "to": "0x5eb9cc76c3506942c1c0ead70e877dd5e4f00cb0",
      "contractAddress": null
    }
  ],
  "libraries": [],
  "pending": [],
  "returns": {},
  "timestamp": 1736878141,
  "chain": 11155111,
  "commit": "51a374b"
}