{
  "transactions": [
    {
      "hash": "0x38444271238a7ae9884db1b9fc2781b045dd59440e440663168f518b1fb95985",
      "transactionType": "CALL",
      "contractName": null,
      "contractAddress": "0x8aafd3ede9adb0ff97c7aebce82a919afb1c8764",
      "function": "buy(address)",
      "arguments": [
        "0xC77f7fed3b5Cc8249aDc428c5F44C9063B9734b4"
      ],
      "transaction": {
        "from": "0xc77f7fed3b5cc8249adc428c5f44c9063b9734b4",
        "to": "0x8aafd3ede9adb0ff97c7aebce82a919afb1c8764",
        "gas": "0x156ea",
        "value": "0xde0b6b3a7640000",
        "input": "0xf088d547000000000000000000000000c77f7fed3b5cc8249adc428c5f44c9063b9734b4",
        "nonce": "0x153d",
        "chainId": "0xaa36a7"
      },
      "additionalContracts": [],
      "isFixedGasLimit": false
    }
  ],
  "receipts": [
    {
      "status": "0x1",
      "cumulativeGasUsed": "0x7d3b7c",
      "logs": [
        {
          "address": "0x8aafd3ede9adb0ff97c7aebce82a919afb1c8764",
          "topics": [
            "0xddf252ad1be2c89b69c2b068fc378daa952ba7f163c4a11628f55a4df523b3ef",
            "0x0000000000000000000000000000000000000000000000000000000000000000",
            "0x000000000000000000000000c77f7fed3b5cc8249adc428c5f44c9063b9734b4"
          ],
          "data": "0x00000000000000000000000000000000000000000000000ac1ae014b33b17d85",
          "blockHash": "0xb30fcbb221694e337e3c8984ab05d09a927eafe12449bc9e048ffa8529042329",
          "blockNumber": "0x731ca1",
          "transactionHash": "0x38444271238a7ae9884db1b9fc2781b045dd59440e440663168f518b1fb95985",
          "transactionIndex": "0x5e",
          "logIndex": "0x5e",
          "removed": false
        },
        {
          "address": "0x8aafd3ede9adb0ff97c7aebce82a919afb1c8764",
          "topics": [
            "0xddf252ad1be2c89b69c2b068fc378daa952ba7f163c4a11628f55a4df523b3ef",
            "0x0000000000000000000000000000000000000000000000000000000000000000",
            "0x000000000000000000000000c77f7fed3b5cc8249adc428c5f44c9063b9734b4"
          ],
          "data": "0x000000000000000000000000000000000000000000000000085a53832cd0b62e",
          "blockHash": "0xb30fcbb221694e337e3c8984ab05d09a927eafe12449bc9e048ffa8529042329",
          "blockNumber": "0x731ca1",
          "transactionHash": "0x38444271238a7ae9884db1b9fc2781b045dd59440e440663168f518b1fb95985",
          "transactionIndex": "0x5e",
          "logIndex": "0x5f",
          "removed": false
        },
        {
          "address": "0x8aafd3ede9adb0ff97c7aebce82a919afb1c8764",
          "topics": [
            "0x4afcb4a87cdbd9974efdb92ee48bc8d7cd0ae4bf217004db3d080cbaee652ca7"
          ],
          "data": "0x00000000000000000000000000000000000000000000000000000000679054680000000000000000000000000000000000000000000000000011c052ca90c0530000000000000000000000000000000000000000000000000de0b6b3a7640000",
          "blockHash": "0xb30fcbb221694e337e3c8984ab05d09a927eafe12449bc9e048ffa8529042329",
          "blockNumber": "0x731ca1",
          "transactionHash": "0x38444271238a7ae9884db1b9fc2781b045dd59440e440663168f518b1fb95985",
          "transactionIndex": "0x5e",
          "logIndex": "0x60",
          "removed": false
        }
      ],
      "logsBloom": "0x00000000000000000000000000000000000000000600000000000000000000000000000000000000000000000000000000000000000000004000000000000000000000000000004000000008000000000000000000000000000000000000000000000000020000000000000000000800020000000000000000000010000000000000000000000000000000000000000000000000000000000000010000000000000000000000000000000000000000004000000000000000000000000000000000000002000000800000000000000000000000000000080000000000000020000000000000000000000000000000000000000000000000000000000000000000",
      "type": "0x2",
      "transactionHash": "0x38444271238a7ae9884db1b9fc2781b045dd59440e440663168f518b1fb95985",
      "transactionIndex": "0x5e",
      "blockHash": "0xb30fcbb221694e337e3c8984ab05d09a927eafe12449bc9e048ffa8529042329",
      "blockNumber": "0x731ca1",
      "gasUsed": "0xf844",
      "effectiveGasPrice": "0x104a0ce02",
      "from": "0xc77f7fed3b5cc8249adc428c5f44c9063b9734b4",
      "to": "0x8aafd3ede9adb0ff97c7aebce82a919afb1c8764",
      "contractAddress": null
    }
  ],
  "libraries": [],
  "pending": [],
  "returns": {},
  "timestamp": 1737512041,
  "chain": 11155111,
  "commit": "1d2fb70"
}