{
  "transactions": [
    {
      "hash": "0x026e693561a15c7ba0111f83b438588202a4fce75257f099402e41d6e605679b",
      "transactionType": "CALL",
      "contractName": null,
      "contractAddress": "0x8aafd3ede9adb0ff97c7aebce82a919afb1c8764",
      "function": "sell(uint256)",
      "arguments": [
        "179784662"
      ],
      "transaction": {
        "from": "0xc77f7fed3b5cc8249adc428c5f44c9063b9734b4",
        "to": "0x8aafd3ede9adb0ff97c7aebce82a919afb1c8764",
        "gas": "0x14e6c",
        "value": "0x0",
        "input": "0xe4849b32000000000000000000000000000000000000000000000000000000000ab74bd6",
        "nonce": "0x11b9",
        "chainId": "0xaa36a7"
      },
      "additionalContracts": [],
      "isFixedGasLimit": false
    }
  ],
  "receipts": [
    {
      "status": "0x1",
      "cumulativeGasUsed": "0x8552a2",
      "logs": [
        {
          "address": "0x8aafd3ede9adb0ff97c7aebce82a919afb1c8764",
          "topics": [
            "0xddf252ad1be2c89b69c2b068fc378daa952ba7f163c4a11628f55a4df523b3ef",
            "0x000000000000000000000000c77f7fed3b5cc8249adc428c5f44c9063b9734b4",
            "0x0000000000000000000000000000000000000000000000000000000000000000"
          ],
          "data": "0x000000000000000000000000000000000000000000000000000000000aa15991",
          "blockHash": "0x708d8258b374e9732360afea943ed79bd334d8f711030d15b95f6e4b27cd5aba",
          "blockNumber": "0x731887",
          "transactionHash": "0x026e693561a15c7ba0111f83b438588202a4fce75257f099402e41d6e605679b",
          "transactionIndex": "0x69",
          "logIndex": "0x6e",
          "removed": false
        },
        {
          "address": "0x8aafd3ede9adb0ff97c7aebce82a919afb1c8764",
          "topics": [
            "0xddf252ad1be2c89b69c2b068fc378daa952ba7f163c4a11628f55a4df523b3ef",
            "0x000000000000000000000000c77f7fed3b5cc8249adc428c5f44c9063b9734b4",
            "0x000000000000000000000000c77f7fed3b5cc8249adc428c5f44c9063b9734b4"
          ],
          "data": "0x000000000000000000000000000000000000000000000000000000000015f245",
          "blockHash": "0x708d8258b374e9732360afea943ed79bd334d8f711030d15b95f6e4b27cd5aba",
          "blockNumber": "0x731887",
          "transactionHash": "0x026e693561a15c7ba0111f83b438588202a4fce75257f099402e41d6e605679b",
          "transactionIndex": "0x69",
          "logIndex": "0x6f",
          "removed": false
        },
        {
          "address": "0x8aafd3ede9adb0ff97c7aebce82a919afb1c8764",
          "topics": [
            "0x4afcb4a87cdbd9974efdb92ee48bc8d7cd0ae4bf217004db3d080cbaee652ca7"
          ],
          "data": "0x00000000000000000000000000000000000000000000000000000000679023240000000000000000000000000000000000000000000000000005264ede4e645f000000000000000000000000000000000000000000000000000000000003f9f4",
          "blockHash": "0x708d8258b374e9732360afea943ed79bd334d8f711030d15b95f6e4b27cd5aba",
          "blockNumber": "0x731887",
          "transactionHash": "0x026e693561a15c7ba0111f83b438588202a4fce75257f099402e41d6e605679b",
          "transactionIndex": "0x69",
          "logIndex": "0x70",
          "removed": false
        }
      ],
      "logsBloom": "0x00000000000000000000000000000000000000000600000000000000000000000000000000000000000000000000000000000000000000004000000000000000000000000000004000000008000000000000000000000000000000000000000000000000020000000000000000000800020000000000000000000010000000000000000000000000000000000000000000000000000000000000010000000000000000000000000000000000000000004000000000000000000000000000000000000002000000800000000000000000000000000000080000000000000020000000000000000000000000000000000000000000000000000000000000000000",
      "type": "0x2",
      "transactionHash": "0x026e693561a15c7ba0111f83b438588202a4fce75257f099402e41d6e605679b",
      "transactionIndex": "0x69",
      "blockHash": "0x708d8258b374e9732360afea943ed79bd334d8f711030d15b95f6e4b27cd5aba",
      "blockNumber": "0x731887",
      "gasUsed": "0xf21f",
      "effectiveGasPrice": "0x406b2ac4",
      "from": "0xc77f7fed3b5cc8249adc428c5f44c9063b9734b4",
      "to": "0x8aafd3ede9adb0ff97c7aebce82a919afb1c8764",
      "contractAddress": null
    }
  ],
  "libraries": [],
  "pending": [],
  "returns": {},
  "timestamp": 1737499429,
  "chain": 11155111,
  "commit": "1d2fb70"
}