{
  "transactions": [
    {
      "hash": "0x56452618d5eb21d7f27fc0b02498fe37b548eec5b7a085011bcec997746449c1",
      "transactionType": "CALL",
      "contractName": null,
      "contractAddress": "0x8aafd3ede9adb0ff97c7aebce82a919afb1c8764",
      "function": "sell(uint256)",
      "arguments": [
        "16480047278093185"
      ],
      "transaction": {
        "from": "0xc77f7fed3b5cc8249adc428c5f44c9063b9734b4",
        "to": "0x8aafd3ede9adb0ff97c7aebce82a919afb1c8764",
        "gas": "0x1724d",
        "value": "0x0",
        "input": "0xe4849b32000000000000000000000000000000000000000000000000003a8c8403e47381",
        "nonce": "0x13e1",
        "chainId": "0xaa36a7"
      },
      "additionalContracts": [],
      "isFixedGasLimit": false
    }
  ],
  "receipts": [
    {
      "status": "0x1",
      "cumulativeGasUsed": "0x1155228",
      "logs": [
        {
          "address": "0x8aafd3ede9adb0ff97c7aebce82a919afb1c8764",
          "topics": [
            "0xddf252ad1be2c89b69c2b068fc378daa952ba7f163c4a11628f55a4df523b3ef",
            "0x000000000000000000000000c77f7fed3b5cc8249adc428c5f44c9063b9734b4",
            "0x0000000000000000000000000000000000000000000000000000000000000000"
          ],
          "data": "0x000000000000000000000000000000000000000000000000003a149b88fb3318",
          "blockHash": "0xc54809aba3c58be1f4371ecae18ebdc37ac3ef2bdd2ed74a2243a5a1f20137bb",
          "blockNumber": "0x731b10",
          "transactionHash": "0x56452618d5eb21d7f27fc0b02498fe37b548eec5b7a085011bcec997746449c1",
          "transactionIndex": "0x9a",
          "logIndex": "0xb2",
          "removed": false
        },
        {
          "address": "0x8aafd3ede9adb0ff97c7aebce82a919afb1c8764",
          "topics": [
            "0xddf252ad1be2c89b69c2b068fc378daa952ba7f163c4a11628f55a4df523b3ef",
            "0x000000000000000000000000c77f7fed3b5cc8249adc428c5f44c9063b9734b4",
            "0x000000000000000000000000c77f7fed3b5cc8249adc428c5f44c9063b9734b4"
          ],
          "data": "0x000000000000000000000000000000000000000000000000000077e87ae94069",
          "blockHash": "0xc54809aba3c58be1f4371ecae18ebdc37ac3ef2bdd2ed74a2243a5a1f20137bb",
          "blockNumber": "0x731b10",
          "transactionHash": "0x56452618d5eb21d7f27fc0b02498fe37b548eec5b7a085011bcec997746449c1",
          "transactionIndex": "0x9a",
          "logIndex": "0xb3",
          "removed": false
        },
        {
          "address": "0x8aafd3ede9adb0ff97c7aebce82a919afb1c8764",
          "topics": [
            "0x4afcb4a87cdbd9974efdb92ee48bc8d7cd0ae4bf217004db3d080cbaee652ca7"
          ],
          "data": "0x0000000000000000000000000000000000000000000000000000000067904190000000000000000000000000000000000000000000000000000dcd854c111a6500000000000000000000000000000000000000000000000000003a3b89816683",
          "blockHash": "0xc54809aba3c58be1f4371ecae18ebdc37ac3ef2bdd2ed74a2243a5a1f20137bb",
          "blockNumber": "0x731b10",
          "transactionHash": "0x56452618d5eb21d7f27fc0b02498fe37b548eec5b7a085011bcec997746449c1",
          "transactionIndex": "0x9a",
          "logIndex": "0xb4",
          "removed": false
        }
      ],
      "logsBloom": "0x00000000000000000000000000000000000000000600000000000000000000000000000000000000000000000000000000000000000000004000000000000000000000000000004000000008000000000000000000000000000000000000000000000000020000000000000000000800020000000000000000000010000000000000000000000000000000000000000000000000000000000000010000000000000000000000000000000000000000004000000000000000000000000000000000000002000000800000000000000000000000000000080000000000000020000000000000000000000000000000000000000000000000000000000000000000",
      "type": "0x2",
      "transactionHash": "0x56452618d5eb21d7f27fc0b02498fe37b548eec5b7a085011bcec997746449c1",
      "transactionIndex": "0x9a",
      "blockHash": "0xc54809aba3c58be1f4371ecae18ebdc37ac3ef2bdd2ed74a2243a5a1f20137bb",
      "blockNumber": "0x731b10",
      "gasUsed": "0xfd33",
      "effectiveGasPrice": "0x8fa9f650",
      "from": "0xc77f7fed3b5cc8249adc428c5f44c9063b9734b4",
      "to": "0x8aafd3ede9adb0ff97c7aebce82a919afb1c8764",
      "contractAddress": null
    }
  ],
  "libraries": [],
  "pending": [],
  "returns": {},
  "timestamp": 1737507217,
  "chain": 11155111,
  "commit": "1d2fb70"
}