{
  "transactions": [
    {
      "hash": "0xf7f06f8e0c7b3a56b83d69ebd2addb6e0c770b064331036f39f52375dbd06698",
      "transactionType": "CALL",
      "contractName": null,
      "contractAddress": "0x5eb9cc76c3506942c1c0ead70e877dd5e4f00cb0",
      "function": "sell(uint256)",
      "arguments": [
        "989089481869355991573"
      ],
      "transaction": {
        "from": "0xc77f7fed3b5cc8249adc428c5f44c9063b9734b4",
        "to": "0x5eb9cc76c3506942c1c0ead70e877dd5e4f00cb0",
        "gas": "0x16fec",
        "value": "0x0",
        "input": "0xe4849b320000000000000000000000000000000000000000000000359e5fbb56ea214215",
        "nonce": "0x443",
        "chainId": "0xaa36a7"
      },
      "additionalContracts": [],
      "isFixedGasLimit": false
    }
  ],
  "receipts": [
    {
      "status": "0x1",
      "cumulativeGasUsed": "0x151df04",
      "logs": [
        {
          "address": "0x5eb9cc76c3506942c1c0ead70e877dd5e4f00cb0",
          "topics": [
            "0xddf252ad1be2c89b69c2b068fc378daa952ba7f163c4a11628f55a4df523b3ef",
            "0x000000000000000000000000c77f7fed3b5cc8249adc428c5f44c9063b9734b4",
            "0x0000000000000000000000000000000000000000000000000000000000000000"
          ],
          "data": "0x0000000000000000000000000000000000000000000000359e5fbb56ea214215",
          "blockHash": "0x9bfb0332b7586d131eb5f2ef7a3f5c20f233cdf7fc5dec03b633a7c8e6200a7a",
          "blockNumber": "0x725062",
          "transactionHash": "0xf7f06f8e0c7b3a56b83d69ebd2addb6e0c770b064331036f39f52375dbd06698",
          "transactionIndex": "0x83",
          "logIndex": "0xae",
          "removed": false
        },
        {
          "address": "0x5eb9cc76c3506942c1c0ead70e877dd5e4f00cb0",
          "topics": [
            "0x4afcb4a87cdbd9974efdb92ee48bc8d7cd0ae4bf217004db3d080cbaee652ca7"
          ],
          "data": "0x000000000000000000000000000000000000000000000000000000006786b66400000000000000000000000000000000000000000000000000039117f53307250000000000000000000000000000000000000000000000000dc7db1331d4bb8e",
          "blockHash": "0x9bfb0332b7586d131eb5f2ef7a3f5c20f233cdf7fc5dec03b633a7c8e6200a7a",
          "blockNumber": "0x725062",
          "transactionHash": "0xf7f06f8e0c7b3a56b83d69ebd2addb6e0c770b064331036f39f52375dbd06698",
          "transactionIndex": "0x83",
          "logIndex": "0xaf",
          "removed": false
        }
      ],
      "logsBloom": "0x00000000000000000000000000000000000000000000000000000000000000000000000000000000000000000000000000000000000000004000000000000000000000000000000000000008000000000000000000000000000000000000000000000000020000000000000004000800020000000000000000000010000000000000000000000000000000000000000000000000000000000000010000000000000000000000000000000000000000004000000000000000000000000000020000000002000000800000008000000000000000000000080000000000000020000000000000000000000000000000000000000000000000000000000000000000",
      "type": "0x2",
      "transactionHash": "0xf7f06f8e0c7b3a56b83d69ebd2addb6e0c770b064331036f39f52375dbd06698",
      "transactionIndex": "0x83",
      "blockHash": "0x9bfb0332b7586d131eb5f2ef7a3f5c20f233cdf7fc5dec03b633a7c8e6200a7a",
      "blockNumber": "0x725062",
      "gasUsed": "0xfb93",
      "effectiveGasPrice": "0x24d89602e",
      "from": "0xc77f7fed3b5cc8249adc428c5f44c9063b9734b4",
      "to": "0x5eb9cc76c3506942c1c0ead70e877dd5e4f00cb0",
      "contractAddress": null
    }
  ],
  "libraries": [],
  "pending": [],
  "returns": {},
  "timestamp": 1736881765,
  "chain": 11155111,
  "commit": "51a374b"
}