{
  "transactions": [
    {
      "hash": "0x0d5c4e48c1ed8538f38f377584869ee5e455d59b65cb06ed677637273e441efa",
      "transactionType": "CALL",
      "contractName": null,
      "contractAddress": "0x5eb9cc76c3506942c1c0ead70e877dd5e4f00cb0",
      "function": "buy(address)",
      "arguments": [
        "0xC77f7fed3b5Cc8249aDc428c5F44C9063B9734b4"
      ],
      "transaction": {
        "from": "0xc77f7fed3b5cc8249adc428c5f44c9063b9734b4",
        "to": "0x5eb9cc76c3506942c1c0ead70e877dd5e4f00cb0",
        "gas": "0x156c8",
        "value": "0xde0b6b3a7640000",
        "input": "0xf088d547000000000000000000000000c77f7fed3b5cc8249adc428c5f44c9063b9734b4",
        "nonce": "0x202",
        "chainId": "0xaa36a7"
      },
      "additionalContracts": [],
      "isFixedGasLimit": false
    }
  ],
  "receipts": [
    {
      "status": "0x1",
      "cumulativeGasUsed": "0x866577",
      "logs": [
        {
          "address": "0x5eb9cc76c3506942c1c0ead70e877dd5e4f00cb0",
          "topics": [
            "0xddf252ad1be2c89b69c2b068fc378daa952ba7f163c4a11628f55a4df523b3ef",
            "0x0000000000000000000000000000000000000000000000000000000000000000",
            "0x000000000000000000000000c77f7fed3b5cc8249adc428c5f44c9063b9734b4"
          ],
          "data": "0x00000000000000000000000000000000000000000000003584bc31b4038b2e54",
          "blockHash": "0x5e40705bf0ae8a6983947c19c032b49e11f049b8a7cb128e732ffedd4ddb5c04",
          "blockNumber": "0x724b1d",
          "transactionHash": "0x0d5c4e48c1ed8538f38f377584869ee5e455d59b65cb06ed677637273e441efa",
          "transactionIndex": "0x40",
          "logIndex": "0x71",
          "removed": false
        },
        {
          "address": "0x5eb9cc76c3506942c1c0ead70e877dd5e4f00cb0",
          "topics": [
            "0xddf252ad1be2c89b69c2b068fc378daa952ba7f163c4a11628f55a4df523b3ef",
            "0x0000000000000000000000000000000000000000000000000000000000000000",
            "0x000000000000000000000000c77f7fed3b5cc8249adc428c5f44c9063b9734b4"
          ],
          "data": "0x000000000000000000000000000000000000000000000000298f1691be0d4c0f",
          "blockHash": "0x5e40705bf0ae8a6983947c19c032b49e11f049b8a7cb128e732ffedd4ddb5c04",
          "blockNumber": "0x724b1d",
          "transactionHash": "0x0d5c4e48c1ed8538f38f377584869ee5e455d59b65cb06ed677637273e441efa",
          "transactionIndex": "0x40",
          "logIndex": "0x72",
          "removed": false
        },
        {
          "address": "0x5eb9cc76c3506942c1c0ead70e877dd5e4f00cb0",
          "topics": [
            "0x4afcb4a87cdbd9974efdb92ee48bc8d7cd0ae4bf217004db3d080cbaee652ca7"
          ],
          "data": "0x0000000000000000000000000000000000000000000000000000000067867704000000000000000000000000000000000000000000000000000390091d18f4190000000000000000000000000000000000000000000000000de0b6b3a7640000",
          "blockHash": "0x5e40705bf0ae8a6983947c19c032b49e11f049b8a7cb128e732ffedd4ddb5c04",
          "blockNumber": "0x724b1d",
          "transactionHash": "0x0d5c4e48c1ed8538f38f377584869ee5e455d59b65cb06ed677637273e441efa",
          "transactionIndex": "0x40",
          "logIndex": "0x73",
          "removed": false
        }
      ],
      "logsBloom": "0x00000000000000000000000000000000000000000000000000000000000000000000000000000000000000000000000000000000000000004000000000000000000000000000000000000008000000000000000000000000000000000000000000000000020000000000000004000800020000000000000000000010000000000000000000000000000000000000000000000000000000000000010000000000000000000000000000000000000000004000000000000000000000000000020000000002000000800000008000000000000000000000080000000000000020000000000000000000000000000000000000000000000000000000000000000000",
      "type": "0x2",
      "transactionHash": "0x0d5c4e48c1ed8538f38f377584869ee5e455d59b65cb06ed677637273e441efa",
      "transactionIndex": "0x40",
      "blockHash": "0x5e40705bf0ae8a6983947c19c032b49e11f049b8a7cb128e732ffedd4ddb5c04",
      "blockNumber": "0x724b1d",
      "gasUsed": "0xf82c",
      "effectiveGasPrice": "0x59ed75be5",
      "from": "0xc77f7fed3b5cc8249adc428c5f44c9063b9734b4",
      "to": "0x5eb9cc76c3506942c1c0ead70e877dd5e4f00cb0",
      "contractAddress": null
    }
  ],
  "libraries": [],
  "pending": [],
  "returns": {},
  "timestamp": 1736865541,
  "chain": 11155111,
  "commit": "51a374b"
}