{
  "transactions": [
    {
      "hash": "0x207774193c428ead2e1e5451f9f302ebb7fd2abd5c746a860edb0092590cbe31",
      "transactionType": "CALL",
      "contractName": null,
      "contractAddress": "0xbf4a322f1496e5c3d34a9bcdb4c60567b38c7de2",
      "function": "sell(uint256)",
      "arguments": [
        "983840839447330962134"
      ],
      "transaction": {
        "from": "0xc77f7fed3b5cc8249adc428c5f44c9063b9734b4",
        "to": "0xbf4a322f1496e5c3d34a9bcdb4c60567b38c7de2",
        "gas": "0x16fea",
        "value": "0x0",
        "input": "0xe4849b320000000000000000000000000000000000000000000000355588cedd7c483ad6",
        "nonce": "0xafb",
        "chainId": "0xaa36a7"
      },
      "additionalContracts": [],
      "isFixedGasLimit": false
    }
  ],
  "receipts": [
    {
      "status": "0x1",
      "cumulativeGasUsed": "0x98af33",
      "logs": [
        {
          "address": "0xbf4a322f1496e5c3d34a9bcdb4c60567b38c7de2",
          "topics": [
            "0xddf252ad1be2c89b69c2b068fc378daa952ba7f163c4a11628f55a4df523b3ef",
            "0x000000000000000000000000c77f7fed3b5cc8249adc428c5f44c9063b9734b4",
            "0x0000000000000000000000000000000000000000000000000000000000000000"
          ],
          "data": "0x0000000000000000000000000000000000000000000000355588cedd7c483ad6",
          "blockHash": "0x17ab56d74b917819e2988b774365f0712c6e3de725cfd18df15e5287aa78b634",
          "blockNumber": "0x725af0",
          "transactionHash": "0x207774193c428ead2e1e5451f9f302ebb7fd2abd5c746a860edb0092590cbe31",
          "transactionIndex": "0x67",
          "logIndex": "0x77",
          "removed": false
        },
        {
          "address": "0xbf4a322f1496e5c3d34a9bcdb4c60567b38c7de2",
          "topics": [
            "0x4afcb4a87cdbd9974efdb92ee48bc8d7cd0ae4bf217004db3d080cbaee652ca7"
          ],
          "data": "0x0000000000000000000000000000000000000000000000000000000067873590000000000000000000000000000000000000000000000000000395fd60c2d60a0000000000000000000000000000000000000000000000000dc7e3eaff1071ca",
          "blockHash": "0x17ab56d74b917819e2988b774365f0712c6e3de725cfd18df15e5287aa78b634",
          "blockNumber": "0x725af0",
          "transactionHash": "0x207774193c428ead2e1e5451f9f302ebb7fd2abd5c746a860edb0092590cbe31",
          "transactionIndex": "0x67",
          "logIndex": "0x78",
          "removed": false
        }
      ],
      "logsBloom": "0x00000000000000000000000000000000000000000000000000000000000000000000000000000000000000000000000000000000000000004000000000000000000000000000000000000008000000000000001000000000000000000000000000000000020000000000000000000800020000000000000000000010000000000000000000000000000000000000000000000000000008000000010000000000000000000000000000000000000000004000000000000000000000000000000000000002000000800000000000001000000000000000080000000000000020000000000000000000000000000000000000000000000000000000000000000000",
      "type": "0x2",
      "transactionHash": "0x207774193c428ead2e1e5451f9f302ebb7fd2abd5c746a860edb0092590cbe31",
      "transactionIndex": "0x67",
      "blockHash": "0x17ab56d74b917819e2988b774365f0712c6e3de725cfd18df15e5287aa78b634",
      "blockNumber": "0x725af0",
      "gasUsed": "0xfb91",
      "effectiveGasPrice": "0x907804b7",
      "from": "0xc77f7fed3b5cc8249adc428c5f44c9063b9734b4",
      "to": "0xbf4a322f1496e5c3d34a9bcdb4c60567b38c7de2",
      "contractAddress": null
    }
  ],
  "libraries": [],
  "pending": [],
  "returns": {},
  "timestamp": 1736914322,
  "chain": 11155111,
  "commit": "51a374b"
}