{
  "transactions": [
    {
      "hash": "0x7d048c00266365c0e4939cd2e8840842847ff13733c62d8c6e4d734b33748485",
      "transactionType": "CALL",
      "contractName": null,
      "contractAddress": "0x270e88f8683660553e8ba4eb2ad7c91a1710d769",
      "function": "sell(uint256)",
      "arguments": [
        "734641274373658891303"
      ],
      "transaction": {
        "from": "0xc77f7fed3b5cc8249adc428c5f44c9063b9734b4",
        "to": "0x270e88f8683660553e8ba4eb2ad7c91a1710d769",
        "gas": "0x16fec",
        "value": "0x0",
        "input": "0xe4849b32000000000000000000000000000000000000000000000027d3321abf1e37d427",
        "nonce": "0x778",
        "chainId": "0xaa36a7"
      },
      "additionalContracts": [],
      "isFixedGasLimit": false
    }
  ],
  "receipts": [
    {
      "status": "0x1",
      "cumulativeGasUsed": "0x6619f9",
      "logs": [
        {
          "address": "0x270e88f8683660553e8ba4eb2ad7c91a1710d769",
          "topics": [
            "0xddf252ad1be2c89b69c2b068fc378daa952ba7f163c4a11628f55a4df523b3ef",
            "0x000000000000000000000000c77f7fed3b5cc8249adc428c5f44c9063b9734b4",
            "0x0000000000000000000000000000000000000000000000000000000000000000"
          ],
          "data": "0x000000000000000000000000000000000000000000000027d3321abf1e37d427",
          "blockHash": "0xb371b81899183dc9064bfc7b5da16d052acd9192c1bb9c7f9f20c5ce6bf96461",
          "blockNumber": "0x7254a8",
          "transactionHash": "0x7d048c00266365c0e4939cd2e8840842847ff13733c62d8c6e4d734b33748485",
          "transactionIndex": "0x38",
          "logIndex": "0x43",
          "removed": false
        },
        {
          "address": "0x270e88f8683660553e8ba4eb2ad7c91a1710d769",
          "topics": [
            "0x4afcb4a87cdbd9974efdb92ee48bc8d7cd0ae4bf217004db3d080cbaee652ca7"
          ],
          "data": "0x000000000000000000000000000000000000000000000000000000006786e9e80000000000000000000000000000000000000000000000000004cda47f2f21fc0000000000000000000000000000000000000000000000000dc827f1fc4ebb85",
          "blockHash": "0xb371b81899183dc9064bfc7b5da16d052acd9192c1bb9c7f9f20c5ce6bf96461",
          "blockNumber": "0x7254a8",
          "transactionHash": "0x7d048c00266365c0e4939cd2e8840842847ff13733c62d8c6e4d734b33748485",
          "transactionIndex": "0x38",
          "logIndex": "0x44",
          "removed": false
        }
      ],
      "logsBloom": "0x00000000000000000000000000000000000000000000000000000000000000000000000000000000000000000000000020000000000000004000000000000000000000000000000000000008000000000000000000000000000000000000000000000000020000000000000000000800020000000000000000000010000000000000000000010000000000000000000000000000000000000000010000000000000000000000000000000000000000004000000000000000000000000000000000000002000000800000000000000000000000000000080000008000000020000000000000000000000000000000000000000000000000000000000000000000",
      "type": "0x2",
      "transactionHash": "0x7d048c00266365c0e4939cd2e8840842847ff13733c62d8c6e4d734b33748485",
      "transactionIndex": "0x38",
      "blockHash": "0xb371b81899183dc9064bfc7b5da16d052acd9192c1bb9c7f9f20c5ce6bf96461",
      "blockNumber": "0x7254a8",
      "gasUsed": "0xfb93",
      "effectiveGasPrice": "0x136ecd7a2",
      "from": "0xc77f7fed3b5cc8249adc428c5f44c9063b9734b4",
      "to": "0x270e88f8683660553e8ba4eb2ad7c91a1710d769",
      "contractAddress": null
    }
  ],
  "libraries": [],
  "pending": [],
  "returns": {},
  "timestamp": 1736894953,
  "chain": 11155111,
  "commit": "51a374b"
}