{
  "transactions": [
    {
      "hash": "0x7cc102321fce95a3a1cd559f1d3d347258abb6f228b54ed80bc4ea7267b9a585",
      "transactionType": "CALL",
      "contractName": null,
      "contractAddress": "0x8aafd3ede9adb0ff97c7aebce82a919afb1c8764",
      "function": "sell(uint256)",
      "arguments": [
        "21752935644"
      ],
      "transaction": {
        "from": "0xc77f7fed3b5cc8249adc428c5f44c9063b9734b4",
        "to": "0x8aafd3ede9adb0ff97c7aebce82a919afb1c8764",
        "gas": "0x1722a",
        "value": "0x0",
        "input": "0xe4849b3200000000000000000000000000000000000000000000000000000005109374dc",
        "nonce": "0x12e4",
        "chainId": "0xaa36a7"
      },
      "additionalContracts": [],
      "isFixedGasLimit": false
    }
  ],
  "receipts": [
    {
      "status": "0x1",
      "cumulativeGasUsed": "0x7a615b",
      "logs": [
        {
          "address": "0x8aafd3ede9adb0ff97c7aebce82a919afb1c8764",
          "topics": [
            "0xddf252ad1be2c89b69c2b068fc378daa952ba7f163c4a11628f55a4df523b3ef",
            "0x000000000000000000000000c77f7fed3b5cc8249adc428c5f44c9063b9734b4",
            "0x0000000000000000000000000000000000000000000000000000000000000000"
          ],
          "data": "0x000000000000000000000000000000000000000000000000000000050634119f",
          "blockHash": "0x88b5eb6503605aa2a91559dff18ab77eb917cd7e54d10869ff897b41593024c0",
          "blockNumber": "0x7319e7",
          "transactionHash": "0x7cc102321fce95a3a1cd559f1d3d347258abb6f228b54ed80bc4ea7267b9a585",
          "transactionIndex": "0x62",
          "logIndex": "0x8e",
          "removed": false
        },
        {
          "address": "0x8aafd3ede9adb0ff97c7aebce82a919afb1c8764",
          "topics": [
            "0xddf252ad1be2c89b69c2b068fc378daa952ba7f163c4a11628f55a4df523b3ef",
            "0x000000000000000000000000c77f7fed3b5cc8249adc428c5f44c9063b9734b4",
            "0x000000000000000000000000c77f7fed3b5cc8249adc428c5f44c9063b9734b4"
          ],
          "data": "0x000000000000000000000000000000000000000000000000000000000a5f633d",
          "blockHash": "0x88b5eb6503605aa2a91559dff18ab77eb917cd7e54d10869ff897b41593024c0",
          "blockNumber": "0x7319e7",
          "transactionHash": "0x7cc102321fce95a3a1cd559f1d3d347258abb6f228b54ed80bc4ea7267b9a585",
          "transactionIndex": "0x62",
          "logIndex": "0x8f",
          "removed": false
        },
        {
          "address": "0x8aafd3ede9adb0ff97c7aebce82a919afb1c8764",
          "topics": [
            "0x4afcb4a87cdbd9974efdb92ee48bc8d7cd0ae4bf217004db3d080cbaee652ca7"
          ],
          "data": "0x00000000000000000000000000000000000000000000000000000000679033a4000000000000000000000000000000000000000000000000000551e775b24ff00000000000000000000000000000000000000000000000000000000001f1082e",
          "blockHash": "0x88b5eb6503605aa2a91559dff18ab77eb917cd7e54d10869ff897b41593024c0",
          "blockNumber": "0x7319e7",
          "transactionHash": "0x7cc102321fce95a3a1cd559f1d3d347258abb6f228b54ed80bc4ea7267b9a585",
          "transactionIndex": "0x62",
          "logIndex": "0x90",
          "removed": false
        }
      ],
      "logsBloom": "0x00000000000000000000000000000000000000000600000000000000000000000000000000000000000000000000000000000000000000004000000000000000000000000000004000000008000000000000000000000000000000000000000000000000020000000000000000000800020000000000000000000010000000000000000000000000000000000000000000000000000000000000010000000000000000000000000000000000000000004000000000000000000000000000000000000002000000800000000000000000000000000000080000000000000020000000000000000000000000000000000000000000000000000000000000000000",
      "type": "0x2",
      "transactionHash": "0x7cc102321fce95a3a1cd559f1d3d347258abb6f228b54ed80bc4ea7267b9a585",
      "transactionIndex": "0x62",
      "blockHash": "0x88b5eb6503605aa2a91559dff18ab77eb917cd7e54d10869ff897b41593024c0",
      "blockNumber": "0x7319e7",
      "gasUsed": "0xfd1b",
      "effectiveGasPrice": "0x4426b9f6",
      "from": "0xc77f7fed3b5cc8249adc428c5f44c9063b9734b4",
      "to": "0x8aafd3ede9adb0ff97c7aebce82a919afb1c8764",
      "contractAddress": null
    }
  ],
  "libraries": [],
  "pending": [],
  "returns": {},
  "timestamp": 1737503653,
  "chain": 11155111,
  "commit": "1d2fb70"
}