{
  "transactions": [
    {
      "hash": "0x1e1d65a19090934db2a1ffa525fe9e787c800acf5cd5fe9a83cae7c60e8463ad",
      "transactionType": "CALL",
      "contractName": null,
      "contractAddress": "0x270e88f8683660553e8ba4eb2ad7c91a1710d769",
      "function": "sell(uint256)",
      "arguments": [
        "759058297230969074124"
      ],
      "transaction": {
        "from": "0xc77f7fed3b5cc8249adc428c5f44c9063b9734b4",
        "to": "0x270e88f8683660553e8ba4eb2ad7c91a1710d769",
        "gas": "0x16fec",
        "value": "0x0",
        "input": "0xe4849b32000000000000000000000000000000000000000000000029260ccbab18c8f1cc",
        "nonce": "0x66a",
        "chainId": "0xaa36a7"
      },
      "additionalContracts": [],
      "isFixedGasLimit": false
    }
  ],
  "receipts": [
    {
      "status": "0x1",
      "cumulativeGasUsed": "0x11afd7a",
      "logs": [
        {
          "address": "0x270e88f8683660553e8ba4eb2ad7c91a1710d769",
          "topics": [
            "0xddf252ad1be2c89b69c2b068fc378daa952ba7f163c4a11628f55a4df523b3ef",
            "0x000000000000000000000000c77f7fed3b5cc8249adc428c5f44c9063b9734b4",
            "0x0000000000000000000000000000000000000000000000000000000000000000"
          ],
          "data": "0x000000000000000000000000000000000000000000000029260ccbab18c8f1cc",
          "blockHash": "0xf6ac9563b227834df30b55b47d836184522b7055bd28a0c8979b5afa20b0d9f7",
          "blockNumber": "0x725363",
          "transactionHash": "0x1e1d65a19090934db2a1ffa525fe9e787c800acf5cd5fe9a83cae7c60e8463ad",
          "transactionIndex": "0x46",
          "logIndex": "0x191",
          "removed": false
        },
        {
          "address": "0x270e88f8683660553e8ba4eb2ad7c91a1710d769",
          "topics": [
            "0x4afcb4a87cdbd9974efdb92ee48bc8d7cd0ae4bf217004db3d080cbaee652ca7"
          ],
          "data": "0x000000000000000000000000000000000000000000000000000000006786daac0000000000000000000000000000000000000000000000000004a618eeeee10a0000000000000000000000000000000000000000000000000dc82a78c0d2b1db",
          "blockHash": "0xf6ac9563b227834df30b55b47d836184522b7055bd28a0c8979b5afa20b0d9f7",
          "blockNumber": "0x725363",
          "transactionHash": "0x1e1d65a19090934db2a1ffa525fe9e787c800acf5cd5fe9a83cae7c60e8463ad",
          "transactionIndex": "0x46",
          "logIndex": "0x192",
          "removed": false
        }
      ],
      "logsBloom": "0x00000000000000000000000000000000000000000000000000000000000000000000000000000000000000000000000020000000000000004000000000000000000000000000000000000008000000000000000000000000000000000000000000000000020000000000000000000800020000000000000000000010000000000000000000010000000000000000000000000000000000000000010000000000000000000000000000000000000000004000000000000000000000000000000000000002000000800000000000000000000000000000080000008000000020000000000000000000000000000000000000000000000000000000000000000000",
      "type": "0x2",
      "transactionHash": "0x1e1d65a19090934db2a1ffa525fe9e787c800acf5cd5fe9a83cae7c60e8463ad",
      "transactionIndex": "0x46",
      "blockHash": "0xf6ac9563b227834df30b55b47d836184522b7055bd28a0c8979b5afa20b0d9f7",
      "blockNumber": "0x725363",
      "gasUsed": "0xfb93",
      "effectiveGasPrice": "0x2d07476f4",
      "from": "0xc77f7fed3b5cc8249adc428c5f44c9063b9734b4",
      "to": "0x270e88f8683660553e8ba4eb2ad7c91a1710d769",
      "contractAddress": null
    }
  ],
  "libraries": [],
  "pending": [],
  "returns": {},
  "timestamp": 1736891053,
  "chain": 11155111,
  "commit": "51a374b"
}