{
  "transactions": [
    {
      "hash": "0xd85a1cfcf6a356c883b819917dfa32204b143037368f3d23e1fb362a5083306d",
      "transactionType": "CALL",
      "contractName": null,
      "contractAddress": "0x8aafd3ede9adb0ff97c7aebce82a919afb1c8764",
      "function": "sell(uint256)",
      "arguments": [
        "2745514555710"
      ],
      "transaction": {
        "from": "0xc77f7fed3b5cc8249adc428c5f44c9063b9734b4",
        "to": "0x8aafd3ede9adb0ff97c7aebce82a919afb1c8764",
        "gas": "0x15daa",
        "value": "0x0",
        "input": "0xe4849b320000000000000000000000000000000000000000000000000000027f3d6b793e",
        "nonce": "0x1289",
        "chainId": "0xaa36a7"
      },
      "additionalContracts": [],
      "isFixedGasLimit": false
    }
  ],
  "receipts": [
    {
      "status": "0x1",
      "cumulativeGasUsed": "0x8205f6",
      "logs": [
        {
          "address": "0x8aafd3ede9adb0ff97c7aebce82a919afb1c8764",
          "topics": [
            "0xddf252ad1be2c89b69c2b068fc378daa952ba7f163c4a11628f55a4df523b3ef",
            "0x000000000000000000000000c77f7fed3b5cc8249adc428c5f44c9063b9734b4",
            "0x0000000000000000000000000000000000000000000000000000000000000000"
          ],
          "data": "0x0000000000000000000000000000000000000000000000000000027a2041a761",
          "blockHash": "0x1bb501e761296a513c9e7b2e205bd7ea25f5e9f47cce474e091692aa9e283541",
          "blockNumber": "0x731977",
          "transactionHash": "0xd85a1cfcf6a356c883b819917dfa32204b143037368f3d23e1fb362a5083306d",
          "transactionIndex": "0x77",
          "logIndex": "0x82",
          "removed": false
        },
        {
          "address": "0x8aafd3ede9adb0ff97c7aebce82a919afb1c8764",
          "topics": [
            "0xddf252ad1be2c89b69c2b068fc378daa952ba7f163c4a11628f55a4df523b3ef",
            "0x000000000000000000000000c77f7fed3b5cc8249adc428c5f44c9063b9734b4",
            "0x000000000000000000000000c77f7fed3b5cc8249adc428c5f44c9063b9734b4"
          ],
          "data": "0x000000000000000000000000000000000000000000000000000000051d29d1dd",
          "blockHash": "0x1bb501e761296a513c9e7b2e205bd7ea25f5e9f47cce474e091692aa9e283541",
          "blockNumber": "0x731977",
          "transactionHash": "0xd85a1cfcf6a356c883b819917dfa32204b143037368f3d23e1fb362a5083306d",
          "transactionIndex": "0x77",
          "logIndex": "0x83",
          "removed": false
        },
        {
          "address": "0x8aafd3ede9adb0ff97c7aebce82a919afb1c8764",
          "topics": [
            "0x4afcb4a87cdbd9974efdb92ee48bc8d7cd0ae4bf217004db3d080cbaee652ca7"
          ],
          "data": "0x0000000000000000000000000000000000000000000000000000000067902e64000000000000000000000000000000000000000000000000000544d2d08393c600000000000000000000000000000000000000000000000000000000f2b1a152",
          "blockHash": "0x1bb501e761296a513c9e7b2e205bd7ea25f5e9f47cce474e091692aa9e283541",
          "blockNumber": "0x731977",
          "transactionHash": "0xd85a1cfcf6a356c883b819917dfa32204b143037368f3d23e1fb362a5083306d",
          "transactionIndex": "0x77",
          "logIndex": "0x84",
          "removed": false
        }
      ],
      "logsBloom": "0x00000000000000000000000000000000000000000600000000000000000000000000000000000000000000000000000000000000000000004000000000000000000000000000004000000008000000000000000000000000000000000000000000000000020000000000000000000800020000000000000000000010000000000000000000000000000000000000000000000000000000000000010000000000000000000000000000000000000000004000000000000000000000000000000000000002000000800000000000000000000000000000080000000000000020000000000000000000000000000000000000000000000000000000000000000000",
      "type": "0x2",
      "transactionHash": "0xd85a1cfcf6a356c883b819917dfa32204b143037368f3d23e1fb362a5083306d",
      "transactionIndex": "0x77",
      "blockHash": "0x1bb501e761296a513c9e7b2e205bd7ea25f5e9f47cce474e091692aa9e283541",
      "blockNumber": "0x731977",
      "gasUsed": "0xfd27",
      "effectiveGasPrice": "0x4b392ac3",
      "from": "0xc77f7fed3b5cc8249adc428c5f44c9063b9734b4",
      "to": "0x8aafd3ede9adb0ff97c7aebce82a919afb1c8764",
      "contractAddress": null
    }
  ],
  "libraries": [],
  "pending": [],
  "returns": {},
  "timestamp": 1737502309,
  "chain": 11155111,
  "commit": "1d2fb70"
}