{
  "transactions": [
    {
      "hash": "0xa2af2f726b40229a917dc7036eb401593b188cf8ad15bbc35a0dd4149c764b7c",
      "transactionType": "CALL",
      "contractName": null,
      "contractAddress": "0x5eb9cc76c3506942c1c0ead70e877dd5e4f00cb0",
      "function": "sell(uint256)",
      "arguments": [
        "989135058055014064961"
      ],
      "transaction": {
        "from": "0xc77f7fed3b5cc8249adc428c5f44c9063b9734b4",
        "to": "0x5eb9cc76c3506942c1c0ead70e877dd5e4f00cb0",
        "gas": "0x16fec",
        "value": "0x0",
        "input": "0xe4849b320000000000000000000000000000000000000000000000359f01a6a38e7f2341",
        "nonce": "0x325",
        "chainId": "0xaa36a7"
      },
      "additionalContracts": [],
      "isFixedGasLimit": false
    }
  ],
  "receipts": [
    {
      "status": "0x1",
      "cumulativeGasUsed": "0xc617e0",
      "logs": [
        {
          "address": "0x5eb9cc76c3506942c1c0ead70e877dd5e4f00cb0",
          "topics": [
            "0xddf252ad1be2c89b69c2b068fc378daa952ba7f163c4a11628f55a4df523b3ef",
            "0x000000000000000000000000c77f7fed3b5cc8249adc428c5f44c9063b9734b4",
            "0x0000000000000000000000000000000000000000000000000000000000000000"
          ],
          "data": "0x0000000000000000000000000000000000000000000000359f01a6a38e7f2341",
          "blockHash": "0xcfdd2837ab984c2a3ceb5739274de6b7e22ba55f0dc7763e78727c068be641e9",
          "blockNumber": "0x724f0d",
          "transactionHash": "0xa2af2f726b40229a917dc7036eb401593b188cf8ad15bbc35a0dd4149c764b7c",
          "transactionIndex": "0x6d",
          "logIndex": "0xb5",
          "removed": false
        },
        {
          "address": "0x5eb9cc76c3506942c1c0ead70e877dd5e4f00cb0",
          "topics": [
            "0x4afcb4a87cdbd9974efdb92ee48bc8d7cd0ae4bf217004db3d080cbaee652ca7"
          ],
          "data": "0x000000000000000000000000000000000000000000000000000000006786a6500000000000000000000000000000000000000000000000000003910d2ff0e2e20000000000000000000000000000000000000000000000000dc7db133225d45c",
          "blockHash": "0xcfdd2837ab984c2a3ceb5739274de6b7e22ba55f0dc7763e78727c068be641e9",
          "blockNumber": "0x724f0d",
          "transactionHash": "0xa2af2f726b40229a917dc7036eb401593b188cf8ad15bbc35a0dd4149c764b7c",
          "transactionIndex": "0x6d",
          "logIndex": "0xb6",
          "removed": false
        }
      ],
      "logsBloom": "0x00000000000000000000000000000000000000000000000000000000000000000000000000000000000000000000000000000000000000004000000000000000000000000000000000000008000000000000000000000000000000000000000000000000020000000000000004000800020000000000000000000010000000000000000000000000000000000000000000000000000000000000010000000000000000000000000000000000000000004000000000000000000000000000020000000002000000800000008000000000000000000000080000000000000020000000000000000000000000000000000000000000000000000000000000000000",
      "type": "0x2",
      "transactionHash": "0xa2af2f726b40229a917dc7036eb401593b188cf8ad15bbc35a0dd4149c764b7c",
      "transactionIndex": "0x6d",
      "blockHash": "0xcfdd2837ab984c2a3ceb5739274de6b7e22ba55f0dc7763e78727c068be641e9",
      "blockNumber": "0x724f0d",
      "gasUsed": "0xfb93",
      "effectiveGasPrice": "0x6b4ef7047",
      "from": "0xc77f7fed3b5cc8249adc428c5f44c9063b9734b4",
      "to": "0x5eb9cc76c3506942c1c0ead70e877dd5e4f00cb0",
      "contractAddress": null
    }
  ],
  "libraries": [],
  "pending": [],
  "returns": {},
  "timestamp": 1736877649,
  "chain": 11155111,
  "commit": "51a374b"
}