{
  "transactions": [
    {
      "hash": "0x9aac981e53ba8c8d22a4c5c9115c12d00a084a69ee432c48d593dc0d47e978ac",
      "transactionType": "CALL",
      "contractName": null,
      "contractAddress": "0x270e88f8683660553e8ba4eb2ad7c91a1710d769",
      "function": "sell(uint256)",
      "arguments": [
        "748190773481186412147"
      ],
      "transaction": {
        "from": "0xc77f7fed3b5cc8249adc428c5f44c9063b9734b4",
        "to": "0x270e88f8683660553e8ba4eb2ad7c91a1710d769",
        "gas": "0x16fec",
        "value": "0x0",
        "input": "0xe4849b320000000000000000000000000000000000000000000000288f3b986582de4673",
        "nonce": "0x6e0",
        "chainId": "0xaa36a7"
      },
      "additionalContracts": [],
      "isFixedGasLimit": false
    }
  ],
  "receipts": [
    {
      "status": "0x1",
      "cumulativeGasUsed": "0x1aaa05b",
      "logs": [
        {
          "address": "0x270e88f8683660553e8ba4eb2ad7c91a1710d769",
          "topics": [
            "0xddf252ad1be2c89b69c2b068fc378daa952ba7f163c4a11628f55a4df523b3ef",
            "0x000000000000000000000000c77f7fed3b5cc8249adc428c5f44c9063b9734b4",
            "0x0000000000000000000000000000000000000000000000000000000000000000"
          ],
          "data": "0x0000000000000000000000000000000000000000000000288f3b986582de4673",
          "blockHash": "0x44cdb1c0d132a2e1da004644df67a32c596d8c21f21f92aeed33408f6d1aab51",
          "blockNumber": "0x7253f3",
          "transactionHash": "0x9aac981e53ba8c8d22a4c5c9115c12d00a084a69ee432c48d593dc0d47e978ac",
          "transactionIndex": "0x6d",
          "logIndex": "0xc2",
          "removed": false
        },
        {
          "address": "0x270e88f8683660553e8ba4eb2ad7c91a1710d769",
          "topics": [
            "0x4afcb4a87cdbd9974efdb92ee48bc8d7cd0ae4bf217004db3d080cbaee652ca7"
          ],
          "data": "0x000000000000000000000000000000000000000000000000000000006786e16c0000000000000000000000000000000000000000000000000004b76120e9a0290000000000000000000000000000000000000000000000000dc82958f446eb4e",
          "blockHash": "0x44cdb1c0d132a2e1da004644df67a32c596d8c21f21f92aeed33408f6d1aab51",
          "blockNumber": "0x7253f3",
          "transactionHash": "0x9aac981e53ba8c8d22a4c5c9115c12d00a084a69ee432c48d593dc0d47e978ac",
          "transactionIndex": "0x6d",
          "logIndex": "0xc3",
          "removed": false
        }
      ],
      "logsBloom": "0x00000000000000000000000000000000000000000000000000000000000000000000000000000000000000000000000020000000000000004000000000000000000000000000000000000008000000000000000000000000000000000000000000000000020000000000000000000800020000000000000000000010000000000000000000010000000000000000000000000000000000000000010000000000000000000000000000000000000000004000000000000000000000000000000000000002000000800000000000000000000000000000080000008000000020000000000000000000000000000000000000000000000000000000000000000000",
      "type": "0x2",
      "transactionHash": "0x9aac981e53ba8c8d22a4c5c9115c12d00a084a69ee432c48d593dc0d47e978ac",
      "transactionIndex": "0x6d",
      "blockHash": "0x44cdb1c0d132a2e1da004644df67a32c596d8c21f21f92aeed33408f6d1aab51",
      "blockNumber": "0x7253f3",
      "gasUsed": "0xfb93",
      "effectiveGasPrice": "0x14b06241d",
      "from": "0xc77f7fed3b5cc8249adc428c5f44c9063b9734b4",
      "to": "0x270e88f8683660553e8ba4eb2ad7c91a1710d769",
      "contractAddress": null
    }
  ],
  "libraries": [],
  "pending": [],
  "returns": {},
  "timestamp": 1736892782,
  "chain": 11155111,
  "commit": "51a374b"
}