{
  "transactions": [
    {
      "hash": "0x2587dfa5d3dd1cd8d72c5868c41bc1732650de0c1f677434e6143572def7b60f",
      "transactionType": "CALL",
      "contractName": null,
      "contractAddress": "0x8aafd3ede9adb0ff97c7aebce82a919afb1c8764",
      "function": "sell(uint256)",
      "arguments": [
        "748789972664637538003"
      ],
      "transaction": {
        "from": "0xc77f7fed3b5cc8249adc428c5f44c9063b9734b4",
        "to": "0x8aafd3ede9adb0ff97c7aebce82a919afb1c8764",
        "gas": "0x17270",
        "value": "0x0",
        "input": "0xe4849b32000000000000000000000000000000000000000000000028978c60e1122d3ed3",
        "nonce": "0xe88",
        "chainId": "0xaa36a7"
      },
      "additionalContracts": [],
      "isFixedGasLimit": false
    }
  ],
  "receipts": [
    {
      "status": "0x1",
      "cumulativeGasUsed": "0xee823c",
      "logs": [
        {
          "address": "0x8aafd3ede9adb0ff97c7aebce82a919afb1c8764",
          "topics": [
            "0xddf252ad1be2c89b69c2b068fc378daa952ba7f163c4a11628f55a4df523b3ef",
            "0x000000000000000000000000c77f7fed3b5cc8249adc428c5f44c9063b9734b4",
            "0x0000000000000000000000000000000000000000000000000000000000000000"
          ],
          "data": "0x000000000000000000000000000000000000000000000028446a7cc6b1c67bc3",
          "blockHash": "0xefa69ca0298111ba0aeccb758da1616f105160cd6ce9af8ab38fba0e0e3b5f5b",
          "blockNumber": "0x7313e5",
          "transactionHash": "0x2587dfa5d3dd1cd8d72c5868c41bc1732650de0c1f677434e6143572def7b60f",
          "transactionIndex": "0x97",
          "logIndex": "0xe6",
          "removed": false
        },
        {
          "address": "0x8aafd3ede9adb0ff97c7aebce82a919afb1c8764",
          "topics": [
            "0xddf252ad1be2c89b69c2b068fc378daa952ba7f163c4a11628f55a4df523b3ef",
            "0x000000000000000000000000c77f7fed3b5cc8249adc428c5f44c9063b9734b4",
            "0x000000000000000000000000c77f7fed3b5cc8249adc428c5f44c9063b9734b4"
          ],
          "data": "0x0000000000000000000000000000000000000000000000005321e41a6066c310",
          "blockHash": "0xefa69ca0298111ba0aeccb758da1616f105160cd6ce9af8ab38fba0e0e3b5f5b",
          "blockNumber": "0x7313e5",
          "transactionHash": "0x2587dfa5d3dd1cd8d72c5868c41bc1732650de0c1f677434e6143572def7b60f",
          "transactionIndex": "0x97",
          "logIndex": "0xe7",
          "removed": false
        },
        {
          "address": "0x8aafd3ede9adb0ff97c7aebce82a919afb1c8764",
          "topics": [
            "0x4afcb4a87cdbd9974efdb92ee48bc8d7cd0ae4bf217004db3d080cbaee652ca7"
          ],
          "data": "0x00000000000000000000000000000000000000000000000000000000678feb500000000000000000000000000000000000000000000000000004b688ac5e307c0000000000000000000000000000000000000000000000000dc834c182dcc503",
          "blockHash": "0xefa69ca0298111ba0aeccb758da1616f105160cd6ce9af8ab38fba0e0e3b5f5b",
          "blockNumber": "0x7313e5",
          "transactionHash": "0x2587dfa5d3dd1cd8d72c5868c41bc1732650de0c1f677434e6143572def7b60f",
          "transactionIndex": "0x97",
          "logIndex": "0xe8",
          "removed": false
        }
      ],
      "logsBloom": "0x00000000000000000000000000000000000000000600000000000000000000000000000000000000000000000000000000000000000000004000000000000000000000000000004000000008000000000000000000000000000000000000000000000000020000000000000000000800020000000000000000000010000000000000000000000000000000000000000000000000000000000000010000000000000000000000000000000000000000004000000000000000000000000000000000000002000000800000000000000000000000000000080000000000000020000000000000000000000000000000000000000000000000000000000000000000",
      "type": "0x2",
      "transactionHash": "0x2587dfa5d3dd1cd8d72c5868c41bc1732650de0c1f677434e6143572def7b60f",
      "transactionIndex": "0x97",
      "blockHash": "0xefa69ca0298111ba0aeccb758da1616f105160cd6ce9af8ab38fba0e0e3b5f5b",
      "blockNumber": "0x7313e5",
      "gasUsed": "0xfd4b",
      "effectiveGasPrice": "0x7484c81c",
      "from": "0xc77f7fed3b5cc8249adc428c5f44c9063b9734b4",
      "to": "0x8aafd3ede9adb0ff97c7aebce82a919afb1c8764",
      "contractAddress": null
    }
  ],
  "libraries": [],
  "pending": [],
  "returns": {},
  "timestamp": 1737485136,
  "chain": 11155111,
  "commit": "51a374b"
}