{
  "transactions": [
    {
      "hash": "0x73b511df0a4ff4403e7b5735895b5f991996c47510201923be63691ff0873e09",
      "transactionType": "CALL",
      "contractName": null,
      "contractAddress": "0x8aafd3ede9adb0ff97c7aebce82a919afb1c8764",
      "function": "sell(uint256)",
      "arguments": [
        "22774584318"
      ],
      "transaction": {
        "from": "0xc77f7fed3b5cc8249adc428c5f44c9063b9734b4",
        "to": "0x8aafd3ede9adb0ff97c7aebce82a919afb1c8764",
        "gas": "0x1722a",
        "value": "0x0",
        "input": "0xe4849b32000000000000000000000000000000000000000000000000000000054d7893fe",
        "nonce": "0x1140",
        "chainId": "0xaa36a7"
      },
      "additionalContracts": [],
      "isFixedGasLimit": false
    }
  ],
  "receipts": [
    {
      "status": "0x1",
      "cumulativeGasUsed": "0xcb43e7",
      "logs": [
        {
          "address": "0x8aafd3ede9adb0ff97c7aebce82a919afb1c8764",
          "topics": [
            "0xddf252ad1be2c89b69c2b068fc378daa952ba7f163c4a11628f55a4df523b3ef",
            "0x000000000000000000000000c77f7fed3b5cc8249adc428c5f44c9063b9734b4",
            "0x0000000000000000000000000000000000000000000000000000000000000000"
          ],
          "data": "0x00000000000000000000000000000000000000000000000000000005429c7a3c",
          "blockHash": "0x0d439b3f62db8e6bf3d0d3b813a4ad3873cd1ed279e3e8c1726438dc39fc3d70",
          "blockNumber": "0x7317f9",
          "transactionHash": "0x73b511df0a4ff4403e7b5735895b5f991996c47510201923be63691ff0873e09",
          "transactionIndex": "0x80",
          "logIndex": "0xac",
          "removed": false
        },
        {
          "address": "0x8aafd3ede9adb0ff97c7aebce82a919afb1c8764",
          "topics": [
            "0xddf252ad1be2c89b69c2b068fc378daa952ba7f163c4a11628f55a4df523b3ef",
            "0x000000000000000000000000c77f7fed3b5cc8249adc428c5f44c9063b9734b4",
            "0x000000000000000000000000c77f7fed3b5cc8249adc428c5f44c9063b9734b4"
          ],
          "data": "0x000000000000000000000000000000000000000000000000000000000adc19c2",
          "blockHash": "0x0d439b3f62db8e6bf3d0d3b813a4ad3873cd1ed279e3e8c1726438dc39fc3d70",
          "blockNumber": "0x7317f9",
          "transactionHash": "0x73b511df0a4ff4403e7b5735895b5f991996c47510201923be63691ff0873e09",
          "transactionIndex": "0x80",
          "logIndex": "0xad",
          "removed": false
        },
        {
          "address": "0x8aafd3ede9adb0ff97c7aebce82a919afb1c8764",
          "topics": [
            "0x4afcb4a87cdbd9974efdb92ee48bc8d7cd0ae4bf217004db3d080cbaee652ca7"
          ],
          "data": "0x0000000000000000000000000000000000000000000000000000000067901c70000000000000000000000000000000000000000000000000000514dfe886f96a0000000000000000000000000000000000000000000000000000000001f10e7a",
          "blockHash": "0x0d439b3f62db8e6bf3d0d3b813a4ad3873cd1ed279e3e8c1726438dc39fc3d70",
          "blockNumber": "0x7317f9",
          "transactionHash": "0x73b511df0a4ff4403e7b5735895b5f991996c47510201923be63691ff0873e09",
          "transactionIndex": "0x80",
          "logIndex": "0xae",
          "removed": false
        }
      ],
      "logsBloom": "0x00000000000000000000000000000000000000000600000000000000000000000000000000000000000000000000000000000000000000004000000000000000000000000000004000000008000000000000000000000000000000000000000000000000020000000000000000000800020000000000000000000010000000000000000000000000000000000000000000000000000000000000010000000000000000000000000000000000000000004000000000000000000000000000000000000002000000800000000000000000000000000000080000000000000020000000000000000000000000000000000000000000000000000000000000000000",
      "type": "0x2",
      "transactionHash": "0x73b511df0a4ff4403e7b5735895b5f991996c47510201923be63691ff0873e09",
      "transactionIndex": "0x80",
      "blockHash": "0x0d439b3f62db8e6bf3d0d3b813a4ad3873cd1ed279e3e8c1726438dc39fc3d70",
      "blockNumber": "0x7317f9",
      "gasUsed": "0xfd1b",
      "effectiveGasPrice": "0x39733a31",
      "from": "0xc77f7fed3b5cc8249adc428c5f44c9063b9734b4",
      "to": "0x8aafd3ede9adb0ff97c7aebce82a919afb1c8764",
      "contractAddress": null
    }
  ],
  "libraries": [],
  "pending": [],
  "returns": {},
  "timestamp": 1737497714,
  "chain": 11155111,
  "commit": "1d2fb70"
}