{
  "transactions": [
    {
      "hash": "0x8f959a94917f5135a8d36103c936cd86545f527cae148ca4e1dcd665733caaca",
      "transactionType": "CALL",
      "contractName": null,
      "contractAddress": "0x8aafd3ede9adb0ff97c7aebce82a919afb1c8764",
      "function": "sell(uint256)",
      "arguments": [
        "1270196310018962468"
      ],
      "transaction": {
        "from": "0xc77f7fed3b5cc8249adc428c5f44c9063b9734b4",
        "to": "0x8aafd3ede9adb0ff97c7aebce82a919afb1c8764",
        "gas": "0x15dca",
        "value": "0x0",
        "input": "0xe4849b3200000000000000000000000000000000000000000000000011a0a4d06db13424",
        "nonce": "0x16c2",
        "chainId": "0xaa36a7"
      },
      "additionalContracts": [],
      "isFixedGasLimit": false
    }
  ],
  "receipts": [
    {
      "status": "0x1",
      "cumulativeGasUsed": "0xe1b03f",
      "logs": [
        {
          "address": "0x8aafd3ede9adb0ff97c7aebce82a919afb1c8764",
          "topics": [
            "0xddf252ad1be2c89b69c2b068fc378daa952ba7f163c4a11628f55a4df523b3ef",
            "0x000000000000000000000000c77f7fed3b5cc8249adc428c5f44c9063b9734b4",
            "0x0000000000000000000000000000000000000000000000000000000000000000"
          ],
          "data": "0x000000000000000000000000000000000000000000000000117c8aeb6edcd791",
          "blockHash": "0x786eee11dee31eb192eec9748bb22efca0619bf6f107159c2a451d6b90f190cd",
          "blockNumber": "0x731e7c",
          "transactionHash": "0x8f959a94917f5135a8d36103c936cd86545f527cae148ca4e1dcd665733caaca",
          "transactionIndex": "0x5b",
          "logIndex": "0x78",
          "removed": false
        },
        {
          "address": "0x8aafd3ede9adb0ff97c7aebce82a919afb1c8764",
          "topics": [
            "0xddf252ad1be2c89b69c2b068fc378daa952ba7f163c4a11628f55a4df523b3ef",
            "0x000000000000000000000000c77f7fed3b5cc8249adc428c5f44c9063b9734b4",
            "0x000000000000000000000000c77f7fed3b5cc8249adc428c5f44c9063b9734b4"
          ],
          "data": "0x000000000000000000000000000000000000000000000000002419e4fed45c93",
          "blockHash": "0x786eee11dee31eb192eec9748bb22efca0619bf6f107159c2a451d6b90f190cd",
          "blockNumber": "0x731e7c",
          "transactionHash": "0x8f959a94917f5135a8d36103c936cd86545f527cae148ca4e1dcd665733caaca",
          "transactionIndex": "0x5b",
          "logIndex": "0x79",
          "removed": false
        },
        {
          "address": "0x8aafd3ede9adb0ff97c7aebce82a919afb1c8764",
          "topics": [
            "0x4afcb4a87cdbd9974efdb92ee48bc8d7cd0ae4bf217004db3d080cbaee652ca7"
          ],
          "data": "0x0000000000000000000000000000000000000000000000000000000067906ab80000000000000000000000000000000000000000000000000016530641882c28000000000000000000000000000000000000000000000000001c5afff3397fa6",
          "blockHash": "0x786eee11dee31eb192eec9748bb22efca0619bf6f107159c2a451d6b90f190cd",
          "blockNumber": "0x731e7c",
          "transactionHash": "0x8f959a94917f5135a8d36103c936cd86545f527cae148ca4e1dcd665733caaca",
          "transactionIndex": "0x5b",
          "logIndex": "0x7a",
          "removed": false
        }
      ],
      "logsBloom": "0x00000000000000000000000000000000000000000600000000000000000000000000000000000000000000000000000000000000000000004000000000000000000000000000004000000008000000000000000000000000000000000000000000000000020000000000000000000800020000000000000000000010000000000000000000000000000000000000000000000000000000000000010000000000000000000000000000000000000000004000000000000000000000000000000000000002000000800000000000000000000000000000080000000000000020000000000000000000000000000000000000000000000000000000000000000000",
      "type": "0x2",
      "transactionHash": "0x8f959a94917f5135a8d36103c936cd86545f527cae148ca4e1dcd665733caaca",
      "transactionIndex": "0x5b",
      "blockHash": "0x786eee11dee31eb192eec9748bb22efca0619bf6f107159c2a451d6b90f190cd",
      "blockNumber": "0x731e7c",
      "gasUsed": "0xfd3f",
      "effectiveGasPrice": "0x41de60ce",
      "from": "0xc77f7fed3b5cc8249adc428c5f44c9063b9734b4",
      "to": "0x8aafd3ede9adb0ff97c7aebce82a919afb1c8764",
      "contractAddress": null
    }
  ],
  "libraries": [],
  "pending": [],
  "returns": {},
  "timestamp": 1737517753,
  "chain": 11155111,
  "commit": "1d2fb70"
}