{
  "transactions": [
    {
      "hash": "0x0295ab378f30ec762822ced4664e54884775a057f094a3101c2395a6a7462c98",
      "transactionType": "CALL",
      "contractName": null,
      "contractAddress": "0x8aafd3ede9adb0ff97c7aebce82a919afb1c8764",
      "function": "sell(uint256)",
      "arguments": [
        "2441309997398974694"
      ],
      "transaction": {
        "from": "0xc77f7fed3b5cc8249adc428c5f44c9063b9734b4",
        "to": "0x8aafd3ede9adb0ff97c7aebce82a919afb1c8764",
        "gas": "0x15dca",
        "value": "0x0",
        "input": "0xe4849b3200000000000000000000000000000000000000000000000021e146820d9360e6",
        "nonce": "0x1323",
        "chainId": "0xaa36a7"
      },
      "additionalContracts": [],
      "isFixedGasLimit": false
    }
  ],
  "receipts": [
    {
      "status": "0x1",
      "cumulativeGasUsed": "0x86ff35",
      "logs": [
        {
          "address": "0x8aafd3ede9adb0ff97c7aebce82a919afb1c8764",
          "topics": [
            "0xddf252ad1be2c89b69c2b068fc378daa952ba7f163c4a11628f55a4df523b3ef",
            "0x000000000000000000000000c77f7fed3b5cc8249adc428c5f44c9063b9734b4",
            "0x0000000000000000000000000000000000000000000000000000000000000000"
          ],
          "data": "0x000000000000000000000000000000000000000000000000219be3a3d41f82f1",
          "blockHash": "0x7c526cb0eee35fc9674ac457d32992beed0005674812293526c3712c629f94d1",
          "blockNumber": "0x731a32",
          "transactionHash": "0x0295ab378f30ec762822ced4664e54884775a057f094a3101c2395a6a7462c98",
          "transactionIndex": "0x80",
          "logIndex": "0x82",
          "removed": false
        },
        {
          "address": "0x8aafd3ede9adb0ff97c7aebce82a919afb1c8764",
          "topics": [
            "0xddf252ad1be2c89b69c2b068fc378daa952ba7f163c4a11628f55a4df523b3ef",
            "0x000000000000000000000000c77f7fed3b5cc8249adc428c5f44c9063b9734b4",
            "0x000000000000000000000000c77f7fed3b5cc8249adc428c5f44c9063b9734b4"
          ],
          "data": "0x000000000000000000000000000000000000000000000000004562de3973ddf5",
          "blockHash": "0x7c526cb0eee35fc9674ac457d32992beed0005674812293526c3712c629f94d1",
          "blockNumber": "0x731a32",
          "transactionHash": "0x0295ab378f30ec762822ced4664e54884775a057f094a3101c2395a6a7462c98",
          "transactionIndex": "0x80",
          "logIndex": "0x83",
          "removed": false
        },
        {
          "address": "0x8aafd3ede9adb0ff97c7aebce82a919afb1c8764",
          "topics": [
            "0x4afcb4a87cdbd9974efdb92ee48bc8d7cd0ae4bf217004db3d080cbaee652ca7"
          ],
          "data": "0x0000000000000000000000000000000000000000000000000000000067903728000000000000000000000000000000000000000000000000000ba97139a425a7000000000000000000000000000000000000000000000000001c77ff8340a004",
          "blockHash": "0x7c526cb0eee35fc9674ac457d32992beed0005674812293526c3712c629f94d1",
          "blockNumber": "0x731a32",
          "transactionHash": "0x0295ab378f30ec762822ced4664e54884775a057f094a3101c2395a6a7462c98",
          "transactionIndex": "0x80",
          "logIndex": "0x84",
          "removed": false
        }
      ],
      "logsBloom": "0x00000000000000000000000000000000000000000600000000000000000000000000000000000000000000000000000000000000000000004000000000000000000000000000004000000008000000000000000000000000000000000000000000000000020000000000000000000800020000000000000000000010000000000000000000000000000000000000000000000000000000000000010000000000000000000000000000000000000000004000000000000000000000000000000000000002000000800000000000000000000000000000080000000000000020000000000000000000000000000000000000000000000000000000000000000000",
      "type": "0x2",
      "transactionHash": "0x0295ab378f30ec762822ced4664e54884775a057f094a3101c2395a6a7462c98",
      "transactionIndex": "0x80",
      "blockHash": "0x7c526cb0eee35fc9674ac457d32992beed0005674812293526c3712c629f94d1",
      "blockNumber": "0x731a32",
      "gasUsed": "0xfd3f",
      "effectiveGasPrice": "0x45657c57",
      "from": "0xc77f7fed3b5cc8249adc428c5f44c9063b9734b4",
      "to": "0x8aafd3ede9adb0ff97c7aebce82a919afb1c8764",
      "contractAddress": null
    }
  ],
  "libraries": [],
  "pending": [],
  "returns": {},
  "timestamp": 1737504554,
  "chain": 11155111,
  "commit": "1d2fb70"
}