{
  "transactions": [
    {
      "hash": "0x65c454176a1760de47c880b004d8ca0fda1b1708b6be51e524ee0a40a7f3efa3",
      "transactionType": "CALL",
      "contractName": null,
      "contractAddress": "0xbf4a322f1496e5c3d34a9bcdb4c60567b38c7de2",
      "function": "sell(uint256)",
      "arguments": [
        "986119475647393720136"
      ],
      "transaction": {
        "from": "0xc77f7fed3b5cc8249adc428c5f44c9063b9734b4",
        "to": "0xbf4a322f1496e5c3d34a9bcdb4c60567b38c7de2",
        "gas": "0x16fea",
        "value": "0x0",
        "input": "0xe4849b320000000000000000000000000000000000000000000000357528266a995e6748",
        "nonce": "0xa53",
        "chainId": "0xaa36a7"
      },
      "additionalContracts": [],
      "isFixedGasLimit": false
    }
  ],
  "receipts": [
    {
      "status": "0x1",
      "cumulativeGasUsed": "0x955ab5",
      "logs": [
        {
          "address": "0xbf4a322f1496e5c3d34a9bcdb4c60567b38c7de2",
          "topics": [
            "0xddf252ad1be2c89b69c2b068fc378daa952ba7f163c4a11628f55a4df523b3ef",
            "0x000000000000000000000000c77f7fed3b5cc8249adc428c5f44c9063b9734b4",
            "0x0000000000000000000000000000000000000000000000000000000000000000"
          ],
          "data": "0x0000000000000000000000000000000000000000000000357528266a995e6748",
          "blockHash": "0xf7aef8e56f232b42ce95a279f5afe26775bdff0a0065bd25feca21748dea891d",
          "blockNumber": "0x725a2c",
          "transactionHash": "0x65c454176a1760de47c880b004d8ca0fda1b1708b6be51e524ee0a40a7f3efa3",
          "transactionIndex": "0x65",
          "logIndex": "0x8a",
          "removed": false
        },
        {
          "address": "0xbf4a322f1496e5c3d34a9bcdb4c60567b38c7de2",
          "topics": [
            "0x4afcb4a87cdbd9974efdb92ee48bc8d7cd0ae4bf217004db3d080cbaee652ca7"
          ],
          "data": "0x0000000000000000000000000000000000000000000000000000000067872c60000000000000000000000000000000000000000000000000000393de5d158eaa0000000000000000000000000000000000000000000000000dc7e3f04b4ec758",
          "blockHash": "0xf7aef8e56f232b42ce95a279f5afe26775bdff0a0065bd25feca21748dea891d",
          "blockNumber": "0x725a2c",
          "transactionHash": "0x65c454176a1760de47c880b004d8ca0fda1b1708b6be51e524ee0a40a7f3efa3",
          "transactionIndex": "0x65",
          "logIndex": "0x8b",
          "removed": false
        }
      ],
      "logsBloom": "0x00000000000000000000000000000000000000000000000000000000000000000000000000000000000000000000000000000000000000004000000000000000000000000000000000000008000000000000001000000000000000000000000000000000020000000000000000000800020000000000000000000010000000000000000000000000000000000000000000000000000008000000010000000000000000000000000000000000000000004000000000000000000000000000000000000002000000800000000000001000000000000000080000000000000020000000000000000000000000000000000000000000000000000000000000000000",
      "type": "0x2",
      "transactionHash": "0x65c454176a1760de47c880b004d8ca0fda1b1708b6be51e524ee0a40a7f3efa3",
      "transactionIndex": "0x65",
      "blockHash": "0xf7aef8e56f232b42ce95a279f5afe26775bdff0a0065bd25feca21748dea891d",
      "blockNumber": "0x725a2c",
      "gasUsed": "0xfb91",
      "effectiveGasPrice": "0x4dddbd080",
      "from": "0xc77f7fed3b5cc8249adc428c5f44c9063b9734b4",
      "to": "0xbf4a322f1496e5c3d34a9bcdb4c60567b38c7de2",
      "contractAddress": null
    }
  ],
  "libraries": [],
  "pending": [],
  "returns": {},
  "timestamp": 1736911970,
  "chain": 11155111,
  "commit": "51a374b"
}