{
  "transactions": [
    {
      "hash": "0x30f42cadba31e8d4731facbfe37def41d1fd0cc88613820e1ecf6a5095c1e60d",
      "transactionType": "CALL",
      "contractName": null,
      "contractAddress": "0x8aafd3ede9adb0ff97c7aebce82a919afb1c8764",
      "function": "sell(uint256)",
      "arguments": [
        "136953753481230"
      ],
      "transaction": {
        "from": "0xc77f7fed3b5cc8249adc428c5f44c9063b9734b4",
        "to": "0x8aafd3ede9adb0ff97c7aebce82a919afb1c8764",
        "gas": "0x15daa",
        "value": "0x0",
        "input": "0xe4849b3200000000000000000000000000000000000000000000000000007c8f07d3b00e",
        "nonce": "0x13b5",
        "chainId": "0xaa36a7"
      },
      "additionalContracts": [],
      "isFixedGasLimit": false
    }
  ],
  "receipts": [
    {
      "status": "0x1",
      "cumulativeGasUsed": "0x1a8e13",
      "logs": [
        {
          "address": "0x8aafd3ede9adb0ff97c7aebce82a919afb1c8764",
          "topics": [
            "0xddf252ad1be2c89b69c2b068fc378daa952ba7f163c4a11628f55a4df523b3ef",
            "0x000000000000000000000000c77f7fed3b5cc8249adc428c5f44c9063b9734b4",
            "0x0000000000000000000000000000000000000000000000000000000000000000"
          ],
          "data": "0x00000000000000000000000000000000000000000000000000007b8fef3033c5",
          "blockHash": "0x6d74053457d98c123f94aa6e04ad4636977ce8772565a20f8391bc451256ae55",
          "blockNumber": "0x731ade",
          "transactionHash": "0x30f42cadba31e8d4731facbfe37def41d1fd0cc88613820e1ecf6a5095c1e60d",
          "transactionIndex": "0xe",
          "logIndex": "0x19",
          "removed": false
        },
        {
          "address": "0x8aafd3ede9adb0ff97c7aebce82a919afb1c8764",
          "topics": [
            "0xddf252ad1be2c89b69c2b068fc378daa952ba7f163c4a11628f55a4df523b3ef",
            "0x000000000000000000000000c77f7fed3b5cc8249adc428c5f44c9063b9734b4",
            "0x000000000000000000000000c77f7fed3b5cc8249adc428c5f44c9063b9734b4"
          ],
          "data": "0x000000000000000000000000000000000000000000000000000000ff18a37c49",
          "blockHash": "0x6d74053457d98c123f94aa6e04ad4636977ce8772565a20f8391bc451256ae55",
          "blockNumber": "0x731ade",
          "transactionHash": "0x30f42cadba31e8d4731facbfe37def41d1fd0cc88613820e1ecf6a5095c1e60d",
          "transactionIndex": "0xe",
          "logIndex": "0x1a",
          "removed": false
        },
        {
          "address": "0x8aafd3ede9adb0ff97c7aebce82a919afb1c8764",
          "topics": [
            "0x4afcb4a87cdbd9974efdb92ee48bc8d7cd0ae4bf217004db3d080cbaee652ca7"
          ],
          "data": "0x0000000000000000000000000000000000000000000000000000000067903f38000000000000000000000000000000000000000000000000000d4a8297218c33000000000000000000000000000000000000000000000000000000774ae4ad43",
          "blockHash": "0x6d74053457d98c123f94aa6e04ad4636977ce8772565a20f8391bc451256ae55",
          "blockNumber": "0x731ade",
          "transactionHash": "0x30f42cadba31e8d4731facbfe37def41d1fd0cc88613820e1ecf6a5095c1e60d",
          "transactionIndex": "0xe",
          "logIndex": "0x1b",
          "removed": false
        }
      ],
      "logsBloom": "0x00000000000000000000000000000000000000000600000000000000000000000000000000000000000000000000000000000000000000004000000000000000000000000000004000000008000000000000000000000000000000000000000000000000020000000000000000000800020000000000000000000010000000000000000000000000000000000000000000000000000000000000010000000000000000000000000000000000000000004000000000000000000000000000000000000002000000800000000000000000000000000000080000000000000020000000000000000000000000000000000000000000000000000000000000000000",
      "type": "0x2",
      "transactionHash": "0x30f42cadba31e8d4731facbfe37def41d1fd0cc88613820e1ecf6a5095c1e60d",
      "transactionIndex": "0xe",
      "blockHash": "0x6d74053457d98c123f94aa6e04ad4636977ce8772565a20f8391bc451256ae55",
      "blockNumber": "0x731ade",
      "gasUsed": "0xfd27",
      "effectiveGasPrice": "0x855f0c36",
      "from": "0xc77f7fed3b5cc8249adc428c5f44c9063b9734b4",
      "to": "0x8aafd3ede9adb0ff97c7aebce82a919afb1c8764",
      "contractAddress": null
    }
  ],
  "libraries": [],
  "pending": [],
  "returns": {},
  "timestamp": 1737506617,
  "chain": 11155111,
  "commit": "1d2fb70"
}