{
  "transactions": [
    {
      "hash": "0x4fbcb0d9044fb79ca940d1892984cc7332a1b3ddc0a69a497894375b25da9823",
      "transactionType": "CALL",
      "contractName": null,
      "contractAddress": "0x8aafd3ede9adb0ff97c7aebce82a919afb1c8764",
      "function": "sell(uint256)",
      "arguments": [
        "5744637867"
      ],
      "transaction": {
        "from": "0xc77f7fed3b5cc8249adc428c5f44c9063b9734b4",
        "to": "0x8aafd3ede9adb0ff97c7aebce82a919afb1c8764",
        "gas": "0x1722a",
        "value": "0x0",
        "input": "0xe4849b3200000000000000000000000000000000000000000000000000000001566837ab",
        "nonce": "0x1612",
        "chainId": "0xaa36a7"
      },
      "additionalContracts": [],
      "isFixedGasLimit": false
    }
  ],
  "receipts": [
    {
      "status": "0x1",
      "cumulativeGasUsed": "0x76561b",
      "logs": [
        {
          "address": "0x8aafd3ede9adb0ff97c7aebce82a919afb1c8764",
          "topics": [
            "0xddf252ad1be2c89b69c2b068fc378daa952ba7f163c4a11628f55a4df523b3ef",
            "0x000000000000000000000000c77f7fed3b5cc8249adc428c5f44c9063b9734b4",
            "0x0000000000000000000000000000000000000000000000000000000000000000"
          ],
          "data": "0x0000000000000000000000000000000000000000000000000000000153aaf7bd",
          "blockHash": "0xaf4a1c1a08762f4f323c5d07a21832d26f3136136a2974541a9f1f35eacab4b0",
          "blockNumber": "0x731da7",
          "transactionHash": "0x4fbcb0d9044fb79ca940d1892984cc7332a1b3ddc0a69a497894375b25da9823",
          "transactionIndex": "0x59",
          "logIndex": "0x76",
          "removed": false
        },
        {
          "address": "0x8aafd3ede9adb0ff97c7aebce82a919afb1c8764",
          "topics": [
            "0xddf252ad1be2c89b69c2b068fc378daa952ba7f163c4a11628f55a4df523b3ef",
            "0x000000000000000000000000c77f7fed3b5cc8249adc428c5f44c9063b9734b4",
            "0x000000000000000000000000c77f7fed3b5cc8249adc428c5f44c9063b9734b4"
          ],
          "data": "0x0000000000000000000000000000000000000000000000000000000002bd3fee",
          "blockHash": "0xaf4a1c1a08762f4f323c5d07a21832d26f3136136a2974541a9f1f35eacab4b0",
          "blockNumber": "0x731da7",
          "transactionHash": "0x4fbcb0d9044fb79ca940d1892984cc7332a1b3ddc0a69a497894375b25da9823",
          "transactionIndex": "0x59",
          "logIndex": "0x77",
          "removed": false
        },
        {
          "address": "0x8aafd3ede9adb0ff97c7aebce82a919afb1c8764",
          "topics": [
            "0x4afcb4a87cdbd9974efdb92ee48bc8d7cd0ae4bf217004db3d080cbaee652ca7"
          ],
          "data": "0x00000000000000000000000000000000000000000000000000000000679060bc00000000000000000000000000000000000000000000000000143a5242fdf0660000000000000000000000000000000000000000000000000000000001f314e3",
          "blockHash": "0xaf4a1c1a08762f4f323c5d07a21832d26f3136136a2974541a9f1f35eacab4b0",
          "blockNumber": "0x731da7",
          "transactionHash": "0x4fbcb0d9044fb79ca940d1892984cc7332a1b3ddc0a69a497894375b25da9823",
          "transactionIndex": "0x59",
          "logIndex": "0x78",
          "removed": false
        }
      ],
      "logsBloom": "0x00000000000000000000000000000000000000000600000000000000000000000000000000000000000000000000000000000000000000004000000000000000000000000000004000000008000000000000000000000000000000000000000000000000020000000000000000000800020000000000000000000010000000000000000000000000000000000000000000000000000000000000010000000000000000000000000000000000000000004000000000000000000000000000000000000002000000800000000000000000000000000000080000000000000020000000000000000000000000000000000000000000000000000000000000000000",
      "type": "0x2",
      "transactionHash": "0x4fbcb0d9044fb79ca940d1892984cc7332a1b3ddc0a69a497894375b25da9823",
      "transactionIndex": "0x59",
      "blockHash": "0xaf4a1c1a08762f4f323c5d07a21832d26f3136136a2974541a9f1f35eacab4b0",
      "blockNumber": "0x731da7",
      "gasUsed": "0xfd1b",
      "effectiveGasPrice": "0x813bf8c9",
      "from": "0xc77f7fed3b5cc8249adc428c5f44c9063b9734b4",
      "to": "0x8aafd3ede9adb0ff97c7aebce82a919afb1c8764",
      "contractAddress": null
    }
  ],
  "libraries": [],
  "pending": [],
  "returns": {},
  "timestamp": 1737515197,
  "chain": 11155111,
  "commit": "1d2fb70"
}