{
  "transactions": [
    {
      "hash": "0x259ae0067344ff060a2e9aacb5f6eca8cf5595a104a57d3697b9a6c42a172baf",
      "transactionType": "CALL",
      "contractName": null,
      "contractAddress": "0x8aafd3ede9adb0ff97c7aebce82a919afb1c8764",
      "function": "sell(uint256)",
      "arguments": [
        "9529998086107142"
      ],
      "transaction": {
        "from": "0xc77f7fed3b5cc8249adc428c5f44c9063b9734b4",
        "to": "0x8aafd3ede9adb0ff97c7aebce82a919afb1c8764",
        "gas": "0x1724d",
        "value": "0x0",
        "input": "0xe4849b320000000000000000000000000000000000000000000000000021db7b96a1f006",
        "nonce": "0x1741",
        "chainId": "0xaa36a7"
      },
      "additionalContracts": [],
      "isFixedGasLimit": false
    }
  ],
  "receipts": [
    {
      "status": "0x1",
      "cumulativeGasUsed": "0x1458019",
      "logs": [
        {
          "address": "0x8aafd3ede9adb0ff97c7aebce82a919afb1c8764",
          "topics": [
            "0xddf252ad1be2c89b69c2b068fc378daa952ba7f163c4a11628f55a4df523b3ef",
            "0x000000000000000000000000c77f7fed3b5cc8249adc428c5f44c9063b9734b4",
            "0x0000000000000000000000000000000000000000000000000000000000000000"
          ],
          "data": "0x00000000000000000000000000000000000000000000000000219624956d712d",
          "blockHash": "0x4099a575ba96bf22a2fbf5c114036bd9869c9f3420a68fee125c58d7af8e1b10",
          "blockNumber": "0x731f0d",
          "transactionHash": "0x259ae0067344ff060a2e9aacb5f6eca8cf5595a104a57d3697b9a6c42a172baf",
          "transactionIndex": "0x67",
          "logIndex": "0xa6",
          "removed": false
        },
        {
          "address": "0x8aafd3ede9adb0ff97c7aebce82a919afb1c8764",
          "topics": [
            "0xddf252ad1be2c89b69c2b068fc378daa952ba7f163c4a11628f55a4df523b3ef",
            "0x000000000000000000000000c77f7fed3b5cc8249adc428c5f44c9063b9734b4",
            "0x000000000000000000000000c77f7fed3b5cc8249adc428c5f44c9063b9734b4"
          ],
          "data": "0x0000000000000000000000000000000000000000000000000000455701347ed9",
          "blockHash": "0x4099a575ba96bf22a2fbf5c114036bd9869c9f3420a68fee125c58d7af8e1b10",
          "blockNumber": "0x731f0d",
          "transactionHash": "0x259ae0067344ff060a2e9aacb5f6eca8cf5595a104a57d3697b9a6c42a172baf",
          "transactionIndex": "0x67",
          "logIndex": "0xa7",
          "removed": false
        },
        {
          "address": "0x8aafd3ede9adb0ff97c7aebce82a919afb1c8764",
          "topics": [
            "0x4afcb4a87cdbd9974efdb92ee48bc8d7cd0ae4bf217004db3d080cbaee652ca7"
          ],
          "data": "0x00000000000000000000000000000000000000000000000000000000679071840000000000000000000000000000000000000000000000000017cc1067041f8400000000000000000000000000000000000000000000000000003a0eae46e64c",
          "blockHash": "0x4099a575ba96bf22a2fbf5c114036bd9869c9f3420a68fee125c58d7af8e1b10",
          "blockNumber": "0x731f0d",
          "transactionHash": "0x259ae0067344ff060a2e9aacb5f6eca8cf5595a104a57d3697b9a6c42a172baf",
          "transactionIndex": "0x67",
          "logIndex": "0xa8",
          "removed": false
        }
      ],
      "logsBloom": "0x00000000000000000000000000000000000000000600000000000000000000000000000000000000000000000000000000000000000000004000000000000000000000000000004000000008000000000000000000000000000000000000000000000000020000000000000000000800020000000000000000000010000000000000000000000000000000000000000000000000000000000000010000000000000000000000000000000000000000004000000000000000000000000000000000000002000000800000000000000000000000000000080000000000000020000000000000000000000000000000000000000000000000000000000000000000",
      "type": "0x2",
      "transactionHash": "0x259ae0067344ff060a2e9aacb5f6eca8cf5595a104a57d3697b9a6c42a172baf",
      "transactionIndex": "0x67",
      "blockHash": "0x4099a575ba96bf22a2fbf5c114036bd9869c9f3420a68fee125c58d7af8e1b10",
      "blockNumber": "0x731f0d",
      "gasUsed": "0xfd33",
      "effectiveGasPrice": "0x35b27f02",
      "from": "0xc77f7fed3b5cc8249adc428c5f44c9063b9734b4",
      "to": "0x8aafd3ede9adb0ff97c7aebce82a919afb1c8764",
      "contractAddress": null
    }
  ],
  "libraries": [],
  "pending": [],
  "returns": {},
  "timestamp": 1737519493,
  "chain": 11155111,
  "commit": "1d2fb70"
}