{
  "transactions": [
    {
      "hash": "0xc801916136cc2d0523480d77815b7144a538e5ec2d16b4ffe6cb56baf0cf11fe",
      "transactionType": "CALL",
      "contractName": null,
      "contractAddress": "0xbf4a322f1496e5c3d34a9bcdb4c60567b38c7de2",
      "function": "buy(address)",
      "arguments": [
        "0xC77f7fed3b5Cc8249aDc428c5F44C9063B9734b4"
      ],
      "transaction": {
        "from": "0xc77f7fed3b5cc8249adc428c5f44c9063b9734b4",
        "to": "0xbf4a322f1496e5c3d34a9bcdb4c60567b38c7de2",
        "gas": "0x1b309",
        "value": "0xde0b6b3a7640000",
        "input": "0xf088d547000000000000000000000000c77f7fed3b5cc8249adc428c5f44c9063b9734b4",
        "nonce": "0xa08",
        "chainId": "0xaa36a7"
      },
      "additionalContracts": [],
      "isFixedGasLimit": false
    }
  ],
  "receipts": [
    {
      "status": "0x1",
      "cumulativeGasUsed": "0xe884ca",
      "logs": [
        {
          "address": "0xbf4a322f1496e5c3d34a9bcdb4c60567b38c7de2",
          "topics": [
            "0xddf252ad1be2c89b69c2b068fc378daa952ba7f163c4a11628f55a4df523b3ef",
            "0x0000000000000000000000000000000000000000000000000000000000000000",
            "0x000000000000000000000000c77f7fed3b5cc8249adc428c5f44c9063b9734b4"
          ],
          "data": "0x00000000000000000000000000000000000000000000003559b4302540e30983",
          "blockHash": "0x5696417c856eb324e1f396ee0189acd52f7986e86f77a5956a739c9ad578b782",
          "blockNumber": "0x7259c4",
          "transactionHash": "0xc801916136cc2d0523480d77815b7144a538e5ec2d16b4ffe6cb56baf0cf11fe",
          "transactionIndex": "0x8e",
          "logIndex": "0xfd",
          "removed": false
        },
        {
          "address": "0xbf4a322f1496e5c3d34a9bcdb4c60567b38c7de2",
          "topics": [
            "0xddf252ad1be2c89b69c2b068fc378daa952ba7f163c4a11628f55a4df523b3ef",
            "0x0000000000000000000000000000000000000000000000000000000000000000",
            "0x000000000000000000000000c77f7fed3b5cc8249adc428c5f44c9063b9734b4"
          ],
          "data": "0x000000000000000000000000000000000000000000000000296dac43cbb3ff88",
          "blockHash": "0x5696417c856eb324e1f396ee0189acd52f7986e86f77a5956a739c9ad578b782",
          "blockNumber": "0x7259c4",
          "transactionHash": "0xc801916136cc2d0523480d77815b7144a538e5ec2d16b4ffe6cb56baf0cf11fe",
          "transactionIndex": "0x8e",
          "logIndex": "0xfe",
          "removed": false
        },
        {
          "address": "0xbf4a322f1496e5c3d34a9bcdb4c60567b38c7de2",
          "topics": [
            "0x4afcb4a87cdbd9974efdb92ee48bc8d7cd0ae4bf217004db3d080cbaee652ca7"
          ],
          "data": "0x0000000000000000000000000000000000000000000000000000000067872774000000000000000000000000000000000000000000000000000392eb0af0749b0000000000000000000000000000000000000000000000000de0b6b3a7640000",
          "blockHash": "0x5696417c856eb324e1f396ee0189acd52f7986e86f77a5956a739c9ad578b782",
          "blockNumber": "0x7259c4",
          "transactionHash": "0xc801916136cc2d0523480d77815b7144a538e5ec2d16b4ffe6cb56baf0cf11fe",
          "transactionIndex": "0x8e",
          "logIndex": "0xff",
          "removed": false
        }
      ],
      "logsBloom": "0x00000000000000000000000000000000000000000000000000000000000000000000000000000000000000000000000000000000000000004000000000000000000000000000000000000008000000000000001000000000000000000000000000000000020000000000000000000800020000000000000000000010000000000000000000000000000000000000000000000000000008000000010000000000000000000000000000000000000000004000000000000000000000000000000000000002000000800000000000001000000000000000080000000000000020000000000000000000000000000000000000000000000000000000000000000000",
      "type": "0x2",
      "transactionHash": "0xc801916136cc2d0523480d77815b7144a538e5ec2d16b4ffe6cb56baf0cf11fe",
      "transactionIndex": "0x8e",
      "blockHash": "0x5696417c856eb324e1f396ee0189acd52f7986e86f77a5956a739c9ad578b782",
      "blockNumber": "0x7259c4",
      "gasUsed": "0x13af6",
      "effectiveGasPrice": "0x33bfd09fe",
      "from": "0xc77f7fed3b5cc8249adc428c5f44c9063b9734b4",
      "to": "0xbf4a322f1496e5c3d34a9bcdb4c60567b38c7de2",
      "contractAddress": null
    }
  ],
  "libraries": [],
  "pending": [],
  "returns": {},
  "timestamp": 1736910709,
  "chain": 11155111,
  "commit": "51a374b"
}