{
  "transactions": [
    {
      "hash": "0xca450f953f62d3bac625e4d6b230b56cab7d92c03b3f98e1e6932be62114a5b8",
      "transactionType": "CALL",
      "contractName": null,
      "contractAddress": "0x270e88f8683660553e8ba4eb2ad7c91a1710d769",
      "function": "sell(uint256)",
      "arguments": [
        "969306683283507574405"
      ],
      "transaction": {
        "from": "0xc77f7fed3b5cc8249adc428c5f44c9063b9734b4",
        "to": "0x270e88f8683660553e8ba4eb2ad7c91a1710d769",
        "gas": "0x16fec",
        "value": "0x0",
        "input": "0xe4849b320000000000000000000000000000000000000000000000348bd51cd6e588f685",
        "nonce": "0x56d",
        "chainId": "0xaa36a7"
      },
      "additionalContracts": [],
      "isFixedGasLimit": false
    }
  ],
  "receipts": [
    {
      "status": "0x1",
      "cumulativeGasUsed": "0xd4a05b",
      "logs": [
        {
          "address": "0x270e88f8683660553e8ba4eb2ad7c91a1710d769",
          "topics": [
            "0xddf252ad1be2c89b69c2b068fc378daa952ba7f163c4a11628f55a4df523b3ef",
            "0x000000000000000000000000c77f7fed3b5cc8249adc428c5f44c9063b9734b4",
            "0x0000000000000000000000000000000000000000000000000000000000000000"
          ],
          "data": "0x0000000000000000000000000000000000000000000000348bd51cd6e588f685",
          "blockHash": "0x705fc36f48465c44e6d11c734d4c20171ee9ecbcf0775c9173091ca8bb2efc6f",
          "blockNumber": "0x725217",
          "transactionHash": "0xca450f953f62d3bac625e4d6b230b56cab7d92c03b3f98e1e6932be62114a5b8",
          "transactionIndex": "0x4f",
          "logIndex": "0x63",
          "removed": false
        },
        {
          "address": "0x270e88f8683660553e8ba4eb2ad7c91a1710d769",
          "topics": [
            "0x4afcb4a87cdbd9974efdb92ee48bc8d7cd0ae4bf217004db3d080cbaee652ca7"
          ],
          "data": "0x000000000000000000000000000000000000000000000000000000006786cb040000000000000000000000000000000000000000000000000003a4057850e2d30000000000000000000000000000000000000000000000000dc84024759f20c6",
          "blockHash": "0x705fc36f48465c44e6d11c734d4c20171ee9ecbcf0775c9173091ca8bb2efc6f",
          "blockNumber": "0x725217",
          "transactionHash": "0xca450f953f62d3bac625e4d6b230b56cab7d92c03b3f98e1e6932be62114a5b8",
          "transactionIndex": "0x4f",
          "logIndex": "0x64",
          "removed": false
        }
      ],
      "logsBloom": "0x00000000000000000000000000000000000000000000000000000000000000000000000000000000000000000000000020000000000000004000000000000000000000000000000000000008000000000000000000000000000000000000000000000000020000000000000000000800020000000000000000000010000000000000000000010000000000000000000000000000000000000000010000000000000000000000000000000000000000004000000000000000000000000000000000000002000000800000000000000000000000000000080000008000000020000000000000000000000000000000000000000000000000000000000000000000",
      "type": "0x2",
      "transactionHash": "0xca450f953f62d3bac625e4d6b230b56cab7d92c03b3f98e1e6932be62114a5b8",
      "transactionIndex": "0x4f",
      "blockHash": "0x705fc36f48465c44e6d11c734d4c20171ee9ecbcf0775c9173091ca8bb2efc6f",
      "blockNumber": "0x725217",
      "gasUsed": "0xfb93",
      "effectiveGasPrice": "0x4b33aad65",
      "from": "0xc77f7fed3b5cc8249adc428c5f44c9063b9734b4",
      "to": "0x270e88f8683660553e8ba4eb2ad7c91a1710d769",
      "contractAddress": null
    }
  ],
  "libraries": [],
  "pending": [],
  "returns": {},
  "timestamp": 1736887045,
  "chain": 11155111,
  "commit": "51a374b"
}