{
  "transactions": [
    {
      "hash": "0x0ddeb515cc91c3de8ecaa2abb8db5674fc5de810d6650724edd1a1e3c7baceca",
      "transactionType": "CALL",
      "contractName": null,
      "contractAddress": "0xd7bc75898e513accccf720a874d44dab5a4b6223",
      "function": "buy(address)",
      "arguments": [
        "0xC77f7fed3b5Cc8249aDc428c5F44C9063B9734b4"
      ],
      "transaction": {
        "from": "0xc77f7fed3b5cc8249adc428c5f44c9063b9734b4",
        "to": "0xd7bc75898e513accccf720a874d44dab5a4b6223",
        "gas": "0x1b30c",
        "value": "0x16345785d8a0000",
        "input": "0xf088d547000000000000000000000000c77f7fed3b5cc8249adc428c5f44c9063b9734b4",
        "nonce": "0x7f",
        "chainId": "0xaa36a7"
      },
      "additionalContracts": [],
      "isFixedGasLimit": false
    },
    {
      "hash": "0xc65a801ed3985506a3697209771a003f14738928780dadb3165726d3e3d6d957",
      "transactionType": "CALL",
      "contractName": null,
      "contractAddress": "0xd7bc75898e513accccf720a874d44dab5a4b6223",
      "function": "sell(uint256)",
      "arguments": [
        "99300251789535592770"
      ],
      "transaction": {
        "from": "0xc77f7fed3b5cc8249adc428c5f44c9063b9734b4",
        "to": "0xd7bc75898e513accccf720a874d44dab5a4b6223",
        "gas": "0x16fec",
        "value": "0x0",
        "input": "0xe4849b3200000000000000000000000000000000000000000000000562115ce3261dc142",
        "nonce": "0x80",
        "chainId": "0xaa36a7"
      },
      "additionalContracts": [],
      "isFixedGasLimit": false
    }
  ],
  "receipts": [
    {
      "status": "0x1",
      "cumulativeGasUsed": "0xb98acc",
      "logs": [
        {
          "address": "0xd7bc75898e513accccf720a874d44dab5a4b6223",
          "topics": [
            "0xddf252ad1be2c89b69c2b068fc378daa952ba7f163c4a11628f55a4df523b3ef",
            "0x0000000000000000000000000000000000000000000000000000000000000000",
            "0x000000000000000000000000c77f7fed3b5cc8249adc428c5f44c9063b9734b4"
          ],
          "data": "0x0000000000000000000000000000000000000000000000055de67b7d190a84f2",
          "blockHash": "0xf269046e5fb7c84c17071b36e13cf074dd586e47e706f6cdad2700faa5a00f90",
          "blockNumber": "0x7238a6",
          "transactionHash": "0x0ddeb515cc91c3de8ecaa2abb8db5674fc5de810d6650724edd1a1e3c7baceca",
          "transactionIndex": "0x3e",
          "logIndex": "0x6c",
          "removed": false
        },
        {
          "address": "0xd7bc75898e513accccf720a874d44dab5a4b6223",
          "topics": [
            "0xddf252ad1be2c89b69c2b068fc378daa952ba7f163c4a11628f55a4df523b3ef",
            "0x0000000000000000000000000000000000000000000000000000000000000000",
            "0x000000000000000000000000c77f7fed3b5cc8249adc428c5f44c9063b9734b4"
          ],
          "data": "0x000000000000000000000000000000000000000000000000042ae1660d133c50",
          "blockHash": "0xf269046e5fb7c84c17071b36e13cf074dd586e47e706f6cdad2700faa5a00f90",
          "blockNumber": "0x7238a6",
          "transactionHash": "0x0ddeb515cc91c3de8ecaa2abb8db5674fc5de810d6650724edd1a1e3c7baceca",
          "transactionIndex": "0x3e",
          "logIndex": "0x6d",
          "removed": false
        },
        {
          "address": "0xd7bc75898e513accccf720a874d44dab5a4b6223",
          "topics": [
            "0x4afcb4a87cdbd9974efdb92ee48bc8d7cd0ae4bf217004db3d080cbaee652ca7"
          ],
          "data": "0x000000000000000000000000000000000000000000000000000000006785991000000000000000000000000000000000000000000000000000038d7ec296c25c000000000000000000000000000000000000000000000000016345785d8a0000",
          "blockHash": "0xf269046e5fb7c84c17071b36e13cf074dd586e47e706f6cdad2700faa5a00f90",
          "blockNumber": "0x7238a6",
          "transactionHash": "0x0ddeb515cc91c3de8ecaa2abb8db5674fc5de810d6650724edd1a1e3c7baceca",
          "transactionIndex": "0x3e",
          "logIndex": "0x6e",
          "removed": false
        }
      ],
      "logsBloom": "0x00000000000000000000000000000000000000000000000000000000000000000000000000000000000000000000000000000000000000004000000000000000000000000000000000000008000000000000000000000000000000000000000000000000020000000000000000000800020000000000000000000010000000000000000000000000000000000000000000000000000000000000010000000000000000000000000000000000000000004000001000000000000000000000000000000002000000800000000000004000000000000000080000000000000020000000000000000000000000000000000000000000080000000000000000000000",
      "type": "0x2",
      "transactionHash": "0x0ddeb515cc91c3de8ecaa2abb8db5674fc5de810d6650724edd1a1e3c7baceca",
      "transactionIndex": "0x3e",
      "blockHash": "0xf269046e5fb7c84c17071b36e13cf074dd586e47e706f6cdad2700faa5a00f90",
      "blockNumber": "0x7238a6",
      "gasUsed": "0x13af8",
      "effectiveGasPrice": "0x1fef190",
      "from": "0xc77f7fed3b5cc8249adc428c5f44c9063b9734b4",
      "to": "0xd7bc75898e513accccf720a874d44dab5a4b6223",
      "contractAddress": null
    },
    {
      "status": "0x1",
      "cumulativeGasUsed": "0xba865f",
      "logs": [
        {
          "address": "0xd7bc75898e513accccf720a874d44dab5a4b6223",
          "topics": [
            "0xddf252ad1be2c89b69c2b068fc378daa952ba7f163c4a11628f55a4df523b3ef",
            "0x000000000000000000000000c77f7fed3b5cc8249adc428c5f44c9063b9734b4",
            "0x0000000000000000000000000000000000000000000000000000000000000000"
          ],
          "data": "0x00000000000000000000000000000000000000000000000562115ce3261dc142",
          "blockHash": "0xf269046e5fb7c84c17071b36e13cf074dd586e47e706f6cdad2700faa5a00f90",
          "blockNumber": "0x7238a6",
          "transactionHash": "0xc65a801ed3985506a3697209771a003f14738928780dadb3165726d3e3d6d957",
          "transactionIndex": "0x3f",
          "logIndex": "0x6f",
          "removed": false
        },
        {
          "address": "0xd7bc75898e513accccf720a874d44dab5a4b6223",
          "topics": [
            "0x4afcb4a87cdbd9974efdb92ee48bc8d7cd0ae4bf217004db3d080cbaee652ca7"
          ],
          "data": "0x000000000000000000000000000000000000000000000000000000006785991000000000000000000000000000000000000000000000000000038d7ec3d26d230000000000000000000000000000000000000000000000000160c9191a82ec84",
          "blockHash": "0xf269046e5fb7c84c17071b36e13cf074dd586e47e706f6cdad2700faa5a00f90",
          "blockNumber": "0x7238a6",
          "transactionHash": "0xc65a801ed3985506a3697209771a003f14738928780dadb3165726d3e3d6d957",
          "transactionIndex": "0x3f",
          "logIndex": "0x70",
          "removed": false
        }
      ],
      "logsBloom": "0x00000000000000000000000000000000000000000000000000000000000000000000000000000000000000000000000000000000000000004000000000000000000000000000000000000008000000000000000000000000000000000000000000000000020000000000000000000800020000000000000000000010000000000000000000000000000000000000000000000000000000000000010000000000000000000000000000000000000000004000001000000000000000000000000000000002000000800000000000004000000000000000080000000000000020000000000000000000000000000000000000000000080000000000000000000000",
      "type": "0x2",
      "transactionHash": "0xc65a801ed3985506a3697209771a003f14738928780dadb3165726d3e3d6d957",
      "transactionIndex": "0x3f",
      "blockHash": "0xf269046e5fb7c84c17071b36e13cf074dd586e47e706f6cdad2700faa5a00f90",
      "blockNumber": "0x7238a6",
      "gasUsed": "0xfb93",
      "effectiveGasPrice": "0x1fef190",
      "from": "0xc77f7fed3b5cc8249adc428c5f44c9063b9734b4",
      "to": "0xd7bc75898e513accccf720a874d44dab5a4b6223",
      "contractAddress": null
    }
  ],
  "libraries": [],
  "pending": [],
  "returns": {},
  "timestamp": 1736808721,
  "chain": 11155111,
  "commit": "51a374b"
}