{
  "transactions": [
    {
      "hash": "0xfac15e576a9f84dfc1afab38fb14b8c95da8a3fe6107db598187f07b7525e39d",
      "transactionType": "CALL",
      "contractName": null,
      "contractAddress": "0x5eb9cc76c3506942c1c0ead70e877dd5e4f00cb0",
      "function": "buy(address)",
      "arguments": [
        "0xC77f7fed3b5Cc8249aDc428c5F44C9063B9734b4"
      ],
      "transaction": {
        "from": "0xc77f7fed3b5cc8249adc428c5f44c9063b9734b4",
        "to": "0x5eb9cc76c3506942c1c0ead70e877dd5e4f00cb0",
        "gas": "0x1b30c",
        "value": "0xde0b6b3a7640000",
        "input": "0xf088d547000000000000000000000000c77f7fed3b5cc8249adc428c5f44c9063b9734b4",
        "nonce": "0x30c",
        "chainId": "0xaa36a7"
      },
      "additionalContracts": [],
      "isFixedGasLimit": false
    }
  ],
  "receipts": [
    {
      "status": "0x1",
      "cumulativeGasUsed": "0xf94f61",
      "logs": [
        {
          "address": "0x5eb9cc76c3506942c1c0ead70e877dd5e4f00cb0",
          "topics": [
            "0xddf252ad1be2c89b69c2b068fc378daa952ba7f163c4a11628f55a4df523b3ef",
            "0x0000000000000000000000000000000000000000000000000000000000000000",
            "0x000000000000000000000000c77f7fed3b5cc8249adc428c5f44c9063b9734b4"
          ],
          "data": "0x000000000000000000000000000000000000000000000035758bf2082396485a",
          "blockHash": "0xba520a8462c500d2f4cad41a28d13039eacf7698a076b69ee4af39ff4f78d94f",
          "blockNumber": "0x724ef0",
          "transactionHash": "0xfac15e576a9f84dfc1afab38fb14b8c95da8a3fe6107db598187f07b7525e39d",
          "transactionIndex": "0x71",
          "logIndex": "0xc6",
          "removed": false
        },
        {
          "address": "0x5eb9cc76c3506942c1c0ead70e877dd5e4f00cb0",
          "topics": [
            "0xddf252ad1be2c89b69c2b068fc378daa952ba7f163c4a11628f55a4df523b3ef",
            "0x0000000000000000000000000000000000000000000000000000000000000000",
            "0x000000000000000000000000c77f7fed3b5cc8249adc428c5f44c9063b9734b4"
          ],
          "data": "0x00000000000000000000000000000000000000000000000029834b3628295d19",
          "blockHash": "0xba520a8462c500d2f4cad41a28d13039eacf7698a076b69ee4af39ff4f78d94f",
          "blockNumber": "0x724ef0",
          "transactionHash": "0xfac15e576a9f84dfc1afab38fb14b8c95da8a3fe6107db598187f07b7525e39d",
          "transactionIndex": "0x71",
          "logIndex": "0xc7",
          "removed": false
        },
        {
          "address": "0x5eb9cc76c3506942c1c0ead70e877dd5e4f00cb0",
          "topics": [
            "0x4afcb4a87cdbd9974efdb92ee48bc8d7cd0ae4bf217004db3d080cbaee652ca7"
          ],
          "data": "0x000000000000000000000000000000000000000000000000000000006786a4f40000000000000000000000000000000000000000000000000003910c3c3b5d030000000000000000000000000000000000000000000000000de0b6b3a7640000",
          "blockHash": "0xba520a8462c500d2f4cad41a28d13039eacf7698a076b69ee4af39ff4f78d94f",
          "blockNumber": "0x724ef0",
          "transactionHash": "0xfac15e576a9f84dfc1afab38fb14b8c95da8a3fe6107db598187f07b7525e39d",
          "transactionIndex": "0x71",
          "logIndex": "0xc8",
          "removed": false
        }
      ],
      "logsBloom": "0x00000000000000000000000000000000000000000000000000000000000000000000000000000000000000000000000000000000000000004000000000000000000000000000000000000008000000000000000000000000000000000000000000000000020000000000000004000800020000000000000000000010000000000000000000000000000000000000000000000000000000000000010000000000000000000000000000000000000000004000000000000000000000000000020000000002000000800000008000000000000000000000080000000000000020000000000000000000000000000000000000000000000000000000000000000000",
      "type": "0x2",
      "transactionHash": "0xfac15e576a9f84dfc1afab38fb14b8c95da8a3fe6107db598187f07b7525e39d",
      "transactionIndex": "0x71",
      "blockHash": "0xba520a8462c500d2f4cad41a28d13039eacf7698a076b69ee4af39ff4f78d94f",
      "blockNumber": "0x724ef0",
      "gasUsed": "0x13af8",
      "effectiveGasPrice": "0x5f1a22d35",
      "from": "0xc77f7fed3b5cc8249adc428c5f44c9063b9734b4",
      "to": "0x5eb9cc76c3506942c1c0ead70e877dd5e4f00cb0",
      "contractAddress": null
    }
  ],
  "libraries": [],
  "pending": [],
  "returns": {},
  "timestamp": 1736877300,
  "chain": 11155111,
  "commit": "51a374b"
}