{
  "transactions": [
    {
      "hash": "0x932d2fbb8ab3520d863a223fd62a296dd776f7a272404435bb6b9551fe3c26b5",
      "transactionType": "CALL",
      "contractName": null,
      "contractAddress": "0x270e88f8683660553e8ba4eb2ad7c91a1710d769",
      "function": "sell(uint256)",
      "arguments": [
        "740108468407294272436"
      ],
      "transaction": {
        "from": "0xc77f7fed3b5cc8249adc428c5f44c9063b9734b4",
        "to": "0x270e88f8683660553e8ba4eb2ad7c91a1710d769",
        "gas": "0x16fec",
        "value": "0x0",
        "input": "0xe4849b320000000000000000000000000000000000000000000000281f117ac0f330a3b4",
        "nonce": "0x73a",
        "chainId": "0xaa36a7"
      },
      "additionalContracts": [],
      "isFixedGasLimit": false
    }
  ],
  "receipts": [
    {
      "status": "0x1",
      "cumulativeGasUsed": "0xee6ace",
      "logs": [
        {
          "address": "0x270e88f8683660553e8ba4eb2ad7c91a1710d769",
          "topics": [
            "0xddf252ad1be2c89b69c2b068fc378daa952ba7f163c4a11628f55a4df523b3ef",
            "0x000000000000000000000000c77f7fed3b5cc8249adc428c5f44c9063b9734b4",
            "0x0000000000000000000000000000000000000000000000000000000000000000"
          ],
          "data": "0x0000000000000000000000000000000000000000000000281f117ac0f330a3b4",
          "blockHash": "0x16a20f10f0b9f792d2c0e0b485c624a87f9fc71edde6ef7766e3036ffd0cacac",
          "blockNumber": "0x72545b",
          "transactionHash": "0x932d2fbb8ab3520d863a223fd62a296dd776f7a272404435bb6b9551fe3c26b5",
          "transactionIndex": "0x44",
          "logIndex": "0x74",
          "removed": false
        },
        {
          "address": "0x270e88f8683660553e8ba4eb2ad7c91a1710d769",
          "topics": [
            "0x4afcb4a87cdbd9974efdb92ee48bc8d7cd0ae4bf217004db3d080cbaee652ca7"
          ],
          "data": "0x000000000000000000000000000000000000000000000000000000006786e64c0000000000000000000000000000000000000000000000000004c48fb34a6df80000000000000000000000000000000000000000000000000dc82882d911cafd",
          "blockHash": "0x16a20f10f0b9f792d2c0e0b485c624a87f9fc71edde6ef7766e3036ffd0cacac",
          "blockNumber": "0x72545b",
          "transactionHash": "0x932d2fbb8ab3520d863a223fd62a296dd776f7a272404435bb6b9551fe3c26b5",
          "transactionIndex": "0x44",
          "logIndex": "0x75",
          "removed": false
        }
      ],
      "logsBloom": "0x00000000000000000000000000000000000000000000000000000000000000000000000000000000000000000000000020000000000000004000000000000000000000000000000000000008000000000000000000000000000000000000000000000000020000000000000000000800020000000000000000000010000000000000000000010000000000000000000000000000000000000000010000000000000000000000000000000000000000004000000000000000000000000000000000000002000000800000000000000000000000000000080000008000000020000000000000000000000000000000000000000000000000000000000000000000",
      "type": "0x2",
      "transactionHash": "0x932d2fbb8ab3520d863a223fd62a296dd776f7a272404435bb6b9551fe3c26b5",
      "transactionIndex": "0x44",
      "blockHash": "0x16a20f10f0b9f792d2c0e0b485c624a87f9fc71edde6ef7766e3036ffd0cacac",
      "blockNumber": "0x72545b",
      "gasUsed": "0xfb93",
      "effectiveGasPrice": "0x136cf1430",
      "from": "0xc77f7fed3b5cc8249adc428c5f44c9063b9734b4",
      "to": "0x270e88f8683660553e8ba4eb2ad7c91a1710d769",
      "contractAddress": null
    }
  ],
  "libraries": [],
  "pending": [],
  "returns": {},
  "timestamp": 1736894029,
  "chain": 11155111,
  "commit": "51a374b"
}