{
  "transactions": [
    {
      "hash": "0xefbcbd84ff95cec3424e97f27eec19494595cc1edc592446281a67ddbd213421",
      "transactionType": "CALL",
      "contractName": null,
      "contractAddress": "0x270e88f8683660553e8ba4eb2ad7c91a1710d769",
      "function": "sell(uint256)",
      "arguments": [
        "721741747247904568266"
      ],
      "transaction": {
        "from": "0xc77f7fed3b5cc8249adc428c5f44c9063b9734b4",
        "to": "0x270e88f8683660553e8ba4eb2ad7c91a1710d769",
        "gas": "0x16fec",
        "value": "0x0",
        "input": "0xe4849b32000000000000000000000000000000000000000000000027202dc72b991db3ca",
        "nonce": "0x80e",
        "chainId": "0xaa36a7"
      },
      "additionalContracts": [],
      "isFixedGasLimit": false
    }
  ],
  "receipts": [
    {
      "status": "0x1",
      "cumulativeGasUsed": "0x9a389b",
      "logs": [
        {
          "address": "0x270e88f8683660553e8ba4eb2ad7c91a1710d769",
          "topics": [
            "0xddf252ad1be2c89b69c2b068fc378daa952ba7f163c4a11628f55a4df523b3ef",
            "0x000000000000000000000000c77f7fed3b5cc8249adc428c5f44c9063b9734b4",
            "0x0000000000000000000000000000000000000000000000000000000000000000"
          ],
          "data": "0x000000000000000000000000000000000000000000000027202dc72b991db3ca",
          "blockHash": "0x3b0e2cab18c48e17da8fb352e2715cd6e48a3c554f72a2f9d7ca1111d69d472f",
          "blockNumber": "0x72554f",
          "transactionHash": "0xefbcbd84ff95cec3424e97f27eec19494595cc1edc592446281a67ddbd213421",
          "transactionIndex": "0x53",
          "logIndex": "0x8a",
          "removed": false
        },
        {
          "address": "0x270e88f8683660553e8ba4eb2ad7c91a1710d769",
          "topics": [
            "0x4afcb4a87cdbd9974efdb92ee48bc8d7cd0ae4bf217004db3d080cbaee652ca7"
          ],
          "data": "0x000000000000000000000000000000000000000000000000000000006786f1bc0000000000000000000000000000000000000000000000000004e39d4e44b82f0000000000000000000000000000000000000000000000000dc8269c167f3fe7",
          "blockHash": "0x3b0e2cab18c48e17da8fb352e2715cd6e48a3c554f72a2f9d7ca1111d69d472f",
          "blockNumber": "0x72554f",
          "transactionHash": "0xefbcbd84ff95cec3424e97f27eec19494595cc1edc592446281a67ddbd213421",
          "transactionIndex": "0x53",
          "logIndex": "0x8b",
          "removed": false
        }
      ],
      "logsBloom": "0x00000000000000000000000000000000000000000000000000000000000000000000000000000000000000000000000020000000000000004000000000000000000000000000000000000008000000000000000000000000000000000000000000000000020000000000000000000800020000000000000000000010000000000000000000010000000000000000000000000000000000000000010000000000000000000000000000000000000000004000000000000000000000000000000000000002000000800000000000000000000000000000080000008000000020000000000000000000000000000000000000000000000000000000000000000000",
      "type": "0x2",
      "transactionHash": "0xefbcbd84ff95cec3424e97f27eec19494595cc1edc592446281a67ddbd213421",
      "transactionIndex": "0x53",
      "blockHash": "0x3b0e2cab18c48e17da8fb352e2715cd6e48a3c554f72a2f9d7ca1111d69d472f",
      "blockNumber": "0x72554f",
      "gasUsed": "0xfb93",
      "effectiveGasPrice": "0x8b849925",
      "from": "0xc77f7fed3b5cc8249adc428c5f44c9063b9734b4",
      "to": "0x270e88f8683660553e8ba4eb2ad7c91a1710d769",
      "contractAddress": null
    }
  ],
  "libraries": [],
  "pending": [],
  "returns": {},
  "timestamp": 1736896958,
  "chain": 11155111,
  "commit": "51a374b"
}