{
  "transactions": [
    {
      "hash": "0x13c446523ee53a984d688c55610f4ea894c77e3db4207877660636d15f1070c2",
      "transactionType": "CALL",
      "contractName": null,
      "contractAddress": "0x8aafd3ede9adb0ff97c7aebce82a919afb1c8764",
      "function": "sell(uint256)",
      "arguments": [
        "174396121"
      ],
      "transaction": {
        "from": "0xc77f7fed3b5cc8249adc428c5f44c9063b9734b4",
        "to": "0x8aafd3ede9adb0ff97c7aebce82a919afb1c8764",
        "gas": "0x14e6c",
        "value": "0x0",
        "input": "0xe4849b32000000000000000000000000000000000000000000000000000000000a6512d9",
        "nonce": "0x12d1",
        "chainId": "0xaa36a7"
      },
      "additionalContracts": [],
      "isFixedGasLimit": false
    }
  ],
  "receipts": [
    {
      "status": "0x1",
      "cumulativeGasUsed": "0xb1f574",
      "logs": [
        {
          "address": "0x8aafd3ede9adb0ff97c7aebce82a919afb1c8764",
          "topics": [
            "0xddf252ad1be2c89b69c2b068fc378daa952ba7f163c4a11628f55a4df523b3ef",
            "0x000000000000000000000000c77f7fed3b5cc8249adc428c5f44c9063b9734b4",
            "0x0000000000000000000000000000000000000000000000000000000000000000"
          ],
          "data": "0x000000000000000000000000000000000000000000000000000000000a4fc8f9",
          "blockHash": "0xecb25b0127b82069625ad1c4d0f9ee2219065f2d3127874590fa11fbd273e9b5",
          "blockNumber": "0x7319ce",
          "transactionHash": "0x13c446523ee53a984d688c55610f4ea894c77e3db4207877660636d15f1070c2",
          "transactionIndex": "0x70",
          "logIndex": "0xa9",
          "removed": false
        },
        {
          "address": "0x8aafd3ede9adb0ff97c7aebce82a919afb1c8764",
          "topics": [
            "0xddf252ad1be2c89b69c2b068fc378daa952ba7f163c4a11628f55a4df523b3ef",
            "0x000000000000000000000000c77f7fed3b5cc8249adc428c5f44c9063b9734b4",
            "0x000000000000000000000000c77f7fed3b5cc8249adc428c5f44c9063b9734b4"
          ],
          "data": "0x00000000000000000000000000000000000000000000000000000000001549e0",
          "blockHash": "0xecb25b0127b82069625ad1c4d0f9ee2219065f2d3127874590fa11fbd273e9b5",
          "blockNumber": "0x7319ce",
          "transactionHash": "0x13c446523ee53a984d688c55610f4ea894c77e3db4207877660636d15f1070c2",
          "transactionIndex": "0x70",
          "logIndex": "0xaa",
          "removed": false
        },
        {
          "address": "0x8aafd3ede9adb0ff97c7aebce82a919afb1c8764",
          "topics": [
            "0x4afcb4a87cdbd9974efdb92ee48bc8d7cd0ae4bf217004db3d080cbaee652ca7"
          ],
          "data": "0x000000000000000000000000000000000000000000000000000000006790327800000000000000000000000000000000000000000000000000054eff484973f6000000000000000000000000000000000000000000000000000000000003f9ec",
          "blockHash": "0xecb25b0127b82069625ad1c4d0f9ee2219065f2d3127874590fa11fbd273e9b5",
          "blockNumber": "0x7319ce",
          "transactionHash": "0x13c446523ee53a984d688c55610f4ea894c77e3db4207877660636d15f1070c2",
          "transactionIndex": "0x70",
          "logIndex": "0xab",
          "removed": false
        }
      ],
      "logsBloom": "0x00000000000000000000000000000000000000000600000000000000000000000000000000000000000000000000000000000000000000004000000000000000000000000000004000000008000000000000000000000000000000000000000000000000020000000000000000000800020000000000000000000010000000000000000000000000000000000000000000000000000000000000010000000000000000000000000000000000000000004000000000000000000000000000000000000002000000800000000000000000000000000000080000000000000020000000000000000000000000000000000000000000000000000000000000000000",
      "type": "0x2",
      "transactionHash": "0x13c446523ee53a984d688c55610f4ea894c77e3db4207877660636d15f1070c2",
      "transactionIndex": "0x70",
      "blockHash": "0xecb25b0127b82069625ad1c4d0f9ee2219065f2d3127874590fa11fbd273e9b5",
      "blockNumber": "0x7319ce",
      "gasUsed": "0xf21f",
      "effectiveGasPrice": "0x4512bf53",
      "from": "0xc77f7fed3b5cc8249adc428c5f44c9063b9734b4",
      "to": "0x8aafd3ede9adb0ff97c7aebce82a919afb1c8764",
      "contractAddress": null
    }
  ],
  "libraries": [],
  "pending": [],
  "returns": {},
  "timestamp": 1737503353,
  "chain": 11155111,
  "commit": "1d2fb70"
}