{
  "transactions": [
    {
      "hash": "0xb205052a6376ded97927704a7a90282bcbfcbd846555216ed66d169ebf942577",
      "transactionType": "CALL",
      "contractName": null,
      "contractAddress": "0x8aafd3ede9adb0ff97c7aebce82a919afb1c8764",
      "function": "sell(uint256)",
      "arguments": [
        "698146943970633854892"
      ],
      "transaction": {
        "from": "0xc77f7fed3b5cc8249adc428c5f44c9063b9734b4",
        "to": "0x8aafd3ede9adb0ff97c7aebce82a919afb1c8764",
        "gas": "0x17270",
        "value": "0x0",
        "input": "0xe4849b32000000000000000000000000000000000000000000000025d8bc3299aa2c2fac",
        "nonce": "0x1113",
        "chainId": "0xaa36a7"
      },
      "additionalContracts": [],
      "isFixedGasLimit": false
    }
  ],
  "receipts": [
    {
      "status": "0x1",
      "cumulativeGasUsed": "0xdf17fe",
      "logs": [
        {
          "address": "0x8aafd3ede9adb0ff97c7aebce82a919afb1c8764",
          "topics": [
            "0xddf252ad1be2c89b69c2b068fc378daa952ba7f163c4a11628f55a4df523b3ef",
            "0x000000000000000000000000c77f7fed3b5cc8249adc428c5f44c9063b9734b4",
            "0x0000000000000000000000000000000000000000000000000000000000000000"
          ],
          "data": "0x0000000000000000000000000000000000000000000000258b39ab070704ebb5",
          "blockHash": "0xe9764a178db8fa2f21e342d31de5367680160ad2f2d3e7b3548d5b22f2bc890d",
          "blockNumber": "0x7317c5",
          "transactionHash": "0xb205052a6376ded97927704a7a90282bcbfcbd846555216ed66d169ebf942577",
          "transactionIndex": "0x85",
          "logIndex": "0xa8",
          "removed": false
        },
        {
          "address": "0x8aafd3ede9adb0ff97c7aebce82a919afb1c8764",
          "topics": [
            "0xddf252ad1be2c89b69c2b068fc378daa952ba7f163c4a11628f55a4df523b3ef",
            "0x000000000000000000000000c77f7fed3b5cc8249adc428c5f44c9063b9734b4",
            "0x000000000000000000000000c77f7fed3b5cc8249adc428c5f44c9063b9734b4"
          ],
          "data": "0x0000000000000000000000000000000000000000000000004d828792a32743f7",
          "blockHash": "0xe9764a178db8fa2f21e342d31de5367680160ad2f2d3e7b3548d5b22f2bc890d",
          "blockNumber": "0x7317c5",
          "transactionHash": "0xb205052a6376ded97927704a7a90282bcbfcbd846555216ed66d169ebf942577",
          "transactionIndex": "0x85",
          "logIndex": "0xa9",
          "removed": false
        },
        {
          "address": "0x8aafd3ede9adb0ff97c7aebce82a919afb1c8764",
          "topics": [
            "0x4afcb4a87cdbd9974efdb92ee48bc8d7cd0ae4bf217004db3d080cbaee652ca7"
          ],
          "data": "0x0000000000000000000000000000000000000000000000000000000067901a0000000000000000000000000000000000000000000000000000050f0e48a79ed60000000000000000000000000000000000000000000000000dc8f8ed416cc74d",
          "blockHash": "0xe9764a178db8fa2f21e342d31de5367680160ad2f2d3e7b3548d5b22f2bc890d",
          "blockNumber": "0x7317c5",
          "transactionHash": "0xb205052a6376ded97927704a7a90282bcbfcbd846555216ed66d169ebf942577",
          "transactionIndex": "0x85",
          "logIndex": "0xaa",
          "removed": false
        }
      ],
      "logsBloom": "0x00000000000000000000000000000000000000000600000000000000000000000000000000000000000000000000000000000000000000004000000000000000000000000000004000000008000000000000000000000000000000000000000000000000020000000000000000000800020000000000000000000010000000000000000000000000000000000000000000000000000000000000010000000000000000000000000000000000000000004000000000000000000000000000000000000002000000800000000000000000000000000000080000000000000020000000000000000000000000000000000000000000000000000000000000000000",
      "type": "0x2",
      "transactionHash": "0xb205052a6376ded97927704a7a90282bcbfcbd846555216ed66d169ebf942577",
      "transactionIndex": "0x85",
      "blockHash": "0xe9764a178db8fa2f21e342d31de5367680160ad2f2d3e7b3548d5b22f2bc890d",
      "blockNumber": "0x7317c5",
      "gasUsed": "0xfd4b",
      "effectiveGasPrice": "0x409a9af8",
      "from": "0xc77f7fed3b5cc8249adc428c5f44c9063b9734b4",
      "to": "0x8aafd3ede9adb0ff97c7aebce82a919afb1c8764",
      "contractAddress": null
    }
  ],
  "libraries": [],
  "pending": [],
  "returns": {},
  "timestamp": 1737497089,
  "chain": 11155111,
  "commit": "1d2fb70"
}