{
  "transactions": [
    {
      "hash": "0x2f15f53c0677d08110aa57eef4db67ac3914612c36cb35083661535a724a2547",
      "transactionType": "CALL",
      "contractName": null,
      "contractAddress": "0xd40b4069bc749de67bffd768cf3d1c516ded837b",
      "function": "borrow(uint256,uint256)",
      "arguments": [
        "9999999999999990",
        "0"
      ],
      "transaction": {
        "from": "0xc77f7fed3b5cc8249adc428c5f44c9063b9734b4",
        "to": "0xd40b4069bc749de67bffd768cf3d1c516ded837b",
        "gas": "0x5dbfc",
        "value": "0x0",
        "input": "0x0ecbcdab000000000000000000000000000000000000000000000000002386f26fc0fff60000000000000000000000000000000000000000000000000000000000000000",
        "nonce": "0x192a",
        "chainId": "0xaa36a7"
      },
      "additionalContracts": [],
      "isFixedGasLimit": false
    }
  ],
  "receipts": [
    {
      "status": "0x1",
      "cumulativeGasUsed": "0x18fa281",
      "logs": [
        {
          "address": "0xd40b4069bc749de67bffd768cf3d1c516ded837b",
          "topics": [
            "0xddf252ad1be2c89b69c2b068fc378daa952ba7f163c4a11628f55a4df523b3ef",
            "0x000000000000000000000000c77f7fed3b5cc8249adc428c5f44c9063b9734b4",
            "0x000000000000000000000000d40b4069bc749de67bffd768cf3d1c516ded837b"
          ],
          "data": "0x0000000000000000000000000000000000000000000000008ac7230489e7ffff",
          "blockHash": "0x86e8eb3d5985a46b87ab526e16402d105f5acc55a320508ec708bfc494332e45",
          "blockNumber": "0x739b70",
          "transactionHash": "0x2f15f53c0677d08110aa57eef4db67ac3914612c36cb35083661535a724a2547",
          "transactionIndex": "0xcc",
          "logIndex": "0x1ed",
          "removed": false
        },
        {
          "address": "0xd40b4069bc749de67bffd768cf3d1c516ded837b",
          "topics": [
            "0x03bbe564cb1b78e43195eeadbde99e5b89b19345862807fcfb59f884e4165e25"
          ],
          "data": "0x00000000000000000000000038818e389773445cd73adbaa37b8b169f458c6e1000000000000000000000000000000000000000000000000000002ba7def2fff",
          "blockHash": "0x86e8eb3d5985a46b87ab526e16402d105f5acc55a320508ec708bfc494332e45",
          "blockNumber": "0x739b70",
          "transactionHash": "0x2f15f53c0677d08110aa57eef4db67ac3914612c36cb35083661535a724a2547",
          "transactionIndex": "0xcc",
          "logIndex": "0x1ee",
          "removed": false
        },
        {
          "address": "0xd40b4069bc749de67bffd768cf3d1c516ded837b",
          "topics": [
            "0x03bbe564cb1b78e43195eeadbde99e5b89b19345862807fcfb59f884e4165e25"
          ],
          "data": "0x000000000000000000000000c77f7fed3b5cc8249adc428c5f44c9063b9734b4000000000000000000000000000000000000000000000000002322e710d41ff7",
          "blockHash": "0x86e8eb3d5985a46b87ab526e16402d105f5acc55a320508ec708bfc494332e45",
          "blockNumber": "0x739b70",
          "transactionHash": "0x2f15f53c0677d08110aa57eef4db67ac3914612c36cb35083661535a724a2547",
          "transactionIndex": "0xcc",
          "logIndex": "0x1ef",
          "removed": false
        },
        {
          "address": "0xd40b4069bc749de67bffd768cf3d1c516ded837b",
          "topics": [
            "0xaec00f5213a37254bc68a26b0685d1a5b2bf513e1e587c94c7df7f4a62b56c9c"
          ],
          "data": "0x0000000000000000000000000000000000000000000000008ac7230489e7ffff00000000000000000000000000000000000000000000000000232bff5f46bff600000000000000000000000000000000000000000000000000232bff5f46bff60000000000000000000000000000000000000000000000008ac7230489e7ffff",
          "blockHash": "0x86e8eb3d5985a46b87ab526e16402d105f5acc55a320508ec708bfc494332e45",
          "blockNumber": "0x739b70",
          "transactionHash": "0x2f15f53c0677d08110aa57eef4db67ac3914612c36cb35083661535a724a2547",
          "transactionIndex": "0xcc",
          "logIndex": "0x1f0",
          "removed": false
        },
        {
          "address": "0xd40b4069bc749de67bffd768cf3d1c516ded837b",
          "topics": [
            "0x4afcb4a87cdbd9974efdb92ee48bc8d7cd0ae4bf217004db3d080cbaee652ca7"
          ],
          "data": "0x0000000000000000000000000000000000000000000000000000000067967f4c00000000000000000000000000000000000000000000000000038e21a006d7fe000000000000000000000000000000000000000000000000000009184e729fff",
          "blockHash": "0x86e8eb3d5985a46b87ab526e16402d105f5acc55a320508ec708bfc494332e45",
          "blockNumber": "0x739b70",
          "transactionHash": "0x2f15f53c0677d08110aa57eef4db67ac3914612c36cb35083661535a724a2547",
          "transactionIndex": "0xcc",
          "logIndex": "0x1f1",
          "removed": false
        }
      ],
      "logsBloom": "0x00000000000000000000000000000100400000000000000000000000000000000008000000000000000000000000000000002000000000004000000000000000000000000000000000000008002000000000000000000000000000000000000000000000000000000000000001000000020000000000000000000010000000000000000000000000000000000000000000010000000000000000010000000000000000000000000000000400000400004000000000000000000000001000000000000002000000880000000000000000000000000000080000000000000000000000000000000000000000000000000000000000000000000000200000000000",
      "type": "0x2",
      "transactionHash": "0x2f15f53c0677d08110aa57eef4db67ac3914612c36cb35083661535a724a2547",
      "transactionIndex": "0xcc",
      "blockHash": "0x86e8eb3d5985a46b87ab526e16402d105f5acc55a320508ec708bfc494332e45",
      "blockNumber": "0x739b70",
      "gasUsed": "0x401a2",
      "effectiveGasPrice": "0x2638363f7",
      "from": "0xc77f7fed3b5cc8249adc428c5f44c9063b9734b4",
      "to": "0xd40b4069bc749de67bffd768cf3d1c516ded837b",
      "contractAddress": null
    }
  ],
  "libraries": [],
  "pending": [],
  "returns": {},
  "timestamp": 1737916239,
  "chain": 11155111,
  "commit": "f5162e9"
}