{
  "transactions": [
    {
      "hash": "0x662d6d62372d8f8cbd0c7b3018c5bc08dfd9c4617567b17b833bb0d55d23dd21",
      "transactionType": "CALL",
      "contractName": null,
      "contractAddress": "0x8aafd3ede9adb0ff97c7aebce82a919afb1c8764",
      "function": "sell(uint256)",
      "arguments": [
        "2830998399337"
      ],
      "transaction": {
        "from": "0xc77f7fed3b5cc8249adc428c5f44c9063b9734b4",
        "to": "0x8aafd3ede9adb0ff97c7aebce82a919afb1c8764",
        "gas": "0x15daa",
        "value": "0x0",
        "input": "0xe4849b320000000000000000000000000000000000000000000000000000029324a76969",
        "nonce": "0x1171",
        "chainId": "0xaa36a7"
      },
      "additionalContracts": [],
      "isFixedGasLimit": false
    }
  ],
  "receipts": [
    {
      "status": "0x1",
      "cumulativeGasUsed": "0xf9b8b3",
      "logs": [
        {
          "address": "0x8aafd3ede9adb0ff97c7aebce82a919afb1c8764",
          "topics": [
            "0xddf252ad1be2c89b69c2b068fc378daa952ba7f163c4a11628f55a4df523b3ef",
            "0x000000000000000000000000c77f7fed3b5cc8249adc428c5f44c9063b9734b4",
            "0x0000000000000000000000000000000000000000000000000000000000000000"
          ],
          "data": "0x0000000000000000000000000000000000000000000000000000028ddeba8d6f",
          "blockHash": "0x85a2cdb805be802d8e9ad9fc782529e24bee519684ebe36492426d77b27d847d",
          "blockNumber": "0x731830",
          "transactionHash": "0x662d6d62372d8f8cbd0c7b3018c5bc08dfd9c4617567b17b833bb0d55d23dd21",
          "transactionIndex": "0x88",
          "logIndex": "0xbb",
          "removed": false
        },
        {
          "address": "0x8aafd3ede9adb0ff97c7aebce82a919afb1c8764",
          "topics": [
            "0xddf252ad1be2c89b69c2b068fc378daa952ba7f163c4a11628f55a4df523b3ef",
            "0x000000000000000000000000c77f7fed3b5cc8249adc428c5f44c9063b9734b4",
            "0x000000000000000000000000c77f7fed3b5cc8249adc428c5f44c9063b9734b4"
          ],
          "data": "0x0000000000000000000000000000000000000000000000000000000545ecdbfa",
          "blockHash": "0x85a2cdb805be802d8e9ad9fc782529e24bee519684ebe36492426d77b27d847d",
          "blockNumber": "0x731830",
          "transactionHash": "0x662d6d62372d8f8cbd0c7b3018c5bc08dfd9c4617567b17b833bb0d55d23dd21",
          "transactionIndex": "0x88",
          "logIndex": "0xbc",
          "removed": false
        },
        {
          "address": "0x8aafd3ede9adb0ff97c7aebce82a919afb1c8764",
          "topics": [
            "0x4afcb4a87cdbd9974efdb92ee48bc8d7cd0ae4bf217004db3d080cbaee652ca7"
          ],
          "data": "0x0000000000000000000000000000000000000000000000000000000067901f0400000000000000000000000000000000000000000000000000051c236251e4bc00000000000000000000000000000000000000000000000000000000f2b3b02d",
          "blockHash": "0x85a2cdb805be802d8e9ad9fc782529e24bee519684ebe36492426d77b27d847d",
          "blockNumber": "0x731830",
          "transactionHash": "0x662d6d62372d8f8cbd0c7b3018c5bc08dfd9c4617567b17b833bb0d55d23dd21",
          "transactionIndex": "0x88",
          "logIndex": "0xbd",
          "removed": false
        }
      ],
      "logsBloom": "0x00000000000000000000000000000000000000000600000000000000000000000000000000000000000000000000000000000000000000004000000000000000000000000000004000000008000000000000000000000000000000000000000000000000020000000000000000000800020000000000000000000010000000000000000000000000000000000000000000000000000000000000010000000000000000000000000000000000000000004000000000000000000000000000000000000002000000800000000000000000000000000000080000000000000020000000000000000000000000000000000000000000000000000000000000000000",
      "type": "0x2",
      "transactionHash": "0x662d6d62372d8f8cbd0c7b3018c5bc08dfd9c4617567b17b833bb0d55d23dd21",
      "transactionIndex": "0x88",
      "blockHash": "0x85a2cdb805be802d8e9ad9fc782529e24bee519684ebe36492426d77b27d847d",
      "blockNumber": "0x731830",
      "gasUsed": "0xfd27",
      "effectiveGasPrice": "0x36fb069e",
      "from": "0xc77f7fed3b5cc8249adc428c5f44c9063b9734b4",
      "to": "0x8aafd3ede9adb0ff97c7aebce82a919afb1c8764",
      "contractAddress": null
    }
  ],
  "libraries": [],
  "pending": [],
  "returns": {},
  "timestamp": 1737498374,
  "chain": 11155111,
  "commit": "1d2fb70"
}