{
  "transactions": [
    {
      "hash": "0xfa737692e8fa14fd69def066f80160f43cc0c3ea0a8e5ec7624b0bef6a6899be",
      "transactionType": "CALL",
      "contractName": null,
      "contractAddress": "0x270e88f8683660553e8ba4eb2ad7c91a1710d769",
      "function": "sell(uint256)",
      "arguments": [
        "954323850942609818747"
      ],
      "transaction": {
        "from": "0xc77f7fed3b5cc8249adc428c5f44c9063b9734b4",
        "to": "0x270e88f8683660553e8ba4eb2ad7c91a1710d769",
        "gas": "0x16fec",
        "value": "0x0",
        "input": "0xe4849b32000000000000000000000000000000000000000000000033bbe766353517047b",
        "nonce": "0x5d1",
        "chainId": "0xaa36a7"
      },
      "additionalContracts": [],
      "isFixedGasLimit": false
    }
  ],
  "receipts": [
    {
      "status": "0x1",
      "cumulativeGasUsed": "0xa17f9f",
      "logs": [
        {
          "address": "0x270e88f8683660553e8ba4eb2ad7c91a1710d769",
          "topics": [
            "0xddf252ad1be2c89b69c2b068fc378daa952ba7f163c4a11628f55a4df523b3ef",
            "0x000000000000000000000000c77f7fed3b5cc8249adc428c5f44c9063b9734b4",
            "0x0000000000000000000000000000000000000000000000000000000000000000"
          ],
          "data": "0x000000000000000000000000000000000000000000000033bbe766353517047b",
          "blockHash": "0xc3bc4e8d4f98d94563d503d712a499c8c83d6b2d15199e4f5ef3ff0add194416",
          "blockNumber": "0x725291",
          "transactionHash": "0xfa737692e8fa14fd69def066f80160f43cc0c3ea0a8e5ec7624b0bef6a6899be",
          "transactionIndex": "0x57",
          "logIndex": "0xc1",
          "removed": false
        },
        {
          "address": "0x270e88f8683660553e8ba4eb2ad7c91a1710d769",
          "topics": [
            "0x4afcb4a87cdbd9974efdb92ee48bc8d7cd0ae4bf217004db3d080cbaee652ca7"
          ],
          "data": "0x000000000000000000000000000000000000000000000000000000006786d0bc0000000000000000000000000000000000000000000000000003b2a644959d4a0000000000000000000000000000000000000000000000000dc83e9a61e0eabf",
          "blockHash": "0xc3bc4e8d4f98d94563d503d712a499c8c83d6b2d15199e4f5ef3ff0add194416",
          "blockNumber": "0x725291",
          "transactionHash": "0xfa737692e8fa14fd69def066f80160f43cc0c3ea0a8e5ec7624b0bef6a6899be",
          "transactionIndex": "0x57",
          "logIndex": "0xc2",
          "removed": false
        }
      ],
      "logsBloom": "0x00000000000000000000000000000000000000000000000000000000000000000000000000000000000000000000000020000000000000004000000000000000000000000000000000000008000000000000000000000000000000000000000000000000020000000000000000000800020000000000000000000010000000000000000000010000000000000000000000000000000000000000010000000000000000000000000000000000000000004000000000000000000000000000000000000002000000800000000000000000000000000000080000008000000020000000000000000000000000000000000000000000000000000000000000000000",
      "type": "0x2",
      "transactionHash": "0xfa737692e8fa14fd69def066f80160f43cc0c3ea0a8e5ec7624b0bef6a6899be",
      "transactionIndex": "0x57",
      "blockHash": "0xc3bc4e8d4f98d94563d503d712a499c8c83d6b2d15199e4f5ef3ff0add194416",
      "blockNumber": "0x725291",
      "gasUsed": "0xfb93",
      "effectiveGasPrice": "0x36a815146",
      "from": "0xc77f7fed3b5cc8249adc428c5f44c9063b9734b4",
      "to": "0x270e88f8683660553e8ba4eb2ad7c91a1710d769",
      "contractAddress": null
    }
  ],
  "libraries": [],
  "pending": [],
  "returns": {},
  "timestamp": 1736888509,
  "chain": 11155111,
  "commit": "51a374b"
}