{
  "transactions": [
    {
      "hash": "0x9d001c851b4a441bf6a24477bca628bb4ec85f54bb11c747cb99ae80f15d71dd",
      "transactionType": "CALL",
      "contractName": null,
      "contractAddress": "0x8aafd3ede9adb0ff97c7aebce82a919afb1c8764",
      "function": "sell(uint256)",
      "arguments": [
        "23483257948"
      ],
      "transaction": {
        "from": "0xc77f7fed3b5cc8249adc428c5f44c9063b9734b4",
        "to": "0x8aafd3ede9adb0ff97c7aebce82a919afb1c8764",
        "gas": "0x1722a",
        "value": "0x0",
        "input": "0xe4849b320000000000000000000000000000000000000000000000000000000577b6145c",
        "nonce": "0x1032",
        "chainId": "0xaa36a7"
      },
      "additionalContracts": [],
      "isFixedGasLimit": false
    }
  ],
  "receipts": [
    {
      "status": "0x1",
      "cumulativeGasUsed": "0x12804be",
      "logs": [
        {
          "address": "0x8aafd3ede9adb0ff97c7aebce82a919afb1c8764",
          "topics": [
            "0xddf252ad1be2c89b69c2b068fc378daa952ba7f163c4a11628f55a4df523b3ef",
            "0x000000000000000000000000c77f7fed3b5cc8249adc428c5f44c9063b9734b4",
            "0x0000000000000000000000000000000000000000000000000000000000000000"
          ],
          "data": "0x000000000000000000000000000000000000000000000000000000056c83788d",
          "blockHash": "0x963be90886e680cf29c6f10390823ef5bcb4ce2022a82a072ba323e2ec611be0",
          "blockNumber": "0x7316af",
          "transactionHash": "0x9d001c851b4a441bf6a24477bca628bb4ec85f54bb11c747cb99ae80f15d71dd",
          "transactionIndex": "0xb9",
          "logIndex": "0x139",
          "removed": false
        },
        {
          "address": "0x8aafd3ede9adb0ff97c7aebce82a919afb1c8764",
          "topics": [
            "0xddf252ad1be2c89b69c2b068fc378daa952ba7f163c4a11628f55a4df523b3ef",
            "0x000000000000000000000000c77f7fed3b5cc8249adc428c5f44c9063b9734b4",
            "0x000000000000000000000000c77f7fed3b5cc8249adc428c5f44c9063b9734b4"
          ],
          "data": "0x000000000000000000000000000000000000000000000000000000000b329bcf",
          "blockHash": "0x963be90886e680cf29c6f10390823ef5bcb4ce2022a82a072ba323e2ec611be0",
          "blockNumber": "0x7316af",
          "transactionHash": "0x9d001c851b4a441bf6a24477bca628bb4ec85f54bb11c747cb99ae80f15d71dd",
          "transactionIndex": "0xb9",
          "logIndex": "0x13a",
          "removed": false
        },
        {
          "address": "0x8aafd3ede9adb0ff97c7aebce82a919afb1c8764",
          "topics": [
            "0x4afcb4a87cdbd9974efdb92ee48bc8d7cd0ae4bf217004db3d080cbaee652ca7"
          ],
          "data": "0x0000000000000000000000000000000000000000000000000000000067900cec0000000000000000000000000000000000000000000000000004eda90c28fe090000000000000000000000000000000000000000000000000000000001f112d7",
          "blockHash": "0x963be90886e680cf29c6f10390823ef5bcb4ce2022a82a072ba323e2ec611be0",
          "blockNumber": "0x7316af",
          "transactionHash": "0x9d001c851b4a441bf6a24477bca628bb4ec85f54bb11c747cb99ae80f15d71dd",
          "transactionIndex": "0xb9",
          "logIndex": "0x13b",
          "removed": false
        }
      ],
      "logsBloom": "0x00000000000000000000000000000000000000000600000000000000000000000000000000000000000000000000000000000000000000004000000000000000000000000000004000000008000000000000000000000000000000000000000000000000020000000000000000000800020000000000000000000010000000000000000000000000000000000000000000000000000000000000010000000000000000000000000000000000000000004000000000000000000000000000000000000002000000800000000000000000000000000000080000000000000020000000000000000000000000000000000000000000000000000000000000000000",
      "type": "0x2",
      "transactionHash": "0x9d001c851b4a441bf6a24477bca628bb4ec85f54bb11c747cb99ae80f15d71dd",
      "transactionIndex": "0xb9",
      "blockHash": "0x963be90886e680cf29c6f10390823ef5bcb4ce2022a82a072ba323e2ec611be0",
      "blockNumber": "0x7316af",
      "gasUsed": "0xfd1b",
      "effectiveGasPrice": "0x46f054b0",
      "from": "0xc77f7fed3b5cc8249adc428c5f44c9063b9734b4",
      "to": "0x8aafd3ede9adb0ff97c7aebce82a919afb1c8764",
      "contractAddress": null
    }
  ],
  "libraries": [],
  "pending": [],
  "returns": {},
  "timestamp": 1737493742,
  "chain": 11155111,
  "commit": "1d2fb70"
}