{
  "transactions": [
    {
      "hash": "0xc5c7553649d73365e0ee4496d62963f243bbeed2a98df649b17867c16fe4b306",
      "transactionType": "CALL",
      "contractName": null,
      "contractAddress": "0x8aafd3ede9adb0ff97c7aebce82a919afb1c8764",
      "function": "sell(uint256)",
      "arguments": [
        "11595"
      ],
      "transaction": {
        "from": "0xc77f7fed3b5cc8249adc428c5f44c9063b9734b4",
        "to": "0x8aafd3ede9adb0ff97c7aebce82a919afb1c8764",
        "gas": "0x14e4c",
        "value": "0x0",
        "input": "0xe4849b320000000000000000000000000000000000000000000000000000000000002d4b",
        "nonce": "0x1175",
        "chainId": "0xaa36a7"
      },
      "additionalContracts": [],
      "isFixedGasLimit": false
    }
  ],
  "receipts": [
    {
      "status": "0x1",
      "cumulativeGasUsed": "0xa2ecf0",
      "logs": [
        {
          "address": "0x8aafd3ede9adb0ff97c7aebce82a919afb1c8764",
          "topics": [
            "0xddf252ad1be2c89b69c2b068fc378daa952ba7f163c4a11628f55a4df523b3ef",
            "0x000000000000000000000000c77f7fed3b5cc8249adc428c5f44c9063b9734b4",
            "0x0000000000000000000000000000000000000000000000000000000000000000"
          ],
          "data": "0x0000000000000000000000000000000000000000000000000000000000002cef",
          "blockHash": "0x907f164ff1b70a114e335649a5328b5642d48898c64d76e99215ff2d4c8da965",
          "blockNumber": "0x731835",
          "transactionHash": "0xc5c7553649d73365e0ee4496d62963f243bbeed2a98df649b17867c16fe4b306",
          "transactionIndex": "0x86",
          "logIndex": "0x9e",
          "removed": false
        },
        {
          "address": "0x8aafd3ede9adb0ff97c7aebce82a919afb1c8764",
          "topics": [
            "0xddf252ad1be2c89b69c2b068fc378daa952ba7f163c4a11628f55a4df523b3ef",
            "0x000000000000000000000000c77f7fed3b5cc8249adc428c5f44c9063b9734b4",
            "0x000000000000000000000000c77f7fed3b5cc8249adc428c5f44c9063b9734b4"
          ],
          "data": "0x000000000000000000000000000000000000000000000000000000000000005c",
          "blockHash": "0x907f164ff1b70a114e335649a5328b5642d48898c64d76e99215ff2d4c8da965",
          "blockNumber": "0x731835",
          "transactionHash": "0xc5c7553649d73365e0ee4496d62963f243bbeed2a98df649b17867c16fe4b306",
          "transactionIndex": "0x86",
          "logIndex": "0x9f",
          "removed": false
        },
        {
          "address": "0x8aafd3ede9adb0ff97c7aebce82a919afb1c8764",
          "topics": [
            "0x4afcb4a87cdbd9974efdb92ee48bc8d7cd0ae4bf217004db3d080cbaee652ca7"
          ],
          "data": "0x0000000000000000000000000000000000000000000000000000000067901f4000000000000000000000000000000000000000000000000000051c236251e4e20000000000000000000000000000000000000000000000000000000000000010",
          "blockHash": "0x907f164ff1b70a114e335649a5328b5642d48898c64d76e99215ff2d4c8da965",
          "blockNumber": "0x731835",
          "transactionHash": "0xc5c7553649d73365e0ee4496d62963f243bbeed2a98df649b17867c16fe4b306",
          "transactionIndex": "0x86",
          "logIndex": "0xa0",
          "removed": false
        }
      ],
      "logsBloom": "0x00000000000000000000000000000000000000000600000000000000000000000000000000000000000000000000000000000000000000004000000000000000000000000000004000000008000000000000000000000000000000000000000000000000020000000000000000000800020000000000000000000010000000000000000000000000000000000000000000000000000000000000010000000000000000000000000000000000000000004000000000000000000000000000000000000002000000800000000000000000000000000000080000000000000020000000000000000000000000000000000000000000000000000000000000000000",
      "type": "0x2",
      "transactionHash": "0xc5c7553649d73365e0ee4496d62963f243bbeed2a98df649b17867c16fe4b306",
      "transactionIndex": "0x86",
      "blockHash": "0x907f164ff1b70a114e335649a5328b5642d48898c64d76e99215ff2d4c8da965",
      "blockNumber": "0x731835",
      "gasUsed": "0xf207",
      "effectiveGasPrice": "0x3c854d51",
      "from": "0xc77f7fed3b5cc8249adc428c5f44c9063b9734b4",
      "to": "0x8aafd3ede9adb0ff97c7aebce82a919afb1c8764",
      "contractAddress": null
    }
  ],
  "libraries": [],
  "pending": [],
  "returns": {},
  "timestamp": 1737498435,
  "chain": 11155111,
  "commit": "1d2fb70"
}