{
  "transactions": [
    {
      "hash": "0xac5d02a73167dd745556a6204e937b77b8d2631ffd412caef5a1da305e711944",
      "transactionType": "CALL",
      "contractName": null,
      "contractAddress": "0x8aafd3ede9adb0ff97c7aebce82a919afb1c8764",
      "function": "sell(uint256)",
      "arguments": [
        "24477295078"
      ],
      "transaction": {
        "from": "0xc77f7fed3b5cc8249adc428c5f44c9063b9734b4",
        "to": "0x8aafd3ede9adb0ff97c7aebce82a919afb1c8764",
        "gas": "0x1722a",
        "value": "0x0",
        "input": "0xe4849b3200000000000000000000000000000000000000000000000000000005b2f5e1e6",
        "nonce": "0xed3",
        "chainId": "0xaa36a7"
      },
      "additionalContracts": [],
      "isFixedGasLimit": false
    }
  ],
  "receipts": [
    {
      "status": "0x1",
      "cumulativeGasUsed": "0x88ecc8",
      "logs": [
        {
          "address": "0x8aafd3ede9adb0ff97c7aebce82a919afb1c8764",
          "topics": [
            "0xddf252ad1be2c89b69c2b068fc378daa952ba7f163c4a11628f55a4df523b3ef",
            "0x000000000000000000000000c77f7fed3b5cc8249adc428c5f44c9063b9734b4",
            "0x0000000000000000000000000000000000000000000000000000000000000000"
          ],
          "data": "0x00000000000000000000000000000000000000000000000000000005a749ee6e",
          "blockHash": "0xd42e45f09d7f75317dfc978361647e7c21d16a9a4095808c327cdbca9fe8c908",
          "blockNumber": "0x73143f",
          "transactionHash": "0xac5d02a73167dd745556a6204e937b77b8d2631ffd412caef5a1da305e711944",
          "transactionIndex": "0x6e",
          "logIndex": "0x85",
          "removed": false
        },
        {
          "address": "0x8aafd3ede9adb0ff97c7aebce82a919afb1c8764",
          "topics": [
            "0xddf252ad1be2c89b69c2b068fc378daa952ba7f163c4a11628f55a4df523b3ef",
            "0x000000000000000000000000c77f7fed3b5cc8249adc428c5f44c9063b9734b4",
            "0x000000000000000000000000c77f7fed3b5cc8249adc428c5f44c9063b9734b4"
          ],
          "data": "0x000000000000000000000000000000000000000000000000000000000babf378",
          "blockHash": "0xd42e45f09d7f75317dfc978361647e7c21d16a9a4095808c327cdbca9fe8c908",
          "blockNumber": "0x73143f",
          "transactionHash": "0xac5d02a73167dd745556a6204e937b77b8d2631ffd412caef5a1da305e711944",
          "transactionIndex": "0x6e",
          "logIndex": "0x86",
          "removed": false
        },
        {
          "address": "0x8aafd3ede9adb0ff97c7aebce82a919afb1c8764",
          "topics": [
            "0x4afcb4a87cdbd9974efdb92ee48bc8d7cd0ae4bf217004db3d080cbaee652ca7"
          ],
          "data": "0x00000000000000000000000000000000000000000000000000000000678fefa00000000000000000000000000000000000000000000000000004b97238bfd8510000000000000000000000000000000000000000000000000000000001f0ac16",
          "blockHash": "0xd42e45f09d7f75317dfc978361647e7c21d16a9a4095808c327cdbca9fe8c908",
          "blockNumber": "0x73143f",
          "transactionHash": "0xac5d02a73167dd745556a6204e937b77b8d2631ffd412caef5a1da305e711944",
          "transactionIndex": "0x6e",
          "logIndex": "0x87",
          "removed": false
        }
      ],
      "logsBloom": "0x00000000000000000000000000000000000000000600000000000000000000000000000000000000000000000000000000000000000000004000000000000000000000000000004000000008000000000000000000000000000000000000000000000000020000000000000000000800020000000000000000000010000000000000000000000000000000000000000000000000000000000000010000000000000000000000000000000000000000004000000000000000000000000000000000000002000000800000000000000000000000000000080000000000000020000000000000000000000000000000000000000000000000000000000000000000",
      "type": "0x2",
      "transactionHash": "0xac5d02a73167dd745556a6204e937b77b8d2631ffd412caef5a1da305e711944",
      "transactionIndex": "0x6e",
      "blockHash": "0xd42e45f09d7f75317dfc978361647e7c21d16a9a4095808c327cdbca9fe8c908",
      "blockNumber": "0x73143f",
      "gasUsed": "0xfd1b",
      "effectiveGasPrice": "0xb8bfc485",
      "from": "0xc77f7fed3b5cc8249adc428c5f44c9063b9734b4",
      "to": "0x8aafd3ede9adb0ff97c7aebce82a919afb1c8764",
      "contractAddress": null
    }
  ],
  "libraries": [],
  "pending": [],
  "returns": {},
  "timestamp": 1737486243,
  "chain": 11155111,
  "commit": "51a374b"
}