{
  "transactions": [
    {
      "hash": "0xe193863cb97aaf2ebda51f7b9327484f82327dcffcecf5d7ec3138a0e8fce7ba",
      "transactionType": "CALL",
      "contractName": null,
      "contractAddress": "0xbf4a322f1496e5c3d34a9bcdb4c60567b38c7de2",
      "function": "sell(uint256)",
      "arguments": [
        "990242240352057287572"
      ],
      "transaction": {
        "from": "0xc77f7fed3b5cc8249adc428c5f44c9063b9734b4",
        "to": "0xbf4a322f1496e5c3d34a9bcdb4c60567b38c7de2",
        "gas": "0x16fea",
        "value": "0x0",
        "input": "0xe4849b32000000000000000000000000000000000000000000000035ae5f27126b5be394",
        "nonce": "0x925",
        "chainId": "0xaa36a7"
      },
      "additionalContracts": [],
      "isFixedGasLimit": false
    }
  ],
  "receipts": [
    {
      "status": "0x1",
      "cumulativeGasUsed": "0x99b71d",
      "logs": [
        {
          "address": "0xbf4a322f1496e5c3d34a9bcdb4c60567b38c7de2",
          "topics": [
            "0xddf252ad1be2c89b69c2b068fc378daa952ba7f163c4a11628f55a4df523b3ef",
            "0x000000000000000000000000c77f7fed3b5cc8249adc428c5f44c9063b9734b4",
            "0x0000000000000000000000000000000000000000000000000000000000000000"
          ],
          "data": "0x000000000000000000000000000000000000000000000035ae5f27126b5be394",
          "blockHash": "0xb994f5771af2cbbeff39dc817845d06a7999fc184c2b3e0982cb46c31718ce89",
          "blockNumber": "0x7258ac",
          "transactionHash": "0xe193863cb97aaf2ebda51f7b9327484f82327dcffcecf5d7ec3138a0e8fce7ba",
          "transactionIndex": "0x54",
          "logIndex": "0x71",
          "removed": false
        },
        {
          "address": "0xbf4a322f1496e5c3d34a9bcdb4c60567b38c7de2",
          "topics": [
            "0x4afcb4a87cdbd9974efdb92ee48bc8d7cd0ae4bf217004db3d080cbaee652ca7"
          ],
          "data": "0x0000000000000000000000000000000000000000000000000000000067871a3c0000000000000000000000000000000000000000000000000003900e3b73caa50000000000000000000000000000000000000000000000000dc7e3f9e127475f",
          "blockHash": "0xb994f5771af2cbbeff39dc817845d06a7999fc184c2b3e0982cb46c31718ce89",
          "blockNumber": "0x7258ac",
          "transactionHash": "0xe193863cb97aaf2ebda51f7b9327484f82327dcffcecf5d7ec3138a0e8fce7ba",
          "transactionIndex": "0x54",
          "logIndex": "0x72",
          "removed": false
        }
      ],
      "logsBloom": "0x00000000000000000000000000000000000000000000000000000000000000000000000000000000000000000000000000000000000000004000000000000000000000000000000000000008000000000000001000000000000000000000000000000000020000000000000000000800020000000000000000000010000000000000000000000000000000000000000000000000000008000000010000000000000000000000000000000000000000004000000000000000000000000000000000000002000000800000000000001000000000000000080000000000000020000000000000000000000000000000000000000000000000000000000000000000",
      "type": "0x2",
      "transactionHash": "0xe193863cb97aaf2ebda51f7b9327484f82327dcffcecf5d7ec3138a0e8fce7ba",
      "transactionIndex": "0x54",
      "blockHash": "0xb994f5771af2cbbeff39dc817845d06a7999fc184c2b3e0982cb46c31718ce89",
      "blockNumber": "0x7258ac",
      "gasUsed": "0xfb91",
      "effectiveGasPrice": "0x5c601125",
      "from": "0xc77f7fed3b5cc8249adc428c5f44c9063b9734b4",
      "to": "0xbf4a322f1496e5c3d34a9bcdb4c60567b38c7de2",
      "contractAddress": null
    }
  ],
  "libraries": [],
  "pending": [],
  "returns": {},
  "timestamp": 1736907327,
  "chain": 11155111,
  "commit": "51a374b"
}