{
  "transactions": [
    {
      "hash": "0x862a2e0f7b89ef99642ab39608440204c1a700f592a3c4a4108305570cf8fabf",
      "transactionType": "CALL",
      "contractName": null,
      "contractAddress": "0x5eb9cc76c3506942c1c0ead70e877dd5e4f00cb0",
      "function": "sell(uint256)",
      "arguments": [
        "989618209137916454438"
      ],
      "transaction": {
        "from": "0xc77f7fed3b5cc8249adc428c5f44c9063b9734b4",
        "to": "0x5eb9cc76c3506942c1c0ead70e877dd5e4f00cb0",
        "gas": "0x16fec",
        "value": "0x0",
        "input": "0xe4849b32000000000000000000000000000000000000000000000035a5b625fd2bbd2626",
        "nonce": "0x23b",
        "chainId": "0xaa36a7"
      },
      "additionalContracts": [],
      "isFixedGasLimit": false
    }
  ],
  "receipts": [
    {
      "status": "0x1",
      "cumulativeGasUsed": "0x708598",
      "logs": [
        {
          "address": "0x5eb9cc76c3506942c1c0ead70e877dd5e4f00cb0",
          "topics": [
            "0xddf252ad1be2c89b69c2b068fc378daa952ba7f163c4a11628f55a4df523b3ef",
            "0x000000000000000000000000c77f7fed3b5cc8249adc428c5f44c9063b9734b4",
            "0x0000000000000000000000000000000000000000000000000000000000000000"
          ],
          "data": "0x000000000000000000000000000000000000000000000035a5b625fd2bbd2626",
          "blockHash": "0x9a635ef3d1c5673ed349f81fc9cd482997d1ddf327d7a4f9585c3c002dd9d114",
          "blockNumber": "0x724df0",
          "transactionHash": "0x862a2e0f7b89ef99642ab39608440204c1a700f592a3c4a4108305570cf8fabf",
          "transactionIndex": "0x4a",
          "logIndex": "0x87",
          "removed": false
        },
        {
          "address": "0x5eb9cc76c3506942c1c0ead70e877dd5e4f00cb0",
          "topics": [
            "0x4afcb4a87cdbd9974efdb92ee48bc8d7cd0ae4bf217004db3d080cbaee652ca7"
          ],
          "data": "0x00000000000000000000000000000000000000000000000000000000678698f40000000000000000000000000000000000000000000000000003909b10c50e4c0000000000000000000000000000000000000000000000000dc7db11838026ee",
          "blockHash": "0x9a635ef3d1c5673ed349f81fc9cd482997d1ddf327d7a4f9585c3c002dd9d114",
          "blockNumber": "0x724df0",
          "transactionHash": "0x862a2e0f7b89ef99642ab39608440204c1a700f592a3c4a4108305570cf8fabf",
          "transactionIndex": "0x4a",
          "logIndex": "0x88",
          "removed": false
        }
      ],
      "logsBloom": "0x00000000000000000000000000000000000000000000000000000000000000000000000000000000000000000000000000000000000000004000000000000000000000000000000000000008000000000000000000000000000000000000000000000000020000000000000004000800020000000000000000000010000000000000000000000000000000000000000000000000000000000000010000000000000000000000000000000000000000004000000000000000000000000000020000000002000000800000008000000000000000000000080000000000000020000000000000000000000000000000000000000000000000000000000000000000",
      "type": "0x2",
      "transactionHash": "0x862a2e0f7b89ef99642ab39608440204c1a700f592a3c4a4108305570cf8fabf",
      "transactionIndex": "0x4a",
      "blockHash": "0x9a635ef3d1c5673ed349f81fc9cd482997d1ddf327d7a4f9585c3c002dd9d114",
      "blockNumber": "0x724df0",
      "gasUsed": "0xfb93",
      "effectiveGasPrice": "0x3ec30c5df",
      "from": "0xc77f7fed3b5cc8249adc428c5f44c9063b9734b4",
      "to": "0x5eb9cc76c3506942c1c0ead70e877dd5e4f00cb0",
      "contractAddress": null
    }
  ],
  "libraries": [],
  "pending": [],
  "returns": {},
  "timestamp": 1736874229,
  "chain": 11155111,
  "commit": "51a374b"
}