{
  "transactions": [
    {
      "hash": "0xbb1f923e5b690aea4ae2fbf0eaf63ca0a079b9e3ccbb60279537f6f6b2bb52f7",
      "transactionType": "CALL",
      "contractName": null,
      "contractAddress": "0x5eb9cc76c3506942c1c0ead70e877dd5e4f00cb0",
      "function": "buy(address)",
      "arguments": [
        "0xC77f7fed3b5Cc8249aDc428c5F44C9063B9734b4"
      ],
      "transaction": {
        "from": "0xc77f7fed3b5cc8249adc428c5f44c9063b9734b4",
        "to": "0x5eb9cc76c3506942c1c0ead70e877dd5e4f00cb0",
        "gas": "0x1b30c",
        "value": "0xde0b6b3a7640000",
        "input": "0xf088d547000000000000000000000000c77f7fed3b5cc8249adc428c5f44c9063b9734b4",
        "nonce": "0x268",
        "chainId": "0xaa36a7"
      },
      "additionalContracts": [],
      "isFixedGasLimit": false
    }
  ],
  "receipts": [
    {
      "status": "0x1",
      "cumulativeGasUsed": "0xe6025d",
      "logs": [
        {
          "address": "0x5eb9cc76c3506942c1c0ead70e877dd5e4f00cb0",
          "topics": [
            "0xddf252ad1be2c89b69c2b068fc378daa952ba7f163c4a11628f55a4df523b3ef",
            "0x0000000000000000000000000000000000000000000000000000000000000000",
            "0x000000000000000000000000c77f7fed3b5cc8249adc428c5f44c9063b9734b4"
          ],
          "data": "0x0000000000000000000000000000000000000000000000357c155aa2a0426d4f",
          "blockHash": "0xb984e44a39997aeadbbd6e8558556ef0557e650547c538b571214a715ee8f42d",
          "blockNumber": "0x724e2a",
          "transactionHash": "0xbb1f923e5b690aea4ae2fbf0eaf63ca0a079b9e3ccbb60279537f6f6b2bb52f7",
          "transactionIndex": "0x50",
          "logIndex": "0xd2",
          "removed": false
        },
        {
          "address": "0x5eb9cc76c3506942c1c0ead70e877dd5e4f00cb0",
          "topics": [
            "0xddf252ad1be2c89b69c2b068fc378daa952ba7f163c4a11628f55a4df523b3ef",
            "0x0000000000000000000000000000000000000000000000000000000000000000",
            "0x000000000000000000000000c77f7fed3b5cc8249adc428c5f44c9063b9734b4"
          ],
          "data": "0x00000000000000000000000000000000000000000000000029885eaba03a1991",
          "blockHash": "0xb984e44a39997aeadbbd6e8558556ef0557e650547c538b571214a715ee8f42d",
          "blockNumber": "0x724e2a",
          "transactionHash": "0xbb1f923e5b690aea4ae2fbf0eaf63ca0a079b9e3ccbb60279537f6f6b2bb52f7",
          "transactionIndex": "0x50",
          "logIndex": "0xd3",
          "removed": false
        },
        {
          "address": "0x5eb9cc76c3506942c1c0ead70e877dd5e4f00cb0",
          "topics": [
            "0x4afcb4a87cdbd9974efdb92ee48bc8d7cd0ae4bf217004db3d080cbaee652ca7"
          ],
          "data": "0x0000000000000000000000000000000000000000000000000000000067869bac0000000000000000000000000000000000000000000000000003909ca4b5fa8c0000000000000000000000000000000000000000000000000de0b6b3a7640000",
          "blockHash": "0xb984e44a39997aeadbbd6e8558556ef0557e650547c538b571214a715ee8f42d",
          "blockNumber": "0x724e2a",
          "transactionHash": "0xbb1f923e5b690aea4ae2fbf0eaf63ca0a079b9e3ccbb60279537f6f6b2bb52f7",
          "transactionIndex": "0x50",
          "logIndex": "0xd4",
          "removed": false
        }
      ],
      "logsBloom": "0x00000000000000000000000000000000000000000000000000000000000000000000000000000000000000000000000000000000000000004000000000000000000000000000000000000008000000000000000000000000000000000000000000000000020000000000000004000800020000000000000000000010000000000000000000000000000000000000000000000000000000000000010000000000000000000000000000000000000000004000000000000000000000000000020000000002000000800000008000000000000000000000080000000000000020000000000000000000000000000000000000000000000000000000000000000000",
      "type": "0x2",
      "transactionHash": "0xbb1f923e5b690aea4ae2fbf0eaf63ca0a079b9e3ccbb60279537f6f6b2bb52f7",
      "transactionIndex": "0x50",
      "blockHash": "0xb984e44a39997aeadbbd6e8558556ef0557e650547c538b571214a715ee8f42d",
      "blockNumber": "0x724e2a",
      "gasUsed": "0x13af8",
      "effectiveGasPrice": "0x3c3090384",
      "from": "0xc77f7fed3b5cc8249adc428c5f44c9063b9734b4",
      "to": "0x5eb9cc76c3506942c1c0ead70e877dd5e4f00cb0",
      "contractAddress": null
    }
  ],
  "libraries": [],
  "pending": [],
  "returns": {},
  "timestamp": 1736874925,
  "chain": 11155111,
  "commit": "51a374b"
}