{
  "transactions": [
    {
      "hash": "0x61f3397085f1927806f0d04809ba260af6d7f4c8f7102238129c6b4d833710cb",
      "transactionType": "CALL",
      "contractName": null,
      "contractAddress": "0xbf4a322f1496e5c3d34a9bcdb4c60567b38c7de2",
      "function": "sell(uint256)",
      "arguments": [
        "985358758676231576894"
      ],
      "transaction": {
        "from": "0xc77f7fed3b5cc8249adc428c5f44c9063b9734b4",
        "to": "0xbf4a322f1496e5c3d34a9bcdb4c60567b38c7de2",
        "gas": "0x16fea",
        "value": "0x0",
        "input": "0xe4849b320000000000000000000000000000000000000000000000356a998a5c90a35d3e",
        "nonce": "0xa8b",
        "chainId": "0xaa36a7"
      },
      "additionalContracts": [],
      "isFixedGasLimit": false
    }
  ],
  "receipts": [
    {
      "status": "0x1",
      "cumulativeGasUsed": "0xe1c08e",
      "logs": [
        {
          "address": "0xbf4a322f1496e5c3d34a9bcdb4c60567b38c7de2",
          "topics": [
            "0xddf252ad1be2c89b69c2b068fc378daa952ba7f163c4a11628f55a4df523b3ef",
            "0x000000000000000000000000c77f7fed3b5cc8249adc428c5f44c9063b9734b4",
            "0x0000000000000000000000000000000000000000000000000000000000000000"
          ],
          "data": "0x0000000000000000000000000000000000000000000000356a998a5c90a35d3e",
          "blockHash": "0x1190bded1b007c57a97bfe1d286ca388bd0650b923c2d7f826ffcae48e52fdd7",
          "blockNumber": "0x725a6e",
          "transactionHash": "0x61f3397085f1927806f0d04809ba260af6d7f4c8f7102238129c6b4d833710cb",
          "transactionIndex": "0x69",
          "logIndex": "0xb7",
          "removed": false
        },
        {
          "address": "0xbf4a322f1496e5c3d34a9bcdb4c60567b38c7de2",
          "topics": [
            "0x4afcb4a87cdbd9974efdb92ee48bc8d7cd0ae4bf217004db3d080cbaee652ca7"
          ],
          "data": "0x0000000000000000000000000000000000000000000000000000000067872f78000000000000000000000000000000000000000000000000000394935e4abc6d0000000000000000000000000000000000000000000000000dc7e3ee8687bd0c",
          "blockHash": "0x1190bded1b007c57a97bfe1d286ca388bd0650b923c2d7f826ffcae48e52fdd7",
          "blockNumber": "0x725a6e",
          "transactionHash": "0x61f3397085f1927806f0d04809ba260af6d7f4c8f7102238129c6b4d833710cb",
          "transactionIndex": "0x69",
          "logIndex": "0xb8",
          "removed": false
        }
      ],
      "logsBloom": "0x00000000000000000000000000000000000000000000000000000000000000000000000000000000000000000000000000000000000000004000000000000000000000000000000000000008000000000000001000000000000000000000000000000000020000000000000000000800020000000000000000000010000000000000000000000000000000000000000000000000000008000000010000000000000000000000000000000000000000004000000000000000000000000000000000000002000000800000000000001000000000000000080000000000000020000000000000000000000000000000000000000000000000000000000000000000",
      "type": "0x2",
      "transactionHash": "0x61f3397085f1927806f0d04809ba260af6d7f4c8f7102238129c6b4d833710cb",
      "transactionIndex": "0x69",
      "blockHash": "0x1190bded1b007c57a97bfe1d286ca388bd0650b923c2d7f826ffcae48e52fdd7",
      "blockNumber": "0x725a6e",
      "gasUsed": "0xfb91",
      "effectiveGasPrice": "0x24690c49c",
      "from": "0xc77f7fed3b5cc8249adc428c5f44c9063b9734b4",
      "to": "0xbf4a322f1496e5c3d34a9bcdb4c60567b38c7de2",
      "contractAddress": null
    }
  ],
  "libraries": [],
  "pending": [],
  "returns": {},
  "timestamp": 1736912762,
  "chain": 11155111,
  "commit": "51a374b"
}