{
  "transactions": [
    {
      "hash": "0x8573b43fa261f879d09b643a1fa6b6b6573b9229564eb7f4b0b5228d175e60a2",
      "transactionType": "CALL",
      "contractName": null,
      "contractAddress": "0xbf4a322f1496e5c3d34a9bcdb4c60567b38c7de2",
      "function": "sell(uint256)",
      "arguments": [
        "973981090482181282865"
      ],
      "transaction": {
        "from": "0xc77f7fed3b5cc8249adc428c5f44c9063b9734b4",
        "to": "0xbf4a322f1496e5c3d34a9bcdb4c60567b38c7de2",
        "gas": "0x16fea",
        "value": "0x0",
        "input": "0xe4849b32000000000000000000000000000000000000000000000034ccb3f16baa029c31",
        "nonce": "0xddb",
        "chainId": "0xaa36a7"
      },
      "additionalContracts": [],
      "isFixedGasLimit": false
    }
  ],
  "receipts": [
    {
      "status": "0x1",
      "cumulativeGasUsed": "0x12ac448",
      "logs": [
        {
          "address": "0xbf4a322f1496e5c3d34a9bcdb4c60567b38c7de2",
          "topics": [
            "0xddf252ad1be2c89b69c2b068fc378daa952ba7f163c4a11628f55a4df523b3ef",
            "0x000000000000000000000000c77f7fed3b5cc8249adc428c5f44c9063b9734b4",
            "0x0000000000000000000000000000000000000000000000000000000000000000"
          ],
          "data": "0x000000000000000000000000000000000000000000000034ccb3f16baa029c31",
          "blockHash": "0xa26ca79e9a07148f6f4cbdc8dc3d970091b8bf8d5d16cbc1985143d0b585db4f",
          "blockNumber": "0x7266b9",
          "transactionHash": "0x8573b43fa261f879d09b643a1fa6b6b6573b9229564eb7f4b0b5228d175e60a2",
          "transactionIndex": "0x57",
          "logIndex": "0x76",
          "removed": false
        },
        {
          "address": "0xbf4a322f1496e5c3d34a9bcdb4c60567b38c7de2",
          "topics": [
            "0x4afcb4a87cdbd9974efdb92ee48bc8d7cd0ae4bf217004db3d080cbaee652ca7"
          ],
          "data": "0x000000000000000000000000000000000000000000000000000000006787c3b000000000000000000000000000000000000000000000000000039f484e2e72300000000000000000000000000000000000000000000000000dc7e3d4127174fa",
          "blockHash": "0xa26ca79e9a07148f6f4cbdc8dc3d970091b8bf8d5d16cbc1985143d0b585db4f",
          "blockNumber": "0x7266b9",
          "transactionHash": "0x8573b43fa261f879d09b643a1fa6b6b6573b9229564eb7f4b0b5228d175e60a2",
          "transactionIndex": "0x57",
          "logIndex": "0x77",
          "removed": false
        }
      ],
      "logsBloom": "0x00000000000000000000000000000000000000000000000000000000000000000000000000000000000000000000000000000000000000004000000000000000000000000000000000000008000000000000001000000000000000000000000000000000020000000000000000000800020000000000000000000010000000000000000000000000000000000000000000000000000008000000010000000000000000000000000000000000000000004000000000000000000000000000000000000002000000800000000000001000000000000000080000000000000020000000000000000000000000000000000000000000000000000000000000000000",
      "type": "0x2",
      "transactionHash": "0x8573b43fa261f879d09b643a1fa6b6b6573b9229564eb7f4b0b5228d175e60a2",
      "transactionIndex": "0x57",
      "blockHash": "0xa26ca79e9a07148f6f4cbdc8dc3d970091b8bf8d5d16cbc1985143d0b585db4f",
      "blockNumber": "0x7266b9",
      "gasUsed": "0xfb91",
      "effectiveGasPrice": "0x1e1dc2dde",
      "from": "0xc77f7fed3b5cc8249adc428c5f44c9063b9734b4",
      "to": "0xbf4a322f1496e5c3d34a9bcdb4c60567b38c7de2",
      "contractAddress": null
    }
  ],
  "libraries": [],
  "pending": [],
  "returns": {},
  "timestamp": 1736950705,
  "chain": 11155111,
  "commit": "51a374b"
}