{
  "transactions": [
    {
      "hash": "0x649b3573f26c6e14603765e8851cd77dc2073fa560e78f56e4022a9c38fca7b0",
      "transactionType": "CALL",
      "contractName": null,
      "contractAddress": "0xbf4a322f1496e5c3d34a9bcdb4c60567b38c7de2",
      "function": "sell(uint256)",
      "arguments": [
        "980388805035660965913"
      ],
      "transaction": {
        "from": "0xc77f7fed3b5cc8249adc428c5f44c9063b9734b4",
        "to": "0xbf4a322f1496e5c3d34a9bcdb4c60567b38c7de2",
        "gas": "0x16fea",
        "value": "0x0",
        "input": "0xe4849b3200000000000000000000000000000000000000000000003525a0b7db80447819",
        "nonce": "0xbfb",
        "chainId": "0xaa36a7"
      },
      "additionalContracts": [],
      "isFixedGasLimit": false
    }
  ],
  "receipts": [
    {
      "status": "0x1",
      "cumulativeGasUsed": "0x10053b8",
      "logs": [
        {
          "address": "0xbf4a322f1496e5c3d34a9bcdb4c60567b38c7de2",
          "topics": [
            "0xddf252ad1be2c89b69c2b068fc378daa952ba7f163c4a11628f55a4df523b3ef",
            "0x000000000000000000000000c77f7fed3b5cc8249adc428c5f44c9063b9734b4",
            "0x0000000000000000000000000000000000000000000000000000000000000000"
          ],
          "data": "0x00000000000000000000000000000000000000000000003525a0b7db80447819",
          "blockHash": "0x4747914843f5df7ff3db9d5061da074bdc623ff15d7addb9611e976e302d6147",
          "blockNumber": "0x725c23",
          "transactionHash": "0x649b3573f26c6e14603765e8851cd77dc2073fa560e78f56e4022a9c38fca7b0",
          "transactionIndex": "0x68",
          "logIndex": "0xa5",
          "removed": false
        },
        {
          "address": "0xbf4a322f1496e5c3d34a9bcdb4c60567b38c7de2",
          "topics": [
            "0x4afcb4a87cdbd9974efdb92ee48bc8d7cd0ae4bf217004db3d080cbaee652ca7"
          ],
          "data": "0x000000000000000000000000000000000000000000000000000000006787440000000000000000000000000000000000000000000000000000039938d46308730000000000000000000000000000000000000000000000000dc7e3e2f865cf8c",
          "blockHash": "0x4747914843f5df7ff3db9d5061da074bdc623ff15d7addb9611e976e302d6147",
          "blockNumber": "0x725c23",
          "transactionHash": "0x649b3573f26c6e14603765e8851cd77dc2073fa560e78f56e4022a9c38fca7b0",
          "transactionIndex": "0x68",
          "logIndex": "0xa6",
          "removed": false
        }
      ],
      "logsBloom": "0x00000000000000000000000000000000000000000000000000000000000000000000000000000000000000000000000000000000000000004000000000000000000000000000000000000008000000000000001000000000000000000000000000000000020000000000000000000800020000000000000000000010000000000000000000000000000000000000000000000000000008000000010000000000000000000000000000000000000000004000000000000000000000000000000000000002000000800000000000001000000000000000080000000000000020000000000000000000000000000000000000000000000000000000000000000000",
      "type": "0x2",
      "transactionHash": "0x649b3573f26c6e14603765e8851cd77dc2073fa560e78f56e4022a9c38fca7b0",
      "transactionIndex": "0x68",
      "blockHash": "0x4747914843f5df7ff3db9d5061da074bdc623ff15d7addb9611e976e302d6147",
      "blockNumber": "0x725c23",
      "gasUsed": "0xfb91",
      "effectiveGasPrice": "0xdbac9f71",
      "from": "0xc77f7fed3b5cc8249adc428c5f44c9063b9734b4",
      "to": "0xbf4a322f1496e5c3d34a9bcdb4c60567b38c7de2",
      "contractAddress": null
    }
  ],
  "libraries": [],
  "pending": [],
  "returns": {},
  "timestamp": 1736918018,
  "chain": 11155111,
  "commit": "51a374b"
}