{
  "transactions": [
    {
      "hash": "0x8a158e6791d99230aae6521312b752bbddfbb1e08809a94775021e53877b5299",
      "transactionType": "CALL",
      "contractName": null,
      "contractAddress": "0x5eb9cc76c3506942c1c0ead70e877dd5e4f00cb0",
      "function": "sell(uint256)",
      "arguments": [
        "989136651703936695478"
      ],
      "transaction": {
        "from": "0xc77f7fed3b5cc8249adc428c5f44c9063b9734b4",
        "to": "0x5eb9cc76c3506942c1c0ead70e877dd5e4f00cb0",
        "gas": "0x16fec",
        "value": "0x0",
        "input": "0xe4849b320000000000000000000000000000000000000000000000359f07500ddc6d3cb6",
        "nonce": "0x31b",
        "chainId": "0xaa36a7"
      },
      "additionalContracts": [],
      "isFixedGasLimit": false
    }
  ],
  "receipts": [
    {
      "status": "0x1",
      "cumulativeGasUsed": "0x1067644",
      "logs": [
        {
          "address": "0x5eb9cc76c3506942c1c0ead70e877dd5e4f00cb0",
          "topics": [
            "0xddf252ad1be2c89b69c2b068fc378daa952ba7f163c4a11628f55a4df523b3ef",
            "0x000000000000000000000000c77f7fed3b5cc8249adc428c5f44c9063b9734b4",
            "0x0000000000000000000000000000000000000000000000000000000000000000"
          ],
          "data": "0x0000000000000000000000000000000000000000000000359f07500ddc6d3cb6",
          "blockHash": "0xfb08f2f21264423f0f698905f24bdde77eb7f37a1fbdd12d2f723b3500b6eb0d",
          "blockNumber": "0x724f01",
          "transactionHash": "0x8a158e6791d99230aae6521312b752bbddfbb1e08809a94775021e53877b5299",
          "transactionIndex": "0x72",
          "logIndex": "0xc3",
          "removed": false
        },
        {
          "address": "0x5eb9cc76c3506942c1c0ead70e877dd5e4f00cb0",
          "topics": [
            "0x4afcb4a87cdbd9974efdb92ee48bc8d7cd0ae4bf217004db3d080cbaee652ca7"
          ],
          "data": "0x000000000000000000000000000000000000000000000000000000006786a5c00000000000000000000000000000000000000000000000000003910ccf88881b0000000000000000000000000000000000000000000000000dc7db133228aa4c",
          "blockHash": "0xfb08f2f21264423f0f698905f24bdde77eb7f37a1fbdd12d2f723b3500b6eb0d",
          "blockNumber": "0x724f01",
          "transactionHash": "0x8a158e6791d99230aae6521312b752bbddfbb1e08809a94775021e53877b5299",
          "transactionIndex": "0x72",
          "logIndex": "0xc4",
          "removed": false
        }
      ],
      "logsBloom": "0x00000000000000000000000000000000000000000000000000000000000000000000000000000000000000000000000000000000000000004000000000000000000000000000000000000008000000000000000000000000000000000000000000000000020000000000000004000800020000000000000000000010000000000000000000000000000000000000000000000000000000000000010000000000000000000000000000000000000000004000000000000000000000000000020000000002000000800000008000000000000000000000080000000000000020000000000000000000000000000000000000000000000000000000000000000000",
      "type": "0x2",
      "transactionHash": "0x8a158e6791d99230aae6521312b752bbddfbb1e08809a94775021e53877b5299",
      "transactionIndex": "0x72",
      "blockHash": "0xfb08f2f21264423f0f698905f24bdde77eb7f37a1fbdd12d2f723b3500b6eb0d",
      "blockNumber": "0x724f01",
      "gasUsed": "0xfb93",
      "effectiveGasPrice": "0x693f7be12",
      "from": "0xc77f7fed3b5cc8249adc428c5f44c9063b9734b4",
      "to": "0x5eb9cc76c3506942c1c0ead70e877dd5e4f00cb0",
      "contractAddress": null
    }
  ],
  "libraries": [],
  "pending": [],
  "returns": {},
  "timestamp": 1736877506,
  "chain": 11155111,
  "commit": "51a374b"
}