{
  "transactions": [
    {
      "hash": "0x71b6ee873d395f64708dfa8f85b56bfc874408ca40bb8946ed10cf958683e09a",
      "transactionType": "CALL",
      "contractName": null,
      "contractAddress": "0x270e88f8683660553e8ba4eb2ad7c91a1710d769",
      "function": "buy(address)",
      "arguments": [
        "0xC77f7fed3b5Cc8249aDc428c5F44C9063B9734b4"
      ],
      "transaction": {
        "from": "0xc77f7fed3b5cc8249adc428c5f44c9063b9734b4",
        "to": "0x270e88f8683660553e8ba4eb2ad7c91a1710d769",
        "gas": "0x1b30c",
        "value": "0xde0b6b3a7640000",
        "input": "0xf088d547000000000000000000000000c77f7fed3b5cc8249adc428c5f44c9063b9734b4",
        "nonce": "0x5d8",
        "chainId": "0xaa36a7"
      },
      "additionalContracts": [],
      "isFixedGasLimit": false
    }
  ],
  "receipts": [
    {
      "status": "0x1",
      "cumulativeGasUsed": "0x940ce8",
      "logs": [
        {
          "address": "0x270e88f8683660553e8ba4eb2ad7c91a1710d769",
          "topics": [
            "0xddf252ad1be2c89b69c2b068fc378daa952ba7f163c4a11628f55a4df523b3ef",
            "0x0000000000000000000000000000000000000000000000000000000000000000",
            "0x000000000000000000000000c77f7fed3b5cc8249adc428c5f44c9063b9734b4"
          ],
          "data": "0x000000000000000000000000000000000000000000000033838b403b0948c0d0",
          "blockHash": "0x08d43f8322e85b2e117fbdf8f62ff23d17dfa6eb32af7ca69086eb53a1c5bd39",
          "blockNumber": "0x725299",
          "transactionHash": "0x71b6ee873d395f64708dfa8f85b56bfc874408ca40bb8946ed10cf958683e09a",
          "transactionIndex": "0x50",
          "logIndex": "0xb1",
          "removed": false
        },
        {
          "address": "0x270e88f8683660553e8ba4eb2ad7c91a1710d769",
          "topics": [
            "0xddf252ad1be2c89b69c2b068fc378daa952ba7f163c4a11628f55a4df523b3ef",
            "0x0000000000000000000000000000000000000000000000000000000000000000",
            "0x000000000000000000000000c77f7fed3b5cc8249adc428c5f44c9063b9734b4"
          ],
          "data": "0x000000000000000000000000000000000000000000000000280093e44141cc8a",
          "blockHash": "0x08d43f8322e85b2e117fbdf8f62ff23d17dfa6eb32af7ca69086eb53a1c5bd39",
          "blockNumber": "0x725299",
          "transactionHash": "0x71b6ee873d395f64708dfa8f85b56bfc874408ca40bb8946ed10cf958683e09a",
          "transactionIndex": "0x50",
          "logIndex": "0xb2",
          "removed": false
        },
        {
          "address": "0x270e88f8683660553e8ba4eb2ad7c91a1710d769",
          "topics": [
            "0x4afcb4a87cdbd9974efdb92ee48bc8d7cd0ae4bf217004db3d080cbaee652ca7"
          ],
          "data": "0x000000000000000000000000000000000000000000000000000000006786d1340000000000000000000000000000000000000000000000000003b3a1b180d37a0000000000000000000000000000000000000000000000000de0b6b3a7640000",
          "blockHash": "0x08d43f8322e85b2e117fbdf8f62ff23d17dfa6eb32af7ca69086eb53a1c5bd39",
          "blockNumber": "0x725299",
          "transactionHash": "0x71b6ee873d395f64708dfa8f85b56bfc874408ca40bb8946ed10cf958683e09a",
          "transactionIndex": "0x50",
          "logIndex": "0xb3",
          "removed": false
        }
      ],
      "logsBloom": "0x00000000000000000000000000000000000000000000000000000000000000000000000000000000000000000000000020000000000000004000000000000000000000000000000000000008000000000000000000000000000000000000000000000000020000000000000000000800020000000000000000000010000000000000000000010000000000000000000000000000000000000000010000000000000000000000000000000000000000004000000000000000000000000000000000000002000000800000000000000000000000000000080000008000000020000000000000000000000000000000000000000000000000000000000000000000",
      "type": "0x2",
      "transactionHash": "0x71b6ee873d395f64708dfa8f85b56bfc874408ca40bb8946ed10cf958683e09a",
      "transactionIndex": "0x50",
      "blockHash": "0x08d43f8322e85b2e117fbdf8f62ff23d17dfa6eb32af7ca69086eb53a1c5bd39",
      "blockNumber": "0x725299",
      "gasUsed": "0x13af8",
      "effectiveGasPrice": "0x383bf57a4",
      "from": "0xc77f7fed3b5cc8249adc428c5f44c9063b9734b4",
      "to": "0x270e88f8683660553e8ba4eb2ad7c91a1710d769",
      "contractAddress": null
    }
  ],
  "libraries": [],
  "pending": [],
  "returns": {},
  "timestamp": 1736888628,
  "chain": 11155111,
  "commit": "51a374b"
}