{
  "transactions": [
    {
      "hash": "0x51fbe9c9b51e39b45b565349330c8c9b037467b5814da4d62551bd0b44daabc2",
      "transactionType": "CALL",
      "contractName": null,
      "contractAddress": "0x270e88f8683660553e8ba4eb2ad7c91a1710d769",
      "function": "sell(uint256)",
      "arguments": [
        "715875419391719284768"
      ],
      "transaction": {
        "from": "0xc77f7fed3b5cc8249adc428c5f44c9063b9734b4",
        "to": "0x270e88f8683660553e8ba4eb2ad7c91a1710d769",
        "gas": "0x16fec",
        "value": "0x0",
        "input": "0xe4849b32000000000000000000000000000000000000000000000026cec46510f536a020",
        "nonce": "0x854",
        "chainId": "0xaa36a7"
      },
      "additionalContracts": [],
      "isFixedGasLimit": false
    }
  ],
  "receipts": [
    {
      "status": "0x1",
      "cumulativeGasUsed": "0xab3ae3",
      "logs": [
        {
          "address": "0x270e88f8683660553e8ba4eb2ad7c91a1710d769",
          "topics": [
            "0xddf252ad1be2c89b69c2b068fc378daa952ba7f163c4a11628f55a4df523b3ef",
            "0x000000000000000000000000c77f7fed3b5cc8249adc428c5f44c9063b9734b4",
            "0x0000000000000000000000000000000000000000000000000000000000000000"
          ],
          "data": "0x000000000000000000000000000000000000000000000026cec46510f536a020",
          "blockHash": "0xb4ef01d2063751ef109dbd7ee4682d33d83c79d68a53923de675ac12ac5f5917",
          "blockNumber": "0x7255a7",
          "transactionHash": "0x51fbe9c9b51e39b45b565349330c8c9b037467b5814da4d62551bd0b44daabc2",
          "transactionIndex": "0x54",
          "logIndex": "0xab",
          "removed": false
        },
        {
          "address": "0x270e88f8683660553e8ba4eb2ad7c91a1710d769",
          "topics": [
            "0x4afcb4a87cdbd9974efdb92ee48bc8d7cd0ae4bf217004db3d080cbaee652ca7"
          ],
          "data": "0x000000000000000000000000000000000000000000000000000000006786f5dc0000000000000000000000000000000000000000000000000004edde5bfe6fac0000000000000000000000000000000000000000000000000dc826008e03b582",
          "blockHash": "0xb4ef01d2063751ef109dbd7ee4682d33d83c79d68a53923de675ac12ac5f5917",
          "blockNumber": "0x7255a7",
          "transactionHash": "0x51fbe9c9b51e39b45b565349330c8c9b037467b5814da4d62551bd0b44daabc2",
          "transactionIndex": "0x54",
          "logIndex": "0xac",
          "removed": false
        }
      ],
      "logsBloom": "0x00000000000000000000000000000000000000000000000000000000000000000000000000000000000000000000000020000000000000004000000000000000000000000000000000000008000000000000000000000000000000000000000000000000020000000000000000000800020000000000000000000010000000000000000000010000000000000000000000000000000000000000010000000000000000000000000000000000000000004000000000000000000000000000000000000002000000800000000000000000000000000000080000008000000020000000000000000000000000000000000000000000000000000000000000000000",
      "type": "0x2",
      "transactionHash": "0x51fbe9c9b51e39b45b565349330c8c9b037467b5814da4d62551bd0b44daabc2",
      "transactionIndex": "0x54",
      "blockHash": "0xb4ef01d2063751ef109dbd7ee4682d33d83c79d68a53923de675ac12ac5f5917",
      "blockNumber": "0x7255a7",
      "gasUsed": "0xfb93",
      "effectiveGasPrice": "0x6207a899",
      "from": "0xc77f7fed3b5cc8249adc428c5f44c9063b9734b4",
      "to": "0x270e88f8683660553e8ba4eb2ad7c91a1710d769",
      "contractAddress": null
    }
  ],
  "libraries": [],
  "pending": [],
  "returns": {},
  "timestamp": 1736898014,
  "chain": 11155111,
  "commit": "51a374b"
}