{
  "transactions": [
    {
      "hash": "0xa06fbc85183995a9bdd1ee53ae0acbad27c266c27b609dae9b796e616b8a27a8",
      "transactionType": "CALL",
      "contractName": null,
      "contractAddress": "0x8aafd3ede9adb0ff97c7aebce82a919afb1c8764",
      "function": "sell(uint256)",
      "arguments": [
        "186789882"
      ],
      "transaction": {
        "from": "0xc77f7fed3b5cc8249adc428c5f44c9063b9734b4",
        "to": "0x8aafd3ede9adb0ff97c7aebce82a919afb1c8764",
        "gas": "0x14e6c",
        "value": "0x0",
        "input": "0xe4849b32000000000000000000000000000000000000000000000000000000000b222ffa",
        "nonce": "0x1065",
        "chainId": "0xaa36a7"
      },
      "additionalContracts": [],
      "isFixedGasLimit": false
    }
  ],
  "receipts": [
    {
      "status": "0x1",
      "cumulativeGasUsed": "0xadf0f8",
      "logs": [
        {
          "address": "0x8aafd3ede9adb0ff97c7aebce82a919afb1c8764",
          "topics": [
            "0xddf252ad1be2c89b69c2b068fc378daa952ba7f163c4a11628f55a4df523b3ef",
            "0x000000000000000000000000c77f7fed3b5cc8249adc428c5f44c9063b9734b4",
            "0x0000000000000000000000000000000000000000000000000000000000000000"
          ],
          "data": "0x000000000000000000000000000000000000000000000000000000000b0b62cb",
          "blockHash": "0x911a0c8ac92524830a0fc34c314f3dc88b04bc23b0cbaf60b83feeee51b71e12",
          "blockNumber": "0x7316eb",
          "transactionHash": "0xa06fbc85183995a9bdd1ee53ae0acbad27c266c27b609dae9b796e616b8a27a8",
          "transactionIndex": "0x6c",
          "logIndex": "0xa1",
          "removed": false
        },
        {
          "address": "0x8aafd3ede9adb0ff97c7aebce82a919afb1c8764",
          "topics": [
            "0xddf252ad1be2c89b69c2b068fc378daa952ba7f163c4a11628f55a4df523b3ef",
            "0x000000000000000000000000c77f7fed3b5cc8249adc428c5f44c9063b9734b4",
            "0x000000000000000000000000c77f7fed3b5cc8249adc428c5f44c9063b9734b4"
          ],
          "data": "0x000000000000000000000000000000000000000000000000000000000016cd2f",
          "blockHash": "0x911a0c8ac92524830a0fc34c314f3dc88b04bc23b0cbaf60b83feeee51b71e12",
          "blockNumber": "0x7316eb",
          "transactionHash": "0xa06fbc85183995a9bdd1ee53ae0acbad27c266c27b609dae9b796e616b8a27a8",
          "transactionIndex": "0x6c",
          "logIndex": "0xa2",
          "removed": false
        },
        {
          "address": "0x8aafd3ede9adb0ff97c7aebce82a919afb1c8764",
          "topics": [
            "0x4afcb4a87cdbd9974efdb92ee48bc8d7cd0ae4bf217004db3d080cbaee652ca7"
          ],
          "data": "0x0000000000000000000000000000000000000000000000000000000067900fbc0000000000000000000000000000000000000000000000000004f4ebcbd3aec7000000000000000000000000000000000000000000000000000000000003fa00",
          "blockHash": "0x911a0c8ac92524830a0fc34c314f3dc88b04bc23b0cbaf60b83feeee51b71e12",
          "blockNumber": "0x7316eb",
          "transactionHash": "0xa06fbc85183995a9bdd1ee53ae0acbad27c266c27b609dae9b796e616b8a27a8",
          "transactionIndex": "0x6c",
          "logIndex": "0xa3",
          "removed": false
        }
      ],
      "logsBloom": "0x00000000000000000000000000000000000000000600000000000000000000000000000000000000000000000000000000000000000000004000000000000000000000000000004000000008000000000000000000000000000000000000000000000000020000000000000000000800020000000000000000000010000000000000000000000000000000000000000000000000000000000000010000000000000000000000000000000000000000004000000000000000000000000000000000000002000000800000000000000000000000000000080000000000000020000000000000000000000000000000000000000000000000000000000000000000",
      "type": "0x2",
      "transactionHash": "0xa06fbc85183995a9bdd1ee53ae0acbad27c266c27b609dae9b796e616b8a27a8",
      "transactionIndex": "0x6c",
      "blockHash": "0x911a0c8ac92524830a0fc34c314f3dc88b04bc23b0cbaf60b83feeee51b71e12",
      "blockNumber": "0x7316eb",
      "gasUsed": "0xf21f",
      "effectiveGasPrice": "0x3f82058a",
      "from": "0xc77f7fed3b5cc8249adc428c5f44c9063b9734b4",
      "to": "0x8aafd3ede9adb0ff97c7aebce82a919afb1c8764",
      "contractAddress": null
    }
  ],
  "libraries": [],
  "pending": [],
  "returns": {},
  "timestamp": 1737494461,
  "chain": 11155111,
  "commit": "1d2fb70"
}