{
  "transactions": [
    {
      "hash": "0xe67cb0f723fe0426b60950fddd89f4b3803d37624780cb93a86a3316f2cd4ab2",
      "transactionType": "CALL",
      "contractName": null,
      "contractAddress": "0xbf4a322f1496e5c3d34a9bcdb4c60567b38c7de2",
      "function": "buy(address)",
      "arguments": [
        "0xC77f7fed3b5Cc8249aDc428c5F44C9063B9734b4"
      ],
      "transaction": {
        "from": "0xc77f7fed3b5cc8249adc428c5f44c9063b9734b4",
        "to": "0xbf4a322f1496e5c3d34a9bcdb4c60567b38c7de2",
        "gas": "0x1b309",
        "value": "0xde0b6b3a7640000",
        "input": "0xf088d547000000000000000000000000c77f7fed3b5cc8249adc428c5f44c9063b9734b4",
        "nonce": "0x954",
        "chainId": "0xaa36a7"
      },
      "additionalContracts": [],
      "isFixedGasLimit": false
    }
  ],
  "receipts": [
    {
      "status": "0x1",
      "cumulativeGasUsed": "0xd7b9cf",
      "logs": [
        {
          "address": "0xbf4a322f1496e5c3d34a9bcdb4c60567b38c7de2",
          "topics": [
            "0xddf252ad1be2c89b69c2b068fc378daa952ba7f163c4a11628f55a4df523b3ef",
            "0x0000000000000000000000000000000000000000000000000000000000000000",
            "0x000000000000000000000000c77f7fed3b5cc8249adc428c5f44c9063b9734b4"
          ],
          "data": "0x0000000000000000000000000000000000000000000000357bb6e3f7e398649b",
          "blockHash": "0x3ff15191030114da0f64091b4890abe5de96ffe4ffc1ca3144defb7c8808f0eb",
          "blockNumber": "0x7258e4",
          "transactionHash": "0xe67cb0f723fe0426b60950fddd89f4b3803d37624780cb93a86a3316f2cd4ab2",
          "transactionIndex": "0x46",
          "logIndex": "0x6f",
          "removed": false
        },
        {
          "address": "0xbf4a322f1496e5c3d34a9bcdb4c60567b38c7de2",
          "topics": [
            "0xddf252ad1be2c89b69c2b068fc378daa952ba7f163c4a11628f55a4df523b3ef",
            "0x0000000000000000000000000000000000000000000000000000000000000000",
            "0x000000000000000000000000c77f7fed3b5cc8249adc428c5f44c9063b9734b4"
          ],
          "data": "0x00000000000000000000000000000000000000000000000029881550f5cbac68",
          "blockHash": "0x3ff15191030114da0f64091b4890abe5de96ffe4ffc1ca3144defb7c8808f0eb",
          "blockNumber": "0x7258e4",
          "transactionHash": "0xe67cb0f723fe0426b60950fddd89f4b3803d37624780cb93a86a3316f2cd4ab2",
          "transactionIndex": "0x46",
          "logIndex": "0x70",
          "removed": false
        },
        {
          "address": "0xbf4a322f1496e5c3d34a9bcdb4c60567b38c7de2",
          "topics": [
            "0x4afcb4a87cdbd9974efdb92ee48bc8d7cd0ae4bf217004db3d080cbaee652ca7"
          ],
          "data": "0x0000000000000000000000000000000000000000000000000000000067871cdc000000000000000000000000000000000000000000000000000390a53e1cc7600000000000000000000000000000000000000000000000000de0b6b3a7640000",
          "blockHash": "0x3ff15191030114da0f64091b4890abe5de96ffe4ffc1ca3144defb7c8808f0eb",
          "blockNumber": "0x7258e4",
          "transactionHash": "0xe67cb0f723fe0426b60950fddd89f4b3803d37624780cb93a86a3316f2cd4ab2",
          "transactionIndex": "0x46",
          "logIndex": "0x71",
          "removed": false
        }
      ],
      "logsBloom": "0x00000000000000000000000000000000000000000000000000000000000000000000000000000000000000000000000000000000000000004000000000000000000000000000000000000008000000000000001000000000000000000000000000000000020000000000000000000800020000000000000000000010000000000000000000000000000000000000000000000000000008000000010000000000000000000000000000000000000000004000000000000000000000000000000000000002000000800000000000001000000000000000080000000000000020000000000000000000000000000000000000000000000000000000000000000000",
      "type": "0x2",
      "transactionHash": "0xe67cb0f723fe0426b60950fddd89f4b3803d37624780cb93a86a3316f2cd4ab2",
      "transactionIndex": "0x46",
      "blockHash": "0x3ff15191030114da0f64091b4890abe5de96ffe4ffc1ca3144defb7c8808f0eb",
      "blockNumber": "0x7258e4",
      "gasUsed": "0x13af6",
      "effectiveGasPrice": "0x74f937ef",
      "from": "0xc77f7fed3b5cc8249adc428c5f44c9063b9734b4",
      "to": "0xbf4a322f1496e5c3d34a9bcdb4c60567b38c7de2",
      "contractAddress": null
    }
  ],
  "libraries": [],
  "pending": [],
  "returns": {},
  "timestamp": 1736907998,
  "chain": 11155111,
  "commit": "51a374b"
}