{
  "transactions": [
    {
      "hash": "0x17928773415d32cae49e642b27f98affdbd5e9bead3cd0863c8e1de847245ab7",
      "transactionType": "CALL",
      "contractName": null,
      "contractAddress": "0x8aafd3ede9adb0ff97c7aebce82a919afb1c8764",
      "function": "sell(uint256)",
      "arguments": [
        "1380965548528083491"
      ],
      "transaction": {
        "from": "0xc77f7fed3b5cc8249adc428c5f44c9063b9734b4",
        "to": "0x8aafd3ede9adb0ff97c7aebce82a919afb1c8764",
        "gas": "0x15dca",
        "value": "0x0",
        "input": "0xe4849b32000000000000000000000000000000000000000000000000132a2cd98711a223",
        "nonce": "0x1629",
        "chainId": "0xaa36a7"
      },
      "additionalContracts": [],
      "isFixedGasLimit": false
    }
  ],
  "receipts": [
    {
      "status": "0x1",
      "cumulativeGasUsed": "0x111c089",
      "logs": [
        {
          "address": "0x8aafd3ede9adb0ff97c7aebce82a919afb1c8764",
          "topics": [
            "0xddf252ad1be2c89b69c2b068fc378daa952ba7f163c4a11628f55a4df523b3ef",
            "0x000000000000000000000000c77f7fed3b5cc8249adc428c5f44c9063b9734b4",
            "0x0000000000000000000000000000000000000000000000000000000000000000"
          ],
          "data": "0x0000000000000000000000000000000000000000000000001302ed00bf551388",
          "blockHash": "0x464409f127027ad7fe399ffc7e6ac9e28dbe065fb2b552834b4eb26d3d94a82a",
          "blockNumber": "0x731dbf",
          "transactionHash": "0x17928773415d32cae49e642b27f98affdbd5e9bead3cd0863c8e1de847245ab7",
          "transactionIndex": "0x91",
          "logIndex": "0xf3",
          "removed": false
        },
        {
          "address": "0x8aafd3ede9adb0ff97c7aebce82a919afb1c8764",
          "topics": [
            "0xddf252ad1be2c89b69c2b068fc378daa952ba7f163c4a11628f55a4df523b3ef",
            "0x000000000000000000000000c77f7fed3b5cc8249adc428c5f44c9063b9734b4",
            "0x000000000000000000000000c77f7fed3b5cc8249adc428c5f44c9063b9734b4"
          ],
          "data": "0x00000000000000000000000000000000000000000000000000273fd8c7bc8e9b",
          "blockHash": "0x464409f127027ad7fe399ffc7e6ac9e28dbe065fb2b552834b4eb26d3d94a82a",
          "blockNumber": "0x731dbf",
          "transactionHash": "0x17928773415d32cae49e642b27f98affdbd5e9bead3cd0863c8e1de847245ab7",
          "transactionIndex": "0x91",
          "logIndex": "0xf4",
          "removed": false
        },
        {
          "address": "0x8aafd3ede9adb0ff97c7aebce82a919afb1c8764",
          "topics": [
            "0x4afcb4a87cdbd9974efdb92ee48bc8d7cd0ae4bf217004db3d080cbaee652ca7"
          ],
          "data": "0x00000000000000000000000000000000000000000000000000000000679061dc00000000000000000000000000000000000000000000000000148aab67cd938b000000000000000000000000000000000000000000000000001c5dd20e94b1a3",
          "blockHash": "0x464409f127027ad7fe399ffc7e6ac9e28dbe065fb2b552834b4eb26d3d94a82a",
          "blockNumber": "0x731dbf",
          "transactionHash": "0x17928773415d32cae49e642b27f98affdbd5e9bead3cd0863c8e1de847245ab7",
          "transactionIndex": "0x91",
          "logIndex": "0xf5",
          "removed": false
        }
      ],
      "logsBloom": "0x00000000000000000000000000000000000000000600000000000000000000000000000000000000000000000000000000000000000000004000000000000000000000000000004000000008000000000000000000000000000000000000000000000000020000000000000000000800020000000000000000000010000000000000000000000000000000000000000000000000000000000000010000000000000000000000000000000000000000004000000000000000000000000000000000000002000000800000000000000000000000000000080000000000000020000000000000000000000000000000000000000000000000000000000000000000",
      "type": "0x2",
      "transactionHash": "0x17928773415d32cae49e642b27f98affdbd5e9bead3cd0863c8e1de847245ab7",
      "transactionIndex": "0x91",
      "blockHash": "0x464409f127027ad7fe399ffc7e6ac9e28dbe065fb2b552834b4eb26d3d94a82a",
      "blockNumber": "0x731dbf",
      "gasUsed": "0xfd3f",
      "effectiveGasPrice": "0x5eea0380",
      "from": "0xc77f7fed3b5cc8249adc428c5f44c9063b9734b4",
      "to": "0x8aafd3ede9adb0ff97c7aebce82a919afb1c8764",
      "contractAddress": null
    }
  ],
  "libraries": [],
  "pending": [],
  "returns": {},
  "timestamp": 1737515485,
  "chain": 11155111,
  "commit": "1d2fb70"
}