{
  "transactions": [
    {
      "hash": "0x85944799da793c29daf6e05ee9af46cbad42b4ebfb133629b0470cd8d08cbc41",
      "transactionType": "CALL",
      "contractName": null,
      "contractAddress": "0x270e88f8683660553e8ba4eb2ad7c91a1710d769",
      "function": "sell(uint256)",
      "arguments": [
        "730809973111681496123"
      ],
      "transaction": {
        "from": "0xc77f7fed3b5cc8249adc428c5f44c9063b9734b4",
        "to": "0x270e88f8683660553e8ba4eb2ad7c91a1710d769",
        "gas": "0x16fec",
        "value": "0x0",
        "input": "0xe4849b320000000000000000000000000000000000000000000000279e06968c428cb43b",
        "nonce": "0x7a4",
        "chainId": "0xaa36a7"
      },
      "additionalContracts": [],
      "isFixedGasLimit": false
    }
  ],
  "receipts": [
    {
      "status": "0x1",
      "cumulativeGasUsed": "0x123580a",
      "logs": [
        {
          "address": "0x270e88f8683660553e8ba4eb2ad7c91a1710d769",
          "topics": [
            "0xddf252ad1be2c89b69c2b068fc378daa952ba7f163c4a11628f55a4df523b3ef",
            "0x000000000000000000000000c77f7fed3b5cc8249adc428c5f44c9063b9734b4",
            "0x0000000000000000000000000000000000000000000000000000000000000000"
          ],
          "data": "0x0000000000000000000000000000000000000000000000279e06968c428cb43b",
          "blockHash": "0x30bfb8e97357e7152e3f0c559316b7dec5bc4136dad99f90df5e1b055460ba10",
          "blockNumber": "0x7254d8",
          "transactionHash": "0x85944799da793c29daf6e05ee9af46cbad42b4ebfb133629b0470cd8d08cbc41",
          "transactionIndex": "0x4f",
          "logIndex": "0x94",
          "removed": false
        },
        {
          "address": "0x270e88f8683660553e8ba4eb2ad7c91a1710d769",
          "topics": [
            "0x4afcb4a87cdbd9974efdb92ee48bc8d7cd0ae4bf217004db3d080cbaee652ca7"
          ],
          "data": "0x000000000000000000000000000000000000000000000000000000006786ec280000000000000000000000000000000000000000000000000004d416659d23dc0000000000000000000000000000000000000000000000000dc8278c740fe18d",
          "blockHash": "0x30bfb8e97357e7152e3f0c559316b7dec5bc4136dad99f90df5e1b055460ba10",
          "blockNumber": "0x7254d8",
          "transactionHash": "0x85944799da793c29daf6e05ee9af46cbad42b4ebfb133629b0470cd8d08cbc41",
          "transactionIndex": "0x4f",
          "logIndex": "0x95",
          "removed": false
        }
      ],
      "logsBloom": "0x00000000000000000000000000000000000000000000000000000000000000000000000000000000000000000000000020000000000000004000000000000000000000000000000000000008000000000000000000000000000000000000000000000000020000000000000000000800020000000000000000000010000000000000000000010000000000000000000000000000000000000000010000000000000000000000000000000000000000004000000000000000000000000000000000000002000000800000000000000000000000000000080000008000000020000000000000000000000000000000000000000000000000000000000000000000",
      "type": "0x2",
      "transactionHash": "0x85944799da793c29daf6e05ee9af46cbad42b4ebfb133629b0470cd8d08cbc41",
      "transactionIndex": "0x4f",
      "blockHash": "0x30bfb8e97357e7152e3f0c559316b7dec5bc4136dad99f90df5e1b055460ba10",
      "blockNumber": "0x7254d8",
      "gasUsed": "0xfb93",
      "effectiveGasPrice": "0xd81066e0",
      "from": "0xc77f7fed3b5cc8249adc428c5f44c9063b9734b4",
      "to": "0x270e88f8683660553e8ba4eb2ad7c91a1710d769",
      "contractAddress": null
    }
  ],
  "libraries": [],
  "pending": [],
  "returns": {},
  "timestamp": 1736895530,
  "chain": 11155111,
  "commit": "51a374b"
}