{
  "transactions": [
    {
      "hash": "0xf7cbcfa44051876f541917e7594ef1068616498a673b0ad5b9b5755048569300",
      "transactionType": "CALL",
      "contractName": null,
      "contractAddress": "0x06ed874214fd056633a9fac8d7274264b6c15db6",
      "function": "borrow(uint256,uint256)",
      "arguments": [
        "118064685331552808",
        "0"
      ],
      "transaction": {
        "from": "0xc77f7fed3b5cc8249adc428c5f44c9063b9734b4",
        "to": "0x06ed874214fd056633a9fac8d7274264b6c15db6",
        "gas": "0x242fb",
        "value": "0x0",
        "input": "0x0ecbcdab00000000000000000000000000000000000000000000000001a37334adb49a280000000000000000000000000000000000000000000000000000000000000000",
        "nonce": "0x18b8",
        "chainId": "0xaa36a7"
      },
      "additionalContracts": [],
      "isFixedGasLimit": false
    }
  ],
  "receipts": [
    {
      "status": "0x1",
      "cumulativeGasUsed": "0xdb0939",
      "logs": [
        {
          "address": "0x06ed874214fd056633a9fac8d7274264b6c15db6",
          "topics": [
            "0xddf252ad1be2c89b69c2b068fc378daa952ba7f163c4a11628f55a4df523b3ef",
            "0x000000000000000000000000c77f7fed3b5cc8249adc428c5f44c9063b9734b4",
            "0x00000000000000000000000006ed874214fd056633a9fac8d7274264b6c15db6"
          ],
          "data": "0x0000000000000000000000000000000000000000000000000162ea854d0fbfe3",
          "blockHash": "0xea17af4806560124fb70686d1d933d8dfa35b8d4291c9f91e0ea75491068e3d0",
          "blockNumber": "0x7383b1",
          "transactionHash": "0xf7cbcfa44051876f541917e7594ef1068616498a673b0ad5b9b5755048569300",
          "transactionIndex": "0x6d",
          "logIndex": "0xc9",
          "removed": false
        },
        {
          "address": "0x06ed874214fd056633a9fac8d7274264b6c15db6",
          "topics": [
            "0xddf252ad1be2c89b69c2b068fc378daa952ba7f163c4a11628f55a4df523b3ef",
            "0x00000000000000000000000006ed874214fd056633a9fac8d7274264b6c15db6",
            "0x000000000000000000000000c77f7fed3b5cc8249adc428c5f44c9063b9734b4"
          ],
          "data": "0x000000000000000000000000000000000000000000000000000aa5c170644fed",
          "blockHash": "0xea17af4806560124fb70686d1d933d8dfa35b8d4291c9f91e0ea75491068e3d0",
          "blockNumber": "0x7383b1",
          "transactionHash": "0xf7cbcfa44051876f541917e7594ef1068616498a673b0ad5b9b5755048569300",
          "transactionIndex": "0x6d",
          "logIndex": "0xca",
          "removed": false
        },
        {
          "address": "0x06ed874214fd056633a9fac8d7274264b6c15db6",
          "topics": [
            "0xddf252ad1be2c89b69c2b068fc378daa952ba7f163c4a11628f55a4df523b3ef",
            "0x00000000000000000000000006ed874214fd056633a9fac8d7274264b6c15db6",
            "0x0000000000000000000000000000000000000000000000000000000000000000"
          ],
          "data": "0x0000000000000000000000000000000000000000000000000018d818b0ea0fd5",
          "blockHash": "0xea17af4806560124fb70686d1d933d8dfa35b8d4291c9f91e0ea75491068e3d0",
          "blockNumber": "0x7383b1",
          "transactionHash": "0xf7cbcfa44051876f541917e7594ef1068616498a673b0ad5b9b5755048569300",
          "transactionIndex": "0x6d",
          "logIndex": "0xcb",
          "removed": false
        },
        {
          "address": "0x06ed874214fd056633a9fac8d7274264b6c15db6",
          "topics": [
            "0x03bbe564cb1b78e43195eeadbde99e5b89b19345862807fcfb59f884e4165e25"
          ],
          "data": "0x000000000000000000000000c77f7fed3b5cc8249adc428c5f44c9063b9734b4000000000000000000000000000000000000000000000000019ece3408e06f03",
          "blockHash": "0xea17af4806560124fb70686d1d933d8dfa35b8d4291c9f91e0ea75491068e3d0",
          "blockNumber": "0x7383b1",
          "transactionHash": "0xf7cbcfa44051876f541917e7594ef1068616498a673b0ad5b9b5755048569300",
          "transactionIndex": "0x6d",
          "logIndex": "0xcc",
          "removed": false
        },
        {
          "address": "0x06ed874214fd056633a9fac8d7274264b6c15db6",
          "topics": [
            "0xaec00f5213a37254bc68a26b0685d1a5b2bf513e1e587c94c7df7f4a62b56c9c"
          ],
          "data": "0x0000000000000000000000000000000000000000000000000000000000000000000000000000000000000000000000000000000000000000000000000000000000000000000000000000000000000000000000000000000000000000000000000000000000000000000000000000000000000000000000000000000000000000",
          "blockHash": "0xea17af4806560124fb70686d1d933d8dfa35b8d4291c9f91e0ea75491068e3d0",
          "blockNumber": "0x7383b1",
          "transactionHash": "0xf7cbcfa44051876f541917e7594ef1068616498a673b0ad5b9b5755048569300",
          "transactionIndex": "0x6d",
          "logIndex": "0xcd",
          "removed": false
        },
        {
          "address": "0x06ed874214fd056633a9fac8d7274264b6c15db6",
          "topics": [
            "0xaec00f5213a37254bc68a26b0685d1a5b2bf513e1e587c94c7df7f4a62b56c9c"
          ],
          "data": "0x0000000000000000000000000000000000000000000000008be308bd45e863ff00000000000000000000000000000000000000000000000001c1f132622b76fa00000000000000000000000000000000000000000000000001c1f132622b76fa0000000000000000000000000000000000000000000000008be308bd45e863ff",
          "blockHash": "0xea17af4806560124fb70686d1d933d8dfa35b8d4291c9f91e0ea75491068e3d0",
          "blockNumber": "0x7383b1",
          "transactionHash": "0xf7cbcfa44051876f541917e7594ef1068616498a673b0ad5b9b5755048569300",
          "transactionIndex": "0x6d",
          "logIndex": "0xce",
          "removed": false
        },
        {
          "address": "0x06ed874214fd056633a9fac8d7274264b6c15db6",
          "topics": [
            "0x4afcb4a87cdbd9974efdb92ee48bc8d7cd0ae4bf217004db3d080cbaee652ca7"
          ],
          "data": "0x0000000000000000000000000000000000000000000000000000000067955538000000000000000000000000000000000000000000000000002d85d0e40ed2a20000000000000000000000000000000000000000000000000000745fcb86e960",
          "blockHash": "0xea17af4806560124fb70686d1d933d8dfa35b8d4291c9f91e0ea75491068e3d0",
          "blockNumber": "0x7383b1",
          "transactionHash": "0xf7cbcfa44051876f541917e7594ef1068616498a673b0ad5b9b5755048569300",
          "transactionIndex": "0x6d",
          "logIndex": "0xcf",
          "removed": false
        }
      ],
      "logsBloom": "0x00000000000000000000000000000100400000000000000000000000000000000008000100000000000000000000000000002000000000004000000000000000000000000000000000000008000000000000000000000000000002000800000000000000020000000000000000000800020000000000000000000010000000000000000000000000000000000000000000000000000000000000010000000000000000000000000000000400000000004000000010000000000000001000000000000002000000800000000000000000000000000000080000000000000020000000000000000000000000000000000000000000000000000000000000040020",
      "type": "0x2",
      "transactionHash": "0xf7cbcfa44051876f541917e7594ef1068616498a673b0ad5b9b5755048569300",
      "transactionIndex": "0x6d",
      "blockHash": "0xea17af4806560124fb70686d1d933d8dfa35b8d4291c9f91e0ea75491068e3d0",
      "blockNumber": "0x7383b1",
      "gasUsed": "0x1a32d",
      "effectiveGasPrice": "0x4c327498",
      "from": "0xc77f7fed3b5cc8249adc428c5f44c9063b9734b4",
      "to": "0x06ed874214fd056633a9fac8d7274264b6c15db6",
      "contractAddress": null
    }
  ],
  "libraries": [],
  "pending": [],
  "returns": {},
  "timestamp": 1737839929,
  "chain": 11155111,
  "commit": "f5162e9"
}