{
  "transactions": [
    {
      "hash": "0xda5915919c5088e2b382e26f00edc7c2e4d66a6a96bbd0c9bf96dbdbee400bb0",
      "transactionType": "CALL",
      "contractName": null,
      "contractAddress": "0x270e88f8683660553e8ba4eb2ad7c91a1710d769",
      "function": "sell(uint256)",
      "arguments": [
        "753309265159745336626"
      ],
      "transaction": {
        "from": "0xc77f7fed3b5cc8249adc428c5f44c9063b9734b4",
        "to": "0x270e88f8683660553e8ba4eb2ad7c91a1710d769",
        "gas": "0x16fec",
        "value": "0x0",
        "input": "0xe4849b32000000000000000000000000000000000000000000000028d6442175912a7532",
        "nonce": "0x6a8",
        "chainId": "0xaa36a7"
      },
      "additionalContracts": [],
      "isFixedGasLimit": false
    }
  ],
  "receipts": [
    {
      "status": "0x1",
      "cumulativeGasUsed": "0x6f34c6",
      "logs": [
        {
          "address": "0x270e88f8683660553e8ba4eb2ad7c91a1710d769",
          "topics": [
            "0xddf252ad1be2c89b69c2b068fc378daa952ba7f163c4a11628f55a4df523b3ef",
            "0x000000000000000000000000c77f7fed3b5cc8249adc428c5f44c9063b9734b4",
            "0x0000000000000000000000000000000000000000000000000000000000000000"
          ],
          "data": "0x000000000000000000000000000000000000000000000028d6442175912a7532",
          "blockHash": "0x832292d61d54312e15e69b5edcbb67b13fcaf2b8bdba183b19311c9328c319f3",
          "blockNumber": "0x7253ae",
          "transactionHash": "0xda5915919c5088e2b382e26f00edc7c2e4d66a6a96bbd0c9bf96dbdbee400bb0",
          "transactionIndex": "0x40",
          "logIndex": "0x7c",
          "removed": false
        },
        {
          "address": "0x270e88f8683660553e8ba4eb2ad7c91a1710d769",
          "topics": [
            "0x4afcb4a87cdbd9974efdb92ee48bc8d7cd0ae4bf217004db3d080cbaee652ca7"
          ],
          "data": "0x000000000000000000000000000000000000000000000000000000006786de300000000000000000000000000000000000000000000000000004af2d79c512c30000000000000000000000000000000000000000000000000dc829e084745d74",
          "blockHash": "0x832292d61d54312e15e69b5edcbb67b13fcaf2b8bdba183b19311c9328c319f3",
          "blockNumber": "0x7253ae",
          "transactionHash": "0xda5915919c5088e2b382e26f00edc7c2e4d66a6a96bbd0c9bf96dbdbee400bb0",
          "transactionIndex": "0x40",
          "logIndex": "0x7d",
          "removed": false
        }
      ],
      "logsBloom": "0x00000000000000000000000000000000000000000000000000000000000000000000000000000000000000000000000020000000000000004000000000000000000000000000000000000008000000000000000000000000000000000000000000000000020000000000000000000800020000000000000000000010000000000000000000010000000000000000000000000000000000000000010000000000000000000000000000000000000000004000000000000000000000000000000000000002000000800000000000000000000000000000080000008000000020000000000000000000000000000000000000000000000000000000000000000000",
      "type": "0x2",
      "transactionHash": "0xda5915919c5088e2b382e26f00edc7c2e4d66a6a96bbd0c9bf96dbdbee400bb0",
      "transactionIndex": "0x40",
      "blockHash": "0x832292d61d54312e15e69b5edcbb67b13fcaf2b8bdba183b19311c9328c319f3",
      "blockNumber": "0x7253ae",
      "gasUsed": "0xfb93",
      "effectiveGasPrice": "0x1b472f25b",
      "from": "0xc77f7fed3b5cc8249adc428c5f44c9063b9734b4",
      "to": "0x270e88f8683660553e8ba4eb2ad7c91a1710d769",
      "contractAddress": null
    }
  ],
  "libraries": [],
  "pending": [],
  "returns": {},
  "timestamp": 1736891953,
  "chain": 11155111,
  "commit": "51a374b"
}