{
  "transactions": [
    {
      "hash": "0xf59815b60f3186fbe0648d0ebfd51ebb9924e2aaa9d6ee4486cca4a762832b60",
      "transactionType": "CALL",
      "contractName": null,
      "contractAddress": "0x270e88f8683660553e8ba4eb2ad7c91a1710d769",
      "function": "buy(address)",
      "arguments": [
        "0xC77f7fed3b5Cc8249aDc428c5F44C9063B9734b4"
      ],
      "transaction": {
        "from": "0xc77f7fed3b5cc8249adc428c5f44c9063b9734b4",
        "to": "0x270e88f8683660553e8ba4eb2ad7c91a1710d769",
        "gas": "0x1b30c",
        "value": "0xde0b6b3a7640000",
        "input": "0xf088d547000000000000000000000000c77f7fed3b5cc8249adc428c5f44c9063b9734b4",
        "nonce": "0x5b6",
        "chainId": "0xaa36a7"
      },
      "additionalContracts": [],
      "isFixedGasLimit": false
    }
  ],
  "receipts": [
    {
      "status": "0x1",
      "cumulativeGasUsed": "0xc993f7",
      "logs": [
        {
          "address": "0x270e88f8683660553e8ba4eb2ad7c91a1710d769",
          "topics": [
            "0xddf252ad1be2c89b69c2b068fc378daa952ba7f163c4a11628f55a4df523b3ef",
            "0x0000000000000000000000000000000000000000000000000000000000000000",
            "0x000000000000000000000000c77f7fed3b5cc8249adc428c5f44c9063b9734b4"
          ],
          "data": "0x000000000000000000000000000000000000000000000033c9220159e0945dc8",
          "blockHash": "0xd4d05d1672ce7c5b6216b72ed74a41660b04a90d909494a9cc96852f5649fb73",
          "blockNumber": "0x725271",
          "transactionHash": "0xf59815b60f3186fbe0648d0ebfd51ebb9924e2aaa9d6ee4486cca4a762832b60",
          "transactionIndex": "0x60",
          "logIndex": "0xa3",
          "removed": false
        },
        {
          "address": "0x270e88f8683660553e8ba4eb2ad7c91a1710d769",
          "topics": [
            "0xddf252ad1be2c89b69c2b068fc378daa952ba7f163c4a11628f55a4df523b3ef",
            "0x0000000000000000000000000000000000000000000000000000000000000000",
            "0x000000000000000000000000c77f7fed3b5cc8249adc428c5f44c9063b9734b4"
          ],
          "data": "0x00000000000000000000000000000000000000000000000028369da7f31b7f29",
          "blockHash": "0xd4d05d1672ce7c5b6216b72ed74a41660b04a90d909494a9cc96852f5649fb73",
          "blockNumber": "0x725271",
          "transactionHash": "0xf59815b60f3186fbe0648d0ebfd51ebb9924e2aaa9d6ee4486cca4a762832b60",
          "transactionIndex": "0x60",
          "logIndex": "0xa4",
          "removed": false
        },
        {
          "address": "0x270e88f8683660553e8ba4eb2ad7c91a1710d769",
          "topics": [
            "0x4afcb4a87cdbd9974efdb92ee48bc8d7cd0ae4bf217004db3d080cbaee652ca7"
          ],
          "data": "0x000000000000000000000000000000000000000000000000000000006786cf3c0000000000000000000000000000000000000000000000000003aea86ac1a6fa0000000000000000000000000000000000000000000000000de0b6b3a7640000",
          "blockHash": "0xd4d05d1672ce7c5b6216b72ed74a41660b04a90d909494a9cc96852f5649fb73",
          "blockNumber": "0x725271",
          "transactionHash": "0xf59815b60f3186fbe0648d0ebfd51ebb9924e2aaa9d6ee4486cca4a762832b60",
          "transactionIndex": "0x60",
          "logIndex": "0xa5",
          "removed": false
        }
      ],
      "logsBloom": "0x00000000000000000000000000000000000000000000000000000000000000000000000000000000000000000000000020000000000000004000000000000000000000000000000000000008000000000000000000000000000000000000000000000000020000000000000000000800020000000000000000000010000000000000000000010000000000000000000000000000000000000000010000000000000000000000000000000000000000004000000000000000000000000000000000000002000000800000000000000000000000000000080000008000000020000000000000000000000000000000000000000000000000000000000000000000",
      "type": "0x2",
      "transactionHash": "0xf59815b60f3186fbe0648d0ebfd51ebb9924e2aaa9d6ee4486cca4a762832b60",
      "transactionIndex": "0x60",
      "blockHash": "0xd4d05d1672ce7c5b6216b72ed74a41660b04a90d909494a9cc96852f5649fb73",
      "blockNumber": "0x725271",
      "gasUsed": "0x13af8",
      "effectiveGasPrice": "0x41fa31f7d",
      "from": "0xc77f7fed3b5cc8249adc428c5f44c9063b9734b4",
      "to": "0x270e88f8683660553e8ba4eb2ad7c91a1710d769",
      "contractAddress": null
    }
  ],
  "libraries": [],
  "pending": [],
  "returns": {},
  "timestamp": 1736888125,
  "chain": 11155111,
  "commit": "51a374b"
}