{
  "transactions": [
    {
      "hash": "0x029251dba370f515271a012be1946b382bc86f8fe37331b4de2e3d2ca568d3ad",
      "transactionType": "CALL",
      "contractName": null,
      "contractAddress": "0x5eb9cc76c3506942c1c0ead70e877dd5e4f00cb0",
      "function": "sell(uint256)",
      "arguments": [
        "989118484410628522968"
      ],
      "transaction": {
        "from": "0xc77f7fed3b5cc8249adc428c5f44c9063b9734b4",
        "to": "0x5eb9cc76c3506942c1c0ead70e877dd5e4f00cb0",
        "gas": "0x16fec",
        "value": "0x0",
        "input": "0xe4849b320000000000000000000000000000000000000000000000359ec6c4ff444343d8",
        "nonce": "0x38d",
        "chainId": "0xaa36a7"
      },
      "additionalContracts": [],
      "isFixedGasLimit": false
    }
  ],
  "receipts": [
    {
      "status": "0x1",
      "cumulativeGasUsed": "0xe61143",
      "logs": [
        {
          "address": "0x5eb9cc76c3506942c1c0ead70e877dd5e4f00cb0",
          "topics": [
            "0xddf252ad1be2c89b69c2b068fc378daa952ba7f163c4a11628f55a4df523b3ef",
            "0x000000000000000000000000c77f7fed3b5cc8249adc428c5f44c9063b9734b4",
            "0x0000000000000000000000000000000000000000000000000000000000000000"
          ],
          "data": "0x0000000000000000000000000000000000000000000000359ec6c4ff444343d8",
          "blockHash": "0x7044f8ccfffa6d35ce6798cbd2e00ae751ec2c80bc19cabb2281596188fa8d35",
          "blockNumber": "0x724f88",
          "transactionHash": "0x029251dba370f515271a012be1946b382bc86f8fe37331b4de2e3d2ca568d3ad",
          "transactionIndex": "0x4e",
          "logIndex": "0x78",
          "removed": false
        },
        {
          "address": "0x5eb9cc76c3506942c1c0ead70e877dd5e4f00cb0",
          "topics": [
            "0x4afcb4a87cdbd9974efdb92ee48bc8d7cd0ae4bf217004db3d080cbaee652ca7"
          ],
          "data": "0x000000000000000000000000000000000000000000000000000000006786ac14000000000000000000000000000000000000000000000000000391111a9492f90000000000000000000000000000000000000000000000000dc7db13320856c1",
          "blockHash": "0x7044f8ccfffa6d35ce6798cbd2e00ae751ec2c80bc19cabb2281596188fa8d35",
          "blockNumber": "0x724f88",
          "transactionHash": "0x029251dba370f515271a012be1946b382bc86f8fe37331b4de2e3d2ca568d3ad",
          "transactionIndex": "0x4e",
          "logIndex": "0x79",
          "removed": false
        }
      ],
      "logsBloom": "0x00000000000000000000000000000000000000000000000000000000000000000000000000000000000000000000000000000000000000004000000000000000000000000000000000000008000000000000000000000000000000000000000000000000020000000000000004000800020000000000000000000010000000000000000000000000000000000000000000000000000000000000010000000000000000000000000000000000000000004000000000000000000000000000020000000002000000800000008000000000000000000000080000000000000020000000000000000000000000000000000000000000000000000000000000000000",
      "type": "0x2",
      "transactionHash": "0x029251dba370f515271a012be1946b382bc86f8fe37331b4de2e3d2ca568d3ad",
      "transactionIndex": "0x4e",
      "blockHash": "0x7044f8ccfffa6d35ce6798cbd2e00ae751ec2c80bc19cabb2281596188fa8d35",
      "blockNumber": "0x724f88",
      "gasUsed": "0xfb93",
      "effectiveGasPrice": "0x58dadd551",
      "from": "0xc77f7fed3b5cc8249adc428c5f44c9063b9734b4",
      "to": "0x5eb9cc76c3506942c1c0ead70e877dd5e4f00cb0",
      "contractAddress": null
    }
  ],
  "libraries": [],
  "pending": [],
  "returns": {},
  "timestamp": 1736879125,
  "chain": 11155111,
  "commit": "51a374b"
}