{
  "transactions": [
    {
      "hash": "0x66cc3110fd2257bbef077e485b823314134a9fe749b5145fe57731679c8cc999",
      "transactionType": "CALL",
      "contractName": null,
      "contractAddress": "0x5eb9cc76c3506942c1c0ead70e877dd5e4f00cb0",
      "function": "sell(uint256)",
      "arguments": [
        "989112747509281536479"
      ],
      "transaction": {
        "from": "0xc77f7fed3b5cc8249adc428c5f44c9063b9734b4",
        "to": "0x5eb9cc76c3506942c1c0ead70e877dd5e4f00cb0",
        "gas": "0x16fec",
        "value": "0x0",
        "input": "0xe4849b320000000000000000000000000000000000000000000000359eb26350d55d39df",
        "nonce": "0x3b1",
        "chainId": "0xaa36a7"
      },
      "additionalContracts": [],
      "isFixedGasLimit": false
    }
  ],
  "receipts": [
    {
      "status": "0x1",
      "cumulativeGasUsed": "0x9a24d0",
      "logs": [
        {
          "address": "0x5eb9cc76c3506942c1c0ead70e877dd5e4f00cb0",
          "topics": [
            "0xddf252ad1be2c89b69c2b068fc378daa952ba7f163c4a11628f55a4df523b3ef",
            "0x000000000000000000000000c77f7fed3b5cc8249adc428c5f44c9063b9734b4",
            "0x0000000000000000000000000000000000000000000000000000000000000000"
          ],
          "data": "0x0000000000000000000000000000000000000000000000359eb26350d55d39df",
          "blockHash": "0x122fd5be06e066bf723f06f3a7b5335bb856e66d30a8fee63fe948c4adc815bf",
          "blockNumber": "0x724fb0",
          "transactionHash": "0x66cc3110fd2257bbef077e485b823314134a9fe749b5145fe57731679c8cc999",
          "transactionIndex": "0x58",
          "logIndex": "0x70",
          "removed": false
        },
        {
          "address": "0x5eb9cc76c3506942c1c0ead70e877dd5e4f00cb0",
          "topics": [
            "0x4afcb4a87cdbd9974efdb92ee48bc8d7cd0ae4bf217004db3d080cbaee652ca7"
          ],
          "data": "0x000000000000000000000000000000000000000000000000000000006786ae000000000000000000000000000000000000000000000000000003911275a5d9c60000000000000000000000000000000000000000000000000dc7db1331fe217d",
          "blockHash": "0x122fd5be06e066bf723f06f3a7b5335bb856e66d30a8fee63fe948c4adc815bf",
          "blockNumber": "0x724fb0",
          "transactionHash": "0x66cc3110fd2257bbef077e485b823314134a9fe749b5145fe57731679c8cc999",
          "transactionIndex": "0x58",
          "logIndex": "0x71",
          "removed": false
        }
      ],
      "logsBloom": "0x00000000000000000000000000000000000000000000000000000000000000000000000000000000000000000000000000000000000000004000000000000000000000000000000000000008000000000000000000000000000000000000000000000000020000000000000004000800020000000000000000000010000000000000000000000000000000000000000000000000000000000000010000000000000000000000000000000000000000004000000000000000000000000000020000000002000000800000008000000000000000000000080000000000000020000000000000000000000000000000000000000000000000000000000000000000",
      "type": "0x2",
      "transactionHash": "0x66cc3110fd2257bbef077e485b823314134a9fe749b5145fe57731679c8cc999",
      "transactionIndex": "0x58",
      "blockHash": "0x122fd5be06e066bf723f06f3a7b5335bb856e66d30a8fee63fe948c4adc815bf",
      "blockNumber": "0x724fb0",
      "gasUsed": "0xfb93",
      "effectiveGasPrice": "0x498eed837",
      "from": "0xc77f7fed3b5cc8249adc428c5f44c9063b9734b4",
      "to": "0x5eb9cc76c3506942c1c0ead70e877dd5e4f00cb0",
      "contractAddress": null
    }
  ],
  "libraries": [],
  "pending": [],
  "returns": {},
  "timestamp": 1736879617,
  "chain": 11155111,
  "commit": "51a374b"
}