{
  "transactions": [
    {
      "hash": "0x31e587a21b00afa732558359cbb20882dc3508da74ec4e13d6ae8905ebc9ee4b",
      "transactionType": "CALL",
      "contractName": null,
      "contractAddress": "0xbf4a322f1496e5c3d34a9bcdb4c60567b38c7de2",
      "function": "sell(uint256)",
      "arguments": [
        "981384167691175166506"
      ],
      "transaction": {
        "from": "0xc77f7fed3b5cc8249adc428c5f44c9063b9734b4",
        "to": "0xbf4a322f1496e5c3d34a9bcdb4c60567b38c7de2",
        "gas": "0x16fea",
        "value": "0x0",
        "input": "0xe4849b320000000000000000000000000000000000000000000000353370f4eb40e1822a",
        "nonce": "0xbb1",
        "chainId": "0xaa36a7"
      },
      "additionalContracts": [],
      "isFixedGasLimit": false
    }
  ],
  "receipts": [
    {
      "status": "0x1",
      "cumulativeGasUsed": "0xbd42cf",
      "logs": [
        {
          "address": "0xbf4a322f1496e5c3d34a9bcdb4c60567b38c7de2",
          "topics": [
            "0xddf252ad1be2c89b69c2b068fc378daa952ba7f163c4a11628f55a4df523b3ef",
            "0x000000000000000000000000c77f7fed3b5cc8249adc428c5f44c9063b9734b4",
            "0x0000000000000000000000000000000000000000000000000000000000000000"
          ],
          "data": "0x0000000000000000000000000000000000000000000000353370f4eb40e1822a",
          "blockHash": "0xc85d0a009ccdd080536ee7339403dd09ca628f65857926a4be26b4659bbf6d9c",
          "blockNumber": "0x725bcb",
          "transactionHash": "0x31e587a21b00afa732558359cbb20882dc3508da74ec4e13d6ae8905ebc9ee4b",
          "transactionIndex": "0x47",
          "logIndex": "0x88",
          "removed": false
        },
        {
          "address": "0xbf4a322f1496e5c3d34a9bcdb4c60567b38c7de2",
          "topics": [
            "0x4afcb4a87cdbd9974efdb92ee48bc8d7cd0ae4bf217004db3d080cbaee652ca7"
          ],
          "data": "0x0000000000000000000000000000000000000000000000000000000067873fe000000000000000000000000000000000000000000000000000039849a4ecf4360000000000000000000000000000000000000000000000000dc7e3e548d819e6",
          "blockHash": "0xc85d0a009ccdd080536ee7339403dd09ca628f65857926a4be26b4659bbf6d9c",
          "blockNumber": "0x725bcb",
          "transactionHash": "0x31e587a21b00afa732558359cbb20882dc3508da74ec4e13d6ae8905ebc9ee4b",
          "transactionIndex": "0x47",
          "logIndex": "0x89",
          "removed": false
        }
      ],
      "logsBloom": "0x00000000000000000000000000000000000000000000000000000000000000000000000000000000000000000000000000000000000000004000000000000000000000000000000000000008000000000000001000000000000000000000000000000000020000000000000000000800020000000000000000000010000000000000000000000000000000000000000000000000000008000000010000000000000000000000000000000000000000004000000000000000000000000000000000000002000000800000000000001000000000000000080000000000000020000000000000000000000000000000000000000000000000000000000000000000",
      "type": "0x2",
      "transactionHash": "0x31e587a21b00afa732558359cbb20882dc3508da74ec4e13d6ae8905ebc9ee4b",
      "transactionIndex": "0x47",
      "blockHash": "0xc85d0a009ccdd080536ee7339403dd09ca628f65857926a4be26b4659bbf6d9c",
      "blockNumber": "0x725bcb",
      "gasUsed": "0xfb91",
      "effectiveGasPrice": "0x510cf2c6",
      "from": "0xc77f7fed3b5cc8249adc428c5f44c9063b9734b4",
      "to": "0xbf4a322f1496e5c3d34a9bcdb4c60567b38c7de2",
      "contractAddress": null
    }
  ],
  "libraries": [],
  "pending": [],
  "returns": {},
  "timestamp": 1736916960,
  "chain": 11155111,
  "commit": "51a374b"
}