{
  "transactions": [
    {
      "hash": "0xe8eb00377f7c9b409b64cde8d5c2dd0755385d6bf28814a1b41db30cdc1cda5d",
      "transactionType": "CALL",
      "contractName": null,
      "contractAddress": "0x8aafd3ede9adb0ff97c7aebce82a919afb1c8764",
      "function": "sell(uint256)",
      "arguments": [
        "12519"
      ],
      "transaction": {
        "from": "0xc77f7fed3b5cc8249adc428c5f44c9063b9734b4",
        "to": "0x8aafd3ede9adb0ff97c7aebce82a919afb1c8764",
        "gas": "0x14e4c",
        "value": "0x0",
        "input": "0xe4849b3200000000000000000000000000000000000000000000000000000000000030e7",
        "nonce": "0xef4",
        "chainId": "0xaa36a7"
      },
      "additionalContracts": [],
      "isFixedGasLimit": false
    }
  ],
  "receipts": [
    {
      "status": "0x1",
      "cumulativeGasUsed": "0x939dd7",
      "logs": [
        {
          "address": "0x8aafd3ede9adb0ff97c7aebce82a919afb1c8764",
          "topics": [
            "0xddf252ad1be2c89b69c2b068fc378daa952ba7f163c4a11628f55a4df523b3ef",
            "0x000000000000000000000000c77f7fed3b5cc8249adc428c5f44c9063b9734b4",
            "0x0000000000000000000000000000000000000000000000000000000000000000"
          ],
          "data": "0x0000000000000000000000000000000000000000000000000000000000003083",
          "blockHash": "0x1bdeeee1690fef0a84762feea93d6aca427b70fe075ec574256604ebfff09654",
          "blockNumber": "0x73146c",
          "transactionHash": "0xe8eb00377f7c9b409b64cde8d5c2dd0755385d6bf28814a1b41db30cdc1cda5d",
          "transactionIndex": "0x81",
          "logIndex": "0x91",
          "removed": false
        },
        {
          "address": "0x8aafd3ede9adb0ff97c7aebce82a919afb1c8764",
          "topics": [
            "0xddf252ad1be2c89b69c2b068fc378daa952ba7f163c4a11628f55a4df523b3ef",
            "0x000000000000000000000000c77f7fed3b5cc8249adc428c5f44c9063b9734b4",
            "0x000000000000000000000000c77f7fed3b5cc8249adc428c5f44c9063b9734b4"
          ],
          "data": "0x0000000000000000000000000000000000000000000000000000000000000064",
          "blockHash": "0x1bdeeee1690fef0a84762feea93d6aca427b70fe075ec574256604ebfff09654",
          "blockNumber": "0x73146c",
          "transactionHash": "0xe8eb00377f7c9b409b64cde8d5c2dd0755385d6bf28814a1b41db30cdc1cda5d",
          "transactionIndex": "0x81",
          "logIndex": "0x92",
          "removed": false
        },
        {
          "address": "0x8aafd3ede9adb0ff97c7aebce82a919afb1c8764",
          "topics": [
            "0x4afcb4a87cdbd9974efdb92ee48bc8d7cd0ae4bf217004db3d080cbaee652ca7"
          ],
          "data": "0x00000000000000000000000000000000000000000000000000000000678ff1bc0000000000000000000000000000000000000000000000000004bab17c24147c0000000000000000000000000000000000000000000000000000000000000010",
          "blockHash": "0x1bdeeee1690fef0a84762feea93d6aca427b70fe075ec574256604ebfff09654",
          "blockNumber": "0x73146c",
          "transactionHash": "0xe8eb00377f7c9b409b64cde8d5c2dd0755385d6bf28814a1b41db30cdc1cda5d",
          "transactionIndex": "0x81",
          "logIndex": "0x93",
          "removed": false
        }
      ],
      "logsBloom": "0x00000000000000000000000000000000000000000600000000000000000000000000000000000000000000000000000000000000000000004000000000000000000000000000004000000008000000000000000000000000000000000000000000000000020000000000000000000800020000000000000000000010000000000000000000000000000000000000000000000000000000000000010000000000000000000000000000000000000000004000000000000000000000000000000000000002000000800000000000000000000000000000080000000000000020000000000000000000000000000000000000000000000000000000000000000000",
      "type": "0x2",
      "transactionHash": "0xe8eb00377f7c9b409b64cde8d5c2dd0755385d6bf28814a1b41db30cdc1cda5d",
      "transactionIndex": "0x81",
      "blockHash": "0x1bdeeee1690fef0a84762feea93d6aca427b70fe075ec574256604ebfff09654",
      "blockNumber": "0x73146c",
      "gasUsed": "0xf207",
      "effectiveGasPrice": "0xa146a07e",
      "from": "0xc77f7fed3b5cc8249adc428c5f44c9063b9734b4",
      "to": "0x8aafd3ede9adb0ff97c7aebce82a919afb1c8764",
      "contractAddress": null
    }
  ],
  "libraries": [],
  "pending": [],
  "returns": {},
  "timestamp": 1737486782,
  "chain": 11155111,
  "commit": "51a374b"
}