{
  "transactions": [
    {
      "hash": "0x3a98171d8f99d2dca7863e707e89de5f29cf93c909e098512fdb01aafbe87bf9",
      "transactionType": "CALL",
      "contractName": null,
      "contractAddress": "0x8aafd3ede9adb0ff97c7aebce82a919afb1c8764",
      "function": "sell(uint256)",
      "arguments": [
        "44038500109799061"
      ],
      "transaction": {
        "from": "0xc77f7fed3b5cc8249adc428c5f44c9063b9734b4",
        "to": "0x8aafd3ede9adb0ff97c7aebce82a919afb1c8764",
        "gas": "0x1724d",
        "value": "0x0",
        "input": "0xe4849b32000000000000000000000000000000000000000000000000009c74c8537c4e95",
        "nonce": "0x1197",
        "chainId": "0xaa36a7"
      },
      "additionalContracts": [],
      "isFixedGasLimit": false
    }
  ],
  "receipts": [
    {
      "status": "0x1",
      "cumulativeGasUsed": "0xecc545",
      "logs": [
        {
          "address": "0x8aafd3ede9adb0ff97c7aebce82a919afb1c8764",
          "topics": [
            "0xddf252ad1be2c89b69c2b068fc378daa952ba7f163c4a11628f55a4df523b3ef",
            "0x000000000000000000000000c77f7fed3b5cc8249adc428c5f44c9063b9734b4",
            "0x0000000000000000000000000000000000000000000000000000000000000000"
          ],
          "data": "0x000000000000000000000000000000000000000000000000009b345c3a3ddf5d",
          "blockHash": "0x698f238b5313d16e6009f98904bf71608782aea08318803b5f660750bef9f2f3",
          "blockNumber": "0x73185e",
          "transactionHash": "0x3a98171d8f99d2dca7863e707e89de5f29cf93c909e098512fdb01aafbe87bf9",
          "transactionIndex": "0x9d",
          "logIndex": "0xb7",
          "removed": false
        },
        {
          "address": "0x8aafd3ede9adb0ff97c7aebce82a919afb1c8764",
          "topics": [
            "0xddf252ad1be2c89b69c2b068fc378daa952ba7f163c4a11628f55a4df523b3ef",
            "0x000000000000000000000000c77f7fed3b5cc8249adc428c5f44c9063b9734b4",
            "0x000000000000000000000000c77f7fed3b5cc8249adc428c5f44c9063b9734b4"
          ],
          "data": "0x0000000000000000000000000000000000000000000000000001406c193e6f38",
          "blockHash": "0x698f238b5313d16e6009f98904bf71608782aea08318803b5f660750bef9f2f3",
          "blockNumber": "0x73185e",
          "transactionHash": "0x3a98171d8f99d2dca7863e707e89de5f29cf93c909e098512fdb01aafbe87bf9",
          "transactionIndex": "0x9d",
          "logIndex": "0xb8",
          "removed": false
        },
        {
          "address": "0x8aafd3ede9adb0ff97c7aebce82a919afb1c8764",
          "topics": [
            "0x4afcb4a87cdbd9974efdb92ee48bc8d7cd0ae4bf217004db3d080cbaee652ca7"
          ],
          "data": "0x0000000000000000000000000000000000000000000000000000000067902138000000000000000000000000000000000000000000000000000521f30eea9faf000000000000000000000000000000000000000000000000000039dd46b10cd2",
          "blockHash": "0x698f238b5313d16e6009f98904bf71608782aea08318803b5f660750bef9f2f3",
          "blockNumber": "0x73185e",
          "transactionHash": "0x3a98171d8f99d2dca7863e707e89de5f29cf93c909e098512fdb01aafbe87bf9",
          "transactionIndex": "0x9d",
          "logIndex": "0xb9",
          "removed": false
        }
      ],
      "logsBloom": "0x00000000000000000000000000000000000000000600000000000000000000000000000000000000000000000000000000000000000000004000000000000000000000000000004000000008000000000000000000000000000000000000000000000000020000000000000000000800020000000000000000000010000000000000000000000000000000000000000000000000000000000000010000000000000000000000000000000000000000004000000000000000000000000000000000000002000000800000000000000000000000000000080000000000000020000000000000000000000000000000000000000000000000000000000000000000",
      "type": "0x2",
      "transactionHash": "0x3a98171d8f99d2dca7863e707e89de5f29cf93c909e098512fdb01aafbe87bf9",
      "transactionIndex": "0x9d",
      "blockHash": "0x698f238b5313d16e6009f98904bf71608782aea08318803b5f660750bef9f2f3",
      "blockNumber": "0x73185e",
      "gasUsed": "0xfd33",
      "effectiveGasPrice": "0x3232493c",
      "from": "0xc77f7fed3b5cc8249adc428c5f44c9063b9734b4",
      "to": "0x8aafd3ede9adb0ff97c7aebce82a919afb1c8764",
      "contractAddress": null
    }
  ],
  "libraries": [],
  "pending": [],
  "returns": {},
  "timestamp": 1737498937,
  "chain": 11155111,
  "commit": "1d2fb70"
}