{
  "transactions": [
    {
      "hash": "0xbd0b3f8e8b7f7ea40f03bb78b4e44859ef010f785daa3ee1429163cd21e8ef66",
      "transactionType": "CALL",
      "contractName": null,
      "contractAddress": "0xd7bc75898e513accccf720a874d44dab5a4b6223",
      "function": "buy(address)",
      "arguments": [
        "0xC77f7fed3b5Cc8249aDc428c5F44C9063B9734b4"
      ],
      "transaction": {
        "from": "0xc77f7fed3b5cc8249adc428c5f44c9063b9734b4",
        "to": "0xd7bc75898e513accccf720a874d44dab5a4b6223",
        "gas": "0x1b30c",
        "value": "0x2386f26fc10000",
        "input": "0xf088d547000000000000000000000000c77f7fed3b5cc8249adc428c5f44c9063b9734b4",
        "nonce": "0xa6",
        "chainId": "0xaa36a7"
      },
      "additionalContracts": [],
      "isFixedGasLimit": false
    }
  ],
  "receipts": [
    {
      "status": "0x1",
      "cumulativeGasUsed": "0x60e910",
      "logs": [
        {
          "address": "0xd7bc75898e513accccf720a874d44dab5a4b6223",
          "topics": [
            "0xddf252ad1be2c89b69c2b068fc378daa952ba7f163c4a11628f55a4df523b3ef",
            "0x0000000000000000000000000000000000000000000000000000000000000000",
            "0x000000000000000000000000c77f7fed3b5cc8249adc428c5f44c9063b9734b4"
          ],
          "data": "0x0000000000000000000000000000000000000000000000008963bbc43e5befc1",
          "blockHash": "0x44658eb0da8a715089e3d9a370d77f27baf56c61e2a46f683428308fe3bc1669",
          "blockNumber": "0x72391a",
          "transactionHash": "0xbd0b3f8e8b7f7ea40f03bb78b4e44859ef010f785daa3ee1429163cd21e8ef66",
          "transactionIndex": "0x1c",
          "logIndex": "0x3e",
          "removed": false
        },
        {
          "address": "0xd7bc75898e513accccf720a874d44dab5a4b6223",
          "topics": [
            "0xddf252ad1be2c89b69c2b068fc378daa952ba7f163c4a11628f55a4df523b3ef",
            "0x0000000000000000000000000000000000000000000000000000000000000000",
            "0x000000000000000000000000c77f7fed3b5cc8249adc428c5f44c9063b9734b4"
          ],
          "data": "0x000000000000000000000000000000000000000000000000006ab00cfd1f3154",
          "blockHash": "0x44658eb0da8a715089e3d9a370d77f27baf56c61e2a46f683428308fe3bc1669",
          "blockNumber": "0x72391a",
          "transactionHash": "0xbd0b3f8e8b7f7ea40f03bb78b4e44859ef010f785daa3ee1429163cd21e8ef66",
          "transactionIndex": "0x1c",
          "logIndex": "0x3f",
          "removed": false
        },
        {
          "address": "0xd7bc75898e513accccf720a874d44dab5a4b6223",
          "topics": [
            "0x4afcb4a87cdbd9974efdb92ee48bc8d7cd0ae4bf217004db3d080cbaee652ca7"
          ],
          "data": "0x0000000000000000000000000000000000000000000000000000000067859e8000000000000000000000000000000000000000000000000000038d7f84780cf3000000000000000000000000000000000000000000000000002386f26fc10000",
          "blockHash": "0x44658eb0da8a715089e3d9a370d77f27baf56c61e2a46f683428308fe3bc1669",
          "blockNumber": "0x72391a",
          "transactionHash": "0xbd0b3f8e8b7f7ea40f03bb78b4e44859ef010f785daa3ee1429163cd21e8ef66",
          "transactionIndex": "0x1c",
          "logIndex": "0x40",
          "removed": false
        }
      ],
      "logsBloom": "0x00000000000000000000000000000000000000000000000000000000000000000000000000000000000000000000000000000000000000004000000000000000000000000000000000000008000000000000000000000000000000000000000000000000020000000000000000000800020000000000000000000010000000000000000000000000000000000000000000000000000000000000010000000000000000000000000000000000000000004000001000000000000000000000000000000002000000800000000000004000000000000000080000000000000020000000000000000000000000000000000000000000080000000000000000000000",
      "type": "0x2",
      "transactionHash": "0xbd0b3f8e8b7f7ea40f03bb78b4e44859ef010f785daa3ee1429163cd21e8ef66",
      "transactionIndex": "0x1c",
      "blockHash": "0x44658eb0da8a715089e3d9a370d77f27baf56c61e2a46f683428308fe3bc1669",
      "blockNumber": "0x72391a",
      "gasUsed": "0x13af8",
      "effectiveGasPrice": "0x3d00c702",
      "from": "0xc77f7fed3b5cc8249adc428c5f44c9063b9734b4",
      "to": "0xd7bc75898e513accccf720a874d44dab5a4b6223",
      "contractAddress": null
    }
  ],
  "libraries": [],
  "pending": [],
  "returns": {},
  "timestamp": 1736810114,
  "chain": 11155111,
  "commit": "51a374b"
}