{
  "transactions": [
    {
      "hash": "0xc3aedd7ce4331cd3bc92c42cb73dc3fef0b0a69da06893a5c87054591671de7e",
      "transactionType": "CALL",
      "contractName": null,
      "contractAddress": "0xbf4a322f1496e5c3d34a9bcdb4c60567b38c7de2",
      "function": "sell(uint256)",
      "arguments": [
        "987044783571086318721"
      ],
      "transaction": {
        "from": "0xc77f7fed3b5cc8249adc428c5f44c9063b9734b4",
        "to": "0xbf4a322f1496e5c3d34a9bcdb4c60567b38c7de2",
        "gas": "0x16fea",
        "value": "0x0",
        "input": "0xe4849b3200000000000000000000000000000000000000000000003581ff81120ceb9c81",
        "nonce": "0xa0f",
        "chainId": "0xaa36a7"
      },
      "additionalContracts": [],
      "isFixedGasLimit": false
    }
  ],
  "receipts": [
    {
      "status": "0x1",
      "cumulativeGasUsed": "0xc60d8f",
      "logs": [
        {
          "address": "0xbf4a322f1496e5c3d34a9bcdb4c60567b38c7de2",
          "topics": [
            "0xddf252ad1be2c89b69c2b068fc378daa952ba7f163c4a11628f55a4df523b3ef",
            "0x000000000000000000000000c77f7fed3b5cc8249adc428c5f44c9063b9734b4",
            "0x0000000000000000000000000000000000000000000000000000000000000000"
          ],
          "data": "0x00000000000000000000000000000000000000000000003581ff81120ceb9c81",
          "blockHash": "0x3a6262b19cd746c47100111e7ebff499be552fc49b7dd42e4f1e2023994acb29",
          "blockNumber": "0x7259ce",
          "transactionHash": "0xc3aedd7ce4331cd3bc92c42cb73dc3fef0b0a69da06893a5c87054591671de7e",
          "transactionIndex": "0x67",
          "logIndex": "0x95",
          "removed": false
        },
        {
          "address": "0xbf4a322f1496e5c3d34a9bcdb4c60567b38c7de2",
          "topics": [
            "0x4afcb4a87cdbd9974efdb92ee48bc8d7cd0ae4bf217004db3d080cbaee652ca7"
          ],
          "data": "0x00000000000000000000000000000000000000000000000000000000678727ec00000000000000000000000000000000000000000000000000039302927fb9ec0000000000000000000000000000000000000000000000000dc7e3f2720c54d7",
          "blockHash": "0x3a6262b19cd746c47100111e7ebff499be552fc49b7dd42e4f1e2023994acb29",
          "blockNumber": "0x7259ce",
          "transactionHash": "0xc3aedd7ce4331cd3bc92c42cb73dc3fef0b0a69da06893a5c87054591671de7e",
          "transactionIndex": "0x67",
          "logIndex": "0x96",
          "removed": false
        }
      ],
      "logsBloom": "0x00000000000000000000000000000000000000000000000000000000000000000000000000000000000000000000000000000000000000004000000000000000000000000000000000000008000000000000001000000000000000000000000000000000020000000000000000000800020000000000000000000010000000000000000000000000000000000000000000000000000008000000010000000000000000000000000000000000000000004000000000000000000000000000000000000002000000800000000000001000000000000000080000000000000020000000000000000000000000000000000000000000000000000000000000000000",
      "type": "0x2",
      "transactionHash": "0xc3aedd7ce4331cd3bc92c42cb73dc3fef0b0a69da06893a5c87054591671de7e",
      "transactionIndex": "0x67",
      "blockHash": "0x3a6262b19cd746c47100111e7ebff499be552fc49b7dd42e4f1e2023994acb29",
      "blockNumber": "0x7259ce",
      "gasUsed": "0xfb91",
      "effectiveGasPrice": "0x35f059ccb",
      "from": "0xc77f7fed3b5cc8249adc428c5f44c9063b9734b4",
      "to": "0xbf4a322f1496e5c3d34a9bcdb4c60567b38c7de2",
      "contractAddress": null
    }
  ],
  "libraries": [],
  "pending": [],
  "returns": {},
  "timestamp": 1736910830,
  "chain": 11155111,
  "commit": "51a374b"
}