{
  "transactions": [
    {
      "hash": "0x222c3accc7b5e408a33af494266e88804e5a0af61cf9ff63dd5396c161746e6e",
      "transactionType": "CALL",
      "contractName": null,
      "contractAddress": "0x8aafd3ede9adb0ff97c7aebce82a919afb1c8764",
      "function": "sell(uint256)",
      "arguments": [
        "246432304942900824854"
      ],
      "transaction": {
        "from": "0xc77f7fed3b5cc8249adc428c5f44c9063b9734b4",
        "to": "0x8aafd3ede9adb0ff97c7aebce82a919afb1c8764",
        "gas": "0x17270",
        "value": "0x0",
        "input": "0xe4849b3200000000000000000000000000000000000000000000000d5bef6bb0f657cb16",
        "nonce": "0x1415",
        "chainId": "0xaa36a7"
      },
      "additionalContracts": [],
      "isFixedGasLimit": false
    }
  ],
  "receipts": [
    {
      "status": "0x1",
      "cumulativeGasUsed": "0x125e078",
      "logs": [
        {
          "address": "0x8aafd3ede9adb0ff97c7aebce82a919afb1c8764",
          "topics": [
            "0xddf252ad1be2c89b69c2b068fc378daa952ba7f163c4a11628f55a4df523b3ef",
            "0x000000000000000000000000c77f7fed3b5cc8249adc428c5f44c9063b9734b4",
            "0x0000000000000000000000000000000000000000000000000000000000000000"
          ],
          "data": "0x00000000000000000000000000000000000000000000000d409364af8bec9850",
          "blockHash": "0xf9576092d6f919f55ebfd9e14db6bf9a878d7b201035e82a5223b9d6c96dd59a",
          "blockNumber": "0x731b50",
          "transactionHash": "0x222c3accc7b5e408a33af494266e88804e5a0af61cf9ff63dd5396c161746e6e",
          "transactionIndex": "0xb1",
          "logIndex": "0xbf",
          "removed": false
        },
        {
          "address": "0x8aafd3ede9adb0ff97c7aebce82a919afb1c8764",
          "topics": [
            "0xddf252ad1be2c89b69c2b068fc378daa952ba7f163c4a11628f55a4df523b3ef",
            "0x000000000000000000000000c77f7fed3b5cc8249adc428c5f44c9063b9734b4",
            "0x000000000000000000000000c77f7fed3b5cc8249adc428c5f44c9063b9734b4"
          ],
          "data": "0x0000000000000000000000000000000000000000000000001b5c07016a6b32c6",
          "blockHash": "0xf9576092d6f919f55ebfd9e14db6bf9a878d7b201035e82a5223b9d6c96dd59a",
          "blockNumber": "0x731b50",
          "transactionHash": "0x222c3accc7b5e408a33af494266e88804e5a0af61cf9ff63dd5396c161746e6e",
          "transactionIndex": "0xb1",
          "logIndex": "0xc0",
          "removed": false
        },
        {
          "address": "0x8aafd3ede9adb0ff97c7aebce82a919afb1c8764",
          "topics": [
            "0x4afcb4a87cdbd9974efdb92ee48bc8d7cd0ae4bf217004db3d080cbaee652ca7"
          ],
          "data": "0x0000000000000000000000000000000000000000000000000000000067904490000000000000000000000000000000000000000000000000000e6af4dde92c410000000000000000000000000000000000000000000000000dcddf7405263500",
          "blockHash": "0xf9576092d6f919f55ebfd9e14db6bf9a878d7b201035e82a5223b9d6c96dd59a",
          "blockNumber": "0x731b50",
          "transactionHash": "0x222c3accc7b5e408a33af494266e88804e5a0af61cf9ff63dd5396c161746e6e",
          "transactionIndex": "0xb1",
          "logIndex": "0xc1",
          "removed": false
        }
      ],
      "logsBloom": "0x00000000000000000000000000000000000000000600000000000000000000000000000000000000000000000000000000000000000000004000000000000000000000000000004000000008000000000000000000000000000000000000000000000000020000000000000000000800020000000000000000000010000000000000000000000000000000000000000000000000000000000000010000000000000000000000000000000000000000004000000000000000000000000000000000000002000000800000000000000000000000000000080000000000000020000000000000000000000000000000000000000000000000000000000000000000",
      "type": "0x2",
      "transactionHash": "0x222c3accc7b5e408a33af494266e88804e5a0af61cf9ff63dd5396c161746e6e",
      "transactionIndex": "0xb1",
      "blockHash": "0xf9576092d6f919f55ebfd9e14db6bf9a878d7b201035e82a5223b9d6c96dd59a",
      "blockNumber": "0x731b50",
      "gasUsed": "0xfd4b",
      "effectiveGasPrice": "0xd3ea41b1",
      "from": "0xc77f7fed3b5cc8249adc428c5f44c9063b9734b4",
      "to": "0x8aafd3ede9adb0ff97c7aebce82a919afb1c8764",
      "contractAddress": null
    }
  ],
  "libraries": [],
  "pending": [],
  "returns": {},
  "timestamp": 1737507985,
  "chain": 11155111,
  "commit": "1d2fb70"
}