{
  "transactions": [
    {
      "hash": "0x47ba1538b829c4a45c7c29e5f4bed60affec2322bcab5db01dc02b8a545f2597",
      "transactionType": "CALL",
      "contractName": null,
      "contractAddress": "0xbf4a322f1496e5c3d34a9bcdb4c60567b38c7de2",
      "function": "sell(uint256)",
      "arguments": [
        "978083039650638652664"
      ],
      "transaction": {
        "from": "0xc77f7fed3b5cc8249adc428c5f44c9063b9734b4",
        "to": "0xbf4a322f1496e5c3d34a9bcdb4c60567b38c7de2",
        "gas": "0x16fea",
        "value": "0x0",
        "input": "0xe4849b3200000000000000000000000000000000000000000000003505a0fe74ca9ee4f8",
        "nonce": "0xca7",
        "chainId": "0xaa36a7"
      },
      "additionalContracts": [],
      "isFixedGasLimit": false
    }
  ],
  "receipts": [
    {
      "status": "0x1",
      "cumulativeGasUsed": "0x6be5c1",
      "logs": [
        {
          "address": "0xbf4a322f1496e5c3d34a9bcdb4c60567b38c7de2",
          "topics": [
            "0xddf252ad1be2c89b69c2b068fc378daa952ba7f163c4a11628f55a4df523b3ef",
            "0x000000000000000000000000c77f7fed3b5cc8249adc428c5f44c9063b9734b4",
            "0x0000000000000000000000000000000000000000000000000000000000000000"
          ],
          "data": "0x00000000000000000000000000000000000000000000003505a0fe74ca9ee4f8",
          "blockHash": "0x0974056f5d442c0c04c78da8cca187f1d3c6c75b2980ed27b9c7f82d2d9d578d",
          "blockNumber": "0x725cf2",
          "transactionHash": "0x47ba1538b829c4a45c7c29e5f4bed60affec2322bcab5db01dc02b8a545f2597",
          "transactionIndex": "0x4a",
          "logIndex": "0x55",
          "removed": false
        },
        {
          "address": "0xbf4a322f1496e5c3d34a9bcdb4c60567b38c7de2",
          "topics": [
            "0x4afcb4a87cdbd9974efdb92ee48bc8d7cd0ae4bf217004db3d080cbaee652ca7"
          ],
          "data": "0x0000000000000000000000000000000000000000000000000000000067874dcc00000000000000000000000000000000000000000000000000039b64c647f5c30000000000000000000000000000000000000000000000000dc7e3dd9bfc00fd",
          "blockHash": "0x0974056f5d442c0c04c78da8cca187f1d3c6c75b2980ed27b9c7f82d2d9d578d",
          "blockNumber": "0x725cf2",
          "transactionHash": "0x47ba1538b829c4a45c7c29e5f4bed60affec2322bcab5db01dc02b8a545f2597",
          "transactionIndex": "0x4a",
          "logIndex": "0x56",
          "removed": false
        }
      ],
      "logsBloom": "0x00000000000000000000000000000000000000000000000000000000000000000000000000000000000000000000000000000000000000004000000000000000000000000000000000000008000000000000001000000000000000000000000000000000020000000000000000000800020000000000000000000010000000000000000000000000000000000000000000000000000008000000010000000000000000000000000000000000000000004000000000000000000000000000000000000002000000800000000000001000000000000000080000000000000020000000000000000000000000000000000000000000000000000000000000000000",
      "type": "0x2",
      "transactionHash": "0x47ba1538b829c4a45c7c29e5f4bed60affec2322bcab5db01dc02b8a545f2597",
      "transactionIndex": "0x4a",
      "blockHash": "0x0974056f5d442c0c04c78da8cca187f1d3c6c75b2980ed27b9c7f82d2d9d578d",
      "blockNumber": "0x725cf2",
      "gasUsed": "0xfb91",
      "effectiveGasPrice": "0x264eff765",
      "from": "0xc77f7fed3b5cc8249adc428c5f44c9063b9734b4",
      "to": "0xbf4a322f1496e5c3d34a9bcdb4c60567b38c7de2",
      "contractAddress": null
    }
  ],
  "libraries": [],
  "pending": [],
  "returns": {},
  "timestamp": 1736920525,
  "chain": 11155111,
  "commit": "51a374b"
}