{
  "transactions": [
    {
      "hash": "0xd91159d605b59cf04c29ac2b938b32fa91bf59a9e98f0ccf4de9a1190911e9fb",
      "transactionType": "CALL",
      "contractName": null,
      "contractAddress": "0x8aafd3ede9adb0ff97c7aebce82a919afb1c8764",
      "function": "sell(uint256)",
      "arguments": [
        "850051050771"
      ],
      "transaction": {
        "from": "0xc77f7fed3b5cc8249adc428c5f44c9063b9734b4",
        "to": "0x8aafd3ede9adb0ff97c7aebce82a919afb1c8764",
        "gas": "0x1722a",
        "value": "0x0",
        "input": "0xe4849b32000000000000000000000000000000000000000000000000000000c5eafdad13",
        "nonce": "0x1503",
        "chainId": "0xaa36a7"
      },
      "additionalContracts": [],
      "isFixedGasLimit": false
    }
  ],
  "receipts": [
    {
      "status": "0x1",
      "cumulativeGasUsed": "0x124c565",
      "logs": [
        {
          "address": "0x8aafd3ede9adb0ff97c7aebce82a919afb1c8764",
          "topics": [
            "0xddf252ad1be2c89b69c2b068fc378daa952ba7f163c4a11628f55a4df523b3ef",
            "0x000000000000000000000000c77f7fed3b5cc8249adc428c5f44c9063b9734b4",
            "0x0000000000000000000000000000000000000000000000000000000000000000"
          ],
          "data": "0x000000000000000000000000000000000000000000000000000000c455a7adbd",
          "blockHash": "0x70dc1b9bd24441bbc1008ea55962e1cf8b3f5ae171b26ec58ae1be318ec5b8b9",
          "blockNumber": "0x731c65",
          "transactionHash": "0xd91159d605b59cf04c29ac2b938b32fa91bf59a9e98f0ccf4de9a1190911e9fb",
          "transactionIndex": "0xc4",
          "logIndex": "0x112",
          "removed": false
        },
        {
          "address": "0x8aafd3ede9adb0ff97c7aebce82a919afb1c8764",
          "topics": [
            "0xddf252ad1be2c89b69c2b068fc378daa952ba7f163c4a11628f55a4df523b3ef",
            "0x000000000000000000000000c77f7fed3b5cc8249adc428c5f44c9063b9734b4",
            "0x000000000000000000000000c77f7fed3b5cc8249adc428c5f44c9063b9734b4"
          ],
          "data": "0x000000000000000000000000000000000000000000000000000000019555ff56",
          "blockHash": "0x70dc1b9bd24441bbc1008ea55962e1cf8b3f5ae171b26ec58ae1be318ec5b8b9",
          "blockNumber": "0x731c65",
          "transactionHash": "0xd91159d605b59cf04c29ac2b938b32fa91bf59a9e98f0ccf4de9a1190911e9fb",
          "transactionIndex": "0xc4",
          "logIndex": "0x113",
          "removed": false
        },
        {
          "address": "0x8aafd3ede9adb0ff97c7aebce82a919afb1c8764",
          "topics": [
            "0x4afcb4a87cdbd9974efdb92ee48bc8d7cd0ae4bf217004db3d080cbaee652ca7"
          ],
          "data": "0x000000000000000000000000000000000000000000000000000000006790519800000000000000000000000000000000000000000000000000111a50508243fb00000000000000000000000000000000000000000000000000000000f3e94721",
          "blockHash": "0x70dc1b9bd24441bbc1008ea55962e1cf8b3f5ae171b26ec58ae1be318ec5b8b9",
          "blockNumber": "0x731c65",
          "transactionHash": "0xd91159d605b59cf04c29ac2b938b32fa91bf59a9e98f0ccf4de9a1190911e9fb",
          "transactionIndex": "0xc4",
          "logIndex": "0x114",
          "removed": false
        }
      ],
      "logsBloom": "0x00000000000000000000000000000000000000000600000000000000000000000000000000000000000000000000000000000000000000004000000000000000000000000000004000000008000000000000000000000000000000000000000000000000020000000000000000000800020000000000000000000010000000000000000000000000000000000000000000000000000000000000010000000000000000000000000000000000000000004000000000000000000000000000000000000002000000800000000000000000000000000000080000000000000020000000000000000000000000000000000000000000000000000000000000000000",
      "type": "0x2",
      "transactionHash": "0xd91159d605b59cf04c29ac2b938b32fa91bf59a9e98f0ccf4de9a1190911e9fb",
      "transactionIndex": "0xc4",
      "blockHash": "0x70dc1b9bd24441bbc1008ea55962e1cf8b3f5ae171b26ec58ae1be318ec5b8b9",
      "blockNumber": "0x731c65",
      "gasUsed": "0xfd1b",
      "effectiveGasPrice": "0x184fef725",
      "from": "0xc77f7fed3b5cc8249adc428c5f44c9063b9734b4",
      "to": "0x8aafd3ede9adb0ff97c7aebce82a919afb1c8764",
      "contractAddress": null
    }
  ],
  "libraries": [],
  "pending": [],
  "returns": {},
  "timestamp": 1737511321,
  "chain": 11155111,
  "commit": "1d2fb70"
}