{
  "transactions": [
    {
      "hash": "0x8d62ba0405ceae3b6e6bbab256156fd44d2747f4fd4f675bde0bac1226c8314b",
      "transactionType": "CALL",
      "contractName": null,
      "contractAddress": "0x8aafd3ede9adb0ff97c7aebce82a919afb1c8764",
      "function": "buy(address)",
      "arguments": [
        "0xC77f7fed3b5Cc8249aDc428c5F44C9063B9734b4"
      ],
      "transaction": {
        "from": "0xc77f7fed3b5cc8249adc428c5f44c9063b9734b4",
        "to": "0x8aafd3ede9adb0ff97c7aebce82a919afb1c8764",
        "gas": "0x156ea",
        "value": "0xde0b6b3a7640000",
        "input": "0xf088d547000000000000000000000000c77f7fed3b5cc8249adc428c5f44c9063b9734b4",
        "nonce": "0xfb6",
        "chainId": "0xaa36a7"
      },
      "additionalContracts": [],
      "isFixedGasLimit": false
    }
  ],
  "receipts": [
    {
      "status": "0x1",
      "cumulativeGasUsed": "0xe10f77",
      "logs": [
        {
          "address": "0x8aafd3ede9adb0ff97c7aebce82a919afb1c8764",
          "topics": [
            "0xddf252ad1be2c89b69c2b068fc378daa952ba7f163c4a11628f55a4df523b3ef",
            "0x0000000000000000000000000000000000000000000000000000000000000000",
            "0x000000000000000000000000c77f7fed3b5cc8249adc428c5f44c9063b9734b4"
          ],
          "data": "0x00000000000000000000000000000000000000000000002803dcb6e8827c0f6c",
          "blockHash": "0xbb6e332319cf937bf449831eb9712e69668d45e3873cbdc57f3ae41685924a96",
          "blockNumber": "0x731621",
          "transactionHash": "0x8d62ba0405ceae3b6e6bbab256156fd44d2747f4fd4f675bde0bac1226c8314b",
          "transactionIndex": "0x8a",
          "logIndex": "0xd4",
          "removed": false
        },
        {
          "address": "0x8aafd3ede9adb0ff97c7aebce82a919afb1c8764",
          "topics": [
            "0xddf252ad1be2c89b69c2b068fc378daa952ba7f163c4a11628f55a4df523b3ef",
            "0x0000000000000000000000000000000000000000000000000000000000000000",
            "0x000000000000000000000000c77f7fed3b5cc8249adc428c5f44c9063b9734b4"
          ],
          "data": "0x0000000000000000000000000000000000000000000000001f12b558f5588152",
          "blockHash": "0xbb6e332319cf937bf449831eb9712e69668d45e3873cbdc57f3ae41685924a96",
          "blockNumber": "0x731621",
          "transactionHash": "0x8d62ba0405ceae3b6e6bbab256156fd44d2747f4fd4f675bde0bac1226c8314b",
          "transactionIndex": "0x8a",
          "logIndex": "0xd5",
          "removed": false
        },
        {
          "address": "0x8aafd3ede9adb0ff97c7aebce82a919afb1c8764",
          "topics": [
            "0x4afcb4a87cdbd9974efdb92ee48bc8d7cd0ae4bf217004db3d080cbaee652ca7"
          ],
          "data": "0x00000000000000000000000000000000000000000000000000000000679006380000000000000000000000000000000000000000000000000004c3e768a468760000000000000000000000000000000000000000000000000de0b6b3a7640000",
          "blockHash": "0xbb6e332319cf937bf449831eb9712e69668d45e3873cbdc57f3ae41685924a96",
          "blockNumber": "0x731621",
          "transactionHash": "0x8d62ba0405ceae3b6e6bbab256156fd44d2747f4fd4f675bde0bac1226c8314b",
          "transactionIndex": "0x8a",
          "logIndex": "0xd6",
          "removed": false
        }
      ],
      "logsBloom": "0x00000000000000000000000000000000000000000600000000000000000000000000000000000000000000000000000000000000000000004000000000000000000000000000004000000008000000000000000000000000000000000000000000000000020000000000000000000800020000000000000000000010000000000000000000000000000000000000000000000000000000000000010000000000000000000000000000000000000000004000000000000000000000000000000000000002000000800000000000000000000000000000080000000000000020000000000000000000000000000000000000000000000000000000000000000000",
      "type": "0x2",
      "transactionHash": "0x8d62ba0405ceae3b6e6bbab256156fd44d2747f4fd4f675bde0bac1226c8314b",
      "transactionIndex": "0x8a",
      "blockHash": "0xbb6e332319cf937bf449831eb9712e69668d45e3873cbdc57f3ae41685924a96",
      "blockNumber": "0x731621",
      "gasUsed": "0xf844",
      "effectiveGasPrice": "0x6d6a844b",
      "from": "0xc77f7fed3b5cc8249adc428c5f44c9063b9734b4",
      "to": "0x8aafd3ede9adb0ff97c7aebce82a919afb1c8764",
      "contractAddress": null
    }
  ],
  "libraries": [],
  "pending": [],
  "returns": {},
  "timestamp": 1737492026,
  "chain": 11155111,
  "commit": "1d2fb70"
}