{
  "transactions": [
    {
      "hash": "0x27b17b30e7cf4f052adcc22bd5f1bdb22ee8e65321fb04df617ce962bf651957",
      "transactionType": "CALL",
      "contractName": null,
      "contractAddress": "0x8aafd3ede9adb0ff97c7aebce82a919afb1c8764",
      "function": "sell(uint256)",
      "arguments": [
        "62361740"
      ],
      "transaction": {
        "from": "0xc77f7fed3b5cc8249adc428c5f44c9063b9734b4",
        "to": "0x8aafd3ede9adb0ff97c7aebce82a919afb1c8764",
        "gas": "0x15d88",
        "value": "0x0",
        "input": "0xe4849b320000000000000000000000000000000000000000000000000000000003b7908c",
        "nonce": "0x1448",
        "chainId": "0xaa36a7"
      },
      "additionalContracts": [],
      "isFixedGasLimit": false
    }
  ],
  "receipts": [
    {
      "status": "0x1",
      "cumulativeGasUsed": "0x15b09c8",
      "logs": [
        {
          "address": "0x8aafd3ede9adb0ff97c7aebce82a919afb1c8764",
          "topics": [
            "0xddf252ad1be2c89b69c2b068fc378daa952ba7f163c4a11628f55a4df523b3ef",
            "0x000000000000000000000000c77f7fed3b5cc8249adc428c5f44c9063b9734b4",
            "0x0000000000000000000000000000000000000000000000000000000000000000"
          ],
          "data": "0x0000000000000000000000000000000000000000000000000000000003aff3bf",
          "blockHash": "0x745aad798dc85941593906c305edfc46efe18db4387b4d88a641de69ff271ab5",
          "blockNumber": "0x731b8c",
          "transactionHash": "0x27b17b30e7cf4f052adcc22bd5f1bdb22ee8e65321fb04df617ce962bf651957",
          "transactionIndex": "0xd7",
          "logIndex": "0x122",
          "removed": false
        },
        {
          "address": "0x8aafd3ede9adb0ff97c7aebce82a919afb1c8764",
          "topics": [
            "0xddf252ad1be2c89b69c2b068fc378daa952ba7f163c4a11628f55a4df523b3ef",
            "0x000000000000000000000000c77f7fed3b5cc8249adc428c5f44c9063b9734b4",
            "0x000000000000000000000000c77f7fed3b5cc8249adc428c5f44c9063b9734b4"
          ],
          "data": "0x0000000000000000000000000000000000000000000000000000000000079ccd",
          "blockHash": "0x745aad798dc85941593906c305edfc46efe18db4387b4d88a641de69ff271ab5",
          "blockNumber": "0x731b8c",
          "transactionHash": "0x27b17b30e7cf4f052adcc22bd5f1bdb22ee8e65321fb04df617ce962bf651957",
          "transactionIndex": "0xd7",
          "logIndex": "0x123",
          "removed": false
        },
        {
          "address": "0x8aafd3ede9adb0ff97c7aebce82a919afb1c8764",
          "topics": [
            "0x4afcb4a87cdbd9974efdb92ee48bc8d7cd0ae4bf217004db3d080cbaee652ca7"
          ],
          "data": "0x000000000000000000000000000000000000000000000000000000006790476c000000000000000000000000000000000000000000000000000eeec08b647aec000000000000000000000000000000000000000000000000000000000003ffe4",
          "blockHash": "0x745aad798dc85941593906c305edfc46efe18db4387b4d88a641de69ff271ab5",
          "blockNumber": "0x731b8c",
          "transactionHash": "0x27b17b30e7cf4f052adcc22bd5f1bdb22ee8e65321fb04df617ce962bf651957",
          "transactionIndex": "0xd7",
          "logIndex": "0x124",
          "removed": false
        }
      ],
      "logsBloom": "0x00000000000000000000000000000000000000000600000000000000000000000000000000000000000000000000000000000000000000004000000000000000000000000000004000000008000000000000000000000000000000000000000000000000020000000000000000000800020000000000000000000010000000000000000000000000000000000000000000000000000000000000010000000000000000000000000000000000000000004000000000000000000000000000000000000002000000800000000000000000000000000000080000000000000020000000000000000000000000000000000000000000000000000000000000000000",
      "type": "0x2",
      "transactionHash": "0x27b17b30e7cf4f052adcc22bd5f1bdb22ee8e65321fb04df617ce962bf651957",
      "transactionIndex": "0xd7",
      "blockHash": "0x745aad798dc85941593906c305edfc46efe18db4387b4d88a641de69ff271ab5",
      "blockNumber": "0x731b8c",
      "gasUsed": "0xfd0f",
      "effectiveGasPrice": "0x10dce7278",
      "from": "0xc77f7fed3b5cc8249adc428c5f44c9063b9734b4",
      "to": "0x8aafd3ede9adb0ff97c7aebce82a919afb1c8764",
      "contractAddress": null
    }
  ],
  "libraries": [],
  "pending": [],
  "returns": {},
  "timestamp": 1737508717,
  "chain": 11155111,
  "commit": "1d2fb70"
}