{
  "transactions": [
    {
      "hash": "0xd4bd2dfb14d15b7945ae8e8a5858c32da36ed7f517171d549acd2c35d28f2c5f",
      "transactionType": "CALL",
      "contractName": null,
      "contractAddress": "0x8aafd3ede9adb0ff97c7aebce82a919afb1c8764",
      "function": "sell(uint256)",
      "arguments": [
        "85321457780695"
      ],
      "transaction": {
        "from": "0xc77f7fed3b5cc8249adc428c5f44c9063b9734b4",
        "to": "0x8aafd3ede9adb0ff97c7aebce82a919afb1c8764",
        "gas": "0x15daa",
        "value": "0x0",
        "input": "0xe4849b3200000000000000000000000000000000000000000000000000004d99732ec7d7",
        "nonce": "0x166a",
        "chainId": "0xaa36a7"
      },
      "additionalContracts": [],
      "isFixedGasLimit": false
    }
  ],
  "receipts": [
    {
      "status": "0x1",
      "cumulativeGasUsed": "0xc21ad2",
      "logs": [
        {
          "address": "0x8aafd3ede9adb0ff97c7aebce82a919afb1c8764",
          "topics": [
            "0xddf252ad1be2c89b69c2b068fc378daa952ba7f163c4a11628f55a4df523b3ef",
            "0x000000000000000000000000c77f7fed3b5cc8249adc428c5f44c9063b9734b4",
            "0x0000000000000000000000000000000000000000000000000000000000000000"
          ],
          "data": "0x00000000000000000000000000000000000000000000000000004cfa86bdc432",
          "blockHash": "0x9eaf5d9f2dbf5737613f5511c966d59ee0ba7c849a47cc3dde634fc9940b09f9",
          "blockNumber": "0x731e19",
          "transactionHash": "0xd4bd2dfb14d15b7945ae8e8a5858c32da36ed7f517171d549acd2c35d28f2c5f",
          "transactionIndex": "0x75",
          "logIndex": "0xac",
          "removed": false
        },
        {
          "address": "0x8aafd3ede9adb0ff97c7aebce82a919afb1c8764",
          "topics": [
            "0xddf252ad1be2c89b69c2b068fc378daa952ba7f163c4a11628f55a4df523b3ef",
            "0x000000000000000000000000c77f7fed3b5cc8249adc428c5f44c9063b9734b4",
            "0x000000000000000000000000c77f7fed3b5cc8249adc428c5f44c9063b9734b4"
          ],
          "data": "0x0000000000000000000000000000000000000000000000000000009eec7103a5",
          "blockHash": "0x9eaf5d9f2dbf5737613f5511c966d59ee0ba7c849a47cc3dde634fc9940b09f9",
          "blockNumber": "0x731e19",
          "transactionHash": "0xd4bd2dfb14d15b7945ae8e8a5858c32da36ed7f517171d549acd2c35d28f2c5f",
          "transactionIndex": "0x75",
          "logIndex": "0xad",
          "removed": false
        },
        {
          "address": "0x8aafd3ede9adb0ff97c7aebce82a919afb1c8764",
          "topics": [
            "0x4afcb4a87cdbd9974efdb92ee48bc8d7cd0ae4bf217004db3d080cbaee652ca7"
          ],
          "data": "0x00000000000000000000000000000000000000000000000000000000679066140000000000000000000000000000000000000000000000000015465f7fe1a72300000000000000000000000000000000000000000000000000000076f6163a24",
          "blockHash": "0x9eaf5d9f2dbf5737613f5511c966d59ee0ba7c849a47cc3dde634fc9940b09f9",
          "blockNumber": "0x731e19",
          "transactionHash": "0xd4bd2dfb14d15b7945ae8e8a5858c32da36ed7f517171d549acd2c35d28f2c5f",
          "transactionIndex": "0x75",
          "logIndex": "0xae",
          "removed": false
        }
      ],
      "logsBloom": "0x00000000000000000000000000000000000000000600000000000000000000000000000000000000000000000000000000000000000000004000000000000000000000000000004000000008000000000000000000000000000000000000000000000000020000000000000000000800020000000000000000000010000000000000000000000000000000000000000000000000000000000000010000000000000000000000000000000000000000004000000000000000000000000000000000000002000000800000000000000000000000000000080000000000000020000000000000000000000000000000000000000000000000000000000000000000",
      "type": "0x2",
      "transactionHash": "0xd4bd2dfb14d15b7945ae8e8a5858c32da36ed7f517171d549acd2c35d28f2c5f",
      "transactionIndex": "0x75",
      "blockHash": "0x9eaf5d9f2dbf5737613f5511c966d59ee0ba7c849a47cc3dde634fc9940b09f9",
      "blockNumber": "0x731e19",
      "gasUsed": "0xfd27",
      "effectiveGasPrice": "0x3bbf77c8",
      "from": "0xc77f7fed3b5cc8249adc428c5f44c9063b9734b4",
      "to": "0x8aafd3ede9adb0ff97c7aebce82a919afb1c8764",
      "contractAddress": null
    }
  ],
  "libraries": [],
  "pending": [],
  "returns": {},
  "timestamp": 1737516566,
  "chain": 11155111,
  "commit": "1d2fb70"
}