{
  "transactions": [
    {
      "hash": "0x5cee770581474074e69ca321044935bfbdc5ee9cadc1efd11cff7cc6767b9796",
      "transactionType": "CALL",
      "contractName": null,
      "contractAddress": "0xbf4a322f1496e5c3d34a9bcdb4c60567b38c7de2",
      "function": "sell(uint256)",
      "arguments": [
        "979610065894353411952"
      ],
      "transaction": {
        "from": "0xc77f7fed3b5cc8249adc428c5f44c9063b9734b4",
        "to": "0xbf4a322f1496e5c3d34a9bcdb4c60567b38c7de2",
        "gas": "0x16fea",
        "value": "0x0",
        "input": "0xe4849b320000000000000000000000000000000000000000000000351ad214bbfdf01f70",
        "nonce": "0xc35",
        "chainId": "0xaa36a7"
      },
      "additionalContracts": [],
      "isFixedGasLimit": false
    }
  ],
  "receipts": [
    {
      "status": "0x1",
      "cumulativeGasUsed": "0xddfa1c",
      "logs": [
        {
          "address": "0xbf4a322f1496e5c3d34a9bcdb4c60567b38c7de2",
          "topics": [
            "0xddf252ad1be2c89b69c2b068fc378daa952ba7f163c4a11628f55a4df523b3ef",
            "0x000000000000000000000000c77f7fed3b5cc8249adc428c5f44c9063b9734b4",
            "0x0000000000000000000000000000000000000000000000000000000000000000"
          ],
          "data": "0x0000000000000000000000000000000000000000000000351ad214bbfdf01f70",
          "blockHash": "0x7fd973abb63a36bd0d142a3849a986d659479fee31f0e8189dc0e7d53f06e4a2",
          "blockNumber": "0x725c68",
          "transactionHash": "0x5cee770581474074e69ca321044935bfbdc5ee9cadc1efd11cff7cc6767b9796",
          "transactionIndex": "0x5c",
          "logIndex": "0xb1",
          "removed": false
        },
        {
          "address": "0xbf4a322f1496e5c3d34a9bcdb4c60567b38c7de2",
          "topics": [
            "0x4afcb4a87cdbd9974efdb92ee48bc8d7cd0ae4bf217004db3d080cbaee652ca7"
          ],
          "data": "0x000000000000000000000000000000000000000000000000000000006787473c000000000000000000000000000000000000000000000000000399f44ca286a80000000000000000000000000000000000000000000000000dc7e3e128e2c58b",
          "blockHash": "0x7fd973abb63a36bd0d142a3849a986d659479fee31f0e8189dc0e7d53f06e4a2",
          "blockNumber": "0x725c68",
          "transactionHash": "0x5cee770581474074e69ca321044935bfbdc5ee9cadc1efd11cff7cc6767b9796",
          "transactionIndex": "0x5c",
          "logIndex": "0xb2",
          "removed": false
        }
      ],
      "logsBloom": "0x00000000000000000000000000000000000000000000000000000000000000000000000000000000000000000000000000000000000000004000000000000000000000000000000000000008000000000000001000000000000000000000000000000000020000000000000000000800020000000000000000000010000000000000000000000000000000000000000000000000000008000000010000000000000000000000000000000000000000004000000000000000000000000000000000000002000000800000000000001000000000000000080000000000000020000000000000000000000000000000000000000000000000000000000000000000",
      "type": "0x2",
      "transactionHash": "0x5cee770581474074e69ca321044935bfbdc5ee9cadc1efd11cff7cc6767b9796",
      "transactionIndex": "0x5c",
      "blockHash": "0x7fd973abb63a36bd0d142a3849a986d659479fee31f0e8189dc0e7d53f06e4a2",
      "blockNumber": "0x725c68",
      "gasUsed": "0xfb91",
      "effectiveGasPrice": "0x197bbf951",
      "from": "0xc77f7fed3b5cc8249adc428c5f44c9063b9734b4",
      "to": "0xbf4a322f1496e5c3d34a9bcdb4c60567b38c7de2",
      "contractAddress": null
    }
  ],
  "libraries": [],
  "pending": [],
  "returns": {},
  "timestamp": 1736918845,
  "chain": 11155111,
  "commit": "51a374b"
}