{
  "transactions": [
    {
      "hash": "0x16999f28bf0ad3d87b51f9a1f53a74ad064e07a8339c86e4cb9e6ba513da59dc",
      "transactionType": "CALL",
      "contractName": null,
      "contractAddress": "0x8aafd3ede9adb0ff97c7aebce82a919afb1c8764",
      "function": "sell(uint256)",
      "arguments": [
        "737220440011"
      ],
      "transaction": {
        "from": "0xc77f7fed3b5cc8249adc428c5f44c9063b9734b4",
        "to": "0x8aafd3ede9adb0ff97c7aebce82a919afb1c8764",
        "gas": "0x1722a",
        "value": "0x0",
        "input": "0xe4849b32000000000000000000000000000000000000000000000000000000aba5c32fcb",
        "nonce": "0x15e4",
        "chainId": "0xaa36a7"
      },
      "additionalContracts": [],
      "isFixedGasLimit": false
    }
  ],
  "receipts": [
    {
      "status": "0x1",
      "cumulativeGasUsed": "0x12adb9e",
      "logs": [
        {
          "address": "0x8aafd3ede9adb0ff97c7aebce82a919afb1c8764",
          "topics": [
            "0xddf252ad1be2c89b69c2b068fc378daa952ba7f163c4a11628f55a4df523b3ef",
            "0x000000000000000000000000c77f7fed3b5cc8249adc428c5f44c9063b9734b4",
            "0x0000000000000000000000000000000000000000000000000000000000000000"
          ],
          "data": "0x000000000000000000000000000000000000000000000000000000aa463a750b",
          "blockHash": "0x7d8e43877b053b2dfe811faae80d141a2b7f56f400ec0fa0e57bacb2006d8a8f",
          "blockNumber": "0x731d66",
          "transactionHash": "0x16999f28bf0ad3d87b51f9a1f53a74ad064e07a8339c86e4cb9e6ba513da59dc",
          "transactionIndex": "0x6a",
          "logIndex": "0xdb",
          "removed": false
        },
        {
          "address": "0x8aafd3ede9adb0ff97c7aebce82a919afb1c8764",
          "topics": [
            "0xddf252ad1be2c89b69c2b068fc378daa952ba7f163c4a11628f55a4df523b3ef",
            "0x000000000000000000000000c77f7fed3b5cc8249adc428c5f44c9063b9734b4",
            "0x000000000000000000000000c77f7fed3b5cc8249adc428c5f44c9063b9734b4"
          ],
          "data": "0x000000000000000000000000000000000000000000000000000000015f88bac0",
          "blockHash": "0x7d8e43877b053b2dfe811faae80d141a2b7f56f400ec0fa0e57bacb2006d8a8f",
          "blockNumber": "0x731d66",
          "transactionHash": "0x16999f28bf0ad3d87b51f9a1f53a74ad064e07a8339c86e4cb9e6ba513da59dc",
          "transactionIndex": "0x6a",
          "logIndex": "0xdc",
          "removed": false
        },
        {
          "address": "0x8aafd3ede9adb0ff97c7aebce82a919afb1c8764",
          "topics": [
            "0x4afcb4a87cdbd9974efdb92ee48bc8d7cd0ae4bf217004db3d080cbaee652ca7"
          ],
          "data": "0x0000000000000000000000000000000000000000000000000000000067905db00000000000000000000000000000000000000000000000000013b48955bbf0d900000000000000000000000000000000000000000000000000000000f3b961e2",
          "blockHash": "0x7d8e43877b053b2dfe811faae80d141a2b7f56f400ec0fa0e57bacb2006d8a8f",
          "blockNumber": "0x731d66",
          "transactionHash": "0x16999f28bf0ad3d87b51f9a1f53a74ad064e07a8339c86e4cb9e6ba513da59dc",
          "transactionIndex": "0x6a",
          "logIndex": "0xdd",
          "removed": false
        }
      ],
      "logsBloom": "0x00000000000000000000000000000000000000000600000000000000000000000000000000000000000000000000000000000000000000004000000000000000000000000000004000000008000000000000000000000000000000000000000000000000020000000000000000000800020000000000000000000010000000000000000000000000000000000000000000000000000000000000010000000000000000000000000000000000000000004000000000000000000000000000000000000002000000800000000000000000000000000000080000000000000020000000000000000000000000000000000000000000000000000000000000000000",
      "type": "0x2",
      "transactionHash": "0x16999f28bf0ad3d87b51f9a1f53a74ad064e07a8339c86e4cb9e6ba513da59dc",
      "transactionIndex": "0x6a",
      "blockHash": "0x7d8e43877b053b2dfe811faae80d141a2b7f56f400ec0fa0e57bacb2006d8a8f",
      "blockNumber": "0x731d66",
      "gasUsed": "0xfd1b",
      "effectiveGasPrice": "0x5c321f40",
      "from": "0xc77f7fed3b5cc8249adc428c5f44c9063b9734b4",
      "to": "0x8aafd3ede9adb0ff97c7aebce82a919afb1c8764",
      "contractAddress": null
    }
  ],
  "libraries": [],
  "pending": [],
  "returns": {},
  "timestamp": 1737514417,
  "chain": 11155111,
  "commit": "1d2fb70"
}