{
  "transactions": [
    {
      "hash": "0x29d57859bb2cde0cf0bec1637e3746b160b7bfbd3f7c686d4af70c9b6e5b9729",
      "transactionType": "CALL",
      "contractName": null,
      "contractAddress": "0xbf4a322f1496e5c3d34a9bcdb4c60567b38c7de2",
      "function": "sell(uint256)",
      "arguments": [
        "986092286964253333429"
      ],
      "transaction": {
        "from": "0xc77f7fed3b5cc8249adc428c5f44c9063b9734b4",
        "to": "0xbf4a322f1496e5c3d34a9bcdb4c60567b38c7de2",
        "gas": "0x15b68",
        "value": "0x0",
        "input": "0xe4849b3200000000000000000000000000000000000000000000003574c78e7400e017b5",
        "nonce": "0xa55",
        "chainId": "0xaa36a7"
      },
      "additionalContracts": [],
      "isFixedGasLimit": false
    }
  ],
  "receipts": [
    {
      "status": "0x1",
      "cumulativeGasUsed": "0xa76c5b",
      "logs": [
        {
          "address": "0xbf4a322f1496e5c3d34a9bcdb4c60567b38c7de2",
          "topics": [
            "0xddf252ad1be2c89b69c2b068fc378daa952ba7f163c4a11628f55a4df523b3ef",
            "0x000000000000000000000000c77f7fed3b5cc8249adc428c5f44c9063b9734b4",
            "0x0000000000000000000000000000000000000000000000000000000000000000"
          ],
          "data": "0x00000000000000000000000000000000000000000000003574c78e7400e017b5",
          "blockHash": "0xb1e540f0b848b0e5bc9e0b7192d41e545d04cd3d3221105c26d9d9939f9214ac",
          "blockNumber": "0x725a2e",
          "transactionHash": "0x29d57859bb2cde0cf0bec1637e3746b160b7bfbd3f7c686d4af70c9b6e5b9729",
          "transactionIndex": "0x61",
          "logIndex": "0x84",
          "removed": false
        },
        {
          "address": "0xbf4a322f1496e5c3d34a9bcdb4c60567b38c7de2",
          "topics": [
            "0x4afcb4a87cdbd9974efdb92ee48bc8d7cd0ae4bf217004db3d080cbaee652ca7"
          ],
          "data": "0x0000000000000000000000000000000000000000000000000000000067872c78000000000000000000000000000000000000000000000000000393e4d3fbf2ee0000000000000000000000000000000000000000000000000dc7e3f03b2005a8",
          "blockHash": "0xb1e540f0b848b0e5bc9e0b7192d41e545d04cd3d3221105c26d9d9939f9214ac",
          "blockNumber": "0x725a2e",
          "transactionHash": "0x29d57859bb2cde0cf0bec1637e3746b160b7bfbd3f7c686d4af70c9b6e5b9729",
          "transactionIndex": "0x61",
          "logIndex": "0x85",
          "removed": false
        }
      ],
      "logsBloom": "0x00000000000000000000000000000000000000000000000000000000000000000000000000000000000000000000000000000000000000004000000000000000000000000000000000000008000000000000001000000000000000000000000000000000020000000000000000000800020000000000000000000010000000000000000000000000000000000000000000000000000008000000010000000000000000000000000000000000000000004000000000000000000000000000000000000002000000800000000000001000000000000000080000000000000020000000000000000000000000000000000000000000000000000000000000000000",
      "type": "0x2",
      "transactionHash": "0x29d57859bb2cde0cf0bec1637e3746b160b7bfbd3f7c686d4af70c9b6e5b9729",
      "transactionIndex": "0x61",
      "blockHash": "0xb1e540f0b848b0e5bc9e0b7192d41e545d04cd3d3221105c26d9d9939f9214ac",
      "blockNumber": "0x725a2e",
      "gasUsed": "0xfb85",
      "effectiveGasPrice": "0x4b168fae5",
      "from": "0xc77f7fed3b5cc8249adc428c5f44c9063b9734b4",
      "to": "0xbf4a322f1496e5c3d34a9bcdb4c60567b38c7de2",
      "contractAddress": null
    }
  ],
  "libraries": [],
  "pending": [],
  "returns": {},
  "timestamp": 1736911993,
  "chain": 11155111,
  "commit": "51a374b"
}