{
  "transactions": [
    {
      "hash": "0x5dbb2e74eef8d00eaa9d5b15313905d19fc01b8388706ca50432dbb645a133f0",
      "transactionType": "CALL",
      "contractName": null,
      "contractAddress": "0xbf4a322f1496e5c3d34a9bcdb4c60567b38c7de2",
      "function": "sell(uint256)",
      "arguments": [
        "976747456241823249468"
      ],
      "transaction": {
        "from": "0xc77f7fed3b5cc8249adc428c5f44c9063b9734b4",
        "to": "0xbf4a322f1496e5c3d34a9bcdb4c60567b38c7de2",
        "gas": "0x16fea",
        "value": "0x0",
        "input": "0xe4849b32000000000000000000000000000000000000000000000034f3180c6c1045f43c",
        "nonce": "0xd0b",
        "chainId": "0xaa36a7"
      },
      "additionalContracts": [],
      "isFixedGasLimit": false
    }
  ],
  "receipts": [
    {
      "status": "0x1",
      "cumulativeGasUsed": "0xc491e4",
      "logs": [
        {
          "address": "0xbf4a322f1496e5c3d34a9bcdb4c60567b38c7de2",
          "topics": [
            "0xddf252ad1be2c89b69c2b068fc378daa952ba7f163c4a11628f55a4df523b3ef",
            "0x000000000000000000000000c77f7fed3b5cc8249adc428c5f44c9063b9734b4",
            "0x0000000000000000000000000000000000000000000000000000000000000000"
          ],
          "data": "0x000000000000000000000000000000000000000000000034f3180c6c1045f43c",
          "blockHash": "0xa6fa93b0147a5551af1e78cdb4a545b84f4b708e18c9584789eddc90b9737bbb",
          "blockNumber": "0x725d65",
          "transactionHash": "0x5dbb2e74eef8d00eaa9d5b15313905d19fc01b8388706ca50432dbb645a133f0",
          "transactionIndex": "0x93",
          "logIndex": "0xcf",
          "removed": false
        },
        {
          "address": "0xbf4a322f1496e5c3d34a9bcdb4c60567b38c7de2",
          "topics": [
            "0x4afcb4a87cdbd9974efdb92ee48bc8d7cd0ae4bf217004db3d080cbaee652ca7"
          ],
          "data": "0x000000000000000000000000000000000000000000000000000000006787533000000000000000000000000000000000000000000000000000039ca7ffa51e850000000000000000000000000000000000000000000000000dc7e3da810745d3",
          "blockHash": "0xa6fa93b0147a5551af1e78cdb4a545b84f4b708e18c9584789eddc90b9737bbb",
          "blockNumber": "0x725d65",
          "transactionHash": "0x5dbb2e74eef8d00eaa9d5b15313905d19fc01b8388706ca50432dbb645a133f0",
          "transactionIndex": "0x93",
          "logIndex": "0xd0",
          "removed": false
        }
      ],
      "logsBloom": "0x00000000000000000000000000000000000000000000000000000000000000000000000000000000000000000000000000000000000000004000000000000000000000000000000000000008000000000000001000000000000000000000000000000000020000000000000000000800020000000000000000000010000000000000000000000000000000000000000000000000000008000000010000000000000000000000000000000000000000004000000000000000000000000000000000000002000000800000000000001000000000000000080000000000000020000000000000000000000000000000000000000000000000000000000000000000",
      "type": "0x2",
      "transactionHash": "0x5dbb2e74eef8d00eaa9d5b15313905d19fc01b8388706ca50432dbb645a133f0",
      "transactionIndex": "0x93",
      "blockHash": "0xa6fa93b0147a5551af1e78cdb4a545b84f4b708e18c9584789eddc90b9737bbb",
      "blockNumber": "0x725d65",
      "gasUsed": "0xfb91",
      "effectiveGasPrice": "0x2daf3ab6c",
      "from": "0xc77f7fed3b5cc8249adc428c5f44c9063b9734b4",
      "to": "0xbf4a322f1496e5c3d34a9bcdb4c60567b38c7de2",
      "contractAddress": null
    }
  ],
  "libraries": [],
  "pending": [],
  "returns": {},
  "timestamp": 1736921905,
  "chain": 11155111,
  "commit": "51a374b"
}