{
  "transactions": [
    {
      "hash": "0x953702674d6bf73ea1cea189fd0ee2a128a9bde501165f3bb23c2949b228730e",
      "transactionType": "CALL",
      "contractName": null,
      "contractAddress": "0x270e88f8683660553e8ba4eb2ad7c91a1710d769",
      "function": "sell(uint256)",
      "arguments": [
        "757380223484519841418"
      ],
      "transaction": {
        "from": "0xc77f7fed3b5cc8249adc428c5f44c9063b9734b4",
        "to": "0x270e88f8683660553e8ba4eb2ad7c91a1710d769",
        "gas": "0x16fec",
        "value": "0x0",
        "input": "0xe4849b320000000000000000000000000000000000000000000000290ec3147c9cc4fe8a",
        "nonce": "0x67c",
        "chainId": "0xaa36a7"
      },
      "additionalContracts": [],
      "isFixedGasLimit": false
    }
  ],
  "receipts": [
    {
      "status": "0x1",
      "cumulativeGasUsed": "0x79ee6d",
      "logs": [
        {
          "address": "0x270e88f8683660553e8ba4eb2ad7c91a1710d769",
          "topics": [
            "0xddf252ad1be2c89b69c2b068fc378daa952ba7f163c4a11628f55a4df523b3ef",
            "0x000000000000000000000000c77f7fed3b5cc8249adc428c5f44c9063b9734b4",
            "0x0000000000000000000000000000000000000000000000000000000000000000"
          ],
          "data": "0x0000000000000000000000000000000000000000000000290ec3147c9cc4fe8a",
          "blockHash": "0x2d10568424aeb58d9480a77780ce7d2cdc55b417440ebe43f9ebd2259506b46a",
          "blockNumber": "0x72537b",
          "transactionHash": "0x953702674d6bf73ea1cea189fd0ee2a128a9bde501165f3bb23c2949b228730e",
          "transactionIndex": "0x2a",
          "logIndex": "0xb1",
          "removed": false
        },
        {
          "address": "0x270e88f8683660553e8ba4eb2ad7c91a1710d769",
          "topics": [
            "0x4afcb4a87cdbd9974efdb92ee48bc8d7cd0ae4bf217004db3d080cbaee652ca7"
          ],
          "data": "0x000000000000000000000000000000000000000000000000000000006786dbcc0000000000000000000000000000000000000000000000000004a8bbcade304e0000000000000000000000000000000000000000000000000dc82a4c520445a4",
          "blockHash": "0x2d10568424aeb58d9480a77780ce7d2cdc55b417440ebe43f9ebd2259506b46a",
          "blockNumber": "0x72537b",
          "transactionHash": "0x953702674d6bf73ea1cea189fd0ee2a128a9bde501165f3bb23c2949b228730e",
          "transactionIndex": "0x2a",
          "logIndex": "0xb2",
          "removed": false
        }
      ],
      "logsBloom": "0x00000000000000000000000000000000000000000000000000000000000000000000000000000000000000000000000020000000000000004000000000000000000000000000000000000008000000000000000000000000000000000000000000000000020000000000000000000800020000000000000000000010000000000000000000010000000000000000000000000000000000000000010000000000000000000000000000000000000000004000000000000000000000000000000000000002000000800000000000000000000000000000080000008000000020000000000000000000000000000000000000000000000000000000000000000000",
      "type": "0x2",
      "transactionHash": "0x953702674d6bf73ea1cea189fd0ee2a128a9bde501165f3bb23c2949b228730e",
      "transactionIndex": "0x2a",
      "blockHash": "0x2d10568424aeb58d9480a77780ce7d2cdc55b417440ebe43f9ebd2259506b46a",
      "blockNumber": "0x72537b",
      "gasUsed": "0xfb93",
      "effectiveGasPrice": "0x1eab2cba2",
      "from": "0xc77f7fed3b5cc8249adc428c5f44c9063b9734b4",
      "to": "0x270e88f8683660553e8ba4eb2ad7c91a1710d769",
      "contractAddress": null
    }
  ],
  "libraries": [],
  "pending": [],
  "returns": {},
  "timestamp": 1736891340,
  "chain": 11155111,
  "commit": "51a374b"
}