{
  "transactions": [
    {
      "hash": "0x5dfd8a1275e0a5eff3f33a0ee80f7386799df9b24a57dd44a7cd6b10f74c47b7",
      "transactionType": "CALL",
      "contractName": null,
      "contractAddress": "0x270e88f8683660553e8ba4eb2ad7c91a1710d769",
      "function": "buy(address)",
      "arguments": [
        "0xC77f7fed3b5Cc8249aDc428c5F44C9063B9734b4"
      ],
      "transaction": {
        "from": "0xc77f7fed3b5cc8249adc428c5f44c9063b9734b4",
        "to": "0x270e88f8683660553e8ba4eb2ad7c91a1710d769",
        "gas": "0x1b30c",
        "value": "0xde0b6b3a7640000",
        "input": "0xf088d547000000000000000000000000c77f7fed3b5cc8249adc428c5f44c9063b9734b4",
        "nonce": "0x566",
        "chainId": "0xaa36a7"
      },
      "additionalContracts": [],
      "isFixedGasLimit": false
    }
  ],
  "receipts": [
    {
      "status": "0x1",
      "cumulativeGasUsed": "0xa0b2cc",
      "logs": [
        {
          "address": "0x270e88f8683660553e8ba4eb2ad7c91a1710d769",
          "topics": [
            "0xddf252ad1be2c89b69c2b068fc378daa952ba7f163c4a11628f55a4df523b3ef",
            "0x0000000000000000000000000000000000000000000000000000000000000000",
            "0x000000000000000000000000c77f7fed3b5cc8249adc428c5f44c9063b9734b4"
          ],
          "data": "0x0000000000000000000000000000000000000000000000346fcbe90e05c65592",
          "blockHash": "0xcd9ee0cfed54cd7cd5d0113caf265205a833eff93c2aa5e540817e735d7d4b78",
          "blockNumber": "0x72520c",
          "transactionHash": "0x5dfd8a1275e0a5eff3f33a0ee80f7386799df9b24a57dd44a7cd6b10f74c47b7",
          "transactionIndex": "0x5b",
          "logIndex": "0xd4",
          "removed": false
        },
        {
          "address": "0x270e88f8683660553e8ba4eb2ad7c91a1710d769",
          "topics": [
            "0xddf252ad1be2c89b69c2b068fc378daa952ba7f163c4a11628f55a4df523b3ef",
            "0x0000000000000000000000000000000000000000000000000000000000000000",
            "0x000000000000000000000000c77f7fed3b5cc8249adc428c5f44c9063b9734b4"
          ],
          "data": "0x00000000000000000000000000000000000000000000000028b8092fcaa7729e",
          "blockHash": "0xcd9ee0cfed54cd7cd5d0113caf265205a833eff93c2aa5e540817e735d7d4b78",
          "blockNumber": "0x72520c",
          "transactionHash": "0x5dfd8a1275e0a5eff3f33a0ee80f7386799df9b24a57dd44a7cd6b10f74c47b7",
          "transactionIndex": "0x5b",
          "logIndex": "0xd5",
          "removed": false
        },
        {
          "address": "0x270e88f8683660553e8ba4eb2ad7c91a1710d769",
          "topics": [
            "0x4afcb4a87cdbd9974efdb92ee48bc8d7cd0ae4bf217004db3d080cbaee652ca7"
          ],
          "data": "0x000000000000000000000000000000000000000000000000000000006786ca800000000000000000000000000000000000000000000000000003a2f49ebe4ad10000000000000000000000000000000000000000000000000de0b6b3a7640000",
          "blockHash": "0xcd9ee0cfed54cd7cd5d0113caf265205a833eff93c2aa5e540817e735d7d4b78",
          "blockNumber": "0x72520c",
          "transactionHash": "0x5dfd8a1275e0a5eff3f33a0ee80f7386799df9b24a57dd44a7cd6b10f74c47b7",
          "transactionIndex": "0x5b",
          "logIndex": "0xd6",
          "removed": false
        }
      ],
      "logsBloom": "0x00000000000000000000000000000000000000000000000000000000000000000000000000000000000000000000000020000000000000004000000000000000000000000000000000000008000000000000000000000000000000000000000000000000020000000000000000000800020000000000000000000010000000000000000000010000000000000000000000000000000000000000010000000000000000000000000000000000000000004000000000000000000000000000000000000002000000800000000000000000000000000000080000008000000020000000000000000000000000000000000000000000000000000000000000000000",
      "type": "0x2",
      "transactionHash": "0x5dfd8a1275e0a5eff3f33a0ee80f7386799df9b24a57dd44a7cd6b10f74c47b7",
      "transactionIndex": "0x5b",
      "blockHash": "0xcd9ee0cfed54cd7cd5d0113caf265205a833eff93c2aa5e540817e735d7d4b78",
      "blockNumber": "0x72520c",
      "gasUsed": "0x13af8",
      "effectiveGasPrice": "0x4d14d2426",
      "from": "0xc77f7fed3b5cc8249adc428c5f44c9063b9734b4",
      "to": "0x270e88f8683660553e8ba4eb2ad7c91a1710d769",
      "contractAddress": null
    }
  ],
  "libraries": [],
  "pending": [],
  "returns": {},
  "timestamp": 1736886912,
  "chain": 11155111,
  "commit": "51a374b"
}