{
  "transactions": [
    {
      "hash": "0xce903397173543911833c2165f6fa25dfbd21ac8302da97a8c1690941d0be729",
      "transactionType": "CALL",
      "contractName": null,
      "contractAddress": "0x5eb9cc76c3506942c1c0ead70e877dd5e4f00cb0",
      "function": "sell(uint256)",
      "arguments": [
        "989123265212586848644"
      ],
      "transaction": {
        "from": "0xc77f7fed3b5cc8249adc428c5f44c9063b9734b4",
        "to": "0x5eb9cc76c3506942c1c0ead70e877dd5e4f00cb0",
        "gas": "0x16fec",
        "value": "0x0",
        "input": "0xe4849b320000000000000000000000000000000000000000000000359ed7c11c76baf184",
        "nonce": "0x36f",
        "chainId": "0xaa36a7"
      },
      "additionalContracts": [],
      "isFixedGasLimit": false
    }
  ],
  "receipts": [
    {
      "status": "0x1",
      "cumulativeGasUsed": "0x9a8ff4",
      "logs": [
        {
          "address": "0x5eb9cc76c3506942c1c0ead70e877dd5e4f00cb0",
          "topics": [
            "0xddf252ad1be2c89b69c2b068fc378daa952ba7f163c4a11628f55a4df523b3ef",
            "0x000000000000000000000000c77f7fed3b5cc8249adc428c5f44c9063b9734b4",
            "0x0000000000000000000000000000000000000000000000000000000000000000"
          ],
          "data": "0x0000000000000000000000000000000000000000000000359ed7c11c76baf184",
          "blockHash": "0xc0199533f9ae17e867738bb18e8dac2bff1f8774a6cf40e1882c7970bd1165e9",
          "blockNumber": "0x724f65",
          "transactionHash": "0xce903397173543911833c2165f6fa25dfbd21ac8302da97a8c1690941d0be729",
          "transactionIndex": "0x42",
          "logIndex": "0x60",
          "removed": false
        },
        {
          "address": "0x5eb9cc76c3506942c1c0ead70e877dd5e4f00cb0",
          "topics": [
            "0x4afcb4a87cdbd9974efdb92ee48bc8d7cd0ae4bf217004db3d080cbaee652ca7"
          ],
          "data": "0x000000000000000000000000000000000000000000000000000000006786aa700000000000000000000000000000000000000000000000000003910ff95b82a40000000000000000000000000000000000000000000000000dc7db133210d880",
          "blockHash": "0xc0199533f9ae17e867738bb18e8dac2bff1f8774a6cf40e1882c7970bd1165e9",
          "blockNumber": "0x724f65",
          "transactionHash": "0xce903397173543911833c2165f6fa25dfbd21ac8302da97a8c1690941d0be729",
          "transactionIndex": "0x42",
          "logIndex": "0x61",
          "removed": false
        }
      ],
      "logsBloom": "0x00000000000000000000000000000000000000000000000000000000000000000000000000000000000000000000000000000000000000004000000000000000000000000000000000000008000000000000000000000000000000000000000000000000020000000000000004000800020000000000000000000010000000000000000000000000000000000000000000000000000000000000010000000000000000000000000000000000000000004000000000000000000000000000020000000002000000800000008000000000000000000000080000000000000020000000000000000000000000000000000000000000000000000000000000000000",
      "type": "0x2",
      "transactionHash": "0xce903397173543911833c2165f6fa25dfbd21ac8302da97a8c1690941d0be729",
      "transactionIndex": "0x42",
      "blockHash": "0xc0199533f9ae17e867738bb18e8dac2bff1f8774a6cf40e1882c7970bd1165e9",
      "blockNumber": "0x724f65",
      "gasUsed": "0xfb93",
      "effectiveGasPrice": "0x5cd661402",
      "from": "0xc77f7fed3b5cc8249adc428c5f44c9063b9734b4",
      "to": "0x5eb9cc76c3506942c1c0ead70e877dd5e4f00cb0",
      "contractAddress": null
    }
  ],
  "libraries": [],
  "pending": [],
  "returns": {},
  "timestamp": 1736878706,
  "chain": 11155111,
  "commit": "51a374b"
}