{
  "transactions": [
    {
      "hash": "0x7a2e872a1caf3067775004804ee6b130863fd5bf76eeb07e0806c933363c95a5",
      "transactionType": "CALL",
      "contractName": null,
      "contractAddress": "0x8aafd3ede9adb0ff97c7aebce82a919afb1c8764",
      "function": "sell(uint256)",
      "arguments": [
        "194140229"
      ],
      "transaction": {
        "from": "0xc77f7fed3b5cc8249adc428c5f44c9063b9734b4",
        "to": "0x8aafd3ede9adb0ff97c7aebce82a919afb1c8764",
        "gas": "0x14e6c",
        "value": "0x0",
        "input": "0xe4849b32000000000000000000000000000000000000000000000000000000000b925845",
        "nonce": "0xfb3",
        "chainId": "0xaa36a7"
      },
      "additionalContracts": [],
      "isFixedGasLimit": false
    }
  ],
  "receipts": [
    {
      "status": "0x1",
      "cumulativeGasUsed": "0xc86ae7",
      "logs": [
        {
          "address": "0x8aafd3ede9adb0ff97c7aebce82a919afb1c8764",
          "topics": [
            "0xddf252ad1be2c89b69c2b068fc378daa952ba7f163c4a11628f55a4df523b3ef",
            "0x000000000000000000000000c77f7fed3b5cc8249adc428c5f44c9063b9734b4",
            "0x0000000000000000000000000000000000000000000000000000000000000000"
          ],
          "data": "0x000000000000000000000000000000000000000000000000000000000b7aa564",
          "blockHash": "0xa65451a7350fdf84956bbf1099dd9c0c939f50b7ad2dcec1cf4c42d73f9f81aa",
          "blockNumber": "0x73161e",
          "transactionHash": "0x7a2e872a1caf3067775004804ee6b130863fd5bf76eeb07e0806c933363c95a5",
          "transactionIndex": "0x84",
          "logIndex": "0xa7",
          "removed": false
        },
        {
          "address": "0x8aafd3ede9adb0ff97c7aebce82a919afb1c8764",
          "topics": [
            "0xddf252ad1be2c89b69c2b068fc378daa952ba7f163c4a11628f55a4df523b3ef",
            "0x000000000000000000000000c77f7fed3b5cc8249adc428c5f44c9063b9734b4",
            "0x000000000000000000000000c77f7fed3b5cc8249adc428c5f44c9063b9734b4"
          ],
          "data": "0x000000000000000000000000000000000000000000000000000000000017b2e1",
          "blockHash": "0xa65451a7350fdf84956bbf1099dd9c0c939f50b7ad2dcec1cf4c42d73f9f81aa",
          "blockNumber": "0x73161e",
          "transactionHash": "0x7a2e872a1caf3067775004804ee6b130863fd5bf76eeb07e0806c933363c95a5",
          "transactionIndex": "0x84",
          "logIndex": "0xa8",
          "removed": false
        },
        {
          "address": "0x8aafd3ede9adb0ff97c7aebce82a919afb1c8764",
          "topics": [
            "0x4afcb4a87cdbd9974efdb92ee48bc8d7cd0ae4bf217004db3d080cbaee652ca7"
          ],
          "data": "0x00000000000000000000000000000000000000000000000000000000679006140000000000000000000000000000000000000000000000000004c3cf240dae22000000000000000000000000000000000000000000000000000000000003f91b",
          "blockHash": "0xa65451a7350fdf84956bbf1099dd9c0c939f50b7ad2dcec1cf4c42d73f9f81aa",
          "blockNumber": "0x73161e",
          "transactionHash": "0x7a2e872a1caf3067775004804ee6b130863fd5bf76eeb07e0806c933363c95a5",
          "transactionIndex": "0x84",
          "logIndex": "0xa9",
          "removed": false
        }
      ],
      "logsBloom": "0x00000000000000000000000000000000000000000600000000000000000000000000000000000000000000000000000000000000000000004000000000000000000000000000004000000008000000000000000000000000000000000000000000000000020000000000000000000800020000000000000000000010000000000000000000000000000000000000000000000000000000000000010000000000000000000000000000000000000000004000000000000000000000000000000000000002000000800000000000000000000000000000080000000000000020000000000000000000000000000000000000000000000000000000000000000000",
      "type": "0x2",
      "transactionHash": "0x7a2e872a1caf3067775004804ee6b130863fd5bf76eeb07e0806c933363c95a5",
      "transactionIndex": "0x84",
      "blockHash": "0xa65451a7350fdf84956bbf1099dd9c0c939f50b7ad2dcec1cf4c42d73f9f81aa",
      "blockNumber": "0x73161e",
      "gasUsed": "0xf21f",
      "effectiveGasPrice": "0x5d4d5eb9",
      "from": "0xc77f7fed3b5cc8249adc428c5f44c9063b9734b4",
      "to": "0x8aafd3ede9adb0ff97c7aebce82a919afb1c8764",
      "contractAddress": null
    }
  ],
  "libraries": [],
  "pending": [],
  "returns": {},
  "timestamp": 1737491989,
  "chain": 11155111,
  "commit": "1d2fb70"
}