{
  "transactions": [
    {
      "hash": "0x9534dc9397c0c5e74eddfa8aa0fcb02e176f8b6583f8ebe05a3c4eb861765308",
      "transactionType": "CALL",
      "contractName": null,
      "contractAddress": "0xbf4a322f1496e5c3d34a9bcdb4c60567b38c7de2",
      "function": "sell(uint256)",
      "arguments": [
        "975495328549774518003"
      ],
      "transaction": {
        "from": "0xc77f7fed3b5cc8249adc428c5f44c9063b9734b4",
        "to": "0xbf4a322f1496e5c3d34a9bcdb4c60567b38c7de2",
        "gas": "0x16fea",
        "value": "0x0",
        "input": "0xe4849b32000000000000000000000000000000000000000000000034e1b798eb964766f3",
        "nonce": "0xd69",
        "chainId": "0xaa36a7"
      },
      "additionalContracts": [],
      "isFixedGasLimit": false
    }
  ],
  "receipts": [
    {
      "status": "0x1",
      "cumulativeGasUsed": "0x720689",
      "logs": [
        {
          "address": "0xbf4a322f1496e5c3d34a9bcdb4c60567b38c7de2",
          "topics": [
            "0xddf252ad1be2c89b69c2b068fc378daa952ba7f163c4a11628f55a4df523b3ef",
            "0x000000000000000000000000c77f7fed3b5cc8249adc428c5f44c9063b9734b4",
            "0x0000000000000000000000000000000000000000000000000000000000000000"
          ],
          "data": "0x000000000000000000000000000000000000000000000034e1b798eb964766f3",
          "blockHash": "0x5c9a3ff5fce8b45f124bfd28fa3631c159bb60fa5ba151f3e65a2abfe63187db",
          "blockNumber": "0x726610",
          "transactionHash": "0x9534dc9397c0c5e74eddfa8aa0fcb02e176f8b6583f8ebe05a3c4eb861765308",
          "transactionIndex": "0x3f",
          "logIndex": "0x60",
          "removed": false
        },
        {
          "address": "0xbf4a322f1496e5c3d34a9bcdb4c60567b38c7de2",
          "topics": [
            "0x4afcb4a87cdbd9974efdb92ee48bc8d7cd0ae4bf217004db3d080cbaee652ca7"
          ],
          "data": "0x000000000000000000000000000000000000000000000000000000006787bb7000000000000000000000000000000000000000000000000000039dd7d45695750000000000000000000000000000000000000000000000000dc7e3d797be59f9",
          "blockHash": "0x5c9a3ff5fce8b45f124bfd28fa3631c159bb60fa5ba151f3e65a2abfe63187db",
          "blockNumber": "0x726610",
          "transactionHash": "0x9534dc9397c0c5e74eddfa8aa0fcb02e176f8b6583f8ebe05a3c4eb861765308",
          "transactionIndex": "0x3f",
          "logIndex": "0x61",
          "removed": false
        }
      ],
      "logsBloom": "0x00000000000000000000000000000000000000000000000000000000000000000000000000000000000000000000000000000000000000004000000000000000000000000000000000000008000000000000001000000000000000000000000000000000020000000000000000000800020000000000000000000010000000000000000000000000000000000000000000000000000008000000010000000000000000000000000000000000000000004000000000000000000000000000000000000002000000800000000000001000000000000000080000000000000020000000000000000000000000000000000000000000000000000000000000000000",
      "type": "0x2",
      "transactionHash": "0x9534dc9397c0c5e74eddfa8aa0fcb02e176f8b6583f8ebe05a3c4eb861765308",
      "transactionIndex": "0x3f",
      "blockHash": "0x5c9a3ff5fce8b45f124bfd28fa3631c159bb60fa5ba151f3e65a2abfe63187db",
      "blockNumber": "0x726610",
      "gasUsed": "0xfb91",
      "effectiveGasPrice": "0x73c2a885",
      "from": "0xc77f7fed3b5cc8249adc428c5f44c9063b9734b4",
      "to": "0xbf4a322f1496e5c3d34a9bcdb4c60567b38c7de2",
      "contractAddress": null
    }
  ],
  "libraries": [],
  "pending": [],
  "returns": {},
  "timestamp": 1736948592,
  "chain": 11155111,
  "commit": "51a374b"
}