{
  "transactions": [
    {
      "hash": "0xede1c87bf9f209d2712e6d0ea80e2cdc7473758010deb8d1a94fc32ff15a3abf",
      "transactionType": "CALL",
      "contractName": null,
      "contractAddress": "0x270e88f8683660553e8ba4eb2ad7c91a1710d769",
      "function": "buy(address)",
      "arguments": [
        "0xC77f7fed3b5Cc8249aDc428c5F44C9063B9734b4"
      ],
      "transaction": {
        "from": "0xc77f7fed3b5cc8249adc428c5f44c9063b9734b4",
        "to": "0x270e88f8683660553e8ba4eb2ad7c91a1710d769",
        "gas": "0x1b30c",
        "value": "0xde0b6b3a7640000",
        "input": "0xf088d547000000000000000000000000c77f7fed3b5cc8249adc428c5f44c9063b9734b4",
        "nonce": "0x6c9",
        "chainId": "0xaa36a7"
      },
      "additionalContracts": [],
      "isFixedGasLimit": false
    }
  ],
  "receipts": [
    {
      "status": "0x1",
      "cumulativeGasUsed": "0x1e752a7",
      "logs": [
        {
          "address": "0x270e88f8683660553e8ba4eb2ad7c91a1710d769",
          "topics": [
            "0xddf252ad1be2c89b69c2b068fc378daa952ba7f163c4a11628f55a4df523b3ef",
            "0x0000000000000000000000000000000000000000000000000000000000000000",
            "0x000000000000000000000000c77f7fed3b5cc8249adc428c5f44c9063b9734b4"
          ],
          "data": "0x0000000000000000000000000000000000000000000000288b89f7e3d32b234a",
          "blockHash": "0xb1ed4106707a45646badfc314a8a04ef98e4ab2daae13569b9177c266ea1bb74",
          "blockNumber": "0x7253d7",
          "transactionHash": "0xede1c87bf9f209d2712e6d0ea80e2cdc7473758010deb8d1a94fc32ff15a3abf",
          "transactionIndex": "0x7a",
          "logIndex": "0xe6",
          "removed": false
        },
        {
          "address": "0x270e88f8683660553e8ba4eb2ad7c91a1710d769",
          "topics": [
            "0xddf252ad1be2c89b69c2b068fc378daa952ba7f163c4a11628f55a4df523b3ef",
            "0x0000000000000000000000000000000000000000000000000000000000000000",
            "0x000000000000000000000000c77f7fed3b5cc8249adc428c5f44c9063b9734b4"
          ],
          "data": "0x0000000000000000000000000000000000000000000000001f7c10e7624236c2",
          "blockHash": "0xb1ed4106707a45646badfc314a8a04ef98e4ab2daae13569b9177c266ea1bb74",
          "blockNumber": "0x7253d7",
          "transactionHash": "0xede1c87bf9f209d2712e6d0ea80e2cdc7473758010deb8d1a94fc32ff15a3abf",
          "transactionIndex": "0x7a",
          "logIndex": "0xe7",
          "removed": false
        },
        {
          "address": "0x270e88f8683660553e8ba4eb2ad7c91a1710d769",
          "topics": [
            "0x4afcb4a87cdbd9974efdb92ee48bc8d7cd0ae4bf217004db3d080cbaee652ca7"
          ],
          "data": "0x000000000000000000000000000000000000000000000000000000006786e01c0000000000000000000000000000000000000000000000000004b3f81617ffc10000000000000000000000000000000000000000000000000de0b6b3a7640000",
          "blockHash": "0xb1ed4106707a45646badfc314a8a04ef98e4ab2daae13569b9177c266ea1bb74",
          "blockNumber": "0x7253d7",
          "transactionHash": "0xede1c87bf9f209d2712e6d0ea80e2cdc7473758010deb8d1a94fc32ff15a3abf",
          "transactionIndex": "0x7a",
          "logIndex": "0xe8",
          "removed": false
        }
      ],
      "logsBloom": "0x00000000000000000000000000000000000000000000000000000000000000000000000000000000000000000000000020000000000000004000000000000000000000000000000000000008000000000000000000000000000000000000000000000000020000000000000000000800020000000000000000000010000000000000000000010000000000000000000000000000000000000000010000000000000000000000000000000000000000004000000000000000000000000000000000000002000000800000000000000000000000000000080000008000000020000000000000000000000000000000000000000000000000000000000000000000",
      "type": "0x2",
      "transactionHash": "0xede1c87bf9f209d2712e6d0ea80e2cdc7473758010deb8d1a94fc32ff15a3abf",
      "transactionIndex": "0x7a",
      "blockHash": "0xb1ed4106707a45646badfc314a8a04ef98e4ab2daae13569b9177c266ea1bb74",
      "blockNumber": "0x7253d7",
      "gasUsed": "0x13af8",
      "effectiveGasPrice": "0x1546ecc1d",
      "from": "0xc77f7fed3b5cc8249adc428c5f44c9063b9734b4",
      "to": "0x270e88f8683660553e8ba4eb2ad7c91a1710d769",
      "contractAddress": null
    }
  ],
  "libraries": [],
  "pending": [],
  "returns": {},
  "timestamp": 1736892445,
  "chain": 11155111,
  "commit": "51a374b"
}