{
  "transactions": [
    {
      "hash": "0xb4a2b08452a82cd89bda135c5bbde27446c8fa61e236614b534a8d1a2c31f125",
      "transactionType": "CALL",
      "contractName": null,
      "contractAddress": "0x8aafd3ede9adb0ff97c7aebce82a919afb1c8764",
      "function": "sell(uint256)",
      "arguments": [
        "188954634"
      ],
      "transaction": {
        "from": "0xc77f7fed3b5cc8249adc428c5f44c9063b9734b4",
        "to": "0x8aafd3ede9adb0ff97c7aebce82a919afb1c8764",
        "gas": "0x14e6c",
        "value": "0x0",
        "input": "0xe4849b32000000000000000000000000000000000000000000000000000000000b43380a",
        "nonce": "0x1001",
        "chainId": "0xaa36a7"
      },
      "additionalContracts": [],
      "isFixedGasLimit": false
    }
  ],
  "receipts": [
    {
      "status": "0x1",
      "cumulativeGasUsed": "0xba2623",
      "logs": [
        {
          "address": "0x8aafd3ede9adb0ff97c7aebce82a919afb1c8764",
          "topics": [
            "0xddf252ad1be2c89b69c2b068fc378daa952ba7f163c4a11628f55a4df523b3ef",
            "0x000000000000000000000000c77f7fed3b5cc8249adc428c5f44c9063b9734b4",
            "0x0000000000000000000000000000000000000000000000000000000000000000"
          ],
          "data": "0x000000000000000000000000000000000000000000000000000000000b2c2735",
          "blockHash": "0x269e5212c12c9be60d7ef8f89c10cc8fcf52751a46e2de32abe9dfa66c80a296",
          "blockNumber": "0x731676",
          "transactionHash": "0xb4a2b08452a82cd89bda135c5bbde27446c8fa61e236614b534a8d1a2c31f125",
          "transactionIndex": "0x88",
          "logIndex": "0xc4",
          "removed": false
        },
        {
          "address": "0x8aafd3ede9adb0ff97c7aebce82a919afb1c8764",
          "topics": [
            "0xddf252ad1be2c89b69c2b068fc378daa952ba7f163c4a11628f55a4df523b3ef",
            "0x000000000000000000000000c77f7fed3b5cc8249adc428c5f44c9063b9734b4",
            "0x000000000000000000000000c77f7fed3b5cc8249adc428c5f44c9063b9734b4"
          ],
          "data": "0x00000000000000000000000000000000000000000000000000000000001710d5",
          "blockHash": "0x269e5212c12c9be60d7ef8f89c10cc8fcf52751a46e2de32abe9dfa66c80a296",
          "blockNumber": "0x731676",
          "transactionHash": "0xb4a2b08452a82cd89bda135c5bbde27446c8fa61e236614b534a8d1a2c31f125",
          "transactionIndex": "0x88",
          "logIndex": "0xc5",
          "removed": false
        },
        {
          "address": "0x8aafd3ede9adb0ff97c7aebce82a919afb1c8764",
          "topics": [
            "0x4afcb4a87cdbd9974efdb92ee48bc8d7cd0ae4bf217004db3d080cbaee652ca7"
          ],
          "data": "0x0000000000000000000000000000000000000000000000000000000067900a340000000000000000000000000000000000000000000000000004e666702b5236000000000000000000000000000000000000000000000000000000000003fa03",
          "blockHash": "0x269e5212c12c9be60d7ef8f89c10cc8fcf52751a46e2de32abe9dfa66c80a296",
          "blockNumber": "0x731676",
          "transactionHash": "0xb4a2b08452a82cd89bda135c5bbde27446c8fa61e236614b534a8d1a2c31f125",
          "transactionIndex": "0x88",
          "logIndex": "0xc6",
          "removed": false
        }
      ],
      "logsBloom": "0x00000000000000000000000000000000000000000600000000000000000000000000000000000000000000000000000000000000000000004000000000000000000000000000004000000008000000000000000000000000000000000000000000000000020000000000000000000800020000000000000000000010000000000000000000000000000000000000000000000000000000000000010000000000000000000000000000000000000000004000000000000000000000000000000000000002000000800000000000000000000000000000080000000000000020000000000000000000000000000000000000000000000000000000000000000000",
      "type": "0x2",
      "transactionHash": "0xb4a2b08452a82cd89bda135c5bbde27446c8fa61e236614b534a8d1a2c31f125",
      "transactionIndex": "0x88",
      "blockHash": "0x269e5212c12c9be60d7ef8f89c10cc8fcf52751a46e2de32abe9dfa66c80a296",
      "blockNumber": "0x731676",
      "gasUsed": "0xf21f",
      "effectiveGasPrice": "0x41f5e30c",
      "from": "0xc77f7fed3b5cc8249adc428c5f44c9063b9734b4",
      "to": "0x8aafd3ede9adb0ff97c7aebce82a919afb1c8764",
      "contractAddress": null
    }
  ],
  "libraries": [],
  "pending": [],
  "returns": {},
  "timestamp": 1737493046,
  "chain": 11155111,
  "commit": "1d2fb70"
}