{
  "transactions": [
    {
      "hash": "0x58fa2b63fc08e37af5be353037204ad78119f02c59a5c80606b4f7825500f922",
      "transactionType": "CALL",
      "contractName": null,
      "contractAddress": "0x8aafd3ede9adb0ff97c7aebce82a919afb1c8764",
      "function": "sell(uint256)",
      "arguments": [
        "11257"
      ],
      "transaction": {
        "from": "0xc77f7fed3b5cc8249adc428c5f44c9063b9734b4",
        "to": "0x8aafd3ede9adb0ff97c7aebce82a919afb1c8764",
        "gas": "0x14e4c",
        "value": "0x0",
        "input": "0xe4849b320000000000000000000000000000000000000000000000000000000000002bf9",
        "nonce": "0x1283",
        "chainId": "0xaa36a7"
      },
      "additionalContracts": [],
      "isFixedGasLimit": false
    }
  ],
  "receipts": [
    {
      "status": "0x1",
      "cumulativeGasUsed": "0xd452ea",
      "logs": [
        {
          "address": "0x8aafd3ede9adb0ff97c7aebce82a919afb1c8764",
          "topics": [
            "0xddf252ad1be2c89b69c2b068fc378daa952ba7f163c4a11628f55a4df523b3ef",
            "0x000000000000000000000000c77f7fed3b5cc8249adc428c5f44c9063b9734b4",
            "0x0000000000000000000000000000000000000000000000000000000000000000"
          ],
          "data": "0x0000000000000000000000000000000000000000000000000000000000002b9f",
          "blockHash": "0xb281d1ce85762da520ad10e4fbb5e65eb77df05e4249b788180dae0653ca9fda",
          "blockNumber": "0x73196f",
          "transactionHash": "0x58fa2b63fc08e37af5be353037204ad78119f02c59a5c80606b4f7825500f922",
          "transactionIndex": "0x78",
          "logIndex": "0x72",
          "removed": false
        },
        {
          "address": "0x8aafd3ede9adb0ff97c7aebce82a919afb1c8764",
          "topics": [
            "0xddf252ad1be2c89b69c2b068fc378daa952ba7f163c4a11628f55a4df523b3ef",
            "0x000000000000000000000000c77f7fed3b5cc8249adc428c5f44c9063b9734b4",
            "0x000000000000000000000000c77f7fed3b5cc8249adc428c5f44c9063b9734b4"
          ],
          "data": "0x000000000000000000000000000000000000000000000000000000000000005a",
          "blockHash": "0xb281d1ce85762da520ad10e4fbb5e65eb77df05e4249b788180dae0653ca9fda",
          "blockNumber": "0x73196f",
          "transactionHash": "0x58fa2b63fc08e37af5be353037204ad78119f02c59a5c80606b4f7825500f922",
          "transactionIndex": "0x78",
          "logIndex": "0x73",
          "removed": false
        },
        {
          "address": "0x8aafd3ede9adb0ff97c7aebce82a919afb1c8764",
          "topics": [
            "0x4afcb4a87cdbd9974efdb92ee48bc8d7cd0ae4bf217004db3d080cbaee652ca7"
          ],
          "data": "0x0000000000000000000000000000000000000000000000000000000067902e040000000000000000000000000000000000000000000000000005435ec4690b430000000000000000000000000000000000000000000000000000000000000010",
          "blockHash": "0xb281d1ce85762da520ad10e4fbb5e65eb77df05e4249b788180dae0653ca9fda",
          "blockNumber": "0x73196f",
          "transactionHash": "0x58fa2b63fc08e37af5be353037204ad78119f02c59a5c80606b4f7825500f922",
          "transactionIndex": "0x78",
          "logIndex": "0x74",
          "removed": false
        }
      ],
      "logsBloom": "0x00000000000000000000000000000000000000000600000000000000000000000000000000000000000000000000000000000000000000004000000000000000000000000000004000000008000000000000000000000000000000000000000000000000020000000000000000000800020000000000000000000010000000000000000000000000000000000000000000000000000000000000010000000000000000000000000000000000000000004000000000000000000000000000000000000002000000800000000000000000000000000000080000000000000020000000000000000000000000000000000000000000000000000000000000000000",
      "type": "0x2",
      "transactionHash": "0x58fa2b63fc08e37af5be353037204ad78119f02c59a5c80606b4f7825500f922",
      "transactionIndex": "0x78",
      "blockHash": "0xb281d1ce85762da520ad10e4fbb5e65eb77df05e4249b788180dae0653ca9fda",
      "blockNumber": "0x73196f",
      "gasUsed": "0xf207",
      "effectiveGasPrice": "0x3efd14e3",
      "from": "0xc77f7fed3b5cc8249adc428c5f44c9063b9734b4",
      "to": "0x8aafd3ede9adb0ff97c7aebce82a919afb1c8764",
      "contractAddress": null
    }
  ],
  "libraries": [],
  "pending": [],
  "returns": {},
  "timestamp": 1737502213,
  "chain": 11155111,
  "commit": "1d2fb70"
}