{
  "transactions": [
    {
      "hash": "0x11d00a576856311db64e3c00fcde72e35dc5db4041392c5e349013c013b8607b",
      "transactionType": "CALL",
      "contractName": null,
      "contractAddress": "0xbf4a322f1496e5c3d34a9bcdb4c60567b38c7de2",
      "function": "buy(address)",
      "arguments": [
        "0xC77f7fed3b5Cc8249aDc428c5F44C9063B9734b4"
      ],
      "transaction": {
        "from": "0xc77f7fed3b5cc8249adc428c5f44c9063b9734b4",
        "to": "0xbf4a322f1496e5c3d34a9bcdb4c60567b38c7de2",
        "gas": "0x1b309",
        "value": "0xde0b6b3a7640000",
        "input": "0xf088d547000000000000000000000000c77f7fed3b5cc8249adc428c5f44c9063b9734b4",
        "nonce": "0xe2a",
        "chainId": "0xaa36a7"
      },
      "additionalContracts": [],
      "isFixedGasLimit": false
    }
  ],
  "receipts": [
    {
      "status": "0x1",
      "cumulativeGasUsed": "0x176f43f",
      "logs": [
        {
          "address": "0xbf4a322f1496e5c3d34a9bcdb4c60567b38c7de2",
          "topics": [
            "0xddf252ad1be2c89b69c2b068fc378daa952ba7f163c4a11628f55a4df523b3ef",
            "0x0000000000000000000000000000000000000000000000000000000000000000",
            "0x000000000000000000000000c77f7fed3b5cc8249adc428c5f44c9063b9734b4"
          ],
          "data": "0x0000000000000000000000000000000000000000000000349529a77df9e01439",
          "blockHash": "0xb4d24797fec176155bbd1015f6577b655d608ccae7562ba655005e5cf9adc163",
          "blockNumber": "0x726719",
          "transactionHash": "0x11d00a576856311db64e3c00fcde72e35dc5db4041392c5e349013c013b8607b",
          "transactionIndex": "0x7c",
          "logIndex": "0x64",
          "removed": false
        },
        {
          "address": "0xbf4a322f1496e5c3d34a9bcdb4c60567b38c7de2",
          "topics": [
            "0xddf252ad1be2c89b69c2b068fc378daa952ba7f163c4a11628f55a4df523b3ef",
            "0x0000000000000000000000000000000000000000000000000000000000000000",
            "0x000000000000000000000000c77f7fed3b5cc8249adc428c5f44c9063b9734b4"
          ],
          "data": "0x00000000000000000000000000000000000000000000000028d50d5027cd55d4",
          "blockHash": "0xb4d24797fec176155bbd1015f6577b655d608ccae7562ba655005e5cf9adc163",
          "blockNumber": "0x726719",
          "transactionHash": "0x11d00a576856311db64e3c00fcde72e35dc5db4041392c5e349013c013b8607b",
          "transactionIndex": "0x7c",
          "logIndex": "0x65",
          "removed": false
        },
        {
          "address": "0xbf4a322f1496e5c3d34a9bcdb4c60567b38c7de2",
          "topics": [
            "0x4afcb4a87cdbd9974efdb92ee48bc8d7cd0ae4bf217004db3d080cbaee652ca7"
          ],
          "data": "0x000000000000000000000000000000000000000000000000000000006787c89c0000000000000000000000000000000000000000000000000003a046bfbe6d990000000000000000000000000000000000000000000000000de0b6b3a7640000",
          "blockHash": "0xb4d24797fec176155bbd1015f6577b655d608ccae7562ba655005e5cf9adc163",
          "blockNumber": "0x726719",
          "transactionHash": "0x11d00a576856311db64e3c00fcde72e35dc5db4041392c5e349013c013b8607b",
          "transactionIndex": "0x7c",
          "logIndex": "0x66",
          "removed": false
        }
      ],
      "logsBloom": "0x00000000000000000000000000000000000000000000000000000000000000000000000000000000000000000000000000000000000000004000000000000000000000000000000000000008000000000000001000000000000000000000000000000000020000000000000000000800020000000000000000000010000000000000000000000000000000000000000000000000000008000000010000000000000000000000000000000000000000004000000000000000000000000000000000000002000000800000000000001000000000000000080000000000000020000000000000000000000000000000000000000000000000000000000000000000",
      "type": "0x2",
      "transactionHash": "0x11d00a576856311db64e3c00fcde72e35dc5db4041392c5e349013c013b8607b",
      "transactionIndex": "0x7c",
      "blockHash": "0xb4d24797fec176155bbd1015f6577b655d608ccae7562ba655005e5cf9adc163",
      "blockNumber": "0x726719",
      "gasUsed": "0x13af6",
      "effectiveGasPrice": "0x6ca51b2ec",
      "from": "0xc77f7fed3b5cc8249adc428c5f44c9063b9734b4",
      "to": "0xbf4a322f1496e5c3d34a9bcdb4c60567b38c7de2",
      "contractAddress": null
    }
  ],
  "libraries": [],
  "pending": [],
  "returns": {},
  "timestamp": 1736951965,
  "chain": 11155111,
  "commit": "51a374b"
}