{
  "transactions": [
    {
      "hash": "0x480b8e5e62866ee1a9fd5abef2b8462131038dcbe69565749d55b729de1cf547",
      "transactionType": "CALL",
      "contractName": null,
      "contractAddress": "0x8aafd3ede9adb0ff97c7aebce82a919afb1c8764",
      "function": "sell(uint256)",
      "arguments": [
        "11913"
      ],
      "transaction": {
        "from": "0xc77f7fed3b5cc8249adc428c5f44c9063b9734b4",
        "to": "0x8aafd3ede9adb0ff97c7aebce82a919afb1c8764",
        "gas": "0x14e4c",
        "value": "0x0",
        "input": "0xe4849b320000000000000000000000000000000000000000000000000000000000002e89",
        "nonce": "0x1085",
        "chainId": "0xaa36a7"
      },
      "additionalContracts": [],
      "isFixedGasLimit": false
    }
  ],
  "receipts": [
    {
      "status": "0x1",
      "cumulativeGasUsed": "0xa0190f",
      "logs": [
        {
          "address": "0x8aafd3ede9adb0ff97c7aebce82a919afb1c8764",
          "topics": [
            "0xddf252ad1be2c89b69c2b068fc378daa952ba7f163c4a11628f55a4df523b3ef",
            "0x000000000000000000000000c77f7fed3b5cc8249adc428c5f44c9063b9734b4",
            "0x0000000000000000000000000000000000000000000000000000000000000000"
          ],
          "data": "0x0000000000000000000000000000000000000000000000000000000000002e2a",
          "blockHash": "0x3d4454ca6a6246b8e40a593fd67952d376ccc2cb441500734f8805a9e0b2be04",
          "blockNumber": "0x731711",
          "transactionHash": "0x480b8e5e62866ee1a9fd5abef2b8462131038dcbe69565749d55b729de1cf547",
          "transactionIndex": "0x96",
          "logIndex": "0x7e",
          "removed": false
        },
        {
          "address": "0x8aafd3ede9adb0ff97c7aebce82a919afb1c8764",
          "topics": [
            "0xddf252ad1be2c89b69c2b068fc378daa952ba7f163c4a11628f55a4df523b3ef",
            "0x000000000000000000000000c77f7fed3b5cc8249adc428c5f44c9063b9734b4",
            "0x000000000000000000000000c77f7fed3b5cc8249adc428c5f44c9063b9734b4"
          ],
          "data": "0x000000000000000000000000000000000000000000000000000000000000005f",
          "blockHash": "0x3d4454ca6a6246b8e40a593fd67952d376ccc2cb441500734f8805a9e0b2be04",
          "blockNumber": "0x731711",
          "transactionHash": "0x480b8e5e62866ee1a9fd5abef2b8462131038dcbe69565749d55b729de1cf547",
          "transactionIndex": "0x96",
          "logIndex": "0x7f",
          "removed": false
        },
        {
          "address": "0x8aafd3ede9adb0ff97c7aebce82a919afb1c8764",
          "topics": [
            "0x4afcb4a87cdbd9974efdb92ee48bc8d7cd0ae4bf217004db3d080cbaee652ca7"
          ],
          "data": "0x00000000000000000000000000000000000000000000000000000000679011900000000000000000000000000000000000000000000000000004f9471c971ebf0000000000000000000000000000000000000000000000000000000000000010",
          "blockHash": "0x3d4454ca6a6246b8e40a593fd67952d376ccc2cb441500734f8805a9e0b2be04",
          "blockNumber": "0x731711",
          "transactionHash": "0x480b8e5e62866ee1a9fd5abef2b8462131038dcbe69565749d55b729de1cf547",
          "transactionIndex": "0x96",
          "logIndex": "0x80",
          "removed": false
        }
      ],
      "logsBloom": "0x00000000000000000000000000000000000000000600000000000000000000000000000000000000000000000000000000000000000000004000000000000000000000000000004000000008000000000000000000000000000000000000000000000000020000000000000000000800020000000000000000000010000000000000000000000000000000000000000000000000000000000000010000000000000000000000000000000000000000004000000000000000000000000000000000000002000000800000000000000000000000000000080000000000000020000000000000000000000000000000000000000000000000000000000000000000",
      "type": "0x2",
      "transactionHash": "0x480b8e5e62866ee1a9fd5abef2b8462131038dcbe69565749d55b729de1cf547",
      "transactionIndex": "0x96",
      "blockHash": "0x3d4454ca6a6246b8e40a593fd67952d376ccc2cb441500734f8805a9e0b2be04",
      "blockNumber": "0x731711",
      "gasUsed": "0xf207",
      "effectiveGasPrice": "0x46f4b9ba",
      "from": "0xc77f7fed3b5cc8249adc428c5f44c9063b9734b4",
      "to": "0x8aafd3ede9adb0ff97c7aebce82a919afb1c8764",
      "contractAddress": null
    }
  ],
  "libraries": [],
  "pending": [],
  "returns": {},
  "timestamp": 1737494929,
  "chain": 11155111,
  "commit": "1d2fb70"
}