{
  "transactions": [
    {
      "hash": "0xe4bc81c4480ada555408eca97a05ccc004287c096494644d844e1ba0ec25590c",
      "transactionType": "CALL",
      "contractName": null,
      "contractAddress": "0x5eb9cc76c3506942c1c0ead70e877dd5e4f00cb0",
      "function": "sell(uint256)",
      "arguments": [
        "989145576232803012562"
      ],
      "transaction": {
        "from": "0xc77f7fed3b5cc8249adc428c5f44c9063b9734b4",
        "to": "0x5eb9cc76c3506942c1c0ead70e877dd5e4f00cb0",
        "gas": "0x16fec",
        "value": "0x0",
        "input": "0xe4849b320000000000000000000000000000000000000000000000359f2704dda94a8fd2",
        "nonce": "0x2e3",
        "chainId": "0xaa36a7"
      },
      "additionalContracts": [],
      "isFixedGasLimit": false
    }
  ],
  "receipts": [
    {
      "status": "0x1",
      "cumulativeGasUsed": "0x977ed3",
      "logs": [
        {
          "address": "0x5eb9cc76c3506942c1c0ead70e877dd5e4f00cb0",
          "topics": [
            "0xddf252ad1be2c89b69c2b068fc378daa952ba7f163c4a11628f55a4df523b3ef",
            "0x000000000000000000000000c77f7fed3b5cc8249adc428c5f44c9063b9734b4",
            "0x0000000000000000000000000000000000000000000000000000000000000000"
          ],
          "data": "0x0000000000000000000000000000000000000000000000359f2704dda94a8fd2",
          "blockHash": "0x142f22ea082c3484d7f7f4b88528c2b4ec09db32d01ac5b855b772ef8feed37d",
          "blockNumber": "0x724ec0",
          "transactionHash": "0xe4bc81c4480ada555408eca97a05ccc004287c096494644d844e1ba0ec25590c",
          "transactionIndex": "0x4e",
          "logIndex": "0x7d",
          "removed": false
        },
        {
          "address": "0x5eb9cc76c3506942c1c0ead70e877dd5e4f00cb0",
          "topics": [
            "0x4afcb4a87cdbd9974efdb92ee48bc8d7cd0ae4bf217004db3d080cbaee652ca7"
          ],
          "data": "0x000000000000000000000000000000000000000000000000000000006786a2b40000000000000000000000000000000000000000000000000003910ab3a68bc10000000000000000000000000000000000000000000000000dc7db1332388b96",
          "blockHash": "0x142f22ea082c3484d7f7f4b88528c2b4ec09db32d01ac5b855b772ef8feed37d",
          "blockNumber": "0x724ec0",
          "transactionHash": "0xe4bc81c4480ada555408eca97a05ccc004287c096494644d844e1ba0ec25590c",
          "transactionIndex": "0x4e",
          "logIndex": "0x7e",
          "removed": false
        }
      ],
      "logsBloom": "0x00000000000000000000000000000000000000000000000000000000000000000000000000000000000000000000000000000000000000004000000000000000000000000000000000000008000000000000000000000000000000000000000000000000020000000000000004000800020000000000000000000010000000000000000000000000000000000000000000000000000000000000010000000000000000000000000000000000000000004000000000000000000000000000020000000002000000800000008000000000000000000000080000000000000020000000000000000000000000000000000000000000000000000000000000000000",
      "type": "0x2",
      "transactionHash": "0xe4bc81c4480ada555408eca97a05ccc004287c096494644d844e1ba0ec25590c",
      "transactionIndex": "0x4e",
      "blockHash": "0x142f22ea082c3484d7f7f4b88528c2b4ec09db32d01ac5b855b772ef8feed37d",
      "blockNumber": "0x724ec0",
      "gasUsed": "0xfb93",
      "effectiveGasPrice": "0x4a911b434",
      "from": "0xc77f7fed3b5cc8249adc428c5f44c9063b9734b4",
      "to": "0x5eb9cc76c3506942c1c0ead70e877dd5e4f00cb0",
      "contractAddress": null
    }
  ],
  "libraries": [],
  "pending": [],
  "returns": {},
  "timestamp": 1736876726,
  "chain": 11155111,
  "commit": "51a374b"
}