{
  "transactions": [
    {
      "hash": "0x1d1956eeba680fa0d9585c462ee6f637affac2e755bdb0d049f7b654229ea5b6",
      "transactionType": "CALL",
      "contractName": null,
      "contractAddress": "0x5eb9cc76c3506942c1c0ead70e877dd5e4f00cb0",
      "function": "buy(address)",
      "arguments": [
        "0xC77f7fed3b5Cc8249aDc428c5F44C9063B9734b4"
      ],
      "transaction": {
        "from": "0xc77f7fed3b5cc8249adc428c5f44c9063b9734b4",
        "to": "0x5eb9cc76c3506942c1c0ead70e877dd5e4f00cb0",
        "gas": "0x1b30c",
        "value": "0xde0b6b3a7640000",
        "input": "0xf088d547000000000000000000000000c77f7fed3b5cc8249adc428c5f44c9063b9734b4",
        "nonce": "0x42e",
        "chainId": "0xaa36a7"
      },
      "additionalContracts": [],
      "isFixedGasLimit": false
    }
  ],
  "receipts": [
    {
      "status": "0x1",
      "cumulativeGasUsed": "0xc7ed00",
      "logs": [
        {
          "address": "0x5eb9cc76c3506942c1c0ead70e877dd5e4f00cb0",
          "topics": [
            "0xddf252ad1be2c89b69c2b068fc378daa952ba7f163c4a11628f55a4df523b3ef",
            "0x0000000000000000000000000000000000000000000000000000000000000000",
            "0x000000000000000000000000c77f7fed3b5cc8249adc428c5f44c9063b9734b4"
          ],
          "data": "0x00000000000000000000000000000000000000000000003574e841ce3cc84af4",
          "blockHash": "0x559b01f9c516d191819c5b1701c6c21e76f2bfe59d7c4fd9de96dcbb959eabd1",
          "blockNumber": "0x725045",
          "transactionHash": "0x1d1956eeba680fa0d9585c462ee6f637affac2e755bdb0d049f7b654229ea5b6",
          "transactionIndex": "0x61",
          "logIndex": "0xd9",
          "removed": false
        },
        {
          "address": "0x5eb9cc76c3506942c1c0ead70e877dd5e4f00cb0",
          "topics": [
            "0xddf252ad1be2c89b69c2b068fc378daa952ba7f163c4a11628f55a4df523b3ef",
            "0x0000000000000000000000000000000000000000000000000000000000000000",
            "0x000000000000000000000000c77f7fed3b5cc8249adc428c5f44c9063b9734b4"
          ],
          "data": "0x0000000000000000000000000000000000000000000000002982cc1a188d50c6",
          "blockHash": "0x559b01f9c516d191819c5b1701c6c21e76f2bfe59d7c4fd9de96dcbb959eabd1",
          "blockNumber": "0x725045",
          "transactionHash": "0x1d1956eeba680fa0d9585c462ee6f637affac2e755bdb0d049f7b654229ea5b6",
          "transactionIndex": "0x61",
          "logIndex": "0xda",
          "removed": false
        },
        {
          "address": "0x5eb9cc76c3506942c1c0ead70e877dd5e4f00cb0",
          "topics": [
            "0x4afcb4a87cdbd9974efdb92ee48bc8d7cd0ae4bf217004db3d080cbaee652ca7"
          ],
          "data": "0x000000000000000000000000000000000000000000000000000000006786b50800000000000000000000000000000000000000000000000000039117280da5950000000000000000000000000000000000000000000000000de0b6b3a7640000",
          "blockHash": "0x559b01f9c516d191819c5b1701c6c21e76f2bfe59d7c4fd9de96dcbb959eabd1",
          "blockNumber": "0x725045",
          "transactionHash": "0x1d1956eeba680fa0d9585c462ee6f637affac2e755bdb0d049f7b654229ea5b6",
          "transactionIndex": "0x61",
          "logIndex": "0xdb",
          "removed": false
        }
      ],
      "logsBloom": "0x00000000000000000000000000000000000000000000000000000000000000000000000000000000000000000000000000000000000000004000000000000000000000000000000000000008000000000000000000000000000000000000000000000000020000000000000004000800020000000000000000000010000000000000000000000000000000000000000000000000000000000000010000000000000000000000000000000000000000004000000000000000000000000000020000000002000000800000008000000000000000000000080000000000000020000000000000000000000000000000000000000000000000000000000000000000",
      "type": "0x2",
      "transactionHash": "0x1d1956eeba680fa0d9585c462ee6f637affac2e755bdb0d049f7b654229ea5b6",
      "transactionIndex": "0x61",
      "blockHash": "0x559b01f9c516d191819c5b1701c6c21e76f2bfe59d7c4fd9de96dcbb959eabd1",
      "blockNumber": "0x725045",
      "gasUsed": "0x13af8",
      "effectiveGasPrice": "0x273a4bba7",
      "from": "0xc77f7fed3b5cc8249adc428c5f44c9063b9734b4",
      "to": "0x5eb9cc76c3506942c1c0ead70e877dd5e4f00cb0",
      "contractAddress": null
    }
  ],
  "libraries": [],
  "pending": [],
  "returns": {},
  "timestamp": 1736881417,
  "chain": 11155111,
  "commit": "51a374b"
}