{
  "transactions": [
    {
      "hash": "0x24e11fa6bb1d05e5a40f1c72261c6c744048fe515c955edffb5a66acf99e0bd9",
      "transactionType": "CALL",
      "contractName": null,
      "contractAddress": "0xbf4a322f1496e5c3d34a9bcdb4c60567b38c7de2",
      "function": "sell(uint256)",
      "arguments": [
        "983002571496849041650"
      ],
      "transaction": {
        "from": "0xc77f7fed3b5cc8249adc428c5f44c9063b9734b4",
        "to": "0xbf4a322f1496e5c3d34a9bcdb4c60567b38c7de2",
        "gas": "0x16fea",
        "value": "0x0",
        "input": "0xe4849b3200000000000000000000000000000000000000000000003549e6ae9b053668f2",
        "nonce": "0xb39",
        "chainId": "0xaa36a7"
      },
      "additionalContracts": [],
      "isFixedGasLimit": false
    }
  ],
  "receipts": [
    {
      "status": "0x1",
      "cumulativeGasUsed": "0x9f9ee1",
      "logs": [
        {
          "address": "0xbf4a322f1496e5c3d34a9bcdb4c60567b38c7de2",
          "topics": [
            "0xddf252ad1be2c89b69c2b068fc378daa952ba7f163c4a11628f55a4df523b3ef",
            "0x000000000000000000000000c77f7fed3b5cc8249adc428c5f44c9063b9734b4",
            "0x0000000000000000000000000000000000000000000000000000000000000000"
          ],
          "data": "0x00000000000000000000000000000000000000000000003549e6ae9b053668f2",
          "blockHash": "0xdec579496a114466f5d4736f23e41cc9e692a9f97b6cc79f97a0a1c03b5171fb",
          "blockNumber": "0x725b3b",
          "transactionHash": "0x24e11fa6bb1d05e5a40f1c72261c6c744048fe515c955edffb5a66acf99e0bd9",
          "transactionIndex": "0x66",
          "logIndex": "0x8b",
          "removed": false
        },
        {
          "address": "0xbf4a322f1496e5c3d34a9bcdb4c60567b38c7de2",
          "topics": [
            "0x4afcb4a87cdbd9974efdb92ee48bc8d7cd0ae4bf217004db3d080cbaee652ca7"
          ],
          "data": "0x0000000000000000000000000000000000000000000000000000000067873920000000000000000000000000000000000000000000000000000396c5c6bae59c0000000000000000000000000000000000000000000000000dc7e3e90c200e08",
          "blockHash": "0xdec579496a114466f5d4736f23e41cc9e692a9f97b6cc79f97a0a1c03b5171fb",
          "blockNumber": "0x725b3b",
          "transactionHash": "0x24e11fa6bb1d05e5a40f1c72261c6c744048fe515c955edffb5a66acf99e0bd9",
          "transactionIndex": "0x66",
          "logIndex": "0x8c",
          "removed": false
        }
      ],
      "logsBloom": "0x00000000000000000000000000000000000000000000000000000000000000000000000000000000000000000000000000000000000000004000000000000000000000000000000000000008000000000000001000000000000000000000000000000000020000000000000000000800020000000000000000000010000000000000000000000000000000000000000000000000000008000000010000000000000000000000000000000000000000004000000000000000000000000000000000000002000000800000000000001000000000000000080000000000000020000000000000000000000000000000000000000000000000000000000000000000",
      "type": "0x2",
      "transactionHash": "0x24e11fa6bb1d05e5a40f1c72261c6c744048fe515c955edffb5a66acf99e0bd9",
      "transactionIndex": "0x66",
      "blockHash": "0xdec579496a114466f5d4736f23e41cc9e692a9f97b6cc79f97a0a1c03b5171fb",
      "blockNumber": "0x725b3b",
      "gasUsed": "0xfb91",
      "effectiveGasPrice": "0x4702810b",
      "from": "0xc77f7fed3b5cc8249adc428c5f44c9063b9734b4",
      "to": "0xbf4a322f1496e5c3d34a9bcdb4c60567b38c7de2",
      "contractAddress": null
    }
  ],
  "libraries": [],
  "pending": [],
  "returns": {},
  "timestamp": 1736915233,
  "chain": 11155111,
  "commit": "51a374b"
}