{
  "transactions": [
    {
      "hash": "0x3bfebbd5a0ca158fc9204d1f69d7c3f6e64bf9645ebf7483fdd4412c92231ead",
      "transactionType": "CALL",
      "contractName": null,
      "contractAddress": "0x8aafd3ede9adb0ff97c7aebce82a919afb1c8764",
      "function": "sell(uint256)",
      "arguments": [
        "7960835266"
      ],
      "transaction": {
        "from": "0xc77f7fed3b5cc8249adc428c5f44c9063b9734b4",
        "to": "0x8aafd3ede9adb0ff97c7aebce82a919afb1c8764",
        "gas": "0x1722a",
        "value": "0x0",
        "input": "0xe4849b3200000000000000000000000000000000000000000000000000000001da80b4c2",
        "nonce": "0x142c",
        "chainId": "0xaa36a7"
      },
      "additionalContracts": [],
      "isFixedGasLimit": false
    }
  ],
  "receipts": [
    {
      "status": "0x1",
      "cumulativeGasUsed": "0x593529",
      "logs": [
        {
          "address": "0x8aafd3ede9adb0ff97c7aebce82a919afb1c8764",
          "topics": [
            "0xddf252ad1be2c89b69c2b068fc378daa952ba7f163c4a11628f55a4df523b3ef",
            "0x000000000000000000000000c77f7fed3b5cc8249adc428c5f44c9063b9734b4",
            "0x0000000000000000000000000000000000000000000000000000000000000000"
          ],
          "data": "0x00000000000000000000000000000000000000000000000000000001d6b4eca8",
          "blockHash": "0x5098409197ea28fce827ccde1279702bd54436c9c4906625ff373a2454f22021",
          "blockNumber": "0x731b6a",
          "transactionHash": "0x3bfebbd5a0ca158fc9204d1f69d7c3f6e64bf9645ebf7483fdd4412c92231ead",
          "transactionIndex": "0x35",
          "logIndex": "0x3e",
          "removed": false
        },
        {
          "address": "0x8aafd3ede9adb0ff97c7aebce82a919afb1c8764",
          "topics": [
            "0xddf252ad1be2c89b69c2b068fc378daa952ba7f163c4a11628f55a4df523b3ef",
            "0x000000000000000000000000c77f7fed3b5cc8249adc428c5f44c9063b9734b4",
            "0x000000000000000000000000c77f7fed3b5cc8249adc428c5f44c9063b9734b4"
          ],
          "data": "0x0000000000000000000000000000000000000000000000000000000003cbc81a",
          "blockHash": "0x5098409197ea28fce827ccde1279702bd54436c9c4906625ff373a2454f22021",
          "blockNumber": "0x731b6a",
          "transactionHash": "0x3bfebbd5a0ca158fc9204d1f69d7c3f6e64bf9645ebf7483fdd4412c92231ead",
          "transactionIndex": "0x35",
          "logIndex": "0x3f",
          "removed": false
        },
        {
          "address": "0x8aafd3ede9adb0ff97c7aebce82a919afb1c8764",
          "topics": [
            "0x4afcb4a87cdbd9974efdb92ee48bc8d7cd0ae4bf217004db3d080cbaee652ca7"
          ],
          "data": "0x00000000000000000000000000000000000000000000000000000000679045c8000000000000000000000000000000000000000000000000000e9fbd573160480000000000000000000000000000000000000000000000000000000001f4042c",
          "blockHash": "0x5098409197ea28fce827ccde1279702bd54436c9c4906625ff373a2454f22021",
          "blockNumber": "0x731b6a",
          "transactionHash": "0x3bfebbd5a0ca158fc9204d1f69d7c3f6e64bf9645ebf7483fdd4412c92231ead",
          "transactionIndex": "0x35",
          "logIndex": "0x40",
          "removed": false
        }
      ],
      "logsBloom": "0x00000000000000000000000000000000000000000600000000000000000000000000000000000000000000000000000000000000000000004000000000000000000000000000004000000008000000000000000000000000000000000000000000000000020000000000000000000800020000000000000000000010000000000000000000000000000000000000000000000000000000000000010000000000000000000000000000000000000000004000000000000000000000000000000000000002000000800000000000000000000000000000080000000000000020000000000000000000000000000000000000000000000000000000000000000000",
      "type": "0x2",
      "transactionHash": "0x3bfebbd5a0ca158fc9204d1f69d7c3f6e64bf9645ebf7483fdd4412c92231ead",
      "transactionIndex": "0x35",
      "blockHash": "0x5098409197ea28fce827ccde1279702bd54436c9c4906625ff373a2454f22021",
      "blockNumber": "0x731b6a",
      "gasUsed": "0xfd1b",
      "effectiveGasPrice": "0x1055ac7b9",
      "from": "0xc77f7fed3b5cc8249adc428c5f44c9063b9734b4",
      "to": "0x8aafd3ede9adb0ff97c7aebce82a919afb1c8764",
      "contractAddress": null
    }
  ],
  "libraries": [],
  "pending": [],
  "returns": {},
  "timestamp": 1737508298,
  "chain": 11155111,
  "commit": "1d2fb70"
}