{
  "transactions": [
    {
      "hash": "0xa25e31a8b707aadbdf8de3f4ec569270d501f17751040ec19ab34833aea8f883",
      "transactionType": "CALL",
      "contractName": null,
      "contractAddress": "0x8aafd3ede9adb0ff97c7aebce82a919afb1c8764",
      "function": "sell(uint256)",
      "arguments": [
        "24511005862"
      ],
      "transaction": {
        "from": "0xc77f7fed3b5cc8249adc428c5f44c9063b9734b4",
        "to": "0x8aafd3ede9adb0ff97c7aebce82a919afb1c8764",
        "gas": "0x1722a",
        "value": "0x0",
        "input": "0xe4849b3200000000000000000000000000000000000000000000000000000005b4f844a6",
        "nonce": "0xeab",
        "chainId": "0xaa36a7"
      },
      "additionalContracts": [],
      "isFixedGasLimit": false
    }
  ],
  "receipts": [
    {
      "status": "0x1",
      "cumulativeGasUsed": "0xce1897",
      "logs": [
        {
          "address": "0x8aafd3ede9adb0ff97c7aebce82a919afb1c8764",
          "topics": [
            "0xddf252ad1be2c89b69c2b068fc378daa952ba7f163c4a11628f55a4df523b3ef",
            "0x000000000000000000000000c77f7fed3b5cc8249adc428c5f44c9063b9734b4",
            "0x0000000000000000000000000000000000000000000000000000000000000000"
          ],
          "data": "0x00000000000000000000000000000000000000000000000000000005a94833b8",
          "blockHash": "0x74b2add560e9fdf7a09c6d5bae9d08f82f76c69b81d429625c8959cf5e5d440e",
          "blockNumber": "0x73140e",
          "transactionHash": "0xa25e31a8b707aadbdf8de3f4ec569270d501f17751040ec19ab34833aea8f883",
          "transactionIndex": "0xa6",
          "logIndex": "0xc6",
          "removed": false
        },
        {
          "address": "0x8aafd3ede9adb0ff97c7aebce82a919afb1c8764",
          "topics": [
            "0xddf252ad1be2c89b69c2b068fc378daa952ba7f163c4a11628f55a4df523b3ef",
            "0x000000000000000000000000c77f7fed3b5cc8249adc428c5f44c9063b9734b4",
            "0x000000000000000000000000c77f7fed3b5cc8249adc428c5f44c9063b9734b4"
          ],
          "data": "0x000000000000000000000000000000000000000000000000000000000bb010ee",
          "blockHash": "0x74b2add560e9fdf7a09c6d5bae9d08f82f76c69b81d429625c8959cf5e5d440e",
          "blockNumber": "0x73140e",
          "transactionHash": "0xa25e31a8b707aadbdf8de3f4ec569270d501f17751040ec19ab34833aea8f883",
          "transactionIndex": "0xa6",
          "logIndex": "0xc7",
          "removed": false
        },
        {
          "address": "0x8aafd3ede9adb0ff97c7aebce82a919afb1c8764",
          "topics": [
            "0x4afcb4a87cdbd9974efdb92ee48bc8d7cd0ae4bf217004db3d080cbaee652ca7"
          ],
          "data": "0x00000000000000000000000000000000000000000000000000000000678fed540000000000000000000000000000000000000000000000000004b7c88a1826390000000000000000000000000000000000000000000000000000000001f0ac25",
          "blockHash": "0x74b2add560e9fdf7a09c6d5bae9d08f82f76c69b81d429625c8959cf5e5d440e",
          "blockNumber": "0x73140e",
          "transactionHash": "0xa25e31a8b707aadbdf8de3f4ec569270d501f17751040ec19ab34833aea8f883",
          "transactionIndex": "0xa6",
          "logIndex": "0xc8",
          "removed": false
        }
      ],
      "logsBloom": "0x00000000000000000000000000000000000000000600000000000000000000000000000000000000000000000000000000000000000000004000000000000000000000000000004000000008000000000000000000000000000000000000000000000000020000000000000000000800020000000000000000000010000000000000000000000000000000000000000000000000000000000000010000000000000000000000000000000000000000004000000000000000000000000000000000000002000000800000000000000000000000000000080000000000000020000000000000000000000000000000000000000000000000000000000000000000",
      "type": "0x2",
      "transactionHash": "0xa25e31a8b707aadbdf8de3f4ec569270d501f17751040ec19ab34833aea8f883",
      "transactionIndex": "0xa6",
      "blockHash": "0x74b2add560e9fdf7a09c6d5bae9d08f82f76c69b81d429625c8959cf5e5d440e",
      "blockNumber": "0x73140e",
      "gasUsed": "0xfd1b",
      "effectiveGasPrice": "0x83048564",
      "from": "0xc77f7fed3b5cc8249adc428c5f44c9063b9734b4",
      "to": "0x8aafd3ede9adb0ff97c7aebce82a919afb1c8764",
      "contractAddress": null
    }
  ],
  "libraries": [],
  "pending": [],
  "returns": {},
  "timestamp": 1737485654,
  "chain": 11155111,
  "commit": "51a374b"
}