{
  "transactions": [
    {
      "hash": "0xc2edc70a5087b8b0be42abba7ef7a19eefa05cf66eb0abfb46269805a59d5262",
      "transactionType": "CALL",
      "contractName": null,
      "contractAddress": "0xbf4a322f1496e5c3d34a9bcdb4c60567b38c7de2",
      "function": "sell(uint256)",
      "arguments": [
        "985033096195826653752"
      ],
      "transaction": {
        "from": "0xc77f7fed3b5cc8249adc428c5f44c9063b9734b4",
        "to": "0xbf4a322f1496e5c3d34a9bcdb4c60567b38c7de2",
        "gas": "0x16fea",
        "value": "0x0",
        "input": "0xe4849b3200000000000000000000000000000000000000000000003566148e0fa36e1a38",
        "nonce": "0xaa3",
        "chainId": "0xaa36a7"
      },
      "additionalContracts": [],
      "isFixedGasLimit": false
    }
  ],
  "receipts": [
    {
      "status": "0x1",
      "cumulativeGasUsed": "0xbb853c",
      "logs": [
        {
          "address": "0xbf4a322f1496e5c3d34a9bcdb4c60567b38c7de2",
          "topics": [
            "0xddf252ad1be2c89b69c2b068fc378daa952ba7f163c4a11628f55a4df523b3ef",
            "0x000000000000000000000000c77f7fed3b5cc8249adc428c5f44c9063b9734b4",
            "0x0000000000000000000000000000000000000000000000000000000000000000"
          ],
          "data": "0x00000000000000000000000000000000000000000000003566148e0fa36e1a38",
          "blockHash": "0x4213b1b07c09863e53d89a3aff0bd2bebf84d5dc88d7e943b1e0593961a90e6c",
          "blockNumber": "0x725a8c",
          "transactionHash": "0xc2edc70a5087b8b0be42abba7ef7a19eefa05cf66eb0abfb46269805a59d5262",
          "transactionIndex": "0x64",
          "logIndex": "0x92",
          "removed": false
        },
        {
          "address": "0xbf4a322f1496e5c3d34a9bcdb4c60567b38c7de2",
          "topics": [
            "0x4afcb4a87cdbd9974efdb92ee48bc8d7cd0ae4bf217004db3d080cbaee652ca7"
          ],
          "data": "0x00000000000000000000000000000000000000000000000000000000678730e0000000000000000000000000000000000000000000000000000394e0f119c99a0000000000000000000000000000000000000000000000000dc7e3edc4b236e5",
          "blockHash": "0x4213b1b07c09863e53d89a3aff0bd2bebf84d5dc88d7e943b1e0593961a90e6c",
          "blockNumber": "0x725a8c",
          "transactionHash": "0xc2edc70a5087b8b0be42abba7ef7a19eefa05cf66eb0abfb46269805a59d5262",
          "transactionIndex": "0x64",
          "logIndex": "0x93",
          "removed": false
        }
      ],
      "logsBloom": "0x00000000000000000000000000000000000000000000000000000000000000000000000000000000000000000000000000000000000000004000000000000000000000000000000000000008000000000000001000000000000000000000000000000000020000000000000000000800020000000000000000000010000000000000000000000000000000000000000000000000000008000000010000000000000000000000000000000000000000004000000000000000000000000000000000000002000000800000000000001000000000000000080000000000000020000000000000000000000000000000000000000000000000000000000000000000",
      "type": "0x2",
      "transactionHash": "0xc2edc70a5087b8b0be42abba7ef7a19eefa05cf66eb0abfb46269805a59d5262",
      "transactionIndex": "0x64",
      "blockHash": "0x4213b1b07c09863e53d89a3aff0bd2bebf84d5dc88d7e943b1e0593961a90e6c",
      "blockNumber": "0x725a8c",
      "gasUsed": "0xfb91",
      "effectiveGasPrice": "0x1ceaa54e6",
      "from": "0xc77f7fed3b5cc8249adc428c5f44c9063b9734b4",
      "to": "0xbf4a322f1496e5c3d34a9bcdb4c60567b38c7de2",
      "contractAddress": null
    }
  ],
  "libraries": [],
  "pending": [],
  "returns": {},
  "timestamp": 1736913122,
  "chain": 11155111,
  "commit": "51a374b"
}