{
  "transactions": [
    {
      "hash": "0x751e224ea8784ae5a819c0bfa7b7f51f66032d5ba5236d2d163b29771d5f9436",
      "transactionType": "CALL",
      "contractName": null,
      "contractAddress": "0x8aafd3ede9adb0ff97c7aebce82a919afb1c8764",
      "function": "sell(uint256)",
      "arguments": [
        "671740726011440586110"
      ],
      "transaction": {
        "from": "0xc77f7fed3b5cc8249adc428c5f44c9063b9734b4",
        "to": "0x8aafd3ede9adb0ff97c7aebce82a919afb1c8764",
        "gas": "0x17270",
        "value": "0x0",
        "input": "0xe4849b320000000000000000000000000000000000000000000000246a467745c2eadd7e",
        "nonce": "0x1271",
        "chainId": "0xaa36a7"
      },
      "additionalContracts": [],
      "isFixedGasLimit": false
    }
  ],
  "receipts": [
    {
      "status": "0x1",
      "cumulativeGasUsed": "0x7b189f",
      "logs": [
        {
          "address": "0x8aafd3ede9adb0ff97c7aebce82a919afb1c8764",
          "topics": [
            "0xddf252ad1be2c89b69c2b068fc378daa952ba7f163c4a11628f55a4df523b3ef",
            "0x000000000000000000000000c77f7fed3b5cc8249adc428c5f44c9063b9734b4",
            "0x0000000000000000000000000000000000000000000000000000000000000000"
          ],
          "data": "0x0000000000000000000000000000000000000000000000241fb27238ea516f2e",
          "blockHash": "0xf9ae9c3d179334663dc97e87c257a889cf906505cbd581cde89d5de29042e3e9",
          "blockNumber": "0x731959",
          "transactionHash": "0x751e224ea8784ae5a819c0bfa7b7f51f66032d5ba5236d2d163b29771d5f9436",
          "transactionIndex": "0x74",
          "logIndex": "0x74",
          "removed": false
        },
        {
          "address": "0x8aafd3ede9adb0ff97c7aebce82a919afb1c8764",
          "topics": [
            "0xddf252ad1be2c89b69c2b068fc378daa952ba7f163c4a11628f55a4df523b3ef",
            "0x000000000000000000000000c77f7fed3b5cc8249adc428c5f44c9063b9734b4",
            "0x000000000000000000000000c77f7fed3b5cc8249adc428c5f44c9063b9734b4"
          ],
          "data": "0x0000000000000000000000000000000000000000000000004a94050cd8996e50",
          "blockHash": "0xf9ae9c3d179334663dc97e87c257a889cf906505cbd581cde89d5de29042e3e9",
          "blockNumber": "0x731959",
          "transactionHash": "0x751e224ea8784ae5a819c0bfa7b7f51f66032d5ba5236d2d163b29771d5f9436",
          "transactionIndex": "0x74",
          "logIndex": "0x75",
          "removed": false
        },
        {
          "address": "0x8aafd3ede9adb0ff97c7aebce82a919afb1c8764",
          "topics": [
            "0x4afcb4a87cdbd9974efdb92ee48bc8d7cd0ae4bf217004db3d080cbaee652ca7"
          ],
          "data": "0x0000000000000000000000000000000000000000000000000000000067902cfc000000000000000000000000000000000000000000000000000541e89621bddb0000000000000000000000000000000000000000000000000dc8ee945257cf15",
          "blockHash": "0xf9ae9c3d179334663dc97e87c257a889cf906505cbd581cde89d5de29042e3e9",
          "blockNumber": "0x731959",
          "transactionHash": "0x751e224ea8784ae5a819c0bfa7b7f51f66032d5ba5236d2d163b29771d5f9436",
          "transactionIndex": "0x74",
          "logIndex": "0x76",
          "removed": false
        }
      ],
      "logsBloom": "0x00000000000000000000000000000000000000000600000000000000000000000000000000000000000000000000000000000000000000004000000000000000000000000000004000000008000000000000000000000000000000000000000000000000020000000000000000000800020000000000000000000010000000000000000000000000000000000000000000000000000000000000010000000000000000000000000000000000000000004000000000000000000000000000000000000002000000800000000000000000000000000000080000000000000020000000000000000000000000000000000000000000000000000000000000000000",
      "type": "0x2",
      "transactionHash": "0x751e224ea8784ae5a819c0bfa7b7f51f66032d5ba5236d2d163b29771d5f9436",
      "transactionIndex": "0x74",
      "blockHash": "0xf9ae9c3d179334663dc97e87c257a889cf906505cbd581cde89d5de29042e3e9",
      "blockNumber": "0x731959",
      "gasUsed": "0xfd4b",
      "effectiveGasPrice": "0x497b7e83",
      "from": "0xc77f7fed3b5cc8249adc428c5f44c9063b9734b4",
      "to": "0x8aafd3ede9adb0ff97c7aebce82a919afb1c8764",
      "contractAddress": null
    }
  ],
  "libraries": [],
  "pending": [],
  "returns": {},
  "timestamp": 1737501951,
  "chain": 11155111,
  "commit": "1d2fb70"
}