{
  "transactions": [
    {
      "hash": "0xa0e0ba76c01729883deb2b5e655df2fe86baff761106f9fe17a4f924e8bf23b3",
      "transactionType": "CALL",
      "contractName": null,
      "contractAddress": "0x5eb9cc76c3506942c1c0ead70e877dd5e4f00cb0",
      "function": "buy(address)",
      "arguments": [
        "0xC77f7fed3b5Cc8249aDc428c5F44C9063B9734b4"
      ],
      "transaction": {
        "from": "0xc77f7fed3b5cc8249adc428c5f44c9063b9734b4",
        "to": "0x5eb9cc76c3506942c1c0ead70e877dd5e4f00cb0",
        "gas": "0x1b30c",
        "value": "0xde0b6b3a7640000",
        "input": "0xf088d547000000000000000000000000c77f7fed3b5cc8249adc428c5f44c9063b9734b4",
        "nonce": "0x402",
        "chainId": "0xaa36a7"
      },
      "additionalContracts": [],
      "isFixedGasLimit": false
    }
  ],
  "receipts": [
    {
      "status": "0x1",
      "cumulativeGasUsed": "0xe5e1d3",
      "logs": [
        {
          "address": "0x5eb9cc76c3506942c1c0ead70e877dd5e4f00cb0",
          "topics": [
            "0xddf252ad1be2c89b69c2b068fc378daa952ba7f163c4a11628f55a4df523b3ef",
            "0x0000000000000000000000000000000000000000000000000000000000000000",
            "0x000000000000000000000000c77f7fed3b5cc8249adc428c5f44c9063b9734b4"
          ],
          "data": "0x0000000000000000000000000000000000000000000000357501176fac90552b",
          "blockHash": "0x354a721b4d7452435efb006f6cba57f452e50774761a650fad4705e0b98ba20a",
          "blockNumber": "0x72500c",
          "transactionHash": "0xa0e0ba76c01729883deb2b5e655df2fe86baff761106f9fe17a4f924e8bf23b3",
          "transactionIndex": "0x6c",
          "logIndex": "0x132",
          "removed": false
        },
        {
          "address": "0x5eb9cc76c3506942c1c0ead70e877dd5e4f00cb0",
          "topics": [
            "0xddf252ad1be2c89b69c2b068fc378daa952ba7f163c4a11628f55a4df523b3ef",
            "0x0000000000000000000000000000000000000000000000000000000000000000",
            "0x000000000000000000000000c77f7fed3b5cc8249adc428c5f44c9063b9734b4"
          ],
          "data": "0x0000000000000000000000000000000000000000000000002982df63034faae6",
          "blockHash": "0x354a721b4d7452435efb006f6cba57f452e50774761a650fad4705e0b98ba20a",
          "blockNumber": "0x72500c",
          "transactionHash": "0xa0e0ba76c01729883deb2b5e655df2fe86baff761106f9fe17a4f924e8bf23b3",
          "transactionIndex": "0x6c",
          "logIndex": "0x133",
          "removed": false
        },
        {
          "address": "0x5eb9cc76c3506942c1c0ead70e877dd5e4f00cb0",
          "topics": [
            "0x4afcb4a87cdbd9974efdb92ee48bc8d7cd0ae4bf217004db3d080cbaee652ca7"
          ],
          "data": "0x000000000000000000000000000000000000000000000000000000006786b25c000000000000000000000000000000000000000000000000000391157fdc16270000000000000000000000000000000000000000000000000de0b6b3a7640000",
          "blockHash": "0x354a721b4d7452435efb006f6cba57f452e50774761a650fad4705e0b98ba20a",
          "blockNumber": "0x72500c",
          "transactionHash": "0xa0e0ba76c01729883deb2b5e655df2fe86baff761106f9fe17a4f924e8bf23b3",
          "transactionIndex": "0x6c",
          "logIndex": "0x134",
          "removed": false
        }
      ],
      "logsBloom": "0x00000000000000000000000000000000000000000000000000000000000000000000000000000000000000000000000000000000000000004000000000000000000000000000000000000008000000000000000000000000000000000000000000000000020000000000000004000800020000000000000000000010000000000000000000000000000000000000000000000000000000000000010000000000000000000000000000000000000000004000000000000000000000000000020000000002000000800000008000000000000000000000080000000000000020000000000000000000000000000000000000000000000000000000000000000000",
      "type": "0x2",
      "transactionHash": "0xa0e0ba76c01729883deb2b5e655df2fe86baff761106f9fe17a4f924e8bf23b3",
      "transactionIndex": "0x6c",
      "blockHash": "0x354a721b4d7452435efb006f6cba57f452e50774761a650fad4705e0b98ba20a",
      "blockNumber": "0x72500c",
      "gasUsed": "0x13af8",
      "effectiveGasPrice": "0x3655ed356",
      "from": "0xc77f7fed3b5cc8249adc428c5f44c9063b9734b4",
      "to": "0x5eb9cc76c3506942c1c0ead70e877dd5e4f00cb0",
      "contractAddress": null
    }
  ],
  "libraries": [],
  "pending": [],
  "returns": {},
  "timestamp": 1736880734,
  "chain": 11155111,
  "commit": "51a374b"
}