{
  "transactions": [
    {
      "hash": "0xe709ceb4481844ecd351a10a64125cf1988ad59cef5322b3cde1cd544b247f7f",
      "transactionType": "CALL",
      "contractName": null,
      "contractAddress": "0x8aafd3ede9adb0ff97c7aebce82a919afb1c8764",
      "function": "buy(address)",
      "arguments": [
        "0xC77f7fed3b5Cc8249aDc428c5F44C9063B9734b4"
      ],
      "transaction": {
        "from": "0xc77f7fed3b5cc8249adc428c5f44c9063b9734b4",
        "to": "0x8aafd3ede9adb0ff97c7aebce82a919afb1c8764",
        "gas": "0x156ea",
        "value": "0xde0b6b3a7640000",
        "input": "0xf088d547000000000000000000000000c77f7fed3b5cc8249adc428c5f44c9063b9734b4",
        "nonce": "0x145c",
        "chainId": "0xaa36a7"
      },
      "additionalContracts": [],
      "isFixedGasLimit": false
    }
  ],
  "receipts": [
    {
      "status": "0x1",
      "cumulativeGasUsed": "0x7fe62b",
      "logs": [
        {
          "address": "0x8aafd3ede9adb0ff97c7aebce82a919afb1c8764",
          "topics": [
            "0xddf252ad1be2c89b69c2b068fc378daa952ba7f163c4a11628f55a4df523b3ef",
            "0x0000000000000000000000000000000000000000000000000000000000000000",
            "0x000000000000000000000000c77f7fed3b5cc8249adc428c5f44c9063b9734b4"
          ],
          "data": "0x00000000000000000000000000000000000000000000000c9842cc15f0740478",
          "blockHash": "0x61f23bc4e24b65cafaaaef41082f1bb44ef1645b1d791b9bbf3b7c5cee4df108",
          "blockNumber": "0x731ba6",
          "transactionHash": "0xe709ceb4481844ecd351a10a64125cf1988ad59cef5322b3cde1cd544b247f7f",
          "transactionIndex": "0x52",
          "logIndex": "0x66",
          "removed": false
        },
        {
          "address": "0x8aafd3ede9adb0ff97c7aebce82a919afb1c8764",
          "topics": [
            "0xddf252ad1be2c89b69c2b068fc378daa952ba7f163c4a11628f55a4df523b3ef",
            "0x0000000000000000000000000000000000000000000000000000000000000000",
            "0x000000000000000000000000c77f7fed3b5cc8249adc428c5f44c9063b9734b4"
          ],
          "data": "0x00000000000000000000000000000000000000000000000009c7bfa380f1635b",
          "blockHash": "0x61f23bc4e24b65cafaaaef41082f1bb44ef1645b1d791b9bbf3b7c5cee4df108",
          "blockNumber": "0x731ba6",
          "transactionHash": "0xe709ceb4481844ecd351a10a64125cf1988ad59cef5322b3cde1cd544b247f7f",
          "transactionIndex": "0x52",
          "logIndex": "0x67",
          "removed": false
        },
        {
          "address": "0x8aafd3ede9adb0ff97c7aebce82a919afb1c8764",
          "topics": [
            "0x4afcb4a87cdbd9974efdb92ee48bc8d7cd0ae4bf217004db3d080cbaee652ca7"
          ],
          "data": "0x00000000000000000000000000000000000000000000000000000000679048a4000000000000000000000000000000000000000000000000000f29d059e28eeb0000000000000000000000000000000000000000000000000de0b6b3a7640000",
          "blockHash": "0x61f23bc4e24b65cafaaaef41082f1bb44ef1645b1d791b9bbf3b7c5cee4df108",
          "blockNumber": "0x731ba6",
          "transactionHash": "0xe709ceb4481844ecd351a10a64125cf1988ad59cef5322b3cde1cd544b247f7f",
          "transactionIndex": "0x52",
          "logIndex": "0x68",
          "removed": false
        }
      ],
      "logsBloom": "0x00000000000000000000000000000000000000000600000000000000000000000000000000000000000000000000000000000000000000004000000000000000000000000000004000000008000000000000000000000000000000000000000000000000020000000000000000000800020000000000000000000010000000000000000000000000000000000000000000000000000000000000010000000000000000000000000000000000000000004000000000000000000000000000000000000002000000800000000000000000000000000000080000000000000020000000000000000000000000000000000000000000000000000000000000000000",
      "type": "0x2",
      "transactionHash": "0xe709ceb4481844ecd351a10a64125cf1988ad59cef5322b3cde1cd544b247f7f",
      "transactionIndex": "0x52",
      "blockHash": "0x61f23bc4e24b65cafaaaef41082f1bb44ef1645b1d791b9bbf3b7c5cee4df108",
      "blockNumber": "0x731ba6",
      "gasUsed": "0xf844",
      "effectiveGasPrice": "0x114f238d3",
      "from": "0xc77f7fed3b5cc8249adc428c5f44c9063b9734b4",
      "to": "0x8aafd3ede9adb0ff97c7aebce82a919afb1c8764",
      "contractAddress": null
    }
  ],
  "libraries": [],
  "pending": [],
  "returns": {},
  "timestamp": 1737509031,
  "chain": 11155111,
  "commit": "1d2fb70"
}