{
  "transactions": [
    {
      "hash": "0xa2777bdfb7808c05b6202502c39e303f655293faefdff25f8198ef7ac5deb09d",
      "transactionType": "CALL",
      "contractName": null,
      "contractAddress": "0x8aafd3ede9adb0ff97c7aebce82a919afb1c8764",
      "function": "sell(uint256)",
      "arguments": [
        "239553059451729854878"
      ],
      "transaction": {
        "from": "0xc77f7fed3b5cc8249adc428c5f44c9063b9734b4",
        "to": "0x8aafd3ede9adb0ff97c7aebce82a919afb1c8764",
        "gas": "0x17270",
        "value": "0x0",
        "input": "0xe4849b3200000000000000000000000000000000000000000000000cfc776e5d6663c19e",
        "nonce": "0x1439",
        "chainId": "0xaa36a7"
      },
      "additionalContracts": [],
      "isFixedGasLimit": false
    }
  ],
  "receipts": [
    {
      "status": "0x1",
      "cumulativeGasUsed": "0xebd61e",
      "logs": [
        {
          "address": "0x8aafd3ede9adb0ff97c7aebce82a919afb1c8764",
          "topics": [
            "0xddf252ad1be2c89b69c2b068fc378daa952ba7f163c4a11628f55a4df523b3ef",
            "0x000000000000000000000000c77f7fed3b5cc8249adc428c5f44c9063b9734b4",
            "0x0000000000000000000000000000000000000000000000000000000000000000"
          ],
          "data": "0x00000000000000000000000000000000000000000000000ce1deec753a9003a7",
          "blockHash": "0x996cb059d453143d85708c602e3fcf7f2a48be04ddd888ca16b6ede00e22fd0c",
          "blockNumber": "0x731b79",
          "transactionHash": "0xa2777bdfb7808c05b6202502c39e303f655293faefdff25f8198ef7ac5deb09d",
          "transactionIndex": "0x68",
          "logIndex": "0xd8",
          "removed": false
        },
        {
          "address": "0x8aafd3ede9adb0ff97c7aebce82a919afb1c8764",
          "topics": [
            "0xddf252ad1be2c89b69c2b068fc378daa952ba7f163c4a11628f55a4df523b3ef",
            "0x000000000000000000000000c77f7fed3b5cc8249adc428c5f44c9063b9734b4",
            "0x000000000000000000000000c77f7fed3b5cc8249adc428c5f44c9063b9734b4"
          ],
          "data": "0x0000000000000000000000000000000000000000000000001a9881e82bd3bdf7",
          "blockHash": "0x996cb059d453143d85708c602e3fcf7f2a48be04ddd888ca16b6ede00e22fd0c",
          "blockNumber": "0x731b79",
          "transactionHash": "0xa2777bdfb7808c05b6202502c39e303f655293faefdff25f8198ef7ac5deb09d",
          "transactionIndex": "0x68",
          "logIndex": "0xd9",
          "removed": false
        },
        {
          "address": "0x8aafd3ede9adb0ff97c7aebce82a919afb1c8764",
          "topics": [
            "0x4afcb4a87cdbd9974efdb92ee48bc8d7cd0ae4bf217004db3d080cbaee652ca7"
          ],
          "data": "0x0000000000000000000000000000000000000000000000000000000067904688000000000000000000000000000000000000000000000000000ed43e135a97be0000000000000000000000000000000000000000000000000dcdbea36044feec",
          "blockHash": "0x996cb059d453143d85708c602e3fcf7f2a48be04ddd888ca16b6ede00e22fd0c",
          "blockNumber": "0x731b79",
          "transactionHash": "0xa2777bdfb7808c05b6202502c39e303f655293faefdff25f8198ef7ac5deb09d",
          "transactionIndex": "0x68",
          "logIndex": "0xda",
          "removed": false
        }
      ],
      "logsBloom": "0x00000000000000000000000000000000000000000600000000000000000000000000000000000000000000000000000000000000000000004000000000000000000000000000004000000008000000000000000000000000000000000000000000000000020000000000000000000800020000000000000000000010000000000000000000000000000000000000000000000000000000000000010000000000000000000000000000000000000000004000000000000000000000000000000000000002000000800000000000000000000000000000080000000000000020000000000000000000000000000000000000000000000000000000000000000000",
      "type": "0x2",
      "transactionHash": "0xa2777bdfb7808c05b6202502c39e303f655293faefdff25f8198ef7ac5deb09d",
      "transactionIndex": "0x68",
      "blockHash": "0x996cb059d453143d85708c602e3fcf7f2a48be04ddd888ca16b6ede00e22fd0c",
      "blockNumber": "0x731b79",
      "gasUsed": "0xfd4b",
      "effectiveGasPrice": "0x1009403b3",
      "from": "0xc77f7fed3b5cc8249adc428c5f44c9063b9734b4",
      "to": "0x8aafd3ede9adb0ff97c7aebce82a919afb1c8764",
      "contractAddress": null
    }
  ],
  "libraries": [],
  "pending": [],
  "returns": {},
  "timestamp": 1737508489,
  "chain": 11155111,
  "commit": "1d2fb70"
}