{
  "transactions": [
    {
      "hash": "0x53f0c39939eace561436c463b7424fe5877d1a5b09f2d9fbb3382c9594f704a0",
      "transactionType": "CALL",
      "contractName": null,
      "contractAddress": "0x8aafd3ede9adb0ff97c7aebce82a919afb1c8764",
      "function": "sell(uint256)",
      "arguments": [
        "346553311238955"
      ],
      "transaction": {
        "from": "0xc77f7fed3b5cc8249adc428c5f44c9063b9734b4",
        "to": "0x8aafd3ede9adb0ff97c7aebce82a919afb1c8764",
        "gas": "0x1724d",
        "value": "0x0",
        "input": "0xe4849b3200000000000000000000000000000000000000000000000000013b303b031b2b",
        "nonce": "0x122e",
        "chainId": "0xaa36a7"
      },
      "additionalContracts": [],
      "isFixedGasLimit": false
    }
  ],
  "receipts": [
    {
      "status": "0x1",
      "cumulativeGasUsed": "0x828d66",
      "logs": [
        {
          "address": "0x8aafd3ede9adb0ff97c7aebce82a919afb1c8764",
          "topics": [
            "0xddf252ad1be2c89b69c2b068fc378daa952ba7f163c4a11628f55a4df523b3ef",
            "0x000000000000000000000000c77f7fed3b5cc8249adc428c5f44c9063b9734b4",
            "0x0000000000000000000000000000000000000000000000000000000000000000"
          ],
          "data": "0x000000000000000000000000000000000000000000000000000138aab9841af4",
          "blockHash": "0xe540745cbdc93f9e5d83c081d5539c7fa59d7a3accabf812a59a3b6f7421f1d7",
          "blockNumber": "0x73190c",
          "transactionHash": "0x53f0c39939eace561436c463b7424fe5877d1a5b09f2d9fbb3382c9594f704a0",
          "transactionIndex": "0x59",
          "logIndex": "0xb0",
          "removed": false
        },
        {
          "address": "0x8aafd3ede9adb0ff97c7aebce82a919afb1c8764",
          "topics": [
            "0xddf252ad1be2c89b69c2b068fc378daa952ba7f163c4a11628f55a4df523b3ef",
            "0x000000000000000000000000c77f7fed3b5cc8249adc428c5f44c9063b9734b4",
            "0x000000000000000000000000c77f7fed3b5cc8249adc428c5f44c9063b9734b4"
          ],
          "data": "0x00000000000000000000000000000000000000000000000000000285817f0037",
          "blockHash": "0xe540745cbdc93f9e5d83c081d5539c7fa59d7a3accabf812a59a3b6f7421f1d7",
          "blockNumber": "0x73190c",
          "transactionHash": "0x53f0c39939eace561436c463b7424fe5877d1a5b09f2d9fbb3382c9594f704a0",
          "transactionIndex": "0x59",
          "logIndex": "0xb1",
          "removed": false
        },
        {
          "address": "0x8aafd3ede9adb0ff97c7aebce82a919afb1c8764",
          "topics": [
            "0x4afcb4a87cdbd9974efdb92ee48bc8d7cd0ae4bf217004db3d080cbaee652ca7"
          ],
          "data": "0x0000000000000000000000000000000000000000000000000000000067902960000000000000000000000000000000000000000000000000000537be912358d300000000000000000000000000000000000000000000000000000076810cc6da",
          "blockHash": "0xe540745cbdc93f9e5d83c081d5539c7fa59d7a3accabf812a59a3b6f7421f1d7",
          "blockNumber": "0x73190c",
          "transactionHash": "0x53f0c39939eace561436c463b7424fe5877d1a5b09f2d9fbb3382c9594f704a0",
          "transactionIndex": "0x59",
          "logIndex": "0xb2",
          "removed": false
        }
      ],
      "logsBloom": "0x00000000000000000000000000000000000000000600000000000000000000000000000000000000000000000000000000000000000000004000000000000000000000000000004000000008000000000000000000000000000000000000000000000000020000000000000000000800020000000000000000000010000000000000000000000000000000000000000000000000000000000000010000000000000000000000000000000000000000004000000000000000000000000000000000000002000000800000000000000000000000000000080000000000000020000000000000000000000000000000000000000000000000000000000000000000",
      "type": "0x2",
      "transactionHash": "0x53f0c39939eace561436c463b7424fe5877d1a5b09f2d9fbb3382c9594f704a0",
      "transactionIndex": "0x59",
      "blockHash": "0xe540745cbdc93f9e5d83c081d5539c7fa59d7a3accabf812a59a3b6f7421f1d7",
      "blockNumber": "0x73190c",
      "gasUsed": "0xfd33",
      "effectiveGasPrice": "0x56884a10",
      "from": "0xc77f7fed3b5cc8249adc428c5f44c9063b9734b4",
      "to": "0x8aafd3ede9adb0ff97c7aebce82a919afb1c8764",
      "contractAddress": null
    }
  ],
  "libraries": [],
  "pending": [],
  "returns": {},
  "timestamp": 1737501025,
  "chain": 11155111,
  "commit": "1d2fb70"
}