{
  "transactions": [
    {
      "hash": "0x9992f28980a0074b9544292f275ecefb1418fa1276f64c2f36fdeeba9bb8be32",
      "transactionType": "CALL",
      "contractName": null,
      "contractAddress": "0x8aafd3ede9adb0ff97c7aebce82a919afb1c8764",
      "function": "sell(uint256)",
      "arguments": [
        "83663969942073"
      ],
      "transaction": {
        "from": "0xc77f7fed3b5cc8249adc428c5f44c9063b9734b4",
        "to": "0x8aafd3ede9adb0ff97c7aebce82a919afb1c8764",
        "gas": "0x15daa",
        "value": "0x0",
        "input": "0xe4849b3200000000000000000000000000000000000000000000000000004c1789357a39",
        "nonce": "0x168e",
        "chainId": "0xaa36a7"
      },
      "additionalContracts": [],
      "isFixedGasLimit": false
    }
  ],
  "receipts": [
    {
      "status": "0x1",
      "cumulativeGasUsed": "0xdcde3b",
      "logs": [
        {
          "address": "0x8aafd3ede9adb0ff97c7aebce82a919afb1c8764",
          "topics": [
            "0xddf252ad1be2c89b69c2b068fc378daa952ba7f163c4a11628f55a4df523b3ef",
            "0x000000000000000000000000c77f7fed3b5cc8249adc428c5f44c9063b9734b4",
            "0x0000000000000000000000000000000000000000000000000000000000000000"
          ],
          "data": "0x00000000000000000000000000000000000000000000000000004b7bb31e8589",
          "blockHash": "0xb8e534e1a8e6b57303f9692b3419b7e84c5571dff729c392db54f482afcdd3bf",
          "blockNumber": "0x731e44",
          "transactionHash": "0x9992f28980a0074b9544292f275ecefb1418fa1276f64c2f36fdeeba9bb8be32",
          "transactionIndex": "0x80",
          "logIndex": "0xd6",
          "removed": false
        },
        {
          "address": "0x8aafd3ede9adb0ff97c7aebce82a919afb1c8764",
          "topics": [
            "0xddf252ad1be2c89b69c2b068fc378daa952ba7f163c4a11628f55a4df523b3ef",
            "0x000000000000000000000000c77f7fed3b5cc8249adc428c5f44c9063b9734b4",
            "0x000000000000000000000000c77f7fed3b5cc8249adc428c5f44c9063b9734b4"
          ],
          "data": "0x0000000000000000000000000000000000000000000000000000009bd616f4b0",
          "blockHash": "0xb8e534e1a8e6b57303f9692b3419b7e84c5571dff729c392db54f482afcdd3bf",
          "blockNumber": "0x731e44",
          "transactionHash": "0x9992f28980a0074b9544292f275ecefb1418fa1276f64c2f36fdeeba9bb8be32",
          "transactionIndex": "0x80",
          "logIndex": "0xd7",
          "removed": false
        },
        {
          "address": "0x8aafd3ede9adb0ff97c7aebce82a919afb1c8764",
          "topics": [
            "0x4afcb4a87cdbd9974efdb92ee48bc8d7cd0ae4bf217004db3d080cbaee652ca7"
          ],
          "data": "0x00000000000000000000000000000000000000000000000000000000679068180000000000000000000000000000000000000000000000000015b1c3bfddb49700000000000000000000000000000000000000000000000000000076f34d5fb6",
          "blockHash": "0xb8e534e1a8e6b57303f9692b3419b7e84c5571dff729c392db54f482afcdd3bf",
          "blockNumber": "0x731e44",
          "transactionHash": "0x9992f28980a0074b9544292f275ecefb1418fa1276f64c2f36fdeeba9bb8be32",
          "transactionIndex": "0x80",
          "logIndex": "0xd8",
          "removed": false
        }
      ],
      "logsBloom": "0x00000000000000000000000000000000000000000600000000000000000000000000000000000000000000000000000000000000000000004000000000000000000000000000004000000008000000000000000000000000000000000000000000000000020000000000000000000800020000000000000000000010000000000000000000000000000000000000000000000000000000000000010000000000000000000000000000000000000000004000000000000000000000000000000000000002000000800000000000000000000000000000080000000000000020000000000000000000000000000000000000000000000000000000000000000000",
      "type": "0x2",
      "transactionHash": "0x9992f28980a0074b9544292f275ecefb1418fa1276f64c2f36fdeeba9bb8be32",
      "transactionIndex": "0x80",
      "blockHash": "0xb8e534e1a8e6b57303f9692b3419b7e84c5571dff729c392db54f482afcdd3bf",
      "blockNumber": "0x731e44",
      "gasUsed": "0xfd27",
      "effectiveGasPrice": "0x507588ae",
      "from": "0xc77f7fed3b5cc8249adc428c5f44c9063b9734b4",
      "to": "0x8aafd3ede9adb0ff97c7aebce82a919afb1c8764",
      "contractAddress": null
    }
  ],
  "libraries": [],
  "pending": [],
  "returns": {},
  "timestamp": 1737517081,
  "chain": 11155111,
  "commit": "1d2fb70"
}