{
  "transactions": [
    {
      "hash": "0xd2eb2840d23496a025f95b85734d5233041006cd61f9f5fbb8f565409c761bdd",
      "transactionType": "CALL",
      "contractName": null,
      "contractAddress": "0x8aafd3ede9adb0ff97c7aebce82a919afb1c8764",
      "function": "sell(uint256)",
      "arguments": [
        "51568556"
      ],
      "transaction": {
        "from": "0xc77f7fed3b5cc8249adc428c5f44c9063b9734b4",
        "to": "0x8aafd3ede9adb0ff97c7aebce82a919afb1c8764",
        "gas": "0x15d88",
        "value": "0x0",
        "input": "0xe4849b32000000000000000000000000000000000000000000000000000000000312dfac",
        "nonce": "0x1556",
        "chainId": "0xaa36a7"
      },
      "additionalContracts": [],
      "isFixedGasLimit": false
    }
  ],
  "receipts": [
    {
      "status": "0x1",
      "cumulativeGasUsed": "0x984f31",
      "logs": [
        {
          "address": "0x8aafd3ede9adb0ff97c7aebce82a919afb1c8764",
          "topics": [
            "0xddf252ad1be2c89b69c2b068fc378daa952ba7f163c4a11628f55a4df523b3ef",
            "0x000000000000000000000000c77f7fed3b5cc8249adc428c5f44c9063b9734b4",
            "0x0000000000000000000000000000000000000000000000000000000000000000"
          ],
          "data": "0x00000000000000000000000000000000000000000000000000000000030c9428",
          "blockHash": "0x5c7ea8de8cddc63375c5d5de2ee045bae704437b95d6944acb5b1a5613aedaaa",
          "blockNumber": "0x731cbc",
          "transactionHash": "0xd2eb2840d23496a025f95b85734d5233041006cd61f9f5fbb8f565409c761bdd",
          "transactionIndex": "0x5a",
          "logIndex": "0x85",
          "removed": false
        },
        {
          "address": "0x8aafd3ede9adb0ff97c7aebce82a919afb1c8764",
          "topics": [
            "0xddf252ad1be2c89b69c2b068fc378daa952ba7f163c4a11628f55a4df523b3ef",
            "0x000000000000000000000000c77f7fed3b5cc8249adc428c5f44c9063b9734b4",
            "0x000000000000000000000000c77f7fed3b5cc8249adc428c5f44c9063b9734b4"
          ],
          "data": "0x0000000000000000000000000000000000000000000000000000000000064b84",
          "blockHash": "0x5c7ea8de8cddc63375c5d5de2ee045bae704437b95d6944acb5b1a5613aedaaa",
          "blockNumber": "0x731cbc",
          "transactionHash": "0xd2eb2840d23496a025f95b85734d5233041006cd61f9f5fbb8f565409c761bdd",
          "transactionIndex": "0x5a",
          "logIndex": "0x86",
          "removed": false
        },
        {
          "address": "0x8aafd3ede9adb0ff97c7aebce82a919afb1c8764",
          "topics": [
            "0x4afcb4a87cdbd9974efdb92ee48bc8d7cd0ae4bf217004db3d080cbaee652ca7"
          ],
          "data": "0x00000000000000000000000000000000000000000000000000000000679055ac0000000000000000000000000000000000000000000000000012099a51cd69d6000000000000000000000000000000000000000000000000000000000003febb",
          "blockHash": "0x5c7ea8de8cddc63375c5d5de2ee045bae704437b95d6944acb5b1a5613aedaaa",
          "blockNumber": "0x731cbc",
          "transactionHash": "0xd2eb2840d23496a025f95b85734d5233041006cd61f9f5fbb8f565409c761bdd",
          "transactionIndex": "0x5a",
          "logIndex": "0x87",
          "removed": false
        }
      ],
      "logsBloom": "0x00000000000000000000000000000000000000000600000000000000000000000000000000000000000000000000000000000000000000004000000000000000000000000000004000000008000000000000000000000000000000000000000000000000020000000000000000000800020000000000000000000010000000000000000000000000000000000000000000000000000000000000010000000000000000000000000000000000000000004000000000000000000000000000000000000002000000800000000000000000000000000000080000000000000020000000000000000000000000000000000000000000000000000000000000000000",
      "type": "0x2",
      "transactionHash": "0xd2eb2840d23496a025f95b85734d5233041006cd61f9f5fbb8f565409c761bdd",
      "transactionIndex": "0x5a",
      "blockHash": "0x5c7ea8de8cddc63375c5d5de2ee045bae704437b95d6944acb5b1a5613aedaaa",
      "blockNumber": "0x731cbc",
      "gasUsed": "0xfd0f",
      "effectiveGasPrice": "0xb5f440bb",
      "from": "0xc77f7fed3b5cc8249adc428c5f44c9063b9734b4",
      "to": "0x8aafd3ede9adb0ff97c7aebce82a919afb1c8764",
      "contractAddress": null
    }
  ],
  "libraries": [],
  "pending": [],
  "returns": {},
  "timestamp": 1737512365,
  "chain": 11155111,
  "commit": "1d2fb70"
}