{
  "transactions": [
    {
      "hash": "0xf3f220864bf912b85b1b7a5882419aadef70ea02f0b9504f814e7184d097d835",
      "transactionType": "CALL",
      "contractName": null,
      "contractAddress": "0x8aafd3ede9adb0ff97c7aebce82a919afb1c8764",
      "function": "sell(uint256)",
      "arguments": [
        "45446785707523959"
      ],
      "transaction": {
        "from": "0xc77f7fed3b5cc8249adc428c5f44c9063b9734b4",
        "to": "0x8aafd3ede9adb0ff97c7aebce82a919afb1c8764",
        "gas": "0x1724d",
        "value": "0x0",
        "input": "0xe4849b3200000000000000000000000000000000000000000000000000a1759c5e47bf77",
        "nonce": "0x107f",
        "chainId": "0xaa36a7"
      },
      "additionalContracts": [],
      "isFixedGasLimit": false
    }
  ],
  "receipts": [
    {
      "status": "0x1",
      "cumulativeGasUsed": "0x6b3ec9",
      "logs": [
        {
          "address": "0x8aafd3ede9adb0ff97c7aebce82a919afb1c8764",
          "topics": [
            "0xddf252ad1be2c89b69c2b068fc378daa952ba7f163c4a11628f55a4df523b3ef",
            "0x000000000000000000000000c77f7fed3b5cc8249adc428c5f44c9063b9734b4",
            "0x0000000000000000000000000000000000000000000000000000000000000000"
          ],
          "data": "0x00000000000000000000000000000000000000000000000000a02af122224f58",
          "blockHash": "0xbe2696b31428dd2910861f00f7fc83f5cd314d551e84dddce9696d1cdc6de63b",
          "blockNumber": "0x731709",
          "transactionHash": "0xf3f220864bf912b85b1b7a5882419aadef70ea02f0b9504f814e7184d097d835",
          "transactionIndex": "0x4e",
          "logIndex": "0x6d",
          "removed": false
        },
        {
          "address": "0x8aafd3ede9adb0ff97c7aebce82a919afb1c8764",
          "topics": [
            "0xddf252ad1be2c89b69c2b068fc378daa952ba7f163c4a11628f55a4df523b3ef",
            "0x000000000000000000000000c77f7fed3b5cc8249adc428c5f44c9063b9734b4",
            "0x000000000000000000000000c77f7fed3b5cc8249adc428c5f44c9063b9734b4"
          ],
          "data": "0x00000000000000000000000000000000000000000000000000014aab3c25701f",
          "blockHash": "0xbe2696b31428dd2910861f00f7fc83f5cd314d551e84dddce9696d1cdc6de63b",
          "blockNumber": "0x731709",
          "transactionHash": "0xf3f220864bf912b85b1b7a5882419aadef70ea02f0b9504f814e7184d097d835",
          "transactionIndex": "0x4e",
          "logIndex": "0x6e",
          "removed": false
        },
        {
          "address": "0x8aafd3ede9adb0ff97c7aebce82a919afb1c8764",
          "topics": [
            "0x4afcb4a87cdbd9974efdb92ee48bc8d7cd0ae4bf217004db3d080cbaee652ca7"
          ],
          "data": "0x00000000000000000000000000000000000000000000000000000000679011240000000000000000000000000000000000000000000000000004f9471c8e267b000000000000000000000000000000000000000000000000000039ddcb09f11b",
          "blockHash": "0xbe2696b31428dd2910861f00f7fc83f5cd314d551e84dddce9696d1cdc6de63b",
          "blockNumber": "0x731709",
          "transactionHash": "0xf3f220864bf912b85b1b7a5882419aadef70ea02f0b9504f814e7184d097d835",
          "transactionIndex": "0x4e",
          "logIndex": "0x6f",
          "removed": false
        }
      ],
      "logsBloom": "0x00000000000000000000000000000000000000000600000000000000000000000000000000000000000000000000000000000000000000004000000000000000000000000000004000000008000000000000000000000000000000000000000000000000020000000000000000000800020000000000000000000010000000000000000000000000000000000000000000000000000000000000010000000000000000000000000000000000000000004000000000000000000000000000000000000002000000800000000000000000000000000000080000000000000020000000000000000000000000000000000000000000000000000000000000000000",
      "type": "0x2",
      "transactionHash": "0xf3f220864bf912b85b1b7a5882419aadef70ea02f0b9504f814e7184d097d835",
      "transactionIndex": "0x4e",
      "blockHash": "0xbe2696b31428dd2910861f00f7fc83f5cd314d551e84dddce9696d1cdc6de63b",
      "blockNumber": "0x731709",
      "gasUsed": "0xfd33",
      "effectiveGasPrice": "0x47f7a5bf",
      "from": "0xc77f7fed3b5cc8249adc428c5f44c9063b9734b4",
      "to": "0x8aafd3ede9adb0ff97c7aebce82a919afb1c8764",
      "contractAddress": null
    }
  ],
  "libraries": [],
  "pending": [],
  "returns": {},
  "timestamp": 1737494821,
  "chain": 11155111,
  "commit": "1d2fb70"
}