{
  "transactions": [
    {
      "hash": "0x4c92a314fc7cd4454f21322d5dbb26a14d164473ba762e9c091b5403980ecb13",
      "transactionType": "CALL",
      "contractName": null,
      "contractAddress": "0x5eb9cc76c3506942c1c0ead70e877dd5e4f00cb0",
      "function": "buy(address)",
      "arguments": [
        "0xC77f7fed3b5Cc8249aDc428c5F44C9063B9734b4"
      ],
      "transaction": {
        "from": "0xc77f7fed3b5cc8249adc428c5f44c9063b9734b4",
        "to": "0x5eb9cc76c3506942c1c0ead70e877dd5e4f00cb0",
        "gas": "0x1b30c",
        "value": "0xde0b6b3a7640000",
        "input": "0xf088d547000000000000000000000000c77f7fed3b5cc8249adc428c5f44c9063b9734b4",
        "nonce": "0x3aa",
        "chainId": "0xaa36a7"
      },
      "additionalContracts": [],
      "isFixedGasLimit": false
    }
  ],
  "receipts": [
    {
      "status": "0x1",
      "cumulativeGasUsed": "0x1096c1d",
      "logs": [
        {
          "address": "0x5eb9cc76c3506942c1c0ead70e877dd5e4f00cb0",
          "topics": [
            "0xddf252ad1be2c89b69c2b068fc378daa952ba7f163c4a11628f55a4df523b3ef",
            "0x0000000000000000000000000000000000000000000000000000000000000000",
            "0x000000000000000000000000c77f7fed3b5cc8249adc428c5f44c9063b9734b4"
          ],
          "data": "0x0000000000000000000000000000000000000000000000357532c2f7c5ce25bb",
          "blockHash": "0xb3d16d268bdcdecb4c0420544e8d7ed0063b8c5c72d78dcd951b5d3eab731717",
          "blockNumber": "0x724fa8",
          "transactionHash": "0x4c92a314fc7cd4454f21322d5dbb26a14d164473ba762e9c091b5403980ecb13",
          "transactionIndex": "0x5f",
          "logIndex": "0x89",
          "removed": false
        },
        {
          "address": "0x5eb9cc76c3506942c1c0ead70e877dd5e4f00cb0",
          "topics": [
            "0xddf252ad1be2c89b69c2b068fc378daa952ba7f163c4a11628f55a4df523b3ef",
            "0x0000000000000000000000000000000000000000000000000000000000000000",
            "0x000000000000000000000000c77f7fed3b5cc8249adc428c5f44c9063b9734b4"
          ],
          "data": "0x000000000000000000000000000000000000000000000000298305f50e95dc11",
          "blockHash": "0xb3d16d268bdcdecb4c0420544e8d7ed0063b8c5c72d78dcd951b5d3eab731717",
          "blockNumber": "0x724fa8",
          "transactionHash": "0x4c92a314fc7cd4454f21322d5dbb26a14d164473ba762e9c091b5403980ecb13",
          "transactionIndex": "0x5f",
          "logIndex": "0x8a",
          "removed": false
        },
        {
          "address": "0x5eb9cc76c3506942c1c0ead70e877dd5e4f00cb0",
          "topics": [
            "0x4afcb4a87cdbd9974efdb92ee48bc8d7cd0ae4bf217004db3d080cbaee652ca7"
          ],
          "data": "0x000000000000000000000000000000000000000000000000000000006786ada0000000000000000000000000000000000000000000000000000391122f78f74d0000000000000000000000000000000000000000000000000de0b6b3a7640000",
          "blockHash": "0xb3d16d268bdcdecb4c0420544e8d7ed0063b8c5c72d78dcd951b5d3eab731717",
          "blockNumber": "0x724fa8",
          "transactionHash": "0x4c92a314fc7cd4454f21322d5dbb26a14d164473ba762e9c091b5403980ecb13",
          "transactionIndex": "0x5f",
          "logIndex": "0x8b",
          "removed": false
        }
      ],
      "logsBloom": "0x00000000000000000000000000000000000000000000000000000000000000000000000000000000000000000000000000000000000000004000000000000000000000000000000000000008000000000000000000000000000000000000000000000000020000000000000004000800020000000000000000000010000000000000000000000000000000000000000000000000000000000000010000000000000000000000000000000000000000004000000000000000000000000000020000000002000000800000008000000000000000000000080000000000000020000000000000000000000000000000000000000000000000000000000000000000",
      "type": "0x2",
      "transactionHash": "0x4c92a314fc7cd4454f21322d5dbb26a14d164473ba762e9c091b5403980ecb13",
      "transactionIndex": "0x5f",
      "blockHash": "0xb3d16d268bdcdecb4c0420544e8d7ed0063b8c5c72d78dcd951b5d3eab731717",
      "blockNumber": "0x724fa8",
      "gasUsed": "0x13af8",
      "effectiveGasPrice": "0x50b763b83",
      "from": "0xc77f7fed3b5cc8249adc428c5f44c9063b9734b4",
      "to": "0x5eb9cc76c3506942c1c0ead70e877dd5e4f00cb0",
      "contractAddress": null
    }
  ],
  "libraries": [],
  "pending": [],
  "returns": {},
  "timestamp": 1736879522,
  "chain": 11155111,
  "commit": "51a374b"
}