{
  "transactions": [
    {
      "hash": "0x75d344699e5b3fd1100d5f6d2bad99fb9d2737c3b8e38b22e406c7943396341d",
      "transactionType": "CALL",
      "contractName": null,
      "contractAddress": "0xbf4a322f1496e5c3d34a9bcdb4c60567b38c7de2",
      "function": "sell(uint256)",
      "arguments": [
        "979261377281111643617"
      ],
      "transaction": {
        "from": "0xc77f7fed3b5cc8249adc428c5f44c9063b9734b4",
        "to": "0xbf4a322f1496e5c3d34a9bcdb4c60567b38c7de2",
        "gas": "0x16fea",
        "value": "0x0",
        "input": "0xe4849b3200000000000000000000000000000000000000000000003515fb4a49bc7055e1",
        "nonce": "0xc4f",
        "chainId": "0xaa36a7"
      },
      "additionalContracts": [],
      "isFixedGasLimit": false
    }
  ],
  "receipts": [
    {
      "status": "0x1",
      "cumulativeGasUsed": "0x12f232b",
      "logs": [
        {
          "address": "0xbf4a322f1496e5c3d34a9bcdb4c60567b38c7de2",
          "topics": [
            "0xddf252ad1be2c89b69c2b068fc378daa952ba7f163c4a11628f55a4df523b3ef",
            "0x000000000000000000000000c77f7fed3b5cc8249adc428c5f44c9063b9734b4",
            "0x0000000000000000000000000000000000000000000000000000000000000000"
          ],
          "data": "0x00000000000000000000000000000000000000000000003515fb4a49bc7055e1",
          "blockHash": "0x8fb831f04c97dcd2b15539431a0e7e2102f2c8d62c07ce549f1bc21b9dac4766",
          "blockNumber": "0x725c86",
          "transactionHash": "0x75d344699e5b3fd1100d5f6d2bad99fb9d2737c3b8e38b22e406c7943396341d",
          "transactionIndex": "0x54",
          "logIndex": "0x96",
          "removed": false
        },
        {
          "address": "0xbf4a322f1496e5c3d34a9bcdb4c60567b38c7de2",
          "topics": [
            "0x4afcb4a87cdbd9974efdb92ee48bc8d7cd0ae4bf217004db3d080cbaee652ca7"
          ],
          "data": "0x00000000000000000000000000000000000000000000000000000000678748a400000000000000000000000000000000000000000000000000039a4856684a560000000000000000000000000000000000000000000000000dc7e3e05957db86",
          "blockHash": "0x8fb831f04c97dcd2b15539431a0e7e2102f2c8d62c07ce549f1bc21b9dac4766",
          "blockNumber": "0x725c86",
          "transactionHash": "0x75d344699e5b3fd1100d5f6d2bad99fb9d2737c3b8e38b22e406c7943396341d",
          "transactionIndex": "0x54",
          "logIndex": "0x97",
          "removed": false
        }
      ],
      "logsBloom": "0x00000000000000000000000000000000000000000000000000000000000000000000000000000000000000000000000000000000000000004000000000000000000000000000000000000008000000000000001000000000000000000000000000000000020000000000000000000800020000000000000000000010000000000000000000000000000000000000000000000000000008000000010000000000000000000000000000000000000000004000000000000000000000000000000000000002000000800000000000001000000000000000080000000000000020000000000000000000000000000000000000000000000000000000000000000000",
      "type": "0x2",
      "transactionHash": "0x75d344699e5b3fd1100d5f6d2bad99fb9d2737c3b8e38b22e406c7943396341d",
      "transactionIndex": "0x54",
      "blockHash": "0x8fb831f04c97dcd2b15539431a0e7e2102f2c8d62c07ce549f1bc21b9dac4766",
      "blockNumber": "0x725c86",
      "gasUsed": "0xfb91",
      "effectiveGasPrice": "0x2139c6473",
      "from": "0xc77f7fed3b5cc8249adc428c5f44c9063b9734b4",
      "to": "0xbf4a322f1496e5c3d34a9bcdb4c60567b38c7de2",
      "contractAddress": null
    }
  ],
  "libraries": [],
  "pending": [],
  "returns": {},
  "timestamp": 1736919205,
  "chain": 11155111,
  "commit": "51a374b"
}