{
  "transactions": [
    {
      "hash": "0xdcb385880c9a69c1fc942b815629c4f75d9005532c27179740093755309eb3e7",
      "transactionType": "CALL",
      "contractName": null,
      "contractAddress": "0x8aafd3ede9adb0ff97c7aebce82a919afb1c8764",
      "function": "buy(address)",
      "arguments": [
        "0xC77f7fed3b5Cc8249aDc428c5F44C9063B9734b4"
      ],
      "transaction": {
        "from": "0xc77f7fed3b5cc8249adc428c5f44c9063b9734b4",
        "to": "0x8aafd3ede9adb0ff97c7aebce82a919afb1c8764",
        "gas": "0x156ea",
        "value": "0xde0b6b3a7640000",
        "input": "0xf088d547000000000000000000000000c77f7fed3b5cc8249adc428c5f44c9063b9734b4",
        "nonce": "0x1585",
        "chainId": "0xaa36a7"
      },
      "additionalContracts": [],
      "isFixedGasLimit": false
    }
  ],
  "receipts": [
    {
      "status": "0x1",
      "cumulativeGasUsed": "0x1c20f94",
      "logs": [
        {
          "address": "0x8aafd3ede9adb0ff97c7aebce82a919afb1c8764",
          "topics": [
            "0xddf252ad1be2c89b69c2b068fc378daa952ba7f163c4a11628f55a4df523b3ef",
            "0x0000000000000000000000000000000000000000000000000000000000000000",
            "0x000000000000000000000000c77f7fed3b5cc8249adc428c5f44c9063b9734b4"
          ],
          "data": "0x00000000000000000000000000000000000000000000000a4630d2565c413ef0",
          "blockHash": "0x7498b58ecd8d1d52a91592877c7b15fc56021caecd10b6edf0413fe0ba0457ba",
          "blockNumber": "0x731cf1",
          "transactionHash": "0xdcb385880c9a69c1fc942b815629c4f75d9005532c27179740093755309eb3e7",
          "transactionIndex": "0x167",
          "logIndex": "0x174",
          "removed": false
        },
        {
          "address": "0x8aafd3ede9adb0ff97c7aebce82a919afb1c8764",
          "topics": [
            "0xddf252ad1be2c89b69c2b068fc378daa952ba7f163c4a11628f55a4df523b3ef",
            "0x0000000000000000000000000000000000000000000000000000000000000000",
            "0x000000000000000000000000c77f7fed3b5cc8249adc428c5f44c9063b9734b4"
          ],
          "data": "0x00000000000000000000000000000000000000000000000007fa6ecc1233c67a",
          "blockHash": "0x7498b58ecd8d1d52a91592877c7b15fc56021caecd10b6edf0413fe0ba0457ba",
          "blockNumber": "0x731cf1",
          "transactionHash": "0xdcb385880c9a69c1fc942b815629c4f75d9005532c27179740093755309eb3e7",
          "transactionIndex": "0x167",
          "logIndex": "0x175",
          "removed": false
        },
        {
          "address": "0x8aafd3ede9adb0ff97c7aebce82a919afb1c8764",
          "topics": [
            "0x4afcb4a87cdbd9974efdb92ee48bc8d7cd0ae4bf217004db3d080cbaee652ca7"
          ],
          "data": "0x00000000000000000000000000000000000000000000000000000000679058340000000000000000000000000000000000000000000000000012956f611784820000000000000000000000000000000000000000000000000de0b6b3a7640000",
          "blockHash": "0x7498b58ecd8d1d52a91592877c7b15fc56021caecd10b6edf0413fe0ba0457ba",
          "blockNumber": "0x731cf1",
          "transactionHash": "0xdcb385880c9a69c1fc942b815629c4f75d9005532c27179740093755309eb3e7",
          "transactionIndex": "0x167",
          "logIndex": "0x176",
          "removed": false
        }
      ],
      "logsBloom": "0x00000000000000000000000000000000000000000600000000000000000000000000000000000000000000000000000000000000000000004000000000000000000000000000004000000008000000000000000000000000000000000000000000000000020000000000000000000800020000000000000000000010000000000000000000000000000000000000000000000000000000000000010000000000000000000000000000000000000000004000000000000000000000000000000000000002000000800000000000000000000000000000080000000000000020000000000000000000000000000000000000000000000000000000000000000000",
      "type": "0x2",
      "transactionHash": "0xdcb385880c9a69c1fc942b815629c4f75d9005532c27179740093755309eb3e7",
      "transactionIndex": "0x167",
      "blockHash": "0x7498b58ecd8d1d52a91592877c7b15fc56021caecd10b6edf0413fe0ba0457ba",
      "blockNumber": "0x731cf1",
      "gasUsed": "0xf844",
      "effectiveGasPrice": "0x66239652",
      "from": "0xc77f7fed3b5cc8249adc428c5f44c9063b9734b4",
      "to": "0x8aafd3ede9adb0ff97c7aebce82a919afb1c8764",
      "contractAddress": null
    }
  ],
  "libraries": [],
  "pending": [],
  "returns": {},
  "timestamp": 1737513014,
  "chain": 11155111,
  "commit": "1d2fb70"
}