{
  "transactions": [
    {
      "hash": "0xc06d8fb36222ae871c8312dce3e287edf535b42fda29bc8e48e9473ca519866c",
      "transactionType": "CALL",
      "contractName": null,
      "contractAddress": "0xbf4a322f1496e5c3d34a9bcdb4c60567b38c7de2",
      "function": "sell(uint256)",
      "arguments": [
        "976720781767985113658"
      ],
      "transaction": {
        "from": "0xc77f7fed3b5cc8249adc428c5f44c9063b9734b4",
        "to": "0xbf4a322f1496e5c3d34a9bcdb4c60567b38c7de2",
        "gas": "0x16fea",
        "value": "0x0",
        "input": "0xe4849b32000000000000000000000000000000000000000000000034f2b948212694aa3a",
        "nonce": "0xd0d",
        "chainId": "0xaa36a7"
      },
      "additionalContracts": [],
      "isFixedGasLimit": false
    }
  ],
  "receipts": [
    {
      "status": "0x1",
      "cumulativeGasUsed": "0x77ab51",
      "logs": [
        {
          "address": "0xbf4a322f1496e5c3d34a9bcdb4c60567b38c7de2",
          "topics": [
            "0xddf252ad1be2c89b69c2b068fc378daa952ba7f163c4a11628f55a4df523b3ef",
            "0x000000000000000000000000c77f7fed3b5cc8249adc428c5f44c9063b9734b4",
            "0x0000000000000000000000000000000000000000000000000000000000000000"
          ],
          "data": "0x000000000000000000000000000000000000000000000034f2b948212694aa3a",
          "blockHash": "0x720e9bcce94a2c86e6676fc6bc9b01751f77da5930c3b6c4ba35d424cafcdc12",
          "blockNumber": "0x725d67",
          "transactionHash": "0xc06d8fb36222ae871c8312dce3e287edf535b42fda29bc8e48e9473ca519866c",
          "transactionIndex": "0x4c",
          "logIndex": "0xa0",
          "removed": false
        },
        {
          "address": "0xbf4a322f1496e5c3d34a9bcdb4c60567b38c7de2",
          "topics": [
            "0x4afcb4a87cdbd9974efdb92ee48bc8d7cd0ae4bf217004db3d080cbaee652ca7"
          ],
          "data": "0x000000000000000000000000000000000000000000000000000000006787534800000000000000000000000000000000000000000000000000039cae768d876d0000000000000000000000000000000000000000000000000dc7e3da7126c1f7",
          "blockHash": "0x720e9bcce94a2c86e6676fc6bc9b01751f77da5930c3b6c4ba35d424cafcdc12",
          "blockNumber": "0x725d67",
          "transactionHash": "0xc06d8fb36222ae871c8312dce3e287edf535b42fda29bc8e48e9473ca519866c",
          "transactionIndex": "0x4c",
          "logIndex": "0xa1",
          "removed": false
        }
      ],
      "logsBloom": "0x00000000000000000000000000000000000000000000000000000000000000000000000000000000000000000000000000000000000000004000000000000000000000000000000000000008000000000000001000000000000000000000000000000000020000000000000000000800020000000000000000000010000000000000000000000000000000000000000000000000000008000000010000000000000000000000000000000000000000004000000000000000000000000000000000000002000000800000000000001000000000000000080000000000000020000000000000000000000000000000000000000000000000000000000000000000",
      "type": "0x2",
      "transactionHash": "0xc06d8fb36222ae871c8312dce3e287edf535b42fda29bc8e48e9473ca519866c",
      "transactionIndex": "0x4c",
      "blockHash": "0x720e9bcce94a2c86e6676fc6bc9b01751f77da5930c3b6c4ba35d424cafcdc12",
      "blockNumber": "0x725d67",
      "gasUsed": "0xfb91",
      "effectiveGasPrice": "0x2ddc428d5",
      "from": "0xc77f7fed3b5cc8249adc428c5f44c9063b9734b4",
      "to": "0xbf4a322f1496e5c3d34a9bcdb4c60567b38c7de2",
      "contractAddress": null
    }
  ],
  "libraries": [],
  "pending": [],
  "returns": {},
  "timestamp": 1736921929,
  "chain": 11155111,
  "commit": "51a374b"
}