{
  "transactions": [
    {
      "hash": "0x3ca84a161d36d3e8ce2757535fe2cbe12ae040c7dad375d6b579b89345ea0a3b",
      "transactionType": "CALL",
      "contractName": null,
      "contractAddress": "0xbf4a322f1496e5c3d34a9bcdb4c60567b38c7de2",
      "function": "sell(uint256)",
      "arguments": [
        "985684636508871300280"
      ],
      "transaction": {
        "from": "0xc77f7fed3b5cc8249adc428c5f44c9063b9734b4",
        "to": "0xbf4a322f1496e5c3d34a9bcdb4c60567b38c7de2",
        "gas": "0x16fea",
        "value": "0x0",
        "input": "0xe4849b320000000000000000000000000000000000000000000000356f1f4a86174d94b8",
        "nonce": "0xa73",
        "chainId": "0xaa36a7"
      },
      "additionalContracts": [],
      "isFixedGasLimit": false
    }
  ],
  "receipts": [
    {
      "status": "0x1",
      "cumulativeGasUsed": "0xb56b90",
      "logs": [
        {
          "address": "0xbf4a322f1496e5c3d34a9bcdb4c60567b38c7de2",
          "topics": [
            "0xddf252ad1be2c89b69c2b068fc378daa952ba7f163c4a11628f55a4df523b3ef",
            "0x000000000000000000000000c77f7fed3b5cc8249adc428c5f44c9063b9734b4",
            "0x0000000000000000000000000000000000000000000000000000000000000000"
          ],
          "data": "0x0000000000000000000000000000000000000000000000356f1f4a86174d94b8",
          "blockHash": "0x5d61e3b447a8950745a5e814d9136bd16be5793362eca56b0ccdbede1957bfd4",
          "blockNumber": "0x725a50",
          "transactionHash": "0x3ca84a161d36d3e8ce2757535fe2cbe12ae040c7dad375d6b579b89345ea0a3b",
          "transactionIndex": "0x5b",
          "logIndex": "0x84",
          "removed": false
        },
        {
          "address": "0xbf4a322f1496e5c3d34a9bcdb4c60567b38c7de2",
          "topics": [
            "0x4afcb4a87cdbd9974efdb92ee48bc8d7cd0ae4bf217004db3d080cbaee652ca7"
          ],
          "data": "0x0000000000000000000000000000000000000000000000000000000067872e1000000000000000000000000000000000000000000000000000039445cb7c86c10000000000000000000000000000000000000000000000000dc7e3ef487e079b",
          "blockHash": "0x5d61e3b447a8950745a5e814d9136bd16be5793362eca56b0ccdbede1957bfd4",
          "blockNumber": "0x725a50",
          "transactionHash": "0x3ca84a161d36d3e8ce2757535fe2cbe12ae040c7dad375d6b579b89345ea0a3b",
          "transactionIndex": "0x5b",
          "logIndex": "0x85",
          "removed": false
        }
      ],
      "logsBloom": "0x00000000000000000000000000000000000000000000000000000000000000000000000000000000000000000000000000000000000000004000000000000000000000000000000000000008000000000000001000000000000000000000000000000000020000000000000000000800020000000000000000000010000000000000000000000000000000000000000000000000000008000000010000000000000000000000000000000000000000004000000000000000000000000000000000000002000000800000000000001000000000000000080000000000000020000000000000000000000000000000000000000000000000000000000000000000",
      "type": "0x2",
      "transactionHash": "0x3ca84a161d36d3e8ce2757535fe2cbe12ae040c7dad375d6b579b89345ea0a3b",
      "transactionIndex": "0x5b",
      "blockHash": "0x5d61e3b447a8950745a5e814d9136bd16be5793362eca56b0ccdbede1957bfd4",
      "blockNumber": "0x725a50",
      "gasUsed": "0xfb91",
      "effectiveGasPrice": "0x32d43c645",
      "from": "0xc77f7fed3b5cc8249adc428c5f44c9063b9734b4",
      "to": "0xbf4a322f1496e5c3d34a9bcdb4c60567b38c7de2",
      "contractAddress": null
    }
  ],
  "libraries": [],
  "pending": [],
  "returns": {},
  "timestamp": 1736912401,
  "chain": 11155111,
  "commit": "51a374b"
}