{
  "transactions": [
    {
      "hash": "0xace742cedccdff2e6b5c1f3333c64525a13fb99264874a924316d507c91795c4",
      "transactionType": "CALL",
      "contractName": null,
      "contractAddress": "0x5eb9cc76c3506942c1c0ead70e877dd5e4f00cb0",
      "function": "buy(address)",
      "arguments": [
        "0xC77f7fed3b5Cc8249aDc428c5F44C9063B9734b4"
      ],
      "transaction": {
        "from": "0xc77f7fed3b5cc8249adc428c5f44c9063b9734b4",
        "to": "0x5eb9cc76c3506942c1c0ead70e877dd5e4f00cb0",
        "gas": "0x1b30c",
        "value": "0xde0b6b3a7640000",
        "input": "0xf088d547000000000000000000000000c77f7fed3b5cc8249adc428c5f44c9063b9734b4",
        "nonce": "0x3d2",
        "chainId": "0xaa36a7"
      },
      "additionalContracts": [],
      "isFixedGasLimit": false
    }
  ],
  "receipts": [
    {
      "status": "0x1",
      "cumulativeGasUsed": "0xb1c72b",
      "logs": [
        {
          "address": "0x5eb9cc76c3506942c1c0ead70e877dd5e4f00cb0",
          "topics": [
            "0xddf252ad1be2c89b69c2b068fc378daa952ba7f163c4a11628f55a4df523b3ef",
            "0x0000000000000000000000000000000000000000000000000000000000000000",
            "0x000000000000000000000000c77f7fed3b5cc8249adc428c5f44c9063b9734b4"
          ],
          "data": "0x000000000000000000000000000000000000000000000035751c2f22d4b8c395",
          "blockHash": "0x80b30a4c0348225cc1796ebda290e9da80740bb1ee3687b7f113e18cde0eae29",
          "blockNumber": "0x724fd6",
          "transactionHash": "0xace742cedccdff2e6b5c1f3333c64525a13fb99264874a924316d507c91795c4",
          "transactionIndex": "0x67",
          "logIndex": "0xa7",
          "removed": false
        },
        {
          "address": "0x5eb9cc76c3506942c1c0ead70e877dd5e4f00cb0",
          "topics": [
            "0xddf252ad1be2c89b69c2b068fc378daa952ba7f163c4a11628f55a4df523b3ef",
            "0x0000000000000000000000000000000000000000000000000000000000000000",
            "0x000000000000000000000000c77f7fed3b5cc8249adc428c5f44c9063b9734b4"
          ],
          "data": "0x0000000000000000000000000000000000000000000000002982f46cd207a870",
          "blockHash": "0x80b30a4c0348225cc1796ebda290e9da80740bb1ee3687b7f113e18cde0eae29",
          "blockNumber": "0x724fd6",
          "transactionHash": "0xace742cedccdff2e6b5c1f3333c64525a13fb99264874a924316d507c91795c4",
          "transactionIndex": "0x67",
          "logIndex": "0xa8",
          "removed": false
        },
        {
          "address": "0x5eb9cc76c3506942c1c0ead70e877dd5e4f00cb0",
          "topics": [
            "0x4afcb4a87cdbd9974efdb92ee48bc8d7cd0ae4bf217004db3d080cbaee652ca7"
          ],
          "data": "0x000000000000000000000000000000000000000000000000000000006786afd400000000000000000000000000000000000000000000000000039113b11a626a0000000000000000000000000000000000000000000000000de0b6b3a7640000",
          "blockHash": "0x80b30a4c0348225cc1796ebda290e9da80740bb1ee3687b7f113e18cde0eae29",
          "blockNumber": "0x724fd6",
          "transactionHash": "0xace742cedccdff2e6b5c1f3333c64525a13fb99264874a924316d507c91795c4",
          "transactionIndex": "0x67",
          "logIndex": "0xa9",
          "removed": false
        }
      ],
      "logsBloom": "0x00000000000000000000000000000000000000000000000000000000000000000000000000000000000000000000000000000000000000004000000000000000000000000000000000000008000000000000000000000000000000000000000000000000020000000000000004000800020000000000000000000010000000000000000000000000000000000000000000000000000000000000010000000000000000000000000000000000000000004000000000000000000000000000020000000002000000800000008000000000000000000000080000000000000020000000000000000000000000000000000000000000000000000000000000000000",
      "type": "0x2",
      "transactionHash": "0xace742cedccdff2e6b5c1f3333c64525a13fb99264874a924316d507c91795c4",
      "transactionIndex": "0x67",
      "blockHash": "0x80b30a4c0348225cc1796ebda290e9da80740bb1ee3687b7f113e18cde0eae29",
      "blockNumber": "0x724fd6",
      "gasUsed": "0x13af8",
      "effectiveGasPrice": "0x3c12746fe",
      "from": "0xc77f7fed3b5cc8249adc428c5f44c9063b9734b4",
      "to": "0x5eb9cc76c3506942c1c0ead70e877dd5e4f00cb0",
      "contractAddress": null
    }
  ],
  "libraries": [],
  "pending": [],
  "returns": {},
  "timestamp": 1736880085,
  "chain": 11155111,
  "commit": "51a374b"
}