{
  "transactions": [
    {
      "hash": "0xff806df3e006b68eb67dc417f2b06f5f05e015235594b3eb084e3f74da49fbc5",
      "transactionType": "CALL",
      "contractName": null,
      "contractAddress": "0x270e88f8683660553e8ba4eb2ad7c91a1710d769",
      "function": "sell(uint256)",
      "arguments": [
        "952556894606332178417"
      ],
      "transaction": {
        "from": "0xc77f7fed3b5cc8249adc428c5f44c9063b9734b4",
        "to": "0x270e88f8683660553e8ba4eb2ad7c91a1710d769",
        "gas": "0x16fec",
        "value": "0x0",
        "input": "0xe4849b32000000000000000000000000000000000000000000000033a361e8c81fa2aff1",
        "nonce": "0x5dd",
        "chainId": "0xaa36a7"
      },
      "additionalContracts": [],
      "isFixedGasLimit": false
    }
  ],
  "receipts": [
    {
      "status": "0x1",
      "cumulativeGasUsed": "0x917e40",
      "logs": [
        {
          "address": "0x270e88f8683660553e8ba4eb2ad7c91a1710d769",
          "topics": [
            "0xddf252ad1be2c89b69c2b068fc378daa952ba7f163c4a11628f55a4df523b3ef",
            "0x000000000000000000000000c77f7fed3b5cc8249adc428c5f44c9063b9734b4",
            "0x0000000000000000000000000000000000000000000000000000000000000000"
          ],
          "data": "0x000000000000000000000000000000000000000000000033a361e8c81fa2aff1",
          "blockHash": "0x31dc7c69fa25bc07a851d05d227c6efd5656af07e77d0d431716e49396f031ca",
          "blockNumber": "0x72529f",
          "transactionHash": "0xff806df3e006b68eb67dc417f2b06f5f05e015235594b3eb084e3f74da49fbc5",
          "transactionIndex": "0x39",
          "logIndex": "0x4d",
          "removed": false
        },
        {
          "address": "0x270e88f8683660553e8ba4eb2ad7c91a1710d769",
          "topics": [
            "0x4afcb4a87cdbd9974efdb92ee48bc8d7cd0ae4bf217004db3d080cbaee652ca7"
          ],
          "data": "0x000000000000000000000000000000000000000000000000000000006786d17c0000000000000000000000000000000000000000000000000003b467aa5193c50000000000000000000000000000000000000000000000000dc83e6be52e610b",
          "blockHash": "0x31dc7c69fa25bc07a851d05d227c6efd5656af07e77d0d431716e49396f031ca",
          "blockNumber": "0x72529f",
          "transactionHash": "0xff806df3e006b68eb67dc417f2b06f5f05e015235594b3eb084e3f74da49fbc5",
          "transactionIndex": "0x39",
          "logIndex": "0x4e",
          "removed": false
        }
      ],
      "logsBloom": "0x00000000000000000000000000000000000000000000000000000000000000000000000000000000000000000000000020000000000000004000000000000000000000000000000000000008000000000000000000000000000000000000000000000000020000000000000000000800020000000000000000000010000000000000000000010000000000000000000000000000000000000000010000000000000000000000000000000000000000004000000000000000000000000000000000000002000000800000000000000000000000000000080000008000000020000000000000000000000000000000000000000000000000000000000000000000",
      "type": "0x2",
      "transactionHash": "0xff806df3e006b68eb67dc417f2b06f5f05e015235594b3eb084e3f74da49fbc5",
      "transactionIndex": "0x39",
      "blockHash": "0x31dc7c69fa25bc07a851d05d227c6efd5656af07e77d0d431716e49396f031ca",
      "blockNumber": "0x72529f",
      "gasUsed": "0xfb93",
      "effectiveGasPrice": "0x35258ee1d",
      "from": "0xc77f7fed3b5cc8249adc428c5f44c9063b9734b4",
      "to": "0x270e88f8683660553e8ba4eb2ad7c91a1710d769",
      "contractAddress": null
    }
  ],
  "libraries": [],
  "pending": [],
  "returns": {},
  "timestamp": 1736888700,
  "chain": 11155111,
  "commit": "51a374b"
}