{
  "transactions": [
    {
      "hash": "0x7535c520f09f6884f865f8efc56486763824bf3286b3b58d684a1e424e6b9065",
      "transactionType": "CALL",
      "contractName": null,
      "contractAddress": "0x5eb9cc76c3506942c1c0ead70e877dd5e4f00cb0",
      "function": "buy(address)",
      "arguments": [
        "0xC77f7fed3b5Cc8249aDc428c5F44C9063B9734b4"
      ],
      "transaction": {
        "from": "0xc77f7fed3b5cc8249adc428c5f44c9063b9734b4",
        "to": "0x5eb9cc76c3506942c1c0ead70e877dd5e4f00cb0",
        "gas": "0x156c8",
        "value": "0xde0b6b3a7640000",
        "input": "0xf088d547000000000000000000000000c77f7fed3b5cc8249adc428c5f44c9063b9734b4",
        "nonce": "0x17f",
        "chainId": "0xaa36a7"
      },
      "additionalContracts": [],
      "isFixedGasLimit": false
    }
  ],
  "receipts": [
    {
      "status": "0x1",
      "cumulativeGasUsed": "0xce0a0e",
      "logs": [
        {
          "address": "0x5eb9cc76c3506942c1c0ead70e877dd5e4f00cb0",
          "topics": [
            "0xddf252ad1be2c89b69c2b068fc378daa952ba7f163c4a11628f55a4df523b3ef",
            "0x0000000000000000000000000000000000000000000000000000000000000000",
            "0x000000000000000000000000c77f7fed3b5cc8249adc428c5f44c9063b9734b4"
          ],
          "data": "0x000000000000000000000000000000000000000000000035a6cfd7e403684531",
          "blockHash": "0x2d6cb1aed2a468905ec842f593c398b290b008a709424fda7d5c2dca627b96d2",
          "blockNumber": "0x723c3c",
          "transactionHash": "0x7535c520f09f6884f865f8efc56486763824bf3286b3b58d684a1e424e6b9065",
          "transactionIndex": "0x67",
          "logIndex": "0xba",
          "removed": false
        },
        {
          "address": "0x5eb9cc76c3506942c1c0ead70e877dd5e4f00cb0",
          "topics": [
            "0xddf252ad1be2c89b69c2b068fc378daa952ba7f163c4a11628f55a4df523b3ef",
            "0x0000000000000000000000000000000000000000000000000000000000000000",
            "0x000000000000000000000000c77f7fed3b5cc8249adc428c5f44c9063b9734b4"
          ],
          "data": "0x00000000000000000000000000000000000000000000000029a98cc7cb8441d7",
          "blockHash": "0x2d6cb1aed2a468905ec842f593c398b290b008a709424fda7d5c2dca627b96d2",
          "blockNumber": "0x723c3c",
          "transactionHash": "0x7535c520f09f6884f865f8efc56486763824bf3286b3b58d684a1e424e6b9065",
          "transactionIndex": "0x67",
          "logIndex": "0xbb",
          "removed": false
        },
        {
          "address": "0x5eb9cc76c3506942c1c0ead70e877dd5e4f00cb0",
          "topics": [
            "0x4afcb4a87cdbd9974efdb92ee48bc8d7cd0ae4bf217004db3d080cbaee652ca7"
          ],
          "data": "0x000000000000000000000000000000000000000000000000000000006785c42400000000000000000000000000000000000000000000000000038dc5d5a3a11c0000000000000000000000000000000000000000000000000de0b6b3a7640000",
          "blockHash": "0x2d6cb1aed2a468905ec842f593c398b290b008a709424fda7d5c2dca627b96d2",
          "blockNumber": "0x723c3c",
          "transactionHash": "0x7535c520f09f6884f865f8efc56486763824bf3286b3b58d684a1e424e6b9065",
          "transactionIndex": "0x67",
          "logIndex": "0xbc",
          "removed": false
        }
      ],
      "logsBloom": "0x00000000000000000000000000000000000000000000000000000000000000000000000000000000000000000000000000000000000000004000000000000000000000000000000000000008000000000000000000000000000000000000000000000000020000000000000004000800020000000000000000000010000000000000000000000000000000000000000000000000000000000000010000000000000000000000000000000000000000004000000000000000000000000000020000000002000000800000008000000000000000000000080000000000000020000000000000000000000000000000000000000000000000000000000000000000",
      "type": "0x2",
      "transactionHash": "0x7535c520f09f6884f865f8efc56486763824bf3286b3b58d684a1e424e6b9065",
      "transactionIndex": "0x67",
      "blockHash": "0x2d6cb1aed2a468905ec842f593c398b290b008a709424fda7d5c2dca627b96d2",
      "blockNumber": "0x723c3c",
      "gasUsed": "0xf82c",
      "effectiveGasPrice": "0x1beb68cc0",
      "from": "0xc77f7fed3b5cc8249adc428c5f44c9063b9734b4",
      "to": "0x5eb9cc76c3506942c1c0ead70e877dd5e4f00cb0",
      "contractAddress": null
    }
  ],
  "libraries": [],
  "pending": [],
  "returns": {},
  "timestamp": 1736819749,
  "chain": 11155111,
  "commit": "51a374b"
}