{
  "transactions": [
    {
      "hash": "0x1417f11ac46ffee6d4891f95318f7a1660161c88e0ef5fb570d21f79def77e99",
      "transactionType": "CALL",
      "contractName": null,
      "contractAddress": "0x270e88f8683660553e8ba4eb2ad7c91a1710d769",
      "function": "buy(address)",
      "arguments": [
        "0xC77f7fed3b5Cc8249aDc428c5F44C9063B9734b4"
      ],
      "transaction": {
        "from": "0xc77f7fed3b5cc8249adc428c5f44c9063b9734b4",
        "to": "0x270e88f8683660553e8ba4eb2ad7c91a1710d769",
        "gas": "0x1b30c",
        "value": "0xde0b6b3a7640000",
        "input": "0xf088d547000000000000000000000000c77f7fed3b5cc8249adc428c5f44c9063b9734b4",
        "nonce": "0x5e2",
        "chainId": "0xaa36a7"
      },
      "additionalContracts": [],
      "isFixedGasLimit": false
    }
  ],
  "receipts": [
    {
      "status": "0x1",
      "cumulativeGasUsed": "0x12e9f8e",
      "logs": [
        {
          "address": "0x270e88f8683660553e8ba4eb2ad7c91a1710d769",
          "topics": [
            "0xddf252ad1be2c89b69c2b068fc378daa952ba7f163c4a11628f55a4df523b3ef",
            "0x0000000000000000000000000000000000000000000000000000000000000000",
            "0x000000000000000000000000c77f7fed3b5cc8249adc428c5f44c9063b9734b4"
          ],
          "data": "0x0000000000000000000000000000000000000000000000336f370ed2d76804af",
          "blockHash": "0xbb75d06106da9d3209f95562d3c4f5f37eb7bf6af6b452b3e72ae6507d168045",
          "blockNumber": "0x7252a6",
          "transactionHash": "0x1417f11ac46ffee6d4891f95318f7a1660161c88e0ef5fb570d21f79def77e99",
          "transactionIndex": "0x65",
          "logIndex": "0x92",
          "removed": false
        },
        {
          "address": "0x270e88f8683660553e8ba4eb2ad7c91a1710d769",
          "topics": [
            "0xddf252ad1be2c89b69c2b068fc378daa952ba7f163c4a11628f55a4df523b3ef",
            "0x0000000000000000000000000000000000000000000000000000000000000000",
            "0x000000000000000000000000c77f7fed3b5cc8249adc428c5f44c9063b9734b4"
          ],
          "data": "0x00000000000000000000000000000000000000000000000027f0caa882bd0762",
          "blockHash": "0xbb75d06106da9d3209f95562d3c4f5f37eb7bf6af6b452b3e72ae6507d168045",
          "blockNumber": "0x7252a6",
          "transactionHash": "0x1417f11ac46ffee6d4891f95318f7a1660161c88e0ef5fb570d21f79def77e99",
          "transactionIndex": "0x65",
          "logIndex": "0x93",
          "removed": false
        },
        {
          "address": "0x270e88f8683660553e8ba4eb2ad7c91a1710d769",
          "topics": [
            "0x4afcb4a87cdbd9974efdb92ee48bc8d7cd0ae4bf217004db3d080cbaee652ca7"
          ],
          "data": "0x000000000000000000000000000000000000000000000000000000006786d1d00000000000000000000000000000000000000000000000000003b518318561ab0000000000000000000000000000000000000000000000000de0b6b3a7640000",
          "blockHash": "0xbb75d06106da9d3209f95562d3c4f5f37eb7bf6af6b452b3e72ae6507d168045",
          "blockNumber": "0x7252a6",
          "transactionHash": "0x1417f11ac46ffee6d4891f95318f7a1660161c88e0ef5fb570d21f79def77e99",
          "transactionIndex": "0x65",
          "logIndex": "0x94",
          "removed": false
        }
      ],
      "logsBloom": "0x00000000000000000000000000000000000000000000000000000000000000000000000000000000000000000000000020000000000000004000000000000000000000000000000000000008000000000000000000000000000000000000000000000000020000000000000000000800020000000000000000000010000000000000000000010000000000000000000000000000000000000000010000000000000000000000000000000000000000004000000000000000000000000000000000000002000000800000000000000000000000000000080000008000000020000000000000000000000000000000000000000000000000000000000000000000",
      "type": "0x2",
      "transactionHash": "0x1417f11ac46ffee6d4891f95318f7a1660161c88e0ef5fb570d21f79def77e99",
      "transactionIndex": "0x65",
      "blockHash": "0xbb75d06106da9d3209f95562d3c4f5f37eb7bf6af6b452b3e72ae6507d168045",
      "blockNumber": "0x7252a6",
      "gasUsed": "0x13af8",
      "effectiveGasPrice": "0x33b92f68f",
      "from": "0xc77f7fed3b5cc8249adc428c5f44c9063b9734b4",
      "to": "0x270e88f8683660553e8ba4eb2ad7c91a1710d769",
      "contractAddress": null
    }
  ],
  "libraries": [],
  "pending": [],
  "returns": {},
  "timestamp": 1736888785,
  "chain": 11155111,
  "commit": "51a374b"
}