{
  "transactions": [
    {
      "hash": "0x8435bbf97287aed9fe198694a3bca360dbab03babdf4799c17ce3797ada2f349",
      "transactionType": "CALL",
      "contractName": null,
      "contractAddress": "0x270e88f8683660553e8ba4eb2ad7c91a1710d769",
      "function": "sell(uint256)",
      "arguments": [
        "992043758909170397702"
      ],
      "transaction": {
        "from": "0xc77f7fed3b5cc8249adc428c5f44c9063b9734b4",
        "to": "0x270e88f8683660553e8ba4eb2ad7c91a1710d769",
        "gas": "0x16fec",
        "value": "0x0",
        "input": "0xe4849b32000000000000000000000000000000000000000000000035c75f6ea7a05c3206",
        "nonce": "0x4db",
        "chainId": "0xaa36a7"
      },
      "additionalContracts": [],
      "isFixedGasLimit": false
    }
  ],
  "receipts": [
    {
      "status": "0x1",
      "cumulativeGasUsed": "0x830fcc",
      "logs": [
        {
          "address": "0x270e88f8683660553e8ba4eb2ad7c91a1710d769",
          "topics": [
            "0xddf252ad1be2c89b69c2b068fc378daa952ba7f163c4a11628f55a4df523b3ef",
            "0x000000000000000000000000c77f7fed3b5cc8249adc428c5f44c9063b9734b4",
            "0x0000000000000000000000000000000000000000000000000000000000000000"
          ],
          "data": "0x000000000000000000000000000000000000000000000035c75f6ea7a05c3206",
          "blockHash": "0x485e4c909b5e01a024796ff0a9fe7c8014a382b3f217cfe33eb406e18f7489c1",
          "blockNumber": "0x725168",
          "transactionHash": "0x8435bbf97287aed9fe198694a3bca360dbab03babdf4799c17ce3797ada2f349",
          "transactionIndex": "0x51",
          "logIndex": "0x77",
          "removed": false
        },
        {
          "address": "0x270e88f8683660553e8ba4eb2ad7c91a1710d769",
          "topics": [
            "0x4afcb4a87cdbd9974efdb92ee48bc8d7cd0ae4bf217004db3d080cbaee652ca7"
          ],
          "data": "0x000000000000000000000000000000000000000000000000000000006786c2c400000000000000000000000000000000000000000000000000038eaaa8b985900000000000000000000000000000000000000000000000000dc8427a1e3f3162",
          "blockHash": "0x485e4c909b5e01a024796ff0a9fe7c8014a382b3f217cfe33eb406e18f7489c1",
          "blockNumber": "0x725168",
          "transactionHash": "0x8435bbf97287aed9fe198694a3bca360dbab03babdf4799c17ce3797ada2f349",
          "transactionIndex": "0x51",
          "logIndex": "0x78",
          "removed": false
        }
      ],
      "logsBloom": "0x00000000000000000000000000000000000000000000000000000000000000000000000000000000000000000000000020000000000000004000000000000000000000000000000000000008000000000000000000000000000000000000000000000000020000000000000000000800020000000000000000000010000000000000000000010000000000000000000000000000000000000000010000000000000000000000000000000000000000004000000000000000000000000000000000000002000000800000000000000000000000000000080000008000000020000000000000000000000000000000000000000000000000000000000000000000",
      "type": "0x2",
      "transactionHash": "0x8435bbf97287aed9fe198694a3bca360dbab03babdf4799c17ce3797ada2f349",
      "transactionIndex": "0x51",
      "blockHash": "0x485e4c909b5e01a024796ff0a9fe7c8014a382b3f217cfe33eb406e18f7489c1",
      "blockNumber": "0x725168",
      "gasUsed": "0xfb93",
      "effectiveGasPrice": "0x452147b25",
      "from": "0xc77f7fed3b5cc8249adc428c5f44c9063b9734b4",
      "to": "0x270e88f8683660553e8ba4eb2ad7c91a1710d769",
      "contractAddress": null
    }
  ],
  "libraries": [],
  "pending": [],
  "returns": {},
  "timestamp": 1736884934,
  "chain": 11155111,
  "commit": "51a374b"
}