{
  "transactions": [
    {
      "hash": "0x8a0fa879b248ba8fdc41a3850ff1bd1b89692e95123ae91baa017af6bc877ff1",
      "transactionType": "CALL",
      "contractName": null,
      "contractAddress": "0x8aafd3ede9adb0ff97c7aebce82a919afb1c8764",
      "function": "sell(uint256)",
      "arguments": [
        "95719038291724"
      ],
      "transaction": {
        "from": "0xc77f7fed3b5cc8249adc428c5f44c9063b9734b4",
        "to": "0x8aafd3ede9adb0ff97c7aebce82a919afb1c8764",
        "gas": "0x15daa",
        "value": "0x0",
        "input": "0xe4849b320000000000000000000000000000000000000000000000000000570e53468f0c",
        "nonce": "0x15a4",
        "chainId": "0xaa36a7"
      },
      "additionalContracts": [],
      "isFixedGasLimit": false
    }
  ],
  "receipts": [
    {
      "status": "0x1",
      "cumulativeGasUsed": "0x1704164",
      "logs": [
        {
          "address": "0x8aafd3ede9adb0ff97c7aebce82a919afb1c8764",
          "topics": [
            "0xddf252ad1be2c89b69c2b068fc378daa952ba7f163c4a11628f55a4df523b3ef",
            "0x000000000000000000000000c77f7fed3b5cc8249adc428c5f44c9063b9734b4",
            "0x0000000000000000000000000000000000000000000000000000000000000000"
          ],
          "data": "0x0000000000000000000000000000000000000000000000000000565c08e1a46f",
          "blockHash": "0x3914d1cb25b14a77666bdc735b25f6a874c084453d38137be1b613c16302a453",
          "blockNumber": "0x731d18",
          "transactionHash": "0x8a0fa879b248ba8fdc41a3850ff1bd1b89692e95123ae91baa017af6bc877ff1",
          "transactionIndex": "0xd8",
          "logIndex": "0x1ad",
          "removed": false
        },
        {
          "address": "0x8aafd3ede9adb0ff97c7aebce82a919afb1c8764",
          "topics": [
            "0xddf252ad1be2c89b69c2b068fc378daa952ba7f163c4a11628f55a4df523b3ef",
            "0x000000000000000000000000c77f7fed3b5cc8249adc428c5f44c9063b9734b4",
            "0x000000000000000000000000c77f7fed3b5cc8249adc428c5f44c9063b9734b4"
          ],
          "data": "0x000000000000000000000000000000000000000000000000000000b24a64ea9d",
          "blockHash": "0x3914d1cb25b14a77666bdc735b25f6a874c084453d38137be1b613c16302a453",
          "blockNumber": "0x731d18",
          "transactionHash": "0x8a0fa879b248ba8fdc41a3850ff1bd1b89692e95123ae91baa017af6bc877ff1",
          "transactionIndex": "0xd8",
          "logIndex": "0x1ae",
          "removed": false
        },
        {
          "address": "0x8aafd3ede9adb0ff97c7aebce82a919afb1c8764",
          "topics": [
            "0x4afcb4a87cdbd9974efdb92ee48bc8d7cd0ae4bf217004db3d080cbaee652ca7"
          ],
          "data": "0x0000000000000000000000000000000000000000000000000000000067905a080000000000000000000000000000000000000000000000000012f986455464b30000000000000000000000000000000000000000000000000000007707759e9c",
          "blockHash": "0x3914d1cb25b14a77666bdc735b25f6a874c084453d38137be1b613c16302a453",
          "blockNumber": "0x731d18",
          "transactionHash": "0x8a0fa879b248ba8fdc41a3850ff1bd1b89692e95123ae91baa017af6bc877ff1",
          "transactionIndex": "0xd8",
          "logIndex": "0x1af",
          "removed": false
        }
      ],
      "logsBloom": "0x00000000000000000000000000000000000000000600000000000000000000000000000000000000000000000000000000000000000000004000000000000000000000000000004000000008000000000000000000000000000000000000000000000000020000000000000000000800020000000000000000000010000000000000000000000000000000000000000000000000000000000000010000000000000000000000000000000000000000004000000000000000000000000000000000000002000000800000000000000000000000000000080000000000000020000000000000000000000000000000000000000000000000000000000000000000",
      "type": "0x2",
      "transactionHash": "0x8a0fa879b248ba8fdc41a3850ff1bd1b89692e95123ae91baa017af6bc877ff1",
      "transactionIndex": "0xd8",
      "blockHash": "0x3914d1cb25b14a77666bdc735b25f6a874c084453d38137be1b613c16302a453",
      "blockNumber": "0x731d18",
      "gasUsed": "0xfd27",
      "effectiveGasPrice": "0x4b6e31aa",
      "from": "0xc77f7fed3b5cc8249adc428c5f44c9063b9734b4",
      "to": "0x8aafd3ede9adb0ff97c7aebce82a919afb1c8764",
      "contractAddress": null
    }
  ],
  "libraries": [],
  "pending": [],
  "returns": {},
  "timestamp": 1737513481,
  "chain": 11155111,
  "commit": "1d2fb70"
}