{
  "transactions": [
    {
      "hash": "0x9d1c4898f8fe0446cc8d0f61288a7d2da3a07471e7b064bd1cd46b53a74755fb",
      "transactionType": "CALL",
      "contractName": null,
      "contractAddress": "0x5eb9cc76c3506942c1c0ead70e877dd5e4f00cb0",
      "function": "buy(address)",
      "arguments": [
        "0xC77f7fed3b5Cc8249aDc428c5F44C9063B9734b4"
      ],
      "transaction": {
        "from": "0xc77f7fed3b5cc8249adc428c5f44c9063b9734b4",
        "to": "0x5eb9cc76c3506942c1c0ead70e877dd5e4f00cb0",
        "gas": "0x1b30c",
        "value": "0xde0b6b3a7640000",
        "input": "0xf088d547000000000000000000000000c77f7fed3b5cc8249adc428c5f44c9063b9734b4",
        "nonce": "0x480",
        "chainId": "0xaa36a7"
      },
      "additionalContracts": [],
      "isFixedGasLimit": false
    }
  ],
  "receipts": [
    {
      "status": "0x1",
      "cumulativeGasUsed": "0x905931",
      "logs": [
        {
          "address": "0x5eb9cc76c3506942c1c0ead70e877dd5e4f00cb0",
          "topics": [
            "0xddf252ad1be2c89b69c2b068fc378daa952ba7f163c4a11628f55a4df523b3ef",
            "0x0000000000000000000000000000000000000000000000000000000000000000",
            "0x000000000000000000000000c77f7fed3b5cc8249adc428c5f44c9063b9734b4"
          ],
          "data": "0x00000000000000000000000000000000000000000000003574b9f9bc0a545ab1",
          "blockHash": "0x763f732e3bd70e37be0eaf9e22227f8b21db6b2252f47ed1051c98f49a03f2b3",
          "blockNumber": "0x7250ae",
          "transactionHash": "0x9d1c4898f8fe0446cc8d0f61288a7d2da3a07471e7b064bd1cd46b53a74755fb",
          "transactionIndex": "0x45",
          "logIndex": "0x80",
          "removed": false
        },
        {
          "address": "0x5eb9cc76c3506942c1c0ead70e877dd5e4f00cb0",
          "topics": [
            "0xddf252ad1be2c89b69c2b068fc378daa952ba7f163c4a11628f55a4df523b3ef",
            "0x0000000000000000000000000000000000000000000000000000000000000000",
            "0x000000000000000000000000c77f7fed3b5cc8249adc428c5f44c9063b9734b4"
          ],
          "data": "0x0000000000000000000000000000000000000000000000002982a829aa2191b6",
          "blockHash": "0x763f732e3bd70e37be0eaf9e22227f8b21db6b2252f47ed1051c98f49a03f2b3",
          "blockNumber": "0x7250ae",
          "transactionHash": "0x9d1c4898f8fe0446cc8d0f61288a7d2da3a07471e7b064bd1cd46b53a74755fb",
          "transactionIndex": "0x45",
          "logIndex": "0x81",
          "removed": false
        },
        {
          "address": "0x5eb9cc76c3506942c1c0ead70e877dd5e4f00cb0",
          "topics": [
            "0x4afcb4a87cdbd9974efdb92ee48bc8d7cd0ae4bf217004db3d080cbaee652ca7"
          ],
          "data": "0x000000000000000000000000000000000000000000000000000000006786b9f40000000000000000000000000000000000000000000000000003911a3e988df90000000000000000000000000000000000000000000000000de0b6b3a7640000",
          "blockHash": "0x763f732e3bd70e37be0eaf9e22227f8b21db6b2252f47ed1051c98f49a03f2b3",
          "blockNumber": "0x7250ae",
          "transactionHash": "0x9d1c4898f8fe0446cc8d0f61288a7d2da3a07471e7b064bd1cd46b53a74755fb",
          "transactionIndex": "0x45",
          "logIndex": "0x82",
          "removed": false
        }
      ],
      "logsBloom": "0x00000000000000000000000000000000000000000000000000000000000000000000000000000000000000000000000000000000000000004000000000000000000000000000000000000008000000000000000000000000000000000000000000000000020000000000000004000800020000000000000000000010000000000000000000000000000000000000000000000000000000000000010000000000000000000000000000000000000000004000000000000000000000000000020000000002000000800000008000000000000000000000080000000000000020000000000000000000000000000000000000000000000000000000000000000000",
      "type": "0x2",
      "transactionHash": "0x9d1c4898f8fe0446cc8d0f61288a7d2da3a07471e7b064bd1cd46b53a74755fb",
      "transactionIndex": "0x45",
      "blockHash": "0x763f732e3bd70e37be0eaf9e22227f8b21db6b2252f47ed1051c98f49a03f2b3",
      "blockNumber": "0x7250ae",
      "gasUsed": "0x13af8",
      "effectiveGasPrice": "0x1e66d9b11",
      "from": "0xc77f7fed3b5cc8249adc428c5f44c9063b9734b4",
      "to": "0x5eb9cc76c3506942c1c0ead70e877dd5e4f00cb0",
      "contractAddress": null
    }
  ],
  "libraries": [],
  "pending": [],
  "returns": {},
  "timestamp": 1736882679,
  "chain": 11155111,
  "commit": "51a374b"
}