{
  "transactions": [
    {
      "hash": "0xd3fa8cd32bf0c9a5b1bb51e7516f4c6dc1a664414c2ee6fda28f03c488004705",
      "transactionType": "CALL",
      "contractName": null,
      "contractAddress": "0xbf4a322f1496e5c3d34a9bcdb4c60567b38c7de2",
      "function": "sell(uint256)",
      "arguments": [
        "985575986623449799416"
      ],
      "transaction": {
        "from": "0xc77f7fed3b5cc8249adc428c5f44c9063b9734b4",
        "to": "0xbf4a322f1496e5c3d34a9bcdb4c60567b38c7de2",
        "gas": "0x16fea",
        "value": "0x0",
        "input": "0xe4849b320000000000000000000000000000000000000000000000356d9d4a0755de1af8",
        "nonce": "0xa7b",
        "chainId": "0xaa36a7"
      },
      "additionalContracts": [],
      "isFixedGasLimit": false
    }
  ],
  "receipts": [
    {
      "status": "0x1",
      "cumulativeGasUsed": "0x919f1d",
      "logs": [
        {
          "address": "0xbf4a322f1496e5c3d34a9bcdb4c60567b38c7de2",
          "topics": [
            "0xddf252ad1be2c89b69c2b068fc378daa952ba7f163c4a11628f55a4df523b3ef",
            "0x000000000000000000000000c77f7fed3b5cc8249adc428c5f44c9063b9734b4",
            "0x0000000000000000000000000000000000000000000000000000000000000000"
          ],
          "data": "0x0000000000000000000000000000000000000000000000356d9d4a0755de1af8",
          "blockHash": "0x9b37fbedbfbe48629b164d87bcbc29f51cc85585aab2955c21e547ad4bc0ff8b",
          "blockNumber": "0x725a5a",
          "transactionHash": "0xd3fa8cd32bf0c9a5b1bb51e7516f4c6dc1a664414c2ee6fda28f03c488004705",
          "transactionIndex": "0x62",
          "logIndex": "0xa4",
          "removed": false
        },
        {
          "address": "0xbf4a322f1496e5c3d34a9bcdb4c60567b38c7de2",
          "topics": [
            "0x4afcb4a87cdbd9974efdb92ee48bc8d7cd0ae4bf217004db3d080cbaee652ca7"
          ],
          "data": "0x0000000000000000000000000000000000000000000000000000000067872e880000000000000000000000000000000000000000000000000003945fa71680b10000000000000000000000000000000000000000000000000dc7e3ef07d2f4dd",
          "blockHash": "0x9b37fbedbfbe48629b164d87bcbc29f51cc85585aab2955c21e547ad4bc0ff8b",
          "blockNumber": "0x725a5a",
          "transactionHash": "0xd3fa8cd32bf0c9a5b1bb51e7516f4c6dc1a664414c2ee6fda28f03c488004705",
          "transactionIndex": "0x62",
          "logIndex": "0xa5",
          "removed": false
        }
      ],
      "logsBloom": "0x00000000000000000000000000000000000000000000000000000000000000000000000000000000000000000000000000000000000000004000000000000000000000000000000000000008000000000000001000000000000000000000000000000000020000000000000000000800020000000000000000000010000000000000000000000000000000000000000000000000000008000000010000000000000000000000000000000000000000004000000000000000000000000000000000000002000000800000000000001000000000000000080000000000000020000000000000000000000000000000000000000000000000000000000000000000",
      "type": "0x2",
      "transactionHash": "0xd3fa8cd32bf0c9a5b1bb51e7516f4c6dc1a664414c2ee6fda28f03c488004705",
      "transactionIndex": "0x62",
      "blockHash": "0x9b37fbedbfbe48629b164d87bcbc29f51cc85585aab2955c21e547ad4bc0ff8b",
      "blockNumber": "0x725a5a",
      "gasUsed": "0xfb91",
      "effectiveGasPrice": "0x2e9192b99",
      "from": "0xc77f7fed3b5cc8249adc428c5f44c9063b9734b4",
      "to": "0xbf4a322f1496e5c3d34a9bcdb4c60567b38c7de2",
      "contractAddress": null
    }
  ],
  "libraries": [],
  "pending": [],
  "returns": {},
  "timestamp": 1736912521,
  "chain": 11155111,
  "commit": "51a374b"
}