{
  "transactions": [
    {
      "hash": "0x6bd0ef0994c35479bdd19614584dde7065e6f185d6763464828d34d4fcc3a27a",
      "transactionType": "CALL",
      "contractName": null,
      "contractAddress": "0xbf4a322f1496e5c3d34a9bcdb4c60567b38c7de2",
      "function": "buy(address)",
      "arguments": [
        "0xC77f7fed3b5Cc8249aDc428c5F44C9063B9734b4"
      ],
      "transaction": {
        "from": "0xc77f7fed3b5cc8249adc428c5f44c9063b9734b4",
        "to": "0xbf4a322f1496e5c3d34a9bcdb4c60567b38c7de2",
        "gas": "0x1b309",
        "value": "0xde0b6b3a7640000",
        "input": "0xf088d547000000000000000000000000c77f7fed3b5cc8249adc428c5f44c9063b9734b4",
        "nonce": "0xb28",
        "chainId": "0xaa36a7"
      },
      "additionalContracts": [],
      "isFixedGasLimit": false
    }
  ],
  "receipts": [
    {
      "status": "0x1",
      "cumulativeGasUsed": "0xcfb372",
      "logs": [
        {
          "address": "0xbf4a322f1496e5c3d34a9bcdb4c60567b38c7de2",
          "topics": [
            "0xddf252ad1be2c89b69c2b068fc378daa952ba7f163c4a11628f55a4df523b3ef",
            "0x0000000000000000000000000000000000000000000000000000000000000000",
            "0x000000000000000000000000c77f7fed3b5cc8249adc428c5f44c9063b9734b4"
          ],
          "data": "0x00000000000000000000000000000000000000000000003523a30e888f2f995b",
          "blockHash": "0xd99e0cd87782578927ee329cee9190a08c588f21a2889a0bdb8c9938ecedb21c",
          "blockNumber": "0x725b24",
          "transactionHash": "0x6bd0ef0994c35479bdd19614584dde7065e6f185d6763464828d34d4fcc3a27a",
          "transactionIndex": "0x85",
          "logIndex": "0xcc",
          "removed": false
        },
        {
          "address": "0xbf4a322f1496e5c3d34a9bcdb4c60567b38c7de2",
          "topics": [
            "0xddf252ad1be2c89b69c2b068fc378daa952ba7f163c4a11628f55a4df523b3ef",
            "0x0000000000000000000000000000000000000000000000000000000000000000",
            "0x000000000000000000000000c77f7fed3b5cc8249adc428c5f44c9063b9734b4"
          ],
          "data": "0x0000000000000000000000000000000000000000000000002943b0277d4b1279",
          "blockHash": "0xd99e0cd87782578927ee329cee9190a08c588f21a2889a0bdb8c9938ecedb21c",
          "blockNumber": "0x725b24",
          "transactionHash": "0x6bd0ef0994c35479bdd19614584dde7065e6f185d6763464828d34d4fcc3a27a",
          "transactionIndex": "0x85",
          "logIndex": "0xcd",
          "removed": false
        },
        {
          "address": "0xbf4a322f1496e5c3d34a9bcdb4c60567b38c7de2",
          "topics": [
            "0x4afcb4a87cdbd9974efdb92ee48bc8d7cd0ae4bf217004db3d080cbaee652ca7"
          ],
          "data": "0x000000000000000000000000000000000000000000000000000000006787380c0000000000000000000000000000000000000000000000000003968deca5e2b70000000000000000000000000000000000000000000000000de0b6b3a7640000",
          "blockHash": "0xd99e0cd87782578927ee329cee9190a08c588f21a2889a0bdb8c9938ecedb21c",
          "blockNumber": "0x725b24",
          "transactionHash": "0x6bd0ef0994c35479bdd19614584dde7065e6f185d6763464828d34d4fcc3a27a",
          "transactionIndex": "0x85",
          "logIndex": "0xce",
          "removed": false
        }
      ],
      "logsBloom": "0x00000000000000000000000000000000000000000000000000000000000000000000000000000000000000000000000000000000000000004000000000000000000000000000000000000008000000000000001000000000000000000000000000000000020000000000000000000800020000000000000000000010000000000000000000000000000000000000000000000000000008000000010000000000000000000000000000000000000000004000000000000000000000000000000000000002000000800000000000001000000000000000080000000000000020000000000000000000000000000000000000000000000000000000000000000000",
      "type": "0x2",
      "transactionHash": "0x6bd0ef0994c35479bdd19614584dde7065e6f185d6763464828d34d4fcc3a27a",
      "transactionIndex": "0x85",
      "blockHash": "0xd99e0cd87782578927ee329cee9190a08c588f21a2889a0bdb8c9938ecedb21c",
      "blockNumber": "0x725b24",
      "gasUsed": "0x13af6",
      "effectiveGasPrice": "0x61234bac",
      "from": "0xc77f7fed3b5cc8249adc428c5f44c9063b9734b4",
      "to": "0xbf4a322f1496e5c3d34a9bcdb4c60567b38c7de2",
      "contractAddress": null
    }
  ],
  "libraries": [],
  "pending": [],
  "returns": {},
  "timestamp": 1736914957,
  "chain": 11155111,
  "commit": "51a374b"
}