{
  "transactions": [
    {
      "hash": "0x3cbe8493bfce0ef7578391e493ed5f8b83f501aed865e68f618d3866fd7f724f",
      "transactionType": "CALL",
      "contractName": null,
      "contractAddress": "0x5eb9cc76c3506942c1c0ead70e877dd5e4f00cb0",
      "function": "buy(address)",
      "arguments": [
        "0xC77f7fed3b5Cc8249aDc428c5F44C9063B9734b4"
      ],
      "transaction": {
        "from": "0xc77f7fed3b5cc8249adc428c5f44c9063b9734b4",
        "to": "0x5eb9cc76c3506942c1c0ead70e877dd5e4f00cb0",
        "gas": "0x1b30c",
        "value": "0xde0b6b3a7640000",
        "input": "0xf088d547000000000000000000000000c77f7fed3b5cc8249adc428c5f44c9063b9734b4",
        "nonce": "0x350",
        "chainId": "0xaa36a7"
      },
      "additionalContracts": [],
      "isFixedGasLimit": false
    }
  ],
  "receipts": [
    {
      "status": "0x1",
      "cumulativeGasUsed": "0xd57a9e",
      "logs": [
        {
          "address": "0x5eb9cc76c3506942c1c0ead70e877dd5e4f00cb0",
          "topics": [
            "0xddf252ad1be2c89b69c2b068fc378daa952ba7f163c4a11628f55a4df523b3ef",
            "0x0000000000000000000000000000000000000000000000000000000000000000",
            "0x000000000000000000000000c77f7fed3b5cc8249adc428c5f44c9063b9734b4"
          ],
          "data": "0x00000000000000000000000000000000000000000000003575658fdc9ed9d927",
          "blockHash": "0x42a7c0f748fba1989e2a7cb04a253670f9ae154dc90061dbe23ef63a32601f1d",
          "blockNumber": "0x724f42",
          "transactionHash": "0x3cbe8493bfce0ef7578391e493ed5f8b83f501aed865e68f618d3866fd7f724f",
          "transactionIndex": "0x55",
          "logIndex": "0x76",
          "removed": false
        },
        {
          "address": "0x5eb9cc76c3506942c1c0ead70e877dd5e4f00cb0",
          "topics": [
            "0xddf252ad1be2c89b69c2b068fc378daa952ba7f163c4a11628f55a4df523b3ef",
            "0x0000000000000000000000000000000000000000000000000000000000000000",
            "0x000000000000000000000000c77f7fed3b5cc8249adc428c5f44c9063b9734b4"
          ],
          "data": "0x00000000000000000000000000000000000000000000000029832d67ccfb6b50",
          "blockHash": "0x42a7c0f748fba1989e2a7cb04a253670f9ae154dc90061dbe23ef63a32601f1d",
          "blockNumber": "0x724f42",
          "transactionHash": "0x3cbe8493bfce0ef7578391e493ed5f8b83f501aed865e68f618d3866fd7f724f",
          "transactionIndex": "0x55",
          "logIndex": "0x77",
          "removed": false
        },
        {
          "address": "0x5eb9cc76c3506942c1c0ead70e877dd5e4f00cb0",
          "topics": [
            "0x4afcb4a87cdbd9974efdb92ee48bc8d7cd0ae4bf217004db3d080cbaee652ca7"
          ],
          "data": "0x000000000000000000000000000000000000000000000000000000006786a8cc0000000000000000000000000000000000000000000000000003910ecbcdc64c0000000000000000000000000000000000000000000000000de0b6b3a7640000",
          "blockHash": "0x42a7c0f748fba1989e2a7cb04a253670f9ae154dc90061dbe23ef63a32601f1d",
          "blockNumber": "0x724f42",
          "transactionHash": "0x3cbe8493bfce0ef7578391e493ed5f8b83f501aed865e68f618d3866fd7f724f",
          "transactionIndex": "0x55",
          "logIndex": "0x78",
          "removed": false
        }
      ],
      "logsBloom": "0x00000000000000000000000000000000000000000000000000000000000000000000000000000000000000000000000000000000000000004000000000000000000000000000000000000008000000000000000000000000000000000000000000000000020000000000000004000800020000000000000000000010000000000000000000000000000000000000000000000000000000000000010000000000000000000000000000000000000000004000000000000000000000000000020000000002000000800000008000000000000000000000080000000000000020000000000000000000000000000000000000000000000000000000000000000000",
      "type": "0x2",
      "transactionHash": "0x3cbe8493bfce0ef7578391e493ed5f8b83f501aed865e68f618d3866fd7f724f",
      "transactionIndex": "0x55",
      "blockHash": "0x42a7c0f748fba1989e2a7cb04a253670f9ae154dc90061dbe23ef63a32601f1d",
      "blockNumber": "0x724f42",
      "gasUsed": "0x13af8",
      "effectiveGasPrice": "0x59e78e863",
      "from": "0xc77f7fed3b5cc8249adc428c5f44c9063b9734b4",
      "to": "0x5eb9cc76c3506942c1c0ead70e877dd5e4f00cb0",
      "contractAddress": null
    }
  ],
  "libraries": [],
  "pending": [],
  "returns": {},
  "timestamp": 1736878287,
  "chain": 11155111,
  "commit": "51a374b"
}