{
  "transactions": [
    {
      "hash": "0xfe096fdfb846f1be8dbd34b40e918129b6509721744d381c93b6c1d353789a14",
      "transactionType": "CALL",
      "contractName": null,
      "contractAddress": "0x270e88f8683660553e8ba4eb2ad7c91a1710d769",
      "function": "sell(uint256)",
      "arguments": [
        "989500263925505759119"
      ],
      "transaction": {
        "from": "0xc77f7fed3b5cc8249adc428c5f44c9063b9734b4",
        "to": "0x270e88f8683660553e8ba4eb2ad7c91a1710d769",
        "gas": "0x16fec",
        "value": "0x0",
        "input": "0xe4849b32000000000000000000000000000000000000000000000035a4131f71730a978f",
        "nonce": "0x4eb",
        "chainId": "0xaa36a7"
      },
      "additionalContracts": [],
      "isFixedGasLimit": false
    }
  ],
  "receipts": [
    {
      "status": "0x1",
      "cumulativeGasUsed": "0x19090cf",
      "logs": [
        {
          "address": "0x270e88f8683660553e8ba4eb2ad7c91a1710d769",
          "topics": [
            "0xddf252ad1be2c89b69c2b068fc378daa952ba7f163c4a11628f55a4df523b3ef",
            "0x000000000000000000000000c77f7fed3b5cc8249adc428c5f44c9063b9734b4",
            "0x0000000000000000000000000000000000000000000000000000000000000000"
          ],
          "data": "0x000000000000000000000000000000000000000000000035a4131f71730a978f",
          "blockHash": "0x9994ccc85bb0934fa76c26ab56493e3fa42fdad32d9c4eda977191a3f4270f84",
          "blockNumber": "0x72517a",
          "transactionHash": "0xfe096fdfb846f1be8dbd34b40e918129b6509721744d381c93b6c1d353789a14",
          "transactionIndex": "0x89",
          "logIndex": "0x100",
          "removed": false
        },
        {
          "address": "0x270e88f8683660553e8ba4eb2ad7c91a1710d769",
          "topics": [
            "0x4afcb4a87cdbd9974efdb92ee48bc8d7cd0ae4bf217004db3d080cbaee652ca7"
          ],
          "data": "0x000000000000000000000000000000000000000000000000000000006786c39c00000000000000000000000000000000000000000000000000039101b9f667920000000000000000000000000000000000000000000000000dc84237486aff28",
          "blockHash": "0x9994ccc85bb0934fa76c26ab56493e3fa42fdad32d9c4eda977191a3f4270f84",
          "blockNumber": "0x72517a",
          "transactionHash": "0xfe096fdfb846f1be8dbd34b40e918129b6509721744d381c93b6c1d353789a14",
          "transactionIndex": "0x89",
          "logIndex": "0x101",
          "removed": false
        }
      ],
      "logsBloom": "0x00000000000000000000000000000000000000000000000000000000000000000000000000000000000000000000000020000000000000004000000000000000000000000000000000000008000000000000000000000000000000000000000000000000020000000000000000000800020000000000000000000010000000000000000000010000000000000000000000000000000000000000010000000000000000000000000000000000000000004000000000000000000000000000000000000002000000800000000000000000000000000000080000008000000020000000000000000000000000000000000000000000000000000000000000000000",
      "type": "0x2",
      "transactionHash": "0xfe096fdfb846f1be8dbd34b40e918129b6509721744d381c93b6c1d353789a14",
      "transactionIndex": "0x89",
      "blockHash": "0x9994ccc85bb0934fa76c26ab56493e3fa42fdad32d9c4eda977191a3f4270f84",
      "blockNumber": "0x72517a",
      "gasUsed": "0xfb93",
      "effectiveGasPrice": "0x42f9f7061",
      "from": "0xc77f7fed3b5cc8249adc428c5f44c9063b9734b4",
      "to": "0x270e88f8683660553e8ba4eb2ad7c91a1710d769",
      "contractAddress": null
    }
  ],
  "libraries": [],
  "pending": [],
  "returns": {},
  "timestamp": 1736885149,
  "chain": 11155111,
  "commit": "51a374b"
}