{
  "transactions": [
    {
      "hash": "0x9737c57bf89af3e925f612d759f385724bcc523a1cbb46e5a7947de14996b603",
      "transactionType": "CALL",
      "contractName": null,
      "contractAddress": "0x270e88f8683660553e8ba4eb2ad7c91a1710d769",
      "function": "buy(address)",
      "arguments": [
        "0xC77f7fed3b5Cc8249aDc428c5F44C9063B9734b4"
      ],
      "transaction": {
        "from": "0xc77f7fed3b5cc8249adc428c5f44c9063b9734b4",
        "to": "0x270e88f8683660553e8ba4eb2ad7c91a1710d769",
        "gas": "0x1b30c",
        "value": "0xde0b6b3a7640000",
        "input": "0xf088d547000000000000000000000000c77f7fed3b5cc8249adc428c5f44c9063b9734b4",
        "nonce": "0x679",
        "chainId": "0xaa36a7"
      },
      "additionalContracts": [],
      "isFixedGasLimit": false
    }
  ],
  "receipts": [
    {
      "status": "0x1",
      "cumulativeGasUsed": "0xab1b37",
      "logs": [
        {
          "address": "0x270e88f8683660553e8ba4eb2ad7c91a1710d769",
          "topics": [
            "0xddf252ad1be2c89b69c2b068fc378daa952ba7f163c4a11628f55a4df523b3ef",
            "0x0000000000000000000000000000000000000000000000000000000000000000",
            "0x000000000000000000000000c77f7fed3b5cc8249adc428c5f44c9063b9734b4"
          ],
          "data": "0x000000000000000000000000000000000000000000000028f18ce98a600a2eb1",
          "blockHash": "0xb3317e6c507c1d3bbce238611cee9a3303fb09aba8f5fedcb9b20a400ff9b2ff",
          "blockNumber": "0x725375",
          "transactionHash": "0x9737c57bf89af3e925f612d759f385724bcc523a1cbb46e5a7947de14996b603",
          "transactionIndex": "0x6e",
          "logIndex": "0xd9",
          "removed": false
        },
        {
          "address": "0x270e88f8683660553e8ba4eb2ad7c91a1710d769",
          "topics": [
            "0xddf252ad1be2c89b69c2b068fc378daa952ba7f163c4a11628f55a4df523b3ef",
            "0x0000000000000000000000000000000000000000000000000000000000000000",
            "0x000000000000000000000000c77f7fed3b5cc8249adc428c5f44c9063b9734b4"
          ],
          "data": "0x0000000000000000000000000000000000000000000000001fcb480c70c3b7ac",
          "blockHash": "0xb3317e6c507c1d3bbce238611cee9a3303fb09aba8f5fedcb9b20a400ff9b2ff",
          "blockNumber": "0x725375",
          "transactionHash": "0x9737c57bf89af3e925f612d759f385724bcc523a1cbb46e5a7947de14996b603",
          "transactionIndex": "0x6e",
          "logIndex": "0xda",
          "removed": false
        },
        {
          "address": "0x270e88f8683660553e8ba4eb2ad7c91a1710d769",
          "topics": [
            "0x4afcb4a87cdbd9974efdb92ee48bc8d7cd0ae4bf217004db3d080cbaee652ca7"
          ],
          "data": "0x000000000000000000000000000000000000000000000000000000006786db840000000000000000000000000000000000000000000000000004a840a2f5e3330000000000000000000000000000000000000000000000000de0b6b3a7640000",
          "blockHash": "0xb3317e6c507c1d3bbce238611cee9a3303fb09aba8f5fedcb9b20a400ff9b2ff",
          "blockNumber": "0x725375",
          "transactionHash": "0x9737c57bf89af3e925f612d759f385724bcc523a1cbb46e5a7947de14996b603",
          "transactionIndex": "0x6e",
          "logIndex": "0xdb",
          "removed": false
        }
      ],
      "logsBloom": "0x00000000000000000000000000000000000000000000000000000000000000000000000000000000000000000000000020000000000000004000000000000000000000000000000000000008000000000000000000000000000000000000000000000000020000000000000000000800020000000000000000000010000000000000000000010000000000000000000000000000000000000000010000000000000000000000000000000000000000004000000000000000000000000000000000000002000000800000000000000000000000000000080000008000000020000000000000000000000000000000000000000000000000000000000000000000",
      "type": "0x2",
      "transactionHash": "0x9737c57bf89af3e925f612d759f385724bcc523a1cbb46e5a7947de14996b603",
      "transactionIndex": "0x6e",
      "blockHash": "0xb3317e6c507c1d3bbce238611cee9a3303fb09aba8f5fedcb9b20a400ff9b2ff",
      "blockNumber": "0x725375",
      "gasUsed": "0x13af8",
      "effectiveGasPrice": "0x1f813702e",
      "from": "0xc77f7fed3b5cc8249adc428c5f44c9063b9734b4",
      "to": "0x270e88f8683660553e8ba4eb2ad7c91a1710d769",
      "contractAddress": null
    }
  ],
  "libraries": [],
  "pending": [],
  "returns": {},
  "timestamp": 1736891271,
  "chain": 11155111,
  "commit": "51a374b"
}