{
  "transactions": [
    {
      "hash": "0x6167f2ccbc87a43d3ff96e182c9137a9b598796750a48b4b553c44ea8b7f38ed",
      "transactionType": "CALL",
      "contractName": null,
      "contractAddress": "0x5eb9cc76c3506942c1c0ead70e877dd5e4f00cb0",
      "function": "buy(address)",
      "arguments": [
        "0xC77f7fed3b5Cc8249aDc428c5F44C9063B9734b4"
      ],
      "transaction": {
        "from": "0xc77f7fed3b5cc8249adc428c5f44c9063b9734b4",
        "to": "0x5eb9cc76c3506942c1c0ead70e877dd5e4f00cb0",
        "gas": "0x1b30c",
        "value": "0xde0b6b3a7640000",
        "input": "0xf088d547000000000000000000000000c77f7fed3b5cc8249adc428c5f44c9063b9734b4",
        "nonce": "0x28a",
        "chainId": "0xaa36a7"
      },
      "additionalContracts": [],
      "isFixedGasLimit": false
    }
  ],
  "receipts": [
    {
      "status": "0x1",
      "cumulativeGasUsed": "0x9e0434",
      "logs": [
        {
          "address": "0x5eb9cc76c3506942c1c0ead70e877dd5e4f00cb0",
          "topics": [
            "0xddf252ad1be2c89b69c2b068fc378daa952ba7f163c4a11628f55a4df523b3ef",
            "0x0000000000000000000000000000000000000000000000000000000000000000",
            "0x000000000000000000000000c77f7fed3b5cc8249adc428c5f44c9063b9734b4"
          ],
          "data": "0x00000000000000000000000000000000000000000000003575d553f4c0771b80",
          "blockHash": "0x98085b51cc6e4fcf29c6c4efc6ca0f0f27d20f1fd9d5cb982f9e41d141b27bd7",
          "blockNumber": "0x724e59",
          "transactionHash": "0x6167f2ccbc87a43d3ff96e182c9137a9b598796750a48b4b553c44ea8b7f38ed",
          "transactionIndex": "0x58",
          "logIndex": "0x78",
          "removed": false
        },
        {
          "address": "0x5eb9cc76c3506942c1c0ead70e877dd5e4f00cb0",
          "topics": [
            "0xddf252ad1be2c89b69c2b068fc378daa952ba7f163c4a11628f55a4df523b3ef",
            "0x0000000000000000000000000000000000000000000000000000000000000000",
            "0x000000000000000000000000c77f7fed3b5cc8249adc428c5f44c9063b9734b4"
          ],
          "data": "0x00000000000000000000000000000000000000000000000029838432115f5ace",
          "blockHash": "0x98085b51cc6e4fcf29c6c4efc6ca0f0f27d20f1fd9d5cb982f9e41d141b27bd7",
          "blockNumber": "0x724e59",
          "transactionHash": "0x6167f2ccbc87a43d3ff96e182c9137a9b598796750a48b4b553c44ea8b7f38ed",
          "transactionIndex": "0x58",
          "logIndex": "0x79",
          "removed": false
        },
        {
          "address": "0x5eb9cc76c3506942c1c0ead70e877dd5e4f00cb0",
          "topics": [
            "0x4afcb4a87cdbd9974efdb92ee48bc8d7cd0ae4bf217004db3d080cbaee652ca7"
          ],
          "data": "0x0000000000000000000000000000000000000000000000000000000067869de00000000000000000000000000000000000000000000000000003910756eec0e90000000000000000000000000000000000000000000000000de0b6b3a7640000",
          "blockHash": "0x98085b51cc6e4fcf29c6c4efc6ca0f0f27d20f1fd9d5cb982f9e41d141b27bd7",
          "blockNumber": "0x724e59",
          "transactionHash": "0x6167f2ccbc87a43d3ff96e182c9137a9b598796750a48b4b553c44ea8b7f38ed",
          "transactionIndex": "0x58",
          "logIndex": "0x7a",
          "removed": false
        }
      ],
      "logsBloom": "0x00000000000000000000000000000000000000000000000000000000000000000000000000000000000000000000000000000000000000004000000000000000000000000000000000000008000000000000000000000000000000000000000000000000020000000000000004000800020000000000000000000010000000000000000000000000000000000000000000000000000000000000010000000000000000000000000000000000000000004000000000000000000000000000020000000002000000800000008000000000000000000000080000000000000020000000000000000000000000000000000000000000000000000000000000000000",
      "type": "0x2",
      "transactionHash": "0x6167f2ccbc87a43d3ff96e182c9137a9b598796750a48b4b553c44ea8b7f38ed",
      "transactionIndex": "0x58",
      "blockHash": "0x98085b51cc6e4fcf29c6c4efc6ca0f0f27d20f1fd9d5cb982f9e41d141b27bd7",
      "blockNumber": "0x724e59",
      "gasUsed": "0x13af8",
      "effectiveGasPrice": "0x40cba1692",
      "from": "0xc77f7fed3b5cc8249adc428c5f44c9063b9734b4",
      "to": "0x5eb9cc76c3506942c1c0ead70e877dd5e4f00cb0",
      "contractAddress": null
    }
  ],
  "libraries": [],
  "pending": [],
  "returns": {},
  "timestamp": 1736875489,
  "chain": 11155111,
  "commit": "51a374b"
}