{
  "transactions": [
    {
      "hash": "0x840357593507f5910c331b727f7a9f839fd58e78841d07895886aca1f5ab05da",
      "transactionType": "CALL",
      "contractName": null,
      "contractAddress": "0x8aafd3ede9adb0ff97c7aebce82a919afb1c8764",
      "function": "sell(uint256)",
      "arguments": [
        "170008514951015391547"
      ],
      "transaction": {
        "from": "0xc77f7fed3b5cc8249adc428c5f44c9063b9734b4",
        "to": "0x8aafd3ede9adb0ff97c7aebce82a919afb1c8764",
        "gas": "0x17270",
        "value": "0x0",
        "input": "0xe4849b320000000000000000000000000000000000000000000000093757939aaef5613b",
        "nonce": "0x1643",
        "chainId": "0xaa36a7"
      },
      "additionalContracts": [],
      "isFixedGasLimit": false
    }
  ],
  "receipts": [
    {
      "status": "0x1",
      "cumulativeGasUsed": "0x8b7f36",
      "logs": [
        {
          "address": "0x8aafd3ede9adb0ff97c7aebce82a919afb1c8764",
          "topics": [
            "0xddf252ad1be2c89b69c2b068fc378daa952ba7f163c4a11628f55a4df523b3ef",
            "0x000000000000000000000000c77f7fed3b5cc8249adc428c5f44c9063b9734b4",
            "0x0000000000000000000000000000000000000000000000000000000000000000"
          ],
          "data": "0x0000000000000000000000000000000000000000000000092477a4dafb62023f",
          "blockHash": "0x081c7d6c2975122645356ce039c0a097d672b3a14196c5955b3cb1fe29ce2aa9",
          "blockNumber": "0x731ddc",
          "transactionHash": "0x840357593507f5910c331b727f7a9f839fd58e78841d07895886aca1f5ab05da",
          "transactionIndex": "0x68",
          "logIndex": "0x87",
          "removed": false
        },
        {
          "address": "0x8aafd3ede9adb0ff97c7aebce82a919afb1c8764",
          "topics": [
            "0xddf252ad1be2c89b69c2b068fc378daa952ba7f163c4a11628f55a4df523b3ef",
            "0x000000000000000000000000c77f7fed3b5cc8249adc428c5f44c9063b9734b4",
            "0x000000000000000000000000c77f7fed3b5cc8249adc428c5f44c9063b9734b4"
          ],
          "data": "0x00000000000000000000000000000000000000000000000012dfeebfb3935efc",
          "blockHash": "0x081c7d6c2975122645356ce039c0a097d672b3a14196c5955b3cb1fe29ce2aa9",
          "blockNumber": "0x731ddc",
          "transactionHash": "0x840357593507f5910c331b727f7a9f839fd58e78841d07895886aca1f5ab05da",
          "transactionIndex": "0x68",
          "logIndex": "0x88",
          "removed": false
        },
        {
          "address": "0x8aafd3ede9adb0ff97c7aebce82a919afb1c8764",
          "topics": [
            "0x4afcb4a87cdbd9974efdb92ee48bc8d7cd0ae4bf217004db3d080cbaee652ca7"
          ],
          "data": "0x00000000000000000000000000000000000000000000000000000000679063380000000000000000000000000000000000000000000000000014daea902dc6130000000000000000000000000000000000000000000000000dcc57f99a4ef951",
          "blockHash": "0x081c7d6c2975122645356ce039c0a097d672b3a14196c5955b3cb1fe29ce2aa9",
          "blockNumber": "0x731ddc",
          "transactionHash": "0x840357593507f5910c331b727f7a9f839fd58e78841d07895886aca1f5ab05da",
          "transactionIndex": "0x68",
          "logIndex": "0x89",
          "removed": false
        }
      ],
      "logsBloom": "0x00000000000000000000000000000000000000000600000000000000000000000000000000000000000000000000000000000000000000004000000000000000000000000000004000000008000000000000000000000000000000000000000000000000020000000000000000000800020000000000000000000010000000000000000000000000000000000000000000000000000000000000010000000000000000000000000000000000000000004000000000000000000000000000000000000002000000800000000000000000000000000000080000000000000020000000000000000000000000000000000000000000000000000000000000000000",
      "type": "0x2",
      "transactionHash": "0x840357593507f5910c331b727f7a9f839fd58e78841d07895886aca1f5ab05da",
      "transactionIndex": "0x68",
      "blockHash": "0x081c7d6c2975122645356ce039c0a097d672b3a14196c5955b3cb1fe29ce2aa9",
      "blockNumber": "0x731ddc",
      "gasUsed": "0xfd4b",
      "effectiveGasPrice": "0x4979f0e4",
      "from": "0xc77f7fed3b5cc8249adc428c5f44c9063b9734b4",
      "to": "0x8aafd3ede9adb0ff97c7aebce82a919afb1c8764",
      "contractAddress": null
    }
  ],
  "libraries": [],
  "pending": [],
  "returns": {},
  "timestamp": 1737515833,
  "chain": 11155111,
  "commit": "1d2fb70"
}