{
  "transactions": [
    {
      "hash": "0x89b1d536ef1f769e8d4425e90dd6433956008770fc3b5ab2b9250784a681d8ad",
      "transactionType": "CALL",
      "contractName": null,
      "contractAddress": "0xbf4a322f1496e5c3d34a9bcdb4c60567b38c7de2",
      "function": "sell(uint256)",
      "arguments": [
        "986309838407376540152"
      ],
      "transaction": {
        "from": "0xc77f7fed3b5cc8249adc428c5f44c9063b9734b4",
        "to": "0xbf4a322f1496e5c3d34a9bcdb4c60567b38c7de2",
        "gas": "0x16fea",
        "value": "0x0",
        "input": "0xe4849b3200000000000000000000000000000000000000000000003577cc7456889b91f8",
        "nonce": "0xa45",
        "chainId": "0xaa36a7"
      },
      "additionalContracts": [],
      "isFixedGasLimit": false
    }
  ],
  "receipts": [
    {
      "status": "0x1",
      "cumulativeGasUsed": "0x922fa5",
      "logs": [
        {
          "address": "0xbf4a322f1496e5c3d34a9bcdb4c60567b38c7de2",
          "topics": [
            "0xddf252ad1be2c89b69c2b068fc378daa952ba7f163c4a11628f55a4df523b3ef",
            "0x000000000000000000000000c77f7fed3b5cc8249adc428c5f44c9063b9734b4",
            "0x0000000000000000000000000000000000000000000000000000000000000000"
          ],
          "data": "0x00000000000000000000000000000000000000000000003577cc7456889b91f8",
          "blockHash": "0xe276da671df1816fb3fb821f7d3a36bebd44342c9b4920b0ee090f4b213ae500",
          "blockNumber": "0x725a1d",
          "transactionHash": "0x89b1d536ef1f769e8d4425e90dd6433956008770fc3b5ab2b9250784a681d8ad",
          "transactionIndex": "0x5f",
          "logIndex": "0xa6",
          "removed": false
        },
        {
          "address": "0xbf4a322f1496e5c3d34a9bcdb4c60567b38c7de2",
          "topics": [
            "0x4afcb4a87cdbd9974efdb92ee48bc8d7cd0ae4bf217004db3d080cbaee652ca7"
          ],
          "data": "0x0000000000000000000000000000000000000000000000000000000067872bac000000000000000000000000000000000000000000000000000393b11cc8fac30000000000000000000000000000000000000000000000000dc7e3f0bc9c7643",
          "blockHash": "0xe276da671df1816fb3fb821f7d3a36bebd44342c9b4920b0ee090f4b213ae500",
          "blockNumber": "0x725a1d",
          "transactionHash": "0x89b1d536ef1f769e8d4425e90dd6433956008770fc3b5ab2b9250784a681d8ad",
          "transactionIndex": "0x5f",
          "logIndex": "0xa7",
          "removed": false
        }
      ],
      "logsBloom": "0x00000000000000000000000000000000000000000000000000000000000000000000000000000000000000000000000000000000000000004000000000000000000000000000000000000008000000000000001000000000000000000000000000000000020000000000000000000800020000000000000000000010000000000000000000000000000000000000000000000000000008000000010000000000000000000000000000000000000000004000000000000000000000000000000000000002000000800000000000001000000000000000080000000000000020000000000000000000000000000000000000000000000000000000000000000000",
      "type": "0x2",
      "transactionHash": "0x89b1d536ef1f769e8d4425e90dd6433956008770fc3b5ab2b9250784a681d8ad",
      "transactionIndex": "0x5f",
      "blockHash": "0xe276da671df1816fb3fb821f7d3a36bebd44342c9b4920b0ee090f4b213ae500",
      "blockNumber": "0x725a1d",
      "gasUsed": "0xfb91",
      "effectiveGasPrice": "0x6a48be5fd",
      "from": "0xc77f7fed3b5cc8249adc428c5f44c9063b9734b4",
      "to": "0xbf4a322f1496e5c3d34a9bcdb4c60567b38c7de2",
      "contractAddress": null
    }
  ],
  "libraries": [],
  "pending": [],
  "returns": {},
  "timestamp": 1736911790,
  "chain": 11155111,
  "commit": "51a374b"
}