{
  "transactions": [
    {
      "hash": "0x7086399ea9ebc7475a74d270a5f495041aaa4cbd6b0690c387a5a308dfe942c1",
      "transactionType": "CALL",
      "contractName": null,
      "contractAddress": "0x5eb9cc76c3506942c1c0ead70e877dd5e4f00cb0",
      "function": "buy(address)",
      "arguments": [
        "0xC77f7fed3b5Cc8249aDc428c5F44C9063B9734b4"
      ],
      "transaction": {
        "from": "0xc77f7fed3b5cc8249adc428c5f44c9063b9734b4",
        "to": "0x5eb9cc76c3506942c1c0ead70e877dd5e4f00cb0",
        "gas": "0x1b30c",
        "value": "0xde0b6b3a7640000",
        "input": "0xf088d547000000000000000000000000c77f7fed3b5cc8249adc428c5f44c9063b9734b4",
        "nonce": "0x29c",
        "chainId": "0xaa36a7"
      },
      "additionalContracts": [],
      "isFixedGasLimit": false
    }
  ],
  "receipts": [
    {
      "status": "0x1",
      "cumulativeGasUsed": "0xc98fbe",
      "logs": [
        {
          "address": "0x5eb9cc76c3506942c1c0ead70e877dd5e4f00cb0",
          "topics": [
            "0xddf252ad1be2c89b69c2b068fc378daa952ba7f163c4a11628f55a4df523b3ef",
            "0x0000000000000000000000000000000000000000000000000000000000000000",
            "0x000000000000000000000000c77f7fed3b5cc8249adc428c5f44c9063b9734b4"
          ],
          "data": "0x00000000000000000000000000000000000000000000003575cb2ac7f953033c",
          "blockHash": "0x86d3f290699cf5799d49afa681f074d280cf88a84e49e501bf3cc458989cc483",
          "blockNumber": "0x724e72",
          "transactionHash": "0x7086399ea9ebc7475a74d270a5f495041aaa4cbd6b0690c387a5a308dfe942c1",
          "transactionIndex": "0x64",
          "logIndex": "0xfd",
          "removed": false
        },
        {
          "address": "0x5eb9cc76c3506942c1c0ead70e877dd5e4f00cb0",
          "topics": [
            "0xddf252ad1be2c89b69c2b068fc378daa952ba7f163c4a11628f55a4df523b3ef",
            "0x0000000000000000000000000000000000000000000000000000000000000000",
            "0x000000000000000000000000c77f7fed3b5cc8249adc428c5f44c9063b9734b4"
          ],
          "data": "0x00000000000000000000000000000000000000000000000029837c4e2ab46466",
          "blockHash": "0x86d3f290699cf5799d49afa681f074d280cf88a84e49e501bf3cc458989cc483",
          "blockNumber": "0x724e72",
          "transactionHash": "0x7086399ea9ebc7475a74d270a5f495041aaa4cbd6b0690c387a5a308dfe942c1",
          "transactionIndex": "0x64",
          "logIndex": "0xfe",
          "removed": false
        },
        {
          "address": "0x5eb9cc76c3506942c1c0ead70e877dd5e4f00cb0",
          "topics": [
            "0x4afcb4a87cdbd9974efdb92ee48bc8d7cd0ae4bf217004db3d080cbaee652ca7"
          ],
          "data": "0x0000000000000000000000000000000000000000000000000000000067869f0c000000000000000000000000000000000000000000000000000391080477644f0000000000000000000000000000000000000000000000000de0b6b3a7640000",
          "blockHash": "0x86d3f290699cf5799d49afa681f074d280cf88a84e49e501bf3cc458989cc483",
          "blockNumber": "0x724e72",
          "transactionHash": "0x7086399ea9ebc7475a74d270a5f495041aaa4cbd6b0690c387a5a308dfe942c1",
          "transactionIndex": "0x64",
          "logIndex": "0xff",
          "removed": false
        }
      ],
      "logsBloom": "0x00000000000000000000000000000000000000000000000000000000000000000000000000000000000000000000000000000000000000004000000000000000000000000000000000000008000000000000000000000000000000000000000000000000020000000000000004000800020000000000000000000010000000000000000000000000000000000000000000000000000000000000010000000000000000000000000000000000000000004000000000000000000000000000020000000002000000800000008000000000000000000000080000000000000020000000000000000000000000000000000000000000000000000000000000000000",
      "type": "0x2",
      "transactionHash": "0x7086399ea9ebc7475a74d270a5f495041aaa4cbd6b0690c387a5a308dfe942c1",
      "transactionIndex": "0x64",
      "blockHash": "0x86d3f290699cf5799d49afa681f074d280cf88a84e49e501bf3cc458989cc483",
      "blockNumber": "0x724e72",
      "gasUsed": "0x13af8",
      "effectiveGasPrice": "0x463dfde3b",
      "from": "0xc77f7fed3b5cc8249adc428c5f44c9063b9734b4",
      "to": "0x5eb9cc76c3506942c1c0ead70e877dd5e4f00cb0",
      "contractAddress": null
    }
  ],
  "libraries": [],
  "pending": [],
  "returns": {},
  "timestamp": 1736875789,
  "chain": 11155111,
  "commit": "51a374b"
}