{
  "transactions": [
    {
      "hash": "0x8e2280f13bf96dbdb43e7a2c08d14e4c1e5625e344426de4b302f98b9eecbef4",
      "transactionType": "CALL",
      "contractName": null,
      "contractAddress": "0x8aafd3ede9adb0ff97c7aebce82a919afb1c8764",
      "function": "buy(address)",
      "arguments": [
        "0xC77f7fed3b5Cc8249aDc428c5F44C9063B9734b4"
      ],
      "transaction": {
        "from": "0xc77f7fed3b5cc8249adc428c5f44c9063b9734b4",
        "to": "0x8aafd3ede9adb0ff97c7aebce82a919afb1c8764",
        "gas": "0x156ea",
        "value": "0xde0b6b3a7640000",
        "input": "0xf088d547000000000000000000000000c77f7fed3b5cc8249adc428c5f44c9063b9734b4",
        "nonce": "0x177d",
        "chainId": "0xaa36a7"
      },
      "additionalContracts": [],
      "isFixedGasLimit": false
    }
  ],
  "receipts": [
    {
      "status": "0x1",
      "cumulativeGasUsed": "0xd942db",
      "logs": [
        {
          "address": "0x8aafd3ede9adb0ff97c7aebce82a919afb1c8764",
          "topics": [
            "0xddf252ad1be2c89b69c2b068fc378daa952ba7f163c4a11628f55a4df523b3ef",
            "0x0000000000000000000000000000000000000000000000000000000000000000",
            "0x000000000000000000000000c77f7fed3b5cc8249adc428c5f44c9063b9734b4"
          ],
          "data": "0x000000000000000000000000000000000000000000000007ce0610f3d4b368fd",
          "blockHash": "0x6b692dd357745d835ddeb05f9f8a2f8748fd253e8354233cb747386a707543d4",
          "blockNumber": "0x731f58",
          "transactionHash": "0x8e2280f13bf96dbdb43e7a2c08d14e4c1e5625e344426de4b302f98b9eecbef4",
          "transactionIndex": "0x6f",
          "logIndex": "0x9e",
          "removed": false
        },
        {
          "address": "0x8aafd3ede9adb0ff97c7aebce82a919afb1c8764",
          "topics": [
            "0xddf252ad1be2c89b69c2b068fc378daa952ba7f163c4a11628f55a4df523b3ef",
            "0x0000000000000000000000000000000000000000000000000000000000000000",
            "0x000000000000000000000000c77f7fed3b5cc8249adc428c5f44c9063b9734b4"
          ],
          "data": "0x000000000000000000000000000000000000000000000000060f8896e3e7d9b5",
          "blockHash": "0x6b692dd357745d835ddeb05f9f8a2f8748fd253e8354233cb747386a707543d4",
          "blockNumber": "0x731f58",
          "transactionHash": "0x8e2280f13bf96dbdb43e7a2c08d14e4c1e5625e344426de4b302f98b9eecbef4",
          "transactionIndex": "0x6f",
          "logIndex": "0x9f",
          "removed": false
        },
        {
          "address": "0x8aafd3ede9adb0ff97c7aebce82a919afb1c8764",
          "topics": [
            "0x4afcb4a87cdbd9974efdb92ee48bc8d7cd0ae4bf217004db3d080cbaee652ca7"
          ],
          "data": "0x0000000000000000000000000000000000000000000000000000000067907508000000000000000000000000000000000000000000000000001874e7d6f1f2830000000000000000000000000000000000000000000000000de0b6b3a7640000",
          "blockHash": "0x6b692dd357745d835ddeb05f9f8a2f8748fd253e8354233cb747386a707543d4",
          "blockNumber": "0x731f58",
          "transactionHash": "0x8e2280f13bf96dbdb43e7a2c08d14e4c1e5625e344426de4b302f98b9eecbef4",
          "transactionIndex": "0x6f",
          "logIndex": "0xa0",
          "removed": false
        }
      ],
      "logsBloom": "0x00000000000000000000000000000000000000000600000000000000000000000000000000000000000000000000000000000000000000004000000000000000000000000000004000000008000000000000000000000000000000000000000000000000020000000000000000000800020000000000000000000010000000000000000000000000000000000000000000000000000000000000010000000000000000000000000000000000000000004000000000000000000000000000000000000002000000800000000000000000000000000000080000000000000020000000000000000000000000000000000000000000000000000000000000000000",
      "type": "0x2",
      "transactionHash": "0x8e2280f13bf96dbdb43e7a2c08d14e4c1e5625e344426de4b302f98b9eecbef4",
      "transactionIndex": "0x6f",
      "blockHash": "0x6b692dd357745d835ddeb05f9f8a2f8748fd253e8354233cb747386a707543d4",
      "blockNumber": "0x731f58",
      "gasUsed": "0xf844",
      "effectiveGasPrice": "0x449bf26d",
      "from": "0xc77f7fed3b5cc8249adc428c5f44c9063b9734b4",
      "to": "0x8aafd3ede9adb0ff97c7aebce82a919afb1c8764",
      "contractAddress": null
    }
  ],
  "libraries": [],
  "pending": [],
  "returns": {},
  "timestamp": 1737520394,
  "chain": 11155111,
  "commit": "1d2fb70"
}