{
  "transactions": [
    {
      "hash": "0xc0bf102fbc915e7d26d972e2855b171fb0724354a9dc48ac8d102afc67b50ae6",
      "transactionType": "CALL",
      "contractName": null,
      "contractAddress": "0x270e88f8683660553e8ba4eb2ad7c91a1710d769",
      "function": "sell(uint256)",
      "arguments": [
        "987285350421305636105"
      ],
      "transaction": {
        "from": "0xc77f7fed3b5cc8249adc428c5f44c9063b9734b4",
        "to": "0x270e88f8683660553e8ba4eb2ad7c91a1710d769",
        "gas": "0x16fec",
        "value": "0x0",
        "input": "0xe4849b3200000000000000000000000000000000000000000000003585562b58a0fa3509",
        "nonce": "0x4f9",
        "chainId": "0xaa36a7"
      },
      "additionalContracts": [],
      "isFixedGasLimit": false
    }
  ],
  "receipts": [
    {
      "status": "0x1",
      "cumulativeGasUsed": "0xb01078",
      "logs": [
        {
          "address": "0x270e88f8683660553e8ba4eb2ad7c91a1710d769",
          "topics": [
            "0xddf252ad1be2c89b69c2b068fc378daa952ba7f163c4a11628f55a4df523b3ef",
            "0x000000000000000000000000c77f7fed3b5cc8249adc428c5f44c9063b9734b4",
            "0x0000000000000000000000000000000000000000000000000000000000000000"
          ],
          "data": "0x00000000000000000000000000000000000000000000003585562b58a0fa3509",
          "blockHash": "0x70c4363b4b5a2e57009ca811e6d82cc842c28b2cbb24fda2996af6d011ea4dae",
          "blockNumber": "0x72518b",
          "transactionHash": "0xc0bf102fbc915e7d26d972e2855b171fb0724354a9dc48ac8d102afc67b50ae6",
          "transactionIndex": "0x68",
          "logIndex": "0x9a",
          "removed": false
        },
        {
          "address": "0x270e88f8683660553e8ba4eb2ad7c91a1710d769",
          "topics": [
            "0x4afcb4a87cdbd9974efdb92ee48bc8d7cd0ae4bf217004db3d080cbaee652ca7"
          ],
          "data": "0x000000000000000000000000000000000000000000000000000000006786c4680000000000000000000000000000000000000000000000000003930deae386a10000000000000000000000000000000000000000000000000dc841fd13c2a5fe",
          "blockHash": "0x70c4363b4b5a2e57009ca811e6d82cc842c28b2cbb24fda2996af6d011ea4dae",
          "blockNumber": "0x72518b",
          "transactionHash": "0xc0bf102fbc915e7d26d972e2855b171fb0724354a9dc48ac8d102afc67b50ae6",
          "transactionIndex": "0x68",
          "logIndex": "0x9b",
          "removed": false
        }
      ],
      "logsBloom": "0x00000000000000000000000000000000000000000000000000000000000000000000000000000000000000000000000020000000000000004000000000000000000000000000000000000008000000000000000000000000000000000000000000000000020000000000000000000800020000000000000000000010000000000000000000010000000000000000000000000000000000000000010000000000000000000000000000000000000000004000000000000000000000000000000000000002000000800000000000000000000000000000080000008000000020000000000000000000000000000000000000000000000000000000000000000000",
      "type": "0x2",
      "transactionHash": "0xc0bf102fbc915e7d26d972e2855b171fb0724354a9dc48ac8d102afc67b50ae6",
      "transactionIndex": "0x68",
      "blockHash": "0x70c4363b4b5a2e57009ca811e6d82cc842c28b2cbb24fda2996af6d011ea4dae",
      "blockNumber": "0x72518b",
      "gasUsed": "0xfb93",
      "effectiveGasPrice": "0x44c93ad43",
      "from": "0xc77f7fed3b5cc8249adc428c5f44c9063b9734b4",
      "to": "0x270e88f8683660553e8ba4eb2ad7c91a1710d769",
      "contractAddress": null
    }
  ],
  "libraries": [],
  "pending": [],
  "returns": {},
  "timestamp": 1736885353,
  "chain": 11155111,
  "commit": "51a374b"
}