{
  "transactions": [
    {
      "hash": "0x208129271b3d36b06dd01ec064db3fc939d53e5f0cf3e4a0471e3ec477115f31",
      "transactionType": "CALL",
      "contractName": null,
      "contractAddress": "0xbf4a322f1496e5c3d34a9bcdb4c60567b38c7de2",
      "function": "sell(uint256)",
      "arguments": [
        "985195900530341568801"
      ],
      "transaction": {
        "from": "0xc77f7fed3b5cc8249adc428c5f44c9063b9734b4",
        "to": "0xbf4a322f1496e5c3d34a9bcdb4c60567b38c7de2",
        "gas": "0x16fea",
        "value": "0x0",
        "input": "0xe4849b320000000000000000000000000000000000000000000000356856f3bda215e121",
        "nonce": "0xa97",
        "chainId": "0xaa36a7"
      },
      "additionalContracts": [],
      "isFixedGasLimit": false
    }
  ],
  "receipts": [
    {
      "status": "0x1",
      "cumulativeGasUsed": "0xfc9e3b",
      "logs": [
        {
          "address": "0xbf4a322f1496e5c3d34a9bcdb4c60567b38c7de2",
          "topics": [
            "0xddf252ad1be2c89b69c2b068fc378daa952ba7f163c4a11628f55a4df523b3ef",
            "0x000000000000000000000000c77f7fed3b5cc8249adc428c5f44c9063b9734b4",
            "0x0000000000000000000000000000000000000000000000000000000000000000"
          ],
          "data": "0x0000000000000000000000000000000000000000000000356856f3bda215e121",
          "blockHash": "0x5f17891967a6b6d9020f6de08512bd0a8e900a5d845768c666a5a635ce0d7546",
          "blockNumber": "0x725a7e",
          "transactionHash": "0x208129271b3d36b06dd01ec064db3fc939d53e5f0cf3e4a0471e3ec477115f31",
          "transactionIndex": "0xa2",
          "logIndex": "0xec",
          "removed": false
        },
        {
          "address": "0xbf4a322f1496e5c3d34a9bcdb4c60567b38c7de2",
          "topics": [
            "0x4afcb4a87cdbd9974efdb92ee48bc8d7cd0ae4bf217004db3d080cbaee652ca7"
          ],
          "data": "0x0000000000000000000000000000000000000000000000000000000067873038000000000000000000000000000000000000000000000000000394ba27b228160000000000000000000000000000000000000000000000000dc7e3ee2598e1f1",
          "blockHash": "0x5f17891967a6b6d9020f6de08512bd0a8e900a5d845768c666a5a635ce0d7546",
          "blockNumber": "0x725a7e",
          "transactionHash": "0x208129271b3d36b06dd01ec064db3fc939d53e5f0cf3e4a0471e3ec477115f31",
          "transactionIndex": "0xa2",
          "logIndex": "0xed",
          "removed": false
        }
      ],
      "logsBloom": "0x00000000000000000000000000000000000000000000000000000000000000000000000000000000000000000000000000000000000000004000000000000000000000000000000000000008000000000000001000000000000000000000000000000000020000000000000000000800020000000000000000000010000000000000000000000000000000000000000000000000000008000000010000000000000000000000000000000000000000004000000000000000000000000000000000000002000000800000000000001000000000000000080000000000000020000000000000000000000000000000000000000000000000000000000000000000",
      "type": "0x2",
      "transactionHash": "0x208129271b3d36b06dd01ec064db3fc939d53e5f0cf3e4a0471e3ec477115f31",
      "transactionIndex": "0xa2",
      "blockHash": "0x5f17891967a6b6d9020f6de08512bd0a8e900a5d845768c666a5a635ce0d7546",
      "blockNumber": "0x725a7e",
      "gasUsed": "0xfb91",
      "effectiveGasPrice": "0x1c3c64496",
      "from": "0xc77f7fed3b5cc8249adc428c5f44c9063b9734b4",
      "to": "0xbf4a322f1496e5c3d34a9bcdb4c60567b38c7de2",
      "contractAddress": null
    }
  ],
  "libraries": [],
  "pending": [],
  "returns": {},
  "timestamp": 1736912953,
  "chain": 11155111,
  "commit": "51a374b"
}