{
  "transactions": [
    {
      "hash": "0xc254e13cf65b48fe0a0f98b1c87d0456e5ada53603e3a190c51663b11c21940e",
      "transactionType": "CALL",
      "contractName": null,
      "contractAddress": "0x8aafd3ede9adb0ff97c7aebce82a919afb1c8764",
      "function": "sell(uint256)",
      "arguments": [
        "1272239903124"
      ],
      "transaction": {
        "from": "0xc77f7fed3b5cc8249adc428c5f44c9063b9734b4",
        "to": "0x8aafd3ede9adb0ff97c7aebce82a919afb1c8764",
        "gas": "0x15daa",
        "value": "0x0",
        "input": "0xe4849b320000000000000000000000000000000000000000000000000000012837685194",
        "nonce": "0x1314",
        "chainId": "0xaa36a7"
      },
      "additionalContracts": [],
      "isFixedGasLimit": false
    }
  ],
  "receipts": [
    {
      "status": "0x1",
      "cumulativeGasUsed": "0xc584fd",
      "logs": [
        {
          "address": "0x8aafd3ede9adb0ff97c7aebce82a919afb1c8764",
          "topics": [
            "0xddf252ad1be2c89b69c2b068fc378daa952ba7f163c4a11628f55a4df523b3ef",
            "0x000000000000000000000000c77f7fed3b5cc8249adc428c5f44c9063b9734b4",
            "0x0000000000000000000000000000000000000000000000000000000000000000"
          ],
          "data": "0x00000000000000000000000000000000000000000000000000000125d8c1989c",
          "blockHash": "0x221ba32c0466b618e7be341c80561a4f8901faa8b35537831ba6e72b83b964c5",
          "blockNumber": "0x731a21",
          "transactionHash": "0xc254e13cf65b48fe0a0f98b1c87d0456e5ada53603e3a190c51663b11c21940e",
          "transactionIndex": "0x8e",
          "logIndex": "0x8c",
          "removed": false
        },
        {
          "address": "0x8aafd3ede9adb0ff97c7aebce82a919afb1c8764",
          "topics": [
            "0xddf252ad1be2c89b69c2b068fc378daa952ba7f163c4a11628f55a4df523b3ef",
            "0x000000000000000000000000c77f7fed3b5cc8249adc428c5f44c9063b9734b4",
            "0x000000000000000000000000c77f7fed3b5cc8249adc428c5f44c9063b9734b4"
          ],
          "data": "0x000000000000000000000000000000000000000000000000000000025ea6b8f8",
          "blockHash": "0x221ba32c0466b618e7be341c80561a4f8901faa8b35537831ba6e72b83b964c5",
          "blockNumber": "0x731a21",
          "transactionHash": "0xc254e13cf65b48fe0a0f98b1c87d0456e5ada53603e3a190c51663b11c21940e",
          "transactionIndex": "0x8e",
          "logIndex": "0x8d",
          "removed": false
        },
        {
          "address": "0x8aafd3ede9adb0ff97c7aebce82a919afb1c8764",
          "topics": [
            "0x4afcb4a87cdbd9974efdb92ee48bc8d7cd0ae4bf217004db3d080cbaee652ca7"
          ],
          "data": "0x000000000000000000000000000000000000000000000000000000006790365c000000000000000000000000000000000000000000000000000b75905fec05e000000000000000000000000000000000000000000000000000000000f497e0a0",
          "blockHash": "0x221ba32c0466b618e7be341c80561a4f8901faa8b35537831ba6e72b83b964c5",
          "blockNumber": "0x731a21",
          "transactionHash": "0xc254e13cf65b48fe0a0f98b1c87d0456e5ada53603e3a190c51663b11c21940e",
          "transactionIndex": "0x8e",
          "logIndex": "0x8e",
          "removed": false
        }
      ],
      "logsBloom": "0x00000000000000000000000000000000000000000600000000000000000000000000000000000000000000000000000000000000000000004000000000000000000000000000004000000008000000000000000000000000000000000000000000000000020000000000000000000800020000000000000000000010000000000000000000000000000000000000000000000000000000000000010000000000000000000000000000000000000000004000000000000000000000000000000000000002000000800000000000000000000000000000080000000000000020000000000000000000000000000000000000000000000000000000000000000000",
      "type": "0x2",
      "transactionHash": "0xc254e13cf65b48fe0a0f98b1c87d0456e5ada53603e3a190c51663b11c21940e",
      "transactionIndex": "0x8e",
      "blockHash": "0x221ba32c0466b618e7be341c80561a4f8901faa8b35537831ba6e72b83b964c5",
      "blockNumber": "0x731a21",
      "gasUsed": "0xfd27",
      "effectiveGasPrice": "0x4b12aec6",
      "from": "0xc77f7fed3b5cc8249adc428c5f44c9063b9734b4",
      "to": "0x8aafd3ede9adb0ff97c7aebce82a919afb1c8764",
      "contractAddress": null
    }
  ],
  "libraries": [],
  "pending": [],
  "returns": {},
  "timestamp": 1737504349,
  "chain": 11155111,
  "commit": "1d2fb70"
}