{
  "transactions": [
    {
      "hash": "0xae259ccd16db111c34b8e97c8bea6e0d8d8efc0c7eaab75bf2e749faa6a82872",
      "transactionType": "CALL",
      "contractName": null,
      "contractAddress": "0x8aafd3ede9adb0ff97c7aebce82a919afb1c8764",
      "function": "sell(uint256)",
      "arguments": [
        "143788739503906807080"
      ],
      "transaction": {
        "from": "0xc77f7fed3b5cc8249adc428c5f44c9063b9734b4",
        "to": "0x8aafd3ede9adb0ff97c7aebce82a919afb1c8764",
        "gas": "0x17270",
        "value": "0x0",
        "input": "0xe4849b32000000000000000000000000000000000000000000000007cb7838c0df8add28",
        "nonce": "0x1787",
        "chainId": "0xaa36a7"
      },
      "additionalContracts": [],
      "isFixedGasLimit": false
    }
  ],
  "receipts": [
    {
      "status": "0x1",
      "cumulativeGasUsed": "0xcd1e3f",
      "logs": [
        {
          "address": "0x8aafd3ede9adb0ff97c7aebce82a919afb1c8764",
          "topics": [
            "0xddf252ad1be2c89b69c2b068fc378daa952ba7f163c4a11628f55a4df523b3ef",
            "0x000000000000000000000000c77f7fed3b5cc8249adc428c5f44c9063b9734b4",
            "0x0000000000000000000000000000000000000000000000000000000000000000"
          ],
          "data": "0x000000000000000000000000000000000000000000000007bb817ffab8e3dd70",
          "blockHash": "0x91e61895b14e2df614db439e6d00d91613615c356c3122f625d3429d76aeef99",
          "blockNumber": "0x731f62",
          "transactionHash": "0xae259ccd16db111c34b8e97c8bea6e0d8d8efc0c7eaab75bf2e749faa6a82872",
          "transactionIndex": "0x5f",
          "logIndex": "0xb8",
          "removed": false
        },
        {
          "address": "0x8aafd3ede9adb0ff97c7aebce82a919afb1c8764",
          "topics": [
            "0xddf252ad1be2c89b69c2b068fc378daa952ba7f163c4a11628f55a4df523b3ef",
            "0x000000000000000000000000c77f7fed3b5cc8249adc428c5f44c9063b9734b4",
            "0x000000000000000000000000c77f7fed3b5cc8249adc428c5f44c9063b9734b4"
          ],
          "data": "0x0000000000000000000000000000000000000000000000000ff6b8c626a6ffb8",
          "blockHash": "0x91e61895b14e2df614db439e6d00d91613615c356c3122f625d3429d76aeef99",
          "blockNumber": "0x731f62",
          "transactionHash": "0xae259ccd16db111c34b8e97c8bea6e0d8d8efc0c7eaab75bf2e749faa6a82872",
          "transactionIndex": "0x5f",
          "logIndex": "0xb9",
          "removed": false
        },
        {
          "address": "0x8aafd3ede9adb0ff97c7aebce82a919afb1c8764",
          "topics": [
            "0x4afcb4a87cdbd9974efdb92ee48bc8d7cd0ae4bf217004db3d080cbaee652ca7"
          ],
          "data": "0x00000000000000000000000000000000000000000000000000000000679075800000000000000000000000000000000000000000000000000018a3cceca6ecad0000000000000000000000000000000000000000000000000dcbc29abe0ee3c3",
          "blockHash": "0x91e61895b14e2df614db439e6d00d91613615c356c3122f625d3429d76aeef99",
          "blockNumber": "0x731f62",
          "transactionHash": "0xae259ccd16db111c34b8e97c8bea6e0d8d8efc0c7eaab75bf2e749faa6a82872",
          "transactionIndex": "0x5f",
          "logIndex": "0xba",
          "removed": false
        }
      ],
      "logsBloom": "0x00000000000000000000000000000000000000000600000000000000000000000000000000000000000000000000000000000000000000004000000000000000000000000000004000000008000000000000000000000000000000000000000000000000020000000000000000000800020000000000000000000010000000000000000000000000000000000000000000000000000000000000010000000000000000000000000000000000000000004000000000000000000000000000000000000002000000800000000000000000000000000000080000000000000020000000000000000000000000000000000000000000000000000000000000000000",
      "type": "0x2",
      "transactionHash": "0xae259ccd16db111c34b8e97c8bea6e0d8d8efc0c7eaab75bf2e749faa6a82872",
      "transactionIndex": "0x5f",
      "blockHash": "0x91e61895b14e2df614db439e6d00d91613615c356c3122f625d3429d76aeef99",
      "blockNumber": "0x731f62",
      "gasUsed": "0xfd4b",
      "effectiveGasPrice": "0x3ee6a53b",
      "from": "0xc77f7fed3b5cc8249adc428c5f44c9063b9734b4",
      "to": "0x8aafd3ede9adb0ff97c7aebce82a919afb1c8764",
      "contractAddress": null
    }
  ],
  "libraries": [],
  "pending": [],
  "returns": {},
  "timestamp": 1737520513,
  "chain": 11155111,
  "commit": "1d2fb70"
}