{
  "transactions": [
    {
      "hash": "0xdc2eee0cfa16f75dcc4fd5c15415ebbd3bba74275d6719a42b1d06f9e2ddd4f7",
      "transactionType": "CALL",
      "contractName": null,
      "contractAddress": "0x8aafd3ede9adb0ff97c7aebce82a919afb1c8764",
      "function": "sell(uint256)",
      "arguments": [
        "1558149"
      ],
      "transaction": {
        "from": "0xc77f7fed3b5cc8249adc428c5f44c9063b9734b4",
        "to": "0x8aafd3ede9adb0ff97c7aebce82a919afb1c8764",
        "gas": "0x16208",
        "value": "0x0",
        "input": "0xe4849b32000000000000000000000000000000000000000000000000000000000017c685",
        "nonce": "0xf3c",
        "chainId": "0xaa36a7"
      },
      "additionalContracts": [],
      "isFixedGasLimit": false
    }
  ],
  "receipts": [
    {
      "status": "0x1",
      "cumulativeGasUsed": "0x118f77d",
      "logs": [
        {
          "address": "0x8aafd3ede9adb0ff97c7aebce82a919afb1c8764",
          "topics": [
            "0xddf252ad1be2c89b69c2b068fc378daa952ba7f163c4a11628f55a4df523b3ef",
            "0x000000000000000000000000c77f7fed3b5cc8249adc428c5f44c9063b9734b4",
            "0x0000000000000000000000000000000000000000000000000000000000000000"
          ],
          "data": "0x00000000000000000000000000000000000000000000000000000000001795d4",
          "blockHash": "0x2bc48386c66575e8e5029ff07648f2be439d2dcf196816d3c70255ecfd06f9ef",
          "blockNumber": "0x731596",
          "transactionHash": "0xdc2eee0cfa16f75dcc4fd5c15415ebbd3bba74275d6719a42b1d06f9e2ddd4f7",
          "transactionIndex": "0x8e",
          "logIndex": "0x10b",
          "removed": false
        },
        {
          "address": "0x8aafd3ede9adb0ff97c7aebce82a919afb1c8764",
          "topics": [
            "0xddf252ad1be2c89b69c2b068fc378daa952ba7f163c4a11628f55a4df523b3ef",
            "0x000000000000000000000000c77f7fed3b5cc8249adc428c5f44c9063b9734b4",
            "0x000000000000000000000000c77f7fed3b5cc8249adc428c5f44c9063b9734b4"
          ],
          "data": "0x00000000000000000000000000000000000000000000000000000000000030b1",
          "blockHash": "0x2bc48386c66575e8e5029ff07648f2be439d2dcf196816d3c70255ecfd06f9ef",
          "blockNumber": "0x731596",
          "transactionHash": "0xdc2eee0cfa16f75dcc4fd5c15415ebbd3bba74275d6719a42b1d06f9e2ddd4f7",
          "transactionIndex": "0x8e",
          "logIndex": "0x10c",
          "removed": false
        },
        {
          "address": "0x8aafd3ede9adb0ff97c7aebce82a919afb1c8764",
          "topics": [
            "0x4afcb4a87cdbd9974efdb92ee48bc8d7cd0ae4bf217004db3d080cbaee652ca7"
          ],
          "data": "0x00000000000000000000000000000000000000000000000000000000678fffb40000000000000000000000000000000000000000000000000004bfdfc8ad5b5a0000000000000000000000000000000000000000000000000000000000000823",
          "blockHash": "0x2bc48386c66575e8e5029ff07648f2be439d2dcf196816d3c70255ecfd06f9ef",
          "blockNumber": "0x731596",
          "transactionHash": "0xdc2eee0cfa16f75dcc4fd5c15415ebbd3bba74275d6719a42b1d06f9e2ddd4f7",
          "transactionIndex": "0x8e",
          "logIndex": "0x10d",
          "removed": false
        }
      ],
      "logsBloom": "0x00000000000000000000000000000000000000000600000000000000000000000000000000000000000000000000000000000000000000004000000000000000000000000000004000000008000000000000000000000000000000000000000000000000020000000000000000000800020000000000000000000010000000000000000000000000000000000000000000000000000000000000010000000000000000000000000000000000000000004000000000000000000000000000000000000002000000800000000000000000000000000000080000000000000020000000000000000000000000000000000000000000000000000000000000000000",
      "type": "0x2",
      "transactionHash": "0xdc2eee0cfa16f75dcc4fd5c15415ebbd3bba74275d6719a42b1d06f9e2ddd4f7",
      "transactionIndex": "0x8e",
      "blockHash": "0x2bc48386c66575e8e5029ff07648f2be439d2dcf196816d3c70255ecfd06f9ef",
      "blockNumber": "0x731596",
      "gasUsed": "0xf213",
      "effectiveGasPrice": "0x5e09634f",
      "from": "0xc77f7fed3b5cc8249adc428c5f44c9063b9734b4",
      "to": "0x8aafd3ede9adb0ff97c7aebce82a919afb1c8764",
      "contractAddress": null
    }
  ],
  "libraries": [],
  "pending": [],
  "returns": {},
  "timestamp": 1737490358,
  "chain": 11155111,
  "commit": "1d2fb70"
}