{
  "transactions": [
    {
      "hash": "0xc4f6534b16c1efb1c8f17c2baaebc533642562981993e46f75c36c72560f4009",
      "transactionType": "CALL",
      "contractName": null,
      "contractAddress": "0xd7bc75898e513accccf720a874d44dab5a4b6223",
      "function": "sell(uint256)",
      "arguments": [
        "9929992550008189126"
      ],
      "transaction": {
        "from": "0xc77f7fed3b5cc8249adc428c5f44c9063b9734b4",
        "to": "0xd7bc75898e513accccf720a874d44dab5a4b6223",
        "gas": "0x15b6b",
        "value": "0x0",
        "input": "0xe4849b3200000000000000000000000000000000000000000000000089ce6b9ce58370c6",
        "nonce": "0xb5",
        "chainId": "0xaa36a7"
      },
      "additionalContracts": [],
      "isFixedGasLimit": false
    }
  ],
  "receipts": [
    {
      "status": "0x1",
      "cumulativeGasUsed": "0x45d920",
      "logs": [
        {
          "address": "0xd7bc75898e513accccf720a874d44dab5a4b6223",
          "topics": [
            "0xddf252ad1be2c89b69c2b068fc378daa952ba7f163c4a11628f55a4df523b3ef",
            "0x000000000000000000000000c77f7fed3b5cc8249adc428c5f44c9063b9734b4",
            "0x0000000000000000000000000000000000000000000000000000000000000000"
          ],
          "data": "0x00000000000000000000000000000000000000000000000089ce6b9ce58370c6",
          "blockHash": "0x891b2d2c21ea65098d84f5f5159b49783ec23ae026416955923f6b45cbffaf2e",
          "blockNumber": "0x72392c",
          "transactionHash": "0xc4f6534b16c1efb1c8f17c2baaebc533642562981993e46f75c36c72560f4009",
          "transactionIndex": "0x27",
          "logIndex": "0x29",
          "removed": false
        },
        {
          "address": "0xd7bc75898e513accccf720a874d44dab5a4b6223",
          "topics": [
            "0x4afcb4a87cdbd9974efdb92ee48bc8d7cd0ae4bf217004db3d080cbaee652ca7"
          ],
          "data": "0x0000000000000000000000000000000000000000000000000000000067859f5800000000000000000000000000000000000000000000000000038d7f85f103840000000000000000000000000000000000000000000000000023474f493d2798",
          "blockHash": "0x891b2d2c21ea65098d84f5f5159b49783ec23ae026416955923f6b45cbffaf2e",
          "blockNumber": "0x72392c",
          "transactionHash": "0xc4f6534b16c1efb1c8f17c2baaebc533642562981993e46f75c36c72560f4009",
          "transactionIndex": "0x27",
          "logIndex": "0x2a",
          "removed": false
        }
      ],
      "logsBloom": "0x00000000000000000000000000000000000000000000000000000000000000000000000000000000000000000000000000000000000000004000000000000000000000000000000000000008000000000000000000000000000000000000000000000000020000000000000000000800020000000000000000000010000000000000000000000000000000000000000000000000000000000000010000000000000000000000000000000000000000004000001000000000000000000000000000000002000000800000000000004000000000000000080000000000000020000000000000000000000000000000000000000000080000000000000000000000",
      "type": "0x2",
      "transactionHash": "0xc4f6534b16c1efb1c8f17c2baaebc533642562981993e46f75c36c72560f4009",
      "transactionIndex": "0x27",
      "blockHash": "0x891b2d2c21ea65098d84f5f5159b49783ec23ae026416955923f6b45cbffaf2e",
      "blockNumber": "0x72392c",
      "gasUsed": "0xfb87",
      "effectiveGasPrice": "0x686d5b3",
      "from": "0xc77f7fed3b5cc8249adc428c5f44c9063b9734b4",
      "to": "0xd7bc75898e513accccf720a874d44dab5a4b6223",
      "contractAddress": null
    }
  ],
  "libraries": [],
  "pending": [],
  "returns": {},
  "timestamp": 1736810329,
  "chain": 11155111,
  "commit": "51a374b"
}