{
  "transactions": [
    {
      "hash": "0xec1281bdb659c3d00487a09dd9f2fcd79f6dcc12bb2663fa77ed4586e9ce082a",
      "transactionType": "CALL",
      "contractName": null,
      "contractAddress": "0x8aafd3ede9adb0ff97c7aebce82a919afb1c8764",
      "function": "sell(uint256)",
      "arguments": [
        "1257010057652983634"
      ],
      "transaction": {
        "from": "0xc77f7fed3b5cc8249adc428c5f44c9063b9734b4",
        "to": "0x8aafd3ede9adb0ff97c7aebce82a919afb1c8764",
        "gas": "0x15dca",
        "value": "0x0",
        "input": "0xe4849b320000000000000000000000000000000000000000000000001171cbfccd7fd752",
        "nonce": "0xfe9",
        "chainId": "0xaa36a7"
      },
      "additionalContracts": [],
      "isFixedGasLimit": false
    }
  ],
  "receipts": [
    {
      "status": "0x1",
      "cumulativeGasUsed": "0xafb4b0",
      "logs": [
        {
          "address": "0x8aafd3ede9adb0ff97c7aebce82a919afb1c8764",
          "topics": [
            "0xddf252ad1be2c89b69c2b068fc378daa952ba7f163c4a11628f55a4df523b3ef",
            "0x000000000000000000000000c77f7fed3b5cc8249adc428c5f44c9063b9734b4",
            "0x0000000000000000000000000000000000000000000000000000000000000000"
          ],
          "data": "0x000000000000000000000000000000000000000000000000114e12091dc67f95",
          "blockHash": "0x76f729a5214639bace8d2ebc487703cb991b02e39b2948448aa8d8c4ff86117f",
          "blockNumber": "0x73165b",
          "transactionHash": "0xec1281bdb659c3d00487a09dd9f2fcd79f6dcc12bb2663fa77ed4586e9ce082a",
          "transactionIndex": "0x71",
          "logIndex": "0xc0",
          "removed": false
        },
        {
          "address": "0x8aafd3ede9adb0ff97c7aebce82a919afb1c8764",
          "topics": [
            "0xddf252ad1be2c89b69c2b068fc378daa952ba7f163c4a11628f55a4df523b3ef",
            "0x000000000000000000000000c77f7fed3b5cc8249adc428c5f44c9063b9734b4",
            "0x000000000000000000000000c77f7fed3b5cc8249adc428c5f44c9063b9734b4"
          ],
          "data": "0x0000000000000000000000000000000000000000000000000023b9f3afb957bd",
          "blockHash": "0x76f729a5214639bace8d2ebc487703cb991b02e39b2948448aa8d8c4ff86117f",
          "blockNumber": "0x73165b",
          "transactionHash": "0xec1281bdb659c3d00487a09dd9f2fcd79f6dcc12bb2663fa77ed4586e9ce082a",
          "transactionIndex": "0x71",
          "logIndex": "0xc1",
          "removed": false
        },
        {
          "address": "0x8aafd3ede9adb0ff97c7aebce82a919afb1c8764",
          "topics": [
            "0x4afcb4a87cdbd9974efdb92ee48bc8d7cd0ae4bf217004db3d080cbaee652ca7"
          ],
          "data": "0x00000000000000000000000000000000000000000000000000000000679008f00000000000000000000000000000000000000000000000000004e37f07b284d8000000000000000000000000000000000000000000000000000625241c72eee8",
          "blockHash": "0x76f729a5214639bace8d2ebc487703cb991b02e39b2948448aa8d8c4ff86117f",
          "blockNumber": "0x73165b",
          "transactionHash": "0xec1281bdb659c3d00487a09dd9f2fcd79f6dcc12bb2663fa77ed4586e9ce082a",
          "transactionIndex": "0x71",
          "logIndex": "0xc2",
          "removed": false
        }
      ],
      "logsBloom": "0x00000000000000000000000000000000000000000600000000000000000000000000000000000000000000000000000000000000000000004000000000000000000000000000004000000008000000000000000000000000000000000000000000000000020000000000000000000800020000000000000000000010000000000000000000000000000000000000000000000000000000000000010000000000000000000000000000000000000000004000000000000000000000000000000000000002000000800000000000000000000000000000080000000000000020000000000000000000000000000000000000000000000000000000000000000000",
      "type": "0x2",
      "transactionHash": "0xec1281bdb659c3d00487a09dd9f2fcd79f6dcc12bb2663fa77ed4586e9ce082a",
      "transactionIndex": "0x71",
      "blockHash": "0x76f729a5214639bace8d2ebc487703cb991b02e39b2948448aa8d8c4ff86117f",
      "blockNumber": "0x73165b",
      "gasUsed": "0xfd3f",
      "effectiveGasPrice": "0x4d86cf08",
      "from": "0xc77f7fed3b5cc8249adc428c5f44c9063b9734b4",
      "to": "0x8aafd3ede9adb0ff97c7aebce82a919afb1c8764",
      "contractAddress": null
    }
  ],
  "libraries": [],
  "pending": [],
  "returns": {},
  "timestamp": 1737492721,
  "chain": 11155111,
  "commit": "1d2fb70"
}