{
  "transactions": [
    {
      "hash": "0x888088cf98c030906631b1fd6672d9b1ddadae1c5048cc9f500a5446ee911af8",
      "transactionType": "CALL",
      "contractName": null,
      "contractAddress": "0xbf4a322f1496e5c3d34a9bcdb4c60567b38c7de2",
      "function": "buy(address)",
      "arguments": [
        "0xC77f7fed3b5Cc8249aDc428c5F44C9063B9734b4"
      ],
      "transaction": {
        "from": "0xc77f7fed3b5cc8249adc428c5f44c9063b9734b4",
        "to": "0xbf4a322f1496e5c3d34a9bcdb4c60567b38c7de2",
        "gas": "0x1b309",
        "value": "0xde0b6b3a7640000",
        "input": "0xf088d547000000000000000000000000c77f7fed3b5cc8249adc428c5f44c9063b9734b4",
        "nonce": "0xbf8",
        "chainId": "0xaa36a7"
      },
      "additionalContracts": [],
      "isFixedGasLimit": false
    }
  ],
  "receipts": [
    {
      "status": "0x1",
      "cumulativeGasUsed": "0x8b8f95",
      "logs": [
        {
          "address": "0xbf4a322f1496e5c3d34a9bcdb4c60567b38c7de2",
          "topics": [
            "0xddf252ad1be2c89b69c2b068fc378daa952ba7f163c4a11628f55a4df523b3ef",
            "0x0000000000000000000000000000000000000000000000000000000000000000",
            "0x000000000000000000000000c77f7fed3b5cc8249adc428c5f44c9063b9734b4"
          ],
          "data": "0x000000000000000000000000000000000000000000000034fcdaa046c6488576",
          "blockHash": "0x12cddc7a878853df23b2e5c0b1d1e965bc8ee0a41758f69a1ea9e604fe805a98",
          "blockNumber": "0x725c20",
          "transactionHash": "0x888088cf98c030906631b1fd6672d9b1ddadae1c5048cc9f500a5446ee911af8",
          "transactionIndex": "0x44",
          "logIndex": "0x59",
          "removed": false
        },
        {
          "address": "0xbf4a322f1496e5c3d34a9bcdb4c60567b38c7de2",
          "topics": [
            "0xddf252ad1be2c89b69c2b068fc378daa952ba7f163c4a11628f55a4df523b3ef",
            "0x0000000000000000000000000000000000000000000000000000000000000000",
            "0x000000000000000000000000c77f7fed3b5cc8249adc428c5f44c9063b9734b4"
          ],
          "data": "0x00000000000000000000000000000000000000000000000029259263a06787b3",
          "blockHash": "0x12cddc7a878853df23b2e5c0b1d1e965bc8ee0a41758f69a1ea9e604fe805a98",
          "blockNumber": "0x725c20",
          "transactionHash": "0x888088cf98c030906631b1fd6672d9b1ddadae1c5048cc9f500a5446ee911af8",
          "transactionIndex": "0x44",
          "logIndex": "0x5a",
          "removed": false
        },
        {
          "address": "0xbf4a322f1496e5c3d34a9bcdb4c60567b38c7de2",
          "topics": [
            "0x4afcb4a87cdbd9974efdb92ee48bc8d7cd0ae4bf217004db3d080cbaee652ca7"
          ],
          "data": "0x00000000000000000000000000000000000000000000000000000000678743dc0000000000000000000000000000000000000000000000000003992e3a9eb3e50000000000000000000000000000000000000000000000000de0b6b3a7640000",
          "blockHash": "0x12cddc7a878853df23b2e5c0b1d1e965bc8ee0a41758f69a1ea9e604fe805a98",
          "blockNumber": "0x725c20",
          "transactionHash": "0x888088cf98c030906631b1fd6672d9b1ddadae1c5048cc9f500a5446ee911af8",
          "transactionIndex": "0x44",
          "logIndex": "0x5b",
          "removed": false
        }
      ],
      "logsBloom": "0x00000000000000000000000000000000000000000000000000000000000000000000000000000000000000000000000000000000000000004000000000000000000000000000000000000008000000000000001000000000000000000000000000000000020000000000000000000800020000000000000000000010000000000000000000000000000000000000000000000000000008000000010000000000000000000000000000000000000000004000000000000000000000000000000000000002000000800000000000001000000000000000080000000000000020000000000000000000000000000000000000000000000000000000000000000000",
      "type": "0x2",
      "transactionHash": "0x888088cf98c030906631b1fd6672d9b1ddadae1c5048cc9f500a5446ee911af8",
      "transactionIndex": "0x44",
      "blockHash": "0x12cddc7a878853df23b2e5c0b1d1e965bc8ee0a41758f69a1ea9e604fe805a98",
      "blockNumber": "0x725c20",
      "gasUsed": "0x13af6",
      "effectiveGasPrice": "0xe95e94f3",
      "from": "0xc77f7fed3b5cc8249adc428c5f44c9063b9734b4",
      "to": "0xbf4a322f1496e5c3d34a9bcdb4c60567b38c7de2",
      "contractAddress": null
    }
  ],
  "libraries": [],
  "pending": [],
  "returns": {},
  "timestamp": 1736917981,
  "chain": 11155111,
  "commit": "51a374b"
}