{
  "transactions": [
    {
      "hash": "0x3b0b713268ac60f0b0bfbdf4a7cfa9e3db61e2c3473f7855e7ca0e3b5cd4ccfe",
      "transactionType": "CALL",
      "contractName": null,
      "contractAddress": "0x8aafd3ede9adb0ff97c7aebce82a919afb1c8764",
      "function": "sell(uint256)",
      "arguments": [
        "22622835414"
      ],
      "transaction": {
        "from": "0xc77f7fed3b5cc8249adc428c5f44c9063b9734b4",
        "to": "0x8aafd3ede9adb0ff97c7aebce82a919afb1c8764",
        "gas": "0x1722a",
        "value": "0x0",
        "input": "0xe4849b3200000000000000000000000000000000000000000000000000000005446d12d6",
        "nonce": "0x117c",
        "chainId": "0xaa36a7"
      },
      "additionalContracts": [],
      "isFixedGasLimit": false
    }
  ],
  "receipts": [
    {
      "status": "0x1",
      "cumulativeGasUsed": "0x938df7",
      "logs": [
        {
          "address": "0x8aafd3ede9adb0ff97c7aebce82a919afb1c8764",
          "topics": [
            "0xddf252ad1be2c89b69c2b068fc378daa952ba7f163c4a11628f55a4df523b3ef",
            "0x000000000000000000000000c77f7fed3b5cc8249adc428c5f44c9063b9734b4",
            "0x0000000000000000000000000000000000000000000000000000000000000000"
          ],
          "data": "0x0000000000000000000000000000000000000000000000000000000539a37f3b",
          "blockHash": "0xcf8985ceaf4ecd8bda3cae7db2763f7f804075c2290803096ab3a36393b130b4",
          "blockNumber": "0x73183d",
          "transactionHash": "0x3b0b713268ac60f0b0bfbdf4a7cfa9e3db61e2c3473f7855e7ca0e3b5cd4ccfe",
          "transactionIndex": "0x85",
          "logIndex": "0x81",
          "removed": false
        },
        {
          "address": "0x8aafd3ede9adb0ff97c7aebce82a919afb1c8764",
          "topics": [
            "0xddf252ad1be2c89b69c2b068fc378daa952ba7f163c4a11628f55a4df523b3ef",
            "0x000000000000000000000000c77f7fed3b5cc8249adc428c5f44c9063b9734b4",
            "0x000000000000000000000000c77f7fed3b5cc8249adc428c5f44c9063b9734b4"
          ],
          "data": "0x000000000000000000000000000000000000000000000000000000000ac9939b",
          "blockHash": "0xcf8985ceaf4ecd8bda3cae7db2763f7f804075c2290803096ab3a36393b130b4",
          "blockNumber": "0x73183d",
          "transactionHash": "0x3b0b713268ac60f0b0bfbdf4a7cfa9e3db61e2c3473f7855e7ca0e3b5cd4ccfe",
          "transactionIndex": "0x85",
          "logIndex": "0x82",
          "removed": false
        },
        {
          "address": "0x8aafd3ede9adb0ff97c7aebce82a919afb1c8764",
          "topics": [
            "0x4afcb4a87cdbd9974efdb92ee48bc8d7cd0ae4bf217004db3d080cbaee652ca7"
          ],
          "data": "0x0000000000000000000000000000000000000000000000000000000067901fa000000000000000000000000000000000000000000000000000051d974b7c88490000000000000000000000000000000000000000000000000000000001f10d8a",
          "blockHash": "0xcf8985ceaf4ecd8bda3cae7db2763f7f804075c2290803096ab3a36393b130b4",
          "blockNumber": "0x73183d",
          "transactionHash": "0x3b0b713268ac60f0b0bfbdf4a7cfa9e3db61e2c3473f7855e7ca0e3b5cd4ccfe",
          "transactionIndex": "0x85",
          "logIndex": "0x83",
          "removed": false
        }
      ],
      "logsBloom": "0x00000000000000000000000000000000000000000600000000000000000000000000000000000000000000000000000000000000000000004000000000000000000000000000004000000008000000000000000000000000000000000000000000000000020000000000000000000800020000000000000000000010000000000000000000000000000000000000000000000000000000000000010000000000000000000000000000000000000000004000000000000000000000000000000000000002000000800000000000000000000000000000080000000000000020000000000000000000000000000000000000000000000000000000000000000000",
      "type": "0x2",
      "transactionHash": "0x3b0b713268ac60f0b0bfbdf4a7cfa9e3db61e2c3473f7855e7ca0e3b5cd4ccfe",
      "transactionIndex": "0x85",
      "blockHash": "0xcf8985ceaf4ecd8bda3cae7db2763f7f804075c2290803096ab3a36393b130b4",
      "blockNumber": "0x73183d",
      "gasUsed": "0xfd1b",
      "effectiveGasPrice": "0x46caa1b1",
      "from": "0xc77f7fed3b5cc8249adc428c5f44c9063b9734b4",
      "to": "0x8aafd3ede9adb0ff97c7aebce82a919afb1c8764",
      "contractAddress": null
    }
  ],
  "libraries": [],
  "pending": [],
  "returns": {},
  "timestamp": 1737498529,
  "chain": 11155111,
  "commit": "1d2fb70"
}