{
  "transactions": [
    {
      "hash": "0x333402623ba6fba6b2e18e7bb49a205dcd9c636a37588bce6fdfaefc53279a0a",
      "transactionType": "CALL",
      "contractName": null,
      "contractAddress": "0x8aafd3ede9adb0ff97c7aebce82a919afb1c8764",
      "function": "sell(uint256)",
      "arguments": [
        "53747430"
      ],
      "transaction": {
        "from": "0xc77f7fed3b5cc8249adc428c5f44c9063b9734b4",
        "to": "0x8aafd3ede9adb0ff97c7aebce82a919afb1c8764",
        "gas": "0x15d88",
        "value": "0x0",
        "input": "0xe4849b320000000000000000000000000000000000000000000000000000000003341ee6",
        "nonce": "0x1517",
        "chainId": "0xaa36a7"
      },
      "additionalContracts": [],
      "isFixedGasLimit": false
    }
  ],
  "receipts": [
    {
      "status": "0x1",
      "cumulativeGasUsed": "0x962b29",
      "logs": [
        {
          "address": "0x8aafd3ede9adb0ff97c7aebce82a919afb1c8764",
          "topics": [
            "0xddf252ad1be2c89b69c2b068fc378daa952ba7f163c4a11628f55a4df523b3ef",
            "0x000000000000000000000000c77f7fed3b5cc8249adc428c5f44c9063b9734b4",
            "0x0000000000000000000000000000000000000000000000000000000000000000"
          ],
          "data": "0x00000000000000000000000000000000000000000000000000000000032d8f4b",
          "blockHash": "0xd4fec27b5bb0be50ddcef6c562aa1724698a8d2a18a4f98fe43ed1a684d62639",
          "blockNumber": "0x731c79",
          "transactionHash": "0x333402623ba6fba6b2e18e7bb49a205dcd9c636a37588bce6fdfaefc53279a0a",
          "transactionIndex": "0x63",
          "logIndex": "0x8f",
          "removed": false
        },
        {
          "address": "0x8aafd3ede9adb0ff97c7aebce82a919afb1c8764",
          "topics": [
            "0xddf252ad1be2c89b69c2b068fc378daa952ba7f163c4a11628f55a4df523b3ef",
            "0x000000000000000000000000c77f7fed3b5cc8249adc428c5f44c9063b9734b4",
            "0x000000000000000000000000c77f7fed3b5cc8249adc428c5f44c9063b9734b4"
          ],
          "data": "0x0000000000000000000000000000000000000000000000000000000000068f9b",
          "blockHash": "0xd4fec27b5bb0be50ddcef6c562aa1724698a8d2a18a4f98fe43ed1a684d62639",
          "blockNumber": "0x731c79",
          "transactionHash": "0x333402623ba6fba6b2e18e7bb49a205dcd9c636a37588bce6fdfaefc53279a0a",
          "transactionIndex": "0x63",
          "logIndex": "0x90",
          "removed": false
        },
        {
          "address": "0x8aafd3ede9adb0ff97c7aebce82a919afb1c8764",
          "topics": [
            "0x4afcb4a87cdbd9974efdb92ee48bc8d7cd0ae4bf217004db3d080cbaee652ca7"
          ],
          "data": "0x000000000000000000000000000000000000000000000000000000006790528800000000000000000000000000000000000000000000000000114f6e85997dc6000000000000000000000000000000000000000000000000000000000003fef7",
          "blockHash": "0xd4fec27b5bb0be50ddcef6c562aa1724698a8d2a18a4f98fe43ed1a684d62639",
          "blockNumber": "0x731c79",
          "transactionHash": "0x333402623ba6fba6b2e18e7bb49a205dcd9c636a37588bce6fdfaefc53279a0a",
          "transactionIndex": "0x63",
          "logIndex": "0x91",
          "removed": false
        }
      ],
      "logsBloom": "0x00000000000000000000000000000000000000000600000000000000000000000000000000000000000000000000000000000000000000004000000000000000000000000000004000000008000000000000000000000000000000000000000000000000020000000000000000000800020000000000000000000010000000000000000000000000000000000000000000000000000000000000010000000000000000000000000000000000000000004000000000000000000000000000000000000002000000800000000000000000000000000000080000000000000020000000000000000000000000000000000000000000000000000000000000000000",
      "type": "0x2",
      "transactionHash": "0x333402623ba6fba6b2e18e7bb49a205dcd9c636a37588bce6fdfaefc53279a0a",
      "transactionIndex": "0x63",
      "blockHash": "0xd4fec27b5bb0be50ddcef6c562aa1724698a8d2a18a4f98fe43ed1a684d62639",
      "blockNumber": "0x731c79",
      "gasUsed": "0xfd0f",
      "effectiveGasPrice": "0x169b783e8",
      "from": "0xc77f7fed3b5cc8249adc428c5f44c9063b9734b4",
      "to": "0x8aafd3ede9adb0ff97c7aebce82a919afb1c8764",
      "contractAddress": null
    }
  ],
  "libraries": [],
  "pending": [],
  "returns": {},
  "timestamp": 1737511562,
  "chain": 11155111,
  "commit": "1d2fb70"
}