{
  "transactions": [
    {
      "hash": "0x3b6410f6b0257be330e6d169637e66e788f2ac1b13b776371957a0e5ba11a14f",
      "transactionType": "CALL",
      "contractName": null,
      "contractAddress": "0x5eb9cc76c3506942c1c0ead70e877dd5e4f00cb0",
      "function": "sell(uint256)",
      "arguments": [
        "989107966808994098419"
      ],
      "transaction": {
        "from": "0xc77f7fed3b5cc8249adc428c5f44c9063b9734b4",
        "to": "0x5eb9cc76c3506942c1c0ead70e877dd5e4f00cb0",
        "gas": "0x16fec",
        "value": "0x0",
        "input": "0xe4849b320000000000000000000000000000000000000000000000359ea1674b4ef42cf3",
        "nonce": "0x3cf",
        "chainId": "0xaa36a7"
      },
      "additionalContracts": [],
      "isFixedGasLimit": false
    }
  ],
  "receipts": [
    {
      "status": "0x1",
      "cumulativeGasUsed": "0xb7a5ce",
      "logs": [
        {
          "address": "0x5eb9cc76c3506942c1c0ead70e877dd5e4f00cb0",
          "topics": [
            "0xddf252ad1be2c89b69c2b068fc378daa952ba7f163c4a11628f55a4df523b3ef",
            "0x000000000000000000000000c77f7fed3b5cc8249adc428c5f44c9063b9734b4",
            "0x0000000000000000000000000000000000000000000000000000000000000000"
          ],
          "data": "0x0000000000000000000000000000000000000000000000359ea1674b4ef42cf3",
          "blockHash": "0x8879cd9c1a5f6a2dd70f8aeffb6d26fc3da9c3e14c3865edca299d9d888f7a47",
          "blockNumber": "0x724fd2",
          "transactionHash": "0x3b6410f6b0257be330e6d169637e66e788f2ac1b13b776371957a0e5ba11a14f",
          "transactionIndex": "0x6e",
          "logIndex": "0xa6",
          "removed": false
        },
        {
          "address": "0x5eb9cc76c3506942c1c0ead70e877dd5e4f00cb0",
          "topics": [
            "0x4afcb4a87cdbd9974efdb92ee48bc8d7cd0ae4bf217004db3d080cbaee652ca7"
          ],
          "data": "0x000000000000000000000000000000000000000000000000000000006786afa40000000000000000000000000000000000000000000000000003911396deea1c0000000000000000000000000000000000000000000000000dc7db1331f59fcb",
          "blockHash": "0x8879cd9c1a5f6a2dd70f8aeffb6d26fc3da9c3e14c3865edca299d9d888f7a47",
          "blockNumber": "0x724fd2",
          "transactionHash": "0x3b6410f6b0257be330e6d169637e66e788f2ac1b13b776371957a0e5ba11a14f",
          "transactionIndex": "0x6e",
          "logIndex": "0xa7",
          "removed": false
        }
      ],
      "logsBloom": "0x00000000000000000000000000000000000000000000000000000000000000000000000000000000000000000000000000000000000000004000000000000000000000000000000000000008000000000000000000000000000000000000000000000000020000000000000004000800020000000000000000000010000000000000000000000000000000000000000000000000000000000000010000000000000000000000000000000000000000004000000000000000000000000000020000000002000000800000008000000000000000000000080000000000000020000000000000000000000000000000000000000000000000000000000000000000",
      "type": "0x2",
      "transactionHash": "0x3b6410f6b0257be330e6d169637e66e788f2ac1b13b776371957a0e5ba11a14f",
      "transactionIndex": "0x6e",
      "blockHash": "0x8879cd9c1a5f6a2dd70f8aeffb6d26fc3da9c3e14c3865edca299d9d888f7a47",
      "blockNumber": "0x724fd2",
      "gasUsed": "0xfb93",
      "effectiveGasPrice": "0x3cb38f5fa",
      "from": "0xc77f7fed3b5cc8249adc428c5f44c9063b9734b4",
      "to": "0x5eb9cc76c3506942c1c0ead70e877dd5e4f00cb0",
      "contractAddress": null
    }
  ],
  "libraries": [],
  "pending": [],
  "returns": {},
  "timestamp": 1736880038,
  "chain": 11155111,
  "commit": "51a374b"
}