{
  "transactions": [
    {
      "hash": "0x3abe26bc5e58bfbb27ef9a462986f391834dc1b3f8a1cd27c016993251d36d53",
      "transactionType": "CALL",
      "contractName": null,
      "contractAddress": "0xbf4a322f1496e5c3d34a9bcdb4c60567b38c7de2",
      "function": "sell(uint256)",
      "arguments": [
        "974644650968144502760"
      ],
      "transaction": {
        "from": "0xc77f7fed3b5cc8249adc428c5f44c9063b9734b4",
        "to": "0xbf4a322f1496e5c3d34a9bcdb4c60567b38c7de2",
        "gas": "0x16fea",
        "value": "0x0",
        "input": "0xe4849b32000000000000000000000000000000000000000000000034d5e9622ab6d55fe8",
        "nonce": "0xda9",
        "chainId": "0xaa36a7"
      },
      "additionalContracts": [],
      "isFixedGasLimit": false
    }
  ],
  "receipts": [
    {
      "status": "0x1",
      "cumulativeGasUsed": "0x101b3a5",
      "logs": [
        {
          "address": "0xbf4a322f1496e5c3d34a9bcdb4c60567b38c7de2",
          "topics": [
            "0xddf252ad1be2c89b69c2b068fc378daa952ba7f163c4a11628f55a4df523b3ef",
            "0x000000000000000000000000c77f7fed3b5cc8249adc428c5f44c9063b9734b4",
            "0x0000000000000000000000000000000000000000000000000000000000000000"
          ],
          "data": "0x000000000000000000000000000000000000000000000034d5e9622ab6d55fe8",
          "blockHash": "0x99288eeb5dfddc91bb0b2a031cc4aaed8cb4a198f37d8c1826f384992136a484",
          "blockNumber": "0x72667f",
          "transactionHash": "0x3abe26bc5e58bfbb27ef9a462986f391834dc1b3f8a1cd27c016993251d36d53",
          "transactionIndex": "0x88",
          "logIndex": "0xd1",
          "removed": false
        },
        {
          "address": "0xbf4a322f1496e5c3d34a9bcdb4c60567b38c7de2",
          "topics": [
            "0x4afcb4a87cdbd9974efdb92ee48bc8d7cd0ae4bf217004db3d080cbaee652ca7"
          ],
          "data": "0x000000000000000000000000000000000000000000000000000000006787c0d400000000000000000000000000000000000000000000000000039ea6b16f2a6a0000000000000000000000000000000000000000000000000dc7e3d59d67fd5d",
          "blockHash": "0x99288eeb5dfddc91bb0b2a031cc4aaed8cb4a198f37d8c1826f384992136a484",
          "blockNumber": "0x72667f",
          "transactionHash": "0x3abe26bc5e58bfbb27ef9a462986f391834dc1b3f8a1cd27c016993251d36d53",
          "transactionIndex": "0x88",
          "logIndex": "0xd2",
          "removed": false
        }
      ],
      "logsBloom": "0x00000000000000000000000000000000000000000000000000000000000000000000000000000000000000000000000000000000000000004000000000000000000000000000000000000008000000000000001000000000000000000000000000000000020000000000000000000800020000000000000000000010000000000000000000000000000000000000000000000000000008000000010000000000000000000000000000000000000000004000000000000000000000000000000000000002000000800000000000001000000000000000080000000000000020000000000000000000000000000000000000000000000000000000000000000000",
      "type": "0x2",
      "transactionHash": "0x3abe26bc5e58bfbb27ef9a462986f391834dc1b3f8a1cd27c016993251d36d53",
      "transactionIndex": "0x88",
      "blockHash": "0x99288eeb5dfddc91bb0b2a031cc4aaed8cb4a198f37d8c1826f384992136a484",
      "blockNumber": "0x72667f",
      "gasUsed": "0xfb91",
      "effectiveGasPrice": "0x89f82971",
      "from": "0xc77f7fed3b5cc8249adc428c5f44c9063b9734b4",
      "to": "0xbf4a322f1496e5c3d34a9bcdb4c60567b38c7de2",
      "contractAddress": null
    }
  ],
  "libraries": [],
  "pending": [],
  "returns": {},
  "timestamp": 1736949974,
  "chain": 11155111,
  "commit": "51a374b"
}