{
  "transactions": [
    {
      "hash": "0x1794305eadeba95621b9f714d9e5e44c5ddd8ae3bf707add498f116a39f7af69",
      "transactionType": "CALL",
      "contractName": null,
      "contractAddress": "0x8aafd3ede9adb0ff97c7aebce82a919afb1c8764",
      "function": "sell(uint256)",
      "arguments": [
        "405595371766475"
      ],
      "transaction": {
        "from": "0xc77f7fed3b5cc8249adc428c5f44c9063b9734b4",
        "to": "0x8aafd3ede9adb0ff97c7aebce82a919afb1c8764",
        "gas": "0x1724d",
        "value": "0x0",
        "input": "0xe4849b32000000000000000000000000000000000000000000000000000170e3080e82cb",
        "nonce": "0xf1a",
        "chainId": "0xaa36a7"
      },
      "additionalContracts": [],
      "isFixedGasLimit": false
    }
  ],
  "receipts": [
    {
      "status": "0x1",
      "cumulativeGasUsed": "0xa5b4be",
      "logs": [
        {
          "address": "0x8aafd3ede9adb0ff97c7aebce82a919afb1c8764",
          "topics": [
            "0xddf252ad1be2c89b69c2b068fc378daa952ba7f163c4a11628f55a4df523b3ef",
            "0x000000000000000000000000c77f7fed3b5cc8249adc428c5f44c9063b9734b4",
            "0x0000000000000000000000000000000000000000000000000000000000000000"
          ],
          "data": "0x00000000000000000000000000000000000000000000000000016def8d1cbb18",
          "blockHash": "0xf8b15ceb25d7d3956f46ce1ba22be7d72f72d0f67b40ee745cde890ceff1c123",
          "blockNumber": "0x73156b",
          "transactionHash": "0x1794305eadeba95621b9f714d9e5e44c5ddd8ae3bf707add498f116a39f7af69",
          "transactionIndex": "0x75",
          "logIndex": "0xd3",
          "removed": false
        },
        {
          "address": "0x8aafd3ede9adb0ff97c7aebce82a919afb1c8764",
          "topics": [
            "0xddf252ad1be2c89b69c2b068fc378daa952ba7f163c4a11628f55a4df523b3ef",
            "0x000000000000000000000000c77f7fed3b5cc8249adc428c5f44c9063b9734b4",
            "0x000000000000000000000000c77f7fed3b5cc8249adc428c5f44c9063b9734b4"
          ],
          "data": "0x000000000000000000000000000000000000000000000000000002f37af1c7b3",
          "blockHash": "0xf8b15ceb25d7d3956f46ce1ba22be7d72f72d0f67b40ee745cde890ceff1c123",
          "blockNumber": "0x73156b",
          "transactionHash": "0x1794305eadeba95621b9f714d9e5e44c5ddd8ae3bf707add498f116a39f7af69",
          "transactionIndex": "0x75",
          "logIndex": "0xd4",
          "removed": false
        },
        {
          "address": "0x8aafd3ede9adb0ff97c7aebce82a919afb1c8764",
          "topics": [
            "0x4afcb4a87cdbd9974efdb92ee48bc8d7cd0ae4bf217004db3d080cbaee652ca7"
          ],
          "data": "0x00000000000000000000000000000000000000000000000000000000678ffdb00000000000000000000000000000000000000000000000000004bee3f24022a50000000000000000000000000000000000000000000000000000007e251f1c6c",
          "blockHash": "0xf8b15ceb25d7d3956f46ce1ba22be7d72f72d0f67b40ee745cde890ceff1c123",
          "blockNumber": "0x73156b",
          "transactionHash": "0x1794305eadeba95621b9f714d9e5e44c5ddd8ae3bf707add498f116a39f7af69",
          "transactionIndex": "0x75",
          "logIndex": "0xd5",
          "removed": false
        }
      ],
      "logsBloom": "0x00000000000000000000000000000000000000000600000000000000000000000000000000000000000000000000000000000000000000004000000000000000000000000000004000000008000000000000000000000000000000000000000000000000020000000000000000000800020000000000000000000010000000000000000000000000000000000000000000000000000000000000010000000000000000000000000000000000000000004000000000000000000000000000000000000002000000800000000000000000000000000000080000000000000020000000000000000000000000000000000000000000000000000000000000000000",
      "type": "0x2",
      "transactionHash": "0x1794305eadeba95621b9f714d9e5e44c5ddd8ae3bf707add498f116a39f7af69",
      "transactionIndex": "0x75",
      "blockHash": "0xf8b15ceb25d7d3956f46ce1ba22be7d72f72d0f67b40ee745cde890ceff1c123",
      "blockNumber": "0x73156b",
      "gasUsed": "0xfd33",
      "effectiveGasPrice": "0x8a1eb19b",
      "from": "0xc77f7fed3b5cc8249adc428c5f44c9063b9734b4",
      "to": "0x8aafd3ede9adb0ff97c7aebce82a919afb1c8764",
      "contractAddress": null
    }
  ],
  "libraries": [],
  "pending": [],
  "returns": {},
  "timestamp": 1737489842,
  "chain": 11155111,
  "commit": "1d2fb70"
}