{
  "transactions": [
    {
      "hash": "0x2d3954fe2a9f1a15e61388ba85f5234c3c50ab447acd64357105df3e65d62c7d",
      "transactionType": "CALL",
      "contractName": null,
      "contractAddress": "0x270e88f8683660553e8ba4eb2ad7c91a1710d769",
      "function": "buy(address)",
      "arguments": [
        "0xC77f7fed3b5Cc8249aDc428c5F44C9063B9734b4"
      ],
      "transaction": {
        "from": "0xc77f7fed3b5cc8249adc428c5f44c9063b9734b4",
        "to": "0x270e88f8683660553e8ba4eb2ad7c91a1710d769",
        "gas": "0x1b30c",
        "value": "0xde0b6b3a7640000",
        "input": "0xf088d547000000000000000000000000c77f7fed3b5cc8249adc428c5f44c9063b9734b4",
        "nonce": "0x731",
        "chainId": "0xaa36a7"
      },
      "additionalContracts": [],
      "isFixedGasLimit": false
    }
  ],
  "receipts": [
    {
      "status": "0x1",
      "cumulativeGasUsed": "0xa9341c",
      "logs": [
        {
          "address": "0x270e88f8683660553e8ba4eb2ad7c91a1710d769",
          "topics": [
            "0xddf252ad1be2c89b69c2b068fc378daa952ba7f163c4a11628f55a4df523b3ef",
            "0x0000000000000000000000000000000000000000000000000000000000000000",
            "0x000000000000000000000000c77f7fed3b5cc8249adc428c5f44c9063b9734b4"
          ],
          "data": "0x00000000000000000000000000000000000000000000002809d9658c53530f28",
          "blockHash": "0xff5b952dc546d0629878fc4e405dc5a99185b3309f4c8cf90642b581e974d0a0",
          "blockNumber": "0x725452",
          "transactionHash": "0x2d3954fe2a9f1a15e61388ba85f5234c3c50ab447acd64357105df3e65d62c7d",
          "transactionIndex": "0x39",
          "logIndex": "0x67",
          "removed": false
        },
        {
          "address": "0x270e88f8683660553e8ba4eb2ad7c91a1710d769",
          "topics": [
            "0xddf252ad1be2c89b69c2b068fc378daa952ba7f163c4a11628f55a4df523b3ef",
            "0x0000000000000000000000000000000000000000000000000000000000000000",
            "0x000000000000000000000000c77f7fed3b5cc8249adc428c5f44c9063b9734b4"
          ],
          "data": "0x0000000000000000000000000000000000000000000000001f175b8709b00935",
          "blockHash": "0xff5b952dc546d0629878fc4e405dc5a99185b3309f4c8cf90642b581e974d0a0",
          "blockNumber": "0x725452",
          "transactionHash": "0x2d3954fe2a9f1a15e61388ba85f5234c3c50ab447acd64357105df3e65d62c7d",
          "transactionIndex": "0x39",
          "logIndex": "0x68",
          "removed": false
        },
        {
          "address": "0x270e88f8683660553e8ba4eb2ad7c91a1710d769",
          "topics": [
            "0x4afcb4a87cdbd9974efdb92ee48bc8d7cd0ae4bf217004db3d080cbaee652ca7"
          ],
          "data": "0x000000000000000000000000000000000000000000000000000000006786e5e00000000000000000000000000000000000000000000000000004c3338f96a2ac0000000000000000000000000000000000000000000000000de0b6b3a7640000",
          "blockHash": "0xff5b952dc546d0629878fc4e405dc5a99185b3309f4c8cf90642b581e974d0a0",
          "blockNumber": "0x725452",
          "transactionHash": "0x2d3954fe2a9f1a15e61388ba85f5234c3c50ab447acd64357105df3e65d62c7d",
          "transactionIndex": "0x39",
          "logIndex": "0x69",
          "removed": false
        }
      ],
      "logsBloom": "0x00000000000000000000000000000000000000000000000000000000000000000000000000000000000000000000000020000000000000004000000000000000000000000000000000000008000000000000000000000000000000000000000000000000020000000000000000000800020000000000000000000010000000000000000000010000000000000000000000000000000000000000010000000000000000000000000000000000000000004000000000000000000000000000000000000002000000800000000000000000000000000000080000008000000020000000000000000000000000000000000000000000000000000000000000000000",
      "type": "0x2",
      "transactionHash": "0x2d3954fe2a9f1a15e61388ba85f5234c3c50ab447acd64357105df3e65d62c7d",
      "transactionIndex": "0x39",
      "blockHash": "0xff5b952dc546d0629878fc4e405dc5a99185b3309f4c8cf90642b581e974d0a0",
      "blockNumber": "0x725452",
      "gasUsed": "0x13af8",
      "effectiveGasPrice": "0x147876970",
      "from": "0xc77f7fed3b5cc8249adc428c5f44c9063b9734b4",
      "to": "0x270e88f8683660553e8ba4eb2ad7c91a1710d769",
      "contractAddress": null
    }
  ],
  "libraries": [],
  "pending": [],
  "returns": {},
  "timestamp": 1736893921,
  "chain": 11155111,
  "commit": "51a374b"
}