{
  "transactions": [
    {
      "hash": "0xceab003c0ac6f0145277b966da6220febcc674a5890e79701c64cb54c8512a19",
      "transactionType": "CALL",
      "contractName": null,
      "contractAddress": "0xbf4a322f1496e5c3d34a9bcdb4c60567b38c7de2",
      "function": "buy(address)",
      "arguments": [
        "0xC77f7fed3b5Cc8249aDc428c5F44C9063B9734b4"
      ],
      "transaction": {
        "from": "0xc77f7fed3b5cc8249adc428c5f44c9063b9734b4",
        "to": "0xbf4a322f1496e5c3d34a9bcdb4c60567b38c7de2",
        "gas": "0x1b309",
        "value": "0xde0b6b3a7640000",
        "input": "0xf088d547000000000000000000000000c77f7fed3b5cc8249adc428c5f44c9063b9734b4",
        "nonce": "0x902",
        "chainId": "0xaa36a7"
      },
      "additionalContracts": [],
      "isFixedGasLimit": false
    }
  ],
  "receipts": [
    {
      "status": "0x1",
      "cumulativeGasUsed": "0x13907ac",
      "logs": [
        {
          "address": "0xbf4a322f1496e5c3d34a9bcdb4c60567b38c7de2",
          "topics": [
            "0xddf252ad1be2c89b69c2b068fc378daa952ba7f163c4a11628f55a4df523b3ef",
            "0x0000000000000000000000000000000000000000000000000000000000000000",
            "0x000000000000000000000000c77f7fed3b5cc8249adc428c5f44c9063b9734b4"
          ],
          "data": "0x0000000000000000000000000000000000000000000000358b43aaa555a72d76",
          "blockHash": "0x1ee3ee73cb0f602f25418ed9ad2d2dbd293ec0cce50a8385b3f46dbb11277d6e",
          "blockNumber": "0x72587b",
          "transactionHash": "0xceab003c0ac6f0145277b966da6220febcc674a5890e79701c64cb54c8512a19",
          "transactionIndex": "0x3a",
          "logIndex": "0x89",
          "removed": false
        },
        {
          "address": "0xbf4a322f1496e5c3d34a9bcdb4c60567b38c7de2",
          "topics": [
            "0xddf252ad1be2c89b69c2b068fc378daa952ba7f163c4a11628f55a4df523b3ef",
            "0x0000000000000000000000000000000000000000000000000000000000000000",
            "0x000000000000000000000000c77f7fed3b5cc8249adc428c5f44c9063b9734b4"
          ],
          "data": "0x000000000000000000000000000000000000000000000000299428865059feb1",
          "blockHash": "0x1ee3ee73cb0f602f25418ed9ad2d2dbd293ec0cce50a8385b3f46dbb11277d6e",
          "blockNumber": "0x72587b",
          "transactionHash": "0xceab003c0ac6f0145277b966da6220febcc674a5890e79701c64cb54c8512a19",
          "transactionIndex": "0x3a",
          "logIndex": "0x8a",
          "removed": false
        },
        {
          "address": "0xbf4a322f1496e5c3d34a9bcdb4c60567b38c7de2",
          "topics": [
            "0x4afcb4a87cdbd9974efdb92ee48bc8d7cd0ae4bf217004db3d080cbaee652ca7"
          ],
          "data": "0x00000000000000000000000000000000000000000000000000000000678717f000000000000000000000000000000000000000000000000000038f9c335a63e30000000000000000000000000000000000000000000000000de0b6b3a7640000",
          "blockHash": "0x1ee3ee73cb0f602f25418ed9ad2d2dbd293ec0cce50a8385b3f46dbb11277d6e",
          "blockNumber": "0x72587b",
          "transactionHash": "0xceab003c0ac6f0145277b966da6220febcc674a5890e79701c64cb54c8512a19",
          "transactionIndex": "0x3a",
          "logIndex": "0x8b",
          "removed": false
        }
      ],
      "logsBloom": "0x00000000000000000000000000000000000000000000000000000000000000000000000000000000000000000000000000000000000000004000000000000000000000000000000000000008000000000000001000000000000000000000000000000000020000000000000000000800020000000000000000000010000000000000000000000000000000000000000000000000000008000000010000000000000000000000000000000000000000004000000000000000000000000000000000000002000000800000000000001000000000000000080000000000000020000000000000000000000000000000000000000000000000000000000000000000",
      "type": "0x2",
      "transactionHash": "0xceab003c0ac6f0145277b966da6220febcc674a5890e79701c64cb54c8512a19",
      "transactionIndex": "0x3a",
      "blockHash": "0x1ee3ee73cb0f602f25418ed9ad2d2dbd293ec0cce50a8385b3f46dbb11277d6e",
      "blockNumber": "0x72587b",
      "gasUsed": "0x13af6",
      "effectiveGasPrice": "0x2a96b736",
      "from": "0xc77f7fed3b5cc8249adc428c5f44c9063b9734b4",
      "to": "0xbf4a322f1496e5c3d34a9bcdb4c60567b38c7de2",
      "contractAddress": null
    }
  ],
  "libraries": [],
  "pending": [],
  "returns": {},
  "timestamp": 1736906737,
  "chain": 11155111,
  "commit": "51a374b"
}