{
  "transactions": [
    {
      "hash": "0x5621edc145814f842353705ff8ec06cfce64970f09410913db1d3077c666e3ad",
      "transactionType": "CALL",
      "contractName": null,
      "contractAddress": "0x8aafd3ede9adb0ff97c7aebce82a919afb1c8764",
      "function": "sell(uint256)",
      "arguments": [
        "2862824446602"
      ],
      "transaction": {
        "from": "0xc77f7fed3b5cc8249adc428c5f44c9063b9734b4",
        "to": "0x8aafd3ede9adb0ff97c7aebce82a919afb1c8764",
        "gas": "0x15daa",
        "value": "0x0",
        "input": "0xe4849b320000000000000000000000000000000000000000000000000000029a8da25a8a",
        "nonce": "0x110d",
        "chainId": "0xaa36a7"
      },
      "additionalContracts": [],
      "isFixedGasLimit": false
    }
  ],
  "receipts": [
    {
      "status": "0x1",
      "cumulativeGasUsed": "0xd85c28",
      "logs": [
        {
          "address": "0x8aafd3ede9adb0ff97c7aebce82a919afb1c8764",
          "topics": [
            "0xddf252ad1be2c89b69c2b068fc378daa952ba7f163c4a11628f55a4df523b3ef",
            "0x000000000000000000000000c77f7fed3b5cc8249adc428c5f44c9063b9734b4",
            "0x0000000000000000000000000000000000000000000000000000000000000000"
          ],
          "data": "0x0000000000000000000000000000000000000000000000000000029538887a96",
          "blockHash": "0xa8e2be440ee82a8307b3b790acce5ce59d4e7ab663bd19c34ea1c6292cc81d3b",
          "blockNumber": "0x7317bd",
          "transactionHash": "0x5621edc145814f842353705ff8ec06cfce64970f09410913db1d3077c666e3ad",
          "transactionIndex": "0x78",
          "logIndex": "0x90",
          "removed": false
        },
        {
          "address": "0x8aafd3ede9adb0ff97c7aebce82a919afb1c8764",
          "topics": [
            "0xddf252ad1be2c89b69c2b068fc378daa952ba7f163c4a11628f55a4df523b3ef",
            "0x000000000000000000000000c77f7fed3b5cc8249adc428c5f44c9063b9734b4",
            "0x000000000000000000000000c77f7fed3b5cc8249adc428c5f44c9063b9734b4"
          ],
          "data": "0x000000000000000000000000000000000000000000000000000000055519dff4",
          "blockHash": "0xa8e2be440ee82a8307b3b790acce5ce59d4e7ab663bd19c34ea1c6292cc81d3b",
          "blockNumber": "0x7317bd",
          "transactionHash": "0x5621edc145814f842353705ff8ec06cfce64970f09410913db1d3077c666e3ad",
          "transactionIndex": "0x78",
          "logIndex": "0x91",
          "removed": false
        },
        {
          "address": "0x8aafd3ede9adb0ff97c7aebce82a919afb1c8764",
          "topics": [
            "0x4afcb4a87cdbd9974efdb92ee48bc8d7cd0ae4bf217004db3d080cbaee652ca7"
          ],
          "data": "0x00000000000000000000000000000000000000000000000000000000679019a000000000000000000000000000000000000000000000000000050d9c9065416300000000000000000000000000000000000000000000000000000000f2b4743a",
          "blockHash": "0xa8e2be440ee82a8307b3b790acce5ce59d4e7ab663bd19c34ea1c6292cc81d3b",
          "blockNumber": "0x7317bd",
          "transactionHash": "0x5621edc145814f842353705ff8ec06cfce64970f09410913db1d3077c666e3ad",
          "transactionIndex": "0x78",
          "logIndex": "0x92",
          "removed": false
        }
      ],
      "logsBloom": "0x00000000000000000000000000000000000000000600000000000000000000000000000000000000000000000000000000000000000000004000000000000000000000000000004000000008000000000000000000000000000000000000000000000000020000000000000000000800020000000000000000000010000000000000000000000000000000000000000000000000000000000000010000000000000000000000000000000000000000004000000000000000000000000000000000000002000000800000000000000000000000000000080000000000000020000000000000000000000000000000000000000000000000000000000000000000",
      "type": "0x2",
      "transactionHash": "0x5621edc145814f842353705ff8ec06cfce64970f09410913db1d3077c666e3ad",
      "transactionIndex": "0x78",
      "blockHash": "0xa8e2be440ee82a8307b3b790acce5ce59d4e7ab663bd19c34ea1c6292cc81d3b",
      "blockNumber": "0x7317bd",
      "gasUsed": "0xfd27",
      "effectiveGasPrice": "0x47e76aa7",
      "from": "0xc77f7fed3b5cc8249adc428c5f44c9063b9734b4",
      "to": "0x8aafd3ede9adb0ff97c7aebce82a919afb1c8764",
      "contractAddress": null
    }
  ],
  "libraries": [],
  "pending": [],
  "returns": {},
  "timestamp": 1737496993,
  "chain": 11155111,
  "commit": "1d2fb70"
}