{
  "transactions": [
    {
      "hash": "0x03e23933967ff310cc7f155c15b7620bca53eb9f8af76cb8ed1b59e6c8bf1d9e",
      "transactionType": "CALL",
      "contractName": null,
      "contractAddress": "0x8aafd3ede9adb0ff97c7aebce82a919afb1c8764",
      "function": "sell(uint256)",
      "arguments": [
        "6002733150197786168"
      ],
      "transaction": {
        "from": "0xc77f7fed3b5cc8249adc428c5f44c9063b9734b4",
        "to": "0x8aafd3ede9adb0ff97c7aebce82a919afb1c8764",
        "gas": "0x1724d",
        "value": "0x0",
        "input": "0xe4849b32000000000000000000000000000000000000000000000000534dfdff0b002638",
        "nonce": "0xe4d",
        "chainId": "0xaa36a7"
      },
      "additionalContracts": [],
      "isFixedGasLimit": false
    }
  ],
  "receipts": [
    {
      "status": "0x1",
      "cumulativeGasUsed": "0xe0a423",
      "logs": [
        {
          "address": "0x8aafd3ede9adb0ff97c7aebce82a919afb1c8764",
          "topics": [
            "0xddf252ad1be2c89b69c2b068fc378daa952ba7f163c4a11628f55a4df523b3ef",
            "0x000000000000000000000000c77f7fed3b5cc8249adc428c5f44c9063b9734b4",
            "0x0000000000000000000000000000000000000000000000000000000000000000"
          ],
          "data": "0x00000000000000000000000000000000000000000000000052a3625d42356567",
          "blockHash": "0x391c6b1e2b96101d32d6fb347c6bc4db8bd1c80a1dcfdb10a217bf8c8fcfc292",
          "blockNumber": "0x73139f",
          "transactionHash": "0x03e23933967ff310cc7f155c15b7620bca53eb9f8af76cb8ed1b59e6c8bf1d9e",
          "transactionIndex": "0x9d",
          "logIndex": "0x13a",
          "removed": false
        },
        {
          "address": "0x8aafd3ede9adb0ff97c7aebce82a919afb1c8764",
          "topics": [
            "0xddf252ad1be2c89b69c2b068fc378daa952ba7f163c4a11628f55a4df523b3ef",
            "0x000000000000000000000000c77f7fed3b5cc8249adc428c5f44c9063b9734b4",
            "0x000000000000000000000000c77f7fed3b5cc8249adc428c5f44c9063b9734b4"
          ],
          "data": "0x00000000000000000000000000000000000000000000000000aa9ba1c8cac0d1",
          "blockHash": "0x391c6b1e2b96101d32d6fb347c6bc4db8bd1c80a1dcfdb10a217bf8c8fcfc292",
          "blockNumber": "0x73139f",
          "transactionHash": "0x03e23933967ff310cc7f155c15b7620bca53eb9f8af76cb8ed1b59e6c8bf1d9e",
          "transactionIndex": "0x9d",
          "logIndex": "0x13b",
          "removed": false
        },
        {
          "address": "0x8aafd3ede9adb0ff97c7aebce82a919afb1c8764",
          "topics": [
            "0x4afcb4a87cdbd9974efdb92ee48bc8d7cd0ae4bf217004db3d080cbaee652ca7"
          ],
          "data": "0x00000000000000000000000000000000000000000000000000000000678fe8080000000000000000000000000000000000000000000000000004b40ac21e0c2f000000000000000000000000000000000000000000000000001c3b8764988f86",
          "blockHash": "0x391c6b1e2b96101d32d6fb347c6bc4db8bd1c80a1dcfdb10a217bf8c8fcfc292",
          "blockNumber": "0x73139f",
          "transactionHash": "0x03e23933967ff310cc7f155c15b7620bca53eb9f8af76cb8ed1b59e6c8bf1d9e",
          "transactionIndex": "0x9d",
          "logIndex": "0x13c",
          "removed": false
        }
      ],
      "logsBloom": "0x00000000000000000000000000000000000000000600000000000000000000000000000000000000000000000000000000000000000000004000000000000000000000000000004000000008000000000000000000000000000000000000000000000000020000000000000000000800020000000000000000000010000000000000000000000000000000000000000000000000000000000000010000000000000000000000000000000000000000004000000000000000000000000000000000000002000000800000000000000000000000000000080000000000000020000000000000000000000000000000000000000000000000000000000000000000",
      "type": "0x2",
      "transactionHash": "0x03e23933967ff310cc7f155c15b7620bca53eb9f8af76cb8ed1b59e6c8bf1d9e",
      "transactionIndex": "0x9d",
      "blockHash": "0x391c6b1e2b96101d32d6fb347c6bc4db8bd1c80a1dcfdb10a217bf8c8fcfc292",
      "blockNumber": "0x73139f",
      "gasUsed": "0xfd33",
      "effectiveGasPrice": "0x8394882e",
      "from": "0xc77f7fed3b5cc8249adc428c5f44c9063b9734b4",
      "to": "0x8aafd3ede9adb0ff97c7aebce82a919afb1c8764",
      "contractAddress": null
    }
  ],
  "libraries": [],
  "pending": [],
  "returns": {},
  "timestamp": 1737484298,
  "chain": 11155111,
  "commit": "51a374b"
}