{
  "transactions": [
    {
      "hash": "0x8bbc2d70722348b1d152bb4bc87878fb2ade7803fd73e8e30aa08f39e0a2ca2a",
      "transactionType": "CALL",
      "contractName": null,
      "contractAddress": "0x8aafd3ede9adb0ff97c7aebce82a919afb1c8764",
      "function": "sell(uint256)",
      "arguments": [
        "214054395581706655909"
      ],
      "transaction": {
        "from": "0xc77f7fed3b5cc8249adc428c5f44c9063b9734b4",
        "to": "0x8aafd3ede9adb0ff97c7aebce82a919afb1c8764",
        "gas": "0x17270",
        "value": "0x0",
        "input": "0xe4849b3200000000000000000000000000000000000000000000000b9a99faac3a91d8a5",
        "nonce": "0x14d2",
        "chainId": "0xaa36a7"
      },
      "additionalContracts": [],
      "isFixedGasLimit": false
    }
  ],
  "receipts": [
    {
      "status": "0x1",
      "cumulativeGasUsed": "0x103154d",
      "logs": [
        {
          "address": "0x8aafd3ede9adb0ff97c7aebce82a919afb1c8764",
          "topics": [
            "0xddf252ad1be2c89b69c2b068fc378daa952ba7f163c4a11628f55a4df523b3ef",
            "0x000000000000000000000000c77f7fed3b5cc8249adc428c5f44c9063b9734b4",
            "0x0000000000000000000000000000000000000000000000000000000000000000"
          ],
          "data": "0x00000000000000000000000000000000000000000000000b82d62ff6a0804ba6",
          "blockHash": "0x51f01a7413f14550c08456425b657b0ec34d052e99549f3c6886e4391a642a9e",
          "blockNumber": "0x731c30",
          "transactionHash": "0x8bbc2d70722348b1d152bb4bc87878fb2ade7803fd73e8e30aa08f39e0a2ca2a",
          "transactionIndex": "0x8a",
          "logIndex": "0xd3",
          "removed": false
        },
        {
          "address": "0x8aafd3ede9adb0ff97c7aebce82a919afb1c8764",
          "topics": [
            "0xddf252ad1be2c89b69c2b068fc378daa952ba7f163c4a11628f55a4df523b3ef",
            "0x000000000000000000000000c77f7fed3b5cc8249adc428c5f44c9063b9734b4",
            "0x000000000000000000000000c77f7fed3b5cc8249adc428c5f44c9063b9734b4"
          ],
          "data": "0x00000000000000000000000000000000000000000000000017c3cab59a118cff",
          "blockHash": "0x51f01a7413f14550c08456425b657b0ec34d052e99549f3c6886e4391a642a9e",
          "blockNumber": "0x731c30",
          "transactionHash": "0x8bbc2d70722348b1d152bb4bc87878fb2ade7803fd73e8e30aa08f39e0a2ca2a",
          "transactionIndex": "0x8a",
          "logIndex": "0xd4",
          "removed": false
        },
        {
          "address": "0x8aafd3ede9adb0ff97c7aebce82a919afb1c8764",
          "topics": [
            "0x4afcb4a87cdbd9974efdb92ee48bc8d7cd0ae4bf217004db3d080cbaee652ca7"
          ],
          "data": "0x0000000000000000000000000000000000000000000000000000000067904f1c00000000000000000000000000000000000000000000000000109581ca29cad30000000000000000000000000000000000000000000000000dcd41029c046d48",
          "blockHash": "0x51f01a7413f14550c08456425b657b0ec34d052e99549f3c6886e4391a642a9e",
          "blockNumber": "0x731c30",
          "transactionHash": "0x8bbc2d70722348b1d152bb4bc87878fb2ade7803fd73e8e30aa08f39e0a2ca2a",
          "transactionIndex": "0x8a",
          "logIndex": "0xd5",
          "removed": false
        }
      ],
      "logsBloom": "0x00000000000000000000000000000000000000000600000000000000000000000000000000000000000000000000000000000000000000004000000000000000000000000000004000000008000000000000000000000000000000000000000000000000020000000000000000000800020000000000000000000010000000000000000000000000000000000000000000000000000000000000010000000000000000000000000000000000000000004000000000000000000000000000000000000002000000800000000000000000000000000000080000000000000020000000000000000000000000000000000000000000000000000000000000000000",
      "type": "0x2",
      "transactionHash": "0x8bbc2d70722348b1d152bb4bc87878fb2ade7803fd73e8e30aa08f39e0a2ca2a",
      "transactionIndex": "0x8a",
      "blockHash": "0x51f01a7413f14550c08456425b657b0ec34d052e99549f3c6886e4391a642a9e",
      "blockNumber": "0x731c30",
      "gasUsed": "0xfd4b",
      "effectiveGasPrice": "0x13b92d697",
      "from": "0xc77f7fed3b5cc8249adc428c5f44c9063b9734b4",
      "to": "0x8aafd3ede9adb0ff97c7aebce82a919afb1c8764",
      "contractAddress": null
    }
  ],
  "libraries": [],
  "pending": [],
  "returns": {},
  "timestamp": 1737510686,
  "chain": 11155111,
  "commit": "1d2fb70"
}