{
  "transactions": [
    {
      "hash": "0x6248e7d1b74136cfd2618df5bd7e5a98fc96b5e3feeb486121a2da37217a7e54",
      "transactionType": "CALL",
      "contractName": null,
      "contractAddress": "0x270e88f8683660553e8ba4eb2ad7c91a1710d769",
      "function": "sell(uint256)",
      "arguments": [
        "739221177415257537188"
      ],
      "transaction": {
        "from": "0xc77f7fed3b5cc8249adc428c5f44c9063b9734b4",
        "to": "0x270e88f8683660553e8ba4eb2ad7c91a1710d769",
        "gas": "0x16fec",
        "value": "0x0",
        "input": "0xe4849b3200000000000000000000000000000000000000000000002812c1304c2a6fbaa4",
        "nonce": "0x744",
        "chainId": "0xaa36a7"
      },
      "additionalContracts": [],
      "isFixedGasLimit": false
    }
  ],
  "receipts": [
    {
      "status": "0x1",
      "cumulativeGasUsed": "0xb03b93",
      "logs": [
        {
          "address": "0x270e88f8683660553e8ba4eb2ad7c91a1710d769",
          "topics": [
            "0xddf252ad1be2c89b69c2b068fc378daa952ba7f163c4a11628f55a4df523b3ef",
            "0x000000000000000000000000c77f7fed3b5cc8249adc428c5f44c9063b9734b4",
            "0x0000000000000000000000000000000000000000000000000000000000000000"
          ],
          "data": "0x00000000000000000000000000000000000000000000002812c1304c2a6fbaa4",
          "blockHash": "0x8196bcf285b14013238a58889962d82980cacc019bea2d956d9cb3ee78cbd314",
          "blockNumber": "0x725466",
          "transactionHash": "0x6248e7d1b74136cfd2618df5bd7e5a98fc96b5e3feeb486121a2da37217a7e54",
          "transactionIndex": "0x3e",
          "logIndex": "0x6b",
          "removed": false
        },
        {
          "address": "0x270e88f8683660553e8ba4eb2ad7c91a1710d769",
          "topics": [
            "0x4afcb4a87cdbd9974efdb92ee48bc8d7cd0ae4bf217004db3d080cbaee652ca7"
          ],
          "data": "0x000000000000000000000000000000000000000000000000000000006786e6d00000000000000000000000000000000000000000000000000004c606a99ad8980000000000000000000000000000000000000000000000000dc8286b56e6b1f8",
          "blockHash": "0x8196bcf285b14013238a58889962d82980cacc019bea2d956d9cb3ee78cbd314",
          "blockNumber": "0x725466",
          "transactionHash": "0x6248e7d1b74136cfd2618df5bd7e5a98fc96b5e3feeb486121a2da37217a7e54",
          "transactionIndex": "0x3e",
          "logIndex": "0x6c",
          "removed": false
        }
      ],
      "logsBloom": "0x00000000000000000000000000000000000000000000000000000000000000000000000000000000000000000000000020000000000000004000000000000000000000000000000000000008000000000000000000000000000000000000000000000000020000000000000000000800020000000000000000000010000000000000000000010000000000000000000000000000000000000000010000000000000000000000000000000000000000004000000000000000000000000000000000000002000000800000000000000000000000000000080000008000000020000000000000000000000000000000000000000000000000000000000000000000",
      "type": "0x2",
      "transactionHash": "0x6248e7d1b74136cfd2618df5bd7e5a98fc96b5e3feeb486121a2da37217a7e54",
      "transactionIndex": "0x3e",
      "blockHash": "0x8196bcf285b14013238a58889962d82980cacc019bea2d956d9cb3ee78cbd314",
      "blockNumber": "0x725466",
      "gasUsed": "0xfb93",
      "effectiveGasPrice": "0x14d4cec15",
      "from": "0xc77f7fed3b5cc8249adc428c5f44c9063b9734b4",
      "to": "0x270e88f8683660553e8ba4eb2ad7c91a1710d769",
      "contractAddress": null
    }
  ],
  "libraries": [],
  "pending": [],
  "returns": {},
  "timestamp": 1736894162,
  "chain": 11155111,
  "commit": "51a374b"
}