{
  "transactions": [
    {
      "hash": "0x8fe81cb94f497601ba8cecbbdc6c0284984952e0ebd12c7e9bbb648e97116a42",
      "transactionType": "CALL",
      "contractName": null,
      "contractAddress": "0xbf4a322f1496e5c3d34a9bcdb4c60567b38c7de2",
      "function": "buy(address)",
      "arguments": [
        "0xC77f7fed3b5Cc8249aDc428c5F44C9063B9734b4"
      ],
      "transaction": {
        "from": "0xc77f7fed3b5cc8249adc428c5f44c9063b9734b4",
        "to": "0xbf4a322f1496e5c3d34a9bcdb4c60567b38c7de2",
        "gas": "0x1b309",
        "value": "0xde0b6b3a7640000",
        "input": "0xf088d547000000000000000000000000c77f7fed3b5cc8249adc428c5f44c9063b9734b4",
        "nonce": "0x904",
        "chainId": "0xaa36a7"
      },
      "additionalContracts": [],
      "isFixedGasLimit": false
    }
  ],
  "receipts": [
    {
      "status": "0x1",
      "cumulativeGasUsed": "0x10db185",
      "logs": [
        {
          "address": "0xbf4a322f1496e5c3d34a9bcdb4c60567b38c7de2",
          "topics": [
            "0xddf252ad1be2c89b69c2b068fc378daa952ba7f163c4a11628f55a4df523b3ef",
            "0x0000000000000000000000000000000000000000000000000000000000000000",
            "0x000000000000000000000000c77f7fed3b5cc8249adc428c5f44c9063b9734b4"
          ],
          "data": "0x0000000000000000000000000000000000000000000000358ae2778920c1f641",
          "blockHash": "0x99a3d24913ed701c09a5dfc560c882a221f38bbc6b1e4ff7a80bc6f6ae85cbc3",
          "blockNumber": "0x72587e",
          "transactionHash": "0x8fe81cb94f497601ba8cecbbdc6c0284984952e0ebd12c7e9bbb648e97116a42",
          "transactionIndex": "0x7e",
          "logIndex": "0xbc",
          "removed": false
        },
        {
          "address": "0xbf4a322f1496e5c3d34a9bcdb4c60567b38c7de2",
          "topics": [
            "0xddf252ad1be2c89b69c2b068fc378daa952ba7f163c4a11628f55a4df523b3ef",
            "0x0000000000000000000000000000000000000000000000000000000000000000",
            "0x000000000000000000000000c77f7fed3b5cc8249adc428c5f44c9063b9734b4"
          ],
          "data": "0x0000000000000000000000000000000000000000000000002993dd0bbae50776",
          "blockHash": "0x99a3d24913ed701c09a5dfc560c882a221f38bbc6b1e4ff7a80bc6f6ae85cbc3",
          "blockNumber": "0x72587e",
          "transactionHash": "0x8fe81cb94f497601ba8cecbbdc6c0284984952e0ebd12c7e9bbb648e97116a42",
          "transactionIndex": "0x7e",
          "logIndex": "0xbd",
          "removed": false
        },
        {
          "address": "0xbf4a322f1496e5c3d34a9bcdb4c60567b38c7de2",
          "topics": [
            "0x4afcb4a87cdbd9974efdb92ee48bc8d7cd0ae4bf217004db3d080cbaee652ca7"
          ],
          "data": "0x000000000000000000000000000000000000000000000000000000006787181400000000000000000000000000000000000000000000000000038fa2aa3fcb330000000000000000000000000000000000000000000000000de0b6b3a7640000",
          "blockHash": "0x99a3d24913ed701c09a5dfc560c882a221f38bbc6b1e4ff7a80bc6f6ae85cbc3",
          "blockNumber": "0x72587e",
          "transactionHash": "0x8fe81cb94f497601ba8cecbbdc6c0284984952e0ebd12c7e9bbb648e97116a42",
          "transactionIndex": "0x7e",
          "logIndex": "0xbe",
          "removed": false
        }
      ],
      "logsBloom": "0x00000000000000000000000000000000000000000000000000000000000000000000000000000000000000000000000000000000000000004000000000000000000000000000000000000008000000000000001000000000000000000000000000000000020000000000000000000800020000000000000000000010000000000000000000000000000000000000000000000000000008000000010000000000000000000000000000000000000000004000000000000000000000000000000000000002000000800000000000001000000000000000080000000000000020000000000000000000000000000000000000000000000000000000000000000000",
      "type": "0x2",
      "transactionHash": "0x8fe81cb94f497601ba8cecbbdc6c0284984952e0ebd12c7e9bbb648e97116a42",
      "transactionIndex": "0x7e",
      "blockHash": "0x99a3d24913ed701c09a5dfc560c882a221f38bbc6b1e4ff7a80bc6f6ae85cbc3",
      "blockNumber": "0x72587e",
      "gasUsed": "0x13af6",
      "effectiveGasPrice": "0x2bd5baa2",
      "from": "0xc77f7fed3b5cc8249adc428c5f44c9063b9734b4",
      "to": "0xbf4a322f1496e5c3d34a9bcdb4c60567b38c7de2",
      "contractAddress": null
    }
  ],
  "libraries": [],
  "pending": [],
  "returns": {},
  "timestamp": 1736906774,
  "chain": 11155111,
  "commit": "51a374b"
}