{
  "transactions": [
    {
      "hash": "0x059902cc54ec79338b16b128b7cec4a2feceea0aef4c0c14e90ffa124ad43fc2",
      "transactionType": "CALL",
      "contractName": null,
      "contractAddress": "0x8aafd3ede9adb0ff97c7aebce82a919afb1c8764",
      "function": "buy(address)",
      "arguments": [
        "0xC77f7fed3b5Cc8249aDc428c5F44C9063B9734b4"
      ],
      "transaction": {
        "from": "0xc77f7fed3b5cc8249adc428c5f44c9063b9734b4",
        "to": "0x8aafd3ede9adb0ff97c7aebce82a919afb1c8764",
        "gas": "0x156ea",
        "value": "0xde0b6b3a7640000",
        "input": "0xf088d547000000000000000000000000c77f7fed3b5cc8249adc428c5f44c9063b9734b4",
        "nonce": "0xe73",
        "chainId": "0xaa36a7"
      },
      "additionalContracts": [],
      "isFixedGasLimit": false
    }
  ],
  "receipts": [
    {
      "status": "0x1",
      "cumulativeGasUsed": "0xd993cd",
      "logs": [
        {
          "address": "0x8aafd3ede9adb0ff97c7aebce82a919afb1c8764",
          "topics": [
            "0xddf252ad1be2c89b69c2b068fc378daa952ba7f163c4a11628f55a4df523b3ef",
            "0x0000000000000000000000000000000000000000000000000000000000000000",
            "0x000000000000000000000000c77f7fed3b5cc8249adc428c5f44c9063b9734b4"
          ],
          "data": "0x0000000000000000000000000000000000000000000000287f44dbb909879872",
          "blockHash": "0x57ef1134eb30022d5552b67b128f106f823d2643c1a376ce983e71d26c0bbde6",
          "blockNumber": "0x7313cc",
          "transactionHash": "0x059902cc54ec79338b16b128b7cec4a2feceea0aef4c0c14e90ffa124ad43fc2",
          "transactionIndex": "0x9c",
          "logIndex": "0xbe",
          "removed": false
        },
        {
          "address": "0x8aafd3ede9adb0ff97c7aebce82a919afb1c8764",
          "topics": [
            "0xddf252ad1be2c89b69c2b068fc378daa952ba7f163c4a11628f55a4df523b3ef",
            "0x0000000000000000000000000000000000000000000000000000000000000000",
            "0x000000000000000000000000c77f7fed3b5cc8249adc428c5f44c9063b9734b4"
          ],
          "data": "0x0000000000000000000000000000000000000000000000001f7289b98a1abc5e",
          "blockHash": "0x57ef1134eb30022d5552b67b128f106f823d2643c1a376ce983e71d26c0bbde6",
          "blockNumber": "0x7313cc",
          "transactionHash": "0x059902cc54ec79338b16b128b7cec4a2feceea0aef4c0c14e90ffa124ad43fc2",
          "transactionIndex": "0x9c",
          "logIndex": "0xbf",
          "removed": false
        },
        {
          "address": "0x8aafd3ede9adb0ff97c7aebce82a919afb1c8764",
          "topics": [
            "0x4afcb4a87cdbd9974efdb92ee48bc8d7cd0ae4bf217004db3d080cbaee652ca7"
          ],
          "data": "0x00000000000000000000000000000000000000000000000000000000678fea240000000000000000000000000000000000000000000000000004b568b7773ec20000000000000000000000000000000000000000000000000de0b6b3a7640000",
          "blockHash": "0x57ef1134eb30022d5552b67b128f106f823d2643c1a376ce983e71d26c0bbde6",
          "blockNumber": "0x7313cc",
          "transactionHash": "0x059902cc54ec79338b16b128b7cec4a2feceea0aef4c0c14e90ffa124ad43fc2",
          "transactionIndex": "0x9c",
          "logIndex": "0xc0",
          "removed": false
        }
      ],
      "logsBloom": "0x00000000000000000000000000000000000000000600000000000000000000000000000000000000000000000000000000000000000000004000000000000000000000000000004000000008000000000000000000000000000000000000000000000000020000000000000000000800020000000000000000000010000000000000000000000000000000000000000000000000000000000000010000000000000000000000000000000000000000004000000000000000000000000000000000000002000000800000000000000000000000000000080000000000000020000000000000000000000000000000000000000000000000000000000000000000",
      "type": "0x2",
      "transactionHash": "0x059902cc54ec79338b16b128b7cec4a2feceea0aef4c0c14e90ffa124ad43fc2",
      "transactionIndex": "0x9c",
      "blockHash": "0x57ef1134eb30022d5552b67b128f106f823d2643c1a376ce983e71d26c0bbde6",
      "blockNumber": "0x7313cc",
      "gasUsed": "0xf844",
      "effectiveGasPrice": "0x63ea343a",
      "from": "0xc77f7fed3b5cc8249adc428c5f44c9063b9734b4",
      "to": "0x8aafd3ede9adb0ff97c7aebce82a919afb1c8764",
      "contractAddress": null
    }
  ],
  "libraries": [],
  "pending": [],
  "returns": {},
  "timestamp": 1737484837,
  "chain": 11155111,
  "commit": "51a374b"
}