{
  "transactions": [
    {
      "hash": "0xa1f4fc8264aa619b9f95a894f334eb5ca85b8f4cb8b39ab20aab7ec3434e8a5b",
      "transactionType": "CALL",
      "contractName": null,
      "contractAddress": "0x8aafd3ede9adb0ff97c7aebce82a919afb1c8764",
      "function": "sell(uint256)",
      "arguments": [
        "178211608"
      ],
      "transaction": {
        "from": "0xc77f7fed3b5cc8249adc428c5f44c9063b9734b4",
        "to": "0x8aafd3ede9adb0ff97c7aebce82a919afb1c8764",
        "gas": "0x14e6c",
        "value": "0x0",
        "input": "0xe4849b32000000000000000000000000000000000000000000000000000000000a9f4b18",
        "nonce": "0x1209",
        "chainId": "0xaa36a7"
      },
      "additionalContracts": [],
      "isFixedGasLimit": false
    }
  ],
  "receipts": [
    {
      "status": "0x1",
      "cumulativeGasUsed": "0x21265ca",
      "logs": [
        {
          "address": "0x8aafd3ede9adb0ff97c7aebce82a919afb1c8764",
          "topics": [
            "0xddf252ad1be2c89b69c2b068fc378daa952ba7f163c4a11628f55a4df523b3ef",
            "0x000000000000000000000000c77f7fed3b5cc8249adc428c5f44c9063b9734b4",
            "0x0000000000000000000000000000000000000000000000000000000000000000"
          ],
          "data": "0x000000000000000000000000000000000000000000000000000000000a8989fc",
          "blockHash": "0x13189b0c6c99011484b4183cd0503bf908889a6222d9970850052ca912d7e0e0",
          "blockNumber": "0x7318e4",
          "transactionHash": "0xa1f4fc8264aa619b9f95a894f334eb5ca85b8f4cb8b39ab20aab7ec3434e8a5b",
          "transactionIndex": "0x66",
          "logIndex": "0x10ea",
          "removed": false
        },
        {
          "address": "0x8aafd3ede9adb0ff97c7aebce82a919afb1c8764",
          "topics": [
            "0xddf252ad1be2c89b69c2b068fc378daa952ba7f163c4a11628f55a4df523b3ef",
            "0x000000000000000000000000c77f7fed3b5cc8249adc428c5f44c9063b9734b4",
            "0x000000000000000000000000c77f7fed3b5cc8249adc428c5f44c9063b9734b4"
          ],
          "data": "0x000000000000000000000000000000000000000000000000000000000015c11c",
          "blockHash": "0x13189b0c6c99011484b4183cd0503bf908889a6222d9970850052ca912d7e0e0",
          "blockNumber": "0x7318e4",
          "transactionHash": "0xa1f4fc8264aa619b9f95a894f334eb5ca85b8f4cb8b39ab20aab7ec3434e8a5b",
          "transactionIndex": "0x66",
          "logIndex": "0x10eb",
          "removed": false
        },
        {
          "address": "0x8aafd3ede9adb0ff97c7aebce82a919afb1c8764",
          "topics": [
            "0x4afcb4a87cdbd9974efdb92ee48bc8d7cd0ae4bf217004db3d080cbaee652ca7"
          ],
          "data": "0x0000000000000000000000000000000000000000000000000000000067902780000000000000000000000000000000000000000000000000000531ee962594df000000000000000000000000000000000000000000000000000000000003f9f2",
          "blockHash": "0x13189b0c6c99011484b4183cd0503bf908889a6222d9970850052ca912d7e0e0",
          "blockNumber": "0x7318e4",
          "transactionHash": "0xa1f4fc8264aa619b9f95a894f334eb5ca85b8f4cb8b39ab20aab7ec3434e8a5b",
          "transactionIndex": "0x66",
          "logIndex": "0x10ec",
          "removed": false
        }
      ],
      "logsBloom": "0x00000000000000000000000000000000000000000600000000000000000000000000000000000000000000000000000000000000000000004000000000000000000000000000004000000008000000000000000000000000000000000000000000000000020000000000000000000800020000000000000000000010000000000000000000000000000000000000000000000000000000000000010000000000000000000000000000000000000000004000000000000000000000000000000000000002000000800000000000000000000000000000080000000000000020000000000000000000000000000000000000000000000000000000000000000000",
      "type": "0x2",
      "transactionHash": "0xa1f4fc8264aa619b9f95a894f334eb5ca85b8f4cb8b39ab20aab7ec3434e8a5b",
      "transactionIndex": "0x66",
      "blockHash": "0x13189b0c6c99011484b4183cd0503bf908889a6222d9970850052ca912d7e0e0",
      "blockNumber": "0x7318e4",
      "gasUsed": "0xf21f",
      "effectiveGasPrice": "0x4443e780",
      "from": "0xc77f7fed3b5cc8249adc428c5f44c9063b9734b4",
      "to": "0x8aafd3ede9adb0ff97c7aebce82a919afb1c8764",
      "contractAddress": null
    }
  ],
  "libraries": [],
  "pending": [],
  "returns": {},
  "timestamp": 1737500545,
  "chain": 11155111,
  "commit": "1d2fb70"
}