{
  "transactions": [
    {
      "hash": "0xdb000333746fb973decaa86766e90a30d58f67d160abf7b42c97d8d60980925a",
      "transactionType": "CALL",
      "contractName": null,
      "contractAddress": "0xbf4a322f1496e5c3d34a9bcdb4c60567b38c7de2",
      "function": "buy(address)",
      "arguments": [
        "0xC77f7fed3b5Cc8249aDc428c5F44C9063B9734b4"
      ],
      "transaction": {
        "from": "0xc77f7fed3b5cc8249adc428c5f44c9063b9734b4",
        "to": "0xbf4a322f1496e5c3d34a9bcdb4c60567b38c7de2",
        "gas": "0x1b309",
        "value": "0xde0b6b3a7640000",
        "input": "0xf088d547000000000000000000000000c77f7fed3b5cc8249adc428c5f44c9063b9734b4",
        "nonce": "0xa10",
        "chainId": "0xaa36a7"
      },
      "additionalContracts": [],
      "isFixedGasLimit": false
    }
  ],
  "receipts": [
    {
      "status": "0x1",
      "cumulativeGasUsed": "0x90c5df",
      "logs": [
        {
          "address": "0xbf4a322f1496e5c3d34a9bcdb4c60567b38c7de2",
          "topics": [
            "0xddf252ad1be2c89b69c2b068fc378daa952ba7f163c4a11628f55a4df523b3ef",
            "0x0000000000000000000000000000000000000000000000000000000000000000",
            "0x000000000000000000000000c77f7fed3b5cc8249adc428c5f44c9063b9734b4"
          ],
          "data": "0x00000000000000000000000000000000000000000000003558323a238141147a",
          "blockHash": "0x258c97024155939ba4989853d09de6bbbed6daf772799f99a2daf35ce4e565f8",
          "blockNumber": "0x7259cf",
          "transactionHash": "0xdb000333746fb973decaa86766e90a30d58f67d160abf7b42c97d8d60980925a",
          "transactionIndex": "0x4e",
          "logIndex": "0x6a",
          "removed": false
        },
        {
          "address": "0xbf4a322f1496e5c3d34a9bcdb4c60567b38c7de2",
          "topics": [
            "0xddf252ad1be2c89b69c2b068fc378daa952ba7f163c4a11628f55a4df523b3ef",
            "0x0000000000000000000000000000000000000000000000000000000000000000",
            "0x000000000000000000000000c77f7fed3b5cc8249adc428c5f44c9063b9734b4"
          ],
          "data": "0x000000000000000000000000000000000000000000000000296c808d8fa7a436",
          "blockHash": "0x258c97024155939ba4989853d09de6bbbed6daf772799f99a2daf35ce4e565f8",
          "blockNumber": "0x7259cf",
          "transactionHash": "0xdb000333746fb973decaa86766e90a30d58f67d160abf7b42c97d8d60980925a",
          "transactionIndex": "0x4e",
          "logIndex": "0x6b",
          "removed": false
        },
        {
          "address": "0xbf4a322f1496e5c3d34a9bcdb4c60567b38c7de2",
          "topics": [
            "0x4afcb4a87cdbd9974efdb92ee48bc8d7cd0ae4bf217004db3d080cbaee652ca7"
          ],
          "data": "0x00000000000000000000000000000000000000000000000000000000678727f800000000000000000000000000000000000000000000000000039304e68930b60000000000000000000000000000000000000000000000000de0b6b3a7640000",
          "blockHash": "0x258c97024155939ba4989853d09de6bbbed6daf772799f99a2daf35ce4e565f8",
          "blockNumber": "0x7259cf",
          "transactionHash": "0xdb000333746fb973decaa86766e90a30d58f67d160abf7b42c97d8d60980925a",
          "transactionIndex": "0x4e",
          "logIndex": "0x6c",
          "removed": false
        }
      ],
      "logsBloom": "0x00000000000000000000000000000000000000000000000000000000000000000000000000000000000000000000000000000000000000004000000000000000000000000000000000000008000000000000001000000000000000000000000000000000020000000000000000000800020000000000000000000010000000000000000000000000000000000000000000000000000008000000010000000000000000000000000000000000000000004000000000000000000000000000000000000002000000800000000000001000000000000000080000000000000020000000000000000000000000000000000000000000000000000000000000000000",
      "type": "0x2",
      "transactionHash": "0xdb000333746fb973decaa86766e90a30d58f67d160abf7b42c97d8d60980925a",
      "transactionIndex": "0x4e",
      "blockHash": "0x258c97024155939ba4989853d09de6bbbed6daf772799f99a2daf35ce4e565f8",
      "blockNumber": "0x7259cf",
      "gasUsed": "0x13af6",
      "effectiveGasPrice": "0x3bcfaee2f",
      "from": "0xc77f7fed3b5cc8249adc428c5f44c9063b9734b4",
      "to": "0xbf4a322f1496e5c3d34a9bcdb4c60567b38c7de2",
      "contractAddress": null
    }
  ],
  "libraries": [],
  "pending": [],
  "returns": {},
  "timestamp": 1736910841,
  "chain": 11155111,
  "commit": "51a374b"
}