{
  "transactions": [
    {
      "hash": "0x17f0e6bcf536aed4be81eff38d82f349614c4d5459c7d0170007bdb58e58c8e2",
      "transactionType": "CALL",
      "contractName": null,
      "contractAddress": "0xd7bc75898e513accccf720a874d44dab5a4b6223",
      "function": "buy(address)",
      "arguments": [
        "0xC77f7fed3b5Cc8249aDc428c5F44C9063B9734b4"
      ],
      "transaction": {
        "from": "0xc77f7fed3b5cc8249adc428c5f44c9063b9734b4",
        "to": "0xd7bc75898e513accccf720a874d44dab5a4b6223",
        "gas": "0x1b30c",
        "value": "0x2386f26fc10000",
        "input": "0xf088d547000000000000000000000000c77f7fed3b5cc8249adc428c5f44c9063b9734b4",
        "nonce": "0xac",
        "chainId": "0xaa36a7"
      },
      "additionalContracts": [],
      "isFixedGasLimit": false
    }
  ],
  "receipts": [
    {
      "status": "0x1",
      "cumulativeGasUsed": "0xc1f69f",
      "logs": [
        {
          "address": "0xd7bc75898e513accccf720a874d44dab5a4b6223",
          "topics": [
            "0xddf252ad1be2c89b69c2b068fc378daa952ba7f163c4a11628f55a4df523b3ef",
            "0x0000000000000000000000000000000000000000000000000000000000000000",
            "0x000000000000000000000000c77f7fed3b5cc8249adc428c5f44c9063b9734b4"
          ],
          "data": "0x0000000000000000000000000000000000000000000000008963bbade1bcd7e5",
          "blockHash": "0xfd4d3ddaf6135d8a77113e3dc8ec6affbdb2c7686babfe41de8c4c9eb32e2cb8",
          "blockNumber": "0x723920",
          "transactionHash": "0x17f0e6bcf536aed4be81eff38d82f349614c4d5459c7d0170007bdb58e58c8e2",
          "transactionIndex": "0x2a",
          "logIndex": "0x34",
          "removed": false
        },
        {
          "address": "0xd7bc75898e513accccf720a874d44dab5a4b6223",
          "topics": [
            "0xddf252ad1be2c89b69c2b068fc378daa952ba7f163c4a11628f55a4df523b3ef",
            "0x0000000000000000000000000000000000000000000000000000000000000000",
            "0x000000000000000000000000c77f7fed3b5cc8249adc428c5f44c9063b9734b4"
          ],
          "data": "0x000000000000000000000000000000000000000000000000006ab00cebc1d430",
          "blockHash": "0xfd4d3ddaf6135d8a77113e3dc8ec6affbdb2c7686babfe41de8c4c9eb32e2cb8",
          "blockNumber": "0x723920",
          "transactionHash": "0x17f0e6bcf536aed4be81eff38d82f349614c4d5459c7d0170007bdb58e58c8e2",
          "transactionIndex": "0x2a",
          "logIndex": "0x35",
          "removed": false
        },
        {
          "address": "0xd7bc75898e513accccf720a874d44dab5a4b6223",
          "topics": [
            "0x4afcb4a87cdbd9974efdb92ee48bc8d7cd0ae4bf217004db3d080cbaee652ca7"
          ],
          "data": "0x0000000000000000000000000000000000000000000000000000000067859ec800000000000000000000000000000000000000000000000000038d7f850c1512000000000000000000000000000000000000000000000000002386f26fc10000",
          "blockHash": "0xfd4d3ddaf6135d8a77113e3dc8ec6affbdb2c7686babfe41de8c4c9eb32e2cb8",
          "blockNumber": "0x723920",
          "transactionHash": "0x17f0e6bcf536aed4be81eff38d82f349614c4d5459c7d0170007bdb58e58c8e2",
          "transactionIndex": "0x2a",
          "logIndex": "0x36",
          "removed": false
        }
      ],
      "logsBloom": "0x00000000000000000000000000000000000000000000000000000000000000000000000000000000000000000000000000000000000000004000000000000000000000000000000000000008000000000000000000000000000000000000000000000000020000000000000000000800020000000000000000000010000000000000000000000000000000000000000000000000000000000000010000000000000000000000000000000000000000004000001000000000000000000000000000000002000000800000000000004000000000000000080000000000000020000000000000000000000000000000000000000000080000000000000000000000",
      "type": "0x2",
      "transactionHash": "0x17f0e6bcf536aed4be81eff38d82f349614c4d5459c7d0170007bdb58e58c8e2",
      "transactionIndex": "0x2a",
      "blockHash": "0xfd4d3ddaf6135d8a77113e3dc8ec6affbdb2c7686babfe41de8c4c9eb32e2cb8",
      "blockNumber": "0x723920",
      "gasUsed": "0x13af8",
      "effectiveGasPrice": "0x3ca09bbd",
      "from": "0xc77f7fed3b5cc8249adc428c5f44c9063b9734b4",
      "to": "0xd7bc75898e513accccf720a874d44dab5a4b6223",
      "contractAddress": null
    }
  ],
  "libraries": [],
  "pending": [],
  "returns": {},
  "timestamp": 1736810187,
  "chain": 11155111,
  "commit": "51a374b"
}