{
  "transactions": [
    {
      "hash": "0x9d7136beb0d99ede08e96b047979231c3fab223f4ec09b500725d5f7cea7b05d",
      "transactionType": "CALL",
      "contractName": null,
      "contractAddress": "0x5eb9cc76c3506942c1c0ead70e877dd5e4f00cb0",
      "function": "buy(address)",
      "arguments": [
        "0xC77f7fed3b5Cc8249aDc428c5F44C9063B9734b4"
      ],
      "transaction": {
        "from": "0xc77f7fed3b5cc8249adc428c5f44c9063b9734b4",
        "to": "0x5eb9cc76c3506942c1c0ead70e877dd5e4f00cb0",
        "gas": "0x156c8",
        "value": "0x2386f26fc10000",
        "input": "0xf088d547000000000000000000000000c77f7fed3b5cc8249adc428c5f44c9063b9734b4",
        "nonce": "0x123",
        "chainId": "0xaa36a7"
      },
      "additionalContracts": [],
      "isFixedGasLimit": false
    }
  ],
  "receipts": [
    {
      "status": "0x1",
      "cumulativeGasUsed": "0x65d450",
      "logs": [
        {
          "address": "0x5eb9cc76c3506942c1c0ead70e877dd5e4f00cb0",
          "topics": [
            "0xddf252ad1be2c89b69c2b068fc378daa952ba7f163c4a11628f55a4df523b3ef",
            "0x0000000000000000000000000000000000000000000000000000000000000000",
            "0x000000000000000000000000c77f7fed3b5cc8249adc428c5f44c9063b9734b4"
          ],
          "data": "0x0000000000000000000000000000000000000000000000008963dd86cc175537",
          "blockHash": "0x23af6196ef81beb39f22785943a97d17c16676421968316f0e0dd230a0415418",
          "blockNumber": "0x723b00",
          "transactionHash": "0x9d7136beb0d99ede08e96b047979231c3fab223f4ec09b500725d5f7cea7b05d",
          "transactionIndex": "0x46",
          "logIndex": "0x5e",
          "removed": false
        },
        {
          "address": "0x5eb9cc76c3506942c1c0ead70e877dd5e4f00cb0",
          "topics": [
            "0xddf252ad1be2c89b69c2b068fc378daa952ba7f163c4a11628f55a4df523b3ef",
            "0x0000000000000000000000000000000000000000000000000000000000000000",
            "0x000000000000000000000000c77f7fed3b5cc8249adc428c5f44c9063b9734b4"
          ],
          "data": "0x000000000000000000000000000000000000000000000000006ab027345c0b21",
          "blockHash": "0x23af6196ef81beb39f22785943a97d17c16676421968316f0e0dd230a0415418",
          "blockNumber": "0x723b00",
          "transactionHash": "0x9d7136beb0d99ede08e96b047979231c3fab223f4ec09b500725d5f7cea7b05d",
          "transactionIndex": "0x46",
          "logIndex": "0x5f",
          "removed": false
        },
        {
          "address": "0x5eb9cc76c3506942c1c0ead70e877dd5e4f00cb0",
          "topics": [
            "0x4afcb4a87cdbd9974efdb92ee48bc8d7cd0ae4bf217004db3d080cbaee652ca7"
          ],
          "data": "0x000000000000000000000000000000000000000000000000000000006785b55400000000000000000000000000000000000000000000000000038d7ea4fbe200000000000000000000000000000000000000000000000000002386f26fc10000",
          "blockHash": "0x23af6196ef81beb39f22785943a97d17c16676421968316f0e0dd230a0415418",
          "blockNumber": "0x723b00",
          "transactionHash": "0x9d7136beb0d99ede08e96b047979231c3fab223f4ec09b500725d5f7cea7b05d",
          "transactionIndex": "0x46",
          "logIndex": "0x60",
          "removed": false
        }
      ],
      "logsBloom": "0x00000000000000000000000000000000000000000000000000000000000000000000000000000000000000000000000000000000000000004000000000000000000000000000000000000008000000000000000000000000000000000000000000000000020000000000000004000800020000000000000000000010000000000000000000000000000000000000000000000000000000000000010000000000000000000000000000000000000000004000000000000000000000000000020000000002000000800000008000000000000000000000080000000000000020000000000000000000000000000000000000000000000000000000000000000000",
      "type": "0x2",
      "transactionHash": "0x9d7136beb0d99ede08e96b047979231c3fab223f4ec09b500725d5f7cea7b05d",
      "transactionIndex": "0x46",
      "blockHash": "0x23af6196ef81beb39f22785943a97d17c16676421968316f0e0dd230a0415418",
      "blockNumber": "0x723b00",
      "gasUsed": "0xf82c",
      "effectiveGasPrice": "0x280db9cd0",
      "from": "0xc77f7fed3b5cc8249adc428c5f44c9063b9734b4",
      "to": "0x5eb9cc76c3506942c1c0ead70e877dd5e4f00cb0",
      "contractAddress": null
    }
  ],
  "libraries": [],
  "pending": [],
  "returns": {},
  "timestamp": 1736815958,
  "chain": 11155111,
  "commit": "51a374b"
}