{
  "transactions": [
    {
      "hash": "0xccd8417386a5c6a9d339f759b6f3ec605d6e9ddf597738de27187af14fa1f624",
      "transactionType": "CALL",
      "contractName": null,
      "contractAddress": "0x8aafd3ede9adb0ff97c7aebce82a919afb1c8764",
      "function": "sell(uint256)",
      "arguments": [
        "175146171"
      ],
      "transaction": {
        "from": "0xc77f7fed3b5cc8249adc428c5f44c9063b9734b4",
        "to": "0x8aafd3ede9adb0ff97c7aebce82a919afb1c8764",
        "gas": "0x15d88",
        "value": "0x0",
        "input": "0xe4849b32000000000000000000000000000000000000000000000000000000000a7084bb",
        "nonce": "0x12a9",
        "chainId": "0xaa36a7"
      },
      "additionalContracts": [],
      "isFixedGasLimit": false
    }
  ],
  "receipts": [
    {
      "status": "0x1",
      "cumulativeGasUsed": "0x12d90ee",
      "logs": [
        {
          "address": "0x8aafd3ede9adb0ff97c7aebce82a919afb1c8764",
          "topics": [
            "0xddf252ad1be2c89b69c2b068fc378daa952ba7f163c4a11628f55a4df523b3ef",
            "0x000000000000000000000000c77f7fed3b5cc8249adc428c5f44c9063b9734b4",
            "0x0000000000000000000000000000000000000000000000000000000000000000"
          ],
          "data": "0x000000000000000000000000000000000000000000000000000000000a5b236a",
          "blockHash": "0x6b818e53d63ab03cda84a623405de03bba6249f9fc105572407d06323e8c055d",
          "blockNumber": "0x73199f",
          "transactionHash": "0xccd8417386a5c6a9d339f759b6f3ec605d6e9ddf597738de27187af14fa1f624",
          "transactionIndex": "0x8a",
          "logIndex": "0x82d",
          "removed": false
        },
        {
          "address": "0x8aafd3ede9adb0ff97c7aebce82a919afb1c8764",
          "topics": [
            "0xddf252ad1be2c89b69c2b068fc378daa952ba7f163c4a11628f55a4df523b3ef",
            "0x000000000000000000000000c77f7fed3b5cc8249adc428c5f44c9063b9734b4",
            "0x000000000000000000000000c77f7fed3b5cc8249adc428c5f44c9063b9734b4"
          ],
          "data": "0x0000000000000000000000000000000000000000000000000000000000156151",
          "blockHash": "0x6b818e53d63ab03cda84a623405de03bba6249f9fc105572407d06323e8c055d",
          "blockNumber": "0x73199f",
          "transactionHash": "0xccd8417386a5c6a9d339f759b6f3ec605d6e9ddf597738de27187af14fa1f624",
          "transactionIndex": "0x8a",
          "logIndex": "0x82e",
          "removed": false
        },
        {
          "address": "0x8aafd3ede9adb0ff97c7aebce82a919afb1c8764",
          "topics": [
            "0x4afcb4a87cdbd9974efdb92ee48bc8d7cd0ae4bf217004db3d080cbaee652ca7"
          ],
          "data": "0x00000000000000000000000000000000000000000000000000000000679030440000000000000000000000000000000000000000000000000005492efc5b066f000000000000000000000000000000000000000000000000000000000003f9ed",
          "blockHash": "0x6b818e53d63ab03cda84a623405de03bba6249f9fc105572407d06323e8c055d",
          "blockNumber": "0x73199f",
          "transactionHash": "0xccd8417386a5c6a9d339f759b6f3ec605d6e9ddf597738de27187af14fa1f624",
          "transactionIndex": "0x8a",
          "logIndex": "0x82f",
          "removed": false
        }
      ],
      "logsBloom": "0x00000000000000000000000000000000000000000600000000000000000000000000000000000000000000000000000000000000000000004000000000000000000000000000004000000008000000000000000000000000000000000000000000000000020000000000000000000800020000000000000000000010000000000000000000000000000000000000000000000000000000000000010000000000000000000000000000000000000000004000000000000000000000000000000000000002000000800000000000000000000000000000080000000000000020000000000000000000000000000000000000000000000000000000000000000000",
      "type": "0x2",
      "transactionHash": "0xccd8417386a5c6a9d339f759b6f3ec605d6e9ddf597738de27187af14fa1f624",
      "transactionIndex": "0x8a",
      "blockHash": "0x6b818e53d63ab03cda84a623405de03bba6249f9fc105572407d06323e8c055d",
      "blockNumber": "0x73199f",
      "gasUsed": "0xfd0f",
      "effectiveGasPrice": "0x44e51861",
      "from": "0xc77f7fed3b5cc8249adc428c5f44c9063b9734b4",
      "to": "0x8aafd3ede9adb0ff97c7aebce82a919afb1c8764",
      "contractAddress": null
    }
  ],
  "libraries": [],
  "pending": [],
  "returns": {},
  "timestamp": 1737502789,
  "chain": 11155111,
  "commit": "1d2fb70"
}