{
  "transactions": [
    {
      "hash": "0x060d090ec03f1c053358aba8bb142f73ba73c22bc2b3e6aa476ef0eec6834a2a",
      "transactionType": "CALL",
      "contractName": null,
      "contractAddress": "0xbf4a322f1496e5c3d34a9bcdb4c60567b38c7de2",
      "function": "buy(address)",
      "arguments": [
        "0xC77f7fed3b5Cc8249aDc428c5F44C9063B9734b4"
      ],
      "transaction": {
        "from": "0xc77f7fed3b5cc8249adc428c5f44c9063b9734b4",
        "to": "0xbf4a322f1496e5c3d34a9bcdb4c60567b38c7de2",
        "gas": "0x1b309",
        "value": "0xde0b6b3a7640000",
        "input": "0xf088d547000000000000000000000000c77f7fed3b5cc8249adc428c5f44c9063b9734b4",
        "nonce": "0xcf0",
        "chainId": "0xaa36a7"
      },
      "additionalContracts": [],
      "isFixedGasLimit": false
    }
  ],
  "receipts": [
    {
      "status": "0x1",
      "cumulativeGasUsed": "0x11cf0d5",
      "logs": [
        {
          "address": "0xbf4a322f1496e5c3d34a9bcdb4c60567b38c7de2",
          "topics": [
            "0xddf252ad1be2c89b69c2b068fc378daa952ba7f163c4a11628f55a4df523b3ef",
            "0x0000000000000000000000000000000000000000000000000000000000000000",
            "0x000000000000000000000000c77f7fed3b5cc8249adc428c5f44c9063b9734b4"
          ],
          "data": "0x000000000000000000000000000000000000000000000034cee6999a35b127d3",
          "blockHash": "0x886f260b25164715254296158f791ee22615fc9e4c0a191d97c0d246ad89020a",
          "blockNumber": "0x725d42",
          "transactionHash": "0x060d090ec03f1c053358aba8bb142f73ba73c22bc2b3e6aa476ef0eec6834a2a",
          "transactionIndex": "0x81",
          "logIndex": "0xea",
          "removed": false
        },
        {
          "address": "0xbf4a322f1496e5c3d34a9bcdb4c60567b38c7de2",
          "topics": [
            "0xddf252ad1be2c89b69c2b068fc378daa952ba7f163c4a11628f55a4df523b3ef",
            "0x0000000000000000000000000000000000000000000000000000000000000000",
            "0x000000000000000000000000c77f7fed3b5cc8249adc428c5f44c9063b9734b4"
          ],
          "data": "0x0000000000000000000000000000000000000000000000002901e338be42278d",
          "blockHash": "0x886f260b25164715254296158f791ee22615fc9e4c0a191d97c0d246ad89020a",
          "blockNumber": "0x725d42",
          "transactionHash": "0x060d090ec03f1c053358aba8bb142f73ba73c22bc2b3e6aa476ef0eec6834a2a",
          "transactionIndex": "0x81",
          "logIndex": "0xeb",
          "removed": false
        },
        {
          "address": "0xbf4a322f1496e5c3d34a9bcdb4c60567b38c7de2",
          "topics": [
            "0x4afcb4a87cdbd9974efdb92ee48bc8d7cd0ae4bf217004db3d080cbaee652ca7"
          ],
          "data": "0x000000000000000000000000000000000000000000000000000000006787518c00000000000000000000000000000000000000000000000000039c4fd2fb9d060000000000000000000000000000000000000000000000000de0b6b3a7640000",
          "blockHash": "0x886f260b25164715254296158f791ee22615fc9e4c0a191d97c0d246ad89020a",
          "blockNumber": "0x725d42",
          "transactionHash": "0x060d090ec03f1c053358aba8bb142f73ba73c22bc2b3e6aa476ef0eec6834a2a",
          "transactionIndex": "0x81",
          "logIndex": "0xec",
          "removed": false
        }
      ],
      "logsBloom": "0x00000000000000000000000000000000000000000000000000000000000000000000000000000000000000000000000000000000000000004000000000000000000000000000000000000008000000000000001000000000000000000000000000000000020000000000000000000800020000000000000000000010000000000000000000000000000000000000000000000000000008000000010000000000000000000000000000000000000000004000000000000000000000000000000000000002000000800000000000001000000000000000080000000000000020000000000000000000000000000000000000000000000000000000000000000000",
      "type": "0x2",
      "transactionHash": "0x060d090ec03f1c053358aba8bb142f73ba73c22bc2b3e6aa476ef0eec6834a2a",
      "transactionIndex": "0x81",
      "blockHash": "0x886f260b25164715254296158f791ee22615fc9e4c0a191d97c0d246ad89020a",
      "blockNumber": "0x725d42",
      "gasUsed": "0x13af6",
      "effectiveGasPrice": "0x3f51f1a33",
      "from": "0xc77f7fed3b5cc8249adc428c5f44c9063b9734b4",
      "to": "0xbf4a322f1496e5c3d34a9bcdb4c60567b38c7de2",
      "contractAddress": null
    }
  ],
  "libraries": [],
  "pending": [],
  "returns": {},
  "timestamp": 1736921486,
  "chain": 11155111,
  "commit": "51a374b"
}