{
  "transactions": [
    {
      "hash": "0xa117040073d74f68d21e38bcae07c7e360fea1435ca8c7426ea1ae4081ea76d8",
      "transactionType": "CALL",
      "contractName": null,
      "contractAddress": "0x8aafd3ede9adb0ff97c7aebce82a919afb1c8764",
      "function": "sell(uint256)",
      "arguments": [
        "601890487069"
      ],
      "transaction": {
        "from": "0xc77f7fed3b5cc8249adc428c5f44c9063b9734b4",
        "to": "0x8aafd3ede9adb0ff97c7aebce82a919afb1c8764",
        "gas": "0x1722a",
        "value": "0x0",
        "input": "0xe4849b320000000000000000000000000000000000000000000000000000008c2377fb1d",
        "nonce": "0x175e",
        "chainId": "0xaa36a7"
      },
      "additionalContracts": [],
      "isFixedGasLimit": false
    }
  ],
  "receipts": [
    {
      "status": "0x1",
      "cumulativeGasUsed": "0xf2053f",
      "logs": [
        {
          "address": "0x8aafd3ede9adb0ff97c7aebce82a919afb1c8764",
          "topics": [
            "0xddf252ad1be2c89b69c2b068fc378daa952ba7f163c4a11628f55a4df523b3ef",
            "0x000000000000000000000000c77f7fed3b5cc8249adc428c5f44c9063b9734b4",
            "0x0000000000000000000000000000000000000000000000000000000000000000"
          ],
          "data": "0x0000000000000000000000000000000000000000000000000000008b04770565",
          "blockHash": "0x036a1986878982d524b38e710b49b5870780ab418b65563fa2468a9e0fbdd2b2",
          "blockNumber": "0x731f32",
          "transactionHash": "0xa117040073d74f68d21e38bcae07c7e360fea1435ca8c7426ea1ae4081ea76d8",
          "transactionIndex": "0x70",
          "logIndex": "0xf2",
          "removed": false
        },
        {
          "address": "0x8aafd3ede9adb0ff97c7aebce82a919afb1c8764",
          "topics": [
            "0xddf252ad1be2c89b69c2b068fc378daa952ba7f163c4a11628f55a4df523b3ef",
            "0x000000000000000000000000c77f7fed3b5cc8249adc428c5f44c9063b9734b4",
            "0x000000000000000000000000c77f7fed3b5cc8249adc428c5f44c9063b9734b4"
          ],
          "data": "0x000000000000000000000000000000000000000000000000000000011f00f5b8",
          "blockHash": "0x036a1986878982d524b38e710b49b5870780ab418b65563fa2468a9e0fbdd2b2",
          "blockNumber": "0x731f32",
          "transactionHash": "0xa117040073d74f68d21e38bcae07c7e360fea1435ca8c7426ea1ae4081ea76d8",
          "transactionIndex": "0x70",
          "logIndex": "0xf3",
          "removed": false
        },
        {
          "address": "0x8aafd3ede9adb0ff97c7aebce82a919afb1c8764",
          "topics": [
            "0x4afcb4a87cdbd9974efdb92ee48bc8d7cd0ae4bf217004db3d080cbaee652ca7"
          ],
          "data": "0x000000000000000000000000000000000000000000000000000000006790734000000000000000000000000000000000000000000000000000181cfd3788edff00000000000000000000000000000000000000000000000000000000f37f21ef",
          "blockHash": "0x036a1986878982d524b38e710b49b5870780ab418b65563fa2468a9e0fbdd2b2",
          "blockNumber": "0x731f32",
          "transactionHash": "0xa117040073d74f68d21e38bcae07c7e360fea1435ca8c7426ea1ae4081ea76d8",
          "transactionIndex": "0x70",
          "logIndex": "0xf4",
          "removed": false
        }
      ],
      "logsBloom": "0x00000000000000000000000000000000000000000600000000000000000000000000000000000000000000000000000000000000000000004000000000000000000000000000004000000008000000000000000000000000000000000000000000000000020000000000000000000800020000000000000000000010000000000000000000000000000000000000000000000000000000000000010000000000000000000000000000000000000000004000000000000000000000000000000000000002000000800000000000000000000000000000080000000000000020000000000000000000000000000000000000000000000000000000000000000000",
      "type": "0x2",
      "transactionHash": "0xa117040073d74f68d21e38bcae07c7e360fea1435ca8c7426ea1ae4081ea76d8",
      "transactionIndex": "0x70",
      "blockHash": "0x036a1986878982d524b38e710b49b5870780ab418b65563fa2468a9e0fbdd2b2",
      "blockNumber": "0x731f32",
      "gasUsed": "0xfd1b",
      "effectiveGasPrice": "0x44f425cb",
      "from": "0xc77f7fed3b5cc8249adc428c5f44c9063b9734b4",
      "to": "0x8aafd3ede9adb0ff97c7aebce82a919afb1c8764",
      "contractAddress": null
    }
  ],
  "libraries": [],
  "pending": [],
  "returns": {},
  "timestamp": 1737519938,
  "chain": 11155111,
  "commit": "1d2fb70"
}