{
  "transactions": [
    {
      "hash": "0x38ec72422f13ea2e6687fbd589bcf7efc7a425fe99d7a9e59fcbee9da76c8c29",
      "transactionType": "CALL",
      "contractName": null,
      "contractAddress": "0xbf4a322f1496e5c3d34a9bcdb4c60567b38c7de2",
      "function": "sell(uint256)",
      "arguments": [
        "990983058346164737177"
      ],
      "transaction": {
        "from": "0xc77f7fed3b5cc8249adc428c5f44c9063b9734b4",
        "to": "0xbf4a322f1496e5c3d34a9bcdb4c60567b38c7de2",
        "gas": "0x16fea",
        "value": "0x0",
        "input": "0xe4849b32000000000000000000000000000000000000000000000035b8a7111cd159d499",
        "nonce": "0x8ef",
        "chainId": "0xaa36a7"
      },
      "additionalContracts": [],
      "isFixedGasLimit": false
    }
  ],
  "receipts": [
    {
      "status": "0x1",
      "cumulativeGasUsed": "0x1604394",
      "logs": [
        {
          "address": "0xbf4a322f1496e5c3d34a9bcdb4c60567b38c7de2",
          "topics": [
            "0xddf252ad1be2c89b69c2b068fc378daa952ba7f163c4a11628f55a4df523b3ef",
            "0x000000000000000000000000c77f7fed3b5cc8249adc428c5f44c9063b9734b4",
            "0x0000000000000000000000000000000000000000000000000000000000000000"
          ],
          "data": "0x000000000000000000000000000000000000000000000035b8a7111cd159d499",
          "blockHash": "0xb2bf768d2cfa3c87f98e431549500156dd35645df2a08abaa6813799d5d2f905",
          "blockNumber": "0x725866",
          "transactionHash": "0x38ec72422f13ea2e6687fbd589bcf7efc7a425fe99d7a9e59fcbee9da76c8c29",
          "transactionIndex": "0x65",
          "logIndex": "0x90",
          "removed": false
        },
        {
          "address": "0xbf4a322f1496e5c3d34a9bcdb4c60567b38c7de2",
          "topics": [
            "0x4afcb4a87cdbd9974efdb92ee48bc8d7cd0ae4bf217004db3d080cbaee652ca7"
          ],
          "data": "0x00000000000000000000000000000000000000000000000000000000678716f400000000000000000000000000000000000000000000000000038f5fb1416b2f0000000000000000000000000000000000000000000000000dc7e3fb9a14b951",
          "blockHash": "0xb2bf768d2cfa3c87f98e431549500156dd35645df2a08abaa6813799d5d2f905",
          "blockNumber": "0x725866",
          "transactionHash": "0x38ec72422f13ea2e6687fbd589bcf7efc7a425fe99d7a9e59fcbee9da76c8c29",
          "transactionIndex": "0x65",
          "logIndex": "0x91",
          "removed": false
        }
      ],
      "logsBloom": "0x00000000000000000000000000000000000000000000000000000000000000000000000000000000000000000000000000000000000000004000000000000000000000000000000000000008000000000000001000000000000000000000000000000000020000000000000000000800020000000000000000000010000000000000000000000000000000000000000000000000000008000000010000000000000000000000000000000000000000004000000000000000000000000000000000000002000000800000000000001000000000000000080000000000000020000000000000000000000000000000000000000000000000000000000000000000",
      "type": "0x2",
      "transactionHash": "0x38ec72422f13ea2e6687fbd589bcf7efc7a425fe99d7a9e59fcbee9da76c8c29",
      "transactionIndex": "0x65",
      "blockHash": "0xb2bf768d2cfa3c87f98e431549500156dd35645df2a08abaa6813799d5d2f905",
      "blockNumber": "0x725866",
      "gasUsed": "0xfb91",
      "effectiveGasPrice": "0x2566a717",
      "from": "0xc77f7fed3b5cc8249adc428c5f44c9063b9734b4",
      "to": "0xbf4a322f1496e5c3d34a9bcdb4c60567b38c7de2",
      "contractAddress": null
    }
  ],
  "libraries": [],
  "pending": [],
  "returns": {},
  "timestamp": 1736906486,
  "chain": 11155111,
  "commit": "51a374b"
}