{
  "transactions": [
    {
      "hash": "0x58c5da829ef76778ab73ac38c606edcbc2a44bf691a3ac9bb0912ee40be867d6",
      "transactionType": "CALL",
      "contractName": null,
      "contractAddress": "0x270e88f8683660553e8ba4eb2ad7c91a1710d769",
      "function": "buy(address)",
      "arguments": [
        "0xC77f7fed3b5Cc8249aDc428c5F44C9063B9734b4"
      ],
      "transaction": {
        "from": "0xc77f7fed3b5cc8249adc428c5f44c9063b9734b4",
        "to": "0x270e88f8683660553e8ba4eb2ad7c91a1710d769",
        "gas": "0x1b30c",
        "value": "0xde0b6b3a7640000",
        "input": "0xf088d547000000000000000000000000c77f7fed3b5cc8249adc428c5f44c9063b9734b4",
        "nonce": "0x85d",
        "chainId": "0xaa36a7"
      },
      "additionalContracts": [],
      "isFixedGasLimit": false
    }
  ],
  "receipts": [
    {
      "status": "0x1",
      "cumulativeGasUsed": "0x1909bd5",
      "logs": [
        {
          "address": "0x270e88f8683660553e8ba4eb2ad7c91a1710d769",
          "topics": [
            "0xddf252ad1be2c89b69c2b068fc378daa952ba7f163c4a11628f55a4df523b3ef",
            "0x0000000000000000000000000000000000000000000000000000000000000000",
            "0x000000000000000000000000c77f7fed3b5cc8249adc428c5f44c9063b9734b4"
          ],
          "data": "0x000000000000000000000000000000000000000000000026a53c2ffcd2e85f33",
          "blockHash": "0x30b69266f4a6a69f3bec8ec08e13d3f718b8629d4a1d71084bc89777274b6aa4",
          "blockNumber": "0x7255b2",
          "transactionHash": "0x58c5da829ef76778ab73ac38c606edcbc2a44bf691a3ac9bb0912ee40be867d6",
          "transactionIndex": "0x3c",
          "logIndex": "0x181",
          "removed": false
        },
        {
          "address": "0x270e88f8683660553e8ba4eb2ad7c91a1710d769",
          "topics": [
            "0xddf252ad1be2c89b69c2b068fc378daa952ba7f163c4a11628f55a4df523b3ef",
            "0x0000000000000000000000000000000000000000000000000000000000000000",
            "0x000000000000000000000000c77f7fed3b5cc8249adc428c5f44c9063b9734b4"
          ],
          "data": "0x0000000000000000000000000000000000000000000000001e026f3c8d60f8c7",
          "blockHash": "0x30b69266f4a6a69f3bec8ec08e13d3f718b8629d4a1d71084bc89777274b6aa4",
          "blockNumber": "0x7255b2",
          "transactionHash": "0x58c5da829ef76778ab73ac38c606edcbc2a44bf691a3ac9bb0912ee40be867d6",
          "transactionIndex": "0x3c",
          "logIndex": "0x182",
          "removed": false
        },
        {
          "address": "0x270e88f8683660553e8ba4eb2ad7c91a1710d769",
          "topics": [
            "0x4afcb4a87cdbd9974efdb92ee48bc8d7cd0ae4bf217004db3d080cbaee652ca7"
          ],
          "data": "0x000000000000000000000000000000000000000000000000000000006786f6600000000000000000000000000000000000000000000000000004ef25340c76010000000000000000000000000000000000000000000000000de0b6b3a7640000",
          "blockHash": "0x30b69266f4a6a69f3bec8ec08e13d3f718b8629d4a1d71084bc89777274b6aa4",
          "blockNumber": "0x7255b2",
          "transactionHash": "0x58c5da829ef76778ab73ac38c606edcbc2a44bf691a3ac9bb0912ee40be867d6",
          "transactionIndex": "0x3c",
          "logIndex": "0x183",
          "removed": false
        }
      ],
      "logsBloom": "0x00000000000000000000000000000000000000000000000000000000000000000000000000000000000000000000000020000000000000004000000000000000000000000000000000000008000000000000000000000000000000000000000000000000020000000000000000000800020000000000000000000010000000000000000000010000000000000000000000000000000000000000010000000000000000000000000000000000000000004000000000000000000000000000000000000002000000800000000000000000000000000000080000008000000020000000000000000000000000000000000000000000000000000000000000000000",
      "type": "0x2",
      "transactionHash": "0x58c5da829ef76778ab73ac38c606edcbc2a44bf691a3ac9bb0912ee40be867d6",
      "transactionIndex": "0x3c",
      "blockHash": "0x30b69266f4a6a69f3bec8ec08e13d3f718b8629d4a1d71084bc89777274b6aa4",
      "blockNumber": "0x7255b2",
      "gasUsed": "0x13af8",
      "effectiveGasPrice": "0x6a4e0020",
      "from": "0xc77f7fed3b5cc8249adc428c5f44c9063b9734b4",
      "to": "0x270e88f8683660553e8ba4eb2ad7c91a1710d769",
      "contractAddress": null
    }
  ],
  "libraries": [],
  "pending": [],
  "returns": {},
  "timestamp": 1736898144,
  "chain": 11155111,
  "commit": "51a374b"
}