{
  "transactions": [
    {
      "hash": "0x3d890279105aefb77dc5870589b57f93844907120b75ec11909b610f829ede01",
      "transactionType": "CALL",
      "contractName": null,
      "contractAddress": "0x270e88f8683660553e8ba4eb2ad7c91a1710d769",
      "function": "buy(address)",
      "arguments": [
        "0xC77f7fed3b5Cc8249aDc428c5F44C9063B9734b4"
      ],
      "transaction": {
        "from": "0xc77f7fed3b5cc8249adc428c5f44c9063b9734b4",
        "to": "0x270e88f8683660553e8ba4eb2ad7c91a1710d769",
        "gas": "0x1b30c",
        "value": "0xde0b6b3a7640000",
        "input": "0xf088d547000000000000000000000000c77f7fed3b5cc8249adc428c5f44c9063b9734b4",
        "nonce": "0x785",
        "chainId": "0xaa36a7"
      },
      "additionalContracts": [],
      "isFixedGasLimit": false
    }
  ],
  "receipts": [
    {
      "status": "0x1",
      "cumulativeGasUsed": "0xbe06f3",
      "logs": [
        {
          "address": "0x270e88f8683660553e8ba4eb2ad7c91a1710d769",
          "topics": [
            "0xddf252ad1be2c89b69c2b068fc378daa952ba7f163c4a11628f55a4df523b3ef",
            "0x0000000000000000000000000000000000000000000000000000000000000000",
            "0x000000000000000000000000c77f7fed3b5cc8249adc428c5f44c9063b9734b4"
          ],
          "data": "0x000000000000000000000000000000000000000000000027a36fea13c7581993",
          "blockHash": "0x72de06c1eaa5e475a5e8586eab1d65fbb7f0cb4759a0142e2ad19e2632675c04",
          "blockNumber": "0x7254b5",
          "transactionHash": "0x3d890279105aefb77dc5870589b57f93844907120b75ec11909b610f829ede01",
          "transactionIndex": "0x88",
          "logIndex": "0xcf",
          "removed": false
        },
        {
          "address": "0x270e88f8683660553e8ba4eb2ad7c91a1710d769",
          "topics": [
            "0xddf252ad1be2c89b69c2b068fc378daa952ba7f163c4a11628f55a4df523b3ef",
            "0x0000000000000000000000000000000000000000000000000000000000000000",
            "0x000000000000000000000000c77f7fed3b5cc8249adc428c5f44c9063b9734b4"
          ],
          "data": "0x0000000000000000000000000000000000000000000000001ec7d4c219afcd82",
          "blockHash": "0x72de06c1eaa5e475a5e8586eab1d65fbb7f0cb4759a0142e2ad19e2632675c04",
          "blockNumber": "0x7254b5",
          "transactionHash": "0x3d890279105aefb77dc5870589b57f93844907120b75ec11909b610f829ede01",
          "transactionIndex": "0x88",
          "logIndex": "0xd0",
          "removed": false
        },
        {
          "address": "0x270e88f8683660553e8ba4eb2ad7c91a1710d769",
          "topics": [
            "0x4afcb4a87cdbd9974efdb92ee48bc8d7cd0ae4bf217004db3d080cbaee652ca7"
          ],
          "data": "0x000000000000000000000000000000000000000000000000000000006786ea840000000000000000000000000000000000000000000000000004cf814a3abc990000000000000000000000000000000000000000000000000de0b6b3a7640000",
          "blockHash": "0x72de06c1eaa5e475a5e8586eab1d65fbb7f0cb4759a0142e2ad19e2632675c04",
          "blockNumber": "0x7254b5",
          "transactionHash": "0x3d890279105aefb77dc5870589b57f93844907120b75ec11909b610f829ede01",
          "transactionIndex": "0x88",
          "logIndex": "0xd1",
          "removed": false
        }
      ],
      "logsBloom": "0x00000000000000000000000000000000000000000000000000000000000000000000000000000000000000000000000020000000000000004000000000000000000000000000000000000008000000000000000000000000000000000000000000000000020000000000000000000800020000000000000000000010000000000000000000010000000000000000000000000000000000000000010000000000000000000000000000000000000000004000000000000000000000000000000000000002000000800000000000000000000000000000080000008000000020000000000000000000000000000000000000000000000000000000000000000000",
      "type": "0x2",
      "transactionHash": "0x3d890279105aefb77dc5870589b57f93844907120b75ec11909b610f829ede01",
      "transactionIndex": "0x88",
      "blockHash": "0x72de06c1eaa5e475a5e8586eab1d65fbb7f0cb4759a0142e2ad19e2632675c04",
      "blockNumber": "0x7254b5",
      "gasUsed": "0x13af8",
      "effectiveGasPrice": "0x10ba80615",
      "from": "0xc77f7fed3b5cc8249adc428c5f44c9063b9734b4",
      "to": "0x270e88f8683660553e8ba4eb2ad7c91a1710d769",
      "contractAddress": null
    }
  ],
  "libraries": [],
  "pending": [],
  "returns": {},
  "timestamp": 1736895109,
  "chain": 11155111,
  "commit": "51a374b"
}