{
  "transactions": [
    {
      "hash": "0x730d7f5a0381cbe5374c2f52ac060804d57d05ffc8487e8c338c2cdbc8f81f02",
      "transactionType": "CALL",
      "contractName": null,
      "contractAddress": "0x8aafd3ede9adb0ff97c7aebce82a919afb1c8764",
      "function": "sell(uint256)",
      "arguments": [
        "2060005909761648225"
      ],
      "transaction": {
        "from": "0xc77f7fed3b5cc8249adc428c5f44c9063b9734b4",
        "to": "0x8aafd3ede9adb0ff97c7aebce82a919afb1c8764",
        "gas": "0x15dca",
        "value": "0x0",
        "input": "0xe4849b320000000000000000000000000000000000000000000000001c969c75e68c6661",
        "nonce": "0x13e0",
        "chainId": "0xaa36a7"
      },
      "additionalContracts": [],
      "isFixedGasLimit": false
    }
  ],
  "receipts": [
    {
      "status": "0x1",
      "cumulativeGasUsed": "0x7dcbfd",
      "logs": [
        {
          "address": "0x8aafd3ede9adb0ff97c7aebce82a919afb1c8764",
          "topics": [
            "0xddf252ad1be2c89b69c2b068fc378daa952ba7f163c4a11628f55a4df523b3ef",
            "0x000000000000000000000000c77f7fed3b5cc8249adc428c5f44c9063b9734b4",
            "0x0000000000000000000000000000000000000000000000000000000000000000"
          ],
          "data": "0x0000000000000000000000000000000000000000000000001c5c0ff1e2a7f2e0",
          "blockHash": "0xc72c7cc96b76ab21882302fd9c6fd5330bf163eacc440f292f9a26d515a98164",
          "blockNumber": "0x731b0f",
          "transactionHash": "0x730d7f5a0381cbe5374c2f52ac060804d57d05ffc8487e8c338c2cdbc8f81f02",
          "transactionIndex": "0x46",
          "logIndex": "0x40",
          "removed": false
        },
        {
          "address": "0x8aafd3ede9adb0ff97c7aebce82a919afb1c8764",
          "topics": [
            "0xddf252ad1be2c89b69c2b068fc378daa952ba7f163c4a11628f55a4df523b3ef",
            "0x000000000000000000000000c77f7fed3b5cc8249adc428c5f44c9063b9734b4",
            "0x000000000000000000000000c77f7fed3b5cc8249adc428c5f44c9063b9734b4"
          ],
          "data": "0x000000000000000000000000000000000000000000000000003a8c8403e47381",
          "blockHash": "0xc72c7cc96b76ab21882302fd9c6fd5330bf163eacc440f292f9a26d515a98164",
          "blockNumber": "0x731b0f",
          "transactionHash": "0x730d7f5a0381cbe5374c2f52ac060804d57d05ffc8487e8c338c2cdbc8f81f02",
          "transactionIndex": "0x46",
          "logIndex": "0x41",
          "removed": false
        },
        {
          "address": "0x8aafd3ede9adb0ff97c7aebce82a919afb1c8764",
          "topics": [
            "0x4afcb4a87cdbd9974efdb92ee48bc8d7cd0ae4bf217004db3d080cbaee652ca7"
          ],
          "data": "0x0000000000000000000000000000000000000000000000000000000067904184000000000000000000000000000000000000000000000000000dcd84f7fb8c8a000000000000000000000000000000000000000000000000001c6ebd91e1f574",
          "blockHash": "0xc72c7cc96b76ab21882302fd9c6fd5330bf163eacc440f292f9a26d515a98164",
          "blockNumber": "0x731b0f",
          "transactionHash": "0x730d7f5a0381cbe5374c2f52ac060804d57d05ffc8487e8c338c2cdbc8f81f02",
          "transactionIndex": "0x46",
          "logIndex": "0x42",
          "removed": false
        }
      ],
      "logsBloom": "0x00000000000000000000000000000000000000000600000000000000000000000000000000000000000000000000000000000000000000004000000000000000000000000000004000000008000000000000000000000000000000000000000000000000020000000000000000000800020000000000000000000010000000000000000000000000000000000000000000000000000000000000010000000000000000000000000000000000000000004000000000000000000000000000000000000002000000800000000000000000000000000000080000000000000020000000000000000000000000000000000000000000000000000000000000000000",
      "type": "0x2",
      "transactionHash": "0x730d7f5a0381cbe5374c2f52ac060804d57d05ffc8487e8c338c2cdbc8f81f02",
      "transactionIndex": "0x46",
      "blockHash": "0xc72c7cc96b76ab21882302fd9c6fd5330bf163eacc440f292f9a26d515a98164",
      "blockNumber": "0x731b0f",
      "gasUsed": "0xfd3f",
      "effectiveGasPrice": "0x92333f2d",
      "from": "0xc77f7fed3b5cc8249adc428c5f44c9063b9734b4",
      "to": "0x8aafd3ede9adb0ff97c7aebce82a919afb1c8764",
      "contractAddress": null
    }
  ],
  "libraries": [],
  "pending": [],
  "returns": {},
  "timestamp": 1737507205,
  "chain": 11155111,
  "commit": "1d2fb70"
}