{
  "transactions": [
    {
      "hash": "0x4d7c00328f2c4c78d8372ef94ab9e5a6133832df2259bdce95d2216dabdff859",
      "transactionType": "CALL",
      "contractName": null,
      "contractAddress": "0xbf4a322f1496e5c3d34a9bcdb4c60567b38c7de2",
      "function": "buy(address)",
      "arguments": [
        "0xC77f7fed3b5Cc8249aDc428c5F44C9063B9734b4"
      ],
      "transaction": {
        "from": "0xc77f7fed3b5cc8249adc428c5f44c9063b9734b4",
        "to": "0xbf4a322f1496e5c3d34a9bcdb4c60567b38c7de2",
        "gas": "0x1b309",
        "value": "0xde0b6b3a7640000",
        "input": "0xf088d547000000000000000000000000c77f7fed3b5cc8249adc428c5f44c9063b9734b4",
        "nonce": "0x968",
        "chainId": "0xaa36a7"
      },
      "additionalContracts": [],
      "isFixedGasLimit": false
    }
  ],
  "receipts": [
    {
      "status": "0x1",
      "cumulativeGasUsed": "0x7193bb",
      "logs": [
        {
          "address": "0xbf4a322f1496e5c3d34a9bcdb4c60567b38c7de2",
          "topics": [
            "0xddf252ad1be2c89b69c2b068fc378daa952ba7f163c4a11628f55a4df523b3ef",
            "0x0000000000000000000000000000000000000000000000000000000000000000",
            "0x000000000000000000000000c77f7fed3b5cc8249adc428c5f44c9063b9734b4"
          ],
          "data": "0x00000000000000000000000000000000000000000000003577ed56bfebc04f7f",
          "blockHash": "0xa75eff08c4aea1506c3d9655efdb148dee28b07372ca618eba6e8c348ccb2e48",
          "blockNumber": "0x7258ff",
          "transactionHash": "0x4d7c00328f2c4c78d8372ef94ab9e5a6133832df2259bdce95d2216dabdff859",
          "transactionIndex": "0x3f",
          "logIndex": "0x49",
          "removed": false
        },
        {
          "address": "0xbf4a322f1496e5c3d34a9bcdb4c60567b38c7de2",
          "topics": [
            "0xddf252ad1be2c89b69c2b068fc378daa952ba7f163c4a11628f55a4df523b3ef",
            "0x0000000000000000000000000000000000000000000000000000000000000000",
            "0x000000000000000000000000c77f7fed3b5cc8249adc428c5f44c9063b9734b4"
          ],
          "data": "0x0000000000000000000000000000000000000000000000002985246d2441cfec",
          "blockHash": "0xa75eff08c4aea1506c3d9655efdb148dee28b07372ca618eba6e8c348ccb2e48",
          "blockNumber": "0x7258ff",
          "transactionHash": "0x4d7c00328f2c4c78d8372ef94ab9e5a6133832df2259bdce95d2216dabdff859",
          "transactionIndex": "0x3f",
          "logIndex": "0x4a",
          "removed": false
        },
        {
          "address": "0xbf4a322f1496e5c3d34a9bcdb4c60567b38c7de2",
          "topics": [
            "0x4afcb4a87cdbd9974efdb92ee48bc8d7cd0ae4bf217004db3d080cbaee652ca7"
          ],
          "data": "0x0000000000000000000000000000000000000000000000000000000067871e20000000000000000000000000000000000000000000000000000390e5e3157ffa0000000000000000000000000000000000000000000000000de0b6b3a7640000",
          "blockHash": "0xa75eff08c4aea1506c3d9655efdb148dee28b07372ca618eba6e8c348ccb2e48",
          "blockNumber": "0x7258ff",
          "transactionHash": "0x4d7c00328f2c4c78d8372ef94ab9e5a6133832df2259bdce95d2216dabdff859",
          "transactionIndex": "0x3f",
          "logIndex": "0x4b",
          "removed": false
        }
      ],
      "logsBloom": "0x00000000000000000000000000000000000000000000000000000000000000000000000000000000000000000000000000000000000000004000000000000000000000000000000000000008000000000000001000000000000000000000000000000000020000000000000000000800020000000000000000000010000000000000000000000000000000000000000000000000000008000000010000000000000000000000000000000000000000004000000000000000000000000000000000000002000000800000000000001000000000000000080000000000000020000000000000000000000000000000000000000000000000000000000000000000",
      "type": "0x2",
      "transactionHash": "0x4d7c00328f2c4c78d8372ef94ab9e5a6133832df2259bdce95d2216dabdff859",
      "transactionIndex": "0x3f",
      "blockHash": "0xa75eff08c4aea1506c3d9655efdb148dee28b07372ca618eba6e8c348ccb2e48",
      "blockNumber": "0x7258ff",
      "gasUsed": "0x13af6",
      "effectiveGasPrice": "0xac296197",
      "from": "0xc77f7fed3b5cc8249adc428c5f44c9063b9734b4",
      "to": "0xbf4a322f1496e5c3d34a9bcdb4c60567b38c7de2",
      "contractAddress": null
    }
  ],
  "libraries": [],
  "pending": [],
  "returns": {},
  "timestamp": 1736908322,
  "chain": 11155111,
  "commit": "51a374b"
}