{
  "transactions": [
    {
      "hash": "0x3d1c0495cdc5da3f420fc9f8f33d77bc22ce7693228903bfbc39d4a16c5d5f9f",
      "transactionType": "CALL",
      "contractName": null,
      "contractAddress": "0x8aafd3ede9adb0ff97c7aebce82a919afb1c8764",
      "function": "sell(uint256)",
      "arguments": [
        "597952"
      ],
      "transaction": {
        "from": "0xc77f7fed3b5cc8249adc428c5f44c9063b9734b4",
        "to": "0x8aafd3ede9adb0ff97c7aebce82a919afb1c8764",
        "gas": "0x16208",
        "value": "0x0",
        "input": "0xe4849b320000000000000000000000000000000000000000000000000000000000091fc0",
        "nonce": "0x1371",
        "chainId": "0xaa36a7"
      },
      "additionalContracts": [],
      "isFixedGasLimit": false
    }
  ],
  "receipts": [
    {
      "status": "0x1",
      "cumulativeGasUsed": "0x1313a9a",
      "logs": [
        {
          "address": "0x8aafd3ede9adb0ff97c7aebce82a919afb1c8764",
          "topics": [
            "0xddf252ad1be2c89b69c2b068fc378daa952ba7f163c4a11628f55a4df523b3ef",
            "0x000000000000000000000000c77f7fed3b5cc8249adc428c5f44c9063b9734b4",
            "0x0000000000000000000000000000000000000000000000000000000000000000"
          ],
          "data": "0x0000000000000000000000000000000000000000000000000000000000090d11",
          "blockHash": "0x9e1f1788c8556ccd5cd44bf7e8027b239a2a54e1c3f6980c155174e7a9d080b5",
          "blockNumber": "0x731a92",
          "transactionHash": "0x3d1c0495cdc5da3f420fc9f8f33d77bc22ce7693228903bfbc39d4a16c5d5f9f",
          "transactionIndex": "0xac",
          "logIndex": "0x102",
          "removed": false
        },
        {
          "address": "0x8aafd3ede9adb0ff97c7aebce82a919afb1c8764",
          "topics": [
            "0xddf252ad1be2c89b69c2b068fc378daa952ba7f163c4a11628f55a4df523b3ef",
            "0x000000000000000000000000c77f7fed3b5cc8249adc428c5f44c9063b9734b4",
            "0x000000000000000000000000c77f7fed3b5cc8249adc428c5f44c9063b9734b4"
          ],
          "data": "0x00000000000000000000000000000000000000000000000000000000000012af",
          "blockHash": "0x9e1f1788c8556ccd5cd44bf7e8027b239a2a54e1c3f6980c155174e7a9d080b5",
          "blockNumber": "0x731a92",
          "transactionHash": "0x3d1c0495cdc5da3f420fc9f8f33d77bc22ce7693228903bfbc39d4a16c5d5f9f",
          "transactionIndex": "0xac",
          "logIndex": "0x103",
          "removed": false
        },
        {
          "address": "0x8aafd3ede9adb0ff97c7aebce82a919afb1c8764",
          "topics": [
            "0x4afcb4a87cdbd9974efdb92ee48bc8d7cd0ae4bf217004db3d080cbaee652ca7"
          ],
          "data": "0x0000000000000000000000000000000000000000000000000000000067903ba8000000000000000000000000000000000000000000000000000c798b18eb72b00000000000000000000000000000000000000000000000000000000000000833",
          "blockHash": "0x9e1f1788c8556ccd5cd44bf7e8027b239a2a54e1c3f6980c155174e7a9d080b5",
          "blockNumber": "0x731a92",
          "transactionHash": "0x3d1c0495cdc5da3f420fc9f8f33d77bc22ce7693228903bfbc39d4a16c5d5f9f",
          "transactionIndex": "0xac",
          "logIndex": "0x104",
          "removed": false
        }
      ],
      "logsBloom": "0x00000000000000000000000000000000000000000600000000000000000000000000000000000000000000000000000000000000000000004000000000000000000000000000004000000008000000000000000000000000000000000000000000000000020000000000000000000800020000000000000000000010000000000000000000000000000000000000000000000000000000000000010000000000000000000000000000000000000000004000000000000000000000000000000000000002000000800000000000000000000000000000080000000000000020000000000000000000000000000000000000000000000000000000000000000000",
      "type": "0x2",
      "transactionHash": "0x3d1c0495cdc5da3f420fc9f8f33d77bc22ce7693228903bfbc39d4a16c5d5f9f",
      "transactionIndex": "0xac",
      "blockHash": "0x9e1f1788c8556ccd5cd44bf7e8027b239a2a54e1c3f6980c155174e7a9d080b5",
      "blockNumber": "0x731a92",
      "gasUsed": "0xf213",
      "effectiveGasPrice": "0x76e5c074",
      "from": "0xc77f7fed3b5cc8249adc428c5f44c9063b9734b4",
      "to": "0x8aafd3ede9adb0ff97c7aebce82a919afb1c8764",
      "contractAddress": null
    }
  ],
  "libraries": [],
  "pending": [],
  "returns": {},
  "timestamp": 1737505706,
  "chain": 11155111,
  "commit": "1d2fb70"
}