{
  "transactions": [
    {
      "hash": "0x5e5ff2ea75f3687689f7567ed2e008239d4b5eedc886662f2262a09c9b8b79c3",
      "transactionType": "CALL",
      "contractName": null,
      "contractAddress": "0x5eb9cc76c3506942c1c0ead70e877dd5e4f00cb0",
      "function": "buy(address)",
      "arguments": [
        "0xC77f7fed3b5Cc8249aDc428c5F44C9063B9734b4"
      ],
      "transaction": {
        "from": "0xc77f7fed3b5cc8249adc428c5f44c9063b9734b4",
        "to": "0x5eb9cc76c3506942c1c0ead70e877dd5e4f00cb0",
        "gas": "0x1b30c",
        "value": "0xde0b6b3a7640000",
        "input": "0xf088d547000000000000000000000000c77f7fed3b5cc8249adc428c5f44c9063b9734b4",
        "nonce": "0x49c",
        "chainId": "0xaa36a7"
      },
      "additionalContracts": [],
      "isFixedGasLimit": false
    }
  ],
  "receipts": [
    {
      "status": "0x1",
      "cumulativeGasUsed": "0x1728c8e",
      "logs": [
        {
          "address": "0x5eb9cc76c3506942c1c0ead70e877dd5e4f00cb0",
          "topics": [
            "0xddf252ad1be2c89b69c2b068fc378daa952ba7f163c4a11628f55a4df523b3ef",
            "0x0000000000000000000000000000000000000000000000000000000000000000",
            "0x000000000000000000000000c77f7fed3b5cc8249adc428c5f44c9063b9734b4"
          ],
          "data": "0x00000000000000000000000000000000000000000000003574aa2c1f986f9cda",
          "blockHash": "0xd53a4f8334fab968a68f15534168e6e454876247291a5b6cc2437cb97f20fe86",
          "blockNumber": "0x7250d4",
          "transactionHash": "0x5e5ff2ea75f3687689f7567ed2e008239d4b5eedc886662f2262a09c9b8b79c3",
          "transactionIndex": "0x66",
          "logIndex": "0x8e",
          "removed": false
        },
        {
          "address": "0x5eb9cc76c3506942c1c0ead70e877dd5e4f00cb0",
          "topics": [
            "0xddf252ad1be2c89b69c2b068fc378daa952ba7f163c4a11628f55a4df523b3ef",
            "0x0000000000000000000000000000000000000000000000000000000000000000",
            "0x000000000000000000000000c77f7fed3b5cc8249adc428c5f44c9063b9734b4"
          ],
          "data": "0x00000000000000000000000000000000000000000000000029829be41c0b7d55",
          "blockHash": "0xd53a4f8334fab968a68f15534168e6e454876247291a5b6cc2437cb97f20fe86",
          "blockNumber": "0x7250d4",
          "transactionHash": "0x5e5ff2ea75f3687689f7567ed2e008239d4b5eedc886662f2262a09c9b8b79c3",
          "transactionIndex": "0x66",
          "logIndex": "0x8f",
          "removed": false
        },
        {
          "address": "0x5eb9cc76c3506942c1c0ead70e877dd5e4f00cb0",
          "topics": [
            "0x4afcb4a87cdbd9974efdb92ee48bc8d7cd0ae4bf217004db3d080cbaee652ca7"
          ],
          "data": "0x000000000000000000000000000000000000000000000000000000006786bbbc0000000000000000000000000000000000000000000000000003911b4c898c280000000000000000000000000000000000000000000000000de0b6b3a7640000",
          "blockHash": "0xd53a4f8334fab968a68f15534168e6e454876247291a5b6cc2437cb97f20fe86",
          "blockNumber": "0x7250d4",
          "transactionHash": "0x5e5ff2ea75f3687689f7567ed2e008239d4b5eedc886662f2262a09c9b8b79c3",
          "transactionIndex": "0x66",
          "logIndex": "0x90",
          "removed": false
        }
      ],
      "logsBloom": "0x00000000000000000000000000000000000000000000000000000000000000000000000000000000000000000000000000000000000000004000000000000000000000000000000000000008000000000000000000000000000000000000000000000000020000000000000004000800020000000000000000000010000000000000000000000000000000000000000000000000000000000000010000000000000000000000000000000000000000004000000000000000000000000000020000000002000000800000008000000000000000000000080000000000000020000000000000000000000000000000000000000000000000000000000000000000",
      "type": "0x2",
      "transactionHash": "0x5e5ff2ea75f3687689f7567ed2e008239d4b5eedc886662f2262a09c9b8b79c3",
      "transactionIndex": "0x66",
      "blockHash": "0xd53a4f8334fab968a68f15534168e6e454876247291a5b6cc2437cb97f20fe86",
      "blockNumber": "0x7250d4",
      "gasUsed": "0x13af8",
      "effectiveGasPrice": "0x211e7485a",
      "from": "0xc77f7fed3b5cc8249adc428c5f44c9063b9734b4",
      "to": "0x5eb9cc76c3506942c1c0ead70e877dd5e4f00cb0",
      "contractAddress": null
    }
  ],
  "libraries": [],
  "pending": [],
  "returns": {},
  "timestamp": 1736883133,
  "chain": 11155111,
  "commit": "51a374b"
}