{
  "transactions": [
    {
      "hash": "0x4a5e6d2a59f8df62a3cc17ecf590b3eb3e0776f8d156e8780c6ce650c34fcec4",
      "transactionType": "CALL",
      "contractName": null,
      "contractAddress": "0x5eb9cc76c3506942c1c0ead70e877dd5e4f00cb0",
      "function": "sell(uint256)",
      "arguments": [
        "989620002605269744014"
      ],
      "transaction": {
        "from": "0xc77f7fed3b5cc8249adc428c5f44c9063b9734b4",
        "to": "0x5eb9cc76c3506942c1c0ead70e877dd5e4f00cb0",
        "gas": "0x16fec",
        "value": "0x0",
        "input": "0xe4849b32000000000000000000000000000000000000000000000035a5bc8523543f798e",
        "nonce": "0x22f",
        "chainId": "0xaa36a7"
      },
      "additionalContracts": [],
      "isFixedGasLimit": false
    }
  ],
  "receipts": [
    {
      "status": "0x1",
      "cumulativeGasUsed": "0x18574b7",
      "logs": [
        {
          "address": "0x5eb9cc76c3506942c1c0ead70e877dd5e4f00cb0",
          "topics": [
            "0xddf252ad1be2c89b69c2b068fc378daa952ba7f163c4a11628f55a4df523b3ef",
            "0x000000000000000000000000c77f7fed3b5cc8249adc428c5f44c9063b9734b4",
            "0x0000000000000000000000000000000000000000000000000000000000000000"
          ],
          "data": "0x000000000000000000000000000000000000000000000035a5bc8523543f798e",
          "blockHash": "0x4a24b47d122a1530e71f43fbc86386923bc5942e1ace28694e512d4ec2074b05",
          "blockNumber": "0x724ddf",
          "transactionHash": "0x4a5e6d2a59f8df62a3cc17ecf590b3eb3e0776f8d156e8780c6ce650c34fcec4",
          "transactionIndex": "0xd4",
          "logIndex": "0x19d",
          "removed": false
        },
        {
          "address": "0x5eb9cc76c3506942c1c0ead70e877dd5e4f00cb0",
          "topics": [
            "0x4afcb4a87cdbd9974efdb92ee48bc8d7cd0ae4bf217004db3d080cbaee652ca7"
          ],
          "data": "0x00000000000000000000000000000000000000000000000000000000678698280000000000000000000000000000000000000000000000000003909aa4614b2b0000000000000000000000000000000000000000000000000dc7db1183832458",
          "blockHash": "0x4a24b47d122a1530e71f43fbc86386923bc5942e1ace28694e512d4ec2074b05",
          "blockNumber": "0x724ddf",
          "transactionHash": "0x4a5e6d2a59f8df62a3cc17ecf590b3eb3e0776f8d156e8780c6ce650c34fcec4",
          "transactionIndex": "0xd4",
          "logIndex": "0x19e",
          "removed": false
        }
      ],
      "logsBloom": "0x00000000000000000000000000000000000000000000000000000000000000000000000000000000000000000000000000000000000000004000000000000000000000000000000000000008000000000000000000000000000000000000000000000000020000000000000004000800020000000000000000000010000000000000000000000000000000000000000000000000000000000000010000000000000000000000000000000000000000004000000000000000000000000000020000000002000000800000008000000000000000000000080000000000000020000000000000000000000000000000000000000000000000000000000000000000",
      "type": "0x2",
      "transactionHash": "0x4a5e6d2a59f8df62a3cc17ecf590b3eb3e0776f8d156e8780c6ce650c34fcec4",
      "transactionIndex": "0xd4",
      "blockHash": "0x4a24b47d122a1530e71f43fbc86386923bc5942e1ace28694e512d4ec2074b05",
      "blockNumber": "0x724ddf",
      "gasUsed": "0xfb93",
      "effectiveGasPrice": "0x3d2e251ab",
      "from": "0xc77f7fed3b5cc8249adc428c5f44c9063b9734b4",
      "to": "0x5eb9cc76c3506942c1c0ead70e877dd5e4f00cb0",
      "contractAddress": null
    }
  ],
  "libraries": [],
  "pending": [],
  "returns": {},
  "timestamp": 1736874025,
  "chain": 11155111,
  "commit": "51a374b"
}