{
  "transactions": [
    {
      "hash": "0x2e85511b1c9273a74114890e1b7e54129e75fe00028f398ecb3e684e85188cb7",
      "transactionType": "CALL",
      "contractName": null,
      "contractAddress": "0x8aafd3ede9adb0ff97c7aebce82a919afb1c8764",
      "function": "sell(uint256)",
      "arguments": [
        "1207565334470"
      ],
      "transaction": {
        "from": "0xc77f7fed3b5cc8249adc428c5f44c9063b9734b4",
        "to": "0x8aafd3ede9adb0ff97c7aebce82a919afb1c8764",
        "gas": "0x15daa",
        "value": "0x0",
        "input": "0xe4849b32000000000000000000000000000000000000000000000000000001192880b7c6",
        "nonce": "0x134a",
        "chainId": "0xaa36a7"
      },
      "additionalContracts": [],
      "isFixedGasLimit": false
    }
  ],
  "receipts": [
    {
      "status": "0x1",
      "cumulativeGasUsed": "0x9e6ed3",
      "logs": [
        {
          "address": "0x8aafd3ede9adb0ff97c7aebce82a919afb1c8764",
          "topics": [
            "0xddf252ad1be2c89b69c2b068fc378daa952ba7f163c4a11628f55a4df523b3ef",
            "0x000000000000000000000000c77f7fed3b5cc8249adc428c5f44c9063b9734b4",
            "0x0000000000000000000000000000000000000000000000000000000000000000"
          ],
          "data": "0x00000000000000000000000000000000000000000000000000000116e8b0d713",
          "blockHash": "0xe331f8b664a3ece80e1fad6f01412e6abf805c8e8efc3219bd2bac71bd1233fe",
          "blockNumber": "0x731a63",
          "transactionHash": "0x2e85511b1c9273a74114890e1b7e54129e75fe00028f398ecb3e684e85188cb7",
          "transactionIndex": "0x6f",
          "logIndex": "0x95",
          "removed": false
        },
        {
          "address": "0x8aafd3ede9adb0ff97c7aebce82a919afb1c8764",
          "topics": [
            "0xddf252ad1be2c89b69c2b068fc378daa952ba7f163c4a11628f55a4df523b3ef",
            "0x000000000000000000000000c77f7fed3b5cc8249adc428c5f44c9063b9734b4",
            "0x000000000000000000000000c77f7fed3b5cc8249adc428c5f44c9063b9734b4"
          ],
          "data": "0x000000000000000000000000000000000000000000000000000000023fcfe0b3",
          "blockHash": "0xe331f8b664a3ece80e1fad6f01412e6abf805c8e8efc3219bd2bac71bd1233fe",
          "blockNumber": "0x731a63",
          "transactionHash": "0x2e85511b1c9273a74114890e1b7e54129e75fe00028f398ecb3e684e85188cb7",
          "transactionIndex": "0x6f",
          "logIndex": "0x96",
          "removed": false
        },
        {
          "address": "0x8aafd3ede9adb0ff97c7aebce82a919afb1c8764",
          "topics": [
            "0x4afcb4a87cdbd9974efdb92ee48bc8d7cd0ae4bf217004db3d080cbaee652ca7"
          ],
          "data": "0x0000000000000000000000000000000000000000000000000000000067903974000000000000000000000000000000000000000000000000000c116145adf0a900000000000000000000000000000000000000000000000000000000f47d8dec",
          "blockHash": "0xe331f8b664a3ece80e1fad6f01412e6abf805c8e8efc3219bd2bac71bd1233fe",
          "blockNumber": "0x731a63",
          "transactionHash": "0x2e85511b1c9273a74114890e1b7e54129e75fe00028f398ecb3e684e85188cb7",
          "transactionIndex": "0x6f",
          "logIndex": "0x97",
          "removed": false
        }
      ],
      "logsBloom": "0x00000000000000000000000000000000000000000600000000000000000000000000000000000000000000000000000000000000000000004000000000000000000000000000004000000008000000000000000000000000000000000000000000000000020000000000000000000800020000000000000000000010000000000000000000000000000000000000000000000000000000000000010000000000000000000000000000000000000000004000000000000000000000000000000000000002000000800000000000000000000000000000080000000000000020000000000000000000000000000000000000000000000000000000000000000000",
      "type": "0x2",
      "transactionHash": "0x2e85511b1c9273a74114890e1b7e54129e75fe00028f398ecb3e684e85188cb7",
      "transactionIndex": "0x6f",
      "blockHash": "0xe331f8b664a3ece80e1fad6f01412e6abf805c8e8efc3219bd2bac71bd1233fe",
      "blockNumber": "0x731a63",
      "gasUsed": "0xfd27",
      "effectiveGasPrice": "0x3bb28b20",
      "from": "0xc77f7fed3b5cc8249adc428c5f44c9063b9734b4",
      "to": "0x8aafd3ede9adb0ff97c7aebce82a919afb1c8764",
      "contractAddress": null
    }
  ],
  "libraries": [],
  "pending": [],
  "returns": {},
  "timestamp": 1737505142,
  "chain": 11155111,
  "commit": "1d2fb70"
}