{
  "transactions": [
    {
      "hash": "0x27fb90ed080c3f377bef509c1c703c14fd46b74abad3a639dfd89bc2c091f61f",
      "transactionType": "CALL",
      "contractName": null,
      "contractAddress": "0x270e88f8683660553e8ba4eb2ad7c91a1710d769",
      "function": "sell(uint256)",
      "arguments": [
        "969915760674153689938"
      ],
      "transaction": {
        "from": "0xc77f7fed3b5cc8249adc428c5f44c9063b9734b4",
        "to": "0x270e88f8683660553e8ba4eb2ad7c91a1710d769",
        "gas": "0x16fec",
        "value": "0x0",
        "input": "0xe4849b320000000000000000000000000000000000000000000000349448fd7fcbb7f352",
        "nonce": "0x569",
        "chainId": "0xaa36a7"
      },
      "additionalContracts": [],
      "isFixedGasLimit": false
    }
  ],
  "receipts": [
    {
      "status": "0x1",
      "cumulativeGasUsed": "0x7654df",
      "logs": [
        {
          "address": "0x270e88f8683660553e8ba4eb2ad7c91a1710d769",
          "topics": [
            "0xddf252ad1be2c89b69c2b068fc378daa952ba7f163c4a11628f55a4df523b3ef",
            "0x000000000000000000000000c77f7fed3b5cc8249adc428c5f44c9063b9734b4",
            "0x0000000000000000000000000000000000000000000000000000000000000000"
          ],
          "data": "0x0000000000000000000000000000000000000000000000349448fd7fcbb7f352",
          "blockHash": "0x29eb68a2605241547478dfe60b420febe9e31a02222631a0411183da598cd7a6",
          "blockNumber": "0x725210",
          "transactionHash": "0x27fb90ed080c3f377bef509c1c703c14fd46b74abad3a639dfd89bc2c091f61f",
          "transactionIndex": "0x49",
          "logIndex": "0x6a",
          "removed": false
        },
        {
          "address": "0x270e88f8683660553e8ba4eb2ad7c91a1710d769",
          "topics": [
            "0x4afcb4a87cdbd9974efdb92ee48bc8d7cd0ae4bf217004db3d080cbaee652ca7"
          ],
          "data": "0x000000000000000000000000000000000000000000000000000000006786cab00000000000000000000000000000000000000000000000000003a36faf522ccb0000000000000000000000000000000000000000000000000dc8403479aac22d",
          "blockHash": "0x29eb68a2605241547478dfe60b420febe9e31a02222631a0411183da598cd7a6",
          "blockNumber": "0x725210",
          "transactionHash": "0x27fb90ed080c3f377bef509c1c703c14fd46b74abad3a639dfd89bc2c091f61f",
          "transactionIndex": "0x49",
          "logIndex": "0x6b",
          "removed": false
        }
      ],
      "logsBloom": "0x00000000000000000000000000000000000000000000000000000000000000000000000000000000000000000000000020000000000000004000000000000000000000000000000000000008000000000000000000000000000000000000000000000000020000000000000000000800020000000000000000000010000000000000000000010000000000000000000000000000000000000000010000000000000000000000000000000000000000004000000000000000000000000000000000000002000000800000000000000000000000000000080000008000000020000000000000000000000000000000000000000000000000000000000000000000",
      "type": "0x2",
      "transactionHash": "0x27fb90ed080c3f377bef509c1c703c14fd46b74abad3a639dfd89bc2c091f61f",
      "transactionIndex": "0x49",
      "blockHash": "0x29eb68a2605241547478dfe60b420febe9e31a02222631a0411183da598cd7a6",
      "blockNumber": "0x725210",
      "gasUsed": "0xfb93",
      "effectiveGasPrice": "0x4cc1dc2cc",
      "from": "0xc77f7fed3b5cc8249adc428c5f44c9063b9734b4",
      "to": "0x270e88f8683660553e8ba4eb2ad7c91a1710d769",
      "contractAddress": null
    }
  ],
  "libraries": [],
  "pending": [],
  "returns": {},
  "timestamp": 1736886961,
  "chain": 11155111,
  "commit": "51a374b"
}