{
  "transactions": [
    {
      "hash": "0xae471e2fdb9cce489823c750fb693fe2da76cd5253c86f2ba93d710bf1eb2848",
      "transactionType": "CALL",
      "contractName": null,
      "contractAddress": "0xbf4a322f1496e5c3d34a9bcdb4c60567b38c7de2",
      "function": "sell(uint256)",
      "arguments": [
        "988326748049520755878"
      ],
      "transaction": {
        "from": "0xc77f7fed3b5cc8249adc428c5f44c9063b9734b4",
        "to": "0xbf4a322f1496e5c3d34a9bcdb4c60567b38c7de2",
        "gas": "0x16fea",
        "value": "0x0",
        "input": "0xe4849b3200000000000000000000000000000000000000000000003593c9f4f8b4ac84a6",
        "nonce": "0x9b1",
        "chainId": "0xaa36a7"
      },
      "additionalContracts": [],
      "isFixedGasLimit": false
    }
  ],
  "receipts": [
    {
      "status": "0x1",
      "cumulativeGasUsed": "0x1a2de6a",
      "logs": [
        {
          "address": "0xbf4a322f1496e5c3d34a9bcdb4c60567b38c7de2",
          "topics": [
            "0xddf252ad1be2c89b69c2b068fc378daa952ba7f163c4a11628f55a4df523b3ef",
            "0x000000000000000000000000c77f7fed3b5cc8249adc428c5f44c9063b9734b4",
            "0x0000000000000000000000000000000000000000000000000000000000000000"
          ],
          "data": "0x00000000000000000000000000000000000000000000003593c9f4f8b4ac84a6",
          "blockHash": "0x428be02d0ce24f4f288fdbfa75bbcd0a7fd043906750c270c0e5a411702c92f8",
          "blockNumber": "0x72595b",
          "transactionHash": "0xae471e2fdb9cce489823c750fb693fe2da76cd5253c86f2ba93d710bf1eb2848",
          "transactionIndex": "0xbf",
          "logIndex": "0x123",
          "removed": false
        },
        {
          "address": "0xbf4a322f1496e5c3d34a9bcdb4c60567b38c7de2",
          "topics": [
            "0x4afcb4a87cdbd9974efdb92ee48bc8d7cd0ae4bf217004db3d080cbaee652ca7"
          ],
          "data": "0x0000000000000000000000000000000000000000000000000000000067872270000000000000000000000000000000000000000000000000000391d2be434e020000000000000000000000000000000000000000000000000dc7e3f56d112ce3",
          "blockHash": "0x428be02d0ce24f4f288fdbfa75bbcd0a7fd043906750c270c0e5a411702c92f8",
          "blockNumber": "0x72595b",
          "transactionHash": "0xae471e2fdb9cce489823c750fb693fe2da76cd5253c86f2ba93d710bf1eb2848",
          "transactionIndex": "0xbf",
          "logIndex": "0x124",
          "removed": false
        }
      ],
      "logsBloom": "0x00000000000000000000000000000000000000000000000000000000000000000000000000000000000000000000000000000000000000004000000000000000000000000000000000000008000000000000001000000000000000000000000000000000020000000000000000000800020000000000000000000010000000000000000000000000000000000000000000000000000008000000010000000000000000000000000000000000000000004000000000000000000000000000000000000002000000800000000000001000000000000000080000000000000020000000000000000000000000000000000000000000000000000000000000000000",
      "type": "0x2",
      "transactionHash": "0xae471e2fdb9cce489823c750fb693fe2da76cd5253c86f2ba93d710bf1eb2848",
      "transactionIndex": "0xbf",
      "blockHash": "0x428be02d0ce24f4f288fdbfa75bbcd0a7fd043906750c270c0e5a411702c92f8",
      "blockNumber": "0x72595b",
      "gasUsed": "0xfb91",
      "effectiveGasPrice": "0x2421b535c",
      "from": "0xc77f7fed3b5cc8249adc428c5f44c9063b9734b4",
      "to": "0xbf4a322f1496e5c3d34a9bcdb4c60567b38c7de2",
      "contractAddress": null
    }
  ],
  "libraries": [],
  "pending": [],
  "returns": {},
  "timestamp": 1736909425,
  "chain": 11155111,
  "commit": "51a374b"
}