{
  "transactions": [
    {
      "hash": "0x9a72aab80d72e60eab1e4852e3e70f77bff9f0d7da269a4ca636708fc9f0b781",
      "transactionType": "CALL",
      "contractName": null,
      "contractAddress": "0xbf4a322f1496e5c3d34a9bcdb4c60567b38c7de2",
      "function": "sell(uint256)",
      "arguments": [
        "984870345646025256563"
      ],
      "transaction": {
        "from": "0xc77f7fed3b5cc8249adc428c5f44c9063b9734b4",
        "to": "0xbf4a322f1496e5c3d34a9bcdb4c60567b38c7de2",
        "gas": "0x16fea",
        "value": "0x0",
        "input": "0xe4849b3200000000000000000000000000000000000000000000003563d2594c5f84ae73",
        "nonce": "0xaaf",
        "chainId": "0xaa36a7"
      },
      "additionalContracts": [],
      "isFixedGasLimit": false
    }
  ],
  "receipts": [
    {
      "status": "0x1",
      "cumulativeGasUsed": "0x4f654f",
      "logs": [
        {
          "address": "0xbf4a322f1496e5c3d34a9bcdb4c60567b38c7de2",
          "topics": [
            "0xddf252ad1be2c89b69c2b068fc378daa952ba7f163c4a11628f55a4df523b3ef",
            "0x000000000000000000000000c77f7fed3b5cc8249adc428c5f44c9063b9734b4",
            "0x0000000000000000000000000000000000000000000000000000000000000000"
          ],
          "data": "0x00000000000000000000000000000000000000000000003563d2594c5f84ae73",
          "blockHash": "0x70465a502a132163ac6654c49bef0e29cae23783727fc91e2c57fe6b2d7ece64",
          "blockNumber": "0x725a99",
          "transactionHash": "0x9a72aab80d72e60eab1e4852e3e70f77bff9f0d7da269a4ca636708fc9f0b781",
          "transactionIndex": "0x38",
          "logIndex": "0x4f",
          "removed": false
        },
        {
          "address": "0xbf4a322f1496e5c3d34a9bcdb4c60567b38c7de2",
          "topics": [
            "0x4afcb4a87cdbd9974efdb92ee48bc8d7cd0ae4bf217004db3d080cbaee652ca7"
          ],
          "data": "0x000000000000000000000000000000000000000000000000000000006787317c00000000000000000000000000000000000000000000000000039507ba81a0f60000000000000000000000000000000000000000000000000dc7e3ed63d3bae0",
          "blockHash": "0x70465a502a132163ac6654c49bef0e29cae23783727fc91e2c57fe6b2d7ece64",
          "blockNumber": "0x725a99",
          "transactionHash": "0x9a72aab80d72e60eab1e4852e3e70f77bff9f0d7da269a4ca636708fc9f0b781",
          "transactionIndex": "0x38",
          "logIndex": "0x50",
          "removed": false
        }
      ],
      "logsBloom": "0x00000000000000000000000000000000000000000000000000000000000000000000000000000000000000000000000000000000000000004000000000000000000000000000000000000008000000000000001000000000000000000000000000000000020000000000000000000800020000000000000000000010000000000000000000000000000000000000000000000000000008000000010000000000000000000000000000000000000000004000000000000000000000000000000000000002000000800000000000001000000000000000080000000000000020000000000000000000000000000000000000000000000000000000000000000000",
      "type": "0x2",
      "transactionHash": "0x9a72aab80d72e60eab1e4852e3e70f77bff9f0d7da269a4ca636708fc9f0b781",
      "transactionIndex": "0x38",
      "blockHash": "0x70465a502a132163ac6654c49bef0e29cae23783727fc91e2c57fe6b2d7ece64",
      "blockNumber": "0x725a99",
      "gasUsed": "0xfb91",
      "effectiveGasPrice": "0x1ad67c7a2",
      "from": "0xc77f7fed3b5cc8249adc428c5f44c9063b9734b4",
      "to": "0xbf4a322f1496e5c3d34a9bcdb4c60567b38c7de2",
      "contractAddress": null
    }
  ],
  "libraries": [],
  "pending": [],
  "returns": {},
  "timestamp": 1736913278,
  "chain": 11155111,
  "commit": "51a374b"
}