{
  "transactions": [
    {
      "hash": "0x8c35d3734029d1695a853b4fb1a708bfb16f6b162f00aefc5aaf94ff392a7b5a",
      "transactionType": "CALL",
      "contractName": null,
      "contractAddress": "0x5eb9cc76c3506942c1c0ead70e877dd5e4f00cb0",
      "function": "buy(address)",
      "arguments": [
        "0xC77f7fed3b5Cc8249aDc428c5F44C9063B9734b4"
      ],
      "transaction": {
        "from": "0xc77f7fed3b5cc8249adc428c5f44c9063b9734b4",
        "to": "0x5eb9cc76c3506942c1c0ead70e877dd5e4f00cb0",
        "gas": "0x156c8",
        "value": "0xde0b6b3a7640000",
        "input": "0xf088d547000000000000000000000000c77f7fed3b5cc8249adc428c5f44c9063b9734b4",
        "nonce": "0x150",
        "chainId": "0xaa36a7"
      },
      "additionalContracts": [],
      "isFixedGasLimit": false
    }
  ],
  "receipts": [
    {
      "status": "0x1",
      "cumulativeGasUsed": "0x377644",
      "logs": [
        {
          "address": "0x5eb9cc76c3506942c1c0ead70e877dd5e4f00cb0",
          "topics": [
            "0xddf252ad1be2c89b69c2b068fc378daa952ba7f163c4a11628f55a4df523b3ef",
            "0x0000000000000000000000000000000000000000000000000000000000000000",
            "0x000000000000000000000000c77f7fed3b5cc8249adc428c5f44c9063b9734b4"
          ],
          "data": "0x000000000000000000000000000000000000000000000035aaf21ccaae8df172",
          "blockHash": "0x0fe21b3433db78ee0d129720d8f5da2b7d2b69e7a9b05f60c9e4d4fb7099171c",
          "blockNumber": "0x723b47",
          "transactionHash": "0x8c35d3734029d1695a853b4fb1a708bfb16f6b162f00aefc5aaf94ff392a7b5a",
          "transactionIndex": "0x1c",
          "logIndex": "0x2a",
          "removed": false
        },
        {
          "address": "0x5eb9cc76c3506942c1c0ead70e877dd5e4f00cb0",
          "topics": [
            "0xddf252ad1be2c89b69c2b068fc378daa952ba7f163c4a11628f55a4df523b3ef",
            "0x0000000000000000000000000000000000000000000000000000000000000000",
            "0x000000000000000000000000c77f7fed3b5cc8249adc428c5f44c9063b9734b4"
          ],
          "data": "0x00000000000000000000000000000000000000000000000029acc29002748db0",
          "blockHash": "0x0fe21b3433db78ee0d129720d8f5da2b7d2b69e7a9b05f60c9e4d4fb7099171c",
          "blockNumber": "0x723b47",
          "transactionHash": "0x8c35d3734029d1695a853b4fb1a708bfb16f6b162f00aefc5aaf94ff392a7b5a",
          "transactionIndex": "0x1c",
          "logIndex": "0x2b",
          "removed": false
        },
        {
          "address": "0x5eb9cc76c3506942c1c0ead70e877dd5e4f00cb0",
          "topics": [
            "0x4afcb4a87cdbd9974efdb92ee48bc8d7cd0ae4bf217004db3d080cbaee652ca7"
          ],
          "data": "0x000000000000000000000000000000000000000000000000000000006785b8a800000000000000000000000000000000000000000000000000038d7fc2262e690000000000000000000000000000000000000000000000000de0b6b3a7640000",
          "blockHash": "0x0fe21b3433db78ee0d129720d8f5da2b7d2b69e7a9b05f60c9e4d4fb7099171c",
          "blockNumber": "0x723b47",
          "transactionHash": "0x8c35d3734029d1695a853b4fb1a708bfb16f6b162f00aefc5aaf94ff392a7b5a",
          "transactionIndex": "0x1c",
          "logIndex": "0x2c",
          "removed": false
        }
      ],
      "logsBloom": "0x00000000000000000000000000000000000000000000000000000000000000000000000000000000000000000000000000000000000000004000000000000000000000000000000000000008000000000000000000000000000000000000000000000000020000000000000004000800020000000000000000000010000000000000000000000000000000000000000000000000000000000000010000000000000000000000000000000000000000004000000000000000000000000000020000000002000000800000008000000000000000000000080000000000000020000000000000000000000000000000000000000000000000000000000000000000",
      "type": "0x2",
      "transactionHash": "0x8c35d3734029d1695a853b4fb1a708bfb16f6b162f00aefc5aaf94ff392a7b5a",
      "transactionIndex": "0x1c",
      "blockHash": "0x0fe21b3433db78ee0d129720d8f5da2b7d2b69e7a9b05f60c9e4d4fb7099171c",
      "blockNumber": "0x723b47",
      "gasUsed": "0xf82c",
      "effectiveGasPrice": "0x65ac83186",
      "from": "0xc77f7fed3b5cc8249adc428c5f44c9063b9734b4",
      "to": "0x5eb9cc76c3506942c1c0ead70e877dd5e4f00cb0",
      "contractAddress": null
    }
  ],
  "libraries": [],
  "pending": [],
  "returns": {},
  "timestamp": 1736816809,
  "chain": 11155111,
  "commit": "51a374b"
}