{
  "transactions": [
    {
      "hash": "0x4085306218c6505cc5bdff2fd8eb40510470f285b8bead7a9e3cc5aee011905c",
      "transactionType": "CALL",
      "contractName": null,
      "contractAddress": "0xbf4a322f1496e5c3d34a9bcdb4c60567b38c7de2",
      "function": "buy(address)",
      "arguments": [
        "0xC77f7fed3b5Cc8249aDc428c5F44C9063B9734b4"
      ],
      "transaction": {
        "from": "0xc77f7fed3b5cc8249adc428c5f44c9063b9734b4",
        "to": "0xbf4a322f1496e5c3d34a9bcdb4c60567b38c7de2",
        "gas": "0x1b309",
        "value": "0xde0b6b3a7640000",
        "input": "0xf088d547000000000000000000000000c77f7fed3b5cc8249adc428c5f44c9063b9734b4",
        "nonce": "0xbc4",
        "chainId": "0xaa36a7"
      },
      "additionalContracts": [],
      "isFixedGasLimit": false
    }
  ],
  "receipts": [
    {
      "status": "0x1",
      "cumulativeGasUsed": "0x1220acc",
      "logs": [
        {
          "address": "0xbf4a322f1496e5c3d34a9bcdb4c60567b38c7de2",
          "topics": [
            "0xddf252ad1be2c89b69c2b068fc378daa952ba7f163c4a11628f55a4df523b3ef",
            "0x0000000000000000000000000000000000000000000000000000000000000000",
            "0x000000000000000000000000c77f7fed3b5cc8249adc428c5f44c9063b9734b4"
          ],
          "data": "0x00000000000000000000000000000000000000000000003506876c8f9b765c66",
          "blockHash": "0xa39c5a595312ed4294a3899b736ff883d2d0eb184e8e8e5aa187193c8239b6d3",
          "blockNumber": "0x725be1",
          "transactionHash": "0x4085306218c6505cc5bdff2fd8eb40510470f285b8bead7a9e3cc5aee011905c",
          "transactionIndex": "0x7b",
          "logIndex": "0x9e",
          "removed": false
        },
        {
          "address": "0xbf4a322f1496e5c3d34a9bcdb4c60567b38c7de2",
          "topics": [
            "0xddf252ad1be2c89b69c2b068fc378daa952ba7f163c4a11628f55a4df523b3ef",
            "0x0000000000000000000000000000000000000000000000000000000000000000",
            "0x000000000000000000000000c77f7fed3b5cc8249adc428c5f44c9063b9734b4"
          ],
          "data": "0x000000000000000000000000000000000000000000000000292d15b510b18082",
          "blockHash": "0xa39c5a595312ed4294a3899b736ff883d2d0eb184e8e8e5aa187193c8239b6d3",
          "blockNumber": "0x725be1",
          "transactionHash": "0x4085306218c6505cc5bdff2fd8eb40510470f285b8bead7a9e3cc5aee011905c",
          "transactionIndex": "0x7b",
          "logIndex": "0x9f",
          "removed": false
        },
        {
          "address": "0xbf4a322f1496e5c3d34a9bcdb4c60567b38c7de2",
          "topics": [
            "0x4afcb4a87cdbd9974efdb92ee48bc8d7cd0ae4bf217004db3d080cbaee652ca7"
          ],
          "data": "0x00000000000000000000000000000000000000000000000000000000678740e800000000000000000000000000000000000000000000000000039886271a9db00000000000000000000000000000000000000000000000000de0b6b3a7640000",
          "blockHash": "0xa39c5a595312ed4294a3899b736ff883d2d0eb184e8e8e5aa187193c8239b6d3",
          "blockNumber": "0x725be1",
          "transactionHash": "0x4085306218c6505cc5bdff2fd8eb40510470f285b8bead7a9e3cc5aee011905c",
          "transactionIndex": "0x7b",
          "logIndex": "0xa0",
          "removed": false
        }
      ],
      "logsBloom": "0x00000000000000000000000000000000000000000000000000000000000000000000000000000000000000000000000000000000000000004000000000000000000000000000000000000008000000000000001000000000000000000000000000000000020000000000000000000800020000000000000000000010000000000000000000000000000000000000000000000000000008000000010000000000000000000000000000000000000000004000000000000000000000000000000000000002000000800000000000001000000000000000080000000000000020000000000000000000000000000000000000000000000000000000000000000000",
      "type": "0x2",
      "transactionHash": "0x4085306218c6505cc5bdff2fd8eb40510470f285b8bead7a9e3cc5aee011905c",
      "transactionIndex": "0x7b",
      "blockHash": "0xa39c5a595312ed4294a3899b736ff883d2d0eb184e8e8e5aa187193c8239b6d3",
      "blockNumber": "0x725be1",
      "gasUsed": "0x13af6",
      "effectiveGasPrice": "0x6df46bcc",
      "from": "0xc77f7fed3b5cc8249adc428c5f44c9063b9734b4",
      "to": "0xbf4a322f1496e5c3d34a9bcdb4c60567b38c7de2",
      "contractAddress": null
    }
  ],
  "libraries": [],
  "pending": [],
  "returns": {},
  "timestamp": 1736917225,
  "chain": 11155111,
  "commit": "51a374b"
}