{
  "transactions": [
    {
      "hash": "0x70db2495e732d41c61289ee12903a3fe56d7c7464f399a57d98a6544076f4495",
      "transactionType": "CALL",
      "contractName": null,
      "contractAddress": "0x8aafd3ede9adb0ff97c7aebce82a919afb1c8764",
      "function": "sell(uint256)",
      "arguments": [
        "583540"
      ],
      "transaction": {
        "from": "0xc77f7fed3b5cc8249adc428c5f44c9063b9734b4",
        "to": "0x8aafd3ede9adb0ff97c7aebce82a919afb1c8764",
        "gas": "0x16208",
        "value": "0x0",
        "input": "0xe4849b32000000000000000000000000000000000000000000000000000000000008e774",
        "nonce": "0x138c",
        "chainId": "0xaa36a7"
      },
      "additionalContracts": [],
      "isFixedGasLimit": false
    }
  ],
  "receipts": [
    {
      "status": "0x1",
      "cumulativeGasUsed": "0xd273a1",
      "logs": [
        {
          "address": "0x8aafd3ede9adb0ff97c7aebce82a919afb1c8764",
          "topics": [
            "0xddf252ad1be2c89b69c2b068fc378daa952ba7f163c4a11628f55a4df523b3ef",
            "0x000000000000000000000000c77f7fed3b5cc8249adc428c5f44c9063b9734b4",
            "0x0000000000000000000000000000000000000000000000000000000000000000"
          ],
          "data": "0x000000000000000000000000000000000000000000000000000000000008d538",
          "blockHash": "0xe06d046fd6bd651707cbbcdaecbfaec6cae2ad008fce6e49a05b4d3fd3c52a9f",
          "blockNumber": "0x731ab0",
          "transactionHash": "0x70db2495e732d41c61289ee12903a3fe56d7c7464f399a57d98a6544076f4495",
          "transactionIndex": "0x91",
          "logIndex": "0xa2",
          "removed": false
        },
        {
          "address": "0x8aafd3ede9adb0ff97c7aebce82a919afb1c8764",
          "topics": [
            "0xddf252ad1be2c89b69c2b068fc378daa952ba7f163c4a11628f55a4df523b3ef",
            "0x000000000000000000000000c77f7fed3b5cc8249adc428c5f44c9063b9734b4",
            "0x000000000000000000000000c77f7fed3b5cc8249adc428c5f44c9063b9734b4"
          ],
          "data": "0x000000000000000000000000000000000000000000000000000000000000123c",
          "blockHash": "0xe06d046fd6bd651707cbbcdaecbfaec6cae2ad008fce6e49a05b4d3fd3c52a9f",
          "blockNumber": "0x731ab0",
          "transactionHash": "0x70db2495e732d41c61289ee12903a3fe56d7c7464f399a57d98a6544076f4495",
          "transactionIndex": "0x91",
          "logIndex": "0xa3",
          "removed": false
        },
        {
          "address": "0x8aafd3ede9adb0ff97c7aebce82a919afb1c8764",
          "topics": [
            "0x4afcb4a87cdbd9974efdb92ee48bc8d7cd0ae4bf217004db3d080cbaee652ca7"
          ],
          "data": "0x0000000000000000000000000000000000000000000000000000000067903d10000000000000000000000000000000000000000000000000000cc7cefd9bd5a10000000000000000000000000000000000000000000000000000000000000833",
          "blockHash": "0xe06d046fd6bd651707cbbcdaecbfaec6cae2ad008fce6e49a05b4d3fd3c52a9f",
          "blockNumber": "0x731ab0",
          "transactionHash": "0x70db2495e732d41c61289ee12903a3fe56d7c7464f399a57d98a6544076f4495",
          "transactionIndex": "0x91",
          "logIndex": "0xa4",
          "removed": false
        }
      ],
      "logsBloom": "0x00000000000000000000000000000000000000000600000000000000000000000000000000000000000000000000000000000000000000004000000000000000000000000000004000000008000000000000000000000000000000000000000000000000020000000000000000000800020000000000000000000010000000000000000000000000000000000000000000000000000000000000010000000000000000000000000000000000000000004000000000000000000000000000000000000002000000800000000000000000000000000000080000000000000020000000000000000000000000000000000000000000000000000000000000000000",
      "type": "0x2",
      "transactionHash": "0x70db2495e732d41c61289ee12903a3fe56d7c7464f399a57d98a6544076f4495",
      "transactionIndex": "0x91",
      "blockHash": "0xe06d046fd6bd651707cbbcdaecbfaec6cae2ad008fce6e49a05b4d3fd3c52a9f",
      "blockNumber": "0x731ab0",
      "gasUsed": "0xf213",
      "effectiveGasPrice": "0x5ca5e5a1",
      "from": "0xc77f7fed3b5cc8249adc428c5f44c9063b9734b4",
      "to": "0x8aafd3ede9adb0ff97c7aebce82a919afb1c8764",
      "contractAddress": null
    }
  ],
  "libraries": [],
  "pending": [],
  "returns": {},
  "timestamp": 1737506066,
  "chain": 11155111,
  "commit": "1d2fb70"
}