{
  "transactions": [
    {
      "hash": "0x1cf9a230c6838db0ba78a1c3ed2a232e8d08c36d599cd5c3d0dfa1176bea3462",
      "transactionType": "CALL",
      "contractName": null,
      "contractAddress": "0x8aafd3ede9adb0ff97c7aebce82a919afb1c8764",
      "function": "sell(uint256)",
      "arguments": [
        "371516"
      ],
      "transaction": {
        "from": "0xc77f7fed3b5cc8249adc428c5f44c9063b9734b4",
        "to": "0x8aafd3ede9adb0ff97c7aebce82a919afb1c8764",
        "gas": "0x16208",
        "value": "0x0",
        "input": "0xe4849b32000000000000000000000000000000000000000000000000000000000005ab3c",
        "nonce": "0x1602",
        "chainId": "0xaa36a7"
      },
      "additionalContracts": [],
      "isFixedGasLimit": false
    }
  ],
  "receipts": [
    {
      "status": "0x1",
      "cumulativeGasUsed": "0xe37d9c",
      "logs": [
        {
          "address": "0x8aafd3ede9adb0ff97c7aebce82a919afb1c8764",
          "topics": [
            "0xddf252ad1be2c89b69c2b068fc378daa952ba7f163c4a11628f55a4df523b3ef",
            "0x000000000000000000000000c77f7fed3b5cc8249adc428c5f44c9063b9734b4",
            "0x0000000000000000000000000000000000000000000000000000000000000000"
          ],
          "data": "0x0000000000000000000000000000000000000000000000000000000000059fa0",
          "blockHash": "0x4ea6da6314e37e8aac5a067f8de2e6dfe66ea03edb95d8744427b836380e1134",
          "blockNumber": "0x731d93",
          "transactionHash": "0x1cf9a230c6838db0ba78a1c3ed2a232e8d08c36d599cd5c3d0dfa1176bea3462",
          "transactionIndex": "0x7c",
          "logIndex": "0xc5",
          "removed": false
        },
        {
          "address": "0x8aafd3ede9adb0ff97c7aebce82a919afb1c8764",
          "topics": [
            "0xddf252ad1be2c89b69c2b068fc378daa952ba7f163c4a11628f55a4df523b3ef",
            "0x000000000000000000000000c77f7fed3b5cc8249adc428c5f44c9063b9734b4",
            "0x000000000000000000000000c77f7fed3b5cc8249adc428c5f44c9063b9734b4"
          ],
          "data": "0x0000000000000000000000000000000000000000000000000000000000000b9c",
          "blockHash": "0x4ea6da6314e37e8aac5a067f8de2e6dfe66ea03edb95d8744427b836380e1134",
          "blockNumber": "0x731d93",
          "transactionHash": "0x1cf9a230c6838db0ba78a1c3ed2a232e8d08c36d599cd5c3d0dfa1176bea3462",
          "transactionIndex": "0x7c",
          "logIndex": "0xc6",
          "removed": false
        },
        {
          "address": "0x8aafd3ede9adb0ff97c7aebce82a919afb1c8764",
          "topics": [
            "0x4afcb4a87cdbd9974efdb92ee48bc8d7cd0ae4bf217004db3d080cbaee652ca7"
          ],
          "data": "0x0000000000000000000000000000000000000000000000000000000067905fcc000000000000000000000000000000000000000000000000001404c9977d1599000000000000000000000000000000000000000000000000000000000000082d",
          "blockHash": "0x4ea6da6314e37e8aac5a067f8de2e6dfe66ea03edb95d8744427b836380e1134",
          "blockNumber": "0x731d93",
          "transactionHash": "0x1cf9a230c6838db0ba78a1c3ed2a232e8d08c36d599cd5c3d0dfa1176bea3462",
          "transactionIndex": "0x7c",
          "logIndex": "0xc7",
          "removed": false
        }
      ],
      "logsBloom": "0x00000000000000000000000000000000000000000600000000000000000000000000000000000000000000000000000000000000000000004000000000000000000000000000004000000008000000000000000000000000000000000000000000000000020000000000000000000800020000000000000000000010000000000000000000000000000000000000000000000000000000000000010000000000000000000000000000000000000000004000000000000000000000000000000000000002000000800000000000000000000000000000080000000000000020000000000000000000000000000000000000000000000000000000000000000000",
      "type": "0x2",
      "transactionHash": "0x1cf9a230c6838db0ba78a1c3ed2a232e8d08c36d599cd5c3d0dfa1176bea3462",
      "transactionIndex": "0x7c",
      "blockHash": "0x4ea6da6314e37e8aac5a067f8de2e6dfe66ea03edb95d8744427b836380e1134",
      "blockNumber": "0x731d93",
      "gasUsed": "0xf213",
      "effectiveGasPrice": "0x63c67d5c",
      "from": "0xc77f7fed3b5cc8249adc428c5f44c9063b9734b4",
      "to": "0x8aafd3ede9adb0ff97c7aebce82a919afb1c8764",
      "contractAddress": null
    }
  ],
  "libraries": [],
  "pending": [],
  "returns": {},
  "timestamp": 1737514956,
  "chain": 11155111,
  "commit": "1d2fb70"
}