{
  "transactions": [
    {
      "hash": "0xeb011f36d7c9688bdba5b2ac457067238681dfb4ecc7211d83666e63a0dc77e7",
      "transactionType": "CALL",
      "contractName": null,
      "contractAddress": "0xbf4a322f1496e5c3d34a9bcdb4c60567b38c7de2",
      "function": "buy(address)",
      "arguments": [
        "0xC77f7fed3b5Cc8249aDc428c5F44C9063B9734b4"
      ],
      "transaction": {
        "from": "0xc77f7fed3b5cc8249adc428c5f44c9063b9734b4",
        "to": "0xbf4a322f1496e5c3d34a9bcdb4c60567b38c7de2",
        "gas": "0x1b309",
        "value": "0xde0b6b3a7640000",
        "input": "0xf088d547000000000000000000000000c77f7fed3b5cc8249adc428c5f44c9063b9734b4",
        "nonce": "0xddc",
        "chainId": "0xaa36a7"
      },
      "additionalContracts": [],
      "isFixedGasLimit": false
    }
  ],
  "receipts": [
    {
      "status": "0x1",
      "cumulativeGasUsed": "0x16065cd",
      "logs": [
        {
          "address": "0xbf4a322f1496e5c3d34a9bcdb4c60567b38c7de2",
          "topics": [
            "0xddf252ad1be2c89b69c2b068fc378daa952ba7f163c4a11628f55a4df523b3ef",
            "0x0000000000000000000000000000000000000000000000000000000000000000",
            "0x000000000000000000000000c77f7fed3b5cc8249adc428c5f44c9063b9734b4"
          ],
          "data": "0x000000000000000000000000000000000000000000000034a3758ef70ec6369a",
          "blockHash": "0xda3400e55bbabbe6152d82a7243c97818ba2a77dc6f00611479504a023894ea9",
          "blockNumber": "0x7266ba",
          "transactionHash": "0xeb011f36d7c9688bdba5b2ac457067238681dfb4ecc7211d83666e63a0dc77e7",
          "transactionIndex": "0x80",
          "logIndex": "0xe5",
          "removed": false
        },
        {
          "address": "0xbf4a322f1496e5c3d34a9bcdb4c60567b38c7de2",
          "topics": [
            "0xddf252ad1be2c89b69c2b068fc378daa952ba7f163c4a11628f55a4df523b3ef",
            "0x0000000000000000000000000000000000000000000000000000000000000000",
            "0x000000000000000000000000c77f7fed3b5cc8249adc428c5f44c9063b9734b4"
          ],
          "data": "0x00000000000000000000000000000000000000000000000028e0275a824cf732",
          "blockHash": "0xda3400e55bbabbe6152d82a7243c97818ba2a77dc6f00611479504a023894ea9",
          "blockNumber": "0x7266ba",
          "transactionHash": "0xeb011f36d7c9688bdba5b2ac457067238681dfb4ecc7211d83666e63a0dc77e7",
          "transactionIndex": "0x80",
          "logIndex": "0xe6",
          "removed": false
        },
        {
          "address": "0xbf4a322f1496e5c3d34a9bcdb4c60567b38c7de2",
          "topics": [
            "0x4afcb4a87cdbd9974efdb92ee48bc8d7cd0ae4bf217004db3d080cbaee652ca7"
          ],
          "data": "0x000000000000000000000000000000000000000000000000000000006787c3bc00000000000000000000000000000000000000000000000000039f4aa23ac23e0000000000000000000000000000000000000000000000000de0b6b3a7640000",
          "blockHash": "0xda3400e55bbabbe6152d82a7243c97818ba2a77dc6f00611479504a023894ea9",
          "blockNumber": "0x7266ba",
          "transactionHash": "0xeb011f36d7c9688bdba5b2ac457067238681dfb4ecc7211d83666e63a0dc77e7",
          "transactionIndex": "0x80",
          "logIndex": "0xe7",
          "removed": false
        }
      ],
      "logsBloom": "0x00000000000000000000000000000000000000000000000000000000000000000000000000000000000000000000000000000000000000004000000000000000000000000000000000000008000000000000001000000000000000000000000000000000020000000000000000000800020000000000000000000010000000000000000000000000000000000000000000000000000008000000010000000000000000000000000000000000000000004000000000000000000000000000000000000002000000800000000000001000000000000000080000000000000020000000000000000000000000000000000000000000000000000000000000000000",
      "type": "0x2",
      "transactionHash": "0xeb011f36d7c9688bdba5b2ac457067238681dfb4ecc7211d83666e63a0dc77e7",
      "transactionIndex": "0x80",
      "blockHash": "0xda3400e55bbabbe6152d82a7243c97818ba2a77dc6f00611479504a023894ea9",
      "blockNumber": "0x7266ba",
      "gasUsed": "0x13af6",
      "effectiveGasPrice": "0x1f4b89993",
      "from": "0xc77f7fed3b5cc8249adc428c5f44c9063b9734b4",
      "to": "0xbf4a322f1496e5c3d34a9bcdb4c60567b38c7de2",
      "contractAddress": null
    }
  ],
  "libraries": [],
  "pending": [],
  "returns": {},
  "timestamp": 1736950716,
  "chain": 11155111,
  "commit": "51a374b"
}