{
  "transactions": [
    {
      "hash": "0xc2f4aa545d2c61dceb3fb30481ce3688aed2a0d24c1eeee692f02e7ef13e89cf",
      "transactionType": "CALL",
      "contractName": null,
      "contractAddress": "0xbf4a322f1496e5c3d34a9bcdb4c60567b38c7de2",
      "function": "sell(uint256)",
      "arguments": [
        "977601809167470339777"
      ],
      "transaction": {
        "from": "0xc77f7fed3b5cc8249adc428c5f44c9063b9734b4",
        "to": "0xbf4a322f1496e5c3d34a9bcdb4c60567b38c7de2",
        "gas": "0x16fea",
        "value": "0x0",
        "input": "0xe4849b32000000000000000000000000000000000000000000000034fef351e1a648a6c1",
        "nonce": "0xccb",
        "chainId": "0xaa36a7"
      },
      "additionalContracts": [],
      "isFixedGasLimit": false
    }
  ],
  "receipts": [
    {
      "status": "0x1",
      "cumulativeGasUsed": "0x13c562a",
      "logs": [
        {
          "address": "0xbf4a322f1496e5c3d34a9bcdb4c60567b38c7de2",
          "topics": [
            "0xddf252ad1be2c89b69c2b068fc378daa952ba7f163c4a11628f55a4df523b3ef",
            "0x000000000000000000000000c77f7fed3b5cc8249adc428c5f44c9063b9734b4",
            "0x0000000000000000000000000000000000000000000000000000000000000000"
          ],
          "data": "0x000000000000000000000000000000000000000000000034fef351e1a648a6c1",
          "blockHash": "0x7e550a23e256c60bb2e244e5f3d376ed8aa0072f99c35bcdcc69ece04114a996",
          "blockNumber": "0x725d1b",
          "transactionHash": "0xc2f4aa545d2c61dceb3fb30481ce3688aed2a0d24c1eeee692f02e7ef13e89cf",
          "transactionIndex": "0x92",
          "logIndex": "0xfd",
          "removed": false
        },
        {
          "address": "0xbf4a322f1496e5c3d34a9bcdb4c60567b38c7de2",
          "topics": [
            "0x4afcb4a87cdbd9974efdb92ee48bc8d7cd0ae4bf217004db3d080cbaee652ca7"
          ],
          "data": "0x0000000000000000000000000000000000000000000000000000000067874fb800000000000000000000000000000000000000000000000000039bd9229b0a5d0000000000000000000000000000000000000000000000000dc7e3dc7d8ce22a",
          "blockHash": "0x7e550a23e256c60bb2e244e5f3d376ed8aa0072f99c35bcdcc69ece04114a996",
          "blockNumber": "0x725d1b",
          "transactionHash": "0xc2f4aa545d2c61dceb3fb30481ce3688aed2a0d24c1eeee692f02e7ef13e89cf",
          "transactionIndex": "0x92",
          "logIndex": "0xfe",
          "removed": false
        }
      ],
      "logsBloom": "0x00000000000000000000000000000000000000000000000000000000000000000000000000000000000000000000000000000000000000004000000000000000000000000000000000000008000000000000001000000000000000000000000000000000020000000000000000000800020000000000000000000010000000000000000000000000000000000000000000000000000008000000010000000000000000000000000000000000000000004000000000000000000000000000000000000002000000800000000000001000000000000000080000000000000020000000000000000000000000000000000000000000000000000000000000000000",
      "type": "0x2",
      "transactionHash": "0xc2f4aa545d2c61dceb3fb30481ce3688aed2a0d24c1eeee692f02e7ef13e89cf",
      "transactionIndex": "0x92",
      "blockHash": "0x7e550a23e256c60bb2e244e5f3d376ed8aa0072f99c35bcdcc69ece04114a996",
      "blockNumber": "0x725d1b",
      "gasUsed": "0xfb91",
      "effectiveGasPrice": "0x3b357cc73",
      "from": "0xc77f7fed3b5cc8249adc428c5f44c9063b9734b4",
      "to": "0xbf4a322f1496e5c3d34a9bcdb4c60567b38c7de2",
      "contractAddress": null
    }
  ],
  "libraries": [],
  "pending": [],
  "returns": {},
  "timestamp": 1736921018,
  "chain": 11155111,
  "commit": "51a374b"
}