{
  "transactions": [
    {
      "hash": "0xd9581f8e907aff2a21cce298973faf5fc2160501f9e543ccdfbc43a530ba4e10",
      "transactionType": "CALL",
      "contractName": null,
      "contractAddress": "0x5eb9cc76c3506942c1c0ead70e877dd5e4f00cb0",
      "function": "buy(address)",
      "arguments": [
        "0xC77f7fed3b5Cc8249aDc428c5F44C9063B9734b4"
      ],
      "transaction": {
        "from": "0xc77f7fed3b5cc8249adc428c5f44c9063b9734b4",
        "to": "0x5eb9cc76c3506942c1c0ead70e877dd5e4f00cb0",
        "gas": "0x1b30c",
        "value": "0xde0b6b3a7640000",
        "input": "0xf088d547000000000000000000000000c77f7fed3b5cc8249adc428c5f44c9063b9734b4",
        "nonce": "0x26e",
        "chainId": "0xaa36a7"
      },
      "additionalContracts": [],
      "isFixedGasLimit": false
    }
  ],
  "receipts": [
    {
      "status": "0x1",
      "cumulativeGasUsed": "0xbdb012",
      "logs": [
        {
          "address": "0x5eb9cc76c3506942c1c0ead70e877dd5e4f00cb0",
          "topics": [
            "0xddf252ad1be2c89b69c2b068fc378daa952ba7f163c4a11628f55a4df523b3ef",
            "0x0000000000000000000000000000000000000000000000000000000000000000",
            "0x000000000000000000000000c77f7fed3b5cc8249adc428c5f44c9063b9734b4"
          ],
          "data": "0x0000000000000000000000000000000000000000000000357c122d8a69384d29",
          "blockHash": "0x6d5a6a33d2cc08961d8eb6d6c89bd824a671fe678040568285aa15e6a82017b3",
          "blockNumber": "0x724e35",
          "transactionHash": "0xd9581f8e907aff2a21cce298973faf5fc2160501f9e543ccdfbc43a530ba4e10",
          "transactionIndex": "0x54",
          "logIndex": "0x98",
          "removed": false
        },
        {
          "address": "0x5eb9cc76c3506942c1c0ead70e877dd5e4f00cb0",
          "topics": [
            "0xddf252ad1be2c89b69c2b068fc378daa952ba7f163c4a11628f55a4df523b3ef",
            "0x0000000000000000000000000000000000000000000000000000000000000000",
            "0x000000000000000000000000c77f7fed3b5cc8249adc428c5f44c9063b9734b4"
          ],
          "data": "0x00000000000000000000000000000000000000000000000029885c343aee9510",
          "blockHash": "0x6d5a6a33d2cc08961d8eb6d6c89bd824a671fe678040568285aa15e6a82017b3",
          "blockNumber": "0x724e35",
          "transactionHash": "0xd9581f8e907aff2a21cce298973faf5fc2160501f9e543ccdfbc43a530ba4e10",
          "transactionIndex": "0x54",
          "logIndex": "0x99",
          "removed": false
        },
        {
          "address": "0x5eb9cc76c3506942c1c0ead70e877dd5e4f00cb0",
          "topics": [
            "0x4afcb4a87cdbd9974efdb92ee48bc8d7cd0ae4bf217004db3d080cbaee652ca7"
          ],
          "data": "0x0000000000000000000000000000000000000000000000000000000067869c300000000000000000000000000000000000000000000000000003909cdae7dc1c0000000000000000000000000000000000000000000000000de0b6b3a7640000",
          "blockHash": "0x6d5a6a33d2cc08961d8eb6d6c89bd824a671fe678040568285aa15e6a82017b3",
          "blockNumber": "0x724e35",
          "transactionHash": "0xd9581f8e907aff2a21cce298973faf5fc2160501f9e543ccdfbc43a530ba4e10",
          "transactionIndex": "0x54",
          "logIndex": "0x9a",
          "removed": false
        }
      ],
      "logsBloom": "0x00000000000000000000000000000000000000000000000000000000000000000000000000000000000000000000000000000000000000004000000000000000000000000000000000000008000000000000000000000000000000000000000000000000020000000000000004000800020000000000000000000010000000000000000000000000000000000000000000000000000000000000010000000000000000000000000000000000000000004000000000000000000000000000020000000002000000800000008000000000000000000000080000000000000020000000000000000000000000000000000000000000000000000000000000000000",
      "type": "0x2",
      "transactionHash": "0xd9581f8e907aff2a21cce298973faf5fc2160501f9e543ccdfbc43a530ba4e10",
      "transactionIndex": "0x54",
      "blockHash": "0x6d5a6a33d2cc08961d8eb6d6c89bd824a671fe678040568285aa15e6a82017b3",
      "blockNumber": "0x724e35",
      "gasUsed": "0x13af8",
      "effectiveGasPrice": "0x32e8ee110",
      "from": "0xc77f7fed3b5cc8249adc428c5f44c9063b9734b4",
      "to": "0x5eb9cc76c3506942c1c0ead70e877dd5e4f00cb0",
      "contractAddress": null
    }
  ],
  "libraries": [],
  "pending": [],
  "returns": {},
  "timestamp": 1736875057,
  "chain": 11155111,
  "commit": "51a374b"
}