{
  "transactions": [
    {
      "hash": "0xf1c7a12e87635f1c10da68176b9756bcd05bb8c43d7008bab7c92e3e8454f064",
      "transactionType": "CALL",
      "contractName": null,
      "contractAddress": "0xbf4a322f1496e5c3d34a9bcdb4c60567b38c7de2",
      "function": "sell(uint256)",
      "arguments": [
        "982408537515960013503"
      ],
      "transaction": {
        "from": "0xc77f7fed3b5cc8249adc428c5f44c9063b9734b4",
        "to": "0xbf4a322f1496e5c3d34a9bcdb4c60567b38c7de2",
        "gas": "0x16fea",
        "value": "0x0",
        "input": "0xe4849b3200000000000000000000000000000000000000000000003541a83fd8e5cf92bf",
        "nonce": "0xb65",
        "chainId": "0xaa36a7"
      },
      "additionalContracts": [],
      "isFixedGasLimit": false
    }
  ],
  "receipts": [
    {
      "status": "0x1",
      "cumulativeGasUsed": "0x886e9c",
      "logs": [
        {
          "address": "0xbf4a322f1496e5c3d34a9bcdb4c60567b38c7de2",
          "topics": [
            "0xddf252ad1be2c89b69c2b068fc378daa952ba7f163c4a11628f55a4df523b3ef",
            "0x000000000000000000000000c77f7fed3b5cc8249adc428c5f44c9063b9734b4",
            "0x0000000000000000000000000000000000000000000000000000000000000000"
          ],
          "data": "0x00000000000000000000000000000000000000000000003541a83fd8e5cf92bf",
          "blockHash": "0x941df79f1e104adc4d7427c4154062d16cd386952c664d6e5a517407ed546595",
          "blockNumber": "0x725b70",
          "transactionHash": "0xf1c7a12e87635f1c10da68176b9756bcd05bb8c43d7008bab7c92e3e8454f064",
          "transactionIndex": "0x40",
          "logIndex": "0x65",
          "removed": false
        },
        {
          "address": "0xbf4a322f1496e5c3d34a9bcdb4c60567b38c7de2",
          "topics": [
            "0x4afcb4a87cdbd9974efdb92ee48bc8d7cd0ae4bf217004db3d080cbaee652ca7"
          ],
          "data": "0x0000000000000000000000000000000000000000000000000000000067873b9c00000000000000000000000000000000000000000000000000039753fe979f740000000000000000000000000000000000000000000000000dc7e3e7aa8dd8f1",
          "blockHash": "0x941df79f1e104adc4d7427c4154062d16cd386952c664d6e5a517407ed546595",
          "blockNumber": "0x725b70",
          "transactionHash": "0xf1c7a12e87635f1c10da68176b9756bcd05bb8c43d7008bab7c92e3e8454f064",
          "transactionIndex": "0x40",
          "logIndex": "0x66",
          "removed": false
        }
      ],
      "logsBloom": "0x00000000000000000000000000000000000000000000000000000000000000000000000000000000000000000000000000000000000000004000000000000000000000000000000000000008000000000000001000000000000000000000000000000000020000000000000000000800020000000000000000000010000000000000000000000000000000000000000000000000000008000000010000000000000000000000000000000000000000004000000000000000000000000000000000000002000000800000000000001000000000000000080000000000000020000000000000000000000000000000000000000000000000000000000000000000",
      "type": "0x2",
      "transactionHash": "0xf1c7a12e87635f1c10da68176b9756bcd05bb8c43d7008bab7c92e3e8454f064",
      "transactionIndex": "0x40",
      "blockHash": "0x941df79f1e104adc4d7427c4154062d16cd386952c664d6e5a517407ed546595",
      "blockNumber": "0x725b70",
      "gasUsed": "0xfb91",
      "effectiveGasPrice": "0x41e04dcc",
      "from": "0xc77f7fed3b5cc8249adc428c5f44c9063b9734b4",
      "to": "0xbf4a322f1496e5c3d34a9bcdb4c60567b38c7de2",
      "contractAddress": null
    }
  ],
  "libraries": [],
  "pending": [],
  "returns": {},
  "timestamp": 1736915870,
  "chain": 11155111,
  "commit": "51a374b"
}