{
  "transactions": [
    {
      "hash": "0xb0c02d85d7e7576bffd9920678fcebed90cdae76ab7ba02ab2b1b5245822d28e",
      "transactionType": "CALL",
      "contractName": null,
      "contractAddress": "0x8aafd3ede9adb0ff97c7aebce82a919afb1c8764",
      "function": "sell(uint256)",
      "arguments": [
        "195818360"
      ],
      "transaction": {
        "from": "0xc77f7fed3b5cc8249adc428c5f44c9063b9734b4",
        "to": "0x8aafd3ede9adb0ff97c7aebce82a919afb1c8764",
        "gas": "0x14e6c",
        "value": "0x0",
        "input": "0xe4849b32000000000000000000000000000000000000000000000000000000000babf378",
        "nonce": "0xed4",
        "chainId": "0xaa36a7"
      },
      "additionalContracts": [],
      "isFixedGasLimit": false
    }
  ],
  "receipts": [
    {
      "status": "0x1",
      "cumulativeGasUsed": "0xc0c086",
      "logs": [
        {
          "address": "0x8aafd3ede9adb0ff97c7aebce82a919afb1c8764",
          "topics": [
            "0xddf252ad1be2c89b69c2b068fc378daa952ba7f163c4a11628f55a4df523b3ef",
            "0x000000000000000000000000c77f7fed3b5cc8249adc428c5f44c9063b9734b4",
            "0x0000000000000000000000000000000000000000000000000000000000000000"
          ],
          "data": "0x000000000000000000000000000000000000000000000000000000000b940c26",
          "blockHash": "0x952a3930f4dc6f4a551324b4f742bc95a7cfb89926854b540009e17be1399ad0",
          "blockNumber": "0x731441",
          "transactionHash": "0xb0c02d85d7e7576bffd9920678fcebed90cdae76ab7ba02ab2b1b5245822d28e",
          "transactionIndex": "0x7d",
          "logIndex": "0xba",
          "removed": false
        },
        {
          "address": "0x8aafd3ede9adb0ff97c7aebce82a919afb1c8764",
          "topics": [
            "0xddf252ad1be2c89b69c2b068fc378daa952ba7f163c4a11628f55a4df523b3ef",
            "0x000000000000000000000000c77f7fed3b5cc8249adc428c5f44c9063b9734b4",
            "0x000000000000000000000000c77f7fed3b5cc8249adc428c5f44c9063b9734b4"
          ],
          "data": "0x000000000000000000000000000000000000000000000000000000000017e752",
          "blockHash": "0x952a3930f4dc6f4a551324b4f742bc95a7cfb89926854b540009e17be1399ad0",
          "blockNumber": "0x731441",
          "transactionHash": "0xb0c02d85d7e7576bffd9920678fcebed90cdae76ab7ba02ab2b1b5245822d28e",
          "transactionIndex": "0x7d",
          "logIndex": "0xbb",
          "removed": false
        },
        {
          "address": "0x8aafd3ede9adb0ff97c7aebce82a919afb1c8764",
          "topics": [
            "0x4afcb4a87cdbd9974efdb92ee48bc8d7cd0ae4bf217004db3d080cbaee652ca7"
          ],
          "data": "0x00000000000000000000000000000000000000000000000000000000678fefb80000000000000000000000000000000000000000000000000004b97238bfd851000000000000000000000000000000000000000000000000000000000003f92f",
          "blockHash": "0x952a3930f4dc6f4a551324b4f742bc95a7cfb89926854b540009e17be1399ad0",
          "blockNumber": "0x731441",
          "transactionHash": "0xb0c02d85d7e7576bffd9920678fcebed90cdae76ab7ba02ab2b1b5245822d28e",
          "transactionIndex": "0x7d",
          "logIndex": "0xbc",
          "removed": false
        }
      ],
      "logsBloom": "0x00000000000000000000000000000000000000000600000000000000000000000000000000000000000000000000000000000000000000004000000000000000000000000000004000000008000000000000000000000000000000000000000000000000020000000000000000000800020000000000000000000010000000000000000000000000000000000000000000000000000000000000010000000000000000000000000000000000000000004000000000000000000000000000000000000002000000800000000000000000000000000000080000000000000020000000000000000000000000000000000000000000000000000000000000000000",
      "type": "0x2",
      "transactionHash": "0xb0c02d85d7e7576bffd9920678fcebed90cdae76ab7ba02ab2b1b5245822d28e",
      "transactionIndex": "0x7d",
      "blockHash": "0x952a3930f4dc6f4a551324b4f742bc95a7cfb89926854b540009e17be1399ad0",
      "blockNumber": "0x731441",
      "gasUsed": "0xf21f",
      "effectiveGasPrice": "0xad4af715",
      "from": "0xc77f7fed3b5cc8249adc428c5f44c9063b9734b4",
      "to": "0x8aafd3ede9adb0ff97c7aebce82a919afb1c8764",
      "contractAddress": null
    }
  ],
  "libraries": [],
  "pending": [],
  "returns": {},
  "timestamp": 1737486267,
  "chain": 11155111,
  "commit": "51a374b"
}