{
  "transactions": [
    {
      "hash": "0x48459822d0fde3ffda191a5a83192c2c794877f5d09437fda9b047b3523b9d75",
      "transactionType": "CALL",
      "contractName": null,
      "contractAddress": "0xbf4a322f1496e5c3d34a9bcdb4c60567b38c7de2",
      "function": "buy(address)",
      "arguments": [
        "0xC77f7fed3b5Cc8249aDc428c5F44C9063B9734b4"
      ],
      "transaction": {
        "from": "0xc77f7fed3b5cc8249adc428c5f44c9063b9734b4",
        "to": "0xbf4a322f1496e5c3d34a9bcdb4c60567b38c7de2",
        "gas": "0x1b309",
        "value": "0xde0b6b3a7640000",
        "input": "0xf088d547000000000000000000000000c77f7fed3b5cc8249adc428c5f44c9063b9734b4",
        "nonce": "0xaba",
        "chainId": "0xaa36a7"
      },
      "additionalContracts": [],
      "isFixedGasLimit": false
    }
  ],
  "receipts": [
    {
      "status": "0x1",
      "cumulativeGasUsed": "0xa4927e",
      "logs": [
        {
          "address": "0xbf4a322f1496e5c3d34a9bcdb4c60567b38c7de2",
          "topics": [
            "0xddf252ad1be2c89b69c2b068fc378daa952ba7f163c4a11628f55a4df523b3ef",
            "0x0000000000000000000000000000000000000000000000000000000000000000",
            "0x000000000000000000000000c77f7fed3b5cc8249adc428c5f44c9063b9734b4"
          ],
          "data": "0x000000000000000000000000000000000000000000000035383ca6265526477d",
          "blockHash": "0xaa7b7240b3a910d329f8a7c8ff97648da53d70fc194052934cab73315f49f396",
          "blockNumber": "0x725aa7",
          "transactionHash": "0x48459822d0fde3ffda191a5a83192c2c794877f5d09437fda9b047b3523b9d75",
          "transactionIndex": "0x45",
          "logIndex": "0x51",
          "removed": false
        },
        {
          "address": "0xbf4a322f1496e5c3d34a9bcdb4c60567b38c7de2",
          "topics": [
            "0xddf252ad1be2c89b69c2b068fc378daa952ba7f163c4a11628f55a4df523b3ef",
            "0x0000000000000000000000000000000000000000000000000000000000000000",
            "0x000000000000000000000000c77f7fed3b5cc8249adc428c5f44c9063b9734b4"
          ],
          "data": "0x0000000000000000000000000000000000000000000000002953af474d18a990",
          "blockHash": "0xaa7b7240b3a910d329f8a7c8ff97648da53d70fc194052934cab73315f49f396",
          "blockNumber": "0x725aa7",
          "transactionHash": "0x48459822d0fde3ffda191a5a83192c2c794877f5d09437fda9b047b3523b9d75",
          "transactionIndex": "0x45",
          "logIndex": "0x52",
          "removed": false
        },
        {
          "address": "0xbf4a322f1496e5c3d34a9bcdb4c60567b38c7de2",
          "topics": [
            "0x4afcb4a87cdbd9974efdb92ee48bc8d7cd0ae4bf217004db3d080cbaee652ca7"
          ],
          "data": "0x00000000000000000000000000000000000000000000000000000000678732240000000000000000000000000000000000000000000000000003952a610cf5490000000000000000000000000000000000000000000000000de0b6b3a7640000",
          "blockHash": "0xaa7b7240b3a910d329f8a7c8ff97648da53d70fc194052934cab73315f49f396",
          "blockNumber": "0x725aa7",
          "transactionHash": "0x48459822d0fde3ffda191a5a83192c2c794877f5d09437fda9b047b3523b9d75",
          "transactionIndex": "0x45",
          "logIndex": "0x53",
          "removed": false
        }
      ],
      "logsBloom": "0x00000000000000000000000000000000000000000000000000000000000000000000000000000000000000000000000000000000000000004000000000000000000000000000000000000008000000000000001000000000000000000000000000000000020000000000000000000800020000000000000000000010000000000000000000000000000000000000000000000000000008000000010000000000000000000000000000000000000000004000000000000000000000000000000000000002000000800000000000001000000000000000080000000000000020000000000000000000000000000000000000000000000000000000000000000000",
      "type": "0x2",
      "transactionHash": "0x48459822d0fde3ffda191a5a83192c2c794877f5d09437fda9b047b3523b9d75",
      "transactionIndex": "0x45",
      "blockHash": "0xaa7b7240b3a910d329f8a7c8ff97648da53d70fc194052934cab73315f49f396",
      "blockNumber": "0x725aa7",
      "gasUsed": "0x13af6",
      "effectiveGasPrice": "0x129cd70e3",
      "from": "0xc77f7fed3b5cc8249adc428c5f44c9063b9734b4",
      "to": "0xbf4a322f1496e5c3d34a9bcdb4c60567b38c7de2",
      "contractAddress": null
    }
  ],
  "libraries": [],
  "pending": [],
  "returns": {},
  "timestamp": 1736913446,
  "chain": 11155111,
  "commit": "51a374b"
}