{
  "transactions": [
    {
      "hash": "0x5bf6c20c64c5b3d0604c14f7a9350b97a851fbb7f231409f1e0269f0665d1455",
      "transactionType": "CALL",
      "contractName": null,
      "contractAddress": "0x270e88f8683660553e8ba4eb2ad7c91a1710d769",
      "function": "buy(address)",
      "arguments": [
        "0xC77f7fed3b5Cc8249aDc428c5F44C9063B9734b4"
      ],
      "transaction": {
        "from": "0xc77f7fed3b5cc8249adc428c5f44c9063b9734b4",
        "to": "0x270e88f8683660553e8ba4eb2ad7c91a1710d769",
        "gas": "0x1b30c",
        "value": "0xde0b6b3a7640000",
        "input": "0xf088d547000000000000000000000000c77f7fed3b5cc8249adc428c5f44c9063b9734b4",
        "nonce": "0x6b7",
        "chainId": "0xaa36a7"
      },
      "additionalContracts": [],
      "isFixedGasLimit": false
    }
  ],
  "receipts": [
    {
      "status": "0x1",
      "cumulativeGasUsed": "0xfb7ce9",
      "logs": [
        {
          "address": "0x270e88f8683660553e8ba4eb2ad7c91a1710d769",
          "topics": [
            "0xddf252ad1be2c89b69c2b068fc378daa952ba7f163c4a11628f55a4df523b3ef",
            "0x0000000000000000000000000000000000000000000000000000000000000000",
            "0x000000000000000000000000c77f7fed3b5cc8249adc428c5f44c9063b9734b4"
          ],
          "data": "0x000000000000000000000000000000000000000000000028a25182b8fe67b9c8",
          "blockHash": "0xf8a4ade1f3a7552699f5da14b24d8d8fb77e893f329df02e5ce48b30923b1556",
          "blockNumber": "0x7253c2",
          "transactionHash": "0x5bf6c20c64c5b3d0604c14f7a9350b97a851fbb7f231409f1e0269f0665d1455",
          "transactionIndex": "0x51",
          "logIndex": "0xb6",
          "removed": false
        },
        {
          "address": "0x270e88f8683660553e8ba4eb2ad7c91a1710d769",
          "topics": [
            "0xddf252ad1be2c89b69c2b068fc378daa952ba7f163c4a11628f55a4df523b3ef",
            "0x0000000000000000000000000000000000000000000000000000000000000000",
            "0x000000000000000000000000c77f7fed3b5cc8249adc428c5f44c9063b9734b4"
          ],
          "data": "0x0000000000000000000000000000000000000000000000001f8dc14b9cf8b65d",
          "blockHash": "0xf8a4ade1f3a7552699f5da14b24d8d8fb77e893f329df02e5ce48b30923b1556",
          "blockNumber": "0x7253c2",
          "transactionHash": "0x5bf6c20c64c5b3d0604c14f7a9350b97a851fbb7f231409f1e0269f0665d1455",
          "transactionIndex": "0x51",
          "logIndex": "0xb7",
          "removed": false
        },
        {
          "address": "0x270e88f8683660553e8ba4eb2ad7c91a1710d769",
          "topics": [
            "0x4afcb4a87cdbd9974efdb92ee48bc8d7cd0ae4bf217004db3d080cbaee652ca7"
          ],
          "data": "0x000000000000000000000000000000000000000000000000000000006786df200000000000000000000000000000000000000000000000000004b15532ecedfe0000000000000000000000000000000000000000000000000de0b6b3a7640000",
          "blockHash": "0xf8a4ade1f3a7552699f5da14b24d8d8fb77e893f329df02e5ce48b30923b1556",
          "blockNumber": "0x7253c2",
          "transactionHash": "0x5bf6c20c64c5b3d0604c14f7a9350b97a851fbb7f231409f1e0269f0665d1455",
          "transactionIndex": "0x51",
          "logIndex": "0xb8",
          "removed": false
        }
      ],
      "logsBloom": "0x00000000000000000000000000000000000000000000000000000000000000000000000000000000000000000000000020000000000000004000000000000000000000000000000000000008000000000000000000000000000000000000000000000000020000000000000000000800020000000000000000000010000000000000000000010000000000000000000000000000000000000000010000000000000000000000000000000000000000004000000000000000000000000000000000000002000000800000000000000000000000000000080000008000000020000000000000000000000000000000000000000000000000000000000000000000",
      "type": "0x2",
      "transactionHash": "0x5bf6c20c64c5b3d0604c14f7a9350b97a851fbb7f231409f1e0269f0665d1455",
      "transactionIndex": "0x51",
      "blockHash": "0xf8a4ade1f3a7552699f5da14b24d8d8fb77e893f329df02e5ce48b30923b1556",
      "blockNumber": "0x7253c2",
      "gasUsed": "0x13af8",
      "effectiveGasPrice": "0x17868f9a6",
      "from": "0xc77f7fed3b5cc8249adc428c5f44c9063b9734b4",
      "to": "0x270e88f8683660553e8ba4eb2ad7c91a1710d769",
      "contractAddress": null
    }
  ],
  "libraries": [],
  "pending": [],
  "returns": {},
  "timestamp": 1736892194,
  "chain": 11155111,
  "commit": "51a374b"
}