{
  "transactions": [
    {
      "hash": "0x8db4c1a89712be4427b373298c57b46b32052cc19e1ed2ed9925a7236c00d6b1",
      "transactionType": "CALL",
      "contractName": null,
      "contractAddress": "0x5eb9cc76c3506942c1c0ead70e877dd5e4f00cb0",
      "function": "sell(uint256)",
      "arguments": [
        "989098724252810564272"
      ],
      "transaction": {
        "from": "0xc77f7fed3b5cc8249adc428c5f44c9063b9734b4",
        "to": "0x5eb9cc76c3506942c1c0ead70e877dd5e4f00cb0",
        "gas": "0x15b6b",
        "value": "0x0",
        "input": "0xe4849b320000000000000000000000000000000000000000000000359e80913d00d152b0",
        "nonce": "0x409",
        "chainId": "0xaa36a7"
      },
      "additionalContracts": [],
      "isFixedGasLimit": false
    }
  ],
  "receipts": [
    {
      "status": "0x1",
      "cumulativeGasUsed": "0xb9b80e",
      "logs": [
        {
          "address": "0x5eb9cc76c3506942c1c0ead70e877dd5e4f00cb0",
          "topics": [
            "0xddf252ad1be2c89b69c2b068fc378daa952ba7f163c4a11628f55a4df523b3ef",
            "0x000000000000000000000000c77f7fed3b5cc8249adc428c5f44c9063b9734b4",
            "0x0000000000000000000000000000000000000000000000000000000000000000"
          ],
          "data": "0x0000000000000000000000000000000000000000000000359e80913d00d152b0",
          "blockHash": "0x94ee95aacb42dc701fb58b32358a868fe930985cbae515687587cb40b4eb7a4b",
          "blockNumber": "0x725016",
          "transactionHash": "0x8db4c1a89712be4427b373298c57b46b32052cc19e1ed2ed9925a7236c00d6b1",
          "transactionIndex": "0x51",
          "logIndex": "0xa4",
          "removed": false
        },
        {
          "address": "0x5eb9cc76c3506942c1c0ead70e877dd5e4f00cb0",
          "topics": [
            "0x4afcb4a87cdbd9974efdb92ee48bc8d7cd0ae4bf217004db3d080cbaee652ca7"
          ],
          "data": "0x000000000000000000000000000000000000000000000000000000006786b2d400000000000000000000000000000000000000000000000000039115c608f8a10000000000000000000000000000000000000000000000000dc7db1331e52da2",
          "blockHash": "0x94ee95aacb42dc701fb58b32358a868fe930985cbae515687587cb40b4eb7a4b",
          "blockNumber": "0x725016",
          "transactionHash": "0x8db4c1a89712be4427b373298c57b46b32052cc19e1ed2ed9925a7236c00d6b1",
          "transactionIndex": "0x51",
          "logIndex": "0xa5",
          "removed": false
        }
      ],
      "logsBloom": "0x00000000000000000000000000000000000000000000000000000000000000000000000000000000000000000000000000000000000000004000000000000000000000000000000000000008000000000000000000000000000000000000000000000000020000000000000004000800020000000000000000000010000000000000000000000000000000000000000000000000000000000000010000000000000000000000000000000000000000004000000000000000000000000000020000000002000000800000008000000000000000000000080000000000000020000000000000000000000000000000000000000000000000000000000000000000",
      "type": "0x2",
      "transactionHash": "0x8db4c1a89712be4427b373298c57b46b32052cc19e1ed2ed9925a7236c00d6b1",
      "transactionIndex": "0x51",
      "blockHash": "0x94ee95aacb42dc701fb58b32358a868fe930985cbae515687587cb40b4eb7a4b",
      "blockNumber": "0x725016",
      "gasUsed": "0xfb87",
      "effectiveGasPrice": "0x33429c042",
      "from": "0xc77f7fed3b5cc8249adc428c5f44c9063b9734b4",
      "to": "0x5eb9cc76c3506942c1c0ead70e877dd5e4f00cb0",
      "contractAddress": null
    }
  ],
  "libraries": [],
  "pending": [],
  "returns": {},
  "timestamp": 1736880854,
  "chain": 11155111,
  "commit": "51a374b"
}