{
  "transactions": [
    {
      "hash": "0xfba269cdb0cdcc6ab81bf50238400f6927c84a011c17d35f635a674f5a92e809",
      "transactionType": "CALL",
      "contractName": null,
      "contractAddress": "0x8aafd3ede9adb0ff97c7aebce82a919afb1c8764",
      "function": "sell(uint256)",
      "arguments": [
        "15225034293340933"
      ],
      "transaction": {
        "from": "0xc77f7fed3b5cc8249adc428c5f44c9063b9734b4",
        "to": "0x8aafd3ede9adb0ff97c7aebce82a919afb1c8764",
        "gas": "0x1724d",
        "value": "0x0",
        "input": "0xe4849b320000000000000000000000000000000000000000000000000036171688bf6b05",
        "nonce": "0x1444",
        "chainId": "0xaa36a7"
      },
      "additionalContracts": [],
      "isFixedGasLimit": false
    }
  ],
  "receipts": [
    {
      "status": "0x1",
      "cumulativeGasUsed": "0x14a1452",
      "logs": [
        {
          "address": "0x8aafd3ede9adb0ff97c7aebce82a919afb1c8764",
          "topics": [
            "0xddf252ad1be2c89b69c2b068fc378daa952ba7f163c4a11628f55a4df523b3ef",
            "0x000000000000000000000000c77f7fed3b5cc8249adc428c5f44c9063b9734b4",
            "0x0000000000000000000000000000000000000000000000000000000000000000"
          ],
          "data": "0x0000000000000000000000000000000000000000000000000035a84fb2a9681e",
          "blockHash": "0xc81d7c451f4b50b3d83017c0b6eac9e46307c31e88a5aa45f85b651d5f2ea7d7",
          "blockNumber": "0x731b86",
          "transactionHash": "0xfba269cdb0cdcc6ab81bf50238400f6927c84a011c17d35f635a674f5a92e809",
          "transactionIndex": "0xc0",
          "logIndex": "0x103",
          "removed": false
        },
        {
          "address": "0x8aafd3ede9adb0ff97c7aebce82a919afb1c8764",
          "topics": [
            "0xddf252ad1be2c89b69c2b068fc378daa952ba7f163c4a11628f55a4df523b3ef",
            "0x000000000000000000000000c77f7fed3b5cc8249adc428c5f44c9063b9734b4",
            "0x000000000000000000000000c77f7fed3b5cc8249adc428c5f44c9063b9734b4"
          ],
          "data": "0x00000000000000000000000000000000000000000000000000006ec6d61602e7",
          "blockHash": "0xc81d7c451f4b50b3d83017c0b6eac9e46307c31e88a5aa45f85b651d5f2ea7d7",
          "blockNumber": "0x731b86",
          "transactionHash": "0xfba269cdb0cdcc6ab81bf50238400f6927c84a011c17d35f635a674f5a92e809",
          "transactionIndex": "0xc0",
          "logIndex": "0x104",
          "removed": false
        },
        {
          "address": "0x8aafd3ede9adb0ff97c7aebce82a919afb1c8764",
          "topics": [
            "0x4afcb4a87cdbd9974efdb92ee48bc8d7cd0ae4bf217004db3d080cbaee652ca7"
          ],
          "data": "0x0000000000000000000000000000000000000000000000000000000067904724000000000000000000000000000000000000000000000000000eeec08ab6fabf00000000000000000000000000000000000000000000000000003a3396538651",
          "blockHash": "0xc81d7c451f4b50b3d83017c0b6eac9e46307c31e88a5aa45f85b651d5f2ea7d7",
          "blockNumber": "0x731b86",
          "transactionHash": "0xfba269cdb0cdcc6ab81bf50238400f6927c84a011c17d35f635a674f5a92e809",
          "transactionIndex": "0xc0",
          "logIndex": "0x105",
          "removed": false
        }
      ],
      "logsBloom": "0x00000000000000000000000000000000000000000600000000000000000000000000000000000000000000000000000000000000000000004000000000000000000000000000004000000008000000000000000000000000000000000000000000000000020000000000000000000800020000000000000000000010000000000000000000000000000000000000000000000000000000000000010000000000000000000000000000000000000000004000000000000000000000000000000000000002000000800000000000000000000000000000080000000000000020000000000000000000000000000000000000000000000000000000000000000000",
      "type": "0x2",
      "transactionHash": "0xfba269cdb0cdcc6ab81bf50238400f6927c84a011c17d35f635a674f5a92e809",
      "transactionIndex": "0xc0",
      "blockHash": "0xc81d7c451f4b50b3d83017c0b6eac9e46307c31e88a5aa45f85b651d5f2ea7d7",
      "blockNumber": "0x731b86",
      "gasUsed": "0xfd33",
      "effectiveGasPrice": "0x10af00a54",
      "from": "0xc77f7fed3b5cc8249adc428c5f44c9063b9734b4",
      "to": "0x8aafd3ede9adb0ff97c7aebce82a919afb1c8764",
      "contractAddress": null
    }
  ],
  "libraries": [],
  "pending": [],
  "returns": {},
  "timestamp": 1737508646,
  "chain": 11155111,
  "commit": "1d2fb70"
}