{
  "transactions": [
    {
      "hash": "0xcd1fb7ac86611a8521b6b49cc66edfb08a9001bfadca258fde35578443e6a59f",
      "transactionType": "CALL",
      "contractName": null,
      "contractAddress": "0x8aafd3ede9adb0ff97c7aebce82a919afb1c8764",
      "function": "buy(address)",
      "arguments": [
        "0xC77f7fed3b5Cc8249aDc428c5F44C9063B9734b4"
      ],
      "transaction": {
        "from": "0xc77f7fed3b5cc8249adc428c5f44c9063b9734b4",
        "to": "0x8aafd3ede9adb0ff97c7aebce82a919afb1c8764",
        "gas": "0x156ea",
        "value": "0xde0b6b3a7640000",
        "input": "0xf088d547000000000000000000000000c77f7fed3b5cc8249adc428c5f44c9063b9734b4",
        "nonce": "0xeeb",
        "chainId": "0xaa36a7"
      },
      "additionalContracts": [],
      "isFixedGasLimit": false
    }
  ],
  "receipts": [
    {
      "status": "0x1",
      "cumulativeGasUsed": "0xef5d6f",
      "logs": [
        {
          "address": "0x8aafd3ede9adb0ff97c7aebce82a919afb1c8764",
          "topics": [
            "0xddf252ad1be2c89b69c2b068fc378daa952ba7f163c4a11628f55a4df523b3ef",
            "0x0000000000000000000000000000000000000000000000000000000000000000",
            "0x000000000000000000000000c77f7fed3b5cc8249adc428c5f44c9063b9734b4"
          ],
          "data": "0x0000000000000000000000000000000000000000000000285489ac7eee8855f0",
          "blockHash": "0x62d5edab4aef9ca37aba6a1848c1671a27550b230baf77a2b5ae5a413d87b2f4",
          "blockNumber": "0x731462",
          "transactionHash": "0xcd1fb7ac86611a8521b6b49cc66edfb08a9001bfadca258fde35578443e6a59f",
          "transactionIndex": "0x87",
          "logIndex": "0xcc",
          "removed": false
        },
        {
          "address": "0x8aafd3ede9adb0ff97c7aebce82a919afb1c8764",
          "topics": [
            "0xddf252ad1be2c89b69c2b068fc378daa952ba7f163c4a11628f55a4df523b3ef",
            "0x0000000000000000000000000000000000000000000000000000000000000000",
            "0x000000000000000000000000c77f7fed3b5cc8249adc428c5f44c9063b9734b4"
          ],
          "data": "0x0000000000000000000000000000000000000000000000001f515b132b5cf005",
          "blockHash": "0x62d5edab4aef9ca37aba6a1848c1671a27550b230baf77a2b5ae5a413d87b2f4",
          "blockNumber": "0x731462",
          "transactionHash": "0xcd1fb7ac86611a8521b6b49cc66edfb08a9001bfadca258fde35578443e6a59f",
          "transactionIndex": "0x87",
          "logIndex": "0xcd",
          "removed": false
        },
        {
          "address": "0x8aafd3ede9adb0ff97c7aebce82a919afb1c8764",
          "topics": [
            "0x4afcb4a87cdbd9974efdb92ee48bc8d7cd0ae4bf217004db3d080cbaee652ca7"
          ],
          "data": "0x00000000000000000000000000000000000000000000000000000000678ff1440000000000000000000000000000000000000000000000000004ba65c2f85b690000000000000000000000000000000000000000000000000de0b6b3a7640000",
          "blockHash": "0x62d5edab4aef9ca37aba6a1848c1671a27550b230baf77a2b5ae5a413d87b2f4",
          "blockNumber": "0x731462",
          "transactionHash": "0xcd1fb7ac86611a8521b6b49cc66edfb08a9001bfadca258fde35578443e6a59f",
          "transactionIndex": "0x87",
          "logIndex": "0xce",
          "removed": false
        }
      ],
      "logsBloom": "0x00000000000000000000000000000000000000000600000000000000000000000000000000000000000000000000000000000000000000004000000000000000000000000000004000000008000000000000000000000000000000000000000000000000020000000000000000000800020000000000000000000010000000000000000000000000000000000000000000000000000000000000010000000000000000000000000000000000000000004000000000000000000000000000000000000002000000800000000000000000000000000000080000000000000020000000000000000000000000000000000000000000000000000000000000000000",
      "type": "0x2",
      "transactionHash": "0xcd1fb7ac86611a8521b6b49cc66edfb08a9001bfadca258fde35578443e6a59f",
      "transactionIndex": "0x87",
      "blockHash": "0x62d5edab4aef9ca37aba6a1848c1671a27550b230baf77a2b5ae5a413d87b2f4",
      "blockNumber": "0x731462",
      "gasUsed": "0xf844",
      "effectiveGasPrice": "0xc62d11c0",
      "from": "0xc77f7fed3b5cc8249adc428c5f44c9063b9734b4",
      "to": "0x8aafd3ede9adb0ff97c7aebce82a919afb1c8764",
      "contractAddress": null
    }
  ],
  "libraries": [],
  "pending": [],
  "returns": {},
  "timestamp": 1737486660,
  "chain": 11155111,
  "commit": "51a374b"
}