{
  "transactions": [
    {
      "hash": "0x4a7127c784ed4a35ceba48e32de7cc2ffc2f394eab1d8aae58c807739a64b00a",
      "transactionType": "CALL",
      "contractName": null,
      "contractAddress": "0x8aafd3ede9adb0ff97c7aebce82a919afb1c8764",
      "function": "sell(uint256)",
      "arguments": [
        "23136655520"
      ],
      "transaction": {
        "from": "0xc77f7fed3b5cc8249adc428c5f44c9063b9734b4",
        "to": "0x8aafd3ede9adb0ff97c7aebce82a919afb1c8764",
        "gas": "0x1722a",
        "value": "0x0",
        "input": "0xe4849b3200000000000000000000000000000000000000000000000000000005630d58a0",
        "nonce": "0x10b4",
        "chainId": "0xaa36a7"
      },
      "additionalContracts": [],
      "isFixedGasLimit": false
    }
  ],
  "receipts": [
    {
      "status": "0x1",
      "cumulativeGasUsed": "0x9709b8",
      "logs": [
        {
          "address": "0x8aafd3ede9adb0ff97c7aebce82a919afb1c8764",
          "topics": [
            "0xddf252ad1be2c89b69c2b068fc378daa952ba7f163c4a11628f55a4df523b3ef",
            "0x000000000000000000000000c77f7fed3b5cc8249adc428c5f44c9063b9734b4",
            "0x0000000000000000000000000000000000000000000000000000000000000000"
          ],
          "data": "0x0000000000000000000000000000000000000000000000000000000558050c24",
          "blockHash": "0xe58ecffca446337b850572820c8691bf72bfac2400019077f3fc3bbb0e70396f",
          "blockNumber": "0x731749",
          "transactionHash": "0x4a7127c784ed4a35ceba48e32de7cc2ffc2f394eab1d8aae58c807739a64b00a",
          "transactionIndex": "0x78",
          "logIndex": "0x99",
          "removed": false
        },
        {
          "address": "0x8aafd3ede9adb0ff97c7aebce82a919afb1c8764",
          "topics": [
            "0xddf252ad1be2c89b69c2b068fc378daa952ba7f163c4a11628f55a4df523b3ef",
            "0x000000000000000000000000c77f7fed3b5cc8249adc428c5f44c9063b9734b4",
            "0x000000000000000000000000c77f7fed3b5cc8249adc428c5f44c9063b9734b4"
          ],
          "data": "0x000000000000000000000000000000000000000000000000000000000b084c7c",
          "blockHash": "0xe58ecffca446337b850572820c8691bf72bfac2400019077f3fc3bbb0e70396f",
          "blockNumber": "0x731749",
          "transactionHash": "0x4a7127c784ed4a35ceba48e32de7cc2ffc2f394eab1d8aae58c807739a64b00a",
          "transactionIndex": "0x78",
          "logIndex": "0x9a",
          "removed": false
        },
        {
          "address": "0x8aafd3ede9adb0ff97c7aebce82a919afb1c8764",
          "topics": [
            "0x4afcb4a87cdbd9974efdb92ee48bc8d7cd0ae4bf217004db3d080cbaee652ca7"
          ],
          "data": "0x00000000000000000000000000000000000000000000000000000000679014300000000000000000000000000000000000000000000000000005008a148981f30000000000000000000000000000000000000000000000000000000001f110b5",
          "blockHash": "0xe58ecffca446337b850572820c8691bf72bfac2400019077f3fc3bbb0e70396f",
          "blockNumber": "0x731749",
          "transactionHash": "0x4a7127c784ed4a35ceba48e32de7cc2ffc2f394eab1d8aae58c807739a64b00a",
          "transactionIndex": "0x78",
          "logIndex": "0x9b",
          "removed": false
        }
      ],
      "logsBloom": "0x00000000000000000000000000000000000000000600000000000000000000000000000000000000000000000000000000000000000000004000000000000000000000000000004000000008000000000000000000000000000000000000000000000000020000000000000000000800020000000000000000000010000000000000000000000000000000000000000000000000000000000000010000000000000000000000000000000000000000004000000000000000000000000000000000000002000000800000000000000000000000000000080000000000000020000000000000000000000000000000000000000000000000000000000000000000",
      "type": "0x2",
      "transactionHash": "0x4a7127c784ed4a35ceba48e32de7cc2ffc2f394eab1d8aae58c807739a64b00a",
      "transactionIndex": "0x78",
      "blockHash": "0xe58ecffca446337b850572820c8691bf72bfac2400019077f3fc3bbb0e70396f",
      "blockNumber": "0x731749",
      "gasUsed": "0xfd1b",
      "effectiveGasPrice": "0x45444d3a",
      "from": "0xc77f7fed3b5cc8249adc428c5f44c9063b9734b4",
      "to": "0x8aafd3ede9adb0ff97c7aebce82a919afb1c8764",
      "contractAddress": null
    }
  ],
  "libraries": [],
  "pending": [],
  "returns": {},
  "timestamp": 1737495601,
  "chain": 11155111,
  "commit": "1d2fb70"
}