{
  "transactions": [
    {
      "hash": "0x08a5b68efa7a1dec33556c59b4c8635dda426e861c1f313d8a8a3d229ea73c5e",
      "transactionType": "CALL",
      "contractName": null,
      "contractAddress": "0xbf4a322f1496e5c3d34a9bcdb4c60567b38c7de2",
      "function": "sell(uint256)",
      "arguments": [
        "974830609918648023341"
      ],
      "transaction": {
        "from": "0xc77f7fed3b5cc8249adc428c5f44c9063b9734b4",
        "to": "0xbf4a322f1496e5c3d34a9bcdb4c60567b38c7de2",
        "gas": "0x16fea",
        "value": "0x0",
        "input": "0xe4849b32000000000000000000000000000000000000000000000034d87e0ad8da66792d",
        "nonce": "0xd9b",
        "chainId": "0xaa36a7"
      },
      "additionalContracts": [],
      "isFixedGasLimit": false
    }
  ],
  "receipts": [
    {
      "status": "0x1",
      "cumulativeGasUsed": "0x8eb7cd",
      "logs": [
        {
          "address": "0xbf4a322f1496e5c3d34a9bcdb4c60567b38c7de2",
          "topics": [
            "0xddf252ad1be2c89b69c2b068fc378daa952ba7f163c4a11628f55a4df523b3ef",
            "0x000000000000000000000000c77f7fed3b5cc8249adc428c5f44c9063b9734b4",
            "0x0000000000000000000000000000000000000000000000000000000000000000"
          ],
          "data": "0x000000000000000000000000000000000000000000000034d87e0ad8da66792d",
          "blockHash": "0x42ce7e2967150c4f8a94f8b651ecdc0955e60ae69ac2a2e15184dc2965e11c34",
          "blockNumber": "0x726670",
          "transactionHash": "0x08a5b68efa7a1dec33556c59b4c8635dda426e861c1f313d8a8a3d229ea73c5e",
          "transactionIndex": "0x50",
          "logIndex": "0x71",
          "removed": false
        },
        {
          "address": "0xbf4a322f1496e5c3d34a9bcdb4c60567b38c7de2",
          "topics": [
            "0x4afcb4a87cdbd9974efdb92ee48bc8d7cd0ae4bf217004db3d080cbaee652ca7"
          ],
          "data": "0x000000000000000000000000000000000000000000000000000000006787c00800000000000000000000000000000000000000000000000000039e797111499e0000000000000000000000000000000000000000000000000dc7e3d60c179770",
          "blockHash": "0x42ce7e2967150c4f8a94f8b651ecdc0955e60ae69ac2a2e15184dc2965e11c34",
          "blockNumber": "0x726670",
          "transactionHash": "0x08a5b68efa7a1dec33556c59b4c8635dda426e861c1f313d8a8a3d229ea73c5e",
          "transactionIndex": "0x50",
          "logIndex": "0x72",
          "removed": false
        }
      ],
      "logsBloom": "0x00000000000000000000000000000000000000000000000000000000000000000000000000000000000000000000000000000000000000004000000000000000000000000000000000000008000000000000001000000000000000000000000000000000020000000000000000000800020000000000000000000010000000000000000000000000000000000000000000000000000008000000010000000000000000000000000000000000000000004000000000000000000000000000000000000002000000800000000000001000000000000000080000000000000020000000000000000000000000000000000000000000000000000000000000000000",
      "type": "0x2",
      "transactionHash": "0x08a5b68efa7a1dec33556c59b4c8635dda426e861c1f313d8a8a3d229ea73c5e",
      "transactionIndex": "0x50",
      "blockHash": "0x42ce7e2967150c4f8a94f8b651ecdc0955e60ae69ac2a2e15184dc2965e11c34",
      "blockNumber": "0x726670",
      "gasUsed": "0xfb91",
      "effectiveGasPrice": "0x93052fb8",
      "from": "0xc77f7fed3b5cc8249adc428c5f44c9063b9734b4",
      "to": "0xbf4a322f1496e5c3d34a9bcdb4c60567b38c7de2",
      "contractAddress": null
    }
  ],
  "libraries": [],
  "pending": [],
  "returns": {},
  "timestamp": 1736949769,
  "chain": 11155111,
  "commit": "51a374b"
}