{
  "transactions": [
    {
      "hash": "0xcf5f5f2cb0ff3d3ab80525499c1ccd439d622fb26ea4ccf98e71ca8181bcb9fb",
      "transactionType": "CALL",
      "contractName": null,
      "contractAddress": "0xbf4a322f1496e5c3d34a9bcdb4c60567b38c7de2",
      "function": "sell(uint256)",
      "arguments": [
        "973371412140044572703"
      ],
      "transaction": {
        "from": "0xc77f7fed3b5cc8249adc428c5f44c9063b9734b4",
        "to": "0xbf4a322f1496e5c3d34a9bcdb4c60567b38c7de2",
        "gas": "0x16fea",
        "value": "0x0",
        "input": "0xe4849b32000000000000000000000000000000000000000000000034c43dee32d7b3d81f",
        "nonce": "0xe09",
        "chainId": "0xaa36a7"
      },
      "additionalContracts": [],
      "isFixedGasLimit": false
    }
  ],
  "receipts": [
    {
      "status": "0x1",
      "cumulativeGasUsed": "0x11e193b",
      "logs": [
        {
          "address": "0xbf4a322f1496e5c3d34a9bcdb4c60567b38c7de2",
          "topics": [
            "0xddf252ad1be2c89b69c2b068fc378daa952ba7f163c4a11628f55a4df523b3ef",
            "0x000000000000000000000000c77f7fed3b5cc8249adc428c5f44c9063b9734b4",
            "0x0000000000000000000000000000000000000000000000000000000000000000"
          ],
          "data": "0x000000000000000000000000000000000000000000000034c43dee32d7b3d81f",
          "blockHash": "0x32a97047b017075047a009deb2742e01052238cbdff2029c97f057223a0a7750",
          "blockNumber": "0x7266f1",
          "transactionHash": "0xcf5f5f2cb0ff3d3ab80525499c1ccd439d622fb26ea4ccf98e71ca8181bcb9fb",
          "transactionIndex": "0x76",
          "logIndex": "0xb1",
          "removed": false
        },
        {
          "address": "0xbf4a322f1496e5c3d34a9bcdb4c60567b38c7de2",
          "topics": [
            "0x4afcb4a87cdbd9974efdb92ee48bc8d7cd0ae4bf217004db3d080cbaee652ca7"
          ],
          "data": "0x000000000000000000000000000000000000000000000000000000006787c69800000000000000000000000000000000000000000000000000039fdcfd1f045e0000000000000000000000000000000000000000000000000dc7e3d2a78d1673",
          "blockHash": "0x32a97047b017075047a009deb2742e01052238cbdff2029c97f057223a0a7750",
          "blockNumber": "0x7266f1",
          "transactionHash": "0xcf5f5f2cb0ff3d3ab80525499c1ccd439d622fb26ea4ccf98e71ca8181bcb9fb",
          "transactionIndex": "0x76",
          "logIndex": "0xb2",
          "removed": false
        }
      ],
      "logsBloom": "0x00000000000000000000000000000000000000000000000000000000000000000000000000000000000000000000000000000000000000004000000000000000000000000000000000000008000000000000001000000000000000000000000000000000020000000000000000000800020000000000000000000010000000000000000000000000000000000000000000000000000008000000010000000000000000000000000000000000000000004000000000000000000000000000000000000002000000800000000000001000000000000000080000000000000020000000000000000000000000000000000000000000000000000000000000000000",
      "type": "0x2",
      "transactionHash": "0xcf5f5f2cb0ff3d3ab80525499c1ccd439d622fb26ea4ccf98e71ca8181bcb9fb",
      "transactionIndex": "0x76",
      "blockHash": "0x32a97047b017075047a009deb2742e01052238cbdff2029c97f057223a0a7750",
      "blockNumber": "0x7266f1",
      "gasUsed": "0xfb91",
      "effectiveGasPrice": "0x376b87d65",
      "from": "0xc77f7fed3b5cc8249adc428c5f44c9063b9734b4",
      "to": "0xbf4a322f1496e5c3d34a9bcdb4c60567b38c7de2",
      "contractAddress": null
    }
  ],
  "libraries": [],
  "pending": [],
  "returns": {},
  "timestamp": 1736951450,
  "chain": 11155111,
  "commit": "51a374b"
}