{
  "transactions": [
    {
      "hash": "0xe654a5d61b3968fe3271c814c20284c34e17c07ba0c7c4f14d38e6926443c8f6",
      "transactionType": "CALL",
      "contractName": null,
      "contractAddress": "0x8aafd3ede9adb0ff97c7aebce82a919afb1c8764",
      "function": "buy(address)",
      "arguments": [
        "0xC77f7fed3b5Cc8249aDc428c5F44C9063B9734b4"
      ],
      "transaction": {
        "from": "0xc77f7fed3b5cc8249adc428c5f44c9063b9734b4",
        "to": "0x8aafd3ede9adb0ff97c7aebce82a919afb1c8764",
        "gas": "0x156ea",
        "value": "0xde0b6b3a7640000",
        "input": "0xf088d547000000000000000000000000c77f7fed3b5cc8249adc428c5f44c9063b9734b4",
        "nonce": "0x16f6",
        "chainId": "0xaa36a7"
      },
      "additionalContracts": [],
      "isFixedGasLimit": false
    }
  ],
  "receipts": [
    {
      "status": "0x1",
      "cumulativeGasUsed": "0xc4f422",
      "logs": [
        {
          "address": "0x8aafd3ede9adb0ff97c7aebce82a919afb1c8764",
          "topics": [
            "0xddf252ad1be2c89b69c2b068fc378daa952ba7f163c4a11628f55a4df523b3ef",
            "0x0000000000000000000000000000000000000000000000000000000000000000",
            "0x000000000000000000000000c77f7fed3b5cc8249adc428c5f44c9063b9734b4"
          ],
          "data": "0x0000000000000000000000000000000000000000000000085826f211e8540f37",
          "blockHash": "0x297b6670b020e0c624eb7fc75d995dee469bbdea856afda1a246370b9b9791b6",
          "blockNumber": "0x731eb9",
          "transactionHash": "0xe654a5d61b3968fe3271c814c20284c34e17c07ba0c7c4f14d38e6926443c8f6",
          "transactionIndex": "0x81",
          "logIndex": "0xcb",
          "removed": false
        },
        {
          "address": "0x8aafd3ede9adb0ff97c7aebce82a919afb1c8764",
          "topics": [
            "0xddf252ad1be2c89b69c2b068fc378daa952ba7f163c4a11628f55a4df523b3ef",
            "0x0000000000000000000000000000000000000000000000000000000000000000",
            "0x000000000000000000000000c77f7fed3b5cc8249adc428c5f44c9063b9734b4"
          ],
          "data": "0x000000000000000000000000000000000000000000000000067acb84b5ab11b6",
          "blockHash": "0x297b6670b020e0c624eb7fc75d995dee469bbdea856afda1a246370b9b9791b6",
          "blockNumber": "0x731eb9",
          "transactionHash": "0xe654a5d61b3968fe3271c814c20284c34e17c07ba0c7c4f14d38e6926443c8f6",
          "transactionIndex": "0x81",
          "logIndex": "0xcc",
          "removed": false
        },
        {
          "address": "0x8aafd3ede9adb0ff97c7aebce82a919afb1c8764",
          "topics": [
            "0x4afcb4a87cdbd9974efdb92ee48bc8d7cd0ae4bf217004db3d080cbaee652ca7"
          ],
          "data": "0x0000000000000000000000000000000000000000000000000000000067906d940000000000000000000000000000000000000000000000000016e06f8489ccb80000000000000000000000000000000000000000000000000de0b6b3a7640000",
          "blockHash": "0x297b6670b020e0c624eb7fc75d995dee469bbdea856afda1a246370b9b9791b6",
          "blockNumber": "0x731eb9",
          "transactionHash": "0xe654a5d61b3968fe3271c814c20284c34e17c07ba0c7c4f14d38e6926443c8f6",
          "transactionIndex": "0x81",
          "logIndex": "0xcd",
          "removed": false
        }
      ],
      "logsBloom": "0x00000000000000000000000000000000000000000600000000000000000000000000000000000000000000000000000000000000000000004000000000000000000000000000004000000008000000000000000000000000000000000000000000000000020000000000000000000800020000000000000000000010000000000000000000000000000000000000000000000000000000000000010000000000000000000000000000000000000000004000000000000000000000000000000000000002000000800000000000000000000000000000080000000000000020000000000000000000000000000000000000000000000000000000000000000000",
      "type": "0x2",
      "transactionHash": "0xe654a5d61b3968fe3271c814c20284c34e17c07ba0c7c4f14d38e6926443c8f6",
      "transactionIndex": "0x81",
      "blockHash": "0x297b6670b020e0c624eb7fc75d995dee469bbdea856afda1a246370b9b9791b6",
      "blockNumber": "0x731eb9",
      "gasUsed": "0xf844",
      "effectiveGasPrice": "0x522d3730",
      "from": "0xc77f7fed3b5cc8249adc428c5f44c9063b9734b4",
      "to": "0x8aafd3ede9adb0ff97c7aebce82a919afb1c8764",
      "contractAddress": null
    }
  ],
  "libraries": [],
  "pending": [],
  "returns": {},
  "timestamp": 1737518485,
  "chain": 11155111,
  "commit": "1d2fb70"
}