{
  "transactions": [
    {
      "hash": "0x377b0d1b89ef51c711a2f7f09a0afa2191443451f486a8e2c2ed3317c5747353",
      "transactionType": "CALL",
      "contractName": null,
      "contractAddress": "0x8aafd3ede9adb0ff97c7aebce82a919afb1c8764",
      "function": "sell(uint256)",
      "arguments": [
        "339164899456507"
      ],
      "transaction": {
        "from": "0xc77f7fed3b5cc8249adc428c5f44c9063b9734b4",
        "to": "0x8aafd3ede9adb0ff97c7aebce82a919afb1c8764",
        "gas": "0x1724d",
        "value": "0x0",
        "input": "0xe4849b3200000000000000000000000000000000000000000000000000013477fb5a35fb",
        "nonce": "0x12f6",
        "chainId": "0xaa36a7"
      },
      "additionalContracts": [],
      "isFixedGasLimit": false
    }
  ],
  "receipts": [
    {
      "status": "0x1",
      "cumulativeGasUsed": "0xad5006",
      "logs": [
        {
          "address": "0x8aafd3ede9adb0ff97c7aebce82a919afb1c8764",
          "topics": [
            "0xddf252ad1be2c89b69c2b068fc378daa952ba7f163c4a11628f55a4df523b3ef",
            "0x000000000000000000000000c77f7fed3b5cc8249adc428c5f44c9063b9734b4",
            "0x0000000000000000000000000000000000000000000000000000000000000000"
          ],
          "data": "0x000000000000000000000000000000000000000000000000000132003cecf1f7",
          "blockHash": "0x094ef634a13a14c17f723e607173d990bd01b5bee6cab3a35586f303a6f9d3d3",
          "blockNumber": "0x7319fb",
          "transactionHash": "0x377b0d1b89ef51c711a2f7f09a0afa2191443451f486a8e2c2ed3317c5747353",
          "transactionIndex": "0x6f",
          "logIndex": "0x77",
          "removed": false
        },
        {
          "address": "0x8aafd3ede9adb0ff97c7aebce82a919afb1c8764",
          "topics": [
            "0xddf252ad1be2c89b69c2b068fc378daa952ba7f163c4a11628f55a4df523b3ef",
            "0x000000000000000000000000c77f7fed3b5cc8249adc428c5f44c9063b9734b4",
            "0x000000000000000000000000c77f7fed3b5cc8249adc428c5f44c9063b9734b4"
          ],
          "data": "0x00000000000000000000000000000000000000000000000000000277be6d4404",
          "blockHash": "0x094ef634a13a14c17f723e607173d990bd01b5bee6cab3a35586f303a6f9d3d3",
          "blockNumber": "0x7319fb",
          "transactionHash": "0x377b0d1b89ef51c711a2f7f09a0afa2191443451f486a8e2c2ed3317c5747353",
          "transactionIndex": "0x6f",
          "logIndex": "0x78",
          "removed": false
        },
        {
          "address": "0x8aafd3ede9adb0ff97c7aebce82a919afb1c8764",
          "topics": [
            "0x4afcb4a87cdbd9974efdb92ee48bc8d7cd0ae4bf217004db3d080cbaee652ca7"
          ],
          "data": "0x0000000000000000000000000000000000000000000000000000000067903494000000000000000000000000000000000000000000000000000554cfa80aa5ec00000000000000000000000000000000000000000000000000000076805ad4c0",
          "blockHash": "0x094ef634a13a14c17f723e607173d990bd01b5bee6cab3a35586f303a6f9d3d3",
          "blockNumber": "0x7319fb",
          "transactionHash": "0x377b0d1b89ef51c711a2f7f09a0afa2191443451f486a8e2c2ed3317c5747353",
          "transactionIndex": "0x6f",
          "logIndex": "0x79",
          "removed": false
        }
      ],
      "logsBloom": "0x00000000000000000000000000000000000000000600000000000000000000000000000000000000000000000000000000000000000000004000000000000000000000000000004000000008000000000000000000000000000000000000000000000000020000000000000000000800020000000000000000000010000000000000000000000000000000000000000000000000000000000000010000000000000000000000000000000000000000004000000000000000000000000000000000000002000000800000000000000000000000000000080000000000000020000000000000000000000000000000000000000000000000000000000000000000",
      "type": "0x2",
      "transactionHash": "0x377b0d1b89ef51c711a2f7f09a0afa2191443451f486a8e2c2ed3317c5747353",
      "transactionIndex": "0x6f",
      "blockHash": "0x094ef634a13a14c17f723e607173d990bd01b5bee6cab3a35586f303a6f9d3d3",
      "blockNumber": "0x7319fb",
      "gasUsed": "0xfd33",
      "effectiveGasPrice": "0x45397313",
      "from": "0xc77f7fed3b5cc8249adc428c5f44c9063b9734b4",
      "to": "0x8aafd3ede9adb0ff97c7aebce82a919afb1c8764",
      "contractAddress": null
    }
  ],
  "libraries": [],
  "pending": [],
  "returns": {},
  "timestamp": 1737503894,
  "chain": 11155111,
  "commit": "1d2fb70"
}