{
  "transactions": [
    {
      "hash": "0xaaff0e0babe37854aeec890ee5a6e326198695d6e65dbd2a94ed218e9d2c791e",
      "transactionType": "CALL",
      "contractName": null,
      "contractAddress": "0x8aafd3ede9adb0ff97c7aebce82a919afb1c8764",
      "function": "sell(uint256)",
      "arguments": [
        "207664830"
      ],
      "transaction": {
        "from": "0xc77f7fed3b5cc8249adc428c5f44c9063b9734b4",
        "to": "0x8aafd3ede9adb0ff97c7aebce82a919afb1c8764",
        "gas": "0x14e6c",
        "value": "0x0",
        "input": "0xe4849b32000000000000000000000000000000000000000000000000000000000c60b6be",
        "nonce": "0xf1d",
        "chainId": "0xaa36a7"
      },
      "additionalContracts": [],
      "isFixedGasLimit": false
    }
  ],
  "receipts": [
    {
      "status": "0x1",
      "cumulativeGasUsed": "0xadf4a2",
      "logs": [
        {
          "address": "0x8aafd3ede9adb0ff97c7aebce82a919afb1c8764",
          "topics": [
            "0xddf252ad1be2c89b69c2b068fc378daa952ba7f163c4a11628f55a4df523b3ef",
            "0x000000000000000000000000c77f7fed3b5cc8249adc428c5f44c9063b9734b4",
            "0x0000000000000000000000000000000000000000000000000000000000000000"
          ],
          "data": "0x000000000000000000000000000000000000000000000000000000000c475d38",
          "blockHash": "0x96672115c0ff10c768da6e20f627e165c0e73217de9e157f908a103298dcfcad",
          "blockNumber": "0x73156e",
          "transactionHash": "0xaaff0e0babe37854aeec890ee5a6e326198695d6e65dbd2a94ed218e9d2c791e",
          "transactionIndex": "0x7e",
          "logIndex": "0x8f",
          "removed": false
        },
        {
          "address": "0x8aafd3ede9adb0ff97c7aebce82a919afb1c8764",
          "topics": [
            "0xddf252ad1be2c89b69c2b068fc378daa952ba7f163c4a11628f55a4df523b3ef",
            "0x000000000000000000000000c77f7fed3b5cc8249adc428c5f44c9063b9734b4",
            "0x000000000000000000000000c77f7fed3b5cc8249adc428c5f44c9063b9734b4"
          ],
          "data": "0x0000000000000000000000000000000000000000000000000000000000195986",
          "blockHash": "0x96672115c0ff10c768da6e20f627e165c0e73217de9e157f908a103298dcfcad",
          "blockNumber": "0x73156e",
          "transactionHash": "0xaaff0e0babe37854aeec890ee5a6e326198695d6e65dbd2a94ed218e9d2c791e",
          "transactionIndex": "0x7e",
          "logIndex": "0x90",
          "removed": false
        },
        {
          "address": "0x8aafd3ede9adb0ff97c7aebce82a919afb1c8764",
          "topics": [
            "0x4afcb4a87cdbd9974efdb92ee48bc8d7cd0ae4bf217004db3d080cbaee652ca7"
          ],
          "data": "0x00000000000000000000000000000000000000000000000000000000678ffdd40000000000000000000000000000000000000000000000000004bee3f24027040000000000000000000000000000000000000000000000000000000000043b93",
          "blockHash": "0x96672115c0ff10c768da6e20f627e165c0e73217de9e157f908a103298dcfcad",
          "blockNumber": "0x73156e",
          "transactionHash": "0xaaff0e0babe37854aeec890ee5a6e326198695d6e65dbd2a94ed218e9d2c791e",
          "transactionIndex": "0x7e",
          "logIndex": "0x91",
          "removed": false
        }
      ],
      "logsBloom": "0x00000000000000000000000000000000000000000600000000000000000000000000000000000000000000000000000000000000000000004000000000000000000000000000004000000008000000000000000000000000000000000000000000000000020000000000000000000800020000000000000000000010000000000000000000000000000000000000000000000000000000000000010000000000000000000000000000000000000000004000000000000000000000000000000000000002000000800000000000000000000000000000080000000000000020000000000000000000000000000000000000000000000000000000000000000000",
      "type": "0x2",
      "transactionHash": "0xaaff0e0babe37854aeec890ee5a6e326198695d6e65dbd2a94ed218e9d2c791e",
      "transactionIndex": "0x7e",
      "blockHash": "0x96672115c0ff10c768da6e20f627e165c0e73217de9e157f908a103298dcfcad",
      "blockNumber": "0x73156e",
      "gasUsed": "0xf21f",
      "effectiveGasPrice": "0x93b7c84b",
      "from": "0xc77f7fed3b5cc8249adc428c5f44c9063b9734b4",
      "to": "0x8aafd3ede9adb0ff97c7aebce82a919afb1c8764",
      "contractAddress": null
    }
  ],
  "libraries": [],
  "pending": [],
  "returns": {},
  "timestamp": 1737489877,
  "chain": 11155111,
  "commit": "1d2fb70"
}