{
  "transactions": [
    {
      "hash": "0xdb2004febceaecd8e2c8338136cf31b0a528560e362e489c9273dc97ab14d84c",
      "transactionType": "CALL",
      "contractName": null,
      "contractAddress": "0x270e88f8683660553e8ba4eb2ad7c91a1710d769",
      "function": "buy(address)",
      "arguments": [
        "0xC77f7fed3b5Cc8249aDc428c5F44C9063B9734b4"
      ],
      "transaction": {
        "from": "0xc77f7fed3b5cc8249adc428c5f44c9063b9734b4",
        "to": "0x270e88f8683660553e8ba4eb2ad7c91a1710d769",
        "gas": "0x1b30c",
        "value": "0xde0b6b3a7640000",
        "input": "0xf088d547000000000000000000000000c77f7fed3b5cc8249adc428c5f44c9063b9734b4",
        "nonce": "0x51c",
        "chainId": "0xaa36a7"
      },
      "additionalContracts": [],
      "isFixedGasLimit": false
    }
  ],
  "receipts": [
    {
      "status": "0x1",
      "cumulativeGasUsed": "0x98a4b9",
      "logs": [
        {
          "address": "0x270e88f8683660553e8ba4eb2ad7c91a1710d769",
          "topics": [
            "0xddf252ad1be2c89b69c2b068fc378daa952ba7f163c4a11628f55a4df523b3ef",
            "0x0000000000000000000000000000000000000000000000000000000000000000",
            "0x000000000000000000000000c77f7fed3b5cc8249adc428c5f44c9063b9734b4"
          ],
          "data": "0x0000000000000000000000000000000000000000000000350db96d36e06cb62d",
          "blockHash": "0x4ee2e221a1348a2b930a8d5f7d256c954f3a8947af7f7e30a2412a16a314a6de",
          "blockNumber": "0x7251b4",
          "transactionHash": "0xdb2004febceaecd8e2c8338136cf31b0a528560e362e489c9273dc97ab14d84c",
          "transactionIndex": "0x56",
          "logIndex": "0x7d",
          "removed": false
        },
        {
          "address": "0x270e88f8683660553e8ba4eb2ad7c91a1710d769",
          "topics": [
            "0xddf252ad1be2c89b69c2b068fc378daa952ba7f163c4a11628f55a4df523b3ef",
            "0x0000000000000000000000000000000000000000000000000000000000000000",
            "0x000000000000000000000000c77f7fed3b5cc8249adc428c5f44c9063b9734b4"
          ],
          "data": "0x0000000000000000000000000000000000000000000000002932ac15c900d5a2",
          "blockHash": "0x4ee2e221a1348a2b930a8d5f7d256c954f3a8947af7f7e30a2412a16a314a6de",
          "blockNumber": "0x7251b4",
          "transactionHash": "0xdb2004febceaecd8e2c8338136cf31b0a528560e362e489c9273dc97ab14d84c",
          "transactionIndex": "0x56",
          "logIndex": "0x7e",
          "removed": false
        },
        {
          "address": "0x270e88f8683660553e8ba4eb2ad7c91a1710d769",
          "topics": [
            "0x4afcb4a87cdbd9974efdb92ee48bc8d7cd0ae4bf217004db3d080cbaee652ca7"
          ],
          "data": "0x000000000000000000000000000000000000000000000000000000006786c65400000000000000000000000000000000000000000000000000039821b21c90150000000000000000000000000000000000000000000000000de0b6b3a7640000",
          "blockHash": "0x4ee2e221a1348a2b930a8d5f7d256c954f3a8947af7f7e30a2412a16a314a6de",
          "blockNumber": "0x7251b4",
          "transactionHash": "0xdb2004febceaecd8e2c8338136cf31b0a528560e362e489c9273dc97ab14d84c",
          "transactionIndex": "0x56",
          "logIndex": "0x7f",
          "removed": false
        }
      ],
      "logsBloom": "0x00000000000000000000000000000000000000000000000000000000000000000000000000000000000000000000000020000000000000004000000000000000000000000000000000000008000000000000000000000000000000000000000000000000020000000000000000000800020000000000000000000010000000000000000000010000000000000000000000000000000000000000010000000000000000000000000000000000000000004000000000000000000000000000000000000002000000800000000000000000000000000000080000008000000020000000000000000000000000000000000000000000000000000000000000000000",
      "type": "0x2",
      "transactionHash": "0xdb2004febceaecd8e2c8338136cf31b0a528560e362e489c9273dc97ab14d84c",
      "transactionIndex": "0x56",
      "blockHash": "0x4ee2e221a1348a2b930a8d5f7d256c954f3a8947af7f7e30a2412a16a314a6de",
      "blockNumber": "0x7251b4",
      "gasUsed": "0x13af8",
      "effectiveGasPrice": "0x44dfa2040",
      "from": "0xc77f7fed3b5cc8249adc428c5f44c9063b9734b4",
      "to": "0x270e88f8683660553e8ba4eb2ad7c91a1710d769",
      "contractAddress": null
    }
  ],
  "libraries": [],
  "pending": [],
  "returns": {},
  "timestamp": 1736885846,
  "chain": 11155111,
  "commit": "51a374b"
}