{
  "transactions": [
    {
      "hash": "0xecf016e4ccccb73bd11ed0466d6c2e482a6901d22f5d40932a918cb1b4a738d2",
      "transactionType": "CALL",
      "contractName": null,
      "contractAddress": "0x8aafd3ede9adb0ff97c7aebce82a919afb1c8764",
      "function": "sell(uint256)",
      "arguments": [
        "929206956735"
      ],
      "transaction": {
        "from": "0xc77f7fed3b5cc8249adc428c5f44c9063b9734b4",
        "to": "0x8aafd3ede9adb0ff97c7aebce82a919afb1c8764",
        "gas": "0x1722a",
        "value": "0x0",
        "input": "0xe4849b32000000000000000000000000000000000000000000000000000000d8590cf2bf",
        "nonce": "0x1485",
        "chainId": "0xaa36a7"
      },
      "additionalContracts": [],
      "isFixedGasLimit": false
    }
  ],
  "receipts": [
    {
      "status": "0x1",
      "cumulativeGasUsed": "0x15dff84",
      "logs": [
        {
          "address": "0x8aafd3ede9adb0ff97c7aebce82a919afb1c8764",
          "topics": [
            "0xddf252ad1be2c89b69c2b068fc378daa952ba7f163c4a11628f55a4df523b3ef",
            "0x000000000000000000000000c77f7fed3b5cc8249adc428c5f44c9063b9734b4",
            "0x0000000000000000000000000000000000000000000000000000000000000000"
          ],
          "data": "0x000000000000000000000000000000000000000000000000000000d69df85d5a",
          "blockHash": "0xf6696e130f54210d222b4f0f22c6179f0b72dc19da1b034a6dc52613f9dda3ca",
          "blockNumber": "0x731bd4",
          "transactionHash": "0xecf016e4ccccb73bd11ed0466d6c2e482a6901d22f5d40932a918cb1b4a738d2",
          "transactionIndex": "0xbc",
          "logIndex": "0x138",
          "removed": false
        },
        {
          "address": "0x8aafd3ede9adb0ff97c7aebce82a919afb1c8764",
          "topics": [
            "0xddf252ad1be2c89b69c2b068fc378daa952ba7f163c4a11628f55a4df523b3ef",
            "0x000000000000000000000000c77f7fed3b5cc8249adc428c5f44c9063b9734b4",
            "0x000000000000000000000000c77f7fed3b5cc8249adc428c5f44c9063b9734b4"
          ],
          "data": "0x00000000000000000000000000000000000000000000000000000001bb149565",
          "blockHash": "0xf6696e130f54210d222b4f0f22c6179f0b72dc19da1b034a6dc52613f9dda3ca",
          "blockNumber": "0x731bd4",
          "transactionHash": "0xecf016e4ccccb73bd11ed0466d6c2e482a6901d22f5d40932a918cb1b4a738d2",
          "transactionIndex": "0xbc",
          "logIndex": "0x139",
          "removed": false
        },
        {
          "address": "0x8aafd3ede9adb0ff97c7aebce82a919afb1c8764",
          "topics": [
            "0x4afcb4a87cdbd9974efdb92ee48bc8d7cd0ae4bf217004db3d080cbaee652ca7"
          ],
          "data": "0x0000000000000000000000000000000000000000000000000000000067904acc000000000000000000000000000000000000000000000000000fa77968ce008a00000000000000000000000000000000000000000000000000000000f40a8b11",
          "blockHash": "0xf6696e130f54210d222b4f0f22c6179f0b72dc19da1b034a6dc52613f9dda3ca",
          "blockNumber": "0x731bd4",
          "transactionHash": "0xecf016e4ccccb73bd11ed0466d6c2e482a6901d22f5d40932a918cb1b4a738d2",
          "transactionIndex": "0xbc",
          "logIndex": "0x13a",
          "removed": false
        }
      ],
      "logsBloom": "0x00000000000000000000000000000000000000000600000000000000000000000000000000000000000000000000000000000000000000004000000000000000000000000000004000000008000000000000000000000000000000000000000000000000020000000000000000000800020000000000000000000010000000000000000000000000000000000000000000000000000000000000010000000000000000000000000000000000000000004000000000000000000000000000000000000002000000800000000000000000000000000000080000000000000020000000000000000000000000000000000000000000000000000000000000000000",
      "type": "0x2",
      "transactionHash": "0xecf016e4ccccb73bd11ed0466d6c2e482a6901d22f5d40932a918cb1b4a738d2",
      "transactionIndex": "0xbc",
      "blockHash": "0xf6696e130f54210d222b4f0f22c6179f0b72dc19da1b034a6dc52613f9dda3ca",
      "blockNumber": "0x731bd4",
      "gasUsed": "0xfd1b",
      "effectiveGasPrice": "0xfbb6e82f",
      "from": "0xc77f7fed3b5cc8249adc428c5f44c9063b9734b4",
      "to": "0x8aafd3ede9adb0ff97c7aebce82a919afb1c8764",
      "contractAddress": null
    }
  ],
  "libraries": [],
  "pending": [],
  "returns": {},
  "timestamp": 1737509582,
  "chain": 11155111,
  "commit": "1d2fb70"
}