{
  "transactions": [
    {
      "hash": "0xade2cfaf1cd586677b100aa2a4fcab9c471fd8a8c239779e1067af6a5cd26411",
      "transactionType": "CALL",
      "contractName": null,
      "contractAddress": "0x8aafd3ede9adb0ff97c7aebce82a919afb1c8764",
      "function": "sell(uint256)",
      "arguments": [
        "45719519"
      ],
      "transaction": {
        "from": "0xc77f7fed3b5cc8249adc428c5f44c9063b9734b4",
        "to": "0x8aafd3ede9adb0ff97c7aebce82a919afb1c8764",
        "gas": "0x15d88",
        "value": "0x0",
        "input": "0xe4849b320000000000000000000000000000000000000000000000000000000002b99fdf",
        "nonce": "0x161c",
        "chainId": "0xaa36a7"
      },
      "additionalContracts": [],
      "isFixedGasLimit": false
    }
  ],
  "receipts": [
    {
      "status": "0x1",
      "cumulativeGasUsed": "0xa5b1a6",
      "logs": [
        {
          "address": "0x8aafd3ede9adb0ff97c7aebce82a919afb1c8764",
          "topics": [
            "0xddf252ad1be2c89b69c2b068fc378daa952ba7f163c4a11628f55a4df523b3ef",
            "0x000000000000000000000000c77f7fed3b5cc8249adc428c5f44c9063b9734b4",
            "0x0000000000000000000000000000000000000000000000000000000000000000"
          ],
          "data": "0x0000000000000000000000000000000000000000000000000000000002b40b23",
          "blockHash": "0x068b60cae061d5fdddaad6ac16a6b1fc1867b91f77bca5c867c424318904bc85",
          "blockNumber": "0x731db2",
          "transactionHash": "0xade2cfaf1cd586677b100aa2a4fcab9c471fd8a8c239779e1067af6a5cd26411",
          "transactionIndex": "0x73",
          "logIndex": "0xb7",
          "removed": false
        },
        {
          "address": "0x8aafd3ede9adb0ff97c7aebce82a919afb1c8764",
          "topics": [
            "0xddf252ad1be2c89b69c2b068fc378daa952ba7f163c4a11628f55a4df523b3ef",
            "0x000000000000000000000000c77f7fed3b5cc8249adc428c5f44c9063b9734b4",
            "0x000000000000000000000000c77f7fed3b5cc8249adc428c5f44c9063b9734b4"
          ],
          "data": "0x00000000000000000000000000000000000000000000000000000000000594bc",
          "blockHash": "0x068b60cae061d5fdddaad6ac16a6b1fc1867b91f77bca5c867c424318904bc85",
          "blockNumber": "0x731db2",
          "transactionHash": "0xade2cfaf1cd586677b100aa2a4fcab9c471fd8a8c239779e1067af6a5cd26411",
          "transactionIndex": "0x73",
          "logIndex": "0xb8",
          "removed": false
        },
        {
          "address": "0x8aafd3ede9adb0ff97c7aebce82a919afb1c8764",
          "topics": [
            "0x4afcb4a87cdbd9974efdb92ee48bc8d7cd0ae4bf217004db3d080cbaee652ca7"
          ],
          "data": "0x0000000000000000000000000000000000000000000000000000000067906140000000000000000000000000000000000000000000000000001455191aabf8bf000000000000000000000000000000000000000000000000000000000003fe17",
          "blockHash": "0x068b60cae061d5fdddaad6ac16a6b1fc1867b91f77bca5c867c424318904bc85",
          "blockNumber": "0x731db2",
          "transactionHash": "0xade2cfaf1cd586677b100aa2a4fcab9c471fd8a8c239779e1067af6a5cd26411",
          "transactionIndex": "0x73",
          "logIndex": "0xb9",
          "removed": false
        }
      ],
      "logsBloom": "0x00000000000000000000000000000000000000000600000000000000000000000000000000000000000000000000000000000000000000004000000000000000000000000000004000000008000000000000000000000000000000000000000000000000020000000000000000000800020000000000000000000010000000000000000000000000000000000000000000000000000000000000010000000000000000000000000000000000000000004000000000000000000000000000000000000002000000800000000000000000000000000000080000000000000020000000000000000000000000000000000000000000000000000000000000000000",
      "type": "0x2",
      "transactionHash": "0xade2cfaf1cd586677b100aa2a4fcab9c471fd8a8c239779e1067af6a5cd26411",
      "transactionIndex": "0x73",
      "blockHash": "0x068b60cae061d5fdddaad6ac16a6b1fc1867b91f77bca5c867c424318904bc85",
      "blockNumber": "0x731db2",
      "gasUsed": "0xfd0f",
      "effectiveGasPrice": "0x6c5e3670",
      "from": "0xc77f7fed3b5cc8249adc428c5f44c9063b9734b4",
      "to": "0x8aafd3ede9adb0ff97c7aebce82a919afb1c8764",
      "contractAddress": null
    }
  ],
  "libraries": [],
  "pending": [],
  "returns": {},
  "timestamp": 1737515330,
  "chain": 11155111,
  "commit": "1d2fb70"
}