{
  "transactions": [
    {
      "hash": "0x78e48387d79742c54e9c1d874bbe10a610177b84ece520448227f97a7777fc89",
      "transactionType": "CALL",
      "contractName": null,
      "contractAddress": "0xbf4a322f1496e5c3d34a9bcdb4c60567b38c7de2",
      "function": "sell(uint256)",
      "arguments": [
        "975601767643957054244"
      ],
      "transaction": {
        "from": "0xc77f7fed3b5cc8249adc428c5f44c9063b9734b4",
        "to": "0xbf4a322f1496e5c3d34a9bcdb4c60567b38c7de2",
        "gas": "0x16fea",
        "value": "0x0",
        "input": "0xe4849b32000000000000000000000000000000000000000000000034e331beb6653e4b24",
        "nonce": "0xd61",
        "chainId": "0xaa36a7"
      },
      "additionalContracts": [],
      "isFixedGasLimit": false
    }
  ],
  "receipts": [
    {
      "status": "0x1",
      "cumulativeGasUsed": "0x1b809f8",
      "logs": [
        {
          "address": "0xbf4a322f1496e5c3d34a9bcdb4c60567b38c7de2",
          "topics": [
            "0xddf252ad1be2c89b69c2b068fc378daa952ba7f163c4a11628f55a4df523b3ef",
            "0x000000000000000000000000c77f7fed3b5cc8249adc428c5f44c9063b9734b4",
            "0x0000000000000000000000000000000000000000000000000000000000000000"
          ],
          "data": "0x000000000000000000000000000000000000000000000034e331beb6653e4b24",
          "blockHash": "0x93059839142ea0d06cd7a37b35788bc253c94b2df3bc3316f8a6040df03aa2c0",
          "blockNumber": "0x725dcb",
          "transactionHash": "0x78e48387d79742c54e9c1d874bbe10a610177b84ece520448227f97a7777fc89",
          "transactionIndex": "0x10d",
          "logIndex": "0x1e6",
          "removed": false
        },
        {
          "address": "0xbf4a322f1496e5c3d34a9bcdb4c60567b38c7de2",
          "topics": [
            "0x4afcb4a87cdbd9974efdb92ee48bc8d7cd0ae4bf217004db3d080cbaee652ca7"
          ],
          "data": "0x00000000000000000000000000000000000000000000000000000000678757f800000000000000000000000000000000000000000000000000039dbdf8b3ec650000000000000000000000000000000000000000000000000dc7e3d7d719082d",
          "blockHash": "0x93059839142ea0d06cd7a37b35788bc253c94b2df3bc3316f8a6040df03aa2c0",
          "blockNumber": "0x725dcb",
          "transactionHash": "0x78e48387d79742c54e9c1d874bbe10a610177b84ece520448227f97a7777fc89",
          "transactionIndex": "0x10d",
          "logIndex": "0x1e7",
          "removed": false
        }
      ],
      "logsBloom": "0x00000000000000000000000000000000000000000000000000000000000000000000000000000000000000000000000000000000000000004000000000000000000000000000000000000008000000000000001000000000000000000000000000000000020000000000000000000800020000000000000000000010000000000000000000000000000000000000000000000000000008000000010000000000000000000000000000000000000000004000000000000000000000000000000000000002000000800000000000001000000000000000080000000000000020000000000000000000000000000000000000000000000000000000000000000000",
      "type": "0x2",
      "transactionHash": "0x78e48387d79742c54e9c1d874bbe10a610177b84ece520448227f97a7777fc89",
      "transactionIndex": "0x10d",
      "blockHash": "0x93059839142ea0d06cd7a37b35788bc253c94b2df3bc3316f8a6040df03aa2c0",
      "blockNumber": "0x725dcb",
      "gasUsed": "0xfb91",
      "effectiveGasPrice": "0x2d90d7d1a",
      "from": "0xc77f7fed3b5cc8249adc428c5f44c9063b9734b4",
      "to": "0xbf4a322f1496e5c3d34a9bcdb4c60567b38c7de2",
      "contractAddress": null
    }
  ],
  "libraries": [],
  "pending": [],
  "returns": {},
  "timestamp": 1736923129,
  "chain": 11155111,
  "commit": "51a374b"
}