{
  "transactions": [
    {
      "hash": "0x99c4182f26f930b3354072d4a1b985a02d513107fb2fd85d060f2c1605ab2362",
      "transactionType": "CALL",
      "contractName": null,
      "contractAddress": "0x8aafd3ede9adb0ff97c7aebce82a919afb1c8764",
      "function": "sell(uint256)",
      "arguments": [
        "7058457197"
      ],
      "transaction": {
        "from": "0xc77f7fed3b5cc8249adc428c5f44c9063b9734b4",
        "to": "0x8aafd3ede9adb0ff97c7aebce82a919afb1c8764",
        "gas": "0x1722a",
        "value": "0x0",
        "input": "0xe4849b3200000000000000000000000000000000000000000000000000000001a4b7826d",
        "nonce": "0x14ce",
        "chainId": "0xaa36a7"
      },
      "additionalContracts": [],
      "isFixedGasLimit": false
    }
  ],
  "receipts": [
    {
      "status": "0x1",
      "cumulativeGasUsed": "0xc519e8",
      "logs": [
        {
          "address": "0x8aafd3ede9adb0ff97c7aebce82a919afb1c8764",
          "topics": [
            "0xddf252ad1be2c89b69c2b068fc378daa952ba7f163c4a11628f55a4df523b3ef",
            "0x000000000000000000000000c77f7fed3b5cc8249adc428c5f44c9063b9734b4",
            "0x0000000000000000000000000000000000000000000000000000000000000000"
          ],
          "data": "0x00000000000000000000000000000000000000000000000000000001a159e1a4",
          "blockHash": "0x9763efff40624b02643534d4da26339fdacea471695032ecac92c9426a452b0a",
          "blockNumber": "0x731c2c",
          "transactionHash": "0x99c4182f26f930b3354072d4a1b985a02d513107fb2fd85d060f2c1605ab2362",
          "transactionIndex": "0x5b",
          "logIndex": "0x86",
          "removed": false
        },
        {
          "address": "0x8aafd3ede9adb0ff97c7aebce82a919afb1c8764",
          "topics": [
            "0xddf252ad1be2c89b69c2b068fc378daa952ba7f163c4a11628f55a4df523b3ef",
            "0x000000000000000000000000c77f7fed3b5cc8249adc428c5f44c9063b9734b4",
            "0x000000000000000000000000c77f7fed3b5cc8249adc428c5f44c9063b9734b4"
          ],
          "data": "0x00000000000000000000000000000000000000000000000000000000035da0c9",
          "blockHash": "0x9763efff40624b02643534d4da26339fdacea471695032ecac92c9426a452b0a",
          "blockNumber": "0x731c2c",
          "transactionHash": "0x99c4182f26f930b3354072d4a1b985a02d513107fb2fd85d060f2c1605ab2362",
          "transactionIndex": "0x5b",
          "logIndex": "0x87",
          "removed": false
        },
        {
          "address": "0x8aafd3ede9adb0ff97c7aebce82a919afb1c8764",
          "topics": [
            "0x4afcb4a87cdbd9974efdb92ee48bc8d7cd0ae4bf217004db3d080cbaee652ca7"
          ],
          "data": "0x0000000000000000000000000000000000000000000000000000000067904eec00000000000000000000000000000000000000000000000000107b2a6d3ebb080000000000000000000000000000000000000000000000000000000001f3a390",
          "blockHash": "0x9763efff40624b02643534d4da26339fdacea471695032ecac92c9426a452b0a",
          "blockNumber": "0x731c2c",
          "transactionHash": "0x99c4182f26f930b3354072d4a1b985a02d513107fb2fd85d060f2c1605ab2362",
          "transactionIndex": "0x5b",
          "logIndex": "0x88",
          "removed": false
        }
      ],
      "logsBloom": "0x00000000000000000000000000000000000000000600000000000000000000000000000000000000000000000000000000000000000000004000000000000000000000000000004000000008000000000000000000000000000000000000000000000000020000000000000000000800020000000000000000000010000000000000000000000000000000000000000000000000000000000000010000000000000000000000000000000000000000004000000000000000000000000000000000000002000000800000000000000000000000000000080000000000000020000000000000000000000000000000000000000000000000000000000000000000",
      "type": "0x2",
      "transactionHash": "0x99c4182f26f930b3354072d4a1b985a02d513107fb2fd85d060f2c1605ab2362",
      "transactionIndex": "0x5b",
      "blockHash": "0x9763efff40624b02643534d4da26339fdacea471695032ecac92c9426a452b0a",
      "blockNumber": "0x731c2c",
      "gasUsed": "0xfd1b",
      "effectiveGasPrice": "0x12ca538bc",
      "from": "0xc77f7fed3b5cc8249adc428c5f44c9063b9734b4",
      "to": "0x8aafd3ede9adb0ff97c7aebce82a919afb1c8764",
      "contractAddress": null
    }
  ],
  "libraries": [],
  "pending": [],
  "returns": {},
  "timestamp": 1737510636,
  "chain": 11155111,
  "commit": "1d2fb70"
}