{
  "transactions": [
    {
      "hash": "0x9ce67e33908d0aa33e1c98f9a6309ebad668f2cbc53871a7afc9eddae7f6feb4",
      "transactionType": "CALL",
      "contractName": null,
      "contractAddress": "0x8aafd3ede9adb0ff97c7aebce82a919afb1c8764",
      "function": "buy(address)",
      "arguments": [
        "0xC77f7fed3b5Cc8249aDc428c5F44C9063B9734b4"
      ],
      "transaction": {
        "from": "0xc77f7fed3b5cc8249adc428c5f44c9063b9734b4",
        "to": "0x8aafd3ede9adb0ff97c7aebce82a919afb1c8764",
        "gas": "0x156ea",
        "value": "0xde0b6b3a7640000",
        "input": "0xf088d547000000000000000000000000c77f7fed3b5cc8249adc428c5f44c9063b9734b4",
        "nonce": "0x12c0",
        "chainId": "0xaa36a7"
      },
      "additionalContracts": [],
      "isFixedGasLimit": false
    }
  ],
  "receipts": [
    {
      "status": "0x1",
      "cumulativeGasUsed": "0xb35e82",
      "logs": [
        {
          "address": "0x8aafd3ede9adb0ff97c7aebce82a919afb1c8764",
          "topics": [
            "0xddf252ad1be2c89b69c2b068fc378daa952ba7f163c4a11628f55a4df523b3ef",
            "0x0000000000000000000000000000000000000000000000000000000000000000",
            "0x000000000000000000000000c77f7fed3b5cc8249adc428c5f44c9063b9734b4"
          ],
          "data": "0x000000000000000000000000000000000000000000000023fe6606119cc89c64",
          "blockHash": "0x4a11594e3f62f5a1bf1cfbe7dfc8ada8806ca2b4f8f5051b7372f094f9a3f260",
          "blockNumber": "0x7319b9",
          "transactionHash": "0x9ce67e33908d0aa33e1c98f9a6309ebad668f2cbc53871a7afc9eddae7f6feb4",
          "transactionIndex": "0x82",
          "logIndex": "0xac",
          "removed": false
        },
        {
          "address": "0x8aafd3ede9adb0ff97c7aebce82a919afb1c8764",
          "topics": [
            "0xddf252ad1be2c89b69c2b068fc378daa952ba7f163c4a11628f55a4df523b3ef",
            "0x0000000000000000000000000000000000000000000000000000000000000000",
            "0x000000000000000000000000c77f7fed3b5cc8249adc428c5f44c9063b9734b4"
          ],
          "data": "0x0000000000000000000000000000000000000000000000001bf34b756d32b7e0",
          "blockHash": "0x4a11594e3f62f5a1bf1cfbe7dfc8ada8806ca2b4f8f5051b7372f094f9a3f260",
          "blockNumber": "0x7319b9",
          "transactionHash": "0x9ce67e33908d0aa33e1c98f9a6309ebad668f2cbc53871a7afc9eddae7f6feb4",
          "transactionIndex": "0x82",
          "logIndex": "0xad",
          "removed": false
        },
        {
          "address": "0x8aafd3ede9adb0ff97c7aebce82a919afb1c8764",
          "topics": [
            "0x4afcb4a87cdbd9974efdb92ee48bc8d7cd0ae4bf217004db3d080cbaee652ca7"
          ],
          "data": "0x000000000000000000000000000000000000000000000000000000006790317c00000000000000000000000000000000000000000000000000054c8032aa43c30000000000000000000000000000000000000000000000000de0b6b3a7640000",
          "blockHash": "0x4a11594e3f62f5a1bf1cfbe7dfc8ada8806ca2b4f8f5051b7372f094f9a3f260",
          "blockNumber": "0x7319b9",
          "transactionHash": "0x9ce67e33908d0aa33e1c98f9a6309ebad668f2cbc53871a7afc9eddae7f6feb4",
          "transactionIndex": "0x82",
          "logIndex": "0xae",
          "removed": false
        }
      ],
      "logsBloom": "0x00000000000000000000000000000000000000000600000000000000000000000000000000000000000000000000000000000000000000004000000000000000000000000000004000000008000000000000000000000000000000000000000000000000020000000000000000000800020000000000000000000010000000000000000000000000000000000000000000000000000000000000010000000000000000000000000000000000000000004000000000000000000000000000000000000002000000800000000000000000000000000000080000000000000020000000000000000000000000000000000000000000000000000000000000000000",
      "type": "0x2",
      "transactionHash": "0x9ce67e33908d0aa33e1c98f9a6309ebad668f2cbc53871a7afc9eddae7f6feb4",
      "transactionIndex": "0x82",
      "blockHash": "0x4a11594e3f62f5a1bf1cfbe7dfc8ada8806ca2b4f8f5051b7372f094f9a3f260",
      "blockNumber": "0x7319b9",
      "gasUsed": "0xf844",
      "effectiveGasPrice": "0x49ef3078",
      "from": "0xc77f7fed3b5cc8249adc428c5f44c9063b9734b4",
      "to": "0x8aafd3ede9adb0ff97c7aebce82a919afb1c8764",
      "contractAddress": null
    }
  ],
  "libraries": [],
  "pending": [],
  "returns": {},
  "timestamp": 1737503103,
  "chain": 11155111,
  "commit": "1d2fb70"
}