{
  "transactions": [
    {
      "hash": "0x43c861cca5b7fea383f1e86a00b130f733b056dd76bb1f7fd5c087d712edce75",
      "transactionType": "CALL",
      "contractName": null,
      "contractAddress": "0x8aafd3ede9adb0ff97c7aebce82a919afb1c8764",
      "function": "sell(uint256)",
      "arguments": [
        "75902526703324"
      ],
      "transaction": {
        "from": "0xc77f7fed3b5cc8249adc428c5f44c9063b9734b4",
        "to": "0x8aafd3ede9adb0ff97c7aebce82a919afb1c8764",
        "gas": "0x15daa",
        "value": "0x0",
        "input": "0xe4849b32000000000000000000000000000000000000000000000000000045086f2446dc",
        "nonce": "0x174b",
        "chainId": "0xaa36a7"
      },
      "additionalContracts": [],
      "isFixedGasLimit": false
    }
  ],
  "receipts": [
    {
      "status": "0x1",
      "cumulativeGasUsed": "0x763db4",
      "logs": [
        {
          "address": "0x8aafd3ede9adb0ff97c7aebce82a919afb1c8764",
          "topics": [
            "0xddf252ad1be2c89b69c2b068fc378daa952ba7f163c4a11628f55a4df523b3ef",
            "0x000000000000000000000000c77f7fed3b5cc8249adc428c5f44c9063b9734b4",
            "0x0000000000000000000000000000000000000000000000000000000000000000"
          ],
          "data": "0x0000000000000000000000000000000000000000000000000000447b0dff1f62",
          "blockHash": "0xa79e28a8e3f30e4e1abff8c7466efe4cb8cd97df5ea00838af26f086a94ced6b",
          "blockNumber": "0x731f1a",
          "transactionHash": "0x43c861cca5b7fea383f1e86a00b130f733b056dd76bb1f7fd5c087d712edce75",
          "transactionIndex": "0x53",
          "logIndex": "0x92",
          "removed": false
        },
        {
          "address": "0x8aafd3ede9adb0ff97c7aebce82a919afb1c8764",
          "topics": [
            "0xddf252ad1be2c89b69c2b068fc378daa952ba7f163c4a11628f55a4df523b3ef",
            "0x000000000000000000000000c77f7fed3b5cc8249adc428c5f44c9063b9734b4",
            "0x000000000000000000000000c77f7fed3b5cc8249adc428c5f44c9063b9734b4"
          ],
          "data": "0x0000000000000000000000000000000000000000000000000000008d6125277a",
          "blockHash": "0xa79e28a8e3f30e4e1abff8c7466efe4cb8cd97df5ea00838af26f086a94ced6b",
          "blockNumber": "0x731f1a",
          "transactionHash": "0x43c861cca5b7fea383f1e86a00b130f733b056dd76bb1f7fd5c087d712edce75",
          "transactionIndex": "0x53",
          "logIndex": "0x93",
          "removed": false
        },
        {
          "address": "0x8aafd3ede9adb0ff97c7aebce82a919afb1c8764",
          "topics": [
            "0x4afcb4a87cdbd9974efdb92ee48bc8d7cd0ae4bf217004db3d080cbaee652ca7"
          ],
          "data": "0x00000000000000000000000000000000000000000000000000000000679072200000000000000000000000000000000000000000000000000017e708bd9f6c6b00000000000000000000000000000000000000000000000000000076e6348423",
          "blockHash": "0xa79e28a8e3f30e4e1abff8c7466efe4cb8cd97df5ea00838af26f086a94ced6b",
          "blockNumber": "0x731f1a",
          "transactionHash": "0x43c861cca5b7fea383f1e86a00b130f733b056dd76bb1f7fd5c087d712edce75",
          "transactionIndex": "0x53",
          "logIndex": "0x94",
          "removed": false
        }
      ],
      "logsBloom": "0x00000000000000000000000000000000000000000600000000000000000000000000000000000000000000000000000000000000000000004000000000000000000000000000004000000008000000000000000000000000000000000000000000000000020000000000000000000800020000000000000000000010000000000000000000000000000000000000000000000000000000000000010000000000000000000000000000000000000000004000000000000000000000000000000000000002000000800000000000000000000000000000080000000000000020000000000000000000000000000000000000000000000000000000000000000000",
      "type": "0x2",
      "transactionHash": "0x43c861cca5b7fea383f1e86a00b130f733b056dd76bb1f7fd5c087d712edce75",
      "transactionIndex": "0x53",
      "blockHash": "0xa79e28a8e3f30e4e1abff8c7466efe4cb8cd97df5ea00838af26f086a94ced6b",
      "blockNumber": "0x731f1a",
      "gasUsed": "0xfd27",
      "effectiveGasPrice": "0x479d4f7a",
      "from": "0xc77f7fed3b5cc8249adc428c5f44c9063b9734b4",
      "to": "0x8aafd3ede9adb0ff97c7aebce82a919afb1c8764",
      "contractAddress": null
    }
  ],
  "libraries": [],
  "pending": [],
  "returns": {},
  "timestamp": 1737519649,
  "chain": 11155111,
  "commit": "1d2fb70"
}