{
  "transactions": [
    {
      "hash": "0xb8cedb3a6be8e281901b53e79ff763b8dd68e16bc00b424ba0f0c61b813a257d",
      "transactionType": "CALL",
      "contractName": null,
      "contractAddress": "0x270e88f8683660553e8ba4eb2ad7c91a1710d769",
      "function": "sell(uint256)",
      "arguments": [
        "734466254898776560681"
      ],
      "transaction": {
        "from": "0xc77f7fed3b5cc8249adc428c5f44c9063b9734b4",
        "to": "0x270e88f8683660553e8ba4eb2ad7c91a1710d769",
        "gas": "0x16fec",
        "value": "0x0",
        "input": "0xe4849b32000000000000000000000000000000000000000000000027d0c44f762114d429",
        "nonce": "0x77a",
        "chainId": "0xaa36a7"
      },
      "additionalContracts": [],
      "isFixedGasLimit": false
    }
  ],
  "receipts": [
    {
      "status": "0x1",
      "cumulativeGasUsed": "0x1428345",
      "logs": [
        {
          "address": "0x270e88f8683660553e8ba4eb2ad7c91a1710d769",
          "topics": [
            "0xddf252ad1be2c89b69c2b068fc378daa952ba7f163c4a11628f55a4df523b3ef",
            "0x000000000000000000000000c77f7fed3b5cc8249adc428c5f44c9063b9734b4",
            "0x0000000000000000000000000000000000000000000000000000000000000000"
          ],
          "data": "0x000000000000000000000000000000000000000000000027d0c44f762114d429",
          "blockHash": "0x134e8843c8598a204d6ae45de6bfcc7571b24c78a3580fe7c608db4ae96d9388",
          "blockNumber": "0x7254aa",
          "transactionHash": "0xb8cedb3a6be8e281901b53e79ff763b8dd68e16bc00b424ba0f0c61b813a257d",
          "transactionIndex": "0x61",
          "logIndex": "0x8e",
          "removed": false
        },
        {
          "address": "0x270e88f8683660553e8ba4eb2ad7c91a1710d769",
          "topics": [
            "0x4afcb4a87cdbd9974efdb92ee48bc8d7cd0ae4bf217004db3d080cbaee652ca7"
          ],
          "data": "0x000000000000000000000000000000000000000000000000000000006786ea000000000000000000000000000000000000000000000000000004cdef7dd140100000000000000000000000000000000000000000000000000dc827ed5903d97f",
          "blockHash": "0x134e8843c8598a204d6ae45de6bfcc7571b24c78a3580fe7c608db4ae96d9388",
          "blockNumber": "0x7254aa",
          "transactionHash": "0xb8cedb3a6be8e281901b53e79ff763b8dd68e16bc00b424ba0f0c61b813a257d",
          "transactionIndex": "0x61",
          "logIndex": "0x8f",
          "removed": false
        }
      ],
      "logsBloom": "0x00000000000000000000000000000000000000000000000000000000000000000000000000000000000000000000000020000000000000004000000000000000000000000000000000000008000000000000000000000000000000000000000000000000020000000000000000000800020000000000000000000010000000000000000000010000000000000000000000000000000000000000010000000000000000000000000000000000000000004000000000000000000000000000000000000002000000800000000000000000000000000000080000008000000020000000000000000000000000000000000000000000000000000000000000000000",
      "type": "0x2",
      "transactionHash": "0xb8cedb3a6be8e281901b53e79ff763b8dd68e16bc00b424ba0f0c61b813a257d",
      "transactionIndex": "0x61",
      "blockHash": "0x134e8843c8598a204d6ae45de6bfcc7571b24c78a3580fe7c608db4ae96d9388",
      "blockNumber": "0x7254aa",
      "gasUsed": "0xfb93",
      "effectiveGasPrice": "0x113c5e669",
      "from": "0xc77f7fed3b5cc8249adc428c5f44c9063b9734b4",
      "to": "0x270e88f8683660553e8ba4eb2ad7c91a1710d769",
      "contractAddress": null
    }
  ],
  "libraries": [],
  "pending": [],
  "returns": {},
  "timestamp": 1736894977,
  "chain": 11155111,
  "commit": "51a374b"
}