{
  "transactions": [
    {
      "hash": "0x63adb4074169b6fdfc1c5782fe5ffe31668f830269804a0f88378562446f8b8f",
      "transactionType": "CALL",
      "contractName": null,
      "contractAddress": "0x5eb9cc76c3506942c1c0ead70e877dd5e4f00cb0",
      "function": "buy(address)",
      "arguments": [
        "0xC77f7fed3b5Cc8249aDc428c5F44C9063B9734b4"
      ],
      "transaction": {
        "from": "0xc77f7fed3b5cc8249adc428c5f44c9063b9734b4",
        "to": "0x5eb9cc76c3506942c1c0ead70e877dd5e4f00cb0",
        "gas": "0x156c8",
        "value": "0xde0b6b3a7640000",
        "input": "0xf088d547000000000000000000000000c77f7fed3b5cc8249adc428c5f44c9063b9734b4",
        "nonce": "0x1c4",
        "chainId": "0xaa36a7"
      },
      "additionalContracts": [],
      "isFixedGasLimit": false
    }
  ],
  "receipts": [
    {
      "status": "0x1",
      "cumulativeGasUsed": "0x1067151",
      "logs": [
        {
          "address": "0x5eb9cc76c3506942c1c0ead70e877dd5e4f00cb0",
          "topics": [
            "0xddf252ad1be2c89b69c2b068fc378daa952ba7f163c4a11628f55a4df523b3ef",
            "0x0000000000000000000000000000000000000000000000000000000000000000",
            "0x000000000000000000000000c77f7fed3b5cc8249adc428c5f44c9063b9734b4"
          ],
          "data": "0x000000000000000000000000000000000000000000000035a36a67f554bc5093",
          "blockHash": "0xd1c06cc61a74b053a295fbcba1e968c4274d168a123d6152c7e3f3c129ec67c5",
          "blockNumber": "0x723cb2",
          "transactionHash": "0x63adb4074169b6fdfc1c5782fe5ffe31668f830269804a0f88378562446f8b8f",
          "transactionIndex": "0x83",
          "logIndex": "0xed",
          "removed": false
        },
        {
          "address": "0x5eb9cc76c3506942c1c0ead70e877dd5e4f00cb0",
          "topics": [
            "0xddf252ad1be2c89b69c2b068fc378daa952ba7f163c4a11628f55a4df523b3ef",
            "0x0000000000000000000000000000000000000000000000000000000000000000",
            "0x000000000000000000000000c77f7fed3b5cc8249adc428c5f44c9063b9734b4"
          ],
          "data": "0x00000000000000000000000000000000000000000000000029a6e9a1fdd19745",
          "blockHash": "0xd1c06cc61a74b053a295fbcba1e968c4274d168a123d6152c7e3f3c129ec67c5",
          "blockNumber": "0x723cb2",
          "transactionHash": "0x63adb4074169b6fdfc1c5782fe5ffe31668f830269804a0f88378562446f8b8f",
          "transactionIndex": "0x83",
          "logIndex": "0xee",
          "removed": false
        },
        {
          "address": "0x5eb9cc76c3506942c1c0ead70e877dd5e4f00cb0",
          "topics": [
            "0x4afcb4a87cdbd9974efdb92ee48bc8d7cd0ae4bf217004db3d080cbaee652ca7"
          ],
          "data": "0x000000000000000000000000000000000000000000000000000000006785c9ac00000000000000000000000000000000000000000000000000038dff709854b70000000000000000000000000000000000000000000000000de0b6b3a7640000",
          "blockHash": "0xd1c06cc61a74b053a295fbcba1e968c4274d168a123d6152c7e3f3c129ec67c5",
          "blockNumber": "0x723cb2",
          "transactionHash": "0x63adb4074169b6fdfc1c5782fe5ffe31668f830269804a0f88378562446f8b8f",
          "transactionIndex": "0x83",
          "logIndex": "0xef",
          "removed": false
        }
      ],
      "logsBloom": "0x00000000000000000000000000000000000000000000000000000000000000000000000000000000000000000000000000000000000000004000000000000000000000000000000000000008000000000000000000000000000000000000000000000000020000000000000004000800020000000000000000000010000000000000000000000000000000000000000000000000000000000000010000000000000000000000000000000000000000004000000000000000000000000000020000000002000000800000008000000000000000000000080000000000000020000000000000000000000000000000000000000000000000000000000000000000",
      "type": "0x2",
      "transactionHash": "0x63adb4074169b6fdfc1c5782fe5ffe31668f830269804a0f88378562446f8b8f",
      "transactionIndex": "0x83",
      "blockHash": "0xd1c06cc61a74b053a295fbcba1e968c4274d168a123d6152c7e3f3c129ec67c5",
      "blockNumber": "0x723cb2",
      "gasUsed": "0xf82c",
      "effectiveGasPrice": "0x1b78ba672",
      "from": "0xc77f7fed3b5cc8249adc428c5f44c9063b9734b4",
      "to": "0x5eb9cc76c3506942c1c0ead70e877dd5e4f00cb0",
      "contractAddress": null
    }
  ],
  "libraries": [],
  "pending": [],
  "returns": {},
  "timestamp": 1736821165,
  "chain": 11155111,
  "commit": "51a374b"
}