{
  "transactions": [
    {
      "hash": "0x1fc40aabbddaa7ec5adaa02bf93910ab343c5c4ad3b7b8003238853066d40a1f",
      "transactionType": "CALL",
      "contractName": null,
      "contractAddress": "0x270e88f8683660553e8ba4eb2ad7c91a1710d769",
      "function": "buy(address)",
      "arguments": [
        "0xC77f7fed3b5Cc8249aDc428c5F44C9063B9734b4"
      ],
      "transaction": {
        "from": "0xc77f7fed3b5cc8249adc428c5f44c9063b9734b4",
        "to": "0x270e88f8683660553e8ba4eb2ad7c91a1710d769",
        "gas": "0x1b30c",
        "value": "0xde0b6b3a7640000",
        "input": "0xf088d547000000000000000000000000c77f7fed3b5cc8249adc428c5f44c9063b9734b4",
        "nonce": "0x7eb",
        "chainId": "0xaa36a7"
      },
      "additionalContracts": [],
      "isFixedGasLimit": false
    }
  ],
  "receipts": [
    {
      "status": "0x1",
      "cumulativeGasUsed": "0x66e7b1",
      "logs": [
        {
          "address": "0x270e88f8683660553e8ba4eb2ad7c91a1710d769",
          "topics": [
            "0xddf252ad1be2c89b69c2b068fc378daa952ba7f163c4a11628f55a4df523b3ef",
            "0x0000000000000000000000000000000000000000000000000000000000000000",
            "0x000000000000000000000000c77f7fed3b5cc8249adc428c5f44c9063b9734b4"
          ],
          "data": "0x00000000000000000000000000000000000000000000002729cad77a892ae303",
          "blockHash": "0xd0fa86c259afc0d2be9907ad0ad234a1c7f9ae8120469e96b6ff311b4a3d4c04",
          "blockNumber": "0x725527",
          "transactionHash": "0x1fc40aabbddaa7ec5adaa02bf93910ab343c5c4ad3b7b8003238853066d40a1f",
          "transactionIndex": "0x3b",
          "logIndex": "0x5d",
          "removed": false
        },
        {
          "address": "0x270e88f8683660553e8ba4eb2ad7c91a1710d769",
          "topics": [
            "0xddf252ad1be2c89b69c2b068fc378daa952ba7f163c4a11628f55a4df523b3ef",
            "0x0000000000000000000000000000000000000000000000000000000000000000",
            "0x000000000000000000000000c77f7fed3b5cc8249adc428c5f44c9063b9734b4"
          ],
          "data": "0x0000000000000000000000000000000000000000000000001e695ea72fced5f0",
          "blockHash": "0xd0fa86c259afc0d2be9907ad0ad234a1c7f9ae8120469e96b6ff311b4a3d4c04",
          "blockNumber": "0x725527",
          "transactionHash": "0x1fc40aabbddaa7ec5adaa02bf93910ab343c5c4ad3b7b8003238853066d40a1f",
          "transactionIndex": "0x3b",
          "logIndex": "0x5e",
          "removed": false
        },
        {
          "address": "0x270e88f8683660553e8ba4eb2ad7c91a1710d769",
          "topics": [
            "0x4afcb4a87cdbd9974efdb92ee48bc8d7cd0ae4bf217004db3d080cbaee652ca7"
          ],
          "data": "0x000000000000000000000000000000000000000000000000000000006786efdc0000000000000000000000000000000000000000000000000004de7224226edb0000000000000000000000000000000000000000000000000de0b6b3a7640000",
          "blockHash": "0xd0fa86c259afc0d2be9907ad0ad234a1c7f9ae8120469e96b6ff311b4a3d4c04",
          "blockNumber": "0x725527",
          "transactionHash": "0x1fc40aabbddaa7ec5adaa02bf93910ab343c5c4ad3b7b8003238853066d40a1f",
          "transactionIndex": "0x3b",
          "logIndex": "0x5f",
          "removed": false
        }
      ],
      "logsBloom": "0x00000000000000000000000000000000000000000000000000000000000000000000000000000000000000000000000020000000000000004000000000000000000000000000000000000008000000000000000000000000000000000000000000000000020000000000000000000800020000000000000000000010000000000000000000010000000000000000000000000000000000000000010000000000000000000000000000000000000000004000000000000000000000000000000000000002000000800000000000000000000000000000080000008000000020000000000000000000000000000000000000000000000000000000000000000000",
      "type": "0x2",
      "transactionHash": "0x1fc40aabbddaa7ec5adaa02bf93910ab343c5c4ad3b7b8003238853066d40a1f",
      "transactionIndex": "0x3b",
      "blockHash": "0xd0fa86c259afc0d2be9907ad0ad234a1c7f9ae8120469e96b6ff311b4a3d4c04",
      "blockNumber": "0x725527",
      "gasUsed": "0x13af8",
      "effectiveGasPrice": "0xb40d982d",
      "from": "0xc77f7fed3b5cc8249adc428c5f44c9063b9734b4",
      "to": "0x270e88f8683660553e8ba4eb2ad7c91a1710d769",
      "contractAddress": null
    }
  ],
  "libraries": [],
  "pending": [],
  "returns": {},
  "timestamp": 1736896476,
  "chain": 11155111,
  "commit": "51a374b"
}