{
  "transactions": [
    {
      "hash": "0x706f1421bd053a8d715d278109da83a933a745ef32da393efd55e1b7631e5042",
      "transactionType": "CALL",
      "contractName": null,
      "contractAddress": "0xbf4a322f1496e5c3d34a9bcdb4c60567b38c7de2",
      "function": "sell(uint256)",
      "arguments": [
        "981653531577191329755"
      ],
      "transaction": {
        "from": "0xc77f7fed3b5cc8249adc428c5f44c9063b9734b4",
        "to": "0xbf4a322f1496e5c3d34a9bcdb4c60567b38c7de2",
        "gas": "0x16fea",
        "value": "0x0",
        "input": "0xe4849b32000000000000000000000000000000000000000000000035372dedf236316fdb",
        "nonce": "0xb9d",
        "chainId": "0xaa36a7"
      },
      "additionalContracts": [],
      "isFixedGasLimit": false
    }
  ],
  "receipts": [
    {
      "status": "0x1",
      "cumulativeGasUsed": "0x1e972a5",
      "logs": [
        {
          "address": "0xbf4a322f1496e5c3d34a9bcdb4c60567b38c7de2",
          "topics": [
            "0xddf252ad1be2c89b69c2b068fc378daa952ba7f163c4a11628f55a4df523b3ef",
            "0x000000000000000000000000c77f7fed3b5cc8249adc428c5f44c9063b9734b4",
            "0x0000000000000000000000000000000000000000000000000000000000000000"
          ],
          "data": "0x000000000000000000000000000000000000000000000035372dedf236316fdb",
          "blockHash": "0x7019ec5a7d3d6e6677da1cc89126234340ef4c08424d566600f3426be31e459a",
          "blockNumber": "0x725bb2",
          "transactionHash": "0x706f1421bd053a8d715d278109da83a933a745ef32da393efd55e1b7631e5042",
          "transactionIndex": "0x8e",
          "logIndex": "0xf0",
          "removed": false
        },
        {
          "address": "0xbf4a322f1496e5c3d34a9bcdb4c60567b38c7de2",
          "topics": [
            "0x4afcb4a87cdbd9974efdb92ee48bc8d7cd0ae4bf217004db3d080cbaee652ca7"
          ],
          "data": "0x0000000000000000000000000000000000000000000000000000000067873eb400000000000000000000000000000000000000000000000000039808ffe328d70000000000000000000000000000000000000000000000000dc7e3e5e92bc84a",
          "blockHash": "0x7019ec5a7d3d6e6677da1cc89126234340ef4c08424d566600f3426be31e459a",
          "blockNumber": "0x725bb2",
          "transactionHash": "0x706f1421bd053a8d715d278109da83a933a745ef32da393efd55e1b7631e5042",
          "transactionIndex": "0x8e",
          "logIndex": "0xf1",
          "removed": false
        }
      ],
      "logsBloom": "0x00000000000000000000000000000000000000000000000000000000000000000000000000000000000000000000000000000000000000004000000000000000000000000000000000000008000000000000001000000000000000000000000000000000020000000000000000000800020000000000000000000010000000000000000000000000000000000000000000000000000008000000010000000000000000000000000000000000000000004000000000000000000000000000000000000002000000800000000000001000000000000000080000000000000020000000000000000000000000000000000000000000000000000000000000000000",
      "type": "0x2",
      "transactionHash": "0x706f1421bd053a8d715d278109da83a933a745ef32da393efd55e1b7631e5042",
      "transactionIndex": "0x8e",
      "blockHash": "0x7019ec5a7d3d6e6677da1cc89126234340ef4c08424d566600f3426be31e459a",
      "blockNumber": "0x725bb2",
      "gasUsed": "0xfb91",
      "effectiveGasPrice": "0x4c0ce264",
      "from": "0xc77f7fed3b5cc8249adc428c5f44c9063b9734b4",
      "to": "0xbf4a322f1496e5c3d34a9bcdb4c60567b38c7de2",
      "contractAddress": null
    }
  ],
  "libraries": [],
  "pending": [],
  "returns": {},
  "timestamp": 1736916661,
  "chain": 11155111,
  "commit": "51a374b"
}