{
  "transactions": [
    {
      "hash": "0xa6846ea9aad8e13f98a361c8aad61e4ad6d23a8196c7bd6622767ce1a1be3520",
      "transactionType": "CALL",
      "contractName": null,
      "contractAddress": "0x270e88f8683660553e8ba4eb2ad7c91a1710d769",
      "function": "buy(address)",
      "arguments": [
        "0xC77f7fed3b5Cc8249aDc428c5F44C9063B9734b4"
      ],
      "transaction": {
        "from": "0xc77f7fed3b5cc8249adc428c5f44c9063b9734b4",
        "to": "0x270e88f8683660553e8ba4eb2ad7c91a1710d769",
        "gas": "0x1b30c",
        "value": "0xde0b6b3a7640000",
        "input": "0xf088d547000000000000000000000000c77f7fed3b5cc8249adc428c5f44c9063b9734b4",
        "nonce": "0x79b",
        "chainId": "0xaa36a7"
      },
      "additionalContracts": [],
      "isFixedGasLimit": false
    }
  ],
  "receipts": [
    {
      "status": "0x1",
      "cumulativeGasUsed": "0x6accab",
      "logs": [
        {
          "address": "0x270e88f8683660553e8ba4eb2ad7c91a1710d769",
          "topics": [
            "0xddf252ad1be2c89b69c2b068fc378daa952ba7f163c4a11628f55a4df523b3ef",
            "0x0000000000000000000000000000000000000000000000000000000000000000",
            "0x000000000000000000000000c77f7fed3b5cc8249adc428c5f44c9063b9734b4"
          ],
          "data": "0x00000000000000000000000000000000000000000000002788f398f9c234e6f2",
          "blockHash": "0x459fb180840b4a4930f7a420a88c4e43b6a23ca126ab4dd1058351cc955d6ded",
          "blockNumber": "0x7254ce",
          "transactionHash": "0xa6846ea9aad8e13f98a361c8aad61e4ad6d23a8196c7bd6622767ce1a1be3520",
          "transactionIndex": "0x41",
          "logIndex": "0x82",
          "removed": false
        },
        {
          "address": "0x270e88f8683660553e8ba4eb2ad7c91a1710d769",
          "topics": [
            "0xddf252ad1be2c89b69c2b068fc378daa952ba7f163c4a11628f55a4df523b3ef",
            "0x0000000000000000000000000000000000000000000000000000000000000000",
            "0x000000000000000000000000c77f7fed3b5cc8249adc428c5f44c9063b9734b4"
          ],
          "data": "0x0000000000000000000000000000000000000000000000001eb3439c65f92feb",
          "blockHash": "0x459fb180840b4a4930f7a420a88c4e43b6a23ca126ab4dd1058351cc955d6ded",
          "blockNumber": "0x7254ce",
          "transactionHash": "0xa6846ea9aad8e13f98a361c8aad61e4ad6d23a8196c7bd6622767ce1a1be3520",
          "transactionIndex": "0x41",
          "logIndex": "0x83",
          "removed": false
        },
        {
          "address": "0x270e88f8683660553e8ba4eb2ad7c91a1710d769",
          "topics": [
            "0x4afcb4a87cdbd9974efdb92ee48bc8d7cd0ae4bf217004db3d080cbaee652ca7"
          ],
          "data": "0x000000000000000000000000000000000000000000000000000000006786ebb00000000000000000000000000000000000000000000000000004d2ba3dc4e8710000000000000000000000000000000000000000000000000de0b6b3a7640000",
          "blockHash": "0x459fb180840b4a4930f7a420a88c4e43b6a23ca126ab4dd1058351cc955d6ded",
          "blockNumber": "0x7254ce",
          "transactionHash": "0xa6846ea9aad8e13f98a361c8aad61e4ad6d23a8196c7bd6622767ce1a1be3520",
          "transactionIndex": "0x41",
          "logIndex": "0x84",
          "removed": false
        }
      ],
      "logsBloom": "0x00000000000000000000000000000000000000000000000000000000000000000000000000000000000000000000000020000000000000004000000000000000000000000000000000000008000000000000000000000000000000000000000000000000020000000000000000000800020000000000000000000010000000000000000000010000000000000000000000000000000000000000010000000000000000000000000000000000000000004000000000000000000000000000000000000002000000800000000000000000000000000000080000008000000020000000000000000000000000000000000000000000000000000000000000000000",
      "type": "0x2",
      "transactionHash": "0xa6846ea9aad8e13f98a361c8aad61e4ad6d23a8196c7bd6622767ce1a1be3520",
      "transactionIndex": "0x41",
      "blockHash": "0x459fb180840b4a4930f7a420a88c4e43b6a23ca126ab4dd1058351cc955d6ded",
      "blockNumber": "0x7254ce",
      "gasUsed": "0x13af8",
      "effectiveGasPrice": "0xe40f155e",
      "from": "0xc77f7fed3b5cc8249adc428c5f44c9063b9734b4",
      "to": "0x270e88f8683660553e8ba4eb2ad7c91a1710d769",
      "contractAddress": null
    }
  ],
  "libraries": [],
  "pending": [],
  "returns": {},
  "timestamp": 1736895410,
  "chain": 11155111,
  "commit": "51a374b"
}