{
  "transactions": [
    {
      "hash": "0x04b6314f122a2736b5073f5230b3a7473f5af006f67d2afcac1debd9ac4ffeb1",
      "transactionType": "CALL",
      "contractName": null,
      "contractAddress": "0x270e88f8683660553e8ba4eb2ad7c91a1710d769",
      "function": "sell(uint256)",
      "arguments": [
        "980076887919646648635"
      ],
      "transaction": {
        "from": "0xc77f7fed3b5cc8249adc428c5f44c9063b9734b4",
        "to": "0x270e88f8683660553e8ba4eb2ad7c91a1710d769",
        "gas": "0x16fec",
        "value": "0x0",
        "input": "0xe4849b32000000000000000000000000000000000000000000000035214c90e49cdea93b",
        "nonce": "0x527",
        "chainId": "0xaa36a7"
      },
      "additionalContracts": [],
      "isFixedGasLimit": false
    }
  ],
  "receipts": [
    {
      "status": "0x1",
      "cumulativeGasUsed": "0x82d544",
      "logs": [
        {
          "address": "0x270e88f8683660553e8ba4eb2ad7c91a1710d769",
          "topics": [
            "0xddf252ad1be2c89b69c2b068fc378daa952ba7f163c4a11628f55a4df523b3ef",
            "0x000000000000000000000000c77f7fed3b5cc8249adc428c5f44c9063b9734b4",
            "0x0000000000000000000000000000000000000000000000000000000000000000"
          ],
          "data": "0x000000000000000000000000000000000000000000000035214c90e49cdea93b",
          "blockHash": "0x9164af3d74a5ea2a2b2869949808159a226a469cb6e47d231daeb876ef1c2c9c",
          "blockNumber": "0x7251c1",
          "transactionHash": "0x04b6314f122a2736b5073f5230b3a7473f5af006f67d2afcac1debd9ac4ffeb1",
          "transactionIndex": "0x4a",
          "logIndex": "0x7a",
          "removed": false
        },
        {
          "address": "0x270e88f8683660553e8ba4eb2ad7c91a1710d769",
          "topics": [
            "0x4afcb4a87cdbd9974efdb92ee48bc8d7cd0ae4bf217004db3d080cbaee652ca7"
          ],
          "data": "0x000000000000000000000000000000000000000000000000000000006786c6f0000000000000000000000000000000000000000000000000000399c84e8520830000000000000000000000000000000000000000000000000dc8413f9de5de7b",
          "blockHash": "0x9164af3d74a5ea2a2b2869949808159a226a469cb6e47d231daeb876ef1c2c9c",
          "blockNumber": "0x7251c1",
          "transactionHash": "0x04b6314f122a2736b5073f5230b3a7473f5af006f67d2afcac1debd9ac4ffeb1",
          "transactionIndex": "0x4a",
          "logIndex": "0x7b",
          "removed": false
        }
      ],
      "logsBloom": "0x00000000000000000000000000000000000000000000000000000000000000000000000000000000000000000000000020000000000000004000000000000000000000000000000000000008000000000000000000000000000000000000000000000000020000000000000000000800020000000000000000000010000000000000000000010000000000000000000000000000000000000000010000000000000000000000000000000000000000004000000000000000000000000000000000000002000000800000000000000000000000000000080000008000000020000000000000000000000000000000000000000000000000000000000000000000",
      "type": "0x2",
      "transactionHash": "0x04b6314f122a2736b5073f5230b3a7473f5af006f67d2afcac1debd9ac4ffeb1",
      "transactionIndex": "0x4a",
      "blockHash": "0x9164af3d74a5ea2a2b2869949808159a226a469cb6e47d231daeb876ef1c2c9c",
      "blockNumber": "0x7251c1",
      "gasUsed": "0xfb93",
      "effectiveGasPrice": "0x436cad8c2",
      "from": "0xc77f7fed3b5cc8249adc428c5f44c9063b9734b4",
      "to": "0x270e88f8683660553e8ba4eb2ad7c91a1710d769",
      "contractAddress": null
    }
  ],
  "libraries": [],
  "pending": [],
  "returns": {},
  "timestamp": 1736886001,
  "chain": 11155111,
  "commit": "51a374b"
}