{
  "transactions": [
    {
      "hash": "0x4b24bd0e3aa893b6a974aab4dec4f1b5090c643e0e16eff6a6c91e6c6393768c",
      "transactionType": "CALL",
      "contractName": null,
      "contractAddress": "0x5eb9cc76c3506942c1c0ead70e877dd5e4f00cb0",
      "function": "sell(uint256)",
      "arguments": [
        "989154182181015673473"
      ],
      "transaction": {
        "from": "0xc77f7fed3b5cc8249adc428c5f44c9063b9734b4",
        "to": "0x5eb9cc76c3506942c1c0ead70e877dd5e4f00cb0",
        "gas": "0x16fec",
        "value": "0x0",
        "input": "0xe4849b320000000000000000000000000000000000000000000000359f4597ee1f765a81",
        "nonce": "0x2ad",
        "chainId": "0xaa36a7"
      },
      "additionalContracts": [],
      "isFixedGasLimit": false
    }
  ],
  "receipts": [
    {
      "status": "0x1",
      "cumulativeGasUsed": "0x8b9571",
      "logs": [
        {
          "address": "0x5eb9cc76c3506942c1c0ead70e877dd5e4f00cb0",
          "topics": [
            "0xddf252ad1be2c89b69c2b068fc378daa952ba7f163c4a11628f55a4df523b3ef",
            "0x000000000000000000000000c77f7fed3b5cc8249adc428c5f44c9063b9734b4",
            "0x0000000000000000000000000000000000000000000000000000000000000000"
          ],
          "data": "0x0000000000000000000000000000000000000000000000359f4597ee1f765a81",
          "blockHash": "0x8d0aa38f5ffe6545f47b0dee4ac888d9a590aa8d366783293ba9d37eee92450b",
          "blockNumber": "0x724e88",
          "transactionHash": "0x4b24bd0e3aa893b6a974aab4dec4f1b5090c643e0e16eff6a6c91e6c6393768c",
          "transactionIndex": "0x48",
          "logIndex": "0x6c",
          "removed": false
        },
        {
          "address": "0x5eb9cc76c3506942c1c0ead70e877dd5e4f00cb0",
          "topics": [
            "0x4afcb4a87cdbd9974efdb92ee48bc8d7cd0ae4bf217004db3d080cbaee652ca7"
          ],
          "data": "0x000000000000000000000000000000000000000000000000000000006786a01400000000000000000000000000000000000000000000000000039108ab0ca18e0000000000000000000000000000000000000000000000000dc7db133247dbc1",
          "blockHash": "0x8d0aa38f5ffe6545f47b0dee4ac888d9a590aa8d366783293ba9d37eee92450b",
          "blockNumber": "0x724e88",
          "transactionHash": "0x4b24bd0e3aa893b6a974aab4dec4f1b5090c643e0e16eff6a6c91e6c6393768c",
          "transactionIndex": "0x48",
          "logIndex": "0x6d",
          "removed": false
        }
      ],
      "logsBloom": "0x00000000000000000000000000000000000000000000000000000000000000000000000000000000000000000000000000000000000000004000000000000000000000000000000000000008000000000000000000000000000000000000000000000000020000000000000004000800020000000000000000000010000000000000000000000000000000000000000000000000000000000000010000000000000000000000000000000000000000004000000000000000000000000000020000000002000000800000008000000000000000000000080000000000000020000000000000000000000000000000000000000000000000000000000000000000",
      "type": "0x2",
      "transactionHash": "0x4b24bd0e3aa893b6a974aab4dec4f1b5090c643e0e16eff6a6c91e6c6393768c",
      "transactionIndex": "0x48",
      "blockHash": "0x8d0aa38f5ffe6545f47b0dee4ac888d9a590aa8d366783293ba9d37eee92450b",
      "blockNumber": "0x724e88",
      "gasUsed": "0xfb93",
      "effectiveGasPrice": "0x474a36392",
      "from": "0xc77f7fed3b5cc8249adc428c5f44c9063b9734b4",
      "to": "0x5eb9cc76c3506942c1c0ead70e877dd5e4f00cb0",
      "contractAddress": null
    }
  ],
  "libraries": [],
  "pending": [],
  "returns": {},
  "timestamp": 1736876053,
  "chain": 11155111,
  "commit": "51a374b"
}