{
  "transactions": [
    {
      "hash": "0x13e324cdcf15a79f4027f5d583a0d75b2dc6bb35edf4a1ee783e8526075eea48",
      "transactionType": "CALL",
      "contractName": null,
      "contractAddress": "0x5eb9cc76c3506942c1c0ead70e877dd5e4f00cb0",
      "function": "sell(uint256)",
      "arguments": [
        "989109879083563479997"
      ],
      "transaction": {
        "from": "0xc77f7fed3b5cc8249adc428c5f44c9063b9734b4",
        "to": "0x5eb9cc76c3506942c1c0ead70e877dd5e4f00cb0",
        "gas": "0x16fec",
        "value": "0x0",
        "input": "0xe4849b320000000000000000000000000000000000000000000000359ea8327f6d5ff3bd",
        "nonce": "0x3c3",
        "chainId": "0xaa36a7"
      },
      "additionalContracts": [],
      "isFixedGasLimit": false
    }
  ],
  "receipts": [
    {
      "status": "0x1",
      "cumulativeGasUsed": "0xd49373",
      "logs": [
        {
          "address": "0x5eb9cc76c3506942c1c0ead70e877dd5e4f00cb0",
          "topics": [
            "0xddf252ad1be2c89b69c2b068fc378daa952ba7f163c4a11628f55a4df523b3ef",
            "0x000000000000000000000000c77f7fed3b5cc8249adc428c5f44c9063b9734b4",
            "0x0000000000000000000000000000000000000000000000000000000000000000"
          ],
          "data": "0x0000000000000000000000000000000000000000000000359ea8327f6d5ff3bd",
          "blockHash": "0xfa9535a5e347fa35060151c3dbab28defecb7ef994fdb20524101ce297376d5c",
          "blockNumber": "0x724fc3",
          "transactionHash": "0x13e324cdcf15a79f4027f5d583a0d75b2dc6bb35edf4a1ee783e8526075eea48",
          "transactionIndex": "0x58",
          "logIndex": "0x9d",
          "removed": false
        },
        {
          "address": "0x5eb9cc76c3506942c1c0ead70e877dd5e4f00cb0",
          "topics": [
            "0x4afcb4a87cdbd9974efdb92ee48bc8d7cd0ae4bf217004db3d080cbaee652ca7"
          ],
          "data": "0x000000000000000000000000000000000000000000000000000000006786aef000000000000000000000000000000000000000000000000000039113232e7d2d0000000000000000000000000000000000000000000000000dc7db1331f906de",
          "blockHash": "0xfa9535a5e347fa35060151c3dbab28defecb7ef994fdb20524101ce297376d5c",
          "blockNumber": "0x724fc3",
          "transactionHash": "0x13e324cdcf15a79f4027f5d583a0d75b2dc6bb35edf4a1ee783e8526075eea48",
          "transactionIndex": "0x58",
          "logIndex": "0x9e",
          "removed": false
        }
      ],
      "logsBloom": "0x00000000000000000000000000000000000000000000000000000000000000000000000000000000000000000000000000000000000000004000000000000000000000000000000000000008000000000000000000000000000000000000000000000000020000000000000004000800020000000000000000000010000000000000000000000000000000000000000000000000000000000000010000000000000000000000000000000000000000004000000000000000000000000000020000000002000000800000008000000000000000000000080000000000000020000000000000000000000000000000000000000000000000000000000000000000",
      "type": "0x2",
      "transactionHash": "0x13e324cdcf15a79f4027f5d583a0d75b2dc6bb35edf4a1ee783e8526075eea48",
      "transactionIndex": "0x58",
      "blockHash": "0xfa9535a5e347fa35060151c3dbab28defecb7ef994fdb20524101ce297376d5c",
      "blockNumber": "0x724fc3",
      "gasUsed": "0xfb93",
      "effectiveGasPrice": "0x3e5b42325",
      "from": "0xc77f7fed3b5cc8249adc428c5f44c9063b9734b4",
      "to": "0x5eb9cc76c3506942c1c0ead70e877dd5e4f00cb0",
      "contractAddress": null
    }
  ],
  "libraries": [],
  "pending": [],
  "returns": {},
  "timestamp": 1736879858,
  "chain": 11155111,
  "commit": "51a374b"
}