{
  "transactions": [
    {
      "hash": "0x04f59d24617265cb9feacf4fac46dc6e7e08b34f658f9f3860b993db404db4c3",
      "transactionType": "CALL",
      "contractName": null,
      "contractAddress": "0x270e88f8683660553e8ba4eb2ad7c91a1710d769",
      "function": "sell(uint256)",
      "arguments": [
        "750924159687061386012"
      ],
      "transaction": {
        "from": "0xc77f7fed3b5cc8249adc428c5f44c9063b9734b4",
        "to": "0x270e88f8683660553e8ba4eb2ad7c91a1710d769",
        "gas": "0x16fec",
        "value": "0x0",
        "input": "0xe4849b32000000000000000000000000000000000000000000000028b52a88ab2dffb31c",
        "nonce": "0x6c2",
        "chainId": "0xaa36a7"
      },
      "additionalContracts": [],
      "isFixedGasLimit": false
    }
  ],
  "receipts": [
    {
      "status": "0x1",
      "cumulativeGasUsed": "0x4c8cf8",
      "logs": [
        {
          "address": "0x270e88f8683660553e8ba4eb2ad7c91a1710d769",
          "topics": [
            "0xddf252ad1be2c89b69c2b068fc378daa952ba7f163c4a11628f55a4df523b3ef",
            "0x000000000000000000000000c77f7fed3b5cc8249adc428c5f44c9063b9734b4",
            "0x0000000000000000000000000000000000000000000000000000000000000000"
          ],
          "data": "0x000000000000000000000000000000000000000000000028b52a88ab2dffb31c",
          "blockHash": "0x87e4cbb9270ffaa3139f8b0dce3b0e5c9ed3bf1e9d4fd0a614d5e68bcd1b110a",
          "blockNumber": "0x7253cf",
          "transactionHash": "0x04f59d24617265cb9feacf4fac46dc6e7e08b34f658f9f3860b993db404db4c3",
          "transactionIndex": "0x3d",
          "logIndex": "0x53",
          "removed": false
        },
        {
          "address": "0x270e88f8683660553e8ba4eb2ad7c91a1710d769",
          "topics": [
            "0x4afcb4a87cdbd9974efdb92ee48bc8d7cd0ae4bf217004db3d080cbaee652ca7"
          ],
          "data": "0x000000000000000000000000000000000000000000000000000000006786dfbc0000000000000000000000000000000000000000000000000004b2fc4e86a45c0000000000000000000000000000000000000000000000000dc829a159cadcc5",
          "blockHash": "0x87e4cbb9270ffaa3139f8b0dce3b0e5c9ed3bf1e9d4fd0a614d5e68bcd1b110a",
          "blockNumber": "0x7253cf",
          "transactionHash": "0x04f59d24617265cb9feacf4fac46dc6e7e08b34f658f9f3860b993db404db4c3",
          "transactionIndex": "0x3d",
          "logIndex": "0x54",
          "removed": false
        }
      ],
      "logsBloom": "0x00000000000000000000000000000000000000000000000000000000000000000000000000000000000000000000000020000000000000004000000000000000000000000000000000000008000000000000000000000000000000000000000000000000020000000000000000000800020000000000000000000010000000000000000000010000000000000000000000000000000000000000010000000000000000000000000000000000000000004000000000000000000000000000000000000002000000800000000000000000000000000000080000008000000020000000000000000000000000000000000000000000000000000000000000000000",
      "type": "0x2",
      "transactionHash": "0x04f59d24617265cb9feacf4fac46dc6e7e08b34f658f9f3860b993db404db4c3",
      "transactionIndex": "0x3d",
      "blockHash": "0x87e4cbb9270ffaa3139f8b0dce3b0e5c9ed3bf1e9d4fd0a614d5e68bcd1b110a",
      "blockNumber": "0x7253cf",
      "gasUsed": "0xfb93",
      "effectiveGasPrice": "0x177ae02e2",
      "from": "0xc77f7fed3b5cc8249adc428c5f44c9063b9734b4",
      "to": "0x270e88f8683660553e8ba4eb2ad7c91a1710d769",
      "contractAddress": null
    }
  ],
  "libraries": [],
  "pending": [],
  "returns": {},
  "timestamp": 1736892349,
  "chain": 11155111,
  "commit": "51a374b"
}