{
  "transactions": [
    {
      "hash": "0xa7e720643c525decc7b113f26133a704ca7350568e97a0a996cb9003e16d776a",
      "transactionType": "CALL",
      "contractName": null,
      "contractAddress": "0x5eb9cc76c3506942c1c0ead70e877dd5e4f00cb0",
      "function": "sell(uint256)",
      "arguments": [
        "989101911321637873853"
      ],
      "transaction": {
        "from": "0xc77f7fed3b5cc8249adc428c5f44c9063b9734b4",
        "to": "0x5eb9cc76c3506942c1c0ead70e877dd5e4f00cb0",
        "gas": "0x16fec",
        "value": "0x0",
        "input": "0xe4849b320000000000000000000000000000000000000000000000359e8be3dc4a24e8bd",
        "nonce": "0x3f5",
        "chainId": "0xaa36a7"
      },
      "additionalContracts": [],
      "isFixedGasLimit": false
    }
  ],
  "receipts": [
    {
      "status": "0x1",
      "cumulativeGasUsed": "0x1516f31",
      "logs": [
        {
          "address": "0x5eb9cc76c3506942c1c0ead70e877dd5e4f00cb0",
          "topics": [
            "0xddf252ad1be2c89b69c2b068fc378daa952ba7f163c4a11628f55a4df523b3ef",
            "0x000000000000000000000000c77f7fed3b5cc8249adc428c5f44c9063b9734b4",
            "0x0000000000000000000000000000000000000000000000000000000000000000"
          ],
          "data": "0x0000000000000000000000000000000000000000000000359e8be3dc4a24e8bd",
          "blockHash": "0xf8423dfec482c8367a287e80b720402a03f677f967fa4954dea3847f6aee4a38",
          "blockNumber": "0x724ffc",
          "transactionHash": "0xa7e720643c525decc7b113f26133a704ca7350568e97a0a996cb9003e16d776a",
          "transactionIndex": "0xb4",
          "logIndex": "0x13d",
          "removed": false
        },
        {
          "address": "0x5eb9cc76c3506942c1c0ead70e877dd5e4f00cb0",
          "topics": [
            "0x4afcb4a87cdbd9974efdb92ee48bc8d7cd0ae4bf217004db3d080cbaee652ca7"
          ],
          "data": "0x000000000000000000000000000000000000000000000000000000006786b19c00000000000000000000000000000000000000000000000000039115053843120000000000000000000000000000000000000000000000000dc7db1331ead967",
          "blockHash": "0xf8423dfec482c8367a287e80b720402a03f677f967fa4954dea3847f6aee4a38",
          "blockNumber": "0x724ffc",
          "transactionHash": "0xa7e720643c525decc7b113f26133a704ca7350568e97a0a996cb9003e16d776a",
          "transactionIndex": "0xb4",
          "logIndex": "0x13e",
          "removed": false
        }
      ],
      "logsBloom": "0x00000000000000000000000000000000000000000000000000000000000000000000000000000000000000000000000000000000000000004000000000000000000000000000000000000008000000000000000000000000000000000000000000000000020000000000000004000800020000000000000000000010000000000000000000000000000000000000000000000000000000000000010000000000000000000000000000000000000000004000000000000000000000000000020000000002000000800000008000000000000000000000080000000000000020000000000000000000000000000000000000000000000000000000000000000000",
      "type": "0x2",
      "transactionHash": "0xa7e720643c525decc7b113f26133a704ca7350568e97a0a996cb9003e16d776a",
      "transactionIndex": "0xb4",
      "blockHash": "0xf8423dfec482c8367a287e80b720402a03f677f967fa4954dea3847f6aee4a38",
      "blockNumber": "0x724ffc",
      "gasUsed": "0xfb93",
      "effectiveGasPrice": "0x395ae9bd2",
      "from": "0xc77f7fed3b5cc8249adc428c5f44c9063b9734b4",
      "to": "0x5eb9cc76c3506942c1c0ead70e877dd5e4f00cb0",
      "contractAddress": null
    }
  ],
  "libraries": [],
  "pending": [],
  "returns": {},
  "timestamp": 1736880541,
  "chain": 11155111,
  "commit": "51a374b"
}