{
  "transactions": [
    {
      "hash": "0xbb1dceb519eb17f08b97bba71c68bd80b766204c6c4caf1f40775d1cb5bf93fd",
      "transactionType": "CALL",
      "contractName": null,
      "contractAddress": "0x8aafd3ede9adb0ff97c7aebce82a919afb1c8764",
      "function": "sell(uint256)",
      "arguments": [
        "19878748486320871"
      ],
      "transaction": {
        "from": "0xc77f7fed3b5cc8249adc428c5f44c9063b9734b4",
        "to": "0x8aafd3ede9adb0ff97c7aebce82a919afb1c8764",
        "gas": "0x1724d",
        "value": "0x0",
        "input": "0xe4849b3200000000000000000000000000000000000000000000000000469f9dce1b42e7",
        "nonce": "0x1312",
        "chainId": "0xaa36a7"
      },
      "additionalContracts": [],
      "isFixedGasLimit": false
    }
  ],
  "receipts": [
    {
      "status": "0x1",
      "cumulativeGasUsed": "0x65a269",
      "logs": [
        {
          "address": "0x8aafd3ede9adb0ff97c7aebce82a919afb1c8764",
          "topics": [
            "0xddf252ad1be2c89b69c2b068fc378daa952ba7f163c4a11628f55a4df523b3ef",
            "0x000000000000000000000000c77f7fed3b5cc8249adc428c5f44c9063b9734b4",
            "0x0000000000000000000000000000000000000000000000000000000000000000"
          ],
          "data": "0x00000000000000000000000000000000000000000000000000460efac02b6d61",
          "blockHash": "0x3f388ca705e27932dfaa2c8509f6a868a701fcb9f5b5cebcd20a55358f0125d1",
          "blockNumber": "0x731a1f",
          "transactionHash": "0xbb1dceb519eb17f08b97bba71c68bd80b766204c6c4caf1f40775d1cb5bf93fd",
          "transactionIndex": "0x4d",
          "logIndex": "0x5c",
          "removed": false
        },
        {
          "address": "0x8aafd3ede9adb0ff97c7aebce82a919afb1c8764",
          "topics": [
            "0xddf252ad1be2c89b69c2b068fc378daa952ba7f163c4a11628f55a4df523b3ef",
            "0x000000000000000000000000c77f7fed3b5cc8249adc428c5f44c9063b9734b4",
            "0x000000000000000000000000c77f7fed3b5cc8249adc428c5f44c9063b9734b4"
          ],
          "data": "0x000000000000000000000000000000000000000000000000000090a30defd586",
          "blockHash": "0x3f388ca705e27932dfaa2c8509f6a868a701fcb9f5b5cebcd20a55358f0125d1",
          "blockNumber": "0x731a1f",
          "transactionHash": "0xbb1dceb519eb17f08b97bba71c68bd80b766204c6c4caf1f40775d1cb5bf93fd",
          "transactionIndex": "0x4d",
          "logIndex": "0x5d",
          "removed": false
        },
        {
          "address": "0x8aafd3ede9adb0ff97c7aebce82a919afb1c8764",
          "topics": [
            "0x4afcb4a87cdbd9974efdb92ee48bc8d7cd0ae4bf217004db3d080cbaee652ca7"
          ],
          "data": "0x0000000000000000000000000000000000000000000000000000000067903644000000000000000000000000000000000000000000000000000b75905f3e318300000000000000000000000000000000000000000000000000003a50c82d3f6e",
          "blockHash": "0x3f388ca705e27932dfaa2c8509f6a868a701fcb9f5b5cebcd20a55358f0125d1",
          "blockNumber": "0x731a1f",
          "transactionHash": "0xbb1dceb519eb17f08b97bba71c68bd80b766204c6c4caf1f40775d1cb5bf93fd",
          "transactionIndex": "0x4d",
          "logIndex": "0x5e",
          "removed": false
        }
      ],
      "logsBloom": "0x00000000000000000000000000000000000000000600000000000000000000000000000000000000000000000000000000000000000000004000000000000000000000000000004000000008000000000000000000000000000000000000000000000000020000000000000000000800020000000000000000000010000000000000000000000000000000000000000000000000000000000000010000000000000000000000000000000000000000004000000000000000000000000000000000000002000000800000000000000000000000000000080000000000000020000000000000000000000000000000000000000000000000000000000000000000",
      "type": "0x2",
      "transactionHash": "0xbb1dceb519eb17f08b97bba71c68bd80b766204c6c4caf1f40775d1cb5bf93fd",
      "transactionIndex": "0x4d",
      "blockHash": "0x3f388ca705e27932dfaa2c8509f6a868a701fcb9f5b5cebcd20a55358f0125d1",
      "blockNumber": "0x731a1f",
      "gasUsed": "0xfd33",
      "effectiveGasPrice": "0x4b76aa25",
      "from": "0xc77f7fed3b5cc8249adc428c5f44c9063b9734b4",
      "to": "0x8aafd3ede9adb0ff97c7aebce82a919afb1c8764",
      "contractAddress": null
    }
  ],
  "libraries": [],
  "pending": [],
  "returns": {},
  "timestamp": 1737504324,
  "chain": 11155111,
  "commit": "1d2fb70"
}