{
  "transactions": [
    {
      "hash": "0x9ce9f034688760acc148bbf19518d381b51f6eb6e65bfc29a1dea0d795f3c564",
      "transactionType": "CALL",
      "contractName": null,
      "contractAddress": "0x8aafd3ede9adb0ff97c7aebce82a919afb1c8764",
      "function": "sell(uint256)",
      "arguments": [
        "42668541694014201"
      ],
      "transaction": {
        "from": "0xc77f7fed3b5cc8249adc428c5f44c9063b9734b4",
        "to": "0x8aafd3ede9adb0ff97c7aebce82a919afb1c8764",
        "gas": "0x1724d",
        "value": "0x0",
        "input": "0xe4849b32000000000000000000000000000000000000000000000000009796d006c172f9",
        "nonce": "0x12b9",
        "chainId": "0xaa36a7"
      },
      "additionalContracts": [],
      "isFixedGasLimit": false
    }
  ],
  "receipts": [
    {
      "status": "0x1",
      "cumulativeGasUsed": "0xa1a871",
      "logs": [
        {
          "address": "0x8aafd3ede9adb0ff97c7aebce82a919afb1c8764",
          "topics": [
            "0xddf252ad1be2c89b69c2b068fc378daa952ba7f163c4a11628f55a4df523b3ef",
            "0x000000000000000000000000c77f7fed3b5cc8249adc428c5f44c9063b9734b4",
            "0x0000000000000000000000000000000000000000000000000000000000000000"
          ],
          "data": "0x0000000000000000000000000000000000000000000000000096605bac96f108",
          "blockHash": "0xebd67178f2464523883dd008f952b03d9f5cc2ebdaeb3d6f3b8054636393b12b",
          "blockNumber": "0x7319b0",
          "transactionHash": "0x9ce9f034688760acc148bbf19518d381b51f6eb6e65bfc29a1dea0d795f3c564",
          "transactionIndex": "0x71",
          "logIndex": "0x87",
          "removed": false
        },
        {
          "address": "0x8aafd3ede9adb0ff97c7aebce82a919afb1c8764",
          "topics": [
            "0xddf252ad1be2c89b69c2b068fc378daa952ba7f163c4a11628f55a4df523b3ef",
            "0x000000000000000000000000c77f7fed3b5cc8249adc428c5f44c9063b9734b4",
            "0x000000000000000000000000c77f7fed3b5cc8249adc428c5f44c9063b9734b4"
          ],
          "data": "0x000000000000000000000000000000000000000000000000000136745a2a81f1",
          "blockHash": "0xebd67178f2464523883dd008f952b03d9f5cc2ebdaeb3d6f3b8054636393b12b",
          "blockNumber": "0x7319b0",
          "transactionHash": "0x9ce9f034688760acc148bbf19518d381b51f6eb6e65bfc29a1dea0d795f3c564",
          "transactionIndex": "0x71",
          "logIndex": "0x88",
          "removed": false
        },
        {
          "address": "0x8aafd3ede9adb0ff97c7aebce82a919afb1c8764",
          "topics": [
            "0x4afcb4a87cdbd9974efdb92ee48bc8d7cd0ae4bf217004db3d080cbaee652ca7"
          ],
          "data": "0x000000000000000000000000000000000000000000000000000000006790311000000000000000000000000000000000000000000000000000054c171fcc538f000000000000000000000000000000000000000000000000000039dcc5d8f554",
          "blockHash": "0xebd67178f2464523883dd008f952b03d9f5cc2ebdaeb3d6f3b8054636393b12b",
          "blockNumber": "0x7319b0",
          "transactionHash": "0x9ce9f034688760acc148bbf19518d381b51f6eb6e65bfc29a1dea0d795f3c564",
          "transactionIndex": "0x71",
          "logIndex": "0x89",
          "removed": false
        }
      ],
      "logsBloom": "0x00000000000000000000000000000000000000000600000000000000000000000000000000000000000000000000000000000000000000004000000000000000000000000000004000000008000000000000000000000000000000000000000000000000020000000000000000000800020000000000000000000010000000000000000000000000000000000000000000000000000000000000010000000000000000000000000000000000000000004000000000000000000000000000000000000002000000800000000000000000000000000000080000000000000020000000000000000000000000000000000000000000000000000000000000000000",
      "type": "0x2",
      "transactionHash": "0x9ce9f034688760acc148bbf19518d381b51f6eb6e65bfc29a1dea0d795f3c564",
      "transactionIndex": "0x71",
      "blockHash": "0xebd67178f2464523883dd008f952b03d9f5cc2ebdaeb3d6f3b8054636393b12b",
      "blockNumber": "0x7319b0",
      "gasUsed": "0xfd33",
      "effectiveGasPrice": "0x3f1b7630",
      "from": "0xc77f7fed3b5cc8249adc428c5f44c9063b9734b4",
      "to": "0x8aafd3ede9adb0ff97c7aebce82a919afb1c8764",
      "contractAddress": null
    }
  ],
  "libraries": [],
  "pending": [],
  "returns": {},
  "timestamp": 1737502993,
  "chain": 11155111,
  "commit": "1d2fb70"
}