{
  "transactions": [
    {
      "hash": "0x1556c5d9065d86d78f3ba69ad73bc5bb64f757b1364fca0c9c8f8235145b3b62",
      "transactionType": "CALL",
      "contractName": null,
      "contractAddress": "0xbf4a322f1496e5c3d34a9bcdb4c60567b38c7de2",
      "function": "sell(uint256)",
      "arguments": [
        "980012707519442887615"
      ],
      "transaction": {
        "from": "0xc77f7fed3b5cc8249adc428c5f44c9063b9734b4",
        "to": "0xbf4a322f1496e5c3d34a9bcdb4c60567b38c7de2",
        "gas": "0x16fea",
        "value": "0x0",
        "input": "0xe4849b3200000000000000000000000000000000000000000000003520688d28b92ea3bf",
        "nonce": "0xc17",
        "chainId": "0xaa36a7"
      },
      "additionalContracts": [],
      "isFixedGasLimit": false
    }
  ],
  "receipts": [
    {
      "status": "0x1",
      "cumulativeGasUsed": "0xd8cf57",
      "logs": [
        {
          "address": "0xbf4a322f1496e5c3d34a9bcdb4c60567b38c7de2",
          "topics": [
            "0xddf252ad1be2c89b69c2b068fc378daa952ba7f163c4a11628f55a4df523b3ef",
            "0x000000000000000000000000c77f7fed3b5cc8249adc428c5f44c9063b9734b4",
            "0x0000000000000000000000000000000000000000000000000000000000000000"
          ],
          "data": "0x00000000000000000000000000000000000000000000003520688d28b92ea3bf",
          "blockHash": "0x4d779c27a3836cfe08ffa22d0110c51f5503116c98c95af20bfab44ef2699b26",
          "blockNumber": "0x725c43",
          "transactionHash": "0x1556c5d9065d86d78f3ba69ad73bc5bb64f757b1364fca0c9c8f8235145b3b62",
          "transactionIndex": "0x6e",
          "logIndex": "0xa2",
          "removed": false
        },
        {
          "address": "0xbf4a322f1496e5c3d34a9bcdb4c60567b38c7de2",
          "topics": [
            "0x4afcb4a87cdbd9974efdb92ee48bc8d7cd0ae4bf217004db3d080cbaee652ca7"
          ],
          "data": "0x000000000000000000000000000000000000000000000000000000006787458000000000000000000000000000000000000000000000000000039993550e51aa0000000000000000000000000000000000000000000000000dc7e3e2188aa173",
          "blockHash": "0x4d779c27a3836cfe08ffa22d0110c51f5503116c98c95af20bfab44ef2699b26",
          "blockNumber": "0x725c43",
          "transactionHash": "0x1556c5d9065d86d78f3ba69ad73bc5bb64f757b1364fca0c9c8f8235145b3b62",
          "transactionIndex": "0x6e",
          "logIndex": "0xa3",
          "removed": false
        }
      ],
      "logsBloom": "0x00000000000000000000000000000000000000000000000000000000000000000000000000000000000000000000000000000000000000004000000000000000000000000000000000000008000000000000001000000000000000000000000000000000020000000000000000000800020000000000000000000010000000000000000000000000000000000000000000000000000008000000010000000000000000000000000000000000000000004000000000000000000000000000000000000002000000800000000000001000000000000000080000000000000020000000000000000000000000000000000000000000000000000000000000000000",
      "type": "0x2",
      "transactionHash": "0x1556c5d9065d86d78f3ba69ad73bc5bb64f757b1364fca0c9c8f8235145b3b62",
      "transactionIndex": "0x6e",
      "blockHash": "0x4d779c27a3836cfe08ffa22d0110c51f5503116c98c95af20bfab44ef2699b26",
      "blockNumber": "0x725c43",
      "gasUsed": "0xfb91",
      "effectiveGasPrice": "0x133df5631",
      "from": "0xc77f7fed3b5cc8249adc428c5f44c9063b9734b4",
      "to": "0xbf4a322f1496e5c3d34a9bcdb4c60567b38c7de2",
      "contractAddress": null
    }
  ],
  "libraries": [],
  "pending": [],
  "returns": {},
  "timestamp": 1736918401,
  "chain": 11155111,
  "commit": "51a374b"
}