{
  "transactions": [
    {
      "hash": "0xf513b6b50be00401f71d542f698d9bad85624b5c2cddcf1f9c587d16f914949e",
      "transactionType": "CALL",
      "contractName": null,
      "contractAddress": "0xbf4a322f1496e5c3d34a9bcdb4c60567b38c7de2",
      "function": "sell(uint256)",
      "arguments": [
        "977575088021582807923"
      ],
      "transaction": {
        "from": "0xc77f7fed3b5cc8249adc428c5f44c9063b9734b4",
        "to": "0xbf4a322f1496e5c3d34a9bcdb4c60567b38c7de2",
        "gas": "0x16fea",
        "value": "0x0",
        "input": "0xe4849b32000000000000000000000000000000000000000000000034fe9463240daa8373",
        "nonce": "0xccd",
        "chainId": "0xaa36a7"
      },
      "additionalContracts": [],
      "isFixedGasLimit": false
    }
  ],
  "receipts": [
    {
      "status": "0x1",
      "cumulativeGasUsed": "0x135fd01",
      "logs": [
        {
          "address": "0xbf4a322f1496e5c3d34a9bcdb4c60567b38c7de2",
          "topics": [
            "0xddf252ad1be2c89b69c2b068fc378daa952ba7f163c4a11628f55a4df523b3ef",
            "0x000000000000000000000000c77f7fed3b5cc8249adc428c5f44c9063b9734b4",
            "0x0000000000000000000000000000000000000000000000000000000000000000"
          ],
          "data": "0x000000000000000000000000000000000000000000000034fe9463240daa8373",
          "blockHash": "0x5d963009e5ca6f7a845e659f6798d3387e7d69958f14549327d158f28d369906",
          "blockNumber": "0x725d1d",
          "transactionHash": "0xf513b6b50be00401f71d542f698d9bad85624b5c2cddcf1f9c587d16f914949e",
          "transactionIndex": "0x9a",
          "logIndex": "0x111",
          "removed": false
        },
        {
          "address": "0xbf4a322f1496e5c3d34a9bcdb4c60567b38c7de2",
          "topics": [
            "0x4afcb4a87cdbd9974efdb92ee48bc8d7cd0ae4bf217004db3d080cbaee652ca7"
          ],
          "data": "0x0000000000000000000000000000000000000000000000000000000067874fd000000000000000000000000000000000000000000000000000039bdf9983442c0000000000000000000000000000000000000000000000000dc7e3dc6da54446",
          "blockHash": "0x5d963009e5ca6f7a845e659f6798d3387e7d69958f14549327d158f28d369906",
          "blockNumber": "0x725d1d",
          "transactionHash": "0xf513b6b50be00401f71d542f698d9bad85624b5c2cddcf1f9c587d16f914949e",
          "transactionIndex": "0x9a",
          "logIndex": "0x112",
          "removed": false
        }
      ],
      "logsBloom": "0x00000000000000000000000000000000000000000000000000000000000000000000000000000000000000000000000000000000000000004000000000000000000000000000000000000008000000000000001000000000000000000000000000000000020000000000000000000800020000000000000000000010000000000000000000000000000000000000000000000000000008000000010000000000000000000000000000000000000000004000000000000000000000000000000000000002000000800000000000001000000000000000080000000000000020000000000000000000000000000000000000000000000000000000000000000000",
      "type": "0x2",
      "transactionHash": "0xf513b6b50be00401f71d542f698d9bad85624b5c2cddcf1f9c587d16f914949e",
      "transactionIndex": "0x9a",
      "blockHash": "0x5d963009e5ca6f7a845e659f6798d3387e7d69958f14549327d158f28d369906",
      "blockNumber": "0x725d1d",
      "gasUsed": "0xfb91",
      "effectiveGasPrice": "0x40d2ee9ac",
      "from": "0xc77f7fed3b5cc8249adc428c5f44c9063b9734b4",
      "to": "0xbf4a322f1496e5c3d34a9bcdb4c60567b38c7de2",
      "contractAddress": null
    }
  ],
  "libraries": [],
  "pending": [],
  "returns": {},
  "timestamp": 1736921041,
  "chain": 11155111,
  "commit": "51a374b"
}