{
  "transactions": [
    {
      "hash": "0x6e97d2f68524be10240b5664a82b697d0446494556a35daecda158c3a9588799",
      "transactionType": "CALL",
      "contractName": null,
      "contractAddress": "0xbf4a322f1496e5c3d34a9bcdb4c60567b38c7de2",
      "function": "sell(uint256)",
      "arguments": [
        "977735436806419600658"
      ],
      "transaction": {
        "from": "0xc77f7fed3b5cc8249adc428c5f44c9063b9734b4",
        "to": "0xbf4a322f1496e5c3d34a9bcdb4c60567b38c7de2",
        "gas": "0x15b68",
        "value": "0x0",
        "input": "0xe4849b3200000000000000000000000000000000000000000000003500ce0f82d6075512",
        "nonce": "0xcc1",
        "chainId": "0xaa36a7"
      },
      "additionalContracts": [],
      "isFixedGasLimit": false
    }
  ],
  "receipts": [
    {
      "status": "0x1",
      "cumulativeGasUsed": "0x194e2ea",
      "logs": [
        {
          "address": "0xbf4a322f1496e5c3d34a9bcdb4c60567b38c7de2",
          "topics": [
            "0xddf252ad1be2c89b69c2b068fc378daa952ba7f163c4a11628f55a4df523b3ef",
            "0x000000000000000000000000c77f7fed3b5cc8249adc428c5f44c9063b9734b4",
            "0x0000000000000000000000000000000000000000000000000000000000000000"
          ],
          "data": "0x00000000000000000000000000000000000000000000003500ce0f82d6075512",
          "blockHash": "0x3d8f15ee185bc0e19daee0fa5272e740749e02e195b95e1e84ae606dd80af7be",
          "blockNumber": "0x725d11",
          "transactionHash": "0x6e97d2f68524be10240b5664a82b697d0446494556a35daecda158c3a9588799",
          "transactionIndex": "0xbd",
          "logIndex": "0x105",
          "removed": false
        },
        {
          "address": "0xbf4a322f1496e5c3d34a9bcdb4c60567b38c7de2",
          "topics": [
            "0x4afcb4a87cdbd9974efdb92ee48bc8d7cd0ae4bf217004db3d080cbaee652ca7"
          ],
          "data": "0x0000000000000000000000000000000000000000000000000000000067874f4000000000000000000000000000000000000000000000000000039bb8d011ff690000000000000000000000000000000000000000000000000dc7e3dccd164d13",
          "blockHash": "0x3d8f15ee185bc0e19daee0fa5272e740749e02e195b95e1e84ae606dd80af7be",
          "blockNumber": "0x725d11",
          "transactionHash": "0x6e97d2f68524be10240b5664a82b697d0446494556a35daecda158c3a9588799",
          "transactionIndex": "0xbd",
          "logIndex": "0x106",
          "removed": false
        }
      ],
      "logsBloom": "0x00000000000000000000000000000000000000000000000000000000000000000000000000000000000000000000000000000000000000004000000000000000000000000000000000000008000000000000001000000000000000000000000000000000020000000000000000000800020000000000000000000010000000000000000000000000000000000000000000000000000008000000010000000000000000000000000000000000000000004000000000000000000000000000000000000002000000800000000000001000000000000000080000000000000020000000000000000000000000000000000000000000000000000000000000000000",
      "type": "0x2",
      "transactionHash": "0x6e97d2f68524be10240b5664a82b697d0446494556a35daecda158c3a9588799",
      "transactionIndex": "0xbd",
      "blockHash": "0x3d8f15ee185bc0e19daee0fa5272e740749e02e195b95e1e84ae606dd80af7be",
      "blockNumber": "0x725d11",
      "gasUsed": "0xfb85",
      "effectiveGasPrice": "0x22afca93f",
      "from": "0xc77f7fed3b5cc8249adc428c5f44c9063b9734b4",
      "to": "0xbf4a322f1496e5c3d34a9bcdb4c60567b38c7de2",
      "contractAddress": null
    }
  ],
  "libraries": [],
  "pending": [],
  "returns": {},
  "timestamp": 1736920899,
  "chain": 11155111,
  "commit": "51a374b"
}