{
  "transactions": [
    {
      "hash": "0x3a5050de2a7a9398e8f955fbe4b472c71a74379d0c88f9ce0496737cbffa0442",
      "transactionType": "CALL",
      "contractName": null,
      "contractAddress": "0x8aafd3ede9adb0ff97c7aebce82a919afb1c8764",
      "function": "sell(uint256)",
      "arguments": [
        "2399227549687785214"
      ],
      "transaction": {
        "from": "0xc77f7fed3b5cc8249adc428c5f44c9063b9734b4",
        "to": "0x8aafd3ede9adb0ff97c7aebce82a919afb1c8764",
        "gas": "0x15dca",
        "value": "0x0",
        "input": "0xe4849b32000000000000000000000000000000000000000000000000214bc4beaa78a6fe",
        "nonce": "0x1335",
        "chainId": "0xaa36a7"
      },
      "additionalContracts": [],
      "isFixedGasLimit": false
    }
  ],
  "receipts": [
    {
      "status": "0x1",
      "cumulativeGasUsed": "0x7d707a",
      "logs": [
        {
          "address": "0x8aafd3ede9adb0ff97c7aebce82a919afb1c8764",
          "topics": [
            "0xddf252ad1be2c89b69c2b068fc378daa952ba7f163c4a11628f55a4df523b3ef",
            "0x000000000000000000000000c77f7fed3b5cc8249adc428c5f44c9063b9734b4",
            "0x0000000000000000000000000000000000000000000000000000000000000000"
          ],
          "data": "0x000000000000000000000000000000000000000000000000210794111bcba7b5",
          "blockHash": "0x58fbf46c0fe417e290910773a0c28d34fe34ae4eeea42581e692839c9f3d3f9a",
          "blockNumber": "0x731a4a",
          "transactionHash": "0x3a5050de2a7a9398e8f955fbe4b472c71a74379d0c88f9ce0496737cbffa0442",
          "transactionIndex": "0x75",
          "logIndex": "0x83",
          "removed": false
        },
        {
          "address": "0x8aafd3ede9adb0ff97c7aebce82a919afb1c8764",
          "topics": [
            "0xddf252ad1be2c89b69c2b068fc378daa952ba7f163c4a11628f55a4df523b3ef",
            "0x000000000000000000000000c77f7fed3b5cc8249adc428c5f44c9063b9734b4",
            "0x000000000000000000000000c77f7fed3b5cc8249adc428c5f44c9063b9734b4"
          ],
          "data": "0x000000000000000000000000000000000000000000000000004430ad8eacff49",
          "blockHash": "0x58fbf46c0fe417e290910773a0c28d34fe34ae4eeea42581e692839c9f3d3f9a",
          "blockNumber": "0x731a4a",
          "transactionHash": "0x3a5050de2a7a9398e8f955fbe4b472c71a74379d0c88f9ce0496737cbffa0442",
          "transactionIndex": "0x75",
          "logIndex": "0x84",
          "removed": false
        },
        {
          "address": "0x8aafd3ede9adb0ff97c7aebce82a919afb1c8764",
          "topics": [
            "0x4afcb4a87cdbd9974efdb92ee48bc8d7cd0ae4bf217004db3d080cbaee652ca7"
          ],
          "data": "0x0000000000000000000000000000000000000000000000000000000067903848000000000000000000000000000000000000000000000000000bdd61a539d9e2000000000000000000000000000000000000000000000000001c76fbe7ee14f5",
          "blockHash": "0x58fbf46c0fe417e290910773a0c28d34fe34ae4eeea42581e692839c9f3d3f9a",
          "blockNumber": "0x731a4a",
          "transactionHash": "0x3a5050de2a7a9398e8f955fbe4b472c71a74379d0c88f9ce0496737cbffa0442",
          "transactionIndex": "0x75",
          "logIndex": "0x85",
          "removed": false
        }
      ],
      "logsBloom": "0x00000000000000000000000000000000000000000600000000000000000000000000000000000000000000000000000000000000000000004000000000000000000000000000004000000008000000000000000000000000000000000000000000000000020000000000000000000800020000000000000000000010000000000000000000000000000000000000000000000000000000000000010000000000000000000000000000000000000000004000000000000000000000000000000000000002000000800000000000000000000000000000080000000000000020000000000000000000000000000000000000000000000000000000000000000000",
      "type": "0x2",
      "transactionHash": "0x3a5050de2a7a9398e8f955fbe4b472c71a74379d0c88f9ce0496737cbffa0442",
      "transactionIndex": "0x75",
      "blockHash": "0x58fbf46c0fe417e290910773a0c28d34fe34ae4eeea42581e692839c9f3d3f9a",
      "blockNumber": "0x731a4a",
      "gasUsed": "0xfd3f",
      "effectiveGasPrice": "0x4f4107df",
      "from": "0xc77f7fed3b5cc8249adc428c5f44c9063b9734b4",
      "to": "0x8aafd3ede9adb0ff97c7aebce82a919afb1c8764",
      "contractAddress": null
    }
  ],
  "libraries": [],
  "pending": [],
  "returns": {},
  "timestamp": 1737504841,
  "chain": 11155111,
  "commit": "1d2fb70"
}