{
  "transactions": [
    {
      "hash": "0x9fad89c9f72d35a25b94c7a7196b8c16383c3279e1895d714fbb7aaf3571d99f",
      "transactionType": "CALL",
      "contractName": null,
      "contractAddress": "0x270e88f8683660553e8ba4eb2ad7c91a1710d769",
      "function": "sell(uint256)",
      "arguments": [
        "736044432307349795971"
      ],
      "transaction": {
        "from": "0xc77f7fed3b5cc8249adc428c5f44c9063b9734b4",
        "to": "0x270e88f8683660553e8ba4eb2ad7c91a1710d769",
        "gas": "0x16fec",
        "value": "0x0",
        "input": "0xe4849b32000000000000000000000000000000000000000000000027e6ab1f73f7a2b483",
        "nonce": "0x768",
        "chainId": "0xaa36a7"
      },
      "additionalContracts": [],
      "isFixedGasLimit": false
    }
  ],
  "receipts": [
    {
      "status": "0x1",
      "cumulativeGasUsed": "0x1508345",
      "logs": [
        {
          "address": "0x270e88f8683660553e8ba4eb2ad7c91a1710d769",
          "topics": [
            "0xddf252ad1be2c89b69c2b068fc378daa952ba7f163c4a11628f55a4df523b3ef",
            "0x000000000000000000000000c77f7fed3b5cc8249adc428c5f44c9063b9734b4",
            "0x0000000000000000000000000000000000000000000000000000000000000000"
          ],
          "data": "0x000000000000000000000000000000000000000000000027e6ab1f73f7a2b483",
          "blockHash": "0xb8d42cb641e748f41a28ccb9032942d8cef31a2d6b857e7dd1ee52e613d60d15",
          "blockNumber": "0x725491",
          "transactionHash": "0x9fad89c9f72d35a25b94c7a7196b8c16383c3279e1895d714fbb7aaf3571d99f",
          "transactionIndex": "0x33",
          "logIndex": "0x68",
          "removed": false
        },
        {
          "address": "0x270e88f8683660553e8ba4eb2ad7c91a1710d769",
          "topics": [
            "0x4afcb4a87cdbd9974efdb92ee48bc8d7cd0ae4bf217004db3d080cbaee652ca7"
          ],
          "data": "0x000000000000000000000000000000000000000000000000000000006786e8d40000000000000000000000000000000000000000000000000004cb4c8ad27a9e0000000000000000000000000000000000000000000000000dc828172ac41f7d",
          "blockHash": "0xb8d42cb641e748f41a28ccb9032942d8cef31a2d6b857e7dd1ee52e613d60d15",
          "blockNumber": "0x725491",
          "transactionHash": "0x9fad89c9f72d35a25b94c7a7196b8c16383c3279e1895d714fbb7aaf3571d99f",
          "transactionIndex": "0x33",
          "logIndex": "0x69",
          "removed": false
        }
      ],
      "logsBloom": "0x00000000000000000000000000000000000000000000000000000000000000000000000000000000000000000000000020000000000000004000000000000000000000000000000000000008000000000000000000000000000000000000000000000000020000000000000000000800020000000000000000000010000000000000000000010000000000000000000000000000000000000000010000000000000000000000000000000000000000004000000000000000000000000000000000000002000000800000000000000000000000000000080000008000000020000000000000000000000000000000000000000000000000000000000000000000",
      "type": "0x2",
      "transactionHash": "0x9fad89c9f72d35a25b94c7a7196b8c16383c3279e1895d714fbb7aaf3571d99f",
      "transactionIndex": "0x33",
      "blockHash": "0xb8d42cb641e748f41a28ccb9032942d8cef31a2d6b857e7dd1ee52e613d60d15",
      "blockNumber": "0x725491",
      "gasUsed": "0xfb93",
      "effectiveGasPrice": "0x14053865e",
      "from": "0xc77f7fed3b5cc8249adc428c5f44c9063b9734b4",
      "to": "0x270e88f8683660553e8ba4eb2ad7c91a1710d769",
      "contractAddress": null
    }
  ],
  "libraries": [],
  "pending": [],
  "returns": {},
  "timestamp": 1736894677,
  "chain": 11155111,
  "commit": "51a374b"
}