{
  "transactions": [
    {
      "hash": "0x9e0373baf121c01ead97e265433fa7db2829cbce214ebc7ea05ee95376c9a15a",
      "transactionType": "CALL",
      "contractName": null,
      "contractAddress": "0xbf4a322f1496e5c3d34a9bcdb4c60567b38c7de2",
      "function": "buy(address)",
      "arguments": [
        "0xC77f7fed3b5Cc8249aDc428c5F44C9063B9734b4"
      ],
      "transaction": {
        "from": "0xc77f7fed3b5cc8249adc428c5f44c9063b9734b4",
        "to": "0xbf4a322f1496e5c3d34a9bcdb4c60567b38c7de2",
        "gas": "0x1b309",
        "value": "0xde0b6b3a7640000",
        "input": "0xf088d547000000000000000000000000c77f7fed3b5cc8249adc428c5f44c9063b9734b4",
        "nonce": "0xc58",
        "chainId": "0xaa36a7"
      },
      "additionalContracts": [],
      "isFixedGasLimit": false
    }
  ],
  "receipts": [
    {
      "status": "0x1",
      "cumulativeGasUsed": "0x76af86",
      "logs": [
        {
          "address": "0xbf4a322f1496e5c3d34a9bcdb4c60567b38c7de2",
          "topics": [
            "0xddf252ad1be2c89b69c2b068fc378daa952ba7f163c4a11628f55a4df523b3ef",
            "0x0000000000000000000000000000000000000000000000000000000000000000",
            "0x000000000000000000000000c77f7fed3b5cc8249adc428c5f44c9063b9734b4"
          ],
          "data": "0x000000000000000000000000000000000000000000000034eb07564a81170487",
          "blockHash": "0xd05fd8e27df4360803ff2a72fcff261b438bf0709687789fdc0e376c5216eabf",
          "blockNumber": "0x725c91",
          "transactionHash": "0x9e0373baf121c01ead97e265433fa7db2829cbce214ebc7ea05ee95376c9a15a",
          "transactionIndex": "0x3c",
          "logIndex": "0x51",
          "removed": false
        },
        {
          "address": "0xbf4a322f1496e5c3d34a9bcdb4c60567b38c7de2",
          "topics": [
            "0xddf252ad1be2c89b69c2b068fc378daa952ba7f163c4a11628f55a4df523b3ef",
            "0x0000000000000000000000000000000000000000000000000000000000000000",
            "0x000000000000000000000000c77f7fed3b5cc8249adc428c5f44c9063b9734b4"
          ],
          "data": "0x0000000000000000000000000000000000000000000000002917bad6f00ba7dc",
          "blockHash": "0xd05fd8e27df4360803ff2a72fcff261b438bf0709687789fdc0e376c5216eabf",
          "blockNumber": "0x725c91",
          "transactionHash": "0x9e0373baf121c01ead97e265433fa7db2829cbce214ebc7ea05ee95376c9a15a",
          "transactionIndex": "0x3c",
          "logIndex": "0x52",
          "removed": false
        },
        {
          "address": "0xbf4a322f1496e5c3d34a9bcdb4c60567b38c7de2",
          "topics": [
            "0x4afcb4a87cdbd9974efdb92ee48bc8d7cd0ae4bf217004db3d080cbaee652ca7"
          ],
          "data": "0x000000000000000000000000000000000000000000000000000000006787494000000000000000000000000000000000000000000000000000039a648612fbc60000000000000000000000000000000000000000000000000de0b6b3a7640000",
          "blockHash": "0xd05fd8e27df4360803ff2a72fcff261b438bf0709687789fdc0e376c5216eabf",
          "blockNumber": "0x725c91",
          "transactionHash": "0x9e0373baf121c01ead97e265433fa7db2829cbce214ebc7ea05ee95376c9a15a",
          "transactionIndex": "0x3c",
          "logIndex": "0x53",
          "removed": false
        }
      ],
      "logsBloom": "0x00000000000000000000000000000000000000000000000000000000000000000000000000000000000000000000000000000000000000004000000000000000000000000000000000000008000000000000001000000000000000000000000000000000020000000000000000000800020000000000000000000010000000000000000000000000000000000000000000000000000008000000010000000000000000000000000000000000000000004000000000000000000000000000000000000002000000800000000000001000000000000000080000000000000020000000000000000000000000000000000000000000000000000000000000000000",
      "type": "0x2",
      "transactionHash": "0x9e0373baf121c01ead97e265433fa7db2829cbce214ebc7ea05ee95376c9a15a",
      "transactionIndex": "0x3c",
      "blockHash": "0xd05fd8e27df4360803ff2a72fcff261b438bf0709687789fdc0e376c5216eabf",
      "blockNumber": "0x725c91",
      "gasUsed": "0x13af6",
      "effectiveGasPrice": "0x281bb60f4",
      "from": "0xc77f7fed3b5cc8249adc428c5f44c9063b9734b4",
      "to": "0xbf4a322f1496e5c3d34a9bcdb4c60567b38c7de2",
      "contractAddress": null
    }
  ],
  "libraries": [],
  "pending": [],
  "returns": {},
  "timestamp": 1736919361,
  "chain": 11155111,
  "commit": "51a374b"
}