{
  "transactions": [
    {
      "hash": "0x80b01bfeaea249eb11d23f8ab2fb749d7eec98c5aae92365a73dce4c1dec75ff",
      "transactionType": "CALL",
      "contractName": null,
      "contractAddress": "0x270e88f8683660553e8ba4eb2ad7c91a1710d769",
      "function": "buy(address)",
      "arguments": [
        "0xC77f7fed3b5Cc8249aDc428c5F44C9063B9734b4"
      ],
      "transaction": {
        "from": "0xc77f7fed3b5cc8249adc428c5f44c9063b9734b4",
        "to": "0x270e88f8683660553e8ba4eb2ad7c91a1710d769",
        "gas": "0x1b30c",
        "value": "0xde0b6b3a7640000",
        "input": "0xf088d547000000000000000000000000c77f7fed3b5cc8249adc428c5f44c9063b9734b4",
        "nonce": "0x881",
        "chainId": "0xaa36a7"
      },
      "additionalContracts": [],
      "isFixedGasLimit": false
    }
  ],
  "receipts": [
    {
      "status": "0x1",
      "cumulativeGasUsed": "0x64eba7",
      "logs": [
        {
          "address": "0x270e88f8683660553e8ba4eb2ad7c91a1710d769",
          "topics": [
            "0xddf252ad1be2c89b69c2b068fc378daa952ba7f163c4a11628f55a4df523b3ef",
            "0x0000000000000000000000000000000000000000000000000000000000000000",
            "0x000000000000000000000000c77f7fed3b5cc8249adc428c5f44c9063b9734b4"
          ],
          "data": "0x0000000000000000000000000000000000000000000000267c194093e9672cf2",
          "blockHash": "0xca0d952d2631e50fe7e35a0d7a3fc2899b1d49d8bc143d97910aebf0bc3c88fa",
          "blockNumber": "0x7255dd",
          "transactionHash": "0x80b01bfeaea249eb11d23f8ab2fb749d7eec98c5aae92365a73dce4c1dec75ff",
          "transactionIndex": "0x38",
          "logIndex": "0x65",
          "removed": false
        },
        {
          "address": "0x270e88f8683660553e8ba4eb2ad7c91a1710d769",
          "topics": [
            "0xddf252ad1be2c89b69c2b068fc378daa952ba7f163c4a11628f55a4df523b3ef",
            "0x0000000000000000000000000000000000000000000000000000000000000000",
            "0x000000000000000000000000c77f7fed3b5cc8249adc428c5f44c9063b9734b4"
          ],
          "data": "0x0000000000000000000000000000000000000000000000001de27d9b2c4f7513",
          "blockHash": "0xca0d952d2631e50fe7e35a0d7a3fc2899b1d49d8bc143d97910aebf0bc3c88fa",
          "blockNumber": "0x7255dd",
          "transactionHash": "0x80b01bfeaea249eb11d23f8ab2fb749d7eec98c5aae92365a73dce4c1dec75ff",
          "transactionIndex": "0x38",
          "logIndex": "0x66",
          "removed": false
        },
        {
          "address": "0x270e88f8683660553e8ba4eb2ad7c91a1710d769",
          "topics": [
            "0x4afcb4a87cdbd9974efdb92ee48bc8d7cd0ae4bf217004db3d080cbaee652ca7"
          ],
          "data": "0x000000000000000000000000000000000000000000000000000000006786f8640000000000000000000000000000000000000000000000000004f46b45a79a140000000000000000000000000000000000000000000000000de0b6b3a7640000",
          "blockHash": "0xca0d952d2631e50fe7e35a0d7a3fc2899b1d49d8bc143d97910aebf0bc3c88fa",
          "blockNumber": "0x7255dd",
          "transactionHash": "0x80b01bfeaea249eb11d23f8ab2fb749d7eec98c5aae92365a73dce4c1dec75ff",
          "transactionIndex": "0x38",
          "logIndex": "0x67",
          "removed": false
        }
      ],
      "logsBloom": "0x00000000000000000000000000000000000000000000000000000000000000000000000000000000000000000000000020000000000000004000000000000000000000000000000000000008000000000000000000000000000000000000000000000000020000000000000000000800020000000000000000000010000000000000000000010000000000000000000000000000000000000000010000000000000000000000000000000000000000004000000000000000000000000000000000000002000000800000000000000000000000000000080000008000000020000000000000000000000000000000000000000000000000000000000000000000",
      "type": "0x2",
      "transactionHash": "0x80b01bfeaea249eb11d23f8ab2fb749d7eec98c5aae92365a73dce4c1dec75ff",
      "transactionIndex": "0x38",
      "blockHash": "0xca0d952d2631e50fe7e35a0d7a3fc2899b1d49d8bc143d97910aebf0bc3c88fa",
      "blockNumber": "0x7255dd",
      "gasUsed": "0x13af8",
      "effectiveGasPrice": "0xc66f93cb",
      "from": "0xc77f7fed3b5cc8249adc428c5f44c9063b9734b4",
      "to": "0x270e88f8683660553e8ba4eb2ad7c91a1710d769",
      "contractAddress": null
    }
  ],
  "libraries": [],
  "pending": [],
  "returns": {},
  "timestamp": 1736898660,
  "chain": 11155111,
  "commit": "51a374b"
}