{
  "transactions": [
    {
      "hash": "0xf3623af037fdb3507a6ea0134f9daf037433394620ec20900a77adeafbcc0235",
      "transactionType": "CALL",
      "contractName": null,
      "contractAddress": "0x270e88f8683660553e8ba4eb2ad7c91a1710d769",
      "function": "sell(uint256)",
      "arguments": [
        "976048780211598388110"
      ],
      "transaction": {
        "from": "0xc77f7fed3b5cc8249adc428c5f44c9063b9734b4",
        "to": "0x270e88f8683660553e8ba4eb2ad7c91a1710d769",
        "gas": "0x16fec",
        "value": "0x0",
        "input": "0xe4849b32000000000000000000000000000000000000000000000034e965da463da3eb8e",
        "nonce": "0x541",
        "chainId": "0xaa36a7"
      },
      "additionalContracts": [],
      "isFixedGasLimit": false
    }
  ],
  "receipts": [
    {
      "status": "0x1",
      "cumulativeGasUsed": "0xcec0d0",
      "logs": [
        {
          "address": "0x270e88f8683660553e8ba4eb2ad7c91a1710d769",
          "topics": [
            "0xddf252ad1be2c89b69c2b068fc378daa952ba7f163c4a11628f55a4df523b3ef",
            "0x000000000000000000000000c77f7fed3b5cc8249adc428c5f44c9063b9734b4",
            "0x0000000000000000000000000000000000000000000000000000000000000000"
          ],
          "data": "0x000000000000000000000000000000000000000000000034e965da463da3eb8e",
          "blockHash": "0xd10025d3617a014a2180a38698dabd2c4001e8754c84f3b76bb41baea9af9dfa",
          "blockNumber": "0x7251de",
          "transactionHash": "0xf3623af037fdb3507a6ea0134f9daf037433394620ec20900a77adeafbcc0235",
          "transactionIndex": "0x5d",
          "logIndex": "0xdb",
          "removed": false
        },
        {
          "address": "0x270e88f8683660553e8ba4eb2ad7c91a1710d769",
          "topics": [
            "0x4afcb4a87cdbd9974efdb92ee48bc8d7cd0ae4bf217004db3d080cbaee652ca7"
          ],
          "data": "0x000000000000000000000000000000000000000000000000000000006786c85800000000000000000000000000000000000000000000000000039d95dcd2f2d40000000000000000000000000000000000000000000000000dc840d5b9ef90a5",
          "blockHash": "0xd10025d3617a014a2180a38698dabd2c4001e8754c84f3b76bb41baea9af9dfa",
          "blockNumber": "0x7251de",
          "transactionHash": "0xf3623af037fdb3507a6ea0134f9daf037433394620ec20900a77adeafbcc0235",
          "transactionIndex": "0x5d",
          "logIndex": "0xdc",
          "removed": false
        }
      ],
      "logsBloom": "0x00000000000000000000000000000000000000000000000000000000000000000000000000000000000000000000000020000000000000004000000000000000000000000000000000000008000000000000000000000000000000000000000000000000020000000000000000000800020000000000000000000010000000000000000000010000000000000000000000000000000000000000010000000000000000000000000000000000000000004000000000000000000000000000000000000002000000800000000000000000000000000000080000008000000020000000000000000000000000000000000000000000000000000000000000000000",
      "type": "0x2",
      "transactionHash": "0xf3623af037fdb3507a6ea0134f9daf037433394620ec20900a77adeafbcc0235",
      "transactionIndex": "0x5d",
      "blockHash": "0xd10025d3617a014a2180a38698dabd2c4001e8754c84f3b76bb41baea9af9dfa",
      "blockNumber": "0x7251de",
      "gasUsed": "0xfb93",
      "effectiveGasPrice": "0x3fecf916f",
      "from": "0xc77f7fed3b5cc8249adc428c5f44c9063b9734b4",
      "to": "0x270e88f8683660553e8ba4eb2ad7c91a1710d769",
      "contractAddress": null
    }
  ],
  "libraries": [],
  "pending": [],
  "returns": {},
  "timestamp": 1736886361,
  "chain": 11155111,
  "commit": "51a374b"
}