{
  "transactions": [
    {
      "hash": "0xdd9f1ce748fe3d025d6b8432feb72d725afd6bb37b77984c444a2691e5e31d3d",
      "transactionType": "CALL",
      "contractName": null,
      "contractAddress": "0xbf4a322f1496e5c3d34a9bcdb4c60567b38c7de2",
      "function": "buy(address)",
      "arguments": [
        "0xC77f7fed3b5Cc8249aDc428c5F44C9063B9734b4"
      ],
      "transaction": {
        "from": "0xc77f7fed3b5cc8249adc428c5f44c9063b9734b4",
        "to": "0xbf4a322f1496e5c3d34a9bcdb4c60567b38c7de2",
        "gas": "0x1b309",
        "value": "0xde0b6b3a7640000",
        "input": "0xf088d547000000000000000000000000c77f7fed3b5cc8249adc428c5f44c9063b9734b4",
        "nonce": "0xe24",
        "chainId": "0xaa36a7"
      },
      "additionalContracts": [],
      "isFixedGasLimit": false
    }
  ],
  "receipts": [
    {
      "status": "0x1",
      "cumulativeGasUsed": "0xb73fba",
      "logs": [
        {
          "address": "0xbf4a322f1496e5c3d34a9bcdb4c60567b38c7de2",
          "topics": [
            "0xddf252ad1be2c89b69c2b068fc378daa952ba7f163c4a11628f55a4df523b3ef",
            "0x0000000000000000000000000000000000000000000000000000000000000000",
            "0x000000000000000000000000c77f7fed3b5cc8249adc428c5f44c9063b9734b4"
          ],
          "data": "0x0000000000000000000000000000000000000000000000349642e8e1bf228707",
          "blockHash": "0xfb61db3039fce39463037aad6396d7d7d7a291f9a19b850c5601d3a166c572d0",
          "blockNumber": "0x726713",
          "transactionHash": "0xdd9f1ce748fe3d025d6b8432feb72d725afd6bb37b77984c444a2691e5e31d3d",
          "transactionIndex": "0x5f",
          "logIndex": "0x93",
          "removed": false
        },
        {
          "address": "0xbf4a322f1496e5c3d34a9bcdb4c60567b38c7de2",
          "topics": [
            "0xddf252ad1be2c89b69c2b068fc378daa952ba7f163c4a11628f55a4df523b3ef",
            "0x0000000000000000000000000000000000000000000000000000000000000000",
            "0x000000000000000000000000c77f7fed3b5cc8249adc428c5f44c9063b9734b4"
          ],
          "data": "0x00000000000000000000000000000000000000000000000028d5e7b7b0c87b49",
          "blockHash": "0xfb61db3039fce39463037aad6396d7d7d7a291f9a19b850c5601d3a166c572d0",
          "blockNumber": "0x726713",
          "transactionHash": "0xdd9f1ce748fe3d025d6b8432feb72d725afd6bb37b77984c444a2691e5e31d3d",
          "transactionIndex": "0x5f",
          "logIndex": "0x94",
          "removed": false
        },
        {
          "address": "0xbf4a322f1496e5c3d34a9bcdb4c60567b38c7de2",
          "topics": [
            "0x4afcb4a87cdbd9974efdb92ee48bc8d7cd0ae4bf217004db3d080cbaee652ca7"
          ],
          "data": "0x000000000000000000000000000000000000000000000000000000006787c8540000000000000000000000000000000000000000000000000003a0335b02c2cc0000000000000000000000000000000000000000000000000de0b6b3a7640000",
          "blockHash": "0xfb61db3039fce39463037aad6396d7d7d7a291f9a19b850c5601d3a166c572d0",
          "blockNumber": "0x726713",
          "transactionHash": "0xdd9f1ce748fe3d025d6b8432feb72d725afd6bb37b77984c444a2691e5e31d3d",
          "transactionIndex": "0x5f",
          "logIndex": "0x95",
          "removed": false
        }
      ],
      "logsBloom": "0x00000000000000000000000000000000000000000000000000000000000000000000000000000000000000000000000000000000000000004000000000000000000000000000000000000008000000000000001000000000000000000000000000000000020000000000000000000800020000000000000000000010000000000000000000000000000000000000000000000000000008000000010000000000000000000000000000000000000000004000000000000000000000000000000000000002000000800000000000001000000000000000080000000000000020000000000000000000000000000000000000000000000000000000000000000000",
      "type": "0x2",
      "transactionHash": "0xdd9f1ce748fe3d025d6b8432feb72d725afd6bb37b77984c444a2691e5e31d3d",
      "transactionIndex": "0x5f",
      "blockHash": "0xfb61db3039fce39463037aad6396d7d7d7a291f9a19b850c5601d3a166c572d0",
      "blockNumber": "0x726713",
      "gasUsed": "0x13af6",
      "effectiveGasPrice": "0x50e0699d7",
      "from": "0xc77f7fed3b5cc8249adc428c5f44c9063b9734b4",
      "to": "0xbf4a322f1496e5c3d34a9bcdb4c60567b38c7de2",
      "contractAddress": null
    }
  ],
  "libraries": [],
  "pending": [],
  "returns": {},
  "timestamp": 1736951893,
  "chain": 11155111,
  "commit": "51a374b"
}