{
  "transactions": [
    {
      "hash": "0x81ad87725210e5eea352dd3c7ff6283c2da55d65b35d697534c270e4cf2472fc",
      "transactionType": "CALL",
      "contractName": null,
      "contractAddress": "0xbf4a322f1496e5c3d34a9bcdb4c60567b38c7de2",
      "function": "buy(address)",
      "arguments": [
        "0xC77f7fed3b5Cc8249aDc428c5F44C9063B9734b4"
      ],
      "transaction": {
        "from": "0xc77f7fed3b5cc8249adc428c5f44c9063b9734b4",
        "to": "0xbf4a322f1496e5c3d34a9bcdb4c60567b38c7de2",
        "gas": "0x1b309",
        "value": "0xde0b6b3a7640000",
        "input": "0xf088d547000000000000000000000000c77f7fed3b5cc8249adc428c5f44c9063b9734b4",
        "nonce": "0xdfe",
        "chainId": "0xaa36a7"
      },
      "additionalContracts": [],
      "isFixedGasLimit": false
    }
  ],
  "receipts": [
    {
      "status": "0x1",
      "cumulativeGasUsed": "0xdeea06",
      "logs": [
        {
          "address": "0xbf4a322f1496e5c3d34a9bcdb4c60567b38c7de2",
          "topics": [
            "0xddf252ad1be2c89b69c2b068fc378daa952ba7f163c4a11628f55a4df523b3ef",
            "0x0000000000000000000000000000000000000000000000000000000000000000",
            "0x000000000000000000000000c77f7fed3b5cc8249adc428c5f44c9063b9734b4"
          ],
          "data": "0x0000000000000000000000000000000000000000000000349d3942b0273e461e",
          "blockHash": "0x89c86e8aaa657aaa5c3155122356a27092ea2fac4ef357d4c35f80c9e1525ab9",
          "blockNumber": "0x7266e5",
          "transactionHash": "0x81ad87725210e5eea352dd3c7ff6283c2da55d65b35d697534c270e4cf2472fc",
          "transactionIndex": "0x56",
          "logIndex": "0x81",
          "removed": false
        },
        {
          "address": "0xbf4a322f1496e5c3d34a9bcdb4c60567b38c7de2",
          "topics": [
            "0xddf252ad1be2c89b69c2b068fc378daa952ba7f163c4a11628f55a4df523b3ef",
            "0x0000000000000000000000000000000000000000000000000000000000000000",
            "0x000000000000000000000000c77f7fed3b5cc8249adc428c5f44c9063b9734b4"
          ],
          "data": "0x00000000000000000000000000000000000000000000000028db4fc613ac1321",
          "blockHash": "0x89c86e8aaa657aaa5c3155122356a27092ea2fac4ef357d4c35f80c9e1525ab9",
          "blockNumber": "0x7266e5",
          "transactionHash": "0x81ad87725210e5eea352dd3c7ff6283c2da55d65b35d697534c270e4cf2472fc",
          "transactionIndex": "0x56",
          "logIndex": "0x82",
          "removed": false
        },
        {
          "address": "0xbf4a322f1496e5c3d34a9bcdb4c60567b38c7de2",
          "topics": [
            "0x4afcb4a87cdbd9974efdb92ee48bc8d7cd0ae4bf217004db3d080cbaee652ca7"
          ],
          "data": "0x000000000000000000000000000000000000000000000000000000006787c5fc00000000000000000000000000000000000000000000000000039fb887b4ba250000000000000000000000000000000000000000000000000de0b6b3a7640000",
          "blockHash": "0x89c86e8aaa657aaa5c3155122356a27092ea2fac4ef357d4c35f80c9e1525ab9",
          "blockNumber": "0x7266e5",
          "transactionHash": "0x81ad87725210e5eea352dd3c7ff6283c2da55d65b35d697534c270e4cf2472fc",
          "transactionIndex": "0x56",
          "logIndex": "0x83",
          "removed": false
        }
      ],
      "logsBloom": "0x00000000000000000000000000000000000000000000000000000000000000000000000000000000000000000000000000000000000000004000000000000000000000000000000000000008000000000000001000000000000000000000000000000000020000000000000000000800020000000000000000000010000000000000000000000000000000000000000000000000000008000000010000000000000000000000000000000000000000004000000000000000000000000000000000000002000000800000000000001000000000000000080000000000000020000000000000000000000000000000000000000000000000000000000000000000",
      "type": "0x2",
      "transactionHash": "0x81ad87725210e5eea352dd3c7ff6283c2da55d65b35d697534c270e4cf2472fc",
      "transactionIndex": "0x56",
      "blockHash": "0x89c86e8aaa657aaa5c3155122356a27092ea2fac4ef357d4c35f80c9e1525ab9",
      "blockNumber": "0x7266e5",
      "gasUsed": "0x13af6",
      "effectiveGasPrice": "0x362bd9969",
      "from": "0xc77f7fed3b5cc8249adc428c5f44c9063b9734b4",
      "to": "0xbf4a322f1496e5c3d34a9bcdb4c60567b38c7de2",
      "contractAddress": null
    }
  ],
  "libraries": [],
  "pending": [],
  "returns": {},
  "timestamp": 1736951293,
  "chain": 11155111,
  "commit": "51a374b"
}