{
  "transactions": [
    {
      "hash": "0xb47f42b7065becce36480d47669c02e45b10e004b218dc8840dd4d4559db18fe",
      "transactionType": "CALL",
      "contractName": null,
      "contractAddress": "0x5eb9cc76c3506942c1c0ead70e877dd5e4f00cb0",
      "function": "buy(address)",
      "arguments": [
        "0xC77f7fed3b5Cc8249aDc428c5F44C9063B9734b4"
      ],
      "transaction": {
        "from": "0xc77f7fed3b5cc8249adc428c5f44c9063b9734b4",
        "to": "0x5eb9cc76c3506942c1c0ead70e877dd5e4f00cb0",
        "gas": "0x156c8",
        "value": "0xde0b6b3a7640000",
        "input": "0xf088d547000000000000000000000000c77f7fed3b5cc8249adc428c5f44c9063b9734b4",
        "nonce": "0x1ff",
        "chainId": "0xaa36a7"
      },
      "additionalContracts": [],
      "isFixedGasLimit": false
    }
  ],
  "receipts": [
    {
      "status": "0x1",
      "cumulativeGasUsed": "0x88eeb4",
      "logs": [
        {
          "address": "0x5eb9cc76c3506942c1c0ead70e877dd5e4f00cb0",
          "topics": [
            "0xddf252ad1be2c89b69c2b068fc378daa952ba7f163c4a11628f55a4df523b3ef",
            "0x0000000000000000000000000000000000000000000000000000000000000000",
            "0x000000000000000000000000c77f7fed3b5cc8249adc428c5f44c9063b9734b4"
          ],
          "data": "0x00000000000000000000000000000000000000000000003584bd6ad22bd91513",
          "blockHash": "0xf54f5d95040ec1405091b7309599669b8a61a8b2ca71a3155a7833551f0c420d",
          "blockNumber": "0x724b1a",
          "transactionHash": "0xb47f42b7065becce36480d47669c02e45b10e004b218dc8840dd4d4559db18fe",
          "transactionIndex": "0x4b",
          "logIndex": "0x74",
          "removed": false
        },
        {
          "address": "0x5eb9cc76c3506942c1c0ead70e877dd5e4f00cb0",
          "topics": [
            "0xddf252ad1be2c89b69c2b068fc378daa952ba7f163c4a11628f55a4df523b3ef",
            "0x0000000000000000000000000000000000000000000000000000000000000000",
            "0x000000000000000000000000c77f7fed3b5cc8249adc428c5f44c9063b9734b4"
          ],
          "data": "0x000000000000000000000000000000000000000000000000298f1784e3986aa2",
          "blockHash": "0xf54f5d95040ec1405091b7309599669b8a61a8b2ca71a3155a7833551f0c420d",
          "blockNumber": "0x724b1a",
          "transactionHash": "0xb47f42b7065becce36480d47669c02e45b10e004b218dc8840dd4d4559db18fe",
          "transactionIndex": "0x4b",
          "logIndex": "0x75",
          "removed": false
        },
        {
          "address": "0x5eb9cc76c3506942c1c0ead70e877dd5e4f00cb0",
          "topics": [
            "0x4afcb4a87cdbd9974efdb92ee48bc8d7cd0ae4bf217004db3d080cbaee652ca7"
          ],
          "data": "0x00000000000000000000000000000000000000000000000000000000678676e00000000000000000000000000000000000000000000000000003900908410bd10000000000000000000000000000000000000000000000000de0b6b3a7640000",
          "blockHash": "0xf54f5d95040ec1405091b7309599669b8a61a8b2ca71a3155a7833551f0c420d",
          "blockNumber": "0x724b1a",
          "transactionHash": "0xb47f42b7065becce36480d47669c02e45b10e004b218dc8840dd4d4559db18fe",
          "transactionIndex": "0x4b",
          "logIndex": "0x76",
          "removed": false
        }
      ],
      "logsBloom": "0x00000000000000000000000000000000000000000000000000000000000000000000000000000000000000000000000000000000000000004000000000000000000000000000000000000008000000000000000000000000000000000000000000000000020000000000000004000800020000000000000000000010000000000000000000000000000000000000000000000000000000000000010000000000000000000000000000000000000000004000000000000000000000000000020000000002000000800000008000000000000000000000080000000000000020000000000000000000000000000000000000000000000000000000000000000000",
      "type": "0x2",
      "transactionHash": "0xb47f42b7065becce36480d47669c02e45b10e004b218dc8840dd4d4559db18fe",
      "transactionIndex": "0x4b",
      "blockHash": "0xf54f5d95040ec1405091b7309599669b8a61a8b2ca71a3155a7833551f0c420d",
      "blockNumber": "0x724b1a",
      "gasUsed": "0xf82c",
      "effectiveGasPrice": "0x5916eded4",
      "from": "0xc77f7fed3b5cc8249adc428c5f44c9063b9734b4",
      "to": "0x5eb9cc76c3506942c1c0ead70e877dd5e4f00cb0",
      "contractAddress": null
    }
  ],
  "libraries": [],
  "pending": [],
  "returns": {},
  "timestamp": 1736865506,
  "chain": 11155111,
  "commit": "51a374b"
}