{
  "transactions": [
    {
      "hash": "0x9187d083b060a0ab672c0e2d48f0f3880fd5424858a79fff10675e32520b0c24",
      "transactionType": "CALL",
      "contractName": null,
      "contractAddress": "0xbf4a322f1496e5c3d34a9bcdb4c60567b38c7de2",
      "function": "buy(address)",
      "arguments": [
        "0xC77f7fed3b5Cc8249aDc428c5F44C9063B9734b4"
      ],
      "transaction": {
        "from": "0xc77f7fed3b5cc8249adc428c5f44c9063b9734b4",
        "to": "0xbf4a322f1496e5c3d34a9bcdb4c60567b38c7de2",
        "gas": "0x1b309",
        "value": "0xde0b6b3a7640000",
        "input": "0xf088d547000000000000000000000000c77f7fed3b5cc8249adc428c5f44c9063b9734b4",
        "nonce": "0xb12",
        "chainId": "0xaa36a7"
      },
      "additionalContracts": [],
      "isFixedGasLimit": false
    }
  ],
  "receipts": [
    {
      "status": "0x1",
      "cumulativeGasUsed": "0xaf73ef",
      "logs": [
        {
          "address": "0xbf4a322f1496e5c3d34a9bcdb4c60567b38c7de2",
          "topics": [
            "0xddf252ad1be2c89b69c2b068fc378daa952ba7f163c4a11628f55a4df523b3ef",
            "0x0000000000000000000000000000000000000000000000000000000000000000",
            "0x000000000000000000000000c77f7fed3b5cc8249adc428c5f44c9063b9734b4"
          ],
          "data": "0x00000000000000000000000000000000000000000000003527c07fd603fce4c2",
          "blockHash": "0x0213418bb1941cbfe02f4d785b4ebcb6b39780c1720da120109a8f7dc970fb90",
          "blockNumber": "0x725b09",
          "transactionHash": "0x9187d083b060a0ab672c0e2d48f0f3880fd5424858a79fff10675e32520b0c24",
          "transactionIndex": "0x48",
          "logIndex": "0x6d",
          "removed": false
        },
        {
          "address": "0xbf4a322f1496e5c3d34a9bcdb4c60567b38c7de2",
          "topics": [
            "0xddf252ad1be2c89b69c2b068fc378daa952ba7f163c4a11628f55a4df523b3ef",
            "0x0000000000000000000000000000000000000000000000000000000000000000",
            "0x000000000000000000000000c77f7fed3b5cc8249adc428c5f44c9063b9734b4"
          ],
          "data": "0x0000000000000000000000000000000000000000000000002946e230383bb0c5",
          "blockHash": "0x0213418bb1941cbfe02f4d785b4ebcb6b39780c1720da120109a8f7dc970fb90",
          "blockNumber": "0x725b09",
          "transactionHash": "0x9187d083b060a0ab672c0e2d48f0f3880fd5424858a79fff10675e32520b0c24",
          "transactionIndex": "0x48",
          "logIndex": "0x6e",
          "removed": false
        },
        {
          "address": "0xbf4a322f1496e5c3d34a9bcdb4c60567b38c7de2",
          "topics": [
            "0x4afcb4a87cdbd9974efdb92ee48bc8d7cd0ae4bf217004db3d080cbaee652ca7"
          ],
          "data": "0x00000000000000000000000000000000000000000000000000000000678736c800000000000000000000000000000000000000000000000000039646d0b916ff0000000000000000000000000000000000000000000000000de0b6b3a7640000",
          "blockHash": "0x0213418bb1941cbfe02f4d785b4ebcb6b39780c1720da120109a8f7dc970fb90",
          "blockNumber": "0x725b09",
          "transactionHash": "0x9187d083b060a0ab672c0e2d48f0f3880fd5424858a79fff10675e32520b0c24",
          "transactionIndex": "0x48",
          "logIndex": "0x6f",
          "removed": false
        }
      ],
      "logsBloom": "0x00000000000000000000000000000000000000000000000000000000000000000000000000000000000000000000000000000000000000004000000000000000000000000000000000000008000000000000001000000000000000000000000000000000020000000000000000000800020000000000000000000010000000000000000000000000000000000000000000000000000008000000010000000000000000000000000000000000000000004000000000000000000000000000000000000002000000800000000000001000000000000000080000000000000020000000000000000000000000000000000000000000000000000000000000000000",
      "type": "0x2",
      "transactionHash": "0x9187d083b060a0ab672c0e2d48f0f3880fd5424858a79fff10675e32520b0c24",
      "transactionIndex": "0x48",
      "blockHash": "0x0213418bb1941cbfe02f4d785b4ebcb6b39780c1720da120109a8f7dc970fb90",
      "blockNumber": "0x725b09",
      "gasUsed": "0x13af6",
      "effectiveGasPrice": "0x8efcd8cc",
      "from": "0xc77f7fed3b5cc8249adc428c5f44c9063b9734b4",
      "to": "0xbf4a322f1496e5c3d34a9bcdb4c60567b38c7de2",
      "contractAddress": null
    }
  ],
  "libraries": [],
  "pending": [],
  "returns": {},
  "timestamp": 1736914632,
  "chain": 11155111,
  "commit": "51a374b"
}