{
  "transactions": [
    {
      "hash": "0xb1e4c5652f6c8fcbb8fd27abfaa0638aa9bb2507eda1a9fa3ded6057c514374d",
      "transactionType": "CALL",
      "contractName": null,
      "contractAddress": "0x5eb9cc76c3506942c1c0ead70e877dd5e4f00cb0",
      "function": "buy(address)",
      "arguments": [
        "0xC77f7fed3b5Cc8249aDc428c5F44C9063B9734b4"
      ],
      "transaction": {
        "from": "0xc77f7fed3b5cc8249adc428c5f44c9063b9734b4",
        "to": "0x5eb9cc76c3506942c1c0ead70e877dd5e4f00cb0",
        "gas": "0x156c8",
        "value": "0xde0b6b3a7640000",
        "input": "0xf088d547000000000000000000000000c77f7fed3b5cc8249adc428c5f44c9063b9734b4",
        "nonce": "0x187",
        "chainId": "0xaa36a7"
      },
      "additionalContracts": [],
      "isFixedGasLimit": false
    }
  ],
  "receipts": [
    {
      "status": "0x1",
      "cumulativeGasUsed": "0x927bd1",
      "logs": [
        {
          "address": "0x5eb9cc76c3506942c1c0ead70e877dd5e4f00cb0",
          "topics": [
            "0xddf252ad1be2c89b69c2b068fc378daa952ba7f163c4a11628f55a4df523b3ef",
            "0x0000000000000000000000000000000000000000000000000000000000000000",
            "0x000000000000000000000000c77f7fed3b5cc8249adc428c5f44c9063b9734b4"
          ],
          "data": "0x000000000000000000000000000000000000000000000035a3836251c758ffaf",
          "blockHash": "0x3957979e3a59e8b3ec0617dee46de481aa6f2802d4f6ded0a1d409f451f05f9e",
          "blockNumber": "0x723c6b",
          "transactionHash": "0xb1e4c5652f6c8fcbb8fd27abfaa0638aa9bb2507eda1a9fa3ded6057c514374d",
          "transactionIndex": "0x52",
          "logIndex": "0x66",
          "removed": false
        },
        {
          "address": "0x5eb9cc76c3506942c1c0ead70e877dd5e4f00cb0",
          "topics": [
            "0xddf252ad1be2c89b69c2b068fc378daa952ba7f163c4a11628f55a4df523b3ef",
            "0x0000000000000000000000000000000000000000000000000000000000000000",
            "0x000000000000000000000000c77f7fed3b5cc8249adc428c5f44c9063b9734b4"
          ],
          "data": "0x00000000000000000000000000000000000000000000000029a6fd076e563383",
          "blockHash": "0x3957979e3a59e8b3ec0617dee46de481aa6f2802d4f6ded0a1d409f451f05f9e",
          "blockNumber": "0x723c6b",
          "transactionHash": "0xb1e4c5652f6c8fcbb8fd27abfaa0638aa9bb2507eda1a9fa3ded6057c514374d",
          "transactionIndex": "0x52",
          "logIndex": "0x67",
          "removed": false
        },
        {
          "address": "0x5eb9cc76c3506942c1c0ead70e877dd5e4f00cb0",
          "topics": [
            "0x4afcb4a87cdbd9974efdb92ee48bc8d7cd0ae4bf217004db3d080cbaee652ca7"
          ],
          "data": "0x000000000000000000000000000000000000000000000000000000006785c65800000000000000000000000000000000000000000000000000038dfdc8d7ca250000000000000000000000000000000000000000000000000de0b6b3a7640000",
          "blockHash": "0x3957979e3a59e8b3ec0617dee46de481aa6f2802d4f6ded0a1d409f451f05f9e",
          "blockNumber": "0x723c6b",
          "transactionHash": "0xb1e4c5652f6c8fcbb8fd27abfaa0638aa9bb2507eda1a9fa3ded6057c514374d",
          "transactionIndex": "0x52",
          "logIndex": "0x68",
          "removed": false
        }
      ],
      "logsBloom": "0x00000000000000000000000000000000000000000000000000000000000000000000000000000000000000000000000000000000000000004000000000000000000000000000000000000008000000000000000000000000000000000000000000000000020000000000000004000800020000000000000000000010000000000000000000000000000000000000000000000000000000000000010000000000000000000000000000000000000000004000000000000000000000000000020000000002000000800000008000000000000000000000080000000000000020000000000000000000000000000000000000000000000000000000000000000000",
      "type": "0x2",
      "transactionHash": "0xb1e4c5652f6c8fcbb8fd27abfaa0638aa9bb2507eda1a9fa3ded6057c514374d",
      "transactionIndex": "0x52",
      "blockHash": "0x3957979e3a59e8b3ec0617dee46de481aa6f2802d4f6ded0a1d409f451f05f9e",
      "blockNumber": "0x723c6b",
      "gasUsed": "0xf82c",
      "effectiveGasPrice": "0x193644156",
      "from": "0xc77f7fed3b5cc8249adc428c5f44c9063b9734b4",
      "to": "0x5eb9cc76c3506942c1c0ead70e877dd5e4f00cb0",
      "contractAddress": null
    }
  ],
  "libraries": [],
  "pending": [],
  "returns": {},
  "timestamp": 1736820314,
  "chain": 11155111,
  "commit": "51a374b"
}