{
  "transactions": [
    {
      "hash": "0xca0c5bc801e53b7f4e47c6734e6887a6f043c86938b46ca137f4bfb6d4013448",
      "transactionType": "CALL",
      "contractName": null,
      "contractAddress": "0x8aafd3ede9adb0ff97c7aebce82a919afb1c8764",
      "function": "buy(address)",
      "arguments": [
        "0xC77f7fed3b5Cc8249aDc428c5F44C9063B9734b4"
      ],
      "transaction": {
        "from": "0xc77f7fed3b5cc8249adc428c5f44c9063b9734b4",
        "to": "0x8aafd3ede9adb0ff97c7aebce82a919afb1c8764",
        "gas": "0x156ea",
        "value": "0xde0b6b3a7640000",
        "input": "0xf088d547000000000000000000000000c77f7fed3b5cc8249adc428c5f44c9063b9734b4",
        "nonce": "0x16a5",
        "chainId": "0xaa36a7"
      },
      "additionalContracts": [],
      "isFixedGasLimit": false
    }
  ],
  "receipts": [
    {
      "status": "0x1",
      "cumulativeGasUsed": "0x11779ee",
      "logs": [
        {
          "address": "0x8aafd3ede9adb0ff97c7aebce82a919afb1c8764",
          "topics": [
            "0xddf252ad1be2c89b69c2b068fc378daa952ba7f163c4a11628f55a4df523b3ef",
            "0x0000000000000000000000000000000000000000000000000000000000000000",
            "0x000000000000000000000000c77f7fed3b5cc8249adc428c5f44c9063b9734b4"
          ],
          "data": "0x000000000000000000000000000000000000000000000008b45de4b803990d9b",
          "blockHash": "0x224fc37d3d13a9c1ac064714cfab98435da49d8e85875c4313a0a265a0ee0720",
          "blockNumber": "0x731e5c",
          "transactionHash": "0xca0c5bc801e53b7f4e47c6734e6887a6f043c86938b46ca137f4bfb6d4013448",
          "transactionIndex": "0x68",
          "logIndex": "0xcc",
          "removed": false
        },
        {
          "address": "0x8aafd3ede9adb0ff97c7aebce82a919afb1c8764",
          "topics": [
            "0xddf252ad1be2c89b69c2b068fc378daa952ba7f163c4a11628f55a4df523b3ef",
            "0x0000000000000000000000000000000000000000000000000000000000000000",
            "0x000000000000000000000000c77f7fed3b5cc8249adc428c5f44c9063b9734b4"
          ],
          "data": "0x00000000000000000000000000000000000000000000000006c2671e5e8bd231",
          "blockHash": "0x224fc37d3d13a9c1ac064714cfab98435da49d8e85875c4313a0a265a0ee0720",
          "blockNumber": "0x731e5c",
          "transactionHash": "0xca0c5bc801e53b7f4e47c6734e6887a6f043c86938b46ca137f4bfb6d4013448",
          "transactionIndex": "0x68",
          "logIndex": "0xcd",
          "removed": false
        },
        {
          "address": "0x8aafd3ede9adb0ff97c7aebce82a919afb1c8764",
          "topics": [
            "0x4afcb4a87cdbd9974efdb92ee48bc8d7cd0ae4bf217004db3d080cbaee652ca7"
          ],
          "data": "0x00000000000000000000000000000000000000000000000000000000679069380000000000000000000000000000000000000000000000000015ee51a4c218c90000000000000000000000000000000000000000000000000de0b6b3a7640000",
          "blockHash": "0x224fc37d3d13a9c1ac064714cfab98435da49d8e85875c4313a0a265a0ee0720",
          "blockNumber": "0x731e5c",
          "transactionHash": "0xca0c5bc801e53b7f4e47c6734e6887a6f043c86938b46ca137f4bfb6d4013448",
          "transactionIndex": "0x68",
          "logIndex": "0xce",
          "removed": false
        }
      ],
      "logsBloom": "0x00000000000000000000000000000000000000000600000000000000000000000000000000000000000000000000000000000000000000004000000000000000000000000000004000000008000000000000000000000000000000000000000000000000020000000000000000000800020000000000000000000010000000000000000000000000000000000000000000000000000000000000010000000000000000000000000000000000000000004000000000000000000000000000000000000002000000800000000000000000000000000000080000000000000020000000000000000000000000000000000000000000000000000000000000000000",
      "type": "0x2",
      "transactionHash": "0xca0c5bc801e53b7f4e47c6734e6887a6f043c86938b46ca137f4bfb6d4013448",
      "transactionIndex": "0x68",
      "blockHash": "0x224fc37d3d13a9c1ac064714cfab98435da49d8e85875c4313a0a265a0ee0720",
      "blockNumber": "0x731e5c",
      "gasUsed": "0xf844",
      "effectiveGasPrice": "0x4903dd01",
      "from": "0xc77f7fed3b5cc8249adc428c5f44c9063b9734b4",
      "to": "0x8aafd3ede9adb0ff97c7aebce82a919afb1c8764",
      "contractAddress": null
    }
  ],
  "libraries": [],
  "pending": [],
  "returns": {},
  "timestamp": 1737517370,
  "chain": 11155111,
  "commit": "1d2fb70"
}