{
  "transactions": [
    {
      "hash": "0xc86f1e3b85e70c348c5022f675d28efbb2fdc381e8796a431cbb4c82479c3cac",
      "transactionType": "CALL",
      "contractName": null,
      "contractAddress": "0x5eb9cc76c3506942c1c0ead70e877dd5e4f00cb0",
      "function": "sell(uint256)",
      "arguments": [
        "989083426608332189781"
      ],
      "transaction": {
        "from": "0xc77f7fed3b5cc8249adc428c5f44c9063b9734b4",
        "to": "0x5eb9cc76c3506942c1c0ead70e877dd5e4f00cb0",
        "gas": "0x16fec",
        "value": "0x0",
        "input": "0xe4849b320000000000000000000000000000000000000000000000359e4a381c97c8b055",
        "nonce": "0x469",
        "chainId": "0xaa36a7"
      },
      "additionalContracts": [],
      "isFixedGasLimit": false
    }
  ],
  "receipts": [
    {
      "status": "0x1",
      "cumulativeGasUsed": "0xc4c758",
      "logs": [
        {
          "address": "0x5eb9cc76c3506942c1c0ead70e877dd5e4f00cb0",
          "topics": [
            "0xddf252ad1be2c89b69c2b068fc378daa952ba7f163c4a11628f55a4df523b3ef",
            "0x000000000000000000000000c77f7fed3b5cc8249adc428c5f44c9063b9734b4",
            "0x0000000000000000000000000000000000000000000000000000000000000000"
          ],
          "data": "0x0000000000000000000000000000000000000000000000359e4a381c97c8b055",
          "blockHash": "0xbaf2a6af201e15d84b2caad4aa8e63ffc46eb339d0689be342190b449fed3361",
          "blockNumber": "0x725091",
          "transactionHash": "0xc86f1e3b85e70c348c5022f675d28efbb2fdc381e8796a431cbb4c82479c3cac",
          "transactionIndex": "0x64",
          "logIndex": "0xe0",
          "removed": false
        },
        {
          "address": "0x5eb9cc76c3506942c1c0ead70e877dd5e4f00cb0",
          "topics": [
            "0x4afcb4a87cdbd9974efdb92ee48bc8d7cd0ae4bf217004db3d080cbaee652ca7"
          ],
          "data": "0x000000000000000000000000000000000000000000000000000000006786b89800000000000000000000000000000000000000000000000000039119638c601c0000000000000000000000000000000000000000000000000dc7db1331c9f546",
          "blockHash": "0xbaf2a6af201e15d84b2caad4aa8e63ffc46eb339d0689be342190b449fed3361",
          "blockNumber": "0x725091",
          "transactionHash": "0xc86f1e3b85e70c348c5022f675d28efbb2fdc381e8796a431cbb4c82479c3cac",
          "transactionIndex": "0x64",
          "logIndex": "0xe1",
          "removed": false
        }
      ],
      "logsBloom": "0x00000000000000000000000000000000000000000000000000000000000000000000000000000000000000000000000000000000000000004000000000000000000000000000000000000008000000000000000000000000000000000000000000000000020000000000000004000800020000000000000000000010000000000000000000000000000000000000000000000000000000000000010000000000000000000000000000000000000000004000000000000000000000000000020000000002000000800000008000000000000000000000080000000000000020000000000000000000000000000000000000000000000000000000000000000000",
      "type": "0x2",
      "transactionHash": "0xc86f1e3b85e70c348c5022f675d28efbb2fdc381e8796a431cbb4c82479c3cac",
      "transactionIndex": "0x64",
      "blockHash": "0xbaf2a6af201e15d84b2caad4aa8e63ffc46eb339d0689be342190b449fed3361",
      "blockNumber": "0x725091",
      "gasUsed": "0xfb93",
      "effectiveGasPrice": "0x1d5bb7df0",
      "from": "0xc77f7fed3b5cc8249adc428c5f44c9063b9734b4",
      "to": "0x5eb9cc76c3506942c1c0ead70e877dd5e4f00cb0",
      "contractAddress": null
    }
  ],
  "libraries": [],
  "pending": [],
  "returns": {},
  "timestamp": 1736882329,
  "chain": 11155111,
  "commit": "51a374b"
}