{
  "transactions": [
    {
      "hash": "0x291931ad9bc663b1c90df75fb43495bb59751736f6cd17880f6fcdffe2fa620a",
      "transactionType": "CALL",
      "contractName": null,
      "contractAddress": "0x270e88f8683660553e8ba4eb2ad7c91a1710d769",
      "function": "sell(uint256)",
      "arguments": [
        "965668178333837414084"
      ],
      "transaction": {
        "from": "0xc77f7fed3b5cc8249adc428c5f44c9063b9734b4",
        "to": "0x270e88f8683660553e8ba4eb2ad7c91a1710d769",
        "gas": "0x16fec",
        "value": "0x0",
        "input": "0xe4849b3200000000000000000000000000000000000000000000003459568bdd86f1cec4",
        "nonce": "0x585",
        "chainId": "0xaa36a7"
      },
      "additionalContracts": [],
      "isFixedGasLimit": false
    }
  ],
  "receipts": [
    {
      "status": "0x1",
      "cumulativeGasUsed": "0x12c1d02",
      "logs": [
        {
          "address": "0x270e88f8683660553e8ba4eb2ad7c91a1710d769",
          "topics": [
            "0xddf252ad1be2c89b69c2b068fc378daa952ba7f163c4a11628f55a4df523b3ef",
            "0x000000000000000000000000c77f7fed3b5cc8249adc428c5f44c9063b9734b4",
            "0x0000000000000000000000000000000000000000000000000000000000000000"
          ],
          "data": "0x00000000000000000000000000000000000000000000003459568bdd86f1cec4",
          "blockHash": "0xcbdc7671e05772b39680592de34df4fe720c15ca012218e601e1503cdbcb0b25",
          "blockNumber": "0x725233",
          "transactionHash": "0x291931ad9bc663b1c90df75fb43495bb59751736f6cd17880f6fcdffe2fa620a",
          "transactionIndex": "0x4c",
          "logIndex": "0x8b",
          "removed": false
        },
        {
          "address": "0x270e88f8683660553e8ba4eb2ad7c91a1710d769",
          "topics": [
            "0x4afcb4a87cdbd9974efdb92ee48bc8d7cd0ae4bf217004db3d080cbaee652ca7"
          ],
          "data": "0x000000000000000000000000000000000000000000000000000000006786cc540000000000000000000000000000000000000000000000000003a788311c8a9f0000000000000000000000000000000000000000000000000dc83fc4c7130427",
          "blockHash": "0xcbdc7671e05772b39680592de34df4fe720c15ca012218e601e1503cdbcb0b25",
          "blockNumber": "0x725233",
          "transactionHash": "0x291931ad9bc663b1c90df75fb43495bb59751736f6cd17880f6fcdffe2fa620a",
          "transactionIndex": "0x4c",
          "logIndex": "0x8c",
          "removed": false
        }
      ],
      "logsBloom": "0x00000000000000000000000000000000000000000000000000000000000000000000000000000000000000000000000020000000000000004000000000000000000000000000000000000008000000000000000000000000000000000000000000000000020000000000000000000800020000000000000000000010000000000000000000010000000000000000000000000000000000000000010000000000000000000000000000000000000000004000000000000000000000000000000000000002000000800000000000000000000000000000080000008000000020000000000000000000000000000000000000000000000000000000000000000000",
      "type": "0x2",
      "transactionHash": "0x291931ad9bc663b1c90df75fb43495bb59751736f6cd17880f6fcdffe2fa620a",
      "transactionIndex": "0x4c",
      "blockHash": "0xcbdc7671e05772b39680592de34df4fe720c15ca012218e601e1503cdbcb0b25",
      "blockNumber": "0x725233",
      "gasUsed": "0xfb93",
      "effectiveGasPrice": "0x3b56d0ca4",
      "from": "0xc77f7fed3b5cc8249adc428c5f44c9063b9734b4",
      "to": "0x270e88f8683660553e8ba4eb2ad7c91a1710d769",
      "contractAddress": null
    }
  ],
  "libraries": [],
  "pending": [],
  "returns": {},
  "timestamp": 1736887381,
  "chain": 11155111,
  "commit": "51a374b"
}