{
  "transactions": [
    {
      "hash": "0x37c999ae0b680d1c36580d1d052fafe6e2c876df84b42d028465ea76c9536551",
      "transactionType": "CALL",
      "contractName": null,
      "contractAddress": "0xbf4a322f1496e5c3d34a9bcdb4c60567b38c7de2",
      "function": "buy(address)",
      "arguments": [
        "0xC77f7fed3b5Cc8249aDc428c5F44C9063B9734b4"
      ],
      "transaction": {
        "from": "0xc77f7fed3b5cc8249adc428c5f44c9063b9734b4",
        "to": "0xbf4a322f1496e5c3d34a9bcdb4c60567b38c7de2",
        "gas": "0x1b309",
        "value": "0xde0b6b3a7640000",
        "input": "0xf088d547000000000000000000000000c77f7fed3b5cc8249adc428c5f44c9063b9734b4",
        "nonce": "0x8ee",
        "chainId": "0xaa36a7"
      },
      "additionalContracts": [],
      "isFixedGasLimit": false
    }
  ],
  "receipts": [
    {
      "status": "0x1",
      "cumulativeGasUsed": "0x10b2e6f",
      "logs": [
        {
          "address": "0xbf4a322f1496e5c3d34a9bcdb4c60567b38c7de2",
          "topics": [
            "0xddf252ad1be2c89b69c2b068fc378daa952ba7f163c4a11628f55a4df523b3ef",
            "0x0000000000000000000000000000000000000000000000000000000000000000",
            "0x000000000000000000000000c77f7fed3b5cc8249adc428c5f44c9063b9734b4"
          ],
          "data": "0x0000000000000000000000000000000000000000000000358f0ff591c99a5fa7",
          "blockHash": "0x4b5e7c6cc302a82dc1aa9e95b8eba443a99d03720362496b2c5a0335c983983b",
          "blockNumber": "0x725865",
          "transactionHash": "0x37c999ae0b680d1c36580d1d052fafe6e2c876df84b42d028465ea76c9536551",
          "transactionIndex": "0x57",
          "logIndex": "0x9a",
          "removed": false
        },
        {
          "address": "0xbf4a322f1496e5c3d34a9bcdb4c60567b38c7de2",
          "topics": [
            "0xddf252ad1be2c89b69c2b068fc378daa952ba7f163c4a11628f55a4df523b3ef",
            "0x0000000000000000000000000000000000000000000000000000000000000000",
            "0x000000000000000000000000c77f7fed3b5cc8249adc428c5f44c9063b9734b4"
          ],
          "data": "0x00000000000000000000000000000000000000000000000029971b8b07bf74f2",
          "blockHash": "0x4b5e7c6cc302a82dc1aa9e95b8eba443a99d03720362496b2c5a0335c983983b",
          "blockNumber": "0x725865",
          "transactionHash": "0x37c999ae0b680d1c36580d1d052fafe6e2c876df84b42d028465ea76c9536551",
          "transactionIndex": "0x57",
          "logIndex": "0x9b",
          "removed": false
        },
        {
          "address": "0xbf4a322f1496e5c3d34a9bcdb4c60567b38c7de2",
          "topics": [
            "0x4afcb4a87cdbd9974efdb92ee48bc8d7cd0ae4bf217004db3d080cbaee652ca7"
          ],
          "data": "0x00000000000000000000000000000000000000000000000000000000678716e800000000000000000000000000000000000000000000000000038f5b8e64adf30000000000000000000000000000000000000000000000000de0b6b3a7640000",
          "blockHash": "0x4b5e7c6cc302a82dc1aa9e95b8eba443a99d03720362496b2c5a0335c983983b",
          "blockNumber": "0x725865",
          "transactionHash": "0x37c999ae0b680d1c36580d1d052fafe6e2c876df84b42d028465ea76c9536551",
          "transactionIndex": "0x57",
          "logIndex": "0x9c",
          "removed": false
        }
      ],
      "logsBloom": "0x00000000000000000000000000000000000000000000000000000000000000000000000000000000000000000000000000000000000000004000000000000000000000000000000000000008000000000000001000000000000000000000000000000000020000000000000000000800020000000000000000000010000000000000000000000000000000000000000000000000000008000000010000000000000000000000000000000000000000004000000000000000000000000000000000000002000000800000000000001000000000000000080000000000000020000000000000000000000000000000000000000000000000000000000000000000",
      "type": "0x2",
      "transactionHash": "0x37c999ae0b680d1c36580d1d052fafe6e2c876df84b42d028465ea76c9536551",
      "transactionIndex": "0x57",
      "blockHash": "0x4b5e7c6cc302a82dc1aa9e95b8eba443a99d03720362496b2c5a0335c983983b",
      "blockNumber": "0x725865",
      "gasUsed": "0x13af6",
      "effectiveGasPrice": "0x247ccb64",
      "from": "0xc77f7fed3b5cc8249adc428c5f44c9063b9734b4",
      "to": "0xbf4a322f1496e5c3d34a9bcdb4c60567b38c7de2",
      "contractAddress": null
    }
  ],
  "libraries": [],
  "pending": [],
  "returns": {},
  "timestamp": 1736906473,
  "chain": 11155111,
  "commit": "51a374b"
}