{
  "transactions": [
    {
      "hash": "0xcf0f9cf674608163c0cb8eddbbcc6b757a1c19b6ebdfb23e3576cc1b9aee9b42",
      "transactionType": "CALL",
      "contractName": null,
      "contractAddress": "0x8aafd3ede9adb0ff97c7aebce82a919afb1c8764",
      "function": "sell(uint256)",
      "arguments": [
        "24460474364"
      ],
      "transaction": {
        "from": "0xc77f7fed3b5cc8249adc428c5f44c9063b9734b4",
        "to": "0x8aafd3ede9adb0ff97c7aebce82a919afb1c8764",
        "gas": "0x1722a",
        "value": "0x0",
        "input": "0xe4849b3200000000000000000000000000000000000000000000000000000005b1f537fc",
        "nonce": "0xee7",
        "chainId": "0xaa36a7"
      },
      "additionalContracts": [],
      "isFixedGasLimit": false
    }
  ],
  "receipts": [
    {
      "status": "0x1",
      "cumulativeGasUsed": "0x126b891",
      "logs": [
        {
          "address": "0x8aafd3ede9adb0ff97c7aebce82a919afb1c8764",
          "topics": [
            "0xddf252ad1be2c89b69c2b068fc378daa952ba7f163c4a11628f55a4df523b3ef",
            "0x000000000000000000000000c77f7fed3b5cc8249adc428c5f44c9063b9734b4",
            "0x0000000000000000000000000000000000000000000000000000000000000000"
          ],
          "data": "0x00000000000000000000000000000000000000000000000000000005a64b522a",
          "blockHash": "0xaf1b0e98851b3de22134500d77f70c89ff9490ca041b84de022aeceda87d9609",
          "blockNumber": "0x73145e",
          "transactionHash": "0xcf0f9cf674608163c0cb8eddbbcc6b757a1c19b6ebdfb23e3576cc1b9aee9b42",
          "transactionIndex": "0x9f",
          "logIndex": "0x115",
          "removed": false
        },
        {
          "address": "0x8aafd3ede9adb0ff97c7aebce82a919afb1c8764",
          "topics": [
            "0xddf252ad1be2c89b69c2b068fc378daa952ba7f163c4a11628f55a4df523b3ef",
            "0x000000000000000000000000c77f7fed3b5cc8249adc428c5f44c9063b9734b4",
            "0x000000000000000000000000c77f7fed3b5cc8249adc428c5f44c9063b9734b4"
          ],
          "data": "0x000000000000000000000000000000000000000000000000000000000ba9e5d2",
          "blockHash": "0xaf1b0e98851b3de22134500d77f70c89ff9490ca041b84de022aeceda87d9609",
          "blockNumber": "0x73145e",
          "transactionHash": "0xcf0f9cf674608163c0cb8eddbbcc6b757a1c19b6ebdfb23e3576cc1b9aee9b42",
          "transactionIndex": "0x9f",
          "logIndex": "0x116",
          "removed": false
        },
        {
          "address": "0x8aafd3ede9adb0ff97c7aebce82a919afb1c8764",
          "topics": [
            "0x4afcb4a87cdbd9974efdb92ee48bc8d7cd0ae4bf217004db3d080cbaee652ca7"
          ],
          "data": "0x00000000000000000000000000000000000000000000000000000000678ff1140000000000000000000000000000000000000000000000000004ba47104e41a80000000000000000000000000000000000000000000000000000000001f0ac0e",
          "blockHash": "0xaf1b0e98851b3de22134500d77f70c89ff9490ca041b84de022aeceda87d9609",
          "blockNumber": "0x73145e",
          "transactionHash": "0xcf0f9cf674608163c0cb8eddbbcc6b757a1c19b6ebdfb23e3576cc1b9aee9b42",
          "transactionIndex": "0x9f",
          "logIndex": "0x117",
          "removed": false
        }
      ],
      "logsBloom": "0x00000000000000000000000000000000000000000600000000000000000000000000000000000000000000000000000000000000000000004000000000000000000000000000004000000008000000000000000000000000000000000000000000000000020000000000000000000800020000000000000000000010000000000000000000000000000000000000000000000000000000000000010000000000000000000000000000000000000000004000000000000000000000000000000000000002000000800000000000000000000000000000080000000000000020000000000000000000000000000000000000000000000000000000000000000000",
      "type": "0x2",
      "transactionHash": "0xcf0f9cf674608163c0cb8eddbbcc6b757a1c19b6ebdfb23e3576cc1b9aee9b42",
      "transactionIndex": "0x9f",
      "blockHash": "0xaf1b0e98851b3de22134500d77f70c89ff9490ca041b84de022aeceda87d9609",
      "blockNumber": "0x73145e",
      "gasUsed": "0xfd1b",
      "effectiveGasPrice": "0xbf032c48",
      "from": "0xc77f7fed3b5cc8249adc428c5f44c9063b9734b4",
      "to": "0x8aafd3ede9adb0ff97c7aebce82a919afb1c8764",
      "contractAddress": null
    }
  ],
  "libraries": [],
  "pending": [],
  "returns": {},
  "timestamp": 1737486613,
  "chain": 11155111,
  "commit": "51a374b"
}