{
  "transactions": [
    {
      "hash": "0x78c49655d277e0d0107bbed46957c952cbe0a493767990cd6fecc8e98998c55d",
      "transactionType": "CALL",
      "contractName": null,
      "contractAddress": "0x5eb9cc76c3506942c1c0ead70e877dd5e4f00cb0",
      "function": "buy(address)",
      "arguments": [
        "0xC77f7fed3b5Cc8249aDc428c5F44C9063B9734b4"
      ],
      "transaction": {
        "from": "0xc77f7fed3b5cc8249adc428c5f44c9063b9734b4",
        "to": "0x5eb9cc76c3506942c1c0ead70e877dd5e4f00cb0",
        "gas": "0x1b30c",
        "value": "0xde0b6b3a7640000",
        "input": "0xf088d547000000000000000000000000c77f7fed3b5cc8249adc428c5f44c9063b9734b4",
        "nonce": "0x2e4",
        "chainId": "0xaa36a7"
      },
      "additionalContracts": [],
      "isFixedGasLimit": false
    }
  ],
  "receipts": [
    {
      "status": "0x1",
      "cumulativeGasUsed": "0xb8f5b6",
      "logs": [
        {
          "address": "0x5eb9cc76c3506942c1c0ead70e877dd5e4f00cb0",
          "topics": [
            "0xddf252ad1be2c89b69c2b068fc378daa952ba7f163c4a11628f55a4df523b3ef",
            "0x0000000000000000000000000000000000000000000000000000000000000000",
            "0x000000000000000000000000c77f7fed3b5cc8249adc428c5f44c9063b9734b4"
          ],
          "data": "0x00000000000000000000000000000000000000000000003575a2863b7c6017b7",
          "blockHash": "0x2cb427ca2b0fd20a3bdf87379efaa2ff6c220ef30eeef87affab394fc81cc1ce",
          "blockNumber": "0x724ec1",
          "transactionHash": "0x78c49655d277e0d0107bbed46957c952cbe0a493767990cd6fecc8e98998c55d",
          "transactionIndex": "0x58",
          "logIndex": "0xbc",
          "removed": false
        },
        {
          "address": "0x5eb9cc76c3506942c1c0ead70e877dd5e4f00cb0",
          "topics": [
            "0xddf252ad1be2c89b69c2b068fc378daa952ba7f163c4a11628f55a4df523b3ef",
            "0x0000000000000000000000000000000000000000000000000000000000000000",
            "0x000000000000000000000000c77f7fed3b5cc8249adc428c5f44c9063b9734b4"
          ],
          "data": "0x00000000000000000000000000000000000000000000000029835cbeae069cca",
          "blockHash": "0x2cb427ca2b0fd20a3bdf87379efaa2ff6c220ef30eeef87affab394fc81cc1ce",
          "blockNumber": "0x724ec1",
          "transactionHash": "0x78c49655d277e0d0107bbed46957c952cbe0a493767990cd6fecc8e98998c55d",
          "transactionIndex": "0x58",
          "logIndex": "0xbd",
          "removed": false
        },
        {
          "address": "0x5eb9cc76c3506942c1c0ead70e877dd5e4f00cb0",
          "topics": [
            "0x4afcb4a87cdbd9974efdb92ee48bc8d7cd0ae4bf217004db3d080cbaee652ca7"
          ],
          "data": "0x000000000000000000000000000000000000000000000000000000006786a2c00000000000000000000000000000000000000000000000000003910aba99f1e70000000000000000000000000000000000000000000000000de0b6b3a7640000",
          "blockHash": "0x2cb427ca2b0fd20a3bdf87379efaa2ff6c220ef30eeef87affab394fc81cc1ce",
          "blockNumber": "0x724ec1",
          "transactionHash": "0x78c49655d277e0d0107bbed46957c952cbe0a493767990cd6fecc8e98998c55d",
          "transactionIndex": "0x58",
          "logIndex": "0xbe",
          "removed": false
        }
      ],
      "logsBloom": "0x00000000000000000000000000000000000000000000000000000000000000000000000000000000000000000000000000000000000000004000000000000000000000000000000000000008000000000000000000000000000000000000000000000000020000000000000004000800020000000000000000000010000000000000000000000000000000000000000000000000000000000000010000000000000000000000000000000000000000004000000000000000000000000000020000000002000000800000008000000000000000000000080000000000000020000000000000000000000000000000000000000000000000000000000000000000",
      "type": "0x2",
      "transactionHash": "0x78c49655d277e0d0107bbed46957c952cbe0a493767990cd6fecc8e98998c55d",
      "transactionIndex": "0x58",
      "blockHash": "0x2cb427ca2b0fd20a3bdf87379efaa2ff6c220ef30eeef87affab394fc81cc1ce",
      "blockNumber": "0x724ec1",
      "gasUsed": "0x13af8",
      "effectiveGasPrice": "0x49e07182c",
      "from": "0xc77f7fed3b5cc8249adc428c5f44c9063b9734b4",
      "to": "0x5eb9cc76c3506942c1c0ead70e877dd5e4f00cb0",
      "contractAddress": null
    }
  ],
  "libraries": [],
  "pending": [],
  "returns": {},
  "timestamp": 1736876737,
  "chain": 11155111,
  "commit": "51a374b"
}