{
  "transactions": [
    {
      "hash": "0xc27ce88027d1570d8e92184e7c49c5ff3a12a6f875e7ca00ffb57da6630b5ca4",
      "transactionType": "CALL",
      "contractName": null,
      "contractAddress": "0x8aafd3ede9adb0ff97c7aebce82a919afb1c8764",
      "function": "sell(uint256)",
      "arguments": [
        "5923096901548356438"
      ],
      "transaction": {
        "from": "0xc77f7fed3b5cc8249adc428c5f44c9063b9734b4",
        "to": "0x8aafd3ede9adb0ff97c7aebce82a919afb1c8764",
        "gas": "0x15dca",
        "value": "0x0",
        "input": "0xe4849b32000000000000000000000000000000000000000000000000523311400301b356",
        "nonce": "0xfb8",
        "chainId": "0xaa36a7"
      },
      "additionalContracts": [],
      "isFixedGasLimit": false
    }
  ],
  "receipts": [
    {
      "status": "0x1",
      "cumulativeGasUsed": "0xac0f21",
      "logs": [
        {
          "address": "0x8aafd3ede9adb0ff97c7aebce82a919afb1c8764",
          "topics": [
            "0xddf252ad1be2c89b69c2b068fc378daa952ba7f163c4a11628f55a4df523b3ef",
            "0x000000000000000000000000c77f7fed3b5cc8249adc428c5f44c9063b9734b4",
            "0x0000000000000000000000000000000000000000000000000000000000000000"
          ],
          "data": "0x000000000000000000000000000000000000000000000000518ab90c4cb5e933",
          "blockHash": "0x4d1476f4517a3a64b9aa505ca3940a0c916cb91eb263ea524c46b0e8770729a8",
          "blockNumber": "0x731623",
          "transactionHash": "0xc27ce88027d1570d8e92184e7c49c5ff3a12a6f875e7ca00ffb57da6630b5ca4",
          "transactionIndex": "0x74",
          "logIndex": "0xde",
          "removed": false
        },
        {
          "address": "0x8aafd3ede9adb0ff97c7aebce82a919afb1c8764",
          "topics": [
            "0xddf252ad1be2c89b69c2b068fc378daa952ba7f163c4a11628f55a4df523b3ef",
            "0x000000000000000000000000c77f7fed3b5cc8249adc428c5f44c9063b9734b4",
            "0x000000000000000000000000c77f7fed3b5cc8249adc428c5f44c9063b9734b4"
          ],
          "data": "0x00000000000000000000000000000000000000000000000000a85833b64bca23",
          "blockHash": "0x4d1476f4517a3a64b9aa505ca3940a0c916cb91eb263ea524c46b0e8770729a8",
          "blockNumber": "0x731623",
          "transactionHash": "0xc27ce88027d1570d8e92184e7c49c5ff3a12a6f875e7ca00ffb57da6630b5ca4",
          "transactionIndex": "0x74",
          "logIndex": "0xdf",
          "removed": false
        },
        {
          "address": "0x8aafd3ede9adb0ff97c7aebce82a919afb1c8764",
          "topics": [
            "0x4afcb4a87cdbd9974efdb92ee48bc8d7cd0ae4bf217004db3d080cbaee652ca7"
          ],
          "data": "0x00000000000000000000000000000000000000000000000000000000679006500000000000000000000000000000000000000000000000000004c423157a1d21000000000000000000000000000000000000000000000000001c3afa9fa28a84",
          "blockHash": "0x4d1476f4517a3a64b9aa505ca3940a0c916cb91eb263ea524c46b0e8770729a8",
          "blockNumber": "0x731623",
          "transactionHash": "0xc27ce88027d1570d8e92184e7c49c5ff3a12a6f875e7ca00ffb57da6630b5ca4",
          "transactionIndex": "0x74",
          "logIndex": "0xe0",
          "removed": false
        }
      ],
      "logsBloom": "0x00000000000000000000000000000000000000000600000000000000000000000000000000000000000000000000000000000000000000004000000000000000000000000000004000000008000000000000000000000000000000000000000000000000020000000000000000000800020000000000000000000010000000000000000000000000000000000000000000000000000000000000010000000000000000000000000000000000000000004000000000000000000000000000000000000002000000800000000000000000000000000000080000000000000020000000000000000000000000000000000000000000000000000000000000000000",
      "type": "0x2",
      "transactionHash": "0xc27ce88027d1570d8e92184e7c49c5ff3a12a6f875e7ca00ffb57da6630b5ca4",
      "transactionIndex": "0x74",
      "blockHash": "0x4d1476f4517a3a64b9aa505ca3940a0c916cb91eb263ea524c46b0e8770729a8",
      "blockNumber": "0x731623",
      "gasUsed": "0xfd3f",
      "effectiveGasPrice": "0x6f4af3a1",
      "from": "0xc77f7fed3b5cc8249adc428c5f44c9063b9734b4",
      "to": "0x8aafd3ede9adb0ff97c7aebce82a919afb1c8764",
      "contractAddress": null
    }
  ],
  "libraries": [],
  "pending": [],
  "returns": {},
  "timestamp": 1737492049,
  "chain": 11155111,
  "commit": "1d2fb70"
}