{
  "transactions": [
    {
      "hash": "0x60072c339d92ab60a7dac54fb80b2766d30ff46d6d5cd7c48c815a78e227f137",
      "transactionType": "CALL",
      "contractName": null,
      "contractAddress": "0xbf4a322f1496e5c3d34a9bcdb4c60567b38c7de2",
      "function": "buy(address)",
      "arguments": [
        "0xC77f7fed3b5Cc8249aDc428c5F44C9063B9734b4"
      ],
      "transaction": {
        "from": "0xc77f7fed3b5cc8249adc428c5f44c9063b9734b4",
        "to": "0xbf4a322f1496e5c3d34a9bcdb4c60567b38c7de2",
        "gas": "0x1b309",
        "value": "0xde0b6b3a7640000",
        "input": "0xf088d547000000000000000000000000c77f7fed3b5cc8249adc428c5f44c9063b9734b4",
        "nonce": "0xc72",
        "chainId": "0xaa36a7"
      },
      "additionalContracts": [],
      "isFixedGasLimit": false
    }
  ],
  "receipts": [
    {
      "status": "0x1",
      "cumulativeGasUsed": "0x90a975",
      "logs": [
        {
          "address": "0xbf4a322f1496e5c3d34a9bcdb4c60567b38c7de2",
          "topics": [
            "0xddf252ad1be2c89b69c2b068fc378daa952ba7f163c4a11628f55a4df523b3ef",
            "0x0000000000000000000000000000000000000000000000000000000000000000",
            "0x000000000000000000000000c77f7fed3b5cc8249adc428c5f44c9063b9734b4"
          ],
          "data": "0x000000000000000000000000000000000000000000000034e635824bc5bbca14",
          "blockHash": "0x72bfc6cc2af6821deab5d648f88c73e95a86a43ce8f7f0a6d07859b5c8c07664",
          "blockNumber": "0x725cb0",
          "transactionHash": "0x60072c339d92ab60a7dac54fb80b2766d30ff46d6d5cd7c48c815a78e227f137",
          "transactionIndex": "0x60",
          "logIndex": "0xfd",
          "removed": false
        },
        {
          "address": "0xbf4a322f1496e5c3d34a9bcdb4c60567b38c7de2",
          "topics": [
            "0xddf252ad1be2c89b69c2b068fc378daa952ba7f163c4a11628f55a4df523b3ef",
            "0x0000000000000000000000000000000000000000000000000000000000000000",
            "0x000000000000000000000000c77f7fed3b5cc8249adc428c5f44c9063b9734b4"
          ],
          "data": "0x0000000000000000000000000000000000000000000000002913fcbae0a933a7",
          "blockHash": "0x72bfc6cc2af6821deab5d648f88c73e95a86a43ce8f7f0a6d07859b5c8c07664",
          "blockNumber": "0x725cb0",
          "transactionHash": "0x60072c339d92ab60a7dac54fb80b2766d30ff46d6d5cd7c48c815a78e227f137",
          "transactionIndex": "0x60",
          "logIndex": "0xfe",
          "removed": false
        },
        {
          "address": "0xbf4a322f1496e5c3d34a9bcdb4c60567b38c7de2",
          "topics": [
            "0x4afcb4a87cdbd9974efdb92ee48bc8d7cd0ae4bf217004db3d080cbaee652ca7"
          ],
          "data": "0x0000000000000000000000000000000000000000000000000000000067874ab400000000000000000000000000000000000000000000000000039ab88fda19870000000000000000000000000000000000000000000000000de0b6b3a7640000",
          "blockHash": "0x72bfc6cc2af6821deab5d648f88c73e95a86a43ce8f7f0a6d07859b5c8c07664",
          "blockNumber": "0x725cb0",
          "transactionHash": "0x60072c339d92ab60a7dac54fb80b2766d30ff46d6d5cd7c48c815a78e227f137",
          "transactionIndex": "0x60",
          "logIndex": "0xff",
          "removed": false
        }
      ],
      "logsBloom": "0x00000000000000000000000000000000000000000000000000000000000000000000000000000000000000000000000000000000000000004000000000000000000000000000000000000008000000000000001000000000000000000000000000000000020000000000000000000800020000000000000000000010000000000000000000000000000000000000000000000000000008000000010000000000000000000000000000000000000000004000000000000000000000000000000000000002000000800000000000001000000000000000080000000000000020000000000000000000000000000000000000000000000000000000000000000000",
      "type": "0x2",
      "transactionHash": "0x60072c339d92ab60a7dac54fb80b2766d30ff46d6d5cd7c48c815a78e227f137",
      "transactionIndex": "0x60",
      "blockHash": "0x72bfc6cc2af6821deab5d648f88c73e95a86a43ce8f7f0a6d07859b5c8c07664",
      "blockNumber": "0x725cb0",
      "gasUsed": "0x13af6",
      "effectiveGasPrice": "0x279a7adb4",
      "from": "0xc77f7fed3b5cc8249adc428c5f44c9063b9734b4",
      "to": "0xbf4a322f1496e5c3d34a9bcdb4c60567b38c7de2",
      "contractAddress": null
    }
  ],
  "libraries": [],
  "pending": [],
  "returns": {},
  "timestamp": 1736919733,
  "chain": 11155111,
  "commit": "51a374b"
}