{
  "transactions": [
    {
      "hash": "0x488c1157a244e358fbba7e689a702e8b1766457314e0407510798f442a4dc0ab",
      "transactionType": "CALL",
      "contractName": null,
      "contractAddress": "0x8aafd3ede9adb0ff97c7aebce82a919afb1c8764",
      "function": "sell(uint256)",
      "arguments": [
        "16604149923290526"
      ],
      "transaction": {
        "from": "0xc77f7fed3b5cc8249adc428c5f44c9063b9734b4",
        "to": "0x8aafd3ede9adb0ff97c7aebce82a919afb1c8764",
        "gas": "0x1724d",
        "value": "0x0",
        "input": "0xe4849b32000000000000000000000000000000000000000000000000003afd62e9f99d9e",
        "nonce": "0x13d8",
        "chainId": "0xaa36a7"
      },
      "additionalContracts": [],
      "isFixedGasLimit": false
    }
  ],
  "receipts": [
    {
      "status": "0x1",
      "cumulativeGasUsed": "0x94adae",
      "logs": [
        {
          "address": "0x8aafd3ede9adb0ff97c7aebce82a919afb1c8764",
          "topics": [
            "0xddf252ad1be2c89b69c2b068fc378daa952ba7f163c4a11628f55a4df523b3ef",
            "0x000000000000000000000000c77f7fed3b5cc8249adc428c5f44c9063b9734b4",
            "0x0000000000000000000000000000000000000000000000000000000000000000"
          ],
          "data": "0x000000000000000000000000000000000000000000000000003a8493464faeca",
          "blockHash": "0xcdc31cc518bf910f95647b327e0ee2796284dd557d0961cff37e635505ac2e62",
          "blockNumber": "0x731b05",
          "transactionHash": "0x488c1157a244e358fbba7e689a702e8b1766457314e0407510798f442a4dc0ab",
          "transactionIndex": "0x48",
          "logIndex": "0x57",
          "removed": false
        },
        {
          "address": "0x8aafd3ede9adb0ff97c7aebce82a919afb1c8764",
          "topics": [
            "0xddf252ad1be2c89b69c2b068fc378daa952ba7f163c4a11628f55a4df523b3ef",
            "0x000000000000000000000000c77f7fed3b5cc8249adc428c5f44c9063b9734b4",
            "0x000000000000000000000000c77f7fed3b5cc8249adc428c5f44c9063b9734b4"
          ],
          "data": "0x000000000000000000000000000000000000000000000000000078cfa3a9eed4",
          "blockHash": "0xcdc31cc518bf910f95647b327e0ee2796284dd557d0961cff37e635505ac2e62",
          "blockNumber": "0x731b05",
          "transactionHash": "0x488c1157a244e358fbba7e689a702e8b1766457314e0407510798f442a4dc0ab",
          "transactionIndex": "0x48",
          "logIndex": "0x58",
          "removed": false
        },
        {
          "address": "0x8aafd3ede9adb0ff97c7aebce82a919afb1c8764",
          "topics": [
            "0x4afcb4a87cdbd9974efdb92ee48bc8d7cd0ae4bf217004db3d080cbaee652ca7"
          ],
          "data": "0x000000000000000000000000000000000000000000000000000000006790410c000000000000000000000000000000000000000000000000000db34b6f3b947b00000000000000000000000000000000000000000000000000003a3c51ee1fe0",
          "blockHash": "0xcdc31cc518bf910f95647b327e0ee2796284dd557d0961cff37e635505ac2e62",
          "blockNumber": "0x731b05",
          "transactionHash": "0x488c1157a244e358fbba7e689a702e8b1766457314e0407510798f442a4dc0ab",
          "transactionIndex": "0x48",
          "logIndex": "0x59",
          "removed": false
        }
      ],
      "logsBloom": "0x00000000000000000000000000000000000000000600000000000000000000000000000000000000000000000000000000000000000000004000000000000000000000000000004000000008000000000000000000000000000000000000000000000000020000000000000000000800020000000000000000000010000000000000000000000000000000000000000000000000000000000000010000000000000000000000000000000000000000004000000000000000000000000000000000000002000000800000000000000000000000000000080000000000000020000000000000000000000000000000000000000000000000000000000000000000",
      "type": "0x2",
      "transactionHash": "0x488c1157a244e358fbba7e689a702e8b1766457314e0407510798f442a4dc0ab",
      "transactionIndex": "0x48",
      "blockHash": "0xcdc31cc518bf910f95647b327e0ee2796284dd557d0961cff37e635505ac2e62",
      "blockNumber": "0x731b05",
      "gasUsed": "0xfd33",
      "effectiveGasPrice": "0x8e0727bb",
      "from": "0xc77f7fed3b5cc8249adc428c5f44c9063b9734b4",
      "to": "0x8aafd3ede9adb0ff97c7aebce82a919afb1c8764",
      "contractAddress": null
    }
  ],
  "libraries": [],
  "pending": [],
  "returns": {},
  "timestamp": 1737507085,
  "chain": 11155111,
  "commit": "1d2fb70"
}