{
  "transactions": [
    {
      "hash": "0x504336077909e220bbcfaeeef24ed6aa910337f411af9aa61a82a77c5e4ba0d1",
      "transactionType": "CALL",
      "contractName": null,
      "contractAddress": "0x270e88f8683660553e8ba4eb2ad7c91a1710d769",
      "function": "sell(uint256)",
      "arguments": [
        "759245207979402026838"
      ],
      "transaction": {
        "from": "0xc77f7fed3b5cc8249adc428c5f44c9063b9734b4",
        "to": "0x270e88f8683660553e8ba4eb2ad7c91a1710d769",
        "gas": "0x15b6b",
        "value": "0x0",
        "input": "0xe4849b3200000000000000000000000000000000000000000000002928a4d600f5d55f56",
        "nonce": "0x668",
        "chainId": "0xaa36a7"
      },
      "additionalContracts": [],
      "isFixedGasLimit": false
    }
  ],
  "receipts": [
    {
      "status": "0x1",
      "cumulativeGasUsed": "0x780255",
      "logs": [
        {
          "address": "0x270e88f8683660553e8ba4eb2ad7c91a1710d769",
          "topics": [
            "0xddf252ad1be2c89b69c2b068fc378daa952ba7f163c4a11628f55a4df523b3ef",
            "0x000000000000000000000000c77f7fed3b5cc8249adc428c5f44c9063b9734b4",
            "0x0000000000000000000000000000000000000000000000000000000000000000"
          ],
          "data": "0x00000000000000000000000000000000000000000000002928a4d600f5d55f56",
          "blockHash": "0x936dda180801b7c25ca4be6fa89d3e75ec48c7c9d6e22f5f40f2a25670e60515",
          "blockNumber": "0x725361",
          "transactionHash": "0x504336077909e220bbcfaeeef24ed6aa910337f411af9aa61a82a77c5e4ba0d1",
          "transactionIndex": "0x40",
          "logIndex": "0xa2",
          "removed": false
        },
        {
          "address": "0x270e88f8683660553e8ba4eb2ad7c91a1710d769",
          "topics": [
            "0x4afcb4a87cdbd9974efdb92ee48bc8d7cd0ae4bf217004db3d080cbaee652ca7"
          ],
          "data": "0x000000000000000000000000000000000000000000000000000000006786da940000000000000000000000000000000000000000000000000004a5cdf30b604f0000000000000000000000000000000000000000000000000dc82a7db3c1bdc2",
          "blockHash": "0x936dda180801b7c25ca4be6fa89d3e75ec48c7c9d6e22f5f40f2a25670e60515",
          "blockNumber": "0x725361",
          "transactionHash": "0x504336077909e220bbcfaeeef24ed6aa910337f411af9aa61a82a77c5e4ba0d1",
          "transactionIndex": "0x40",
          "logIndex": "0xa3",
          "removed": false
        }
      ],
      "logsBloom": "0x00000000000000000000000000000000000000000000000000000000000000000000000000000000000000000000000020000000000000004000000000000000000000000000000000000008000000000000000000000000000000000000000000000000020000000000000000000800020000000000000000000010000000000000000000010000000000000000000000000000000000000000010000000000000000000000000000000000000000004000000000000000000000000000000000000002000000800000000000000000000000000000080000008000000020000000000000000000000000000000000000000000000000000000000000000000",
      "type": "0x2",
      "transactionHash": "0x504336077909e220bbcfaeeef24ed6aa910337f411af9aa61a82a77c5e4ba0d1",
      "transactionIndex": "0x40",
      "blockHash": "0x936dda180801b7c25ca4be6fa89d3e75ec48c7c9d6e22f5f40f2a25670e60515",
      "blockNumber": "0x725361",
      "gasUsed": "0xfb87",
      "effectiveGasPrice": "0x3270ba16e",
      "from": "0xc77f7fed3b5cc8249adc428c5f44c9063b9734b4",
      "to": "0x270e88f8683660553e8ba4eb2ad7c91a1710d769",
      "contractAddress": null
    }
  ],
  "libraries": [],
  "pending": [],
  "returns": {},
  "timestamp": 1736891030,
  "chain": 11155111,
  "commit": "51a374b"
}