{
  "transactions": [
    {
      "hash": "0xd15b4a6b5562446648d769517dc3e323c656a78cb2975d3e410f1c854e98c654",
      "transactionType": "CALL",
      "contractName": null,
      "contractAddress": "0xd7bc75898e513accccf720a874d44dab5a4b6223",
      "function": "sell(uint256)",
      "arguments": [
        "9929992839011813497"
      ],
      "transaction": {
        "from": "0xc77f7fed3b5cc8249adc428c5f44c9063b9734b4",
        "to": "0xd7bc75898e513accccf720a874d44dab5a4b6223",
        "gas": "0x15b6b",
        "value": "0x0",
        "input": "0xe4849b3200000000000000000000000000000000000000000000000089ce6be02f78c879",
        "nonce": "0xa3",
        "chainId": "0xaa36a7"
      },
      "additionalContracts": [],
      "isFixedGasLimit": false
    }
  ],
  "receipts": [
    {
      "status": "0x1",
      "cumulativeGasUsed": "0x213b06a",
      "logs": [
        {
          "address": "0xd7bc75898e513accccf720a874d44dab5a4b6223",
          "topics": [
            "0xddf252ad1be2c89b69c2b068fc378daa952ba7f163c4a11628f55a4df523b3ef",
            "0x000000000000000000000000c77f7fed3b5cc8249adc428c5f44c9063b9734b4",
            "0x0000000000000000000000000000000000000000000000000000000000000000"
          ],
          "data": "0x00000000000000000000000000000000000000000000000089ce6be02f78c879",
          "blockHash": "0x0fafb08df4974ac3732cdd6eb505ab81beb9576efc613dad1e0311322c90bc5b",
          "blockNumber": "0x723917",
          "transactionHash": "0xd15b4a6b5562446648d769517dc3e323c656a78cb2975d3e410f1c854e98c654",
          "transactionIndex": "0x41",
          "logIndex": "0x2ed",
          "removed": false
        },
        {
          "address": "0xd7bc75898e513accccf720a874d44dab5a4b6223",
          "topics": [
            "0x4afcb4a87cdbd9974efdb92ee48bc8d7cd0ae4bf217004db3d080cbaee652ca7"
          ],
          "data": "0x0000000000000000000000000000000000000000000000000000000067859e5c00000000000000000000000000000000000000000000000000038d7f8434eb260000000000000000000000000000000000000000000000000023474f493d2799",
          "blockHash": "0x0fafb08df4974ac3732cdd6eb505ab81beb9576efc613dad1e0311322c90bc5b",
          "blockNumber": "0x723917",
          "transactionHash": "0xd15b4a6b5562446648d769517dc3e323c656a78cb2975d3e410f1c854e98c654",
          "transactionIndex": "0x41",
          "logIndex": "0x2ee",
          "removed": false
        }
      ],
      "logsBloom": "0x00000000000000000000000000000000000000000000000000000000000000000000000000000000000000000000000000000000000000004000000000000000000000000000000000000008000000000000000000000000000000000000000000000000020000000000000000000800020000000000000000000010000000000000000000000000000000000000000000000000000000000000010000000000000000000000000000000000000000004000001000000000000000000000000000000002000000800000000000004000000000000000080000000000000020000000000000000000000000000000000000000000080000000000000000000000",
      "type": "0x2",
      "transactionHash": "0xd15b4a6b5562446648d769517dc3e323c656a78cb2975d3e410f1c854e98c654",
      "transactionIndex": "0x41",
      "blockHash": "0x0fafb08df4974ac3732cdd6eb505ab81beb9576efc613dad1e0311322c90bc5b",
      "blockNumber": "0x723917",
      "gasUsed": "0xfb87",
      "effectiveGasPrice": "0x96e2ae",
      "from": "0xc77f7fed3b5cc8249adc428c5f44c9063b9734b4",
      "to": "0xd7bc75898e513accccf720a874d44dab5a4b6223",
      "contractAddress": null
    }
  ],
  "libraries": [],
  "pending": [],
  "returns": {},
  "timestamp": 1736810078,
  "chain": 11155111,
  "commit": "51a374b"
}