{
  "transactions": [
    {
      "hash": "0xc795eea51a2eaa42dfd85714cecdd489660f8757c2033ba6f35e2bbe25853056",
      "transactionType": "CALL",
      "contractName": null,
      "contractAddress": "0xbf4a322f1496e5c3d34a9bcdb4c60567b38c7de2",
      "function": "buy(address)",
      "arguments": [
        "0xC77f7fed3b5Cc8249aDc428c5F44C9063B9734b4"
      ],
      "transaction": {
        "from": "0xc77f7fed3b5cc8249adc428c5f44c9063b9734b4",
        "to": "0xbf4a322f1496e5c3d34a9bcdb4c60567b38c7de2",
        "gas": "0x1b309",
        "value": "0xde0b6b3a7640000",
        "input": "0xf088d547000000000000000000000000c77f7fed3b5cc8249adc428c5f44c9063b9734b4",
        "nonce": "0xcbe",
        "chainId": "0xaa36a7"
      },
      "additionalContracts": [],
      "isFixedGasLimit": false
    }
  ],
  "receipts": [
    {
      "status": "0x1",
      "cumulativeGasUsed": "0x18f244b",
      "logs": [
        {
          "address": "0xbf4a322f1496e5c3d34a9bcdb4c60567b38c7de2",
          "topics": [
            "0xddf252ad1be2c89b69c2b068fc378daa952ba7f163c4a11628f55a4df523b3ef",
            "0x0000000000000000000000000000000000000000000000000000000000000000",
            "0x000000000000000000000000c77f7fed3b5cc8249adc428c5f44c9063b9734b4"
          ],
          "data": "0x000000000000000000000000000000000000000000000034d823f637a2e5303c",
          "blockHash": "0x69fc258d82e623bff30ca610ad7642ce1965ed76b3b03d5e38507077484168a8",
          "blockNumber": "0x725d0e",
          "transactionHash": "0xc795eea51a2eaa42dfd85714cecdd489660f8757c2033ba6f35e2bbe25853056",
          "transactionIndex": "0xb4",
          "logIndex": "0x110",
          "removed": false
        },
        {
          "address": "0xbf4a322f1496e5c3d34a9bcdb4c60567b38c7de2",
          "topics": [
            "0xddf252ad1be2c89b69c2b068fc378daa952ba7f163c4a11628f55a4df523b3ef",
            "0x0000000000000000000000000000000000000000000000000000000000000000",
            "0x000000000000000000000000c77f7fed3b5cc8249adc428c5f44c9063b9734b4"
          ],
          "data": "0x00000000000000000000000000000000000000000000000029091001792cdf4a",
          "blockHash": "0x69fc258d82e623bff30ca610ad7642ce1965ed76b3b03d5e38507077484168a8",
          "blockNumber": "0x725d0e",
          "transactionHash": "0xc795eea51a2eaa42dfd85714cecdd489660f8757c2033ba6f35e2bbe25853056",
          "transactionIndex": "0xb4",
          "logIndex": "0x111",
          "removed": false
        },
        {
          "address": "0xbf4a322f1496e5c3d34a9bcdb4c60567b38c7de2",
          "topics": [
            "0x4afcb4a87cdbd9974efdb92ee48bc8d7cd0ae4bf217004db3d080cbaee652ca7"
          ],
          "data": "0x0000000000000000000000000000000000000000000000000000000067874f1c00000000000000000000000000000000000000000000000000039bae364d1a6e0000000000000000000000000000000000000000000000000de0b6b3a7640000",
          "blockHash": "0x69fc258d82e623bff30ca610ad7642ce1965ed76b3b03d5e38507077484168a8",
          "blockNumber": "0x725d0e",
          "transactionHash": "0xc795eea51a2eaa42dfd85714cecdd489660f8757c2033ba6f35e2bbe25853056",
          "transactionIndex": "0xb4",
          "logIndex": "0x112",
          "removed": false
        }
      ],
      "logsBloom": "0x00000000000000000000000000000000000000000000000000000000000000000000000000000000000000000000000000000000000000004000000000000000000000000000000000000008000000000000001000000000000000000000000000000000020000000000000000000800020000000000000000000010000000000000000000000000000000000000000000000000000008000000010000000000000000000000000000000000000000004000000000000000000000000000000000000002000000800000000000001000000000000000080000000000000020000000000000000000000000000000000000000000000000000000000000000000",
      "type": "0x2",
      "transactionHash": "0xc795eea51a2eaa42dfd85714cecdd489660f8757c2033ba6f35e2bbe25853056",
      "transactionIndex": "0xb4",
      "blockHash": "0x69fc258d82e623bff30ca610ad7642ce1965ed76b3b03d5e38507077484168a8",
      "blockNumber": "0x725d0e",
      "gasUsed": "0x13af6",
      "effectiveGasPrice": "0x1e86cdc25",
      "from": "0xc77f7fed3b5cc8249adc428c5f44c9063b9734b4",
      "to": "0xbf4a322f1496e5c3d34a9bcdb4c60567b38c7de2",
      "contractAddress": null
    }
  ],
  "libraries": [],
  "pending": [],
  "returns": {},
  "timestamp": 1736920861,
  "chain": 11155111,
  "commit": "51a374b"
}