{
  "transactions": [
    {
      "hash": "0x5450337ee908295fa580d8a96de362013c32c6d70cbf43e6680ade0874ed9675",
      "transactionType": "CALL",
      "contractName": null,
      "contractAddress": "0x8aafd3ede9adb0ff97c7aebce82a919afb1c8764",
      "function": "sell(uint256)",
      "arguments": [
        "2208273385852610785"
      ],
      "transaction": {
        "from": "0xc77f7fed3b5cc8249adc428c5f44c9063b9734b4",
        "to": "0x8aafd3ede9adb0ff97c7aebce82a919afb1c8764",
        "gas": "0x15dca",
        "value": "0x0",
        "input": "0xe4849b320000000000000000000000000000000000000000000000001ea55cf1cab1a8e1",
        "nonce": "0x138f",
        "chainId": "0xaa36a7"
      },
      "additionalContracts": [],
      "isFixedGasLimit": false
    }
  ],
  "receipts": [
    {
      "status": "0x1",
      "cumulativeGasUsed": "0x1704a0b",
      "logs": [
        {
          "address": "0x8aafd3ede9adb0ff97c7aebce82a919afb1c8764",
          "topics": [
            "0xddf252ad1be2c89b69c2b068fc378daa952ba7f163c4a11628f55a4df523b3ef",
            "0x000000000000000000000000c77f7fed3b5cc8249adc428c5f44c9063b9734b4",
            "0x0000000000000000000000000000000000000000000000000000000000000000"
          ],
          "data": "0x0000000000000000000000000000000000000000000000001e6699a414d932cb",
          "blockHash": "0x736a2e3ffe2f60071e312f5d8c15dd00aa0a703db3dc85cb21e0d40fd965f9a6",
          "blockNumber": "0x731ab3",
          "transactionHash": "0x5450337ee908295fa580d8a96de362013c32c6d70cbf43e6680ade0874ed9675",
          "transactionIndex": "0xb4",
          "logIndex": "0xfb",
          "removed": false
        },
        {
          "address": "0x8aafd3ede9adb0ff97c7aebce82a919afb1c8764",
          "topics": [
            "0xddf252ad1be2c89b69c2b068fc378daa952ba7f163c4a11628f55a4df523b3ef",
            "0x000000000000000000000000c77f7fed3b5cc8249adc428c5f44c9063b9734b4",
            "0x000000000000000000000000c77f7fed3b5cc8249adc428c5f44c9063b9734b4"
          ],
          "data": "0x000000000000000000000000000000000000000000000000003ec34db5d87616",
          "blockHash": "0x736a2e3ffe2f60071e312f5d8c15dd00aa0a703db3dc85cb21e0d40fd965f9a6",
          "blockNumber": "0x731ab3",
          "transactionHash": "0x5450337ee908295fa580d8a96de362013c32c6d70cbf43e6680ade0874ed9675",
          "transactionIndex": "0xb4",
          "logIndex": "0xfc",
          "removed": false
        },
        {
          "address": "0x8aafd3ede9adb0ff97c7aebce82a919afb1c8764",
          "topics": [
            "0x4afcb4a87cdbd9974efdb92ee48bc8d7cd0ae4bf217004db3d080cbaee652ca7"
          ],
          "data": "0x0000000000000000000000000000000000000000000000000000000067903d34000000000000000000000000000000000000000000000000000ce1ec0920d43c000000000000000000000000000000000000000000000000001c725bee267792",
          "blockHash": "0x736a2e3ffe2f60071e312f5d8c15dd00aa0a703db3dc85cb21e0d40fd965f9a6",
          "blockNumber": "0x731ab3",
          "transactionHash": "0x5450337ee908295fa580d8a96de362013c32c6d70cbf43e6680ade0874ed9675",
          "transactionIndex": "0xb4",
          "logIndex": "0xfd",
          "removed": false
        }
      ],
      "logsBloom": "0x00000000000000000000000000000000000000000600000000000000000000000000000000000000000000000000000000000000000000004000000000000000000000000000004000000008000000000000000000000000000000000000000000000000020000000000000000000800020000000000000000000010000000000000000000000000000000000000000000000000000000000000010000000000000000000000000000000000000000004000000000000000000000000000000000000002000000800000000000000000000000000000080000000000000020000000000000000000000000000000000000000000000000000000000000000000",
      "type": "0x2",
      "transactionHash": "0x5450337ee908295fa580d8a96de362013c32c6d70cbf43e6680ade0874ed9675",
      "transactionIndex": "0xb4",
      "blockHash": "0x736a2e3ffe2f60071e312f5d8c15dd00aa0a703db3dc85cb21e0d40fd965f9a6",
      "blockNumber": "0x731ab3",
      "gasUsed": "0xfd3f",
      "effectiveGasPrice": "0x5c408be7",
      "from": "0xc77f7fed3b5cc8249adc428c5f44c9063b9734b4",
      "to": "0x8aafd3ede9adb0ff97c7aebce82a919afb1c8764",
      "contractAddress": null
    }
  ],
  "libraries": [],
  "pending": [],
  "returns": {},
  "timestamp": 1737506103,
  "chain": 11155111,
  "commit": "1d2fb70"
}