{
  "transactions": [
    {
      "hash": "0x674ffe442b86954647266073e1824acc78acb1ad255272b4f5dfbbad74fb2f33",
      "transactionType": "CALL",
      "contractName": null,
      "contractAddress": "0x5eb9cc76c3506942c1c0ead70e877dd5e4f00cb0",
      "function": "buy(address)",
      "arguments": [
        "0xC77f7fed3b5Cc8249aDc428c5F44C9063B9734b4"
      ],
      "transaction": {
        "from": "0xc77f7fed3b5cc8249adc428c5f44c9063b9734b4",
        "to": "0x5eb9cc76c3506942c1c0ead70e877dd5e4f00cb0",
        "gas": "0x156c8",
        "value": "0xde0b6b3a7640000",
        "input": "0xf088d547000000000000000000000000c77f7fed3b5cc8249adc428c5f44c9063b9734b4",
        "nonce": "0x14e",
        "chainId": "0xaa36a7"
      },
      "additionalContracts": [],
      "isFixedGasLimit": false
    }
  ],
  "receipts": [
    {
      "status": "0x1",
      "cumulativeGasUsed": "0x264598",
      "logs": [
        {
          "address": "0x5eb9cc76c3506942c1c0ead70e877dd5e4f00cb0",
          "topics": [
            "0xddf252ad1be2c89b69c2b068fc378daa952ba7f163c4a11628f55a4df523b3ef",
            "0x0000000000000000000000000000000000000000000000000000000000000000",
            "0x000000000000000000000000c77f7fed3b5cc8249adc428c5f44c9063b9734b4"
          ],
          "data": "0x000000000000000000000000000000000000000000000035aaf2eea7ce09637b",
          "blockHash": "0x7a7cf9e3d136c80ee30ee2cc42d8d7b4665fa67fca0d59ab89d7648c9d810e20",
          "blockNumber": "0x723b44",
          "transactionHash": "0x674ffe442b86954647266073e1824acc78acb1ad255272b4f5dfbbad74fb2f33",
          "transactionIndex": "0x18",
          "logIndex": "0x29",
          "removed": false
        },
        {
          "address": "0x5eb9cc76c3506942c1c0ead70e877dd5e4f00cb0",
          "topics": [
            "0xddf252ad1be2c89b69c2b068fc378daa952ba7f163c4a11628f55a4df523b3ef",
            "0x0000000000000000000000000000000000000000000000000000000000000000",
            "0x000000000000000000000000c77f7fed3b5cc8249adc428c5f44c9063b9734b4"
          ],
          "data": "0x00000000000000000000000000000000000000000000000029acc332f9d888b1",
          "blockHash": "0x7a7cf9e3d136c80ee30ee2cc42d8d7b4665fa67fca0d59ab89d7648c9d810e20",
          "blockNumber": "0x723b44",
          "transactionHash": "0x674ffe442b86954647266073e1824acc78acb1ad255272b4f5dfbbad74fb2f33",
          "transactionIndex": "0x18",
          "logIndex": "0x2a",
          "removed": false
        },
        {
          "address": "0x5eb9cc76c3506942c1c0ead70e877dd5e4f00cb0",
          "topics": [
            "0x4afcb4a87cdbd9974efdb92ee48bc8d7cd0ae4bf217004db3d080cbaee652ca7"
          ],
          "data": "0x000000000000000000000000000000000000000000000000000000006785b88400000000000000000000000000000000000000000000000000038d7fb441b68f0000000000000000000000000000000000000000000000000de0b6b3a7640000",
          "blockHash": "0x7a7cf9e3d136c80ee30ee2cc42d8d7b4665fa67fca0d59ab89d7648c9d810e20",
          "blockNumber": "0x723b44",
          "transactionHash": "0x674ffe442b86954647266073e1824acc78acb1ad255272b4f5dfbbad74fb2f33",
          "transactionIndex": "0x18",
          "logIndex": "0x2b",
          "removed": false
        }
      ],
      "logsBloom": "0x00000000000000000000000000000000000000000000000000000000000000000000000000000000000000000000000000000000000000004000000000000000000000000000000000000008000000000000000000000000000000000000000000000000020000000000000004000800020000000000000000000010000000000000000000000000000000000000000000000000000000000000010000000000000000000000000000000000000000004000000000000000000000000000020000000002000000800000008000000000000000000000080000000000000020000000000000000000000000000000000000000000000000000000000000000000",
      "type": "0x2",
      "transactionHash": "0x674ffe442b86954647266073e1824acc78acb1ad255272b4f5dfbbad74fb2f33",
      "transactionIndex": "0x18",
      "blockHash": "0x7a7cf9e3d136c80ee30ee2cc42d8d7b4665fa67fca0d59ab89d7648c9d810e20",
      "blockNumber": "0x723b44",
      "gasUsed": "0xf82c",
      "effectiveGasPrice": "0x68352b364",
      "from": "0xc77f7fed3b5cc8249adc428c5f44c9063b9734b4",
      "to": "0x5eb9cc76c3506942c1c0ead70e877dd5e4f00cb0",
      "contractAddress": null
    }
  ],
  "libraries": [],
  "pending": [],
  "returns": {},
  "timestamp": 1736816774,
  "chain": 11155111,
  "commit": "51a374b"
}