{
  "transactions": [
    {
      "hash": "0x22d9c1c8f0c30013a27d5f4d14c28e986ccfc993191b8312b5b210e9c952ec5a",
      "transactionType": "CALL",
      "contractName": null,
      "contractAddress": "0xbf4a322f1496e5c3d34a9bcdb4c60567b38c7de2",
      "function": "sell(uint256)",
      "arguments": [
        "974883754078441066408"
      ],
      "transaction": {
        "from": "0xc77f7fed3b5cc8249adc428c5f44c9063b9734b4",
        "to": "0xbf4a322f1496e5c3d34a9bcdb4c60567b38c7de2",
        "gas": "0x16fea",
        "value": "0x0",
        "input": "0xe4849b32000000000000000000000000000000000000000000000034d93ad92dc8c04fa8",
        "nonce": "0xd97",
        "chainId": "0xaa36a7"
      },
      "additionalContracts": [],
      "isFixedGasLimit": false
    }
  ],
  "receipts": [
    {
      "status": "0x1",
      "cumulativeGasUsed": "0xc2bb75",
      "logs": [
        {
          "address": "0xbf4a322f1496e5c3d34a9bcdb4c60567b38c7de2",
          "topics": [
            "0xddf252ad1be2c89b69c2b068fc378daa952ba7f163c4a11628f55a4df523b3ef",
            "0x000000000000000000000000c77f7fed3b5cc8249adc428c5f44c9063b9734b4",
            "0x0000000000000000000000000000000000000000000000000000000000000000"
          ],
          "data": "0x000000000000000000000000000000000000000000000034d93ad92dc8c04fa8",
          "blockHash": "0xd4ffcd7c5fe98c7015c6d287d708e26b283802907b6a3f3e89ffdc91cd60d480",
          "blockNumber": "0x72666c",
          "transactionHash": "0x22d9c1c8f0c30013a27d5f4d14c28e986ccfc993191b8312b5b210e9c952ec5a",
          "transactionIndex": "0x6b",
          "logIndex": "0x98",
          "removed": false
        },
        {
          "address": "0xbf4a322f1496e5c3d34a9bcdb4c60567b38c7de2",
          "topics": [
            "0x4afcb4a87cdbd9974efdb92ee48bc8d7cd0ae4bf217004db3d080cbaee652ca7"
          ],
          "data": "0x000000000000000000000000000000000000000000000000000000006787bfd800000000000000000000000000000000000000000000000000039e6c833fa8dc0000000000000000000000000000000000000000000000000dc7e3d62bb975ed",
          "blockHash": "0xd4ffcd7c5fe98c7015c6d287d708e26b283802907b6a3f3e89ffdc91cd60d480",
          "blockNumber": "0x72666c",
          "transactionHash": "0x22d9c1c8f0c30013a27d5f4d14c28e986ccfc993191b8312b5b210e9c952ec5a",
          "transactionIndex": "0x6b",
          "logIndex": "0x99",
          "removed": false
        }
      ],
      "logsBloom": "0x00000000000000000000000000000000000000000000000000000000000000000000000000000000000000000000000000000000000000004000000000000000000000000000000000000008000000000000001000000000000000000000000000000000020000000000000000000800020000000000000000000010000000000000000000000000000000000000000000000000000008000000010000000000000000000000000000000000000000004000000000000000000000000000000000000002000000800000000000001000000000000000080000000000000020000000000000000000000000000000000000000000000000000000000000000000",
      "type": "0x2",
      "transactionHash": "0x22d9c1c8f0c30013a27d5f4d14c28e986ccfc993191b8312b5b210e9c952ec5a",
      "transactionIndex": "0x6b",
      "blockHash": "0xd4ffcd7c5fe98c7015c6d287d708e26b283802907b6a3f3e89ffdc91cd60d480",
      "blockNumber": "0x72666c",
      "gasUsed": "0xfb91",
      "effectiveGasPrice": "0x8ed5538b",
      "from": "0xc77f7fed3b5cc8249adc428c5f44c9063b9734b4",
      "to": "0xbf4a322f1496e5c3d34a9bcdb4c60567b38c7de2",
      "contractAddress": null
    }
  ],
  "libraries": [],
  "pending": [],
  "returns": {},
  "timestamp": 1736949721,
  "chain": 11155111,
  "commit": "51a374b"
}