{
  "transactions": [
    {
      "hash": "0x32c221bd7ee632042ad0d8d47b4f36af3694ac4c3f0ac5196149da4f97f52340",
      "transactionType": "CALL",
      "contractName": null,
      "contractAddress": "0x8aafd3ede9adb0ff97c7aebce82a919afb1c8764",
      "function": "sell(uint256)",
      "arguments": [
        "55074868"
      ],
      "transaction": {
        "from": "0xc77f7fed3b5cc8249adc428c5f44c9063b9734b4",
        "to": "0x8aafd3ede9adb0ff97c7aebce82a919afb1c8764",
        "gas": "0x15d88",
        "value": "0x0",
        "input": "0xe4849b320000000000000000000000000000000000000000000000000000000003486034",
        "nonce": "0x14f3",
        "chainId": "0xaa36a7"
      },
      "additionalContracts": [],
      "isFixedGasLimit": false
    }
  ],
  "receipts": [
    {
      "status": "0x1",
      "cumulativeGasUsed": "0x1c96dfc",
      "logs": [
        {
          "address": "0x8aafd3ede9adb0ff97c7aebce82a919afb1c8764",
          "topics": [
            "0xddf252ad1be2c89b69c2b068fc378daa952ba7f163c4a11628f55a4df523b3ef",
            "0x000000000000000000000000c77f7fed3b5cc8249adc428c5f44c9063b9734b4",
            "0x0000000000000000000000000000000000000000000000000000000000000000"
          ],
          "data": "0x000000000000000000000000000000000000000000000000000000000341a71e",
          "blockHash": "0x53c56ed588a2c0cb0b3342e4c0d6f48927ab6d56df8e9b4e1fd0c52258238f4e",
          "blockNumber": "0x731c54",
          "transactionHash": "0x32c221bd7ee632042ad0d8d47b4f36af3694ac4c3f0ac5196149da4f97f52340",
          "transactionIndex": "0x10d",
          "logIndex": "0x131",
          "removed": false
        },
        {
          "address": "0x8aafd3ede9adb0ff97c7aebce82a919afb1c8764",
          "topics": [
            "0xddf252ad1be2c89b69c2b068fc378daa952ba7f163c4a11628f55a4df523b3ef",
            "0x000000000000000000000000c77f7fed3b5cc8249adc428c5f44c9063b9734b4",
            "0x000000000000000000000000c77f7fed3b5cc8249adc428c5f44c9063b9734b4"
          ],
          "data": "0x000000000000000000000000000000000000000000000000000000000006b916",
          "blockHash": "0x53c56ed588a2c0cb0b3342e4c0d6f48927ab6d56df8e9b4e1fd0c52258238f4e",
          "blockNumber": "0x731c54",
          "transactionHash": "0x32c221bd7ee632042ad0d8d47b4f36af3694ac4c3f0ac5196149da4f97f52340",
          "transactionIndex": "0x10d",
          "logIndex": "0x132",
          "removed": false
        },
        {
          "address": "0x8aafd3ede9adb0ff97c7aebce82a919afb1c8764",
          "topics": [
            "0x4afcb4a87cdbd9974efdb92ee48bc8d7cd0ae4bf217004db3d080cbaee652ca7"
          ],
          "data": "0x00000000000000000000000000000000000000000000000000000000679050cc0000000000000000000000000000000000000000000000000010e53ac925cb63000000000000000000000000000000000000000000000000000000000003ff1c",
          "blockHash": "0x53c56ed588a2c0cb0b3342e4c0d6f48927ab6d56df8e9b4e1fd0c52258238f4e",
          "blockNumber": "0x731c54",
          "transactionHash": "0x32c221bd7ee632042ad0d8d47b4f36af3694ac4c3f0ac5196149da4f97f52340",
          "transactionIndex": "0x10d",
          "logIndex": "0x133",
          "removed": false
        }
      ],
      "logsBloom": "0x00000000000000000000000000000000000000000600000000000000000000000000000000000000000000000000000000000000000000004000000000000000000000000000004000000008000000000000000000000000000000000000000000000000020000000000000000000800020000000000000000000010000000000000000000000000000000000000000000000000000000000000010000000000000000000000000000000000000000004000000000000000000000000000000000000002000000800000000000000000000000000000080000000000000020000000000000000000000000000000000000000000000000000000000000000000",
      "type": "0x2",
      "transactionHash": "0x32c221bd7ee632042ad0d8d47b4f36af3694ac4c3f0ac5196149da4f97f52340",
      "transactionIndex": "0x10d",
      "blockHash": "0x53c56ed588a2c0cb0b3342e4c0d6f48927ab6d56df8e9b4e1fd0c52258238f4e",
      "blockNumber": "0x731c54",
      "gasUsed": "0xfd0f",
      "effectiveGasPrice": "0x14081dd98",
      "from": "0xc77f7fed3b5cc8249adc428c5f44c9063b9734b4",
      "to": "0x8aafd3ede9adb0ff97c7aebce82a919afb1c8764",
      "contractAddress": null
    }
  ],
  "libraries": [],
  "pending": [],
  "returns": {},
  "timestamp": 1737511118,
  "chain": 11155111,
  "commit": "1d2fb70"
}