{
  "transactions": [
    {
      "hash": "0x9e20e4fb595a735d2eab0d3fe629d1665a0b9ece9e43631ea427e86f8fec82b9",
      "transactionType": "CALL",
      "contractName": null,
      "contractAddress": "0x270e88f8683660553e8ba4eb2ad7c91a1710d769",
      "function": "buy(address)",
      "arguments": [
        "0xC77f7fed3b5Cc8249aDc428c5F44C9063B9734b4"
      ],
      "transaction": {
        "from": "0xc77f7fed3b5cc8249adc428c5f44c9063b9734b4",
        "to": "0x270e88f8683660553e8ba4eb2ad7c91a1710d769",
        "gas": "0x1b30c",
        "value": "0xde0b6b3a7640000",
        "input": "0xf088d547000000000000000000000000c77f7fed3b5cc8249adc428c5f44c9063b9734b4",
        "nonce": "0x5b2",
        "chainId": "0xaa36a7"
      },
      "additionalContracts": [],
      "isFixedGasLimit": false
    }
  ],
  "receipts": [
    {
      "status": "0x1",
      "cumulativeGasUsed": "0xaa1d38",
      "logs": [
        {
          "address": "0x270e88f8683660553e8ba4eb2ad7c91a1710d769",
          "topics": [
            "0xddf252ad1be2c89b69c2b068fc378daa952ba7f163c4a11628f55a4df523b3ef",
            "0x0000000000000000000000000000000000000000000000000000000000000000",
            "0x000000000000000000000000c77f7fed3b5cc8249adc428c5f44c9063b9734b4"
          ],
          "data": "0x000000000000000000000000000000000000000000000033d15e315570cf36ec",
          "blockHash": "0x0babce367fa17145b15bdd3d06e8563d037587b1260fb98c2acbdfafecbe4b9c",
          "blockNumber": "0x72526d",
          "transactionHash": "0x9e20e4fb595a735d2eab0d3fe629d1665a0b9ece9e43631ea427e86f8fec82b9",
          "transactionIndex": "0x55",
          "logIndex": "0x91",
          "removed": false
        },
        {
          "address": "0x270e88f8683660553e8ba4eb2ad7c91a1710d769",
          "topics": [
            "0xddf252ad1be2c89b69c2b068fc378daa952ba7f163c4a11628f55a4df523b3ef",
            "0x0000000000000000000000000000000000000000000000000000000000000000",
            "0x000000000000000000000000c77f7fed3b5cc8249adc428c5f44c9063b9734b4"
          ],
          "data": "0x000000000000000000000000000000000000000000000000283d02bc4a050e07",
          "blockHash": "0x0babce367fa17145b15bdd3d06e8563d037587b1260fb98c2acbdfafecbe4b9c",
          "blockNumber": "0x72526d",
          "transactionHash": "0x9e20e4fb595a735d2eab0d3fe629d1665a0b9ece9e43631ea427e86f8fec82b9",
          "transactionIndex": "0x55",
          "logIndex": "0x92",
          "removed": false
        },
        {
          "address": "0x270e88f8683660553e8ba4eb2ad7c91a1710d769",
          "topics": [
            "0x4afcb4a87cdbd9974efdb92ee48bc8d7cd0ae4bf217004db3d080cbaee652ca7"
          ],
          "data": "0x000000000000000000000000000000000000000000000000000000006786cf0c0000000000000000000000000000000000000000000000000003ae129f4af54d0000000000000000000000000000000000000000000000000de0b6b3a7640000",
          "blockHash": "0x0babce367fa17145b15bdd3d06e8563d037587b1260fb98c2acbdfafecbe4b9c",
          "blockNumber": "0x72526d",
          "transactionHash": "0x9e20e4fb595a735d2eab0d3fe629d1665a0b9ece9e43631ea427e86f8fec82b9",
          "transactionIndex": "0x55",
          "logIndex": "0x93",
          "removed": false
        }
      ],
      "logsBloom": "0x00000000000000000000000000000000000000000000000000000000000000000000000000000000000000000000000020000000000000004000000000000000000000000000000000000008000000000000000000000000000000000000000000000000020000000000000000000800020000000000000000000010000000000000000000010000000000000000000000000000000000000000010000000000000000000000000000000000000000004000000000000000000000000000000000000002000000800000000000000000000000000000080000008000000020000000000000000000000000000000000000000000000000000000000000000000",
      "type": "0x2",
      "transactionHash": "0x9e20e4fb595a735d2eab0d3fe629d1665a0b9ece9e43631ea427e86f8fec82b9",
      "transactionIndex": "0x55",
      "blockHash": "0x0babce367fa17145b15bdd3d06e8563d037587b1260fb98c2acbdfafecbe4b9c",
      "blockNumber": "0x72526d",
      "gasUsed": "0x13af8",
      "effectiveGasPrice": "0x4566df2e8",
      "from": "0xc77f7fed3b5cc8249adc428c5f44c9063b9734b4",
      "to": "0x270e88f8683660553e8ba4eb2ad7c91a1710d769",
      "contractAddress": null
    }
  ],
  "libraries": [],
  "pending": [],
  "returns": {},
  "timestamp": 1736888078,
  "chain": 11155111,
  "commit": "51a374b"
}