{
  "transactions": [
    {
      "hash": "0x2af3f1fd6e06b7f4a3249039d37d73119ef03245c8d58688c1c82475cb770877",
      "transactionType": "CALL",
      "contractName": null,
      "contractAddress": "0x8aafd3ede9adb0ff97c7aebce82a919afb1c8764",
      "function": "buy(address)",
      "arguments": [
        "0xC77f7fed3b5Cc8249aDc428c5F44C9063B9734b4"
      ],
      "transaction": {
        "from": "0xc77f7fed3b5cc8249adc428c5f44c9063b9734b4",
        "to": "0x8aafd3ede9adb0ff97c7aebce82a919afb1c8764",
        "gas": "0x156ea",
        "value": "0xde0b6b3a7640000",
        "input": "0xf088d547000000000000000000000000c77f7fed3b5cc8249adc428c5f44c9063b9734b4",
        "nonce": "0xffa",
        "chainId": "0xaa36a7"
      },
      "additionalContracts": [],
      "isFixedGasLimit": false
    }
  ],
  "receipts": [
    {
      "status": "0x1",
      "cumulativeGasUsed": "0x9e4047",
      "logs": [
        {
          "address": "0x8aafd3ede9adb0ff97c7aebce82a919afb1c8764",
          "topics": [
            "0xddf252ad1be2c89b69c2b068fc378daa952ba7f163c4a11628f55a4df523b3ef",
            "0x0000000000000000000000000000000000000000000000000000000000000000",
            "0x000000000000000000000000c77f7fed3b5cc8249adc428c5f44c9063b9734b4"
          ],
          "data": "0x000000000000000000000000000000000000000000000026f4ec80cb27daa83e",
          "blockHash": "0x8efcb74fefef09f6189e26f5fcbc06b7350d26537850843436a5b4c596043b64",
          "blockNumber": "0x73166f",
          "transactionHash": "0x2af3f1fd6e06b7f4a3249039d37d73119ef03245c8d58688c1c82475cb770877",
          "transactionIndex": "0x73",
          "logIndex": "0xb1",
          "removed": false
        },
        {
          "address": "0x8aafd3ede9adb0ff97c7aebce82a919afb1c8764",
          "topics": [
            "0xddf252ad1be2c89b69c2b068fc378daa952ba7f163c4a11628f55a4df523b3ef",
            "0x0000000000000000000000000000000000000000000000000000000000000000",
            "0x000000000000000000000000c77f7fed3b5cc8249adc428c5f44c9063b9734b4"
          ],
          "data": "0x0000000000000000000000000000000000000000000000001e4050c70946b6e3",
          "blockHash": "0x8efcb74fefef09f6189e26f5fcbc06b7350d26537850843436a5b4c596043b64",
          "blockNumber": "0x73166f",
          "transactionHash": "0x2af3f1fd6e06b7f4a3249039d37d73119ef03245c8d58688c1c82475cb770877",
          "transactionIndex": "0x73",
          "logIndex": "0xb2",
          "removed": false
        },
        {
          "address": "0x8aafd3ede9adb0ff97c7aebce82a919afb1c8764",
          "topics": [
            "0x4afcb4a87cdbd9974efdb92ee48bc8d7cd0ae4bf217004db3d080cbaee652ca7"
          ],
          "data": "0x00000000000000000000000000000000000000000000000000000000679009e00000000000000000000000000000000000000000000000000004e55b6fbd95790000000000000000000000000000000000000000000000000de0b6b3a7640000",
          "blockHash": "0x8efcb74fefef09f6189e26f5fcbc06b7350d26537850843436a5b4c596043b64",
          "blockNumber": "0x73166f",
          "transactionHash": "0x2af3f1fd6e06b7f4a3249039d37d73119ef03245c8d58688c1c82475cb770877",
          "transactionIndex": "0x73",
          "logIndex": "0xb3",
          "removed": false
        }
      ],
      "logsBloom": "0x00000000000000000000000000000000000000000600000000000000000000000000000000000000000000000000000000000000000000004000000000000000000000000000004000000008000000000000000000000000000000000000000000000000020000000000000000000800020000000000000000000010000000000000000000000000000000000000000000000000000000000000010000000000000000000000000000000000000000004000000000000000000000000000000000000002000000800000000000000000000000000000080000000000000020000000000000000000000000000000000000000000000000000000000000000000",
      "type": "0x2",
      "transactionHash": "0x2af3f1fd6e06b7f4a3249039d37d73119ef03245c8d58688c1c82475cb770877",
      "transactionIndex": "0x73",
      "blockHash": "0x8efcb74fefef09f6189e26f5fcbc06b7350d26537850843436a5b4c596043b64",
      "blockNumber": "0x73166f",
      "gasUsed": "0xf844",
      "effectiveGasPrice": "0x42be2ea2",
      "from": "0xc77f7fed3b5cc8249adc428c5f44c9063b9734b4",
      "to": "0x8aafd3ede9adb0ff97c7aebce82a919afb1c8764",
      "contractAddress": null
    }
  ],
  "libraries": [],
  "pending": [],
  "returns": {},
  "timestamp": 1737492961,
  "chain": 11155111,
  "commit": "1d2fb70"
}