{
  "transactions": [
    {
      "hash": "0xc8374d4d432062653b73a65cb5b000ed2bb2640317eded34ccf042e1589c801d",
      "transactionType": "CALL",
      "contractName": null,
      "contractAddress": "0x33b8a3202d30e8057fe9dc51702c42cf44303234",
      "function": "borrow(uint256,uint256)",
      "arguments": [
        "9967904831587544",
        "0"
      ],
      "transaction": {
        "from": "0xc77f7fed3b5cc8249adc428c5f44c9063b9734b4",
        "to": "0x33b8a3202d30e8057fe9dc51702c42cf44303234",
        "gas": "0x265c0",
        "value": "0x0",
        "input": "0x0ecbcdab000000000000000000000000000000000000000000000000002369c1b2a444d80000000000000000000000000000000000000000000000000000000000000000",
        "nonce": "0x18a4",
        "chainId": "0xaa36a7"
      },
      "additionalContracts": [],
      "isFixedGasLimit": false
    }
  ],
  "receipts": [
    {
      "status": "0x1",
      "cumulativeGasUsed": "0xc954f8",
      "logs": [
        {
          "address": "0x33b8a3202d30e8057fe9dc51702c42cf44303234",
          "topics": [
            "0xddf252ad1be2c89b69c2b068fc378daa952ba7f163c4a11628f55a4df523b3ef",
            "0x000000000000000000000000c77f7fed3b5cc8249adc428c5f44c9063b9734b4",
            "0x00000000000000000000000033b8a3202d30e8057fe9dc51702c42cf44303234"
          ],
          "data": "0x00000000000000000000000000000000000000000000000000c61cb7a3ded78b",
          "blockHash": "0x5b074cc91d6bc8c2aaff8991d24a56d16f02050e9410534f9244c82268c724af",
          "blockNumber": "0x7382eb",
          "transactionHash": "0xc8374d4d432062653b73a65cb5b000ed2bb2640317eded34ccf042e1589c801d",
          "transactionIndex": "0x62",
          "logIndex": "0x93",
          "removed": false
        },
        {
          "address": "0x33b8a3202d30e8057fe9dc51702c42cf44303234",
          "topics": [
            "0xddf252ad1be2c89b69c2b068fc378daa952ba7f163c4a11628f55a4df523b3ef",
            "0x00000000000000000000000033b8a3202d30e8057fe9dc51702c42cf44303234",
            "0x000000000000000000000000c77f7fed3b5cc8249adc428c5f44c9063b9734b4"
          ],
          "data": "0x0000000000000000000000000000000000000000000000000015137d6afe32ba",
          "blockHash": "0x5b074cc91d6bc8c2aaff8991d24a56d16f02050e9410534f9244c82268c724af",
          "blockNumber": "0x7382eb",
          "transactionHash": "0xc8374d4d432062653b73a65cb5b000ed2bb2640317eded34ccf042e1589c801d",
          "transactionIndex": "0x62",
          "logIndex": "0x94",
          "removed": false
        },
        {
          "address": "0x33b8a3202d30e8057fe9dc51702c42cf44303234",
          "topics": [
            "0xddf252ad1be2c89b69c2b068fc378daa952ba7f163c4a11628f55a4df523b3ef",
            "0x00000000000000000000000033b8a3202d30e8057fe9dc51702c42cf44303234",
            "0x0000000000000000000000000000000000000000000000000000000000000000"
          ],
          "data": "0x00000000000000000000000000000000000000000000000000312d79f9a6765d",
          "blockHash": "0x5b074cc91d6bc8c2aaff8991d24a56d16f02050e9410534f9244c82268c724af",
          "blockNumber": "0x7382eb",
          "transactionHash": "0xc8374d4d432062653b73a65cb5b000ed2bb2640317eded34ccf042e1589c801d",
          "transactionIndex": "0x62",
          "logIndex": "0x95",
          "removed": false
        },
        {
          "address": "0x33b8a3202d30e8057fe9dc51702c42cf44303234",
          "topics": [
            "0x03bbe564cb1b78e43195eeadbde99e5b89b19345862807fcfb59f884e4165e25"
          ],
          "data": "0x000000000000000000000000c77f7fed3b5cc8249adc428c5f44c9063b9734b40000000000000000000000000000000000000000000000000022fd380b58354d",
          "blockHash": "0x5b074cc91d6bc8c2aaff8991d24a56d16f02050e9410534f9244c82268c724af",
          "blockNumber": "0x7382eb",
          "transactionHash": "0xc8374d4d432062653b73a65cb5b000ed2bb2640317eded34ccf042e1589c801d",
          "transactionIndex": "0x62",
          "logIndex": "0x96",
          "removed": false
        },
        {
          "address": "0x33b8a3202d30e8057fe9dc51702c42cf44303234",
          "topics": [
            "0xaec00f5213a37254bc68a26b0685d1a5b2bf513e1e587c94c7df7f4a62b56c9c"
          ],
          "data": "0x0000000000000000000000000000000000000000000000000000000000000000000000000000000000000000000000000000000000000000000000000000000000000000000000000000000000000000000000000000000000000000000000000000000000000000000000000000000000000000000000000000000000000000",
          "blockHash": "0x5b074cc91d6bc8c2aaff8991d24a56d16f02050e9410534f9244c82268c724af",
          "blockNumber": "0x7382eb",
          "transactionHash": "0xc8374d4d432062653b73a65cb5b000ed2bb2640317eded34ccf042e1589c801d",
          "transactionIndex": "0x62",
          "logIndex": "0x97",
          "removed": false
        },
        {
          "address": "0x33b8a3202d30e8057fe9dc51702c42cf44303234",
          "topics": [
            "0xaec00f5213a37254bc68a26b0685d1a5b2bf513e1e587c94c7df7f4a62b56c9c"
          ],
          "data": "0x0000000000000000000000000000000000000000000000008b2377d2596132520000000000000000000000000000000000000000000000000046203664a33d440000000000000000000000000000000000000000000000000046203664a33d440000000000000000000000000000000000000000000000008b2377d259613252",
          "blockHash": "0x5b074cc91d6bc8c2aaff8991d24a56d16f02050e9410534f9244c82268c724af",
          "blockNumber": "0x7382eb",
          "transactionHash": "0xc8374d4d432062653b73a65cb5b000ed2bb2640317eded34ccf042e1589c801d",
          "transactionIndex": "0x62",
          "logIndex": "0x98",
          "removed": false
        },
        {
          "address": "0x33b8a3202d30e8057fe9dc51702c42cf44303234",
          "topics": [
            "0x4afcb4a87cdbd9974efdb92ee48bc8d7cd0ae4bf217004db3d080cbaee652ca7"
          ],
          "data": "0x0000000000000000000000000000000000000000000000000000000067954b90000000000000000000000000000000000000000000000000000391f65936624e0000000000000000000000000000000000000000000000000000120f8d52ed63",
          "blockHash": "0x5b074cc91d6bc8c2aaff8991d24a56d16f02050e9410534f9244c82268c724af",
          "blockNumber": "0x7382eb",
          "transactionHash": "0xc8374d4d432062653b73a65cb5b000ed2bb2640317eded34ccf042e1589c801d",
          "transactionIndex": "0x62",
          "logIndex": "0x99",
          "removed": false
        }
      ],
      "logsBloom": "0x00000000000000000000000000000100400000000000000000000000000000000008000000000000000000000000000000002000000000004000000000000000000000000000000000000008000000000040000000000000000000000000000000000000020000000000000000000800060000000000000000000010000000000000000000000000000000000004100000000000000000000000010000000000000000000000000000000400000000004000000000000000000000001000000000000002000000800000000000000000000000000080080000000000000020000020000000000000000000000000000000000000000000000000000000000000",
      "type": "0x2",
      "transactionHash": "0xc8374d4d432062653b73a65cb5b000ed2bb2640317eded34ccf042e1589c801d",
      "transactionIndex": "0x62",
      "blockHash": "0x5b074cc91d6bc8c2aaff8991d24a56d16f02050e9410534f9244c82268c724af",
      "blockNumber": "0x7382eb",
      "gasUsed": "0x1a3a9",
      "effectiveGasPrice": "0x94cd42c7",
      "from": "0xc77f7fed3b5cc8249adc428c5f44c9063b9734b4",
      "to": "0x33b8a3202d30e8057fe9dc51702c42cf44303234",
      "contractAddress": null
    }
  ],
  "libraries": [],
  "pending": [],
  "returns": {},
  "timestamp": 1737837458,
  "chain": 11155111,
  "commit": "f5162e9"
}