{
  "transactions": [
    {
      "hash": "0xa78170f5b92d09cb9f1979f86e8f2197e1e7e4e7c2aa460e0f29132ff830cfbd",
      "transactionType": "CALL",
      "contractName": null,
      "contractAddress": "0x8aafd3ede9adb0ff97c7aebce82a919afb1c8764",
      "function": "sell(uint256)",
      "arguments": [
        "6335826482"
      ],
      "transaction": {
        "from": "0xc77f7fed3b5cc8249adc428c5f44c9063b9734b4",
        "to": "0x8aafd3ede9adb0ff97c7aebce82a919afb1c8764",
        "gas": "0x1722a",
        "value": "0x0",
        "input": "0xe4849b320000000000000000000000000000000000000000000000000000000179a50a32",
        "nonce": "0x1570",
        "chainId": "0xaa36a7"
      },
      "additionalContracts": [],
      "isFixedGasLimit": false
    }
  ],
  "receipts": [
    {
      "status": "0x1",
      "cumulativeGasUsed": "0x99fcfc",
      "logs": [
        {
          "address": "0x8aafd3ede9adb0ff97c7aebce82a919afb1c8764",
          "topics": [
            "0xddf252ad1be2c89b69c2b068fc378daa952ba7f163c4a11628f55a4df523b3ef",
            "0x000000000000000000000000c77f7fed3b5cc8249adc428c5f44c9063b9734b4",
            "0x0000000000000000000000000000000000000000000000000000000000000000"
          ],
          "data": "0x00000000000000000000000000000000000000000000000000000001769f9f9f",
          "blockHash": "0xde6972a86ce28e8d460c84ee417552ba295bb0b93b8d895f0953139231169b83",
          "blockNumber": "0x731cd9",
          "transactionHash": "0xa78170f5b92d09cb9f1979f86e8f2197e1e7e4e7c2aa460e0f29132ff830cfbd",
          "transactionIndex": "0x66",
          "logIndex": "0xd5",
          "removed": false
        },
        {
          "address": "0x8aafd3ede9adb0ff97c7aebce82a919afb1c8764",
          "topics": [
            "0xddf252ad1be2c89b69c2b068fc378daa952ba7f163c4a11628f55a4df523b3ef",
            "0x000000000000000000000000c77f7fed3b5cc8249adc428c5f44c9063b9734b4",
            "0x000000000000000000000000c77f7fed3b5cc8249adc428c5f44c9063b9734b4"
          ],
          "data": "0x0000000000000000000000000000000000000000000000000000000003056a93",
          "blockHash": "0xde6972a86ce28e8d460c84ee417552ba295bb0b93b8d895f0953139231169b83",
          "blockNumber": "0x731cd9",
          "transactionHash": "0xa78170f5b92d09cb9f1979f86e8f2197e1e7e4e7c2aa460e0f29132ff830cfbd",
          "transactionIndex": "0x66",
          "logIndex": "0xd6",
          "removed": false
        },
        {
          "address": "0x8aafd3ede9adb0ff97c7aebce82a919afb1c8764",
          "topics": [
            "0x4afcb4a87cdbd9974efdb92ee48bc8d7cd0ae4bf217004db3d080cbaee652ca7"
          ],
          "data": "0x000000000000000000000000000000000000000000000000000000006790571400000000000000000000000000000000000000000000000000125982489dc4c70000000000000000000000000000000000000000000000000000000001f35566",
          "blockHash": "0xde6972a86ce28e8d460c84ee417552ba295bb0b93b8d895f0953139231169b83",
          "blockNumber": "0x731cd9",
          "transactionHash": "0xa78170f5b92d09cb9f1979f86e8f2197e1e7e4e7c2aa460e0f29132ff830cfbd",
          "transactionIndex": "0x66",
          "logIndex": "0xd7",
          "removed": false
        }
      ],
      "logsBloom": "0x00000000000000000000000000000000000000000600000000000000000000000000000000000000000000000000000000000000000000004000000000000000000000000000004000000008000000000000000000000000000000000000000000000000020000000000000000000800020000000000000000000010000000000000000000000000000000000000000000000000000000000000010000000000000000000000000000000000000000004000000000000000000000000000000000000002000000800000000000000000000000000000080000000000000020000000000000000000000000000000000000000000000000000000000000000000",
      "type": "0x2",
      "transactionHash": "0xa78170f5b92d09cb9f1979f86e8f2197e1e7e4e7c2aa460e0f29132ff830cfbd",
      "transactionIndex": "0x66",
      "blockHash": "0xde6972a86ce28e8d460c84ee417552ba295bb0b93b8d895f0953139231169b83",
      "blockNumber": "0x731cd9",
      "gasUsed": "0xfd1b",
      "effectiveGasPrice": "0x7c8fc887",
      "from": "0xc77f7fed3b5cc8249adc428c5f44c9063b9734b4",
      "to": "0x8aafd3ede9adb0ff97c7aebce82a919afb1c8764",
      "contractAddress": null
    }
  ],
  "libraries": [],
  "pending": [],
  "returns": {},
  "timestamp": 1737512725,
  "chain": 11155111,
  "commit": "1d2fb70"
}