{
  "transactions": [
    {
      "hash": "0x8f4f0b6b3cacbf0ac8e960b700a729a9e57ba6774d020c5670bb38dab65f3ab0",
      "transactionType": "CALL",
      "contractName": null,
      "contractAddress": "0x8aafd3ede9adb0ff97c7aebce82a919afb1c8764",
      "function": "sell(uint256)",
      "arguments": [
        "2882263647201"
      ],
      "transaction": {
        "from": "0xc77f7fed3b5cc8249adc428c5f44c9063b9734b4",
        "to": "0x8aafd3ede9adb0ff97c7aebce82a919afb1c8764",
        "gas": "0x15daa",
        "value": "0x0",
        "input": "0xe4849b320000000000000000000000000000000000000000000000000000029f144d03e1",
        "nonce": "0x10d1",
        "chainId": "0xaa36a7"
      },
      "additionalContracts": [],
      "isFixedGasLimit": false
    }
  ],
  "receipts": [
    {
      "status": "0x1",
      "cumulativeGasUsed": "0xa7a39a",
      "logs": [
        {
          "address": "0x8aafd3ede9adb0ff97c7aebce82a919afb1c8764",
          "topics": [
            "0xddf252ad1be2c89b69c2b068fc378daa952ba7f163c4a11628f55a4df523b3ef",
            "0x000000000000000000000000c77f7fed3b5cc8249adc428c5f44c9063b9734b4",
            "0x0000000000000000000000000000000000000000000000000000000000000000"
          ],
          "data": "0x00000000000000000000000000000000000000000000000000000299b5ee30e8",
          "blockHash": "0x1cd4ed40e2e67214cfaae0f1c0585f024ba6cd0a06494781cb8c91999051f890",
          "blockNumber": "0x731770",
          "transactionHash": "0x8f4f0b6b3cacbf0ac8e960b700a729a9e57ba6774d020c5670bb38dab65f3ab0",
          "transactionIndex": "0x78",
          "logIndex": "0x9b",
          "removed": false
        },
        {
          "address": "0x8aafd3ede9adb0ff97c7aebce82a919afb1c8764",
          "topics": [
            "0xddf252ad1be2c89b69c2b068fc378daa952ba7f163c4a11628f55a4df523b3ef",
            "0x000000000000000000000000c77f7fed3b5cc8249adc428c5f44c9063b9734b4",
            "0x000000000000000000000000c77f7fed3b5cc8249adc428c5f44c9063b9734b4"
          ],
          "data": "0x000000000000000000000000000000000000000000000000000000055e5ed2f9",
          "blockHash": "0x1cd4ed40e2e67214cfaae0f1c0585f024ba6cd0a06494781cb8c91999051f890",
          "blockNumber": "0x731770",
          "transactionHash": "0x8f4f0b6b3cacbf0ac8e960b700a729a9e57ba6774d020c5670bb38dab65f3ab0",
          "transactionIndex": "0x78",
          "logIndex": "0x9c",
          "removed": false
        },
        {
          "address": "0x8aafd3ede9adb0ff97c7aebce82a919afb1c8764",
          "topics": [
            "0x4afcb4a87cdbd9974efdb92ee48bc8d7cd0ae4bf217004db3d080cbaee652ca7"
          ],
          "data": "0x0000000000000000000000000000000000000000000000000000000067901604000000000000000000000000000000000000000000000000000504e586c6ffb700000000000000000000000000000000000000000000000000000000f2b4ebf2",
          "blockHash": "0x1cd4ed40e2e67214cfaae0f1c0585f024ba6cd0a06494781cb8c91999051f890",
          "blockNumber": "0x731770",
          "transactionHash": "0x8f4f0b6b3cacbf0ac8e960b700a729a9e57ba6774d020c5670bb38dab65f3ab0",
          "transactionIndex": "0x78",
          "logIndex": "0x9d",
          "removed": false
        }
      ],
      "logsBloom": "0x00000000000000000000000000000000000000000600000000000000000000000000000000000000000000000000000000000000000000004000000000000000000000000000004000000008000000000000000000000000000000000000000000000000020000000000000000000800020000000000000000000010000000000000000000000000000000000000000000000000000000000000010000000000000000000000000000000000000000004000000000000000000000000000000000000002000000800000000000000000000000000000080000000000000020000000000000000000000000000000000000000000000000000000000000000000",
      "type": "0x2",
      "transactionHash": "0x8f4f0b6b3cacbf0ac8e960b700a729a9e57ba6774d020c5670bb38dab65f3ab0",
      "transactionIndex": "0x78",
      "blockHash": "0x1cd4ed40e2e67214cfaae0f1c0585f024ba6cd0a06494781cb8c91999051f890",
      "blockNumber": "0x731770",
      "gasUsed": "0xfd27",
      "effectiveGasPrice": "0x47b4d30c",
      "from": "0xc77f7fed3b5cc8249adc428c5f44c9063b9734b4",
      "to": "0x8aafd3ede9adb0ff97c7aebce82a919afb1c8764",
      "contractAddress": null
    }
  ],
  "libraries": [],
  "pending": [],
  "returns": {},
  "timestamp": 1737496069,
  "chain": 11155111,
  "commit": "1d2fb70"
}