{
  "transactions": [
    {
      "hash": "0x4b4a8763edea4a7670cc73cf5b698b59ec2e7ce7bb3668604df83e4b49213169",
      "transactionType": "CALL",
      "contractName": null,
      "contractAddress": "0x5eb9cc76c3506942c1c0ead70e877dd5e4f00cb0",
      "function": "buy(address)",
      "arguments": [
        "0xC77f7fed3b5Cc8249aDc428c5F44C9063B9734b4"
      ],
      "transaction": {
        "from": "0xc77f7fed3b5cc8249adc428c5f44c9063b9734b4",
        "to": "0x5eb9cc76c3506942c1c0ead70e877dd5e4f00cb0",
        "gas": "0x156c8",
        "value": "0xde0b6b3a7640000",
        "input": "0xf088d547000000000000000000000000c77f7fed3b5cc8249adc428c5f44c9063b9734b4",
        "nonce": "0x175",
        "chainId": "0xaa36a7"
      },
      "additionalContracts": [],
      "isFixedGasLimit": false
    }
  ],
  "receipts": [
    {
      "status": "0x1",
      "cumulativeGasUsed": "0x5b5447",
      "logs": [
        {
          "address": "0x5eb9cc76c3506942c1c0ead70e877dd5e4f00cb0",
          "topics": [
            "0xddf252ad1be2c89b69c2b068fc378daa952ba7f163c4a11628f55a4df523b3ef",
            "0x0000000000000000000000000000000000000000000000000000000000000000",
            "0x000000000000000000000000c77f7fed3b5cc8249adc428c5f44c9063b9734b4"
          ],
          "data": "0x000000000000000000000000000000000000000000000035a6d3ce63e373ab26",
          "blockHash": "0xa51f1d272c84807b7927095f13c516e1b8ba664f0f1f682c3bbe4f2e513c8ab5",
          "blockNumber": "0x723c32",
          "transactionHash": "0x4b4a8763edea4a7670cc73cf5b698b59ec2e7ce7bb3668604df83e4b49213169",
          "transactionIndex": "0x3f",
          "logIndex": "0x67",
          "removed": false
        },
        {
          "address": "0x5eb9cc76c3506942c1c0ead70e877dd5e4f00cb0",
          "topics": [
            "0xddf252ad1be2c89b69c2b068fc378daa952ba7f163c4a11628f55a4df523b3ef",
            "0x0000000000000000000000000000000000000000000000000000000000000000",
            "0x000000000000000000000000c77f7fed3b5cc8249adc428c5f44c9063b9734b4"
          ],
          "data": "0x00000000000000000000000000000000000000000000000029a98fdb96a57d15",
          "blockHash": "0xa51f1d272c84807b7927095f13c516e1b8ba664f0f1f682c3bbe4f2e513c8ab5",
          "blockNumber": "0x723c32",
          "transactionHash": "0x4b4a8763edea4a7670cc73cf5b698b59ec2e7ce7bb3668604df83e4b49213169",
          "transactionIndex": "0x3f",
          "logIndex": "0x68",
          "removed": false
        },
        {
          "address": "0x5eb9cc76c3506942c1c0ead70e877dd5e4f00cb0",
          "topics": [
            "0x4afcb4a87cdbd9974efdb92ee48bc8d7cd0ae4bf217004db3d080cbaee652ca7"
          ],
          "data": "0x000000000000000000000000000000000000000000000000000000006785c3ac00000000000000000000000000000000000000000000000000038dc5927102d70000000000000000000000000000000000000000000000000de0b6b3a7640000",
          "blockHash": "0xa51f1d272c84807b7927095f13c516e1b8ba664f0f1f682c3bbe4f2e513c8ab5",
          "blockNumber": "0x723c32",
          "transactionHash": "0x4b4a8763edea4a7670cc73cf5b698b59ec2e7ce7bb3668604df83e4b49213169",
          "transactionIndex": "0x3f",
          "logIndex": "0x69",
          "removed": false
        }
      ],
      "logsBloom": "0x00000000000000000000000000000000000000000000000000000000000000000000000000000000000000000000000000000000000000004000000000000000000000000000000000000008000000000000000000000000000000000000000000000000020000000000000004000800020000000000000000000010000000000000000000000000000000000000000000000000000000000000010000000000000000000000000000000000000000004000000000000000000000000000020000000002000000800000008000000000000000000000080000000000000020000000000000000000000000000000000000000000000000000000000000000000",
      "type": "0x2",
      "transactionHash": "0x4b4a8763edea4a7670cc73cf5b698b59ec2e7ce7bb3668604df83e4b49213169",
      "transactionIndex": "0x3f",
      "blockHash": "0xa51f1d272c84807b7927095f13c516e1b8ba664f0f1f682c3bbe4f2e513c8ab5",
      "blockNumber": "0x723c32",
      "gasUsed": "0xf82c",
      "effectiveGasPrice": "0x1d4617935",
      "from": "0xc77f7fed3b5cc8249adc428c5f44c9063b9734b4",
      "to": "0x5eb9cc76c3506942c1c0ead70e877dd5e4f00cb0",
      "contractAddress": null
    }
  ],
  "libraries": [],
  "pending": [],
  "returns": {},
  "timestamp": 1736819629,
  "chain": 11155111,
  "commit": "51a374b"
}