{
  "transactions": [
    {
      "hash": "0x601efa70e598c25446b31b4d001aad5c2d8cac54728ab4a20254f3d41aad7e44",
      "transactionType": "CALL",
      "contractName": null,
      "contractAddress": "0xbf4a322f1496e5c3d34a9bcdb4c60567b38c7de2",
      "function": "sell(uint256)",
      "arguments": [
        "980442556812448079942"
      ],
      "transaction": {
        "from": "0xc77f7fed3b5cc8249adc428c5f44c9063b9734b4",
        "to": "0xbf4a322f1496e5c3d34a9bcdb4c60567b38c7de2",
        "gas": "0x16fea",
        "value": "0x0",
        "input": "0xe4849b32000000000000000000000000000000000000000000000035265faed049b5a046",
        "nonce": "0xbf7",
        "chainId": "0xaa36a7"
      },
      "additionalContracts": [],
      "isFixedGasLimit": false
    }
  ],
  "receipts": [
    {
      "status": "0x1",
      "cumulativeGasUsed": "0x211b25b",
      "logs": [
        {
          "address": "0xbf4a322f1496e5c3d34a9bcdb4c60567b38c7de2",
          "topics": [
            "0xddf252ad1be2c89b69c2b068fc378daa952ba7f163c4a11628f55a4df523b3ef",
            "0x000000000000000000000000c77f7fed3b5cc8249adc428c5f44c9063b9734b4",
            "0x0000000000000000000000000000000000000000000000000000000000000000"
          ],
          "data": "0x000000000000000000000000000000000000000000000035265faed049b5a046",
          "blockHash": "0xccf1f81b09b49882b4bf4ae21932cff2e6ebbdf8478f35e06454837f6043a15c",
          "blockNumber": "0x725c1f",
          "transactionHash": "0x601efa70e598c25446b31b4d001aad5c2d8cac54728ab4a20254f3d41aad7e44",
          "transactionIndex": "0xd2",
          "logIndex": "0x142",
          "removed": false
        },
        {
          "address": "0xbf4a322f1496e5c3d34a9bcdb4c60567b38c7de2",
          "topics": [
            "0x4afcb4a87cdbd9974efdb92ee48bc8d7cd0ae4bf217004db3d080cbaee652ca7"
          ],
          "data": "0x00000000000000000000000000000000000000000000000000000000678743d00000000000000000000000000000000000000000000000000003992be693cc8c0000000000000000000000000000000000000000000000000dc7e3e3186422ba",
          "blockHash": "0xccf1f81b09b49882b4bf4ae21932cff2e6ebbdf8478f35e06454837f6043a15c",
          "blockNumber": "0x725c1f",
          "transactionHash": "0x601efa70e598c25446b31b4d001aad5c2d8cac54728ab4a20254f3d41aad7e44",
          "transactionIndex": "0xd2",
          "logIndex": "0x143",
          "removed": false
        }
      ],
      "logsBloom": "0x00000000000000000000000000000000000000000000000000000000000000000000000000000000000000000000000000000000000000004000000000000000000000000000000000000008000000000000001000000000000000000000000000000000020000000000000000000800020000000000000000000010000000000000000000000000000000000000000000000000000008000000010000000000000000000000000000000000000000004000000000000000000000000000000000000002000000800000000000001000000000000000080000000000000020000000000000000000000000000000000000000000000000000000000000000000",
      "type": "0x2",
      "transactionHash": "0x601efa70e598c25446b31b4d001aad5c2d8cac54728ab4a20254f3d41aad7e44",
      "transactionIndex": "0xd2",
      "blockHash": "0xccf1f81b09b49882b4bf4ae21932cff2e6ebbdf8478f35e06454837f6043a15c",
      "blockNumber": "0x725c1f",
      "gasUsed": "0xfb91",
      "effectiveGasPrice": "0xccc50df9",
      "from": "0xc77f7fed3b5cc8249adc428c5f44c9063b9734b4",
      "to": "0xbf4a322f1496e5c3d34a9bcdb4c60567b38c7de2",
      "contractAddress": null
    }
  ],
  "libraries": [],
  "pending": [],
  "returns": {},
  "timestamp": 1736917969,
  "chain": 11155111,
  "commit": "51a374b"
}