{
  "transactions": [
    {
      "hash": "0x71eff5955594d6378816badd8c8e2c8d668236a793bf6bf6c390e7b985c026d8",
      "transactionType": "CALL",
      "contractName": null,
      "contractAddress": "0x5eb9cc76c3506942c1c0ead70e877dd5e4f00cb0",
      "function": "buy(address)",
      "arguments": [
        "0xC77f7fed3b5Cc8249aDc428c5F44C9063B9734b4"
      ],
      "transaction": {
        "from": "0xc77f7fed3b5cc8249adc428c5f44c9063b9734b4",
        "to": "0x5eb9cc76c3506942c1c0ead70e877dd5e4f00cb0",
        "gas": "0x156c8",
        "value": "0xde0b6b3a7640000",
        "input": "0xf088d547000000000000000000000000c77f7fed3b5cc8249adc428c5f44c9063b9734b4",
        "nonce": "0x204",
        "chainId": "0xaa36a7"
      },
      "additionalContracts": [],
      "isFixedGasLimit": false
    }
  ],
  "receipts": [
    {
      "status": "0x1",
      "cumulativeGasUsed": "0x870c6e",
      "logs": [
        {
          "address": "0x5eb9cc76c3506942c1c0ead70e877dd5e4f00cb0",
          "topics": [
            "0xddf252ad1be2c89b69c2b068fc378daa952ba7f163c4a11628f55a4df523b3ef",
            "0x0000000000000000000000000000000000000000000000000000000000000000",
            "0x000000000000000000000000c77f7fed3b5cc8249adc428c5f44c9063b9734b4"
          ],
          "data": "0x00000000000000000000000000000000000000000000003584bb60f77a2485ef",
          "blockHash": "0x5088a99267193faf1c443275b196be8d2ee61012bfa921ff8bc4e83be1b567ad",
          "blockNumber": "0x724b1f",
          "transactionHash": "0x71eff5955594d6378816badd8c8e2c8d668236a793bf6bf6c390e7b985c026d8",
          "transactionIndex": "0x4a",
          "logIndex": "0xf5",
          "removed": false
        },
        {
          "address": "0x5eb9cc76c3506942c1c0ead70e877dd5e4f00cb0",
          "topics": [
            "0xddf252ad1be2c89b69c2b068fc378daa952ba7f163c4a11628f55a4df523b3ef",
            "0x0000000000000000000000000000000000000000000000000000000000000000",
            "0x000000000000000000000000c77f7fed3b5cc8249adc428c5f44c9063b9734b4"
          ],
          "data": "0x000000000000000000000000000000000000000000000000298f15efa6c22aaa",
          "blockHash": "0x5088a99267193faf1c443275b196be8d2ee61012bfa921ff8bc4e83be1b567ad",
          "blockNumber": "0x724b1f",
          "transactionHash": "0x71eff5955594d6378816badd8c8e2c8d668236a793bf6bf6c390e7b985c026d8",
          "transactionIndex": "0x4a",
          "logIndex": "0xf6",
          "removed": false
        },
        {
          "address": "0x5eb9cc76c3506942c1c0ead70e877dd5e4f00cb0",
          "topics": [
            "0x4afcb4a87cdbd9974efdb92ee48bc8d7cd0ae4bf217004db3d080cbaee652ca7"
          ],
          "data": "0x000000000000000000000000000000000000000000000000000000006786771c000000000000000000000000000000000000000000000000000390092afe14100000000000000000000000000000000000000000000000000de0b6b3a7640000",
          "blockHash": "0x5088a99267193faf1c443275b196be8d2ee61012bfa921ff8bc4e83be1b567ad",
          "blockNumber": "0x724b1f",
          "transactionHash": "0x71eff5955594d6378816badd8c8e2c8d668236a793bf6bf6c390e7b985c026d8",
          "transactionIndex": "0x4a",
          "logIndex": "0xf7",
          "removed": false
        }
      ],
      "logsBloom": "0x00000000000000000000000000000000000000000000000000000000000000000000000000000000000000000000000000000000000000004000000000000000000000000000000000000008000000000000000000000000000000000000000000000000020000000000000004000800020000000000000000000010000000000000000000000000000000000000000000000000000000000000010000000000000000000000000000000000000000004000000000000000000000000000020000000002000000800000008000000000000000000000080000000000000020000000000000000000000000000000000000000000000000000000000000000000",
      "type": "0x2",
      "transactionHash": "0x71eff5955594d6378816badd8c8e2c8d668236a793bf6bf6c390e7b985c026d8",
      "transactionIndex": "0x4a",
      "blockHash": "0x5088a99267193faf1c443275b196be8d2ee61012bfa921ff8bc4e83be1b567ad",
      "blockNumber": "0x724b1f",
      "gasUsed": "0xf82c",
      "effectiveGasPrice": "0x5bfc63b68",
      "from": "0xc77f7fed3b5cc8249adc428c5f44c9063b9734b4",
      "to": "0x5eb9cc76c3506942c1c0ead70e877dd5e4f00cb0",
      "contractAddress": null
    }
  ],
  "libraries": [],
  "pending": [],
  "returns": {},
  "timestamp": 1736865565,
  "chain": 11155111,
  "commit": "51a374b"
}