{
  "transactions": [
    {
      "hash": "0xac22009923bff63984db16eaa856bb019819359c8b8761bde53a44f5bb1a5a16",
      "transactionType": "CALL",
      "contractName": null,
      "contractAddress": "0xa5b1f53b4ef5905378e41fb2dc377edc25d7850d",
      "function": "buy(address)",
      "arguments": [
        "0xC77f7fed3b5Cc8249aDc428c5F44C9063B9734b4"
      ],
      "transaction": {
        "from": "0xc77f7fed3b5cc8249adc428c5f44c9063b9734b4",
        "to": "0xa5b1f53b4ef5905378e41fb2dc377edc25d7850d",
        "gas": "0x1f76c",
        "value": "0xde0b6b3a7640000",
        "input": "0xf088d547000000000000000000000000c77f7fed3b5cc8249adc428c5f44c9063b9734b4",
        "nonce": "0x1859",
        "chainId": "0xaa36a7"
      },
      "additionalContracts": [],
      "isFixedGasLimit": false
    }
  ],
  "receipts": [
    {
      "status": "0x1",
      "cumulativeGasUsed": "0xa18da2",
      "logs": [
        {
          "address": "0xa5b1f53b4ef5905378e41fb2dc377edc25d7850d",
          "topics": [
            "0xddf252ad1be2c89b69c2b068fc378daa952ba7f163c4a11628f55a4df523b3ef",
            "0x0000000000000000000000000000000000000000000000000000000000000000",
            "0x000000000000000000000000c77f7fed3b5cc8249adc428c5f44c9063b9734b4"
          ],
          "data": "0x000000000000000000000000000000000000000000000035ab028ac154c71b30",
          "blockHash": "0xb1d379dedc00cd6b3b1b4e8afc3154a6956723ead30d3f80d6bfde89bfb12bc1",
          "blockNumber": "0x736387",
          "transactionHash": "0xac22009923bff63984db16eaa856bb019819359c8b8761bde53a44f5bb1a5a16",
          "transactionIndex": "0x67",
          "logIndex": "0xa2",
          "removed": false
        },
        {
          "address": "0xa5b1f53b4ef5905378e41fb2dc377edc25d7850d",
          "topics": [
            "0xddf252ad1be2c89b69c2b068fc378daa952ba7f163c4a11628f55a4df523b3ef",
            "0x0000000000000000000000000000000000000000000000000000000000000000",
            "0x000000000000000000000000c77f7fed3b5cc8249adc428c5f44c9063b9734b4"
          ],
          "data": "0x00000000000000000000000000000000000000000000000029accf52156cec36",
          "blockHash": "0xb1d379dedc00cd6b3b1b4e8afc3154a6956723ead30d3f80d6bfde89bfb12bc1",
          "blockNumber": "0x736387",
          "transactionHash": "0xac22009923bff63984db16eaa856bb019819359c8b8761bde53a44f5bb1a5a16",
          "transactionIndex": "0x67",
          "logIndex": "0xa3",
          "removed": false
        },
        {
          "address": "0xa5b1f53b4ef5905378e41fb2dc377edc25d7850d",
          "topics": [
            "0x4afcb4a87cdbd9974efdb92ee48bc8d7cd0ae4bf217004db3d080cbaee652ca7"
          ],
          "data": "0x000000000000000000000000000000000000000000000000000000006793c0b0000000000000000000000000000000000000000000000000000393d6e1a1f5be0000000000000000000000000000000000000000000000000de0b6b3a7640000",
          "blockHash": "0xb1d379dedc00cd6b3b1b4e8afc3154a6956723ead30d3f80d6bfde89bfb12bc1",
          "blockNumber": "0x736387",
          "transactionHash": "0xac22009923bff63984db16eaa856bb019819359c8b8761bde53a44f5bb1a5a16",
          "transactionIndex": "0x67",
          "logIndex": "0xa4",
          "removed": false
        }
      ],
      "logsBloom": "0x00000000000000000400000000000000000000000000000000000000000000000000000000000000000000000000000000000000000000004000000000000000000000000000000000000008000000000000000000000000000000000000000000000000020000000000000000000800020000000000000000000010000000000000000000000000000000000000000000000000000000000000010000000000000000000000000002000000000000004000000000000000000000000000000000000002000000800000000000000000000000000000080000000000000028000000000000000000000000000000000000000000000000000000000000000000",
      "type": "0x2",
      "transactionHash": "0xac22009923bff63984db16eaa856bb019819359c8b8761bde53a44f5bb1a5a16",
      "transactionIndex": "0x67",
      "blockHash": "0xb1d379dedc00cd6b3b1b4e8afc3154a6956723ead30d3f80d6bfde89bfb12bc1",
      "blockNumber": "0x736387",
      "gasUsed": "0x15839",
      "effectiveGasPrice": "0x1156b2ee4d",
      "from": "0xc77f7fed3b5cc8249adc428c5f44c9063b9734b4",
      "to": "0xa5b1f53b4ef5905378e41fb2dc377edc25d7850d",
      "contractAddress": null
    }
  ],
  "libraries": [],
  "pending": [],
  "returns": {},
  "timestamp": 1737736369,
  "chain": 11155111,
  "commit": "f5162e9"
}