{
  "transactions": [
    {
      "hash": "0xd819b03b8bcd6f6d3ca2dc07b91660253dbdeaa2636a52c942181784808ebec4",
      "transactionType": "CALL",
      "contractName": null,
      "contractAddress": "0x5eb9cc76c3506942c1c0ead70e877dd5e4f00cb0",
      "function": "buy(address)",
      "arguments": [
        "0xC77f7fed3b5Cc8249aDc428c5F44C9063B9734b4"
      ],
      "transaction": {
        "from": "0xc77f7fed3b5cc8249adc428c5f44c9063b9734b4",
        "to": "0x5eb9cc76c3506942c1c0ead70e877dd5e4f00cb0",
        "gas": "0x156c8",
        "value": "0xde0b6b3a7640000",
        "input": "0xf088d547000000000000000000000000c77f7fed3b5cc8249adc428c5f44c9063b9734b4",
        "nonce": "0x128",
        "chainId": "0xaa36a7"
      },
      "additionalContracts": [],
      "isFixedGasLimit": false
    }
  ],
  "receipts": [
    {
      "status": "0x1",
      "cumulativeGasUsed": "0xa55502",
      "logs": [
        {
          "address": "0x5eb9cc76c3506942c1c0ead70e877dd5e4f00cb0",
          "topics": [
            "0xddf252ad1be2c89b69c2b068fc378daa952ba7f163c4a11628f55a4df523b3ef",
            "0x0000000000000000000000000000000000000000000000000000000000000000",
            "0x000000000000000000000000c77f7fed3b5cc8249adc428c5f44c9063b9734b4"
          ],
          "data": "0x000000000000000000000000000000000000000000000035ab028367b44e4070",
          "blockHash": "0x42f4c7ad3ed2bff7ed537f280296cfbc90c55d4445d708f70a25b1b6a741ac8d",
          "blockNumber": "0x723b05",
          "transactionHash": "0xd819b03b8bcd6f6d3ca2dc07b91660253dbdeaa2636a52c942181784808ebec4",
          "transactionIndex": "0x57",
          "logIndex": "0x98",
          "removed": false
        },
        {
          "address": "0x5eb9cc76c3506942c1c0ead70e877dd5e4f00cb0",
          "topics": [
            "0xddf252ad1be2c89b69c2b068fc378daa952ba7f163c4a11628f55a4df523b3ef",
            "0x0000000000000000000000000000000000000000000000000000000000000000",
            "0x000000000000000000000000c77f7fed3b5cc8249adc428c5f44c9063b9734b4"
          ],
          "data": "0x00000000000000000000000000000000000000000000000029accf4c60472e78",
          "blockHash": "0x42f4c7ad3ed2bff7ed537f280296cfbc90c55d4445d708f70a25b1b6a741ac8d",
          "blockNumber": "0x723b05",
          "transactionHash": "0xd819b03b8bcd6f6d3ca2dc07b91660253dbdeaa2636a52c942181784808ebec4",
          "transactionIndex": "0x57",
          "logIndex": "0x99",
          "removed": false
        },
        {
          "address": "0x5eb9cc76c3506942c1c0ead70e877dd5e4f00cb0",
          "topics": [
            "0x4afcb4a87cdbd9974efdb92ee48bc8d7cd0ae4bf217004db3d080cbaee652ca7"
          ],
          "data": "0x000000000000000000000000000000000000000000000000000000006785b59000000000000000000000000000000000000000000000000000038d7eac3674d80000000000000000000000000000000000000000000000000de0b6b3a7640000",
          "blockHash": "0x42f4c7ad3ed2bff7ed537f280296cfbc90c55d4445d708f70a25b1b6a741ac8d",
          "blockNumber": "0x723b05",
          "transactionHash": "0xd819b03b8bcd6f6d3ca2dc07b91660253dbdeaa2636a52c942181784808ebec4",
          "transactionIndex": "0x57",
          "logIndex": "0x9a",
          "removed": false
        }
      ],
      "logsBloom": "0x00000000000000000000000000000000000000000000000000000000000000000000000000000000000000000000000000000000000000004000000000000000000000000000000000000008000000000000000000000000000000000000000000000000020000000000000004000800020000000000000000000010000000000000000000000000000000000000000000000000000000000000010000000000000000000000000000000000000000004000000000000000000000000000020000000002000000800000008000000000000000000000080000000000000020000000000000000000000000000000000000000000000000000000000000000000",
      "type": "0x2",
      "transactionHash": "0xd819b03b8bcd6f6d3ca2dc07b91660253dbdeaa2636a52c942181784808ebec4",
      "transactionIndex": "0x57",
      "blockHash": "0x42f4c7ad3ed2bff7ed537f280296cfbc90c55d4445d708f70a25b1b6a741ac8d",
      "blockNumber": "0x723b05",
      "gasUsed": "0xf82c",
      "effectiveGasPrice": "0x23232860e",
      "from": "0xc77f7fed3b5cc8249adc428c5f44c9063b9734b4",
      "to": "0x5eb9cc76c3506942c1c0ead70e877dd5e4f00cb0",
      "contractAddress": null
    }
  ],
  "libraries": [],
  "pending": [],
  "returns": {},
  "timestamp": 1736816017,
  "chain": 11155111,
  "commit": "51a374b"
}