{
  "transactions": [
    {
      "hash": "0xf67d711861ae89f98bc6c7d6976b1d1a1e36019ef56669bb2543007383d72d63",
      "transactionType": "CALL",
      "contractName": null,
      "contractAddress": "0xd7bc75898e513accccf720a874d44dab5a4b6223",
      "function": "sell(uint256)",
      "arguments": [
        "9929992421562139249"
      ],
      "transaction": {
        "from": "0xc77f7fed3b5cc8249adc428c5f44c9063b9734b4",
        "to": "0xd7bc75898e513accccf720a874d44dab5a4b6223",
        "gas": "0x15b6b",
        "value": "0x0",
        "input": "0xe4849b3200000000000000000000000000000000000000000000000089ce6b7efd884271",
        "nonce": "0xbd",
        "chainId": "0xaa36a7"
      },
      "additionalContracts": [],
      "isFixedGasLimit": false
    }
  ],
  "receipts": [
    {
      "status": "0x1",
      "cumulativeGasUsed": "0x98dc13",
      "logs": [
        {
          "address": "0xd7bc75898e513accccf720a874d44dab5a4b6223",
          "topics": [
            "0xddf252ad1be2c89b69c2b068fc378daa952ba7f163c4a11628f55a4df523b3ef",
            "0x000000000000000000000000c77f7fed3b5cc8249adc428c5f44c9063b9734b4",
            "0x0000000000000000000000000000000000000000000000000000000000000000"
          ],
          "data": "0x00000000000000000000000000000000000000000000000089ce6b7efd884271",
          "blockHash": "0xe8284419adee446dbae7ef8f776b6b07ab9bb1ce371f0a5b65743b5c2baeb378",
          "blockNumber": "0x723939",
          "transactionHash": "0xf67d711861ae89f98bc6c7d6976b1d1a1e36019ef56669bb2543007383d72d63",
          "transactionIndex": "0x45",
          "logIndex": "0x72",
          "removed": false
        },
        {
          "address": "0xd7bc75898e513accccf720a874d44dab5a4b6223",
          "topics": [
            "0x4afcb4a87cdbd9974efdb92ee48bc8d7cd0ae4bf217004db3d080cbaee652ca7"
          ],
          "data": "0x0000000000000000000000000000000000000000000000000000000067859ff400000000000000000000000000000000000000000000000000038d7f86b663ae0000000000000000000000000000000000000000000000000023474f493d2798",
          "blockHash": "0xe8284419adee446dbae7ef8f776b6b07ab9bb1ce371f0a5b65743b5c2baeb378",
          "blockNumber": "0x723939",
          "transactionHash": "0xf67d711861ae89f98bc6c7d6976b1d1a1e36019ef56669bb2543007383d72d63",
          "transactionIndex": "0x45",
          "logIndex": "0x73",
          "removed": false
        }
      ],
      "logsBloom": "0x00000000000000000000000000000000000000000000000000000000000000000000000000000000000000000000000000000000000000004000000000000000000000000000000000000008000000000000000000000000000000000000000000000000020000000000000000000800020000000000000000000010000000000000000000000000000000000000000000000000000000000000010000000000000000000000000000000000000000004000001000000000000000000000000000000002000000800000000000004000000000000000080000000000000020000000000000000000000000000000000000000000080000000000000000000000",
      "type": "0x2",
      "transactionHash": "0xf67d711861ae89f98bc6c7d6976b1d1a1e36019ef56669bb2543007383d72d63",
      "transactionIndex": "0x45",
      "blockHash": "0xe8284419adee446dbae7ef8f776b6b07ab9bb1ce371f0a5b65743b5c2baeb378",
      "blockNumber": "0x723939",
      "gasUsed": "0xfb87",
      "effectiveGasPrice": "0x1fcc45fa",
      "from": "0xc77f7fed3b5cc8249adc428c5f44c9063b9734b4",
      "to": "0xd7bc75898e513accccf720a874d44dab5a4b6223",
      "contractAddress": null
    }
  ],
  "libraries": [],
  "pending": [],
  "returns": {},
  "timestamp": 1736810486,
  "chain": 11155111,
  "commit": "51a374b"
}