{
  "transactions": [
    {
      "hash": "0x1ede0becf750347ba5d13637436d8544f032b0249a64a39172764bf5da654d27",
      "transactionType": "CALL",
      "contractName": null,
      "contractAddress": "0x270e88f8683660553e8ba4eb2ad7c91a1710d769",
      "function": "sell(uint256)",
      "arguments": [
        "940655158544584379530"
      ],
      "transaction": {
        "from": "0xc77f7fed3b5cc8249adc428c5f44c9063b9734b4",
        "to": "0x270e88f8683660553e8ba4eb2ad7c91a1710d769",
        "gas": "0x16fec",
        "value": "0x0",
        "input": "0xe4849b32000000000000000000000000000000000000000000000032fe3672e444b38c8a",
        "nonce": "0x62f",
        "chainId": "0xaa36a7"
      },
      "additionalContracts": [],
      "isFixedGasLimit": false
    }
  ],
  "receipts": [
    {
      "status": "0x1",
      "cumulativeGasUsed": "0x70f426",
      "logs": [
        {
          "address": "0x270e88f8683660553e8ba4eb2ad7c91a1710d769",
          "topics": [
            "0xddf252ad1be2c89b69c2b068fc378daa952ba7f163c4a11628f55a4df523b3ef",
            "0x000000000000000000000000c77f7fed3b5cc8249adc428c5f44c9063b9734b4",
            "0x0000000000000000000000000000000000000000000000000000000000000000"
          ],
          "data": "0x000000000000000000000000000000000000000000000032fe3672e444b38c8a",
          "blockHash": "0xbec64d96bb4485dad95f1ab254e7cfdeb9430fe051b006e7b203d31ee4f7fc20",
          "blockNumber": "0x725300",
          "transactionHash": "0x1ede0becf750347ba5d13637436d8544f032b0249a64a39172764bf5da654d27",
          "transactionIndex": "0x41",
          "logIndex": "0x80",
          "removed": false
        },
        {
          "address": "0x270e88f8683660553e8ba4eb2ad7c91a1710d769",
          "topics": [
            "0x4afcb4a87cdbd9974efdb92ee48bc8d7cd0ae4bf217004db3d080cbaee652ca7"
          ],
          "data": "0x000000000000000000000000000000000000000000000000000000006786d6080000000000000000000000000000000000000000000000000003c066ab55ea0c0000000000000000000000000000000000000000000000000dc83d32b3595b15",
          "blockHash": "0xbec64d96bb4485dad95f1ab254e7cfdeb9430fe051b006e7b203d31ee4f7fc20",
          "blockNumber": "0x725300",
          "transactionHash": "0x1ede0becf750347ba5d13637436d8544f032b0249a64a39172764bf5da654d27",
          "transactionIndex": "0x41",
          "logIndex": "0x81",
          "removed": false
        }
      ],
      "logsBloom": "0x00000000000000000000000000000000000000000000000000000000000000000000000000000000000000000000000020000000000000004000000000000000000000000000000000000008000000000000000000000000000000000000000000000000020000000000000000000800020000000000000000000010000000000000000000010000000000000000000000000000000000000000010000000000000000000000000000000000000000004000000000000000000000000000000000000002000000800000000000000000000000000000080000008000000020000000000000000000000000000000000000000000000000000000000000000000",
      "type": "0x2",
      "transactionHash": "0x1ede0becf750347ba5d13637436d8544f032b0249a64a39172764bf5da654d27",
      "transactionIndex": "0x41",
      "blockHash": "0xbec64d96bb4485dad95f1ab254e7cfdeb9430fe051b006e7b203d31ee4f7fc20",
      "blockNumber": "0x725300",
      "gasUsed": "0xfb93",
      "effectiveGasPrice": "0x2bf9706f3",
      "from": "0xc77f7fed3b5cc8249adc428c5f44c9063b9734b4",
      "to": "0x270e88f8683660553e8ba4eb2ad7c91a1710d769",
      "contractAddress": null
    }
  ],
  "libraries": [],
  "pending": [],
  "returns": {},
  "timestamp": 1736889865,
  "chain": 11155111,
  "commit": "51a374b"
}