{
  "transactions": [
    {
      "hash": "0x678ec58b4eaa502ef72076ebde56c731fff485e88525abba21305c39b767fa8a",
      "transactionType": "CALL",
      "contractName": null,
      "contractAddress": "0x270e88f8683660553e8ba4eb2ad7c91a1710d769",
      "function": "sell(uint256)",
      "arguments": [
        "971441798810952249262"
      ],
      "transaction": {
        "from": "0xc77f7fed3b5cc8249adc428c5f44c9063b9734b4",
        "to": "0x270e88f8683660553e8ba4eb2ad7c91a1710d769",
        "gas": "0x16fec",
        "value": "0x0",
        "input": "0xe4849b32000000000000000000000000000000000000000000000034a97691196d4bafae",
        "nonce": "0x55f",
        "chainId": "0xaa36a7"
      },
      "additionalContracts": [],
      "isFixedGasLimit": false
    }
  ],
  "receipts": [
    {
      "status": "0x1",
      "cumulativeGasUsed": "0x79f9db",
      "logs": [
        {
          "address": "0x270e88f8683660553e8ba4eb2ad7c91a1710d769",
          "topics": [
            "0xddf252ad1be2c89b69c2b068fc378daa952ba7f163c4a11628f55a4df523b3ef",
            "0x000000000000000000000000c77f7fed3b5cc8249adc428c5f44c9063b9734b4",
            "0x0000000000000000000000000000000000000000000000000000000000000000"
          ],
          "data": "0x000000000000000000000000000000000000000000000034a97691196d4bafae",
          "blockHash": "0x7a4bfbc81556f650505d6d7fdb4906ccf581af0b72eb975a3a532cadf49e4437",
          "blockNumber": "0x725203",
          "transactionHash": "0x678ec58b4eaa502ef72076ebde56c731fff485e88525abba21305c39b767fa8a",
          "transactionIndex": "0x3f",
          "logIndex": "0x5f",
          "removed": false
        },
        {
          "address": "0x270e88f8683660553e8ba4eb2ad7c91a1710d769",
          "topics": [
            "0x4afcb4a87cdbd9974efdb92ee48bc8d7cd0ae4bf217004db3d080cbaee652ca7"
          ],
          "data": "0x000000000000000000000000000000000000000000000000000000006786ca140000000000000000000000000000000000000000000000000003a1f9396cb1380000000000000000000000000000000000000000000000000dc8405c99ef88b1",
          "blockHash": "0x7a4bfbc81556f650505d6d7fdb4906ccf581af0b72eb975a3a532cadf49e4437",
          "blockNumber": "0x725203",
          "transactionHash": "0x678ec58b4eaa502ef72076ebde56c731fff485e88525abba21305c39b767fa8a",
          "transactionIndex": "0x3f",
          "logIndex": "0x60",
          "removed": false
        }
      ],
      "logsBloom": "0x00000000000000000000000000000000000000000000000000000000000000000000000000000000000000000000000020000000000000004000000000000000000000000000000000000008000000000000000000000000000000000000000000000000020000000000000000000800020000000000000000000010000000000000000000010000000000000000000000000000000000000000010000000000000000000000000000000000000000004000000000000000000000000000000000000002000000800000000000000000000000000000080000008000000020000000000000000000000000000000000000000000000000000000000000000000",
      "type": "0x2",
      "transactionHash": "0x678ec58b4eaa502ef72076ebde56c731fff485e88525abba21305c39b767fa8a",
      "transactionIndex": "0x3f",
      "blockHash": "0x7a4bfbc81556f650505d6d7fdb4906ccf581af0b72eb975a3a532cadf49e4437",
      "blockNumber": "0x725203",
      "gasUsed": "0xfb93",
      "effectiveGasPrice": "0x46af145e7",
      "from": "0xc77f7fed3b5cc8249adc428c5f44c9063b9734b4",
      "to": "0x270e88f8683660553e8ba4eb2ad7c91a1710d769",
      "contractAddress": null
    }
  ],
  "libraries": [],
  "pending": [],
  "returns": {},
  "timestamp": 1736886806,
  "chain": 11155111,
  "commit": "51a374b"
}