{
  "transactions": [
    {
      "hash": "0x15868594ac22c4362a6c104efe709d675cefb8d06d0464d25de0384f2e4bd7e8",
      "transactionType": "CALL",
      "contractName": null,
      "contractAddress": "0x270e88f8683660553e8ba4eb2ad7c91a1710d769",
      "function": "sell(uint256)",
      "arguments": [
        "723605316278919271548"
      ],
      "transaction": {
        "from": "0xc77f7fed3b5cc8249adc428c5f44c9063b9734b4",
        "to": "0x270e88f8683660553e8ba4eb2ad7c91a1710d769",
        "gas": "0x16fec",
        "value": "0x0",
        "input": "0xe4849b320000000000000000000000000000000000000000000000273a0a8154952a947c",
        "nonce": "0x7f8",
        "chainId": "0xaa36a7"
      },
      "additionalContracts": [],
      "isFixedGasLimit": false
    }
  ],
  "receipts": [
    {
      "status": "0x1",
      "cumulativeGasUsed": "0x6878a0",
      "logs": [
        {
          "address": "0x270e88f8683660553e8ba4eb2ad7c91a1710d769",
          "topics": [
            "0xddf252ad1be2c89b69c2b068fc378daa952ba7f163c4a11628f55a4df523b3ef",
            "0x000000000000000000000000c77f7fed3b5cc8249adc428c5f44c9063b9734b4",
            "0x0000000000000000000000000000000000000000000000000000000000000000"
          ],
          "data": "0x0000000000000000000000000000000000000000000000273a0a8154952a947c",
          "blockHash": "0xbbc0fd925e9776914c34d042b1dbd383ef568b5f1a38eb3c9f0cd576610abe2d",
          "blockNumber": "0x725535",
          "transactionHash": "0x15868594ac22c4362a6c104efe709d675cefb8d06d0464d25de0384f2e4bd7e8",
          "transactionIndex": "0x43",
          "logIndex": "0x63",
          "removed": false
        },
        {
          "address": "0x270e88f8683660553e8ba4eb2ad7c91a1710d769",
          "topics": [
            "0x4afcb4a87cdbd9974efdb92ee48bc8d7cd0ae4bf217004db3d080cbaee652ca7"
          ],
          "data": "0x000000000000000000000000000000000000000000000000000000006786f0840000000000000000000000000000000000000000000000000004e0644eb61b9a0000000000000000000000000000000000000000000000000dc826cd7d79934c",
          "blockHash": "0xbbc0fd925e9776914c34d042b1dbd383ef568b5f1a38eb3c9f0cd576610abe2d",
          "blockNumber": "0x725535",
          "transactionHash": "0x15868594ac22c4362a6c104efe709d675cefb8d06d0464d25de0384f2e4bd7e8",
          "transactionIndex": "0x43",
          "logIndex": "0x64",
          "removed": false
        }
      ],
      "logsBloom": "0x00000000000000000000000000000000000000000000000000000000000000000000000000000000000000000000000020000000000000004000000000000000000000000000000000000008000000000000000000000000000000000000000000000000020000000000000000000800020000000000000000000010000000000000000000010000000000000000000000000000000000000000010000000000000000000000000000000000000000004000000000000000000000000000000000000002000000800000000000000000000000000000080000008000000020000000000000000000000000000000000000000000000000000000000000000000",
      "type": "0x2",
      "transactionHash": "0x15868594ac22c4362a6c104efe709d675cefb8d06d0464d25de0384f2e4bd7e8",
      "transactionIndex": "0x43",
      "blockHash": "0xbbc0fd925e9776914c34d042b1dbd383ef568b5f1a38eb3c9f0cd576610abe2d",
      "blockNumber": "0x725535",
      "gasUsed": "0xfb93",
      "effectiveGasPrice": "0x994e3db3",
      "from": "0xc77f7fed3b5cc8249adc428c5f44c9063b9734b4",
      "to": "0x270e88f8683660553e8ba4eb2ad7c91a1710d769",
      "contractAddress": null
    }
  ],
  "libraries": [],
  "pending": [],
  "returns": {},
  "timestamp": 1736896646,
  "chain": 11155111,
  "commit": "51a374b"
}