{
  "transactions": [
    {
      "hash": "0xe06fa7cafcdcd93194e5d53db5d6ce7e3bf0a91250d56bd17b9ce7882fa23816",
      "transactionType": "CALL",
      "contractName": null,
      "contractAddress": "0x270e88f8683660553e8ba4eb2ad7c91a1710d769",
      "function": "sell(uint256)",
      "arguments": [
        "723096118448292634585"
      ],
      "transaction": {
        "from": "0xc77f7fed3b5cc8249adc428c5f44c9063b9734b4",
        "to": "0x270e88f8683660553e8ba4eb2ad7c91a1710d769",
        "gas": "0x16fec",
        "value": "0x0",
        "input": "0xe4849b3200000000000000000000000000000000000000000000002732f97899ee441fd9",
        "nonce": "0x7fe",
        "chainId": "0xaa36a7"
      },
      "additionalContracts": [],
      "isFixedGasLimit": false
    }
  ],
  "receipts": [
    {
      "status": "0x1",
      "cumulativeGasUsed": "0x75cd2f",
      "logs": [
        {
          "address": "0x270e88f8683660553e8ba4eb2ad7c91a1710d769",
          "topics": [
            "0xddf252ad1be2c89b69c2b068fc378daa952ba7f163c4a11628f55a4df523b3ef",
            "0x000000000000000000000000c77f7fed3b5cc8249adc428c5f44c9063b9734b4",
            "0x0000000000000000000000000000000000000000000000000000000000000000"
          ],
          "data": "0x00000000000000000000000000000000000000000000002732f97899ee441fd9",
          "blockHash": "0xd8197499863d8585d25199e0f1b43ae1ce6010fd0bef8f2a2dc3e032a8440191",
          "blockNumber": "0x72553b",
          "transactionHash": "0xe06fa7cafcdcd93194e5d53db5d6ce7e3bf0a91250d56bd17b9ce7882fa23816",
          "transactionIndex": "0x55",
          "logIndex": "0x70",
          "removed": false
        },
        {
          "address": "0x270e88f8683660553e8ba4eb2ad7c91a1710d769",
          "topics": [
            "0x4afcb4a87cdbd9974efdb92ee48bc8d7cd0ae4bf217004db3d080cbaee652ca7"
          ],
          "data": "0x000000000000000000000000000000000000000000000000000000006786f0cc0000000000000000000000000000000000000000000000000004e1454e5d0b710000000000000000000000000000000000000000000000000dc826bffdead767",
          "blockHash": "0xd8197499863d8585d25199e0f1b43ae1ce6010fd0bef8f2a2dc3e032a8440191",
          "blockNumber": "0x72553b",
          "transactionHash": "0xe06fa7cafcdcd93194e5d53db5d6ce7e3bf0a91250d56bd17b9ce7882fa23816",
          "transactionIndex": "0x55",
          "logIndex": "0x71",
          "removed": false
        }
      ],
      "logsBloom": "0x00000000000000000000000000000000000000000000000000000000000000000000000000000000000000000000000020000000000000004000000000000000000000000000000000000008000000000000000000000000000000000000000000000000020000000000000000000800020000000000000000000010000000000000000000010000000000000000000000000000000000000000010000000000000000000000000000000000000000004000000000000000000000000000000000000002000000800000000000000000000000000000080000008000000020000000000000000000000000000000000000000000000000000000000000000000",
      "type": "0x2",
      "transactionHash": "0xe06fa7cafcdcd93194e5d53db5d6ce7e3bf0a91250d56bd17b9ce7882fa23816",
      "transactionIndex": "0x55",
      "blockHash": "0xd8197499863d8585d25199e0f1b43ae1ce6010fd0bef8f2a2dc3e032a8440191",
      "blockNumber": "0x72553b",
      "gasUsed": "0xfb93",
      "effectiveGasPrice": "0x89f7341e",
      "from": "0xc77f7fed3b5cc8249adc428c5f44c9063b9734b4",
      "to": "0x270e88f8683660553e8ba4eb2ad7c91a1710d769",
      "contractAddress": null
    }
  ],
  "libraries": [],
  "pending": [],
  "returns": {},
  "timestamp": 1736896718,
  "chain": 11155111,
  "commit": "51a374b"
}