{
  "transactions": [
    {
      "hash": "0xc3eaa28ea0e845102a6eba7c3fb98baf3ba5459fdad07bb6b2b9ac8979e036ca",
      "transactionType": "CALL",
      "contractName": null,
      "contractAddress": "0x270e88f8683660553e8ba4eb2ad7c91a1710d769",
      "function": "buy(address)",
      "arguments": [
        "0xC77f7fed3b5Cc8249aDc428c5F44C9063B9734b4"
      ],
      "transaction": {
        "from": "0xc77f7fed3b5cc8249adc428c5f44c9063b9734b4",
        "to": "0x270e88f8683660553e8ba4eb2ad7c91a1710d769",
        "gas": "0x1b30c",
        "value": "0xde0b6b3a7640000",
        "input": "0xf088d547000000000000000000000000c77f7fed3b5cc8249adc428c5f44c9063b9734b4",
        "nonce": "0x7a5",
        "chainId": "0xaa36a7"
      },
      "additionalContracts": [],
      "isFixedGasLimit": false
    }
  ],
  "receipts": [
    {
      "status": "0x1",
      "cumulativeGasUsed": "0x89d10b",
      "logs": [
        {
          "address": "0x270e88f8683660553e8ba4eb2ad7c91a1710d769",
          "topics": [
            "0xddf252ad1be2c89b69c2b068fc378daa952ba7f163c4a11628f55a4df523b3ef",
            "0x0000000000000000000000000000000000000000000000000000000000000000",
            "0x000000000000000000000000c77f7fed3b5cc8249adc428c5f44c9063b9734b4"
          ],
          "data": "0x0000000000000000000000000000000000000000000000277cf54c1d34de07ef",
          "blockHash": "0x55691762ec0a7a3bf6fb6b6412ba6f13b2b0e70f222f02db1665092fec031367",
          "blockNumber": "0x7254d9",
          "transactionHash": "0xc3eaa28ea0e845102a6eba7c3fb98baf3ba5459fdad07bb6b2b9ac8979e036ca",
          "transactionIndex": "0x4f",
          "logIndex": "0x63",
          "removed": false
        },
        {
          "address": "0x270e88f8683660553e8ba4eb2ad7c91a1710d769",
          "topics": [
            "0xddf252ad1be2c89b69c2b068fc378daa952ba7f163c4a11628f55a4df523b3ef",
            "0x0000000000000000000000000000000000000000000000000000000000000000",
            "0x000000000000000000000000c77f7fed3b5cc8249adc428c5f44c9063b9734b4"
          ],
          "data": "0x0000000000000000000000000000000000000000000000001ea9f36b066d4f84",
          "blockHash": "0x55691762ec0a7a3bf6fb6b6412ba6f13b2b0e70f222f02db1665092fec031367",
          "blockNumber": "0x7254d9",
          "transactionHash": "0xc3eaa28ea0e845102a6eba7c3fb98baf3ba5459fdad07bb6b2b9ac8979e036ca",
          "transactionIndex": "0x4f",
          "logIndex": "0x64",
          "removed": false
        },
        {
          "address": "0x270e88f8683660553e8ba4eb2ad7c91a1710d769",
          "topics": [
            "0x4afcb4a87cdbd9974efdb92ee48bc8d7cd0ae4bf217004db3d080cbaee652ca7"
          ],
          "data": "0x000000000000000000000000000000000000000000000000000000006786ec340000000000000000000000000000000000000000000000000004d43138e1967d0000000000000000000000000000000000000000000000000de0b6b3a7640000",
          "blockHash": "0x55691762ec0a7a3bf6fb6b6412ba6f13b2b0e70f222f02db1665092fec031367",
          "blockNumber": "0x7254d9",
          "transactionHash": "0xc3eaa28ea0e845102a6eba7c3fb98baf3ba5459fdad07bb6b2b9ac8979e036ca",
          "transactionIndex": "0x4f",
          "logIndex": "0x65",
          "removed": false
        }
      ],
      "logsBloom": "0x00000000000000000000000000000000000000000000000000000000000000000000000000000000000000000000000020000000000000004000000000000000000000000000000000000008000000000000000000000000000000000000000000000000020000000000000000000800020000000000000000000010000000000000000000010000000000000000000000000000000000000000010000000000000000000000000000000000000000004000000000000000000000000000000000000002000000800000000000000000000000000000080000008000000020000000000000000000000000000000000000000000000000000000000000000000",
      "type": "0x2",
      "transactionHash": "0xc3eaa28ea0e845102a6eba7c3fb98baf3ba5459fdad07bb6b2b9ac8979e036ca",
      "transactionIndex": "0x4f",
      "blockHash": "0x55691762ec0a7a3bf6fb6b6412ba6f13b2b0e70f222f02db1665092fec031367",
      "blockNumber": "0x7254d9",
      "gasUsed": "0x13af8",
      "effectiveGasPrice": "0xe4137c68",
      "from": "0xc77f7fed3b5cc8249adc428c5f44c9063b9734b4",
      "to": "0x270e88f8683660553e8ba4eb2ad7c91a1710d769",
      "contractAddress": null
    }
  ],
  "libraries": [],
  "pending": [],
  "returns": {},
  "timestamp": 1736895541,
  "chain": 11155111,
  "commit": "51a374b"
}