{
  "transactions": [
    {
      "hash": "0xd2ea340d26733f09fce94e7727d9fb80d5bd3985ffe5101ca442610f432f0b9a",
      "transactionType": "CALL",
      "contractName": null,
      "contractAddress": "0x8aafd3ede9adb0ff97c7aebce82a919afb1c8764",
      "function": "sell(uint256)",
      "arguments": [
        "5012995291"
      ],
      "transaction": {
        "from": "0xc77f7fed3b5cc8249adc428c5f44c9063b9734b4",
        "to": "0x8aafd3ede9adb0ff97c7aebce82a919afb1c8764",
        "gas": "0x1722a",
        "value": "0x0",
        "input": "0xe4849b32000000000000000000000000000000000000000000000000000000012acc3cdb",
        "nonce": "0x170e",
        "chainId": "0xaa36a7"
      },
      "additionalContracts": [],
      "isFixedGasLimit": false
    }
  ],
  "receipts": [
    {
      "status": "0x1",
      "cumulativeGasUsed": "0xff45f5",
      "logs": [
        {
          "address": "0x8aafd3ede9adb0ff97c7aebce82a919afb1c8764",
          "topics": [
            "0xddf252ad1be2c89b69c2b068fc378daa952ba7f163c4a11628f55a4df523b3ef",
            "0x000000000000000000000000c77f7fed3b5cc8249adc428c5f44c9063b9734b4",
            "0x0000000000000000000000000000000000000000000000000000000000000000"
          ],
          "data": "0x0000000000000000000000000000000000000000000000000000000128684cc1",
          "blockHash": "0x422fb9c19b86c558e05573ea7ff0952cb9d0d8c4ff76ac74d687774ccbe0fafd",
          "blockNumber": "0x731ed3",
          "transactionHash": "0xd2ea340d26733f09fce94e7727d9fb80d5bd3985ffe5101ca442610f432f0b9a",
          "transactionIndex": "0x7a",
          "logIndex": "0xd5",
          "removed": false
        },
        {
          "address": "0x8aafd3ede9adb0ff97c7aebce82a919afb1c8764",
          "topics": [
            "0xddf252ad1be2c89b69c2b068fc378daa952ba7f163c4a11628f55a4df523b3ef",
            "0x000000000000000000000000c77f7fed3b5cc8249adc428c5f44c9063b9734b4",
            "0x000000000000000000000000c77f7fed3b5cc8249adc428c5f44c9063b9734b4"
          ],
          "data": "0x000000000000000000000000000000000000000000000000000000000263f01a",
          "blockHash": "0x422fb9c19b86c558e05573ea7ff0952cb9d0d8c4ff76ac74d687774ccbe0fafd",
          "blockNumber": "0x731ed3",
          "transactionHash": "0xd2ea340d26733f09fce94e7727d9fb80d5bd3985ffe5101ca442610f432f0b9a",
          "transactionIndex": "0x7a",
          "logIndex": "0xd6",
          "removed": false
        },
        {
          "address": "0x8aafd3ede9adb0ff97c7aebce82a919afb1c8764",
          "topics": [
            "0x4afcb4a87cdbd9974efdb92ee48bc8d7cd0ae4bf217004db3d080cbaee652ca7"
          ],
          "data": "0x0000000000000000000000000000000000000000000000000000000067906ecc00000000000000000000000000000000000000000000000000172a599dc1118c0000000000000000000000000000000000000000000000000000000001f2c44b",
          "blockHash": "0x422fb9c19b86c558e05573ea7ff0952cb9d0d8c4ff76ac74d687774ccbe0fafd",
          "blockNumber": "0x731ed3",
          "transactionHash": "0xd2ea340d26733f09fce94e7727d9fb80d5bd3985ffe5101ca442610f432f0b9a",
          "transactionIndex": "0x7a",
          "logIndex": "0xd7",
          "removed": false
        }
      ],
      "logsBloom": "0x00000000000000000000000000000000000000000600000000000000000000000000000000000000000000000000000000000000000000004000000000000000000000000000004000000008000000000000000000000000000000000000000000000000020000000000000000000800020000000000000000000010000000000000000000000000000000000000000000000000000000000000010000000000000000000000000000000000000000004000000000000000000000000000000000000002000000800000000000000000000000000000080000000000000020000000000000000000000000000000000000000000000000000000000000000000",
      "type": "0x2",
      "transactionHash": "0xd2ea340d26733f09fce94e7727d9fb80d5bd3985ffe5101ca442610f432f0b9a",
      "transactionIndex": "0x7a",
      "blockHash": "0x422fb9c19b86c558e05573ea7ff0952cb9d0d8c4ff76ac74d687774ccbe0fafd",
      "blockNumber": "0x731ed3",
      "gasUsed": "0xfd1b",
      "effectiveGasPrice": "0x3e27f482",
      "from": "0xc77f7fed3b5cc8249adc428c5f44c9063b9734b4",
      "to": "0x8aafd3ede9adb0ff97c7aebce82a919afb1c8764",
      "contractAddress": null
    }
  ],
  "libraries": [],
  "pending": [],
  "returns": {},
  "timestamp": 1737518797,
  "chain": 11155111,
  "commit": "1d2fb70"
}