{
  "transactions": [
    {
      "hash": "0x14eb375a5a0060336523faf2327210e613bdd3031ab21250a6343bcf691a9013",
      "transactionType": "CALL",
      "contractName": null,
      "contractAddress": "0x68fa5dd1657101c163b0d0ffbaccb226c4d6cc12",
      "function": "buy(address)",
      "arguments": [
        "0xC77f7fed3b5Cc8249aDc428c5F44C9063B9734b4"
      ],
      "transaction": {
        "from": "0xc77f7fed3b5cc8249adc428c5f44c9063b9734b4",
        "to": "0x68fa5dd1657101c163b0d0ffbaccb226c4d6cc12",
        "gas": "0x16aab",
        "value": "0xde0b6b3a7640000",
        "input": "0xf088d547000000000000000000000000c77f7fed3b5cc8249adc428c5f44c9063b9734b4",
        "nonce": "0x17de",
        "chainId": "0xaa36a7"
      },
      "additionalContracts": [],
      "isFixedGasLimit": false
    }
  ],
  "receipts": [
    {
      "status": "0x1",
      "cumulativeGasUsed": "0x155f05b",
      "logs": [
        {
          "address": "0x68fa5dd1657101c163b0d0ffbaccb226c4d6cc12",
          "topics": [
            "0xddf252ad1be2c89b69c2b068fc378daa952ba7f163c4a11628f55a4df523b3ef",
            "0x0000000000000000000000000000000000000000000000000000000000000000",
            "0x000000000000000000000000c77f7fed3b5cc8249adc428c5f44c9063b9734b4"
          ],
          "data": "0x0000000000000000000000000000000000000000000000354bd4758c12c2e91a",
          "blockHash": "0x9b33bf00d2a8f58845f93260a01f47acb6aceca47498cd31147b0d9a285ca081",
          "blockNumber": "0x734aa9",
          "transactionHash": "0x14eb375a5a0060336523faf2327210e613bdd3031ab21250a6343bcf691a9013",
          "transactionIndex": "0x7d",
          "logIndex": "0x171",
          "removed": false
        },
        {
          "address": "0x68fa5dd1657101c163b0d0ffbaccb226c4d6cc12",
          "topics": [
            "0xddf252ad1be2c89b69c2b068fc378daa952ba7f163c4a11628f55a4df523b3ef",
            "0x0000000000000000000000000000000000000000000000000000000000000000",
            "0x000000000000000000000000c77f7fed3b5cc8249adc428c5f44c9063b9734b4"
          ],
          "data": "0x0000000000000000000000000000000000000000000000002962e639e768e334",
          "blockHash": "0x9b33bf00d2a8f58845f93260a01f47acb6aceca47498cd31147b0d9a285ca081",
          "blockNumber": "0x734aa9",
          "transactionHash": "0x14eb375a5a0060336523faf2327210e613bdd3031ab21250a6343bcf691a9013",
          "transactionIndex": "0x7d",
          "logIndex": "0x172",
          "removed": false
        },
        {
          "address": "0x68fa5dd1657101c163b0d0ffbaccb226c4d6cc12",
          "topics": [
            "0x4afcb4a87cdbd9974efdb92ee48bc8d7cd0ae4bf217004db3d080cbaee652ca7"
          ],
          "data": "0x0000000000000000000000000000000000000000000000000000000067928c4000000000000000000000000000000000000000000000000000039709e44553590000000000000000000000000000000000000000000000000de0b6b3a7640000",
          "blockHash": "0x9b33bf00d2a8f58845f93260a01f47acb6aceca47498cd31147b0d9a285ca081",
          "blockNumber": "0x734aa9",
          "transactionHash": "0x14eb375a5a0060336523faf2327210e613bdd3031ab21250a6343bcf691a9013",
          "transactionIndex": "0x7d",
          "logIndex": "0x173",
          "removed": false
        }
      ],
      "logsBloom": "0x00000000000000000000000000010000000000000000000000000000000000000000000000000000000000000000000000000000000000004000000000000000000000000000000000000008000000000000000000000000000000000000000000000000020000000000000000000800020000000000000000000010000000000000000000000000000000000000000000000000000000000000810000000000000000000000000000000000000000004000000000000000000000000000000000000002000000800000000000000000000000000000080000000000000020000000000000000000000000000000000000000000000000040000000000000000",
      "type": "0x2",
      "transactionHash": "0x14eb375a5a0060336523faf2327210e613bdd3031ab21250a6343bcf691a9013",
      "transactionIndex": "0x7d",
      "blockHash": "0x9b33bf00d2a8f58845f93260a01f47acb6aceca47498cd31147b0d9a285ca081",
      "blockNumber": "0x734aa9",
      "gasUsed": "0xf7fb",
      "effectiveGasPrice": "0x54231ca49",
      "from": "0xc77f7fed3b5cc8249adc428c5f44c9063b9734b4",
      "to": "0x68fa5dd1657101c163b0d0ffbaccb226c4d6cc12",
      "contractAddress": null
    }
  ],
  "libraries": [],
  "pending": [],
  "returns": {},
  "timestamp": 1737657410,
  "chain": 11155111,
  "commit": "f5162e9"
}