{
  "transactions": [
    {
      "hash": "0xdc89bf91a758e77dd95f140bc3a84bb3e1123c2255bb01cd892b98cad6131207",
      "transactionType": "CALL",
      "contractName": null,
      "contractAddress": "0x5eb9cc76c3506942c1c0ead70e877dd5e4f00cb0",
      "function": "buy(address)",
      "arguments": [
        "0xC77f7fed3b5Cc8249aDc428c5F44C9063B9734b4"
      ],
      "transaction": {
        "from": "0xc77f7fed3b5cc8249adc428c5f44c9063b9734b4",
        "to": "0x5eb9cc76c3506942c1c0ead70e877dd5e4f00cb0",
        "gas": "0x156c8",
        "value": "0xde0b6b3a7640000",
        "input": "0xf088d547000000000000000000000000c77f7fed3b5cc8249adc428c5f44c9063b9734b4",
        "nonce": "0x1a9",
        "chainId": "0xaa36a7"
      },
      "additionalContracts": [],
      "isFixedGasLimit": false
    }
  ],
  "receipts": [
    {
      "status": "0x1",
      "cumulativeGasUsed": "0xaf21ad",
      "logs": [
        {
          "address": "0x5eb9cc76c3506942c1c0ead70e877dd5e4f00cb0",
          "topics": [
            "0xddf252ad1be2c89b69c2b068fc378daa952ba7f163c4a11628f55a4df523b3ef",
            "0x0000000000000000000000000000000000000000000000000000000000000000",
            "0x000000000000000000000000c77f7fed3b5cc8249adc428c5f44c9063b9734b4"
          ],
          "data": "0x000000000000000000000000000000000000000000000035a375757156a88e5b",
          "blockHash": "0xe9ee2f7fd8df8f0f2ee6fde9d413ebd3ddbeb03bc2740adc48f617b22dbde34f",
          "blockNumber": "0x723c90",
          "transactionHash": "0xdc89bf91a758e77dd95f140bc3a84bb3e1123c2255bb01cd892b98cad6131207",
          "transactionIndex": "0x5e",
          "logIndex": "0x8d",
          "removed": false
        },
        {
          "address": "0x5eb9cc76c3506942c1c0ead70e877dd5e4f00cb0",
          "topics": [
            "0xddf252ad1be2c89b69c2b068fc378daa952ba7f163c4a11628f55a4df523b3ef",
            "0x0000000000000000000000000000000000000000000000000000000000000000",
            "0x000000000000000000000000c77f7fed3b5cc8249adc428c5f44c9063b9734b4"
          ],
          "data": "0x00000000000000000000000000000000000000000000000029a6f2372ec1039b",
          "blockHash": "0xe9ee2f7fd8df8f0f2ee6fde9d413ebd3ddbeb03bc2740adc48f617b22dbde34f",
          "blockNumber": "0x723c90",
          "transactionHash": "0xdc89bf91a758e77dd95f140bc3a84bb3e1123c2255bb01cd892b98cad6131207",
          "transactionIndex": "0x5e",
          "logIndex": "0x8e",
          "removed": false
        },
        {
          "address": "0x5eb9cc76c3506942c1c0ead70e877dd5e4f00cb0",
          "topics": [
            "0x4afcb4a87cdbd9974efdb92ee48bc8d7cd0ae4bf217004db3d080cbaee652ca7"
          ],
          "data": "0x000000000000000000000000000000000000000000000000000000006785c81400000000000000000000000000000000000000000000000000038dfeb515d8d40000000000000000000000000000000000000000000000000de0b6b3a7640000",
          "blockHash": "0xe9ee2f7fd8df8f0f2ee6fde9d413ebd3ddbeb03bc2740adc48f617b22dbde34f",
          "blockNumber": "0x723c90",
          "transactionHash": "0xdc89bf91a758e77dd95f140bc3a84bb3e1123c2255bb01cd892b98cad6131207",
          "transactionIndex": "0x5e",
          "logIndex": "0x8f",
          "removed": false
        }
      ],
      "logsBloom": "0x00000000000000000000000000000000000000000000000000000000000000000000000000000000000000000000000000000000000000004000000000000000000000000000000000000008000000000000000000000000000000000000000000000000020000000000000004000800020000000000000000000010000000000000000000000000000000000000000000000000000000000000010000000000000000000000000000000000000000004000000000000000000000000000020000000002000000800000008000000000000000000000080000000000000020000000000000000000000000000000000000000000000000000000000000000000",
      "type": "0x2",
      "transactionHash": "0xdc89bf91a758e77dd95f140bc3a84bb3e1123c2255bb01cd892b98cad6131207",
      "transactionIndex": "0x5e",
      "blockHash": "0xe9ee2f7fd8df8f0f2ee6fde9d413ebd3ddbeb03bc2740adc48f617b22dbde34f",
      "blockNumber": "0x723c90",
      "gasUsed": "0xf82c",
      "effectiveGasPrice": "0x1c2054ca7",
      "from": "0xc77f7fed3b5cc8249adc428c5f44c9063b9734b4",
      "to": "0x5eb9cc76c3506942c1c0ead70e877dd5e4f00cb0",
      "contractAddress": null
    }
  ],
  "libraries": [],
  "pending": [],
  "returns": {},
  "timestamp": 1736820756,
  "chain": 11155111,
  "commit": "51a374b"
}