{
  "transactions": [
    {
      "hash": "0x1cd99f961943ac689d51b647719cdf47da3654731d7637b7e067ef1d2d0caab9",
      "transactionType": "CALL",
      "contractName": null,
      "contractAddress": "0x8aafd3ede9adb0ff97c7aebce82a919afb1c8764",
      "function": "buy(address)",
      "arguments": [
        "0xC77f7fed3b5Cc8249aDc428c5F44C9063B9734b4"
      ],
      "transaction": {
        "from": "0xc77f7fed3b5cc8249adc428c5f44c9063b9734b4",
        "to": "0x8aafd3ede9adb0ff97c7aebce82a919afb1c8764",
        "gas": "0x156ea",
        "value": "0xde0b6b3a7640000",
        "input": "0xf088d547000000000000000000000000c77f7fed3b5cc8249adc428c5f44c9063b9734b4",
        "nonce": "0x1510",
        "chainId": "0xaa36a7"
      },
      "additionalContracts": [],
      "isFixedGasLimit": false
    }
  ],
  "receipts": [
    {
      "status": "0x1",
      "cumulativeGasUsed": "0xc4ba6f",
      "logs": [
        {
          "address": "0x8aafd3ede9adb0ff97c7aebce82a919afb1c8764",
          "topics": [
            "0xddf252ad1be2c89b69c2b068fc378daa952ba7f163c4a11628f55a4df523b3ef",
            "0x0000000000000000000000000000000000000000000000000000000000000000",
            "0x000000000000000000000000c77f7fed3b5cc8249adc428c5f44c9063b9734b4"
          ],
          "data": "0x00000000000000000000000000000000000000000000000b14c2ab7ac99e9118",
          "blockHash": "0x799d7b68505d6f98f1bbd2b8f3ce973d5eb158d66d99584e266443763297ed1b",
          "blockNumber": "0x731c72",
          "transactionHash": "0x1cd99f961943ac689d51b647719cdf47da3654731d7637b7e067ef1d2d0caab9",
          "transactionIndex": "0x69",
          "logIndex": "0x8e",
          "removed": false
        },
        {
          "address": "0x8aafd3ede9adb0ff97c7aebce82a919afb1c8764",
          "topics": [
            "0xddf252ad1be2c89b69c2b068fc378daa952ba7f163c4a11628f55a4df523b3ef",
            "0x0000000000000000000000000000000000000000000000000000000000000000",
            "0x000000000000000000000000c77f7fed3b5cc8249adc428c5f44c9063b9734b4"
          ],
          "data": "0x000000000000000000000000000000000000000000000000089ad75b28350179",
          "blockHash": "0x799d7b68505d6f98f1bbd2b8f3ce973d5eb158d66d99584e266443763297ed1b",
          "blockNumber": "0x731c72",
          "transactionHash": "0x1cd99f961943ac689d51b647719cdf47da3654731d7637b7e067ef1d2d0caab9",
          "transactionIndex": "0x69",
          "logIndex": "0x8f",
          "removed": false
        },
        {
          "address": "0x8aafd3ede9adb0ff97c7aebce82a919afb1c8764",
          "topics": [
            "0x4afcb4a87cdbd9974efdb92ee48bc8d7cd0ae4bf217004db3d080cbaee652ca7"
          ],
          "data": "0x000000000000000000000000000000000000000000000000000000006790523400000000000000000000000000000000000000000000000000113b627a5df4a10000000000000000000000000000000000000000000000000de0b6b3a7640000",
          "blockHash": "0x799d7b68505d6f98f1bbd2b8f3ce973d5eb158d66d99584e266443763297ed1b",
          "blockNumber": "0x731c72",
          "transactionHash": "0x1cd99f961943ac689d51b647719cdf47da3654731d7637b7e067ef1d2d0caab9",
          "transactionIndex": "0x69",
          "logIndex": "0x90",
          "removed": false
        }
      ],
      "logsBloom": "0x00000000000000000000000000000000000000000600000000000000000000000000000000000000000000000000000000000000000000004000000000000000000000000000004000000008000000000000000000000000000000000000000000000000020000000000000000000800020000000000000000000010000000000000000000000000000000000000000000000000000000000000010000000000000000000000000000000000000000004000000000000000000000000000000000000002000000800000000000000000000000000000080000000000000020000000000000000000000000000000000000000000000000000000000000000000",
      "type": "0x2",
      "transactionHash": "0x1cd99f961943ac689d51b647719cdf47da3654731d7637b7e067ef1d2d0caab9",
      "transactionIndex": "0x69",
      "blockHash": "0x799d7b68505d6f98f1bbd2b8f3ce973d5eb158d66d99584e266443763297ed1b",
      "blockNumber": "0x731c72",
      "gasUsed": "0xf844",
      "effectiveGasPrice": "0x1827f541b",
      "from": "0xc77f7fed3b5cc8249adc428c5f44c9063b9734b4",
      "to": "0x8aafd3ede9adb0ff97c7aebce82a919afb1c8764",
      "contractAddress": null
    }
  ],
  "libraries": [],
  "pending": [],
  "returns": {},
  "timestamp": 1737511479,
  "chain": 11155111,
  "commit": "1d2fb70"
}