{
  "transactions": [
    {
      "hash": "0xb580bbd0dac504ee3bc0efad59ddbb1ccca78d49b756bf9ba339116a3f1e0fb8",
      "transactionType": "CALL",
      "contractName": null,
      "contractAddress": "0xbf4a322f1496e5c3d34a9bcdb4c60567b38c7de2",
      "function": "buy(address)",
      "arguments": [
        "0xC77f7fed3b5Cc8249aDc428c5F44C9063B9734b4"
      ],
      "transaction": {
        "from": "0xc77f7fed3b5cc8249adc428c5f44c9063b9734b4",
        "to": "0xbf4a322f1496e5c3d34a9bcdb4c60567b38c7de2",
        "gas": "0x1b309",
        "value": "0xde0b6b3a7640000",
        "input": "0xf088d547000000000000000000000000c77f7fed3b5cc8249adc428c5f44c9063b9734b4",
        "nonce": "0xbd4",
        "chainId": "0xaa36a7"
      },
      "additionalContracts": [],
      "isFixedGasLimit": false
    }
  ],
  "receipts": [
    {
      "status": "0x1",
      "cumulativeGasUsed": "0xfced0d",
      "logs": [
        {
          "address": "0xbf4a322f1496e5c3d34a9bcdb4c60567b38c7de2",
          "topics": [
            "0xddf252ad1be2c89b69c2b068fc378daa952ba7f163c4a11628f55a4df523b3ef",
            "0x0000000000000000000000000000000000000000000000000000000000000000",
            "0x000000000000000000000000c77f7fed3b5cc8249adc428c5f44c9063b9734b4"
          ],
          "data": "0x000000000000000000000000000000000000000000000035038cf4cca992c7b1",
          "blockHash": "0x38df3adee6465fff617fd5f2f1999c250db4bddc89cd92622b902081fdbe7a88",
          "blockNumber": "0x725bf6",
          "transactionHash": "0xb580bbd0dac504ee3bc0efad59ddbb1ccca78d49b756bf9ba339116a3f1e0fb8",
          "transactionIndex": "0x7c",
          "logIndex": "0xba",
          "removed": false
        },
        {
          "address": "0xbf4a322f1496e5c3d34a9bcdb4c60567b38c7de2",
          "topics": [
            "0xddf252ad1be2c89b69c2b068fc378daa952ba7f163c4a11628f55a4df523b3ef",
            "0x0000000000000000000000000000000000000000000000000000000000000000",
            "0x000000000000000000000000c77f7fed3b5cc8249adc428c5f44c9063b9734b4"
          ],
          "data": "0x000000000000000000000000000000000000000000000000292ac5a00122b6b3",
          "blockHash": "0x38df3adee6465fff617fd5f2f1999c250db4bddc89cd92622b902081fdbe7a88",
          "blockNumber": "0x725bf6",
          "transactionHash": "0xb580bbd0dac504ee3bc0efad59ddbb1ccca78d49b756bf9ba339116a3f1e0fb8",
          "transactionIndex": "0x7c",
          "logIndex": "0xbb",
          "removed": false
        },
        {
          "address": "0xbf4a322f1496e5c3d34a9bcdb4c60567b38c7de2",
          "topics": [
            "0x4afcb4a87cdbd9974efdb92ee48bc8d7cd0ae4bf217004db3d080cbaee652ca7"
          ],
          "data": "0x00000000000000000000000000000000000000000000000000000000678741e4000000000000000000000000000000000000000000000000000398b9de5688870000000000000000000000000000000000000000000000000de0b6b3a7640000",
          "blockHash": "0x38df3adee6465fff617fd5f2f1999c250db4bddc89cd92622b902081fdbe7a88",
          "blockNumber": "0x725bf6",
          "transactionHash": "0xb580bbd0dac504ee3bc0efad59ddbb1ccca78d49b756bf9ba339116a3f1e0fb8",
          "transactionIndex": "0x7c",
          "logIndex": "0xbc",
          "removed": false
        }
      ],
      "logsBloom": "0x00000000000000000000000000000000000000000000000000000000000000000000000000000000000000000000000000000000000000004000000000000000000000000000000000000008000000000000001000000000000000000000000000000000020000000000000000000800020000000000000000000010000000000000000000000000000000000000000000000000000008000000010000000000000000000000000000000000000000004000000000000000000000000000000000000002000000800000000000001000000000000000080000000000000020000000000000000000000000000000000000000000000000000000000000000000",
      "type": "0x2",
      "transactionHash": "0xb580bbd0dac504ee3bc0efad59ddbb1ccca78d49b756bf9ba339116a3f1e0fb8",
      "transactionIndex": "0x7c",
      "blockHash": "0x38df3adee6465fff617fd5f2f1999c250db4bddc89cd92622b902081fdbe7a88",
      "blockNumber": "0x725bf6",
      "gasUsed": "0x13af6",
      "effectiveGasPrice": "0x8808d0aa",
      "from": "0xc77f7fed3b5cc8249adc428c5f44c9063b9734b4",
      "to": "0xbf4a322f1496e5c3d34a9bcdb4c60567b38c7de2",
      "contractAddress": null
    }
  ],
  "libraries": [],
  "pending": [],
  "returns": {},
  "timestamp": 1736917477,
  "chain": 11155111,
  "commit": "51a374b"
}