{
  "transactions": [
    {
      "hash": "0x5740b698eec2e09dd36a9d7ed0649dd1338a56c68d2a3649cb9dc6ce9991d787",
      "transactionType": "CALL",
      "contractName": null,
      "contractAddress": "0x8aafd3ede9adb0ff97c7aebce82a919afb1c8764",
      "function": "buy(address)",
      "arguments": [
        "0xC77f7fed3b5Cc8249aDc428c5F44C9063B9734b4"
      ],
      "transaction": {
        "from": "0xc77f7fed3b5cc8249adc428c5f44c9063b9734b4",
        "to": "0x8aafd3ede9adb0ff97c7aebce82a919afb1c8764",
        "gas": "0x156ea",
        "value": "0xde0b6b3a7640000",
        "input": "0xf088d547000000000000000000000000c77f7fed3b5cc8249adc428c5f44c9063b9734b4",
        "nonce": "0x10b8",
        "chainId": "0xaa36a7"
      },
      "additionalContracts": [],
      "isFixedGasLimit": false
    }
  ],
  "receipts": [
    {
      "status": "0x1",
      "cumulativeGasUsed": "0xf561c2",
      "logs": [
        {
          "address": "0x8aafd3ede9adb0ff97c7aebce82a919afb1c8764",
          "topics": [
            "0xddf252ad1be2c89b69c2b068fc378daa952ba7f163c4a11628f55a4df523b3ef",
            "0x0000000000000000000000000000000000000000000000000000000000000000",
            "0x000000000000000000000000c77f7fed3b5cc8249adc428c5f44c9063b9734b4"
          ],
          "data": "0x0000000000000000000000000000000000000000000000261e0ab281008c4f0e",
          "blockHash": "0x43839bdec424920ddc11d72b2e0f5f7cda64c0b74a1ee6a79951bb3d48a7a0e9",
          "blockNumber": "0x73174d",
          "transactionHash": "0x5740b698eec2e09dd36a9d7ed0649dd1338a56c68d2a3649cb9dc6ce9991d787",
          "transactionIndex": "0x9e",
          "logIndex": "0xc8",
          "removed": false
        },
        {
          "address": "0x8aafd3ede9adb0ff97c7aebce82a919afb1c8764",
          "topics": [
            "0xddf252ad1be2c89b69c2b068fc378daa952ba7f163c4a11628f55a4df523b3ef",
            "0x0000000000000000000000000000000000000000000000000000000000000000",
            "0x000000000000000000000000c77f7fed3b5cc8249adc428c5f44c9063b9734b4"
          ],
          "data": "0x0000000000000000000000000000000000000000000000001d9973c97199d07b",
          "blockHash": "0x43839bdec424920ddc11d72b2e0f5f7cda64c0b74a1ee6a79951bb3d48a7a0e9",
          "blockNumber": "0x73174d",
          "transactionHash": "0x5740b698eec2e09dd36a9d7ed0649dd1338a56c68d2a3649cb9dc6ce9991d787",
          "transactionIndex": "0x9e",
          "logIndex": "0xc9",
          "removed": false
        },
        {
          "address": "0x8aafd3ede9adb0ff97c7aebce82a919afb1c8764",
          "topics": [
            "0x4afcb4a87cdbd9974efdb92ee48bc8d7cd0ae4bf217004db3d080cbaee652ca7"
          ],
          "data": "0x0000000000000000000000000000000000000000000000000000000067901460000000000000000000000000000000000000000000000000000500f2e35f6fd70000000000000000000000000000000000000000000000000de0b6b3a7640000",
          "blockHash": "0x43839bdec424920ddc11d72b2e0f5f7cda64c0b74a1ee6a79951bb3d48a7a0e9",
          "blockNumber": "0x73174d",
          "transactionHash": "0x5740b698eec2e09dd36a9d7ed0649dd1338a56c68d2a3649cb9dc6ce9991d787",
          "transactionIndex": "0x9e",
          "logIndex": "0xca",
          "removed": false
        }
      ],
      "logsBloom": "0x00000000000000000000000000000000000000000600000000000000000000000000000000000000000000000000000000000000000000004000000000000000000000000000004000000008000000000000000000000000000000000000000000000000020000000000000000000800020000000000000000000010000000000000000000000000000000000000000000000000000000000000010000000000000000000000000000000000000000004000000000000000000000000000000000000002000000800000000000000000000000000000080000000000000020000000000000000000000000000000000000000000000000000000000000000000",
      "type": "0x2",
      "transactionHash": "0x5740b698eec2e09dd36a9d7ed0649dd1338a56c68d2a3649cb9dc6ce9991d787",
      "transactionIndex": "0x9e",
      "blockHash": "0x43839bdec424920ddc11d72b2e0f5f7cda64c0b74a1ee6a79951bb3d48a7a0e9",
      "blockNumber": "0x73174d",
      "gasUsed": "0xf844",
      "effectiveGasPrice": "0x41f101dd",
      "from": "0xc77f7fed3b5cc8249adc428c5f44c9063b9734b4",
      "to": "0x8aafd3ede9adb0ff97c7aebce82a919afb1c8764",
      "contractAddress": null
    }
  ],
  "libraries": [],
  "pending": [],
  "returns": {},
  "timestamp": 1737495651,
  "chain": 11155111,
  "commit": "1d2fb70"
}