{
  "transactions": [
    {
      "hash": "0x7e61d3aff105ff08e7235bcbc1b8a987db56b8078d5e74b0eed3ab0dd9a25e01",
      "transactionType": "CALL",
      "contractName": null,
      "contractAddress": "0x270e88f8683660553e8ba4eb2ad7c91a1710d769",
      "function": "buy(address)",
      "arguments": [
        "0xC77f7fed3b5Cc8249aDc428c5F44C9063B9734b4"
      ],
      "transaction": {
        "from": "0xc77f7fed3b5cc8249adc428c5f44c9063b9734b4",
        "to": "0x270e88f8683660553e8ba4eb2ad7c91a1710d769",
        "gas": "0x1b30c",
        "value": "0xde0b6b3a7640000",
        "input": "0xf088d547000000000000000000000000c77f7fed3b5cc8249adc428c5f44c9063b9734b4",
        "nonce": "0x4fc",
        "chainId": "0xaa36a7"
      },
      "additionalContracts": [],
      "isFixedGasLimit": false
    }
  ],
  "receipts": [
    {
      "status": "0x1",
      "cumulativeGasUsed": "0x10cce47",
      "logs": [
        {
          "address": "0x270e88f8683660553e8ba4eb2ad7c91a1710d769",
          "topics": [
            "0xddf252ad1be2c89b69c2b068fc378daa952ba7f163c4a11628f55a4df523b3ef",
            "0x0000000000000000000000000000000000000000000000000000000000000000",
            "0x000000000000000000000000c77f7fed3b5cc8249adc428c5f44c9063b9734b4"
          ],
          "data": "0x000000000000000000000000000000000000000000000035532bbeb620dafa64",
          "blockHash": "0x697665f385d76a0c08fab2087dccdc40161ca749e584a02647b1f800ec8c3ebc",
          "blockNumber": "0x72518e",
          "transactionHash": "0x7e61d3aff105ff08e7235bcbc1b8a987db56b8078d5e74b0eed3ab0dd9a25e01",
          "transactionIndex": "0x6b",
          "logIndex": "0xb0",
          "removed": false
        },
        {
          "address": "0x270e88f8683660553e8ba4eb2ad7c91a1710d769",
          "topics": [
            "0xddf252ad1be2c89b69c2b068fc378daa952ba7f163c4a11628f55a4df523b3ef",
            "0x0000000000000000000000000000000000000000000000000000000000000000",
            "0x000000000000000000000000c77f7fed3b5cc8249adc428c5f44c9063b9734b4"
          ],
          "data": "0x0000000000000000000000000000000000000000000000002968998e431d537b",
          "blockHash": "0x697665f385d76a0c08fab2087dccdc40161ca749e584a02647b1f800ec8c3ebc",
          "blockNumber": "0x72518e",
          "transactionHash": "0x7e61d3aff105ff08e7235bcbc1b8a987db56b8078d5e74b0eed3ab0dd9a25e01",
          "transactionIndex": "0x6b",
          "logIndex": "0xb1",
          "removed": false
        },
        {
          "address": "0x270e88f8683660553e8ba4eb2ad7c91a1710d769",
          "topics": [
            "0x4afcb4a87cdbd9974efdb92ee48bc8d7cd0ae4bf217004db3d080cbaee652ca7"
          ],
          "data": "0x000000000000000000000000000000000000000000000000000000006786c48c0000000000000000000000000000000000000000000000000003937383e2c7460000000000000000000000000000000000000000000000000de0b6b3a7640000",
          "blockHash": "0x697665f385d76a0c08fab2087dccdc40161ca749e584a02647b1f800ec8c3ebc",
          "blockNumber": "0x72518e",
          "transactionHash": "0x7e61d3aff105ff08e7235bcbc1b8a987db56b8078d5e74b0eed3ab0dd9a25e01",
          "transactionIndex": "0x6b",
          "logIndex": "0xb2",
          "removed": false
        }
      ],
      "logsBloom": "0x00000000000000000000000000000000000000000000000000000000000000000000000000000000000000000000000020000000000000004000000000000000000000000000000000000008000000000000000000000000000000000000000000000000020000000000000000000800020000000000000000000010000000000000000000010000000000000000000000000000000000000000010000000000000000000000000000000000000000004000000000000000000000000000000000000002000000800000000000000000000000000000080000008000000020000000000000000000000000000000000000000000000000000000000000000000",
      "type": "0x2",
      "transactionHash": "0x7e61d3aff105ff08e7235bcbc1b8a987db56b8078d5e74b0eed3ab0dd9a25e01",
      "transactionIndex": "0x6b",
      "blockHash": "0x697665f385d76a0c08fab2087dccdc40161ca749e584a02647b1f800ec8c3ebc",
      "blockNumber": "0x72518e",
      "gasUsed": "0x13af8",
      "effectiveGasPrice": "0x4824d9d81",
      "from": "0xc77f7fed3b5cc8249adc428c5f44c9063b9734b4",
      "to": "0x270e88f8683660553e8ba4eb2ad7c91a1710d769",
      "contractAddress": null
    }
  ],
  "libraries": [],
  "pending": [],
  "returns": {},
  "timestamp": 1736885390,
  "chain": 11155111,
  "commit": "51a374b"
}