{
  "transactions": [
    {
      "hash": "0x21555f65adce789d13ea6862f1af043446580fd1cc49c9a6a164ff73ebb1cb46",
      "transactionType": "CALL",
      "contractName": null,
      "contractAddress": "0x8aafd3ede9adb0ff97c7aebce82a919afb1c8764",
      "function": "sell(uint256)",
      "arguments": [
        "24274055930"
      ],
      "transaction": {
        "from": "0xc77f7fed3b5cc8249adc428c5f44c9063b9734b4",
        "to": "0x8aafd3ede9adb0ff97c7aebce82a919afb1c8764",
        "gas": "0x1722a",
        "value": "0x0",
        "input": "0xe4849b3200000000000000000000000000000000000000000000000000000005a6d8b2fa",
        "nonce": "0xfa8",
        "chainId": "0xaa36a7"
      },
      "additionalContracts": [],
      "isFixedGasLimit": false
    }
  ],
  "receipts": [
    {
      "status": "0x1",
      "cumulativeGasUsed": "0xf6fef0",
      "logs": [
        {
          "address": "0x8aafd3ede9adb0ff97c7aebce82a919afb1c8764",
          "topics": [
            "0xddf252ad1be2c89b69c2b068fc378daa952ba7f163c4a11628f55a4df523b3ef",
            "0x000000000000000000000000c77f7fed3b5cc8249adc428c5f44c9063b9734b4",
            "0x0000000000000000000000000000000000000000000000000000000000000000"
          ],
          "data": "0x000000000000000000000000000000000000000000000000000000059b458ebb",
          "blockHash": "0xb1dfef7a8a47f50ff9bbd6f5df53758c898da3a1b79e58c2a847c85dec0135b1",
          "blockNumber": "0x731611",
          "transactionHash": "0x21555f65adce789d13ea6862f1af043446580fd1cc49c9a6a164ff73ebb1cb46",
          "transactionIndex": "0x8d",
          "logIndex": "0xb0",
          "removed": false
        },
        {
          "address": "0x8aafd3ede9adb0ff97c7aebce82a919afb1c8764",
          "topics": [
            "0xddf252ad1be2c89b69c2b068fc378daa952ba7f163c4a11628f55a4df523b3ef",
            "0x000000000000000000000000c77f7fed3b5cc8249adc428c5f44c9063b9734b4",
            "0x000000000000000000000000c77f7fed3b5cc8249adc428c5f44c9063b9734b4"
          ],
          "data": "0x000000000000000000000000000000000000000000000000000000000b93243f",
          "blockHash": "0xb1dfef7a8a47f50ff9bbd6f5df53758c898da3a1b79e58c2a847c85dec0135b1",
          "blockNumber": "0x731611",
          "transactionHash": "0x21555f65adce789d13ea6862f1af043446580fd1cc49c9a6a164ff73ebb1cb46",
          "transactionIndex": "0x8d",
          "logIndex": "0xb1",
          "removed": false
        },
        {
          "address": "0x8aafd3ede9adb0ff97c7aebce82a919afb1c8764",
          "topics": [
            "0x4afcb4a87cdbd9974efdb92ee48bc8d7cd0ae4bf217004db3d080cbaee652ca7"
          ],
          "data": "0x00000000000000000000000000000000000000000000000000000000679005780000000000000000000000000000000000000000000000000004c37b31ab97bc0000000000000000000000000000000000000000000000000000000001f0a292",
          "blockHash": "0xb1dfef7a8a47f50ff9bbd6f5df53758c898da3a1b79e58c2a847c85dec0135b1",
          "blockNumber": "0x731611",
          "transactionHash": "0x21555f65adce789d13ea6862f1af043446580fd1cc49c9a6a164ff73ebb1cb46",
          "transactionIndex": "0x8d",
          "logIndex": "0xb2",
          "removed": false
        }
      ],
      "logsBloom": "0x00000000000000000000000000000000000000000600000000000000000000000000000000000000000000000000000000000000000000004000000000000000000000000000004000000008000000000000000000000000000000000000000000000000020000000000000000000800020000000000000000000010000000000000000000000000000000000000000000000000000000000000010000000000000000000000000000000000000000004000000000000000000000000000000000000002000000800000000000000000000000000000080000000000000020000000000000000000000000000000000000000000000000000000000000000000",
      "type": "0x2",
      "transactionHash": "0x21555f65adce789d13ea6862f1af043446580fd1cc49c9a6a164ff73ebb1cb46",
      "transactionIndex": "0x8d",
      "blockHash": "0xb1dfef7a8a47f50ff9bbd6f5df53758c898da3a1b79e58c2a847c85dec0135b1",
      "blockNumber": "0x731611",
      "gasUsed": "0xfd1b",
      "effectiveGasPrice": "0x58b53e3d",
      "from": "0xc77f7fed3b5cc8249adc428c5f44c9063b9734b4",
      "to": "0x8aafd3ede9adb0ff97c7aebce82a919afb1c8764",
      "contractAddress": null
    }
  ],
  "libraries": [],
  "pending": [],
  "returns": {},
  "timestamp": 1737491834,
  "chain": 11155111,
  "commit": "1d2fb70"
}