{
  "transactions": [
    {
      "hash": "0x15960ce01d35ef6bef01f6dc3e766575d92fb3a0a65d98b9f7180032f63b793d",
      "transactionType": "CALL",
      "contractName": null,
      "contractAddress": "0x8aafd3ede9adb0ff97c7aebce82a919afb1c8764",
      "function": "sell(uint256)",
      "arguments": [
        "373476"
      ],
      "transaction": {
        "from": "0xc77f7fed3b5cc8249adc428c5f44c9063b9734b4",
        "to": "0x8aafd3ede9adb0ff97c7aebce82a919afb1c8764",
        "gas": "0x16208",
        "value": "0x0",
        "input": "0xe4849b32000000000000000000000000000000000000000000000000000000000005b2e4",
        "nonce": "0x15f9",
        "chainId": "0xaa36a7"
      },
      "additionalContracts": [],
      "isFixedGasLimit": false
    }
  ],
  "receipts": [
    {
      "status": "0x1",
      "cumulativeGasUsed": "0x111c26f",
      "logs": [
        {
          "address": "0x8aafd3ede9adb0ff97c7aebce82a919afb1c8764",
          "topics": [
            "0xddf252ad1be2c89b69c2b068fc378daa952ba7f163c4a11628f55a4df523b3ef",
            "0x000000000000000000000000c77f7fed3b5cc8249adc428c5f44c9063b9734b4",
            "0x0000000000000000000000000000000000000000000000000000000000000000"
          ],
          "data": "0x000000000000000000000000000000000000000000000000000000000005a739",
          "blockHash": "0x7cfc5c4d5969acf5d25694a0d33e2431064d05ff0ab9c73cb5db0a00d4e5cb54",
          "blockNumber": "0x731d89",
          "transactionHash": "0x15960ce01d35ef6bef01f6dc3e766575d92fb3a0a65d98b9f7180032f63b793d",
          "transactionIndex": "0x90",
          "logIndex": "0x109",
          "removed": false
        },
        {
          "address": "0x8aafd3ede9adb0ff97c7aebce82a919afb1c8764",
          "topics": [
            "0xddf252ad1be2c89b69c2b068fc378daa952ba7f163c4a11628f55a4df523b3ef",
            "0x000000000000000000000000c77f7fed3b5cc8249adc428c5f44c9063b9734b4",
            "0x000000000000000000000000c77f7fed3b5cc8249adc428c5f44c9063b9734b4"
          ],
          "data": "0x0000000000000000000000000000000000000000000000000000000000000bab",
          "blockHash": "0x7cfc5c4d5969acf5d25694a0d33e2431064d05ff0ab9c73cb5db0a00d4e5cb54",
          "blockNumber": "0x731d89",
          "transactionHash": "0x15960ce01d35ef6bef01f6dc3e766575d92fb3a0a65d98b9f7180032f63b793d",
          "transactionIndex": "0x90",
          "logIndex": "0x10a",
          "removed": false
        },
        {
          "address": "0x8aafd3ede9adb0ff97c7aebce82a919afb1c8764",
          "topics": [
            "0x4afcb4a87cdbd9974efdb92ee48bc8d7cd0ae4bf217004db3d080cbaee652ca7"
          ],
          "data": "0x0000000000000000000000000000000000000000000000000000000067905f540000000000000000000000000000000000000000000000000013ea07cacd6390000000000000000000000000000000000000000000000000000000000000082d",
          "blockHash": "0x7cfc5c4d5969acf5d25694a0d33e2431064d05ff0ab9c73cb5db0a00d4e5cb54",
          "blockNumber": "0x731d89",
          "transactionHash": "0x15960ce01d35ef6bef01f6dc3e766575d92fb3a0a65d98b9f7180032f63b793d",
          "transactionIndex": "0x90",
          "logIndex": "0x10b",
          "removed": false
        }
      ],
      "logsBloom": "0x00000000000000000000000000000000000000000600000000000000000000000000000000000000000000000000000000000000000000004000000000000000000000000000004000000008000000000000000000000000000000000000000000000000020000000000000000000800020000000000000000000010000000000000000000000000000000000000000000000000000000000000010000000000000000000000000000000000000000004000000000000000000000000000000000000002000000800000000000000000000000000000080000000000000020000000000000000000000000000000000000000000000000000000000000000000",
      "type": "0x2",
      "transactionHash": "0x15960ce01d35ef6bef01f6dc3e766575d92fb3a0a65d98b9f7180032f63b793d",
      "transactionIndex": "0x90",
      "blockHash": "0x7cfc5c4d5969acf5d25694a0d33e2431064d05ff0ab9c73cb5db0a00d4e5cb54",
      "blockNumber": "0x731d89",
      "gasUsed": "0xf213",
      "effectiveGasPrice": "0x636094a7",
      "from": "0xc77f7fed3b5cc8249adc428c5f44c9063b9734b4",
      "to": "0x8aafd3ede9adb0ff97c7aebce82a919afb1c8764",
      "contractAddress": null
    }
  ],
  "libraries": [],
  "pending": [],
  "returns": {},
  "timestamp": 1737514837,
  "chain": 11155111,
  "commit": "1d2fb70"
}