{
  "transactions": [
    {
      "hash": "0xcf03a5f49eb1150cbe8e69792146dc22a6b0e113bdfc798734f41b6f79c99479",
      "transactionType": "CALL",
      "contractName": null,
      "contractAddress": "0x8aafd3ede9adb0ff97c7aebce82a919afb1c8764",
      "function": "sell(uint256)",
      "arguments": [
        "39034872"
      ],
      "transaction": {
        "from": "0xc77f7fed3b5cc8249adc428c5f44c9063b9734b4",
        "to": "0x8aafd3ede9adb0ff97c7aebce82a919afb1c8764",
        "gas": "0x15d88",
        "value": "0x0",
        "input": "0xe4849b320000000000000000000000000000000000000000000000000000000002539ff8",
        "nonce": "0x1745",
        "chainId": "0xaa36a7"
      },
      "additionalContracts": [],
      "isFixedGasLimit": false
    }
  ],
  "receipts": [
    {
      "status": "0x1",
      "cumulativeGasUsed": "0xd4677f",
      "logs": [
        {
          "address": "0x8aafd3ede9adb0ff97c7aebce82a919afb1c8764",
          "topics": [
            "0xddf252ad1be2c89b69c2b068fc378daa952ba7f163c4a11628f55a4df523b3ef",
            "0x000000000000000000000000c77f7fed3b5cc8249adc428c5f44c9063b9734b4",
            "0x0000000000000000000000000000000000000000000000000000000000000000"
          ],
          "data": "0x00000000000000000000000000000000000000000000000000000000024edc22",
          "blockHash": "0x2ba9424cdc51185d84468d49113afcdee528734c490077a43a5d5bc48bf1afc6",
          "blockNumber": "0x731f13",
          "transactionHash": "0xcf03a5f49eb1150cbe8e69792146dc22a6b0e113bdfc798734f41b6f79c99479",
          "transactionIndex": "0x6e",
          "logIndex": "0xb9",
          "removed": false
        },
        {
          "address": "0x8aafd3ede9adb0ff97c7aebce82a919afb1c8764",
          "topics": [
            "0xddf252ad1be2c89b69c2b068fc378daa952ba7f163c4a11628f55a4df523b3ef",
            "0x000000000000000000000000c77f7fed3b5cc8249adc428c5f44c9063b9734b4",
            "0x000000000000000000000000c77f7fed3b5cc8249adc428c5f44c9063b9734b4"
          ],
          "data": "0x000000000000000000000000000000000000000000000000000000000004c3d6",
          "blockHash": "0x2ba9424cdc51185d84468d49113afcdee528734c490077a43a5d5bc48bf1afc6",
          "blockNumber": "0x731f13",
          "transactionHash": "0xcf03a5f49eb1150cbe8e69792146dc22a6b0e113bdfc798734f41b6f79c99479",
          "transactionIndex": "0x6e",
          "logIndex": "0xba",
          "removed": false
        },
        {
          "address": "0x8aafd3ede9adb0ff97c7aebce82a919afb1c8764",
          "topics": [
            "0x4afcb4a87cdbd9974efdb92ee48bc8d7cd0ae4bf217004db3d080cbaee652ca7"
          ],
          "data": "0x00000000000000000000000000000000000000000000000000000000679071cc0000000000000000000000000000000000000000000000000017cc1067b131ab000000000000000000000000000000000000000000000000000000000003fd5b",
          "blockHash": "0x2ba9424cdc51185d84468d49113afcdee528734c490077a43a5d5bc48bf1afc6",
          "blockNumber": "0x731f13",
          "transactionHash": "0xcf03a5f49eb1150cbe8e69792146dc22a6b0e113bdfc798734f41b6f79c99479",
          "transactionIndex": "0x6e",
          "logIndex": "0xbb",
          "removed": false
        }
      ],
      "logsBloom": "0x00000000000000000000000000000000000000000600000000000000000000000000000000000000000000000000000000000000000000004000000000000000000000000000004000000008000000000000000000000000000000000000000000000000020000000000000000000800020000000000000000000010000000000000000000000000000000000000000000000000000000000000010000000000000000000000000000000000000000004000000000000000000000000000000000000002000000800000000000000000000000000000080000000000000020000000000000000000000000000000000000000000000000000000000000000000",
      "type": "0x2",
      "transactionHash": "0xcf03a5f49eb1150cbe8e69792146dc22a6b0e113bdfc798734f41b6f79c99479",
      "transactionIndex": "0x6e",
      "blockHash": "0x2ba9424cdc51185d84468d49113afcdee528734c490077a43a5d5bc48bf1afc6",
      "blockNumber": "0x731f13",
      "gasUsed": "0xfd0f",
      "effectiveGasPrice": "0x5825f701",
      "from": "0xc77f7fed3b5cc8249adc428c5f44c9063b9734b4",
      "to": "0x8aafd3ede9adb0ff97c7aebce82a919afb1c8764",
      "contractAddress": null
    }
  ],
  "libraries": [],
  "pending": [],
  "returns": {},
  "timestamp": 1737519566,
  "chain": 11155111,
  "commit": "1d2fb70"
}