{
  "transactions": [
    {
      "hash": "0xd4c8f5779185d977c3fb76b2a3a1fddff5ed4d27dc4edb57198b560d90b0d38f",
      "transactionType": "CALL",
      "contractName": null,
      "contractAddress": "0x5eb9cc76c3506942c1c0ead70e877dd5e4f00cb0",
      "function": "buy(address)",
      "arguments": [
        "0xC77f7fed3b5Cc8249aDc428c5F44C9063B9734b4"
      ],
      "transaction": {
        "from": "0xc77f7fed3b5cc8249adc428c5f44c9063b9734b4",
        "to": "0x5eb9cc76c3506942c1c0ead70e877dd5e4f00cb0",
        "gas": "0x1b30c",
        "value": "0xde0b6b3a7640000",
        "input": "0xf088d547000000000000000000000000c77f7fed3b5cc8249adc428c5f44c9063b9734b4",
        "nonce": "0x388",
        "chainId": "0xaa36a7"
      },
      "additionalContracts": [],
      "isFixedGasLimit": false
    }
  ],
  "receipts": [
    {
      "status": "0x1",
      "cumulativeGasUsed": "0xbd577f",
      "logs": [
        {
          "address": "0x5eb9cc76c3506942c1c0ead70e877dd5e4f00cb0",
          "topics": [
            "0xddf252ad1be2c89b69c2b068fc378daa952ba7f163c4a11628f55a4df523b3ef",
            "0x0000000000000000000000000000000000000000000000000000000000000000",
            "0x000000000000000000000000c77f7fed3b5cc8249adc428c5f44c9063b9734b4"
          ],
          "data": "0x0000000000000000000000000000000000000000000000357545f3e22aef65b7",
          "blockHash": "0xa91525e6153d6aa0ec4509c90f159e1acdab012e37439fb596bca7581f0d8232",
          "blockNumber": "0x724f82",
          "transactionHash": "0xd4c8f5779185d977c3fb76b2a3a1fddff5ed4d27dc4edb57198b560d90b0d38f",
          "transactionIndex": "0x61",
          "logIndex": "0x84",
          "removed": false
        },
        {
          "address": "0x5eb9cc76c3506942c1c0ead70e877dd5e4f00cb0",
          "topics": [
            "0xddf252ad1be2c89b69c2b068fc378daa952ba7f163c4a11628f55a4df523b3ef",
            "0x0000000000000000000000000000000000000000000000000000000000000000",
            "0x000000000000000000000000c77f7fed3b5cc8249adc428c5f44c9063b9734b4"
          ],
          "data": "0x000000000000000000000000000000000000000000000000298314dc1a80577f",
          "blockHash": "0xa91525e6153d6aa0ec4509c90f159e1acdab012e37439fb596bca7581f0d8232",
          "blockNumber": "0x724f82",
          "transactionHash": "0xd4c8f5779185d977c3fb76b2a3a1fddff5ed4d27dc4edb57198b560d90b0d38f",
          "transactionIndex": "0x61",
          "logIndex": "0x85",
          "removed": false
        },
        {
          "address": "0x5eb9cc76c3506942c1c0ead70e877dd5e4f00cb0",
          "topics": [
            "0x4afcb4a87cdbd9974efdb92ee48bc8d7cd0ae4bf217004db3d080cbaee652ca7"
          ],
          "data": "0x000000000000000000000000000000000000000000000000000000006786abcc00000000000000000000000000000000000000000000000000039110e7afc2a80000000000000000000000000000000000000000000000000de0b6b3a7640000",
          "blockHash": "0xa91525e6153d6aa0ec4509c90f159e1acdab012e37439fb596bca7581f0d8232",
          "blockNumber": "0x724f82",
          "transactionHash": "0xd4c8f5779185d977c3fb76b2a3a1fddff5ed4d27dc4edb57198b560d90b0d38f",
          "transactionIndex": "0x61",
          "logIndex": "0x86",
          "removed": false
        }
      ],
      "logsBloom": "0x00000000000000000000000000000000000000000000000000000000000000000000000000000000000000000000000000000000000000004000000000000000000000000000000000000008000000000000000000000000000000000000000000000000020000000000000004000800020000000000000000000010000000000000000000000000000000000000000000000000000000000000010000000000000000000000000000000000000000004000000000000000000000000000020000000002000000800000008000000000000000000000080000000000000020000000000000000000000000000000000000000000000000000000000000000000",
      "type": "0x2",
      "transactionHash": "0xd4c8f5779185d977c3fb76b2a3a1fddff5ed4d27dc4edb57198b560d90b0d38f",
      "transactionIndex": "0x61",
      "blockHash": "0xa91525e6153d6aa0ec4509c90f159e1acdab012e37439fb596bca7581f0d8232",
      "blockNumber": "0x724f82",
      "gasUsed": "0x13af8",
      "effectiveGasPrice": "0x57eeaafee",
      "from": "0xc77f7fed3b5cc8249adc428c5f44c9063b9734b4",
      "to": "0x5eb9cc76c3506942c1c0ead70e877dd5e4f00cb0",
      "contractAddress": null
    }
  ],
  "libraries": [],
  "pending": [],
  "returns": {},
  "timestamp": 1736879054,
  "chain": 11155111,
  "commit": "51a374b"
}