{
  "transactions": [
    {
      "hash": "0x7f3877486a120a0b37558ce501103fe8766e0dcd97bd5adf7e46ba5c7c292690",
      "transactionType": "CALL",
      "contractName": null,
      "contractAddress": "0x8aafd3ede9adb0ff97c7aebce82a919afb1c8764",
      "function": "sell(uint256)",
      "arguments": [
        "3068101179834"
      ],
      "transaction": {
        "from": "0xc77f7fed3b5cc8249adc428c5f44c9063b9734b4",
        "to": "0x8aafd3ede9adb0ff97c7aebce82a919afb1c8764",
        "gas": "0x15daa",
        "value": "0x0",
        "input": "0xe4849b32000000000000000000000000000000000000000000000000000002ca5914b9ba",
        "nonce": "0xe82",
        "chainId": "0xaa36a7"
      },
      "additionalContracts": [],
      "isFixedGasLimit": false
    }
  ],
  "receipts": [
    {
      "status": "0x1",
      "cumulativeGasUsed": "0xf3dbb3",
      "logs": [
        {
          "address": "0x8aafd3ede9adb0ff97c7aebce82a919afb1c8764",
          "topics": [
            "0xddf252ad1be2c89b69c2b068fc378daa952ba7f163c4a11628f55a4df523b3ef",
            "0x000000000000000000000000c77f7fed3b5cc8249adc428c5f44c9063b9734b4",
            "0x0000000000000000000000000000000000000000000000000000000000000000"
          ],
          "data": "0x000000000000000000000000000000000000000000000000000002c4a218a7dc",
          "blockHash": "0x1a4109805429f139a16101c7f20731ca47ee49444a7c61b05371c7fc43b03b6e",
          "blockNumber": "0x7313dd",
          "transactionHash": "0x7f3877486a120a0b37558ce501103fe8766e0dcd97bd5adf7e46ba5c7c292690",
          "transactionIndex": "0x8c",
          "logIndex": "0xe6",
          "removed": false
        },
        {
          "address": "0x8aafd3ede9adb0ff97c7aebce82a919afb1c8764",
          "topics": [
            "0xddf252ad1be2c89b69c2b068fc378daa952ba7f163c4a11628f55a4df523b3ef",
            "0x000000000000000000000000c77f7fed3b5cc8249adc428c5f44c9063b9734b4",
            "0x000000000000000000000000c77f7fed3b5cc8249adc428c5f44c9063b9734b4"
          ],
          "data": "0x00000000000000000000000000000000000000000000000000000005b6fc11de",
          "blockHash": "0x1a4109805429f139a16101c7f20731ca47ee49444a7c61b05371c7fc43b03b6e",
          "blockNumber": "0x7313dd",
          "transactionHash": "0x7f3877486a120a0b37558ce501103fe8766e0dcd97bd5adf7e46ba5c7c292690",
          "transactionIndex": "0x8c",
          "logIndex": "0xe7",
          "removed": false
        },
        {
          "address": "0x8aafd3ede9adb0ff97c7aebce82a919afb1c8764",
          "topics": [
            "0x4afcb4a87cdbd9974efdb92ee48bc8d7cd0ae4bf217004db3d080cbaee652ca7"
          ],
          "data": "0x00000000000000000000000000000000000000000000000000000000678feaf00000000000000000000000000000000000000000000000000004b61edc0cf9e400000000000000000000000000000000000000000000000000000000f28415e9",
          "blockHash": "0x1a4109805429f139a16101c7f20731ca47ee49444a7c61b05371c7fc43b03b6e",
          "blockNumber": "0x7313dd",
          "transactionHash": "0x7f3877486a120a0b37558ce501103fe8766e0dcd97bd5adf7e46ba5c7c292690",
          "transactionIndex": "0x8c",
          "logIndex": "0xe8",
          "removed": false
        }
      ],
      "logsBloom": "0x00000000000000000000000000000000000000000600000000000000000000000000000000000000000000000000000000000000000000004000000000000000000000000000004000000008000000000000000000000000000000000000000000000000020000000000000000000800020000000000000000000010000000000000000000000000000000000000000000000000000000000000010000000000000000000000000000000000000000004000000000000000000000000000000000000002000000800000000000000000000000000000080000000000000020000000000000000000000000000000000000000000000000000000000000000000",
      "type": "0x2",
      "transactionHash": "0x7f3877486a120a0b37558ce501103fe8766e0dcd97bd5adf7e46ba5c7c292690",
      "transactionIndex": "0x8c",
      "blockHash": "0x1a4109805429f139a16101c7f20731ca47ee49444a7c61b05371c7fc43b03b6e",
      "blockNumber": "0x7313dd",
      "gasUsed": "0xfd27",
      "effectiveGasPrice": "0x6b07d604",
      "from": "0xc77f7fed3b5cc8249adc428c5f44c9063b9734b4",
      "to": "0x8aafd3ede9adb0ff97c7aebce82a919afb1c8764",
      "contractAddress": null
    }
  ],
  "libraries": [],
  "pending": [],
  "returns": {},
  "timestamp": 1737485041,
  "chain": 11155111,
  "commit": "51a374b"
}