{
  "transactions": [
    {
      "hash": "0x9f6d7c5ebf0f2a4e4a3602a9ca762bb965ff38e4cd0fe551479d5ae862ee6358",
      "transactionType": "CALL",
      "contractName": null,
      "contractAddress": "0x270e88f8683660553e8ba4eb2ad7c91a1710d769",
      "function": "sell(uint256)",
      "arguments": [
        "979765856810654662079"
      ],
      "transaction": {
        "from": "0xc77f7fed3b5cc8249adc428c5f44c9063b9734b4",
        "to": "0x270e88f8683660553e8ba4eb2ad7c91a1710d769",
        "gas": "0x16fec",
        "value": "0x0",
        "input": "0xe4849b320000000000000000000000000000000000000000000000351cfb8fbf4f4e7dbf",
        "nonce": "0x529",
        "chainId": "0xaa36a7"
      },
      "additionalContracts": [],
      "isFixedGasLimit": false
    }
  ],
  "receipts": [
    {
      "status": "0x1",
      "cumulativeGasUsed": "0x142e48a",
      "logs": [
        {
          "address": "0x270e88f8683660553e8ba4eb2ad7c91a1710d769",
          "topics": [
            "0xddf252ad1be2c89b69c2b068fc378daa952ba7f163c4a11628f55a4df523b3ef",
            "0x000000000000000000000000c77f7fed3b5cc8249adc428c5f44c9063b9734b4",
            "0x0000000000000000000000000000000000000000000000000000000000000000"
          ],
          "data": "0x0000000000000000000000000000000000000000000000351cfb8fbf4f4e7dbf",
          "blockHash": "0x0056b47791ac125f142ca483ed726b79ec4302a12cbfedead34286fe583933b0",
          "blockNumber": "0x7251c3",
          "transactionHash": "0x9f6d7c5ebf0f2a4e4a3602a9ca762bb965ff38e4cd0fe551479d5ae862ee6358",
          "transactionIndex": "0x74",
          "logIndex": "0x16f",
          "removed": false
        },
        {
          "address": "0x270e88f8683660553e8ba4eb2ad7c91a1710d769",
          "topics": [
            "0x4afcb4a87cdbd9974efdb92ee48bc8d7cd0ae4bf217004db3d080cbaee652ca7"
          ],
          "data": "0x000000000000000000000000000000000000000000000000000000006786c70800000000000000000000000000000000000000000000000000039a1331e033830000000000000000000000000000000000000000000000000dc8413770e107a2",
          "blockHash": "0x0056b47791ac125f142ca483ed726b79ec4302a12cbfedead34286fe583933b0",
          "blockNumber": "0x7251c3",
          "transactionHash": "0x9f6d7c5ebf0f2a4e4a3602a9ca762bb965ff38e4cd0fe551479d5ae862ee6358",
          "transactionIndex": "0x74",
          "logIndex": "0x170",
          "removed": false
        }
      ],
      "logsBloom": "0x00000000000000000000000000000000000000000000000000000000000000000000000000000000000000000000000020000000000000004000000000000000000000000000000000000008000000000000000000000000000000000000000000000000020000000000000000000800020000000000000000000010000000000000000000010000000000000000000000000000000000000000010000000000000000000000000000000000000000004000000000000000000000000000000000000002000000800000000000000000000000000000080000008000000020000000000000000000000000000000000000000000000000000000000000000000",
      "type": "0x2",
      "transactionHash": "0x9f6d7c5ebf0f2a4e4a3602a9ca762bb965ff38e4cd0fe551479d5ae862ee6358",
      "transactionIndex": "0x74",
      "blockHash": "0x0056b47791ac125f142ca483ed726b79ec4302a12cbfedead34286fe583933b0",
      "blockNumber": "0x7251c3",
      "gasUsed": "0xfb93",
      "effectiveGasPrice": "0x440817b0d",
      "from": "0xc77f7fed3b5cc8249adc428c5f44c9063b9734b4",
      "to": "0x270e88f8683660553e8ba4eb2ad7c91a1710d769",
      "contractAddress": null
    }
  ],
  "libraries": [],
  "pending": [],
  "returns": {},
  "timestamp": 1736886025,
  "chain": 11155111,
  "commit": "51a374b"
}