{
  "transactions": [
    {
      "hash": "0xc46f40e2180921650108a4e512d3df6caa60f80d118e02164ef91e64c3883efb",
      "transactionType": "CALL",
      "contractName": null,
      "contractAddress": "0x8aafd3ede9adb0ff97c7aebce82a919afb1c8764",
      "function": "sell(uint256)",
      "arguments": [
        "4691498983"
      ],
      "transaction": {
        "from": "0xc77f7fed3b5cc8249adc428c5f44c9063b9734b4",
        "to": "0x8aafd3ede9adb0ff97c7aebce82a919afb1c8764",
        "gas": "0x1722a",
        "value": "0x0",
        "input": "0xe4849b320000000000000000000000000000000000000000000000000000000117a297e7",
        "nonce": "0x1795",
        "chainId": "0xaa36a7"
      },
      "additionalContracts": [],
      "isFixedGasLimit": false
    }
  ],
  "receipts": [
    {
      "status": "0x1",
      "cumulativeGasUsed": "0xea326e",
      "logs": [
        {
          "address": "0x8aafd3ede9adb0ff97c7aebce82a919afb1c8764",
          "topics": [
            "0xddf252ad1be2c89b69c2b068fc378daa952ba7f163c4a11628f55a4df523b3ef",
            "0x000000000000000000000000c77f7fed3b5cc8249adc428c5f44c9063b9734b4",
            "0x0000000000000000000000000000000000000000000000000000000000000000"
          ],
          "data": "0x000000000000000000000000000000000000000000000000000000011565e690",
          "blockHash": "0xeeef32c457baf2fb59fcdc4f4879470b845021523b81ae074626e4876c12ef85",
          "blockNumber": "0x731f73",
          "transactionHash": "0xc46f40e2180921650108a4e512d3df6caa60f80d118e02164ef91e64c3883efb",
          "transactionIndex": "0x6a",
          "logIndex": "0xf6",
          "removed": false
        },
        {
          "address": "0x8aafd3ede9adb0ff97c7aebce82a919afb1c8764",
          "topics": [
            "0xddf252ad1be2c89b69c2b068fc378daa952ba7f163c4a11628f55a4df523b3ef",
            "0x000000000000000000000000c77f7fed3b5cc8249adc428c5f44c9063b9734b4",
            "0x000000000000000000000000c77f7fed3b5cc8249adc428c5f44c9063b9734b4"
          ],
          "data": "0x00000000000000000000000000000000000000000000000000000000023cb157",
          "blockHash": "0xeeef32c457baf2fb59fcdc4f4879470b845021523b81ae074626e4876c12ef85",
          "blockNumber": "0x731f73",
          "transactionHash": "0xc46f40e2180921650108a4e512d3df6caa60f80d118e02164ef91e64c3883efb",
          "transactionIndex": "0x6a",
          "logIndex": "0xf7",
          "removed": false
        },
        {
          "address": "0x8aafd3ede9adb0ff97c7aebce82a919afb1c8764",
          "topics": [
            "0x4afcb4a87cdbd9974efdb92ee48bc8d7cd0ae4bf217004db3d080cbaee652ca7"
          ],
          "data": "0x000000000000000000000000000000000000000000000000000000006790764c0000000000000000000000000000000000000000000000000018bef86f461c2a0000000000000000000000000000000000000000000000000000000001f2a09b",
          "blockHash": "0xeeef32c457baf2fb59fcdc4f4879470b845021523b81ae074626e4876c12ef85",
          "blockNumber": "0x731f73",
          "transactionHash": "0xc46f40e2180921650108a4e512d3df6caa60f80d118e02164ef91e64c3883efb",
          "transactionIndex": "0x6a",
          "logIndex": "0xf8",
          "removed": false
        }
      ],
      "logsBloom": "0x00000000000000000000000000000000000000000600000000000000000000000000000000000000000000000000000000000000000000004000000000000000000000000000004000000008000000000000000000000000000000000000000000000000020000000000000000000800020000000000000000000010000000000000000000000000000000000000000000000000000000000000010000000000000000000000000000000000000000004000000000000000000000000000000000000002000000800000000000000000000000000000080000000000000020000000000000000000000000000000000000000000000000000000000000000000",
      "type": "0x2",
      "transactionHash": "0xc46f40e2180921650108a4e512d3df6caa60f80d118e02164ef91e64c3883efb",
      "transactionIndex": "0x6a",
      "blockHash": "0xeeef32c457baf2fb59fcdc4f4879470b845021523b81ae074626e4876c12ef85",
      "blockNumber": "0x731f73",
      "gasUsed": "0xfd1b",
      "effectiveGasPrice": "0x4727ebd3",
      "from": "0xc77f7fed3b5cc8249adc428c5f44c9063b9734b4",
      "to": "0x8aafd3ede9adb0ff97c7aebce82a919afb1c8764",
      "contractAddress": null
    }
  ],
  "libraries": [],
  "pending": [],
  "returns": {},
  "timestamp": 1737520718,
  "chain": 11155111,
  "commit": "1d2fb70"
}