{
  "transactions": [
    {
      "hash": "0x2b8ea77a2f625a5f57613a7ccbcc79393b513b48e24a0ac48212eba71c1902c3",
      "transactionType": "CALL",
      "contractName": null,
      "contractAddress": "0xbf4a322f1496e5c3d34a9bcdb4c60567b38c7de2",
      "function": "buy(address)",
      "arguments": [
        "0xC77f7fed3b5Cc8249aDc428c5F44C9063B9734b4"
      ],
      "transaction": {
        "from": "0xc77f7fed3b5cc8249adc428c5f44c9063b9734b4",
        "to": "0xbf4a322f1496e5c3d34a9bcdb4c60567b38c7de2",
        "gas": "0x1b309",
        "value": "0xde0b6b3a7640000",
        "input": "0xf088d547000000000000000000000000c77f7fed3b5cc8249adc428c5f44c9063b9734b4",
        "nonce": "0xdbe",
        "chainId": "0xaa36a7"
      },
      "additionalContracts": [],
      "isFixedGasLimit": false
    }
  ],
  "receipts": [
    {
      "status": "0x1",
      "cumulativeGasUsed": "0xb46f25",
      "logs": [
        {
          "address": "0xbf4a322f1496e5c3d34a9bcdb4c60567b38c7de2",
          "topics": [
            "0xddf252ad1be2c89b69c2b068fc378daa952ba7f163c4a11628f55a4df523b3ef",
            "0x0000000000000000000000000000000000000000000000000000000000000000",
            "0x000000000000000000000000c77f7fed3b5cc8249adc428c5f44c9063b9734b4"
          ],
          "data": "0x000000000000000000000000000000000000000000000034a8f748c53a6b538b",
          "blockHash": "0xb444d415b7f76ef8d26483b7edef8c84935423467f7d4327cc84875be9ec936e",
          "blockNumber": "0x726699",
          "transactionHash": "0x2b8ea77a2f625a5f57613a7ccbcc79393b513b48e24a0ac48212eba71c1902c3",
          "transactionIndex": "0x43",
          "logIndex": "0x89",
          "removed": false
        },
        {
          "address": "0xbf4a322f1496e5c3d34a9bcdb4c60567b38c7de2",
          "topics": [
            "0xddf252ad1be2c89b69c2b068fc378daa952ba7f163c4a11628f55a4df523b3ef",
            "0x0000000000000000000000000000000000000000000000000000000000000000",
            "0x000000000000000000000000c77f7fed3b5cc8249adc428c5f44c9063b9734b4"
          ],
          "data": "0x00000000000000000000000000000000000000000000000028e46e0dc0b40bee",
          "blockHash": "0xb444d415b7f76ef8d26483b7edef8c84935423467f7d4327cc84875be9ec936e",
          "blockNumber": "0x726699",
          "transactionHash": "0x2b8ea77a2f625a5f57613a7ccbcc79393b513b48e24a0ac48212eba71c1902c3",
          "transactionIndex": "0x43",
          "logIndex": "0x8a",
          "removed": false
        },
        {
          "address": "0xbf4a322f1496e5c3d34a9bcdb4c60567b38c7de2",
          "topics": [
            "0x4afcb4a87cdbd9974efdb92ee48bc8d7cd0ae4bf217004db3d080cbaee652ca7"
          ],
          "data": "0x000000000000000000000000000000000000000000000000000000006787c22400000000000000000000000000000000000000000000000000039ee9aa9446690000000000000000000000000000000000000000000000000de0b6b3a7640000",
          "blockHash": "0xb444d415b7f76ef8d26483b7edef8c84935423467f7d4327cc84875be9ec936e",
          "blockNumber": "0x726699",
          "transactionHash": "0x2b8ea77a2f625a5f57613a7ccbcc79393b513b48e24a0ac48212eba71c1902c3",
          "transactionIndex": "0x43",
          "logIndex": "0x8b",
          "removed": false
        }
      ],
      "logsBloom": "0x00000000000000000000000000000000000000000000000000000000000000000000000000000000000000000000000000000000000000004000000000000000000000000000000000000008000000000000001000000000000000000000000000000000020000000000000000000800020000000000000000000010000000000000000000000000000000000000000000000000000008000000010000000000000000000000000000000000000000004000000000000000000000000000000000000002000000800000000000001000000000000000080000000000000020000000000000000000000000000000000000000000000000000000000000000000",
      "type": "0x2",
      "transactionHash": "0x2b8ea77a2f625a5f57613a7ccbcc79393b513b48e24a0ac48212eba71c1902c3",
      "transactionIndex": "0x43",
      "blockHash": "0xb444d415b7f76ef8d26483b7edef8c84935423467f7d4327cc84875be9ec936e",
      "blockNumber": "0x726699",
      "gasUsed": "0x13af6",
      "effectiveGasPrice": "0xbcb8b043",
      "from": "0xc77f7fed3b5cc8249adc428c5f44c9063b9734b4",
      "to": "0xbf4a322f1496e5c3d34a9bcdb4c60567b38c7de2",
      "contractAddress": null
    }
  ],
  "libraries": [],
  "pending": [],
  "returns": {},
  "timestamp": 1736950309,
  "chain": 11155111,
  "commit": "51a374b"
}