{
  "transactions": [
    {
      "hash": "0x5a7984d7a6bdc25458c84793d7cc9fe41dceb7bb94016903bd240a2ee2226d8e",
      "transactionType": "CALL",
      "contractName": null,
      "contractAddress": "0x8aafd3ede9adb0ff97c7aebce82a919afb1c8764",
      "function": "sell(uint256)",
      "arguments": [
        "22749152513"
      ],
      "transaction": {
        "from": "0xc77f7fed3b5cc8249adc428c5f44c9063b9734b4",
        "to": "0x8aafd3ede9adb0ff97c7aebce82a919afb1c8764",
        "gas": "0x1722a",
        "value": "0x0",
        "input": "0xe4849b32000000000000000000000000000000000000000000000000000000054bf48501",
        "nonce": "0x114a",
        "chainId": "0xaa36a7"
      },
      "additionalContracts": [],
      "isFixedGasLimit": false
    }
  ],
  "receipts": [
    {
      "status": "0x1",
      "cumulativeGasUsed": "0xcec231",
      "logs": [
        {
          "address": "0x8aafd3ede9adb0ff97c7aebce82a919afb1c8764",
          "topics": [
            "0xddf252ad1be2c89b69c2b068fc378daa952ba7f163c4a11628f55a4df523b3ef",
            "0x000000000000000000000000c77f7fed3b5cc8249adc428c5f44c9063b9734b4",
            "0x0000000000000000000000000000000000000000000000000000000000000000"
          ],
          "data": "0x00000000000000000000000000000000000000000000000000000005411b85fd",
          "blockHash": "0x4ddb8529e7080064548a1016958ee0d4989aea79146274b164a24b2c4882d645",
          "blockNumber": "0x731803",
          "transactionHash": "0x5a7984d7a6bdc25458c84793d7cc9fe41dceb7bb94016903bd240a2ee2226d8e",
          "transactionIndex": "0x7c",
          "logIndex": "0xa6",
          "removed": false
        },
        {
          "address": "0x8aafd3ede9adb0ff97c7aebce82a919afb1c8764",
          "topics": [
            "0xddf252ad1be2c89b69c2b068fc378daa952ba7f163c4a11628f55a4df523b3ef",
            "0x000000000000000000000000c77f7fed3b5cc8249adc428c5f44c9063b9734b4",
            "0x000000000000000000000000c77f7fed3b5cc8249adc428c5f44c9063b9734b4"
          ],
          "data": "0x000000000000000000000000000000000000000000000000000000000ad8ff04",
          "blockHash": "0x4ddb8529e7080064548a1016958ee0d4989aea79146274b164a24b2c4882d645",
          "blockNumber": "0x731803",
          "transactionHash": "0x5a7984d7a6bdc25458c84793d7cc9fe41dceb7bb94016903bd240a2ee2226d8e",
          "transactionIndex": "0x7c",
          "logIndex": "0xa7",
          "removed": false
        },
        {
          "address": "0x8aafd3ede9adb0ff97c7aebce82a919afb1c8764",
          "topics": [
            "0x4afcb4a87cdbd9974efdb92ee48bc8d7cd0ae4bf217004db3d080cbaee652ca7"
          ],
          "data": "0x0000000000000000000000000000000000000000000000000000000067901ce800000000000000000000000000000000000000000000000000051653cb011b370000000000000000000000000000000000000000000000000000000001f10e52",
          "blockHash": "0x4ddb8529e7080064548a1016958ee0d4989aea79146274b164a24b2c4882d645",
          "blockNumber": "0x731803",
          "transactionHash": "0x5a7984d7a6bdc25458c84793d7cc9fe41dceb7bb94016903bd240a2ee2226d8e",
          "transactionIndex": "0x7c",
          "logIndex": "0xa8",
          "removed": false
        }
      ],
      "logsBloom": "0x00000000000000000000000000000000000000000600000000000000000000000000000000000000000000000000000000000000000000004000000000000000000000000000004000000008000000000000000000000000000000000000000000000000020000000000000000000800020000000000000000000010000000000000000000000000000000000000000000000000000000000000010000000000000000000000000000000000000000004000000000000000000000000000000000000002000000800000000000000000000000000000080000000000000020000000000000000000000000000000000000000000000000000000000000000000",
      "type": "0x2",
      "transactionHash": "0x5a7984d7a6bdc25458c84793d7cc9fe41dceb7bb94016903bd240a2ee2226d8e",
      "transactionIndex": "0x7c",
      "blockHash": "0x4ddb8529e7080064548a1016958ee0d4989aea79146274b164a24b2c4882d645",
      "blockNumber": "0x731803",
      "gasUsed": "0xfd1b",
      "effectiveGasPrice": "0x3961c12a",
      "from": "0xc77f7fed3b5cc8249adc428c5f44c9063b9734b4",
      "to": "0x8aafd3ede9adb0ff97c7aebce82a919afb1c8764",
      "contractAddress": null
    }
  ],
  "libraries": [],
  "pending": [],
  "returns": {},
  "timestamp": 1737497834,
  "chain": 11155111,
  "commit": "1d2fb70"
}