{
  "transactions": [
    {
      "hash": "0x0e1890c7f79f62833947c4709dd7dc3939c8d2b251a916d5ccd3375e373af0bb",
      "transactionType": "CALL",
      "contractName": null,
      "contractAddress": "0x270e88f8683660553e8ba4eb2ad7c91a1710d769",
      "function": "buy(address)",
      "arguments": [
        "0xC77f7fed3b5Cc8249aDc428c5F44C9063B9734b4"
      ],
      "transaction": {
        "from": "0xc77f7fed3b5cc8249adc428c5f44c9063b9734b4",
        "to": "0x270e88f8683660553e8ba4eb2ad7c91a1710d769",
        "gas": "0x1b30c",
        "value": "0xde0b6b3a7640000",
        "input": "0xf088d547000000000000000000000000c77f7fed3b5cc8249adc428c5f44c9063b9734b4",
        "nonce": "0x6e1",
        "chainId": "0xaa36a7"
      },
      "additionalContracts": [],
      "isFixedGasLimit": false
    }
  ],
  "receipts": [
    {
      "status": "0x1",
      "cumulativeGasUsed": "0xc76dda",
      "logs": [
        {
          "address": "0x270e88f8683660553e8ba4eb2ad7c91a1710d769",
          "topics": [
            "0xddf252ad1be2c89b69c2b068fc378daa952ba7f163c4a11628f55a4df523b3ef",
            "0x0000000000000000000000000000000000000000000000000000000000000000",
            "0x000000000000000000000000c77f7fed3b5cc8249adc428c5f44c9063b9734b4"
          ],
          "data": "0x0000000000000000000000000000000000000000000000286d521b3dbeddc72f",
          "blockHash": "0xa5ea4cfca9fcff56abe656dd92fa2d84fa96826c5cdf47949015400e998b522d",
          "blockNumber": "0x7253f4",
          "transactionHash": "0x0e1890c7f79f62833947c4709dd7dc3939c8d2b251a916d5ccd3375e373af0bb",
          "transactionIndex": "0x41",
          "logIndex": "0x4f",
          "removed": false
        },
        {
          "address": "0x270e88f8683660553e8ba4eb2ad7c91a1710d769",
          "topics": [
            "0xddf252ad1be2c89b69c2b068fc378daa952ba7f163c4a11628f55a4df523b3ef",
            "0x0000000000000000000000000000000000000000000000000000000000000000",
            "0x000000000000000000000000c77f7fed3b5cc8249adc428c5f44c9063b9734b4"
          ],
          "data": "0x0000000000000000000000000000000000000000000000001f6499be4271d051",
          "blockHash": "0xa5ea4cfca9fcff56abe656dd92fa2d84fa96826c5cdf47949015400e998b522d",
          "blockNumber": "0x7253f4",
          "transactionHash": "0x0e1890c7f79f62833947c4709dd7dc3939c8d2b251a916d5ccd3375e373af0bb",
          "transactionIndex": "0x41",
          "logIndex": "0x50",
          "removed": false
        },
        {
          "address": "0x270e88f8683660553e8ba4eb2ad7c91a1710d769",
          "topics": [
            "0x4afcb4a87cdbd9974efdb92ee48bc8d7cd0ae4bf217004db3d080cbaee652ca7"
          ],
          "data": "0x000000000000000000000000000000000000000000000000000000006786e1780000000000000000000000000000000000000000000000000004b77bf23752490000000000000000000000000000000000000000000000000de0b6b3a7640000",
          "blockHash": "0xa5ea4cfca9fcff56abe656dd92fa2d84fa96826c5cdf47949015400e998b522d",
          "blockNumber": "0x7253f4",
          "transactionHash": "0x0e1890c7f79f62833947c4709dd7dc3939c8d2b251a916d5ccd3375e373af0bb",
          "transactionIndex": "0x41",
          "logIndex": "0x51",
          "removed": false
        }
      ],
      "logsBloom": "0x00000000000000000000000000000000000000000000000000000000000000000000000000000000000000000000000020000000000000004000000000000000000000000000000000000008000000000000000000000000000000000000000000000000020000000000000000000800020000000000000000000010000000000000000000010000000000000000000000000000000000000000010000000000000000000000000000000000000000004000000000000000000000000000000000000002000000800000000000000000000000000000080000008000000020000000000000000000000000000000000000000000000000000000000000000000",
      "type": "0x2",
      "transactionHash": "0x0e1890c7f79f62833947c4709dd7dc3939c8d2b251a916d5ccd3375e373af0bb",
      "transactionIndex": "0x41",
      "blockHash": "0xa5ea4cfca9fcff56abe656dd92fa2d84fa96826c5cdf47949015400e998b522d",
      "blockNumber": "0x7253f4",
      "gasUsed": "0x13af8",
      "effectiveGasPrice": "0x164b153ce",
      "from": "0xc77f7fed3b5cc8249adc428c5f44c9063b9734b4",
      "to": "0x270e88f8683660553e8ba4eb2ad7c91a1710d769",
      "contractAddress": null
    }
  ],
  "libraries": [],
  "pending": [],
  "returns": {},
  "timestamp": 1736892792,
  "chain": 11155111,
  "commit": "51a374b"
}