{
  "transactions": [
    {
      "hash": "0x801f0470c4938527486f94db494146952d12d73a8b308e8d5f6c48db6a4a2ac8",
      "transactionType": "CALL",
      "contractName": null,
      "contractAddress": "0x8aafd3ede9adb0ff97c7aebce82a919afb1c8764",
      "function": "sell(uint256)",
      "arguments": [
        "319374"
      ],
      "transaction": {
        "from": "0xc77f7fed3b5cc8249adc428c5f44c9063b9734b4",
        "to": "0x8aafd3ede9adb0ff97c7aebce82a919afb1c8764",
        "gas": "0x16208",
        "value": "0x0",
        "input": "0xe4849b32000000000000000000000000000000000000000000000000000000000004df8e",
        "nonce": "0x1719",
        "chainId": "0xaa36a7"
      },
      "additionalContracts": [],
      "isFixedGasLimit": false
    }
  ],
  "receipts": [
    {
      "status": "0x1",
      "cumulativeGasUsed": "0x16ff3c8",
      "logs": [
        {
          "address": "0x8aafd3ede9adb0ff97c7aebce82a919afb1c8764",
          "topics": [
            "0xddf252ad1be2c89b69c2b068fc378daa952ba7f163c4a11628f55a4df523b3ef",
            "0x000000000000000000000000c77f7fed3b5cc8249adc428c5f44c9063b9734b4",
            "0x0000000000000000000000000000000000000000000000000000000000000000"
          ],
          "data": "0x000000000000000000000000000000000000000000000000000000000004d594",
          "blockHash": "0xe8673645af4be86e02c8fb843fa0de5ed20c693eac9bb80d57eeac47388468db",
          "blockNumber": "0x731edf",
          "transactionHash": "0x801f0470c4938527486f94db494146952d12d73a8b308e8d5f6c48db6a4a2ac8",
          "transactionIndex": "0x8a",
          "logIndex": "0xda",
          "removed": false
        },
        {
          "address": "0x8aafd3ede9adb0ff97c7aebce82a919afb1c8764",
          "topics": [
            "0xddf252ad1be2c89b69c2b068fc378daa952ba7f163c4a11628f55a4df523b3ef",
            "0x000000000000000000000000c77f7fed3b5cc8249adc428c5f44c9063b9734b4",
            "0x000000000000000000000000c77f7fed3b5cc8249adc428c5f44c9063b9734b4"
          ],
          "data": "0x00000000000000000000000000000000000000000000000000000000000009fa",
          "blockHash": "0xe8673645af4be86e02c8fb843fa0de5ed20c693eac9bb80d57eeac47388468db",
          "blockNumber": "0x731edf",
          "transactionHash": "0x801f0470c4938527486f94db494146952d12d73a8b308e8d5f6c48db6a4a2ac8",
          "transactionIndex": "0x8a",
          "logIndex": "0xdb",
          "removed": false
        },
        {
          "address": "0x8aafd3ede9adb0ff97c7aebce82a919afb1c8764",
          "topics": [
            "0x4afcb4a87cdbd9974efdb92ee48bc8d7cd0ae4bf217004db3d080cbaee652ca7"
          ],
          "data": "0x0000000000000000000000000000000000000000000000000000000067906f5c0000000000000000000000000000000000000000000000000017454a20129c87000000000000000000000000000000000000000000000000000000000000082b",
          "blockHash": "0xe8673645af4be86e02c8fb843fa0de5ed20c693eac9bb80d57eeac47388468db",
          "blockNumber": "0x731edf",
          "transactionHash": "0x801f0470c4938527486f94db494146952d12d73a8b308e8d5f6c48db6a4a2ac8",
          "transactionIndex": "0x8a",
          "logIndex": "0xdc",
          "removed": false
        }
      ],
      "logsBloom": "0x00000000000000000000000000000000000000000600000000000000000000000000000000000000000000000000000000000000000000004000000000000000000000000000004000000008000000000000000000000000000000000000000000000000020000000000000000000800020000000000000000000010000000000000000000000000000000000000000000000000000000000000010000000000000000000000000000000000000000004000000000000000000000000000000000000002000000800000000000000000000000000000080000000000000020000000000000000000000000000000000000000000000000000000000000000000",
      "type": "0x2",
      "transactionHash": "0x801f0470c4938527486f94db494146952d12d73a8b308e8d5f6c48db6a4a2ac8",
      "transactionIndex": "0x8a",
      "blockHash": "0xe8673645af4be86e02c8fb843fa0de5ed20c693eac9bb80d57eeac47388468db",
      "blockNumber": "0x731edf",
      "gasUsed": "0xf213",
      "effectiveGasPrice": "0x3f202f35",
      "from": "0xc77f7fed3b5cc8249adc428c5f44c9063b9734b4",
      "to": "0x8aafd3ede9adb0ff97c7aebce82a919afb1c8764",
      "contractAddress": null
    }
  ],
  "libraries": [],
  "pending": [],
  "returns": {},
  "timestamp": 1737518941,
  "chain": 11155111,
  "commit": "1d2fb70"
}