{
  "transactions": [
    {
      "hash": "0x8947c8a7c9e73d8745b135baf9f4fddaaa1630a2b59ea2ae8c611d1d531342e4",
      "transactionType": "CALL",
      "contractName": null,
      "contractAddress": "0x5eb9cc76c3506942c1c0ead70e877dd5e4f00cb0",
      "function": "buy(address)",
      "arguments": [
        "0xC77f7fed3b5Cc8249aDc428c5F44C9063B9734b4"
      ],
      "transaction": {
        "from": "0xc77f7fed3b5cc8249adc428c5f44c9063b9734b4",
        "to": "0x5eb9cc76c3506942c1c0ead70e877dd5e4f00cb0",
        "gas": "0x1b30c",
        "value": "0xde0b6b3a7640000",
        "input": "0xf088d547000000000000000000000000c77f7fed3b5cc8249adc428c5f44c9063b9734b4",
        "nonce": "0x2da",
        "chainId": "0xaa36a7"
      },
      "additionalContracts": [],
      "isFixedGasLimit": false
    }
  ],
  "receipts": [
    {
      "status": "0x1",
      "cumulativeGasUsed": "0x8b8c6c",
      "logs": [
        {
          "address": "0x5eb9cc76c3506942c1c0ead70e877dd5e4f00cb0",
          "topics": [
            "0xddf252ad1be2c89b69c2b068fc378daa952ba7f163c4a11628f55a4df523b3ef",
            "0x0000000000000000000000000000000000000000000000000000000000000000",
            "0x000000000000000000000000c77f7fed3b5cc8249adc428c5f44c9063b9734b4"
          ],
          "data": "0x00000000000000000000000000000000000000000000003575a82b4b4d7b6b20",
          "blockHash": "0xe2aaf810ec5b89a5972eb414537f6da712c2569506043fb3a8434e6b55f2f723",
          "blockNumber": "0x724eb7",
          "transactionHash": "0x8947c8a7c9e73d8745b135baf9f4fddaaa1630a2b59ea2ae8c611d1d531342e4",
          "transactionIndex": "0x40",
          "logIndex": "0x60",
          "removed": false
        },
        {
          "address": "0x5eb9cc76c3506942c1c0ead70e877dd5e4f00cb0",
          "topics": [
            "0xddf252ad1be2c89b69c2b068fc378daa952ba7f163c4a11628f55a4df523b3ef",
            "0x0000000000000000000000000000000000000000000000000000000000000000",
            "0x000000000000000000000000c77f7fed3b5cc8249adc428c5f44c9063b9734b4"
          ],
          "data": "0x00000000000000000000000000000000000000000000000029836120d1ce599c",
          "blockHash": "0xe2aaf810ec5b89a5972eb414537f6da712c2569506043fb3a8434e6b55f2f723",
          "blockNumber": "0x724eb7",
          "transactionHash": "0x8947c8a7c9e73d8745b135baf9f4fddaaa1630a2b59ea2ae8c611d1d531342e4",
          "transactionIndex": "0x40",
          "logIndex": "0x61",
          "removed": false
        },
        {
          "address": "0x5eb9cc76c3506942c1c0ead70e877dd5e4f00cb0",
          "topics": [
            "0x4afcb4a87cdbd9974efdb92ee48bc8d7cd0ae4bf217004db3d080cbaee652ca7"
          ],
          "data": "0x000000000000000000000000000000000000000000000000000000006786a2480000000000000000000000000000000000000000000000000003910a5a3197200000000000000000000000000000000000000000000000000de0b6b3a7640000",
          "blockHash": "0xe2aaf810ec5b89a5972eb414537f6da712c2569506043fb3a8434e6b55f2f723",
          "blockNumber": "0x724eb7",
          "transactionHash": "0x8947c8a7c9e73d8745b135baf9f4fddaaa1630a2b59ea2ae8c611d1d531342e4",
          "transactionIndex": "0x40",
          "logIndex": "0x62",
          "removed": false
        }
      ],
      "logsBloom": "0x00000000000000000000000000000000000000000000000000000000000000000000000000000000000000000000000000000000000000004000000000000000000000000000000000000008000000000000000000000000000000000000000000000000020000000000000004000800020000000000000000000010000000000000000000000000000000000000000000000000000000000000010000000000000000000000000000000000000000004000000000000000000000000000020000000002000000800000008000000000000000000000080000000000000020000000000000000000000000000000000000000000000000000000000000000000",
      "type": "0x2",
      "transactionHash": "0x8947c8a7c9e73d8745b135baf9f4fddaaa1630a2b59ea2ae8c611d1d531342e4",
      "transactionIndex": "0x40",
      "blockHash": "0xe2aaf810ec5b89a5972eb414537f6da712c2569506043fb3a8434e6b55f2f723",
      "blockNumber": "0x724eb7",
      "gasUsed": "0x13af8",
      "effectiveGasPrice": "0x4a1e318e6",
      "from": "0xc77f7fed3b5cc8249adc428c5f44c9063b9734b4",
      "to": "0x5eb9cc76c3506942c1c0ead70e877dd5e4f00cb0",
      "contractAddress": null
    }
  ],
  "libraries": [],
  "pending": [],
  "returns": {},
  "timestamp": 1736876617,
  "chain": 11155111,
  "commit": "51a374b"
}