{
  "transactions": [
    {
      "hash": "0x91a91514a9e68b786158dfa857ecd4fab31b12bacdb8b1ce57dbd97bafdc6379",
      "transactionType": "CALL",
      "contractName": null,
      "contractAddress": "0x8aafd3ede9adb0ff97c7aebce82a919afb1c8764",
      "function": "sell(uint256)",
      "arguments": [
        "435226"
      ],
      "transaction": {
        "from": "0xc77f7fed3b5cc8249adc428c5f44c9063b9734b4",
        "to": "0x8aafd3ede9adb0ff97c7aebce82a919afb1c8764",
        "gas": "0x16208",
        "value": "0x0",
        "input": "0xe4849b32000000000000000000000000000000000000000000000000000000000006a41a",
        "nonce": "0x1506",
        "chainId": "0xaa36a7"
      },
      "additionalContracts": [],
      "isFixedGasLimit": false
    }
  ],
  "receipts": [
    {
      "status": "0x1",
      "cumulativeGasUsed": "0x917e4a",
      "logs": [
        {
          "address": "0x8aafd3ede9adb0ff97c7aebce82a919afb1c8764",
          "topics": [
            "0xddf252ad1be2c89b69c2b068fc378daa952ba7f163c4a11628f55a4df523b3ef",
            "0x000000000000000000000000c77f7fed3b5cc8249adc428c5f44c9063b9734b4",
            "0x0000000000000000000000000000000000000000000000000000000000000000"
          ],
          "data": "0x0000000000000000000000000000000000000000000000000000000000069681",
          "blockHash": "0xdc8c73f06c628262e506d9b494bb7803b037bf7ab5ab17904188b7e16558ca75",
          "blockNumber": "0x731c68",
          "transactionHash": "0x91a91514a9e68b786158dfa857ecd4fab31b12bacdb8b1ce57dbd97bafdc6379",
          "transactionIndex": "0x52",
          "logIndex": "0x73",
          "removed": false
        },
        {
          "address": "0x8aafd3ede9adb0ff97c7aebce82a919afb1c8764",
          "topics": [
            "0xddf252ad1be2c89b69c2b068fc378daa952ba7f163c4a11628f55a4df523b3ef",
            "0x000000000000000000000000c77f7fed3b5cc8249adc428c5f44c9063b9734b4",
            "0x000000000000000000000000c77f7fed3b5cc8249adc428c5f44c9063b9734b4"
          ],
          "data": "0x0000000000000000000000000000000000000000000000000000000000000d99",
          "blockHash": "0xdc8c73f06c628262e506d9b494bb7803b037bf7ab5ab17904188b7e16558ca75",
          "blockNumber": "0x731c68",
          "transactionHash": "0x91a91514a9e68b786158dfa857ecd4fab31b12bacdb8b1ce57dbd97bafdc6379",
          "transactionIndex": "0x52",
          "logIndex": "0x74",
          "removed": false
        },
        {
          "address": "0x8aafd3ede9adb0ff97c7aebce82a919afb1c8764",
          "topics": [
            "0x4afcb4a87cdbd9974efdb92ee48bc8d7cd0ae4bf217004db3d080cbaee652ca7"
          ],
          "data": "0x00000000000000000000000000000000000000000000000000000000679051bc00000000000000000000000000000000000000000000000000111a50508246d2000000000000000000000000000000000000000000000000000000000000082f",
          "blockHash": "0xdc8c73f06c628262e506d9b494bb7803b037bf7ab5ab17904188b7e16558ca75",
          "blockNumber": "0x731c68",
          "transactionHash": "0x91a91514a9e68b786158dfa857ecd4fab31b12bacdb8b1ce57dbd97bafdc6379",
          "transactionIndex": "0x52",
          "logIndex": "0x75",
          "removed": false
        }
      ],
      "logsBloom": "0x00000000000000000000000000000000000000000600000000000000000000000000000000000000000000000000000000000000000000004000000000000000000000000000004000000008000000000000000000000000000000000000000000000000020000000000000000000800020000000000000000000010000000000000000000000000000000000000000000000000000000000000010000000000000000000000000000000000000000004000000000000000000000000000000000000002000000800000000000000000000000000000080000000000000020000000000000000000000000000000000000000000000000000000000000000000",
      "type": "0x2",
      "transactionHash": "0x91a91514a9e68b786158dfa857ecd4fab31b12bacdb8b1ce57dbd97bafdc6379",
      "transactionIndex": "0x52",
      "blockHash": "0xdc8c73f06c628262e506d9b494bb7803b037bf7ab5ab17904188b7e16558ca75",
      "blockNumber": "0x731c68",
      "gasUsed": "0xf213",
      "effectiveGasPrice": "0x1ae65408b",
      "from": "0xc77f7fed3b5cc8249adc428c5f44c9063b9734b4",
      "to": "0x8aafd3ede9adb0ff97c7aebce82a919afb1c8764",
      "contractAddress": null
    }
  ],
  "libraries": [],
  "pending": [],
  "returns": {},
  "timestamp": 1737511357,
  "chain": 11155111,
  "commit": "1d2fb70"
}