{
  "transactions": [
    {
      "hash": "0xd64872cbb114e623c6b01392c3d5b55832c535b2d8b647b4937102e756fbdb60",
      "transactionType": "CALL",
      "contractName": null,
      "contractAddress": "0x270e88f8683660553e8ba4eb2ad7c91a1710d769",
      "function": "sell(uint256)",
      "arguments": [
        "980699541262745010611"
      ],
      "transaction": {
        "from": "0xc77f7fed3b5cc8249adc428c5f44c9063b9734b4",
        "to": "0x270e88f8683660553e8ba4eb2ad7c91a1710d769",
        "gas": "0x16fec",
        "value": "0x0",
        "input": "0xe4849b3200000000000000000000000000000000000000000000003529f0accf427501b3",
        "nonce": "0x523",
        "chainId": "0xaa36a7"
      },
      "additionalContracts": [],
      "isFixedGasLimit": false
    }
  ],
  "receipts": [
    {
      "status": "0x1",
      "cumulativeGasUsed": "0x1125f9d",
      "logs": [
        {
          "address": "0x270e88f8683660553e8ba4eb2ad7c91a1710d769",
          "topics": [
            "0xddf252ad1be2c89b69c2b068fc378daa952ba7f163c4a11628f55a4df523b3ef",
            "0x000000000000000000000000c77f7fed3b5cc8249adc428c5f44c9063b9734b4",
            "0x0000000000000000000000000000000000000000000000000000000000000000"
          ],
          "data": "0x00000000000000000000000000000000000000000000003529f0accf427501b3",
          "blockHash": "0x5f7aca1845caa87c09c2e22500385d61595fcc845d705f99acc7c951582f6319",
          "blockNumber": "0x7251bc",
          "transactionHash": "0xd64872cbb114e623c6b01392c3d5b55832c535b2d8b647b4937102e756fbdb60",
          "transactionIndex": "0x46",
          "logIndex": "0x75",
          "removed": false
        },
        {
          "address": "0x270e88f8683660553e8ba4eb2ad7c91a1710d769",
          "topics": [
            "0x4afcb4a87cdbd9974efdb92ee48bc8d7cd0ae4bf217004db3d080cbaee652ca7"
          ],
          "data": "0x000000000000000000000000000000000000000000000000000000006786c6b40000000000000000000000000000000000000000000000000003993287e970960000000000000000000000000000000000000000000000000dc8414ffbd9745b",
          "blockHash": "0x5f7aca1845caa87c09c2e22500385d61595fcc845d705f99acc7c951582f6319",
          "blockNumber": "0x7251bc",
          "transactionHash": "0xd64872cbb114e623c6b01392c3d5b55832c535b2d8b647b4937102e756fbdb60",
          "transactionIndex": "0x46",
          "logIndex": "0x76",
          "removed": false
        }
      ],
      "logsBloom": "0x00000000000000000000000000000000000000000000000000000000000000000000000000000000000000000000000020000000000000004000000000000000000000000000000000000008000000000000000000000000000000000000000000000000020000000000000000000800020000000000000000000010000000000000000000010000000000000000000000000000000000000000010000000000000000000000000000000000000000004000000000000000000000000000000000000002000000800000000000000000000000000000080000008000000020000000000000000000000000000000000000000000000000000000000000000000",
      "type": "0x2",
      "transactionHash": "0xd64872cbb114e623c6b01392c3d5b55832c535b2d8b647b4937102e756fbdb60",
      "transactionIndex": "0x46",
      "blockHash": "0x5f7aca1845caa87c09c2e22500385d61595fcc845d705f99acc7c951582f6319",
      "blockNumber": "0x7251bc",
      "gasUsed": "0xfb93",
      "effectiveGasPrice": "0x439f42c50",
      "from": "0xc77f7fed3b5cc8249adc428c5f44c9063b9734b4",
      "to": "0x270e88f8683660553e8ba4eb2ad7c91a1710d769",
      "contractAddress": null
    }
  ],
  "libraries": [],
  "pending": [],
  "returns": {},
  "timestamp": 1736885941,
  "chain": 11155111,
  "commit": "51a374b"
}