{
  "transactions": [
    {
      "hash": "0x22ecde139f08dd14ffd24999cb273d5eb298fe3f04ceb1df54bd35e682f64b0f",
      "transactionType": "CALL",
      "contractName": null,
      "contractAddress": "0xbf4a322f1496e5c3d34a9bcdb4c60567b38c7de2",
      "function": "sell(uint256)",
      "arguments": [
        "979583234879774128873"
      ],
      "transaction": {
        "from": "0xc77f7fed3b5cc8249adc428c5f44c9063b9734b4",
        "to": "0xbf4a322f1496e5c3d34a9bcdb4c60567b38c7de2",
        "gas": "0x16fea",
        "value": "0x0",
        "input": "0xe4849b320000000000000000000000000000000000000000000000351a72c21198f9fae9",
        "nonce": "0xc37",
        "chainId": "0xaa36a7"
      },
      "additionalContracts": [],
      "isFixedGasLimit": false
    }
  ],
  "receipts": [
    {
      "status": "0x1",
      "cumulativeGasUsed": "0x60949b",
      "logs": [
        {
          "address": "0xbf4a322f1496e5c3d34a9bcdb4c60567b38c7de2",
          "topics": [
            "0xddf252ad1be2c89b69c2b068fc378daa952ba7f163c4a11628f55a4df523b3ef",
            "0x000000000000000000000000c77f7fed3b5cc8249adc428c5f44c9063b9734b4",
            "0x0000000000000000000000000000000000000000000000000000000000000000"
          ],
          "data": "0x0000000000000000000000000000000000000000000000351a72c21198f9fae9",
          "blockHash": "0xd0a685e2fd71857d14062d47e359ad5e5a9fde80a39b625ddc69e3399c22b6a2",
          "blockNumber": "0x725c6a",
          "transactionHash": "0x22ecde139f08dd14ffd24999cb273d5eb298fe3f04ceb1df54bd35e682f64b0f",
          "transactionIndex": "0x34",
          "logIndex": "0x3d",
          "removed": false
        },
        {
          "address": "0xbf4a322f1496e5c3d34a9bcdb4c60567b38c7de2",
          "topics": [
            "0x4afcb4a87cdbd9974efdb92ee48bc8d7cd0ae4bf217004db3d080cbaee652ca7"
          ],
          "data": "0x0000000000000000000000000000000000000000000000000000000067874754000000000000000000000000000000000000000000000000000399fac38a51c20000000000000000000000000000000000000000000000000dc7e3e118ea6feb",
          "blockHash": "0xd0a685e2fd71857d14062d47e359ad5e5a9fde80a39b625ddc69e3399c22b6a2",
          "blockNumber": "0x725c6a",
          "transactionHash": "0x22ecde139f08dd14ffd24999cb273d5eb298fe3f04ceb1df54bd35e682f64b0f",
          "transactionIndex": "0x34",
          "logIndex": "0x3e",
          "removed": false
        }
      ],
      "logsBloom": "0x00000000000000000000000000000000000000000000000000000000000000000000000000000000000000000000000000000000000000004000000000000000000000000000000000000008000000000000001000000000000000000000000000000000020000000000000000000800020000000000000000000010000000000000000000000000000000000000000000000000000008000000010000000000000000000000000000000000000000004000000000000000000000000000000000000002000000800000000000001000000000000000080000000000000020000000000000000000000000000000000000000000000000000000000000000000",
      "type": "0x2",
      "transactionHash": "0x22ecde139f08dd14ffd24999cb273d5eb298fe3f04ceb1df54bd35e682f64b0f",
      "transactionIndex": "0x34",
      "blockHash": "0xd0a685e2fd71857d14062d47e359ad5e5a9fde80a39b625ddc69e3399c22b6a2",
      "blockNumber": "0x725c6a",
      "gasUsed": "0xfb91",
      "effectiveGasPrice": "0x1b951215a",
      "from": "0xc77f7fed3b5cc8249adc428c5f44c9063b9734b4",
      "to": "0xbf4a322f1496e5c3d34a9bcdb4c60567b38c7de2",
      "contractAddress": null
    }
  ],
  "libraries": [],
  "pending": [],
  "returns": {},
  "timestamp": 1736918870,
  "chain": 11155111,
  "commit": "51a374b"
}