{
  "transactions": [
    {
      "hash": "0x4d23569097efe91bc23aceb08e9c029d6e791c2e1b022a1b4d3b7c9a01950215",
      "transactionType": "CALL",
      "contractName": null,
      "contractAddress": "0x9a940ef65f8bf33332aa4faea921454828f0c80a",
      "function": "borrowMore(uint256)",
      "arguments": [
        "269361486"
      ],
      "transaction": {
        "from": "0xf66076775ad1f36dd12c1f1b10c21d1aadf0d6de",
        "to": "0x9a940ef65f8bf33332aa4faea921454828f0c80a",
        "gas": "0x1db2b",
        "value": "0x0",
        "input": "0x9d0bf2e900000000000000000000000000000000000000000000000000000000100e214e",
        "nonce": "0x5f",
        "chainId": "0xaa36a7"
      },
      "additionalContracts": [],
      "isFixedGasLimit": false
    }
  ],
  "receipts": [
    {
      "status": "0x1",
      "cumulativeGasUsed": "0xf6553c",
      "logs": [
        {
          "address": "0x9a940ef65f8bf33332aa4faea921454828f0c80a",
          "topics": [
            "0x03bbe564cb1b78e43195eeadbde99e5b89b19345862807fcfb59f884e4165e25"
          ],
          "data": "0x00000000000000000000000038818e389773445cd73adbaa37b8b169f458c6e10000000000000000000000000000000000000000000000000000000000013ba8",
          "blockHash": "0x0d4169adbd7cf3875450a07c454f4f6a194f94bd99bd76e8c6554994afad6bc3",
          "blockNumber": "0x73d25d",
          "transactionHash": "0x4d23569097efe91bc23aceb08e9c029d6e791c2e1b022a1b4d3b7c9a01950215",
          "transactionIndex": "0x92",
          "logIndex": "0xc6",
          "removed": false
        },
        {
          "address": "0x9a940ef65f8bf33332aa4faea921454828f0c80a",
          "topics": [
            "0x03bbe564cb1b78e43195eeadbde99e5b89b19345862807fcfb59f884e4165e25"
          ],
          "data": "0x000000000000000000000000f66076775ad1f36dd12c1f1b10c21d1aadf0d6de000000000000000000000000000000000000000000000000000000000fe0eb2e",
          "blockHash": "0x0d4169adbd7cf3875450a07c454f4f6a194f94bd99bd76e8c6554994afad6bc3",
          "blockNumber": "0x73d25d",
          "transactionHash": "0x4d23569097efe91bc23aceb08e9c029d6e791c2e1b022a1b4d3b7c9a01950215",
          "transactionIndex": "0x92",
          "logIndex": "0xc7",
          "removed": false
        },
        {
          "address": "0x9a940ef65f8bf33332aa4faea921454828f0c80a",
          "topics": [
            "0xaec00f5213a37254bc68a26b0685d1a5b2bf513e1e587c94c7df7f4a62b56c9c"
          ],
          "data": "0x000000000000000000000000000000000000000000000000521dda55a865dd890000000000000000000000000000000000000000000000000022f5c22bed62d70000000000000000000000000000000000000000000000000022f5c22bed62d7000000000000000000000000000000000000000000000000521dda55a865dd89",
          "blockHash": "0x0d4169adbd7cf3875450a07c454f4f6a194f94bd99bd76e8c6554994afad6bc3",
          "blockNumber": "0x73d25d",
          "transactionHash": "0x4d23569097efe91bc23aceb08e9c029d6e791c2e1b022a1b4d3b7c9a01950215",
          "transactionIndex": "0x92",
          "logIndex": "0xc8",
          "removed": false
        },
        {
          "address": "0x9a940ef65f8bf33332aa4faea921454828f0c80a",
          "topics": [
            "0x4afcb4a87cdbd9974efdb92ee48bc8d7cd0ae4bf217004db3d080cbaee652ca7"
          ],
          "data": "0x0000000000000000000000000000000000000000000000000000000067991fd00000000000000000000000000000000000000000000000000005f7cbbf645cd00000000000000000000000000000000000000000000000000000000000041c31",
          "blockHash": "0x0d4169adbd7cf3875450a07c454f4f6a194f94bd99bd76e8c6554994afad6bc3",
          "blockNumber": "0x73d25d",
          "transactionHash": "0x4d23569097efe91bc23aceb08e9c029d6e791c2e1b022a1b4d3b7c9a01950215",
          "transactionIndex": "0x92",
          "logIndex": "0xc9",
          "removed": false
        }
      ],
      "logsBloom": "0x80000000000000000000000000000100400000000000000000000000000000000008000000000000000000000000000000002000000000004000000000000000000000000000000000000000000000000000000000000000000000000000000000000000000000000000800000000000020000000000000000000000000000000000000000000000000000000000000000000000000000000000000000000000000000000000000000000400000000004000000000000000000000001000000000000000000000000000000000000000000000000000000000000000000000000000000000000000000000200000000000000000000000000000000000000000",
      "type": "0x2",
      "transactionHash": "0x4d23569097efe91bc23aceb08e9c029d6e791c2e1b022a1b4d3b7c9a01950215",
      "transactionIndex": "0x92",
      "blockHash": "0x0d4169adbd7cf3875450a07c454f4f6a194f94bd99bd76e8c6554994afad6bc3",
      "blockNumber": "0x73d25d",
      "gasUsed": "0x15804",
      "effectiveGasPrice": "0x458afca7",
      "from": "0xf66076775ad1f36dd12c1f1b10c21d1aadf0d6de",
      "to": "0x9a940ef65f8bf33332aa4faea921454828f0c80a",
      "contractAddress": null
    }
  ],
  "libraries": [],
  "pending": [],
  "returns": {},
  "timestamp": 1738088401,
  "chain": 11155111,
  "commit": "b9c1499"
}