{
  "transactions": [
    {
      "hash": "0x6c8dfa37ce80b168edcdccfaad9f71e79654d16116609ecd4d3d067ef83fdd83",
      "transactionType": "CALL",
      "contractName": null,
      "contractAddress": "0x270e88f8683660553e8ba4eb2ad7c91a1710d769",
      "function": "buy(address)",
      "arguments": [
        "0xC77f7fed3b5Cc8249aDc428c5F44C9063B9734b4"
      ],
      "transaction": {
        "from": "0xc77f7fed3b5cc8249adc428c5f44c9063b9734b4",
        "to": "0x270e88f8683660553e8ba4eb2ad7c91a1710d769",
        "gas": "0x1b30c",
        "value": "0xde0b6b3a7640000",
        "input": "0xf088d547000000000000000000000000c77f7fed3b5cc8249adc428c5f44c9063b9734b4",
        "nonce": "0x636",
        "chainId": "0xaa36a7"
      },
      "additionalContracts": [],
      "isFixedGasLimit": false
    }
  ],
  "receipts": [
    {
      "status": "0x1",
      "cumulativeGasUsed": "0x15b9a3b",
      "logs": [
        {
          "address": "0x270e88f8683660553e8ba4eb2ad7c91a1710d769",
          "topics": [
            "0xddf252ad1be2c89b69c2b068fc378daa952ba7f163c4a11628f55a4df523b3ef",
            "0x0000000000000000000000000000000000000000000000000000000000000000",
            "0x000000000000000000000000c77f7fed3b5cc8249adc428c5f44c9063b9734b4"
          ],
          "data": "0x000000000000000000000000000000000000000000000032c6e3808d4f1e7516",
          "blockHash": "0x3e81e98a27494bea73bd881e8ff26a4b8bd403b7b62ee1e28a834e20368f8889",
          "blockNumber": "0x725308",
          "transactionHash": "0x6c8dfa37ce80b168edcdccfaad9f71e79654d16116609ecd4d3d067ef83fdd83",
          "transactionIndex": "0x55",
          "logIndex": "0xad",
          "removed": false
        },
        {
          "address": "0x270e88f8683660553e8ba4eb2ad7c91a1710d769",
          "topics": [
            "0xddf252ad1be2c89b69c2b068fc378daa952ba7f163c4a11628f55a4df523b3ef",
            "0x0000000000000000000000000000000000000000000000000000000000000000",
            "0x000000000000000000000000c77f7fed3b5cc8249adc428c5f44c9063b9734b4"
          ],
          "data": "0x000000000000000000000000000000000000000000000000276e14986971e0c0",
          "blockHash": "0x3e81e98a27494bea73bd881e8ff26a4b8bd403b7b62ee1e28a834e20368f8889",
          "blockNumber": "0x725308",
          "transactionHash": "0x6c8dfa37ce80b168edcdccfaad9f71e79654d16116609ecd4d3d067ef83fdd83",
          "transactionIndex": "0x55",
          "logIndex": "0xae",
          "removed": false
        },
        {
          "address": "0x270e88f8683660553e8ba4eb2ad7c91a1710d769",
          "topics": [
            "0x4afcb4a87cdbd9974efdb92ee48bc8d7cd0ae4bf217004db3d080cbaee652ca7"
          ],
          "data": "0x000000000000000000000000000000000000000000000000000000006786d6680000000000000000000000000000000000000000000000000003c1621e5385240000000000000000000000000000000000000000000000000de0b6b3a7640000",
          "blockHash": "0x3e81e98a27494bea73bd881e8ff26a4b8bd403b7b62ee1e28a834e20368f8889",
          "blockNumber": "0x725308",
          "transactionHash": "0x6c8dfa37ce80b168edcdccfaad9f71e79654d16116609ecd4d3d067ef83fdd83",
          "transactionIndex": "0x55",
          "logIndex": "0xaf",
          "removed": false
        }
      ],
      "logsBloom": "0x00000000000000000000000000000000000000000000000000000000000000000000000000000000000000000000000020000000000000004000000000000000000000000000000000000008000000000000000000000000000000000000000000000000020000000000000000000800020000000000000000000010000000000000000000010000000000000000000000000000000000000000010000000000000000000000000000000000000000004000000000000000000000000000000000000002000000800000000000000000000000000000080000008000000020000000000000000000000000000000000000000000000000000000000000000000",
      "type": "0x2",
      "transactionHash": "0x6c8dfa37ce80b168edcdccfaad9f71e79654d16116609ecd4d3d067ef83fdd83",
      "transactionIndex": "0x55",
      "blockHash": "0x3e81e98a27494bea73bd881e8ff26a4b8bd403b7b62ee1e28a834e20368f8889",
      "blockNumber": "0x725308",
      "gasUsed": "0x13af8",
      "effectiveGasPrice": "0x26a493e45",
      "from": "0xc77f7fed3b5cc8249adc428c5f44c9063b9734b4",
      "to": "0x270e88f8683660553e8ba4eb2ad7c91a1710d769",
      "contractAddress": null
    }
  ],
  "libraries": [],
  "pending": [],
  "returns": {},
  "timestamp": 1736889962,
  "chain": 11155111,
  "commit": "51a374b"
}