{
  "transactions": [
    {
      "hash": "0x9ac4d09d6cd4ff99b4fae2fecbf9755994438a5263e86f403f08732275f57770",
      "transactionType": "CALL",
      "contractName": null,
      "contractAddress": "0x8aafd3ede9adb0ff97c7aebce82a919afb1c8764",
      "function": "sell(uint256)",
      "arguments": [
        "651386"
      ],
      "transaction": {
        "from": "0xc77f7fed3b5cc8249adc428c5f44c9063b9734b4",
        "to": "0x8aafd3ede9adb0ff97c7aebce82a919afb1c8764",
        "gas": "0x16208",
        "value": "0x0",
        "input": "0xe4849b32000000000000000000000000000000000000000000000000000000000009f07a",
        "nonce": "0x1317",
        "chainId": "0xaa36a7"
      },
      "additionalContracts": [],
      "isFixedGasLimit": false
    }
  ],
  "receipts": [
    {
      "status": "0x1",
      "cumulativeGasUsed": "0xb873d6",
      "logs": [
        {
          "address": "0x8aafd3ede9adb0ff97c7aebce82a919afb1c8764",
          "topics": [
            "0xddf252ad1be2c89b69c2b068fc378daa952ba7f163c4a11628f55a4df523b3ef",
            "0x000000000000000000000000c77f7fed3b5cc8249adc428c5f44c9063b9734b4",
            "0x0000000000000000000000000000000000000000000000000000000000000000"
          ],
          "data": "0x000000000000000000000000000000000000000000000000000000000009dc1f",
          "blockHash": "0x544569fbd4f33f134d28b41f612a775e17a465c1f1404a51f32040df9f019d5c",
          "blockNumber": "0x731a24",
          "transactionHash": "0x9ac4d09d6cd4ff99b4fae2fecbf9755994438a5263e86f403f08732275f57770",
          "transactionIndex": "0x85",
          "logIndex": "0x99",
          "removed": false
        },
        {
          "address": "0x8aafd3ede9adb0ff97c7aebce82a919afb1c8764",
          "topics": [
            "0xddf252ad1be2c89b69c2b068fc378daa952ba7f163c4a11628f55a4df523b3ef",
            "0x000000000000000000000000c77f7fed3b5cc8249adc428c5f44c9063b9734b4",
            "0x000000000000000000000000c77f7fed3b5cc8249adc428c5f44c9063b9734b4"
          ],
          "data": "0x000000000000000000000000000000000000000000000000000000000000145b",
          "blockHash": "0x544569fbd4f33f134d28b41f612a775e17a465c1f1404a51f32040df9f019d5c",
          "blockNumber": "0x731a24",
          "transactionHash": "0x9ac4d09d6cd4ff99b4fae2fecbf9755994438a5263e86f403f08732275f57770",
          "transactionIndex": "0x85",
          "logIndex": "0x9a",
          "removed": false
        },
        {
          "address": "0x8aafd3ede9adb0ff97c7aebce82a919afb1c8764",
          "topics": [
            "0x4afcb4a87cdbd9974efdb92ee48bc8d7cd0ae4bf217004db3d080cbaee652ca7"
          ],
          "data": "0x0000000000000000000000000000000000000000000000000000000067903680000000000000000000000000000000000000000000000000000b75905fec08ba0000000000000000000000000000000000000000000000000000000000000835",
          "blockHash": "0x544569fbd4f33f134d28b41f612a775e17a465c1f1404a51f32040df9f019d5c",
          "blockNumber": "0x731a24",
          "transactionHash": "0x9ac4d09d6cd4ff99b4fae2fecbf9755994438a5263e86f403f08732275f57770",
          "transactionIndex": "0x85",
          "logIndex": "0x9b",
          "removed": false
        }
      ],
      "logsBloom": "0x00000000000000000000000000000000000000000600000000000000000000000000000000000000000000000000000000000000000000004000000000000000000000000000004000000008000000000000000000000000000000000000000000000000020000000000000000000800020000000000000000000010000000000000000000000000000000000000000000000000000000000000010000000000000000000000000000000000000000004000000000000000000000000000000000000002000000800000000000000000000000000000080000000000000020000000000000000000000000000000000000000000000000000000000000000000",
      "type": "0x2",
      "transactionHash": "0x9ac4d09d6cd4ff99b4fae2fecbf9755994438a5263e86f403f08732275f57770",
      "transactionIndex": "0x85",
      "blockHash": "0x544569fbd4f33f134d28b41f612a775e17a465c1f1404a51f32040df9f019d5c",
      "blockNumber": "0x731a24",
      "gasUsed": "0xf213",
      "effectiveGasPrice": "0x4822458d",
      "from": "0xc77f7fed3b5cc8249adc428c5f44c9063b9734b4",
      "to": "0x8aafd3ede9adb0ff97c7aebce82a919afb1c8764",
      "contractAddress": null
    }
  ],
  "libraries": [],
  "pending": [],
  "returns": {},
  "timestamp": 1737504385,
  "chain": 11155111,
  "commit": "1d2fb70"
}