{
  "transactions": [
    {
      "hash": "0x9fda3f62239a8c5500dfe0948cc18ebb640de0312469dc128e712ddf4c2af85f",
      "transactionType": "CALL",
      "contractName": null,
      "contractAddress": "0x270e88f8683660553e8ba4eb2ad7c91a1710d769",
      "function": "sell(uint256)",
      "arguments": [
        "947294961057149037907"
      ],
      "transaction": {
        "from": "0xc77f7fed3b5cc8249adc428c5f44c9063b9734b4",
        "to": "0x270e88f8683660553e8ba4eb2ad7c91a1710d769",
        "gas": "0x15b6b",
        "value": "0x0",
        "input": "0xe4849b320000000000000000000000000000000000000000000000335a5bc41900dd2d53",
        "nonce": "0x601",
        "chainId": "0xaa36a7"
      },
      "additionalContracts": [],
      "isFixedGasLimit": false
    }
  ],
  "receipts": [
    {
      "status": "0x1",
      "cumulativeGasUsed": "0x1a17616",
      "logs": [
        {
          "address": "0x270e88f8683660553e8ba4eb2ad7c91a1710d769",
          "topics": [
            "0xddf252ad1be2c89b69c2b068fc378daa952ba7f163c4a11628f55a4df523b3ef",
            "0x000000000000000000000000c77f7fed3b5cc8249adc428c5f44c9063b9734b4",
            "0x0000000000000000000000000000000000000000000000000000000000000000"
          ],
          "data": "0x0000000000000000000000000000000000000000000000335a5bc41900dd2d53",
          "blockHash": "0x9c980e11523744379d7b6b7d361538f1cda6c0e0bea80be339e0f180a95f58a5",
          "blockNumber": "0x7252c8",
          "transactionHash": "0x9fda3f62239a8c5500dfe0948cc18ebb640de0312469dc128e712ddf4c2af85f",
          "transactionIndex": "0x55",
          "logIndex": "0x8c",
          "removed": false
        },
        {
          "address": "0x270e88f8683660553e8ba4eb2ad7c91a1710d769",
          "topics": [
            "0x4afcb4a87cdbd9974efdb92ee48bc8d7cd0ae4bf217004db3d080cbaee652ca7"
          ],
          "data": "0x000000000000000000000000000000000000000000000000000000006786d3680000000000000000000000000000000000000000000000000003b9abe28a64aa0000000000000000000000000000000000000000000000000dc83de1713ccc77",
          "blockHash": "0x9c980e11523744379d7b6b7d361538f1cda6c0e0bea80be339e0f180a95f58a5",
          "blockNumber": "0x7252c8",
          "transactionHash": "0x9fda3f62239a8c5500dfe0948cc18ebb640de0312469dc128e712ddf4c2af85f",
          "transactionIndex": "0x55",
          "logIndex": "0x8d",
          "removed": false
        }
      ],
      "logsBloom": "0x00000000000000000000000000000000000000000000000000000000000000000000000000000000000000000000000020000000000000004000000000000000000000000000000000000008000000000000000000000000000000000000000000000000020000000000000000000800020000000000000000000010000000000000000000010000000000000000000000000000000000000000010000000000000000000000000000000000000000004000000000000000000000000000000000000002000000800000000000000000000000000000080000008000000020000000000000000000000000000000000000000000000000000000000000000000",
      "type": "0x2",
      "transactionHash": "0x9fda3f62239a8c5500dfe0948cc18ebb640de0312469dc128e712ddf4c2af85f",
      "transactionIndex": "0x55",
      "blockHash": "0x9c980e11523744379d7b6b7d361538f1cda6c0e0bea80be339e0f180a95f58a5",
      "blockNumber": "0x7252c8",
      "gasUsed": "0xfb87",
      "effectiveGasPrice": "0x2e40c84ce",
      "from": "0xc77f7fed3b5cc8249adc428c5f44c9063b9734b4",
      "to": "0x270e88f8683660553e8ba4eb2ad7c91a1710d769",
      "contractAddress": null
    }
  ],
  "libraries": [],
  "pending": [],
  "returns": {},
  "timestamp": 1736889193,
  "chain": 11155111,
  "commit": "51a374b"
}