{
  "transactions": [
    {
      "hash": "0xe935df9702241c4a6e7bfc183fe323ef4af0df5f12cea658d75299339b188eec",
      "transactionType": "CALL",
      "contractName": null,
      "contractAddress": "0x270e88f8683660553e8ba4eb2ad7c91a1710d769",
      "function": "sell(uint256)",
      "arguments": [
        "968698368237649952982"
      ],
      "transaction": {
        "from": "0xc77f7fed3b5cc8249adc428c5f44c9063b9734b4",
        "to": "0x270e88f8683660553e8ba4eb2ad7c91a1710d769",
        "gas": "0x16fec",
        "value": "0x0",
        "input": "0xe4849b320000000000000000000000000000000000000000000000348363f18739aa80d6",
        "nonce": "0x571",
        "chainId": "0xaa36a7"
      },
      "additionalContracts": [],
      "isFixedGasLimit": false
    }
  ],
  "receipts": [
    {
      "status": "0x1",
      "cumulativeGasUsed": "0x12de485",
      "logs": [
        {
          "address": "0x270e88f8683660553e8ba4eb2ad7c91a1710d769",
          "topics": [
            "0xddf252ad1be2c89b69c2b068fc378daa952ba7f163c4a11628f55a4df523b3ef",
            "0x000000000000000000000000c77f7fed3b5cc8249adc428c5f44c9063b9734b4",
            "0x0000000000000000000000000000000000000000000000000000000000000000"
          ],
          "data": "0x0000000000000000000000000000000000000000000000348363f18739aa80d6",
          "blockHash": "0xc6c066ac886d1f4cbfc218bdc1f1bb73ca8f46b90c38f02cf943b4d2ec97a01f",
          "blockNumber": "0x72521b",
          "transactionHash": "0xe935df9702241c4a6e7bfc183fe323ef4af0df5f12cea658d75299339b188eec",
          "transactionIndex": "0x65",
          "logIndex": "0x98",
          "removed": false
        },
        {
          "address": "0x270e88f8683660553e8ba4eb2ad7c91a1710d769",
          "topics": [
            "0x4afcb4a87cdbd9974efdb92ee48bc8d7cd0ae4bf217004db3d080cbaee652ca7"
          ],
          "data": "0x000000000000000000000000000000000000000000000000000000006786cb340000000000000000000000000000000000000000000000000003a49b41721d6a0000000000000000000000000000000000000000000000000dc8401476a04cd4",
          "blockHash": "0xc6c066ac886d1f4cbfc218bdc1f1bb73ca8f46b90c38f02cf943b4d2ec97a01f",
          "blockNumber": "0x72521b",
          "transactionHash": "0xe935df9702241c4a6e7bfc183fe323ef4af0df5f12cea658d75299339b188eec",
          "transactionIndex": "0x65",
          "logIndex": "0x99",
          "removed": false
        }
      ],
      "logsBloom": "0x00000000000000000000000000000000000000000000000000000000000000000000000000000000000000000000000020000000000000004000000000000000000000000000000000000008000000000000000000000000000000000000000000000000020000000000000000000800020000000000000000000010000000000000000000010000000000000000000000000000000000000000010000000000000000000000000000000000000000004000000000000000000000000000000000000002000000800000000000000000000000000000080000008000000020000000000000000000000000000000000000000000000000000000000000000000",
      "type": "0x2",
      "transactionHash": "0xe935df9702241c4a6e7bfc183fe323ef4af0df5f12cea658d75299339b188eec",
      "transactionIndex": "0x65",
      "blockHash": "0xc6c066ac886d1f4cbfc218bdc1f1bb73ca8f46b90c38f02cf943b4d2ec97a01f",
      "blockNumber": "0x72521b",
      "gasUsed": "0xfb93",
      "effectiveGasPrice": "0x493331a6f",
      "from": "0xc77f7fed3b5cc8249adc428c5f44c9063b9734b4",
      "to": "0x270e88f8683660553e8ba4eb2ad7c91a1710d769",
      "contractAddress": null
    }
  ],
  "libraries": [],
  "pending": [],
  "returns": {},
  "timestamp": 1736887093,
  "chain": 11155111,
  "commit": "51a374b"
}