{
  "transactions": [
    {
      "hash": "0x28b305e3b4cfbf7ce7abf28d44e6fc793610b9586345c2c9f23b575cf11b8908",
      "transactionType": "CALL",
      "contractName": null,
      "contractAddress": "0xbf4a322f1496e5c3d34a9bcdb4c60567b38c7de2",
      "function": "buy(address)",
      "arguments": [
        "0xC77f7fed3b5Cc8249aDc428c5F44C9063B9734b4"
      ],
      "transaction": {
        "from": "0xc77f7fed3b5cc8249adc428c5f44c9063b9734b4",
        "to": "0xbf4a322f1496e5c3d34a9bcdb4c60567b38c7de2",
        "gas": "0x1b309",
        "value": "0xde0b6b3a7640000",
        "input": "0xf088d547000000000000000000000000c77f7fed3b5cc8249adc428c5f44c9063b9734b4",
        "nonce": "0xb3a",
        "chainId": "0xaa36a7"
      },
      "additionalContracts": [],
      "isFixedGasLimit": false
    }
  ],
  "receipts": [
    {
      "status": "0x1",
      "cumulativeGasUsed": "0xff955b",
      "logs": [
        {
          "address": "0xbf4a322f1496e5c3d34a9bcdb4c60567b38c7de2",
          "topics": [
            "0xddf252ad1be2c89b69c2b068fc378daa952ba7f163c4a11628f55a4df523b3ef",
            "0x0000000000000000000000000000000000000000000000000000000000000000",
            "0x000000000000000000000000c77f7fed3b5cc8249adc428c5f44c9063b9734b4"
          ],
          "data": "0x00000000000000000000000000000000000000000000003520459f73affa45ab",
          "blockHash": "0xa848d1410e84d3bb60228c230fb0aee6b0c8869f8147a9942307137384bbbafc",
          "blockNumber": "0x725b3c",
          "transactionHash": "0x28b305e3b4cfbf7ce7abf28d44e6fc793610b9586345c2c9f23b575cf11b8908",
          "transactionIndex": "0x76",
          "logIndex": "0xb3",
          "removed": false
        },
        {
          "address": "0xbf4a322f1496e5c3d34a9bcdb4c60567b38c7de2",
          "topics": [
            "0xddf252ad1be2c89b69c2b068fc378daa952ba7f163c4a11628f55a4df523b3ef",
            "0x0000000000000000000000000000000000000000000000000000000000000000",
            "0x000000000000000000000000c77f7fed3b5cc8249adc428c5f44c9063b9734b4"
          ],
          "data": "0x00000000000000000000000000000000000000000000000029411338b03f78d8",
          "blockHash": "0xa848d1410e84d3bb60228c230fb0aee6b0c8869f8147a9942307137384bbbafc",
          "blockNumber": "0x725b3c",
          "transactionHash": "0x28b305e3b4cfbf7ce7abf28d44e6fc793610b9586345c2c9f23b575cf11b8908",
          "transactionIndex": "0x76",
          "logIndex": "0xb4",
          "removed": false
        },
        {
          "address": "0xbf4a322f1496e5c3d34a9bcdb4c60567b38c7de2",
          "topics": [
            "0x4afcb4a87cdbd9974efdb92ee48bc8d7cd0ae4bf217004db3d080cbaee652ca7"
          ],
          "data": "0x000000000000000000000000000000000000000000000000000000006787392c000000000000000000000000000000000000000000000000000396c81ac53e0d0000000000000000000000000000000000000000000000000de0b6b3a7640000",
          "blockHash": "0xa848d1410e84d3bb60228c230fb0aee6b0c8869f8147a9942307137384bbbafc",
          "blockNumber": "0x725b3c",
          "transactionHash": "0x28b305e3b4cfbf7ce7abf28d44e6fc793610b9586345c2c9f23b575cf11b8908",
          "transactionIndex": "0x76",
          "logIndex": "0xb5",
          "removed": false
        }
      ],
      "logsBloom": "0x00000000000000000000000000000000000000000000000000000000000000000000000000000000000000000000000000000000000000004000000000000000000000000000000000000008000000000000001000000000000000000000000000000000020000000000000000000800020000000000000000000010000000000000000000000000000000000000000000000000000008000000010000000000000000000000000000000000000000004000000000000000000000000000000000000002000000800000000000001000000000000000080000000000000020000000000000000000000000000000000000000000000000000000000000000000",
      "type": "0x2",
      "transactionHash": "0x28b305e3b4cfbf7ce7abf28d44e6fc793610b9586345c2c9f23b575cf11b8908",
      "transactionIndex": "0x76",
      "blockHash": "0xa848d1410e84d3bb60228c230fb0aee6b0c8869f8147a9942307137384bbbafc",
      "blockNumber": "0x725b3c",
      "gasUsed": "0x13af6",
      "effectiveGasPrice": "0x46473f17",
      "from": "0xc77f7fed3b5cc8249adc428c5f44c9063b9734b4",
      "to": "0xbf4a322f1496e5c3d34a9bcdb4c60567b38c7de2",
      "contractAddress": null
    }
  ],
  "libraries": [],
  "pending": [],
  "returns": {},
  "timestamp": 1736915246,
  "chain": 11155111,
  "commit": "51a374b"
}