{
  "transactions": [
    {
      "hash": "0xae5f67013d9e1ae9f8cdb3e57db0815f04c6f19727cc7aeaebebef27bda6830b",
      "transactionType": "CALL",
      "contractName": null,
      "contractAddress": "0xbf4a322f1496e5c3d34a9bcdb4c60567b38c7de2",
      "function": "sell(uint256)",
      "arguments": [
        "985874831447050656329"
      ],
      "transaction": {
        "from": "0xc77f7fed3b5cc8249adc428c5f44c9063b9734b4",
        "to": "0xbf4a322f1496e5c3d34a9bcdb4c60567b38c7de2",
        "gas": "0x16fea",
        "value": "0x0",
        "input": "0xe4849b3200000000000000000000000000000000000000000000003571c2ffcff78f9a49",
        "nonce": "0xa65",
        "chainId": "0xaa36a7"
      },
      "additionalContracts": [],
      "isFixedGasLimit": false
    }
  ],
  "receipts": [
    {
      "status": "0x1",
      "cumulativeGasUsed": "0x85e7cf",
      "logs": [
        {
          "address": "0xbf4a322f1496e5c3d34a9bcdb4c60567b38c7de2",
          "topics": [
            "0xddf252ad1be2c89b69c2b068fc378daa952ba7f163c4a11628f55a4df523b3ef",
            "0x000000000000000000000000c77f7fed3b5cc8249adc428c5f44c9063b9734b4",
            "0x0000000000000000000000000000000000000000000000000000000000000000"
          ],
          "data": "0x00000000000000000000000000000000000000000000003571c2ffcff78f9a49",
          "blockHash": "0x27f817ccff02260914c0d3504c4891ac00d7a7c4cbd4c77884c974e90ac5c9b3",
          "blockNumber": "0x725a42",
          "transactionHash": "0xae5f67013d9e1ae9f8cdb3e57db0815f04c6f19727cc7aeaebebef27bda6830b",
          "transactionIndex": "0x4f",
          "logIndex": "0x89",
          "removed": false
        },
        {
          "address": "0xbf4a322f1496e5c3d34a9bcdb4c60567b38c7de2",
          "topics": [
            "0x4afcb4a87cdbd9974efdb92ee48bc8d7cd0ae4bf217004db3d080cbaee652ca7"
          ],
          "data": "0x0000000000000000000000000000000000000000000000000000000067872d68000000000000000000000000000000000000000000000000000394188b2f4b050000000000000000000000000000000000000000000000000dc7e3efb9b22d8c",
          "blockHash": "0x27f817ccff02260914c0d3504c4891ac00d7a7c4cbd4c77884c974e90ac5c9b3",
          "blockNumber": "0x725a42",
          "transactionHash": "0xae5f67013d9e1ae9f8cdb3e57db0815f04c6f19727cc7aeaebebef27bda6830b",
          "transactionIndex": "0x4f",
          "logIndex": "0x8a",
          "removed": false
        }
      ],
      "logsBloom": "0x00000000000000000000000000000000000000000000000000000000000000000000000000000000000000000000000000000000000000004000000000000000000000000000000000000008000000000000001000000000000000000000000000000000020000000000000000000800020000000000000000000010000000000000000000000000000000000000000000000000000008000000010000000000000000000000000000000000000000004000000000000000000000000000000000000002000000800000000000001000000000000000080000000000000020000000000000000000000000000000000000000000000000000000000000000000",
      "type": "0x2",
      "transactionHash": "0xae5f67013d9e1ae9f8cdb3e57db0815f04c6f19727cc7aeaebebef27bda6830b",
      "transactionIndex": "0x4f",
      "blockHash": "0x27f817ccff02260914c0d3504c4891ac00d7a7c4cbd4c77884c974e90ac5c9b3",
      "blockNumber": "0x725a42",
      "gasUsed": "0xfb91",
      "effectiveGasPrice": "0x4319f3748",
      "from": "0xc77f7fed3b5cc8249adc428c5f44c9063b9734b4",
      "to": "0xbf4a322f1496e5c3d34a9bcdb4c60567b38c7de2",
      "contractAddress": null
    }
  ],
  "libraries": [],
  "pending": [],
  "returns": {},
  "timestamp": 1736912234,
  "chain": 11155111,
  "commit": "51a374b"
}