{
  "transactions": [
    {
      "hash": "0xe7f8ad320f4e9e0298903797275947112ef6d8de6ac74508936cb2b5e4786c9c",
      "transactionType": "CALL",
      "contractName": null,
      "contractAddress": "0x8aafd3ede9adb0ff97c7aebce82a919afb1c8764",
      "function": "sell(uint256)",
      "arguments": [
        "12588"
      ],
      "transaction": {
        "from": "0xc77f7fed3b5cc8249adc428c5f44c9063b9734b4",
        "to": "0x8aafd3ede9adb0ff97c7aebce82a919afb1c8764",
        "gas": "0x14e4c",
        "value": "0x0",
        "input": "0xe4849b32000000000000000000000000000000000000000000000000000000000000312c",
        "nonce": "0xe54",
        "chainId": "0xaa36a7"
      },
      "additionalContracts": [],
      "isFixedGasLimit": false
    }
  ],
  "receipts": [
    {
      "status": "0x1",
      "cumulativeGasUsed": "0xace7e7",
      "logs": [
        {
          "address": "0x8aafd3ede9adb0ff97c7aebce82a919afb1c8764",
          "topics": [
            "0xddf252ad1be2c89b69c2b068fc378daa952ba7f163c4a11628f55a4df523b3ef",
            "0x000000000000000000000000c77f7fed3b5cc8249adc428c5f44c9063b9734b4",
            "0x0000000000000000000000000000000000000000000000000000000000000000"
          ],
          "data": "0x00000000000000000000000000000000000000000000000000000000000030c8",
          "blockHash": "0x8915ff1012cd740bfff099b6bd6c6ccb86f0bf24e2613bc654903a81e79c70a1",
          "blockNumber": "0x7313a6",
          "transactionHash": "0xe7f8ad320f4e9e0298903797275947112ef6d8de6ac74508936cb2b5e4786c9c",
          "transactionIndex": "0x77",
          "logIndex": "0x8b",
          "removed": false
        },
        {
          "address": "0x8aafd3ede9adb0ff97c7aebce82a919afb1c8764",
          "topics": [
            "0xddf252ad1be2c89b69c2b068fc378daa952ba7f163c4a11628f55a4df523b3ef",
            "0x000000000000000000000000c77f7fed3b5cc8249adc428c5f44c9063b9734b4",
            "0x000000000000000000000000c77f7fed3b5cc8249adc428c5f44c9063b9734b4"
          ],
          "data": "0x0000000000000000000000000000000000000000000000000000000000000064",
          "blockHash": "0x8915ff1012cd740bfff099b6bd6c6ccb86f0bf24e2613bc654903a81e79c70a1",
          "blockNumber": "0x7313a6",
          "transactionHash": "0xe7f8ad320f4e9e0298903797275947112ef6d8de6ac74508936cb2b5e4786c9c",
          "transactionIndex": "0x77",
          "logIndex": "0x8c",
          "removed": false
        },
        {
          "address": "0x8aafd3ede9adb0ff97c7aebce82a919afb1c8764",
          "topics": [
            "0x4afcb4a87cdbd9974efdb92ee48bc8d7cd0ae4bf217004db3d080cbaee652ca7"
          ],
          "data": "0x00000000000000000000000000000000000000000000000000000000678fe85c0000000000000000000000000000000000000000000000000004b40ac35bc48e0000000000000000000000000000000000000000000000000000000000000010",
          "blockHash": "0x8915ff1012cd740bfff099b6bd6c6ccb86f0bf24e2613bc654903a81e79c70a1",
          "blockNumber": "0x7313a6",
          "transactionHash": "0xe7f8ad320f4e9e0298903797275947112ef6d8de6ac74508936cb2b5e4786c9c",
          "transactionIndex": "0x77",
          "logIndex": "0x8d",
          "removed": false
        }
      ],
      "logsBloom": "0x00000000000000000000000000000000000000000600000000000000000000000000000000000000000000000000000000000000000000004000000000000000000000000000004000000008000000000000000000000000000000000000000000000000020000000000000000000800020000000000000000000010000000000000000000000000000000000000000000000000000000000000010000000000000000000000000000000000000000004000000000000000000000000000000000000002000000800000000000000000000000000000080000000000000020000000000000000000000000000000000000000000000000000000000000000000",
      "type": "0x2",
      "transactionHash": "0xe7f8ad320f4e9e0298903797275947112ef6d8de6ac74508936cb2b5e4786c9c",
      "transactionIndex": "0x77",
      "blockHash": "0x8915ff1012cd740bfff099b6bd6c6ccb86f0bf24e2613bc654903a81e79c70a1",
      "blockNumber": "0x7313a6",
      "gasUsed": "0xf207",
      "effectiveGasPrice": "0x80b25a20",
      "from": "0xc77f7fed3b5cc8249adc428c5f44c9063b9734b4",
      "to": "0x8aafd3ede9adb0ff97c7aebce82a919afb1c8764",
      "contractAddress": null
    }
  ],
  "libraries": [],
  "pending": [],
  "returns": {},
  "timestamp": 1737484382,
  "chain": 11155111,
  "commit": "51a374b"
}