{
  "transactions": [
    {
      "hash": "0xf7a896aab56cd86e156fa48a89bafc15c43a19d3db6adbc53f7317f998352d3a",
      "transactionType": "CALL",
      "contractName": null,
      "contractAddress": "0x8aafd3ede9adb0ff97c7aebce82a919afb1c8764",
      "function": "sell(uint256)",
      "arguments": [
        "37856083"
      ],
      "transaction": {
        "from": "0xc77f7fed3b5cc8249adc428c5f44c9063b9734b4",
        "to": "0x8aafd3ede9adb0ff97c7aebce82a919afb1c8764",
        "gas": "0x15d88",
        "value": "0x0",
        "input": "0xe4849b32000000000000000000000000000000000000000000000000000000000241a353",
        "nonce": "0x1784",
        "chainId": "0xaa36a7"
      },
      "additionalContracts": [],
      "isFixedGasLimit": false
    }
  ],
  "receipts": [
    {
      "status": "0x1",
      "cumulativeGasUsed": "0xeecab3",
      "logs": [
        {
          "address": "0x8aafd3ede9adb0ff97c7aebce82a919afb1c8764",
          "topics": [
            "0xddf252ad1be2c89b69c2b068fc378daa952ba7f163c4a11628f55a4df523b3ef",
            "0x000000000000000000000000c77f7fed3b5cc8249adc428c5f44c9063b9734b4",
            "0x0000000000000000000000000000000000000000000000000000000000000000"
          ],
          "data": "0x00000000000000000000000000000000000000000000000000000000023d0453",
          "blockHash": "0x81e6d85649a2da48f27cc9cad4017dc81877cb3e3e1ab56d591ac25c62a4b822",
          "blockNumber": "0x731f5f",
          "transactionHash": "0xf7a896aab56cd86e156fa48a89bafc15c43a19d3db6adbc53f7317f998352d3a",
          "transactionIndex": "0x80",
          "logIndex": "0xe4",
          "removed": false
        },
        {
          "address": "0x8aafd3ede9adb0ff97c7aebce82a919afb1c8764",
          "topics": [
            "0xddf252ad1be2c89b69c2b068fc378daa952ba7f163c4a11628f55a4df523b3ef",
            "0x000000000000000000000000c77f7fed3b5cc8249adc428c5f44c9063b9734b4",
            "0x000000000000000000000000c77f7fed3b5cc8249adc428c5f44c9063b9734b4"
          ],
          "data": "0x0000000000000000000000000000000000000000000000000000000000049f00",
          "blockHash": "0x81e6d85649a2da48f27cc9cad4017dc81877cb3e3e1ab56d591ac25c62a4b822",
          "blockNumber": "0x731f5f",
          "transactionHash": "0xf7a896aab56cd86e156fa48a89bafc15c43a19d3db6adbc53f7317f998352d3a",
          "transactionIndex": "0x80",
          "logIndex": "0xe5",
          "removed": false
        },
        {
          "address": "0x8aafd3ede9adb0ff97c7aebce82a919afb1c8764",
          "topics": [
            "0x4afcb4a87cdbd9974efdb92ee48bc8d7cd0ae4bf217004db3d080cbaee652ca7"
          ],
          "data": "0x000000000000000000000000000000000000000000000000000000006790755c000000000000000000000000000000000000000000000000001888f5227da31f000000000000000000000000000000000000000000000000000000000003fd39",
          "blockHash": "0x81e6d85649a2da48f27cc9cad4017dc81877cb3e3e1ab56d591ac25c62a4b822",
          "blockNumber": "0x731f5f",
          "transactionHash": "0xf7a896aab56cd86e156fa48a89bafc15c43a19d3db6adbc53f7317f998352d3a",
          "transactionIndex": "0x80",
          "logIndex": "0xe6",
          "removed": false
        }
      ],
      "logsBloom": "0x00000000000000000000000000000000000000000600000000000000000000000000000000000000000000000000000000000000000000004000000000000000000000000000004000000008000000000000000000000000000000000000000000000000020000000000000000000800020000000000000000000010000000000000000000000000000000000000000000000000000000000000010000000000000000000000000000000000000000004000000000000000000000000000000000000002000000800000000000000000000000000000080000000000000020000000000000000000000000000000000000000000000000000000000000000000",
      "type": "0x2",
      "transactionHash": "0xf7a896aab56cd86e156fa48a89bafc15c43a19d3db6adbc53f7317f998352d3a",
      "transactionIndex": "0x80",
      "blockHash": "0x81e6d85649a2da48f27cc9cad4017dc81877cb3e3e1ab56d591ac25c62a4b822",
      "blockNumber": "0x731f5f",
      "gasUsed": "0xfd0f",
      "effectiveGasPrice": "0x3f355643",
      "from": "0xc77f7fed3b5cc8249adc428c5f44c9063b9734b4",
      "to": "0x8aafd3ede9adb0ff97c7aebce82a919afb1c8764",
      "contractAddress": null
    }
  ],
  "libraries": [],
  "pending": [],
  "returns": {},
  "timestamp": 1737520477,
  "chain": 11155111,
  "commit": "1d2fb70"
}