{
  "transactions": [
    {
      "hash": "0xf7b3fbe7ca46cabea1690837641743f2c1fcf4b9a464c3ace02a986a545e5352",
      "transactionType": "CALL",
      "contractName": null,
      "contractAddress": "0xbf4a322f1496e5c3d34a9bcdb4c60567b38c7de2",
      "function": "buy(address)",
      "arguments": [
        "0xC77f7fed3b5Cc8249aDc428c5F44C9063B9734b4"
      ],
      "transaction": {
        "from": "0xc77f7fed3b5cc8249adc428c5f44c9063b9734b4",
        "to": "0xbf4a322f1496e5c3d34a9bcdb4c60567b38c7de2",
        "gas": "0x1b309",
        "value": "0xde0b6b3a7640000",
        "input": "0xf088d547000000000000000000000000c77f7fed3b5cc8249adc428c5f44c9063b9734b4",
        "nonce": "0xd22",
        "chainId": "0xaa36a7"
      },
      "additionalContracts": [],
      "isFixedGasLimit": false
    }
  ],
  "receipts": [
    {
      "status": "0x1",
      "cumulativeGasUsed": "0x9245ea",
      "logs": [
        {
          "address": "0xbf4a322f1496e5c3d34a9bcdb4c60567b38c7de2",
          "topics": [
            "0xddf252ad1be2c89b69c2b068fc378daa952ba7f163c4a11628f55a4df523b3ef",
            "0x0000000000000000000000000000000000000000000000000000000000000000",
            "0x000000000000000000000000c77f7fed3b5cc8249adc428c5f44c9063b9734b4"
          ],
          "data": "0x000000000000000000000000000000000000000000000034c5ac775f868e0065",
          "blockHash": "0xdc8bfec3f04c8c691f24f81c83be44a1d00b16e7e6d6e2dc78a1d6c3d23d4427",
          "blockNumber": "0x725d82",
          "transactionHash": "0xf7b3fbe7ca46cabea1690837641743f2c1fcf4b9a464c3ace02a986a545e5352",
          "transactionIndex": "0x62",
          "logIndex": "0xbb",
          "removed": false
        },
        {
          "address": "0xbf4a322f1496e5c3d34a9bcdb4c60567b38c7de2",
          "topics": [
            "0xddf252ad1be2c89b69c2b068fc378daa952ba7f163c4a11628f55a4df523b3ef",
            "0x0000000000000000000000000000000000000000000000000000000000000000",
            "0x000000000000000000000000c77f7fed3b5cc8249adc428c5f44c9063b9734b4"
          ],
          "data": "0x00000000000000000000000000000000000000000000000028fab8f1bad0ae81",
          "blockHash": "0xdc8bfec3f04c8c691f24f81c83be44a1d00b16e7e6d6e2dc78a1d6c3d23d4427",
          "blockNumber": "0x725d82",
          "transactionHash": "0xf7b3fbe7ca46cabea1690837641743f2c1fcf4b9a464c3ace02a986a545e5352",
          "transactionIndex": "0x62",
          "logIndex": "0xbc",
          "removed": false
        },
        {
          "address": "0xbf4a322f1496e5c3d34a9bcdb4c60567b38c7de2",
          "topics": [
            "0x4afcb4a87cdbd9974efdb92ee48bc8d7cd0ae4bf217004db3d080cbaee652ca7"
          ],
          "data": "0x000000000000000000000000000000000000000000000000000000006787548c00000000000000000000000000000000000000000000000000039cf16fadb75d0000000000000000000000000000000000000000000000000de0b6b3a7640000",
          "blockHash": "0xdc8bfec3f04c8c691f24f81c83be44a1d00b16e7e6d6e2dc78a1d6c3d23d4427",
          "blockNumber": "0x725d82",
          "transactionHash": "0xf7b3fbe7ca46cabea1690837641743f2c1fcf4b9a464c3ace02a986a545e5352",
          "transactionIndex": "0x62",
          "logIndex": "0xbd",
          "removed": false
        }
      ],
      "logsBloom": "0x00000000000000000000000000000000000000000000000000000000000000000000000000000000000000000000000000000000000000004000000000000000000000000000000000000008000000000000001000000000000000000000000000000000020000000000000000000800020000000000000000000010000000000000000000000000000000000000000000000000000008000000010000000000000000000000000000000000000000004000000000000000000000000000000000000002000000800000000000001000000000000000080000000000000020000000000000000000000000000000000000000000000000000000000000000000",
      "type": "0x2",
      "transactionHash": "0xf7b3fbe7ca46cabea1690837641743f2c1fcf4b9a464c3ace02a986a545e5352",
      "transactionIndex": "0x62",
      "blockHash": "0xdc8bfec3f04c8c691f24f81c83be44a1d00b16e7e6d6e2dc78a1d6c3d23d4427",
      "blockNumber": "0x725d82",
      "gasUsed": "0x13af6",
      "effectiveGasPrice": "0x265c3044f",
      "from": "0xc77f7fed3b5cc8249adc428c5f44c9063b9734b4",
      "to": "0xbf4a322f1496e5c3d34a9bcdb4c60567b38c7de2",
      "contractAddress": null
    }
  ],
  "libraries": [],
  "pending": [],
  "returns": {},
  "timestamp": 1736922254,
  "chain": 11155111,
  "commit": "51a374b"
}