{
  "transactions": [
    {
      "hash": "0xe9e96ff8fbbd530373a9b4e4674e233fe332e3fe53a917bfc342e460281ed1a8",
      "transactionType": "CALL",
      "contractName": null,
      "contractAddress": "0x8aafd3ede9adb0ff97c7aebce82a919afb1c8764",
      "function": "sell(uint256)",
      "arguments": [
        "2760401177964"
      ],
      "transaction": {
        "from": "0xc77f7fed3b5cc8249adc428c5f44c9063b9734b4",
        "to": "0x8aafd3ede9adb0ff97c7aebce82a919afb1c8764",
        "gas": "0x15daa",
        "value": "0x0",
        "input": "0xe4849b3200000000000000000000000000000000000000000000000000000282b4bb4d6c",
        "nonce": "0x1257",
        "chainId": "0xaa36a7"
      },
      "additionalContracts": [],
      "isFixedGasLimit": false
    }
  ],
  "receipts": [
    {
      "status": "0x1",
      "cumulativeGasUsed": "0xa09b5a",
      "logs": [
        {
          "address": "0x8aafd3ede9adb0ff97c7aebce82a919afb1c8764",
          "topics": [
            "0xddf252ad1be2c89b69c2b068fc378daa952ba7f163c4a11628f55a4df523b3ef",
            "0x000000000000000000000000c77f7fed3b5cc8249adc428c5f44c9063b9734b4",
            "0x0000000000000000000000000000000000000000000000000000000000000000"
          ],
          "data": "0x0000000000000000000000000000000000000000000000000000027d9078449d",
          "blockHash": "0xec372b58bdcede0b5eb2de96b88d289ed3ee29c60af8d21c9049fea9ccc1db12",
          "blockNumber": "0x73193b",
          "transactionHash": "0xe9e96ff8fbbd530373a9b4e4674e233fe332e3fe53a917bfc342e460281ed1a8",
          "transactionIndex": "0x7c",
          "logIndex": "0x97",
          "removed": false
        },
        {
          "address": "0x8aafd3ede9adb0ff97c7aebce82a919afb1c8764",
          "topics": [
            "0xddf252ad1be2c89b69c2b068fc378daa952ba7f163c4a11628f55a4df523b3ef",
            "0x000000000000000000000000c77f7fed3b5cc8249adc428c5f44c9063b9734b4",
            "0x000000000000000000000000c77f7fed3b5cc8249adc428c5f44c9063b9734b4"
          ],
          "data": "0x00000000000000000000000000000000000000000000000000000005244308cf",
          "blockHash": "0xec372b58bdcede0b5eb2de96b88d289ed3ee29c60af8d21c9049fea9ccc1db12",
          "blockNumber": "0x73193b",
          "transactionHash": "0xe9e96ff8fbbd530373a9b4e4674e233fe332e3fe53a917bfc342e460281ed1a8",
          "transactionIndex": "0x7c",
          "logIndex": "0x98",
          "removed": false
        },
        {
          "address": "0x8aafd3ede9adb0ff97c7aebce82a919afb1c8764",
          "topics": [
            "0x4afcb4a87cdbd9974efdb92ee48bc8d7cd0ae4bf217004db3d080cbaee652ca7"
          ],
          "data": "0x0000000000000000000000000000000000000000000000000000000067902b9400000000000000000000000000000000000000000000000000053d8ea09da0d300000000000000000000000000000000000000000000000000000000f2b1fd19",
          "blockHash": "0xec372b58bdcede0b5eb2de96b88d289ed3ee29c60af8d21c9049fea9ccc1db12",
          "blockNumber": "0x73193b",
          "transactionHash": "0xe9e96ff8fbbd530373a9b4e4674e233fe332e3fe53a917bfc342e460281ed1a8",
          "transactionIndex": "0x7c",
          "logIndex": "0x99",
          "removed": false
        }
      ],
      "logsBloom": "0x00000000000000000000000000000000000000000600000000000000000000000000000000000000000000000000000000000000000000004000000000000000000000000000004000000008000000000000000000000000000000000000000000000000020000000000000000000800020000000000000000000010000000000000000000000000000000000000000000000000000000000000010000000000000000000000000000000000000000004000000000000000000000000000000000000002000000800000000000000000000000000000080000000000000020000000000000000000000000000000000000000000000000000000000000000000",
      "type": "0x2",
      "transactionHash": "0xe9e96ff8fbbd530373a9b4e4674e233fe332e3fe53a917bfc342e460281ed1a8",
      "transactionIndex": "0x7c",
      "blockHash": "0xec372b58bdcede0b5eb2de96b88d289ed3ee29c60af8d21c9049fea9ccc1db12",
      "blockNumber": "0x73193b",
      "gasUsed": "0xfd27",
      "effectiveGasPrice": "0x376e400b",
      "from": "0xc77f7fed3b5cc8249adc428c5f44c9063b9734b4",
      "to": "0x8aafd3ede9adb0ff97c7aebce82a919afb1c8764",
      "contractAddress": null
    }
  ],
  "libraries": [],
  "pending": [],
  "returns": {},
  "timestamp": 1737501588,
  "chain": 11155111,
  "commit": "1d2fb70"
}