{
  "transactions": [
    {
      "hash": "0x2fbc4603d15b44c72b75ee2274e40ad95d8ce0d0453129b0cf2f2e64c1dd1ef1",
      "transactionType": "CALL",
      "contractName": null,
      "contractAddress": "0x270e88f8683660553e8ba4eb2ad7c91a1710d769",
      "function": "sell(uint256)",
      "arguments": [
        "727361413437486055965"
      ],
      "transaction": {
        "from": "0xc77f7fed3b5cc8249adc428c5f44c9063b9734b4",
        "to": "0x270e88f8683660553e8ba4eb2ad7c91a1710d769",
        "gas": "0x16fec",
        "value": "0x0",
        "input": "0xe4849b320000000000000000000000000000000000000000000000276e2ad7cba364c21d",
        "nonce": "0x7cc",
        "chainId": "0xaa36a7"
      },
      "additionalContracts": [],
      "isFixedGasLimit": false
    }
  ],
  "receipts": [
    {
      "status": "0x1",
      "cumulativeGasUsed": "0x8b3498",
      "logs": [
        {
          "address": "0x270e88f8683660553e8ba4eb2ad7c91a1710d769",
          "topics": [
            "0xddf252ad1be2c89b69c2b068fc378daa952ba7f163c4a11628f55a4df523b3ef",
            "0x000000000000000000000000c77f7fed3b5cc8249adc428c5f44c9063b9734b4",
            "0x0000000000000000000000000000000000000000000000000000000000000000"
          ],
          "data": "0x0000000000000000000000000000000000000000000000276e2ad7cba364c21d",
          "blockHash": "0x352c9db6c6be8c86b476d30cce0441a21e14d0e2b8b4f8dbbfdb525a8698ee24",
          "blockNumber": "0x725504",
          "transactionHash": "0x2fbc4603d15b44c72b75ee2274e40ad95d8ce0d0453129b0cf2f2e64c1dd1ef1",
          "transactionIndex": "0x36",
          "logIndex": "0x40",
          "removed": false
        },
        {
          "address": "0x270e88f8683660553e8ba4eb2ad7c91a1710d769",
          "topics": [
            "0x4afcb4a87cdbd9974efdb92ee48bc8d7cd0ae4bf217004db3d080cbaee652ca7"
          ],
          "data": "0x000000000000000000000000000000000000000000000000000000006786ee380000000000000000000000000000000000000000000000000004d9f2567e65b00000000000000000000000000000000000000000000000000dc827310d99bce6",
          "blockHash": "0x352c9db6c6be8c86b476d30cce0441a21e14d0e2b8b4f8dbbfdb525a8698ee24",
          "blockNumber": "0x725504",
          "transactionHash": "0x2fbc4603d15b44c72b75ee2274e40ad95d8ce0d0453129b0cf2f2e64c1dd1ef1",
          "transactionIndex": "0x36",
          "logIndex": "0x41",
          "removed": false
        }
      ],
      "logsBloom": "0x00000000000000000000000000000000000000000000000000000000000000000000000000000000000000000000000020000000000000004000000000000000000000000000000000000008000000000000000000000000000000000000000000000000020000000000000000000800020000000000000000000010000000000000000000010000000000000000000000000000000000000000010000000000000000000000000000000000000000004000000000000000000000000000000000000002000000800000000000000000000000000000080000008000000020000000000000000000000000000000000000000000000000000000000000000000",
      "type": "0x2",
      "transactionHash": "0x2fbc4603d15b44c72b75ee2274e40ad95d8ce0d0453129b0cf2f2e64c1dd1ef1",
      "transactionIndex": "0x36",
      "blockHash": "0x352c9db6c6be8c86b476d30cce0441a21e14d0e2b8b4f8dbbfdb525a8698ee24",
      "blockNumber": "0x725504",
      "gasUsed": "0xfb93",
      "effectiveGasPrice": "0xc8ae568b",
      "from": "0xc77f7fed3b5cc8249adc428c5f44c9063b9734b4",
      "to": "0x270e88f8683660553e8ba4eb2ad7c91a1710d769",
      "contractAddress": null
    }
  ],
  "libraries": [],
  "pending": [],
  "returns": {},
  "timestamp": 1736896058,
  "chain": 11155111,
  "commit": "51a374b"
}