{
  "transactions": [
    {
      "hash": "0xde5c716bcbb86fb9cd5f0ac901bff040619285620ea496d9b6a985f12fcc230e",
      "transactionType": "CALL",
      "contractName": null,
      "contractAddress": "0x8aafd3ede9adb0ff97c7aebce82a919afb1c8764",
      "function": "sell(uint256)",
      "arguments": [
        "10177919224"
      ],
      "transaction": {
        "from": "0xc77f7fed3b5cc8249adc428c5f44c9063b9734b4",
        "to": "0x8aafd3ede9adb0ff97c7aebce82a919afb1c8764",
        "gas": "0x1722a",
        "value": "0x0",
        "input": "0xe4849b32000000000000000000000000000000000000000000000000000000025ea6b8f8",
        "nonce": "0x1315",
        "chainId": "0xaa36a7"
      },
      "additionalContracts": [],
      "isFixedGasLimit": false
    }
  ],
  "receipts": [
    {
      "status": "0x1",
      "cumulativeGasUsed": "0xcdd8d2",
      "logs": [
        {
          "address": "0x8aafd3ede9adb0ff97c7aebce82a919afb1c8764",
          "topics": [
            "0xddf252ad1be2c89b69c2b068fc378daa952ba7f163c4a11628f55a4df523b3ef",
            "0x000000000000000000000000c77f7fed3b5cc8249adc428c5f44c9063b9734b4",
            "0x0000000000000000000000000000000000000000000000000000000000000000"
          ],
          "data": "0x0000000000000000000000000000000000000000000000000000000259cc4cff",
          "blockHash": "0xf60355696b9563776546e368044fcf609e1a35169ed68f8250f9060d31ece7ef",
          "blockNumber": "0x731a22",
          "transactionHash": "0xde5c716bcbb86fb9cd5f0ac901bff040619285620ea496d9b6a985f12fcc230e",
          "transactionIndex": "0x9c",
          "logIndex": "0xd7",
          "removed": false
        },
        {
          "address": "0x8aafd3ede9adb0ff97c7aebce82a919afb1c8764",
          "topics": [
            "0xddf252ad1be2c89b69c2b068fc378daa952ba7f163c4a11628f55a4df523b3ef",
            "0x000000000000000000000000c77f7fed3b5cc8249adc428c5f44c9063b9734b4",
            "0x000000000000000000000000c77f7fed3b5cc8249adc428c5f44c9063b9734b4"
          ],
          "data": "0x0000000000000000000000000000000000000000000000000000000004da6bf9",
          "blockHash": "0xf60355696b9563776546e368044fcf609e1a35169ed68f8250f9060d31ece7ef",
          "blockNumber": "0x731a22",
          "transactionHash": "0xde5c716bcbb86fb9cd5f0ac901bff040619285620ea496d9b6a985f12fcc230e",
          "transactionIndex": "0x9c",
          "logIndex": "0xd8",
          "removed": false
        },
        {
          "address": "0x8aafd3ede9adb0ff97c7aebce82a919afb1c8764",
          "topics": [
            "0x4afcb4a87cdbd9974efdb92ee48bc8d7cd0ae4bf217004db3d080cbaee652ca7"
          ],
          "data": "0x0000000000000000000000000000000000000000000000000000000067903668000000000000000000000000000000000000000000000000000b75905fec08b40000000000000000000000000000000000000000000000000000000001f4ed51",
          "blockHash": "0xf60355696b9563776546e368044fcf609e1a35169ed68f8250f9060d31ece7ef",
          "blockNumber": "0x731a22",
          "transactionHash": "0xde5c716bcbb86fb9cd5f0ac901bff040619285620ea496d9b6a985f12fcc230e",
          "transactionIndex": "0x9c",
          "logIndex": "0xd9",
          "removed": false
        }
      ],
      "logsBloom": "0x00000000000000000000000000000000000000000600000000000000000000000000000000000000000000000000000000000000000000004000000000000000000000000000004000000008000000000000000000000000000000000000000000000000020000000000000000000800020000000000000000000010000000000000000000000000000000000000000000000000000000000000010000000000000000000000000000000000000000004000000000000000000000000000000000000002000000800000000000000000000000000000080000000000000020000000000000000000000000000000000000000000000000000000000000000000",
      "type": "0x2",
      "transactionHash": "0xde5c716bcbb86fb9cd5f0ac901bff040619285620ea496d9b6a985f12fcc230e",
      "transactionIndex": "0x9c",
      "blockHash": "0xf60355696b9563776546e368044fcf609e1a35169ed68f8250f9060d31ece7ef",
      "blockNumber": "0x731a22",
      "gasUsed": "0xfd1b",
      "effectiveGasPrice": "0x4a8111a9",
      "from": "0xc77f7fed3b5cc8249adc428c5f44c9063b9734b4",
      "to": "0x8aafd3ede9adb0ff97c7aebce82a919afb1c8764",
      "contractAddress": null
    }
  ],
  "libraries": [],
  "pending": [],
  "returns": {},
  "timestamp": 1737504361,
  "chain": 11155111,
  "commit": "1d2fb70"
}