{
  "transactions": [
    {
      "hash": "0xa35e3dce2c4cdee0df1d65643a2c39dc991838f98d75d87304fe6c59c47ed46a",
      "transactionType": "CALL",
      "contractName": null,
      "contractAddress": "0x270e88f8683660553e8ba4eb2ad7c91a1710d769",
      "function": "sell(uint256)",
      "arguments": [
        "955801315925222773512"
      ],
      "transaction": {
        "from": "0xc77f7fed3b5cc8249adc428c5f44c9063b9734b4",
        "to": "0x270e88f8683660553e8ba4eb2ad7c91a1710d769",
        "gas": "0x16fec",
        "value": "0x0",
        "input": "0xe4849b32000000000000000000000000000000000000000000000033d06868c815d05308",
        "nonce": "0x5c7",
        "chainId": "0xaa36a7"
      },
      "additionalContracts": [],
      "isFixedGasLimit": false
    }
  ],
  "receipts": [
    {
      "status": "0x1",
      "cumulativeGasUsed": "0xad57c4",
      "logs": [
        {
          "address": "0x270e88f8683660553e8ba4eb2ad7c91a1710d769",
          "topics": [
            "0xddf252ad1be2c89b69c2b068fc378daa952ba7f163c4a11628f55a4df523b3ef",
            "0x000000000000000000000000c77f7fed3b5cc8249adc428c5f44c9063b9734b4",
            "0x0000000000000000000000000000000000000000000000000000000000000000"
          ],
          "data": "0x000000000000000000000000000000000000000000000033d06868c815d05308",
          "blockHash": "0x79ac3cc504b3de744b56035925a6a8b0131c019e19889a4fa9500e4d06dc4990",
          "blockNumber": "0x725286",
          "transactionHash": "0xa35e3dce2c4cdee0df1d65643a2c39dc991838f98d75d87304fe6c59c47ed46a",
          "transactionIndex": "0x42",
          "logIndex": "0x5c",
          "removed": false
        },
        {
          "address": "0x270e88f8683660553e8ba4eb2ad7c91a1710d769",
          "topics": [
            "0x4afcb4a87cdbd9974efdb92ee48bc8d7cd0ae4bf217004db3d080cbaee652ca7"
          ],
          "data": "0x000000000000000000000000000000000000000000000000000000006786d0380000000000000000000000000000000000000000000000000003b12fc609c3720000000000000000000000000000000000000000000000000dc83ec140481d65",
          "blockHash": "0x79ac3cc504b3de744b56035925a6a8b0131c019e19889a4fa9500e4d06dc4990",
          "blockNumber": "0x725286",
          "transactionHash": "0xa35e3dce2c4cdee0df1d65643a2c39dc991838f98d75d87304fe6c59c47ed46a",
          "transactionIndex": "0x42",
          "logIndex": "0x5d",
          "removed": false
        }
      ],
      "logsBloom": "0x00000000000000000000000000000000000000000000000000000000000000000000000000000000000000000000000020000000000000004000000000000000000000000000000000000008000000000000000000000000000000000000000000000000020000000000000000000800020000000000000000000010000000000000000000010000000000000000000000000000000000000000010000000000000000000000000000000000000000004000000000000000000000000000000000000002000000800000000000000000000000000000080000008000000020000000000000000000000000000000000000000000000000000000000000000000",
      "type": "0x2",
      "transactionHash": "0xa35e3dce2c4cdee0df1d65643a2c39dc991838f98d75d87304fe6c59c47ed46a",
      "transactionIndex": "0x42",
      "blockHash": "0x79ac3cc504b3de744b56035925a6a8b0131c019e19889a4fa9500e4d06dc4990",
      "blockNumber": "0x725286",
      "gasUsed": "0xfb93",
      "effectiveGasPrice": "0x3f8e00b01",
      "from": "0xc77f7fed3b5cc8249adc428c5f44c9063b9734b4",
      "to": "0x270e88f8683660553e8ba4eb2ad7c91a1710d769",
      "contractAddress": null
    }
  ],
  "libraries": [],
  "pending": [],
  "returns": {},
  "timestamp": 1736888377,
  "chain": 11155111,
  "commit": "51a374b"
}