{
  "transactions": [
    {
      "hash": "0xfdc319bdf59d03faf0243a5511a88a135545aa753f8bd04d1506eb395be42d24",
      "transactionType": "CALL",
      "contractName": null,
      "contractAddress": "0x8aafd3ede9adb0ff97c7aebce82a919afb1c8764",
      "function": "sell(uint256)",
      "arguments": [
        "1249950718668"
      ],
      "transaction": {
        "from": "0xc77f7fed3b5cc8249adc428c5f44c9063b9734b4",
        "to": "0x8aafd3ede9adb0ff97c7aebce82a919afb1c8764",
        "gas": "0x15daa",
        "value": "0x0",
        "input": "0xe4849b320000000000000000000000000000000000000000000000000000012306de5acc",
        "nonce": "0x1326",
        "chainId": "0xaa36a7"
      },
      "additionalContracts": [],
      "isFixedGasLimit": false
    }
  ],
  "receipts": [
    {
      "status": "0x1",
      "cumulativeGasUsed": "0xd685ea",
      "logs": [
        {
          "address": "0x8aafd3ede9adb0ff97c7aebce82a919afb1c8764",
          "topics": [
            "0xddf252ad1be2c89b69c2b068fc378daa952ba7f163c4a11628f55a4df523b3ef",
            "0x000000000000000000000000c77f7fed3b5cc8249adc428c5f44c9063b9734b4",
            "0x0000000000000000000000000000000000000000000000000000000000000000"
          ],
          "data": "0x00000000000000000000000000000000000000000000000000000120b2d87ad7",
          "blockHash": "0x6ddf82f49c16c17921ab58259a07a417e8213b1feaf6e51d5ee16f492adba255",
          "blockNumber": "0x731a37",
          "transactionHash": "0xfdc319bdf59d03faf0243a5511a88a135545aa753f8bd04d1506eb395be42d24",
          "transactionIndex": "0x84",
          "logIndex": "0x8d",
          "removed": false
        },
        {
          "address": "0x8aafd3ede9adb0ff97c7aebce82a919afb1c8764",
          "topics": [
            "0xddf252ad1be2c89b69c2b068fc378daa952ba7f163c4a11628f55a4df523b3ef",
            "0x000000000000000000000000c77f7fed3b5cc8249adc428c5f44c9063b9734b4",
            "0x000000000000000000000000c77f7fed3b5cc8249adc428c5f44c9063b9734b4"
          ],
          "data": "0x000000000000000000000000000000000000000000000000000000025405dff5",
          "blockHash": "0x6ddf82f49c16c17921ab58259a07a417e8213b1feaf6e51d5ee16f492adba255",
          "blockNumber": "0x731a37",
          "transactionHash": "0xfdc319bdf59d03faf0243a5511a88a135545aa753f8bd04d1506eb395be42d24",
          "transactionIndex": "0x84",
          "logIndex": "0x8e",
          "removed": false
        },
        {
          "address": "0x8aafd3ede9adb0ff97c7aebce82a919afb1c8764",
          "topics": [
            "0x4afcb4a87cdbd9974efdb92ee48bc8d7cd0ae4bf217004db3d080cbaee652ca7"
          ],
          "data": "0x0000000000000000000000000000000000000000000000000000000067903764000000000000000000000000000000000000000000000000000ba9718e83104a00000000000000000000000000000000000000000000000000000000f48ed246",
          "blockHash": "0x6ddf82f49c16c17921ab58259a07a417e8213b1feaf6e51d5ee16f492adba255",
          "blockNumber": "0x731a37",
          "transactionHash": "0xfdc319bdf59d03faf0243a5511a88a135545aa753f8bd04d1506eb395be42d24",
          "transactionIndex": "0x84",
          "logIndex": "0x8f",
          "removed": false
        }
      ],
      "logsBloom": "0x00000000000000000000000000000000000000000600000000000000000000000000000000000000000000000000000000000000000000004000000000000000000000000000004000000008000000000000000000000000000000000000000000000000020000000000000000000800020000000000000000000010000000000000000000000000000000000000000000000000000000000000010000000000000000000000000000000000000000004000000000000000000000000000000000000002000000800000000000000000000000000000080000000000000020000000000000000000000000000000000000000000000000000000000000000000",
      "type": "0x2",
      "transactionHash": "0xfdc319bdf59d03faf0243a5511a88a135545aa753f8bd04d1506eb395be42d24",
      "transactionIndex": "0x84",
      "blockHash": "0x6ddf82f49c16c17921ab58259a07a417e8213b1feaf6e51d5ee16f492adba255",
      "blockNumber": "0x731a37",
      "gasUsed": "0xfd27",
      "effectiveGasPrice": "0x4d06fbfe",
      "from": "0xc77f7fed3b5cc8249adc428c5f44c9063b9734b4",
      "to": "0x8aafd3ede9adb0ff97c7aebce82a919afb1c8764",
      "contractAddress": null
    }
  ],
  "libraries": [],
  "pending": [],
  "returns": {},
  "timestamp": 1737504615,
  "chain": 11155111,
  "commit": "1d2fb70"
}