{
  "transactions": [
    {
      "hash": "0x225d4de84174d02a6a452f65ef6c54067e62e7afe8abd4b67f5f1a1d85cd1bdc",
      "transactionType": "CALL",
      "contractName": null,
      "contractAddress": "0x8aafd3ede9adb0ff97c7aebce82a919afb1c8764",
      "function": "sell(uint256)",
      "arguments": [
        "74581451162147"
      ],
      "transaction": {
        "from": "0xc77f7fed3b5cc8249adc428c5f44c9063b9734b4",
        "to": "0x8aafd3ede9adb0ff97c7aebce82a919afb1c8764",
        "gas": "0x15daa",
        "value": "0x0",
        "input": "0xe4849b32000000000000000000000000000000000000000000000000000043d4d8e74223",
        "nonce": "0x176f",
        "chainId": "0xaa36a7"
      },
      "additionalContracts": [],
      "isFixedGasLimit": false
    }
  ],
  "receipts": [
    {
      "status": "0x1",
      "cumulativeGasUsed": "0x21ec9e1",
      "logs": [
        {
          "address": "0x8aafd3ede9adb0ff97c7aebce82a919afb1c8764",
          "topics": [
            "0xddf252ad1be2c89b69c2b068fc378daa952ba7f163c4a11628f55a4df523b3ef",
            "0x000000000000000000000000c77f7fed3b5cc8249adc428c5f44c9063b9734b4",
            "0x0000000000000000000000000000000000000000000000000000000000000000"
          ],
          "data": "0x00000000000000000000000000000000000000000000000000004349edb23552",
          "blockHash": "0x092cdb15d18d8d71ba6f18394de4426fbd9f4dac2761082bffeea8ccdb1a6b79",
          "blockNumber": "0x731f46",
          "transactionHash": "0x225d4de84174d02a6a452f65ef6c54067e62e7afe8abd4b67f5f1a1d85cd1bdc",
          "transactionIndex": "0x57",
          "logIndex": "0x111c",
          "removed": false
        },
        {
          "address": "0x8aafd3ede9adb0ff97c7aebce82a919afb1c8764",
          "topics": [
            "0xddf252ad1be2c89b69c2b068fc378daa952ba7f163c4a11628f55a4df523b3ef",
            "0x000000000000000000000000c77f7fed3b5cc8249adc428c5f44c9063b9734b4",
            "0x000000000000000000000000c77f7fed3b5cc8249adc428c5f44c9063b9734b4"
          ],
          "data": "0x0000000000000000000000000000000000000000000000000000008aeb350cd1",
          "blockHash": "0x092cdb15d18d8d71ba6f18394de4426fbd9f4dac2761082bffeea8ccdb1a6b79",
          "blockNumber": "0x731f46",
          "transactionHash": "0x225d4de84174d02a6a452f65ef6c54067e62e7afe8abd4b67f5f1a1d85cd1bdc",
          "transactionIndex": "0x57",
          "logIndex": "0x111d",
          "removed": false
        },
        {
          "address": "0x8aafd3ede9adb0ff97c7aebce82a919afb1c8764",
          "topics": [
            "0x4afcb4a87cdbd9974efdb92ee48bc8d7cd0ae4bf217004db3d080cbaee652ca7"
          ],
          "data": "0x0000000000000000000000000000000000000000000000000000000067907430000000000000000000000000000000000000000000000000001852f6b4978b3c00000000000000000000000000000000000000000000000000000076e3f7575a",
          "blockHash": "0x092cdb15d18d8d71ba6f18394de4426fbd9f4dac2761082bffeea8ccdb1a6b79",
          "blockNumber": "0x731f46",
          "transactionHash": "0x225d4de84174d02a6a452f65ef6c54067e62e7afe8abd4b67f5f1a1d85cd1bdc",
          "transactionIndex": "0x57",
          "logIndex": "0x111e",
          "removed": false
        }
      ],
      "logsBloom": "0x00000000000000000000000000000000000000000600000000000000000000000000000000000000000000000000000000000000000000004000000000000000000000000000004000000008000000000000000000000000000000000000000000000000020000000000000000000800020000000000000000000010000000000000000000000000000000000000000000000000000000000000010000000000000000000000000000000000000000004000000000000000000000000000000000000002000000800000000000000000000000000000080000000000000020000000000000000000000000000000000000000000000000000000000000000000",
      "type": "0x2",
      "transactionHash": "0x225d4de84174d02a6a452f65ef6c54067e62e7afe8abd4b67f5f1a1d85cd1bdc",
      "transactionIndex": "0x57",
      "blockHash": "0x092cdb15d18d8d71ba6f18394de4426fbd9f4dac2761082bffeea8ccdb1a6b79",
      "blockNumber": "0x731f46",
      "gasUsed": "0xfd27",
      "effectiveGasPrice": "0x43e42f3a",
      "from": "0xc77f7fed3b5cc8249adc428c5f44c9063b9734b4",
      "to": "0x8aafd3ede9adb0ff97c7aebce82a919afb1c8764",
      "contractAddress": null
    }
  ],
  "libraries": [],
  "pending": [],
  "returns": {},
  "timestamp": 1737520178,
  "chain": 11155111,
  "commit": "1d2fb70"
}