{
  "transactions": [
    {
      "hash": "0x1a9ab3c6d67006104419a29386435748318c1e8f95dfcad1baeac716244734d4",
      "transactionType": "CALL",
      "contractName": null,
      "contractAddress": "0x8aafd3ede9adb0ff97c7aebce82a919afb1c8764",
      "function": "sell(uint256)",
      "arguments": [
        "23591989884"
      ],
      "transaction": {
        "from": "0xc77f7fed3b5cc8249adc428c5f44c9063b9734b4",
        "to": "0x8aafd3ede9adb0ff97c7aebce82a919afb1c8764",
        "gas": "0x1722a",
        "value": "0x0",
        "input": "0xe4849b32000000000000000000000000000000000000000000000000000000057e31327c",
        "nonce": "0x100a",
        "chainId": "0xaa36a7"
      },
      "additionalContracts": [],
      "isFixedGasLimit": false
    }
  ],
  "receipts": [
    {
      "status": "0x1",
      "cumulativeGasUsed": "0xb8745b",
      "logs": [
        {
          "address": "0x8aafd3ede9adb0ff97c7aebce82a919afb1c8764",
          "topics": [
            "0xddf252ad1be2c89b69c2b068fc378daa952ba7f163c4a11628f55a4df523b3ef",
            "0x000000000000000000000000c77f7fed3b5cc8249adc428c5f44c9063b9734b4",
            "0x0000000000000000000000000000000000000000000000000000000000000000"
          ],
          "data": "0x0000000000000000000000000000000000000000000000000000000572f150cd",
          "blockHash": "0xe85f040adcdcd2b1e2a564ca291dab3f73f77eadfb9da3b30752e88cf840ba23",
          "blockNumber": "0x73167f",
          "transactionHash": "0x1a9ab3c6d67006104419a29386435748318c1e8f95dfcad1baeac716244734d4",
          "transactionIndex": "0x7f",
          "logIndex": "0xba",
          "removed": false
        },
        {
          "address": "0x8aafd3ede9adb0ff97c7aebce82a919afb1c8764",
          "topics": [
            "0xddf252ad1be2c89b69c2b068fc378daa952ba7f163c4a11628f55a4df523b3ef",
            "0x000000000000000000000000c77f7fed3b5cc8249adc428c5f44c9063b9734b4",
            "0x000000000000000000000000c77f7fed3b5cc8249adc428c5f44c9063b9734b4"
          ],
          "data": "0x000000000000000000000000000000000000000000000000000000000b3fe1af",
          "blockHash": "0xe85f040adcdcd2b1e2a564ca291dab3f73f77eadfb9da3b30752e88cf840ba23",
          "blockNumber": "0x73167f",
          "transactionHash": "0x1a9ab3c6d67006104419a29386435748318c1e8f95dfcad1baeac716244734d4",
          "transactionIndex": "0x7f",
          "logIndex": "0xbb",
          "removed": false
        },
        {
          "address": "0x8aafd3ede9adb0ff97c7aebce82a919afb1c8764",
          "topics": [
            "0x4afcb4a87cdbd9974efdb92ee48bc8d7cd0ae4bf217004db3d080cbaee652ca7"
          ],
          "data": "0x0000000000000000000000000000000000000000000000000000000067900aa00000000000000000000000000000000000000000000000000004e7da261835d60000000000000000000000000000000000000000000000000000000001f11382",
          "blockHash": "0xe85f040adcdcd2b1e2a564ca291dab3f73f77eadfb9da3b30752e88cf840ba23",
          "blockNumber": "0x73167f",
          "transactionHash": "0x1a9ab3c6d67006104419a29386435748318c1e8f95dfcad1baeac716244734d4",
          "transactionIndex": "0x7f",
          "logIndex": "0xbc",
          "removed": false
        }
      ],
      "logsBloom": "0x00000000000000000000000000000000000000000600000000000000000000000000000000000000000000000000000000000000000000004000000000000000000000000000004000000008000000000000000000000000000000000000000000000000020000000000000000000800020000000000000000000010000000000000000000000000000000000000000000000000000000000000010000000000000000000000000000000000000000004000000000000000000000000000000000000002000000800000000000000000000000000000080000000000000020000000000000000000000000000000000000000000000000000000000000000000",
      "type": "0x2",
      "transactionHash": "0x1a9ab3c6d67006104419a29386435748318c1e8f95dfcad1baeac716244734d4",
      "transactionIndex": "0x7f",
      "blockHash": "0xe85f040adcdcd2b1e2a564ca291dab3f73f77eadfb9da3b30752e88cf840ba23",
      "blockNumber": "0x73167f",
      "gasUsed": "0xfd1b",
      "effectiveGasPrice": "0x3b52b6dd",
      "from": "0xc77f7fed3b5cc8249adc428c5f44c9063b9734b4",
      "to": "0x8aafd3ede9adb0ff97c7aebce82a919afb1c8764",
      "contractAddress": null
    }
  ],
  "libraries": [],
  "pending": [],
  "returns": {},
  "timestamp": 1737493153,
  "chain": 11155111,
  "commit": "1d2fb70"
}