{
  "transactions": [
    {
      "hash": "0xfeffdc0729ea4d594739eb83e13cc036d997c6d3501178f98e020a5cf54bf162",
      "transactionType": "CALL",
      "contractName": null,
      "contractAddress": "0x8aafd3ede9adb0ff97c7aebce82a919afb1c8764",
      "function": "sell(uint256)",
      "arguments": [
        "61542"
      ],
      "transaction": {
        "from": "0xc77f7fed3b5cc8249adc428c5f44c9063b9734b4",
        "to": "0x8aafd3ede9adb0ff97c7aebce82a919afb1c8764",
        "gas": "0x14e4c",
        "value": "0x0",
        "input": "0xe4849b32000000000000000000000000000000000000000000000000000000000000f066",
        "nonce": "0xe4a",
        "chainId": "0xaa36a7"
      },
      "additionalContracts": [],
      "isFixedGasLimit": false
    }
  ],
  "receipts": [
    {
      "status": "0x1",
      "cumulativeGasUsed": "0xadd05e",
      "logs": [
        {
          "address": "0x8aafd3ede9adb0ff97c7aebce82a919afb1c8764",
          "topics": [
            "0xddf252ad1be2c89b69c2b068fc378daa952ba7f163c4a11628f55a4df523b3ef",
            "0x000000000000000000000000c77f7fed3b5cc8249adc428c5f44c9063b9734b4",
            "0x0000000000000000000000000000000000000000000000000000000000000000"
          ],
          "data": "0x000000000000000000000000000000000000000000000000000000000000ee7a",
          "blockHash": "0xbdb29d7555b2a8078cf572de7517e55f87cae8187291c3c187675110c54553b6",
          "blockNumber": "0x73138a",
          "transactionHash": "0xfeffdc0729ea4d594739eb83e13cc036d997c6d3501178f98e020a5cf54bf162",
          "transactionIndex": "0x8f",
          "logIndex": "0x9e",
          "removed": false
        },
        {
          "address": "0x8aafd3ede9adb0ff97c7aebce82a919afb1c8764",
          "topics": [
            "0xddf252ad1be2c89b69c2b068fc378daa952ba7f163c4a11628f55a4df523b3ef",
            "0x000000000000000000000000c77f7fed3b5cc8249adc428c5f44c9063b9734b4",
            "0x000000000000000000000000c77f7fed3b5cc8249adc428c5f44c9063b9734b4"
          ],
          "data": "0x00000000000000000000000000000000000000000000000000000000000001ec",
          "blockHash": "0xbdb29d7555b2a8078cf572de7517e55f87cae8187291c3c187675110c54553b6",
          "blockNumber": "0x73138a",
          "transactionHash": "0xfeffdc0729ea4d594739eb83e13cc036d997c6d3501178f98e020a5cf54bf162",
          "transactionIndex": "0x8f",
          "logIndex": "0x9f",
          "removed": false
        },
        {
          "address": "0x8aafd3ede9adb0ff97c7aebce82a919afb1c8764",
          "topics": [
            "0x4afcb4a87cdbd9974efdb92ee48bc8d7cd0ae4bf217004db3d080cbaee652ca7"
          ],
          "data": "0x00000000000000000000000000000000000000000000000000000000678fe70c0000000000000000000000000000000000000000000000000004b3a05822a08c0000000000000000000000000000000000000000000000000000000000000051",
          "blockHash": "0xbdb29d7555b2a8078cf572de7517e55f87cae8187291c3c187675110c54553b6",
          "blockNumber": "0x73138a",
          "transactionHash": "0xfeffdc0729ea4d594739eb83e13cc036d997c6d3501178f98e020a5cf54bf162",
          "transactionIndex": "0x8f",
          "logIndex": "0xa0",
          "removed": false
        }
      ],
      "logsBloom": "0x00000000000000000000000000000000000000000600000000000000000000000000000000000000000000000000000000000000000000004000000000000000000000000000004000000008000000000000000000000000000000000000000000000000020000000000000000000800020000000000000000000010000000000000000000000000000000000000000000000000000000000000010000000000000000000000000000000000000000004000000000000000000000000000000000000002000000800000000000000000000000000000080000000000000020000000000000000000000000000000000000000000000000000000000000000000",
      "type": "0x2",
      "transactionHash": "0xfeffdc0729ea4d594739eb83e13cc036d997c6d3501178f98e020a5cf54bf162",
      "transactionIndex": "0x8f",
      "blockHash": "0xbdb29d7555b2a8078cf572de7517e55f87cae8187291c3c187675110c54553b6",
      "blockNumber": "0x73138a",
      "gasUsed": "0xf207",
      "effectiveGasPrice": "0x7a974615",
      "from": "0xc77f7fed3b5cc8249adc428c5f44c9063b9734b4",
      "to": "0x8aafd3ede9adb0ff97c7aebce82a919afb1c8764",
      "contractAddress": null
    }
  ],
  "libraries": [],
  "pending": [],
  "returns": {},
  "timestamp": 1737484046,
  "chain": 11155111,
  "commit": "51a374b"
}