{
  "transactions": [
    {
      "hash": "0x3bf354f5eee455a9de41176cb69351f43098fa85559f214c5ea139cf5febc74b",
      "transactionType": "CALL",
      "contractName": null,
      "contractAddress": "0xbf4a322f1496e5c3d34a9bcdb4c60567b38c7de2",
      "function": "sell(uint256)",
      "arguments": [
        "980039562060351715855"
      ],
      "transaction": {
        "from": "0xc77f7fed3b5cc8249adc428c5f44c9063b9734b4",
        "to": "0xbf4a322f1496e5c3d34a9bcdb4c60567b38c7de2",
        "gas": "0x16fea",
        "value": "0x0",
        "input": "0xe4849b3200000000000000000000000000000000000000000000003520c7f538c4a8ba0f",
        "nonce": "0xc15",
        "chainId": "0xaa36a7"
      },
      "additionalContracts": [],
      "isFixedGasLimit": false
    }
  ],
  "receipts": [
    {
      "status": "0x1",
      "cumulativeGasUsed": "0x219b346",
      "logs": [
        {
          "address": "0xbf4a322f1496e5c3d34a9bcdb4c60567b38c7de2",
          "topics": [
            "0xddf252ad1be2c89b69c2b068fc378daa952ba7f163c4a11628f55a4df523b3ef",
            "0x000000000000000000000000c77f7fed3b5cc8249adc428c5f44c9063b9734b4",
            "0x0000000000000000000000000000000000000000000000000000000000000000"
          ],
          "data": "0x00000000000000000000000000000000000000000000003520c7f538c4a8ba0f",
          "blockHash": "0x32fc0bcb44106339990d0d6b6fe9cb6654fece9bbe478fb4696685aa6363e30e",
          "blockNumber": "0x725c41",
          "transactionHash": "0x3bf354f5eee455a9de41176cb69351f43098fa85559f214c5ea139cf5febc74b",
          "transactionIndex": "0xa6",
          "logIndex": "0x147",
          "removed": false
        },
        {
          "address": "0xbf4a322f1496e5c3d34a9bcdb4c60567b38c7de2",
          "topics": [
            "0x4afcb4a87cdbd9974efdb92ee48bc8d7cd0ae4bf217004db3d080cbaee652ca7"
          ],
          "data": "0x00000000000000000000000000000000000000000000000000000000678745680000000000000000000000000000000000000000000000000003998cde269e3d0000000000000000000000000000000000000000000000000dc7e3e228868b7f",
          "blockHash": "0x32fc0bcb44106339990d0d6b6fe9cb6654fece9bbe478fb4696685aa6363e30e",
          "blockNumber": "0x725c41",
          "transactionHash": "0x3bf354f5eee455a9de41176cb69351f43098fa85559f214c5ea139cf5febc74b",
          "transactionIndex": "0xa6",
          "logIndex": "0x148",
          "removed": false
        }
      ],
      "logsBloom": "0x00000000000000000000000000000000000000000000000000000000000000000000000000000000000000000000000000000000000000004000000000000000000000000000000000000008000000000000001000000000000000000000000000000000020000000000000000000800020000000000000000000010000000000000000000000000000000000000000000000000000008000000010000000000000000000000000000000000000000004000000000000000000000000000000000000002000000800000000000001000000000000000080000000000000020000000000000000000000000000000000000000000000000000000000000000000",
      "type": "0x2",
      "transactionHash": "0x3bf354f5eee455a9de41176cb69351f43098fa85559f214c5ea139cf5febc74b",
      "transactionIndex": "0xa6",
      "blockHash": "0x32fc0bcb44106339990d0d6b6fe9cb6654fece9bbe478fb4696685aa6363e30e",
      "blockNumber": "0x725c41",
      "gasUsed": "0xfb91",
      "effectiveGasPrice": "0x114eedd4b",
      "from": "0xc77f7fed3b5cc8249adc428c5f44c9063b9734b4",
      "to": "0xbf4a322f1496e5c3d34a9bcdb4c60567b38c7de2",
      "contractAddress": null
    }
  ],
  "libraries": [],
  "pending": [],
  "returns": {},
  "timestamp": 1736918378,
  "chain": 11155111,
  "commit": "51a374b"
}