{
  "transactions": [
    {
      "hash": "0x2f0becd994c2ead33679478697b168e3a51a2c1c1326a25b387e237ca1eeda9e",
      "transactionType": "CALL",
      "contractName": null,
      "contractAddress": "0x8aafd3ede9adb0ff97c7aebce82a919afb1c8764",
      "function": "sell(uint256)",
      "arguments": [
        "7194755695"
      ],
      "transaction": {
        "from": "0xc77f7fed3b5cc8249adc428c5f44c9063b9734b4",
        "to": "0x8aafd3ede9adb0ff97c7aebce82a919afb1c8764",
        "gas": "0x1722a",
        "value": "0x0",
        "input": "0xe4849b3200000000000000000000000000000000000000000000000000000001acd7426f",
        "nonce": "0x14b3",
        "chainId": "0xaa36a7"
      },
      "additionalContracts": [],
      "isFixedGasLimit": false
    }
  ],
  "receipts": [
    {
      "status": "0x1",
      "cumulativeGasUsed": "0x69d50f",
      "logs": [
        {
          "address": "0x8aafd3ede9adb0ff97c7aebce82a919afb1c8764",
          "topics": [
            "0xddf252ad1be2c89b69c2b068fc378daa952ba7f163c4a11628f55a4df523b3ef",
            "0x000000000000000000000000c77f7fed3b5cc8249adc428c5f44c9063b9734b4",
            "0x0000000000000000000000000000000000000000000000000000000000000000"
          ],
          "data": "0x00000000000000000000000000000000000000000000000000000001a968fe52",
          "blockHash": "0x8d4558c4952fd482837ea23661a9abb200a6e20272c497fa24402bc8ad473faf",
          "blockNumber": "0x731c0b",
          "transactionHash": "0x2f0becd994c2ead33679478697b168e3a51a2c1c1326a25b387e237ca1eeda9e",
          "transactionIndex": "0x4f",
          "logIndex": "0x6a",
          "removed": false
        },
        {
          "address": "0x8aafd3ede9adb0ff97c7aebce82a919afb1c8764",
          "topics": [
            "0xddf252ad1be2c89b69c2b068fc378daa952ba7f163c4a11628f55a4df523b3ef",
            "0x000000000000000000000000c77f7fed3b5cc8249adc428c5f44c9063b9734b4",
            "0x000000000000000000000000c77f7fed3b5cc8249adc428c5f44c9063b9734b4"
          ],
          "data": "0x00000000000000000000000000000000000000000000000000000000036e441d",
          "blockHash": "0x8d4558c4952fd482837ea23661a9abb200a6e20272c497fa24402bc8ad473faf",
          "blockNumber": "0x731c0b",
          "transactionHash": "0x2f0becd994c2ead33679478697b168e3a51a2c1c1326a25b387e237ca1eeda9e",
          "transactionIndex": "0x4f",
          "logIndex": "0x6b",
          "removed": false
        },
        {
          "address": "0x8aafd3ede9adb0ff97c7aebce82a919afb1c8764",
          "topics": [
            "0x4afcb4a87cdbd9974efdb92ee48bc8d7cd0ae4bf217004db3d080cbaee652ca7"
          ],
          "data": "0x0000000000000000000000000000000000000000000000000000000067904d6000000000000000000000000000000000000000000000000000102bb6324808ae0000000000000000000000000000000000000000000000000000000001f3b23a",
          "blockHash": "0x8d4558c4952fd482837ea23661a9abb200a6e20272c497fa24402bc8ad473faf",
          "blockNumber": "0x731c0b",
          "transactionHash": "0x2f0becd994c2ead33679478697b168e3a51a2c1c1326a25b387e237ca1eeda9e",
          "transactionIndex": "0x4f",
          "logIndex": "0x6c",
          "removed": false
        }
      ],
      "logsBloom": "0x00000000000000000000000000000000000000000600000000000000000000000000000000000000000000000000000000000000000000004000000000000000000000000000004000000008000000000000000000000000000000000000000000000000020000000000000000000800020000000000000000000010000000000000000000000000000000000000000000000000000000000000010000000000000000000000000000000000000000004000000000000000000000000000000000000002000000800000000000000000000000000000080000000000000020000000000000000000000000000000000000000000000000000000000000000000",
      "type": "0x2",
      "transactionHash": "0x2f0becd994c2ead33679478697b168e3a51a2c1c1326a25b387e237ca1eeda9e",
      "transactionIndex": "0x4f",
      "blockHash": "0x8d4558c4952fd482837ea23661a9abb200a6e20272c497fa24402bc8ad473faf",
      "blockNumber": "0x731c0b",
      "gasUsed": "0xfd1b",
      "effectiveGasPrice": "0x111132bc4",
      "from": "0xc77f7fed3b5cc8249adc428c5f44c9063b9734b4",
      "to": "0x8aafd3ede9adb0ff97c7aebce82a919afb1c8764",
      "contractAddress": null
    }
  ],
  "libraries": [],
  "pending": [],
  "returns": {},
  "timestamp": 1737510241,
  "chain": 11155111,
  "commit": "1d2fb70"
}