{
  "transactions": [
    {
      "hash": "0x62df4bec73b6d97a411c7bd921d7e32c8c3ca01a76ab071af88d7aa7943baad5",
      "transactionType": "CALL",
      "contractName": null,
      "contractAddress": "0x8aafd3ede9adb0ff97c7aebce82a919afb1c8764",
      "function": "buy(address)",
      "arguments": [
        "0xC77f7fed3b5Cc8249aDc428c5F44C9063B9734b4"
      ],
      "transaction": {
        "from": "0xc77f7fed3b5cc8249adc428c5f44c9063b9734b4",
        "to": "0x8aafd3ede9adb0ff97c7aebce82a919afb1c8764",
        "gas": "0x156ea",
        "value": "0xde0b6b3a7640000",
        "input": "0xf088d547000000000000000000000000c77f7fed3b5cc8249adc428c5f44c9063b9734b4",
        "nonce": "0x107c",
        "chainId": "0xaa36a7"
      },
      "additionalContracts": [],
      "isFixedGasLimit": false
    }
  ],
  "receipts": [
    {
      "status": "0x1",
      "cumulativeGasUsed": "0x146420b",
      "logs": [
        {
          "address": "0x8aafd3ede9adb0ff97c7aebce82a919afb1c8764",
          "topics": [
            "0xddf252ad1be2c89b69c2b068fc378daa952ba7f163c4a11628f55a4df523b3ef",
            "0x0000000000000000000000000000000000000000000000000000000000000000",
            "0x000000000000000000000000c77f7fed3b5cc8249adc428c5f44c9063b9734b4"
          ],
          "data": "0x00000000000000000000000000000000000000000000002660e6068a19a4c879",
          "blockHash": "0xb446de337d55d181e48abbe6c875d749b0434e138216b66ed3402a7bdaf6f818",
          "blockNumber": "0x731706",
          "transactionHash": "0x62df4bec73b6d97a411c7bd921d7e32c8c3ca01a76ab071af88d7aa7943baad5",
          "transactionIndex": "0xa3",
          "logIndex": "0x11f",
          "removed": false
        },
        {
          "address": "0x8aafd3ede9adb0ff97c7aebce82a919afb1c8764",
          "topics": [
            "0xddf252ad1be2c89b69c2b068fc378daa952ba7f163c4a11628f55a4df523b3ef",
            "0x0000000000000000000000000000000000000000000000000000000000000000",
            "0x000000000000000000000000c77f7fed3b5cc8249adc428c5f44c9063b9734b4"
          ],
          "data": "0x0000000000000000000000000000000000000000000000001dcd5e6c4f806f0f",
          "blockHash": "0xb446de337d55d181e48abbe6c875d749b0434e138216b66ed3402a7bdaf6f818",
          "blockNumber": "0x731706",
          "transactionHash": "0x62df4bec73b6d97a411c7bd921d7e32c8c3ca01a76ab071af88d7aa7943baad5",
          "transactionIndex": "0xa3",
          "logIndex": "0x120",
          "removed": false
        },
        {
          "address": "0x8aafd3ede9adb0ff97c7aebce82a919afb1c8764",
          "topics": [
            "0x4afcb4a87cdbd9974efdb92ee48bc8d7cd0ae4bf217004db3d080cbaee652ca7"
          ],
          "data": "0x00000000000000000000000000000000000000000000000000000000679011000000000000000000000000000000000000000000000000000004f83c1c17e3d80000000000000000000000000000000000000000000000000de0b6b3a7640000",
          "blockHash": "0xb446de337d55d181e48abbe6c875d749b0434e138216b66ed3402a7bdaf6f818",
          "blockNumber": "0x731706",
          "transactionHash": "0x62df4bec73b6d97a411c7bd921d7e32c8c3ca01a76ab071af88d7aa7943baad5",
          "transactionIndex": "0xa3",
          "logIndex": "0x121",
          "removed": false
        }
      ],
      "logsBloom": "0x00000000000000000000000000000000000000000600000000000000000000000000000000000000000000000000000000000000000000004000000000000000000000000000004000000008000000000000000000000000000000000000000000000000020000000000000000000800020000000000000000000010000000000000000000000000000000000000000000000000000000000000010000000000000000000000000000000000000000004000000000000000000000000000000000000002000000800000000000000000000000000000080000000000000020000000000000000000000000000000000000000000000000000000000000000000",
      "type": "0x2",
      "transactionHash": "0x62df4bec73b6d97a411c7bd921d7e32c8c3ca01a76ab071af88d7aa7943baad5",
      "transactionIndex": "0xa3",
      "blockHash": "0xb446de337d55d181e48abbe6c875d749b0434e138216b66ed3402a7bdaf6f818",
      "blockNumber": "0x731706",
      "gasUsed": "0xf844",
      "effectiveGasPrice": "0x3d75d1fa",
      "from": "0xc77f7fed3b5cc8249adc428c5f44c9063b9734b4",
      "to": "0x8aafd3ede9adb0ff97c7aebce82a919afb1c8764",
      "contractAddress": null
    }
  ],
  "libraries": [],
  "pending": [],
  "returns": {},
  "timestamp": 1737494785,
  "chain": 11155111,
  "commit": "1d2fb70"
}