{
  "transactions": [
    {
      "hash": "0x69012273ce7fbb87b457e6e92c1f40b29867b388de7f65fcfd6a25674553a4d5",
      "transactionType": "CALL",
      "contractName": null,
      "contractAddress": "0x5eb9cc76c3506942c1c0ead70e877dd5e4f00cb0",
      "function": "sell(uint256)",
      "arguments": [
        "989609540804013855928"
      ],
      "transaction": {
        "from": "0xc77f7fed3b5cc8249adc428c5f44c9063b9734b4",
        "to": "0x5eb9cc76c3506942c1c0ead70e877dd5e4f00cb0",
        "gas": "0x16fec",
        "value": "0x0",
        "input": "0xe4849b32000000000000000000000000000000000000000000000035a5975a2f68ae14b8",
        "nonce": "0x275",
        "chainId": "0xaa36a7"
      },
      "additionalContracts": [],
      "isFixedGasLimit": false
    }
  ],
  "receipts": [
    {
      "status": "0x1",
      "cumulativeGasUsed": "0x115da86",
      "logs": [
        {
          "address": "0x5eb9cc76c3506942c1c0ead70e877dd5e4f00cb0",
          "topics": [
            "0xddf252ad1be2c89b69c2b068fc378daa952ba7f163c4a11628f55a4df523b3ef",
            "0x000000000000000000000000c77f7fed3b5cc8249adc428c5f44c9063b9734b4",
            "0x0000000000000000000000000000000000000000000000000000000000000000"
          ],
          "data": "0x000000000000000000000000000000000000000000000035a5975a2f68ae14b8",
          "blockHash": "0xccc233c2e26a1c973841797164830911073332056b5a0a12324b9292171716aa",
          "blockNumber": "0x724e3d",
          "transactionHash": "0x69012273ce7fbb87b457e6e92c1f40b29867b388de7f65fcfd6a25674553a4d5",
          "transactionIndex": "0x76",
          "logIndex": "0xbf",
          "removed": false
        },
        {
          "address": "0x5eb9cc76c3506942c1c0ead70e877dd5e4f00cb0",
          "topics": [
            "0x4afcb4a87cdbd9974efdb92ee48bc8d7cd0ae4bf217004db3d080cbaee652ca7"
          ],
          "data": "0x0000000000000000000000000000000000000000000000000000000067869c900000000000000000000000000000000000000000000000000003909d1ca73d6a0000000000000000000000000000000000000000000000000dc7db118371b37a",
          "blockHash": "0xccc233c2e26a1c973841797164830911073332056b5a0a12324b9292171716aa",
          "blockNumber": "0x724e3d",
          "transactionHash": "0x69012273ce7fbb87b457e6e92c1f40b29867b388de7f65fcfd6a25674553a4d5",
          "transactionIndex": "0x76",
          "logIndex": "0xc0",
          "removed": false
        }
      ],
      "logsBloom": "0x00000000000000000000000000000000000000000000000000000000000000000000000000000000000000000000000000000000000000004000000000000000000000000000000000000008000000000000000000000000000000000000000000000000020000000000000004000800020000000000000000000010000000000000000000000000000000000000000000000000000000000000010000000000000000000000000000000000000000004000000000000000000000000000020000000002000000800000008000000000000000000000080000000000000020000000000000000000000000000000000000000000000000000000000000000000",
      "type": "0x2",
      "transactionHash": "0x69012273ce7fbb87b457e6e92c1f40b29867b388de7f65fcfd6a25674553a4d5",
      "transactionIndex": "0x76",
      "blockHash": "0xccc233c2e26a1c973841797164830911073332056b5a0a12324b9292171716aa",
      "blockNumber": "0x724e3d",
      "gasUsed": "0xfb93",
      "effectiveGasPrice": "0x35b14702b",
      "from": "0xc77f7fed3b5cc8249adc428c5f44c9063b9734b4",
      "to": "0x5eb9cc76c3506942c1c0ead70e877dd5e4f00cb0",
      "contractAddress": null
    }
  ],
  "libraries": [],
  "pending": [],
  "returns": {},
  "timestamp": 1736875155,
  "chain": 11155111,
  "commit": "51a374b"
}