{
  "transactions": [
    {
      "hash": "0x4ac5819c47dff556e77e2003da942bda21a3562d02e86dbe42eea51424e984ba",
      "transactionType": "CALL",
      "contractName": null,
      "contractAddress": "0x8aafd3ede9adb0ff97c7aebce82a919afb1c8764",
      "function": "sell(uint256)",
      "arguments": [
        "183902551736443629393"
      ],
      "transaction": {
        "from": "0xc77f7fed3b5cc8249adc428c5f44c9063b9734b4",
        "to": "0x8aafd3ede9adb0ff97c7aebce82a919afb1c8764",
        "gas": "0x17270",
        "value": "0x0",
        "input": "0xe4849b32000000000000000000000000000000000000000000000009f8291c72629e6f51",
        "nonce": "0x15bc",
        "chainId": "0xaa36a7"
      },
      "additionalContracts": [],
      "isFixedGasLimit": false
    }
  ],
  "receipts": [
    {
      "status": "0x1",
      "cumulativeGasUsed": "0x14ddc59",
      "logs": [
        {
          "address": "0x8aafd3ede9adb0ff97c7aebce82a919afb1c8764",
          "topics": [
            "0xddf252ad1be2c89b69c2b068fc378daa952ba7f163c4a11628f55a4df523b3ef",
            "0x000000000000000000000000c77f7fed3b5cc8249adc428c5f44c9063b9734b4",
            "0x0000000000000000000000000000000000000000000000000000000000000000"
          ],
          "data": "0x000000000000000000000000000000000000000000000009e3be4946764f57e6",
          "blockHash": "0xeaa9bde2130e94881d484dcc90d02d50c0d3e6bb3b6f16e2af93eaa73ad3b223",
          "blockNumber": "0x731d36",
          "transactionHash": "0x4ac5819c47dff556e77e2003da942bda21a3562d02e86dbe42eea51424e984ba",
          "transactionIndex": "0x8b",
          "logIndex": "0x100",
          "removed": false
        },
        {
          "address": "0x8aafd3ede9adb0ff97c7aebce82a919afb1c8764",
          "topics": [
            "0xddf252ad1be2c89b69c2b068fc378daa952ba7f163c4a11628f55a4df523b3ef",
            "0x000000000000000000000000c77f7fed3b5cc8249adc428c5f44c9063b9734b4",
            "0x000000000000000000000000c77f7fed3b5cc8249adc428c5f44c9063b9734b4"
          ],
          "data": "0x000000000000000000000000000000000000000000000000146ad32bec4f176b",
          "blockHash": "0xeaa9bde2130e94881d484dcc90d02d50c0d3e6bb3b6f16e2af93eaa73ad3b223",
          "blockNumber": "0x731d36",
          "transactionHash": "0x4ac5819c47dff556e77e2003da942bda21a3562d02e86dbe42eea51424e984ba",
          "transactionIndex": "0x8b",
          "logIndex": "0x101",
          "removed": false
        },
        {
          "address": "0x8aafd3ede9adb0ff97c7aebce82a919afb1c8764",
          "topics": [
            "0x4afcb4a87cdbd9974efdb92ee48bc8d7cd0ae4bf217004db3d080cbaee652ca7"
          ],
          "data": "0x0000000000000000000000000000000000000000000000000000000067905b7000000000000000000000000000000000000000000000000000134978181c79b50000000000000000000000000000000000000000000000000dcca3cdef4e9863",
          "blockHash": "0xeaa9bde2130e94881d484dcc90d02d50c0d3e6bb3b6f16e2af93eaa73ad3b223",
          "blockNumber": "0x731d36",
          "transactionHash": "0x4ac5819c47dff556e77e2003da942bda21a3562d02e86dbe42eea51424e984ba",
          "transactionIndex": "0x8b",
          "logIndex": "0x102",
          "removed": false
        }
      ],
      "logsBloom": "0x00000000000000000000000000000000000000000600000000000000000000000000000000000000000000000000000000000000000000004000000000000000000000000000004000000008000000000000000000000000000000000000000000000000020000000000000000000800020000000000000000000010000000000000000000000000000000000000000000000000000000000000010000000000000000000000000000000000000000004000000000000000000000000000000000000002000000800000000000000000000000000000080000000000000020000000000000000000000000000000000000000000000000000000000000000000",
      "type": "0x2",
      "transactionHash": "0x4ac5819c47dff556e77e2003da942bda21a3562d02e86dbe42eea51424e984ba",
      "transactionIndex": "0x8b",
      "blockHash": "0xeaa9bde2130e94881d484dcc90d02d50c0d3e6bb3b6f16e2af93eaa73ad3b223",
      "blockNumber": "0x731d36",
      "gasUsed": "0xfd4b",
      "effectiveGasPrice": "0x4dc6e338",
      "from": "0xc77f7fed3b5cc8249adc428c5f44c9063b9734b4",
      "to": "0x8aafd3ede9adb0ff97c7aebce82a919afb1c8764",
      "contractAddress": null
    }
  ],
  "libraries": [],
  "pending": [],
  "returns": {},
  "timestamp": 1737513842,
  "chain": 11155111,
  "commit": "1d2fb70"
}