{
  "transactions": [
    {
      "hash": "0xac1a00a16c620f7eab478637d7966cd1b316daca36e2d2ea8d129c75771f6114",
      "transactionType": "CALL",
      "contractName": null,
      "contractAddress": "0xbf4a322f1496e5c3d34a9bcdb4c60567b38c7de2",
      "function": "sell(uint256)",
      "arguments": [
        "987072024791885896944"
      ],
      "transaction": {
        "from": "0xc77f7fed3b5cc8249adc428c5f44c9063b9734b4",
        "to": "0xbf4a322f1496e5c3d34a9bcdb4c60567b38c7de2",
        "gas": "0x16fea",
        "value": "0x0",
        "input": "0xe4849b32000000000000000000000000000000000000000000000035826048d105ed5cf0",
        "nonce": "0xa0d",
        "chainId": "0xaa36a7"
      },
      "additionalContracts": [],
      "isFixedGasLimit": false
    }
  ],
  "receipts": [
    {
      "status": "0x1",
      "cumulativeGasUsed": "0x4c567d",
      "logs": [
        {
          "address": "0xbf4a322f1496e5c3d34a9bcdb4c60567b38c7de2",
          "topics": [
            "0xddf252ad1be2c89b69c2b068fc378daa952ba7f163c4a11628f55a4df523b3ef",
            "0x000000000000000000000000c77f7fed3b5cc8249adc428c5f44c9063b9734b4",
            "0x0000000000000000000000000000000000000000000000000000000000000000"
          ],
          "data": "0x000000000000000000000000000000000000000000000035826048d105ed5cf0",
          "blockHash": "0x755b0c36ef816b2af248d889e98250147b41c9e6d80b7f21b08a6250d2407219",
          "blockNumber": "0x7259cc",
          "transactionHash": "0xac1a00a16c620f7eab478637d7966cd1b316daca36e2d2ea8d129c75771f6114",
          "transactionIndex": "0x2f",
          "logIndex": "0x47",
          "removed": false
        },
        {
          "address": "0xbf4a322f1496e5c3d34a9bcdb4c60567b38c7de2",
          "topics": [
            "0x4afcb4a87cdbd9974efdb92ee48bc8d7cd0ae4bf217004db3d080cbaee652ca7"
          ],
          "data": "0x00000000000000000000000000000000000000000000000000000000678727d4000000000000000000000000000000000000000000000000000392fc1b998a2a0000000000000000000000000000000000000000000000000dc7e3f2824314f6",
          "blockHash": "0x755b0c36ef816b2af248d889e98250147b41c9e6d80b7f21b08a6250d2407219",
          "blockNumber": "0x7259cc",
          "transactionHash": "0xac1a00a16c620f7eab478637d7966cd1b316daca36e2d2ea8d129c75771f6114",
          "transactionIndex": "0x2f",
          "logIndex": "0x48",
          "removed": false
        }
      ],
      "logsBloom": "0x00000000000000000000000000000000000000000000000000000000000000000000000000000000000000000000000000000000000000004000000000000000000000000000000000000008000000000000001000000000000000000000000000000000020000000000000000000800020000000000000000000010000000000000000000000000000000000000000000000000000008000000010000000000000000000000000000000000000000004000000000000000000000000000000000000002000000800000000000001000000000000000080000000000000020000000000000000000000000000000000000000000000000000000000000000000",
      "type": "0x2",
      "transactionHash": "0xac1a00a16c620f7eab478637d7966cd1b316daca36e2d2ea8d129c75771f6114",
      "transactionIndex": "0x2f",
      "blockHash": "0x755b0c36ef816b2af248d889e98250147b41c9e6d80b7f21b08a6250d2407219",
      "blockNumber": "0x7259cc",
      "gasUsed": "0xfb91",
      "effectiveGasPrice": "0x35f315acb",
      "from": "0xc77f7fed3b5cc8249adc428c5f44c9063b9734b4",
      "to": "0xbf4a322f1496e5c3d34a9bcdb4c60567b38c7de2",
      "contractAddress": null
    }
  ],
  "libraries": [],
  "pending": [],
  "returns": {},
  "timestamp": 1736910805,
  "chain": 11155111,
  "commit": "51a374b"
}