{
  "transactions": [
    {
      "hash": "0xd6b649dccdf185acbe7f012f3be4a2fbefa65dfda5658fef77a57031de3ed0c8",
      "transactionType": "CALL",
      "contractName": null,
      "contractAddress": "0xd7bc75898e513accccf720a874d44dab5a4b6223",
      "function": "buy(address)",
      "arguments": [
        "0xC77f7fed3b5Cc8249aDc428c5F44C9063B9734b4"
      ],
      "transaction": {
        "from": "0xc77f7fed3b5cc8249adc428c5f44c9063b9734b4",
        "to": "0xd7bc75898e513accccf720a874d44dab5a4b6223",
        "gas": "0x1b30c",
        "value": "0x2386f26fc10000",
        "input": "0xf088d547000000000000000000000000c77f7fed3b5cc8249adc428c5f44c9063b9734b4",
        "nonce": "0xba",
        "chainId": "0xaa36a7"
      },
      "additionalContracts": [],
      "isFixedGasLimit": false
    }
  ],
  "receipts": [
    {
      "status": "0x1",
      "cumulativeGasUsed": "0x7521df",
      "logs": [
        {
          "address": "0xd7bc75898e513accccf720a874d44dab5a4b6223",
          "topics": [
            "0xddf252ad1be2c89b69c2b068fc378daa952ba7f163c4a11628f55a4df523b3ef",
            "0x0000000000000000000000000000000000000000000000000000000000000000",
            "0x000000000000000000000000c77f7fed3b5cc8249adc428c5f44c9063b9734b4"
          ],
          "data": "0x0000000000000000000000000000000000000000000000008963bb79b449bc86",
          "blockHash": "0xbba8c595b9d6f0c94392a0432e13f743113d0c4df3cea907d132f042ad1d02e5",
          "blockNumber": "0x723935",
          "transactionHash": "0xd6b649dccdf185acbe7f012f3be4a2fbefa65dfda5658fef77a57031de3ed0c8",
          "transactionIndex": "0x46",
          "logIndex": "0x5a",
          "removed": false
        },
        {
          "address": "0xd7bc75898e513accccf720a874d44dab5a4b6223",
          "topics": [
            "0xddf252ad1be2c89b69c2b068fc378daa952ba7f163c4a11628f55a4df523b3ef",
            "0x0000000000000000000000000000000000000000000000000000000000000000",
            "0x000000000000000000000000c77f7fed3b5cc8249adc428c5f44c9063b9734b4"
          ],
          "data": "0x000000000000000000000000000000000000000000000000006ab00cc33d5048",
          "blockHash": "0xbba8c595b9d6f0c94392a0432e13f743113d0c4df3cea907d132f042ad1d02e5",
          "blockNumber": "0x723935",
          "transactionHash": "0xd6b649dccdf185acbe7f012f3be4a2fbefa65dfda5658fef77a57031de3ed0c8",
          "transactionIndex": "0x46",
          "logIndex": "0x5b",
          "removed": false
        },
        {
          "address": "0xd7bc75898e513accccf720a874d44dab5a4b6223",
          "topics": [
            "0x4afcb4a87cdbd9974efdb92ee48bc8d7cd0ae4bf217004db3d080cbaee652ca7"
          ],
          "data": "0x0000000000000000000000000000000000000000000000000000000067859fc400000000000000000000000000000000000000000000000000038d7f86657d5b000000000000000000000000000000000000000000000000002386f26fc10000",
          "blockHash": "0xbba8c595b9d6f0c94392a0432e13f743113d0c4df3cea907d132f042ad1d02e5",
          "blockNumber": "0x723935",
          "transactionHash": "0xd6b649dccdf185acbe7f012f3be4a2fbefa65dfda5658fef77a57031de3ed0c8",
          "transactionIndex": "0x46",
          "logIndex": "0x5c",
          "removed": false
        }
      ],
      "logsBloom": "0x00000000000000000000000000000000000000000000000000000000000000000000000000000000000000000000000000000000000000004000000000000000000000000000000000000008000000000000000000000000000000000000000000000000020000000000000000000800020000000000000000000010000000000000000000000000000000000000000000000000000000000000010000000000000000000000000000000000000000004000001000000000000000000000000000000002000000800000000000004000000000000000080000000000000020000000000000000000000000000000000000000000080000000000000000000000",
      "type": "0x2",
      "transactionHash": "0xd6b649dccdf185acbe7f012f3be4a2fbefa65dfda5658fef77a57031de3ed0c8",
      "transactionIndex": "0x46",
      "blockHash": "0xbba8c595b9d6f0c94392a0432e13f743113d0c4df3cea907d132f042ad1d02e5",
      "blockNumber": "0x723935",
      "gasUsed": "0x13af8",
      "effectiveGasPrice": "0x1c006aeb",
      "from": "0xc77f7fed3b5cc8249adc428c5f44c9063b9734b4",
      "to": "0xd7bc75898e513accccf720a874d44dab5a4b6223",
      "contractAddress": null
    }
  ],
  "libraries": [],
  "pending": [],
  "returns": {},
  "timestamp": 1736810437,
  "chain": 11155111,
  "commit": "51a374b"
}