{
  "transactions": [
    {
      "hash": "0xab09a30ff5ab10e4392efbd6781e0a4c49257a94292311369d7eb10105fbaa72",
      "transactionType": "CALL",
      "contractName": null,
      "contractAddress": "0x8aafd3ede9adb0ff97c7aebce82a919afb1c8764",
      "function": "sell(uint256)",
      "arguments": [
        "171741300613547502140"
      ],
      "transaction": {
        "from": "0xc77f7fed3b5cc8249adc428c5f44c9063b9734b4",
        "to": "0x8aafd3ede9adb0ff97c7aebce82a919afb1c8764",
        "gas": "0x17270",
        "value": "0x0",
        "input": "0xe4849b320000000000000000000000000000000000000000000000094f63aafbce132a3c",
        "nonce": "0x1631",
        "chainId": "0xaa36a7"
      },
      "additionalContracts": [],
      "isFixedGasLimit": false
    }
  ],
  "receipts": [
    {
      "status": "0x1",
      "cumulativeGasUsed": "0x6961ea",
      "logs": [
        {
          "address": "0x8aafd3ede9adb0ff97c7aebce82a919afb1c8764",
          "topics": [
            "0xddf252ad1be2c89b69c2b068fc378daa952ba7f163c4a11628f55a4df523b3ef",
            "0x000000000000000000000000c77f7fed3b5cc8249adc428c5f44c9063b9734b4",
            "0x0000000000000000000000000000000000000000000000000000000000000000"
          ],
          "data": "0x0000000000000000000000000000000000000000000000093c527c8f4b66facb",
          "blockHash": "0xe533fe8aafb2ef1d5bf3e79ba9360887b423a1cf375e3c45f12fdd542284181e",
          "blockNumber": "0x731dc9",
          "transactionHash": "0xab09a30ff5ab10e4392efbd6781e0a4c49257a94292311369d7eb10105fbaa72",
          "transactionIndex": "0x57",
          "logIndex": "0x8c",
          "removed": false
        },
        {
          "address": "0x8aafd3ede9adb0ff97c7aebce82a919afb1c8764",
          "topics": [
            "0xddf252ad1be2c89b69c2b068fc378daa952ba7f163c4a11628f55a4df523b3ef",
            "0x000000000000000000000000c77f7fed3b5cc8249adc428c5f44c9063b9734b4",
            "0x000000000000000000000000c77f7fed3b5cc8249adc428c5f44c9063b9734b4"
          ],
          "data": "0x00000000000000000000000000000000000000000000000013112e6c82ac2f71",
          "blockHash": "0xe533fe8aafb2ef1d5bf3e79ba9360887b423a1cf375e3c45f12fdd542284181e",
          "blockNumber": "0x731dc9",
          "transactionHash": "0xab09a30ff5ab10e4392efbd6781e0a4c49257a94292311369d7eb10105fbaa72",
          "transactionIndex": "0x57",
          "logIndex": "0x8d",
          "removed": false
        },
        {
          "address": "0x8aafd3ede9adb0ff97c7aebce82a919afb1c8764",
          "topics": [
            "0x4afcb4a87cdbd9974efdb92ee48bc8d7cd0ae4bf217004db3d080cbaee652ca7"
          ],
          "data": "0x00000000000000000000000000000000000000000000000000000000679062540000000000000000000000000000000000000000000000000014a54e35ba51900000000000000000000000000000000000000000000000000dcc618dcf75d893",
          "blockHash": "0xe533fe8aafb2ef1d5bf3e79ba9360887b423a1cf375e3c45f12fdd542284181e",
          "blockNumber": "0x731dc9",
          "transactionHash": "0xab09a30ff5ab10e4392efbd6781e0a4c49257a94292311369d7eb10105fbaa72",
          "transactionIndex": "0x57",
          "logIndex": "0x8e",
          "removed": false
        }
      ],
      "logsBloom": "0x00000000000000000000000000000000000000000600000000000000000000000000000000000000000000000000000000000000000000004000000000000000000000000000004000000008000000000000000000000000000000000000000000000000020000000000000000000800020000000000000000000010000000000000000000000000000000000000000000000000000000000000010000000000000000000000000000000000000000004000000000000000000000000000000000000002000000800000000000000000000000000000080000000000000020000000000000000000000000000000000000000000000000000000000000000000",
      "type": "0x2",
      "transactionHash": "0xab09a30ff5ab10e4392efbd6781e0a4c49257a94292311369d7eb10105fbaa72",
      "transactionIndex": "0x57",
      "blockHash": "0xe533fe8aafb2ef1d5bf3e79ba9360887b423a1cf375e3c45f12fdd542284181e",
      "blockNumber": "0x731dc9",
      "gasUsed": "0xfd4b",
      "effectiveGasPrice": "0x5c65acd8",
      "from": "0xc77f7fed3b5cc8249adc428c5f44c9063b9734b4",
      "to": "0x8aafd3ede9adb0ff97c7aebce82a919afb1c8764",
      "contractAddress": null
    }
  ],
  "libraries": [],
  "pending": [],
  "returns": {},
  "timestamp": 1737515606,
  "chain": 11155111,
  "commit": "1d2fb70"
}