{
  "transactions": [
    {
      "hash": "0x2bb309635b90e093e8ced76b29d40bd043d82c65700be651a6fb797061ba2a75",
      "transactionType": "CALL",
      "contractName": null,
      "contractAddress": "0x5eb9cc76c3506942c1c0ead70e877dd5e4f00cb0",
      "function": "sell(uint256)",
      "arguments": [
        "989620600429165401332"
      ],
      "transaction": {
        "from": "0xc77f7fed3b5cc8249adc428c5f44c9063b9734b4",
        "to": "0x5eb9cc76c3506942c1c0ead70e877dd5e4f00cb0",
        "gas": "0x16fec",
        "value": "0x0",
        "input": "0xe4849b32000000000000000000000000000000000000000000000035a5bea4db0d2fd4f4",
        "nonce": "0x22b",
        "chainId": "0xaa36a7"
      },
      "additionalContracts": [],
      "isFixedGasLimit": false
    }
  ],
  "receipts": [
    {
      "status": "0x1",
      "cumulativeGasUsed": "0xe40899",
      "logs": [
        {
          "address": "0x5eb9cc76c3506942c1c0ead70e877dd5e4f00cb0",
          "topics": [
            "0xddf252ad1be2c89b69c2b068fc378daa952ba7f163c4a11628f55a4df523b3ef",
            "0x000000000000000000000000c77f7fed3b5cc8249adc428c5f44c9063b9734b4",
            "0x0000000000000000000000000000000000000000000000000000000000000000"
          ],
          "data": "0x000000000000000000000000000000000000000000000035a5bea4db0d2fd4f4",
          "blockHash": "0xfc618e06bc59d5b925f0445e4107829aac47ec3100a362a79f8f150512ddcf76",
          "blockNumber": "0x724dda",
          "transactionHash": "0x2bb309635b90e093e8ced76b29d40bd043d82c65700be651a6fb797061ba2a75",
          "transactionIndex": "0x64",
          "logIndex": "0x117",
          "removed": false
        },
        {
          "address": "0x5eb9cc76c3506942c1c0ead70e877dd5e4f00cb0",
          "topics": [
            "0x4afcb4a87cdbd9974efdb92ee48bc8d7cd0ae4bf217004db3d080cbaee652ca7"
          ],
          "data": "0x00000000000000000000000000000000000000000000000000000000678697ec0000000000000000000000000000000000000000000000000003909a80400a200000000000000000000000000000000000000000000000000dc7db118384237b",
          "blockHash": "0xfc618e06bc59d5b925f0445e4107829aac47ec3100a362a79f8f150512ddcf76",
          "blockNumber": "0x724dda",
          "transactionHash": "0x2bb309635b90e093e8ced76b29d40bd043d82c65700be651a6fb797061ba2a75",
          "transactionIndex": "0x64",
          "logIndex": "0x118",
          "removed": false
        }
      ],
      "logsBloom": "0x00000000000000000000000000000000000000000000000000000000000000000000000000000000000000000000000000000000000000004000000000000000000000000000000000000008000000000000000000000000000000000000000000000000020000000000000004000800020000000000000000000010000000000000000000000000000000000000000000000000000000000000010000000000000000000000000000000000000000004000000000000000000000000000020000000002000000800000008000000000000000000000080000000000000020000000000000000000000000000000000000000000000000000000000000000000",
      "type": "0x2",
      "transactionHash": "0x2bb309635b90e093e8ced76b29d40bd043d82c65700be651a6fb797061ba2a75",
      "transactionIndex": "0x64",
      "blockHash": "0xfc618e06bc59d5b925f0445e4107829aac47ec3100a362a79f8f150512ddcf76",
      "blockNumber": "0x724dda",
      "gasUsed": "0xfb93",
      "effectiveGasPrice": "0x411b89631",
      "from": "0xc77f7fed3b5cc8249adc428c5f44c9063b9734b4",
      "to": "0x5eb9cc76c3506942c1c0ead70e877dd5e4f00cb0",
      "contractAddress": null
    }
  ],
  "libraries": [],
  "pending": [],
  "returns": {},
  "timestamp": 1736873965,
  "chain": 11155111,
  "commit": "51a374b"
}