{
  "transactions": [
    {
      "hash": "0x331a31834149895a066aeb70c82545061a7fe3a45877741f6fb38f4365bae8e5",
      "transactionType": "CALL",
      "contractName": null,
      "contractAddress": "0x757a575d2e5b6cb25e269a79b0092b2f2cb55009",
      "function": "buy(address)",
      "arguments": [
        "0xC77f7fed3b5Cc8249aDc428c5F44C9063B9734b4"
      ],
      "transaction": {
        "from": "0xc77f7fed3b5cc8249adc428c5f44c9063b9734b4",
        "to": "0x757a575d2e5b6cb25e269a79b0092b2f2cb55009",
        "gas": "0x1b2c8",
        "value": "0xde0b6b3a7640000",
        "input": "0xf088d547000000000000000000000000c77f7fed3b5cc8249adc428c5f44c9063b9734b4",
        "nonce": "0x1841",
        "chainId": "0xaa36a7"
      },
      "additionalContracts": [],
      "isFixedGasLimit": false
    }
  ],
  "receipts": [
    {
      "status": "0x1",
      "cumulativeGasUsed": "0xd63c3e",
      "logs": [
        {
          "address": "0x757a575d2e5b6cb25e269a79b0092b2f2cb55009",
          "topics": [
            "0xddf252ad1be2c89b69c2b068fc378daa952ba7f163c4a11628f55a4df523b3ef",
            "0x0000000000000000000000000000000000000000000000000000000000000000",
            "0x000000000000000000000000c77f7fed3b5cc8249adc428c5f44c9063b9734b4"
          ],
          "data": "0x000000000000000000000000000000000000000000000035ab028ac154c71b30",
          "blockHash": "0x8eb0a18c25bd7f9f6aa23ea6b8e2edf85571b6f0aef5b67bb042f78c80f3d193",
          "blockNumber": "0x73510d",
          "transactionHash": "0x331a31834149895a066aeb70c82545061a7fe3a45877741f6fb38f4365bae8e5",
          "transactionIndex": "0x6c",
          "logIndex": "0xd1",
          "removed": false
        },
        {
          "address": "0x757a575d2e5b6cb25e269a79b0092b2f2cb55009",
          "topics": [
            "0xddf252ad1be2c89b69c2b068fc378daa952ba7f163c4a11628f55a4df523b3ef",
            "0x0000000000000000000000000000000000000000000000000000000000000000",
            "0x000000000000000000000000c77f7fed3b5cc8249adc428c5f44c9063b9734b4"
          ],
          "data": "0x00000000000000000000000000000000000000000000000029accf52156cec36",
          "blockHash": "0x8eb0a18c25bd7f9f6aa23ea6b8e2edf85571b6f0aef5b67bb042f78c80f3d193",
          "blockNumber": "0x73510d",
          "transactionHash": "0x331a31834149895a066aeb70c82545061a7fe3a45877741f6fb38f4365bae8e5",
          "transactionIndex": "0x6c",
          "logIndex": "0xd2",
          "removed": false
        },
        {
          "address": "0x757a575d2e5b6cb25e269a79b0092b2f2cb55009",
          "topics": [
            "0x4afcb4a87cdbd9974efdb92ee48bc8d7cd0ae4bf217004db3d080cbaee652ca7"
          ],
          "data": "0x000000000000000000000000000000000000000000000000000000006792dba8000000000000000000000000000000000000000000000000000393d6e1a1f5be0000000000000000000000000000000000000000000000000de0b6b3a7640000",
          "blockHash": "0x8eb0a18c25bd7f9f6aa23ea6b8e2edf85571b6f0aef5b67bb042f78c80f3d193",
          "blockNumber": "0x73510d",
          "transactionHash": "0x331a31834149895a066aeb70c82545061a7fe3a45877741f6fb38f4365bae8e5",
          "transactionIndex": "0x6c",
          "logIndex": "0xd3",
          "removed": false
        }
      ],
      "logsBloom": "0x00000000000000000000000000000000000000000000000000002000000000000000000000000000000000000000000000000000000000004000000000000000000000000000000000000008000000000000000000000000000000000000000000000100020000000000000000000800020000000000000000000030000000000000000000000000000000000000000000000000000000000000010000000000000000000000000000000000000000004000000000000000000000000000000000000002000000800000000000000000000000000000080000000000000020000000000000000000000000000000000000000000000000000000000000000000",
      "type": "0x2",
      "transactionHash": "0x331a31834149895a066aeb70c82545061a7fe3a45877741f6fb38f4365bae8e5",
      "transactionIndex": "0x6c",
      "blockHash": "0x8eb0a18c25bd7f9f6aa23ea6b8e2edf85571b6f0aef5b67bb042f78c80f3d193",
      "blockNumber": "0x73510d",
      "gasUsed": "0x13ac7",
      "effectiveGasPrice": "0x4341e23d",
      "from": "0xc77f7fed3b5cc8249adc428c5f44c9063b9734b4",
      "to": "0x757a575d2e5b6cb25e269a79b0092b2f2cb55009",
      "contractAddress": null
    }
  ],
  "libraries": [],
  "pending": [],
  "returns": {},
  "timestamp": 1737677736,
  "chain": 11155111,
  "commit": "f5162e9"
}