{
  "transactions": [
    {
      "hash": "0xf5a93bec138009fef9a6a72e9848bb141d3688393ff3af8ba48a4eca6acbea85",
      "transactionType": "CALL",
      "contractName": null,
      "contractAddress": "0x8aafd3ede9adb0ff97c7aebce82a919afb1c8764",
      "function": "sell(uint256)",
      "arguments": [
        "741982826032431958394"
      ],
      "transaction": {
        "from": "0xc77f7fed3b5cc8249adc428c5f44c9063b9734b4",
        "to": "0x8aafd3ede9adb0ff97c7aebce82a919afb1c8764",
        "gas": "0x17270",
        "value": "0x0",
        "input": "0xe4849b32000000000000000000000000000000000000000000000028391489153f91097a",
        "nonce": "0xf67",
        "chainId": "0xaa36a7"
      },
      "additionalContracts": [],
      "isFixedGasLimit": false
    }
  ],
  "receipts": [
    {
      "status": "0x1",
      "cumulativeGasUsed": "0xd3eab1",
      "logs": [
        {
          "address": "0x8aafd3ede9adb0ff97c7aebce82a919afb1c8764",
          "topics": [
            "0xddf252ad1be2c89b69c2b068fc378daa952ba7f163c4a11628f55a4df523b3ef",
            "0x000000000000000000000000c77f7fed3b5cc8249adc428c5f44c9063b9734b4",
            "0x0000000000000000000000000000000000000000000000000000000000000000"
          ],
          "data": "0x000000000000000000000000000000000000000000000027e6b41d7d86bceec7",
          "blockHash": "0xc32ade446c59a57c491bdb1181acb70d3030a46d9cd18a4f981f702e0cabecfb",
          "blockNumber": "0x7315c7",
          "transactionHash": "0xf5a93bec138009fef9a6a72e9848bb141d3688393ff3af8ba48a4eca6acbea85",
          "transactionIndex": "0x82",
          "logIndex": "0x96",
          "removed": false
        },
        {
          "address": "0x8aafd3ede9adb0ff97c7aebce82a919afb1c8764",
          "topics": [
            "0xddf252ad1be2c89b69c2b068fc378daa952ba7f163c4a11628f55a4df523b3ef",
            "0x000000000000000000000000c77f7fed3b5cc8249adc428c5f44c9063b9734b4",
            "0x000000000000000000000000c77f7fed3b5cc8249adc428c5f44c9063b9734b4"
          ],
          "data": "0x00000000000000000000000000000000000000000000000052606b97b8d41ab3",
          "blockHash": "0xc32ade446c59a57c491bdb1181acb70d3030a46d9cd18a4f981f702e0cabecfb",
          "blockNumber": "0x7315c7",
          "transactionHash": "0xf5a93bec138009fef9a6a72e9848bb141d3688393ff3af8ba48a4eca6acbea85",
          "transactionIndex": "0x82",
          "logIndex": "0x97",
          "removed": false
        },
        {
          "address": "0x8aafd3ede9adb0ff97c7aebce82a919afb1c8764",
          "topics": [
            "0x4afcb4a87cdbd9974efdb92ee48bc8d7cd0ae4bf217004db3d080cbaee652ca7"
          ],
          "data": "0x00000000000000000000000000000000000000000000000000000000679002000000000000000000000000000000000000000000000000000004c1830980df700000000000000000000000000000000000000000000000000dc8214e4b802267",
          "blockHash": "0xc32ade446c59a57c491bdb1181acb70d3030a46d9cd18a4f981f702e0cabecfb",
          "blockNumber": "0x7315c7",
          "transactionHash": "0xf5a93bec138009fef9a6a72e9848bb141d3688393ff3af8ba48a4eca6acbea85",
          "transactionIndex": "0x82",
          "logIndex": "0x98",
          "removed": false
        }
      ],
      "logsBloom": "0x00000000000000000000000000000000000000000600000000000000000000000000000000000000000000000000000000000000000000004000000000000000000000000000004000000008000000000000000000000000000000000000000000000000020000000000000000000800020000000000000000000010000000000000000000000000000000000000000000000000000000000000010000000000000000000000000000000000000000004000000000000000000000000000000000000002000000800000000000000000000000000000080000000000000020000000000000000000000000000000000000000000000000000000000000000000",
      "type": "0x2",
      "transactionHash": "0xf5a93bec138009fef9a6a72e9848bb141d3688393ff3af8ba48a4eca6acbea85",
      "transactionIndex": "0x82",
      "blockHash": "0xc32ade446c59a57c491bdb1181acb70d3030a46d9cd18a4f981f702e0cabecfb",
      "blockNumber": "0x7315c7",
      "gasUsed": "0xfd4b",
      "effectiveGasPrice": "0x60c3a6bb",
      "from": "0xc77f7fed3b5cc8249adc428c5f44c9063b9734b4",
      "to": "0x8aafd3ede9adb0ff97c7aebce82a919afb1c8764",
      "contractAddress": null
    }
  ],
  "libraries": [],
  "pending": [],
  "returns": {},
  "timestamp": 1737490947,
  "chain": 11155111,
  "commit": "1d2fb70"
}