{
  "transactions": [
    {
      "hash": "0x65dca70c3d5b8110276994898520529586092b035685ed4c6e31f1a477b2169f",
      "transactionType": "CALL",
      "contractName": null,
      "contractAddress": "0x5eb9cc76c3506942c1c0ead70e877dd5e4f00cb0",
      "function": "sell(uint256)",
      "arguments": [
        "989096493316851879359"
      ],
      "transaction": {
        "from": "0xc77f7fed3b5cc8249adc428c5f44c9063b9734b4",
        "to": "0x5eb9cc76c3506942c1c0ead70e877dd5e4f00cb0",
        "gas": "0x16fec",
        "value": "0x0",
        "input": "0xe4849b320000000000000000000000000000000000000000000000359e78a436bf7bcdbf",
        "nonce": "0x417",
        "chainId": "0xaa36a7"
      },
      "additionalContracts": [],
      "isFixedGasLimit": false
    }
  ],
  "receipts": [
    {
      "status": "0x1",
      "cumulativeGasUsed": "0xc96a6a",
      "logs": [
        {
          "address": "0x5eb9cc76c3506942c1c0ead70e877dd5e4f00cb0",
          "topics": [
            "0xddf252ad1be2c89b69c2b068fc378daa952ba7f163c4a11628f55a4df523b3ef",
            "0x000000000000000000000000c77f7fed3b5cc8249adc428c5f44c9063b9734b4",
            "0x0000000000000000000000000000000000000000000000000000000000000000"
          ],
          "data": "0x0000000000000000000000000000000000000000000000359e78a436bf7bcdbf",
          "blockHash": "0xe9d5bbda0c6bcf7d39d9635a46a798ca683c03fe9877aa2240e387a25bc1c2bf",
          "blockNumber": "0x72502a",
          "transactionHash": "0x65dca70c3d5b8110276994898520529586092b035685ed4c6e31f1a477b2169f",
          "transactionIndex": "0x6b",
          "logIndex": "0xc2",
          "removed": false
        },
        {
          "address": "0x5eb9cc76c3506942c1c0ead70e877dd5e4f00cb0",
          "topics": [
            "0x4afcb4a87cdbd9974efdb92ee48bc8d7cd0ae4bf217004db3d080cbaee652ca7"
          ],
          "data": "0x000000000000000000000000000000000000000000000000000000006786b3c4000000000000000000000000000000000000000000000000000391164d0177b80000000000000000000000000000000000000000000000000dc7db1331e13567",
          "blockHash": "0xe9d5bbda0c6bcf7d39d9635a46a798ca683c03fe9877aa2240e387a25bc1c2bf",
          "blockNumber": "0x72502a",
          "transactionHash": "0x65dca70c3d5b8110276994898520529586092b035685ed4c6e31f1a477b2169f",
          "transactionIndex": "0x6b",
          "logIndex": "0xc3",
          "removed": false
        }
      ],
      "logsBloom": "0x00000000000000000000000000000000000000000000000000000000000000000000000000000000000000000000000000000000000000004000000000000000000000000000000000000008000000000000000000000000000000000000000000000000020000000000000004000800020000000000000000000010000000000000000000000000000000000000000000000000000000000000010000000000000000000000000000000000000000004000000000000000000000000000020000000002000000800000008000000000000000000000080000000000000020000000000000000000000000000000000000000000000000000000000000000000",
      "type": "0x2",
      "transactionHash": "0x65dca70c3d5b8110276994898520529586092b035685ed4c6e31f1a477b2169f",
      "transactionIndex": "0x6b",
      "blockHash": "0xe9d5bbda0c6bcf7d39d9635a46a798ca683c03fe9877aa2240e387a25bc1c2bf",
      "blockNumber": "0x72502a",
      "gasUsed": "0xfb93",
      "effectiveGasPrice": "0x33c46d671",
      "from": "0xc77f7fed3b5cc8249adc428c5f44c9063b9734b4",
      "to": "0x5eb9cc76c3506942c1c0ead70e877dd5e4f00cb0",
      "contractAddress": null
    }
  ],
  "libraries": [],
  "pending": [],
  "returns": {},
  "timestamp": 1736881095,
  "chain": 11155111,
  "commit": "51a374b"
}