{
  "transactions": [
    {
      "hash": "0x77bfd002cf1de2c5cf18019fb553ad6b078ba7715ea0b6138f8276a3f5f9ac56",
      "transactionType": "CALL",
      "contractName": null,
      "contractAddress": "0x5eb9cc76c3506942c1c0ead70e877dd5e4f00cb0",
      "function": "sell(uint256)",
      "arguments": [
        "989104142282037516860"
      ],
      "transaction": {
        "from": "0xc77f7fed3b5cc8249adc428c5f44c9063b9734b4",
        "to": "0x5eb9cc76c3506942c1c0ead70e877dd5e4f00cb0",
        "gas": "0x16fec",
        "value": "0x0",
        "input": "0xe4849b320000000000000000000000000000000000000000000000359e93d0e83c45da3c",
        "nonce": "0x3e7",
        "chainId": "0xaa36a7"
      },
      "additionalContracts": [],
      "isFixedGasLimit": false
    }
  ],
  "receipts": [
    {
      "status": "0x1",
      "cumulativeGasUsed": "0xf9d904",
      "logs": [
        {
          "address": "0x5eb9cc76c3506942c1c0ead70e877dd5e4f00cb0",
          "topics": [
            "0xddf252ad1be2c89b69c2b068fc378daa952ba7f163c4a11628f55a4df523b3ef",
            "0x000000000000000000000000c77f7fed3b5cc8249adc428c5f44c9063b9734b4",
            "0x0000000000000000000000000000000000000000000000000000000000000000"
          ],
          "data": "0x0000000000000000000000000000000000000000000000359e93d0e83c45da3c",
          "blockHash": "0x206043725e1c9447dcb4d44ef126bddb701351fdbb7cab6778f431a817a46da5",
          "blockNumber": "0x724fed",
          "transactionHash": "0x77bfd002cf1de2c5cf18019fb553ad6b078ba7715ea0b6138f8276a3f5f9ac56",
          "transactionIndex": "0x69",
          "logIndex": "0xb3",
          "removed": false
        },
        {
          "address": "0x5eb9cc76c3506942c1c0ead70e877dd5e4f00cb0",
          "topics": [
            "0x4afcb4a87cdbd9974efdb92ee48bc8d7cd0ae4bf217004db3d080cbaee652ca7"
          ],
          "data": "0x000000000000000000000000000000000000000000000000000000006786b0e8000000000000000000000000000000000000000000000000000391147e3fc3fb0000000000000000000000000000000000000000000000000dc7db1331eed1a6",
          "blockHash": "0x206043725e1c9447dcb4d44ef126bddb701351fdbb7cab6778f431a817a46da5",
          "blockNumber": "0x724fed",
          "transactionHash": "0x77bfd002cf1de2c5cf18019fb553ad6b078ba7715ea0b6138f8276a3f5f9ac56",
          "transactionIndex": "0x69",
          "logIndex": "0xb4",
          "removed": false
        }
      ],
      "logsBloom": "0x00000000000000000000000000000000000000000000000000000000000000000000000000000000000000000000000000000000000000004000000000000000000000000000000000000008000000000000000000000000000000000000000000000000020000000000000004000800020000000000000000000010000000000000000000000000000000000000000000000000000000000000010000000000000000000000000000000000000000004000000000000000000000000000020000000002000000800000008000000000000000000000080000000000000020000000000000000000000000000000000000000000000000000000000000000000",
      "type": "0x2",
      "transactionHash": "0x77bfd002cf1de2c5cf18019fb553ad6b078ba7715ea0b6138f8276a3f5f9ac56",
      "transactionIndex": "0x69",
      "blockHash": "0x206043725e1c9447dcb4d44ef126bddb701351fdbb7cab6778f431a817a46da5",
      "blockNumber": "0x724fed",
      "gasUsed": "0xfb93",
      "effectiveGasPrice": "0x398b28de6",
      "from": "0xc77f7fed3b5cc8249adc428c5f44c9063b9734b4",
      "to": "0x5eb9cc76c3506942c1c0ead70e877dd5e4f00cb0",
      "contractAddress": null
    }
  ],
  "libraries": [],
  "pending": [],
  "returns": {},
  "timestamp": 1736880361,
  "chain": 11155111,
  "commit": "51a374b"
}