{
  "transactions": [
    {
      "hash": "0xeeeaf088b8e0cd49d557ee038d54652f3a40ac1502d2462f46d73c648e6f2393",
      "transactionType": "CALL",
      "contractName": null,
      "contractAddress": "0x270e88f8683660553e8ba4eb2ad7c91a1710d769",
      "function": "buy(address)",
      "arguments": [
        "0xC77f7fed3b5Cc8249aDc428c5F44C9063B9734b4"
      ],
      "transaction": {
        "from": "0xc77f7fed3b5cc8249adc428c5f44c9063b9734b4",
        "to": "0x270e88f8683660553e8ba4eb2ad7c91a1710d769",
        "gas": "0x1b30c",
        "value": "0xde0b6b3a7640000",
        "input": "0xf088d547000000000000000000000000c77f7fed3b5cc8249adc428c5f44c9063b9734b4",
        "nonce": "0x745",
        "chainId": "0xaa36a7"
      },
      "additionalContracts": [],
      "isFixedGasLimit": false
    }
  ],
  "receipts": [
    {
      "status": "0x1",
      "cumulativeGasUsed": "0x1178d70",
      "logs": [
        {
          "address": "0x270e88f8683660553e8ba4eb2ad7c91a1710d769",
          "topics": [
            "0xddf252ad1be2c89b69c2b068fc378daa952ba7f163c4a11628f55a4df523b3ef",
            "0x0000000000000000000000000000000000000000000000000000000000000000",
            "0x000000000000000000000000c77f7fed3b5cc8249adc428c5f44c9063b9734b4"
          ],
          "data": "0x000000000000000000000000000000000000000000000027f1475b8c0153fd9f",
          "blockHash": "0xc9d2e9f4a9333b6d7a3bd4cec4c43a6f9260f4cf93f6386464055fe5fd3c5586",
          "blockNumber": "0x725467",
          "transactionHash": "0xeeeaf088b8e0cd49d557ee038d54652f3a40ac1502d2462f46d73c648e6f2393",
          "transactionIndex": "0x49",
          "logIndex": "0x7a",
          "removed": false
        },
        {
          "address": "0x270e88f8683660553e8ba4eb2ad7c91a1710d769",
          "topics": [
            "0xddf252ad1be2c89b69c2b068fc378daa952ba7f163c4a11628f55a4df523b3ef",
            "0x0000000000000000000000000000000000000000000000000000000000000000",
            "0x000000000000000000000000c77f7fed3b5cc8249adc428c5f44c9063b9734b4"
          ],
          "data": "0x0000000000000000000000000000000000000000000000001f044718fc886d83",
          "blockHash": "0xc9d2e9f4a9333b6d7a3bd4cec4c43a6f9260f4cf93f6386464055fe5fd3c5586",
          "blockNumber": "0x725467",
          "transactionHash": "0xeeeaf088b8e0cd49d557ee038d54652f3a40ac1502d2462f46d73c648e6f2393",
          "transactionIndex": "0x49",
          "logIndex": "0x7b",
          "removed": false
        },
        {
          "address": "0x270e88f8683660553e8ba4eb2ad7c91a1710d769",
          "topics": [
            "0x4afcb4a87cdbd9974efdb92ee48bc8d7cd0ae4bf217004db3d080cbaee652ca7"
          ],
          "data": "0x000000000000000000000000000000000000000000000000000000006786e6dc0000000000000000000000000000000000000000000000000004c6217bebf50a0000000000000000000000000000000000000000000000000de0b6b3a7640000",
          "blockHash": "0xc9d2e9f4a9333b6d7a3bd4cec4c43a6f9260f4cf93f6386464055fe5fd3c5586",
          "blockNumber": "0x725467",
          "transactionHash": "0xeeeaf088b8e0cd49d557ee038d54652f3a40ac1502d2462f46d73c648e6f2393",
          "transactionIndex": "0x49",
          "logIndex": "0x7c",
          "removed": false
        }
      ],
      "logsBloom": "0x00000000000000000000000000000000000000000000000000000000000000000000000000000000000000000000000020000000000000004000000000000000000000000000000000000008000000000000000000000000000000000000000000000000020000000000000000000800020000000000000000000010000000000000000000010000000000000000000000000000000000000000010000000000000000000000000000000000000000004000000000000000000000000000000000000002000000800000000000000000000000000000080000008000000020000000000000000000000000000000000000000000000000000000000000000000",
      "type": "0x2",
      "transactionHash": "0xeeeaf088b8e0cd49d557ee038d54652f3a40ac1502d2462f46d73c648e6f2393",
      "transactionIndex": "0x49",
      "blockHash": "0xc9d2e9f4a9333b6d7a3bd4cec4c43a6f9260f4cf93f6386464055fe5fd3c5586",
      "blockNumber": "0x725467",
      "gasUsed": "0x13af8",
      "effectiveGasPrice": "0x14743ea59",
      "from": "0xc77f7fed3b5cc8249adc428c5f44c9063b9734b4",
      "to": "0x270e88f8683660553e8ba4eb2ad7c91a1710d769",
      "contractAddress": null
    }
  ],
  "libraries": [],
  "pending": [],
  "returns": {},
  "timestamp": 1736894174,
  "chain": 11155111,
  "commit": "51a374b"
}