{
  "transactions": [
    {
      "hash": "0x5262a54764d6bcc20af44f0b2f00f3d71db19e2752dbde0d54a4f41a8e6e302e",
      "transactionType": "CALL",
      "contractName": null,
      "contractAddress": "0x270e88f8683660553e8ba4eb2ad7c91a1710d769",
      "function": "buy(address)",
      "arguments": [
        "0xC77f7fed3b5Cc8249aDc428c5F44C9063B9734b4"
      ],
      "transaction": {
        "from": "0xc77f7fed3b5cc8249adc428c5f44c9063b9734b4",
        "to": "0x270e88f8683660553e8ba4eb2ad7c91a1710d769",
        "gas": "0x1b30c",
        "value": "0xde0b6b3a7640000",
        "input": "0xf088d547000000000000000000000000c77f7fed3b5cc8249adc428c5f44c9063b9734b4",
        "nonce": "0x50a",
        "chainId": "0xaa36a7"
      },
      "additionalContracts": [],
      "isFixedGasLimit": false
    }
  ],
  "receipts": [
    {
      "status": "0x1",
      "cumulativeGasUsed": "0x8d86fc",
      "logs": [
        {
          "address": "0x270e88f8683660553e8ba4eb2ad7c91a1710d769",
          "topics": [
            "0xddf252ad1be2c89b69c2b068fc378daa952ba7f163c4a11628f55a4df523b3ef",
            "0x0000000000000000000000000000000000000000000000000000000000000000",
            "0x000000000000000000000000c77f7fed3b5cc8249adc428c5f44c9063b9734b4"
          ],
          "data": "0x00000000000000000000000000000000000000000000003534b37918cddd0620",
          "blockHash": "0x532611ee2d25fb516e47ce52c5e953e052be0a8c2e044f465c9daad4e79e51a5",
          "blockNumber": "0x72519f",
          "transactionHash": "0x5262a54764d6bcc20af44f0b2f00f3d71db19e2752dbde0d54a4f41a8e6e302e",
          "transactionIndex": "0x41",
          "logIndex": "0x6a",
          "removed": false
        },
        {
          "address": "0x270e88f8683660553e8ba4eb2ad7c91a1710d769",
          "topics": [
            "0xddf252ad1be2c89b69c2b068fc378daa952ba7f163c4a11628f55a4df523b3ef",
            "0x0000000000000000000000000000000000000000000000000000000000000000",
            "0x000000000000000000000000c77f7fed3b5cc8249adc428c5f44c9063b9734b4"
          ],
          "data": "0x0000000000000000000000000000000000000000000000002950f060e4bd3682",
          "blockHash": "0x532611ee2d25fb516e47ce52c5e953e052be0a8c2e044f465c9daad4e79e51a5",
          "blockNumber": "0x72519f",
          "transactionHash": "0x5262a54764d6bcc20af44f0b2f00f3d71db19e2752dbde0d54a4f41a8e6e302e",
          "transactionIndex": "0x41",
          "logIndex": "0x6b",
          "removed": false
        },
        {
          "address": "0x270e88f8683660553e8ba4eb2ad7c91a1710d769",
          "topics": [
            "0x4afcb4a87cdbd9974efdb92ee48bc8d7cd0ae4bf217004db3d080cbaee652ca7"
          ],
          "data": "0x000000000000000000000000000000000000000000000000000000006786c5580000000000000000000000000000000000000000000000000003957fb703f42c0000000000000000000000000000000000000000000000000de0b6b3a7640000",
          "blockHash": "0x532611ee2d25fb516e47ce52c5e953e052be0a8c2e044f465c9daad4e79e51a5",
          "blockNumber": "0x72519f",
          "transactionHash": "0x5262a54764d6bcc20af44f0b2f00f3d71db19e2752dbde0d54a4f41a8e6e302e",
          "transactionIndex": "0x41",
          "logIndex": "0x6c",
          "removed": false
        }
      ],
      "logsBloom": "0x00000000000000000000000000000000000000000000000000000000000000000000000000000000000000000000000020000000000000004000000000000000000000000000000000000008000000000000000000000000000000000000000000000000020000000000000000000800020000000000000000000010000000000000000000010000000000000000000000000000000000000000010000000000000000000000000000000000000000004000000000000000000000000000000000000002000000800000000000000000000000000000080000008000000020000000000000000000000000000000000000000000000000000000000000000000",
      "type": "0x2",
      "transactionHash": "0x5262a54764d6bcc20af44f0b2f00f3d71db19e2752dbde0d54a4f41a8e6e302e",
      "transactionIndex": "0x41",
      "blockHash": "0x532611ee2d25fb516e47ce52c5e953e052be0a8c2e044f465c9daad4e79e51a5",
      "blockNumber": "0x72519f",
      "gasUsed": "0x13af8",
      "effectiveGasPrice": "0x46fa409e2",
      "from": "0xc77f7fed3b5cc8249adc428c5f44c9063b9734b4",
      "to": "0x270e88f8683660553e8ba4eb2ad7c91a1710d769",
      "contractAddress": null
    }
  ],
  "libraries": [],
  "pending": [],
  "returns": {},
  "timestamp": 1736885594,
  "chain": 11155111,
  "commit": "51a374b"
}