{
  "transactions": [
    {
      "hash": "0x39dba0ace6b7171a0e87093435a776f2fbbcef0261d59b1d2d553e9d88d76a74",
      "transactionType": "CALL",
      "contractName": null,
      "contractAddress": "0x270e88f8683660553e8ba4eb2ad7c91a1710d769",
      "function": "sell(uint256)",
      "arguments": [
        "735868745136074902730"
      ],
      "transaction": {
        "from": "0xc77f7fed3b5cc8249adc428c5f44c9063b9734b4",
        "to": "0x270e88f8683660553e8ba4eb2ad7c91a1710d769",
        "gas": "0x16fec",
        "value": "0x0",
        "input": "0xe4849b32000000000000000000000000000000000000000000000027e43af4e6cc33ccca",
        "nonce": "0x76a",
        "chainId": "0xaa36a7"
      },
      "additionalContracts": [],
      "isFixedGasLimit": false
    }
  ],
  "receipts": [
    {
      "status": "0x1",
      "cumulativeGasUsed": "0x5e497e",
      "logs": [
        {
          "address": "0x270e88f8683660553e8ba4eb2ad7c91a1710d769",
          "topics": [
            "0xddf252ad1be2c89b69c2b068fc378daa952ba7f163c4a11628f55a4df523b3ef",
            "0x000000000000000000000000c77f7fed3b5cc8249adc428c5f44c9063b9734b4",
            "0x0000000000000000000000000000000000000000000000000000000000000000"
          ],
          "data": "0x000000000000000000000000000000000000000000000027e43af4e6cc33ccca",
          "blockHash": "0xad356a6de4ed5a44deed8c0ddfd017b68329b209597ac35a6265ce14bd7c6ae8",
          "blockNumber": "0x725493",
          "transactionHash": "0x39dba0ace6b7171a0e87093435a776f2fbbcef0261d59b1d2d553e9d88d76a74",
          "transactionIndex": "0x42",
          "logIndex": "0x52",
          "removed": false
        },
        {
          "address": "0x270e88f8683660553e8ba4eb2ad7c91a1710d769",
          "topics": [
            "0x4afcb4a87cdbd9974efdb92ee48bc8d7cd0ae4bf217004db3d080cbaee652ca7"
          ],
          "data": "0x000000000000000000000000000000000000000000000000000000006786e8ec0000000000000000000000000000000000000000000000000004cb97894c82c90000000000000000000000000000000000000000000000000dc8281282ffc822",
          "blockHash": "0xad356a6de4ed5a44deed8c0ddfd017b68329b209597ac35a6265ce14bd7c6ae8",
          "blockNumber": "0x725493",
          "transactionHash": "0x39dba0ace6b7171a0e87093435a776f2fbbcef0261d59b1d2d553e9d88d76a74",
          "transactionIndex": "0x42",
          "logIndex": "0x53",
          "removed": false
        }
      ],
      "logsBloom": "0x00000000000000000000000000000000000000000000000000000000000000000000000000000000000000000000000020000000000000004000000000000000000000000000000000000008000000000000000000000000000000000000000000000000020000000000000000000800020000000000000000000010000000000000000000010000000000000000000000000000000000000000010000000000000000000000000000000000000000004000000000000000000000000000000000000002000000800000000000000000000000000000080000008000000020000000000000000000000000000000000000000000000000000000000000000000",
      "type": "0x2",
      "transactionHash": "0x39dba0ace6b7171a0e87093435a776f2fbbcef0261d59b1d2d553e9d88d76a74",
      "transactionIndex": "0x42",
      "blockHash": "0xad356a6de4ed5a44deed8c0ddfd017b68329b209597ac35a6265ce14bd7c6ae8",
      "blockNumber": "0x725493",
      "gasUsed": "0xfb93",
      "effectiveGasPrice": "0x14a14cff4",
      "from": "0xc77f7fed3b5cc8249adc428c5f44c9063b9734b4",
      "to": "0x270e88f8683660553e8ba4eb2ad7c91a1710d769",
      "contractAddress": null
    }
  ],
  "libraries": [],
  "pending": [],
  "returns": {},
  "timestamp": 1736894702,
  "chain": 11155111,
  "commit": "51a374b"
}