{
  "transactions": [
    {
      "hash": "0x6bb7f0c877e2346af6418fbd4f4df79fc3133ebe6b2e15074c24af72d67865fd",
      "transactionType": "CALL",
      "contractName": null,
      "contractAddress": "0x5eb9cc76c3506942c1c0ead70e877dd5e4f00cb0",
      "function": "sell(uint256)",
      "arguments": [
        "989104460991487590041"
      ],
      "transaction": {
        "from": "0xc77f7fed3b5cc8249adc428c5f44c9063b9734b4",
        "to": "0x5eb9cc76c3506942c1c0ead70e877dd5e4f00cb0",
        "gas": "0x16fec",
        "value": "0x0",
        "input": "0xe4849b320000000000000000000000000000000000000000000000359e94f2c58fd4be99",
        "nonce": "0x3e5",
        "chainId": "0xaa36a7"
      },
      "additionalContracts": [],
      "isFixedGasLimit": false
    }
  ],
  "receipts": [
    {
      "status": "0x1",
      "cumulativeGasUsed": "0x157981b",
      "logs": [
        {
          "address": "0x5eb9cc76c3506942c1c0ead70e877dd5e4f00cb0",
          "topics": [
            "0xddf252ad1be2c89b69c2b068fc378daa952ba7f163c4a11628f55a4df523b3ef",
            "0x000000000000000000000000c77f7fed3b5cc8249adc428c5f44c9063b9734b4",
            "0x0000000000000000000000000000000000000000000000000000000000000000"
          ],
          "data": "0x0000000000000000000000000000000000000000000000359e94f2c58fd4be99",
          "blockHash": "0xf39fce401fe3b864add92c7208358a833b3800b2ae8de21f9d2b3e4be11d912e",
          "blockNumber": "0x724feb",
          "transactionHash": "0x6bb7f0c877e2346af6418fbd4f4df79fc3133ebe6b2e15074c24af72d67865fd",
          "transactionIndex": "0xac",
          "logIndex": "0x14d",
          "removed": false
        },
        {
          "address": "0x5eb9cc76c3506942c1c0ead70e877dd5e4f00cb0",
          "topics": [
            "0x4afcb4a87cdbd9974efdb92ee48bc8d7cd0ae4bf217004db3d080cbaee652ca7"
          ],
          "data": "0x000000000000000000000000000000000000000000000000000000006786b0d0000000000000000000000000000000000000000000000000000391146af7b1d30000000000000000000000000000000000000000000000000dc7db1331ef62d3",
          "blockHash": "0xf39fce401fe3b864add92c7208358a833b3800b2ae8de21f9d2b3e4be11d912e",
          "blockNumber": "0x724feb",
          "transactionHash": "0x6bb7f0c877e2346af6418fbd4f4df79fc3133ebe6b2e15074c24af72d67865fd",
          "transactionIndex": "0xac",
          "logIndex": "0x14e",
          "removed": false
        }
      ],
      "logsBloom": "0x00000000000000000000000000000000000000000000000000000000000000000000000000000000000000000000000000000000000000004000000000000000000000000000000000000008000000000000000000000000000000000000000000000000020000000000000004000800020000000000000000000010000000000000000000000000000000000000000000000000000000000000010000000000000000000000000000000000000000004000000000000000000000000000020000000002000000800000008000000000000000000000080000000000000020000000000000000000000000000000000000000000000000000000000000000000",
      "type": "0x2",
      "transactionHash": "0x6bb7f0c877e2346af6418fbd4f4df79fc3133ebe6b2e15074c24af72d67865fd",
      "transactionIndex": "0xac",
      "blockHash": "0xf39fce401fe3b864add92c7208358a833b3800b2ae8de21f9d2b3e4be11d912e",
      "blockNumber": "0x724feb",
      "gasUsed": "0xfb93",
      "effectiveGasPrice": "0x36d5aa4fb",
      "from": "0xc77f7fed3b5cc8249adc428c5f44c9063b9734b4",
      "to": "0x5eb9cc76c3506942c1c0ead70e877dd5e4f00cb0",
      "contractAddress": null
    }
  ],
  "libraries": [],
  "pending": [],
  "returns": {},
  "timestamp": 1736880338,
  "chain": 11155111,
  "commit": "51a374b"
}