{
  "transactions": [
    {
      "hash": "0x7e4de1ed52081ea8101e005dbd9efcb71f630540a728cc78b4872ca2ef5d5e34",
      "transactionType": "CALL",
      "contractName": null,
      "contractAddress": "0x270e88f8683660553e8ba4eb2ad7c91a1710d769",
      "function": "sell(uint256)",
      "arguments": [
        "737276590304958102884"
      ],
      "transaction": {
        "from": "0xc77f7fed3b5cc8249adc428c5f44c9063b9734b4",
        "to": "0x270e88f8683660553e8ba4eb2ad7c91a1710d769",
        "gas": "0x16fec",
        "value": "0x0",
        "input": "0xe4849b32000000000000000000000000000000000000000000000027f7c4a09fa23c3d64",
        "nonce": "0x75a",
        "chainId": "0xaa36a7"
      },
      "additionalContracts": [],
      "isFixedGasLimit": false
    }
  ],
  "receipts": [
    {
      "status": "0x1",
      "cumulativeGasUsed": "0xad0afa",
      "logs": [
        {
          "address": "0x270e88f8683660553e8ba4eb2ad7c91a1710d769",
          "topics": [
            "0xddf252ad1be2c89b69c2b068fc378daa952ba7f163c4a11628f55a4df523b3ef",
            "0x000000000000000000000000c77f7fed3b5cc8249adc428c5f44c9063b9734b4",
            "0x0000000000000000000000000000000000000000000000000000000000000000"
          ],
          "data": "0x000000000000000000000000000000000000000000000027f7c4a09fa23c3d64",
          "blockHash": "0x1626a1513a2d62024868221bd5f65c38e1db68f14f0835e18bc2be6a277b3124",
          "blockNumber": "0x725481",
          "transactionHash": "0x7e4de1ed52081ea8101e005dbd9efcb71f630540a728cc78b4872ca2ef5d5e34",
          "transactionIndex": "0x32",
          "logIndex": "0x45",
          "removed": false
        },
        {
          "address": "0x270e88f8683660553e8ba4eb2ad7c91a1710d769",
          "topics": [
            "0x4afcb4a87cdbd9974efdb92ee48bc8d7cd0ae4bf217004db3d080cbaee652ca7"
          ],
          "data": "0x000000000000000000000000000000000000000000000000000000006786e8140000000000000000000000000000000000000000000000000004c93f9608fc1e0000000000000000000000000000000000000000000000000dc82837d0de057d",
          "blockHash": "0x1626a1513a2d62024868221bd5f65c38e1db68f14f0835e18bc2be6a277b3124",
          "blockNumber": "0x725481",
          "transactionHash": "0x7e4de1ed52081ea8101e005dbd9efcb71f630540a728cc78b4872ca2ef5d5e34",
          "transactionIndex": "0x32",
          "logIndex": "0x46",
          "removed": false
        }
      ],
      "logsBloom": "0x00000000000000000000000000000000000000000000000000000000000000000000000000000000000000000000000020000000000000004000000000000000000000000000000000000008000000000000000000000000000000000000000000000000020000000000000000000800020000000000000000000010000000000000000000010000000000000000000000000000000000000000010000000000000000000000000000000000000000004000000000000000000000000000000000000002000000800000000000000000000000000000080000008000000020000000000000000000000000000000000000000000000000000000000000000000",
      "type": "0x2",
      "transactionHash": "0x7e4de1ed52081ea8101e005dbd9efcb71f630540a728cc78b4872ca2ef5d5e34",
      "transactionIndex": "0x32",
      "blockHash": "0x1626a1513a2d62024868221bd5f65c38e1db68f14f0835e18bc2be6a277b3124",
      "blockNumber": "0x725481",
      "gasUsed": "0xfb93",
      "effectiveGasPrice": "0x1410a45fe",
      "from": "0xc77f7fed3b5cc8249adc428c5f44c9063b9734b4",
      "to": "0x270e88f8683660553e8ba4eb2ad7c91a1710d769",
      "contractAddress": null
    }
  ],
  "libraries": [],
  "pending": [],
  "returns": {},
  "timestamp": 1736894485,
  "chain": 11155111,
  "commit": "51a374b"
}