{
  "transactions": [
    {
      "hash": "0x4279c3c7d151c6d35b0ac5f075edbf1e235e12681e7262cdf8ce8a227807e029",
      "transactionType": "CALL",
      "contractName": null,
      "contractAddress": "0x270e88f8683660553e8ba4eb2ad7c91a1710d769",
      "function": "sell(uint256)",
      "arguments": [
        "982572243774682005265"
      ],
      "transaction": {
        "from": "0xc77f7fed3b5cc8249adc428c5f44c9063b9734b4",
        "to": "0x270e88f8683660553e8ba4eb2ad7c91a1710d769",
        "gas": "0x16fec",
        "value": "0x0",
        "input": "0xe4849b3200000000000000000000000000000000000000000000003543edd9d27c717f11",
        "nonce": "0x517",
        "chainId": "0xaa36a7"
      },
      "additionalContracts": [],
      "isFixedGasLimit": false
    }
  ],
  "receipts": [
    {
      "status": "0x1",
      "cumulativeGasUsed": "0x562cab",
      "logs": [
        {
          "address": "0x270e88f8683660553e8ba4eb2ad7c91a1710d769",
          "topics": [
            "0xddf252ad1be2c89b69c2b068fc378daa952ba7f163c4a11628f55a4df523b3ef",
            "0x000000000000000000000000c77f7fed3b5cc8249adc428c5f44c9063b9734b4",
            "0x0000000000000000000000000000000000000000000000000000000000000000"
          ],
          "data": "0x00000000000000000000000000000000000000000000003543edd9d27c717f11",
          "blockHash": "0xf2244ea2d0acc18824e6c958a9e7c7ca8fcace44276b368f5a2755c6a9b0a27d",
          "blockNumber": "0x7251ae",
          "transactionHash": "0x4279c3c7d151c6d35b0ac5f075edbf1e235e12681e7262cdf8ce8a227807e029",
          "transactionIndex": "0x2c",
          "logIndex": "0x4a",
          "removed": false
        },
        {
          "address": "0x270e88f8683660553e8ba4eb2ad7c91a1710d769",
          "topics": [
            "0x4afcb4a87cdbd9974efdb92ee48bc8d7cd0ae4bf217004db3d080cbaee652ca7"
          ],
          "data": "0x000000000000000000000000000000000000000000000000000000006786c60c0000000000000000000000000000000000000000000000000003977134ea76e80000000000000000000000000000000000000000000000000dc841813519f247",
          "blockHash": "0xf2244ea2d0acc18824e6c958a9e7c7ca8fcace44276b368f5a2755c6a9b0a27d",
          "blockNumber": "0x7251ae",
          "transactionHash": "0x4279c3c7d151c6d35b0ac5f075edbf1e235e12681e7262cdf8ce8a227807e029",
          "transactionIndex": "0x2c",
          "logIndex": "0x4b",
          "removed": false
        }
      ],
      "logsBloom": "0x00000000000000000000000000000000000000000000000000000000000000000000000000000000000000000000000020000000000000004000000000000000000000000000000000000008000000000000000000000000000000000000000000000000020000000000000000000800020000000000000000000010000000000000000000010000000000000000000000000000000000000000010000000000000000000000000000000000000000004000000000000000000000000000000000000002000000800000000000000000000000000000080000008000000020000000000000000000000000000000000000000000000000000000000000000000",
      "type": "0x2",
      "transactionHash": "0x4279c3c7d151c6d35b0ac5f075edbf1e235e12681e7262cdf8ce8a227807e029",
      "transactionIndex": "0x2c",
      "blockHash": "0xf2244ea2d0acc18824e6c958a9e7c7ca8fcace44276b368f5a2755c6a9b0a27d",
      "blockNumber": "0x7251ae",
      "gasUsed": "0xfb93",
      "effectiveGasPrice": "0x42d41997e",
      "from": "0xc77f7fed3b5cc8249adc428c5f44c9063b9734b4",
      "to": "0x270e88f8683660553e8ba4eb2ad7c91a1710d769",
      "contractAddress": null
    }
  ],
  "libraries": [],
  "pending": [],
  "returns": {},
  "timestamp": 1736885773,
  "chain": 11155111,
  "commit": "51a374b"
}