{
  "transactions": [
    {
      "hash": "0xfbb011d560ac9cd3cd1a75fbf155874b45eefd0e70fa1bb8d5a294857f90edf1",
      "transactionType": "CALL",
      "contractName": null,
      "contractAddress": "0x8aafd3ede9adb0ff97c7aebce82a919afb1c8764",
      "function": "sell(uint256)",
      "arguments": [
        "1552287"
      ],
      "transaction": {
        "from": "0xc77f7fed3b5cc8249adc428c5f44c9063b9734b4",
        "to": "0x8aafd3ede9adb0ff97c7aebce82a919afb1c8764",
        "gas": "0x16208",
        "value": "0x0",
        "input": "0xe4849b32000000000000000000000000000000000000000000000000000000000017af9f",
        "nonce": "0xfc8",
        "chainId": "0xaa36a7"
      },
      "additionalContracts": [],
      "isFixedGasLimit": false
    }
  ],
  "receipts": [
    {
      "status": "0x1",
      "cumulativeGasUsed": "0xe0f90c",
      "logs": [
        {
          "address": "0x8aafd3ede9adb0ff97c7aebce82a919afb1c8764",
          "topics": [
            "0xddf252ad1be2c89b69c2b068fc378daa952ba7f163c4a11628f55a4df523b3ef",
            "0x000000000000000000000000c77f7fed3b5cc8249adc428c5f44c9063b9734b4",
            "0x0000000000000000000000000000000000000000000000000000000000000000"
          ],
          "data": "0x0000000000000000000000000000000000000000000000000000000000177f1d",
          "blockHash": "0x1be8eba540a6dc2748a659d6d60135c18a6faa941e37fcb602cb10264d6406d9",
          "blockNumber": "0x731634",
          "transactionHash": "0xfbb011d560ac9cd3cd1a75fbf155874b45eefd0e70fa1bb8d5a294857f90edf1",
          "transactionIndex": "0x92",
          "logIndex": "0xfd",
          "removed": false
        },
        {
          "address": "0x8aafd3ede9adb0ff97c7aebce82a919afb1c8764",
          "topics": [
            "0xddf252ad1be2c89b69c2b068fc378daa952ba7f163c4a11628f55a4df523b3ef",
            "0x000000000000000000000000c77f7fed3b5cc8249adc428c5f44c9063b9734b4",
            "0x000000000000000000000000c77f7fed3b5cc8249adc428c5f44c9063b9734b4"
          ],
          "data": "0x0000000000000000000000000000000000000000000000000000000000003082",
          "blockHash": "0x1be8eba540a6dc2748a659d6d60135c18a6faa941e37fcb602cb10264d6406d9",
          "blockNumber": "0x731634",
          "transactionHash": "0xfbb011d560ac9cd3cd1a75fbf155874b45eefd0e70fa1bb8d5a294857f90edf1",
          "transactionIndex": "0x92",
          "logIndex": "0xfe",
          "removed": false
        },
        {
          "address": "0x8aafd3ede9adb0ff97c7aebce82a919afb1c8764",
          "topics": [
            "0x4afcb4a87cdbd9974efdb92ee48bc8d7cd0ae4bf217004db3d080cbaee652ca7"
          ],
          "data": "0x000000000000000000000000000000000000000000000000000000006790071c0000000000000000000000000000000000000000000000000004c47708e008ea0000000000000000000000000000000000000000000000000000000000000823",
          "blockHash": "0x1be8eba540a6dc2748a659d6d60135c18a6faa941e37fcb602cb10264d6406d9",
          "blockNumber": "0x731634",
          "transactionHash": "0xfbb011d560ac9cd3cd1a75fbf155874b45eefd0e70fa1bb8d5a294857f90edf1",
          "transactionIndex": "0x92",
          "logIndex": "0xff",
          "removed": false
        }
      ],
      "logsBloom": "0x00000000000000000000000000000000000000000600000000000000000000000000000000000000000000000000000000000000000000004000000000000000000000000000004000000008000000000000000000000000000000000000000000000000020000000000000000000800020000000000000000000010000000000000000000000000000000000000000000000000000000000000010000000000000000000000000000000000000000004000000000000000000000000000000000000002000000800000000000000000000000000000080000000000000020000000000000000000000000000000000000000000000000000000000000000000",
      "type": "0x2",
      "transactionHash": "0xfbb011d560ac9cd3cd1a75fbf155874b45eefd0e70fa1bb8d5a294857f90edf1",
      "transactionIndex": "0x92",
      "blockHash": "0x1be8eba540a6dc2748a659d6d60135c18a6faa941e37fcb602cb10264d6406d9",
      "blockNumber": "0x731634",
      "gasUsed": "0xf213",
      "effectiveGasPrice": "0x59efe4da",
      "from": "0xc77f7fed3b5cc8249adc428c5f44c9063b9734b4",
      "to": "0x8aafd3ede9adb0ff97c7aebce82a919afb1c8764",
      "contractAddress": null
    }
  ],
  "libraries": [],
  "pending": [],
  "returns": {},
  "timestamp": 1737492252,
  "chain": 11155111,
  "commit": "1d2fb70"
}