{
  "transactions": [
    {
      "hash": "0xfede9d3b69efb3dbc00c7a558e7770d516f80cb08ff4cfb1742de5b4053b9aa3",
      "transactionType": "CALL",
      "contractName": null,
      "contractAddress": "0xbf4a322f1496e5c3d34a9bcdb4c60567b38c7de2",
      "function": "sell(uint256)",
      "arguments": [
        "973397904026042914931"
      ],
      "transaction": {
        "from": "0xc77f7fed3b5cc8249adc428c5f44c9063b9734b4",
        "to": "0xbf4a322f1496e5c3d34a9bcdb4c60567b38c7de2",
        "gas": "0x16fea",
        "value": "0x0",
        "input": "0xe4849b32000000000000000000000000000000000000000000000034c49c0c6db6105873",
        "nonce": "0xe07",
        "chainId": "0xaa36a7"
      },
      "additionalContracts": [],
      "isFixedGasLimit": false
    }
  ],
  "receipts": [
    {
      "status": "0x1",
      "cumulativeGasUsed": "0xf000ce",
      "logs": [
        {
          "address": "0xbf4a322f1496e5c3d34a9bcdb4c60567b38c7de2",
          "topics": [
            "0xddf252ad1be2c89b69c2b068fc378daa952ba7f163c4a11628f55a4df523b3ef",
            "0x000000000000000000000000c77f7fed3b5cc8249adc428c5f44c9063b9734b4",
            "0x0000000000000000000000000000000000000000000000000000000000000000"
          ],
          "data": "0x000000000000000000000000000000000000000000000034c49c0c6db6105873",
          "blockHash": "0x6e94edf88faf222d9d50d9c08365ace8316bb66d959daf5190ed1cb453da5259",
          "blockNumber": "0x7266ee",
          "transactionHash": "0xfede9d3b69efb3dbc00c7a558e7770d516f80cb08ff4cfb1742de5b4053b9aa3",
          "transactionIndex": "0x5f",
          "logIndex": "0xa3",
          "removed": false
        },
        {
          "address": "0xbf4a322f1496e5c3d34a9bcdb4c60567b38c7de2",
          "topics": [
            "0x4afcb4a87cdbd9974efdb92ee48bc8d7cd0ae4bf217004db3d080cbaee652ca7"
          ],
          "data": "0x000000000000000000000000000000000000000000000000000000006787c67400000000000000000000000000000000000000000000000000039fd68635e2cf0000000000000000000000000000000000000000000000000dc7e3d2b751d1d4",
          "blockHash": "0x6e94edf88faf222d9d50d9c08365ace8316bb66d959daf5190ed1cb453da5259",
          "blockNumber": "0x7266ee",
          "transactionHash": "0xfede9d3b69efb3dbc00c7a558e7770d516f80cb08ff4cfb1742de5b4053b9aa3",
          "transactionIndex": "0x5f",
          "logIndex": "0xa4",
          "removed": false
        }
      ],
      "logsBloom": "0x00000000000000000000000000000000000000000000000000000000000000000000000000000000000000000000000000000000000000004000000000000000000000000000000000000008000000000000001000000000000000000000000000000000020000000000000000000800020000000000000000000010000000000000000000000000000000000000000000000000000008000000010000000000000000000000000000000000000000004000000000000000000000000000000000000002000000800000000000001000000000000000080000000000000020000000000000000000000000000000000000000000000000000000000000000000",
      "type": "0x2",
      "transactionHash": "0xfede9d3b69efb3dbc00c7a558e7770d516f80cb08ff4cfb1742de5b4053b9aa3",
      "transactionIndex": "0x5f",
      "blockHash": "0x6e94edf88faf222d9d50d9c08365ace8316bb66d959daf5190ed1cb453da5259",
      "blockNumber": "0x7266ee",
      "gasUsed": "0xfb91",
      "effectiveGasPrice": "0x36b660ce6",
      "from": "0xc77f7fed3b5cc8249adc428c5f44c9063b9734b4",
      "to": "0xbf4a322f1496e5c3d34a9bcdb4c60567b38c7de2",
      "contractAddress": null
    }
  ],
  "libraries": [],
  "pending": [],
  "returns": {},
  "timestamp": 1736951412,
  "chain": 11155111,
  "commit": "51a374b"
}