{
  "transactions": [
    {
      "hash": "0x8c01865b37c67a073f00322ba22a9ce1985fea8d0a7cdd713399757bcb8bb64d",
      "transactionType": "CALL",
      "contractName": null,
      "contractAddress": "0x5eb9cc76c3506942c1c0ead70e877dd5e4f00cb0",
      "function": "buy(address)",
      "arguments": [
        "0xC77f7fed3b5Cc8249aDc428c5F44C9063B9734b4"
      ],
      "transaction": {
        "from": "0xc77f7fed3b5cc8249adc428c5f44c9063b9734b4",
        "to": "0x5eb9cc76c3506942c1c0ead70e877dd5e4f00cb0",
        "gas": "0x156c8",
        "value": "0xde0b6b3a7640000",
        "input": "0xf088d547000000000000000000000000c77f7fed3b5cc8249adc428c5f44c9063b9734b4",
        "nonce": "0x21f",
        "chainId": "0xaa36a7"
      },
      "additionalContracts": [],
      "isFixedGasLimit": false
    }
  ],
  "receipts": [
    {
      "status": "0x1",
      "cumulativeGasUsed": "0xb6264e",
      "logs": [
        {
          "address": "0x5eb9cc76c3506942c1c0ead70e877dd5e4f00cb0",
          "topics": [
            "0xddf252ad1be2c89b69c2b068fc378daa952ba7f163c4a11628f55a4df523b3ef",
            "0x0000000000000000000000000000000000000000000000000000000000000000",
            "0x000000000000000000000000c77f7fed3b5cc8249adc428c5f44c9063b9734b4"
          ],
          "data": "0x0000000000000000000000000000000000000000000000357c4144395cd896f3",
          "blockHash": "0x46fa0ab9c71470a2ea4859247745db3cfae256ae671530cb6d82db5df102eb1b",
          "blockNumber": "0x724db2",
          "transactionHash": "0x8c01865b37c67a073f00322ba22a9ce1985fea8d0a7cdd713399757bcb8bb64d",
          "transactionIndex": "0x68",
          "logIndex": "0xc1",
          "removed": false
        },
        {
          "address": "0x5eb9cc76c3506942c1c0ead70e877dd5e4f00cb0",
          "topics": [
            "0xddf252ad1be2c89b69c2b068fc378daa952ba7f163c4a11628f55a4df523b3ef",
            "0x0000000000000000000000000000000000000000000000000000000000000000",
            "0x000000000000000000000000c77f7fed3b5cc8249adc428c5f44c9063b9734b4"
          ],
          "data": "0x000000000000000000000000000000000000000000000000298880c51a618598",
          "blockHash": "0x46fa0ab9c71470a2ea4859247745db3cfae256ae671530cb6d82db5df102eb1b",
          "blockNumber": "0x724db2",
          "transactionHash": "0x8c01865b37c67a073f00322ba22a9ce1985fea8d0a7cdd713399757bcb8bb64d",
          "transactionIndex": "0x68",
          "logIndex": "0xc2",
          "removed": false
        },
        {
          "address": "0x5eb9cc76c3506942c1c0ead70e877dd5e4f00cb0",
          "topics": [
            "0x4afcb4a87cdbd9974efdb92ee48bc8d7cd0ae4bf217004db3d080cbaee652ca7"
          ],
          "data": "0x000000000000000000000000000000000000000000000000000000006786960c00000000000000000000000000000000000000000000000000039099b7707adc0000000000000000000000000000000000000000000000000de0b6b3a7640000",
          "blockHash": "0x46fa0ab9c71470a2ea4859247745db3cfae256ae671530cb6d82db5df102eb1b",
          "blockNumber": "0x724db2",
          "transactionHash": "0x8c01865b37c67a073f00322ba22a9ce1985fea8d0a7cdd713399757bcb8bb64d",
          "transactionIndex": "0x68",
          "logIndex": "0xc3",
          "removed": false
        }
      ],
      "logsBloom": "0x00000000000000000000000000000000000000000000000000000000000000000000000000000000000000000000000000000000000000004000000000000000000000000000000000000008000000000000000000000000000000000000000000000000020000000000000004000800020000000000000000000010000000000000000000000000000000000000000000000000000000000000010000000000000000000000000000000000000000004000000000000000000000000000020000000002000000800000008000000000000000000000080000000000000020000000000000000000000000000000000000000000000000000000000000000000",
      "type": "0x2",
      "transactionHash": "0x8c01865b37c67a073f00322ba22a9ce1985fea8d0a7cdd713399757bcb8bb64d",
      "transactionIndex": "0x68",
      "blockHash": "0x46fa0ab9c71470a2ea4859247745db3cfae256ae671530cb6d82db5df102eb1b",
      "blockNumber": "0x724db2",
      "gasUsed": "0xf82c",
      "effectiveGasPrice": "0x3fe2a1b68",
      "from": "0xc77f7fed3b5cc8249adc428c5f44c9063b9734b4",
      "to": "0x5eb9cc76c3506942c1c0ead70e877dd5e4f00cb0",
      "contractAddress": null
    }
  ],
  "libraries": [],
  "pending": [],
  "returns": {},
  "timestamp": 1736873486,
  "chain": 11155111,
  "commit": "51a374b"
}