{
  "transactions": [
    {
      "hash": "0x50be9f3880feff69ec235bff21d962e21ce3c18260ba8ef55eee9d9d2733c5a0",
      "transactionType": "CALL",
      "contractName": null,
      "contractAddress": "0x5eb9cc76c3506942c1c0ead70e877dd5e4f00cb0",
      "function": "sell(uint256)",
      "arguments": [
        "989108922945354527174"
      ],
      "transaction": {
        "from": "0xc77f7fed3b5cc8249adc428c5f44c9063b9734b4",
        "to": "0x5eb9cc76c3506942c1c0ead70e877dd5e4f00cb0",
        "gas": "0x16fec",
        "value": "0x0",
        "input": "0xe4849b320000000000000000000000000000000000000000000000359ea4cce52712f1c6",
        "nonce": "0x3c9",
        "chainId": "0xaa36a7"
      },
      "additionalContracts": [],
      "isFixedGasLimit": false
    }
  ],
  "receipts": [
    {
      "status": "0x1",
      "cumulativeGasUsed": "0x8ddaba",
      "logs": [
        {
          "address": "0x5eb9cc76c3506942c1c0ead70e877dd5e4f00cb0",
          "topics": [
            "0xddf252ad1be2c89b69c2b068fc378daa952ba7f163c4a11628f55a4df523b3ef",
            "0x000000000000000000000000c77f7fed3b5cc8249adc428c5f44c9063b9734b4",
            "0x0000000000000000000000000000000000000000000000000000000000000000"
          ],
          "data": "0x0000000000000000000000000000000000000000000000359ea4cce52712f1c6",
          "blockHash": "0xc1cc63639ae944ac00ad5b796fc0afc9c6f4d16c50509e5c881b213c22677e7f",
          "blockNumber": "0x724fca",
          "transactionHash": "0x50be9f3880feff69ec235bff21d962e21ce3c18260ba8ef55eee9d9d2733c5a0",
          "transactionIndex": "0x5c",
          "logIndex": "0x87",
          "removed": false
        },
        {
          "address": "0x5eb9cc76c3506942c1c0ead70e877dd5e4f00cb0",
          "topics": [
            "0x4afcb4a87cdbd9974efdb92ee48bc8d7cd0ae4bf217004db3d080cbaee652ca7"
          ],
          "data": "0x000000000000000000000000000000000000000000000000000000006786af44000000000000000000000000000000000000000000000000000391135d06b3a50000000000000000000000000000000000000000000000000dc7db1331f75354",
          "blockHash": "0xc1cc63639ae944ac00ad5b796fc0afc9c6f4d16c50509e5c881b213c22677e7f",
          "blockNumber": "0x724fca",
          "transactionHash": "0x50be9f3880feff69ec235bff21d962e21ce3c18260ba8ef55eee9d9d2733c5a0",
          "transactionIndex": "0x5c",
          "logIndex": "0x88",
          "removed": false
        }
      ],
      "logsBloom": "0x00000000000000000000000000000000000000000000000000000000000000000000000000000000000000000000000000000000000000004000000000000000000000000000000000000008000000000000000000000000000000000000000000000000020000000000000004000800020000000000000000000010000000000000000000000000000000000000000000000000000000000000010000000000000000000000000000000000000000004000000000000000000000000000020000000002000000800000008000000000000000000000080000000000000020000000000000000000000000000000000000000000000000000000000000000000",
      "type": "0x2",
      "transactionHash": "0x50be9f3880feff69ec235bff21d962e21ce3c18260ba8ef55eee9d9d2733c5a0",
      "transactionIndex": "0x5c",
      "blockHash": "0xc1cc63639ae944ac00ad5b796fc0afc9c6f4d16c50509e5c881b213c22677e7f",
      "blockNumber": "0x724fca",
      "gasUsed": "0xfb93",
      "effectiveGasPrice": "0x3c20c26ac",
      "from": "0xc77f7fed3b5cc8249adc428c5f44c9063b9734b4",
      "to": "0x5eb9cc76c3506942c1c0ead70e877dd5e4f00cb0",
      "contractAddress": null
    }
  ],
  "libraries": [],
  "pending": [],
  "returns": {},
  "timestamp": 1736879942,
  "chain": 11155111,
  "commit": "51a374b"
}