{
  "transactions": [
    {
      "hash": "0xd5ecaf68579a6f9ab96fd23d4ef970799fb49935077579459820df422ddcb3f5",
      "transactionType": "CALL",
      "contractName": null,
      "contractAddress": "0x8aafd3ede9adb0ff97c7aebce82a919afb1c8764",
      "function": "sell(uint256)",
      "arguments": [
        "6408908873"
      ],
      "transaction": {
        "from": "0xc77f7fed3b5cc8249adc428c5f44c9063b9734b4",
        "to": "0x8aafd3ede9adb0ff97c7aebce82a919afb1c8764",
        "gas": "0x15d88",
        "value": "0x0",
        "input": "0xe4849b32000000000000000000000000000000000000000000000000000000017e003049",
        "nonce": "0x155e",
        "chainId": "0xaa36a7"
      },
      "additionalContracts": [],
      "isFixedGasLimit": false
    }
  ],
  "receipts": [
    {
      "status": "0x1",
      "cumulativeGasUsed": "0x6086dd",
      "logs": [
        {
          "address": "0x8aafd3ede9adb0ff97c7aebce82a919afb1c8764",
          "topics": [
            "0xddf252ad1be2c89b69c2b068fc378daa952ba7f163c4a11628f55a4df523b3ef",
            "0x000000000000000000000000c77f7fed3b5cc8249adc428c5f44c9063b9734b4",
            "0x0000000000000000000000000000000000000000000000000000000000000000"
          ],
          "data": "0x000000000000000000000000000000000000000000000000000000017af1d9e3",
          "blockHash": "0x4b55ad9d654f9f419e7869e1a7893abddbb3ca52c00cbec5e859c06041e7454b",
          "blockNumber": "0x731cc6",
          "transactionHash": "0xd5ecaf68579a6f9ab96fd23d4ef970799fb49935077579459820df422ddcb3f5",
          "transactionIndex": "0x43",
          "logIndex": "0x7b",
          "removed": false
        },
        {
          "address": "0x8aafd3ede9adb0ff97c7aebce82a919afb1c8764",
          "topics": [
            "0xddf252ad1be2c89b69c2b068fc378daa952ba7f163c4a11628f55a4df523b3ef",
            "0x000000000000000000000000c77f7fed3b5cc8249adc428c5f44c9063b9734b4",
            "0x000000000000000000000000c77f7fed3b5cc8249adc428c5f44c9063b9734b4"
          ],
          "data": "0x00000000000000000000000000000000000000000000000000000000030e5666",
          "blockHash": "0x4b55ad9d654f9f419e7869e1a7893abddbb3ca52c00cbec5e859c06041e7454b",
          "blockNumber": "0x731cc6",
          "transactionHash": "0xd5ecaf68579a6f9ab96fd23d4ef970799fb49935077579459820df422ddcb3f5",
          "transactionIndex": "0x43",
          "logIndex": "0x7c",
          "removed": false
        },
        {
          "address": "0x8aafd3ede9adb0ff97c7aebce82a919afb1c8764",
          "topics": [
            "0x4afcb4a87cdbd9974efdb92ee48bc8d7cd0ae4bf217004db3d080cbaee652ca7"
          ],
          "data": "0x00000000000000000000000000000000000000000000000000000000679056300000000000000000000000000000000000000000000000000012243b000e04640000000000000000000000000000000000000000000000000000000001f35d56",
          "blockHash": "0x4b55ad9d654f9f419e7869e1a7893abddbb3ca52c00cbec5e859c06041e7454b",
          "blockNumber": "0x731cc6",
          "transactionHash": "0xd5ecaf68579a6f9ab96fd23d4ef970799fb49935077579459820df422ddcb3f5",
          "transactionIndex": "0x43",
          "logIndex": "0x7d",
          "removed": false
        }
      ],
      "logsBloom": "0x00000000000000000000000000000000000000000600000000000000000000000000000000000000000000000000000000000000000000004000000000000000000000000000004000000008000000000000000000000000000000000000000000000000020000000000000000000800020000000000000000000010000000000000000000000000000000000000000000000000000000000000010000000000000000000000000000000000000000004000000000000000000000000000000000000002000000800000000000000000000000000000080000000000000020000000000000000000000000000000000000000000000000000000000000000000",
      "type": "0x2",
      "transactionHash": "0xd5ecaf68579a6f9ab96fd23d4ef970799fb49935077579459820df422ddcb3f5",
      "transactionIndex": "0x43",
      "blockHash": "0x4b55ad9d654f9f419e7869e1a7893abddbb3ca52c00cbec5e859c06041e7454b",
      "blockNumber": "0x731cc6",
      "gasUsed": "0xfd0f",
      "effectiveGasPrice": "0xab7efea6",
      "from": "0xc77f7fed3b5cc8249adc428c5f44c9063b9734b4",
      "to": "0x8aafd3ede9adb0ff97c7aebce82a919afb1c8764",
      "contractAddress": null
    }
  ],
  "libraries": [],
  "pending": [],
  "returns": {},
  "timestamp": 1737512497,
  "chain": 11155111,
  "commit": "1d2fb70"
}