{
  "transactions": [
    {
      "hash": "0xe12142f4cba1f3430f490ea3c4edfba2ac676ec17546f568d90174f9813dce52",
      "transactionType": "CALL",
      "contractName": null,
      "contractAddress": "0x8aafd3ede9adb0ff97c7aebce82a919afb1c8764",
      "function": "buy(address)",
      "arguments": [
        "0xC77f7fed3b5Cc8249aDc428c5F44C9063B9734b4"
      ],
      "transaction": {
        "from": "0xc77f7fed3b5cc8249adc428c5f44c9063b9734b4",
        "to": "0x8aafd3ede9adb0ff97c7aebce82a919afb1c8764",
        "gas": "0x156ea",
        "value": "0xde0b6b3a7640000",
        "input": "0xf088d547000000000000000000000000c77f7fed3b5cc8249adc428c5f44c9063b9734b4",
        "nonce": "0x1068",
        "chainId": "0xaa36a7"
      },
      "additionalContracts": [],
      "isFixedGasLimit": false
    }
  ],
  "receipts": [
    {
      "status": "0x1",
      "cumulativeGasUsed": "0xb262ee",
      "logs": [
        {
          "address": "0x8aafd3ede9adb0ff97c7aebce82a919afb1c8764",
          "topics": [
            "0xddf252ad1be2c89b69c2b068fc378daa952ba7f163c4a11628f55a4df523b3ef",
            "0x0000000000000000000000000000000000000000000000000000000000000000",
            "0x000000000000000000000000c77f7fed3b5cc8249adc428c5f44c9063b9734b4"
          ],
          "data": "0x00000000000000000000000000000000000000000000002677630838aed5c098",
          "blockHash": "0x0af2c03f9e126702cdc5d263a405a8926186f3c8b6ce559ed97412f3898e6851",
          "blockNumber": "0x7316ee",
          "transactionHash": "0xe12142f4cba1f3430f490ea3c4edfba2ac676ec17546f568d90174f9813dce52",
          "transactionIndex": "0x77",
          "logIndex": "0xc5",
          "removed": false
        },
        {
          "address": "0x8aafd3ede9adb0ff97c7aebce82a919afb1c8764",
          "topics": [
            "0xddf252ad1be2c89b69c2b068fc378daa952ba7f163c4a11628f55a4df523b3ef",
            "0x0000000000000000000000000000000000000000000000000000000000000000",
            "0x000000000000000000000000c77f7fed3b5cc8249adc428c5f44c9063b9734b4"
          ],
          "data": "0x0000000000000000000000000000000000000000000000001dded4ef60212379",
          "blockHash": "0x0af2c03f9e126702cdc5d263a405a8926186f3c8b6ce559ed97412f3898e6851",
          "blockNumber": "0x7316ee",
          "transactionHash": "0xe12142f4cba1f3430f490ea3c4edfba2ac676ec17546f568d90174f9813dce52",
          "transactionIndex": "0x77",
          "logIndex": "0xc6",
          "removed": false
        },
        {
          "address": "0x8aafd3ede9adb0ff97c7aebce82a919afb1c8764",
          "topics": [
            "0x4afcb4a87cdbd9974efdb92ee48bc8d7cd0ae4bf217004db3d080cbaee652ca7"
          ],
          "data": "0x0000000000000000000000000000000000000000000000000000000067900fe00000000000000000000000000000000000000000000000000004f5548f8544b30000000000000000000000000000000000000000000000000de0b6b3a7640000",
          "blockHash": "0x0af2c03f9e126702cdc5d263a405a8926186f3c8b6ce559ed97412f3898e6851",
          "blockNumber": "0x7316ee",
          "transactionHash": "0xe12142f4cba1f3430f490ea3c4edfba2ac676ec17546f568d90174f9813dce52",
          "transactionIndex": "0x77",
          "logIndex": "0xc7",
          "removed": false
        }
      ],
      "logsBloom": "0x00000000000000000000000000000000000000000600000000000000000000000000000000000000000000000000000000000000000000004000000000000000000000000000004000000008000000000000000000000000000000000000000000000000020000000000000000000800020000000000000000000010000000000000000000000000000000000000000000000000000000000000010000000000000000000000000000000000000000004000000000000000000000000000000000000002000000800000000000000000000000000000080000000000000020000000000000000000000000000000000000000000000000000000000000000000",
      "type": "0x2",
      "transactionHash": "0xe12142f4cba1f3430f490ea3c4edfba2ac676ec17546f568d90174f9813dce52",
      "transactionIndex": "0x77",
      "blockHash": "0x0af2c03f9e126702cdc5d263a405a8926186f3c8b6ce559ed97412f3898e6851",
      "blockNumber": "0x7316ee",
      "gasUsed": "0xf844",
      "effectiveGasPrice": "0x461e57e4",
      "from": "0xc77f7fed3b5cc8249adc428c5f44c9063b9734b4",
      "to": "0x8aafd3ede9adb0ff97c7aebce82a919afb1c8764",
      "contractAddress": null
    }
  ],
  "libraries": [],
  "pending": [],
  "returns": {},
  "timestamp": 1737494497,
  "chain": 11155111,
  "commit": "1d2fb70"
}