{
  "transactions": [
    {
      "hash": "0x084886cbcd192e85fb775e32ebe97c0238ff2b9d1b241cac4d4875063db01a6c",
      "transactionType": "CALL",
      "contractName": null,
      "contractAddress": "0x270e88f8683660553e8ba4eb2ad7c91a1710d769",
      "function": "sell(uint256)",
      "arguments": [
        "993000934251056646766"
      ],
      "transaction": {
        "from": "0xc77f7fed3b5cc8249adc428c5f44c9063b9734b4",
        "to": "0x270e88f8683660553e8ba4eb2ad7c91a1710d769",
        "gas": "0x15b6b",
        "value": "0x0",
        "input": "0xe4849b32000000000000000000000000000000000000000000000035d4a8008e9140ca6e",
        "nonce": "0x4d5",
        "chainId": "0xaa36a7"
      },
      "additionalContracts": [],
      "isFixedGasLimit": false
    }
  ],
  "receipts": [
    {
      "status": "0x1",
      "cumulativeGasUsed": "0x97a6d1",
      "logs": [
        {
          "address": "0x270e88f8683660553e8ba4eb2ad7c91a1710d769",
          "topics": [
            "0xddf252ad1be2c89b69c2b068fc378daa952ba7f163c4a11628f55a4df523b3ef",
            "0x000000000000000000000000c77f7fed3b5cc8249adc428c5f44c9063b9734b4",
            "0x0000000000000000000000000000000000000000000000000000000000000000"
          ],
          "data": "0x000000000000000000000000000000000000000000000035d4a8008e9140ca6e",
          "blockHash": "0xe518529d8f3ac82576fc4b98adf7128acd8bae16e73e7ab4a4a48a39c8ca8a2d",
          "blockNumber": "0x725156",
          "transactionHash": "0x084886cbcd192e85fb775e32ebe97c0238ff2b9d1b241cac4d4875063db01a6c",
          "transactionIndex": "0x44",
          "logIndex": "0xc8",
          "removed": false
        },
        {
          "address": "0x270e88f8683660553e8ba4eb2ad7c91a1710d769",
          "topics": [
            "0x4afcb4a87cdbd9974efdb92ee48bc8d7cd0ae4bf217004db3d080cbaee652ca7"
          ],
          "data": "0x000000000000000000000000000000000000000000000000000000006786c1ec00000000000000000000000000000000000000000000000000038dca02d78bfc0000000000000000000000000000000000000000000000000dc8429344b2807e",
          "blockHash": "0xe518529d8f3ac82576fc4b98adf7128acd8bae16e73e7ab4a4a48a39c8ca8a2d",
          "blockNumber": "0x725156",
          "transactionHash": "0x084886cbcd192e85fb775e32ebe97c0238ff2b9d1b241cac4d4875063db01a6c",
          "transactionIndex": "0x44",
          "logIndex": "0xc9",
          "removed": false
        }
      ],
      "logsBloom": "0x00000000000000000000000000000000000000000000000000000000000000000000000000000000000000000000000020000000000000004000000000000000000000000000000000000008000000000000000000000000000000000000000000000000020000000000000000000800020000000000000000000010000000000000000000010000000000000000000000000000000000000000010000000000000000000000000000000000000000004000000000000000000000000000000000000002000000800000000000000000000000000000080000008000000020000000000000000000000000000000000000000000000000000000000000000000",
      "type": "0x2",
      "transactionHash": "0x084886cbcd192e85fb775e32ebe97c0238ff2b9d1b241cac4d4875063db01a6c",
      "transactionIndex": "0x44",
      "blockHash": "0xe518529d8f3ac82576fc4b98adf7128acd8bae16e73e7ab4a4a48a39c8ca8a2d",
      "blockNumber": "0x725156",
      "gasUsed": "0xfb87",
      "effectiveGasPrice": "0x3b924228d",
      "from": "0xc77f7fed3b5cc8249adc428c5f44c9063b9734b4",
      "to": "0x270e88f8683660553e8ba4eb2ad7c91a1710d769",
      "contractAddress": null
    }
  ],
  "libraries": [],
  "pending": [],
  "returns": {},
  "timestamp": 1736884717,
  "chain": 11155111,
  "commit": "51a374b"
}