{
  "transactions": [
    {
      "hash": "0x1ecbff8882db63366cd692eadd62d5b998841c4db19e1b5b19d5ec2bb9a7cff5",
      "transactionType": "CALL",
      "contractName": null,
      "contractAddress": "0x8aafd3ede9adb0ff97c7aebce82a919afb1c8764",
      "function": "sell(uint256)",
      "arguments": [
        "22448315446"
      ],
      "transaction": {
        "from": "0xc77f7fed3b5cc8249adc428c5f44c9063b9734b4",
        "to": "0x8aafd3ede9adb0ff97c7aebce82a919afb1c8764",
        "gas": "0x1722a",
        "value": "0x0",
        "input": "0xe4849b32000000000000000000000000000000000000000000000000000000053a061c36",
        "nonce": "0x11c2",
        "chainId": "0xaa36a7"
      },
      "additionalContracts": [],
      "isFixedGasLimit": false
    }
  ],
  "receipts": [
    {
      "status": "0x1",
      "cumulativeGasUsed": "0xb08bdd",
      "logs": [
        {
          "address": "0x8aafd3ede9adb0ff97c7aebce82a919afb1c8764",
          "topics": [
            "0xddf252ad1be2c89b69c2b068fc378daa952ba7f163c4a11628f55a4df523b3ef",
            "0x000000000000000000000000c77f7fed3b5cc8249adc428c5f44c9063b9734b4",
            "0x0000000000000000000000000000000000000000000000000000000000000000"
          ],
          "data": "0x000000000000000000000000000000000000000000000000000000052f51d65b",
          "blockHash": "0xd20e33d676428c37bc51bda9f71c893e913a058984a8131b8cfb2d7755479c11",
          "blockNumber": "0x731892",
          "transactionHash": "0x1ecbff8882db63366cd692eadd62d5b998841c4db19e1b5b19d5ec2bb9a7cff5",
          "transactionIndex": "0x85",
          "logIndex": "0x95",
          "removed": false
        },
        {
          "address": "0x8aafd3ede9adb0ff97c7aebce82a919afb1c8764",
          "topics": [
            "0xddf252ad1be2c89b69c2b068fc378daa952ba7f163c4a11628f55a4df523b3ef",
            "0x000000000000000000000000c77f7fed3b5cc8249adc428c5f44c9063b9734b4",
            "0x000000000000000000000000c77f7fed3b5cc8249adc428c5f44c9063b9734b4"
          ],
          "data": "0x000000000000000000000000000000000000000000000000000000000ab445db",
          "blockHash": "0xd20e33d676428c37bc51bda9f71c893e913a058984a8131b8cfb2d7755479c11",
          "blockNumber": "0x731892",
          "transactionHash": "0x1ecbff8882db63366cd692eadd62d5b998841c4db19e1b5b19d5ec2bb9a7cff5",
          "transactionIndex": "0x85",
          "logIndex": "0x96",
          "removed": false
        },
        {
          "address": "0x8aafd3ede9adb0ff97c7aebce82a919afb1c8764",
          "topics": [
            "0x4afcb4a87cdbd9974efdb92ee48bc8d7cd0ae4bf217004db3d080cbaee652ca7"
          ],
          "data": "0x00000000000000000000000000000000000000000000000000000000679023a8000000000000000000000000000000000000000000000000000527c2d0b8672a0000000000000000000000000000000000000000000000000000000001f10c77",
          "blockHash": "0xd20e33d676428c37bc51bda9f71c893e913a058984a8131b8cfb2d7755479c11",
          "blockNumber": "0x731892",
          "transactionHash": "0x1ecbff8882db63366cd692eadd62d5b998841c4db19e1b5b19d5ec2bb9a7cff5",
          "transactionIndex": "0x85",
          "logIndex": "0x97",
          "removed": false
        }
      ],
      "logsBloom": "0x00000000000000000000000000000000000000000600000000000000000000000000000000000000000000000000000000000000000000004000000000000000000000000000004000000008000000000000000000000000000000000000000000000000020000000000000000000800020000000000000000000010000000000000000000000000000000000000000000000000000000000000010000000000000000000000000000000000000000004000000000000000000000000000000000000002000000800000000000000000000000000000080000000000000020000000000000000000000000000000000000000000000000000000000000000000",
      "type": "0x2",
      "transactionHash": "0x1ecbff8882db63366cd692eadd62d5b998841c4db19e1b5b19d5ec2bb9a7cff5",
      "transactionIndex": "0x85",
      "blockHash": "0xd20e33d676428c37bc51bda9f71c893e913a058984a8131b8cfb2d7755479c11",
      "blockNumber": "0x731892",
      "gasUsed": "0xfd1b",
      "effectiveGasPrice": "0x43f5e9a5",
      "from": "0xc77f7fed3b5cc8249adc428c5f44c9063b9734b4",
      "to": "0x8aafd3ede9adb0ff97c7aebce82a919afb1c8764",
      "contractAddress": null
    }
  ],
  "libraries": [],
  "pending": [],
  "returns": {},
  "timestamp": 1737499562,
  "chain": 11155111,
  "commit": "1d2fb70"
}