{
  "transactions": [
    {
      "hash": "0xce04f64c14b9428c1d627ff2ab26d97d0ecbddc7a0ba021f5e2a06a9742fdd9b",
      "transactionType": "CALL",
      "contractName": null,
      "contractAddress": "0x270e88f8683660553e8ba4eb2ad7c91a1710d769",
      "function": "buy(address)",
      "arguments": [
        "0xC77f7fed3b5Cc8249aDc428c5F44C9063B9734b4"
      ],
      "transaction": {
        "from": "0xc77f7fed3b5cc8249adc428c5f44c9063b9734b4",
        "to": "0x270e88f8683660553e8ba4eb2ad7c91a1710d769",
        "gas": "0x1b30c",
        "value": "0xde0b6b3a7640000",
        "input": "0xf088d547000000000000000000000000c77f7fed3b5cc8249adc428c5f44c9063b9734b4",
        "nonce": "0x81f",
        "chainId": "0xaa36a7"
      },
      "additionalContracts": [],
      "isFixedGasLimit": false
    }
  ],
  "receipts": [
    {
      "status": "0x1",
      "cumulativeGasUsed": "0x7dbf7f",
      "logs": [
        {
          "address": "0x270e88f8683660553e8ba4eb2ad7c91a1710d769",
          "topics": [
            "0xddf252ad1be2c89b69c2b068fc378daa952ba7f163c4a11628f55a4df523b3ef",
            "0x0000000000000000000000000000000000000000000000000000000000000000",
            "0x000000000000000000000000c77f7fed3b5cc8249adc428c5f44c9063b9734b4"
          ],
          "data": "0x000000000000000000000000000000000000000000000026ece40032848e4162",
          "blockHash": "0x93aa63a19bb4f6dec9143fd545fc3db41fa308bc34dbdecbe99956efa04497a1",
          "blockNumber": "0x725565",
          "transactionHash": "0xce04f64c14b9428c1d627ff2ab26d97d0ecbddc7a0ba021f5e2a06a9742fdd9b",
          "transactionIndex": "0x34",
          "logIndex": "0xa0",
          "removed": false
        },
        {
          "address": "0x270e88f8683660553e8ba4eb2ad7c91a1710d769",
          "topics": [
            "0xddf252ad1be2c89b69c2b068fc378daa952ba7f163c4a11628f55a4df523b3ef",
            "0x0000000000000000000000000000000000000000000000000000000000000000",
            "0x000000000000000000000000c77f7fed3b5cc8249adc428c5f44c9063b9734b4"
          ],
          "data": "0x0000000000000000000000000000000000000000000000001e3a13d551d25a1a",
          "blockHash": "0x93aa63a19bb4f6dec9143fd545fc3db41fa308bc34dbdecbe99956efa04497a1",
          "blockNumber": "0x725565",
          "transactionHash": "0xce04f64c14b9428c1d627ff2ab26d97d0ecbddc7a0ba021f5e2a06a9742fdd9b",
          "transactionIndex": "0x34",
          "logIndex": "0xa1",
          "removed": false
        },
        {
          "address": "0x270e88f8683660553e8ba4eb2ad7c91a1710d769",
          "topics": [
            "0x4afcb4a87cdbd9974efdb92ee48bc8d7cd0ae4bf217004db3d080cbaee652ca7"
          ],
          "data": "0x000000000000000000000000000000000000000000000000000000006786f2c40000000000000000000000000000000000000000000000000004e61023d37c8d0000000000000000000000000000000000000000000000000de0b6b3a7640000",
          "blockHash": "0x93aa63a19bb4f6dec9143fd545fc3db41fa308bc34dbdecbe99956efa04497a1",
          "blockNumber": "0x725565",
          "transactionHash": "0xce04f64c14b9428c1d627ff2ab26d97d0ecbddc7a0ba021f5e2a06a9742fdd9b",
          "transactionIndex": "0x34",
          "logIndex": "0xa2",
          "removed": false
        }
      ],
      "logsBloom": "0x00000000000000000000000000000000000000000000000000000000000000000000000000000000000000000000000020000000000000004000000000000000000000000000000000000008000000000000000000000000000000000000000000000000020000000000000000000800020000000000000000000010000000000000000000010000000000000000000000000000000000000000010000000000000000000000000000000000000000004000000000000000000000000000000000000002000000800000000000000000000000000000080000008000000020000000000000000000000000000000000000000000000000000000000000000000",
      "type": "0x2",
      "transactionHash": "0xce04f64c14b9428c1d627ff2ab26d97d0ecbddc7a0ba021f5e2a06a9742fdd9b",
      "transactionIndex": "0x34",
      "blockHash": "0x93aa63a19bb4f6dec9143fd545fc3db41fa308bc34dbdecbe99956efa04497a1",
      "blockNumber": "0x725565",
      "gasUsed": "0x13af8",
      "effectiveGasPrice": "0x8e29c90a",
      "from": "0xc77f7fed3b5cc8249adc428c5f44c9063b9734b4",
      "to": "0x270e88f8683660553e8ba4eb2ad7c91a1710d769",
      "contractAddress": null
    }
  ],
  "libraries": [],
  "pending": [],
  "returns": {},
  "timestamp": 1736897221,
  "chain": 11155111,
  "commit": "51a374b"
}