{
  "transactions": [
    {
      "hash": "0x48427d15bc79cde393d335aa9a7f106b429074411c2c99afea54ec4eb026358a",
      "transactionType": "CALL",
      "contractName": null,
      "contractAddress": "0xbf4a322f1496e5c3d34a9bcdb4c60567b38c7de2",
      "function": "sell(uint256)",
      "arguments": [
        "977388080883601515940"
      ],
      "transaction": {
        "from": "0xc77f7fed3b5cc8249adc428c5f44c9063b9734b4",
        "to": "0xbf4a322f1496e5c3d34a9bcdb4c60567b38c7de2",
        "gas": "0x16fea",
        "value": "0x0",
        "input": "0xe4849b32000000000000000000000000000000000000000000000034fbfc0123bfd425a4",
        "nonce": "0xcdb",
        "chainId": "0xaa36a7"
      },
      "additionalContracts": [],
      "isFixedGasLimit": false
    }
  ],
  "receipts": [
    {
      "status": "0x1",
      "cumulativeGasUsed": "0x3adfed",
      "logs": [
        {
          "address": "0xbf4a322f1496e5c3d34a9bcdb4c60567b38c7de2",
          "topics": [
            "0xddf252ad1be2c89b69c2b068fc378daa952ba7f163c4a11628f55a4df523b3ef",
            "0x000000000000000000000000c77f7fed3b5cc8249adc428c5f44c9063b9734b4",
            "0x0000000000000000000000000000000000000000000000000000000000000000"
          ],
          "data": "0x000000000000000000000000000000000000000000000034fbfc0123bfd425a4",
          "blockHash": "0x46ab1122e6d5ead602c055e50e639f4581f3b2bfa8c8614f61f95963c2c9d0f8",
          "blockNumber": "0x725d2c",
          "transactionHash": "0x48427d15bc79cde393d335aa9a7f106b429074411c2c99afea54ec4eb026358a",
          "transactionIndex": "0x2d",
          "logIndex": "0x33",
          "removed": false
        },
        {
          "address": "0xbf4a322f1496e5c3d34a9bcdb4c60567b38c7de2",
          "topics": [
            "0x4afcb4a87cdbd9974efdb92ee48bc8d7cd0ae4bf217004db3d080cbaee652ca7"
          ],
          "data": "0x000000000000000000000000000000000000000000000000000000006787508400000000000000000000000000000000000000000000000000039c0cd9dd02160000000000000000000000000000000000000000000000000dc7e3dbfe562b91",
          "blockHash": "0x46ab1122e6d5ead602c055e50e639f4581f3b2bfa8c8614f61f95963c2c9d0f8",
          "blockNumber": "0x725d2c",
          "transactionHash": "0x48427d15bc79cde393d335aa9a7f106b429074411c2c99afea54ec4eb026358a",
          "transactionIndex": "0x2d",
          "logIndex": "0x34",
          "removed": false
        }
      ],
      "logsBloom": "0x00000000000000000000000000000000000000000000000000000000000000000000000000000000000000000000000000000000000000004000000000000000000000000000000000000008000000000000001000000000000000000000000000000000020000000000000000000800020000000000000000000010000000000000000000000000000000000000000000000000000008000000010000000000000000000000000000000000000000004000000000000000000000000000000000000002000000800000000000001000000000000000080000000000000020000000000000000000000000000000000000000000000000000000000000000000",
      "type": "0x2",
      "transactionHash": "0x48427d15bc79cde393d335aa9a7f106b429074411c2c99afea54ec4eb026358a",
      "transactionIndex": "0x2d",
      "blockHash": "0x46ab1122e6d5ead602c055e50e639f4581f3b2bfa8c8614f61f95963c2c9d0f8",
      "blockNumber": "0x725d2c",
      "gasUsed": "0xfb91",
      "effectiveGasPrice": "0x5d95a3426",
      "from": "0xc77f7fed3b5cc8249adc428c5f44c9063b9734b4",
      "to": "0xbf4a322f1496e5c3d34a9bcdb4c60567b38c7de2",
      "contractAddress": null
    }
  ],
  "libraries": [],
  "pending": [],
  "returns": {},
  "timestamp": 1736921221,
  "chain": 11155111,
  "commit": "51a374b"
}