{
  "transactions": [
    {
      "hash": "0x2536374632bde730636efb49bfc169c09d9d864dcdc4b7144fc593f565c6616f",
      "transactionType": "CALL",
      "contractName": null,
      "contractAddress": "0x270e88f8683660553e8ba4eb2ad7c91a1710d769",
      "function": "buy(address)",
      "arguments": [
        "0xC77f7fed3b5Cc8249aDc428c5F44C9063B9734b4"
      ],
      "transaction": {
        "from": "0xc77f7fed3b5cc8249adc428c5f44c9063b9734b4",
        "to": "0x270e88f8683660553e8ba4eb2ad7c91a1710d769",
        "gas": "0x1b30c",
        "value": "0xde0b6b3a7640000",
        "input": "0xf088d547000000000000000000000000c77f7fed3b5cc8249adc428c5f44c9063b9734b4",
        "nonce": "0x6c7",
        "chainId": "0xaa36a7"
      },
      "additionalContracts": [],
      "isFixedGasLimit": false
    }
  ],
  "receipts": [
    {
      "status": "0x1",
      "cumulativeGasUsed": "0x52e9e5",
      "logs": [
        {
          "address": "0x270e88f8683660553e8ba4eb2ad7c91a1710d769",
          "topics": [
            "0xddf252ad1be2c89b69c2b068fc378daa952ba7f163c4a11628f55a4df523b3ef",
            "0x0000000000000000000000000000000000000000000000000000000000000000",
            "0x000000000000000000000000c77f7fed3b5cc8249adc428c5f44c9063b9734b4"
          ],
          "data": "0x0000000000000000000000000000000000000000000000288e10a89dd26ef6d7",
          "blockHash": "0x92203cbe59968e1602854a7cf0c7be8e7dc327a945487d3e99615585192e6ec5",
          "blockNumber": "0x7253d5",
          "transactionHash": "0x2536374632bde730636efb49bfc169c09d9d864dcdc4b7144fc593f565c6616f",
          "transactionIndex": "0x36",
          "logIndex": "0x5b",
          "removed": false
        },
        {
          "address": "0x270e88f8683660553e8ba4eb2ad7c91a1710d769",
          "topics": [
            "0xddf252ad1be2c89b69c2b068fc378daa952ba7f163c4a11628f55a4df523b3ef",
            "0x0000000000000000000000000000000000000000000000000000000000000000",
            "0x000000000000000000000000c77f7fed3b5cc8249adc428c5f44c9063b9734b4"
          ],
          "data": "0x0000000000000000000000000000000000000000000000001f7e0714b914a892",
          "blockHash": "0x92203cbe59968e1602854a7cf0c7be8e7dc327a945487d3e99615585192e6ec5",
          "blockNumber": "0x7253d5",
          "transactionHash": "0x2536374632bde730636efb49bfc169c09d9d864dcdc4b7144fc593f565c6616f",
          "transactionIndex": "0x36",
          "logIndex": "0x5c",
          "removed": false
        },
        {
          "address": "0x270e88f8683660553e8ba4eb2ad7c91a1710d769",
          "topics": [
            "0x4afcb4a87cdbd9974efdb92ee48bc8d7cd0ae4bf217004db3d080cbaee652ca7"
          ],
          "data": "0x000000000000000000000000000000000000000000000000000000006786e0040000000000000000000000000000000000000000000000000004b3ad193737420000000000000000000000000000000000000000000000000de0b6b3a7640000",
          "blockHash": "0x92203cbe59968e1602854a7cf0c7be8e7dc327a945487d3e99615585192e6ec5",
          "blockNumber": "0x7253d5",
          "transactionHash": "0x2536374632bde730636efb49bfc169c09d9d864dcdc4b7144fc593f565c6616f",
          "transactionIndex": "0x36",
          "logIndex": "0x5d",
          "removed": false
        }
      ],
      "logsBloom": "0x00000000000000000000000000000000000000000000000000000000000000000000000000000000000000000000000020000000000000004000000000000000000000000000000000000008000000000000000000000000000000000000000000000000020000000000000000000800020000000000000000000010000000000000000000010000000000000000000000000000000000000000010000000000000000000000000000000000000000004000000000000000000000000000000000000002000000800000000000000000000000000000080000008000000020000000000000000000000000000000000000000000000000000000000000000000",
      "type": "0x2",
      "transactionHash": "0x2536374632bde730636efb49bfc169c09d9d864dcdc4b7144fc593f565c6616f",
      "transactionIndex": "0x36",
      "blockHash": "0x92203cbe59968e1602854a7cf0c7be8e7dc327a945487d3e99615585192e6ec5",
      "blockNumber": "0x7253d5",
      "gasUsed": "0x13af8",
      "effectiveGasPrice": "0x177fc49ec",
      "from": "0xc77f7fed3b5cc8249adc428c5f44c9063b9734b4",
      "to": "0x270e88f8683660553e8ba4eb2ad7c91a1710d769",
      "contractAddress": null
    }
  ],
  "libraries": [],
  "pending": [],
  "returns": {},
  "timestamp": 1736892421,
  "chain": 11155111,
  "commit": "51a374b"
}