{
  "transactions": [
    {
      "hash": "0x61f65155c88376aba7b6568bbe10517d900db060c5e2bd65facfde43a7eb45f2",
      "transactionType": "CALL",
      "contractName": null,
      "contractAddress": "0x8aafd3ede9adb0ff97c7aebce82a919afb1c8764",
      "function": "sell(uint256)",
      "arguments": [
        "1196568637494604628"
      ],
      "transaction": {
        "from": "0xc77f7fed3b5cc8249adc428c5f44c9063b9734b4",
        "to": "0x8aafd3ede9adb0ff97c7aebce82a919afb1c8764",
        "gas": "0x15dca",
        "value": "0x0",
        "input": "0xe4849b32000000000000000000000000000000000000000000000000109b10d60b3d3354",
        "nonce": "0x1737",
        "chainId": "0xaa36a7"
      },
      "additionalContracts": [],
      "isFixedGasLimit": false
    }
  ],
  "receipts": [
    {
      "status": "0x1",
      "cumulativeGasUsed": "0x86087e",
      "logs": [
        {
          "address": "0x8aafd3ede9adb0ff97c7aebce82a919afb1c8764",
          "topics": [
            "0xddf252ad1be2c89b69c2b068fc378daa952ba7f163c4a11628f55a4df523b3ef",
            "0x000000000000000000000000c77f7fed3b5cc8249adc428c5f44c9063b9734b4",
            "0x0000000000000000000000000000000000000000000000000000000000000000"
          ],
          "data": "0x00000000000000000000000000000000000000000000000010790ea7468a88ef",
          "blockHash": "0x4aabaa5618facd52a6ed193391e763cee1b9722fb9e02bfc5c54dfa932be93a0",
          "blockNumber": "0x731f02",
          "transactionHash": "0x61f65155c88376aba7b6568bbe10517d900db060c5e2bd65facfde43a7eb45f2",
          "transactionIndex": "0x60",
          "logIndex": "0x85",
          "removed": false
        },
        {
          "address": "0x8aafd3ede9adb0ff97c7aebce82a919afb1c8764",
          "topics": [
            "0xddf252ad1be2c89b69c2b068fc378daa952ba7f163c4a11628f55a4df523b3ef",
            "0x000000000000000000000000c77f7fed3b5cc8249adc428c5f44c9063b9734b4",
            "0x000000000000000000000000c77f7fed3b5cc8249adc428c5f44c9063b9734b4"
          ],
          "data": "0x0000000000000000000000000000000000000000000000000022022ec4b2aa65",
          "blockHash": "0x4aabaa5618facd52a6ed193391e763cee1b9722fb9e02bfc5c54dfa932be93a0",
          "blockNumber": "0x731f02",
          "transactionHash": "0x61f65155c88376aba7b6568bbe10517d900db060c5e2bd65facfde43a7eb45f2",
          "transactionIndex": "0x60",
          "logIndex": "0x86",
          "removed": false
        },
        {
          "address": "0x8aafd3ede9adb0ff97c7aebce82a919afb1c8764",
          "topics": [
            "0x4afcb4a87cdbd9974efdb92ee48bc8d7cd0ae4bf217004db3d080cbaee652ca7"
          ],
          "data": "0x00000000000000000000000000000000000000000000000000000000679071000000000000000000000000000000000000000000000000000017b11905165ad4000000000000000000000000000000000000000000000000001c591d49f5260b",
          "blockHash": "0x4aabaa5618facd52a6ed193391e763cee1b9722fb9e02bfc5c54dfa932be93a0",
          "blockNumber": "0x731f02",
          "transactionHash": "0x61f65155c88376aba7b6568bbe10517d900db060c5e2bd65facfde43a7eb45f2",
          "transactionIndex": "0x60",
          "logIndex": "0x87",
          "removed": false
        }
      ],
      "logsBloom": "0x00000000000000000000000000000000000000000600000000000000000000000000000000000000000000000000000000000000000000004000000000000000000000000000004000000008000000000000000000000000000000000000000000000000020000000000000000000800020000000000000000000010000000000000000000000000000000000000000000000000000000000000010000000000000000000000000000000000000000004000000000000000000000000000000000000002000000800000000000000000000000000000080000000000000020000000000000000000000000000000000000000000000000000000000000000000",
      "type": "0x2",
      "transactionHash": "0x61f65155c88376aba7b6568bbe10517d900db060c5e2bd65facfde43a7eb45f2",
      "transactionIndex": "0x60",
      "blockHash": "0x4aabaa5618facd52a6ed193391e763cee1b9722fb9e02bfc5c54dfa932be93a0",
      "blockNumber": "0x731f02",
      "gasUsed": "0xfd3f",
      "effectiveGasPrice": "0x49504996",
      "from": "0xc77f7fed3b5cc8249adc428c5f44c9063b9734b4",
      "to": "0x8aafd3ede9adb0ff97c7aebce82a919afb1c8764",
      "contractAddress": null
    }
  ],
  "libraries": [],
  "pending": [],
  "returns": {},
  "timestamp": 1737519362,
  "chain": 11155111,
  "commit": "1d2fb70"
}