{
  "transactions": [
    {
      "hash": "0x56539b84e34b540b56d9329bbc5eba56c96d78217158e857b0c8a05b32a61f7d",
      "transactionType": "CALL",
      "contractName": null,
      "contractAddress": "0x8aafd3ede9adb0ff97c7aebce82a919afb1c8764",
      "function": "sell(uint256)",
      "arguments": [
        "6299891310"
      ],
      "transaction": {
        "from": "0xc77f7fed3b5cc8249adc428c5f44c9063b9734b4",
        "to": "0x8aafd3ede9adb0ff97c7aebce82a919afb1c8764",
        "gas": "0x1722a",
        "value": "0x0",
        "input": "0xe4849b32000000000000000000000000000000000000000000000000000000017780b66e",
        "nonce": "0x1579",
        "chainId": "0xaa36a7"
      },
      "additionalContracts": [],
      "isFixedGasLimit": false
    }
  ],
  "receipts": [
    {
      "status": "0x1",
      "cumulativeGasUsed": "0xb60bf9",
      "logs": [
        {
          "address": "0x8aafd3ede9adb0ff97c7aebce82a919afb1c8764",
          "topics": [
            "0xddf252ad1be2c89b69c2b068fc378daa952ba7f163c4a11628f55a4df523b3ef",
            "0x000000000000000000000000c77f7fed3b5cc8249adc428c5f44c9063b9734b4",
            "0x0000000000000000000000000000000000000000000000000000000000000000"
          ],
          "data": "0x00000000000000000000000000000000000000000000000000000001747faed4",
          "blockHash": "0xef49149a46b1d8d8689ae60bcd16609f90337d044f307c22f47a98d22bf68efc",
          "blockNumber": "0x731ce3",
          "transactionHash": "0x56539b84e34b540b56d9329bbc5eba56c96d78217158e857b0c8a05b32a61f7d",
          "transactionIndex": "0x9a",
          "logIndex": "0xb0",
          "removed": false
        },
        {
          "address": "0x8aafd3ede9adb0ff97c7aebce82a919afb1c8764",
          "topics": [
            "0xddf252ad1be2c89b69c2b068fc378daa952ba7f163c4a11628f55a4df523b3ef",
            "0x000000000000000000000000c77f7fed3b5cc8249adc428c5f44c9063b9734b4",
            "0x000000000000000000000000c77f7fed3b5cc8249adc428c5f44c9063b9734b4"
          ],
          "data": "0x000000000000000000000000000000000000000000000000000000000301079a",
          "blockHash": "0xef49149a46b1d8d8689ae60bcd16609f90337d044f307c22f47a98d22bf68efc",
          "blockNumber": "0x731ce3",
          "transactionHash": "0x56539b84e34b540b56d9329bbc5eba56c96d78217158e857b0c8a05b32a61f7d",
          "transactionIndex": "0x9a",
          "logIndex": "0xb1",
          "removed": false
        },
        {
          "address": "0x8aafd3ede9adb0ff97c7aebce82a919afb1c8764",
          "topics": [
            "0x4afcb4a87cdbd9974efdb92ee48bc8d7cd0ae4bf217004db3d080cbaee652ca7"
          ],
          "data": "0x000000000000000000000000000000000000000000000000000000006790578c00000000000000000000000000000000000000000000000000127428d9f707660000000000000000000000000000000000000000000000000000000001f3517e",
          "blockHash": "0xef49149a46b1d8d8689ae60bcd16609f90337d044f307c22f47a98d22bf68efc",
          "blockNumber": "0x731ce3",
          "transactionHash": "0x56539b84e34b540b56d9329bbc5eba56c96d78217158e857b0c8a05b32a61f7d",
          "transactionIndex": "0x9a",
          "logIndex": "0xb2",
          "removed": false
        }
      ],
      "logsBloom": "0x00000000000000000000000000000000000000000600000000000000000000000000000000000000000000000000000000000000000000004000000000000000000000000000004000000008000000000000000000000000000000000000000000000000020000000000000000000800020000000000000000000010000000000000000000000000000000000000000000000000000000000000010000000000000000000000000000000000000000004000000000000000000000000000000000000002000000800000000000000000000000000000080000000000000020000000000000000000000000000000000000000000000000000000000000000000",
      "type": "0x2",
      "transactionHash": "0x56539b84e34b540b56d9329bbc5eba56c96d78217158e857b0c8a05b32a61f7d",
      "transactionIndex": "0x9a",
      "blockHash": "0xef49149a46b1d8d8689ae60bcd16609f90337d044f307c22f47a98d22bf68efc",
      "blockNumber": "0x731ce3",
      "gasUsed": "0xfd1b",
      "effectiveGasPrice": "0x78040bb8",
      "from": "0xc77f7fed3b5cc8249adc428c5f44c9063b9734b4",
      "to": "0x8aafd3ede9adb0ff97c7aebce82a919afb1c8764",
      "contractAddress": null
    }
  ],
  "libraries": [],
  "pending": [],
  "returns": {},
  "timestamp": 1737512845,
  "chain": 11155111,
  "commit": "1d2fb70"
}