{
  "transactions": [
    {
      "hash": "0xe1425a06acb2a9fb539e0028c0727fd3bcd9ea535ce95c55d8d219b539d20d56",
      "transactionType": "CALL",
      "contractName": null,
      "contractAddress": "0xbf4a322f1496e5c3d34a9bcdb4c60567b38c7de2",
      "function": "sell(uint256)",
      "arguments": [
        "981303387341858145486"
      ],
      "transaction": {
        "from": "0xc77f7fed3b5cc8249adc428c5f44c9063b9734b4",
        "to": "0xbf4a322f1496e5c3d34a9bcdb4c60567b38c7de2",
        "gas": "0x16fea",
        "value": "0x0",
        "input": "0xe4849b320000000000000000000000000000000000000000000000353251f79e870204ce",
        "nonce": "0xbb7",
        "chainId": "0xaa36a7"
      },
      "additionalContracts": [],
      "isFixedGasLimit": false
    }
  ],
  "receipts": [
    {
      "status": "0x1",
      "cumulativeGasUsed": "0xd6853f",
      "logs": [
        {
          "address": "0xbf4a322f1496e5c3d34a9bcdb4c60567b38c7de2",
          "topics": [
            "0xddf252ad1be2c89b69c2b068fc378daa952ba7f163c4a11628f55a4df523b3ef",
            "0x000000000000000000000000c77f7fed3b5cc8249adc428c5f44c9063b9734b4",
            "0x0000000000000000000000000000000000000000000000000000000000000000"
          ],
          "data": "0x0000000000000000000000000000000000000000000000353251f79e870204ce",
          "blockHash": "0x2ef053e0510e16d7ac2a1b33874826db2d93c7b6d4c9443e754b5d5140158012",
          "blockNumber": "0x725bd1",
          "transactionHash": "0xe1425a06acb2a9fb539e0028c0727fd3bcd9ea535ce95c55d8d219b539d20d56",
          "transactionIndex": "0x5e",
          "logIndex": "0x8b",
          "removed": false
        },
        {
          "address": "0xbf4a322f1496e5c3d34a9bcdb4c60567b38c7de2",
          "topics": [
            "0x4afcb4a87cdbd9974efdb92ee48bc8d7cd0ae4bf217004db3d080cbaee652ca7"
          ],
          "data": "0x00000000000000000000000000000000000000000000000000000000678740280000000000000000000000000000000000000000000000000003985d09a334940000000000000000000000000000000000000000000000000dc7e3e518c361a9",
          "blockHash": "0x2ef053e0510e16d7ac2a1b33874826db2d93c7b6d4c9443e754b5d5140158012",
          "blockNumber": "0x725bd1",
          "transactionHash": "0xe1425a06acb2a9fb539e0028c0727fd3bcd9ea535ce95c55d8d219b539d20d56",
          "transactionIndex": "0x5e",
          "logIndex": "0x8c",
          "removed": false
        }
      ],
      "logsBloom": "0x00000000000000000000000000000000000000000000000000000000000000000000000000000000000000000000000000000000000000004000000000000000000000000000000000000008000000000000001000000000000000000000000000000000020000000000000000000800020000000000000000000010000000000000000000000000000000000000000000000000000008000000010000000000000000000000000000000000000000004000000000000000000000000000000000000002000000800000000000001000000000000000080000000000000020000000000000000000000000000000000000000000000000000000000000000000",
      "type": "0x2",
      "transactionHash": "0xe1425a06acb2a9fb539e0028c0727fd3bcd9ea535ce95c55d8d219b539d20d56",
      "transactionIndex": "0x5e",
      "blockHash": "0x2ef053e0510e16d7ac2a1b33874826db2d93c7b6d4c9443e754b5d5140158012",
      "blockNumber": "0x725bd1",
      "gasUsed": "0xfb91",
      "effectiveGasPrice": "0x5af48bfa",
      "from": "0xc77f7fed3b5cc8249adc428c5f44c9063b9734b4",
      "to": "0xbf4a322f1496e5c3d34a9bcdb4c60567b38c7de2",
      "contractAddress": null
    }
  ],
  "libraries": [],
  "pending": [],
  "returns": {},
  "timestamp": 1736917034,
  "chain": 11155111,
  "commit": "51a374b"
}