{
  "transactions": [
    {
      "hash": "0xac813b629f247f415e1b807b6266c6d0aa568068165a738b1c6cd97621cfa2e6",
      "transactionType": "CALL",
      "contractName": null,
      "contractAddress": "0x270e88f8683660553e8ba4eb2ad7c91a1710d769",
      "function": "sell(uint256)",
      "arguments": [
        "824883191162996620200"
      ],
      "transaction": {
        "from": "0xc77f7fed3b5cc8249adc428c5f44c9063b9734b4",
        "to": "0x270e88f8683660553e8ba4eb2ad7c91a1710d769",
        "gas": "0x16fec",
        "value": "0x0",
        "input": "0xe4849b3200000000000000000000000000000000000000000000002cb78dcbf1bd0d7ba8",
        "nonce": "0x63b",
        "chainId": "0xaa36a7"
      },
      "additionalContracts": [],
      "isFixedGasLimit": false
    }
  ],
  "receipts": [
    {
      "status": "0x1",
      "cumulativeGasUsed": "0xc6850d",
      "logs": [
        {
          "address": "0x270e88f8683660553e8ba4eb2ad7c91a1710d769",
          "topics": [
            "0xddf252ad1be2c89b69c2b068fc378daa952ba7f163c4a11628f55a4df523b3ef",
            "0x000000000000000000000000c77f7fed3b5cc8249adc428c5f44c9063b9734b4",
            "0x0000000000000000000000000000000000000000000000000000000000000000"
          ],
          "data": "0x00000000000000000000000000000000000000000000002cb78dcbf1bd0d7ba8",
          "blockHash": "0x7e428ced15656339650716d3f67940a31d9aad8425db2ef6862573c4561cbcef",
          "blockNumber": "0x725324",
          "transactionHash": "0xac813b629f247f415e1b807b6266c6d0aa568068165a738b1c6cd97621cfa2e6",
          "transactionIndex": "0x6d",
          "logIndex": "0xe1",
          "removed": false
        },
        {
          "address": "0x270e88f8683660553e8ba4eb2ad7c91a1710d769",
          "topics": [
            "0x4afcb4a87cdbd9974efdb92ee48bc8d7cd0ae4bf217004db3d080cbaee652ca7"
          ],
          "data": "0x000000000000000000000000000000000000000000000000000000006786d7b8000000000000000000000000000000000000000000000000000446e1226443e60000000000000000000000000000000000000000000000000dc7e0f9b71d9547",
          "blockHash": "0x7e428ced15656339650716d3f67940a31d9aad8425db2ef6862573c4561cbcef",
          "blockNumber": "0x725324",
          "transactionHash": "0xac813b629f247f415e1b807b6266c6d0aa568068165a738b1c6cd97621cfa2e6",
          "transactionIndex": "0x6d",
          "logIndex": "0xe2",
          "removed": false
        }
      ],
      "logsBloom": "0x00000000000000000000000000000000000000000000000000000000000000000000000000000000000000000000000020000000000000004000000000000000000000000000000000000008000000000000000000000000000000000000000000000000020000000000000000000800020000000000000000000010000000000000000000010000000000000000000000000000000000000000010000000000000000000000000000000000000000004000000000000000000000000000000000000002000000800000000000000000000000000000080000008000000020000000000000000000000000000000000000000000000000000000000000000000",
      "type": "0x2",
      "transactionHash": "0xac813b629f247f415e1b807b6266c6d0aa568068165a738b1c6cd97621cfa2e6",
      "transactionIndex": "0x6d",
      "blockHash": "0x7e428ced15656339650716d3f67940a31d9aad8425db2ef6862573c4561cbcef",
      "blockNumber": "0x725324",
      "gasUsed": "0xfb93",
      "effectiveGasPrice": "0x1f309bf72",
      "from": "0xc77f7fed3b5cc8249adc428c5f44c9063b9734b4",
      "to": "0x270e88f8683660553e8ba4eb2ad7c91a1710d769",
      "contractAddress": null
    }
  ],
  "libraries": [],
  "pending": [],
  "returns": {},
  "timestamp": 1736890297,
  "chain": 11155111,
  "commit": "51a374b"
}