{
  "transactions": [
    {
      "hash": "0x32ae0fa7ff3193b80067e08cf15afbf7f5cbeb6bb41e172c59b6ac4eca2072e6",
      "transactionType": "CALL",
      "contractName": null,
      "contractAddress": "0x8aafd3ede9adb0ff97c7aebce82a919afb1c8764",
      "function": "sell(uint256)",
      "arguments": [
        "80531054796738"
      ],
      "transaction": {
        "from": "0xc77f7fed3b5cc8249adc428c5f44c9063b9734b4",
        "to": "0x8aafd3ede9adb0ff97c7aebce82a919afb1c8764",
        "gas": "0x15daa",
        "value": "0x0",
        "input": "0xe4849b320000000000000000000000000000000000000000000000000000493e18ea1fc2",
        "nonce": "0x16d6",
        "chainId": "0xaa36a7"
      },
      "additionalContracts": [],
      "isFixedGasLimit": false
    }
  ],
  "receipts": [
    {
      "status": "0x1",
      "cumulativeGasUsed": "0xcb98c3",
      "logs": [
        {
          "address": "0x8aafd3ede9adb0ff97c7aebce82a919afb1c8764",
          "topics": [
            "0xddf252ad1be2c89b69c2b068fc378daa952ba7f163c4a11628f55a4df523b3ef",
            "0x000000000000000000000000c77f7fed3b5cc8249adc428c5f44c9063b9734b4",
            "0x0000000000000000000000000000000000000000000000000000000000000000"
          ],
          "data": "0x000000000000000000000000000000000000000000000000000048a818b7195d",
          "blockHash": "0xb689a0b726c1338af73df6aa462ad5c28336eba3f42f063130a832acf0bf6110",
          "blockNumber": "0x731e92",
          "transactionHash": "0x32ae0fa7ff3193b80067e08cf15afbf7f5cbeb6bb41e172c59b6ac4eca2072e6",
          "transactionIndex": "0x75",
          "logIndex": "0xd7",
          "removed": false
        },
        {
          "address": "0x8aafd3ede9adb0ff97c7aebce82a919afb1c8764",
          "topics": [
            "0xddf252ad1be2c89b69c2b068fc378daa952ba7f163c4a11628f55a4df523b3ef",
            "0x000000000000000000000000c77f7fed3b5cc8249adc428c5f44c9063b9734b4",
            "0x000000000000000000000000c77f7fed3b5cc8249adc428c5f44c9063b9734b4"
          ],
          "data": "0x0000000000000000000000000000000000000000000000000000009600330665",
          "blockHash": "0xb689a0b726c1338af73df6aa462ad5c28336eba3f42f063130a832acf0bf6110",
          "blockNumber": "0x731e92",
          "transactionHash": "0x32ae0fa7ff3193b80067e08cf15afbf7f5cbeb6bb41e172c59b6ac4eca2072e6",
          "transactionIndex": "0x75",
          "logIndex": "0xd8",
          "removed": false
        },
        {
          "address": "0x8aafd3ede9adb0ff97c7aebce82a919afb1c8764",
          "topics": [
            "0x4afcb4a87cdbd9974efdb92ee48bc8d7cd0ae4bf217004db3d080cbaee652ca7"
          ],
          "data": "0x0000000000000000000000000000000000000000000000000000000067906bc0000000000000000000000000000000000000000000000000001688d3067863c800000000000000000000000000000000000000000000000000000076ee06f4b4",
          "blockHash": "0xb689a0b726c1338af73df6aa462ad5c28336eba3f42f063130a832acf0bf6110",
          "blockNumber": "0x731e92",
          "transactionHash": "0x32ae0fa7ff3193b80067e08cf15afbf7f5cbeb6bb41e172c59b6ac4eca2072e6",
          "transactionIndex": "0x75",
          "logIndex": "0xd9",
          "removed": false
        }
      ],
      "logsBloom": "0x00000000000000000000000000000000000000000600000000000000000000000000000000000000000000000000000000000000000000004000000000000000000000000000004000000008000000000000000000000000000000000000000000000000020000000000000000000800020000000000000000000010000000000000000000000000000000000000000000000000000000000000010000000000000000000000000000000000000000004000000000000000000000000000000000000002000000800000000000000000000000000000080000000000000020000000000000000000000000000000000000000000000000000000000000000000",
      "type": "0x2",
      "transactionHash": "0x32ae0fa7ff3193b80067e08cf15afbf7f5cbeb6bb41e172c59b6ac4eca2072e6",
      "transactionIndex": "0x75",
      "blockHash": "0xb689a0b726c1338af73df6aa462ad5c28336eba3f42f063130a832acf0bf6110",
      "blockNumber": "0x731e92",
      "gasUsed": "0xfd27",
      "effectiveGasPrice": "0x45258091",
      "from": "0xc77f7fed3b5cc8249adc428c5f44c9063b9734b4",
      "to": "0x8aafd3ede9adb0ff97c7aebce82a919afb1c8764",
      "contractAddress": null
    }
  ],
  "libraries": [],
  "pending": [],
  "returns": {},
  "timestamp": 1737518017,
  "chain": 11155111,
  "commit": "1d2fb70"
}