{
  "transactions": [
    {
      "hash": "0x2719bee154dd2a21ca2b3f46b1677807516e829d67f48c13c05eb50dcbcd3d09",
      "transactionType": "CALL",
      "contractName": null,
      "contractAddress": "0xd7bc75898e513accccf720a874d44dab5a4b6223",
      "function": "sell(uint256)",
      "arguments": [
        "9929992935346358693"
      ],
      "transaction": {
        "from": "0xc77f7fed3b5cc8249adc428c5f44c9063b9734b4",
        "to": "0xd7bc75898e513accccf720a874d44dab5a4b6223",
        "gas": "0x15b6b",
        "value": "0x0",
        "input": "0xe4849b3200000000000000000000000000000000000000000000000089ce6bf69d7549a5",
        "nonce": "0x9d",
        "chainId": "0xaa36a7"
      },
      "additionalContracts": [],
      "isFixedGasLimit": false
    }
  ],
  "receipts": [
    {
      "status": "0x1",
      "cumulativeGasUsed": "0xd5b223",
      "logs": [
        {
          "address": "0xd7bc75898e513accccf720a874d44dab5a4b6223",
          "topics": [
            "0xddf252ad1be2c89b69c2b068fc378daa952ba7f163c4a11628f55a4df523b3ef",
            "0x000000000000000000000000c77f7fed3b5cc8249adc428c5f44c9063b9734b4",
            "0x0000000000000000000000000000000000000000000000000000000000000000"
          ],
          "data": "0x00000000000000000000000000000000000000000000000089ce6bf69d7549a5",
          "blockHash": "0x92d8bd898db7467c2e29adaa74b32a5a9b988798b4e05db25b55ba691020b4ff",
          "blockNumber": "0x72390f",
          "transactionHash": "0x2719bee154dd2a21ca2b3f46b1677807516e829d67f48c13c05eb50dcbcd3d09",
          "transactionIndex": "0x68",
          "logIndex": "0xab",
          "removed": false
        },
        {
          "address": "0xd7bc75898e513accccf720a874d44dab5a4b6223",
          "topics": [
            "0x4afcb4a87cdbd9974efdb92ee48bc8d7cd0ae4bf217004db3d080cbaee652ca7"
          ],
          "data": "0x0000000000000000000000000000000000000000000000000000000067859dfc00000000000000000000000000000000000000000000000000038d7f83a0e3070000000000000000000000000000000000000000000000000023474f493d2799",
          "blockHash": "0x92d8bd898db7467c2e29adaa74b32a5a9b988798b4e05db25b55ba691020b4ff",
          "blockNumber": "0x72390f",
          "transactionHash": "0x2719bee154dd2a21ca2b3f46b1677807516e829d67f48c13c05eb50dcbcd3d09",
          "transactionIndex": "0x68",
          "logIndex": "0xac",
          "removed": false
        }
      ],
      "logsBloom": "0x00000000000000000000000000000000000000000000000000000000000000000000000000000000000000000000000000000000000000004000000000000000000000000000000000000008000000000000000000000000000000000000000000000000020000000000000000000800020000000000000000000010000000000000000000000000000000000000000000000000000000000000010000000000000000000000000000000000000000004000001000000000000000000000000000000002000000800000000000004000000000000000080000000000000020000000000000000000000000000000000000000000080000000000000000000000",
      "type": "0x2",
      "transactionHash": "0x2719bee154dd2a21ca2b3f46b1677807516e829d67f48c13c05eb50dcbcd3d09",
      "transactionIndex": "0x68",
      "blockHash": "0x92d8bd898db7467c2e29adaa74b32a5a9b988798b4e05db25b55ba691020b4ff",
      "blockNumber": "0x72390f",
      "gasUsed": "0xfb87",
      "effectiveGasPrice": "0x953ff9",
      "from": "0xc77f7fed3b5cc8249adc428c5f44c9063b9734b4",
      "to": "0xd7bc75898e513accccf720a874d44dab5a4b6223",
      "contractAddress": null
    }
  ],
  "libraries": [],
  "pending": [],
  "returns": {},
  "timestamp": 1736809981,
  "chain": 11155111,
  "commit": "51a374b"
}