{
  "transactions": [
    {
      "hash": "0xa607f9ea0e850cfe242ce0031dd7c95dcdc62cf8a847ddd49012ce8c45bdb229",
      "transactionType": "CALL",
      "contractName": null,
      "contractAddress": "0xd7bc75898e513accccf720a874d44dab5a4b6223",
      "function": "buy(address)",
      "arguments": [
        "0xC77f7fed3b5Cc8249aDc428c5F44C9063B9734b4"
      ],
      "transaction": {
        "from": "0xc77f7fed3b5cc8249adc428c5f44c9063b9734b4",
        "to": "0xd7bc75898e513accccf720a874d44dab5a4b6223",
        "gas": "0x1b30c",
        "value": "0x2386f26fc10000",
        "input": "0xf088d547000000000000000000000000c77f7fed3b5cc8249adc428c5f44c9063b9734b4",
        "nonce": "0xb2",
        "chainId": "0xaa36a7"
      },
      "additionalContracts": [],
      "isFixedGasLimit": false
    }
  ],
  "receipts": [
    {
      "status": "0x1",
      "cumulativeGasUsed": "0x64db25",
      "logs": [
        {
          "address": "0xd7bc75898e513accccf720a874d44dab5a4b6223",
          "topics": [
            "0xddf252ad1be2c89b69c2b068fc378daa952ba7f163c4a11628f55a4df523b3ef",
            "0x0000000000000000000000000000000000000000000000000000000000000000",
            "0x000000000000000000000000c77f7fed3b5cc8249adc428c5f44c9063b9734b4"
          ],
          "data": "0x0000000000000000000000000000000000000000000000008963bb97851dc750",
          "blockHash": "0x39b0c5a500ca2323a948412d4f89ac54bfba10e5f52bc11342673d0fa18fb563",
          "blockNumber": "0x723928",
          "transactionHash": "0xa607f9ea0e850cfe242ce0031dd7c95dcdc62cf8a847ddd49012ce8c45bdb229",
          "transactionIndex": "0x2f",
          "logIndex": "0x45",
          "removed": false
        },
        {
          "address": "0xd7bc75898e513accccf720a874d44dab5a4b6223",
          "topics": [
            "0xddf252ad1be2c89b69c2b068fc378daa952ba7f163c4a11628f55a4df523b3ef",
            "0x0000000000000000000000000000000000000000000000000000000000000000",
            "0x000000000000000000000000c77f7fed3b5cc8249adc428c5f44c9063b9734b4"
          ],
          "data": "0x000000000000000000000000000000000000000000000000006ab00cda647712",
          "blockHash": "0x39b0c5a500ca2323a948412d4f89ac54bfba10e5f52bc11342673d0fa18fb563",
          "blockNumber": "0x723928",
          "transactionHash": "0xa607f9ea0e850cfe242ce0031dd7c95dcdc62cf8a847ddd49012ce8c45bdb229",
          "transactionIndex": "0x2f",
          "logIndex": "0x46",
          "removed": false
        },
        {
          "address": "0xd7bc75898e513accccf720a874d44dab5a4b6223",
          "topics": [
            "0x4afcb4a87cdbd9974efdb92ee48bc8d7cd0ae4bf217004db3d080cbaee652ca7"
          ],
          "data": "0x0000000000000000000000000000000000000000000000000000000067859f2800000000000000000000000000000000000000000000000000038d7f85a01d31000000000000000000000000000000000000000000000000002386f26fc10000",
          "blockHash": "0x39b0c5a500ca2323a948412d4f89ac54bfba10e5f52bc11342673d0fa18fb563",
          "blockNumber": "0x723928",
          "transactionHash": "0xa607f9ea0e850cfe242ce0031dd7c95dcdc62cf8a847ddd49012ce8c45bdb229",
          "transactionIndex": "0x2f",
          "logIndex": "0x47",
          "removed": false
        }
      ],
      "logsBloom": "0x00000000000000000000000000000000000000000000000000000000000000000000000000000000000000000000000000000000000000004000000000000000000000000000000000000008000000000000000000000000000000000000000000000000020000000000000000000800020000000000000000000010000000000000000000000000000000000000000000000000000000000000010000000000000000000000000000000000000000004000001000000000000000000000000000000002000000800000000000004000000000000000080000000000000020000000000000000000000000000000000000000000080000000000000000000000",
      "type": "0x2",
      "transactionHash": "0xa607f9ea0e850cfe242ce0031dd7c95dcdc62cf8a847ddd49012ce8c45bdb229",
      "transactionIndex": "0x2f",
      "blockHash": "0x39b0c5a500ca2323a948412d4f89ac54bfba10e5f52bc11342673d0fa18fb563",
      "blockNumber": "0x723928",
      "gasUsed": "0x13af8",
      "effectiveGasPrice": "0x1630593c",
      "from": "0xc77f7fed3b5cc8249adc428c5f44c9063b9734b4",
      "to": "0xd7bc75898e513accccf720a874d44dab5a4b6223",
      "contractAddress": null
    }
  ],
  "libraries": [],
  "pending": [],
  "returns": {},
  "timestamp": 1736810283,
  "chain": 11155111,
  "commit": "51a374b"
}