{
  "transactions": [
    {
      "hash": "0x4499415b57879f0d5ebe3103219136b2dba44485bd14b18e4bc38bf9f0ed324a",
      "transactionType": "CALL",
      "contractName": null,
      "contractAddress": "0x8aafd3ede9adb0ff97c7aebce82a919afb1c8764",
      "function": "sell(uint256)",
      "arguments": [
        "67001267"
      ],
      "transaction": {
        "from": "0xc77f7fed3b5cc8249adc428c5f44c9063b9734b4",
        "to": "0x8aafd3ede9adb0ff97c7aebce82a919afb1c8764",
        "gas": "0x15d88",
        "value": "0x0",
        "input": "0xe4849b320000000000000000000000000000000000000000000000000000000003fe5bb3",
        "nonce": "0x13ee",
        "chainId": "0xaa36a7"
      },
      "additionalContracts": [],
      "isFixedGasLimit": false
    }
  ],
  "receipts": [
    {
      "status": "0x1",
      "cumulativeGasUsed": "0xd12b66",
      "logs": [
        {
          "address": "0x8aafd3ede9adb0ff97c7aebce82a919afb1c8764",
          "topics": [
            "0xddf252ad1be2c89b69c2b068fc378daa952ba7f163c4a11628f55a4df523b3ef",
            "0x000000000000000000000000c77f7fed3b5cc8249adc428c5f44c9063b9734b4",
            "0x0000000000000000000000000000000000000000000000000000000000000000"
          ],
          "data": "0x0000000000000000000000000000000000000000000000000000000003f62de9",
          "blockHash": "0x83509376e96b466bddc1e7fc057701e399f38a130287c64c84cdb83277d2801b",
          "blockNumber": "0x731b1e",
          "transactionHash": "0x4499415b57879f0d5ebe3103219136b2dba44485bd14b18e4bc38bf9f0ed324a",
          "transactionIndex": "0x6b",
          "logIndex": "0xa7",
          "removed": false
        },
        {
          "address": "0x8aafd3ede9adb0ff97c7aebce82a919afb1c8764",
          "topics": [
            "0xddf252ad1be2c89b69c2b068fc378daa952ba7f163c4a11628f55a4df523b3ef",
            "0x000000000000000000000000c77f7fed3b5cc8249adc428c5f44c9063b9734b4",
            "0x000000000000000000000000c77f7fed3b5cc8249adc428c5f44c9063b9734b4"
          ],
          "data": "0x0000000000000000000000000000000000000000000000000000000000082dca",
          "blockHash": "0x83509376e96b466bddc1e7fc057701e399f38a130287c64c84cdb83277d2801b",
          "blockNumber": "0x731b1e",
          "transactionHash": "0x4499415b57879f0d5ebe3103219136b2dba44485bd14b18e4bc38bf9f0ed324a",
          "transactionIndex": "0x6b",
          "logIndex": "0xa8",
          "removed": false
        },
        {
          "address": "0x8aafd3ede9adb0ff97c7aebce82a919afb1c8764",
          "topics": [
            "0x4afcb4a87cdbd9974efdb92ee48bc8d7cd0ae4bf217004db3d080cbaee652ca7"
          ],
          "data": "0x0000000000000000000000000000000000000000000000000000000067904238000000000000000000000000000000000000000000000000000de7c2280eade90000000000000000000000000000000000000000000000000000000000040062",
          "blockHash": "0x83509376e96b466bddc1e7fc057701e399f38a130287c64c84cdb83277d2801b",
          "blockNumber": "0x731b1e",
          "transactionHash": "0x4499415b57879f0d5ebe3103219136b2dba44485bd14b18e4bc38bf9f0ed324a",
          "transactionIndex": "0x6b",
          "logIndex": "0xa9",
          "removed": false
        }
      ],
      "logsBloom": "0x00000000000000000000000000000000000000000600000000000000000000000000000000000000000000000000000000000000000000004000000000000000000000000000004000000008000000000000000000000000000000000000000000000000020000000000000000000800020000000000000000000010000000000000000000000000000000000000000000000000000000000000010000000000000000000000000000000000000000004000000000000000000000000000000000000002000000800000000000000000000000000000080000000000000020000000000000000000000000000000000000000000000000000000000000000000",
      "type": "0x2",
      "transactionHash": "0x4499415b57879f0d5ebe3103219136b2dba44485bd14b18e4bc38bf9f0ed324a",
      "transactionIndex": "0x6b",
      "blockHash": "0x83509376e96b466bddc1e7fc057701e399f38a130287c64c84cdb83277d2801b",
      "blockNumber": "0x731b1e",
      "gasUsed": "0xfd0f",
      "effectiveGasPrice": "0x94db6f50",
      "from": "0xc77f7fed3b5cc8249adc428c5f44c9063b9734b4",
      "to": "0x8aafd3ede9adb0ff97c7aebce82a919afb1c8764",
      "contractAddress": null
    }
  ],
  "libraries": [],
  "pending": [],
  "returns": {},
  "timestamp": 1737507385,
  "chain": 11155111,
  "commit": "1d2fb70"
}