{
  "transactions": [
    {
      "hash": "0xecca8f80eb1128738eff549798534827fd112c48bb64274f3553d315006ddebe",
      "transactionType": "CALL",
      "contractName": null,
      "contractAddress": "0x5eb9cc76c3506942c1c0ead70e877dd5e4f00cb0",
      "function": "buy(address)",
      "arguments": [
        "0xC77f7fed3b5Cc8249aDc428c5F44C9063B9734b4"
      ],
      "transaction": {
        "from": "0xc77f7fed3b5cc8249adc428c5f44c9063b9734b4",
        "to": "0x5eb9cc76c3506942c1c0ead70e877dd5e4f00cb0",
        "gas": "0x1b30c",
        "value": "0xde0b6b3a7640000",
        "input": "0xf088d547000000000000000000000000c77f7fed3b5cc8249adc428c5f44c9063b9734b4",
        "nonce": "0x374",
        "chainId": "0xaa36a7"
      },
      "additionalContracts": [],
      "isFixedGasLimit": false
    }
  ],
  "receipts": [
    {
      "status": "0x1",
      "cumulativeGasUsed": "0xce650a",
      "logs": [
        {
          "address": "0x5eb9cc76c3506942c1c0ead70e877dd5e4f00cb0",
          "topics": [
            "0xddf252ad1be2c89b69c2b068fc378daa952ba7f163c4a11628f55a4df523b3ef",
            "0x0000000000000000000000000000000000000000000000000000000000000000",
            "0x000000000000000000000000c77f7fed3b5cc8249adc428c5f44c9063b9734b4"
          ],
          "data": "0x00000000000000000000000000000000000000000000003575513ddbe53d9a19",
          "blockHash": "0x59a7f6638a2458b9f4e434cbd96e0b29d032a99ab7614d890d9d9e1020319cc2",
          "blockNumber": "0x724f6c",
          "transactionHash": "0xecca8f80eb1128738eff549798534827fd112c48bb64274f3553d315006ddebe",
          "transactionIndex": "0x47",
          "logIndex": "0x71",
          "removed": false
        },
        {
          "address": "0x5eb9cc76c3506942c1c0ead70e877dd5e4f00cb0",
          "topics": [
            "0xddf252ad1be2c89b69c2b068fc378daa952ba7f163c4a11628f55a4df523b3ef",
            "0x0000000000000000000000000000000000000000000000000000000000000000",
            "0x000000000000000000000000c77f7fed3b5cc8249adc428c5f44c9063b9734b4"
          ],
          "data": "0x00000000000000000000000000000000000000000000000029831da044a066c0",
          "blockHash": "0x59a7f6638a2458b9f4e434cbd96e0b29d032a99ab7614d890d9d9e1020319cc2",
          "blockNumber": "0x724f6c",
          "transactionHash": "0xecca8f80eb1128738eff549798534827fd112c48bb64274f3553d315006ddebe",
          "transactionIndex": "0x47",
          "logIndex": "0x72",
          "removed": false
        },
        {
          "address": "0x5eb9cc76c3506942c1c0ead70e877dd5e4f00cb0",
          "topics": [
            "0x4afcb4a87cdbd9974efdb92ee48bc8d7cd0ae4bf217004db3d080cbaee652ca7"
          ],
          "data": "0x000000000000000000000000000000000000000000000000000000006786aac40000000000000000000000000000000000000000000000000003911026df0d190000000000000000000000000000000000000000000000000de0b6b3a7640000",
          "blockHash": "0x59a7f6638a2458b9f4e434cbd96e0b29d032a99ab7614d890d9d9e1020319cc2",
          "blockNumber": "0x724f6c",
          "transactionHash": "0xecca8f80eb1128738eff549798534827fd112c48bb64274f3553d315006ddebe",
          "transactionIndex": "0x47",
          "logIndex": "0x73",
          "removed": false
        }
      ],
      "logsBloom": "0x00000000000000000000000000000000000000000000000000000000000000000000000000000000000000000000000000000000000000004000000000000000000000000000000000000008000000000000000000000000000000000000000000000000020000000000000004000800020000000000000000000010000000000000000000000000000000000000000000000000000000000000010000000000000000000000000000000000000000004000000000000000000000000000020000000002000000800000008000000000000000000000080000000000000020000000000000000000000000000000000000000000000000000000000000000000",
      "type": "0x2",
      "transactionHash": "0xecca8f80eb1128738eff549798534827fd112c48bb64274f3553d315006ddebe",
      "transactionIndex": "0x47",
      "blockHash": "0x59a7f6638a2458b9f4e434cbd96e0b29d032a99ab7614d890d9d9e1020319cc2",
      "blockNumber": "0x724f6c",
      "gasUsed": "0x13af8",
      "effectiveGasPrice": "0x5d242cb13",
      "from": "0xc77f7fed3b5cc8249adc428c5f44c9063b9734b4",
      "to": "0x5eb9cc76c3506942c1c0ead70e877dd5e4f00cb0",
      "contractAddress": null
    }
  ],
  "libraries": [],
  "pending": [],
  "returns": {},
  "timestamp": 1736878789,
  "chain": 11155111,
  "commit": "51a374b"
}