{
  "transactions": [
    {
      "hash": "0xdd253c65503c069b8a42e252de0e168df92bd52fb3020a8e40fdad720ab14ccf",
      "transactionType": "CALL",
      "contractName": null,
      "contractAddress": "0xa5eb8a42085d0ba183d821fcca7ff67788426f77",
      "function": "sell(uint256)",
      "arguments": [
        "137627586206896609"
      ],
      "transaction": {
        "from": "0xc77f7fed3b5cc8249adc428c5f44c9063b9734b4",
        "to": "0xa5eb8a42085d0ba183d821fcca7ff67788426f77",
        "gas": "0x1799c",
        "value": "0x0",
        "input": "0xe4849b3200000000000000000000000000000000000000000000000001e8f38f7b2811e1",
        "nonce": "0x1830",
        "chainId": "0xaa36a7"
      },
      "additionalContracts": [],
      "isFixedGasLimit": false
    }
  ],
  "receipts": [
    {
      "status": "0x1",
      "cumulativeGasUsed": "0xbc8523",
      "logs": [
        {
          "address": "0xa5eb8a42085d0ba183d821fcca7ff67788426f77",
          "topics": [
            "0xddf252ad1be2c89b69c2b068fc378daa952ba7f163c4a11628f55a4df523b3ef",
            "0x000000000000000000000000c77f7fed3b5cc8249adc428c5f44c9063b9734b4",
            "0x0000000000000000000000000000000000000000000000000000000000000000"
          ],
          "data": "0x00000000000000000000000000000000000000000000000001e50a30200f2c5d",
          "blockHash": "0xd087cc028e51359fd08f91d9817f4f3175dabb9f24f95b76f752f6e838f75aaf",
          "blockNumber": "0x73501b",
          "transactionHash": "0xdd253c65503c069b8a42e252de0e168df92bd52fb3020a8e40fdad720ab14ccf",
          "transactionIndex": "0x57",
          "logIndex": "0x72",
          "removed": false
        },
        {
          "address": "0xa5eb8a42085d0ba183d821fcca7ff67788426f77",
          "topics": [
            "0x03bbe564cb1b78e43195eeadbde99e5b89b19345862807fcfb59f884e4165e25"
          ],
          "data": "0x000000000000000000000000c77f7fed3b5cc8249adc428c5f44c9063b9734b40000000000000000000000000000000000000000000000000012f4c78e11e9f5",
          "blockHash": "0xd087cc028e51359fd08f91d9817f4f3175dabb9f24f95b76f752f6e838f75aaf",
          "blockNumber": "0x73501b",
          "transactionHash": "0xdd253c65503c069b8a42e252de0e168df92bd52fb3020a8e40fdad720ab14ccf",
          "transactionIndex": "0x57",
          "logIndex": "0x73",
          "removed": false
        },
        {
          "address": "0xa5eb8a42085d0ba183d821fcca7ff67788426f77",
          "topics": [
            "0xddf252ad1be2c89b69c2b068fc378daa952ba7f163c4a11628f55a4df523b3ef",
            "0x000000000000000000000000c77f7fed3b5cc8249adc428c5f44c9063b9734b4",
            "0x000000000000000000000000c77f7fed3b5cc8249adc428c5f44c9063b9734b4"
          ],
          "data": "0x0000000000000000000000000000000000000000000000000003e95f5b18e584",
          "blockHash": "0xd087cc028e51359fd08f91d9817f4f3175dabb9f24f95b76f752f6e838f75aaf",
          "blockNumber": "0x73501b",
          "transactionHash": "0xdd253c65503c069b8a42e252de0e168df92bd52fb3020a8e40fdad720ab14ccf",
          "transactionIndex": "0x57",
          "logIndex": "0x74",
          "removed": false
        },
        {
          "address": "0xa5eb8a42085d0ba183d821fcca7ff67788426f77",
          "topics": [
            "0x4afcb4a87cdbd9974efdb92ee48bc8d7cd0ae4bf217004db3d080cbaee652ca7"
          ],
          "data": "0x000000000000000000000000000000000000000000000000000000006792cfe400000000000000000000000000000000000000000000000001b97589ce644a6900000000000000000000000000000000000000000000000000137135b28886ef",
          "blockHash": "0xd087cc028e51359fd08f91d9817f4f3175dabb9f24f95b76f752f6e838f75aaf",
          "blockNumber": "0x73501b",
          "transactionHash": "0xdd253c65503c069b8a42e252de0e168df92bd52fb3020a8e40fdad720ab14ccf",
          "transactionIndex": "0x57",
          "logIndex": "0x75",
          "removed": false
        }
      ],
      "logsBloom": "0x00000000000000000000000000000100000000000000000000000000000000000008000001000000000000000000000000002000000000004000001000000000000000000000000000000008000000000000000000000000000000000000000000000000020000000000000000000800020000000000000000000010000000000000000000000000000000000000000000000000000000000000010000000000000000000000000000000000000000004000000000000000000000000000000000000002000000800000000000000000000000000000080000000000000020000000000000000000000008000000000000000000000000000000000000000000",
      "type": "0x2",
      "transactionHash": "0xdd253c65503c069b8a42e252de0e168df92bd52fb3020a8e40fdad720ab14ccf",
      "transactionIndex": "0x57",
      "blockHash": "0xd087cc028e51359fd08f91d9817f4f3175dabb9f24f95b76f752f6e838f75aaf",
      "blockNumber": "0x73501b",
      "gasUsed": "0x10232",
      "effectiveGasPrice": "0x4c60b8cf",
      "from": "0xc77f7fed3b5cc8249adc428c5f44c9063b9734b4",
      "to": "0xa5eb8a42085d0ba183d821fcca7ff67788426f77",
      "contractAddress": null
    }
  ],
  "libraries": [],
  "pending": [],
  "returns": {},
  "timestamp": 1737674725,
  "chain": 11155111,
  "commit": "f5162e9"
}