{
  "transactions": [
    {
      "hash": "0x1f60fe45433ea4771ba820693160a75f2931ce6f12ca4847291e5d41bbf906ab",
      "transactionType": "CALL",
      "contractName": null,
      "contractAddress": "0x8aafd3ede9adb0ff97c7aebce82a919afb1c8764",
      "function": "buy(address)",
      "arguments": [
        "0xC77f7fed3b5Cc8249aDc428c5F44C9063B9734b4"
      ],
      "transaction": {
        "from": "0xc77f7fed3b5cc8249adc428c5f44c9063b9734b4",
        "to": "0x8aafd3ede9adb0ff97c7aebce82a919afb1c8764",
        "gas": "0x156ea",
        "value": "0xde0b6b3a7640000",
        "input": "0xf088d547000000000000000000000000c77f7fed3b5cc8249adc428c5f44c9063b9734b4",
        "nonce": "0x1693",
        "chainId": "0xaa36a7"
      },
      "additionalContracts": [],
      "isFixedGasLimit": false
    }
  ],
  "receipts": [
    {
      "status": "0x1",
      "cumulativeGasUsed": "0x7b2c52",
      "logs": [
        {
          "address": "0x8aafd3ede9adb0ff97c7aebce82a919afb1c8764",
          "topics": [
            "0xddf252ad1be2c89b69c2b068fc378daa952ba7f163c4a11628f55a4df523b3ef",
            "0x0000000000000000000000000000000000000000000000000000000000000000",
            "0x000000000000000000000000c77f7fed3b5cc8249adc428c5f44c9063b9734b4"
          ],
          "data": "0x000000000000000000000000000000000000000000000008c9ecee0905d75140",
          "blockHash": "0xbb8121deff9c65ed585de48f2e8e52bd57283e88764fb1c9e74baa579b86305f",
          "blockNumber": "0x731e49",
          "transactionHash": "0x1f60fe45433ea4771ba820693160a75f2931ce6f12ca4847291e5d41bbf906ab",
          "transactionIndex": "0x5b",
          "logIndex": "0x95",
          "removed": false
        },
        {
          "address": "0x8aafd3ede9adb0ff97c7aebce82a919afb1c8764",
          "topics": [
            "0xddf252ad1be2c89b69c2b068fc378daa952ba7f163c4a11628f55a4df523b3ef",
            "0x0000000000000000000000000000000000000000000000000000000000000000",
            "0x000000000000000000000000c77f7fed3b5cc8249adc428c5f44c9063b9734b4"
          ],
          "data": "0x00000000000000000000000000000000000000000000000006d324d6b144f6ff",
          "blockHash": "0xbb8121deff9c65ed585de48f2e8e52bd57283e88764fb1c9e74baa579b86305f",
          "blockNumber": "0x731e49",
          "transactionHash": "0x1f60fe45433ea4771ba820693160a75f2931ce6f12ca4847291e5d41bbf906ab",
          "transactionIndex": "0x5b",
          "logIndex": "0x96",
          "removed": false
        },
        {
          "address": "0x8aafd3ede9adb0ff97c7aebce82a919afb1c8764",
          "topics": [
            "0x4afcb4a87cdbd9974efdb92ee48bc8d7cd0ae4bf217004db3d080cbaee652ca7"
          ],
          "data": "0x00000000000000000000000000000000000000000000000000000000679068540000000000000000000000000000000000000000000000000015b8939ed4fecf0000000000000000000000000000000000000000000000000de0b6b3a7640000",
          "blockHash": "0xbb8121deff9c65ed585de48f2e8e52bd57283e88764fb1c9e74baa579b86305f",
          "blockNumber": "0x731e49",
          "transactionHash": "0x1f60fe45433ea4771ba820693160a75f2931ce6f12ca4847291e5d41bbf906ab",
          "transactionIndex": "0x5b",
          "logIndex": "0x97",
          "removed": false
        }
      ],
      "logsBloom": "0x00000000000000000000000000000000000000000600000000000000000000000000000000000000000000000000000000000000000000004000000000000000000000000000004000000008000000000000000000000000000000000000000000000000020000000000000000000800020000000000000000000010000000000000000000000000000000000000000000000000000000000000010000000000000000000000000000000000000000004000000000000000000000000000000000000002000000800000000000000000000000000000080000000000000020000000000000000000000000000000000000000000000000000000000000000000",
      "type": "0x2",
      "transactionHash": "0x1f60fe45433ea4771ba820693160a75f2931ce6f12ca4847291e5d41bbf906ab",
      "transactionIndex": "0x5b",
      "blockHash": "0xbb8121deff9c65ed585de48f2e8e52bd57283e88764fb1c9e74baa579b86305f",
      "blockNumber": "0x731e49",
      "gasUsed": "0xf844",
      "effectiveGasPrice": "0x4a2e153e",
      "from": "0xc77f7fed3b5cc8249adc428c5f44c9063b9734b4",
      "to": "0x8aafd3ede9adb0ff97c7aebce82a919afb1c8764",
      "contractAddress": null
    }
  ],
  "libraries": [],
  "pending": [],
  "returns": {},
  "timestamp": 1737517141,
  "chain": 11155111,
  "commit": "1d2fb70"
}