{
  "transactions": [
    {
      "hash": "0xa500547faeb7d5dcf4d5c4798f6074b42a545b15bbb3aea9e016190bd8d79f2a",
      "transactionType": "CALL",
      "contractName": null,
      "contractAddress": "0x8aafd3ede9adb0ff97c7aebce82a919afb1c8764",
      "function": "sell(uint256)",
      "arguments": [
        "432587"
      ],
      "transaction": {
        "from": "0xc77f7fed3b5cc8249adc428c5f44c9063b9734b4",
        "to": "0x8aafd3ede9adb0ff97c7aebce82a919afb1c8764",
        "gas": "0x16208",
        "value": "0x0",
        "input": "0xe4849b3200000000000000000000000000000000000000000000000000000000000699cb",
        "nonce": "0x150f",
        "chainId": "0xaa36a7"
      },
      "additionalContracts": [],
      "isFixedGasLimit": false
    }
  ],
  "receipts": [
    {
      "status": "0x1",
      "cumulativeGasUsed": "0x8e7276",
      "logs": [
        {
          "address": "0x8aafd3ede9adb0ff97c7aebce82a919afb1c8764",
          "topics": [
            "0xddf252ad1be2c89b69c2b068fc378daa952ba7f163c4a11628f55a4df523b3ef",
            "0x000000000000000000000000c77f7fed3b5cc8249adc428c5f44c9063b9734b4",
            "0x0000000000000000000000000000000000000000000000000000000000000000"
          ],
          "data": "0x0000000000000000000000000000000000000000000000000000000000068c47",
          "blockHash": "0x50ccd80fc3a2e34bfbf814ca6b1bcfad29be1e10097f6b3dc3993144dc55d57f",
          "blockNumber": "0x731c71",
          "transactionHash": "0xa500547faeb7d5dcf4d5c4798f6074b42a545b15bbb3aea9e016190bd8d79f2a",
          "transactionIndex": "0x5d",
          "logIndex": "0xbe",
          "removed": false
        },
        {
          "address": "0x8aafd3ede9adb0ff97c7aebce82a919afb1c8764",
          "topics": [
            "0xddf252ad1be2c89b69c2b068fc378daa952ba7f163c4a11628f55a4df523b3ef",
            "0x000000000000000000000000c77f7fed3b5cc8249adc428c5f44c9063b9734b4",
            "0x000000000000000000000000c77f7fed3b5cc8249adc428c5f44c9063b9734b4"
          ],
          "data": "0x0000000000000000000000000000000000000000000000000000000000000d84",
          "blockHash": "0x50ccd80fc3a2e34bfbf814ca6b1bcfad29be1e10097f6b3dc3993144dc55d57f",
          "blockNumber": "0x731c71",
          "transactionHash": "0xa500547faeb7d5dcf4d5c4798f6074b42a545b15bbb3aea9e016190bd8d79f2a",
          "transactionIndex": "0x5d",
          "logIndex": "0xbf",
          "removed": false
        },
        {
          "address": "0x8aafd3ede9adb0ff97c7aebce82a919afb1c8764",
          "topics": [
            "0x4afcb4a87cdbd9974efdb92ee48bc8d7cd0ae4bf217004db3d080cbaee652ca7"
          ],
          "data": "0x0000000000000000000000000000000000000000000000000000000067905228000000000000000000000000000000000000000000000000001134de57ecd3c4000000000000000000000000000000000000000000000000000000000000082f",
          "blockHash": "0x50ccd80fc3a2e34bfbf814ca6b1bcfad29be1e10097f6b3dc3993144dc55d57f",
          "blockNumber": "0x731c71",
          "transactionHash": "0xa500547faeb7d5dcf4d5c4798f6074b42a545b15bbb3aea9e016190bd8d79f2a",
          "transactionIndex": "0x5d",
          "logIndex": "0xc0",
          "removed": false
        }
      ],
      "logsBloom": "0x00000000000000000000000000000000000000000600000000000000000000000000000000000000000000000000000000000000000000004000000000000000000000000000004000000008000000000000000000000000000000000000000000000000020000000000000000000800020000000000000000000010000000000000000000000000000000000000000000000000000000000000010000000000000000000000000000000000000000004000000000000000000000000000000000000002000000800000000000000000000000000000080000000000000020000000000000000000000000000000000000000000000000000000000000000000",
      "type": "0x2",
      "transactionHash": "0xa500547faeb7d5dcf4d5c4798f6074b42a545b15bbb3aea9e016190bd8d79f2a",
      "transactionIndex": "0x5d",
      "blockHash": "0x50ccd80fc3a2e34bfbf814ca6b1bcfad29be1e10097f6b3dc3993144dc55d57f",
      "blockNumber": "0x731c71",
      "gasUsed": "0xf213",
      "effectiveGasPrice": "0x18ee0247e",
      "from": "0xc77f7fed3b5cc8249adc428c5f44c9063b9734b4",
      "to": "0x8aafd3ede9adb0ff97c7aebce82a919afb1c8764",
      "contractAddress": null
    }
  ],
  "libraries": [],
  "pending": [],
  "returns": {},
  "timestamp": 1737511466,
  "chain": 11155111,
  "commit": "1d2fb70"
}