{
  "transactions": [
    {
      "hash": "0x4289bf3fc254d0fc8b8a16998cdd109712d8d7407c64b08086e9fed6fa76ab22",
      "transactionType": "CALL",
      "contractName": null,
      "contractAddress": "0x8aafd3ede9adb0ff97c7aebce82a919afb1c8764",
      "function": "buy(address)",
      "arguments": [
        "0xC77f7fed3b5Cc8249aDc428c5F44C9063B9734b4"
      ],
      "transaction": {
        "from": "0xc77f7fed3b5cc8249adc428c5f44c9063b9734b4",
        "to": "0x8aafd3ede9adb0ff97c7aebce82a919afb1c8764",
        "gas": "0x156ea",
        "value": "0xde0b6b3a7640000",
        "input": "0xf088d547000000000000000000000000c77f7fed3b5cc8249adc428c5f44c9063b9734b4",
        "nonce": "0x156a",
        "chainId": "0xaa36a7"
      },
      "additionalContracts": [],
      "isFixedGasLimit": false
    }
  ],
  "receipts": [
    {
      "status": "0x1",
      "cumulativeGasUsed": "0xbf95b7",
      "logs": [
        {
          "address": "0x8aafd3ede9adb0ff97c7aebce82a919afb1c8764",
          "topics": [
            "0xddf252ad1be2c89b69c2b068fc378daa952ba7f163c4a11628f55a4df523b3ef",
            "0x0000000000000000000000000000000000000000000000000000000000000000",
            "0x000000000000000000000000c77f7fed3b5cc8249adc428c5f44c9063b9734b4"
          ],
          "data": "0x00000000000000000000000000000000000000000000000a73364a4e098f7a18",
          "blockHash": "0xc907ecaf91a22bf0746237426ef5a25cd5dcfe4553657fcac1659287337bc2c3",
          "blockNumber": "0x731cd3",
          "transactionHash": "0x4289bf3fc254d0fc8b8a16998cdd109712d8d7407c64b08086e9fed6fa76ab22",
          "transactionIndex": "0x71",
          "logIndex": "0xf0",
          "removed": false
        },
        {
          "address": "0x8aafd3ede9adb0ff97c7aebce82a919afb1c8764",
          "topics": [
            "0xddf252ad1be2c89b69c2b068fc378daa952ba7f163c4a11628f55a4df523b3ef",
            "0x0000000000000000000000000000000000000000000000000000000000000000",
            "0x000000000000000000000000c77f7fed3b5cc8249adc428c5f44c9063b9734b4"
          ],
          "data": "0x000000000000000000000000000000000000000000000000081d64b777bb52dc",
          "blockHash": "0xc907ecaf91a22bf0746237426ef5a25cd5dcfe4553657fcac1659287337bc2c3",
          "blockNumber": "0x731cd3",
          "transactionHash": "0x4289bf3fc254d0fc8b8a16998cdd109712d8d7407c64b08086e9fed6fa76ab22",
          "transactionIndex": "0x71",
          "logIndex": "0xf1",
          "removed": false
        },
        {
          "address": "0x8aafd3ede9adb0ff97c7aebce82a919afb1c8764",
          "topics": [
            "0x4afcb4a87cdbd9974efdb92ee48bc8d7cd0ae4bf217004db3d080cbaee652ca7"
          ],
          "data": "0x00000000000000000000000000000000000000000000000000000000679056cc00000000000000000000000000000000000000000000000000124575faff94cb0000000000000000000000000000000000000000000000000de0b6b3a7640000",
          "blockHash": "0xc907ecaf91a22bf0746237426ef5a25cd5dcfe4553657fcac1659287337bc2c3",
          "blockNumber": "0x731cd3",
          "transactionHash": "0x4289bf3fc254d0fc8b8a16998cdd109712d8d7407c64b08086e9fed6fa76ab22",
          "transactionIndex": "0x71",
          "logIndex": "0xf2",
          "removed": false
        }
      ],
      "logsBloom": "0x00000000000000000000000000000000000000000600000000000000000000000000000000000000000000000000000000000000000000004000000000000000000000000000004000000008000000000000000000000000000000000000000000000000020000000000000000000800020000000000000000000010000000000000000000000000000000000000000000000000000000000000010000000000000000000000000000000000000000004000000000000000000000000000000000000002000000800000000000000000000000000000080000000000000020000000000000000000000000000000000000000000000000000000000000000000",
      "type": "0x2",
      "transactionHash": "0x4289bf3fc254d0fc8b8a16998cdd109712d8d7407c64b08086e9fed6fa76ab22",
      "transactionIndex": "0x71",
      "blockHash": "0xc907ecaf91a22bf0746237426ef5a25cd5dcfe4553657fcac1659287337bc2c3",
      "blockNumber": "0x731cd3",
      "gasUsed": "0xf844",
      "effectiveGasPrice": "0x905b77c7",
      "from": "0xc77f7fed3b5cc8249adc428c5f44c9063b9734b4",
      "to": "0x8aafd3ede9adb0ff97c7aebce82a919afb1c8764",
      "contractAddress": null
    }
  ],
  "libraries": [],
  "pending": [],
  "returns": {},
  "timestamp": 1737512652,
  "chain": 11155111,
  "commit": "1d2fb70"
}