{
  "transactions": [
    {
      "hash": "0xb27d683f671007f67891101f3fbb2d22a6d9c04525c738dbc978788e3247e522",
      "transactionType": "CALL",
      "contractName": null,
      "contractAddress": "0xd7bc75898e513accccf720a874d44dab5a4b6223",
      "function": "buy(address)",
      "arguments": [
        "0xC77f7fed3b5Cc8249aDc428c5F44C9063B9734b4"
      ],
      "transaction": {
        "from": "0xc77f7fed3b5cc8249adc428c5f44c9063b9734b4",
        "to": "0xd7bc75898e513accccf720a874d44dab5a4b6223",
        "gas": "0x1b30c",
        "value": "0x2386f26fc10000",
        "input": "0xf088d547000000000000000000000000c77f7fed3b5cc8249adc428c5f44c9063b9734b4",
        "nonce": "0xc0",
        "chainId": "0xaa36a7"
      },
      "additionalContracts": [],
      "isFixedGasLimit": false
    }
  ],
  "receipts": [
    {
      "status": "0x1",
      "cumulativeGasUsed": "0x60f756",
      "logs": [
        {
          "address": "0xd7bc75898e513accccf720a874d44dab5a4b6223",
          "topics": [
            "0xddf252ad1be2c89b69c2b068fc378daa952ba7f163c4a11628f55a4df523b3ef",
            "0x0000000000000000000000000000000000000000000000000000000000000000",
            "0x000000000000000000000000c77f7fed3b5cc8249adc428c5f44c9063b9734b4"
          ],
          "data": "0x0000000000000000000000000000000000000000000000008963bb6357aabcee",
          "blockHash": "0x7eb533d8b681300efa18404eac662343f0cec0110560ac87459e8679cfaa57c2",
          "blockNumber": "0x72393d",
          "transactionHash": "0xb27d683f671007f67891101f3fbb2d22a6d9c04525c738dbc978788e3247e522",
          "transactionIndex": "0x2e",
          "logIndex": "0x38",
          "removed": false
        },
        {
          "address": "0xd7bc75898e513accccf720a874d44dab5a4b6223",
          "topics": [
            "0xddf252ad1be2c89b69c2b068fc378daa952ba7f163c4a11628f55a4df523b3ef",
            "0x0000000000000000000000000000000000000000000000000000000000000000",
            "0x000000000000000000000000c77f7fed3b5cc8249adc428c5f44c9063b9734b4"
          ],
          "data": "0x000000000000000000000000000000000000000000000000006ab00cb1dff337",
          "blockHash": "0x7eb533d8b681300efa18404eac662343f0cec0110560ac87459e8679cfaa57c2",
          "blockNumber": "0x72393d",
          "transactionHash": "0xb27d683f671007f67891101f3fbb2d22a6d9c04525c738dbc978788e3247e522",
          "transactionIndex": "0x2e",
          "logIndex": "0x39",
          "removed": false
        },
        {
          "address": "0xd7bc75898e513accccf720a874d44dab5a4b6223",
          "topics": [
            "0x4afcb4a87cdbd9974efdb92ee48bc8d7cd0ae4bf217004db3d080cbaee652ca7"
          ],
          "data": "0x000000000000000000000000000000000000000000000000000000006785a02400000000000000000000000000000000000000000000000000038d7f86f9857a000000000000000000000000000000000000000000000000002386f26fc10000",
          "blockHash": "0x7eb533d8b681300efa18404eac662343f0cec0110560ac87459e8679cfaa57c2",
          "blockNumber": "0x72393d",
          "transactionHash": "0xb27d683f671007f67891101f3fbb2d22a6d9c04525c738dbc978788e3247e522",
          "transactionIndex": "0x2e",
          "logIndex": "0x3a",
          "removed": false
        }
      ],
      "logsBloom": "0x00000000000000000000000000000000000000000000000000000000000000000000000000000000000000000000000000000000000000004000000000000000000000000000000000000008000000000000000000000000000000000000000000000000020000000000000000000800020000000000000000000010000000000000000000000000000000000000000000000000000000000000010000000000000000000000000000000000000000004000001000000000000000000000000000000002000000800000000000004000000000000000080000000000000020000000000000000000000000000000000000000000080000000000000000000000",
      "type": "0x2",
      "transactionHash": "0xb27d683f671007f67891101f3fbb2d22a6d9c04525c738dbc978788e3247e522",
      "transactionIndex": "0x2e",
      "blockHash": "0x7eb533d8b681300efa18404eac662343f0cec0110560ac87459e8679cfaa57c2",
      "blockNumber": "0x72393d",
      "gasUsed": "0x13af8",
      "effectiveGasPrice": "0x310e8100",
      "from": "0xc77f7fed3b5cc8249adc428c5f44c9063b9734b4",
      "to": "0xd7bc75898e513accccf720a874d44dab5a4b6223",
      "contractAddress": null
    }
  ],
  "libraries": [],
  "pending": [],
  "returns": {},
  "timestamp": 1736810533,
  "chain": 11155111,
  "commit": "51a374b"
}