{
  "transactions": [
    {
      "hash": "0x0f86861a393a767b28e2056fcf3b1a8c6e5f745a26de76ee679198af96ad071f",
      "transactionType": "CALL",
      "contractName": null,
      "contractAddress": "0x8aafd3ede9adb0ff97c7aebce82a919afb1c8764",
      "function": "sell(uint256)",
      "arguments": [
        "16357731269972954"
      ],
      "transaction": {
        "from": "0xc77f7fed3b5cc8249adc428c5f44c9063b9734b4",
        "to": "0x8aafd3ede9adb0ff97c7aebce82a919afb1c8764",
        "gas": "0x1724d",
        "value": "0x0",
        "input": "0xe4849b32000000000000000000000000000000000000000000000000003a1d4519ad93da",
        "nonce": "0x13ea",
        "chainId": "0xaa36a7"
      },
      "additionalContracts": [],
      "isFixedGasLimit": false
    }
  ],
  "receipts": [
    {
      "status": "0x1",
      "cumulativeGasUsed": "0x8b02ea",
      "logs": [
        {
          "address": "0x8aafd3ede9adb0ff97c7aebce82a919afb1c8764",
          "topics": [
            "0xddf252ad1be2c89b69c2b068fc378daa952ba7f163c4a11628f55a4df523b3ef",
            "0x000000000000000000000000c77f7fed3b5cc8249adc428c5f44c9063b9734b4",
            "0x0000000000000000000000000000000000000000000000000000000000000000"
          ],
          "data": "0x0000000000000000000000000000000000000000000000000039a6407395a933",
          "blockHash": "0x28dd3da57a592e556157ef4b796aea88c8380f356b71925176fcfe6d0a5c2310",
          "blockNumber": "0x731b1a",
          "transactionHash": "0x0f86861a393a767b28e2056fcf3b1a8c6e5f745a26de76ee679198af96ad071f",
          "transactionIndex": "0x52",
          "logIndex": "0x76",
          "removed": false
        },
        {
          "address": "0x8aafd3ede9adb0ff97c7aebce82a919afb1c8764",
          "topics": [
            "0xddf252ad1be2c89b69c2b068fc378daa952ba7f163c4a11628f55a4df523b3ef",
            "0x000000000000000000000000c77f7fed3b5cc8249adc428c5f44c9063b9734b4",
            "0x000000000000000000000000c77f7fed3b5cc8249adc428c5f44c9063b9734b4"
          ],
          "data": "0x00000000000000000000000000000000000000000000000000007704a617eaa7",
          "blockHash": "0x28dd3da57a592e556157ef4b796aea88c8380f356b71925176fcfe6d0a5c2310",
          "blockNumber": "0x731b1a",
          "transactionHash": "0x0f86861a393a767b28e2056fcf3b1a8c6e5f745a26de76ee679198af96ad071f",
          "transactionIndex": "0x52",
          "logIndex": "0x77",
          "removed": false
        },
        {
          "address": "0x8aafd3ede9adb0ff97c7aebce82a919afb1c8764",
          "topics": [
            "0x4afcb4a87cdbd9974efdb92ee48bc8d7cd0ae4bf217004db3d080cbaee652ca7"
          ],
          "data": "0x0000000000000000000000000000000000000000000000000000000067904208000000000000000000000000000000000000000000000000000de7c22761185600000000000000000000000000000000000000000000000000003a3ac3d2c141",
          "blockHash": "0x28dd3da57a592e556157ef4b796aea88c8380f356b71925176fcfe6d0a5c2310",
          "blockNumber": "0x731b1a",
          "transactionHash": "0x0f86861a393a767b28e2056fcf3b1a8c6e5f745a26de76ee679198af96ad071f",
          "transactionIndex": "0x52",
          "logIndex": "0x78",
          "removed": false
        }
      ],
      "logsBloom": "0x00000000000000000000000000000000000000000600000000000000000000000000000000000000000000000000000000000000000000004000000000000000000000000000004000000008000000000000000000000000000000000000000000000000020000000000000000000800020000000000000000000010000000000000000000000000000000000000000000000000000000000000010000000000000000000000000000000000000000004000000000000000000000000000000000000002000000800000000000000000000000000000080000000000000020000000000000000000000000000000000000000000000000000000000000000000",
      "type": "0x2",
      "transactionHash": "0x0f86861a393a767b28e2056fcf3b1a8c6e5f745a26de76ee679198af96ad071f",
      "transactionIndex": "0x52",
      "blockHash": "0x28dd3da57a592e556157ef4b796aea88c8380f356b71925176fcfe6d0a5c2310",
      "blockNumber": "0x731b1a",
      "gasUsed": "0xfd33",
      "effectiveGasPrice": "0x9291b89a",
      "from": "0xc77f7fed3b5cc8249adc428c5f44c9063b9734b4",
      "to": "0x8aafd3ede9adb0ff97c7aebce82a919afb1c8764",
      "contractAddress": null
    }
  ],
  "libraries": [],
  "pending": [],
  "returns": {},
  "timestamp": 1737507338,
  "chain": 11155111,
  "commit": "1d2fb70"
}