{
  "transactions": [
    {
      "hash": "0xb9e7330e423e1bb2eb28df3ad28b37c99782d46800e4ce662a48e07bcf38133b",
      "transactionType": "CALL",
      "contractName": null,
      "contractAddress": "0x8aafd3ede9adb0ff97c7aebce82a919afb1c8764",
      "function": "sell(uint256)",
      "arguments": [
        "97331255353441"
      ],
      "transaction": {
        "from": "0xc77f7fed3b5cc8249adc428c5f44c9063b9734b4",
        "to": "0x8aafd3ede9adb0ff97c7aebce82a919afb1c8764",
        "gas": "0x15daa",
        "value": "0x0",
        "input": "0xe4849b3200000000000000000000000000000000000000000000000000005885b2e6a061",
        "nonce": "0x1589",
        "chainId": "0xaa36a7"
      },
      "additionalContracts": [],
      "isFixedGasLimit": false
    }
  ],
  "receipts": [
    {
      "status": "0x1",
      "cumulativeGasUsed": "0xc5950c",
      "logs": [
        {
          "address": "0x8aafd3ede9adb0ff97c7aebce82a919afb1c8764",
          "topics": [
            "0xddf252ad1be2c89b69c2b068fc378daa952ba7f163c4a11628f55a4df523b3ef",
            "0x000000000000000000000000c77f7fed3b5cc8249adc428c5f44c9063b9734b4",
            "0x0000000000000000000000000000000000000000000000000000000000000000"
          ],
          "data": "0x000000000000000000000000000000000000000000000000000057d067bdde96",
          "blockHash": "0x420fddf82bb3655ecff35036e0c15246bf7683458b7b8f2393340fa1bf54079c",
          "blockNumber": "0x731cf7",
          "transactionHash": "0xb9e7330e423e1bb2eb28df3ad28b37c99782d46800e4ce662a48e07bcf38133b",
          "transactionIndex": "0x84",
          "logIndex": "0xf9",
          "removed": false
        },
        {
          "address": "0x8aafd3ede9adb0ff97c7aebce82a919afb1c8764",
          "topics": [
            "0xddf252ad1be2c89b69c2b068fc378daa952ba7f163c4a11628f55a4df523b3ef",
            "0x000000000000000000000000c77f7fed3b5cc8249adc428c5f44c9063b9734b4",
            "0x000000000000000000000000c77f7fed3b5cc8249adc428c5f44c9063b9734b4"
          ],
          "data": "0x000000000000000000000000000000000000000000000000000000b54b28c1cb",
          "blockHash": "0x420fddf82bb3655ecff35036e0c15246bf7683458b7b8f2393340fa1bf54079c",
          "blockNumber": "0x731cf7",
          "transactionHash": "0xb9e7330e423e1bb2eb28df3ad28b37c99782d46800e4ce662a48e07bcf38133b",
          "transactionIndex": "0x84",
          "logIndex": "0xfa",
          "removed": false
        },
        {
          "address": "0x8aafd3ede9adb0ff97c7aebce82a919afb1c8764",
          "topics": [
            "0x4afcb4a87cdbd9974efdb92ee48bc8d7cd0ae4bf217004db3d080cbaee652ca7"
          ],
          "data": "0x000000000000000000000000000000000000000000000000000000006790587c0000000000000000000000000000000000000000000000000012a97bc0d35c60000000000000000000000000000000000000000000000000000000770a238cc5",
          "blockHash": "0x420fddf82bb3655ecff35036e0c15246bf7683458b7b8f2393340fa1bf54079c",
          "blockNumber": "0x731cf7",
          "transactionHash": "0xb9e7330e423e1bb2eb28df3ad28b37c99782d46800e4ce662a48e07bcf38133b",
          "transactionIndex": "0x84",
          "logIndex": "0xfb",
          "removed": false
        }
      ],
      "logsBloom": "0x00000000000000000000000000000000000000000600000000000000000000000000000000000000000000000000000000000000000000004000000000000000000000000000004000000008000000000000000000000000000000000000000000000000020000000000000000000800020000000000000000000010000000000000000000000000000000000000000000000000000000000000010000000000000000000000000000000000000000004000000000000000000000000000000000000002000000800000000000000000000000000000080000000000000020000000000000000000000000000000000000000000000000000000000000000000",
      "type": "0x2",
      "transactionHash": "0xb9e7330e423e1bb2eb28df3ad28b37c99782d46800e4ce662a48e07bcf38133b",
      "transactionIndex": "0x84",
      "blockHash": "0x420fddf82bb3655ecff35036e0c15246bf7683458b7b8f2393340fa1bf54079c",
      "blockNumber": "0x731cf7",
      "gasUsed": "0xfd27",
      "effectiveGasPrice": "0x76f07604",
      "from": "0xc77f7fed3b5cc8249adc428c5f44c9063b9734b4",
      "to": "0x8aafd3ede9adb0ff97c7aebce82a919afb1c8764",
      "contractAddress": null
    }
  ],
  "libraries": [],
  "pending": [],
  "returns": {},
  "timestamp": 1737513085,
  "chain": 11155111,
  "commit": "1d2fb70"
}