{
  "transactions": [
    {
      "hash": "0x70e7c9b7882d0b9f04206759e908c6407201ae68dbae45d042ec1d10e14b1bb6",
      "transactionType": "CALL",
      "contractName": null,
      "contractAddress": "0x8aafd3ede9adb0ff97c7aebce82a919afb1c8764",
      "function": "sell(uint256)",
      "arguments": [
        "2484843560790108970"
      ],
      "transaction": {
        "from": "0xc77f7fed3b5cc8249adc428c5f44c9063b9734b4",
        "to": "0x8aafd3ede9adb0ff97c7aebce82a919afb1c8764",
        "gas": "0x15dca",
        "value": "0x0",
        "input": "0xe4849b32000000000000000000000000000000000000000000000000227bf00da34fab2a",
        "nonce": "0x1311",
        "chainId": "0xaa36a7"
      },
      "additionalContracts": [],
      "isFixedGasLimit": false
    }
  ],
  "receipts": [
    {
      "status": "0x1",
      "cumulativeGasUsed": "0x21370de",
      "logs": [
        {
          "address": "0x8aafd3ede9adb0ff97c7aebce82a919afb1c8764",
          "topics": [
            "0xddf252ad1be2c89b69c2b068fc378daa952ba7f163c4a11628f55a4df523b3ef",
            "0x000000000000000000000000c77f7fed3b5cc8249adc428c5f44c9063b9734b4",
            "0x0000000000000000000000000000000000000000000000000000000000000000"
          ],
          "data": "0x0000000000000000000000000000000000000000000000002235506fd5346843",
          "blockHash": "0x6795998d101dd1dbd7f7719baf60844af1bcbd6c4890ae8e68a03b431623ca7f",
          "blockNumber": "0x731a1d",
          "transactionHash": "0x70e7c9b7882d0b9f04206759e908c6407201ae68dbae45d042ec1d10e14b1bb6",
          "transactionIndex": "0x71",
          "logIndex": "0x10de",
          "removed": false
        },
        {
          "address": "0x8aafd3ede9adb0ff97c7aebce82a919afb1c8764",
          "topics": [
            "0xddf252ad1be2c89b69c2b068fc378daa952ba7f163c4a11628f55a4df523b3ef",
            "0x000000000000000000000000c77f7fed3b5cc8249adc428c5f44c9063b9734b4",
            "0x000000000000000000000000c77f7fed3b5cc8249adc428c5f44c9063b9734b4"
          ],
          "data": "0x00000000000000000000000000000000000000000000000000469f9dce1b42e7",
          "blockHash": "0x6795998d101dd1dbd7f7719baf60844af1bcbd6c4890ae8e68a03b431623ca7f",
          "blockNumber": "0x731a1d",
          "transactionHash": "0x70e7c9b7882d0b9f04206759e908c6407201ae68dbae45d042ec1d10e14b1bb6",
          "transactionIndex": "0x71",
          "logIndex": "0x10df",
          "removed": false
        },
        {
          "address": "0x8aafd3ede9adb0ff97c7aebce82a919afb1c8764",
          "topics": [
            "0x4afcb4a87cdbd9974efdb92ee48bc8d7cd0ae4bf217004db3d080cbaee652ca7"
          ],
          "data": "0x000000000000000000000000000000000000000000000000000000006790362c000000000000000000000000000000000000000000000000000b75900b09f6bf000000000000000000000000000000000000000000000000001c790b95f756d2",
          "blockHash": "0x6795998d101dd1dbd7f7719baf60844af1bcbd6c4890ae8e68a03b431623ca7f",
          "blockNumber": "0x731a1d",
          "transactionHash": "0x70e7c9b7882d0b9f04206759e908c6407201ae68dbae45d042ec1d10e14b1bb6",
          "transactionIndex": "0x71",
          "logIndex": "0x10e0",
          "removed": false
        }
      ],
      "logsBloom": "0x00000000000000000000000000000000000000000600000000000000000000000000000000000000000000000000000000000000000000004000000000000000000000000000004000000008000000000000000000000000000000000000000000000000020000000000000000000800020000000000000000000010000000000000000000000000000000000000000000000000000000000000010000000000000000000000000000000000000000004000000000000000000000000000000000000002000000800000000000000000000000000000080000000000000020000000000000000000000000000000000000000000000000000000000000000000",
      "type": "0x2",
      "transactionHash": "0x70e7c9b7882d0b9f04206759e908c6407201ae68dbae45d042ec1d10e14b1bb6",
      "transactionIndex": "0x71",
      "blockHash": "0x6795998d101dd1dbd7f7719baf60844af1bcbd6c4890ae8e68a03b431623ca7f",
      "blockNumber": "0x731a1d",
      "gasUsed": "0xfd3f",
      "effectiveGasPrice": "0x472cc740",
      "from": "0xc77f7fed3b5cc8249adc428c5f44c9063b9734b4",
      "to": "0x8aafd3ede9adb0ff97c7aebce82a919afb1c8764",
      "contractAddress": null
    }
  ],
  "libraries": [],
  "pending": [],
  "returns": {},
  "timestamp": 1737504302,
  "chain": 11155111,
  "commit": "1d2fb70"
}