{
  "transactions": [
    {
      "hash": "0x04a13d8a84167b2d10af336feb2247954d435fd52e43009fffab6179193b97e0",
      "transactionType": "CALL",
      "contractName": null,
      "contractAddress": "0x8aafd3ede9adb0ff97c7aebce82a919afb1c8764",
      "function": "sell(uint256)",
      "arguments": [
        "1701745632321169222"
      ],
      "transaction": {
        "from": "0xc77f7fed3b5cc8249adc428c5f44c9063b9734b4",
        "to": "0x8aafd3ede9adb0ff97c7aebce82a919afb1c8764",
        "gas": "0x15dca",
        "value": "0x0",
        "input": "0xe4849b32000000000000000000000000000000000000000000000000179dd0a2e8936746",
        "nonce": "0x14dc",
        "chainId": "0xaa36a7"
      },
      "additionalContracts": [],
      "isFixedGasLimit": false
    }
  ],
  "receipts": [
    {
      "status": "0x1",
      "cumulativeGasUsed": "0xb144ae",
      "logs": [
        {
          "address": "0x8aafd3ede9adb0ff97c7aebce82a919afb1c8764",
          "topics": [
            "0xddf252ad1be2c89b69c2b068fc378daa952ba7f163c4a11628f55a4df523b3ef",
            "0x000000000000000000000000c77f7fed3b5cc8249adc428c5f44c9063b9734b4",
            "0x0000000000000000000000000000000000000000000000000000000000000000"
          ],
          "data": "0x000000000000000000000000000000000000000000000000176d72cea94672bd",
          "blockHash": "0xa96b7e5186aea41558155578236c7e3dd072c2f69213ede3ab152913e412d6df",
          "blockNumber": "0x731c3a",
          "transactionHash": "0x04a13d8a84167b2d10af336feb2247954d435fd52e43009fffab6179193b97e0",
          "transactionIndex": "0x71",
          "logIndex": "0x97",
          "removed": false
        },
        {
          "address": "0x8aafd3ede9adb0ff97c7aebce82a919afb1c8764",
          "topics": [
            "0xddf252ad1be2c89b69c2b068fc378daa952ba7f163c4a11628f55a4df523b3ef",
            "0x000000000000000000000000c77f7fed3b5cc8249adc428c5f44c9063b9734b4",
            "0x000000000000000000000000c77f7fed3b5cc8249adc428c5f44c9063b9734b4"
          ],
          "data": "0x00000000000000000000000000000000000000000000000000305dd43f4cf489",
          "blockHash": "0xa96b7e5186aea41558155578236c7e3dd072c2f69213ede3ab152913e412d6df",
          "blockNumber": "0x731c3a",
          "transactionHash": "0x04a13d8a84167b2d10af336feb2247954d435fd52e43009fffab6179193b97e0",
          "transactionIndex": "0x71",
          "logIndex": "0x98",
          "removed": false
        },
        {
          "address": "0x8aafd3ede9adb0ff97c7aebce82a919afb1c8764",
          "topics": [
            "0x4afcb4a87cdbd9974efdb92ee48bc8d7cd0ae4bf217004db3d080cbaee652ca7"
          ],
          "data": "0x0000000000000000000000000000000000000000000000000000000067904f940000000000000000000000000000000000000000000000000010b02dc4f84723000000000000000000000000000000000000000000000000001c65e396a7a6a7",
          "blockHash": "0xa96b7e5186aea41558155578236c7e3dd072c2f69213ede3ab152913e412d6df",
          "blockNumber": "0x731c3a",
          "transactionHash": "0x04a13d8a84167b2d10af336feb2247954d435fd52e43009fffab6179193b97e0",
          "transactionIndex": "0x71",
          "logIndex": "0x99",
          "removed": false
        }
      ],
      "logsBloom": "0x00000000000000000000000000000000000000000600000000000000000000000000000000000000000000000000000000000000000000004000000000000000000000000000004000000008000000000000000000000000000000000000000000000000020000000000000000000800020000000000000000000010000000000000000000000000000000000000000000000000000000000000010000000000000000000000000000000000000000004000000000000000000000000000000000000002000000800000000000000000000000000000080000000000000020000000000000000000000000000000000000000000000000000000000000000000",
      "type": "0x2",
      "transactionHash": "0x04a13d8a84167b2d10af336feb2247954d435fd52e43009fffab6179193b97e0",
      "transactionIndex": "0x71",
      "blockHash": "0xa96b7e5186aea41558155578236c7e3dd072c2f69213ede3ab152913e412d6df",
      "blockNumber": "0x731c3a",
      "gasUsed": "0xfd3f",
      "effectiveGasPrice": "0x14a8b132d",
      "from": "0xc77f7fed3b5cc8249adc428c5f44c9063b9734b4",
      "to": "0x8aafd3ede9adb0ff97c7aebce82a919afb1c8764",
      "contractAddress": null
    }
  ],
  "libraries": [],
  "pending": [],
  "returns": {},
  "timestamp": 1737510806,
  "chain": 11155111,
  "commit": "1d2fb70"
}