{
  "transactions": [
    {
      "hash": "0xb824ff978a4668337300e07f1607a583bd33997a41aa96b77fa520a0892e5989",
      "transactionType": "CALL",
      "contractName": null,
      "contractAddress": "0x8aafd3ede9adb0ff97c7aebce82a919afb1c8764",
      "function": "sell(uint256)",
      "arguments": [
        "379588418263060"
      ],
      "transaction": {
        "from": "0xc77f7fed3b5cc8249adc428c5f44c9063b9734b4",
        "to": "0x8aafd3ede9adb0ff97c7aebce82a919afb1c8764",
        "gas": "0x1724d",
        "value": "0x0",
        "input": "0xe4849b320000000000000000000000000000000000000000000000000001593bd0d4d814",
        "nonce": "0xf88",
        "chainId": "0xaa36a7"
      },
      "additionalContracts": [],
      "isFixedGasLimit": false
    }
  ],
  "receipts": [
    {
      "status": "0x1",
      "cumulativeGasUsed": "0xcd588d",
      "logs": [
        {
          "address": "0x8aafd3ede9adb0ff97c7aebce82a919afb1c8764",
          "topics": [
            "0xddf252ad1be2c89b69c2b068fc378daa952ba7f163c4a11628f55a4df523b3ef",
            "0x000000000000000000000000c77f7fed3b5cc8249adc428c5f44c9063b9734b4",
            "0x0000000000000000000000000000000000000000000000000000000000000000"
          ],
          "data": "0x00000000000000000000000000000000000000000000000000015678c6f8015c",
          "blockHash": "0x802c5e032f677d4ce0cc407c1e427e3e6e767d09508fd992c49bab33d81d16c1",
          "blockNumber": "0x7315ed",
          "transactionHash": "0xb824ff978a4668337300e07f1607a583bd33997a41aa96b77fa520a0892e5989",
          "transactionIndex": "0x82",
          "logIndex": "0xc7",
          "removed": false
        },
        {
          "address": "0x8aafd3ede9adb0ff97c7aebce82a919afb1c8764",
          "topics": [
            "0xddf252ad1be2c89b69c2b068fc378daa952ba7f163c4a11628f55a4df523b3ef",
            "0x000000000000000000000000c77f7fed3b5cc8249adc428c5f44c9063b9734b4",
            "0x000000000000000000000000c77f7fed3b5cc8249adc428c5f44c9063b9734b4"
          ],
          "data": "0x000000000000000000000000000000000000000000000000000002c309dcd6b8",
          "blockHash": "0x802c5e032f677d4ce0cc407c1e427e3e6e767d09508fd992c49bab33d81d16c1",
          "blockNumber": "0x7315ed",
          "transactionHash": "0xb824ff978a4668337300e07f1607a583bd33997a41aa96b77fa520a0892e5989",
          "transactionIndex": "0x82",
          "logIndex": "0xc8",
          "removed": false
        },
        {
          "address": "0x8aafd3ede9adb0ff97c7aebce82a919afb1c8764",
          "topics": [
            "0x4afcb4a87cdbd9974efdb92ee48bc8d7cd0ae4bf217004db3d080cbaee652ca7"
          ],
          "data": "0x00000000000000000000000000000000000000000000000000000000679003c80000000000000000000000000000000000000000000000000004c27f5aa1b41f00000000000000000000000000000000000000000000000000000076683445ed",
          "blockHash": "0x802c5e032f677d4ce0cc407c1e427e3e6e767d09508fd992c49bab33d81d16c1",
          "blockNumber": "0x7315ed",
          "transactionHash": "0xb824ff978a4668337300e07f1607a583bd33997a41aa96b77fa520a0892e5989",
          "transactionIndex": "0x82",
          "logIndex": "0xc9",
          "removed": false
        }
      ],
      "logsBloom": "0x00000000000000000000000000000000000000000600000000000000000000000000000000000000000000000000000000000000000000004000000000000000000000000000004000000008000000000000000000000000000000000000000000000000020000000000000000000800020000000000000000000010000000000000000000000000000000000000000000000000000000000000010000000000000000000000000000000000000000004000000000000000000000000000000000000002000000800000000000000000000000000000080000000000000020000000000000000000000000000000000000000000000000000000000000000000",
      "type": "0x2",
      "transactionHash": "0xb824ff978a4668337300e07f1607a583bd33997a41aa96b77fa520a0892e5989",
      "transactionIndex": "0x82",
      "blockHash": "0x802c5e032f677d4ce0cc407c1e427e3e6e767d09508fd992c49bab33d81d16c1",
      "blockNumber": "0x7315ed",
      "gasUsed": "0xfd33",
      "effectiveGasPrice": "0x63631d09",
      "from": "0xc77f7fed3b5cc8249adc428c5f44c9063b9734b4",
      "to": "0x8aafd3ede9adb0ff97c7aebce82a919afb1c8764",
      "contractAddress": null
    }
  ],
  "libraries": [],
  "pending": [],
  "returns": {},
  "timestamp": 1737491400,
  "chain": 11155111,
  "commit": "1d2fb70"
}