{
  "transactions": [
    {
      "hash": "0xf5864ff5f22525c296e9fe715979e9045b2fa89102f4281c893f110e18c7f63d",
      "transactionType": "CALL",
      "contractName": null,
      "contractAddress": "0xbf4a322f1496e5c3d34a9bcdb4c60567b38c7de2",
      "function": "buy(address)",
      "arguments": [
        "0xC77f7fed3b5Cc8249aDc428c5F44C9063B9734b4"
      ],
      "transaction": {
        "from": "0xc77f7fed3b5cc8249adc428c5f44c9063b9734b4",
        "to": "0xbf4a322f1496e5c3d34a9bcdb4c60567b38c7de2",
        "gas": "0x1b309",
        "value": "0xde0b6b3a7640000",
        "input": "0xf088d547000000000000000000000000c77f7fed3b5cc8249adc428c5f44c9063b9734b4",
        "nonce": "0xdec",
        "chainId": "0xaa36a7"
      },
      "additionalContracts": [],
      "isFixedGasLimit": false
    }
  ],
  "receipts": [
    {
      "status": "0x1",
      "cumulativeGasUsed": "0xf61df7",
      "logs": [
        {
          "address": "0xbf4a322f1496e5c3d34a9bcdb4c60567b38c7de2",
          "topics": [
            "0xddf252ad1be2c89b69c2b068fc378daa952ba7f163c4a11628f55a4df523b3ef",
            "0x0000000000000000000000000000000000000000000000000000000000000000",
            "0x000000000000000000000000c77f7fed3b5cc8249adc428c5f44c9063b9734b4"
          ],
          "data": "0x000000000000000000000000000000000000000000000034a0862ce692fc8e7e",
          "blockHash": "0xde86de606c12114828cec6a82d968a60d309a56c0d197e10d51bd66ddd098136",
          "blockNumber": "0x7266cc",
          "transactionHash": "0xf5864ff5f22525c296e9fe715979e9045b2fa89102f4281c893f110e18c7f63d",
          "transactionIndex": "0x50",
          "logIndex": "0x7b",
          "removed": false
        },
        {
          "address": "0xbf4a322f1496e5c3d34a9bcdb4c60567b38c7de2",
          "topics": [
            "0xddf252ad1be2c89b69c2b068fc378daa952ba7f163c4a11628f55a4df523b3ef",
            "0x0000000000000000000000000000000000000000000000000000000000000000",
            "0x000000000000000000000000c77f7fed3b5cc8249adc428c5f44c9063b9734b4"
          ],
          "data": "0x00000000000000000000000000000000000000000000000028dddfe1044e23d3",
          "blockHash": "0xde86de606c12114828cec6a82d968a60d309a56c0d197e10d51bd66ddd098136",
          "blockNumber": "0x7266cc",
          "transactionHash": "0xf5864ff5f22525c296e9fe715979e9045b2fa89102f4281c893f110e18c7f63d",
          "transactionIndex": "0x50",
          "logIndex": "0x7c",
          "removed": false
        },
        {
          "address": "0xbf4a322f1496e5c3d34a9bcdb4c60567b38c7de2",
          "topics": [
            "0x4afcb4a87cdbd9974efdb92ee48bc8d7cd0ae4bf217004db3d080cbaee652ca7"
          ],
          "data": "0x000000000000000000000000000000000000000000000000000000006787c49400000000000000000000000000000000000000000000000000039f7e5983024a0000000000000000000000000000000000000000000000000de0b6b3a7640000",
          "blockHash": "0xde86de606c12114828cec6a82d968a60d309a56c0d197e10d51bd66ddd098136",
          "blockNumber": "0x7266cc",
          "transactionHash": "0xf5864ff5f22525c296e9fe715979e9045b2fa89102f4281c893f110e18c7f63d",
          "transactionIndex": "0x50",
          "logIndex": "0x7d",
          "removed": false
        }
      ],
      "logsBloom": "0x00000000000000000000000000000000000000000000000000000000000000000000000000000000000000000000000000000000000000004000000000000000000000000000000000000008000000000000001000000000000000000000000000000000020000000000000000000800020000000000000000000010000000000000000000000000000000000000000000000000000008000000010000000000000000000000000000000000000000004000000000000000000000000000000000000002000000800000000000001000000000000000080000000000000020000000000000000000000000000000000000000000000000000000000000000000",
      "type": "0x2",
      "transactionHash": "0xf5864ff5f22525c296e9fe715979e9045b2fa89102f4281c893f110e18c7f63d",
      "transactionIndex": "0x50",
      "blockHash": "0xde86de606c12114828cec6a82d968a60d309a56c0d197e10d51bd66ddd098136",
      "blockNumber": "0x7266cc",
      "gasUsed": "0x13af6",
      "effectiveGasPrice": "0x24bab2f00",
      "from": "0xc77f7fed3b5cc8249adc428c5f44c9063b9734b4",
      "to": "0xbf4a322f1496e5c3d34a9bcdb4c60567b38c7de2",
      "contractAddress": null
    }
  ],
  "libraries": [],
  "pending": [],
  "returns": {},
  "timestamp": 1736950933,
  "chain": 11155111,
  "commit": "51a374b"
}