{
  "transactions": [
    {
      "hash": "0xc8ad903b1eca8a81db85600991388c1be7858f1edea8b5c23fbe6d0a5adb1124",
      "transactionType": "CALL",
      "contractName": null,
      "contractAddress": "0x8aafd3ede9adb0ff97c7aebce82a919afb1c8764",
      "function": "sell(uint256)",
      "arguments": [
        "12888685992212302"
      ],
      "transaction": {
        "from": "0xc77f7fed3b5cc8249adc428c5f44c9063b9734b4",
        "to": "0x8aafd3ede9adb0ff97c7aebce82a919afb1c8764",
        "gas": "0x1724d",
        "value": "0x0",
        "input": "0xe4849b32000000000000000000000000000000000000000000000000002dca310e2ff74e",
        "nonce": "0x152e",
        "chainId": "0xaa36a7"
      },
      "additionalContracts": [],
      "isFixedGasLimit": false
    }
  ],
  "receipts": [
    {
      "status": "0x1",
      "cumulativeGasUsed": "0x61673c",
      "logs": [
        {
          "address": "0x8aafd3ede9adb0ff97c7aebce82a919afb1c8764",
          "topics": [
            "0xddf252ad1be2c89b69c2b068fc378daa952ba7f163c4a11628f55a4df523b3ef",
            "0x000000000000000000000000c77f7fed3b5cc8249adc428c5f44c9063b9734b4",
            "0x0000000000000000000000000000000000000000000000000000000000000000"
          ],
          "data": "0x000000000000000000000000000000000000000000000000002d6c6a01c92eac",
          "blockHash": "0xac3824f36bf5909f484c0e1a2d1a76d34e0a1ea6b30e2ac5397610ef4fd80ab3",
          "blockNumber": "0x731c90",
          "transactionHash": "0xc8ad903b1eca8a81db85600991388c1be7858f1edea8b5c23fbe6d0a5adb1124",
          "transactionIndex": "0x5d",
          "logIndex": "0x6b",
          "removed": false
        },
        {
          "address": "0x8aafd3ede9adb0ff97c7aebce82a919afb1c8764",
          "topics": [
            "0xddf252ad1be2c89b69c2b068fc378daa952ba7f163c4a11628f55a4df523b3ef",
            "0x000000000000000000000000c77f7fed3b5cc8249adc428c5f44c9063b9734b4",
            "0x000000000000000000000000c77f7fed3b5cc8249adc428c5f44c9063b9734b4"
          ],
          "data": "0x00000000000000000000000000000000000000000000000000005dc70c66c8a2",
          "blockHash": "0xac3824f36bf5909f484c0e1a2d1a76d34e0a1ea6b30e2ac5397610ef4fd80ab3",
          "blockNumber": "0x731c90",
          "transactionHash": "0xc8ad903b1eca8a81db85600991388c1be7858f1edea8b5c23fbe6d0a5adb1124",
          "transactionIndex": "0x5d",
          "logIndex": "0x6c",
          "removed": false
        },
        {
          "address": "0x8aafd3ede9adb0ff97c7aebce82a919afb1c8764",
          "topics": [
            "0x4afcb4a87cdbd9974efdb92ee48bc8d7cd0ae4bf217004db3d080cbaee652ca7"
          ],
          "data": "0x000000000000000000000000000000000000000000000000000000006790539c00000000000000000000000000000000000000000000000000119f2bc0f95bf600000000000000000000000000000000000000000000000000003a249ed96a79",
          "blockHash": "0xac3824f36bf5909f484c0e1a2d1a76d34e0a1ea6b30e2ac5397610ef4fd80ab3",
          "blockNumber": "0x731c90",
          "transactionHash": "0xc8ad903b1eca8a81db85600991388c1be7858f1edea8b5c23fbe6d0a5adb1124",
          "transactionIndex": "0x5d",
          "logIndex": "0x6d",
          "removed": false
        }
      ],
      "logsBloom": "0x00000000000000000000000000000000000000000600000000000000000000000000000000000000000000000000000000000000000000004000000000000000000000000000004000000008000000000000000000000000000000000000000000000000020000000000000000000800020000000000000000000010000000000000000000000000000000000000000000000000000000000000010000000000000000000000000000000000000000004000000000000000000000000000000000000002000000800000000000000000000000000000080000000000000020000000000000000000000000000000000000000000000000000000000000000000",
      "type": "0x2",
      "transactionHash": "0xc8ad903b1eca8a81db85600991388c1be7858f1edea8b5c23fbe6d0a5adb1124",
      "transactionIndex": "0x5d",
      "blockHash": "0xac3824f36bf5909f484c0e1a2d1a76d34e0a1ea6b30e2ac5397610ef4fd80ab3",
      "blockNumber": "0x731c90",
      "gasUsed": "0xfd33",
      "effectiveGasPrice": "0x1120cf05a",
      "from": "0xc77f7fed3b5cc8249adc428c5f44c9063b9734b4",
      "to": "0x8aafd3ede9adb0ff97c7aebce82a919afb1c8764",
      "contractAddress": null
    }
  ],
  "libraries": [],
  "pending": [],
  "returns": {},
  "timestamp": 1737511837,
  "chain": 11155111,
  "commit": "1d2fb70"
}