{
  "transactions": [
    {
      "hash": "0x3e5bdb7c6092c226c23106ea85a23590328d0f471eb7dba4b33bcdbd0e28dff6",
      "transactionType": "CALL",
      "contractName": null,
      "contractAddress": "0xd7bc75898e513accccf720a874d44dab5a4b6223",
      "function": "sell(uint256)",
      "arguments": [
        "9929991008655809921"
      ],
      "transaction": {
        "from": "0xc77f7fed3b5cc8249adc428c5f44c9063b9734b4",
        "to": "0xd7bc75898e513accccf720a874d44dab5a4b6223",
        "gas": "0x15b6b",
        "value": "0x0",
        "input": "0xe4849b3200000000000000000000000000000000000000000000000089ce6a3605c09d81",
        "nonce": "0x115",
        "chainId": "0xaa36a7"
      },
      "additionalContracts": [],
      "isFixedGasLimit": false
    }
  ],
  "receipts": [
    {
      "status": "0x1",
      "cumulativeGasUsed": "0xb0b143",
      "logs": [
        {
          "address": "0xd7bc75898e513accccf720a874d44dab5a4b6223",
          "topics": [
            "0xddf252ad1be2c89b69c2b068fc378daa952ba7f163c4a11628f55a4df523b3ef",
            "0x000000000000000000000000c77f7fed3b5cc8249adc428c5f44c9063b9734b4",
            "0x0000000000000000000000000000000000000000000000000000000000000000"
          ],
          "data": "0x00000000000000000000000000000000000000000000000089ce6a3605c09d81",
          "blockHash": "0x8c2820230138a3963f80bdd3044327a5a1c67afa52ca6433bbbd5dad63e738aa",
          "blockNumber": "0x7239aa",
          "transactionHash": "0x3e5bdb7c6092c226c23106ea85a23590328d0f471eb7dba4b33bcdbd0e28dff6",
          "transactionIndex": "0x6a",
          "logIndex": "0xb3",
          "removed": false
        },
        {
          "address": "0xd7bc75898e513accccf720a874d44dab5a4b6223",
          "topics": [
            "0x4afcb4a87cdbd9974efdb92ee48bc8d7cd0ae4bf217004db3d080cbaee652ca7"
          ],
          "data": "0x000000000000000000000000000000000000000000000000000000006785a54c00000000000000000000000000000000000000000000000000038d7f8f3185790000000000000000000000000000000000000000000000000023474f493d2797",
          "blockHash": "0x8c2820230138a3963f80bdd3044327a5a1c67afa52ca6433bbbd5dad63e738aa",
          "blockNumber": "0x7239aa",
          "transactionHash": "0x3e5bdb7c6092c226c23106ea85a23590328d0f471eb7dba4b33bcdbd0e28dff6",
          "transactionIndex": "0x6a",
          "logIndex": "0xb4",
          "removed": false
        }
      ],
      "logsBloom": "0x00000000000000000000000000000000000000000000000000000000000000000000000000000000000000000000000000000000000000004000000000000000000000000000000000000008000000000000000000000000000000000000000000000000020000000000000000000800020000000000000000000010000000000000000000000000000000000000000000000000000000000000010000000000000000000000000000000000000000004000001000000000000000000000000000000002000000800000000000004000000000000000080000000000000020000000000000000000000000000000000000000000080000000000000000000000",
      "type": "0x2",
      "transactionHash": "0x3e5bdb7c6092c226c23106ea85a23590328d0f471eb7dba4b33bcdbd0e28dff6",
      "transactionIndex": "0x6a",
      "blockHash": "0x8c2820230138a3963f80bdd3044327a5a1c67afa52ca6433bbbd5dad63e738aa",
      "blockNumber": "0x7239aa",
      "gasUsed": "0xfb87",
      "effectiveGasPrice": "0x169439b1e",
      "from": "0xc77f7fed3b5cc8249adc428c5f44c9063b9734b4",
      "to": "0xd7bc75898e513accccf720a874d44dab5a4b6223",
      "contractAddress": null
    }
  ],
  "libraries": [],
  "pending": [],
  "returns": {},
  "timestamp": 1736811854,
  "chain": 11155111,
  "commit": "51a374b"
}