{
  "transactions": [
    {
      "hash": "0x8383e6176f9808a2740f6811c908af75f29c06312b8a0c20e8b4d087ed7742e6",
      "transactionType": "CALL",
      "contractName": null,
      "contractAddress": "0x8aafd3ede9adb0ff97c7aebce82a919afb1c8764",
      "function": "sell(uint256)",
      "arguments": [
        "448904"
      ],
      "transaction": {
        "from": "0xc77f7fed3b5cc8249adc428c5f44c9063b9734b4",
        "to": "0x8aafd3ede9adb0ff97c7aebce82a919afb1c8764",
        "gas": "0x17207",
        "value": "0x0",
        "input": "0xe4849b32000000000000000000000000000000000000000000000000000000000006d988",
        "nonce": "0x14d9",
        "chainId": "0xaa36a7"
      },
      "additionalContracts": [],
      "isFixedGasLimit": false
    }
  ],
  "receipts": [
    {
      "status": "0x1",
      "cumulativeGasUsed": "0x123cafa",
      "logs": [
        {
          "address": "0x8aafd3ede9adb0ff97c7aebce82a919afb1c8764",
          "topics": [
            "0xddf252ad1be2c89b69c2b068fc378daa952ba7f163c4a11628f55a4df523b3ef",
            "0x000000000000000000000000c77f7fed3b5cc8249adc428c5f44c9063b9734b4",
            "0x0000000000000000000000000000000000000000000000000000000000000000"
          ],
          "data": "0x000000000000000000000000000000000000000000000000000000000006cb81",
          "blockHash": "0xc3ba255d3f3279388f727bbb065d64b8134e9012035c90546a0746025c6d3772",
          "blockNumber": "0x731c37",
          "transactionHash": "0x8383e6176f9808a2740f6811c908af75f29c06312b8a0c20e8b4d087ed7742e6",
          "transactionIndex": "0x9b",
          "logIndex": "0xac",
          "removed": false
        },
        {
          "address": "0x8aafd3ede9adb0ff97c7aebce82a919afb1c8764",
          "topics": [
            "0xddf252ad1be2c89b69c2b068fc378daa952ba7f163c4a11628f55a4df523b3ef",
            "0x000000000000000000000000c77f7fed3b5cc8249adc428c5f44c9063b9734b4",
            "0x000000000000000000000000c77f7fed3b5cc8249adc428c5f44c9063b9734b4"
          ],
          "data": "0x0000000000000000000000000000000000000000000000000000000000000e07",
          "blockHash": "0xc3ba255d3f3279388f727bbb065d64b8134e9012035c90546a0746025c6d3772",
          "blockNumber": "0x731c37",
          "transactionHash": "0x8383e6176f9808a2740f6811c908af75f29c06312b8a0c20e8b4d087ed7742e6",
          "transactionIndex": "0x9b",
          "logIndex": "0xad",
          "removed": false
        },
        {
          "address": "0x8aafd3ede9adb0ff97c7aebce82a919afb1c8764",
          "topics": [
            "0x4afcb4a87cdbd9974efdb92ee48bc8d7cd0ae4bf217004db3d080cbaee652ca7"
          ],
          "data": "0x0000000000000000000000000000000000000000000000000000000067904f70000000000000000000000000000000000000000000000000001095ab204aa1ab000000000000000000000000000000000000000000000000000000000000082f",
          "blockHash": "0xc3ba255d3f3279388f727bbb065d64b8134e9012035c90546a0746025c6d3772",
          "blockNumber": "0x731c37",
          "transactionHash": "0x8383e6176f9808a2740f6811c908af75f29c06312b8a0c20e8b4d087ed7742e6",
          "transactionIndex": "0x9b",
          "logIndex": "0xae",
          "removed": false
        }
      ],
      "logsBloom": "0x00000000000000000000000000000000000000000600000000000000000000000000000000000000000000000000000000000000000000004000000000000000000000000000004000000008000000000000000000000000000000000000000000000000020000000000000000000800020000000000000000000010000000000000000000000000000000000000000000000000000000000000010000000000000000000000000000000000000000004000000000000000000000000000000000000002000000800000000000000000000000000000080000000000000020000000000000000000000000000000000000000000000000000000000000000000",
      "type": "0x2",
      "transactionHash": "0x8383e6176f9808a2740f6811c908af75f29c06312b8a0c20e8b4d087ed7742e6",
      "transactionIndex": "0x9b",
      "blockHash": "0xc3ba255d3f3279388f727bbb065d64b8134e9012035c90546a0746025c6d3772",
      "blockNumber": "0x731c37",
      "gasUsed": "0xfd03",
      "effectiveGasPrice": "0x13c56587f",
      "from": "0xc77f7fed3b5cc8249adc428c5f44c9063b9734b4",
      "to": "0x8aafd3ede9adb0ff97c7aebce82a919afb1c8764",
      "contractAddress": null
    }
  ],
  "libraries": [],
  "pending": [],
  "returns": {},
  "timestamp": 1737510770,
  "chain": 11155111,
  "commit": "1d2fb70"
}