{
  "transactions": [
    {
      "hash": "0x46e6bd85a2940731f1552c57f6cf6511e449ed0a0310020115e0c9e01e6d4850",
      "transactionType": "CALL",
      "contractName": null,
      "contractAddress": "0x270e88f8683660553e8ba4eb2ad7c91a1710d769",
      "function": "buy(address)",
      "arguments": [
        "0xC77f7fed3b5Cc8249aDc428c5F44C9063B9734b4"
      ],
      "transaction": {
        "from": "0xc77f7fed3b5cc8249adc428c5f44c9063b9734b4",
        "to": "0x270e88f8683660553e8ba4eb2ad7c91a1710d769",
        "gas": "0x1b30c",
        "value": "0xde0b6b3a7640000",
        "input": "0xf088d547000000000000000000000000c77f7fed3b5cc8249adc428c5f44c9063b9734b4",
        "nonce": "0x79d",
        "chainId": "0xaa36a7"
      },
      "additionalContracts": [],
      "isFixedGasLimit": false
    }
  ],
  "receipts": [
    {
      "status": "0x1",
      "cumulativeGasUsed": "0x7ef7c5",
      "logs": [
        {
          "address": "0x270e88f8683660553e8ba4eb2ad7c91a1710d769",
          "topics": [
            "0xddf252ad1be2c89b69c2b068fc378daa952ba7f163c4a11628f55a4df523b3ef",
            "0x0000000000000000000000000000000000000000000000000000000000000000",
            "0x000000000000000000000000c77f7fed3b5cc8249adc428c5f44c9063b9734b4"
          ],
          "data": "0x000000000000000000000000000000000000000000000027868cf4c0fe0f77d1",
          "blockHash": "0x5bc0510e91746831fabde23d13473c50b321e3b29ff41759e49de7260075b31f",
          "blockNumber": "0x7254d0",
          "transactionHash": "0x46e6bd85a2940731f1552c57f6cf6511e449ed0a0310020115e0c9e01e6d4850",
          "transactionIndex": "0x39",
          "logIndex": "0xad",
          "removed": false
        },
        {
          "address": "0x270e88f8683660553e8ba4eb2ad7c91a1710d769",
          "topics": [
            "0xddf252ad1be2c89b69c2b068fc378daa952ba7f163c4a11628f55a4df523b3ef",
            "0x0000000000000000000000000000000000000000000000000000000000000000",
            "0x000000000000000000000000c77f7fed3b5cc8249adc428c5f44c9063b9734b4"
          ],
          "data": "0x0000000000000000000000000000000000000000000000001eb166522313f311",
          "blockHash": "0x5bc0510e91746831fabde23d13473c50b321e3b29ff41759e49de7260075b31f",
          "blockNumber": "0x7254d0",
          "transactionHash": "0x46e6bd85a2940731f1552c57f6cf6511e449ed0a0310020115e0c9e01e6d4850",
          "transactionIndex": "0x39",
          "logIndex": "0xae",
          "removed": false
        },
        {
          "address": "0x270e88f8683660553e8ba4eb2ad7c91a1710d769",
          "topics": [
            "0x4afcb4a87cdbd9974efdb92ee48bc8d7cd0ae4bf217004db3d080cbaee652ca7"
          ],
          "data": "0x000000000000000000000000000000000000000000000000000000006786ebc80000000000000000000000000000000000000000000000000004d3053cc0bb800000000000000000000000000000000000000000000000000de0b6b3a7640000",
          "blockHash": "0x5bc0510e91746831fabde23d13473c50b321e3b29ff41759e49de7260075b31f",
          "blockNumber": "0x7254d0",
          "transactionHash": "0x46e6bd85a2940731f1552c57f6cf6511e449ed0a0310020115e0c9e01e6d4850",
          "transactionIndex": "0x39",
          "logIndex": "0xaf",
          "removed": false
        }
      ],
      "logsBloom": "0x00000000000000000000000000000000000000000000000000000000000000000000000000000000000000000000000020000000000000004000000000000000000000000000000000000008000000000000000000000000000000000000000000000000020000000000000000000800020000000000000000000010000000000000000000010000000000000000000000000000000000000000010000000000000000000000000000000000000000004000000000000000000000000000000000000002000000800000000000000000000000000000080000008000000020000000000000000000000000000000000000000000000000000000000000000000",
      "type": "0x2",
      "transactionHash": "0x46e6bd85a2940731f1552c57f6cf6511e449ed0a0310020115e0c9e01e6d4850",
      "transactionIndex": "0x39",
      "blockHash": "0x5bc0510e91746831fabde23d13473c50b321e3b29ff41759e49de7260075b31f",
      "blockNumber": "0x7254d0",
      "gasUsed": "0x13af8",
      "effectiveGasPrice": "0xf035dd2c",
      "from": "0xc77f7fed3b5cc8249adc428c5f44c9063b9734b4",
      "to": "0x270e88f8683660553e8ba4eb2ad7c91a1710d769",
      "contractAddress": null
    }
  ],
  "libraries": [],
  "pending": [],
  "returns": {},
  "timestamp": 1736895433,
  "chain": 11155111,
  "commit": "51a374b"
}