{
  "transactions": [
    {
      "hash": "0x8b0ff2beb32dadbb1d416166868e7c78a3adebb44cc2b4b731dba1467ce0cf60",
      "transactionType": "CALL",
      "contractName": null,
      "contractAddress": "0x8aafd3ede9adb0ff97c7aebce82a919afb1c8764",
      "function": "sell(uint256)",
      "arguments": [
        "1506399"
      ],
      "transaction": {
        "from": "0xc77f7fed3b5cc8249adc428c5f44c9063b9734b4",
        "to": "0x8aafd3ede9adb0ff97c7aebce82a919afb1c8764",
        "gas": "0x16208",
        "value": "0x0",
        "input": "0xe4849b32000000000000000000000000000000000000000000000000000000000016fc5f",
        "nonce": "0x1020",
        "chainId": "0xaa36a7"
      },
      "additionalContracts": [],
      "isFixedGasLimit": false
    }
  ],
  "receipts": [
    {
      "status": "0x1",
      "cumulativeGasUsed": "0xa4be86",
      "logs": [
        {
          "address": "0x8aafd3ede9adb0ff97c7aebce82a919afb1c8764",
          "topics": [
            "0xddf252ad1be2c89b69c2b068fc378daa952ba7f163c4a11628f55a4df523b3ef",
            "0x000000000000000000000000c77f7fed3b5cc8249adc428c5f44c9063b9734b4",
            "0x0000000000000000000000000000000000000000000000000000000000000000"
          ],
          "data": "0x000000000000000000000000000000000000000000000000000000000016cd4c",
          "blockHash": "0xa925e943e5bc7941e8de540a078672c22a954bd8d3147b40e8432c8ee27cbc9d",
          "blockNumber": "0x731698",
          "transactionHash": "0x8b0ff2beb32dadbb1d416166868e7c78a3adebb44cc2b4b731dba1467ce0cf60",
          "transactionIndex": "0x64",
          "logIndex": "0xa4",
          "removed": false
        },
        {
          "address": "0x8aafd3ede9adb0ff97c7aebce82a919afb1c8764",
          "topics": [
            "0xddf252ad1be2c89b69c2b068fc378daa952ba7f163c4a11628f55a4df523b3ef",
            "0x000000000000000000000000c77f7fed3b5cc8249adc428c5f44c9063b9734b4",
            "0x000000000000000000000000c77f7fed3b5cc8249adc428c5f44c9063b9734b4"
          ],
          "data": "0x0000000000000000000000000000000000000000000000000000000000002f13",
          "blockHash": "0xa925e943e5bc7941e8de540a078672c22a954bd8d3147b40e8432c8ee27cbc9d",
          "blockNumber": "0x731698",
          "transactionHash": "0x8b0ff2beb32dadbb1d416166868e7c78a3adebb44cc2b4b731dba1467ce0cf60",
          "transactionIndex": "0x64",
          "logIndex": "0xa5",
          "removed": false
        },
        {
          "address": "0x8aafd3ede9adb0ff97c7aebce82a919afb1c8764",
          "topics": [
            "0x4afcb4a87cdbd9974efdb92ee48bc8d7cd0ae4bf217004db3d080cbaee652ca7"
          ],
          "data": "0x0000000000000000000000000000000000000000000000000000000067900bcc0000000000000000000000000000000000000000000000000004eac19642c43e0000000000000000000000000000000000000000000000000000000000000824",
          "blockHash": "0xa925e943e5bc7941e8de540a078672c22a954bd8d3147b40e8432c8ee27cbc9d",
          "blockNumber": "0x731698",
          "transactionHash": "0x8b0ff2beb32dadbb1d416166868e7c78a3adebb44cc2b4b731dba1467ce0cf60",
          "transactionIndex": "0x64",
          "logIndex": "0xa6",
          "removed": false
        }
      ],
      "logsBloom": "0x00000000000000000000000000000000000000000600000000000000000000000000000000000000000000000000000000000000000000004000000000000000000000000000004000000008000000000000000000000000000000000000000000000000020000000000000000000800020000000000000000000010000000000000000000000000000000000000000000000000000000000000010000000000000000000000000000000000000000004000000000000000000000000000000000000002000000800000000000000000000000000000080000000000000020000000000000000000000000000000000000000000000000000000000000000000",
      "type": "0x2",
      "transactionHash": "0x8b0ff2beb32dadbb1d416166868e7c78a3adebb44cc2b4b731dba1467ce0cf60",
      "transactionIndex": "0x64",
      "blockHash": "0xa925e943e5bc7941e8de540a078672c22a954bd8d3147b40e8432c8ee27cbc9d",
      "blockNumber": "0x731698",
      "gasUsed": "0xf213",
      "effectiveGasPrice": "0x3f70906a",
      "from": "0xc77f7fed3b5cc8249adc428c5f44c9063b9734b4",
      "to": "0x8aafd3ede9adb0ff97c7aebce82a919afb1c8764",
      "contractAddress": null
    }
  ],
  "libraries": [],
  "pending": [],
  "returns": {},
  "timestamp": 1737493454,
  "chain": 11155111,
  "commit": "1d2fb70"
}