{
  "transactions": [
    {
      "hash": "0xfe541d096ffe1ef19001607bdb05f2c980ce8cc30796682fc86c05750b830b55",
      "transactionType": "CALL",
      "contractName": null,
      "contractAddress": "0xbf4a322f1496e5c3d34a9bcdb4c60567b38c7de2",
      "function": "sell(uint256)",
      "arguments": [
        "988873275159774748948"
      ],
      "transaction": {
        "from": "0xc77f7fed3b5cc8249adc428c5f44c9063b9734b4",
        "to": "0xbf4a322f1496e5c3d34a9bcdb4c60567b38c7de2",
        "gas": "0x16fea",
        "value": "0x0",
        "input": "0xe4849b320000000000000000000000000000000000000000000000359b5f9c7b8f7be114",
        "nonce": "0x989",
        "chainId": "0xaa36a7"
      },
      "additionalContracts": [],
      "isFixedGasLimit": false
    }
  ],
  "receipts": [
    {
      "status": "0x1",
      "cumulativeGasUsed": "0x1538fff",
      "logs": [
        {
          "address": "0xbf4a322f1496e5c3d34a9bcdb4c60567b38c7de2",
          "topics": [
            "0xddf252ad1be2c89b69c2b068fc378daa952ba7f163c4a11628f55a4df523b3ef",
            "0x000000000000000000000000c77f7fed3b5cc8249adc428c5f44c9063b9734b4",
            "0x0000000000000000000000000000000000000000000000000000000000000000"
          ],
          "data": "0x0000000000000000000000000000000000000000000000359b5f9c7b8f7be114",
          "blockHash": "0x1f091437133643440fd604eea2a9afc344683044dff0b0b2d5cb6f2ac7938242",
          "blockNumber": "0x72592c",
          "transactionHash": "0xfe541d096ffe1ef19001607bdb05f2c980ce8cc30796682fc86c05750b830b55",
          "transactionIndex": "0xb3",
          "logIndex": "0xc3",
          "removed": false
        },
        {
          "address": "0xbf4a322f1496e5c3d34a9bcdb4c60567b38c7de2",
          "topics": [
            "0x4afcb4a87cdbd9974efdb92ee48bc8d7cd0ae4bf217004db3d080cbaee652ca7"
          ],
          "data": "0x000000000000000000000000000000000000000000000000000000006787203c00000000000000000000000000000000000000000000000000039151744e36720000000000000000000000000000000000000000000000000dc7e3f6b25b4203",
          "blockHash": "0x1f091437133643440fd604eea2a9afc344683044dff0b0b2d5cb6f2ac7938242",
          "blockNumber": "0x72592c",
          "transactionHash": "0xfe541d096ffe1ef19001607bdb05f2c980ce8cc30796682fc86c05750b830b55",
          "transactionIndex": "0xb3",
          "logIndex": "0xc4",
          "removed": false
        }
      ],
      "logsBloom": "0x00000000000000000000000000000000000000000000000000000000000000000000000000000000000000000000000000000000000000004000000000000000000000000000000000000008000000000000001000000000000000000000000000000000020000000000000000000800020000000000000000000010000000000000000000000000000000000000000000000000000008000000010000000000000000000000000000000000000000004000000000000000000000000000000000000002000000800000000000001000000000000000080000000000000020000000000000000000000000000000000000000000000000000000000000000000",
      "type": "0x2",
      "transactionHash": "0xfe541d096ffe1ef19001607bdb05f2c980ce8cc30796682fc86c05750b830b55",
      "transactionIndex": "0xb3",
      "blockHash": "0x1f091437133643440fd604eea2a9afc344683044dff0b0b2d5cb6f2ac7938242",
      "blockNumber": "0x72592c",
      "gasUsed": "0xfb91",
      "effectiveGasPrice": "0xe732cb22",
      "from": "0xc77f7fed3b5cc8249adc428c5f44c9063b9734b4",
      "to": "0xbf4a322f1496e5c3d34a9bcdb4c60567b38c7de2",
      "contractAddress": null
    }
  ],
  "libraries": [],
  "pending": [],
  "returns": {},
  "timestamp": 1736908860,
  "chain": 11155111,
  "commit": "51a374b"
}