{
  "transactions": [
    {
      "hash": "0xcae0d3559df45e2fca725741baad0c1adbb732a850bbc3d4d0164677b397fd0f",
      "transactionType": "CALL",
      "contractName": null,
      "contractAddress": "0x8aafd3ede9adb0ff97c7aebce82a919afb1c8764",
      "function": "sell(uint256)",
      "arguments": [
        "11557"
      ],
      "transaction": {
        "from": "0xc77f7fed3b5cc8249adc428c5f44c9063b9734b4",
        "to": "0x8aafd3ede9adb0ff97c7aebce82a919afb1c8764",
        "gas": "0x14e4c",
        "value": "0x0",
        "input": "0xe4849b320000000000000000000000000000000000000000000000000000000000002d25",
        "nonce": "0x1193",
        "chainId": "0xaa36a7"
      },
      "additionalContracts": [],
      "isFixedGasLimit": false
    }
  ],
  "receipts": [
    {
      "status": "0x1",
      "cumulativeGasUsed": "0x9b2d5e",
      "logs": [
        {
          "address": "0x8aafd3ede9adb0ff97c7aebce82a919afb1c8764",
          "topics": [
            "0xddf252ad1be2c89b69c2b068fc378daa952ba7f163c4a11628f55a4df523b3ef",
            "0x000000000000000000000000c77f7fed3b5cc8249adc428c5f44c9063b9734b4",
            "0x0000000000000000000000000000000000000000000000000000000000000000"
          ],
          "data": "0x0000000000000000000000000000000000000000000000000000000000002cc9",
          "blockHash": "0x62ab9f0ab0c2036fedf24b8b7935fb21d1c3518e36ec6e84a2c3efc9ab7cac74",
          "blockNumber": "0x73185a",
          "transactionHash": "0xcae0d3559df45e2fca725741baad0c1adbb732a850bbc3d4d0164677b397fd0f",
          "transactionIndex": "0x82",
          "logIndex": "0xa3",
          "removed": false
        },
        {
          "address": "0x8aafd3ede9adb0ff97c7aebce82a919afb1c8764",
          "topics": [
            "0xddf252ad1be2c89b69c2b068fc378daa952ba7f163c4a11628f55a4df523b3ef",
            "0x000000000000000000000000c77f7fed3b5cc8249adc428c5f44c9063b9734b4",
            "0x000000000000000000000000c77f7fed3b5cc8249adc428c5f44c9063b9734b4"
          ],
          "data": "0x000000000000000000000000000000000000000000000000000000000000005c",
          "blockHash": "0x62ab9f0ab0c2036fedf24b8b7935fb21d1c3518e36ec6e84a2c3efc9ab7cac74",
          "blockNumber": "0x73185a",
          "transactionHash": "0xcae0d3559df45e2fca725741baad0c1adbb732a850bbc3d4d0164677b397fd0f",
          "transactionIndex": "0x82",
          "logIndex": "0xa4",
          "removed": false
        },
        {
          "address": "0x8aafd3ede9adb0ff97c7aebce82a919afb1c8764",
          "topics": [
            "0x4afcb4a87cdbd9974efdb92ee48bc8d7cd0ae4bf217004db3d080cbaee652ca7"
          ],
          "data": "0x00000000000000000000000000000000000000000000000000000000679021080000000000000000000000000000000000000000000000000005207f21ce18fb0000000000000000000000000000000000000000000000000000000000000010",
          "blockHash": "0x62ab9f0ab0c2036fedf24b8b7935fb21d1c3518e36ec6e84a2c3efc9ab7cac74",
          "blockNumber": "0x73185a",
          "transactionHash": "0xcae0d3559df45e2fca725741baad0c1adbb732a850bbc3d4d0164677b397fd0f",
          "transactionIndex": "0x82",
          "logIndex": "0xa5",
          "removed": false
        }
      ],
      "logsBloom": "0x00000000000000000000000000000000000000000600000000000000000000000000000000000000000000000000000000000000000000004000000000000000000000000000004000000008000000000000000000000000000000000000000000000000020000000000000000000800020000000000000000000010000000000000000000000000000000000000000000000000000000000000010000000000000000000000000000000000000000004000000000000000000000000000000000000002000000800000000000000000000000000000080000000000000020000000000000000000000000000000000000000000000000000000000000000000",
      "type": "0x2",
      "transactionHash": "0xcae0d3559df45e2fca725741baad0c1adbb732a850bbc3d4d0164677b397fd0f",
      "transactionIndex": "0x82",
      "blockHash": "0x62ab9f0ab0c2036fedf24b8b7935fb21d1c3518e36ec6e84a2c3efc9ab7cac74",
      "blockNumber": "0x73185a",
      "gasUsed": "0xf207",
      "effectiveGasPrice": "0x34891d21",
      "from": "0xc77f7fed3b5cc8249adc428c5f44c9063b9734b4",
      "to": "0x8aafd3ede9adb0ff97c7aebce82a919afb1c8764",
      "contractAddress": null
    }
  ],
  "libraries": [],
  "pending": [],
  "returns": {},
  "timestamp": 1737498890,
  "chain": 11155111,
  "commit": "1d2fb70"
}