{
  "transactions": [
    {
      "hash": "0x7984d0c530e5a7c6f316af2c9d3869d408502951647bb93cdba8928ce4e1d8bf",
      "transactionType": "CALL",
      "contractName": null,
      "contractAddress": "0x5eb9cc76c3506942c1c0ead70e877dd5e4f00cb0",
      "function": "buy(address)",
      "arguments": [
        "0xC77f7fed3b5Cc8249aDc428c5F44C9063B9734b4"
      ],
      "transaction": {
        "from": "0xc77f7fed3b5cc8249adc428c5f44c9063b9734b4",
        "to": "0x5eb9cc76c3506942c1c0ead70e877dd5e4f00cb0",
        "gas": "0x1b30c",
        "value": "0xde0b6b3a7640000",
        "input": "0xf088d547000000000000000000000000c77f7fed3b5cc8249adc428c5f44c9063b9734b4",
        "nonce": "0x2a6",
        "chainId": "0xaa36a7"
      },
      "additionalContracts": [],
      "isFixedGasLimit": false
    }
  ],
  "receipts": [
    {
      "status": "0x1",
      "cumulativeGasUsed": "0xb5700f",
      "logs": [
        {
          "address": "0x5eb9cc76c3506942c1c0ead70e877dd5e4f00cb0",
          "topics": [
            "0xddf252ad1be2c89b69c2b068fc378daa952ba7f163c4a11628f55a4df523b3ef",
            "0x0000000000000000000000000000000000000000000000000000000000000000",
            "0x000000000000000000000000c77f7fed3b5cc8249adc428c5f44c9063b9734b4"
          ],
          "data": "0x00000000000000000000000000000000000000000000003575c585b0c428d4e7",
          "blockHash": "0x6f0309304a65dbe7d4bdb03c0bde9a4477650ba82737f4f782177546344426ae",
          "blockNumber": "0x724e7f",
          "transactionHash": "0x7984d0c530e5a7c6f316af2c9d3869d408502951647bb93cdba8928ce4e1d8bf",
          "transactionIndex": "0x51",
          "logIndex": "0x86",
          "removed": false
        },
        {
          "address": "0x5eb9cc76c3506942c1c0ead70e877dd5e4f00cb0",
          "topics": [
            "0xddf252ad1be2c89b69c2b068fc378daa952ba7f163c4a11628f55a4df523b3ef",
            "0x0000000000000000000000000000000000000000000000000000000000000000",
            "0x000000000000000000000000c77f7fed3b5cc8249adc428c5f44c9063b9734b4"
          ],
          "data": "0x000000000000000000000000000000000000000000000000298377ec012f6832",
          "blockHash": "0x6f0309304a65dbe7d4bdb03c0bde9a4477650ba82737f4f782177546344426ae",
          "blockNumber": "0x724e7f",
          "transactionHash": "0x7984d0c530e5a7c6f316af2c9d3869d408502951647bb93cdba8928ce4e1d8bf",
          "transactionIndex": "0x51",
          "logIndex": "0x87",
          "removed": false
        },
        {
          "address": "0x5eb9cc76c3506942c1c0ead70e877dd5e4f00cb0",
          "topics": [
            "0x4afcb4a87cdbd9974efdb92ee48bc8d7cd0ae4bf217004db3d080cbaee652ca7"
          ],
          "data": "0x0000000000000000000000000000000000000000000000000000000067869fa80000000000000000000000000000000000000000000000000003910864dfbf150000000000000000000000000000000000000000000000000de0b6b3a7640000",
          "blockHash": "0x6f0309304a65dbe7d4bdb03c0bde9a4477650ba82737f4f782177546344426ae",
          "blockNumber": "0x724e7f",
          "transactionHash": "0x7984d0c530e5a7c6f316af2c9d3869d408502951647bb93cdba8928ce4e1d8bf",
          "transactionIndex": "0x51",
          "logIndex": "0x88",
          "removed": false
        }
      ],
      "logsBloom": "0x00000000000000000000000000000000000000000000000000000000000000000000000000000000000000000000000000000000000000004000000000000000000000000000000000000008000000000000000000000000000000000000000000000000020000000000000004000800020000000000000000000010000000000000000000000000000000000000000000000000000000000000010000000000000000000000000000000000000000004000000000000000000000000000020000000002000000800000008000000000000000000000080000000000000020000000000000000000000000000000000000000000000000000000000000000000",
      "type": "0x2",
      "transactionHash": "0x7984d0c530e5a7c6f316af2c9d3869d408502951647bb93cdba8928ce4e1d8bf",
      "transactionIndex": "0x51",
      "blockHash": "0x6f0309304a65dbe7d4bdb03c0bde9a4477650ba82737f4f782177546344426ae",
      "blockNumber": "0x724e7f",
      "gasUsed": "0x13af8",
      "effectiveGasPrice": "0x47f578021",
      "from": "0xc77f7fed3b5cc8249adc428c5f44c9063b9734b4",
      "to": "0x5eb9cc76c3506942c1c0ead70e877dd5e4f00cb0",
      "contractAddress": null
    }
  ],
  "libraries": [],
  "pending": [],
  "returns": {},
  "timestamp": 1736875944,
  "chain": 11155111,
  "commit": "51a374b"
}