{
  "transactions": [
    {
      "hash": "0x4222dd6703a436c94dc0ada1ed3ce7f4b9d022a567a4760bc2675e00f8519a77",
      "transactionType": "CALL",
      "contractName": null,
      "contractAddress": "0xbf4a322f1496e5c3d34a9bcdb4c60567b38c7de2",
      "function": "buy(address)",
      "arguments": [
        "0xC77f7fed3b5Cc8249aDc428c5F44C9063B9734b4"
      ],
      "transaction": {
        "from": "0xc77f7fed3b5cc8249adc428c5f44c9063b9734b4",
        "to": "0xbf4a322f1496e5c3d34a9bcdb4c60567b38c7de2",
        "gas": "0x1b309",
        "value": "0xde0b6b3a7640000",
        "input": "0xf088d547000000000000000000000000c77f7fed3b5cc8249adc428c5f44c9063b9734b4",
        "nonce": "0xe00",
        "chainId": "0xaa36a7"
      },
      "additionalContracts": [],
      "isFixedGasLimit": false
    }
  ],
  "receipts": [
    {
      "status": "0x1",
      "cumulativeGasUsed": "0x11feb05",
      "logs": [
        {
          "address": "0xbf4a322f1496e5c3d34a9bcdb4c60567b38c7de2",
          "topics": [
            "0xddf252ad1be2c89b69c2b068fc378daa952ba7f163c4a11628f55a4df523b3ef",
            "0x0000000000000000000000000000000000000000000000000000000000000000",
            "0x000000000000000000000000c77f7fed3b5cc8249adc428c5f44c9063b9734b4"
          ],
          "data": "0x0000000000000000000000000000000000000000000000349cdb6817e1ea62cd",
          "blockHash": "0x56994ac487ce252ae8ccaa03394891c257fb9cad14bdbab9e84c92d30af0c7ed",
          "blockNumber": "0x7266e7",
          "transactionHash": "0x4222dd6703a436c94dc0ada1ed3ce7f4b9d022a567a4760bc2675e00f8519a77",
          "transactionIndex": "0x63",
          "logIndex": "0x8f",
          "removed": false
        },
        {
          "address": "0xbf4a322f1496e5c3d34a9bcdb4c60567b38c7de2",
          "topics": [
            "0xddf252ad1be2c89b69c2b068fc378daa952ba7f163c4a11628f55a4df523b3ef",
            "0x0000000000000000000000000000000000000000000000000000000000000000",
            "0x000000000000000000000000c77f7fed3b5cc8249adc428c5f44c9063b9734b4"
          ],
          "data": "0x00000000000000000000000000000000000000000000000028db06e49b3f22f4",
          "blockHash": "0x56994ac487ce252ae8ccaa03394891c257fb9cad14bdbab9e84c92d30af0c7ed",
          "blockNumber": "0x7266e7",
          "transactionHash": "0x4222dd6703a436c94dc0ada1ed3ce7f4b9d022a567a4760bc2675e00f8519a77",
          "transactionIndex": "0x63",
          "logIndex": "0x90",
          "removed": false
        },
        {
          "address": "0xbf4a322f1496e5c3d34a9bcdb4c60567b38c7de2",
          "topics": [
            "0x4afcb4a87cdbd9974efdb92ee48bc8d7cd0ae4bf217004db3d080cbaee652ca7"
          ],
          "data": "0x000000000000000000000000000000000000000000000000000000006787c61400000000000000000000000000000000000000000000000000039fbefe9dd5e10000000000000000000000000000000000000000000000000de0b6b3a7640000",
          "blockHash": "0x56994ac487ce252ae8ccaa03394891c257fb9cad14bdbab9e84c92d30af0c7ed",
          "blockNumber": "0x7266e7",
          "transactionHash": "0x4222dd6703a436c94dc0ada1ed3ce7f4b9d022a567a4760bc2675e00f8519a77",
          "transactionIndex": "0x63",
          "logIndex": "0x91",
          "removed": false
        }
      ],
      "logsBloom": "0x00000000000000000000000000000000000000000000000000000000000000000000000000000000000000000000000000000000000000004000000000000000000000000000000000000008000000000000001000000000000000000000000000000000020000000000000000000800020000000000000000000010000000000000000000000000000000000000000000000000000008000000010000000000000000000000000000000000000000004000000000000000000000000000000000000002000000800000000000001000000000000000080000000000000020000000000000000000000000000000000000000000000000000000000000000000",
      "type": "0x2",
      "transactionHash": "0x4222dd6703a436c94dc0ada1ed3ce7f4b9d022a567a4760bc2675e00f8519a77",
      "transactionIndex": "0x63",
      "blockHash": "0x56994ac487ce252ae8ccaa03394891c257fb9cad14bdbab9e84c92d30af0c7ed",
      "blockNumber": "0x7266e7",
      "gasUsed": "0x13af6",
      "effectiveGasPrice": "0x34986d1ea",
      "from": "0xc77f7fed3b5cc8249adc428c5f44c9063b9734b4",
      "to": "0xbf4a322f1496e5c3d34a9bcdb4c60567b38c7de2",
      "contractAddress": null
    }
  ],
  "libraries": [],
  "pending": [],
  "returns": {},
  "timestamp": 1736951318,
  "chain": 11155111,
  "commit": "51a374b"
}