{
  "transactions": [
    {
      "hash": "0xc90d410afe86fa85670f021cae5bf2ea9bdbd64460471a2804f47a3fdf8a9a5a",
      "transactionType": "CALL",
      "contractName": null,
      "contractAddress": "0x5eb9cc76c3506942c1c0ead70e877dd5e4f00cb0",
      "function": "sell(uint256)",
      "arguments": [
        "989072272374209467048"
      ],
      "transaction": {
        "from": "0xc77f7fed3b5cc8249adc428c5f44c9063b9734b4",
        "to": "0x5eb9cc76c3506942c1c0ead70e877dd5e4f00cb0",
        "gas": "0x16fec",
        "value": "0x0",
        "input": "0xe4849b320000000000000000000000000000000000000000000000359e229765152852a8",
        "nonce": "0x4af",
        "chainId": "0xaa36a7"
      },
      "additionalContracts": [],
      "isFixedGasLimit": false
    }
  ],
  "receipts": [
    {
      "status": "0x1",
      "cumulativeGasUsed": "0x162351a",
      "logs": [
        {
          "address": "0x5eb9cc76c3506942c1c0ead70e877dd5e4f00cb0",
          "topics": [
            "0xddf252ad1be2c89b69c2b068fc378daa952ba7f163c4a11628f55a4df523b3ef",
            "0x000000000000000000000000c77f7fed3b5cc8249adc428c5f44c9063b9734b4",
            "0x0000000000000000000000000000000000000000000000000000000000000000"
          ],
          "data": "0x0000000000000000000000000000000000000000000000359e229765152852a8",
          "blockHash": "0x35f69ae636ff943db9ee9dfc47cf9c92371742a5b6c5f3a7921fce6486940b30",
          "blockNumber": "0x7250ed",
          "transactionHash": "0xc90d410afe86fa85670f021cae5bf2ea9bdbd64460471a2804f47a3fdf8a9a5a",
          "transactionIndex": "0x57",
          "logIndex": "0x91",
          "removed": false
        },
        {
          "address": "0x5eb9cc76c3506942c1c0ead70e877dd5e4f00cb0",
          "topics": [
            "0x4afcb4a87cdbd9974efdb92ee48bc8d7cd0ae4bf217004db3d080cbaee652ca7"
          ],
          "data": "0x000000000000000000000000000000000000000000000000000000006786bd000000000000000000000000000000000000000000000000000003911c0666db910000000000000000000000000000000000000000000000000dc7db1331b61c50",
          "blockHash": "0x35f69ae636ff943db9ee9dfc47cf9c92371742a5b6c5f3a7921fce6486940b30",
          "blockNumber": "0x7250ed",
          "transactionHash": "0xc90d410afe86fa85670f021cae5bf2ea9bdbd64460471a2804f47a3fdf8a9a5a",
          "transactionIndex": "0x57",
          "logIndex": "0x92",
          "removed": false
        }
      ],
      "logsBloom": "0x00000000000000000000000000000000000000000000000000000000000000000000000000000000000000000000000000000000000000004000000000000000000000000000000000000008000000000000000000000000000000000000000000000000020000000000000004000800020000000000000000000010000000000000000000000000000000000000000000000000000000000000010000000000000000000000000000000000000000004000000000000000000000000000020000000002000000800000008000000000000000000000080000000000000020000000000000000000000000000000000000000000000000000000000000000000",
      "type": "0x2",
      "transactionHash": "0xc90d410afe86fa85670f021cae5bf2ea9bdbd64460471a2804f47a3fdf8a9a5a",
      "transactionIndex": "0x57",
      "blockHash": "0x35f69ae636ff943db9ee9dfc47cf9c92371742a5b6c5f3a7921fce6486940b30",
      "blockNumber": "0x7250ed",
      "gasUsed": "0xfb93",
      "effectiveGasPrice": "0x29e8ff15e",
      "from": "0xc77f7fed3b5cc8249adc428c5f44c9063b9734b4",
      "to": "0x5eb9cc76c3506942c1c0ead70e877dd5e4f00cb0",
      "contractAddress": null
    }
  ],
  "libraries": [],
  "pending": [],
  "returns": {},
  "timestamp": 1736883457,
  "chain": 11155111,
  "commit": "51a374b"
}