{
  "transactions": [
    {
      "hash": "0x28b5402eb63ed041e2346057db764c9db4d5f082f9953ab65b225ec6306167cd",
      "transactionType": "CALL",
      "contractName": null,
      "contractAddress": "0x8aafd3ede9adb0ff97c7aebce82a919afb1c8764",
      "function": "sell(uint256)",
      "arguments": [
        "1564932"
      ],
      "transaction": {
        "from": "0xc77f7fed3b5cc8249adc428c5f44c9063b9734b4",
        "to": "0x8aafd3ede9adb0ff97c7aebce82a919afb1c8764",
        "gas": "0x16208",
        "value": "0x0",
        "input": "0xe4849b32000000000000000000000000000000000000000000000000000000000017e104",
        "nonce": "0xef3",
        "chainId": "0xaa36a7"
      },
      "additionalContracts": [],
      "isFixedGasLimit": false
    }
  ],
  "receipts": [
    {
      "status": "0x1",
      "cumulativeGasUsed": "0x75557f",
      "logs": [
        {
          "address": "0x8aafd3ede9adb0ff97c7aebce82a919afb1c8764",
          "topics": [
            "0xddf252ad1be2c89b69c2b068fc378daa952ba7f163c4a11628f55a4df523b3ef",
            "0x000000000000000000000000c77f7fed3b5cc8249adc428c5f44c9063b9734b4",
            "0x0000000000000000000000000000000000000000000000000000000000000000"
          ],
          "data": "0x000000000000000000000000000000000000000000000000000000000017b01d",
          "blockHash": "0xe191deb24e01bdaffe3a5c7b5fe983ec72a489d181539716062345f92f855243",
          "blockNumber": "0x73146b",
          "transactionHash": "0x28b5402eb63ed041e2346057db764c9db4d5f082f9953ab65b225ec6306167cd",
          "transactionIndex": "0x6e",
          "logIndex": "0x77",
          "removed": false
        },
        {
          "address": "0x8aafd3ede9adb0ff97c7aebce82a919afb1c8764",
          "topics": [
            "0xddf252ad1be2c89b69c2b068fc378daa952ba7f163c4a11628f55a4df523b3ef",
            "0x000000000000000000000000c77f7fed3b5cc8249adc428c5f44c9063b9734b4",
            "0x000000000000000000000000c77f7fed3b5cc8249adc428c5f44c9063b9734b4"
          ],
          "data": "0x00000000000000000000000000000000000000000000000000000000000030e7",
          "blockHash": "0xe191deb24e01bdaffe3a5c7b5fe983ec72a489d181539716062345f92f855243",
          "blockNumber": "0x73146b",
          "transactionHash": "0x28b5402eb63ed041e2346057db764c9db4d5f082f9953ab65b225ec6306167cd",
          "transactionIndex": "0x6e",
          "logIndex": "0x78",
          "removed": false
        },
        {
          "address": "0x8aafd3ede9adb0ff97c7aebce82a919afb1c8764",
          "topics": [
            "0x4afcb4a87cdbd9974efdb92ee48bc8d7cd0ae4bf217004db3d080cbaee652ca7"
          ],
          "data": "0x00000000000000000000000000000000000000000000000000000000678ff1b00000000000000000000000000000000000000000000000000004bab17c24147c0000000000000000000000000000000000000000000000000000000000000823",
          "blockHash": "0xe191deb24e01bdaffe3a5c7b5fe983ec72a489d181539716062345f92f855243",
          "blockNumber": "0x73146b",
          "transactionHash": "0x28b5402eb63ed041e2346057db764c9db4d5f082f9953ab65b225ec6306167cd",
          "transactionIndex": "0x6e",
          "logIndex": "0x79",
          "removed": false
        }
      ],
      "logsBloom": "0x00000000000000000000000000000000000000000600000000000000000000000000000000000000000000000000000000000000000000004000000000000000000000000000004000000008000000000000000000000000000000000000000000000000020000000000000000000800020000000000000000000010000000000000000000000000000000000000000000000000000000000000010000000000000000000000000000000000000000004000000000000000000000000000000000000002000000800000000000000000000000000000080000000000000020000000000000000000000000000000000000000000000000000000000000000000",
      "type": "0x2",
      "transactionHash": "0x28b5402eb63ed041e2346057db764c9db4d5f082f9953ab65b225ec6306167cd",
      "transactionIndex": "0x6e",
      "blockHash": "0xe191deb24e01bdaffe3a5c7b5fe983ec72a489d181539716062345f92f855243",
      "blockNumber": "0x73146b",
      "gasUsed": "0xf213",
      "effectiveGasPrice": "0xb21df3a9",
      "from": "0xc77f7fed3b5cc8249adc428c5f44c9063b9734b4",
      "to": "0x8aafd3ede9adb0ff97c7aebce82a919afb1c8764",
      "contractAddress": null
    }
  ],
  "libraries": [],
  "pending": [],
  "returns": {},
  "timestamp": 1737486770,
  "chain": 11155111,
  "commit": "51a374b"
}