{
  "transactions": [
    {
      "hash": "0xde03bec2073502b5b1e2f1e2b3aa633b8bb56302e13b5a9bd31b82a9d9c16291",
      "transactionType": "CALL",
      "contractName": null,
      "contractAddress": "0xbf4a322f1496e5c3d34a9bcdb4c60567b38c7de2",
      "function": "buy(address)",
      "arguments": [
        "0xC77f7fed3b5Cc8249aDc428c5F44C9063B9734b4"
      ],
      "transaction": {
        "from": "0xc77f7fed3b5cc8249adc428c5f44c9063b9734b4",
        "to": "0xbf4a322f1496e5c3d34a9bcdb4c60567b38c7de2",
        "gas": "0x1b309",
        "value": "0xde0b6b3a7640000",
        "input": "0xf088d547000000000000000000000000c77f7fed3b5cc8249adc428c5f44c9063b9734b4",
        "nonce": "0x906",
        "chainId": "0xaa36a7"
      },
      "additionalContracts": [],
      "isFixedGasLimit": false
    }
  ],
  "receipts": [
    {
      "status": "0x1",
      "cumulativeGasUsed": "0x8d7956",
      "logs": [
        {
          "address": "0xbf4a322f1496e5c3d34a9bcdb4c60567b38c7de2",
          "topics": [
            "0xddf252ad1be2c89b69c2b068fc378daa952ba7f163c4a11628f55a4df523b3ef",
            "0x0000000000000000000000000000000000000000000000000000000000000000",
            "0x000000000000000000000000c77f7fed3b5cc8249adc428c5f44c9063b9734b4"
          ],
          "data": "0x0000000000000000000000000000000000000000000000358a8145cdb85f44a2",
          "blockHash": "0xa1ed244881a48e5d3504621885fcdba92e01778a755fc347a74000370ce36897",
          "blockNumber": "0x725880",
          "transactionHash": "0xde03bec2073502b5b1e2f1e2b3aa633b8bb56302e13b5a9bd31b82a9d9c16291",
          "transactionIndex": "0x46",
          "logIndex": "0x72",
          "removed": false
        },
        {
          "address": "0xbf4a322f1496e5c3d34a9bcdb4c60567b38c7de2",
          "topics": [
            "0xddf252ad1be2c89b69c2b068fc378daa952ba7f163c4a11628f55a4df523b3ef",
            "0x0000000000000000000000000000000000000000000000000000000000000000",
            "0x000000000000000000000000c77f7fed3b5cc8249adc428c5f44c9063b9734b4"
          ],
          "data": "0x000000000000000000000000000000000000000000000000299391923765e9fb",
          "blockHash": "0xa1ed244881a48e5d3504621885fcdba92e01778a755fc347a74000370ce36897",
          "blockNumber": "0x725880",
          "transactionHash": "0xde03bec2073502b5b1e2f1e2b3aa633b8bb56302e13b5a9bd31b82a9d9c16291",
          "transactionIndex": "0x46",
          "logIndex": "0x73",
          "removed": false
        },
        {
          "address": "0xbf4a322f1496e5c3d34a9bcdb4c60567b38c7de2",
          "topics": [
            "0x4afcb4a87cdbd9974efdb92ee48bc8d7cd0ae4bf217004db3d080cbaee652ca7"
          ],
          "data": "0x000000000000000000000000000000000000000000000000000000006787182c00000000000000000000000000000000000000000000000000038fa9212534070000000000000000000000000000000000000000000000000de0b6b3a7640000",
          "blockHash": "0xa1ed244881a48e5d3504621885fcdba92e01778a755fc347a74000370ce36897",
          "blockNumber": "0x725880",
          "transactionHash": "0xde03bec2073502b5b1e2f1e2b3aa633b8bb56302e13b5a9bd31b82a9d9c16291",
          "transactionIndex": "0x46",
          "logIndex": "0x74",
          "removed": false
        }
      ],
      "logsBloom": "0x00000000000000000000000000000000000000000000000000000000000000000000000000000000000000000000000000000000000000004000000000000000000000000000000000000008000000000000001000000000000000000000000000000000020000000000000000000800020000000000000000000010000000000000000000000000000000000000000000000000000008000000010000000000000000000000000000000000000000004000000000000000000000000000000000000002000000800000000000001000000000000000080000000000000020000000000000000000000000000000000000000000000000000000000000000000",
      "type": "0x2",
      "transactionHash": "0xde03bec2073502b5b1e2f1e2b3aa633b8bb56302e13b5a9bd31b82a9d9c16291",
      "transactionIndex": "0x46",
      "blockHash": "0xa1ed244881a48e5d3504621885fcdba92e01778a755fc347a74000370ce36897",
      "blockNumber": "0x725880",
      "gasUsed": "0x13af6",
      "effectiveGasPrice": "0x2e28009f",
      "from": "0xc77f7fed3b5cc8249adc428c5f44c9063b9734b4",
      "to": "0xbf4a322f1496e5c3d34a9bcdb4c60567b38c7de2",
      "contractAddress": null
    }
  ],
  "libraries": [],
  "pending": [],
  "returns": {},
  "timestamp": 1736906798,
  "chain": 11155111,
  "commit": "51a374b"
}