{
  "transactions": [
    {
      "hash": "0xc28cadd205322da6e54a8a3a873a884dc4d37a9731340d9536eb5f34756c070e",
      "transactionType": "CALL",
      "contractName": null,
      "contractAddress": "0x5eb9cc76c3506942c1c0ead70e877dd5e4f00cb0",
      "function": "buy(address)",
      "arguments": [
        "0xC77f7fed3b5Cc8249aDc428c5F44C9063B9734b4"
      ],
      "transaction": {
        "from": "0xc77f7fed3b5cc8249adc428c5f44c9063b9734b4",
        "to": "0x5eb9cc76c3506942c1c0ead70e877dd5e4f00cb0",
        "gas": "0x156c8",
        "value": "0xde0b6b3a7640000",
        "input": "0xf088d547000000000000000000000000c77f7fed3b5cc8249adc428c5f44c9063b9734b4",
        "nonce": "0x12a",
        "chainId": "0xaa36a7"
      },
      "additionalContracts": [],
      "isFixedGasLimit": false
    }
  ],
  "receipts": [
    {
      "status": "0x1",
      "cumulativeGasUsed": "0x1023b2c",
      "logs": [
        {
          "address": "0x5eb9cc76c3506942c1c0ead70e877dd5e4f00cb0",
          "topics": [
            "0xddf252ad1be2c89b69c2b068fc378daa952ba7f163c4a11628f55a4df523b3ef",
            "0x0000000000000000000000000000000000000000000000000000000000000000",
            "0x000000000000000000000000c77f7fed3b5cc8249adc428c5f44c9063b9734b4"
          ],
          "data": "0x000000000000000000000000000000000000000000000035ab01b1685173f499",
          "blockHash": "0x302401eed9671ddcf47cea0408d7c6777b72364b469b4012c9308387853366cf",
          "blockNumber": "0x723b09",
          "transactionHash": "0xc28cadd205322da6e54a8a3a873a884dc4d37a9731340d9536eb5f34756c070e",
          "transactionIndex": "0x5c",
          "logIndex": "0xcf",
          "removed": false
        },
        {
          "address": "0x5eb9cc76c3506942c1c0ead70e877dd5e4f00cb0",
          "topics": [
            "0xddf252ad1be2c89b69c2b068fc378daa952ba7f163c4a11628f55a4df523b3ef",
            "0x0000000000000000000000000000000000000000000000000000000000000000",
            "0x000000000000000000000000c77f7fed3b5cc8249adc428c5f44c9063b9734b4"
          ],
          "data": "0x00000000000000000000000000000000000000000000000029accea94e47eec1",
          "blockHash": "0x302401eed9671ddcf47cea0408d7c6777b72364b469b4012c9308387853366cf",
          "blockNumber": "0x723b09",
          "transactionHash": "0xc28cadd205322da6e54a8a3a873a884dc4d37a9731340d9536eb5f34756c070e",
          "transactionIndex": "0x5c",
          "logIndex": "0xd0",
          "removed": false
        },
        {
          "address": "0x5eb9cc76c3506942c1c0ead70e877dd5e4f00cb0",
          "topics": [
            "0x4afcb4a87cdbd9974efdb92ee48bc8d7cd0ae4bf217004db3d080cbaee652ca7"
          ],
          "data": "0x000000000000000000000000000000000000000000000000000000006785b5c000000000000000000000000000000000000000000000000000038d7eba1d29430000000000000000000000000000000000000000000000000de0b6b3a7640000",
          "blockHash": "0x302401eed9671ddcf47cea0408d7c6777b72364b469b4012c9308387853366cf",
          "blockNumber": "0x723b09",
          "transactionHash": "0xc28cadd205322da6e54a8a3a873a884dc4d37a9731340d9536eb5f34756c070e",
          "transactionIndex": "0x5c",
          "logIndex": "0xd1",
          "removed": false
        }
      ],
      "logsBloom": "0x00000000000000000000000000000000000000000000000000000000000000000000000000000000000000000000000000000000000000004000000000000000000000000000000000000008000000000000000000000000000000000000000000000000020000000000000004000800020000000000000000000010000000000000000000000000000000000000000000000000000000000000010000000000000000000000000000000000000000004000000000000000000000000000020000000002000000800000008000000000000000000000080000000000000020000000000000000000000000000000000000000000000000000000000000000000",
      "type": "0x2",
      "transactionHash": "0xc28cadd205322da6e54a8a3a873a884dc4d37a9731340d9536eb5f34756c070e",
      "transactionIndex": "0x5c",
      "blockHash": "0x302401eed9671ddcf47cea0408d7c6777b72364b469b4012c9308387853366cf",
      "blockNumber": "0x723b09",
      "gasUsed": "0xf82c",
      "effectiveGasPrice": "0x29509574c",
      "from": "0xc77f7fed3b5cc8249adc428c5f44c9063b9734b4",
      "to": "0x5eb9cc76c3506942c1c0ead70e877dd5e4f00cb0",
      "contractAddress": null
    }
  ],
  "libraries": [],
  "pending": [],
  "returns": {},
  "timestamp": 1736816066,
  "chain": 11155111,
  "commit": "51a374b"
}