{
  "transactions": [
    {
      "hash": "0x8207708c7ad30dede4eb93a78ff8d215d8bf91ca1c75c657253855873e274f0d",
      "transactionType": "CALL",
      "contractName": null,
      "contractAddress": "0x8aafd3ede9adb0ff97c7aebce82a919afb1c8764",
      "function": "buy(address)",
      "arguments": [
        "0xC77f7fed3b5Cc8249aDc428c5F44C9063B9734b4"
      ],
      "transaction": {
        "from": "0xc77f7fed3b5cc8249adc428c5f44c9063b9734b4",
        "to": "0x8aafd3ede9adb0ff97c7aebce82a919afb1c8764",
        "gas": "0x156ea",
        "value": "0xde0b6b3a7640000",
        "input": "0xf088d547000000000000000000000000c77f7fed3b5cc8249adc428c5f44c9063b9734b4",
        "nonce": "0x169c",
        "chainId": "0xaa36a7"
      },
      "additionalContracts": [],
      "isFixedGasLimit": false
    }
  ],
  "receipts": [
    {
      "status": "0x1",
      "cumulativeGasUsed": "0x1741b1e",
      "logs": [
        {
          "address": "0x8aafd3ede9adb0ff97c7aebce82a919afb1c8764",
          "topics": [
            "0xddf252ad1be2c89b69c2b068fc378daa952ba7f163c4a11628f55a4df523b3ef",
            "0x0000000000000000000000000000000000000000000000000000000000000000",
            "0x000000000000000000000000c77f7fed3b5cc8249adc428c5f44c9063b9734b4"
          ],
          "data": "0x000000000000000000000000000000000000000000000008bf186c74ba5d1449",
          "blockHash": "0x121f2c3381d1cb3c9064d2077690ebdbc4f8f8d0cb6c46de6a77418b0917d751",
          "blockNumber": "0x731e53",
          "transactionHash": "0x8207708c7ad30dede4eb93a78ff8d215d8bf91ca1c75c657253855873e274f0d",
          "transactionIndex": "0xc1",
          "logIndex": "0x10e",
          "removed": false
        },
        {
          "address": "0x8aafd3ede9adb0ff97c7aebce82a919afb1c8764",
          "topics": [
            "0xddf252ad1be2c89b69c2b068fc378daa952ba7f163c4a11628f55a4df523b3ef",
            "0x0000000000000000000000000000000000000000000000000000000000000000",
            "0x000000000000000000000000c77f7fed3b5cc8249adc428c5f44c9063b9734b4"
          ],
          "data": "0x00000000000000000000000000000000000000000000000006cabbe49dc45181",
          "blockHash": "0x121f2c3381d1cb3c9064d2077690ebdbc4f8f8d0cb6c46de6a77418b0917d751",
          "blockNumber": "0x731e53",
          "transactionHash": "0x8207708c7ad30dede4eb93a78ff8d215d8bf91ca1c75c657253855873e274f0d",
          "transactionIndex": "0xc1",
          "logIndex": "0x10f",
          "removed": false
        },
        {
          "address": "0x8aafd3ede9adb0ff97c7aebce82a919afb1c8764",
          "topics": [
            "0x4afcb4a87cdbd9974efdb92ee48bc8d7cd0ae4bf217004db3d080cbaee652ca7"
          ],
          "data": "0x00000000000000000000000000000000000000000000000000000000679068cc0000000000000000000000000000000000000000000000000015d371e61025b20000000000000000000000000000000000000000000000000de0b6b3a7640000",
          "blockHash": "0x121f2c3381d1cb3c9064d2077690ebdbc4f8f8d0cb6c46de6a77418b0917d751",
          "blockNumber": "0x731e53",
          "transactionHash": "0x8207708c7ad30dede4eb93a78ff8d215d8bf91ca1c75c657253855873e274f0d",
          "transactionIndex": "0xc1",
          "logIndex": "0x110",
          "removed": false
        }
      ],
      "logsBloom": "0x00000000000000000000000000000000000000000600000000000000000000000000000000000000000000000000000000000000000000004000000000000000000000000000004000000008000000000000000000000000000000000000000000000000020000000000000000000800020000000000000000000010000000000000000000000000000000000000000000000000000000000000010000000000000000000000000000000000000000004000000000000000000000000000000000000002000000800000000000000000000000000000080000000000000020000000000000000000000000000000000000000000000000000000000000000000",
      "type": "0x2",
      "transactionHash": "0x8207708c7ad30dede4eb93a78ff8d215d8bf91ca1c75c657253855873e274f0d",
      "transactionIndex": "0xc1",
      "blockHash": "0x121f2c3381d1cb3c9064d2077690ebdbc4f8f8d0cb6c46de6a77418b0917d751",
      "blockNumber": "0x731e53",
      "gasUsed": "0xf844",
      "effectiveGasPrice": "0x58788d68",
      "from": "0xc77f7fed3b5cc8249adc428c5f44c9063b9734b4",
      "to": "0x8aafd3ede9adb0ff97c7aebce82a919afb1c8764",
      "contractAddress": null
    }
  ],
  "libraries": [],
  "pending": [],
  "returns": {},
  "timestamp": 1737517261,
  "chain": 11155111,
  "commit": "1d2fb70"
}