{
  "transactions": [
    {
      "hash": "0xc496100af848affda7f9d1dde5740cca8c28ea2b953fe0baf25dc8fc267e7c99",
      "transactionType": "CALL",
      "contractName": null,
      "contractAddress": "0x8aafd3ede9adb0ff97c7aebce82a919afb1c8764",
      "function": "sell(uint256)",
      "arguments": [
        "3053362756995"
      ],
      "transaction": {
        "from": "0xc77f7fed3b5cc8249adc428c5f44c9063b9734b4",
        "to": "0x8aafd3ede9adb0ff97c7aebce82a919afb1c8764",
        "gas": "0x15daa",
        "value": "0x0",
        "input": "0xe4849b32000000000000000000000000000000000000000000000000000002c6ea9a3d83",
        "nonce": "0xf0e",
        "chainId": "0xaa36a7"
      },
      "additionalContracts": [],
      "isFixedGasLimit": false
    }
  ],
  "receipts": [
    {
      "status": "0x1",
      "cumulativeGasUsed": "0xbf080b",
      "logs": [
        {
          "address": "0x8aafd3ede9adb0ff97c7aebce82a919afb1c8764",
          "topics": [
            "0xddf252ad1be2c89b69c2b068fc378daa952ba7f163c4a11628f55a4df523b3ef",
            "0x000000000000000000000000c77f7fed3b5cc8249adc428c5f44c9063b9734b4",
            "0x0000000000000000000000000000000000000000000000000000000000000000"
          ],
          "data": "0x000000000000000000000000000000000000000000000000000002c13aa54b5c",
          "blockHash": "0xccbf5fdc66d7bfb754d047c174f28c391e28ce8588770f5756df85dd839f52e1",
          "blockNumber": "0x731487",
          "transactionHash": "0xc496100af848affda7f9d1dde5740cca8c28ea2b953fe0baf25dc8fc267e7c99",
          "transactionIndex": "0x8f",
          "logIndex": "0xc7",
          "removed": false
        },
        {
          "address": "0x8aafd3ede9adb0ff97c7aebce82a919afb1c8764",
          "topics": [
            "0xddf252ad1be2c89b69c2b068fc378daa952ba7f163c4a11628f55a4df523b3ef",
            "0x000000000000000000000000c77f7fed3b5cc8249adc428c5f44c9063b9734b4",
            "0x000000000000000000000000c77f7fed3b5cc8249adc428c5f44c9063b9734b4"
          ],
          "data": "0x00000000000000000000000000000000000000000000000000000005aff4f227",
          "blockHash": "0xccbf5fdc66d7bfb754d047c174f28c391e28ce8588770f5756df85dd839f52e1",
          "blockNumber": "0x731487",
          "transactionHash": "0xc496100af848affda7f9d1dde5740cca8c28ea2b953fe0baf25dc8fc267e7c99",
          "transactionIndex": "0x8f",
          "logIndex": "0xc8",
          "removed": false
        },
        {
          "address": "0x8aafd3ede9adb0ff97c7aebce82a919afb1c8764",
          "topics": [
            "0x4afcb4a87cdbd9974efdb92ee48bc8d7cd0ae4bf217004db3d080cbaee652ca7"
          ],
          "data": "0x00000000000000000000000000000000000000000000000000000000678ff3000000000000000000000000000000000000000000000000000004bbf0bfdff15600000000000000000000000000000000000000000000000000000000f283fbb4",
          "blockHash": "0xccbf5fdc66d7bfb754d047c174f28c391e28ce8588770f5756df85dd839f52e1",
          "blockNumber": "0x731487",
          "transactionHash": "0xc496100af848affda7f9d1dde5740cca8c28ea2b953fe0baf25dc8fc267e7c99",
          "transactionIndex": "0x8f",
          "logIndex": "0xc9",
          "removed": false
        }
      ],
      "logsBloom": "0x00000000000000000000000000000000000000000600000000000000000000000000000000000000000000000000000000000000000000004000000000000000000000000000004000000008000000000000000000000000000000000000000000000000020000000000000000000800020000000000000000000010000000000000000000000000000000000000000000000000000000000000010000000000000000000000000000000000000000004000000000000000000000000000000000000002000000800000000000000000000000000000080000000000000020000000000000000000000000000000000000000000000000000000000000000000",
      "type": "0x2",
      "transactionHash": "0xc496100af848affda7f9d1dde5740cca8c28ea2b953fe0baf25dc8fc267e7c99",
      "transactionIndex": "0x8f",
      "blockHash": "0xccbf5fdc66d7bfb754d047c174f28c391e28ce8588770f5756df85dd839f52e1",
      "blockNumber": "0x731487",
      "gasUsed": "0xfd27",
      "effectiveGasPrice": "0x8b0e6147",
      "from": "0xc77f7fed3b5cc8249adc428c5f44c9063b9734b4",
      "to": "0x8aafd3ede9adb0ff97c7aebce82a919afb1c8764",
      "contractAddress": null
    }
  ],
  "libraries": [],
  "pending": [],
  "returns": {},
  "timestamp": 1737487106,
  "chain": 11155111,
  "commit": "51a374b"
}