{
  "transactions": [
    {
      "hash": "0x8a335a9a9b33a108191cba3221da78935867c205f71cae9171d1f1df02a51a35",
      "transactionType": "CALL",
      "contractName": null,
      "contractAddress": "0x8aafd3ede9adb0ff97c7aebce82a919afb1c8764",
      "function": "sell(uint256)",
      "arguments": [
        "7014134434"
      ],
      "transaction": {
        "from": "0xc77f7fed3b5cc8249adc428c5f44c9063b9734b4",
        "to": "0x8aafd3ede9adb0ff97c7aebce82a919afb1c8764",
        "gas": "0x1722a",
        "value": "0x0",
        "input": "0xe4849b3200000000000000000000000000000000000000000000000000000001a21332a2",
        "nonce": "0x14d7",
        "chainId": "0xaa36a7"
      },
      "additionalContracts": [],
      "isFixedGasLimit": false
    }
  ],
  "receipts": [
    {
      "status": "0x1",
      "cumulativeGasUsed": "0x14133f1",
      "logs": [
        {
          "address": "0x8aafd3ede9adb0ff97c7aebce82a919afb1c8764",
          "topics": [
            "0xddf252ad1be2c89b69c2b068fc378daa952ba7f163c4a11628f55a4df523b3ef",
            "0x000000000000000000000000c77f7fed3b5cc8249adc428c5f44c9063b9734b4",
            "0x0000000000000000000000000000000000000000000000000000000000000000"
          ],
          "data": "0x000000000000000000000000000000000000000000000000000000019ebafaef",
          "blockHash": "0xcaafca66524a494b9b3bcf30578cc2fc8737d7277b2eb9ed54ea69ad48b9fd30",
          "blockNumber": "0x731c35",
          "transactionHash": "0x8a335a9a9b33a108191cba3221da78935867c205f71cae9171d1f1df02a51a35",
          "transactionIndex": "0xa3",
          "logIndex": "0x127",
          "removed": false
        },
        {
          "address": "0x8aafd3ede9adb0ff97c7aebce82a919afb1c8764",
          "topics": [
            "0xddf252ad1be2c89b69c2b068fc378daa952ba7f163c4a11628f55a4df523b3ef",
            "0x000000000000000000000000c77f7fed3b5cc8249adc428c5f44c9063b9734b4",
            "0x000000000000000000000000c77f7fed3b5cc8249adc428c5f44c9063b9734b4"
          ],
          "data": "0x00000000000000000000000000000000000000000000000000000000035837b3",
          "blockHash": "0xcaafca66524a494b9b3bcf30578cc2fc8737d7277b2eb9ed54ea69ad48b9fd30",
          "blockNumber": "0x731c35",
          "transactionHash": "0x8a335a9a9b33a108191cba3221da78935867c205f71cae9171d1f1df02a51a35",
          "transactionIndex": "0xa3",
          "logIndex": "0x128",
          "removed": false
        },
        {
          "address": "0x8aafd3ede9adb0ff97c7aebce82a919afb1c8764",
          "topics": [
            "0x4afcb4a87cdbd9974efdb92ee48bc8d7cd0ae4bf217004db3d080cbaee652ca7"
          ],
          "data": "0x0000000000000000000000000000000000000000000000000000000067904f58000000000000000000000000000000000000000000000000001095ab204aa1a50000000000000000000000000000000000000000000000000000000001f39eca",
          "blockHash": "0xcaafca66524a494b9b3bcf30578cc2fc8737d7277b2eb9ed54ea69ad48b9fd30",
          "blockNumber": "0x731c35",
          "transactionHash": "0x8a335a9a9b33a108191cba3221da78935867c205f71cae9171d1f1df02a51a35",
          "transactionIndex": "0xa3",
          "logIndex": "0x129",
          "removed": false
        }
      ],
      "logsBloom": "0x00000000000000000000000000000000000000000600000000000000000000000000000000000000000000000000000000000000000000004000000000000000000000000000004000000008000000000000000000000000000000000000000000000000020000000000000000000800020000000000000000000010000000000000000000000000000000000000000000000000000000000000010000000000000000000000000000000000000000004000000000000000000000000000000000000002000000800000000000000000000000000000080000000000000020000000000000000000000000000000000000000000000000000000000000000000",
      "type": "0x2",
      "transactionHash": "0x8a335a9a9b33a108191cba3221da78935867c205f71cae9171d1f1df02a51a35",
      "transactionIndex": "0xa3",
      "blockHash": "0xcaafca66524a494b9b3bcf30578cc2fc8737d7277b2eb9ed54ea69ad48b9fd30",
      "blockNumber": "0x731c35",
      "gasUsed": "0xfd1b",
      "effectiveGasPrice": "0x13d94dd15",
      "from": "0xc77f7fed3b5cc8249adc428c5f44c9063b9734b4",
      "to": "0x8aafd3ede9adb0ff97c7aebce82a919afb1c8764",
      "contractAddress": null
    }
  ],
  "libraries": [],
  "pending": [],
  "returns": {},
  "timestamp": 1737510745,
  "chain": 11155111,
  "commit": "1d2fb70"
}