{
  "transactions": [
    {
      "hash": "0x99a2e412e4cc71f0be22881441884ebba21b1866a76499533e2a1f005f64227a",
      "transactionType": "CALL",
      "contractName": null,
      "contractAddress": "0x8aafd3ede9adb0ff97c7aebce82a919afb1c8764",
      "function": "sell(uint256)",
      "arguments": [
        "69049840"
      ],
      "transaction": {
        "from": "0xc77f7fed3b5cc8249adc428c5f44c9063b9734b4",
        "to": "0x8aafd3ede9adb0ff97c7aebce82a919afb1c8764",
        "gas": "0x15d88",
        "value": "0x0",
        "input": "0xe4849b3200000000000000000000000000000000000000000000000000000000041d9df0",
        "nonce": "0x13ca",
        "chainId": "0xaa36a7"
      },
      "additionalContracts": [],
      "isFixedGasLimit": false
    }
  ],
  "receipts": [
    {
      "status": "0x1",
      "cumulativeGasUsed": "0x686144",
      "logs": [
        {
          "address": "0x8aafd3ede9adb0ff97c7aebce82a919afb1c8764",
          "topics": [
            "0xddf252ad1be2c89b69c2b068fc378daa952ba7f163c4a11628f55a4df523b3ef",
            "0x000000000000000000000000c77f7fed3b5cc8249adc428c5f44c9063b9734b4",
            "0x0000000000000000000000000000000000000000000000000000000000000000"
          ],
          "data": "0x0000000000000000000000000000000000000000000000000000000004153022",
          "blockHash": "0xbcc1cf8947c63058c2a8eac0739fc11cc3fbd48e1d0378d2e7a90fc56e836f99",
          "blockNumber": "0x731af5",
          "transactionHash": "0x99a2e412e4cc71f0be22881441884ebba21b1866a76499533e2a1f005f64227a",
          "transactionIndex": "0x3d",
          "logIndex": "0x5e",
          "removed": false
        },
        {
          "address": "0x8aafd3ede9adb0ff97c7aebce82a919afb1c8764",
          "topics": [
            "0xddf252ad1be2c89b69c2b068fc378daa952ba7f163c4a11628f55a4df523b3ef",
            "0x000000000000000000000000c77f7fed3b5cc8249adc428c5f44c9063b9734b4",
            "0x000000000000000000000000c77f7fed3b5cc8249adc428c5f44c9063b9734b4"
          ],
          "data": "0x0000000000000000000000000000000000000000000000000000000000086dce",
          "blockHash": "0xbcc1cf8947c63058c2a8eac0739fc11cc3fbd48e1d0378d2e7a90fc56e836f99",
          "blockNumber": "0x731af5",
          "transactionHash": "0x99a2e412e4cc71f0be22881441884ebba21b1866a76499533e2a1f005f64227a",
          "transactionIndex": "0x3d",
          "logIndex": "0x5f",
          "removed": false
        },
        {
          "address": "0x8aafd3ede9adb0ff97c7aebce82a919afb1c8764",
          "topics": [
            "0x4afcb4a87cdbd9974efdb92ee48bc8d7cd0ae4bf217004db3d080cbaee652ca7"
          ],
          "data": "0x000000000000000000000000000000000000000000000000000000006790404c000000000000000000000000000000000000000000000000000d7ee0d35c4b30000000000000000000000000000000000000000000000000000000000004009a",
          "blockHash": "0xbcc1cf8947c63058c2a8eac0739fc11cc3fbd48e1d0378d2e7a90fc56e836f99",
          "blockNumber": "0x731af5",
          "transactionHash": "0x99a2e412e4cc71f0be22881441884ebba21b1866a76499533e2a1f005f64227a",
          "transactionIndex": "0x3d",
          "logIndex": "0x60",
          "removed": false
        }
      ],
      "logsBloom": "0x00000000000000000000000000000000000000000600000000000000000000000000000000000000000000000000000000000000000000004000000000000000000000000000004000000008000000000000000000000000000000000000000000000000020000000000000000000800020000000000000000000010000000000000000000000000000000000000000000000000000000000000010000000000000000000000000000000000000000004000000000000000000000000000000000000002000000800000000000000000000000000000080000000000000020000000000000000000000000000000000000000000000000000000000000000000",
      "type": "0x2",
      "transactionHash": "0x99a2e412e4cc71f0be22881441884ebba21b1866a76499533e2a1f005f64227a",
      "transactionIndex": "0x3d",
      "blockHash": "0xbcc1cf8947c63058c2a8eac0739fc11cc3fbd48e1d0378d2e7a90fc56e836f99",
      "blockNumber": "0x731af5",
      "gasUsed": "0xfd0f",
      "effectiveGasPrice": "0x88804d91",
      "from": "0xc77f7fed3b5cc8249adc428c5f44c9063b9734b4",
      "to": "0x8aafd3ede9adb0ff97c7aebce82a919afb1c8764",
      "contractAddress": null
    }
  ],
  "libraries": [],
  "pending": [],
  "returns": {},
  "timestamp": 1737506893,
  "chain": 11155111,
  "commit": "1d2fb70"
}