{
  "transactions": [
    {
      "hash": "0xa318162edd50f2f4ace6d03631a78459f832ee3076e6569181df43444585ecff",
      "transactionType": "CALL",
      "contractName": null,
      "contractAddress": "0x8aafd3ede9adb0ff97c7aebce82a919afb1c8764",
      "function": "sell(uint256)",
      "arguments": [
        "2901966917922"
      ],
      "transaction": {
        "from": "0xc77f7fed3b5cc8249adc428c5f44c9063b9734b4",
        "to": "0x8aafd3ede9adb0ff97c7aebce82a919afb1c8764",
        "gas": "0x15daa",
        "value": "0x0",
        "input": "0xe4849b32000000000000000000000000000000000000000000000000000002a3aab51122",
        "nonce": "0x1095",
        "chainId": "0xaa36a7"
      },
      "additionalContracts": [],
      "isFixedGasLimit": false
    }
  ],
  "receipts": [
    {
      "status": "0x1",
      "cumulativeGasUsed": "0x94eb93",
      "logs": [
        {
          "address": "0x8aafd3ede9adb0ff97c7aebce82a919afb1c8764",
          "topics": [
            "0xddf252ad1be2c89b69c2b068fc378daa952ba7f163c4a11628f55a4df523b3ef",
            "0x000000000000000000000000c77f7fed3b5cc8249adc428c5f44c9063b9734b4",
            "0x0000000000000000000000000000000000000000000000000000000000000000"
          ],
          "data": "0x0000000000000000000000000000000000000000000000000000029e42f10ef3",
          "blockHash": "0xbecf7d0146397155c68f959d07e508ff1aa69b7e178a3407dd33e6a667990608",
          "blockNumber": "0x731723",
          "transactionHash": "0xa318162edd50f2f4ace6d03631a78459f832ee3076e6569181df43444585ecff",
          "transactionIndex": "0x77",
          "logIndex": "0x7e",
          "removed": false
        },
        {
          "address": "0x8aafd3ede9adb0ff97c7aebce82a919afb1c8764",
          "topics": [
            "0xddf252ad1be2c89b69c2b068fc378daa952ba7f163c4a11628f55a4df523b3ef",
            "0x000000000000000000000000c77f7fed3b5cc8249adc428c5f44c9063b9734b4",
            "0x000000000000000000000000c77f7fed3b5cc8249adc428c5f44c9063b9734b4"
          ],
          "data": "0x0000000000000000000000000000000000000000000000000000000567c4022f",
          "blockHash": "0xbecf7d0146397155c68f959d07e508ff1aa69b7e178a3407dd33e6a667990608",
          "blockNumber": "0x731723",
          "transactionHash": "0xa318162edd50f2f4ace6d03631a78459f832ee3076e6569181df43444585ecff",
          "transactionIndex": "0x77",
          "logIndex": "0x7f",
          "removed": false
        },
        {
          "address": "0x8aafd3ede9adb0ff97c7aebce82a919afb1c8764",
          "topics": [
            "0x4afcb4a87cdbd9974efdb92ee48bc8d7cd0ae4bf217004db3d080cbaee652ca7"
          ],
          "data": "0x00000000000000000000000000000000000000000000000000000000679012680000000000000000000000000000000000000000000000000004fc2eaec8736500000000000000000000000000000000000000000000000000000000f2b56546",
          "blockHash": "0xbecf7d0146397155c68f959d07e508ff1aa69b7e178a3407dd33e6a667990608",
          "blockNumber": "0x731723",
          "transactionHash": "0xa318162edd50f2f4ace6d03631a78459f832ee3076e6569181df43444585ecff",
          "transactionIndex": "0x77",
          "logIndex": "0x80",
          "removed": false
        }
      ],
      "logsBloom": "0x00000000000000000000000000000000000000000600000000000000000000000000000000000000000000000000000000000000000000004000000000000000000000000000004000000008000000000000000000000000000000000000000000000000020000000000000000000800020000000000000000000010000000000000000000000000000000000000000000000000000000000000010000000000000000000000000000000000000000004000000000000000000000000000000000000002000000800000000000000000000000000000080000000000000020000000000000000000000000000000000000000000000000000000000000000000",
      "type": "0x2",
      "transactionHash": "0xa318162edd50f2f4ace6d03631a78459f832ee3076e6569181df43444585ecff",
      "transactionIndex": "0x77",
      "blockHash": "0xbecf7d0146397155c68f959d07e508ff1aa69b7e178a3407dd33e6a667990608",
      "blockNumber": "0x731723",
      "gasUsed": "0xfd27",
      "effectiveGasPrice": "0x457658a9",
      "from": "0xc77f7fed3b5cc8249adc428c5f44c9063b9734b4",
      "to": "0x8aafd3ede9adb0ff97c7aebce82a919afb1c8764",
      "contractAddress": null
    }
  ],
  "libraries": [],
  "pending": [],
  "returns": {},
  "timestamp": 1737495146,
  "chain": 11155111,
  "commit": "1d2fb70"
}