{
  "transactions": [
    {
      "hash": "0x642bb926df995b167b145858ac3ce1baf3796184f1e8bf3960acc763d640245c",
      "transactionType": "CALL",
      "contractName": null,
      "contractAddress": "0x8aafd3ede9adb0ff97c7aebce82a919afb1c8764",
      "function": "sell(uint256)",
      "arguments": [
        "74258190582351"
      ],
      "transaction": {
        "from": "0xc77f7fed3b5cc8249adc428c5f44c9063b9734b4",
        "to": "0x8aafd3ede9adb0ff97c7aebce82a919afb1c8764",
        "gas": "0x15daa",
        "value": "0x0",
        "input": "0xe4849b32000000000000000000000000000000000000000000000000000043899512424f",
        "nonce": "0x1778",
        "chainId": "0xaa36a7"
      },
      "additionalContracts": [],
      "isFixedGasLimit": false
    }
  ],
  "receipts": [
    {
      "status": "0x1",
      "cumulativeGasUsed": "0xcb0f97",
      "logs": [
        {
          "address": "0x8aafd3ede9adb0ff97c7aebce82a919afb1c8764",
          "topics": [
            "0xddf252ad1be2c89b69c2b068fc378daa952ba7f163c4a11628f55a4df523b3ef",
            "0x000000000000000000000000c77f7fed3b5cc8249adc428c5f44c9063b9734b4",
            "0x0000000000000000000000000000000000000000000000000000000000000000"
          ],
          "data": "0x000000000000000000000000000000000000000000000000000042ff4401ba9d",
          "blockHash": "0xf2d6b4f52fa0c4341be2efdd8ad62b584fb60a73037deec5888b95ef91c358c1",
          "blockNumber": "0x731f52",
          "transactionHash": "0x642bb926df995b167b145858ac3ce1baf3796184f1e8bf3960acc763d640245c",
          "transactionIndex": "0x71",
          "logIndex": "0xa7",
          "removed": false
        },
        {
          "address": "0x8aafd3ede9adb0ff97c7aebce82a919afb1c8764",
          "topics": [
            "0xddf252ad1be2c89b69c2b068fc378daa952ba7f163c4a11628f55a4df523b3ef",
            "0x000000000000000000000000c77f7fed3b5cc8249adc428c5f44c9063b9734b4",
            "0x000000000000000000000000c77f7fed3b5cc8249adc428c5f44c9063b9734b4"
          ],
          "data": "0x0000000000000000000000000000000000000000000000000000008a511087b2",
          "blockHash": "0xf2d6b4f52fa0c4341be2efdd8ad62b584fb60a73037deec5888b95ef91c358c1",
          "blockNumber": "0x731f52",
          "transactionHash": "0x642bb926df995b167b145858ac3ce1baf3796184f1e8bf3960acc763d640245c",
          "transactionIndex": "0x71",
          "logIndex": "0xa8",
          "removed": false
        },
        {
          "address": "0x8aafd3ede9adb0ff97c7aebce82a919afb1c8764",
          "topics": [
            "0x4afcb4a87cdbd9974efdb92ee48bc8d7cd0ae4bf217004db3d080cbaee652ca7"
          ],
          "data": "0x00000000000000000000000000000000000000000000000000000000679074c000000000000000000000000000000000000000000000000000186df54e90a31800000000000000000000000000000000000000000000000000000076e36af9d9",
          "blockHash": "0xf2d6b4f52fa0c4341be2efdd8ad62b584fb60a73037deec5888b95ef91c358c1",
          "blockNumber": "0x731f52",
          "transactionHash": "0x642bb926df995b167b145858ac3ce1baf3796184f1e8bf3960acc763d640245c",
          "transactionIndex": "0x71",
          "logIndex": "0xa9",
          "removed": false
        }
      ],
      "logsBloom": "0x00000000000000000000000000000000000000000600000000000000000000000000000000000000000000000000000000000000000000004000000000000000000000000000004000000008000000000000000000000000000000000000000000000000020000000000000000000800020000000000000000000010000000000000000000000000000000000000000000000000000000000000010000000000000000000000000000000000000000004000000000000000000000000000000000000002000000800000000000000000000000000000080000000000000020000000000000000000000000000000000000000000000000000000000000000000",
      "type": "0x2",
      "transactionHash": "0x642bb926df995b167b145858ac3ce1baf3796184f1e8bf3960acc763d640245c",
      "transactionIndex": "0x71",
      "blockHash": "0xf2d6b4f52fa0c4341be2efdd8ad62b584fb60a73037deec5888b95ef91c358c1",
      "blockNumber": "0x731f52",
      "gasUsed": "0xfd27",
      "effectiveGasPrice": "0x47847f42",
      "from": "0xc77f7fed3b5cc8249adc428c5f44c9063b9734b4",
      "to": "0x8aafd3ede9adb0ff97c7aebce82a919afb1c8764",
      "contractAddress": null
    }
  ],
  "libraries": [],
  "pending": [],
  "returns": {},
  "timestamp": 1737520322,
  "chain": 11155111,
  "commit": "1d2fb70"
}