{
  "transactions": [
    {
      "hash": "0x46936ac1a313e8f6e57e314727ff17b25b68186c2de7182c6e11ea5064ac763f",
      "transactionType": "CALL",
      "contractName": null,
      "contractAddress": "0x8aafd3ede9adb0ff97c7aebce82a919afb1c8764",
      "function": "sell(uint256)",
      "arguments": [
        "24494138894"
      ],
      "transaction": {
        "from": "0xc77f7fed3b5cc8249adc428c5f44c9063b9734b4",
        "to": "0x8aafd3ede9adb0ff97c7aebce82a919afb1c8764",
        "gas": "0x1722a",
        "value": "0x0",
        "input": "0xe4849b3200000000000000000000000000000000000000000000000000000005b3f6e60e",
        "nonce": "0xebf",
        "chainId": "0xaa36a7"
      },
      "additionalContracts": [],
      "isFixedGasLimit": false
    }
  ],
  "receipts": [
    {
      "status": "0x1",
      "cumulativeGasUsed": "0x10e4ecb",
      "logs": [
        {
          "address": "0x8aafd3ede9adb0ff97c7aebce82a919afb1c8764",
          "topics": [
            "0xddf252ad1be2c89b69c2b068fc378daa952ba7f163c4a11628f55a4df523b3ef",
            "0x000000000000000000000000c77f7fed3b5cc8249adc428c5f44c9063b9734b4",
            "0x0000000000000000000000000000000000000000000000000000000000000000"
          ],
          "data": "0x00000000000000000000000000000000000000000000000000000005a848e437",
          "blockHash": "0x2cfa589ba02cfe3c05d5ad8571c38f5464c0ad16c568450845c4d0531a9be439",
          "blockNumber": "0x731424",
          "transactionHash": "0x46936ac1a313e8f6e57e314727ff17b25b68186c2de7182c6e11ea5064ac763f",
          "transactionIndex": "0x98",
          "logIndex": "0xdf",
          "removed": false
        },
        {
          "address": "0x8aafd3ede9adb0ff97c7aebce82a919afb1c8764",
          "topics": [
            "0xddf252ad1be2c89b69c2b068fc378daa952ba7f163c4a11628f55a4df523b3ef",
            "0x000000000000000000000000c77f7fed3b5cc8249adc428c5f44c9063b9734b4",
            "0x000000000000000000000000c77f7fed3b5cc8249adc428c5f44c9063b9734b4"
          ],
          "data": "0x000000000000000000000000000000000000000000000000000000000bae01d7",
          "blockHash": "0x2cfa589ba02cfe3c05d5ad8571c38f5464c0ad16c568450845c4d0531a9be439",
          "blockNumber": "0x731424",
          "transactionHash": "0x46936ac1a313e8f6e57e314727ff17b25b68186c2de7182c6e11ea5064ac763f",
          "transactionIndex": "0x98",
          "logIndex": "0xe0",
          "removed": false
        },
        {
          "address": "0x8aafd3ede9adb0ff97c7aebce82a919afb1c8764",
          "topics": [
            "0x4afcb4a87cdbd9974efdb92ee48bc8d7cd0ae4bf217004db3d080cbaee652ca7"
          ],
          "data": "0x00000000000000000000000000000000000000000000000000000000678fee5c0000000000000000000000000000000000000000000000000004b89d615875540000000000000000000000000000000000000000000000000000000001f0ac1d",
          "blockHash": "0x2cfa589ba02cfe3c05d5ad8571c38f5464c0ad16c568450845c4d0531a9be439",
          "blockNumber": "0x731424",
          "transactionHash": "0x46936ac1a313e8f6e57e314727ff17b25b68186c2de7182c6e11ea5064ac763f",
          "transactionIndex": "0x98",
          "logIndex": "0xe1",
          "removed": false
        }
      ],
      "logsBloom": "0x00000000000000000000000000000000000000000600000000000000000000000000000000000000000000000000000000000000000000004000000000000000000000000000004000000008000000000000000000000000000000000000000000000000020000000000000000000800020000000000000000000010000000000000000000000000000000000000000000000000000000000000010000000000000000000000000000000000000000004000000000000000000000000000000000000002000000800000000000000000000000000000080000000000000020000000000000000000000000000000000000000000000000000000000000000000",
      "type": "0x2",
      "transactionHash": "0x46936ac1a313e8f6e57e314727ff17b25b68186c2de7182c6e11ea5064ac763f",
      "transactionIndex": "0x98",
      "blockHash": "0x2cfa589ba02cfe3c05d5ad8571c38f5464c0ad16c568450845c4d0531a9be439",
      "blockNumber": "0x731424",
      "gasUsed": "0xfd1b",
      "effectiveGasPrice": "0xbbf0dc97",
      "from": "0xc77f7fed3b5cc8249adc428c5f44c9063b9734b4",
      "to": "0x8aafd3ede9adb0ff97c7aebce82a919afb1c8764",
      "contractAddress": null
    }
  ],
  "libraries": [],
  "pending": [],
  "returns": {},
  "timestamp": 1737485917,
  "chain": 11155111,
  "commit": "51a374b"
}