{
  "transactions": [
    {
      "hash": "0x422f75eafd0138653dc61950120da12b9f0651f5e6bd731d7522118177fd14e9",
      "transactionType": "CALL",
      "contractName": null,
      "contractAddress": "0x8aafd3ede9adb0ff97c7aebce82a919afb1c8764",
      "function": "sell(uint256)",
      "arguments": [
        "1417223346956322209"
      ],
      "transaction": {
        "from": "0xc77f7fed3b5cc8249adc428c5f44c9063b9734b4",
        "to": "0x8aafd3ede9adb0ff97c7aebce82a919afb1c8764",
        "gas": "0x15dca",
        "value": "0x0",
        "input": "0xe4849b3200000000000000000000000000000000000000000000000013aafd2012b8c5a1",
        "nonce": "0x15fc",
        "chainId": "0xaa36a7"
      },
      "additionalContracts": [],
      "isFixedGasLimit": false
    }
  ],
  "receipts": [
    {
      "status": "0x1",
      "cumulativeGasUsed": "0xe9450f",
      "logs": [
        {
          "address": "0x8aafd3ede9adb0ff97c7aebce82a919afb1c8764",
          "topics": [
            "0xddf252ad1be2c89b69c2b068fc378daa952ba7f163c4a11628f55a4df523b3ef",
            "0x000000000000000000000000c77f7fed3b5cc8249adc428c5f44c9063b9734b4",
            "0x0000000000000000000000000000000000000000000000000000000000000000"
          ],
          "data": "0x0000000000000000000000000000000000000000000000001382b577e16b8490",
          "blockHash": "0xc8818081c1bff8965aa81c32c7b947ac980ee4247b66f5965c3a2a8f76d900cb",
          "blockNumber": "0x731d8c",
          "transactionHash": "0x422f75eafd0138653dc61950120da12b9f0651f5e6bd731d7522118177fd14e9",
          "transactionIndex": "0x6d",
          "logIndex": "0x7f",
          "removed": false
        },
        {
          "address": "0x8aafd3ede9adb0ff97c7aebce82a919afb1c8764",
          "topics": [
            "0xddf252ad1be2c89b69c2b068fc378daa952ba7f163c4a11628f55a4df523b3ef",
            "0x000000000000000000000000c77f7fed3b5cc8249adc428c5f44c9063b9734b4",
            "0x000000000000000000000000c77f7fed3b5cc8249adc428c5f44c9063b9734b4"
          ],
          "data": "0x000000000000000000000000000000000000000000000000002847a8314d4111",
          "blockHash": "0xc8818081c1bff8965aa81c32c7b947ac980ee4247b66f5965c3a2a8f76d900cb",
          "blockNumber": "0x731d8c",
          "transactionHash": "0x422f75eafd0138653dc61950120da12b9f0651f5e6bd731d7522118177fd14e9",
          "transactionIndex": "0x6d",
          "logIndex": "0x80",
          "removed": false
        },
        {
          "address": "0x8aafd3ede9adb0ff97c7aebce82a919afb1c8764",
          "topics": [
            "0x4afcb4a87cdbd9974efdb92ee48bc8d7cd0ae4bf217004db3d080cbaee652ca7"
          ],
          "data": "0x0000000000000000000000000000000000000000000000000000000067905f78000000000000000000000000000000000000000000000000001404c942e9f171000000000000000000000000000000000000000000000000001c5ebd6630d3c3",
          "blockHash": "0xc8818081c1bff8965aa81c32c7b947ac980ee4247b66f5965c3a2a8f76d900cb",
          "blockNumber": "0x731d8c",
          "transactionHash": "0x422f75eafd0138653dc61950120da12b9f0651f5e6bd731d7522118177fd14e9",
          "transactionIndex": "0x6d",
          "logIndex": "0x81",
          "removed": false
        }
      ],
      "logsBloom": "0x00000000000000000000000000000000000000000600000000000000000000000000000000000000000000000000000000000000000000004000000000000000000000000000004000000008000000000000000000000000000000000000000000000000020000000000000000000800020000000000000000000010000000000000000000000000000000000000000000000000000000000000010000000000000000000000000000000000000000004000000000000000000000000000000000000002000000800000000000000000000000000000080000000000000020000000000000000000000000000000000000000000000000000000000000000000",
      "type": "0x2",
      "transactionHash": "0x422f75eafd0138653dc61950120da12b9f0651f5e6bd731d7522118177fd14e9",
      "transactionIndex": "0x6d",
      "blockHash": "0xc8818081c1bff8965aa81c32c7b947ac980ee4247b66f5965c3a2a8f76d900cb",
      "blockNumber": "0x731d8c",
      "gasUsed": "0xfd3f",
      "effectiveGasPrice": "0x61045c84",
      "from": "0xc77f7fed3b5cc8249adc428c5f44c9063b9734b4",
      "to": "0x8aafd3ede9adb0ff97c7aebce82a919afb1c8764",
      "contractAddress": null
    }
  ],
  "libraries": [],
  "pending": [],
  "returns": {},
  "timestamp": 1737514873,
  "chain": 11155111,
  "commit": "1d2fb70"
}