{
  "transactions": [
    {
      "hash": "0xa9f95c730f8d869b3d9ec3b6a9977923a00214424102d9ebdbe591338ff4de09",
      "transactionType": "CALL",
      "contractName": null,
      "contractAddress": "0x8aafd3ede9adb0ff97c7aebce82a919afb1c8764",
      "function": "buy(address)",
      "arguments": [
        "0xC77f7fed3b5Cc8249aDc428c5F44C9063B9734b4"
      ],
      "transaction": {
        "from": "0xc77f7fed3b5cc8249adc428c5f44c9063b9734b4",
        "to": "0x8aafd3ede9adb0ff97c7aebce82a919afb1c8764",
        "gas": "0x156ea",
        "value": "0xde0b6b3a7640000",
        "input": "0xf088d547000000000000000000000000c77f7fed3b5cc8249adc428c5f44c9063b9734b4",
        "nonce": "0x1234",
        "chainId": "0xaa36a7"
      },
      "additionalContracts": [],
      "isFixedGasLimit": false
    }
  ],
  "receipts": [
    {
      "status": "0x1",
      "cumulativeGasUsed": "0x813912",
      "logs": [
        {
          "address": "0x8aafd3ede9adb0ff97c7aebce82a919afb1c8764",
          "topics": [
            "0xddf252ad1be2c89b69c2b068fc378daa952ba7f163c4a11628f55a4df523b3ef",
            "0x0000000000000000000000000000000000000000000000000000000000000000",
            "0x000000000000000000000000c77f7fed3b5cc8249adc428c5f44c9063b9734b4"
          ],
          "data": "0x0000000000000000000000000000000000000000000000248ac057f63840ff83",
          "blockHash": "0x4db477d69092e44f14d7f848e257d77a57cc7cdeb2bcbd1bd01403dba3ab612b",
          "blockNumber": "0x731912",
          "transactionHash": "0xa9f95c730f8d869b3d9ec3b6a9977923a00214424102d9ebdbe591338ff4de09",
          "transactionIndex": "0x66",
          "logIndex": "0x70",
          "removed": false
        },
        {
          "address": "0x8aafd3ede9adb0ff97c7aebce82a919afb1c8764",
          "topics": [
            "0xddf252ad1be2c89b69c2b068fc378daa952ba7f163c4a11628f55a4df523b3ef",
            "0x0000000000000000000000000000000000000000000000000000000000000000",
            "0x000000000000000000000000c77f7fed3b5cc8249adc428c5f44c9063b9734b4"
          ],
          "data": "0x0000000000000000000000000000000000000000000000001c604893e271e5b4",
          "blockHash": "0x4db477d69092e44f14d7f848e257d77a57cc7cdeb2bcbd1bd01403dba3ab612b",
          "blockNumber": "0x731912",
          "transactionHash": "0xa9f95c730f8d869b3d9ec3b6a9977923a00214424102d9ebdbe591338ff4de09",
          "transactionIndex": "0x66",
          "logIndex": "0x71",
          "removed": false
        },
        {
          "address": "0x8aafd3ede9adb0ff97c7aebce82a919afb1c8764",
          "topics": [
            "0x4afcb4a87cdbd9974efdb92ee48bc8d7cd0ae4bf217004db3d080cbaee652ca7"
          ],
          "data": "0x00000000000000000000000000000000000000000000000000000000679029a8000000000000000000000000000000000000000000000000000538279261f4950000000000000000000000000000000000000000000000000de0b6b3a7640000",
          "blockHash": "0x4db477d69092e44f14d7f848e257d77a57cc7cdeb2bcbd1bd01403dba3ab612b",
          "blockNumber": "0x731912",
          "transactionHash": "0xa9f95c730f8d869b3d9ec3b6a9977923a00214424102d9ebdbe591338ff4de09",
          "transactionIndex": "0x66",
          "logIndex": "0x72",
          "removed": false
        }
      ],
      "logsBloom": "0x00000000000000000000000000000000000000000600000000000000000000000000000000000000000000000000000000000000000000004000000000000000000000000000004000000008000000000000000000000000000000000000000000000000020000000000000000000800020000000000000000000010000000000000000000000000000000000000000000000000000000000000010000000000000000000000000000000000000000004000000000000000000000000000000000000002000000800000000000000000000000000000080000000000000020000000000000000000000000000000000000000000000000000000000000000000",
      "type": "0x2",
      "transactionHash": "0xa9f95c730f8d869b3d9ec3b6a9977923a00214424102d9ebdbe591338ff4de09",
      "transactionIndex": "0x66",
      "blockHash": "0x4db477d69092e44f14d7f848e257d77a57cc7cdeb2bcbd1bd01403dba3ab612b",
      "blockNumber": "0x731912",
      "gasUsed": "0xf844",
      "effectiveGasPrice": "0x3ec53313",
      "from": "0xc77f7fed3b5cc8249adc428c5f44c9063b9734b4",
      "to": "0x8aafd3ede9adb0ff97c7aebce82a919afb1c8764",
      "contractAddress": null
    }
  ],
  "libraries": [],
  "pending": [],
  "returns": {},
  "timestamp": 1737501099,
  "chain": 11155111,
  "commit": "1d2fb70"
}