{
  "transactions": [
    {
      "hash": "0x62edbc48ad06f761c1e762976f852c95ce545646513ecd3c6b7f8012e0067cdc",
      "transactionType": "CALL",
      "contractName": null,
      "contractAddress": "0xbf4a322f1496e5c3d34a9bcdb4c60567b38c7de2",
      "function": "sell(uint256)",
      "arguments": [
        "990132583704004149808"
      ],
      "transaction": {
        "from": "0xc77f7fed3b5cc8249adc428c5f44c9063b9734b4",
        "to": "0xbf4a322f1496e5c3d34a9bcdb4c60567b38c7de2",
        "gas": "0x16fea",
        "value": "0x0",
        "input": "0xe4849b32000000000000000000000000000000000000000000000035acd992ee78e44230",
        "nonce": "0x92d",
        "chainId": "0xaa36a7"
      },
      "additionalContracts": [],
      "isFixedGasLimit": false
    }
  ],
  "receipts": [
    {
      "status": "0x1",
      "cumulativeGasUsed": "0xb8d171",
      "logs": [
        {
          "address": "0xbf4a322f1496e5c3d34a9bcdb4c60567b38c7de2",
          "topics": [
            "0xddf252ad1be2c89b69c2b068fc378daa952ba7f163c4a11628f55a4df523b3ef",
            "0x000000000000000000000000c77f7fed3b5cc8249adc428c5f44c9063b9734b4",
            "0x0000000000000000000000000000000000000000000000000000000000000000"
          ],
          "data": "0x000000000000000000000000000000000000000000000035acd992ee78e44230",
          "blockHash": "0xe1cc188e4a07420701614f0b8a87f40e836ea66fd99c9a7d1fff2ee9b6c81b68",
          "blockNumber": "0x7258b5",
          "transactionHash": "0x62edbc48ad06f761c1e762976f852c95ce545646513ecd3c6b7f8012e0067cdc",
          "transactionIndex": "0x61",
          "logIndex": "0x97",
          "removed": false
        },
        {
          "address": "0xbf4a322f1496e5c3d34a9bcdb4c60567b38c7de2",
          "topics": [
            "0x4afcb4a87cdbd9974efdb92ee48bc8d7cd0ae4bf217004db3d080cbaee652ca7"
          ],
          "data": "0x0000000000000000000000000000000000000000000000000000000067871aa8000000000000000000000000000000000000000000000000000390281709d7b80000000000000000000000000000000000000000000000000dc7e3f99fe3059f",
          "blockHash": "0xe1cc188e4a07420701614f0b8a87f40e836ea66fd99c9a7d1fff2ee9b6c81b68",
          "blockNumber": "0x7258b5",
          "transactionHash": "0x62edbc48ad06f761c1e762976f852c95ce545646513ecd3c6b7f8012e0067cdc",
          "transactionIndex": "0x61",
          "logIndex": "0x98",
          "removed": false
        }
      ],
      "logsBloom": "0x00000000000000000000000000000000000000000000000000000000000000000000000000000000000000000000000000000000000000004000000000000000000000000000000000000008000000000000001000000000000000000000000000000000020000000000000000000800020000000000000000000010000000000000000000000000000000000000000000000000000008000000010000000000000000000000000000000000000000004000000000000000000000000000000000000002000000800000000000001000000000000000080000000000000020000000000000000000000000000000000000000000000000000000000000000000",
      "type": "0x2",
      "transactionHash": "0x62edbc48ad06f761c1e762976f852c95ce545646513ecd3c6b7f8012e0067cdc",
      "transactionIndex": "0x61",
      "blockHash": "0xe1cc188e4a07420701614f0b8a87f40e836ea66fd99c9a7d1fff2ee9b6c81b68",
      "blockNumber": "0x7258b5",
      "gasUsed": "0xfb91",
      "effectiveGasPrice": "0x55fbe026",
      "from": "0xc77f7fed3b5cc8249adc428c5f44c9063b9734b4",
      "to": "0xbf4a322f1496e5c3d34a9bcdb4c60567b38c7de2",
      "contractAddress": null
    }
  ],
  "libraries": [],
  "pending": [],
  "returns": {},
  "timestamp": 1736907433,
  "chain": 11155111,
  "commit": "51a374b"
}