{
  "transactions": [
    {
      "hash": "0x109ba7cbd0b68bb4b85584e3c40d2cb760a9604938ab1252769711cfc4606064",
      "transactionType": "CALL",
      "contractName": null,
      "contractAddress": "0x270e88f8683660553e8ba4eb2ad7c91a1710d769",
      "function": "buy(address)",
      "arguments": [
        "0xC77f7fed3b5Cc8249aDc428c5F44C9063B9734b4"
      ],
      "transaction": {
        "from": "0xc77f7fed3b5cc8249adc428c5f44c9063b9734b4",
        "to": "0x270e88f8683660553e8ba4eb2ad7c91a1710d769",
        "gas": "0x1b30c",
        "value": "0xde0b6b3a7640000",
        "input": "0xf088d547000000000000000000000000c77f7fed3b5cc8249adc428c5f44c9063b9734b4",
        "nonce": "0x5c2",
        "chainId": "0xaa36a7"
      },
      "additionalContracts": [],
      "isFixedGasLimit": false
    }
  ],
  "receipts": [
    {
      "status": "0x1",
      "cumulativeGasUsed": "0xc8aa09",
      "logs": [
        {
          "address": "0x270e88f8683660553e8ba4eb2ad7c91a1710d769",
          "topics": [
            "0xddf252ad1be2c89b69c2b068fc378daa952ba7f163c4a11628f55a4df523b3ef",
            "0x0000000000000000000000000000000000000000000000000000000000000000",
            "0x000000000000000000000000c77f7fed3b5cc8249adc428c5f44c9063b9734b4"
          ],
          "data": "0x000000000000000000000000000000000000000000000033b07d135a19fc4345",
          "blockHash": "0xc25ba9cf34bebd37efdf4d802af3a994ed711648721dba9a89876831e130c1ca",
          "blockNumber": "0x725281",
          "transactionHash": "0x109ba7cbd0b68bb4b85584e3c40d2cb760a9604938ab1252769711cfc4606064",
          "transactionIndex": "0x66",
          "logIndex": "0xba",
          "removed": false
        },
        {
          "address": "0x270e88f8683660553e8ba4eb2ad7c91a1710d769",
          "topics": [
            "0xddf252ad1be2c89b69c2b068fc378daa952ba7f163c4a11628f55a4df523b3ef",
            "0x0000000000000000000000000000000000000000000000000000000000000000",
            "0x000000000000000000000000c77f7fed3b5cc8249adc428c5f44c9063b9734b4"
          ],
          "data": "0x00000000000000000000000000000000000000000000000028237a8e94b91555",
          "blockHash": "0xc25ba9cf34bebd37efdf4d802af3a994ed711648721dba9a89876831e130c1ca",
          "blockNumber": "0x725281",
          "transactionHash": "0x109ba7cbd0b68bb4b85584e3c40d2cb760a9604938ab1252769711cfc4606064",
          "transactionIndex": "0x66",
          "logIndex": "0xbb",
          "removed": false
        },
        {
          "address": "0x270e88f8683660553e8ba4eb2ad7c91a1710d769",
          "topics": [
            "0x4afcb4a87cdbd9974efdb92ee48bc8d7cd0ae4bf217004db3d080cbaee652ca7"
          ],
          "data": "0x000000000000000000000000000000000000000000000000000000006786cffc0000000000000000000000000000000000000000000000000003b069cdf008890000000000000000000000000000000000000000000000000de0b6b3a7640000",
          "blockHash": "0xc25ba9cf34bebd37efdf4d802af3a994ed711648721dba9a89876831e130c1ca",
          "blockNumber": "0x725281",
          "transactionHash": "0x109ba7cbd0b68bb4b85584e3c40d2cb760a9604938ab1252769711cfc4606064",
          "transactionIndex": "0x66",
          "logIndex": "0xbc",
          "removed": false
        }
      ],
      "logsBloom": "0x00000000000000000000000000000000000000000000000000000000000000000000000000000000000000000000000020000000000000004000000000000000000000000000000000000008000000000000000000000000000000000000000000000000020000000000000000000800020000000000000000000010000000000000000000010000000000000000000000000000000000000000010000000000000000000000000000000000000000004000000000000000000000000000000000000002000000800000000000000000000000000000080000008000000020000000000000000000000000000000000000000000000000000000000000000000",
      "type": "0x2",
      "transactionHash": "0x109ba7cbd0b68bb4b85584e3c40d2cb760a9604938ab1252769711cfc4606064",
      "transactionIndex": "0x66",
      "blockHash": "0xc25ba9cf34bebd37efdf4d802af3a994ed711648721dba9a89876831e130c1ca",
      "blockNumber": "0x725281",
      "gasUsed": "0x13af8",
      "effectiveGasPrice": "0x435f860bc",
      "from": "0xc77f7fed3b5cc8249adc428c5f44c9063b9734b4",
      "to": "0x270e88f8683660553e8ba4eb2ad7c91a1710d769",
      "contractAddress": null
    }
  ],
  "libraries": [],
  "pending": [],
  "returns": {},
  "timestamp": 1736888316,
  "chain": 11155111,
  "commit": "51a374b"
}