{
  "transactions": [
    {
      "hash": "0x61abd688ed92c89b734dd717d54461a28afa5e0368686a32646c7786d1c48c2f",
      "transactionType": "CALL",
      "contractName": null,
      "contractAddress": "0x8aafd3ede9adb0ff97c7aebce82a919afb1c8764",
      "function": "sell(uint256)",
      "arguments": [
        "11104571207444059"
      ],
      "transaction": {
        "from": "0xc77f7fed3b5cc8249adc428c5f44c9063b9734b4",
        "to": "0x8aafd3ede9adb0ff97c7aebce82a919afb1c8764",
        "gas": "0x1724d",
        "value": "0x0",
        "input": "0xe4849b320000000000000000000000000000000000000000000000000027738c7633e65b",
        "nonce": "0x1621",
        "chainId": "0xaa36a7"
      },
      "additionalContracts": [],
      "isFixedGasLimit": false
    }
  ],
  "receipts": [
    {
      "status": "0x1",
      "cumulativeGasUsed": "0x14af370",
      "logs": [
        {
          "address": "0x8aafd3ede9adb0ff97c7aebce82a919afb1c8764",
          "topics": [
            "0xddf252ad1be2c89b69c2b068fc378daa952ba7f163c4a11628f55a4df523b3ef",
            "0x000000000000000000000000c77f7fed3b5cc8249adc428c5f44c9063b9734b4",
            "0x0000000000000000000000000000000000000000000000000000000000000000"
          ],
          "data": "0x000000000000000000000000000000000000000000000000002722c096066dbb",
          "blockHash": "0xd9b3801824d4bd42df46e2d42a6d5382d9cd6592e220549cff4cd610c1091664",
          "blockNumber": "0x731db7",
          "transactionHash": "0x61abd688ed92c89b734dd717d54461a28afa5e0368686a32646c7786d1c48c2f",
          "transactionIndex": "0xa2",
          "logIndex": "0x117",
          "removed": false
        },
        {
          "address": "0x8aafd3ede9adb0ff97c7aebce82a919afb1c8764",
          "topics": [
            "0xddf252ad1be2c89b69c2b068fc378daa952ba7f163c4a11628f55a4df523b3ef",
            "0x000000000000000000000000c77f7fed3b5cc8249adc428c5f44c9063b9734b4",
            "0x000000000000000000000000c77f7fed3b5cc8249adc428c5f44c9063b9734b4"
          ],
          "data": "0x000000000000000000000000000000000000000000000000000050cbe02d78a0",
          "blockHash": "0xd9b3801824d4bd42df46e2d42a6d5382d9cd6592e220549cff4cd610c1091664",
          "blockNumber": "0x731db7",
          "transactionHash": "0x61abd688ed92c89b734dd717d54461a28afa5e0368686a32646c7786d1c48c2f",
          "transactionIndex": "0xa2",
          "logIndex": "0x118",
          "removed": false
        },
        {
          "address": "0x8aafd3ede9adb0ff97c7aebce82a919afb1c8764",
          "topics": [
            "0x4afcb4a87cdbd9974efdb92ee48bc8d7cd0ae4bf217004db3d080cbaee652ca7"
          ],
          "data": "0x000000000000000000000000000000000000000000000000000000006790617c00000000000000000000000000000000000000000000000000146fe198f0dcf300000000000000000000000000000000000000000000000000003a190857f6d6",
          "blockHash": "0xd9b3801824d4bd42df46e2d42a6d5382d9cd6592e220549cff4cd610c1091664",
          "blockNumber": "0x731db7",
          "transactionHash": "0x61abd688ed92c89b734dd717d54461a28afa5e0368686a32646c7786d1c48c2f",
          "transactionIndex": "0xa2",
          "logIndex": "0x119",
          "removed": false
        }
      ],
      "logsBloom": "0x00000000000000000000000000000000000000000600000000000000000000000000000000000000000000000000000000000000000000004000000000000000000000000000004000000008000000000000000000000000000000000000000000000000020000000000000000000800020000000000000000000010000000000000000000000000000000000000000000000000000000000000010000000000000000000000000000000000000000004000000000000000000000000000000000000002000000800000000000000000000000000000080000000000000020000000000000000000000000000000000000000000000000000000000000000000",
      "type": "0x2",
      "transactionHash": "0x61abd688ed92c89b734dd717d54461a28afa5e0368686a32646c7786d1c48c2f",
      "transactionIndex": "0xa2",
      "blockHash": "0xd9b3801824d4bd42df46e2d42a6d5382d9cd6592e220549cff4cd610c1091664",
      "blockNumber": "0x731db7",
      "gasUsed": "0xfd33",
      "effectiveGasPrice": "0x5b25b230",
      "from": "0xc77f7fed3b5cc8249adc428c5f44c9063b9734b4",
      "to": "0x8aafd3ede9adb0ff97c7aebce82a919afb1c8764",
      "contractAddress": null
    }
  ],
  "libraries": [],
  "pending": [],
  "returns": {},
  "timestamp": 1737515389,
  "chain": 11155111,
  "commit": "1d2fb70"
}