{
  "transactions": [
    {
      "hash": "0x1fa7f749753584fa4eb562c4a1c5807d25c27c26c576714a5a988ec568108664",
      "transactionType": "CALL",
      "contractName": null,
      "contractAddress": "0x8aafd3ede9adb0ff97c7aebce82a919afb1c8764",
      "function": "buy(address)",
      "arguments": [
        "0xC77f7fed3b5Cc8249aDc428c5F44C9063B9734b4"
      ],
      "transaction": {
        "from": "0xc77f7fed3b5cc8249adc428c5f44c9063b9734b4",
        "to": "0x8aafd3ede9adb0ff97c7aebce82a919afb1c8764",
        "gas": "0x156ea",
        "value": "0xde0b6b3a7640000",
        "input": "0xf088d547000000000000000000000000c77f7fed3b5cc8249adc428c5f44c9063b9734b4",
        "nonce": "0x11b2",
        "chainId": "0xaa36a7"
      },
      "additionalContracts": [],
      "isFixedGasLimit": false
    }
  ],
  "receipts": [
    {
      "status": "0x1",
      "cumulativeGasUsed": "0xd73818",
      "logs": [
        {
          "address": "0x8aafd3ede9adb0ff97c7aebce82a919afb1c8764",
          "topics": [
            "0xddf252ad1be2c89b69c2b068fc378daa952ba7f163c4a11628f55a4df523b3ef",
            "0x0000000000000000000000000000000000000000000000000000000000000000",
            "0x000000000000000000000000c77f7fed3b5cc8249adc428c5f44c9063b9734b4"
          ],
          "data": "0x00000000000000000000000000000000000000000000002510f00af9bdbd1fa2",
          "blockHash": "0xd53ce0562c7d793e03427e90e097bd2d16e2b27864e0c4b5028afd68b1a0c265",
          "blockNumber": "0x73187f",
          "transactionHash": "0x1fa7f749753584fa4eb562c4a1c5807d25c27c26c576714a5a988ec568108664",
          "transactionIndex": "0x8b",
          "logIndex": "0xaa",
          "removed": false
        },
        {
          "address": "0x8aafd3ede9adb0ff97c7aebce82a919afb1c8764",
          "topics": [
            "0xddf252ad1be2c89b69c2b068fc378daa952ba7f163c4a11628f55a4df523b3ef",
            "0x0000000000000000000000000000000000000000000000000000000000000000",
            "0x000000000000000000000000c77f7fed3b5cc8249adc428c5f44c9063b9734b4"
          ],
          "data": "0x0000000000000000000000000000000000000000000000001cc87bd8093ddd92",
          "blockHash": "0xd53ce0562c7d793e03427e90e097bd2d16e2b27864e0c4b5028afd68b1a0c265",
          "blockNumber": "0x73187f",
          "transactionHash": "0x1fa7f749753584fa4eb562c4a1c5807d25c27c26c576714a5a988ec568108664",
          "transactionIndex": "0x8b",
          "logIndex": "0xab",
          "removed": false
        },
        {
          "address": "0x8aafd3ede9adb0ff97c7aebce82a919afb1c8764",
          "topics": [
            "0x4afcb4a87cdbd9974efdb92ee48bc8d7cd0ae4bf217004db3d080cbaee652ca7"
          ],
          "data": "0x00000000000000000000000000000000000000000000000000000000679022c400000000000000000000000000000000000000000000000000052543dda7df6c0000000000000000000000000000000000000000000000000de0b6b3a7640000",
          "blockHash": "0xd53ce0562c7d793e03427e90e097bd2d16e2b27864e0c4b5028afd68b1a0c265",
          "blockNumber": "0x73187f",
          "transactionHash": "0x1fa7f749753584fa4eb562c4a1c5807d25c27c26c576714a5a988ec568108664",
          "transactionIndex": "0x8b",
          "logIndex": "0xac",
          "removed": false
        }
      ],
      "logsBloom": "0x00000000000000000000000000000000000000000600000000000000000000000000000000000000000000000000000000000000000000004000000000000000000000000000004000000008000000000000000000000000000000000000000000000000020000000000000000000800020000000000000000000010000000000000000000000000000000000000000000000000000000000000010000000000000000000000000000000000000000004000000000000000000000000000000000000002000000800000000000000000000000000000080000000000000020000000000000000000000000000000000000000000000000000000000000000000",
      "type": "0x2",
      "transactionHash": "0x1fa7f749753584fa4eb562c4a1c5807d25c27c26c576714a5a988ec568108664",
      "transactionIndex": "0x8b",
      "blockHash": "0xd53ce0562c7d793e03427e90e097bd2d16e2b27864e0c4b5028afd68b1a0c265",
      "blockNumber": "0x73187f",
      "gasUsed": "0xf844",
      "effectiveGasPrice": "0x4c0e7e90",
      "from": "0xc77f7fed3b5cc8249adc428c5f44c9063b9734b4",
      "to": "0x8aafd3ede9adb0ff97c7aebce82a919afb1c8764",
      "contractAddress": null
    }
  ],
  "libraries": [],
  "pending": [],
  "returns": {},
  "timestamp": 1737499333,
  "chain": 11155111,
  "commit": "1d2fb70"
}