{
  "transactions": [
    {
      "hash": "0xdec7206c83606840b4eb59671ec2189d1cce1d15aacdad2d7e19db6c5e4468e3",
      "transactionType": "CALL",
      "contractName": null,
      "contractAddress": "0x5eb9cc76c3506942c1c0ead70e877dd5e4f00cb0",
      "function": "buy(address)",
      "arguments": [
        "0xC77f7fed3b5Cc8249aDc428c5F44C9063B9734b4"
      ],
      "transaction": {
        "from": "0xc77f7fed3b5cc8249adc428c5f44c9063b9734b4",
        "to": "0x5eb9cc76c3506942c1c0ead70e877dd5e4f00cb0",
        "gas": "0x1b30c",
        "value": "0xde0b6b3a7640000",
        "input": "0xf088d547000000000000000000000000c77f7fed3b5cc8249adc428c5f44c9063b9734b4",
        "nonce": "0x224",
        "chainId": "0xaa36a7"
      },
      "additionalContracts": [],
      "isFixedGasLimit": false
    }
  ],
  "receipts": [
    {
      "status": "0x1",
      "cumulativeGasUsed": "0x728f5a",
      "logs": [
        {
          "address": "0x5eb9cc76c3506942c1c0ead70e877dd5e4f00cb0",
          "topics": [
            "0xddf252ad1be2c89b69c2b068fc378daa952ba7f163c4a11628f55a4df523b3ef",
            "0x0000000000000000000000000000000000000000000000000000000000000000",
            "0x000000000000000000000000c77f7fed3b5cc8249adc428c5f44c9063b9734b4"
          ],
          "data": "0x0000000000000000000000000000000000000000000000357c3959cf6d461190",
          "blockHash": "0x0e472140769c9231c62286eb096caf324bf3ec7adc2e8d4809ee900e6de1a212",
          "blockNumber": "0x724dd2",
          "transactionHash": "0xdec7206c83606840b4eb59671ec2189d1cce1d15aacdad2d7e19db6c5e4468e3",
          "transactionIndex": "0x45",
          "logIndex": "0x62",
          "removed": false
        },
        {
          "address": "0x5eb9cc76c3506942c1c0ead70e877dd5e4f00cb0",
          "topics": [
            "0xddf252ad1be2c89b69c2b068fc378daa952ba7f163c4a11628f55a4df523b3ef",
            "0x0000000000000000000000000000000000000000000000000000000000000000",
            "0x000000000000000000000000c77f7fed3b5cc8249adc428c5f44c9063b9734b4"
          ],
          "data": "0x00000000000000000000000000000000000000000000000029887a9f860af9ad",
          "blockHash": "0x0e472140769c9231c62286eb096caf324bf3ec7adc2e8d4809ee900e6de1a212",
          "blockNumber": "0x724dd2",
          "transactionHash": "0xdec7206c83606840b4eb59671ec2189d1cce1d15aacdad2d7e19db6c5e4468e3",
          "transactionIndex": "0x45",
          "logIndex": "0x63",
          "removed": false
        },
        {
          "address": "0x5eb9cc76c3506942c1c0ead70e877dd5e4f00cb0",
          "topics": [
            "0x4afcb4a87cdbd9974efdb92ee48bc8d7cd0ae4bf217004db3d080cbaee652ca7"
          ],
          "data": "0x000000000000000000000000000000000000000000000000000000006786978c0000000000000000000000000000000000000000000000000003909a3e80a8d20000000000000000000000000000000000000000000000000de0b6b3a7640000",
          "blockHash": "0x0e472140769c9231c62286eb096caf324bf3ec7adc2e8d4809ee900e6de1a212",
          "blockNumber": "0x724dd2",
          "transactionHash": "0xdec7206c83606840b4eb59671ec2189d1cce1d15aacdad2d7e19db6c5e4468e3",
          "transactionIndex": "0x45",
          "logIndex": "0x64",
          "removed": false
        }
      ],
      "logsBloom": "0x00000000000000000000000000000000000000000000000000000000000000000000000000000000000000000000000000000000000000004000000000000000000000000000000000000008000000000000000000000000000000000000000000000000020000000000000004000800020000000000000000000010000000000000000000000000000000000000000000000000000000000000010000000000000000000000000000000000000000004000000000000000000000000000020000000002000000800000008000000000000000000000080000000000000020000000000000000000000000000000000000000000000000000000000000000000",
      "type": "0x2",
      "transactionHash": "0xdec7206c83606840b4eb59671ec2189d1cce1d15aacdad2d7e19db6c5e4468e3",
      "transactionIndex": "0x45",
      "blockHash": "0x0e472140769c9231c62286eb096caf324bf3ec7adc2e8d4809ee900e6de1a212",
      "blockNumber": "0x724dd2",
      "gasUsed": "0x13af8",
      "effectiveGasPrice": "0x4228670d8",
      "from": "0xc77f7fed3b5cc8249adc428c5f44c9063b9734b4",
      "to": "0x5eb9cc76c3506942c1c0ead70e877dd5e4f00cb0",
      "contractAddress": null
    }
  ],
  "libraries": [],
  "pending": [],
  "returns": {},
  "timestamp": 1736873869,
  "chain": 11155111,
  "commit": "51a374b"
}