{
  "transactions": [
    {
      "hash": "0x96cffb938b34775f05dc5fbbf02029734cdaa6ceb7ce9873ffde0b94b2c8afd9",
      "transactionType": "CALL",
      "contractName": null,
      "contractAddress": "0x5eb9cc76c3506942c1c0ead70e877dd5e4f00cb0",
      "function": "buy(address)",
      "arguments": [
        "0xC77f7fed3b5Cc8249aDc428c5F44C9063B9734b4"
      ],
      "transaction": {
        "from": "0xc77f7fed3b5cc8249adc428c5f44c9063b9734b4",
        "to": "0x5eb9cc76c3506942c1c0ead70e877dd5e4f00cb0",
        "gas": "0x1b30c",
        "value": "0xde0b6b3a7640000",
        "input": "0xf088d547000000000000000000000000c77f7fed3b5cc8249adc428c5f44c9063b9734b4",
        "nonce": "0x2ea",
        "chainId": "0xaa36a7"
      },
      "additionalContracts": [],
      "isFixedGasLimit": false
    }
  ],
  "receipts": [
    {
      "status": "0x1",
      "cumulativeGasUsed": "0xd973e1",
      "logs": [
        {
          "address": "0x5eb9cc76c3506942c1c0ead70e877dd5e4f00cb0",
          "topics": [
            "0xddf252ad1be2c89b69c2b068fc378daa952ba7f163c4a11628f55a4df523b3ef",
            "0x0000000000000000000000000000000000000000000000000000000000000000",
            "0x000000000000000000000000c77f7fed3b5cc8249adc428c5f44c9063b9734b4"
          ],
          "data": "0x000000000000000000000000000000000000000000000035759f2332916409ca",
          "blockHash": "0x7b8ceb67f5932626bf2e9a03f9288cb6e4da2c9d3871f98114dc0cc5a5346f97",
          "blockNumber": "0x724ec8",
          "transactionHash": "0x96cffb938b34775f05dc5fbbf02029734cdaa6ceb7ce9873ffde0b94b2c8afd9",
          "transactionIndex": "0x69",
          "logIndex": "0x87",
          "removed": false
        },
        {
          "address": "0x5eb9cc76c3506942c1c0ead70e877dd5e4f00cb0",
          "topics": [
            "0xddf252ad1be2c89b69c2b068fc378daa952ba7f163c4a11628f55a4df523b3ef",
            "0x0000000000000000000000000000000000000000000000000000000000000000",
            "0x000000000000000000000000c77f7fed3b5cc8249adc428c5f44c9063b9734b4"
          ],
          "data": "0x00000000000000000000000000000000000000000000000029835a1d65cd50f3",
          "blockHash": "0x7b8ceb67f5932626bf2e9a03f9288cb6e4da2c9d3871f98114dc0cc5a5346f97",
          "blockNumber": "0x724ec8",
          "transactionHash": "0x96cffb938b34775f05dc5fbbf02029734cdaa6ceb7ce9873ffde0b94b2c8afd9",
          "transactionIndex": "0x69",
          "logIndex": "0x88",
          "removed": false
        },
        {
          "address": "0x5eb9cc76c3506942c1c0ead70e877dd5e4f00cb0",
          "topics": [
            "0x4afcb4a87cdbd9974efdb92ee48bc8d7cd0ae4bf217004db3d080cbaee652ca7"
          ],
          "data": "0x000000000000000000000000000000000000000000000000000000006786a3140000000000000000000000000000000000000000000000000003910af472285e0000000000000000000000000000000000000000000000000de0b6b3a7640000",
          "blockHash": "0x7b8ceb67f5932626bf2e9a03f9288cb6e4da2c9d3871f98114dc0cc5a5346f97",
          "blockNumber": "0x724ec8",
          "transactionHash": "0x96cffb938b34775f05dc5fbbf02029734cdaa6ceb7ce9873ffde0b94b2c8afd9",
          "transactionIndex": "0x69",
          "logIndex": "0x89",
          "removed": false
        }
      ],
      "logsBloom": "0x00000000000000000000000000000000000000000000000000000000000000000000000000000000000000000000000000000000000000004000000000000000000000000000000000000008000000000000000000000000000000000000000000000000020000000000000004000800020000000000000000000010000000000000000000000000000000000000000000000000000000000000010000000000000000000000000000000000000000004000000000000000000000000000020000000002000000800000008000000000000000000000080000000000000020000000000000000000000000000000000000000000000000000000000000000000",
      "type": "0x2",
      "transactionHash": "0x96cffb938b34775f05dc5fbbf02029734cdaa6ceb7ce9873ffde0b94b2c8afd9",
      "transactionIndex": "0x69",
      "blockHash": "0x7b8ceb67f5932626bf2e9a03f9288cb6e4da2c9d3871f98114dc0cc5a5346f97",
      "blockNumber": "0x724ec8",
      "gasUsed": "0x13af8",
      "effectiveGasPrice": "0x4b3fd3a73",
      "from": "0xc77f7fed3b5cc8249adc428c5f44c9063b9734b4",
      "to": "0x5eb9cc76c3506942c1c0ead70e877dd5e4f00cb0",
      "contractAddress": null
    }
  ],
  "libraries": [],
  "pending": [],
  "returns": {},
  "timestamp": 1736876822,
  "chain": 11155111,
  "commit": "51a374b"
}