{
  "transactions": [
    {
      "hash": "0xe43cda7d3060b6581491ffbc262cc60c3e5bd4958a61c4c59f7cc2e435ed8119",
      "transactionType": "CALL",
      "contractName": null,
      "contractAddress": "0x8aafd3ede9adb0ff97c7aebce82a919afb1c8764",
      "function": "buy(address)",
      "arguments": [
        "0xC77f7fed3b5Cc8249aDc428c5F44C9063B9734b4"
      ],
      "transaction": {
        "from": "0xc77f7fed3b5cc8249adc428c5f44c9063b9734b4",
        "to": "0x8aafd3ede9adb0ff97c7aebce82a919afb1c8764",
        "gas": "0x156ea",
        "value": "0xde0b6b3a7640000",
        "input": "0xf088d547000000000000000000000000c77f7fed3b5cc8249adc428c5f44c9063b9734b4",
        "nonce": "0x1266",
        "chainId": "0xaa36a7"
      },
      "additionalContracts": [],
      "isFixedGasLimit": false
    }
  ],
  "receipts": [
    {
      "status": "0x1",
      "cumulativeGasUsed": "0xcbf632",
      "logs": [
        {
          "address": "0x8aafd3ede9adb0ff97c7aebce82a919afb1c8764",
          "topics": [
            "0xddf252ad1be2c89b69c2b068fc378daa952ba7f163c4a11628f55a4df523b3ef",
            "0x0000000000000000000000000000000000000000000000000000000000000000",
            "0x000000000000000000000000c77f7fed3b5cc8249adc428c5f44c9063b9734b4"
          ],
          "data": "0x0000000000000000000000000000000000000000000000245823e21866e34681",
          "blockHash": "0x173b8b4ddbbe0be43e6db33e31b51cc94c00491405b735a9b38438aa0768e90c",
          "blockNumber": "0x73194c",
          "transactionHash": "0xe43cda7d3060b6581491ffbc262cc60c3e5bd4958a61c4c59f7cc2e435ed8119",
          "transactionIndex": "0x6e",
          "logIndex": "0xbd",
          "removed": false
        },
        {
          "address": "0x8aafd3ede9adb0ff97c7aebce82a919afb1c8764",
          "topics": [
            "0xddf252ad1be2c89b69c2b068fc378daa952ba7f163c4a11628f55a4df523b3ef",
            "0x0000000000000000000000000000000000000000000000000000000000000000",
            "0x000000000000000000000000c77f7fed3b5cc8249adc428c5f44c9063b9734b4"
          ],
          "data": "0x0000000000000000000000000000000000000000000000001c38fb71b843e7fc",
          "blockHash": "0x173b8b4ddbbe0be43e6db33e31b51cc94c00491405b735a9b38438aa0768e90c",
          "blockNumber": "0x73194c",
          "transactionHash": "0xe43cda7d3060b6581491ffbc262cc60c3e5bd4958a61c4c59f7cc2e435ed8119",
          "transactionIndex": "0x6e",
          "logIndex": "0xbe",
          "removed": false
        },
        {
          "address": "0x8aafd3ede9adb0ff97c7aebce82a919afb1c8764",
          "topics": [
            "0x4afcb4a87cdbd9974efdb92ee48bc8d7cd0ae4bf217004db3d080cbaee652ca7"
          ],
          "data": "0x0000000000000000000000000000000000000000000000000000000067902c6000000000000000000000000000000000000000000000000000053f6baf3ffa390000000000000000000000000000000000000000000000000de0b6b3a7640000",
          "blockHash": "0x173b8b4ddbbe0be43e6db33e31b51cc94c00491405b735a9b38438aa0768e90c",
          "blockNumber": "0x73194c",
          "transactionHash": "0xe43cda7d3060b6581491ffbc262cc60c3e5bd4958a61c4c59f7cc2e435ed8119",
          "transactionIndex": "0x6e",
          "logIndex": "0xbf",
          "removed": false
        }
      ],
      "logsBloom": "0x00000000000000000000000000000000000000000600000000000000000000000000000000000000000000000000000000000000000000004000000000000000000000000000004000000008000000000000000000000000000000000000000000000000020000000000000000000800020000000000000000000010000000000000000000000000000000000000000000000000000000000000010000000000000000000000000000000000000000004000000000000000000000000000000000000002000000800000000000000000000000000000080000000000000020000000000000000000000000000000000000000000000000000000000000000000",
      "type": "0x2",
      "transactionHash": "0xe43cda7d3060b6581491ffbc262cc60c3e5bd4958a61c4c59f7cc2e435ed8119",
      "transactionIndex": "0x6e",
      "blockHash": "0x173b8b4ddbbe0be43e6db33e31b51cc94c00491405b735a9b38438aa0768e90c",
      "blockNumber": "0x73194c",
      "gasUsed": "0xf844",
      "effectiveGasPrice": "0x3b8ed693",
      "from": "0xc77f7fed3b5cc8249adc428c5f44c9063b9734b4",
      "to": "0x8aafd3ede9adb0ff97c7aebce82a919afb1c8764",
      "contractAddress": null
    }
  ],
  "libraries": [],
  "pending": [],
  "returns": {},
  "timestamp": 1737501793,
  "chain": 11155111,
  "commit": "1d2fb70"
}