{
  "transactions": [
    {
      "hash": "0x33d55bae9dc0d437d1f41bb9672c24f2926c29324e4e3b5970f4ed68f9de8a40",
      "transactionType": "CALL",
      "contractName": null,
      "contractAddress": "0x8aafd3ede9adb0ff97c7aebce82a919afb1c8764",
      "function": "sell(uint256)",
      "arguments": [
        "43319163904869423"
      ],
      "transaction": {
        "from": "0xc77f7fed3b5cc8249adc428c5f44c9063b9734b4",
        "to": "0x8aafd3ede9adb0ff97c7aebce82a919afb1c8764",
        "gas": "0x1724d",
        "value": "0x0",
        "input": "0xe4849b320000000000000000000000000000000000000000000000000099e68cd084442f",
        "nonce": "0x122d",
        "chainId": "0xaa36a7"
      },
      "additionalContracts": [],
      "isFixedGasLimit": false
    }
  ],
  "receipts": [
    {
      "status": "0x1",
      "cumulativeGasUsed": "0xce2e2f",
      "logs": [
        {
          "address": "0x8aafd3ede9adb0ff97c7aebce82a919afb1c8764",
          "topics": [
            "0xddf252ad1be2c89b69c2b068fc378daa952ba7f163c4a11628f55a4df523b3ef",
            "0x000000000000000000000000c77f7fed3b5cc8249adc428c5f44c9063b9734b4",
            "0x0000000000000000000000000000000000000000000000000000000000000000"
          ],
          "data": "0x0000000000000000000000000000000000000000000000000098ab5c95812904",
          "blockHash": "0x29ad74039552c0654f6fbc029baa40bd1746c9bc2b78cd89f2981625ecd7d043",
          "blockNumber": "0x73190b",
          "transactionHash": "0x33d55bae9dc0d437d1f41bb9672c24f2926c29324e4e3b5970f4ed68f9de8a40",
          "transactionIndex": "0x67",
          "logIndex": "0x77",
          "removed": false
        },
        {
          "address": "0x8aafd3ede9adb0ff97c7aebce82a919afb1c8764",
          "topics": [
            "0xddf252ad1be2c89b69c2b068fc378daa952ba7f163c4a11628f55a4df523b3ef",
            "0x000000000000000000000000c77f7fed3b5cc8249adc428c5f44c9063b9734b4",
            "0x000000000000000000000000c77f7fed3b5cc8249adc428c5f44c9063b9734b4"
          ],
          "data": "0x00000000000000000000000000000000000000000000000000013b303b031b2b",
          "blockHash": "0x29ad74039552c0654f6fbc029baa40bd1746c9bc2b78cd89f2981625ecd7d043",
          "blockNumber": "0x73190b",
          "transactionHash": "0x33d55bae9dc0d437d1f41bb9672c24f2926c29324e4e3b5970f4ed68f9de8a40",
          "transactionIndex": "0x67",
          "logIndex": "0x78",
          "removed": false
        },
        {
          "address": "0x8aafd3ede9adb0ff97c7aebce82a919afb1c8764",
          "topics": [
            "0x4afcb4a87cdbd9974efdb92ee48bc8d7cd0ae4bf217004db3d080cbaee652ca7"
          ],
          "data": "0x0000000000000000000000000000000000000000000000000000000067902954000000000000000000000000000000000000000000000000000537be911a730c000000000000000000000000000000000000000000000000000039dd030cea9c",
          "blockHash": "0x29ad74039552c0654f6fbc029baa40bd1746c9bc2b78cd89f2981625ecd7d043",
          "blockNumber": "0x73190b",
          "transactionHash": "0x33d55bae9dc0d437d1f41bb9672c24f2926c29324e4e3b5970f4ed68f9de8a40",
          "transactionIndex": "0x67",
          "logIndex": "0x79",
          "removed": false
        }
      ],
      "logsBloom": "0x00000000000000000000000000000000000000000600000000000000000000000000000000000000000000000000000000000000000000004000000000000000000000000000004000000008000000000000000000000000000000000000000000000000020000000000000000000800020000000000000000000010000000000000000000000000000000000000000000000000000000000000010000000000000000000000000000000000000000004000000000000000000000000000000000000002000000800000000000000000000000000000080000000000000020000000000000000000000000000000000000000000000000000000000000000000",
      "type": "0x2",
      "transactionHash": "0x33d55bae9dc0d437d1f41bb9672c24f2926c29324e4e3b5970f4ed68f9de8a40",
      "transactionIndex": "0x67",
      "blockHash": "0x29ad74039552c0654f6fbc029baa40bd1746c9bc2b78cd89f2981625ecd7d043",
      "blockNumber": "0x73190b",
      "gasUsed": "0xfd33",
      "effectiveGasPrice": "0x5dff66b7",
      "from": "0xc77f7fed3b5cc8249adc428c5f44c9063b9734b4",
      "to": "0x8aafd3ede9adb0ff97c7aebce82a919afb1c8764",
      "contractAddress": null
    }
  ],
  "libraries": [],
  "pending": [],
  "returns": {},
  "timestamp": 1737501013,
  "chain": 11155111,
  "commit": "1d2fb70"
}