{
  "transactions": [
    {
      "hash": "0x622ed149a9b5c7c63e881c9aae5eb6fc735ee10533d5c9f1df3e9cab4a1feedb",
      "transactionType": "CALL",
      "contractName": null,
      "contractAddress": "0x8aafd3ede9adb0ff97c7aebce82a919afb1c8764",
      "function": "sell(uint256)",
      "arguments": [
        "893594703515"
      ],
      "transaction": {
        "from": "0xc77f7fed3b5cc8249adc428c5f44c9063b9734b4",
        "to": "0x8aafd3ede9adb0ff97c7aebce82a919afb1c8764",
        "gas": "0x1722a",
        "value": "0x0",
        "input": "0xe4849b32000000000000000000000000000000000000000000000000000000d00e65169b",
        "nonce": "0x14bb",
        "chainId": "0xaa36a7"
      },
      "additionalContracts": [],
      "isFixedGasLimit": false
    }
  ],
  "receipts": [
    {
      "status": "0x1",
      "cumulativeGasUsed": "0xb559ed",
      "logs": [
        {
          "address": "0x8aafd3ede9adb0ff97c7aebce82a919afb1c8764",
          "topics": [
            "0xddf252ad1be2c89b69c2b068fc378daa952ba7f163c4a11628f55a4df523b3ef",
            "0x000000000000000000000000c77f7fed3b5cc8249adc428c5f44c9063b9734b4",
            "0x0000000000000000000000000000000000000000000000000000000000000000"
          ],
          "data": "0x000000000000000000000000000000000000000000000000000000ce644bb41f",
          "blockHash": "0x1330b9c21cdf78d52cf949d516e462e8d5d213690309bf968e9edcf6220dc4f1",
          "blockNumber": "0x731c17",
          "transactionHash": "0x622ed149a9b5c7c63e881c9aae5eb6fc735ee10533d5c9f1df3e9cab4a1feedb",
          "transactionIndex": "0x68",
          "logIndex": "0x94",
          "removed": false
        },
        {
          "address": "0x8aafd3ede9adb0ff97c7aebce82a919afb1c8764",
          "topics": [
            "0xddf252ad1be2c89b69c2b068fc378daa952ba7f163c4a11628f55a4df523b3ef",
            "0x000000000000000000000000c77f7fed3b5cc8249adc428c5f44c9063b9734b4",
            "0x000000000000000000000000c77f7fed3b5cc8249adc428c5f44c9063b9734b4"
          ],
          "data": "0x00000000000000000000000000000000000000000000000000000001aa19627c",
          "blockHash": "0x1330b9c21cdf78d52cf949d516e462e8d5d213690309bf968e9edcf6220dc4f1",
          "blockNumber": "0x731c17",
          "transactionHash": "0x622ed149a9b5c7c63e881c9aae5eb6fc735ee10533d5c9f1df3e9cab4a1feedb",
          "transactionIndex": "0x68",
          "logIndex": "0x95",
          "removed": false
        },
        {
          "address": "0x8aafd3ede9adb0ff97c7aebce82a919afb1c8764",
          "topics": [
            "0x4afcb4a87cdbd9974efdb92ee48bc8d7cd0ae4bf217004db3d080cbaee652ca7"
          ],
          "data": "0x0000000000000000000000000000000000000000000000000000000067904df00000000000000000000000000000000000000000000000000010462ff0843d1d00000000000000000000000000000000000000000000000000000000f3fb9c2f",
          "blockHash": "0x1330b9c21cdf78d52cf949d516e462e8d5d213690309bf968e9edcf6220dc4f1",
          "blockNumber": "0x731c17",
          "transactionHash": "0x622ed149a9b5c7c63e881c9aae5eb6fc735ee10533d5c9f1df3e9cab4a1feedb",
          "transactionIndex": "0x68",
          "logIndex": "0x96",
          "removed": false
        }
      ],
      "logsBloom": "0x00000000000000000000000000000000000000000600000000000000000000000000000000000000000000000000000000000000000000004000000000000000000000000000004000000008000000000000000000000000000000000000000000000000020000000000000000000800020000000000000000000010000000000000000000000000000000000000000000000000000000000000010000000000000000000000000000000000000000004000000000000000000000000000000000000002000000800000000000000000000000000000080000000000000020000000000000000000000000000000000000000000000000000000000000000000",
      "type": "0x2",
      "transactionHash": "0x622ed149a9b5c7c63e881c9aae5eb6fc735ee10533d5c9f1df3e9cab4a1feedb",
      "transactionIndex": "0x68",
      "blockHash": "0x1330b9c21cdf78d52cf949d516e462e8d5d213690309bf968e9edcf6220dc4f1",
      "blockNumber": "0x731c17",
      "gasUsed": "0xfd1b",
      "effectiveGasPrice": "0xfc3be693",
      "from": "0xc77f7fed3b5cc8249adc428c5f44c9063b9734b4",
      "to": "0x8aafd3ede9adb0ff97c7aebce82a919afb1c8764",
      "contractAddress": null
    }
  ],
  "libraries": [],
  "pending": [],
  "returns": {},
  "timestamp": 1737510384,
  "chain": 11155111,
  "commit": "1d2fb70"
}