{
  "transactions": [
    {
      "hash": "0xc21642590b77d5c518dc3c1dac97616c64d65fc1de0b1db34e473142f2205918",
      "transactionType": "CALL",
      "contractName": null,
      "contractAddress": "0x5eb9cc76c3506942c1c0ead70e877dd5e4f00cb0",
      "function": "sell(uint256)",
      "arguments": [
        "989151632254822418712"
      ],
      "transaction": {
        "from": "0xc77f7fed3b5cc8249adc428c5f44c9063b9734b4",
        "to": "0x5eb9cc76c3506942c1c0ead70e877dd5e4f00cb0",
        "gas": "0x16fec",
        "value": "0x0",
        "input": "0xe4849b320000000000000000000000000000000000000000000000359f3c88c92a828918",
        "nonce": "0x2bd",
        "chainId": "0xaa36a7"
      },
      "additionalContracts": [],
      "isFixedGasLimit": false
    }
  ],
  "receipts": [
    {
      "status": "0x1",
      "cumulativeGasUsed": "0xa1bbb3",
      "logs": [
        {
          "address": "0x5eb9cc76c3506942c1c0ead70e877dd5e4f00cb0",
          "topics": [
            "0xddf252ad1be2c89b69c2b068fc378daa952ba7f163c4a11628f55a4df523b3ef",
            "0x000000000000000000000000c77f7fed3b5cc8249adc428c5f44c9063b9734b4",
            "0x0000000000000000000000000000000000000000000000000000000000000000"
          ],
          "data": "0x0000000000000000000000000000000000000000000000359f3c88c92a828918",
          "blockHash": "0x93be69dff96d2837949d019a7d29f60e52b59142feaa974a43342505414978df",
          "blockNumber": "0x724e98",
          "transactionHash": "0xc21642590b77d5c518dc3c1dac97616c64d65fc1de0b1db34e473142f2205918",
          "transactionIndex": "0x4d",
          "logIndex": "0x66",
          "removed": false
        },
        {
          "address": "0x5eb9cc76c3506942c1c0ead70e877dd5e4f00cb0",
          "topics": [
            "0x4afcb4a87cdbd9974efdb92ee48bc8d7cd0ae4bf217004db3d080cbaee652ca7"
          ],
          "data": "0x000000000000000000000000000000000000000000000000000000006786a0d400000000000000000000000000000000000000000000000000039109454d32cd0000000000000000000000000000000000000000000000000dc7db1332435237",
          "blockHash": "0x93be69dff96d2837949d019a7d29f60e52b59142feaa974a43342505414978df",
          "blockNumber": "0x724e98",
          "transactionHash": "0xc21642590b77d5c518dc3c1dac97616c64d65fc1de0b1db34e473142f2205918",
          "transactionIndex": "0x4d",
          "logIndex": "0x67",
          "removed": false
        }
      ],
      "logsBloom": "0x00000000000000000000000000000000000000000000000000000000000000000000000000000000000000000000000000000000000000004000000000000000000000000000000000000008000000000000000000000000000000000000000000000000020000000000000004000800020000000000000000000010000000000000000000000000000000000000000000000000000000000000010000000000000000000000000000000000000000004000000000000000000000000000020000000002000000800000008000000000000000000000080000000000000020000000000000000000000000000000000000000000000000000000000000000000",
      "type": "0x2",
      "transactionHash": "0xc21642590b77d5c518dc3c1dac97616c64d65fc1de0b1db34e473142f2205918",
      "transactionIndex": "0x4d",
      "blockHash": "0x93be69dff96d2837949d019a7d29f60e52b59142feaa974a43342505414978df",
      "blockNumber": "0x724e98",
      "gasUsed": "0xfb93",
      "effectiveGasPrice": "0x45a913937",
      "from": "0xc77f7fed3b5cc8249adc428c5f44c9063b9734b4",
      "to": "0x5eb9cc76c3506942c1c0ead70e877dd5e4f00cb0",
      "contractAddress": null
    }
  ],
  "libraries": [],
  "pending": [],
  "returns": {},
  "timestamp": 1736876246,
  "chain": 11155111,
  "commit": "51a374b"
}