{
  "transactions": [
    {
      "hash": "0x71ae03ccc463f017746cb76cfaf63905555445b6bbbbfcc43e3c7af2a9f5d399",
      "transactionType": "CALL",
      "contractName": null,
      "contractAddress": "0x5eb9cc76c3506942c1c0ead70e877dd5e4f00cb0",
      "function": "buy(address)",
      "arguments": [
        "0xC77f7fed3b5Cc8249aDc428c5F44C9063B9734b4"
      ],
      "transaction": {
        "from": "0xc77f7fed3b5cc8249adc428c5f44c9063b9734b4",
        "to": "0x5eb9cc76c3506942c1c0ead70e877dd5e4f00cb0",
        "gas": "0x1b30c",
        "value": "0xde0b6b3a7640000",
        "input": "0xf088d547000000000000000000000000c77f7fed3b5cc8249adc428c5f44c9063b9734b4",
        "nonce": "0x396",
        "chainId": "0xaa36a7"
      },
      "additionalContracts": [],
      "isFixedGasLimit": false
    }
  ],
  "receipts": [
    {
      "status": "0x1",
      "cumulativeGasUsed": "0xac2c39",
      "logs": [
        {
          "address": "0x5eb9cc76c3506942c1c0ead70e877dd5e4f00cb0",
          "topics": [
            "0xddf252ad1be2c89b69c2b068fc378daa952ba7f163c4a11628f55a4df523b3ef",
            "0x0000000000000000000000000000000000000000000000000000000000000000",
            "0x000000000000000000000000c77f7fed3b5cc8249adc428c5f44c9063b9734b4"
          ],
          "data": "0x000000000000000000000000000000000000000000000035753e0ce965286f22",
          "blockHash": "0xd8c2f37fd23fb20d53ceb32d35683dc9e5a2eb2be0f67cb6ef44a6c4c0ccaa9a",
          "blockNumber": "0x724f92",
          "transactionHash": "0x71ae03ccc463f017746cb76cfaf63905555445b6bbbbfcc43e3c7af2a9f5d399",
          "transactionIndex": "0x5f",
          "logIndex": "0x7c",
          "removed": false
        },
        {
          "address": "0x5eb9cc76c3506942c1c0ead70e877dd5e4f00cb0",
          "topics": [
            "0xddf252ad1be2c89b69c2b068fc378daa952ba7f163c4a11628f55a4df523b3ef",
            "0x0000000000000000000000000000000000000000000000000000000000000000",
            "0x000000000000000000000000c77f7fed3b5cc8249adc428c5f44c9063b9734b4"
          ],
          "data": "0x00000000000000000000000000000000000000000000000029830eb9326aa5c9",
          "blockHash": "0xd8c2f37fd23fb20d53ceb32d35683dc9e5a2eb2be0f67cb6ef44a6c4c0ccaa9a",
          "blockNumber": "0x724f92",
          "transactionHash": "0x71ae03ccc463f017746cb76cfaf63905555445b6bbbbfcc43e3c7af2a9f5d399",
          "transactionIndex": "0x5f",
          "logIndex": "0x7d",
          "removed": false
        },
        {
          "address": "0x5eb9cc76c3506942c1c0ead70e877dd5e4f00cb0",
          "topics": [
            "0x4afcb4a87cdbd9974efdb92ee48bc8d7cd0ae4bf217004db3d080cbaee652ca7"
          ],
          "data": "0x000000000000000000000000000000000000000000000000000000006786ac8c000000000000000000000000000000000000000000000000000391116ea841bf0000000000000000000000000000000000000000000000000de0b6b3a7640000",
          "blockHash": "0xd8c2f37fd23fb20d53ceb32d35683dc9e5a2eb2be0f67cb6ef44a6c4c0ccaa9a",
          "blockNumber": "0x724f92",
          "transactionHash": "0x71ae03ccc463f017746cb76cfaf63905555445b6bbbbfcc43e3c7af2a9f5d399",
          "transactionIndex": "0x5f",
          "logIndex": "0x7e",
          "removed": false
        }
      ],
      "logsBloom": "0x00000000000000000000000000000000000000000000000000000000000000000000000000000000000000000000000000000000000000004000000000000000000000000000000000000008000000000000000000000000000000000000000000000000020000000000000004000800020000000000000000000010000000000000000000000000000000000000000000000000000000000000010000000000000000000000000000000000000000004000000000000000000000000000020000000002000000800000008000000000000000000000080000000000000020000000000000000000000000000000000000000000000000000000000000000000",
      "type": "0x2",
      "transactionHash": "0x71ae03ccc463f017746cb76cfaf63905555445b6bbbbfcc43e3c7af2a9f5d399",
      "transactionIndex": "0x5f",
      "blockHash": "0xd8c2f37fd23fb20d53ceb32d35683dc9e5a2eb2be0f67cb6ef44a6c4c0ccaa9a",
      "blockNumber": "0x724f92",
      "gasUsed": "0x13af8",
      "effectiveGasPrice": "0x5816ad7ba",
      "from": "0xc77f7fed3b5cc8249adc428c5f44c9063b9734b4",
      "to": "0x5eb9cc76c3506942c1c0ead70e877dd5e4f00cb0",
      "contractAddress": null
    }
  ],
  "libraries": [],
  "pending": [],
  "returns": {},
  "timestamp": 1736879244,
  "chain": 11155111,
  "commit": "51a374b"
}