{
  "transactions": [
    {
      "hash": "0x382ad2fc2f27a51601994ce209509f860a2df939b0e210dc2cfad1ee06302ea6",
      "transactionType": "CALL",
      "contractName": null,
      "contractAddress": "0xbf4a322f1496e5c3d34a9bcdb4c60567b38c7de2",
      "function": "buy(address)",
      "arguments": [
        "0xC77f7fed3b5Cc8249aDc428c5F44C9063B9734b4"
      ],
      "transaction": {
        "from": "0xc77f7fed3b5cc8249adc428c5f44c9063b9734b4",
        "to": "0xbf4a322f1496e5c3d34a9bcdb4c60567b38c7de2",
        "gas": "0x1b309",
        "value": "0xde0b6b3a7640000",
        "input": "0xf088d547000000000000000000000000c77f7fed3b5cc8249adc428c5f44c9063b9734b4",
        "nonce": "0x9c6",
        "chainId": "0xaa36a7"
      },
      "additionalContracts": [],
      "isFixedGasLimit": false
    }
  ],
  "receipts": [
    {
      "status": "0x1",
      "cumulativeGasUsed": "0x702e64",
      "logs": [
        {
          "address": "0xbf4a322f1496e5c3d34a9bcdb4c60567b38c7de2",
          "topics": [
            "0xddf252ad1be2c89b69c2b068fc378daa952ba7f163c4a11628f55a4df523b3ef",
            "0x0000000000000000000000000000000000000000000000000000000000000000",
            "0x000000000000000000000000c77f7fed3b5cc8249adc428c5f44c9063b9734b4"
          ],
          "data": "0x00000000000000000000000000000000000000000000003566279eb0e0dfd7b3",
          "blockHash": "0xe72cd4fe776d912161a8dfae3d2147edfbdc4a2870abceb6c5e55a312156b033",
          "blockNumber": "0x725972",
          "transactionHash": "0x382ad2fc2f27a51601994ce209509f860a2df939b0e210dc2cfad1ee06302ea6",
          "transactionIndex": "0x48",
          "logIndex": "0x6f",
          "removed": false
        },
        {
          "address": "0xbf4a322f1496e5c3d34a9bcdb4c60567b38c7de2",
          "topics": [
            "0xddf252ad1be2c89b69c2b068fc378daa952ba7f163c4a11628f55a4df523b3ef",
            "0x0000000000000000000000000000000000000000000000000000000000000000",
            "0x000000000000000000000000c77f7fed3b5cc8249adc428c5f44c9063b9734b4"
          ],
          "data": "0x0000000000000000000000000000000000000000000000002977576a1345b87b",
          "blockHash": "0xe72cd4fe776d912161a8dfae3d2147edfbdc4a2870abceb6c5e55a312156b033",
          "blockNumber": "0x725972",
          "transactionHash": "0x382ad2fc2f27a51601994ce209509f860a2df939b0e210dc2cfad1ee06302ea6",
          "transactionIndex": "0x48",
          "logIndex": "0x70",
          "removed": false
        },
        {
          "address": "0xbf4a322f1496e5c3d34a9bcdb4c60567b38c7de2",
          "topics": [
            "0x4afcb4a87cdbd9974efdb92ee48bc8d7cd0ae4bf217004db3d080cbaee652ca7"
          ],
          "data": "0x000000000000000000000000000000000000000000000000000000006787239000000000000000000000000000000000000000000000000000039215b747fa230000000000000000000000000000000000000000000000000de0b6b3a7640000",
          "blockHash": "0xe72cd4fe776d912161a8dfae3d2147edfbdc4a2870abceb6c5e55a312156b033",
          "blockNumber": "0x725972",
          "transactionHash": "0x382ad2fc2f27a51601994ce209509f860a2df939b0e210dc2cfad1ee06302ea6",
          "transactionIndex": "0x48",
          "logIndex": "0x71",
          "removed": false
        }
      ],
      "logsBloom": "0x00000000000000000000000000000000000000000000000000000000000000000000000000000000000000000000000000000000000000004000000000000000000000000000000000000008000000000000001000000000000000000000000000000000020000000000000000000800020000000000000000000010000000000000000000000000000000000000000000000000000008000000010000000000000000000000000000000000000000004000000000000000000000000000000000000002000000800000000000001000000000000000080000000000000020000000000000000000000000000000000000000000000000000000000000000000",
      "type": "0x2",
      "transactionHash": "0x382ad2fc2f27a51601994ce209509f860a2df939b0e210dc2cfad1ee06302ea6",
      "transactionIndex": "0x48",
      "blockHash": "0xe72cd4fe776d912161a8dfae3d2147edfbdc4a2870abceb6c5e55a312156b033",
      "blockNumber": "0x725972",
      "gasUsed": "0x13af6",
      "effectiveGasPrice": "0x30937f188",
      "from": "0xc77f7fed3b5cc8249adc428c5f44c9063b9734b4",
      "to": "0xbf4a322f1496e5c3d34a9bcdb4c60567b38c7de2",
      "contractAddress": null
    }
  ],
  "libraries": [],
  "pending": [],
  "returns": {},
  "timestamp": 1736909713,
  "chain": 11155111,
  "commit": "51a374b"
}