{
  "transactions": [
    {
      "hash": "0x8f1b660b489867c4773839c7e70788c2c7a41ace4d4782c40e4017bddab3448f",
      "transactionType": "CALL",
      "contractName": null,
      "contractAddress": "0x8aafd3ede9adb0ff97c7aebce82a919afb1c8764",
      "function": "sell(uint256)",
      "arguments": [
        "2044716408746619298"
      ],
      "transaction": {
        "from": "0xc77f7fed3b5cc8249adc428c5f44c9063b9734b4",
        "to": "0x8aafd3ede9adb0ff97c7aebce82a919afb1c8764",
        "gas": "0x15dca",
        "value": "0x0",
        "input": "0xe4849b320000000000000000000000000000000000000000000000001c604abd89c131a2",
        "nonce": "0x13e9",
        "chainId": "0xaa36a7"
      },
      "additionalContracts": [],
      "isFixedGasLimit": false
    }
  ],
  "receipts": [
    {
      "status": "0x1",
      "cumulativeGasUsed": "0xbf50fb",
      "logs": [
        {
          "address": "0x8aafd3ede9adb0ff97c7aebce82a919afb1c8764",
          "topics": [
            "0xddf252ad1be2c89b69c2b068fc378daa952ba7f163c4a11628f55a4df523b3ef",
            "0x000000000000000000000000c77f7fed3b5cc8249adc428c5f44c9063b9734b4",
            "0x0000000000000000000000000000000000000000000000000000000000000000"
          ],
          "data": "0x0000000000000000000000000000000000000000000000001c262d7870139dc8",
          "blockHash": "0x54ed97f306f0f4627c7980b11c38ae399297080843ba33268ed5ad4e3ee980e7",
          "blockNumber": "0x731b19",
          "transactionHash": "0x8f1b660b489867c4773839c7e70788c2c7a41ace4d4782c40e4017bddab3448f",
          "transactionIndex": "0x46",
          "logIndex": "0x2d",
          "removed": false
        },
        {
          "address": "0x8aafd3ede9adb0ff97c7aebce82a919afb1c8764",
          "topics": [
            "0xddf252ad1be2c89b69c2b068fc378daa952ba7f163c4a11628f55a4df523b3ef",
            "0x000000000000000000000000c77f7fed3b5cc8249adc428c5f44c9063b9734b4",
            "0x000000000000000000000000c77f7fed3b5cc8249adc428c5f44c9063b9734b4"
          ],
          "data": "0x000000000000000000000000000000000000000000000000003a1d4519ad93da",
          "blockHash": "0x54ed97f306f0f4627c7980b11c38ae399297080843ba33268ed5ad4e3ee980e7",
          "blockNumber": "0x731b19",
          "transactionHash": "0x8f1b660b489867c4773839c7e70788c2c7a41ace4d4782c40e4017bddab3448f",
          "transactionIndex": "0x46",
          "logIndex": "0x2e",
          "removed": false
        },
        {
          "address": "0x8aafd3ede9adb0ff97c7aebce82a919afb1c8764",
          "topics": [
            "0x4afcb4a87cdbd9974efdb92ee48bc8d7cd0ae4bf217004db3d080cbaee652ca7"
          ],
          "data": "0x00000000000000000000000000000000000000000000000000000000679041fc000000000000000000000000000000000000000000000000000de7c1d34ca7e9000000000000000000000000000000000000000000000000001c6e5dad6623ba",
          "blockHash": "0x54ed97f306f0f4627c7980b11c38ae399297080843ba33268ed5ad4e3ee980e7",
          "blockNumber": "0x731b19",
          "transactionHash": "0x8f1b660b489867c4773839c7e70788c2c7a41ace4d4782c40e4017bddab3448f",
          "transactionIndex": "0x46",
          "logIndex": "0x2f",
          "removed": false
        }
      ],
      "logsBloom": "0x00000000000000000000000000000000000000000600000000000000000000000000000000000000000000000000000000000000000000004000000000000000000000000000004000000008000000000000000000000000000000000000000000000000020000000000000000000800020000000000000000000010000000000000000000000000000000000000000000000000000000000000010000000000000000000000000000000000000000004000000000000000000000000000000000000002000000800000000000000000000000000000080000000000000020000000000000000000000000000000000000000000000000000000000000000000",
      "type": "0x2",
      "transactionHash": "0x8f1b660b489867c4773839c7e70788c2c7a41ace4d4782c40e4017bddab3448f",
      "transactionIndex": "0x46",
      "blockHash": "0x54ed97f306f0f4627c7980b11c38ae399297080843ba33268ed5ad4e3ee980e7",
      "blockNumber": "0x731b19",
      "gasUsed": "0xfd3f",
      "effectiveGasPrice": "0x9267d018",
      "from": "0xc77f7fed3b5cc8249adc428c5f44c9063b9734b4",
      "to": "0x8aafd3ede9adb0ff97c7aebce82a919afb1c8764",
      "contractAddress": null
    }
  ],
  "libraries": [],
  "pending": [],
  "returns": {},
  "timestamp": 1737507325,
  "chain": 11155111,
  "commit": "1d2fb70"
}