{
  "transactions": [
    {
      "hash": "0x40252e94044058f7700914f5913d2cc2b92a1a23dbe603528f7a977c9dbf4f44",
      "transactionType": "CALL",
      "contractName": null,
      "contractAddress": "0x270e88f8683660553e8ba4eb2ad7c91a1710d769",
      "function": "buy(address)",
      "arguments": [
        "0xC77f7fed3b5Cc8249aDc428c5F44C9063B9734b4"
      ],
      "transaction": {
        "from": "0xc77f7fed3b5cc8249adc428c5f44c9063b9734b4",
        "to": "0x270e88f8683660553e8ba4eb2ad7c91a1710d769",
        "gas": "0x1b30c",
        "value": "0xde0b6b3a7640000",
        "input": "0xf088d547000000000000000000000000c77f7fed3b5cc8249adc428c5f44c9063b9734b4",
        "nonce": "0x6bb",
        "chainId": "0xaa36a7"
      },
      "additionalContracts": [],
      "isFixedGasLimit": false
    }
  ],
  "receipts": [
    {
      "status": "0x1",
      "cumulativeGasUsed": "0x523f82",
      "logs": [
        {
          "address": "0x270e88f8683660553e8ba4eb2ad7c91a1710d769",
          "topics": [
            "0xddf252ad1be2c89b69c2b068fc378daa952ba7f163c4a11628f55a4df523b3ef",
            "0x0000000000000000000000000000000000000000000000000000000000000000",
            "0x000000000000000000000000c77f7fed3b5cc8249adc428c5f44c9063b9734b4"
          ],
          "data": "0x0000000000000000000000000000000000000000000000289d3f67fdf9d07268",
          "blockHash": "0x0c14cdd48a3861475643cf47f7be282932aea32b4ed68d0cee2061f57889f278",
          "blockNumber": "0x7253c6",
          "transactionHash": "0x40252e94044058f7700914f5913d2cc2b92a1a23dbe603528f7a977c9dbf4f44",
          "transactionIndex": "0x32",
          "logIndex": "0x50",
          "removed": false
        },
        {
          "address": "0x270e88f8683660553e8ba4eb2ad7c91a1710d769",
          "topics": [
            "0xddf252ad1be2c89b69c2b068fc378daa952ba7f163c4a11628f55a4df523b3ef",
            "0x0000000000000000000000000000000000000000000000000000000000000000",
            "0x000000000000000000000000c77f7fed3b5cc8249adc428c5f44c9063b9734b4"
          ],
          "data": "0x0000000000000000000000000000000000000000000000001f89d145e3c31194",
          "blockHash": "0x0c14cdd48a3861475643cf47f7be282932aea32b4ed68d0cee2061f57889f278",
          "blockNumber": "0x7253c6",
          "transactionHash": "0x40252e94044058f7700914f5913d2cc2b92a1a23dbe603528f7a977c9dbf4f44",
          "transactionIndex": "0x32",
          "logIndex": "0x51",
          "removed": false
        },
        {
          "address": "0x270e88f8683660553e8ba4eb2ad7c91a1710d769",
          "topics": [
            "0x4afcb4a87cdbd9974efdb92ee48bc8d7cd0ae4bf217004db3d080cbaee652ca7"
          ],
          "data": "0x000000000000000000000000000000000000000000000000000000006786df500000000000000000000000000000000000000000000000000004b1eb2c6022df0000000000000000000000000000000000000000000000000de0b6b3a7640000",
          "blockHash": "0x0c14cdd48a3861475643cf47f7be282932aea32b4ed68d0cee2061f57889f278",
          "blockNumber": "0x7253c6",
          "transactionHash": "0x40252e94044058f7700914f5913d2cc2b92a1a23dbe603528f7a977c9dbf4f44",
          "transactionIndex": "0x32",
          "logIndex": "0x52",
          "removed": false
        }
      ],
      "logsBloom": "0x00000000000000000000000000000000000000000000000000000000000000000000000000000000000000000000000020000000000000004000000000000000000000000000000000000008000000000000000000000000000000000000000000000000020000000000000000000800020000000000000000000010000000000000000000010000000000000000000000000000000000000000010000000000000000000000000000000000000000004000000000000000000000000000000000000002000000800000000000000000000000000000080000008000000020000000000000000000000000000000000000000000000000000000000000000000",
      "type": "0x2",
      "transactionHash": "0x40252e94044058f7700914f5913d2cc2b92a1a23dbe603528f7a977c9dbf4f44",
      "transactionIndex": "0x32",
      "blockHash": "0x0c14cdd48a3861475643cf47f7be282932aea32b4ed68d0cee2061f57889f278",
      "blockNumber": "0x7253c6",
      "gasUsed": "0x13af8",
      "effectiveGasPrice": "0x187730ccf",
      "from": "0xc77f7fed3b5cc8249adc428c5f44c9063b9734b4",
      "to": "0x270e88f8683660553e8ba4eb2ad7c91a1710d769",
      "contractAddress": null
    }
  ],
  "libraries": [],
  "pending": [],
  "returns": {},
  "timestamp": 1736892241,
  "chain": 11155111,
  "commit": "51a374b"
}