{
  "transactions": [
    {
      "hash": "0x6ff6de046983de82e1afcd69f1e297c97ae23a45971b26e5ea3ec7bd2eee36f9",
      "transactionType": "CALL",
      "contractName": null,
      "contractAddress": "0x8aafd3ede9adb0ff97c7aebce82a919afb1c8764",
      "function": "buy(address)",
      "arguments": [
        "0xC77f7fed3b5Cc8249aDc428c5F44C9063B9734b4"
      ],
      "transaction": {
        "from": "0xc77f7fed3b5cc8249adc428c5f44c9063b9734b4",
        "to": "0x8aafd3ede9adb0ff97c7aebce82a919afb1c8764",
        "gas": "0x156ea",
        "value": "0xde0b6b3a7640000",
        "input": "0xf088d547000000000000000000000000c77f7fed3b5cc8249adc428c5f44c9063b9734b4",
        "nonce": "0x146e",
        "chainId": "0xaa36a7"
      },
      "additionalContracts": [],
      "isFixedGasLimit": false
    }
  ],
  "receipts": [
    {
      "status": "0x1",
      "cumulativeGasUsed": "0x7c4e16",
      "logs": [
        {
          "address": "0x8aafd3ede9adb0ff97c7aebce82a919afb1c8764",
          "topics": [
            "0xddf252ad1be2c89b69c2b068fc378daa952ba7f163c4a11628f55a4df523b3ef",
            "0x0000000000000000000000000000000000000000000000000000000000000000",
            "0x000000000000000000000000c77f7fed3b5cc8249adc428c5f44c9063b9734b4"
          ],
          "data": "0x00000000000000000000000000000000000000000000000c6cf3128eb9bd12f0",
          "blockHash": "0xc802fcd7dd4dda8688202acaa6aead00d385ee4c5b79765ebcbb1fd44a42b3f1",
          "blockNumber": "0x731bbb",
          "transactionHash": "0x6ff6de046983de82e1afcd69f1e297c97ae23a45971b26e5ea3ec7bd2eee36f9",
          "transactionIndex": "0x6c",
          "logIndex": "0x5e",
          "removed": false
        },
        {
          "address": "0x8aafd3ede9adb0ff97c7aebce82a919afb1c8764",
          "topics": [
            "0xddf252ad1be2c89b69c2b068fc378daa952ba7f163c4a11628f55a4df523b3ef",
            "0x0000000000000000000000000000000000000000000000000000000000000000",
            "0x000000000000000000000000c77f7fed3b5cc8249adc428c5f44c9063b9734b4"
          ],
          "data": "0x00000000000000000000000000000000000000000000000009a61da469e47a80",
          "blockHash": "0xc802fcd7dd4dda8688202acaa6aead00d385ee4c5b79765ebcbb1fd44a42b3f1",
          "blockNumber": "0x731bbb",
          "transactionHash": "0x6ff6de046983de82e1afcd69f1e297c97ae23a45971b26e5ea3ec7bd2eee36f9",
          "transactionIndex": "0x6c",
          "logIndex": "0x5f",
          "removed": false
        },
        {
          "address": "0x8aafd3ede9adb0ff97c7aebce82a919afb1c8764",
          "topics": [
            "0x4afcb4a87cdbd9974efdb92ee48bc8d7cd0ae4bf217004db3d080cbaee652ca7"
          ],
          "data": "0x00000000000000000000000000000000000000000000000000000000679049a0000000000000000000000000000000000000000000000000000f5e9a0b0eeb100000000000000000000000000000000000000000000000000de0b6b3a7640000",
          "blockHash": "0xc802fcd7dd4dda8688202acaa6aead00d385ee4c5b79765ebcbb1fd44a42b3f1",
          "blockNumber": "0x731bbb",
          "transactionHash": "0x6ff6de046983de82e1afcd69f1e297c97ae23a45971b26e5ea3ec7bd2eee36f9",
          "transactionIndex": "0x6c",
          "logIndex": "0x60",
          "removed": false
        }
      ],
      "logsBloom": "0x00000000000000000000000000000000000000000600000000000000000000000000000000000000000000000000000000000000000000004000000000000000000000000000004000000008000000000000000000000000000000000000000000000000020000000000000000000800020000000000000000000010000000000000000000000000000000000000000000000000000000000000010000000000000000000000000000000000000000004000000000000000000000000000000000000002000000800000000000000000000000000000080000000000000020000000000000000000000000000000000000000000000000000000000000000000",
      "type": "0x2",
      "transactionHash": "0x6ff6de046983de82e1afcd69f1e297c97ae23a45971b26e5ea3ec7bd2eee36f9",
      "transactionIndex": "0x6c",
      "blockHash": "0xc802fcd7dd4dda8688202acaa6aead00d385ee4c5b79765ebcbb1fd44a42b3f1",
      "blockNumber": "0x731bbb",
      "gasUsed": "0xf844",
      "effectiveGasPrice": "0xfb18e084",
      "from": "0xc77f7fed3b5cc8249adc428c5f44c9063b9734b4",
      "to": "0x8aafd3ede9adb0ff97c7aebce82a919afb1c8764",
      "contractAddress": null
    }
  ],
  "libraries": [],
  "pending": [],
  "returns": {},
  "timestamp": 1737509282,
  "chain": 11155111,
  "commit": "1d2fb70"
}