{
  "transactions": [
    {
      "hash": "0x440f429bc1846a18779b61044f35e7f9bbb3405fc7ed5f9c11a65da010fc497f",
      "transactionType": "CALL",
      "contractName": null,
      "contractAddress": "0xbf4a322f1496e5c3d34a9bcdb4c60567b38c7de2",
      "function": "sell(uint256)",
      "arguments": [
        "982246652800779671978"
      ],
      "transaction": {
        "from": "0xc77f7fed3b5cc8249adc428c5f44c9063b9734b4",
        "to": "0xbf4a322f1496e5c3d34a9bcdb4c60567b38c7de2",
        "gas": "0x16fea",
        "value": "0x0",
        "input": "0xe4849b320000000000000000000000000000000000000000000000353f691e8e76ebd9aa",
        "nonce": "0xb71",
        "chainId": "0xaa36a7"
      },
      "additionalContracts": [],
      "isFixedGasLimit": false
    }
  ],
  "receipts": [
    {
      "status": "0x1",
      "cumulativeGasUsed": "0xf3c69c",
      "logs": [
        {
          "address": "0xbf4a322f1496e5c3d34a9bcdb4c60567b38c7de2",
          "topics": [
            "0xddf252ad1be2c89b69c2b068fc378daa952ba7f163c4a11628f55a4df523b3ef",
            "0x000000000000000000000000c77f7fed3b5cc8249adc428c5f44c9063b9734b4",
            "0x0000000000000000000000000000000000000000000000000000000000000000"
          ],
          "data": "0x0000000000000000000000000000000000000000000000353f691e8e76ebd9aa",
          "blockHash": "0x354518cb32945f1c55a0a0c98c531e874035c53ec4fddeec48ba0c037c754aaf",
          "blockNumber": "0x725b7c",
          "transactionHash": "0x440f429bc1846a18779b61044f35e7f9bbb3405fc7ed5f9c11a65da010fc497f",
          "transactionIndex": "0x4b",
          "logIndex": "0x94",
          "removed": false
        },
        {
          "address": "0xbf4a322f1496e5c3d34a9bcdb4c60567b38c7de2",
          "topics": [
            "0x4afcb4a87cdbd9974efdb92ee48bc8d7cd0ae4bf217004db3d080cbaee652ca7"
          ],
          "data": "0x0000000000000000000000000000000000000000000000000000000067873c2c0000000000000000000000000000000000000000000000000003977ac802dac60000000000000000000000000000000000000000000000000dc7e3e74a331b2d",
          "blockHash": "0x354518cb32945f1c55a0a0c98c531e874035c53ec4fddeec48ba0c037c754aaf",
          "blockNumber": "0x725b7c",
          "transactionHash": "0x440f429bc1846a18779b61044f35e7f9bbb3405fc7ed5f9c11a65da010fc497f",
          "transactionIndex": "0x4b",
          "logIndex": "0x95",
          "removed": false
        }
      ],
      "logsBloom": "0x00000000000000000000000000000000000000000000000000000000000000000000000000000000000000000000000000000000000000004000000000000000000000000000000000000008000000000000001000000000000000000000000000000000020000000000000000000800020000000000000000000010000000000000000000000000000000000000000000000000000008000000010000000000000000000000000000000000000000004000000000000000000000000000000000000002000000800000000000001000000000000000080000000000000020000000000000000000000000000000000000000000000000000000000000000000",
      "type": "0x2",
      "transactionHash": "0x440f429bc1846a18779b61044f35e7f9bbb3405fc7ed5f9c11a65da010fc497f",
      "transactionIndex": "0x4b",
      "blockHash": "0x354518cb32945f1c55a0a0c98c531e874035c53ec4fddeec48ba0c037c754aaf",
      "blockNumber": "0x725b7c",
      "gasUsed": "0xfb91",
      "effectiveGasPrice": "0x3d45b366",
      "from": "0xc77f7fed3b5cc8249adc428c5f44c9063b9734b4",
      "to": "0xbf4a322f1496e5c3d34a9bcdb4c60567b38c7de2",
      "contractAddress": null
    }
  ],
  "libraries": [],
  "pending": [],
  "returns": {},
  "timestamp": 1736916013,
  "chain": 11155111,
  "commit": "51a374b"
}