{
  "transactions": [
    {
      "hash": "0xa99a8267baddc49158e11a638aaae18488e44575b5e1dfb85249b6eec862b1d4",
      "transactionType": "CALL",
      "contractName": null,
      "contractAddress": "0x00972455a43df7d89f165c5b82f30c20247bb610",
      "function": "borrow(uint256,uint256)",
      "arguments": [
        "9899999999999990",
        "0"
      ],
      "transaction": {
        "from": "0xc77f7fed3b5cc8249adc428c5f44c9063b9734b4",
        "to": "0x00972455a43df7d89f165c5b82f30c20247bb610",
        "gas": "0x5d01b",
        "value": "0x0",
        "input": "0x0ecbcdab00000000000000000000000000000000000000000000000000232bff5f46bff60000000000000000000000000000000000000000000000000000000000000000",
        "nonce": "0x186f",
        "chainId": "0xaa36a7"
      },
      "additionalContracts": [],
      "isFixedGasLimit": false
    }
  ],
  "receipts": [
    {
      "status": "0x1",
      "cumulativeGasUsed": "0x1165706",
      "logs": [
        {
          "address": "0x00972455a43df7d89f165c5b82f30c20247bb610",
          "topics": [
            "0xddf252ad1be2c89b69c2b068fc378daa952ba7f163c4a11628f55a4df523b3ef",
            "0x000000000000000000000000c77f7fed3b5cc8249adc428c5f44c9063b9734b4",
            "0x00000000000000000000000000972455a43df7d89f165c5b82f30c20247bb610"
          ],
          "data": "0x0000000000000000000000000000000000000000000000008963dd8c2c5dff9b",
          "blockHash": "0x2e9ac56604a618d8ff885fa033361295b72cdbb0b73dc67a6bf52d4ec27ed591",
          "blockNumber": "0x737e40",
          "transactionHash": "0xa99a8267baddc49158e11a638aaae18488e44575b5e1dfb85249b6eec862b1d4",
          "transactionIndex": "0x5f",
          "logIndex": "0x169",
          "removed": false
        },
        {
          "address": "0x00972455a43df7d89f165c5b82f30c20247bb610",
          "topics": [
            "0xddf252ad1be2c89b69c2b068fc378daa952ba7f163c4a11628f55a4df523b3ef",
            "0x00000000000000000000000000972455a43df7d89f165c5b82f30c20247bb610",
            "0x000000000000000000000000c77f7fed3b5cc8249adc428c5f44c9063b9734b4"
          ],
          "data": "0x000000000000000000000000000000000000000000000000000a8d3302fb9ed6",
          "blockHash": "0x2e9ac56604a618d8ff885fa033361295b72cdbb0b73dc67a6bf52d4ec27ed591",
          "blockNumber": "0x737e40",
          "transactionHash": "0xa99a8267baddc49158e11a638aaae18488e44575b5e1dfb85249b6eec862b1d4",
          "transactionIndex": "0x5f",
          "logIndex": "0x16a",
          "removed": false
        },
        {
          "address": "0x00972455a43df7d89f165c5b82f30c20247bb610",
          "topics": [
            "0xddf252ad1be2c89b69c2b068fc378daa952ba7f163c4a11628f55a4df523b3ef",
            "0x00000000000000000000000000972455a43df7d89f165c5b82f30c20247bb610",
            "0x0000000000000000000000000000000000000000000000000000000000000000"
          ],
          "data": "0x00000000000000000000000000000000000000000000000000189ecc5c4b1d4b",
          "blockHash": "0x2e9ac56604a618d8ff885fa033361295b72cdbb0b73dc67a6bf52d4ec27ed591",
          "blockNumber": "0x737e40",
          "transactionHash": "0xa99a8267baddc49158e11a638aaae18488e44575b5e1dfb85249b6eec862b1d4",
          "transactionIndex": "0x5f",
          "logIndex": "0x16b",
          "removed": false
        },
        {
          "address": "0x00972455a43df7d89f165c5b82f30c20247bb610",
          "topics": [
            "0x03bbe564cb1b78e43195eeadbde99e5b89b19345862807fcfb59f884e4165e25"
          ],
          "data": "0x000000000000000000000000c77f7fed3b5cc8249adc428c5f44c9063b9734b40000000000000000000000000000000000000000000000000022c90b2a51f5f7",
          "blockHash": "0x2e9ac56604a618d8ff885fa033361295b72cdbb0b73dc67a6bf52d4ec27ed591",
          "blockNumber": "0x737e40",
          "transactionHash": "0xa99a8267baddc49158e11a638aaae18488e44575b5e1dfb85249b6eec862b1d4",
          "transactionIndex": "0x5f",
          "logIndex": "0x16c",
          "removed": false
        },
        {
          "address": "0x00972455a43df7d89f165c5b82f30c20247bb610",
          "topics": [
            "0xaec00f5213a37254bc68a26b0685d1a5b2bf513e1e587c94c7df7f4a62b56c9c"
          ],
          "data": "0x0000000000000000000000000000000000000000000000008940b18ccd17437a0000000000000000000000000000000000000000000000000022c90b2a51f5f70000000000000000000000000000000000000000000000000022c90b2a51f5f70000000000000000000000000000000000000000000000008940b18ccd17437a",
          "blockHash": "0x2e9ac56604a618d8ff885fa033361295b72cdbb0b73dc67a6bf52d4ec27ed591",
          "blockNumber": "0x737e40",
          "transactionHash": "0xa99a8267baddc49158e11a638aaae18488e44575b5e1dfb85249b6eec862b1d4",
          "transactionIndex": "0x5f",
          "logIndex": "0x16d",
          "removed": false
        },
        {
          "address": "0x00972455a43df7d89f165c5b82f30c20247bb610",
          "topics": [
            "0x4afcb4a87cdbd9974efdb92ee48bc8d7cd0ae4bf217004db3d080cbaee652ca7"
          ],
          "data": "0x00000000000000000000000000000000000000000000000000000000679510b000000000000000000000000000000000000000000000000000038e201b706b9a0000000000000000000000000000000000000000000000000000090105fbb7ff",
          "blockHash": "0x2e9ac56604a618d8ff885fa033361295b72cdbb0b73dc67a6bf52d4ec27ed591",
          "blockNumber": "0x737e40",
          "transactionHash": "0xa99a8267baddc49158e11a638aaae18488e44575b5e1dfb85249b6eec862b1d4",
          "transactionIndex": "0x5f",
          "logIndex": "0x16e",
          "removed": false
        }
      ],
      "logsBloom": "0x00000000000008000000000000000100400000000000000000000000000000000008000000000000000000000000000000002800000000004400000000000000000000000000000000000008000000000000000000000000000000000000000000000000020000000000000000000800028000000000000000000010000000000000000000000000000000000000000000000000000000000000010000000000000000000000000000000400000000004000000000400000000040001000000000000002000000800000000000000000000000000000080000000000000020000000000000000000000000000000000000000000000000000000000000000000",
      "type": "0x2",
      "transactionHash": "0xa99a8267baddc49158e11a638aaae18488e44575b5e1dfb85249b6eec862b1d4",
      "transactionIndex": "0x5f",
      "blockHash": "0x2e9ac56604a618d8ff885fa033361295b72cdbb0b73dc67a6bf52d4ec27ed591",
      "blockNumber": "0x737e40",
      "gasUsed": "0x3f983",
      "effectiveGasPrice": "0x1e20c522d",
      "from": "0xc77f7fed3b5cc8249adc428c5f44c9063b9734b4",
      "to": "0x00972455a43df7d89f165c5b82f30c20247bb610",
      "contractAddress": null
    }
  ],
  "libraries": [],
  "pending": [],
  "returns": {},
  "timestamp": 1737822385,
  "chain": 11155111,
  "commit": "f5162e9"
}