{
  "transactions": [
    {
      "hash": "0x0981821f826bf362045725a0f5991a34fe3755ac28e951acf789612afd596e23",
      "transactionType": "CALL",
      "contractName": null,
      "contractAddress": "0xbf4a322f1496e5c3d34a9bcdb4c60567b38c7de2",
      "function": "buy(address)",
      "arguments": [
        "0xC77f7fed3b5Cc8249aDc428c5F44C9063B9734b4"
      ],
      "transaction": {
        "from": "0xc77f7fed3b5cc8249adc428c5f44c9063b9734b4",
        "to": "0xbf4a322f1496e5c3d34a9bcdb4c60567b38c7de2",
        "gas": "0x1b309",
        "value": "0xde0b6b3a7640000",
        "input": "0xf088d547000000000000000000000000c77f7fed3b5cc8249adc428c5f44c9063b9734b4",
        "nonce": "0xa7c",
        "chainId": "0xaa36a7"
      },
      "additionalContracts": [],
      "isFixedGasLimit": false
    }
  ],
  "receipts": [
    {
      "status": "0x1",
      "cumulativeGasUsed": "0xf6a078",
      "logs": [
        {
          "address": "0xbf4a322f1496e5c3d34a9bcdb4c60567b38c7de2",
          "topics": [
            "0xddf252ad1be2c89b69c2b068fc378daa952ba7f163c4a11628f55a4df523b3ef",
            "0x0000000000000000000000000000000000000000000000000000000000000000",
            "0x000000000000000000000000c77f7fed3b5cc8249adc428c5f44c9063b9734b4"
          ],
          "data": "0x00000000000000000000000000000000000000000000003543e0146653d7641f",
          "blockHash": "0x7cb31a250cdb401ff9cfdd17e4e3440c2b1c6a1cda399774aaf6db516882fb9a",
          "blockNumber": "0x725a5b",
          "transactionHash": "0x0981821f826bf362045725a0f5991a34fe3755ac28e951acf789612afd596e23",
          "transactionIndex": "0x8c",
          "logIndex": "0x10c",
          "removed": false
        },
        {
          "address": "0xbf4a322f1496e5c3d34a9bcdb4c60567b38c7de2",
          "topics": [
            "0xddf252ad1be2c89b69c2b068fc378daa952ba7f163c4a11628f55a4df523b3ef",
            "0x0000000000000000000000000000000000000000000000000000000000000000",
            "0x000000000000000000000000c77f7fed3b5cc8249adc428c5f44c9063b9734b4"
          ],
          "data": "0x000000000000000000000000000000000000000000000000295cb8e8768936f2",
          "blockHash": "0x7cb31a250cdb401ff9cfdd17e4e3440c2b1c6a1cda399774aaf6db516882fb9a",
          "blockNumber": "0x725a5b",
          "transactionHash": "0x0981821f826bf362045725a0f5991a34fe3755ac28e951acf789612afd596e23",
          "transactionIndex": "0x8c",
          "logIndex": "0x10d",
          "removed": false
        },
        {
          "address": "0xbf4a322f1496e5c3d34a9bcdb4c60567b38c7de2",
          "topics": [
            "0x4afcb4a87cdbd9974efdb92ee48bc8d7cd0ae4bf217004db3d080cbaee652ca7"
          ],
          "data": "0x0000000000000000000000000000000000000000000000000000000067872e9400000000000000000000000000000000000000000000000000039461fb2049790000000000000000000000000000000000000000000000000de0b6b3a7640000",
          "blockHash": "0x7cb31a250cdb401ff9cfdd17e4e3440c2b1c6a1cda399774aaf6db516882fb9a",
          "blockNumber": "0x725a5b",
          "transactionHash": "0x0981821f826bf362045725a0f5991a34fe3755ac28e951acf789612afd596e23",
          "transactionIndex": "0x8c",
          "logIndex": "0x10e",
          "removed": false
        }
      ],
      "logsBloom": "0x00000000000000000000000000000000000000000000000000000000000000000000000000000000000000000000000000000000000000004000000000000000000000000000000000000008000000000000001000000000000000000000000000000000020000000000000000000800020000000000000000000010000000000000000000000000000000000000000000000000000008000000010000000000000000000000000000000000000000004000000000000000000000000000000000000002000000800000000000001000000000000000080000000000000020000000000000000000000000000000000000000000000000000000000000000000",
      "type": "0x2",
      "transactionHash": "0x0981821f826bf362045725a0f5991a34fe3755ac28e951acf789612afd596e23",
      "transactionIndex": "0x8c",
      "blockHash": "0x7cb31a250cdb401ff9cfdd17e4e3440c2b1c6a1cda399774aaf6db516882fb9a",
      "blockNumber": "0x725a5b",
      "gasUsed": "0x13af6",
      "effectiveGasPrice": "0x2d640077b",
      "from": "0xc77f7fed3b5cc8249adc428c5f44c9063b9734b4",
      "to": "0xbf4a322f1496e5c3d34a9bcdb4c60567b38c7de2",
      "contractAddress": null
    }
  ],
  "libraries": [],
  "pending": [],
  "returns": {},
  "timestamp": 1736912533,
  "chain": 11155111,
  "commit": "51a374b"
}