{
  "transactions": [
    {
      "hash": "0xb985fead7c686880c33c66967206e484f723a2d21a2d321dd32fd29f3e2a2820",
      "transactionType": "CALL",
      "contractName": null,
      "contractAddress": "0x8aafd3ede9adb0ff97c7aebce82a919afb1c8764",
      "function": "sell(uint256)",
      "arguments": [
        "995104408323"
      ],
      "transaction": {
        "from": "0xc77f7fed3b5cc8249adc428c5f44c9063b9734b4",
        "to": "0x8aafd3ede9adb0ff97c7aebce82a919afb1c8764",
        "gas": "0x1722a",
        "value": "0x0",
        "input": "0xe4849b32000000000000000000000000000000000000000000000000000000e7b0d84303",
        "nonce": "0x142b",
        "chainId": "0xaa36a7"
      },
      "additionalContracts": [],
      "isFixedGasLimit": false
    }
  ],
  "receipts": [
    {
      "status": "0x1",
      "cumulativeGasUsed": "0x11ec091",
      "logs": [
        {
          "address": "0x8aafd3ede9adb0ff97c7aebce82a919afb1c8764",
          "topics": [
            "0xddf252ad1be2c89b69c2b068fc378daa952ba7f163c4a11628f55a4df523b3ef",
            "0x000000000000000000000000c77f7fed3b5cc8249adc428c5f44c9063b9734b4",
            "0x0000000000000000000000000000000000000000000000000000000000000000"
          ],
          "data": "0x000000000000000000000000000000000000000000000000000000e5d6578e41",
          "blockHash": "0x25786f4e34336e8c660c7393e49014beec0bd7baa62a1c9d1a6e5810ee74085c",
          "blockNumber": "0x731b69",
          "transactionHash": "0xb985fead7c686880c33c66967206e484f723a2d21a2d321dd32fd29f3e2a2820",
          "transactionIndex": "0xaa",
          "logIndex": "0xef",
          "removed": false
        },
        {
          "address": "0x8aafd3ede9adb0ff97c7aebce82a919afb1c8764",
          "topics": [
            "0xddf252ad1be2c89b69c2b068fc378daa952ba7f163c4a11628f55a4df523b3ef",
            "0x000000000000000000000000c77f7fed3b5cc8249adc428c5f44c9063b9734b4",
            "0x000000000000000000000000c77f7fed3b5cc8249adc428c5f44c9063b9734b4"
          ],
          "data": "0x00000000000000000000000000000000000000000000000000000001da80b4c2",
          "blockHash": "0x25786f4e34336e8c660c7393e49014beec0bd7baa62a1c9d1a6e5810ee74085c",
          "blockNumber": "0x731b69",
          "transactionHash": "0xb985fead7c686880c33c66967206e484f723a2d21a2d321dd32fd29f3e2a2820",
          "transactionIndex": "0xaa",
          "logIndex": "0xf0",
          "removed": false
        },
        {
          "address": "0x8aafd3ede9adb0ff97c7aebce82a919afb1c8764",
          "topics": [
            "0x4afcb4a87cdbd9974efdb92ee48bc8d7cd0ae4bf217004db3d080cbaee652ca7"
          ],
          "data": "0x00000000000000000000000000000000000000000000000000000000679045bc000000000000000000000000000000000000000000000000000e9fbd57315d7600000000000000000000000000000000000000000000000000000000f42609ce",
          "blockHash": "0x25786f4e34336e8c660c7393e49014beec0bd7baa62a1c9d1a6e5810ee74085c",
          "blockNumber": "0x731b69",
          "transactionHash": "0xb985fead7c686880c33c66967206e484f723a2d21a2d321dd32fd29f3e2a2820",
          "transactionIndex": "0xaa",
          "logIndex": "0xf1",
          "removed": false
        }
      ],
      "logsBloom": "0x00000000000000000000000000000000000000000600000000000000000000000000000000000000000000000000000000000000000000004000000000000000000000000000004000000008000000000000000000000000000000000000000000000000020000000000000000000800020000000000000000000010000000000000000000000000000000000000000000000000000000000000010000000000000000000000000000000000000000004000000000000000000000000000000000000002000000800000000000000000000000000000080000000000000020000000000000000000000000000000000000000000000000000000000000000000",
      "type": "0x2",
      "transactionHash": "0xb985fead7c686880c33c66967206e484f723a2d21a2d321dd32fd29f3e2a2820",
      "transactionIndex": "0xaa",
      "blockHash": "0x25786f4e34336e8c660c7393e49014beec0bd7baa62a1c9d1a6e5810ee74085c",
      "blockNumber": "0x731b69",
      "gasUsed": "0xfd1b",
      "effectiveGasPrice": "0xfe1bc52d",
      "from": "0xc77f7fed3b5cc8249adc428c5f44c9063b9734b4",
      "to": "0x8aafd3ede9adb0ff97c7aebce82a919afb1c8764",
      "contractAddress": null
    }
  ],
  "libraries": [],
  "pending": [],
  "returns": {},
  "timestamp": 1737508285,
  "chain": 11155111,
  "commit": "1d2fb70"
}