{
  "transactions": [
    {
      "hash": "0x99816b457fbdeb624d774e8559af391fbff3c2659e5b19a21c846ad5cf081c12",
      "transactionType": "CALL",
      "contractName": null,
      "contractAddress": "0x8aafd3ede9adb0ff97c7aebce82a919afb1c8764",
      "function": "sell(uint256)",
      "arguments": [
        "41819455"
      ],
      "transaction": {
        "from": "0xc77f7fed3b5cc8249adc428c5f44c9063b9734b4",
        "to": "0x8aafd3ede9adb0ff97c7aebce82a919afb1c8764",
        "gas": "0x15d88",
        "value": "0x0",
        "input": "0xe4849b3200000000000000000000000000000000000000000000000000000000027e1d3f",
        "nonce": "0x16be",
        "chainId": "0xaa36a7"
      },
      "additionalContracts": [],
      "isFixedGasLimit": false
    }
  ],
  "receipts": [
    {
      "status": "0x1",
      "cumulativeGasUsed": "0x8df835",
      "logs": [
        {
          "address": "0x8aafd3ede9adb0ff97c7aebce82a919afb1c8764",
          "topics": [
            "0xddf252ad1be2c89b69c2b068fc378daa952ba7f163c4a11628f55a4df523b3ef",
            "0x000000000000000000000000c77f7fed3b5cc8249adc428c5f44c9063b9734b4",
            "0x0000000000000000000000000000000000000000000000000000000000000000"
          ],
          "data": "0x0000000000000000000000000000000000000000000000000000000002790264",
          "blockHash": "0xecb0f4a55ebbd8d8ce0acd47d7be73204115d25e02632747224060436a550c72",
          "blockNumber": "0x731e78",
          "transactionHash": "0x99816b457fbdeb624d774e8559af391fbff3c2659e5b19a21c846ad5cf081c12",
          "transactionIndex": "0x4b",
          "logIndex": "0xa7",
          "removed": false
        },
        {
          "address": "0x8aafd3ede9adb0ff97c7aebce82a919afb1c8764",
          "topics": [
            "0xddf252ad1be2c89b69c2b068fc378daa952ba7f163c4a11628f55a4df523b3ef",
            "0x000000000000000000000000c77f7fed3b5cc8249adc428c5f44c9063b9734b4",
            "0x000000000000000000000000c77f7fed3b5cc8249adc428c5f44c9063b9734b4"
          ],
          "data": "0x0000000000000000000000000000000000000000000000000000000000051adb",
          "blockHash": "0xecb0f4a55ebbd8d8ce0acd47d7be73204115d25e02632747224060436a550c72",
          "blockNumber": "0x731e78",
          "transactionHash": "0x99816b457fbdeb624d774e8559af391fbff3c2659e5b19a21c846ad5cf081c12",
          "transactionIndex": "0x4b",
          "logIndex": "0xa8",
          "removed": false
        },
        {
          "address": "0x8aafd3ede9adb0ff97c7aebce82a919afb1c8764",
          "topics": [
            "0x4afcb4a87cdbd9974efdb92ee48bc8d7cd0ae4bf217004db3d080cbaee652ca7"
          ],
          "data": "0x0000000000000000000000000000000000000000000000000000000067906a88000000000000000000000000000000000000000000000000001638227e794968000000000000000000000000000000000000000000000000000000000003fda9",
          "blockHash": "0xecb0f4a55ebbd8d8ce0acd47d7be73204115d25e02632747224060436a550c72",
          "blockNumber": "0x731e78",
          "transactionHash": "0x99816b457fbdeb624d774e8559af391fbff3c2659e5b19a21c846ad5cf081c12",
          "transactionIndex": "0x4b",
          "logIndex": "0xa9",
          "removed": false
        }
      ],
      "logsBloom": "0x00000000000000000000000000000000000000000600000000000000000000000000000000000000000000000000000000000000000000004000000000000000000000000000004000000008000000000000000000000000000000000000000000000000020000000000000000000800020000000000000000000010000000000000000000000000000000000000000000000000000000000000010000000000000000000000000000000000000000004000000000000000000000000000000000000002000000800000000000000000000000000000080000000000000020000000000000000000000000000000000000000000000000000000000000000000",
      "type": "0x2",
      "transactionHash": "0x99816b457fbdeb624d774e8559af391fbff3c2659e5b19a21c846ad5cf081c12",
      "transactionIndex": "0x4b",
      "blockHash": "0xecb0f4a55ebbd8d8ce0acd47d7be73204115d25e02632747224060436a550c72",
      "blockNumber": "0x731e78",
      "gasUsed": "0xfd0f",
      "effectiveGasPrice": "0x4866e8db",
      "from": "0xc77f7fed3b5cc8249adc428c5f44c9063b9734b4",
      "to": "0x8aafd3ede9adb0ff97c7aebce82a919afb1c8764",
      "contractAddress": null
    }
  ],
  "libraries": [],
  "pending": [],
  "returns": {},
  "timestamp": 1737517706,
  "chain": 11155111,
  "commit": "1d2fb70"
}