{
  "transactions": [
    {
      "hash": "0x62a83fb02352ca53ac41797bcad9a0b5cd00283366f49a9b1fe5acf8eb6da82b",
      "transactionType": "CALL",
      "contractName": null,
      "contractAddress": "0xbf4a322f1496e5c3d34a9bcdb4c60567b38c7de2",
      "function": "sell(uint256)",
      "arguments": [
        "983624375429501639766"
      ],
      "transaction": {
        "from": "0xc77f7fed3b5cc8249adc428c5f44c9063b9734b4",
        "to": "0xbf4a322f1496e5c3d34a9bcdb4c60567b38c7de2",
        "gas": "0x16fea",
        "value": "0x0",
        "input": "0xe4849b320000000000000000000000000000000000000000000000355287c5fce2e95c56",
        "nonce": "0xb0b",
        "chainId": "0xaa36a7"
      },
      "additionalContracts": [],
      "isFixedGasLimit": false
    }
  ],
  "receipts": [
    {
      "status": "0x1",
      "cumulativeGasUsed": "0x6f50d6",
      "logs": [
        {
          "address": "0xbf4a322f1496e5c3d34a9bcdb4c60567b38c7de2",
          "topics": [
            "0xddf252ad1be2c89b69c2b068fc378daa952ba7f163c4a11628f55a4df523b3ef",
            "0x000000000000000000000000c77f7fed3b5cc8249adc428c5f44c9063b9734b4",
            "0x0000000000000000000000000000000000000000000000000000000000000000"
          ],
          "data": "0x0000000000000000000000000000000000000000000000355287c5fce2e95c56",
          "blockHash": "0xbf8e04aaa83848eebb11580c1f7134e955166fd905a5b1100fbc207e2b45679f",
          "blockNumber": "0x725b00",
          "transactionHash": "0x62a83fb02352ca53ac41797bcad9a0b5cd00283366f49a9b1fe5acf8eb6da82b",
          "transactionIndex": "0x44",
          "logIndex": "0x70",
          "removed": false
        },
        {
          "address": "0xbf4a322f1496e5c3d34a9bcdb4c60567b38c7de2",
          "topics": [
            "0x4afcb4a87cdbd9974efdb92ee48bc8d7cd0ae4bf217004db3d080cbaee652ca7"
          ],
          "data": "0x000000000000000000000000000000000000000000000000000000006787365c0000000000000000000000000000000000000000000000000003963117fa0ed50000000000000000000000000000000000000000000000000dc7e3ea7e3976aa",
          "blockHash": "0xbf8e04aaa83848eebb11580c1f7134e955166fd905a5b1100fbc207e2b45679f",
          "blockNumber": "0x725b00",
          "transactionHash": "0x62a83fb02352ca53ac41797bcad9a0b5cd00283366f49a9b1fe5acf8eb6da82b",
          "transactionIndex": "0x44",
          "logIndex": "0x71",
          "removed": false
        }
      ],
      "logsBloom": "0x00000000000000000000000000000000000000000000000000000000000000000000000000000000000000000000000000000000000000004000000000000000000000000000000000000008000000000000001000000000000000000000000000000000020000000000000000000800020000000000000000000010000000000000000000000000000000000000000000000000000008000000010000000000000000000000000000000000000000004000000000000000000000000000000000000002000000800000000000001000000000000000080000000000000020000000000000000000000000000000000000000000000000000000000000000000",
      "type": "0x2",
      "transactionHash": "0x62a83fb02352ca53ac41797bcad9a0b5cd00283366f49a9b1fe5acf8eb6da82b",
      "transactionIndex": "0x44",
      "blockHash": "0xbf8e04aaa83848eebb11580c1f7134e955166fd905a5b1100fbc207e2b45679f",
      "blockNumber": "0x725b00",
      "gasUsed": "0xfb91",
      "effectiveGasPrice": "0x9309ca8a",
      "from": "0xc77f7fed3b5cc8249adc428c5f44c9063b9734b4",
      "to": "0xbf4a322f1496e5c3d34a9bcdb4c60567b38c7de2",
      "contractAddress": null
    }
  ],
  "libraries": [],
  "pending": [],
  "returns": {},
  "timestamp": 1736914525,
  "chain": 11155111,
  "commit": "51a374b"
}