{
  "transactions": [
    {
      "hash": "0xe27eed73adbe73fc2a04d59b4add32b06ab53329e186728c40a1149a2e2c3bda",
      "transactionType": "CALL",
      "contractName": null,
      "contractAddress": "0x8aafd3ede9adb0ff97c7aebce82a919afb1c8764",
      "function": "sell(uint256)",
      "arguments": [
        "384174921612658"
      ],
      "transaction": {
        "from": "0xc77f7fed3b5cc8249adc428c5f44c9063b9734b4",
        "to": "0x8aafd3ede9adb0ff97c7aebce82a919afb1c8764",
        "gas": "0x1724d",
        "value": "0x0",
        "input": "0xe4849b3200000000000000000000000000000000000000000000000000015d67b1bbfd72",
        "nonce": "0xe4f",
        "chainId": "0xaa36a7"
      },
      "additionalContracts": [],
      "isFixedGasLimit": false
    }
  ],
  "receipts": [
    {
      "status": "0x1",
      "cumulativeGasUsed": "0xe1f29f",
      "logs": [
        {
          "address": "0x8aafd3ede9adb0ff97c7aebce82a919afb1c8764",
          "topics": [
            "0xddf252ad1be2c89b69c2b068fc378daa952ba7f163c4a11628f55a4df523b3ef",
            "0x000000000000000000000000c77f7fed3b5cc8249adc428c5f44c9063b9734b4",
            "0x0000000000000000000000000000000000000000000000000000000000000000"
          ],
          "data": "0x00000000000000000000000000000000000000000000000000015a9c1cdb410d",
          "blockHash": "0x4864fbb42f4fb2e82377750fedc348ad3a7797c59632bf9f2ce96d01bb3648d6",
          "blockNumber": "0x7313a1",
          "transactionHash": "0xe27eed73adbe73fc2a04d59b4add32b06ab53329e186728c40a1149a2e2c3bda",
          "transactionIndex": "0xbb",
          "logIndex": "0x12b",
          "removed": false
        },
        {
          "address": "0x8aafd3ede9adb0ff97c7aebce82a919afb1c8764",
          "topics": [
            "0xddf252ad1be2c89b69c2b068fc378daa952ba7f163c4a11628f55a4df523b3ef",
            "0x000000000000000000000000c77f7fed3b5cc8249adc428c5f44c9063b9734b4",
            "0x000000000000000000000000c77f7fed3b5cc8249adc428c5f44c9063b9734b4"
          ],
          "data": "0x000000000000000000000000000000000000000000000000000002cb94e0bc65",
          "blockHash": "0x4864fbb42f4fb2e82377750fedc348ad3a7797c59632bf9f2ce96d01bb3648d6",
          "blockNumber": "0x7313a1",
          "transactionHash": "0xe27eed73adbe73fc2a04d59b4add32b06ab53329e186728c40a1149a2e2c3bda",
          "transactionIndex": "0xbb",
          "logIndex": "0x12c",
          "removed": false
        },
        {
          "address": "0x8aafd3ede9adb0ff97c7aebce82a919afb1c8764",
          "topics": [
            "0x4afcb4a87cdbd9974efdb92ee48bc8d7cd0ae4bf217004db3d080cbaee652ca7"
          ],
          "data": "0x00000000000000000000000000000000000000000000000000000000678fe8200000000000000000000000000000000000000000000000000004b40ac35bbf59000000000000000000000000000000000000000000000000000000766a834c39",
          "blockHash": "0x4864fbb42f4fb2e82377750fedc348ad3a7797c59632bf9f2ce96d01bb3648d6",
          "blockNumber": "0x7313a1",
          "transactionHash": "0xe27eed73adbe73fc2a04d59b4add32b06ab53329e186728c40a1149a2e2c3bda",
          "transactionIndex": "0xbb",
          "logIndex": "0x12d",
          "removed": false
        }
      ],
      "logsBloom": "0x00000000000000000000000000000000000000000600000000000000000000000000000000000000000000000000000000000000000000004000000000000000000000000000004000000008000000000000000000000000000000000000000000000000020000000000000000000800020000000000000000000010000000000000000000000000000000000000000000000000000000000000010000000000000000000000000000000000000000004000000000000000000000000000000000000002000000800000000000000000000000000000080000000000000020000000000000000000000000000000000000000000000000000000000000000000",
      "type": "0x2",
      "transactionHash": "0xe27eed73adbe73fc2a04d59b4add32b06ab53329e186728c40a1149a2e2c3bda",
      "transactionIndex": "0xbb",
      "blockHash": "0x4864fbb42f4fb2e82377750fedc348ad3a7797c59632bf9f2ce96d01bb3648d6",
      "blockNumber": "0x7313a1",
      "gasUsed": "0xfd33",
      "effectiveGasPrice": "0x7f71c9b1",
      "from": "0xc77f7fed3b5cc8249adc428c5f44c9063b9734b4",
      "to": "0x8aafd3ede9adb0ff97c7aebce82a919afb1c8764",
      "contractAddress": null
    }
  ],
  "libraries": [],
  "pending": [],
  "returns": {},
  "timestamp": 1737484321,
  "chain": 11155111,
  "commit": "51a374b"
}