{
  "transactions": [
    {
      "hash": "0xc6b2d237ef133106592acd9ae86faa2b1c09ab8794789bc3f6b01c2e93edd01a",
      "transactionType": "CALL",
      "contractName": null,
      "contractAddress": "0xd490b58459e0fdb169569b887f69665b2166bbff",
      "function": "borrow(uint256,uint256)",
      "arguments": [
        "9999999999999990",
        "0"
      ],
      "transaction": {
        "from": "0xc77f7fed3b5cc8249adc428c5f44c9063b9734b4",
        "to": "0xd490b58459e0fdb169569b887f69665b2166bbff",
        "gas": "0x5dbfc",
        "value": "0x0",
        "input": "0x0ecbcdab000000000000000000000000000000000000000000000000002386f26fc0fff60000000000000000000000000000000000000000000000000000000000000000",
        "nonce": "0x192f",
        "chainId": "0xaa36a7"
      },
      "additionalContracts": [],
      "isFixedGasLimit": false
    }
  ],
  "receipts": [
    {
      "status": "0x1",
      "cumulativeGasUsed": "0xe1cb49",
      "logs": [
        {
          "address": "0xd490b58459e0fdb169569b887f69665b2166bbff",
          "topics": [
            "0xddf252ad1be2c89b69c2b068fc378daa952ba7f163c4a11628f55a4df523b3ef",
            "0x000000000000000000000000c77f7fed3b5cc8249adc428c5f44c9063b9734b4",
            "0x000000000000000000000000d490b58459e0fdb169569b887f69665b2166bbff"
          ],
          "data": "0x0000000000000000000000000000000000000000000000008ac7230489e7ffff",
          "blockHash": "0x94081285b6bb71bf13c35f23a1c8b0f323d5268774a6f15a5e3459e4b4337ef3",
          "blockNumber": "0x739b95",
          "transactionHash": "0xc6b2d237ef133106592acd9ae86faa2b1c09ab8794789bc3f6b01c2e93edd01a",
          "transactionIndex": "0x98",
          "logIndex": "0xe5",
          "removed": false
        },
        {
          "address": "0xd490b58459e0fdb169569b887f69665b2166bbff",
          "topics": [
            "0x03bbe564cb1b78e43195eeadbde99e5b89b19345862807fcfb59f884e4165e25"
          ],
          "data": "0x00000000000000000000000038818e389773445cd73adbaa37b8b169f458c6e1000000000000000000000000000000000000000000000000000002ba7def2fff",
          "blockHash": "0x94081285b6bb71bf13c35f23a1c8b0f323d5268774a6f15a5e3459e4b4337ef3",
          "blockNumber": "0x739b95",
          "transactionHash": "0xc6b2d237ef133106592acd9ae86faa2b1c09ab8794789bc3f6b01c2e93edd01a",
          "transactionIndex": "0x98",
          "logIndex": "0xe6",
          "removed": false
        },
        {
          "address": "0xd490b58459e0fdb169569b887f69665b2166bbff",
          "topics": [
            "0x03bbe564cb1b78e43195eeadbde99e5b89b19345862807fcfb59f884e4165e25"
          ],
          "data": "0x000000000000000000000000c77f7fed3b5cc8249adc428c5f44c9063b9734b4000000000000000000000000000000000000000000000000002322e710d41ff7",
          "blockHash": "0x94081285b6bb71bf13c35f23a1c8b0f323d5268774a6f15a5e3459e4b4337ef3",
          "blockNumber": "0x739b95",
          "transactionHash": "0xc6b2d237ef133106592acd9ae86faa2b1c09ab8794789bc3f6b01c2e93edd01a",
          "transactionIndex": "0x98",
          "logIndex": "0xe7",
          "removed": false
        },
        {
          "address": "0xd490b58459e0fdb169569b887f69665b2166bbff",
          "topics": [
            "0xaec00f5213a37254bc68a26b0685d1a5b2bf513e1e587c94c7df7f4a62b56c9c"
          ],
          "data": "0x0000000000000000000000000000000000000000000000008ac7230489e7ffff00000000000000000000000000000000000000000000000000232bff5f46bff600000000000000000000000000000000000000000000000000232bff5f46bff60000000000000000000000000000000000000000000000008ac7230489e7ffff",
          "blockHash": "0x94081285b6bb71bf13c35f23a1c8b0f323d5268774a6f15a5e3459e4b4337ef3",
          "blockNumber": "0x739b95",
          "transactionHash": "0xc6b2d237ef133106592acd9ae86faa2b1c09ab8794789bc3f6b01c2e93edd01a",
          "transactionIndex": "0x98",
          "logIndex": "0xe8",
          "removed": false
        },
        {
          "address": "0xd490b58459e0fdb169569b887f69665b2166bbff",
          "topics": [
            "0x4afcb4a87cdbd9974efdb92ee48bc8d7cd0ae4bf217004db3d080cbaee652ca7"
          ],
          "data": "0x000000000000000000000000000000000000000000000000000000006796811400000000000000000000000000000000000000000000000000038e21a006d7fe000000000000000000000000000000000000000000000000000009184e729fff",
          "blockHash": "0x94081285b6bb71bf13c35f23a1c8b0f323d5268774a6f15a5e3459e4b4337ef3",
          "blockNumber": "0x739b95",
          "transactionHash": "0xc6b2d237ef133106592acd9ae86faa2b1c09ab8794789bc3f6b01c2e93edd01a",
          "transactionIndex": "0x98",
          "logIndex": "0xe9",
          "removed": false
        }
      ],
      "logsBloom": "0x00000000000000000000000000000100400010000000000000000000000000000008000000000000000000000000000010002000000000004000000000000000008000000000000000000008000000000000000000000000000000000000000000000000000000000000000000000000020000000000000000000010000000000000000000000000000000000000000000000000000000000000010000000000000000000000000000000400000000004000000000000000000400001000000000000002000000800000000001000000000008000000080000000000000000000000000000000000000000000000000000000000000000000000000000000000",
      "type": "0x2",
      "transactionHash": "0xc6b2d237ef133106592acd9ae86faa2b1c09ab8794789bc3f6b01c2e93edd01a",
      "transactionIndex": "0x98",
      "blockHash": "0x94081285b6bb71bf13c35f23a1c8b0f323d5268774a6f15a5e3459e4b4337ef3",
      "blockNumber": "0x739b95",
      "gasUsed": "0x401a2",
      "effectiveGasPrice": "0x2103934cc",
      "from": "0xc77f7fed3b5cc8249adc428c5f44c9063b9734b4",
      "to": "0xd490b58459e0fdb169569b887f69665b2166bbff",
      "contractAddress": null
    }
  ],
  "libraries": [],
  "pending": [],
  "returns": {},
  "timestamp": 1737916693,
  "chain": 11155111,
  "commit": "f5162e9"
}