{
  "transactions": [
    {
      "hash": "0x4e7b63ec89edb358482538edab6b444b74ec18ea262509b652507414b75e9da4",
      "transactionType": "CALL",
      "contractName": null,
      "contractAddress": "0x8aafd3ede9adb0ff97c7aebce82a919afb1c8764",
      "function": "sell(uint256)",
      "arguments": [
        "12448"
      ],
      "transaction": {
        "from": "0xc77f7fed3b5cc8249adc428c5f44c9063b9734b4",
        "to": "0x8aafd3ede9adb0ff97c7aebce82a919afb1c8764",
        "gas": "0x14e4c",
        "value": "0x0",
        "input": "0xe4849b3200000000000000000000000000000000000000000000000000000000000030a0",
        "nonce": "0xf6f",
        "chainId": "0xaa36a7"
      },
      "additionalContracts": [],
      "isFixedGasLimit": false
    }
  ],
  "receipts": [
    {
      "status": "0x1",
      "cumulativeGasUsed": "0x110094d",
      "logs": [
        {
          "address": "0x8aafd3ede9adb0ff97c7aebce82a919afb1c8764",
          "topics": [
            "0xddf252ad1be2c89b69c2b068fc378daa952ba7f163c4a11628f55a4df523b3ef",
            "0x000000000000000000000000c77f7fed3b5cc8249adc428c5f44c9063b9734b4",
            "0x0000000000000000000000000000000000000000000000000000000000000000"
          ],
          "data": "0x000000000000000000000000000000000000000000000000000000000000303d",
          "blockHash": "0x8e87eb55fdf7f0bffb50d1d8b5063965bd945f29025bb081bab6fcb18ac4f886",
          "blockNumber": "0x7315cf",
          "transactionHash": "0x4e7b63ec89edb358482538edab6b444b74ec18ea262509b652507414b75e9da4",
          "transactionIndex": "0x94",
          "logIndex": "0x133",
          "removed": false
        },
        {
          "address": "0x8aafd3ede9adb0ff97c7aebce82a919afb1c8764",
          "topics": [
            "0xddf252ad1be2c89b69c2b068fc378daa952ba7f163c4a11628f55a4df523b3ef",
            "0x000000000000000000000000c77f7fed3b5cc8249adc428c5f44c9063b9734b4",
            "0x000000000000000000000000c77f7fed3b5cc8249adc428c5f44c9063b9734b4"
          ],
          "data": "0x0000000000000000000000000000000000000000000000000000000000000063",
          "blockHash": "0x8e87eb55fdf7f0bffb50d1d8b5063965bd945f29025bb081bab6fcb18ac4f886",
          "blockNumber": "0x7315cf",
          "transactionHash": "0x4e7b63ec89edb358482538edab6b444b74ec18ea262509b652507414b75e9da4",
          "transactionIndex": "0x94",
          "logIndex": "0x134",
          "removed": false
        },
        {
          "address": "0x8aafd3ede9adb0ff97c7aebce82a919afb1c8764",
          "topics": [
            "0x4afcb4a87cdbd9974efdb92ee48bc8d7cd0ae4bf217004db3d080cbaee652ca7"
          ],
          "data": "0x00000000000000000000000000000000000000000000000000000000679002600000000000000000000000000000000000000000000000000004c18383c27bc30000000000000000000000000000000000000000000000000000000000000010",
          "blockHash": "0x8e87eb55fdf7f0bffb50d1d8b5063965bd945f29025bb081bab6fcb18ac4f886",
          "blockNumber": "0x7315cf",
          "transactionHash": "0x4e7b63ec89edb358482538edab6b444b74ec18ea262509b652507414b75e9da4",
          "transactionIndex": "0x94",
          "logIndex": "0x135",
          "removed": false
        }
      ],
      "logsBloom": "0x00000000000000000000000000000000000000000600000000000000000000000000000000000000000000000000000000000000000000004000000000000000000000000000004000000008000000000000000000000000000000000000000000000000020000000000000000000800020000000000000000000010000000000000000000000000000000000000000000000000000000000000010000000000000000000000000000000000000000004000000000000000000000000000000000000002000000800000000000000000000000000000080000000000000020000000000000000000000000000000000000000000000000000000000000000000",
      "type": "0x2",
      "transactionHash": "0x4e7b63ec89edb358482538edab6b444b74ec18ea262509b652507414b75e9da4",
      "transactionIndex": "0x94",
      "blockHash": "0x8e87eb55fdf7f0bffb50d1d8b5063965bd945f29025bb081bab6fcb18ac4f886",
      "blockNumber": "0x7315cf",
      "gasUsed": "0xf207",
      "effectiveGasPrice": "0x65db5f21",
      "from": "0xc77f7fed3b5cc8249adc428c5f44c9063b9734b4",
      "to": "0x8aafd3ede9adb0ff97c7aebce82a919afb1c8764",
      "contractAddress": null
    }
  ],
  "libraries": [],
  "pending": [],
  "returns": {},
  "timestamp": 1737491041,
  "chain": 11155111,
  "commit": "1d2fb70"
}