{
  "transactions": [
    {
      "hash": "0x146d4876b2031cff5eb696cc846b01d6d338fb7cbf1dd6fcefbbabfad540d450",
      "transactionType": "CALL",
      "contractName": null,
      "contractAddress": "0x8aafd3ede9adb0ff97c7aebce82a919afb1c8764",
      "function": "buy(address)",
      "arguments": [
        "0xC77f7fed3b5Cc8249aDc428c5F44C9063B9734b4"
      ],
      "transaction": {
        "from": "0xc77f7fed3b5cc8249adc428c5f44c9063b9734b4",
        "to": "0x8aafd3ede9adb0ff97c7aebce82a919afb1c8764",
        "gas": "0x156ea",
        "value": "0xde0b6b3a7640000",
        "input": "0xf088d547000000000000000000000000c77f7fed3b5cc8249adc428c5f44c9063b9734b4",
        "nonce": "0x11c6",
        "chainId": "0xaa36a7"
      },
      "additionalContracts": [],
      "isFixedGasLimit": false
    }
  ],
  "receipts": [
    {
      "status": "0x1",
      "cumulativeGasUsed": "0xdb04c9",
      "logs": [
        {
          "address": "0x8aafd3ede9adb0ff97c7aebce82a919afb1c8764",
          "topics": [
            "0xddf252ad1be2c89b69c2b068fc378daa952ba7f163c4a11628f55a4df523b3ef",
            "0x0000000000000000000000000000000000000000000000000000000000000000",
            "0x000000000000000000000000c77f7fed3b5cc8249adc428c5f44c9063b9734b4"
          ],
          "data": "0x000000000000000000000000000000000000000000000024fc0b90625429f4d0",
          "blockHash": "0x69a3d20aaec393a83e1cb23b704b90785132e43b3cf38c62e85cedcef9b5e931",
          "blockNumber": "0x731898",
          "transactionHash": "0x146d4876b2031cff5eb696cc846b01d6d338fb7cbf1dd6fcefbbabfad540d450",
          "transactionIndex": "0x91",
          "logIndex": "0x97",
          "removed": false
        },
        {
          "address": "0x8aafd3ede9adb0ff97c7aebce82a919afb1c8764",
          "topics": [
            "0xddf252ad1be2c89b69c2b068fc378daa952ba7f163c4a11628f55a4df523b3ef",
            "0x0000000000000000000000000000000000000000000000000000000000000000",
            "0x000000000000000000000000c77f7fed3b5cc8249adc428c5f44c9063b9734b4"
          ],
          "data": "0x0000000000000000000000000000000000000000000000001cb842914ee9126c",
          "blockHash": "0x69a3d20aaec393a83e1cb23b704b90785132e43b3cf38c62e85cedcef9b5e931",
          "blockNumber": "0x731898",
          "transactionHash": "0x146d4876b2031cff5eb696cc846b01d6d338fb7cbf1dd6fcefbbabfad540d450",
          "transactionIndex": "0x91",
          "logIndex": "0x98",
          "removed": false
        },
        {
          "address": "0x8aafd3ede9adb0ff97c7aebce82a919afb1c8764",
          "topics": [
            "0x4afcb4a87cdbd9974efdb92ee48bc8d7cd0ae4bf217004db3d080cbaee652ca7"
          ],
          "data": "0x00000000000000000000000000000000000000000000000000000000679023f00000000000000000000000000000000000000000000000000005282bc3c8d5c80000000000000000000000000000000000000000000000000de0b6b3a7640000",
          "blockHash": "0x69a3d20aaec393a83e1cb23b704b90785132e43b3cf38c62e85cedcef9b5e931",
          "blockNumber": "0x731898",
          "transactionHash": "0x146d4876b2031cff5eb696cc846b01d6d338fb7cbf1dd6fcefbbabfad540d450",
          "transactionIndex": "0x91",
          "logIndex": "0x99",
          "removed": false
        }
      ],
      "logsBloom": "0x00000000000000000000000000000000000000000600000000000000000000000000000000000000000000000000000000000000000000004000000000000000000000000000004000000008000000000000000000000000000000000000000000000000020000000000000000000800020000000000000000000010000000000000000000000000000000000000000000000000000000000000010000000000000000000000000000000000000000004000000000000000000000000000000000000002000000800000000000000000000000000000080000000000000020000000000000000000000000000000000000000000000000000000000000000000",
      "type": "0x2",
      "transactionHash": "0x146d4876b2031cff5eb696cc846b01d6d338fb7cbf1dd6fcefbbabfad540d450",
      "transactionIndex": "0x91",
      "blockHash": "0x69a3d20aaec393a83e1cb23b704b90785132e43b3cf38c62e85cedcef9b5e931",
      "blockNumber": "0x731898",
      "gasUsed": "0xf844",
      "effectiveGasPrice": "0x45896ed5",
      "from": "0xc77f7fed3b5cc8249adc428c5f44c9063b9734b4",
      "to": "0x8aafd3ede9adb0ff97c7aebce82a919afb1c8764",
      "contractAddress": null
    }
  ],
  "libraries": [],
  "pending": [],
  "returns": {},
  "timestamp": 1737499633,
  "chain": 11155111,
  "commit": "1d2fb70"
}