{
  "transactions": [
    {
      "hash": "0xcb2776f01544f95008a1346eb940c15334794192e512611aec7574cec0ae1022",
      "transactionType": "CALL",
      "contractName": null,
      "contractAddress": "0x8aafd3ede9adb0ff97c7aebce82a919afb1c8764",
      "function": "sell(uint256)",
      "arguments": [
        "747501797329512252272"
      ],
      "transaction": {
        "from": "0xc77f7fed3b5cc8249adc428c5f44c9063b9734b4",
        "to": "0x8aafd3ede9adb0ff97c7aebce82a919afb1c8764",
        "gas": "0x17270",
        "value": "0x0",
        "input": "0xe4849b3200000000000000000000000000000000000000000000002885abdc3ca79d4370",
        "nonce": "0xeba",
        "chainId": "0xaa36a7"
      },
      "additionalContracts": [],
      "isFixedGasLimit": false
    }
  ],
  "receipts": [
    {
      "status": "0x1",
      "cumulativeGasUsed": "0x153422c",
      "logs": [
        {
          "address": "0x8aafd3ede9adb0ff97c7aebce82a919afb1c8764",
          "topics": [
            "0xddf252ad1be2c89b69c2b068fc378daa952ba7f163c4a11628f55a4df523b3ef",
            "0x000000000000000000000000c77f7fed3b5cc8249adc428c5f44c9063b9734b4",
            "0x0000000000000000000000000000000000000000000000000000000000000000"
          ],
          "data": "0x00000000000000000000000000000000000000000000002832ae94d7d148098e",
          "blockHash": "0x436424a14cff5a56ae9f939e6a448744790e0f519553ef0b2777f3c47050a75f",
          "blockNumber": "0x73141d",
          "transactionHash": "0xcb2776f01544f95008a1346eb940c15334794192e512611aec7574cec0ae1022",
          "transactionIndex": "0xb8",
          "logIndex": "0x11b",
          "removed": false
        },
        {
          "address": "0x8aafd3ede9adb0ff97c7aebce82a919afb1c8764",
          "topics": [
            "0xddf252ad1be2c89b69c2b068fc378daa952ba7f163c4a11628f55a4df523b3ef",
            "0x000000000000000000000000c77f7fed3b5cc8249adc428c5f44c9063b9734b4",
            "0x000000000000000000000000c77f7fed3b5cc8249adc428c5f44c9063b9734b4"
          ],
          "data": "0x00000000000000000000000000000000000000000000000052fd4764d65539e2",
          "blockHash": "0x436424a14cff5a56ae9f939e6a448744790e0f519553ef0b2777f3c47050a75f",
          "blockNumber": "0x73141d",
          "transactionHash": "0xcb2776f01544f95008a1346eb940c15334794192e512611aec7574cec0ae1022",
          "transactionIndex": "0xb8",
          "logIndex": "0x11c",
          "removed": false
        },
        {
          "address": "0x8aafd3ede9adb0ff97c7aebce82a919afb1c8764",
          "topics": [
            "0x4afcb4a87cdbd9974efdb92ee48bc8d7cd0ae4bf217004db3d080cbaee652ca7"
          ],
          "data": "0x00000000000000000000000000000000000000000000000000000000678fee080000000000000000000000000000000000000000000000000004b89cc63599400000000000000000000000000000000000000000000000000dc8349a86989de2",
          "blockHash": "0x436424a14cff5a56ae9f939e6a448744790e0f519553ef0b2777f3c47050a75f",
          "blockNumber": "0x73141d",
          "transactionHash": "0xcb2776f01544f95008a1346eb940c15334794192e512611aec7574cec0ae1022",
          "transactionIndex": "0xb8",
          "logIndex": "0x11d",
          "removed": false
        }
      ],
      "logsBloom": "0x00000000000000000000000000000000000000000600000000000000000000000000000000000000000000000000000000000000000000004000000000000000000000000000004000000008000000000000000000000000000000000000000000000000020000000000000000000800020000000000000000000010000000000000000000000000000000000000000000000000000000000000010000000000000000000000000000000000000000004000000000000000000000000000000000000002000000800000000000000000000000000000080000000000000020000000000000000000000000000000000000000000000000000000000000000000",
      "type": "0x2",
      "transactionHash": "0xcb2776f01544f95008a1346eb940c15334794192e512611aec7574cec0ae1022",
      "transactionIndex": "0xb8",
      "blockHash": "0x436424a14cff5a56ae9f939e6a448744790e0f519553ef0b2777f3c47050a75f",
      "blockNumber": "0x73141d",
      "gasUsed": "0xfd4b",
      "effectiveGasPrice": "0xb105cc0a",
      "from": "0xc77f7fed3b5cc8249adc428c5f44c9063b9734b4",
      "to": "0x8aafd3ede9adb0ff97c7aebce82a919afb1c8764",
      "contractAddress": null
    }
  ],
  "libraries": [],
  "pending": [],
  "returns": {},
  "timestamp": 1737485834,
  "chain": 11155111,
  "commit": "51a374b"
}