{
  "transactions": [
    {
      "hash": "0x802b9c7c3a5ee9c18b32d9aca9083df2112d602b156c8c93575d265b2d4e324a",
      "transactionType": "CALL",
      "contractName": null,
      "contractAddress": "0x8aafd3ede9adb0ff97c7aebce82a919afb1c8764",
      "function": "sell(uint256)",
      "arguments": [
        "5680848213440494944"
      ],
      "transaction": {
        "from": "0xc77f7fed3b5cc8249adc428c5f44c9063b9734b4",
        "to": "0x8aafd3ede9adb0ff97c7aebce82a919afb1c8764",
        "gas": "0x15dca",
        "value": "0x0",
        "input": "0xe4849b320000000000000000000000000000000000000000000000004ed66d5a09087d60",
        "nonce": "0x107e",
        "chainId": "0xaa36a7"
      },
      "additionalContracts": [],
      "isFixedGasLimit": false
    }
  ],
  "receipts": [
    {
      "status": "0x1",
      "cumulativeGasUsed": "0xa58983",
      "logs": [
        {
          "address": "0x8aafd3ede9adb0ff97c7aebce82a919afb1c8764",
          "topics": [
            "0xddf252ad1be2c89b69c2b068fc378daa952ba7f163c4a11628f55a4df523b3ef",
            "0x000000000000000000000000c77f7fed3b5cc8249adc428c5f44c9063b9734b4",
            "0x0000000000000000000000000000000000000000000000000000000000000000"
          ],
          "data": "0x0000000000000000000000000000000000000000000000004e34f7bdaac0bde9",
          "blockHash": "0xedaed0d9a53215681a2437902cab5da80df7c8bc358e9352e065ceb80bd43096",
          "blockNumber": "0x731708",
          "transactionHash": "0x802b9c7c3a5ee9c18b32d9aca9083df2112d602b156c8c93575d265b2d4e324a",
          "transactionIndex": "0x7f",
          "logIndex": "0x81",
          "removed": false
        },
        {
          "address": "0x8aafd3ede9adb0ff97c7aebce82a919afb1c8764",
          "topics": [
            "0xddf252ad1be2c89b69c2b068fc378daa952ba7f163c4a11628f55a4df523b3ef",
            "0x000000000000000000000000c77f7fed3b5cc8249adc428c5f44c9063b9734b4",
            "0x000000000000000000000000c77f7fed3b5cc8249adc428c5f44c9063b9734b4"
          ],
          "data": "0x00000000000000000000000000000000000000000000000000a1759c5e47bf77",
          "blockHash": "0xedaed0d9a53215681a2437902cab5da80df7c8bc358e9352e065ceb80bd43096",
          "blockNumber": "0x731708",
          "transactionHash": "0x802b9c7c3a5ee9c18b32d9aca9083df2112d602b156c8c93575d265b2d4e324a",
          "transactionIndex": "0x7f",
          "logIndex": "0x82",
          "removed": false
        },
        {
          "address": "0x8aafd3ede9adb0ff97c7aebce82a919afb1c8764",
          "topics": [
            "0x4afcb4a87cdbd9974efdb92ee48bc8d7cd0ae4bf217004db3d080cbaee652ca7"
          ],
          "data": "0x00000000000000000000000000000000000000000000000000000000679011180000000000000000000000000000000000000000000000000004f9471835e57b000000000000000000000000000000000000000000000000001c414016a810c5",
          "blockHash": "0xedaed0d9a53215681a2437902cab5da80df7c8bc358e9352e065ceb80bd43096",
          "blockNumber": "0x731708",
          "transactionHash": "0x802b9c7c3a5ee9c18b32d9aca9083df2112d602b156c8c93575d265b2d4e324a",
          "transactionIndex": "0x7f",
          "logIndex": "0x83",
          "removed": false
        }
      ],
      "logsBloom": "0x00000000000000000000000000000000000000000600000000000000000000000000000000000000000000000000000000000000000000004000000000000000000000000000004000000008000000000000000000000000000000000000000000000000020000000000000000000800020000000000000000000010000000000000000000000000000000000000000000000000000000000000010000000000000000000000000000000000000000004000000000000000000000000000000000000002000000800000000000000000000000000000080000000000000020000000000000000000000000000000000000000000000000000000000000000000",
      "type": "0x2",
      "transactionHash": "0x802b9c7c3a5ee9c18b32d9aca9083df2112d602b156c8c93575d265b2d4e324a",
      "transactionIndex": "0x7f",
      "blockHash": "0xedaed0d9a53215681a2437902cab5da80df7c8bc358e9352e065ceb80bd43096",
      "blockNumber": "0x731708",
      "gasUsed": "0xfd3f",
      "effectiveGasPrice": "0x4a9d4e48",
      "from": "0xc77f7fed3b5cc8249adc428c5f44c9063b9734b4",
      "to": "0x8aafd3ede9adb0ff97c7aebce82a919afb1c8764",
      "contractAddress": null
    }
  ],
  "libraries": [],
  "pending": [],
  "returns": {},
  "timestamp": 1737494809,
  "chain": 11155111,
  "commit": "1d2fb70"
}