{
  "transactions": [
    {
      "hash": "0x10994396ac9652b50f3ffc97c77d207e004aca2bec8656e878f45cabfd26a4a5",
      "transactionType": "CALL",
      "contractName": null,
      "contractAddress": "0x8aafd3ede9adb0ff97c7aebce82a919afb1c8764",
      "function": "sell(uint256)",
      "arguments": [
        "7241333015"
      ],
      "transaction": {
        "from": "0xc77f7fed3b5cc8249adc428c5f44c9063b9734b4",
        "to": "0x8aafd3ede9adb0ff97c7aebce82a919afb1c8764",
        "gas": "0x1722a",
        "value": "0x0",
        "input": "0xe4849b3200000000000000000000000000000000000000000000000000000001af9df917",
        "nonce": "0x14aa",
        "chainId": "0xaa36a7"
      },
      "additionalContracts": [],
      "isFixedGasLimit": false
    }
  ],
  "receipts": [
    {
      "status": "0x1",
      "cumulativeGasUsed": "0xe63795",
      "logs": [
        {
          "address": "0x8aafd3ede9adb0ff97c7aebce82a919afb1c8764",
          "topics": [
            "0xddf252ad1be2c89b69c2b068fc378daa952ba7f163c4a11628f55a4df523b3ef",
            "0x000000000000000000000000c77f7fed3b5cc8249adc428c5f44c9063b9734b4",
            "0x0000000000000000000000000000000000000000000000000000000000000000"
          ],
          "data": "0x00000000000000000000000000000000000000000000000000000001ac2a056f",
          "blockHash": "0xd8a624eadbd59d1585d4f9c546cf195bef918814dee8d184c5b7affa3f5a5715",
          "blockNumber": "0x731c00",
          "transactionHash": "0x10994396ac9652b50f3ffc97c77d207e004aca2bec8656e878f45cabfd26a4a5",
          "transactionIndex": "0x84",
          "logIndex": "0x104",
          "removed": false
        },
        {
          "address": "0x8aafd3ede9adb0ff97c7aebce82a919afb1c8764",
          "topics": [
            "0xddf252ad1be2c89b69c2b068fc378daa952ba7f163c4a11628f55a4df523b3ef",
            "0x000000000000000000000000c77f7fed3b5cc8249adc428c5f44c9063b9734b4",
            "0x000000000000000000000000c77f7fed3b5cc8249adc428c5f44c9063b9734b4"
          ],
          "data": "0x000000000000000000000000000000000000000000000000000000000373f3a8",
          "blockHash": "0xd8a624eadbd59d1585d4f9c546cf195bef918814dee8d184c5b7affa3f5a5715",
          "blockNumber": "0x731c00",
          "transactionHash": "0x10994396ac9652b50f3ffc97c77d207e004aca2bec8656e878f45cabfd26a4a5",
          "transactionIndex": "0x84",
          "logIndex": "0x105",
          "removed": false
        },
        {
          "address": "0x8aafd3ede9adb0ff97c7aebce82a919afb1c8764",
          "topics": [
            "0x4afcb4a87cdbd9974efdb92ee48bc8d7cd0ae4bf217004db3d080cbaee652ca7"
          ],
          "data": "0x0000000000000000000000000000000000000000000000000000000067904cdc0000000000000000000000000000000000000000000000000010113ed13ba5f70000000000000000000000000000000000000000000000000000000001f3b73b",
          "blockHash": "0xd8a624eadbd59d1585d4f9c546cf195bef918814dee8d184c5b7affa3f5a5715",
          "blockNumber": "0x731c00",
          "transactionHash": "0x10994396ac9652b50f3ffc97c77d207e004aca2bec8656e878f45cabfd26a4a5",
          "transactionIndex": "0x84",
          "logIndex": "0x106",
          "removed": false
        }
      ],
      "logsBloom": "0x00000000000000000000000000000000000000000600000000000000000000000000000000000000000000000000000000000000000000004000000000000000000000000000004000000008000000000000000000000000000000000000000000000000020000000000000000000800020000000000000000000010000000000000000000000000000000000000000000000000000000000000010000000000000000000000000000000000000000004000000000000000000000000000000000000002000000800000000000000000000000000000080000000000000020000000000000000000000000000000000000000000000000000000000000000000",
      "type": "0x2",
      "transactionHash": "0x10994396ac9652b50f3ffc97c77d207e004aca2bec8656e878f45cabfd26a4a5",
      "transactionIndex": "0x84",
      "blockHash": "0xd8a624eadbd59d1585d4f9c546cf195bef918814dee8d184c5b7affa3f5a5715",
      "blockNumber": "0x731c00",
      "gasUsed": "0xfd1b",
      "effectiveGasPrice": "0xfc91572b",
      "from": "0xc77f7fed3b5cc8249adc428c5f44c9063b9734b4",
      "to": "0x8aafd3ede9adb0ff97c7aebce82a919afb1c8764",
      "contractAddress": null
    }
  ],
  "libraries": [],
  "pending": [],
  "returns": {},
  "timestamp": 1737510108,
  "chain": 11155111,
  "commit": "1d2fb70"
}