{
  "transactions": [
    {
      "hash": "0x7e5c1497f77d34815191f5dabc9b76b03ae154aaf290c067e94fa82dd8d2fb54",
      "transactionType": "CALL",
      "contractName": null,
      "contractAddress": "0x270e88f8683660553e8ba4eb2ad7c91a1710d769",
      "function": "sell(uint256)",
      "arguments": [
        "715377016307864381594"
      ],
      "transaction": {
        "from": "0xc77f7fed3b5cc8249adc428c5f44c9063b9734b4",
        "to": "0x270e88f8683660553e8ba4eb2ad7c91a1710d769",
        "gas": "0x16fec",
        "value": "0x0",
        "input": "0xe4849b32000000000000000000000000000000000000000000000026c7d9b61a2515289a",
        "nonce": "0x85a",
        "chainId": "0xaa36a7"
      },
      "additionalContracts": [],
      "isFixedGasLimit": false
    }
  ],
  "receipts": [
    {
      "status": "0x1",
      "cumulativeGasUsed": "0x1bfd846",
      "logs": [
        {
          "address": "0x270e88f8683660553e8ba4eb2ad7c91a1710d769",
          "topics": [
            "0xddf252ad1be2c89b69c2b068fc378daa952ba7f163c4a11628f55a4df523b3ef",
            "0x000000000000000000000000c77f7fed3b5cc8249adc428c5f44c9063b9734b4",
            "0x0000000000000000000000000000000000000000000000000000000000000000"
          ],
          "data": "0x000000000000000000000000000000000000000000000026c7d9b61a2515289a",
          "blockHash": "0x6522d727d1d0f9e6df1902eb7e4a805f4960c19c9220bfcd2e325ff4cd1547bf",
          "blockNumber": "0x7255ae",
          "transactionHash": "0x7e5c1497f77d34815191f5dabc9b76b03ae154aaf290c067e94fa82dd8d2fb54",
          "transactionIndex": "0x57",
          "logIndex": "0x1a5",
          "removed": false
        },
        {
          "address": "0x270e88f8683660553e8ba4eb2ad7c91a1710d769",
          "topics": [
            "0x4afcb4a87cdbd9974efdb92ee48bc8d7cd0ae4bf217004db3d080cbaee652ca7"
          ],
          "data": "0x000000000000000000000000000000000000000000000000000000006786f6300000000000000000000000000000000000000000000000000004eebf5e3be6ab0000000000000000000000000000000000000000000000000dc825f356da36e1",
          "blockHash": "0x6522d727d1d0f9e6df1902eb7e4a805f4960c19c9220bfcd2e325ff4cd1547bf",
          "blockNumber": "0x7255ae",
          "transactionHash": "0x7e5c1497f77d34815191f5dabc9b76b03ae154aaf290c067e94fa82dd8d2fb54",
          "transactionIndex": "0x57",
          "logIndex": "0x1a6",
          "removed": false
        }
      ],
      "logsBloom": "0x00000000000000000000000000000000000000000000000000000000000000000000000000000000000000000000000020000000000000004000000000000000000000000000000000000008000000000000000000000000000000000000000000000000020000000000000000000800020000000000000000000010000000000000000000010000000000000000000000000000000000000000010000000000000000000000000000000000000000004000000000000000000000000000000000000002000000800000000000000000000000000000080000008000000020000000000000000000000000000000000000000000000000000000000000000000",
      "type": "0x2",
      "transactionHash": "0x7e5c1497f77d34815191f5dabc9b76b03ae154aaf290c067e94fa82dd8d2fb54",
      "transactionIndex": "0x57",
      "blockHash": "0x6522d727d1d0f9e6df1902eb7e4a805f4960c19c9220bfcd2e325ff4cd1547bf",
      "blockNumber": "0x7255ae",
      "gasUsed": "0xfb93",
      "effectiveGasPrice": "0x634279ca",
      "from": "0xc77f7fed3b5cc8249adc428c5f44c9063b9734b4",
      "to": "0x270e88f8683660553e8ba4eb2ad7c91a1710d769",
      "contractAddress": null
    }
  ],
  "libraries": [],
  "pending": [],
  "returns": {},
  "timestamp": 1736898098,
  "chain": 11155111,
  "commit": "51a374b"
}