{
  "transactions": [
    {
      "hash": "0xf9017e686010318a74580769c6716124d8d2560215c36ceccedcc808871f6142",
      "transactionType": "CALL",
      "contractName": null,
      "contractAddress": "0x8aafd3ede9adb0ff97c7aebce82a919afb1c8764",
      "function": "sell(uint256)",
      "arguments": [
        "394242"
      ],
      "transaction": {
        "from": "0xc77f7fed3b5cc8249adc428c5f44c9063b9734b4",
        "to": "0x8aafd3ede9adb0ff97c7aebce82a919afb1c8764",
        "gas": "0x16208",
        "value": "0x0",
        "input": "0xe4849b320000000000000000000000000000000000000000000000000000000000060402",
        "nonce": "0x159f",
        "chainId": "0xaa36a7"
      },
      "additionalContracts": [],
      "isFixedGasLimit": false
    }
  ],
  "receipts": [
    {
      "status": "0x1",
      "cumulativeGasUsed": "0x17e56b8",
      "logs": [
        {
          "address": "0x8aafd3ede9adb0ff97c7aebce82a919afb1c8764",
          "topics": [
            "0xddf252ad1be2c89b69c2b068fc378daa952ba7f163c4a11628f55a4df523b3ef",
            "0x000000000000000000000000c77f7fed3b5cc8249adc428c5f44c9063b9734b4",
            "0x0000000000000000000000000000000000000000000000000000000000000000"
          ],
          "data": "0x000000000000000000000000000000000000000000000000000000000005f7b1",
          "blockHash": "0x2ec7a0d604bc0542fef9297af8ea382410ad338c1d5ae4bf0ab4699e54804d2e",
          "blockNumber": "0x731d12",
          "transactionHash": "0xf9017e686010318a74580769c6716124d8d2560215c36ceccedcc808871f6142",
          "transactionIndex": "0xd2",
          "logIndex": "0x13f",
          "removed": false
        },
        {
          "address": "0x8aafd3ede9adb0ff97c7aebce82a919afb1c8764",
          "topics": [
            "0xddf252ad1be2c89b69c2b068fc378daa952ba7f163c4a11628f55a4df523b3ef",
            "0x000000000000000000000000c77f7fed3b5cc8249adc428c5f44c9063b9734b4",
            "0x000000000000000000000000c77f7fed3b5cc8249adc428c5f44c9063b9734b4"
          ],
          "data": "0x0000000000000000000000000000000000000000000000000000000000000c51",
          "blockHash": "0x2ec7a0d604bc0542fef9297af8ea382410ad338c1d5ae4bf0ab4699e54804d2e",
          "blockNumber": "0x731d12",
          "transactionHash": "0xf9017e686010318a74580769c6716124d8d2560215c36ceccedcc808871f6142",
          "transactionIndex": "0xd2",
          "logIndex": "0x140",
          "removed": false
        },
        {
          "address": "0x8aafd3ede9adb0ff97c7aebce82a919afb1c8764",
          "topics": [
            "0x4afcb4a87cdbd9974efdb92ee48bc8d7cd0ae4bf217004db3d080cbaee652ca7"
          ],
          "data": "0x00000000000000000000000000000000000000000000000000000000679059c00000000000000000000000000000000000000000000000000012ded63b4a35a8000000000000000000000000000000000000000000000000000000000000082e",
          "blockHash": "0x2ec7a0d604bc0542fef9297af8ea382410ad338c1d5ae4bf0ab4699e54804d2e",
          "blockNumber": "0x731d12",
          "transactionHash": "0xf9017e686010318a74580769c6716124d8d2560215c36ceccedcc808871f6142",
          "transactionIndex": "0xd2",
          "logIndex": "0x141",
          "removed": false
        }
      ],
      "logsBloom": "0x00000000000000000000000000000000000000000600000000000000000000000000000000000000000000000000000000000000000000004000000000000000000000000000004000000008000000000000000000000000000000000000000000000000020000000000000000000800020000000000000000000010000000000000000000000000000000000000000000000000000000000000010000000000000000000000000000000000000000004000000000000000000000000000000000000002000000800000000000000000000000000000080000000000000020000000000000000000000000000000000000000000000000000000000000000000",
      "type": "0x2",
      "transactionHash": "0xf9017e686010318a74580769c6716124d8d2560215c36ceccedcc808871f6142",
      "transactionIndex": "0xd2",
      "blockHash": "0x2ec7a0d604bc0542fef9297af8ea382410ad338c1d5ae4bf0ab4699e54804d2e",
      "blockNumber": "0x731d12",
      "gasUsed": "0xf213",
      "effectiveGasPrice": "0x4e5dddc1",
      "from": "0xc77f7fed3b5cc8249adc428c5f44c9063b9734b4",
      "to": "0x8aafd3ede9adb0ff97c7aebce82a919afb1c8764",
      "contractAddress": null
    }
  ],
  "libraries": [],
  "pending": [],
  "returns": {},
  "timestamp": 1737513409,
  "chain": 11155111,
  "commit": "1d2fb70"
}