{
  "transactions": [
    {
      "hash": "0xfa1ba51df2f12c6d5453c77d591af1f373d06bb25b1e34e7336b5f717441da54",
      "transactionType": "CALL",
      "contractName": null,
      "contractAddress": "0x8aafd3ede9adb0ff97c7aebce82a919afb1c8764",
      "function": "sell(uint256)",
      "arguments": [
        "5635798913193616690"
      ],
      "transaction": {
        "from": "0xc77f7fed3b5cc8249adc428c5f44c9063b9734b4",
        "to": "0x8aafd3ede9adb0ff97c7aebce82a919afb1c8764",
        "gas": "0x15dca",
        "value": "0x0",
        "input": "0xe4849b320000000000000000000000000000000000000000000000004e36614076702532",
        "nonce": "0x10c4",
        "chainId": "0xaa36a7"
      },
      "additionalContracts": [],
      "isFixedGasLimit": false
    }
  ],
  "receipts": [
    {
      "status": "0x1",
      "cumulativeGasUsed": "0x151cf6c",
      "logs": [
        {
          "address": "0x8aafd3ede9adb0ff97c7aebce82a919afb1c8764",
          "topics": [
            "0xddf252ad1be2c89b69c2b068fc378daa952ba7f163c4a11628f55a4df523b3ef",
            "0x000000000000000000000000c77f7fed3b5cc8249adc428c5f44c9063b9734b4",
            "0x0000000000000000000000000000000000000000000000000000000000000000"
          ],
          "data": "0x0000000000000000000000000000000000000000000000004d96336af47770ad",
          "blockHash": "0xa9ef50a1bdd3e2316107a4e3445b358f2735e3da1bda852078f57a531dfa9c05",
          "blockNumber": "0x73175f",
          "transactionHash": "0xfa1ba51df2f12c6d5453c77d591af1f373d06bb25b1e34e7336b5f717441da54",
          "transactionIndex": "0xd2",
          "logIndex": "0x145",
          "removed": false
        },
        {
          "address": "0x8aafd3ede9adb0ff97c7aebce82a919afb1c8764",
          "topics": [
            "0xddf252ad1be2c89b69c2b068fc378daa952ba7f163c4a11628f55a4df523b3ef",
            "0x000000000000000000000000c77f7fed3b5cc8249adc428c5f44c9063b9734b4",
            "0x000000000000000000000000c77f7fed3b5cc8249adc428c5f44c9063b9734b4"
          ],
          "data": "0x00000000000000000000000000000000000000000000000000a02dd581f8b485",
          "blockHash": "0xa9ef50a1bdd3e2316107a4e3445b358f2735e3da1bda852078f57a531dfa9c05",
          "blockNumber": "0x73175f",
          "transactionHash": "0xfa1ba51df2f12c6d5453c77d591af1f373d06bb25b1e34e7336b5f717441da54",
          "transactionIndex": "0xd2",
          "logIndex": "0x146",
          "removed": false
        },
        {
          "address": "0x8aafd3ede9adb0ff97c7aebce82a919afb1c8764",
          "topics": [
            "0x4afcb4a87cdbd9974efdb92ee48bc8d7cd0ae4bf217004db3d080cbaee652ca7"
          ],
          "data": "0x000000000000000000000000000000000000000000000000000000006790153800000000000000000000000000000000000000000000000000050371b044bc42000000000000000000000000000000000000000000000000001c412fa6bf9c29",
          "blockHash": "0xa9ef50a1bdd3e2316107a4e3445b358f2735e3da1bda852078f57a531dfa9c05",
          "blockNumber": "0x73175f",
          "transactionHash": "0xfa1ba51df2f12c6d5453c77d591af1f373d06bb25b1e34e7336b5f717441da54",
          "transactionIndex": "0xd2",
          "logIndex": "0x147",
          "removed": false
        }
      ],
      "logsBloom": "0x00000000000000000000000000000000000000000600000000000000000000000000000000000000000000000000000000000000000000004000000000000000000000000000004000000008000000000000000000000000000000000000000000000000020000000000000000000800020000000000000000000010000000000000000000000000000000000000000000000000000000000000010000000000000000000000000000000000000000004000000000000000000000000000000000000002000000800000000000000000000000000000080000000000000020000000000000000000000000000000000000000000000000000000000000000000",
      "type": "0x2",
      "transactionHash": "0xfa1ba51df2f12c6d5453c77d591af1f373d06bb25b1e34e7336b5f717441da54",
      "transactionIndex": "0xd2",
      "blockHash": "0xa9ef50a1bdd3e2316107a4e3445b358f2735e3da1bda852078f57a531dfa9c05",
      "blockNumber": "0x73175f",
      "gasUsed": "0xfd3f",
      "effectiveGasPrice": "0x310fd54e",
      "from": "0xc77f7fed3b5cc8249adc428c5f44c9063b9734b4",
      "to": "0x8aafd3ede9adb0ff97c7aebce82a919afb1c8764",
      "contractAddress": null
    }
  ],
  "libraries": [],
  "pending": [],
  "returns": {},
  "timestamp": 1737495865,
  "chain": 11155111,
  "commit": "1d2fb70"
}