{
  "transactions": [
    {
      "hash": "0xb0b20f1494fec96cfba3d7de4bc92b0af3331ccac366f4c3dd0222a796e4874c",
      "transactionType": "CALL",
      "contractName": null,
      "contractAddress": "0x8aafd3ede9adb0ff97c7aebce82a919afb1c8764",
      "function": "sell(uint256)",
      "arguments": [
        "79049160885803"
      ],
      "transaction": {
        "from": "0xc77f7fed3b5cc8249adc428c5f44c9063b9734b4",
        "to": "0x8aafd3ede9adb0ff97c7aebce82a919afb1c8764",
        "gas": "0x15daa",
        "value": "0x0",
        "input": "0xe4849b32000000000000000000000000000000000000000000000000000047e51127862b",
        "nonce": "0x16fa",
        "chainId": "0xaa36a7"
      },
      "additionalContracts": [],
      "isFixedGasLimit": false
    }
  ],
  "receipts": [
    {
      "status": "0x1",
      "cumulativeGasUsed": "0xfc88ef",
      "logs": [
        {
          "address": "0x8aafd3ede9adb0ff97c7aebce82a919afb1c8764",
          "topics": [
            "0xddf252ad1be2c89b69c2b068fc378daa952ba7f163c4a11628f55a4df523b3ef",
            "0x000000000000000000000000c77f7fed3b5cc8249adc428c5f44c9063b9734b4",
            "0x0000000000000000000000000000000000000000000000000000000000000000"
          ],
          "data": "0x00000000000000000000000000000000000000000000000000004751d393c07d",
          "blockHash": "0x582ae268b5603a536cd330fb153a7c1d668a4798632f092da3f69c24176eb4f7",
          "blockNumber": "0x731ebe",
          "transactionHash": "0xb0b20f1494fec96cfba3d7de4bc92b0af3331ccac366f4c3dd0222a796e4874c",
          "transactionIndex": "0x85",
          "logIndex": "0x108",
          "removed": false
        },
        {
          "address": "0x8aafd3ede9adb0ff97c7aebce82a919afb1c8764",
          "topics": [
            "0xddf252ad1be2c89b69c2b068fc378daa952ba7f163c4a11628f55a4df523b3ef",
            "0x000000000000000000000000c77f7fed3b5cc8249adc428c5f44c9063b9734b4",
            "0x000000000000000000000000c77f7fed3b5cc8249adc428c5f44c9063b9734b4"
          ],
          "data": "0x000000000000000000000000000000000000000000000000000000933d93c5ae",
          "blockHash": "0x582ae268b5603a536cd330fb153a7c1d668a4798632f092da3f69c24176eb4f7",
          "blockNumber": "0x731ebe",
          "transactionHash": "0xb0b20f1494fec96cfba3d7de4bc92b0af3331ccac366f4c3dd0222a796e4874c",
          "transactionIndex": "0x85",
          "logIndex": "0x109",
          "removed": false
        },
        {
          "address": "0x8aafd3ede9adb0ff97c7aebce82a919afb1c8764",
          "topics": [
            "0x4afcb4a87cdbd9974efdb92ee48bc8d7cd0ae4bf217004db3d080cbaee652ca7"
          ],
          "data": "0x0000000000000000000000000000000000000000000000000000000067906dd00000000000000000000000000000000000000000000000000016f47c9fa759ff00000000000000000000000000000000000000000000000000000076eb86cea6",
          "blockHash": "0x582ae268b5603a536cd330fb153a7c1d668a4798632f092da3f69c24176eb4f7",
          "blockNumber": "0x731ebe",
          "transactionHash": "0xb0b20f1494fec96cfba3d7de4bc92b0af3331ccac366f4c3dd0222a796e4874c",
          "transactionIndex": "0x85",
          "logIndex": "0x10a",
          "removed": false
        }
      ],
      "logsBloom": "0x00000000000000000000000000000000000000000600000000000000000000000000000000000000000000000000000000000000000000004000000000000000000000000000004000000008000000000000000000000000000000000000000000000000020000000000000000000800020000000000000000000010000000000000000000000000000000000000000000000000000000000000010000000000000000000000000000000000000000004000000000000000000000000000000000000002000000800000000000000000000000000000080000000000000020000000000000000000000000000000000000000000000000000000000000000000",
      "type": "0x2",
      "transactionHash": "0xb0b20f1494fec96cfba3d7de4bc92b0af3331ccac366f4c3dd0222a796e4874c",
      "transactionIndex": "0x85",
      "blockHash": "0x582ae268b5603a536cd330fb153a7c1d668a4798632f092da3f69c24176eb4f7",
      "blockNumber": "0x731ebe",
      "gasUsed": "0xfd27",
      "effectiveGasPrice": "0x44ad8a8a",
      "from": "0xc77f7fed3b5cc8249adc428c5f44c9063b9734b4",
      "to": "0x8aafd3ede9adb0ff97c7aebce82a919afb1c8764",
      "contractAddress": null
    }
  ],
  "libraries": [],
  "pending": [],
  "returns": {},
  "timestamp": 1737518545,
  "chain": 11155111,
  "commit": "1d2fb70"
}