{
  "transactions": [
    {
      "hash": "0x187d9eea9cd656866d929944ff9eeceb148fe4772a91e37d606b6ca74def472a",
      "transactionType": "CALL",
      "contractName": null,
      "contractAddress": "0x8aafd3ede9adb0ff97c7aebce82a919afb1c8764",
      "function": "sell(uint256)",
      "arguments": [
        "2772426489911"
      ],
      "transaction": {
        "from": "0xc77f7fed3b5cc8249adc428c5f44c9063b9734b4",
        "to": "0x8aafd3ede9adb0ff97c7aebce82a919afb1c8764",
        "gas": "0x1722a",
        "value": "0x0",
        "input": "0xe4849b3200000000000000000000000000000000000000000000000000000285817f0037",
        "nonce": "0x122f",
        "chainId": "0xaa36a7"
      },
      "additionalContracts": [],
      "isFixedGasLimit": false
    }
  ],
  "receipts": [
    {
      "status": "0x1",
      "cumulativeGasUsed": "0x73ca19",
      "logs": [
        {
          "address": "0x8aafd3ede9adb0ff97c7aebce82a919afb1c8764",
          "topics": [
            "0xddf252ad1be2c89b69c2b068fc378daa952ba7f163c4a11628f55a4df523b3ef",
            "0x000000000000000000000000c77f7fed3b5cc8249adc428c5f44c9063b9734b4",
            "0x0000000000000000000000000000000000000000000000000000000000000000"
          ],
          "data": "0x0000000000000000000000000000000000000000000000000000028057800868",
          "blockHash": "0x2fc285bde00ef54d93270fa02345bab79e154b9bc13c2d12d363f13e5e6f1c7d",
          "blockNumber": "0x73190d",
          "transactionHash": "0x187d9eea9cd656866d929944ff9eeceb148fe4772a91e37d606b6ca74def472a",
          "transactionIndex": "0x5c",
          "logIndex": "0x7d",
          "removed": false
        },
        {
          "address": "0x8aafd3ede9adb0ff97c7aebce82a919afb1c8764",
          "topics": [
            "0xddf252ad1be2c89b69c2b068fc378daa952ba7f163c4a11628f55a4df523b3ef",
            "0x000000000000000000000000c77f7fed3b5cc8249adc428c5f44c9063b9734b4",
            "0x000000000000000000000000c77f7fed3b5cc8249adc428c5f44c9063b9734b4"
          ],
          "data": "0x0000000000000000000000000000000000000000000000000000000529fef7cf",
          "blockHash": "0x2fc285bde00ef54d93270fa02345bab79e154b9bc13c2d12d363f13e5e6f1c7d",
          "blockNumber": "0x73190d",
          "transactionHash": "0x187d9eea9cd656866d929944ff9eeceb148fe4772a91e37d606b6ca74def472a",
          "transactionIndex": "0x5c",
          "logIndex": "0x7e",
          "removed": false
        },
        {
          "address": "0x8aafd3ede9adb0ff97c7aebce82a919afb1c8764",
          "topics": [
            "0x4afcb4a87cdbd9974efdb92ee48bc8d7cd0ae4bf217004db3d080cbaee652ca7"
          ],
          "data": "0x000000000000000000000000000000000000000000000000000000006790296c000000000000000000000000000000000000000000000000000537be91236b0c00000000000000000000000000000000000000000000000000000000f2b2473a",
          "blockHash": "0x2fc285bde00ef54d93270fa02345bab79e154b9bc13c2d12d363f13e5e6f1c7d",
          "blockNumber": "0x73190d",
          "transactionHash": "0x187d9eea9cd656866d929944ff9eeceb148fe4772a91e37d606b6ca74def472a",
          "transactionIndex": "0x5c",
          "logIndex": "0x7f",
          "removed": false
        }
      ],
      "logsBloom": "0x00000000000000000000000000000000000000000600000000000000000000000000000000000000000000000000000000000000000000004000000000000000000000000000004000000008000000000000000000000000000000000000000000000000020000000000000000000800020000000000000000000010000000000000000000000000000000000000000000000000000000000000010000000000000000000000000000000000000000004000000000000000000000000000000000000002000000800000000000000000000000000000080000000000000020000000000000000000000000000000000000000000000000000000000000000000",
      "type": "0x2",
      "transactionHash": "0x187d9eea9cd656866d929944ff9eeceb148fe4772a91e37d606b6ca74def472a",
      "transactionIndex": "0x5c",
      "blockHash": "0x2fc285bde00ef54d93270fa02345bab79e154b9bc13c2d12d363f13e5e6f1c7d",
      "blockNumber": "0x73190d",
      "gasUsed": "0xfd1b",
      "effectiveGasPrice": "0x5b196cd6",
      "from": "0xc77f7fed3b5cc8249adc428c5f44c9063b9734b4",
      "to": "0x8aafd3ede9adb0ff97c7aebce82a919afb1c8764",
      "contractAddress": null
    }
  ],
  "libraries": [],
  "pending": [],
  "returns": {},
  "timestamp": 1737501037,
  "chain": 11155111,
  "commit": "1d2fb70"
}