{
  "transactions": [
    {
      "hash": "0x852d67bd0593b05b05e4286ec81d4241896a2cecc6227d616032d0df4435b5d5",
      "transactionType": "CALL",
      "contractName": null,
      "contractAddress": "0x8aafd3ede9adb0ff97c7aebce82a919afb1c8764",
      "function": "sell(uint256)",
      "arguments": [
        "47972160437366326"
      ],
      "transaction": {
        "from": "0xc77f7fed3b5cc8249adc428c5f44c9063b9734b4",
        "to": "0x8aafd3ede9adb0ff97c7aebce82a919afb1c8764",
        "gas": "0x1724d",
        "value": "0x0",
        "input": "0xe4849b3200000000000000000000000000000000000000000000000000aa6e6cfdfa2e36",
        "nonce": "0xe6c",
        "chainId": "0xaa36a7"
      },
      "additionalContracts": [],
      "isFixedGasLimit": false
    }
  ],
  "receipts": [
    {
      "status": "0x1",
      "cumulativeGasUsed": "0x13c3a85",
      "logs": [
        {
          "address": "0x8aafd3ede9adb0ff97c7aebce82a919afb1c8764",
          "topics": [
            "0xddf252ad1be2c89b69c2b068fc378daa952ba7f163c4a11628f55a4df523b3ef",
            "0x000000000000000000000000c77f7fed3b5cc8249adc428c5f44c9063b9734b4",
            "0x0000000000000000000000000000000000000000000000000000000000000000"
          ],
          "data": "0x00000000000000000000000000000000000000000000000000a91161e1524a84",
          "blockHash": "0x5cf0044c351a7d53bdb889c23f1edde1446a6383199de8aa16431eec47a8ebac",
          "blockNumber": "0x7313c3",
          "transactionHash": "0x852d67bd0593b05b05e4286ec81d4241896a2cecc6227d616032d0df4435b5d5",
          "transactionIndex": "0xdc",
          "logIndex": "0x143",
          "removed": false
        },
        {
          "address": "0x8aafd3ede9adb0ff97c7aebce82a919afb1c8764",
          "topics": [
            "0xddf252ad1be2c89b69c2b068fc378daa952ba7f163c4a11628f55a4df523b3ef",
            "0x000000000000000000000000c77f7fed3b5cc8249adc428c5f44c9063b9734b4",
            "0x000000000000000000000000c77f7fed3b5cc8249adc428c5f44c9063b9734b4"
          ],
          "data": "0x00000000000000000000000000000000000000000000000000015d0b1ca7e3b2",
          "blockHash": "0x5cf0044c351a7d53bdb889c23f1edde1446a6383199de8aa16431eec47a8ebac",
          "blockNumber": "0x7313c3",
          "transactionHash": "0x852d67bd0593b05b05e4286ec81d4241896a2cecc6227d616032d0df4435b5d5",
          "transactionIndex": "0xdc",
          "logIndex": "0x144",
          "removed": false
        },
        {
          "address": "0x8aafd3ede9adb0ff97c7aebce82a919afb1c8764",
          "topics": [
            "0x4afcb4a87cdbd9974efdb92ee48bc8d7cd0ae4bf217004db3d080cbaee652ca7"
          ],
          "data": "0x00000000000000000000000000000000000000000000000000000000678fe9b80000000000000000000000000000000000000000000000000004b54a053fad43000000000000000000000000000000000000000000000000000039d200b3dc36",
          "blockHash": "0x5cf0044c351a7d53bdb889c23f1edde1446a6383199de8aa16431eec47a8ebac",
          "blockNumber": "0x7313c3",
          "transactionHash": "0x852d67bd0593b05b05e4286ec81d4241896a2cecc6227d616032d0df4435b5d5",
          "transactionIndex": "0xdc",
          "logIndex": "0x145",
          "removed": false
        }
      ],
      "logsBloom": "0x00000000000000000000000000000000000000000600000000000000000000000000000000000000000000000000000000000000000000004000000000000000000000000000004000000008000000000000000000000000000000000000000000000000020000000000000000000800020000000000000000000010000000000000000000000000000000000000000000000000000000000000010000000000000000000000000000000000000000004000000000000000000000000000000000000002000000800000000000000000000000000000080000000000000020000000000000000000000000000000000000000000000000000000000000000000",
      "type": "0x2",
      "transactionHash": "0x852d67bd0593b05b05e4286ec81d4241896a2cecc6227d616032d0df4435b5d5",
      "transactionIndex": "0xdc",
      "blockHash": "0x5cf0044c351a7d53bdb889c23f1edde1446a6383199de8aa16431eec47a8ebac",
      "blockNumber": "0x7313c3",
      "gasUsed": "0xfd33",
      "effectiveGasPrice": "0x6b9dea5d",
      "from": "0xc77f7fed3b5cc8249adc428c5f44c9063b9734b4",
      "to": "0x8aafd3ede9adb0ff97c7aebce82a919afb1c8764",
      "contractAddress": null
    }
  ],
  "libraries": [],
  "pending": [],
  "returns": {},
  "timestamp": 1737484729,
  "chain": 11155111,
  "commit": "51a374b"
}