{
  "transactions": [
    {
      "hash": "0xdbf633c292e34ff292058cfacbce160b9bc0d79fd0536060e80f8ee6593ac8e1",
      "transactionType": "CALL",
      "contractName": null,
      "contractAddress": "0x8aafd3ede9adb0ff97c7aebce82a919afb1c8764",
      "function": "sell(uint256)",
      "arguments": [
        "47790784836764398"
      ],
      "transaction": {
        "from": "0xc77f7fed3b5cc8249adc428c5f44c9063b9734b4",
        "to": "0x8aafd3ede9adb0ff97c7aebce82a919afb1c8764",
        "gas": "0x1724d",
        "value": "0x0",
        "input": "0xe4849b3200000000000000000000000000000000000000000000000000a9c97731bb82ee",
        "nonce": "0xeda",
        "chainId": "0xaa36a7"
      },
      "additionalContracts": [],
      "isFixedGasLimit": false
    }
  ],
  "receipts": [
    {
      "status": "0x1",
      "cumulativeGasUsed": "0xc5e9c5",
      "logs": [
        {
          "address": "0x8aafd3ede9adb0ff97c7aebce82a919afb1c8764",
          "topics": [
            "0xddf252ad1be2c89b69c2b068fc378daa952ba7f163c4a11628f55a4df523b3ef",
            "0x000000000000000000000000c77f7fed3b5cc8249adc428c5f44c9063b9734b4",
            "0x0000000000000000000000000000000000000000000000000000000000000000"
          ],
          "data": "0x00000000000000000000000000000000000000000000000000a86dbdebb3de0b",
          "blockHash": "0xf5914d4c4826e9baa126193e6864fc20a0475884e45f7d5fddfa6b72ccd294a2",
          "blockNumber": "0x73144f",
          "transactionHash": "0xdbf633c292e34ff292058cfacbce160b9bc0d79fd0536060e80f8ee6593ac8e1",
          "transactionIndex": "0x82",
          "logIndex": "0xe7",
          "removed": false
        },
        {
          "address": "0x8aafd3ede9adb0ff97c7aebce82a919afb1c8764",
          "topics": [
            "0xddf252ad1be2c89b69c2b068fc378daa952ba7f163c4a11628f55a4df523b3ef",
            "0x000000000000000000000000c77f7fed3b5cc8249adc428c5f44c9063b9734b4",
            "0x000000000000000000000000c77f7fed3b5cc8249adc428c5f44c9063b9734b4"
          ],
          "data": "0x00000000000000000000000000000000000000000000000000015bb94607a4e3",
          "blockHash": "0xf5914d4c4826e9baa126193e6864fc20a0475884e45f7d5fddfa6b72ccd294a2",
          "blockNumber": "0x73144f",
          "transactionHash": "0xdbf633c292e34ff292058cfacbce160b9bc0d79fd0536060e80f8ee6593ac8e1",
          "transactionIndex": "0x82",
          "logIndex": "0xe8",
          "removed": false
        },
        {
          "address": "0x8aafd3ede9adb0ff97c7aebce82a919afb1c8764",
          "topics": [
            "0x4afcb4a87cdbd9974efdb92ee48bc8d7cd0ae4bf217004db3d080cbaee652ca7"
          ],
          "data": "0x00000000000000000000000000000000000000000000000000000000678ff0600000000000000000000000000000000000000000000000000004b9dca47fa259000000000000000000000000000000000000000000000000000039d1fbc818e2",
          "blockHash": "0xf5914d4c4826e9baa126193e6864fc20a0475884e45f7d5fddfa6b72ccd294a2",
          "blockNumber": "0x73144f",
          "transactionHash": "0xdbf633c292e34ff292058cfacbce160b9bc0d79fd0536060e80f8ee6593ac8e1",
          "transactionIndex": "0x82",
          "logIndex": "0xe9",
          "removed": false
        }
      ],
      "logsBloom": "0x00000000000000000000000000000000000000000600000000000000000000000000000000000000000000000000000000000000000000004000000000000000000000000000004000000008000000000000000000000000000000000000000000000000020000000000000000000800020000000000000000000010000000000000000000000000000000000000000000000000000000000000010000000000000000000000000000000000000000004000000000000000000000000000000000000002000000800000000000000000000000000000080000000000000020000000000000000000000000000000000000000000000000000000000000000000",
      "type": "0x2",
      "transactionHash": "0xdbf633c292e34ff292058cfacbce160b9bc0d79fd0536060e80f8ee6593ac8e1",
      "transactionIndex": "0x82",
      "blockHash": "0xf5914d4c4826e9baa126193e6864fc20a0475884e45f7d5fddfa6b72ccd294a2",
      "blockNumber": "0x73144f",
      "gasUsed": "0xfd33",
      "effectiveGasPrice": "0x962b8b61",
      "from": "0xc77f7fed3b5cc8249adc428c5f44c9063b9734b4",
      "to": "0x8aafd3ede9adb0ff97c7aebce82a919afb1c8764",
      "contractAddress": null
    }
  ],
  "libraries": [],
  "pending": [],
  "returns": {},
  "timestamp": 1737486433,
  "chain": 11155111,
  "commit": "51a374b"
}