{
  "transactions": [
    {
      "hash": "0x63acae7acabb26dd53f4dde772709c3c34487d34f4e4e76c0c86833ffb34bbfe",
      "transactionType": "CALL",
      "contractName": null,
      "contractAddress": "0x8aafd3ede9adb0ff97c7aebce82a919afb1c8764",
      "function": "sell(uint256)",
      "arguments": [
        "185514526"
      ],
      "transaction": {
        "from": "0xc77f7fed3b5cc8249adc428c5f44c9063b9734b4",
        "to": "0x8aafd3ede9adb0ff97c7aebce82a919afb1c8764",
        "gas": "0x15d88",
        "value": "0x0",
        "input": "0xe4849b32000000000000000000000000000000000000000000000000000000000b0eba1e",
        "nonce": "0x10a1",
        "chainId": "0xaa36a7"
      },
      "additionalContracts": [],
      "isFixedGasLimit": false
    }
  ],
  "receipts": [
    {
      "status": "0x1",
      "cumulativeGasUsed": "0xa3cd2b",
      "logs": [
        {
          "address": "0x8aafd3ede9adb0ff97c7aebce82a919afb1c8764",
          "topics": [
            "0xddf252ad1be2c89b69c2b068fc378daa952ba7f163c4a11628f55a4df523b3ef",
            "0x000000000000000000000000c77f7fed3b5cc8249adc428c5f44c9063b9734b4",
            "0x0000000000000000000000000000000000000000000000000000000000000000"
          ],
          "data": "0x000000000000000000000000000000000000000000000000000000000af814ca",
          "blockHash": "0xad86b265801d95557e63f5f247d437695bbcb4cb940a8e320e448db7b4b69ce3",
          "blockNumber": "0x731732",
          "transactionHash": "0x63acae7acabb26dd53f4dde772709c3c34487d34f4e4e76c0c86833ffb34bbfe",
          "transactionIndex": "0x70",
          "logIndex": "0x9f",
          "removed": false
        },
        {
          "address": "0x8aafd3ede9adb0ff97c7aebce82a919afb1c8764",
          "topics": [
            "0xddf252ad1be2c89b69c2b068fc378daa952ba7f163c4a11628f55a4df523b3ef",
            "0x000000000000000000000000c77f7fed3b5cc8249adc428c5f44c9063b9734b4",
            "0x000000000000000000000000c77f7fed3b5cc8249adc428c5f44c9063b9734b4"
          ],
          "data": "0x000000000000000000000000000000000000000000000000000000000016a554",
          "blockHash": "0xad86b265801d95557e63f5f247d437695bbcb4cb940a8e320e448db7b4b69ce3",
          "blockNumber": "0x731732",
          "transactionHash": "0x63acae7acabb26dd53f4dde772709c3c34487d34f4e4e76c0c86833ffb34bbfe",
          "transactionIndex": "0x70",
          "logIndex": "0xa0",
          "removed": false
        },
        {
          "address": "0x8aafd3ede9adb0ff97c7aebce82a919afb1c8764",
          "topics": [
            "0x4afcb4a87cdbd9974efdb92ee48bc8d7cd0ae4bf217004db3d080cbaee652ca7"
          ],
          "data": "0x000000000000000000000000000000000000000000000000000000006790131c0000000000000000000000000000000000000000000000000004fda279f9b339000000000000000000000000000000000000000000000000000000000003f9fe",
          "blockHash": "0xad86b265801d95557e63f5f247d437695bbcb4cb940a8e320e448db7b4b69ce3",
          "blockNumber": "0x731732",
          "transactionHash": "0x63acae7acabb26dd53f4dde772709c3c34487d34f4e4e76c0c86833ffb34bbfe",
          "transactionIndex": "0x70",
          "logIndex": "0xa1",
          "removed": false
        }
      ],
      "logsBloom": "0x00000000000000000000000000000000000000000600000000000000000000000000000000000000000000000000000000000000000000004000000000000000000000000000004000000008000000000000000000000000000000000000000000000000020000000000000000000800020000000000000000000010000000000000000000000000000000000000000000000000000000000000010000000000000000000000000000000000000000004000000000000000000000000000000000000002000000800000000000000000000000000000080000000000000020000000000000000000000000000000000000000000000000000000000000000000",
      "type": "0x2",
      "transactionHash": "0x63acae7acabb26dd53f4dde772709c3c34487d34f4e4e76c0c86833ffb34bbfe",
      "transactionIndex": "0x70",
      "blockHash": "0xad86b265801d95557e63f5f247d437695bbcb4cb940a8e320e448db7b4b69ce3",
      "blockNumber": "0x731732",
      "gasUsed": "0xfd0f",
      "effectiveGasPrice": "0x43000ce9",
      "from": "0xc77f7fed3b5cc8249adc428c5f44c9063b9734b4",
      "to": "0x8aafd3ede9adb0ff97c7aebce82a919afb1c8764",
      "contractAddress": null
    }
  ],
  "libraries": [],
  "pending": [],
  "returns": {},
  "timestamp": 1737495327,
  "chain": 11155111,
  "commit": "1d2fb70"
}