{
  "transactions": [
    {
      "hash": "0x308f822d1ae66c15f008992fda4e530901ea70556a8b72c4e01e54905d901c35",
      "transactionType": "CALL",
      "contractName": null,
      "contractAddress": "0x8aafd3ede9adb0ff97c7aebce82a919afb1c8764",
      "function": "sell(uint256)",
      "arguments": [
        "1756532152321256838"
      ],
      "transaction": {
        "from": "0xc77f7fed3b5cc8249adc428c5f44c9063b9734b4",
        "to": "0x8aafd3ede9adb0ff97c7aebce82a919afb1c8764",
        "gas": "0x15dca",
        "value": "0x0",
        "input": "0xe4849b32000000000000000000000000000000000000000000000000186074af9fa92d86",
        "nonce": "0x14af",
        "chainId": "0xaa36a7"
      },
      "additionalContracts": [],
      "isFixedGasLimit": false
    }
  ],
  "receipts": [
    {
      "status": "0x1",
      "cumulativeGasUsed": "0xd77586",
      "logs": [
        {
          "address": "0x8aafd3ede9adb0ff97c7aebce82a919afb1c8764",
          "topics": [
            "0xddf252ad1be2c89b69c2b068fc378daa952ba7f163c4a11628f55a4df523b3ef",
            "0x000000000000000000000000c77f7fed3b5cc8249adc428c5f44c9063b9734b4",
            "0x0000000000000000000000000000000000000000000000000000000000000000"
          ],
          "data": "0x000000000000000000000000000000000000000000000000182e883b87db0640",
          "blockHash": "0xb098fa65922f8b37b8b034e141a9aa34194a3c170890f394568a4084757e6340",
          "blockNumber": "0x731c05",
          "transactionHash": "0x308f822d1ae66c15f008992fda4e530901ea70556a8b72c4e01e54905d901c35",
          "transactionIndex": "0x7c",
          "logIndex": "0x9f",
          "removed": false
        },
        {
          "address": "0x8aafd3ede9adb0ff97c7aebce82a919afb1c8764",
          "topics": [
            "0xddf252ad1be2c89b69c2b068fc378daa952ba7f163c4a11628f55a4df523b3ef",
            "0x000000000000000000000000c77f7fed3b5cc8249adc428c5f44c9063b9734b4",
            "0x000000000000000000000000c77f7fed3b5cc8249adc428c5f44c9063b9734b4"
          ],
          "data": "0x0000000000000000000000000000000000000000000000000031ec7417ce2746",
          "blockHash": "0xb098fa65922f8b37b8b034e141a9aa34194a3c170890f394568a4084757e6340",
          "blockNumber": "0x731c05",
          "transactionHash": "0x308f822d1ae66c15f008992fda4e530901ea70556a8b72c4e01e54905d901c35",
          "transactionIndex": "0x7c",
          "logIndex": "0xa0",
          "removed": false
        },
        {
          "address": "0x8aafd3ede9adb0ff97c7aebce82a919afb1c8764",
          "topics": [
            "0x4afcb4a87cdbd9974efdb92ee48bc8d7cd0ae4bf217004db3d080cbaee652ca7"
          ],
          "data": "0x0000000000000000000000000000000000000000000000000000000067904d1800000000000000000000000000000000000000000000000000102bb5dd9b5a36000000000000000000000000000000000000000000000000001c6740c739e9e5",
          "blockHash": "0xb098fa65922f8b37b8b034e141a9aa34194a3c170890f394568a4084757e6340",
          "blockNumber": "0x731c05",
          "transactionHash": "0x308f822d1ae66c15f008992fda4e530901ea70556a8b72c4e01e54905d901c35",
          "transactionIndex": "0x7c",
          "logIndex": "0xa1",
          "removed": false
        }
      ],
      "logsBloom": "0x00000000000000000000000000000000000000000600000000000000000000000000000000000000000000000000000000000000000000004000000000000000000000000000004000000008000000000000000000000000000000000000000000000000020000000000000000000800020000000000000000000010000000000000000000000000000000000000000000000000000000000000010000000000000000000000000000000000000000004000000000000000000000000000000000000002000000800000000000000000000000000000080000000000000020000000000000000000000000000000000000000000000000000000000000000000",
      "type": "0x2",
      "transactionHash": "0x308f822d1ae66c15f008992fda4e530901ea70556a8b72c4e01e54905d901c35",
      "transactionIndex": "0x7c",
      "blockHash": "0xb098fa65922f8b37b8b034e141a9aa34194a3c170890f394568a4084757e6340",
      "blockNumber": "0x731c05",
      "gasUsed": "0xfd3f",
      "effectiveGasPrice": "0x116056ddf",
      "from": "0xc77f7fed3b5cc8249adc428c5f44c9063b9734b4",
      "to": "0x8aafd3ede9adb0ff97c7aebce82a919afb1c8764",
      "contractAddress": null
    }
  ],
  "libraries": [],
  "pending": [],
  "returns": {},
  "timestamp": 1737510171,
  "chain": 11155111,
  "commit": "1d2fb70"
}