{
  "transactions": [
    {
      "hash": "0x25e8be6e09545c2f955795c614b0b3349d3f3e025427140fc1a442938384bd87",
      "transactionType": "CALL",
      "contractName": null,
      "contractAddress": "0x8aafd3ede9adb0ff97c7aebce82a919afb1c8764",
      "function": "sell(uint256)",
      "arguments": [
        "498893"
      ],
      "transaction": {
        "from": "0xc77f7fed3b5cc8249adc428c5f44c9063b9734b4",
        "to": "0x8aafd3ede9adb0ff97c7aebce82a919afb1c8764",
        "gas": "0x17207",
        "value": "0x0",
        "input": "0xe4849b320000000000000000000000000000000000000000000000000000000000079ccd",
        "nonce": "0x1449",
        "chainId": "0xaa36a7"
      },
      "additionalContracts": [],
      "isFixedGasLimit": false
    }
  ],
  "receipts": [
    {
      "status": "0x1",
      "cumulativeGasUsed": "0xa8581e",
      "logs": [
        {
          "address": "0x8aafd3ede9adb0ff97c7aebce82a919afb1c8764",
          "topics": [
            "0xddf252ad1be2c89b69c2b068fc378daa952ba7f163c4a11628f55a4df523b3ef",
            "0x000000000000000000000000c77f7fed3b5cc8249adc428c5f44c9063b9734b4",
            "0x0000000000000000000000000000000000000000000000000000000000000000"
          ],
          "data": "0x0000000000000000000000000000000000000000000000000000000000078d36",
          "blockHash": "0xa7417deca0f486bddc4181d3c3c808a2e373909a94ca90dbef41a918d0cf6c43",
          "blockNumber": "0x731b8d",
          "transactionHash": "0x25e8be6e09545c2f955795c614b0b3349d3f3e025427140fc1a442938384bd87",
          "transactionIndex": "0x6d",
          "logIndex": "0x8e",
          "removed": false
        },
        {
          "address": "0x8aafd3ede9adb0ff97c7aebce82a919afb1c8764",
          "topics": [
            "0xddf252ad1be2c89b69c2b068fc378daa952ba7f163c4a11628f55a4df523b3ef",
            "0x000000000000000000000000c77f7fed3b5cc8249adc428c5f44c9063b9734b4",
            "0x000000000000000000000000c77f7fed3b5cc8249adc428c5f44c9063b9734b4"
          ],
          "data": "0x0000000000000000000000000000000000000000000000000000000000000f97",
          "blockHash": "0xa7417deca0f486bddc4181d3c3c808a2e373909a94ca90dbef41a918d0cf6c43",
          "blockNumber": "0x731b8d",
          "transactionHash": "0x25e8be6e09545c2f955795c614b0b3349d3f3e025427140fc1a442938384bd87",
          "transactionIndex": "0x6d",
          "logIndex": "0x8f",
          "removed": false
        },
        {
          "address": "0x8aafd3ede9adb0ff97c7aebce82a919afb1c8764",
          "topics": [
            "0x4afcb4a87cdbd9974efdb92ee48bc8d7cd0ae4bf217004db3d080cbaee652ca7"
          ],
          "data": "0x0000000000000000000000000000000000000000000000000000000067904778000000000000000000000000000000000000000000000000000eeec08b647aed0000000000000000000000000000000000000000000000000000000000000830",
          "blockHash": "0xa7417deca0f486bddc4181d3c3c808a2e373909a94ca90dbef41a918d0cf6c43",
          "blockNumber": "0x731b8d",
          "transactionHash": "0x25e8be6e09545c2f955795c614b0b3349d3f3e025427140fc1a442938384bd87",
          "transactionIndex": "0x6d",
          "logIndex": "0x90",
          "removed": false
        }
      ],
      "logsBloom": "0x00000000000000000000000000000000000000000600000000000000000000000000000000000000000000000000000000000000000000004000000000000000000000000000004000000008000000000000000000000000000000000000000000000000020000000000000000000800020000000000000000000010000000000000000000000000000000000000000000000000000000000000010000000000000000000000000000000000000000004000000000000000000000000000000000000002000000800000000000000000000000000000080000000000000020000000000000000000000000000000000000000000000000000000000000000000",
      "type": "0x2",
      "transactionHash": "0x25e8be6e09545c2f955795c614b0b3349d3f3e025427140fc1a442938384bd87",
      "transactionIndex": "0x6d",
      "blockHash": "0xa7417deca0f486bddc4181d3c3c808a2e373909a94ca90dbef41a918d0cf6c43",
      "blockNumber": "0x731b8d",
      "gasUsed": "0xfd03",
      "effectiveGasPrice": "0x120716652",
      "from": "0xc77f7fed3b5cc8249adc428c5f44c9063b9734b4",
      "to": "0x8aafd3ede9adb0ff97c7aebce82a919afb1c8764",
      "contractAddress": null
    }
  ],
  "libraries": [],
  "pending": [],
  "returns": {},
  "timestamp": 1737508730,
  "chain": 11155111,
  "commit": "1d2fb70"
}