{
  "transactions": [
    {
      "hash": "0x0e47b9578ac2c8425e4d2ddadeb0f94e6ed443e32e56877e74306853164ad0c1",
      "transactionType": "CALL",
      "contractName": null,
      "contractAddress": "0x270e88f8683660553e8ba4eb2ad7c91a1710d769",
      "function": "sell(uint256)",
      "arguments": [
        "731677217643563685465"
      ],
      "transaction": {
        "from": "0xc77f7fed3b5cc8249adc428c5f44c9063b9734b4",
        "to": "0x270e88f8683660553e8ba4eb2ad7c91a1710d769",
        "gas": "0x16fec",
        "value": "0x0",
        "input": "0xe4849b32000000000000000000000000000000000000000000000027aa0fa8dad2c99659",
        "nonce": "0x79a",
        "chainId": "0xaa36a7"
      },
      "additionalContracts": [],
      "isFixedGasLimit": false
    }
  ],
  "receipts": [
    {
      "status": "0x1",
      "cumulativeGasUsed": "0x79e03b",
      "logs": [
        {
          "address": "0x270e88f8683660553e8ba4eb2ad7c91a1710d769",
          "topics": [
            "0xddf252ad1be2c89b69c2b068fc378daa952ba7f163c4a11628f55a4df523b3ef",
            "0x000000000000000000000000c77f7fed3b5cc8249adc428c5f44c9063b9734b4",
            "0x0000000000000000000000000000000000000000000000000000000000000000"
          ],
          "data": "0x000000000000000000000000000000000000000000000027aa0fa8dad2c99659",
          "blockHash": "0x5de16e4f5e49b8c567822e05ec4ed23a034d0b20610fdb231bb0289ca0ea43a0",
          "blockNumber": "0x7254cd",
          "transactionHash": "0x0e47b9578ac2c8425e4d2ddadeb0f94e6ed443e32e56877e74306853164ad0c1",
          "transactionIndex": "0x43",
          "logIndex": "0x66",
          "removed": false
        },
        {
          "address": "0x270e88f8683660553e8ba4eb2ad7c91a1710d769",
          "topics": [
            "0x4afcb4a87cdbd9974efdb92ee48bc8d7cd0ae4bf217004db3d080cbaee652ca7"
          ],
          "data": "0x000000000000000000000000000000000000000000000000000000006786eba40000000000000000000000000000000000000000000000000004d29f6a998d860000000000000000000000000000000000000000000000000dc827a36fe4df4c",
          "blockHash": "0x5de16e4f5e49b8c567822e05ec4ed23a034d0b20610fdb231bb0289ca0ea43a0",
          "blockNumber": "0x7254cd",
          "transactionHash": "0x0e47b9578ac2c8425e4d2ddadeb0f94e6ed443e32e56877e74306853164ad0c1",
          "transactionIndex": "0x43",
          "logIndex": "0x67",
          "removed": false
        }
      ],
      "logsBloom": "0x00000000000000000000000000000000000000000000000000000000000000000000000000000000000000000000000020000000000000004000000000000000000000000000000000000008000000000000000000000000000000000000000000000000020000000000000000000800020000000000000000000010000000000000000000010000000000000000000000000000000000000000010000000000000000000000000000000000000000004000000000000000000000000000000000000002000000800000000000000000000000000000080000008000000020000000000000000000000000000000000000000000000000000000000000000000",
      "type": "0x2",
      "transactionHash": "0x0e47b9578ac2c8425e4d2ddadeb0f94e6ed443e32e56877e74306853164ad0c1",
      "transactionIndex": "0x43",
      "blockHash": "0x5de16e4f5e49b8c567822e05ec4ed23a034d0b20610fdb231bb0289ca0ea43a0",
      "blockNumber": "0x7254cd",
      "gasUsed": "0xfb93",
      "effectiveGasPrice": "0xee033117",
      "from": "0xc77f7fed3b5cc8249adc428c5f44c9063b9734b4",
      "to": "0x270e88f8683660553e8ba4eb2ad7c91a1710d769",
      "contractAddress": null
    }
  ],
  "libraries": [],
  "pending": [],
  "returns": {},
  "timestamp": 1736895397,
  "chain": 11155111,
  "commit": "51a374b"
}