{
  "transactions": [
    {
      "hash": "0x37eaa8c3be76cfa5b186c8816e0cd4373c116d0695ae8cc809132091af36dcfc",
      "transactionType": "CALL",
      "contractName": null,
      "contractAddress": "0x8aafd3ede9adb0ff97c7aebce82a919afb1c8764",
      "function": "sell(uint256)",
      "arguments": [
        "1424135"
      ],
      "transaction": {
        "from": "0xc77f7fed3b5cc8249adc428c5f44c9063b9734b4",
        "to": "0x8aafd3ede9adb0ff97c7aebce82a919afb1c8764",
        "gas": "0x16208",
        "value": "0x0",
        "input": "0xe4849b32000000000000000000000000000000000000000000000000000000000015bb07",
        "nonce": "0x1214",
        "chainId": "0xaa36a7"
      },
      "additionalContracts": [],
      "isFixedGasLimit": false
    }
  ],
  "receipts": [
    {
      "status": "0x1",
      "cumulativeGasUsed": "0x92f8f5",
      "logs": [
        {
          "address": "0x8aafd3ede9adb0ff97c7aebce82a919afb1c8764",
          "topics": [
            "0xddf252ad1be2c89b69c2b068fc378daa952ba7f163c4a11628f55a4df523b3ef",
            "0x000000000000000000000000c77f7fed3b5cc8249adc428c5f44c9063b9734b4",
            "0x0000000000000000000000000000000000000000000000000000000000000000"
          ],
          "data": "0x0000000000000000000000000000000000000000000000000000000000158e86",
          "blockHash": "0x83319e30c8a4a07bd360f486bd6a9e63767f65ef184b9968032060777bf564e9",
          "blockNumber": "0x7318ef",
          "transactionHash": "0x37eaa8c3be76cfa5b186c8816e0cd4373c116d0695ae8cc809132091af36dcfc",
          "transactionIndex": "0x72",
          "logIndex": "0x74",
          "removed": false
        },
        {
          "address": "0x8aafd3ede9adb0ff97c7aebce82a919afb1c8764",
          "topics": [
            "0xddf252ad1be2c89b69c2b068fc378daa952ba7f163c4a11628f55a4df523b3ef",
            "0x000000000000000000000000c77f7fed3b5cc8249adc428c5f44c9063b9734b4",
            "0x000000000000000000000000c77f7fed3b5cc8249adc428c5f44c9063b9734b4"
          ],
          "data": "0x0000000000000000000000000000000000000000000000000000000000002c81",
          "blockHash": "0x83319e30c8a4a07bd360f486bd6a9e63767f65ef184b9968032060777bf564e9",
          "blockNumber": "0x7318ef",
          "transactionHash": "0x37eaa8c3be76cfa5b186c8816e0cd4373c116d0695ae8cc809132091af36dcfc",
          "transactionIndex": "0x72",
          "logIndex": "0x75",
          "removed": false
        },
        {
          "address": "0x8aafd3ede9adb0ff97c7aebce82a919afb1c8764",
          "topics": [
            "0x4afcb4a87cdbd9974efdb92ee48bc8d7cd0ae4bf217004db3d080cbaee652ca7"
          ],
          "data": "0x00000000000000000000000000000000000000000000000000000000679028040000000000000000000000000000000000000000000000000005336292f700010000000000000000000000000000000000000000000000000000000000000824",
          "blockHash": "0x83319e30c8a4a07bd360f486bd6a9e63767f65ef184b9968032060777bf564e9",
          "blockNumber": "0x7318ef",
          "transactionHash": "0x37eaa8c3be76cfa5b186c8816e0cd4373c116d0695ae8cc809132091af36dcfc",
          "transactionIndex": "0x72",
          "logIndex": "0x76",
          "removed": false
        }
      ],
      "logsBloom": "0x00000000000000000000000000000000000000000600000000000000000000000000000000000000000000000000000000000000000000004000000000000000000000000000004000000008000000000000000000000000000000000000000000000000020000000000000000000800020000000000000000000010000000000000000000000000000000000000000000000000000000000000010000000000000000000000000000000000000000004000000000000000000000000000000000000002000000800000000000000000000000000000080000000000000020000000000000000000000000000000000000000000000000000000000000000000",
      "type": "0x2",
      "transactionHash": "0x37eaa8c3be76cfa5b186c8816e0cd4373c116d0695ae8cc809132091af36dcfc",
      "transactionIndex": "0x72",
      "blockHash": "0x83319e30c8a4a07bd360f486bd6a9e63767f65ef184b9968032060777bf564e9",
      "blockNumber": "0x7318ef",
      "gasUsed": "0xf213",
      "effectiveGasPrice": "0x48bfe8c6",
      "from": "0xc77f7fed3b5cc8249adc428c5f44c9063b9734b4",
      "to": "0x8aafd3ede9adb0ff97c7aebce82a919afb1c8764",
      "contractAddress": null
    }
  ],
  "libraries": [],
  "pending": [],
  "returns": {},
  "timestamp": 1737500677,
  "chain": 11155111,
  "commit": "1d2fb70"
}