{
  "transactions": [
    {
      "hash": "0x9f868c9b43b23fe311f826899d7caf106c60042cc971490d578f69a0dcbbb5f4",
      "transactionType": "CALL",
      "contractName": null,
      "contractAddress": "0x8aafd3ede9adb0ff97c7aebce82a919afb1c8764",
      "function": "sell(uint256)",
      "arguments": [
        "2173567070519363923"
      ],
      "transaction": {
        "from": "0xc77f7fed3b5cc8249adc428c5f44c9063b9734b4",
        "to": "0x8aafd3ede9adb0ff97c7aebce82a919afb1c8764",
        "gas": "0x15dca",
        "value": "0x0",
        "input": "0xe4849b320000000000000000000000000000000000000000000000001e2a0fbc0dcb0953",
        "nonce": "0x13a1",
        "chainId": "0xaa36a7"
      },
      "additionalContracts": [],
      "isFixedGasLimit": false
    }
  ],
  "receipts": [
    {
      "status": "0x1",
      "cumulativeGasUsed": "0x12f6b2c",
      "logs": [
        {
          "address": "0x8aafd3ede9adb0ff97c7aebce82a919afb1c8764",
          "topics": [
            "0xddf252ad1be2c89b69c2b068fc378daa952ba7f163c4a11628f55a4df523b3ef",
            "0x000000000000000000000000c77f7fed3b5cc8249adc428c5f44c9063b9734b4",
            "0x0000000000000000000000000000000000000000000000000000000000000000"
          ],
          "data": "0x0000000000000000000000000000000000000000000000001dec48f3e4b90734",
          "blockHash": "0x9b541c26cb1a6c27b9ec9275125d74d324c1995abc24a75d63a3dbd5a18208b7",
          "blockNumber": "0x731ac7",
          "transactionHash": "0x9f868c9b43b23fe311f826899d7caf106c60042cc971490d578f69a0dcbbb5f4",
          "transactionIndex": "0x8a",
          "logIndex": "0xd3",
          "removed": false
        },
        {
          "address": "0x8aafd3ede9adb0ff97c7aebce82a919afb1c8764",
          "topics": [
            "0xddf252ad1be2c89b69c2b068fc378daa952ba7f163c4a11628f55a4df523b3ef",
            "0x000000000000000000000000c77f7fed3b5cc8249adc428c5f44c9063b9734b4",
            "0x000000000000000000000000c77f7fed3b5cc8249adc428c5f44c9063b9734b4"
          ],
          "data": "0x000000000000000000000000000000000000000000000000003dc6c82912021f",
          "blockHash": "0x9b541c26cb1a6c27b9ec9275125d74d324c1995abc24a75d63a3dbd5a18208b7",
          "blockNumber": "0x731ac7",
          "transactionHash": "0x9f868c9b43b23fe311f826899d7caf106c60042cc971490d578f69a0dcbbb5f4",
          "transactionIndex": "0x8a",
          "logIndex": "0xd4",
          "removed": false
        },
        {
          "address": "0x8aafd3ede9adb0ff97c7aebce82a919afb1c8764",
          "topics": [
            "0x4afcb4a87cdbd9974efdb92ee48bc8d7cd0ae4bf217004db3d080cbaee652ca7"
          ],
          "data": "0x0000000000000000000000000000000000000000000000000000000067903e24000000000000000000000000000000000000000000000000000d1630ad6c7389000000000000000000000000000000000000000000000000001c7183a7e3d9f3",
          "blockHash": "0x9b541c26cb1a6c27b9ec9275125d74d324c1995abc24a75d63a3dbd5a18208b7",
          "blockNumber": "0x731ac7",
          "transactionHash": "0x9f868c9b43b23fe311f826899d7caf106c60042cc971490d578f69a0dcbbb5f4",
          "transactionIndex": "0x8a",
          "logIndex": "0xd5",
          "removed": false
        }
      ],
      "logsBloom": "0x00000000000000000000000000000000000000000600000000000000000000000000000000000000000000000000000000000000000000004000000000000000000000000000004000000008000000000000000000000000000000000000000000000000020000000000000000000800020000000000000000000010000000000000000000000000000000000000000000000000000000000000010000000000000000000000000000000000000000004000000000000000000000000000000000000002000000800000000000000000000000000000080000000000000020000000000000000000000000000000000000000000000000000000000000000000",
      "type": "0x2",
      "transactionHash": "0x9f868c9b43b23fe311f826899d7caf106c60042cc971490d578f69a0dcbbb5f4",
      "transactionIndex": "0x8a",
      "blockHash": "0x9b541c26cb1a6c27b9ec9275125d74d324c1995abc24a75d63a3dbd5a18208b7",
      "blockNumber": "0x731ac7",
      "gasUsed": "0xfd3f",
      "effectiveGasPrice": "0x8405321c",
      "from": "0xc77f7fed3b5cc8249adc428c5f44c9063b9734b4",
      "to": "0x8aafd3ede9adb0ff97c7aebce82a919afb1c8764",
      "contractAddress": null
    }
  ],
  "libraries": [],
  "pending": [],
  "returns": {},
  "timestamp": 1737506342,
  "chain": 11155111,
  "commit": "1d2fb70"
}