{
  "transactions": [
    {
      "hash": "0xb3b3e083ee245bd55c655f06125c7fad1e495cb538980eedf594c66e7b2da071",
      "transactionType": "CALL",
      "contractName": null,
      "contractAddress": "0x5eb9cc76c3506942c1c0ead70e877dd5e4f00cb0",
      "function": "sell(uint256)",
      "arguments": [
        "989128683510675255819"
      ],
      "transaction": {
        "from": "0xc77f7fed3b5cc8249adc428c5f44c9063b9734b4",
        "to": "0x5eb9cc76c3506942c1c0ead70e877dd5e4f00cb0",
        "gas": "0x16fec",
        "value": "0x0",
        "input": "0xe4849b320000000000000000000000000000000000000000000000359eeb01064b93b20b",
        "nonce": "0x34d",
        "chainId": "0xaa36a7"
      },
      "additionalContracts": [],
      "isFixedGasLimit": false
    }
  ],
  "receipts": [
    {
      "status": "0x1",
      "cumulativeGasUsed": "0xb11dc0",
      "logs": [
        {
          "address": "0x5eb9cc76c3506942c1c0ead70e877dd5e4f00cb0",
          "topics": [
            "0xddf252ad1be2c89b69c2b068fc378daa952ba7f163c4a11628f55a4df523b3ef",
            "0x000000000000000000000000c77f7fed3b5cc8249adc428c5f44c9063b9734b4",
            "0x0000000000000000000000000000000000000000000000000000000000000000"
          ],
          "data": "0x0000000000000000000000000000000000000000000000359eeb01064b93b20b",
          "blockHash": "0x7f3a826b36b4445b8035ba3181d9613288adbdc481a0e2cbc86e8ae3e372e4b8",
          "blockNumber": "0x724f3f",
          "transactionHash": "0xb3b3e083ee245bd55c655f06125c7fad1e495cb538980eedf594c66e7b2da071",
          "transactionIndex": "0x5f",
          "logIndex": "0x82",
          "removed": false
        },
        {
          "address": "0x5eb9cc76c3506942c1c0ead70e877dd5e4f00cb0",
          "topics": [
            "0x4afcb4a87cdbd9974efdb92ee48bc8d7cd0ae4bf217004db3d080cbaee652ca7"
          ],
          "data": "0x000000000000000000000000000000000000000000000000000000006786a8a80000000000000000000000000000000000000000000000000003910eb1924dfe0000000000000000000000000000000000000000000000000dc7db13321a7ca3",
          "blockHash": "0x7f3a826b36b4445b8035ba3181d9613288adbdc481a0e2cbc86e8ae3e372e4b8",
          "blockNumber": "0x724f3f",
          "transactionHash": "0xb3b3e083ee245bd55c655f06125c7fad1e495cb538980eedf594c66e7b2da071",
          "transactionIndex": "0x5f",
          "logIndex": "0x83",
          "removed": false
        }
      ],
      "logsBloom": "0x00000000000000000000000000000000000000000000000000000000000000000000000000000000000000000000000000000000000000004000000000000000000000000000000000000008000000000000000000000000000000000000000000000000020000000000000004000800020000000000000000000010000000000000000000000000000000000000000000000000000000000000010000000000000000000000000000000000000000004000000000000000000000000000020000000002000000800000008000000000000000000000080000000000000020000000000000000000000000000000000000000000000000000000000000000000",
      "type": "0x2",
      "transactionHash": "0xb3b3e083ee245bd55c655f06125c7fad1e495cb538980eedf594c66e7b2da071",
      "transactionIndex": "0x5f",
      "blockHash": "0x7f3a826b36b4445b8035ba3181d9613288adbdc481a0e2cbc86e8ae3e372e4b8",
      "blockNumber": "0x724f3f",
      "gasUsed": "0xfb93",
      "effectiveGasPrice": "0x5b5ebe454",
      "from": "0xc77f7fed3b5cc8249adc428c5f44c9063b9734b4",
      "to": "0x5eb9cc76c3506942c1c0ead70e877dd5e4f00cb0",
      "contractAddress": null
    }
  ],
  "libraries": [],
  "pending": [],
  "returns": {},
  "timestamp": 1736878250,
  "chain": 11155111,
  "commit": "51a374b"
}