{
  "transactions": [
    {
      "hash": "0x6d30c34739ce7bb0aba059b2e426a4625a9d2c5c7ae96c69c58938b01cdd6f5f",
      "transactionType": "CALL",
      "contractName": null,
      "contractAddress": "0xbf4a322f1496e5c3d34a9bcdb4c60567b38c7de2",
      "function": "sell(uint256)",
      "arguments": [
        "978404123203274047744"
      ],
      "transaction": {
        "from": "0xc77f7fed3b5cc8249adc428c5f44c9063b9734b4",
        "to": "0xbf4a322f1496e5c3d34a9bcdb4c60567b38c7de2",
        "gas": "0x15b68",
        "value": "0x0",
        "input": "0xe4849b320000000000000000000000000000000000000000000000350a15b63f04ac8100",
        "nonce": "0xc8f",
        "chainId": "0xaa36a7"
      },
      "additionalContracts": [],
      "isFixedGasLimit": false
    }
  ],
  "receipts": [
    {
      "status": "0x1",
      "cumulativeGasUsed": "0xa84c05",
      "logs": [
        {
          "address": "0xbf4a322f1496e5c3d34a9bcdb4c60567b38c7de2",
          "topics": [
            "0xddf252ad1be2c89b69c2b068fc378daa952ba7f163c4a11628f55a4df523b3ef",
            "0x000000000000000000000000c77f7fed3b5cc8249adc428c5f44c9063b9734b4",
            "0x0000000000000000000000000000000000000000000000000000000000000000"
          ],
          "data": "0x0000000000000000000000000000000000000000000000350a15b63f04ac8100",
          "blockHash": "0x54623174e593c6ff0efadea147f7250463d7fdc82c418e33f571e37e74407082",
          "blockNumber": "0x725cd5",
          "transactionHash": "0x6d30c34739ce7bb0aba059b2e426a4625a9d2c5c7ae96c69c58938b01cdd6f5f",
          "transactionIndex": "0x4a",
          "logIndex": "0x73",
          "removed": false
        },
        {
          "address": "0xbf4a322f1496e5c3d34a9bcdb4c60567b38c7de2",
          "topics": [
            "0x4afcb4a87cdbd9974efdb92ee48bc8d7cd0ae4bf217004db3d080cbaee652ca7"
          ],
          "data": "0x0000000000000000000000000000000000000000000000000000000067874c7000000000000000000000000000000000000000000000000000039b173366f16c0000000000000000000000000000000000000000000000000dc7e3de5b18cde3",
          "blockHash": "0x54623174e593c6ff0efadea147f7250463d7fdc82c418e33f571e37e74407082",
          "blockNumber": "0x725cd5",
          "transactionHash": "0x6d30c34739ce7bb0aba059b2e426a4625a9d2c5c7ae96c69c58938b01cdd6f5f",
          "transactionIndex": "0x4a",
          "logIndex": "0x74",
          "removed": false
        }
      ],
      "logsBloom": "0x00000000000000000000000000000000000000000000000000000000000000000000000000000000000000000000000000000000000000004000000000000000000000000000000000000008000000000000001000000000000000000000000000000000020000000000000000000800020000000000000000000010000000000000000000000000000000000000000000000000000008000000010000000000000000000000000000000000000000004000000000000000000000000000000000000002000000800000000000001000000000000000080000000000000020000000000000000000000000000000000000000000000000000000000000000000",
      "type": "0x2",
      "transactionHash": "0x6d30c34739ce7bb0aba059b2e426a4625a9d2c5c7ae96c69c58938b01cdd6f5f",
      "transactionIndex": "0x4a",
      "blockHash": "0x54623174e593c6ff0efadea147f7250463d7fdc82c418e33f571e37e74407082",
      "blockNumber": "0x725cd5",
      "gasUsed": "0xfb85",
      "effectiveGasPrice": "0x29fb04520",
      "from": "0xc77f7fed3b5cc8249adc428c5f44c9063b9734b4",
      "to": "0xbf4a322f1496e5c3d34a9bcdb4c60567b38c7de2",
      "contractAddress": null
    }
  ],
  "libraries": [],
  "pending": [],
  "returns": {},
  "timestamp": 1736920177,
  "chain": 11155111,
  "commit": "51a374b"
}