{
  "transactions": [
    {
      "hash": "0x09a06c8c4ffd8ab8d460f7277ccf778d384cc5fb2a67d5373da051d6b397f7c8",
      "transactionType": "CALL",
      "contractName": null,
      "contractAddress": "0x8aafd3ede9adb0ff97c7aebce82a919afb1c8764",
      "function": "sell(uint256)",
      "arguments": [
        "706877316864515947757"
      ],
      "transaction": {
        "from": "0xc77f7fed3b5cc8249adc428c5f44c9063b9734b4",
        "to": "0x8aafd3ede9adb0ff97c7aebce82a919afb1c8764",
        "gas": "0x17270",
        "value": "0x0",
        "input": "0xe4849b3200000000000000000000000000000000000000000000002651e4b67de2b6bced",
        "nonce": "0x10a5",
        "chainId": "0xaa36a7"
      },
      "additionalContracts": [],
      "isFixedGasLimit": false
    }
  ],
  "receipts": [
    {
      "status": "0x1",
      "cumulativeGasUsed": "0xe22dbe",
      "logs": [
        {
          "address": "0x8aafd3ede9adb0ff97c7aebce82a919afb1c8764",
          "topics": [
            "0xddf252ad1be2c89b69c2b068fc378daa952ba7f163c4a11628f55a4df523b3ef",
            "0x000000000000000000000000c77f7fed3b5cc8249adc428c5f44c9063b9734b4",
            "0x0000000000000000000000000000000000000000000000000000000000000000"
          ],
          "data": "0x000000000000000000000000000000000000000000000026036a0d1886c9c18f",
          "blockHash": "0xa57101541a95905711cf9c13c9f40a21c89c1b6a02a3299aa30df907b837d480",
          "blockNumber": "0x731738",
          "transactionHash": "0x09a06c8c4ffd8ab8d460f7277ccf778d384cc5fb2a67d5373da051d6b397f7c8",
          "transactionIndex": "0x69",
          "logIndex": "0xec",
          "removed": false
        },
        {
          "address": "0x8aafd3ede9adb0ff97c7aebce82a919afb1c8764",
          "topics": [
            "0xddf252ad1be2c89b69c2b068fc378daa952ba7f163c4a11628f55a4df523b3ef",
            "0x000000000000000000000000c77f7fed3b5cc8249adc428c5f44c9063b9734b4",
            "0x000000000000000000000000c77f7fed3b5cc8249adc428c5f44c9063b9734b4"
          ],
          "data": "0x0000000000000000000000000000000000000000000000004e7aa9655becfb5e",
          "blockHash": "0xa57101541a95905711cf9c13c9f40a21c89c1b6a02a3299aa30df907b837d480",
          "blockNumber": "0x731738",
          "transactionHash": "0x09a06c8c4ffd8ab8d460f7277ccf778d384cc5fb2a67d5373da051d6b397f7c8",
          "transactionIndex": "0x69",
          "logIndex": "0xed",
          "removed": false
        },
        {
          "address": "0x8aafd3ede9adb0ff97c7aebce82a919afb1c8764",
          "topics": [
            "0x4afcb4a87cdbd9974efdb92ee48bc8d7cd0ae4bf217004db3d080cbaee652ca7"
          ],
          "data": "0x00000000000000000000000000000000000000000000000000000000679013640000000000000000000000000000000000000000000000000004ff142318b7ec0000000000000000000000000000000000000000000000000dc8fc570fbe18b8",
          "blockHash": "0xa57101541a95905711cf9c13c9f40a21c89c1b6a02a3299aa30df907b837d480",
          "blockNumber": "0x731738",
          "transactionHash": "0x09a06c8c4ffd8ab8d460f7277ccf778d384cc5fb2a67d5373da051d6b397f7c8",
          "transactionIndex": "0x69",
          "logIndex": "0xee",
          "removed": false
        }
      ],
      "logsBloom": "0x00000000000000000000000000000000000000000600000000000000000000000000000000000000000000000000000000000000000000004000000000000000000000000000004000000008000000000000000000000000000000000000000000000000020000000000000000000800020000000000000000000010000000000000000000000000000000000000000000000000000000000000010000000000000000000000000000000000000000004000000000000000000000000000000000000002000000800000000000000000000000000000080000000000000020000000000000000000000000000000000000000000000000000000000000000000",
      "type": "0x2",
      "transactionHash": "0x09a06c8c4ffd8ab8d460f7277ccf778d384cc5fb2a67d5373da051d6b397f7c8",
      "transactionIndex": "0x69",
      "blockHash": "0xa57101541a95905711cf9c13c9f40a21c89c1b6a02a3299aa30df907b837d480",
      "blockNumber": "0x731738",
      "gasUsed": "0xfd4b",
      "effectiveGasPrice": "0x4e3f24de",
      "from": "0xc77f7fed3b5cc8249adc428c5f44c9063b9734b4",
      "to": "0x8aafd3ede9adb0ff97c7aebce82a919afb1c8764",
      "contractAddress": null
    }
  ],
  "libraries": [],
  "pending": [],
  "returns": {},
  "timestamp": 1737495398,
  "chain": 11155111,
  "commit": "1d2fb70"
}