{
  "transactions": [
    {
      "hash": "0x22be07cebe78e0252e57b77b8f42ae4672d75e132c2709575e9e21229d5d4b39",
      "transactionType": "CALL",
      "contractName": null,
      "contractAddress": "0xbf4a322f1496e5c3d34a9bcdb4c60567b38c7de2",
      "function": "buy(address)",
      "arguments": [
        "0xC77f7fed3b5Cc8249aDc428c5F44C9063B9734b4"
      ],
      "transaction": {
        "from": "0xc77f7fed3b5cc8249adc428c5f44c9063b9734b4",
        "to": "0xbf4a322f1496e5c3d34a9bcdb4c60567b38c7de2",
        "gas": "0x1b309",
        "value": "0xde0b6b3a7640000",
        "input": "0xf088d547000000000000000000000000c77f7fed3b5cc8249adc428c5f44c9063b9734b4",
        "nonce": "0xcd4",
        "chainId": "0xaa36a7"
      },
      "additionalContracts": [],
      "isFixedGasLimit": false
    }
  ],
  "receipts": [
    {
      "status": "0x1",
      "cumulativeGasUsed": "0x12375f6",
      "logs": [
        {
          "address": "0xbf4a322f1496e5c3d34a9bcdb4c60567b38c7de2",
          "topics": [
            "0xddf252ad1be2c89b69c2b068fc378daa952ba7f163c4a11628f55a4df523b3ef",
            "0x0000000000000000000000000000000000000000000000000000000000000000",
            "0x000000000000000000000000c77f7fed3b5cc8249adc428c5f44c9063b9734b4"
          ],
          "data": "0x000000000000000000000000000000000000000000000034d412cdf2933a4932",
          "blockHash": "0x009784425cfaf52e44f67134cb12c2abc9ccda90e5a3f23b4d172601c078476c",
          "blockNumber": "0x725d25",
          "transactionHash": "0x22be07cebe78e0252e57b77b8f42ae4672d75e132c2709575e9e21229d5d4b39",
          "transactionIndex": "0x92",
          "logIndex": "0xbc",
          "removed": false
        },
        {
          "address": "0xbf4a322f1496e5c3d34a9bcdb4c60567b38c7de2",
          "topics": [
            "0xddf252ad1be2c89b69c2b068fc378daa952ba7f163c4a11628f55a4df523b3ef",
            "0x0000000000000000000000000000000000000000000000000000000000000000",
            "0x000000000000000000000000c77f7fed3b5cc8249adc428c5f44c9063b9734b4"
          ],
          "data": "0x0000000000000000000000000000000000000000000000002905e782f7e59e8c",
          "blockHash": "0x009784425cfaf52e44f67134cb12c2abc9ccda90e5a3f23b4d172601c078476c",
          "blockNumber": "0x725d25",
          "transactionHash": "0x22be07cebe78e0252e57b77b8f42ae4672d75e132c2709575e9e21229d5d4b39",
          "transactionIndex": "0x92",
          "logIndex": "0xbd",
          "removed": false
        },
        {
          "address": "0xbf4a322f1496e5c3d34a9bcdb4c60567b38c7de2",
          "topics": [
            "0x4afcb4a87cdbd9974efdb92ee48bc8d7cd0ae4bf217004db3d080cbaee652ca7"
          ],
          "data": "0x000000000000000000000000000000000000000000000000000000006787503000000000000000000000000000000000000000000000000000039bf5524786570000000000000000000000000000000000000000000000000de0b6b3a7640000",
          "blockHash": "0x009784425cfaf52e44f67134cb12c2abc9ccda90e5a3f23b4d172601c078476c",
          "blockNumber": "0x725d25",
          "transactionHash": "0x22be07cebe78e0252e57b77b8f42ae4672d75e132c2709575e9e21229d5d4b39",
          "transactionIndex": "0x92",
          "logIndex": "0xbe",
          "removed": false
        }
      ],
      "logsBloom": "0x00000000000000000000000000000000000000000000000000000000000000000000000000000000000000000000000000000000000000004000000000000000000000000000000000000008000000000000001000000000000000000000000000000000020000000000000000000800020000000000000000000010000000000000000000000000000000000000000000000000000008000000010000000000000000000000000000000000000000004000000000000000000000000000000000000002000000800000000000001000000000000000080000000000000020000000000000000000000000000000000000000000000000000000000000000000",
      "type": "0x2",
      "transactionHash": "0x22be07cebe78e0252e57b77b8f42ae4672d75e132c2709575e9e21229d5d4b39",
      "transactionIndex": "0x92",
      "blockHash": "0x009784425cfaf52e44f67134cb12c2abc9ccda90e5a3f23b4d172601c078476c",
      "blockNumber": "0x725d25",
      "gasUsed": "0x13af6",
      "effectiveGasPrice": "0x5792f207b",
      "from": "0xc77f7fed3b5cc8249adc428c5f44c9063b9734b4",
      "to": "0xbf4a322f1496e5c3d34a9bcdb4c60567b38c7de2",
      "contractAddress": null
    }
  ],
  "libraries": [],
  "pending": [],
  "returns": {},
  "timestamp": 1736921137,
  "chain": 11155111,
  "commit": "51a374b"
}