{
  "transactions": [
    {
      "hash": "0x28033cabffef3d95e23b26b75d217ccd1f4de3b2180761f1dff6bd6716c19a70",
      "transactionType": "CALL",
      "contractName": null,
      "contractAddress": "0x8aafd3ede9adb0ff97c7aebce82a919afb1c8764",
      "function": "sell(uint256)",
      "arguments": [
        "21893271498"
      ],
      "transaction": {
        "from": "0xc77f7fed3b5cc8249adc428c5f44c9063b9734b4",
        "to": "0x8aafd3ede9adb0ff97c7aebce82a919afb1c8764",
        "gas": "0x1722a",
        "value": "0x0",
        "input": "0xe4849b320000000000000000000000000000000000000000000000000000000518f0cfca",
        "nonce": "0x12a8",
        "chainId": "0xaa36a7"
      },
      "additionalContracts": [],
      "isFixedGasLimit": false
    }
  ],
  "receipts": [
    {
      "status": "0x1",
      "cumulativeGasUsed": "0x8c7622",
      "logs": [
        {
          "address": "0x8aafd3ede9adb0ff97c7aebce82a919afb1c8764",
          "topics": [
            "0xddf252ad1be2c89b69c2b068fc378daa952ba7f163c4a11628f55a4df523b3ef",
            "0x000000000000000000000000c77f7fed3b5cc8249adc428c5f44c9063b9734b4",
            "0x0000000000000000000000000000000000000000000000000000000000000000"
          ],
          "data": "0x000000000000000000000000000000000000000000000000000000050e804b0f",
          "blockHash": "0x0406ae0a31f35d7ece8e2f742d3d790fb49e78740d0d59ea1351826e9fbd55f6",
          "blockNumber": "0x73199e",
          "transactionHash": "0x28033cabffef3d95e23b26b75d217ccd1f4de3b2180761f1dff6bd6716c19a70",
          "transactionIndex": "0x76",
          "logIndex": "0x8a",
          "removed": false
        },
        {
          "address": "0x8aafd3ede9adb0ff97c7aebce82a919afb1c8764",
          "topics": [
            "0xddf252ad1be2c89b69c2b068fc378daa952ba7f163c4a11628f55a4df523b3ef",
            "0x000000000000000000000000c77f7fed3b5cc8249adc428c5f44c9063b9734b4",
            "0x000000000000000000000000c77f7fed3b5cc8249adc428c5f44c9063b9734b4"
          ],
          "data": "0x000000000000000000000000000000000000000000000000000000000a7084bb",
          "blockHash": "0x0406ae0a31f35d7ece8e2f742d3d790fb49e78740d0d59ea1351826e9fbd55f6",
          "blockNumber": "0x73199e",
          "transactionHash": "0x28033cabffef3d95e23b26b75d217ccd1f4de3b2180761f1dff6bd6716c19a70",
          "transactionIndex": "0x76",
          "logIndex": "0x8b",
          "removed": false
        },
        {
          "address": "0x8aafd3ede9adb0ff97c7aebce82a919afb1c8764",
          "topics": [
            "0x4afcb4a87cdbd9974efdb92ee48bc8d7cd0ae4bf217004db3d080cbaee652ca7"
          ],
          "data": "0x00000000000000000000000000000000000000000000000000000000679030380000000000000000000000000000000000000000000000000005492efc5b066e0000000000000000000000000000000000000000000000000000000001f1090b",
          "blockHash": "0x0406ae0a31f35d7ece8e2f742d3d790fb49e78740d0d59ea1351826e9fbd55f6",
          "blockNumber": "0x73199e",
          "transactionHash": "0x28033cabffef3d95e23b26b75d217ccd1f4de3b2180761f1dff6bd6716c19a70",
          "transactionIndex": "0x76",
          "logIndex": "0x8c",
          "removed": false
        }
      ],
      "logsBloom": "0x00000000000000000000000000000000000000000600000000000000000000000000000000000000000000000000000000000000000000004000000000000000000000000000004000000008000000000000000000000000000000000000000000000000020000000000000000000800020000000000000000000010000000000000000000000000000000000000000000000000000000000000010000000000000000000000000000000000000000004000000000000000000000000000000000000002000000800000000000000000000000000000080000000000000020000000000000000000000000000000000000000000000000000000000000000000",
      "type": "0x2",
      "transactionHash": "0x28033cabffef3d95e23b26b75d217ccd1f4de3b2180761f1dff6bd6716c19a70",
      "transactionIndex": "0x76",
      "blockHash": "0x0406ae0a31f35d7ece8e2f742d3d790fb49e78740d0d59ea1351826e9fbd55f6",
      "blockNumber": "0x73199e",
      "gasUsed": "0xfd1b",
      "effectiveGasPrice": "0x492cf48b",
      "from": "0xc77f7fed3b5cc8249adc428c5f44c9063b9734b4",
      "to": "0x8aafd3ede9adb0ff97c7aebce82a919afb1c8764",
      "contractAddress": null
    }
  ],
  "libraries": [],
  "pending": [],
  "returns": {},
  "timestamp": 1737502778,
  "chain": 11155111,
  "commit": "1d2fb70"
}