{
  "transactions": [
    {
      "hash": "0x884df64cbc44b4d30a57b1976318a8eda27c7c452daf529d3dba4c25f8cc5535",
      "transactionType": "CALL",
      "contractName": null,
      "contractAddress": "0x8aafd3ede9adb0ff97c7aebce82a919afb1c8764",
      "function": "sell(uint256)",
      "arguments": [
        "5385568422194258853"
      ],
      "transaction": {
        "from": "0xc77f7fed3b5cc8249adc428c5f44c9063b9734b4",
        "to": "0x8aafd3ede9adb0ff97c7aebce82a919afb1c8764",
        "gas": "0x15dca",
        "value": "0x0",
        "input": "0xe4849b320000000000000000000000000000000000000000000000004abd61f22e7323a5",
        "nonce": "0x125e",
        "chainId": "0xaa36a7"
      },
      "additionalContracts": [],
      "isFixedGasLimit": false
    }
  ],
  "receipts": [
    {
      "status": "0x1",
      "cumulativeGasUsed": "0xc8e4d8",
      "logs": [
        {
          "address": "0x8aafd3ede9adb0ff97c7aebce82a919afb1c8764",
          "topics": [
            "0xddf252ad1be2c89b69c2b068fc378daa952ba7f163c4a11628f55a4df523b3ef",
            "0x000000000000000000000000c77f7fed3b5cc8249adc428c5f44c9063b9734b4",
            "0x0000000000000000000000000000000000000000000000000000000000000000"
          ],
          "data": "0x0000000000000000000000000000000000000000000000004a2450c748b3c10f",
          "blockHash": "0x4eb78e6458c83ecda2a15ba12b4f6e4cb5ae80a32da7ee7fec8ab194ab45fbaa",
          "blockNumber": "0x731943",
          "transactionHash": "0x884df64cbc44b4d30a57b1976318a8eda27c7c452daf529d3dba4c25f8cc5535",
          "transactionIndex": "0x4f",
          "logIndex": "0x82",
          "removed": false
        },
        {
          "address": "0x8aafd3ede9adb0ff97c7aebce82a919afb1c8764",
          "topics": [
            "0xddf252ad1be2c89b69c2b068fc378daa952ba7f163c4a11628f55a4df523b3ef",
            "0x000000000000000000000000c77f7fed3b5cc8249adc428c5f44c9063b9734b4",
            "0x000000000000000000000000c77f7fed3b5cc8249adc428c5f44c9063b9734b4"
          ],
          "data": "0x0000000000000000000000000000000000000000000000000099112ae5bf6296",
          "blockHash": "0x4eb78e6458c83ecda2a15ba12b4f6e4cb5ae80a32da7ee7fec8ab194ab45fbaa",
          "blockNumber": "0x731943",
          "transactionHash": "0x884df64cbc44b4d30a57b1976318a8eda27c7c452daf529d3dba4c25f8cc5535",
          "transactionIndex": "0x4f",
          "logIndex": "0x83",
          "removed": false
        },
        {
          "address": "0x8aafd3ede9adb0ff97c7aebce82a919afb1c8764",
          "topics": [
            "0x4afcb4a87cdbd9974efdb92ee48bc8d7cd0ae4bf217004db3d080cbaee652ca7"
          ],
          "data": "0x0000000000000000000000000000000000000000000000000000000067902bf400000000000000000000000000000000000000000000000000053f02a34962d9000000000000000000000000000000000000000000000000001c40d44a35d2cb",
          "blockHash": "0x4eb78e6458c83ecda2a15ba12b4f6e4cb5ae80a32da7ee7fec8ab194ab45fbaa",
          "blockNumber": "0x731943",
          "transactionHash": "0x884df64cbc44b4d30a57b1976318a8eda27c7c452daf529d3dba4c25f8cc5535",
          "transactionIndex": "0x4f",
          "logIndex": "0x84",
          "removed": false
        }
      ],
      "logsBloom": "0x00000000000000000000000000000000000000000600000000000000000000000000000000000000000000000000000000000000000000004000000000000000000000000000004000000008000000000000000000000000000000000000000000000000020000000000000000000800020000000000000000000010000000000000000000000000000000000000000000000000000000000000010000000000000000000000000000000000000000004000000000000000000000000000000000000002000000800000000000000000000000000000080000000000000020000000000000000000000000000000000000000000000000000000000000000000",
      "type": "0x2",
      "transactionHash": "0x884df64cbc44b4d30a57b1976318a8eda27c7c452daf529d3dba4c25f8cc5535",
      "transactionIndex": "0x4f",
      "blockHash": "0x4eb78e6458c83ecda2a15ba12b4f6e4cb5ae80a32da7ee7fec8ab194ab45fbaa",
      "blockNumber": "0x731943",
      "gasUsed": "0xfd3f",
      "effectiveGasPrice": "0x3dcecfef",
      "from": "0xc77f7fed3b5cc8249adc428c5f44c9063b9734b4",
      "to": "0x8aafd3ede9adb0ff97c7aebce82a919afb1c8764",
      "contractAddress": null
    }
  ],
  "libraries": [],
  "pending": [],
  "returns": {},
  "timestamp": 1737501684,
  "chain": 11155111,
  "commit": "1d2fb70"
}