{
  "transactions": [
    {
      "hash": "0xb64faad745c9662f6d3722fea0a8587cba8eeba6635a043f13bcbcf78bc0ef24",
      "transactionType": "CALL",
      "contractName": null,
      "contractAddress": "0xbf4a322f1496e5c3d34a9bcdb4c60567b38c7de2",
      "function": "buy(address)",
      "arguments": [
        "0xC77f7fed3b5Cc8249aDc428c5F44C9063B9734b4"
      ],
      "transaction": {
        "from": "0xc77f7fed3b5cc8249adc428c5f44c9063b9734b4",
        "to": "0xbf4a322f1496e5c3d34a9bcdb4c60567b38c7de2",
        "gas": "0x1b309",
        "value": "0xde0b6b3a7640000",
        "input": "0xf088d547000000000000000000000000c77f7fed3b5cc8249adc428c5f44c9063b9734b4",
        "nonce": "0xa5a",
        "chainId": "0xaa36a7"
      },
      "additionalContracts": [],
      "isFixedGasLimit": false
    }
  ],
  "receipts": [
    {
      "status": "0x1",
      "cumulativeGasUsed": "0x104ebc9",
      "logs": [
        {
          "address": "0xbf4a322f1496e5c3d34a9bcdb4c60567b38c7de2",
          "topics": [
            "0xddf252ad1be2c89b69c2b068fc378daa952ba7f163c4a11628f55a4df523b3ef",
            "0x0000000000000000000000000000000000000000000000000000000000000000",
            "0x000000000000000000000000c77f7fed3b5cc8249adc428c5f44c9063b9734b4"
          ],
          "data": "0x0000000000000000000000000000000000000000000000354a441f640d4a7378",
          "blockHash": "0x68dd91b86af0c6b5f768c9d6e64a4173ae540168f0667ba702d5c44e76cdf1e9",
          "blockNumber": "0x725a34",
          "transactionHash": "0xb64faad745c9662f6d3722fea0a8587cba8eeba6635a043f13bcbcf78bc0ef24",
          "transactionIndex": "0x86",
          "logIndex": "0xd4",
          "removed": false
        },
        {
          "address": "0xbf4a322f1496e5c3d34a9bcdb4c60567b38c7de2",
          "topics": [
            "0xddf252ad1be2c89b69c2b068fc378daa952ba7f163c4a11628f55a4df523b3ef",
            "0x0000000000000000000000000000000000000000000000000000000000000000",
            "0x000000000000000000000000c77f7fed3b5cc8249adc428c5f44c9063b9734b4"
          ],
          "data": "0x0000000000000000000000000000000000000000000000002961af59e863181a",
          "blockHash": "0x68dd91b86af0c6b5f768c9d6e64a4173ae540168f0667ba702d5c44e76cdf1e9",
          "blockNumber": "0x725a34",
          "transactionHash": "0xb64faad745c9662f6d3722fea0a8587cba8eeba6635a043f13bcbcf78bc0ef24",
          "transactionIndex": "0x86",
          "logIndex": "0xd5",
          "removed": false
        },
        {
          "address": "0xbf4a322f1496e5c3d34a9bcdb4c60567b38c7de2",
          "topics": [
            "0x4afcb4a87cdbd9974efdb92ee48bc8d7cd0ae4bf217004db3d080cbaee652ca7"
          ],
          "data": "0x0000000000000000000000000000000000000000000000000000000067872cc0000000000000000000000000000000000000000000000000000393f415d26ef50000000000000000000000000000000000000000000000000de0b6b3a7640000",
          "blockHash": "0x68dd91b86af0c6b5f768c9d6e64a4173ae540168f0667ba702d5c44e76cdf1e9",
          "blockNumber": "0x725a34",
          "transactionHash": "0xb64faad745c9662f6d3722fea0a8587cba8eeba6635a043f13bcbcf78bc0ef24",
          "transactionIndex": "0x86",
          "logIndex": "0xd6",
          "removed": false
        }
      ],
      "logsBloom": "0x00000000000000000000000000000000000000000000000000000000000000000000000000000000000000000000000000000000000000004000000000000000000000000000000000000008000000000000001000000000000000000000000000000000020000000000000000000800020000000000000000000010000000000000000000000000000000000000000000000000000008000000010000000000000000000000000000000000000000004000000000000000000000000000000000000002000000800000000000001000000000000000080000000000000020000000000000000000000000000000000000000000000000000000000000000000",
      "type": "0x2",
      "transactionHash": "0xb64faad745c9662f6d3722fea0a8587cba8eeba6635a043f13bcbcf78bc0ef24",
      "transactionIndex": "0x86",
      "blockHash": "0x68dd91b86af0c6b5f768c9d6e64a4173ae540168f0667ba702d5c44e76cdf1e9",
      "blockNumber": "0x725a34",
      "gasUsed": "0x13af6",
      "effectiveGasPrice": "0x470721edf",
      "from": "0xc77f7fed3b5cc8249adc428c5f44c9063b9734b4",
      "to": "0xbf4a322f1496e5c3d34a9bcdb4c60567b38c7de2",
      "contractAddress": null
    }
  ],
  "libraries": [],
  "pending": [],
  "returns": {},
  "timestamp": 1736912064,
  "chain": 11155111,
  "commit": "51a374b"
}