{
  "transactions": [
    {
      "hash": "0x9077d85407d8c4d666681391684aa6b38af10b59257c1a34823f8030edcdf527",
      "transactionType": "CALL",
      "contractName": null,
      "contractAddress": "0x5eb9cc76c3506942c1c0ead70e877dd5e4f00cb0",
      "function": "buy(address)",
      "arguments": [
        "0xC77f7fed3b5Cc8249aDc428c5F44C9063B9734b4"
      ],
      "transaction": {
        "from": "0xc77f7fed3b5cc8249adc428c5f44c9063b9734b4",
        "to": "0x5eb9cc76c3506942c1c0ead70e877dd5e4f00cb0",
        "gas": "0x1b30c",
        "value": "0xde0b6b3a7640000",
        "input": "0xf088d547000000000000000000000000c77f7fed3b5cc8249adc428c5f44c9063b9734b4",
        "nonce": "0x324",
        "chainId": "0xaa36a7"
      },
      "additionalContracts": [],
      "isFixedGasLimit": false
    }
  ],
  "receipts": [
    {
      "status": "0x1",
      "cumulativeGasUsed": "0xb54321",
      "logs": [
        {
          "address": "0x5eb9cc76c3506942c1c0ead70e877dd5e4f00cb0",
          "topics": [
            "0xddf252ad1be2c89b69c2b068fc378daa952ba7f163c4a11628f55a4df523b3ef",
            "0x0000000000000000000000000000000000000000000000000000000000000000",
            "0x000000000000000000000000c77f7fed3b5cc8249adc428c5f44c9063b9734b4"
          ],
          "data": "0x000000000000000000000000000000000000000000000035757e65f27c5836da",
          "blockHash": "0xfe35dc6b1bc2255441442571f4be6b22384d34228e32601fa29c16105c62a1ca",
          "blockNumber": "0x724f0c",
          "transactionHash": "0x9077d85407d8c4d666681391684aa6b38af10b59257c1a34823f8030edcdf527",
          "transactionIndex": "0x5e",
          "logIndex": "0x89",
          "removed": false
        },
        {
          "address": "0x5eb9cc76c3506942c1c0ead70e877dd5e4f00cb0",
          "topics": [
            "0xddf252ad1be2c89b69c2b068fc378daa952ba7f163c4a11628f55a4df523b3ef",
            "0x0000000000000000000000000000000000000000000000000000000000000000",
            "0x000000000000000000000000c77f7fed3b5cc8249adc428c5f44c9063b9734b4"
          ],
          "data": "0x000000000000000000000000000000000000000000000000298340b11226ec67",
          "blockHash": "0xfe35dc6b1bc2255441442571f4be6b22384d34228e32601fa29c16105c62a1ca",
          "blockNumber": "0x724f0c",
          "transactionHash": "0x9077d85407d8c4d666681391684aa6b38af10b59257c1a34823f8030edcdf527",
          "transactionIndex": "0x5e",
          "logIndex": "0x8a",
          "removed": false
        },
        {
          "address": "0x5eb9cc76c3506942c1c0ead70e877dd5e4f00cb0",
          "topics": [
            "0x4afcb4a87cdbd9974efdb92ee48bc8d7cd0ae4bf217004db3d080cbaee652ca7"
          ],
          "data": "0x000000000000000000000000000000000000000000000000000000006786a6440000000000000000000000000000000000000000000000000003910d239c36e00000000000000000000000000000000000000000000000000de0b6b3a7640000",
          "blockHash": "0xfe35dc6b1bc2255441442571f4be6b22384d34228e32601fa29c16105c62a1ca",
          "blockNumber": "0x724f0c",
          "transactionHash": "0x9077d85407d8c4d666681391684aa6b38af10b59257c1a34823f8030edcdf527",
          "transactionIndex": "0x5e",
          "logIndex": "0x8b",
          "removed": false
        }
      ],
      "logsBloom": "0x00000000000000000000000000000000000000000000000000000000000000000000000000000000000000000000000000000000000000004000000000000000000000000000000000000008000000000000000000000000000000000000000000000000020000000000000004000800020000000000000000000010000000000000000000000000000000000000000000000000000000000000010000000000000000000000000000000000000000004000000000000000000000000000020000000002000000800000008000000000000000000000080000000000000020000000000000000000000000000000000000000000000000000000000000000000",
      "type": "0x2",
      "transactionHash": "0x9077d85407d8c4d666681391684aa6b38af10b59257c1a34823f8030edcdf527",
      "transactionIndex": "0x5e",
      "blockHash": "0xfe35dc6b1bc2255441442571f4be6b22384d34228e32601fa29c16105c62a1ca",
      "blockNumber": "0x724f0c",
      "gasUsed": "0x13af8",
      "effectiveGasPrice": "0x6cb44eaf0",
      "from": "0xc77f7fed3b5cc8249adc428c5f44c9063b9734b4",
      "to": "0x5eb9cc76c3506942c1c0ead70e877dd5e4f00cb0",
      "contractAddress": null
    }
  ],
  "libraries": [],
  "pending": [],
  "returns": {},
  "timestamp": 1736877637,
  "chain": 11155111,
  "commit": "51a374b"
}