{
  "transactions": [
    {
      "hash": "0xea596b573c7dd288bb07c1848f03d53f099a3b4e70488bba79d6d98283783918",
      "transactionType": "CALL",
      "contractName": null,
      "contractAddress": "0xbf4a322f1496e5c3d34a9bcdb4c60567b38c7de2",
      "function": "sell(uint256)",
      "arguments": [
        "973821970356254285369"
      ],
      "transaction": {
        "from": "0xc77f7fed3b5cc8249adc428c5f44c9063b9734b4",
        "to": "0xbf4a322f1496e5c3d34a9bcdb4c60567b38c7de2",
        "gas": "0x16fea",
        "value": "0x0",
        "input": "0xe4849b32000000000000000000000000000000000000000000000034ca7ea28253841e39",
        "nonce": "0xde7",
        "chainId": "0xaa36a7"
      },
      "additionalContracts": [],
      "isFixedGasLimit": false
    }
  ],
  "receipts": [
    {
      "status": "0x1",
      "cumulativeGasUsed": "0x10a6815",
      "logs": [
        {
          "address": "0xbf4a322f1496e5c3d34a9bcdb4c60567b38c7de2",
          "topics": [
            "0xddf252ad1be2c89b69c2b068fc378daa952ba7f163c4a11628f55a4df523b3ef",
            "0x000000000000000000000000c77f7fed3b5cc8249adc428c5f44c9063b9734b4",
            "0x0000000000000000000000000000000000000000000000000000000000000000"
          ],
          "data": "0x000000000000000000000000000000000000000000000034ca7ea28253841e39",
          "blockHash": "0x416221e1a5fb011da3a3876c7d38cd5bb4fff1b4064211a6e12f6b4ef9349fbd",
          "blockNumber": "0x7266c7",
          "transactionHash": "0xea596b573c7dd288bb07c1848f03d53f099a3b4e70488bba79d6d98283783918",
          "transactionIndex": "0x56",
          "logIndex": "0x84",
          "removed": false
        },
        {
          "address": "0xbf4a322f1496e5c3d34a9bcdb4c60567b38c7de2",
          "topics": [
            "0x4afcb4a87cdbd9974efdb92ee48bc8d7cd0ae4bf217004db3d080cbaee652ca7"
          ],
          "data": "0x000000000000000000000000000000000000000000000000000000006787c45800000000000000000000000000000000000000000000000000039f6f17a490910000000000000000000000000000000000000000000000000dc7e3d3b3bb60e2",
          "blockHash": "0x416221e1a5fb011da3a3876c7d38cd5bb4fff1b4064211a6e12f6b4ef9349fbd",
          "blockNumber": "0x7266c7",
          "transactionHash": "0xea596b573c7dd288bb07c1848f03d53f099a3b4e70488bba79d6d98283783918",
          "transactionIndex": "0x56",
          "logIndex": "0x85",
          "removed": false
        }
      ],
      "logsBloom": "0x00000000000000000000000000000000000000000000000000000000000000000000000000000000000000000000000000000000000000004000000000000000000000000000000000000008000000000000001000000000000000000000000000000000020000000000000000000800020000000000000000000010000000000000000000000000000000000000000000000000000008000000010000000000000000000000000000000000000000004000000000000000000000000000000000000002000000800000000000001000000000000000080000000000000020000000000000000000000000000000000000000000000000000000000000000000",
      "type": "0x2",
      "transactionHash": "0xea596b573c7dd288bb07c1848f03d53f099a3b4e70488bba79d6d98283783918",
      "transactionIndex": "0x56",
      "blockHash": "0x416221e1a5fb011da3a3876c7d38cd5bb4fff1b4064211a6e12f6b4ef9349fbd",
      "blockNumber": "0x7266c7",
      "gasUsed": "0xfb91",
      "effectiveGasPrice": "0x258a18916",
      "from": "0xc77f7fed3b5cc8249adc428c5f44c9063b9734b4",
      "to": "0xbf4a322f1496e5c3d34a9bcdb4c60567b38c7de2",
      "contractAddress": null
    }
  ],
  "libraries": [],
  "pending": [],
  "returns": {},
  "timestamp": 1736950873,
  "chain": 11155111,
  "commit": "51a374b"
}