{
  "transactions": [
    {
      "hash": "0xb7dd13e95375ebda21235ad54ce3757e3807a4ea68ad903466852a987a3a973b",
      "transactionType": "CALL",
      "contractName": null,
      "contractAddress": "0xf593b02bc93128014ccca3828a7afa5a93c64039",
      "function": "borrow(uint256,uint256)",
      "arguments": [
        "9000000000000000",
        "0"
      ],
      "transaction": {
        "from": "0xf66076775ad1f36dd12c1f1b10c21d1aadf0d6de",
        "to": "0xf593b02bc93128014ccca3828a7afa5a93c64039",
        "gas": "0x57d4a",
        "value": "0x0",
        "input": "0x0ecbcdab000000000000000000000000000000000000000000000000001ff973cafa80000000000000000000000000000000000000000000000000000000000000000000",
        "nonce": "0x11c",
        "chainId": "0xaa36a7"
      },
      "additionalContracts": [],
      "isFixedGasLimit": false
    }
  ],
  "receipts": [
    {
      "status": "0x1",
      "cumulativeGasUsed": "0x1b8e9e5",
      "logs": [
        {
          "address": "0xf593b02bc93128014ccca3828a7afa5a93c64039",
          "topics": [
            "0xddf252ad1be2c89b69c2b068fc378daa952ba7f163c4a11628f55a4df523b3ef",
            "0x000000000000000000000000f66076775ad1f36dd12c1f1b10c21d1aadf0d6de",
            "0x000000000000000000000000f593b02bc93128014ccca3828a7afa5a93c64039"
          ],
          "data": "0x0000000000000000000000000000000000000000000000007ce66c50e2840000",
          "blockHash": "0x565b89ddb5d57a4f268ca386bb55daee15ca5e254d4bd2f13d7e5da5783381d5",
          "blockNumber": "0x748fcb",
          "transactionHash": "0xb7dd13e95375ebda21235ad54ce3757e3807a4ea68ad903466852a987a3a973b",
          "transactionIndex": "0xc0",
          "logIndex": "0x1ea",
          "removed": false
        },
        {
          "address": "0xf593b02bc93128014ccca3828a7afa5a93c64039",
          "topics": [
            "0x03bbe564cb1b78e43195eeadbde99e5b89b19345862807fcfb59f884e4165e25"
          ],
          "data": "0x000000000000000000000000f66076775ad1f36dd12c1f1b10c21d1aadf0d6de000000000000000000000000000000000000000000000000001f9f698f255000",
          "blockHash": "0x565b89ddb5d57a4f268ca386bb55daee15ca5e254d4bd2f13d7e5da5783381d5",
          "blockNumber": "0x748fcb",
          "transactionHash": "0xb7dd13e95375ebda21235ad54ce3757e3807a4ea68ad903466852a987a3a973b",
          "transactionIndex": "0xc0",
          "logIndex": "0x1eb",
          "removed": false
        },
        {
          "address": "0xf593b02bc93128014ccca3828a7afa5a93c64039",
          "topics": [
            "0x03bbe564cb1b78e43195eeadbde99e5b89b19345862807fcfb59f884e4165e25"
          ],
          "data": "0x00000000000000000000000038818e389773445cd73adbaa37b8b169f458c6e100000000000000000000000000000000000000000000000000000274a48a7800",
          "blockHash": "0x565b89ddb5d57a4f268ca386bb55daee15ca5e254d4bd2f13d7e5da5783381d5",
          "blockNumber": "0x748fcb",
          "transactionHash": "0xb7dd13e95375ebda21235ad54ce3757e3807a4ea68ad903466852a987a3a973b",
          "transactionIndex": "0xc0",
          "logIndex": "0x1ec",
          "removed": false
        },
        {
          "address": "0xf593b02bc93128014ccca3828a7afa5a93c64039",
          "topics": [
            "0xaec00f5213a37254bc68a26b0685d1a5b2bf513e1e587c94c7df7f4a62b56c9c"
          ],
          "data": "0x0000000000000000000000000000000000000000000000007ce66c50e2840000000000000000000000000000000000000000000000000000001fa79908f2e000000000000000000000000000000000000000000000000000001fa79908f2e0000000000000000000000000000000000000000000000000007ce66c50e2840000",
          "blockHash": "0x565b89ddb5d57a4f268ca386bb55daee15ca5e254d4bd2f13d7e5da5783381d5",
          "blockNumber": "0x748fcb",
          "transactionHash": "0xb7dd13e95375ebda21235ad54ce3757e3807a4ea68ad903466852a987a3a973b",
          "transactionIndex": "0xc0",
          "logIndex": "0x1ed",
          "removed": false
        },
        {
          "address": "0xf593b02bc93128014ccca3828a7afa5a93c64039",
          "topics": [
            "0x4afcb4a87cdbd9974efdb92ee48bc8d7cd0ae4bf217004db3d080cbaee652ca7"
          ],
          "data": "0x0000000000000000000000000000000000000000000000000000000067a2311c00000000000000000000000000000000000000000000000000038e1153b39c000000000000000000000000000000000000000000000000000000082f79cd9000",
          "blockHash": "0x565b89ddb5d57a4f268ca386bb55daee15ca5e254d4bd2f13d7e5da5783381d5",
          "blockNumber": "0x748fcb",
          "transactionHash": "0xb7dd13e95375ebda21235ad54ce3757e3807a4ea68ad903466852a987a3a973b",
          "transactionIndex": "0xc0",
          "logIndex": "0x1ee",
          "removed": false
        }
      ],
      "logsBloom": "0x00000000000000040000000000000100400000000000000000000000000100200008000000000000040000000000000000002000000000004000000000000000000000800000000000000008000000000000000000000000000000000000000000000000000000000000000000000000220000000000000000000010000000000000000000000000000000000000000000000000000000000000000000000000000000000000000000000400000000004000000000000000000000001000000000000002000000000000000000000000000000000000000000000020000000000000000000000000000000000000000000000100040000000000000000000000",
      "type": "0x2",
      "transactionHash": "0xb7dd13e95375ebda21235ad54ce3757e3807a4ea68ad903466852a987a3a973b",
      "transactionIndex": "0xc0",
      "blockHash": "0x565b89ddb5d57a4f268ca386bb55daee15ca5e254d4bd2f13d7e5da5783381d5",
      "blockNumber": "0x748fcb",
      "gasUsed": "0x3f968",
      "effectiveGasPrice": "0x3bd558399",
      "from": "0xf66076775ad1f36dd12c1f1b10c21d1aadf0d6de",
      "to": "0xf593b02bc93128014ccca3828a7afa5a93c64039",
      "contractAddress": null
    }
  ],
  "libraries": [],
  "pending": [],
  "returns": {},
  "timestamp": 1738682653,
  "chain": 11155111,
  "commit": "5609e42"
}