{
  "transactions": [
    {
      "hash": "0x7e0841acc6b23151d6896ea07dd9d916cc6b070d3433b03829606c944561fff4",
      "transactionType": "CALL",
      "contractName": null,
      "contractAddress": "0x8aafd3ede9adb0ff97c7aebce82a919afb1c8764",
      "function": "sell(uint256)",
      "arguments": [
        "1167875517817"
      ],
      "transaction": {
        "from": "0xc77f7fed3b5cc8249adc428c5f44c9063b9734b4",
        "to": "0x8aafd3ede9adb0ff97c7aebce82a919afb1c8764",
        "gas": "0x15daa",
        "value": "0x0",
        "input": "0xe4849b320000000000000000000000000000000000000000000000000000010feace2d79",
        "nonce": "0x136e",
        "chainId": "0xaa36a7"
      },
      "additionalContracts": [],
      "isFixedGasLimit": false
    }
  ],
  "receipts": [
    {
      "status": "0x1",
      "cumulativeGasUsed": "0xe25fca",
      "logs": [
        {
          "address": "0x8aafd3ede9adb0ff97c7aebce82a919afb1c8764",
          "topics": [
            "0xddf252ad1be2c89b69c2b068fc378daa952ba7f163c4a11628f55a4df523b3ef",
            "0x000000000000000000000000c77f7fed3b5cc8249adc428c5f44c9063b9734b4",
            "0x0000000000000000000000000000000000000000000000000000000000000000"
          ],
          "data": "0x0000000000000000000000000000000000000000000000000000010dbdeb3f8b",
          "blockHash": "0x3f6d721751c774673ecdefc3b446098f6b8d13e01a08a6ba83295a2d7a4975fa",
          "blockNumber": "0x731a8e",
          "transactionHash": "0x7e0841acc6b23151d6896ea07dd9d916cc6b070d3433b03829606c944561fff4",
          "transactionIndex": "0x8c",
          "logIndex": "0x6f",
          "removed": false
        },
        {
          "address": "0x8aafd3ede9adb0ff97c7aebce82a919afb1c8764",
          "topics": [
            "0xddf252ad1be2c89b69c2b068fc378daa952ba7f163c4a11628f55a4df523b3ef",
            "0x000000000000000000000000c77f7fed3b5cc8249adc428c5f44c9063b9734b4",
            "0x000000000000000000000000c77f7fed3b5cc8249adc428c5f44c9063b9734b4"
          ],
          "data": "0x000000000000000000000000000000000000000000000000000000022ce2edee",
          "blockHash": "0x3f6d721751c774673ecdefc3b446098f6b8d13e01a08a6ba83295a2d7a4975fa",
          "blockNumber": "0x731a8e",
          "transactionHash": "0x7e0841acc6b23151d6896ea07dd9d916cc6b070d3433b03829606c944561fff4",
          "transactionIndex": "0x8c",
          "logIndex": "0x70",
          "removed": false
        },
        {
          "address": "0x8aafd3ede9adb0ff97c7aebce82a919afb1c8764",
          "topics": [
            "0x4afcb4a87cdbd9974efdb92ee48bc8d7cd0ae4bf217004db3d080cbaee652ca7"
          ],
          "data": "0x0000000000000000000000000000000000000000000000000000000067903b78000000000000000000000000000000000000000000000000000c798b18eb6fd700000000000000000000000000000000000000000000000000000000f46d546a",
          "blockHash": "0x3f6d721751c774673ecdefc3b446098f6b8d13e01a08a6ba83295a2d7a4975fa",
          "blockNumber": "0x731a8e",
          "transactionHash": "0x7e0841acc6b23151d6896ea07dd9d916cc6b070d3433b03829606c944561fff4",
          "transactionIndex": "0x8c",
          "logIndex": "0x71",
          "removed": false
        }
      ],
      "logsBloom": "0x00000000000000000000000000000000000000000600000000000000000000000000000000000000000000000000000000000000000000004000000000000000000000000000004000000008000000000000000000000000000000000000000000000000020000000000000000000800020000000000000000000010000000000000000000000000000000000000000000000000000000000000010000000000000000000000000000000000000000004000000000000000000000000000000000000002000000800000000000000000000000000000080000000000000020000000000000000000000000000000000000000000000000000000000000000000",
      "type": "0x2",
      "transactionHash": "0x7e0841acc6b23151d6896ea07dd9d916cc6b070d3433b03829606c944561fff4",
      "transactionIndex": "0x8c",
      "blockHash": "0x3f6d721751c774673ecdefc3b446098f6b8d13e01a08a6ba83295a2d7a4975fa",
      "blockNumber": "0x731a8e",
      "gasUsed": "0xfd27",
      "effectiveGasPrice": "0x607599f3",
      "from": "0xc77f7fed3b5cc8249adc428c5f44c9063b9734b4",
      "to": "0x8aafd3ede9adb0ff97c7aebce82a919afb1c8764",
      "contractAddress": null
    }
  ],
  "libraries": [],
  "pending": [],
  "returns": {},
  "timestamp": 1737505657,
  "chain": 11155111,
  "commit": "1d2fb70"
}