{
  "transactions": [
    {
      "hash": "0x931b47b0a5835ab75afaf143776a5890e61887f6fa1735ba18f455522bcc8fbb",
      "transactionType": "CALL",
      "contractName": null,
      "contractAddress": "0x8aafd3ede9adb0ff97c7aebce82a919afb1c8764",
      "function": "sell(uint256)",
      "arguments": [
        "707681756378668554798"
      ],
      "transaction": {
        "from": "0xc77f7fed3b5cc8249adc428c5f44c9063b9734b4",
        "to": "0x8aafd3ede9adb0ff97c7aebce82a919afb1c8764",
        "gas": "0x17270",
        "value": "0x0",
        "input": "0xe4849b320000000000000000000000000000000000000000000000265d0ea7f7bf115a2e",
        "nonce": "0x109b",
        "chainId": "0xaa36a7"
      },
      "additionalContracts": [],
      "isFixedGasLimit": false
    }
  ],
  "receipts": [
    {
      "status": "0x1",
      "cumulativeGasUsed": "0xca85a7",
      "logs": [
        {
          "address": "0x8aafd3ede9adb0ff97c7aebce82a919afb1c8764",
          "topics": [
            "0xddf252ad1be2c89b69c2b068fc378daa952ba7f163c4a11628f55a4df523b3ef",
            "0x000000000000000000000000c77f7fed3b5cc8249adc428c5f44c9063b9734b4",
            "0x0000000000000000000000000000000000000000000000000000000000000000"
          ],
          "data": "0x0000000000000000000000000000000000000000000000260e7d2181074469d8",
          "blockHash": "0xab106cab8c715f49ae32d430daff3a257c4ca7c15d8edd2e14123b66040cd25a",
          "blockNumber": "0x73172b",
          "transactionHash": "0x931b47b0a5835ab75afaf143776a5890e61887f6fa1735ba18f455522bcc8fbb",
          "transactionIndex": "0x8b",
          "logIndex": "0xb0",
          "removed": false
        },
        {
          "address": "0x8aafd3ede9adb0ff97c7aebce82a919afb1c8764",
          "topics": [
            "0xddf252ad1be2c89b69c2b068fc378daa952ba7f163c4a11628f55a4df523b3ef",
            "0x000000000000000000000000c77f7fed3b5cc8249adc428c5f44c9063b9734b4",
            "0x000000000000000000000000c77f7fed3b5cc8249adc428c5f44c9063b9734b4"
          ],
          "data": "0x0000000000000000000000000000000000000000000000004e918676b7ccf056",
          "blockHash": "0xab106cab8c715f49ae32d430daff3a257c4ca7c15d8edd2e14123b66040cd25a",
          "blockNumber": "0x73172b",
          "transactionHash": "0x931b47b0a5835ab75afaf143776a5890e61887f6fa1735ba18f455522bcc8fbb",
          "transactionIndex": "0x8b",
          "logIndex": "0xb1",
          "removed": false
        },
        {
          "address": "0x8aafd3ede9adb0ff97c7aebce82a919afb1c8764",
          "topics": [
            "0x4afcb4a87cdbd9974efdb92ee48bc8d7cd0ae4bf217004db3d080cbaee652ca7"
          ],
          "data": "0x00000000000000000000000000000000000000000000000000000000679012c80000000000000000000000000000000000000000000000000004fda05682997a0000000000000000000000000000000000000000000000000dc8fca786e2308a",
          "blockHash": "0xab106cab8c715f49ae32d430daff3a257c4ca7c15d8edd2e14123b66040cd25a",
          "blockNumber": "0x73172b",
          "transactionHash": "0x931b47b0a5835ab75afaf143776a5890e61887f6fa1735ba18f455522bcc8fbb",
          "transactionIndex": "0x8b",
          "logIndex": "0xb2",
          "removed": false
        }
      ],
      "logsBloom": "0x00000000000000000000000000000000000000000600000000000000000000000000000000000000000000000000000000000000000000004000000000000000000000000000004000000008000000000000000000000000000000000000000000000000020000000000000000000800020000000000000000000010000000000000000000000000000000000000000000000000000000000000010000000000000000000000000000000000000000004000000000000000000000000000000000000002000000800000000000000000000000000000080000000000000020000000000000000000000000000000000000000000000000000000000000000000",
      "type": "0x2",
      "transactionHash": "0x931b47b0a5835ab75afaf143776a5890e61887f6fa1735ba18f455522bcc8fbb",
      "transactionIndex": "0x8b",
      "blockHash": "0xab106cab8c715f49ae32d430daff3a257c4ca7c15d8edd2e14123b66040cd25a",
      "blockNumber": "0x73172b",
      "gasUsed": "0xfd4b",
      "effectiveGasPrice": "0x419b44a8",
      "from": "0xc77f7fed3b5cc8249adc428c5f44c9063b9734b4",
      "to": "0x8aafd3ede9adb0ff97c7aebce82a919afb1c8764",
      "contractAddress": null
    }
  ],
  "libraries": [],
  "pending": [],
  "returns": {},
  "timestamp": 1737495241,
  "chain": 11155111,
  "commit": "1d2fb70"
}