{
  "transactions": [
    {
      "hash": "0x117e4614b87760a2ff7b1e8b34532ef4d7d1e12e3ee74594143c561fb2dbdeea",
      "transactionType": "CALL",
      "contractName": null,
      "contractAddress": "0x8aafd3ede9adb0ff97c7aebce82a919afb1c8764",
      "function": "sell(uint256)",
      "arguments": [
        "351918453006296"
      ],
      "transaction": {
        "from": "0xc77f7fed3b5cc8249adc428c5f44c9063b9734b4",
        "to": "0x8aafd3ede9adb0ff97c7aebce82a919afb1c8764",
        "gas": "0x1724d",
        "value": "0x0",
        "input": "0xe4849b320000000000000000000000000000000000000000000000000001401166619fd8",
        "nonce": "0x11a2",
        "chainId": "0xaa36a7"
      },
      "additionalContracts": [],
      "isFixedGasLimit": false
    }
  ],
  "receipts": [
    {
      "status": "0x1",
      "cumulativeGasUsed": "0x6e3a34",
      "logs": [
        {
          "address": "0x8aafd3ede9adb0ff97c7aebce82a919afb1c8764",
          "topics": [
            "0xddf252ad1be2c89b69c2b068fc378daa952ba7f163c4a11628f55a4df523b3ef",
            "0x000000000000000000000000c77f7fed3b5cc8249adc428c5f44c9063b9734b4",
            "0x0000000000000000000000000000000000000000000000000000000000000000"
          ],
          "data": "0x00000000000000000000000000000000000000000000000000013d81e6961766",
          "blockHash": "0xdfaf81bc478dbabbf47b261f9004b0861eaddecec6ad5ba2db7929fd39a2e5a6",
          "blockNumber": "0x73186b",
          "transactionHash": "0x117e4614b87760a2ff7b1e8b34532ef4d7d1e12e3ee74594143c561fb2dbdeea",
          "transactionIndex": "0x59",
          "logIndex": "0x6c",
          "removed": false
        },
        {
          "address": "0x8aafd3ede9adb0ff97c7aebce82a919afb1c8764",
          "topics": [
            "0xddf252ad1be2c89b69c2b068fc378daa952ba7f163c4a11628f55a4df523b3ef",
            "0x000000000000000000000000c77f7fed3b5cc8249adc428c5f44c9063b9734b4",
            "0x000000000000000000000000c77f7fed3b5cc8249adc428c5f44c9063b9734b4"
          ],
          "data": "0x0000000000000000000000000000000000000000000000000000028f7fcb8872",
          "blockHash": "0xdfaf81bc478dbabbf47b261f9004b0861eaddecec6ad5ba2db7929fd39a2e5a6",
          "blockNumber": "0x73186b",
          "transactionHash": "0x117e4614b87760a2ff7b1e8b34532ef4d7d1e12e3ee74594143c561fb2dbdeea",
          "transactionIndex": "0x59",
          "logIndex": "0x6d",
          "removed": false
        },
        {
          "address": "0x8aafd3ede9adb0ff97c7aebce82a919afb1c8764",
          "topics": [
            "0x4afcb4a87cdbd9974efdb92ee48bc8d7cd0ae4bf217004db3d080cbaee652ca7"
          ],
          "data": "0x00000000000000000000000000000000000000000000000000000000679021d400000000000000000000000000000000000000000000000000052366fd6b357100000000000000000000000000000000000000000000000000000076818defaa",
          "blockHash": "0xdfaf81bc478dbabbf47b261f9004b0861eaddecec6ad5ba2db7929fd39a2e5a6",
          "blockNumber": "0x73186b",
          "transactionHash": "0x117e4614b87760a2ff7b1e8b34532ef4d7d1e12e3ee74594143c561fb2dbdeea",
          "transactionIndex": "0x59",
          "logIndex": "0x6e",
          "removed": false
        }
      ],
      "logsBloom": "0x00000000000000000000000000000000000000000600000000000000000000000000000000000000000000000000000000000000000000004000000000000000000000000000004000000008000000000000000000000000000000000000000000000000020000000000000000000800020000000000000000000010000000000000000000000000000000000000000000000000000000000000010000000000000000000000000000000000000000004000000000000000000000000000000000000002000000800000000000000000000000000000080000000000000020000000000000000000000000000000000000000000000000000000000000000000",
      "type": "0x2",
      "transactionHash": "0x117e4614b87760a2ff7b1e8b34532ef4d7d1e12e3ee74594143c561fb2dbdeea",
      "transactionIndex": "0x59",
      "blockHash": "0xdfaf81bc478dbabbf47b261f9004b0861eaddecec6ad5ba2db7929fd39a2e5a6",
      "blockNumber": "0x73186b",
      "gasUsed": "0xfd33",
      "effectiveGasPrice": "0x412f986d",
      "from": "0xc77f7fed3b5cc8249adc428c5f44c9063b9734b4",
      "to": "0x8aafd3ede9adb0ff97c7aebce82a919afb1c8764",
      "contractAddress": null
    }
  ],
  "libraries": [],
  "pending": [],
  "returns": {},
  "timestamp": 1737499093,
  "chain": 11155111,
  "commit": "1d2fb70"
}