{
  "transactions": [
    {
      "hash": "0x1032ba6903a61198e15e31fcd575fc64d7184a1bf31b7c7166af08296a268520",
      "transactionType": "CALL",
      "contractName": null,
      "contractAddress": "0x8aafd3ede9adb0ff97c7aebce82a919afb1c8764",
      "function": "sell(uint256)",
      "arguments": [
        "359063921209211"
      ],
      "transaction": {
        "from": "0xc77f7fed3b5cc8249adc428c5f44c9063b9734b4",
        "to": "0x8aafd3ede9adb0ff97c7aebce82a919afb1c8764",
        "gas": "0x1724d",
        "value": "0x0",
        "input": "0xe4849b32000000000000000000000000000000000000000000000000000146911579af7b",
        "nonce": "0x10ee",
        "chainId": "0xaa36a7"
      },
      "additionalContracts": [],
      "isFixedGasLimit": false
    }
  ],
  "receipts": [
    {
      "status": "0x1",
      "cumulativeGasUsed": "0x80d04b",
      "logs": [
        {
          "address": "0x8aafd3ede9adb0ff97c7aebce82a919afb1c8764",
          "topics": [
            "0xddf252ad1be2c89b69c2b068fc378daa952ba7f163c4a11628f55a4df523b3ef",
            "0x000000000000000000000000c77f7fed3b5cc8249adc428c5f44c9063b9734b4",
            "0x0000000000000000000000000000000000000000000000000000000000000000"
          ],
          "data": "0x000000000000000000000000000000000000000000000000000143f446749db2",
          "blockHash": "0x3762619c7818fca0af3e593797b151312a9a2ecbdc1d71ac96d37af8cada1656",
          "blockNumber": "0x731794",
          "transactionHash": "0x1032ba6903a61198e15e31fcd575fc64d7184a1bf31b7c7166af08296a268520",
          "transactionIndex": "0x68",
          "logIndex": "0x83",
          "removed": false
        },
        {
          "address": "0x8aafd3ede9adb0ff97c7aebce82a919afb1c8764",
          "topics": [
            "0xddf252ad1be2c89b69c2b068fc378daa952ba7f163c4a11628f55a4df523b3ef",
            "0x000000000000000000000000c77f7fed3b5cc8249adc428c5f44c9063b9734b4",
            "0x000000000000000000000000c77f7fed3b5cc8249adc428c5f44c9063b9734b4"
          ],
          "data": "0x0000000000000000000000000000000000000000000000000000029ccf0511c9",
          "blockHash": "0x3762619c7818fca0af3e593797b151312a9a2ecbdc1d71ac96d37af8cada1656",
          "blockNumber": "0x731794",
          "transactionHash": "0x1032ba6903a61198e15e31fcd575fc64d7184a1bf31b7c7166af08296a268520",
          "transactionIndex": "0x68",
          "logIndex": "0x84",
          "removed": false
        },
        {
          "address": "0x8aafd3ede9adb0ff97c7aebce82a919afb1c8764",
          "topics": [
            "0x4afcb4a87cdbd9974efdb92ee48bc8d7cd0ae4bf217004db3d080cbaee652ca7"
          ],
          "data": "0x00000000000000000000000000000000000000000000000000000000679017b400000000000000000000000000000000000000000000000000050941056c4c26000000000000000000000000000000000000000000000000000000768239e172",
          "blockHash": "0x3762619c7818fca0af3e593797b151312a9a2ecbdc1d71ac96d37af8cada1656",
          "blockNumber": "0x731794",
          "transactionHash": "0x1032ba6903a61198e15e31fcd575fc64d7184a1bf31b7c7166af08296a268520",
          "transactionIndex": "0x68",
          "logIndex": "0x85",
          "removed": false
        }
      ],
      "logsBloom": "0x00000000000000000000000000000000000000000600000000000000000000000000000000000000000000000000000000000000000000004000000000000000000000000000004000000008000000000000000000000000000000000000000000000000020000000000000000000800020000000000000000000010000000000000000000000000000000000000000000000000000000000000010000000000000000000000000000000000000000004000000000000000000000000000000000000002000000800000000000000000000000000000080000000000000020000000000000000000000000000000000000000000000000000000000000000000",
      "type": "0x2",
      "transactionHash": "0x1032ba6903a61198e15e31fcd575fc64d7184a1bf31b7c7166af08296a268520",
      "transactionIndex": "0x68",
      "blockHash": "0x3762619c7818fca0af3e593797b151312a9a2ecbdc1d71ac96d37af8cada1656",
      "blockNumber": "0x731794",
      "gasUsed": "0xfd33",
      "effectiveGasPrice": "0x4867f231",
      "from": "0xc77f7fed3b5cc8249adc428c5f44c9063b9734b4",
      "to": "0x8aafd3ede9adb0ff97c7aebce82a919afb1c8764",
      "contractAddress": null
    }
  ],
  "libraries": [],
  "pending": [],
  "returns": {},
  "timestamp": 1737496501,
  "chain": 11155111,
  "commit": "1d2fb70"
}