{
  "transactions": [
    {
      "hash": "0x0859c3b1bd4f57c45e4e9386042d223663fc02409fa0f472cb5dbdeae4e60416",
      "transactionType": "CALL",
      "contractName": null,
      "contractAddress": "0xbf4a322f1496e5c3d34a9bcdb4c60567b38c7de2",
      "function": "sell(uint256)",
      "arguments": [
        "985413056687555645036"
      ],
      "transaction": {
        "from": "0xc77f7fed3b5cc8249adc428c5f44c9063b9734b4",
        "to": "0xbf4a322f1496e5c3d34a9bcdb4c60567b38c7de2",
        "gas": "0x16fea",
        "value": "0x0",
        "input": "0xe4849b320000000000000000000000000000000000000000000000356b5a721d7d9e8e6c",
        "nonce": "0xa87",
        "chainId": "0xaa36a7"
      },
      "additionalContracts": [],
      "isFixedGasLimit": false
    }
  ],
  "receipts": [
    {
      "status": "0x1",
      "cumulativeGasUsed": "0x169f8e6",
      "logs": [
        {
          "address": "0xbf4a322f1496e5c3d34a9bcdb4c60567b38c7de2",
          "topics": [
            "0xddf252ad1be2c89b69c2b068fc378daa952ba7f163c4a11628f55a4df523b3ef",
            "0x000000000000000000000000c77f7fed3b5cc8249adc428c5f44c9063b9734b4",
            "0x0000000000000000000000000000000000000000000000000000000000000000"
          ],
          "data": "0x0000000000000000000000000000000000000000000000356b5a721d7d9e8e6c",
          "blockHash": "0xf6bd119c0dd2351dab9a3e8b7f82cc89a7d062b9af2a42ea5126167a36b27530",
          "blockNumber": "0x725a69",
          "transactionHash": "0x0859c3b1bd4f57c45e4e9386042d223663fc02409fa0f472cb5dbdeae4e60416",
          "transactionIndex": "0xe9",
          "logIndex": "0x176",
          "removed": false
        },
        {
          "address": "0xbf4a322f1496e5c3d34a9bcdb4c60567b38c7de2",
          "topics": [
            "0x4afcb4a87cdbd9974efdb92ee48bc8d7cd0ae4bf217004db3d080cbaee652ca7"
          ],
          "data": "0x0000000000000000000000000000000000000000000000000000000067872f3c00000000000000000000000000000000000000000000000000039486707da4830000000000000000000000000000000000000000000000000dc7e3eea6d92d64",
          "blockHash": "0xf6bd119c0dd2351dab9a3e8b7f82cc89a7d062b9af2a42ea5126167a36b27530",
          "blockNumber": "0x725a69",
          "transactionHash": "0x0859c3b1bd4f57c45e4e9386042d223663fc02409fa0f472cb5dbdeae4e60416",
          "transactionIndex": "0xe9",
          "logIndex": "0x177",
          "removed": false
        }
      ],
      "logsBloom": "0x00000000000000000000000000000000000000000000000000000000000000000000000000000000000000000000000000000000000000004000000000000000000000000000000000000008000000000000001000000000000000000000000000000000020000000000000000000800020000000000000000000010000000000000000000000000000000000000000000000000000008000000010000000000000000000000000000000000000000004000000000000000000000000000000000000002000000800000000000001000000000000000080000000000000020000000000000000000000000000000000000000000000000000000000000000000",
      "type": "0x2",
      "transactionHash": "0x0859c3b1bd4f57c45e4e9386042d223663fc02409fa0f472cb5dbdeae4e60416",
      "transactionIndex": "0xe9",
      "blockHash": "0xf6bd119c0dd2351dab9a3e8b7f82cc89a7d062b9af2a42ea5126167a36b27530",
      "blockNumber": "0x725a69",
      "gasUsed": "0xfb91",
      "effectiveGasPrice": "0x24440fa87",
      "from": "0xc77f7fed3b5cc8249adc428c5f44c9063b9734b4",
      "to": "0xbf4a322f1496e5c3d34a9bcdb4c60567b38c7de2",
      "contractAddress": null
    }
  ],
  "libraries": [],
  "pending": [],
  "returns": {},
  "timestamp": 1736912702,
  "chain": 11155111,
  "commit": "51a374b"
}