{
  "transactions": [
    {
      "hash": "0xc382ee659e3995bab67841b4239f056d9ced78b4dd8ad8b6db613f9b826cd83a",
      "transactionType": "CALL",
      "contractName": null,
      "contractAddress": "0xbf4a322f1496e5c3d34a9bcdb4c60567b38c7de2",
      "function": "sell(uint256)",
      "arguments": [
        "985630308572685132465"
      ],
      "transaction": {
        "from": "0xc77f7fed3b5cc8249adc428c5f44c9063b9734b4",
        "to": "0xbf4a322f1496e5c3d34a9bcdb4c60567b38c7de2",
        "gas": "0x16fea",
        "value": "0x0",
        "input": "0xe4849b320000000000000000000000000000000000000000000000356e5e478dbd8be2b1",
        "nonce": "0xa77",
        "chainId": "0xaa36a7"
      },
      "additionalContracts": [],
      "isFixedGasLimit": false
    }
  ],
  "receipts": [
    {
      "status": "0x1",
      "cumulativeGasUsed": "0xefa9fa",
      "logs": [
        {
          "address": "0xbf4a322f1496e5c3d34a9bcdb4c60567b38c7de2",
          "topics": [
            "0xddf252ad1be2c89b69c2b068fc378daa952ba7f163c4a11628f55a4df523b3ef",
            "0x000000000000000000000000c77f7fed3b5cc8249adc428c5f44c9063b9734b4",
            "0x0000000000000000000000000000000000000000000000000000000000000000"
          ],
          "data": "0x0000000000000000000000000000000000000000000000356e5e478dbd8be2b1",
          "blockHash": "0x28aa072a545f0f1fa323da7fe0b2249eb27c325e96c3948038b51c78a01db1c5",
          "blockNumber": "0x725a55",
          "transactionHash": "0xc382ee659e3995bab67841b4239f056d9ced78b4dd8ad8b6db613f9b826cd83a",
          "transactionIndex": "0x77",
          "logIndex": "0xf5",
          "removed": false
        },
        {
          "address": "0xbf4a322f1496e5c3d34a9bcdb4c60567b38c7de2",
          "topics": [
            "0x4afcb4a87cdbd9974efdb92ee48bc8d7cd0ae4bf217004db3d080cbaee652ca7"
          ],
          "data": "0x0000000000000000000000000000000000000000000000000000000067872e4c00000000000000000000000000000000000000000000000000039452b94980ba0000000000000000000000000000000000000000000000000dc7e3ef282809a2",
          "blockHash": "0x28aa072a545f0f1fa323da7fe0b2249eb27c325e96c3948038b51c78a01db1c5",
          "blockNumber": "0x725a55",
          "transactionHash": "0xc382ee659e3995bab67841b4239f056d9ced78b4dd8ad8b6db613f9b826cd83a",
          "transactionIndex": "0x77",
          "logIndex": "0xf6",
          "removed": false
        }
      ],
      "logsBloom": "0x00000000000000000000000000000000000000000000000000000000000000000000000000000000000000000000000000000000000000004000000000000000000000000000000000000008000000000000001000000000000000000000000000000000020000000000000000000800020000000000000000000010000000000000000000000000000000000000000000000000000008000000010000000000000000000000000000000000000000004000000000000000000000000000000000000002000000800000000000001000000000000000080000000000000020000000000000000000000000000000000000000000000000000000000000000000",
      "type": "0x2",
      "transactionHash": "0xc382ee659e3995bab67841b4239f056d9ced78b4dd8ad8b6db613f9b826cd83a",
      "transactionIndex": "0x77",
      "blockHash": "0x28aa072a545f0f1fa323da7fe0b2249eb27c325e96c3948038b51c78a01db1c5",
      "blockNumber": "0x725a55",
      "gasUsed": "0xfb91",
      "effectiveGasPrice": "0x2f34dfe15",
      "from": "0xc77f7fed3b5cc8249adc428c5f44c9063b9734b4",
      "to": "0xbf4a322f1496e5c3d34a9bcdb4c60567b38c7de2",
      "contractAddress": null
    }
  ],
  "libraries": [],
  "pending": [],
  "returns": {},
  "timestamp": 1736912462,
  "chain": 11155111,
  "commit": "51a374b"
}