{
  "transactions": [
    {
      "hash": "0xd3e517a0460e0725ae7ccd48ed6eda5d8193dde938efb6af10d3715ac27f36a9",
      "transactionType": "CALL",
      "contractName": null,
      "contractAddress": "0x8aafd3ede9adb0ff97c7aebce82a919afb1c8764",
      "function": "sell(uint256)",
      "arguments": [
        "220987946034724338957"
      ],
      "transaction": {
        "from": "0xc77f7fed3b5cc8249adc428c5f44c9063b9734b4",
        "to": "0x8aafd3ede9adb0ff97c7aebce82a919afb1c8764",
        "gas": "0x17270",
        "value": "0x0",
        "input": "0xe4849b3200000000000000000000000000000000000000000000000bfad2e61302effd0d",
        "nonce": "0x14a5",
        "chainId": "0xaa36a7"
      },
      "additionalContracts": [],
      "isFixedGasLimit": false
    }
  ],
  "receipts": [
    {
      "status": "0x1",
      "cumulativeGasUsed": "0xab206d",
      "logs": [
        {
          "address": "0x8aafd3ede9adb0ff97c7aebce82a919afb1c8764",
          "topics": [
            "0xddf252ad1be2c89b69c2b068fc378daa952ba7f163c4a11628f55a4df523b3ef",
            "0x000000000000000000000000c77f7fed3b5cc8249adc428c5f44c9063b9734b4",
            "0x0000000000000000000000000000000000000000000000000000000000000000"
          ],
          "data": "0x00000000000000000000000000000000000000000000000be24a0b254a980d76",
          "blockHash": "0xd4b6397ec7a3f1f34ec4a5d8e6368d74a45a838c4a6aebc8657bc0b12f24d539",
          "blockNumber": "0x731bf9",
          "transactionHash": "0xd3e517a0460e0725ae7ccd48ed6eda5d8193dde938efb6af10d3715ac27f36a9",
          "transactionIndex": "0x56",
          "logIndex": "0x8c",
          "removed": false
        },
        {
          "address": "0x8aafd3ede9adb0ff97c7aebce82a919afb1c8764",
          "topics": [
            "0xddf252ad1be2c89b69c2b068fc378daa952ba7f163c4a11628f55a4df523b3ef",
            "0x000000000000000000000000c77f7fed3b5cc8249adc428c5f44c9063b9734b4",
            "0x000000000000000000000000c77f7fed3b5cc8249adc428c5f44c9063b9734b4"
          ],
          "data": "0x0000000000000000000000000000000000000000000000001888daedb857ef97",
          "blockHash": "0xd4b6397ec7a3f1f34ec4a5d8e6368d74a45a838c4a6aebc8657bc0b12f24d539",
          "blockNumber": "0x731bf9",
          "transactionHash": "0xd3e517a0460e0725ae7ccd48ed6eda5d8193dde938efb6af10d3715ac27f36a9",
          "transactionIndex": "0x56",
          "logIndex": "0x8d",
          "removed": false
        },
        {
          "address": "0x8aafd3ede9adb0ff97c7aebce82a919afb1c8764",
          "topics": [
            "0x4afcb4a87cdbd9974efdb92ee48bc8d7cd0ae4bf217004db3d080cbaee652ca7"
          ],
          "data": "0x0000000000000000000000000000000000000000000000000000000067904c8800000000000000000000000000000000000000000000000000101115791a08940000000000000000000000000000000000000000000000000dcd63cf46bf6e04",
          "blockHash": "0xd4b6397ec7a3f1f34ec4a5d8e6368d74a45a838c4a6aebc8657bc0b12f24d539",
          "blockNumber": "0x731bf9",
          "transactionHash": "0xd3e517a0460e0725ae7ccd48ed6eda5d8193dde938efb6af10d3715ac27f36a9",
          "transactionIndex": "0x56",
          "logIndex": "0x8e",
          "removed": false
        }
      ],
      "logsBloom": "0x00000000000000000000000000000000000000000600000000000000000000000000000000000000000000000000000000000000000000004000000000000000000000000000004000000008000000000000000000000000000000000000000000000000020000000000000000000800020000000000000000000010000000000000000000000000000000000000000000000000000000000000010000000000000000000000000000000000000000004000000000000000000000000000000000000002000000800000000000000000000000000000080000000000000020000000000000000000000000000000000000000000000000000000000000000000",
      "type": "0x2",
      "transactionHash": "0xd3e517a0460e0725ae7ccd48ed6eda5d8193dde938efb6af10d3715ac27f36a9",
      "transactionIndex": "0x56",
      "blockHash": "0xd4b6397ec7a3f1f34ec4a5d8e6368d74a45a838c4a6aebc8657bc0b12f24d539",
      "blockNumber": "0x731bf9",
      "gasUsed": "0xfd4b",
      "effectiveGasPrice": "0x10a4bb4f5",
      "from": "0xc77f7fed3b5cc8249adc428c5f44c9063b9734b4",
      "to": "0x8aafd3ede9adb0ff97c7aebce82a919afb1c8764",
      "contractAddress": null
    }
  ],
  "libraries": [],
  "pending": [],
  "returns": {},
  "timestamp": 1737510027,
  "chain": 11155111,
  "commit": "1d2fb70"
}