{
  "transactions": [
    {
      "hash": "0x6e4c451a74f6de6f0260ac730ef1e4be53c5fa66d41b646d3ba138e7b8028c99",
      "transactionType": "CALL",
      "contractName": null,
      "contractAddress": "0x8aafd3ede9adb0ff97c7aebce82a919afb1c8764",
      "function": "sell(uint256)",
      "arguments": [
        "352698406673619"
      ],
      "transaction": {
        "from": "0xc77f7fed3b5cc8249adc428c5f44c9063b9734b4",
        "to": "0x8aafd3ede9adb0ff97c7aebce82a919afb1c8764",
        "gas": "0x1724d",
        "value": "0x0",
        "input": "0xe4849b32000000000000000000000000000000000000000000000000000140c6ff3e1cd3",
        "nonce": "0x118e",
        "chainId": "0xaa36a7"
      },
      "additionalContracts": [],
      "isFixedGasLimit": false
    }
  ],
  "receipts": [
    {
      "status": "0x1",
      "cumulativeGasUsed": "0xdf08b0",
      "logs": [
        {
          "address": "0x8aafd3ede9adb0ff97c7aebce82a919afb1c8764",
          "topics": [
            "0xddf252ad1be2c89b69c2b068fc378daa952ba7f163c4a11628f55a4df523b3ef",
            "0x000000000000000000000000c77f7fed3b5cc8249adc428c5f44c9063b9734b4",
            "0x0000000000000000000000000000000000000000000000000000000000000000"
          ],
          "data": "0x00000000000000000000000000000000000000000000000000013e360b896447",
          "blockHash": "0xb40a429a7707d0d4bc95189d99119e8c779dae5d89498cb9f80e1789dadf13be",
          "blockNumber": "0x731852",
          "transactionHash": "0x6e4c451a74f6de6f0260ac730ef1e4be53c5fa66d41b646d3ba138e7b8028c99",
          "transactionIndex": "0x9e",
          "logIndex": "0xbb",
          "removed": false
        },
        {
          "address": "0x8aafd3ede9adb0ff97c7aebce82a919afb1c8764",
          "topics": [
            "0xddf252ad1be2c89b69c2b068fc378daa952ba7f163c4a11628f55a4df523b3ef",
            "0x000000000000000000000000c77f7fed3b5cc8249adc428c5f44c9063b9734b4",
            "0x000000000000000000000000c77f7fed3b5cc8249adc428c5f44c9063b9734b4"
          ],
          "data": "0x00000000000000000000000000000000000000000000000000000290f3b4b88c",
          "blockHash": "0xb40a429a7707d0d4bc95189d99119e8c779dae5d89498cb9f80e1789dadf13be",
          "blockNumber": "0x731852",
          "transactionHash": "0x6e4c451a74f6de6f0260ac730ef1e4be53c5fa66d41b646d3ba138e7b8028c99",
          "transactionIndex": "0x9e",
          "logIndex": "0xbc",
          "removed": false
        },
        {
          "address": "0x8aafd3ede9adb0ff97c7aebce82a919afb1c8764",
          "topics": [
            "0x4afcb4a87cdbd9974efdb92ee48bc8d7cd0ae4bf217004db3d080cbaee652ca7"
          ],
          "data": "0x00000000000000000000000000000000000000000000000000000000679020a80000000000000000000000000000000000000000000000000005207f21ce069c0000000000000000000000000000000000000000000000000000007681a0b56c",
          "blockHash": "0xb40a429a7707d0d4bc95189d99119e8c779dae5d89498cb9f80e1789dadf13be",
          "blockNumber": "0x731852",
          "transactionHash": "0x6e4c451a74f6de6f0260ac730ef1e4be53c5fa66d41b646d3ba138e7b8028c99",
          "transactionIndex": "0x9e",
          "logIndex": "0xbd",
          "removed": false
        }
      ],
      "logsBloom": "0x00000000000000000000000000000000000000000600000000000000000000000000000000000000000000000000000000000000000000004000000000000000000000000000004000000008000000000000000000000000000000000000000000000000020000000000000000000800020000000000000000000010000000000000000000000000000000000000000000000000000000000000010000000000000000000000000000000000000000004000000000000000000000000000000000000002000000800000000000000000000000000000080000000000000020000000000000000000000000000000000000000000000000000000000000000000",
      "type": "0x2",
      "transactionHash": "0x6e4c451a74f6de6f0260ac730ef1e4be53c5fa66d41b646d3ba138e7b8028c99",
      "transactionIndex": "0x9e",
      "blockHash": "0xb40a429a7707d0d4bc95189d99119e8c779dae5d89498cb9f80e1789dadf13be",
      "blockNumber": "0x731852",
      "gasUsed": "0xfd33",
      "effectiveGasPrice": "0x3a47b149",
      "from": "0xc77f7fed3b5cc8249adc428c5f44c9063b9734b4",
      "to": "0x8aafd3ede9adb0ff97c7aebce82a919afb1c8764",
      "contractAddress": null
    }
  ],
  "libraries": [],
  "pending": [],
  "returns": {},
  "timestamp": 1737498795,
  "chain": 11155111,
  "commit": "1d2fb70"
}