{
  "transactions": [
    {
      "hash": "0xf039fc30ddbcb8fd025d90583c70d8dc3500d79f66e363ab36760d36ed3341ba",
      "transactionType": "CALL",
      "contractName": null,
      "contractAddress": "0x270e88f8683660553e8ba4eb2ad7c91a1710d769",
      "function": "buy(address)",
      "arguments": [
        "0xC77f7fed3b5Cc8249aDc428c5F44C9063B9734b4"
      ],
      "transaction": {
        "from": "0xc77f7fed3b5cc8249adc428c5f44c9063b9734b4",
        "to": "0x270e88f8683660553e8ba4eb2ad7c91a1710d769",
        "gas": "0x1b30c",
        "value": "0xde0b6b3a7640000",
        "input": "0xf088d547000000000000000000000000c77f7fed3b5cc8249adc428c5f44c9063b9734b4",
        "nonce": "0x847",
        "chainId": "0xaa36a7"
      },
      "additionalContracts": [],
      "isFixedGasLimit": false
    }
  ],
  "receipts": [
    {
      "status": "0x1",
      "cumulativeGasUsed": "0x104f569",
      "logs": [
        {
          "address": "0x270e88f8683660553e8ba4eb2ad7c91a1710d769",
          "topics": [
            "0xddf252ad1be2c89b69c2b068fc378daa952ba7f163c4a11628f55a4df523b3ef",
            "0x0000000000000000000000000000000000000000000000000000000000000000",
            "0x000000000000000000000000c77f7fed3b5cc8249adc428c5f44c9063b9734b4"
          ],
          "data": "0x000000000000000000000000000000000000000000000026be8b123a698c7570",
          "blockHash": "0x9a24de9a07bbd1b0130ce4a3e983a6244204ab3e2d6fd66552d108e3a64b1ab3",
          "blockNumber": "0x725596",
          "transactionHash": "0xf039fc30ddbcb8fd025d90583c70d8dc3500d79f66e363ab36760d36ed3341ba",
          "transactionIndex": "0x3a",
          "logIndex": "0x5e",
          "removed": false
        },
        {
          "address": "0x270e88f8683660553e8ba4eb2ad7c91a1710d769",
          "topics": [
            "0xddf252ad1be2c89b69c2b068fc378daa952ba7f163c4a11628f55a4df523b3ef",
            "0x0000000000000000000000000000000000000000000000000000000000000000",
            "0x000000000000000000000000c77f7fed3b5cc8249adc428c5f44c9063b9734b4"
          ],
          "data": "0x0000000000000000000000000000000000000000000000001e16164f8df3c4bf",
          "blockHash": "0x9a24de9a07bbd1b0130ce4a3e983a6244204ab3e2d6fd66552d108e3a64b1ab3",
          "blockNumber": "0x725596",
          "transactionHash": "0xf039fc30ddbcb8fd025d90583c70d8dc3500d79f66e363ab36760d36ed3341ba",
          "transactionIndex": "0x3a",
          "logIndex": "0x5f",
          "removed": false
        },
        {
          "address": "0x270e88f8683660553e8ba4eb2ad7c91a1710d769",
          "topics": [
            "0x4afcb4a87cdbd9974efdb92ee48bc8d7cd0ae4bf217004db3d080cbaee652ca7"
          ],
          "data": "0x000000000000000000000000000000000000000000000000000000006786f5100000000000000000000000000000000000000000000000000004ebec2c3dc3270000000000000000000000000000000000000000000000000de0b6b3a7640000",
          "blockHash": "0x9a24de9a07bbd1b0130ce4a3e983a6244204ab3e2d6fd66552d108e3a64b1ab3",
          "blockNumber": "0x725596",
          "transactionHash": "0xf039fc30ddbcb8fd025d90583c70d8dc3500d79f66e363ab36760d36ed3341ba",
          "transactionIndex": "0x3a",
          "logIndex": "0x60",
          "removed": false
        }
      ],
      "logsBloom": "0x00000000000000000000000000000000000000000000000000000000000000000000000000000000000000000000000020000000000000004000000000000000000000000000000000000008000000000000000000000000000000000000000000000000020000000000000000000800020000000000000000000010000000000000000000010000000000000000000000000000000000000000010000000000000000000000000000000000000000004000000000000000000000000000000000000002000000800000000000000000000000000000080000008000000020000000000000000000000000000000000000000000000000000000000000000000",
      "type": "0x2",
      "transactionHash": "0xf039fc30ddbcb8fd025d90583c70d8dc3500d79f66e363ab36760d36ed3341ba",
      "transactionIndex": "0x3a",
      "blockHash": "0x9a24de9a07bbd1b0130ce4a3e983a6244204ab3e2d6fd66552d108e3a64b1ab3",
      "blockNumber": "0x725596",
      "gasUsed": "0x13af8",
      "effectiveGasPrice": "0x728cb55c",
      "from": "0xc77f7fed3b5cc8249adc428c5f44c9063b9734b4",
      "to": "0x270e88f8683660553e8ba4eb2ad7c91a1710d769",
      "contractAddress": null
    }
  ],
  "libraries": [],
  "pending": [],
  "returns": {},
  "timestamp": 1736897808,
  "chain": 11155111,
  "commit": "51a374b"
}