{
  "transactions": [
    {
      "hash": "0xa8b46587890db29be5446fa10b44acfce43be2fb1fdc31474b3baa3a8c9bdc79",
      "transactionType": "CALL",
      "contractName": null,
      "contractAddress": "0xd7bc75898e513accccf720a874d44dab5a4b6223",
      "function": "buy(address)",
      "arguments": [
        "0xC77f7fed3b5Cc8249aDc428c5F44C9063B9734b4"
      ],
      "transaction": {
        "from": "0xc77f7fed3b5cc8249adc428c5f44c9063b9734b4",
        "to": "0xd7bc75898e513accccf720a874d44dab5a4b6223",
        "gas": "0x1b30c",
        "value": "0x16345785d8a0000",
        "input": "0xf088d547000000000000000000000000c77f7fed3b5cc8249adc428c5f44c9063b9734b4",
        "nonce": "0x7b",
        "chainId": "0xaa36a7"
      },
      "additionalContracts": [],
      "isFixedGasLimit": false
    },
    {
      "hash": "0xc7c2800dce482a17a7020b50882465faa6641b8aa5b0d87ac82305c846aba683",
      "transactionType": "CALL",
      "contractName": null,
      "contractAddress": "0xd7bc75898e513accccf720a874d44dab5a4b6223",
      "function": "sell(uint256)",
      "arguments": [
        "99300258214100246040"
      ],
      "transaction": {
        "from": "0xc77f7fed3b5cc8249adc428c5f44c9063b9734b4",
        "to": "0xd7bc75898e513accccf720a874d44dab5a4b6223",
        "gas": "0x16fec",
        "value": "0x0",
        "input": "0xe4849b32000000000000000000000000000000000000000000000005621162bafc029e18",
        "nonce": "0x7c",
        "chainId": "0xaa36a7"
      },
      "additionalContracts": [],
      "isFixedGasLimit": false
    }
  ],
  "receipts": [
    {
      "status": "0x1",
      "cumulativeGasUsed": "0xc46b9c",
      "logs": [
        {
          "address": "0xd7bc75898e513accccf720a874d44dab5a4b6223",
          "topics": [
            "0xddf252ad1be2c89b69c2b068fc378daa952ba7f163c4a11628f55a4df523b3ef",
            "0x0000000000000000000000000000000000000000000000000000000000000000",
            "0x000000000000000000000000c77f7fed3b5cc8249adc428c5f44c9063b9734b4"
          ],
          "data": "0x0000000000000000000000000000000000000000000000055de6815068e16b99",
          "blockHash": "0xc506b79e19396a6ff47707be138faad43cf30313847dd96dac097353abe1cec5",
          "blockNumber": "0x7238a3",
          "transactionHash": "0xa8b46587890db29be5446fa10b44acfce43be2fb1fdc31474b3baa3a8c9bdc79",
          "transactionIndex": "0x67",
          "logIndex": "0xc7",
          "removed": false
        },
        {
          "address": "0xd7bc75898e513accccf720a874d44dab5a4b6223",
          "topics": [
            "0xddf252ad1be2c89b69c2b068fc378daa952ba7f163c4a11628f55a4df523b3ef",
            "0x0000000000000000000000000000000000000000000000000000000000000000",
            "0x000000000000000000000000c77f7fed3b5cc8249adc428c5f44c9063b9734b4"
          ],
          "data": "0x000000000000000000000000000000000000000000000000042ae16a9321327f",
          "blockHash": "0xc506b79e19396a6ff47707be138faad43cf30313847dd96dac097353abe1cec5",
          "blockNumber": "0x7238a3",
          "transactionHash": "0xa8b46587890db29be5446fa10b44acfce43be2fb1fdc31474b3baa3a8c9bdc79",
          "transactionIndex": "0x67",
          "logIndex": "0xc8",
          "removed": false
        },
        {
          "address": "0xd7bc75898e513accccf720a874d44dab5a4b6223",
          "topics": [
            "0x4afcb4a87cdbd9974efdb92ee48bc8d7cd0ae4bf217004db3d080cbaee652ca7"
          ],
          "data": "0x00000000000000000000000000000000000000000000000000000000678598ec00000000000000000000000000000000000000000000000000038d7ebebb8a3c000000000000000000000000000000000000000000000000016345785d8a0000",
          "blockHash": "0xc506b79e19396a6ff47707be138faad43cf30313847dd96dac097353abe1cec5",
          "blockNumber": "0x7238a3",
          "transactionHash": "0xa8b46587890db29be5446fa10b44acfce43be2fb1fdc31474b3baa3a8c9bdc79",
          "transactionIndex": "0x67",
          "logIndex": "0xc9",
          "removed": false
        }
      ],
      "logsBloom": "0x00000000000000000000000000000000000000000000000000000000000000000000000000000000000000000000000000000000000000004000000000000000000000000000000000000008000000000000000000000000000000000000000000000000020000000000000000000800020000000000000000000010000000000000000000000000000000000000000000000000000000000000010000000000000000000000000000000000000000004000001000000000000000000000000000000002000000800000000000004000000000000000080000000000000020000000000000000000000000000000000000000000080000000000000000000000",
      "type": "0x2",
      "transactionHash": "0xa8b46587890db29be5446fa10b44acfce43be2fb1fdc31474b3baa3a8c9bdc79",
      "transactionIndex": "0x67",
      "blockHash": "0xc506b79e19396a6ff47707be138faad43cf30313847dd96dac097353abe1cec5",
      "blockNumber": "0x7238a3",
      "gasUsed": "0x13af8",
      "effectiveGasPrice": "0x1f2d8ad",
      "from": "0xc77f7fed3b5cc8249adc428c5f44c9063b9734b4",
      "to": "0xd7bc75898e513accccf720a874d44dab5a4b6223",
      "contractAddress": null
    },
    {
      "status": "0x1",
      "cumulativeGasUsed": "0xc5672f",
      "logs": [
        {
          "address": "0xd7bc75898e513accccf720a874d44dab5a4b6223",
          "topics": [
            "0xddf252ad1be2c89b69c2b068fc378daa952ba7f163c4a11628f55a4df523b3ef",
            "0x000000000000000000000000c77f7fed3b5cc8249adc428c5f44c9063b9734b4",
            "0x0000000000000000000000000000000000000000000000000000000000000000"
          ],
          "data": "0x000000000000000000000000000000000000000000000005621162bafc029e18",
          "blockHash": "0xc506b79e19396a6ff47707be138faad43cf30313847dd96dac097353abe1cec5",
          "blockNumber": "0x7238a3",
          "transactionHash": "0xc7c2800dce482a17a7020b50882465faa6641b8aa5b0d87ac82305c846aba683",
          "transactionIndex": "0x68",
          "logIndex": "0xca",
          "removed": false
        },
        {
          "address": "0xd7bc75898e513accccf720a874d44dab5a4b6223",
          "topics": [
            "0x4afcb4a87cdbd9974efdb92ee48bc8d7cd0ae4bf217004db3d080cbaee652ca7"
          ],
          "data": "0x00000000000000000000000000000000000000000000000000000000678598ec00000000000000000000000000000000000000000000000000038d7ebff735030000000000000000000000000000000000000000000000000160c9191a82ecce",
          "blockHash": "0xc506b79e19396a6ff47707be138faad43cf30313847dd96dac097353abe1cec5",
          "blockNumber": "0x7238a3",
          "transactionHash": "0xc7c2800dce482a17a7020b50882465faa6641b8aa5b0d87ac82305c846aba683",
          "transactionIndex": "0x68",
          "logIndex": "0xcb",
          "removed": false
        }
      ],
      "logsBloom": "0x00000000000000000000000000000000000000000000000000000000000000000000000000000000000000000000000000000000000000004000000000000000000000000000000000000008000000000000000000000000000000000000000000000000020000000000000000000800020000000000000000000010000000000000000000000000000000000000000000000000000000000000010000000000000000000000000000000000000000004000001000000000000000000000000000000002000000800000000000004000000000000000080000000000000020000000000000000000000000000000000000000000080000000000000000000000",
      "type": "0x2",
      "transactionHash": "0xc7c2800dce482a17a7020b50882465faa6641b8aa5b0d87ac82305c846aba683",
      "transactionIndex": "0x68",
      "blockHash": "0xc506b79e19396a6ff47707be138faad43cf30313847dd96dac097353abe1cec5",
      "blockNumber": "0x7238a3",
      "gasUsed": "0xfb93",
      "effectiveGasPrice": "0x1f2d8ad",
      "from": "0xc77f7fed3b5cc8249adc428c5f44c9063b9734b4",
      "to": "0xd7bc75898e513accccf720a874d44dab5a4b6223",
      "contractAddress": null
    }
  ],
  "libraries": [],
  "pending": [],
  "returns": {},
  "timestamp": 1736808686,
  "chain": 11155111,
  "commit": "51a374b"
}