{
  "transactions": [
    {
      "hash": "0xa9a7bf79ada4f83d952e6eedb6bab5e2f16fde0ad22bacd10f8dd3f2ac7010f8",
      "transactionType": "CALL",
      "contractName": null,
      "contractAddress": "0x5eb9cc76c3506942c1c0ead70e877dd5e4f00cb0",
      "function": "sell(uint256)",
      "arguments": [
        "989121990327545845178"
      ],
      "transaction": {
        "from": "0xc77f7fed3b5cc8249adc428c5f44c9063b9734b4",
        "to": "0x5eb9cc76c3506942c1c0ead70e877dd5e4f00cb0",
        "gas": "0x16fec",
        "value": "0x0",
        "input": "0xe4849b320000000000000000000000000000000000000000000000359ed3399c28bb55ba",
        "nonce": "0x377",
        "chainId": "0xaa36a7"
      },
      "additionalContracts": [],
      "isFixedGasLimit": false
    }
  ],
  "receipts": [
    {
      "status": "0x1",
      "cumulativeGasUsed": "0x759174",
      "logs": [
        {
          "address": "0x5eb9cc76c3506942c1c0ead70e877dd5e4f00cb0",
          "topics": [
            "0xddf252ad1be2c89b69c2b068fc378daa952ba7f163c4a11628f55a4df523b3ef",
            "0x000000000000000000000000c77f7fed3b5cc8249adc428c5f44c9063b9734b4",
            "0x0000000000000000000000000000000000000000000000000000000000000000"
          ],
          "data": "0x0000000000000000000000000000000000000000000000359ed3399c28bb55ba",
          "blockHash": "0x5151a06faace7b8720619f0e6ddbaf8666736798ab190853a9fb4b6bbc7418cb",
          "blockNumber": "0x724f6f",
          "transactionHash": "0xa9a7bf79ada4f83d952e6eedb6bab5e2f16fde0ad22bacd10f8dd3f2ac7010f8",
          "transactionIndex": "0x3d",
          "logIndex": "0x51",
          "removed": false
        },
        {
          "address": "0x5eb9cc76c3506942c1c0ead70e877dd5e4f00cb0",
          "topics": [
            "0x4afcb4a87cdbd9974efdb92ee48bc8d7cd0ae4bf217004db3d080cbaee652ca7"
          ],
          "data": "0x000000000000000000000000000000000000000000000000000000006786aae800000000000000000000000000000000000000000000000000039110467bcb430000000000000000000000000000000000000000000000000dc7db13320e93c4",
          "blockHash": "0x5151a06faace7b8720619f0e6ddbaf8666736798ab190853a9fb4b6bbc7418cb",
          "blockNumber": "0x724f6f",
          "transactionHash": "0xa9a7bf79ada4f83d952e6eedb6bab5e2f16fde0ad22bacd10f8dd3f2ac7010f8",
          "transactionIndex": "0x3d",
          "logIndex": "0x52",
          "removed": false
        }
      ],
      "logsBloom": "0x00000000000000000000000000000000000000000000000000000000000000000000000000000000000000000000000000000000000000004000000000000000000000000000000000000008000000000000000000000000000000000000000000000000020000000000000004000800020000000000000000000010000000000000000000000000000000000000000000000000000000000000010000000000000000000000000000000000000000004000000000000000000000000000020000000002000000800000008000000000000000000000080000000000000020000000000000000000000000000000000000000000000000000000000000000000",
      "type": "0x2",
      "transactionHash": "0xa9a7bf79ada4f83d952e6eedb6bab5e2f16fde0ad22bacd10f8dd3f2ac7010f8",
      "transactionIndex": "0x3d",
      "blockHash": "0x5151a06faace7b8720619f0e6ddbaf8666736798ab190853a9fb4b6bbc7418cb",
      "blockNumber": "0x724f6f",
      "gasUsed": "0xfb93",
      "effectiveGasPrice": "0x625b8b3f8",
      "from": "0xc77f7fed3b5cc8249adc428c5f44c9063b9734b4",
      "to": "0x5eb9cc76c3506942c1c0ead70e877dd5e4f00cb0",
      "contractAddress": null
    }
  ],
  "libraries": [],
  "pending": [],
  "returns": {},
  "timestamp": 1736878825,
  "chain": 11155111,
  "commit": "51a374b"
}