{
  "transactions": [
    {
      "hash": "0xce4e10428c8496d4bf2a00806282be6fbb2778c8466dd8d69bf0a57f35b920cb",
      "transactionType": "CALL",
      "contractName": null,
      "contractAddress": "0x8aafd3ede9adb0ff97c7aebce82a919afb1c8764",
      "function": "sell(uint256)",
      "arguments": [
        "9282273822793997"
      ],
      "transaction": {
        "from": "0xc77f7fed3b5cc8249adc428c5f44c9063b9734b4",
        "to": "0x8aafd3ede9adb0ff97c7aebce82a919afb1c8764",
        "gas": "0x1724d",
        "value": "0x0",
        "input": "0xe4849b320000000000000000000000000000000000000000000000000020fa2dc9ea610d",
        "nonce": "0x1777",
        "chainId": "0xaa36a7"
      },
      "additionalContracts": [],
      "isFixedGasLimit": false
    }
  ],
  "receipts": [
    {
      "status": "0x1",
      "cumulativeGasUsed": "0x6a4890",
      "logs": [
        {
          "address": "0x8aafd3ede9adb0ff97c7aebce82a919afb1c8764",
          "topics": [
            "0xddf252ad1be2c89b69c2b068fc378daa952ba7f163c4a11628f55a4df523b3ef",
            "0x000000000000000000000000c77f7fed3b5cc8249adc428c5f44c9063b9734b4",
            "0x0000000000000000000000000000000000000000000000000000000000000000"
          ],
          "data": "0x0000000000000000000000000000000000000000000000000020b6a434d81ebe",
          "blockHash": "0xf2b202bbb2b6512c27f452c2e18ae92a1abc7ac6ebbb73898bf8492faeaf6780",
          "blockNumber": "0x731f51",
          "transactionHash": "0xce4e10428c8496d4bf2a00806282be6fbb2778c8466dd8d69bf0a57f35b920cb",
          "transactionIndex": "0x56",
          "logIndex": "0x67",
          "removed": false
        },
        {
          "address": "0x8aafd3ede9adb0ff97c7aebce82a919afb1c8764",
          "topics": [
            "0xddf252ad1be2c89b69c2b068fc378daa952ba7f163c4a11628f55a4df523b3ef",
            "0x000000000000000000000000c77f7fed3b5cc8249adc428c5f44c9063b9734b4",
            "0x000000000000000000000000c77f7fed3b5cc8249adc428c5f44c9063b9734b4"
          ],
          "data": "0x000000000000000000000000000000000000000000000000000043899512424f",
          "blockHash": "0xf2b202bbb2b6512c27f452c2e18ae92a1abc7ac6ebbb73898bf8492faeaf6780",
          "blockNumber": "0x731f51",
          "transactionHash": "0xce4e10428c8496d4bf2a00806282be6fbb2778c8466dd8d69bf0a57f35b920cb",
          "transactionIndex": "0x56",
          "logIndex": "0x68",
          "removed": false
        },
        {
          "address": "0x8aafd3ede9adb0ff97c7aebce82a919afb1c8764",
          "topics": [
            "0x4afcb4a87cdbd9974efdb92ee48bc8d7cd0ae4bf217004db3d080cbaee652ca7"
          ],
          "data": "0x00000000000000000000000000000000000000000000000000000000679074b400000000000000000000000000000000000000000000000000186df54de4f83e00000000000000000000000000000000000000000000000000003a0d0a74d02a",
          "blockHash": "0xf2b202bbb2b6512c27f452c2e18ae92a1abc7ac6ebbb73898bf8492faeaf6780",
          "blockNumber": "0x731f51",
          "transactionHash": "0xce4e10428c8496d4bf2a00806282be6fbb2778c8466dd8d69bf0a57f35b920cb",
          "transactionIndex": "0x56",
          "logIndex": "0x69",
          "removed": false
        }
      ],
      "logsBloom": "0x00000000000000000000000000000000000000000600000000000000000000000000000000000000000000000000000000000000000000004000000000000000000000000000004000000008000000000000000000000000000000000000000000000000020000000000000000000800020000000000000000000010000000000000000000000000000000000000000000000000000000000000010000000000000000000000000000000000000000004000000000000000000000000000000000000002000000800000000000000000000000000000080000000000000020000000000000000000000000000000000000000000000000000000000000000000",
      "type": "0x2",
      "transactionHash": "0xce4e10428c8496d4bf2a00806282be6fbb2778c8466dd8d69bf0a57f35b920cb",
      "transactionIndex": "0x56",
      "blockHash": "0xf2b202bbb2b6512c27f452c2e18ae92a1abc7ac6ebbb73898bf8492faeaf6780",
      "blockNumber": "0x731f51",
      "gasUsed": "0xfd33",
      "effectiveGasPrice": "0x4b5964b4",
      "from": "0xc77f7fed3b5cc8249adc428c5f44c9063b9734b4",
      "to": "0x8aafd3ede9adb0ff97c7aebce82a919afb1c8764",
      "contractAddress": null
    }
  ],
  "libraries": [],
  "pending": [],
  "returns": {},
  "timestamp": 1737520309,
  "chain": 11155111,
  "commit": "1d2fb70"
}