{
  "transactions": [
    {
      "hash": "0x2027ca8efcb3eb551397d5bdbe9379493dc30eca2e524d6447f5c38cf42b7604",
      "transactionType": "CALL",
      "contractName": null,
      "contractAddress": "0x8aafd3ede9adb0ff97c7aebce82a919afb1c8764",
      "function": "sell(uint256)",
      "arguments": [
        "226857167171834634755"
      ],
      "transaction": {
        "from": "0xc77f7fed3b5cc8249adc428c5f44c9063b9734b4",
        "to": "0x8aafd3ede9adb0ff97c7aebce82a919afb1c8764",
        "gas": "0x17270",
        "value": "0x0",
        "input": "0xe4849b3200000000000000000000000000000000000000000000000c4c468f9a1c9c6203",
        "nonce": "0x1481",
        "chainId": "0xaa36a7"
      },
      "additionalContracts": [],
      "isFixedGasLimit": false
    }
  ],
  "receipts": [
    {
      "status": "0x1",
      "cumulativeGasUsed": "0xa7137c",
      "logs": [
        {
          "address": "0x8aafd3ede9adb0ff97c7aebce82a919afb1c8764",
          "topics": [
            "0xddf252ad1be2c89b69c2b068fc378daa952ba7f163c4a11628f55a4df523b3ef",
            "0x000000000000000000000000c77f7fed3b5cc8249adc428c5f44c9063b9734b4",
            "0x0000000000000000000000000000000000000000000000000000000000000000"
          ],
          "data": "0x00000000000000000000000000000000000000000000000c3316e4781c61c9ad",
          "blockHash": "0xa5a876d2fe91e8eb43731500f364183f74dcef719eca6827dc22f5501bbb8029",
          "blockNumber": "0x731bce",
          "transactionHash": "0x2027ca8efcb3eb551397d5bdbe9379493dc30eca2e524d6447f5c38cf42b7604",
          "transactionIndex": "0x4b",
          "logIndex": "0x5d",
          "removed": false
        },
        {
          "address": "0x8aafd3ede9adb0ff97c7aebce82a919afb1c8764",
          "topics": [
            "0xddf252ad1be2c89b69c2b068fc378daa952ba7f163c4a11628f55a4df523b3ef",
            "0x000000000000000000000000c77f7fed3b5cc8249adc428c5f44c9063b9734b4",
            "0x000000000000000000000000c77f7fed3b5cc8249adc428c5f44c9063b9734b4"
          ],
          "data": "0x000000000000000000000000000000000000000000000000192fab22003a9856",
          "blockHash": "0xa5a876d2fe91e8eb43731500f364183f74dcef719eca6827dc22f5501bbb8029",
          "blockNumber": "0x731bce",
          "transactionHash": "0x2027ca8efcb3eb551397d5bdbe9379493dc30eca2e524d6447f5c38cf42b7604",
          "transactionIndex": "0x4b",
          "logIndex": "0x5e",
          "removed": false
        },
        {
          "address": "0x8aafd3ede9adb0ff97c7aebce82a919afb1c8764",
          "topics": [
            "0x4afcb4a87cdbd9974efdb92ee48bc8d7cd0ae4bf217004db3d080cbaee652ca7"
          ],
          "data": "0x0000000000000000000000000000000000000000000000000000000067904a84000000000000000000000000000000000000000000000000000fa7500efb7d420000000000000000000000000000000000000000000000000dcd80e3b9f4c182",
          "blockHash": "0xa5a876d2fe91e8eb43731500f364183f74dcef719eca6827dc22f5501bbb8029",
          "blockNumber": "0x731bce",
          "transactionHash": "0x2027ca8efcb3eb551397d5bdbe9379493dc30eca2e524d6447f5c38cf42b7604",
          "transactionIndex": "0x4b",
          "logIndex": "0x5f",
          "removed": false
        }
      ],
      "logsBloom": "0x00000000000000000000000000000000000000000600000000000000000000000000000000000000000000000000000000000000000000004000000000000000000000000000004000000008000000000000000000000000000000000000000000000000020000000000000000000800020000000000000000000010000000000000000000000000000000000000000000000000000000000000010000000000000000000000000000000000000000004000000000000000000000000000000000000002000000800000000000000000000000000000080000000000000020000000000000000000000000000000000000000000000000000000000000000000",
      "type": "0x2",
      "transactionHash": "0x2027ca8efcb3eb551397d5bdbe9379493dc30eca2e524d6447f5c38cf42b7604",
      "transactionIndex": "0x4b",
      "blockHash": "0xa5a876d2fe91e8eb43731500f364183f74dcef719eca6827dc22f5501bbb8029",
      "blockNumber": "0x731bce",
      "gasUsed": "0xfd4b",
      "effectiveGasPrice": "0x11200d32b",
      "from": "0xc77f7fed3b5cc8249adc428c5f44c9063b9734b4",
      "to": "0x8aafd3ede9adb0ff97c7aebce82a919afb1c8764",
      "contractAddress": null
    }
  ],
  "libraries": [],
  "pending": [],
  "returns": {},
  "timestamp": 1737509510,
  "chain": 11155111,
  "commit": "1d2fb70"
}