{
  "transactions": [
    {
      "hash": "0x4dd6e4aa386a829a70749e358588af66d1140b770eac05e4d3423fd331aca064",
      "transactionType": "CALL",
      "contractName": null,
      "contractAddress": "0x8aafd3ede9adb0ff97c7aebce82a919afb1c8764",
      "function": "sell(uint256)",
      "arguments": [
        "349215404959995"
      ],
      "transaction": {
        "from": "0xc77f7fed3b5cc8249adc428c5f44c9063b9734b4",
        "to": "0x8aafd3ede9adb0ff97c7aebce82a919afb1c8764",
        "gas": "0x1724d",
        "value": "0x0",
        "input": "0xe4849b3200000000000000000000000000000000000000000000000000013d9c0c29a8fb",
        "nonce": "0x11e8",
        "chainId": "0xaa36a7"
      },
      "additionalContracts": [],
      "isFixedGasLimit": false
    }
  ],
  "receipts": [
    {
      "status": "0x1",
      "cumulativeGasUsed": "0xa3c5f8",
      "logs": [
        {
          "address": "0x8aafd3ede9adb0ff97c7aebce82a919afb1c8764",
          "topics": [
            "0xddf252ad1be2c89b69c2b068fc378daa952ba7f163c4a11628f55a4df523b3ef",
            "0x000000000000000000000000c77f7fed3b5cc8249adc428c5f44c9063b9734b4",
            "0x0000000000000000000000000000000000000000000000000000000000000000"
          ],
          "data": "0x00000000000000000000000000000000000000000000000000013b1195480bfc",
          "blockHash": "0x19694d92dd0c11312df1797bcf1a500cf985840e609fe64d93a72c808abec3c9",
          "blockNumber": "0x7318bf",
          "transactionHash": "0x4dd6e4aa386a829a70749e358588af66d1140b770eac05e4d3423fd331aca064",
          "transactionIndex": "0x90",
          "logIndex": "0x9c",
          "removed": false
        },
        {
          "address": "0x8aafd3ede9adb0ff97c7aebce82a919afb1c8764",
          "topics": [
            "0xddf252ad1be2c89b69c2b068fc378daa952ba7f163c4a11628f55a4df523b3ef",
            "0x000000000000000000000000c77f7fed3b5cc8249adc428c5f44c9063b9734b4",
            "0x000000000000000000000000c77f7fed3b5cc8249adc428c5f44c9063b9734b4"
          ],
          "data": "0x0000000000000000000000000000000000000000000000000000028a76e19cff",
          "blockHash": "0x19694d92dd0c11312df1797bcf1a500cf985840e609fe64d93a72c808abec3c9",
          "blockNumber": "0x7318bf",
          "transactionHash": "0x4dd6e4aa386a829a70749e358588af66d1140b770eac05e4d3423fd331aca064",
          "transactionIndex": "0x90",
          "logIndex": "0x9d",
          "removed": false
        },
        {
          "address": "0x8aafd3ede9adb0ff97c7aebce82a919afb1c8764",
          "topics": [
            "0x4afcb4a87cdbd9974efdb92ee48bc8d7cd0ae4bf217004db3d080cbaee652ca7"
          ],
          "data": "0x00000000000000000000000000000000000000000000000000000000679025c400000000000000000000000000000000000000000000000000052d92a77305bf00000000000000000000000000000000000000000000000000000076814cde97",
          "blockHash": "0x19694d92dd0c11312df1797bcf1a500cf985840e609fe64d93a72c808abec3c9",
          "blockNumber": "0x7318bf",
          "transactionHash": "0x4dd6e4aa386a829a70749e358588af66d1140b770eac05e4d3423fd331aca064",
          "transactionIndex": "0x90",
          "logIndex": "0x9e",
          "removed": false
        }
      ],
      "logsBloom": "0x00000000000000000000000000000000000000000600000000000000000000000000000000000000000000000000000000000000000000004000000000000000000000000000004000000008000000000000000000000000000000000000000000000000020000000000000000000800020000000000000000000010000000000000000000000000000000000000000000000000000000000000010000000000000000000000000000000000000000004000000000000000000000000000000000000002000000800000000000000000000000000000080000000000000020000000000000000000000000000000000000000000000000000000000000000000",
      "type": "0x2",
      "transactionHash": "0x4dd6e4aa386a829a70749e358588af66d1140b770eac05e4d3423fd331aca064",
      "transactionIndex": "0x90",
      "blockHash": "0x19694d92dd0c11312df1797bcf1a500cf985840e609fe64d93a72c808abec3c9",
      "blockNumber": "0x7318bf",
      "gasUsed": "0xfd33",
      "effectiveGasPrice": "0x528a4a4b",
      "from": "0xc77f7fed3b5cc8249adc428c5f44c9063b9734b4",
      "to": "0x8aafd3ede9adb0ff97c7aebce82a919afb1c8764",
      "contractAddress": null
    }
  ],
  "libraries": [],
  "pending": [],
  "returns": {},
  "timestamp": 1737500101,
  "chain": 11155111,
  "commit": "1d2fb70"
}