{
  "transactions": [
    {
      "hash": "0x254e66326d6cb8fc1437d11746768c4c6e050fce058f22c890d7fc16ed47ca57",
      "transactionType": "CALL",
      "contractName": null,
      "contractAddress": "0x8aafd3ede9adb0ff97c7aebce82a919afb1c8764",
      "function": "sell(uint256)",
      "arguments": [
        "99565053824751"
      ],
      "transaction": {
        "from": "0xc77f7fed3b5cc8249adc428c5f44c9063b9734b4",
        "to": "0x8aafd3ede9adb0ff97c7aebce82a919afb1c8764",
        "gas": "0x15daa",
        "value": "0x0",
        "input": "0xe4849b3200000000000000000000000000000000000000000000000000005a8dcbaa4eef",
        "nonce": "0x1565",
        "chainId": "0xaa36a7"
      },
      "additionalContracts": [],
      "isFixedGasLimit": false
    }
  ],
  "receipts": [
    {
      "status": "0x1",
      "cumulativeGasUsed": "0xfae397",
      "logs": [
        {
          "address": "0x8aafd3ede9adb0ff97c7aebce82a919afb1c8764",
          "topics": [
            "0xddf252ad1be2c89b69c2b068fc378daa952ba7f163c4a11628f55a4df523b3ef",
            "0x000000000000000000000000c77f7fed3b5cc8249adc428c5f44c9063b9734b4",
            "0x0000000000000000000000000000000000000000000000000000000000000000"
          ],
          "data": "0x000000000000000000000000000000000000000000000000000059d4575912e9",
          "blockHash": "0x071d3486da7ffb543a60d98d8a4a98328433b72eef2dcb617aeab312063e0f46",
          "blockNumber": "0x731ccd",
          "transactionHash": "0x254e66326d6cb8fc1437d11746768c4c6e050fce058f22c890d7fc16ed47ca57",
          "transactionIndex": "0x7b",
          "logIndex": "0xdd",
          "removed": false
        },
        {
          "address": "0x8aafd3ede9adb0ff97c7aebce82a919afb1c8764",
          "topics": [
            "0xddf252ad1be2c89b69c2b068fc378daa952ba7f163c4a11628f55a4df523b3ef",
            "0x000000000000000000000000c77f7fed3b5cc8249adc428c5f44c9063b9734b4",
            "0x000000000000000000000000c77f7fed3b5cc8249adc428c5f44c9063b9734b4"
          ],
          "data": "0x000000000000000000000000000000000000000000000000000000b974513c06",
          "blockHash": "0x071d3486da7ffb543a60d98d8a4a98328433b72eef2dcb617aeab312063e0f46",
          "blockNumber": "0x731ccd",
          "transactionHash": "0x254e66326d6cb8fc1437d11746768c4c6e050fce058f22c890d7fc16ed47ca57",
          "transactionIndex": "0x7b",
          "logIndex": "0xde",
          "removed": false
        },
        {
          "address": "0x8aafd3ede9adb0ff97c7aebce82a919afb1c8764",
          "topics": [
            "0x4afcb4a87cdbd9974efdb92ee48bc8d7cd0ae4bf217004db3d080cbaee652ca7"
          ],
          "data": "0x000000000000000000000000000000000000000000000000000000006790568400000000000000000000000000000000000000000000000000123edda9283c06000000000000000000000000000000000000000000000000000000770dd85ab0",
          "blockHash": "0x071d3486da7ffb543a60d98d8a4a98328433b72eef2dcb617aeab312063e0f46",
          "blockNumber": "0x731ccd",
          "transactionHash": "0x254e66326d6cb8fc1437d11746768c4c6e050fce058f22c890d7fc16ed47ca57",
          "transactionIndex": "0x7b",
          "logIndex": "0xdf",
          "removed": false
        }
      ],
      "logsBloom": "0x00000000000000000000000000000000000000000600000000000000000000000000000000000000000000000000000000000000000000004000000000000000000000000000004000000008000000000000000000000000000000000000000000000000020000000000000000000800020000000000000000000010000000000000000000000000000000000000000000000000000000000000010000000000000000000000000000000000000000004000000000000000000000000000000000000002000000800000000000000000000000000000080000000000000020000000000000000000000000000000000000000000000000000000000000000000",
      "type": "0x2",
      "transactionHash": "0x254e66326d6cb8fc1437d11746768c4c6e050fce058f22c890d7fc16ed47ca57",
      "transactionIndex": "0x7b",
      "blockHash": "0x071d3486da7ffb543a60d98d8a4a98328433b72eef2dcb617aeab312063e0f46",
      "blockNumber": "0x731ccd",
      "gasUsed": "0xfd27",
      "effectiveGasPrice": "0x9706077e",
      "from": "0xc77f7fed3b5cc8249adc428c5f44c9063b9734b4",
      "to": "0x8aafd3ede9adb0ff97c7aebce82a919afb1c8764",
      "contractAddress": null
    }
  ],
  "libraries": [],
  "pending": [],
  "returns": {},
  "timestamp": 1737512581,
  "chain": 11155111,
  "commit": "1d2fb70"
}