{
  "transactions": [
    {
      "hash": "0x872ff5e60f5d898cb3e55a547ace4f13e81dd86d905dcd62fee135b17e0d6aa7",
      "transactionType": "CALL",
      "contractName": null,
      "contractAddress": "0x8aafd3ede9adb0ff97c7aebce82a919afb1c8764",
      "function": "sell(uint256)",
      "arguments": [
        "11161992149338742"
      ],
      "transaction": {
        "from": "0xc77f7fed3b5cc8249adc428c5f44c9063b9734b4",
        "to": "0x8aafd3ede9adb0ff97c7aebce82a919afb1c8764",
        "gas": "0x1724d",
        "value": "0x0",
        "input": "0xe4849b320000000000000000000000000000000000000000000000000027a7c5d10c0a76",
        "nonce": "0x1618",
        "chainId": "0xaa36a7"
      },
      "additionalContracts": [],
      "isFixedGasLimit": false
    }
  ],
  "receipts": [
    {
      "status": "0x1",
      "cumulativeGasUsed": "0xa2cce0",
      "logs": [
        {
          "address": "0x8aafd3ede9adb0ff97c7aebce82a919afb1c8764",
          "topics": [
            "0xddf252ad1be2c89b69c2b068fc378daa952ba7f163c4a11628f55a4df523b3ef",
            "0x000000000000000000000000c77f7fed3b5cc8249adc428c5f44c9063b9734b4",
            "0x0000000000000000000000000000000000000000000000000000000000000000"
          ],
          "data": "0x0000000000000000000000000000000000000000000000000027568efc6e3fa1",
          "blockHash": "0xbf7ed6c5509a65a0a02e5759d0843feb1cffea562c9abf52845a1d4c34071d07",
          "blockNumber": "0x731dae",
          "transactionHash": "0x872ff5e60f5d898cb3e55a547ace4f13e81dd86d905dcd62fee135b17e0d6aa7",
          "transactionIndex": "0x5e",
          "logIndex": "0x7d",
          "removed": false
        },
        {
          "address": "0x8aafd3ede9adb0ff97c7aebce82a919afb1c8764",
          "topics": [
            "0xddf252ad1be2c89b69c2b068fc378daa952ba7f163c4a11628f55a4df523b3ef",
            "0x000000000000000000000000c77f7fed3b5cc8249adc428c5f44c9063b9734b4",
            "0x000000000000000000000000c77f7fed3b5cc8249adc428c5f44c9063b9734b4"
          ],
          "data": "0x00000000000000000000000000000000000000000000000000005136d49dcad5",
          "blockHash": "0xbf7ed6c5509a65a0a02e5759d0843feb1cffea562c9abf52845a1d4c34071d07",
          "blockNumber": "0x731dae",
          "transactionHash": "0x872ff5e60f5d898cb3e55a547ace4f13e81dd86d905dcd62fee135b17e0d6aa7",
          "transactionIndex": "0x5e",
          "logIndex": "0x7e",
          "removed": false
        },
        {
          "address": "0x8aafd3ede9adb0ff97c7aebce82a919afb1c8764",
          "topics": [
            "0x4afcb4a87cdbd9974efdb92ee48bc8d7cd0ae4bf217004db3d080cbaee652ca7"
          ],
          "data": "0x00000000000000000000000000000000000000000000000000000000679061100000000000000000000000000000000000000000000000000014551919fec69d00000000000000000000000000000000000000000000000000003a196867310f",
          "blockHash": "0xbf7ed6c5509a65a0a02e5759d0843feb1cffea562c9abf52845a1d4c34071d07",
          "blockNumber": "0x731dae",
          "transactionHash": "0x872ff5e60f5d898cb3e55a547ace4f13e81dd86d905dcd62fee135b17e0d6aa7",
          "transactionIndex": "0x5e",
          "logIndex": "0x7f",
          "removed": false
        }
      ],
      "logsBloom": "0x00000000000000000000000000000000000000000600000000000000000000000000000000000000000000000000000000000000000000004000000000000000000000000000004000000008000000000000000000000000000000000000000000000000020000000000000000000800020000000000000000000010000000000000000000000000000000000000000000000000000000000000010000000000000000000000000000000000000000004000000000000000000000000000000000000002000000800000000000000000000000000000080000000000000020000000000000000000000000000000000000000000000000000000000000000000",
      "type": "0x2",
      "transactionHash": "0x872ff5e60f5d898cb3e55a547ace4f13e81dd86d905dcd62fee135b17e0d6aa7",
      "transactionIndex": "0x5e",
      "blockHash": "0xbf7ed6c5509a65a0a02e5759d0843feb1cffea562c9abf52845a1d4c34071d07",
      "blockNumber": "0x731dae",
      "gasUsed": "0xfd33",
      "effectiveGasPrice": "0x766d5dd3",
      "from": "0xc77f7fed3b5cc8249adc428c5f44c9063b9734b4",
      "to": "0x8aafd3ede9adb0ff97c7aebce82a919afb1c8764",
      "contractAddress": null
    }
  ],
  "libraries": [],
  "pending": [],
  "returns": {},
  "timestamp": 1737515280,
  "chain": 11155111,
  "commit": "1d2fb70"
}