{
  "transactions": [
    {
      "hash": "0x1c4d122d0c1433e62557c5d2d694552105eadbb5c929a7be33200ef04d3f17c9",
      "transactionType": "CALL",
      "contractName": null,
      "contractAddress": "0x8aafd3ede9adb0ff97c7aebce82a919afb1c8764",
      "function": "sell(uint256)",
      "arguments": [
        "5714939980"
      ],
      "transaction": {
        "from": "0xc77f7fed3b5cc8249adc428c5f44c9063b9734b4",
        "to": "0x8aafd3ede9adb0ff97c7aebce82a919afb1c8764",
        "gas": "0x1722a",
        "value": "0x0",
        "input": "0xe4849b320000000000000000000000000000000000000000000000000000000154a3104c",
        "nonce": "0x161b",
        "chainId": "0xaa36a7"
      },
      "additionalContracts": [],
      "isFixedGasLimit": false
    }
  ],
  "receipts": [
    {
      "status": "0x1",
      "cumulativeGasUsed": "0x923754",
      "logs": [
        {
          "address": "0x8aafd3ede9adb0ff97c7aebce82a919afb1c8764",
          "topics": [
            "0xddf252ad1be2c89b69c2b068fc378daa952ba7f163c4a11628f55a4df523b3ef",
            "0x000000000000000000000000c77f7fed3b5cc8249adc428c5f44c9063b9734b4",
            "0x0000000000000000000000000000000000000000000000000000000000000000"
          ],
          "data": "0x0000000000000000000000000000000000000000000000000000000151e9706d",
          "blockHash": "0x10e3204c375f74f8271fa6f7d3ef2eb96ae08b63409596171419acd8125c9812",
          "blockNumber": "0x731db1",
          "transactionHash": "0x1c4d122d0c1433e62557c5d2d694552105eadbb5c929a7be33200ef04d3f17c9",
          "transactionIndex": "0x5a",
          "logIndex": "0x8b",
          "removed": false
        },
        {
          "address": "0x8aafd3ede9adb0ff97c7aebce82a919afb1c8764",
          "topics": [
            "0xddf252ad1be2c89b69c2b068fc378daa952ba7f163c4a11628f55a4df523b3ef",
            "0x000000000000000000000000c77f7fed3b5cc8249adc428c5f44c9063b9734b4",
            "0x000000000000000000000000c77f7fed3b5cc8249adc428c5f44c9063b9734b4"
          ],
          "data": "0x0000000000000000000000000000000000000000000000000000000002b99fdf",
          "blockHash": "0x10e3204c375f74f8271fa6f7d3ef2eb96ae08b63409596171419acd8125c9812",
          "blockNumber": "0x731db1",
          "transactionHash": "0x1c4d122d0c1433e62557c5d2d694552105eadbb5c929a7be33200ef04d3f17c9",
          "transactionIndex": "0x5a",
          "logIndex": "0x8c",
          "removed": false
        },
        {
          "address": "0x8aafd3ede9adb0ff97c7aebce82a919afb1c8764",
          "topics": [
            "0x4afcb4a87cdbd9974efdb92ee48bc8d7cd0ae4bf217004db3d080cbaee652ca7"
          ],
          "data": "0x0000000000000000000000000000000000000000000000000000000067906134000000000000000000000000000000000000000000000000001455191aabf8b90000000000000000000000000000000000000000000000000000000001f311a1",
          "blockHash": "0x10e3204c375f74f8271fa6f7d3ef2eb96ae08b63409596171419acd8125c9812",
          "blockNumber": "0x731db1",
          "transactionHash": "0x1c4d122d0c1433e62557c5d2d694552105eadbb5c929a7be33200ef04d3f17c9",
          "transactionIndex": "0x5a",
          "logIndex": "0x8d",
          "removed": false
        }
      ],
      "logsBloom": "0x00000000000000000000000000000000000000000600000000000000000000000000000000000000000000000000000000000000000000004000000000000000000000000000004000000008000000000000000000000000000000000000000000000000020000000000000000000800020000000000000000000010000000000000000000000000000000000000000000000000000000000000010000000000000000000000000000000000000000004000000000000000000000000000000000000002000000800000000000000000000000000000080000000000000020000000000000000000000000000000000000000000000000000000000000000000",
      "type": "0x2",
      "transactionHash": "0x1c4d122d0c1433e62557c5d2d694552105eadbb5c929a7be33200ef04d3f17c9",
      "transactionIndex": "0x5a",
      "blockHash": "0x10e3204c375f74f8271fa6f7d3ef2eb96ae08b63409596171419acd8125c9812",
      "blockNumber": "0x731db1",
      "gasUsed": "0xfd1b",
      "effectiveGasPrice": "0x7165821d",
      "from": "0xc77f7fed3b5cc8249adc428c5f44c9063b9734b4",
      "to": "0x8aafd3ede9adb0ff97c7aebce82a919afb1c8764",
      "contractAddress": null
    }
  ],
  "libraries": [],
  "pending": [],
  "returns": {},
  "timestamp": 1737515318,
  "chain": 11155111,
  "commit": "1d2fb70"
}