{
  "transactions": [
    {
      "hash": "0xe65b94258d169e55cc1cee0fe4f7719bcab20a85ac2452a7b12de703453853f4",
      "transactionType": "CALL",
      "contractName": null,
      "contractAddress": "0x5eb9cc76c3506942c1c0ead70e877dd5e4f00cb0",
      "function": "sell(uint256)",
      "arguments": [
        "989127089887428357665"
      ],
      "transaction": {
        "from": "0xc77f7fed3b5cc8249adc428c5f44c9063b9734b4",
        "to": "0x5eb9cc76c3506942c1c0ead70e877dd5e4f00cb0",
        "gas": "0x16fec",
        "value": "0x0",
        "input": "0xe4849b320000000000000000000000000000000000000000000000359ee557a1f80a2e21",
        "nonce": "0x357",
        "chainId": "0xaa36a7"
      },
      "additionalContracts": [],
      "isFixedGasLimit": false
    }
  ],
  "receipts": [
    {
      "status": "0x1",
      "cumulativeGasUsed": "0xf8fcd9",
      "logs": [
        {
          "address": "0x5eb9cc76c3506942c1c0ead70e877dd5e4f00cb0",
          "topics": [
            "0xddf252ad1be2c89b69c2b068fc378daa952ba7f163c4a11628f55a4df523b3ef",
            "0x000000000000000000000000c77f7fed3b5cc8249adc428c5f44c9063b9734b4",
            "0x0000000000000000000000000000000000000000000000000000000000000000"
          ],
          "data": "0x0000000000000000000000000000000000000000000000359ee557a1f80a2e21",
          "blockHash": "0xcf9e1efa4e99a6facd2bcba1a083429a7539aa160717e4e7f29eaf3749e14dd2",
          "blockNumber": "0x724f4d",
          "transactionHash": "0xe65b94258d169e55cc1cee0fe4f7719bcab20a85ac2452a7b12de703453853f4",
          "transactionIndex": "0x8c",
          "logIndex": "0xc1",
          "removed": false
        },
        {
          "address": "0x5eb9cc76c3506942c1c0ead70e877dd5e4f00cb0",
          "topics": [
            "0x4afcb4a87cdbd9974efdb92ee48bc8d7cd0ae4bf217004db3d080cbaee652ca7"
          ],
          "data": "0x000000000000000000000000000000000000000000000000000000006786a9500000000000000000000000000000000000000000000000000003910f11faa8c60000000000000000000000000000000000000000000000000dc7db133217a6b6",
          "blockHash": "0xcf9e1efa4e99a6facd2bcba1a083429a7539aa160717e4e7f29eaf3749e14dd2",
          "blockNumber": "0x724f4d",
          "transactionHash": "0xe65b94258d169e55cc1cee0fe4f7719bcab20a85ac2452a7b12de703453853f4",
          "transactionIndex": "0x8c",
          "logIndex": "0xc2",
          "removed": false
        }
      ],
      "logsBloom": "0x00000000000000000000000000000000000000000000000000000000000000000000000000000000000000000000000000000000000000004000000000000000000000000000000000000008000000000000000000000000000000000000000000000000020000000000000004000800020000000000000000000010000000000000000000000000000000000000000000000000000000000000010000000000000000000000000000000000000000004000000000000000000000000000020000000002000000800000008000000000000000000000080000000000000020000000000000000000000000000000000000000000000000000000000000000000",
      "type": "0x2",
      "transactionHash": "0xe65b94258d169e55cc1cee0fe4f7719bcab20a85ac2452a7b12de703453853f4",
      "transactionIndex": "0x8c",
      "blockHash": "0xcf9e1efa4e99a6facd2bcba1a083429a7539aa160717e4e7f29eaf3749e14dd2",
      "blockNumber": "0x724f4d",
      "gasUsed": "0xfb93",
      "effectiveGasPrice": "0x54d8b1e7e",
      "from": "0xc77f7fed3b5cc8249adc428c5f44c9063b9734b4",
      "to": "0x5eb9cc76c3506942c1c0ead70e877dd5e4f00cb0",
      "contractAddress": null
    }
  ],
  "libraries": [],
  "pending": [],
  "returns": {},
  "timestamp": 1736878417,
  "chain": 11155111,
  "commit": "51a374b"
}