{
  "transactions": [
    {
      "hash": "0xf9329cd9091add2e2932599a71766740e3a17902bbc773b41e07d881131f8770",
      "transactionType": "CALL",
      "contractName": null,
      "contractAddress": "0x8aafd3ede9adb0ff97c7aebce82a919afb1c8764",
      "function": "sell(uint256)",
      "arguments": [
        "47856581018912818"
      ],
      "transaction": {
        "from": "0xc77f7fed3b5cc8249adc428c5f44c9063b9734b4",
        "to": "0x8aafd3ede9adb0ff97c7aebce82a919afb1c8764",
        "gas": "0x1724d",
        "value": "0x0",
        "input": "0xe4849b3200000000000000000000000000000000000000000000000000aa054e8fcc0832",
        "nonce": "0xeb2",
        "chainId": "0xaa36a7"
      },
      "additionalContracts": [],
      "isFixedGasLimit": false
    }
  ],
  "receipts": [
    {
      "status": "0x1",
      "cumulativeGasUsed": "0x116d956",
      "logs": [
        {
          "address": "0x8aafd3ede9adb0ff97c7aebce82a919afb1c8764",
          "topics": [
            "0xddf252ad1be2c89b69c2b068fc378daa952ba7f163c4a11628f55a4df523b3ef",
            "0x000000000000000000000000c77f7fed3b5cc8249adc428c5f44c9063b9734b4",
            "0x0000000000000000000000000000000000000000000000000000000000000000"
          ],
          "data": "0x00000000000000000000000000000000000000000000000000a8a91abbb3df2c",
          "blockHash": "0xc4a5fb68ba1fd73f7319e1cd51266f267bf01d98a74b2ef71d11ddc6b614f5df",
          "blockNumber": "0x731415",
          "transactionHash": "0xf9329cd9091add2e2932599a71766740e3a17902bbc773b41e07d881131f8770",
          "transactionIndex": "0xbb",
          "logIndex": "0xfe",
          "removed": false
        },
        {
          "address": "0x8aafd3ede9adb0ff97c7aebce82a919afb1c8764",
          "topics": [
            "0xddf252ad1be2c89b69c2b068fc378daa952ba7f163c4a11628f55a4df523b3ef",
            "0x000000000000000000000000c77f7fed3b5cc8249adc428c5f44c9063b9734b4",
            "0x000000000000000000000000c77f7fed3b5cc8249adc428c5f44c9063b9734b4"
          ],
          "data": "0x00000000000000000000000000000000000000000000000000015c33d4182906",
          "blockHash": "0xc4a5fb68ba1fd73f7319e1cd51266f267bf01d98a74b2ef71d11ddc6b614f5df",
          "blockNumber": "0x731415",
          "transactionHash": "0xf9329cd9091add2e2932599a71766740e3a17902bbc773b41e07d881131f8770",
          "transactionIndex": "0xbb",
          "logIndex": "0xff",
          "removed": false
        },
        {
          "address": "0x8aafd3ede9adb0ff97c7aebce82a919afb1c8764",
          "topics": [
            "0x4afcb4a87cdbd9974efdb92ee48bc8d7cd0ae4bf217004db3d080cbaee652ca7"
          ],
          "data": "0x00000000000000000000000000000000000000000000000000000000678feda80000000000000000000000000000000000000000000000000004b832f5b0dfc1000000000000000000000000000000000000000000000000000039d1fd911889",
          "blockHash": "0xc4a5fb68ba1fd73f7319e1cd51266f267bf01d98a74b2ef71d11ddc6b614f5df",
          "blockNumber": "0x731415",
          "transactionHash": "0xf9329cd9091add2e2932599a71766740e3a17902bbc773b41e07d881131f8770",
          "transactionIndex": "0xbb",
          "logIndex": "0x100",
          "removed": false
        }
      ],
      "logsBloom": "0x00000000000000000000000000000000000000000600000000000000000000000000000000000000000000000000000000000000000000004000000000000000000000000000004000000008000000000000000000000000000000000000000000000000020000000000000000000800020000000000000000000010000000000000000000000000000000000000000000000000000000000000010000000000000000000000000000000000000000004000000000000000000000000000000000000002000000800000000000000000000000000000080000000000000020000000000000000000000000000000000000000000000000000000000000000000",
      "type": "0x2",
      "transactionHash": "0xf9329cd9091add2e2932599a71766740e3a17902bbc773b41e07d881131f8770",
      "transactionIndex": "0xbb",
      "blockHash": "0xc4a5fb68ba1fd73f7319e1cd51266f267bf01d98a74b2ef71d11ddc6b614f5df",
      "blockNumber": "0x731415",
      "gasUsed": "0xfd33",
      "effectiveGasPrice": "0x8f929de0",
      "from": "0xc77f7fed3b5cc8249adc428c5f44c9063b9734b4",
      "to": "0x8aafd3ede9adb0ff97c7aebce82a919afb1c8764",
      "contractAddress": null
    }
  ],
  "libraries": [],
  "pending": [],
  "returns": {},
  "timestamp": 1737485738,
  "chain": 11155111,
  "commit": "51a374b"
}