{
  "transactions": [
    {
      "hash": "0xf147fd467ed1c4a7b0078f66adb972473cebf6e2706120a007d8787b9aa0d690",
      "transactionType": "CALL",
      "contractName": null,
      "contractAddress": "0x8aafd3ede9adb0ff97c7aebce82a919afb1c8764",
      "function": "sell(uint256)",
      "arguments": [
        "43796098083102532"
      ],
      "transaction": {
        "from": "0xc77f7fed3b5cc8249adc428c5f44c9063b9734b4",
        "to": "0x8aafd3ede9adb0ff97c7aebce82a919afb1c8764",
        "gas": "0x1724d",
        "value": "0x0",
        "input": "0xe4849b32000000000000000000000000000000000000000000000000009b9851b4ca9f44",
        "nonce": "0x11c9",
        "chainId": "0xaa36a7"
      },
      "additionalContracts": [],
      "isFixedGasLimit": false
    }
  ],
  "receipts": [
    {
      "status": "0x1",
      "cumulativeGasUsed": "0x11a9e23",
      "logs": [
        {
          "address": "0x8aafd3ede9adb0ff97c7aebce82a919afb1c8764",
          "topics": [
            "0xddf252ad1be2c89b69c2b068fc378daa952ba7f163c4a11628f55a4df523b3ef",
            "0x000000000000000000000000c77f7fed3b5cc8249adc428c5f44c9063b9734b4",
            "0x0000000000000000000000000000000000000000000000000000000000000000"
          ],
          "data": "0x000000000000000000000000000000000000000000000000009a59a91dd75650",
          "blockHash": "0x48391ee075e1eae3c42c8488d699152dc27920c243d769602bfd8ba4f779aaf9",
          "blockNumber": "0x73189c",
          "transactionHash": "0xf147fd467ed1c4a7b0078f66adb972473cebf6e2706120a007d8787b9aa0d690",
          "transactionIndex": "0x8e",
          "logIndex": "0xff",
          "removed": false
        },
        {
          "address": "0x8aafd3ede9adb0ff97c7aebce82a919afb1c8764",
          "topics": [
            "0xddf252ad1be2c89b69c2b068fc378daa952ba7f163c4a11628f55a4df523b3ef",
            "0x000000000000000000000000c77f7fed3b5cc8249adc428c5f44c9063b9734b4",
            "0x000000000000000000000000c77f7fed3b5cc8249adc428c5f44c9063b9734b4"
          ],
          "data": "0x00000000000000000000000000000000000000000000000000013ea896f348f4",
          "blockHash": "0x48391ee075e1eae3c42c8488d699152dc27920c243d769602bfd8ba4f779aaf9",
          "blockNumber": "0x73189c",
          "transactionHash": "0xf147fd467ed1c4a7b0078f66adb972473cebf6e2706120a007d8787b9aa0d690",
          "transactionIndex": "0x8e",
          "logIndex": "0x100",
          "removed": false
        },
        {
          "address": "0x8aafd3ede9adb0ff97c7aebce82a919afb1c8764",
          "topics": [
            "0x4afcb4a87cdbd9974efdb92ee48bc8d7cd0ae4bf217004db3d080cbaee652ca7"
          ],
          "data": "0x000000000000000000000000000000000000000000000000000000006790242000000000000000000000000000000000000000000000000000052936c468cf2f000000000000000000000000000000000000000000000000000039dd2fe6a01e",
          "blockHash": "0x48391ee075e1eae3c42c8488d699152dc27920c243d769602bfd8ba4f779aaf9",
          "blockNumber": "0x73189c",
          "transactionHash": "0xf147fd467ed1c4a7b0078f66adb972473cebf6e2706120a007d8787b9aa0d690",
          "transactionIndex": "0x8e",
          "logIndex": "0x101",
          "removed": false
        }
      ],
      "logsBloom": "0x00000000000000000000000000000000000000000600000000000000000000000000000000000000000000000000000000000000000000004000000000000000000000000000004000000008000000000000000000000000000000000000000000000000020000000000000000000800020000000000000000000010000000000000000000000000000000000000000000000000000000000000010000000000000000000000000000000000000000004000000000000000000000000000000000000002000000800000000000000000000000000000080000000000000020000000000000000000000000000000000000000000000000000000000000000000",
      "type": "0x2",
      "transactionHash": "0xf147fd467ed1c4a7b0078f66adb972473cebf6e2706120a007d8787b9aa0d690",
      "transactionIndex": "0x8e",
      "blockHash": "0x48391ee075e1eae3c42c8488d699152dc27920c243d769602bfd8ba4f779aaf9",
      "blockNumber": "0x73189c",
      "gasUsed": "0xfd33",
      "effectiveGasPrice": "0x3fd3f97c",
      "from": "0xc77f7fed3b5cc8249adc428c5f44c9063b9734b4",
      "to": "0x8aafd3ede9adb0ff97c7aebce82a919afb1c8764",
      "contractAddress": null
    }
  ],
  "libraries": [],
  "pending": [],
  "returns": {},
  "timestamp": 1737499682,
  "chain": 11155111,
  "commit": "1d2fb70"
}