{
  "transactions": [
    {
      "hash": "0xdddc19278648aad39d19d815828abef56492a2006b401aaf93c3ac1ad6231071",
      "transactionType": "CALL",
      "contractName": null,
      "contractAddress": "0x8aafd3ede9adb0ff97c7aebce82a919afb1c8764",
      "function": "buy(address)",
      "arguments": [
        "0xC77f7fed3b5Cc8249aDc428c5F44C9063B9734b4"
      ],
      "transaction": {
        "from": "0xc77f7fed3b5cc8249adc428c5f44c9063b9734b4",
        "to": "0x8aafd3ede9adb0ff97c7aebce82a919afb1c8764",
        "gas": "0x156ea",
        "value": "0xde0b6b3a7640000",
        "input": "0xf088d547000000000000000000000000c77f7fed3b5cc8249adc428c5f44c9063b9734b4",
        "nonce": "0x11e4",
        "chainId": "0xaa36a7"
      },
      "additionalContracts": [],
      "isFixedGasLimit": false
    }
  ],
  "receipts": [
    {
      "status": "0x1",
      "cumulativeGasUsed": "0x94c62e",
      "logs": [
        {
          "address": "0x8aafd3ede9adb0ff97c7aebce82a919afb1c8764",
          "topics": [
            "0xddf252ad1be2c89b69c2b068fc378daa952ba7f163c4a11628f55a4df523b3ef",
            "0x0000000000000000000000000000000000000000000000000000000000000000",
            "0x000000000000000000000000c77f7fed3b5cc8249adc428c5f44c9063b9734b4"
          ],
          "data": "0x000000000000000000000000000000000000000000000024dce0966787357b16",
          "blockHash": "0xb405b7ec8fdaf48b14521bf1bdece65a8c92a69c9795adc725f93b2f77b8ef9e",
          "blockNumber": "0x7318ba",
          "transactionHash": "0xdddc19278648aad39d19d815828abef56492a2006b401aaf93c3ac1ad6231071",
          "transactionIndex": "0x79",
          "logIndex": "0xbf",
          "removed": false
        },
        {
          "address": "0x8aafd3ede9adb0ff97c7aebce82a919afb1c8764",
          "topics": [
            "0xddf252ad1be2c89b69c2b068fc378daa952ba7f163c4a11628f55a4df523b3ef",
            "0x0000000000000000000000000000000000000000000000000000000000000000",
            "0x000000000000000000000000c77f7fed3b5cc8249adc428c5f44c9063b9734b4"
          ],
          "data": "0x0000000000000000000000000000000000000000000000001ca00e9ec609bea1",
          "blockHash": "0xb405b7ec8fdaf48b14521bf1bdece65a8c92a69c9795adc725f93b2f77b8ef9e",
          "blockNumber": "0x7318ba",
          "transactionHash": "0xdddc19278648aad39d19d815828abef56492a2006b401aaf93c3ac1ad6231071",
          "transactionIndex": "0x79",
          "logIndex": "0xc0",
          "removed": false
        },
        {
          "address": "0x8aafd3ede9adb0ff97c7aebce82a919afb1c8764",
          "topics": [
            "0x4afcb4a87cdbd9974efdb92ee48bc8d7cd0ae4bf217004db3d080cbaee652ca7"
          ],
          "data": "0x000000000000000000000000000000000000000000000000000000006790258800000000000000000000000000000000000000000000000000052c87a6c689bc0000000000000000000000000000000000000000000000000de0b6b3a7640000",
          "blockHash": "0xb405b7ec8fdaf48b14521bf1bdece65a8c92a69c9795adc725f93b2f77b8ef9e",
          "blockNumber": "0x7318ba",
          "transactionHash": "0xdddc19278648aad39d19d815828abef56492a2006b401aaf93c3ac1ad6231071",
          "transactionIndex": "0x79",
          "logIndex": "0xc1",
          "removed": false
        }
      ],
      "logsBloom": "0x00000000000000000000000000000000000000000600000000000000000000000000000000000000000000000000000000000000000000004000000000000000000000000000004000000008000000000000000000000000000000000000000000000000020000000000000000000800020000000000000000000010000000000000000000000000000000000000000000000000000000000000010000000000000000000000000000000000000000004000000000000000000000000000000000000002000000800000000000000000000000000000080000000000000020000000000000000000000000000000000000000000000000000000000000000000",
      "type": "0x2",
      "transactionHash": "0xdddc19278648aad39d19d815828abef56492a2006b401aaf93c3ac1ad6231071",
      "transactionIndex": "0x79",
      "blockHash": "0xb405b7ec8fdaf48b14521bf1bdece65a8c92a69c9795adc725f93b2f77b8ef9e",
      "blockNumber": "0x7318ba",
      "gasUsed": "0xf844",
      "effectiveGasPrice": "0x4e2d4388",
      "from": "0xc77f7fed3b5cc8249adc428c5f44c9063b9734b4",
      "to": "0x8aafd3ede9adb0ff97c7aebce82a919afb1c8764",
      "contractAddress": null
    }
  ],
  "libraries": [],
  "pending": [],
  "returns": {},
  "timestamp": 1737500041,
  "chain": 11155111,
  "commit": "1d2fb70"
}