{
  "transactions": [
    {
      "hash": "0xc5e90fb0356ee2695643f2a1afa65d30542450749cfb6d1215a2e2b23bab1130",
      "transactionType": "CALL",
      "contractName": null,
      "contractAddress": "0x8aafd3ede9adb0ff97c7aebce82a919afb1c8764",
      "function": "sell(uint256)",
      "arguments": [
        "5642191014772526350"
      ],
      "transaction": {
        "from": "0xc77f7fed3b5cc8249adc428c5f44c9063b9734b4",
        "to": "0x8aafd3ede9adb0ff97c7aebce82a919afb1c8764",
        "gas": "0x15dca",
        "value": "0x0",
        "input": "0xe4849b320000000000000000000000000000000000000000000000004e4d16d5966acd0e",
        "nonce": "0x10ba",
        "chainId": "0xaa36a7"
      },
      "additionalContracts": [],
      "isFixedGasLimit": false
    }
  ],
  "receipts": [
    {
      "status": "0x1",
      "cumulativeGasUsed": "0xa65e84",
      "logs": [
        {
          "address": "0x8aafd3ede9adb0ff97c7aebce82a919afb1c8764",
          "topics": [
            "0xddf252ad1be2c89b69c2b068fc378daa952ba7f163c4a11628f55a4df523b3ef",
            "0x000000000000000000000000c77f7fed3b5cc8249adc428c5f44c9063b9734b4",
            "0x0000000000000000000000000000000000000000000000000000000000000000"
          ],
          "data": "0x0000000000000000000000000000000000000000000000004dacba7ddce4d39c",
          "blockHash": "0x22c79f3938c8cbafdba2324e0dbb84a60884ee22f3cdd4fbe33bb04e79ac3865",
          "blockNumber": "0x731750",
          "transactionHash": "0xc5e90fb0356ee2695643f2a1afa65d30542450749cfb6d1215a2e2b23bab1130",
          "transactionIndex": "0x79",
          "logIndex": "0xad",
          "removed": false
        },
        {
          "address": "0x8aafd3ede9adb0ff97c7aebce82a919afb1c8764",
          "topics": [
            "0xddf252ad1be2c89b69c2b068fc378daa952ba7f163c4a11628f55a4df523b3ef",
            "0x000000000000000000000000c77f7fed3b5cc8249adc428c5f44c9063b9734b4",
            "0x000000000000000000000000c77f7fed3b5cc8249adc428c5f44c9063b9734b4"
          ],
          "data": "0x00000000000000000000000000000000000000000000000000a05c57b985f972",
          "blockHash": "0x22c79f3938c8cbafdba2324e0dbb84a60884ee22f3cdd4fbe33bb04e79ac3865",
          "blockNumber": "0x731750",
          "transactionHash": "0xc5e90fb0356ee2695643f2a1afa65d30542450749cfb6d1215a2e2b23bab1130",
          "transactionIndex": "0x79",
          "logIndex": "0xae",
          "removed": false
        },
        {
          "address": "0x8aafd3ede9adb0ff97c7aebce82a919afb1c8764",
          "topics": [
            "0x4afcb4a87cdbd9974efdb92ee48bc8d7cd0ae4bf217004db3d080cbaee652ca7"
          ],
          "data": "0x0000000000000000000000000000000000000000000000000000000067901484000000000000000000000000000000000000000000000000000501fddf8550f4000000000000000000000000000000000000000000000000001c4131fbdd6e02",
          "blockHash": "0x22c79f3938c8cbafdba2324e0dbb84a60884ee22f3cdd4fbe33bb04e79ac3865",
          "blockNumber": "0x731750",
          "transactionHash": "0xc5e90fb0356ee2695643f2a1afa65d30542450749cfb6d1215a2e2b23bab1130",
          "transactionIndex": "0x79",
          "logIndex": "0xaf",
          "removed": false
        }
      ],
      "logsBloom": "0x00000000000000000000000000000000000000000600000000000000000000000000000000000000000000000000000000000000000000004000000000000000000000000000004000000008000000000000000000000000000000000000000000000000020000000000000000000800020000000000000000000010000000000000000000000000000000000000000000000000000000000000010000000000000000000000000000000000000000004000000000000000000000000000000000000002000000800000000000000000000000000000080000000000000020000000000000000000000000000000000000000000000000000000000000000000",
      "type": "0x2",
      "transactionHash": "0xc5e90fb0356ee2695643f2a1afa65d30542450749cfb6d1215a2e2b23bab1130",
      "transactionIndex": "0x79",
      "blockHash": "0x22c79f3938c8cbafdba2324e0dbb84a60884ee22f3cdd4fbe33bb04e79ac3865",
      "blockNumber": "0x731750",
      "gasUsed": "0xfd3f",
      "effectiveGasPrice": "0x3dbdfab6",
      "from": "0xc77f7fed3b5cc8249adc428c5f44c9063b9734b4",
      "to": "0x8aafd3ede9adb0ff97c7aebce82a919afb1c8764",
      "contractAddress": null
    }
  ],
  "libraries": [],
  "pending": [],
  "returns": {},
  "timestamp": 1737495685,
  "chain": 11155111,
  "commit": "1d2fb70"
}