{
  "transactions": [
    {
      "hash": "0xa573f38ba9a8a6f0dd395aacfcce9586e5317634d2f2561a0caf16ef050c1e33",
      "transactionType": "CALL",
      "contractName": null,
      "contractAddress": "0x270e88f8683660553e8ba4eb2ad7c91a1710d769",
      "function": "buy(address)",
      "arguments": [
        "0xC77f7fed3b5Cc8249aDc428c5F44C9063B9734b4"
      ],
      "transaction": {
        "from": "0xc77f7fed3b5cc8249adc428c5f44c9063b9734b4",
        "to": "0x270e88f8683660553e8ba4eb2ad7c91a1710d769",
        "gas": "0x1b30c",
        "value": "0xde0b6b3a7640000",
        "input": "0xf088d547000000000000000000000000c77f7fed3b5cc8249adc428c5f44c9063b9734b4",
        "nonce": "0x546",
        "chainId": "0xaa36a7"
      },
      "additionalContracts": [],
      "isFixedGasLimit": false
    }
  ],
  "receipts": [
    {
      "status": "0x1",
      "cumulativeGasUsed": "0x7ba072",
      "logs": [
        {
          "address": "0x270e88f8683660553e8ba4eb2ad7c91a1710d769",
          "topics": [
            "0xddf252ad1be2c89b69c2b068fc378daa952ba7f163c4a11628f55a4df523b3ef",
            "0x0000000000000000000000000000000000000000000000000000000000000000",
            "0x000000000000000000000000c77f7fed3b5cc8249adc428c5f44c9063b9734b4"
          ],
          "data": "0x000000000000000000000000000000000000000000000034b3a34e5083298afd",
          "blockHash": "0x16c3a11d4ea7433ca1e6fd14544c4228d13333b7736f8399a89f6f42782f322a",
          "blockNumber": "0x7251e3",
          "transactionHash": "0xa573f38ba9a8a6f0dd395aacfcce9586e5317634d2f2561a0caf16ef050c1e33",
          "transactionIndex": "0x4e",
          "logIndex": "0x7a",
          "removed": false
        },
        {
          "address": "0x270e88f8683660553e8ba4eb2ad7c91a1710d769",
          "topics": [
            "0xddf252ad1be2c89b69c2b068fc378daa952ba7f163c4a11628f55a4df523b3ef",
            "0x0000000000000000000000000000000000000000000000000000000000000000",
            "0x000000000000000000000000c77f7fed3b5cc8249adc428c5f44c9063b9734b4"
          ],
          "data": "0x00000000000000000000000000000000000000000000000028ecb78fcd553dee",
          "blockHash": "0x16c3a11d4ea7433ca1e6fd14544c4228d13333b7736f8399a89f6f42782f322a",
          "blockNumber": "0x7251e3",
          "transactionHash": "0xa573f38ba9a8a6f0dd395aacfcce9586e5317634d2f2561a0caf16ef050c1e33",
          "transactionIndex": "0x4e",
          "logIndex": "0x7b",
          "removed": false
        },
        {
          "address": "0x270e88f8683660553e8ba4eb2ad7c91a1710d769",
          "topics": [
            "0x4afcb4a87cdbd9974efdb92ee48bc8d7cd0ae4bf217004db3d080cbaee652ca7"
          ],
          "data": "0x000000000000000000000000000000000000000000000000000000006786c89400000000000000000000000000000000000000000000000000039e465c31944b0000000000000000000000000000000000000000000000000de0b6b3a7640000",
          "blockHash": "0x16c3a11d4ea7433ca1e6fd14544c4228d13333b7736f8399a89f6f42782f322a",
          "blockNumber": "0x7251e3",
          "transactionHash": "0xa573f38ba9a8a6f0dd395aacfcce9586e5317634d2f2561a0caf16ef050c1e33",
          "transactionIndex": "0x4e",
          "logIndex": "0x7c",
          "removed": false
        }
      ],
      "logsBloom": "0x00000000000000000000000000000000000000000000000000000000000000000000000000000000000000000000000020000000000000004000000000000000000000000000000000000008000000000000000000000000000000000000000000000000020000000000000000000800020000000000000000000010000000000000000000010000000000000000000000000000000000000000010000000000000000000000000000000000000000004000000000000000000000000000000000000002000000800000000000000000000000000000080000008000000020000000000000000000000000000000000000000000000000000000000000000000",
      "type": "0x2",
      "transactionHash": "0xa573f38ba9a8a6f0dd395aacfcce9586e5317634d2f2561a0caf16ef050c1e33",
      "transactionIndex": "0x4e",
      "blockHash": "0x16c3a11d4ea7433ca1e6fd14544c4228d13333b7736f8399a89f6f42782f322a",
      "blockNumber": "0x7251e3",
      "gasUsed": "0x13af8",
      "effectiveGasPrice": "0x4269ce80c",
      "from": "0xc77f7fed3b5cc8249adc428c5f44c9063b9734b4",
      "to": "0x270e88f8683660553e8ba4eb2ad7c91a1710d769",
      "contractAddress": null
    }
  ],
  "libraries": [],
  "pending": [],
  "returns": {},
  "timestamp": 1736886421,
  "chain": 11155111,
  "commit": "51a374b"
}