{
  "transactions": [
    {
      "hash": "0x22ea88eace479a5b435cb80c25e4c9d18e613390db719253d92309800d29addf",
      "transactionType": "CALL",
      "contractName": null,
      "contractAddress": "0x8aafd3ede9adb0ff97c7aebce82a919afb1c8764",
      "function": "buy(address)",
      "arguments": [
        "0xC77f7fed3b5Cc8249aDc428c5F44C9063B9734b4"
      ],
      "transaction": {
        "from": "0xc77f7fed3b5cc8249adc428c5f44c9063b9734b4",
        "to": "0x8aafd3ede9adb0ff97c7aebce82a919afb1c8764",
        "gas": "0x156ea",
        "value": "0xde0b6b3a7640000",
        "input": "0xf088d547000000000000000000000000c77f7fed3b5cc8249adc428c5f44c9063b9734b4",
        "nonce": "0x1477",
        "chainId": "0xaa36a7"
      },
      "additionalContracts": [],
      "isFixedGasLimit": false
    }
  ],
  "receipts": [
    {
      "status": "0x1",
      "cumulativeGasUsed": "0x85a0db",
      "logs": [
        {
          "address": "0x8aafd3ede9adb0ff97c7aebce82a919afb1c8764",
          "topics": [
            "0xddf252ad1be2c89b69c2b068fc378daa952ba7f163c4a11628f55a4df523b3ef",
            "0x0000000000000000000000000000000000000000000000000000000000000000",
            "0x000000000000000000000000c77f7fed3b5cc8249adc428c5f44c9063b9734b4"
          ],
          "data": "0x00000000000000000000000000000000000000000000000c57b717e589b38110",
          "blockHash": "0xf15b21dfad9e68a34a6051980bc3602cb74f7ad7a8418d97cef50da1e61d64f6",
          "blockNumber": "0x731bc4",
          "transactionHash": "0x22ea88eace479a5b435cb80c25e4c9d18e613390db719253d92309800d29addf",
          "transactionIndex": "0x4a",
          "logIndex": "0x4f",
          "removed": false
        },
        {
          "address": "0x8aafd3ede9adb0ff97c7aebce82a919afb1c8764",
          "topics": [
            "0xddf252ad1be2c89b69c2b068fc378daa952ba7f163c4a11628f55a4df523b3ef",
            "0x0000000000000000000000000000000000000000000000000000000000000000",
            "0x000000000000000000000000c77f7fed3b5cc8249adc428c5f44c9063b9734b4"
          ],
          "data": "0x0000000000000000000000000000000000000000000000000995a06b448efdee",
          "blockHash": "0xf15b21dfad9e68a34a6051980bc3602cb74f7ad7a8418d97cef50da1e61d64f6",
          "blockNumber": "0x731bc4",
          "transactionHash": "0x22ea88eace479a5b435cb80c25e4c9d18e613390db719253d92309800d29addf",
          "transactionIndex": "0x4a",
          "logIndex": "0x50",
          "removed": false
        },
        {
          "address": "0x8aafd3ede9adb0ff97c7aebce82a919afb1c8764",
          "topics": [
            "0x4afcb4a87cdbd9974efdb92ee48bc8d7cd0ae4bf217004db3d080cbaee652ca7"
          ],
          "data": "0x0000000000000000000000000000000000000000000000000000000067904a0c000000000000000000000000000000000000000000000000000f7902b3fe96d50000000000000000000000000000000000000000000000000de0b6b3a7640000",
          "blockHash": "0xf15b21dfad9e68a34a6051980bc3602cb74f7ad7a8418d97cef50da1e61d64f6",
          "blockNumber": "0x731bc4",
          "transactionHash": "0x22ea88eace479a5b435cb80c25e4c9d18e613390db719253d92309800d29addf",
          "transactionIndex": "0x4a",
          "logIndex": "0x51",
          "removed": false
        }
      ],
      "logsBloom": "0x00000000000000000000000000000000000000000600000000000000000000000000000000000000000000000000000000000000000000004000000000000000000000000000004000000008000000000000000000000000000000000000000000000000020000000000000000000800020000000000000000000010000000000000000000000000000000000000000000000000000000000000010000000000000000000000000000000000000000004000000000000000000000000000000000000002000000800000000000000000000000000000080000000000000020000000000000000000000000000000000000000000000000000000000000000000",
      "type": "0x2",
      "transactionHash": "0x22ea88eace479a5b435cb80c25e4c9d18e613390db719253d92309800d29addf",
      "transactionIndex": "0x4a",
      "blockHash": "0xf15b21dfad9e68a34a6051980bc3602cb74f7ad7a8418d97cef50da1e61d64f6",
      "blockNumber": "0x731bc4",
      "gasUsed": "0xf844",
      "effectiveGasPrice": "0xf4507360",
      "from": "0xc77f7fed3b5cc8249adc428c5f44c9063b9734b4",
      "to": "0x8aafd3ede9adb0ff97c7aebce82a919afb1c8764",
      "contractAddress": null
    }
  ],
  "libraries": [],
  "pending": [],
  "returns": {},
  "timestamp": 1737509389,
  "chain": 11155111,
  "commit": "1d2fb70"
}