{
  "transactions": [
    {
      "hash": "0xfd7935e7026bf8000d614413031662b55e1db2f042c87e2256841fcd1f8d7d7c",
      "transactionType": "CALL",
      "contractName": null,
      "contractAddress": "0x270e88f8683660553e8ba4eb2ad7c91a1710d769",
      "function": "buy(address)",
      "arguments": [
        "0xC77f7fed3b5Cc8249aDc428c5F44C9063B9734b4"
      ],
      "transaction": {
        "from": "0xc77f7fed3b5cc8249adc428c5f44c9063b9734b4",
        "to": "0x270e88f8683660553e8ba4eb2ad7c91a1710d769",
        "gas": "0x1b30c",
        "value": "0xde0b6b3a7640000",
        "input": "0xf088d547000000000000000000000000c77f7fed3b5cc8249adc428c5f44c9063b9734b4",
        "nonce": "0x6f7",
        "chainId": "0xaa36a7"
      },
      "additionalContracts": [],
      "isFixedGasLimit": false
    }
  ],
  "receipts": [
    {
      "status": "0x1",
      "cumulativeGasUsed": "0xdfc4fe",
      "logs": [
        {
          "address": "0x270e88f8683660553e8ba4eb2ad7c91a1710d769",
          "topics": [
            "0xddf252ad1be2c89b69c2b068fc378daa952ba7f163c4a11628f55a4df523b3ef",
            "0x0000000000000000000000000000000000000000000000000000000000000000",
            "0x000000000000000000000000c77f7fed3b5cc8249adc428c5f44c9063b9734b4"
          ],
          "data": "0x00000000000000000000000000000000000000000000002851c64737c8d2d693",
          "blockHash": "0x6859b998f0518c2804d72fabb199eb2ec5d47b863216a6530eaf509926c7e2b3",
          "blockNumber": "0x72540c",
          "transactionHash": "0xfd7935e7026bf8000d614413031662b55e1db2f042c87e2256841fcd1f8d7d7c",
          "transactionIndex": "0x37",
          "logIndex": "0x67",
          "removed": false
        },
        {
          "address": "0x270e88f8683660553e8ba4eb2ad7c91a1710d769",
          "topics": [
            "0xddf252ad1be2c89b69c2b068fc378daa952ba7f163c4a11628f55a4df523b3ef",
            "0x0000000000000000000000000000000000000000000000000000000000000000",
            "0x000000000000000000000000c77f7fed3b5cc8249adc428c5f44c9063b9734b4"
          ],
          "data": "0x0000000000000000000000000000000000000000000000001f4f35c20fe03623",
          "blockHash": "0x6859b998f0518c2804d72fabb199eb2ec5d47b863216a6530eaf509926c7e2b3",
          "blockNumber": "0x72540c",
          "transactionHash": "0xfd7935e7026bf8000d614413031662b55e1db2f042c87e2256841fcd1f8d7d7c",
          "transactionIndex": "0x37",
          "logIndex": "0x68",
          "removed": false
        },
        {
          "address": "0x270e88f8683660553e8ba4eb2ad7c91a1710d769",
          "topics": [
            "0x4afcb4a87cdbd9974efdb92ee48bc8d7cd0ae4bf217004db3d080cbaee652ca7"
          ],
          "data": "0x000000000000000000000000000000000000000000000000000000006786e2980000000000000000000000000000000000000000000000000004bab4d3e3d8470000000000000000000000000000000000000000000000000de0b6b3a7640000",
          "blockHash": "0x6859b998f0518c2804d72fabb199eb2ec5d47b863216a6530eaf509926c7e2b3",
          "blockNumber": "0x72540c",
          "transactionHash": "0xfd7935e7026bf8000d614413031662b55e1db2f042c87e2256841fcd1f8d7d7c",
          "transactionIndex": "0x37",
          "logIndex": "0x69",
          "removed": false
        }
      ],
      "logsBloom": "0x00000000000000000000000000000000000000000000000000000000000000000000000000000000000000000000000020000000000000004000000000000000000000000000000000000008000000000000000000000000000000000000000000000000020000000000000000000800020000000000000000000010000000000000000000010000000000000000000000000000000000000000010000000000000000000000000000000000000000004000000000000000000000000000000000000002000000800000000000000000000000000000080000008000000020000000000000000000000000000000000000000000000000000000000000000000",
      "type": "0x2",
      "transactionHash": "0xfd7935e7026bf8000d614413031662b55e1db2f042c87e2256841fcd1f8d7d7c",
      "transactionIndex": "0x37",
      "blockHash": "0x6859b998f0518c2804d72fabb199eb2ec5d47b863216a6530eaf509926c7e2b3",
      "blockNumber": "0x72540c",
      "gasUsed": "0x13af8",
      "effectiveGasPrice": "0x1488e3f44",
      "from": "0xc77f7fed3b5cc8249adc428c5f44c9063b9734b4",
      "to": "0x270e88f8683660553e8ba4eb2ad7c91a1710d769",
      "contractAddress": null
    }
  ],
  "libraries": [],
  "pending": [],
  "returns": {},
  "timestamp": 1736893081,
  "chain": 11155111,
  "commit": "51a374b"
}