{
  "transactions": [
    {
      "hash": "0xc813721927d76dfac94b8be19f0371bf020624704029a10ca36c84b58226dc7b",
      "transactionType": "CALL",
      "contractName": null,
      "contractAddress": "0x270e88f8683660553e8ba4eb2ad7c91a1710d769",
      "function": "sell(uint256)",
      "arguments": [
        "715543073701693801721"
      ],
      "transaction": {
        "from": "0xc77f7fed3b5cc8249adc428c5f44c9063b9734b4",
        "to": "0x270e88f8683660553e8ba4eb2ad7c91a1710d769",
        "gas": "0x16fec",
        "value": "0x0",
        "input": "0xe4849b32000000000000000000000000000000000000000000000026ca27aa6c089cc4f9",
        "nonce": "0x858",
        "chainId": "0xaa36a7"
      },
      "additionalContracts": [],
      "isFixedGasLimit": false
    }
  ],
  "receipts": [
    {
      "status": "0x1",
      "cumulativeGasUsed": "0x125b445",
      "logs": [
        {
          "address": "0x270e88f8683660553e8ba4eb2ad7c91a1710d769",
          "topics": [
            "0xddf252ad1be2c89b69c2b068fc378daa952ba7f163c4a11628f55a4df523b3ef",
            "0x000000000000000000000000c77f7fed3b5cc8249adc428c5f44c9063b9734b4",
            "0x0000000000000000000000000000000000000000000000000000000000000000"
          ],
          "data": "0x000000000000000000000000000000000000000000000026ca27aa6c089cc4f9",
          "blockHash": "0x4e3da8b5d39a43c4ca63f6a9ebd2c75fc5457deff2540d4cdbbeb5f14e30954a",
          "blockNumber": "0x7255ac",
          "transactionHash": "0xc813721927d76dfac94b8be19f0371bf020624704029a10ca36c84b58226dc7b",
          "transactionIndex": "0x4e",
          "logIndex": "0x1b2",
          "removed": false
        },
        {
          "address": "0x270e88f8683660553e8ba4eb2ad7c91a1710d769",
          "topics": [
            "0x4afcb4a87cdbd9974efdb92ee48bc8d7cd0ae4bf217004db3d080cbaee652ca7"
          ],
          "data": "0x000000000000000000000000000000000000000000000000000000006786f6180000000000000000000000000000000000000000000000000004ee745d77ff000000000000000000000000000000000000000000000000000dc825f7be0e8b25",
          "blockHash": "0x4e3da8b5d39a43c4ca63f6a9ebd2c75fc5457deff2540d4cdbbeb5f14e30954a",
          "blockNumber": "0x7255ac",
          "transactionHash": "0xc813721927d76dfac94b8be19f0371bf020624704029a10ca36c84b58226dc7b",
          "transactionIndex": "0x4e",
          "logIndex": "0x1b3",
          "removed": false
        }
      ],
      "logsBloom": "0x00000000000000000000000000000000000000000000000000000000000000000000000000000000000000000000000020000000000000004000000000000000000000000000000000000008000000000000000000000000000000000000000000000000020000000000000000000800020000000000000000000010000000000000000000010000000000000000000000000000000000000000010000000000000000000000000000000000000000004000000000000000000000000000000000000002000000800000000000000000000000000000080000008000000020000000000000000000000000000000000000000000000000000000000000000000",
      "type": "0x2",
      "transactionHash": "0xc813721927d76dfac94b8be19f0371bf020624704029a10ca36c84b58226dc7b",
      "transactionIndex": "0x4e",
      "blockHash": "0x4e3da8b5d39a43c4ca63f6a9ebd2c75fc5457deff2540d4cdbbeb5f14e30954a",
      "blockNumber": "0x7255ac",
      "gasUsed": "0xfb93",
      "effectiveGasPrice": "0x5ecc8fee",
      "from": "0xc77f7fed3b5cc8249adc428c5f44c9063b9734b4",
      "to": "0x270e88f8683660553e8ba4eb2ad7c91a1710d769",
      "contractAddress": null
    }
  ],
  "libraries": [],
  "pending": [],
  "returns": {},
  "timestamp": 1736898073,
  "chain": 11155111,
  "commit": "51a374b"
}