{
  "transactions": [
    {
      "hash": "0xc3141f02aedebce3eb07e69a039e7977f17dc47fa1ece141758c3b12ad0ef842",
      "transactionType": "CALL",
      "contractName": null,
      "contractAddress": "0x270e88f8683660553e8ba4eb2ad7c91a1710d769",
      "function": "sell(uint256)",
      "arguments": [
        "745477171500693478194"
      ],
      "transaction": {
        "from": "0xc77f7fed3b5cc8249adc428c5f44c9063b9734b4",
        "to": "0x270e88f8683660553e8ba4eb2ad7c91a1710d769",
        "gas": "0x16fec",
        "value": "0x0",
        "input": "0xe4849b320000000000000000000000000000000000000000000000286992f1c5c5ca5b32",
        "nonce": "0x6fe",
        "chainId": "0xaa36a7"
      },
      "additionalContracts": [],
      "isFixedGasLimit": false
    }
  ],
  "receipts": [
    {
      "status": "0x1",
      "cumulativeGasUsed": "0x61b8c7",
      "logs": [
        {
          "address": "0x270e88f8683660553e8ba4eb2ad7c91a1710d769",
          "topics": [
            "0xddf252ad1be2c89b69c2b068fc378daa952ba7f163c4a11628f55a4df523b3ef",
            "0x000000000000000000000000c77f7fed3b5cc8249adc428c5f44c9063b9734b4",
            "0x0000000000000000000000000000000000000000000000000000000000000000"
          ],
          "data": "0x0000000000000000000000000000000000000000000000286992f1c5c5ca5b32",
          "blockHash": "0x0763ae5da373bfcf64c2d145a7b1dab090eeab3ec266f760518c5395eb44c477",
          "blockNumber": "0x725414",
          "transactionHash": "0xc3141f02aedebce3eb07e69a039e7977f17dc47fa1ece141758c3b12ad0ef842",
          "transactionIndex": "0x32",
          "logIndex": "0x48",
          "removed": false
        },
        {
          "address": "0x270e88f8683660553e8ba4eb2ad7c91a1710d769",
          "topics": [
            "0x4afcb4a87cdbd9974efdb92ee48bc8d7cd0ae4bf217004db3d080cbaee652ca7"
          ],
          "data": "0x000000000000000000000000000000000000000000000000000000006786e2f80000000000000000000000000000000000000000000000000004bbc5f7db74360000000000000000000000000000000000000000000000000dc829111341d765",
          "blockHash": "0x0763ae5da373bfcf64c2d145a7b1dab090eeab3ec266f760518c5395eb44c477",
          "blockNumber": "0x725414",
          "transactionHash": "0xc3141f02aedebce3eb07e69a039e7977f17dc47fa1ece141758c3b12ad0ef842",
          "transactionIndex": "0x32",
          "logIndex": "0x49",
          "removed": false
        }
      ],
      "logsBloom": "0x00000000000000000000000000000000000000000000000000000000000000000000000000000000000000000000000020000000000000004000000000000000000000000000000000000008000000000000000000000000000000000000000000000000020000000000000000000800020000000000000000000010000000000000000000010000000000000000000000000000000000000000010000000000000000000000000000000000000000004000000000000000000000000000000000000002000000800000000000000000000000000000080000008000000020000000000000000000000000000000000000000000000000000000000000000000",
      "type": "0x2",
      "transactionHash": "0xc3141f02aedebce3eb07e69a039e7977f17dc47fa1ece141758c3b12ad0ef842",
      "transactionIndex": "0x32",
      "blockHash": "0x0763ae5da373bfcf64c2d145a7b1dab090eeab3ec266f760518c5395eb44c477",
      "blockNumber": "0x725414",
      "gasUsed": "0xfb93",
      "effectiveGasPrice": "0x1510b91a2",
      "from": "0xc77f7fed3b5cc8249adc428c5f44c9063b9734b4",
      "to": "0x270e88f8683660553e8ba4eb2ad7c91a1710d769",
      "contractAddress": null
    }
  ],
  "libraries": [],
  "pending": [],
  "returns": {},
  "timestamp": 1736893178,
  "chain": 11155111,
  "commit": "51a374b"
}