{
  "transactions": [
    {
      "hash": "0x6b6a682dec6858a5247238d180d1b3b021892e4eb508b2f949ee77451d2bfcf2",
      "transactionType": "CALL",
      "contractName": null,
      "contractAddress": "0x270e88f8683660553e8ba4eb2ad7c91a1710d769",
      "function": "sell(uint256)",
      "arguments": [
        "738336006804895125917"
      ],
      "transaction": {
        "from": "0xc77f7fed3b5cc8249adc428c5f44c9063b9734b4",
        "to": "0x270e88f8683660553e8ba4eb2ad7c91a1710d769",
        "gas": "0x16fec",
        "value": "0x0",
        "input": "0xe4849b3200000000000000000000000000000000000000000000002806786e51362b519d",
        "nonce": "0x74e",
        "chainId": "0xaa36a7"
      },
      "additionalContracts": [],
      "isFixedGasLimit": false
    }
  ],
  "receipts": [
    {
      "status": "0x1",
      "cumulativeGasUsed": "0x1076b28",
      "logs": [
        {
          "address": "0x270e88f8683660553e8ba4eb2ad7c91a1710d769",
          "topics": [
            "0xddf252ad1be2c89b69c2b068fc378daa952ba7f163c4a11628f55a4df523b3ef",
            "0x000000000000000000000000c77f7fed3b5cc8249adc428c5f44c9063b9734b4",
            "0x0000000000000000000000000000000000000000000000000000000000000000"
          ],
          "data": "0x00000000000000000000000000000000000000000000002806786e51362b519d",
          "blockHash": "0xc1a1a96040cd5aabdf5d7156a4032ab12f292f935fb11cc04b35e66918c6eba8",
          "blockNumber": "0x725474",
          "transactionHash": "0x6b6a682dec6858a5247238d180d1b3b021892e4eb508b2f949ee77451d2bfcf2",
          "transactionIndex": "0x3c",
          "logIndex": "0x58",
          "removed": false
        },
        {
          "address": "0x270e88f8683660553e8ba4eb2ad7c91a1710d769",
          "topics": [
            "0x4afcb4a87cdbd9974efdb92ee48bc8d7cd0ae4bf217004db3d080cbaee652ca7"
          ],
          "data": "0x000000000000000000000000000000000000000000000000000000006786e7780000000000000000000000000000000000000000000000000004c77da069dd9c0000000000000000000000000000000000000000000000000dc82853e2f07a82",
          "blockHash": "0xc1a1a96040cd5aabdf5d7156a4032ab12f292f935fb11cc04b35e66918c6eba8",
          "blockNumber": "0x725474",
          "transactionHash": "0x6b6a682dec6858a5247238d180d1b3b021892e4eb508b2f949ee77451d2bfcf2",
          "transactionIndex": "0x3c",
          "logIndex": "0x59",
          "removed": false
        }
      ],
      "logsBloom": "0x00000000000000000000000000000000000000000000000000000000000000000000000000000000000000000000000020000000000000004000000000000000000000000000000000000008000000000000000000000000000000000000000000000000020000000000000000000800020000000000000000000010000000000000000000010000000000000000000000000000000000000000010000000000000000000000000000000000000000004000000000000000000000000000000000000002000000800000000000000000000000000000080000008000000020000000000000000000000000000000000000000000000000000000000000000000",
      "type": "0x2",
      "transactionHash": "0x6b6a682dec6858a5247238d180d1b3b021892e4eb508b2f949ee77451d2bfcf2",
      "transactionIndex": "0x3c",
      "blockHash": "0xc1a1a96040cd5aabdf5d7156a4032ab12f292f935fb11cc04b35e66918c6eba8",
      "blockNumber": "0x725474",
      "gasUsed": "0xfb93",
      "effectiveGasPrice": "0x14d3bb255",
      "from": "0xc77f7fed3b5cc8249adc428c5f44c9063b9734b4",
      "to": "0x270e88f8683660553e8ba4eb2ad7c91a1710d769",
      "contractAddress": null
    }
  ],
  "libraries": [],
  "pending": [],
  "returns": {},
  "timestamp": 1736894330,
  "chain": 11155111,
  "commit": "51a374b"
}