{
  "transactions": [
    {
      "hash": "0xc70e1bc065c35f6192dc91bb5031d4f6bb2acaa69b1c908d514b0f84cd6f1c46",
      "transactionType": "CALL",
      "contractName": null,
      "contractAddress": "0x8aafd3ede9adb0ff97c7aebce82a919afb1c8764",
      "function": "sell(uint256)",
      "arguments": [
        "104346198985479"
      ],
      "transaction": {
        "from": "0xc77f7fed3b5cc8249adc428c5f44c9063b9734b4",
        "to": "0x8aafd3ede9adb0ff97c7aebce82a919afb1c8764",
        "gas": "0x15daa",
        "value": "0x0",
        "input": "0xe4849b3200000000000000000000000000000000000000000000000000005ee6fe1fcb07",
        "nonce": "0x151d",
        "chainId": "0xaa36a7"
      },
      "additionalContracts": [],
      "isFixedGasLimit": false
    }
  ],
  "receipts": [
    {
      "status": "0x1",
      "cumulativeGasUsed": "0xb66e1a",
      "logs": [
        {
          "address": "0x8aafd3ede9adb0ff97c7aebce82a919afb1c8764",
          "topics": [
            "0xddf252ad1be2c89b69c2b068fc378daa952ba7f163c4a11628f55a4df523b3ef",
            "0x000000000000000000000000c77f7fed3b5cc8249adc428c5f44c9063b9734b4",
            "0x0000000000000000000000000000000000000000000000000000000000000000"
          ],
          "data": "0x00000000000000000000000000000000000000000000000000005e24a1faacbc",
          "blockHash": "0x425a172f10cc3a50afb07aaf4d22b428d0e93d3606718044f167c04a4fe3ffcb",
          "blockNumber": "0x731c7f",
          "transactionHash": "0xc70e1bc065c35f6192dc91bb5031d4f6bb2acaa69b1c908d514b0f84cd6f1c46",
          "transactionIndex": "0x63",
          "logIndex": "0x8e",
          "removed": false
        },
        {
          "address": "0x8aafd3ede9adb0ff97c7aebce82a919afb1c8764",
          "topics": [
            "0xddf252ad1be2c89b69c2b068fc378daa952ba7f163c4a11628f55a4df523b3ef",
            "0x000000000000000000000000c77f7fed3b5cc8249adc428c5f44c9063b9734b4",
            "0x000000000000000000000000c77f7fed3b5cc8249adc428c5f44c9063b9734b4"
          ],
          "data": "0x000000000000000000000000000000000000000000000000000000c25c251e4b",
          "blockHash": "0x425a172f10cc3a50afb07aaf4d22b428d0e93d3606718044f167c04a4fe3ffcb",
          "blockNumber": "0x731c7f",
          "transactionHash": "0xc70e1bc065c35f6192dc91bb5031d4f6bb2acaa69b1c908d514b0f84cd6f1c46",
          "transactionIndex": "0x63",
          "logIndex": "0x8f",
          "removed": false
        },
        {
          "address": "0x8aafd3ede9adb0ff97c7aebce82a919afb1c8764",
          "topics": [
            "0x4afcb4a87cdbd9974efdb92ee48bc8d7cd0ae4bf217004db3d080cbaee652ca7"
          ],
          "data": "0x00000000000000000000000000000000000000000000000000000000679052d000000000000000000000000000000000000000000000000000116a00d470c5b50000000000000000000000000000000000000000000000000000007715c11120",
          "blockHash": "0x425a172f10cc3a50afb07aaf4d22b428d0e93d3606718044f167c04a4fe3ffcb",
          "blockNumber": "0x731c7f",
          "transactionHash": "0xc70e1bc065c35f6192dc91bb5031d4f6bb2acaa69b1c908d514b0f84cd6f1c46",
          "transactionIndex": "0x63",
          "logIndex": "0x90",
          "removed": false
        }
      ],
      "logsBloom": "0x00000000000000000000000000000000000000000600000000000000000000000000000000000000000000000000000000000000000000004000000000000000000000000000004000000008000000000000000000000000000000000000000000000000020000000000000000000800020000000000000000000010000000000000000000000000000000000000000000000000000000000000010000000000000000000000000000000000000000004000000000000000000000000000000000000002000000800000000000000000000000000000080000000000000020000000000000000000000000000000000000000000000000000000000000000000",
      "type": "0x2",
      "transactionHash": "0xc70e1bc065c35f6192dc91bb5031d4f6bb2acaa69b1c908d514b0f84cd6f1c46",
      "transactionIndex": "0x63",
      "blockHash": "0x425a172f10cc3a50afb07aaf4d22b428d0e93d3606718044f167c04a4fe3ffcb",
      "blockNumber": "0x731c7f",
      "gasUsed": "0xfd27",
      "effectiveGasPrice": "0x1693ece3e",
      "from": "0xc77f7fed3b5cc8249adc428c5f44c9063b9734b4",
      "to": "0x8aafd3ede9adb0ff97c7aebce82a919afb1c8764",
      "contractAddress": null
    }
  ],
  "libraries": [],
  "pending": [],
  "returns": {},
  "timestamp": 1737511633,
  "chain": 11155111,
  "commit": "1d2fb70"
}