{
  "transactions": [
    {
      "hash": "0xaa2cd9e5b2e39db444db74933b1a02364a6b7fd0f039288c34157f35fd1e807b",
      "transactionType": "CALL",
      "contractName": null,
      "contractAddress": "0x8aafd3ede9adb0ff97c7aebce82a919afb1c8764",
      "function": "sell(uint256)",
      "arguments": [
        "2739604494665"
      ],
      "transaction": {
        "from": "0xc77f7fed3b5cc8249adc428c5f44c9063b9734b4",
        "to": "0x8aafd3ede9adb0ff97c7aebce82a919afb1c8764",
        "gas": "0x15daa",
        "value": "0x0",
        "input": "0xe4849b320000000000000000000000000000000000000000000000000000027ddd271949",
        "nonce": "0x129d",
        "chainId": "0xaa36a7"
      },
      "additionalContracts": [],
      "isFixedGasLimit": false
    }
  ],
  "receipts": [
    {
      "status": "0x1",
      "cumulativeGasUsed": "0x815e8d",
      "logs": [
        {
          "address": "0x8aafd3ede9adb0ff97c7aebce82a919afb1c8764",
          "topics": [
            "0xddf252ad1be2c89b69c2b068fc378daa952ba7f163c4a11628f55a4df523b3ef",
            "0x000000000000000000000000c77f7fed3b5cc8249adc428c5f44c9063b9734b4",
            "0x0000000000000000000000000000000000000000000000000000000000000000"
          ],
          "data": "0x00000000000000000000000000000000000000000000000000000278c2ceb8d4",
          "blockHash": "0x0b3d1e688c41382998b5f2df0e67febd4736a7a451769cb5d7111af4c2ba8610",
          "blockNumber": "0x73198f",
          "transactionHash": "0xaa2cd9e5b2e39db444db74933b1a02364a6b7fd0f039288c34157f35fd1e807b",
          "transactionIndex": "0x6b",
          "logIndex": "0x96",
          "removed": false
        },
        {
          "address": "0x8aafd3ede9adb0ff97c7aebce82a919afb1c8764",
          "topics": [
            "0xddf252ad1be2c89b69c2b068fc378daa952ba7f163c4a11628f55a4df523b3ef",
            "0x000000000000000000000000c77f7fed3b5cc8249adc428c5f44c9063b9734b4",
            "0x000000000000000000000000c77f7fed3b5cc8249adc428c5f44c9063b9734b4"
          ],
          "data": "0x000000000000000000000000000000000000000000000000000000051a586075",
          "blockHash": "0x0b3d1e688c41382998b5f2df0e67febd4736a7a451769cb5d7111af4c2ba8610",
          "blockNumber": "0x73198f",
          "transactionHash": "0xaa2cd9e5b2e39db444db74933b1a02364a6b7fd0f039288c34157f35fd1e807b",
          "transactionIndex": "0x6b",
          "logIndex": "0x97",
          "removed": false
        },
        {
          "address": "0x8aafd3ede9adb0ff97c7aebce82a919afb1c8764",
          "topics": [
            "0x4afcb4a87cdbd9974efdb92ee48bc8d7cd0ae4bf217004db3d080cbaee652ca7"
          ],
          "data": "0x0000000000000000000000000000000000000000000000000000000067902f84000000000000000000000000000000000000000000000000000547baec7d39d500000000000000000000000000000000000000000000000000000000f2b17ce2",
          "blockHash": "0x0b3d1e688c41382998b5f2df0e67febd4736a7a451769cb5d7111af4c2ba8610",
          "blockNumber": "0x73198f",
          "transactionHash": "0xaa2cd9e5b2e39db444db74933b1a02364a6b7fd0f039288c34157f35fd1e807b",
          "transactionIndex": "0x6b",
          "logIndex": "0x98",
          "removed": false
        }
      ],
      "logsBloom": "0x00000000000000000000000000000000000000000600000000000000000000000000000000000000000000000000000000000000000000004000000000000000000000000000004000000008000000000000000000000000000000000000000000000000020000000000000000000800020000000000000000000010000000000000000000000000000000000000000000000000000000000000010000000000000000000000000000000000000000004000000000000000000000000000000000000002000000800000000000000000000000000000080000000000000020000000000000000000000000000000000000000000000000000000000000000000",
      "type": "0x2",
      "transactionHash": "0xaa2cd9e5b2e39db444db74933b1a02364a6b7fd0f039288c34157f35fd1e807b",
      "transactionIndex": "0x6b",
      "blockHash": "0x0b3d1e688c41382998b5f2df0e67febd4736a7a451769cb5d7111af4c2ba8610",
      "blockNumber": "0x73198f",
      "gasUsed": "0xfd27",
      "effectiveGasPrice": "0x42a6fe56",
      "from": "0xc77f7fed3b5cc8249adc428c5f44c9063b9734b4",
      "to": "0x8aafd3ede9adb0ff97c7aebce82a919afb1c8764",
      "contractAddress": null
    }
  ],
  "libraries": [],
  "pending": [],
  "returns": {},
  "timestamp": 1737502598,
  "chain": 11155111,
  "commit": "1d2fb70"
}