{
  "transactions": [
    {
      "hash": "0xd5ee616c27239066db1520dabcb49469dffd829b8d381474b8681837160ed51a",
      "transactionType": "CALL",
      "contractName": null,
      "contractAddress": "0x8aafd3ede9adb0ff97c7aebce82a919afb1c8764",
      "function": "sell(uint256)",
      "arguments": [
        "76633618"
      ],
      "transaction": {
        "from": "0xc77f7fed3b5cc8249adc428c5f44c9063b9734b4",
        "to": "0x8aafd3ede9adb0ff97c7aebce82a919afb1c8764",
        "gas": "0x15d88",
        "value": "0x0",
        "input": "0xe4849b320000000000000000000000000000000000000000000000000000000004915612",
        "nonce": "0x1355",
        "chainId": "0xaa36a7"
      },
      "additionalContracts": [],
      "isFixedGasLimit": false
    }
  ],
  "receipts": [
    {
      "status": "0x1",
      "cumulativeGasUsed": "0x76a9e5",
      "logs": [
        {
          "address": "0x8aafd3ede9adb0ff97c7aebce82a919afb1c8764",
          "topics": [
            "0xddf252ad1be2c89b69c2b068fc378daa952ba7f163c4a11628f55a4df523b3ef",
            "0x000000000000000000000000c77f7fed3b5cc8249adc428c5f44c9063b9734b4",
            "0x0000000000000000000000000000000000000000000000000000000000000000"
          ],
          "data": "0x000000000000000000000000000000000000000000000000000000000487fb46",
          "blockHash": "0x0d088970d3f7ff960c4add7709bcee2725e5b483a805d7fcd520c13c7714802c",
          "blockNumber": "0x731a71",
          "transactionHash": "0xd5ee616c27239066db1520dabcb49469dffd829b8d381474b8681837160ed51a",
          "transactionIndex": "0x64",
          "logIndex": "0x5f",
          "removed": false
        },
        {
          "address": "0x8aafd3ede9adb0ff97c7aebce82a919afb1c8764",
          "topics": [
            "0xddf252ad1be2c89b69c2b068fc378daa952ba7f163c4a11628f55a4df523b3ef",
            "0x000000000000000000000000c77f7fed3b5cc8249adc428c5f44c9063b9734b4",
            "0x000000000000000000000000c77f7fed3b5cc8249adc428c5f44c9063b9734b4"
          ],
          "data": "0x0000000000000000000000000000000000000000000000000000000000095acc",
          "blockHash": "0x0d088970d3f7ff960c4add7709bcee2725e5b483a805d7fcd520c13c7714802c",
          "blockNumber": "0x731a71",
          "transactionHash": "0xd5ee616c27239066db1520dabcb49469dffd829b8d381474b8681837160ed51a",
          "transactionIndex": "0x64",
          "logIndex": "0x60",
          "removed": false
        },
        {
          "address": "0x8aafd3ede9adb0ff97c7aebce82a919afb1c8764",
          "topics": [
            "0x4afcb4a87cdbd9974efdb92ee48bc8d7cd0ae4bf217004db3d080cbaee652ca7"
          ],
          "data": "0x0000000000000000000000000000000000000000000000000000000067903a1c000000000000000000000000000000000000000000000000000c2b66634fdeb60000000000000000000000000000000000000000000000000000000000040166",
          "blockHash": "0x0d088970d3f7ff960c4add7709bcee2725e5b483a805d7fcd520c13c7714802c",
          "blockNumber": "0x731a71",
          "transactionHash": "0xd5ee616c27239066db1520dabcb49469dffd829b8d381474b8681837160ed51a",
          "transactionIndex": "0x64",
          "logIndex": "0x61",
          "removed": false
        }
      ],
      "logsBloom": "0x00000000000000000000000000000000000000000600000000000000000000000000000000000000000000000000000000000000000000004000000000000000000000000000004000000008000000000000000000000000000000000000000000000000020000000000000000000800020000000000000000000010000000000000000000000000000000000000000000000000000000000000010000000000000000000000000000000000000000004000000000000000000000000000000000000002000000800000000000000000000000000000080000000000000020000000000000000000000000000000000000000000000000000000000000000000",
      "type": "0x2",
      "transactionHash": "0xd5ee616c27239066db1520dabcb49469dffd829b8d381474b8681837160ed51a",
      "transactionIndex": "0x64",
      "blockHash": "0x0d088970d3f7ff960c4add7709bcee2725e5b483a805d7fcd520c13c7714802c",
      "blockNumber": "0x731a71",
      "gasUsed": "0xfd0f",
      "effectiveGasPrice": "0x40ae2969",
      "from": "0xc77f7fed3b5cc8249adc428c5f44c9063b9734b4",
      "to": "0x8aafd3ede9adb0ff97c7aebce82a919afb1c8764",
      "contractAddress": null
    }
  ],
  "libraries": [],
  "pending": [],
  "returns": {},
  "timestamp": 1737505309,
  "chain": 11155111,
  "commit": "1d2fb70"
}