{
  "transactions": [
    {
      "hash": "0x11995023e5d97c1b2253f0145a730d83a393655a06f9f1c90796ee017331e878",
      "transactionType": "CALL",
      "contractName": null,
      "contractAddress": "0xbf4a322f1496e5c3d34a9bcdb4c60567b38c7de2",
      "function": "buy(address)",
      "arguments": [
        "0xC77f7fed3b5Cc8249aDc428c5F44C9063B9734b4"
      ],
      "transaction": {
        "from": "0xc77f7fed3b5cc8249adc428c5f44c9063b9734b4",
        "to": "0xbf4a322f1496e5c3d34a9bcdb4c60567b38c7de2",
        "gas": "0x1b309",
        "value": "0xde0b6b3a7640000",
        "input": "0xf088d547000000000000000000000000c77f7fed3b5cc8249adc428c5f44c9063b9734b4",
        "nonce": "0xc7c",
        "chainId": "0xaa36a7"
      },
      "additionalContracts": [],
      "isFixedGasLimit": false
    }
  ],
  "receipts": [
    {
      "status": "0x1",
      "cumulativeGasUsed": "0x7078b0",
      "logs": [
        {
          "address": "0xbf4a322f1496e5c3d34a9bcdb4c60567b38c7de2",
          "topics": [
            "0xddf252ad1be2c89b69c2b068fc378daa952ba7f163c4a11628f55a4df523b3ef",
            "0x0000000000000000000000000000000000000000000000000000000000000000",
            "0x000000000000000000000000c77f7fed3b5cc8249adc428c5f44c9063b9734b4"
          ],
          "data": "0x000000000000000000000000000000000000000000000034e45b3180e5824e4b",
          "blockHash": "0x1de83754ebdaf0825341e22610deea3e81fe48f67347479a5b274b1a4a560eae",
          "blockNumber": "0x725cbc",
          "transactionHash": "0x11995023e5d97c1b2253f0145a730d83a393655a06f9f1c90796ee017331e878",
          "transactionIndex": "0x3a",
          "logIndex": "0x5a",
          "removed": false
        },
        {
          "address": "0xbf4a322f1496e5c3d34a9bcdb4c60567b38c7de2",
          "topics": [
            "0xddf252ad1be2c89b69c2b068fc378daa952ba7f163c4a11628f55a4df523b3ef",
            "0x0000000000000000000000000000000000000000000000000000000000000000",
            "0x000000000000000000000000c77f7fed3b5cc8249adc428c5f44c9063b9734b4"
          ],
          "data": "0x00000000000000000000000000000000000000000000000029128c68626a4c8a",
          "blockHash": "0x1de83754ebdaf0825341e22610deea3e81fe48f67347479a5b274b1a4a560eae",
          "blockNumber": "0x725cbc",
          "transactionHash": "0x11995023e5d97c1b2253f0145a730d83a393655a06f9f1c90796ee017331e878",
          "transactionIndex": "0x3a",
          "logIndex": "0x5b",
          "removed": false
        },
        {
          "address": "0xbf4a322f1496e5c3d34a9bcdb4c60567b38c7de2",
          "topics": [
            "0x4afcb4a87cdbd9974efdb92ee48bc8d7cd0ae4bf217004db3d080cbaee652ca7"
          ],
          "data": "0x0000000000000000000000000000000000000000000000000000000067874b4400000000000000000000000000000000000000000000000000039ad8e26204f80000000000000000000000000000000000000000000000000de0b6b3a7640000",
          "blockHash": "0x1de83754ebdaf0825341e22610deea3e81fe48f67347479a5b274b1a4a560eae",
          "blockNumber": "0x725cbc",
          "transactionHash": "0x11995023e5d97c1b2253f0145a730d83a393655a06f9f1c90796ee017331e878",
          "transactionIndex": "0x3a",
          "logIndex": "0x5c",
          "removed": false
        }
      ],
      "logsBloom": "0x00000000000000000000000000000000000000000000000000000000000000000000000000000000000000000000000000000000000000004000000000000000000000000000000000000008000000000000001000000000000000000000000000000000020000000000000000000800020000000000000000000010000000000000000000000000000000000000000000000000000008000000010000000000000000000000000000000000000000004000000000000000000000000000000000000002000000800000000000001000000000000000080000000000000020000000000000000000000000000000000000000000000000000000000000000000",
      "type": "0x2",
      "transactionHash": "0x11995023e5d97c1b2253f0145a730d83a393655a06f9f1c90796ee017331e878",
      "transactionIndex": "0x3a",
      "blockHash": "0x1de83754ebdaf0825341e22610deea3e81fe48f67347479a5b274b1a4a560eae",
      "blockNumber": "0x725cbc",
      "gasUsed": "0x13af6",
      "effectiveGasPrice": "0x29e24d861",
      "from": "0xc77f7fed3b5cc8249adc428c5f44c9063b9734b4",
      "to": "0xbf4a322f1496e5c3d34a9bcdb4c60567b38c7de2",
      "contractAddress": null
    }
  ],
  "libraries": [],
  "pending": [],
  "returns": {},
  "timestamp": 1736919876,
  "chain": 11155111,
  "commit": "51a374b"
}