{
  "transactions": [
    {
      "hash": "0xb185c2be3fb5ff074122e1b97c053e1ef1f293ff6b5054c33e25dc09fa89cfb6",
      "transactionType": "CALL",
      "contractName": null,
      "contractAddress": "0x8aafd3ede9adb0ff97c7aebce82a919afb1c8764",
      "function": "sell(uint256)",
      "arguments": [
        "45550809302414074"
      ],
      "transaction": {
        "from": "0xc77f7fed3b5cc8249adc428c5f44c9063b9734b4",
        "to": "0x8aafd3ede9adb0ff97c7aebce82a919afb1c8764",
        "gas": "0x1724d",
        "value": "0x0",
        "input": "0xe4849b3200000000000000000000000000000000000000000000000000a1d4383fb3b2fa",
        "nonce": "0x106b",
        "chainId": "0xaa36a7"
      },
      "additionalContracts": [],
      "isFixedGasLimit": false
    }
  ],
  "receipts": [
    {
      "status": "0x1",
      "cumulativeGasUsed": "0xe4b2e8",
      "logs": [
        {
          "address": "0x8aafd3ede9adb0ff97c7aebce82a919afb1c8764",
          "topics": [
            "0xddf252ad1be2c89b69c2b068fc378daa952ba7f163c4a11628f55a4df523b3ef",
            "0x000000000000000000000000c77f7fed3b5cc8249adc428c5f44c9063b9734b4",
            "0x0000000000000000000000000000000000000000000000000000000000000000"
          ],
          "data": "0x00000000000000000000000000000000000000000000000000a088cb413d868a",
          "blockHash": "0xe4b84871a80e7c1083f74511413e66869da722e1d859977bc81ae6b8ef48823b",
          "blockNumber": "0x7316f1",
          "transactionHash": "0xb185c2be3fb5ff074122e1b97c053e1ef1f293ff6b5054c33e25dc09fa89cfb6",
          "transactionIndex": "0x7f",
          "logIndex": "0xed",
          "removed": false
        },
        {
          "address": "0x8aafd3ede9adb0ff97c7aebce82a919afb1c8764",
          "topics": [
            "0xddf252ad1be2c89b69c2b068fc378daa952ba7f163c4a11628f55a4df523b3ef",
            "0x000000000000000000000000c77f7fed3b5cc8249adc428c5f44c9063b9734b4",
            "0x000000000000000000000000c77f7fed3b5cc8249adc428c5f44c9063b9734b4"
          ],
          "data": "0x00000000000000000000000000000000000000000000000000014b6cfe762c70",
          "blockHash": "0xe4b84871a80e7c1083f74511413e66869da722e1d859977bc81ae6b8ef48823b",
          "blockNumber": "0x7316f1",
          "transactionHash": "0xb185c2be3fb5ff074122e1b97c053e1ef1f293ff6b5054c33e25dc09fa89cfb6",
          "transactionIndex": "0x7f",
          "logIndex": "0xee",
          "removed": false
        },
        {
          "address": "0x8aafd3ede9adb0ff97c7aebce82a919afb1c8764",
          "topics": [
            "0x4afcb4a87cdbd9974efdb92ee48bc8d7cd0ae4bf217004db3d080cbaee652ca7"
          ],
          "data": "0x00000000000000000000000000000000000000000000000000000000679010040000000000000000000000000000000000000000000000000004f65f8ff8e0d6000000000000000000000000000000000000000000000000000039ddd4cf8692",
          "blockHash": "0xe4b84871a80e7c1083f74511413e66869da722e1d859977bc81ae6b8ef48823b",
          "blockNumber": "0x7316f1",
          "transactionHash": "0xb185c2be3fb5ff074122e1b97c053e1ef1f293ff6b5054c33e25dc09fa89cfb6",
          "transactionIndex": "0x7f",
          "logIndex": "0xef",
          "removed": false
        }
      ],
      "logsBloom": "0x00000000000000000000000000000000000000000600000000000000000000000000000000000000000000000000000000000000000000004000000000000000000000000000004000000008000000000000000000000000000000000000000000000000020000000000000000000800020000000000000000000010000000000000000000000000000000000000000000000000000000000000010000000000000000000000000000000000000000004000000000000000000000000000000000000002000000800000000000000000000000000000080000000000000020000000000000000000000000000000000000000000000000000000000000000000",
      "type": "0x2",
      "transactionHash": "0xb185c2be3fb5ff074122e1b97c053e1ef1f293ff6b5054c33e25dc09fa89cfb6",
      "transactionIndex": "0x7f",
      "blockHash": "0xe4b84871a80e7c1083f74511413e66869da722e1d859977bc81ae6b8ef48823b",
      "blockNumber": "0x7316f1",
      "gasUsed": "0xfd33",
      "effectiveGasPrice": "0x41764d52",
      "from": "0xc77f7fed3b5cc8249adc428c5f44c9063b9734b4",
      "to": "0x8aafd3ede9adb0ff97c7aebce82a919afb1c8764",
      "contractAddress": null
    }
  ],
  "libraries": [],
  "pending": [],
  "returns": {},
  "timestamp": 1737494533,
  "chain": 11155111,
  "commit": "1d2fb70"
}