{
  "transactions": [
    {
      "hash": "0xceffaa963ba193ada47197b85895a7c9462e7044dc8416950d6ebcf33efb4e82",
      "transactionType": "CALL",
      "contractName": null,
      "contractAddress": "0x5eb9cc76c3506942c1c0ead70e877dd5e4f00cb0",
      "function": "buy(address)",
      "arguments": [
        "0xC77f7fed3b5Cc8249aDc428c5F44C9063B9734b4"
      ],
      "transaction": {
        "from": "0xc77f7fed3b5cc8249adc428c5f44c9063b9734b4",
        "to": "0x5eb9cc76c3506942c1c0ead70e877dd5e4f00cb0",
        "gas": "0x1b30c",
        "value": "0xde0b6b3a7640000",
        "input": "0xf088d547000000000000000000000000c77f7fed3b5cc8249adc428c5f44c9063b9734b4",
        "nonce": "0x38a",
        "chainId": "0xaa36a7"
      },
      "additionalContracts": [],
      "isFixedGasLimit": false
    }
  ],
  "receipts": [
    {
      "status": "0x1",
      "cumulativeGasUsed": "0xceaf88",
      "logs": [
        {
          "address": "0x5eb9cc76c3506942c1c0ead70e877dd5e4f00cb0",
          "topics": [
            "0xddf252ad1be2c89b69c2b068fc378daa952ba7f163c4a11628f55a4df523b3ef",
            "0x0000000000000000000000000000000000000000000000000000000000000000",
            "0x000000000000000000000000c77f7fed3b5cc8249adc428c5f44c9063b9734b4"
          ],
          "data": "0x0000000000000000000000000000000000000000000000357544d2e30ea2c6bc",
          "blockHash": "0x7e156cbda9c4229c11204131093c3e1b19fc04a05427ba02acac9d02d02ec364",
          "blockNumber": "0x724f84",
          "transactionHash": "0xceffaa963ba193ada47197b85895a7c9462e7044dc8416950d6ebcf33efb4e82",
          "transactionIndex": "0x57",
          "logIndex": "0xa9",
          "removed": false
        },
        {
          "address": "0x5eb9cc76c3506942c1c0ead70e877dd5e4f00cb0",
          "topics": [
            "0xddf252ad1be2c89b69c2b068fc378daa952ba7f163c4a11628f55a4df523b3ef",
            "0x0000000000000000000000000000000000000000000000000000000000000000",
            "0x000000000000000000000000c77f7fed3b5cc8249adc428c5f44c9063b9734b4"
          ],
          "data": "0x000000000000000000000000000000000000000000000000298313fbb017aa60",
          "blockHash": "0x7e156cbda9c4229c11204131093c3e1b19fc04a05427ba02acac9d02d02ec364",
          "blockNumber": "0x724f84",
          "transactionHash": "0xceffaa963ba193ada47197b85895a7c9462e7044dc8416950d6ebcf33efb4e82",
          "transactionIndex": "0x57",
          "logIndex": "0xaa",
          "removed": false
        },
        {
          "address": "0x5eb9cc76c3506942c1c0ead70e877dd5e4f00cb0",
          "topics": [
            "0x4afcb4a87cdbd9974efdb92ee48bc8d7cd0ae4bf217004db3d080cbaee652ca7"
          ],
          "data": "0x000000000000000000000000000000000000000000000000000000006786abe400000000000000000000000000000000000000000000000000039110faf7d4d00000000000000000000000000000000000000000000000000de0b6b3a7640000",
          "blockHash": "0x7e156cbda9c4229c11204131093c3e1b19fc04a05427ba02acac9d02d02ec364",
          "blockNumber": "0x724f84",
          "transactionHash": "0xceffaa963ba193ada47197b85895a7c9462e7044dc8416950d6ebcf33efb4e82",
          "transactionIndex": "0x57",
          "logIndex": "0xab",
          "removed": false
        }
      ],
      "logsBloom": "0x00000000000000000000000000000000000000000000000000000000000000000000000000000000000000000000000000000000000000004000000000000000000000000000000000000008000000000000000000000000000000000000000000000000020000000000000004000800020000000000000000000010000000000000000000000000000000000000000000000000000000000000010000000000000000000000000000000000000000004000000000000000000000000000020000000002000000800000008000000000000000000000080000000000000020000000000000000000000000000000000000000000000000000000000000000000",
      "type": "0x2",
      "transactionHash": "0xceffaa963ba193ada47197b85895a7c9462e7044dc8416950d6ebcf33efb4e82",
      "transactionIndex": "0x57",
      "blockHash": "0x7e156cbda9c4229c11204131093c3e1b19fc04a05427ba02acac9d02d02ec364",
      "blockNumber": "0x724f84",
      "gasUsed": "0x13af8",
      "effectiveGasPrice": "0x5914ad580",
      "from": "0xc77f7fed3b5cc8249adc428c5f44c9063b9734b4",
      "to": "0x5eb9cc76c3506942c1c0ead70e877dd5e4f00cb0",
      "contractAddress": null
    }
  ],
  "libraries": [],
  "pending": [],
  "returns": {},
  "timestamp": 1736879077,
  "chain": 11155111,
  "commit": "51a374b"
}