{
  "transactions": [
    {
      "hash": "0xc985fc87d7f0e232bbc4e1b69a3fc70b10f71c0a014b4820d6eee0c9d20eaf61",
      "transactionType": "CALL",
      "contractName": null,
      "contractAddress": "0x8aafd3ede9adb0ff97c7aebce82a919afb1c8764",
      "function": "sell(uint256)",
      "arguments": [
        "11430"
      ],
      "transaction": {
        "from": "0xc77f7fed3b5cc8249adc428c5f44c9063b9734b4",
        "to": "0x8aafd3ede9adb0ff97c7aebce82a919afb1c8764",
        "gas": "0x14e4c",
        "value": "0x0",
        "input": "0xe4849b320000000000000000000000000000000000000000000000000000000000002ca6",
        "nonce": "0x11f7",
        "chainId": "0xaa36a7"
      },
      "additionalContracts": [],
      "isFixedGasLimit": false
    }
  ],
  "receipts": [
    {
      "status": "0x1",
      "cumulativeGasUsed": "0x10bdb86",
      "logs": [
        {
          "address": "0x8aafd3ede9adb0ff97c7aebce82a919afb1c8764",
          "topics": [
            "0xddf252ad1be2c89b69c2b068fc378daa952ba7f163c4a11628f55a4df523b3ef",
            "0x000000000000000000000000c77f7fed3b5cc8249adc428c5f44c9063b9734b4",
            "0x0000000000000000000000000000000000000000000000000000000000000000"
          ],
          "data": "0x0000000000000000000000000000000000000000000000000000000000002c4b",
          "blockHash": "0xc85bf208bec625d106ea95f37adda1e44f073214f044b0196dd986b6bb381cb7",
          "blockNumber": "0x7318d1",
          "transactionHash": "0xc985fc87d7f0e232bbc4e1b69a3fc70b10f71c0a014b4820d6eee0c9d20eaf61",
          "transactionIndex": "0xc1",
          "logIndex": "0xf3",
          "removed": false
        },
        {
          "address": "0x8aafd3ede9adb0ff97c7aebce82a919afb1c8764",
          "topics": [
            "0xddf252ad1be2c89b69c2b068fc378daa952ba7f163c4a11628f55a4df523b3ef",
            "0x000000000000000000000000c77f7fed3b5cc8249adc428c5f44c9063b9734b4",
            "0x000000000000000000000000c77f7fed3b5cc8249adc428c5f44c9063b9734b4"
          ],
          "data": "0x000000000000000000000000000000000000000000000000000000000000005b",
          "blockHash": "0xc85bf208bec625d106ea95f37adda1e44f073214f044b0196dd986b6bb381cb7",
          "blockNumber": "0x7318d1",
          "transactionHash": "0xc985fc87d7f0e232bbc4e1b69a3fc70b10f71c0a014b4820d6eee0c9d20eaf61",
          "transactionIndex": "0xc1",
          "logIndex": "0xf4",
          "removed": false
        },
        {
          "address": "0x8aafd3ede9adb0ff97c7aebce82a919afb1c8764",
          "topics": [
            "0x4afcb4a87cdbd9974efdb92ee48bc8d7cd0ae4bf217004db3d080cbaee652ca7"
          ],
          "data": "0x000000000000000000000000000000000000000000000000000000006790269c00000000000000000000000000000000000000000000000000052f06a062f07a0000000000000000000000000000000000000000000000000000000000000010",
          "blockHash": "0xc85bf208bec625d106ea95f37adda1e44f073214f044b0196dd986b6bb381cb7",
          "blockNumber": "0x7318d1",
          "transactionHash": "0xc985fc87d7f0e232bbc4e1b69a3fc70b10f71c0a014b4820d6eee0c9d20eaf61",
          "transactionIndex": "0xc1",
          "logIndex": "0xf5",
          "removed": false
        }
      ],
      "logsBloom": "0x00000000000000000000000000000000000000000600000000000000000000000000000000000000000000000000000000000000000000004000000000000000000000000000004000000008000000000000000000000000000000000000000000000000020000000000000000000800020000000000000000000010000000000000000000000000000000000000000000000000000000000000010000000000000000000000000000000000000000004000000000000000000000000000000000000002000000800000000000000000000000000000080000000000000020000000000000000000000000000000000000000000000000000000000000000000",
      "type": "0x2",
      "transactionHash": "0xc985fc87d7f0e232bbc4e1b69a3fc70b10f71c0a014b4820d6eee0c9d20eaf61",
      "transactionIndex": "0xc1",
      "blockHash": "0xc85bf208bec625d106ea95f37adda1e44f073214f044b0196dd986b6bb381cb7",
      "blockNumber": "0x7318d1",
      "gasUsed": "0xf207",
      "effectiveGasPrice": "0x449098f4",
      "from": "0xc77f7fed3b5cc8249adc428c5f44c9063b9734b4",
      "to": "0x8aafd3ede9adb0ff97c7aebce82a919afb1c8764",
      "contractAddress": null
    }
  ],
  "libraries": [],
  "pending": [],
  "returns": {},
  "timestamp": 1737500317,
  "chain": 11155111,
  "commit": "1d2fb70"
}