{
  "transactions": [
    {
      "hash": "0x920c4278f948c554c056e7db47bb7f1891c1293e0d73babc0237ad0caa0e0622",
      "transactionType": "CALL",
      "contractName": null,
      "contractAddress": "0x8aafd3ede9adb0ff97c7aebce82a919afb1c8764",
      "function": "sell(uint256)",
      "arguments": [
        "60268699"
      ],
      "transaction": {
        "from": "0xc77f7fed3b5cc8249adc428c5f44c9063b9734b4",
        "to": "0x8aafd3ede9adb0ff97c7aebce82a919afb1c8764",
        "gas": "0x15d88",
        "value": "0x0",
        "input": "0xe4849b32000000000000000000000000000000000000000000000000000000000397a09b",
        "nonce": "0x1475",
        "chainId": "0xaa36a7"
      },
      "additionalContracts": [],
      "isFixedGasLimit": false
    }
  ],
  "receipts": [
    {
      "status": "0x1",
      "cumulativeGasUsed": "0x863e3f",
      "logs": [
        {
          "address": "0x8aafd3ede9adb0ff97c7aebce82a919afb1c8764",
          "topics": [
            "0xddf252ad1be2c89b69c2b068fc378daa952ba7f163c4a11628f55a4df523b3ef",
            "0x000000000000000000000000c77f7fed3b5cc8249adc428c5f44c9063b9734b4",
            "0x0000000000000000000000000000000000000000000000000000000000000000"
          ],
          "data": "0x0000000000000000000000000000000000000000000000000000000003904536",
          "blockHash": "0xa6b2f424bd30b84be91d7200d859bb90d78aefcb552bc1eae2d8063d48b543b8",
          "blockNumber": "0x731bc2",
          "transactionHash": "0x920c4278f948c554c056e7db47bb7f1891c1293e0d73babc0237ad0caa0e0622",
          "transactionIndex": "0x58",
          "logIndex": "0xa5",
          "removed": false
        },
        {
          "address": "0x8aafd3ede9adb0ff97c7aebce82a919afb1c8764",
          "topics": [
            "0xddf252ad1be2c89b69c2b068fc378daa952ba7f163c4a11628f55a4df523b3ef",
            "0x000000000000000000000000c77f7fed3b5cc8249adc428c5f44c9063b9734b4",
            "0x000000000000000000000000c77f7fed3b5cc8249adc428c5f44c9063b9734b4"
          ],
          "data": "0x0000000000000000000000000000000000000000000000000000000000075b65",
          "blockHash": "0xa6b2f424bd30b84be91d7200d859bb90d78aefcb552bc1eae2d8063d48b543b8",
          "blockNumber": "0x731bc2",
          "transactionHash": "0x920c4278f948c554c056e7db47bb7f1891c1293e0d73babc0237ad0caa0e0622",
          "transactionIndex": "0x58",
          "logIndex": "0xa6",
          "removed": false
        },
        {
          "address": "0x8aafd3ede9adb0ff97c7aebce82a919afb1c8764",
          "topics": [
            "0x4afcb4a87cdbd9974efdb92ee48bc8d7cd0ae4bf217004db3d080cbaee652ca7"
          ],
          "data": "0x00000000000000000000000000000000000000000000000000000000679049f4000000000000000000000000000000000000000000000000000f72a58209a0bd000000000000000000000000000000000000000000000000000000000003ffab",
          "blockHash": "0xa6b2f424bd30b84be91d7200d859bb90d78aefcb552bc1eae2d8063d48b543b8",
          "blockNumber": "0x731bc2",
          "transactionHash": "0x920c4278f948c554c056e7db47bb7f1891c1293e0d73babc0237ad0caa0e0622",
          "transactionIndex": "0x58",
          "logIndex": "0xa7",
          "removed": false
        }
      ],
      "logsBloom": "0x00000000000000000000000000000000000000000600000000000000000000000000000000000000000000000000000000000000000000004000000000000000000000000000004000000008000000000000000000000000000000000000000000000000020000000000000000000800020000000000000000000010000000000000000000000000000000000000000000000000000000000000010000000000000000000000000000000000000000004000000000000000000000000000000000000002000000800000000000000000000000000000080000000000000020000000000000000000000000000000000000000000000000000000000000000000",
      "type": "0x2",
      "transactionHash": "0x920c4278f948c554c056e7db47bb7f1891c1293e0d73babc0237ad0caa0e0622",
      "transactionIndex": "0x58",
      "blockHash": "0xa6b2f424bd30b84be91d7200d859bb90d78aefcb552bc1eae2d8063d48b543b8",
      "blockNumber": "0x731bc2",
      "gasUsed": "0xfd0f",
      "effectiveGasPrice": "0xfe0849de",
      "from": "0xc77f7fed3b5cc8249adc428c5f44c9063b9734b4",
      "to": "0x8aafd3ede9adb0ff97c7aebce82a919afb1c8764",
      "contractAddress": null
    }
  ],
  "libraries": [],
  "pending": [],
  "returns": {},
  "timestamp": 1737509365,
  "chain": 11155111,
  "commit": "1d2fb70"
}