{
  "transactions": [
    {
      "hash": "0x379b611a729947c69b25cc269a036fdeedcc37c3ce00f41f11fd3ef65d7bd9f6",
      "transactionType": "CALL",
      "contractName": null,
      "contractAddress": "0x5eb9cc76c3506942c1c0ead70e877dd5e4f00cb0",
      "function": "sell(uint256)",
      "arguments": [
        "989120396725866082686"
      ],
      "transaction": {
        "from": "0xc77f7fed3b5cc8249adc428c5f44c9063b9734b4",
        "to": "0x5eb9cc76c3506942c1c0ead70e877dd5e4f00cb0",
        "gas": "0x16fec",
        "value": "0x0",
        "input": "0xe4849b320000000000000000000000000000000000000000000000359ecd903cdab2317e",
        "nonce": "0x381",
        "chainId": "0xaa36a7"
      },
      "additionalContracts": [],
      "isFixedGasLimit": false
    }
  ],
  "receipts": [
    {
      "status": "0x1",
      "cumulativeGasUsed": "0xd0bcf1",
      "logs": [
        {
          "address": "0x5eb9cc76c3506942c1c0ead70e877dd5e4f00cb0",
          "topics": [
            "0xddf252ad1be2c89b69c2b068fc378daa952ba7f163c4a11628f55a4df523b3ef",
            "0x000000000000000000000000c77f7fed3b5cc8249adc428c5f44c9063b9734b4",
            "0x0000000000000000000000000000000000000000000000000000000000000000"
          ],
          "data": "0x0000000000000000000000000000000000000000000000359ecd903cdab2317e",
          "blockHash": "0x71bb4f0da68106b2d0df9e29efb144bde8aa02b319ac364d8afe8b51c3b09edf",
          "blockNumber": "0x724f7b",
          "transactionHash": "0x379b611a729947c69b25cc269a036fdeedcc37c3ce00f41f11fd3ef65d7bd9f6",
          "transactionIndex": "0x6d",
          "logIndex": "0xb4",
          "removed": false
        },
        {
          "address": "0x5eb9cc76c3506942c1c0ead70e877dd5e4f00cb0",
          "topics": [
            "0x4afcb4a87cdbd9974efdb92ee48bc8d7cd0ae4bf217004db3d080cbaee652ca7"
          ],
          "data": "0x000000000000000000000000000000000000000000000000000000006786ab7800000000000000000000000000000000000000000000000000039110a6e4260a0000000000000000000000000000000000000000000000000dc7db13320bbdda",
          "blockHash": "0x71bb4f0da68106b2d0df9e29efb144bde8aa02b319ac364d8afe8b51c3b09edf",
          "blockNumber": "0x724f7b",
          "transactionHash": "0x379b611a729947c69b25cc269a036fdeedcc37c3ce00f41f11fd3ef65d7bd9f6",
          "transactionIndex": "0x6d",
          "logIndex": "0xb5",
          "removed": false
        }
      ],
      "logsBloom": "0x00000000000000000000000000000000000000000000000000000000000000000000000000000000000000000000000000000000000000004000000000000000000000000000000000000008000000000000000000000000000000000000000000000000020000000000000004000800020000000000000000000010000000000000000000000000000000000000000000000000000000000000010000000000000000000000000000000000000000004000000000000000000000000000020000000002000000800000008000000000000000000000080000000000000020000000000000000000000000000000000000000000000000000000000000000000",
      "type": "0x2",
      "transactionHash": "0x379b611a729947c69b25cc269a036fdeedcc37c3ce00f41f11fd3ef65d7bd9f6",
      "transactionIndex": "0x6d",
      "blockHash": "0x71bb4f0da68106b2d0df9e29efb144bde8aa02b319ac364d8afe8b51c3b09edf",
      "blockNumber": "0x724f7b",
      "gasUsed": "0xfb93",
      "effectiveGasPrice": "0x5c018112d",
      "from": "0xc77f7fed3b5cc8249adc428c5f44c9063b9734b4",
      "to": "0x5eb9cc76c3506942c1c0ead70e877dd5e4f00cb0",
      "contractAddress": null
    }
  ],
  "libraries": [],
  "pending": [],
  "returns": {},
  "timestamp": 1736878969,
  "chain": 11155111,
  "commit": "51a374b"
}