{
  "transactions": [
    {
      "hash": "0x88c3642b320dfa0199fce4d0af52b3541adc0645bce4d3fbddfc248ebfc73522",
      "transactionType": "CALL",
      "contractName": null,
      "contractAddress": "0x8aafd3ede9adb0ff97c7aebce82a919afb1c8764",
      "function": "sell(uint256)",
      "arguments": [
        "47359312287666428"
      ],
      "transaction": {
        "from": "0xc77f7fed3b5cc8249adc428c5f44c9063b9734b4",
        "to": "0x8aafd3ede9adb0ff97c7aebce82a919afb1c8764",
        "gas": "0x1724d",
        "value": "0x0",
        "input": "0xe4849b3200000000000000000000000000000000000000000000000000a8410b29b690fc",
        "nonce": "0xfcd",
        "chainId": "0xaa36a7"
      },
      "additionalContracts": [],
      "isFixedGasLimit": false
    }
  ],
  "receipts": [
    {
      "status": "0x1",
      "cumulativeGasUsed": "0xc63f71",
      "logs": [
        {
          "address": "0x8aafd3ede9adb0ff97c7aebce82a919afb1c8764",
          "topics": [
            "0xddf252ad1be2c89b69c2b068fc378daa952ba7f163c4a11628f55a4df523b3ef",
            "0x000000000000000000000000c77f7fed3b5cc8249adc428c5f44c9063b9734b4",
            "0x0000000000000000000000000000000000000000000000000000000000000000"
          ],
          "data": "0x00000000000000000000000000000000000000000000000000a6e87591d3d369",
          "blockHash": "0x6c5a80dfd4ffcbbfb5ae426bc70ef47a309bd44bf29338820f526ee9bb6c6357",
          "blockNumber": "0x73163a",
          "transactionHash": "0x88c3642b320dfa0199fce4d0af52b3541adc0645bce4d3fbddfc248ebfc73522",
          "transactionIndex": "0x99",
          "logIndex": "0xbd",
          "removed": false
        },
        {
          "address": "0x8aafd3ede9adb0ff97c7aebce82a919afb1c8764",
          "topics": [
            "0xddf252ad1be2c89b69c2b068fc378daa952ba7f163c4a11628f55a4df523b3ef",
            "0x000000000000000000000000c77f7fed3b5cc8249adc428c5f44c9063b9734b4",
            "0x000000000000000000000000c77f7fed3b5cc8249adc428c5f44c9063b9734b4"
          ],
          "data": "0x0000000000000000000000000000000000000000000000000001589597e2bd93",
          "blockHash": "0x6c5a80dfd4ffcbbfb5ae426bc70ef47a309bd44bf29338820f526ee9bb6c6357",
          "blockNumber": "0x73163a",
          "transactionHash": "0x88c3642b320dfa0199fce4d0af52b3541adc0645bce4d3fbddfc248ebfc73522",
          "transactionIndex": "0x99",
          "logIndex": "0xbe",
          "removed": false
        },
        {
          "address": "0x8aafd3ede9adb0ff97c7aebce82a919afb1c8764",
          "topics": [
            "0x4afcb4a87cdbd9974efdb92ee48bc8d7cd0ae4bf217004db3d080cbaee652ca7"
          ],
          "data": "0x00000000000000000000000000000000000000000000000000000000679007640000000000000000000000000000000000000000000000000004c4cafb4e4b3b000000000000000000000000000000000000000000000000000039d0df90fe6f",
          "blockHash": "0x6c5a80dfd4ffcbbfb5ae426bc70ef47a309bd44bf29338820f526ee9bb6c6357",
          "blockNumber": "0x73163a",
          "transactionHash": "0x88c3642b320dfa0199fce4d0af52b3541adc0645bce4d3fbddfc248ebfc73522",
          "transactionIndex": "0x99",
          "logIndex": "0xbf",
          "removed": false
        }
      ],
      "logsBloom": "0x00000000000000000000000000000000000000000600000000000000000000000000000000000000000000000000000000000000000000004000000000000000000000000000004000000008000000000000000000000000000000000000000000000000020000000000000000000800020000000000000000000010000000000000000000000000000000000000000000000000000000000000010000000000000000000000000000000000000000004000000000000000000000000000000000000002000000800000000000000000000000000000080000000000000020000000000000000000000000000000000000000000000000000000000000000000",
      "type": "0x2",
      "transactionHash": "0x88c3642b320dfa0199fce4d0af52b3541adc0645bce4d3fbddfc248ebfc73522",
      "transactionIndex": "0x99",
      "blockHash": "0x6c5a80dfd4ffcbbfb5ae426bc70ef47a309bd44bf29338820f526ee9bb6c6357",
      "blockNumber": "0x73163a",
      "gasUsed": "0xfd33",
      "effectiveGasPrice": "0x53dc3e0c",
      "from": "0xc77f7fed3b5cc8249adc428c5f44c9063b9734b4",
      "to": "0x8aafd3ede9adb0ff97c7aebce82a919afb1c8764",
      "contractAddress": null
    }
  ],
  "libraries": [],
  "pending": [],
  "returns": {},
  "timestamp": 1737492326,
  "chain": 11155111,
  "commit": "1d2fb70"
}