{
  "transactions": [
    {
      "hash": "0xdf7e0e97b78bdd636ccd648cea5aacc6ad152fb183c88fd7fa8816605fb2a7b7",
      "transactionType": "CALL",
      "contractName": null,
      "contractAddress": "0xbf4a322f1496e5c3d34a9bcdb4c60567b38c7de2",
      "function": "buy(address)",
      "arguments": [
        "0xC77f7fed3b5Cc8249aDc428c5F44C9063B9734b4"
      ],
      "transaction": {
        "from": "0xc77f7fed3b5cc8249adc428c5f44c9063b9734b4",
        "to": "0xbf4a322f1496e5c3d34a9bcdb4c60567b38c7de2",
        "gas": "0x1b309",
        "value": "0xde0b6b3a7640000",
        "input": "0xf088d547000000000000000000000000c77f7fed3b5cc8249adc428c5f44c9063b9734b4",
        "nonce": "0xbb6",
        "chainId": "0xaa36a7"
      },
      "additionalContracts": [],
      "isFixedGasLimit": false
    }
  ],
  "receipts": [
    {
      "status": "0x1",
      "cumulativeGasUsed": "0xa1603a",
      "logs": [
        {
          "address": "0xbf4a322f1496e5c3d34a9bcdb4c60567b38c7de2",
          "topics": [
            "0xddf252ad1be2c89b69c2b068fc378daa952ba7f163c4a11628f55a4df523b3ef",
            "0x0000000000000000000000000000000000000000000000000000000000000000",
            "0x000000000000000000000000c77f7fed3b5cc8249adc428c5f44c9063b9734b4"
          ],
          "data": "0x0000000000000000000000000000000000000000000000350922dba076a2c9af",
          "blockHash": "0x33eda7694eed7dee30c7bd4d17c4d6b4de3689e58e1d454fa7ff8de7254874e6",
          "blockNumber": "0x725bd0",
          "transactionHash": "0xdf7e0e97b78bdd636ccd648cea5aacc6ad152fb183c88fd7fa8816605fb2a7b7",
          "transactionIndex": "0x36",
          "logIndex": "0x59",
          "removed": false
        },
        {
          "address": "0xbf4a322f1496e5c3d34a9bcdb4c60567b38c7de2",
          "topics": [
            "0xddf252ad1be2c89b69c2b068fc378daa952ba7f163c4a11628f55a4df523b3ef",
            "0x0000000000000000000000000000000000000000000000000000000000000000",
            "0x000000000000000000000000c77f7fed3b5cc8249adc428c5f44c9063b9734b4"
          ],
          "data": "0x000000000000000000000000000000000000000000000000292f1bfe105f3b1f",
          "blockHash": "0x33eda7694eed7dee30c7bd4d17c4d6b4de3689e58e1d454fa7ff8de7254874e6",
          "blockNumber": "0x725bd0",
          "transactionHash": "0xdf7e0e97b78bdd636ccd648cea5aacc6ad152fb183c88fd7fa8816605fb2a7b7",
          "transactionIndex": "0x36",
          "logIndex": "0x5a",
          "removed": false
        },
        {
          "address": "0xbf4a322f1496e5c3d34a9bcdb4c60567b38c7de2",
          "topics": [
            "0x4afcb4a87cdbd9974efdb92ee48bc8d7cd0ae4bf217004db3d080cbaee652ca7"
          ],
          "data": "0x000000000000000000000000000000000000000000000000000000006787401c00000000000000000000000000000000000000000000000000039858e6c67e180000000000000000000000000000000000000000000000000de0b6b3a7640000",
          "blockHash": "0x33eda7694eed7dee30c7bd4d17c4d6b4de3689e58e1d454fa7ff8de7254874e6",
          "blockNumber": "0x725bd0",
          "transactionHash": "0xdf7e0e97b78bdd636ccd648cea5aacc6ad152fb183c88fd7fa8816605fb2a7b7",
          "transactionIndex": "0x36",
          "logIndex": "0x5b",
          "removed": false
        }
      ],
      "logsBloom": "0x00000000000000000000000000000000000000000000000000000000000000000000000000000000000000000000000000000000000000004000000000000000000000000000000000000008000000000000001000000000000000000000000000000000020000000000000000000800020000000000000000000010000000000000000000000000000000000000000000000000000008000000010000000000000000000000000000000000000000004000000000000000000000000000000000000002000000800000000000001000000000000000080000000000000020000000000000000000000000000000000000000000000000000000000000000000",
      "type": "0x2",
      "transactionHash": "0xdf7e0e97b78bdd636ccd648cea5aacc6ad152fb183c88fd7fa8816605fb2a7b7",
      "transactionIndex": "0x36",
      "blockHash": "0x33eda7694eed7dee30c7bd4d17c4d6b4de3689e58e1d454fa7ff8de7254874e6",
      "blockNumber": "0x725bd0",
      "gasUsed": "0x13af6",
      "effectiveGasPrice": "0x5dcf6f54",
      "from": "0xc77f7fed3b5cc8249adc428c5f44c9063b9734b4",
      "to": "0xbf4a322f1496e5c3d34a9bcdb4c60567b38c7de2",
      "contractAddress": null
    }
  ],
  "libraries": [],
  "pending": [],
  "returns": {},
  "timestamp": 1736917022,
  "chain": 11155111,
  "commit": "51a374b"
}