{
  "transactions": [
    {
      "hash": "0xe23590221899ccf3a3f96a1d11a93f405610d143ec4a0b7c26e9962f2ef58baa",
      "transactionType": "CALL",
      "contractName": null,
      "contractAddress": "0x5eb9cc76c3506942c1c0ead70e877dd5e4f00cb0",
      "function": "sell(uint256)",
      "arguments": [
        "989141751414997920127"
      ],
      "transaction": {
        "from": "0xc77f7fed3b5cc8249adc428c5f44c9063b9734b4",
        "to": "0x5eb9cc76c3506942c1c0ead70e877dd5e4f00cb0",
        "gas": "0x16fec",
        "value": "0x0",
        "input": "0xe4849b320000000000000000000000000000000000000000000000359f196e36deb0297f",
        "nonce": "0x2fb",
        "chainId": "0xaa36a7"
      },
      "additionalContracts": [],
      "isFixedGasLimit": false
    }
  ],
  "receipts": [
    {
      "status": "0x1",
      "cumulativeGasUsed": "0xb498cf",
      "logs": [
        {
          "address": "0x5eb9cc76c3506942c1c0ead70e877dd5e4f00cb0",
          "topics": [
            "0xddf252ad1be2c89b69c2b068fc378daa952ba7f163c4a11628f55a4df523b3ef",
            "0x000000000000000000000000c77f7fed3b5cc8249adc428c5f44c9063b9734b4",
            "0x0000000000000000000000000000000000000000000000000000000000000000"
          ],
          "data": "0x0000000000000000000000000000000000000000000000359f196e36deb0297f",
          "blockHash": "0xa591c6fe7e8e9fd7da6afd005e7c6e1084d4692d5c965cb5941402ab7eea1fb8",
          "blockNumber": "0x724edc",
          "transactionHash": "0xe23590221899ccf3a3f96a1d11a93f405610d143ec4a0b7c26e9962f2ef58baa",
          "transactionIndex": "0x60",
          "logIndex": "0x7c",
          "removed": false
        },
        {
          "address": "0x5eb9cc76c3506942c1c0ead70e877dd5e4f00cb0",
          "topics": [
            "0x4afcb4a87cdbd9974efdb92ee48bc8d7cd0ae4bf217004db3d080cbaee652ca7"
          ],
          "data": "0x000000000000000000000000000000000000000000000000000000006786a4040000000000000000000000000000000000000000000000000003910b9b07659e0000000000000000000000000000000000000000000000000dc7db133231bd4f",
          "blockHash": "0xa591c6fe7e8e9fd7da6afd005e7c6e1084d4692d5c965cb5941402ab7eea1fb8",
          "blockNumber": "0x724edc",
          "transactionHash": "0xe23590221899ccf3a3f96a1d11a93f405610d143ec4a0b7c26e9962f2ef58baa",
          "transactionIndex": "0x60",
          "logIndex": "0x7d",
          "removed": false
        }
      ],
      "logsBloom": "0x00000000000000000000000000000000000000000000000000000000000000000000000000000000000000000000000000000000000000004000000000000000000000000000000000000008000000000000000000000000000000000000000000000000020000000000000004000800020000000000000000000010000000000000000000000000000000000000000000000000000000000000010000000000000000000000000000000000000000004000000000000000000000000000020000000002000000800000008000000000000000000000080000000000000020000000000000000000000000000000000000000000000000000000000000000000",
      "type": "0x2",
      "transactionHash": "0xe23590221899ccf3a3f96a1d11a93f405610d143ec4a0b7c26e9962f2ef58baa",
      "transactionIndex": "0x60",
      "blockHash": "0xa591c6fe7e8e9fd7da6afd005e7c6e1084d4692d5c965cb5941402ab7eea1fb8",
      "blockNumber": "0x724edc",
      "gasUsed": "0xfb93",
      "effectiveGasPrice": "0x6d9d1f26c",
      "from": "0xc77f7fed3b5cc8249adc428c5f44c9063b9734b4",
      "to": "0x5eb9cc76c3506942c1c0ead70e877dd5e4f00cb0",
      "contractAddress": null
    }
  ],
  "libraries": [],
  "pending": [],
  "returns": {},
  "timestamp": 1736877061,
  "chain": 11155111,
  "commit": "51a374b"
}