{
  "transactions": [
    {
      "hash": "0xae3b2c90cae0303e7129376169b01082f8d193590feb6b7f1a383870adc817d0",
      "transactionType": "CALL",
      "contractName": null,
      "contractAddress": "0x8aafd3ede9adb0ff97c7aebce82a919afb1c8764",
      "function": "sell(uint256)",
      "arguments": [
        "565341"
      ],
      "transaction": {
        "from": "0xc77f7fed3b5cc8249adc428c5f44c9063b9734b4",
        "to": "0x8aafd3ede9adb0ff97c7aebce82a919afb1c8764",
        "gas": "0x16208",
        "value": "0x0",
        "input": "0xe4849b32000000000000000000000000000000000000000000000000000000000008a05d",
        "nonce": "0x13b0",
        "chainId": "0xaa36a7"
      },
      "additionalContracts": [],
      "isFixedGasLimit": false
    }
  ],
  "receipts": [
    {
      "status": "0x1",
      "cumulativeGasUsed": "0xae476a",
      "logs": [
        {
          "address": "0x8aafd3ede9adb0ff97c7aebce82a919afb1c8764",
          "topics": [
            "0xddf252ad1be2c89b69c2b068fc378daa952ba7f163c4a11628f55a4df523b3ef",
            "0x000000000000000000000000c77f7fed3b5cc8249adc428c5f44c9063b9734b4",
            "0x0000000000000000000000000000000000000000000000000000000000000000"
          ],
          "data": "0x0000000000000000000000000000000000000000000000000000000000088eb3",
          "blockHash": "0x1e6b4cd21ab773eb9c19f59d12d94c9f957272b9e90537fbb72cb8a62a1428ba",
          "blockNumber": "0x731ad8",
          "transactionHash": "0xae3b2c90cae0303e7129376169b01082f8d193590feb6b7f1a383870adc817d0",
          "transactionIndex": "0x79",
          "logIndex": "0xac",
          "removed": false
        },
        {
          "address": "0x8aafd3ede9adb0ff97c7aebce82a919afb1c8764",
          "topics": [
            "0xddf252ad1be2c89b69c2b068fc378daa952ba7f163c4a11628f55a4df523b3ef",
            "0x000000000000000000000000c77f7fed3b5cc8249adc428c5f44c9063b9734b4",
            "0x000000000000000000000000c77f7fed3b5cc8249adc428c5f44c9063b9734b4"
          ],
          "data": "0x00000000000000000000000000000000000000000000000000000000000011aa",
          "blockHash": "0x1e6b4cd21ab773eb9c19f59d12d94c9f957272b9e90537fbb72cb8a62a1428ba",
          "blockNumber": "0x731ad8",
          "transactionHash": "0xae3b2c90cae0303e7129376169b01082f8d193590feb6b7f1a383870adc817d0",
          "transactionIndex": "0x79",
          "logIndex": "0xad",
          "removed": false
        },
        {
          "address": "0x8aafd3ede9adb0ff97c7aebce82a919afb1c8764",
          "topics": [
            "0x4afcb4a87cdbd9974efdb92ee48bc8d7cd0ae4bf217004db3d080cbaee652ca7"
          ],
          "data": "0x0000000000000000000000000000000000000000000000000000000067903ef0000000000000000000000000000000000000000000000000000d3058333ccb340000000000000000000000000000000000000000000000000000000000000832",
          "blockHash": "0x1e6b4cd21ab773eb9c19f59d12d94c9f957272b9e90537fbb72cb8a62a1428ba",
          "blockNumber": "0x731ad8",
          "transactionHash": "0xae3b2c90cae0303e7129376169b01082f8d193590feb6b7f1a383870adc817d0",
          "transactionIndex": "0x79",
          "logIndex": "0xae",
          "removed": false
        }
      ],
      "logsBloom": "0x00000000000000000000000000000000000000000600000000000000000000000000000000000000000000000000000000000000000000004000000000000000000000000000004000000008000000000000000000000000000000000000000000000000020000000000000000000800020000000000000000000010000000000000000000000000000000000000000000000000000000000000010000000000000000000000000000000000000000004000000000000000000000000000000000000002000000800000000000000000000000000000080000000000000020000000000000000000000000000000000000000000000000000000000000000000",
      "type": "0x2",
      "transactionHash": "0xae3b2c90cae0303e7129376169b01082f8d193590feb6b7f1a383870adc817d0",
      "transactionIndex": "0x79",
      "blockHash": "0x1e6b4cd21ab773eb9c19f59d12d94c9f957272b9e90537fbb72cb8a62a1428ba",
      "blockNumber": "0x731ad8",
      "gasUsed": "0xf213",
      "effectiveGasPrice": "0x89e30021",
      "from": "0xc77f7fed3b5cc8249adc428c5f44c9063b9734b4",
      "to": "0x8aafd3ede9adb0ff97c7aebce82a919afb1c8764",
      "contractAddress": null
    }
  ],
  "libraries": [],
  "pending": [],
  "returns": {},
  "timestamp": 1737506545,
  "chain": 11155111,
  "commit": "1d2fb70"
}