{
  "transactions": [
    {
      "hash": "0x2343b5c98a0c70d219430a85f4c31aac0f64a687543d46976f3a18bd5abca98d",
      "transactionType": "CALL",
      "contractName": null,
      "contractAddress": "0x8aafd3ede9adb0ff97c7aebce82a919afb1c8764",
      "function": "sell(uint256)",
      "arguments": [
        "11343"
      ],
      "transaction": {
        "from": "0xc77f7fed3b5cc8249adc428c5f44c9063b9734b4",
        "to": "0x8aafd3ede9adb0ff97c7aebce82a919afb1c8764",
        "gas": "0x14e4c",
        "value": "0x0",
        "input": "0xe4849b320000000000000000000000000000000000000000000000000000000000002c4f",
        "nonce": "0x123d",
        "chainId": "0xaa36a7"
      },
      "additionalContracts": [],
      "isFixedGasLimit": false
    }
  ],
  "receipts": [
    {
      "status": "0x1",
      "cumulativeGasUsed": "0x81bfdd",
      "logs": [
        {
          "address": "0x8aafd3ede9adb0ff97c7aebce82a919afb1c8764",
          "topics": [
            "0xddf252ad1be2c89b69c2b068fc378daa952ba7f163c4a11628f55a4df523b3ef",
            "0x000000000000000000000000c77f7fed3b5cc8249adc428c5f44c9063b9734b4",
            "0x0000000000000000000000000000000000000000000000000000000000000000"
          ],
          "data": "0x0000000000000000000000000000000000000000000000000000000000002bf5",
          "blockHash": "0xb67cbc8dd58553e8ac8800664d5de1c12adc1384d2567cce30a204ae2b9e9480",
          "blockNumber": "0x73191d",
          "transactionHash": "0x2343b5c98a0c70d219430a85f4c31aac0f64a687543d46976f3a18bd5abca98d",
          "transactionIndex": "0x64",
          "logIndex": "0x70",
          "removed": false
        },
        {
          "address": "0x8aafd3ede9adb0ff97c7aebce82a919afb1c8764",
          "topics": [
            "0xddf252ad1be2c89b69c2b068fc378daa952ba7f163c4a11628f55a4df523b3ef",
            "0x000000000000000000000000c77f7fed3b5cc8249adc428c5f44c9063b9734b4",
            "0x000000000000000000000000c77f7fed3b5cc8249adc428c5f44c9063b9734b4"
          ],
          "data": "0x000000000000000000000000000000000000000000000000000000000000005a",
          "blockHash": "0xb67cbc8dd58553e8ac8800664d5de1c12adc1384d2567cce30a204ae2b9e9480",
          "blockNumber": "0x73191d",
          "transactionHash": "0x2343b5c98a0c70d219430a85f4c31aac0f64a687543d46976f3a18bd5abca98d",
          "transactionIndex": "0x64",
          "logIndex": "0x71",
          "removed": false
        },
        {
          "address": "0x8aafd3ede9adb0ff97c7aebce82a919afb1c8764",
          "topics": [
            "0x4afcb4a87cdbd9974efdb92ee48bc8d7cd0ae4bf217004db3d080cbaee652ca7"
          ],
          "data": "0x0000000000000000000000000000000000000000000000000000000067902a2c00000000000000000000000000000000000000000000000000053932931801b30000000000000000000000000000000000000000000000000000000000000010",
          "blockHash": "0xb67cbc8dd58553e8ac8800664d5de1c12adc1384d2567cce30a204ae2b9e9480",
          "blockNumber": "0x73191d",
          "transactionHash": "0x2343b5c98a0c70d219430a85f4c31aac0f64a687543d46976f3a18bd5abca98d",
          "transactionIndex": "0x64",
          "logIndex": "0x72",
          "removed": false
        }
      ],
      "logsBloom": "0x00000000000000000000000000000000000000000600000000000000000000000000000000000000000000000000000000000000000000004000000000000000000000000000004000000008000000000000000000000000000000000000000000000000020000000000000000000800020000000000000000000010000000000000000000000000000000000000000000000000000000000000010000000000000000000000000000000000000000004000000000000000000000000000000000000002000000800000000000000000000000000000080000000000000020000000000000000000000000000000000000000000000000000000000000000000",
      "type": "0x2",
      "transactionHash": "0x2343b5c98a0c70d219430a85f4c31aac0f64a687543d46976f3a18bd5abca98d",
      "transactionIndex": "0x64",
      "blockHash": "0xb67cbc8dd58553e8ac8800664d5de1c12adc1384d2567cce30a204ae2b9e9480",
      "blockNumber": "0x73191d",
      "gasUsed": "0xf207",
      "effectiveGasPrice": "0x43978276",
      "from": "0xc77f7fed3b5cc8249adc428c5f44c9063b9734b4",
      "to": "0x8aafd3ede9adb0ff97c7aebce82a919afb1c8764",
      "contractAddress": null
    }
  ],
  "libraries": [],
  "pending": [],
  "returns": {},
  "timestamp": 1737501229,
  "chain": 11155111,
  "commit": "1d2fb70"
}