{
  "transactions": [
    {
      "hash": "0xe7f88b3c88331071cd66c3d12cb42c596fb11d1e4c123bdb88dd25b03c9d76f9",
      "transactionType": "CALL",
      "contractName": null,
      "contractAddress": "0x270e88f8683660553e8ba4eb2ad7c91a1710d769",
      "function": "sell(uint256)",
      "arguments": [
        "942954100864228030408"
      ],
      "transaction": {
        "from": "0xc77f7fed3b5cc8249adc428c5f44c9063b9734b4",
        "to": "0x270e88f8683660553e8ba4eb2ad7c91a1710d769",
        "gas": "0x16fec",
        "value": "0x0",
        "input": "0xe4849b320000000000000000000000000000000000000000000000331e1deec0462c77c8",
        "nonce": "0x61f",
        "chainId": "0xaa36a7"
      },
      "additionalContracts": [],
      "isFixedGasLimit": false
    }
  ],
  "receipts": [
    {
      "status": "0x1",
      "cumulativeGasUsed": "0xe7084b",
      "logs": [
        {
          "address": "0x270e88f8683660553e8ba4eb2ad7c91a1710d769",
          "topics": [
            "0xddf252ad1be2c89b69c2b068fc378daa952ba7f163c4a11628f55a4df523b3ef",
            "0x000000000000000000000000c77f7fed3b5cc8249adc428c5f44c9063b9734b4",
            "0x0000000000000000000000000000000000000000000000000000000000000000"
          ],
          "data": "0x0000000000000000000000000000000000000000000000331e1deec0462c77c8",
          "blockHash": "0x2b75f2ffe01b7caeb0bf02e8938f7122c576d791c3e994c971bed7b14277adf3",
          "blockNumber": "0x7252ee",
          "transactionHash": "0xe7f88b3c88331071cd66c3d12cb42c596fb11d1e4c123bdb88dd25b03c9d76f9",
          "transactionIndex": "0x59",
          "logIndex": "0x86",
          "removed": false
        },
        {
          "address": "0x270e88f8683660553e8ba4eb2ad7c91a1710d769",
          "topics": [
            "0x4afcb4a87cdbd9974efdb92ee48bc8d7cd0ae4bf217004db3d080cbaee652ca7"
          ],
          "data": "0x000000000000000000000000000000000000000000000000000000006786d5300000000000000000000000000000000000000000000000000003be0f6eb4a17a0000000000000000000000000000000000000000000000000dc83d6f34f5a20a",
          "blockHash": "0x2b75f2ffe01b7caeb0bf02e8938f7122c576d791c3e994c971bed7b14277adf3",
          "blockNumber": "0x7252ee",
          "transactionHash": "0xe7f88b3c88331071cd66c3d12cb42c596fb11d1e4c123bdb88dd25b03c9d76f9",
          "transactionIndex": "0x59",
          "logIndex": "0x87",
          "removed": false
        }
      ],
      "logsBloom": "0x00000000000000000000000000000000000000000000000000000000000000000000000000000000000000000000000020000000000000004000000000000000000000000000000000000008000000000000000000000000000000000000000000000000020000000000000000000800020000000000000000000010000000000000000000010000000000000000000000000000000000000000010000000000000000000000000000000000000000004000000000000000000000000000000000000002000000800000000000000000000000000000080000008000000020000000000000000000000000000000000000000000000000000000000000000000",
      "type": "0x2",
      "transactionHash": "0xe7f88b3c88331071cd66c3d12cb42c596fb11d1e4c123bdb88dd25b03c9d76f9",
      "transactionIndex": "0x59",
      "blockHash": "0x2b75f2ffe01b7caeb0bf02e8938f7122c576d791c3e994c971bed7b14277adf3",
      "blockNumber": "0x7252ee",
      "gasUsed": "0xfb93",
      "effectiveGasPrice": "0x27876d79f",
      "from": "0xc77f7fed3b5cc8249adc428c5f44c9063b9734b4",
      "to": "0x270e88f8683660553e8ba4eb2ad7c91a1710d769",
      "contractAddress": null
    }
  ],
  "libraries": [],
  "pending": [],
  "returns": {},
  "timestamp": 1736889649,
  "chain": 11155111,
  "commit": "51a374b"
}