{
  "transactions": [
    {
      "hash": "0x303494e87d51b437c2f3a8745d8bf1bb97aa65b6f2e842482925e52979b060b9",
      "transactionType": "CALL",
      "contractName": null,
      "contractAddress": "0x270e88f8683660553e8ba4eb2ad7c91a1710d769",
      "function": "sell(uint256)",
      "arguments": [
        "723265771580676606392"
      ],
      "transaction": {
        "from": "0xc77f7fed3b5cc8249adc428c5f44c9063b9734b4",
        "to": "0x270e88f8683660553e8ba4eb2ad7c91a1710d769",
        "gas": "0x16fec",
        "value": "0x0",
        "input": "0xe4849b3200000000000000000000000000000000000000000000002735543339f10b89b8",
        "nonce": "0x7fc",
        "chainId": "0xaa36a7"
      },
      "additionalContracts": [],
      "isFixedGasLimit": false
    }
  ],
  "receipts": [
    {
      "status": "0x1",
      "cumulativeGasUsed": "0x692b9a",
      "logs": [
        {
          "address": "0x270e88f8683660553e8ba4eb2ad7c91a1710d769",
          "topics": [
            "0xddf252ad1be2c89b69c2b068fc378daa952ba7f163c4a11628f55a4df523b3ef",
            "0x000000000000000000000000c77f7fed3b5cc8249adc428c5f44c9063b9734b4",
            "0x0000000000000000000000000000000000000000000000000000000000000000"
          ],
          "data": "0x00000000000000000000000000000000000000000000002735543339f10b89b8",
          "blockHash": "0x84f59164eb8aa408f985b6e6ff07371f82f0c969bff4bbaf08149beb810f6fa1",
          "blockNumber": "0x725539",
          "transactionHash": "0x303494e87d51b437c2f3a8745d8bf1bb97aa65b6f2e842482925e52979b060b9",
          "transactionIndex": "0x3c",
          "logIndex": "0x5a",
          "removed": false
        },
        {
          "address": "0x270e88f8683660553e8ba4eb2ad7c91a1710d769",
          "topics": [
            "0x4afcb4a87cdbd9974efdb92ee48bc8d7cd0ae4bf217004db3d080cbaee652ca7"
          ],
          "data": "0x000000000000000000000000000000000000000000000000000000006786f0b40000000000000000000000000000000000000000000000000004e0fa4e75e17a0000000000000000000000000000000000000000000000000dc826c47d3ca88a",
          "blockHash": "0x84f59164eb8aa408f985b6e6ff07371f82f0c969bff4bbaf08149beb810f6fa1",
          "blockNumber": "0x725539",
          "transactionHash": "0x303494e87d51b437c2f3a8745d8bf1bb97aa65b6f2e842482925e52979b060b9",
          "transactionIndex": "0x3c",
          "logIndex": "0x5b",
          "removed": false
        }
      ],
      "logsBloom": "0x00000000000000000000000000000000000000000000000000000000000000000000000000000000000000000000000020000000000000004000000000000000000000000000000000000008000000000000000000000000000000000000000000000000020000000000000000000800020000000000000000000010000000000000000000010000000000000000000000000000000000000000010000000000000000000000000000000000000000004000000000000000000000000000000000000002000000800000000000000000000000000000080000008000000020000000000000000000000000000000000000000000000000000000000000000000",
      "type": "0x2",
      "transactionHash": "0x303494e87d51b437c2f3a8745d8bf1bb97aa65b6f2e842482925e52979b060b9",
      "transactionIndex": "0x3c",
      "blockHash": "0x84f59164eb8aa408f985b6e6ff07371f82f0c969bff4bbaf08149beb810f6fa1",
      "blockNumber": "0x725539",
      "gasUsed": "0xfb93",
      "effectiveGasPrice": "0x9d9a21c5",
      "from": "0xc77f7fed3b5cc8249adc428c5f44c9063b9734b4",
      "to": "0x270e88f8683660553e8ba4eb2ad7c91a1710d769",
      "contractAddress": null
    }
  ],
  "libraries": [],
  "pending": [],
  "returns": {},
  "timestamp": 1736896693,
  "chain": 11155111,
  "commit": "51a374b"
}