{
  "transactions": [
    {
      "hash": "0x49b3a286281b72333867c31463d147701fc8fefe36321c778cd87ac14f0609d9",
      "transactionType": "CALL",
      "contractName": null,
      "contractAddress": "0x270e88f8683660553e8ba4eb2ad7c91a1710d769",
      "function": "sell(uint256)",
      "arguments": [
        "986654332914620714463"
      ],
      "transaction": {
        "from": "0xc77f7fed3b5cc8249adc428c5f44c9063b9734b4",
        "to": "0x270e88f8683660553e8ba4eb2ad7c91a1710d769",
        "gas": "0x16fec",
        "value": "0x0",
        "input": "0xe4849b320000000000000000000000000000000000000000000000357c94584463f84ddf",
        "nonce": "0x4fd",
        "chainId": "0xaa36a7"
      },
      "additionalContracts": [],
      "isFixedGasLimit": false
    }
  ],
  "receipts": [
    {
      "status": "0x1",
      "cumulativeGasUsed": "0xff050c",
      "logs": [
        {
          "address": "0x270e88f8683660553e8ba4eb2ad7c91a1710d769",
          "topics": [
            "0xddf252ad1be2c89b69c2b068fc378daa952ba7f163c4a11628f55a4df523b3ef",
            "0x000000000000000000000000c77f7fed3b5cc8249adc428c5f44c9063b9734b4",
            "0x0000000000000000000000000000000000000000000000000000000000000000"
          ],
          "data": "0x0000000000000000000000000000000000000000000000357c94584463f84ddf",
          "blockHash": "0xc5e0f9e005361454eb039af96e69bbdc8f29abff3c545defbc33c34cdb7530fe",
          "blockNumber": "0x72518f",
          "transactionHash": "0x49b3a286281b72333867c31463d147701fc8fefe36321c778cd87ac14f0609d9",
          "transactionIndex": "0x3b",
          "logIndex": "0x5a",
          "removed": false
        },
        {
          "address": "0x270e88f8683660553e8ba4eb2ad7c91a1710d769",
          "topics": [
            "0x4afcb4a87cdbd9974efdb92ee48bc8d7cd0ae4bf217004db3d080cbaee652ca7"
          ],
          "data": "0x000000000000000000000000000000000000000000000000000000006786c498000000000000000000000000000000000000000000000000000393a3b00a29500000000000000000000000000000000000000000000000000dc841ec7e70f616",
          "blockHash": "0xc5e0f9e005361454eb039af96e69bbdc8f29abff3c545defbc33c34cdb7530fe",
          "blockNumber": "0x72518f",
          "transactionHash": "0x49b3a286281b72333867c31463d147701fc8fefe36321c778cd87ac14f0609d9",
          "transactionIndex": "0x3b",
          "logIndex": "0x5b",
          "removed": false
        }
      ],
      "logsBloom": "0x00000000000000000000000000000000000000000000000000000000000000000000000000000000000000000000000020000000000000004000000000000000000000000000000000000008000000000000000000000000000000000000000000000000020000000000000000000800020000000000000000000010000000000000000000010000000000000000000000000000000000000000010000000000000000000000000000000000000000004000000000000000000000000000000000000002000000800000000000000000000000000000080000008000000020000000000000000000000000000000000000000000000000000000000000000000",
      "type": "0x2",
      "transactionHash": "0x49b3a286281b72333867c31463d147701fc8fefe36321c778cd87ac14f0609d9",
      "transactionIndex": "0x3b",
      "blockHash": "0xc5e0f9e005361454eb039af96e69bbdc8f29abff3c545defbc33c34cdb7530fe",
      "blockNumber": "0x72518f",
      "gasUsed": "0xfb93",
      "effectiveGasPrice": "0x4abfa0508",
      "from": "0xc77f7fed3b5cc8249adc428c5f44c9063b9734b4",
      "to": "0x270e88f8683660553e8ba4eb2ad7c91a1710d769",
      "contractAddress": null
    }
  ],
  "libraries": [],
  "pending": [],
  "returns": {},
  "timestamp": 1736885401,
  "chain": 11155111,
  "commit": "51a374b"
}