{
  "transactions": [
    {
      "hash": "0x096450aa4cc9e19e9470f47b99a45d4008ef3f4bdf992873b6ef836733369c73",
      "transactionType": "CALL",
      "contractName": null,
      "contractAddress": "0x8aafd3ede9adb0ff97c7aebce82a919afb1c8764",
      "function": "sell(uint256)",
      "arguments": [
        "244676799779542813255"
      ],
      "transaction": {
        "from": "0xc77f7fed3b5cc8249adc428c5f44c9063b9734b4",
        "to": "0x8aafd3ede9adb0ff97c7aebce82a919afb1c8764",
        "gas": "0x17270",
        "value": "0x0",
        "input": "0xe4849b3200000000000000000000000000000000000000000000000d43929d0bd7064a47",
        "nonce": "0x141e",
        "chainId": "0xaa36a7"
      },
      "additionalContracts": [],
      "isFixedGasLimit": false
    }
  ],
  "receipts": [
    {
      "status": "0x1",
      "cumulativeGasUsed": "0x17dc454",
      "logs": [
        {
          "address": "0x8aafd3ede9adb0ff97c7aebce82a919afb1c8764",
          "topics": [
            "0xddf252ad1be2c89b69c2b068fc378daa952ba7f163c4a11628f55a4df523b3ef",
            "0x000000000000000000000000c77f7fed3b5cc8249adc428c5f44c9063b9734b4",
            "0x0000000000000000000000000000000000000000000000000000000000000000"
          ],
          "data": "0x00000000000000000000000000000000000000000000000d28687b0599e9915d",
          "blockHash": "0x3548fcb232105b7b5b7afa7525a57facde23f21055ad7420d8541e274cc1af29",
          "blockNumber": "0x731b5a",
          "transactionHash": "0x096450aa4cc9e19e9470f47b99a45d4008ef3f4bdf992873b6ef836733369c73",
          "transactionIndex": "0xc2",
          "logIndex": "0x101",
          "removed": false
        },
        {
          "address": "0x8aafd3ede9adb0ff97c7aebce82a919afb1c8764",
          "topics": [
            "0xddf252ad1be2c89b69c2b068fc378daa952ba7f163c4a11628f55a4df523b3ef",
            "0x000000000000000000000000c77f7fed3b5cc8249adc428c5f44c9063b9734b4",
            "0x000000000000000000000000c77f7fed3b5cc8249adc428c5f44c9063b9734b4"
          ],
          "data": "0x0000000000000000000000000000000000000000000000001b2a22063d1cb8ea",
          "blockHash": "0x3548fcb232105b7b5b7afa7525a57facde23f21055ad7420d8541e274cc1af29",
          "blockNumber": "0x731b5a",
          "transactionHash": "0x096450aa4cc9e19e9470f47b99a45d4008ef3f4bdf992873b6ef836733369c73",
          "transactionIndex": "0xc2",
          "logIndex": "0x102",
          "removed": false
        },
        {
          "address": "0x8aafd3ede9adb0ff97c7aebce82a919afb1c8764",
          "topics": [
            "0x4afcb4a87cdbd9974efdb92ee48bc8d7cd0ae4bf217004db3d080cbaee652ca7"
          ],
          "data": "0x0000000000000000000000000000000000000000000000000000000067904508000000000000000000000000000000000000000000000000000e854307ad42850000000000000000000000000000000000000000000000000dcdd71f1464e784",
          "blockHash": "0x3548fcb232105b7b5b7afa7525a57facde23f21055ad7420d8541e274cc1af29",
          "blockNumber": "0x731b5a",
          "transactionHash": "0x096450aa4cc9e19e9470f47b99a45d4008ef3f4bdf992873b6ef836733369c73",
          "transactionIndex": "0xc2",
          "logIndex": "0x103",
          "removed": false
        }
      ],
      "logsBloom": "0x00000000000000000000000000000000000000000600000000000000000000000000000000000000000000000000000000000000000000004000000000000000000000000000004000000008000000000000000000000000000000000000000000000000020000000000000000000800020000000000000000000010000000000000000000000000000000000000000000000000000000000000010000000000000000000000000000000000000000004000000000000000000000000000000000000002000000800000000000000000000000000000080000000000000020000000000000000000000000000000000000000000000000000000000000000000",
      "type": "0x2",
      "transactionHash": "0x096450aa4cc9e19e9470f47b99a45d4008ef3f4bdf992873b6ef836733369c73",
      "transactionIndex": "0xc2",
      "blockHash": "0x3548fcb232105b7b5b7afa7525a57facde23f21055ad7420d8541e274cc1af29",
      "blockNumber": "0x731b5a",
      "gasUsed": "0xfd4b",
      "effectiveGasPrice": "0xeda57974",
      "from": "0xc77f7fed3b5cc8249adc428c5f44c9063b9734b4",
      "to": "0x8aafd3ede9adb0ff97c7aebce82a919afb1c8764",
      "contractAddress": null
    }
  ],
  "libraries": [],
  "pending": [],
  "returns": {},
  "timestamp": 1737508105,
  "chain": 11155111,
  "commit": "1d2fb70"
}