{
  "transactions": [
    {
      "hash": "0xdf219f33759528ca341257ba40db2f3a3b49cfc83da89e8e2274bb70bfd91f95",
      "transactionType": "CALL",
      "contractName": null,
      "contractAddress": "0x8aafd3ede9adb0ff97c7aebce82a919afb1c8764",
      "function": "sell(uint256)",
      "arguments": [
        "17119219185153860"
      ],
      "transaction": {
        "from": "0xc77f7fed3b5cc8249adc428c5f44c9063b9734b4",
        "to": "0x8aafd3ede9adb0ff97c7aebce82a919afb1c8764",
        "gas": "0x1724d",
        "value": "0x0",
        "input": "0xe4849b32000000000000000000000000000000000000000000000000003cd1d6d25cf744",
        "nonce": "0x13b4",
        "chainId": "0xaa36a7"
      },
      "additionalContracts": [],
      "isFixedGasLimit": false
    }
  ],
  "receipts": [
    {
      "status": "0x1",
      "cumulativeGasUsed": "0x919916",
      "logs": [
        {
          "address": "0x8aafd3ede9adb0ff97c7aebce82a919afb1c8764",
          "topics": [
            "0xddf252ad1be2c89b69c2b068fc378daa952ba7f163c4a11628f55a4df523b3ef",
            "0x000000000000000000000000c77f7fed3b5cc8249adc428c5f44c9063b9734b4",
            "0x0000000000000000000000000000000000000000000000000000000000000000"
          ],
          "data": "0x000000000000000000000000000000000000000000000000003c5547ca894736",
          "blockHash": "0xc45bb59029c225b7c56796d69af45a6bd86342f5ab2507de627aa0b7a16a5587",
          "blockNumber": "0x731adc",
          "transactionHash": "0xdf219f33759528ca341257ba40db2f3a3b49cfc83da89e8e2274bb70bfd91f95",
          "transactionIndex": "0x6a",
          "logIndex": "0x79",
          "removed": false
        },
        {
          "address": "0x8aafd3ede9adb0ff97c7aebce82a919afb1c8764",
          "topics": [
            "0xddf252ad1be2c89b69c2b068fc378daa952ba7f163c4a11628f55a4df523b3ef",
            "0x000000000000000000000000c77f7fed3b5cc8249adc428c5f44c9063b9734b4",
            "0x000000000000000000000000c77f7fed3b5cc8249adc428c5f44c9063b9734b4"
          ],
          "data": "0x00000000000000000000000000000000000000000000000000007c8f07d3b00e",
          "blockHash": "0xc45bb59029c225b7c56796d69af45a6bd86342f5ab2507de627aa0b7a16a5587",
          "blockNumber": "0x731adc",
          "transactionHash": "0xdf219f33759528ca341257ba40db2f3a3b49cfc83da89e8e2274bb70bfd91f95",
          "transactionIndex": "0x6a",
          "logIndex": "0x7a",
          "removed": false
        },
        {
          "address": "0x8aafd3ede9adb0ff97c7aebce82a919afb1c8764",
          "topics": [
            "0x4afcb4a87cdbd9974efdb92ee48bc8d7cd0ae4bf217004db3d080cbaee652ca7"
          ],
          "data": "0x0000000000000000000000000000000000000000000000000000000067903f20000000000000000000000000000000000000000000000000000d4a8296754bf000000000000000000000000000000000000000000000000000003a3f90380060",
          "blockHash": "0xc45bb59029c225b7c56796d69af45a6bd86342f5ab2507de627aa0b7a16a5587",
          "blockNumber": "0x731adc",
          "transactionHash": "0xdf219f33759528ca341257ba40db2f3a3b49cfc83da89e8e2274bb70bfd91f95",
          "transactionIndex": "0x6a",
          "logIndex": "0x7b",
          "removed": false
        }
      ],
      "logsBloom": "0x00000000000000000000000000000000000000000600000000000000000000000000000000000000000000000000000000000000000000004000000000000000000000000000004000000008000000000000000000000000000000000000000000000000020000000000000000000800020000000000000000000010000000000000000000000000000000000000000000000000000000000000010000000000000000000000000000000000000000004000000000000000000000000000000000000002000000800000000000000000000000000000080000000000000020000000000000000000000000000000000000000000000000000000000000000000",
      "type": "0x2",
      "transactionHash": "0xdf219f33759528ca341257ba40db2f3a3b49cfc83da89e8e2274bb70bfd91f95",
      "transactionIndex": "0x6a",
      "blockHash": "0xc45bb59029c225b7c56796d69af45a6bd86342f5ab2507de627aa0b7a16a5587",
      "blockNumber": "0x731adc",
      "gasUsed": "0xfd33",
      "effectiveGasPrice": "0x8790d400",
      "from": "0xc77f7fed3b5cc8249adc428c5f44c9063b9734b4",
      "to": "0x8aafd3ede9adb0ff97c7aebce82a919afb1c8764",
      "contractAddress": null
    }
  ],
  "libraries": [],
  "pending": [],
  "returns": {},
  "timestamp": 1737506593,
  "chain": 11155111,
  "commit": "1d2fb70"
}