{
  "transactions": [
    {
      "hash": "0x9e6f0542b41824085257e368bb5df759da173082090faa7b36db95c2fe164d64",
      "transactionType": "CALL",
      "contractName": null,
      "contractAddress": "0xbf4a322f1496e5c3d34a9bcdb4c60567b38c7de2",
      "function": "sell(uint256)",
      "arguments": [
        "983083631781688132124"
      ],
      "transaction": {
        "from": "0xc77f7fed3b5cc8249adc428c5f44c9063b9734b4",
        "to": "0xbf4a322f1496e5c3d34a9bcdb4c60567b38c7de2",
        "gas": "0x16fea",
        "value": "0x0",
        "input": "0xe4849b320000000000000000000000000000000000000000000000354b06aa815070421c",
        "nonce": "0xb33",
        "chainId": "0xaa36a7"
      },
      "additionalContracts": [],
      "isFixedGasLimit": false
    }
  ],
  "receipts": [
    {
      "status": "0x1",
      "cumulativeGasUsed": "0x13417ed",
      "logs": [
        {
          "address": "0xbf4a322f1496e5c3d34a9bcdb4c60567b38c7de2",
          "topics": [
            "0xddf252ad1be2c89b69c2b068fc378daa952ba7f163c4a11628f55a4df523b3ef",
            "0x000000000000000000000000c77f7fed3b5cc8249adc428c5f44c9063b9734b4",
            "0x0000000000000000000000000000000000000000000000000000000000000000"
          ],
          "data": "0x0000000000000000000000000000000000000000000000354b06aa815070421c",
          "blockHash": "0x14d888de3a88a867915ccb62a6a9bd1aa786bc5844ee824a7e35b1bfa1edd7d3",
          "blockNumber": "0x725b34",
          "transactionHash": "0x9e6f0542b41824085257e368bb5df759da173082090faa7b36db95c2fe164d64",
          "transactionIndex": "0xb7",
          "logIndex": "0x10d",
          "removed": false
        },
        {
          "address": "0xbf4a322f1496e5c3d34a9bcdb4c60567b38c7de2",
          "topics": [
            "0x4afcb4a87cdbd9974efdb92ee48bc8d7cd0ae4bf217004db3d080cbaee652ca7"
          ],
          "data": "0x00000000000000000000000000000000000000000000000000000000678738cc000000000000000000000000000000000000000000000000000396b26205be480000000000000000000000000000000000000000000000000dc7e3e93c5f5e78",
          "blockHash": "0x14d888de3a88a867915ccb62a6a9bd1aa786bc5844ee824a7e35b1bfa1edd7d3",
          "blockNumber": "0x725b34",
          "transactionHash": "0x9e6f0542b41824085257e368bb5df759da173082090faa7b36db95c2fe164d64",
          "transactionIndex": "0xb7",
          "logIndex": "0x10e",
          "removed": false
        }
      ],
      "logsBloom": "0x00000000000000000000000000000000000000000000000000000000000000000000000000000000000000000000000000000000000000004000000000000000000000000000000000000008000000000000001000000000000000000000000000000000020000000000000000000800020000000000000000000010000000000000000000000000000000000000000000000000000008000000010000000000000000000000000000000000000000004000000000000000000000000000000000000002000000800000000000001000000000000000080000000000000020000000000000000000000000000000000000000000000000000000000000000000",
      "type": "0x2",
      "transactionHash": "0x9e6f0542b41824085257e368bb5df759da173082090faa7b36db95c2fe164d64",
      "transactionIndex": "0xb7",
      "blockHash": "0x14d888de3a88a867915ccb62a6a9bd1aa786bc5844ee824a7e35b1bfa1edd7d3",
      "blockNumber": "0x725b34",
      "gasUsed": "0xfb91",
      "effectiveGasPrice": "0x4ca15c2d",
      "from": "0xc77f7fed3b5cc8249adc428c5f44c9063b9734b4",
      "to": "0xbf4a322f1496e5c3d34a9bcdb4c60567b38c7de2",
      "contractAddress": null
    }
  ],
  "libraries": [],
  "pending": [],
  "returns": {},
  "timestamp": 1736915149,
  "chain": 11155111,
  "commit": "51a374b"
}