{
  "transactions": [
    {
      "hash": "0xe2182aa8a5359a43885bd3a039c626a2dbd176eb09bf3e68fefeac9afc2588b3",
      "transactionType": "CALL",
      "contractName": null,
      "contractAddress": "0x270e88f8683660553e8ba4eb2ad7c91a1710d769",
      "function": "sell(uint256)",
      "arguments": [
        "744576996973996872762"
      ],
      "transaction": {
        "from": "0xc77f7fed3b5cc8249adc428c5f44c9063b9734b4",
        "to": "0x270e88f8683660553e8ba4eb2ad7c91a1710d769",
        "gas": "0x16fec",
        "value": "0x0",
        "input": "0xe4849b320000000000000000000000000000000000000000000000285d14e1cf522f143a",
        "nonce": "0x708",
        "chainId": "0xaa36a7"
      },
      "additionalContracts": [],
      "isFixedGasLimit": false
    }
  ],
  "receipts": [
    {
      "status": "0x1",
      "cumulativeGasUsed": "0x701341",
      "logs": [
        {
          "address": "0x270e88f8683660553e8ba4eb2ad7c91a1710d769",
          "topics": [
            "0xddf252ad1be2c89b69c2b068fc378daa952ba7f163c4a11628f55a4df523b3ef",
            "0x000000000000000000000000c77f7fed3b5cc8249adc428c5f44c9063b9734b4",
            "0x0000000000000000000000000000000000000000000000000000000000000000"
          ],
          "data": "0x0000000000000000000000000000000000000000000000285d14e1cf522f143a",
          "blockHash": "0x435755fa9ee4ba99687635a8d17fe5e832e6cdb23c094d45765efcd0b1136adb",
          "blockNumber": "0x72541e",
          "transactionHash": "0xe2182aa8a5359a43885bd3a039c626a2dbd176eb09bf3e68fefeac9afc2588b3",
          "transactionIndex": "0x33",
          "logIndex": "0x5b",
          "removed": false
        },
        {
          "address": "0x270e88f8683660553e8ba4eb2ad7c91a1710d769",
          "topics": [
            "0x4afcb4a87cdbd9974efdb92ee48bc8d7cd0ae4bf217004db3d080cbaee652ca7"
          ],
          "data": "0x000000000000000000000000000000000000000000000000000000006786e3700000000000000000000000000000000000000000000000000004bd3ceb2debac0000000000000000000000000000000000000000000000000dc828f93ac84ede",
          "blockHash": "0x435755fa9ee4ba99687635a8d17fe5e832e6cdb23c094d45765efcd0b1136adb",
          "blockNumber": "0x72541e",
          "transactionHash": "0xe2182aa8a5359a43885bd3a039c626a2dbd176eb09bf3e68fefeac9afc2588b3",
          "transactionIndex": "0x33",
          "logIndex": "0x5c",
          "removed": false
        }
      ],
      "logsBloom": "0x00000000000000000000000000000000000000000000000000000000000000000000000000000000000000000000000020000000000000004000000000000000000000000000000000000008000000000000000000000000000000000000000000000000020000000000000000000800020000000000000000000010000000000000000000010000000000000000000000000000000000000000010000000000000000000000000000000000000000004000000000000000000000000000000000000002000000800000000000000000000000000000080000008000000020000000000000000000000000000000000000000000000000000000000000000000",
      "type": "0x2",
      "transactionHash": "0xe2182aa8a5359a43885bd3a039c626a2dbd176eb09bf3e68fefeac9afc2588b3",
      "transactionIndex": "0x33",
      "blockHash": "0x435755fa9ee4ba99687635a8d17fe5e832e6cdb23c094d45765efcd0b1136adb",
      "blockNumber": "0x72541e",
      "gasUsed": "0xfb93",
      "effectiveGasPrice": "0x1634466e9",
      "from": "0xc77f7fed3b5cc8249adc428c5f44c9063b9734b4",
      "to": "0x270e88f8683660553e8ba4eb2ad7c91a1710d769",
      "contractAddress": null
    }
  ],
  "libraries": [],
  "pending": [],
  "returns": {},
  "timestamp": 1736893296,
  "chain": 11155111,
  "commit": "51a374b"
}