{
  "transactions": [
    {
      "hash": "0x1336d8eecd71b7ffa8e337493dd495ee5b6a75b982135a51ad2b7a411017ef1f",
      "transactionType": "CALL",
      "contractName": null,
      "contractAddress": "0xbf4a322f1496e5c3d34a9bcdb4c60567b38c7de2",
      "function": "sell(uint256)",
      "arguments": [
        "988408688610815655039"
      ],
      "transaction": {
        "from": "0xc77f7fed3b5cc8249adc428c5f44c9063b9734b4",
        "to": "0xbf4a322f1496e5c3d34a9bcdb4c60567b38c7de2",
        "gas": "0x16fea",
        "value": "0x0",
        "input": "0xe4849b3200000000000000000000000000000000000000000000003594ed117a555a3c7f",
        "nonce": "0x9ab",
        "chainId": "0xaa36a7"
      },
      "additionalContracts": [],
      "isFixedGasLimit": false
    }
  ],
  "receipts": [
    {
      "status": "0x1",
      "cumulativeGasUsed": "0x4f0bcc",
      "logs": [
        {
          "address": "0xbf4a322f1496e5c3d34a9bcdb4c60567b38c7de2",
          "topics": [
            "0xddf252ad1be2c89b69c2b068fc378daa952ba7f163c4a11628f55a4df523b3ef",
            "0x000000000000000000000000c77f7fed3b5cc8249adc428c5f44c9063b9734b4",
            "0x0000000000000000000000000000000000000000000000000000000000000000"
          ],
          "data": "0x00000000000000000000000000000000000000000000003594ed117a555a3c7f",
          "blockHash": "0x5403cfa8a99f6a94217f3d4ff49d637fb18fd00a9419ceb136eb3c5e80c5bc2c",
          "blockNumber": "0x725954",
          "transactionHash": "0x1336d8eecd71b7ffa8e337493dd495ee5b6a75b982135a51ad2b7a411017ef1f",
          "transactionIndex": "0x3b",
          "logIndex": "0x39",
          "removed": false
        },
        {
          "address": "0xbf4a322f1496e5c3d34a9bcdb4c60567b38c7de2",
          "topics": [
            "0x4afcb4a87cdbd9974efdb92ee48bc8d7cd0ae4bf217004db3d080cbaee652ca7"
          ],
          "data": "0x000000000000000000000000000000000000000000000000000000006787221c000000000000000000000000000000000000000000000000000391bf599197440000000000000000000000000000000000000000000000000dc7e3f59dd66dd2",
          "blockHash": "0x5403cfa8a99f6a94217f3d4ff49d637fb18fd00a9419ceb136eb3c5e80c5bc2c",
          "blockNumber": "0x725954",
          "transactionHash": "0x1336d8eecd71b7ffa8e337493dd495ee5b6a75b982135a51ad2b7a411017ef1f",
          "transactionIndex": "0x3b",
          "logIndex": "0x3a",
          "removed": false
        }
      ],
      "logsBloom": "0x00000000000000000000000000000000000000000000000000000000000000000000000000000000000000000000000000000000000000004000000000000000000000000000000000000008000000000000001000000000000000000000000000000000020000000000000000000800020000000000000000000010000000000000000000000000000000000000000000000000000008000000010000000000000000000000000000000000000000004000000000000000000000000000000000000002000000800000000000001000000000000000080000000000000020000000000000000000000000000000000000000000000000000000000000000000",
      "type": "0x2",
      "transactionHash": "0x1336d8eecd71b7ffa8e337493dd495ee5b6a75b982135a51ad2b7a411017ef1f",
      "transactionIndex": "0x3b",
      "blockHash": "0x5403cfa8a99f6a94217f3d4ff49d637fb18fd00a9419ceb136eb3c5e80c5bc2c",
      "blockNumber": "0x725954",
      "gasUsed": "0xfb91",
      "effectiveGasPrice": "0x22b92b7cc",
      "from": "0xc77f7fed3b5cc8249adc428c5f44c9063b9734b4",
      "to": "0xbf4a322f1496e5c3d34a9bcdb4c60567b38c7de2",
      "contractAddress": null
    }
  ],
  "libraries": [],
  "pending": [],
  "returns": {},
  "timestamp": 1736909341,
  "chain": 11155111,
  "commit": "51a374b"
}