{
  "transactions": [
    {
      "hash": "0x4a45bafebd66fec70303b4966faf574726b2baf39de3ecb0829013ae0407c9cb",
      "transactionType": "CALL",
      "contractName": null,
      "contractAddress": "0xbf4a322f1496e5c3d34a9bcdb4c60567b38c7de2",
      "function": "buy(address)",
      "arguments": [
        "0xC77f7fed3b5Cc8249aDc428c5F44C9063B9734b4"
      ],
      "transaction": {
        "from": "0xc77f7fed3b5cc8249adc428c5f44c9063b9734b4",
        "to": "0xbf4a322f1496e5c3d34a9bcdb4c60567b38c7de2",
        "gas": "0x1b309",
        "value": "0xde0b6b3a7640000",
        "input": "0xf088d547000000000000000000000000c77f7fed3b5cc8249adc428c5f44c9063b9734b4",
        "nonce": "0xd9c",
        "chainId": "0xaa36a7"
      },
      "additionalContracts": [],
      "isFixedGasLimit": false
    }
  ],
  "receipts": [
    {
      "status": "0x1",
      "cumulativeGasUsed": "0x1ad1890",
      "logs": [
        {
          "address": "0xbf4a322f1496e5c3d34a9bcdb4c60567b38c7de2",
          "topics": [
            "0xddf252ad1be2c89b69c2b068fc378daa952ba7f163c4a11628f55a4df523b3ef",
            "0x0000000000000000000000000000000000000000000000000000000000000000",
            "0x000000000000000000000000c77f7fed3b5cc8249adc428c5f44c9063b9734b4"
          ],
          "data": "0x000000000000000000000000000000000000000000000034af365ddc6f00c209",
          "blockHash": "0x807729135cf06059459cc16dc8ad1b2efd66b0f6575598ef30772361c6b88462",
          "blockNumber": "0x726672",
          "transactionHash": "0x4a45bafebd66fec70303b4966faf574726b2baf39de3ecb0829013ae0407c9cb",
          "transactionIndex": "0x102",
          "logIndex": "0x1b0",
          "removed": false
        },
        {
          "address": "0xbf4a322f1496e5c3d34a9bcdb4c60567b38c7de2",
          "topics": [
            "0xddf252ad1be2c89b69c2b068fc378daa952ba7f163c4a11628f55a4df523b3ef",
            "0x0000000000000000000000000000000000000000000000000000000000000000",
            "0x000000000000000000000000c77f7fed3b5cc8249adc428c5f44c9063b9734b4"
          ],
          "data": "0x00000000000000000000000000000000000000000000000028e947cbb58287a8",
          "blockHash": "0x807729135cf06059459cc16dc8ad1b2efd66b0f6575598ef30772361c6b88462",
          "blockNumber": "0x726672",
          "transactionHash": "0x4a45bafebd66fec70303b4966faf574726b2baf39de3ecb0829013ae0407c9cb",
          "transactionIndex": "0x102",
          "logIndex": "0x1b1",
          "removed": false
        },
        {
          "address": "0xbf4a322f1496e5c3d34a9bcdb4c60567b38c7de2",
          "topics": [
            "0x4afcb4a87cdbd9974efdb92ee48bc8d7cd0ae4bf217004db3d080cbaee652ca7"
          ],
          "data": "0x000000000000000000000000000000000000000000000000000000006787c02000000000000000000000000000000000000000000000000000039e7bc51d6a400000000000000000000000000000000000000000000000000de0b6b3a7640000",
          "blockHash": "0x807729135cf06059459cc16dc8ad1b2efd66b0f6575598ef30772361c6b88462",
          "blockNumber": "0x726672",
          "transactionHash": "0x4a45bafebd66fec70303b4966faf574726b2baf39de3ecb0829013ae0407c9cb",
          "transactionIndex": "0x102",
          "logIndex": "0x1b2",
          "removed": false
        }
      ],
      "logsBloom": "0x00000000000000000000000000000000000000000000000000000000000000000000000000000000000000000000000000000000000000004000000000000000000000000000000000000008000000000000001000000000000000000000000000000000020000000000000000000800020000000000000000000010000000000000000000000000000000000000000000000000000008000000010000000000000000000000000000000000000000004000000000000000000000000000000000000002000000800000000000001000000000000000080000000000000020000000000000000000000000000000000000000000000000000000000000000000",
      "type": "0x2",
      "transactionHash": "0x4a45bafebd66fec70303b4966faf574726b2baf39de3ecb0829013ae0407c9cb",
      "transactionIndex": "0x102",
      "blockHash": "0x807729135cf06059459cc16dc8ad1b2efd66b0f6575598ef30772361c6b88462",
      "blockNumber": "0x726672",
      "gasUsed": "0x13af6",
      "effectiveGasPrice": "0x8501ad90",
      "from": "0xc77f7fed3b5cc8249adc428c5f44c9063b9734b4",
      "to": "0xbf4a322f1496e5c3d34a9bcdb4c60567b38c7de2",
      "contractAddress": null
    }
  ],
  "libraries": [],
  "pending": [],
  "returns": {},
  "timestamp": 1736949793,
  "chain": 11155111,
  "commit": "51a374b"
}