{
  "transactions": [
    {
      "hash": "0xb8e671bc47d9423941096582a39e3a3cdf2290a6ef8aa1a0d120b76d4ce00e34",
      "transactionType": "CALL",
      "contractName": null,
      "contractAddress": "0x8aafd3ede9adb0ff97c7aebce82a919afb1c8764",
      "function": "sell(uint256)",
      "arguments": [
        "194821259"
      ],
      "transaction": {
        "from": "0xc77f7fed3b5cc8249adc428c5f44c9063b9734b4",
        "to": "0x8aafd3ede9adb0ff97c7aebce82a919afb1c8764",
        "gas": "0x14e6c",
        "value": "0x0",
        "input": "0xe4849b32000000000000000000000000000000000000000000000000000000000b9cbc8b",
        "nonce": "0xf31",
        "chainId": "0xaa36a7"
      },
      "additionalContracts": [],
      "isFixedGasLimit": false
    }
  ],
  "receipts": [
    {
      "status": "0x1",
      "cumulativeGasUsed": "0xda7db1",
      "logs": [
        {
          "address": "0x8aafd3ede9adb0ff97c7aebce82a919afb1c8764",
          "topics": [
            "0xddf252ad1be2c89b69c2b068fc378daa952ba7f163c4a11628f55a4df523b3ef",
            "0x000000000000000000000000c77f7fed3b5cc8249adc428c5f44c9063b9734b4",
            "0x0000000000000000000000000000000000000000000000000000000000000000"
          ],
          "data": "0x000000000000000000000000000000000000000000000000000000000b84f461",
          "blockHash": "0xb1b30a278cf0301812f5ff59441007f9d4df3bf95c8fb8b006f1eb3ae82b1884",
          "blockNumber": "0x731586",
          "transactionHash": "0xb8e671bc47d9423941096582a39e3a3cdf2290a6ef8aa1a0d120b76d4ce00e34",
          "transactionIndex": "0x94",
          "logIndex": "0x10e",
          "removed": false
        },
        {
          "address": "0x8aafd3ede9adb0ff97c7aebce82a919afb1c8764",
          "topics": [
            "0xddf252ad1be2c89b69c2b068fc378daa952ba7f163c4a11628f55a4df523b3ef",
            "0x000000000000000000000000c77f7fed3b5cc8249adc428c5f44c9063b9734b4",
            "0x000000000000000000000000c77f7fed3b5cc8249adc428c5f44c9063b9734b4"
          ],
          "data": "0x000000000000000000000000000000000000000000000000000000000017c82a",
          "blockHash": "0xb1b30a278cf0301812f5ff59441007f9d4df3bf95c8fb8b006f1eb3ae82b1884",
          "blockNumber": "0x731586",
          "transactionHash": "0xb8e671bc47d9423941096582a39e3a3cdf2290a6ef8aa1a0d120b76d4ce00e34",
          "transactionIndex": "0x94",
          "logIndex": "0x10f",
          "removed": false
        },
        {
          "address": "0x8aafd3ede9adb0ff97c7aebce82a919afb1c8764",
          "topics": [
            "0x4afcb4a87cdbd9974efdb92ee48bc8d7cd0ae4bf217004db3d080cbaee652ca7"
          ],
          "data": "0x00000000000000000000000000000000000000000000000000000000678ffef40000000000000000000000000000000000000000000000000004bf8bd68431c0000000000000000000000000000000000000000000000000000000000003f91c",
          "blockHash": "0xb1b30a278cf0301812f5ff59441007f9d4df3bf95c8fb8b006f1eb3ae82b1884",
          "blockNumber": "0x731586",
          "transactionHash": "0xb8e671bc47d9423941096582a39e3a3cdf2290a6ef8aa1a0d120b76d4ce00e34",
          "transactionIndex": "0x94",
          "logIndex": "0x110",
          "removed": false
        }
      ],
      "logsBloom": "0x00000000000000000000000000000000000000000600000000000000000000000000000000000000000000000000000000000000000000004000000000000000000000000000004000000008000000000000000000000000000000000000000000000000020000000000000000000800020000000000000000000010000000000000000000000000000000000000000000000000000000000000010000000000000000000000000000000000000000004000000000000000000000000000000000000002000000800000000000000000000000000000080000000000000020000000000000000000000000000000000000000000000000000000000000000000",
      "type": "0x2",
      "transactionHash": "0xb8e671bc47d9423941096582a39e3a3cdf2290a6ef8aa1a0d120b76d4ce00e34",
      "transactionIndex": "0x94",
      "blockHash": "0xb1b30a278cf0301812f5ff59441007f9d4df3bf95c8fb8b006f1eb3ae82b1884",
      "blockNumber": "0x731586",
      "gasUsed": "0xf21f",
      "effectiveGasPrice": "0x62370cef",
      "from": "0xc77f7fed3b5cc8249adc428c5f44c9063b9734b4",
      "to": "0x8aafd3ede9adb0ff97c7aebce82a919afb1c8764",
      "contractAddress": null
    }
  ],
  "libraries": [],
  "pending": [],
  "returns": {},
  "timestamp": 1737490166,
  "chain": 11155111,
  "commit": "1d2fb70"
}