{
  "transactions": [
    {
      "hash": "0x0783e6c3d841224c23752d860e0d674504ea61f21c24d40e59fd998d47916fe3",
      "transactionType": "CALL",
      "contractName": null,
      "contractAddress": "0x8aafd3ede9adb0ff97c7aebce82a919afb1c8764",
      "function": "sell(uint256)",
      "arguments": [
        "1062665595090"
      ],
      "transaction": {
        "from": "0xc77f7fed3b5cc8249adc428c5f44c9063b9734b4",
        "to": "0x8aafd3ede9adb0ff97c7aebce82a919afb1c8764",
        "gas": "0x1722a",
        "value": "0x0",
        "input": "0xe4849b32000000000000000000000000000000000000000000000000000000f76bce28d2",
        "nonce": "0x13da",
        "chainId": "0xaa36a7"
      },
      "additionalContracts": [],
      "isFixedGasLimit": false
    }
  ],
  "receipts": [
    {
      "status": "0x1",
      "cumulativeGasUsed": "0xa435a5",
      "logs": [
        {
          "address": "0x8aafd3ede9adb0ff97c7aebce82a919afb1c8764",
          "topics": [
            "0xddf252ad1be2c89b69c2b068fc378daa952ba7f163c4a11628f55a4df523b3ef",
            "0x000000000000000000000000c77f7fed3b5cc8249adc428c5f44c9063b9734b4",
            "0x0000000000000000000000000000000000000000000000000000000000000000"
          ],
          "data": "0x000000000000000000000000000000000000000000000000000000f571163cfa",
          "blockHash": "0x431fe2dd952ea1ab2e260380c43b9b1337f3a4c858a5eddb58345c32bcb9e61f",
          "blockNumber": "0x731b07",
          "transactionHash": "0x0783e6c3d841224c23752d860e0d674504ea61f21c24d40e59fd998d47916fe3",
          "transactionIndex": "0x4c",
          "logIndex": "0x57",
          "removed": false
        },
        {
          "address": "0x8aafd3ede9adb0ff97c7aebce82a919afb1c8764",
          "topics": [
            "0xddf252ad1be2c89b69c2b068fc378daa952ba7f163c4a11628f55a4df523b3ef",
            "0x000000000000000000000000c77f7fed3b5cc8249adc428c5f44c9063b9734b4",
            "0x000000000000000000000000c77f7fed3b5cc8249adc428c5f44c9063b9734b4"
          ],
          "data": "0x00000000000000000000000000000000000000000000000000000001fab7ebd8",
          "blockHash": "0x431fe2dd952ea1ab2e260380c43b9b1337f3a4c858a5eddb58345c32bcb9e61f",
          "blockNumber": "0x731b07",
          "transactionHash": "0x0783e6c3d841224c23752d860e0d674504ea61f21c24d40e59fd998d47916fe3",
          "transactionIndex": "0x4c",
          "logIndex": "0x58",
          "removed": false
        },
        {
          "address": "0x8aafd3ede9adb0ff97c7aebce82a919afb1c8764",
          "topics": [
            "0x4afcb4a87cdbd9974efdb92ee48bc8d7cd0ae4bf217004db3d080cbaee652ca7"
          ],
          "data": "0x0000000000000000000000000000000000000000000000000000000067904124000000000000000000000000000000000000000000000000000db34b6fe92bd900000000000000000000000000000000000000000000000000000000f4420ca7",
          "blockHash": "0x431fe2dd952ea1ab2e260380c43b9b1337f3a4c858a5eddb58345c32bcb9e61f",
          "blockNumber": "0x731b07",
          "transactionHash": "0x0783e6c3d841224c23752d860e0d674504ea61f21c24d40e59fd998d47916fe3",
          "transactionIndex": "0x4c",
          "logIndex": "0x59",
          "removed": false
        }
      ],
      "logsBloom": "0x00000000000000000000000000000000000000000600000000000000000000000000000000000000000000000000000000000000000000004000000000000000000000000000004000000008000000000000000000000000000000000000000000000000020000000000000000000800020000000000000000000010000000000000000000000000000000000000000000000000000000000000010000000000000000000000000000000000000000004000000000000000000000000000000000000002000000800000000000000000000000000000080000000000000020000000000000000000000000000000000000000000000000000000000000000000",
      "type": "0x2",
      "transactionHash": "0x0783e6c3d841224c23752d860e0d674504ea61f21c24d40e59fd998d47916fe3",
      "transactionIndex": "0x4c",
      "blockHash": "0x431fe2dd952ea1ab2e260380c43b9b1337f3a4c858a5eddb58345c32bcb9e61f",
      "blockNumber": "0x731b07",
      "gasUsed": "0xfd1b",
      "effectiveGasPrice": "0x8efd1e75",
      "from": "0xc77f7fed3b5cc8249adc428c5f44c9063b9734b4",
      "to": "0x8aafd3ede9adb0ff97c7aebce82a919afb1c8764",
      "contractAddress": null
    }
  ],
  "libraries": [],
  "pending": [],
  "returns": {},
  "timestamp": 1737507109,
  "chain": 11155111,
  "commit": "1d2fb70"
}