{
  "transactions": [
    {
      "hash": "0x31be5b62c0c7321f9d1f02770919e6dde7cef435f711a97c466d649eb7af39c8",
      "transactionType": "CALL",
      "contractName": null,
      "contractAddress": "0x270e88f8683660553e8ba4eb2ad7c91a1710d769",
      "function": "sell(uint256)",
      "arguments": [
        "964461389088084919968"
      ],
      "transaction": {
        "from": "0xc77f7fed3b5cc8249adc428c5f44c9063b9734b4",
        "to": "0x270e88f8683660553e8ba4eb2ad7c91a1710d769",
        "gas": "0x16fec",
        "value": "0x0",
        "input": "0xe4849b3200000000000000000000000000000000000000000000003448972b70af1b06a0",
        "nonce": "0x58d",
        "chainId": "0xaa36a7"
      },
      "additionalContracts": [],
      "isFixedGasLimit": false
    }
  ],
  "receipts": [
    {
      "status": "0x1",
      "cumulativeGasUsed": "0xa694e7",
      "logs": [
        {
          "address": "0x270e88f8683660553e8ba4eb2ad7c91a1710d769",
          "topics": [
            "0xddf252ad1be2c89b69c2b068fc378daa952ba7f163c4a11628f55a4df523b3ef",
            "0x000000000000000000000000c77f7fed3b5cc8249adc428c5f44c9063b9734b4",
            "0x0000000000000000000000000000000000000000000000000000000000000000"
          ],
          "data": "0x00000000000000000000000000000000000000000000003448972b70af1b06a0",
          "blockHash": "0x7913dad778809f72b39b82c570e96f7a0a38cf8275dc9a043098e77de92fd419",
          "blockNumber": "0x725241",
          "transactionHash": "0x31be5b62c0c7321f9d1f02770919e6dde7cef435f711a97c466d649eb7af39c8",
          "transactionIndex": "0x44",
          "logIndex": "0x91",
          "removed": false
        },
        {
          "address": "0x270e88f8683660553e8ba4eb2ad7c91a1710d769",
          "topics": [
            "0x4afcb4a87cdbd9974efdb92ee48bc8d7cd0ae4bf217004db3d080cbaee652ca7"
          ],
          "data": "0x000000000000000000000000000000000000000000000000000000006786ccfc0000000000000000000000000000000000000000000000000003a8b3c51da7c40000000000000000000000000000000000000000000000000dc83fa50a4794ef",
          "blockHash": "0x7913dad778809f72b39b82c570e96f7a0a38cf8275dc9a043098e77de92fd419",
          "blockNumber": "0x725241",
          "transactionHash": "0x31be5b62c0c7321f9d1f02770919e6dde7cef435f711a97c466d649eb7af39c8",
          "transactionIndex": "0x44",
          "logIndex": "0x92",
          "removed": false
        }
      ],
      "logsBloom": "0x00000000000000000000000000000000000000000000000000000000000000000000000000000000000000000000000020000000000000004000000000000000000000000000000000000008000000000000000000000000000000000000000000000000020000000000000000000800020000000000000000000010000000000000000000010000000000000000000000000000000000000000010000000000000000000000000000000000000000004000000000000000000000000000000000000002000000800000000000000000000000000000080000008000000020000000000000000000000000000000000000000000000000000000000000000000",
      "type": "0x2",
      "transactionHash": "0x31be5b62c0c7321f9d1f02770919e6dde7cef435f711a97c466d649eb7af39c8",
      "transactionIndex": "0x44",
      "blockHash": "0x7913dad778809f72b39b82c570e96f7a0a38cf8275dc9a043098e77de92fd419",
      "blockNumber": "0x725241",
      "gasUsed": "0xfb93",
      "effectiveGasPrice": "0x42aeb3260",
      "from": "0xc77f7fed3b5cc8249adc428c5f44c9063b9734b4",
      "to": "0x270e88f8683660553e8ba4eb2ad7c91a1710d769",
      "contractAddress": null
    }
  ],
  "libraries": [],
  "pending": [],
  "returns": {},
  "timestamp": 1736887549,
  "chain": 11155111,
  "commit": "51a374b"
}