{
  "transactions": [
    {
      "hash": "0x78722167785b097d75c6bcde8210e22a0103a3b8efabe57f50b13bd5b07e9156",
      "transactionType": "CALL",
      "contractName": null,
      "contractAddress": "0x5eb9cc76c3506942c1c0ead70e877dd5e4f00cb0",
      "function": "sell(uint256)",
      "arguments": [
        "989069404183241259406"
      ],
      "transaction": {
        "from": "0xc77f7fed3b5cc8249adc428c5f44c9063b9734b4",
        "to": "0x5eb9cc76c3506942c1c0ead70e877dd5e4f00cb0",
        "gas": "0x16fec",
        "value": "0x0",
        "input": "0xe4849b320000000000000000000000000000000000000000000000359e1866ca5559798e",
        "nonce": "0x4c1",
        "chainId": "0xaa36a7"
      },
      "additionalContracts": [],
      "isFixedGasLimit": false
    }
  ],
  "receipts": [
    {
      "status": "0x1",
      "cumulativeGasUsed": "0x8a16f3",
      "logs": [
        {
          "address": "0x5eb9cc76c3506942c1c0ead70e877dd5e4f00cb0",
          "topics": [
            "0xddf252ad1be2c89b69c2b068fc378daa952ba7f163c4a11628f55a4df523b3ef",
            "0x000000000000000000000000c77f7fed3b5cc8249adc428c5f44c9063b9734b4",
            "0x0000000000000000000000000000000000000000000000000000000000000000"
          ],
          "data": "0x0000000000000000000000000000000000000000000000359e1866ca5559798e",
          "blockHash": "0x8305ca062e7c5b9724e6cf394ee333fcd64d3568820e149b109d5301c2bffd23",
          "blockNumber": "0x725101",
          "transactionHash": "0x78722167785b097d75c6bcde8210e22a0103a3b8efabe57f50b13bd5b07e9156",
          "transactionIndex": "0x5c",
          "logIndex": "0x7c",
          "removed": false
        },
        {
          "address": "0x5eb9cc76c3506942c1c0ead70e877dd5e4f00cb0",
          "topics": [
            "0x4afcb4a87cdbd9974efdb92ee48bc8d7cd0ae4bf217004db3d080cbaee652ca7"
          ],
          "data": "0x000000000000000000000000000000000000000000000000000000006786bdf00000000000000000000000000000000000000000000000000003911cb3ef7ef80000000000000000000000000000000000000000000000000dc7db1331b101cc",
          "blockHash": "0x8305ca062e7c5b9724e6cf394ee333fcd64d3568820e149b109d5301c2bffd23",
          "blockNumber": "0x725101",
          "transactionHash": "0x78722167785b097d75c6bcde8210e22a0103a3b8efabe57f50b13bd5b07e9156",
          "transactionIndex": "0x5c",
          "logIndex": "0x7d",
          "removed": false
        }
      ],
      "logsBloom": "0x00000000000000000000000000000000000000000000000000000000000000000000000000000000000000000000000000000000000000004000000000000000000000000000000000000008000000000000000000000000000000000000000000000000020000000000000004000800020000000000000000000010000000000000000000000000000000000000000000000000000000000000010000000000000000000000000000000000000000004000000000000000000000000000020000000002000000800000008000000000000000000000080000000000000020000000000000000000000000000000000000000000000000000000000000000000",
      "type": "0x2",
      "transactionHash": "0x78722167785b097d75c6bcde8210e22a0103a3b8efabe57f50b13bd5b07e9156",
      "transactionIndex": "0x5c",
      "blockHash": "0x8305ca062e7c5b9724e6cf394ee333fcd64d3568820e149b109d5301c2bffd23",
      "blockNumber": "0x725101",
      "gasUsed": "0xfb93",
      "effectiveGasPrice": "0x2a9ee11d3",
      "from": "0xc77f7fed3b5cc8249adc428c5f44c9063b9734b4",
      "to": "0x5eb9cc76c3506942c1c0ead70e877dd5e4f00cb0",
      "contractAddress": null
    }
  ],
  "libraries": [],
  "pending": [],
  "returns": {},
  "timestamp": 1736883697,
  "chain": 11155111,
  "commit": "51a374b"
}