{
  "transactions": [
    {
      "hash": "0x2836f2a9860048224e08252e0dc9f79cec27fff97a0533bc5091898a31b96d4d",
      "transactionType": "CALL",
      "contractName": null,
      "contractAddress": "0x270e88f8683660553e8ba4eb2ad7c91a1710d769",
      "function": "sell(uint256)",
      "arguments": [
        "824837519526756668142"
      ],
      "transaction": {
        "from": "0xc77f7fed3b5cc8249adc428c5f44c9063b9734b4",
        "to": "0x270e88f8683660553e8ba4eb2ad7c91a1710d769",
        "gas": "0x16fec",
        "value": "0x0",
        "input": "0xe4849b3200000000000000000000000000000000000000000000002cb6eb89d546a8d2ee",
        "nonce": "0x641",
        "chainId": "0xaa36a7"
      },
      "additionalContracts": [],
      "isFixedGasLimit": false
    }
  ],
  "receipts": [
    {
      "status": "0x1",
      "cumulativeGasUsed": "0x616fa6",
      "logs": [
        {
          "address": "0x270e88f8683660553e8ba4eb2ad7c91a1710d769",
          "topics": [
            "0xddf252ad1be2c89b69c2b068fc378daa952ba7f163c4a11628f55a4df523b3ef",
            "0x000000000000000000000000c77f7fed3b5cc8249adc428c5f44c9063b9734b4",
            "0x0000000000000000000000000000000000000000000000000000000000000000"
          ],
          "data": "0x00000000000000000000000000000000000000000000002cb6eb89d546a8d2ee",
          "blockHash": "0x8ac0671c4db721857217ee529de39f0bc165c1256aef3473aa50aed1aa2c33a6",
          "blockNumber": "0x72532a",
          "transactionHash": "0x2836f2a9860048224e08252e0dc9f79cec27fff97a0533bc5091898a31b96d4d",
          "transactionIndex": "0x47",
          "logIndex": "0x70",
          "removed": false
        },
        {
          "address": "0x270e88f8683660553e8ba4eb2ad7c91a1710d769",
          "topics": [
            "0x4afcb4a87cdbd9974efdb92ee48bc8d7cd0ae4bf217004db3d080cbaee652ca7"
          ],
          "data": "0x000000000000000000000000000000000000000000000000000000006786d800000000000000000000000000000000000000000000000000000446f0a75f24bf0000000000000000000000000000000000000000000000000dc7e0f9a15863ce",
          "blockHash": "0x8ac0671c4db721857217ee529de39f0bc165c1256aef3473aa50aed1aa2c33a6",
          "blockNumber": "0x72532a",
          "transactionHash": "0x2836f2a9860048224e08252e0dc9f79cec27fff97a0533bc5091898a31b96d4d",
          "transactionIndex": "0x47",
          "logIndex": "0x71",
          "removed": false
        }
      ],
      "logsBloom": "0x00000000000000000000000000000000000000000000000000000000000000000000000000000000000000000000000020000000000000004000000000000000000000000000000000000008000000000000000000000000000000000000000000000000020000000000000000000800020000000000000000000010000000000000000000010000000000000000000000000000000000000000010000000000000000000000000000000000000000004000000000000000000000000000000000000002000000800000000000000000000000000000080000008000000020000000000000000000000000000000000000000000000000000000000000000000",
      "type": "0x2",
      "transactionHash": "0x2836f2a9860048224e08252e0dc9f79cec27fff97a0533bc5091898a31b96d4d",
      "transactionIndex": "0x47",
      "blockHash": "0x8ac0671c4db721857217ee529de39f0bc165c1256aef3473aa50aed1aa2c33a6",
      "blockNumber": "0x72532a",
      "gasUsed": "0xfb93",
      "effectiveGasPrice": "0x1e4373989",
      "from": "0xc77f7fed3b5cc8249adc428c5f44c9063b9734b4",
      "to": "0x270e88f8683660553e8ba4eb2ad7c91a1710d769",
      "contractAddress": null
    }
  ],
  "libraries": [],
  "pending": [],
  "returns": {},
  "timestamp": 1736890369,
  "chain": 11155111,
  "commit": "51a374b"
}