{
  "transactions": [
    {
      "hash": "0xc3cd556ffee18f3c00fdb0733e2360c0f68b3ec7727bf8827fb958177fc9ddda",
      "transactionType": "CALL",
      "contractName": null,
      "contractAddress": "0x8aafd3ede9adb0ff97c7aebce82a919afb1c8764",
      "function": "sell(uint256)",
      "arguments": [
        "2014788682943227404"
      ],
      "transaction": {
        "from": "0xc77f7fed3b5cc8249adc428c5f44c9063b9734b4",
        "to": "0x8aafd3ede9adb0ff97c7aebce82a919afb1c8764",
        "gas": "0x15dca",
        "value": "0x0",
        "input": "0xe4849b320000000000000000000000000000000000000000000000001bf5f7a1e04ee60c",
        "nonce": "0x13fb",
        "chainId": "0xaa36a7"
      },
      "additionalContracts": [],
      "isFixedGasLimit": false
    }
  ],
  "receipts": [
    {
      "status": "0x1",
      "cumulativeGasUsed": "0xa3ef63",
      "logs": [
        {
          "address": "0x8aafd3ede9adb0ff97c7aebce82a919afb1c8764",
          "topics": [
            "0xddf252ad1be2c89b69c2b068fc378daa952ba7f163c4a11628f55a4df523b3ef",
            "0x000000000000000000000000c77f7fed3b5cc8249adc428c5f44c9063b9734b4",
            "0x0000000000000000000000000000000000000000000000000000000000000000"
          ],
          "data": "0x0000000000000000000000000000000000000000000000001bbcb41d825a8e31",
          "blockHash": "0x38f75a90d00cdcabe212dcdaabeed42f4298792dfc8f4645e1046d63b03ebb4e",
          "blockNumber": "0x731b30",
          "transactionHash": "0xc3cd556ffee18f3c00fdb0733e2360c0f68b3ec7727bf8827fb958177fc9ddda",
          "transactionIndex": "0x4a",
          "logIndex": "0x39",
          "removed": false
        },
        {
          "address": "0x8aafd3ede9adb0ff97c7aebce82a919afb1c8764",
          "topics": [
            "0xddf252ad1be2c89b69c2b068fc378daa952ba7f163c4a11628f55a4df523b3ef",
            "0x000000000000000000000000c77f7fed3b5cc8249adc428c5f44c9063b9734b4",
            "0x000000000000000000000000c77f7fed3b5cc8249adc428c5f44c9063b9734b4"
          ],
          "data": "0x000000000000000000000000000000000000000000000000003943845df457db",
          "blockHash": "0x38f75a90d00cdcabe212dcdaabeed42f4298792dfc8f4645e1046d63b03ebb4e",
          "blockNumber": "0x731b30",
          "transactionHash": "0xc3cd556ffee18f3c00fdb0733e2360c0f68b3ec7727bf8827fb958177fc9ddda",
          "transactionIndex": "0x4a",
          "logIndex": "0x3a",
          "removed": false
        },
        {
          "address": "0x8aafd3ede9adb0ff97c7aebce82a919afb1c8764",
          "topics": [
            "0x4afcb4a87cdbd9974efdb92ee48bc8d7cd0ae4bf217004db3d080cbaee652ca7"
          ],
          "data": "0x0000000000000000000000000000000000000000000000000000000067904310000000000000000000000000000000000000000000000000000e1c44647a4bd0000000000000000000000000000000000000000000000000001c6da1c65dddd8",
          "blockHash": "0x38f75a90d00cdcabe212dcdaabeed42f4298792dfc8f4645e1046d63b03ebb4e",
          "blockNumber": "0x731b30",
          "transactionHash": "0xc3cd556ffee18f3c00fdb0733e2360c0f68b3ec7727bf8827fb958177fc9ddda",
          "transactionIndex": "0x4a",
          "logIndex": "0x3b",
          "removed": false
        }
      ],
      "logsBloom": "0x00000000000000000000000000000000000000000600000000000000000000000000000000000000000000000000000000000000000000004000000000000000000000000000004000000008000000000000000000000000000000000000000000000000020000000000000000000800020000000000000000000010000000000000000000000000000000000000000000000000000000000000010000000000000000000000000000000000000000004000000000000000000000000000000000000002000000800000000000000000000000000000080000000000000020000000000000000000000000000000000000000000000000000000000000000000",
      "type": "0x2",
      "transactionHash": "0xc3cd556ffee18f3c00fdb0733e2360c0f68b3ec7727bf8827fb958177fc9ddda",
      "transactionIndex": "0x4a",
      "blockHash": "0x38f75a90d00cdcabe212dcdaabeed42f4298792dfc8f4645e1046d63b03ebb4e",
      "blockNumber": "0x731b30",
      "gasUsed": "0xfd3f",
      "effectiveGasPrice": "0xa8a64b8f",
      "from": "0xc77f7fed3b5cc8249adc428c5f44c9063b9734b4",
      "to": "0x8aafd3ede9adb0ff97c7aebce82a919afb1c8764",
      "contractAddress": null
    }
  ],
  "libraries": [],
  "pending": [],
  "returns": {},
  "timestamp": 1737507601,
  "chain": 11155111,
  "commit": "1d2fb70"
}