{
  "transactions": [
    {
      "hash": "0x1edb54e9f9f5e1f6f436fa7977c2be94e72c2c7acd1f324bdc5319de257a400d",
      "transactionType": "CALL",
      "contractName": null,
      "contractAddress": "0x8aafd3ede9adb0ff97c7aebce82a919afb1c8764",
      "function": "buy(address)",
      "arguments": [
        "0xC77f7fed3b5Cc8249aDc428c5F44C9063B9734b4"
      ],
      "transaction": {
        "from": "0xc77f7fed3b5cc8249adc428c5f44c9063b9734b4",
        "to": "0x8aafd3ede9adb0ff97c7aebce82a919afb1c8764",
        "gas": "0x156ea",
        "value": "0xde0b6b3a7640000",
        "input": "0xf088d547000000000000000000000000c77f7fed3b5cc8249adc428c5f44c9063b9734b4",
        "nonce": "0x11ee",
        "chainId": "0xaa36a7"
      },
      "additionalContracts": [],
      "isFixedGasLimit": false
    }
  ],
  "receipts": [
    {
      "status": "0x1",
      "cumulativeGasUsed": "0xf6db82",
      "logs": [
        {
          "address": "0x8aafd3ede9adb0ff97c7aebce82a919afb1c8764",
          "topics": [
            "0xddf252ad1be2c89b69c2b068fc378daa952ba7f163c4a11628f55a4df523b3ef",
            "0x0000000000000000000000000000000000000000000000000000000000000000",
            "0x000000000000000000000000c77f7fed3b5cc8249adc428c5f44c9063b9734b4"
          ],
          "data": "0x000000000000000000000000000000000000000000000024d288846a6f1403e0",
          "blockHash": "0xd7faed4f14da56387951288fc7e72c0b47b11a95edf5bf3557c53ad92533b34d",
          "blockNumber": "0x7318c6",
          "transactionHash": "0x1edb54e9f9f5e1f6f436fa7977c2be94e72c2c7acd1f324bdc5319de257a400d",
          "transactionIndex": "0x76",
          "logIndex": "0xde",
          "removed": false
        },
        {
          "address": "0x8aafd3ede9adb0ff97c7aebce82a919afb1c8764",
          "topics": [
            "0xddf252ad1be2c89b69c2b068fc378daa952ba7f163c4a11628f55a4df523b3ef",
            "0x0000000000000000000000000000000000000000000000000000000000000000",
            "0x000000000000000000000000c77f7fed3b5cc8249adc428c5f44c9063b9734b4"
          ],
          "data": "0x0000000000000000000000000000000000000000000000001c98064da66e0891",
          "blockHash": "0xd7faed4f14da56387951288fc7e72c0b47b11a95edf5bf3557c53ad92533b34d",
          "blockNumber": "0x7318c6",
          "transactionHash": "0x1edb54e9f9f5e1f6f436fa7977c2be94e72c2c7acd1f324bdc5319de257a400d",
          "transactionIndex": "0x76",
          "logIndex": "0xdf",
          "removed": false
        },
        {
          "address": "0x8aafd3ede9adb0ff97c7aebce82a919afb1c8764",
          "topics": [
            "0x4afcb4a87cdbd9974efdb92ee48bc8d7cd0ae4bf217004db3d080cbaee652ca7"
          ],
          "data": "0x000000000000000000000000000000000000000000000000000000006790261800000000000000000000000000000000000000000000000000052dfb9fb52f740000000000000000000000000000000000000000000000000de0b6b3a7640000",
          "blockHash": "0xd7faed4f14da56387951288fc7e72c0b47b11a95edf5bf3557c53ad92533b34d",
          "blockNumber": "0x7318c6",
          "transactionHash": "0x1edb54e9f9f5e1f6f436fa7977c2be94e72c2c7acd1f324bdc5319de257a400d",
          "transactionIndex": "0x76",
          "logIndex": "0xe0",
          "removed": false
        }
      ],
      "logsBloom": "0x00000000000000000000000000000000000000000600000000000000000000000000000000000000000000000000000000000000000000004000000000000000000000000000004000000008000000000000000000000000000000000000000000000000020000000000000000000800020000000000000000000010000000000000000000000000000000000000000000000000000000000000010000000000000000000000000000000000000000004000000000000000000000000000000000000002000000800000000000000000000000000000080000000000000020000000000000000000000000000000000000000000000000000000000000000000",
      "type": "0x2",
      "transactionHash": "0x1edb54e9f9f5e1f6f436fa7977c2be94e72c2c7acd1f324bdc5319de257a400d",
      "transactionIndex": "0x76",
      "blockHash": "0xd7faed4f14da56387951288fc7e72c0b47b11a95edf5bf3557c53ad92533b34d",
      "blockNumber": "0x7318c6",
      "gasUsed": "0xf844",
      "effectiveGasPrice": "0x466bbcba",
      "from": "0xc77f7fed3b5cc8249adc428c5f44c9063b9734b4",
      "to": "0x8aafd3ede9adb0ff97c7aebce82a919afb1c8764",
      "contractAddress": null
    }
  ],
  "libraries": [],
  "pending": [],
  "returns": {},
  "timestamp": 1737500186,
  "chain": 11155111,
  "commit": "1d2fb70"
}