{
  "transactions": [
    {
      "hash": "0xa535f1335ee1dc905b7d7e167ef2059121cdaa3271efcf723652a6afde2863c1",
      "transactionType": "CALL",
      "contractName": null,
      "contractAddress": "0x270e88f8683660553e8ba4eb2ad7c91a1710d769",
      "function": "buy(address)",
      "arguments": [
        "0xC77f7fed3b5Cc8249aDc428c5F44C9063B9734b4"
      ],
      "transaction": {
        "from": "0xc77f7fed3b5cc8249adc428c5f44c9063b9734b4",
        "to": "0x270e88f8683660553e8ba4eb2ad7c91a1710d769",
        "gas": "0x1b30c",
        "value": "0xde0b6b3a7640000",
        "input": "0xf088d547000000000000000000000000c77f7fed3b5cc8249adc428c5f44c9063b9734b4",
        "nonce": "0x6e9",
        "chainId": "0xaa36a7"
      },
      "additionalContracts": [],
      "isFixedGasLimit": false
    }
  ],
  "receipts": [
    {
      "status": "0x1",
      "cumulativeGasUsed": "0x152b2e6",
      "logs": [
        {
          "address": "0x270e88f8683660553e8ba4eb2ad7c91a1710d769",
          "topics": [
            "0xddf252ad1be2c89b69c2b068fc378daa952ba7f163c4a11628f55a4df523b3ef",
            "0x0000000000000000000000000000000000000000000000000000000000000000",
            "0x000000000000000000000000c77f7fed3b5cc8249adc428c5f44c9063b9734b4"
          ],
          "data": "0x000000000000000000000000000000000000000000000028634976c791ea609d",
          "blockHash": "0xcf99e5fc843ff7a68dbb58743587d2c5295207974ccf105efb7c2b51ce428676",
          "blockNumber": "0x7253fc",
          "transactionHash": "0xa535f1335ee1dc905b7d7e167ef2059121cdaa3271efcf723652a6afde2863c1",
          "transactionIndex": "0x53",
          "logIndex": "0x78",
          "removed": false
        },
        {
          "address": "0x270e88f8683660553e8ba4eb2ad7c91a1710d769",
          "topics": [
            "0xddf252ad1be2c89b69c2b068fc378daa952ba7f163c4a11628f55a4df523b3ef",
            "0x0000000000000000000000000000000000000000000000000000000000000000",
            "0x000000000000000000000000c77f7fed3b5cc8249adc428c5f44c9063b9734b4"
          ],
          "data": "0x0000000000000000000000000000000000000000000000001f5ccf1ad03a4484",
          "blockHash": "0xcf99e5fc843ff7a68dbb58743587d2c5295207974ccf105efb7c2b51ce428676",
          "blockNumber": "0x7253fc",
          "transactionHash": "0xa535f1335ee1dc905b7d7e167ef2059121cdaa3271efcf723652a6afde2863c1",
          "transactionIndex": "0x53",
          "logIndex": "0x79",
          "removed": false
        },
        {
          "address": "0x270e88f8683660553e8ba4eb2ad7c91a1710d769",
          "topics": [
            "0x4afcb4a87cdbd9974efdb92ee48bc8d7cd0ae4bf217004db3d080cbaee652ca7"
          ],
          "data": "0x000000000000000000000000000000000000000000000000000000006786e1d80000000000000000000000000000000000000000000000000004b8a7e6e7d8160000000000000000000000000000000000000000000000000de0b6b3a7640000",
          "blockHash": "0xcf99e5fc843ff7a68dbb58743587d2c5295207974ccf105efb7c2b51ce428676",
          "blockNumber": "0x7253fc",
          "transactionHash": "0xa535f1335ee1dc905b7d7e167ef2059121cdaa3271efcf723652a6afde2863c1",
          "transactionIndex": "0x53",
          "logIndex": "0x7a",
          "removed": false
        }
      ],
      "logsBloom": "0x00000000000000000000000000000000000000000000000000000000000000000000000000000000000000000000000020000000000000004000000000000000000000000000000000000008000000000000000000000000000000000000000000000000020000000000000000000800020000000000000000000010000000000000000000010000000000000000000000000000000000000000010000000000000000000000000000000000000000004000000000000000000000000000000000000002000000800000000000000000000000000000080000008000000020000000000000000000000000000000000000000000000000000000000000000000",
      "type": "0x2",
      "transactionHash": "0xa535f1335ee1dc905b7d7e167ef2059121cdaa3271efcf723652a6afde2863c1",
      "transactionIndex": "0x53",
      "blockHash": "0xcf99e5fc843ff7a68dbb58743587d2c5295207974ccf105efb7c2b51ce428676",
      "blockNumber": "0x7253fc",
      "gasUsed": "0x13af8",
      "effectiveGasPrice": "0x1566dc302",
      "from": "0xc77f7fed3b5cc8249adc428c5f44c9063b9734b4",
      "to": "0x270e88f8683660553e8ba4eb2ad7c91a1710d769",
      "contractAddress": null
    }
  ],
  "libraries": [],
  "pending": [],
  "returns": {},
  "timestamp": 1736892889,
  "chain": 11155111,
  "commit": "51a374b"
}