{
  "transactions": [
    {
      "hash": "0x00dad5b7a02e290a8c580f9718a112dd56c19fe858fbea7f96133be4e962420e",
      "transactionType": "CALL",
      "contractName": null,
      "contractAddress": "0xbf4a322f1496e5c3d34a9bcdb4c60567b38c7de2",
      "function": "sell(uint256)",
      "arguments": [
        "978511197894203194823"
      ],
      "transaction": {
        "from": "0xc77f7fed3b5cc8249adc428c5f44c9063b9734b4",
        "to": "0xbf4a322f1496e5c3d34a9bcdb4c60567b38c7de2",
        "gas": "0x16fea",
        "value": "0x0",
        "input": "0xe4849b320000000000000000000000000000000000000000000000350b921e1c39f0bdc7",
        "nonce": "0xc87",
        "chainId": "0xaa36a7"
      },
      "additionalContracts": [],
      "isFixedGasLimit": false
    }
  ],
  "receipts": [
    {
      "status": "0x1",
      "cumulativeGasUsed": "0xac237a",
      "logs": [
        {
          "address": "0xbf4a322f1496e5c3d34a9bcdb4c60567b38c7de2",
          "topics": [
            "0xddf252ad1be2c89b69c2b068fc378daa952ba7f163c4a11628f55a4df523b3ef",
            "0x000000000000000000000000c77f7fed3b5cc8249adc428c5f44c9063b9734b4",
            "0x0000000000000000000000000000000000000000000000000000000000000000"
          ],
          "data": "0x0000000000000000000000000000000000000000000000350b921e1c39f0bdc7",
          "blockHash": "0xaaf8e8054cf8c5ba4e998181109df271269a9c87ff19995d33e0da38eb096575",
          "blockNumber": "0x725cc9",
          "transactionHash": "0x00dad5b7a02e290a8c580f9718a112dd56c19fe858fbea7f96133be4e962420e",
          "transactionIndex": "0x42",
          "logIndex": "0xca",
          "removed": false
        },
        {
          "address": "0xbf4a322f1496e5c3d34a9bcdb4c60567b38c7de2",
          "topics": [
            "0x4afcb4a87cdbd9974efdb92ee48bc8d7cd0ae4bf217004db3d080cbaee652ca7"
          ],
          "data": "0x0000000000000000000000000000000000000000000000000000000067874be000000000000000000000000000000000000000000000000000039afd57c6c9da0000000000000000000000000000000000000000000000000dc7e3de9ad432c1",
          "blockHash": "0xaaf8e8054cf8c5ba4e998181109df271269a9c87ff19995d33e0da38eb096575",
          "blockNumber": "0x725cc9",
          "transactionHash": "0x00dad5b7a02e290a8c580f9718a112dd56c19fe858fbea7f96133be4e962420e",
          "transactionIndex": "0x42",
          "logIndex": "0xcb",
          "removed": false
        }
      ],
      "logsBloom": "0x00000000000000000000000000000000000000000000000000000000000000000000000000000000000000000000000000000000000000004000000000000000000000000000000000000008000000000000001000000000000000000000000000000000020000000000000000000800020000000000000000000010000000000000000000000000000000000000000000000000000008000000010000000000000000000000000000000000000000004000000000000000000000000000000000000002000000800000000000001000000000000000080000000000000020000000000000000000000000000000000000000000000000000000000000000000",
      "type": "0x2",
      "transactionHash": "0x00dad5b7a02e290a8c580f9718a112dd56c19fe858fbea7f96133be4e962420e",
      "transactionIndex": "0x42",
      "blockHash": "0xaaf8e8054cf8c5ba4e998181109df271269a9c87ff19995d33e0da38eb096575",
      "blockNumber": "0x725cc9",
      "gasUsed": "0xfb91",
      "effectiveGasPrice": "0x2938bb2d8",
      "from": "0xc77f7fed3b5cc8249adc428c5f44c9063b9734b4",
      "to": "0xbf4a322f1496e5c3d34a9bcdb4c60567b38c7de2",
      "contractAddress": null
    }
  ],
  "libraries": [],
  "pending": [],
  "returns": {},
  "timestamp": 1736920033,
  "chain": 11155111,
  "commit": "51a374b"
}