{
  "transactions": [
    {
      "hash": "0xb914174461921f7c3dd4cf2dc18da47cc396620992271fe9b1cabdcb6c0a6e4d",
      "transactionType": "CALL",
      "contractName": null,
      "contractAddress": "0xbf4a322f1496e5c3d34a9bcdb4c60567b38c7de2",
      "function": "sell(uint256)",
      "arguments": [
        "989940742982413316426"
      ],
      "transaction": {
        "from": "0xc77f7fed3b5cc8249adc428c5f44c9063b9734b4",
        "to": "0xbf4a322f1496e5c3d34a9bcdb4c60567b38c7de2",
        "gas": "0x16fea",
        "value": "0x0",
        "input": "0xe4849b32000000000000000000000000000000000000000000000035aa3004cfc903f14a",
        "nonce": "0x93b",
        "chainId": "0xaa36a7"
      },
      "additionalContracts": [],
      "isFixedGasLimit": false
    }
  ],
  "receipts": [
    {
      "status": "0x1",
      "cumulativeGasUsed": "0xd27434",
      "logs": [
        {
          "address": "0xbf4a322f1496e5c3d34a9bcdb4c60567b38c7de2",
          "topics": [
            "0xddf252ad1be2c89b69c2b068fc378daa952ba7f163c4a11628f55a4df523b3ef",
            "0x000000000000000000000000c77f7fed3b5cc8249adc428c5f44c9063b9734b4",
            "0x0000000000000000000000000000000000000000000000000000000000000000"
          ],
          "data": "0x000000000000000000000000000000000000000000000035aa3004cfc903f14a",
          "blockHash": "0xffbaf21bc7a94ee363d27af98d6d4f0b5fb521518499656c296a510e027e9759",
          "blockNumber": "0x7258c5",
          "transactionHash": "0xb914174461921f7c3dd4cf2dc18da47cc396620992271fe9b1cabdcb6c0a6e4d",
          "transactionIndex": "0x43",
          "logIndex": "0x64",
          "removed": false
        },
        {
          "address": "0xbf4a322f1496e5c3d34a9bcdb4c60567b38c7de2",
          "topics": [
            "0x4afcb4a87cdbd9974efdb92ee48bc8d7cd0ae4bf217004db3d080cbaee652ca7"
          ],
          "data": "0x0000000000000000000000000000000000000000000000000000000067871b68000000000000000000000000000000000000000000000000000390555750a8c50000000000000000000000000000000000000000000000000dc7e3f92db475cc",
          "blockHash": "0xffbaf21bc7a94ee363d27af98d6d4f0b5fb521518499656c296a510e027e9759",
          "blockNumber": "0x7258c5",
          "transactionHash": "0xb914174461921f7c3dd4cf2dc18da47cc396620992271fe9b1cabdcb6c0a6e4d",
          "transactionIndex": "0x43",
          "logIndex": "0x65",
          "removed": false
        }
      ],
      "logsBloom": "0x00000000000000000000000000000000000000000000000000000000000000000000000000000000000000000000000000000000000000004000000000000000000000000000000000000008000000000000001000000000000000000000000000000000020000000000000000000800020000000000000000000010000000000000000000000000000000000000000000000000000008000000010000000000000000000000000000000000000000004000000000000000000000000000000000000002000000800000000000001000000000000000080000000000000020000000000000000000000000000000000000000000000000000000000000000000",
      "type": "0x2",
      "transactionHash": "0xb914174461921f7c3dd4cf2dc18da47cc396620992271fe9b1cabdcb6c0a6e4d",
      "transactionIndex": "0x43",
      "blockHash": "0xffbaf21bc7a94ee363d27af98d6d4f0b5fb521518499656c296a510e027e9759",
      "blockNumber": "0x7258c5",
      "gasUsed": "0xfb91",
      "effectiveGasPrice": "0x55b7a932",
      "from": "0xc77f7fed3b5cc8249adc428c5f44c9063b9734b4",
      "to": "0xbf4a322f1496e5c3d34a9bcdb4c60567b38c7de2",
      "contractAddress": null
    }
  ],
  "libraries": [],
  "pending": [],
  "returns": {},
  "timestamp": 1736907625,
  "chain": 11155111,
  "commit": "51a374b"
}