{
  "transactions": [
    {
      "hash": "0x27699e6292e204949f9bf166a3e59955feb2c2acdfaa8485530257a46f776c43",
      "transactionType": "CALL",
      "contractName": null,
      "contractAddress": "0x5eb9cc76c3506942c1c0ead70e877dd5e4f00cb0",
      "function": "sell(uint256)",
      "arguments": [
        "989091075371421808861"
      ],
      "transaction": {
        "from": "0xc77f7fed3b5cc8249adc428c5f44c9063b9734b4",
        "to": "0x5eb9cc76c3506942c1c0ead70e877dd5e4f00cb0",
        "gas": "0x16fec",
        "value": "0x0",
        "input": "0xe4849b320000000000000000000000000000000000000000000000359e65649f06b638dd",
        "nonce": "0x439",
        "chainId": "0xaa36a7"
      },
      "additionalContracts": [],
      "isFixedGasLimit": false
    }
  ],
  "receipts": [
    {
      "status": "0x1",
      "cumulativeGasUsed": "0xe9ee37",
      "logs": [
        {
          "address": "0x5eb9cc76c3506942c1c0ead70e877dd5e4f00cb0",
          "topics": [
            "0xddf252ad1be2c89b69c2b068fc378daa952ba7f163c4a11628f55a4df523b3ef",
            "0x000000000000000000000000c77f7fed3b5cc8249adc428c5f44c9063b9734b4",
            "0x0000000000000000000000000000000000000000000000000000000000000000"
          ],
          "data": "0x0000000000000000000000000000000000000000000000359e65649f06b638dd",
          "blockHash": "0x8d5e6581b72bcc801ae881ebbd9f88963f2747c1196dc00b6dfc072696a7f7ba",
          "blockNumber": "0x725053",
          "transactionHash": "0x27699e6292e204949f9bf166a3e59955feb2c2acdfaa8485530257a46f776c43",
          "transactionIndex": "0x99",
          "logIndex": "0xcc",
          "removed": false
        },
        {
          "address": "0x5eb9cc76c3506942c1c0ead70e877dd5e4f00cb0",
          "topics": [
            "0x4afcb4a87cdbd9974efdb92ee48bc8d7cd0ae4bf217004db3d080cbaee652ca7"
          ],
          "data": "0x000000000000000000000000000000000000000000000000000000006786b5b00000000000000000000000000000000000000000000000000003911794caac5e0000000000000000000000000000000000000000000000000dc7db1331d7916d",
          "blockHash": "0x8d5e6581b72bcc801ae881ebbd9f88963f2747c1196dc00b6dfc072696a7f7ba",
          "blockNumber": "0x725053",
          "transactionHash": "0x27699e6292e204949f9bf166a3e59955feb2c2acdfaa8485530257a46f776c43",
          "transactionIndex": "0x99",
          "logIndex": "0xcd",
          "removed": false
        }
      ],
      "logsBloom": "0x00000000000000000000000000000000000000000000000000000000000000000000000000000000000000000000000000000000000000004000000000000000000000000000000000000008000000000000000000000000000000000000000000000000020000000000000004000800020000000000000000000010000000000000000000000000000000000000000000000000000000000000010000000000000000000000000000000000000000004000000000000000000000000000020000000002000000800000008000000000000000000000080000000000000020000000000000000000000000000000000000000000000000000000000000000000",
      "type": "0x2",
      "transactionHash": "0x27699e6292e204949f9bf166a3e59955feb2c2acdfaa8485530257a46f776c43",
      "transactionIndex": "0x99",
      "blockHash": "0x8d5e6581b72bcc801ae881ebbd9f88963f2747c1196dc00b6dfc072696a7f7ba",
      "blockNumber": "0x725053",
      "gasUsed": "0xfb93",
      "effectiveGasPrice": "0x25c9c4c34",
      "from": "0xc77f7fed3b5cc8249adc428c5f44c9063b9734b4",
      "to": "0x5eb9cc76c3506942c1c0ead70e877dd5e4f00cb0",
      "contractAddress": null
    }
  ],
  "libraries": [],
  "pending": [],
  "returns": {},
  "timestamp": 1736881586,
  "chain": 11155111,
  "commit": "51a374b"
}