{
  "transactions": [
    {
      "hash": "0xf5c36660b7f709f9fbdc0d1b3ce23cb72e1e145a2177f64f5f0852840d776804",
      "transactionType": "CALL",
      "contractName": null,
      "contractAddress": "0x8aafd3ede9adb0ff97c7aebce82a919afb1c8764",
      "function": "sell(uint256)",
      "arguments": [
        "1471220413891549035"
      ],
      "transaction": {
        "from": "0xc77f7fed3b5cc8249adc428c5f44c9063b9734b4",
        "to": "0x8aafd3ede9adb0ff97c7aebce82a919afb1c8764",
        "gas": "0x15dca",
        "value": "0x0",
        "input": "0xe4849b32000000000000000000000000000000000000000000000000146ad32bec4f176b",
        "nonce": "0x15bd",
        "chainId": "0xaa36a7"
      },
      "additionalContracts": [],
      "isFixedGasLimit": false
    }
  ],
  "receipts": [
    {
      "status": "0x1",
      "cumulativeGasUsed": "0x91283f",
      "logs": [
        {
          "address": "0x8aafd3ede9adb0ff97c7aebce82a919afb1c8764",
          "topics": [
            "0xddf252ad1be2c89b69c2b068fc378daa952ba7f163c4a11628f55a4df523b3ef",
            "0x000000000000000000000000c77f7fed3b5cc8249adc428c5f44c9063b9734b4",
            "0x0000000000000000000000000000000000000000000000000000000000000000"
          ],
          "data": "0x000000000000000000000000000000000000000000000000144102a25b0ef883",
          "blockHash": "0x00a0cfd012bc3e8af597feb1982ba98d4f9e8dda9c8aaea39e01ecbac0d47e7d",
          "blockNumber": "0x731d37",
          "transactionHash": "0xf5c36660b7f709f9fbdc0d1b3ce23cb72e1e145a2177f64f5f0852840d776804",
          "transactionIndex": "0x68",
          "logIndex": "0x97",
          "removed": false
        },
        {
          "address": "0x8aafd3ede9adb0ff97c7aebce82a919afb1c8764",
          "topics": [
            "0xddf252ad1be2c89b69c2b068fc378daa952ba7f163c4a11628f55a4df523b3ef",
            "0x000000000000000000000000c77f7fed3b5cc8249adc428c5f44c9063b9734b4",
            "0x000000000000000000000000c77f7fed3b5cc8249adc428c5f44c9063b9734b4"
          ],
          "data": "0x0000000000000000000000000000000000000000000000000029d08991401ee8",
          "blockHash": "0x00a0cfd012bc3e8af597feb1982ba98d4f9e8dda9c8aaea39e01ecbac0d47e7d",
          "blockNumber": "0x731d37",
          "transactionHash": "0xf5c36660b7f709f9fbdc0d1b3ce23cb72e1e145a2177f64f5f0852840d776804",
          "transactionIndex": "0x68",
          "logIndex": "0x98",
          "removed": false
        },
        {
          "address": "0x8aafd3ede9adb0ff97c7aebce82a919afb1c8764",
          "topics": [
            "0x4afcb4a87cdbd9974efdb92ee48bc8d7cd0ae4bf217004db3d080cbaee652ca7"
          ],
          "data": "0x0000000000000000000000000000000000000000000000000000000067905b7c000000000000000000000000000000000000000000000000001349a110de458d000000000000000000000000000000000000000000000000001c601af8d27c80",
          "blockHash": "0x00a0cfd012bc3e8af597feb1982ba98d4f9e8dda9c8aaea39e01ecbac0d47e7d",
          "blockNumber": "0x731d37",
          "transactionHash": "0xf5c36660b7f709f9fbdc0d1b3ce23cb72e1e145a2177f64f5f0852840d776804",
          "transactionIndex": "0x68",
          "logIndex": "0x99",
          "removed": false
        }
      ],
      "logsBloom": "0x00000000000000000000000000000000000000000600000000000000000000000000000000000000000000000000000000000000000000004000000000000000000000000000004000000008000000000000000000000000000000000000000000000000020000000000000000000800020000000000000000000010000000000000000000000000000000000000000000000000000000000000010000000000000000000000000000000000000000004000000000000000000000000000000000000002000000800000000000000000000000000000080000000000000020000000000000000000000000000000000000000000000000000000000000000000",
      "type": "0x2",
      "transactionHash": "0xf5c36660b7f709f9fbdc0d1b3ce23cb72e1e145a2177f64f5f0852840d776804",
      "transactionIndex": "0x68",
      "blockHash": "0x00a0cfd012bc3e8af597feb1982ba98d4f9e8dda9c8aaea39e01ecbac0d47e7d",
      "blockNumber": "0x731d37",
      "gasUsed": "0xfd3f",
      "effectiveGasPrice": "0x51386ef6",
      "from": "0xc77f7fed3b5cc8249adc428c5f44c9063b9734b4",
      "to": "0x8aafd3ede9adb0ff97c7aebce82a919afb1c8764",
      "contractAddress": null
    }
  ],
  "libraries": [],
  "pending": [],
  "returns": {},
  "timestamp": 1737513853,
  "chain": 11155111,
  "commit": "1d2fb70"
}