{
  "transactions": [
    {
      "hash": "0xd36a08b2bdfaad2300013795d80293c14013c47e1c4fea7dd278a62eca7917d5",
      "transactionType": "CALL",
      "contractName": null,
      "contractAddress": "0x5eb9cc76c3506942c1c0ead70e877dd5e4f00cb0",
      "function": "sell(uint256)",
      "arguments": [
        "989125177546310372750"
      ],
      "transaction": {
        "from": "0xc77f7fed3b5cc8249adc428c5f44c9063b9734b4",
        "to": "0x5eb9cc76c3506942c1c0ead70e877dd5e4f00cb0",
        "gas": "0x16fec",
        "value": "0x0",
        "input": "0xe4849b320000000000000000000000000000000000000000000000359ede8c5e5b034d8e",
        "nonce": "0x363",
        "chainId": "0xaa36a7"
      },
      "additionalContracts": [],
      "isFixedGasLimit": false
    }
  ],
  "receipts": [
    {
      "status": "0x1",
      "cumulativeGasUsed": "0x142fa52",
      "logs": [
        {
          "address": "0x5eb9cc76c3506942c1c0ead70e877dd5e4f00cb0",
          "topics": [
            "0xddf252ad1be2c89b69c2b068fc378daa952ba7f163c4a11628f55a4df523b3ef",
            "0x000000000000000000000000c77f7fed3b5cc8249adc428c5f44c9063b9734b4",
            "0x0000000000000000000000000000000000000000000000000000000000000000"
          ],
          "data": "0x0000000000000000000000000000000000000000000000359ede8c5e5b034d8e",
          "blockHash": "0xe8fbed2598c0b2098fc9a691afee955cef33885c6e08e26526a72fdfd274fa6b",
          "blockNumber": "0x724f59",
          "transactionHash": "0xd36a08b2bdfaad2300013795d80293c14013c47e1c4fea7dd278a62eca7917d5",
          "transactionIndex": "0x76",
          "logIndex": "0xb4",
          "removed": false
        },
        {
          "address": "0x5eb9cc76c3506942c1c0ead70e877dd5e4f00cb0",
          "topics": [
            "0x4afcb4a87cdbd9974efdb92ee48bc8d7cd0ae4bf217004db3d080cbaee652ca7"
          ],
          "data": "0x000000000000000000000000000000000000000000000000000000006786a9e00000000000000000000000000000000000000000000000000003910f85ab15b50000000000000000000000000000000000000000000000000dc7db1332143f9a",
          "blockHash": "0xe8fbed2598c0b2098fc9a691afee955cef33885c6e08e26526a72fdfd274fa6b",
          "blockNumber": "0x724f59",
          "transactionHash": "0xd36a08b2bdfaad2300013795d80293c14013c47e1c4fea7dd278a62eca7917d5",
          "transactionIndex": "0x76",
          "logIndex": "0xb5",
          "removed": false
        }
      ],
      "logsBloom": "0x00000000000000000000000000000000000000000000000000000000000000000000000000000000000000000000000000000000000000004000000000000000000000000000000000000008000000000000000000000000000000000000000000000000020000000000000004000800020000000000000000000010000000000000000000000000000000000000000000000000000000000000010000000000000000000000000000000000000000004000000000000000000000000000020000000002000000800000008000000000000000000000080000000000000020000000000000000000000000000000000000000000000000000000000000000000",
      "type": "0x2",
      "transactionHash": "0xd36a08b2bdfaad2300013795d80293c14013c47e1c4fea7dd278a62eca7917d5",
      "transactionIndex": "0x76",
      "blockHash": "0xe8fbed2598c0b2098fc9a691afee955cef33885c6e08e26526a72fdfd274fa6b",
      "blockNumber": "0x724f59",
      "gasUsed": "0xfb93",
      "effectiveGasPrice": "0x569299119",
      "from": "0xc77f7fed3b5cc8249adc428c5f44c9063b9734b4",
      "to": "0x5eb9cc76c3506942c1c0ead70e877dd5e4f00cb0",
      "contractAddress": null
    }
  ],
  "libraries": [],
  "pending": [],
  "returns": {},
  "timestamp": 1736878562,
  "chain": 11155111,
  "commit": "51a374b"
}