{
  "transactions": [
    {
      "hash": "0xeee2e90c343c16af92f0ebed58aa4fb90d9fe6c4e33b4261c59f78aa02eb7e18",
      "transactionType": "CALL",
      "contractName": null,
      "contractAddress": "0x8aafd3ede9adb0ff97c7aebce82a919afb1c8764",
      "function": "sell(uint256)",
      "arguments": [
        "12812722697353242"
      ],
      "transaction": {
        "from": "0xc77f7fed3b5cc8249adc428c5f44c9063b9734b4",
        "to": "0x8aafd3ede9adb0ff97c7aebce82a919afb1c8764",
        "gas": "0x1724d",
        "value": "0x0",
        "input": "0xe4849b32000000000000000000000000000000000000000000000000002d851a78fb381a",
        "nonce": "0x1537",
        "chainId": "0xaa36a7"
      },
      "additionalContracts": [],
      "isFixedGasLimit": false
    }
  ],
  "receipts": [
    {
      "status": "0x1",
      "cumulativeGasUsed": "0xf9136d",
      "logs": [
        {
          "address": "0x8aafd3ede9adb0ff97c7aebce82a919afb1c8764",
          "topics": [
            "0xddf252ad1be2c89b69c2b068fc378daa952ba7f163c4a11628f55a4df523b3ef",
            "0x000000000000000000000000c77f7fed3b5cc8249adc428c5f44c9063b9734b4",
            "0x0000000000000000000000000000000000000000000000000000000000000000"
          ],
          "data": "0x000000000000000000000000000000000000000000000000002d27e0eab393d1",
          "blockHash": "0xd308fdcfad4e7b05ca6ff1f94e9623dab171fdbcf357e3ab377b9e6543b62bca",
          "blockNumber": "0x731c9b",
          "transactionHash": "0xeee2e90c343c16af92f0ebed58aa4fb90d9fe6c4e33b4261c59f78aa02eb7e18",
          "transactionIndex": "0x7a",
          "logIndex": "0xae",
          "removed": false
        },
        {
          "address": "0x8aafd3ede9adb0ff97c7aebce82a919afb1c8764",
          "topics": [
            "0xddf252ad1be2c89b69c2b068fc378daa952ba7f163c4a11628f55a4df523b3ef",
            "0x000000000000000000000000c77f7fed3b5cc8249adc428c5f44c9063b9734b4",
            "0x000000000000000000000000c77f7fed3b5cc8249adc428c5f44c9063b9734b4"
          ],
          "data": "0x00000000000000000000000000000000000000000000000000005d398e47a449",
          "blockHash": "0xd308fdcfad4e7b05ca6ff1f94e9623dab171fdbcf357e3ab377b9e6543b62bca",
          "blockNumber": "0x731c9b",
          "transactionHash": "0xeee2e90c343c16af92f0ebed58aa4fb90d9fe6c4e33b4261c59f78aa02eb7e18",
          "transactionIndex": "0x7a",
          "logIndex": "0xaf",
          "removed": false
        },
        {
          "address": "0x8aafd3ede9adb0ff97c7aebce82a919afb1c8764",
          "topics": [
            "0x4afcb4a87cdbd9974efdb92ee48bc8d7cd0ae4bf217004db3d080cbaee652ca7"
          ],
          "data": "0x00000000000000000000000000000000000000000000000000000000679054200000000000000000000000000000000000000000000000000011b9c4557fb35900000000000000000000000000000000000000000000000000003a2421498076",
          "blockHash": "0xd308fdcfad4e7b05ca6ff1f94e9623dab171fdbcf357e3ab377b9e6543b62bca",
          "blockNumber": "0x731c9b",
          "transactionHash": "0xeee2e90c343c16af92f0ebed58aa4fb90d9fe6c4e33b4261c59f78aa02eb7e18",
          "transactionIndex": "0x7a",
          "logIndex": "0xb0",
          "removed": false
        }
      ],
      "logsBloom": "0x00000000000000000000000000000000000000000600000000000000000000000000000000000000000000000000000000000000000000004000000000000000000000000000004000000008000000000000000000000000000000000000000000000000020000000000000000000800020000000000000000000010000000000000000000000000000000000000000000000000000000000000010000000000000000000000000000000000000000004000000000000000000000000000000000000002000000800000000000000000000000000000080000000000000020000000000000000000000000000000000000000000000000000000000000000000",
      "type": "0x2",
      "transactionHash": "0xeee2e90c343c16af92f0ebed58aa4fb90d9fe6c4e33b4261c59f78aa02eb7e18",
      "transactionIndex": "0x7a",
      "blockHash": "0xd308fdcfad4e7b05ca6ff1f94e9623dab171fdbcf357e3ab377b9e6543b62bca",
      "blockNumber": "0x731c9b",
      "gasUsed": "0xfd33",
      "effectiveGasPrice": "0xf3cec316",
      "from": "0xc77f7fed3b5cc8249adc428c5f44c9063b9734b4",
      "to": "0x8aafd3ede9adb0ff97c7aebce82a919afb1c8764",
      "contractAddress": null
    }
  ],
  "libraries": [],
  "pending": [],
  "returns": {},
  "timestamp": 1737511970,
  "chain": 11155111,
  "commit": "1d2fb70"
}