{
  "transactions": [
    {
      "hash": "0xf81f43c031b1db0bc70248d9fdf386e753ad10812c10801cfd62c28347531ecc",
      "transactionType": "CALL",
      "contractName": null,
      "contractAddress": "0x5eb9cc76c3506942c1c0ead70e877dd5e4f00cb0",
      "function": "buy(address)",
      "arguments": [
        "0xC77f7fed3b5Cc8249aDc428c5F44C9063B9734b4"
      ],
      "transaction": {
        "from": "0xc77f7fed3b5cc8249adc428c5f44c9063b9734b4",
        "to": "0x5eb9cc76c3506942c1c0ead70e877dd5e4f00cb0",
        "gas": "0x156c8",
        "value": "0xde0b6b3a7640000",
        "input": "0xf088d547000000000000000000000000c77f7fed3b5cc8249adc428c5f44c9063b9734b4",
        "nonce": "0x129",
        "chainId": "0xaa36a7"
      },
      "additionalContracts": [],
      "isFixedGasLimit": false
    }
  ],
  "receipts": [
    {
      "status": "0x1",
      "cumulativeGasUsed": "0x799d87",
      "logs": [
        {
          "address": "0x5eb9cc76c3506942c1c0ead70e877dd5e4f00cb0",
          "topics": [
            "0xddf252ad1be2c89b69c2b068fc378daa952ba7f163c4a11628f55a4df523b3ef",
            "0x0000000000000000000000000000000000000000000000000000000000000000",
            "0x000000000000000000000000c77f7fed3b5cc8249adc428c5f44c9063b9734b4"
          ],
          "data": "0x000000000000000000000000000000000000000000000035ab021a67c922e164",
          "blockHash": "0x25c6bc35640452da10e66cf49c70deec7038acc91c25a340148efb2b3747ed20",
          "blockNumber": "0x723b06",
          "transactionHash": "0xf81f43c031b1db0bc70248d9fdf386e753ad10812c10801cfd62c28347531ecc",
          "transactionIndex": "0x3a",
          "logIndex": "0x4c",
          "removed": false
        },
        {
          "address": "0x5eb9cc76c3506942c1c0ead70e877dd5e4f00cb0",
          "topics": [
            "0xddf252ad1be2c89b69c2b068fc378daa952ba7f163c4a11628f55a4df523b3ef",
            "0x0000000000000000000000000000000000000000000000000000000000000000",
            "0x000000000000000000000000c77f7fed3b5cc8249adc428c5f44c9063b9734b4"
          ],
          "data": "0x00000000000000000000000000000000000000000000000029accefad71ab7b6",
          "blockHash": "0x25c6bc35640452da10e66cf49c70deec7038acc91c25a340148efb2b3747ed20",
          "blockNumber": "0x723b06",
          "transactionHash": "0xf81f43c031b1db0bc70248d9fdf386e753ad10812c10801cfd62c28347531ecc",
          "transactionIndex": "0x3a",
          "logIndex": "0x4d",
          "removed": false
        },
        {
          "address": "0x5eb9cc76c3506942c1c0ead70e877dd5e4f00cb0",
          "topics": [
            "0x4afcb4a87cdbd9974efdb92ee48bc8d7cd0ae4bf217004db3d080cbaee652ca7"
          ],
          "data": "0x000000000000000000000000000000000000000000000000000000006785b59c00000000000000000000000000000000000000000000000000038d7eb329d2d20000000000000000000000000000000000000000000000000de0b6b3a7640000",
          "blockHash": "0x25c6bc35640452da10e66cf49c70deec7038acc91c25a340148efb2b3747ed20",
          "blockNumber": "0x723b06",
          "transactionHash": "0xf81f43c031b1db0bc70248d9fdf386e753ad10812c10801cfd62c28347531ecc",
          "transactionIndex": "0x3a",
          "logIndex": "0x4e",
          "removed": false
        }
      ],
      "logsBloom": "0x00000000000000000000000000000000000000000000000000000000000000000000000000000000000000000000000000000000000000004000000000000000000000000000000000000008000000000000000000000000000000000000000000000000020000000000000004000800020000000000000000000010000000000000000000000000000000000000000000000000000000000000010000000000000000000000000000000000000000004000000000000000000000000000020000000002000000800000008000000000000000000000080000000000000020000000000000000000000000000000000000000000000000000000000000000000",
      "type": "0x2",
      "transactionHash": "0xf81f43c031b1db0bc70248d9fdf386e753ad10812c10801cfd62c28347531ecc",
      "transactionIndex": "0x3a",
      "blockHash": "0x25c6bc35640452da10e66cf49c70deec7038acc91c25a340148efb2b3747ed20",
      "blockNumber": "0x723b06",
      "gasUsed": "0xf82c",
      "effectiveGasPrice": "0x22c5b451a",
      "from": "0xc77f7fed3b5cc8249adc428c5f44c9063b9734b4",
      "to": "0x5eb9cc76c3506942c1c0ead70e877dd5e4f00cb0",
      "contractAddress": null
    }
  ],
  "libraries": [],
  "pending": [],
  "returns": {},
  "timestamp": 1736816028,
  "chain": 11155111,
  "commit": "51a374b"
}