{
  "transactions": [
    {
      "hash": "0xd8156d9ebc50284481e866978bcc582223a7217c60f37da0b70a76bb6156eb28",
      "transactionType": "CALL",
      "contractName": null,
      "contractAddress": "0x8aafd3ede9adb0ff97c7aebce82a919afb1c8764",
      "function": "sell(uint256)",
      "arguments": [
        "160289621216086517669"
      ],
      "transaction": {
        "from": "0xc77f7fed3b5cc8249adc428c5f44c9063b9734b4",
        "to": "0x8aafd3ede9adb0ff97c7aebce82a919afb1c8764",
        "gas": "0x17270",
        "value": "0x0",
        "input": "0xe4849b32000000000000000000000000000000000000000000000008b077213ec6c0e7a5",
        "nonce": "0x16af",
        "chainId": "0xaa36a7"
      },
      "additionalContracts": [],
      "isFixedGasLimit": false
    }
  ],
  "receipts": [
    {
      "status": "0x1",
      "cumulativeGasUsed": "0xdd7615",
      "logs": [
        {
          "address": "0x8aafd3ede9adb0ff97c7aebce82a919afb1c8764",
          "topics": [
            "0xddf252ad1be2c89b69c2b068fc378daa952ba7f163c4a11628f55a4df523b3ef",
            "0x000000000000000000000000c77f7fed3b5cc8249adc428c5f44c9063b9734b4",
            "0x0000000000000000000000000000000000000000000000000000000000000000"
          ],
          "data": "0x0000000000000000000000000000000000000000000000089eab6cc1589e97f8",
          "blockHash": "0x72fa40772a689a608f572a90b6d7d973b733ecb41e191e55db36ef1f30787009",
          "blockNumber": "0x731e68",
          "transactionHash": "0xd8156d9ebc50284481e866978bcc582223a7217c60f37da0b70a76bb6156eb28",
          "transactionIndex": "0x74",
          "logIndex": "0x9e",
          "removed": false
        },
        {
          "address": "0x8aafd3ede9adb0ff97c7aebce82a919afb1c8764",
          "topics": [
            "0xddf252ad1be2c89b69c2b068fc378daa952ba7f163c4a11628f55a4df523b3ef",
            "0x000000000000000000000000c77f7fed3b5cc8249adc428c5f44c9063b9734b4",
            "0x000000000000000000000000c77f7fed3b5cc8249adc428c5f44c9063b9734b4"
          ],
          "data": "0x00000000000000000000000000000000000000000000000011cbb47d6e224fad",
          "blockHash": "0x72fa40772a689a608f572a90b6d7d973b733ecb41e191e55db36ef1f30787009",
          "blockNumber": "0x731e68",
          "transactionHash": "0xd8156d9ebc50284481e866978bcc582223a7217c60f37da0b70a76bb6156eb28",
          "transactionIndex": "0x74",
          "logIndex": "0x9f",
          "removed": false
        },
        {
          "address": "0x8aafd3ede9adb0ff97c7aebce82a919afb1c8764",
          "topics": [
            "0x4afcb4a87cdbd9974efdb92ee48bc8d7cd0ae4bf217004db3d080cbaee652ca7"
          ],
          "data": "0x00000000000000000000000000000000000000000000000000000000679069c800000000000000000000000000000000000000000000000000161d168f4e23f80000000000000000000000000000000000000000000000000dcc219692f39df9",
          "blockHash": "0x72fa40772a689a608f572a90b6d7d973b733ecb41e191e55db36ef1f30787009",
          "blockNumber": "0x731e68",
          "transactionHash": "0xd8156d9ebc50284481e866978bcc582223a7217c60f37da0b70a76bb6156eb28",
          "transactionIndex": "0x74",
          "logIndex": "0xa0",
          "removed": false
        }
      ],
      "logsBloom": "0x00000000000000000000000000000000000000000600000000000000000000000000000000000000000000000000000000000000000000004000000000000000000000000000004000000008000000000000000000000000000000000000000000000000020000000000000000000800020000000000000000000010000000000000000000000000000000000000000000000000000000000000010000000000000000000000000000000000000000004000000000000000000000000000000000000002000000800000000000000000000000000000080000000000000020000000000000000000000000000000000000000000000000000000000000000000",
      "type": "0x2",
      "transactionHash": "0xd8156d9ebc50284481e866978bcc582223a7217c60f37da0b70a76bb6156eb28",
      "transactionIndex": "0x74",
      "blockHash": "0x72fa40772a689a608f572a90b6d7d973b733ecb41e191e55db36ef1f30787009",
      "blockNumber": "0x731e68",
      "gasUsed": "0xfd4b",
      "effectiveGasPrice": "0x54542eb3",
      "from": "0xc77f7fed3b5cc8249adc428c5f44c9063b9734b4",
      "to": "0x8aafd3ede9adb0ff97c7aebce82a919afb1c8764",
      "contractAddress": null
    }
  ],
  "libraries": [],
  "pending": [],
  "returns": {},
  "timestamp": 1737517513,
  "chain": 11155111,
  "commit": "1d2fb70"
}