{
  "transactions": [
    {
      "hash": "0x70d95ea1921e0dd802fc364b1df6e3aab82cc0ebf22d41e75f1c2615108b3d1d",
      "transactionType": "CALL",
      "contractName": null,
      "contractAddress": "0x5eb9cc76c3506942c1c0ead70e877dd5e4f00cb0",
      "function": "sell(uint256)",
      "arguments": [
        "989116890820245656811"
      ],
      "transaction": {
        "from": "0xc77f7fed3b5cc8249adc428c5f44c9063b9734b4",
        "to": "0x5eb9cc76c3506942c1c0ead70e877dd5e4f00cb0",
        "gas": "0x16fec",
        "value": "0x0",
        "input": "0xe4849b320000000000000000000000000000000000000000000000359ec11ba2979314eb",
        "nonce": "0x397",
        "chainId": "0xaa36a7"
      },
      "additionalContracts": [],
      "isFixedGasLimit": false
    }
  ],
  "receipts": [
    {
      "status": "0x1",
      "cumulativeGasUsed": "0xa24e63",
      "logs": [
        {
          "address": "0x5eb9cc76c3506942c1c0ead70e877dd5e4f00cb0",
          "topics": [
            "0xddf252ad1be2c89b69c2b068fc378daa952ba7f163c4a11628f55a4df523b3ef",
            "0x000000000000000000000000c77f7fed3b5cc8249adc428c5f44c9063b9734b4",
            "0x0000000000000000000000000000000000000000000000000000000000000000"
          ],
          "data": "0x0000000000000000000000000000000000000000000000359ec11ba2979314eb",
          "blockHash": "0x5d25537ff71fcd63a3e64f490f8fc094e27ae721e1e1c873859b9e2b9e1ce393",
          "blockNumber": "0x724f93",
          "transactionHash": "0x70d95ea1921e0dd802fc364b1df6e3aab82cc0ebf22d41e75f1c2615108b3d1d",
          "transactionIndex": "0x47",
          "logIndex": "0x6b",
          "removed": false
        },
        {
          "address": "0x5eb9cc76c3506942c1c0ead70e877dd5e4f00cb0",
          "topics": [
            "0x4afcb4a87cdbd9974efdb92ee48bc8d7cd0ae4bf217004db3d080cbaee652ca7"
          ],
          "data": "0x000000000000000000000000000000000000000000000000000000006786ac98000000000000000000000000000000000000000000000000000391117afcedc00000000000000000000000000000000000000000000000000dc7db13320580d8",
          "blockHash": "0x5d25537ff71fcd63a3e64f490f8fc094e27ae721e1e1c873859b9e2b9e1ce393",
          "blockNumber": "0x724f93",
          "transactionHash": "0x70d95ea1921e0dd802fc364b1df6e3aab82cc0ebf22d41e75f1c2615108b3d1d",
          "transactionIndex": "0x47",
          "logIndex": "0x6c",
          "removed": false
        }
      ],
      "logsBloom": "0x00000000000000000000000000000000000000000000000000000000000000000000000000000000000000000000000000000000000000004000000000000000000000000000000000000008000000000000000000000000000000000000000000000000020000000000000004000800020000000000000000000010000000000000000000000000000000000000000000000000000000000000010000000000000000000000000000000000000000004000000000000000000000000000020000000002000000800000008000000000000000000000080000000000000020000000000000000000000000000000000000000000000000000000000000000000",
      "type": "0x2",
      "transactionHash": "0x70d95ea1921e0dd802fc364b1df6e3aab82cc0ebf22d41e75f1c2615108b3d1d",
      "transactionIndex": "0x47",
      "blockHash": "0x5d25537ff71fcd63a3e64f490f8fc094e27ae721e1e1c873859b9e2b9e1ce393",
      "blockNumber": "0x724f93",
      "gasUsed": "0xfb93",
      "effectiveGasPrice": "0x5593b8321",
      "from": "0xc77f7fed3b5cc8249adc428c5f44c9063b9734b4",
      "to": "0x5eb9cc76c3506942c1c0ead70e877dd5e4f00cb0",
      "contractAddress": null
    }
  ],
  "libraries": [],
  "pending": [],
  "returns": {},
  "timestamp": 1736879257,
  "chain": 11155111,
  "commit": "51a374b"
}