{
  "transactions": [
    {
      "hash": "0x9d1c0dac425b21211318e892c2c005443e244aa8b3c8f30f0dbf6099bc3dd2b0",
      "transactionType": "CALL",
      "contractName": null,
      "contractAddress": "0x5eb9cc76c3506942c1c0ead70e877dd5e4f00cb0",
      "function": "buy(address)",
      "arguments": [
        "0xC77f7fed3b5Cc8249aDc428c5F44C9063B9734b4"
      ],
      "transaction": {
        "from": "0xc77f7fed3b5cc8249adc428c5f44c9063b9734b4",
        "to": "0x5eb9cc76c3506942c1c0ead70e877dd5e4f00cb0",
        "gas": "0x1b30c",
        "value": "0xde0b6b3a7640000",
        "input": "0xf088d547000000000000000000000000c77f7fed3b5cc8249adc428c5f44c9063b9734b4",
        "nonce": "0x3de",
        "chainId": "0xaa36a7"
      },
      "additionalContracts": [],
      "isFixedGasLimit": false
    }
  ],
  "receipts": [
    {
      "status": "0x1",
      "cumulativeGasUsed": "0xde2a25",
      "logs": [
        {
          "address": "0x5eb9cc76c3506942c1c0ead70e877dd5e4f00cb0",
          "topics": [
            "0xddf252ad1be2c89b69c2b068fc378daa952ba7f163c4a11628f55a4df523b3ef",
            "0x0000000000000000000000000000000000000000000000000000000000000000",
            "0x000000000000000000000000c77f7fed3b5cc8249adc428c5f44c9063b9734b4"
          ],
          "data": "0x00000000000000000000000000000000000000000000003575156933779b78a7",
          "blockHash": "0xdbf69e67a1432cd93556ea048a09971df219c140c717ae7e8c76b7ecaae6ae97",
          "blockNumber": "0x724fe4",
          "transactionHash": "0x9d1c0dac425b21211318e892c2c005443e244aa8b3c8f30f0dbf6099bc3dd2b0",
          "transactionIndex": "0x63",
          "logIndex": "0xb5",
          "removed": false
        },
        {
          "address": "0x5eb9cc76c3506942c1c0ead70e877dd5e4f00cb0",
          "topics": [
            "0xddf252ad1be2c89b69c2b068fc378daa952ba7f163c4a11628f55a4df523b3ef",
            "0x0000000000000000000000000000000000000000000000000000000000000000",
            "0x000000000000000000000000c77f7fed3b5cc8249adc428c5f44c9063b9734b4"
          ],
          "data": "0x0000000000000000000000000000000000000000000000002982ef2a5c59ddbf",
          "blockHash": "0xdbf69e67a1432cd93556ea048a09971df219c140c717ae7e8c76b7ecaae6ae97",
          "blockNumber": "0x724fe4",
          "transactionHash": "0x9d1c0dac425b21211318e892c2c005443e244aa8b3c8f30f0dbf6099bc3dd2b0",
          "transactionIndex": "0x63",
          "logIndex": "0xb6",
          "removed": false
        },
        {
          "address": "0x5eb9cc76c3506942c1c0ead70e877dd5e4f00cb0",
          "topics": [
            "0x4afcb4a87cdbd9974efdb92ee48bc8d7cd0ae4bf217004db3d080cbaee652ca7"
          ],
          "data": "0x000000000000000000000000000000000000000000000000000000006786b07c0000000000000000000000000000000000000000000000000003911424cacf5a0000000000000000000000000000000000000000000000000de0b6b3a7640000",
          "blockHash": "0xdbf69e67a1432cd93556ea048a09971df219c140c717ae7e8c76b7ecaae6ae97",
          "blockNumber": "0x724fe4",
          "transactionHash": "0x9d1c0dac425b21211318e892c2c005443e244aa8b3c8f30f0dbf6099bc3dd2b0",
          "transactionIndex": "0x63",
          "logIndex": "0xb7",
          "removed": false
        }
      ],
      "logsBloom": "0x00000000000000000000000000000000000000000000000000000000000000000000000000000000000000000000000000000000000000004000000000000000000000000000000000000008000000000000000000000000000000000000000000000000020000000000000004000800020000000000000000000010000000000000000000000000000000000000000000000000000000000000010000000000000000000000000000000000000000004000000000000000000000000000020000000002000000800000008000000000000000000000080000000000000020000000000000000000000000000000000000000000000000000000000000000000",
      "type": "0x2",
      "transactionHash": "0x9d1c0dac425b21211318e892c2c005443e244aa8b3c8f30f0dbf6099bc3dd2b0",
      "transactionIndex": "0x63",
      "blockHash": "0xdbf69e67a1432cd93556ea048a09971df219c140c717ae7e8c76b7ecaae6ae97",
      "blockNumber": "0x724fe4",
      "gasUsed": "0x13af8",
      "effectiveGasPrice": "0x3b35b7a87",
      "from": "0xc77f7fed3b5cc8249adc428c5f44c9063b9734b4",
      "to": "0x5eb9cc76c3506942c1c0ead70e877dd5e4f00cb0",
      "contractAddress": null
    }
  ],
  "libraries": [],
  "pending": [],
  "returns": {},
  "timestamp": 1736880254,
  "chain": 11155111,
  "commit": "51a374b"
}