{
  "transactions": [
    {
      "hash": "0x5a6c07ee2a3f834527d16b3139ab66c1a379df9f9c7e5f16827e042081dba75d",
      "transactionType": "CALL",
      "contractName": null,
      "contractAddress": "0xbf4a322f1496e5c3d34a9bcdb4c60567b38c7de2",
      "function": "sell(uint256)",
      "arguments": [
        "976507438402380689156"
      ],
      "transaction": {
        "from": "0xc77f7fed3b5cc8249adc428c5f44c9063b9734b4",
        "to": "0xbf4a322f1496e5c3d34a9bcdb4c60567b38c7de2",
        "gas": "0x16fea",
        "value": "0x0",
        "input": "0xe4849b32000000000000000000000000000000000000000000000034efc35578048aef04",
        "nonce": "0xd1d",
        "chainId": "0xaa36a7"
      },
      "additionalContracts": [],
      "isFixedGasLimit": false
    }
  ],
  "receipts": [
    {
      "status": "0x1",
      "cumulativeGasUsed": "0xcfcd91",
      "logs": [
        {
          "address": "0xbf4a322f1496e5c3d34a9bcdb4c60567b38c7de2",
          "topics": [
            "0xddf252ad1be2c89b69c2b068fc378daa952ba7f163c4a11628f55a4df523b3ef",
            "0x000000000000000000000000c77f7fed3b5cc8249adc428c5f44c9063b9734b4",
            "0x0000000000000000000000000000000000000000000000000000000000000000"
          ],
          "data": "0x000000000000000000000000000000000000000000000034efc35578048aef04",
          "blockHash": "0x498e8d766fef30f073eb8c244729779603477e91dd8f03d21e6009ce5e8fcf2c",
          "blockNumber": "0x725d7b",
          "transactionHash": "0x5a6c07ee2a3f834527d16b3139ab66c1a379df9f9c7e5f16827e042081dba75d",
          "transactionIndex": "0x72",
          "logIndex": "0xc6",
          "removed": false
        },
        {
          "address": "0xbf4a322f1496e5c3d34a9bcdb4c60567b38c7de2",
          "topics": [
            "0x4afcb4a87cdbd9974efdb92ee48bc8d7cd0ae4bf217004db3d080cbaee652ca7"
          ],
          "data": "0x000000000000000000000000000000000000000000000000000000006787543800000000000000000000000000000000000000000000000000039ce22dd1039e0000000000000000000000000000000000000000000000000dc7e3d9f22a9d3e",
          "blockHash": "0x498e8d766fef30f073eb8c244729779603477e91dd8f03d21e6009ce5e8fcf2c",
          "blockNumber": "0x725d7b",
          "transactionHash": "0x5a6c07ee2a3f834527d16b3139ab66c1a379df9f9c7e5f16827e042081dba75d",
          "transactionIndex": "0x72",
          "logIndex": "0xc7",
          "removed": false
        }
      ],
      "logsBloom": "0x00000000000000000000000000000000000000000000000000000000000000000000000000000000000000000000000000000000000000004000000000000000000000000000000000000008000000000000001000000000000000000000000000000000020000000000000000000800020000000000000000000010000000000000000000000000000000000000000000000000000008000000010000000000000000000000000000000000000000004000000000000000000000000000000000000002000000800000000000001000000000000000080000000000000020000000000000000000000000000000000000000000000000000000000000000000",
      "type": "0x2",
      "transactionHash": "0x5a6c07ee2a3f834527d16b3139ab66c1a379df9f9c7e5f16827e042081dba75d",
      "transactionIndex": "0x72",
      "blockHash": "0x498e8d766fef30f073eb8c244729779603477e91dd8f03d21e6009ce5e8fcf2c",
      "blockNumber": "0x725d7b",
      "gasUsed": "0xfb91",
      "effectiveGasPrice": "0x231f82023",
      "from": "0xc77f7fed3b5cc8249adc428c5f44c9063b9734b4",
      "to": "0xbf4a322f1496e5c3d34a9bcdb4c60567b38c7de2",
      "contractAddress": null
    }
  ],
  "libraries": [],
  "pending": [],
  "returns": {},
  "timestamp": 1736922168,
  "chain": 11155111,
  "commit": "51a374b"
}