{
  "transactions": [
    {
      "hash": "0x1cce190827271ebb374adaa716145f382f549ead7c93568197630bd131999f4d",
      "transactionType": "CALL",
      "contractName": null,
      "contractAddress": "0x8aafd3ede9adb0ff97c7aebce82a919afb1c8764",
      "function": "sell(uint256)",
      "arguments": [
        "679208791385"
      ],
      "transaction": {
        "from": "0xc77f7fed3b5cc8249adc428c5f44c9063b9734b4",
        "to": "0x8aafd3ede9adb0ff97c7aebce82a919afb1c8764",
        "gas": "0x1722a",
        "value": "0x0",
        "input": "0xe4849b320000000000000000000000000000000000000000000000000000009e23ffad59",
        "nonce": "0x1674",
        "chainId": "0xaa36a7"
      },
      "additionalContracts": [],
      "isFixedGasLimit": false
    }
  ],
  "receipts": [
    {
      "status": "0x1",
      "cumulativeGasUsed": "0x1cca17d",
      "logs": [
        {
          "address": "0x8aafd3ede9adb0ff97c7aebce82a919afb1c8764",
          "topics": [
            "0xddf252ad1be2c89b69c2b068fc378daa952ba7f163c4a11628f55a4df523b3ef",
            "0x000000000000000000000000c77f7fed3b5cc8249adc428c5f44c9063b9734b4",
            "0x0000000000000000000000000000000000000000000000000000000000000000"
          ],
          "data": "0x0000000000000000000000000000000000000000000000000000009ce020729e",
          "blockHash": "0x8ac937f51d90eab14b6a1a704f039b04155e03111ba605a224945faccdc2fdbf",
          "blockNumber": "0x731e25",
          "transactionHash": "0x1cce190827271ebb374adaa716145f382f549ead7c93568197630bd131999f4d",
          "transactionIndex": "0xa9",
          "logIndex": "0x136",
          "removed": false
        },
        {
          "address": "0x8aafd3ede9adb0ff97c7aebce82a919afb1c8764",
          "topics": [
            "0xddf252ad1be2c89b69c2b068fc378daa952ba7f163c4a11628f55a4df523b3ef",
            "0x000000000000000000000000c77f7fed3b5cc8249adc428c5f44c9063b9734b4",
            "0x000000000000000000000000c77f7fed3b5cc8249adc428c5f44c9063b9734b4"
          ],
          "data": "0x0000000000000000000000000000000000000000000000000000000143df3abb",
          "blockHash": "0x8ac937f51d90eab14b6a1a704f039b04155e03111ba605a224945faccdc2fdbf",
          "blockNumber": "0x731e25",
          "transactionHash": "0x1cce190827271ebb374adaa716145f382f549ead7c93568197630bd131999f4d",
          "transactionIndex": "0xa9",
          "logIndex": "0x137",
          "removed": false
        },
        {
          "address": "0x8aafd3ede9adb0ff97c7aebce82a919afb1c8764",
          "topics": [
            "0x4afcb4a87cdbd9974efdb92ee48bc8d7cd0ae4bf217004db3d080cbaee652ca7"
          ],
          "data": "0x00000000000000000000000000000000000000000000000000000000679066a400000000000000000000000000000000000000000000000000156136494a115300000000000000000000000000000000000000000000000000000000f3a08642",
          "blockHash": "0x8ac937f51d90eab14b6a1a704f039b04155e03111ba605a224945faccdc2fdbf",
          "blockNumber": "0x731e25",
          "transactionHash": "0x1cce190827271ebb374adaa716145f382f549ead7c93568197630bd131999f4d",
          "transactionIndex": "0xa9",
          "logIndex": "0x138",
          "removed": false
        }
      ],
      "logsBloom": "0x00000000000000000000000000000000000000000600000000000000000000000000000000000000000000000000000000000000000000004000000000000000000000000000004000000008000000000000000000000000000000000000000000000000020000000000000000000800020000000000000000000010000000000000000000000000000000000000000000000000000000000000010000000000000000000000000000000000000000004000000000000000000000000000000000000002000000800000000000000000000000000000080000000000000020000000000000000000000000000000000000000000000000000000000000000000",
      "type": "0x2",
      "transactionHash": "0x1cce190827271ebb374adaa716145f382f549ead7c93568197630bd131999f4d",
      "transactionIndex": "0xa9",
      "blockHash": "0x8ac937f51d90eab14b6a1a704f039b04155e03111ba605a224945faccdc2fdbf",
      "blockNumber": "0x731e25",
      "gasUsed": "0xfd1b",
      "effectiveGasPrice": "0x407004f7",
      "from": "0xc77f7fed3b5cc8249adc428c5f44c9063b9734b4",
      "to": "0x8aafd3ede9adb0ff97c7aebce82a919afb1c8764",
      "contractAddress": null
    }
  ],
  "libraries": [],
  "pending": [],
  "returns": {},
  "timestamp": 1737516709,
  "chain": 11155111,
  "commit": "1d2fb70"
}