{
  "transactions": [
    {
      "hash": "0x38b0e2d613394651528f29ccfe24bb713c21a60393274b12adf39afaccb5cc18",
      "transactionType": "CALL",
      "contractName": null,
      "contractAddress": "0xd7bc75898e513accccf720a874d44dab5a4b6223",
      "function": "sell(uint256)",
      "arguments": [
        "9929991715108924326"
      ],
      "transaction": {
        "from": "0xc77f7fed3b5cc8249adc428c5f44c9063b9734b4",
        "to": "0xd7bc75898e513accccf720a874d44dab5a4b6223",
        "gas": "0x15b6b",
        "value": "0x0",
        "input": "0xe4849b3200000000000000000000000000000000000000000000000089ce6ada81a3aba6",
        "nonce": "0xe9",
        "chainId": "0xaa36a7"
      },
      "additionalContracts": [],
      "isFixedGasLimit": false
    }
  ],
  "receipts": [
    {
      "status": "0x1",
      "cumulativeGasUsed": "0x209e519",
      "logs": [
        {
          "address": "0xd7bc75898e513accccf720a874d44dab5a4b6223",
          "topics": [
            "0xddf252ad1be2c89b69c2b068fc378daa952ba7f163c4a11628f55a4df523b3ef",
            "0x000000000000000000000000c77f7fed3b5cc8249adc428c5f44c9063b9734b4",
            "0x0000000000000000000000000000000000000000000000000000000000000000"
          ],
          "data": "0x00000000000000000000000000000000000000000000000089ce6ada81a3aba6",
          "blockHash": "0x2b47c9e2b75d64967024e52092c177b7700084b0d574ab532672fc5edf18b9a8",
          "blockNumber": "0x72396b",
          "transactionHash": "0x38b0e2d613394651528f29ccfe24bb713c21a60393274b12adf39afaccb5cc18",
          "transactionIndex": "0x41",
          "logIndex": "0x2c7",
          "removed": false
        },
        {
          "address": "0xd7bc75898e513accccf720a874d44dab5a4b6223",
          "topics": [
            "0x4afcb4a87cdbd9974efdb92ee48bc8d7cd0ae4bf217004db3d080cbaee652ca7"
          ],
          "data": "0x000000000000000000000000000000000000000000000000000000006785a24c00000000000000000000000000000000000000000000000000038d7f8af3f4930000000000000000000000000000000000000000000000000023474f493d2797",
          "blockHash": "0x2b47c9e2b75d64967024e52092c177b7700084b0d574ab532672fc5edf18b9a8",
          "blockNumber": "0x72396b",
          "transactionHash": "0x38b0e2d613394651528f29ccfe24bb713c21a60393274b12adf39afaccb5cc18",
          "transactionIndex": "0x41",
          "logIndex": "0x2c8",
          "removed": false
        }
      ],
      "logsBloom": "0x00000000000000000000000000000000000000000000000000000000000000000000000000000000000000000000000000000000000000004000000000000000000000000000000000000008000000000000000000000000000000000000000000000000020000000000000000000800020000000000000000000010000000000000000000000000000000000000000000000000000000000000010000000000000000000000000000000000000000004000001000000000000000000000000000000002000000800000000000004000000000000000080000000000000020000000000000000000000000000000000000000000080000000000000000000000",
      "type": "0x2",
      "transactionHash": "0x38b0e2d613394651528f29ccfe24bb713c21a60393274b12adf39afaccb5cc18",
      "transactionIndex": "0x41",
      "blockHash": "0x2b47c9e2b75d64967024e52092c177b7700084b0d574ab532672fc5edf18b9a8",
      "blockNumber": "0x72396b",
      "gasUsed": "0xfb87",
      "effectiveGasPrice": "0x3cd4f352",
      "from": "0xc77f7fed3b5cc8249adc428c5f44c9063b9734b4",
      "to": "0xd7bc75898e513accccf720a874d44dab5a4b6223",
      "contractAddress": null
    }
  ],
  "libraries": [],
  "pending": [],
  "returns": {},
  "timestamp": 1736811085,
  "chain": 11155111,
  "commit": "51a374b"
}