{
  "transactions": [
    {
      "hash": "0x9e5898d4de2f6fce9a96eaba81b15deb0157deed15188f55c1a656f14f7ddee0",
      "transactionType": "CALL",
      "contractName": null,
      "contractAddress": "0x270e88f8683660553e8ba4eb2ad7c91a1710d769",
      "function": "sell(uint256)",
      "arguments": [
        "824852742843649572353"
      ],
      "transaction": {
        "from": "0xc77f7fed3b5cc8249adc428c5f44c9063b9734b4",
        "to": "0x270e88f8683660553e8ba4eb2ad7c91a1710d769",
        "gas": "0x16fec",
        "value": "0x0",
        "input": "0xe4849b3200000000000000000000000000000000000000000000002cb7219f5bf25d3e01",
        "nonce": "0x63f",
        "chainId": "0xaa36a7"
      },
      "additionalContracts": [],
      "isFixedGasLimit": false
    }
  ],
  "receipts": [
    {
      "status": "0x1",
      "cumulativeGasUsed": "0x989184",
      "logs": [
        {
          "address": "0x270e88f8683660553e8ba4eb2ad7c91a1710d769",
          "topics": [
            "0xddf252ad1be2c89b69c2b068fc378daa952ba7f163c4a11628f55a4df523b3ef",
            "0x000000000000000000000000c77f7fed3b5cc8249adc428c5f44c9063b9734b4",
            "0x0000000000000000000000000000000000000000000000000000000000000000"
          ],
          "data": "0x00000000000000000000000000000000000000000000002cb7219f5bf25d3e01",
          "blockHash": "0x65938502839ae30f7171bf7f0a7582cf9565053897cb5a9cabcf65be8f065759",
          "blockNumber": "0x725328",
          "transactionHash": "0x9e5898d4de2f6fce9a96eaba81b15deb0157deed15188f55c1a656f14f7ddee0",
          "transactionIndex": "0x55",
          "logIndex": "0xb9",
          "removed": false
        },
        {
          "address": "0x270e88f8683660553e8ba4eb2ad7c91a1710d769",
          "topics": [
            "0x4afcb4a87cdbd9974efdb92ee48bc8d7cd0ae4bf217004db3d080cbaee652ca7"
          ],
          "data": "0x000000000000000000000000000000000000000000000000000000006786d7e8000000000000000000000000000000000000000000000000000446eb7b0b83ed0000000000000000000000000000000000000000000000000dc7e0f9a89a0d6d",
          "blockHash": "0x65938502839ae30f7171bf7f0a7582cf9565053897cb5a9cabcf65be8f065759",
          "blockNumber": "0x725328",
          "transactionHash": "0x9e5898d4de2f6fce9a96eaba81b15deb0157deed15188f55c1a656f14f7ddee0",
          "transactionIndex": "0x55",
          "logIndex": "0xba",
          "removed": false
        }
      ],
      "logsBloom": "0x00000000000000000000000000000000000000000000000000000000000000000000000000000000000000000000000020000000000000004000000000000000000000000000000000000008000000000000000000000000000000000000000000000000020000000000000000000800020000000000000000000010000000000000000000010000000000000000000000000000000000000000010000000000000000000000000000000000000000004000000000000000000000000000000000000002000000800000000000000000000000000000080000008000000020000000000000000000000000000000000000000000000000000000000000000000",
      "type": "0x2",
      "transactionHash": "0x9e5898d4de2f6fce9a96eaba81b15deb0157deed15188f55c1a656f14f7ddee0",
      "transactionIndex": "0x55",
      "blockHash": "0x65938502839ae30f7171bf7f0a7582cf9565053897cb5a9cabcf65be8f065759",
      "blockNumber": "0x725328",
      "gasUsed": "0xfb93",
      "effectiveGasPrice": "0x1f2608aa4",
      "from": "0xc77f7fed3b5cc8249adc428c5f44c9063b9734b4",
      "to": "0x270e88f8683660553e8ba4eb2ad7c91a1710d769",
      "contractAddress": null
    }
  ],
  "libraries": [],
  "pending": [],
  "returns": {},
  "timestamp": 1736890346,
  "chain": 11155111,
  "commit": "51a374b"
}