{
  "transactions": [
    {
      "hash": "0x1166a840d82f1ee354af173bec7e1fd1c444cea55998fda9ec4de2371ce5bfd8",
      "transactionType": "CALL",
      "contractName": null,
      "contractAddress": "0xbf4a322f1496e5c3d34a9bcdb4c60567b38c7de2",
      "function": "sell(uint256)",
      "arguments": [
        "989228841947133555698"
      ],
      "transaction": {
        "from": "0xc77f7fed3b5cc8249adc428c5f44c9063b9734b4",
        "to": "0xbf4a322f1496e5c3d34a9bcdb4c60567b38c7de2",
        "gas": "0x16fea",
        "value": "0x0",
        "input": "0xe4849b32000000000000000000000000000000000000000000000035a04ed69785eeb3f2",
        "nonce": "0x96f",
        "chainId": "0xaa36a7"
      },
      "additionalContracts": [],
      "isFixedGasLimit": false
    }
  ],
  "receipts": [
    {
      "status": "0x1",
      "cumulativeGasUsed": "0x1466b04",
      "logs": [
        {
          "address": "0xbf4a322f1496e5c3d34a9bcdb4c60567b38c7de2",
          "topics": [
            "0xddf252ad1be2c89b69c2b068fc378daa952ba7f163c4a11628f55a4df523b3ef",
            "0x000000000000000000000000c77f7fed3b5cc8249adc428c5f44c9063b9734b4",
            "0x0000000000000000000000000000000000000000000000000000000000000000"
          ],
          "data": "0x000000000000000000000000000000000000000000000035a04ed69785eeb3f2",
          "blockHash": "0x319cd75b40da7c6286c3727f4c5581605cfe90ac5fbc3b7077da3bb34a91ba13",
          "blockNumber": "0x725908",
          "transactionHash": "0x1166a840d82f1ee354af173bec7e1fd1c444cea55998fda9ec4de2371ce5bfd8",
          "transactionIndex": "0xc6",
          "logIndex": "0x103",
          "removed": false
        },
        {
          "address": "0xbf4a322f1496e5c3d34a9bcdb4c60567b38c7de2",
          "topics": [
            "0x4afcb4a87cdbd9974efdb92ee48bc8d7cd0ae4bf217004db3d080cbaee652ca7"
          ],
          "data": "0x0000000000000000000000000000000000000000000000000000000067871e8c000000000000000000000000000000000000000000000000000390fd6aa35d970000000000000000000000000000000000000000000000000dc7e3f785fcbc11",
          "blockHash": "0x319cd75b40da7c6286c3727f4c5581605cfe90ac5fbc3b7077da3bb34a91ba13",
          "blockNumber": "0x725908",
          "transactionHash": "0x1166a840d82f1ee354af173bec7e1fd1c444cea55998fda9ec4de2371ce5bfd8",
          "transactionIndex": "0xc6",
          "logIndex": "0x104",
          "removed": false
        }
      ],
      "logsBloom": "0x00000000000000000000000000000000000000000000000000000000000000000000000000000000000000000000000000000000000000004000000000000000000000000000000000000008000000000000001000000000000000000000000000000000020000000000000000000800020000000000000000000010000000000000000000000000000000000000000000000000000008000000010000000000000000000000000000000000000000004000000000000000000000000000000000000002000000800000000000001000000000000000080000000000000020000000000000000000000000000000000000000000000000000000000000000000",
      "type": "0x2",
      "transactionHash": "0x1166a840d82f1ee354af173bec7e1fd1c444cea55998fda9ec4de2371ce5bfd8",
      "transactionIndex": "0xc6",
      "blockHash": "0x319cd75b40da7c6286c3727f4c5581605cfe90ac5fbc3b7077da3bb34a91ba13",
      "blockNumber": "0x725908",
      "gasUsed": "0xfb91",
      "effectiveGasPrice": "0x94630e40",
      "from": "0xc77f7fed3b5cc8249adc428c5f44c9063b9734b4",
      "to": "0xbf4a322f1496e5c3d34a9bcdb4c60567b38c7de2",
      "contractAddress": null
    }
  ],
  "libraries": [],
  "pending": [],
  "returns": {},
  "timestamp": 1736908429,
  "chain": 11155111,
  "commit": "51a374b"
}