{
  "transactions": [
    {
      "hash": "0x15082a30f7033f72753442495d4938dc633bd316b85661d5e4a15576b3923f5a",
      "transactionType": "CALL",
      "contractName": null,
      "contractAddress": "0x8aafd3ede9adb0ff97c7aebce82a919afb1c8764",
      "function": "sell(uint256)",
      "arguments": [
        "495455"
      ],
      "transaction": {
        "from": "0xc77f7fed3b5cc8249adc428c5f44c9063b9734b4",
        "to": "0x8aafd3ede9adb0ff97c7aebce82a919afb1c8764",
        "gas": "0x16208",
        "value": "0x0",
        "input": "0xe4849b320000000000000000000000000000000000000000000000000000000000078f5f",
        "nonce": "0x1452",
        "chainId": "0xaa36a7"
      },
      "additionalContracts": [],
      "isFixedGasLimit": false
    }
  ],
  "receipts": [
    {
      "status": "0x1",
      "cumulativeGasUsed": "0x1150002",
      "logs": [
        {
          "address": "0x8aafd3ede9adb0ff97c7aebce82a919afb1c8764",
          "topics": [
            "0xddf252ad1be2c89b69c2b068fc378daa952ba7f163c4a11628f55a4df523b3ef",
            "0x000000000000000000000000c77f7fed3b5cc8249adc428c5f44c9063b9734b4",
            "0x0000000000000000000000000000000000000000000000000000000000000000"
          ],
          "data": "0x0000000000000000000000000000000000000000000000000000000000077fe4",
          "blockHash": "0xdb63c8456adb671c68b10d40205f9909b07767afbcb28ec5cea5ff3987744704",
          "blockNumber": "0x731b97",
          "transactionHash": "0x15082a30f7033f72753442495d4938dc633bd316b85661d5e4a15576b3923f5a",
          "transactionIndex": "0x9b",
          "logIndex": "0x9f",
          "removed": false
        },
        {
          "address": "0x8aafd3ede9adb0ff97c7aebce82a919afb1c8764",
          "topics": [
            "0xddf252ad1be2c89b69c2b068fc378daa952ba7f163c4a11628f55a4df523b3ef",
            "0x000000000000000000000000c77f7fed3b5cc8249adc428c5f44c9063b9734b4",
            "0x000000000000000000000000c77f7fed3b5cc8249adc428c5f44c9063b9734b4"
          ],
          "data": "0x0000000000000000000000000000000000000000000000000000000000000f7b",
          "blockHash": "0xdb63c8456adb671c68b10d40205f9909b07767afbcb28ec5cea5ff3987744704",
          "blockNumber": "0x731b97",
          "transactionHash": "0x15082a30f7033f72753442495d4938dc633bd316b85661d5e4a15576b3923f5a",
          "transactionIndex": "0x9b",
          "logIndex": "0xa0",
          "removed": false
        },
        {
          "address": "0x8aafd3ede9adb0ff97c7aebce82a919afb1c8764",
          "topics": [
            "0x4afcb4a87cdbd9974efdb92ee48bc8d7cd0ae4bf217004db3d080cbaee652ca7"
          ],
          "data": "0x00000000000000000000000000000000000000000000000000000000679047f0000000000000000000000000000000000000000000000000000f091c505645cd0000000000000000000000000000000000000000000000000000000000000830",
          "blockHash": "0xdb63c8456adb671c68b10d40205f9909b07767afbcb28ec5cea5ff3987744704",
          "blockNumber": "0x731b97",
          "transactionHash": "0x15082a30f7033f72753442495d4938dc633bd316b85661d5e4a15576b3923f5a",
          "transactionIndex": "0x9b",
          "logIndex": "0xa1",
          "removed": false
        }
      ],
      "logsBloom": "0x00000000000000000000000000000000000000000600000000000000000000000000000000000000000000000000000000000000000000004000000000000000000000000000004000000008000000000000000000000000000000000000000000000000020000000000000000000800020000000000000000000010000000000000000000000000000000000000000000000000000000000000010000000000000000000000000000000000000000004000000000000000000000000000000000000002000000800000000000000000000000000000080000000000000020000000000000000000000000000000000000000000000000000000000000000000",
      "type": "0x2",
      "transactionHash": "0x15082a30f7033f72753442495d4938dc633bd316b85661d5e4a15576b3923f5a",
      "transactionIndex": "0x9b",
      "blockHash": "0xdb63c8456adb671c68b10d40205f9909b07767afbcb28ec5cea5ff3987744704",
      "blockNumber": "0x731b97",
      "gasUsed": "0xf213",
      "effectiveGasPrice": "0x11ce13651",
      "from": "0xc77f7fed3b5cc8249adc428c5f44c9063b9734b4",
      "to": "0x8aafd3ede9adb0ff97c7aebce82a919afb1c8764",
      "contractAddress": null
    }
  ],
  "libraries": [],
  "pending": [],
  "returns": {},
  "timestamp": 1737508849,
  "chain": 11155111,
  "commit": "1d2fb70"
}