{
  "transactions": [
    {
      "hash": "0x72fbb8a3a69690b70cb72b68596c065b86cd9dc8c221eb3e26ba3b19b4713a05",
      "transactionType": "CALL",
      "contractName": null,
      "contractAddress": "0x8aafd3ede9adb0ff97c7aebce82a919afb1c8764",
      "function": "buy(address)",
      "arguments": [
        "0xC77f7fed3b5Cc8249aDc428c5F44C9063B9734b4"
      ],
      "transaction": {
        "from": "0xc77f7fed3b5cc8249adc428c5f44c9063b9734b4",
        "to": "0x8aafd3ede9adb0ff97c7aebce82a919afb1c8764",
        "gas": "0x156ea",
        "value": "0xde0b6b3a7640000",
        "input": "0xf088d547000000000000000000000000c77f7fed3b5cc8249adc428c5f44c9063b9734b4",
        "nonce": "0x15bb",
        "chainId": "0xaa36a7"
      },
      "additionalContracts": [],
      "isFixedGasLimit": false
    }
  ],
  "receipts": [
    {
      "status": "0x1",
      "cumulativeGasUsed": "0xf8634e",
      "logs": [
        {
          "address": "0x8aafd3ede9adb0ff97c7aebce82a919afb1c8764",
          "topics": [
            "0xddf252ad1be2c89b69c2b068fc378daa952ba7f163c4a11628f55a4df523b3ef",
            "0x0000000000000000000000000000000000000000000000000000000000000000",
            "0x000000000000000000000000c77f7fed3b5cc8249adc428c5f44c9063b9734b4"
          ],
          "data": "0x000000000000000000000000000000000000000000000009f07143c8469ebea0",
          "blockHash": "0x9eb28133f5fa7de3be283ac8de1a6bf109c793a2b8184af12ffa698c3e6393cc",
          "blockNumber": "0x731d34",
          "transactionHash": "0x72fbb8a3a69690b70cb72b68596c065b86cd9dc8c221eb3e26ba3b19b4713a05",
          "transactionIndex": "0x50",
          "logIndex": "0xd4",
          "removed": false
        },
        {
          "address": "0x8aafd3ede9adb0ff97c7aebce82a919afb1c8764",
          "topics": [
            "0xddf252ad1be2c89b69c2b068fc378daa952ba7f163c4a11628f55a4df523b3ef",
            "0x0000000000000000000000000000000000000000000000000000000000000000",
            "0x000000000000000000000000c77f7fed3b5cc8249adc428c5f44c9063b9734b4"
          ],
          "data": "0x00000000000000000000000000000000000000000000000007b7d8aa1bffa493",
          "blockHash": "0x9eb28133f5fa7de3be283ac8de1a6bf109c793a2b8184af12ffa698c3e6393cc",
          "blockNumber": "0x731d34",
          "transactionHash": "0x72fbb8a3a69690b70cb72b68596c065b86cd9dc8c221eb3e26ba3b19b4713a05",
          "transactionIndex": "0x50",
          "logIndex": "0xd5",
          "removed": false
        },
        {
          "address": "0x8aafd3ede9adb0ff97c7aebce82a919afb1c8764",
          "topics": [
            "0x4afcb4a87cdbd9974efdb92ee48bc8d7cd0ae4bf217004db3d080cbaee652ca7"
          ],
          "data": "0x0000000000000000000000000000000000000000000000000000000067905b5800000000000000000000000000000000000000000000000000133594e3ac75960000000000000000000000000000000000000000000000000de0b6b3a7640000",
          "blockHash": "0x9eb28133f5fa7de3be283ac8de1a6bf109c793a2b8184af12ffa698c3e6393cc",
          "blockNumber": "0x731d34",
          "transactionHash": "0x72fbb8a3a69690b70cb72b68596c065b86cd9dc8c221eb3e26ba3b19b4713a05",
          "transactionIndex": "0x50",
          "logIndex": "0xd6",
          "removed": false
        }
      ],
      "logsBloom": "0x00000000000000000000000000000000000000000600000000000000000000000000000000000000000000000000000000000000000000004000000000000000000000000000004000000008000000000000000000000000000000000000000000000000020000000000000000000800020000000000000000000010000000000000000000000000000000000000000000000000000000000000010000000000000000000000000000000000000000004000000000000000000000000000000000000002000000800000000000000000000000000000080000000000000020000000000000000000000000000000000000000000000000000000000000000000",
      "type": "0x2",
      "transactionHash": "0x72fbb8a3a69690b70cb72b68596c065b86cd9dc8c221eb3e26ba3b19b4713a05",
      "transactionIndex": "0x50",
      "blockHash": "0x9eb28133f5fa7de3be283ac8de1a6bf109c793a2b8184af12ffa698c3e6393cc",
      "blockNumber": "0x731d34",
      "gasUsed": "0xf844",
      "effectiveGasPrice": "0x4ed0d987",
      "from": "0xc77f7fed3b5cc8249adc428c5f44c9063b9734b4",
      "to": "0x8aafd3ede9adb0ff97c7aebce82a919afb1c8764",
      "contractAddress": null
    }
  ],
  "libraries": [],
  "pending": [],
  "returns": {},
  "timestamp": 1737513818,
  "chain": 11155111,
  "commit": "1d2fb70"
}