{
  "transactions": [
    {
      "hash": "0x36091060082e9e1a5c61be43d44defa5e2e042114ca36a0862fc107256404084",
      "transactionType": "CALL",
      "contractName": null,
      "contractAddress": "0x270e88f8683660553e8ba4eb2ad7c91a1710d769",
      "function": "buy(address)",
      "arguments": [
        "0xC77f7fed3b5Cc8249aDc428c5F44C9063B9734b4"
      ],
      "transaction": {
        "from": "0xc77f7fed3b5cc8249adc428c5f44c9063b9734b4",
        "to": "0x270e88f8683660553e8ba4eb2ad7c91a1710d769",
        "gas": "0x1b30c",
        "value": "0xde0b6b3a7640000",
        "input": "0xf088d547000000000000000000000000c77f7fed3b5cc8249adc428c5f44c9063b9734b4",
        "nonce": "0x572",
        "chainId": "0xaa36a7"
      },
      "additionalContracts": [],
      "isFixedGasLimit": false
    }
  ],
  "receipts": [
    {
      "status": "0x1",
      "cumulativeGasUsed": "0x97d457",
      "logs": [
        {
          "address": "0x270e88f8683660553e8ba4eb2ad7c91a1710d769",
          "topics": [
            "0xddf252ad1be2c89b69c2b068fc378daa952ba7f163c4a11628f55a4df523b3ef",
            "0x0000000000000000000000000000000000000000000000000000000000000000",
            "0x000000000000000000000000c77f7fed3b5cc8249adc428c5f44c9063b9734b4"
          ],
          "data": "0x0000000000000000000000000000000000000000000000345687f4df5bf97e6b",
          "blockHash": "0xaad66bc9ed604c210656514ea9c52f986fabb8db2c3994c98fa3aafe68edf306",
          "blockNumber": "0x72521c",
          "transactionHash": "0x36091060082e9e1a5c61be43d44defa5e2e042114ca36a0862fc107256404084",
          "transactionIndex": "0x53",
          "logIndex": "0x87",
          "removed": false
        },
        {
          "address": "0x270e88f8683660553e8ba4eb2ad7c91a1710d769",
          "topics": [
            "0xddf252ad1be2c89b69c2b068fc378daa952ba7f163c4a11628f55a4df523b3ef",
            "0x0000000000000000000000000000000000000000000000000000000000000000",
            "0x000000000000000000000000c77f7fed3b5cc8249adc428c5f44c9063b9734b4"
          ],
          "data": "0x00000000000000000000000000000000000000000000000028a46a9993bc2c5d",
          "blockHash": "0xaad66bc9ed604c210656514ea9c52f986fabb8db2c3994c98fa3aafe68edf306",
          "blockNumber": "0x72521c",
          "transactionHash": "0x36091060082e9e1a5c61be43d44defa5e2e042114ca36a0862fc107256404084",
          "transactionIndex": "0x53",
          "logIndex": "0x88",
          "removed": false
        },
        {
          "address": "0x270e88f8683660553e8ba4eb2ad7c91a1710d769",
          "topics": [
            "0x4afcb4a87cdbd9974efdb92ee48bc8d7cd0ae4bf217004db3d080cbaee652ca7"
          ],
          "data": "0x000000000000000000000000000000000000000000000000000000006786cb400000000000000000000000000000000000000000000000000003a4b5f9eed4c60000000000000000000000000000000000000000000000000de0b6b3a7640000",
          "blockHash": "0xaad66bc9ed604c210656514ea9c52f986fabb8db2c3994c98fa3aafe68edf306",
          "blockNumber": "0x72521c",
          "transactionHash": "0x36091060082e9e1a5c61be43d44defa5e2e042114ca36a0862fc107256404084",
          "transactionIndex": "0x53",
          "logIndex": "0x89",
          "removed": false
        }
      ],
      "logsBloom": "0x00000000000000000000000000000000000000000000000000000000000000000000000000000000000000000000000020000000000000004000000000000000000000000000000000000008000000000000000000000000000000000000000000000000020000000000000000000800020000000000000000000010000000000000000000010000000000000000000000000000000000000000010000000000000000000000000000000000000000004000000000000000000000000000000000000002000000800000000000000000000000000000080000008000000020000000000000000000000000000000000000000000000000000000000000000000",
      "type": "0x2",
      "transactionHash": "0x36091060082e9e1a5c61be43d44defa5e2e042114ca36a0862fc107256404084",
      "transactionIndex": "0x53",
      "blockHash": "0xaad66bc9ed604c210656514ea9c52f986fabb8db2c3994c98fa3aafe68edf306",
      "blockNumber": "0x72521c",
      "gasUsed": "0x13af8",
      "effectiveGasPrice": "0x4ce1fc692",
      "from": "0xc77f7fed3b5cc8249adc428c5f44c9063b9734b4",
      "to": "0x270e88f8683660553e8ba4eb2ad7c91a1710d769",
      "contractAddress": null
    }
  ],
  "libraries": [],
  "pending": [],
  "returns": {},
  "timestamp": 1736887105,
  "chain": 11155111,
  "commit": "51a374b"
}