{
  "transactions": [
    {
      "hash": "0x09321b2dd2eaa0f9ab186a6e450a09c9d3460779d8f1197d41a1dfb4295b62b8",
      "transactionType": "CALL",
      "contractName": null,
      "contractAddress": "0x8aafd3ede9adb0ff97c7aebce82a919afb1c8764",
      "function": "sell(uint256)",
      "arguments": [
        "954520483827"
      ],
      "transaction": {
        "from": "0xc77f7fed3b5cc8249adc428c5f44c9063b9734b4",
        "to": "0x8aafd3ede9adb0ff97c7aebce82a919afb1c8764",
        "gas": "0x1722a",
        "value": "0x0",
        "input": "0xe4849b32000000000000000000000000000000000000000000000000000000de3ddab7f3",
        "nonce": "0x1461",
        "chainId": "0xaa36a7"
      },
      "additionalContracts": [],
      "isFixedGasLimit": false
    }
  ],
  "receipts": [
    {
      "status": "0x1",
      "cumulativeGasUsed": "0xf07009",
      "logs": [
        {
          "address": "0x8aafd3ede9adb0ff97c7aebce82a919afb1c8764",
          "topics": [
            "0xddf252ad1be2c89b69c2b068fc378daa952ba7f163c4a11628f55a4df523b3ef",
            "0x000000000000000000000000c77f7fed3b5cc8249adc428c5f44c9063b9734b4",
            "0x0000000000000000000000000000000000000000000000000000000000000000"
          ],
          "data": "0x000000000000000000000000000000000000000000000000000000dc76b41ad5",
          "blockHash": "0xf3636b160d10bc8b8cce8b5559afb8ea5f5e32788fe71177423f94f30e953bc5",
          "blockNumber": "0x731bab",
          "transactionHash": "0x09321b2dd2eaa0f9ab186a6e450a09c9d3460779d8f1197d41a1dfb4295b62b8",
          "transactionIndex": "0x9f",
          "logIndex": "0xeb",
          "removed": false
        },
        {
          "address": "0x8aafd3ede9adb0ff97c7aebce82a919afb1c8764",
          "topics": [
            "0xddf252ad1be2c89b69c2b068fc378daa952ba7f163c4a11628f55a4df523b3ef",
            "0x000000000000000000000000c77f7fed3b5cc8249adc428c5f44c9063b9734b4",
            "0x000000000000000000000000c77f7fed3b5cc8249adc428c5f44c9063b9734b4"
          ],
          "data": "0x00000000000000000000000000000000000000000000000000000001c7269d1e",
          "blockHash": "0xf3636b160d10bc8b8cce8b5559afb8ea5f5e32788fe71177423f94f30e953bc5",
          "blockNumber": "0x731bab",
          "transactionHash": "0x09321b2dd2eaa0f9ab186a6e450a09c9d3460779d8f1197d41a1dfb4295b62b8",
          "transactionIndex": "0x9f",
          "logIndex": "0xec",
          "removed": false
        },
        {
          "address": "0x8aafd3ede9adb0ff97c7aebce82a919afb1c8764",
          "topics": [
            "0x4afcb4a87cdbd9974efdb92ee48bc8d7cd0ae4bf217004db3d080cbaee652ca7"
          ],
          "data": "0x00000000000000000000000000000000000000000000000000000000679048e0000000000000000000000000000000000000000000000000000f3ddbbd93f90e00000000000000000000000000000000000000000000000000000000f4152038",
          "blockHash": "0xf3636b160d10bc8b8cce8b5559afb8ea5f5e32788fe71177423f94f30e953bc5",
          "blockNumber": "0x731bab",
          "transactionHash": "0x09321b2dd2eaa0f9ab186a6e450a09c9d3460779d8f1197d41a1dfb4295b62b8",
          "transactionIndex": "0x9f",
          "logIndex": "0xed",
          "removed": false
        }
      ],
      "logsBloom": "0x00000000000000000000000000000000000000000600000000000000000000000000000000000000000000000000000000000000000000004000000000000000000000000000004000000008000000000000000000000000000000000000000000000000020000000000000000000800020000000000000000000010000000000000000000000000000000000000000000000000000000000000010000000000000000000000000000000000000000004000000000000000000000000000000000000002000000800000000000000000000000000000080000000000000020000000000000000000000000000000000000000000000000000000000000000000",
      "type": "0x2",
      "transactionHash": "0x09321b2dd2eaa0f9ab186a6e450a09c9d3460779d8f1197d41a1dfb4295b62b8",
      "transactionIndex": "0x9f",
      "blockHash": "0xf3636b160d10bc8b8cce8b5559afb8ea5f5e32788fe71177423f94f30e953bc5",
      "blockNumber": "0x731bab",
      "gasUsed": "0xfd1b",
      "effectiveGasPrice": "0x10b711472",
      "from": "0xc77f7fed3b5cc8249adc428c5f44c9063b9734b4",
      "to": "0x8aafd3ede9adb0ff97c7aebce82a919afb1c8764",
      "contractAddress": null
    }
  ],
  "libraries": [],
  "pending": [],
  "returns": {},
  "timestamp": 1737509089,
  "chain": 11155111,
  "commit": "1d2fb70"
}