{
  "transactions": [
    {
      "hash": "0x2005e07e8f5caa617b479e4b2e26bd54f950b63e7bb24c3d27cbbf15b5b8cedf",
      "transactionType": "CALL",
      "contractName": null,
      "contractAddress": "0xc51306616a5253b1d8b52af3a1c536ea5fbc478c",
      "function": "borrow(uint256,uint256)",
      "arguments": [
        "9999999999999990",
        "0"
      ],
      "transaction": {
        "from": "0xc77f7fed3b5cc8249adc428c5f44c9063b9734b4",
        "to": "0xc51306616a5253b1d8b52af3a1c536ea5fbc478c",
        "gas": "0x5dbfc",
        "value": "0x0",
        "input": "0x0ecbcdab000000000000000000000000000000000000000000000000002386f26fc0fff60000000000000000000000000000000000000000000000000000000000000000",
        "nonce": "0x1924",
        "chainId": "0xaa36a7"
      },
      "additionalContracts": [],
      "isFixedGasLimit": false
    }
  ],
  "receipts": [
    {
      "status": "0x1",
      "cumulativeGasUsed": "0x1ee9950",
      "logs": [
        {
          "address": "0xc51306616a5253b1d8b52af3a1c536ea5fbc478c",
          "topics": [
            "0xddf252ad1be2c89b69c2b068fc378daa952ba7f163c4a11628f55a4df523b3ef",
            "0x000000000000000000000000c77f7fed3b5cc8249adc428c5f44c9063b9734b4",
            "0x000000000000000000000000c51306616a5253b1d8b52af3a1c536ea5fbc478c"
          ],
          "data": "0x0000000000000000000000000000000000000000000000000fd2fc1c8a53154f",
          "blockHash": "0xe592298a516c294d5a545e924f4d98635f8871ec87e6674e1130453a0025df0c",
          "blockNumber": "0x739b46",
          "transactionHash": "0x2005e07e8f5caa617b479e4b2e26bd54f950b63e7bb24c3d27cbbf15b5b8cedf",
          "transactionIndex": "0xe7",
          "logIndex": "0x271",
          "removed": false
        },
        {
          "address": "0xc51306616a5253b1d8b52af3a1c536ea5fbc478c",
          "topics": [
            "0x03bbe564cb1b78e43195eeadbde99e5b89b19345862807fcfb59f884e4165e25"
          ],
          "data": "0x00000000000000000000000038818e389773445cd73adbaa37b8b169f458c6e1000000000000000000000000000000000000000000000000000002ba7def2fff",
          "blockHash": "0xe592298a516c294d5a545e924f4d98635f8871ec87e6674e1130453a0025df0c",
          "blockNumber": "0x739b46",
          "transactionHash": "0x2005e07e8f5caa617b479e4b2e26bd54f950b63e7bb24c3d27cbbf15b5b8cedf",
          "transactionIndex": "0xe7",
          "logIndex": "0x272",
          "removed": false
        },
        {
          "address": "0xc51306616a5253b1d8b52af3a1c536ea5fbc478c",
          "topics": [
            "0x03bbe564cb1b78e43195eeadbde99e5b89b19345862807fcfb59f884e4165e25"
          ],
          "data": "0x000000000000000000000000c77f7fed3b5cc8249adc428c5f44c9063b9734b4000000000000000000000000000000000000000000000000002322e710d41ff7",
          "blockHash": "0xe592298a516c294d5a545e924f4d98635f8871ec87e6674e1130453a0025df0c",
          "blockNumber": "0x739b46",
          "transactionHash": "0x2005e07e8f5caa617b479e4b2e26bd54f950b63e7bb24c3d27cbbf15b5b8cedf",
          "transactionIndex": "0xe7",
          "logIndex": "0x273",
          "removed": false
        },
        {
          "address": "0xc51306616a5253b1d8b52af3a1c536ea5fbc478c",
          "topics": [
            "0xaec00f5213a37254bc68a26b0685d1a5b2bf513e1e587c94c7df7f4a62b56c9c"
          ],
          "data": "0x0000000000000000000000000000000000000000000000000fd2fc1c8a53154f00000000000000000000000000000000000000000000000000232bff5f46bff60000000000000000000000000000000000000000000000008800a12c1d469ff600000000000000000000000000000000000000000000003d3055dd28df8880d9",
          "blockHash": "0xe592298a516c294d5a545e924f4d98635f8871ec87e6674e1130453a0025df0c",
          "blockNumber": "0x739b46",
          "transactionHash": "0x2005e07e8f5caa617b479e4b2e26bd54f950b63e7bb24c3d27cbbf15b5b8cedf",
          "transactionIndex": "0xe7",
          "logIndex": "0x274",
          "removed": false
        },
        {
          "address": "0xc51306616a5253b1d8b52af3a1c536ea5fbc478c",
          "topics": [
            "0x4afcb4a87cdbd9974efdb92ee48bc8d7cd0ae4bf217004db3d080cbaee652ca7"
          ],
          "data": "0x0000000000000000000000000000000000000000000000000000000067967d30000000000000000000000000000000000000000000000000001f28462d7299b3000000000000000000000000000000000000000000000000000009184e729fff",
          "blockHash": "0xe592298a516c294d5a545e924f4d98635f8871ec87e6674e1130453a0025df0c",
          "blockNumber": "0x739b46",
          "transactionHash": "0x2005e07e8f5caa617b479e4b2e26bd54f950b63e7bb24c3d27cbbf15b5b8cedf",
          "transactionIndex": "0xe7",
          "logIndex": "0x275",
          "removed": false
        }
      ],
      "logsBloom": "0x00000000000000000000000000000100400000000000000000000000000000000008000000000000000010000000000000002000000000004000000000000000000000000000000000000008000000000000000000000000000000000000000000000000000000000000000000000000020000000000000000000010000000000000000000000000000000000000400000000000010000000000010004000000000000000000000000000400000000004000000000000000000000001000000000000002000000800000000000000000000000000000080000000000000000000000000000000000010000000000000000000000400000000000000000000000",
      "type": "0x2",
      "transactionHash": "0x2005e07e8f5caa617b479e4b2e26bd54f950b63e7bb24c3d27cbbf15b5b8cedf",
      "transactionIndex": "0xe7",
      "blockHash": "0xe592298a516c294d5a545e924f4d98635f8871ec87e6674e1130453a0025df0c",
      "blockNumber": "0x739b46",
      "gasUsed": "0x2f672",
      "effectiveGasPrice": "0x28657a359",
      "from": "0xc77f7fed3b5cc8249adc428c5f44c9063b9734b4",
      "to": "0xc51306616a5253b1d8b52af3a1c536ea5fbc478c",
      "contractAddress": null
    }
  ],
  "libraries": [],
  "pending": [],
  "returns": {},
  "timestamp": 1737915699,
  "chain": 11155111,
  "commit": "f5162e9"
}