{
  "transactions": [
    {
      "hash": "0xa4bf5e37f29795bb373cc5635bc3574b4265344b252bea3e1ddea558ffd53fc3",
      "transactionType": "CALL",
      "contractName": null,
      "contractAddress": "0x5eb9cc76c3506942c1c0ead70e877dd5e4f00cb0",
      "function": "buy(address)",
      "arguments": [
        "0xC77f7fed3b5Cc8249aDc428c5F44C9063B9734b4"
      ],
      "transaction": {
        "from": "0xc77f7fed3b5cc8249adc428c5f44c9063b9734b4",
        "to": "0x5eb9cc76c3506942c1c0ead70e877dd5e4f00cb0",
        "gas": "0x1b30c",
        "value": "0xde0b6b3a7640000",
        "input": "0xf088d547000000000000000000000000c77f7fed3b5cc8249adc428c5f44c9063b9734b4",
        "nonce": "0x3fc",
        "chainId": "0xaa36a7"
      },
      "additionalContracts": [],
      "isFixedGasLimit": false
    }
  ],
  "receipts": [
    {
      "status": "0x1",
      "cumulativeGasUsed": "0x1744cf4",
      "logs": [
        {
          "address": "0x5eb9cc76c3506942c1c0ead70e877dd5e4f00cb0",
          "topics": [
            "0xddf252ad1be2c89b69c2b068fc378daa952ba7f163c4a11628f55a4df523b3ef",
            "0x0000000000000000000000000000000000000000000000000000000000000000",
            "0x000000000000000000000000c77f7fed3b5cc8249adc428c5f44c9063b9734b4"
          ],
          "data": "0x00000000000000000000000000000000000000000000003575047a6491200124",
          "blockHash": "0xf96afd8d4520ebb0f10fee839cf856dae9405922d3ab692072eed840f7f4d5ac",
          "blockNumber": "0x725005",
          "transactionHash": "0xa4bf5e37f29795bb373cc5635bc3574b4265344b252bea3e1ddea558ffd53fc3",
          "transactionIndex": "0xa3",
          "logIndex": "0x128",
          "removed": false
        },
        {
          "address": "0x5eb9cc76c3506942c1c0ead70e877dd5e4f00cb0",
          "topics": [
            "0xddf252ad1be2c89b69c2b068fc378daa952ba7f163c4a11628f55a4df523b3ef",
            "0x0000000000000000000000000000000000000000000000000000000000000000",
            "0x000000000000000000000000c77f7fed3b5cc8249adc428c5f44c9063b9734b4"
          ],
          "data": "0x0000000000000000000000000000000000000000000000002982e2043bfc1f08",
          "blockHash": "0xf96afd8d4520ebb0f10fee839cf856dae9405922d3ab692072eed840f7f4d5ac",
          "blockNumber": "0x725005",
          "transactionHash": "0xa4bf5e37f29795bb373cc5635bc3574b4265344b252bea3e1ddea558ffd53fc3",
          "transactionIndex": "0xa3",
          "logIndex": "0x129",
          "removed": false
        },
        {
          "address": "0x5eb9cc76c3506942c1c0ead70e877dd5e4f00cb0",
          "topics": [
            "0x4afcb4a87cdbd9974efdb92ee48bc8d7cd0ae4bf217004db3d080cbaee652ca7"
          ],
          "data": "0x000000000000000000000000000000000000000000000000000000006786b208000000000000000000000000000000000000000000000000000391154603dfb00000000000000000000000000000000000000000000000000de0b6b3a7640000",
          "blockHash": "0xf96afd8d4520ebb0f10fee839cf856dae9405922d3ab692072eed840f7f4d5ac",
          "blockNumber": "0x725005",
          "transactionHash": "0xa4bf5e37f29795bb373cc5635bc3574b4265344b252bea3e1ddea558ffd53fc3",
          "transactionIndex": "0xa3",
          "logIndex": "0x12a",
          "removed": false
        }
      ],
      "logsBloom": "0x00000000000000000000000000000000000000000000000000000000000000000000000000000000000000000000000000000000000000004000000000000000000000000000000000000008000000000000000000000000000000000000000000000000020000000000000004000800020000000000000000000010000000000000000000000000000000000000000000000000000000000000010000000000000000000000000000000000000000004000000000000000000000000000020000000002000000800000008000000000000000000000080000000000000020000000000000000000000000000000000000000000000000000000000000000000",
      "type": "0x2",
      "transactionHash": "0xa4bf5e37f29795bb373cc5635bc3574b4265344b252bea3e1ddea558ffd53fc3",
      "transactionIndex": "0xa3",
      "blockHash": "0xf96afd8d4520ebb0f10fee839cf856dae9405922d3ab692072eed840f7f4d5ac",
      "blockNumber": "0x725005",
      "gasUsed": "0x13af8",
      "effectiveGasPrice": "0x36901a00f",
      "from": "0xc77f7fed3b5cc8249adc428c5f44c9063b9734b4",
      "to": "0x5eb9cc76c3506942c1c0ead70e877dd5e4f00cb0",
      "contractAddress": null
    }
  ],
  "libraries": [],
  "pending": [],
  "returns": {},
  "timestamp": 1736880650,
  "chain": 11155111,
  "commit": "51a374b"
}