{
  "transactions": [
    {
      "hash": "0xcf21a60aabd88be1cfb639fc92296c6918cc2d1e1a110e8cf55b5e8d48f140df",
      "transactionType": "CALL",
      "contractName": null,
      "contractAddress": "0x8aafd3ede9adb0ff97c7aebce82a919afb1c8764",
      "function": "sell(uint256)",
      "arguments": [
        "191172833086900425548"
      ],
      "transaction": {
        "from": "0xc77f7fed3b5cc8249adc428c5f44c9063b9734b4",
        "to": "0x8aafd3ede9adb0ff97c7aebce82a919afb1c8764",
        "gas": "0x17270",
        "value": "0x0",
        "input": "0xe4849b3200000000000000000000000000000000000000000000000a5d0e56d0c1be534c",
        "nonce": "0x157d",
        "chainId": "0xaa36a7"
      },
      "additionalContracts": [],
      "isFixedGasLimit": false
    }
  ],
  "receipts": [
    {
      "status": "0x1",
      "cumulativeGasUsed": "0xaf6f49",
      "logs": [
        {
          "address": "0x8aafd3ede9adb0ff97c7aebce82a919afb1c8764",
          "topics": [
            "0xddf252ad1be2c89b69c2b068fc378daa952ba7f163c4a11628f55a4df523b3ef",
            "0x000000000000000000000000c77f7fed3b5cc8249adc428c5f44c9063b9734b4",
            "0x0000000000000000000000000000000000000000000000000000000000000000"
          ],
          "data": "0x00000000000000000000000000000000000000000000000a47d4e1628af20d00",
          "blockHash": "0xb75737bf345b24b805c960adbfec9bb79e8fa28fdb828c4210b093a2308b9afc",
          "blockNumber": "0x731ce8",
          "transactionHash": "0xcf21a60aabd88be1cfb639fc92296c6918cc2d1e1a110e8cf55b5e8d48f140df",
          "transactionIndex": "0x65",
          "logIndex": "0xb4",
          "removed": false
        },
        {
          "address": "0x8aafd3ede9adb0ff97c7aebce82a919afb1c8764",
          "topics": [
            "0xddf252ad1be2c89b69c2b068fc378daa952ba7f163c4a11628f55a4df523b3ef",
            "0x000000000000000000000000c77f7fed3b5cc8249adc428c5f44c9063b9734b4",
            "0x000000000000000000000000c77f7fed3b5cc8249adc428c5f44c9063b9734b4"
          ],
          "data": "0x0000000000000000000000000000000000000000000000001539756e36cc464c",
          "blockHash": "0xb75737bf345b24b805c960adbfec9bb79e8fa28fdb828c4210b093a2308b9afc",
          "blockNumber": "0x731ce8",
          "transactionHash": "0xcf21a60aabd88be1cfb639fc92296c6918cc2d1e1a110e8cf55b5e8d48f140df",
          "transactionIndex": "0x65",
          "logIndex": "0xb5",
          "removed": false
        },
        {
          "address": "0x8aafd3ede9adb0ff97c7aebce82a919afb1c8764",
          "topics": [
            "0x4afcb4a87cdbd9974efdb92ee48bc8d7cd0ae4bf217004db3d080cbaee652ca7"
          ],
          "data": "0x00000000000000000000000000000000000000000000000000000000679057c800000000000000000000000000000000000000000000000000128ea80956f6e20000000000000000000000000000000000000000000000000dccca9c74072721",
          "blockHash": "0xb75737bf345b24b805c960adbfec9bb79e8fa28fdb828c4210b093a2308b9afc",
          "blockNumber": "0x731ce8",
          "transactionHash": "0xcf21a60aabd88be1cfb639fc92296c6918cc2d1e1a110e8cf55b5e8d48f140df",
          "transactionIndex": "0x65",
          "logIndex": "0xb6",
          "removed": false
        }
      ],
      "logsBloom": "0x00000000000000000000000000000000000000000600000000000000000000000000000000000000000000000000000000000000000000004000000000000000000000000000004000000008000000000000000000000000000000000000000000000000020000000000000000000800020000000000000000000010000000000000000000000000000000000000000000000000000000000000010000000000000000000000000000000000000000004000000000000000000000000000000000000002000000800000000000000000000000000000080000000000000020000000000000000000000000000000000000000000000000000000000000000000",
      "type": "0x2",
      "transactionHash": "0xcf21a60aabd88be1cfb639fc92296c6918cc2d1e1a110e8cf55b5e8d48f140df",
      "transactionIndex": "0x65",
      "blockHash": "0xb75737bf345b24b805c960adbfec9bb79e8fa28fdb828c4210b093a2308b9afc",
      "blockNumber": "0x731ce8",
      "gasUsed": "0xfd4b",
      "effectiveGasPrice": "0x7c804fbe",
      "from": "0xc77f7fed3b5cc8249adc428c5f44c9063b9734b4",
      "to": "0x8aafd3ede9adb0ff97c7aebce82a919afb1c8764",
      "contractAddress": null
    }
  ],
  "libraries": [],
  "pending": [],
  "returns": {},
  "timestamp": 1737512905,
  "chain": 11155111,
  "commit": "1d2fb70"
}