{
  "transactions": [
    {
      "hash": "0x199cdba328ad4fa310c5f0cb04580a0c9dc32d32ba617364a5dcf617f173d94c",
      "transactionType": "CALL",
      "contractName": null,
      "contractAddress": "0x8aafd3ede9adb0ff97c7aebce82a919afb1c8764",
      "function": "sell(uint256)",
      "arguments": [
        "153550563180018"
      ],
      "transaction": {
        "from": "0xc77f7fed3b5cc8249adc428c5f44c9063b9734b4",
        "to": "0x8aafd3ede9adb0ff97c7aebce82a919afb1c8764",
        "gas": "0x15daa",
        "value": "0x0",
        "input": "0xe4849b3200000000000000000000000000000000000000000000000000008ba746c5fdf2",
        "nonce": "0x1337",
        "chainId": "0xaa36a7"
      },
      "additionalContracts": [],
      "isFixedGasLimit": false
    }
  ],
  "receipts": [
    {
      "status": "0x1",
      "cumulativeGasUsed": "0x6c11ac",
      "logs": [
        {
          "address": "0x8aafd3ede9adb0ff97c7aebce82a919afb1c8764",
          "topics": [
            "0xddf252ad1be2c89b69c2b068fc378daa952ba7f163c4a11628f55a4df523b3ef",
            "0x000000000000000000000000c77f7fed3b5cc8249adc428c5f44c9063b9734b4",
            "0x0000000000000000000000000000000000000000000000000000000000000000"
          ],
          "data": "0x00000000000000000000000000000000000000000000000000008a894428c292",
          "blockHash": "0xd5f942800fc82ccf88a6ff8769838d678ba7a2ff160ff3ecd0b440e067a1d246",
          "blockNumber": "0x731a4c",
          "transactionHash": "0x199cdba328ad4fa310c5f0cb04580a0c9dc32d32ba617364a5dcf617f173d94c",
          "transactionIndex": "0x7a",
          "logIndex": "0x58",
          "removed": false
        },
        {
          "address": "0x8aafd3ede9adb0ff97c7aebce82a919afb1c8764",
          "topics": [
            "0xddf252ad1be2c89b69c2b068fc378daa952ba7f163c4a11628f55a4df523b3ef",
            "0x000000000000000000000000c77f7fed3b5cc8249adc428c5f44c9063b9734b4",
            "0x000000000000000000000000c77f7fed3b5cc8249adc428c5f44c9063b9734b4"
          ],
          "data": "0x0000000000000000000000000000000000000000000000000000011e029d3b60",
          "blockHash": "0xd5f942800fc82ccf88a6ff8769838d678ba7a2ff160ff3ecd0b440e067a1d246",
          "blockNumber": "0x731a4c",
          "transactionHash": "0x199cdba328ad4fa310c5f0cb04580a0c9dc32d32ba617364a5dcf617f173d94c",
          "transactionIndex": "0x7a",
          "logIndex": "0x59",
          "removed": false
        },
        {
          "address": "0x8aafd3ede9adb0ff97c7aebce82a919afb1c8764",
          "topics": [
            "0x4afcb4a87cdbd9974efdb92ee48bc8d7cd0ae4bf217004db3d080cbaee652ca7"
          ],
          "data": "0x0000000000000000000000000000000000000000000000000000000067903860000000000000000000000000000000000000000000000000000bdd61fa14585e00000000000000000000000000000000000000000000000000000077657467ce",
          "blockHash": "0xd5f942800fc82ccf88a6ff8769838d678ba7a2ff160ff3ecd0b440e067a1d246",
          "blockNumber": "0x731a4c",
          "transactionHash": "0x199cdba328ad4fa310c5f0cb04580a0c9dc32d32ba617364a5dcf617f173d94c",
          "transactionIndex": "0x7a",
          "logIndex": "0x5a",
          "removed": false
        }
      ],
      "logsBloom": "0x00000000000000000000000000000000000000000600000000000000000000000000000000000000000000000000000000000000000000004000000000000000000000000000004000000008000000000000000000000000000000000000000000000000020000000000000000000800020000000000000000000010000000000000000000000000000000000000000000000000000000000000010000000000000000000000000000000000000000004000000000000000000000000000000000000002000000800000000000000000000000000000080000000000000020000000000000000000000000000000000000000000000000000000000000000000",
      "type": "0x2",
      "transactionHash": "0x199cdba328ad4fa310c5f0cb04580a0c9dc32d32ba617364a5dcf617f173d94c",
      "transactionIndex": "0x7a",
      "blockHash": "0xd5f942800fc82ccf88a6ff8769838d678ba7a2ff160ff3ecd0b440e067a1d246",
      "blockNumber": "0x731a4c",
      "gasUsed": "0xfd27",
      "effectiveGasPrice": "0x49a8cf26",
      "from": "0xc77f7fed3b5cc8249adc428c5f44c9063b9734b4",
      "to": "0x8aafd3ede9adb0ff97c7aebce82a919afb1c8764",
      "contractAddress": null
    }
  ],
  "libraries": [],
  "pending": [],
  "returns": {},
  "timestamp": 1737504865,
  "chain": 11155111,
  "commit": "1d2fb70"
}