{
  "transactions": [
    {
      "hash": "0xb3a4611bf7a7c1c8b80f691d82f6dd06afaed3626662cbaf8c4fdd3785baa121",
      "transactionType": "CALL",
      "contractName": null,
      "contractAddress": "0x8aafd3ede9adb0ff97c7aebce82a919afb1c8764",
      "function": "buy(address)",
      "arguments": [
        "0xC77f7fed3b5Cc8249aDc428c5F44C9063B9734b4"
      ],
      "transaction": {
        "from": "0xc77f7fed3b5cc8249adc428c5f44c9063b9734b4",
        "to": "0x8aafd3ede9adb0ff97c7aebce82a919afb1c8764",
        "gas": "0x156ea",
        "value": "0xde0b6b3a7640000",
        "input": "0xf088d547000000000000000000000000c77f7fed3b5cc8249adc428c5f44c9063b9734b4",
        "nonce": "0x1762",
        "chainId": "0xaa36a7"
      },
      "additionalContracts": [],
      "isFixedGasLimit": false
    }
  ],
  "receipts": [
    {
      "status": "0x1",
      "cumulativeGasUsed": "0x5c6a24",
      "logs": [
        {
          "address": "0x8aafd3ede9adb0ff97c7aebce82a919afb1c8764",
          "topics": [
            "0xddf252ad1be2c89b69c2b068fc378daa952ba7f163c4a11628f55a4df523b3ef",
            "0x0000000000000000000000000000000000000000000000000000000000000000",
            "0x000000000000000000000000c77f7fed3b5cc8249adc428c5f44c9063b9734b4"
          ],
          "data": "0x000000000000000000000000000000000000000000000007e83b2b1dcbc664bb",
          "blockHash": "0x8f41ed49480ae40b53d3ee88207671282ac8a98a530a359d7b8cc77122cb822f",
          "blockNumber": "0x731f37",
          "transactionHash": "0xb3a4611bf7a7c1c8b80f691d82f6dd06afaed3626662cbaf8c4fdd3785baa121",
          "transactionIndex": "0x45",
          "logIndex": "0x66",
          "removed": false
        },
        {
          "address": "0x8aafd3ede9adb0ff97c7aebce82a919afb1c8764",
          "topics": [
            "0xddf252ad1be2c89b69c2b068fc378daa952ba7f163c4a11628f55a4df523b3ef",
            "0x0000000000000000000000000000000000000000000000000000000000000000",
            "0x000000000000000000000000c77f7fed3b5cc8249adc428c5f44c9063b9734b4"
          ],
          "data": "0x0000000000000000000000000000000000000000000000000623e26fa5b395cb",
          "blockHash": "0x8f41ed49480ae40b53d3ee88207671282ac8a98a530a359d7b8cc77122cb822f",
          "blockNumber": "0x731f37",
          "transactionHash": "0xb3a4611bf7a7c1c8b80f691d82f6dd06afaed3626662cbaf8c4fdd3785baa121",
          "transactionIndex": "0x45",
          "logIndex": "0x67",
          "removed": false
        },
        {
          "address": "0x8aafd3ede9adb0ff97c7aebce82a919afb1c8764",
          "topics": [
            "0x4afcb4a87cdbd9974efdb92ee48bc8d7cd0ae4bf217004db3d080cbaee652ca7"
          ],
          "data": "0x000000000000000000000000000000000000000000000000000000006790737c000000000000000000000000000000000000000000000000001823ec14541b020000000000000000000000000000000000000000000000000de0b6b3a7640000",
          "blockHash": "0x8f41ed49480ae40b53d3ee88207671282ac8a98a530a359d7b8cc77122cb822f",
          "blockNumber": "0x731f37",
          "transactionHash": "0xb3a4611bf7a7c1c8b80f691d82f6dd06afaed3626662cbaf8c4fdd3785baa121",
          "transactionIndex": "0x45",
          "logIndex": "0x68",
          "removed": false
        }
      ],
      "logsBloom": "0x00000000000000000000000000000000000000000600000000000000000000000000000000000000000000000000000000000000000000004000000000000000000000000000004000000008000000000000000000000000000000000000000000000000020000000000000000000800020000000000000000000010000000000000000000000000000000000000000000000000000000000000010000000000000000000000000000000000000000004000000000000000000000000000000000000002000000800000000000000000000000000000080000000000000020000000000000000000000000000000000000000000000000000000000000000000",
      "type": "0x2",
      "transactionHash": "0xb3a4611bf7a7c1c8b80f691d82f6dd06afaed3626662cbaf8c4fdd3785baa121",
      "transactionIndex": "0x45",
      "blockHash": "0x8f41ed49480ae40b53d3ee88207671282ac8a98a530a359d7b8cc77122cb822f",
      "blockNumber": "0x731f37",
      "gasUsed": "0xf844",
      "effectiveGasPrice": "0x4052c4b4",
      "from": "0xc77f7fed3b5cc8249adc428c5f44c9063b9734b4",
      "to": "0x8aafd3ede9adb0ff97c7aebce82a919afb1c8764",
      "contractAddress": null
    }
  ],
  "libraries": [],
  "pending": [],
  "returns": {},
  "timestamp": 1737519998,
  "chain": 11155111,
  "commit": "1d2fb70"
}