{
  "transactions": [
    {
      "hash": "0x1f9e2138f081d2f98dab0eb6191f4768b7f450d730caf4fbcd41f567548c51b9",
      "transactionType": "CALL",
      "contractName": null,
      "contractAddress": "0xbf4a322f1496e5c3d34a9bcdb4c60567b38c7de2",
      "function": "sell(uint256)",
      "arguments": [
        "976800809559569868425"
      ],
      "transaction": {
        "from": "0xc77f7fed3b5cc8249adc428c5f44c9063b9734b4",
        "to": "0xbf4a322f1496e5c3d34a9bcdb4c60567b38c7de2",
        "gas": "0x16fea",
        "value": "0x0",
        "input": "0xe4849b32000000000000000000000000000000000000000000000034f3d598fb60262689",
        "nonce": "0xd07",
        "chainId": "0xaa36a7"
      },
      "additionalContracts": [],
      "isFixedGasLimit": false
    }
  ],
  "receipts": [
    {
      "status": "0x1",
      "cumulativeGasUsed": "0x8eebd8",
      "logs": [
        {
          "address": "0xbf4a322f1496e5c3d34a9bcdb4c60567b38c7de2",
          "topics": [
            "0xddf252ad1be2c89b69c2b068fc378daa952ba7f163c4a11628f55a4df523b3ef",
            "0x000000000000000000000000c77f7fed3b5cc8249adc428c5f44c9063b9734b4",
            "0x0000000000000000000000000000000000000000000000000000000000000000"
          ],
          "data": "0x000000000000000000000000000000000000000000000034f3d598fb60262689",
          "blockHash": "0x5262ad7e56aea780c1bc0d78822cda868aae2862463dc5b72b719763f91da670",
          "blockNumber": "0x725d60",
          "transactionHash": "0x1f9e2138f081d2f98dab0eb6191f4768b7f450d730caf4fbcd41f567548c51b9",
          "transactionIndex": "0x53",
          "logIndex": "0x74",
          "removed": false
        },
        {
          "address": "0xbf4a322f1496e5c3d34a9bcdb4c60567b38c7de2",
          "topics": [
            "0x4afcb4a87cdbd9974efdb92ee48bc8d7cd0ae4bf217004db3d080cbaee652ca7"
          ],
          "data": "0x00000000000000000000000000000000000000000000000000000000678752f400000000000000000000000000000000000000000000000000039c9b11d4511d0000000000000000000000000000000000000000000000000dc7e3daa0c8f7c5",
          "blockHash": "0x5262ad7e56aea780c1bc0d78822cda868aae2862463dc5b72b719763f91da670",
          "blockNumber": "0x725d60",
          "transactionHash": "0x1f9e2138f081d2f98dab0eb6191f4768b7f450d730caf4fbcd41f567548c51b9",
          "transactionIndex": "0x53",
          "logIndex": "0x75",
          "removed": false
        }
      ],
      "logsBloom": "0x00000000000000000000000000000000000000000000000000000000000000000000000000000000000000000000000000000000000000004000000000000000000000000000000000000008000000000000001000000000000000000000000000000000020000000000000000000800020000000000000000000010000000000000000000000000000000000000000000000000000008000000010000000000000000000000000000000000000000004000000000000000000000000000000000000002000000800000000000001000000000000000080000000000000020000000000000000000000000000000000000000000000000000000000000000000",
      "type": "0x2",
      "transactionHash": "0x1f9e2138f081d2f98dab0eb6191f4768b7f450d730caf4fbcd41f567548c51b9",
      "transactionIndex": "0x53",
      "blockHash": "0x5262ad7e56aea780c1bc0d78822cda868aae2862463dc5b72b719763f91da670",
      "blockNumber": "0x725d60",
      "gasUsed": "0xfb91",
      "effectiveGasPrice": "0x34396599d",
      "from": "0xc77f7fed3b5cc8249adc428c5f44c9063b9734b4",
      "to": "0xbf4a322f1496e5c3d34a9bcdb4c60567b38c7de2",
      "contractAddress": null
    }
  ],
  "libraries": [],
  "pending": [],
  "returns": {},
  "timestamp": 1736921845,
  "chain": 11155111,
  "commit": "51a374b"
}