{
  "transactions": [
    {
      "hash": "0xe367587bb01a69549f62b994169f1329e2a9d0c90b140ed2ad86a56b8d296cfb",
      "transactionType": "CALL",
      "contractName": null,
      "contractAddress": "0x8aafd3ede9adb0ff97c7aebce82a919afb1c8764",
      "function": "buy(address)",
      "arguments": [
        "0xC77f7fed3b5Cc8249aDc428c5F44C9063B9734b4"
      ],
      "transaction": {
        "from": "0xc77f7fed3b5cc8249adc428c5f44c9063b9734b4",
        "to": "0x8aafd3ede9adb0ff97c7aebce82a919afb1c8764",
        "gas": "0x156ea",
        "value": "0xde0b6b3a7640000",
        "input": "0xf088d547000000000000000000000000c77f7fed3b5cc8249adc428c5f44c9063b9734b4",
        "nonce": "0x15df",
        "chainId": "0xaa36a7"
      },
      "additionalContracts": [],
      "isFixedGasLimit": false
    }
  ],
  "receipts": [
    {
      "status": "0x1",
      "cumulativeGasUsed": "0x11a7031",
      "logs": [
        {
          "address": "0x8aafd3ede9adb0ff97c7aebce82a919afb1c8764",
          "topics": [
            "0xddf252ad1be2c89b69c2b068fc378daa952ba7f163c4a11628f55a4df523b3ef",
            "0x0000000000000000000000000000000000000000000000000000000000000000",
            "0x000000000000000000000000c77f7fed3b5cc8249adc428c5f44c9063b9734b4"
          ],
          "data": "0x000000000000000000000000000000000000000000000009ba3f0a7d12d705b7",
          "blockHash": "0xea804a5e42333b27b3d94f1165176e7e2e3ec678966b6178d52b4ee688b78a71",
          "blockNumber": "0x731d61",
          "transactionHash": "0xe367587bb01a69549f62b994169f1329e2a9d0c90b140ed2ad86a56b8d296cfb",
          "transactionIndex": "0x84",
          "logIndex": "0xc1",
          "removed": false
        },
        {
          "address": "0x8aafd3ede9adb0ff97c7aebce82a919afb1c8764",
          "topics": [
            "0xddf252ad1be2c89b69c2b068fc378daa952ba7f163c4a11628f55a4df523b3ef",
            "0x0000000000000000000000000000000000000000000000000000000000000000",
            "0x000000000000000000000000c77f7fed3b5cc8249adc428c5f44c9063b9734b4"
          ],
          "data": "0x000000000000000000000000000000000000000000000000078dc2db40d7e851",
          "blockHash": "0xea804a5e42333b27b3d94f1165176e7e2e3ec678966b6178d52b4ee688b78a71",
          "blockNumber": "0x731d61",
          "transactionHash": "0xe367587bb01a69549f62b994169f1329e2a9d0c90b140ed2ad86a56b8d296cfb",
          "transactionIndex": "0x84",
          "logIndex": "0xc2",
          "removed": false
        },
        {
          "address": "0x8aafd3ede9adb0ff97c7aebce82a919afb1c8764",
          "topics": [
            "0x4afcb4a87cdbd9974efdb92ee48bc8d7cd0ae4bf217004db3d080cbaee652ca7"
          ],
          "data": "0x0000000000000000000000000000000000000000000000000000000067905d740000000000000000000000000000000000000000000000000013a07cbec0546e0000000000000000000000000000000000000000000000000de0b6b3a7640000",
          "blockHash": "0xea804a5e42333b27b3d94f1165176e7e2e3ec678966b6178d52b4ee688b78a71",
          "blockNumber": "0x731d61",
          "transactionHash": "0xe367587bb01a69549f62b994169f1329e2a9d0c90b140ed2ad86a56b8d296cfb",
          "transactionIndex": "0x84",
          "logIndex": "0xc3",
          "removed": false
        }
      ],
      "logsBloom": "0x00000000000000000000000000000000000000000600000000000000000000000000000000000000000000000000000000000000000000004000000000000000000000000000004000000008000000000000000000000000000000000000000000000000020000000000000000000800020000000000000000000010000000000000000000000000000000000000000000000000000000000000010000000000000000000000000000000000000000004000000000000000000000000000000000000002000000800000000000000000000000000000080000000000000020000000000000000000000000000000000000000000000000000000000000000000",
      "type": "0x2",
      "transactionHash": "0xe367587bb01a69549f62b994169f1329e2a9d0c90b140ed2ad86a56b8d296cfb",
      "transactionIndex": "0x84",
      "blockHash": "0xea804a5e42333b27b3d94f1165176e7e2e3ec678966b6178d52b4ee688b78a71",
      "blockNumber": "0x731d61",
      "gasUsed": "0xf844",
      "effectiveGasPrice": "0x63135e9a",
      "from": "0xc77f7fed3b5cc8249adc428c5f44c9063b9734b4",
      "to": "0x8aafd3ede9adb0ff97c7aebce82a919afb1c8764",
      "contractAddress": null
    }
  ],
  "libraries": [],
  "pending": [],
  "returns": {},
  "timestamp": 1737514358,
  "chain": 11155111,
  "commit": "1d2fb70"
}