{
  "transactions": [
    {
      "hash": "0xd4994b6b5a496bf60ce86053b6f09ebf9cea9372371aa8f4a6ddc7db9683b602",
      "transactionType": "CALL",
      "contractName": null,
      "contractAddress": "0xbf4a322f1496e5c3d34a9bcdb4c60567b38c7de2",
      "function": "sell(uint256)",
      "arguments": [
        "986282639228868276424"
      ],
      "transaction": {
        "from": "0xc77f7fed3b5cc8249adc428c5f44c9063b9734b4",
        "to": "0xbf4a322f1496e5c3d34a9bcdb4c60567b38c7de2",
        "gas": "0x16fea",
        "value": "0x0",
        "input": "0xe4849b32000000000000000000000000000000000000000000000035776bd2d44b70b0c8",
        "nonce": "0xa47",
        "chainId": "0xaa36a7"
      },
      "additionalContracts": [],
      "isFixedGasLimit": false
    }
  ],
  "receipts": [
    {
      "status": "0x1",
      "cumulativeGasUsed": "0x869757",
      "logs": [
        {
          "address": "0xbf4a322f1496e5c3d34a9bcdb4c60567b38c7de2",
          "topics": [
            "0xddf252ad1be2c89b69c2b068fc378daa952ba7f163c4a11628f55a4df523b3ef",
            "0x000000000000000000000000c77f7fed3b5cc8249adc428c5f44c9063b9734b4",
            "0x0000000000000000000000000000000000000000000000000000000000000000"
          ],
          "data": "0x000000000000000000000000000000000000000000000035776bd2d44b70b0c8",
          "blockHash": "0x9b36cb992904c6e09eec61729ae50f8c49c962d3071a056f6ed28d138667d1e4",
          "blockNumber": "0x725a1f",
          "transactionHash": "0xd4994b6b5a496bf60ce86053b6f09ebf9cea9372371aa8f4a6ddc7db9683b602",
          "transactionIndex": "0x53",
          "logIndex": "0x7d",
          "removed": false
        },
        {
          "address": "0xbf4a322f1496e5c3d34a9bcdb4c60567b38c7de2",
          "topics": [
            "0x4afcb4a87cdbd9974efdb92ee48bc8d7cd0ae4bf217004db3d080cbaee652ca7"
          ],
          "data": "0x0000000000000000000000000000000000000000000000000000000067872bc4000000000000000000000000000000000000000000000000000393b793af54890000000000000000000000000000000000000000000000000dc7e3f0ac6c1bc3",
          "blockHash": "0x9b36cb992904c6e09eec61729ae50f8c49c962d3071a056f6ed28d138667d1e4",
          "blockNumber": "0x725a1f",
          "transactionHash": "0xd4994b6b5a496bf60ce86053b6f09ebf9cea9372371aa8f4a6ddc7db9683b602",
          "transactionIndex": "0x53",
          "logIndex": "0x7e",
          "removed": false
        }
      ],
      "logsBloom": "0x00000000000000000000000000000000000000000000000000000000000000000000000000000000000000000000000000000000000000004000000000000000000000000000000000000008000000000000001000000000000000000000000000000000020000000000000000000800020000000000000000000010000000000000000000000000000000000000000000000000000008000000010000000000000000000000000000000000000000004000000000000000000000000000000000000002000000800000000000001000000000000000080000000000000020000000000000000000000000000000000000000000000000000000000000000000",
      "type": "0x2",
      "transactionHash": "0xd4994b6b5a496bf60ce86053b6f09ebf9cea9372371aa8f4a6ddc7db9683b602",
      "transactionIndex": "0x53",
      "blockHash": "0x9b36cb992904c6e09eec61729ae50f8c49c962d3071a056f6ed28d138667d1e4",
      "blockNumber": "0x725a1f",
      "gasUsed": "0xfb91",
      "effectiveGasPrice": "0x5ff5fb608",
      "from": "0xc77f7fed3b5cc8249adc428c5f44c9063b9734b4",
      "to": "0xbf4a322f1496e5c3d34a9bcdb4c60567b38c7de2",
      "contractAddress": null
    }
  ],
  "libraries": [],
  "pending": [],
  "returns": {},
  "timestamp": 1736911813,
  "chain": 11155111,
  "commit": "51a374b"
}